{
	"hopium/etf/main/etf-factory-v1.sol": {
		"EtfFactory": {
			"abi": [
				{
					"inputs": [
						{
							"internalType": "address",
							"name": "_directory",
							"type": "address"
						},
						{
							"internalType": "address",
							"name": "_wethAddress",
							"type": "address"
						}
					],
					"stateMutability": "nonpayable",
					"type": "constructor"
				},
				{
					"inputs": [],
					"name": "DuplicateToken",
					"type": "error"
				},
				{
					"inputs": [],
					"name": "EmptyTicker",
					"type": "error"
				},
				{
					"inputs": [],
					"name": "EtfExists",
					"type": "error"
				},
				{
					"inputs": [],
					"name": "NoAssets",
					"type": "error"
				},
				{
					"inputs": [],
					"name": "NoPoolFound",
					"type": "error"
				},
				{
					"inputs": [],
					"name": "NotHundred",
					"type": "error"
				},
				{
					"inputs": [],
					"name": "OverWeight",
					"type": "error"
				},
				{
					"inputs": [],
					"name": "TickerExists",
					"type": "error"
				},
				{
					"inputs": [],
					"name": "ZeroToken",
					"type": "error"
				},
				{
					"inputs": [],
					"name": "ZeroTradeValue",
					"type": "error"
				},
				{
					"inputs": [],
					"name": "ZeroWeight",
					"type": "error"
				},
				{
					"inputs": [],
					"name": "ZeroWethUsdPrice",
					"type": "error"
				},
				{
					"anonymous": false,
					"inputs": [
						{
							"indexed": true,
							"internalType": "uint256",
							"name": "etfId",
							"type": "uint256"
						}
					],
					"name": "EtfCreated",
					"type": "event"
				},
				{
					"anonymous": false,
					"inputs": [
						{
							"indexed": true,
							"internalType": "uint256",
							"name": "etfId",
							"type": "uint256"
						},
						{
							"indexed": false,
							"internalType": "address",
							"name": "etfTokenAddress",
							"type": "address"
						},
						{
							"indexed": false,
							"internalType": "address",
							"name": "etfVaultAddress",
							"type": "address"
						}
					],
					"name": "EtfDeployed",
					"type": "event"
				},
				{
					"inputs": [],
					"name": "Directory",
					"outputs": [
						{
							"internalType": "contract IDirectory",
							"name": "",
							"type": "address"
						}
					],
					"stateMutability": "view",
					"type": "function"
				},
				{
					"inputs": [],
					"name": "WETH_ADDRESS",
					"outputs": [
						{
							"internalType": "address",
							"name": "",
							"type": "address"
						}
					],
					"stateMutability": "view",
					"type": "function"
				},
				{
					"inputs": [
						{
							"internalType": "address",
							"name": "_directory",
							"type": "address"
						}
					],
					"name": "changeDirectoryAddress",
					"outputs": [],
					"stateMutability": "nonpayable",
					"type": "function"
				},
				{
					"inputs": [
						{
							"components": [
								{
									"internalType": "string",
									"name": "name",
									"type": "string"
								},
								{
									"internalType": "string",
									"name": "ticker",
									"type": "string"
								},
								{
									"components": [
										{
											"internalType": "address",
											"name": "tokenAddress",
											"type": "address"
										},
										{
											"internalType": "uint16",
											"name": "weightBips",
											"type": "uint16"
										}
									],
									"internalType": "struct Asset[]",
									"name": "assets",
									"type": "tuple[]"
								}
							],
							"internalType": "struct Etf",
							"name": "etf",
							"type": "tuple"
						}
					],
					"name": "createEtf",
					"outputs": [
						{
							"internalType": "uint256",
							"name": "",
							"type": "uint256"
						}
					],
					"stateMutability": "nonpayable",
					"type": "function"
				},
				{
					"inputs": [
						{
							"internalType": "string",
							"name": "_key",
							"type": "string"
						}
					],
					"name": "fetchFromDirectory",
					"outputs": [
						{
							"internalType": "address",
							"name": "",
							"type": "address"
						}
					],
					"stateMutability": "view",
					"type": "function"
				},
				{
					"inputs": [
						{
							"internalType": "uint256",
							"name": "etfId",
							"type": "uint256"
						}
					],
					"name": "getEtfTokenAddress",
					"outputs": [
						{
							"internalType": "address",
							"name": "",
							"type": "address"
						}
					],
					"stateMutability": "view",
					"type": "function"
				},
				{
					"inputs": [
						{
							"internalType": "uint256",
							"name": "etfId",
							"type": "uint256"
						}
					],
					"name": "getEtfTotalVolumeUsd",
					"outputs": [
						{
							"internalType": "uint256",
							"name": "",
							"type": "uint256"
						}
					],
					"stateMutability": "view",
					"type": "function"
				},
				{
					"inputs": [
						{
							"internalType": "uint256",
							"name": "etfId",
							"type": "uint256"
						}
					],
					"name": "getEtfTotalVolumeWeth",
					"outputs": [
						{
							"internalType": "uint256",
							"name": "",
							"type": "uint256"
						}
					],
					"stateMutability": "view",
					"type": "function"
				},
				{
					"inputs": [
						{
							"internalType": "uint256",
							"name": "etfId",
							"type": "uint256"
						}
					],
					"name": "getEtfVaultAddress",
					"outputs": [
						{
							"internalType": "address",
							"name": "",
							"type": "address"
						}
					],
					"stateMutability": "view",
					"type": "function"
				},
				{
					"inputs": [],
					"name": "owner",
					"outputs": [
						{
							"internalType": "address",
							"name": "",
							"type": "address"
						}
					],
					"stateMutability": "view",
					"type": "function"
				},
				{
					"inputs": [
						{
							"internalType": "uint256",
							"name": "etfId",
							"type": "uint256"
						},
						{
							"internalType": "uint256",
							"name": "ethAmount",
							"type": "uint256"
						}
					],
					"name": "updateEtfVolume",
					"outputs": [],
					"stateMutability": "nonpayable",
					"type": "function"
				}
			],
			"devdoc": {
				"kind": "dev",
				"methods": {},
				"version": 1
			},
			"evm": {
				"assembly": "    /* \"hopium/etf/main/etf-factory-v1.sol\":5660:7545  contract EtfFactory is ImDirectory, Helpers, ImEtfTokenDeployer, ImEtfVaultDeployer, ImEtfRouter, ImPriceOracle {... */\n  mstore(0x40, 0xc0)\n    /* \"hopium/etf/main/etf-factory-v1.sol\":545:549  1e18 */\n  0x0de0b6b3a7640000\n    /* \"hopium/etf/main/etf-factory-v1.sol\":512:549  uint256 internal immutable WAD = 1e18 */\n  0x80\n  swap1\n  dup2\n  mstore\n  pop\n    /* \"hopium/etf/main/etf-factory-v1.sol\":5778:5901  constructor(address _directory,  address _wethAddress) ImDirectory(_directory) {... */\n  callvalue\n  dup1\n  iszero\n  tag_1\n  jumpi\n  revert(0x00, 0x00)\ntag_1:\n  pop\n  mload(0x40)\n  sub(codesize, bytecodeSize)\n  dup1\n  bytecodeSize\n  dup4\n  codecopy\n  dup2\n  dup2\n  add\n  0x40\n  mstore\n  dup2\n  add\n  swap1\n  tag_2\n  swap2\n  swap1\n  tag_3\n  jump\t// in\ntag_2:\n    /* \"hopium/etf/main/etf-factory-v1.sol\":5845:5855  _directory */\n  dup2\n    /* \"hopium/common/interface/imDirectory.sol\":412:437  _setDirectory(_directory) */\n  tag_7\n    /* \"hopium/common/interface/imDirectory.sol\":426:436  _directory */\n  dup2\n    /* \"hopium/common/interface/imDirectory.sol\":412:425  _setDirectory */\n  shl(0x20, tag_8)\n    /* \"hopium/common/interface/imDirectory.sol\":412:437  _setDirectory(_directory) */\n  0x20\n  shr\n  jump\t// in\ntag_7:\n    /* \"hopium/common/interface/imDirectory.sol\":370:464  constructor(address _directory) {... */\n  pop\n    /* \"hopium/etf/main/etf-factory-v1.sol\":5882:5894  _wethAddress */\n  dup1\n    /* \"hopium/etf/main/etf-factory-v1.sol\":5867:5894  WETH_ADDRESS = _wethAddress */\n  0xffffffffffffffffffffffffffffffffffffffff\n  and\n  0xa0\n  dup2\n  0xffffffffffffffffffffffffffffffffffffffff\n  and\n  dup2\n  mstore\n  pop\n  pop\n    /* \"hopium/etf/main/etf-factory-v1.sol\":5778:5901  constructor(address _directory,  address _wethAddress) ImDirectory(_directory) {... */\n  pop\n  pop\n    /* \"hopium/etf/main/etf-factory-v1.sol\":5660:7545  contract EtfFactory is ImDirectory, Helpers, ImEtfTokenDeployer, ImEtfVaultDeployer, ImEtfRouter, ImPriceOracle {... */\n  jump(tag_10)\n    /* \"hopium/common/interface/imDirectory.sol\":589:1050  function _setDirectory(address _directory) internal {... */\ntag_8:\n    /* \"hopium/common/interface/imDirectory.sol\":681:682  0 */\n  0x00\n    /* \"hopium/common/interface/imDirectory.sol\":659:683  _directory != address(0) */\n  0xffffffffffffffffffffffffffffffffffffffff\n  and\n    /* \"hopium/common/interface/imDirectory.sol\":659:669  _directory */\n  dup2\n    /* \"hopium/common/interface/imDirectory.sol\":659:683  _directory != address(0) */\n  0xffffffffffffffffffffffffffffffffffffffff\n  and\n  sub\n    /* \"hopium/common/interface/imDirectory.sol\":651:720  require(_directory != address(0), \"Directory cannot be zero address\") */\n  tag_12\n  jumpi\n  mload(0x40)\n  0x08c379a000000000000000000000000000000000000000000000000000000000\n  dup2\n  mstore\n  0x04\n  add\n  tag_13\n  swap1\n  tag_14\n  jump\t// in\ntag_13:\n  mload(0x40)\n  dup1\n  swap2\n  sub\n  swap1\n  revert\ntag_12:\n    /* \"hopium/common/interface/imDirectory.sol\":763:764  0 */\n  0x00\n    /* \"hopium/common/interface/imDirectory.sol\":738:748  _directory */\n  dup2\n    /* \"hopium/common/interface/imDirectory.sol\":738:760  _directory.code.length */\n  0xffffffffffffffffffffffffffffffffffffffff\n  and\n  extcodesize\n    /* \"hopium/common/interface/imDirectory.sol\":738:764  _directory.code.length > 0 */\n  gt\n    /* \"hopium/common/interface/imDirectory.sol\":730:797  require(_directory.code.length > 0, \"Directory must be a contract\") */\n  tag_15\n  jumpi\n  mload(0x40)\n  0x08c379a000000000000000000000000000000000000000000000000000000000\n  dup2\n  mstore\n  0x04\n  add\n  tag_16\n  swap1\n  tag_17\n  jump\t// in\ntag_16:\n  mload(0x40)\n  dup1\n  swap2\n  sub\n  swap1\n  revert\ntag_15:\n    /* \"hopium/common/interface/imDirectory.sol\":861:871  _directory */\n  dup1\n    /* \"hopium/common/interface/imDirectory.sol\":850:878  IDirectory(_directory).owner */\n  0xffffffffffffffffffffffffffffffffffffffff\n  and\n  0x8da5cb5b\n    /* \"hopium/common/interface/imDirectory.sol\":850:880  IDirectory(_directory).owner() */\n  mload(0x40)\n  dup2\n  0xffffffff\n  and\n  0xe0\n  shl\n  dup2\n  mstore\n  0x04\n  add\n  0x20\n  mload(0x40)\n  dup1\n  dup4\n  sub\n  dup2\n  dup7\n  gas\n  staticcall\n  swap3\n  pop\n  pop\n  pop\n  dup1\n  iszero\n  tag_18\n  jumpi\n  pop\n  mload(0x40)\n  returndatasize\n  not(0x1f)\n  0x1f\n  dup3\n  add\n  and\n  dup3\n  add\n  dup1\n  0x40\n  mstore\n  pop\n  dup2\n  add\n  swap1\n  tag_19\n  swap2\n  swap1\n  tag_20\n  jump\t// in\ntag_19:\n  0x01\ntag_18:\n    /* \"hopium/common/interface/imDirectory.sol\":846:1044  try IDirectory(_directory).owner() returns (address) {... */\n  tag_21\n  jumpi\n    /* \"hopium/common/interface/imDirectory.sol\":979:1033  revert(\"Directory address does not implement owner()\") */\n  mload(0x40)\n  0x08c379a000000000000000000000000000000000000000000000000000000000\n  dup2\n  mstore\n  0x04\n  add\n  tag_25\n  swap1\n  tag_26\n  jump\t// in\ntag_25:\n  mload(0x40)\n  dup1\n  swap2\n  sub\n  swap1\n  revert\n    /* \"hopium/common/interface/imDirectory.sol\":846:1044  try IDirectory(_directory).owner() returns (address) {... */\ntag_21:\n    /* \"hopium/common/interface/imDirectory.sol\":936:946  _directory */\n  dup2\n    /* \"hopium/common/interface/imDirectory.sol\":913:922  Directory */\n  0x07\n  0x00\n    /* \"hopium/common/interface/imDirectory.sol\":913:947  Directory = IDirectory(_directory) */\n  0x0100\n  exp\n  dup2\n  sload\n  dup2\n  0xffffffffffffffffffffffffffffffffffffffff\n  mul\n  not\n  and\n  swap1\n  dup4\n  0xffffffffffffffffffffffffffffffffffffffff\n  and\n  mul\n  or\n  swap1\n  sstore\n  pop\n    /* \"hopium/common/interface/imDirectory.sol\":881:958  returns (address) {... */\n  pop\n    /* \"hopium/common/interface/imDirectory.sol\":589:1050  function _setDirectory(address _directory) internal {... */\n  pop\n  jump\t// out\n    /* \"#utility.yul\":88:205   */\ntag_29:\n    /* \"#utility.yul\":197:198   */\n  0x00\n    /* \"#utility.yul\":194:195   */\n  0x00\n    /* \"#utility.yul\":187:199   */\n  revert\n    /* \"#utility.yul\":334:460   */\ntag_31:\n    /* \"#utility.yul\":371:378   */\n  0x00\n    /* \"#utility.yul\":411:453   */\n  0xffffffffffffffffffffffffffffffffffffffff\n    /* \"#utility.yul\":404:409   */\n  dup3\n    /* \"#utility.yul\":400:454   */\n  and\n    /* \"#utility.yul\":389:454   */\n  swap1\n  pop\n    /* \"#utility.yul\":334:460   */\n  swap2\n  swap1\n  pop\n  jump\t// out\n    /* \"#utility.yul\":466:562   */\ntag_32:\n    /* \"#utility.yul\":503:510   */\n  0x00\n    /* \"#utility.yul\":532:556   */\n  tag_48\n    /* \"#utility.yul\":550:555   */\n  dup3\n    /* \"#utility.yul\":532:556   */\n  tag_31\n  jump\t// in\ntag_48:\n    /* \"#utility.yul\":521:556   */\n  swap1\n  pop\n    /* \"#utility.yul\":466:562   */\n  swap2\n  swap1\n  pop\n  jump\t// out\n    /* \"#utility.yul\":568:690   */\ntag_33:\n    /* \"#utility.yul\":641:665   */\n  tag_50\n    /* \"#utility.yul\":659:664   */\n  dup2\n    /* \"#utility.yul\":641:665   */\n  tag_32\n  jump\t// in\ntag_50:\n    /* \"#utility.yul\":634:639   */\n  dup2\n    /* \"#utility.yul\":631:666   */\n  eq\n    /* \"#utility.yul\":621:684   */\n  tag_51\n  jumpi\n    /* \"#utility.yul\":680:681   */\n  0x00\n    /* \"#utility.yul\":677:678   */\n  0x00\n    /* \"#utility.yul\":670:682   */\n  revert\n    /* \"#utility.yul\":621:684   */\ntag_51:\n    /* \"#utility.yul\":568:690   */\n  pop\n  jump\t// out\n    /* \"#utility.yul\":696:839   */\ntag_34:\n    /* \"#utility.yul\":753:758   */\n  0x00\n    /* \"#utility.yul\":784:790   */\n  dup2\n    /* \"#utility.yul\":778:791   */\n  mload\n    /* \"#utility.yul\":769:791   */\n  swap1\n  pop\n    /* \"#utility.yul\":800:833   */\n  tag_53\n    /* \"#utility.yul\":827:832   */\n  dup2\n    /* \"#utility.yul\":800:833   */\n  tag_33\n  jump\t// in\ntag_53:\n    /* \"#utility.yul\":696:839   */\n  swap3\n  swap2\n  pop\n  pop\n  jump\t// out\n    /* \"#utility.yul\":845:1352   */\ntag_3:\n    /* \"#utility.yul\":924:930   */\n  0x00\n    /* \"#utility.yul\":932:938   */\n  0x00\n    /* \"#utility.yul\":981:983   */\n  0x40\n    /* \"#utility.yul\":969:978   */\n  dup4\n    /* \"#utility.yul\":960:967   */\n  dup6\n    /* \"#utility.yul\":956:979   */\n  sub\n    /* \"#utility.yul\":952:984   */\n  slt\n    /* \"#utility.yul\":949:1068   */\n  iszero\n  tag_55\n  jumpi\n    /* \"#utility.yul\":987:1066   */\n  tag_56\n  tag_29\n  jump\t// in\ntag_56:\n    /* \"#utility.yul\":949:1068   */\ntag_55:\n    /* \"#utility.yul\":1107:1108   */\n  0x00\n    /* \"#utility.yul\":1132:1196   */\n  tag_57\n    /* \"#utility.yul\":1188:1195   */\n  dup6\n    /* \"#utility.yul\":1179:1185   */\n  dup3\n    /* \"#utility.yul\":1168:1177   */\n  dup7\n    /* \"#utility.yul\":1164:1186   */\n  add\n    /* \"#utility.yul\":1132:1196   */\n  tag_34\n  jump\t// in\ntag_57:\n    /* \"#utility.yul\":1122:1196   */\n  swap3\n  pop\n    /* \"#utility.yul\":1078:1206   */\n  pop\n    /* \"#utility.yul\":1245:1247   */\n  0x20\n    /* \"#utility.yul\":1271:1335   */\n  tag_58\n    /* \"#utility.yul\":1327:1334   */\n  dup6\n    /* \"#utility.yul\":1318:1324   */\n  dup3\n    /* \"#utility.yul\":1307:1316   */\n  dup7\n    /* \"#utility.yul\":1303:1325   */\n  add\n    /* \"#utility.yul\":1271:1335   */\n  tag_34\n  jump\t// in\ntag_58:\n    /* \"#utility.yul\":1261:1335   */\n  swap2\n  pop\n    /* \"#utility.yul\":1216:1345   */\n  pop\n    /* \"#utility.yul\":845:1352   */\n  swap3\n  pop\n  swap3\n  swap1\n  pop\n  jump\t// out\n    /* \"#utility.yul\":1358:1527   */\ntag_35:\n    /* \"#utility.yul\":1442:1453   */\n  0x00\n    /* \"#utility.yul\":1476:1482   */\n  dup3\n    /* \"#utility.yul\":1471:1474   */\n  dup3\n    /* \"#utility.yul\":1464:1483   */\n  mstore\n    /* \"#utility.yul\":1516:1520   */\n  0x20\n    /* \"#utility.yul\":1511:1514   */\n  dup3\n    /* \"#utility.yul\":1507:1521   */\n  add\n    /* \"#utility.yul\":1492:1521   */\n  swap1\n  pop\n    /* \"#utility.yul\":1358:1527   */\n  swap3\n  swap2\n  pop\n  pop\n  jump\t// out\n    /* \"#utility.yul\":1533:1715   */\ntag_36:\n    /* \"#utility.yul\":1673:1707   */\n  0x4469726563746f72792063616e6e6f74206265207a65726f2061646472657373\n    /* \"#utility.yul\":1669:1670   */\n  0x00\n    /* \"#utility.yul\":1661:1667   */\n  dup3\n    /* \"#utility.yul\":1657:1671   */\n  add\n    /* \"#utility.yul\":1650:1708   */\n  mstore\n    /* \"#utility.yul\":1533:1715   */\n  pop\n  jump\t// out\n    /* \"#utility.yul\":1721:2087   */\ntag_37:\n    /* \"#utility.yul\":1863:1866   */\n  0x00\n    /* \"#utility.yul\":1884:1951   */\n  tag_62\n    /* \"#utility.yul\":1948:1950   */\n  0x20\n    /* \"#utility.yul\":1943:1946   */\n  dup4\n    /* \"#utility.yul\":1884:1951   */\n  tag_35\n  jump\t// in\ntag_62:\n    /* \"#utility.yul\":1877:1951   */\n  swap2\n  pop\n    /* \"#utility.yul\":1960:2053   */\n  tag_63\n    /* \"#utility.yul\":2049:2052   */\n  dup3\n    /* \"#utility.yul\":1960:2053   */\n  tag_36\n  jump\t// in\ntag_63:\n    /* \"#utility.yul\":2078:2080   */\n  0x20\n    /* \"#utility.yul\":2073:2076   */\n  dup3\n    /* \"#utility.yul\":2069:2081   */\n  add\n    /* \"#utility.yul\":2062:2081   */\n  swap1\n  pop\n    /* \"#utility.yul\":1721:2087   */\n  swap2\n  swap1\n  pop\n  jump\t// out\n    /* \"#utility.yul\":2093:2512   */\ntag_14:\n    /* \"#utility.yul\":2259:2263   */\n  0x00\n    /* \"#utility.yul\":2297:2299   */\n  0x20\n    /* \"#utility.yul\":2286:2295   */\n  dup3\n    /* \"#utility.yul\":2282:2300   */\n  add\n    /* \"#utility.yul\":2274:2300   */\n  swap1\n  pop\n    /* \"#utility.yul\":2346:2355   */\n  dup2\n    /* \"#utility.yul\":2340:2344   */\n  dup2\n    /* \"#utility.yul\":2336:2356   */\n  sub\n    /* \"#utility.yul\":2332:2333   */\n  0x00\n    /* \"#utility.yul\":2321:2330   */\n  dup4\n    /* \"#utility.yul\":2317:2334   */\n  add\n    /* \"#utility.yul\":2310:2357   */\n  mstore\n    /* \"#utility.yul\":2374:2505   */\n  tag_65\n    /* \"#utility.yul\":2500:2504   */\n  dup2\n    /* \"#utility.yul\":2374:2505   */\n  tag_37\n  jump\t// in\ntag_65:\n    /* \"#utility.yul\":2366:2505   */\n  swap1\n  pop\n    /* \"#utility.yul\":2093:2512   */\n  swap2\n  swap1\n  pop\n  jump\t// out\n    /* \"#utility.yul\":2518:2696   */\ntag_38:\n    /* \"#utility.yul\":2658:2688   */\n  0x4469726563746f7279206d757374206265206120636f6e747261637400000000\n    /* \"#utility.yul\":2654:2655   */\n  0x00\n    /* \"#utility.yul\":2646:2652   */\n  dup3\n    /* \"#utility.yul\":2642:2656   */\n  add\n    /* \"#utility.yul\":2635:2689   */\n  mstore\n    /* \"#utility.yul\":2518:2696   */\n  pop\n  jump\t// out\n    /* \"#utility.yul\":2702:3068   */\ntag_39:\n    /* \"#utility.yul\":2844:2847   */\n  0x00\n    /* \"#utility.yul\":2865:2932   */\n  tag_68\n    /* \"#utility.yul\":2929:2931   */\n  0x1c\n    /* \"#utility.yul\":2924:2927   */\n  dup4\n    /* \"#utility.yul\":2865:2932   */\n  tag_35\n  jump\t// in\ntag_68:\n    /* \"#utility.yul\":2858:2932   */\n  swap2\n  pop\n    /* \"#utility.yul\":2941:3034   */\n  tag_69\n    /* \"#utility.yul\":3030:3033   */\n  dup3\n    /* \"#utility.yul\":2941:3034   */\n  tag_38\n  jump\t// in\ntag_69:\n    /* \"#utility.yul\":3059:3061   */\n  0x20\n    /* \"#utility.yul\":3054:3057   */\n  dup3\n    /* \"#utility.yul\":3050:3062   */\n  add\n    /* \"#utility.yul\":3043:3062   */\n  swap1\n  pop\n    /* \"#utility.yul\":2702:3068   */\n  swap2\n  swap1\n  pop\n  jump\t// out\n    /* \"#utility.yul\":3074:3493   */\ntag_17:\n    /* \"#utility.yul\":3240:3244   */\n  0x00\n    /* \"#utility.yul\":3278:3280   */\n  0x20\n    /* \"#utility.yul\":3267:3276   */\n  dup3\n    /* \"#utility.yul\":3263:3281   */\n  add\n    /* \"#utility.yul\":3255:3281   */\n  swap1\n  pop\n    /* \"#utility.yul\":3327:3336   */\n  dup2\n    /* \"#utility.yul\":3321:3325   */\n  dup2\n    /* \"#utility.yul\":3317:3337   */\n  sub\n    /* \"#utility.yul\":3313:3314   */\n  0x00\n    /* \"#utility.yul\":3302:3311   */\n  dup4\n    /* \"#utility.yul\":3298:3315   */\n  add\n    /* \"#utility.yul\":3291:3338   */\n  mstore\n    /* \"#utility.yul\":3355:3486   */\n  tag_71\n    /* \"#utility.yul\":3481:3485   */\n  dup2\n    /* \"#utility.yul\":3355:3486   */\n  tag_39\n  jump\t// in\ntag_71:\n    /* \"#utility.yul\":3347:3486   */\n  swap1\n  pop\n    /* \"#utility.yul\":3074:3493   */\n  swap2\n  swap1\n  pop\n  jump\t// out\n    /* \"#utility.yul\":3499:3850   */\ntag_20:\n    /* \"#utility.yul\":3569:3575   */\n  0x00\n    /* \"#utility.yul\":3618:3620   */\n  0x20\n    /* \"#utility.yul\":3606:3615   */\n  dup3\n    /* \"#utility.yul\":3597:3604   */\n  dup5\n    /* \"#utility.yul\":3593:3616   */\n  sub\n    /* \"#utility.yul\":3589:3621   */\n  slt\n    /* \"#utility.yul\":3586:3705   */\n  iszero\n  tag_73\n  jumpi\n    /* \"#utility.yul\":3624:3703   */\n  tag_74\n  tag_29\n  jump\t// in\ntag_74:\n    /* \"#utility.yul\":3586:3705   */\ntag_73:\n    /* \"#utility.yul\":3744:3745   */\n  0x00\n    /* \"#utility.yul\":3769:3833   */\n  tag_75\n    /* \"#utility.yul\":3825:3832   */\n  dup5\n    /* \"#utility.yul\":3816:3822   */\n  dup3\n    /* \"#utility.yul\":3805:3814   */\n  dup6\n    /* \"#utility.yul\":3801:3823   */\n  add\n    /* \"#utility.yul\":3769:3833   */\n  tag_34\n  jump\t// in\ntag_75:\n    /* \"#utility.yul\":3759:3833   */\n  swap2\n  pop\n    /* \"#utility.yul\":3715:3843   */\n  pop\n    /* \"#utility.yul\":3499:3850   */\n  swap3\n  swap2\n  pop\n  pop\n  jump\t// out\n    /* \"#utility.yul\":3856:4087   */\ntag_40:\n    /* \"#utility.yul\":3996:4030   */\n  0x4469726563746f7279206164647265737320646f6573206e6f7420696d706c65\n    /* \"#utility.yul\":3992:3993   */\n  0x00\n    /* \"#utility.yul\":3984:3990   */\n  dup3\n    /* \"#utility.yul\":3980:3994   */\n  add\n    /* \"#utility.yul\":3973:4031   */\n  mstore\n    /* \"#utility.yul\":4065:4079   */\n  0x6d656e74206f776e657228290000000000000000000000000000000000000000\n    /* \"#utility.yul\":4060:4062   */\n  0x20\n    /* \"#utility.yul\":4052:4058   */\n  dup3\n    /* \"#utility.yul\":4048:4063   */\n  add\n    /* \"#utility.yul\":4041:4080   */\n  mstore\n    /* \"#utility.yul\":3856:4087   */\n  pop\n  jump\t// out\n    /* \"#utility.yul\":4093:4459   */\ntag_41:\n    /* \"#utility.yul\":4235:4238   */\n  0x00\n    /* \"#utility.yul\":4256:4323   */\n  tag_78\n    /* \"#utility.yul\":4320:4322   */\n  0x2c\n    /* \"#utility.yul\":4315:4318   */\n  dup4\n    /* \"#utility.yul\":4256:4323   */\n  tag_35\n  jump\t// in\ntag_78:\n    /* \"#utility.yul\":4249:4323   */\n  swap2\n  pop\n    /* \"#utility.yul\":4332:4425   */\n  tag_79\n    /* \"#utility.yul\":4421:4424   */\n  dup3\n    /* \"#utility.yul\":4332:4425   */\n  tag_40\n  jump\t// in\ntag_79:\n    /* \"#utility.yul\":4450:4452   */\n  0x40\n    /* \"#utility.yul\":4445:4448   */\n  dup3\n    /* \"#utility.yul\":4441:4453   */\n  add\n    /* \"#utility.yul\":4434:4453   */\n  swap1\n  pop\n    /* \"#utility.yul\":4093:4459   */\n  swap2\n  swap1\n  pop\n  jump\t// out\n    /* \"#utility.yul\":4465:4884   */\ntag_26:\n    /* \"#utility.yul\":4631:4635   */\n  0x00\n    /* \"#utility.yul\":4669:4671   */\n  0x20\n    /* \"#utility.yul\":4658:4667   */\n  dup3\n    /* \"#utility.yul\":4654:4672   */\n  add\n    /* \"#utility.yul\":4646:4672   */\n  swap1\n  pop\n    /* \"#utility.yul\":4718:4727   */\n  dup2\n    /* \"#utility.yul\":4712:4716   */\n  dup2\n    /* \"#utility.yul\":4708:4728   */\n  sub\n    /* \"#utility.yul\":4704:4705   */\n  0x00\n    /* \"#utility.yul\":4693:4702   */\n  dup4\n    /* \"#utility.yul\":4689:4706   */\n  add\n    /* \"#utility.yul\":4682:4729   */\n  mstore\n    /* \"#utility.yul\":4746:4877   */\n  tag_81\n    /* \"#utility.yul\":4872:4876   */\n  dup2\n    /* \"#utility.yul\":4746:4877   */\n  tag_41\n  jump\t// in\ntag_81:\n    /* \"#utility.yul\":4738:4877   */\n  swap1\n  pop\n    /* \"#utility.yul\":4465:4884   */\n  swap2\n  swap1\n  pop\n  jump\t// out\n    /* \"hopium/etf/main/etf-factory-v1.sol\":5660:7545  contract EtfFactory is ImDirectory, Helpers, ImEtfTokenDeployer, ImEtfVaultDeployer, ImEtfRouter, ImPriceOracle {... */\ntag_10:\n  mload(0x80)\n  mload(0xa0)\n  codecopy(0x00, dataOffset(sub_0), dataSize(sub_0))\n  0x00\n  assignImmutable(\"0xb7020dd003fcd4d96af1507ff4dc7e2c1158f23ad0bacfdf3455869cf9fb4898\")\n  0x00\n  assignImmutable(\"0x4b4b9efaff899efa2095e6e12f4c7ffa5d130c6cf88a562d7f7bbc11486ed4fb\")\n  return(0x00, dataSize(sub_0))\nstop\n\nsub_0: assembly {\n        /* \"hopium/etf/main/etf-factory-v1.sol\":5660:7545  contract EtfFactory is ImDirectory, Helpers, ImEtfTokenDeployer, ImEtfVaultDeployer, ImEtfRouter, ImPriceOracle {... */\n      mstore(0x40, 0x80)\n      callvalue\n      dup1\n      iszero\n      tag_1\n      jumpi\n      revert(0x00, 0x00)\n    tag_1:\n      pop\n      jumpi(tag_2, lt(calldatasize, 0x04))\n      shr(0xe0, calldataload(0x00))\n      dup1\n      0x658a847a\n      gt\n      tag_14\n      jumpi\n      dup1\n      0x658a847a\n      eq\n      tag_8\n      jumpi\n      dup1\n      0x8da5cb5b\n      eq\n      tag_9\n      jumpi\n      dup1\n      0x9cfe0b3b\n      eq\n      tag_10\n      jumpi\n      dup1\n      0xba4c7be1\n      eq\n      tag_11\n      jumpi\n      dup1\n      0xf2018a1f\n      eq\n      tag_12\n      jumpi\n      dup1\n      0xfc0121d4\n      eq\n      tag_13\n      jumpi\n      jump(tag_2)\n    tag_14:\n      dup1\n      0x040141e5\n      eq\n      tag_3\n      jumpi\n      dup1\n      0x1626542c\n      eq\n      tag_4\n      jumpi\n      dup1\n      0x27262618\n      eq\n      tag_5\n      jumpi\n      dup1\n      0x3ee79962\n      eq\n      tag_6\n      jumpi\n      dup1\n      0x4eea0e0d\n      eq\n      tag_7\n      jumpi\n    tag_2:\n      revert(0x00, 0x00)\n        /* \"hopium/etf/main/etf-factory-v1.sol\":555:592  address public immutable WETH_ADDRESS */\n    tag_3:\n      tag_15\n      tag_16\n      jump\t// in\n    tag_15:\n      mload(0x40)\n      tag_17\n      swap2\n      swap1\n      tag_18\n      jump\t// in\n    tag_17:\n      mload(0x40)\n      dup1\n      swap2\n      sub\n      swap1\n      return\n        /* \"hopium/etf/main/etf-factory-v1.sol\":6565:6991  function updateEtfVolume(uint256 etfId, uint256 ethAmount) public onlyEtfRouter {... */\n    tag_4:\n      tag_19\n      0x04\n      dup1\n      calldatasize\n      sub\n      dup2\n      add\n      swap1\n      tag_20\n      swap2\n      swap1\n      tag_21\n      jump\t// in\n    tag_20:\n      tag_22\n      jump\t// in\n    tag_19:\n      stop\n        /* \"hopium/common/interface/imDirectory.sol\":1272:1408  function fetchFromDirectory(string memory _key) public view returns (address) {... */\n    tag_5:\n      tag_23\n      0x04\n      dup1\n      calldatasize\n      sub\n      dup2\n      add\n      swap1\n      tag_24\n      swap2\n      swap1\n      tag_25\n      jump\t// in\n    tag_24:\n      tag_26\n      jump\t// in\n    tag_23:\n      mload(0x40)\n      tag_27\n      swap2\n      swap1\n      tag_18\n      jump\t// in\n    tag_27:\n      mload(0x40)\n      dup1\n      swap2\n      sub\n      swap1\n      return\n        /* \"hopium/etf/main/etf-factory-v1.sol\":7148:7270  function getEtfVaultAddress(uint256 etfId) external view returns (address) {... */\n    tag_6:\n      tag_28\n      0x04\n      dup1\n      calldatasize\n      sub\n      dup2\n      add\n      swap1\n      tag_29\n      swap2\n      swap1\n      tag_30\n      jump\t// in\n    tag_29:\n      tag_31\n      jump\t// in\n    tag_28:\n      mload(0x40)\n      tag_32\n      swap2\n      swap1\n      tag_18\n      jump\t// in\n    tag_32:\n      mload(0x40)\n      dup1\n      swap2\n      sub\n      swap1\n      return\n        /* \"hopium/etf/main/etf-factory-v1.sol\":7277:7408  function getEtfTotalVolumeWeth(uint256 etfId) external view returns (uint256) {... */\n    tag_7:\n      tag_33\n      0x04\n      dup1\n      calldatasize\n      sub\n      dup2\n      add\n      swap1\n      tag_34\n      swap2\n      swap1\n      tag_30\n      jump\t// in\n    tag_34:\n      tag_35\n      jump\t// in\n    tag_33:\n      mload(0x40)\n      tag_36\n      swap2\n      swap1\n      tag_37\n      jump\t// in\n    tag_36:\n      mload(0x40)\n      dup1\n      swap2\n      sub\n      swap1\n      return\n        /* \"hopium/common/interface/imDirectory.sol\":336:363  IDirectory public Directory */\n    tag_8:\n      tag_38\n      tag_39\n      jump\t// in\n    tag_38:\n      mload(0x40)\n      tag_40\n      swap2\n      swap1\n      tag_41\n      jump\t// in\n    tag_40:\n      mload(0x40)\n      dup1\n      swap2\n      sub\n      swap1\n      return\n        /* \"hopium/common/interface/imDirectory.sol\":1178:1266  function owner() public view returns (address) {... */\n    tag_9:\n      tag_42\n      tag_43\n      jump\t// in\n    tag_42:\n      mload(0x40)\n      tag_44\n      swap2\n      swap1\n      tag_18\n      jump\t// in\n    tag_44:\n      mload(0x40)\n      dup1\n      swap2\n      sub\n      swap1\n      return\n        /* \"hopium/etf/main/etf-factory-v1.sol\":7414:7543  function getEtfTotalVolumeUsd(uint256 etfId) external view returns (uint256) {... */\n    tag_10:\n      tag_45\n      0x04\n      dup1\n      calldatasize\n      sub\n      dup2\n      add\n      swap1\n      tag_46\n      swap2\n      swap1\n      tag_30\n      jump\t// in\n    tag_46:\n      tag_47\n      jump\t// in\n    tag_45:\n      mload(0x40)\n      tag_48\n      swap2\n      swap1\n      tag_37\n      jump\t// in\n    tag_48:\n      mload(0x40)\n      dup1\n      swap2\n      sub\n      swap1\n      return\n        /* \"hopium/common/interface/imDirectory.sol\":470:583  function changeDirectoryAddress(address _directory) external onlyOwner {... */\n    tag_11:\n      tag_49\n      0x04\n      dup1\n      calldatasize\n      sub\n      dup2\n      add\n      swap1\n      tag_50\n      swap2\n      swap1\n      tag_51\n      jump\t// in\n    tag_50:\n      tag_52\n      jump\t// in\n    tag_49:\n      stop\n        /* \"hopium/etf/main/etf-factory-v1.sol\":7020:7142  function getEtfTokenAddress(uint256 etfId) external view returns (address) {... */\n    tag_12:\n      tag_53\n      0x04\n      dup1\n      calldatasize\n      sub\n      dup2\n      add\n      swap1\n      tag_54\n      swap2\n      swap1\n      tag_30\n      jump\t// in\n    tag_54:\n      tag_55\n      jump\t// in\n    tag_53:\n      mload(0x40)\n      tag_56\n      swap2\n      swap1\n      tag_18\n      jump\t// in\n    tag_56:\n      mload(0x40)\n      dup1\n      swap2\n      sub\n      swap1\n      return\n        /* \"hopium/etf/main/etf-factory-v1.sol\":5931:6501  function createEtf(Etf calldata etf) external onlyOwner returns (uint256) {... */\n    tag_13:\n      tag_57\n      0x04\n      dup1\n      calldatasize\n      sub\n      dup2\n      add\n      swap1\n      tag_58\n      swap2\n      swap1\n      tag_59\n      jump\t// in\n    tag_58:\n      tag_60\n      jump\t// in\n    tag_57:\n      mload(0x40)\n      tag_61\n      swap2\n      swap1\n      tag_37\n      jump\t// in\n    tag_61:\n      mload(0x40)\n      dup1\n      swap2\n      sub\n      swap1\n      return\n        /* \"hopium/etf/main/etf-factory-v1.sol\":555:592  address public immutable WETH_ADDRESS */\n    tag_16:\n      immutable(\"0xb7020dd003fcd4d96af1507ff4dc7e2c1158f23ad0bacfdf3455869cf9fb4898\")\n      dup2\n      jump\t// out\n        /* \"hopium/etf/main/etf-factory-v1.sol\":6565:6991  function updateEtfVolume(uint256 etfId, uint256 ethAmount) public onlyEtfRouter {... */\n    tag_22:\n        /* \"hopium/etf/interface/imEtfRouter.sol\":389:421  fetchFromDirectory(\"etf-router\") */\n      tag_63\n      mload(0x40)\n      dup1\n      0x40\n      add\n      0x40\n      mstore\n      dup1\n      0x0a\n      dup2\n      mstore\n      0x20\n      add\n      0x6574662d726f7574657200000000000000000000000000000000000000000000\n      dup2\n      mstore\n      pop\n        /* \"hopium/etf/interface/imEtfRouter.sol\":389:407  fetchFromDirectory */\n      tag_26\n        /* \"hopium/etf/interface/imEtfRouter.sol\":389:421  fetchFromDirectory(\"etf-router\") */\n      jump\t// in\n    tag_63:\n        /* \"hopium/etf/interface/imEtfRouter.sol\":375:421  msg.sender == fetchFromDirectory(\"etf-router\") */\n      0xffffffffffffffffffffffffffffffffffffffff\n      and\n        /* \"hopium/etf/interface/imEtfRouter.sol\":375:385  msg.sender */\n      caller\n        /* \"hopium/etf/interface/imEtfRouter.sol\":375:421  msg.sender == fetchFromDirectory(\"etf-router\") */\n      0xffffffffffffffffffffffffffffffffffffffff\n      and\n      eq\n        /* \"hopium/etf/interface/imEtfRouter.sol\":367:454  require(msg.sender == fetchFromDirectory(\"etf-router\"), \"msg.sender is not etf router\") */\n      tag_64\n      jumpi\n      mload(0x40)\n      0x08c379a000000000000000000000000000000000000000000000000000000000\n      dup2\n      mstore\n      0x04\n      add\n      tag_65\n      swap1\n      tag_66\n      jump\t// in\n    tag_65:\n      mload(0x40)\n      dup1\n      swap2\n      sub\n      swap1\n      revert\n    tag_64:\n        /* \"hopium/etf/main/etf-factory-v1.sol\":6672:6673  0 */\n      0x00\n        /* \"hopium/etf/main/etf-factory-v1.sol\":6659:6668  ethAmount */\n      dup2\n        /* \"hopium/etf/main/etf-factory-v1.sol\":6659:6673  ethAmount == 0 */\n      sub\n        /* \"hopium/etf/main/etf-factory-v1.sol\":6655:6698  if (ethAmount == 0) revert ZeroTradeValue() */\n      tag_68\n      jumpi\n        /* \"hopium/etf/main/etf-factory-v1.sol\":6682:6698  ZeroTradeValue() */\n      mload(0x40)\n      0xcca7f00400000000000000000000000000000000000000000000000000000000\n      dup2\n      mstore\n      0x04\n      add\n      mload(0x40)\n      dup1\n      swap2\n      sub\n      swap1\n      revert\n        /* \"hopium/etf/main/etf-factory-v1.sol\":6655:6698  if (ethAmount == 0) revert ZeroTradeValue() */\n    tag_68:\n        /* \"hopium/etf/main/etf-factory-v1.sol\":6709:6724  uint256 wethUsd */\n      0x00\n        /* \"hopium/etf/main/etf-factory-v1.sol\":6727:6743  getPriceOracle() */\n      tag_69\n        /* \"hopium/etf/main/etf-factory-v1.sol\":6727:6741  getPriceOracle */\n      tag_70\n        /* \"hopium/etf/main/etf-factory-v1.sol\":6727:6743  getPriceOracle() */\n      jump\t// in\n    tag_69:\n        /* \"hopium/etf/main/etf-factory-v1.sol\":6727:6759  getPriceOracle().getWethUsdPrice */\n      0xffffffffffffffffffffffffffffffffffffffff\n      and\n      0x6855e939\n        /* \"hopium/etf/main/etf-factory-v1.sol\":6727:6761  getPriceOracle().getWethUsdPrice() */\n      mload(0x40)\n      dup2\n      0xffffffff\n      and\n      0xe0\n      shl\n      dup2\n      mstore\n      0x04\n      add\n      0x20\n      mload(0x40)\n      dup1\n      dup4\n      sub\n      dup2\n      dup7\n      gas\n      staticcall\n      iszero\n      dup1\n      iszero\n      tag_72\n      jumpi\n      returndatacopy(0x00, 0x00, returndatasize)\n      revert(0x00, returndatasize)\n    tag_72:\n      pop\n      pop\n      pop\n      pop\n      mload(0x40)\n      returndatasize\n      not(0x1f)\n      0x1f\n      dup3\n      add\n      and\n      dup3\n      add\n      dup1\n      0x40\n      mstore\n      pop\n      dup2\n      add\n      swap1\n      tag_73\n      swap2\n      swap1\n      tag_74\n      jump\t// in\n    tag_73:\n        /* \"hopium/etf/main/etf-factory-v1.sol\":6709:6761  uint256 wethUsd = getPriceOracle().getWethUsdPrice() */\n      swap1\n      pop\n        /* \"hopium/etf/main/etf-factory-v1.sol\":6794:6795  0 */\n      0x00\n        /* \"hopium/etf/main/etf-factory-v1.sol\":6783:6790  wethUsd */\n      dup2\n        /* \"hopium/etf/main/etf-factory-v1.sol\":6783:6795  wethUsd == 0 */\n      sub\n        /* \"hopium/etf/main/etf-factory-v1.sol\":6779:6822  if (wethUsd == 0) revert ZeroWethUsdPrice() */\n      tag_75\n      jumpi\n        /* \"hopium/etf/main/etf-factory-v1.sol\":6804:6822  ZeroWethUsdPrice() */\n      mload(0x40)\n      0x110ea95100000000000000000000000000000000000000000000000000000000\n      dup2\n      mstore\n      0x04\n      add\n      mload(0x40)\n      dup1\n      swap2\n      sub\n      swap1\n      revert\n        /* \"hopium/etf/main/etf-factory-v1.sol\":6779:6822  if (wethUsd == 0) revert ZeroWethUsdPrice() */\n    tag_75:\n        /* \"hopium/etf/main/etf-factory-v1.sol\":6833:6850  uint256 amountUsd */\n      0x00\n        /* \"hopium/etf/main/etf-factory-v1.sol\":6877:6880  WAD */\n      immutable(\"0x4b4b9efaff899efa2095e6e12f4c7ffa5d130c6cf88a562d7f7bbc11486ed4fb\")\n        /* \"hopium/etf/main/etf-factory-v1.sol\":6866:6873  wethUsd */\n      dup3\n        /* \"hopium/etf/main/etf-factory-v1.sol\":6854:6863  ethAmount */\n      dup5\n        /* \"hopium/etf/main/etf-factory-v1.sol\":6854:6873  ethAmount * wethUsd */\n      tag_76\n      swap2\n      swap1\n      tag_77\n      jump\t// in\n    tag_76:\n        /* \"hopium/etf/main/etf-factory-v1.sol\":6853:6880  (ethAmount * wethUsd) / WAD */\n      tag_78\n      swap2\n      swap1\n      tag_79\n      jump\t// in\n    tag_78:\n        /* \"hopium/etf/main/etf-factory-v1.sol\":6833:6880  uint256 amountUsd = (ethAmount * wethUsd) / WAD */\n      swap1\n      pop\n        /* \"hopium/etf/main/etf-factory-v1.sol\":6924:6933  ethAmount */\n      dup3\n        /* \"hopium/etf/main/etf-factory-v1.sol\":6891:6913  etfIdToTotalVolumeWeth */\n      0x05\n        /* \"hopium/etf/main/etf-factory-v1.sol\":6891:6920  etfIdToTotalVolumeWeth[etfId] */\n      0x00\n        /* \"hopium/etf/main/etf-factory-v1.sol\":6914:6919  etfId */\n      dup7\n        /* \"hopium/etf/main/etf-factory-v1.sol\":6891:6920  etfIdToTotalVolumeWeth[etfId] */\n      dup2\n      mstore\n      0x20\n      add\n      swap1\n      dup2\n      mstore\n      0x20\n      add\n      0x00\n      keccak256\n      0x00\n        /* \"hopium/etf/main/etf-factory-v1.sol\":6891:6933  etfIdToTotalVolumeWeth[etfId] += ethAmount */\n      dup3\n      dup3\n      sload\n      tag_80\n      swap2\n      swap1\n      tag_81\n      jump\t// in\n    tag_80:\n      swap3\n      pop\n      pop\n      dup2\n      swap1\n      sstore\n      pop\n        /* \"hopium/etf/main/etf-factory-v1.sol\":6975:6984  amountUsd */\n      dup1\n        /* \"hopium/etf/main/etf-factory-v1.sol\":6943:6964  etfIdToTotalVolumeUsd */\n      0x06\n        /* \"hopium/etf/main/etf-factory-v1.sol\":6943:6971  etfIdToTotalVolumeUsd[etfId] */\n      0x00\n        /* \"hopium/etf/main/etf-factory-v1.sol\":6965:6970  etfId */\n      dup7\n        /* \"hopium/etf/main/etf-factory-v1.sol\":6943:6971  etfIdToTotalVolumeUsd[etfId] */\n      dup2\n      mstore\n      0x20\n      add\n      swap1\n      dup2\n      mstore\n      0x20\n      add\n      0x00\n      keccak256\n      0x00\n        /* \"hopium/etf/main/etf-factory-v1.sol\":6943:6984  etfIdToTotalVolumeUsd[etfId] += amountUsd */\n      dup3\n      dup3\n      sload\n      tag_82\n      swap2\n      swap1\n      tag_81\n      jump\t// in\n    tag_82:\n      swap3\n      pop\n      pop\n      dup2\n      swap1\n      sstore\n      pop\n        /* \"hopium/etf/main/etf-factory-v1.sol\":6645:6991  {... */\n      pop\n      pop\n        /* \"hopium/etf/main/etf-factory-v1.sol\":6565:6991  function updateEtfVolume(uint256 etfId, uint256 ethAmount) public onlyEtfRouter {... */\n      pop\n      pop\n      jump\t// out\n        /* \"hopium/common/interface/imDirectory.sol\":1272:1408  function fetchFromDirectory(string memory _key) public view returns (address) {... */\n    tag_26:\n        /* \"hopium/common/interface/imDirectory.sol\":1341:1348  address */\n      0x00\n        /* \"hopium/common/interface/imDirectory.sol\":1367:1376  Directory */\n      0x07\n      0x00\n      swap1\n      sload\n      swap1\n      0x0100\n      exp\n      swap1\n      div\n      0xffffffffffffffffffffffffffffffffffffffff\n      and\n        /* \"hopium/common/interface/imDirectory.sol\":1367:1395  Directory.fetchFromDirectory */\n      0xffffffffffffffffffffffffffffffffffffffff\n      and\n      0x27262618\n        /* \"hopium/common/interface/imDirectory.sol\":1396:1400  _key */\n      dup4\n        /* \"hopium/common/interface/imDirectory.sol\":1367:1401  Directory.fetchFromDirectory(_key) */\n      mload(0x40)\n      dup3\n      0xffffffff\n      and\n      0xe0\n      shl\n      dup2\n      mstore\n      0x04\n      add\n      tag_84\n      swap2\n      swap1\n      tag_85\n      jump\t// in\n    tag_84:\n      0x20\n      mload(0x40)\n      dup1\n      dup4\n      sub\n      dup2\n      dup7\n      gas\n      staticcall\n      iszero\n      dup1\n      iszero\n      tag_87\n      jumpi\n      returndatacopy(0x00, 0x00, returndatasize)\n      revert(0x00, returndatasize)\n    tag_87:\n      pop\n      pop\n      pop\n      pop\n      mload(0x40)\n      returndatasize\n      not(0x1f)\n      0x1f\n      dup3\n      add\n      and\n      dup3\n      add\n      dup1\n      0x40\n      mstore\n      pop\n      dup2\n      add\n      swap1\n      tag_88\n      swap2\n      swap1\n      tag_89\n      jump\t// in\n    tag_88:\n        /* \"hopium/common/interface/imDirectory.sol\":1360:1401  return Directory.fetchFromDirectory(_key) */\n      swap1\n      pop\n        /* \"hopium/common/interface/imDirectory.sol\":1272:1408  function fetchFromDirectory(string memory _key) public view returns (address) {... */\n      swap2\n      swap1\n      pop\n      jump\t// out\n        /* \"hopium/etf/main/etf-factory-v1.sol\":7148:7270  function getEtfVaultAddress(uint256 etfId) external view returns (address) {... */\n    tag_31:\n        /* \"hopium/etf/main/etf-factory-v1.sol\":7214:7221  address */\n      0x00\n        /* \"hopium/etf/main/etf-factory-v1.sol\":7240:7256  etfIdToEtfVaults */\n      0x04\n        /* \"hopium/etf/main/etf-factory-v1.sol\":7240:7263  etfIdToEtfVaults[etfId] */\n      0x00\n        /* \"hopium/etf/main/etf-factory-v1.sol\":7257:7262  etfId */\n      dup4\n        /* \"hopium/etf/main/etf-factory-v1.sol\":7240:7263  etfIdToEtfVaults[etfId] */\n      dup2\n      mstore\n      0x20\n      add\n      swap1\n      dup2\n      mstore\n      0x20\n      add\n      0x00\n      keccak256\n      0x00\n      swap1\n      sload\n      swap1\n      0x0100\n      exp\n      swap1\n      div\n      0xffffffffffffffffffffffffffffffffffffffff\n      and\n        /* \"hopium/etf/main/etf-factory-v1.sol\":7233:7263  return etfIdToEtfVaults[etfId] */\n      swap1\n      pop\n        /* \"hopium/etf/main/etf-factory-v1.sol\":7148:7270  function getEtfVaultAddress(uint256 etfId) external view returns (address) {... */\n      swap2\n      swap1\n      pop\n      jump\t// out\n        /* \"hopium/etf/main/etf-factory-v1.sol\":7277:7408  function getEtfTotalVolumeWeth(uint256 etfId) external view returns (uint256) {... */\n    tag_35:\n        /* \"hopium/etf/main/etf-factory-v1.sol\":7346:7353  uint256 */\n      0x00\n        /* \"hopium/etf/main/etf-factory-v1.sol\":7372:7394  etfIdToTotalVolumeWeth */\n      0x05\n        /* \"hopium/etf/main/etf-factory-v1.sol\":7372:7401  etfIdToTotalVolumeWeth[etfId] */\n      0x00\n        /* \"hopium/etf/main/etf-factory-v1.sol\":7395:7400  etfId */\n      dup4\n        /* \"hopium/etf/main/etf-factory-v1.sol\":7372:7401  etfIdToTotalVolumeWeth[etfId] */\n      dup2\n      mstore\n      0x20\n      add\n      swap1\n      dup2\n      mstore\n      0x20\n      add\n      0x00\n      keccak256\n      sload\n        /* \"hopium/etf/main/etf-factory-v1.sol\":7365:7401  return etfIdToTotalVolumeWeth[etfId] */\n      swap1\n      pop\n        /* \"hopium/etf/main/etf-factory-v1.sol\":7277:7408  function getEtfTotalVolumeWeth(uint256 etfId) external view returns (uint256) {... */\n      swap2\n      swap1\n      pop\n      jump\t// out\n        /* \"hopium/common/interface/imDirectory.sol\":336:363  IDirectory public Directory */\n    tag_39:\n      0x07\n      0x00\n      swap1\n      sload\n      swap1\n      0x0100\n      exp\n      swap1\n      div\n      0xffffffffffffffffffffffffffffffffffffffff\n      and\n      dup2\n      jump\t// out\n        /* \"hopium/common/interface/imDirectory.sol\":1178:1266  function owner() public view returns (address) {... */\n    tag_43:\n        /* \"hopium/common/interface/imDirectory.sol\":1216:1223  address */\n      0x00\n        /* \"hopium/common/interface/imDirectory.sol\":1242:1251  Directory */\n      0x07\n      0x00\n      swap1\n      sload\n      swap1\n      0x0100\n      exp\n      swap1\n      div\n      0xffffffffffffffffffffffffffffffffffffffff\n      and\n        /* \"hopium/common/interface/imDirectory.sol\":1242:1257  Directory.owner */\n      0xffffffffffffffffffffffffffffffffffffffff\n      and\n      0x8da5cb5b\n        /* \"hopium/common/interface/imDirectory.sol\":1242:1259  Directory.owner() */\n      mload(0x40)\n      dup2\n      0xffffffff\n      and\n      0xe0\n      shl\n      dup2\n      mstore\n      0x04\n      add\n      0x20\n      mload(0x40)\n      dup1\n      dup4\n      sub\n      dup2\n      dup7\n      gas\n      staticcall\n      iszero\n      dup1\n      iszero\n      tag_94\n      jumpi\n      returndatacopy(0x00, 0x00, returndatasize)\n      revert(0x00, returndatasize)\n    tag_94:\n      pop\n      pop\n      pop\n      pop\n      mload(0x40)\n      returndatasize\n      not(0x1f)\n      0x1f\n      dup3\n      add\n      and\n      dup3\n      add\n      dup1\n      0x40\n      mstore\n      pop\n      dup2\n      add\n      swap1\n      tag_95\n      swap2\n      swap1\n      tag_89\n      jump\t// in\n    tag_95:\n        /* \"hopium/common/interface/imDirectory.sol\":1235:1259  return Directory.owner() */\n      swap1\n      pop\n        /* \"hopium/common/interface/imDirectory.sol\":1178:1266  function owner() public view returns (address) {... */\n      swap1\n      jump\t// out\n        /* \"hopium/etf/main/etf-factory-v1.sol\":7414:7543  function getEtfTotalVolumeUsd(uint256 etfId) external view returns (uint256) {... */\n    tag_47:\n        /* \"hopium/etf/main/etf-factory-v1.sol\":7482:7489  uint256 */\n      0x00\n        /* \"hopium/etf/main/etf-factory-v1.sol\":7508:7529  etfIdToTotalVolumeUsd */\n      0x06\n        /* \"hopium/etf/main/etf-factory-v1.sol\":7508:7536  etfIdToTotalVolumeUsd[etfId] */\n      0x00\n        /* \"hopium/etf/main/etf-factory-v1.sol\":7530:7535  etfId */\n      dup4\n        /* \"hopium/etf/main/etf-factory-v1.sol\":7508:7536  etfIdToTotalVolumeUsd[etfId] */\n      dup2\n      mstore\n      0x20\n      add\n      swap1\n      dup2\n      mstore\n      0x20\n      add\n      0x00\n      keccak256\n      sload\n        /* \"hopium/etf/main/etf-factory-v1.sol\":7501:7536  return etfIdToTotalVolumeUsd[etfId] */\n      swap1\n      pop\n        /* \"hopium/etf/main/etf-factory-v1.sol\":7414:7543  function getEtfTotalVolumeUsd(uint256 etfId) external view returns (uint256) {... */\n      swap2\n      swap1\n      pop\n      jump\t// out\n        /* \"hopium/common/interface/imDirectory.sol\":470:583  function changeDirectoryAddress(address _directory) external onlyOwner {... */\n    tag_52:\n        /* \"hopium/common/interface/imDirectory.sol\":1109:1118  Directory */\n      0x07\n      0x00\n      swap1\n      sload\n      swap1\n      0x0100\n      exp\n      swap1\n      div\n      0xffffffffffffffffffffffffffffffffffffffff\n      and\n        /* \"hopium/common/interface/imDirectory.sol\":1109:1124  Directory.owner */\n      0xffffffffffffffffffffffffffffffffffffffff\n      and\n      0x8da5cb5b\n        /* \"hopium/common/interface/imDirectory.sol\":1109:1126  Directory.owner() */\n      mload(0x40)\n      dup2\n      0xffffffff\n      and\n      0xe0\n      shl\n      dup2\n      mstore\n      0x04\n      add\n      0x20\n      mload(0x40)\n      dup1\n      dup4\n      sub\n      dup2\n      dup7\n      gas\n      staticcall\n      iszero\n      dup1\n      iszero\n      tag_99\n      jumpi\n      returndatacopy(0x00, 0x00, returndatasize)\n      revert(0x00, returndatasize)\n    tag_99:\n      pop\n      pop\n      pop\n      pop\n      mload(0x40)\n      returndatasize\n      not(0x1f)\n      0x1f\n      dup3\n      add\n      and\n      dup3\n      add\n      dup1\n      0x40\n      mstore\n      pop\n      dup2\n      add\n      swap1\n      tag_100\n      swap2\n      swap1\n      tag_89\n      jump\t// in\n    tag_100:\n        /* \"hopium/common/interface/imDirectory.sol\":1095:1126  msg.sender == Directory.owner() */\n      0xffffffffffffffffffffffffffffffffffffffff\n      and\n        /* \"hopium/common/interface/imDirectory.sol\":1095:1105  msg.sender */\n      caller\n        /* \"hopium/common/interface/imDirectory.sol\":1095:1126  msg.sender == Directory.owner() */\n      0xffffffffffffffffffffffffffffffffffffffff\n      and\n      eq\n        /* \"hopium/common/interface/imDirectory.sol\":1087:1154  require(msg.sender == Directory.owner(), \"Caller is not the owner\") */\n      tag_101\n      jumpi\n      mload(0x40)\n      0x08c379a000000000000000000000000000000000000000000000000000000000\n      dup2\n      mstore\n      0x04\n      add\n      tag_102\n      swap1\n      tag_103\n      jump\t// in\n    tag_102:\n      mload(0x40)\n      dup1\n      swap2\n      sub\n      swap1\n      revert\n    tag_101:\n        /* \"hopium/common/interface/imDirectory.sol\":551:576  _setDirectory(_directory) */\n      tag_105\n        /* \"hopium/common/interface/imDirectory.sol\":565:575  _directory */\n      dup2\n        /* \"hopium/common/interface/imDirectory.sol\":551:564  _setDirectory */\n      tag_106\n        /* \"hopium/common/interface/imDirectory.sol\":551:576  _setDirectory(_directory) */\n      jump\t// in\n    tag_105:\n        /* \"hopium/common/interface/imDirectory.sol\":470:583  function changeDirectoryAddress(address _directory) external onlyOwner {... */\n      pop\n      jump\t// out\n        /* \"hopium/etf/main/etf-factory-v1.sol\":7020:7142  function getEtfTokenAddress(uint256 etfId) external view returns (address) {... */\n    tag_55:\n        /* \"hopium/etf/main/etf-factory-v1.sol\":7086:7093  address */\n      0x00\n        /* \"hopium/etf/main/etf-factory-v1.sol\":7112:7128  etfIdToEtfTokens */\n      0x03\n        /* \"hopium/etf/main/etf-factory-v1.sol\":7112:7135  etfIdToEtfTokens[etfId] */\n      0x00\n        /* \"hopium/etf/main/etf-factory-v1.sol\":7129:7134  etfId */\n      dup4\n        /* \"hopium/etf/main/etf-factory-v1.sol\":7112:7135  etfIdToEtfTokens[etfId] */\n      dup2\n      mstore\n      0x20\n      add\n      swap1\n      dup2\n      mstore\n      0x20\n      add\n      0x00\n      keccak256\n      0x00\n      swap1\n      sload\n      swap1\n      0x0100\n      exp\n      swap1\n      div\n      0xffffffffffffffffffffffffffffffffffffffff\n      and\n        /* \"hopium/etf/main/etf-factory-v1.sol\":7105:7135  return etfIdToEtfTokens[etfId] */\n      swap1\n      pop\n        /* \"hopium/etf/main/etf-factory-v1.sol\":7020:7142  function getEtfTokenAddress(uint256 etfId) external view returns (address) {... */\n      swap2\n      swap1\n      pop\n      jump\t// out\n        /* \"hopium/etf/main/etf-factory-v1.sol\":5931:6501  function createEtf(Etf calldata etf) external onlyOwner returns (uint256) {... */\n    tag_60:\n        /* \"hopium/etf/main/etf-factory-v1.sol\":5996:6003  uint256 */\n      0x00\n        /* \"hopium/common/interface/imDirectory.sol\":1109:1118  Directory */\n      0x07\n      0x00\n      swap1\n      sload\n      swap1\n      0x0100\n      exp\n      swap1\n      div\n      0xffffffffffffffffffffffffffffffffffffffff\n      and\n        /* \"hopium/common/interface/imDirectory.sol\":1109:1124  Directory.owner */\n      0xffffffffffffffffffffffffffffffffffffffff\n      and\n      0x8da5cb5b\n        /* \"hopium/common/interface/imDirectory.sol\":1109:1126  Directory.owner() */\n      mload(0x40)\n      dup2\n      0xffffffff\n      and\n      0xe0\n      shl\n      dup2\n      mstore\n      0x04\n      add\n      0x20\n      mload(0x40)\n      dup1\n      dup4\n      sub\n      dup2\n      dup7\n      gas\n      staticcall\n      iszero\n      dup1\n      iszero\n      tag_110\n      jumpi\n      returndatacopy(0x00, 0x00, returndatasize)\n      revert(0x00, returndatasize)\n    tag_110:\n      pop\n      pop\n      pop\n      pop\n      mload(0x40)\n      returndatasize\n      not(0x1f)\n      0x1f\n      dup3\n      add\n      and\n      dup3\n      add\n      dup1\n      0x40\n      mstore\n      pop\n      dup2\n      add\n      swap1\n      tag_111\n      swap2\n      swap1\n      tag_89\n      jump\t// in\n    tag_111:\n        /* \"hopium/common/interface/imDirectory.sol\":1095:1126  msg.sender == Directory.owner() */\n      0xffffffffffffffffffffffffffffffffffffffff\n      and\n        /* \"hopium/common/interface/imDirectory.sol\":1095:1105  msg.sender */\n      caller\n        /* \"hopium/common/interface/imDirectory.sol\":1095:1126  msg.sender == Directory.owner() */\n      0xffffffffffffffffffffffffffffffffffffffff\n      and\n      eq\n        /* \"hopium/common/interface/imDirectory.sol\":1087:1154  require(msg.sender == Directory.owner(), \"Caller is not the owner\") */\n      tag_112\n      jumpi\n      mload(0x40)\n      0x08c379a000000000000000000000000000000000000000000000000000000000\n      dup2\n      mstore\n      0x04\n      add\n      tag_113\n      swap1\n      tag_103\n      jump\t// in\n    tag_113:\n      mload(0x40)\n      dup1\n      swap2\n      sub\n      swap1\n      revert\n    tag_112:\n        /* \"hopium/etf/main/etf-factory-v1.sol\":6036:6049  uint256 etfId */\n      0x00\n        /* \"hopium/etf/main/etf-factory-v1.sol\":6052:6067  _createEtf(etf) */\n      tag_115\n        /* \"hopium/etf/main/etf-factory-v1.sol\":6063:6066  etf */\n      dup4\n        /* \"hopium/etf/main/etf-factory-v1.sol\":6052:6062  _createEtf */\n      tag_116\n        /* \"hopium/etf/main/etf-factory-v1.sol\":6052:6067  _createEtf(etf) */\n      jump\t// in\n    tag_115:\n        /* \"hopium/etf/main/etf-factory-v1.sol\":6036:6067  uint256 etfId = _createEtf(etf) */\n      swap1\n      pop\n        /* \"hopium/etf/main/etf-factory-v1.sol\":6106:6129  address etfTokenAddress */\n      0x00\n        /* \"hopium/etf/main/etf-factory-v1.sol\":6132:6153  getEtfTokenDeployer() */\n      tag_117\n        /* \"hopium/etf/main/etf-factory-v1.sol\":6132:6151  getEtfTokenDeployer */\n      tag_118\n        /* \"hopium/etf/main/etf-factory-v1.sol\":6132:6153  getEtfTokenDeployer() */\n      jump\t// in\n    tag_117:\n        /* \"hopium/etf/main/etf-factory-v1.sol\":6132:6168  getEtfTokenDeployer().deployEtfToken */\n      0xffffffffffffffffffffffffffffffffffffffff\n      and\n      0x78f6c7c4\n        /* \"hopium/etf/main/etf-factory-v1.sol\":6169:6174  etfId */\n      dup4\n        /* \"hopium/etf/main/etf-factory-v1.sol\":6176:6179  etf */\n      dup7\n        /* \"hopium/etf/main/etf-factory-v1.sol\":6176:6184  etf.name */\n      dup1\n      0x00\n      add\n      swap1\n      tag_119\n      swap2\n      swap1\n      tag_120\n      jump\t// in\n    tag_119:\n        /* \"hopium/etf/main/etf-factory-v1.sol\":6186:6189  etf */\n      dup9\n        /* \"hopium/etf/main/etf-factory-v1.sol\":6186:6196  etf.ticker */\n      dup1\n      0x20\n      add\n      swap1\n      tag_121\n      swap2\n      swap1\n      tag_120\n      jump\t// in\n    tag_121:\n        /* \"hopium/etf/main/etf-factory-v1.sol\":6132:6197  getEtfTokenDeployer().deployEtfToken(etfId, etf.name, etf.ticker) */\n      mload(0x40)\n      dup7\n      0xffffffff\n      and\n      0xe0\n      shl\n      dup2\n      mstore\n      0x04\n      add\n      tag_122\n      swap6\n      swap5\n      swap4\n      swap3\n      swap2\n      swap1\n      tag_123\n      jump\t// in\n    tag_122:\n      0x20\n      mload(0x40)\n      dup1\n      dup4\n      sub\n      dup2\n      0x00\n      dup8\n      gas\n      call\n      iszero\n      dup1\n      iszero\n      tag_125\n      jumpi\n      returndatacopy(0x00, 0x00, returndatasize)\n      revert(0x00, returndatasize)\n    tag_125:\n      pop\n      pop\n      pop\n      pop\n      mload(0x40)\n      returndatasize\n      not(0x1f)\n      0x1f\n      dup3\n      add\n      and\n      dup3\n      add\n      dup1\n      0x40\n      mstore\n      pop\n      dup2\n      add\n      swap1\n      tag_126\n      swap2\n      swap1\n      tag_89\n      jump\t// in\n    tag_126:\n        /* \"hopium/etf/main/etf-factory-v1.sol\":6106:6197  address etfTokenAddress = getEtfTokenDeployer().deployEtfToken(etfId, etf.name, etf.ticker) */\n      swap1\n      pop\n        /* \"hopium/etf/main/etf-factory-v1.sol\":6236:6259  address etfVaultAddress */\n      0x00\n        /* \"hopium/etf/main/etf-factory-v1.sol\":6262:6283  getEtfVaultDeployer() */\n      tag_127\n        /* \"hopium/etf/main/etf-factory-v1.sol\":6262:6281  getEtfVaultDeployer */\n      tag_128\n        /* \"hopium/etf/main/etf-factory-v1.sol\":6262:6283  getEtfVaultDeployer() */\n      jump\t// in\n    tag_127:\n        /* \"hopium/etf/main/etf-factory-v1.sol\":6262:6298  getEtfVaultDeployer().deployEtfVault */\n      0xffffffffffffffffffffffffffffffffffffffff\n      and\n      0x6c4bb8bd\n        /* \"hopium/etf/main/etf-factory-v1.sol\":6262:6300  getEtfVaultDeployer().deployEtfVault() */\n      mload(0x40)\n      dup2\n      0xffffffff\n      and\n      0xe0\n      shl\n      dup2\n      mstore\n      0x04\n      add\n      0x20\n      mload(0x40)\n      dup1\n      dup4\n      sub\n      dup2\n      0x00\n      dup8\n      gas\n      call\n      iszero\n      dup1\n      iszero\n      tag_130\n      jumpi\n      returndatacopy(0x00, 0x00, returndatasize)\n      revert(0x00, returndatasize)\n    tag_130:\n      pop\n      pop\n      pop\n      pop\n      mload(0x40)\n      returndatasize\n      not(0x1f)\n      0x1f\n      dup3\n      add\n      and\n      dup3\n      add\n      dup1\n      0x40\n      mstore\n      pop\n      dup2\n      add\n      swap1\n      tag_131\n      swap2\n      swap1\n      tag_89\n      jump\t// in\n    tag_131:\n        /* \"hopium/etf/main/etf-factory-v1.sol\":6236:6300  address etfVaultAddress = getEtfVaultDeployer().deployEtfVault() */\n      swap1\n      pop\n        /* \"hopium/etf/main/etf-factory-v1.sol\":6337:6352  etfTokenAddress */\n      dup2\n        /* \"hopium/etf/main/etf-factory-v1.sol\":6311:6327  etfIdToEtfTokens */\n      0x03\n        /* \"hopium/etf/main/etf-factory-v1.sol\":6311:6334  etfIdToEtfTokens[etfId] */\n      0x00\n        /* \"hopium/etf/main/etf-factory-v1.sol\":6328:6333  etfId */\n      dup6\n        /* \"hopium/etf/main/etf-factory-v1.sol\":6311:6334  etfIdToEtfTokens[etfId] */\n      dup2\n      mstore\n      0x20\n      add\n      swap1\n      dup2\n      mstore\n      0x20\n      add\n      0x00\n      keccak256\n      0x00\n        /* \"hopium/etf/main/etf-factory-v1.sol\":6311:6352  etfIdToEtfTokens[etfId] = etfTokenAddress */\n      0x0100\n      exp\n      dup2\n      sload\n      dup2\n      0xffffffffffffffffffffffffffffffffffffffff\n      mul\n      not\n      and\n      swap1\n      dup4\n      0xffffffffffffffffffffffffffffffffffffffff\n      and\n      mul\n      or\n      swap1\n      sstore\n      pop\n        /* \"hopium/etf/main/etf-factory-v1.sol\":6388:6403  etfVaultAddress */\n      dup1\n        /* \"hopium/etf/main/etf-factory-v1.sol\":6362:6378  etfIdToEtfVaults */\n      0x04\n        /* \"hopium/etf/main/etf-factory-v1.sol\":6362:6385  etfIdToEtfVaults[etfId] */\n      0x00\n        /* \"hopium/etf/main/etf-factory-v1.sol\":6379:6384  etfId */\n      dup6\n        /* \"hopium/etf/main/etf-factory-v1.sol\":6362:6385  etfIdToEtfVaults[etfId] */\n      dup2\n      mstore\n      0x20\n      add\n      swap1\n      dup2\n      mstore\n      0x20\n      add\n      0x00\n      keccak256\n      0x00\n        /* \"hopium/etf/main/etf-factory-v1.sol\":6362:6403  etfIdToEtfVaults[etfId] = etfVaultAddress */\n      0x0100\n      exp\n      dup2\n      sload\n      dup2\n      0xffffffffffffffffffffffffffffffffffffffff\n      mul\n      not\n      and\n      swap1\n      dup4\n      0xffffffffffffffffffffffffffffffffffffffff\n      and\n      mul\n      or\n      swap1\n      sstore\n      pop\n        /* \"hopium/etf/main/etf-factory-v1.sol\":6431:6436  etfId */\n      dup3\n        /* \"hopium/etf/main/etf-factory-v1.sol\":6419:6471  EtfDeployed(etfId, etfTokenAddress, etfVaultAddress) */\n      0x714caab8b078979e833e97982712cd462ab7124c2a27401542011f30e3d47d55\n        /* \"hopium/etf/main/etf-factory-v1.sol\":6438:6453  etfTokenAddress */\n      dup4\n        /* \"hopium/etf/main/etf-factory-v1.sol\":6455:6470  etfVaultAddress */\n      dup4\n        /* \"hopium/etf/main/etf-factory-v1.sol\":6419:6471  EtfDeployed(etfId, etfTokenAddress, etfVaultAddress) */\n      mload(0x40)\n      tag_132\n      swap3\n      swap2\n      swap1\n      tag_133\n      jump\t// in\n    tag_132:\n      mload(0x40)\n      dup1\n      swap2\n      sub\n      swap1\n      log2\n        /* \"hopium/etf/main/etf-factory-v1.sol\":6489:6494  etfId */\n      dup3\n        /* \"hopium/etf/main/etf-factory-v1.sol\":6482:6494  return etfId */\n      swap4\n      pop\n      pop\n      pop\n      pop\n        /* \"hopium/etf/main/etf-factory-v1.sol\":5931:6501  function createEtf(Etf calldata etf) external onlyOwner returns (uint256) {... */\n      swap2\n      swap1\n      pop\n      jump\t// out\n        /* \"hopium/uniswap/interface/imPriceOracle.sol\":214:357  function getPriceOracle() internal view virtual returns (IPriceOracle) {... */\n    tag_70:\n        /* \"hopium/uniswap/interface/imPriceOracle.sol\":271:283  IPriceOracle */\n      0x00\n        /* \"hopium/uniswap/interface/imPriceOracle.sol\":315:349  fetchFromDirectory(\"price-oracle\") */\n      tag_135\n      mload(0x40)\n      dup1\n      0x40\n      add\n      0x40\n      mstore\n      dup1\n      0x0c\n      dup2\n      mstore\n      0x20\n      add\n      0x70726963652d6f7261636c650000000000000000000000000000000000000000\n      dup2\n      mstore\n      pop\n        /* \"hopium/uniswap/interface/imPriceOracle.sol\":315:333  fetchFromDirectory */\n      tag_26\n        /* \"hopium/uniswap/interface/imPriceOracle.sol\":315:349  fetchFromDirectory(\"price-oracle\") */\n      jump\t// in\n    tag_135:\n        /* \"hopium/uniswap/interface/imPriceOracle.sol\":295:350  return IPriceOracle(fetchFromDirectory(\"price-oracle\")) */\n      swap1\n      pop\n        /* \"hopium/uniswap/interface/imPriceOracle.sol\":214:357  function getPriceOracle() internal view virtual returns (IPriceOracle) {... */\n      swap1\n      jump\t// out\n        /* \"hopium/common/interface/imDirectory.sol\":589:1050  function _setDirectory(address _directory) internal {... */\n    tag_106:\n        /* \"hopium/common/interface/imDirectory.sol\":681:682  0 */\n      0x00\n        /* \"hopium/common/interface/imDirectory.sol\":659:683  _directory != address(0) */\n      0xffffffffffffffffffffffffffffffffffffffff\n      and\n        /* \"hopium/common/interface/imDirectory.sol\":659:669  _directory */\n      dup2\n        /* \"hopium/common/interface/imDirectory.sol\":659:683  _directory != address(0) */\n      0xffffffffffffffffffffffffffffffffffffffff\n      and\n      sub\n        /* \"hopium/common/interface/imDirectory.sol\":651:720  require(_directory != address(0), \"Directory cannot be zero address\") */\n      tag_137\n      jumpi\n      mload(0x40)\n      0x08c379a000000000000000000000000000000000000000000000000000000000\n      dup2\n      mstore\n      0x04\n      add\n      tag_138\n      swap1\n      tag_139\n      jump\t// in\n    tag_138:\n      mload(0x40)\n      dup1\n      swap2\n      sub\n      swap1\n      revert\n    tag_137:\n        /* \"hopium/common/interface/imDirectory.sol\":763:764  0 */\n      0x00\n        /* \"hopium/common/interface/imDirectory.sol\":738:748  _directory */\n      dup2\n        /* \"hopium/common/interface/imDirectory.sol\":738:760  _directory.code.length */\n      0xffffffffffffffffffffffffffffffffffffffff\n      and\n      extcodesize\n        /* \"hopium/common/interface/imDirectory.sol\":738:764  _directory.code.length > 0 */\n      gt\n        /* \"hopium/common/interface/imDirectory.sol\":730:797  require(_directory.code.length > 0, \"Directory must be a contract\") */\n      tag_140\n      jumpi\n      mload(0x40)\n      0x08c379a000000000000000000000000000000000000000000000000000000000\n      dup2\n      mstore\n      0x04\n      add\n      tag_141\n      swap1\n      tag_142\n      jump\t// in\n    tag_141:\n      mload(0x40)\n      dup1\n      swap2\n      sub\n      swap1\n      revert\n    tag_140:\n        /* \"hopium/common/interface/imDirectory.sol\":861:871  _directory */\n      dup1\n        /* \"hopium/common/interface/imDirectory.sol\":850:878  IDirectory(_directory).owner */\n      0xffffffffffffffffffffffffffffffffffffffff\n      and\n      0x8da5cb5b\n        /* \"hopium/common/interface/imDirectory.sol\":850:880  IDirectory(_directory).owner() */\n      mload(0x40)\n      dup2\n      0xffffffff\n      and\n      0xe0\n      shl\n      dup2\n      mstore\n      0x04\n      add\n      0x20\n      mload(0x40)\n      dup1\n      dup4\n      sub\n      dup2\n      dup7\n      gas\n      staticcall\n      swap3\n      pop\n      pop\n      pop\n      dup1\n      iszero\n      tag_143\n      jumpi\n      pop\n      mload(0x40)\n      returndatasize\n      not(0x1f)\n      0x1f\n      dup3\n      add\n      and\n      dup3\n      add\n      dup1\n      0x40\n      mstore\n      pop\n      dup2\n      add\n      swap1\n      tag_144\n      swap2\n      swap1\n      tag_89\n      jump\t// in\n    tag_144:\n      0x01\n    tag_143:\n        /* \"hopium/common/interface/imDirectory.sol\":846:1044  try IDirectory(_directory).owner() returns (address) {... */\n      tag_145\n      jumpi\n        /* \"hopium/common/interface/imDirectory.sol\":979:1033  revert(\"Directory address does not implement owner()\") */\n      mload(0x40)\n      0x08c379a000000000000000000000000000000000000000000000000000000000\n      dup2\n      mstore\n      0x04\n      add\n      tag_149\n      swap1\n      tag_150\n      jump\t// in\n    tag_149:\n      mload(0x40)\n      dup1\n      swap2\n      sub\n      swap1\n      revert\n        /* \"hopium/common/interface/imDirectory.sol\":846:1044  try IDirectory(_directory).owner() returns (address) {... */\n    tag_145:\n        /* \"hopium/common/interface/imDirectory.sol\":936:946  _directory */\n      dup2\n        /* \"hopium/common/interface/imDirectory.sol\":913:922  Directory */\n      0x07\n      0x00\n        /* \"hopium/common/interface/imDirectory.sol\":913:947  Directory = IDirectory(_directory) */\n      0x0100\n      exp\n      dup2\n      sload\n      dup2\n      0xffffffffffffffffffffffffffffffffffffffff\n      mul\n      not\n      and\n      swap1\n      dup4\n      0xffffffffffffffffffffffffffffffffffffffff\n      and\n      mul\n      or\n      swap1\n      sstore\n      pop\n        /* \"hopium/common/interface/imDirectory.sol\":881:958  returns (address) {... */\n      pop\n        /* \"hopium/common/interface/imDirectory.sol\":589:1050  function _setDirectory(address _directory) internal {... */\n      pop\n      jump\t// out\n        /* \"hopium/etf/main/etf-factory-v1.sol\":4925:5656  function _createEtf(Etf calldata etf) internal returns (uint256) {... */\n    tag_116:\n        /* \"hopium/etf/main/etf-factory-v1.sol\":4981:4988  uint256 */\n      0x00\n        /* \"hopium/etf/main/etf-factory-v1.sol\":5037:5055  bytes32 tickerHash */\n      0x00\n        /* \"hopium/etf/main/etf-factory-v1.sol\":5058:5085  _validateTicker(etf.ticker) */\n      tag_153\n        /* \"hopium/etf/main/etf-factory-v1.sol\":5074:5077  etf */\n      dup4\n        /* \"hopium/etf/main/etf-factory-v1.sol\":5074:5084  etf.ticker */\n      dup1\n      0x20\n      add\n      swap1\n      tag_154\n      swap2\n      swap1\n      tag_120\n      jump\t// in\n    tag_154:\n        /* \"hopium/etf/main/etf-factory-v1.sol\":5058:5073  _validateTicker */\n      tag_155\n        /* \"hopium/etf/main/etf-factory-v1.sol\":5058:5085  _validateTicker(etf.ticker) */\n      jump\t// in\n    tag_153:\n        /* \"hopium/etf/main/etf-factory-v1.sol\":5037:5085  bytes32 tickerHash = _validateTicker(etf.ticker) */\n      swap1\n      pop\n        /* \"hopium/etf/main/etf-factory-v1.sol\":5158:5179  Asset[] memory sorted */\n      0x00\n        /* \"hopium/etf/main/etf-factory-v1.sol\":5182:5210  _validateAndSort(etf.assets) */\n      tag_156\n        /* \"hopium/etf/main/etf-factory-v1.sol\":5199:5202  etf */\n      dup5\n        /* \"hopium/etf/main/etf-factory-v1.sol\":5199:5209  etf.assets */\n      dup1\n      0x40\n      add\n      swap1\n      tag_157\n      swap2\n      swap1\n      tag_158\n      jump\t// in\n    tag_157:\n        /* \"hopium/etf/main/etf-factory-v1.sol\":5182:5198  _validateAndSort */\n      tag_159\n        /* \"hopium/etf/main/etf-factory-v1.sol\":5182:5210  _validateAndSort(etf.assets) */\n      jump\t// in\n    tag_156:\n        /* \"hopium/etf/main/etf-factory-v1.sol\":5158:5210  Asset[] memory sorted = _validateAndSort(etf.assets) */\n      swap1\n      pop\n        /* \"hopium/etf/main/etf-factory-v1.sol\":5257:5275  bytes32 assetsHash */\n      0x00\n        /* \"hopium/etf/main/etf-factory-v1.sol\":5278:5314  _validateEtfAssetsHashUnique(sorted) */\n      tag_160\n        /* \"hopium/etf/main/etf-factory-v1.sol\":5307:5313  sorted */\n      dup3\n        /* \"hopium/etf/main/etf-factory-v1.sol\":5278:5306  _validateEtfAssetsHashUnique */\n      tag_161\n        /* \"hopium/etf/main/etf-factory-v1.sol\":5278:5314  _validateEtfAssetsHashUnique(sorted) */\n      jump\t// in\n    tag_160:\n        /* \"hopium/etf/main/etf-factory-v1.sol\":5257:5314  bytes32 assetsHash = _validateEtfAssetsHashUnique(sorted) */\n      swap1\n      pop\n        /* \"hopium/etf/main/etf-factory-v1.sol\":5390:5403  uint256 etfId */\n      0x00\n        /* \"hopium/etf/main/etf-factory-v1.sol\":5406:5439  IdIdx.idxToId(createdEtfs.length) */\n      tag_162\n        /* \"hopium/etf/main/etf-factory-v1.sol\":5420:5431  createdEtfs */\n      0x00\n        /* \"hopium/etf/main/etf-factory-v1.sol\":5420:5438  createdEtfs.length */\n      dup1\n      sload\n      swap1\n      pop\n        /* \"hopium/etf/main/etf-factory-v1.sol\":5406:5419  IdIdx.idxToId */\n      tag_163\n        /* \"hopium/etf/main/etf-factory-v1.sol\":5406:5439  IdIdx.idxToId(createdEtfs.length) */\n      jump\t// in\n    tag_162:\n        /* \"hopium/etf/main/etf-factory-v1.sol\":5390:5439  uint256 etfId = IdIdx.idxToId(createdEtfs.length) */\n      swap1\n      pop\n        /* \"hopium/etf/main/etf-factory-v1.sol\":5449:5460  createdEtfs */\n      0x00\n        /* \"hopium/etf/main/etf-factory-v1.sol\":5466:5469  etf */\n      dup7\n        /* \"hopium/etf/main/etf-factory-v1.sol\":5449:5470  createdEtfs.push(etf) */\n      swap1\n      dup1\n      0x01\n      dup2\n      sload\n      add\n      dup1\n      dup3\n      sstore\n      dup1\n      swap2\n      pop\n      pop\n      0x01\n      swap1\n      sub\n      swap1\n      0x00\n      mstore\n      keccak256(0x00, 0x20)\n      swap1\n      0x03\n      mul\n      add\n      0x00\n      swap1\n      swap2\n      swap1\n      swap2\n      swap1\n      swap2\n      pop\n      dup2\n      dup2\n      tag_165\n      swap2\n      swap1\n      tag_166\n      jump\t// in\n    tag_165:\n      pop\n      pop\n        /* \"hopium/etf/main/etf-factory-v1.sol\":5542:5547  etfId */\n      dup1\n        /* \"hopium/etf/main/etf-factory-v1.sol\":5510:5527  etfTickerHashToId */\n      0x01\n        /* \"hopium/etf/main/etf-factory-v1.sol\":5510:5539  etfTickerHashToId[tickerHash] */\n      0x00\n        /* \"hopium/etf/main/etf-factory-v1.sol\":5528:5538  tickerHash */\n      dup7\n        /* \"hopium/etf/main/etf-factory-v1.sol\":5510:5539  etfTickerHashToId[tickerHash] */\n      dup2\n      mstore\n      0x20\n      add\n      swap1\n      dup2\n      mstore\n      0x20\n      add\n      0x00\n      keccak256\n        /* \"hopium/etf/main/etf-factory-v1.sol\":5510:5547  etfTickerHashToId[tickerHash] = etfId */\n      dup2\n      swap1\n      sstore\n      pop\n        /* \"hopium/etf/main/etf-factory-v1.sol\":5589:5594  etfId */\n      dup1\n        /* \"hopium/etf/main/etf-factory-v1.sol\":5557:5574  etfAssetsHashToId */\n      0x02\n        /* \"hopium/etf/main/etf-factory-v1.sol\":5557:5586  etfAssetsHashToId[assetsHash] */\n      0x00\n        /* \"hopium/etf/main/etf-factory-v1.sol\":5575:5585  assetsHash */\n      dup5\n        /* \"hopium/etf/main/etf-factory-v1.sol\":5557:5586  etfAssetsHashToId[assetsHash] */\n      dup2\n      mstore\n      0x20\n      add\n      swap1\n      dup2\n      mstore\n      0x20\n      add\n      0x00\n      keccak256\n        /* \"hopium/etf/main/etf-factory-v1.sol\":5557:5594  etfAssetsHashToId[assetsHash] = etfId */\n      dup2\n      swap1\n      sstore\n      pop\n        /* \"hopium/etf/main/etf-factory-v1.sol\":5621:5626  etfId */\n      dup1\n        /* \"hopium/etf/main/etf-factory-v1.sol\":5610:5627  EtfCreated(etfId) */\n      0x8320d61eb752c02271b492bb71ec93150c4ef1f5b9826a5d7c93b055ec00ac4e\n      mload(0x40)\n      mload(0x40)\n      dup1\n      swap2\n      sub\n      swap1\n      log2\n        /* \"hopium/etf/main/etf-factory-v1.sol\":5644:5649  etfId */\n      dup1\n        /* \"hopium/etf/main/etf-factory-v1.sol\":5637:5649  return etfId */\n      swap5\n      pop\n      pop\n      pop\n      pop\n      pop\n        /* \"hopium/etf/main/etf-factory-v1.sol\":4925:5656  function _createEtf(Etf calldata etf) internal returns (uint256) {... */\n      swap2\n      swap1\n      pop\n      jump\t// out\n        /* \"hopium/etf/interface/imEtfTokenDeployer.sol\":317:481  function getEtfTokenDeployer() internal view virtual returns (IEtfTokenDeployer) {... */\n    tag_118:\n        /* \"hopium/etf/interface/imEtfTokenDeployer.sol\":379:396  IEtfTokenDeployer */\n      0x00\n        /* \"hopium/etf/interface/imEtfTokenDeployer.sol\":433:473  fetchFromDirectory(\"etf-token-deployer\") */\n      tag_168\n      mload(0x40)\n      dup1\n      0x40\n      add\n      0x40\n      mstore\n      dup1\n      0x12\n      dup2\n      mstore\n      0x20\n      add\n      0x6574662d746f6b656e2d6465706c6f7965720000000000000000000000000000\n      dup2\n      mstore\n      pop\n        /* \"hopium/etf/interface/imEtfTokenDeployer.sol\":433:451  fetchFromDirectory */\n      tag_26\n        /* \"hopium/etf/interface/imEtfTokenDeployer.sol\":433:473  fetchFromDirectory(\"etf-token-deployer\") */\n      jump\t// in\n    tag_168:\n        /* \"hopium/etf/interface/imEtfTokenDeployer.sol\":408:474  return IEtfTokenDeployer(fetchFromDirectory(\"etf-token-deployer\")) */\n      swap1\n      pop\n        /* \"hopium/etf/interface/imEtfTokenDeployer.sol\":317:481  function getEtfTokenDeployer() internal view virtual returns (IEtfTokenDeployer) {... */\n      swap1\n      jump\t// out\n        /* \"hopium/etf/interface/imEtfVaultDeployer.sol\":257:421  function getEtfVaultDeployer() internal view virtual returns (IEtfVaultDeployer) {... */\n    tag_128:\n        /* \"hopium/etf/interface/imEtfVaultDeployer.sol\":319:336  IEtfVaultDeployer */\n      0x00\n        /* \"hopium/etf/interface/imEtfVaultDeployer.sol\":373:413  fetchFromDirectory(\"etf-vault-deployer\") */\n      tag_170\n      mload(0x40)\n      dup1\n      0x40\n      add\n      0x40\n      mstore\n      dup1\n      0x12\n      dup2\n      mstore\n      0x20\n      add\n      0x6574662d7661756c742d6465706c6f7965720000000000000000000000000000\n      dup2\n      mstore\n      pop\n        /* \"hopium/etf/interface/imEtfVaultDeployer.sol\":373:391  fetchFromDirectory */\n      tag_26\n        /* \"hopium/etf/interface/imEtfVaultDeployer.sol\":373:413  fetchFromDirectory(\"etf-vault-deployer\") */\n      jump\t// in\n    tag_170:\n        /* \"hopium/etf/interface/imEtfVaultDeployer.sol\":348:414  return IEtfVaultDeployer(fetchFromDirectory(\"etf-vault-deployer\")) */\n      swap1\n      pop\n        /* \"hopium/etf/interface/imEtfVaultDeployer.sol\":257:421  function getEtfVaultDeployer() internal view virtual returns (IEtfVaultDeployer) {... */\n      swap1\n      jump\t// out\n        /* \"hopium/etf/main/etf-factory-v1.sol\":2652:2924  function _validateTicker(string calldata ticker) internal view returns (bytes32 tickerHash) {... */\n    tag_155:\n        /* \"hopium/etf/main/etf-factory-v1.sol\":2724:2742  bytes32 tickerHash */\n      0x00\n        /* \"hopium/etf/main/etf-factory-v1.sol\":2782:2783  0 */\n      0x00\n        /* \"hopium/etf/main/etf-factory-v1.sol\":2764:2770  ticker */\n      dup4\n      dup4\n        /* \"hopium/etf/main/etf-factory-v1.sol\":2758:2778  bytes(ticker).length */\n      swap1\n      pop\n        /* \"hopium/etf/main/etf-factory-v1.sol\":2758:2783  bytes(ticker).length == 0 */\n      sub\n        /* \"hopium/etf/main/etf-factory-v1.sol\":2754:2805  if (bytes(ticker).length == 0) revert EmptyTicker() */\n      tag_172\n      jumpi\n        /* \"hopium/etf/main/etf-factory-v1.sol\":2792:2805  EmptyTicker() */\n      mload(0x40)\n      0x653b1be600000000000000000000000000000000000000000000000000000000\n      dup2\n      mstore\n      0x04\n      add\n      mload(0x40)\n      dup1\n      swap2\n      sub\n      swap1\n      revert\n        /* \"hopium/etf/main/etf-factory-v1.sol\":2754:2805  if (bytes(ticker).length == 0) revert EmptyTicker() */\n    tag_172:\n        /* \"hopium/etf/main/etf-factory-v1.sol\":2828:2846  _tickerKey(ticker) */\n      tag_173\n        /* \"hopium/etf/main/etf-factory-v1.sol\":2839:2845  ticker */\n      dup4\n      dup4\n        /* \"hopium/etf/main/etf-factory-v1.sol\":2828:2838  _tickerKey */\n      tag_174\n        /* \"hopium/etf/main/etf-factory-v1.sol\":2828:2846  _tickerKey(ticker) */\n      jump\t// in\n    tag_173:\n        /* \"hopium/etf/main/etf-factory-v1.sol\":2815:2846  tickerHash = _tickerKey(ticker) */\n      swap1\n      pop\n        /* \"hopium/etf/main/etf-factory-v1.sol\":2893:2894  0 */\n      0x00\n        /* \"hopium/etf/main/etf-factory-v1.sol\":2860:2877  etfTickerHashToId */\n      0x01\n        /* \"hopium/etf/main/etf-factory-v1.sol\":2860:2889  etfTickerHashToId[tickerHash] */\n      0x00\n        /* \"hopium/etf/main/etf-factory-v1.sol\":2878:2888  tickerHash */\n      dup4\n        /* \"hopium/etf/main/etf-factory-v1.sol\":2860:2889  etfTickerHashToId[tickerHash] */\n      dup2\n      mstore\n      0x20\n      add\n      swap1\n      dup2\n      mstore\n      0x20\n      add\n      0x00\n      keccak256\n      sload\n        /* \"hopium/etf/main/etf-factory-v1.sol\":2860:2894  etfTickerHashToId[tickerHash] != 0 */\n      eq\n        /* \"hopium/etf/main/etf-factory-v1.sol\":2856:2917  if (etfTickerHashToId[tickerHash] != 0) revert TickerExists() */\n      tag_175\n      jumpi\n        /* \"hopium/etf/main/etf-factory-v1.sol\":2903:2917  TickerExists() */\n      mload(0x40)\n      0xc498761200000000000000000000000000000000000000000000000000000000\n      dup2\n      mstore\n      0x04\n      add\n      mload(0x40)\n      dup1\n      swap2\n      sub\n      swap1\n      revert\n        /* \"hopium/etf/main/etf-factory-v1.sol\":2856:2917  if (etfTickerHashToId[tickerHash] != 0) revert TickerExists() */\n    tag_175:\n        /* \"hopium/etf/main/etf-factory-v1.sol\":2652:2924  function _validateTicker(string calldata ticker) internal view returns (bytes32 tickerHash) {... */\n      swap3\n      swap2\n      pop\n      pop\n      jump\t// out\n        /* \"hopium/etf/main/etf-factory-v1.sol\":3182:4522  function _validateAndSort(Asset[] calldata assets)... */\n    tag_159:\n        /* \"hopium/etf/main/etf-factory-v1.sol\":3267:3288  Asset[] memory sorted */\n      0x60\n        /* \"hopium/etf/main/etf-factory-v1.sol\":3304:3313  uint256 n */\n      0x00\n        /* \"hopium/etf/main/etf-factory-v1.sol\":3316:3322  assets */\n      dup4\n      dup4\n        /* \"hopium/etf/main/etf-factory-v1.sol\":3316:3329  assets.length */\n      swap1\n      pop\n        /* \"hopium/etf/main/etf-factory-v1.sol\":3304:3329  uint256 n = assets.length */\n      swap1\n      pop\n        /* \"hopium/etf/main/etf-factory-v1.sol\":3348:3349  0 */\n      0x00\n        /* \"hopium/etf/main/etf-factory-v1.sol\":3343:3344  n */\n      dup2\n        /* \"hopium/etf/main/etf-factory-v1.sol\":3343:3349  n == 0 */\n      sub\n        /* \"hopium/etf/main/etf-factory-v1.sol\":3339:3368  if (n == 0) revert NoAssets() */\n      tag_177\n      jumpi\n        /* \"hopium/etf/main/etf-factory-v1.sol\":3358:3368  NoAssets() */\n      mload(0x40)\n      0x5373815f00000000000000000000000000000000000000000000000000000000\n      dup2\n      mstore\n      0x04\n      add\n      mload(0x40)\n      dup1\n      swap2\n      sub\n      swap1\n      revert\n        /* \"hopium/etf/main/etf-factory-v1.sol\":3339:3368  if (n == 0) revert NoAssets() */\n    tag_177:\n        /* \"hopium/etf/main/etf-factory-v1.sol\":3440:3441  n */\n      dup1\n        /* \"hopium/etf/main/etf-factory-v1.sol\":3428:3442  new Asset[](n) */\n      0xffffffffffffffff\n      dup2\n      gt\n      iszero\n      tag_178\n      jumpi\n      tag_179\n      tag_180\n      jump\t// in\n    tag_179:\n    tag_178:\n      mload(0x40)\n      swap1\n      dup1\n      dup3\n      mstore\n      dup1\n      0x20\n      mul\n      0x20\n      add\n      dup3\n      add\n      0x40\n      mstore\n      dup1\n      iszero\n      tag_181\n      jumpi\n      dup2\n      0x20\n      add\n    tag_182:\n      tag_183\n      tag_184\n      jump\t// in\n    tag_183:\n      dup2\n      mstore\n      0x20\n      add\n      swap1\n      0x01\n      swap1\n      sub\n      swap1\n      dup2\n      tag_182\n      jumpi\n      swap1\n      pop\n    tag_181:\n      pop\n        /* \"hopium/etf/main/etf-factory-v1.sol\":3419:3442  sorted = new Asset[](n) */\n      swap2\n      pop\n        /* \"hopium/etf/main/etf-factory-v1.sol\":3457:3466  uint256 i */\n      0x00\n        /* \"hopium/etf/main/etf-factory-v1.sol\":3469:3470  0 */\n      0x00\n        /* \"hopium/etf/main/etf-factory-v1.sol\":3457:3470  uint256 i = 0 */\n      swap1\n      pop\n        /* \"hopium/etf/main/etf-factory-v1.sol\":3452:4062  for (uint256 i = 0; i < n; ) {... */\n    tag_185:\n        /* \"hopium/etf/main/etf-factory-v1.sol\":3476:3477  n */\n      dup2\n        /* \"hopium/etf/main/etf-factory-v1.sol\":3472:3473  i */\n      dup2\n        /* \"hopium/etf/main/etf-factory-v1.sol\":3472:3477  i < n */\n      lt\n        /* \"hopium/etf/main/etf-factory-v1.sol\":3452:4062  for (uint256 i = 0; i < n; ) {... */\n      iszero\n      tag_186\n      jumpi\n        /* \"hopium/etf/main/etf-factory-v1.sol\":3495:3511  Asset calldata a */\n      calldatasize\n        /* \"hopium/etf/main/etf-factory-v1.sol\":3514:3520  assets */\n      dup6\n      dup6\n        /* \"hopium/etf/main/etf-factory-v1.sol\":3521:3522  i */\n      dup4\n        /* \"hopium/etf/main/etf-factory-v1.sol\":3514:3523  assets[i] */\n      dup2\n      dup2\n      lt\n      tag_188\n      jumpi\n      tag_189\n      tag_190\n      jump\t// in\n    tag_189:\n    tag_188:\n      swap1\n      pop\n      0x40\n      mul\n      add\n        /* \"hopium/etf/main/etf-factory-v1.sol\":3495:3523  Asset calldata a = assets[i] */\n      swap1\n      pop\n        /* \"hopium/etf/main/etf-factory-v1.sol\":3537:3550  address token */\n      0x00\n        /* \"hopium/etf/main/etf-factory-v1.sol\":3553:3554  a */\n      dup2\n        /* \"hopium/etf/main/etf-factory-v1.sol\":3553:3567  a.tokenAddress */\n      0x00\n      add\n      0x20\n      dup2\n      add\n      swap1\n      tag_191\n      swap2\n      swap1\n      tag_51\n      jump\t// in\n    tag_191:\n        /* \"hopium/etf/main/etf-factory-v1.sol\":3537:3567  address token = a.tokenAddress */\n      swap1\n      pop\n        /* \"hopium/etf/main/etf-factory-v1.sol\":3581:3590  uint256 w */\n      0x00\n        /* \"hopium/etf/main/etf-factory-v1.sol\":3593:3594  a */\n      dup3\n        /* \"hopium/etf/main/etf-factory-v1.sol\":3593:3605  a.weightBips */\n      0x20\n      add\n      0x20\n      dup2\n      add\n      swap1\n      tag_192\n      swap2\n      swap1\n      tag_193\n      jump\t// in\n    tag_192:\n        /* \"hopium/etf/main/etf-factory-v1.sol\":3581:3605  uint256 w = a.weightBips */\n      0xffff\n      and\n      swap1\n      pop\n        /* \"hopium/etf/main/etf-factory-v1.sol\":3633:3645  WETH_ADDRESS */\n      immutable(\"0xb7020dd003fcd4d96af1507ff4dc7e2c1158f23ad0bacfdf3455869cf9fb4898\")\n        /* \"hopium/etf/main/etf-factory-v1.sol\":3624:3645  token != WETH_ADDRESS */\n      0xffffffffffffffffffffffffffffffffffffffff\n      and\n        /* \"hopium/etf/main/etf-factory-v1.sol\":3624:3629  token */\n      dup3\n        /* \"hopium/etf/main/etf-factory-v1.sol\":3624:3645  token != WETH_ADDRESS */\n      0xffffffffffffffffffffffffffffffffffffffff\n      and\n      eq\n        /* \"hopium/etf/main/etf-factory-v1.sol\":3620:3827  if (token != WETH_ADDRESS) {... */\n      tag_194\n      jumpi\n        /* \"hopium/etf/main/etf-factory-v1.sol\":3665:3681  Pool memory pool */\n      0x00\n        /* \"hopium/etf/main/etf-factory-v1.sol\":3684:3699  getPoolFinder() */\n      tag_195\n        /* \"hopium/etf/main/etf-factory-v1.sol\":3684:3697  getPoolFinder */\n      tag_196\n        /* \"hopium/etf/main/etf-factory-v1.sol\":3684:3699  getPoolFinder() */\n      jump\t// in\n    tag_195:\n        /* \"hopium/etf/main/etf-factory-v1.sol\":3684:3731  getPoolFinder().getBestWethPoolAndUpdateIfStale */\n      0xffffffffffffffffffffffffffffffffffffffff\n      and\n      0x6425f09e\n        /* \"hopium/etf/main/etf-factory-v1.sol\":3732:3737  token */\n      dup5\n        /* \"hopium/etf/main/etf-factory-v1.sol\":3684:3738  getPoolFinder().getBestWethPoolAndUpdateIfStale(token) */\n      mload(0x40)\n      dup3\n      0xffffffff\n      and\n      0xe0\n      shl\n      dup2\n      mstore\n      0x04\n      add\n      tag_197\n      swap2\n      swap1\n      tag_18\n      jump\t// in\n    tag_197:\n      0x80\n      mload(0x40)\n      dup1\n      dup4\n      sub\n      dup2\n      0x00\n      dup8\n      gas\n      call\n      iszero\n      dup1\n      iszero\n      tag_199\n      jumpi\n      returndatacopy(0x00, 0x00, returndatasize)\n      revert(0x00, returndatasize)\n    tag_199:\n      pop\n      pop\n      pop\n      pop\n      mload(0x40)\n      returndatasize\n      not(0x1f)\n      0x1f\n      dup3\n      add\n      and\n      dup3\n      add\n      dup1\n      0x40\n      mstore\n      pop\n      dup2\n      add\n      swap1\n      tag_200\n      swap2\n      swap1\n      tag_201\n      jump\t// in\n    tag_200:\n        /* \"hopium/etf/main/etf-factory-v1.sol\":3665:3738  Pool memory pool = getPoolFinder().getBestWethPoolAndUpdateIfStale(token) */\n      swap1\n      pop\n        /* \"hopium/etf/main/etf-factory-v1.sol\":3788:3789  0 */\n      0x00\n        /* \"hopium/etf/main/etf-factory-v1.sol\":3760:3790  pool.poolAddress == address(0) */\n      0xffffffffffffffffffffffffffffffffffffffff\n      and\n        /* \"hopium/etf/main/etf-factory-v1.sol\":3760:3764  pool */\n      dup2\n        /* \"hopium/etf/main/etf-factory-v1.sol\":3760:3776  pool.poolAddress */\n      0x00\n      add\n      mload\n        /* \"hopium/etf/main/etf-factory-v1.sol\":3760:3790  pool.poolAddress == address(0) */\n      0xffffffffffffffffffffffffffffffffffffffff\n      and\n      sub\n        /* \"hopium/etf/main/etf-factory-v1.sol\":3756:3812  if (pool.poolAddress == address(0)) revert NoPoolFound() */\n      tag_202\n      jumpi\n        /* \"hopium/etf/main/etf-factory-v1.sol\":3799:3812  NoPoolFound() */\n      mload(0x40)\n      0x791c2fed00000000000000000000000000000000000000000000000000000000\n      dup2\n      mstore\n      0x04\n      add\n      mload(0x40)\n      dup1\n      swap2\n      sub\n      swap1\n      revert\n        /* \"hopium/etf/main/etf-factory-v1.sol\":3756:3812  if (pool.poolAddress == address(0)) revert NoPoolFound() */\n    tag_202:\n        /* \"hopium/etf/main/etf-factory-v1.sol\":3647:3827  {... */\n      pop\n        /* \"hopium/etf/main/etf-factory-v1.sol\":3620:3827  if (token != WETH_ADDRESS) {... */\n    tag_194:\n        /* \"hopium/etf/main/etf-factory-v1.sol\":3862:3863  0 */\n      0x00\n        /* \"hopium/etf/main/etf-factory-v1.sol\":3845:3864  token == address(0) */\n      0xffffffffffffffffffffffffffffffffffffffff\n      and\n        /* \"hopium/etf/main/etf-factory-v1.sol\":3845:3850  token */\n      dup3\n        /* \"hopium/etf/main/etf-factory-v1.sol\":3845:3864  token == address(0) */\n      0xffffffffffffffffffffffffffffffffffffffff\n      and\n      sub\n        /* \"hopium/etf/main/etf-factory-v1.sol\":3841:3884  if (token == address(0)) revert ZeroToken() */\n      tag_203\n      jumpi\n        /* \"hopium/etf/main/etf-factory-v1.sol\":3873:3884  ZeroToken() */\n      mload(0x40)\n      0xad1991f500000000000000000000000000000000000000000000000000000000\n      dup2\n      mstore\n      0x04\n      add\n      mload(0x40)\n      dup1\n      swap2\n      sub\n      swap1\n      revert\n        /* \"hopium/etf/main/etf-factory-v1.sol\":3841:3884  if (token == address(0)) revert ZeroToken() */\n    tag_203:\n        /* \"hopium/etf/main/etf-factory-v1.sol\":3907:3908  0 */\n      0x00\n        /* \"hopium/etf/main/etf-factory-v1.sol\":3902:3903  w */\n      dup2\n        /* \"hopium/etf/main/etf-factory-v1.sol\":3902:3908  w == 0 */\n      sub\n        /* \"hopium/etf/main/etf-factory-v1.sol\":3898:3929  if (w == 0) revert ZeroWeight() */\n      tag_204\n      jumpi\n        /* \"hopium/etf/main/etf-factory-v1.sol\":3917:3929  ZeroWeight() */\n      mload(0x40)\n      0x19a2a9bd00000000000000000000000000000000000000000000000000000000\n      dup2\n      mstore\n      0x04\n      add\n      mload(0x40)\n      dup1\n      swap2\n      sub\n      swap1\n      revert\n        /* \"hopium/etf/main/etf-factory-v1.sol\":3898:3929  if (w == 0) revert ZeroWeight() */\n    tag_204:\n        /* \"hopium/common/types/bips.sol\":97:103  10_000 */\n      0x2710\n        /* \"hopium/etf/main/etf-factory-v1.sol\":3947:3948  w */\n      dup2\n        /* \"hopium/etf/main/etf-factory-v1.sol\":3947:3971  w > HUNDRED_PERCENT_BIPS */\n      gt\n        /* \"hopium/etf/main/etf-factory-v1.sol\":3943:3992  if (w > HUNDRED_PERCENT_BIPS) revert OverWeight() */\n      iszero\n      tag_205\n      jumpi\n        /* \"hopium/etf/main/etf-factory-v1.sol\":3980:3992  OverWeight() */\n      mload(0x40)\n      0xc663343d00000000000000000000000000000000000000000000000000000000\n      dup2\n      mstore\n      0x04\n      add\n      mload(0x40)\n      dup1\n      swap2\n      sub\n      swap1\n      revert\n        /* \"hopium/etf/main/etf-factory-v1.sol\":3943:3992  if (w > HUNDRED_PERCENT_BIPS) revert OverWeight() */\n    tag_205:\n        /* \"hopium/etf/main/etf-factory-v1.sol\":4019:4020  a */\n      dup3\n        /* \"hopium/etf/main/etf-factory-v1.sol\":4007:4020  sorted[i] = a */\n      dup1\n      calldatasize\n      sub\n      dup2\n      add\n      swap1\n      tag_206\n      swap2\n      swap1\n      tag_207\n      jump\t// in\n    tag_206:\n        /* \"hopium/etf/main/etf-factory-v1.sol\":4007:4013  sorted */\n      dup7\n        /* \"hopium/etf/main/etf-factory-v1.sol\":4014:4015  i */\n      dup6\n        /* \"hopium/etf/main/etf-factory-v1.sol\":4007:4016  sorted[i] */\n      dup2\n      mload\n      dup2\n      lt\n      tag_208\n      jumpi\n      tag_209\n      tag_190\n      jump\t// in\n    tag_209:\n    tag_208:\n      0x20\n      mul\n      0x20\n      add\n      add\n        /* \"hopium/etf/main/etf-factory-v1.sol\":4007:4020  sorted[i] = a */\n      dup2\n      swap1\n      mstore\n      pop\n        /* \"hopium/etf/main/etf-factory-v1.sol\":4046:4049  ++i */\n      dup4\n      0x01\n      add\n      swap4\n      pop\n        /* \"hopium/etf/main/etf-factory-v1.sol\":3481:4062  {... */\n      pop\n      pop\n      pop\n        /* \"hopium/etf/main/etf-factory-v1.sol\":3452:4062  for (uint256 i = 0; i < n; ) {... */\n      jump(tag_185)\n    tag_186:\n      pop\n        /* \"hopium/etf/main/etf-factory-v1.sol\":4097:4119  _insertionSort(sorted) */\n      tag_210\n        /* \"hopium/etf/main/etf-factory-v1.sol\":4112:4118  sorted */\n      dup3\n        /* \"hopium/etf/main/etf-factory-v1.sol\":4097:4111  _insertionSort */\n      tag_211\n        /* \"hopium/etf/main/etf-factory-v1.sol\":4097:4119  _insertionSort(sorted) */\n      jump\t// in\n    tag_210:\n        /* \"hopium/etf/main/etf-factory-v1.sol\":4185:4196  uint256 sum */\n      0x00\n        /* \"hopium/etf/main/etf-factory-v1.sol\":4211:4220  uint256 i */\n      0x00\n        /* \"hopium/etf/main/etf-factory-v1.sol\":4223:4224  0 */\n      0x00\n        /* \"hopium/etf/main/etf-factory-v1.sol\":4211:4224  uint256 i = 0 */\n      swap1\n      pop\n        /* \"hopium/etf/main/etf-factory-v1.sol\":4206:4454  for (uint256 i = 0; i < n; ) {... */\n    tag_212:\n        /* \"hopium/etf/main/etf-factory-v1.sol\":4230:4231  n */\n      dup3\n        /* \"hopium/etf/main/etf-factory-v1.sol\":4226:4227  i */\n      dup2\n        /* \"hopium/etf/main/etf-factory-v1.sol\":4226:4231  i < n */\n      lt\n        /* \"hopium/etf/main/etf-factory-v1.sol\":4206:4454  for (uint256 i = 0; i < n; ) {... */\n      iszero\n      tag_213\n      jumpi\n        /* \"hopium/etf/main/etf-factory-v1.sol\":4257:4258  0 */\n      0x00\n        /* \"hopium/etf/main/etf-factory-v1.sol\":4253:4254  i */\n      dup2\n        /* \"hopium/etf/main/etf-factory-v1.sol\":4253:4258  i > 0 */\n      gt\n        /* \"hopium/etf/main/etf-factory-v1.sol\":4253:4314  i > 0 && sorted[i - 1].tokenAddress == sorted[i].tokenAddress */\n      dup1\n      iszero\n      tag_215\n      jumpi\n      pop\n        /* \"hopium/etf/main/etf-factory-v1.sol\":4292:4298  sorted */\n      dup4\n        /* \"hopium/etf/main/etf-factory-v1.sol\":4299:4300  i */\n      dup2\n        /* \"hopium/etf/main/etf-factory-v1.sol\":4292:4301  sorted[i] */\n      dup2\n      mload\n      dup2\n      lt\n      tag_216\n      jumpi\n      tag_217\n      tag_190\n      jump\t// in\n    tag_217:\n    tag_216:\n      0x20\n      mul\n      0x20\n      add\n      add\n      mload\n        /* \"hopium/etf/main/etf-factory-v1.sol\":4292:4314  sorted[i].tokenAddress */\n      0x00\n      add\n      mload\n        /* \"hopium/etf/main/etf-factory-v1.sol\":4262:4314  sorted[i - 1].tokenAddress == sorted[i].tokenAddress */\n      0xffffffffffffffffffffffffffffffffffffffff\n      and\n        /* \"hopium/etf/main/etf-factory-v1.sol\":4262:4268  sorted */\n      dup5\n        /* \"hopium/etf/main/etf-factory-v1.sol\":4273:4274  1 */\n      0x01\n        /* \"hopium/etf/main/etf-factory-v1.sol\":4269:4270  i */\n      dup4\n        /* \"hopium/etf/main/etf-factory-v1.sol\":4269:4274  i - 1 */\n      tag_218\n      swap2\n      swap1\n      tag_219\n      jump\t// in\n    tag_218:\n        /* \"hopium/etf/main/etf-factory-v1.sol\":4262:4275  sorted[i - 1] */\n      dup2\n      mload\n      dup2\n      lt\n      tag_220\n      jumpi\n      tag_221\n      tag_190\n      jump\t// in\n    tag_221:\n    tag_220:\n      0x20\n      mul\n      0x20\n      add\n      add\n      mload\n        /* \"hopium/etf/main/etf-factory-v1.sol\":4262:4288  sorted[i - 1].tokenAddress */\n      0x00\n      add\n      mload\n        /* \"hopium/etf/main/etf-factory-v1.sol\":4262:4314  sorted[i - 1].tokenAddress == sorted[i].tokenAddress */\n      0xffffffffffffffffffffffffffffffffffffffff\n      and\n      eq\n        /* \"hopium/etf/main/etf-factory-v1.sol\":4253:4314  i > 0 && sorted[i - 1].tokenAddress == sorted[i].tokenAddress */\n    tag_215:\n        /* \"hopium/etf/main/etf-factory-v1.sol\":4249:4372  if (i > 0 && sorted[i - 1].tokenAddress == sorted[i].tokenAddress) {... */\n      iszero\n      tag_222\n      jumpi\n        /* \"hopium/etf/main/etf-factory-v1.sol\":4341:4357  DuplicateToken() */\n      mload(0x40)\n      0x464e3f6a00000000000000000000000000000000000000000000000000000000\n      dup2\n      mstore\n      0x04\n      add\n      mload(0x40)\n      dup1\n      swap2\n      sub\n      swap1\n      revert\n        /* \"hopium/etf/main/etf-factory-v1.sol\":4249:4372  if (i > 0 && sorted[i - 1].tokenAddress == sorted[i].tokenAddress) {... */\n    tag_222:\n        /* \"hopium/etf/main/etf-factory-v1.sol\":4392:4398  sorted */\n      dup4\n        /* \"hopium/etf/main/etf-factory-v1.sol\":4399:4400  i */\n      dup2\n        /* \"hopium/etf/main/etf-factory-v1.sol\":4392:4401  sorted[i] */\n      dup2\n      mload\n      dup2\n      lt\n      tag_223\n      jumpi\n      tag_224\n      tag_190\n      jump\t// in\n    tag_224:\n    tag_223:\n      0x20\n      mul\n      0x20\n      add\n      add\n      mload\n        /* \"hopium/etf/main/etf-factory-v1.sol\":4392:4412  sorted[i].weightBips */\n      0x20\n      add\n      mload\n        /* \"hopium/etf/main/etf-factory-v1.sol\":4385:4412  sum += sorted[i].weightBips */\n      0xffff\n      and\n      dup3\n      tag_225\n      swap2\n      swap1\n      tag_81\n      jump\t// in\n    tag_225:\n      swap2\n      pop\n        /* \"hopium/etf/main/etf-factory-v1.sol\":4438:4441  ++i */\n      dup1\n      0x01\n      add\n      swap1\n      pop\n        /* \"hopium/etf/main/etf-factory-v1.sol\":4206:4454  for (uint256 i = 0; i < n; ) {... */\n      jump(tag_212)\n    tag_213:\n      pop\n        /* \"hopium/common/types/bips.sol\":97:103  10_000 */\n      0x2710\n        /* \"hopium/etf/main/etf-factory-v1.sol\":4467:4470  sum */\n      dup2\n        /* \"hopium/etf/main/etf-factory-v1.sol\":4467:4494  sum != HUNDRED_PERCENT_BIPS */\n      eq\n        /* \"hopium/etf/main/etf-factory-v1.sol\":4463:4515  if (sum != HUNDRED_PERCENT_BIPS) revert NotHundred() */\n      tag_226\n      jumpi\n        /* \"hopium/etf/main/etf-factory-v1.sol\":4503:4515  NotHundred() */\n      mload(0x40)\n      0xda6957ea00000000000000000000000000000000000000000000000000000000\n      dup2\n      mstore\n      0x04\n      add\n      mload(0x40)\n      dup1\n      swap2\n      sub\n      swap1\n      revert\n        /* \"hopium/etf/main/etf-factory-v1.sol\":4463:4515  if (sum != HUNDRED_PERCENT_BIPS) revert NotHundred() */\n    tag_226:\n        /* \"hopium/etf/main/etf-factory-v1.sol\":3294:4522  {... */\n      pop\n      pop\n        /* \"hopium/etf/main/etf-factory-v1.sol\":3182:4522  function _validateAndSort(Asset[] calldata assets)... */\n      swap3\n      swap2\n      pop\n      pop\n      jump\t// out\n        /* \"hopium/etf/main/etf-factory-v1.sol\":4620:4866  function _validateEtfAssetsHashUnique(Asset[] memory sorted) internal view returns (bytes32 etfAssetsHash) {... */\n    tag_161:\n        /* \"hopium/etf/main/etf-factory-v1.sol\":4704:4725  bytes32 etfAssetsHash */\n      0x00\n        /* \"hopium/etf/main/etf-factory-v1.sol\":4753:4788  _computeEtfAssetsHashSorted(sorted) */\n      tag_228\n        /* \"hopium/etf/main/etf-factory-v1.sol\":4781:4787  sorted */\n      dup3\n        /* \"hopium/etf/main/etf-factory-v1.sol\":4753:4780  _computeEtfAssetsHashSorted */\n      tag_229\n        /* \"hopium/etf/main/etf-factory-v1.sol\":4753:4788  _computeEtfAssetsHashSorted(sorted) */\n      jump\t// in\n    tag_228:\n        /* \"hopium/etf/main/etf-factory-v1.sol\":4737:4788  etfAssetsHash = _computeEtfAssetsHashSorted(sorted) */\n      swap1\n      pop\n        /* \"hopium/etf/main/etf-factory-v1.sol\":4838:4839  0 */\n      0x00\n        /* \"hopium/etf/main/etf-factory-v1.sol\":4802:4819  etfAssetsHashToId */\n      0x02\n        /* \"hopium/etf/main/etf-factory-v1.sol\":4802:4834  etfAssetsHashToId[etfAssetsHash] */\n      0x00\n        /* \"hopium/etf/main/etf-factory-v1.sol\":4820:4833  etfAssetsHash */\n      dup4\n        /* \"hopium/etf/main/etf-factory-v1.sol\":4802:4834  etfAssetsHashToId[etfAssetsHash] */\n      dup2\n      mstore\n      0x20\n      add\n      swap1\n      dup2\n      mstore\n      0x20\n      add\n      0x00\n      keccak256\n      sload\n        /* \"hopium/etf/main/etf-factory-v1.sol\":4802:4839  etfAssetsHashToId[etfAssetsHash] != 0 */\n      eq\n        /* \"hopium/etf/main/etf-factory-v1.sol\":4798:4859  if (etfAssetsHashToId[etfAssetsHash] != 0) revert EtfExists() */\n      tag_230\n      jumpi\n        /* \"hopium/etf/main/etf-factory-v1.sol\":4848:4859  EtfExists() */\n      mload(0x40)\n      0x985be99000000000000000000000000000000000000000000000000000000000\n      dup2\n      mstore\n      0x04\n      add\n      mload(0x40)\n      dup1\n      swap2\n      sub\n      swap1\n      revert\n        /* \"hopium/etf/main/etf-factory-v1.sol\":4798:4859  if (etfAssetsHashToId[etfAssetsHash] != 0) revert EtfExists() */\n    tag_230:\n        /* \"hopium/etf/main/etf-factory-v1.sol\":4620:4866  function _validateEtfAssetsHashUnique(Asset[] memory sorted) internal view returns (bytes32 etfAssetsHash) {... */\n      swap2\n      swap1\n      pop\n      jump\t// out\n        /* \"hopium/common/lib/ididx.sol\":78:171  function idxToId(uint256 idx) internal pure returns (uint256) {... */\n    tag_163:\n        /* \"hopium/common/lib/ididx.sol\":131:138  uint256 */\n      0x00\n        /* \"hopium/common/lib/ididx.sol\":163:164  1 */\n      0x01\n        /* \"hopium/common/lib/ididx.sol\":157:160  idx */\n      dup3\n        /* \"hopium/common/lib/ididx.sol\":157:164  idx + 1 */\n      tag_232\n      swap2\n      swap1\n      tag_81\n      jump\t// in\n    tag_232:\n        /* \"hopium/common/lib/ididx.sol\":150:164  return idx + 1 */\n      swap1\n      pop\n        /* \"hopium/common/lib/ididx.sol\":78:171  function idxToId(uint256 idx) internal pure returns (uint256) {... */\n      swap2\n      swap1\n      pop\n      jump\t// out\n        /* \"hopium/etf/main/etf-factory-v1.sol\":2403:2517  function _tickerKey(string calldata t) internal pure returns (bytes32) {... */\n    tag_174:\n        /* \"hopium/etf/main/etf-factory-v1.sol\":2465:2472  bytes32 */\n      0x00\n        /* \"hopium/etf/main/etf-factory-v1.sol\":2507:2508  t */\n      dup3\n      dup3\n        /* \"hopium/etf/main/etf-factory-v1.sol\":2491:2510  keccak256(bytes(t)) */\n      mload(0x40)\n      tag_234\n      swap3\n      swap2\n      swap1\n      tag_235\n      jump\t// in\n    tag_234:\n      mload(0x40)\n      dup1\n      swap2\n      sub\n      swap1\n      keccak256\n        /* \"hopium/etf/main/etf-factory-v1.sol\":2484:2510  return keccak256(bytes(t)) */\n      swap1\n      pop\n        /* \"hopium/etf/main/etf-factory-v1.sol\":2403:2517  function _tickerKey(string calldata t) internal pure returns (bytes32) {... */\n      swap3\n      swap2\n      pop\n      pop\n      jump\t// out\n        /* \"hopium/uniswap/interface/imPoolFinder.sol\":425:564  function getPoolFinder() internal view virtual returns (IPoolFinder) {... */\n    tag_196:\n        /* \"hopium/uniswap/interface/imPoolFinder.sol\":481:492  IPoolFinder */\n      0x00\n        /* \"hopium/uniswap/interface/imPoolFinder.sol\":523:556  fetchFromDirectory(\"pool-finder\") */\n      tag_237\n      mload(0x40)\n      dup1\n      0x40\n      add\n      0x40\n      mstore\n      dup1\n      0x0b\n      dup2\n      mstore\n      0x20\n      add\n      0x706f6f6c2d66696e646572000000000000000000000000000000000000000000\n      dup2\n      mstore\n      pop\n        /* \"hopium/uniswap/interface/imPoolFinder.sol\":523:541  fetchFromDirectory */\n      tag_26\n        /* \"hopium/uniswap/interface/imPoolFinder.sol\":523:556  fetchFromDirectory(\"pool-finder\") */\n      jump\t// in\n    tag_237:\n        /* \"hopium/uniswap/interface/imPoolFinder.sol\":504:557  return IPoolFinder(fetchFromDirectory(\"pool-finder\")) */\n      swap1\n      pop\n        /* \"hopium/uniswap/interface/imPoolFinder.sol\":425:564  function getPoolFinder() internal view virtual returns (IPoolFinder) {... */\n      swap1\n      jump\t// out\n        /* \"hopium/etf/main/etf-factory-v1.sol\":1365:2035  function _insertionSort(Asset[] memory a) internal pure {... */\n    tag_211:\n        /* \"hopium/etf/main/etf-factory-v1.sol\":1431:1440  uint256 n */\n      0x00\n        /* \"hopium/etf/main/etf-factory-v1.sol\":1443:1444  a */\n      dup2\n        /* \"hopium/etf/main/etf-factory-v1.sol\":1443:1451  a.length */\n      mload\n        /* \"hopium/etf/main/etf-factory-v1.sol\":1431:1451  uint256 n = a.length */\n      swap1\n      pop\n        /* \"hopium/etf/main/etf-factory-v1.sol\":1466:1475  uint256 i */\n      0x00\n        /* \"hopium/etf/main/etf-factory-v1.sol\":1478:1479  1 */\n      0x01\n        /* \"hopium/etf/main/etf-factory-v1.sol\":1466:1479  uint256 i = 1 */\n      swap1\n      pop\n        /* \"hopium/etf/main/etf-factory-v1.sol\":1461:2029  for (uint256 i = 1; i < n; ) {... */\n    tag_239:\n        /* \"hopium/etf/main/etf-factory-v1.sol\":1485:1486  n */\n      dup2\n        /* \"hopium/etf/main/etf-factory-v1.sol\":1481:1482  i */\n      dup2\n        /* \"hopium/etf/main/etf-factory-v1.sol\":1481:1486  i < n */\n      lt\n        /* \"hopium/etf/main/etf-factory-v1.sol\":1461:2029  for (uint256 i = 1; i < n; ) {... */\n      iszero\n      tag_240\n      jumpi\n        /* \"hopium/etf/main/etf-factory-v1.sol\":1504:1520  Asset memory key */\n      0x00\n        /* \"hopium/etf/main/etf-factory-v1.sol\":1523:1524  a */\n      dup4\n        /* \"hopium/etf/main/etf-factory-v1.sol\":1525:1526  i */\n      dup3\n        /* \"hopium/etf/main/etf-factory-v1.sol\":1523:1527  a[i] */\n      dup2\n      mload\n      dup2\n      lt\n      tag_242\n      jumpi\n      tag_243\n      tag_190\n      jump\t// in\n    tag_243:\n    tag_242:\n      0x20\n      mul\n      0x20\n      add\n      add\n      mload\n        /* \"hopium/etf/main/etf-factory-v1.sol\":1504:1527  Asset memory key = a[i] */\n      swap1\n      pop\n        /* \"hopium/etf/main/etf-factory-v1.sol\":1541:1550  uint256 j */\n      0x00\n        /* \"hopium/etf/main/etf-factory-v1.sol\":1553:1554  i */\n      dup3\n        /* \"hopium/etf/main/etf-factory-v1.sol\":1541:1554  uint256 j = i */\n      swap1\n      pop\n        /* \"hopium/etf/main/etf-factory-v1.sol\":1568:1964  while (j > 0) {... */\n    tag_244:\n        /* \"hopium/etf/main/etf-factory-v1.sol\":1579:1580  0 */\n      0x00\n        /* \"hopium/etf/main/etf-factory-v1.sol\":1575:1576  j */\n      dup2\n        /* \"hopium/etf/main/etf-factory-v1.sol\":1575:1580  j > 0 */\n      gt\n        /* \"hopium/etf/main/etf-factory-v1.sol\":1568:1964  while (j > 0) {... */\n      iszero\n      tag_245\n      jumpi\n        /* \"hopium/etf/main/etf-factory-v1.sol\":1600:1617  Asset memory prev */\n      0x00\n        /* \"hopium/etf/main/etf-factory-v1.sol\":1620:1621  a */\n      dup6\n        /* \"hopium/etf/main/etf-factory-v1.sol\":1626:1627  1 */\n      0x01\n        /* \"hopium/etf/main/etf-factory-v1.sol\":1622:1623  j */\n      dup4\n        /* \"hopium/etf/main/etf-factory-v1.sol\":1622:1627  j - 1 */\n      tag_246\n      swap2\n      swap1\n      tag_219\n      jump\t// in\n    tag_246:\n        /* \"hopium/etf/main/etf-factory-v1.sol\":1620:1628  a[j - 1] */\n      dup2\n      mload\n      dup2\n      lt\n      tag_247\n      jumpi\n      tag_248\n      tag_190\n      jump\t// in\n    tag_248:\n    tag_247:\n      0x20\n      mul\n      0x20\n      add\n      add\n      mload\n        /* \"hopium/etf/main/etf-factory-v1.sol\":1600:1628  Asset memory prev = a[j - 1] */\n      swap1\n      pop\n        /* \"hopium/etf/main/etf-factory-v1.sol\":1722:1725  key */\n      dup3\n        /* \"hopium/etf/main/etf-factory-v1.sol\":1722:1738  key.tokenAddress */\n      0x00\n      add\n      mload\n        /* \"hopium/etf/main/etf-factory-v1.sol\":1702:1738  prev.tokenAddress < key.tokenAddress */\n      0xffffffffffffffffffffffffffffffffffffffff\n      and\n        /* \"hopium/etf/main/etf-factory-v1.sol\":1702:1706  prev */\n      dup2\n        /* \"hopium/etf/main/etf-factory-v1.sol\":1702:1719  prev.tokenAddress */\n      0x00\n      add\n      mload\n        /* \"hopium/etf/main/etf-factory-v1.sol\":1702:1738  prev.tokenAddress < key.tokenAddress */\n      0xffffffffffffffffffffffffffffffffffffffff\n      and\n      lt\n        /* \"hopium/etf/main/etf-factory-v1.sol\":1702:1838  prev.tokenAddress < key.tokenAddress || ... */\n      dup1\n      tag_249\n      jumpi\n      pop\n        /* \"hopium/etf/main/etf-factory-v1.sol\":1784:1787  key */\n      dup3\n        /* \"hopium/etf/main/etf-factory-v1.sol\":1784:1800  key.tokenAddress */\n      0x00\n      add\n      mload\n        /* \"hopium/etf/main/etf-factory-v1.sol\":1763:1800  prev.tokenAddress == key.tokenAddress */\n      0xffffffffffffffffffffffffffffffffffffffff\n      and\n        /* \"hopium/etf/main/etf-factory-v1.sol\":1763:1767  prev */\n      dup2\n        /* \"hopium/etf/main/etf-factory-v1.sol\":1763:1780  prev.tokenAddress */\n      0x00\n      add\n      mload\n        /* \"hopium/etf/main/etf-factory-v1.sol\":1763:1800  prev.tokenAddress == key.tokenAddress */\n      0xffffffffffffffffffffffffffffffffffffffff\n      and\n      eq\n        /* \"hopium/etf/main/etf-factory-v1.sol\":1763:1837  prev.tokenAddress == key.tokenAddress && prev.weightBips <= key.weightBips */\n      dup1\n      iszero\n      tag_250\n      jumpi\n      pop\n        /* \"hopium/etf/main/etf-factory-v1.sol\":1823:1826  key */\n      dup3\n        /* \"hopium/etf/main/etf-factory-v1.sol\":1823:1837  key.weightBips */\n      0x20\n      add\n      mload\n        /* \"hopium/etf/main/etf-factory-v1.sol\":1804:1837  prev.weightBips <= key.weightBips */\n      0xffff\n      and\n        /* \"hopium/etf/main/etf-factory-v1.sol\":1804:1808  prev */\n      dup2\n        /* \"hopium/etf/main/etf-factory-v1.sol\":1804:1819  prev.weightBips */\n      0x20\n      add\n      mload\n        /* \"hopium/etf/main/etf-factory-v1.sol\":1804:1837  prev.weightBips <= key.weightBips */\n      0xffff\n      and\n      gt\n      iszero\n        /* \"hopium/etf/main/etf-factory-v1.sol\":1763:1837  prev.tokenAddress == key.tokenAddress && prev.weightBips <= key.weightBips */\n    tag_250:\n        /* \"hopium/etf/main/etf-factory-v1.sol\":1702:1838  prev.tokenAddress < key.tokenAddress || ... */\n    tag_249:\n        /* \"hopium/etf/main/etf-factory-v1.sol\":1698:1886  if (prev.tokenAddress < key.tokenAddress || ... */\n      iszero\n      tag_251\n      jumpi\n        /* \"hopium/etf/main/etf-factory-v1.sol\":1862:1867  break */\n      pop\n      jump(tag_245)\n        /* \"hopium/etf/main/etf-factory-v1.sol\":1698:1886  if (prev.tokenAddress < key.tokenAddress || ... */\n    tag_251:\n        /* \"hopium/etf/main/etf-factory-v1.sol\":1910:1914  prev */\n      dup1\n        /* \"hopium/etf/main/etf-factory-v1.sol\":1903:1904  a */\n      dup7\n        /* \"hopium/etf/main/etf-factory-v1.sol\":1905:1906  j */\n      dup4\n        /* \"hopium/etf/main/etf-factory-v1.sol\":1903:1907  a[j] */\n      dup2\n      mload\n      dup2\n      lt\n      tag_252\n      jumpi\n      tag_253\n      tag_190\n      jump\t// in\n    tag_253:\n    tag_252:\n      0x20\n      mul\n      0x20\n      add\n      add\n        /* \"hopium/etf/main/etf-factory-v1.sol\":1903:1914  a[j] = prev */\n      dup2\n      swap1\n      mstore\n      pop\n        /* \"hopium/etf/main/etf-factory-v1.sol\":1944:1947  --j */\n      dup2\n      0x01\n      swap1\n      sub\n      swap2\n      pop\n        /* \"hopium/etf/main/etf-factory-v1.sol\":1582:1964  {... */\n      pop\n        /* \"hopium/etf/main/etf-factory-v1.sol\":1568:1964  while (j > 0) {... */\n      jump(tag_244)\n    tag_245:\n        /* \"hopium/etf/main/etf-factory-v1.sol\":1984:1987  key */\n      dup2\n        /* \"hopium/etf/main/etf-factory-v1.sol\":1977:1978  a */\n      dup6\n        /* \"hopium/etf/main/etf-factory-v1.sol\":1979:1980  j */\n      dup3\n        /* \"hopium/etf/main/etf-factory-v1.sol\":1977:1981  a[j] */\n      dup2\n      mload\n      dup2\n      lt\n      tag_254\n      jumpi\n      tag_255\n      tag_190\n      jump\t// in\n    tag_255:\n    tag_254:\n      0x20\n      mul\n      0x20\n      add\n      add\n        /* \"hopium/etf/main/etf-factory-v1.sol\":1977:1987  a[j] = key */\n      dup2\n      swap1\n      mstore\n      pop\n        /* \"hopium/etf/main/etf-factory-v1.sol\":2013:2016  ++i */\n      dup3\n      0x01\n      add\n      swap3\n      pop\n        /* \"hopium/etf/main/etf-factory-v1.sol\":1490:2029  {... */\n      pop\n      pop\n        /* \"hopium/etf/main/etf-factory-v1.sol\":1461:2029  for (uint256 i = 1; i < n; ) {... */\n      jump(tag_239)\n    tag_240:\n      pop\n        /* \"hopium/etf/main/etf-factory-v1.sol\":1421:2035  {... */\n      pop\n        /* \"hopium/etf/main/etf-factory-v1.sol\":1365:2035  function _insertionSort(Asset[] memory a) internal pure {... */\n      pop\n      jump\t// out\n        /* \"hopium/etf/main/etf-factory-v1.sol\":2133:2354  function _computeEtfAssetsHashSorted(Asset[] memory sorted) internal pure returns (bytes32) {... */\n    tag_229:\n        /* \"hopium/etf/main/etf-factory-v1.sol\":2216:2223  bytes32 */\n      0x00\n        /* \"hopium/etf/main/etf-factory-v1.sol\":2339:2345  sorted */\n      dup2\n        /* \"hopium/etf/main/etf-factory-v1.sol\":2328:2346  abi.encode(sorted) */\n      add(0x20, mload(0x40))\n      tag_257\n      swap2\n      swap1\n      tag_258\n      jump\t// in\n    tag_257:\n      mload(0x40)\n      0x20\n      dup2\n      dup4\n      sub\n      sub\n      dup2\n      mstore\n      swap1\n      0x40\n      mstore\n        /* \"hopium/etf/main/etf-factory-v1.sol\":2318:2347  keccak256(abi.encode(sorted)) */\n      dup1\n      mload\n      swap1\n      0x20\n      add\n      keccak256\n        /* \"hopium/etf/main/etf-factory-v1.sol\":2311:2347  return keccak256(abi.encode(sorted)) */\n      swap1\n      pop\n        /* \"hopium/etf/main/etf-factory-v1.sol\":2133:2354  function _computeEtfAssetsHashSorted(Asset[] memory sorted) internal pure returns (bytes32) {... */\n      swap2\n      swap1\n      pop\n      jump\t// out\n    tag_184:\n      mload(0x40)\n      dup1\n      0x40\n      add\n      0x40\n      mstore\n      dup1\n      and(0xffffffffffffffffffffffffffffffffffffffff, 0x00)\n      dup2\n      mstore\n      0x20\n      add\n      and(0xffff, 0x00)\n      dup2\n      mstore\n      pop\n      swap1\n      jump\t// out\n        /* \"#utility.yul\":7:133   */\n    tag_259:\n        /* \"#utility.yul\":44:51   */\n      0x00\n        /* \"#utility.yul\":84:126   */\n      0xffffffffffffffffffffffffffffffffffffffff\n        /* \"#utility.yul\":77:82   */\n      dup3\n        /* \"#utility.yul\":73:127   */\n      and\n        /* \"#utility.yul\":62:127   */\n      swap1\n      pop\n        /* \"#utility.yul\":7:133   */\n      swap2\n      swap1\n      pop\n      jump\t// out\n        /* \"#utility.yul\":139:235   */\n    tag_260:\n        /* \"#utility.yul\":176:183   */\n      0x00\n        /* \"#utility.yul\":205:229   */\n      tag_387\n        /* \"#utility.yul\":223:228   */\n      dup3\n        /* \"#utility.yul\":205:229   */\n      tag_259\n      jump\t// in\n    tag_387:\n        /* \"#utility.yul\":194:229   */\n      swap1\n      pop\n        /* \"#utility.yul\":139:235   */\n      swap2\n      swap1\n      pop\n      jump\t// out\n        /* \"#utility.yul\":241:359   */\n    tag_261:\n        /* \"#utility.yul\":328:352   */\n      tag_389\n        /* \"#utility.yul\":346:351   */\n      dup2\n        /* \"#utility.yul\":328:352   */\n      tag_260\n      jump\t// in\n    tag_389:\n        /* \"#utility.yul\":323:326   */\n      dup3\n        /* \"#utility.yul\":316:353   */\n      mstore\n        /* \"#utility.yul\":241:359   */\n      pop\n      pop\n      jump\t// out\n        /* \"#utility.yul\":365:587   */\n    tag_18:\n        /* \"#utility.yul\":458:462   */\n      0x00\n        /* \"#utility.yul\":496:498   */\n      0x20\n        /* \"#utility.yul\":485:494   */\n      dup3\n        /* \"#utility.yul\":481:499   */\n      add\n        /* \"#utility.yul\":473:499   */\n      swap1\n      pop\n        /* \"#utility.yul\":509:580   */\n      tag_391\n        /* \"#utility.yul\":577:578   */\n      0x00\n        /* \"#utility.yul\":566:575   */\n      dup4\n        /* \"#utility.yul\":562:579   */\n      add\n        /* \"#utility.yul\":553:559   */\n      dup5\n        /* \"#utility.yul\":509:580   */\n      tag_261\n      jump\t// in\n    tag_391:\n        /* \"#utility.yul\":365:587   */\n      swap3\n      swap2\n      pop\n      pop\n      jump\t// out\n        /* \"#utility.yul\":593:668   */\n    tag_262:\n        /* \"#utility.yul\":626:632   */\n      0x00\n        /* \"#utility.yul\":659:661   */\n      0x40\n        /* \"#utility.yul\":653:662   */\n      mload\n        /* \"#utility.yul\":643:662   */\n      swap1\n      pop\n        /* \"#utility.yul\":593:668   */\n      swap1\n      jump\t// out\n        /* \"#utility.yul\":674:791   */\n    tag_263:\n        /* \"#utility.yul\":783:784   */\n      0x00\n        /* \"#utility.yul\":780:781   */\n      0x00\n        /* \"#utility.yul\":773:785   */\n      revert\n        /* \"#utility.yul\":797:914   */\n    tag_264:\n        /* \"#utility.yul\":906:907   */\n      0x00\n        /* \"#utility.yul\":903:904   */\n      0x00\n        /* \"#utility.yul\":896:908   */\n      revert\n        /* \"#utility.yul\":920:997   */\n    tag_265:\n        /* \"#utility.yul\":957:964   */\n      0x00\n        /* \"#utility.yul\":986:991   */\n      dup2\n        /* \"#utility.yul\":975:991   */\n      swap1\n      pop\n        /* \"#utility.yul\":920:997   */\n      swap2\n      swap1\n      pop\n      jump\t// out\n        /* \"#utility.yul\":1003:1125   */\n    tag_266:\n        /* \"#utility.yul\":1076:1100   */\n      tag_397\n        /* \"#utility.yul\":1094:1099   */\n      dup2\n        /* \"#utility.yul\":1076:1100   */\n      tag_265\n      jump\t// in\n    tag_397:\n        /* \"#utility.yul\":1069:1074   */\n      dup2\n        /* \"#utility.yul\":1066:1101   */\n      eq\n        /* \"#utility.yul\":1056:1119   */\n      tag_398\n      jumpi\n        /* \"#utility.yul\":1115:1116   */\n      0x00\n        /* \"#utility.yul\":1112:1113   */\n      0x00\n        /* \"#utility.yul\":1105:1117   */\n      revert\n        /* \"#utility.yul\":1056:1119   */\n    tag_398:\n        /* \"#utility.yul\":1003:1125   */\n      pop\n      jump\t// out\n        /* \"#utility.yul\":1131:1270   */\n    tag_267:\n        /* \"#utility.yul\":1177:1182   */\n      0x00\n        /* \"#utility.yul\":1215:1221   */\n      dup2\n        /* \"#utility.yul\":1202:1222   */\n      calldataload\n        /* \"#utility.yul\":1193:1222   */\n      swap1\n      pop\n        /* \"#utility.yul\":1231:1264   */\n      tag_400\n        /* \"#utility.yul\":1258:1263   */\n      dup2\n        /* \"#utility.yul\":1231:1264   */\n      tag_266\n      jump\t// in\n    tag_400:\n        /* \"#utility.yul\":1131:1270   */\n      swap3\n      swap2\n      pop\n      pop\n      jump\t// out\n        /* \"#utility.yul\":1276:1750   */\n    tag_21:\n        /* \"#utility.yul\":1344:1350   */\n      0x00\n        /* \"#utility.yul\":1352:1358   */\n      0x00\n        /* \"#utility.yul\":1401:1403   */\n      0x40\n        /* \"#utility.yul\":1389:1398   */\n      dup4\n        /* \"#utility.yul\":1380:1387   */\n      dup6\n        /* \"#utility.yul\":1376:1399   */\n      sub\n        /* \"#utility.yul\":1372:1404   */\n      slt\n        /* \"#utility.yul\":1369:1488   */\n      iszero\n      tag_402\n      jumpi\n        /* \"#utility.yul\":1407:1486   */\n      tag_403\n      tag_263\n      jump\t// in\n    tag_403:\n        /* \"#utility.yul\":1369:1488   */\n    tag_402:\n        /* \"#utility.yul\":1527:1528   */\n      0x00\n        /* \"#utility.yul\":1552:1605   */\n      tag_404\n        /* \"#utility.yul\":1597:1604   */\n      dup6\n        /* \"#utility.yul\":1588:1594   */\n      dup3\n        /* \"#utility.yul\":1577:1586   */\n      dup7\n        /* \"#utility.yul\":1573:1595   */\n      add\n        /* \"#utility.yul\":1552:1605   */\n      tag_267\n      jump\t// in\n    tag_404:\n        /* \"#utility.yul\":1542:1605   */\n      swap3\n      pop\n        /* \"#utility.yul\":1498:1615   */\n      pop\n        /* \"#utility.yul\":1654:1656   */\n      0x20\n        /* \"#utility.yul\":1680:1733   */\n      tag_405\n        /* \"#utility.yul\":1725:1732   */\n      dup6\n        /* \"#utility.yul\":1716:1722   */\n      dup3\n        /* \"#utility.yul\":1705:1714   */\n      dup7\n        /* \"#utility.yul\":1701:1723   */\n      add\n        /* \"#utility.yul\":1680:1733   */\n      tag_267\n      jump\t// in\n    tag_405:\n        /* \"#utility.yul\":1670:1733   */\n      swap2\n      pop\n        /* \"#utility.yul\":1625:1743   */\n      pop\n        /* \"#utility.yul\":1276:1750   */\n      swap3\n      pop\n      swap3\n      swap1\n      pop\n      jump\t// out\n        /* \"#utility.yul\":1756:1873   */\n    tag_268:\n        /* \"#utility.yul\":1865:1866   */\n      0x00\n        /* \"#utility.yul\":1862:1863   */\n      0x00\n        /* \"#utility.yul\":1855:1867   */\n      revert\n        /* \"#utility.yul\":1879:1996   */\n    tag_269:\n        /* \"#utility.yul\":1988:1989   */\n      0x00\n        /* \"#utility.yul\":1985:1986   */\n      0x00\n        /* \"#utility.yul\":1978:1990   */\n      revert\n        /* \"#utility.yul\":2002:2104   */\n    tag_270:\n        /* \"#utility.yul\":2043:2049   */\n      0x00\n        /* \"#utility.yul\":2094:2096   */\n      0x1f\n        /* \"#utility.yul\":2090:2097   */\n      not\n        /* \"#utility.yul\":2085:2087   */\n      0x1f\n        /* \"#utility.yul\":2078:2083   */\n      dup4\n        /* \"#utility.yul\":2074:2088   */\n      add\n        /* \"#utility.yul\":2070:2098   */\n      and\n        /* \"#utility.yul\":2060:2098   */\n      swap1\n      pop\n        /* \"#utility.yul\":2002:2104   */\n      swap2\n      swap1\n      pop\n      jump\t// out\n        /* \"#utility.yul\":2110:2290   */\n    tag_180:\n        /* \"#utility.yul\":2158:2235   */\n      0x4e487b7100000000000000000000000000000000000000000000000000000000\n        /* \"#utility.yul\":2155:2156   */\n      0x00\n        /* \"#utility.yul\":2148:2236   */\n      mstore\n        /* \"#utility.yul\":2255:2259   */\n      0x41\n        /* \"#utility.yul\":2252:2253   */\n      0x04\n        /* \"#utility.yul\":2245:2260   */\n      mstore\n        /* \"#utility.yul\":2279:2283   */\n      0x24\n        /* \"#utility.yul\":2276:2277   */\n      0x00\n        /* \"#utility.yul\":2269:2284   */\n      revert\n        /* \"#utility.yul\":2296:2577   */\n    tag_271:\n        /* \"#utility.yul\":2379:2406   */\n      tag_411\n        /* \"#utility.yul\":2401:2405   */\n      dup3\n        /* \"#utility.yul\":2379:2406   */\n      tag_270\n      jump\t// in\n    tag_411:\n        /* \"#utility.yul\":2371:2377   */\n      dup2\n        /* \"#utility.yul\":2367:2407   */\n      add\n        /* \"#utility.yul\":2509:2515   */\n      dup2\n        /* \"#utility.yul\":2497:2507   */\n      dup2\n        /* \"#utility.yul\":2494:2516   */\n      lt\n        /* \"#utility.yul\":2473:2491   */\n      0xffffffffffffffff\n        /* \"#utility.yul\":2461:2471   */\n      dup3\n        /* \"#utility.yul\":2458:2492   */\n      gt\n        /* \"#utility.yul\":2455:2517   */\n      or\n        /* \"#utility.yul\":2452:2540   */\n      iszero\n      tag_412\n      jumpi\n        /* \"#utility.yul\":2520:2538   */\n      tag_413\n      tag_180\n      jump\t// in\n    tag_413:\n        /* \"#utility.yul\":2452:2540   */\n    tag_412:\n        /* \"#utility.yul\":2560:2570   */\n      dup1\n        /* \"#utility.yul\":2556:2558   */\n      0x40\n        /* \"#utility.yul\":2549:2571   */\n      mstore\n        /* \"#utility.yul\":2339:2577   */\n      pop\n        /* \"#utility.yul\":2296:2577   */\n      pop\n      pop\n      jump\t// out\n        /* \"#utility.yul\":2583:2712   */\n    tag_272:\n        /* \"#utility.yul\":2617:2623   */\n      0x00\n        /* \"#utility.yul\":2644:2664   */\n      tag_415\n      tag_262\n      jump\t// in\n    tag_415:\n        /* \"#utility.yul\":2634:2664   */\n      swap1\n      pop\n        /* \"#utility.yul\":2673:2706   */\n      tag_416\n        /* \"#utility.yul\":2701:2705   */\n      dup3\n        /* \"#utility.yul\":2693:2699   */\n      dup3\n        /* \"#utility.yul\":2673:2706   */\n      tag_271\n      jump\t// in\n    tag_416:\n        /* \"#utility.yul\":2583:2712   */\n      swap2\n      swap1\n      pop\n      jump\t// out\n        /* \"#utility.yul\":2718:3026   */\n    tag_273:\n        /* \"#utility.yul\":2780:2784   */\n      0x00\n        /* \"#utility.yul\":2870:2888   */\n      0xffffffffffffffff\n        /* \"#utility.yul\":2862:2868   */\n      dup3\n        /* \"#utility.yul\":2859:2889   */\n      gt\n        /* \"#utility.yul\":2856:2912   */\n      iszero\n      tag_418\n      jumpi\n        /* \"#utility.yul\":2892:2910   */\n      tag_419\n      tag_180\n      jump\t// in\n    tag_419:\n        /* \"#utility.yul\":2856:2912   */\n    tag_418:\n        /* \"#utility.yul\":2930:2959   */\n      tag_420\n        /* \"#utility.yul\":2952:2958   */\n      dup3\n        /* \"#utility.yul\":2930:2959   */\n      tag_270\n      jump\t// in\n    tag_420:\n        /* \"#utility.yul\":2922:2959   */\n      swap1\n      pop\n        /* \"#utility.yul\":3014:3018   */\n      0x20\n        /* \"#utility.yul\":3008:3012   */\n      dup2\n        /* \"#utility.yul\":3004:3019   */\n      add\n        /* \"#utility.yul\":2996:3019   */\n      swap1\n      pop\n        /* \"#utility.yul\":2718:3026   */\n      swap2\n      swap1\n      pop\n      jump\t// out\n        /* \"#utility.yul\":3032:3180   */\n    tag_274:\n        /* \"#utility.yul\":3130:3136   */\n      dup3\n        /* \"#utility.yul\":3125:3128   */\n      dup2\n        /* \"#utility.yul\":3120:3123   */\n      dup4\n        /* \"#utility.yul\":3107:3137   */\n      calldatacopy\n        /* \"#utility.yul\":3171:3172   */\n      0x00\n        /* \"#utility.yul\":3162:3168   */\n      dup4\n        /* \"#utility.yul\":3157:3160   */\n      dup4\n        /* \"#utility.yul\":3153:3169   */\n      add\n        /* \"#utility.yul\":3146:3173   */\n      mstore\n        /* \"#utility.yul\":3032:3180   */\n      pop\n      pop\n      pop\n      jump\t// out\n        /* \"#utility.yul\":3186:3611   */\n    tag_275:\n        /* \"#utility.yul\":3264:3269   */\n      0x00\n        /* \"#utility.yul\":3289:3355   */\n      tag_423\n        /* \"#utility.yul\":3305:3354   */\n      tag_424\n        /* \"#utility.yul\":3347:3353   */\n      dup5\n        /* \"#utility.yul\":3305:3354   */\n      tag_273\n      jump\t// in\n    tag_424:\n        /* \"#utility.yul\":3289:3355   */\n      tag_272\n      jump\t// in\n    tag_423:\n        /* \"#utility.yul\":3280:3355   */\n      swap1\n      pop\n        /* \"#utility.yul\":3378:3384   */\n      dup3\n        /* \"#utility.yul\":3371:3376   */\n      dup2\n        /* \"#utility.yul\":3364:3385   */\n      mstore\n        /* \"#utility.yul\":3416:3420   */\n      0x20\n        /* \"#utility.yul\":3409:3414   */\n      dup2\n        /* \"#utility.yul\":3405:3421   */\n      add\n        /* \"#utility.yul\":3454:3457   */\n      dup5\n        /* \"#utility.yul\":3445:3451   */\n      dup5\n        /* \"#utility.yul\":3440:3443   */\n      dup5\n        /* \"#utility.yul\":3436:3452   */\n      add\n        /* \"#utility.yul\":3433:3458   */\n      gt\n        /* \"#utility.yul\":3430:3542   */\n      iszero\n      tag_425\n      jumpi\n        /* \"#utility.yul\":3461:3540   */\n      tag_426\n      tag_269\n      jump\t// in\n    tag_426:\n        /* \"#utility.yul\":3430:3542   */\n    tag_425:\n        /* \"#utility.yul\":3551:3605   */\n      tag_427\n        /* \"#utility.yul\":3598:3604   */\n      dup5\n        /* \"#utility.yul\":3593:3596   */\n      dup3\n        /* \"#utility.yul\":3588:3591   */\n      dup6\n        /* \"#utility.yul\":3551:3605   */\n      tag_274\n      jump\t// in\n    tag_427:\n        /* \"#utility.yul\":3270:3611   */\n      pop\n        /* \"#utility.yul\":3186:3611   */\n      swap4\n      swap3\n      pop\n      pop\n      pop\n      jump\t// out\n        /* \"#utility.yul\":3631:3971   */\n    tag_276:\n        /* \"#utility.yul\":3687:3692   */\n      0x00\n        /* \"#utility.yul\":3736:3739   */\n      dup3\n        /* \"#utility.yul\":3729:3733   */\n      0x1f\n        /* \"#utility.yul\":3721:3727   */\n      dup4\n        /* \"#utility.yul\":3717:3734   */\n      add\n        /* \"#utility.yul\":3713:3740   */\n      slt\n        /* \"#utility.yul\":3703:3825   */\n      tag_429\n      jumpi\n        /* \"#utility.yul\":3744:3823   */\n      tag_430\n      tag_268\n      jump\t// in\n    tag_430:\n        /* \"#utility.yul\":3703:3825   */\n    tag_429:\n        /* \"#utility.yul\":3861:3867   */\n      dup2\n        /* \"#utility.yul\":3848:3868   */\n      calldataload\n        /* \"#utility.yul\":3886:3965   */\n      tag_431\n        /* \"#utility.yul\":3961:3964   */\n      dup5\n        /* \"#utility.yul\":3953:3959   */\n      dup3\n        /* \"#utility.yul\":3946:3950   */\n      0x20\n        /* \"#utility.yul\":3938:3944   */\n      dup7\n        /* \"#utility.yul\":3934:3951   */\n      add\n        /* \"#utility.yul\":3886:3965   */\n      tag_275\n      jump\t// in\n    tag_431:\n        /* \"#utility.yul\":3877:3965   */\n      swap2\n      pop\n        /* \"#utility.yul\":3693:3971   */\n      pop\n        /* \"#utility.yul\":3631:3971   */\n      swap3\n      swap2\n      pop\n      pop\n      jump\t// out\n        /* \"#utility.yul\":3977:4486   */\n    tag_25:\n        /* \"#utility.yul\":4046:4052   */\n      0x00\n        /* \"#utility.yul\":4095:4097   */\n      0x20\n        /* \"#utility.yul\":4083:4092   */\n      dup3\n        /* \"#utility.yul\":4074:4081   */\n      dup5\n        /* \"#utility.yul\":4070:4093   */\n      sub\n        /* \"#utility.yul\":4066:4098   */\n      slt\n        /* \"#utility.yul\":4063:4182   */\n      iszero\n      tag_433\n      jumpi\n        /* \"#utility.yul\":4101:4180   */\n      tag_434\n      tag_263\n      jump\t// in\n    tag_434:\n        /* \"#utility.yul\":4063:4182   */\n    tag_433:\n        /* \"#utility.yul\":4249:4250   */\n      0x00\n        /* \"#utility.yul\":4238:4247   */\n      dup3\n        /* \"#utility.yul\":4234:4251   */\n      add\n        /* \"#utility.yul\":4221:4252   */\n      calldataload\n        /* \"#utility.yul\":4279:4297   */\n      0xffffffffffffffff\n        /* \"#utility.yul\":4271:4277   */\n      dup2\n        /* \"#utility.yul\":4268:4298   */\n      gt\n        /* \"#utility.yul\":4265:4382   */\n      iszero\n      tag_435\n      jumpi\n        /* \"#utility.yul\":4301:4380   */\n      tag_436\n      tag_264\n      jump\t// in\n    tag_436:\n        /* \"#utility.yul\":4265:4382   */\n    tag_435:\n        /* \"#utility.yul\":4406:4469   */\n      tag_437\n        /* \"#utility.yul\":4461:4468   */\n      dup5\n        /* \"#utility.yul\":4452:4458   */\n      dup3\n        /* \"#utility.yul\":4441:4450   */\n      dup6\n        /* \"#utility.yul\":4437:4459   */\n      add\n        /* \"#utility.yul\":4406:4469   */\n      tag_276\n      jump\t// in\n    tag_437:\n        /* \"#utility.yul\":4396:4469   */\n      swap2\n      pop\n        /* \"#utility.yul\":4192:4479   */\n      pop\n        /* \"#utility.yul\":3977:4486   */\n      swap3\n      swap2\n      pop\n      pop\n      jump\t// out\n        /* \"#utility.yul\":4492:4821   */\n    tag_30:\n        /* \"#utility.yul\":4551:4557   */\n      0x00\n        /* \"#utility.yul\":4600:4602   */\n      0x20\n        /* \"#utility.yul\":4588:4597   */\n      dup3\n        /* \"#utility.yul\":4579:4586   */\n      dup5\n        /* \"#utility.yul\":4575:4598   */\n      sub\n        /* \"#utility.yul\":4571:4603   */\n      slt\n        /* \"#utility.yul\":4568:4687   */\n      iszero\n      tag_439\n      jumpi\n        /* \"#utility.yul\":4606:4685   */\n      tag_440\n      tag_263\n      jump\t// in\n    tag_440:\n        /* \"#utility.yul\":4568:4687   */\n    tag_439:\n        /* \"#utility.yul\":4726:4727   */\n      0x00\n        /* \"#utility.yul\":4751:4804   */\n      tag_441\n        /* \"#utility.yul\":4796:4803   */\n      dup5\n        /* \"#utility.yul\":4787:4793   */\n      dup3\n        /* \"#utility.yul\":4776:4785   */\n      dup6\n        /* \"#utility.yul\":4772:4794   */\n      add\n        /* \"#utility.yul\":4751:4804   */\n      tag_267\n      jump\t// in\n    tag_441:\n        /* \"#utility.yul\":4741:4804   */\n      swap2\n      pop\n        /* \"#utility.yul\":4697:4814   */\n      pop\n        /* \"#utility.yul\":4492:4821   */\n      swap3\n      swap2\n      pop\n      pop\n      jump\t// out\n        /* \"#utility.yul\":4827:4945   */\n    tag_277:\n        /* \"#utility.yul\":4914:4938   */\n      tag_443\n        /* \"#utility.yul\":4932:4937   */\n      dup2\n        /* \"#utility.yul\":4914:4938   */\n      tag_265\n      jump\t// in\n    tag_443:\n        /* \"#utility.yul\":4909:4912   */\n      dup3\n        /* \"#utility.yul\":4902:4939   */\n      mstore\n        /* \"#utility.yul\":4827:4945   */\n      pop\n      pop\n      jump\t// out\n        /* \"#utility.yul\":4951:5173   */\n    tag_37:\n        /* \"#utility.yul\":5044:5048   */\n      0x00\n        /* \"#utility.yul\":5082:5084   */\n      0x20\n        /* \"#utility.yul\":5071:5080   */\n      dup3\n        /* \"#utility.yul\":5067:5085   */\n      add\n        /* \"#utility.yul\":5059:5085   */\n      swap1\n      pop\n        /* \"#utility.yul\":5095:5166   */\n      tag_445\n        /* \"#utility.yul\":5163:5164   */\n      0x00\n        /* \"#utility.yul\":5152:5161   */\n      dup4\n        /* \"#utility.yul\":5148:5165   */\n      add\n        /* \"#utility.yul\":5139:5145   */\n      dup5\n        /* \"#utility.yul\":5095:5166   */\n      tag_277\n      jump\t// in\n    tag_445:\n        /* \"#utility.yul\":4951:5173   */\n      swap3\n      swap2\n      pop\n      pop\n      jump\t// out\n        /* \"#utility.yul\":5179:5239   */\n    tag_278:\n        /* \"#utility.yul\":5207:5210   */\n      0x00\n        /* \"#utility.yul\":5228:5233   */\n      dup2\n        /* \"#utility.yul\":5221:5233   */\n      swap1\n      pop\n        /* \"#utility.yul\":5179:5239   */\n      swap2\n      swap1\n      pop\n      jump\t// out\n        /* \"#utility.yul\":5245:5387   */\n    tag_279:\n        /* \"#utility.yul\":5295:5304   */\n      0x00\n        /* \"#utility.yul\":5328:5381   */\n      tag_448\n        /* \"#utility.yul\":5346:5380   */\n      tag_449\n        /* \"#utility.yul\":5355:5379   */\n      tag_450\n        /* \"#utility.yul\":5373:5378   */\n      dup5\n        /* \"#utility.yul\":5355:5379   */\n      tag_259\n      jump\t// in\n    tag_450:\n        /* \"#utility.yul\":5346:5380   */\n      tag_278\n      jump\t// in\n    tag_449:\n        /* \"#utility.yul\":5328:5381   */\n      tag_259\n      jump\t// in\n    tag_448:\n        /* \"#utility.yul\":5315:5381   */\n      swap1\n      pop\n        /* \"#utility.yul\":5245:5387   */\n      swap2\n      swap1\n      pop\n      jump\t// out\n        /* \"#utility.yul\":5393:5519   */\n    tag_280:\n        /* \"#utility.yul\":5443:5452   */\n      0x00\n        /* \"#utility.yul\":5476:5513   */\n      tag_452\n        /* \"#utility.yul\":5507:5512   */\n      dup3\n        /* \"#utility.yul\":5476:5513   */\n      tag_279\n      jump\t// in\n    tag_452:\n        /* \"#utility.yul\":5463:5513   */\n      swap1\n      pop\n        /* \"#utility.yul\":5393:5519   */\n      swap2\n      swap1\n      pop\n      jump\t// out\n        /* \"#utility.yul\":5525:5668   */\n    tag_281:\n        /* \"#utility.yul\":5592:5601   */\n      0x00\n        /* \"#utility.yul\":5625:5662   */\n      tag_454\n        /* \"#utility.yul\":5656:5661   */\n      dup3\n        /* \"#utility.yul\":5625:5662   */\n      tag_280\n      jump\t// in\n    tag_454:\n        /* \"#utility.yul\":5612:5662   */\n      swap1\n      pop\n        /* \"#utility.yul\":5525:5668   */\n      swap2\n      swap1\n      pop\n      jump\t// out\n        /* \"#utility.yul\":5674:5839   */\n    tag_282:\n        /* \"#utility.yul\":5778:5832   */\n      tag_456\n        /* \"#utility.yul\":5826:5831   */\n      dup2\n        /* \"#utility.yul\":5778:5832   */\n      tag_281\n      jump\t// in\n    tag_456:\n        /* \"#utility.yul\":5773:5776   */\n      dup3\n        /* \"#utility.yul\":5766:5833   */\n      mstore\n        /* \"#utility.yul\":5674:5839   */\n      pop\n      pop\n      jump\t// out\n        /* \"#utility.yul\":5845:6101   */\n    tag_41:\n        /* \"#utility.yul\":5955:5959   */\n      0x00\n        /* \"#utility.yul\":5993:5995   */\n      0x20\n        /* \"#utility.yul\":5982:5991   */\n      dup3\n        /* \"#utility.yul\":5978:5996   */\n      add\n        /* \"#utility.yul\":5970:5996   */\n      swap1\n      pop\n        /* \"#utility.yul\":6006:6094   */\n      tag_458\n        /* \"#utility.yul\":6091:6092   */\n      0x00\n        /* \"#utility.yul\":6080:6089   */\n      dup4\n        /* \"#utility.yul\":6076:6093   */\n      add\n        /* \"#utility.yul\":6067:6073   */\n      dup5\n        /* \"#utility.yul\":6006:6094   */\n      tag_282\n      jump\t// in\n    tag_458:\n        /* \"#utility.yul\":5845:6101   */\n      swap3\n      swap2\n      pop\n      pop\n      jump\t// out\n        /* \"#utility.yul\":6107:6229   */\n    tag_283:\n        /* \"#utility.yul\":6180:6204   */\n      tag_460\n        /* \"#utility.yul\":6198:6203   */\n      dup2\n        /* \"#utility.yul\":6180:6204   */\n      tag_260\n      jump\t// in\n    tag_460:\n        /* \"#utility.yul\":6173:6178   */\n      dup2\n        /* \"#utility.yul\":6170:6205   */\n      eq\n        /* \"#utility.yul\":6160:6223   */\n      tag_461\n      jumpi\n        /* \"#utility.yul\":6219:6220   */\n      0x00\n        /* \"#utility.yul\":6216:6217   */\n      0x00\n        /* \"#utility.yul\":6209:6221   */\n      revert\n        /* \"#utility.yul\":6160:6223   */\n    tag_461:\n        /* \"#utility.yul\":6107:6229   */\n      pop\n      jump\t// out\n        /* \"#utility.yul\":6235:6374   */\n    tag_284:\n        /* \"#utility.yul\":6281:6286   */\n      0x00\n        /* \"#utility.yul\":6319:6325   */\n      dup2\n        /* \"#utility.yul\":6306:6326   */\n      calldataload\n        /* \"#utility.yul\":6297:6326   */\n      swap1\n      pop\n        /* \"#utility.yul\":6335:6368   */\n      tag_463\n        /* \"#utility.yul\":6362:6367   */\n      dup2\n        /* \"#utility.yul\":6335:6368   */\n      tag_283\n      jump\t// in\n    tag_463:\n        /* \"#utility.yul\":6235:6374   */\n      swap3\n      swap2\n      pop\n      pop\n      jump\t// out\n        /* \"#utility.yul\":6380:6709   */\n    tag_51:\n        /* \"#utility.yul\":6439:6445   */\n      0x00\n        /* \"#utility.yul\":6488:6490   */\n      0x20\n        /* \"#utility.yul\":6476:6485   */\n      dup3\n        /* \"#utility.yul\":6467:6474   */\n      dup5\n        /* \"#utility.yul\":6463:6486   */\n      sub\n        /* \"#utility.yul\":6459:6491   */\n      slt\n        /* \"#utility.yul\":6456:6575   */\n      iszero\n      tag_465\n      jumpi\n        /* \"#utility.yul\":6494:6573   */\n      tag_466\n      tag_263\n      jump\t// in\n    tag_466:\n        /* \"#utility.yul\":6456:6575   */\n    tag_465:\n        /* \"#utility.yul\":6614:6615   */\n      0x00\n        /* \"#utility.yul\":6639:6692   */\n      tag_467\n        /* \"#utility.yul\":6684:6691   */\n      dup5\n        /* \"#utility.yul\":6675:6681   */\n      dup3\n        /* \"#utility.yul\":6664:6673   */\n      dup6\n        /* \"#utility.yul\":6660:6682   */\n      add\n        /* \"#utility.yul\":6639:6692   */\n      tag_284\n      jump\t// in\n    tag_467:\n        /* \"#utility.yul\":6629:6692   */\n      swap2\n      pop\n        /* \"#utility.yul\":6585:6702   */\n      pop\n        /* \"#utility.yul\":6380:6709   */\n      swap3\n      swap2\n      pop\n      pop\n      jump\t// out\n        /* \"#utility.yul\":6715:6832   */\n    tag_285:\n        /* \"#utility.yul\":6824:6825   */\n      0x00\n        /* \"#utility.yul\":6821:6822   */\n      0x00\n        /* \"#utility.yul\":6814:6826   */\n      revert\n        /* \"#utility.yul\":6856:7082   */\n    tag_286:\n        /* \"#utility.yul\":6924:6929   */\n      0x00\n        /* \"#utility.yul\":6965:6967   */\n      0x60\n        /* \"#utility.yul\":6956:6962   */\n      dup3\n        /* \"#utility.yul\":6951:6954   */\n      dup5\n        /* \"#utility.yul\":6947:6963   */\n      sub\n        /* \"#utility.yul\":6943:6968   */\n      slt\n        /* \"#utility.yul\":6940:7052   */\n      iszero\n      tag_470\n      jumpi\n        /* \"#utility.yul\":6971:7050   */\n      tag_471\n      tag_285\n      jump\t// in\n    tag_471:\n        /* \"#utility.yul\":6940:7052   */\n    tag_470:\n        /* \"#utility.yul\":7070:7076   */\n      dup2\n        /* \"#utility.yul\":7061:7076   */\n      swap1\n      pop\n        /* \"#utility.yul\":6856:7082   */\n      swap3\n      swap2\n      pop\n      pop\n      jump\t// out\n        /* \"#utility.yul\":7088:7621   */\n    tag_59:\n        /* \"#utility.yul\":7169:7175   */\n      0x00\n        /* \"#utility.yul\":7218:7220   */\n      0x20\n        /* \"#utility.yul\":7206:7215   */\n      dup3\n        /* \"#utility.yul\":7197:7204   */\n      dup5\n        /* \"#utility.yul\":7193:7216   */\n      sub\n        /* \"#utility.yul\":7189:7221   */\n      slt\n        /* \"#utility.yul\":7186:7305   */\n      iszero\n      tag_473\n      jumpi\n        /* \"#utility.yul\":7224:7303   */\n      tag_474\n      tag_263\n      jump\t// in\n    tag_474:\n        /* \"#utility.yul\":7186:7305   */\n    tag_473:\n        /* \"#utility.yul\":7372:7373   */\n      0x00\n        /* \"#utility.yul\":7361:7370   */\n      dup3\n        /* \"#utility.yul\":7357:7374   */\n      add\n        /* \"#utility.yul\":7344:7375   */\n      calldataload\n        /* \"#utility.yul\":7402:7420   */\n      0xffffffffffffffff\n        /* \"#utility.yul\":7394:7400   */\n      dup2\n        /* \"#utility.yul\":7391:7421   */\n      gt\n        /* \"#utility.yul\":7388:7505   */\n      iszero\n      tag_475\n      jumpi\n        /* \"#utility.yul\":7424:7503   */\n      tag_476\n      tag_264\n      jump\t// in\n    tag_476:\n        /* \"#utility.yul\":7388:7505   */\n    tag_475:\n        /* \"#utility.yul\":7529:7604   */\n      tag_477\n        /* \"#utility.yul\":7596:7603   */\n      dup5\n        /* \"#utility.yul\":7587:7593   */\n      dup3\n        /* \"#utility.yul\":7576:7585   */\n      dup6\n        /* \"#utility.yul\":7572:7594   */\n      add\n        /* \"#utility.yul\":7529:7604   */\n      tag_286\n      jump\t// in\n    tag_477:\n        /* \"#utility.yul\":7519:7604   */\n      swap2\n      pop\n        /* \"#utility.yul\":7315:7614   */\n      pop\n        /* \"#utility.yul\":7088:7621   */\n      swap3\n      swap2\n      pop\n      pop\n      jump\t// out\n        /* \"#utility.yul\":7627:7796   */\n    tag_287:\n        /* \"#utility.yul\":7711:7722   */\n      0x00\n        /* \"#utility.yul\":7745:7751   */\n      dup3\n        /* \"#utility.yul\":7740:7743   */\n      dup3\n        /* \"#utility.yul\":7733:7752   */\n      mstore\n        /* \"#utility.yul\":7785:7789   */\n      0x20\n        /* \"#utility.yul\":7780:7783   */\n      dup3\n        /* \"#utility.yul\":7776:7790   */\n      add\n        /* \"#utility.yul\":7761:7790   */\n      swap1\n      pop\n        /* \"#utility.yul\":7627:7796   */\n      swap3\n      swap2\n      pop\n      pop\n      jump\t// out\n        /* \"#utility.yul\":7802:7980   */\n    tag_288:\n        /* \"#utility.yul\":7942:7972   */\n      0x6d73672e73656e646572206973206e6f742065746620726f7574657200000000\n        /* \"#utility.yul\":7938:7939   */\n      0x00\n        /* \"#utility.yul\":7930:7936   */\n      dup3\n        /* \"#utility.yul\":7926:7940   */\n      add\n        /* \"#utility.yul\":7919:7973   */\n      mstore\n        /* \"#utility.yul\":7802:7980   */\n      pop\n      jump\t// out\n        /* \"#utility.yul\":7986:8352   */\n    tag_289:\n        /* \"#utility.yul\":8128:8131   */\n      0x00\n        /* \"#utility.yul\":8149:8216   */\n      tag_481\n        /* \"#utility.yul\":8213:8215   */\n      0x1c\n        /* \"#utility.yul\":8208:8211   */\n      dup4\n        /* \"#utility.yul\":8149:8216   */\n      tag_287\n      jump\t// in\n    tag_481:\n        /* \"#utility.yul\":8142:8216   */\n      swap2\n      pop\n        /* \"#utility.yul\":8225:8318   */\n      tag_482\n        /* \"#utility.yul\":8314:8317   */\n      dup3\n        /* \"#utility.yul\":8225:8318   */\n      tag_288\n      jump\t// in\n    tag_482:\n        /* \"#utility.yul\":8343:8345   */\n      0x20\n        /* \"#utility.yul\":8338:8341   */\n      dup3\n        /* \"#utility.yul\":8334:8346   */\n      add\n        /* \"#utility.yul\":8327:8346   */\n      swap1\n      pop\n        /* \"#utility.yul\":7986:8352   */\n      swap2\n      swap1\n      pop\n      jump\t// out\n        /* \"#utility.yul\":8358:8777   */\n    tag_66:\n        /* \"#utility.yul\":8524:8528   */\n      0x00\n        /* \"#utility.yul\":8562:8564   */\n      0x20\n        /* \"#utility.yul\":8551:8560   */\n      dup3\n        /* \"#utility.yul\":8547:8565   */\n      add\n        /* \"#utility.yul\":8539:8565   */\n      swap1\n      pop\n        /* \"#utility.yul\":8611:8620   */\n      dup2\n        /* \"#utility.yul\":8605:8609   */\n      dup2\n        /* \"#utility.yul\":8601:8621   */\n      sub\n        /* \"#utility.yul\":8597:8598   */\n      0x00\n        /* \"#utility.yul\":8586:8595   */\n      dup4\n        /* \"#utility.yul\":8582:8599   */\n      add\n        /* \"#utility.yul\":8575:8622   */\n      mstore\n        /* \"#utility.yul\":8639:8770   */\n      tag_484\n        /* \"#utility.yul\":8765:8769   */\n      dup2\n        /* \"#utility.yul\":8639:8770   */\n      tag_289\n      jump\t// in\n    tag_484:\n        /* \"#utility.yul\":8631:8770   */\n      swap1\n      pop\n        /* \"#utility.yul\":8358:8777   */\n      swap2\n      swap1\n      pop\n      jump\t// out\n        /* \"#utility.yul\":8783:8926   */\n    tag_290:\n        /* \"#utility.yul\":8840:8845   */\n      0x00\n        /* \"#utility.yul\":8871:8877   */\n      dup2\n        /* \"#utility.yul\":8865:8878   */\n      mload\n        /* \"#utility.yul\":8856:8878   */\n      swap1\n      pop\n        /* \"#utility.yul\":8887:8920   */\n      tag_486\n        /* \"#utility.yul\":8914:8919   */\n      dup2\n        /* \"#utility.yul\":8887:8920   */\n      tag_266\n      jump\t// in\n    tag_486:\n        /* \"#utility.yul\":8783:8926   */\n      swap3\n      swap2\n      pop\n      pop\n      jump\t// out\n        /* \"#utility.yul\":8932:9283   */\n    tag_74:\n        /* \"#utility.yul\":9002:9008   */\n      0x00\n        /* \"#utility.yul\":9051:9053   */\n      0x20\n        /* \"#utility.yul\":9039:9048   */\n      dup3\n        /* \"#utility.yul\":9030:9037   */\n      dup5\n        /* \"#utility.yul\":9026:9049   */\n      sub\n        /* \"#utility.yul\":9022:9054   */\n      slt\n        /* \"#utility.yul\":9019:9138   */\n      iszero\n      tag_488\n      jumpi\n        /* \"#utility.yul\":9057:9136   */\n      tag_489\n      tag_263\n      jump\t// in\n    tag_489:\n        /* \"#utility.yul\":9019:9138   */\n    tag_488:\n        /* \"#utility.yul\":9177:9178   */\n      0x00\n        /* \"#utility.yul\":9202:9266   */\n      tag_490\n        /* \"#utility.yul\":9258:9265   */\n      dup5\n        /* \"#utility.yul\":9249:9255   */\n      dup3\n        /* \"#utility.yul\":9238:9247   */\n      dup6\n        /* \"#utility.yul\":9234:9256   */\n      add\n        /* \"#utility.yul\":9202:9266   */\n      tag_290\n      jump\t// in\n    tag_490:\n        /* \"#utility.yul\":9192:9266   */\n      swap2\n      pop\n        /* \"#utility.yul\":9148:9276   */\n      pop\n        /* \"#utility.yul\":8932:9283   */\n      swap3\n      swap2\n      pop\n      pop\n      jump\t// out\n        /* \"#utility.yul\":9289:9469   */\n    tag_291:\n        /* \"#utility.yul\":9337:9414   */\n      0x4e487b7100000000000000000000000000000000000000000000000000000000\n        /* \"#utility.yul\":9334:9335   */\n      0x00\n        /* \"#utility.yul\":9327:9415   */\n      mstore\n        /* \"#utility.yul\":9434:9438   */\n      0x11\n        /* \"#utility.yul\":9431:9432   */\n      0x04\n        /* \"#utility.yul\":9424:9439   */\n      mstore\n        /* \"#utility.yul\":9458:9462   */\n      0x24\n        /* \"#utility.yul\":9455:9456   */\n      0x00\n        /* \"#utility.yul\":9448:9463   */\n      revert\n        /* \"#utility.yul\":9475:9885   */\n    tag_77:\n        /* \"#utility.yul\":9515:9522   */\n      0x00\n        /* \"#utility.yul\":9538:9558   */\n      tag_493\n        /* \"#utility.yul\":9556:9557   */\n      dup3\n        /* \"#utility.yul\":9538:9558   */\n      tag_265\n      jump\t// in\n    tag_493:\n        /* \"#utility.yul\":9533:9558   */\n      swap2\n      pop\n        /* \"#utility.yul\":9572:9592   */\n      tag_494\n        /* \"#utility.yul\":9590:9591   */\n      dup4\n        /* \"#utility.yul\":9572:9592   */\n      tag_265\n      jump\t// in\n    tag_494:\n        /* \"#utility.yul\":9567:9592   */\n      swap3\n      pop\n        /* \"#utility.yul\":9627:9628   */\n      dup3\n        /* \"#utility.yul\":9624:9625   */\n      dup3\n        /* \"#utility.yul\":9620:9629   */\n      mul\n        /* \"#utility.yul\":9649:9679   */\n      tag_495\n        /* \"#utility.yul\":9667:9678   */\n      dup2\n        /* \"#utility.yul\":9649:9679   */\n      tag_265\n      jump\t// in\n    tag_495:\n        /* \"#utility.yul\":9638:9679   */\n      swap2\n      pop\n        /* \"#utility.yul\":9828:9829   */\n      dup3\n        /* \"#utility.yul\":9819:9826   */\n      dup3\n        /* \"#utility.yul\":9815:9830   */\n      div\n        /* \"#utility.yul\":9812:9813   */\n      dup5\n        /* \"#utility.yul\":9809:9831   */\n      eq\n        /* \"#utility.yul\":9789:9790   */\n      dup4\n        /* \"#utility.yul\":9782:9791   */\n      iszero\n        /* \"#utility.yul\":9762:9845   */\n      or\n        /* \"#utility.yul\":9739:9878   */\n      tag_496\n      jumpi\n        /* \"#utility.yul\":9858:9876   */\n      tag_497\n      tag_291\n      jump\t// in\n    tag_497:\n        /* \"#utility.yul\":9739:9878   */\n    tag_496:\n        /* \"#utility.yul\":9523:9885   */\n      pop\n        /* \"#utility.yul\":9475:9885   */\n      swap3\n      swap2\n      pop\n      pop\n      jump\t// out\n        /* \"#utility.yul\":9891:10071   */\n    tag_292:\n        /* \"#utility.yul\":9939:10016   */\n      0x4e487b7100000000000000000000000000000000000000000000000000000000\n        /* \"#utility.yul\":9936:9937   */\n      0x00\n        /* \"#utility.yul\":9929:10017   */\n      mstore\n        /* \"#utility.yul\":10036:10040   */\n      0x12\n        /* \"#utility.yul\":10033:10034   */\n      0x04\n        /* \"#utility.yul\":10026:10041   */\n      mstore\n        /* \"#utility.yul\":10060:10064   */\n      0x24\n        /* \"#utility.yul\":10057:10058   */\n      0x00\n        /* \"#utility.yul\":10050:10065   */\n      revert\n        /* \"#utility.yul\":10077:10262   */\n    tag_79:\n        /* \"#utility.yul\":10117:10118   */\n      0x00\n        /* \"#utility.yul\":10134:10154   */\n      tag_500\n        /* \"#utility.yul\":10152:10153   */\n      dup3\n        /* \"#utility.yul\":10134:10154   */\n      tag_265\n      jump\t// in\n    tag_500:\n        /* \"#utility.yul\":10129:10154   */\n      swap2\n      pop\n        /* \"#utility.yul\":10168:10188   */\n      tag_501\n        /* \"#utility.yul\":10186:10187   */\n      dup4\n        /* \"#utility.yul\":10168:10188   */\n      tag_265\n      jump\t// in\n    tag_501:\n        /* \"#utility.yul\":10163:10188   */\n      swap3\n      pop\n        /* \"#utility.yul\":10207:10208   */\n      dup3\n        /* \"#utility.yul\":10197:10232   */\n      tag_502\n      jumpi\n        /* \"#utility.yul\":10212:10230   */\n      tag_503\n      tag_292\n      jump\t// in\n    tag_503:\n        /* \"#utility.yul\":10197:10232   */\n    tag_502:\n        /* \"#utility.yul\":10254:10255   */\n      dup3\n        /* \"#utility.yul\":10251:10252   */\n      dup3\n        /* \"#utility.yul\":10247:10256   */\n      div\n        /* \"#utility.yul\":10242:10256   */\n      swap1\n      pop\n        /* \"#utility.yul\":10077:10262   */\n      swap3\n      swap2\n      pop\n      pop\n      jump\t// out\n        /* \"#utility.yul\":10268:10459   */\n    tag_81:\n        /* \"#utility.yul\":10308:10311   */\n      0x00\n        /* \"#utility.yul\":10327:10347   */\n      tag_505\n        /* \"#utility.yul\":10345:10346   */\n      dup3\n        /* \"#utility.yul\":10327:10347   */\n      tag_265\n      jump\t// in\n    tag_505:\n        /* \"#utility.yul\":10322:10347   */\n      swap2\n      pop\n        /* \"#utility.yul\":10361:10381   */\n      tag_506\n        /* \"#utility.yul\":10379:10380   */\n      dup4\n        /* \"#utility.yul\":10361:10381   */\n      tag_265\n      jump\t// in\n    tag_506:\n        /* \"#utility.yul\":10356:10381   */\n      swap3\n      pop\n        /* \"#utility.yul\":10404:10405   */\n      dup3\n        /* \"#utility.yul\":10401:10402   */\n      dup3\n        /* \"#utility.yul\":10397:10406   */\n      add\n        /* \"#utility.yul\":10390:10406   */\n      swap1\n      pop\n        /* \"#utility.yul\":10425:10428   */\n      dup1\n        /* \"#utility.yul\":10422:10423   */\n      dup3\n        /* \"#utility.yul\":10419:10429   */\n      gt\n        /* \"#utility.yul\":10416:10452   */\n      iszero\n      tag_507\n      jumpi\n        /* \"#utility.yul\":10432:10450   */\n      tag_508\n      tag_291\n      jump\t// in\n    tag_508:\n        /* \"#utility.yul\":10416:10452   */\n    tag_507:\n        /* \"#utility.yul\":10268:10459   */\n      swap3\n      swap2\n      pop\n      pop\n      jump\t// out\n        /* \"#utility.yul\":10465:10564   */\n    tag_293:\n        /* \"#utility.yul\":10517:10523   */\n      0x00\n        /* \"#utility.yul\":10551:10556   */\n      dup2\n        /* \"#utility.yul\":10545:10557   */\n      mload\n        /* \"#utility.yul\":10535:10557   */\n      swap1\n      pop\n        /* \"#utility.yul\":10465:10564   */\n      swap2\n      swap1\n      pop\n      jump\t// out\n        /* \"#utility.yul\":10570:10709   */\n    tag_294:\n        /* \"#utility.yul\":10659:10665   */\n      dup3\n        /* \"#utility.yul\":10654:10657   */\n      dup2\n        /* \"#utility.yul\":10649:10652   */\n      dup4\n        /* \"#utility.yul\":10643:10666   */\n      mcopy\n        /* \"#utility.yul\":10700:10701   */\n      0x00\n        /* \"#utility.yul\":10691:10697   */\n      dup4\n        /* \"#utility.yul\":10686:10689   */\n      dup4\n        /* \"#utility.yul\":10682:10698   */\n      add\n        /* \"#utility.yul\":10675:10702   */\n      mstore\n        /* \"#utility.yul\":10570:10709   */\n      pop\n      pop\n      pop\n      jump\t// out\n        /* \"#utility.yul\":10715:11092   */\n    tag_295:\n        /* \"#utility.yul\":10803:10806   */\n      0x00\n        /* \"#utility.yul\":10831:10870   */\n      tag_512\n        /* \"#utility.yul\":10864:10869   */\n      dup3\n        /* \"#utility.yul\":10831:10870   */\n      tag_293\n      jump\t// in\n    tag_512:\n        /* \"#utility.yul\":10886:10957   */\n      tag_513\n        /* \"#utility.yul\":10950:10956   */\n      dup2\n        /* \"#utility.yul\":10945:10948   */\n      dup6\n        /* \"#utility.yul\":10886:10957   */\n      tag_287\n      jump\t// in\n    tag_513:\n        /* \"#utility.yul\":10879:10957   */\n      swap4\n      pop\n        /* \"#utility.yul\":10966:11031   */\n      tag_514\n        /* \"#utility.yul\":11024:11030   */\n      dup2\n        /* \"#utility.yul\":11019:11022   */\n      dup6\n        /* \"#utility.yul\":11012:11016   */\n      0x20\n        /* \"#utility.yul\":11005:11010   */\n      dup7\n        /* \"#utility.yul\":11001:11017   */\n      add\n        /* \"#utility.yul\":10966:11031   */\n      tag_294\n      jump\t// in\n    tag_514:\n        /* \"#utility.yul\":11056:11085   */\n      tag_515\n        /* \"#utility.yul\":11078:11084   */\n      dup2\n        /* \"#utility.yul\":11056:11085   */\n      tag_270\n      jump\t// in\n    tag_515:\n        /* \"#utility.yul\":11051:11054   */\n      dup5\n        /* \"#utility.yul\":11047:11086   */\n      add\n        /* \"#utility.yul\":11040:11086   */\n      swap2\n      pop\n        /* \"#utility.yul\":10807:11092   */\n      pop\n        /* \"#utility.yul\":10715:11092   */\n      swap3\n      swap2\n      pop\n      pop\n      jump\t// out\n        /* \"#utility.yul\":11098:11411   */\n    tag_85:\n        /* \"#utility.yul\":11211:11215   */\n      0x00\n        /* \"#utility.yul\":11249:11251   */\n      0x20\n        /* \"#utility.yul\":11238:11247   */\n      dup3\n        /* \"#utility.yul\":11234:11252   */\n      add\n        /* \"#utility.yul\":11226:11252   */\n      swap1\n      pop\n        /* \"#utility.yul\":11298:11307   */\n      dup2\n        /* \"#utility.yul\":11292:11296   */\n      dup2\n        /* \"#utility.yul\":11288:11308   */\n      sub\n        /* \"#utility.yul\":11284:11285   */\n      0x00\n        /* \"#utility.yul\":11273:11282   */\n      dup4\n        /* \"#utility.yul\":11269:11286   */\n      add\n        /* \"#utility.yul\":11262:11309   */\n      mstore\n        /* \"#utility.yul\":11326:11404   */\n      tag_517\n        /* \"#utility.yul\":11399:11403   */\n      dup2\n        /* \"#utility.yul\":11390:11396   */\n      dup5\n        /* \"#utility.yul\":11326:11404   */\n      tag_295\n      jump\t// in\n    tag_517:\n        /* \"#utility.yul\":11318:11404   */\n      swap1\n      pop\n        /* \"#utility.yul\":11098:11411   */\n      swap3\n      swap2\n      pop\n      pop\n      jump\t// out\n        /* \"#utility.yul\":11417:11560   */\n    tag_296:\n        /* \"#utility.yul\":11474:11479   */\n      0x00\n        /* \"#utility.yul\":11505:11511   */\n      dup2\n        /* \"#utility.yul\":11499:11512   */\n      mload\n        /* \"#utility.yul\":11490:11512   */\n      swap1\n      pop\n        /* \"#utility.yul\":11521:11554   */\n      tag_519\n        /* \"#utility.yul\":11548:11553   */\n      dup2\n        /* \"#utility.yul\":11521:11554   */\n      tag_283\n      jump\t// in\n    tag_519:\n        /* \"#utility.yul\":11417:11560   */\n      swap3\n      swap2\n      pop\n      pop\n      jump\t// out\n        /* \"#utility.yul\":11566:11917   */\n    tag_89:\n        /* \"#utility.yul\":11636:11642   */\n      0x00\n        /* \"#utility.yul\":11685:11687   */\n      0x20\n        /* \"#utility.yul\":11673:11682   */\n      dup3\n        /* \"#utility.yul\":11664:11671   */\n      dup5\n        /* \"#utility.yul\":11660:11683   */\n      sub\n        /* \"#utility.yul\":11656:11688   */\n      slt\n        /* \"#utility.yul\":11653:11772   */\n      iszero\n      tag_521\n      jumpi\n        /* \"#utility.yul\":11691:11770   */\n      tag_522\n      tag_263\n      jump\t// in\n    tag_522:\n        /* \"#utility.yul\":11653:11772   */\n    tag_521:\n        /* \"#utility.yul\":11811:11812   */\n      0x00\n        /* \"#utility.yul\":11836:11900   */\n      tag_523\n        /* \"#utility.yul\":11892:11899   */\n      dup5\n        /* \"#utility.yul\":11883:11889   */\n      dup3\n        /* \"#utility.yul\":11872:11881   */\n      dup6\n        /* \"#utility.yul\":11868:11890   */\n      add\n        /* \"#utility.yul\":11836:11900   */\n      tag_296\n      jump\t// in\n    tag_523:\n        /* \"#utility.yul\":11826:11900   */\n      swap2\n      pop\n        /* \"#utility.yul\":11782:11910   */\n      pop\n        /* \"#utility.yul\":11566:11917   */\n      swap3\n      swap2\n      pop\n      pop\n      jump\t// out\n        /* \"#utility.yul\":11923:12096   */\n    tag_297:\n        /* \"#utility.yul\":12063:12088   */\n      0x43616c6c6572206973206e6f7420746865206f776e6572000000000000000000\n        /* \"#utility.yul\":12059:12060   */\n      0x00\n        /* \"#utility.yul\":12051:12057   */\n      dup3\n        /* \"#utility.yul\":12047:12061   */\n      add\n        /* \"#utility.yul\":12040:12089   */\n      mstore\n        /* \"#utility.yul\":11923:12096   */\n      pop\n      jump\t// out\n        /* \"#utility.yul\":12102:12468   */\n    tag_298:\n        /* \"#utility.yul\":12244:12247   */\n      0x00\n        /* \"#utility.yul\":12265:12332   */\n      tag_526\n        /* \"#utility.yul\":12329:12331   */\n      0x17\n        /* \"#utility.yul\":12324:12327   */\n      dup4\n        /* \"#utility.yul\":12265:12332   */\n      tag_287\n      jump\t// in\n    tag_526:\n        /* \"#utility.yul\":12258:12332   */\n      swap2\n      pop\n        /* \"#utility.yul\":12341:12434   */\n      tag_527\n        /* \"#utility.yul\":12430:12433   */\n      dup3\n        /* \"#utility.yul\":12341:12434   */\n      tag_297\n      jump\t// in\n    tag_527:\n        /* \"#utility.yul\":12459:12461   */\n      0x20\n        /* \"#utility.yul\":12454:12457   */\n      dup3\n        /* \"#utility.yul\":12450:12462   */\n      add\n        /* \"#utility.yul\":12443:12462   */\n      swap1\n      pop\n        /* \"#utility.yul\":12102:12468   */\n      swap2\n      swap1\n      pop\n      jump\t// out\n        /* \"#utility.yul\":12474:12893   */\n    tag_103:\n        /* \"#utility.yul\":12640:12644   */\n      0x00\n        /* \"#utility.yul\":12678:12680   */\n      0x20\n        /* \"#utility.yul\":12667:12676   */\n      dup3\n        /* \"#utility.yul\":12663:12681   */\n      add\n        /* \"#utility.yul\":12655:12681   */\n      swap1\n      pop\n        /* \"#utility.yul\":12727:12736   */\n      dup2\n        /* \"#utility.yul\":12721:12725   */\n      dup2\n        /* \"#utility.yul\":12717:12737   */\n      sub\n        /* \"#utility.yul\":12713:12714   */\n      0x00\n        /* \"#utility.yul\":12702:12711   */\n      dup4\n        /* \"#utility.yul\":12698:12715   */\n      add\n        /* \"#utility.yul\":12691:12738   */\n      mstore\n        /* \"#utility.yul\":12755:12886   */\n      tag_529\n        /* \"#utility.yul\":12881:12885   */\n      dup2\n        /* \"#utility.yul\":12755:12886   */\n      tag_298\n      jump\t// in\n    tag_529:\n        /* \"#utility.yul\":12747:12886   */\n      swap1\n      pop\n        /* \"#utility.yul\":12474:12893   */\n      swap2\n      swap1\n      pop\n      jump\t// out\n        /* \"#utility.yul\":12899:13016   */\n    tag_299:\n        /* \"#utility.yul\":13008:13009   */\n      0x00\n        /* \"#utility.yul\":13005:13006   */\n      0x00\n        /* \"#utility.yul\":12998:13010   */\n      revert\n        /* \"#utility.yul\":13022:13139   */\n    tag_300:\n        /* \"#utility.yul\":13131:13132   */\n      0x00\n        /* \"#utility.yul\":13128:13129   */\n      0x00\n        /* \"#utility.yul\":13121:13133   */\n      revert\n        /* \"#utility.yul\":13145:13262   */\n    tag_301:\n        /* \"#utility.yul\":13254:13255   */\n      0x00\n        /* \"#utility.yul\":13251:13252   */\n      0x00\n        /* \"#utility.yul\":13244:13256   */\n      revert\n        /* \"#utility.yul\":13268:13993   */\n    tag_120:\n        /* \"#utility.yul\":13346:13350   */\n      0x00\n        /* \"#utility.yul\":13352:13358   */\n      0x00\n        /* \"#utility.yul\":13408:13419   */\n      dup4\n        /* \"#utility.yul\":13395:13420   */\n      calldataload\n        /* \"#utility.yul\":13508:13509   */\n      0x01\n        /* \"#utility.yul\":13502:13506   */\n      0x20\n        /* \"#utility.yul\":13498:13510   */\n      sub\n        /* \"#utility.yul\":13487:13495   */\n      dup5\n        /* \"#utility.yul\":13471:13485   */\n      calldatasize\n        /* \"#utility.yul\":13467:13496   */\n      sub\n        /* \"#utility.yul\":13463:13511   */\n      sub\n        /* \"#utility.yul\":13443:13461   */\n      dup2\n        /* \"#utility.yul\":13439:13512   */\n      slt\n        /* \"#utility.yul\":13429:13597   */\n      tag_534\n      jumpi\n        /* \"#utility.yul\":13516:13595   */\n      tag_535\n      tag_299\n      jump\t// in\n    tag_535:\n        /* \"#utility.yul\":13429:13597   */\n    tag_534:\n        /* \"#utility.yul\":13628:13646   */\n      dup1\n        /* \"#utility.yul\":13618:13626   */\n      dup5\n        /* \"#utility.yul\":13614:13647   */\n      add\n        /* \"#utility.yul\":13606:13647   */\n      swap3\n      pop\n        /* \"#utility.yul\":13680:13684   */\n      dup3\n        /* \"#utility.yul\":13667:13685   */\n      calldataload\n        /* \"#utility.yul\":13657:13685   */\n      swap2\n      pop\n        /* \"#utility.yul\":13708:13726   */\n      0xffffffffffffffff\n        /* \"#utility.yul\":13700:13706   */\n      dup3\n        /* \"#utility.yul\":13697:13727   */\n      gt\n        /* \"#utility.yul\":13694:13811   */\n      iszero\n      tag_536\n      jumpi\n        /* \"#utility.yul\":13730:13809   */\n      tag_537\n      tag_300\n      jump\t// in\n    tag_537:\n        /* \"#utility.yul\":13694:13811   */\n    tag_536:\n        /* \"#utility.yul\":13838:13840   */\n      0x20\n        /* \"#utility.yul\":13832:13836   */\n      dup4\n        /* \"#utility.yul\":13828:13841   */\n      add\n        /* \"#utility.yul\":13820:13841   */\n      swap3\n      pop\n        /* \"#utility.yul\":13895:13899   */\n      0x01\n        /* \"#utility.yul\":13887:13893   */\n      dup3\n        /* \"#utility.yul\":13883:13900   */\n      mul\n        /* \"#utility.yul\":13867:13881   */\n      calldatasize\n        /* \"#utility.yul\":13863:13901   */\n      sub\n        /* \"#utility.yul\":13857:13861   */\n      dup4\n        /* \"#utility.yul\":13853:13902   */\n      sgt\n        /* \"#utility.yul\":13850:13986   */\n      iszero\n      tag_538\n      jumpi\n        /* \"#utility.yul\":13905:13984   */\n      tag_539\n      tag_301\n      jump\t// in\n    tag_539:\n        /* \"#utility.yul\":13850:13986   */\n    tag_538:\n        /* \"#utility.yul\":13359:13993   */\n      pop\n        /* \"#utility.yul\":13268:13993   */\n      swap3\n      pop\n      swap3\n      swap1\n      pop\n      jump\t// out\n        /* \"#utility.yul\":14023:14340   */\n    tag_302:\n        /* \"#utility.yul\":14121:14124   */\n      0x00\n        /* \"#utility.yul\":14142:14213   */\n      tag_541\n        /* \"#utility.yul\":14206:14212   */\n      dup4\n        /* \"#utility.yul\":14201:14204   */\n      dup6\n        /* \"#utility.yul\":14142:14213   */\n      tag_287\n      jump\t// in\n    tag_541:\n        /* \"#utility.yul\":14135:14213   */\n      swap4\n      pop\n        /* \"#utility.yul\":14223:14279   */\n      tag_542\n        /* \"#utility.yul\":14272:14278   */\n      dup4\n        /* \"#utility.yul\":14267:14270   */\n      dup6\n        /* \"#utility.yul\":14260:14265   */\n      dup5\n        /* \"#utility.yul\":14223:14279   */\n      tag_274\n      jump\t// in\n    tag_542:\n        /* \"#utility.yul\":14304:14333   */\n      tag_543\n        /* \"#utility.yul\":14326:14332   */\n      dup4\n        /* \"#utility.yul\":14304:14333   */\n      tag_270\n      jump\t// in\n    tag_543:\n        /* \"#utility.yul\":14299:14302   */\n      dup5\n        /* \"#utility.yul\":14295:14334   */\n      add\n        /* \"#utility.yul\":14288:14334   */\n      swap1\n      pop\n        /* \"#utility.yul\":14023:14340   */\n      swap4\n      swap3\n      pop\n      pop\n      pop\n      jump\t// out\n        /* \"#utility.yul\":14346:15010   */\n    tag_123:\n        /* \"#utility.yul\":14555:14559   */\n      0x00\n        /* \"#utility.yul\":14593:14595   */\n      0x60\n        /* \"#utility.yul\":14582:14591   */\n      dup3\n        /* \"#utility.yul\":14578:14596   */\n      add\n        /* \"#utility.yul\":14570:14596   */\n      swap1\n      pop\n        /* \"#utility.yul\":14606:14677   */\n      tag_545\n        /* \"#utility.yul\":14674:14675   */\n      0x00\n        /* \"#utility.yul\":14663:14672   */\n      dup4\n        /* \"#utility.yul\":14659:14676   */\n      add\n        /* \"#utility.yul\":14650:14656   */\n      dup9\n        /* \"#utility.yul\":14606:14677   */\n      tag_277\n      jump\t// in\n    tag_545:\n        /* \"#utility.yul\":14724:14733   */\n      dup2\n        /* \"#utility.yul\":14718:14722   */\n      dup2\n        /* \"#utility.yul\":14714:14734   */\n      sub\n        /* \"#utility.yul\":14709:14711   */\n      0x20\n        /* \"#utility.yul\":14698:14707   */\n      dup4\n        /* \"#utility.yul\":14694:14712   */\n      add\n        /* \"#utility.yul\":14687:14735   */\n      mstore\n        /* \"#utility.yul\":14752:14840   */\n      tag_546\n        /* \"#utility.yul\":14835:14839   */\n      dup2\n        /* \"#utility.yul\":14826:14832   */\n      dup7\n        /* \"#utility.yul\":14818:14824   */\n      dup9\n        /* \"#utility.yul\":14752:14840   */\n      tag_302\n      jump\t// in\n    tag_546:\n        /* \"#utility.yul\":14744:14840   */\n      swap1\n      pop\n        /* \"#utility.yul\":14887:14896   */\n      dup2\n        /* \"#utility.yul\":14881:14885   */\n      dup2\n        /* \"#utility.yul\":14877:14897   */\n      sub\n        /* \"#utility.yul\":14872:14874   */\n      0x40\n        /* \"#utility.yul\":14861:14870   */\n      dup4\n        /* \"#utility.yul\":14857:14875   */\n      add\n        /* \"#utility.yul\":14850:14898   */\n      mstore\n        /* \"#utility.yul\":14915:15003   */\n      tag_547\n        /* \"#utility.yul\":14998:15002   */\n      dup2\n        /* \"#utility.yul\":14989:14995   */\n      dup5\n        /* \"#utility.yul\":14981:14987   */\n      dup7\n        /* \"#utility.yul\":14915:15003   */\n      tag_302\n      jump\t// in\n    tag_547:\n        /* \"#utility.yul\":14907:15003   */\n      swap1\n      pop\n        /* \"#utility.yul\":14346:15010   */\n      swap7\n      swap6\n      pop\n      pop\n      pop\n      pop\n      pop\n      pop\n      jump\t// out\n        /* \"#utility.yul\":15016:15348   */\n    tag_133:\n        /* \"#utility.yul\":15137:15141   */\n      0x00\n        /* \"#utility.yul\":15175:15177   */\n      0x40\n        /* \"#utility.yul\":15164:15173   */\n      dup3\n        /* \"#utility.yul\":15160:15178   */\n      add\n        /* \"#utility.yul\":15152:15178   */\n      swap1\n      pop\n        /* \"#utility.yul\":15188:15259   */\n      tag_549\n        /* \"#utility.yul\":15256:15257   */\n      0x00\n        /* \"#utility.yul\":15245:15254   */\n      dup4\n        /* \"#utility.yul\":15241:15258   */\n      add\n        /* \"#utility.yul\":15232:15238   */\n      dup6\n        /* \"#utility.yul\":15188:15259   */\n      tag_261\n      jump\t// in\n    tag_549:\n        /* \"#utility.yul\":15269:15341   */\n      tag_550\n        /* \"#utility.yul\":15337:15339   */\n      0x20\n        /* \"#utility.yul\":15326:15335   */\n      dup4\n        /* \"#utility.yul\":15322:15340   */\n      add\n        /* \"#utility.yul\":15313:15319   */\n      dup5\n        /* \"#utility.yul\":15269:15341   */\n      tag_261\n      jump\t// in\n    tag_550:\n        /* \"#utility.yul\":15016:15348   */\n      swap4\n      swap3\n      pop\n      pop\n      pop\n      jump\t// out\n        /* \"#utility.yul\":15354:15536   */\n    tag_303:\n        /* \"#utility.yul\":15494:15528   */\n      0x4469726563746f72792063616e6e6f74206265207a65726f2061646472657373\n        /* \"#utility.yul\":15490:15491   */\n      0x00\n        /* \"#utility.yul\":15482:15488   */\n      dup3\n        /* \"#utility.yul\":15478:15492   */\n      add\n        /* \"#utility.yul\":15471:15529   */\n      mstore\n        /* \"#utility.yul\":15354:15536   */\n      pop\n      jump\t// out\n        /* \"#utility.yul\":15542:15908   */\n    tag_304:\n        /* \"#utility.yul\":15684:15687   */\n      0x00\n        /* \"#utility.yul\":15705:15772   */\n      tag_553\n        /* \"#utility.yul\":15769:15771   */\n      0x20\n        /* \"#utility.yul\":15764:15767   */\n      dup4\n        /* \"#utility.yul\":15705:15772   */\n      tag_287\n      jump\t// in\n    tag_553:\n        /* \"#utility.yul\":15698:15772   */\n      swap2\n      pop\n        /* \"#utility.yul\":15781:15874   */\n      tag_554\n        /* \"#utility.yul\":15870:15873   */\n      dup3\n        /* \"#utility.yul\":15781:15874   */\n      tag_303\n      jump\t// in\n    tag_554:\n        /* \"#utility.yul\":15899:15901   */\n      0x20\n        /* \"#utility.yul\":15894:15897   */\n      dup3\n        /* \"#utility.yul\":15890:15902   */\n      add\n        /* \"#utility.yul\":15883:15902   */\n      swap1\n      pop\n        /* \"#utility.yul\":15542:15908   */\n      swap2\n      swap1\n      pop\n      jump\t// out\n        /* \"#utility.yul\":15914:16333   */\n    tag_139:\n        /* \"#utility.yul\":16080:16084   */\n      0x00\n        /* \"#utility.yul\":16118:16120   */\n      0x20\n        /* \"#utility.yul\":16107:16116   */\n      dup3\n        /* \"#utility.yul\":16103:16121   */\n      add\n        /* \"#utility.yul\":16095:16121   */\n      swap1\n      pop\n        /* \"#utility.yul\":16167:16176   */\n      dup2\n        /* \"#utility.yul\":16161:16165   */\n      dup2\n        /* \"#utility.yul\":16157:16177   */\n      sub\n        /* \"#utility.yul\":16153:16154   */\n      0x00\n        /* \"#utility.yul\":16142:16151   */\n      dup4\n        /* \"#utility.yul\":16138:16155   */\n      add\n        /* \"#utility.yul\":16131:16178   */\n      mstore\n        /* \"#utility.yul\":16195:16326   */\n      tag_556\n        /* \"#utility.yul\":16321:16325   */\n      dup2\n        /* \"#utility.yul\":16195:16326   */\n      tag_304\n      jump\t// in\n    tag_556:\n        /* \"#utility.yul\":16187:16326   */\n      swap1\n      pop\n        /* \"#utility.yul\":15914:16333   */\n      swap2\n      swap1\n      pop\n      jump\t// out\n        /* \"#utility.yul\":16339:16517   */\n    tag_305:\n        /* \"#utility.yul\":16479:16509   */\n      0x4469726563746f7279206d757374206265206120636f6e747261637400000000\n        /* \"#utility.yul\":16475:16476   */\n      0x00\n        /* \"#utility.yul\":16467:16473   */\n      dup3\n        /* \"#utility.yul\":16463:16477   */\n      add\n        /* \"#utility.yul\":16456:16510   */\n      mstore\n        /* \"#utility.yul\":16339:16517   */\n      pop\n      jump\t// out\n        /* \"#utility.yul\":16523:16889   */\n    tag_306:\n        /* \"#utility.yul\":16665:16668   */\n      0x00\n        /* \"#utility.yul\":16686:16753   */\n      tag_559\n        /* \"#utility.yul\":16750:16752   */\n      0x1c\n        /* \"#utility.yul\":16745:16748   */\n      dup4\n        /* \"#utility.yul\":16686:16753   */\n      tag_287\n      jump\t// in\n    tag_559:\n        /* \"#utility.yul\":16679:16753   */\n      swap2\n      pop\n        /* \"#utility.yul\":16762:16855   */\n      tag_560\n        /* \"#utility.yul\":16851:16854   */\n      dup3\n        /* \"#utility.yul\":16762:16855   */\n      tag_305\n      jump\t// in\n    tag_560:\n        /* \"#utility.yul\":16880:16882   */\n      0x20\n        /* \"#utility.yul\":16875:16878   */\n      dup3\n        /* \"#utility.yul\":16871:16883   */\n      add\n        /* \"#utility.yul\":16864:16883   */\n      swap1\n      pop\n        /* \"#utility.yul\":16523:16889   */\n      swap2\n      swap1\n      pop\n      jump\t// out\n        /* \"#utility.yul\":16895:17314   */\n    tag_142:\n        /* \"#utility.yul\":17061:17065   */\n      0x00\n        /* \"#utility.yul\":17099:17101   */\n      0x20\n        /* \"#utility.yul\":17088:17097   */\n      dup3\n        /* \"#utility.yul\":17084:17102   */\n      add\n        /* \"#utility.yul\":17076:17102   */\n      swap1\n      pop\n        /* \"#utility.yul\":17148:17157   */\n      dup2\n        /* \"#utility.yul\":17142:17146   */\n      dup2\n        /* \"#utility.yul\":17138:17158   */\n      sub\n        /* \"#utility.yul\":17134:17135   */\n      0x00\n        /* \"#utility.yul\":17123:17132   */\n      dup4\n        /* \"#utility.yul\":17119:17136   */\n      add\n        /* \"#utility.yul\":17112:17159   */\n      mstore\n        /* \"#utility.yul\":17176:17307   */\n      tag_562\n        /* \"#utility.yul\":17302:17306   */\n      dup2\n        /* \"#utility.yul\":17176:17307   */\n      tag_306\n      jump\t// in\n    tag_562:\n        /* \"#utility.yul\":17168:17307   */\n      swap1\n      pop\n        /* \"#utility.yul\":16895:17314   */\n      swap2\n      swap1\n      pop\n      jump\t// out\n        /* \"#utility.yul\":17320:17551   */\n    tag_307:\n        /* \"#utility.yul\":17460:17494   */\n      0x4469726563746f7279206164647265737320646f6573206e6f7420696d706c65\n        /* \"#utility.yul\":17456:17457   */\n      0x00\n        /* \"#utility.yul\":17448:17454   */\n      dup3\n        /* \"#utility.yul\":17444:17458   */\n      add\n        /* \"#utility.yul\":17437:17495   */\n      mstore\n        /* \"#utility.yul\":17529:17543   */\n      0x6d656e74206f776e657228290000000000000000000000000000000000000000\n        /* \"#utility.yul\":17524:17526   */\n      0x20\n        /* \"#utility.yul\":17516:17522   */\n      dup3\n        /* \"#utility.yul\":17512:17527   */\n      add\n        /* \"#utility.yul\":17505:17544   */\n      mstore\n        /* \"#utility.yul\":17320:17551   */\n      pop\n      jump\t// out\n        /* \"#utility.yul\":17557:17923   */\n    tag_308:\n        /* \"#utility.yul\":17699:17702   */\n      0x00\n        /* \"#utility.yul\":17720:17787   */\n      tag_565\n        /* \"#utility.yul\":17784:17786   */\n      0x2c\n        /* \"#utility.yul\":17779:17782   */\n      dup4\n        /* \"#utility.yul\":17720:17787   */\n      tag_287\n      jump\t// in\n    tag_565:\n        /* \"#utility.yul\":17713:17787   */\n      swap2\n      pop\n        /* \"#utility.yul\":17796:17889   */\n      tag_566\n        /* \"#utility.yul\":17885:17888   */\n      dup3\n        /* \"#utility.yul\":17796:17889   */\n      tag_307\n      jump\t// in\n    tag_566:\n        /* \"#utility.yul\":17914:17916   */\n      0x40\n        /* \"#utility.yul\":17909:17912   */\n      dup3\n        /* \"#utility.yul\":17905:17917   */\n      add\n        /* \"#utility.yul\":17898:17917   */\n      swap1\n      pop\n        /* \"#utility.yul\":17557:17923   */\n      swap2\n      swap1\n      pop\n      jump\t// out\n        /* \"#utility.yul\":17929:18348   */\n    tag_150:\n        /* \"#utility.yul\":18095:18099   */\n      0x00\n        /* \"#utility.yul\":18133:18135   */\n      0x20\n        /* \"#utility.yul\":18122:18131   */\n      dup3\n        /* \"#utility.yul\":18118:18136   */\n      add\n        /* \"#utility.yul\":18110:18136   */\n      swap1\n      pop\n        /* \"#utility.yul\":18182:18191   */\n      dup2\n        /* \"#utility.yul\":18176:18180   */\n      dup2\n        /* \"#utility.yul\":18172:18192   */\n      sub\n        /* \"#utility.yul\":18168:18169   */\n      0x00\n        /* \"#utility.yul\":18157:18166   */\n      dup4\n        /* \"#utility.yul\":18153:18170   */\n      add\n        /* \"#utility.yul\":18146:18193   */\n      mstore\n        /* \"#utility.yul\":18210:18341   */\n      tag_568\n        /* \"#utility.yul\":18336:18340   */\n      dup2\n        /* \"#utility.yul\":18210:18341   */\n      tag_308\n      jump\t// in\n    tag_568:\n        /* \"#utility.yul\":18202:18341   */\n      swap1\n      pop\n        /* \"#utility.yul\":17929:18348   */\n      swap2\n      swap1\n      pop\n      jump\t// out\n        /* \"#utility.yul\":18354:19118   */\n    tag_158:\n        /* \"#utility.yul\":18471:18475   */\n      0x00\n        /* \"#utility.yul\":18477:18483   */\n      0x00\n        /* \"#utility.yul\":18533:18544   */\n      dup4\n        /* \"#utility.yul\":18520:18545   */\n      calldataload\n        /* \"#utility.yul\":18633:18634   */\n      0x01\n        /* \"#utility.yul\":18627:18631   */\n      0x20\n        /* \"#utility.yul\":18623:18635   */\n      sub\n        /* \"#utility.yul\":18612:18620   */\n      dup5\n        /* \"#utility.yul\":18596:18610   */\n      calldatasize\n        /* \"#utility.yul\":18592:18621   */\n      sub\n        /* \"#utility.yul\":18588:18636   */\n      sub\n        /* \"#utility.yul\":18568:18586   */\n      dup2\n        /* \"#utility.yul\":18564:18637   */\n      slt\n        /* \"#utility.yul\":18554:18722   */\n      tag_570\n      jumpi\n        /* \"#utility.yul\":18641:18720   */\n      tag_571\n      tag_299\n      jump\t// in\n    tag_571:\n        /* \"#utility.yul\":18554:18722   */\n    tag_570:\n        /* \"#utility.yul\":18753:18771   */\n      dup1\n        /* \"#utility.yul\":18743:18751   */\n      dup5\n        /* \"#utility.yul\":18739:18772   */\n      add\n        /* \"#utility.yul\":18731:18772   */\n      swap3\n      pop\n        /* \"#utility.yul\":18805:18809   */\n      dup3\n        /* \"#utility.yul\":18792:18810   */\n      calldataload\n        /* \"#utility.yul\":18782:18810   */\n      swap2\n      pop\n        /* \"#utility.yul\":18833:18851   */\n      0xffffffffffffffff\n        /* \"#utility.yul\":18825:18831   */\n      dup3\n        /* \"#utility.yul\":18822:18852   */\n      gt\n        /* \"#utility.yul\":18819:18936   */\n      iszero\n      tag_572\n      jumpi\n        /* \"#utility.yul\":18855:18934   */\n      tag_573\n      tag_300\n      jump\t// in\n    tag_573:\n        /* \"#utility.yul\":18819:18936   */\n    tag_572:\n        /* \"#utility.yul\":18963:18965   */\n      0x20\n        /* \"#utility.yul\":18957:18961   */\n      dup4\n        /* \"#utility.yul\":18953:18966   */\n      add\n        /* \"#utility.yul\":18945:18966   */\n      swap3\n      pop\n        /* \"#utility.yul\":19020:19024   */\n      0x40\n        /* \"#utility.yul\":19012:19018   */\n      dup3\n        /* \"#utility.yul\":19008:19025   */\n      mul\n        /* \"#utility.yul\":18992:19006   */\n      calldatasize\n        /* \"#utility.yul\":18988:19026   */\n      sub\n        /* \"#utility.yul\":18982:18986   */\n      dup4\n        /* \"#utility.yul\":18978:19027   */\n      sgt\n        /* \"#utility.yul\":18975:19111   */\n      iszero\n      tag_574\n      jumpi\n        /* \"#utility.yul\":19030:19109   */\n      tag_575\n      tag_301\n      jump\t// in\n    tag_575:\n        /* \"#utility.yul\":18975:19111   */\n    tag_574:\n        /* \"#utility.yul\":18484:19118   */\n      pop\n        /* \"#utility.yul\":18354:19118   */\n      swap3\n      pop\n      swap3\n      swap1\n      pop\n      jump\t// out\n        /* \"#utility.yul\":19124:19304   */\n    tag_309:\n        /* \"#utility.yul\":19172:19249   */\n      0x4e487b7100000000000000000000000000000000000000000000000000000000\n        /* \"#utility.yul\":19169:19170   */\n      0x00\n        /* \"#utility.yul\":19162:19250   */\n      mstore\n        /* \"#utility.yul\":19269:19273   */\n      0x00\n        /* \"#utility.yul\":19266:19267   */\n      0x04\n        /* \"#utility.yul\":19259:19274   */\n      mstore\n        /* \"#utility.yul\":19293:19297   */\n      0x24\n        /* \"#utility.yul\":19290:19291   */\n      0x00\n        /* \"#utility.yul\":19283:19298   */\n      revert\n        /* \"#utility.yul\":19310:19407   */\n    tag_310:\n        /* \"#utility.yul\":19369:19375   */\n      0x00\n        /* \"#utility.yul\":19397:19400   */\n      dup3\n        /* \"#utility.yul\":19387:19400   */\n      swap1\n      pop\n        /* \"#utility.yul\":19310:19407   */\n      swap3\n      swap2\n      pop\n      pop\n      jump\t// out\n        /* \"#utility.yul\":19413:19593   */\n    tag_311:\n        /* \"#utility.yul\":19461:19538   */\n      0x4e487b7100000000000000000000000000000000000000000000000000000000\n        /* \"#utility.yul\":19458:19459   */\n      0x00\n        /* \"#utility.yul\":19451:19539   */\n      mstore\n        /* \"#utility.yul\":19558:19562   */\n      0x22\n        /* \"#utility.yul\":19555:19556   */\n      0x04\n        /* \"#utility.yul\":19548:19563   */\n      mstore\n        /* \"#utility.yul\":19582:19586   */\n      0x24\n        /* \"#utility.yul\":19579:19580   */\n      0x00\n        /* \"#utility.yul\":19572:19587   */\n      revert\n        /* \"#utility.yul\":19599:19919   */\n    tag_312:\n        /* \"#utility.yul\":19643:19649   */\n      0x00\n        /* \"#utility.yul\":19680:19681   */\n      0x02\n        /* \"#utility.yul\":19674:19678   */\n      dup3\n        /* \"#utility.yul\":19670:19682   */\n      div\n        /* \"#utility.yul\":19660:19682   */\n      swap1\n      pop\n        /* \"#utility.yul\":19727:19728   */\n      0x01\n        /* \"#utility.yul\":19721:19725   */\n      dup3\n        /* \"#utility.yul\":19717:19729   */\n      and\n        /* \"#utility.yul\":19748:19766   */\n      dup1\n        /* \"#utility.yul\":19738:19819   */\n      tag_580\n      jumpi\n        /* \"#utility.yul\":19804:19808   */\n      0x7f\n        /* \"#utility.yul\":19796:19802   */\n      dup3\n        /* \"#utility.yul\":19792:19809   */\n      and\n        /* \"#utility.yul\":19782:19809   */\n      swap2\n      pop\n        /* \"#utility.yul\":19738:19819   */\n    tag_580:\n        /* \"#utility.yul\":19866:19868   */\n      0x20\n        /* \"#utility.yul\":19858:19864   */\n      dup3\n        /* \"#utility.yul\":19855:19869   */\n      lt\n        /* \"#utility.yul\":19835:19853   */\n      dup2\n        /* \"#utility.yul\":19832:19870   */\n      sub\n        /* \"#utility.yul\":19829:19913   */\n      tag_581\n      jumpi\n        /* \"#utility.yul\":19885:19903   */\n      tag_582\n      tag_311\n      jump\t// in\n    tag_582:\n        /* \"#utility.yul\":19829:19913   */\n    tag_581:\n        /* \"#utility.yul\":19650:19919   */\n      pop\n        /* \"#utility.yul\":19599:19919   */\n      swap2\n      swap1\n      pop\n      jump\t// out\n        /* \"#utility.yul\":19925:20066   */\n    tag_313:\n        /* \"#utility.yul\":19974:19978   */\n      0x00\n        /* \"#utility.yul\":19997:20000   */\n      dup2\n        /* \"#utility.yul\":19989:20000   */\n      swap1\n      pop\n        /* \"#utility.yul\":20020:20023   */\n      dup2\n        /* \"#utility.yul\":20017:20018   */\n      0x00\n        /* \"#utility.yul\":20010:20024   */\n      mstore\n        /* \"#utility.yul\":20054:20058   */\n      0x20\n        /* \"#utility.yul\":20051:20052   */\n      0x00\n        /* \"#utility.yul\":20041:20059   */\n      keccak256\n        /* \"#utility.yul\":20033:20059   */\n      swap1\n      pop\n        /* \"#utility.yul\":19925:20066   */\n      swap2\n      swap1\n      pop\n      jump\t// out\n        /* \"#utility.yul\":20072:20165   */\n    tag_314:\n        /* \"#utility.yul\":20109:20115   */\n      0x00\n        /* \"#utility.yul\":20156:20158   */\n      0x20\n        /* \"#utility.yul\":20151:20153   */\n      0x1f\n        /* \"#utility.yul\":20144:20149   */\n      dup4\n        /* \"#utility.yul\":20140:20154   */\n      add\n        /* \"#utility.yul\":20136:20159   */\n      div\n        /* \"#utility.yul\":20126:20159   */\n      swap1\n      pop\n        /* \"#utility.yul\":20072:20165   */\n      swap2\n      swap1\n      pop\n      jump\t// out\n        /* \"#utility.yul\":20171:20278   */\n    tag_315:\n        /* \"#utility.yul\":20215:20223   */\n      0x00\n        /* \"#utility.yul\":20265:20270   */\n      dup3\n        /* \"#utility.yul\":20259:20263   */\n      dup3\n        /* \"#utility.yul\":20255:20271   */\n      shl\n        /* \"#utility.yul\":20234:20271   */\n      swap1\n      pop\n        /* \"#utility.yul\":20171:20278   */\n      swap3\n      swap2\n      pop\n      pop\n      jump\t// out\n        /* \"#utility.yul\":20284:20677   */\n    tag_316:\n        /* \"#utility.yul\":20353:20359   */\n      0x00\n        /* \"#utility.yul\":20403:20404   */\n      0x08\n        /* \"#utility.yul\":20391:20401   */\n      dup4\n        /* \"#utility.yul\":20387:20405   */\n      mul\n        /* \"#utility.yul\":20426:20523   */\n      tag_587\n        /* \"#utility.yul\":20456:20522   */\n      0xffffffffffffffffffffffffffffffffffffffffffffffffffffffffffffffff\n        /* \"#utility.yul\":20445:20454   */\n      dup3\n        /* \"#utility.yul\":20426:20523   */\n      tag_315\n      jump\t// in\n    tag_587:\n        /* \"#utility.yul\":20544:20583   */\n      tag_588\n        /* \"#utility.yul\":20574:20582   */\n      dup7\n        /* \"#utility.yul\":20563:20572   */\n      dup4\n        /* \"#utility.yul\":20544:20583   */\n      tag_315\n      jump\t// in\n    tag_588:\n        /* \"#utility.yul\":20532:20583   */\n      swap6\n      pop\n        /* \"#utility.yul\":20616:20620   */\n      dup1\n        /* \"#utility.yul\":20612:20621   */\n      not\n        /* \"#utility.yul\":20605:20610   */\n      dup5\n        /* \"#utility.yul\":20601:20622   */\n      and\n        /* \"#utility.yul\":20592:20622   */\n      swap4\n      pop\n        /* \"#utility.yul\":20665:20669   */\n      dup1\n        /* \"#utility.yul\":20655:20663   */\n      dup7\n        /* \"#utility.yul\":20651:20670   */\n      and\n        /* \"#utility.yul\":20644:20649   */\n      dup5\n        /* \"#utility.yul\":20641:20671   */\n      or\n        /* \"#utility.yul\":20631:20671   */\n      swap3\n      pop\n        /* \"#utility.yul\":20360:20677   */\n      pop\n      pop\n        /* \"#utility.yul\":20284:20677   */\n      swap4\n      swap3\n      pop\n      pop\n      pop\n      jump\t// out\n        /* \"#utility.yul\":20683:20825   */\n    tag_317:\n        /* \"#utility.yul\":20733:20742   */\n      0x00\n        /* \"#utility.yul\":20766:20819   */\n      tag_590\n        /* \"#utility.yul\":20784:20818   */\n      tag_591\n        /* \"#utility.yul\":20793:20817   */\n      tag_592\n        /* \"#utility.yul\":20811:20816   */\n      dup5\n        /* \"#utility.yul\":20793:20817   */\n      tag_265\n      jump\t// in\n    tag_592:\n        /* \"#utility.yul\":20784:20818   */\n      tag_278\n      jump\t// in\n    tag_591:\n        /* \"#utility.yul\":20766:20819   */\n      tag_265\n      jump\t// in\n    tag_590:\n        /* \"#utility.yul\":20753:20819   */\n      swap1\n      pop\n        /* \"#utility.yul\":20683:20825   */\n      swap2\n      swap1\n      pop\n      jump\t// out\n        /* \"#utility.yul\":20831:20906   */\n    tag_318:\n        /* \"#utility.yul\":20874:20877   */\n      0x00\n        /* \"#utility.yul\":20895:20900   */\n      dup2\n        /* \"#utility.yul\":20888:20900   */\n      swap1\n      pop\n        /* \"#utility.yul\":20831:20906   */\n      swap2\n      swap1\n      pop\n      jump\t// out\n        /* \"#utility.yul\":20912:21181   */\n    tag_319:\n        /* \"#utility.yul\":21022:21061   */\n      tag_595\n        /* \"#utility.yul\":21053:21060   */\n      dup4\n        /* \"#utility.yul\":21022:21061   */\n      tag_317\n      jump\t// in\n    tag_595:\n        /* \"#utility.yul\":21083:21174   */\n      tag_596\n        /* \"#utility.yul\":21132:21173   */\n      tag_597\n        /* \"#utility.yul\":21156:21172   */\n      dup3\n        /* \"#utility.yul\":21132:21173   */\n      tag_318\n      jump\t// in\n    tag_597:\n        /* \"#utility.yul\":21124:21130   */\n      dup5\n        /* \"#utility.yul\":21117:21121   */\n      dup5\n        /* \"#utility.yul\":21111:21122   */\n      sload\n        /* \"#utility.yul\":21083:21174   */\n      tag_316\n      jump\t// in\n    tag_596:\n        /* \"#utility.yul\":21077:21081   */\n      dup3\n        /* \"#utility.yul\":21070:21175   */\n      sstore\n        /* \"#utility.yul\":20988:21181   */\n      pop\n        /* \"#utility.yul\":20912:21181   */\n      pop\n      pop\n      pop\n      jump\t// out\n        /* \"#utility.yul\":21187:21260   */\n    tag_320:\n        /* \"#utility.yul\":21232:21235   */\n      0x00\n        /* \"#utility.yul\":21253:21254   */\n      0x00\n        /* \"#utility.yul\":21246:21254   */\n      swap1\n      pop\n        /* \"#utility.yul\":21187:21260   */\n      swap1\n      jump\t// out\n        /* \"#utility.yul\":21266:21455   */\n    tag_321:\n        /* \"#utility.yul\":21343:21375   */\n      tag_600\n      tag_320\n      jump\t// in\n    tag_600:\n        /* \"#utility.yul\":21384:21449   */\n      tag_601\n        /* \"#utility.yul\":21442:21448   */\n      dup2\n        /* \"#utility.yul\":21434:21440   */\n      dup5\n        /* \"#utility.yul\":21428:21432   */\n      dup5\n        /* \"#utility.yul\":21384:21449   */\n      tag_319\n      jump\t// in\n    tag_601:\n        /* \"#utility.yul\":21319:21455   */\n      pop\n        /* \"#utility.yul\":21266:21455   */\n      pop\n      pop\n      jump\t// out\n        /* \"#utility.yul\":21461:21647   */\n    tag_322:\n        /* \"#utility.yul\":21521:21641   */\n    tag_603:\n        /* \"#utility.yul\":21538:21541   */\n      dup2\n        /* \"#utility.yul\":21531:21536   */\n      dup2\n        /* \"#utility.yul\":21528:21542   */\n      lt\n        /* \"#utility.yul\":21521:21641   */\n      iszero\n      tag_605\n      jumpi\n        /* \"#utility.yul\":21592:21631   */\n      tag_606\n        /* \"#utility.yul\":21629:21630   */\n      0x00\n        /* \"#utility.yul\":21622:21627   */\n      dup3\n        /* \"#utility.yul\":21592:21631   */\n      tag_321\n      jump\t// in\n    tag_606:\n        /* \"#utility.yul\":21565:21566   */\n      0x01\n        /* \"#utility.yul\":21558:21563   */\n      dup2\n        /* \"#utility.yul\":21554:21567   */\n      add\n        /* \"#utility.yul\":21545:21567   */\n      swap1\n      pop\n        /* \"#utility.yul\":21521:21641   */\n      jump(tag_603)\n    tag_605:\n        /* \"#utility.yul\":21461:21647   */\n      pop\n      pop\n      jump\t// out\n        /* \"#utility.yul\":21653:22196   */\n    tag_323:\n        /* \"#utility.yul\":21754:21756   */\n      0x1f\n        /* \"#utility.yul\":21749:21752   */\n      dup3\n        /* \"#utility.yul\":21746:21757   */\n      gt\n        /* \"#utility.yul\":21743:22189   */\n      iszero\n      tag_608\n      jumpi\n        /* \"#utility.yul\":21788:21826   */\n      tag_609\n        /* \"#utility.yul\":21820:21825   */\n      dup2\n        /* \"#utility.yul\":21788:21826   */\n      tag_313\n      jump\t// in\n    tag_609:\n        /* \"#utility.yul\":21872:21901   */\n      tag_610\n        /* \"#utility.yul\":21890:21900   */\n      dup5\n        /* \"#utility.yul\":21872:21901   */\n      tag_314\n      jump\t// in\n    tag_610:\n        /* \"#utility.yul\":21862:21870   */\n      dup2\n        /* \"#utility.yul\":21858:21902   */\n      add\n        /* \"#utility.yul\":22055:22057   */\n      0x20\n        /* \"#utility.yul\":22043:22053   */\n      dup6\n        /* \"#utility.yul\":22040:22058   */\n      lt\n        /* \"#utility.yul\":22037:22086   */\n      iszero\n      tag_611\n      jumpi\n        /* \"#utility.yul\":22076:22084   */\n      dup2\n        /* \"#utility.yul\":22061:22084   */\n      swap1\n      pop\n        /* \"#utility.yul\":22037:22086   */\n    tag_611:\n        /* \"#utility.yul\":22099:22179   */\n      tag_612\n        /* \"#utility.yul\":22155:22177   */\n      tag_613\n        /* \"#utility.yul\":22173:22176   */\n      dup6\n        /* \"#utility.yul\":22155:22177   */\n      tag_314\n      jump\t// in\n    tag_613:\n        /* \"#utility.yul\":22145:22153   */\n      dup4\n        /* \"#utility.yul\":22141:22178   */\n      add\n        /* \"#utility.yul\":22128:22139   */\n      dup3\n        /* \"#utility.yul\":22099:22179   */\n      tag_322\n      jump\t// in\n    tag_612:\n        /* \"#utility.yul\":21758:22189   */\n      pop\n      pop\n        /* \"#utility.yul\":21743:22189   */\n    tag_608:\n        /* \"#utility.yul\":21653:22196   */\n      pop\n      pop\n      pop\n      jump\t// out\n        /* \"#utility.yul\":22202:22319   */\n    tag_324:\n        /* \"#utility.yul\":22256:22264   */\n      0x00\n        /* \"#utility.yul\":22306:22311   */\n      dup3\n        /* \"#utility.yul\":22300:22304   */\n      dup3\n        /* \"#utility.yul\":22296:22312   */\n      shr\n        /* \"#utility.yul\":22275:22312   */\n      swap1\n      pop\n        /* \"#utility.yul\":22202:22319   */\n      swap3\n      swap2\n      pop\n      pop\n      jump\t// out\n        /* \"#utility.yul\":22325:22494   */\n    tag_325:\n        /* \"#utility.yul\":22369:22375   */\n      0x00\n        /* \"#utility.yul\":22402:22453   */\n      tag_616\n        /* \"#utility.yul\":22450:22451   */\n      0x00\n        /* \"#utility.yul\":22446:22452   */\n      not\n        /* \"#utility.yul\":22438:22443   */\n      dup5\n        /* \"#utility.yul\":22435:22436   */\n      0x08\n        /* \"#utility.yul\":22431:22444   */\n      mul\n        /* \"#utility.yul\":22402:22453   */\n      tag_324\n      jump\t// in\n    tag_616:\n        /* \"#utility.yul\":22398:22454   */\n      not\n        /* \"#utility.yul\":22483:22487   */\n      dup1\n        /* \"#utility.yul\":22477:22481   */\n      dup4\n        /* \"#utility.yul\":22473:22488   */\n      and\n        /* \"#utility.yul\":22463:22488   */\n      swap2\n      pop\n        /* \"#utility.yul\":22376:22494   */\n      pop\n        /* \"#utility.yul\":22325:22494   */\n      swap3\n      swap2\n      pop\n      pop\n      jump\t// out\n        /* \"#utility.yul\":22499:22794   */\n    tag_326:\n        /* \"#utility.yul\":22575:22579   */\n      0x00\n        /* \"#utility.yul\":22721:22750   */\n      tag_618\n        /* \"#utility.yul\":22746:22749   */\n      dup4\n        /* \"#utility.yul\":22740:22744   */\n      dup4\n        /* \"#utility.yul\":22721:22750   */\n      tag_325\n      jump\t// in\n    tag_618:\n        /* \"#utility.yul\":22713:22750   */\n      swap2\n      pop\n        /* \"#utility.yul\":22783:22786   */\n      dup3\n        /* \"#utility.yul\":22780:22781   */\n      0x02\n        /* \"#utility.yul\":22776:22787   */\n      mul\n        /* \"#utility.yul\":22770:22774   */\n      dup3\n        /* \"#utility.yul\":22767:22788   */\n      or\n        /* \"#utility.yul\":22759:22788   */\n      swap1\n      pop\n        /* \"#utility.yul\":22499:22794   */\n      swap3\n      swap2\n      pop\n      pop\n      jump\t// out\n        /* \"#utility.yul\":22799:24202   */\n    tag_327:\n        /* \"#utility.yul\":22923:22967   */\n      tag_620\n        /* \"#utility.yul\":22963:22966   */\n      dup4\n        /* \"#utility.yul\":22958:22961   */\n      dup4\n        /* \"#utility.yul\":22923:22967   */\n      tag_310\n      jump\t// in\n    tag_620:\n        /* \"#utility.yul\":23032:23050   */\n      0xffffffffffffffff\n        /* \"#utility.yul\":23024:23030   */\n      dup2\n        /* \"#utility.yul\":23021:23051   */\n      gt\n        /* \"#utility.yul\":23018:23074   */\n      iszero\n      tag_621\n      jumpi\n        /* \"#utility.yul\":23054:23072   */\n      tag_622\n      tag_180\n      jump\t// in\n    tag_622:\n        /* \"#utility.yul\":23018:23074   */\n    tag_621:\n        /* \"#utility.yul\":23098:23136   */\n      tag_623\n        /* \"#utility.yul\":23130:23134   */\n      dup3\n        /* \"#utility.yul\":23124:23135   */\n      sload\n        /* \"#utility.yul\":23098:23136   */\n      tag_312\n      jump\t// in\n    tag_623:\n        /* \"#utility.yul\":23183:23250   */\n      tag_624\n        /* \"#utility.yul\":23243:23249   */\n      dup3\n        /* \"#utility.yul\":23235:23241   */\n      dup3\n        /* \"#utility.yul\":23229:23233   */\n      dup6\n        /* \"#utility.yul\":23183:23250   */\n      tag_323\n      jump\t// in\n    tag_624:\n        /* \"#utility.yul\":23277:23278   */\n      0x00\n        /* \"#utility.yul\":23306:23308   */\n      0x1f\n        /* \"#utility.yul\":23298:23304   */\n      dup4\n        /* \"#utility.yul\":23295:23309   */\n      gt\n        /* \"#utility.yul\":23323:23324   */\n      0x01\n        /* \"#utility.yul\":23318:23950   */\n      dup2\n      eq\n      tag_626\n      jumpi\n        /* \"#utility.yul\":23994:23995   */\n      0x00\n        /* \"#utility.yul\":24011:24017   */\n      dup5\n        /* \"#utility.yul\":24008:24092   */\n      iszero\n      tag_627\n      jumpi\n        /* \"#utility.yul\":24067:24076   */\n      dup3\n        /* \"#utility.yul\":24062:24065   */\n      dup8\n        /* \"#utility.yul\":24058:24077   */\n      add\n        /* \"#utility.yul\":24045:24078   */\n      calldataload\n        /* \"#utility.yul\":24036:24078   */\n      swap1\n      pop\n        /* \"#utility.yul\":24008:24092   */\n    tag_627:\n        /* \"#utility.yul\":24118:24185   */\n      tag_628\n        /* \"#utility.yul\":24178:24184   */\n      dup6\n        /* \"#utility.yul\":24171:24176   */\n      dup3\n        /* \"#utility.yul\":24118:24185   */\n      tag_326\n      jump\t// in\n    tag_628:\n        /* \"#utility.yul\":24112:24116   */\n      dup7\n        /* \"#utility.yul\":24105:24186   */\n      sstore\n        /* \"#utility.yul\":23967:24196   */\n      pop\n        /* \"#utility.yul\":23288:24196   */\n      jump(tag_625)\n        /* \"#utility.yul\":23318:23950   */\n    tag_626:\n        /* \"#utility.yul\":23370:23374   */\n      0x1f\n        /* \"#utility.yul\":23366:23375   */\n      not\n        /* \"#utility.yul\":23358:23364   */\n      dup5\n        /* \"#utility.yul\":23354:23376   */\n      and\n        /* \"#utility.yul\":23404:23441   */\n      tag_629\n        /* \"#utility.yul\":23436:23440   */\n      dup7\n        /* \"#utility.yul\":23404:23441   */\n      tag_313\n      jump\t// in\n    tag_629:\n        /* \"#utility.yul\":23463:23464   */\n      0x00\n        /* \"#utility.yul\":23477:23692   */\n    tag_630:\n        /* \"#utility.yul\":23491:23498   */\n      dup3\n        /* \"#utility.yul\":23488:23489   */\n      dup2\n        /* \"#utility.yul\":23485:23499   */\n      lt\n        /* \"#utility.yul\":23477:23692   */\n      iszero\n      tag_632\n      jumpi\n        /* \"#utility.yul\":23577:23586   */\n      dup5\n        /* \"#utility.yul\":23572:23575   */\n      dup10\n        /* \"#utility.yul\":23568:23587   */\n      add\n        /* \"#utility.yul\":23555:23588   */\n      calldataload\n        /* \"#utility.yul\":23547:23553   */\n      dup3\n        /* \"#utility.yul\":23540:23589   */\n      sstore\n        /* \"#utility.yul\":23628:23629   */\n      0x01\n        /* \"#utility.yul\":23620:23626   */\n      dup3\n        /* \"#utility.yul\":23616:23630   */\n      add\n        /* \"#utility.yul\":23606:23630   */\n      swap2\n      pop\n        /* \"#utility.yul\":23675:23677   */\n      0x20\n        /* \"#utility.yul\":23664:23673   */\n      dup6\n        /* \"#utility.yul\":23660:23678   */\n      add\n        /* \"#utility.yul\":23647:23678   */\n      swap5\n      pop\n        /* \"#utility.yul\":23514:23518   */\n      0x20\n        /* \"#utility.yul\":23511:23512   */\n      dup2\n        /* \"#utility.yul\":23507:23519   */\n      add\n        /* \"#utility.yul\":23502:23519   */\n      swap1\n      pop\n        /* \"#utility.yul\":23477:23692   */\n      jump(tag_630)\n    tag_632:\n        /* \"#utility.yul\":23720:23726   */\n      dup7\n        /* \"#utility.yul\":23711:23718   */\n      dup4\n        /* \"#utility.yul\":23708:23727   */\n      lt\n        /* \"#utility.yul\":23705:23891   */\n      iszero\n      tag_633\n      jumpi\n        /* \"#utility.yul\":23785:23794   */\n      dup5\n        /* \"#utility.yul\":23780:23783   */\n      dup10\n        /* \"#utility.yul\":23776:23795   */\n      add\n        /* \"#utility.yul\":23763:23796   */\n      calldataload\n        /* \"#utility.yul\":23828:23876   */\n      tag_634\n        /* \"#utility.yul\":23870:23874   */\n      0x1f\n        /* \"#utility.yul\":23862:23868   */\n      dup10\n        /* \"#utility.yul\":23858:23875   */\n      and\n        /* \"#utility.yul\":23847:23856   */\n      dup3\n        /* \"#utility.yul\":23828:23876   */\n      tag_325\n      jump\t// in\n    tag_634:\n        /* \"#utility.yul\":23820:23826   */\n      dup4\n        /* \"#utility.yul\":23813:23877   */\n      sstore\n        /* \"#utility.yul\":23728:23891   */\n      pop\n        /* \"#utility.yul\":23705:23891   */\n    tag_633:\n        /* \"#utility.yul\":23937:23938   */\n      0x01\n        /* \"#utility.yul\":23933:23934   */\n      0x02\n        /* \"#utility.yul\":23925:23931   */\n      dup9\n        /* \"#utility.yul\":23921:23935   */\n      mul\n        /* \"#utility.yul\":23917:23939   */\n      add\n        /* \"#utility.yul\":23911:23915   */\n      dup9\n        /* \"#utility.yul\":23904:23940   */\n      sstore\n        /* \"#utility.yul\":23325:23950   */\n      pop\n      pop\n      pop\n        /* \"#utility.yul\":23288:24196   */\n    tag_625:\n      pop\n        /* \"#utility.yul\":22898:24202   */\n      pop\n      pop\n      pop\n        /* \"#utility.yul\":22799:24202   */\n      pop\n      pop\n      pop\n      jump\t// out\n        /* \"#utility.yul\":24208:24427   */\n    tag_328:\n        /* \"#utility.yul\":24324:24421   */\n      tag_636\n        /* \"#utility.yul\":24413:24420   */\n      dup4\n        /* \"#utility.yul\":24404:24411   */\n      dup4\n        /* \"#utility.yul\":24398:24402   */\n      dup4\n        /* \"#utility.yul\":24324:24421   */\n      tag_327\n      jump\t// in\n    tag_636:\n        /* \"#utility.yul\":24208:24427   */\n      pop\n      pop\n      pop\n      jump\t// out\n        /* \"#utility.yul\":24433:24559   */\n    tag_329:\n        /* \"#utility.yul\":24526:24530   */\n      0x00\n        /* \"#utility.yul\":24549:24552   */\n      dup2\n        /* \"#utility.yul\":24541:24552   */\n      swap1\n      pop\n        /* \"#utility.yul\":24433:24559   */\n      swap2\n      swap1\n      pop\n      jump\t// out\n        /* \"#utility.yul\":24565:24695   */\n    tag_330:\n        /* \"#utility.yul\":24648:24654   */\n      0x00\n        /* \"#utility.yul\":24682:24687   */\n      dup2\n        /* \"#utility.yul\":24676:24688   */\n      sload\n        /* \"#utility.yul\":24666:24688   */\n      swap1\n      pop\n        /* \"#utility.yul\":24565:24695   */\n      swap2\n      swap1\n      pop\n      jump\t// out\n        /* \"#utility.yul\":24701:24923   */\n    tag_331:\n        /* \"#utility.yul\":24801:24805   */\n      0x00\n        /* \"#utility.yul\":24824:24830   */\n      dup2\n        /* \"#utility.yul\":24816:24830   */\n      swap1\n      pop\n        /* \"#utility.yul\":24914:24915   */\n      0x01\n        /* \"#utility.yul\":24909:24910   */\n      dup1\n        /* \"#utility.yul\":24906:24907   */\n      0x01\n        /* \"#utility.yul\":24902:24911   */\n      sub\n        /* \"#utility.yul\":24894:24900   */\n      dup4\n        /* \"#utility.yul\":24890:24912   */\n      add\n        /* \"#utility.yul\":24886:24916   */\n      div\n        /* \"#utility.yul\":24878:24916   */\n      swap1\n      pop\n        /* \"#utility.yul\":24701:24923   */\n      swap2\n      swap1\n      pop\n      jump\t// out\n        /* \"#utility.yul\":24928:25103   */\n    tag_332:\n        /* \"#utility.yul\":25011:25015   */\n      0x00\n        /* \"#utility.yul\":25034:25037   */\n      dup2\n        /* \"#utility.yul\":25026:25037   */\n      swap1\n      pop\n        /* \"#utility.yul\":25057:25060   */\n      dup2\n        /* \"#utility.yul\":25054:25055   */\n      0x00\n        /* \"#utility.yul\":25047:25061   */\n      mstore\n        /* \"#utility.yul\":25091:25095   */\n      0x20\n        /* \"#utility.yul\":25088:25089   */\n      0x00\n        /* \"#utility.yul\":25078:25096   */\n      keccak256\n        /* \"#utility.yul\":25070:25096   */\n      swap1\n      pop\n        /* \"#utility.yul\":24928:25103   */\n      swap2\n      swap1\n      pop\n      jump\t// out\n        /* \"#utility.yul\":25109:25215   */\n    tag_333:\n        /* \"#utility.yul\":25206:25207   */\n      0x00\n        /* \"#utility.yul\":25202:25203   */\n      0x00\n        /* \"#utility.yul\":25196:25200   */\n      dup3\n        /* \"#utility.yul\":25192:25204   */\n      add\n        /* \"#utility.yul\":25185:25208   */\n      sstore\n        /* \"#utility.yul\":25109:25215   */\n      pop\n      jump\t// out\n        /* \"#utility.yul\":25221:25420   */\n    tag_334:\n        /* \"#utility.yul\":25324:25325   */\n      0x00\n        /* \"#utility.yul\":25316:25322   */\n      dup3\n        /* \"#utility.yul\":25313:25326   */\n      eq\n        /* \"#utility.yul\":25303:25350   */\n      tag_643\n      jumpi\n        /* \"#utility.yul\":25330:25348   */\n      tag_644\n      tag_309\n      jump\t// in\n    tag_644:\n        /* \"#utility.yul\":25303:25350   */\n    tag_643:\n        /* \"#utility.yul\":25359:25414   */\n      tag_645\n        /* \"#utility.yul\":25409:25413   */\n      dup2\n        /* \"#utility.yul\":25359:25414   */\n      tag_333\n      jump\t// in\n    tag_645:\n        /* \"#utility.yul\":25221:25420   */\n      pop\n      pop\n      jump\t// out\n        /* \"#utility.yul\":25426:25651   */\n    tag_335:\n        /* \"#utility.yul\":25506:25645   */\n    tag_647:\n        /* \"#utility.yul\":25523:25526   */\n      dup2\n        /* \"#utility.yul\":25516:25521   */\n      dup2\n        /* \"#utility.yul\":25513:25527   */\n      lt\n        /* \"#utility.yul\":25506:25645   */\n      iszero\n      tag_649\n      jumpi\n        /* \"#utility.yul\":25577:25635   */\n      tag_650\n        /* \"#utility.yul\":25633:25634   */\n      0x00\n        /* \"#utility.yul\":25626:25631   */\n      dup3\n        /* \"#utility.yul\":25577:25635   */\n      tag_334\n      jump\t// in\n    tag_650:\n        /* \"#utility.yul\":25550:25551   */\n      0x01\n        /* \"#utility.yul\":25543:25548   */\n      dup2\n        /* \"#utility.yul\":25539:25552   */\n      add\n        /* \"#utility.yul\":25530:25552   */\n      swap1\n      pop\n        /* \"#utility.yul\":25506:25645   */\n      jump(tag_647)\n    tag_649:\n        /* \"#utility.yul\":25426:25651   */\n      pop\n      pop\n      jump\t// out\n        /* \"#utility.yul\":25907:26683   */\n    tag_337:\n        /* \"#utility.yul\":26046:26049   */\n      dup2\n        /* \"#utility.yul\":26034:26044   */\n      dup4\n        /* \"#utility.yul\":26031:26050   */\n      lt\n        /* \"#utility.yul\":26028:26676   */\n      iszero\n      tag_654\n      jumpi\n        /* \"#utility.yul\":26137:26221   */\n      tag_655\n        /* \"#utility.yul\":26217:26220   */\n      dup3\n        /* \"#utility.yul\":26137:26221   */\n      tag_331\n      jump\t// in\n    tag_655:\n        /* \"#utility.yul\":26254:26345   */\n      tag_656\n        /* \"#utility.yul\":26334:26344   */\n      dup5\n        /* \"#utility.yul\":26254:26345   */\n      tag_331\n      jump\t// in\n    tag_656:\n        /* \"#utility.yul\":26380:26452   */\n      tag_657\n        /* \"#utility.yul\":26446:26451   */\n      dup4\n        /* \"#utility.yul\":26380:26452   */\n      tag_332\n      jump\t// in\n    tag_657:\n        /* \"#utility.yul\":26504:26516   */\n      dup2\n        /* \"#utility.yul\":26488:26502   */\n      dup2\n        /* \"#utility.yul\":26484:26517   */\n      add\n        /* \"#utility.yul\":26567:26579   */\n      dup4\n        /* \"#utility.yul\":26551:26565   */\n      dup3\n        /* \"#utility.yul\":26547:26580   */\n      add\n        /* \"#utility.yul\":26594:26666   */\n      tag_658\n        /* \"#utility.yul\":26656:26665   */\n      dup2\n        /* \"#utility.yul\":26643:26654   */\n      dup4\n        /* \"#utility.yul\":26594:26666   */\n      tag_335\n      jump\t// in\n    tag_658:\n        /* \"#utility.yul\":26051:26676   */\n      pop\n      pop\n      pop\n      pop\n      pop\n        /* \"#utility.yul\":26028:26676   */\n    tag_654:\n        /* \"#utility.yul\":25907:26683   */\n      pop\n      pop\n      pop\n      jump\t// out\n        /* \"#utility.yul\":26689:27134   */\n    tag_338:\n        /* \"#utility.yul\":26801:26821   */\n      0x010000000000000000\n        /* \"#utility.yul\":26793:26799   */\n      dup3\n        /* \"#utility.yul\":26790:26822   */\n      gt\n        /* \"#utility.yul\":26787:26865   */\n      iszero\n      tag_660\n      jumpi\n        /* \"#utility.yul\":26837:26855   */\n      tag_661\n      tag_180\n      jump\t// in\n    tag_661:\n        /* \"#utility.yul\":26787:26865   */\n    tag_660:\n        /* \"#utility.yul\":26889:26959   */\n      tag_662\n        /* \"#utility.yul\":26953:26958   */\n      dup2\n        /* \"#utility.yul\":26889:26959   */\n      tag_330\n      jump\t// in\n    tag_662:\n        /* \"#utility.yul\":27011:27017   */\n      dup3\n        /* \"#utility.yul\":27004:27009   */\n      dup3\n        /* \"#utility.yul\":26997:27018   */\n      sstore\n        /* \"#utility.yul\":27028:27127   */\n      tag_663\n        /* \"#utility.yul\":27120:27126   */\n      dup4\n        /* \"#utility.yul\":27112:27118   */\n      dup3\n        /* \"#utility.yul\":27105:27110   */\n      dup5\n        /* \"#utility.yul\":27028:27127   */\n      tag_337\n      jump\t// in\n    tag_663:\n        /* \"#utility.yul\":26777:27134   */\n      pop\n        /* \"#utility.yul\":26689:27134   */\n      pop\n      pop\n      jump\t// out\n        /* \"#utility.yul\":27139:27275   */\n    tag_339:\n        /* \"#utility.yul\":27237:27243   */\n      0x00\n        /* \"#utility.yul\":27265:27268   */\n      dup3\n        /* \"#utility.yul\":27255:27268   */\n      swap1\n      pop\n        /* \"#utility.yul\":27139:27275   */\n      swap3\n      swap2\n      pop\n      pop\n      jump\t// out\n        /* \"#utility.yul\":27281:27467   */\n    tag_340:\n        /* \"#utility.yul\":27326:27337   */\n      0x00\n        /* \"#utility.yul\":27375:27378   */\n      dup2\n        /* \"#utility.yul\":27362:27379   */\n      calldataload\n        /* \"#utility.yul\":27388:27421   */\n      tag_666\n        /* \"#utility.yul\":27415:27420   */\n      dup2\n        /* \"#utility.yul\":27388:27421   */\n      tag_283\n      jump\t// in\n    tag_666:\n        /* \"#utility.yul\":27455:27460   */\n      dup1\n        /* \"#utility.yul\":27431:27460   */\n      swap2\n      pop\n        /* \"#utility.yul\":27338:27467   */\n      pop\n        /* \"#utility.yul\":27281:27467   */\n      swap2\n      swap1\n      pop\n      jump\t// out\n        /* \"#utility.yul\":27473:27565   */\n    tag_341:\n        /* \"#utility.yul\":27505:27513   */\n      0x00\n        /* \"#utility.yul\":27552:27557   */\n      dup2\n        /* \"#utility.yul\":27549:27550   */\n      0x00\n        /* \"#utility.yul\":27545:27558   */\n      shl\n        /* \"#utility.yul\":27524:27558   */\n      swap1\n      pop\n        /* \"#utility.yul\":27473:27565   */\n      swap2\n      swap1\n      pop\n      jump\t// out\n        /* \"#utility.yul\":27571:27837   */\n    tag_342:\n        /* \"#utility.yul\":27629:27635   */\n      0x00\n        /* \"#utility.yul\":27658:27700   */\n      0xffffffffffffffffffffffffffffffffffffffff\n        /* \"#utility.yul\":27721:27743   */\n      tag_669\n        /* \"#utility.yul\":27734:27742   */\n      dup5\n        /* \"#utility.yul\":27721:27743   */\n      tag_341\n      jump\t// in\n    tag_669:\n        /* \"#utility.yul\":27709:27743   */\n      swap4\n      pop\n        /* \"#utility.yul\":27776:27780   */\n      dup1\n        /* \"#utility.yul\":27772:27781   */\n      not\n        /* \"#utility.yul\":27765:27770   */\n      dup4\n        /* \"#utility.yul\":27761:27782   */\n      and\n        /* \"#utility.yul\":27752:27782   */\n      swap3\n      pop\n        /* \"#utility.yul\":27825:27829   */\n      dup1\n        /* \"#utility.yul\":27815:27823   */\n      dup5\n        /* \"#utility.yul\":27811:27830   */\n      and\n        /* \"#utility.yul\":27804:27809   */\n      dup4\n        /* \"#utility.yul\":27801:27831   */\n      or\n        /* \"#utility.yul\":27791:27831   */\n      swap2\n      pop\n        /* \"#utility.yul\":27636:27837   */\n      pop\n        /* \"#utility.yul\":27571:27837   */\n      swap3\n      swap2\n      pop\n      pop\n      jump\t// out\n        /* \"#utility.yul\":27843:27969   */\n    tag_343:\n        /* \"#utility.yul\":27893:27902   */\n      0x00\n        /* \"#utility.yul\":27926:27963   */\n      tag_671\n        /* \"#utility.yul\":27957:27962   */\n      dup3\n        /* \"#utility.yul\":27926:27963   */\n      tag_280\n      jump\t// in\n    tag_671:\n        /* \"#utility.yul\":27913:27963   */\n      swap1\n      pop\n        /* \"#utility.yul\":27843:27969   */\n      swap2\n      swap1\n      pop\n      jump\t// out\n        /* \"#utility.yul\":27975:28050   */\n    tag_344:\n        /* \"#utility.yul\":28018:28021   */\n      0x00\n        /* \"#utility.yul\":28039:28044   */\n      dup2\n        /* \"#utility.yul\":28032:28044   */\n      swap1\n      pop\n        /* \"#utility.yul\":27975:28050   */\n      swap2\n      swap1\n      pop\n      jump\t// out\n        /* \"#utility.yul\":28056:28319   */\n    tag_345:\n        /* \"#utility.yul\":28167:28206   */\n      tag_674\n        /* \"#utility.yul\":28198:28205   */\n      dup3\n        /* \"#utility.yul\":28167:28206   */\n      tag_343\n      jump\t// in\n    tag_674:\n        /* \"#utility.yul\":28228:28312   */\n      tag_675\n        /* \"#utility.yul\":28270:28311   */\n      tag_676\n        /* \"#utility.yul\":28294:28310   */\n      dup3\n        /* \"#utility.yul\":28270:28311   */\n      tag_344\n      jump\t// in\n    tag_676:\n        /* \"#utility.yul\":28263:28267   */\n      dup4\n        /* \"#utility.yul\":28257:28268   */\n      sload\n        /* \"#utility.yul\":28228:28312   */\n      tag_342\n      jump\t// in\n    tag_675:\n        /* \"#utility.yul\":28222:28226   */\n      dup3\n        /* \"#utility.yul\":28215:28313   */\n      sstore\n        /* \"#utility.yul\":28133:28319   */\n      pop\n        /* \"#utility.yul\":28056:28319   */\n      pop\n      pop\n      jump\t// out\n        /* \"#utility.yul\":28325:28414   */\n    tag_346:\n        /* \"#utility.yul\":28361:28368   */\n      0x00\n        /* \"#utility.yul\":28401:28407   */\n      0xffff\n        /* \"#utility.yul\":28394:28399   */\n      dup3\n        /* \"#utility.yul\":28390:28408   */\n      and\n        /* \"#utility.yul\":28379:28408   */\n      swap1\n      pop\n        /* \"#utility.yul\":28325:28414   */\n      swap2\n      swap1\n      pop\n      jump\t// out\n        /* \"#utility.yul\":28420:28540   */\n    tag_347:\n        /* \"#utility.yul\":28492:28515   */\n      tag_679\n        /* \"#utility.yul\":28509:28514   */\n      dup2\n        /* \"#utility.yul\":28492:28515   */\n      tag_346\n      jump\t// in\n    tag_679:\n        /* \"#utility.yul\":28485:28490   */\n      dup2\n        /* \"#utility.yul\":28482:28516   */\n      eq\n        /* \"#utility.yul\":28472:28534   */\n      tag_680\n      jumpi\n        /* \"#utility.yul\":28530:28531   */\n      0x00\n        /* \"#utility.yul\":28527:28528   */\n      0x00\n        /* \"#utility.yul\":28520:28532   */\n      revert\n        /* \"#utility.yul\":28472:28534   */\n    tag_680:\n        /* \"#utility.yul\":28420:28540   */\n      pop\n      jump\t// out\n        /* \"#utility.yul\":28546:28730   */\n    tag_348:\n        /* \"#utility.yul\":28590:28601   */\n      0x00\n        /* \"#utility.yul\":28639:28642   */\n      dup2\n        /* \"#utility.yul\":28626:28643   */\n      calldataload\n        /* \"#utility.yul\":28652:28684   */\n      tag_682\n        /* \"#utility.yul\":28678:28683   */\n      dup2\n        /* \"#utility.yul\":28652:28684   */\n      tag_347\n      jump\t// in\n    tag_682:\n        /* \"#utility.yul\":28718:28723   */\n      dup1\n        /* \"#utility.yul\":28694:28723   */\n      swap2\n      pop\n        /* \"#utility.yul\":28602:28730   */\n      pop\n        /* \"#utility.yul\":28546:28730   */\n      swap2\n      swap1\n      pop\n      jump\t// out\n        /* \"#utility.yul\":28736:28832   */\n    tag_349:\n        /* \"#utility.yul\":28770:28778   */\n      0x00\n        /* \"#utility.yul\":28819:28824   */\n      dup2\n        /* \"#utility.yul\":28814:28817   */\n      0xa0\n        /* \"#utility.yul\":28810:28825   */\n      shl\n        /* \"#utility.yul\":28789:28825   */\n      swap1\n      pop\n        /* \"#utility.yul\":28736:28832   */\n      swap2\n      swap1\n      pop\n      jump\t// out\n        /* \"#utility.yul\":28838:29110   */\n    tag_350:\n        /* \"#utility.yul\":28896:28902   */\n      0x00\n        /* \"#utility.yul\":28925:28971   */\n      0xffff0000000000000000000000000000000000000000\n        /* \"#utility.yul\":28992:29016   */\n      tag_685\n        /* \"#utility.yul\":29007:29015   */\n      dup5\n        /* \"#utility.yul\":28992:29016   */\n      tag_349\n      jump\t// in\n    tag_685:\n        /* \"#utility.yul\":28980:29016   */\n      swap4\n      pop\n        /* \"#utility.yul\":29049:29053   */\n      dup1\n        /* \"#utility.yul\":29045:29054   */\n      not\n        /* \"#utility.yul\":29038:29043   */\n      dup4\n        /* \"#utility.yul\":29034:29055   */\n      and\n        /* \"#utility.yul\":29025:29055   */\n      swap3\n      pop\n        /* \"#utility.yul\":29098:29102   */\n      dup1\n        /* \"#utility.yul\":29088:29096   */\n      dup5\n        /* \"#utility.yul\":29084:29103   */\n      and\n        /* \"#utility.yul\":29077:29082   */\n      dup4\n        /* \"#utility.yul\":29074:29104   */\n      or\n        /* \"#utility.yul\":29064:29104   */\n      swap2\n      pop\n        /* \"#utility.yul\":28903:29110   */\n      pop\n        /* \"#utility.yul\":28838:29110   */\n      swap3\n      swap2\n      pop\n      pop\n      jump\t// out\n        /* \"#utility.yul\":29116:29254   */\n    tag_351:\n        /* \"#utility.yul\":29164:29173   */\n      0x00\n        /* \"#utility.yul\":29197:29248   */\n      tag_687\n        /* \"#utility.yul\":29214:29247   */\n      tag_688\n        /* \"#utility.yul\":29223:29246   */\n      tag_689\n        /* \"#utility.yul\":29240:29245   */\n      dup5\n        /* \"#utility.yul\":29223:29246   */\n      tag_346\n      jump\t// in\n    tag_689:\n        /* \"#utility.yul\":29214:29247   */\n      tag_278\n      jump\t// in\n    tag_688:\n        /* \"#utility.yul\":29197:29248   */\n      tag_346\n      jump\t// in\n    tag_687:\n        /* \"#utility.yul\":29184:29248   */\n      swap1\n      pop\n        /* \"#utility.yul\":29116:29254   */\n      swap2\n      swap1\n      pop\n      jump\t// out\n        /* \"#utility.yul\":29260:29334   */\n    tag_352:\n        /* \"#utility.yul\":29302:29305   */\n      0x00\n        /* \"#utility.yul\":29323:29328   */\n      dup2\n        /* \"#utility.yul\":29316:29328   */\n      swap1\n      pop\n        /* \"#utility.yul\":29260:29334   */\n      swap2\n      swap1\n      pop\n      jump\t// out\n        /* \"#utility.yul\":29340:29599   */\n    tag_353:\n        /* \"#utility.yul\":29450:29487   */\n      tag_692\n        /* \"#utility.yul\":29479:29486   */\n      dup3\n        /* \"#utility.yul\":29450:29487   */\n      tag_351\n      jump\t// in\n    tag_692:\n        /* \"#utility.yul\":29509:29592   */\n      tag_693\n        /* \"#utility.yul\":29551:29591   */\n      tag_694\n        /* \"#utility.yul\":29574:29590   */\n      dup3\n        /* \"#utility.yul\":29551:29591   */\n      tag_352\n      jump\t// in\n    tag_694:\n        /* \"#utility.yul\":29544:29548   */\n      dup4\n        /* \"#utility.yul\":29538:29549   */\n      sload\n        /* \"#utility.yul\":29509:29592   */\n      tag_350\n      jump\t// in\n    tag_693:\n        /* \"#utility.yul\":29503:29507   */\n      dup3\n        /* \"#utility.yul\":29496:29593   */\n      sstore\n        /* \"#utility.yul\":29416:29599   */\n      pop\n        /* \"#utility.yul\":29340:29599   */\n      pop\n      pop\n      jump\t// out\n        /* \"#utility.yul\":29605:30404   */\n    tag_354:\n        /* \"#utility.yul\":29775:29776   */\n      0x00\n        /* \"#utility.yul\":29769:29773   */\n      dup2\n        /* \"#utility.yul\":29765:29777   */\n      add\n        /* \"#utility.yul\":29821:29822   */\n      0x00\n        /* \"#utility.yul\":29814:29819   */\n      dup4\n        /* \"#utility.yul\":29810:29823   */\n      add\n        /* \"#utility.yul\":29871:29883   */\n      dup1\n        /* \"#utility.yul\":29914:29956   */\n      tag_696\n        /* \"#utility.yul\":29942:29955   */\n      dup2\n        /* \"#utility.yul\":29914:29956   */\n      tag_340\n      jump\t// in\n    tag_696:\n        /* \"#utility.yul\":29897:29956   */\n      swap1\n      pop\n        /* \"#utility.yul\":29970:30049   */\n      tag_697\n        /* \"#utility.yul\":30035:30048   */\n      dup2\n        /* \"#utility.yul\":30023:30033   */\n      dup5\n        /* \"#utility.yul\":29970:30049   */\n      tag_345\n      jump\t// in\n    tag_697:\n        /* \"#utility.yul\":29732:30060   */\n      pop\n      pop\n      pop\n        /* \"#utility.yul\":30113:30114   */\n      0x00\n        /* \"#utility.yul\":30107:30111   */\n      dup2\n        /* \"#utility.yul\":30103:30115   */\n      add\n        /* \"#utility.yul\":30159:30161   */\n      0x20\n        /* \"#utility.yul\":30152:30157   */\n      dup4\n        /* \"#utility.yul\":30148:30162   */\n      add\n        /* \"#utility.yul\":30210:30222   */\n      dup1\n        /* \"#utility.yul\":30253:30294   */\n      tag_698\n        /* \"#utility.yul\":30280:30293   */\n      dup2\n        /* \"#utility.yul\":30253:30294   */\n      tag_348\n      jump\t// in\n    tag_698:\n        /* \"#utility.yul\":30236:30294   */\n      swap1\n      pop\n        /* \"#utility.yul\":30308:30386   */\n      tag_699\n        /* \"#utility.yul\":30372:30385   */\n      dup2\n        /* \"#utility.yul\":30360:30370   */\n      dup5\n        /* \"#utility.yul\":30308:30386   */\n      tag_353\n      jump\t// in\n    tag_699:\n        /* \"#utility.yul\":30070:30397   */\n      pop\n      pop\n      pop\n        /* \"#utility.yul\":29605:30404   */\n      pop\n      pop\n      jump\t// out\n        /* \"#utility.yul\":30410:30655   */\n    tag_355:\n        /* \"#utility.yul\":30541:30649   */\n      tag_701\n        /* \"#utility.yul\":30641:30648   */\n      dup3\n        /* \"#utility.yul\":30635:30639   */\n      dup3\n        /* \"#utility.yul\":30541:30649   */\n      tag_354\n      jump\t// in\n    tag_701:\n        /* \"#utility.yul\":30410:30655   */\n      pop\n      pop\n      jump\t// out\n        /* \"#utility.yul\":30661:31584   */\n    tag_356:\n        /* \"#utility.yul\":30855:30940   */\n      tag_703\n        /* \"#utility.yul\":30936:30939   */\n      dup4\n        /* \"#utility.yul\":30929:30934   */\n      dup4\n        /* \"#utility.yul\":30855:30940   */\n      tag_339\n      jump\t// in\n    tag_703:\n        /* \"#utility.yul\":30950:31027   */\n      tag_704\n        /* \"#utility.yul\":31020:31026   */\n      dup2\n        /* \"#utility.yul\":31014:31018   */\n      dup4\n        /* \"#utility.yul\":30950:31027   */\n      tag_338\n      jump\t// in\n    tag_704:\n        /* \"#utility.yul\":31051:31133   */\n      tag_705\n        /* \"#utility.yul\":31127:31132   */\n      dup4\n        /* \"#utility.yul\":31051:31133   */\n      tag_329\n      jump\t// in\n    tag_705:\n        /* \"#utility.yul\":31162:31233   */\n      tag_706\n        /* \"#utility.yul\":31228:31232   */\n      dup4\n        /* \"#utility.yul\":31162:31233   */\n      tag_332\n      jump\t// in\n    tag_706:\n        /* \"#utility.yul\":31258:31259   */\n      0x00\n        /* \"#utility.yul\":31243:31578   */\n    tag_707:\n        /* \"#utility.yul\":31268:31274   */\n      dup4\n        /* \"#utility.yul\":31265:31266   */\n      dup2\n        /* \"#utility.yul\":31262:31275   */\n      lt\n        /* \"#utility.yul\":31243:31578   */\n      iszero\n      tag_709\n      jumpi\n        /* \"#utility.yul\":31340:31346   */\n      dup3\n        /* \"#utility.yul\":31360:31481   */\n      tag_710\n        /* \"#utility.yul\":31469:31480   */\n      dup2\n        /* \"#utility.yul\":31456:31467   */\n      dup5\n        /* \"#utility.yul\":31360:31481   */\n      tag_355\n      jump\t// in\n    tag_710:\n        /* \"#utility.yul\":31517:31519   */\n      0x40\n        /* \"#utility.yul\":31509:31515   */\n      dup5\n        /* \"#utility.yul\":31505:31520   */\n      add\n        /* \"#utility.yul\":31495:31520   */\n      swap4\n      pop\n        /* \"#utility.yul\":31566:31567   */\n      0x01\n        /* \"#utility.yul\":31553:31564   */\n      dup4\n        /* \"#utility.yul\":31549:31568   */\n      add\n        /* \"#utility.yul\":31534:31568   */\n      swap3\n      pop\n        /* \"#utility.yul\":31293:31578   */\n      pop\n        /* \"#utility.yul\":31289:31290   */\n      0x01\n        /* \"#utility.yul\":31286:31287   */\n      dup2\n        /* \"#utility.yul\":31282:31291   */\n      add\n        /* \"#utility.yul\":31277:31291   */\n      swap1\n      pop\n        /* \"#utility.yul\":31243:31578   */\n      jump(tag_707)\n    tag_709:\n        /* \"#utility.yul\":31247:31261   */\n      pop\n        /* \"#utility.yul\":30830:31584   */\n      pop\n      pop\n      pop\n        /* \"#utility.yul\":30661:31584   */\n      pop\n      pop\n      pop\n      jump\t// out\n        /* \"#utility.yul\":31590:31950   */\n    tag_357:\n        /* \"#utility.yul\":31779:31944   */\n      tag_712\n        /* \"#utility.yul\":31936:31943   */\n      dup4\n        /* \"#utility.yul\":31927:31934   */\n      dup4\n        /* \"#utility.yul\":31921:31925   */\n      dup4\n        /* \"#utility.yul\":31779:31944   */\n      tag_356\n      jump\t// in\n    tag_712:\n        /* \"#utility.yul\":31590:31950   */\n      pop\n      pop\n      pop\n      jump\t// out\n        /* \"#utility.yul\":31956:33285   */\n    tag_358:\n        /* \"#utility.yul\":32122:32123   */\n      0x00\n        /* \"#utility.yul\":32116:32120   */\n      dup2\n        /* \"#utility.yul\":32112:32124   */\n      add\n        /* \"#utility.yul\":32168:32169   */\n      0x00\n        /* \"#utility.yul\":32161:32166   */\n      dup4\n        /* \"#utility.yul\":32157:32170   */\n      add\n        /* \"#utility.yul\":32233:32296   */\n      tag_714\n        /* \"#utility.yul\":32283:32295   */\n      dup2\n        /* \"#utility.yul\":32276:32281   */\n      dup6\n        /* \"#utility.yul\":32233:32296   */\n      tag_120\n      jump\t// in\n    tag_714:\n        /* \"#utility.yul\":32310:32423   */\n      tag_715\n        /* \"#utility.yul\":32409:32422   */\n      dup2\n        /* \"#utility.yul\":32394:32407   */\n      dup4\n        /* \"#utility.yul\":32382:32392   */\n      dup7\n        /* \"#utility.yul\":32310:32423   */\n      tag_328\n      jump\t// in\n    tag_715:\n        /* \"#utility.yul\":32079:32434   */\n      pop\n      pop\n      pop\n      pop\n        /* \"#utility.yul\":32487:32488   */\n      0x01\n        /* \"#utility.yul\":32481:32485   */\n      dup2\n        /* \"#utility.yul\":32477:32489   */\n      add\n        /* \"#utility.yul\":32533:32535   */\n      0x20\n        /* \"#utility.yul\":32526:32531   */\n      dup4\n        /* \"#utility.yul\":32522:32536   */\n      add\n        /* \"#utility.yul\":32599:32662   */\n      tag_716\n        /* \"#utility.yul\":32649:32661   */\n      dup2\n        /* \"#utility.yul\":32642:32647   */\n      dup6\n        /* \"#utility.yul\":32599:32662   */\n      tag_120\n      jump\t// in\n    tag_716:\n        /* \"#utility.yul\":32676:32789   */\n      tag_717\n        /* \"#utility.yul\":32775:32788   */\n      dup2\n        /* \"#utility.yul\":32760:32773   */\n      dup4\n        /* \"#utility.yul\":32748:32758   */\n      dup7\n        /* \"#utility.yul\":32676:32789   */\n      tag_328\n      jump\t// in\n    tag_717:\n        /* \"#utility.yul\":32444:32800   */\n      pop\n      pop\n      pop\n      pop\n        /* \"#utility.yul\":32853:32854   */\n      0x02\n        /* \"#utility.yul\":32847:32851   */\n      dup2\n        /* \"#utility.yul\":32843:32855   */\n      add\n        /* \"#utility.yul\":32899:32901   */\n      0x40\n        /* \"#utility.yul\":32892:32897   */\n      dup4\n        /* \"#utility.yul\":32888:32902   */\n      add\n        /* \"#utility.yul\":32965:33067   */\n      tag_718\n        /* \"#utility.yul\":33054:33066   */\n      dup2\n        /* \"#utility.yul\":33047:33052   */\n      dup6\n        /* \"#utility.yul\":32965:33067   */\n      tag_158\n      jump\t// in\n    tag_718:\n        /* \"#utility.yul\":33081:33267   */\n      tag_719\n        /* \"#utility.yul\":33253:33266   */\n      dup2\n        /* \"#utility.yul\":33238:33251   */\n      dup4\n        /* \"#utility.yul\":33226:33236   */\n      dup7\n        /* \"#utility.yul\":33081:33267   */\n      tag_357\n      jump\t// in\n    tag_719:\n        /* \"#utility.yul\":32810:33278   */\n      pop\n      pop\n      pop\n      pop\n        /* \"#utility.yul\":31956:33285   */\n      pop\n      pop\n      jump\t// out\n        /* \"#utility.yul\":33291:33528   */\n    tag_166:\n        /* \"#utility.yul\":33418:33522   */\n      tag_721\n        /* \"#utility.yul\":33514:33521   */\n      dup3\n        /* \"#utility.yul\":33508:33512   */\n      dup3\n        /* \"#utility.yul\":33418:33522   */\n      tag_358\n      jump\t// in\n    tag_721:\n        /* \"#utility.yul\":33291:33528   */\n      pop\n      pop\n      jump\t// out\n        /* \"#utility.yul\":33534:33714   */\n    tag_190:\n        /* \"#utility.yul\":33582:33659   */\n      0x4e487b7100000000000000000000000000000000000000000000000000000000\n        /* \"#utility.yul\":33579:33580   */\n      0x00\n        /* \"#utility.yul\":33572:33660   */\n      mstore\n        /* \"#utility.yul\":33679:33683   */\n      0x32\n        /* \"#utility.yul\":33676:33677   */\n      0x04\n        /* \"#utility.yul\":33669:33684   */\n      mstore\n        /* \"#utility.yul\":33703:33707   */\n      0x24\n        /* \"#utility.yul\":33700:33701   */\n      0x00\n        /* \"#utility.yul\":33693:33708   */\n      revert\n        /* \"#utility.yul\":33720:33857   */\n    tag_359:\n        /* \"#utility.yul\":33765:33770   */\n      0x00\n        /* \"#utility.yul\":33803:33809   */\n      dup2\n        /* \"#utility.yul\":33790:33810   */\n      calldataload\n        /* \"#utility.yul\":33781:33810   */\n      swap1\n      pop\n        /* \"#utility.yul\":33819:33851   */\n      tag_724\n        /* \"#utility.yul\":33845:33850   */\n      dup2\n        /* \"#utility.yul\":33819:33851   */\n      tag_347\n      jump\t// in\n    tag_724:\n        /* \"#utility.yul\":33720:33857   */\n      swap3\n      swap2\n      pop\n      pop\n      jump\t// out\n        /* \"#utility.yul\":33863:34190   */\n    tag_193:\n        /* \"#utility.yul\":33921:33927   */\n      0x00\n        /* \"#utility.yul\":33970:33972   */\n      0x20\n        /* \"#utility.yul\":33958:33967   */\n      dup3\n        /* \"#utility.yul\":33949:33956   */\n      dup5\n        /* \"#utility.yul\":33945:33968   */\n      sub\n        /* \"#utility.yul\":33941:33973   */\n      slt\n        /* \"#utility.yul\":33938:34057   */\n      iszero\n      tag_726\n      jumpi\n        /* \"#utility.yul\":33976:34055   */\n      tag_727\n      tag_263\n      jump\t// in\n    tag_727:\n        /* \"#utility.yul\":33938:34057   */\n    tag_726:\n        /* \"#utility.yul\":34096:34097   */\n      0x00\n        /* \"#utility.yul\":34121:34173   */\n      tag_728\n        /* \"#utility.yul\":34165:34172   */\n      dup5\n        /* \"#utility.yul\":34156:34162   */\n      dup3\n        /* \"#utility.yul\":34145:34154   */\n      dup6\n        /* \"#utility.yul\":34141:34163   */\n      add\n        /* \"#utility.yul\":34121:34173   */\n      tag_359\n      jump\t// in\n    tag_728:\n        /* \"#utility.yul\":34111:34173   */\n      swap2\n      pop\n        /* \"#utility.yul\":34067:34183   */\n      pop\n        /* \"#utility.yul\":33863:34190   */\n      swap3\n      swap2\n      pop\n      pop\n      jump\t// out\n        /* \"#utility.yul\":34196:34313   */\n    tag_360:\n        /* \"#utility.yul\":34305:34306   */\n      0x00\n        /* \"#utility.yul\":34302:34303   */\n      0x00\n        /* \"#utility.yul\":34295:34307   */\n      revert\n        /* \"#utility.yul\":34442:34533   */\n    tag_362:\n        /* \"#utility.yul\":34478:34485   */\n      0x00\n        /* \"#utility.yul\":34518:34526   */\n      0xffffff\n        /* \"#utility.yul\":34511:34516   */\n      dup3\n        /* \"#utility.yul\":34507:34527   */\n      and\n        /* \"#utility.yul\":34496:34527   */\n      swap1\n      pop\n        /* \"#utility.yul\":34442:34533   */\n      swap2\n      swap1\n      pop\n      jump\t// out\n        /* \"#utility.yul\":34539:34659   */\n    tag_363:\n        /* \"#utility.yul\":34611:34634   */\n      tag_733\n        /* \"#utility.yul\":34628:34633   */\n      dup2\n        /* \"#utility.yul\":34611:34634   */\n      tag_362\n      jump\t// in\n    tag_733:\n        /* \"#utility.yul\":34604:34609   */\n      dup2\n        /* \"#utility.yul\":34601:34635   */\n      eq\n        /* \"#utility.yul\":34591:34653   */\n      tag_734\n      jumpi\n        /* \"#utility.yul\":34649:34650   */\n      0x00\n        /* \"#utility.yul\":34646:34647   */\n      0x00\n        /* \"#utility.yul\":34639:34651   */\n      revert\n        /* \"#utility.yul\":34591:34653   */\n    tag_734:\n        /* \"#utility.yul\":34539:34659   */\n      pop\n      jump\t// out\n        /* \"#utility.yul\":34665:34806   */\n    tag_364:\n        /* \"#utility.yul\":34721:34726   */\n      0x00\n        /* \"#utility.yul\":34752:34758   */\n      dup2\n        /* \"#utility.yul\":34746:34759   */\n      mload\n        /* \"#utility.yul\":34737:34759   */\n      swap1\n      pop\n        /* \"#utility.yul\":34768:34800   */\n      tag_736\n        /* \"#utility.yul\":34794:34799   */\n      dup2\n        /* \"#utility.yul\":34768:34800   */\n      tag_363\n      jump\t// in\n    tag_736:\n        /* \"#utility.yul\":34665:34806   */\n      swap3\n      swap2\n      pop\n      pop\n      jump\t// out\n        /* \"#utility.yul\":34812:34898   */\n    tag_365:\n        /* \"#utility.yul\":34847:34854   */\n      0x00\n        /* \"#utility.yul\":34887:34891   */\n      0xff\n        /* \"#utility.yul\":34880:34885   */\n      dup3\n        /* \"#utility.yul\":34876:34892   */\n      and\n        /* \"#utility.yul\":34865:34892   */\n      swap1\n      pop\n        /* \"#utility.yul\":34812:34898   */\n      swap2\n      swap1\n      pop\n      jump\t// out\n        /* \"#utility.yul\":34904:35022   */\n    tag_366:\n        /* \"#utility.yul\":34975:34997   */\n      tag_739\n        /* \"#utility.yul\":34991:34996   */\n      dup2\n        /* \"#utility.yul\":34975:34997   */\n      tag_365\n      jump\t// in\n    tag_739:\n        /* \"#utility.yul\":34968:34973   */\n      dup2\n        /* \"#utility.yul\":34965:34998   */\n      eq\n        /* \"#utility.yul\":34955:35016   */\n      tag_740\n      jumpi\n        /* \"#utility.yul\":35012:35013   */\n      0x00\n        /* \"#utility.yul\":35009:35010   */\n      0x00\n        /* \"#utility.yul\":35002:35014   */\n      revert\n        /* \"#utility.yul\":34955:35016   */\n    tag_740:\n        /* \"#utility.yul\":34904:35022   */\n      pop\n      jump\t// out\n        /* \"#utility.yul\":35028:35167   */\n    tag_367:\n        /* \"#utility.yul\":35083:35088   */\n      0x00\n        /* \"#utility.yul\":35114:35120   */\n      dup2\n        /* \"#utility.yul\":35108:35121   */\n      mload\n        /* \"#utility.yul\":35099:35121   */\n      swap1\n      pop\n        /* \"#utility.yul\":35130:35161   */\n      tag_742\n        /* \"#utility.yul\":35155:35160   */\n      dup2\n        /* \"#utility.yul\":35130:35161   */\n      tag_366\n      jump\t// in\n    tag_742:\n        /* \"#utility.yul\":35028:35167   */\n      swap3\n      swap2\n      pop\n      pop\n      jump\t// out\n        /* \"#utility.yul\":35173:35274   */\n    tag_368:\n        /* \"#utility.yul\":35209:35216   */\n      0x00\n        /* \"#utility.yul\":35249:35267   */\n      0xffffffffffffffff\n        /* \"#utility.yul\":35242:35247   */\n      dup3\n        /* \"#utility.yul\":35238:35268   */\n      and\n        /* \"#utility.yul\":35227:35268   */\n      swap1\n      pop\n        /* \"#utility.yul\":35173:35274   */\n      swap2\n      swap1\n      pop\n      jump\t// out\n        /* \"#utility.yul\":35280:35400   */\n    tag_369:\n        /* \"#utility.yul\":35352:35375   */\n      tag_745\n        /* \"#utility.yul\":35369:35374   */\n      dup2\n        /* \"#utility.yul\":35352:35375   */\n      tag_368\n      jump\t// in\n    tag_745:\n        /* \"#utility.yul\":35345:35350   */\n      dup2\n        /* \"#utility.yul\":35342:35376   */\n      eq\n        /* \"#utility.yul\":35332:35394   */\n      tag_746\n      jumpi\n        /* \"#utility.yul\":35390:35391   */\n      0x00\n        /* \"#utility.yul\":35387:35388   */\n      0x00\n        /* \"#utility.yul\":35380:35392   */\n      revert\n        /* \"#utility.yul\":35332:35394   */\n    tag_746:\n        /* \"#utility.yul\":35280:35400   */\n      pop\n      jump\t// out\n        /* \"#utility.yul\":35406:35547   */\n    tag_370:\n        /* \"#utility.yul\":35462:35467   */\n      0x00\n        /* \"#utility.yul\":35493:35499   */\n      dup2\n        /* \"#utility.yul\":35487:35500   */\n      mload\n        /* \"#utility.yul\":35478:35500   */\n      swap1\n      pop\n        /* \"#utility.yul\":35509:35541   */\n      tag_748\n        /* \"#utility.yul\":35535:35540   */\n      dup2\n        /* \"#utility.yul\":35509:35541   */\n      tag_369\n      jump\t// in\n    tag_748:\n        /* \"#utility.yul\":35406:35547   */\n      swap3\n      swap2\n      pop\n      pop\n      jump\t// out\n        /* \"#utility.yul\":35572:36536   */\n    tag_371:\n        /* \"#utility.yul\":35654:35659   */\n      0x00\n        /* \"#utility.yul\":35698:35702   */\n      0x80\n        /* \"#utility.yul\":35686:35695   */\n      dup3\n        /* \"#utility.yul\":35681:35684   */\n      dup5\n        /* \"#utility.yul\":35677:35696   */\n      sub\n        /* \"#utility.yul\":35673:35703   */\n      slt\n        /* \"#utility.yul\":35670:35787   */\n      iszero\n      tag_750\n      jumpi\n        /* \"#utility.yul\":35706:35785   */\n      tag_751\n      tag_360\n      jump\t// in\n    tag_751:\n        /* \"#utility.yul\":35670:35787   */\n    tag_750:\n        /* \"#utility.yul\":35805:35826   */\n      tag_752\n        /* \"#utility.yul\":35821:35825   */\n      0x80\n        /* \"#utility.yul\":35805:35826   */\n      tag_272\n      jump\t// in\n    tag_752:\n        /* \"#utility.yul\":35796:35826   */\n      swap1\n      pop\n        /* \"#utility.yul\":35892:35893   */\n      0x00\n        /* \"#utility.yul\":35932:35992   */\n      tag_753\n        /* \"#utility.yul\":35988:35991   */\n      dup5\n        /* \"#utility.yul\":35979:35985   */\n      dup3\n        /* \"#utility.yul\":35968:35977   */\n      dup6\n        /* \"#utility.yul\":35964:35986   */\n      add\n        /* \"#utility.yul\":35932:35992   */\n      tag_296\n      jump\t// in\n    tag_753:\n        /* \"#utility.yul\":35925:35929   */\n      0x00\n        /* \"#utility.yul\":35918:35923   */\n      dup4\n        /* \"#utility.yul\":35914:35930   */\n      add\n        /* \"#utility.yul\":35907:35993   */\n      mstore\n        /* \"#utility.yul\":35836:36004   */\n      pop\n        /* \"#utility.yul\":36066:36068   */\n      0x20\n        /* \"#utility.yul\":36107:36166   */\n      tag_754\n        /* \"#utility.yul\":36162:36165   */\n      dup5\n        /* \"#utility.yul\":36153:36159   */\n      dup3\n        /* \"#utility.yul\":36142:36151   */\n      dup6\n        /* \"#utility.yul\":36138:36160   */\n      add\n        /* \"#utility.yul\":36107:36166   */\n      tag_364\n      jump\t// in\n    tag_754:\n        /* \"#utility.yul\":36100:36104   */\n      0x20\n        /* \"#utility.yul\":36093:36098   */\n      dup4\n        /* \"#utility.yul\":36089:36105   */\n      add\n        /* \"#utility.yul\":36082:36167   */\n      mstore\n        /* \"#utility.yul\":36014:36178   */\n      pop\n        /* \"#utility.yul\":36241:36243   */\n      0x40\n        /* \"#utility.yul\":36282:36340   */\n      tag_755\n        /* \"#utility.yul\":36336:36339   */\n      dup5\n        /* \"#utility.yul\":36327:36333   */\n      dup3\n        /* \"#utility.yul\":36316:36325   */\n      dup6\n        /* \"#utility.yul\":36312:36334   */\n      add\n        /* \"#utility.yul\":36282:36340   */\n      tag_367\n      jump\t// in\n    tag_755:\n        /* \"#utility.yul\":36275:36279   */\n      0x40\n        /* \"#utility.yul\":36268:36273   */\n      dup4\n        /* \"#utility.yul\":36264:36280   */\n      add\n        /* \"#utility.yul\":36257:36341   */\n      mstore\n        /* \"#utility.yul\":36188:36352   */\n      pop\n        /* \"#utility.yul\":36417:36419   */\n      0x60\n        /* \"#utility.yul\":36458:36517   */\n      tag_756\n        /* \"#utility.yul\":36513:36516   */\n      dup5\n        /* \"#utility.yul\":36504:36510   */\n      dup3\n        /* \"#utility.yul\":36493:36502   */\n      dup6\n        /* \"#utility.yul\":36489:36511   */\n      add\n        /* \"#utility.yul\":36458:36517   */\n      tag_370\n      jump\t// in\n    tag_756:\n        /* \"#utility.yul\":36451:36455   */\n      0x60\n        /* \"#utility.yul\":36444:36449   */\n      dup4\n        /* \"#utility.yul\":36440:36456   */\n      add\n        /* \"#utility.yul\":36433:36518   */\n      mstore\n        /* \"#utility.yul\":36362:36529   */\n      pop\n        /* \"#utility.yul\":35572:36536   */\n      swap3\n      swap2\n      pop\n      pop\n      jump\t// out\n        /* \"#utility.yul\":36542:36938   */\n    tag_201:\n        /* \"#utility.yul\":36634:36640   */\n      0x00\n        /* \"#utility.yul\":36683:36686   */\n      0x80\n        /* \"#utility.yul\":36671:36680   */\n      dup3\n        /* \"#utility.yul\":36662:36669   */\n      dup5\n        /* \"#utility.yul\":36658:36681   */\n      sub\n        /* \"#utility.yul\":36654:36687   */\n      slt\n        /* \"#utility.yul\":36651:36771   */\n      iszero\n      tag_758\n      jumpi\n        /* \"#utility.yul\":36690:36769   */\n      tag_759\n      tag_263\n      jump\t// in\n    tag_759:\n        /* \"#utility.yul\":36651:36771   */\n    tag_758:\n        /* \"#utility.yul\":36810:36811   */\n      0x00\n        /* \"#utility.yul\":36835:36921   */\n      tag_760\n        /* \"#utility.yul\":36913:36920   */\n      dup5\n        /* \"#utility.yul\":36904:36910   */\n      dup3\n        /* \"#utility.yul\":36893:36902   */\n      dup6\n        /* \"#utility.yul\":36889:36911   */\n      add\n        /* \"#utility.yul\":36835:36921   */\n      tag_371\n      jump\t// in\n    tag_760:\n        /* \"#utility.yul\":36825:36921   */\n      swap2\n      pop\n        /* \"#utility.yul\":36781:36931   */\n      pop\n        /* \"#utility.yul\":36542:36938   */\n      swap3\n      swap2\n      pop\n      pop\n      jump\t// out\n        /* \"#utility.yul\":36964:37548   */\n    tag_372:\n        /* \"#utility.yul\":37035:37040   */\n      0x00\n        /* \"#utility.yul\":37079:37083   */\n      0x40\n        /* \"#utility.yul\":37067:37076   */\n      dup3\n        /* \"#utility.yul\":37062:37065   */\n      dup5\n        /* \"#utility.yul\":37058:37077   */\n      sub\n        /* \"#utility.yul\":37054:37084   */\n      slt\n        /* \"#utility.yul\":37051:37168   */\n      iszero\n      tag_762\n      jumpi\n        /* \"#utility.yul\":37087:37166   */\n      tag_763\n      tag_360\n      jump\t// in\n    tag_763:\n        /* \"#utility.yul\":37051:37168   */\n    tag_762:\n        /* \"#utility.yul\":37186:37207   */\n      tag_764\n        /* \"#utility.yul\":37202:37206   */\n      0x40\n        /* \"#utility.yul\":37186:37207   */\n      tag_272\n      jump\t// in\n    tag_764:\n        /* \"#utility.yul\":37177:37207   */\n      swap1\n      pop\n        /* \"#utility.yul\":37274:37275   */\n      0x00\n        /* \"#utility.yul\":37314:37363   */\n      tag_765\n        /* \"#utility.yul\":37359:37362   */\n      dup5\n        /* \"#utility.yul\":37350:37356   */\n      dup3\n        /* \"#utility.yul\":37339:37348   */\n      dup6\n        /* \"#utility.yul\":37335:37357   */\n      add\n        /* \"#utility.yul\":37314:37363   */\n      tag_284\n      jump\t// in\n    tag_765:\n        /* \"#utility.yul\":37307:37311   */\n      0x00\n        /* \"#utility.yul\":37300:37305   */\n      dup4\n        /* \"#utility.yul\":37296:37312   */\n      add\n        /* \"#utility.yul\":37289:37364   */\n      mstore\n        /* \"#utility.yul\":37217:37375   */\n      pop\n        /* \"#utility.yul\":37440:37442   */\n      0x20\n        /* \"#utility.yul\":37481:37529   */\n      tag_766\n        /* \"#utility.yul\":37525:37528   */\n      dup5\n        /* \"#utility.yul\":37516:37522   */\n      dup3\n        /* \"#utility.yul\":37505:37514   */\n      dup6\n        /* \"#utility.yul\":37501:37523   */\n      add\n        /* \"#utility.yul\":37481:37529   */\n      tag_359\n      jump\t// in\n    tag_766:\n        /* \"#utility.yul\":37474:37478   */\n      0x20\n        /* \"#utility.yul\":37467:37472   */\n      dup4\n        /* \"#utility.yul\":37463:37479   */\n      add\n        /* \"#utility.yul\":37456:37530   */\n      mstore\n        /* \"#utility.yul\":37385:37541   */\n      pop\n        /* \"#utility.yul\":36964:37548   */\n      swap3\n      swap2\n      pop\n      pop\n      jump\t// out\n        /* \"#utility.yul\":37554:37927   */\n    tag_207:\n        /* \"#utility.yul\":37635:37641   */\n      0x00\n        /* \"#utility.yul\":37684:37686   */\n      0x40\n        /* \"#utility.yul\":37672:37681   */\n      dup3\n        /* \"#utility.yul\":37663:37670   */\n      dup5\n        /* \"#utility.yul\":37659:37682   */\n      sub\n        /* \"#utility.yul\":37655:37687   */\n      slt\n        /* \"#utility.yul\":37652:37771   */\n      iszero\n      tag_768\n      jumpi\n        /* \"#utility.yul\":37690:37769   */\n      tag_769\n      tag_263\n      jump\t// in\n    tag_769:\n        /* \"#utility.yul\":37652:37771   */\n    tag_768:\n        /* \"#utility.yul\":37810:37811   */\n      0x00\n        /* \"#utility.yul\":37835:37910   */\n      tag_770\n        /* \"#utility.yul\":37902:37909   */\n      dup5\n        /* \"#utility.yul\":37893:37899   */\n      dup3\n        /* \"#utility.yul\":37882:37891   */\n      dup6\n        /* \"#utility.yul\":37878:37900   */\n      add\n        /* \"#utility.yul\":37835:37910   */\n      tag_372\n      jump\t// in\n    tag_770:\n        /* \"#utility.yul\":37825:37910   */\n      swap2\n      pop\n        /* \"#utility.yul\":37781:37920   */\n      pop\n        /* \"#utility.yul\":37554:37927   */\n      swap3\n      swap2\n      pop\n      pop\n      jump\t// out\n        /* \"#utility.yul\":37933:38127   */\n    tag_219:\n        /* \"#utility.yul\":37973:37977   */\n      0x00\n        /* \"#utility.yul\":37993:38013   */\n      tag_772\n        /* \"#utility.yul\":38011:38012   */\n      dup3\n        /* \"#utility.yul\":37993:38013   */\n      tag_265\n      jump\t// in\n    tag_772:\n        /* \"#utility.yul\":37988:38013   */\n      swap2\n      pop\n        /* \"#utility.yul\":38027:38047   */\n      tag_773\n        /* \"#utility.yul\":38045:38046   */\n      dup4\n        /* \"#utility.yul\":38027:38047   */\n      tag_265\n      jump\t// in\n    tag_773:\n        /* \"#utility.yul\":38022:38047   */\n      swap3\n      pop\n        /* \"#utility.yul\":38071:38072   */\n      dup3\n        /* \"#utility.yul\":38068:38069   */\n      dup3\n        /* \"#utility.yul\":38064:38073   */\n      sub\n        /* \"#utility.yul\":38056:38073   */\n      swap1\n      pop\n        /* \"#utility.yul\":38095:38096   */\n      dup2\n        /* \"#utility.yul\":38089:38093   */\n      dup2\n        /* \"#utility.yul\":38086:38097   */\n      gt\n        /* \"#utility.yul\":38083:38120   */\n      iszero\n      tag_774\n      jumpi\n        /* \"#utility.yul\":38100:38118   */\n      tag_775\n      tag_291\n      jump\t// in\n    tag_775:\n        /* \"#utility.yul\":38083:38120   */\n    tag_774:\n        /* \"#utility.yul\":37933:38127   */\n      swap3\n      swap2\n      pop\n      pop\n      jump\t// out\n        /* \"#utility.yul\":38133:38280   */\n    tag_373:\n        /* \"#utility.yul\":38234:38245   */\n      0x00\n        /* \"#utility.yul\":38271:38274   */\n      dup2\n        /* \"#utility.yul\":38256:38274   */\n      swap1\n      pop\n        /* \"#utility.yul\":38133:38280   */\n      swap3\n      swap2\n      pop\n      pop\n      jump\t// out\n        /* \"#utility.yul\":38308:38635   */\n    tag_374:\n        /* \"#utility.yul\":38422:38425   */\n      0x00\n        /* \"#utility.yul\":38443:38531   */\n      tag_778\n        /* \"#utility.yul\":38524:38530   */\n      dup4\n        /* \"#utility.yul\":38519:38522   */\n      dup6\n        /* \"#utility.yul\":38443:38531   */\n      tag_373\n      jump\t// in\n    tag_778:\n        /* \"#utility.yul\":38436:38531   */\n      swap4\n      pop\n        /* \"#utility.yul\":38541:38597   */\n      tag_779\n        /* \"#utility.yul\":38590:38596   */\n      dup4\n        /* \"#utility.yul\":38585:38588   */\n      dup6\n        /* \"#utility.yul\":38578:38583   */\n      dup5\n        /* \"#utility.yul\":38541:38597   */\n      tag_274\n      jump\t// in\n    tag_779:\n        /* \"#utility.yul\":38622:38628   */\n      dup3\n        /* \"#utility.yul\":38617:38620   */\n      dup5\n        /* \"#utility.yul\":38613:38629   */\n      add\n        /* \"#utility.yul\":38606:38629   */\n      swap1\n      pop\n        /* \"#utility.yul\":38308:38635   */\n      swap4\n      swap3\n      pop\n      pop\n      pop\n      jump\t// out\n        /* \"#utility.yul\":38641:38932   */\n    tag_235:\n        /* \"#utility.yul\":38781:38784   */\n      0x00\n        /* \"#utility.yul\":38803:38906   */\n      tag_781\n        /* \"#utility.yul\":38902:38905   */\n      dup3\n        /* \"#utility.yul\":38893:38899   */\n      dup5\n        /* \"#utility.yul\":38885:38891   */\n      dup7\n        /* \"#utility.yul\":38803:38906   */\n      tag_374\n      jump\t// in\n    tag_781:\n        /* \"#utility.yul\":38796:38906   */\n      swap2\n      pop\n        /* \"#utility.yul\":38923:38926   */\n      dup2\n        /* \"#utility.yul\":38916:38926   */\n      swap1\n      pop\n        /* \"#utility.yul\":38641:38932   */\n      swap4\n      swap3\n      pop\n      pop\n      pop\n      jump\t// out\n        /* \"#utility.yul\":38938:39074   */\n    tag_375:\n        /* \"#utility.yul\":39027:39033   */\n      0x00\n        /* \"#utility.yul\":39061:39066   */\n      dup2\n        /* \"#utility.yul\":39055:39067   */\n      mload\n        /* \"#utility.yul\":39045:39067   */\n      swap1\n      pop\n        /* \"#utility.yul\":38938:39074   */\n      swap2\n      swap1\n      pop\n      jump\t// out\n        /* \"#utility.yul\":39080:39286   */\n    tag_376:\n        /* \"#utility.yul\":39201:39212   */\n      0x00\n        /* \"#utility.yul\":39235:39241   */\n      dup3\n        /* \"#utility.yul\":39230:39233   */\n      dup3\n        /* \"#utility.yul\":39223:39242   */\n      mstore\n        /* \"#utility.yul\":39275:39279   */\n      0x20\n        /* \"#utility.yul\":39270:39273   */\n      dup3\n        /* \"#utility.yul\":39266:39280   */\n      add\n        /* \"#utility.yul\":39251:39280   */\n      swap1\n      pop\n        /* \"#utility.yul\":39080:39286   */\n      swap3\n      swap2\n      pop\n      pop\n      jump\t// out\n        /* \"#utility.yul\":39292:39446   */\n    tag_377:\n        /* \"#utility.yul\":39381:39385   */\n      0x00\n        /* \"#utility.yul\":39404:39407   */\n      dup2\n        /* \"#utility.yul\":39396:39407   */\n      swap1\n      pop\n        /* \"#utility.yul\":39434:39438   */\n      0x20\n        /* \"#utility.yul\":39429:39432   */\n      dup3\n        /* \"#utility.yul\":39425:39439   */\n      add\n        /* \"#utility.yul\":39417:39439   */\n      swap1\n      pop\n        /* \"#utility.yul\":39292:39446   */\n      swap2\n      swap1\n      pop\n      jump\t// out\n        /* \"#utility.yul\":39452:39560   */\n    tag_378:\n        /* \"#utility.yul\":39529:39553   */\n      tag_786\n        /* \"#utility.yul\":39547:39552   */\n      dup2\n        /* \"#utility.yul\":39529:39553   */\n      tag_260\n      jump\t// in\n    tag_786:\n        /* \"#utility.yul\":39524:39527   */\n      dup3\n        /* \"#utility.yul\":39517:39554   */\n      mstore\n        /* \"#utility.yul\":39452:39560   */\n      pop\n      pop\n      jump\t// out\n        /* \"#utility.yul\":39566:39671   */\n    tag_379:\n        /* \"#utility.yul\":39641:39664   */\n      tag_788\n        /* \"#utility.yul\":39658:39663   */\n      dup2\n        /* \"#utility.yul\":39641:39664   */\n      tag_346\n      jump\t// in\n    tag_788:\n        /* \"#utility.yul\":39636:39639   */\n      dup3\n        /* \"#utility.yul\":39629:39665   */\n      mstore\n        /* \"#utility.yul\":39566:39671   */\n      pop\n      pop\n      jump\t// out\n        /* \"#utility.yul\":39713:40216   */\n    tag_380:\n        /* \"#utility.yul\":39844:39848   */\n      0x40\n        /* \"#utility.yul\":39839:39842   */\n      dup3\n        /* \"#utility.yul\":39835:39849   */\n      add\n        /* \"#utility.yul\":39939:39943   */\n      0x00\n        /* \"#utility.yul\":39932:39937   */\n      dup3\n        /* \"#utility.yul\":39928:39944   */\n      add\n        /* \"#utility.yul\":39922:39945   */\n      mload\n        /* \"#utility.yul\":39958:40021   */\n      tag_790\n        /* \"#utility.yul\":40015:40019   */\n      0x00\n        /* \"#utility.yul\":40010:40013   */\n      dup6\n        /* \"#utility.yul\":40006:40020   */\n      add\n        /* \"#utility.yul\":39992:40004   */\n      dup3\n        /* \"#utility.yul\":39958:40021   */\n      tag_378\n      jump\t// in\n    tag_790:\n        /* \"#utility.yul\":39859:40031   */\n      pop\n        /* \"#utility.yul\":40119:40123   */\n      0x20\n        /* \"#utility.yul\":40112:40117   */\n      dup3\n        /* \"#utility.yul\":40108:40124   */\n      add\n        /* \"#utility.yul\":40102:40125   */\n      mload\n        /* \"#utility.yul\":40138:40199   */\n      tag_791\n        /* \"#utility.yul\":40193:40197   */\n      0x20\n        /* \"#utility.yul\":40188:40191   */\n      dup6\n        /* \"#utility.yul\":40184:40198   */\n      add\n        /* \"#utility.yul\":40170:40182   */\n      dup3\n        /* \"#utility.yul\":40138:40199   */\n      tag_379\n      jump\t// in\n    tag_791:\n        /* \"#utility.yul\":40041:40209   */\n      pop\n        /* \"#utility.yul\":39813:40216   */\n      pop\n        /* \"#utility.yul\":39713:40216   */\n      pop\n      pop\n      jump\t// out\n        /* \"#utility.yul\":40222:40489   */\n    tag_381:\n        /* \"#utility.yul\":40335:40345   */\n      0x00\n        /* \"#utility.yul\":40356:40446   */\n      tag_793\n        /* \"#utility.yul\":40442:40445   */\n      dup4\n        /* \"#utility.yul\":40434:40440   */\n      dup4\n        /* \"#utility.yul\":40356:40446   */\n      tag_380\n      jump\t// in\n    tag_793:\n        /* \"#utility.yul\":40478:40482   */\n      0x40\n        /* \"#utility.yul\":40473:40476   */\n      dup4\n        /* \"#utility.yul\":40469:40483   */\n      add\n        /* \"#utility.yul\":40455:40483   */\n      swap1\n      pop\n        /* \"#utility.yul\":40222:40489   */\n      swap3\n      swap2\n      pop\n      pop\n      jump\t// out\n        /* \"#utility.yul\":40495:40630   */\n    tag_382:\n        /* \"#utility.yul\":40587:40591   */\n      0x00\n        /* \"#utility.yul\":40619:40623   */\n      0x20\n        /* \"#utility.yul\":40614:40617   */\n      dup3\n        /* \"#utility.yul\":40610:40624   */\n      add\n        /* \"#utility.yul\":40602:40624   */\n      swap1\n      pop\n        /* \"#utility.yul\":40495:40630   */\n      swap2\n      swap1\n      pop\n      jump\t// out\n        /* \"#utility.yul\":40676:41584   */\n    tag_383:\n        /* \"#utility.yul\":40839:40842   */\n      0x00\n        /* \"#utility.yul\":40868:40944   */\n      tag_796\n        /* \"#utility.yul\":40938:40943   */\n      dup3\n        /* \"#utility.yul\":40868:40944   */\n      tag_375\n      jump\t// in\n    tag_796:\n        /* \"#utility.yul\":40960:41068   */\n      tag_797\n        /* \"#utility.yul\":41061:41067   */\n      dup2\n        /* \"#utility.yul\":41056:41059   */\n      dup6\n        /* \"#utility.yul\":40960:41068   */\n      tag_376\n      jump\t// in\n    tag_797:\n        /* \"#utility.yul\":40953:41068   */\n      swap4\n      pop\n        /* \"#utility.yul\":41092:41170   */\n      tag_798\n        /* \"#utility.yul\":41164:41169   */\n      dup4\n        /* \"#utility.yul\":41092:41170   */\n      tag_377\n      jump\t// in\n    tag_798:\n        /* \"#utility.yul\":41193:41200   */\n      dup1\n        /* \"#utility.yul\":41224:41225   */\n      0x00\n        /* \"#utility.yul\":41209:41559   */\n    tag_799:\n        /* \"#utility.yul\":41234:41240   */\n      dup4\n        /* \"#utility.yul\":41231:41232   */\n      dup2\n        /* \"#utility.yul\":41228:41241   */\n      lt\n        /* \"#utility.yul\":41209:41559   */\n      iszero\n      tag_801\n      jumpi\n        /* \"#utility.yul\":41310:41316   */\n      dup2\n        /* \"#utility.yul\":41304:41317   */\n      mload\n        /* \"#utility.yul\":41337:41444   */\n      tag_802\n        /* \"#utility.yul\":41440:41443   */\n      dup9\n        /* \"#utility.yul\":41425:41438   */\n      dup3\n        /* \"#utility.yul\":41337:41444   */\n      tag_381\n      jump\t// in\n    tag_802:\n        /* \"#utility.yul\":41330:41444   */\n      swap8\n      pop\n        /* \"#utility.yul\":41467:41549   */\n      tag_803\n        /* \"#utility.yul\":41542:41548   */\n      dup4\n        /* \"#utility.yul\":41467:41549   */\n      tag_382\n      jump\t// in\n    tag_803:\n        /* \"#utility.yul\":41457:41549   */\n      swap3\n      pop\n        /* \"#utility.yul\":41269:41559   */\n      pop\n        /* \"#utility.yul\":41256:41257   */\n      0x01\n        /* \"#utility.yul\":41253:41254   */\n      dup2\n        /* \"#utility.yul\":41249:41258   */\n      add\n        /* \"#utility.yul\":41244:41258   */\n      swap1\n      pop\n        /* \"#utility.yul\":41209:41559   */\n      jump(tag_799)\n    tag_801:\n        /* \"#utility.yul\":41213:41227   */\n      pop\n        /* \"#utility.yul\":41575:41578   */\n      dup6\n        /* \"#utility.yul\":41568:41578   */\n      swap4\n      pop\n        /* \"#utility.yul\":40844:41584   */\n      pop\n      pop\n      pop\n        /* \"#utility.yul\":40676:41584   */\n      swap3\n      swap2\n      pop\n      pop\n      jump\t// out\n        /* \"#utility.yul\":41590:42051   */\n    tag_258:\n        /* \"#utility.yul\":41777:41781   */\n      0x00\n        /* \"#utility.yul\":41815:41817   */\n      0x20\n        /* \"#utility.yul\":41804:41813   */\n      dup3\n        /* \"#utility.yul\":41800:41818   */\n      add\n        /* \"#utility.yul\":41792:41818   */\n      swap1\n      pop\n        /* \"#utility.yul\":41864:41873   */\n      dup2\n        /* \"#utility.yul\":41858:41862   */\n      dup2\n        /* \"#utility.yul\":41854:41874   */\n      sub\n        /* \"#utility.yul\":41850:41851   */\n      0x00\n        /* \"#utility.yul\":41839:41848   */\n      dup4\n        /* \"#utility.yul\":41835:41852   */\n      add\n        /* \"#utility.yul\":41828:41875   */\n      mstore\n        /* \"#utility.yul\":41892:42044   */\n      tag_805\n        /* \"#utility.yul\":42039:42043   */\n      dup2\n        /* \"#utility.yul\":42030:42036   */\n      dup5\n        /* \"#utility.yul\":41892:42044   */\n      tag_383\n      jump\t// in\n    tag_805:\n        /* \"#utility.yul\":41884:42044   */\n      swap1\n      pop\n        /* \"#utility.yul\":41590:42051   */\n      swap3\n      swap2\n      pop\n      pop\n      jump\t// out\n\n    auxdata: 0xa264697066735822122097b1020b82740f0f7ca040937f5a209713b91f93e14fbd9421f9746d1a1620ef64736f6c634300081e0033\n}\n",
				"bytecode": {
					"linkReferences": {},
					"object": "60c0604052670de0b6b3a764000060809081525034801561001e575f5ffd5b50604051612e75380380612e758339818101604052810190610040919061029c565b816100508161008c60201b60201c565b508073ffffffffffffffffffffffffffffffffffffffff1660a08173ffffffffffffffffffffffffffffffffffffffff16815250505050610473565b5f73ffffffffffffffffffffffffffffffffffffffff168173ffffffffffffffffffffffffffffffffffffffff16036100fa576040517f08c379a00000000000000000000000000000000000000000000000000000000081526004016100f190610334565b60405180910390fd5b5f8173ffffffffffffffffffffffffffffffffffffffff163b11610153576040517f08c379a000000000000000000000000000000000000000000000000000000000815260040161014a9061039c565b60405180910390fd5b8073ffffffffffffffffffffffffffffffffffffffff16638da5cb5b6040518163ffffffff1660e01b8152600401602060405180830381865afa9250505080156101bb57506040513d601f19601f820116820180604052508101906101b891906103ba565b60015b6101fa576040517f08c379a00000000000000000000000000000000000000000000000000000000081526004016101f190610455565b60405180910390fd5b8160075f6101000a81548173ffffffffffffffffffffffffffffffffffffffff021916908373ffffffffffffffffffffffffffffffffffffffff1602179055505050565b5f5ffd5b5f73ffffffffffffffffffffffffffffffffffffffff82169050919050565b5f61026b82610242565b9050919050565b61027b81610261565b8114610285575f5ffd5b50565b5f8151905061029681610272565b92915050565b5f5f604083850312156102b2576102b161023e565b5b5f6102bf85828601610288565b92505060206102d085828601610288565b9150509250929050565b5f82825260208201905092915050565b7f4469726563746f72792063616e6e6f74206265207a65726f20616464726573735f82015250565b5f61031e6020836102da565b9150610329826102ea565b602082019050919050565b5f6020820190508181035f83015261034b81610312565b9050919050565b7f4469726563746f7279206d757374206265206120636f6e7472616374000000005f82015250565b5f610386601c836102da565b915061039182610352565b602082019050919050565b5f6020820190508181035f8301526103b38161037a565b9050919050565b5f602082840312156103cf576103ce61023e565b5b5f6103dc84828501610288565b91505092915050565b7f4469726563746f7279206164647265737320646f6573206e6f7420696d706c655f8201527f6d656e74206f776e657228290000000000000000000000000000000000000000602082015250565b5f61043f602c836102da565b915061044a826103e5565b604082019050919050565b5f6020820190508181035f83015261046c81610433565b9050919050565b60805160a0516129da61049b5f395f818161025f0152610faa01525f61041801526129da5ff3fe608060405234801561000f575f5ffd5b50600436106100a7575f3560e01c8063658a847a1161006f578063658a847a146101755780638da5cb5b146101935780639cfe0b3b146101b1578063ba4c7be1146101e1578063f2018a1f146101fd578063fc0121d41461022d576100a7565b8063040141e5146100ab5780631626542c146100c957806327262618146100e55780633ee79962146101155780634eea0e0d14610145575b5f5ffd5b6100b361025d565b6040516100c0919061161f565b60405180910390f35b6100e360048036038101906100de919061167c565b610281565b005b6100ff60048036038101906100fa91906117f6565b6104a3565b60405161010c919061161f565b60405180910390f35b61012f600480360381019061012a919061183d565b610544565b60405161013c919061161f565b60405180910390f35b61015f600480360381019061015a919061183d565b61057d565b60405161016c9190611877565b60405180910390f35b61017d610597565b60405161018a91906118eb565b60405180910390f35b61019b6105bc565b6040516101a8919061161f565b60405180910390f35b6101cb60048036038101906101c6919061183d565b610650565b6040516101d89190611877565b60405180910390f35b6101fb60048036038101906101f6919061192e565b61066a565b005b6102176004803603810190610212919061183d565b610771565b604051610224919061161f565b60405180910390f35b6102476004803603810190610242919061197b565b6107aa565b6040516102549190611877565b60405180910390f35b7f000000000000000000000000000000000000000000000000000000000000000081565b6102bf6040518060400160405280600a81526020017f6574662d726f75746572000000000000000000000000000000000000000000008152506104a3565b73ffffffffffffffffffffffffffffffffffffffff163373ffffffffffffffffffffffffffffffffffffffff161461032c576040517f08c379a000000000000000000000000000000000000000000000000000000000815260040161032390611a1c565b60405180910390fd5b5f8103610365576040517fcca7f00400000000000000000000000000000000000000000000000000000000815260040160405180910390fd5b5f61036e610ab3565b73ffffffffffffffffffffffffffffffffffffffff16636855e9396040518163ffffffff1660e01b8152600401602060405180830381865afa1580156103b6573d5f5f3e3d5ffd5b505050506040513d601f19601f820116820180604052508101906103da9190611a4e565b90505f8103610415576040517f110ea95100000000000000000000000000000000000000000000000000000000815260040160405180910390fd5b5f7f000000000000000000000000000000000000000000000000000000000000000082846104439190611aa6565b61044d9190611b14565b90508260055f8681526020019081526020015f205f82825461046f9190611b44565b925050819055508060065f8681526020019081526020015f205f8282546104969190611b44565b9250508190555050505050565b5f60075f9054906101000a900473ffffffffffffffffffffffffffffffffffffffff1673ffffffffffffffffffffffffffffffffffffffff166327262618836040518263ffffffff1660e01b81526004016104fe9190611bc7565b602060405180830381865afa158015610519573d5f5f3e3d5ffd5b505050506040513d601f19601f8201168201806040525081019061053d9190611bfb565b9050919050565b5f60045f8381526020019081526020015f205f9054906101000a900473ffffffffffffffffffffffffffffffffffffffff169050919050565b5f60055f8381526020019081526020015f20549050919050565b60075f9054906101000a900473ffffffffffffffffffffffffffffffffffffffff1681565b5f60075f9054906101000a900473ffffffffffffffffffffffffffffffffffffffff1673ffffffffffffffffffffffffffffffffffffffff16638da5cb5b6040518163ffffffff1660e01b8152600401602060405180830381865afa158015610627573d5f5f3e3d5ffd5b505050506040513d601f19601f8201168201806040525081019061064b9190611bfb565b905090565b5f60065f8381526020019081526020015f20549050919050565b60075f9054906101000a900473ffffffffffffffffffffffffffffffffffffffff1673ffffffffffffffffffffffffffffffffffffffff16638da5cb5b6040518163ffffffff1660e01b8152600401602060405180830381865afa1580156106d4573d5f5f3e3d5ffd5b505050506040513d601f19601f820116820180604052508101906106f89190611bfb565b73ffffffffffffffffffffffffffffffffffffffff163373ffffffffffffffffffffffffffffffffffffffff1614610765576040517f08c379a000000000000000000000000000000000000000000000000000000000815260040161075c90611c70565b60405180910390fd5b61076e81610af7565b50565b5f60035f8381526020019081526020015f205f9054906101000a900473ffffffffffffffffffffffffffffffffffffffff169050919050565b5f60075f9054906101000a900473ffffffffffffffffffffffffffffffffffffffff1673ffffffffffffffffffffffffffffffffffffffff16638da5cb5b6040518163ffffffff1660e01b8152600401602060405180830381865afa158015610815573d5f5f3e3d5ffd5b505050506040513d601f19601f820116820180604052508101906108399190611bfb565b73ffffffffffffffffffffffffffffffffffffffff163373ffffffffffffffffffffffffffffffffffffffff16146108a6576040517f08c379a000000000000000000000000000000000000000000000000000000000815260040161089d90611c70565b60405180910390fd5b5f6108b083610ca9565b90505f6108bb610d97565b73ffffffffffffffffffffffffffffffffffffffff166378f6c7c48386805f01906108e69190611c9a565b8880602001906108f69190611c9a565b6040518663ffffffff1660e01b8152600401610916959493929190611d28565b6020604051808303815f875af1158015610932573d5f5f3e3d5ffd5b505050506040513d601f19601f820116820180604052508101906109569190611bfb565b90505f610961610ddb565b73ffffffffffffffffffffffffffffffffffffffff16636c4bb8bd6040518163ffffffff1660e01b81526004016020604051808303815f875af11580156109aa573d5f5f3e3d5ffd5b505050506040513d601f19601f820116820180604052508101906109ce9190611bfb565b90508160035f8581526020019081526020015f205f6101000a81548173ffffffffffffffffffffffffffffffffffffffff021916908373ffffffffffffffffffffffffffffffffffffffff1602179055508060045f8581526020019081526020015f205f6101000a81548173ffffffffffffffffffffffffffffffffffffffff021916908373ffffffffffffffffffffffffffffffffffffffff160217905550827f714caab8b078979e833e97982712cd462ab7124c2a27401542011f30e3d47d558383604051610aa0929190611d6f565b60405180910390a2829350505050919050565b5f610af26040518060400160405280600c81526020017f70726963652d6f7261636c6500000000000000000000000000000000000000008152506104a3565b905090565b5f73ffffffffffffffffffffffffffffffffffffffff168173ffffffffffffffffffffffffffffffffffffffff1603610b65576040517f08c379a0000000000000000000000000000000000000000000000000000000008152600401610b5c90611de0565b60405180910390fd5b5f8173ffffffffffffffffffffffffffffffffffffffff163b11610bbe576040517f08c379a0000000000000000000000000000000000000000000000000000000008152600401610bb590611e48565b60405180910390fd5b8073ffffffffffffffffffffffffffffffffffffffff16638da5cb5b6040518163ffffffff1660e01b8152600401602060405180830381865afa925050508015610c2657506040513d601f19601f82011682018060405250810190610c239190611bfb565b60015b610c65576040517f08c379a0000000000000000000000000000000000000000000000000000000008152600401610c5c90611ed6565b60405180910390fd5b8160075f6101000a81548173ffffffffffffffffffffffffffffffffffffffff021916908373ffffffffffffffffffffffffffffffffffffffff1602179055505050565b5f5f610cc3838060200190610cbe9190611c9a565b610e1f565b90505f610cde848060400190610cd99190611ef4565b610eb8565b90505f610cea8261134d565b90505f610cfa5f805490506113a8565b90505f86908060018154018082558091505060019003905f5260205f2090600302015f909190919091508181610d3091906125d7565b50508060015f8681526020019081526020015f20819055508060025f8481526020019081526020015f2081905550807f8320d61eb752c02271b492bb71ec93150c4ef1f5b9826a5d7c93b055ec00ac4e60405160405180910390a280945050505050919050565b5f610dd66040518060400160405280601281526020017f6574662d746f6b656e2d6465706c6f79657200000000000000000000000000008152506104a3565b905090565b5f610e1a6040518060400160405280601281526020017f6574662d7661756c742d6465706c6f79657200000000000000000000000000008152506104a3565b905090565b5f5f8383905003610e5c576040517f653b1be600000000000000000000000000000000000000000000000000000000815260040160405180910390fd5b610e6683836113bd565b90505f60015f8381526020019081526020015f205414610eb2576040517fc498761200000000000000000000000000000000000000000000000000000000815260040160405180910390fd5b92915050565b60605f8383905090505f8103610efa576040517f5373815f00000000000000000000000000000000000000000000000000000000815260040160405180910390fd5b8067ffffffffffffffff811115610f1457610f136116d2565b5b604051908082528060200260200182016040528015610f4d57816020015b610f3a6115ae565b815260200190600190039081610f325790505b5091505f5f90505b818110156111ff5736858583818110610f7157610f706125e5565b5b90506040020190505f815f016020810190610f8c919061192e565b90505f826020016020810190610fa29190612626565b61ffff1690507f000000000000000000000000000000000000000000000000000000000000000073ffffffffffffffffffffffffffffffffffffffff168273ffffffffffffffffffffffffffffffffffffffff16146110e8575f6110046113de565b73ffffffffffffffffffffffffffffffffffffffff16636425f09e846040518263ffffffff1660e01b815260040161103c919061161f565b6080604051808303815f875af1158015611058573d5f5f3e3d5ffd5b505050506040513d601f19601f8201168201806040525081019061107c9190612775565b90505f73ffffffffffffffffffffffffffffffffffffffff16815f015173ffffffffffffffffffffffffffffffffffffffff16036110e6576040517f791c2fed00000000000000000000000000000000000000000000000000000000815260040160405180910390fd5b505b5f73ffffffffffffffffffffffffffffffffffffffff168273ffffffffffffffffffffffffffffffffffffffff160361114d576040517fad1991f500000000000000000000000000000000000000000000000000000000815260040160405180910390fd5b5f8103611186576040517f19a2a9bd00000000000000000000000000000000000000000000000000000000815260040160405180910390fd5b6127108111156111c2576040517fc663343d00000000000000000000000000000000000000000000000000000000815260040160405180910390fd5b828036038101906111d391906127ed565b8685815181106111e6576111e56125e5565b5b6020026020010181905250836001019350505050610f55565b5061120982611422565b5f5f5f90505b82811015611309575f811180156112975750838181518110611234576112336125e5565b5b60200260200101515f015173ffffffffffffffffffffffffffffffffffffffff16846001836112639190612818565b81518110611274576112736125e5565b5b60200260200101515f015173ffffffffffffffffffffffffffffffffffffffff16145b156112ce576040517f464e3f6a00000000000000000000000000000000000000000000000000000000815260040160405180910390fd5b8381815181106112e1576112e06125e5565b5b60200260200101516020015161ffff16826112fc9190611b44565b915080600101905061120f565b506127108114611345576040517fda6957ea00000000000000000000000000000000000000000000000000000000815260040160405180910390fd5b505092915050565b5f6113578261157f565b90505f60025f8381526020019081526020015f2054146113a3576040517f985be99000000000000000000000000000000000000000000000000000000000815260040160405180910390fd5b919050565b5f6001826113b69190611b44565b9050919050565b5f82826040516113ce929190612879565b6040518091039020905092915050565b5f61141d6040518060400160405280600b81526020017f706f6f6c2d66696e6465720000000000000000000000000000000000000000008152506104a3565b905090565b5f815190505f600190505b8181101561157a575f838281518110611449576114486125e5565b5b602002602001015190505f8290505b5f81111561154e575f8560018361146f9190612818565b815181106114805761147f6125e5565b5b60200260200101519050825f015173ffffffffffffffffffffffffffffffffffffffff16815f015173ffffffffffffffffffffffffffffffffffffffff1610806115175750825f015173ffffffffffffffffffffffffffffffffffffffff16815f015173ffffffffffffffffffffffffffffffffffffffff161480156115165750826020015161ffff16816020015161ffff1611155b5b15611522575061154e565b80868381518110611536576115356125e5565b5b60200260200101819052508160019003915050611458565b81858281518110611562576115616125e5565b5b6020026020010181905250826001019250505061142d565b505050565b5f816040516020016115919190612984565b604051602081830303815290604052805190602001209050919050565b60405180604001604052805f73ffffffffffffffffffffffffffffffffffffffff1681526020015f61ffff1681525090565b5f73ffffffffffffffffffffffffffffffffffffffff82169050919050565b5f611609826115e0565b9050919050565b611619816115ff565b82525050565b5f6020820190506116325f830184611610565b92915050565b5f604051905090565b5f5ffd5b5f5ffd5b5f819050919050565b61165b81611649565b8114611665575f5ffd5b50565b5f8135905061167681611652565b92915050565b5f5f6040838503121561169257611691611641565b5b5f61169f85828601611668565b92505060206116b085828601611668565b9150509250929050565b5f5ffd5b5f5ffd5b5f601f19601f8301169050919050565b7f4e487b71000000000000000000000000000000000000000000000000000000005f52604160045260245ffd5b611708826116c2565b810181811067ffffffffffffffff82111715611727576117266116d2565b5b80604052505050565b5f611739611638565b905061174582826116ff565b919050565b5f67ffffffffffffffff821115611764576117636116d2565b5b61176d826116c2565b9050602081019050919050565b828183375f83830152505050565b5f61179a6117958461174a565b611730565b9050828152602081018484840111156117b6576117b56116be565b5b6117c184828561177a565b509392505050565b5f82601f8301126117dd576117dc6116ba565b5b81356117ed848260208601611788565b91505092915050565b5f6020828403121561180b5761180a611641565b5b5f82013567ffffffffffffffff81111561182857611827611645565b5b611834848285016117c9565b91505092915050565b5f6020828403121561185257611851611641565b5b5f61185f84828501611668565b91505092915050565b61187181611649565b82525050565b5f60208201905061188a5f830184611868565b92915050565b5f819050919050565b5f6118b36118ae6118a9846115e0565b611890565b6115e0565b9050919050565b5f6118c482611899565b9050919050565b5f6118d5826118ba565b9050919050565b6118e5816118cb565b82525050565b5f6020820190506118fe5f8301846118dc565b92915050565b61190d816115ff565b8114611917575f5ffd5b50565b5f8135905061192881611904565b92915050565b5f6020828403121561194357611942611641565b5b5f6119508482850161191a565b91505092915050565b5f5ffd5b5f6060828403121561197257611971611959565b5b81905092915050565b5f602082840312156119905761198f611641565b5b5f82013567ffffffffffffffff8111156119ad576119ac611645565b5b6119b98482850161195d565b91505092915050565b5f82825260208201905092915050565b7f6d73672e73656e646572206973206e6f742065746620726f75746572000000005f82015250565b5f611a06601c836119c2565b9150611a11826119d2565b602082019050919050565b5f6020820190508181035f830152611a33816119fa565b9050919050565b5f81519050611a4881611652565b92915050565b5f60208284031215611a6357611a62611641565b5b5f611a7084828501611a3a565b91505092915050565b7f4e487b71000000000000000000000000000000000000000000000000000000005f52601160045260245ffd5b5f611ab082611649565b9150611abb83611649565b9250828202611ac981611649565b91508282048414831517611ae057611adf611a79565b5b5092915050565b7f4e487b71000000000000000000000000000000000000000000000000000000005f52601260045260245ffd5b5f611b1e82611649565b9150611b2983611649565b925082611b3957611b38611ae7565b5b828204905092915050565b5f611b4e82611649565b9150611b5983611649565b9250828201905080821115611b7157611b70611a79565b5b92915050565b5f81519050919050565b8281835e5f83830152505050565b5f611b9982611b77565b611ba381856119c2565b9350611bb3818560208601611b81565b611bbc816116c2565b840191505092915050565b5f6020820190508181035f830152611bdf8184611b8f565b905092915050565b5f81519050611bf581611904565b92915050565b5f60208284031215611c1057611c0f611641565b5b5f611c1d84828501611be7565b91505092915050565b7f43616c6c6572206973206e6f7420746865206f776e65720000000000000000005f82015250565b5f611c5a6017836119c2565b9150611c6582611c26565b602082019050919050565b5f6020820190508181035f830152611c8781611c4e565b9050919050565b5f5ffd5b5f5ffd5b5f5ffd5b5f5f83356001602003843603038112611cb657611cb5611c8e565b5b80840192508235915067ffffffffffffffff821115611cd857611cd7611c92565b5b602083019250600182023603831315611cf457611cf3611c96565b5b509250929050565b5f611d0783856119c2565b9350611d1483858461177a565b611d1d836116c2565b840190509392505050565b5f606082019050611d3b5f830188611868565b8181036020830152611d4e818688611cfc565b90508181036040830152611d63818486611cfc565b90509695505050505050565b5f604082019050611d825f830185611610565b611d8f6020830184611610565b9392505050565b7f4469726563746f72792063616e6e6f74206265207a65726f20616464726573735f82015250565b5f611dca6020836119c2565b9150611dd582611d96565b602082019050919050565b5f6020820190508181035f830152611df781611dbe565b9050919050565b7f4469726563746f7279206d757374206265206120636f6e7472616374000000005f82015250565b5f611e32601c836119c2565b9150611e3d82611dfe565b602082019050919050565b5f6020820190508181035f830152611e5f81611e26565b9050919050565b7f4469726563746f7279206164647265737320646f6573206e6f7420696d706c655f8201527f6d656e74206f776e657228290000000000000000000000000000000000000000602082015250565b5f611ec0602c836119c2565b9150611ecb82611e66565b604082019050919050565b5f6020820190508181035f830152611eed81611eb4565b9050919050565b5f5f83356001602003843603038112611f1057611f0f611c8e565b5b80840192508235915067ffffffffffffffff821115611f3257611f31611c92565b5b602083019250604082023603831315611f4e57611f4d611c96565b5b509250929050565b7f4e487b71000000000000000000000000000000000000000000000000000000005f525f60045260245ffd5b5f82905092915050565b7f4e487b71000000000000000000000000000000000000000000000000000000005f52602260045260245ffd5b5f6002820490506001821680611fd057607f821691505b602082108103611fe357611fe2611f8c565b5b50919050565b5f819050815f5260205f209050919050565b5f6020601f8301049050919050565b5f82821b905092915050565b5f600883026120457fffffffffffffffffffffffffffffffffffffffffffffffffffffffffffffffff8261200a565b61204f868361200a565b95508019841693508086168417925050509392505050565b5f61208161207c61207784611649565b611890565b611649565b9050919050565b5f819050919050565b61209a83612067565b6120ae6120a682612088565b848454612016565b825550505050565b5f5f905090565b6120c56120b6565b6120d0818484612091565b505050565b5b818110156120f3576120e85f826120bd565b6001810190506120d6565b5050565b601f8211156121385761210981611fe9565b61211284611ffb565b81016020851015612121578190505b61213561212d85611ffb565b8301826120d5565b50505b505050565b5f82821c905092915050565b5f6121585f198460080261213d565b1980831691505092915050565b5f6121708383612149565b9150826002028217905092915050565b61218a8383611f82565b67ffffffffffffffff8111156121a3576121a26116d2565b5b6121ad8254611fb9565b6121b88282856120f7565b5f601f8311600181146121e5575f84156121d3578287013590505b6121dd8582612165565b865550612244565b601f1984166121f386611fe9565b5f5b8281101561221a578489013582556001820191506020850194506020810190506121f5565b868310156122375784890135612233601f891682612149565b8355505b6001600288020188555050505b50505050505050565b612258838383612180565b505050565b5f819050919050565b5f81549050919050565b5f8190506001806001038301049050919050565b5f819050815f5260205f209050919050565b5f5f82015550565b5f82146122ae576122ad611f56565b5b6122b781612296565b5050565b5b818110156122d9576122ce5f8261229e565b6001810190506122bc565b5050565b81831015612316576122ee82612270565b6122f784612270565b61230083612284565b81810183820161231081836122bb565b50505050505b505050565b68010000000000000000821115612335576123346116d2565b5b61233e81612266565b82825561234c8382846122dd565b505050565b5f82905092915050565b5f813561236781611904565b80915050919050565b5f815f1b9050919050565b5f73ffffffffffffffffffffffffffffffffffffffff61239a84612370565b9350801983169250808416831791505092915050565b5f6123ba826118ba565b9050919050565b5f819050919050565b6123d3826123b0565b6123e66123df826123c1565b835461237b565b8255505050565b5f61ffff82169050919050565b612403816123ed565b811461240d575f5ffd5b50565b5f813561241c816123fa565b80915050919050565b5f8160a01b9050919050565b5f75ffff000000000000000000000000000000000000000061245284612425565b9350801983169250808416831791505092915050565b5f61248261247d612478846123ed565b611890565b6123ed565b9050919050565b5f819050919050565b61249b82612468565b6124ae6124a782612489565b8354612431565b8255505050565b5f81015f8301806124c58161235b565b90506124d181846123ca565b5050505f810160208301806124e581612410565b90506124f18184612492565b5050505050565b61250282826124b5565b5050565b6125108383612351565b61251a818361231b565b6125238361225d565b61252c83612284565b5f5b83811015612559578261254181846124f8565b6040840193506001830192505060018101905061252e565b50505050505050565b61256d838383612506565b505050565b5f81015f83016125828185611c9a565b61258d81838661224d565b5050505060018101602083016125a38185611c9a565b6125ae81838661224d565b5050505060028101604083016125c48185611ef4565b6125cf818386612562565b505050505050565b6125e18282612572565b5050565b7f4e487b71000000000000000000000000000000000000000000000000000000005f52603260045260245ffd5b5f81359050612620816123fa565b92915050565b5f6020828403121561263b5761263a611641565b5b5f61264884828501612612565b91505092915050565b5f5ffd5b5f62ffffff82169050919050565b61266c81612655565b8114612676575f5ffd5b50565b5f8151905061268781612663565b92915050565b5f60ff82169050919050565b6126a28161268d565b81146126ac575f5ffd5b50565b5f815190506126bd81612699565b92915050565b5f67ffffffffffffffff82169050919050565b6126df816126c3565b81146126e9575f5ffd5b50565b5f815190506126fa816126d6565b92915050565b5f6080828403121561271557612714612651565b5b61271f6080611730565b90505f61272e84828501611be7565b5f83015250602061274184828501612679565b6020830152506040612755848285016126af565b6040830152506060612769848285016126ec565b60608301525092915050565b5f6080828403121561278a57612789611641565b5b5f61279784828501612700565b91505092915050565b5f604082840312156127b5576127b4612651565b5b6127bf6040611730565b90505f6127ce8482850161191a565b5f8301525060206127e184828501612612565b60208301525092915050565b5f6040828403121561280257612801611641565b5b5f61280f848285016127a0565b91505092915050565b5f61282282611649565b915061282d83611649565b925082820390508181111561284557612844611a79565b5b92915050565b5f81905092915050565b5f612860838561284b565b935061286d83858461177a565b82840190509392505050565b5f612885828486612855565b91508190509392505050565b5f81519050919050565b5f82825260208201905092915050565b5f819050602082019050919050565b6128c3816115ff565b82525050565b6128d2816123ed565b82525050565b604082015f8201516128ec5f8501826128ba565b5060208201516128ff60208501826128c9565b50505050565b5f61291083836128d8565b60408301905092915050565b5f602082019050919050565b5f61293282612891565b61293c818561289b565b9350612947836128ab565b805f5b8381101561297757815161295e8882612905565b97506129698361291c565b92505060018101905061294a565b5085935050505092915050565b5f6020820190508181035f83015261299c8184612928565b90509291505056fea264697066735822122097b1020b82740f0f7ca040937f5a209713b91f93e14fbd9421f9746d1a1620ef64736f6c634300081e0033",
					"opcodes": "PUSH1 0xC0 PUSH1 0x40 MSTORE PUSH8 0xDE0B6B3A7640000 PUSH1 0x80 SWAP1 DUP2 MSTORE POP CALLVALUE DUP1 ISZERO PUSH2 0x1E JUMPI PUSH0 PUSH0 REVERT JUMPDEST POP PUSH1 0x40 MLOAD PUSH2 0x2E75 CODESIZE SUB DUP1 PUSH2 0x2E75 DUP4 CODECOPY DUP2 DUP2 ADD PUSH1 0x40 MSTORE DUP2 ADD SWAP1 PUSH2 0x40 SWAP2 SWAP1 PUSH2 0x29C JUMP JUMPDEST DUP2 PUSH2 0x50 DUP2 PUSH2 0x8C PUSH1 0x20 SHL PUSH1 0x20 SHR JUMP JUMPDEST POP DUP1 PUSH20 0xFFFFFFFFFFFFFFFFFFFFFFFFFFFFFFFFFFFFFFFF AND PUSH1 0xA0 DUP2 PUSH20 0xFFFFFFFFFFFFFFFFFFFFFFFFFFFFFFFFFFFFFFFF AND DUP2 MSTORE POP POP POP POP PUSH2 0x473 JUMP JUMPDEST PUSH0 PUSH20 0xFFFFFFFFFFFFFFFFFFFFFFFFFFFFFFFFFFFFFFFF AND DUP2 PUSH20 0xFFFFFFFFFFFFFFFFFFFFFFFFFFFFFFFFFFFFFFFF AND SUB PUSH2 0xFA JUMPI PUSH1 0x40 MLOAD PUSH32 0x8C379A000000000000000000000000000000000000000000000000000000000 DUP2 MSTORE PUSH1 0x4 ADD PUSH2 0xF1 SWAP1 PUSH2 0x334 JUMP JUMPDEST PUSH1 0x40 MLOAD DUP1 SWAP2 SUB SWAP1 REVERT JUMPDEST PUSH0 DUP2 PUSH20 0xFFFFFFFFFFFFFFFFFFFFFFFFFFFFFFFFFFFFFFFF AND EXTCODESIZE GT PUSH2 0x153 JUMPI PUSH1 0x40 MLOAD PUSH32 0x8C379A000000000000000000000000000000000000000000000000000000000 DUP2 MSTORE PUSH1 0x4 ADD PUSH2 0x14A SWAP1 PUSH2 0x39C JUMP JUMPDEST PUSH1 0x40 MLOAD DUP1 SWAP2 SUB SWAP1 REVERT JUMPDEST DUP1 PUSH20 0xFFFFFFFFFFFFFFFFFFFFFFFFFFFFFFFFFFFFFFFF AND PUSH4 0x8DA5CB5B PUSH1 0x40 MLOAD DUP2 PUSH4 0xFFFFFFFF AND PUSH1 0xE0 SHL DUP2 MSTORE PUSH1 0x4 ADD PUSH1 0x20 PUSH1 0x40 MLOAD DUP1 DUP4 SUB DUP2 DUP7 GAS STATICCALL SWAP3 POP POP POP DUP1 ISZERO PUSH2 0x1BB JUMPI POP PUSH1 0x40 MLOAD RETURNDATASIZE PUSH1 0x1F NOT PUSH1 0x1F DUP3 ADD AND DUP3 ADD DUP1 PUSH1 0x40 MSTORE POP DUP2 ADD SWAP1 PUSH2 0x1B8 SWAP2 SWAP1 PUSH2 0x3BA JUMP JUMPDEST PUSH1 0x1 JUMPDEST PUSH2 0x1FA JUMPI PUSH1 0x40 MLOAD PUSH32 0x8C379A000000000000000000000000000000000000000000000000000000000 DUP2 MSTORE PUSH1 0x4 ADD PUSH2 0x1F1 SWAP1 PUSH2 0x455 JUMP JUMPDEST PUSH1 0x40 MLOAD DUP1 SWAP2 SUB SWAP1 REVERT JUMPDEST DUP2 PUSH1 0x7 PUSH0 PUSH2 0x100 EXP DUP2 SLOAD DUP2 PUSH20 0xFFFFFFFFFFFFFFFFFFFFFFFFFFFFFFFFFFFFFFFF MUL NOT AND SWAP1 DUP4 PUSH20 0xFFFFFFFFFFFFFFFFFFFFFFFFFFFFFFFFFFFFFFFF AND MUL OR SWAP1 SSTORE POP POP POP JUMP JUMPDEST PUSH0 PUSH0 REVERT JUMPDEST PUSH0 PUSH20 0xFFFFFFFFFFFFFFFFFFFFFFFFFFFFFFFFFFFFFFFF DUP3 AND SWAP1 POP SWAP2 SWAP1 POP JUMP JUMPDEST PUSH0 PUSH2 0x26B DUP3 PUSH2 0x242 JUMP JUMPDEST SWAP1 POP SWAP2 SWAP1 POP JUMP JUMPDEST PUSH2 0x27B DUP2 PUSH2 0x261 JUMP JUMPDEST DUP2 EQ PUSH2 0x285 JUMPI PUSH0 PUSH0 REVERT JUMPDEST POP JUMP JUMPDEST PUSH0 DUP2 MLOAD SWAP1 POP PUSH2 0x296 DUP2 PUSH2 0x272 JUMP JUMPDEST SWAP3 SWAP2 POP POP JUMP JUMPDEST PUSH0 PUSH0 PUSH1 0x40 DUP4 DUP6 SUB SLT ISZERO PUSH2 0x2B2 JUMPI PUSH2 0x2B1 PUSH2 0x23E JUMP JUMPDEST JUMPDEST PUSH0 PUSH2 0x2BF DUP6 DUP3 DUP7 ADD PUSH2 0x288 JUMP JUMPDEST SWAP3 POP POP PUSH1 0x20 PUSH2 0x2D0 DUP6 DUP3 DUP7 ADD PUSH2 0x288 JUMP JUMPDEST SWAP2 POP POP SWAP3 POP SWAP3 SWAP1 POP JUMP JUMPDEST PUSH0 DUP3 DUP3 MSTORE PUSH1 0x20 DUP3 ADD SWAP1 POP SWAP3 SWAP2 POP POP JUMP JUMPDEST PUSH32 0x4469726563746F72792063616E6E6F74206265207A65726F2061646472657373 PUSH0 DUP3 ADD MSTORE POP JUMP JUMPDEST PUSH0 PUSH2 0x31E PUSH1 0x20 DUP4 PUSH2 0x2DA JUMP JUMPDEST SWAP2 POP PUSH2 0x329 DUP3 PUSH2 0x2EA JUMP JUMPDEST PUSH1 0x20 DUP3 ADD SWAP1 POP SWAP2 SWAP1 POP JUMP JUMPDEST PUSH0 PUSH1 0x20 DUP3 ADD SWAP1 POP DUP2 DUP2 SUB PUSH0 DUP4 ADD MSTORE PUSH2 0x34B DUP2 PUSH2 0x312 JUMP JUMPDEST SWAP1 POP SWAP2 SWAP1 POP JUMP JUMPDEST PUSH32 0x4469726563746F7279206D757374206265206120636F6E747261637400000000 PUSH0 DUP3 ADD MSTORE POP JUMP JUMPDEST PUSH0 PUSH2 0x386 PUSH1 0x1C DUP4 PUSH2 0x2DA JUMP JUMPDEST SWAP2 POP PUSH2 0x391 DUP3 PUSH2 0x352 JUMP JUMPDEST PUSH1 0x20 DUP3 ADD SWAP1 POP SWAP2 SWAP1 POP JUMP JUMPDEST PUSH0 PUSH1 0x20 DUP3 ADD SWAP1 POP DUP2 DUP2 SUB PUSH0 DUP4 ADD MSTORE PUSH2 0x3B3 DUP2 PUSH2 0x37A JUMP JUMPDEST SWAP1 POP SWAP2 SWAP1 POP JUMP JUMPDEST PUSH0 PUSH1 0x20 DUP3 DUP5 SUB SLT ISZERO PUSH2 0x3CF JUMPI PUSH2 0x3CE PUSH2 0x23E JUMP JUMPDEST JUMPDEST PUSH0 PUSH2 0x3DC DUP5 DUP3 DUP6 ADD PUSH2 0x288 JUMP JUMPDEST SWAP2 POP POP SWAP3 SWAP2 POP POP JUMP JUMPDEST PUSH32 0x4469726563746F7279206164647265737320646F6573206E6F7420696D706C65 PUSH0 DUP3 ADD MSTORE PUSH32 0x6D656E74206F776E657228290000000000000000000000000000000000000000 PUSH1 0x20 DUP3 ADD MSTORE POP JUMP JUMPDEST PUSH0 PUSH2 0x43F PUSH1 0x2C DUP4 PUSH2 0x2DA JUMP JUMPDEST SWAP2 POP PUSH2 0x44A DUP3 PUSH2 0x3E5 JUMP JUMPDEST PUSH1 0x40 DUP3 ADD SWAP1 POP SWAP2 SWAP1 POP JUMP JUMPDEST PUSH0 PUSH1 0x20 DUP3 ADD SWAP1 POP DUP2 DUP2 SUB PUSH0 DUP4 ADD MSTORE PUSH2 0x46C DUP2 PUSH2 0x433 JUMP JUMPDEST SWAP1 POP SWAP2 SWAP1 POP JUMP JUMPDEST PUSH1 0x80 MLOAD PUSH1 0xA0 MLOAD PUSH2 0x29DA PUSH2 0x49B PUSH0 CODECOPY PUSH0 DUP2 DUP2 PUSH2 0x25F ADD MSTORE PUSH2 0xFAA ADD MSTORE PUSH0 PUSH2 0x418 ADD MSTORE PUSH2 0x29DA PUSH0 RETURN INVALID PUSH1 0x80 PUSH1 0x40 MSTORE CALLVALUE DUP1 ISZERO PUSH2 0xF JUMPI PUSH0 PUSH0 REVERT JUMPDEST POP PUSH1 0x4 CALLDATASIZE LT PUSH2 0xA7 JUMPI PUSH0 CALLDATALOAD PUSH1 0xE0 SHR DUP1 PUSH4 0x658A847A GT PUSH2 0x6F JUMPI DUP1 PUSH4 0x658A847A EQ PUSH2 0x175 JUMPI DUP1 PUSH4 0x8DA5CB5B EQ PUSH2 0x193 JUMPI DUP1 PUSH4 0x9CFE0B3B EQ PUSH2 0x1B1 JUMPI DUP1 PUSH4 0xBA4C7BE1 EQ PUSH2 0x1E1 JUMPI DUP1 PUSH4 0xF2018A1F EQ PUSH2 0x1FD JUMPI DUP1 PUSH4 0xFC0121D4 EQ PUSH2 0x22D JUMPI PUSH2 0xA7 JUMP JUMPDEST DUP1 PUSH4 0x40141E5 EQ PUSH2 0xAB JUMPI DUP1 PUSH4 0x1626542C EQ PUSH2 0xC9 JUMPI DUP1 PUSH4 0x27262618 EQ PUSH2 0xE5 JUMPI DUP1 PUSH4 0x3EE79962 EQ PUSH2 0x115 JUMPI DUP1 PUSH4 0x4EEA0E0D EQ PUSH2 0x145 JUMPI JUMPDEST PUSH0 PUSH0 REVERT JUMPDEST PUSH2 0xB3 PUSH2 0x25D JUMP JUMPDEST PUSH1 0x40 MLOAD PUSH2 0xC0 SWAP2 SWAP1 PUSH2 0x161F JUMP JUMPDEST PUSH1 0x40 MLOAD DUP1 SWAP2 SUB SWAP1 RETURN JUMPDEST PUSH2 0xE3 PUSH1 0x4 DUP1 CALLDATASIZE SUB DUP2 ADD SWAP1 PUSH2 0xDE SWAP2 SWAP1 PUSH2 0x167C JUMP JUMPDEST PUSH2 0x281 JUMP JUMPDEST STOP JUMPDEST PUSH2 0xFF PUSH1 0x4 DUP1 CALLDATASIZE SUB DUP2 ADD SWAP1 PUSH2 0xFA SWAP2 SWAP1 PUSH2 0x17F6 JUMP JUMPDEST PUSH2 0x4A3 JUMP JUMPDEST PUSH1 0x40 MLOAD PUSH2 0x10C SWAP2 SWAP1 PUSH2 0x161F JUMP JUMPDEST PUSH1 0x40 MLOAD DUP1 SWAP2 SUB SWAP1 RETURN JUMPDEST PUSH2 0x12F PUSH1 0x4 DUP1 CALLDATASIZE SUB DUP2 ADD SWAP1 PUSH2 0x12A SWAP2 SWAP1 PUSH2 0x183D JUMP JUMPDEST PUSH2 0x544 JUMP JUMPDEST PUSH1 0x40 MLOAD PUSH2 0x13C SWAP2 SWAP1 PUSH2 0x161F JUMP JUMPDEST PUSH1 0x40 MLOAD DUP1 SWAP2 SUB SWAP1 RETURN JUMPDEST PUSH2 0x15F PUSH1 0x4 DUP1 CALLDATASIZE SUB DUP2 ADD SWAP1 PUSH2 0x15A SWAP2 SWAP1 PUSH2 0x183D JUMP JUMPDEST PUSH2 0x57D JUMP JUMPDEST PUSH1 0x40 MLOAD PUSH2 0x16C SWAP2 SWAP1 PUSH2 0x1877 JUMP JUMPDEST PUSH1 0x40 MLOAD DUP1 SWAP2 SUB SWAP1 RETURN JUMPDEST PUSH2 0x17D PUSH2 0x597 JUMP JUMPDEST PUSH1 0x40 MLOAD PUSH2 0x18A SWAP2 SWAP1 PUSH2 0x18EB JUMP JUMPDEST PUSH1 0x40 MLOAD DUP1 SWAP2 SUB SWAP1 RETURN JUMPDEST PUSH2 0x19B PUSH2 0x5BC JUMP JUMPDEST PUSH1 0x40 MLOAD PUSH2 0x1A8 SWAP2 SWAP1 PUSH2 0x161F JUMP JUMPDEST PUSH1 0x40 MLOAD DUP1 SWAP2 SUB SWAP1 RETURN JUMPDEST PUSH2 0x1CB PUSH1 0x4 DUP1 CALLDATASIZE SUB DUP2 ADD SWAP1 PUSH2 0x1C6 SWAP2 SWAP1 PUSH2 0x183D JUMP JUMPDEST PUSH2 0x650 JUMP JUMPDEST PUSH1 0x40 MLOAD PUSH2 0x1D8 SWAP2 SWAP1 PUSH2 0x1877 JUMP JUMPDEST PUSH1 0x40 MLOAD DUP1 SWAP2 SUB SWAP1 RETURN JUMPDEST PUSH2 0x1FB PUSH1 0x4 DUP1 CALLDATASIZE SUB DUP2 ADD SWAP1 PUSH2 0x1F6 SWAP2 SWAP1 PUSH2 0x192E JUMP JUMPDEST PUSH2 0x66A JUMP JUMPDEST STOP JUMPDEST PUSH2 0x217 PUSH1 0x4 DUP1 CALLDATASIZE SUB DUP2 ADD SWAP1 PUSH2 0x212 SWAP2 SWAP1 PUSH2 0x183D JUMP JUMPDEST PUSH2 0x771 JUMP JUMPDEST PUSH1 0x40 MLOAD PUSH2 0x224 SWAP2 SWAP1 PUSH2 0x161F JUMP JUMPDEST PUSH1 0x40 MLOAD DUP1 SWAP2 SUB SWAP1 RETURN JUMPDEST PUSH2 0x247 PUSH1 0x4 DUP1 CALLDATASIZE SUB DUP2 ADD SWAP1 PUSH2 0x242 SWAP2 SWAP1 PUSH2 0x197B JUMP JUMPDEST PUSH2 0x7AA JUMP JUMPDEST PUSH1 0x40 MLOAD PUSH2 0x254 SWAP2 SWAP1 PUSH2 0x1877 JUMP JUMPDEST PUSH1 0x40 MLOAD DUP1 SWAP2 SUB SWAP1 RETURN JUMPDEST PUSH32 0x0 DUP2 JUMP JUMPDEST PUSH2 0x2BF PUSH1 0x40 MLOAD DUP1 PUSH1 0x40 ADD PUSH1 0x40 MSTORE DUP1 PUSH1 0xA DUP2 MSTORE PUSH1 0x20 ADD PUSH32 0x6574662D726F7574657200000000000000000000000000000000000000000000 DUP2 MSTORE POP PUSH2 0x4A3 JUMP JUMPDEST PUSH20 0xFFFFFFFFFFFFFFFFFFFFFFFFFFFFFFFFFFFFFFFF AND CALLER PUSH20 0xFFFFFFFFFFFFFFFFFFFFFFFFFFFFFFFFFFFFFFFF AND EQ PUSH2 0x32C JUMPI PUSH1 0x40 MLOAD PUSH32 0x8C379A000000000000000000000000000000000000000000000000000000000 DUP2 MSTORE PUSH1 0x4 ADD PUSH2 0x323 SWAP1 PUSH2 0x1A1C JUMP JUMPDEST PUSH1 0x40 MLOAD DUP1 SWAP2 SUB SWAP1 REVERT JUMPDEST PUSH0 DUP2 SUB PUSH2 0x365 JUMPI PUSH1 0x40 MLOAD PUSH32 0xCCA7F00400000000000000000000000000000000000000000000000000000000 DUP2 MSTORE PUSH1 0x4 ADD PUSH1 0x40 MLOAD DUP1 SWAP2 SUB SWAP1 REVERT JUMPDEST PUSH0 PUSH2 0x36E PUSH2 0xAB3 JUMP JUMPDEST PUSH20 0xFFFFFFFFFFFFFFFFFFFFFFFFFFFFFFFFFFFFFFFF AND PUSH4 0x6855E939 PUSH1 0x40 MLOAD DUP2 PUSH4 0xFFFFFFFF AND PUSH1 0xE0 SHL DUP2 MSTORE PUSH1 0x4 ADD PUSH1 0x20 PUSH1 0x40 MLOAD DUP1 DUP4 SUB DUP2 DUP7 GAS STATICCALL ISZERO DUP1 ISZERO PUSH2 0x3B6 JUMPI RETURNDATASIZE PUSH0 PUSH0 RETURNDATACOPY RETURNDATASIZE PUSH0 REVERT JUMPDEST POP POP POP POP PUSH1 0x40 MLOAD RETURNDATASIZE PUSH1 0x1F NOT PUSH1 0x1F DUP3 ADD AND DUP3 ADD DUP1 PUSH1 0x40 MSTORE POP DUP2 ADD SWAP1 PUSH2 0x3DA SWAP2 SWAP1 PUSH2 0x1A4E JUMP JUMPDEST SWAP1 POP PUSH0 DUP2 SUB PUSH2 0x415 JUMPI PUSH1 0x40 MLOAD PUSH32 0x110EA95100000000000000000000000000000000000000000000000000000000 DUP2 MSTORE PUSH1 0x4 ADD PUSH1 0x40 MLOAD DUP1 SWAP2 SUB SWAP1 REVERT JUMPDEST PUSH0 PUSH32 0x0 DUP3 DUP5 PUSH2 0x443 SWAP2 SWAP1 PUSH2 0x1AA6 JUMP JUMPDEST PUSH2 0x44D SWAP2 SWAP1 PUSH2 0x1B14 JUMP JUMPDEST SWAP1 POP DUP3 PUSH1 0x5 PUSH0 DUP7 DUP2 MSTORE PUSH1 0x20 ADD SWAP1 DUP2 MSTORE PUSH1 0x20 ADD PUSH0 KECCAK256 PUSH0 DUP3 DUP3 SLOAD PUSH2 0x46F SWAP2 SWAP1 PUSH2 0x1B44 JUMP JUMPDEST SWAP3 POP POP DUP2 SWAP1 SSTORE POP DUP1 PUSH1 0x6 PUSH0 DUP7 DUP2 MSTORE PUSH1 0x20 ADD SWAP1 DUP2 MSTORE PUSH1 0x20 ADD PUSH0 KECCAK256 PUSH0 DUP3 DUP3 SLOAD PUSH2 0x496 SWAP2 SWAP1 PUSH2 0x1B44 JUMP JUMPDEST SWAP3 POP POP DUP2 SWAP1 SSTORE POP POP POP POP POP JUMP JUMPDEST PUSH0 PUSH1 0x7 PUSH0 SWAP1 SLOAD SWAP1 PUSH2 0x100 EXP SWAP1 DIV PUSH20 0xFFFFFFFFFFFFFFFFFFFFFFFFFFFFFFFFFFFFFFFF AND PUSH20 0xFFFFFFFFFFFFFFFFFFFFFFFFFFFFFFFFFFFFFFFF AND PUSH4 0x27262618 DUP4 PUSH1 0x40 MLOAD DUP3 PUSH4 0xFFFFFFFF AND PUSH1 0xE0 SHL DUP2 MSTORE PUSH1 0x4 ADD PUSH2 0x4FE SWAP2 SWAP1 PUSH2 0x1BC7 JUMP JUMPDEST PUSH1 0x20 PUSH1 0x40 MLOAD DUP1 DUP4 SUB DUP2 DUP7 GAS STATICCALL ISZERO DUP1 ISZERO PUSH2 0x519 JUMPI RETURNDATASIZE PUSH0 PUSH0 RETURNDATACOPY RETURNDATASIZE PUSH0 REVERT JUMPDEST POP POP POP POP PUSH1 0x40 MLOAD RETURNDATASIZE PUSH1 0x1F NOT PUSH1 0x1F DUP3 ADD AND DUP3 ADD DUP1 PUSH1 0x40 MSTORE POP DUP2 ADD SWAP1 PUSH2 0x53D SWAP2 SWAP1 PUSH2 0x1BFB JUMP JUMPDEST SWAP1 POP SWAP2 SWAP1 POP JUMP JUMPDEST PUSH0 PUSH1 0x4 PUSH0 DUP4 DUP2 MSTORE PUSH1 0x20 ADD SWAP1 DUP2 MSTORE PUSH1 0x20 ADD PUSH0 KECCAK256 PUSH0 SWAP1 SLOAD SWAP1 PUSH2 0x100 EXP SWAP1 DIV PUSH20 0xFFFFFFFFFFFFFFFFFFFFFFFFFFFFFFFFFFFFFFFF AND SWAP1 POP SWAP2 SWAP1 POP JUMP JUMPDEST PUSH0 PUSH1 0x5 PUSH0 DUP4 DUP2 MSTORE PUSH1 0x20 ADD SWAP1 DUP2 MSTORE PUSH1 0x20 ADD PUSH0 KECCAK256 SLOAD SWAP1 POP SWAP2 SWAP1 POP JUMP JUMPDEST PUSH1 0x7 PUSH0 SWAP1 SLOAD SWAP1 PUSH2 0x100 EXP SWAP1 DIV PUSH20 0xFFFFFFFFFFFFFFFFFFFFFFFFFFFFFFFFFFFFFFFF AND DUP2 JUMP JUMPDEST PUSH0 PUSH1 0x7 PUSH0 SWAP1 SLOAD SWAP1 PUSH2 0x100 EXP SWAP1 DIV PUSH20 0xFFFFFFFFFFFFFFFFFFFFFFFFFFFFFFFFFFFFFFFF AND PUSH20 0xFFFFFFFFFFFFFFFFFFFFFFFFFFFFFFFFFFFFFFFF AND PUSH4 0x8DA5CB5B PUSH1 0x40 MLOAD DUP2 PUSH4 0xFFFFFFFF AND PUSH1 0xE0 SHL DUP2 MSTORE PUSH1 0x4 ADD PUSH1 0x20 PUSH1 0x40 MLOAD DUP1 DUP4 SUB DUP2 DUP7 GAS STATICCALL ISZERO DUP1 ISZERO PUSH2 0x627 JUMPI RETURNDATASIZE PUSH0 PUSH0 RETURNDATACOPY RETURNDATASIZE PUSH0 REVERT JUMPDEST POP POP POP POP PUSH1 0x40 MLOAD RETURNDATASIZE PUSH1 0x1F NOT PUSH1 0x1F DUP3 ADD AND DUP3 ADD DUP1 PUSH1 0x40 MSTORE POP DUP2 ADD SWAP1 PUSH2 0x64B SWAP2 SWAP1 PUSH2 0x1BFB JUMP JUMPDEST SWAP1 POP SWAP1 JUMP JUMPDEST PUSH0 PUSH1 0x6 PUSH0 DUP4 DUP2 MSTORE PUSH1 0x20 ADD SWAP1 DUP2 MSTORE PUSH1 0x20 ADD PUSH0 KECCAK256 SLOAD SWAP1 POP SWAP2 SWAP1 POP JUMP JUMPDEST PUSH1 0x7 PUSH0 SWAP1 SLOAD SWAP1 PUSH2 0x100 EXP SWAP1 DIV PUSH20 0xFFFFFFFFFFFFFFFFFFFFFFFFFFFFFFFFFFFFFFFF AND PUSH20 0xFFFFFFFFFFFFFFFFFFFFFFFFFFFFFFFFFFFFFFFF AND PUSH4 0x8DA5CB5B PUSH1 0x40 MLOAD DUP2 PUSH4 0xFFFFFFFF AND PUSH1 0xE0 SHL DUP2 MSTORE PUSH1 0x4 ADD PUSH1 0x20 PUSH1 0x40 MLOAD DUP1 DUP4 SUB DUP2 DUP7 GAS STATICCALL ISZERO DUP1 ISZERO PUSH2 0x6D4 JUMPI RETURNDATASIZE PUSH0 PUSH0 RETURNDATACOPY RETURNDATASIZE PUSH0 REVERT JUMPDEST POP POP POP POP PUSH1 0x40 MLOAD RETURNDATASIZE PUSH1 0x1F NOT PUSH1 0x1F DUP3 ADD AND DUP3 ADD DUP1 PUSH1 0x40 MSTORE POP DUP2 ADD SWAP1 PUSH2 0x6F8 SWAP2 SWAP1 PUSH2 0x1BFB JUMP JUMPDEST PUSH20 0xFFFFFFFFFFFFFFFFFFFFFFFFFFFFFFFFFFFFFFFF AND CALLER PUSH20 0xFFFFFFFFFFFFFFFFFFFFFFFFFFFFFFFFFFFFFFFF AND EQ PUSH2 0x765 JUMPI PUSH1 0x40 MLOAD PUSH32 0x8C379A000000000000000000000000000000000000000000000000000000000 DUP2 MSTORE PUSH1 0x4 ADD PUSH2 0x75C SWAP1 PUSH2 0x1C70 JUMP JUMPDEST PUSH1 0x40 MLOAD DUP1 SWAP2 SUB SWAP1 REVERT JUMPDEST PUSH2 0x76E DUP2 PUSH2 0xAF7 JUMP JUMPDEST POP JUMP JUMPDEST PUSH0 PUSH1 0x3 PUSH0 DUP4 DUP2 MSTORE PUSH1 0x20 ADD SWAP1 DUP2 MSTORE PUSH1 0x20 ADD PUSH0 KECCAK256 PUSH0 SWAP1 SLOAD SWAP1 PUSH2 0x100 EXP SWAP1 DIV PUSH20 0xFFFFFFFFFFFFFFFFFFFFFFFFFFFFFFFFFFFFFFFF AND SWAP1 POP SWAP2 SWAP1 POP JUMP JUMPDEST PUSH0 PUSH1 0x7 PUSH0 SWAP1 SLOAD SWAP1 PUSH2 0x100 EXP SWAP1 DIV PUSH20 0xFFFFFFFFFFFFFFFFFFFFFFFFFFFFFFFFFFFFFFFF AND PUSH20 0xFFFFFFFFFFFFFFFFFFFFFFFFFFFFFFFFFFFFFFFF AND PUSH4 0x8DA5CB5B PUSH1 0x40 MLOAD DUP2 PUSH4 0xFFFFFFFF AND PUSH1 0xE0 SHL DUP2 MSTORE PUSH1 0x4 ADD PUSH1 0x20 PUSH1 0x40 MLOAD DUP1 DUP4 SUB DUP2 DUP7 GAS STATICCALL ISZERO DUP1 ISZERO PUSH2 0x815 JUMPI RETURNDATASIZE PUSH0 PUSH0 RETURNDATACOPY RETURNDATASIZE PUSH0 REVERT JUMPDEST POP POP POP POP PUSH1 0x40 MLOAD RETURNDATASIZE PUSH1 0x1F NOT PUSH1 0x1F DUP3 ADD AND DUP3 ADD DUP1 PUSH1 0x40 MSTORE POP DUP2 ADD SWAP1 PUSH2 0x839 SWAP2 SWAP1 PUSH2 0x1BFB JUMP JUMPDEST PUSH20 0xFFFFFFFFFFFFFFFFFFFFFFFFFFFFFFFFFFFFFFFF AND CALLER PUSH20 0xFFFFFFFFFFFFFFFFFFFFFFFFFFFFFFFFFFFFFFFF AND EQ PUSH2 0x8A6 JUMPI PUSH1 0x40 MLOAD PUSH32 0x8C379A000000000000000000000000000000000000000000000000000000000 DUP2 MSTORE PUSH1 0x4 ADD PUSH2 0x89D SWAP1 PUSH2 0x1C70 JUMP JUMPDEST PUSH1 0x40 MLOAD DUP1 SWAP2 SUB SWAP1 REVERT JUMPDEST PUSH0 PUSH2 0x8B0 DUP4 PUSH2 0xCA9 JUMP JUMPDEST SWAP1 POP PUSH0 PUSH2 0x8BB PUSH2 0xD97 JUMP JUMPDEST PUSH20 0xFFFFFFFFFFFFFFFFFFFFFFFFFFFFFFFFFFFFFFFF AND PUSH4 0x78F6C7C4 DUP4 DUP7 DUP1 PUSH0 ADD SWAP1 PUSH2 0x8E6 SWAP2 SWAP1 PUSH2 0x1C9A JUMP JUMPDEST DUP9 DUP1 PUSH1 0x20 ADD SWAP1 PUSH2 0x8F6 SWAP2 SWAP1 PUSH2 0x1C9A JUMP JUMPDEST PUSH1 0x40 MLOAD DUP7 PUSH4 0xFFFFFFFF AND PUSH1 0xE0 SHL DUP2 MSTORE PUSH1 0x4 ADD PUSH2 0x916 SWAP6 SWAP5 SWAP4 SWAP3 SWAP2 SWAP1 PUSH2 0x1D28 JUMP JUMPDEST PUSH1 0x20 PUSH1 0x40 MLOAD DUP1 DUP4 SUB DUP2 PUSH0 DUP8 GAS CALL ISZERO DUP1 ISZERO PUSH2 0x932 JUMPI RETURNDATASIZE PUSH0 PUSH0 RETURNDATACOPY RETURNDATASIZE PUSH0 REVERT JUMPDEST POP POP POP POP PUSH1 0x40 MLOAD RETURNDATASIZE PUSH1 0x1F NOT PUSH1 0x1F DUP3 ADD AND DUP3 ADD DUP1 PUSH1 0x40 MSTORE POP DUP2 ADD SWAP1 PUSH2 0x956 SWAP2 SWAP1 PUSH2 0x1BFB JUMP JUMPDEST SWAP1 POP PUSH0 PUSH2 0x961 PUSH2 0xDDB JUMP JUMPDEST PUSH20 0xFFFFFFFFFFFFFFFFFFFFFFFFFFFFFFFFFFFFFFFF AND PUSH4 0x6C4BB8BD PUSH1 0x40 MLOAD DUP2 PUSH4 0xFFFFFFFF AND PUSH1 0xE0 SHL DUP2 MSTORE PUSH1 0x4 ADD PUSH1 0x20 PUSH1 0x40 MLOAD DUP1 DUP4 SUB DUP2 PUSH0 DUP8 GAS CALL ISZERO DUP1 ISZERO PUSH2 0x9AA JUMPI RETURNDATASIZE PUSH0 PUSH0 RETURNDATACOPY RETURNDATASIZE PUSH0 REVERT JUMPDEST POP POP POP POP PUSH1 0x40 MLOAD RETURNDATASIZE PUSH1 0x1F NOT PUSH1 0x1F DUP3 ADD AND DUP3 ADD DUP1 PUSH1 0x40 MSTORE POP DUP2 ADD SWAP1 PUSH2 0x9CE SWAP2 SWAP1 PUSH2 0x1BFB JUMP JUMPDEST SWAP1 POP DUP2 PUSH1 0x3 PUSH0 DUP6 DUP2 MSTORE PUSH1 0x20 ADD SWAP1 DUP2 MSTORE PUSH1 0x20 ADD PUSH0 KECCAK256 PUSH0 PUSH2 0x100 EXP DUP2 SLOAD DUP2 PUSH20 0xFFFFFFFFFFFFFFFFFFFFFFFFFFFFFFFFFFFFFFFF MUL NOT AND SWAP1 DUP4 PUSH20 0xFFFFFFFFFFFFFFFFFFFFFFFFFFFFFFFFFFFFFFFF AND MUL OR SWAP1 SSTORE POP DUP1 PUSH1 0x4 PUSH0 DUP6 DUP2 MSTORE PUSH1 0x20 ADD SWAP1 DUP2 MSTORE PUSH1 0x20 ADD PUSH0 KECCAK256 PUSH0 PUSH2 0x100 EXP DUP2 SLOAD DUP2 PUSH20 0xFFFFFFFFFFFFFFFFFFFFFFFFFFFFFFFFFFFFFFFF MUL NOT AND SWAP1 DUP4 PUSH20 0xFFFFFFFFFFFFFFFFFFFFFFFFFFFFFFFFFFFFFFFF AND MUL OR SWAP1 SSTORE POP DUP3 PUSH32 0x714CAAB8B078979E833E97982712CD462AB7124C2A27401542011F30E3D47D55 DUP4 DUP4 PUSH1 0x40 MLOAD PUSH2 0xAA0 SWAP3 SWAP2 SWAP1 PUSH2 0x1D6F JUMP JUMPDEST PUSH1 0x40 MLOAD DUP1 SWAP2 SUB SWAP1 LOG2 DUP3 SWAP4 POP POP POP POP SWAP2 SWAP1 POP JUMP JUMPDEST PUSH0 PUSH2 0xAF2 PUSH1 0x40 MLOAD DUP1 PUSH1 0x40 ADD PUSH1 0x40 MSTORE DUP1 PUSH1 0xC DUP2 MSTORE PUSH1 0x20 ADD PUSH32 0x70726963652D6F7261636C650000000000000000000000000000000000000000 DUP2 MSTORE POP PUSH2 0x4A3 JUMP JUMPDEST SWAP1 POP SWAP1 JUMP JUMPDEST PUSH0 PUSH20 0xFFFFFFFFFFFFFFFFFFFFFFFFFFFFFFFFFFFFFFFF AND DUP2 PUSH20 0xFFFFFFFFFFFFFFFFFFFFFFFFFFFFFFFFFFFFFFFF AND SUB PUSH2 0xB65 JUMPI PUSH1 0x40 MLOAD PUSH32 0x8C379A000000000000000000000000000000000000000000000000000000000 DUP2 MSTORE PUSH1 0x4 ADD PUSH2 0xB5C SWAP1 PUSH2 0x1DE0 JUMP JUMPDEST PUSH1 0x40 MLOAD DUP1 SWAP2 SUB SWAP1 REVERT JUMPDEST PUSH0 DUP2 PUSH20 0xFFFFFFFFFFFFFFFFFFFFFFFFFFFFFFFFFFFFFFFF AND EXTCODESIZE GT PUSH2 0xBBE JUMPI PUSH1 0x40 MLOAD PUSH32 0x8C379A000000000000000000000000000000000000000000000000000000000 DUP2 MSTORE PUSH1 0x4 ADD PUSH2 0xBB5 SWAP1 PUSH2 0x1E48 JUMP JUMPDEST PUSH1 0x40 MLOAD DUP1 SWAP2 SUB SWAP1 REVERT JUMPDEST DUP1 PUSH20 0xFFFFFFFFFFFFFFFFFFFFFFFFFFFFFFFFFFFFFFFF AND PUSH4 0x8DA5CB5B PUSH1 0x40 MLOAD DUP2 PUSH4 0xFFFFFFFF AND PUSH1 0xE0 SHL DUP2 MSTORE PUSH1 0x4 ADD PUSH1 0x20 PUSH1 0x40 MLOAD DUP1 DUP4 SUB DUP2 DUP7 GAS STATICCALL SWAP3 POP POP POP DUP1 ISZERO PUSH2 0xC26 JUMPI POP PUSH1 0x40 MLOAD RETURNDATASIZE PUSH1 0x1F NOT PUSH1 0x1F DUP3 ADD AND DUP3 ADD DUP1 PUSH1 0x40 MSTORE POP DUP2 ADD SWAP1 PUSH2 0xC23 SWAP2 SWAP1 PUSH2 0x1BFB JUMP JUMPDEST PUSH1 0x1 JUMPDEST PUSH2 0xC65 JUMPI PUSH1 0x40 MLOAD PUSH32 0x8C379A000000000000000000000000000000000000000000000000000000000 DUP2 MSTORE PUSH1 0x4 ADD PUSH2 0xC5C SWAP1 PUSH2 0x1ED6 JUMP JUMPDEST PUSH1 0x40 MLOAD DUP1 SWAP2 SUB SWAP1 REVERT JUMPDEST DUP2 PUSH1 0x7 PUSH0 PUSH2 0x100 EXP DUP2 SLOAD DUP2 PUSH20 0xFFFFFFFFFFFFFFFFFFFFFFFFFFFFFFFFFFFFFFFF MUL NOT AND SWAP1 DUP4 PUSH20 0xFFFFFFFFFFFFFFFFFFFFFFFFFFFFFFFFFFFFFFFF AND MUL OR SWAP1 SSTORE POP POP POP JUMP JUMPDEST PUSH0 PUSH0 PUSH2 0xCC3 DUP4 DUP1 PUSH1 0x20 ADD SWAP1 PUSH2 0xCBE SWAP2 SWAP1 PUSH2 0x1C9A JUMP JUMPDEST PUSH2 0xE1F JUMP JUMPDEST SWAP1 POP PUSH0 PUSH2 0xCDE DUP5 DUP1 PUSH1 0x40 ADD SWAP1 PUSH2 0xCD9 SWAP2 SWAP1 PUSH2 0x1EF4 JUMP JUMPDEST PUSH2 0xEB8 JUMP JUMPDEST SWAP1 POP PUSH0 PUSH2 0xCEA DUP3 PUSH2 0x134D JUMP JUMPDEST SWAP1 POP PUSH0 PUSH2 0xCFA PUSH0 DUP1 SLOAD SWAP1 POP PUSH2 0x13A8 JUMP JUMPDEST SWAP1 POP PUSH0 DUP7 SWAP1 DUP1 PUSH1 0x1 DUP2 SLOAD ADD DUP1 DUP3 SSTORE DUP1 SWAP2 POP POP PUSH1 0x1 SWAP1 SUB SWAP1 PUSH0 MSTORE PUSH1 0x20 PUSH0 KECCAK256 SWAP1 PUSH1 0x3 MUL ADD PUSH0 SWAP1 SWAP2 SWAP1 SWAP2 SWAP1 SWAP2 POP DUP2 DUP2 PUSH2 0xD30 SWAP2 SWAP1 PUSH2 0x25D7 JUMP JUMPDEST POP POP DUP1 PUSH1 0x1 PUSH0 DUP7 DUP2 MSTORE PUSH1 0x20 ADD SWAP1 DUP2 MSTORE PUSH1 0x20 ADD PUSH0 KECCAK256 DUP2 SWAP1 SSTORE POP DUP1 PUSH1 0x2 PUSH0 DUP5 DUP2 MSTORE PUSH1 0x20 ADD SWAP1 DUP2 MSTORE PUSH1 0x20 ADD PUSH0 KECCAK256 DUP2 SWAP1 SSTORE POP DUP1 PUSH32 0x8320D61EB752C02271B492BB71EC93150C4EF1F5B9826A5D7C93B055EC00AC4E PUSH1 0x40 MLOAD PUSH1 0x40 MLOAD DUP1 SWAP2 SUB SWAP1 LOG2 DUP1 SWAP5 POP POP POP POP POP SWAP2 SWAP1 POP JUMP JUMPDEST PUSH0 PUSH2 0xDD6 PUSH1 0x40 MLOAD DUP1 PUSH1 0x40 ADD PUSH1 0x40 MSTORE DUP1 PUSH1 0x12 DUP2 MSTORE PUSH1 0x20 ADD PUSH32 0x6574662D746F6B656E2D6465706C6F7965720000000000000000000000000000 DUP2 MSTORE POP PUSH2 0x4A3 JUMP JUMPDEST SWAP1 POP SWAP1 JUMP JUMPDEST PUSH0 PUSH2 0xE1A PUSH1 0x40 MLOAD DUP1 PUSH1 0x40 ADD PUSH1 0x40 MSTORE DUP1 PUSH1 0x12 DUP2 MSTORE PUSH1 0x20 ADD PUSH32 0x6574662D7661756C742D6465706C6F7965720000000000000000000000000000 DUP2 MSTORE POP PUSH2 0x4A3 JUMP JUMPDEST SWAP1 POP SWAP1 JUMP JUMPDEST PUSH0 PUSH0 DUP4 DUP4 SWAP1 POP SUB PUSH2 0xE5C JUMPI PUSH1 0x40 MLOAD PUSH32 0x653B1BE600000000000000000000000000000000000000000000000000000000 DUP2 MSTORE PUSH1 0x4 ADD PUSH1 0x40 MLOAD DUP1 SWAP2 SUB SWAP1 REVERT JUMPDEST PUSH2 0xE66 DUP4 DUP4 PUSH2 0x13BD JUMP JUMPDEST SWAP1 POP PUSH0 PUSH1 0x1 PUSH0 DUP4 DUP2 MSTORE PUSH1 0x20 ADD SWAP1 DUP2 MSTORE PUSH1 0x20 ADD PUSH0 KECCAK256 SLOAD EQ PUSH2 0xEB2 JUMPI PUSH1 0x40 MLOAD PUSH32 0xC498761200000000000000000000000000000000000000000000000000000000 DUP2 MSTORE PUSH1 0x4 ADD PUSH1 0x40 MLOAD DUP1 SWAP2 SUB SWAP1 REVERT JUMPDEST SWAP3 SWAP2 POP POP JUMP JUMPDEST PUSH1 0x60 PUSH0 DUP4 DUP4 SWAP1 POP SWAP1 POP PUSH0 DUP2 SUB PUSH2 0xEFA JUMPI PUSH1 0x40 MLOAD PUSH32 0x5373815F00000000000000000000000000000000000000000000000000000000 DUP2 MSTORE PUSH1 0x4 ADD PUSH1 0x40 MLOAD DUP1 SWAP2 SUB SWAP1 REVERT JUMPDEST DUP1 PUSH8 0xFFFFFFFFFFFFFFFF DUP2 GT ISZERO PUSH2 0xF14 JUMPI PUSH2 0xF13 PUSH2 0x16D2 JUMP JUMPDEST JUMPDEST PUSH1 0x40 MLOAD SWAP1 DUP1 DUP3 MSTORE DUP1 PUSH1 0x20 MUL PUSH1 0x20 ADD DUP3 ADD PUSH1 0x40 MSTORE DUP1 ISZERO PUSH2 0xF4D JUMPI DUP2 PUSH1 0x20 ADD JUMPDEST PUSH2 0xF3A PUSH2 0x15AE JUMP JUMPDEST DUP2 MSTORE PUSH1 0x20 ADD SWAP1 PUSH1 0x1 SWAP1 SUB SWAP1 DUP2 PUSH2 0xF32 JUMPI SWAP1 POP JUMPDEST POP SWAP2 POP PUSH0 PUSH0 SWAP1 POP JUMPDEST DUP2 DUP2 LT ISZERO PUSH2 0x11FF JUMPI CALLDATASIZE DUP6 DUP6 DUP4 DUP2 DUP2 LT PUSH2 0xF71 JUMPI PUSH2 0xF70 PUSH2 0x25E5 JUMP JUMPDEST JUMPDEST SWAP1 POP PUSH1 0x40 MUL ADD SWAP1 POP PUSH0 DUP2 PUSH0 ADD PUSH1 0x20 DUP2 ADD SWAP1 PUSH2 0xF8C SWAP2 SWAP1 PUSH2 0x192E JUMP JUMPDEST SWAP1 POP PUSH0 DUP3 PUSH1 0x20 ADD PUSH1 0x20 DUP2 ADD SWAP1 PUSH2 0xFA2 SWAP2 SWAP1 PUSH2 0x2626 JUMP JUMPDEST PUSH2 0xFFFF AND SWAP1 POP PUSH32 0x0 PUSH20 0xFFFFFFFFFFFFFFFFFFFFFFFFFFFFFFFFFFFFFFFF AND DUP3 PUSH20 0xFFFFFFFFFFFFFFFFFFFFFFFFFFFFFFFFFFFFFFFF AND EQ PUSH2 0x10E8 JUMPI PUSH0 PUSH2 0x1004 PUSH2 0x13DE JUMP JUMPDEST PUSH20 0xFFFFFFFFFFFFFFFFFFFFFFFFFFFFFFFFFFFFFFFF AND PUSH4 0x6425F09E DUP5 PUSH1 0x40 MLOAD DUP3 PUSH4 0xFFFFFFFF AND PUSH1 0xE0 SHL DUP2 MSTORE PUSH1 0x4 ADD PUSH2 0x103C SWAP2 SWAP1 PUSH2 0x161F JUMP JUMPDEST PUSH1 0x80 PUSH1 0x40 MLOAD DUP1 DUP4 SUB DUP2 PUSH0 DUP8 GAS CALL ISZERO DUP1 ISZERO PUSH2 0x1058 JUMPI RETURNDATASIZE PUSH0 PUSH0 RETURNDATACOPY RETURNDATASIZE PUSH0 REVERT JUMPDEST POP POP POP POP PUSH1 0x40 MLOAD RETURNDATASIZE PUSH1 0x1F NOT PUSH1 0x1F DUP3 ADD AND DUP3 ADD DUP1 PUSH1 0x40 MSTORE POP DUP2 ADD SWAP1 PUSH2 0x107C SWAP2 SWAP1 PUSH2 0x2775 JUMP JUMPDEST SWAP1 POP PUSH0 PUSH20 0xFFFFFFFFFFFFFFFFFFFFFFFFFFFFFFFFFFFFFFFF AND DUP2 PUSH0 ADD MLOAD PUSH20 0xFFFFFFFFFFFFFFFFFFFFFFFFFFFFFFFFFFFFFFFF AND SUB PUSH2 0x10E6 JUMPI PUSH1 0x40 MLOAD PUSH32 0x791C2FED00000000000000000000000000000000000000000000000000000000 DUP2 MSTORE PUSH1 0x4 ADD PUSH1 0x40 MLOAD DUP1 SWAP2 SUB SWAP1 REVERT JUMPDEST POP JUMPDEST PUSH0 PUSH20 0xFFFFFFFFFFFFFFFFFFFFFFFFFFFFFFFFFFFFFFFF AND DUP3 PUSH20 0xFFFFFFFFFFFFFFFFFFFFFFFFFFFFFFFFFFFFFFFF AND SUB PUSH2 0x114D JUMPI PUSH1 0x40 MLOAD PUSH32 0xAD1991F500000000000000000000000000000000000000000000000000000000 DUP2 MSTORE PUSH1 0x4 ADD PUSH1 0x40 MLOAD DUP1 SWAP2 SUB SWAP1 REVERT JUMPDEST PUSH0 DUP2 SUB PUSH2 0x1186 JUMPI PUSH1 0x40 MLOAD PUSH32 0x19A2A9BD00000000000000000000000000000000000000000000000000000000 DUP2 MSTORE PUSH1 0x4 ADD PUSH1 0x40 MLOAD DUP1 SWAP2 SUB SWAP1 REVERT JUMPDEST PUSH2 0x2710 DUP2 GT ISZERO PUSH2 0x11C2 JUMPI PUSH1 0x40 MLOAD PUSH32 0xC663343D00000000000000000000000000000000000000000000000000000000 DUP2 MSTORE PUSH1 0x4 ADD PUSH1 0x40 MLOAD DUP1 SWAP2 SUB SWAP1 REVERT JUMPDEST DUP3 DUP1 CALLDATASIZE SUB DUP2 ADD SWAP1 PUSH2 0x11D3 SWAP2 SWAP1 PUSH2 0x27ED JUMP JUMPDEST DUP7 DUP6 DUP2 MLOAD DUP2 LT PUSH2 0x11E6 JUMPI PUSH2 0x11E5 PUSH2 0x25E5 JUMP JUMPDEST JUMPDEST PUSH1 0x20 MUL PUSH1 0x20 ADD ADD DUP2 SWAP1 MSTORE POP DUP4 PUSH1 0x1 ADD SWAP4 POP POP POP POP PUSH2 0xF55 JUMP JUMPDEST POP PUSH2 0x1209 DUP3 PUSH2 0x1422 JUMP JUMPDEST PUSH0 PUSH0 PUSH0 SWAP1 POP JUMPDEST DUP3 DUP2 LT ISZERO PUSH2 0x1309 JUMPI PUSH0 DUP2 GT DUP1 ISZERO PUSH2 0x1297 JUMPI POP DUP4 DUP2 DUP2 MLOAD DUP2 LT PUSH2 0x1234 JUMPI PUSH2 0x1233 PUSH2 0x25E5 JUMP JUMPDEST JUMPDEST PUSH1 0x20 MUL PUSH1 0x20 ADD ADD MLOAD PUSH0 ADD MLOAD PUSH20 0xFFFFFFFFFFFFFFFFFFFFFFFFFFFFFFFFFFFFFFFF AND DUP5 PUSH1 0x1 DUP4 PUSH2 0x1263 SWAP2 SWAP1 PUSH2 0x2818 JUMP JUMPDEST DUP2 MLOAD DUP2 LT PUSH2 0x1274 JUMPI PUSH2 0x1273 PUSH2 0x25E5 JUMP JUMPDEST JUMPDEST PUSH1 0x20 MUL PUSH1 0x20 ADD ADD MLOAD PUSH0 ADD MLOAD PUSH20 0xFFFFFFFFFFFFFFFFFFFFFFFFFFFFFFFFFFFFFFFF AND EQ JUMPDEST ISZERO PUSH2 0x12CE JUMPI PUSH1 0x40 MLOAD PUSH32 0x464E3F6A00000000000000000000000000000000000000000000000000000000 DUP2 MSTORE PUSH1 0x4 ADD PUSH1 0x40 MLOAD DUP1 SWAP2 SUB SWAP1 REVERT JUMPDEST DUP4 DUP2 DUP2 MLOAD DUP2 LT PUSH2 0x12E1 JUMPI PUSH2 0x12E0 PUSH2 0x25E5 JUMP JUMPDEST JUMPDEST PUSH1 0x20 MUL PUSH1 0x20 ADD ADD MLOAD PUSH1 0x20 ADD MLOAD PUSH2 0xFFFF AND DUP3 PUSH2 0x12FC SWAP2 SWAP1 PUSH2 0x1B44 JUMP JUMPDEST SWAP2 POP DUP1 PUSH1 0x1 ADD SWAP1 POP PUSH2 0x120F JUMP JUMPDEST POP PUSH2 0x2710 DUP2 EQ PUSH2 0x1345 JUMPI PUSH1 0x40 MLOAD PUSH32 0xDA6957EA00000000000000000000000000000000000000000000000000000000 DUP2 MSTORE PUSH1 0x4 ADD PUSH1 0x40 MLOAD DUP1 SWAP2 SUB SWAP1 REVERT JUMPDEST POP POP SWAP3 SWAP2 POP POP JUMP JUMPDEST PUSH0 PUSH2 0x1357 DUP3 PUSH2 0x157F JUMP JUMPDEST SWAP1 POP PUSH0 PUSH1 0x2 PUSH0 DUP4 DUP2 MSTORE PUSH1 0x20 ADD SWAP1 DUP2 MSTORE PUSH1 0x20 ADD PUSH0 KECCAK256 SLOAD EQ PUSH2 0x13A3 JUMPI PUSH1 0x40 MLOAD PUSH32 0x985BE99000000000000000000000000000000000000000000000000000000000 DUP2 MSTORE PUSH1 0x4 ADD PUSH1 0x40 MLOAD DUP1 SWAP2 SUB SWAP1 REVERT JUMPDEST SWAP2 SWAP1 POP JUMP JUMPDEST PUSH0 PUSH1 0x1 DUP3 PUSH2 0x13B6 SWAP2 SWAP1 PUSH2 0x1B44 JUMP JUMPDEST SWAP1 POP SWAP2 SWAP1 POP JUMP JUMPDEST PUSH0 DUP3 DUP3 PUSH1 0x40 MLOAD PUSH2 0x13CE SWAP3 SWAP2 SWAP1 PUSH2 0x2879 JUMP JUMPDEST PUSH1 0x40 MLOAD DUP1 SWAP2 SUB SWAP1 KECCAK256 SWAP1 POP SWAP3 SWAP2 POP POP JUMP JUMPDEST PUSH0 PUSH2 0x141D PUSH1 0x40 MLOAD DUP1 PUSH1 0x40 ADD PUSH1 0x40 MSTORE DUP1 PUSH1 0xB DUP2 MSTORE PUSH1 0x20 ADD PUSH32 0x706F6F6C2D66696E646572000000000000000000000000000000000000000000 DUP2 MSTORE POP PUSH2 0x4A3 JUMP JUMPDEST SWAP1 POP SWAP1 JUMP JUMPDEST PUSH0 DUP2 MLOAD SWAP1 POP PUSH0 PUSH1 0x1 SWAP1 POP JUMPDEST DUP2 DUP2 LT ISZERO PUSH2 0x157A JUMPI PUSH0 DUP4 DUP3 DUP2 MLOAD DUP2 LT PUSH2 0x1449 JUMPI PUSH2 0x1448 PUSH2 0x25E5 JUMP JUMPDEST JUMPDEST PUSH1 0x20 MUL PUSH1 0x20 ADD ADD MLOAD SWAP1 POP PUSH0 DUP3 SWAP1 POP JUMPDEST PUSH0 DUP2 GT ISZERO PUSH2 0x154E JUMPI PUSH0 DUP6 PUSH1 0x1 DUP4 PUSH2 0x146F SWAP2 SWAP1 PUSH2 0x2818 JUMP JUMPDEST DUP2 MLOAD DUP2 LT PUSH2 0x1480 JUMPI PUSH2 0x147F PUSH2 0x25E5 JUMP JUMPDEST JUMPDEST PUSH1 0x20 MUL PUSH1 0x20 ADD ADD MLOAD SWAP1 POP DUP3 PUSH0 ADD MLOAD PUSH20 0xFFFFFFFFFFFFFFFFFFFFFFFFFFFFFFFFFFFFFFFF AND DUP2 PUSH0 ADD MLOAD PUSH20 0xFFFFFFFFFFFFFFFFFFFFFFFFFFFFFFFFFFFFFFFF AND LT DUP1 PUSH2 0x1517 JUMPI POP DUP3 PUSH0 ADD MLOAD PUSH20 0xFFFFFFFFFFFFFFFFFFFFFFFFFFFFFFFFFFFFFFFF AND DUP2 PUSH0 ADD MLOAD PUSH20 0xFFFFFFFFFFFFFFFFFFFFFFFFFFFFFFFFFFFFFFFF AND EQ DUP1 ISZERO PUSH2 0x1516 JUMPI POP DUP3 PUSH1 0x20 ADD MLOAD PUSH2 0xFFFF AND DUP2 PUSH1 0x20 ADD MLOAD PUSH2 0xFFFF AND GT ISZERO JUMPDEST JUMPDEST ISZERO PUSH2 0x1522 JUMPI POP PUSH2 0x154E JUMP JUMPDEST DUP1 DUP7 DUP4 DUP2 MLOAD DUP2 LT PUSH2 0x1536 JUMPI PUSH2 0x1535 PUSH2 0x25E5 JUMP JUMPDEST JUMPDEST PUSH1 0x20 MUL PUSH1 0x20 ADD ADD DUP2 SWAP1 MSTORE POP DUP2 PUSH1 0x1 SWAP1 SUB SWAP2 POP POP PUSH2 0x1458 JUMP JUMPDEST DUP2 DUP6 DUP3 DUP2 MLOAD DUP2 LT PUSH2 0x1562 JUMPI PUSH2 0x1561 PUSH2 0x25E5 JUMP JUMPDEST JUMPDEST PUSH1 0x20 MUL PUSH1 0x20 ADD ADD DUP2 SWAP1 MSTORE POP DUP3 PUSH1 0x1 ADD SWAP3 POP POP POP PUSH2 0x142D JUMP JUMPDEST POP POP POP JUMP JUMPDEST PUSH0 DUP2 PUSH1 0x40 MLOAD PUSH1 0x20 ADD PUSH2 0x1591 SWAP2 SWAP1 PUSH2 0x2984 JUMP JUMPDEST PUSH1 0x40 MLOAD PUSH1 0x20 DUP2 DUP4 SUB SUB DUP2 MSTORE SWAP1 PUSH1 0x40 MSTORE DUP1 MLOAD SWAP1 PUSH1 0x20 ADD KECCAK256 SWAP1 POP SWAP2 SWAP1 POP JUMP JUMPDEST PUSH1 0x40 MLOAD DUP1 PUSH1 0x40 ADD PUSH1 0x40 MSTORE DUP1 PUSH0 PUSH20 0xFFFFFFFFFFFFFFFFFFFFFFFFFFFFFFFFFFFFFFFF AND DUP2 MSTORE PUSH1 0x20 ADD PUSH0 PUSH2 0xFFFF AND DUP2 MSTORE POP SWAP1 JUMP JUMPDEST PUSH0 PUSH20 0xFFFFFFFFFFFFFFFFFFFFFFFFFFFFFFFFFFFFFFFF DUP3 AND SWAP1 POP SWAP2 SWAP1 POP JUMP JUMPDEST PUSH0 PUSH2 0x1609 DUP3 PUSH2 0x15E0 JUMP JUMPDEST SWAP1 POP SWAP2 SWAP1 POP JUMP JUMPDEST PUSH2 0x1619 DUP2 PUSH2 0x15FF JUMP JUMPDEST DUP3 MSTORE POP POP JUMP JUMPDEST PUSH0 PUSH1 0x20 DUP3 ADD SWAP1 POP PUSH2 0x1632 PUSH0 DUP4 ADD DUP5 PUSH2 0x1610 JUMP JUMPDEST SWAP3 SWAP2 POP POP JUMP JUMPDEST PUSH0 PUSH1 0x40 MLOAD SWAP1 POP SWAP1 JUMP JUMPDEST PUSH0 PUSH0 REVERT JUMPDEST PUSH0 PUSH0 REVERT JUMPDEST PUSH0 DUP2 SWAP1 POP SWAP2 SWAP1 POP JUMP JUMPDEST PUSH2 0x165B DUP2 PUSH2 0x1649 JUMP JUMPDEST DUP2 EQ PUSH2 0x1665 JUMPI PUSH0 PUSH0 REVERT JUMPDEST POP JUMP JUMPDEST PUSH0 DUP2 CALLDATALOAD SWAP1 POP PUSH2 0x1676 DUP2 PUSH2 0x1652 JUMP JUMPDEST SWAP3 SWAP2 POP POP JUMP JUMPDEST PUSH0 PUSH0 PUSH1 0x40 DUP4 DUP6 SUB SLT ISZERO PUSH2 0x1692 JUMPI PUSH2 0x1691 PUSH2 0x1641 JUMP JUMPDEST JUMPDEST PUSH0 PUSH2 0x169F DUP6 DUP3 DUP7 ADD PUSH2 0x1668 JUMP JUMPDEST SWAP3 POP POP PUSH1 0x20 PUSH2 0x16B0 DUP6 DUP3 DUP7 ADD PUSH2 0x1668 JUMP JUMPDEST SWAP2 POP POP SWAP3 POP SWAP3 SWAP1 POP JUMP JUMPDEST PUSH0 PUSH0 REVERT JUMPDEST PUSH0 PUSH0 REVERT JUMPDEST PUSH0 PUSH1 0x1F NOT PUSH1 0x1F DUP4 ADD AND SWAP1 POP SWAP2 SWAP1 POP JUMP JUMPDEST PUSH32 0x4E487B7100000000000000000000000000000000000000000000000000000000 PUSH0 MSTORE PUSH1 0x41 PUSH1 0x4 MSTORE PUSH1 0x24 PUSH0 REVERT JUMPDEST PUSH2 0x1708 DUP3 PUSH2 0x16C2 JUMP JUMPDEST DUP2 ADD DUP2 DUP2 LT PUSH8 0xFFFFFFFFFFFFFFFF DUP3 GT OR ISZERO PUSH2 0x1727 JUMPI PUSH2 0x1726 PUSH2 0x16D2 JUMP JUMPDEST JUMPDEST DUP1 PUSH1 0x40 MSTORE POP POP POP JUMP JUMPDEST PUSH0 PUSH2 0x1739 PUSH2 0x1638 JUMP JUMPDEST SWAP1 POP PUSH2 0x1745 DUP3 DUP3 PUSH2 0x16FF JUMP JUMPDEST SWAP2 SWAP1 POP JUMP JUMPDEST PUSH0 PUSH8 0xFFFFFFFFFFFFFFFF DUP3 GT ISZERO PUSH2 0x1764 JUMPI PUSH2 0x1763 PUSH2 0x16D2 JUMP JUMPDEST JUMPDEST PUSH2 0x176D DUP3 PUSH2 0x16C2 JUMP JUMPDEST SWAP1 POP PUSH1 0x20 DUP2 ADD SWAP1 POP SWAP2 SWAP1 POP JUMP JUMPDEST DUP3 DUP2 DUP4 CALLDATACOPY PUSH0 DUP4 DUP4 ADD MSTORE POP POP POP JUMP JUMPDEST PUSH0 PUSH2 0x179A PUSH2 0x1795 DUP5 PUSH2 0x174A JUMP JUMPDEST PUSH2 0x1730 JUMP JUMPDEST SWAP1 POP DUP3 DUP2 MSTORE PUSH1 0x20 DUP2 ADD DUP5 DUP5 DUP5 ADD GT ISZERO PUSH2 0x17B6 JUMPI PUSH2 0x17B5 PUSH2 0x16BE JUMP JUMPDEST JUMPDEST PUSH2 0x17C1 DUP5 DUP3 DUP6 PUSH2 0x177A JUMP JUMPDEST POP SWAP4 SWAP3 POP POP POP JUMP JUMPDEST PUSH0 DUP3 PUSH1 0x1F DUP4 ADD SLT PUSH2 0x17DD JUMPI PUSH2 0x17DC PUSH2 0x16BA JUMP JUMPDEST JUMPDEST DUP2 CALLDATALOAD PUSH2 0x17ED DUP5 DUP3 PUSH1 0x20 DUP7 ADD PUSH2 0x1788 JUMP JUMPDEST SWAP2 POP POP SWAP3 SWAP2 POP POP JUMP JUMPDEST PUSH0 PUSH1 0x20 DUP3 DUP5 SUB SLT ISZERO PUSH2 0x180B JUMPI PUSH2 0x180A PUSH2 0x1641 JUMP JUMPDEST JUMPDEST PUSH0 DUP3 ADD CALLDATALOAD PUSH8 0xFFFFFFFFFFFFFFFF DUP2 GT ISZERO PUSH2 0x1828 JUMPI PUSH2 0x1827 PUSH2 0x1645 JUMP JUMPDEST JUMPDEST PUSH2 0x1834 DUP5 DUP3 DUP6 ADD PUSH2 0x17C9 JUMP JUMPDEST SWAP2 POP POP SWAP3 SWAP2 POP POP JUMP JUMPDEST PUSH0 PUSH1 0x20 DUP3 DUP5 SUB SLT ISZERO PUSH2 0x1852 JUMPI PUSH2 0x1851 PUSH2 0x1641 JUMP JUMPDEST JUMPDEST PUSH0 PUSH2 0x185F DUP5 DUP3 DUP6 ADD PUSH2 0x1668 JUMP JUMPDEST SWAP2 POP POP SWAP3 SWAP2 POP POP JUMP JUMPDEST PUSH2 0x1871 DUP2 PUSH2 0x1649 JUMP JUMPDEST DUP3 MSTORE POP POP JUMP JUMPDEST PUSH0 PUSH1 0x20 DUP3 ADD SWAP1 POP PUSH2 0x188A PUSH0 DUP4 ADD DUP5 PUSH2 0x1868 JUMP JUMPDEST SWAP3 SWAP2 POP POP JUMP JUMPDEST PUSH0 DUP2 SWAP1 POP SWAP2 SWAP1 POP JUMP JUMPDEST PUSH0 PUSH2 0x18B3 PUSH2 0x18AE PUSH2 0x18A9 DUP5 PUSH2 0x15E0 JUMP JUMPDEST PUSH2 0x1890 JUMP JUMPDEST PUSH2 0x15E0 JUMP JUMPDEST SWAP1 POP SWAP2 SWAP1 POP JUMP JUMPDEST PUSH0 PUSH2 0x18C4 DUP3 PUSH2 0x1899 JUMP JUMPDEST SWAP1 POP SWAP2 SWAP1 POP JUMP JUMPDEST PUSH0 PUSH2 0x18D5 DUP3 PUSH2 0x18BA JUMP JUMPDEST SWAP1 POP SWAP2 SWAP1 POP JUMP JUMPDEST PUSH2 0x18E5 DUP2 PUSH2 0x18CB JUMP JUMPDEST DUP3 MSTORE POP POP JUMP JUMPDEST PUSH0 PUSH1 0x20 DUP3 ADD SWAP1 POP PUSH2 0x18FE PUSH0 DUP4 ADD DUP5 PUSH2 0x18DC JUMP JUMPDEST SWAP3 SWAP2 POP POP JUMP JUMPDEST PUSH2 0x190D DUP2 PUSH2 0x15FF JUMP JUMPDEST DUP2 EQ PUSH2 0x1917 JUMPI PUSH0 PUSH0 REVERT JUMPDEST POP JUMP JUMPDEST PUSH0 DUP2 CALLDATALOAD SWAP1 POP PUSH2 0x1928 DUP2 PUSH2 0x1904 JUMP JUMPDEST SWAP3 SWAP2 POP POP JUMP JUMPDEST PUSH0 PUSH1 0x20 DUP3 DUP5 SUB SLT ISZERO PUSH2 0x1943 JUMPI PUSH2 0x1942 PUSH2 0x1641 JUMP JUMPDEST JUMPDEST PUSH0 PUSH2 0x1950 DUP5 DUP3 DUP6 ADD PUSH2 0x191A JUMP JUMPDEST SWAP2 POP POP SWAP3 SWAP2 POP POP JUMP JUMPDEST PUSH0 PUSH0 REVERT JUMPDEST PUSH0 PUSH1 0x60 DUP3 DUP5 SUB SLT ISZERO PUSH2 0x1972 JUMPI PUSH2 0x1971 PUSH2 0x1959 JUMP JUMPDEST JUMPDEST DUP2 SWAP1 POP SWAP3 SWAP2 POP POP JUMP JUMPDEST PUSH0 PUSH1 0x20 DUP3 DUP5 SUB SLT ISZERO PUSH2 0x1990 JUMPI PUSH2 0x198F PUSH2 0x1641 JUMP JUMPDEST JUMPDEST PUSH0 DUP3 ADD CALLDATALOAD PUSH8 0xFFFFFFFFFFFFFFFF DUP2 GT ISZERO PUSH2 0x19AD JUMPI PUSH2 0x19AC PUSH2 0x1645 JUMP JUMPDEST JUMPDEST PUSH2 0x19B9 DUP5 DUP3 DUP6 ADD PUSH2 0x195D JUMP JUMPDEST SWAP2 POP POP SWAP3 SWAP2 POP POP JUMP JUMPDEST PUSH0 DUP3 DUP3 MSTORE PUSH1 0x20 DUP3 ADD SWAP1 POP SWAP3 SWAP2 POP POP JUMP JUMPDEST PUSH32 0x6D73672E73656E646572206973206E6F742065746620726F7574657200000000 PUSH0 DUP3 ADD MSTORE POP JUMP JUMPDEST PUSH0 PUSH2 0x1A06 PUSH1 0x1C DUP4 PUSH2 0x19C2 JUMP JUMPDEST SWAP2 POP PUSH2 0x1A11 DUP3 PUSH2 0x19D2 JUMP JUMPDEST PUSH1 0x20 DUP3 ADD SWAP1 POP SWAP2 SWAP1 POP JUMP JUMPDEST PUSH0 PUSH1 0x20 DUP3 ADD SWAP1 POP DUP2 DUP2 SUB PUSH0 DUP4 ADD MSTORE PUSH2 0x1A33 DUP2 PUSH2 0x19FA JUMP JUMPDEST SWAP1 POP SWAP2 SWAP1 POP JUMP JUMPDEST PUSH0 DUP2 MLOAD SWAP1 POP PUSH2 0x1A48 DUP2 PUSH2 0x1652 JUMP JUMPDEST SWAP3 SWAP2 POP POP JUMP JUMPDEST PUSH0 PUSH1 0x20 DUP3 DUP5 SUB SLT ISZERO PUSH2 0x1A63 JUMPI PUSH2 0x1A62 PUSH2 0x1641 JUMP JUMPDEST JUMPDEST PUSH0 PUSH2 0x1A70 DUP5 DUP3 DUP6 ADD PUSH2 0x1A3A JUMP JUMPDEST SWAP2 POP POP SWAP3 SWAP2 POP POP JUMP JUMPDEST PUSH32 0x4E487B7100000000000000000000000000000000000000000000000000000000 PUSH0 MSTORE PUSH1 0x11 PUSH1 0x4 MSTORE PUSH1 0x24 PUSH0 REVERT JUMPDEST PUSH0 PUSH2 0x1AB0 DUP3 PUSH2 0x1649 JUMP JUMPDEST SWAP2 POP PUSH2 0x1ABB DUP4 PUSH2 0x1649 JUMP JUMPDEST SWAP3 POP DUP3 DUP3 MUL PUSH2 0x1AC9 DUP2 PUSH2 0x1649 JUMP JUMPDEST SWAP2 POP DUP3 DUP3 DIV DUP5 EQ DUP4 ISZERO OR PUSH2 0x1AE0 JUMPI PUSH2 0x1ADF PUSH2 0x1A79 JUMP JUMPDEST JUMPDEST POP SWAP3 SWAP2 POP POP JUMP JUMPDEST PUSH32 0x4E487B7100000000000000000000000000000000000000000000000000000000 PUSH0 MSTORE PUSH1 0x12 PUSH1 0x4 MSTORE PUSH1 0x24 PUSH0 REVERT JUMPDEST PUSH0 PUSH2 0x1B1E DUP3 PUSH2 0x1649 JUMP JUMPDEST SWAP2 POP PUSH2 0x1B29 DUP4 PUSH2 0x1649 JUMP JUMPDEST SWAP3 POP DUP3 PUSH2 0x1B39 JUMPI PUSH2 0x1B38 PUSH2 0x1AE7 JUMP JUMPDEST JUMPDEST DUP3 DUP3 DIV SWAP1 POP SWAP3 SWAP2 POP POP JUMP JUMPDEST PUSH0 PUSH2 0x1B4E DUP3 PUSH2 0x1649 JUMP JUMPDEST SWAP2 POP PUSH2 0x1B59 DUP4 PUSH2 0x1649 JUMP JUMPDEST SWAP3 POP DUP3 DUP3 ADD SWAP1 POP DUP1 DUP3 GT ISZERO PUSH2 0x1B71 JUMPI PUSH2 0x1B70 PUSH2 0x1A79 JUMP JUMPDEST JUMPDEST SWAP3 SWAP2 POP POP JUMP JUMPDEST PUSH0 DUP2 MLOAD SWAP1 POP SWAP2 SWAP1 POP JUMP JUMPDEST DUP3 DUP2 DUP4 MCOPY PUSH0 DUP4 DUP4 ADD MSTORE POP POP POP JUMP JUMPDEST PUSH0 PUSH2 0x1B99 DUP3 PUSH2 0x1B77 JUMP JUMPDEST PUSH2 0x1BA3 DUP2 DUP6 PUSH2 0x19C2 JUMP JUMPDEST SWAP4 POP PUSH2 0x1BB3 DUP2 DUP6 PUSH1 0x20 DUP7 ADD PUSH2 0x1B81 JUMP JUMPDEST PUSH2 0x1BBC DUP2 PUSH2 0x16C2 JUMP JUMPDEST DUP5 ADD SWAP2 POP POP SWAP3 SWAP2 POP POP JUMP JUMPDEST PUSH0 PUSH1 0x20 DUP3 ADD SWAP1 POP DUP2 DUP2 SUB PUSH0 DUP4 ADD MSTORE PUSH2 0x1BDF DUP2 DUP5 PUSH2 0x1B8F JUMP JUMPDEST SWAP1 POP SWAP3 SWAP2 POP POP JUMP JUMPDEST PUSH0 DUP2 MLOAD SWAP1 POP PUSH2 0x1BF5 DUP2 PUSH2 0x1904 JUMP JUMPDEST SWAP3 SWAP2 POP POP JUMP JUMPDEST PUSH0 PUSH1 0x20 DUP3 DUP5 SUB SLT ISZERO PUSH2 0x1C10 JUMPI PUSH2 0x1C0F PUSH2 0x1641 JUMP JUMPDEST JUMPDEST PUSH0 PUSH2 0x1C1D DUP5 DUP3 DUP6 ADD PUSH2 0x1BE7 JUMP JUMPDEST SWAP2 POP POP SWAP3 SWAP2 POP POP JUMP JUMPDEST PUSH32 0x43616C6C6572206973206E6F7420746865206F776E6572000000000000000000 PUSH0 DUP3 ADD MSTORE POP JUMP JUMPDEST PUSH0 PUSH2 0x1C5A PUSH1 0x17 DUP4 PUSH2 0x19C2 JUMP JUMPDEST SWAP2 POP PUSH2 0x1C65 DUP3 PUSH2 0x1C26 JUMP JUMPDEST PUSH1 0x20 DUP3 ADD SWAP1 POP SWAP2 SWAP1 POP JUMP JUMPDEST PUSH0 PUSH1 0x20 DUP3 ADD SWAP1 POP DUP2 DUP2 SUB PUSH0 DUP4 ADD MSTORE PUSH2 0x1C87 DUP2 PUSH2 0x1C4E JUMP JUMPDEST SWAP1 POP SWAP2 SWAP1 POP JUMP JUMPDEST PUSH0 PUSH0 REVERT JUMPDEST PUSH0 PUSH0 REVERT JUMPDEST PUSH0 PUSH0 REVERT JUMPDEST PUSH0 PUSH0 DUP4 CALLDATALOAD PUSH1 0x1 PUSH1 0x20 SUB DUP5 CALLDATASIZE SUB SUB DUP2 SLT PUSH2 0x1CB6 JUMPI PUSH2 0x1CB5 PUSH2 0x1C8E JUMP JUMPDEST JUMPDEST DUP1 DUP5 ADD SWAP3 POP DUP3 CALLDATALOAD SWAP2 POP PUSH8 0xFFFFFFFFFFFFFFFF DUP3 GT ISZERO PUSH2 0x1CD8 JUMPI PUSH2 0x1CD7 PUSH2 0x1C92 JUMP JUMPDEST JUMPDEST PUSH1 0x20 DUP4 ADD SWAP3 POP PUSH1 0x1 DUP3 MUL CALLDATASIZE SUB DUP4 SGT ISZERO PUSH2 0x1CF4 JUMPI PUSH2 0x1CF3 PUSH2 0x1C96 JUMP JUMPDEST JUMPDEST POP SWAP3 POP SWAP3 SWAP1 POP JUMP JUMPDEST PUSH0 PUSH2 0x1D07 DUP4 DUP6 PUSH2 0x19C2 JUMP JUMPDEST SWAP4 POP PUSH2 0x1D14 DUP4 DUP6 DUP5 PUSH2 0x177A JUMP JUMPDEST PUSH2 0x1D1D DUP4 PUSH2 0x16C2 JUMP JUMPDEST DUP5 ADD SWAP1 POP SWAP4 SWAP3 POP POP POP JUMP JUMPDEST PUSH0 PUSH1 0x60 DUP3 ADD SWAP1 POP PUSH2 0x1D3B PUSH0 DUP4 ADD DUP9 PUSH2 0x1868 JUMP JUMPDEST DUP2 DUP2 SUB PUSH1 0x20 DUP4 ADD MSTORE PUSH2 0x1D4E DUP2 DUP7 DUP9 PUSH2 0x1CFC JUMP JUMPDEST SWAP1 POP DUP2 DUP2 SUB PUSH1 0x40 DUP4 ADD MSTORE PUSH2 0x1D63 DUP2 DUP5 DUP7 PUSH2 0x1CFC JUMP JUMPDEST SWAP1 POP SWAP7 SWAP6 POP POP POP POP POP POP JUMP JUMPDEST PUSH0 PUSH1 0x40 DUP3 ADD SWAP1 POP PUSH2 0x1D82 PUSH0 DUP4 ADD DUP6 PUSH2 0x1610 JUMP JUMPDEST PUSH2 0x1D8F PUSH1 0x20 DUP4 ADD DUP5 PUSH2 0x1610 JUMP JUMPDEST SWAP4 SWAP3 POP POP POP JUMP JUMPDEST PUSH32 0x4469726563746F72792063616E6E6F74206265207A65726F2061646472657373 PUSH0 DUP3 ADD MSTORE POP JUMP JUMPDEST PUSH0 PUSH2 0x1DCA PUSH1 0x20 DUP4 PUSH2 0x19C2 JUMP JUMPDEST SWAP2 POP PUSH2 0x1DD5 DUP3 PUSH2 0x1D96 JUMP JUMPDEST PUSH1 0x20 DUP3 ADD SWAP1 POP SWAP2 SWAP1 POP JUMP JUMPDEST PUSH0 PUSH1 0x20 DUP3 ADD SWAP1 POP DUP2 DUP2 SUB PUSH0 DUP4 ADD MSTORE PUSH2 0x1DF7 DUP2 PUSH2 0x1DBE JUMP JUMPDEST SWAP1 POP SWAP2 SWAP1 POP JUMP JUMPDEST PUSH32 0x4469726563746F7279206D757374206265206120636F6E747261637400000000 PUSH0 DUP3 ADD MSTORE POP JUMP JUMPDEST PUSH0 PUSH2 0x1E32 PUSH1 0x1C DUP4 PUSH2 0x19C2 JUMP JUMPDEST SWAP2 POP PUSH2 0x1E3D DUP3 PUSH2 0x1DFE JUMP JUMPDEST PUSH1 0x20 DUP3 ADD SWAP1 POP SWAP2 SWAP1 POP JUMP JUMPDEST PUSH0 PUSH1 0x20 DUP3 ADD SWAP1 POP DUP2 DUP2 SUB PUSH0 DUP4 ADD MSTORE PUSH2 0x1E5F DUP2 PUSH2 0x1E26 JUMP JUMPDEST SWAP1 POP SWAP2 SWAP1 POP JUMP JUMPDEST PUSH32 0x4469726563746F7279206164647265737320646F6573206E6F7420696D706C65 PUSH0 DUP3 ADD MSTORE PUSH32 0x6D656E74206F776E657228290000000000000000000000000000000000000000 PUSH1 0x20 DUP3 ADD MSTORE POP JUMP JUMPDEST PUSH0 PUSH2 0x1EC0 PUSH1 0x2C DUP4 PUSH2 0x19C2 JUMP JUMPDEST SWAP2 POP PUSH2 0x1ECB DUP3 PUSH2 0x1E66 JUMP JUMPDEST PUSH1 0x40 DUP3 ADD SWAP1 POP SWAP2 SWAP1 POP JUMP JUMPDEST PUSH0 PUSH1 0x20 DUP3 ADD SWAP1 POP DUP2 DUP2 SUB PUSH0 DUP4 ADD MSTORE PUSH2 0x1EED DUP2 PUSH2 0x1EB4 JUMP JUMPDEST SWAP1 POP SWAP2 SWAP1 POP JUMP JUMPDEST PUSH0 PUSH0 DUP4 CALLDATALOAD PUSH1 0x1 PUSH1 0x20 SUB DUP5 CALLDATASIZE SUB SUB DUP2 SLT PUSH2 0x1F10 JUMPI PUSH2 0x1F0F PUSH2 0x1C8E JUMP JUMPDEST JUMPDEST DUP1 DUP5 ADD SWAP3 POP DUP3 CALLDATALOAD SWAP2 POP PUSH8 0xFFFFFFFFFFFFFFFF DUP3 GT ISZERO PUSH2 0x1F32 JUMPI PUSH2 0x1F31 PUSH2 0x1C92 JUMP JUMPDEST JUMPDEST PUSH1 0x20 DUP4 ADD SWAP3 POP PUSH1 0x40 DUP3 MUL CALLDATASIZE SUB DUP4 SGT ISZERO PUSH2 0x1F4E JUMPI PUSH2 0x1F4D PUSH2 0x1C96 JUMP JUMPDEST JUMPDEST POP SWAP3 POP SWAP3 SWAP1 POP JUMP JUMPDEST PUSH32 0x4E487B7100000000000000000000000000000000000000000000000000000000 PUSH0 MSTORE PUSH0 PUSH1 0x4 MSTORE PUSH1 0x24 PUSH0 REVERT JUMPDEST PUSH0 DUP3 SWAP1 POP SWAP3 SWAP2 POP POP JUMP JUMPDEST PUSH32 0x4E487B7100000000000000000000000000000000000000000000000000000000 PUSH0 MSTORE PUSH1 0x22 PUSH1 0x4 MSTORE PUSH1 0x24 PUSH0 REVERT JUMPDEST PUSH0 PUSH1 0x2 DUP3 DIV SWAP1 POP PUSH1 0x1 DUP3 AND DUP1 PUSH2 0x1FD0 JUMPI PUSH1 0x7F DUP3 AND SWAP2 POP JUMPDEST PUSH1 0x20 DUP3 LT DUP2 SUB PUSH2 0x1FE3 JUMPI PUSH2 0x1FE2 PUSH2 0x1F8C JUMP JUMPDEST JUMPDEST POP SWAP2 SWAP1 POP JUMP JUMPDEST PUSH0 DUP2 SWAP1 POP DUP2 PUSH0 MSTORE PUSH1 0x20 PUSH0 KECCAK256 SWAP1 POP SWAP2 SWAP1 POP JUMP JUMPDEST PUSH0 PUSH1 0x20 PUSH1 0x1F DUP4 ADD DIV SWAP1 POP SWAP2 SWAP1 POP JUMP JUMPDEST PUSH0 DUP3 DUP3 SHL SWAP1 POP SWAP3 SWAP2 POP POP JUMP JUMPDEST PUSH0 PUSH1 0x8 DUP4 MUL PUSH2 0x2045 PUSH32 0xFFFFFFFFFFFFFFFFFFFFFFFFFFFFFFFFFFFFFFFFFFFFFFFFFFFFFFFFFFFFFFFF DUP3 PUSH2 0x200A JUMP JUMPDEST PUSH2 0x204F DUP7 DUP4 PUSH2 0x200A JUMP JUMPDEST SWAP6 POP DUP1 NOT DUP5 AND SWAP4 POP DUP1 DUP7 AND DUP5 OR SWAP3 POP POP POP SWAP4 SWAP3 POP POP POP JUMP JUMPDEST PUSH0 PUSH2 0x2081 PUSH2 0x207C PUSH2 0x2077 DUP5 PUSH2 0x1649 JUMP JUMPDEST PUSH2 0x1890 JUMP JUMPDEST PUSH2 0x1649 JUMP JUMPDEST SWAP1 POP SWAP2 SWAP1 POP JUMP JUMPDEST PUSH0 DUP2 SWAP1 POP SWAP2 SWAP1 POP JUMP JUMPDEST PUSH2 0x209A DUP4 PUSH2 0x2067 JUMP JUMPDEST PUSH2 0x20AE PUSH2 0x20A6 DUP3 PUSH2 0x2088 JUMP JUMPDEST DUP5 DUP5 SLOAD PUSH2 0x2016 JUMP JUMPDEST DUP3 SSTORE POP POP POP POP JUMP JUMPDEST PUSH0 PUSH0 SWAP1 POP SWAP1 JUMP JUMPDEST PUSH2 0x20C5 PUSH2 0x20B6 JUMP JUMPDEST PUSH2 0x20D0 DUP2 DUP5 DUP5 PUSH2 0x2091 JUMP JUMPDEST POP POP POP JUMP JUMPDEST JUMPDEST DUP2 DUP2 LT ISZERO PUSH2 0x20F3 JUMPI PUSH2 0x20E8 PUSH0 DUP3 PUSH2 0x20BD JUMP JUMPDEST PUSH1 0x1 DUP2 ADD SWAP1 POP PUSH2 0x20D6 JUMP JUMPDEST POP POP JUMP JUMPDEST PUSH1 0x1F DUP3 GT ISZERO PUSH2 0x2138 JUMPI PUSH2 0x2109 DUP2 PUSH2 0x1FE9 JUMP JUMPDEST PUSH2 0x2112 DUP5 PUSH2 0x1FFB JUMP JUMPDEST DUP2 ADD PUSH1 0x20 DUP6 LT ISZERO PUSH2 0x2121 JUMPI DUP2 SWAP1 POP JUMPDEST PUSH2 0x2135 PUSH2 0x212D DUP6 PUSH2 0x1FFB JUMP JUMPDEST DUP4 ADD DUP3 PUSH2 0x20D5 JUMP JUMPDEST POP POP JUMPDEST POP POP POP JUMP JUMPDEST PUSH0 DUP3 DUP3 SHR SWAP1 POP SWAP3 SWAP2 POP POP JUMP JUMPDEST PUSH0 PUSH2 0x2158 PUSH0 NOT DUP5 PUSH1 0x8 MUL PUSH2 0x213D JUMP JUMPDEST NOT DUP1 DUP4 AND SWAP2 POP POP SWAP3 SWAP2 POP POP JUMP JUMPDEST PUSH0 PUSH2 0x2170 DUP4 DUP4 PUSH2 0x2149 JUMP JUMPDEST SWAP2 POP DUP3 PUSH1 0x2 MUL DUP3 OR SWAP1 POP SWAP3 SWAP2 POP POP JUMP JUMPDEST PUSH2 0x218A DUP4 DUP4 PUSH2 0x1F82 JUMP JUMPDEST PUSH8 0xFFFFFFFFFFFFFFFF DUP2 GT ISZERO PUSH2 0x21A3 JUMPI PUSH2 0x21A2 PUSH2 0x16D2 JUMP JUMPDEST JUMPDEST PUSH2 0x21AD DUP3 SLOAD PUSH2 0x1FB9 JUMP JUMPDEST PUSH2 0x21B8 DUP3 DUP3 DUP6 PUSH2 0x20F7 JUMP JUMPDEST PUSH0 PUSH1 0x1F DUP4 GT PUSH1 0x1 DUP2 EQ PUSH2 0x21E5 JUMPI PUSH0 DUP5 ISZERO PUSH2 0x21D3 JUMPI DUP3 DUP8 ADD CALLDATALOAD SWAP1 POP JUMPDEST PUSH2 0x21DD DUP6 DUP3 PUSH2 0x2165 JUMP JUMPDEST DUP7 SSTORE POP PUSH2 0x2244 JUMP JUMPDEST PUSH1 0x1F NOT DUP5 AND PUSH2 0x21F3 DUP7 PUSH2 0x1FE9 JUMP JUMPDEST PUSH0 JUMPDEST DUP3 DUP2 LT ISZERO PUSH2 0x221A JUMPI DUP5 DUP10 ADD CALLDATALOAD DUP3 SSTORE PUSH1 0x1 DUP3 ADD SWAP2 POP PUSH1 0x20 DUP6 ADD SWAP5 POP PUSH1 0x20 DUP2 ADD SWAP1 POP PUSH2 0x21F5 JUMP JUMPDEST DUP7 DUP4 LT ISZERO PUSH2 0x2237 JUMPI DUP5 DUP10 ADD CALLDATALOAD PUSH2 0x2233 PUSH1 0x1F DUP10 AND DUP3 PUSH2 0x2149 JUMP JUMPDEST DUP4 SSTORE POP JUMPDEST PUSH1 0x1 PUSH1 0x2 DUP9 MUL ADD DUP9 SSTORE POP POP POP JUMPDEST POP POP POP POP POP POP POP JUMP JUMPDEST PUSH2 0x2258 DUP4 DUP4 DUP4 PUSH2 0x2180 JUMP JUMPDEST POP POP POP JUMP JUMPDEST PUSH0 DUP2 SWAP1 POP SWAP2 SWAP1 POP JUMP JUMPDEST PUSH0 DUP2 SLOAD SWAP1 POP SWAP2 SWAP1 POP JUMP JUMPDEST PUSH0 DUP2 SWAP1 POP PUSH1 0x1 DUP1 PUSH1 0x1 SUB DUP4 ADD DIV SWAP1 POP SWAP2 SWAP1 POP JUMP JUMPDEST PUSH0 DUP2 SWAP1 POP DUP2 PUSH0 MSTORE PUSH1 0x20 PUSH0 KECCAK256 SWAP1 POP SWAP2 SWAP1 POP JUMP JUMPDEST PUSH0 PUSH0 DUP3 ADD SSTORE POP JUMP JUMPDEST PUSH0 DUP3 EQ PUSH2 0x22AE JUMPI PUSH2 0x22AD PUSH2 0x1F56 JUMP JUMPDEST JUMPDEST PUSH2 0x22B7 DUP2 PUSH2 0x2296 JUMP JUMPDEST POP POP JUMP JUMPDEST JUMPDEST DUP2 DUP2 LT ISZERO PUSH2 0x22D9 JUMPI PUSH2 0x22CE PUSH0 DUP3 PUSH2 0x229E JUMP JUMPDEST PUSH1 0x1 DUP2 ADD SWAP1 POP PUSH2 0x22BC JUMP JUMPDEST POP POP JUMP JUMPDEST DUP2 DUP4 LT ISZERO PUSH2 0x2316 JUMPI PUSH2 0x22EE DUP3 PUSH2 0x2270 JUMP JUMPDEST PUSH2 0x22F7 DUP5 PUSH2 0x2270 JUMP JUMPDEST PUSH2 0x2300 DUP4 PUSH2 0x2284 JUMP JUMPDEST DUP2 DUP2 ADD DUP4 DUP3 ADD PUSH2 0x2310 DUP2 DUP4 PUSH2 0x22BB JUMP JUMPDEST POP POP POP POP POP JUMPDEST POP POP POP JUMP JUMPDEST PUSH9 0x10000000000000000 DUP3 GT ISZERO PUSH2 0x2335 JUMPI PUSH2 0x2334 PUSH2 0x16D2 JUMP JUMPDEST JUMPDEST PUSH2 0x233E DUP2 PUSH2 0x2266 JUMP JUMPDEST DUP3 DUP3 SSTORE PUSH2 0x234C DUP4 DUP3 DUP5 PUSH2 0x22DD JUMP JUMPDEST POP POP POP JUMP JUMPDEST PUSH0 DUP3 SWAP1 POP SWAP3 SWAP2 POP POP JUMP JUMPDEST PUSH0 DUP2 CALLDATALOAD PUSH2 0x2367 DUP2 PUSH2 0x1904 JUMP JUMPDEST DUP1 SWAP2 POP POP SWAP2 SWAP1 POP JUMP JUMPDEST PUSH0 DUP2 PUSH0 SHL SWAP1 POP SWAP2 SWAP1 POP JUMP JUMPDEST PUSH0 PUSH20 0xFFFFFFFFFFFFFFFFFFFFFFFFFFFFFFFFFFFFFFFF PUSH2 0x239A DUP5 PUSH2 0x2370 JUMP JUMPDEST SWAP4 POP DUP1 NOT DUP4 AND SWAP3 POP DUP1 DUP5 AND DUP4 OR SWAP2 POP POP SWAP3 SWAP2 POP POP JUMP JUMPDEST PUSH0 PUSH2 0x23BA DUP3 PUSH2 0x18BA JUMP JUMPDEST SWAP1 POP SWAP2 SWAP1 POP JUMP JUMPDEST PUSH0 DUP2 SWAP1 POP SWAP2 SWAP1 POP JUMP JUMPDEST PUSH2 0x23D3 DUP3 PUSH2 0x23B0 JUMP JUMPDEST PUSH2 0x23E6 PUSH2 0x23DF DUP3 PUSH2 0x23C1 JUMP JUMPDEST DUP4 SLOAD PUSH2 0x237B JUMP JUMPDEST DUP3 SSTORE POP POP POP JUMP JUMPDEST PUSH0 PUSH2 0xFFFF DUP3 AND SWAP1 POP SWAP2 SWAP1 POP JUMP JUMPDEST PUSH2 0x2403 DUP2 PUSH2 0x23ED JUMP JUMPDEST DUP2 EQ PUSH2 0x240D JUMPI PUSH0 PUSH0 REVERT JUMPDEST POP JUMP JUMPDEST PUSH0 DUP2 CALLDATALOAD PUSH2 0x241C DUP2 PUSH2 0x23FA JUMP JUMPDEST DUP1 SWAP2 POP POP SWAP2 SWAP1 POP JUMP JUMPDEST PUSH0 DUP2 PUSH1 0xA0 SHL SWAP1 POP SWAP2 SWAP1 POP JUMP JUMPDEST PUSH0 PUSH22 0xFFFF0000000000000000000000000000000000000000 PUSH2 0x2452 DUP5 PUSH2 0x2425 JUMP JUMPDEST SWAP4 POP DUP1 NOT DUP4 AND SWAP3 POP DUP1 DUP5 AND DUP4 OR SWAP2 POP POP SWAP3 SWAP2 POP POP JUMP JUMPDEST PUSH0 PUSH2 0x2482 PUSH2 0x247D PUSH2 0x2478 DUP5 PUSH2 0x23ED JUMP JUMPDEST PUSH2 0x1890 JUMP JUMPDEST PUSH2 0x23ED JUMP JUMPDEST SWAP1 POP SWAP2 SWAP1 POP JUMP JUMPDEST PUSH0 DUP2 SWAP1 POP SWAP2 SWAP1 POP JUMP JUMPDEST PUSH2 0x249B DUP3 PUSH2 0x2468 JUMP JUMPDEST PUSH2 0x24AE PUSH2 0x24A7 DUP3 PUSH2 0x2489 JUMP JUMPDEST DUP4 SLOAD PUSH2 0x2431 JUMP JUMPDEST DUP3 SSTORE POP POP POP JUMP JUMPDEST PUSH0 DUP2 ADD PUSH0 DUP4 ADD DUP1 PUSH2 0x24C5 DUP2 PUSH2 0x235B JUMP JUMPDEST SWAP1 POP PUSH2 0x24D1 DUP2 DUP5 PUSH2 0x23CA JUMP JUMPDEST POP POP POP PUSH0 DUP2 ADD PUSH1 0x20 DUP4 ADD DUP1 PUSH2 0x24E5 DUP2 PUSH2 0x2410 JUMP JUMPDEST SWAP1 POP PUSH2 0x24F1 DUP2 DUP5 PUSH2 0x2492 JUMP JUMPDEST POP POP POP POP POP JUMP JUMPDEST PUSH2 0x2502 DUP3 DUP3 PUSH2 0x24B5 JUMP JUMPDEST POP POP JUMP JUMPDEST PUSH2 0x2510 DUP4 DUP4 PUSH2 0x2351 JUMP JUMPDEST PUSH2 0x251A DUP2 DUP4 PUSH2 0x231B JUMP JUMPDEST PUSH2 0x2523 DUP4 PUSH2 0x225D JUMP JUMPDEST PUSH2 0x252C DUP4 PUSH2 0x2284 JUMP JUMPDEST PUSH0 JUMPDEST DUP4 DUP2 LT ISZERO PUSH2 0x2559 JUMPI DUP3 PUSH2 0x2541 DUP2 DUP5 PUSH2 0x24F8 JUMP JUMPDEST PUSH1 0x40 DUP5 ADD SWAP4 POP PUSH1 0x1 DUP4 ADD SWAP3 POP POP PUSH1 0x1 DUP2 ADD SWAP1 POP PUSH2 0x252E JUMP JUMPDEST POP POP POP POP POP POP POP JUMP JUMPDEST PUSH2 0x256D DUP4 DUP4 DUP4 PUSH2 0x2506 JUMP JUMPDEST POP POP POP JUMP JUMPDEST PUSH0 DUP2 ADD PUSH0 DUP4 ADD PUSH2 0x2582 DUP2 DUP6 PUSH2 0x1C9A JUMP JUMPDEST PUSH2 0x258D DUP2 DUP4 DUP7 PUSH2 0x224D JUMP JUMPDEST POP POP POP POP PUSH1 0x1 DUP2 ADD PUSH1 0x20 DUP4 ADD PUSH2 0x25A3 DUP2 DUP6 PUSH2 0x1C9A JUMP JUMPDEST PUSH2 0x25AE DUP2 DUP4 DUP7 PUSH2 0x224D JUMP JUMPDEST POP POP POP POP PUSH1 0x2 DUP2 ADD PUSH1 0x40 DUP4 ADD PUSH2 0x25C4 DUP2 DUP6 PUSH2 0x1EF4 JUMP JUMPDEST PUSH2 0x25CF DUP2 DUP4 DUP7 PUSH2 0x2562 JUMP JUMPDEST POP POP POP POP POP POP JUMP JUMPDEST PUSH2 0x25E1 DUP3 DUP3 PUSH2 0x2572 JUMP JUMPDEST POP POP JUMP JUMPDEST PUSH32 0x4E487B7100000000000000000000000000000000000000000000000000000000 PUSH0 MSTORE PUSH1 0x32 PUSH1 0x4 MSTORE PUSH1 0x24 PUSH0 REVERT JUMPDEST PUSH0 DUP2 CALLDATALOAD SWAP1 POP PUSH2 0x2620 DUP2 PUSH2 0x23FA JUMP JUMPDEST SWAP3 SWAP2 POP POP JUMP JUMPDEST PUSH0 PUSH1 0x20 DUP3 DUP5 SUB SLT ISZERO PUSH2 0x263B JUMPI PUSH2 0x263A PUSH2 0x1641 JUMP JUMPDEST JUMPDEST PUSH0 PUSH2 0x2648 DUP5 DUP3 DUP6 ADD PUSH2 0x2612 JUMP JUMPDEST SWAP2 POP POP SWAP3 SWAP2 POP POP JUMP JUMPDEST PUSH0 PUSH0 REVERT JUMPDEST PUSH0 PUSH3 0xFFFFFF DUP3 AND SWAP1 POP SWAP2 SWAP1 POP JUMP JUMPDEST PUSH2 0x266C DUP2 PUSH2 0x2655 JUMP JUMPDEST DUP2 EQ PUSH2 0x2676 JUMPI PUSH0 PUSH0 REVERT JUMPDEST POP JUMP JUMPDEST PUSH0 DUP2 MLOAD SWAP1 POP PUSH2 0x2687 DUP2 PUSH2 0x2663 JUMP JUMPDEST SWAP3 SWAP2 POP POP JUMP JUMPDEST PUSH0 PUSH1 0xFF DUP3 AND SWAP1 POP SWAP2 SWAP1 POP JUMP JUMPDEST PUSH2 0x26A2 DUP2 PUSH2 0x268D JUMP JUMPDEST DUP2 EQ PUSH2 0x26AC JUMPI PUSH0 PUSH0 REVERT JUMPDEST POP JUMP JUMPDEST PUSH0 DUP2 MLOAD SWAP1 POP PUSH2 0x26BD DUP2 PUSH2 0x2699 JUMP JUMPDEST SWAP3 SWAP2 POP POP JUMP JUMPDEST PUSH0 PUSH8 0xFFFFFFFFFFFFFFFF DUP3 AND SWAP1 POP SWAP2 SWAP1 POP JUMP JUMPDEST PUSH2 0x26DF DUP2 PUSH2 0x26C3 JUMP JUMPDEST DUP2 EQ PUSH2 0x26E9 JUMPI PUSH0 PUSH0 REVERT JUMPDEST POP JUMP JUMPDEST PUSH0 DUP2 MLOAD SWAP1 POP PUSH2 0x26FA DUP2 PUSH2 0x26D6 JUMP JUMPDEST SWAP3 SWAP2 POP POP JUMP JUMPDEST PUSH0 PUSH1 0x80 DUP3 DUP5 SUB SLT ISZERO PUSH2 0x2715 JUMPI PUSH2 0x2714 PUSH2 0x2651 JUMP JUMPDEST JUMPDEST PUSH2 0x271F PUSH1 0x80 PUSH2 0x1730 JUMP JUMPDEST SWAP1 POP PUSH0 PUSH2 0x272E DUP5 DUP3 DUP6 ADD PUSH2 0x1BE7 JUMP JUMPDEST PUSH0 DUP4 ADD MSTORE POP PUSH1 0x20 PUSH2 0x2741 DUP5 DUP3 DUP6 ADD PUSH2 0x2679 JUMP JUMPDEST PUSH1 0x20 DUP4 ADD MSTORE POP PUSH1 0x40 PUSH2 0x2755 DUP5 DUP3 DUP6 ADD PUSH2 0x26AF JUMP JUMPDEST PUSH1 0x40 DUP4 ADD MSTORE POP PUSH1 0x60 PUSH2 0x2769 DUP5 DUP3 DUP6 ADD PUSH2 0x26EC JUMP JUMPDEST PUSH1 0x60 DUP4 ADD MSTORE POP SWAP3 SWAP2 POP POP JUMP JUMPDEST PUSH0 PUSH1 0x80 DUP3 DUP5 SUB SLT ISZERO PUSH2 0x278A JUMPI PUSH2 0x2789 PUSH2 0x1641 JUMP JUMPDEST JUMPDEST PUSH0 PUSH2 0x2797 DUP5 DUP3 DUP6 ADD PUSH2 0x2700 JUMP JUMPDEST SWAP2 POP POP SWAP3 SWAP2 POP POP JUMP JUMPDEST PUSH0 PUSH1 0x40 DUP3 DUP5 SUB SLT ISZERO PUSH2 0x27B5 JUMPI PUSH2 0x27B4 PUSH2 0x2651 JUMP JUMPDEST JUMPDEST PUSH2 0x27BF PUSH1 0x40 PUSH2 0x1730 JUMP JUMPDEST SWAP1 POP PUSH0 PUSH2 0x27CE DUP5 DUP3 DUP6 ADD PUSH2 0x191A JUMP JUMPDEST PUSH0 DUP4 ADD MSTORE POP PUSH1 0x20 PUSH2 0x27E1 DUP5 DUP3 DUP6 ADD PUSH2 0x2612 JUMP JUMPDEST PUSH1 0x20 DUP4 ADD MSTORE POP SWAP3 SWAP2 POP POP JUMP JUMPDEST PUSH0 PUSH1 0x40 DUP3 DUP5 SUB SLT ISZERO PUSH2 0x2802 JUMPI PUSH2 0x2801 PUSH2 0x1641 JUMP JUMPDEST JUMPDEST PUSH0 PUSH2 0x280F DUP5 DUP3 DUP6 ADD PUSH2 0x27A0 JUMP JUMPDEST SWAP2 POP POP SWAP3 SWAP2 POP POP JUMP JUMPDEST PUSH0 PUSH2 0x2822 DUP3 PUSH2 0x1649 JUMP JUMPDEST SWAP2 POP PUSH2 0x282D DUP4 PUSH2 0x1649 JUMP JUMPDEST SWAP3 POP DUP3 DUP3 SUB SWAP1 POP DUP2 DUP2 GT ISZERO PUSH2 0x2845 JUMPI PUSH2 0x2844 PUSH2 0x1A79 JUMP JUMPDEST JUMPDEST SWAP3 SWAP2 POP POP JUMP JUMPDEST PUSH0 DUP2 SWAP1 POP SWAP3 SWAP2 POP POP JUMP JUMPDEST PUSH0 PUSH2 0x2860 DUP4 DUP6 PUSH2 0x284B JUMP JUMPDEST SWAP4 POP PUSH2 0x286D DUP4 DUP6 DUP5 PUSH2 0x177A JUMP JUMPDEST DUP3 DUP5 ADD SWAP1 POP SWAP4 SWAP3 POP POP POP JUMP JUMPDEST PUSH0 PUSH2 0x2885 DUP3 DUP5 DUP7 PUSH2 0x2855 JUMP JUMPDEST SWAP2 POP DUP2 SWAP1 POP SWAP4 SWAP3 POP POP POP JUMP JUMPDEST PUSH0 DUP2 MLOAD SWAP1 POP SWAP2 SWAP1 POP JUMP JUMPDEST PUSH0 DUP3 DUP3 MSTORE PUSH1 0x20 DUP3 ADD SWAP1 POP SWAP3 SWAP2 POP POP JUMP JUMPDEST PUSH0 DUP2 SWAP1 POP PUSH1 0x20 DUP3 ADD SWAP1 POP SWAP2 SWAP1 POP JUMP JUMPDEST PUSH2 0x28C3 DUP2 PUSH2 0x15FF JUMP JUMPDEST DUP3 MSTORE POP POP JUMP JUMPDEST PUSH2 0x28D2 DUP2 PUSH2 0x23ED JUMP JUMPDEST DUP3 MSTORE POP POP JUMP JUMPDEST PUSH1 0x40 DUP3 ADD PUSH0 DUP3 ADD MLOAD PUSH2 0x28EC PUSH0 DUP6 ADD DUP3 PUSH2 0x28BA JUMP JUMPDEST POP PUSH1 0x20 DUP3 ADD MLOAD PUSH2 0x28FF PUSH1 0x20 DUP6 ADD DUP3 PUSH2 0x28C9 JUMP JUMPDEST POP POP POP POP JUMP JUMPDEST PUSH0 PUSH2 0x2910 DUP4 DUP4 PUSH2 0x28D8 JUMP JUMPDEST PUSH1 0x40 DUP4 ADD SWAP1 POP SWAP3 SWAP2 POP POP JUMP JUMPDEST PUSH0 PUSH1 0x20 DUP3 ADD SWAP1 POP SWAP2 SWAP1 POP JUMP JUMPDEST PUSH0 PUSH2 0x2932 DUP3 PUSH2 0x2891 JUMP JUMPDEST PUSH2 0x293C DUP2 DUP6 PUSH2 0x289B JUMP JUMPDEST SWAP4 POP PUSH2 0x2947 DUP4 PUSH2 0x28AB JUMP JUMPDEST DUP1 PUSH0 JUMPDEST DUP4 DUP2 LT ISZERO PUSH2 0x2977 JUMPI DUP2 MLOAD PUSH2 0x295E DUP9 DUP3 PUSH2 0x2905 JUMP JUMPDEST SWAP8 POP PUSH2 0x2969 DUP4 PUSH2 0x291C JUMP JUMPDEST SWAP3 POP POP PUSH1 0x1 DUP2 ADD SWAP1 POP PUSH2 0x294A JUMP JUMPDEST POP DUP6 SWAP4 POP POP POP POP SWAP3 SWAP2 POP POP JUMP JUMPDEST PUSH0 PUSH1 0x20 DUP3 ADD SWAP1 POP DUP2 DUP2 SUB PUSH0 DUP4 ADD MSTORE PUSH2 0x299C DUP2 DUP5 PUSH2 0x2928 JUMP JUMPDEST SWAP1 POP SWAP3 SWAP2 POP POP JUMP INVALID LOG2 PUSH5 0x6970667358 0x22 SLT KECCAK256 SWAP8 0xB1 MUL SIGNEXTEND DUP3 PUSH21 0xF0F7CA040937F5A209713B91F93E14FBD9421F974 PUSH14 0x1A1620EF64736F6C634300081E00 CALLER "
				},
				"gasEstimates": {
					"creation": {
						"codeDepositCost": "2142800",
						"executionCost": "infinite",
						"totalCost": "infinite"
					},
					"external": {
						"Directory()": "infinite",
						"WETH_ADDRESS()": "infinite",
						"changeDirectoryAddress(address)": "infinite",
						"createEtf((string,string,(address,uint16)[]))": "infinite",
						"fetchFromDirectory(string)": "infinite",
						"getEtfTokenAddress(uint256)": "2940",
						"getEtfTotalVolumeUsd(uint256)": "infinite",
						"getEtfTotalVolumeWeth(uint256)": "infinite",
						"getEtfVaultAddress(uint256)": "2919",
						"owner()": "infinite",
						"updateEtfVolume(uint256,uint256)": "infinite"
					}
				},
				"methodIdentifiers": {
					"Directory()": "658a847a",
					"WETH_ADDRESS()": "040141e5",
					"changeDirectoryAddress(address)": "ba4c7be1",
					"createEtf((string,string,(address,uint16)[]))": "fc0121d4",
					"fetchFromDirectory(string)": "27262618",
					"getEtfTokenAddress(uint256)": "f2018a1f",
					"getEtfTotalVolumeUsd(uint256)": "9cfe0b3b",
					"getEtfTotalVolumeWeth(uint256)": "4eea0e0d",
					"getEtfVaultAddress(uint256)": "3ee79962",
					"owner()": "8da5cb5b",
					"updateEtfVolume(uint256,uint256)": "1626542c"
				}
			},
			"storageLayout": {
				"storage": [
					{
						"astId": 268,
						"contract": "hopium/etf/main/etf-factory-v1.sol:EtfFactory",
						"label": "createdEtfs",
						"offset": 0,
						"slot": "0",
						"type": "t_array(t_struct(Etf)959_storage)dyn_storage"
					},
					{
						"astId": 272,
						"contract": "hopium/etf/main/etf-factory-v1.sol:EtfFactory",
						"label": "etfTickerHashToId",
						"offset": 0,
						"slot": "1",
						"type": "t_mapping(t_bytes32,t_uint256)"
					},
					{
						"astId": 276,
						"contract": "hopium/etf/main/etf-factory-v1.sol:EtfFactory",
						"label": "etfAssetsHashToId",
						"offset": 0,
						"slot": "2",
						"type": "t_mapping(t_bytes32,t_uint256)"
					},
					{
						"astId": 280,
						"contract": "hopium/etf/main/etf-factory-v1.sol:EtfFactory",
						"label": "etfIdToEtfTokens",
						"offset": 0,
						"slot": "3",
						"type": "t_mapping(t_uint256,t_address)"
					},
					{
						"astId": 284,
						"contract": "hopium/etf/main/etf-factory-v1.sol:EtfFactory",
						"label": "etfIdToEtfVaults",
						"offset": 0,
						"slot": "4",
						"type": "t_mapping(t_uint256,t_address)"
					},
					{
						"astId": 288,
						"contract": "hopium/etf/main/etf-factory-v1.sol:EtfFactory",
						"label": "etfIdToTotalVolumeWeth",
						"offset": 0,
						"slot": "5",
						"type": "t_mapping(t_uint256,t_uint256)"
					},
					{
						"astId": 292,
						"contract": "hopium/etf/main/etf-factory-v1.sol:EtfFactory",
						"label": "etfIdToTotalVolumeUsd",
						"offset": 0,
						"slot": "6",
						"type": "t_mapping(t_uint256,t_uint256)"
					},
					{
						"astId": 18,
						"contract": "hopium/etf/main/etf-factory-v1.sol:EtfFactory",
						"label": "Directory",
						"offset": 0,
						"slot": "7",
						"type": "t_contract(IDirectory)15"
					}
				],
				"types": {
					"t_address": {
						"encoding": "inplace",
						"label": "address",
						"numberOfBytes": "20"
					},
					"t_array(t_struct(Asset)950_storage)dyn_storage": {
						"base": "t_struct(Asset)950_storage",
						"encoding": "dynamic_array",
						"label": "struct Asset[]",
						"numberOfBytes": "32"
					},
					"t_array(t_struct(Etf)959_storage)dyn_storage": {
						"base": "t_struct(Etf)959_storage",
						"encoding": "dynamic_array",
						"label": "struct Etf[]",
						"numberOfBytes": "32"
					},
					"t_bytes32": {
						"encoding": "inplace",
						"label": "bytes32",
						"numberOfBytes": "32"
					},
					"t_contract(IDirectory)15": {
						"encoding": "inplace",
						"label": "contract IDirectory",
						"numberOfBytes": "20"
					},
					"t_mapping(t_bytes32,t_uint256)": {
						"encoding": "mapping",
						"key": "t_bytes32",
						"label": "mapping(bytes32 => uint256)",
						"numberOfBytes": "32",
						"value": "t_uint256"
					},
					"t_mapping(t_uint256,t_address)": {
						"encoding": "mapping",
						"key": "t_uint256",
						"label": "mapping(uint256 => address)",
						"numberOfBytes": "32",
						"value": "t_address"
					},
					"t_mapping(t_uint256,t_uint256)": {
						"encoding": "mapping",
						"key": "t_uint256",
						"label": "mapping(uint256 => uint256)",
						"numberOfBytes": "32",
						"value": "t_uint256"
					},
					"t_string_storage": {
						"encoding": "bytes",
						"label": "string",
						"numberOfBytes": "32"
					},
					"t_struct(Asset)950_storage": {
						"encoding": "inplace",
						"label": "struct Asset",
						"members": [
							{
								"astId": 947,
								"contract": "hopium/etf/main/etf-factory-v1.sol:EtfFactory",
								"label": "tokenAddress",
								"offset": 0,
								"slot": "0",
								"type": "t_address"
							},
							{
								"astId": 949,
								"contract": "hopium/etf/main/etf-factory-v1.sol:EtfFactory",
								"label": "weightBips",
								"offset": 20,
								"slot": "0",
								"type": "t_uint16"
							}
						],
						"numberOfBytes": "32"
					},
					"t_struct(Etf)959_storage": {
						"encoding": "inplace",
						"label": "struct Etf",
						"members": [
							{
								"astId": 952,
								"contract": "hopium/etf/main/etf-factory-v1.sol:EtfFactory",
								"label": "name",
								"offset": 0,
								"slot": "0",
								"type": "t_string_storage"
							},
							{
								"astId": 954,
								"contract": "hopium/etf/main/etf-factory-v1.sol:EtfFactory",
								"label": "ticker",
								"offset": 0,
								"slot": "1",
								"type": "t_string_storage"
							},
							{
								"astId": 958,
								"contract": "hopium/etf/main/etf-factory-v1.sol:EtfFactory",
								"label": "assets",
								"offset": 0,
								"slot": "2",
								"type": "t_array(t_struct(Asset)950_storage)dyn_storage"
							}
						],
						"numberOfBytes": "96"
					},
					"t_uint16": {
						"encoding": "inplace",
						"label": "uint16",
						"numberOfBytes": "2"
					},
					"t_uint256": {
						"encoding": "inplace",
						"label": "uint256",
						"numberOfBytes": "32"
					}
				}
			},
			"userdoc": {
				"kind": "user",
				"methods": {},
				"version": 1
			}
		}
	}
}