{
	"hopium/standalone/main/price-oracle.sol": {
		"PriceOracle": {
			"abi": [
				{
					"inputs": [
						{
							"internalType": "address",
							"name": "_wethAddress",
							"type": "address"
						},
						{
							"internalType": "address",
							"name": "_wethUsdPairAddress",
							"type": "address"
						},
						{
							"internalType": "address",
							"name": "_uniswapV2FactoryAddress",
							"type": "address"
						}
					],
					"stateMutability": "nonpayable",
					"type": "constructor"
				},
				{
					"inputs": [],
					"name": "PairDoesNotContainBase",
					"type": "error"
				},
				{
					"inputs": [],
					"name": "PairDoesNotExist",
					"type": "error"
				},
				{
					"inputs": [],
					"name": "UNISWAP_V2_FACTORY_ADDRESS",
					"outputs": [
						{
							"internalType": "address",
							"name": "",
							"type": "address"
						}
					],
					"stateMutability": "view",
					"type": "function"
				},
				{
					"inputs": [],
					"name": "WETH_ADDRESS",
					"outputs": [
						{
							"internalType": "address",
							"name": "",
							"type": "address"
						}
					],
					"stateMutability": "view",
					"type": "function"
				},
				{
					"inputs": [],
					"name": "WETH_DECIMALS",
					"outputs": [
						{
							"internalType": "uint8",
							"name": "",
							"type": "uint8"
						}
					],
					"stateMutability": "view",
					"type": "function"
				},
				{
					"inputs": [],
					"name": "WETH_USD_PAIR_ADDRESS",
					"outputs": [
						{
							"internalType": "address",
							"name": "",
							"type": "address"
						}
					],
					"stateMutability": "view",
					"type": "function"
				},
				{
					"inputs": [
						{
							"internalType": "address",
							"name": "tokenAddress",
							"type": "address"
						}
					],
					"name": "getTokenLiquidityUsd",
					"outputs": [
						{
							"internalType": "uint256",
							"name": "totalLiquidityUsd18",
							"type": "uint256"
						}
					],
					"stateMutability": "view",
					"type": "function"
				},
				{
					"inputs": [
						{
							"internalType": "address",
							"name": "tokenAddress",
							"type": "address"
						}
					],
					"name": "getTokenLiquidityWeth",
					"outputs": [
						{
							"internalType": "uint256",
							"name": "",
							"type": "uint256"
						}
					],
					"stateMutability": "view",
					"type": "function"
				},
				{
					"inputs": [
						{
							"internalType": "address",
							"name": "tokenAddress",
							"type": "address"
						}
					],
					"name": "getTokenMarketCapUsd",
					"outputs": [
						{
							"internalType": "uint256",
							"name": "marketCapUsd18",
							"type": "uint256"
						}
					],
					"stateMutability": "view",
					"type": "function"
				},
				{
					"inputs": [
						{
							"internalType": "address",
							"name": "tokenAddress",
							"type": "address"
						}
					],
					"name": "getTokenMarketCapWeth",
					"outputs": [
						{
							"internalType": "uint256",
							"name": "",
							"type": "uint256"
						}
					],
					"stateMutability": "view",
					"type": "function"
				},
				{
					"inputs": [
						{
							"internalType": "address",
							"name": "tokenAddress",
							"type": "address"
						}
					],
					"name": "getTokenUsdPrice",
					"outputs": [
						{
							"internalType": "uint256",
							"name": "price18",
							"type": "uint256"
						}
					],
					"stateMutability": "view",
					"type": "function"
				},
				{
					"inputs": [
						{
							"internalType": "address",
							"name": "tokenAddress",
							"type": "address"
						}
					],
					"name": "getTokenWethPairAddress",
					"outputs": [
						{
							"internalType": "address",
							"name": "",
							"type": "address"
						}
					],
					"stateMutability": "view",
					"type": "function"
				},
				{
					"inputs": [
						{
							"internalType": "address",
							"name": "tokenAddress",
							"type": "address"
						}
					],
					"name": "getTokenWethPrice",
					"outputs": [
						{
							"internalType": "uint256",
							"name": "",
							"type": "uint256"
						}
					],
					"stateMutability": "view",
					"type": "function"
				},
				{
					"inputs": [],
					"name": "getWethUsdPrice",
					"outputs": [
						{
							"internalType": "uint256",
							"name": "price18",
							"type": "uint256"
						}
					],
					"stateMutability": "view",
					"type": "function"
				}
			],
			"devdoc": {
				"kind": "dev",
				"methods": {},
				"version": 1
			},
			"evm": {
				"assembly": "    /* \"hopium/standalone/main/price-oracle.sol\":7895:12829  contract PriceOracle is Helpers {... */\n  mstore(0x40, 0x0100)\n    /* \"hopium/standalone/main/price-oracle.sol\":7938:8291  constructor(... */\n  callvalue\n  dup1\n  iszero\n  tag_1\n  jumpi\n  revert(0x00, 0x00)\ntag_1:\n  pop\n  mload(0x40)\n  sub(codesize, bytecodeSize)\n  dup1\n  bytecodeSize\n  dup4\n  codecopy\n  dup2\n  dup2\n  add\n  0x40\n  mstore\n  dup2\n  add\n  swap1\n  tag_2\n  swap2\n  swap1\n  tag_3\n  jump\t// in\ntag_2:\n    /* \"hopium/standalone/main/price-oracle.sol\":8090:8102  _wethAddress */\n  dup3\n    /* \"hopium/standalone/main/price-oracle.sol\":8075:8102  WETH_ADDRESS = _wethAddress */\n  0xffffffffffffffffffffffffffffffffffffffff\n  and\n  0x80\n  dup2\n  0xffffffffffffffffffffffffffffffffffffffff\n  and\n  dup2\n  mstore\n  pop\n  pop\n    /* \"hopium/standalone/main/price-oracle.sol\":8136:8155  _wethUsdPairAddress */\n  dup2\n    /* \"hopium/standalone/main/price-oracle.sol\":8112:8155  WETH_USD_PAIR_ADDRESS = _wethUsdPairAddress */\n  0xffffffffffffffffffffffffffffffffffffffff\n  and\n  0xa0\n  dup2\n  0xffffffffffffffffffffffffffffffffffffffff\n  and\n  dup2\n  mstore\n  pop\n  pop\n    /* \"hopium/standalone/main/price-oracle.sol\":8194:8218  _uniswapV2FactoryAddress */\n  dup1\n    /* \"hopium/standalone/main/price-oracle.sol\":8165:8218  UNISWAP_V2_FACTORY_ADDRESS = _uniswapV2FactoryAddress */\n  0xffffffffffffffffffffffffffffffffffffffff\n  and\n  0xc0\n  dup2\n  0xffffffffffffffffffffffffffffffffffffffff\n  and\n  dup2\n  mstore\n  pop\n  pop\n    /* \"hopium/standalone/main/price-oracle.sol\":8260:8272  _wethAddress */\n  dup3\n    /* \"hopium/standalone/main/price-oracle.sol\":8245:8282  IERC20Metadata(_wethAddress).decimals */\n  0xffffffffffffffffffffffffffffffffffffffff\n  and\n  0x313ce567\n    /* \"hopium/standalone/main/price-oracle.sol\":8245:8284  IERC20Metadata(_wethAddress).decimals() */\n  mload(0x40)\n  dup2\n  0xffffffff\n  and\n  0xe0\n  shl\n  dup2\n  mstore\n  0x04\n  add\n  0x20\n  mload(0x40)\n  dup1\n  dup4\n  sub\n  dup2\n  dup7\n  gas\n  staticcall\n  iszero\n  dup1\n  iszero\n  tag_7\n  jumpi\n  returndatacopy(0x00, 0x00, returndatasize)\n  revert(0x00, returndatasize)\ntag_7:\n  pop\n  pop\n  pop\n  pop\n  mload(0x40)\n  returndatasize\n  not(0x1f)\n  0x1f\n  dup3\n  add\n  and\n  dup3\n  add\n  dup1\n  0x40\n  mstore\n  pop\n  dup2\n  add\n  swap1\n  tag_8\n  swap2\n  swap1\n  tag_9\n  jump\t// in\ntag_8:\n    /* \"hopium/standalone/main/price-oracle.sol\":8229:8284  WETH_DECIMALS = IERC20Metadata(_wethAddress).decimals() */\n  0xff\n  and\n  0xe0\n  dup2\n  0xff\n  and\n  dup2\n  mstore\n  pop\n  pop\n    /* \"hopium/standalone/main/price-oracle.sol\":7938:8291  constructor(... */\n  pop\n  pop\n  pop\n    /* \"hopium/standalone/main/price-oracle.sol\":7895:12829  contract PriceOracle is Helpers {... */\n  jump(tag_10)\n    /* \"#utility.yul\":88:205   */\ntag_12:\n    /* \"#utility.yul\":197:198   */\n  0x00\n    /* \"#utility.yul\":194:195   */\n  0x00\n    /* \"#utility.yul\":187:199   */\n  revert\n    /* \"#utility.yul\":334:460   */\ntag_14:\n    /* \"#utility.yul\":371:378   */\n  0x00\n    /* \"#utility.yul\":411:453   */\n  0xffffffffffffffffffffffffffffffffffffffff\n    /* \"#utility.yul\":404:409   */\n  dup3\n    /* \"#utility.yul\":400:454   */\n  and\n    /* \"#utility.yul\":389:454   */\n  swap1\n  pop\n    /* \"#utility.yul\":334:460   */\n  swap2\n  swap1\n  pop\n  jump\t// out\n    /* \"#utility.yul\":466:562   */\ntag_15:\n    /* \"#utility.yul\":503:510   */\n  0x00\n    /* \"#utility.yul\":532:556   */\n  tag_27\n    /* \"#utility.yul\":550:555   */\n  dup3\n    /* \"#utility.yul\":532:556   */\n  tag_14\n  jump\t// in\ntag_27:\n    /* \"#utility.yul\":521:556   */\n  swap1\n  pop\n    /* \"#utility.yul\":466:562   */\n  swap2\n  swap1\n  pop\n  jump\t// out\n    /* \"#utility.yul\":568:690   */\ntag_16:\n    /* \"#utility.yul\":641:665   */\n  tag_29\n    /* \"#utility.yul\":659:664   */\n  dup2\n    /* \"#utility.yul\":641:665   */\n  tag_15\n  jump\t// in\ntag_29:\n    /* \"#utility.yul\":634:639   */\n  dup2\n    /* \"#utility.yul\":631:666   */\n  eq\n    /* \"#utility.yul\":621:684   */\n  tag_30\n  jumpi\n    /* \"#utility.yul\":680:681   */\n  0x00\n    /* \"#utility.yul\":677:678   */\n  0x00\n    /* \"#utility.yul\":670:682   */\n  revert\n    /* \"#utility.yul\":621:684   */\ntag_30:\n    /* \"#utility.yul\":568:690   */\n  pop\n  jump\t// out\n    /* \"#utility.yul\":696:839   */\ntag_17:\n    /* \"#utility.yul\":753:758   */\n  0x00\n    /* \"#utility.yul\":784:790   */\n  dup2\n    /* \"#utility.yul\":778:791   */\n  mload\n    /* \"#utility.yul\":769:791   */\n  swap1\n  pop\n    /* \"#utility.yul\":800:833   */\n  tag_32\n    /* \"#utility.yul\":827:832   */\n  dup2\n    /* \"#utility.yul\":800:833   */\n  tag_16\n  jump\t// in\ntag_32:\n    /* \"#utility.yul\":696:839   */\n  swap3\n  swap2\n  pop\n  pop\n  jump\t// out\n    /* \"#utility.yul\":845:1508   */\ntag_3:\n    /* \"#utility.yul\":933:939   */\n  0x00\n    /* \"#utility.yul\":941:947   */\n  0x00\n    /* \"#utility.yul\":949:955   */\n  0x00\n    /* \"#utility.yul\":998:1000   */\n  0x60\n    /* \"#utility.yul\":986:995   */\n  dup5\n    /* \"#utility.yul\":977:984   */\n  dup7\n    /* \"#utility.yul\":973:996   */\n  sub\n    /* \"#utility.yul\":969:1001   */\n  slt\n    /* \"#utility.yul\":966:1085   */\n  iszero\n  tag_34\n  jumpi\n    /* \"#utility.yul\":1004:1083   */\n  tag_35\n  tag_12\n  jump\t// in\ntag_35:\n    /* \"#utility.yul\":966:1085   */\ntag_34:\n    /* \"#utility.yul\":1124:1125   */\n  0x00\n    /* \"#utility.yul\":1149:1213   */\n  tag_36\n    /* \"#utility.yul\":1205:1212   */\n  dup7\n    /* \"#utility.yul\":1196:1202   */\n  dup3\n    /* \"#utility.yul\":1185:1194   */\n  dup8\n    /* \"#utility.yul\":1181:1203   */\n  add\n    /* \"#utility.yul\":1149:1213   */\n  tag_17\n  jump\t// in\ntag_36:\n    /* \"#utility.yul\":1139:1213   */\n  swap4\n  pop\n    /* \"#utility.yul\":1095:1223   */\n  pop\n    /* \"#utility.yul\":1262:1264   */\n  0x20\n    /* \"#utility.yul\":1288:1352   */\n  tag_37\n    /* \"#utility.yul\":1344:1351   */\n  dup7\n    /* \"#utility.yul\":1335:1341   */\n  dup3\n    /* \"#utility.yul\":1324:1333   */\n  dup8\n    /* \"#utility.yul\":1320:1342   */\n  add\n    /* \"#utility.yul\":1288:1352   */\n  tag_17\n  jump\t// in\ntag_37:\n    /* \"#utility.yul\":1278:1352   */\n  swap3\n  pop\n    /* \"#utility.yul\":1233:1362   */\n  pop\n    /* \"#utility.yul\":1401:1403   */\n  0x40\n    /* \"#utility.yul\":1427:1491   */\n  tag_38\n    /* \"#utility.yul\":1483:1490   */\n  dup7\n    /* \"#utility.yul\":1474:1480   */\n  dup3\n    /* \"#utility.yul\":1463:1472   */\n  dup8\n    /* \"#utility.yul\":1459:1481   */\n  add\n    /* \"#utility.yul\":1427:1491   */\n  tag_17\n  jump\t// in\ntag_38:\n    /* \"#utility.yul\":1417:1491   */\n  swap2\n  pop\n    /* \"#utility.yul\":1372:1501   */\n  pop\n    /* \"#utility.yul\":845:1508   */\n  swap3\n  pop\n  swap3\n  pop\n  swap3\n  jump\t// out\n    /* \"#utility.yul\":1514:1600   */\ntag_18:\n    /* \"#utility.yul\":1549:1556   */\n  0x00\n    /* \"#utility.yul\":1589:1593   */\n  0xff\n    /* \"#utility.yul\":1582:1587   */\n  dup3\n    /* \"#utility.yul\":1578:1594   */\n  and\n    /* \"#utility.yul\":1567:1594   */\n  swap1\n  pop\n    /* \"#utility.yul\":1514:1600   */\n  swap2\n  swap1\n  pop\n  jump\t// out\n    /* \"#utility.yul\":1606:1724   */\ntag_19:\n    /* \"#utility.yul\":1677:1699   */\n  tag_41\n    /* \"#utility.yul\":1693:1698   */\n  dup2\n    /* \"#utility.yul\":1677:1699   */\n  tag_18\n  jump\t// in\ntag_41:\n    /* \"#utility.yul\":1670:1675   */\n  dup2\n    /* \"#utility.yul\":1667:1700   */\n  eq\n    /* \"#utility.yul\":1657:1718   */\n  tag_42\n  jumpi\n    /* \"#utility.yul\":1714:1715   */\n  0x00\n    /* \"#utility.yul\":1711:1712   */\n  0x00\n    /* \"#utility.yul\":1704:1716   */\n  revert\n    /* \"#utility.yul\":1657:1718   */\ntag_42:\n    /* \"#utility.yul\":1606:1724   */\n  pop\n  jump\t// out\n    /* \"#utility.yul\":1730:1869   */\ntag_20:\n    /* \"#utility.yul\":1785:1790   */\n  0x00\n    /* \"#utility.yul\":1816:1822   */\n  dup2\n    /* \"#utility.yul\":1810:1823   */\n  mload\n    /* \"#utility.yul\":1801:1823   */\n  swap1\n  pop\n    /* \"#utility.yul\":1832:1863   */\n  tag_44\n    /* \"#utility.yul\":1857:1862   */\n  dup2\n    /* \"#utility.yul\":1832:1863   */\n  tag_19\n  jump\t// in\ntag_44:\n    /* \"#utility.yul\":1730:1869   */\n  swap3\n  swap2\n  pop\n  pop\n  jump\t// out\n    /* \"#utility.yul\":1875:2222   */\ntag_9:\n    /* \"#utility.yul\":1943:1949   */\n  0x00\n    /* \"#utility.yul\":1992:1994   */\n  0x20\n    /* \"#utility.yul\":1980:1989   */\n  dup3\n    /* \"#utility.yul\":1971:1978   */\n  dup5\n    /* \"#utility.yul\":1967:1990   */\n  sub\n    /* \"#utility.yul\":1963:1995   */\n  slt\n    /* \"#utility.yul\":1960:2079   */\n  iszero\n  tag_46\n  jumpi\n    /* \"#utility.yul\":1998:2077   */\n  tag_47\n  tag_12\n  jump\t// in\ntag_47:\n    /* \"#utility.yul\":1960:2079   */\ntag_46:\n    /* \"#utility.yul\":2118:2119   */\n  0x00\n    /* \"#utility.yul\":2143:2205   */\n  tag_48\n    /* \"#utility.yul\":2197:2204   */\n  dup5\n    /* \"#utility.yul\":2188:2194   */\n  dup3\n    /* \"#utility.yul\":2177:2186   */\n  dup6\n    /* \"#utility.yul\":2173:2195   */\n  add\n    /* \"#utility.yul\":2143:2205   */\n  tag_20\n  jump\t// in\ntag_48:\n    /* \"#utility.yul\":2133:2205   */\n  swap2\n  pop\n    /* \"#utility.yul\":2089:2215   */\n  pop\n    /* \"#utility.yul\":1875:2222   */\n  swap3\n  swap2\n  pop\n  pop\n  jump\t// out\n    /* \"hopium/standalone/main/price-oracle.sol\":7895:12829  contract PriceOracle is Helpers {... */\ntag_10:\n  mload(0x80)\n  mload(0xa0)\n  mload(0xc0)\n  mload(0xe0)\n  codecopy(0x00, dataOffset(sub_0), dataSize(sub_0))\n  0x00\n  assignImmutable(\"0xbbd48b257be1b8216d144ef9be5734f8d11697959c9e0f7768bec89db74a63a3\")\n  0x00\n  assignImmutable(\"0xf928ede1c39c5595ff22fe845412ee05a93eeaa584f8ef0c46b5eeb14cb99ec8\")\n  0x00\n  assignImmutable(\"0x59c0d2b7af0a8e6d3d8e710a078764bd67b7223777026c424cdb4f599824bb79\")\n  0x00\n  assignImmutable(\"0xeb09910a03c892999c305d4a86a46fa82693119d981eef22c8d043b31f9e8a31\")\n  return(0x00, dataSize(sub_0))\nstop\n\nsub_0: assembly {\n        /* \"hopium/standalone/main/price-oracle.sol\":7895:12829  contract PriceOracle is Helpers {... */\n      mstore(0x40, 0x80)\n      callvalue\n      dup1\n      iszero\n      tag_1\n      jumpi\n      revert(0x00, 0x00)\n    tag_1:\n      pop\n      jumpi(tag_2, lt(calldatasize, 0x04))\n      shr(0xe0, calldataload(0x00))\n      dup1\n      0x6855e939\n      gt\n      tag_15\n      jumpi\n      dup1\n      0x6855e939\n      eq\n      tag_9\n      jumpi\n      dup1\n      0x69a2e17d\n      eq\n      tag_10\n      jumpi\n      dup1\n      0x7b49b49d\n      eq\n      tag_11\n      jumpi\n      dup1\n      0x7d1aa610\n      eq\n      tag_12\n      jumpi\n      dup1\n      0x884ec7a9\n      eq\n      tag_13\n      jumpi\n      dup1\n      0xd08aef7c\n      eq\n      tag_14\n      jumpi\n      jump(tag_2)\n    tag_15:\n      dup1\n      0x593bcf\n      eq\n      tag_3\n      jumpi\n      dup1\n      0x040141e5\n      eq\n      tag_4\n      jumpi\n      dup1\n      0x0b017603\n      eq\n      tag_5\n      jumpi\n      dup1\n      0x0dbc0d7d\n      eq\n      tag_6\n      jumpi\n      dup1\n      0x57b6c133\n      eq\n      tag_7\n      jumpi\n      dup1\n      0x63aa0c93\n      eq\n      tag_8\n      jumpi\n    tag_2:\n      revert(0x00, 0x00)\n        /* \"hopium/standalone/main/price-oracle.sol\":9639:10009  function getTokenUsdPrice(address tokenAddress) external view returns (uint256 price18) {... */\n    tag_3:\n      tag_16\n      0x04\n      dup1\n      calldatasize\n      sub\n      dup2\n      add\n      swap1\n      tag_17\n      swap2\n      swap1\n      tag_18\n      jump\t// in\n    tag_17:\n      tag_19\n      jump\t// in\n    tag_16:\n      mload(0x40)\n      tag_20\n      swap2\n      swap1\n      tag_21\n      jump\t// in\n    tag_20:\n      mload(0x40)\n      dup1\n      swap2\n      sub\n      swap1\n      return\n        /* \"hopium/standalone/main/price-oracle.sol\":668:705  address public immutable WETH_ADDRESS */\n    tag_4:\n      tag_22\n      tag_23\n      jump\t// in\n    tag_22:\n      mload(0x40)\n      tag_24\n      swap2\n      swap1\n      tag_25\n      jump\t// in\n    tag_24:\n      mload(0x40)\n      dup1\n      swap2\n      sub\n      swap1\n      return\n        /* \"hopium/standalone/main/price-oracle.sol\":711:757  address public immutable WETH_USD_PAIR_ADDRESS */\n    tag_5:\n      tag_26\n      tag_27\n      jump\t// in\n    tag_26:\n      mload(0x40)\n      tag_28\n      swap2\n      swap1\n      tag_25\n      jump\t// in\n    tag_28:\n      mload(0x40)\n      dup1\n      swap2\n      sub\n      swap1\n      return\n        /* \"hopium/standalone/main/price-oracle.sol\":10170:11230  function getTokenLiquidityWeth(address tokenAddress) public view returns (uint256) {... */\n    tag_6:\n      tag_29\n      0x04\n      dup1\n      calldatasize\n      sub\n      dup2\n      add\n      swap1\n      tag_30\n      swap2\n      swap1\n      tag_18\n      jump\t// in\n    tag_30:\n      tag_31\n      jump\t// in\n    tag_29:\n      mload(0x40)\n      tag_32\n      swap2\n      swap1\n      tag_21\n      jump\t// in\n    tag_32:\n      mload(0x40)\n      dup1\n      swap2\n      sub\n      swap1\n      return\n        /* \"hopium/standalone/main/price-oracle.sol\":11321:11646  function getTokenLiquidityUsd(address tokenAddress) external view returns (uint256 totalLiquidityUsd18) {... */\n    tag_7:\n      tag_33\n      0x04\n      dup1\n      calldatasize\n      sub\n      dup2\n      add\n      swap1\n      tag_34\n      swap2\n      swap1\n      tag_18\n      jump\t// in\n    tag_34:\n      tag_35\n      jump\t// in\n    tag_33:\n      mload(0x40)\n      tag_36\n      swap2\n      swap1\n      tag_21\n      jump\t// in\n    tag_36:\n      mload(0x40)\n      dup1\n      swap2\n      sub\n      swap1\n      return\n        /* \"hopium/standalone/main/price-oracle.sol\":11819:12317  function getTokenMarketCapWeth(address tokenAddress) public view returns (uint256) {... */\n    tag_8:\n      tag_37\n      0x04\n      dup1\n      calldatasize\n      sub\n      dup2\n      add\n      swap1\n      tag_38\n      swap2\n      swap1\n      tag_18\n      jump\t// in\n    tag_38:\n      tag_39\n      jump\t// in\n    tag_37:\n      mload(0x40)\n      tag_40\n      swap2\n      swap1\n      tag_21\n      jump\t// in\n    tag_40:\n      mload(0x40)\n      dup1\n      swap2\n      sub\n      swap1\n      return\n        /* \"hopium/standalone/main/price-oracle.sol\":8397:8918  function getWethUsdPrice() public view returns (uint256 price18) {... */\n    tag_9:\n      tag_41\n      tag_42\n      jump\t// in\n    tag_41:\n      mload(0x40)\n      tag_43\n      swap2\n      swap1\n      tag_21\n      jump\t// in\n    tag_43:\n      mload(0x40)\n      dup1\n      swap2\n      sub\n      swap1\n      return\n        /* \"hopium/standalone/main/price-oracle.sol\":12382:12669  function getTokenMarketCapUsd(address tokenAddress) external view returns (uint256 marketCapUsd18) {... */\n    tag_10:\n      tag_44\n      0x04\n      dup1\n      calldatasize\n      sub\n      dup2\n      add\n      swap1\n      tag_45\n      swap2\n      swap1\n      tag_18\n      jump\t// in\n    tag_45:\n      tag_46\n      jump\t// in\n    tag_44:\n      mload(0x40)\n      tag_47\n      swap2\n      swap1\n      tag_21\n      jump\t// in\n    tag_47:\n      mload(0x40)\n      dup1\n      swap2\n      sub\n      swap1\n      return\n        /* \"hopium/standalone/main/price-oracle.sol\":9047:9581  function getTokenWethPrice(address tokenAddress) public view returns (uint256) {... */\n    tag_11:\n      tag_48\n      0x04\n      dup1\n      calldatasize\n      sub\n      dup2\n      add\n      swap1\n      tag_49\n      swap2\n      swap1\n      tag_18\n      jump\t// in\n    tag_49:\n      tag_50\n      jump\t// in\n    tag_48:\n      mload(0x40)\n      tag_51\n      swap2\n      swap1\n      tag_21\n      jump\t// in\n    tag_51:\n      mload(0x40)\n      dup1\n      swap2\n      sub\n      swap1\n      return\n        /* \"hopium/standalone/main/price-oracle.sol\":12675:12826  function getTokenWethPairAddress(address tokenAddress) external view returns (address) {... */\n    tag_12:\n      tag_52\n      0x04\n      dup1\n      calldatasize\n      sub\n      dup2\n      add\n      swap1\n      tag_53\n      swap2\n      swap1\n      tag_18\n      jump\t// in\n    tag_53:\n      tag_54\n      jump\t// in\n    tag_52:\n      mload(0x40)\n      tag_55\n      swap2\n      swap1\n      tag_25\n      jump\t// in\n    tag_55:\n      mload(0x40)\n      dup1\n      swap2\n      sub\n      swap1\n      return\n        /* \"hopium/standalone/main/price-oracle.sol\":763:814  address public immutable UNISWAP_V2_FACTORY_ADDRESS */\n    tag_13:\n      tag_56\n      tag_57\n      jump\t// in\n    tag_56:\n      mload(0x40)\n      tag_58\n      swap2\n      swap1\n      tag_25\n      jump\t// in\n    tag_58:\n      mload(0x40)\n      dup1\n      swap2\n      sub\n      swap1\n      return\n        /* \"hopium/standalone/main/price-oracle.sol\":821:857  uint8 public immutable WETH_DECIMALS */\n    tag_14:\n      tag_59\n      tag_60\n      jump\t// in\n    tag_59:\n      mload(0x40)\n      tag_61\n      swap2\n      swap1\n      tag_62\n      jump\t// in\n    tag_61:\n      mload(0x40)\n      dup1\n      swap2\n      sub\n      swap1\n      return\n        /* \"hopium/standalone/main/price-oracle.sol\":9639:10009  function getTokenUsdPrice(address tokenAddress) external view returns (uint256 price18) {... */\n    tag_19:\n        /* \"hopium/standalone/main/price-oracle.sol\":9710:9725  uint256 price18 */\n      0x00\n        /* \"hopium/standalone/main/price-oracle.sol\":9737:9754  uint256 tokenWeth */\n      0x00\n        /* \"hopium/standalone/main/price-oracle.sol\":9757:9788  getTokenWethPrice(tokenAddress) */\n      tag_64\n        /* \"hopium/standalone/main/price-oracle.sol\":9775:9787  tokenAddress */\n      dup4\n        /* \"hopium/standalone/main/price-oracle.sol\":9757:9774  getTokenWethPrice */\n      tag_50\n        /* \"hopium/standalone/main/price-oracle.sol\":9757:9788  getTokenWethPrice(tokenAddress) */\n      jump\t// in\n    tag_64:\n        /* \"hopium/standalone/main/price-oracle.sol\":9737:9788  uint256 tokenWeth = getTokenWethPrice(tokenAddress) */\n      swap1\n      pop\n        /* \"hopium/standalone/main/price-oracle.sol\":9825:9840  uint256 wethUsd */\n      0x00\n        /* \"hopium/standalone/main/price-oracle.sol\":9845:9862  getWethUsdPrice() */\n      tag_65\n        /* \"hopium/standalone/main/price-oracle.sol\":9845:9860  getWethUsdPrice */\n      tag_42\n        /* \"hopium/standalone/main/price-oracle.sol\":9845:9862  getWethUsdPrice() */\n      jump\t// in\n    tag_65:\n        /* \"hopium/standalone/main/price-oracle.sol\":9825:9862  uint256 wethUsd   = getWethUsdPrice() */\n      swap1\n      pop\n        /* \"hopium/standalone/main/price-oracle.sol\":9970:10002  _mulDiv(tokenWeth, wethUsd, WAD) */\n      tag_66\n        /* \"hopium/standalone/main/price-oracle.sol\":9978:9987  tokenWeth */\n      dup3\n        /* \"hopium/standalone/main/price-oracle.sol\":9989:9996  wethUsd */\n      dup3\n        /* \"hopium/standalone/main/price-oracle.sol\":913:917  1e18 */\n      0x0de0b6b3a7640000\n        /* \"hopium/standalone/main/price-oracle.sol\":9970:9977  _mulDiv */\n      tag_67\n        /* \"hopium/standalone/main/price-oracle.sol\":9970:10002  _mulDiv(tokenWeth, wethUsd, WAD) */\n      jump\t// in\n    tag_66:\n        /* \"hopium/standalone/main/price-oracle.sol\":9960:10002  price18 = _mulDiv(tokenWeth, wethUsd, WAD) */\n      swap3\n      pop\n        /* \"hopium/standalone/main/price-oracle.sol\":9727:10009  {... */\n      pop\n      pop\n        /* \"hopium/standalone/main/price-oracle.sol\":9639:10009  function getTokenUsdPrice(address tokenAddress) external view returns (uint256 price18) {... */\n      swap2\n      swap1\n      pop\n      jump\t// out\n        /* \"hopium/standalone/main/price-oracle.sol\":668:705  address public immutable WETH_ADDRESS */\n    tag_23:\n      immutable(\"0xeb09910a03c892999c305d4a86a46fa82693119d981eef22c8d043b31f9e8a31\")\n      dup2\n      jump\t// out\n        /* \"hopium/standalone/main/price-oracle.sol\":711:757  address public immutable WETH_USD_PAIR_ADDRESS */\n    tag_27:\n      immutable(\"0x59c0d2b7af0a8e6d3d8e710a078764bd67b7223777026c424cdb4f599824bb79\")\n      dup2\n      jump\t// out\n        /* \"hopium/standalone/main/price-oracle.sol\":10170:11230  function getTokenLiquidityWeth(address tokenAddress) public view returns (uint256) {... */\n    tag_31:\n        /* \"hopium/standalone/main/price-oracle.sol\":10244:10251  uint256 */\n      0x00\n        /* \"hopium/standalone/main/price-oracle.sol\":10283:10295  WETH_ADDRESS */\n      immutable(\"0xeb09910a03c892999c305d4a86a46fa82693119d981eef22c8d043b31f9e8a31\")\n        /* \"hopium/standalone/main/price-oracle.sol\":10267:10295  tokenAddress == WETH_ADDRESS */\n      0xffffffffffffffffffffffffffffffffffffffff\n      and\n        /* \"hopium/standalone/main/price-oracle.sol\":10267:10279  tokenAddress */\n      dup3\n        /* \"hopium/standalone/main/price-oracle.sol\":10267:10295  tokenAddress == WETH_ADDRESS */\n      0xffffffffffffffffffffffffffffffffffffffff\n      and\n      sub\n        /* \"hopium/standalone/main/price-oracle.sol\":10263:10429  if (tokenAddress == WETH_ADDRESS) {... */\n      tag_69\n      jumpi\n        /* \"hopium/standalone/main/price-oracle.sol\":10311:10325  uint256 supply */\n      0x00\n        /* \"hopium/standalone/main/price-oracle.sol\":10335:10347  WETH_ADDRESS */\n      immutable(\"0xeb09910a03c892999c305d4a86a46fa82693119d981eef22c8d043b31f9e8a31\")\n        /* \"hopium/standalone/main/price-oracle.sol\":10328:10360  IERC20(WETH_ADDRESS).totalSupply */\n      0xffffffffffffffffffffffffffffffffffffffff\n      and\n      0x18160ddd\n        /* \"hopium/standalone/main/price-oracle.sol\":10328:10362  IERC20(WETH_ADDRESS).totalSupply() */\n      mload(0x40)\n      dup2\n      0xffffffff\n      and\n      0xe0\n      shl\n      dup2\n      mstore\n      0x04\n      add\n      0x20\n      mload(0x40)\n      dup1\n      dup4\n      sub\n      dup2\n      dup7\n      gas\n      staticcall\n      iszero\n      dup1\n      iszero\n      tag_71\n      jumpi\n      returndatacopy(0x00, 0x00, returndatasize)\n      revert(0x00, returndatasize)\n    tag_71:\n      pop\n      pop\n      pop\n      pop\n      mload(0x40)\n      returndatasize\n      not(0x1f)\n      0x1f\n      dup3\n      add\n      and\n      dup3\n      add\n      dup1\n      0x40\n      mstore\n      pop\n      dup2\n      add\n      swap1\n      tag_72\n      swap2\n      swap1\n      tag_73\n      jump\t// in\n    tag_72:\n        /* \"hopium/standalone/main/price-oracle.sol\":10311:10362  uint256 supply = IERC20(WETH_ADDRESS).totalSupply() */\n      swap1\n      pop\n        /* \"hopium/standalone/main/price-oracle.sol\":10383:10418  _scaleTo1e18(supply, WETH_DECIMALS) */\n      tag_74\n        /* \"hopium/standalone/main/price-oracle.sol\":10396:10402  supply */\n      dup2\n        /* \"hopium/standalone/main/price-oracle.sol\":10404:10417  WETH_DECIMALS */\n      immutable(\"0xbbd48b257be1b8216d144ef9be5734f8d11697959c9e0f7768bec89db74a63a3\")\n        /* \"hopium/standalone/main/price-oracle.sol\":10383:10395  _scaleTo1e18 */\n      tag_75\n        /* \"hopium/standalone/main/price-oracle.sol\":10383:10418  _scaleTo1e18(supply, WETH_DECIMALS) */\n      jump\t// in\n    tag_74:\n        /* \"hopium/standalone/main/price-oracle.sol\":10376:10418  return _scaleTo1e18(supply, WETH_DECIMALS) */\n      swap2\n      pop\n      pop\n      jump(tag_68)\n        /* \"hopium/standalone/main/price-oracle.sol\":10263:10429  if (tokenAddress == WETH_ADDRESS) {... */\n    tag_69:\n        /* \"hopium/standalone/main/price-oracle.sol\":10439:10458  address pairAddress */\n      0x00\n        /* \"hopium/standalone/main/price-oracle.sol\":10461:10501  _getTokenToWethPairAddress(tokenAddress) */\n      tag_76\n        /* \"hopium/standalone/main/price-oracle.sol\":10488:10500  tokenAddress */\n      dup4\n        /* \"hopium/standalone/main/price-oracle.sol\":10461:10487  _getTokenToWethPairAddress */\n      tag_77\n        /* \"hopium/standalone/main/price-oracle.sol\":10461:10501  _getTokenToWethPairAddress(tokenAddress) */\n      jump\t// in\n    tag_76:\n        /* \"hopium/standalone/main/price-oracle.sol\":10439:10501  address pairAddress = _getTokenToWethPairAddress(tokenAddress) */\n      swap1\n      pop\n        /* \"hopium/standalone/main/price-oracle.sol\":10512:10532  uint256 reserveToken */\n      0x00\n        /* \"hopium/standalone/main/price-oracle.sol\":10534:10544  uint8 decT */\n      0x00\n        /* \"hopium/standalone/main/price-oracle.sol\":10546:10565  uint256 reserveWeth */\n      0x00\n        /* \"hopium/standalone/main/price-oracle.sol\":10567:10577  uint8 decW */\n      0x00\n        /* \"hopium/standalone/main/price-oracle.sol\":10594:10640  _getOrderedReserves(pairAddress, tokenAddress) */\n      tag_78\n        /* \"hopium/standalone/main/price-oracle.sol\":10614:10625  pairAddress */\n      dup6\n        /* \"hopium/standalone/main/price-oracle.sol\":10627:10639  tokenAddress */\n      dup9\n        /* \"hopium/standalone/main/price-oracle.sol\":10594:10613  _getOrderedReserves */\n      tag_79\n        /* \"hopium/standalone/main/price-oracle.sol\":10594:10640  _getOrderedReserves(pairAddress, tokenAddress) */\n      jump\t// in\n    tag_78:\n        /* \"hopium/standalone/main/price-oracle.sol\":10511:10640  (uint256 reserveToken, uint8 decT, uint256 reserveWeth, uint8 decW,) =... */\n      pop\n      swap4\n      pop\n      swap4\n      pop\n      swap4\n      pop\n      swap4\n      pop\n        /* \"hopium/standalone/main/price-oracle.sol\":10651:10672  uint256 tokenAmount18 */\n      0x00\n        /* \"hopium/standalone/main/price-oracle.sol\":10675:10707  _scaleTo1e18(reserveToken, decT) */\n      tag_80\n        /* \"hopium/standalone/main/price-oracle.sol\":10688:10700  reserveToken */\n      dup6\n        /* \"hopium/standalone/main/price-oracle.sol\":10702:10706  decT */\n      dup6\n        /* \"hopium/standalone/main/price-oracle.sol\":10675:10687  _scaleTo1e18 */\n      tag_75\n        /* \"hopium/standalone/main/price-oracle.sol\":10675:10707  _scaleTo1e18(reserveToken, decT) */\n      jump\t// in\n    tag_80:\n        /* \"hopium/standalone/main/price-oracle.sol\":10651:10707  uint256 tokenAmount18 = _scaleTo1e18(reserveToken, decT) */\n      swap1\n      pop\n        /* \"hopium/standalone/main/price-oracle.sol\":10717:10737  uint256 wethAmount18 */\n      0x00\n        /* \"hopium/standalone/main/price-oracle.sol\":10741:10773  _scaleTo1e18(reserveWeth,  decW) */\n      tag_81\n        /* \"hopium/standalone/main/price-oracle.sol\":10754:10765  reserveWeth */\n      dup5\n        /* \"hopium/standalone/main/price-oracle.sol\":10768:10772  decW */\n      dup5\n        /* \"hopium/standalone/main/price-oracle.sol\":10741:10753  _scaleTo1e18 */\n      tag_75\n        /* \"hopium/standalone/main/price-oracle.sol\":10741:10773  _scaleTo1e18(reserveWeth,  decW) */\n      jump\t// in\n    tag_81:\n        /* \"hopium/standalone/main/price-oracle.sol\":10717:10773  uint256 wethAmount18  = _scaleTo1e18(reserveWeth,  decW) */\n      swap1\n      pop\n        /* \"hopium/standalone/main/price-oracle.sol\":10819:10845  uint256 tokenPriceInWeth18 */\n      0x00\n        /* \"hopium/standalone/main/price-oracle.sol\":10848:10879  getTokenWethPrice(tokenAddress) */\n      tag_82\n        /* \"hopium/standalone/main/price-oracle.sol\":10866:10878  tokenAddress */\n      dup11\n        /* \"hopium/standalone/main/price-oracle.sol\":10848:10865  getTokenWethPrice */\n      tag_50\n        /* \"hopium/standalone/main/price-oracle.sol\":10848:10879  getTokenWethPrice(tokenAddress) */\n      jump\t// in\n    tag_82:\n        /* \"hopium/standalone/main/price-oracle.sol\":10819:10879  uint256 tokenPriceInWeth18 = getTokenWethPrice(tokenAddress) */\n      swap1\n      pop\n        /* \"hopium/standalone/main/price-oracle.sol\":10936:10962  uint256 tokenValueInWeth18 */\n      0x00\n        /* \"hopium/standalone/main/price-oracle.sol\":10965:11012  _mulDiv(tokenAmount18, tokenPriceInWeth18, WAD) */\n      tag_83\n        /* \"hopium/standalone/main/price-oracle.sol\":10973:10986  tokenAmount18 */\n      dup5\n        /* \"hopium/standalone/main/price-oracle.sol\":10988:11006  tokenPriceInWeth18 */\n      dup4\n        /* \"hopium/standalone/main/price-oracle.sol\":913:917  1e18 */\n      0x0de0b6b3a7640000\n        /* \"hopium/standalone/main/price-oracle.sol\":10965:10972  _mulDiv */\n      tag_67\n        /* \"hopium/standalone/main/price-oracle.sol\":10965:11012  _mulDiv(tokenAmount18, tokenPriceInWeth18, WAD) */\n      jump\t// in\n    tag_83:\n        /* \"hopium/standalone/main/price-oracle.sol\":10936:11012  uint256 tokenValueInWeth18 = _mulDiv(tokenAmount18, tokenPriceInWeth18, WAD) */\n      swap1\n      pop\n        /* \"hopium/standalone/main/price-oracle.sol\":11201:11213  wethAmount18 */\n      dup3\n        /* \"hopium/standalone/main/price-oracle.sol\":11180:11198  tokenValueInWeth18 */\n      dup2\n        /* \"hopium/standalone/main/price-oracle.sol\":11180:11213  tokenValueInWeth18 + wethAmount18 */\n      add\n        /* \"hopium/standalone/main/price-oracle.sol\":11173:11213  return tokenValueInWeth18 + wethAmount18 */\n      swap10\n      pop\n      pop\n      pop\n      pop\n      pop\n      pop\n      pop\n      pop\n      pop\n      pop\n        /* \"hopium/standalone/main/price-oracle.sol\":10170:11230  function getTokenLiquidityWeth(address tokenAddress) public view returns (uint256) {... */\n    tag_68:\n      swap2\n      swap1\n      pop\n      jump\t// out\n        /* \"hopium/standalone/main/price-oracle.sol\":11321:11646  function getTokenLiquidityUsd(address tokenAddress) external view returns (uint256 totalLiquidityUsd18) {... */\n    tag_35:\n        /* \"hopium/standalone/main/price-oracle.sol\":11396:11423  uint256 totalLiquidityUsd18 */\n      0x00\n        /* \"hopium/standalone/main/price-oracle.sol\":11435:11463  uint256 totalLiquidityWeth18 */\n      0x00\n        /* \"hopium/standalone/main/price-oracle.sol\":11466:11501  getTokenLiquidityWeth(tokenAddress) */\n      tag_85\n        /* \"hopium/standalone/main/price-oracle.sol\":11488:11500  tokenAddress */\n      dup4\n        /* \"hopium/standalone/main/price-oracle.sol\":11466:11487  getTokenLiquidityWeth */\n      tag_31\n        /* \"hopium/standalone/main/price-oracle.sol\":11466:11501  getTokenLiquidityWeth(tokenAddress) */\n      jump\t// in\n    tag_85:\n        /* \"hopium/standalone/main/price-oracle.sol\":11435:11501  uint256 totalLiquidityWeth18 = getTokenLiquidityWeth(tokenAddress) */\n      swap1\n      pop\n        /* \"hopium/standalone/main/price-oracle.sol\":11511:11531  uint256 usdPerWeth18 */\n      0x00\n        /* \"hopium/standalone/main/price-oracle.sol\":11542:11559  getWethUsdPrice() */\n      tag_86\n        /* \"hopium/standalone/main/price-oracle.sol\":11542:11557  getWethUsdPrice */\n      tag_42\n        /* \"hopium/standalone/main/price-oracle.sol\":11542:11559  getWethUsdPrice() */\n      jump\t// in\n    tag_86:\n        /* \"hopium/standalone/main/price-oracle.sol\":11511:11559  uint256 usdPerWeth18         = getWethUsdPrice() */\n      swap1\n      pop\n        /* \"hopium/standalone/main/price-oracle.sol\":11591:11639  _mulDiv(totalLiquidityWeth18, usdPerWeth18, WAD) */\n      tag_87\n        /* \"hopium/standalone/main/price-oracle.sol\":11599:11619  totalLiquidityWeth18 */\n      dup3\n        /* \"hopium/standalone/main/price-oracle.sol\":11621:11633  usdPerWeth18 */\n      dup3\n        /* \"hopium/standalone/main/price-oracle.sol\":913:917  1e18 */\n      0x0de0b6b3a7640000\n        /* \"hopium/standalone/main/price-oracle.sol\":11591:11598  _mulDiv */\n      tag_67\n        /* \"hopium/standalone/main/price-oracle.sol\":11591:11639  _mulDiv(totalLiquidityWeth18, usdPerWeth18, WAD) */\n      jump\t// in\n    tag_87:\n        /* \"hopium/standalone/main/price-oracle.sol\":11569:11639  totalLiquidityUsd18 = _mulDiv(totalLiquidityWeth18, usdPerWeth18, WAD) */\n      swap3\n      pop\n        /* \"hopium/standalone/main/price-oracle.sol\":11425:11646  {... */\n      pop\n      pop\n        /* \"hopium/standalone/main/price-oracle.sol\":11321:11646  function getTokenLiquidityUsd(address tokenAddress) external view returns (uint256 totalLiquidityUsd18) {... */\n      swap2\n      swap1\n      pop\n      jump\t// out\n        /* \"hopium/standalone/main/price-oracle.sol\":11819:12317  function getTokenMarketCapWeth(address tokenAddress) public view returns (uint256) {... */\n    tag_39:\n        /* \"hopium/standalone/main/price-oracle.sol\":11893:11900  uint256 */\n      0x00\n        /* \"hopium/standalone/main/price-oracle.sol\":11912:11926  uint256 supply */\n      0x00\n        /* \"hopium/standalone/main/price-oracle.sol\":11937:11949  tokenAddress */\n      dup3\n        /* \"hopium/standalone/main/price-oracle.sol\":11930:11962  IERC20(tokenAddress).totalSupply */\n      0xffffffffffffffffffffffffffffffffffffffff\n      and\n      0x18160ddd\n        /* \"hopium/standalone/main/price-oracle.sol\":11930:11964  IERC20(tokenAddress).totalSupply() */\n      mload(0x40)\n      dup2\n      0xffffffff\n      and\n      0xe0\n      shl\n      dup2\n      mstore\n      0x04\n      add\n      0x20\n      mload(0x40)\n      dup1\n      dup4\n      sub\n      dup2\n      dup7\n      gas\n      staticcall\n      iszero\n      dup1\n      iszero\n      tag_90\n      jumpi\n      returndatacopy(0x00, 0x00, returndatasize)\n      revert(0x00, returndatasize)\n    tag_90:\n      pop\n      pop\n      pop\n      pop\n      mload(0x40)\n      returndatasize\n      not(0x1f)\n      0x1f\n      dup3\n      add\n      and\n      dup3\n      add\n      dup1\n      0x40\n      mstore\n      pop\n      dup2\n      add\n      swap1\n      tag_91\n      swap2\n      swap1\n      tag_73\n      jump\t// in\n    tag_91:\n        /* \"hopium/standalone/main/price-oracle.sol\":11912:11964  uint256 supply  = IERC20(tokenAddress).totalSupply() */\n      swap1\n      pop\n        /* \"hopium/standalone/main/price-oracle.sol\":11974:11986  uint8   decT */\n      0x00\n        /* \"hopium/standalone/main/price-oracle.sol\":12007:12019  tokenAddress */\n      dup4\n        /* \"hopium/standalone/main/price-oracle.sol\":11992:12029  IERC20Metadata(tokenAddress).decimals */\n      0xffffffffffffffffffffffffffffffffffffffff\n      and\n      0x313ce567\n        /* \"hopium/standalone/main/price-oracle.sol\":11992:12031  IERC20Metadata(tokenAddress).decimals() */\n      mload(0x40)\n      dup2\n      0xffffffff\n      and\n      0xe0\n      shl\n      dup2\n      mstore\n      0x04\n      add\n      0x20\n      mload(0x40)\n      dup1\n      dup4\n      sub\n      dup2\n      dup7\n      gas\n      staticcall\n      iszero\n      dup1\n      iszero\n      tag_93\n      jumpi\n      returndatacopy(0x00, 0x00, returndatasize)\n      revert(0x00, returndatasize)\n    tag_93:\n      pop\n      pop\n      pop\n      pop\n      mload(0x40)\n      returndatasize\n      not(0x1f)\n      0x1f\n      dup3\n      add\n      and\n      dup3\n      add\n      dup1\n      0x40\n      mstore\n      pop\n      dup2\n      add\n      swap1\n      tag_94\n      swap2\n      swap1\n      tag_95\n      jump\t// in\n    tag_94:\n        /* \"hopium/standalone/main/price-oracle.sol\":11974:12031  uint8   decT    = IERC20Metadata(tokenAddress).decimals() */\n      swap1\n      pop\n        /* \"hopium/standalone/main/price-oracle.sol\":12041:12057  uint256 supply18 */\n      0x00\n        /* \"hopium/standalone/main/price-oracle.sol\":12060:12086  _scaleTo1e18(supply, decT) */\n      tag_96\n        /* \"hopium/standalone/main/price-oracle.sol\":12073:12079  supply */\n      dup4\n        /* \"hopium/standalone/main/price-oracle.sol\":12081:12085  decT */\n      dup4\n        /* \"hopium/standalone/main/price-oracle.sol\":12060:12072  _scaleTo1e18 */\n      tag_75\n        /* \"hopium/standalone/main/price-oracle.sol\":12060:12086  _scaleTo1e18(supply, decT) */\n      jump\t// in\n    tag_96:\n        /* \"hopium/standalone/main/price-oracle.sol\":12041:12086  uint256 supply18 = _scaleTo1e18(supply, decT) */\n      swap1\n      pop\n        /* \"hopium/standalone/main/price-oracle.sol\":12117:12129  WETH_ADDRESS */\n      immutable(\"0xeb09910a03c892999c305d4a86a46fa82693119d981eef22c8d043b31f9e8a31\")\n        /* \"hopium/standalone/main/price-oracle.sol\":12101:12129  tokenAddress == WETH_ADDRESS */\n      0xffffffffffffffffffffffffffffffffffffffff\n      and\n        /* \"hopium/standalone/main/price-oracle.sol\":12101:12113  tokenAddress */\n      dup6\n        /* \"hopium/standalone/main/price-oracle.sol\":12101:12129  tokenAddress == WETH_ADDRESS */\n      0xffffffffffffffffffffffffffffffffffffffff\n      and\n      sub\n        /* \"hopium/standalone/main/price-oracle.sol\":12097:12190  if (tokenAddress == WETH_ADDRESS) {... */\n      tag_97\n      jumpi\n        /* \"hopium/standalone/main/price-oracle.sol\":12152:12160  supply18 */\n      dup1\n        /* \"hopium/standalone/main/price-oracle.sol\":12145:12160  return supply18 */\n      swap4\n      pop\n      pop\n      pop\n      pop\n      jump(tag_88)\n        /* \"hopium/standalone/main/price-oracle.sol\":12097:12190  if (tokenAddress == WETH_ADDRESS) {... */\n    tag_97:\n        /* \"hopium/standalone/main/price-oracle.sol\":12199:12221  uint256 wethPerToken18 */\n      0x00\n        /* \"hopium/standalone/main/price-oracle.sol\":12224:12255  getTokenWethPrice(tokenAddress) */\n      tag_98\n        /* \"hopium/standalone/main/price-oracle.sol\":12242:12254  tokenAddress */\n      dup7\n        /* \"hopium/standalone/main/price-oracle.sol\":12224:12241  getTokenWethPrice */\n      tag_50\n        /* \"hopium/standalone/main/price-oracle.sol\":12224:12255  getTokenWethPrice(tokenAddress) */\n      jump\t// in\n    tag_98:\n        /* \"hopium/standalone/main/price-oracle.sol\":12199:12255  uint256 wethPerToken18 = getTokenWethPrice(tokenAddress) */\n      swap1\n      pop\n        /* \"hopium/standalone/main/price-oracle.sol\":12272:12310  _mulDiv(supply18, wethPerToken18, WAD) */\n      tag_99\n        /* \"hopium/standalone/main/price-oracle.sol\":12280:12288  supply18 */\n      dup3\n        /* \"hopium/standalone/main/price-oracle.sol\":12290:12304  wethPerToken18 */\n      dup3\n        /* \"hopium/standalone/main/price-oracle.sol\":913:917  1e18 */\n      0x0de0b6b3a7640000\n        /* \"hopium/standalone/main/price-oracle.sol\":12272:12279  _mulDiv */\n      tag_67\n        /* \"hopium/standalone/main/price-oracle.sol\":12272:12310  _mulDiv(supply18, wethPerToken18, WAD) */\n      jump\t// in\n    tag_99:\n        /* \"hopium/standalone/main/price-oracle.sol\":12265:12310  return _mulDiv(supply18, wethPerToken18, WAD) */\n      swap5\n      pop\n      pop\n      pop\n      pop\n      pop\n        /* \"hopium/standalone/main/price-oracle.sol\":11819:12317  function getTokenMarketCapWeth(address tokenAddress) public view returns (uint256) {... */\n    tag_88:\n      swap2\n      swap1\n      pop\n      jump\t// out\n        /* \"hopium/standalone/main/price-oracle.sol\":8397:8918  function getWethUsdPrice() public view returns (uint256 price18) {... */\n    tag_42:\n        /* \"hopium/standalone/main/price-oracle.sol\":8445:8460  uint256 price18 */\n      0x00\n        /* \"hopium/standalone/main/price-oracle.sol\":8486:8505  uint256 reserveWeth */\n      0x00\n        /* \"hopium/standalone/main/price-oracle.sol\":8519:8529  uint8 decW */\n      0x00\n        /* \"hopium/standalone/main/price-oracle.sol\":8543:8561  uint256 reserveUsd */\n      0x00\n        /* \"hopium/standalone/main/price-oracle.sol\":8575:8585  uint8 decU */\n      0x00\n        /* \"hopium/standalone/main/price-oracle.sol\":8600:8656  _getOrderedReserves(WETH_USD_PAIR_ADDRESS, WETH_ADDRESS) */\n      tag_101\n        /* \"hopium/standalone/main/price-oracle.sol\":8620:8641  WETH_USD_PAIR_ADDRESS */\n      immutable(\"0x59c0d2b7af0a8e6d3d8e710a078764bd67b7223777026c424cdb4f599824bb79\")\n        /* \"hopium/standalone/main/price-oracle.sol\":8643:8655  WETH_ADDRESS */\n      immutable(\"0xeb09910a03c892999c305d4a86a46fa82693119d981eef22c8d043b31f9e8a31\")\n        /* \"hopium/standalone/main/price-oracle.sol\":8600:8619  _getOrderedReserves */\n      tag_79\n        /* \"hopium/standalone/main/price-oracle.sol\":8600:8656  _getOrderedReserves(WETH_USD_PAIR_ADDRESS, WETH_ADDRESS) */\n      jump\t// in\n    tag_101:\n        /* \"hopium/standalone/main/price-oracle.sol\":8472:8656  (... */\n      pop\n      swap4\n      pop\n      swap4\n      pop\n      swap4\n      pop\n      swap4\n      pop\n        /* \"hopium/standalone/main/price-oracle.sol\":8866:8911  _price18(reserveUsd, decU, reserveWeth, decW) */\n      tag_102\n        /* \"hopium/standalone/main/price-oracle.sol\":8875:8885  reserveUsd */\n      dup3\n        /* \"hopium/standalone/main/price-oracle.sol\":8887:8891  decU */\n      dup3\n        /* \"hopium/standalone/main/price-oracle.sol\":8893:8904  reserveWeth */\n      dup7\n        /* \"hopium/standalone/main/price-oracle.sol\":8906:8910  decW */\n      dup7\n        /* \"hopium/standalone/main/price-oracle.sol\":8866:8874  _price18 */\n      tag_103\n        /* \"hopium/standalone/main/price-oracle.sol\":8866:8911  _price18(reserveUsd, decU, reserveWeth, decW) */\n      jump\t// in\n    tag_102:\n        /* \"hopium/standalone/main/price-oracle.sol\":8856:8911  price18 = _price18(reserveUsd, decU, reserveWeth, decW) */\n      swap5\n      pop\n        /* \"hopium/standalone/main/price-oracle.sol\":8462:8918  {... */\n      pop\n      pop\n      pop\n      pop\n        /* \"hopium/standalone/main/price-oracle.sol\":8397:8918  function getWethUsdPrice() public view returns (uint256 price18) {... */\n      swap1\n      jump\t// out\n        /* \"hopium/standalone/main/price-oracle.sol\":12382:12669  function getTokenMarketCapUsd(address tokenAddress) external view returns (uint256 marketCapUsd18) {... */\n    tag_46:\n        /* \"hopium/standalone/main/price-oracle.sol\":12457:12479  uint256 marketCapUsd18 */\n      0x00\n        /* \"hopium/standalone/main/price-oracle.sol\":12491:12507  uint256 mcWeth18 */\n      0x00\n        /* \"hopium/standalone/main/price-oracle.sol\":12514:12549  getTokenMarketCapWeth(tokenAddress) */\n      tag_105\n        /* \"hopium/standalone/main/price-oracle.sol\":12536:12548  tokenAddress */\n      dup4\n        /* \"hopium/standalone/main/price-oracle.sol\":12514:12535  getTokenMarketCapWeth */\n      tag_39\n        /* \"hopium/standalone/main/price-oracle.sol\":12514:12549  getTokenMarketCapWeth(tokenAddress) */\n      jump\t// in\n    tag_105:\n        /* \"hopium/standalone/main/price-oracle.sol\":12491:12549  uint256 mcWeth18     = getTokenMarketCapWeth(tokenAddress) */\n      swap1\n      pop\n        /* \"hopium/standalone/main/price-oracle.sol\":12559:12579  uint256 usdPerWeth18 */\n      0x00\n        /* \"hopium/standalone/main/price-oracle.sol\":12582:12599  getWethUsdPrice() */\n      tag_106\n        /* \"hopium/standalone/main/price-oracle.sol\":12582:12597  getWethUsdPrice */\n      tag_42\n        /* \"hopium/standalone/main/price-oracle.sol\":12582:12599  getWethUsdPrice() */\n      jump\t// in\n    tag_106:\n        /* \"hopium/standalone/main/price-oracle.sol\":12559:12599  uint256 usdPerWeth18 = getWethUsdPrice() */\n      swap1\n      pop\n        /* \"hopium/standalone/main/price-oracle.sol\":12626:12662  _mulDiv(mcWeth18, usdPerWeth18, WAD) */\n      tag_107\n        /* \"hopium/standalone/main/price-oracle.sol\":12634:12642  mcWeth18 */\n      dup3\n        /* \"hopium/standalone/main/price-oracle.sol\":12644:12656  usdPerWeth18 */\n      dup3\n        /* \"hopium/standalone/main/price-oracle.sol\":913:917  1e18 */\n      0x0de0b6b3a7640000\n        /* \"hopium/standalone/main/price-oracle.sol\":12626:12633  _mulDiv */\n      tag_67\n        /* \"hopium/standalone/main/price-oracle.sol\":12626:12662  _mulDiv(mcWeth18, usdPerWeth18, WAD) */\n      jump\t// in\n    tag_107:\n        /* \"hopium/standalone/main/price-oracle.sol\":12609:12662  marketCapUsd18 = _mulDiv(mcWeth18, usdPerWeth18, WAD) */\n      swap3\n      pop\n        /* \"hopium/standalone/main/price-oracle.sol\":12481:12669  {... */\n      pop\n      pop\n        /* \"hopium/standalone/main/price-oracle.sol\":12382:12669  function getTokenMarketCapUsd(address tokenAddress) external view returns (uint256 marketCapUsd18) {... */\n      swap2\n      swap1\n      pop\n      jump\t// out\n        /* \"hopium/standalone/main/price-oracle.sol\":9047:9581  function getTokenWethPrice(address tokenAddress) public view returns (uint256) {... */\n    tag_50:\n        /* \"hopium/standalone/main/price-oracle.sol\":9117:9124  uint256 */\n      0x00\n        /* \"hopium/standalone/main/price-oracle.sol\":9156:9168  WETH_ADDRESS */\n      immutable(\"0xeb09910a03c892999c305d4a86a46fa82693119d981eef22c8d043b31f9e8a31\")\n        /* \"hopium/standalone/main/price-oracle.sol\":9140:9168  tokenAddress == WETH_ADDRESS */\n      0xffffffffffffffffffffffffffffffffffffffff\n      and\n        /* \"hopium/standalone/main/price-oracle.sol\":9140:9152  tokenAddress */\n      dup3\n        /* \"hopium/standalone/main/price-oracle.sol\":9140:9168  tokenAddress == WETH_ADDRESS */\n      0xffffffffffffffffffffffffffffffffffffffff\n      and\n      sub\n        /* \"hopium/standalone/main/price-oracle.sol\":9136:9205  if (tokenAddress == WETH_ADDRESS) {... */\n      tag_109\n      jumpi\n        /* \"hopium/standalone/main/price-oracle.sol\":913:917  1e18 */\n      0x0de0b6b3a7640000\n        /* \"hopium/standalone/main/price-oracle.sol\":9184:9194  return WAD */\n      swap1\n      pop\n      jump(tag_108)\n        /* \"hopium/standalone/main/price-oracle.sol\":9136:9205  if (tokenAddress == WETH_ADDRESS) {... */\n    tag_109:\n        /* \"hopium/standalone/main/price-oracle.sol\":9214:9233  address pairAddress */\n      0x00\n        /* \"hopium/standalone/main/price-oracle.sol\":9236:9276  _getTokenToWethPairAddress(tokenAddress) */\n      tag_110\n        /* \"hopium/standalone/main/price-oracle.sol\":9263:9275  tokenAddress */\n      dup4\n        /* \"hopium/standalone/main/price-oracle.sol\":9236:9262  _getTokenToWethPairAddress */\n      tag_77\n        /* \"hopium/standalone/main/price-oracle.sol\":9236:9276  _getTokenToWethPairAddress(tokenAddress) */\n      jump\t// in\n    tag_110:\n        /* \"hopium/standalone/main/price-oracle.sol\":9214:9276  address pairAddress = _getTokenToWethPairAddress(tokenAddress) */\n      swap1\n      pop\n        /* \"hopium/standalone/main/price-oracle.sol\":9287:9306  uint256 reserveWeth */\n      0x00\n        /* \"hopium/standalone/main/price-oracle.sol\":9308:9318  uint8 decW */\n      0x00\n        /* \"hopium/standalone/main/price-oracle.sol\":9320:9340  uint256 reserveToken */\n      0x00\n        /* \"hopium/standalone/main/price-oracle.sol\":9342:9352  uint8 decT */\n      0x00\n        /* \"hopium/standalone/main/price-oracle.sol\":9369:9415  _getOrderedReserves(pairAddress, WETH_ADDRESS) */\n      tag_111\n        /* \"hopium/standalone/main/price-oracle.sol\":9389:9400  pairAddress */\n      dup6\n        /* \"hopium/standalone/main/price-oracle.sol\":9402:9414  WETH_ADDRESS */\n      immutable(\"0xeb09910a03c892999c305d4a86a46fa82693119d981eef22c8d043b31f9e8a31\")\n        /* \"hopium/standalone/main/price-oracle.sol\":9369:9388  _getOrderedReserves */\n      tag_79\n        /* \"hopium/standalone/main/price-oracle.sol\":9369:9415  _getOrderedReserves(pairAddress, WETH_ADDRESS) */\n      jump\t// in\n    tag_111:\n        /* \"hopium/standalone/main/price-oracle.sol\":9286:9415  (uint256 reserveWeth, uint8 decW, uint256 reserveToken, uint8 decT,) =... */\n      pop\n      swap4\n      pop\n      swap4\n      pop\n      swap4\n      pop\n      swap4\n      pop\n        /* \"hopium/standalone/main/price-oracle.sol\":9527:9574  _price18(reserveWeth, decW, reserveToken, decT) */\n      tag_112\n        /* \"hopium/standalone/main/price-oracle.sol\":9536:9547  reserveWeth */\n      dup5\n        /* \"hopium/standalone/main/price-oracle.sol\":9549:9553  decW */\n      dup5\n        /* \"hopium/standalone/main/price-oracle.sol\":9555:9567  reserveToken */\n      dup5\n        /* \"hopium/standalone/main/price-oracle.sol\":9569:9573  decT */\n      dup5\n        /* \"hopium/standalone/main/price-oracle.sol\":9527:9535  _price18 */\n      tag_103\n        /* \"hopium/standalone/main/price-oracle.sol\":9527:9574  _price18(reserveWeth, decW, reserveToken, decT) */\n      jump\t// in\n    tag_112:\n        /* \"hopium/standalone/main/price-oracle.sol\":9520:9574  return _price18(reserveWeth, decW, reserveToken, decT) */\n      swap6\n      pop\n      pop\n      pop\n      pop\n      pop\n      pop\n        /* \"hopium/standalone/main/price-oracle.sol\":9047:9581  function getTokenWethPrice(address tokenAddress) public view returns (uint256) {... */\n    tag_108:\n      swap2\n      swap1\n      pop\n      jump\t// out\n        /* \"hopium/standalone/main/price-oracle.sol\":12675:12826  function getTokenWethPairAddress(address tokenAddress) external view returns (address) {... */\n    tag_54:\n        /* \"hopium/standalone/main/price-oracle.sol\":12753:12760  address */\n      0x00\n        /* \"hopium/standalone/main/price-oracle.sol\":12779:12819  _getTokenToWethPairAddress(tokenAddress) */\n      tag_114\n        /* \"hopium/standalone/main/price-oracle.sol\":12806:12818  tokenAddress */\n      dup3\n        /* \"hopium/standalone/main/price-oracle.sol\":12779:12805  _getTokenToWethPairAddress */\n      tag_77\n        /* \"hopium/standalone/main/price-oracle.sol\":12779:12819  _getTokenToWethPairAddress(tokenAddress) */\n      jump\t// in\n    tag_114:\n        /* \"hopium/standalone/main/price-oracle.sol\":12772:12819  return _getTokenToWethPairAddress(tokenAddress) */\n      swap1\n      pop\n        /* \"hopium/standalone/main/price-oracle.sol\":12675:12826  function getTokenWethPairAddress(address tokenAddress) external view returns (address) {... */\n      swap2\n      swap1\n      pop\n      jump\t// out\n        /* \"hopium/standalone/main/price-oracle.sol\":763:814  address public immutable UNISWAP_V2_FACTORY_ADDRESS */\n    tag_57:\n      immutable(\"0xf928ede1c39c5595ff22fe845412ee05a93eeaa584f8ef0c46b5eeb14cb99ec8\")\n      dup2\n      jump\t// out\n        /* \"hopium/standalone/main/price-oracle.sol\":821:857  uint8 public immutable WETH_DECIMALS */\n    tag_60:\n      immutable(\"0xbbd48b257be1b8216d144ef9be5734f8d11697959c9e0f7768bec89db74a63a3\")\n      dup2\n      jump\t// out\n        /* \"hopium/standalone/main/price-oracle.sol\":5878:7891  function _mulDiv(... */\n    tag_67:\n        /* \"hopium/standalone/main/price-oracle.sol\":5991:6005  uint256 result */\n      0x00\n        /* \"hopium/standalone/main/price-oracle.sol\":6095:6108  uint256 prod0 */\n      0x00\n        /* \"hopium/standalone/main/price-oracle.sol\":6152:6165  uint256 prod1 */\n      0x00\n        /* \"hopium/standalone/main/price-oracle.sol\":6262:6263  0 */\n      0x00\n        /* \"hopium/standalone/main/price-oracle.sol\":6258:6264  not(0) */\n      not\n        /* \"hopium/standalone/main/price-oracle.sol\":6255:6256  b */\n      dup6\n        /* \"hopium/standalone/main/price-oracle.sol\":6252:6253  a */\n      dup8\n        /* \"hopium/standalone/main/price-oracle.sol\":6245:6265  mulmod(a, b, not(0)) */\n      mulmod\n        /* \"hopium/standalone/main/price-oracle.sol\":6298:6299  b */\n      dup6\n        /* \"hopium/standalone/main/price-oracle.sol\":6295:6296  a */\n      dup8\n        /* \"hopium/standalone/main/price-oracle.sol\":6291:6300  mul(a, b) */\n      mul\n        /* \"hopium/standalone/main/price-oracle.sol\":6282:6300  prod0 := mul(a, b) */\n      swap3\n      pop\n        /* \"hopium/standalone/main/price-oracle.sol\":6353:6358  prod0 */\n      dup3\n        /* \"hopium/standalone/main/price-oracle.sol\":6349:6351  mm */\n      dup2\n        /* \"hopium/standalone/main/price-oracle.sol\":6346:6359  lt(mm, prod0) */\n      lt\n        /* \"hopium/standalone/main/price-oracle.sol\":6338:6343  prod0 */\n      dup4\n        /* \"hopium/standalone/main/price-oracle.sol\":6334:6336  mm */\n      dup3\n        /* \"hopium/standalone/main/price-oracle.sol\":6330:6344  sub(mm, prod0) */\n      sub\n        /* \"hopium/standalone/main/price-oracle.sol\":6326:6360  sub(sub(mm, prod0), lt(mm, prod0)) */\n      sub\n        /* \"hopium/standalone/main/price-oracle.sol\":6317:6360  prod1 := sub(sub(mm, prod0), lt(mm, prod0)) */\n      swap2\n      pop\n        /* \"hopium/standalone/main/price-oracle.sol\":6217:6374  {... */\n      pop\n        /* \"hopium/standalone/main/price-oracle.sol\":6400:6401  0 */\n      0x00\n        /* \"hopium/standalone/main/price-oracle.sol\":6391:6396  prod1 */\n      dup2\n        /* \"hopium/standalone/main/price-oracle.sol\":6391:6401  prod1 == 0 */\n      sub\n        /* \"hopium/standalone/main/price-oracle.sol\":6387:6498  if (prod1 == 0) {... */\n      tag_116\n      jumpi\n        /* \"hopium/standalone/main/price-oracle.sol\":6472:6483  denominator */\n      dup4\n        /* \"hopium/standalone/main/price-oracle.sol\":6464:6469  prod0 */\n      dup3\n        /* \"hopium/standalone/main/price-oracle.sol\":6464:6483  prod0 / denominator */\n      dup2\n      tag_117\n      jumpi\n      tag_118\n      tag_119\n      jump\t// in\n    tag_118:\n    tag_117:\n      div\n        /* \"hopium/standalone/main/price-oracle.sol\":6457:6483  return prod0 / denominator */\n      swap3\n      pop\n      pop\n      pop\n      jump(tag_115)\n        /* \"hopium/standalone/main/price-oracle.sol\":6387:6498  if (prod1 == 0) {... */\n    tag_116:\n        /* \"hopium/standalone/main/price-oracle.sol\":6620:6625  prod1 */\n      dup1\n        /* \"hopium/standalone/main/price-oracle.sol\":6606:6617  denominator */\n      dup5\n        /* \"hopium/standalone/main/price-oracle.sol\":6606:6625  denominator > prod1 */\n      gt\n        /* \"hopium/standalone/main/price-oracle.sol\":6598:6645  require(denominator > prod1, \"mulDiv overflow\") */\n      tag_120\n      jumpi\n      mload(0x40)\n      0x08c379a000000000000000000000000000000000000000000000000000000000\n      dup2\n      mstore\n      0x04\n      add\n      tag_121\n      swap1\n      tag_122\n      jump\t// in\n    tag_121:\n      mload(0x40)\n      dup1\n      swap2\n      sub\n      swap1\n      revert\n    tag_120:\n        /* \"hopium/standalone/main/price-oracle.sol\":6722:6739  uint256 remainder */\n      0x00\n        /* \"hopium/standalone/main/price-oracle.sol\":6806:6817  denominator */\n      dup5\n        /* \"hopium/standalone/main/price-oracle.sol\":6803:6804  b */\n      dup7\n        /* \"hopium/standalone/main/price-oracle.sol\":6800:6801  a */\n      dup9\n        /* \"hopium/standalone/main/price-oracle.sol\":6793:6818  mulmod(a, b, denominator) */\n      mulmod\n        /* \"hopium/standalone/main/price-oracle.sol\":6780:6818  remainder := mulmod(a, b, denominator) */\n      swap1\n      pop\n        /* \"hopium/standalone/main/price-oracle.sol\":6869:6874  prod0 */\n      dup3\n        /* \"hopium/standalone/main/price-oracle.sol\":6858:6867  remainder */\n      dup2\n        /* \"hopium/standalone/main/price-oracle.sol\":6855:6875  gt(remainder, prod0) */\n      gt\n        /* \"hopium/standalone/main/price-oracle.sol\":6848:6853  prod1 */\n      dup3\n        /* \"hopium/standalone/main/price-oracle.sol\":6844:6876  sub(prod1, gt(remainder, prod0)) */\n      sub\n        /* \"hopium/standalone/main/price-oracle.sol\":6835:6876  prod1 := sub(prod1, gt(remainder, prod0)) */\n      swap2\n      pop\n        /* \"hopium/standalone/main/price-oracle.sol\":6913:6922  remainder */\n      dup1\n        /* \"hopium/standalone/main/price-oracle.sol\":6906:6911  prod0 */\n      dup4\n        /* \"hopium/standalone/main/price-oracle.sol\":6902:6923  sub(prod0, remainder) */\n      sub\n        /* \"hopium/standalone/main/price-oracle.sol\":6893:6923  prod0 := sub(prod0, remainder) */\n      swap3\n      pop\n        /* \"hopium/standalone/main/price-oracle.sol\":7006:7018  uint256 twos */\n      0x00\n        /* \"hopium/standalone/main/price-oracle.sol\":7051:7052  1 */\n      0x01\n        /* \"hopium/standalone/main/price-oracle.sol\":7037:7048  denominator */\n      dup7\n        /* \"hopium/standalone/main/price-oracle.sol\":7036:7048  ~denominator */\n      not\n        /* \"hopium/standalone/main/price-oracle.sol\":7036:7052  ~denominator + 1 */\n      add\n        /* \"hopium/standalone/main/price-oracle.sol\":7021:7032  denominator */\n      dup7\n        /* \"hopium/standalone/main/price-oracle.sol\":7021:7053  denominator & (~denominator + 1) */\n      and\n        /* \"hopium/standalone/main/price-oracle.sol\":7006:7053  uint256 twos = denominator & (~denominator + 1) */\n      swap1\n      pop\n        /* \"hopium/standalone/main/price-oracle.sol\":7126:7130  twos */\n      dup1\n        /* \"hopium/standalone/main/price-oracle.sol\":7113:7124  denominator */\n      dup7\n        /* \"hopium/standalone/main/price-oracle.sol\":7109:7131  div(denominator, twos) */\n      div\n        /* \"hopium/standalone/main/price-oracle.sol\":7094:7131  denominator := div(denominator, twos) */\n      swap6\n      pop\n        /* \"hopium/standalone/main/price-oracle.sol\":7168:7172  twos */\n      dup1\n        /* \"hopium/standalone/main/price-oracle.sol\":7161:7166  prod0 */\n      dup5\n        /* \"hopium/standalone/main/price-oracle.sol\":7157:7173  div(prod0, twos) */\n      div\n        /* \"hopium/standalone/main/price-oracle.sol\":7148:7173  prod0 := div(prod0, twos) */\n      swap4\n      pop\n        /* \"hopium/standalone/main/price-oracle.sol\":7227:7228  1 */\n      0x01\n        /* \"hopium/standalone/main/price-oracle.sol\":7220:7224  twos */\n      dup2\n        /* \"hopium/standalone/main/price-oracle.sol\":7213:7217  twos */\n      dup3\n        /* \"hopium/standalone/main/price-oracle.sol\":7210:7211  0 */\n      0x00\n        /* \"hopium/standalone/main/price-oracle.sol\":7206:7218  sub(0, twos) */\n      sub\n        /* \"hopium/standalone/main/price-oracle.sol\":7202:7225  div(sub(0, twos), twos) */\n      div\n        /* \"hopium/standalone/main/price-oracle.sol\":7198:7229  add(div(sub(0, twos), twos), 1) */\n      add\n        /* \"hopium/standalone/main/price-oracle.sol\":7190:7229  twos := add(div(sub(0, twos), twos), 1) */\n      swap1\n      pop\n        /* \"hopium/standalone/main/price-oracle.sol\":7335:7339  twos */\n      dup1\n        /* \"hopium/standalone/main/price-oracle.sol\":7327:7332  prod1 */\n      dup4\n        /* \"hopium/standalone/main/price-oracle.sol\":7327:7339  prod1 * twos */\n      mul\n        /* \"hopium/standalone/main/price-oracle.sol\":7318:7339  prod0 |= prod1 * twos */\n      dup5\n      or\n      swap4\n      pop\n        /* \"hopium/standalone/main/price-oracle.sol\":7398:7409  uint256 inv */\n      0x00\n        /* \"hopium/standalone/main/price-oracle.sol\":7432:7433  2 */\n      0x02\n        /* \"hopium/standalone/main/price-oracle.sol\":7417:7428  denominator */\n      dup8\n        /* \"hopium/standalone/main/price-oracle.sol\":7413:7414  3 */\n      0x03\n        /* \"hopium/standalone/main/price-oracle.sol\":7413:7428  3 * denominator */\n      mul\n        /* \"hopium/standalone/main/price-oracle.sol\":7412:7433  (3 * denominator) ^ 2 */\n      xor\n        /* \"hopium/standalone/main/price-oracle.sol\":7398:7433  uint256 inv = (3 * denominator) ^ 2 */\n      swap1\n      pop\n        /* \"hopium/standalone/main/price-oracle.sol\":7472:7475  inv */\n      dup1\n        /* \"hopium/standalone/main/price-oracle.sol\":7458:7469  denominator */\n      dup8\n        /* \"hopium/standalone/main/price-oracle.sol\":7458:7475  denominator * inv */\n      mul\n        /* \"hopium/standalone/main/price-oracle.sol\":7454:7455  2 */\n      0x02\n        /* \"hopium/standalone/main/price-oracle.sol\":7454:7475  2 - denominator * inv */\n      sub\n        /* \"hopium/standalone/main/price-oracle.sol\":7447:7475  inv *= 2 - denominator * inv */\n      dup2\n      mul\n      swap1\n      pop\n        /* \"hopium/standalone/main/price-oracle.sol\":7533:7536  inv */\n      dup1\n        /* \"hopium/standalone/main/price-oracle.sol\":7519:7530  denominator */\n      dup8\n        /* \"hopium/standalone/main/price-oracle.sol\":7519:7536  denominator * inv */\n      mul\n        /* \"hopium/standalone/main/price-oracle.sol\":7515:7516  2 */\n      0x02\n        /* \"hopium/standalone/main/price-oracle.sol\":7515:7536  2 - denominator * inv */\n      sub\n        /* \"hopium/standalone/main/price-oracle.sol\":7508:7536  inv *= 2 - denominator * inv */\n      dup2\n      mul\n      swap1\n      pop\n        /* \"hopium/standalone/main/price-oracle.sol\":7587:7590  inv */\n      dup1\n        /* \"hopium/standalone/main/price-oracle.sol\":7573:7584  denominator */\n      dup8\n        /* \"hopium/standalone/main/price-oracle.sol\":7573:7590  denominator * inv */\n      mul\n        /* \"hopium/standalone/main/price-oracle.sol\":7569:7570  2 */\n      0x02\n        /* \"hopium/standalone/main/price-oracle.sol\":7569:7590  2 - denominator * inv */\n      sub\n        /* \"hopium/standalone/main/price-oracle.sol\":7562:7590  inv *= 2 - denominator * inv */\n      dup2\n      mul\n      swap1\n      pop\n        /* \"hopium/standalone/main/price-oracle.sol\":7641:7644  inv */\n      dup1\n        /* \"hopium/standalone/main/price-oracle.sol\":7627:7638  denominator */\n      dup8\n        /* \"hopium/standalone/main/price-oracle.sol\":7627:7644  denominator * inv */\n      mul\n        /* \"hopium/standalone/main/price-oracle.sol\":7623:7624  2 */\n      0x02\n        /* \"hopium/standalone/main/price-oracle.sol\":7623:7644  2 - denominator * inv */\n      sub\n        /* \"hopium/standalone/main/price-oracle.sol\":7616:7644  inv *= 2 - denominator * inv */\n      dup2\n      mul\n      swap1\n      pop\n        /* \"hopium/standalone/main/price-oracle.sol\":7695:7698  inv */\n      dup1\n        /* \"hopium/standalone/main/price-oracle.sol\":7681:7692  denominator */\n      dup8\n        /* \"hopium/standalone/main/price-oracle.sol\":7681:7698  denominator * inv */\n      mul\n        /* \"hopium/standalone/main/price-oracle.sol\":7677:7678  2 */\n      0x02\n        /* \"hopium/standalone/main/price-oracle.sol\":7677:7698  2 - denominator * inv */\n      sub\n        /* \"hopium/standalone/main/price-oracle.sol\":7670:7698  inv *= 2 - denominator * inv */\n      dup2\n      mul\n      swap1\n      pop\n        /* \"hopium/standalone/main/price-oracle.sol\":7750:7753  inv */\n      dup1\n        /* \"hopium/standalone/main/price-oracle.sol\":7736:7747  denominator */\n      dup8\n        /* \"hopium/standalone/main/price-oracle.sol\":7736:7753  denominator * inv */\n      mul\n        /* \"hopium/standalone/main/price-oracle.sol\":7732:7733  2 */\n      0x02\n        /* \"hopium/standalone/main/price-oracle.sol\":7732:7753  2 - denominator * inv */\n      sub\n        /* \"hopium/standalone/main/price-oracle.sol\":7725:7753  inv *= 2 - denominator * inv */\n      dup2\n      mul\n      swap1\n      pop\n        /* \"hopium/standalone/main/price-oracle.sol\":7844:7847  inv */\n      dup1\n        /* \"hopium/standalone/main/price-oracle.sol\":7836:7841  prod0 */\n      dup6\n        /* \"hopium/standalone/main/price-oracle.sol\":7836:7847  prod0 * inv */\n      mul\n        /* \"hopium/standalone/main/price-oracle.sol\":7827:7847  result = prod0 * inv */\n      swap6\n      pop\n        /* \"hopium/standalone/main/price-oracle.sol\":7861:7874  return result */\n      pop\n      pop\n      pop\n      pop\n      pop\n        /* \"hopium/standalone/main/price-oracle.sol\":5878:7891  function _mulDiv(... */\n    tag_115:\n      swap4\n      swap3\n      pop\n      pop\n      pop\n      jump\t// out\n        /* \"hopium/standalone/main/price-oracle.sol\":5367:5718  function _scaleTo1e18(uint256 amount, uint8 decimals) internal pure returns (uint256 scaled) {... */\n    tag_75:\n        /* \"hopium/standalone/main/price-oracle.sol\":5444:5458  uint256 scaled */\n      0x00\n        /* \"hopium/standalone/main/price-oracle.sol\":5486:5488  18 */\n      0x12\n        /* \"hopium/standalone/main/price-oracle.sol\":5474:5482  decimals */\n      dup3\n        /* \"hopium/standalone/main/price-oracle.sol\":5474:5488  decimals == 18 */\n      0xff\n      and\n      sub\n        /* \"hopium/standalone/main/price-oracle.sol\":5470:5503  if (decimals == 18) return amount */\n      tag_124\n      jumpi\n        /* \"hopium/standalone/main/price-oracle.sol\":5497:5503  amount */\n      dup3\n        /* \"hopium/standalone/main/price-oracle.sol\":5490:5503  return amount */\n      swap1\n      pop\n      jump(tag_123)\n        /* \"hopium/standalone/main/price-oracle.sol\":5470:5503  if (decimals == 18) return amount */\n    tag_124:\n        /* \"hopium/standalone/main/price-oracle.sol\":5552:5554  18 */\n      0x12\n        /* \"hopium/standalone/main/price-oracle.sol\":5541:5549  decimals */\n      dup3\n        /* \"hopium/standalone/main/price-oracle.sol\":5541:5554  decimals < 18 */\n      0xff\n      and\n      lt\n        /* \"hopium/standalone/main/price-oracle.sol\":5537:5702  if (decimals < 18) {... */\n      iszero\n      tag_125\n      jumpi\n        /* \"hopium/standalone/main/price-oracle.sol\":5590:5611  _pow10(18 - decimals) */\n      tag_126\n        /* \"hopium/standalone/main/price-oracle.sol\":5602:5610  decimals */\n      dup3\n        /* \"hopium/standalone/main/price-oracle.sol\":5597:5599  18 */\n      0x12\n        /* \"hopium/standalone/main/price-oracle.sol\":5597:5610  18 - decimals */\n      sub\n        /* \"hopium/standalone/main/price-oracle.sol\":5590:5596  _pow10 */\n      tag_127\n        /* \"hopium/standalone/main/price-oracle.sol\":5590:5611  _pow10(18 - decimals) */\n      jump\t// in\n    tag_126:\n        /* \"hopium/standalone/main/price-oracle.sol\":5581:5587  amount */\n      dup4\n        /* \"hopium/standalone/main/price-oracle.sol\":5581:5611  amount * _pow10(18 - decimals) */\n      mul\n        /* \"hopium/standalone/main/price-oracle.sol\":5574:5611  return amount * _pow10(18 - decimals) */\n      swap1\n      pop\n      jump(tag_123)\n        /* \"hopium/standalone/main/price-oracle.sol\":5537:5702  if (decimals < 18) {... */\n    tag_125:\n        /* \"hopium/standalone/main/price-oracle.sol\":5666:5687  _pow10(decimals - 18) */\n      tag_129\n        /* \"hopium/standalone/main/price-oracle.sol\":5684:5686  18 */\n      0x12\n        /* \"hopium/standalone/main/price-oracle.sol\":5673:5681  decimals */\n      dup4\n        /* \"hopium/standalone/main/price-oracle.sol\":5673:5686  decimals - 18 */\n      sub\n        /* \"hopium/standalone/main/price-oracle.sol\":5666:5672  _pow10 */\n      tag_127\n        /* \"hopium/standalone/main/price-oracle.sol\":5666:5687  _pow10(decimals - 18) */\n      jump\t// in\n    tag_129:\n        /* \"hopium/standalone/main/price-oracle.sol\":5657:5663  amount */\n      dup4\n        /* \"hopium/standalone/main/price-oracle.sol\":5657:5687  amount / _pow10(decimals - 18) */\n      dup2\n      tag_130\n      jumpi\n      tag_131\n      tag_119\n      jump\t// in\n    tag_131:\n    tag_130:\n      div\n        /* \"hopium/standalone/main/price-oracle.sol\":5650:5687  return amount / _pow10(decimals - 18) */\n      swap1\n      pop\n        /* \"hopium/standalone/main/price-oracle.sol\":5367:5718  function _scaleTo1e18(uint256 amount, uint8 decimals) internal pure returns (uint256 scaled) {... */\n    tag_123:\n      swap3\n      swap2\n      pop\n      pop\n      jump\t// out\n        /* \"hopium/standalone/main/price-oracle.sol\":2973:3253  function _getTokenToWethPairAddress(address tokenAddress) internal view returns (address pairAddress) {... */\n    tag_77:\n        /* \"hopium/standalone/main/price-oracle.sol\":3054:3073  address pairAddress */\n      0x00\n        /* \"hopium/standalone/main/price-oracle.sol\":3117:3143  UNISWAP_V2_FACTORY_ADDRESS */\n      immutable(\"0xf928ede1c39c5595ff22fe845412ee05a93eeaa584f8ef0c46b5eeb14cb99ec8\")\n        /* \"hopium/standalone/main/price-oracle.sol\":3099:3152  IUniswapV2Factory(UNISWAP_V2_FACTORY_ADDRESS).getPair */\n      0xffffffffffffffffffffffffffffffffffffffff\n      and\n      0xe6a43905\n        /* \"hopium/standalone/main/price-oracle.sol\":3153:3165  tokenAddress */\n      dup4\n        /* \"hopium/standalone/main/price-oracle.sol\":3167:3179  WETH_ADDRESS */\n      immutable(\"0xeb09910a03c892999c305d4a86a46fa82693119d981eef22c8d043b31f9e8a31\")\n        /* \"hopium/standalone/main/price-oracle.sol\":3099:3180  IUniswapV2Factory(UNISWAP_V2_FACTORY_ADDRESS).getPair(tokenAddress, WETH_ADDRESS) */\n      mload(0x40)\n      dup4\n      0xffffffff\n      and\n      0xe0\n      shl\n      dup2\n      mstore\n      0x04\n      add\n      tag_133\n      swap3\n      swap2\n      swap1\n      tag_134\n      jump\t// in\n    tag_133:\n      0x20\n      mload(0x40)\n      dup1\n      dup4\n      sub\n      dup2\n      dup7\n      gas\n      staticcall\n      iszero\n      dup1\n      iszero\n      tag_136\n      jumpi\n      returndatacopy(0x00, 0x00, returndatasize)\n      revert(0x00, returndatasize)\n    tag_136:\n      pop\n      pop\n      pop\n      pop\n      mload(0x40)\n      returndatasize\n      not(0x1f)\n      0x1f\n      dup3\n      add\n      and\n      dup3\n      add\n      dup1\n      0x40\n      mstore\n      pop\n      dup2\n      add\n      swap1\n      tag_137\n      swap2\n      swap1\n      tag_138\n      jump\t// in\n    tag_137:\n        /* \"hopium/standalone/main/price-oracle.sol\":3085:3180  pairAddress = IUniswapV2Factory(UNISWAP_V2_FACTORY_ADDRESS).getPair(tokenAddress, WETH_ADDRESS) */\n      swap1\n      pop\n        /* \"hopium/standalone/main/price-oracle.sol\":3217:3218  0 */\n      0x00\n        /* \"hopium/standalone/main/price-oracle.sol\":3194:3219  pairAddress == address(0) */\n      0xffffffffffffffffffffffffffffffffffffffff\n      and\n        /* \"hopium/standalone/main/price-oracle.sol\":3194:3205  pairAddress */\n      dup2\n        /* \"hopium/standalone/main/price-oracle.sol\":3194:3219  pairAddress == address(0) */\n      0xffffffffffffffffffffffffffffffffffffffff\n      and\n      sub\n        /* \"hopium/standalone/main/price-oracle.sol\":3190:3246  if (pairAddress == address(0)) revert PairDoesNotExist() */\n      tag_139\n      jumpi\n        /* \"hopium/standalone/main/price-oracle.sol\":3228:3246  PairDoesNotExist() */\n      mload(0x40)\n      0xc5fc4bf400000000000000000000000000000000000000000000000000000000\n      dup2\n      mstore\n      0x04\n      add\n      mload(0x40)\n      dup1\n      swap2\n      sub\n      swap1\n      revert\n        /* \"hopium/standalone/main/price-oracle.sol\":3190:3246  if (pairAddress == address(0)) revert PairDoesNotExist() */\n    tag_139:\n        /* \"hopium/standalone/main/price-oracle.sol\":2973:3253  function _getTokenToWethPairAddress(address tokenAddress) internal view returns (address pairAddress) {... */\n      swap2\n      swap1\n      pop\n      jump\t// out\n        /* \"hopium/standalone/main/price-oracle.sol\":3445:4437  function _getOrderedReserves(address pairAddress, address baseToken)... */\n    tag_79:\n        /* \"hopium/standalone/main/price-oracle.sol\":3574:3593  uint256 reserveBase */\n      0x00\n        /* \"hopium/standalone/main/price-oracle.sol\":3607:3620  uint8 decBase */\n      0x00\n        /* \"hopium/standalone/main/price-oracle.sol\":3634:3654  uint256 reserveQuote */\n      0x00\n        /* \"hopium/standalone/main/price-oracle.sol\":3668:3682  uint8 decQuote */\n      0x00\n        /* \"hopium/standalone/main/price-oracle.sol\":3696:3714  address quoteToken */\n      0x00\n        /* \"hopium/standalone/main/price-oracle.sol\":3739:3758  IUniswapV2Pair pair */\n      0x00\n        /* \"hopium/standalone/main/price-oracle.sol\":3776:3787  pairAddress */\n      dup8\n        /* \"hopium/standalone/main/price-oracle.sol\":3739:3788  IUniswapV2Pair pair = IUniswapV2Pair(pairAddress) */\n      swap1\n      pop\n        /* \"hopium/standalone/main/price-oracle.sol\":3800:3810  uint112 r0 */\n      0x00\n        /* \"hopium/standalone/main/price-oracle.sol\":3812:3822  uint112 r1 */\n      0x00\n        /* \"hopium/standalone/main/price-oracle.sol\":3828:3832  pair */\n      dup3\n        /* \"hopium/standalone/main/price-oracle.sol\":3828:3844  pair.getReserves */\n      0xffffffffffffffffffffffffffffffffffffffff\n      and\n      0x0902f1ac\n        /* \"hopium/standalone/main/price-oracle.sol\":3828:3846  pair.getReserves() */\n      mload(0x40)\n      dup2\n      0xffffffff\n      and\n      0xe0\n      shl\n      dup2\n      mstore\n      0x04\n      add\n      0x60\n      mload(0x40)\n      dup1\n      dup4\n      sub\n      dup2\n      dup7\n      gas\n      staticcall\n      iszero\n      dup1\n      iszero\n      tag_142\n      jumpi\n      returndatacopy(0x00, 0x00, returndatasize)\n      revert(0x00, returndatasize)\n    tag_142:\n      pop\n      pop\n      pop\n      pop\n      mload(0x40)\n      returndatasize\n      not(0x1f)\n      0x1f\n      dup3\n      add\n      and\n      dup3\n      add\n      dup1\n      0x40\n      mstore\n      pop\n      dup2\n      add\n      swap1\n      tag_143\n      swap2\n      swap1\n      tag_144\n      jump\t// in\n    tag_143:\n        /* \"hopium/standalone/main/price-oracle.sol\":3799:3846  (uint112 r0, uint112 r1, ) = pair.getReserves() */\n      pop\n      swap2\n      pop\n      swap2\n      pop\n        /* \"hopium/standalone/main/price-oracle.sol\":3856:3866  address t0 */\n      0x00\n        /* \"hopium/standalone/main/price-oracle.sol\":3869:3873  pair */\n      dup4\n        /* \"hopium/standalone/main/price-oracle.sol\":3869:3880  pair.token0 */\n      0xffffffffffffffffffffffffffffffffffffffff\n      and\n      0x0dfe1681\n        /* \"hopium/standalone/main/price-oracle.sol\":3869:3882  pair.token0() */\n      mload(0x40)\n      dup2\n      0xffffffff\n      and\n      0xe0\n      shl\n      dup2\n      mstore\n      0x04\n      add\n      0x20\n      mload(0x40)\n      dup1\n      dup4\n      sub\n      dup2\n      dup7\n      gas\n      staticcall\n      iszero\n      dup1\n      iszero\n      tag_146\n      jumpi\n      returndatacopy(0x00, 0x00, returndatasize)\n      revert(0x00, returndatasize)\n    tag_146:\n      pop\n      pop\n      pop\n      pop\n      mload(0x40)\n      returndatasize\n      not(0x1f)\n      0x1f\n      dup3\n      add\n      and\n      dup3\n      add\n      dup1\n      0x40\n      mstore\n      pop\n      dup2\n      add\n      swap1\n      tag_147\n      swap2\n      swap1\n      tag_138\n      jump\t// in\n    tag_147:\n        /* \"hopium/standalone/main/price-oracle.sol\":3856:3882  address t0 = pair.token0() */\n      swap1\n      pop\n        /* \"hopium/standalone/main/price-oracle.sol\":3892:3902  address t1 */\n      0x00\n        /* \"hopium/standalone/main/price-oracle.sol\":3905:3909  pair */\n      dup5\n        /* \"hopium/standalone/main/price-oracle.sol\":3905:3916  pair.token1 */\n      0xffffffffffffffffffffffffffffffffffffffff\n      and\n      0xd21220a7\n        /* \"hopium/standalone/main/price-oracle.sol\":3905:3918  pair.token1() */\n      mload(0x40)\n      dup2\n      0xffffffff\n      and\n      0xe0\n      shl\n      dup2\n      mstore\n      0x04\n      add\n      0x20\n      mload(0x40)\n      dup1\n      dup4\n      sub\n      dup2\n      dup7\n      gas\n      staticcall\n      iszero\n      dup1\n      iszero\n      tag_149\n      jumpi\n      returndatacopy(0x00, 0x00, returndatasize)\n      revert(0x00, returndatasize)\n    tag_149:\n      pop\n      pop\n      pop\n      pop\n      mload(0x40)\n      returndatasize\n      not(0x1f)\n      0x1f\n      dup3\n      add\n      and\n      dup3\n      add\n      dup1\n      0x40\n      mstore\n      pop\n      dup2\n      add\n      swap1\n      tag_150\n      swap2\n      swap1\n      tag_138\n      jump\t// in\n    tag_150:\n        /* \"hopium/standalone/main/price-oracle.sol\":3892:3918  address t1 = pair.token1() */\n      swap1\n      pop\n        /* \"hopium/standalone/main/price-oracle.sol\":3929:3946  bool baseIsToken0 */\n      0x00\n        /* \"hopium/standalone/main/price-oracle.sol\":3966:3975  baseToken */\n      dup12\n        /* \"hopium/standalone/main/price-oracle.sol\":3960:3975  t0 == baseToken */\n      0xffffffffffffffffffffffffffffffffffffffff\n      and\n        /* \"hopium/standalone/main/price-oracle.sol\":3960:3962  t0 */\n      dup4\n        /* \"hopium/standalone/main/price-oracle.sol\":3960:3975  t0 == baseToken */\n      0xffffffffffffffffffffffffffffffffffffffff\n      and\n      sub\n        /* \"hopium/standalone/main/price-oracle.sol\":3956:4155  if (t0 == baseToken) {... */\n      tag_151\n      jumpi\n        /* \"hopium/standalone/main/price-oracle.sol\":4006:4010  true */\n      0x01\n        /* \"hopium/standalone/main/price-oracle.sol\":3991:4010  baseIsToken0 = true */\n      swap1\n      pop\n        /* \"hopium/standalone/main/price-oracle.sol\":3956:4155  if (t0 == baseToken) {... */\n      jump(tag_152)\n    tag_151:\n        /* \"hopium/standalone/main/price-oracle.sol\":4037:4046  baseToken */\n      dup12\n        /* \"hopium/standalone/main/price-oracle.sol\":4031:4046  t1 == baseToken */\n      0xffffffffffffffffffffffffffffffffffffffff\n      and\n        /* \"hopium/standalone/main/price-oracle.sol\":4031:4033  t1 */\n      dup3\n        /* \"hopium/standalone/main/price-oracle.sol\":4031:4046  t1 == baseToken */\n      0xffffffffffffffffffffffffffffffffffffffff\n      and\n      sub\n        /* \"hopium/standalone/main/price-oracle.sol\":4027:4155  if (t1 == baseToken) {... */\n      tag_153\n      jumpi\n        /* \"hopium/standalone/main/price-oracle.sol\":4077:4082  false */\n      0x00\n        /* \"hopium/standalone/main/price-oracle.sol\":4062:4082  baseIsToken0 = false */\n      swap1\n      pop\n        /* \"hopium/standalone/main/price-oracle.sol\":4027:4155  if (t1 == baseToken) {... */\n      jump(tag_154)\n    tag_153:\n        /* \"hopium/standalone/main/price-oracle.sol\":4120:4144  PairDoesNotContainBase() */\n      mload(0x40)\n      0x17b2f78000000000000000000000000000000000000000000000000000000000\n      dup2\n      mstore\n      0x04\n      add\n      mload(0x40)\n      dup1\n      swap2\n      sub\n      swap1\n      revert\n        /* \"hopium/standalone/main/price-oracle.sol\":4027:4155  if (t1 == baseToken) {... */\n    tag_154:\n        /* \"hopium/standalone/main/price-oracle.sol\":3956:4155  if (t0 == baseToken) {... */\n    tag_152:\n        /* \"hopium/standalone/main/price-oracle.sol\":4188:4200  baseIsToken0 */\n      dup1\n        /* \"hopium/standalone/main/price-oracle.sol\":4188:4210  baseIsToken0 ? r0 : r1 */\n      tag_155\n      jumpi\n        /* \"hopium/standalone/main/price-oracle.sol\":4208:4210  r1 */\n      dup4\n        /* \"hopium/standalone/main/price-oracle.sol\":4188:4210  baseIsToken0 ? r0 : r1 */\n      jump(tag_156)\n    tag_155:\n        /* \"hopium/standalone/main/price-oracle.sol\":4203:4205  r0 */\n      dup5\n        /* \"hopium/standalone/main/price-oracle.sol\":4188:4210  baseIsToken0 ? r0 : r1 */\n    tag_156:\n        /* \"hopium/standalone/main/price-oracle.sol\":4180:4211  uint256(baseIsToken0 ? r0 : r1) */\n      0xffffffffffffffffffffffffffff\n      and\n        /* \"hopium/standalone/main/price-oracle.sol\":4165:4211  reserveBase  = uint256(baseIsToken0 ? r0 : r1) */\n      swap11\n      pop\n        /* \"hopium/standalone/main/price-oracle.sol\":4244:4256  baseIsToken0 */\n      dup1\n        /* \"hopium/standalone/main/price-oracle.sol\":4244:4266  baseIsToken0 ? r1 : r0 */\n      tag_157\n      jumpi\n        /* \"hopium/standalone/main/price-oracle.sol\":4264:4266  r0 */\n      dup5\n        /* \"hopium/standalone/main/price-oracle.sol\":4244:4266  baseIsToken0 ? r1 : r0 */\n      jump(tag_158)\n    tag_157:\n        /* \"hopium/standalone/main/price-oracle.sol\":4259:4261  r1 */\n      dup4\n        /* \"hopium/standalone/main/price-oracle.sol\":4244:4266  baseIsToken0 ? r1 : r0 */\n    tag_158:\n        /* \"hopium/standalone/main/price-oracle.sol\":4236:4267  uint256(baseIsToken0 ? r1 : r0) */\n      0xffffffffffffffffffffffffffff\n      and\n        /* \"hopium/standalone/main/price-oracle.sol\":4221:4267  reserveQuote = uint256(baseIsToken0 ? r1 : r0) */\n      swap9\n      pop\n        /* \"hopium/standalone/main/price-oracle.sol\":4292:4304  baseIsToken0 */\n      dup1\n        /* \"hopium/standalone/main/price-oracle.sol\":4292:4314  baseIsToken0 ? t1 : t0 */\n      tag_159\n      jumpi\n        /* \"hopium/standalone/main/price-oracle.sol\":4312:4314  t0 */\n      dup3\n        /* \"hopium/standalone/main/price-oracle.sol\":4292:4314  baseIsToken0 ? t1 : t0 */\n      jump(tag_160)\n    tag_159:\n        /* \"hopium/standalone/main/price-oracle.sol\":4307:4309  t1 */\n      dup2\n        /* \"hopium/standalone/main/price-oracle.sol\":4292:4314  baseIsToken0 ? t1 : t0 */\n    tag_160:\n        /* \"hopium/standalone/main/price-oracle.sol\":4277:4314  quoteToken   = baseIsToken0 ? t1 : t0 */\n      swap7\n      pop\n        /* \"hopium/standalone/main/price-oracle.sol\":4351:4360  baseToken */\n      dup12\n        /* \"hopium/standalone/main/price-oracle.sol\":4336:4370  IERC20Metadata(baseToken).decimals */\n      0xffffffffffffffffffffffffffffffffffffffff\n      and\n      0x313ce567\n        /* \"hopium/standalone/main/price-oracle.sol\":4336:4372  IERC20Metadata(baseToken).decimals() */\n      mload(0x40)\n      dup2\n      0xffffffff\n      and\n      0xe0\n      shl\n      dup2\n      mstore\n      0x04\n      add\n      0x20\n      mload(0x40)\n      dup1\n      dup4\n      sub\n      dup2\n      dup7\n      gas\n      staticcall\n      iszero\n      dup1\n      iszero\n      tag_162\n      jumpi\n      returndatacopy(0x00, 0x00, returndatasize)\n      revert(0x00, returndatasize)\n    tag_162:\n      pop\n      pop\n      pop\n      pop\n      mload(0x40)\n      returndatasize\n      not(0x1f)\n      0x1f\n      dup3\n      add\n      and\n      dup3\n      add\n      dup1\n      0x40\n      mstore\n      pop\n      dup2\n      add\n      swap1\n      tag_163\n      swap2\n      swap1\n      tag_95\n      jump\t// in\n    tag_163:\n        /* \"hopium/standalone/main/price-oracle.sol\":4325:4372  decBase  = IERC20Metadata(baseToken).decimals() */\n      swap10\n      pop\n        /* \"hopium/standalone/main/price-oracle.sol\":4408:4418  quoteToken */\n      dup7\n        /* \"hopium/standalone/main/price-oracle.sol\":4393:4428  IERC20Metadata(quoteToken).decimals */\n      0xffffffffffffffffffffffffffffffffffffffff\n      and\n      0x313ce567\n        /* \"hopium/standalone/main/price-oracle.sol\":4393:4430  IERC20Metadata(quoteToken).decimals() */\n      mload(0x40)\n      dup2\n      0xffffffff\n      and\n      0xe0\n      shl\n      dup2\n      mstore\n      0x04\n      add\n      0x20\n      mload(0x40)\n      dup1\n      dup4\n      sub\n      dup2\n      dup7\n      gas\n      staticcall\n      iszero\n      dup1\n      iszero\n      tag_165\n      jumpi\n      returndatacopy(0x00, 0x00, returndatasize)\n      revert(0x00, returndatasize)\n    tag_165:\n      pop\n      pop\n      pop\n      pop\n      mload(0x40)\n      returndatasize\n      not(0x1f)\n      0x1f\n      dup3\n      add\n      and\n      dup3\n      add\n      dup1\n      0x40\n      mstore\n      pop\n      dup2\n      add\n      swap1\n      tag_166\n      swap2\n      swap1\n      tag_95\n      jump\t// in\n    tag_166:\n        /* \"hopium/standalone/main/price-oracle.sol\":4382:4430  decQuote = IERC20Metadata(quoteToken).decimals() */\n      swap8\n      pop\n        /* \"hopium/standalone/main/price-oracle.sol\":3729:4437  {... */\n      pop\n      pop\n      pop\n      pop\n      pop\n      pop\n        /* \"hopium/standalone/main/price-oracle.sol\":3445:4437  function _getOrderedReserves(address pairAddress, address baseToken)... */\n      swap3\n      swap6\n      pop\n      swap3\n      swap6\n      swap1\n      swap4\n      pop\n      jump\t// out\n        /* \"hopium/standalone/main/price-oracle.sol\":4546:5313  function _price18(... */\n    tag_103:\n        /* \"hopium/standalone/main/price-oracle.sol\":4685:4692  uint256 */\n      0x00\n        /* \"hopium/standalone/main/price-oracle.sol\":4754:4767  uint256 scale */\n      0x00\n        /* \"hopium/standalone/main/price-oracle.sol\":4813:4817  decA */\n      dup5\n        /* \"hopium/standalone/main/price-oracle.sol\":4805:4817  decB >= decA */\n      0xff\n      and\n        /* \"hopium/standalone/main/price-oracle.sol\":4805:4809  decB */\n      dup4\n        /* \"hopium/standalone/main/price-oracle.sol\":4805:4817  decB >= decA */\n      0xff\n      and\n      lt\n        /* \"hopium/standalone/main/price-oracle.sol\":4801:5246  if (decB >= decA) {... */\n      tag_168\n      jumpi\n        /* \"hopium/standalone/main/price-oracle.sol\":4851:4870  _pow10(decB - decA) */\n      tag_169\n        /* \"hopium/standalone/main/price-oracle.sol\":4865:4869  decA */\n      dup6\n        /* \"hopium/standalone/main/price-oracle.sol\":4858:4862  decB */\n      dup5\n        /* \"hopium/standalone/main/price-oracle.sol\":4858:4869  decB - decA */\n      sub\n        /* \"hopium/standalone/main/price-oracle.sol\":4851:4857  _pow10 */\n      tag_127\n        /* \"hopium/standalone/main/price-oracle.sol\":4851:4870  _pow10(decB - decA) */\n      jump\t// in\n    tag_169:\n        /* \"hopium/standalone/main/price-oracle.sol\":913:917  1e18 */\n      0x0de0b6b3a7640000\n        /* \"hopium/standalone/main/price-oracle.sol\":4845:4870  WAD * _pow10(decB - decA) */\n      mul\n        /* \"hopium/standalone/main/price-oracle.sol\":4837:4870  scale = WAD * _pow10(decB - decA) */\n      swap1\n      pop\n        /* \"hopium/standalone/main/price-oracle.sol\":4801:5246  if (decB >= decA) {... */\n      jump(tag_170)\n    tag_168:\n        /* \"hopium/standalone/main/price-oracle.sol\":5131:5144  uint256 denom */\n      0x00\n        /* \"hopium/standalone/main/price-oracle.sol\":5158:5177  _pow10(decA - decB) */\n      tag_171\n        /* \"hopium/standalone/main/price-oracle.sol\":5172:5176  decB */\n      dup5\n        /* \"hopium/standalone/main/price-oracle.sol\":5165:5169  decA */\n      dup8\n        /* \"hopium/standalone/main/price-oracle.sol\":5165:5176  decA - decB */\n      sub\n        /* \"hopium/standalone/main/price-oracle.sol\":5158:5164  _pow10 */\n      tag_127\n        /* \"hopium/standalone/main/price-oracle.sol\":5158:5177  _pow10(decA - decB) */\n      jump\t// in\n    tag_171:\n        /* \"hopium/standalone/main/price-oracle.sol\":5147:5155  reserveB */\n      dup6\n        /* \"hopium/standalone/main/price-oracle.sol\":5147:5177  reserveB * _pow10(decA - decB) */\n      mul\n        /* \"hopium/standalone/main/price-oracle.sol\":5131:5177  uint256 denom = reserveB * _pow10(decA - decB) */\n      swap1\n      pop\n        /* \"hopium/standalone/main/price-oracle.sol\":5202:5231  _mulDiv(reserveA, WAD, denom) */\n      tag_172\n        /* \"hopium/standalone/main/price-oracle.sol\":5210:5218  reserveA */\n      dup8\n        /* \"hopium/standalone/main/price-oracle.sol\":913:917  1e18 */\n      0x0de0b6b3a7640000\n        /* \"hopium/standalone/main/price-oracle.sol\":5225:5230  denom */\n      dup4\n        /* \"hopium/standalone/main/price-oracle.sol\":5202:5209  _mulDiv */\n      tag_67\n        /* \"hopium/standalone/main/price-oracle.sol\":5202:5231  _mulDiv(reserveA, WAD, denom) */\n      jump\t// in\n    tag_172:\n        /* \"hopium/standalone/main/price-oracle.sol\":5195:5231  return _mulDiv(reserveA, WAD, denom) */\n      swap3\n      pop\n      pop\n      pop\n      jump(tag_167)\n        /* \"hopium/standalone/main/price-oracle.sol\":4801:5246  if (decB >= decA) {... */\n    tag_170:\n        /* \"hopium/standalone/main/price-oracle.sol\":5272:5306  _mulDiv(reserveA, scale, reserveB) */\n      tag_173\n        /* \"hopium/standalone/main/price-oracle.sol\":5280:5288  reserveA */\n      dup7\n        /* \"hopium/standalone/main/price-oracle.sol\":5290:5295  scale */\n      dup3\n        /* \"hopium/standalone/main/price-oracle.sol\":5297:5305  reserveB */\n      dup7\n        /* \"hopium/standalone/main/price-oracle.sol\":5272:5279  _mulDiv */\n      tag_67\n        /* \"hopium/standalone/main/price-oracle.sol\":5272:5306  _mulDiv(reserveA, scale, reserveB) */\n      jump\t// in\n    tag_173:\n        /* \"hopium/standalone/main/price-oracle.sol\":5265:5306  return _mulDiv(reserveA, scale, reserveB) */\n      swap2\n      pop\n      pop\n        /* \"hopium/standalone/main/price-oracle.sol\":4546:5313  function _price18(... */\n    tag_167:\n      swap5\n      swap4\n      pop\n      pop\n      pop\n      pop\n      jump\t// out\n        /* \"hopium/standalone/main/price-oracle.sol\":2108:2890  function _pow10(uint8 n) internal pure returns (uint256) {... */\n    tag_127:\n        /* \"hopium/standalone/main/price-oracle.sol\":2156:2163  uint256 */\n      0x00\n        /* \"hopium/standalone/main/price-oracle.sol\":2184:2185  0 */\n      0x00\n        /* \"hopium/standalone/main/price-oracle.sol\":2179:2180  n */\n      dup3\n        /* \"hopium/standalone/main/price-oracle.sol\":2179:2185  n == 0 */\n      0xff\n      and\n      sub\n        /* \"hopium/standalone/main/price-oracle.sol\":2175:2202  if (n == 0)  return POW10_0 */\n      tag_175\n      jumpi\n        /* \"hopium/standalone/main/price-oracle.sol\":1046:1047  1 */\n      0x01\n        /* \"hopium/standalone/main/price-oracle.sol\":2188:2202  return POW10_0 */\n      swap1\n      pop\n      jump(tag_174)\n        /* \"hopium/standalone/main/price-oracle.sol\":2175:2202  if (n == 0)  return POW10_0 */\n    tag_175:\n        /* \"hopium/standalone/main/price-oracle.sol\":2221:2222  1 */\n      0x01\n        /* \"hopium/standalone/main/price-oracle.sol\":2216:2217  n */\n      dup3\n        /* \"hopium/standalone/main/price-oracle.sol\":2216:2222  n == 1 */\n      0xff\n      and\n      sub\n        /* \"hopium/standalone/main/price-oracle.sol\":2212:2239  if (n == 1)  return POW10_1 */\n      tag_176\n      jumpi\n        /* \"hopium/standalone/main/price-oracle.sol\":1089:1091  10 */\n      0x0a\n        /* \"hopium/standalone/main/price-oracle.sol\":2225:2239  return POW10_1 */\n      swap1\n      pop\n      jump(tag_174)\n        /* \"hopium/standalone/main/price-oracle.sol\":2212:2239  if (n == 1)  return POW10_1 */\n    tag_176:\n        /* \"hopium/standalone/main/price-oracle.sol\":2258:2259  2 */\n      0x02\n        /* \"hopium/standalone/main/price-oracle.sol\":2253:2254  n */\n      dup3\n        /* \"hopium/standalone/main/price-oracle.sol\":2253:2259  n == 2 */\n      0xff\n      and\n      sub\n        /* \"hopium/standalone/main/price-oracle.sol\":2249:2276  if (n == 2)  return POW10_2 */\n      tag_177\n      jumpi\n        /* \"hopium/standalone/main/price-oracle.sol\":1133:1136  100 */\n      0x64\n        /* \"hopium/standalone/main/price-oracle.sol\":2262:2276  return POW10_2 */\n      swap1\n      pop\n      jump(tag_174)\n        /* \"hopium/standalone/main/price-oracle.sol\":2249:2276  if (n == 2)  return POW10_2 */\n    tag_177:\n        /* \"hopium/standalone/main/price-oracle.sol\":2295:2296  3 */\n      0x03\n        /* \"hopium/standalone/main/price-oracle.sol\":2290:2291  n */\n      dup3\n        /* \"hopium/standalone/main/price-oracle.sol\":2290:2296  n == 3 */\n      0xff\n      and\n      sub\n        /* \"hopium/standalone/main/price-oracle.sol\":2286:2313  if (n == 3)  return POW10_3 */\n      tag_178\n      jumpi\n        /* \"hopium/standalone/main/price-oracle.sol\":1178:1183  1_000 */\n      0x03e8\n        /* \"hopium/standalone/main/price-oracle.sol\":2299:2313  return POW10_3 */\n      swap1\n      pop\n      jump(tag_174)\n        /* \"hopium/standalone/main/price-oracle.sol\":2286:2313  if (n == 3)  return POW10_3 */\n    tag_178:\n        /* \"hopium/standalone/main/price-oracle.sol\":2332:2333  4 */\n      0x04\n        /* \"hopium/standalone/main/price-oracle.sol\":2327:2328  n */\n      dup3\n        /* \"hopium/standalone/main/price-oracle.sol\":2327:2333  n == 4 */\n      0xff\n      and\n      sub\n        /* \"hopium/standalone/main/price-oracle.sol\":2323:2350  if (n == 4)  return POW10_4 */\n      tag_179\n      jumpi\n        /* \"hopium/standalone/main/price-oracle.sol\":1225:1231  10_000 */\n      0x2710\n        /* \"hopium/standalone/main/price-oracle.sol\":2336:2350  return POW10_4 */\n      swap1\n      pop\n      jump(tag_174)\n        /* \"hopium/standalone/main/price-oracle.sol\":2323:2350  if (n == 4)  return POW10_4 */\n    tag_179:\n        /* \"hopium/standalone/main/price-oracle.sol\":2369:2370  5 */\n      0x05\n        /* \"hopium/standalone/main/price-oracle.sol\":2364:2365  n */\n      dup3\n        /* \"hopium/standalone/main/price-oracle.sol\":2364:2370  n == 5 */\n      0xff\n      and\n      sub\n        /* \"hopium/standalone/main/price-oracle.sol\":2360:2387  if (n == 5)  return POW10_5 */\n      tag_180\n      jumpi\n        /* \"hopium/standalone/main/price-oracle.sol\":1273:1280  100_000 */\n      0x0186a0\n        /* \"hopium/standalone/main/price-oracle.sol\":2373:2387  return POW10_5 */\n      swap1\n      pop\n      jump(tag_174)\n        /* \"hopium/standalone/main/price-oracle.sol\":2360:2387  if (n == 5)  return POW10_5 */\n    tag_180:\n        /* \"hopium/standalone/main/price-oracle.sol\":2406:2407  6 */\n      0x06\n        /* \"hopium/standalone/main/price-oracle.sol\":2401:2402  n */\n      dup3\n        /* \"hopium/standalone/main/price-oracle.sol\":2401:2407  n == 6 */\n      0xff\n      and\n      sub\n        /* \"hopium/standalone/main/price-oracle.sol\":2397:2424  if (n == 6)  return POW10_6 */\n      tag_181\n      jumpi\n        /* \"hopium/standalone/main/price-oracle.sol\":1322:1331  1_000_000 */\n      0x0f4240\n        /* \"hopium/standalone/main/price-oracle.sol\":2410:2424  return POW10_6 */\n      swap1\n      pop\n      jump(tag_174)\n        /* \"hopium/standalone/main/price-oracle.sol\":2397:2424  if (n == 6)  return POW10_6 */\n    tag_181:\n        /* \"hopium/standalone/main/price-oracle.sol\":2443:2444  7 */\n      0x07\n        /* \"hopium/standalone/main/price-oracle.sol\":2438:2439  n */\n      dup3\n        /* \"hopium/standalone/main/price-oracle.sol\":2438:2444  n == 7 */\n      0xff\n      and\n      sub\n        /* \"hopium/standalone/main/price-oracle.sol\":2434:2461  if (n == 7)  return POW10_7 */\n      tag_182\n      jumpi\n        /* \"hopium/standalone/main/price-oracle.sol\":1373:1383  10_000_000 */\n      0x989680\n        /* \"hopium/standalone/main/price-oracle.sol\":2447:2461  return POW10_7 */\n      swap1\n      pop\n      jump(tag_174)\n        /* \"hopium/standalone/main/price-oracle.sol\":2434:2461  if (n == 7)  return POW10_7 */\n    tag_182:\n        /* \"hopium/standalone/main/price-oracle.sol\":2480:2481  8 */\n      0x08\n        /* \"hopium/standalone/main/price-oracle.sol\":2475:2476  n */\n      dup3\n        /* \"hopium/standalone/main/price-oracle.sol\":2475:2481  n == 8 */\n      0xff\n      and\n      sub\n        /* \"hopium/standalone/main/price-oracle.sol\":2471:2498  if (n == 8)  return POW10_8 */\n      tag_183\n      jumpi\n        /* \"hopium/standalone/main/price-oracle.sol\":1425:1436  100_000_000 */\n      0x05f5e100\n        /* \"hopium/standalone/main/price-oracle.sol\":2484:2498  return POW10_8 */\n      swap1\n      pop\n      jump(tag_174)\n        /* \"hopium/standalone/main/price-oracle.sol\":2471:2498  if (n == 8)  return POW10_8 */\n    tag_183:\n        /* \"hopium/standalone/main/price-oracle.sol\":2517:2518  9 */\n      0x09\n        /* \"hopium/standalone/main/price-oracle.sol\":2512:2513  n */\n      dup3\n        /* \"hopium/standalone/main/price-oracle.sol\":2512:2518  n == 9 */\n      0xff\n      and\n      sub\n        /* \"hopium/standalone/main/price-oracle.sol\":2508:2535  if (n == 9)  return POW10_9 */\n      tag_184\n      jumpi\n        /* \"hopium/standalone/main/price-oracle.sol\":1478:1491  1_000_000_000 */\n      0x3b9aca00\n        /* \"hopium/standalone/main/price-oracle.sol\":2521:2535  return POW10_9 */\n      swap1\n      pop\n      jump(tag_174)\n        /* \"hopium/standalone/main/price-oracle.sol\":2508:2535  if (n == 9)  return POW10_9 */\n    tag_184:\n        /* \"hopium/standalone/main/price-oracle.sol\":2554:2556  10 */\n      0x0a\n        /* \"hopium/standalone/main/price-oracle.sol\":2549:2550  n */\n      dup3\n        /* \"hopium/standalone/main/price-oracle.sol\":2549:2556  n == 10 */\n      0xff\n      and\n      sub\n        /* \"hopium/standalone/main/price-oracle.sol\":2545:2573  if (n == 10) return POW10_10 */\n      tag_185\n      jumpi\n        /* \"hopium/standalone/main/price-oracle.sol\":1533:1547  10_000_000_000 */\n      0x02540be400\n        /* \"hopium/standalone/main/price-oracle.sol\":2558:2573  return POW10_10 */\n      swap1\n      pop\n      jump(tag_174)\n        /* \"hopium/standalone/main/price-oracle.sol\":2545:2573  if (n == 10) return POW10_10 */\n    tag_185:\n        /* \"hopium/standalone/main/price-oracle.sol\":2592:2594  11 */\n      0x0b\n        /* \"hopium/standalone/main/price-oracle.sol\":2587:2588  n */\n      dup3\n        /* \"hopium/standalone/main/price-oracle.sol\":2587:2594  n == 11 */\n      0xff\n      and\n      sub\n        /* \"hopium/standalone/main/price-oracle.sol\":2583:2611  if (n == 11) return POW10_11 */\n      tag_186\n      jumpi\n        /* \"hopium/standalone/main/price-oracle.sol\":1589:1604  100_000_000_000 */\n      0x174876e800\n        /* \"hopium/standalone/main/price-oracle.sol\":2596:2611  return POW10_11 */\n      swap1\n      pop\n      jump(tag_174)\n        /* \"hopium/standalone/main/price-oracle.sol\":2583:2611  if (n == 11) return POW10_11 */\n    tag_186:\n        /* \"hopium/standalone/main/price-oracle.sol\":2630:2632  12 */\n      0x0c\n        /* \"hopium/standalone/main/price-oracle.sol\":2625:2626  n */\n      dup3\n        /* \"hopium/standalone/main/price-oracle.sol\":2625:2632  n == 12 */\n      0xff\n      and\n      sub\n        /* \"hopium/standalone/main/price-oracle.sol\":2621:2649  if (n == 12) return POW10_12 */\n      tag_187\n      jumpi\n        /* \"hopium/standalone/main/price-oracle.sol\":1646:1663  1_000_000_000_000 */\n      0xe8d4a51000\n        /* \"hopium/standalone/main/price-oracle.sol\":2634:2649  return POW10_12 */\n      swap1\n      pop\n      jump(tag_174)\n        /* \"hopium/standalone/main/price-oracle.sol\":2621:2649  if (n == 12) return POW10_12 */\n    tag_187:\n        /* \"hopium/standalone/main/price-oracle.sol\":2668:2670  13 */\n      0x0d\n        /* \"hopium/standalone/main/price-oracle.sol\":2663:2664  n */\n      dup3\n        /* \"hopium/standalone/main/price-oracle.sol\":2663:2670  n == 13 */\n      0xff\n      and\n      sub\n        /* \"hopium/standalone/main/price-oracle.sol\":2659:2687  if (n == 13) return POW10_13 */\n      tag_188\n      jumpi\n        /* \"hopium/standalone/main/price-oracle.sol\":1705:1723  10_000_000_000_000 */\n      0x09184e72a000\n        /* \"hopium/standalone/main/price-oracle.sol\":2672:2687  return POW10_13 */\n      swap1\n      pop\n      jump(tag_174)\n        /* \"hopium/standalone/main/price-oracle.sol\":2659:2687  if (n == 13) return POW10_13 */\n    tag_188:\n        /* \"hopium/standalone/main/price-oracle.sol\":2706:2708  14 */\n      0x0e\n        /* \"hopium/standalone/main/price-oracle.sol\":2701:2702  n */\n      dup3\n        /* \"hopium/standalone/main/price-oracle.sol\":2701:2708  n == 14 */\n      0xff\n      and\n      sub\n        /* \"hopium/standalone/main/price-oracle.sol\":2697:2725  if (n == 14) return POW10_14 */\n      tag_189\n      jumpi\n        /* \"hopium/standalone/main/price-oracle.sol\":1765:1784  100_000_000_000_000 */\n      0x5af3107a4000\n        /* \"hopium/standalone/main/price-oracle.sol\":2710:2725  return POW10_14 */\n      swap1\n      pop\n      jump(tag_174)\n        /* \"hopium/standalone/main/price-oracle.sol\":2697:2725  if (n == 14) return POW10_14 */\n    tag_189:\n        /* \"hopium/standalone/main/price-oracle.sol\":2744:2746  15 */\n      0x0f\n        /* \"hopium/standalone/main/price-oracle.sol\":2739:2740  n */\n      dup3\n        /* \"hopium/standalone/main/price-oracle.sol\":2739:2746  n == 15 */\n      0xff\n      and\n      sub\n        /* \"hopium/standalone/main/price-oracle.sol\":2735:2763  if (n == 15) return POW10_15 */\n      tag_190\n      jumpi\n        /* \"hopium/standalone/main/price-oracle.sol\":1826:1847  1_000_000_000_000_000 */\n      0x038d7ea4c68000\n        /* \"hopium/standalone/main/price-oracle.sol\":2748:2763  return POW10_15 */\n      swap1\n      pop\n      jump(tag_174)\n        /* \"hopium/standalone/main/price-oracle.sol\":2735:2763  if (n == 15) return POW10_15 */\n    tag_190:\n        /* \"hopium/standalone/main/price-oracle.sol\":2782:2784  16 */\n      0x10\n        /* \"hopium/standalone/main/price-oracle.sol\":2777:2778  n */\n      dup3\n        /* \"hopium/standalone/main/price-oracle.sol\":2777:2784  n == 16 */\n      0xff\n      and\n      sub\n        /* \"hopium/standalone/main/price-oracle.sol\":2773:2801  if (n == 16) return POW10_16 */\n      tag_191\n      jumpi\n        /* \"hopium/standalone/main/price-oracle.sol\":1889:1911  10_000_000_000_000_000 */\n      0x2386f26fc10000\n        /* \"hopium/standalone/main/price-oracle.sol\":2786:2801  return POW10_16 */\n      swap1\n      pop\n      jump(tag_174)\n        /* \"hopium/standalone/main/price-oracle.sol\":2773:2801  if (n == 16) return POW10_16 */\n    tag_191:\n        /* \"hopium/standalone/main/price-oracle.sol\":2820:2822  17 */\n      0x11\n        /* \"hopium/standalone/main/price-oracle.sol\":2815:2816  n */\n      dup3\n        /* \"hopium/standalone/main/price-oracle.sol\":2815:2822  n == 17 */\n      0xff\n      and\n      sub\n        /* \"hopium/standalone/main/price-oracle.sol\":2811:2839  if (n == 17) return POW10_17 */\n      tag_192\n      jumpi\n        /* \"hopium/standalone/main/price-oracle.sol\":1953:1976  100_000_000_000_000_000 */\n      0x016345785d8a0000\n        /* \"hopium/standalone/main/price-oracle.sol\":2824:2839  return POW10_17 */\n      swap1\n      pop\n      jump(tag_174)\n        /* \"hopium/standalone/main/price-oracle.sol\":2811:2839  if (n == 17) return POW10_17 */\n    tag_192:\n        /* \"hopium/standalone/main/price-oracle.sol\":2018:2043  1_000_000_000_000_000_000 */\n      0x0de0b6b3a7640000\n        /* \"hopium/standalone/main/price-oracle.sol\":2868:2883  return POW10_18 */\n      swap1\n      pop\n        /* \"hopium/standalone/main/price-oracle.sol\":2108:2890  function _pow10(uint8 n) internal pure returns (uint256) {... */\n    tag_174:\n      swap2\n      swap1\n      pop\n      jump\t// out\n        /* \"#utility.yul\":88:205   */\n    tag_194:\n        /* \"#utility.yul\":197:198   */\n      0x00\n        /* \"#utility.yul\":194:195   */\n      0x00\n        /* \"#utility.yul\":187:199   */\n      revert\n        /* \"#utility.yul\":334:460   */\n    tag_196:\n        /* \"#utility.yul\":371:378   */\n      0x00\n        /* \"#utility.yul\":411:453   */\n      0xffffffffffffffffffffffffffffffffffffffff\n        /* \"#utility.yul\":404:409   */\n      dup3\n        /* \"#utility.yul\":400:454   */\n      and\n        /* \"#utility.yul\":389:454   */\n      swap1\n      pop\n        /* \"#utility.yul\":334:460   */\n      swap2\n      swap1\n      pop\n      jump\t// out\n        /* \"#utility.yul\":466:562   */\n    tag_197:\n        /* \"#utility.yul\":503:510   */\n      0x00\n        /* \"#utility.yul\":532:556   */\n      tag_225\n        /* \"#utility.yul\":550:555   */\n      dup3\n        /* \"#utility.yul\":532:556   */\n      tag_196\n      jump\t// in\n    tag_225:\n        /* \"#utility.yul\":521:556   */\n      swap1\n      pop\n        /* \"#utility.yul\":466:562   */\n      swap2\n      swap1\n      pop\n      jump\t// out\n        /* \"#utility.yul\":568:690   */\n    tag_198:\n        /* \"#utility.yul\":641:665   */\n      tag_227\n        /* \"#utility.yul\":659:664   */\n      dup2\n        /* \"#utility.yul\":641:665   */\n      tag_197\n      jump\t// in\n    tag_227:\n        /* \"#utility.yul\":634:639   */\n      dup2\n        /* \"#utility.yul\":631:666   */\n      eq\n        /* \"#utility.yul\":621:684   */\n      tag_228\n      jumpi\n        /* \"#utility.yul\":680:681   */\n      0x00\n        /* \"#utility.yul\":677:678   */\n      0x00\n        /* \"#utility.yul\":670:682   */\n      revert\n        /* \"#utility.yul\":621:684   */\n    tag_228:\n        /* \"#utility.yul\":568:690   */\n      pop\n      jump\t// out\n        /* \"#utility.yul\":696:835   */\n    tag_199:\n        /* \"#utility.yul\":742:747   */\n      0x00\n        /* \"#utility.yul\":780:786   */\n      dup2\n        /* \"#utility.yul\":767:787   */\n      calldataload\n        /* \"#utility.yul\":758:787   */\n      swap1\n      pop\n        /* \"#utility.yul\":796:829   */\n      tag_230\n        /* \"#utility.yul\":823:828   */\n      dup2\n        /* \"#utility.yul\":796:829   */\n      tag_198\n      jump\t// in\n    tag_230:\n        /* \"#utility.yul\":696:835   */\n      swap3\n      swap2\n      pop\n      pop\n      jump\t// out\n        /* \"#utility.yul\":841:1170   */\n    tag_18:\n        /* \"#utility.yul\":900:906   */\n      0x00\n        /* \"#utility.yul\":949:951   */\n      0x20\n        /* \"#utility.yul\":937:946   */\n      dup3\n        /* \"#utility.yul\":928:935   */\n      dup5\n        /* \"#utility.yul\":924:947   */\n      sub\n        /* \"#utility.yul\":920:952   */\n      slt\n        /* \"#utility.yul\":917:1036   */\n      iszero\n      tag_232\n      jumpi\n        /* \"#utility.yul\":955:1034   */\n      tag_233\n      tag_194\n      jump\t// in\n    tag_233:\n        /* \"#utility.yul\":917:1036   */\n    tag_232:\n        /* \"#utility.yul\":1075:1076   */\n      0x00\n        /* \"#utility.yul\":1100:1153   */\n      tag_234\n        /* \"#utility.yul\":1145:1152   */\n      dup5\n        /* \"#utility.yul\":1136:1142   */\n      dup3\n        /* \"#utility.yul\":1125:1134   */\n      dup6\n        /* \"#utility.yul\":1121:1143   */\n      add\n        /* \"#utility.yul\":1100:1153   */\n      tag_199\n      jump\t// in\n    tag_234:\n        /* \"#utility.yul\":1090:1153   */\n      swap2\n      pop\n        /* \"#utility.yul\":1046:1163   */\n      pop\n        /* \"#utility.yul\":841:1170   */\n      swap3\n      swap2\n      pop\n      pop\n      jump\t// out\n        /* \"#utility.yul\":1176:1253   */\n    tag_200:\n        /* \"#utility.yul\":1213:1220   */\n      0x00\n        /* \"#utility.yul\":1242:1247   */\n      dup2\n        /* \"#utility.yul\":1231:1247   */\n      swap1\n      pop\n        /* \"#utility.yul\":1176:1253   */\n      swap2\n      swap1\n      pop\n      jump\t// out\n        /* \"#utility.yul\":1259:1377   */\n    tag_201:\n        /* \"#utility.yul\":1346:1370   */\n      tag_237\n        /* \"#utility.yul\":1364:1369   */\n      dup2\n        /* \"#utility.yul\":1346:1370   */\n      tag_200\n      jump\t// in\n    tag_237:\n        /* \"#utility.yul\":1341:1344   */\n      dup3\n        /* \"#utility.yul\":1334:1371   */\n      mstore\n        /* \"#utility.yul\":1259:1377   */\n      pop\n      pop\n      jump\t// out\n        /* \"#utility.yul\":1383:1605   */\n    tag_21:\n        /* \"#utility.yul\":1476:1480   */\n      0x00\n        /* \"#utility.yul\":1514:1516   */\n      0x20\n        /* \"#utility.yul\":1503:1512   */\n      dup3\n        /* \"#utility.yul\":1499:1517   */\n      add\n        /* \"#utility.yul\":1491:1517   */\n      swap1\n      pop\n        /* \"#utility.yul\":1527:1598   */\n      tag_239\n        /* \"#utility.yul\":1595:1596   */\n      0x00\n        /* \"#utility.yul\":1584:1593   */\n      dup4\n        /* \"#utility.yul\":1580:1597   */\n      add\n        /* \"#utility.yul\":1571:1577   */\n      dup5\n        /* \"#utility.yul\":1527:1598   */\n      tag_201\n      jump\t// in\n    tag_239:\n        /* \"#utility.yul\":1383:1605   */\n      swap3\n      swap2\n      pop\n      pop\n      jump\t// out\n        /* \"#utility.yul\":1611:1729   */\n    tag_202:\n        /* \"#utility.yul\":1698:1722   */\n      tag_241\n        /* \"#utility.yul\":1716:1721   */\n      dup2\n        /* \"#utility.yul\":1698:1722   */\n      tag_197\n      jump\t// in\n    tag_241:\n        /* \"#utility.yul\":1693:1696   */\n      dup3\n        /* \"#utility.yul\":1686:1723   */\n      mstore\n        /* \"#utility.yul\":1611:1729   */\n      pop\n      pop\n      jump\t// out\n        /* \"#utility.yul\":1735:1957   */\n    tag_25:\n        /* \"#utility.yul\":1828:1832   */\n      0x00\n        /* \"#utility.yul\":1866:1868   */\n      0x20\n        /* \"#utility.yul\":1855:1864   */\n      dup3\n        /* \"#utility.yul\":1851:1869   */\n      add\n        /* \"#utility.yul\":1843:1869   */\n      swap1\n      pop\n        /* \"#utility.yul\":1879:1950   */\n      tag_243\n        /* \"#utility.yul\":1947:1948   */\n      0x00\n        /* \"#utility.yul\":1936:1945   */\n      dup4\n        /* \"#utility.yul\":1932:1949   */\n      add\n        /* \"#utility.yul\":1923:1929   */\n      dup5\n        /* \"#utility.yul\":1879:1950   */\n      tag_202\n      jump\t// in\n    tag_243:\n        /* \"#utility.yul\":1735:1957   */\n      swap3\n      swap2\n      pop\n      pop\n      jump\t// out\n        /* \"#utility.yul\":1963:2049   */\n    tag_203:\n        /* \"#utility.yul\":1998:2005   */\n      0x00\n        /* \"#utility.yul\":2038:2042   */\n      0xff\n        /* \"#utility.yul\":2031:2036   */\n      dup3\n        /* \"#utility.yul\":2027:2043   */\n      and\n        /* \"#utility.yul\":2016:2043   */\n      swap1\n      pop\n        /* \"#utility.yul\":1963:2049   */\n      swap2\n      swap1\n      pop\n      jump\t// out\n        /* \"#utility.yul\":2055:2167   */\n    tag_204:\n        /* \"#utility.yul\":2138:2160   */\n      tag_246\n        /* \"#utility.yul\":2154:2159   */\n      dup2\n        /* \"#utility.yul\":2138:2160   */\n      tag_203\n      jump\t// in\n    tag_246:\n        /* \"#utility.yul\":2133:2136   */\n      dup3\n        /* \"#utility.yul\":2126:2161   */\n      mstore\n        /* \"#utility.yul\":2055:2167   */\n      pop\n      pop\n      jump\t// out\n        /* \"#utility.yul\":2173:2387   */\n    tag_62:\n        /* \"#utility.yul\":2262:2266   */\n      0x00\n        /* \"#utility.yul\":2300:2302   */\n      0x20\n        /* \"#utility.yul\":2289:2298   */\n      dup3\n        /* \"#utility.yul\":2285:2303   */\n      add\n        /* \"#utility.yul\":2277:2303   */\n      swap1\n      pop\n        /* \"#utility.yul\":2313:2380   */\n      tag_248\n        /* \"#utility.yul\":2377:2378   */\n      0x00\n        /* \"#utility.yul\":2366:2375   */\n      dup4\n        /* \"#utility.yul\":2362:2379   */\n      add\n        /* \"#utility.yul\":2353:2359   */\n      dup5\n        /* \"#utility.yul\":2313:2380   */\n      tag_204\n      jump\t// in\n    tag_248:\n        /* \"#utility.yul\":2173:2387   */\n      swap3\n      swap2\n      pop\n      pop\n      jump\t// out\n        /* \"#utility.yul\":2393:2515   */\n    tag_205:\n        /* \"#utility.yul\":2466:2490   */\n      tag_250\n        /* \"#utility.yul\":2484:2489   */\n      dup2\n        /* \"#utility.yul\":2466:2490   */\n      tag_200\n      jump\t// in\n    tag_250:\n        /* \"#utility.yul\":2459:2464   */\n      dup2\n        /* \"#utility.yul\":2456:2491   */\n      eq\n        /* \"#utility.yul\":2446:2509   */\n      tag_251\n      jumpi\n        /* \"#utility.yul\":2505:2506   */\n      0x00\n        /* \"#utility.yul\":2502:2503   */\n      0x00\n        /* \"#utility.yul\":2495:2507   */\n      revert\n        /* \"#utility.yul\":2446:2509   */\n    tag_251:\n        /* \"#utility.yul\":2393:2515   */\n      pop\n      jump\t// out\n        /* \"#utility.yul\":2521:2664   */\n    tag_206:\n        /* \"#utility.yul\":2578:2583   */\n      0x00\n        /* \"#utility.yul\":2609:2615   */\n      dup2\n        /* \"#utility.yul\":2603:2616   */\n      mload\n        /* \"#utility.yul\":2594:2616   */\n      swap1\n      pop\n        /* \"#utility.yul\":2625:2658   */\n      tag_253\n        /* \"#utility.yul\":2652:2657   */\n      dup2\n        /* \"#utility.yul\":2625:2658   */\n      tag_205\n      jump\t// in\n    tag_253:\n        /* \"#utility.yul\":2521:2664   */\n      swap3\n      swap2\n      pop\n      pop\n      jump\t// out\n        /* \"#utility.yul\":2670:3021   */\n    tag_73:\n        /* \"#utility.yul\":2740:2746   */\n      0x00\n        /* \"#utility.yul\":2789:2791   */\n      0x20\n        /* \"#utility.yul\":2777:2786   */\n      dup3\n        /* \"#utility.yul\":2768:2775   */\n      dup5\n        /* \"#utility.yul\":2764:2787   */\n      sub\n        /* \"#utility.yul\":2760:2792   */\n      slt\n        /* \"#utility.yul\":2757:2876   */\n      iszero\n      tag_255\n      jumpi\n        /* \"#utility.yul\":2795:2874   */\n      tag_256\n      tag_194\n      jump\t// in\n    tag_256:\n        /* \"#utility.yul\":2757:2876   */\n    tag_255:\n        /* \"#utility.yul\":2915:2916   */\n      0x00\n        /* \"#utility.yul\":2940:3004   */\n      tag_257\n        /* \"#utility.yul\":2996:3003   */\n      dup5\n        /* \"#utility.yul\":2987:2993   */\n      dup3\n        /* \"#utility.yul\":2976:2985   */\n      dup6\n        /* \"#utility.yul\":2972:2994   */\n      add\n        /* \"#utility.yul\":2940:3004   */\n      tag_206\n      jump\t// in\n    tag_257:\n        /* \"#utility.yul\":2930:3004   */\n      swap2\n      pop\n        /* \"#utility.yul\":2886:3014   */\n      pop\n        /* \"#utility.yul\":2670:3021   */\n      swap3\n      swap2\n      pop\n      pop\n      jump\t// out\n        /* \"#utility.yul\":3027:3145   */\n    tag_207:\n        /* \"#utility.yul\":3098:3120   */\n      tag_259\n        /* \"#utility.yul\":3114:3119   */\n      dup2\n        /* \"#utility.yul\":3098:3120   */\n      tag_203\n      jump\t// in\n    tag_259:\n        /* \"#utility.yul\":3091:3096   */\n      dup2\n        /* \"#utility.yul\":3088:3121   */\n      eq\n        /* \"#utility.yul\":3078:3139   */\n      tag_260\n      jumpi\n        /* \"#utility.yul\":3135:3136   */\n      0x00\n        /* \"#utility.yul\":3132:3133   */\n      0x00\n        /* \"#utility.yul\":3125:3137   */\n      revert\n        /* \"#utility.yul\":3078:3139   */\n    tag_260:\n        /* \"#utility.yul\":3027:3145   */\n      pop\n      jump\t// out\n        /* \"#utility.yul\":3151:3290   */\n    tag_208:\n        /* \"#utility.yul\":3206:3211   */\n      0x00\n        /* \"#utility.yul\":3237:3243   */\n      dup2\n        /* \"#utility.yul\":3231:3244   */\n      mload\n        /* \"#utility.yul\":3222:3244   */\n      swap1\n      pop\n        /* \"#utility.yul\":3253:3284   */\n      tag_262\n        /* \"#utility.yul\":3278:3283   */\n      dup2\n        /* \"#utility.yul\":3253:3284   */\n      tag_207\n      jump\t// in\n    tag_262:\n        /* \"#utility.yul\":3151:3290   */\n      swap3\n      swap2\n      pop\n      pop\n      jump\t// out\n        /* \"#utility.yul\":3296:3643   */\n    tag_95:\n        /* \"#utility.yul\":3364:3370   */\n      0x00\n        /* \"#utility.yul\":3413:3415   */\n      0x20\n        /* \"#utility.yul\":3401:3410   */\n      dup3\n        /* \"#utility.yul\":3392:3399   */\n      dup5\n        /* \"#utility.yul\":3388:3411   */\n      sub\n        /* \"#utility.yul\":3384:3416   */\n      slt\n        /* \"#utility.yul\":3381:3500   */\n      iszero\n      tag_264\n      jumpi\n        /* \"#utility.yul\":3419:3498   */\n      tag_265\n      tag_194\n      jump\t// in\n    tag_265:\n        /* \"#utility.yul\":3381:3500   */\n    tag_264:\n        /* \"#utility.yul\":3539:3540   */\n      0x00\n        /* \"#utility.yul\":3564:3626   */\n      tag_266\n        /* \"#utility.yul\":3618:3625   */\n      dup5\n        /* \"#utility.yul\":3609:3615   */\n      dup3\n        /* \"#utility.yul\":3598:3607   */\n      dup6\n        /* \"#utility.yul\":3594:3616   */\n      add\n        /* \"#utility.yul\":3564:3626   */\n      tag_208\n      jump\t// in\n    tag_266:\n        /* \"#utility.yul\":3554:3626   */\n      swap2\n      pop\n        /* \"#utility.yul\":3510:3636   */\n      pop\n        /* \"#utility.yul\":3296:3643   */\n      swap3\n      swap2\n      pop\n      pop\n      jump\t// out\n        /* \"#utility.yul\":3649:3829   */\n    tag_119:\n        /* \"#utility.yul\":3697:3774   */\n      0x4e487b7100000000000000000000000000000000000000000000000000000000\n        /* \"#utility.yul\":3694:3695   */\n      0x00\n        /* \"#utility.yul\":3687:3775   */\n      mstore\n        /* \"#utility.yul\":3794:3798   */\n      0x12\n        /* \"#utility.yul\":3791:3792   */\n      0x04\n        /* \"#utility.yul\":3784:3799   */\n      mstore\n        /* \"#utility.yul\":3818:3822   */\n      0x24\n        /* \"#utility.yul\":3815:3816   */\n      0x00\n        /* \"#utility.yul\":3808:3823   */\n      revert\n        /* \"#utility.yul\":3835:4004   */\n    tag_209:\n        /* \"#utility.yul\":3919:3930   */\n      0x00\n        /* \"#utility.yul\":3953:3959   */\n      dup3\n        /* \"#utility.yul\":3948:3951   */\n      dup3\n        /* \"#utility.yul\":3941:3960   */\n      mstore\n        /* \"#utility.yul\":3993:3997   */\n      0x20\n        /* \"#utility.yul\":3988:3991   */\n      dup3\n        /* \"#utility.yul\":3984:3998   */\n      add\n        /* \"#utility.yul\":3969:3998   */\n      swap1\n      pop\n        /* \"#utility.yul\":3835:4004   */\n      swap3\n      swap2\n      pop\n      pop\n      jump\t// out\n        /* \"#utility.yul\":4010:4175   */\n    tag_210:\n        /* \"#utility.yul\":4150:4167   */\n      0x6d756c446976206f766572666c6f770000000000000000000000000000000000\n        /* \"#utility.yul\":4146:4147   */\n      0x00\n        /* \"#utility.yul\":4138:4144   */\n      dup3\n        /* \"#utility.yul\":4134:4148   */\n      add\n        /* \"#utility.yul\":4127:4168   */\n      mstore\n        /* \"#utility.yul\":4010:4175   */\n      pop\n      jump\t// out\n        /* \"#utility.yul\":4181:4547   */\n    tag_211:\n        /* \"#utility.yul\":4323:4326   */\n      0x00\n        /* \"#utility.yul\":4344:4411   */\n      tag_271\n        /* \"#utility.yul\":4408:4410   */\n      0x0f\n        /* \"#utility.yul\":4403:4406   */\n      dup4\n        /* \"#utility.yul\":4344:4411   */\n      tag_209\n      jump\t// in\n    tag_271:\n        /* \"#utility.yul\":4337:4411   */\n      swap2\n      pop\n        /* \"#utility.yul\":4420:4513   */\n      tag_272\n        /* \"#utility.yul\":4509:4512   */\n      dup3\n        /* \"#utility.yul\":4420:4513   */\n      tag_210\n      jump\t// in\n    tag_272:\n        /* \"#utility.yul\":4538:4540   */\n      0x20\n        /* \"#utility.yul\":4533:4536   */\n      dup3\n        /* \"#utility.yul\":4529:4541   */\n      add\n        /* \"#utility.yul\":4522:4541   */\n      swap1\n      pop\n        /* \"#utility.yul\":4181:4547   */\n      swap2\n      swap1\n      pop\n      jump\t// out\n        /* \"#utility.yul\":4553:4972   */\n    tag_122:\n        /* \"#utility.yul\":4719:4723   */\n      0x00\n        /* \"#utility.yul\":4757:4759   */\n      0x20\n        /* \"#utility.yul\":4746:4755   */\n      dup3\n        /* \"#utility.yul\":4742:4760   */\n      add\n        /* \"#utility.yul\":4734:4760   */\n      swap1\n      pop\n        /* \"#utility.yul\":4806:4815   */\n      dup2\n        /* \"#utility.yul\":4800:4804   */\n      dup2\n        /* \"#utility.yul\":4796:4816   */\n      sub\n        /* \"#utility.yul\":4792:4793   */\n      0x00\n        /* \"#utility.yul\":4781:4790   */\n      dup4\n        /* \"#utility.yul\":4777:4794   */\n      add\n        /* \"#utility.yul\":4770:4817   */\n      mstore\n        /* \"#utility.yul\":4834:4965   */\n      tag_274\n        /* \"#utility.yul\":4960:4964   */\n      dup2\n        /* \"#utility.yul\":4834:4965   */\n      tag_211\n      jump\t// in\n    tag_274:\n        /* \"#utility.yul\":4826:4965   */\n      swap1\n      pop\n        /* \"#utility.yul\":4553:4972   */\n      swap2\n      swap1\n      pop\n      jump\t// out\n        /* \"#utility.yul\":4978:5310   */\n    tag_134:\n        /* \"#utility.yul\":5099:5103   */\n      0x00\n        /* \"#utility.yul\":5137:5139   */\n      0x40\n        /* \"#utility.yul\":5126:5135   */\n      dup3\n        /* \"#utility.yul\":5122:5140   */\n      add\n        /* \"#utility.yul\":5114:5140   */\n      swap1\n      pop\n        /* \"#utility.yul\":5150:5221   */\n      tag_276\n        /* \"#utility.yul\":5218:5219   */\n      0x00\n        /* \"#utility.yul\":5207:5216   */\n      dup4\n        /* \"#utility.yul\":5203:5220   */\n      add\n        /* \"#utility.yul\":5194:5200   */\n      dup6\n        /* \"#utility.yul\":5150:5221   */\n      tag_202\n      jump\t// in\n    tag_276:\n        /* \"#utility.yul\":5231:5303   */\n      tag_277\n        /* \"#utility.yul\":5299:5301   */\n      0x20\n        /* \"#utility.yul\":5288:5297   */\n      dup4\n        /* \"#utility.yul\":5284:5302   */\n      add\n        /* \"#utility.yul\":5275:5281   */\n      dup5\n        /* \"#utility.yul\":5231:5303   */\n      tag_202\n      jump\t// in\n    tag_277:\n        /* \"#utility.yul\":4978:5310   */\n      swap4\n      swap3\n      pop\n      pop\n      pop\n      jump\t// out\n        /* \"#utility.yul\":5316:5459   */\n    tag_212:\n        /* \"#utility.yul\":5373:5378   */\n      0x00\n        /* \"#utility.yul\":5404:5410   */\n      dup2\n        /* \"#utility.yul\":5398:5411   */\n      mload\n        /* \"#utility.yul\":5389:5411   */\n      swap1\n      pop\n        /* \"#utility.yul\":5420:5453   */\n      tag_279\n        /* \"#utility.yul\":5447:5452   */\n      dup2\n        /* \"#utility.yul\":5420:5453   */\n      tag_198\n      jump\t// in\n    tag_279:\n        /* \"#utility.yul\":5316:5459   */\n      swap3\n      swap2\n      pop\n      pop\n      jump\t// out\n        /* \"#utility.yul\":5465:5816   */\n    tag_138:\n        /* \"#utility.yul\":5535:5541   */\n      0x00\n        /* \"#utility.yul\":5584:5586   */\n      0x20\n        /* \"#utility.yul\":5572:5581   */\n      dup3\n        /* \"#utility.yul\":5563:5570   */\n      dup5\n        /* \"#utility.yul\":5559:5582   */\n      sub\n        /* \"#utility.yul\":5555:5587   */\n      slt\n        /* \"#utility.yul\":5552:5671   */\n      iszero\n      tag_281\n      jumpi\n        /* \"#utility.yul\":5590:5669   */\n      tag_282\n      tag_194\n      jump\t// in\n    tag_282:\n        /* \"#utility.yul\":5552:5671   */\n    tag_281:\n        /* \"#utility.yul\":5710:5711   */\n      0x00\n        /* \"#utility.yul\":5735:5799   */\n      tag_283\n        /* \"#utility.yul\":5791:5798   */\n      dup5\n        /* \"#utility.yul\":5782:5788   */\n      dup3\n        /* \"#utility.yul\":5771:5780   */\n      dup6\n        /* \"#utility.yul\":5767:5789   */\n      add\n        /* \"#utility.yul\":5735:5799   */\n      tag_212\n      jump\t// in\n    tag_283:\n        /* \"#utility.yul\":5725:5799   */\n      swap2\n      pop\n        /* \"#utility.yul\":5681:5809   */\n      pop\n        /* \"#utility.yul\":5465:5816   */\n      swap3\n      swap2\n      pop\n      pop\n      jump\t// out\n        /* \"#utility.yul\":5822:5936   */\n    tag_213:\n        /* \"#utility.yul\":5859:5866   */\n      0x00\n        /* \"#utility.yul\":5899:5929   */\n      0xffffffffffffffffffffffffffff\n        /* \"#utility.yul\":5892:5897   */\n      dup3\n        /* \"#utility.yul\":5888:5930   */\n      and\n        /* \"#utility.yul\":5877:5930   */\n      swap1\n      pop\n        /* \"#utility.yul\":5822:5936   */\n      swap2\n      swap1\n      pop\n      jump\t// out\n        /* \"#utility.yul\":5942:6064   */\n    tag_214:\n        /* \"#utility.yul\":6015:6039   */\n      tag_286\n        /* \"#utility.yul\":6033:6038   */\n      dup2\n        /* \"#utility.yul\":6015:6039   */\n      tag_213\n      jump\t// in\n    tag_286:\n        /* \"#utility.yul\":6008:6013   */\n      dup2\n        /* \"#utility.yul\":6005:6040   */\n      eq\n        /* \"#utility.yul\":5995:6058   */\n      tag_287\n      jumpi\n        /* \"#utility.yul\":6054:6055   */\n      0x00\n        /* \"#utility.yul\":6051:6052   */\n      0x00\n        /* \"#utility.yul\":6044:6056   */\n      revert\n        /* \"#utility.yul\":5995:6058   */\n    tag_287:\n        /* \"#utility.yul\":5942:6064   */\n      pop\n      jump\t// out\n        /* \"#utility.yul\":6070:6213   */\n    tag_215:\n        /* \"#utility.yul\":6127:6132   */\n      0x00\n        /* \"#utility.yul\":6158:6164   */\n      dup2\n        /* \"#utility.yul\":6152:6165   */\n      mload\n        /* \"#utility.yul\":6143:6165   */\n      swap1\n      pop\n        /* \"#utility.yul\":6174:6207   */\n      tag_289\n        /* \"#utility.yul\":6201:6206   */\n      dup2\n        /* \"#utility.yul\":6174:6207   */\n      tag_214\n      jump\t// in\n    tag_289:\n        /* \"#utility.yul\":6070:6213   */\n      swap3\n      swap2\n      pop\n      pop\n      jump\t// out\n        /* \"#utility.yul\":6219:6312   */\n    tag_216:\n        /* \"#utility.yul\":6255:6262   */\n      0x00\n        /* \"#utility.yul\":6295:6305   */\n      0xffffffff\n        /* \"#utility.yul\":6288:6293   */\n      dup3\n        /* \"#utility.yul\":6284:6306   */\n      and\n        /* \"#utility.yul\":6273:6306   */\n      swap1\n      pop\n        /* \"#utility.yul\":6219:6312   */\n      swap2\n      swap1\n      pop\n      jump\t// out\n        /* \"#utility.yul\":6318:6438   */\n    tag_217:\n        /* \"#utility.yul\":6390:6413   */\n      tag_292\n        /* \"#utility.yul\":6407:6412   */\n      dup2\n        /* \"#utility.yul\":6390:6413   */\n      tag_216\n      jump\t// in\n    tag_292:\n        /* \"#utility.yul\":6383:6388   */\n      dup2\n        /* \"#utility.yul\":6380:6414   */\n      eq\n        /* \"#utility.yul\":6370:6432   */\n      tag_293\n      jumpi\n        /* \"#utility.yul\":6428:6429   */\n      0x00\n        /* \"#utility.yul\":6425:6426   */\n      0x00\n        /* \"#utility.yul\":6418:6430   */\n      revert\n        /* \"#utility.yul\":6370:6432   */\n    tag_293:\n        /* \"#utility.yul\":6318:6438   */\n      pop\n      jump\t// out\n        /* \"#utility.yul\":6444:6585   */\n    tag_218:\n        /* \"#utility.yul\":6500:6505   */\n      0x00\n        /* \"#utility.yul\":6531:6537   */\n      dup2\n        /* \"#utility.yul\":6525:6538   */\n      mload\n        /* \"#utility.yul\":6516:6538   */\n      swap1\n      pop\n        /* \"#utility.yul\":6547:6579   */\n      tag_295\n        /* \"#utility.yul\":6573:6578   */\n      dup2\n        /* \"#utility.yul\":6547:6579   */\n      tag_217\n      jump\t// in\n    tag_295:\n        /* \"#utility.yul\":6444:6585   */\n      swap3\n      swap2\n      pop\n      pop\n      jump\t// out\n        /* \"#utility.yul\":6591:7252   */\n    tag_144:\n        /* \"#utility.yul\":6678:6684   */\n      0x00\n        /* \"#utility.yul\":6686:6692   */\n      0x00\n        /* \"#utility.yul\":6694:6700   */\n      0x00\n        /* \"#utility.yul\":6743:6745   */\n      0x60\n        /* \"#utility.yul\":6731:6740   */\n      dup5\n        /* \"#utility.yul\":6722:6729   */\n      dup7\n        /* \"#utility.yul\":6718:6741   */\n      sub\n        /* \"#utility.yul\":6714:6746   */\n      slt\n        /* \"#utility.yul\":6711:6830   */\n      iszero\n      tag_297\n      jumpi\n        /* \"#utility.yul\":6749:6828   */\n      tag_298\n      tag_194\n      jump\t// in\n    tag_298:\n        /* \"#utility.yul\":6711:6830   */\n    tag_297:\n        /* \"#utility.yul\":6869:6870   */\n      0x00\n        /* \"#utility.yul\":6894:6958   */\n      tag_299\n        /* \"#utility.yul\":6950:6957   */\n      dup7\n        /* \"#utility.yul\":6941:6947   */\n      dup3\n        /* \"#utility.yul\":6930:6939   */\n      dup8\n        /* \"#utility.yul\":6926:6948   */\n      add\n        /* \"#utility.yul\":6894:6958   */\n      tag_215\n      jump\t// in\n    tag_299:\n        /* \"#utility.yul\":6884:6958   */\n      swap4\n      pop\n        /* \"#utility.yul\":6840:6968   */\n      pop\n        /* \"#utility.yul\":7007:7009   */\n      0x20\n        /* \"#utility.yul\":7033:7097   */\n      tag_300\n        /* \"#utility.yul\":7089:7096   */\n      dup7\n        /* \"#utility.yul\":7080:7086   */\n      dup3\n        /* \"#utility.yul\":7069:7078   */\n      dup8\n        /* \"#utility.yul\":7065:7087   */\n      add\n        /* \"#utility.yul\":7033:7097   */\n      tag_215\n      jump\t// in\n    tag_300:\n        /* \"#utility.yul\":7023:7097   */\n      swap3\n      pop\n        /* \"#utility.yul\":6978:7107   */\n      pop\n        /* \"#utility.yul\":7146:7148   */\n      0x40\n        /* \"#utility.yul\":7172:7235   */\n      tag_301\n        /* \"#utility.yul\":7227:7234   */\n      dup7\n        /* \"#utility.yul\":7218:7224   */\n      dup3\n        /* \"#utility.yul\":7207:7216   */\n      dup8\n        /* \"#utility.yul\":7203:7225   */\n      add\n        /* \"#utility.yul\":7172:7235   */\n      tag_218\n      jump\t// in\n    tag_301:\n        /* \"#utility.yul\":7162:7235   */\n      swap2\n      pop\n        /* \"#utility.yul\":7117:7245   */\n      pop\n        /* \"#utility.yul\":6591:7252   */\n      swap3\n      pop\n      swap3\n      pop\n      swap3\n      jump\t// out\n\n    auxdata: 0xa2646970667358221220b665c5e5b8ebb7511bbd99b810bdfb3ce7970e34df55f46f5d50ae7646de394d64736f6c634300081e0033\n}\n",
				"bytecode": {
					"linkReferences": {},
					"object": "610100604052348015610010575f5ffd5b50604051611696380380611696833981810160405281019061003291906101ae565b8273ffffffffffffffffffffffffffffffffffffffff1660808173ffffffffffffffffffffffffffffffffffffffff16815250508173ffffffffffffffffffffffffffffffffffffffff1660a08173ffffffffffffffffffffffffffffffffffffffff16815250508073ffffffffffffffffffffffffffffffffffffffff1660c08173ffffffffffffffffffffffffffffffffffffffff16815250508273ffffffffffffffffffffffffffffffffffffffff1663313ce5676040518163ffffffff1660e01b8152600401602060405180830381865afa158015610117573d5f5f3e3d5ffd5b505050506040513d601f19601f8201168201806040525081019061013b9190610234565b60ff1660e08160ff168152505050505061025f565b5f5ffd5b5f73ffffffffffffffffffffffffffffffffffffffff82169050919050565b5f61017d82610154565b9050919050565b61018d81610173565b8114610197575f5ffd5b50565b5f815190506101a881610184565b92915050565b5f5f5f606084860312156101c5576101c4610150565b5b5f6101d28682870161019a565b93505060206101e38682870161019a565b92505060406101f48682870161019a565b9150509250925092565b5f60ff82169050919050565b610213816101fe565b811461021d575f5ffd5b50565b5f8151905061022e8161020a565b92915050565b5f6020828403121561024957610248610150565b5b5f61025684828501610220565b91505092915050565b60805160a05160c05160e0516113be6102d85f395f818161040101526107e301525f81816107bf015261096c01525f81816102f5015261065501525f81816102d10152818161031a0152818161036e015281816105c401528181610676015281816106ef0152818161076601526109a901526113be5ff3fe608060405234801561000f575f5ffd5b50600436106100b1575f3560e01c80636855e9391161006f5780636855e939146101b157806369a2e17d146101cf5780637b49b49d146101ff5780637d1aa6101461022f578063884ec7a91461025f578063d08aef7c1461027d576100b1565b8062593bcf146100b5578063040141e5146100e55780630b017603146101035780630dbc0d7d1461012157806357b6c1331461015157806363aa0c9314610181575b5f5ffd5b6100cf60048036038101906100ca919061104f565b61029b565b6040516100dc9190611092565b60405180910390f35b6100ed6102cf565b6040516100fa91906110ba565b60405180910390f35b61010b6102f3565b60405161011891906110ba565b60405180910390f35b61013b6004803603810190610136919061104f565b610317565b6040516101489190611092565b60405180910390f35b61016b6004803603810190610166919061104f565b6104a0565b6040516101789190611092565b60405180910390f35b61019b6004803603810190610196919061104f565b6104d4565b6040516101a89190611092565b60405180910390f35b6101b961064b565b6040516101c69190611092565b60405180910390f35b6101e960048036038101906101e4919061104f565b6106b8565b6040516101f69190611092565b60405180910390f35b6102196004803603810190610214919061104f565b6106ec565b6040516102269190611092565b60405180910390f35b6102496004803603810190610244919061104f565b6107ac565b60405161025691906110ba565b60405180910390f35b6102676107bd565b60405161027491906110ba565b60405180910390f35b6102856107e1565b60405161029291906110ee565b60405180910390f35b5f5f6102a6836106ec565b90505f6102b161064b565b90506102c68282670de0b6b3a7640000610805565b92505050919050565b7f000000000000000000000000000000000000000000000000000000000000000081565b7f000000000000000000000000000000000000000000000000000000000000000081565b5f7f000000000000000000000000000000000000000000000000000000000000000073ffffffffffffffffffffffffffffffffffffffff168273ffffffffffffffffffffffffffffffffffffffff160361042d575f7f000000000000000000000000000000000000000000000000000000000000000073ffffffffffffffffffffffffffffffffffffffff166318160ddd6040518163ffffffff1660e01b8152600401602060405180830381865afa1580156103d5573d5f5f3e3d5ffd5b505050506040513d601f19601f820116820180604052508101906103f99190611131565b9050610425817f000000000000000000000000000000000000000000000000000000000000000061090f565b91505061049b565b5f61043783610969565b90505f5f5f5f6104478588610a90565b5093509350935093505f61045b858561090f565b90505f610468848461090f565b90505f6104748a6106ec565b90505f61048a8483670de0b6b3a7640000610805565b905082810199505050505050505050505b919050565b5f5f6104ab83610317565b90505f6104b661064b565b90506104cb8282670de0b6b3a7640000610805565b92505050919050565b5f5f8273ffffffffffffffffffffffffffffffffffffffff166318160ddd6040518163ffffffff1660e01b8152600401602060405180830381865afa15801561051f573d5f5f3e3d5ffd5b505050506040513d601f19601f820116820180604052508101906105439190611131565b90505f8373ffffffffffffffffffffffffffffffffffffffff1663313ce5676040518163ffffffff1660e01b8152600401602060405180830381865afa15801561058f573d5f5f3e3d5ffd5b505050506040513d601f19601f820116820180604052508101906105b39190611186565b90505f6105c0838361090f565b90507f000000000000000000000000000000000000000000000000000000000000000073ffffffffffffffffffffffffffffffffffffffff168573ffffffffffffffffffffffffffffffffffffffff160361062057809350505050610646565b5f61062a866106ec565b905061063f8282670de0b6b3a7640000610805565b9450505050505b919050565b5f5f5f5f5f61069a7f00000000000000000000000000000000000000000000000000000000000000007f0000000000000000000000000000000000000000000000000000000000000000610a90565b5093509350935093506106af82828686610dd3565b94505050505090565b5f5f6106c3836104d4565b90505f6106ce61064b565b90506106e38282670de0b6b3a7640000610805565b92505050919050565b5f7f000000000000000000000000000000000000000000000000000000000000000073ffffffffffffffffffffffffffffffffffffffff168273ffffffffffffffffffffffffffffffffffffffff160361075057670de0b6b3a764000090506107a7565b5f61075a83610969565b90505f5f5f5f61078a857f0000000000000000000000000000000000000000000000000000000000000000610a90565b50935093509350935061079f84848484610dd3565b955050505050505b919050565b5f6107b682610969565b9050919050565b7f000000000000000000000000000000000000000000000000000000000000000081565b7f000000000000000000000000000000000000000000000000000000000000000081565b5f5f5f5f198587098587029250828110838203039150505f810361083d57838281610833576108326111b1565b5b0492505050610908565b80841161087f576040517f08c379a000000000000000000000000000000000000000000000000000000000815260040161087690611238565b60405180910390fd5b5f8486880990508281118203915080830392505f60018619018616905080860495508084049350600181825f0304019050808302841793505f600287600302189050808702600203810290508087026002038102905080870260020381029050808702600203810290508087026002038102905080870260020381029050808502955050505050505b9392505050565b5f60128260ff160361092357829050610963565b60128260ff1610156109445761093b82601203610e41565b83029050610963565b61095060128303610e41565b838161095f5761095e6111b1565b5b0490505b92915050565b5f7f000000000000000000000000000000000000000000000000000000000000000073ffffffffffffffffffffffffffffffffffffffff1663e6a43905837f00000000000000000000000000000000000000000000000000000000000000006040518363ffffffff1660e01b81526004016109e5929190611256565b602060405180830381865afa158015610a00573d5f5f3e3d5ffd5b505050506040513d601f19601f82011682018060405250810190610a249190611291565b90505f73ffffffffffffffffffffffffffffffffffffffff168173ffffffffffffffffffffffffffffffffffffffff1603610a8b576040517fc5fc4bf400000000000000000000000000000000000000000000000000000000815260040160405180910390fd5b919050565b5f5f5f5f5f5f8790505f5f8273ffffffffffffffffffffffffffffffffffffffff16630902f1ac6040518163ffffffff1660e01b8152600401606060405180830381865afa158015610ae4573d5f5f3e3d5ffd5b505050506040513d601f19601f82011682018060405250810190610b089190611338565b50915091505f8373ffffffffffffffffffffffffffffffffffffffff16630dfe16816040518163ffffffff1660e01b8152600401602060405180830381865afa158015610b57573d5f5f3e3d5ffd5b505050506040513d601f19601f82011682018060405250810190610b7b9190611291565b90505f8473ffffffffffffffffffffffffffffffffffffffff1663d21220a76040518163ffffffff1660e01b8152600401602060405180830381865afa158015610bc7573d5f5f3e3d5ffd5b505050506040513d601f19601f82011682018060405250810190610beb9190611291565b90505f8b73ffffffffffffffffffffffffffffffffffffffff168373ffffffffffffffffffffffffffffffffffffffff1603610c2a5760019050610c98565b8b73ffffffffffffffffffffffffffffffffffffffff168273ffffffffffffffffffffffffffffffffffffffff1603610c65575f9050610c97565b6040517f17b2f78000000000000000000000000000000000000000000000000000000000815260040160405180910390fd5b5b80610ca35783610ca5565b845b6dffffffffffffffffffffffffffff169a5080610cc25784610cc4565b835b6dffffffffffffffffffffffffffff16985080610ce15782610ce3565b815b96508b73ffffffffffffffffffffffffffffffffffffffff1663313ce5676040518163ffffffff1660e01b8152600401602060405180830381865afa158015610d2e573d5f5f3e3d5ffd5b505050506040513d601f19601f82011682018060405250810190610d529190611186565b99508673ffffffffffffffffffffffffffffffffffffffff1663313ce5676040518163ffffffff1660e01b8152600401602060405180830381865afa158015610d9d573d5f5f3e3d5ffd5b505050506040513d601f19601f82011682018060405250810190610dc19190611186565b97505050505050509295509295909350565b5f5f8460ff168360ff1610610dfe57610ded858403610e41565b670de0b6b3a7640000029050610e2a565b5f610e0a848703610e41565b85029050610e2187670de0b6b3a764000083610805565b92505050610e39565b610e35868286610805565b9150505b949350505050565b5f5f8260ff1603610e555760019050610fec565b60018260ff1603610e6957600a9050610fec565b60028260ff1603610e7d5760649050610fec565b60038260ff1603610e92576103e89050610fec565b60048260ff1603610ea7576127109050610fec565b60058260ff1603610ebd57620186a09050610fec565b60068260ff1603610ed357620f42409050610fec565b60078260ff1603610ee957629896809050610fec565b60088260ff1603610f00576305f5e1009050610fec565b60098260ff1603610f1757633b9aca009050610fec565b600a8260ff1603610f2f576402540be4009050610fec565b600b8260ff1603610f475764174876e8009050610fec565b600c8260ff1603610f5f5764e8d4a510009050610fec565b600d8260ff1603610f78576509184e72a0009050610fec565b600e8260ff1603610f9157655af3107a40009050610fec565b600f8260ff1603610fab5766038d7ea4c680009050610fec565b60108260ff1603610fc557662386f26fc100009050610fec565b60118260ff1603610fe05767016345785d8a00009050610fec565b670de0b6b3a764000090505b919050565b5f5ffd5b5f73ffffffffffffffffffffffffffffffffffffffff82169050919050565b5f61101e82610ff5565b9050919050565b61102e81611014565b8114611038575f5ffd5b50565b5f8135905061104981611025565b92915050565b5f6020828403121561106457611063610ff1565b5b5f6110718482850161103b565b91505092915050565b5f819050919050565b61108c8161107a565b82525050565b5f6020820190506110a55f830184611083565b92915050565b6110b481611014565b82525050565b5f6020820190506110cd5f8301846110ab565b92915050565b5f60ff82169050919050565b6110e8816110d3565b82525050565b5f6020820190506111015f8301846110df565b92915050565b6111108161107a565b811461111a575f5ffd5b50565b5f8151905061112b81611107565b92915050565b5f6020828403121561114657611145610ff1565b5b5f6111538482850161111d565b91505092915050565b611165816110d3565b811461116f575f5ffd5b50565b5f815190506111808161115c565b92915050565b5f6020828403121561119b5761119a610ff1565b5b5f6111a884828501611172565b91505092915050565b7f4e487b71000000000000000000000000000000000000000000000000000000005f52601260045260245ffd5b5f82825260208201905092915050565b7f6d756c446976206f766572666c6f7700000000000000000000000000000000005f82015250565b5f611222600f836111de565b915061122d826111ee565b602082019050919050565b5f6020820190508181035f83015261124f81611216565b9050919050565b5f6040820190506112695f8301856110ab565b61127660208301846110ab565b9392505050565b5f8151905061128b81611025565b92915050565b5f602082840312156112a6576112a5610ff1565b5b5f6112b38482850161127d565b91505092915050565b5f6dffffffffffffffffffffffffffff82169050919050565b6112de816112bc565b81146112e8575f5ffd5b50565b5f815190506112f9816112d5565b92915050565b5f63ffffffff82169050919050565b611317816112ff565b8114611321575f5ffd5b50565b5f815190506113328161130e565b92915050565b5f5f5f6060848603121561134f5761134e610ff1565b5b5f61135c868287016112eb565b935050602061136d868287016112eb565b925050604061137e86828701611324565b915050925092509256fea2646970667358221220b665c5e5b8ebb7511bbd99b810bdfb3ce7970e34df55f46f5d50ae7646de394d64736f6c634300081e0033",
					"opcodes": "PUSH2 0x100 PUSH1 0x40 MSTORE CALLVALUE DUP1 ISZERO PUSH2 0x10 JUMPI PUSH0 PUSH0 REVERT JUMPDEST POP PUSH1 0x40 MLOAD PUSH2 0x1696 CODESIZE SUB DUP1 PUSH2 0x1696 DUP4 CODECOPY DUP2 DUP2 ADD PUSH1 0x40 MSTORE DUP2 ADD SWAP1 PUSH2 0x32 SWAP2 SWAP1 PUSH2 0x1AE JUMP JUMPDEST DUP3 PUSH20 0xFFFFFFFFFFFFFFFFFFFFFFFFFFFFFFFFFFFFFFFF AND PUSH1 0x80 DUP2 PUSH20 0xFFFFFFFFFFFFFFFFFFFFFFFFFFFFFFFFFFFFFFFF AND DUP2 MSTORE POP POP DUP2 PUSH20 0xFFFFFFFFFFFFFFFFFFFFFFFFFFFFFFFFFFFFFFFF AND PUSH1 0xA0 DUP2 PUSH20 0xFFFFFFFFFFFFFFFFFFFFFFFFFFFFFFFFFFFFFFFF AND DUP2 MSTORE POP POP DUP1 PUSH20 0xFFFFFFFFFFFFFFFFFFFFFFFFFFFFFFFFFFFFFFFF AND PUSH1 0xC0 DUP2 PUSH20 0xFFFFFFFFFFFFFFFFFFFFFFFFFFFFFFFFFFFFFFFF AND DUP2 MSTORE POP POP DUP3 PUSH20 0xFFFFFFFFFFFFFFFFFFFFFFFFFFFFFFFFFFFFFFFF AND PUSH4 0x313CE567 PUSH1 0x40 MLOAD DUP2 PUSH4 0xFFFFFFFF AND PUSH1 0xE0 SHL DUP2 MSTORE PUSH1 0x4 ADD PUSH1 0x20 PUSH1 0x40 MLOAD DUP1 DUP4 SUB DUP2 DUP7 GAS STATICCALL ISZERO DUP1 ISZERO PUSH2 0x117 JUMPI RETURNDATASIZE PUSH0 PUSH0 RETURNDATACOPY RETURNDATASIZE PUSH0 REVERT JUMPDEST POP POP POP POP PUSH1 0x40 MLOAD RETURNDATASIZE PUSH1 0x1F NOT PUSH1 0x1F DUP3 ADD AND DUP3 ADD DUP1 PUSH1 0x40 MSTORE POP DUP2 ADD SWAP1 PUSH2 0x13B SWAP2 SWAP1 PUSH2 0x234 JUMP JUMPDEST PUSH1 0xFF AND PUSH1 0xE0 DUP2 PUSH1 0xFF AND DUP2 MSTORE POP POP POP POP POP PUSH2 0x25F JUMP JUMPDEST PUSH0 PUSH0 REVERT JUMPDEST PUSH0 PUSH20 0xFFFFFFFFFFFFFFFFFFFFFFFFFFFFFFFFFFFFFFFF DUP3 AND SWAP1 POP SWAP2 SWAP1 POP JUMP JUMPDEST PUSH0 PUSH2 0x17D DUP3 PUSH2 0x154 JUMP JUMPDEST SWAP1 POP SWAP2 SWAP1 POP JUMP JUMPDEST PUSH2 0x18D DUP2 PUSH2 0x173 JUMP JUMPDEST DUP2 EQ PUSH2 0x197 JUMPI PUSH0 PUSH0 REVERT JUMPDEST POP JUMP JUMPDEST PUSH0 DUP2 MLOAD SWAP1 POP PUSH2 0x1A8 DUP2 PUSH2 0x184 JUMP JUMPDEST SWAP3 SWAP2 POP POP JUMP JUMPDEST PUSH0 PUSH0 PUSH0 PUSH1 0x60 DUP5 DUP7 SUB SLT ISZERO PUSH2 0x1C5 JUMPI PUSH2 0x1C4 PUSH2 0x150 JUMP JUMPDEST JUMPDEST PUSH0 PUSH2 0x1D2 DUP7 DUP3 DUP8 ADD PUSH2 0x19A JUMP JUMPDEST SWAP4 POP POP PUSH1 0x20 PUSH2 0x1E3 DUP7 DUP3 DUP8 ADD PUSH2 0x19A JUMP JUMPDEST SWAP3 POP POP PUSH1 0x40 PUSH2 0x1F4 DUP7 DUP3 DUP8 ADD PUSH2 0x19A JUMP JUMPDEST SWAP2 POP POP SWAP3 POP SWAP3 POP SWAP3 JUMP JUMPDEST PUSH0 PUSH1 0xFF DUP3 AND SWAP1 POP SWAP2 SWAP1 POP JUMP JUMPDEST PUSH2 0x213 DUP2 PUSH2 0x1FE JUMP JUMPDEST DUP2 EQ PUSH2 0x21D JUMPI PUSH0 PUSH0 REVERT JUMPDEST POP JUMP JUMPDEST PUSH0 DUP2 MLOAD SWAP1 POP PUSH2 0x22E DUP2 PUSH2 0x20A JUMP JUMPDEST SWAP3 SWAP2 POP POP JUMP JUMPDEST PUSH0 PUSH1 0x20 DUP3 DUP5 SUB SLT ISZERO PUSH2 0x249 JUMPI PUSH2 0x248 PUSH2 0x150 JUMP JUMPDEST JUMPDEST PUSH0 PUSH2 0x256 DUP5 DUP3 DUP6 ADD PUSH2 0x220 JUMP JUMPDEST SWAP2 POP POP SWAP3 SWAP2 POP POP JUMP JUMPDEST PUSH1 0x80 MLOAD PUSH1 0xA0 MLOAD PUSH1 0xC0 MLOAD PUSH1 0xE0 MLOAD PUSH2 0x13BE PUSH2 0x2D8 PUSH0 CODECOPY PUSH0 DUP2 DUP2 PUSH2 0x401 ADD MSTORE PUSH2 0x7E3 ADD MSTORE PUSH0 DUP2 DUP2 PUSH2 0x7BF ADD MSTORE PUSH2 0x96C ADD MSTORE PUSH0 DUP2 DUP2 PUSH2 0x2F5 ADD MSTORE PUSH2 0x655 ADD MSTORE PUSH0 DUP2 DUP2 PUSH2 0x2D1 ADD MSTORE DUP2 DUP2 PUSH2 0x31A ADD MSTORE DUP2 DUP2 PUSH2 0x36E ADD MSTORE DUP2 DUP2 PUSH2 0x5C4 ADD MSTORE DUP2 DUP2 PUSH2 0x676 ADD MSTORE DUP2 DUP2 PUSH2 0x6EF ADD MSTORE DUP2 DUP2 PUSH2 0x766 ADD MSTORE PUSH2 0x9A9 ADD MSTORE PUSH2 0x13BE PUSH0 RETURN INVALID PUSH1 0x80 PUSH1 0x40 MSTORE CALLVALUE DUP1 ISZERO PUSH2 0xF JUMPI PUSH0 PUSH0 REVERT JUMPDEST POP PUSH1 0x4 CALLDATASIZE LT PUSH2 0xB1 JUMPI PUSH0 CALLDATALOAD PUSH1 0xE0 SHR DUP1 PUSH4 0x6855E939 GT PUSH2 0x6F JUMPI DUP1 PUSH4 0x6855E939 EQ PUSH2 0x1B1 JUMPI DUP1 PUSH4 0x69A2E17D EQ PUSH2 0x1CF JUMPI DUP1 PUSH4 0x7B49B49D EQ PUSH2 0x1FF JUMPI DUP1 PUSH4 0x7D1AA610 EQ PUSH2 0x22F JUMPI DUP1 PUSH4 0x884EC7A9 EQ PUSH2 0x25F JUMPI DUP1 PUSH4 0xD08AEF7C EQ PUSH2 0x27D JUMPI PUSH2 0xB1 JUMP JUMPDEST DUP1 PUSH3 0x593BCF EQ PUSH2 0xB5 JUMPI DUP1 PUSH4 0x40141E5 EQ PUSH2 0xE5 JUMPI DUP1 PUSH4 0xB017603 EQ PUSH2 0x103 JUMPI DUP1 PUSH4 0xDBC0D7D EQ PUSH2 0x121 JUMPI DUP1 PUSH4 0x57B6C133 EQ PUSH2 0x151 JUMPI DUP1 PUSH4 0x63AA0C93 EQ PUSH2 0x181 JUMPI JUMPDEST PUSH0 PUSH0 REVERT JUMPDEST PUSH2 0xCF PUSH1 0x4 DUP1 CALLDATASIZE SUB DUP2 ADD SWAP1 PUSH2 0xCA SWAP2 SWAP1 PUSH2 0x104F JUMP JUMPDEST PUSH2 0x29B JUMP JUMPDEST PUSH1 0x40 MLOAD PUSH2 0xDC SWAP2 SWAP1 PUSH2 0x1092 JUMP JUMPDEST PUSH1 0x40 MLOAD DUP1 SWAP2 SUB SWAP1 RETURN JUMPDEST PUSH2 0xED PUSH2 0x2CF JUMP JUMPDEST PUSH1 0x40 MLOAD PUSH2 0xFA SWAP2 SWAP1 PUSH2 0x10BA JUMP JUMPDEST PUSH1 0x40 MLOAD DUP1 SWAP2 SUB SWAP1 RETURN JUMPDEST PUSH2 0x10B PUSH2 0x2F3 JUMP JUMPDEST PUSH1 0x40 MLOAD PUSH2 0x118 SWAP2 SWAP1 PUSH2 0x10BA JUMP JUMPDEST PUSH1 0x40 MLOAD DUP1 SWAP2 SUB SWAP1 RETURN JUMPDEST PUSH2 0x13B PUSH1 0x4 DUP1 CALLDATASIZE SUB DUP2 ADD SWAP1 PUSH2 0x136 SWAP2 SWAP1 PUSH2 0x104F JUMP JUMPDEST PUSH2 0x317 JUMP JUMPDEST PUSH1 0x40 MLOAD PUSH2 0x148 SWAP2 SWAP1 PUSH2 0x1092 JUMP JUMPDEST PUSH1 0x40 MLOAD DUP1 SWAP2 SUB SWAP1 RETURN JUMPDEST PUSH2 0x16B PUSH1 0x4 DUP1 CALLDATASIZE SUB DUP2 ADD SWAP1 PUSH2 0x166 SWAP2 SWAP1 PUSH2 0x104F JUMP JUMPDEST PUSH2 0x4A0 JUMP JUMPDEST PUSH1 0x40 MLOAD PUSH2 0x178 SWAP2 SWAP1 PUSH2 0x1092 JUMP JUMPDEST PUSH1 0x40 MLOAD DUP1 SWAP2 SUB SWAP1 RETURN JUMPDEST PUSH2 0x19B PUSH1 0x4 DUP1 CALLDATASIZE SUB DUP2 ADD SWAP1 PUSH2 0x196 SWAP2 SWAP1 PUSH2 0x104F JUMP JUMPDEST PUSH2 0x4D4 JUMP JUMPDEST PUSH1 0x40 MLOAD PUSH2 0x1A8 SWAP2 SWAP1 PUSH2 0x1092 JUMP JUMPDEST PUSH1 0x40 MLOAD DUP1 SWAP2 SUB SWAP1 RETURN JUMPDEST PUSH2 0x1B9 PUSH2 0x64B JUMP JUMPDEST PUSH1 0x40 MLOAD PUSH2 0x1C6 SWAP2 SWAP1 PUSH2 0x1092 JUMP JUMPDEST PUSH1 0x40 MLOAD DUP1 SWAP2 SUB SWAP1 RETURN JUMPDEST PUSH2 0x1E9 PUSH1 0x4 DUP1 CALLDATASIZE SUB DUP2 ADD SWAP1 PUSH2 0x1E4 SWAP2 SWAP1 PUSH2 0x104F JUMP JUMPDEST PUSH2 0x6B8 JUMP JUMPDEST PUSH1 0x40 MLOAD PUSH2 0x1F6 SWAP2 SWAP1 PUSH2 0x1092 JUMP JUMPDEST PUSH1 0x40 MLOAD DUP1 SWAP2 SUB SWAP1 RETURN JUMPDEST PUSH2 0x219 PUSH1 0x4 DUP1 CALLDATASIZE SUB DUP2 ADD SWAP1 PUSH2 0x214 SWAP2 SWAP1 PUSH2 0x104F JUMP JUMPDEST PUSH2 0x6EC JUMP JUMPDEST PUSH1 0x40 MLOAD PUSH2 0x226 SWAP2 SWAP1 PUSH2 0x1092 JUMP JUMPDEST PUSH1 0x40 MLOAD DUP1 SWAP2 SUB SWAP1 RETURN JUMPDEST PUSH2 0x249 PUSH1 0x4 DUP1 CALLDATASIZE SUB DUP2 ADD SWAP1 PUSH2 0x244 SWAP2 SWAP1 PUSH2 0x104F JUMP JUMPDEST PUSH2 0x7AC JUMP JUMPDEST PUSH1 0x40 MLOAD PUSH2 0x256 SWAP2 SWAP1 PUSH2 0x10BA JUMP JUMPDEST PUSH1 0x40 MLOAD DUP1 SWAP2 SUB SWAP1 RETURN JUMPDEST PUSH2 0x267 PUSH2 0x7BD JUMP JUMPDEST PUSH1 0x40 MLOAD PUSH2 0x274 SWAP2 SWAP1 PUSH2 0x10BA JUMP JUMPDEST PUSH1 0x40 MLOAD DUP1 SWAP2 SUB SWAP1 RETURN JUMPDEST PUSH2 0x285 PUSH2 0x7E1 JUMP JUMPDEST PUSH1 0x40 MLOAD PUSH2 0x292 SWAP2 SWAP1 PUSH2 0x10EE JUMP JUMPDEST PUSH1 0x40 MLOAD DUP1 SWAP2 SUB SWAP1 RETURN JUMPDEST PUSH0 PUSH0 PUSH2 0x2A6 DUP4 PUSH2 0x6EC JUMP JUMPDEST SWAP1 POP PUSH0 PUSH2 0x2B1 PUSH2 0x64B JUMP JUMPDEST SWAP1 POP PUSH2 0x2C6 DUP3 DUP3 PUSH8 0xDE0B6B3A7640000 PUSH2 0x805 JUMP JUMPDEST SWAP3 POP POP POP SWAP2 SWAP1 POP JUMP JUMPDEST PUSH32 0x0 DUP2 JUMP JUMPDEST PUSH32 0x0 DUP2 JUMP JUMPDEST PUSH0 PUSH32 0x0 PUSH20 0xFFFFFFFFFFFFFFFFFFFFFFFFFFFFFFFFFFFFFFFF AND DUP3 PUSH20 0xFFFFFFFFFFFFFFFFFFFFFFFFFFFFFFFFFFFFFFFF AND SUB PUSH2 0x42D JUMPI PUSH0 PUSH32 0x0 PUSH20 0xFFFFFFFFFFFFFFFFFFFFFFFFFFFFFFFFFFFFFFFF AND PUSH4 0x18160DDD PUSH1 0x40 MLOAD DUP2 PUSH4 0xFFFFFFFF AND PUSH1 0xE0 SHL DUP2 MSTORE PUSH1 0x4 ADD PUSH1 0x20 PUSH1 0x40 MLOAD DUP1 DUP4 SUB DUP2 DUP7 GAS STATICCALL ISZERO DUP1 ISZERO PUSH2 0x3D5 JUMPI RETURNDATASIZE PUSH0 PUSH0 RETURNDATACOPY RETURNDATASIZE PUSH0 REVERT JUMPDEST POP POP POP POP PUSH1 0x40 MLOAD RETURNDATASIZE PUSH1 0x1F NOT PUSH1 0x1F DUP3 ADD AND DUP3 ADD DUP1 PUSH1 0x40 MSTORE POP DUP2 ADD SWAP1 PUSH2 0x3F9 SWAP2 SWAP1 PUSH2 0x1131 JUMP JUMPDEST SWAP1 POP PUSH2 0x425 DUP2 PUSH32 0x0 PUSH2 0x90F JUMP JUMPDEST SWAP2 POP POP PUSH2 0x49B JUMP JUMPDEST PUSH0 PUSH2 0x437 DUP4 PUSH2 0x969 JUMP JUMPDEST SWAP1 POP PUSH0 PUSH0 PUSH0 PUSH0 PUSH2 0x447 DUP6 DUP9 PUSH2 0xA90 JUMP JUMPDEST POP SWAP4 POP SWAP4 POP SWAP4 POP SWAP4 POP PUSH0 PUSH2 0x45B DUP6 DUP6 PUSH2 0x90F JUMP JUMPDEST SWAP1 POP PUSH0 PUSH2 0x468 DUP5 DUP5 PUSH2 0x90F JUMP JUMPDEST SWAP1 POP PUSH0 PUSH2 0x474 DUP11 PUSH2 0x6EC JUMP JUMPDEST SWAP1 POP PUSH0 PUSH2 0x48A DUP5 DUP4 PUSH8 0xDE0B6B3A7640000 PUSH2 0x805 JUMP JUMPDEST SWAP1 POP DUP3 DUP2 ADD SWAP10 POP POP POP POP POP POP POP POP POP POP JUMPDEST SWAP2 SWAP1 POP JUMP JUMPDEST PUSH0 PUSH0 PUSH2 0x4AB DUP4 PUSH2 0x317 JUMP JUMPDEST SWAP1 POP PUSH0 PUSH2 0x4B6 PUSH2 0x64B JUMP JUMPDEST SWAP1 POP PUSH2 0x4CB DUP3 DUP3 PUSH8 0xDE0B6B3A7640000 PUSH2 0x805 JUMP JUMPDEST SWAP3 POP POP POP SWAP2 SWAP1 POP JUMP JUMPDEST PUSH0 PUSH0 DUP3 PUSH20 0xFFFFFFFFFFFFFFFFFFFFFFFFFFFFFFFFFFFFFFFF AND PUSH4 0x18160DDD PUSH1 0x40 MLOAD DUP2 PUSH4 0xFFFFFFFF AND PUSH1 0xE0 SHL DUP2 MSTORE PUSH1 0x4 ADD PUSH1 0x20 PUSH1 0x40 MLOAD DUP1 DUP4 SUB DUP2 DUP7 GAS STATICCALL ISZERO DUP1 ISZERO PUSH2 0x51F JUMPI RETURNDATASIZE PUSH0 PUSH0 RETURNDATACOPY RETURNDATASIZE PUSH0 REVERT JUMPDEST POP POP POP POP PUSH1 0x40 MLOAD RETURNDATASIZE PUSH1 0x1F NOT PUSH1 0x1F DUP3 ADD AND DUP3 ADD DUP1 PUSH1 0x40 MSTORE POP DUP2 ADD SWAP1 PUSH2 0x543 SWAP2 SWAP1 PUSH2 0x1131 JUMP JUMPDEST SWAP1 POP PUSH0 DUP4 PUSH20 0xFFFFFFFFFFFFFFFFFFFFFFFFFFFFFFFFFFFFFFFF AND PUSH4 0x313CE567 PUSH1 0x40 MLOAD DUP2 PUSH4 0xFFFFFFFF AND PUSH1 0xE0 SHL DUP2 MSTORE PUSH1 0x4 ADD PUSH1 0x20 PUSH1 0x40 MLOAD DUP1 DUP4 SUB DUP2 DUP7 GAS STATICCALL ISZERO DUP1 ISZERO PUSH2 0x58F JUMPI RETURNDATASIZE PUSH0 PUSH0 RETURNDATACOPY RETURNDATASIZE PUSH0 REVERT JUMPDEST POP POP POP POP PUSH1 0x40 MLOAD RETURNDATASIZE PUSH1 0x1F NOT PUSH1 0x1F DUP3 ADD AND DUP3 ADD DUP1 PUSH1 0x40 MSTORE POP DUP2 ADD SWAP1 PUSH2 0x5B3 SWAP2 SWAP1 PUSH2 0x1186 JUMP JUMPDEST SWAP1 POP PUSH0 PUSH2 0x5C0 DUP4 DUP4 PUSH2 0x90F JUMP JUMPDEST SWAP1 POP PUSH32 0x0 PUSH20 0xFFFFFFFFFFFFFFFFFFFFFFFFFFFFFFFFFFFFFFFF AND DUP6 PUSH20 0xFFFFFFFFFFFFFFFFFFFFFFFFFFFFFFFFFFFFFFFF AND SUB PUSH2 0x620 JUMPI DUP1 SWAP4 POP POP POP POP PUSH2 0x646 JUMP JUMPDEST PUSH0 PUSH2 0x62A DUP7 PUSH2 0x6EC JUMP JUMPDEST SWAP1 POP PUSH2 0x63F DUP3 DUP3 PUSH8 0xDE0B6B3A7640000 PUSH2 0x805 JUMP JUMPDEST SWAP5 POP POP POP POP POP JUMPDEST SWAP2 SWAP1 POP JUMP JUMPDEST PUSH0 PUSH0 PUSH0 PUSH0 PUSH0 PUSH2 0x69A PUSH32 0x0 PUSH32 0x0 PUSH2 0xA90 JUMP JUMPDEST POP SWAP4 POP SWAP4 POP SWAP4 POP SWAP4 POP PUSH2 0x6AF DUP3 DUP3 DUP7 DUP7 PUSH2 0xDD3 JUMP JUMPDEST SWAP5 POP POP POP POP POP SWAP1 JUMP JUMPDEST PUSH0 PUSH0 PUSH2 0x6C3 DUP4 PUSH2 0x4D4 JUMP JUMPDEST SWAP1 POP PUSH0 PUSH2 0x6CE PUSH2 0x64B JUMP JUMPDEST SWAP1 POP PUSH2 0x6E3 DUP3 DUP3 PUSH8 0xDE0B6B3A7640000 PUSH2 0x805 JUMP JUMPDEST SWAP3 POP POP POP SWAP2 SWAP1 POP JUMP JUMPDEST PUSH0 PUSH32 0x0 PUSH20 0xFFFFFFFFFFFFFFFFFFFFFFFFFFFFFFFFFFFFFFFF AND DUP3 PUSH20 0xFFFFFFFFFFFFFFFFFFFFFFFFFFFFFFFFFFFFFFFF AND SUB PUSH2 0x750 JUMPI PUSH8 0xDE0B6B3A7640000 SWAP1 POP PUSH2 0x7A7 JUMP JUMPDEST PUSH0 PUSH2 0x75A DUP4 PUSH2 0x969 JUMP JUMPDEST SWAP1 POP PUSH0 PUSH0 PUSH0 PUSH0 PUSH2 0x78A DUP6 PUSH32 0x0 PUSH2 0xA90 JUMP JUMPDEST POP SWAP4 POP SWAP4 POP SWAP4 POP SWAP4 POP PUSH2 0x79F DUP5 DUP5 DUP5 DUP5 PUSH2 0xDD3 JUMP JUMPDEST SWAP6 POP POP POP POP POP POP JUMPDEST SWAP2 SWAP1 POP JUMP JUMPDEST PUSH0 PUSH2 0x7B6 DUP3 PUSH2 0x969 JUMP JUMPDEST SWAP1 POP SWAP2 SWAP1 POP JUMP JUMPDEST PUSH32 0x0 DUP2 JUMP JUMPDEST PUSH32 0x0 DUP2 JUMP JUMPDEST PUSH0 PUSH0 PUSH0 PUSH0 NOT DUP6 DUP8 MULMOD DUP6 DUP8 MUL SWAP3 POP DUP3 DUP2 LT DUP4 DUP3 SUB SUB SWAP2 POP POP PUSH0 DUP2 SUB PUSH2 0x83D JUMPI DUP4 DUP3 DUP2 PUSH2 0x833 JUMPI PUSH2 0x832 PUSH2 0x11B1 JUMP JUMPDEST JUMPDEST DIV SWAP3 POP POP POP PUSH2 0x908 JUMP JUMPDEST DUP1 DUP5 GT PUSH2 0x87F JUMPI PUSH1 0x40 MLOAD PUSH32 0x8C379A000000000000000000000000000000000000000000000000000000000 DUP2 MSTORE PUSH1 0x4 ADD PUSH2 0x876 SWAP1 PUSH2 0x1238 JUMP JUMPDEST PUSH1 0x40 MLOAD DUP1 SWAP2 SUB SWAP1 REVERT JUMPDEST PUSH0 DUP5 DUP7 DUP9 MULMOD SWAP1 POP DUP3 DUP2 GT DUP3 SUB SWAP2 POP DUP1 DUP4 SUB SWAP3 POP PUSH0 PUSH1 0x1 DUP7 NOT ADD DUP7 AND SWAP1 POP DUP1 DUP7 DIV SWAP6 POP DUP1 DUP5 DIV SWAP4 POP PUSH1 0x1 DUP2 DUP3 PUSH0 SUB DIV ADD SWAP1 POP DUP1 DUP4 MUL DUP5 OR SWAP4 POP PUSH0 PUSH1 0x2 DUP8 PUSH1 0x3 MUL XOR SWAP1 POP DUP1 DUP8 MUL PUSH1 0x2 SUB DUP2 MUL SWAP1 POP DUP1 DUP8 MUL PUSH1 0x2 SUB DUP2 MUL SWAP1 POP DUP1 DUP8 MUL PUSH1 0x2 SUB DUP2 MUL SWAP1 POP DUP1 DUP8 MUL PUSH1 0x2 SUB DUP2 MUL SWAP1 POP DUP1 DUP8 MUL PUSH1 0x2 SUB DUP2 MUL SWAP1 POP DUP1 DUP8 MUL PUSH1 0x2 SUB DUP2 MUL SWAP1 POP DUP1 DUP6 MUL SWAP6 POP POP POP POP POP POP JUMPDEST SWAP4 SWAP3 POP POP POP JUMP JUMPDEST PUSH0 PUSH1 0x12 DUP3 PUSH1 0xFF AND SUB PUSH2 0x923 JUMPI DUP3 SWAP1 POP PUSH2 0x963 JUMP JUMPDEST PUSH1 0x12 DUP3 PUSH1 0xFF AND LT ISZERO PUSH2 0x944 JUMPI PUSH2 0x93B DUP3 PUSH1 0x12 SUB PUSH2 0xE41 JUMP JUMPDEST DUP4 MUL SWAP1 POP PUSH2 0x963 JUMP JUMPDEST PUSH2 0x950 PUSH1 0x12 DUP4 SUB PUSH2 0xE41 JUMP JUMPDEST DUP4 DUP2 PUSH2 0x95F JUMPI PUSH2 0x95E PUSH2 0x11B1 JUMP JUMPDEST JUMPDEST DIV SWAP1 POP JUMPDEST SWAP3 SWAP2 POP POP JUMP JUMPDEST PUSH0 PUSH32 0x0 PUSH20 0xFFFFFFFFFFFFFFFFFFFFFFFFFFFFFFFFFFFFFFFF AND PUSH4 0xE6A43905 DUP4 PUSH32 0x0 PUSH1 0x40 MLOAD DUP4 PUSH4 0xFFFFFFFF AND PUSH1 0xE0 SHL DUP2 MSTORE PUSH1 0x4 ADD PUSH2 0x9E5 SWAP3 SWAP2 SWAP1 PUSH2 0x1256 JUMP JUMPDEST PUSH1 0x20 PUSH1 0x40 MLOAD DUP1 DUP4 SUB DUP2 DUP7 GAS STATICCALL ISZERO DUP1 ISZERO PUSH2 0xA00 JUMPI RETURNDATASIZE PUSH0 PUSH0 RETURNDATACOPY RETURNDATASIZE PUSH0 REVERT JUMPDEST POP POP POP POP PUSH1 0x40 MLOAD RETURNDATASIZE PUSH1 0x1F NOT PUSH1 0x1F DUP3 ADD AND DUP3 ADD DUP1 PUSH1 0x40 MSTORE POP DUP2 ADD SWAP1 PUSH2 0xA24 SWAP2 SWAP1 PUSH2 0x1291 JUMP JUMPDEST SWAP1 POP PUSH0 PUSH20 0xFFFFFFFFFFFFFFFFFFFFFFFFFFFFFFFFFFFFFFFF AND DUP2 PUSH20 0xFFFFFFFFFFFFFFFFFFFFFFFFFFFFFFFFFFFFFFFF AND SUB PUSH2 0xA8B JUMPI PUSH1 0x40 MLOAD PUSH32 0xC5FC4BF400000000000000000000000000000000000000000000000000000000 DUP2 MSTORE PUSH1 0x4 ADD PUSH1 0x40 MLOAD DUP1 SWAP2 SUB SWAP1 REVERT JUMPDEST SWAP2 SWAP1 POP JUMP JUMPDEST PUSH0 PUSH0 PUSH0 PUSH0 PUSH0 PUSH0 DUP8 SWAP1 POP PUSH0 PUSH0 DUP3 PUSH20 0xFFFFFFFFFFFFFFFFFFFFFFFFFFFFFFFFFFFFFFFF AND PUSH4 0x902F1AC PUSH1 0x40 MLOAD DUP2 PUSH4 0xFFFFFFFF AND PUSH1 0xE0 SHL DUP2 MSTORE PUSH1 0x4 ADD PUSH1 0x60 PUSH1 0x40 MLOAD DUP1 DUP4 SUB DUP2 DUP7 GAS STATICCALL ISZERO DUP1 ISZERO PUSH2 0xAE4 JUMPI RETURNDATASIZE PUSH0 PUSH0 RETURNDATACOPY RETURNDATASIZE PUSH0 REVERT JUMPDEST POP POP POP POP PUSH1 0x40 MLOAD RETURNDATASIZE PUSH1 0x1F NOT PUSH1 0x1F DUP3 ADD AND DUP3 ADD DUP1 PUSH1 0x40 MSTORE POP DUP2 ADD SWAP1 PUSH2 0xB08 SWAP2 SWAP1 PUSH2 0x1338 JUMP JUMPDEST POP SWAP2 POP SWAP2 POP PUSH0 DUP4 PUSH20 0xFFFFFFFFFFFFFFFFFFFFFFFFFFFFFFFFFFFFFFFF AND PUSH4 0xDFE1681 PUSH1 0x40 MLOAD DUP2 PUSH4 0xFFFFFFFF AND PUSH1 0xE0 SHL DUP2 MSTORE PUSH1 0x4 ADD PUSH1 0x20 PUSH1 0x40 MLOAD DUP1 DUP4 SUB DUP2 DUP7 GAS STATICCALL ISZERO DUP1 ISZERO PUSH2 0xB57 JUMPI RETURNDATASIZE PUSH0 PUSH0 RETURNDATACOPY RETURNDATASIZE PUSH0 REVERT JUMPDEST POP POP POP POP PUSH1 0x40 MLOAD RETURNDATASIZE PUSH1 0x1F NOT PUSH1 0x1F DUP3 ADD AND DUP3 ADD DUP1 PUSH1 0x40 MSTORE POP DUP2 ADD SWAP1 PUSH2 0xB7B SWAP2 SWAP1 PUSH2 0x1291 JUMP JUMPDEST SWAP1 POP PUSH0 DUP5 PUSH20 0xFFFFFFFFFFFFFFFFFFFFFFFFFFFFFFFFFFFFFFFF AND PUSH4 0xD21220A7 PUSH1 0x40 MLOAD DUP2 PUSH4 0xFFFFFFFF AND PUSH1 0xE0 SHL DUP2 MSTORE PUSH1 0x4 ADD PUSH1 0x20 PUSH1 0x40 MLOAD DUP1 DUP4 SUB DUP2 DUP7 GAS STATICCALL ISZERO DUP1 ISZERO PUSH2 0xBC7 JUMPI RETURNDATASIZE PUSH0 PUSH0 RETURNDATACOPY RETURNDATASIZE PUSH0 REVERT JUMPDEST POP POP POP POP PUSH1 0x40 MLOAD RETURNDATASIZE PUSH1 0x1F NOT PUSH1 0x1F DUP3 ADD AND DUP3 ADD DUP1 PUSH1 0x40 MSTORE POP DUP2 ADD SWAP1 PUSH2 0xBEB SWAP2 SWAP1 PUSH2 0x1291 JUMP JUMPDEST SWAP1 POP PUSH0 DUP12 PUSH20 0xFFFFFFFFFFFFFFFFFFFFFFFFFFFFFFFFFFFFFFFF AND DUP4 PUSH20 0xFFFFFFFFFFFFFFFFFFFFFFFFFFFFFFFFFFFFFFFF AND SUB PUSH2 0xC2A JUMPI PUSH1 0x1 SWAP1 POP PUSH2 0xC98 JUMP JUMPDEST DUP12 PUSH20 0xFFFFFFFFFFFFFFFFFFFFFFFFFFFFFFFFFFFFFFFF AND DUP3 PUSH20 0xFFFFFFFFFFFFFFFFFFFFFFFFFFFFFFFFFFFFFFFF AND SUB PUSH2 0xC65 JUMPI PUSH0 SWAP1 POP PUSH2 0xC97 JUMP JUMPDEST PUSH1 0x40 MLOAD PUSH32 0x17B2F78000000000000000000000000000000000000000000000000000000000 DUP2 MSTORE PUSH1 0x4 ADD PUSH1 0x40 MLOAD DUP1 SWAP2 SUB SWAP1 REVERT JUMPDEST JUMPDEST DUP1 PUSH2 0xCA3 JUMPI DUP4 PUSH2 0xCA5 JUMP JUMPDEST DUP5 JUMPDEST PUSH14 0xFFFFFFFFFFFFFFFFFFFFFFFFFFFF AND SWAP11 POP DUP1 PUSH2 0xCC2 JUMPI DUP5 PUSH2 0xCC4 JUMP JUMPDEST DUP4 JUMPDEST PUSH14 0xFFFFFFFFFFFFFFFFFFFFFFFFFFFF AND SWAP9 POP DUP1 PUSH2 0xCE1 JUMPI DUP3 PUSH2 0xCE3 JUMP JUMPDEST DUP2 JUMPDEST SWAP7 POP DUP12 PUSH20 0xFFFFFFFFFFFFFFFFFFFFFFFFFFFFFFFFFFFFFFFF AND PUSH4 0x313CE567 PUSH1 0x40 MLOAD DUP2 PUSH4 0xFFFFFFFF AND PUSH1 0xE0 SHL DUP2 MSTORE PUSH1 0x4 ADD PUSH1 0x20 PUSH1 0x40 MLOAD DUP1 DUP4 SUB DUP2 DUP7 GAS STATICCALL ISZERO DUP1 ISZERO PUSH2 0xD2E JUMPI RETURNDATASIZE PUSH0 PUSH0 RETURNDATACOPY RETURNDATASIZE PUSH0 REVERT JUMPDEST POP POP POP POP PUSH1 0x40 MLOAD RETURNDATASIZE PUSH1 0x1F NOT PUSH1 0x1F DUP3 ADD AND DUP3 ADD DUP1 PUSH1 0x40 MSTORE POP DUP2 ADD SWAP1 PUSH2 0xD52 SWAP2 SWAP1 PUSH2 0x1186 JUMP JUMPDEST SWAP10 POP DUP7 PUSH20 0xFFFFFFFFFFFFFFFFFFFFFFFFFFFFFFFFFFFFFFFF AND PUSH4 0x313CE567 PUSH1 0x40 MLOAD DUP2 PUSH4 0xFFFFFFFF AND PUSH1 0xE0 SHL DUP2 MSTORE PUSH1 0x4 ADD PUSH1 0x20 PUSH1 0x40 MLOAD DUP1 DUP4 SUB DUP2 DUP7 GAS STATICCALL ISZERO DUP1 ISZERO PUSH2 0xD9D JUMPI RETURNDATASIZE PUSH0 PUSH0 RETURNDATACOPY RETURNDATASIZE PUSH0 REVERT JUMPDEST POP POP POP POP PUSH1 0x40 MLOAD RETURNDATASIZE PUSH1 0x1F NOT PUSH1 0x1F DUP3 ADD AND DUP3 ADD DUP1 PUSH1 0x40 MSTORE POP DUP2 ADD SWAP1 PUSH2 0xDC1 SWAP2 SWAP1 PUSH2 0x1186 JUMP JUMPDEST SWAP8 POP POP POP POP POP POP POP SWAP3 SWAP6 POP SWAP3 SWAP6 SWAP1 SWAP4 POP JUMP JUMPDEST PUSH0 PUSH0 DUP5 PUSH1 0xFF AND DUP4 PUSH1 0xFF AND LT PUSH2 0xDFE JUMPI PUSH2 0xDED DUP6 DUP5 SUB PUSH2 0xE41 JUMP JUMPDEST PUSH8 0xDE0B6B3A7640000 MUL SWAP1 POP PUSH2 0xE2A JUMP JUMPDEST PUSH0 PUSH2 0xE0A DUP5 DUP8 SUB PUSH2 0xE41 JUMP JUMPDEST DUP6 MUL SWAP1 POP PUSH2 0xE21 DUP8 PUSH8 0xDE0B6B3A7640000 DUP4 PUSH2 0x805 JUMP JUMPDEST SWAP3 POP POP POP PUSH2 0xE39 JUMP JUMPDEST PUSH2 0xE35 DUP7 DUP3 DUP7 PUSH2 0x805 JUMP JUMPDEST SWAP2 POP POP JUMPDEST SWAP5 SWAP4 POP POP POP POP JUMP JUMPDEST PUSH0 PUSH0 DUP3 PUSH1 0xFF AND SUB PUSH2 0xE55 JUMPI PUSH1 0x1 SWAP1 POP PUSH2 0xFEC JUMP JUMPDEST PUSH1 0x1 DUP3 PUSH1 0xFF AND SUB PUSH2 0xE69 JUMPI PUSH1 0xA SWAP1 POP PUSH2 0xFEC JUMP JUMPDEST PUSH1 0x2 DUP3 PUSH1 0xFF AND SUB PUSH2 0xE7D JUMPI PUSH1 0x64 SWAP1 POP PUSH2 0xFEC JUMP JUMPDEST PUSH1 0x3 DUP3 PUSH1 0xFF AND SUB PUSH2 0xE92 JUMPI PUSH2 0x3E8 SWAP1 POP PUSH2 0xFEC JUMP JUMPDEST PUSH1 0x4 DUP3 PUSH1 0xFF AND SUB PUSH2 0xEA7 JUMPI PUSH2 0x2710 SWAP1 POP PUSH2 0xFEC JUMP JUMPDEST PUSH1 0x5 DUP3 PUSH1 0xFF AND SUB PUSH2 0xEBD JUMPI PUSH3 0x186A0 SWAP1 POP PUSH2 0xFEC JUMP JUMPDEST PUSH1 0x6 DUP3 PUSH1 0xFF AND SUB PUSH2 0xED3 JUMPI PUSH3 0xF4240 SWAP1 POP PUSH2 0xFEC JUMP JUMPDEST PUSH1 0x7 DUP3 PUSH1 0xFF AND SUB PUSH2 0xEE9 JUMPI PUSH3 0x989680 SWAP1 POP PUSH2 0xFEC JUMP JUMPDEST PUSH1 0x8 DUP3 PUSH1 0xFF AND SUB PUSH2 0xF00 JUMPI PUSH4 0x5F5E100 SWAP1 POP PUSH2 0xFEC JUMP JUMPDEST PUSH1 0x9 DUP3 PUSH1 0xFF AND SUB PUSH2 0xF17 JUMPI PUSH4 0x3B9ACA00 SWAP1 POP PUSH2 0xFEC JUMP JUMPDEST PUSH1 0xA DUP3 PUSH1 0xFF AND SUB PUSH2 0xF2F JUMPI PUSH5 0x2540BE400 SWAP1 POP PUSH2 0xFEC JUMP JUMPDEST PUSH1 0xB DUP3 PUSH1 0xFF AND SUB PUSH2 0xF47 JUMPI PUSH5 0x174876E800 SWAP1 POP PUSH2 0xFEC JUMP JUMPDEST PUSH1 0xC DUP3 PUSH1 0xFF AND SUB PUSH2 0xF5F JUMPI PUSH5 0xE8D4A51000 SWAP1 POP PUSH2 0xFEC JUMP JUMPDEST PUSH1 0xD DUP3 PUSH1 0xFF AND SUB PUSH2 0xF78 JUMPI PUSH6 0x9184E72A000 SWAP1 POP PUSH2 0xFEC JUMP JUMPDEST PUSH1 0xE DUP3 PUSH1 0xFF AND SUB PUSH2 0xF91 JUMPI PUSH6 0x5AF3107A4000 SWAP1 POP PUSH2 0xFEC JUMP JUMPDEST PUSH1 0xF DUP3 PUSH1 0xFF AND SUB PUSH2 0xFAB JUMPI PUSH7 0x38D7EA4C68000 SWAP1 POP PUSH2 0xFEC JUMP JUMPDEST PUSH1 0x10 DUP3 PUSH1 0xFF AND SUB PUSH2 0xFC5 JUMPI PUSH7 0x2386F26FC10000 SWAP1 POP PUSH2 0xFEC JUMP JUMPDEST PUSH1 0x11 DUP3 PUSH1 0xFF AND SUB PUSH2 0xFE0 JUMPI PUSH8 0x16345785D8A0000 SWAP1 POP PUSH2 0xFEC JUMP JUMPDEST PUSH8 0xDE0B6B3A7640000 SWAP1 POP JUMPDEST SWAP2 SWAP1 POP JUMP JUMPDEST PUSH0 PUSH0 REVERT JUMPDEST PUSH0 PUSH20 0xFFFFFFFFFFFFFFFFFFFFFFFFFFFFFFFFFFFFFFFF DUP3 AND SWAP1 POP SWAP2 SWAP1 POP JUMP JUMPDEST PUSH0 PUSH2 0x101E DUP3 PUSH2 0xFF5 JUMP JUMPDEST SWAP1 POP SWAP2 SWAP1 POP JUMP JUMPDEST PUSH2 0x102E DUP2 PUSH2 0x1014 JUMP JUMPDEST DUP2 EQ PUSH2 0x1038 JUMPI PUSH0 PUSH0 REVERT JUMPDEST POP JUMP JUMPDEST PUSH0 DUP2 CALLDATALOAD SWAP1 POP PUSH2 0x1049 DUP2 PUSH2 0x1025 JUMP JUMPDEST SWAP3 SWAP2 POP POP JUMP JUMPDEST PUSH0 PUSH1 0x20 DUP3 DUP5 SUB SLT ISZERO PUSH2 0x1064 JUMPI PUSH2 0x1063 PUSH2 0xFF1 JUMP JUMPDEST JUMPDEST PUSH0 PUSH2 0x1071 DUP5 DUP3 DUP6 ADD PUSH2 0x103B JUMP JUMPDEST SWAP2 POP POP SWAP3 SWAP2 POP POP JUMP JUMPDEST PUSH0 DUP2 SWAP1 POP SWAP2 SWAP1 POP JUMP JUMPDEST PUSH2 0x108C DUP2 PUSH2 0x107A JUMP JUMPDEST DUP3 MSTORE POP POP JUMP JUMPDEST PUSH0 PUSH1 0x20 DUP3 ADD SWAP1 POP PUSH2 0x10A5 PUSH0 DUP4 ADD DUP5 PUSH2 0x1083 JUMP JUMPDEST SWAP3 SWAP2 POP POP JUMP JUMPDEST PUSH2 0x10B4 DUP2 PUSH2 0x1014 JUMP JUMPDEST DUP3 MSTORE POP POP JUMP JUMPDEST PUSH0 PUSH1 0x20 DUP3 ADD SWAP1 POP PUSH2 0x10CD PUSH0 DUP4 ADD DUP5 PUSH2 0x10AB JUMP JUMPDEST SWAP3 SWAP2 POP POP JUMP JUMPDEST PUSH0 PUSH1 0xFF DUP3 AND SWAP1 POP SWAP2 SWAP1 POP JUMP JUMPDEST PUSH2 0x10E8 DUP2 PUSH2 0x10D3 JUMP JUMPDEST DUP3 MSTORE POP POP JUMP JUMPDEST PUSH0 PUSH1 0x20 DUP3 ADD SWAP1 POP PUSH2 0x1101 PUSH0 DUP4 ADD DUP5 PUSH2 0x10DF JUMP JUMPDEST SWAP3 SWAP2 POP POP JUMP JUMPDEST PUSH2 0x1110 DUP2 PUSH2 0x107A JUMP JUMPDEST DUP2 EQ PUSH2 0x111A JUMPI PUSH0 PUSH0 REVERT JUMPDEST POP JUMP JUMPDEST PUSH0 DUP2 MLOAD SWAP1 POP PUSH2 0x112B DUP2 PUSH2 0x1107 JUMP JUMPDEST SWAP3 SWAP2 POP POP JUMP JUMPDEST PUSH0 PUSH1 0x20 DUP3 DUP5 SUB SLT ISZERO PUSH2 0x1146 JUMPI PUSH2 0x1145 PUSH2 0xFF1 JUMP JUMPDEST JUMPDEST PUSH0 PUSH2 0x1153 DUP5 DUP3 DUP6 ADD PUSH2 0x111D JUMP JUMPDEST SWAP2 POP POP SWAP3 SWAP2 POP POP JUMP JUMPDEST PUSH2 0x1165 DUP2 PUSH2 0x10D3 JUMP JUMPDEST DUP2 EQ PUSH2 0x116F JUMPI PUSH0 PUSH0 REVERT JUMPDEST POP JUMP JUMPDEST PUSH0 DUP2 MLOAD SWAP1 POP PUSH2 0x1180 DUP2 PUSH2 0x115C JUMP JUMPDEST SWAP3 SWAP2 POP POP JUMP JUMPDEST PUSH0 PUSH1 0x20 DUP3 DUP5 SUB SLT ISZERO PUSH2 0x119B JUMPI PUSH2 0x119A PUSH2 0xFF1 JUMP JUMPDEST JUMPDEST PUSH0 PUSH2 0x11A8 DUP5 DUP3 DUP6 ADD PUSH2 0x1172 JUMP JUMPDEST SWAP2 POP POP SWAP3 SWAP2 POP POP JUMP JUMPDEST PUSH32 0x4E487B7100000000000000000000000000000000000000000000000000000000 PUSH0 MSTORE PUSH1 0x12 PUSH1 0x4 MSTORE PUSH1 0x24 PUSH0 REVERT JUMPDEST PUSH0 DUP3 DUP3 MSTORE PUSH1 0x20 DUP3 ADD SWAP1 POP SWAP3 SWAP2 POP POP JUMP JUMPDEST PUSH32 0x6D756C446976206F766572666C6F770000000000000000000000000000000000 PUSH0 DUP3 ADD MSTORE POP JUMP JUMPDEST PUSH0 PUSH2 0x1222 PUSH1 0xF DUP4 PUSH2 0x11DE JUMP JUMPDEST SWAP2 POP PUSH2 0x122D DUP3 PUSH2 0x11EE JUMP JUMPDEST PUSH1 0x20 DUP3 ADD SWAP1 POP SWAP2 SWAP1 POP JUMP JUMPDEST PUSH0 PUSH1 0x20 DUP3 ADD SWAP1 POP DUP2 DUP2 SUB PUSH0 DUP4 ADD MSTORE PUSH2 0x124F DUP2 PUSH2 0x1216 JUMP JUMPDEST SWAP1 POP SWAP2 SWAP1 POP JUMP JUMPDEST PUSH0 PUSH1 0x40 DUP3 ADD SWAP1 POP PUSH2 0x1269 PUSH0 DUP4 ADD DUP6 PUSH2 0x10AB JUMP JUMPDEST PUSH2 0x1276 PUSH1 0x20 DUP4 ADD DUP5 PUSH2 0x10AB JUMP JUMPDEST SWAP4 SWAP3 POP POP POP JUMP JUMPDEST PUSH0 DUP2 MLOAD SWAP1 POP PUSH2 0x128B DUP2 PUSH2 0x1025 JUMP JUMPDEST SWAP3 SWAP2 POP POP JUMP JUMPDEST PUSH0 PUSH1 0x20 DUP3 DUP5 SUB SLT ISZERO PUSH2 0x12A6 JUMPI PUSH2 0x12A5 PUSH2 0xFF1 JUMP JUMPDEST JUMPDEST PUSH0 PUSH2 0x12B3 DUP5 DUP3 DUP6 ADD PUSH2 0x127D JUMP JUMPDEST SWAP2 POP POP SWAP3 SWAP2 POP POP JUMP JUMPDEST PUSH0 PUSH14 0xFFFFFFFFFFFFFFFFFFFFFFFFFFFF DUP3 AND SWAP1 POP SWAP2 SWAP1 POP JUMP JUMPDEST PUSH2 0x12DE DUP2 PUSH2 0x12BC JUMP JUMPDEST DUP2 EQ PUSH2 0x12E8 JUMPI PUSH0 PUSH0 REVERT JUMPDEST POP JUMP JUMPDEST PUSH0 DUP2 MLOAD SWAP1 POP PUSH2 0x12F9 DUP2 PUSH2 0x12D5 JUMP JUMPDEST SWAP3 SWAP2 POP POP JUMP JUMPDEST PUSH0 PUSH4 0xFFFFFFFF DUP3 AND SWAP1 POP SWAP2 SWAP1 POP JUMP JUMPDEST PUSH2 0x1317 DUP2 PUSH2 0x12FF JUMP JUMPDEST DUP2 EQ PUSH2 0x1321 JUMPI PUSH0 PUSH0 REVERT JUMPDEST POP JUMP JUMPDEST PUSH0 DUP2 MLOAD SWAP1 POP PUSH2 0x1332 DUP2 PUSH2 0x130E JUMP JUMPDEST SWAP3 SWAP2 POP POP JUMP JUMPDEST PUSH0 PUSH0 PUSH0 PUSH1 0x60 DUP5 DUP7 SUB SLT ISZERO PUSH2 0x134F JUMPI PUSH2 0x134E PUSH2 0xFF1 JUMP JUMPDEST JUMPDEST PUSH0 PUSH2 0x135C DUP7 DUP3 DUP8 ADD PUSH2 0x12EB JUMP JUMPDEST SWAP4 POP POP PUSH1 0x20 PUSH2 0x136D DUP7 DUP3 DUP8 ADD PUSH2 0x12EB JUMP JUMPDEST SWAP3 POP POP PUSH1 0x40 PUSH2 0x137E DUP7 DUP3 DUP8 ADD PUSH2 0x1324 JUMP JUMPDEST SWAP2 POP POP SWAP3 POP SWAP3 POP SWAP3 JUMP INVALID LOG2 PUSH5 0x6970667358 0x22 SLT KECCAK256 0xB6 PUSH6 0xC5E5B8EBB751 SHL 0xBD SWAP10 0xB8 LT 0xBD EXTSTATICCALL EXTCODECOPY SWAPN 0x97 0xE CALLVALUE 0xDF SSTORE DELEGATECALL PUSH16 0x5D50AE7646DE394D64736F6C63430008 0x1E STOP CALLER "
				},
				"gasEstimates": {
					"creation": {
						"codeDepositCost": "1010800",
						"executionCost": "infinite",
						"totalCost": "infinite"
					},
					"external": {
						"UNISWAP_V2_FACTORY_ADDRESS()": "infinite",
						"WETH_ADDRESS()": "infinite",
						"WETH_DECIMALS()": "infinite",
						"WETH_USD_PAIR_ADDRESS()": "infinite",
						"getTokenLiquidityUsd(address)": "infinite",
						"getTokenLiquidityWeth(address)": "infinite",
						"getTokenMarketCapUsd(address)": "infinite",
						"getTokenMarketCapWeth(address)": "infinite",
						"getTokenUsdPrice(address)": "infinite",
						"getTokenWethPairAddress(address)": "infinite",
						"getTokenWethPrice(address)": "infinite",
						"getWethUsdPrice()": "infinite"
					}
				},
				"methodIdentifiers": {
					"UNISWAP_V2_FACTORY_ADDRESS()": "884ec7a9",
					"WETH_ADDRESS()": "040141e5",
					"WETH_DECIMALS()": "d08aef7c",
					"WETH_USD_PAIR_ADDRESS()": "0b017603",
					"getTokenLiquidityUsd(address)": "57b6c133",
					"getTokenLiquidityWeth(address)": "0dbc0d7d",
					"getTokenMarketCapUsd(address)": "69a2e17d",
					"getTokenMarketCapWeth(address)": "63aa0c93",
					"getTokenUsdPrice(address)": "00593bcf",
					"getTokenWethPairAddress(address)": "7d1aa610",
					"getTokenWethPrice(address)": "7b49b49d",
					"getWethUsdPrice()": "6855e939"
				}
			},
			"storageLayout": {
				"storage": [],
				"types": null
			},
			"userdoc": {
				"kind": "user",
				"methods": {
					"getTokenLiquidityUsd(address)": {
						"notice": "Total pool liquidity in USD for the TOKEN–WETH pair (scaled 1e18)."
					},
					"getTokenLiquidityWeth(address)": {
						"notice": "Total pool liquidity in WETH for the TOKEN–WETH pair (scaled 1e18). If TOKEN is WETH, returns WETH totalSupply (scaled to 1e18)."
					},
					"getTokenMarketCapUsd(address)": {
						"notice": "Market cap in USD for TOKEN (scaled 1e18)."
					},
					"getTokenMarketCapWeth(address)": {
						"notice": "Market cap in WETH for TOKEN (scaled 1e18): totalSupply * (WETH per 1 TOKEN). If TOKEN is WETH, this is simply WETH totalSupply (scaled 1e18)."
					},
					"getTokenUsdPrice(address)": {
						"notice": "USD price of 1 TOKEN (scaled 1e18)."
					},
					"getTokenWethPrice(address)": {
						"notice": "WETH per 1 TOKEN (scaled 1e18) for an arbitrary TOKEN–WETH pair. If TOKEN is WETH, returns 1e18."
					},
					"getWethUsdPrice()": {
						"notice": "USD per 1 WETH (scaled 1e18) using the stored WETH/USD pair."
					}
				},
				"version": 1
			}
		}
	}
}