{
	"hopium/standalone/main/price-oracle.sol": {
		"PriceOracle": {
			"abi": [
				{
					"inputs": [
						{
							"internalType": "address",
							"name": "_wethAddress",
							"type": "address"
						},
						{
							"internalType": "address",
							"name": "_wethUsdPairAddress",
							"type": "address"
						},
						{
							"internalType": "address",
							"name": "_uniswapV2FactoryAddress",
							"type": "address"
						}
					],
					"stateMutability": "nonpayable",
					"type": "constructor"
				},
				{
					"inputs": [],
					"name": "UNISWAP_V2_FACTORY_ADDRESS",
					"outputs": [
						{
							"internalType": "address",
							"name": "",
							"type": "address"
						}
					],
					"stateMutability": "view",
					"type": "function"
				},
				{
					"inputs": [],
					"name": "WETH_ADDRESS",
					"outputs": [
						{
							"internalType": "address",
							"name": "",
							"type": "address"
						}
					],
					"stateMutability": "view",
					"type": "function"
				},
				{
					"inputs": [],
					"name": "WETH_USD_PAIR_ADDRESS",
					"outputs": [
						{
							"internalType": "address",
							"name": "",
							"type": "address"
						}
					],
					"stateMutability": "view",
					"type": "function"
				},
				{
					"inputs": [
						{
							"internalType": "address",
							"name": "tokenAddress",
							"type": "address"
						}
					],
					"name": "getTokenLiquidityUsd",
					"outputs": [
						{
							"internalType": "uint256",
							"name": "totalLiquidityUsd18",
							"type": "uint256"
						}
					],
					"stateMutability": "view",
					"type": "function"
				},
				{
					"inputs": [
						{
							"internalType": "address",
							"name": "tokenAddress",
							"type": "address"
						}
					],
					"name": "getTokenLiquidityWeth",
					"outputs": [
						{
							"internalType": "uint256",
							"name": "",
							"type": "uint256"
						}
					],
					"stateMutability": "view",
					"type": "function"
				},
				{
					"inputs": [
						{
							"internalType": "address",
							"name": "tokenAddress",
							"type": "address"
						}
					],
					"name": "getTokenMarketCapUsd",
					"outputs": [
						{
							"internalType": "uint256",
							"name": "marketCapUsd18",
							"type": "uint256"
						}
					],
					"stateMutability": "view",
					"type": "function"
				},
				{
					"inputs": [
						{
							"internalType": "address",
							"name": "tokenAddress",
							"type": "address"
						}
					],
					"name": "getTokenMarketCapWeth",
					"outputs": [
						{
							"internalType": "uint256",
							"name": "",
							"type": "uint256"
						}
					],
					"stateMutability": "view",
					"type": "function"
				},
				{
					"inputs": [
						{
							"internalType": "address",
							"name": "tokenAddress",
							"type": "address"
						}
					],
					"name": "getTokenUsdPrice",
					"outputs": [
						{
							"internalType": "uint256",
							"name": "price18",
							"type": "uint256"
						}
					],
					"stateMutability": "view",
					"type": "function"
				},
				{
					"inputs": [
						{
							"internalType": "address",
							"name": "tokenAddress",
							"type": "address"
						}
					],
					"name": "getTokenWethPairAddress",
					"outputs": [
						{
							"internalType": "address",
							"name": "",
							"type": "address"
						}
					],
					"stateMutability": "view",
					"type": "function"
				},
				{
					"inputs": [
						{
							"internalType": "address",
							"name": "tokenAddress",
							"type": "address"
						}
					],
					"name": "getTokenWethPrice",
					"outputs": [
						{
							"internalType": "uint256",
							"name": "",
							"type": "uint256"
						}
					],
					"stateMutability": "view",
					"type": "function"
				},
				{
					"inputs": [],
					"name": "getWethUsdPrice",
					"outputs": [
						{
							"internalType": "uint256",
							"name": "price18",
							"type": "uint256"
						}
					],
					"stateMutability": "view",
					"type": "function"
				}
			],
			"devdoc": {
				"kind": "dev",
				"methods": {},
				"version": 1
			},
			"evm": {
				"assembly": "    /* \"hopium/standalone/main/price-oracle.sol\":2926:7736  contract PriceOracle is Helpers {... */\n  mstore(0x40, 0x80)\n    /* \"hopium/standalone/main/price-oracle.sol\":2964:3221  constructor(address _wethAddress, address _wethUsdPairAddress, address _uniswapV2FactoryAddress) {... */\n  callvalue\n  dup1\n  iszero\n  tag_1\n  jumpi\n  revert(0x00, 0x00)\ntag_1:\n  pop\n  mload(0x40)\n  sub(codesize, bytecodeSize)\n  dup1\n  bytecodeSize\n  dup4\n  codecopy\n  dup2\n  dup2\n  add\n  0x40\n  mstore\n  dup2\n  add\n  swap1\n  tag_2\n  swap2\n  swap1\n  tag_3\n  jump\t// in\ntag_2:\n    /* \"hopium/standalone/main/price-oracle.sol\":3086:3098  _wethAddress */\n  dup3\n    /* \"hopium/standalone/main/price-oracle.sol\":3071:3083  WETH_ADDRESS */\n  0x00\n  0x00\n    /* \"hopium/standalone/main/price-oracle.sol\":3071:3098  WETH_ADDRESS = _wethAddress */\n  0x0100\n  exp\n  dup2\n  sload\n  dup2\n  0xffffffffffffffffffffffffffffffffffffffff\n  mul\n  not\n  and\n  swap1\n  dup4\n  0xffffffffffffffffffffffffffffffffffffffff\n  and\n  mul\n  or\n  swap1\n  sstore\n  pop\n    /* \"hopium/standalone/main/price-oracle.sol\":3132:3151  _wethUsdPairAddress */\n  dup2\n    /* \"hopium/standalone/main/price-oracle.sol\":3108:3129  WETH_USD_PAIR_ADDRESS */\n  0x01\n  0x00\n    /* \"hopium/standalone/main/price-oracle.sol\":3108:3151  WETH_USD_PAIR_ADDRESS = _wethUsdPairAddress */\n  0x0100\n  exp\n  dup2\n  sload\n  dup2\n  0xffffffffffffffffffffffffffffffffffffffff\n  mul\n  not\n  and\n  swap1\n  dup4\n  0xffffffffffffffffffffffffffffffffffffffff\n  and\n  mul\n  or\n  swap1\n  sstore\n  pop\n    /* \"hopium/standalone/main/price-oracle.sol\":3190:3214  _uniswapV2FactoryAddress */\n  dup1\n    /* \"hopium/standalone/main/price-oracle.sol\":3161:3187  UNISWAP_V2_FACTORY_ADDRESS */\n  0x02\n  0x00\n    /* \"hopium/standalone/main/price-oracle.sol\":3161:3214  UNISWAP_V2_FACTORY_ADDRESS = _uniswapV2FactoryAddress */\n  0x0100\n  exp\n  dup2\n  sload\n  dup2\n  0xffffffffffffffffffffffffffffffffffffffff\n  mul\n  not\n  and\n  swap1\n  dup4\n  0xffffffffffffffffffffffffffffffffffffffff\n  and\n  mul\n  or\n  swap1\n  sstore\n  pop\n    /* \"hopium/standalone/main/price-oracle.sol\":2964:3221  constructor(address _wethAddress, address _wethUsdPairAddress, address _uniswapV2FactoryAddress) {... */\n  pop\n  pop\n  pop\n    /* \"hopium/standalone/main/price-oracle.sol\":2926:7736  contract PriceOracle is Helpers {... */\n  jump(tag_6)\n    /* \"#utility.yul\":88:205   */\ntag_8:\n    /* \"#utility.yul\":197:198   */\n  0x00\n    /* \"#utility.yul\":194:195   */\n  0x00\n    /* \"#utility.yul\":187:199   */\n  revert\n    /* \"#utility.yul\":334:460   */\ntag_10:\n    /* \"#utility.yul\":371:378   */\n  0x00\n    /* \"#utility.yul\":411:453   */\n  0xffffffffffffffffffffffffffffffffffffffff\n    /* \"#utility.yul\":404:409   */\n  dup3\n    /* \"#utility.yul\":400:454   */\n  and\n    /* \"#utility.yul\":389:454   */\n  swap1\n  pop\n    /* \"#utility.yul\":334:460   */\n  swap2\n  swap1\n  pop\n  jump\t// out\n    /* \"#utility.yul\":466:562   */\ntag_11:\n    /* \"#utility.yul\":503:510   */\n  0x00\n    /* \"#utility.yul\":532:556   */\n  tag_20\n    /* \"#utility.yul\":550:555   */\n  dup3\n    /* \"#utility.yul\":532:556   */\n  tag_10\n  jump\t// in\ntag_20:\n    /* \"#utility.yul\":521:556   */\n  swap1\n  pop\n    /* \"#utility.yul\":466:562   */\n  swap2\n  swap1\n  pop\n  jump\t// out\n    /* \"#utility.yul\":568:690   */\ntag_12:\n    /* \"#utility.yul\":641:665   */\n  tag_22\n    /* \"#utility.yul\":659:664   */\n  dup2\n    /* \"#utility.yul\":641:665   */\n  tag_11\n  jump\t// in\ntag_22:\n    /* \"#utility.yul\":634:639   */\n  dup2\n    /* \"#utility.yul\":631:666   */\n  eq\n    /* \"#utility.yul\":621:684   */\n  tag_23\n  jumpi\n    /* \"#utility.yul\":680:681   */\n  0x00\n    /* \"#utility.yul\":677:678   */\n  0x00\n    /* \"#utility.yul\":670:682   */\n  revert\n    /* \"#utility.yul\":621:684   */\ntag_23:\n    /* \"#utility.yul\":568:690   */\n  pop\n  jump\t// out\n    /* \"#utility.yul\":696:839   */\ntag_13:\n    /* \"#utility.yul\":753:758   */\n  0x00\n    /* \"#utility.yul\":784:790   */\n  dup2\n    /* \"#utility.yul\":778:791   */\n  mload\n    /* \"#utility.yul\":769:791   */\n  swap1\n  pop\n    /* \"#utility.yul\":800:833   */\n  tag_25\n    /* \"#utility.yul\":827:832   */\n  dup2\n    /* \"#utility.yul\":800:833   */\n  tag_12\n  jump\t// in\ntag_25:\n    /* \"#utility.yul\":696:839   */\n  swap3\n  swap2\n  pop\n  pop\n  jump\t// out\n    /* \"#utility.yul\":845:1508   */\ntag_3:\n    /* \"#utility.yul\":933:939   */\n  0x00\n    /* \"#utility.yul\":941:947   */\n  0x00\n    /* \"#utility.yul\":949:955   */\n  0x00\n    /* \"#utility.yul\":998:1000   */\n  0x60\n    /* \"#utility.yul\":986:995   */\n  dup5\n    /* \"#utility.yul\":977:984   */\n  dup7\n    /* \"#utility.yul\":973:996   */\n  sub\n    /* \"#utility.yul\":969:1001   */\n  slt\n    /* \"#utility.yul\":966:1085   */\n  iszero\n  tag_27\n  jumpi\n    /* \"#utility.yul\":1004:1083   */\n  tag_28\n  tag_8\n  jump\t// in\ntag_28:\n    /* \"#utility.yul\":966:1085   */\ntag_27:\n    /* \"#utility.yul\":1124:1125   */\n  0x00\n    /* \"#utility.yul\":1149:1213   */\n  tag_29\n    /* \"#utility.yul\":1205:1212   */\n  dup7\n    /* \"#utility.yul\":1196:1202   */\n  dup3\n    /* \"#utility.yul\":1185:1194   */\n  dup8\n    /* \"#utility.yul\":1181:1203   */\n  add\n    /* \"#utility.yul\":1149:1213   */\n  tag_13\n  jump\t// in\ntag_29:\n    /* \"#utility.yul\":1139:1213   */\n  swap4\n  pop\n    /* \"#utility.yul\":1095:1223   */\n  pop\n    /* \"#utility.yul\":1262:1264   */\n  0x20\n    /* \"#utility.yul\":1288:1352   */\n  tag_30\n    /* \"#utility.yul\":1344:1351   */\n  dup7\n    /* \"#utility.yul\":1335:1341   */\n  dup3\n    /* \"#utility.yul\":1324:1333   */\n  dup8\n    /* \"#utility.yul\":1320:1342   */\n  add\n    /* \"#utility.yul\":1288:1352   */\n  tag_13\n  jump\t// in\ntag_30:\n    /* \"#utility.yul\":1278:1352   */\n  swap3\n  pop\n    /* \"#utility.yul\":1233:1362   */\n  pop\n    /* \"#utility.yul\":1401:1403   */\n  0x40\n    /* \"#utility.yul\":1427:1491   */\n  tag_31\n    /* \"#utility.yul\":1483:1490   */\n  dup7\n    /* \"#utility.yul\":1474:1480   */\n  dup3\n    /* \"#utility.yul\":1463:1472   */\n  dup8\n    /* \"#utility.yul\":1459:1481   */\n  add\n    /* \"#utility.yul\":1427:1491   */\n  tag_13\n  jump\t// in\ntag_31:\n    /* \"#utility.yul\":1417:1491   */\n  swap2\n  pop\n    /* \"#utility.yul\":1372:1501   */\n  pop\n    /* \"#utility.yul\":845:1508   */\n  swap3\n  pop\n  swap3\n  pop\n  swap3\n  jump\t// out\n    /* \"hopium/standalone/main/price-oracle.sol\":2926:7736  contract PriceOracle is Helpers {... */\ntag_6:\n  dataSize(sub_0)\n  dup1\n  dataOffset(sub_0)\n  0x00\n  codecopy\n  0x00\n  return\nstop\n\nsub_0: assembly {\n        /* \"hopium/standalone/main/price-oracle.sol\":2926:7736  contract PriceOracle is Helpers {... */\n      mstore(0x40, 0x80)\n      callvalue\n      dup1\n      iszero\n      tag_1\n      jumpi\n      revert(0x00, 0x00)\n    tag_1:\n      pop\n      jumpi(tag_2, lt(calldatasize, 0x04))\n      shr(0xe0, calldataload(0x00))\n      dup1\n      0x63aa0c93\n      gt\n      tag_14\n      jumpi\n      dup1\n      0x63aa0c93\n      eq\n      tag_8\n      jumpi\n      dup1\n      0x6855e939\n      eq\n      tag_9\n      jumpi\n      dup1\n      0x69a2e17d\n      eq\n      tag_10\n      jumpi\n      dup1\n      0x7b49b49d\n      eq\n      tag_11\n      jumpi\n      dup1\n      0x7d1aa610\n      eq\n      tag_12\n      jumpi\n      dup1\n      0x884ec7a9\n      eq\n      tag_13\n      jumpi\n      jump(tag_2)\n    tag_14:\n      dup1\n      0x593bcf\n      eq\n      tag_3\n      jumpi\n      dup1\n      0x040141e5\n      eq\n      tag_4\n      jumpi\n      dup1\n      0x0b017603\n      eq\n      tag_5\n      jumpi\n      dup1\n      0x0dbc0d7d\n      eq\n      tag_6\n      jumpi\n      dup1\n      0x57b6c133\n      eq\n      tag_7\n      jumpi\n    tag_2:\n      revert(0x00, 0x00)\n        /* \"hopium/standalone/main/price-oracle.sol\":4415:4772  function getTokenUsdPrice(address tokenAddress) public view returns (uint256 price18) {... */\n    tag_3:\n      tag_15\n      0x04\n      dup1\n      calldatasize\n      sub\n      dup2\n      add\n      swap1\n      tag_16\n      swap2\n      swap1\n      tag_17\n      jump\t// in\n    tag_16:\n      tag_18\n      jump\t// in\n    tag_15:\n      mload(0x40)\n      tag_19\n      swap2\n      swap1\n      tag_20\n      jump\t// in\n    tag_19:\n      mload(0x40)\n      dup1\n      swap2\n      sub\n      swap1\n      return\n        /* \"hopium/standalone/main/price-oracle.sol\":601:628  address public WETH_ADDRESS */\n    tag_4:\n      tag_21\n      tag_22\n      jump\t// in\n    tag_21:\n      mload(0x40)\n      tag_23\n      swap2\n      swap1\n      tag_24\n      jump\t// in\n    tag_23:\n      mload(0x40)\n      dup1\n      swap2\n      sub\n      swap1\n      return\n        /* \"hopium/standalone/main/price-oracle.sol\":634:670  address public WETH_USD_PAIR_ADDRESS */\n    tag_5:\n      tag_25\n      tag_26\n      jump\t// in\n    tag_25:\n      mload(0x40)\n      tag_27\n      swap2\n      swap1\n      tag_24\n      jump\t// in\n    tag_27:\n      mload(0x40)\n      dup1\n      swap2\n      sub\n      swap1\n      return\n        /* \"hopium/standalone/main/price-oracle.sol\":4925:6076  function getTokenLiquidityWeth(address tokenAddress) public view returns (uint256) {... */\n    tag_6:\n      tag_28\n      0x04\n      dup1\n      calldatasize\n      sub\n      dup2\n      add\n      swap1\n      tag_29\n      swap2\n      swap1\n      tag_17\n      jump\t// in\n    tag_29:\n      tag_30\n      jump\t// in\n    tag_28:\n      mload(0x40)\n      tag_31\n      swap2\n      swap1\n      tag_20\n      jump\t// in\n    tag_31:\n      mload(0x40)\n      dup1\n      swap2\n      sub\n      swap1\n      return\n        /* \"hopium/standalone/main/price-oracle.sol\":6160:6473  function getTokenLiquidityUsd(address tokenAddress) external view returns (uint256 totalLiquidityUsd18) {... */\n    tag_7:\n      tag_32\n      0x04\n      dup1\n      calldatasize\n      sub\n      dup2\n      add\n      swap1\n      tag_33\n      swap2\n      swap1\n      tag_17\n      jump\t// in\n    tag_33:\n      tag_34\n      jump\t// in\n    tag_32:\n      mload(0x40)\n      tag_35\n      swap2\n      swap1\n      tag_20\n      jump\t// in\n    tag_35:\n      mload(0x40)\n      dup1\n      swap2\n      sub\n      swap1\n      return\n        /* \"hopium/standalone/main/price-oracle.sol\":6657:7225  function getTokenMarketCapWeth(address tokenAddress) public view returns (uint256) {... */\n    tag_8:\n      tag_36\n      0x04\n      dup1\n      calldatasize\n      sub\n      dup2\n      add\n      swap1\n      tag_37\n      swap2\n      swap1\n      tag_17\n      jump\t// in\n    tag_37:\n      tag_38\n      jump\t// in\n    tag_36:\n      mload(0x40)\n      tag_39\n      swap2\n      swap1\n      tag_20\n      jump\t// in\n    tag_39:\n      mload(0x40)\n      dup1\n      swap2\n      sub\n      swap1\n      return\n        /* \"hopium/standalone/main/price-oracle.sol\":3312:3630  function getWethUsdPrice() public view returns (uint256 price18) {... */\n    tag_9:\n      tag_40\n      tag_41\n      jump\t// in\n    tag_40:\n      mload(0x40)\n      tag_42\n      swap2\n      swap1\n      tag_20\n      jump\t// in\n    tag_42:\n      mload(0x40)\n      dup1\n      swap2\n      sub\n      swap1\n      return\n        /* \"hopium/standalone/main/price-oracle.sol\":7298:7577  function getTokenMarketCapUsd(address tokenAddress) external view returns (uint256 marketCapUsd18) {... */\n    tag_10:\n      tag_43\n      0x04\n      dup1\n      calldatasize\n      sub\n      dup2\n      add\n      swap1\n      tag_44\n      swap2\n      swap1\n      tag_17\n      jump\t// in\n    tag_44:\n      tag_45\n      jump\t// in\n    tag_43:\n      mload(0x40)\n      tag_46\n      swap2\n      swap1\n      tag_20\n      jump\t// in\n    tag_46:\n      mload(0x40)\n      dup1\n      swap2\n      sub\n      swap1\n      return\n        /* \"hopium/standalone/main/price-oracle.sol\":3765:4350  function getTokenWethPrice(address tokenAddress) public view returns (uint256) {... */\n    tag_11:\n      tag_47\n      0x04\n      dup1\n      calldatasize\n      sub\n      dup2\n      add\n      swap1\n      tag_48\n      swap2\n      swap1\n      tag_17\n      jump\t// in\n    tag_48:\n      tag_49\n      jump\t// in\n    tag_47:\n      mload(0x40)\n      tag_50\n      swap2\n      swap1\n      tag_20\n      jump\t// in\n    tag_50:\n      mload(0x40)\n      dup1\n      swap2\n      sub\n      swap1\n      return\n        /* \"hopium/standalone/main/price-oracle.sol\":7583:7734  function getTokenWethPairAddress(address tokenAddress) external view returns (address) {... */\n    tag_12:\n      tag_51\n      0x04\n      dup1\n      calldatasize\n      sub\n      dup2\n      add\n      swap1\n      tag_52\n      swap2\n      swap1\n      tag_17\n      jump\t// in\n    tag_52:\n      tag_53\n      jump\t// in\n    tag_51:\n      mload(0x40)\n      tag_54\n      swap2\n      swap1\n      tag_24\n      jump\t// in\n    tag_54:\n      mload(0x40)\n      dup1\n      swap2\n      sub\n      swap1\n      return\n        /* \"hopium/standalone/main/price-oracle.sol\":676:717  address public UNISWAP_V2_FACTORY_ADDRESS */\n    tag_13:\n      tag_55\n      tag_56\n      jump\t// in\n    tag_55:\n      mload(0x40)\n      tag_57\n      swap2\n      swap1\n      tag_24\n      jump\t// in\n    tag_57:\n      mload(0x40)\n      dup1\n      swap2\n      sub\n      swap1\n      return\n        /* \"hopium/standalone/main/price-oracle.sol\":4415:4772  function getTokenUsdPrice(address tokenAddress) public view returns (uint256 price18) {... */\n    tag_18:\n        /* \"hopium/standalone/main/price-oracle.sol\":4484:4499  uint256 price18 */\n      0x00\n        /* \"hopium/standalone/main/price-oracle.sol\":4511:4528  uint256 tokenWeth */\n      0x00\n        /* \"hopium/standalone/main/price-oracle.sol\":4531:4562  getTokenWethPrice(tokenAddress) */\n      tag_59\n        /* \"hopium/standalone/main/price-oracle.sol\":4549:4561  tokenAddress */\n      dup4\n        /* \"hopium/standalone/main/price-oracle.sol\":4531:4548  getTokenWethPrice */\n      tag_49\n        /* \"hopium/standalone/main/price-oracle.sol\":4531:4562  getTokenWethPrice(tokenAddress) */\n      jump\t// in\n    tag_59:\n        /* \"hopium/standalone/main/price-oracle.sol\":4511:4562  uint256 tokenWeth = getTokenWethPrice(tokenAddress) */\n      swap1\n      pop\n        /* \"hopium/standalone/main/price-oracle.sol\":4592:4607  uint256 wethUsd */\n      0x00\n        /* \"hopium/standalone/main/price-oracle.sol\":4612:4629  getWethUsdPrice() */\n      tag_60\n        /* \"hopium/standalone/main/price-oracle.sol\":4612:4627  getWethUsdPrice */\n      tag_41\n        /* \"hopium/standalone/main/price-oracle.sol\":4612:4629  getWethUsdPrice() */\n      jump\t// in\n    tag_60:\n        /* \"hopium/standalone/main/price-oracle.sol\":4592:4629  uint256 wethUsd   = getWethUsdPrice() */\n      swap1\n      pop\n        /* \"hopium/standalone/main/price-oracle.sol\":4761:4765  1e18 */\n      0x0de0b6b3a7640000\n        /* \"hopium/standalone/main/price-oracle.sol\":4750:4757  wethUsd */\n      dup2\n        /* \"hopium/standalone/main/price-oracle.sol\":4738:4747  tokenWeth */\n      dup4\n        /* \"hopium/standalone/main/price-oracle.sol\":4738:4757  tokenWeth * wethUsd */\n      tag_61\n      swap2\n      swap1\n      tag_62\n      jump\t// in\n    tag_61:\n        /* \"hopium/standalone/main/price-oracle.sol\":4737:4765  (tokenWeth * wethUsd) / 1e18 */\n      tag_63\n      swap2\n      swap1\n      tag_64\n      jump\t// in\n    tag_63:\n        /* \"hopium/standalone/main/price-oracle.sol\":4727:4765  price18 = (tokenWeth * wethUsd) / 1e18 */\n      swap3\n      pop\n        /* \"hopium/standalone/main/price-oracle.sol\":4501:4772  {... */\n      pop\n      pop\n        /* \"hopium/standalone/main/price-oracle.sol\":4415:4772  function getTokenUsdPrice(address tokenAddress) public view returns (uint256 price18) {... */\n      swap2\n      swap1\n      pop\n      jump\t// out\n        /* \"hopium/standalone/main/price-oracle.sol\":601:628  address public WETH_ADDRESS */\n    tag_22:\n      0x00\n      0x00\n      swap1\n      sload\n      swap1\n      0x0100\n      exp\n      swap1\n      div\n      0xffffffffffffffffffffffffffffffffffffffff\n      and\n      dup2\n      jump\t// out\n        /* \"hopium/standalone/main/price-oracle.sol\":634:670  address public WETH_USD_PAIR_ADDRESS */\n    tag_26:\n      0x01\n      0x00\n      swap1\n      sload\n      swap1\n      0x0100\n      exp\n      swap1\n      div\n      0xffffffffffffffffffffffffffffffffffffffff\n      and\n      dup2\n      jump\t// out\n        /* \"hopium/standalone/main/price-oracle.sol\":4925:6076  function getTokenLiquidityWeth(address tokenAddress) public view returns (uint256) {... */\n    tag_30:\n        /* \"hopium/standalone/main/price-oracle.sol\":4999:5006  uint256 */\n      0x00\n        /* \"hopium/standalone/main/price-oracle.sol\":5038:5050  WETH_ADDRESS */\n      0x00\n      0x00\n      swap1\n      sload\n      swap1\n      0x0100\n      exp\n      swap1\n      div\n      0xffffffffffffffffffffffffffffffffffffffff\n      and\n        /* \"hopium/standalone/main/price-oracle.sol\":5022:5050  tokenAddress == WETH_ADDRESS */\n      0xffffffffffffffffffffffffffffffffffffffff\n      and\n        /* \"hopium/standalone/main/price-oracle.sol\":5022:5034  tokenAddress */\n      dup3\n        /* \"hopium/standalone/main/price-oracle.sol\":5022:5050  tokenAddress == WETH_ADDRESS */\n      0xffffffffffffffffffffffffffffffffffffffff\n      and\n      sub\n        /* \"hopium/standalone/main/price-oracle.sol\":5018:6070  if (tokenAddress == WETH_ADDRESS) {... */\n      tag_66\n      jumpi\n        /* \"hopium/standalone/main/price-oracle.sol\":5066:5076  uint8 decW */\n      0x00\n        /* \"hopium/standalone/main/price-oracle.sol\":5094:5106  WETH_ADDRESS */\n      0x00\n      0x00\n      swap1\n      sload\n      swap1\n      0x0100\n      exp\n      swap1\n      div\n      0xffffffffffffffffffffffffffffffffffffffff\n      and\n        /* \"hopium/standalone/main/price-oracle.sol\":5079:5116  IERC20Metadata(WETH_ADDRESS).decimals */\n      0xffffffffffffffffffffffffffffffffffffffff\n      and\n      0x313ce567\n        /* \"hopium/standalone/main/price-oracle.sol\":5079:5118  IERC20Metadata(WETH_ADDRESS).decimals() */\n      mload(0x40)\n      dup2\n      0xffffffff\n      and\n      0xe0\n      shl\n      dup2\n      mstore\n      0x04\n      add\n      0x20\n      mload(0x40)\n      dup1\n      dup4\n      sub\n      dup2\n      dup7\n      gas\n      staticcall\n      iszero\n      dup1\n      iszero\n      tag_68\n      jumpi\n      returndatacopy(0x00, 0x00, returndatasize)\n      revert(0x00, returndatasize)\n    tag_68:\n      pop\n      pop\n      pop\n      pop\n      mload(0x40)\n      returndatasize\n      not(0x1f)\n      0x1f\n      dup3\n      add\n      and\n      dup3\n      add\n      dup1\n      0x40\n      mstore\n      pop\n      dup2\n      add\n      swap1\n      tag_69\n      swap2\n      swap1\n      tag_70\n      jump\t// in\n    tag_69:\n        /* \"hopium/standalone/main/price-oracle.sol\":5066:5118  uint8 decW = IERC20Metadata(WETH_ADDRESS).decimals() */\n      swap1\n      pop\n        /* \"hopium/standalone/main/price-oracle.sol\":5132:5146  uint256 supply */\n      0x00\n        /* \"hopium/standalone/main/price-oracle.sol\":5156:5168  WETH_ADDRESS */\n      0x00\n      0x00\n      swap1\n      sload\n      swap1\n      0x0100\n      exp\n      swap1\n      div\n      0xffffffffffffffffffffffffffffffffffffffff\n      and\n        /* \"hopium/standalone/main/price-oracle.sol\":5149:5181  IERC20(WETH_ADDRESS).totalSupply */\n      0xffffffffffffffffffffffffffffffffffffffff\n      and\n      0x18160ddd\n        /* \"hopium/standalone/main/price-oracle.sol\":5149:5183  IERC20(WETH_ADDRESS).totalSupply() */\n      mload(0x40)\n      dup2\n      0xffffffff\n      and\n      0xe0\n      shl\n      dup2\n      mstore\n      0x04\n      add\n      0x20\n      mload(0x40)\n      dup1\n      dup4\n      sub\n      dup2\n      dup7\n      gas\n      staticcall\n      iszero\n      dup1\n      iszero\n      tag_72\n      jumpi\n      returndatacopy(0x00, 0x00, returndatasize)\n      revert(0x00, returndatasize)\n    tag_72:\n      pop\n      pop\n      pop\n      pop\n      mload(0x40)\n      returndatasize\n      not(0x1f)\n      0x1f\n      dup3\n      add\n      and\n      dup3\n      add\n      dup1\n      0x40\n      mstore\n      pop\n      dup2\n      add\n      swap1\n      tag_73\n      swap2\n      swap1\n      tag_74\n      jump\t// in\n    tag_73:\n        /* \"hopium/standalone/main/price-oracle.sol\":5132:5183  uint256 supply = IERC20(WETH_ADDRESS).totalSupply() */\n      swap1\n      pop\n        /* \"hopium/standalone/main/price-oracle.sol\":5204:5230  _scaleTo1e18(supply, decW) */\n      tag_75\n        /* \"hopium/standalone/main/price-oracle.sol\":5217:5223  supply */\n      dup2\n        /* \"hopium/standalone/main/price-oracle.sol\":5225:5229  decW */\n      dup4\n        /* \"hopium/standalone/main/price-oracle.sol\":5204:5216  _scaleTo1e18 */\n      tag_76\n        /* \"hopium/standalone/main/price-oracle.sol\":5204:5230  _scaleTo1e18(supply, decW) */\n      jump\t// in\n    tag_75:\n        /* \"hopium/standalone/main/price-oracle.sol\":5197:5230  return _scaleTo1e18(supply, decW) */\n      swap3\n      pop\n      pop\n      pop\n      jump(tag_65)\n        /* \"hopium/standalone/main/price-oracle.sol\":5018:6070  if (tokenAddress == WETH_ADDRESS) {... */\n    tag_66:\n        /* \"hopium/standalone/main/price-oracle.sol\":5261:5280  address pairAddress */\n      0x00\n        /* \"hopium/standalone/main/price-oracle.sol\":5283:5323  _getTokenToWethPairAddress(tokenAddress) */\n      tag_78\n        /* \"hopium/standalone/main/price-oracle.sol\":5310:5322  tokenAddress */\n      dup4\n        /* \"hopium/standalone/main/price-oracle.sol\":5283:5309  _getTokenToWethPairAddress */\n      tag_79\n        /* \"hopium/standalone/main/price-oracle.sol\":5283:5323  _getTokenToWethPairAddress(tokenAddress) */\n      jump\t// in\n    tag_78:\n        /* \"hopium/standalone/main/price-oracle.sol\":5261:5323  address pairAddress = _getTokenToWethPairAddress(tokenAddress) */\n      swap1\n      pop\n        /* \"hopium/standalone/main/price-oracle.sol\":5338:5358  uint256 reserveToken */\n      0x00\n        /* \"hopium/standalone/main/price-oracle.sol\":5360:5370  uint8 decT */\n      0x00\n        /* \"hopium/standalone/main/price-oracle.sol\":5372:5391  uint256 reserveWeth */\n      0x00\n        /* \"hopium/standalone/main/price-oracle.sol\":5393:5403  uint8 decW */\n      0x00\n        /* \"hopium/standalone/main/price-oracle.sol\":5424:5470  _getOrderedReserves(pairAddress, tokenAddress) */\n      tag_80\n        /* \"hopium/standalone/main/price-oracle.sol\":5444:5455  pairAddress */\n      dup6\n        /* \"hopium/standalone/main/price-oracle.sol\":5457:5469  tokenAddress */\n      dup9\n        /* \"hopium/standalone/main/price-oracle.sol\":5424:5443  _getOrderedReserves */\n      tag_81\n        /* \"hopium/standalone/main/price-oracle.sol\":5424:5470  _getOrderedReserves(pairAddress, tokenAddress) */\n      jump\t// in\n    tag_80:\n        /* \"hopium/standalone/main/price-oracle.sol\":5337:5470  (uint256 reserveToken, uint8 decT, uint256 reserveWeth, uint8 decW,) =... */\n      pop\n      swap4\n      pop\n      swap4\n      pop\n      swap4\n      pop\n      swap4\n      pop\n        /* \"hopium/standalone/main/price-oracle.sol\":5485:5506  uint256 tokenAmount18 */\n      0x00\n        /* \"hopium/standalone/main/price-oracle.sol\":5509:5541  _scaleTo1e18(reserveToken, decT) */\n      tag_82\n        /* \"hopium/standalone/main/price-oracle.sol\":5522:5534  reserveToken */\n      dup6\n        /* \"hopium/standalone/main/price-oracle.sol\":5536:5540  decT */\n      dup6\n        /* \"hopium/standalone/main/price-oracle.sol\":5509:5521  _scaleTo1e18 */\n      tag_76\n        /* \"hopium/standalone/main/price-oracle.sol\":5509:5541  _scaleTo1e18(reserveToken, decT) */\n      jump\t// in\n    tag_82:\n        /* \"hopium/standalone/main/price-oracle.sol\":5485:5541  uint256 tokenAmount18 = _scaleTo1e18(reserveToken, decT) */\n      swap1\n      pop\n        /* \"hopium/standalone/main/price-oracle.sol\":5555:5575  uint256 wethAmount18 */\n      0x00\n        /* \"hopium/standalone/main/price-oracle.sol\":5579:5610  _scaleTo1e18(reserveWeth, decW) */\n      tag_83\n        /* \"hopium/standalone/main/price-oracle.sol\":5592:5603  reserveWeth */\n      dup5\n        /* \"hopium/standalone/main/price-oracle.sol\":5605:5609  decW */\n      dup5\n        /* \"hopium/standalone/main/price-oracle.sol\":5579:5591  _scaleTo1e18 */\n      tag_76\n        /* \"hopium/standalone/main/price-oracle.sol\":5579:5610  _scaleTo1e18(reserveWeth, decW) */\n      jump\t// in\n    tag_83:\n        /* \"hopium/standalone/main/price-oracle.sol\":5555:5610  uint256 wethAmount18  = _scaleTo1e18(reserveWeth, decW) */\n      swap1\n      pop\n        /* \"hopium/standalone/main/price-oracle.sol\":5671:5697  uint256 tokenPriceInWeth18 */\n      0x00\n        /* \"hopium/standalone/main/price-oracle.sol\":5700:5731  getTokenWethPrice(tokenAddress) */\n      tag_84\n        /* \"hopium/standalone/main/price-oracle.sol\":5718:5730  tokenAddress */\n      dup11\n        /* \"hopium/standalone/main/price-oracle.sol\":5700:5717  getTokenWethPrice */\n      tag_49\n        /* \"hopium/standalone/main/price-oracle.sol\":5700:5731  getTokenWethPrice(tokenAddress) */\n      jump\t// in\n    tag_84:\n        /* \"hopium/standalone/main/price-oracle.sol\":5671:5731  uint256 tokenPriceInWeth18 = getTokenWethPrice(tokenAddress) */\n      swap1\n      pop\n        /* \"hopium/standalone/main/price-oracle.sol\":5789:5815  uint256 tokenValueInWeth18 */\n      0x00\n        /* \"hopium/standalone/main/price-oracle.sol\":5857:5861  1e18 */\n      0x0de0b6b3a7640000\n        /* \"hopium/standalone/main/price-oracle.sol\":5835:5853  tokenPriceInWeth18 */\n      dup3\n        /* \"hopium/standalone/main/price-oracle.sol\":5819:5832  tokenAmount18 */\n      dup6\n        /* \"hopium/standalone/main/price-oracle.sol\":5819:5853  tokenAmount18 * tokenPriceInWeth18 */\n      tag_85\n      swap2\n      swap1\n      tag_62\n      jump\t// in\n    tag_85:\n        /* \"hopium/standalone/main/price-oracle.sol\":5818:5861  (tokenAmount18 * tokenPriceInWeth18) / 1e18 */\n      tag_86\n      swap2\n      swap1\n      tag_64\n      jump\t// in\n    tag_86:\n        /* \"hopium/standalone/main/price-oracle.sol\":5789:5861  uint256 tokenValueInWeth18 = (tokenAmount18 * tokenPriceInWeth18) / 1e18 */\n      swap1\n      pop\n        /* \"hopium/standalone/main/price-oracle.sol\":5954:5982  uint256 totalLiquidityWeth18 */\n      0x00\n        /* \"hopium/standalone/main/price-oracle.sol\":6006:6018  wethAmount18 */\n      dup4\n        /* \"hopium/standalone/main/price-oracle.sol\":5985:6003  tokenValueInWeth18 */\n      dup3\n        /* \"hopium/standalone/main/price-oracle.sol\":5985:6018  tokenValueInWeth18 + wethAmount18 */\n      tag_87\n      swap2\n      swap1\n      tag_88\n      jump\t// in\n    tag_87:\n        /* \"hopium/standalone/main/price-oracle.sol\":5954:6018  uint256 totalLiquidityWeth18 = tokenValueInWeth18 + wethAmount18 */\n      swap1\n      pop\n        /* \"hopium/standalone/main/price-oracle.sol\":6039:6059  totalLiquidityWeth18 */\n      dup1\n        /* \"hopium/standalone/main/price-oracle.sol\":6032:6059  return totalLiquidityWeth18 */\n      swap11\n      pop\n      pop\n      pop\n      pop\n      pop\n      pop\n      pop\n      pop\n      pop\n      pop\n      pop\n        /* \"hopium/standalone/main/price-oracle.sol\":4925:6076  function getTokenLiquidityWeth(address tokenAddress) public view returns (uint256) {... */\n    tag_65:\n      swap2\n      swap1\n      pop\n      jump\t// out\n        /* \"hopium/standalone/main/price-oracle.sol\":6160:6473  function getTokenLiquidityUsd(address tokenAddress) external view returns (uint256 totalLiquidityUsd18) {... */\n    tag_34:\n        /* \"hopium/standalone/main/price-oracle.sol\":6235:6262  uint256 totalLiquidityUsd18 */\n      0x00\n        /* \"hopium/standalone/main/price-oracle.sol\":6274:6302  uint256 totalLiquidityWeth18 */\n      0x00\n        /* \"hopium/standalone/main/price-oracle.sol\":6305:6340  getTokenLiquidityWeth(tokenAddress) */\n      tag_90\n        /* \"hopium/standalone/main/price-oracle.sol\":6327:6339  tokenAddress */\n      dup4\n        /* \"hopium/standalone/main/price-oracle.sol\":6305:6326  getTokenLiquidityWeth */\n      tag_30\n        /* \"hopium/standalone/main/price-oracle.sol\":6305:6340  getTokenLiquidityWeth(tokenAddress) */\n      jump\t// in\n    tag_90:\n        /* \"hopium/standalone/main/price-oracle.sol\":6274:6340  uint256 totalLiquidityWeth18 = getTokenLiquidityWeth(tokenAddress) */\n      swap1\n      pop\n        /* \"hopium/standalone/main/price-oracle.sol\":6350:6370  uint256 usdPerWeth18 */\n      0x00\n        /* \"hopium/standalone/main/price-oracle.sol\":6373:6390  getWethUsdPrice() */\n      tag_91\n        /* \"hopium/standalone/main/price-oracle.sol\":6373:6388  getWethUsdPrice */\n      tag_41\n        /* \"hopium/standalone/main/price-oracle.sol\":6373:6390  getWethUsdPrice() */\n      jump\t// in\n    tag_91:\n        /* \"hopium/standalone/main/price-oracle.sol\":6350:6390  uint256 usdPerWeth18 = getWethUsdPrice() */\n      swap1\n      pop\n        /* \"hopium/standalone/main/price-oracle.sol\":6462:6466  1e18 */\n      0x0de0b6b3a7640000\n        /* \"hopium/standalone/main/price-oracle.sol\":6446:6458  usdPerWeth18 */\n      dup2\n        /* \"hopium/standalone/main/price-oracle.sol\":6423:6443  totalLiquidityWeth18 */\n      dup4\n        /* \"hopium/standalone/main/price-oracle.sol\":6423:6458  totalLiquidityWeth18 * usdPerWeth18 */\n      tag_92\n      swap2\n      swap1\n      tag_62\n      jump\t// in\n    tag_92:\n        /* \"hopium/standalone/main/price-oracle.sol\":6422:6466  (totalLiquidityWeth18 * usdPerWeth18) / 1e18 */\n      tag_93\n      swap2\n      swap1\n      tag_64\n      jump\t// in\n    tag_93:\n        /* \"hopium/standalone/main/price-oracle.sol\":6400:6466  totalLiquidityUsd18 = (totalLiquidityWeth18 * usdPerWeth18) / 1e18 */\n      swap3\n      pop\n        /* \"hopium/standalone/main/price-oracle.sol\":6264:6473  {... */\n      pop\n      pop\n        /* \"hopium/standalone/main/price-oracle.sol\":6160:6473  function getTokenLiquidityUsd(address tokenAddress) external view returns (uint256 totalLiquidityUsd18) {... */\n      swap2\n      swap1\n      pop\n      jump\t// out\n        /* \"hopium/standalone/main/price-oracle.sol\":6657:7225  function getTokenMarketCapWeth(address tokenAddress) public view returns (uint256) {... */\n    tag_38:\n        /* \"hopium/standalone/main/price-oracle.sol\":6731:6738  uint256 */\n      0x00\n        /* \"hopium/standalone/main/price-oracle.sol\":6750:6764  uint256 supply */\n      0x00\n        /* \"hopium/standalone/main/price-oracle.sol\":6774:6786  tokenAddress */\n      dup3\n        /* \"hopium/standalone/main/price-oracle.sol\":6767:6799  IERC20(tokenAddress).totalSupply */\n      0xffffffffffffffffffffffffffffffffffffffff\n      and\n      0x18160ddd\n        /* \"hopium/standalone/main/price-oracle.sol\":6767:6801  IERC20(tokenAddress).totalSupply() */\n      mload(0x40)\n      dup2\n      0xffffffff\n      and\n      0xe0\n      shl\n      dup2\n      mstore\n      0x04\n      add\n      0x20\n      mload(0x40)\n      dup1\n      dup4\n      sub\n      dup2\n      dup7\n      gas\n      staticcall\n      iszero\n      dup1\n      iszero\n      tag_96\n      jumpi\n      returndatacopy(0x00, 0x00, returndatasize)\n      revert(0x00, returndatasize)\n    tag_96:\n      pop\n      pop\n      pop\n      pop\n      mload(0x40)\n      returndatasize\n      not(0x1f)\n      0x1f\n      dup3\n      add\n      and\n      dup3\n      add\n      dup1\n      0x40\n      mstore\n      pop\n      dup2\n      add\n      swap1\n      tag_97\n      swap2\n      swap1\n      tag_74\n      jump\t// in\n    tag_97:\n        /* \"hopium/standalone/main/price-oracle.sol\":6750:6801  uint256 supply = IERC20(tokenAddress).totalSupply() */\n      swap1\n      pop\n        /* \"hopium/standalone/main/price-oracle.sol\":6811:6821  uint8 decT */\n      0x00\n        /* \"hopium/standalone/main/price-oracle.sol\":6839:6851  tokenAddress */\n      dup4\n        /* \"hopium/standalone/main/price-oracle.sol\":6824:6861  IERC20Metadata(tokenAddress).decimals */\n      0xffffffffffffffffffffffffffffffffffffffff\n      and\n      0x313ce567\n        /* \"hopium/standalone/main/price-oracle.sol\":6824:6863  IERC20Metadata(tokenAddress).decimals() */\n      mload(0x40)\n      dup2\n      0xffffffff\n      and\n      0xe0\n      shl\n      dup2\n      mstore\n      0x04\n      add\n      0x20\n      mload(0x40)\n      dup1\n      dup4\n      sub\n      dup2\n      dup7\n      gas\n      staticcall\n      iszero\n      dup1\n      iszero\n      tag_99\n      jumpi\n      returndatacopy(0x00, 0x00, returndatasize)\n      revert(0x00, returndatasize)\n    tag_99:\n      pop\n      pop\n      pop\n      pop\n      mload(0x40)\n      returndatasize\n      not(0x1f)\n      0x1f\n      dup3\n      add\n      and\n      dup3\n      add\n      dup1\n      0x40\n      mstore\n      pop\n      dup2\n      add\n      swap1\n      tag_100\n      swap2\n      swap1\n      tag_70\n      jump\t// in\n    tag_100:\n        /* \"hopium/standalone/main/price-oracle.sol\":6811:6863  uint8 decT = IERC20Metadata(tokenAddress).decimals() */\n      swap1\n      pop\n        /* \"hopium/standalone/main/price-oracle.sol\":6873:6889  uint256 supply18 */\n      0x00\n        /* \"hopium/standalone/main/price-oracle.sol\":6892:6918  _scaleTo1e18(supply, decT) */\n      tag_101\n        /* \"hopium/standalone/main/price-oracle.sol\":6905:6911  supply */\n      dup4\n        /* \"hopium/standalone/main/price-oracle.sol\":6913:6917  decT */\n      dup4\n        /* \"hopium/standalone/main/price-oracle.sol\":6892:6904  _scaleTo1e18 */\n      tag_76\n        /* \"hopium/standalone/main/price-oracle.sol\":6892:6918  _scaleTo1e18(supply, decT) */\n      jump\t// in\n    tag_101:\n        /* \"hopium/standalone/main/price-oracle.sol\":6873:6918  uint256 supply18 = _scaleTo1e18(supply, decT) */\n      swap1\n      pop\n        /* \"hopium/standalone/main/price-oracle.sol\":6949:6961  WETH_ADDRESS */\n      0x00\n      0x00\n      swap1\n      sload\n      swap1\n      0x0100\n      exp\n      swap1\n      div\n      0xffffffffffffffffffffffffffffffffffffffff\n      and\n        /* \"hopium/standalone/main/price-oracle.sol\":6933:6961  tokenAddress == WETH_ADDRESS */\n      0xffffffffffffffffffffffffffffffffffffffff\n      and\n        /* \"hopium/standalone/main/price-oracle.sol\":6933:6945  tokenAddress */\n      dup6\n        /* \"hopium/standalone/main/price-oracle.sol\":6933:6961  tokenAddress == WETH_ADDRESS */\n      0xffffffffffffffffffffffffffffffffffffffff\n      and\n      sub\n        /* \"hopium/standalone/main/price-oracle.sol\":6929:7219  if (tokenAddress == WETH_ADDRESS) {... */\n      tag_102\n      jumpi\n        /* \"hopium/standalone/main/price-oracle.sol\":6984:6992  supply18 */\n      dup1\n        /* \"hopium/standalone/main/price-oracle.sol\":6977:6992  return supply18 */\n      swap4\n      pop\n      pop\n      pop\n      pop\n      jump(tag_94)\n        /* \"hopium/standalone/main/price-oracle.sol\":6929:7219  if (tokenAddress == WETH_ADDRESS) {... */\n    tag_102:\n        /* \"hopium/standalone/main/price-oracle.sol\":7042:7064  uint256 wethPerToken18 */\n      0x00\n        /* \"hopium/standalone/main/price-oracle.sol\":7067:7098  getTokenWethPrice(tokenAddress) */\n      tag_104\n        /* \"hopium/standalone/main/price-oracle.sol\":7085:7097  tokenAddress */\n      dup7\n        /* \"hopium/standalone/main/price-oracle.sol\":7067:7084  getTokenWethPrice */\n      tag_49\n        /* \"hopium/standalone/main/price-oracle.sol\":7067:7098  getTokenWethPrice(tokenAddress) */\n      jump\t// in\n    tag_104:\n        /* \"hopium/standalone/main/price-oracle.sol\":7042:7098  uint256 wethPerToken18 = getTokenWethPrice(tokenAddress) */\n      swap1\n      pop\n        /* \"hopium/standalone/main/price-oracle.sol\":7112:7135  uint256 marketCapWeth18 */\n      0x00\n        /* \"hopium/standalone/main/price-oracle.sol\":7168:7172  1e18 */\n      0x0de0b6b3a7640000\n        /* \"hopium/standalone/main/price-oracle.sol\":7150:7164  wethPerToken18 */\n      dup3\n        /* \"hopium/standalone/main/price-oracle.sol\":7139:7147  supply18 */\n      dup5\n        /* \"hopium/standalone/main/price-oracle.sol\":7139:7164  supply18 * wethPerToken18 */\n      tag_105\n      swap2\n      swap1\n      tag_62\n      jump\t// in\n    tag_105:\n        /* \"hopium/standalone/main/price-oracle.sol\":7138:7172  (supply18 * wethPerToken18) / 1e18 */\n      tag_106\n      swap2\n      swap1\n      tag_64\n      jump\t// in\n    tag_106:\n        /* \"hopium/standalone/main/price-oracle.sol\":7112:7172  uint256 marketCapWeth18 = (supply18 * wethPerToken18) / 1e18 */\n      swap1\n      pop\n        /* \"hopium/standalone/main/price-oracle.sol\":7193:7208  marketCapWeth18 */\n      dup1\n        /* \"hopium/standalone/main/price-oracle.sol\":7186:7208  return marketCapWeth18 */\n      swap6\n      pop\n      pop\n      pop\n      pop\n      pop\n      pop\n        /* \"hopium/standalone/main/price-oracle.sol\":6657:7225  function getTokenMarketCapWeth(address tokenAddress) public view returns (uint256) {... */\n    tag_94:\n      swap2\n      swap1\n      pop\n      jump\t// out\n        /* \"hopium/standalone/main/price-oracle.sol\":3312:3630  function getWethUsdPrice() public view returns (uint256 price18) {... */\n    tag_41:\n        /* \"hopium/standalone/main/price-oracle.sol\":3360:3375  uint256 price18 */\n      0x00\n        /* \"hopium/standalone/main/price-oracle.sol\":3388:3407  uint256 reserveWeth */\n      0x00\n        /* \"hopium/standalone/main/price-oracle.sol\":3409:3419  uint8 decW */\n      0x00\n        /* \"hopium/standalone/main/price-oracle.sol\":3421:3439  uint256 reserveUsd */\n      0x00\n        /* \"hopium/standalone/main/price-oracle.sol\":3441:3451  uint8 decU */\n      0x00\n        /* \"hopium/standalone/main/price-oracle.sol\":3468:3524  _getOrderedReserves(WETH_USD_PAIR_ADDRESS, WETH_ADDRESS) */\n      tag_108\n        /* \"hopium/standalone/main/price-oracle.sol\":3488:3509  WETH_USD_PAIR_ADDRESS */\n      0x01\n      0x00\n      swap1\n      sload\n      swap1\n      0x0100\n      exp\n      swap1\n      div\n      0xffffffffffffffffffffffffffffffffffffffff\n      and\n        /* \"hopium/standalone/main/price-oracle.sol\":3511:3523  WETH_ADDRESS */\n      0x00\n      0x00\n      swap1\n      sload\n      swap1\n      0x0100\n      exp\n      swap1\n      div\n      0xffffffffffffffffffffffffffffffffffffffff\n      and\n        /* \"hopium/standalone/main/price-oracle.sol\":3468:3487  _getOrderedReserves */\n      tag_81\n        /* \"hopium/standalone/main/price-oracle.sol\":3468:3524  _getOrderedReserves(WETH_USD_PAIR_ADDRESS, WETH_ADDRESS) */\n      jump\t// in\n    tag_108:\n        /* \"hopium/standalone/main/price-oracle.sol\":3387:3524  (uint256 reserveWeth, uint8 decW, uint256 reserveUsd, uint8 decU,) =... */\n      pop\n      swap4\n      pop\n      swap4\n      pop\n      swap4\n      pop\n      swap4\n      pop\n        /* \"hopium/standalone/main/price-oracle.sol\":3571:3623  _computePrice18(reserveUsd, decU, reserveWeth, decW) */\n      tag_109\n        /* \"hopium/standalone/main/price-oracle.sol\":3587:3597  reserveUsd */\n      dup3\n        /* \"hopium/standalone/main/price-oracle.sol\":3599:3603  decU */\n      dup3\n        /* \"hopium/standalone/main/price-oracle.sol\":3605:3616  reserveWeth */\n      dup7\n        /* \"hopium/standalone/main/price-oracle.sol\":3618:3622  decW */\n      dup7\n        /* \"hopium/standalone/main/price-oracle.sol\":3571:3586  _computePrice18 */\n      tag_110\n        /* \"hopium/standalone/main/price-oracle.sol\":3571:3623  _computePrice18(reserveUsd, decU, reserveWeth, decW) */\n      jump\t// in\n    tag_109:\n        /* \"hopium/standalone/main/price-oracle.sol\":3561:3623  price18 = _computePrice18(reserveUsd, decU, reserveWeth, decW) */\n      swap5\n      pop\n        /* \"hopium/standalone/main/price-oracle.sol\":3377:3630  {... */\n      pop\n      pop\n      pop\n      pop\n        /* \"hopium/standalone/main/price-oracle.sol\":3312:3630  function getWethUsdPrice() public view returns (uint256 price18) {... */\n      swap1\n      jump\t// out\n        /* \"hopium/standalone/main/price-oracle.sol\":7298:7577  function getTokenMarketCapUsd(address tokenAddress) external view returns (uint256 marketCapUsd18) {... */\n    tag_45:\n        /* \"hopium/standalone/main/price-oracle.sol\":7373:7395  uint256 marketCapUsd18 */\n      0x00\n        /* \"hopium/standalone/main/price-oracle.sol\":7407:7423  uint256 mcWeth18 */\n      0x00\n        /* \"hopium/standalone/main/price-oracle.sol\":7426:7461  getTokenMarketCapWeth(tokenAddress) */\n      tag_112\n        /* \"hopium/standalone/main/price-oracle.sol\":7448:7460  tokenAddress */\n      dup4\n        /* \"hopium/standalone/main/price-oracle.sol\":7426:7447  getTokenMarketCapWeth */\n      tag_38\n        /* \"hopium/standalone/main/price-oracle.sol\":7426:7461  getTokenMarketCapWeth(tokenAddress) */\n      jump\t// in\n    tag_112:\n        /* \"hopium/standalone/main/price-oracle.sol\":7407:7461  uint256 mcWeth18 = getTokenMarketCapWeth(tokenAddress) */\n      swap1\n      pop\n        /* \"hopium/standalone/main/price-oracle.sol\":7471:7491  uint256 usdPerWeth18 */\n      0x00\n        /* \"hopium/standalone/main/price-oracle.sol\":7494:7511  getWethUsdPrice() */\n      tag_113\n        /* \"hopium/standalone/main/price-oracle.sol\":7494:7509  getWethUsdPrice */\n      tag_41\n        /* \"hopium/standalone/main/price-oracle.sol\":7494:7511  getWethUsdPrice() */\n      jump\t// in\n    tag_113:\n        /* \"hopium/standalone/main/price-oracle.sol\":7471:7511  uint256 usdPerWeth18 = getWethUsdPrice() */\n      swap1\n      pop\n        /* \"hopium/standalone/main/price-oracle.sol\":7566:7570  1e18 */\n      0x0de0b6b3a7640000\n        /* \"hopium/standalone/main/price-oracle.sol\":7550:7562  usdPerWeth18 */\n      dup2\n        /* \"hopium/standalone/main/price-oracle.sol\":7539:7547  mcWeth18 */\n      dup4\n        /* \"hopium/standalone/main/price-oracle.sol\":7539:7562  mcWeth18 * usdPerWeth18 */\n      tag_114\n      swap2\n      swap1\n      tag_62\n      jump\t// in\n    tag_114:\n        /* \"hopium/standalone/main/price-oracle.sol\":7538:7570  (mcWeth18 * usdPerWeth18) / 1e18 */\n      tag_115\n      swap2\n      swap1\n      tag_64\n      jump\t// in\n    tag_115:\n        /* \"hopium/standalone/main/price-oracle.sol\":7521:7570  marketCapUsd18 = (mcWeth18 * usdPerWeth18) / 1e18 */\n      swap3\n      pop\n        /* \"hopium/standalone/main/price-oracle.sol\":7397:7577  {... */\n      pop\n      pop\n        /* \"hopium/standalone/main/price-oracle.sol\":7298:7577  function getTokenMarketCapUsd(address tokenAddress) external view returns (uint256 marketCapUsd18) {... */\n      swap2\n      swap1\n      pop\n      jump\t// out\n        /* \"hopium/standalone/main/price-oracle.sol\":3765:4350  function getTokenWethPrice(address tokenAddress) public view returns (uint256) {... */\n    tag_49:\n        /* \"hopium/standalone/main/price-oracle.sol\":3835:3842  uint256 */\n      0x00\n        /* \"hopium/standalone/main/price-oracle.sol\":3874:3886  WETH_ADDRESS */\n      0x00\n      0x00\n      swap1\n      sload\n      swap1\n      0x0100\n      exp\n      swap1\n      div\n      0xffffffffffffffffffffffffffffffffffffffff\n      and\n        /* \"hopium/standalone/main/price-oracle.sol\":3858:3886  tokenAddress == WETH_ADDRESS */\n      0xffffffffffffffffffffffffffffffffffffffff\n      and\n        /* \"hopium/standalone/main/price-oracle.sol\":3858:3870  tokenAddress */\n      dup3\n        /* \"hopium/standalone/main/price-oracle.sol\":3858:3886  tokenAddress == WETH_ADDRESS */\n      0xffffffffffffffffffffffffffffffffffffffff\n      and\n      sub\n        /* \"hopium/standalone/main/price-oracle.sol\":3854:4344  if (tokenAddress == WETH_ADDRESS) {... */\n      tag_117\n      jumpi\n        /* \"hopium/standalone/main/price-oracle.sol\":3942:3946  1e18 */\n      0x0de0b6b3a7640000\n        /* \"hopium/standalone/main/price-oracle.sol\":3935:3946  return 1e18 */\n      swap1\n      pop\n      jump(tag_116)\n        /* \"hopium/standalone/main/price-oracle.sol\":3854:4344  if (tokenAddress == WETH_ADDRESS) {... */\n    tag_117:\n        /* \"hopium/standalone/main/price-oracle.sol\":3977:3996  address pairAddress */\n      0x00\n        /* \"hopium/standalone/main/price-oracle.sol\":3999:4039  _getTokenToWethPairAddress(tokenAddress) */\n      tag_119\n        /* \"hopium/standalone/main/price-oracle.sol\":4026:4038  tokenAddress */\n      dup4\n        /* \"hopium/standalone/main/price-oracle.sol\":3999:4025  _getTokenToWethPairAddress */\n      tag_79\n        /* \"hopium/standalone/main/price-oracle.sol\":3999:4039  _getTokenToWethPairAddress(tokenAddress) */\n      jump\t// in\n    tag_119:\n        /* \"hopium/standalone/main/price-oracle.sol\":3977:4039  address pairAddress = _getTokenToWethPairAddress(tokenAddress) */\n      swap1\n      pop\n        /* \"hopium/standalone/main/price-oracle.sol\":4054:4073  uint256 reserveWeth */\n      0x00\n        /* \"hopium/standalone/main/price-oracle.sol\":4075:4085  uint8 decW */\n      0x00\n        /* \"hopium/standalone/main/price-oracle.sol\":4087:4107  uint256 reserveQuote */\n      0x00\n        /* \"hopium/standalone/main/price-oracle.sol\":4109:4119  uint8 decQ */\n      0x00\n        /* \"hopium/standalone/main/price-oracle.sol\":4140:4186  _getOrderedReserves(pairAddress, WETH_ADDRESS) */\n      tag_120\n        /* \"hopium/standalone/main/price-oracle.sol\":4160:4171  pairAddress */\n      dup6\n        /* \"hopium/standalone/main/price-oracle.sol\":4173:4185  WETH_ADDRESS */\n      0x00\n      0x00\n      swap1\n      sload\n      swap1\n      0x0100\n      exp\n      swap1\n      div\n      0xffffffffffffffffffffffffffffffffffffffff\n      and\n        /* \"hopium/standalone/main/price-oracle.sol\":4140:4159  _getOrderedReserves */\n      tag_81\n        /* \"hopium/standalone/main/price-oracle.sol\":4140:4186  _getOrderedReserves(pairAddress, WETH_ADDRESS) */\n      jump\t// in\n    tag_120:\n        /* \"hopium/standalone/main/price-oracle.sol\":4053:4186  (uint256 reserveWeth, uint8 decW, uint256 reserveQuote, uint8 decQ,) =... */\n      pop\n      swap4\n      pop\n      swap4\n      pop\n      swap4\n      pop\n      swap4\n      pop\n        /* \"hopium/standalone/main/price-oracle.sol\":4233:4248  uint256 price18 */\n      0x00\n        /* \"hopium/standalone/main/price-oracle.sol\":4251:4305  _computePrice18(reserveWeth, decW, reserveQuote, decQ) */\n      tag_121\n        /* \"hopium/standalone/main/price-oracle.sol\":4267:4278  reserveWeth */\n      dup6\n        /* \"hopium/standalone/main/price-oracle.sol\":4280:4284  decW */\n      dup6\n        /* \"hopium/standalone/main/price-oracle.sol\":4286:4298  reserveQuote */\n      dup6\n        /* \"hopium/standalone/main/price-oracle.sol\":4300:4304  decQ */\n      dup6\n        /* \"hopium/standalone/main/price-oracle.sol\":4251:4266  _computePrice18 */\n      tag_110\n        /* \"hopium/standalone/main/price-oracle.sol\":4251:4305  _computePrice18(reserveWeth, decW, reserveQuote, decQ) */\n      jump\t// in\n    tag_121:\n        /* \"hopium/standalone/main/price-oracle.sol\":4233:4305  uint256 price18 = _computePrice18(reserveWeth, decW, reserveQuote, decQ) */\n      swap1\n      pop\n        /* \"hopium/standalone/main/price-oracle.sol\":4326:4333  price18 */\n      dup1\n        /* \"hopium/standalone/main/price-oracle.sol\":4319:4333  return price18 */\n      swap7\n      pop\n      pop\n      pop\n      pop\n      pop\n      pop\n      pop\n        /* \"hopium/standalone/main/price-oracle.sol\":3765:4350  function getTokenWethPrice(address tokenAddress) public view returns (uint256) {... */\n    tag_116:\n      swap2\n      swap1\n      pop\n      jump\t// out\n        /* \"hopium/standalone/main/price-oracle.sol\":7583:7734  function getTokenWethPairAddress(address tokenAddress) external view returns (address) {... */\n    tag_53:\n        /* \"hopium/standalone/main/price-oracle.sol\":7661:7668  address */\n      0x00\n        /* \"hopium/standalone/main/price-oracle.sol\":7687:7727  _getTokenToWethPairAddress(tokenAddress) */\n      tag_123\n        /* \"hopium/standalone/main/price-oracle.sol\":7714:7726  tokenAddress */\n      dup3\n        /* \"hopium/standalone/main/price-oracle.sol\":7687:7713  _getTokenToWethPairAddress */\n      tag_79\n        /* \"hopium/standalone/main/price-oracle.sol\":7687:7727  _getTokenToWethPairAddress(tokenAddress) */\n      jump\t// in\n    tag_123:\n        /* \"hopium/standalone/main/price-oracle.sol\":7680:7727  return _getTokenToWethPairAddress(tokenAddress) */\n      swap1\n      pop\n        /* \"hopium/standalone/main/price-oracle.sol\":7583:7734  function getTokenWethPairAddress(address tokenAddress) external view returns (address) {... */\n      swap2\n      swap1\n      pop\n      jump\t// out\n        /* \"hopium/standalone/main/price-oracle.sol\":676:717  address public UNISWAP_V2_FACTORY_ADDRESS */\n    tag_56:\n      0x02\n      0x00\n      swap1\n      sload\n      swap1\n      0x0100\n      exp\n      swap1\n      div\n      0xffffffffffffffffffffffffffffffffffffffff\n      and\n      dup2\n      jump\t// out\n        /* \"hopium/standalone/main/price-oracle.sol\":2599:2922  function _scaleTo1e18(uint256 amount, uint8 decimals) internal pure returns (uint256 scaled) {... */\n    tag_76:\n        /* \"hopium/standalone/main/price-oracle.sol\":2676:2690  uint256 scaled */\n      0x00\n        /* \"hopium/standalone/main/price-oracle.sol\":2718:2720  18 */\n      0x12\n        /* \"hopium/standalone/main/price-oracle.sol\":2706:2714  decimals */\n      dup3\n        /* \"hopium/standalone/main/price-oracle.sol\":2706:2720  decimals == 18 */\n      0xff\n      and\n      sub\n        /* \"hopium/standalone/main/price-oracle.sol\":2702:2735  if (decimals == 18) return amount */\n      tag_125\n      jumpi\n        /* \"hopium/standalone/main/price-oracle.sol\":2729:2735  amount */\n      dup3\n        /* \"hopium/standalone/main/price-oracle.sol\":2722:2735  return amount */\n      swap1\n      pop\n      jump(tag_124)\n        /* \"hopium/standalone/main/price-oracle.sol\":2702:2735  if (decimals == 18) return amount */\n    tag_125:\n        /* \"hopium/standalone/main/price-oracle.sol\":2760:2762  18 */\n      0x12\n        /* \"hopium/standalone/main/price-oracle.sol\":2749:2757  decimals */\n      dup3\n        /* \"hopium/standalone/main/price-oracle.sol\":2749:2762  decimals < 18 */\n      0xff\n      and\n      lt\n        /* \"hopium/standalone/main/price-oracle.sol\":2745:2916  if (decimals < 18) {... */\n      iszero\n      tag_126\n      jumpi\n        /* \"hopium/standalone/main/price-oracle.sol\":2816:2824  decimals */\n      dup2\n        /* \"hopium/standalone/main/price-oracle.sol\":2811:2813  18 */\n      0x12\n        /* \"hopium/standalone/main/price-oracle.sol\":2811:2824  18 - decimals */\n      tag_127\n      swap2\n      swap1\n      tag_128\n      jump\t// in\n    tag_127:\n        /* \"hopium/standalone/main/price-oracle.sol\":2803:2825  uint256(18 - decimals) */\n      0xff\n      and\n        /* \"hopium/standalone/main/price-oracle.sol\":2797:2799  10 */\n      0x0a\n        /* \"hopium/standalone/main/price-oracle.sol\":2797:2825  10 ** uint256(18 - decimals) */\n      tag_129\n      swap2\n      swap1\n      tag_130\n      jump\t// in\n    tag_129:\n        /* \"hopium/standalone/main/price-oracle.sol\":2787:2793  amount */\n      dup4\n        /* \"hopium/standalone/main/price-oracle.sol\":2787:2826  amount * (10 ** uint256(18 - decimals)) */\n      tag_131\n      swap2\n      swap1\n      tag_62\n      jump\t// in\n    tag_131:\n        /* \"hopium/standalone/main/price-oracle.sol\":2778:2826  scaled = amount * (10 ** uint256(18 - decimals)) */\n      swap1\n      pop\n        /* \"hopium/standalone/main/price-oracle.sol\":2745:2916  if (decimals < 18) {... */\n      jump(tag_132)\n    tag_126:\n        /* \"hopium/standalone/main/price-oracle.sol\":2901:2903  18 */\n      0x12\n        /* \"hopium/standalone/main/price-oracle.sol\":2890:2898  decimals */\n      dup3\n        /* \"hopium/standalone/main/price-oracle.sol\":2890:2903  decimals - 18 */\n      tag_133\n      swap2\n      swap1\n      tag_128\n      jump\t// in\n    tag_133:\n        /* \"hopium/standalone/main/price-oracle.sol\":2882:2904  uint256(decimals - 18) */\n      0xff\n      and\n        /* \"hopium/standalone/main/price-oracle.sol\":2876:2878  10 */\n      0x0a\n        /* \"hopium/standalone/main/price-oracle.sol\":2876:2904  10 ** uint256(decimals - 18) */\n      tag_134\n      swap2\n      swap1\n      tag_130\n      jump\t// in\n    tag_134:\n        /* \"hopium/standalone/main/price-oracle.sol\":2866:2872  amount */\n      dup4\n        /* \"hopium/standalone/main/price-oracle.sol\":2866:2905  amount / (10 ** uint256(decimals - 18)) */\n      tag_135\n      swap2\n      swap1\n      tag_64\n      jump\t// in\n    tag_135:\n        /* \"hopium/standalone/main/price-oracle.sol\":2857:2905  scaled = amount / (10 ** uint256(decimals - 18)) */\n      swap1\n      pop\n        /* \"hopium/standalone/main/price-oracle.sol\":2745:2916  if (decimals < 18) {... */\n    tag_132:\n        /* \"hopium/standalone/main/price-oracle.sol\":2599:2922  function _scaleTo1e18(uint256 amount, uint8 decimals) internal pure returns (uint256 scaled) {... */\n    tag_124:\n      swap3\n      swap2\n      pop\n      pop\n      jump\t// out\n        /* \"hopium/standalone/main/price-oracle.sol\":2271:2593  function _getTokenToWethPairAddress(address tokenAddress) internal view returns (address) {... */\n    tag_79:\n        /* \"hopium/standalone/main/price-oracle.sol\":2352:2359  address */\n      0x00\n        /* \"hopium/standalone/main/price-oracle.sol\":2371:2390  address pairAddress */\n      0x00\n        /* \"hopium/standalone/main/price-oracle.sol\":2411:2437  UNISWAP_V2_FACTORY_ADDRESS */\n      0x02\n      0x00\n      swap1\n      sload\n      swap1\n      0x0100\n      exp\n      swap1\n      div\n      0xffffffffffffffffffffffffffffffffffffffff\n      and\n        /* \"hopium/standalone/main/price-oracle.sol\":2393:2446  IUniswapV2Factory(UNISWAP_V2_FACTORY_ADDRESS).getPair */\n      0xffffffffffffffffffffffffffffffffffffffff\n      and\n      0xe6a43905\n        /* \"hopium/standalone/main/price-oracle.sol\":2447:2459  tokenAddress */\n      dup5\n        /* \"hopium/standalone/main/price-oracle.sol\":2461:2473  WETH_ADDRESS */\n      0x00\n      0x00\n      swap1\n      sload\n      swap1\n      0x0100\n      exp\n      swap1\n      div\n      0xffffffffffffffffffffffffffffffffffffffff\n      and\n        /* \"hopium/standalone/main/price-oracle.sol\":2393:2474  IUniswapV2Factory(UNISWAP_V2_FACTORY_ADDRESS).getPair(tokenAddress, WETH_ADDRESS) */\n      mload(0x40)\n      dup4\n      0xffffffff\n      and\n      0xe0\n      shl\n      dup2\n      mstore\n      0x04\n      add\n      tag_137\n      swap3\n      swap2\n      swap1\n      tag_138\n      jump\t// in\n    tag_137:\n      0x20\n      mload(0x40)\n      dup1\n      dup4\n      sub\n      dup2\n      dup7\n      gas\n      staticcall\n      iszero\n      dup1\n      iszero\n      tag_140\n      jumpi\n      returndatacopy(0x00, 0x00, returndatasize)\n      revert(0x00, returndatasize)\n    tag_140:\n      pop\n      pop\n      pop\n      pop\n      mload(0x40)\n      returndatasize\n      not(0x1f)\n      0x1f\n      dup3\n      add\n      and\n      dup3\n      add\n      dup1\n      0x40\n      mstore\n      pop\n      dup2\n      add\n      swap1\n      tag_141\n      swap2\n      swap1\n      tag_142\n      jump\t// in\n    tag_141:\n        /* \"hopium/standalone/main/price-oracle.sol\":2371:2474  address pairAddress = IUniswapV2Factory(UNISWAP_V2_FACTORY_ADDRESS).getPair(tokenAddress, WETH_ADDRESS) */\n      swap1\n      pop\n        /* \"hopium/standalone/main/price-oracle.sol\":2516:2517  0 */\n      0x00\n        /* \"hopium/standalone/main/price-oracle.sol\":2493:2518  pairAddress != address(0) */\n      0xffffffffffffffffffffffffffffffffffffffff\n      and\n        /* \"hopium/standalone/main/price-oracle.sol\":2493:2504  pairAddress */\n      dup2\n        /* \"hopium/standalone/main/price-oracle.sol\":2493:2518  pairAddress != address(0) */\n      0xffffffffffffffffffffffffffffffffffffffff\n      and\n      sub\n        /* \"hopium/standalone/main/price-oracle.sol\":2484:2558  require (pairAddress != address(0), \"UniswapV2Pair: pair does not exist\" ) */\n      tag_143\n      jumpi\n      mload(0x40)\n      0x08c379a000000000000000000000000000000000000000000000000000000000\n      dup2\n      mstore\n      0x04\n      add\n      tag_144\n      swap1\n      tag_145\n      jump\t// in\n    tag_144:\n      mload(0x40)\n      dup1\n      swap2\n      sub\n      swap1\n      revert\n    tag_143:\n        /* \"hopium/standalone/main/price-oracle.sol\":2575:2586  pairAddress */\n      dup1\n        /* \"hopium/standalone/main/price-oracle.sol\":2568:2586  return pairAddress */\n      swap2\n      pop\n      pop\n        /* \"hopium/standalone/main/price-oracle.sol\":2271:2593  function _getTokenToWethPairAddress(address tokenAddress) internal view returns (address) {... */\n      swap2\n      swap1\n      pop\n      jump\t// out\n        /* \"hopium/standalone/main/price-oracle.sol\":765:1785  function _getOrderedReserves(address pairAddress, address baseToken)... */\n    tag_81:\n        /* \"hopium/standalone/main/price-oracle.sol\":894:913  uint256 reserveBase */\n      0x00\n        /* \"hopium/standalone/main/price-oracle.sol\":927:940  uint8 decBase */\n      0x00\n        /* \"hopium/standalone/main/price-oracle.sol\":954:974  uint256 reserveQuote */\n      0x00\n        /* \"hopium/standalone/main/price-oracle.sol\":988:1002  uint8 decQuote */\n      0x00\n        /* \"hopium/standalone/main/price-oracle.sol\":1016:1034  address quoteToken */\n      0x00\n        /* \"hopium/standalone/main/price-oracle.sol\":1059:1078  IUniswapV2Pair pair */\n      0x00\n        /* \"hopium/standalone/main/price-oracle.sol\":1096:1107  pairAddress */\n      dup8\n        /* \"hopium/standalone/main/price-oracle.sol\":1059:1108  IUniswapV2Pair pair = IUniswapV2Pair(pairAddress) */\n      swap1\n      pop\n        /* \"hopium/standalone/main/price-oracle.sol\":1119:1129  uint112 r0 */\n      0x00\n        /* \"hopium/standalone/main/price-oracle.sol\":1131:1141  uint112 r1 */\n      0x00\n        /* \"hopium/standalone/main/price-oracle.sol\":1147:1151  pair */\n      dup3\n        /* \"hopium/standalone/main/price-oracle.sol\":1147:1163  pair.getReserves */\n      0xffffffffffffffffffffffffffffffffffffffff\n      and\n      0x0902f1ac\n        /* \"hopium/standalone/main/price-oracle.sol\":1147:1165  pair.getReserves() */\n      mload(0x40)\n      dup2\n      0xffffffff\n      and\n      0xe0\n      shl\n      dup2\n      mstore\n      0x04\n      add\n      0x60\n      mload(0x40)\n      dup1\n      dup4\n      sub\n      dup2\n      dup7\n      gas\n      staticcall\n      iszero\n      dup1\n      iszero\n      tag_148\n      jumpi\n      returndatacopy(0x00, 0x00, returndatasize)\n      revert(0x00, returndatasize)\n    tag_148:\n      pop\n      pop\n      pop\n      pop\n      mload(0x40)\n      returndatasize\n      not(0x1f)\n      0x1f\n      dup3\n      add\n      and\n      dup3\n      add\n      dup1\n      0x40\n      mstore\n      pop\n      dup2\n      add\n      swap1\n      tag_149\n      swap2\n      swap1\n      tag_150\n      jump\t// in\n    tag_149:\n        /* \"hopium/standalone/main/price-oracle.sol\":1118:1165  (uint112 r0, uint112 r1, ) = pair.getReserves() */\n      pop\n      swap2\n      pop\n      swap2\n      pop\n        /* \"hopium/standalone/main/price-oracle.sol\":1175:1185  address t0 */\n      0x00\n        /* \"hopium/standalone/main/price-oracle.sol\":1188:1192  pair */\n      dup4\n        /* \"hopium/standalone/main/price-oracle.sol\":1188:1199  pair.token0 */\n      0xffffffffffffffffffffffffffffffffffffffff\n      and\n      0x0dfe1681\n        /* \"hopium/standalone/main/price-oracle.sol\":1188:1201  pair.token0() */\n      mload(0x40)\n      dup2\n      0xffffffff\n      and\n      0xe0\n      shl\n      dup2\n      mstore\n      0x04\n      add\n      0x20\n      mload(0x40)\n      dup1\n      dup4\n      sub\n      dup2\n      dup7\n      gas\n      staticcall\n      iszero\n      dup1\n      iszero\n      tag_152\n      jumpi\n      returndatacopy(0x00, 0x00, returndatasize)\n      revert(0x00, returndatasize)\n    tag_152:\n      pop\n      pop\n      pop\n      pop\n      mload(0x40)\n      returndatasize\n      not(0x1f)\n      0x1f\n      dup3\n      add\n      and\n      dup3\n      add\n      dup1\n      0x40\n      mstore\n      pop\n      dup2\n      add\n      swap1\n      tag_153\n      swap2\n      swap1\n      tag_142\n      jump\t// in\n    tag_153:\n        /* \"hopium/standalone/main/price-oracle.sol\":1175:1201  address t0 = pair.token0() */\n      swap1\n      pop\n        /* \"hopium/standalone/main/price-oracle.sol\":1211:1221  address t1 */\n      0x00\n        /* \"hopium/standalone/main/price-oracle.sol\":1224:1228  pair */\n      dup5\n        /* \"hopium/standalone/main/price-oracle.sol\":1224:1235  pair.token1 */\n      0xffffffffffffffffffffffffffffffffffffffff\n      and\n      0xd21220a7\n        /* \"hopium/standalone/main/price-oracle.sol\":1224:1237  pair.token1() */\n      mload(0x40)\n      dup2\n      0xffffffff\n      and\n      0xe0\n      shl\n      dup2\n      mstore\n      0x04\n      add\n      0x20\n      mload(0x40)\n      dup1\n      dup4\n      sub\n      dup2\n      dup7\n      gas\n      staticcall\n      iszero\n      dup1\n      iszero\n      tag_155\n      jumpi\n      returndatacopy(0x00, 0x00, returndatasize)\n      revert(0x00, returndatasize)\n    tag_155:\n      pop\n      pop\n      pop\n      pop\n      mload(0x40)\n      returndatasize\n      not(0x1f)\n      0x1f\n      dup3\n      add\n      and\n      dup3\n      add\n      dup1\n      0x40\n      mstore\n      pop\n      dup2\n      add\n      swap1\n      tag_156\n      swap2\n      swap1\n      tag_142\n      jump\t// in\n    tag_156:\n        /* \"hopium/standalone/main/price-oracle.sol\":1211:1237  address t1 = pair.token1() */\n      swap1\n      pop\n        /* \"hopium/standalone/main/price-oracle.sol\":1248:1265  bool baseIsToken0 */\n      0x00\n        /* \"hopium/standalone/main/price-oracle.sol\":1285:1294  baseToken */\n      dup12\n        /* \"hopium/standalone/main/price-oracle.sol\":1279:1294  t0 == baseToken */\n      0xffffffffffffffffffffffffffffffffffffffff\n      and\n        /* \"hopium/standalone/main/price-oracle.sol\":1279:1281  t0 */\n      dup4\n        /* \"hopium/standalone/main/price-oracle.sol\":1279:1294  t0 == baseToken */\n      0xffffffffffffffffffffffffffffffffffffffff\n      and\n      sub\n        /* \"hopium/standalone/main/price-oracle.sol\":1275:1485  if (t0 == baseToken) {... */\n      tag_157\n      jumpi\n        /* \"hopium/standalone/main/price-oracle.sol\":1325:1329  true */\n      0x01\n        /* \"hopium/standalone/main/price-oracle.sol\":1310:1329  baseIsToken0 = true */\n      swap1\n      pop\n        /* \"hopium/standalone/main/price-oracle.sol\":1275:1485  if (t0 == baseToken) {... */\n      jump(tag_158)\n    tag_157:\n        /* \"hopium/standalone/main/price-oracle.sol\":1356:1365  baseToken */\n      dup12\n        /* \"hopium/standalone/main/price-oracle.sol\":1350:1365  t1 == baseToken */\n      0xffffffffffffffffffffffffffffffffffffffff\n      and\n        /* \"hopium/standalone/main/price-oracle.sol\":1350:1352  t1 */\n      dup3\n        /* \"hopium/standalone/main/price-oracle.sol\":1350:1365  t1 == baseToken */\n      0xffffffffffffffffffffffffffffffffffffffff\n      and\n      sub\n        /* \"hopium/standalone/main/price-oracle.sol\":1346:1485  if (t1 == baseToken) {... */\n      tag_159\n      jumpi\n        /* \"hopium/standalone/main/price-oracle.sol\":1396:1401  false */\n      0x00\n        /* \"hopium/standalone/main/price-oracle.sol\":1381:1401  baseIsToken0 = false */\n      swap1\n      pop\n        /* \"hopium/standalone/main/price-oracle.sol\":1346:1485  if (t1 == baseToken) {... */\n      jump(tag_160)\n    tag_159:\n        /* \"hopium/standalone/main/price-oracle.sol\":1432:1474  revert(\"Pair does not contain base token\") */\n      mload(0x40)\n      0x08c379a000000000000000000000000000000000000000000000000000000000\n      dup2\n      mstore\n      0x04\n      add\n      tag_161\n      swap1\n      tag_162\n      jump\t// in\n    tag_161:\n      mload(0x40)\n      dup1\n      swap2\n      sub\n      swap1\n      revert\n        /* \"hopium/standalone/main/price-oracle.sol\":1346:1485  if (t1 == baseToken) {... */\n    tag_160:\n        /* \"hopium/standalone/main/price-oracle.sol\":1275:1485  if (t0 == baseToken) {... */\n    tag_158:\n        /* \"hopium/standalone/main/price-oracle.sol\":1510:1522  baseIsToken0 */\n      dup1\n        /* \"hopium/standalone/main/price-oracle.sol\":1510:1550  baseIsToken0 ? uint256(r0) : uint256(r1) */\n      tag_163\n      jumpi\n        /* \"hopium/standalone/main/price-oracle.sol\":1547:1549  r1 */\n      dup4\n        /* \"hopium/standalone/main/price-oracle.sol\":1539:1550  uint256(r1) */\n      0xffffffffffffffffffffffffffff\n      and\n        /* \"hopium/standalone/main/price-oracle.sol\":1510:1550  baseIsToken0 ? uint256(r0) : uint256(r1) */\n      jump(tag_164)\n    tag_163:\n        /* \"hopium/standalone/main/price-oracle.sol\":1533:1535  r0 */\n      dup5\n        /* \"hopium/standalone/main/price-oracle.sol\":1525:1536  uint256(r0) */\n      0xffffffffffffffffffffffffffff\n      and\n        /* \"hopium/standalone/main/price-oracle.sol\":1510:1550  baseIsToken0 ? uint256(r0) : uint256(r1) */\n    tag_164:\n        /* \"hopium/standalone/main/price-oracle.sol\":1495:1550  reserveBase  = baseIsToken0 ? uint256(r0) : uint256(r1) */\n      swap11\n      pop\n        /* \"hopium/standalone/main/price-oracle.sol\":1575:1587  baseIsToken0 */\n      dup1\n        /* \"hopium/standalone/main/price-oracle.sol\":1575:1615  baseIsToken0 ? uint256(r1) : uint256(r0) */\n      tag_165\n      jumpi\n        /* \"hopium/standalone/main/price-oracle.sol\":1612:1614  r0 */\n      dup5\n        /* \"hopium/standalone/main/price-oracle.sol\":1604:1615  uint256(r0) */\n      0xffffffffffffffffffffffffffff\n      and\n        /* \"hopium/standalone/main/price-oracle.sol\":1575:1615  baseIsToken0 ? uint256(r1) : uint256(r0) */\n      jump(tag_166)\n    tag_165:\n        /* \"hopium/standalone/main/price-oracle.sol\":1598:1600  r1 */\n      dup4\n        /* \"hopium/standalone/main/price-oracle.sol\":1590:1601  uint256(r1) */\n      0xffffffffffffffffffffffffffff\n      and\n        /* \"hopium/standalone/main/price-oracle.sol\":1575:1615  baseIsToken0 ? uint256(r1) : uint256(r0) */\n    tag_166:\n        /* \"hopium/standalone/main/price-oracle.sol\":1560:1615  reserveQuote = baseIsToken0 ? uint256(r1) : uint256(r0) */\n      swap9\n      pop\n        /* \"hopium/standalone/main/price-oracle.sol\":1640:1652  baseIsToken0 */\n      dup1\n        /* \"hopium/standalone/main/price-oracle.sol\":1640:1662  baseIsToken0 ? t1 : t0 */\n      tag_167\n      jumpi\n        /* \"hopium/standalone/main/price-oracle.sol\":1660:1662  t0 */\n      dup3\n        /* \"hopium/standalone/main/price-oracle.sol\":1640:1662  baseIsToken0 ? t1 : t0 */\n      jump(tag_168)\n    tag_167:\n        /* \"hopium/standalone/main/price-oracle.sol\":1655:1657  t1 */\n      dup2\n        /* \"hopium/standalone/main/price-oracle.sol\":1640:1662  baseIsToken0 ? t1 : t0 */\n    tag_168:\n        /* \"hopium/standalone/main/price-oracle.sol\":1625:1662  quoteToken   = baseIsToken0 ? t1 : t0 */\n      swap7\n      pop\n        /* \"hopium/standalone/main/price-oracle.sol\":1699:1708  baseToken */\n      dup12\n        /* \"hopium/standalone/main/price-oracle.sol\":1684:1718  IERC20Metadata(baseToken).decimals */\n      0xffffffffffffffffffffffffffffffffffffffff\n      and\n      0x313ce567\n        /* \"hopium/standalone/main/price-oracle.sol\":1684:1720  IERC20Metadata(baseToken).decimals() */\n      mload(0x40)\n      dup2\n      0xffffffff\n      and\n      0xe0\n      shl\n      dup2\n      mstore\n      0x04\n      add\n      0x20\n      mload(0x40)\n      dup1\n      dup4\n      sub\n      dup2\n      dup7\n      gas\n      staticcall\n      iszero\n      dup1\n      iszero\n      tag_170\n      jumpi\n      returndatacopy(0x00, 0x00, returndatasize)\n      revert(0x00, returndatasize)\n    tag_170:\n      pop\n      pop\n      pop\n      pop\n      mload(0x40)\n      returndatasize\n      not(0x1f)\n      0x1f\n      dup3\n      add\n      and\n      dup3\n      add\n      dup1\n      0x40\n      mstore\n      pop\n      dup2\n      add\n      swap1\n      tag_171\n      swap2\n      swap1\n      tag_70\n      jump\t// in\n    tag_171:\n        /* \"hopium/standalone/main/price-oracle.sol\":1673:1720  decBase  = IERC20Metadata(baseToken).decimals() */\n      swap10\n      pop\n        /* \"hopium/standalone/main/price-oracle.sol\":1756:1766  quoteToken */\n      dup7\n        /* \"hopium/standalone/main/price-oracle.sol\":1741:1776  IERC20Metadata(quoteToken).decimals */\n      0xffffffffffffffffffffffffffffffffffffffff\n      and\n      0x313ce567\n        /* \"hopium/standalone/main/price-oracle.sol\":1741:1778  IERC20Metadata(quoteToken).decimals() */\n      mload(0x40)\n      dup2\n      0xffffffff\n      and\n      0xe0\n      shl\n      dup2\n      mstore\n      0x04\n      add\n      0x20\n      mload(0x40)\n      dup1\n      dup4\n      sub\n      dup2\n      dup7\n      gas\n      staticcall\n      iszero\n      dup1\n      iszero\n      tag_173\n      jumpi\n      returndatacopy(0x00, 0x00, returndatasize)\n      revert(0x00, returndatasize)\n    tag_173:\n      pop\n      pop\n      pop\n      pop\n      mload(0x40)\n      returndatasize\n      not(0x1f)\n      0x1f\n      dup3\n      add\n      and\n      dup3\n      add\n      dup1\n      0x40\n      mstore\n      pop\n      dup2\n      add\n      swap1\n      tag_174\n      swap2\n      swap1\n      tag_70\n      jump\t// in\n    tag_174:\n        /* \"hopium/standalone/main/price-oracle.sol\":1730:1778  decQuote = IERC20Metadata(quoteToken).decimals() */\n      swap8\n      pop\n        /* \"hopium/standalone/main/price-oracle.sol\":1049:1785  {... */\n      pop\n      pop\n      pop\n      pop\n      pop\n      pop\n        /* \"hopium/standalone/main/price-oracle.sol\":765:1785  function _getOrderedReserves(address pairAddress, address baseToken)... */\n      swap3\n      swap6\n      pop\n      swap3\n      swap6\n      swap1\n      swap4\n      pop\n      jump\t// out\n        /* \"hopium/standalone/main/price-oracle.sol\":1857:2265  function _computePrice18(... */\n    tag_110:\n        /* \"hopium/standalone/main/price-oracle.sol\":2003:2018  uint256 price18 */\n      0x00\n        /* \"hopium/standalone/main/price-oracle.sol\":2030:2041  uint256 num */\n      0x00\n        /* \"hopium/standalone/main/price-oracle.sol\":2055:2059  1e18 */\n      0x0de0b6b3a7640000\n        /* \"hopium/standalone/main/price-oracle.sol\":2044:2052  reserveA */\n      dup7\n        /* \"hopium/standalone/main/price-oracle.sol\":2044:2059  reserveA * 1e18 */\n      tag_176\n      swap2\n      swap1\n      tag_62\n      jump\t// in\n    tag_176:\n        /* \"hopium/standalone/main/price-oracle.sol\":2030:2059  uint256 num = reserveA * 1e18 */\n      swap1\n      pop\n        /* \"hopium/standalone/main/price-oracle.sol\":2080:2084  decA */\n      dup5\n        /* \"hopium/standalone/main/price-oracle.sol\":2073:2084  decB > decA */\n      0xff\n      and\n        /* \"hopium/standalone/main/price-oracle.sol\":2073:2077  decB */\n      dup4\n        /* \"hopium/standalone/main/price-oracle.sol\":2073:2084  decB > decA */\n      0xff\n      and\n      gt\n        /* \"hopium/standalone/main/price-oracle.sol\":2069:2225  if (decB > decA) {... */\n      iszero\n      tag_177\n      jumpi\n        /* \"hopium/standalone/main/price-oracle.sol\":2128:2132  decA */\n      dup5\n        /* \"hopium/standalone/main/price-oracle.sol\":2121:2125  decB */\n      dup4\n        /* \"hopium/standalone/main/price-oracle.sol\":2121:2132  decB - decA */\n      tag_178\n      swap2\n      swap1\n      tag_128\n      jump\t// in\n    tag_178:\n        /* \"hopium/standalone/main/price-oracle.sol\":2113:2133  uint256(decB - decA) */\n      0xff\n      and\n        /* \"hopium/standalone/main/price-oracle.sol\":2107:2109  10 */\n      0x0a\n        /* \"hopium/standalone/main/price-oracle.sol\":2107:2133  10 ** uint256(decB - decA) */\n      tag_179\n      swap2\n      swap1\n      tag_130\n      jump\t// in\n    tag_179:\n        /* \"hopium/standalone/main/price-oracle.sol\":2100:2133  num *= 10 ** uint256(decB - decA) */\n      dup2\n      tag_180\n      swap2\n      swap1\n      tag_62\n      jump\t// in\n    tag_180:\n      swap1\n      pop\n        /* \"hopium/standalone/main/price-oracle.sol\":2069:2225  if (decB > decA) {... */\n      jump(tag_181)\n    tag_177:\n        /* \"hopium/standalone/main/price-oracle.sol\":2161:2165  decB */\n      dup3\n        /* \"hopium/standalone/main/price-oracle.sol\":2154:2165  decA > decB */\n      0xff\n      and\n        /* \"hopium/standalone/main/price-oracle.sol\":2154:2158  decA */\n      dup6\n        /* \"hopium/standalone/main/price-oracle.sol\":2154:2165  decA > decB */\n      0xff\n      and\n      gt\n        /* \"hopium/standalone/main/price-oracle.sol\":2150:2225  if (decA > decB) {... */\n      iszero\n      tag_182\n      jumpi\n        /* \"hopium/standalone/main/price-oracle.sol\":2209:2213  decB */\n      dup3\n        /* \"hopium/standalone/main/price-oracle.sol\":2202:2206  decA */\n      dup6\n        /* \"hopium/standalone/main/price-oracle.sol\":2202:2213  decA - decB */\n      tag_183\n      swap2\n      swap1\n      tag_128\n      jump\t// in\n    tag_183:\n        /* \"hopium/standalone/main/price-oracle.sol\":2194:2214  uint256(decA - decB) */\n      0xff\n      and\n        /* \"hopium/standalone/main/price-oracle.sol\":2188:2190  10 */\n      0x0a\n        /* \"hopium/standalone/main/price-oracle.sol\":2188:2214  10 ** uint256(decA - decB) */\n      tag_184\n      swap2\n      swap1\n      tag_130\n      jump\t// in\n    tag_184:\n        /* \"hopium/standalone/main/price-oracle.sol\":2181:2214  num /= 10 ** uint256(decA - decB) */\n      dup2\n      tag_185\n      swap2\n      swap1\n      tag_64\n      jump\t// in\n    tag_185:\n      swap1\n      pop\n        /* \"hopium/standalone/main/price-oracle.sol\":2150:2225  if (decA > decB) {... */\n    tag_182:\n        /* \"hopium/standalone/main/price-oracle.sol\":2069:2225  if (decB > decA) {... */\n    tag_181:\n        /* \"hopium/standalone/main/price-oracle.sol\":2250:2258  reserveB */\n      dup4\n        /* \"hopium/standalone/main/price-oracle.sol\":2244:2247  num */\n      dup2\n        /* \"hopium/standalone/main/price-oracle.sol\":2244:2258  num / reserveB */\n      tag_186\n      swap2\n      swap1\n      tag_64\n      jump\t// in\n    tag_186:\n        /* \"hopium/standalone/main/price-oracle.sol\":2234:2258  price18 = num / reserveB */\n      swap2\n      pop\n        /* \"hopium/standalone/main/price-oracle.sol\":2020:2265  {... */\n      pop\n        /* \"hopium/standalone/main/price-oracle.sol\":1857:2265  function _computePrice18(... */\n      swap5\n      swap4\n      pop\n      pop\n      pop\n      pop\n      jump\t// out\n        /* \"#utility.yul\":88:205   */\n    tag_188:\n        /* \"#utility.yul\":197:198   */\n      0x00\n        /* \"#utility.yul\":194:195   */\n      0x00\n        /* \"#utility.yul\":187:199   */\n      revert\n        /* \"#utility.yul\":334:460   */\n    tag_190:\n        /* \"#utility.yul\":371:378   */\n      0x00\n        /* \"#utility.yul\":411:453   */\n      0xffffffffffffffffffffffffffffffffffffffff\n        /* \"#utility.yul\":404:409   */\n      dup3\n        /* \"#utility.yul\":400:454   */\n      and\n        /* \"#utility.yul\":389:454   */\n      swap1\n      pop\n        /* \"#utility.yul\":334:460   */\n      swap2\n      swap1\n      pop\n      jump\t// out\n        /* \"#utility.yul\":466:562   */\n    tag_191:\n        /* \"#utility.yul\":503:510   */\n      0x00\n        /* \"#utility.yul\":532:556   */\n      tag_225\n        /* \"#utility.yul\":550:555   */\n      dup3\n        /* \"#utility.yul\":532:556   */\n      tag_190\n      jump\t// in\n    tag_225:\n        /* \"#utility.yul\":521:556   */\n      swap1\n      pop\n        /* \"#utility.yul\":466:562   */\n      swap2\n      swap1\n      pop\n      jump\t// out\n        /* \"#utility.yul\":568:690   */\n    tag_192:\n        /* \"#utility.yul\":641:665   */\n      tag_227\n        /* \"#utility.yul\":659:664   */\n      dup2\n        /* \"#utility.yul\":641:665   */\n      tag_191\n      jump\t// in\n    tag_227:\n        /* \"#utility.yul\":634:639   */\n      dup2\n        /* \"#utility.yul\":631:666   */\n      eq\n        /* \"#utility.yul\":621:684   */\n      tag_228\n      jumpi\n        /* \"#utility.yul\":680:681   */\n      0x00\n        /* \"#utility.yul\":677:678   */\n      0x00\n        /* \"#utility.yul\":670:682   */\n      revert\n        /* \"#utility.yul\":621:684   */\n    tag_228:\n        /* \"#utility.yul\":568:690   */\n      pop\n      jump\t// out\n        /* \"#utility.yul\":696:835   */\n    tag_193:\n        /* \"#utility.yul\":742:747   */\n      0x00\n        /* \"#utility.yul\":780:786   */\n      dup2\n        /* \"#utility.yul\":767:787   */\n      calldataload\n        /* \"#utility.yul\":758:787   */\n      swap1\n      pop\n        /* \"#utility.yul\":796:829   */\n      tag_230\n        /* \"#utility.yul\":823:828   */\n      dup2\n        /* \"#utility.yul\":796:829   */\n      tag_192\n      jump\t// in\n    tag_230:\n        /* \"#utility.yul\":696:835   */\n      swap3\n      swap2\n      pop\n      pop\n      jump\t// out\n        /* \"#utility.yul\":841:1170   */\n    tag_17:\n        /* \"#utility.yul\":900:906   */\n      0x00\n        /* \"#utility.yul\":949:951   */\n      0x20\n        /* \"#utility.yul\":937:946   */\n      dup3\n        /* \"#utility.yul\":928:935   */\n      dup5\n        /* \"#utility.yul\":924:947   */\n      sub\n        /* \"#utility.yul\":920:952   */\n      slt\n        /* \"#utility.yul\":917:1036   */\n      iszero\n      tag_232\n      jumpi\n        /* \"#utility.yul\":955:1034   */\n      tag_233\n      tag_188\n      jump\t// in\n    tag_233:\n        /* \"#utility.yul\":917:1036   */\n    tag_232:\n        /* \"#utility.yul\":1075:1076   */\n      0x00\n        /* \"#utility.yul\":1100:1153   */\n      tag_234\n        /* \"#utility.yul\":1145:1152   */\n      dup5\n        /* \"#utility.yul\":1136:1142   */\n      dup3\n        /* \"#utility.yul\":1125:1134   */\n      dup6\n        /* \"#utility.yul\":1121:1143   */\n      add\n        /* \"#utility.yul\":1100:1153   */\n      tag_193\n      jump\t// in\n    tag_234:\n        /* \"#utility.yul\":1090:1153   */\n      swap2\n      pop\n        /* \"#utility.yul\":1046:1163   */\n      pop\n        /* \"#utility.yul\":841:1170   */\n      swap3\n      swap2\n      pop\n      pop\n      jump\t// out\n        /* \"#utility.yul\":1176:1253   */\n    tag_194:\n        /* \"#utility.yul\":1213:1220   */\n      0x00\n        /* \"#utility.yul\":1242:1247   */\n      dup2\n        /* \"#utility.yul\":1231:1247   */\n      swap1\n      pop\n        /* \"#utility.yul\":1176:1253   */\n      swap2\n      swap1\n      pop\n      jump\t// out\n        /* \"#utility.yul\":1259:1377   */\n    tag_195:\n        /* \"#utility.yul\":1346:1370   */\n      tag_237\n        /* \"#utility.yul\":1364:1369   */\n      dup2\n        /* \"#utility.yul\":1346:1370   */\n      tag_194\n      jump\t// in\n    tag_237:\n        /* \"#utility.yul\":1341:1344   */\n      dup3\n        /* \"#utility.yul\":1334:1371   */\n      mstore\n        /* \"#utility.yul\":1259:1377   */\n      pop\n      pop\n      jump\t// out\n        /* \"#utility.yul\":1383:1605   */\n    tag_20:\n        /* \"#utility.yul\":1476:1480   */\n      0x00\n        /* \"#utility.yul\":1514:1516   */\n      0x20\n        /* \"#utility.yul\":1503:1512   */\n      dup3\n        /* \"#utility.yul\":1499:1517   */\n      add\n        /* \"#utility.yul\":1491:1517   */\n      swap1\n      pop\n        /* \"#utility.yul\":1527:1598   */\n      tag_239\n        /* \"#utility.yul\":1595:1596   */\n      0x00\n        /* \"#utility.yul\":1584:1593   */\n      dup4\n        /* \"#utility.yul\":1580:1597   */\n      add\n        /* \"#utility.yul\":1571:1577   */\n      dup5\n        /* \"#utility.yul\":1527:1598   */\n      tag_195\n      jump\t// in\n    tag_239:\n        /* \"#utility.yul\":1383:1605   */\n      swap3\n      swap2\n      pop\n      pop\n      jump\t// out\n        /* \"#utility.yul\":1611:1729   */\n    tag_196:\n        /* \"#utility.yul\":1698:1722   */\n      tag_241\n        /* \"#utility.yul\":1716:1721   */\n      dup2\n        /* \"#utility.yul\":1698:1722   */\n      tag_191\n      jump\t// in\n    tag_241:\n        /* \"#utility.yul\":1693:1696   */\n      dup3\n        /* \"#utility.yul\":1686:1723   */\n      mstore\n        /* \"#utility.yul\":1611:1729   */\n      pop\n      pop\n      jump\t// out\n        /* \"#utility.yul\":1735:1957   */\n    tag_24:\n        /* \"#utility.yul\":1828:1832   */\n      0x00\n        /* \"#utility.yul\":1866:1868   */\n      0x20\n        /* \"#utility.yul\":1855:1864   */\n      dup3\n        /* \"#utility.yul\":1851:1869   */\n      add\n        /* \"#utility.yul\":1843:1869   */\n      swap1\n      pop\n        /* \"#utility.yul\":1879:1950   */\n      tag_243\n        /* \"#utility.yul\":1947:1948   */\n      0x00\n        /* \"#utility.yul\":1936:1945   */\n      dup4\n        /* \"#utility.yul\":1932:1949   */\n      add\n        /* \"#utility.yul\":1923:1929   */\n      dup5\n        /* \"#utility.yul\":1879:1950   */\n      tag_196\n      jump\t// in\n    tag_243:\n        /* \"#utility.yul\":1735:1957   */\n      swap3\n      swap2\n      pop\n      pop\n      jump\t// out\n        /* \"#utility.yul\":1963:2143   */\n    tag_197:\n        /* \"#utility.yul\":2011:2088   */\n      0x4e487b7100000000000000000000000000000000000000000000000000000000\n        /* \"#utility.yul\":2008:2009   */\n      0x00\n        /* \"#utility.yul\":2001:2089   */\n      mstore\n        /* \"#utility.yul\":2108:2112   */\n      0x11\n        /* \"#utility.yul\":2105:2106   */\n      0x04\n        /* \"#utility.yul\":2098:2113   */\n      mstore\n        /* \"#utility.yul\":2132:2136   */\n      0x24\n        /* \"#utility.yul\":2129:2130   */\n      0x00\n        /* \"#utility.yul\":2122:2137   */\n      revert\n        /* \"#utility.yul\":2149:2559   */\n    tag_62:\n        /* \"#utility.yul\":2189:2196   */\n      0x00\n        /* \"#utility.yul\":2212:2232   */\n      tag_246\n        /* \"#utility.yul\":2230:2231   */\n      dup3\n        /* \"#utility.yul\":2212:2232   */\n      tag_194\n      jump\t// in\n    tag_246:\n        /* \"#utility.yul\":2207:2232   */\n      swap2\n      pop\n        /* \"#utility.yul\":2246:2266   */\n      tag_247\n        /* \"#utility.yul\":2264:2265   */\n      dup4\n        /* \"#utility.yul\":2246:2266   */\n      tag_194\n      jump\t// in\n    tag_247:\n        /* \"#utility.yul\":2241:2266   */\n      swap3\n      pop\n        /* \"#utility.yul\":2301:2302   */\n      dup3\n        /* \"#utility.yul\":2298:2299   */\n      dup3\n        /* \"#utility.yul\":2294:2303   */\n      mul\n        /* \"#utility.yul\":2323:2353   */\n      tag_248\n        /* \"#utility.yul\":2341:2352   */\n      dup2\n        /* \"#utility.yul\":2323:2353   */\n      tag_194\n      jump\t// in\n    tag_248:\n        /* \"#utility.yul\":2312:2353   */\n      swap2\n      pop\n        /* \"#utility.yul\":2502:2503   */\n      dup3\n        /* \"#utility.yul\":2493:2500   */\n      dup3\n        /* \"#utility.yul\":2489:2504   */\n      div\n        /* \"#utility.yul\":2486:2487   */\n      dup5\n        /* \"#utility.yul\":2483:2505   */\n      eq\n        /* \"#utility.yul\":2463:2464   */\n      dup4\n        /* \"#utility.yul\":2456:2465   */\n      iszero\n        /* \"#utility.yul\":2436:2519   */\n      or\n        /* \"#utility.yul\":2413:2552   */\n      tag_249\n      jumpi\n        /* \"#utility.yul\":2532:2550   */\n      tag_250\n      tag_197\n      jump\t// in\n    tag_250:\n        /* \"#utility.yul\":2413:2552   */\n    tag_249:\n        /* \"#utility.yul\":2197:2559   */\n      pop\n        /* \"#utility.yul\":2149:2559   */\n      swap3\n      swap2\n      pop\n      pop\n      jump\t// out\n        /* \"#utility.yul\":2565:2745   */\n    tag_198:\n        /* \"#utility.yul\":2613:2690   */\n      0x4e487b7100000000000000000000000000000000000000000000000000000000\n        /* \"#utility.yul\":2610:2611   */\n      0x00\n        /* \"#utility.yul\":2603:2691   */\n      mstore\n        /* \"#utility.yul\":2710:2714   */\n      0x12\n        /* \"#utility.yul\":2707:2708   */\n      0x04\n        /* \"#utility.yul\":2700:2715   */\n      mstore\n        /* \"#utility.yul\":2734:2738   */\n      0x24\n        /* \"#utility.yul\":2731:2732   */\n      0x00\n        /* \"#utility.yul\":2724:2739   */\n      revert\n        /* \"#utility.yul\":2751:2936   */\n    tag_64:\n        /* \"#utility.yul\":2791:2792   */\n      0x00\n        /* \"#utility.yul\":2808:2828   */\n      tag_253\n        /* \"#utility.yul\":2826:2827   */\n      dup3\n        /* \"#utility.yul\":2808:2828   */\n      tag_194\n      jump\t// in\n    tag_253:\n        /* \"#utility.yul\":2803:2828   */\n      swap2\n      pop\n        /* \"#utility.yul\":2842:2862   */\n      tag_254\n        /* \"#utility.yul\":2860:2861   */\n      dup4\n        /* \"#utility.yul\":2842:2862   */\n      tag_194\n      jump\t// in\n    tag_254:\n        /* \"#utility.yul\":2837:2862   */\n      swap3\n      pop\n        /* \"#utility.yul\":2881:2882   */\n      dup3\n        /* \"#utility.yul\":2871:2906   */\n      tag_255\n      jumpi\n        /* \"#utility.yul\":2886:2904   */\n      tag_256\n      tag_198\n      jump\t// in\n    tag_256:\n        /* \"#utility.yul\":2871:2906   */\n    tag_255:\n        /* \"#utility.yul\":2928:2929   */\n      dup3\n        /* \"#utility.yul\":2925:2926   */\n      dup3\n        /* \"#utility.yul\":2921:2930   */\n      div\n        /* \"#utility.yul\":2916:2930   */\n      swap1\n      pop\n        /* \"#utility.yul\":2751:2936   */\n      swap3\n      swap2\n      pop\n      pop\n      jump\t// out\n        /* \"#utility.yul\":2942:3028   */\n    tag_199:\n        /* \"#utility.yul\":2977:2984   */\n      0x00\n        /* \"#utility.yul\":3017:3021   */\n      0xff\n        /* \"#utility.yul\":3010:3015   */\n      dup3\n        /* \"#utility.yul\":3006:3022   */\n      and\n        /* \"#utility.yul\":2995:3022   */\n      swap1\n      pop\n        /* \"#utility.yul\":2942:3028   */\n      swap2\n      swap1\n      pop\n      jump\t// out\n        /* \"#utility.yul\":3034:3152   */\n    tag_200:\n        /* \"#utility.yul\":3105:3127   */\n      tag_259\n        /* \"#utility.yul\":3121:3126   */\n      dup2\n        /* \"#utility.yul\":3105:3127   */\n      tag_199\n      jump\t// in\n    tag_259:\n        /* \"#utility.yul\":3098:3103   */\n      dup2\n        /* \"#utility.yul\":3095:3128   */\n      eq\n        /* \"#utility.yul\":3085:3146   */\n      tag_260\n      jumpi\n        /* \"#utility.yul\":3142:3143   */\n      0x00\n        /* \"#utility.yul\":3139:3140   */\n      0x00\n        /* \"#utility.yul\":3132:3144   */\n      revert\n        /* \"#utility.yul\":3085:3146   */\n    tag_260:\n        /* \"#utility.yul\":3034:3152   */\n      pop\n      jump\t// out\n        /* \"#utility.yul\":3158:3297   */\n    tag_201:\n        /* \"#utility.yul\":3213:3218   */\n      0x00\n        /* \"#utility.yul\":3244:3250   */\n      dup2\n        /* \"#utility.yul\":3238:3251   */\n      mload\n        /* \"#utility.yul\":3229:3251   */\n      swap1\n      pop\n        /* \"#utility.yul\":3260:3291   */\n      tag_262\n        /* \"#utility.yul\":3285:3290   */\n      dup2\n        /* \"#utility.yul\":3260:3291   */\n      tag_200\n      jump\t// in\n    tag_262:\n        /* \"#utility.yul\":3158:3297   */\n      swap3\n      swap2\n      pop\n      pop\n      jump\t// out\n        /* \"#utility.yul\":3303:3650   */\n    tag_70:\n        /* \"#utility.yul\":3371:3377   */\n      0x00\n        /* \"#utility.yul\":3420:3422   */\n      0x20\n        /* \"#utility.yul\":3408:3417   */\n      dup3\n        /* \"#utility.yul\":3399:3406   */\n      dup5\n        /* \"#utility.yul\":3395:3418   */\n      sub\n        /* \"#utility.yul\":3391:3423   */\n      slt\n        /* \"#utility.yul\":3388:3507   */\n      iszero\n      tag_264\n      jumpi\n        /* \"#utility.yul\":3426:3505   */\n      tag_265\n      tag_188\n      jump\t// in\n    tag_265:\n        /* \"#utility.yul\":3388:3507   */\n    tag_264:\n        /* \"#utility.yul\":3546:3547   */\n      0x00\n        /* \"#utility.yul\":3571:3633   */\n      tag_266\n        /* \"#utility.yul\":3625:3632   */\n      dup5\n        /* \"#utility.yul\":3616:3622   */\n      dup3\n        /* \"#utility.yul\":3605:3614   */\n      dup6\n        /* \"#utility.yul\":3601:3623   */\n      add\n        /* \"#utility.yul\":3571:3633   */\n      tag_201\n      jump\t// in\n    tag_266:\n        /* \"#utility.yul\":3561:3633   */\n      swap2\n      pop\n        /* \"#utility.yul\":3517:3643   */\n      pop\n        /* \"#utility.yul\":3303:3650   */\n      swap3\n      swap2\n      pop\n      pop\n      jump\t// out\n        /* \"#utility.yul\":3656:3778   */\n    tag_202:\n        /* \"#utility.yul\":3729:3753   */\n      tag_268\n        /* \"#utility.yul\":3747:3752   */\n      dup2\n        /* \"#utility.yul\":3729:3753   */\n      tag_194\n      jump\t// in\n    tag_268:\n        /* \"#utility.yul\":3722:3727   */\n      dup2\n        /* \"#utility.yul\":3719:3754   */\n      eq\n        /* \"#utility.yul\":3709:3772   */\n      tag_269\n      jumpi\n        /* \"#utility.yul\":3768:3769   */\n      0x00\n        /* \"#utility.yul\":3765:3766   */\n      0x00\n        /* \"#utility.yul\":3758:3770   */\n      revert\n        /* \"#utility.yul\":3709:3772   */\n    tag_269:\n        /* \"#utility.yul\":3656:3778   */\n      pop\n      jump\t// out\n        /* \"#utility.yul\":3784:3927   */\n    tag_203:\n        /* \"#utility.yul\":3841:3846   */\n      0x00\n        /* \"#utility.yul\":3872:3878   */\n      dup2\n        /* \"#utility.yul\":3866:3879   */\n      mload\n        /* \"#utility.yul\":3857:3879   */\n      swap1\n      pop\n        /* \"#utility.yul\":3888:3921   */\n      tag_271\n        /* \"#utility.yul\":3915:3920   */\n      dup2\n        /* \"#utility.yul\":3888:3921   */\n      tag_202\n      jump\t// in\n    tag_271:\n        /* \"#utility.yul\":3784:3927   */\n      swap3\n      swap2\n      pop\n      pop\n      jump\t// out\n        /* \"#utility.yul\":3933:4284   */\n    tag_74:\n        /* \"#utility.yul\":4003:4009   */\n      0x00\n        /* \"#utility.yul\":4052:4054   */\n      0x20\n        /* \"#utility.yul\":4040:4049   */\n      dup3\n        /* \"#utility.yul\":4031:4038   */\n      dup5\n        /* \"#utility.yul\":4027:4050   */\n      sub\n        /* \"#utility.yul\":4023:4055   */\n      slt\n        /* \"#utility.yul\":4020:4139   */\n      iszero\n      tag_273\n      jumpi\n        /* \"#utility.yul\":4058:4137   */\n      tag_274\n      tag_188\n      jump\t// in\n    tag_274:\n        /* \"#utility.yul\":4020:4139   */\n    tag_273:\n        /* \"#utility.yul\":4178:4179   */\n      0x00\n        /* \"#utility.yul\":4203:4267   */\n      tag_275\n        /* \"#utility.yul\":4259:4266   */\n      dup5\n        /* \"#utility.yul\":4250:4256   */\n      dup3\n        /* \"#utility.yul\":4239:4248   */\n      dup6\n        /* \"#utility.yul\":4235:4257   */\n      add\n        /* \"#utility.yul\":4203:4267   */\n      tag_203\n      jump\t// in\n    tag_275:\n        /* \"#utility.yul\":4193:4267   */\n      swap2\n      pop\n        /* \"#utility.yul\":4149:4277   */\n      pop\n        /* \"#utility.yul\":3933:4284   */\n      swap3\n      swap2\n      pop\n      pop\n      jump\t// out\n        /* \"#utility.yul\":4290:4481   */\n    tag_88:\n        /* \"#utility.yul\":4330:4333   */\n      0x00\n        /* \"#utility.yul\":4349:4369   */\n      tag_277\n        /* \"#utility.yul\":4367:4368   */\n      dup3\n        /* \"#utility.yul\":4349:4369   */\n      tag_194\n      jump\t// in\n    tag_277:\n        /* \"#utility.yul\":4344:4369   */\n      swap2\n      pop\n        /* \"#utility.yul\":4383:4403   */\n      tag_278\n        /* \"#utility.yul\":4401:4402   */\n      dup4\n        /* \"#utility.yul\":4383:4403   */\n      tag_194\n      jump\t// in\n    tag_278:\n        /* \"#utility.yul\":4378:4403   */\n      swap3\n      pop\n        /* \"#utility.yul\":4426:4427   */\n      dup3\n        /* \"#utility.yul\":4423:4424   */\n      dup3\n        /* \"#utility.yul\":4419:4428   */\n      add\n        /* \"#utility.yul\":4412:4428   */\n      swap1\n      pop\n        /* \"#utility.yul\":4447:4450   */\n      dup1\n        /* \"#utility.yul\":4444:4445   */\n      dup3\n        /* \"#utility.yul\":4441:4451   */\n      gt\n        /* \"#utility.yul\":4438:4474   */\n      iszero\n      tag_279\n      jumpi\n        /* \"#utility.yul\":4454:4472   */\n      tag_280\n      tag_197\n      jump\t// in\n    tag_280:\n        /* \"#utility.yul\":4438:4474   */\n    tag_279:\n        /* \"#utility.yul\":4290:4481   */\n      swap3\n      swap2\n      pop\n      pop\n      jump\t// out\n        /* \"#utility.yul\":4487:4678   */\n    tag_128:\n        /* \"#utility.yul\":4525:4529   */\n      0x00\n        /* \"#utility.yul\":4545:4563   */\n      tag_282\n        /* \"#utility.yul\":4561:4562   */\n      dup3\n        /* \"#utility.yul\":4545:4563   */\n      tag_199\n      jump\t// in\n    tag_282:\n        /* \"#utility.yul\":4540:4563   */\n      swap2\n      pop\n        /* \"#utility.yul\":4577:4595   */\n      tag_283\n        /* \"#utility.yul\":4593:4594   */\n      dup4\n        /* \"#utility.yul\":4577:4595   */\n      tag_199\n      jump\t// in\n    tag_283:\n        /* \"#utility.yul\":4572:4595   */\n      swap3\n      pop\n        /* \"#utility.yul\":4619:4620   */\n      dup3\n        /* \"#utility.yul\":4616:4617   */\n      dup3\n        /* \"#utility.yul\":4612:4621   */\n      sub\n        /* \"#utility.yul\":4604:4621   */\n      swap1\n      pop\n        /* \"#utility.yul\":4643:4647   */\n      0xff\n        /* \"#utility.yul\":4637:4641   */\n      dup2\n        /* \"#utility.yul\":4634:4648   */\n      gt\n        /* \"#utility.yul\":4631:4671   */\n      iszero\n      tag_284\n      jumpi\n        /* \"#utility.yul\":4651:4669   */\n      tag_285\n      tag_197\n      jump\t// in\n    tag_285:\n        /* \"#utility.yul\":4631:4671   */\n    tag_284:\n        /* \"#utility.yul\":4487:4678   */\n      swap3\n      swap2\n      pop\n      pop\n      jump\t// out\n        /* \"#utility.yul\":4684:4786   */\n    tag_204:\n        /* \"#utility.yul\":4726:4734   */\n      0x00\n        /* \"#utility.yul\":4773:4778   */\n      dup2\n        /* \"#utility.yul\":4770:4771   */\n      0x01\n        /* \"#utility.yul\":4766:4779   */\n      shr\n        /* \"#utility.yul\":4745:4779   */\n      swap1\n      pop\n        /* \"#utility.yul\":4684:4786   */\n      swap2\n      swap1\n      pop\n      jump\t// out\n        /* \"#utility.yul\":4792:5640   */\n    tag_205:\n        /* \"#utility.yul\":4853:4858   */\n      0x00\n        /* \"#utility.yul\":4860:4864   */\n      0x00\n        /* \"#utility.yul\":4884:4890   */\n      dup3\n        /* \"#utility.yul\":4875:4890   */\n      swap2\n      pop\n        /* \"#utility.yul\":4908:4913   */\n      dup4\n        /* \"#utility.yul\":4899:4913   */\n      swap1\n      pop\n        /* \"#utility.yul\":4922:5634   */\n    tag_288:\n        /* \"#utility.yul\":4943:4944   */\n      0x01\n        /* \"#utility.yul\":4933:4941   */\n      dup6\n        /* \"#utility.yul\":4930:4945   */\n      gt\n        /* \"#utility.yul\":4922:5634   */\n      iszero\n      tag_290\n      jumpi\n        /* \"#utility.yul\":5038:5042   */\n      dup1\n        /* \"#utility.yul\":5033:5036   */\n      dup7\n        /* \"#utility.yul\":5029:5043   */\n      div\n        /* \"#utility.yul\":5023:5027   */\n      dup2\n        /* \"#utility.yul\":5020:5044   */\n      gt\n        /* \"#utility.yul\":5017:5067   */\n      iszero\n      tag_291\n      jumpi\n        /* \"#utility.yul\":5047:5065   */\n      tag_292\n      tag_197\n      jump\t// in\n    tag_292:\n        /* \"#utility.yul\":5017:5067   */\n    tag_291:\n        /* \"#utility.yul\":5097:5098   */\n      0x01\n        /* \"#utility.yul\":5087:5095   */\n      dup6\n        /* \"#utility.yul\":5083:5099   */\n      and\n        /* \"#utility.yul\":5080:5531   */\n      iszero\n      tag_293\n      jumpi\n        /* \"#utility.yul\":5512:5516   */\n      dup1\n        /* \"#utility.yul\":5505:5510   */\n      dup3\n        /* \"#utility.yul\":5501:5517   */\n      mul\n        /* \"#utility.yul\":5492:5517   */\n      swap2\n      pop\n        /* \"#utility.yul\":5080:5531   */\n    tag_293:\n        /* \"#utility.yul\":5562:5566   */\n      dup1\n        /* \"#utility.yul\":5556:5560   */\n      dup2\n        /* \"#utility.yul\":5552:5567   */\n      mul\n        /* \"#utility.yul\":5544:5567   */\n      swap1\n      pop\n        /* \"#utility.yul\":5592:5624   */\n      tag_294\n        /* \"#utility.yul\":5615:5623   */\n      dup6\n        /* \"#utility.yul\":5592:5624   */\n      tag_204\n      jump\t// in\n    tag_294:\n        /* \"#utility.yul\":5580:5624   */\n      swap5\n      pop\n        /* \"#utility.yul\":4922:5634   */\n      jump(tag_288)\n    tag_290:\n        /* \"#utility.yul\":4792:5640   */\n      swap5\n      pop\n      swap5\n      swap3\n      pop\n      pop\n      pop\n      jump\t// out\n        /* \"#utility.yul\":5646:6719   */\n    tag_206:\n        /* \"#utility.yul\":5700:5705   */\n      0x00\n        /* \"#utility.yul\":5891:5899   */\n      dup3\n        /* \"#utility.yul\":5881:5921   */\n      tag_296\n      jumpi\n        /* \"#utility.yul\":5912:5913   */\n      0x01\n        /* \"#utility.yul\":5903:5913   */\n      swap1\n      pop\n        /* \"#utility.yul\":5914:5919   */\n      jump(tag_295)\n        /* \"#utility.yul\":5881:5921   */\n    tag_296:\n        /* \"#utility.yul\":5940:5944   */\n      dup2\n        /* \"#utility.yul\":5930:5966   */\n      tag_297\n      jumpi\n        /* \"#utility.yul\":5957:5958   */\n      0x00\n        /* \"#utility.yul\":5948:5958   */\n      swap1\n      pop\n        /* \"#utility.yul\":5959:5964   */\n      jump(tag_295)\n        /* \"#utility.yul\":5930:5966   */\n    tag_297:\n        /* \"#utility.yul\":6026:6030   */\n      dup2\n        /* \"#utility.yul\":6074:6075   */\n      0x01\n        /* \"#utility.yul\":6069:6096   */\n      dup2\n      eq\n      tag_299\n      jumpi\n        /* \"#utility.yul\":6110:6111   */\n      0x02\n        /* \"#utility.yul\":6105:6296   */\n      dup2\n      eq\n      tag_300\n      jumpi\n        /* \"#utility.yul\":6019:6296   */\n      jump(tag_298)\n        /* \"#utility.yul\":6069:6096   */\n    tag_299:\n        /* \"#utility.yul\":6087:6088   */\n      0x01\n        /* \"#utility.yul\":6078:6088   */\n      swap2\n      pop\n        /* \"#utility.yul\":6089:6094   */\n      pop\n      jump(tag_295)\n        /* \"#utility.yul\":6105:6296   */\n    tag_300:\n        /* \"#utility.yul\":6150:6153   */\n      0xff\n        /* \"#utility.yul\":6140:6148   */\n      dup5\n        /* \"#utility.yul\":6137:6154   */\n      gt\n        /* \"#utility.yul\":6134:6177   */\n      iszero\n      tag_301\n      jumpi\n        /* \"#utility.yul\":6157:6175   */\n      tag_302\n      tag_197\n      jump\t// in\n    tag_302:\n        /* \"#utility.yul\":6134:6177   */\n    tag_301:\n        /* \"#utility.yul\":6206:6214   */\n      dup4\n        /* \"#utility.yul\":6203:6204   */\n      0x02\n        /* \"#utility.yul\":6199:6215   */\n      exp\n        /* \"#utility.yul\":6190:6215   */\n      swap2\n      pop\n        /* \"#utility.yul\":6241:6244   */\n      dup5\n        /* \"#utility.yul\":6234:6239   */\n      dup3\n        /* \"#utility.yul\":6231:6245   */\n      gt\n        /* \"#utility.yul\":6228:6268   */\n      iszero\n      tag_303\n      jumpi\n        /* \"#utility.yul\":6248:6266   */\n      tag_304\n      tag_197\n      jump\t// in\n    tag_304:\n        /* \"#utility.yul\":6228:6268   */\n    tag_303:\n        /* \"#utility.yul\":6281:6286   */\n      pop\n      jump(tag_295)\n        /* \"#utility.yul\":6019:6296   */\n    tag_298:\n      pop\n        /* \"#utility.yul\":6405:6407   */\n      0x20\n        /* \"#utility.yul\":6395:6403   */\n      dup4\n        /* \"#utility.yul\":6392:6408   */\n      lt\n        /* \"#utility.yul\":6386:6389   */\n      0x0133\n        /* \"#utility.yul\":6380:6384   */\n      dup4\n        /* \"#utility.yul\":6377:6390   */\n      lt\n        /* \"#utility.yul\":6373:6409   */\n      and\n        /* \"#utility.yul\":6355:6357   */\n      0x4e\n        /* \"#utility.yul\":6345:6353   */\n      dup5\n        /* \"#utility.yul\":6342:6358   */\n      lt\n        /* \"#utility.yul\":6337:6339   */\n      0x0b\n        /* \"#utility.yul\":6331:6335   */\n      dup5\n        /* \"#utility.yul\":6328:6340   */\n      lt\n        /* \"#utility.yul\":6324:6359   */\n      and\n        /* \"#utility.yul\":6308:6419   */\n      or\n        /* \"#utility.yul\":6305:6551   */\n      iszero\n      tag_305\n      jumpi\n        /* \"#utility.yul\":6461:6469   */\n      dup3\n        /* \"#utility.yul\":6455:6459   */\n      dup3\n        /* \"#utility.yul\":6451:6470   */\n      exp\n        /* \"#utility.yul\":6442:6470   */\n      swap1\n      pop\n        /* \"#utility.yul\":6496:6499   */\n      dup4\n        /* \"#utility.yul\":6489:6494   */\n      dup2\n        /* \"#utility.yul\":6486:6500   */\n      gt\n        /* \"#utility.yul\":6483:6523   */\n      iszero\n      tag_306\n      jumpi\n        /* \"#utility.yul\":6503:6521   */\n      tag_307\n      tag_197\n      jump\t// in\n    tag_307:\n        /* \"#utility.yul\":6483:6523   */\n    tag_306:\n        /* \"#utility.yul\":6536:6541   */\n      jump(tag_295)\n        /* \"#utility.yul\":6305:6551   */\n    tag_305:\n        /* \"#utility.yul\":6576:6618   */\n      tag_308\n        /* \"#utility.yul\":6614:6617   */\n      dup5\n        /* \"#utility.yul\":6604:6612   */\n      dup5\n        /* \"#utility.yul\":6598:6602   */\n      dup5\n        /* \"#utility.yul\":6595:6596   */\n      0x01\n        /* \"#utility.yul\":6576:6618   */\n      tag_205\n      jump\t// in\n    tag_308:\n        /* \"#utility.yul\":6561:6618   */\n      swap3\n      pop\n      swap1\n      pop\n        /* \"#utility.yul\":6650:6654   */\n      dup2\n        /* \"#utility.yul\":6645:6648   */\n      dup5\n        /* \"#utility.yul\":6641:6655   */\n      div\n        /* \"#utility.yul\":6634:6639   */\n      dup2\n        /* \"#utility.yul\":6631:6656   */\n      gt\n        /* \"#utility.yul\":6628:6679   */\n      iszero\n      tag_309\n      jumpi\n        /* \"#utility.yul\":6659:6677   */\n      tag_310\n      tag_197\n      jump\t// in\n    tag_310:\n        /* \"#utility.yul\":6628:6679   */\n    tag_309:\n        /* \"#utility.yul\":6708:6712   */\n      dup2\n        /* \"#utility.yul\":6701:6706   */\n      dup2\n        /* \"#utility.yul\":6697:6713   */\n      mul\n        /* \"#utility.yul\":6688:6713   */\n      swap1\n      pop\n        /* \"#utility.yul\":5646:6719   */\n    tag_295:\n      swap4\n      swap3\n      pop\n      pop\n      pop\n      jump\t// out\n        /* \"#utility.yul\":6725:7010   */\n    tag_130:\n        /* \"#utility.yul\":6785:6790   */\n      0x00\n        /* \"#utility.yul\":6809:6832   */\n      tag_312\n        /* \"#utility.yul\":6827:6831   */\n      dup3\n        /* \"#utility.yul\":6809:6832   */\n      tag_194\n      jump\t// in\n    tag_312:\n        /* \"#utility.yul\":6801:6832   */\n      swap2\n      pop\n        /* \"#utility.yul\":6853:6880   */\n      tag_313\n        /* \"#utility.yul\":6871:6879   */\n      dup4\n        /* \"#utility.yul\":6853:6880   */\n      tag_194\n      jump\t// in\n    tag_313:\n        /* \"#utility.yul\":6841:6880   */\n      swap3\n      pop\n        /* \"#utility.yul\":6899:7003   */\n      tag_314\n        /* \"#utility.yul\":6936:7002   */\n      0xffffffffffffffffffffffffffffffffffffffffffffffffffffffffffffffff\n        /* \"#utility.yul\":6926:6934   */\n      dup5\n        /* \"#utility.yul\":6920:6924   */\n      dup5\n        /* \"#utility.yul\":6899:7003   */\n      tag_206\n      jump\t// in\n    tag_314:\n        /* \"#utility.yul\":6890:7003   */\n      swap1\n      pop\n        /* \"#utility.yul\":6725:7010   */\n      swap3\n      swap2\n      pop\n      pop\n      jump\t// out\n        /* \"#utility.yul\":7016:7348   */\n    tag_138:\n        /* \"#utility.yul\":7137:7141   */\n      0x00\n        /* \"#utility.yul\":7175:7177   */\n      0x40\n        /* \"#utility.yul\":7164:7173   */\n      dup3\n        /* \"#utility.yul\":7160:7178   */\n      add\n        /* \"#utility.yul\":7152:7178   */\n      swap1\n      pop\n        /* \"#utility.yul\":7188:7259   */\n      tag_316\n        /* \"#utility.yul\":7256:7257   */\n      0x00\n        /* \"#utility.yul\":7245:7254   */\n      dup4\n        /* \"#utility.yul\":7241:7258   */\n      add\n        /* \"#utility.yul\":7232:7238   */\n      dup6\n        /* \"#utility.yul\":7188:7259   */\n      tag_196\n      jump\t// in\n    tag_316:\n        /* \"#utility.yul\":7269:7341   */\n      tag_317\n        /* \"#utility.yul\":7337:7339   */\n      0x20\n        /* \"#utility.yul\":7326:7335   */\n      dup4\n        /* \"#utility.yul\":7322:7340   */\n      add\n        /* \"#utility.yul\":7313:7319   */\n      dup5\n        /* \"#utility.yul\":7269:7341   */\n      tag_196\n      jump\t// in\n    tag_317:\n        /* \"#utility.yul\":7016:7348   */\n      swap4\n      swap3\n      pop\n      pop\n      pop\n      jump\t// out\n        /* \"#utility.yul\":7354:7497   */\n    tag_207:\n        /* \"#utility.yul\":7411:7416   */\n      0x00\n        /* \"#utility.yul\":7442:7448   */\n      dup2\n        /* \"#utility.yul\":7436:7449   */\n      mload\n        /* \"#utility.yul\":7427:7449   */\n      swap1\n      pop\n        /* \"#utility.yul\":7458:7491   */\n      tag_319\n        /* \"#utility.yul\":7485:7490   */\n      dup2\n        /* \"#utility.yul\":7458:7491   */\n      tag_192\n      jump\t// in\n    tag_319:\n        /* \"#utility.yul\":7354:7497   */\n      swap3\n      swap2\n      pop\n      pop\n      jump\t// out\n        /* \"#utility.yul\":7503:7854   */\n    tag_142:\n        /* \"#utility.yul\":7573:7579   */\n      0x00\n        /* \"#utility.yul\":7622:7624   */\n      0x20\n        /* \"#utility.yul\":7610:7619   */\n      dup3\n        /* \"#utility.yul\":7601:7608   */\n      dup5\n        /* \"#utility.yul\":7597:7620   */\n      sub\n        /* \"#utility.yul\":7593:7625   */\n      slt\n        /* \"#utility.yul\":7590:7709   */\n      iszero\n      tag_321\n      jumpi\n        /* \"#utility.yul\":7628:7707   */\n      tag_322\n      tag_188\n      jump\t// in\n    tag_322:\n        /* \"#utility.yul\":7590:7709   */\n    tag_321:\n        /* \"#utility.yul\":7748:7749   */\n      0x00\n        /* \"#utility.yul\":7773:7837   */\n      tag_323\n        /* \"#utility.yul\":7829:7836   */\n      dup5\n        /* \"#utility.yul\":7820:7826   */\n      dup3\n        /* \"#utility.yul\":7809:7818   */\n      dup6\n        /* \"#utility.yul\":7805:7827   */\n      add\n        /* \"#utility.yul\":7773:7837   */\n      tag_207\n      jump\t// in\n    tag_323:\n        /* \"#utility.yul\":7763:7837   */\n      swap2\n      pop\n        /* \"#utility.yul\":7719:7847   */\n      pop\n        /* \"#utility.yul\":7503:7854   */\n      swap3\n      swap2\n      pop\n      pop\n      jump\t// out\n        /* \"#utility.yul\":7860:8029   */\n    tag_208:\n        /* \"#utility.yul\":7944:7955   */\n      0x00\n        /* \"#utility.yul\":7978:7984   */\n      dup3\n        /* \"#utility.yul\":7973:7976   */\n      dup3\n        /* \"#utility.yul\":7966:7985   */\n      mstore\n        /* \"#utility.yul\":8018:8022   */\n      0x20\n        /* \"#utility.yul\":8013:8016   */\n      dup3\n        /* \"#utility.yul\":8009:8023   */\n      add\n        /* \"#utility.yul\":7994:8023   */\n      swap1\n      pop\n        /* \"#utility.yul\":7860:8029   */\n      swap3\n      swap2\n      pop\n      pop\n      jump\t// out\n        /* \"#utility.yul\":8035:8256   */\n    tag_209:\n        /* \"#utility.yul\":8175:8209   */\n      0x556e69737761705632506169723a207061697220646f6573206e6f7420657869\n        /* \"#utility.yul\":8171:8172   */\n      0x00\n        /* \"#utility.yul\":8163:8169   */\n      dup3\n        /* \"#utility.yul\":8159:8173   */\n      add\n        /* \"#utility.yul\":8152:8210   */\n      mstore\n        /* \"#utility.yul\":8244:8248   */\n      0x7374000000000000000000000000000000000000000000000000000000000000\n        /* \"#utility.yul\":8239:8241   */\n      0x20\n        /* \"#utility.yul\":8231:8237   */\n      dup3\n        /* \"#utility.yul\":8227:8242   */\n      add\n        /* \"#utility.yul\":8220:8249   */\n      mstore\n        /* \"#utility.yul\":8035:8256   */\n      pop\n      jump\t// out\n        /* \"#utility.yul\":8262:8628   */\n    tag_210:\n        /* \"#utility.yul\":8404:8407   */\n      0x00\n        /* \"#utility.yul\":8425:8492   */\n      tag_327\n        /* \"#utility.yul\":8489:8491   */\n      0x22\n        /* \"#utility.yul\":8484:8487   */\n      dup4\n        /* \"#utility.yul\":8425:8492   */\n      tag_208\n      jump\t// in\n    tag_327:\n        /* \"#utility.yul\":8418:8492   */\n      swap2\n      pop\n        /* \"#utility.yul\":8501:8594   */\n      tag_328\n        /* \"#utility.yul\":8590:8593   */\n      dup3\n        /* \"#utility.yul\":8501:8594   */\n      tag_209\n      jump\t// in\n    tag_328:\n        /* \"#utility.yul\":8619:8621   */\n      0x40\n        /* \"#utility.yul\":8614:8617   */\n      dup3\n        /* \"#utility.yul\":8610:8622   */\n      add\n        /* \"#utility.yul\":8603:8622   */\n      swap1\n      pop\n        /* \"#utility.yul\":8262:8628   */\n      swap2\n      swap1\n      pop\n      jump\t// out\n        /* \"#utility.yul\":8634:9053   */\n    tag_145:\n        /* \"#utility.yul\":8800:8804   */\n      0x00\n        /* \"#utility.yul\":8838:8840   */\n      0x20\n        /* \"#utility.yul\":8827:8836   */\n      dup3\n        /* \"#utility.yul\":8823:8841   */\n      add\n        /* \"#utility.yul\":8815:8841   */\n      swap1\n      pop\n        /* \"#utility.yul\":8887:8896   */\n      dup2\n        /* \"#utility.yul\":8881:8885   */\n      dup2\n        /* \"#utility.yul\":8877:8897   */\n      sub\n        /* \"#utility.yul\":8873:8874   */\n      0x00\n        /* \"#utility.yul\":8862:8871   */\n      dup4\n        /* \"#utility.yul\":8858:8875   */\n      add\n        /* \"#utility.yul\":8851:8898   */\n      mstore\n        /* \"#utility.yul\":8915:9046   */\n      tag_330\n        /* \"#utility.yul\":9041:9045   */\n      dup2\n        /* \"#utility.yul\":8915:9046   */\n      tag_210\n      jump\t// in\n    tag_330:\n        /* \"#utility.yul\":8907:9046   */\n      swap1\n      pop\n        /* \"#utility.yul\":8634:9053   */\n      swap2\n      swap1\n      pop\n      jump\t// out\n        /* \"#utility.yul\":9059:9173   */\n    tag_211:\n        /* \"#utility.yul\":9096:9103   */\n      0x00\n        /* \"#utility.yul\":9136:9166   */\n      0xffffffffffffffffffffffffffff\n        /* \"#utility.yul\":9129:9134   */\n      dup3\n        /* \"#utility.yul\":9125:9167   */\n      and\n        /* \"#utility.yul\":9114:9167   */\n      swap1\n      pop\n        /* \"#utility.yul\":9059:9173   */\n      swap2\n      swap1\n      pop\n      jump\t// out\n        /* \"#utility.yul\":9179:9301   */\n    tag_212:\n        /* \"#utility.yul\":9252:9276   */\n      tag_333\n        /* \"#utility.yul\":9270:9275   */\n      dup2\n        /* \"#utility.yul\":9252:9276   */\n      tag_211\n      jump\t// in\n    tag_333:\n        /* \"#utility.yul\":9245:9250   */\n      dup2\n        /* \"#utility.yul\":9242:9277   */\n      eq\n        /* \"#utility.yul\":9232:9295   */\n      tag_334\n      jumpi\n        /* \"#utility.yul\":9291:9292   */\n      0x00\n        /* \"#utility.yul\":9288:9289   */\n      0x00\n        /* \"#utility.yul\":9281:9293   */\n      revert\n        /* \"#utility.yul\":9232:9295   */\n    tag_334:\n        /* \"#utility.yul\":9179:9301   */\n      pop\n      jump\t// out\n        /* \"#utility.yul\":9307:9450   */\n    tag_213:\n        /* \"#utility.yul\":9364:9369   */\n      0x00\n        /* \"#utility.yul\":9395:9401   */\n      dup2\n        /* \"#utility.yul\":9389:9402   */\n      mload\n        /* \"#utility.yul\":9380:9402   */\n      swap1\n      pop\n        /* \"#utility.yul\":9411:9444   */\n      tag_336\n        /* \"#utility.yul\":9438:9443   */\n      dup2\n        /* \"#utility.yul\":9411:9444   */\n      tag_212\n      jump\t// in\n    tag_336:\n        /* \"#utility.yul\":9307:9450   */\n      swap3\n      swap2\n      pop\n      pop\n      jump\t// out\n        /* \"#utility.yul\":9456:9549   */\n    tag_214:\n        /* \"#utility.yul\":9492:9499   */\n      0x00\n        /* \"#utility.yul\":9532:9542   */\n      0xffffffff\n        /* \"#utility.yul\":9525:9530   */\n      dup3\n        /* \"#utility.yul\":9521:9543   */\n      and\n        /* \"#utility.yul\":9510:9543   */\n      swap1\n      pop\n        /* \"#utility.yul\":9456:9549   */\n      swap2\n      swap1\n      pop\n      jump\t// out\n        /* \"#utility.yul\":9555:9675   */\n    tag_215:\n        /* \"#utility.yul\":9627:9650   */\n      tag_339\n        /* \"#utility.yul\":9644:9649   */\n      dup2\n        /* \"#utility.yul\":9627:9650   */\n      tag_214\n      jump\t// in\n    tag_339:\n        /* \"#utility.yul\":9620:9625   */\n      dup2\n        /* \"#utility.yul\":9617:9651   */\n      eq\n        /* \"#utility.yul\":9607:9669   */\n      tag_340\n      jumpi\n        /* \"#utility.yul\":9665:9666   */\n      0x00\n        /* \"#utility.yul\":9662:9663   */\n      0x00\n        /* \"#utility.yul\":9655:9667   */\n      revert\n        /* \"#utility.yul\":9607:9669   */\n    tag_340:\n        /* \"#utility.yul\":9555:9675   */\n      pop\n      jump\t// out\n        /* \"#utility.yul\":9681:9822   */\n    tag_216:\n        /* \"#utility.yul\":9737:9742   */\n      0x00\n        /* \"#utility.yul\":9768:9774   */\n      dup2\n        /* \"#utility.yul\":9762:9775   */\n      mload\n        /* \"#utility.yul\":9753:9775   */\n      swap1\n      pop\n        /* \"#utility.yul\":9784:9816   */\n      tag_342\n        /* \"#utility.yul\":9810:9815   */\n      dup2\n        /* \"#utility.yul\":9784:9816   */\n      tag_215\n      jump\t// in\n    tag_342:\n        /* \"#utility.yul\":9681:9822   */\n      swap3\n      swap2\n      pop\n      pop\n      jump\t// out\n        /* \"#utility.yul\":9828:10489   */\n    tag_150:\n        /* \"#utility.yul\":9915:9921   */\n      0x00\n        /* \"#utility.yul\":9923:9929   */\n      0x00\n        /* \"#utility.yul\":9931:9937   */\n      0x00\n        /* \"#utility.yul\":9980:9982   */\n      0x60\n        /* \"#utility.yul\":9968:9977   */\n      dup5\n        /* \"#utility.yul\":9959:9966   */\n      dup7\n        /* \"#utility.yul\":9955:9978   */\n      sub\n        /* \"#utility.yul\":9951:9983   */\n      slt\n        /* \"#utility.yul\":9948:10067   */\n      iszero\n      tag_344\n      jumpi\n        /* \"#utility.yul\":9986:10065   */\n      tag_345\n      tag_188\n      jump\t// in\n    tag_345:\n        /* \"#utility.yul\":9948:10067   */\n    tag_344:\n        /* \"#utility.yul\":10106:10107   */\n      0x00\n        /* \"#utility.yul\":10131:10195   */\n      tag_346\n        /* \"#utility.yul\":10187:10194   */\n      dup7\n        /* \"#utility.yul\":10178:10184   */\n      dup3\n        /* \"#utility.yul\":10167:10176   */\n      dup8\n        /* \"#utility.yul\":10163:10185   */\n      add\n        /* \"#utility.yul\":10131:10195   */\n      tag_213\n      jump\t// in\n    tag_346:\n        /* \"#utility.yul\":10121:10195   */\n      swap4\n      pop\n        /* \"#utility.yul\":10077:10205   */\n      pop\n        /* \"#utility.yul\":10244:10246   */\n      0x20\n        /* \"#utility.yul\":10270:10334   */\n      tag_347\n        /* \"#utility.yul\":10326:10333   */\n      dup7\n        /* \"#utility.yul\":10317:10323   */\n      dup3\n        /* \"#utility.yul\":10306:10315   */\n      dup8\n        /* \"#utility.yul\":10302:10324   */\n      add\n        /* \"#utility.yul\":10270:10334   */\n      tag_213\n      jump\t// in\n    tag_347:\n        /* \"#utility.yul\":10260:10334   */\n      swap3\n      pop\n        /* \"#utility.yul\":10215:10344   */\n      pop\n        /* \"#utility.yul\":10383:10385   */\n      0x40\n        /* \"#utility.yul\":10409:10472   */\n      tag_348\n        /* \"#utility.yul\":10464:10471   */\n      dup7\n        /* \"#utility.yul\":10455:10461   */\n      dup3\n        /* \"#utility.yul\":10444:10453   */\n      dup8\n        /* \"#utility.yul\":10440:10462   */\n      add\n        /* \"#utility.yul\":10409:10472   */\n      tag_216\n      jump\t// in\n    tag_348:\n        /* \"#utility.yul\":10399:10472   */\n      swap2\n      pop\n        /* \"#utility.yul\":10354:10482   */\n      pop\n        /* \"#utility.yul\":9828:10489   */\n      swap3\n      pop\n      swap3\n      pop\n      swap3\n      jump\t// out\n        /* \"#utility.yul\":10495:10677   */\n    tag_217:\n        /* \"#utility.yul\":10635:10669   */\n      0x5061697220646f6573206e6f7420636f6e7461696e206261736520746f6b656e\n        /* \"#utility.yul\":10631:10632   */\n      0x00\n        /* \"#utility.yul\":10623:10629   */\n      dup3\n        /* \"#utility.yul\":10619:10633   */\n      add\n        /* \"#utility.yul\":10612:10670   */\n      mstore\n        /* \"#utility.yul\":10495:10677   */\n      pop\n      jump\t// out\n        /* \"#utility.yul\":10683:11049   */\n    tag_218:\n        /* \"#utility.yul\":10825:10828   */\n      0x00\n        /* \"#utility.yul\":10846:10913   */\n      tag_351\n        /* \"#utility.yul\":10910:10912   */\n      0x20\n        /* \"#utility.yul\":10905:10908   */\n      dup4\n        /* \"#utility.yul\":10846:10913   */\n      tag_208\n      jump\t// in\n    tag_351:\n        /* \"#utility.yul\":10839:10913   */\n      swap2\n      pop\n        /* \"#utility.yul\":10922:11015   */\n      tag_352\n        /* \"#utility.yul\":11011:11014   */\n      dup3\n        /* \"#utility.yul\":10922:11015   */\n      tag_217\n      jump\t// in\n    tag_352:\n        /* \"#utility.yul\":11040:11042   */\n      0x20\n        /* \"#utility.yul\":11035:11038   */\n      dup3\n        /* \"#utility.yul\":11031:11043   */\n      add\n        /* \"#utility.yul\":11024:11043   */\n      swap1\n      pop\n        /* \"#utility.yul\":10683:11049   */\n      swap2\n      swap1\n      pop\n      jump\t// out\n        /* \"#utility.yul\":11055:11474   */\n    tag_162:\n        /* \"#utility.yul\":11221:11225   */\n      0x00\n        /* \"#utility.yul\":11259:11261   */\n      0x20\n        /* \"#utility.yul\":11248:11257   */\n      dup3\n        /* \"#utility.yul\":11244:11262   */\n      add\n        /* \"#utility.yul\":11236:11262   */\n      swap1\n      pop\n        /* \"#utility.yul\":11308:11317   */\n      dup2\n        /* \"#utility.yul\":11302:11306   */\n      dup2\n        /* \"#utility.yul\":11298:11318   */\n      sub\n        /* \"#utility.yul\":11294:11295   */\n      0x00\n        /* \"#utility.yul\":11283:11292   */\n      dup4\n        /* \"#utility.yul\":11279:11296   */\n      add\n        /* \"#utility.yul\":11272:11319   */\n      mstore\n        /* \"#utility.yul\":11336:11467   */\n      tag_354\n        /* \"#utility.yul\":11462:11466   */\n      dup2\n        /* \"#utility.yul\":11336:11467   */\n      tag_218\n      jump\t// in\n    tag_354:\n        /* \"#utility.yul\":11328:11467   */\n      swap1\n      pop\n        /* \"#utility.yul\":11055:11474   */\n      swap2\n      swap1\n      pop\n      jump\t// out\n\n    auxdata: 0xa26469706673582212206cdf278f66d2471be386a6c28586bfb37762b65b9a6af7ff6a47a1da617887fb64736f6c634300081e0033\n}\n",
				"bytecode": {
					"linkReferences": {},
					"object": "608060405234801561000f575f5ffd5b506040516116a73803806116a783398181016040528101906100319190610156565b825f5f6101000a81548173ffffffffffffffffffffffffffffffffffffffff021916908373ffffffffffffffffffffffffffffffffffffffff1602179055508160015f6101000a81548173ffffffffffffffffffffffffffffffffffffffff021916908373ffffffffffffffffffffffffffffffffffffffff1602179055508060025f6101000a81548173ffffffffffffffffffffffffffffffffffffffff021916908373ffffffffffffffffffffffffffffffffffffffff1602179055505050506101a6565b5f5ffd5b5f73ffffffffffffffffffffffffffffffffffffffff82169050919050565b5f610125826100fc565b9050919050565b6101358161011b565b811461013f575f5ffd5b50565b5f815190506101508161012c565b92915050565b5f5f5f6060848603121561016d5761016c6100f8565b5b5f61017a86828701610142565b935050602061018b86828701610142565b925050604061019c86828701610142565b9150509250925092565b6114f4806101b35f395ff3fe608060405234801561000f575f5ffd5b50600436106100a6575f3560e01c806363aa0c931161006f57806363aa0c93146101765780636855e939146101a657806369a2e17d146101c45780637b49b49d146101f45780637d1aa61014610224578063884ec7a914610254576100a6565b8062593bcf146100aa578063040141e5146100da5780630b017603146100f85780630dbc0d7d1461011657806357b6c13314610146575b5f5ffd5b6100c460048036038101906100bf9190610ea1565b610272565b6040516100d19190610ee4565b60405180910390f35b6100e26102b2565b6040516100ef9190610f0c565b60405180910390f35b6101006102d6565b60405161010d9190610f0c565b60405180910390f35b610130600480360381019061012b9190610ea1565b6102fb565b60405161013d9190610ee4565b60405180910390f35b610160600480360381019061015b9190610ea1565b61050f565b60405161016d9190610ee4565b60405180910390f35b610190600480360381019061018b9190610ea1565b61054f565b60405161019d9190610ee4565b60405180910390f35b6101ae6106d7565b6040516101bb9190610ee4565b60405180910390f35b6101de60048036038101906101d99190610ea1565b610745565b6040516101eb9190610ee4565b60405180910390f35b61020e60048036038101906102099190610ea1565b610785565b60405161021b9190610ee4565b60405180910390f35b61023e60048036038101906102399190610ea1565b61084a565b60405161024b9190610f0c565b60405180910390f35b61025c61085b565b6040516102699190610f0c565b60405180910390f35b5f5f61027d83610785565b90505f6102886106d7565b9050670de0b6b3a7640000818361029f9190610f52565b6102a99190610fc0565b92505050919050565b5f5f9054906101000a900473ffffffffffffffffffffffffffffffffffffffff1681565b60015f9054906101000a900473ffffffffffffffffffffffffffffffffffffffff1681565b5f5f5f9054906101000a900473ffffffffffffffffffffffffffffffffffffffff1673ffffffffffffffffffffffffffffffffffffffff168273ffffffffffffffffffffffffffffffffffffffff1603610482575f5f5f9054906101000a900473ffffffffffffffffffffffffffffffffffffffff1673ffffffffffffffffffffffffffffffffffffffff1663313ce5676040518163ffffffff1660e01b8152600401602060405180830381865afa1580156103b9573d5f5f3e3d5ffd5b505050506040513d601f19601f820116820180604052508101906103dd9190611026565b90505f5f5f9054906101000a900473ffffffffffffffffffffffffffffffffffffffff1673ffffffffffffffffffffffffffffffffffffffff166318160ddd6040518163ffffffff1660e01b8152600401602060405180830381865afa158015610449573d5f5f3e3d5ffd5b505050506040513d601f19601f8201168201806040525081019061046d919061107b565b90506104798183610880565b9250505061050a565b5f61048c836108ff565b90505f5f5f5f61049c8588610a35565b5093509350935093505f6104b08585610880565b90505f6104bd8484610880565b90505f6104c98a610785565b90505f670de0b6b3a764000082856104e19190610f52565b6104eb9190610fc0565b90505f83826104fa91906110a6565b9050809a50505050505050505050505b919050565b5f5f61051a836102fb565b90505f6105256106d7565b9050670de0b6b3a7640000818361053c9190610f52565b6105469190610fc0565b92505050919050565b5f5f8273ffffffffffffffffffffffffffffffffffffffff166318160ddd6040518163ffffffff1660e01b8152600401602060405180830381865afa15801561059a573d5f5f3e3d5ffd5b505050506040513d601f19601f820116820180604052508101906105be919061107b565b90505f8373ffffffffffffffffffffffffffffffffffffffff1663313ce5676040518163ffffffff1660e01b8152600401602060405180830381865afa15801561060a573d5f5f3e3d5ffd5b505050506040513d601f19601f8201168201806040525081019061062e9190611026565b90505f61063b8383610880565b90505f5f9054906101000a900473ffffffffffffffffffffffffffffffffffffffff1673ffffffffffffffffffffffffffffffffffffffff168573ffffffffffffffffffffffffffffffffffffffff160361069b578093505050506106d2565b5f6106a586610785565b90505f670de0b6b3a764000082846106bd9190610f52565b6106c79190610fc0565b905080955050505050505b919050565b5f5f5f5f5f61072760015f9054906101000a900473ffffffffffffffffffffffffffffffffffffffff165f5f9054906101000a900473ffffffffffffffffffffffffffffffffffffffff16610a35565b50935093509350935061073c82828686610da1565b94505050505090565b5f5f6107508361054f565b90505f61075b6106d7565b9050670de0b6b3a764000081836107729190610f52565b61077c9190610fc0565b92505050919050565b5f5f5f9054906101000a900473ffffffffffffffffffffffffffffffffffffffff1673ffffffffffffffffffffffffffffffffffffffff168273ffffffffffffffffffffffffffffffffffffffff16036107e957670de0b6b3a76400009050610845565b5f6107f3836108ff565b90505f5f5f5f610823855f5f9054906101000a900473ffffffffffffffffffffffffffffffffffffffff16610a35565b5093509350935093505f61083985858585610da1565b90508096505050505050505b919050565b5f610854826108ff565b9050919050565b60025f9054906101000a900473ffffffffffffffffffffffffffffffffffffffff1681565b5f60128260ff1603610894578290506108f9565b60128260ff1610156108ce578160126108ad91906110d9565b60ff16600a6108bc919061123c565b836108c79190610f52565b90506108f8565b6012826108db91906110d9565b60ff16600a6108ea919061123c565b836108f59190610fc0565b90505b5b92915050565b5f5f60025f9054906101000a900473ffffffffffffffffffffffffffffffffffffffff1673ffffffffffffffffffffffffffffffffffffffff1663e6a43905845f5f9054906101000a900473ffffffffffffffffffffffffffffffffffffffff166040518363ffffffff1660e01b815260040161097d929190611286565b602060405180830381865afa158015610998573d5f5f3e3d5ffd5b505050506040513d601f19601f820116820180604052508101906109bc91906112c1565b90505f73ffffffffffffffffffffffffffffffffffffffff168173ffffffffffffffffffffffffffffffffffffffff1603610a2c576040517f08c379a0000000000000000000000000000000000000000000000000000000008152600401610a239061136c565b60405180910390fd5b80915050919050565b5f5f5f5f5f5f8790505f5f8273ffffffffffffffffffffffffffffffffffffffff16630902f1ac6040518163ffffffff1660e01b8152600401606060405180830381865afa158015610a89573d5f5f3e3d5ffd5b505050506040513d601f19601f82011682018060405250810190610aad9190611406565b50915091505f8373ffffffffffffffffffffffffffffffffffffffff16630dfe16816040518163ffffffff1660e01b8152600401602060405180830381865afa158015610afc573d5f5f3e3d5ffd5b505050506040513d601f19601f82011682018060405250810190610b2091906112c1565b90505f8473ffffffffffffffffffffffffffffffffffffffff1663d21220a76040518163ffffffff1660e01b8152600401602060405180830381865afa158015610b6c573d5f5f3e3d5ffd5b505050506040513d601f19601f82011682018060405250810190610b9091906112c1565b90505f8b73ffffffffffffffffffffffffffffffffffffffff168373ffffffffffffffffffffffffffffffffffffffff1603610bcf5760019050610c46565b8b73ffffffffffffffffffffffffffffffffffffffff168273ffffffffffffffffffffffffffffffffffffffff1603610c0a575f9050610c45565b6040517f08c379a0000000000000000000000000000000000000000000000000000000008152600401610c3c906114a0565b60405180910390fd5b5b80610c6157836dffffffffffffffffffffffffffff16610c73565b846dffffffffffffffffffffffffffff165b9a5080610c9057846dffffffffffffffffffffffffffff16610ca2565b836dffffffffffffffffffffffffffff165b985080610caf5782610cb1565b815b96508b73ffffffffffffffffffffffffffffffffffffffff1663313ce5676040518163ffffffff1660e01b8152600401602060405180830381865afa158015610cfc573d5f5f3e3d5ffd5b505050506040513d601f19601f82011682018060405250810190610d209190611026565b99508673ffffffffffffffffffffffffffffffffffffffff1663313ce5676040518163ffffffff1660e01b8152600401602060405180830381865afa158015610d6b573d5f5f3e3d5ffd5b505050506040513d601f19601f82011682018060405250810190610d8f9190611026565b97505050505050509295509295909350565b5f5f670de0b6b3a764000086610db79190610f52565b90508460ff168360ff161115610df4578483610dd391906110d9565b60ff16600a610de2919061123c565b81610ded9190610f52565b9050610e2c565b8260ff168560ff161115610e2b578285610e0e91906110d9565b60ff16600a610e1d919061123c565b81610e289190610fc0565b90505b5b8381610e389190610fc0565b915050949350505050565b5f5ffd5b5f73ffffffffffffffffffffffffffffffffffffffff82169050919050565b5f610e7082610e47565b9050919050565b610e8081610e66565b8114610e8a575f5ffd5b50565b5f81359050610e9b81610e77565b92915050565b5f60208284031215610eb657610eb5610e43565b5b5f610ec384828501610e8d565b91505092915050565b5f819050919050565b610ede81610ecc565b82525050565b5f602082019050610ef75f830184610ed5565b92915050565b610f0681610e66565b82525050565b5f602082019050610f1f5f830184610efd565b92915050565b7f4e487b71000000000000000000000000000000000000000000000000000000005f52601160045260245ffd5b5f610f5c82610ecc565b9150610f6783610ecc565b9250828202610f7581610ecc565b91508282048414831517610f8c57610f8b610f25565b5b5092915050565b7f4e487b71000000000000000000000000000000000000000000000000000000005f52601260045260245ffd5b5f610fca82610ecc565b9150610fd583610ecc565b925082610fe557610fe4610f93565b5b828204905092915050565b5f60ff82169050919050565b61100581610ff0565b811461100f575f5ffd5b50565b5f8151905061102081610ffc565b92915050565b5f6020828403121561103b5761103a610e43565b5b5f61104884828501611012565b91505092915050565b61105a81610ecc565b8114611064575f5ffd5b50565b5f8151905061107581611051565b92915050565b5f602082840312156110905761108f610e43565b5b5f61109d84828501611067565b91505092915050565b5f6110b082610ecc565b91506110bb83610ecc565b92508282019050808211156110d3576110d2610f25565b5b92915050565b5f6110e382610ff0565b91506110ee83610ff0565b9250828203905060ff81111561110757611106610f25565b5b92915050565b5f8160011c9050919050565b5f5f8291508390505b60018511156111625780860481111561113e5761113d610f25565b5b600185161561114d5780820291505b808102905061115b8561110d565b9450611122565b94509492505050565b5f8261117a5760019050611235565b81611187575f9050611235565b816001811461119d57600281146111a7576111d6565b6001915050611235565b60ff8411156111b9576111b8610f25565b5b8360020a9150848211156111d0576111cf610f25565b5b50611235565b5060208310610133831016604e8410600b841016171561120b5782820a90508381111561120657611205610f25565b5b611235565b6112188484846001611119565b9250905081840481111561122f5761122e610f25565b5b81810290505b9392505050565b5f61124682610ecc565b915061125183610ecc565b925061127e7fffffffffffffffffffffffffffffffffffffffffffffffffffffffffffffffff848461116b565b905092915050565b5f6040820190506112995f830185610efd565b6112a66020830184610efd565b9392505050565b5f815190506112bb81610e77565b92915050565b5f602082840312156112d6576112d5610e43565b5b5f6112e3848285016112ad565b91505092915050565b5f82825260208201905092915050565b7f556e69737761705632506169723a207061697220646f6573206e6f74206578695f8201527f7374000000000000000000000000000000000000000000000000000000000000602082015250565b5f6113566022836112ec565b9150611361826112fc565b604082019050919050565b5f6020820190508181035f8301526113838161134a565b9050919050565b5f6dffffffffffffffffffffffffffff82169050919050565b6113ac8161138a565b81146113b6575f5ffd5b50565b5f815190506113c7816113a3565b92915050565b5f63ffffffff82169050919050565b6113e5816113cd565b81146113ef575f5ffd5b50565b5f81519050611400816113dc565b92915050565b5f5f5f6060848603121561141d5761141c610e43565b5b5f61142a868287016113b9565b935050602061143b868287016113b9565b925050604061144c868287016113f2565b9150509250925092565b7f5061697220646f6573206e6f7420636f6e7461696e206261736520746f6b656e5f82015250565b5f61148a6020836112ec565b915061149582611456565b602082019050919050565b5f6020820190508181035f8301526114b78161147e565b905091905056fea26469706673582212206cdf278f66d2471be386a6c28586bfb37762b65b9a6af7ff6a47a1da617887fb64736f6c634300081e0033",
					"opcodes": "PUSH1 0x80 PUSH1 0x40 MSTORE CALLVALUE DUP1 ISZERO PUSH2 0xF JUMPI PUSH0 PUSH0 REVERT JUMPDEST POP PUSH1 0x40 MLOAD PUSH2 0x16A7 CODESIZE SUB DUP1 PUSH2 0x16A7 DUP4 CODECOPY DUP2 DUP2 ADD PUSH1 0x40 MSTORE DUP2 ADD SWAP1 PUSH2 0x31 SWAP2 SWAP1 PUSH2 0x156 JUMP JUMPDEST DUP3 PUSH0 PUSH0 PUSH2 0x100 EXP DUP2 SLOAD DUP2 PUSH20 0xFFFFFFFFFFFFFFFFFFFFFFFFFFFFFFFFFFFFFFFF MUL NOT AND SWAP1 DUP4 PUSH20 0xFFFFFFFFFFFFFFFFFFFFFFFFFFFFFFFFFFFFFFFF AND MUL OR SWAP1 SSTORE POP DUP2 PUSH1 0x1 PUSH0 PUSH2 0x100 EXP DUP2 SLOAD DUP2 PUSH20 0xFFFFFFFFFFFFFFFFFFFFFFFFFFFFFFFFFFFFFFFF MUL NOT AND SWAP1 DUP4 PUSH20 0xFFFFFFFFFFFFFFFFFFFFFFFFFFFFFFFFFFFFFFFF AND MUL OR SWAP1 SSTORE POP DUP1 PUSH1 0x2 PUSH0 PUSH2 0x100 EXP DUP2 SLOAD DUP2 PUSH20 0xFFFFFFFFFFFFFFFFFFFFFFFFFFFFFFFFFFFFFFFF MUL NOT AND SWAP1 DUP4 PUSH20 0xFFFFFFFFFFFFFFFFFFFFFFFFFFFFFFFFFFFFFFFF AND MUL OR SWAP1 SSTORE POP POP POP POP PUSH2 0x1A6 JUMP JUMPDEST PUSH0 PUSH0 REVERT JUMPDEST PUSH0 PUSH20 0xFFFFFFFFFFFFFFFFFFFFFFFFFFFFFFFFFFFFFFFF DUP3 AND SWAP1 POP SWAP2 SWAP1 POP JUMP JUMPDEST PUSH0 PUSH2 0x125 DUP3 PUSH2 0xFC JUMP JUMPDEST SWAP1 POP SWAP2 SWAP1 POP JUMP JUMPDEST PUSH2 0x135 DUP2 PUSH2 0x11B JUMP JUMPDEST DUP2 EQ PUSH2 0x13F JUMPI PUSH0 PUSH0 REVERT JUMPDEST POP JUMP JUMPDEST PUSH0 DUP2 MLOAD SWAP1 POP PUSH2 0x150 DUP2 PUSH2 0x12C JUMP JUMPDEST SWAP3 SWAP2 POP POP JUMP JUMPDEST PUSH0 PUSH0 PUSH0 PUSH1 0x60 DUP5 DUP7 SUB SLT ISZERO PUSH2 0x16D JUMPI PUSH2 0x16C PUSH2 0xF8 JUMP JUMPDEST JUMPDEST PUSH0 PUSH2 0x17A DUP7 DUP3 DUP8 ADD PUSH2 0x142 JUMP JUMPDEST SWAP4 POP POP PUSH1 0x20 PUSH2 0x18B DUP7 DUP3 DUP8 ADD PUSH2 0x142 JUMP JUMPDEST SWAP3 POP POP PUSH1 0x40 PUSH2 0x19C DUP7 DUP3 DUP8 ADD PUSH2 0x142 JUMP JUMPDEST SWAP2 POP POP SWAP3 POP SWAP3 POP SWAP3 JUMP JUMPDEST PUSH2 0x14F4 DUP1 PUSH2 0x1B3 PUSH0 CODECOPY PUSH0 RETURN INVALID PUSH1 0x80 PUSH1 0x40 MSTORE CALLVALUE DUP1 ISZERO PUSH2 0xF JUMPI PUSH0 PUSH0 REVERT JUMPDEST POP PUSH1 0x4 CALLDATASIZE LT PUSH2 0xA6 JUMPI PUSH0 CALLDATALOAD PUSH1 0xE0 SHR DUP1 PUSH4 0x63AA0C93 GT PUSH2 0x6F JUMPI DUP1 PUSH4 0x63AA0C93 EQ PUSH2 0x176 JUMPI DUP1 PUSH4 0x6855E939 EQ PUSH2 0x1A6 JUMPI DUP1 PUSH4 0x69A2E17D EQ PUSH2 0x1C4 JUMPI DUP1 PUSH4 0x7B49B49D EQ PUSH2 0x1F4 JUMPI DUP1 PUSH4 0x7D1AA610 EQ PUSH2 0x224 JUMPI DUP1 PUSH4 0x884EC7A9 EQ PUSH2 0x254 JUMPI PUSH2 0xA6 JUMP JUMPDEST DUP1 PUSH3 0x593BCF EQ PUSH2 0xAA JUMPI DUP1 PUSH4 0x40141E5 EQ PUSH2 0xDA JUMPI DUP1 PUSH4 0xB017603 EQ PUSH2 0xF8 JUMPI DUP1 PUSH4 0xDBC0D7D EQ PUSH2 0x116 JUMPI DUP1 PUSH4 0x57B6C133 EQ PUSH2 0x146 JUMPI JUMPDEST PUSH0 PUSH0 REVERT JUMPDEST PUSH2 0xC4 PUSH1 0x4 DUP1 CALLDATASIZE SUB DUP2 ADD SWAP1 PUSH2 0xBF SWAP2 SWAP1 PUSH2 0xEA1 JUMP JUMPDEST PUSH2 0x272 JUMP JUMPDEST PUSH1 0x40 MLOAD PUSH2 0xD1 SWAP2 SWAP1 PUSH2 0xEE4 JUMP JUMPDEST PUSH1 0x40 MLOAD DUP1 SWAP2 SUB SWAP1 RETURN JUMPDEST PUSH2 0xE2 PUSH2 0x2B2 JUMP JUMPDEST PUSH1 0x40 MLOAD PUSH2 0xEF SWAP2 SWAP1 PUSH2 0xF0C JUMP JUMPDEST PUSH1 0x40 MLOAD DUP1 SWAP2 SUB SWAP1 RETURN JUMPDEST PUSH2 0x100 PUSH2 0x2D6 JUMP JUMPDEST PUSH1 0x40 MLOAD PUSH2 0x10D SWAP2 SWAP1 PUSH2 0xF0C JUMP JUMPDEST PUSH1 0x40 MLOAD DUP1 SWAP2 SUB SWAP1 RETURN JUMPDEST PUSH2 0x130 PUSH1 0x4 DUP1 CALLDATASIZE SUB DUP2 ADD SWAP1 PUSH2 0x12B SWAP2 SWAP1 PUSH2 0xEA1 JUMP JUMPDEST PUSH2 0x2FB JUMP JUMPDEST PUSH1 0x40 MLOAD PUSH2 0x13D SWAP2 SWAP1 PUSH2 0xEE4 JUMP JUMPDEST PUSH1 0x40 MLOAD DUP1 SWAP2 SUB SWAP1 RETURN JUMPDEST PUSH2 0x160 PUSH1 0x4 DUP1 CALLDATASIZE SUB DUP2 ADD SWAP1 PUSH2 0x15B SWAP2 SWAP1 PUSH2 0xEA1 JUMP JUMPDEST PUSH2 0x50F JUMP JUMPDEST PUSH1 0x40 MLOAD PUSH2 0x16D SWAP2 SWAP1 PUSH2 0xEE4 JUMP JUMPDEST PUSH1 0x40 MLOAD DUP1 SWAP2 SUB SWAP1 RETURN JUMPDEST PUSH2 0x190 PUSH1 0x4 DUP1 CALLDATASIZE SUB DUP2 ADD SWAP1 PUSH2 0x18B SWAP2 SWAP1 PUSH2 0xEA1 JUMP JUMPDEST PUSH2 0x54F JUMP JUMPDEST PUSH1 0x40 MLOAD PUSH2 0x19D SWAP2 SWAP1 PUSH2 0xEE4 JUMP JUMPDEST PUSH1 0x40 MLOAD DUP1 SWAP2 SUB SWAP1 RETURN JUMPDEST PUSH2 0x1AE PUSH2 0x6D7 JUMP JUMPDEST PUSH1 0x40 MLOAD PUSH2 0x1BB SWAP2 SWAP1 PUSH2 0xEE4 JUMP JUMPDEST PUSH1 0x40 MLOAD DUP1 SWAP2 SUB SWAP1 RETURN JUMPDEST PUSH2 0x1DE PUSH1 0x4 DUP1 CALLDATASIZE SUB DUP2 ADD SWAP1 PUSH2 0x1D9 SWAP2 SWAP1 PUSH2 0xEA1 JUMP JUMPDEST PUSH2 0x745 JUMP JUMPDEST PUSH1 0x40 MLOAD PUSH2 0x1EB SWAP2 SWAP1 PUSH2 0xEE4 JUMP JUMPDEST PUSH1 0x40 MLOAD DUP1 SWAP2 SUB SWAP1 RETURN JUMPDEST PUSH2 0x20E PUSH1 0x4 DUP1 CALLDATASIZE SUB DUP2 ADD SWAP1 PUSH2 0x209 SWAP2 SWAP1 PUSH2 0xEA1 JUMP JUMPDEST PUSH2 0x785 JUMP JUMPDEST PUSH1 0x40 MLOAD PUSH2 0x21B SWAP2 SWAP1 PUSH2 0xEE4 JUMP JUMPDEST PUSH1 0x40 MLOAD DUP1 SWAP2 SUB SWAP1 RETURN JUMPDEST PUSH2 0x23E PUSH1 0x4 DUP1 CALLDATASIZE SUB DUP2 ADD SWAP1 PUSH2 0x239 SWAP2 SWAP1 PUSH2 0xEA1 JUMP JUMPDEST PUSH2 0x84A JUMP JUMPDEST PUSH1 0x40 MLOAD PUSH2 0x24B SWAP2 SWAP1 PUSH2 0xF0C JUMP JUMPDEST PUSH1 0x40 MLOAD DUP1 SWAP2 SUB SWAP1 RETURN JUMPDEST PUSH2 0x25C PUSH2 0x85B JUMP JUMPDEST PUSH1 0x40 MLOAD PUSH2 0x269 SWAP2 SWAP1 PUSH2 0xF0C JUMP JUMPDEST PUSH1 0x40 MLOAD DUP1 SWAP2 SUB SWAP1 RETURN JUMPDEST PUSH0 PUSH0 PUSH2 0x27D DUP4 PUSH2 0x785 JUMP JUMPDEST SWAP1 POP PUSH0 PUSH2 0x288 PUSH2 0x6D7 JUMP JUMPDEST SWAP1 POP PUSH8 0xDE0B6B3A7640000 DUP2 DUP4 PUSH2 0x29F SWAP2 SWAP1 PUSH2 0xF52 JUMP JUMPDEST PUSH2 0x2A9 SWAP2 SWAP1 PUSH2 0xFC0 JUMP JUMPDEST SWAP3 POP POP POP SWAP2 SWAP1 POP JUMP JUMPDEST PUSH0 PUSH0 SWAP1 SLOAD SWAP1 PUSH2 0x100 EXP SWAP1 DIV PUSH20 0xFFFFFFFFFFFFFFFFFFFFFFFFFFFFFFFFFFFFFFFF AND DUP2 JUMP JUMPDEST PUSH1 0x1 PUSH0 SWAP1 SLOAD SWAP1 PUSH2 0x100 EXP SWAP1 DIV PUSH20 0xFFFFFFFFFFFFFFFFFFFFFFFFFFFFFFFFFFFFFFFF AND DUP2 JUMP JUMPDEST PUSH0 PUSH0 PUSH0 SWAP1 SLOAD SWAP1 PUSH2 0x100 EXP SWAP1 DIV PUSH20 0xFFFFFFFFFFFFFFFFFFFFFFFFFFFFFFFFFFFFFFFF AND PUSH20 0xFFFFFFFFFFFFFFFFFFFFFFFFFFFFFFFFFFFFFFFF AND DUP3 PUSH20 0xFFFFFFFFFFFFFFFFFFFFFFFFFFFFFFFFFFFFFFFF AND SUB PUSH2 0x482 JUMPI PUSH0 PUSH0 PUSH0 SWAP1 SLOAD SWAP1 PUSH2 0x100 EXP SWAP1 DIV PUSH20 0xFFFFFFFFFFFFFFFFFFFFFFFFFFFFFFFFFFFFFFFF AND PUSH20 0xFFFFFFFFFFFFFFFFFFFFFFFFFFFFFFFFFFFFFFFF AND PUSH4 0x313CE567 PUSH1 0x40 MLOAD DUP2 PUSH4 0xFFFFFFFF AND PUSH1 0xE0 SHL DUP2 MSTORE PUSH1 0x4 ADD PUSH1 0x20 PUSH1 0x40 MLOAD DUP1 DUP4 SUB DUP2 DUP7 GAS STATICCALL ISZERO DUP1 ISZERO PUSH2 0x3B9 JUMPI RETURNDATASIZE PUSH0 PUSH0 RETURNDATACOPY RETURNDATASIZE PUSH0 REVERT JUMPDEST POP POP POP POP PUSH1 0x40 MLOAD RETURNDATASIZE PUSH1 0x1F NOT PUSH1 0x1F DUP3 ADD AND DUP3 ADD DUP1 PUSH1 0x40 MSTORE POP DUP2 ADD SWAP1 PUSH2 0x3DD SWAP2 SWAP1 PUSH2 0x1026 JUMP JUMPDEST SWAP1 POP PUSH0 PUSH0 PUSH0 SWAP1 SLOAD SWAP1 PUSH2 0x100 EXP SWAP1 DIV PUSH20 0xFFFFFFFFFFFFFFFFFFFFFFFFFFFFFFFFFFFFFFFF AND PUSH20 0xFFFFFFFFFFFFFFFFFFFFFFFFFFFFFFFFFFFFFFFF AND PUSH4 0x18160DDD PUSH1 0x40 MLOAD DUP2 PUSH4 0xFFFFFFFF AND PUSH1 0xE0 SHL DUP2 MSTORE PUSH1 0x4 ADD PUSH1 0x20 PUSH1 0x40 MLOAD DUP1 DUP4 SUB DUP2 DUP7 GAS STATICCALL ISZERO DUP1 ISZERO PUSH2 0x449 JUMPI RETURNDATASIZE PUSH0 PUSH0 RETURNDATACOPY RETURNDATASIZE PUSH0 REVERT JUMPDEST POP POP POP POP PUSH1 0x40 MLOAD RETURNDATASIZE PUSH1 0x1F NOT PUSH1 0x1F DUP3 ADD AND DUP3 ADD DUP1 PUSH1 0x40 MSTORE POP DUP2 ADD SWAP1 PUSH2 0x46D SWAP2 SWAP1 PUSH2 0x107B JUMP JUMPDEST SWAP1 POP PUSH2 0x479 DUP2 DUP4 PUSH2 0x880 JUMP JUMPDEST SWAP3 POP POP POP PUSH2 0x50A JUMP JUMPDEST PUSH0 PUSH2 0x48C DUP4 PUSH2 0x8FF JUMP JUMPDEST SWAP1 POP PUSH0 PUSH0 PUSH0 PUSH0 PUSH2 0x49C DUP6 DUP9 PUSH2 0xA35 JUMP JUMPDEST POP SWAP4 POP SWAP4 POP SWAP4 POP SWAP4 POP PUSH0 PUSH2 0x4B0 DUP6 DUP6 PUSH2 0x880 JUMP JUMPDEST SWAP1 POP PUSH0 PUSH2 0x4BD DUP5 DUP5 PUSH2 0x880 JUMP JUMPDEST SWAP1 POP PUSH0 PUSH2 0x4C9 DUP11 PUSH2 0x785 JUMP JUMPDEST SWAP1 POP PUSH0 PUSH8 0xDE0B6B3A7640000 DUP3 DUP6 PUSH2 0x4E1 SWAP2 SWAP1 PUSH2 0xF52 JUMP JUMPDEST PUSH2 0x4EB SWAP2 SWAP1 PUSH2 0xFC0 JUMP JUMPDEST SWAP1 POP PUSH0 DUP4 DUP3 PUSH2 0x4FA SWAP2 SWAP1 PUSH2 0x10A6 JUMP JUMPDEST SWAP1 POP DUP1 SWAP11 POP POP POP POP POP POP POP POP POP POP POP JUMPDEST SWAP2 SWAP1 POP JUMP JUMPDEST PUSH0 PUSH0 PUSH2 0x51A DUP4 PUSH2 0x2FB JUMP JUMPDEST SWAP1 POP PUSH0 PUSH2 0x525 PUSH2 0x6D7 JUMP JUMPDEST SWAP1 POP PUSH8 0xDE0B6B3A7640000 DUP2 DUP4 PUSH2 0x53C SWAP2 SWAP1 PUSH2 0xF52 JUMP JUMPDEST PUSH2 0x546 SWAP2 SWAP1 PUSH2 0xFC0 JUMP JUMPDEST SWAP3 POP POP POP SWAP2 SWAP1 POP JUMP JUMPDEST PUSH0 PUSH0 DUP3 PUSH20 0xFFFFFFFFFFFFFFFFFFFFFFFFFFFFFFFFFFFFFFFF AND PUSH4 0x18160DDD PUSH1 0x40 MLOAD DUP2 PUSH4 0xFFFFFFFF AND PUSH1 0xE0 SHL DUP2 MSTORE PUSH1 0x4 ADD PUSH1 0x20 PUSH1 0x40 MLOAD DUP1 DUP4 SUB DUP2 DUP7 GAS STATICCALL ISZERO DUP1 ISZERO PUSH2 0x59A JUMPI RETURNDATASIZE PUSH0 PUSH0 RETURNDATACOPY RETURNDATASIZE PUSH0 REVERT JUMPDEST POP POP POP POP PUSH1 0x40 MLOAD RETURNDATASIZE PUSH1 0x1F NOT PUSH1 0x1F DUP3 ADD AND DUP3 ADD DUP1 PUSH1 0x40 MSTORE POP DUP2 ADD SWAP1 PUSH2 0x5BE SWAP2 SWAP1 PUSH2 0x107B JUMP JUMPDEST SWAP1 POP PUSH0 DUP4 PUSH20 0xFFFFFFFFFFFFFFFFFFFFFFFFFFFFFFFFFFFFFFFF AND PUSH4 0x313CE567 PUSH1 0x40 MLOAD DUP2 PUSH4 0xFFFFFFFF AND PUSH1 0xE0 SHL DUP2 MSTORE PUSH1 0x4 ADD PUSH1 0x20 PUSH1 0x40 MLOAD DUP1 DUP4 SUB DUP2 DUP7 GAS STATICCALL ISZERO DUP1 ISZERO PUSH2 0x60A JUMPI RETURNDATASIZE PUSH0 PUSH0 RETURNDATACOPY RETURNDATASIZE PUSH0 REVERT JUMPDEST POP POP POP POP PUSH1 0x40 MLOAD RETURNDATASIZE PUSH1 0x1F NOT PUSH1 0x1F DUP3 ADD AND DUP3 ADD DUP1 PUSH1 0x40 MSTORE POP DUP2 ADD SWAP1 PUSH2 0x62E SWAP2 SWAP1 PUSH2 0x1026 JUMP JUMPDEST SWAP1 POP PUSH0 PUSH2 0x63B DUP4 DUP4 PUSH2 0x880 JUMP JUMPDEST SWAP1 POP PUSH0 PUSH0 SWAP1 SLOAD SWAP1 PUSH2 0x100 EXP SWAP1 DIV PUSH20 0xFFFFFFFFFFFFFFFFFFFFFFFFFFFFFFFFFFFFFFFF AND PUSH20 0xFFFFFFFFFFFFFFFFFFFFFFFFFFFFFFFFFFFFFFFF AND DUP6 PUSH20 0xFFFFFFFFFFFFFFFFFFFFFFFFFFFFFFFFFFFFFFFF AND SUB PUSH2 0x69B JUMPI DUP1 SWAP4 POP POP POP POP PUSH2 0x6D2 JUMP JUMPDEST PUSH0 PUSH2 0x6A5 DUP7 PUSH2 0x785 JUMP JUMPDEST SWAP1 POP PUSH0 PUSH8 0xDE0B6B3A7640000 DUP3 DUP5 PUSH2 0x6BD SWAP2 SWAP1 PUSH2 0xF52 JUMP JUMPDEST PUSH2 0x6C7 SWAP2 SWAP1 PUSH2 0xFC0 JUMP JUMPDEST SWAP1 POP DUP1 SWAP6 POP POP POP POP POP POP JUMPDEST SWAP2 SWAP1 POP JUMP JUMPDEST PUSH0 PUSH0 PUSH0 PUSH0 PUSH0 PUSH2 0x727 PUSH1 0x1 PUSH0 SWAP1 SLOAD SWAP1 PUSH2 0x100 EXP SWAP1 DIV PUSH20 0xFFFFFFFFFFFFFFFFFFFFFFFFFFFFFFFFFFFFFFFF AND PUSH0 PUSH0 SWAP1 SLOAD SWAP1 PUSH2 0x100 EXP SWAP1 DIV PUSH20 0xFFFFFFFFFFFFFFFFFFFFFFFFFFFFFFFFFFFFFFFF AND PUSH2 0xA35 JUMP JUMPDEST POP SWAP4 POP SWAP4 POP SWAP4 POP SWAP4 POP PUSH2 0x73C DUP3 DUP3 DUP7 DUP7 PUSH2 0xDA1 JUMP JUMPDEST SWAP5 POP POP POP POP POP SWAP1 JUMP JUMPDEST PUSH0 PUSH0 PUSH2 0x750 DUP4 PUSH2 0x54F JUMP JUMPDEST SWAP1 POP PUSH0 PUSH2 0x75B PUSH2 0x6D7 JUMP JUMPDEST SWAP1 POP PUSH8 0xDE0B6B3A7640000 DUP2 DUP4 PUSH2 0x772 SWAP2 SWAP1 PUSH2 0xF52 JUMP JUMPDEST PUSH2 0x77C SWAP2 SWAP1 PUSH2 0xFC0 JUMP JUMPDEST SWAP3 POP POP POP SWAP2 SWAP1 POP JUMP JUMPDEST PUSH0 PUSH0 PUSH0 SWAP1 SLOAD SWAP1 PUSH2 0x100 EXP SWAP1 DIV PUSH20 0xFFFFFFFFFFFFFFFFFFFFFFFFFFFFFFFFFFFFFFFF AND PUSH20 0xFFFFFFFFFFFFFFFFFFFFFFFFFFFFFFFFFFFFFFFF AND DUP3 PUSH20 0xFFFFFFFFFFFFFFFFFFFFFFFFFFFFFFFFFFFFFFFF AND SUB PUSH2 0x7E9 JUMPI PUSH8 0xDE0B6B3A7640000 SWAP1 POP PUSH2 0x845 JUMP JUMPDEST PUSH0 PUSH2 0x7F3 DUP4 PUSH2 0x8FF JUMP JUMPDEST SWAP1 POP PUSH0 PUSH0 PUSH0 PUSH0 PUSH2 0x823 DUP6 PUSH0 PUSH0 SWAP1 SLOAD SWAP1 PUSH2 0x100 EXP SWAP1 DIV PUSH20 0xFFFFFFFFFFFFFFFFFFFFFFFFFFFFFFFFFFFFFFFF AND PUSH2 0xA35 JUMP JUMPDEST POP SWAP4 POP SWAP4 POP SWAP4 POP SWAP4 POP PUSH0 PUSH2 0x839 DUP6 DUP6 DUP6 DUP6 PUSH2 0xDA1 JUMP JUMPDEST SWAP1 POP DUP1 SWAP7 POP POP POP POP POP POP POP JUMPDEST SWAP2 SWAP1 POP JUMP JUMPDEST PUSH0 PUSH2 0x854 DUP3 PUSH2 0x8FF JUMP JUMPDEST SWAP1 POP SWAP2 SWAP1 POP JUMP JUMPDEST PUSH1 0x2 PUSH0 SWAP1 SLOAD SWAP1 PUSH2 0x100 EXP SWAP1 DIV PUSH20 0xFFFFFFFFFFFFFFFFFFFFFFFFFFFFFFFFFFFFFFFF AND DUP2 JUMP JUMPDEST PUSH0 PUSH1 0x12 DUP3 PUSH1 0xFF AND SUB PUSH2 0x894 JUMPI DUP3 SWAP1 POP PUSH2 0x8F9 JUMP JUMPDEST PUSH1 0x12 DUP3 PUSH1 0xFF AND LT ISZERO PUSH2 0x8CE JUMPI DUP2 PUSH1 0x12 PUSH2 0x8AD SWAP2 SWAP1 PUSH2 0x10D9 JUMP JUMPDEST PUSH1 0xFF AND PUSH1 0xA PUSH2 0x8BC SWAP2 SWAP1 PUSH2 0x123C JUMP JUMPDEST DUP4 PUSH2 0x8C7 SWAP2 SWAP1 PUSH2 0xF52 JUMP JUMPDEST SWAP1 POP PUSH2 0x8F8 JUMP JUMPDEST PUSH1 0x12 DUP3 PUSH2 0x8DB SWAP2 SWAP1 PUSH2 0x10D9 JUMP JUMPDEST PUSH1 0xFF AND PUSH1 0xA PUSH2 0x8EA SWAP2 SWAP1 PUSH2 0x123C JUMP JUMPDEST DUP4 PUSH2 0x8F5 SWAP2 SWAP1 PUSH2 0xFC0 JUMP JUMPDEST SWAP1 POP JUMPDEST JUMPDEST SWAP3 SWAP2 POP POP JUMP JUMPDEST PUSH0 PUSH0 PUSH1 0x2 PUSH0 SWAP1 SLOAD SWAP1 PUSH2 0x100 EXP SWAP1 DIV PUSH20 0xFFFFFFFFFFFFFFFFFFFFFFFFFFFFFFFFFFFFFFFF AND PUSH20 0xFFFFFFFFFFFFFFFFFFFFFFFFFFFFFFFFFFFFFFFF AND PUSH4 0xE6A43905 DUP5 PUSH0 PUSH0 SWAP1 SLOAD SWAP1 PUSH2 0x100 EXP SWAP1 DIV PUSH20 0xFFFFFFFFFFFFFFFFFFFFFFFFFFFFFFFFFFFFFFFF AND PUSH1 0x40 MLOAD DUP4 PUSH4 0xFFFFFFFF AND PUSH1 0xE0 SHL DUP2 MSTORE PUSH1 0x4 ADD PUSH2 0x97D SWAP3 SWAP2 SWAP1 PUSH2 0x1286 JUMP JUMPDEST PUSH1 0x20 PUSH1 0x40 MLOAD DUP1 DUP4 SUB DUP2 DUP7 GAS STATICCALL ISZERO DUP1 ISZERO PUSH2 0x998 JUMPI RETURNDATASIZE PUSH0 PUSH0 RETURNDATACOPY RETURNDATASIZE PUSH0 REVERT JUMPDEST POP POP POP POP PUSH1 0x40 MLOAD RETURNDATASIZE PUSH1 0x1F NOT PUSH1 0x1F DUP3 ADD AND DUP3 ADD DUP1 PUSH1 0x40 MSTORE POP DUP2 ADD SWAP1 PUSH2 0x9BC SWAP2 SWAP1 PUSH2 0x12C1 JUMP JUMPDEST SWAP1 POP PUSH0 PUSH20 0xFFFFFFFFFFFFFFFFFFFFFFFFFFFFFFFFFFFFFFFF AND DUP2 PUSH20 0xFFFFFFFFFFFFFFFFFFFFFFFFFFFFFFFFFFFFFFFF AND SUB PUSH2 0xA2C JUMPI PUSH1 0x40 MLOAD PUSH32 0x8C379A000000000000000000000000000000000000000000000000000000000 DUP2 MSTORE PUSH1 0x4 ADD PUSH2 0xA23 SWAP1 PUSH2 0x136C JUMP JUMPDEST PUSH1 0x40 MLOAD DUP1 SWAP2 SUB SWAP1 REVERT JUMPDEST DUP1 SWAP2 POP POP SWAP2 SWAP1 POP JUMP JUMPDEST PUSH0 PUSH0 PUSH0 PUSH0 PUSH0 PUSH0 DUP8 SWAP1 POP PUSH0 PUSH0 DUP3 PUSH20 0xFFFFFFFFFFFFFFFFFFFFFFFFFFFFFFFFFFFFFFFF AND PUSH4 0x902F1AC PUSH1 0x40 MLOAD DUP2 PUSH4 0xFFFFFFFF AND PUSH1 0xE0 SHL DUP2 MSTORE PUSH1 0x4 ADD PUSH1 0x60 PUSH1 0x40 MLOAD DUP1 DUP4 SUB DUP2 DUP7 GAS STATICCALL ISZERO DUP1 ISZERO PUSH2 0xA89 JUMPI RETURNDATASIZE PUSH0 PUSH0 RETURNDATACOPY RETURNDATASIZE PUSH0 REVERT JUMPDEST POP POP POP POP PUSH1 0x40 MLOAD RETURNDATASIZE PUSH1 0x1F NOT PUSH1 0x1F DUP3 ADD AND DUP3 ADD DUP1 PUSH1 0x40 MSTORE POP DUP2 ADD SWAP1 PUSH2 0xAAD SWAP2 SWAP1 PUSH2 0x1406 JUMP JUMPDEST POP SWAP2 POP SWAP2 POP PUSH0 DUP4 PUSH20 0xFFFFFFFFFFFFFFFFFFFFFFFFFFFFFFFFFFFFFFFF AND PUSH4 0xDFE1681 PUSH1 0x40 MLOAD DUP2 PUSH4 0xFFFFFFFF AND PUSH1 0xE0 SHL DUP2 MSTORE PUSH1 0x4 ADD PUSH1 0x20 PUSH1 0x40 MLOAD DUP1 DUP4 SUB DUP2 DUP7 GAS STATICCALL ISZERO DUP1 ISZERO PUSH2 0xAFC JUMPI RETURNDATASIZE PUSH0 PUSH0 RETURNDATACOPY RETURNDATASIZE PUSH0 REVERT JUMPDEST POP POP POP POP PUSH1 0x40 MLOAD RETURNDATASIZE PUSH1 0x1F NOT PUSH1 0x1F DUP3 ADD AND DUP3 ADD DUP1 PUSH1 0x40 MSTORE POP DUP2 ADD SWAP1 PUSH2 0xB20 SWAP2 SWAP1 PUSH2 0x12C1 JUMP JUMPDEST SWAP1 POP PUSH0 DUP5 PUSH20 0xFFFFFFFFFFFFFFFFFFFFFFFFFFFFFFFFFFFFFFFF AND PUSH4 0xD21220A7 PUSH1 0x40 MLOAD DUP2 PUSH4 0xFFFFFFFF AND PUSH1 0xE0 SHL DUP2 MSTORE PUSH1 0x4 ADD PUSH1 0x20 PUSH1 0x40 MLOAD DUP1 DUP4 SUB DUP2 DUP7 GAS STATICCALL ISZERO DUP1 ISZERO PUSH2 0xB6C JUMPI RETURNDATASIZE PUSH0 PUSH0 RETURNDATACOPY RETURNDATASIZE PUSH0 REVERT JUMPDEST POP POP POP POP PUSH1 0x40 MLOAD RETURNDATASIZE PUSH1 0x1F NOT PUSH1 0x1F DUP3 ADD AND DUP3 ADD DUP1 PUSH1 0x40 MSTORE POP DUP2 ADD SWAP1 PUSH2 0xB90 SWAP2 SWAP1 PUSH2 0x12C1 JUMP JUMPDEST SWAP1 POP PUSH0 DUP12 PUSH20 0xFFFFFFFFFFFFFFFFFFFFFFFFFFFFFFFFFFFFFFFF AND DUP4 PUSH20 0xFFFFFFFFFFFFFFFFFFFFFFFFFFFFFFFFFFFFFFFF AND SUB PUSH2 0xBCF JUMPI PUSH1 0x1 SWAP1 POP PUSH2 0xC46 JUMP JUMPDEST DUP12 PUSH20 0xFFFFFFFFFFFFFFFFFFFFFFFFFFFFFFFFFFFFFFFF AND DUP3 PUSH20 0xFFFFFFFFFFFFFFFFFFFFFFFFFFFFFFFFFFFFFFFF AND SUB PUSH2 0xC0A JUMPI PUSH0 SWAP1 POP PUSH2 0xC45 JUMP JUMPDEST PUSH1 0x40 MLOAD PUSH32 0x8C379A000000000000000000000000000000000000000000000000000000000 DUP2 MSTORE PUSH1 0x4 ADD PUSH2 0xC3C SWAP1 PUSH2 0x14A0 JUMP JUMPDEST PUSH1 0x40 MLOAD DUP1 SWAP2 SUB SWAP1 REVERT JUMPDEST JUMPDEST DUP1 PUSH2 0xC61 JUMPI DUP4 PUSH14 0xFFFFFFFFFFFFFFFFFFFFFFFFFFFF AND PUSH2 0xC73 JUMP JUMPDEST DUP5 PUSH14 0xFFFFFFFFFFFFFFFFFFFFFFFFFFFF AND JUMPDEST SWAP11 POP DUP1 PUSH2 0xC90 JUMPI DUP5 PUSH14 0xFFFFFFFFFFFFFFFFFFFFFFFFFFFF AND PUSH2 0xCA2 JUMP JUMPDEST DUP4 PUSH14 0xFFFFFFFFFFFFFFFFFFFFFFFFFFFF AND JUMPDEST SWAP9 POP DUP1 PUSH2 0xCAF JUMPI DUP3 PUSH2 0xCB1 JUMP JUMPDEST DUP2 JUMPDEST SWAP7 POP DUP12 PUSH20 0xFFFFFFFFFFFFFFFFFFFFFFFFFFFFFFFFFFFFFFFF AND PUSH4 0x313CE567 PUSH1 0x40 MLOAD DUP2 PUSH4 0xFFFFFFFF AND PUSH1 0xE0 SHL DUP2 MSTORE PUSH1 0x4 ADD PUSH1 0x20 PUSH1 0x40 MLOAD DUP1 DUP4 SUB DUP2 DUP7 GAS STATICCALL ISZERO DUP1 ISZERO PUSH2 0xCFC JUMPI RETURNDATASIZE PUSH0 PUSH0 RETURNDATACOPY RETURNDATASIZE PUSH0 REVERT JUMPDEST POP POP POP POP PUSH1 0x40 MLOAD RETURNDATASIZE PUSH1 0x1F NOT PUSH1 0x1F DUP3 ADD AND DUP3 ADD DUP1 PUSH1 0x40 MSTORE POP DUP2 ADD SWAP1 PUSH2 0xD20 SWAP2 SWAP1 PUSH2 0x1026 JUMP JUMPDEST SWAP10 POP DUP7 PUSH20 0xFFFFFFFFFFFFFFFFFFFFFFFFFFFFFFFFFFFFFFFF AND PUSH4 0x313CE567 PUSH1 0x40 MLOAD DUP2 PUSH4 0xFFFFFFFF AND PUSH1 0xE0 SHL DUP2 MSTORE PUSH1 0x4 ADD PUSH1 0x20 PUSH1 0x40 MLOAD DUP1 DUP4 SUB DUP2 DUP7 GAS STATICCALL ISZERO DUP1 ISZERO PUSH2 0xD6B JUMPI RETURNDATASIZE PUSH0 PUSH0 RETURNDATACOPY RETURNDATASIZE PUSH0 REVERT JUMPDEST POP POP POP POP PUSH1 0x40 MLOAD RETURNDATASIZE PUSH1 0x1F NOT PUSH1 0x1F DUP3 ADD AND DUP3 ADD DUP1 PUSH1 0x40 MSTORE POP DUP2 ADD SWAP1 PUSH2 0xD8F SWAP2 SWAP1 PUSH2 0x1026 JUMP JUMPDEST SWAP8 POP POP POP POP POP POP POP SWAP3 SWAP6 POP SWAP3 SWAP6 SWAP1 SWAP4 POP JUMP JUMPDEST PUSH0 PUSH0 PUSH8 0xDE0B6B3A7640000 DUP7 PUSH2 0xDB7 SWAP2 SWAP1 PUSH2 0xF52 JUMP JUMPDEST SWAP1 POP DUP5 PUSH1 0xFF AND DUP4 PUSH1 0xFF AND GT ISZERO PUSH2 0xDF4 JUMPI DUP5 DUP4 PUSH2 0xDD3 SWAP2 SWAP1 PUSH2 0x10D9 JUMP JUMPDEST PUSH1 0xFF AND PUSH1 0xA PUSH2 0xDE2 SWAP2 SWAP1 PUSH2 0x123C JUMP JUMPDEST DUP2 PUSH2 0xDED SWAP2 SWAP1 PUSH2 0xF52 JUMP JUMPDEST SWAP1 POP PUSH2 0xE2C JUMP JUMPDEST DUP3 PUSH1 0xFF AND DUP6 PUSH1 0xFF AND GT ISZERO PUSH2 0xE2B JUMPI DUP3 DUP6 PUSH2 0xE0E SWAP2 SWAP1 PUSH2 0x10D9 JUMP JUMPDEST PUSH1 0xFF AND PUSH1 0xA PUSH2 0xE1D SWAP2 SWAP1 PUSH2 0x123C JUMP JUMPDEST DUP2 PUSH2 0xE28 SWAP2 SWAP1 PUSH2 0xFC0 JUMP JUMPDEST SWAP1 POP JUMPDEST JUMPDEST DUP4 DUP2 PUSH2 0xE38 SWAP2 SWAP1 PUSH2 0xFC0 JUMP JUMPDEST SWAP2 POP POP SWAP5 SWAP4 POP POP POP POP JUMP JUMPDEST PUSH0 PUSH0 REVERT JUMPDEST PUSH0 PUSH20 0xFFFFFFFFFFFFFFFFFFFFFFFFFFFFFFFFFFFFFFFF DUP3 AND SWAP1 POP SWAP2 SWAP1 POP JUMP JUMPDEST PUSH0 PUSH2 0xE70 DUP3 PUSH2 0xE47 JUMP JUMPDEST SWAP1 POP SWAP2 SWAP1 POP JUMP JUMPDEST PUSH2 0xE80 DUP2 PUSH2 0xE66 JUMP JUMPDEST DUP2 EQ PUSH2 0xE8A JUMPI PUSH0 PUSH0 REVERT JUMPDEST POP JUMP JUMPDEST PUSH0 DUP2 CALLDATALOAD SWAP1 POP PUSH2 0xE9B DUP2 PUSH2 0xE77 JUMP JUMPDEST SWAP3 SWAP2 POP POP JUMP JUMPDEST PUSH0 PUSH1 0x20 DUP3 DUP5 SUB SLT ISZERO PUSH2 0xEB6 JUMPI PUSH2 0xEB5 PUSH2 0xE43 JUMP JUMPDEST JUMPDEST PUSH0 PUSH2 0xEC3 DUP5 DUP3 DUP6 ADD PUSH2 0xE8D JUMP JUMPDEST SWAP2 POP POP SWAP3 SWAP2 POP POP JUMP JUMPDEST PUSH0 DUP2 SWAP1 POP SWAP2 SWAP1 POP JUMP JUMPDEST PUSH2 0xEDE DUP2 PUSH2 0xECC JUMP JUMPDEST DUP3 MSTORE POP POP JUMP JUMPDEST PUSH0 PUSH1 0x20 DUP3 ADD SWAP1 POP PUSH2 0xEF7 PUSH0 DUP4 ADD DUP5 PUSH2 0xED5 JUMP JUMPDEST SWAP3 SWAP2 POP POP JUMP JUMPDEST PUSH2 0xF06 DUP2 PUSH2 0xE66 JUMP JUMPDEST DUP3 MSTORE POP POP JUMP JUMPDEST PUSH0 PUSH1 0x20 DUP3 ADD SWAP1 POP PUSH2 0xF1F PUSH0 DUP4 ADD DUP5 PUSH2 0xEFD JUMP JUMPDEST SWAP3 SWAP2 POP POP JUMP JUMPDEST PUSH32 0x4E487B7100000000000000000000000000000000000000000000000000000000 PUSH0 MSTORE PUSH1 0x11 PUSH1 0x4 MSTORE PUSH1 0x24 PUSH0 REVERT JUMPDEST PUSH0 PUSH2 0xF5C DUP3 PUSH2 0xECC JUMP JUMPDEST SWAP2 POP PUSH2 0xF67 DUP4 PUSH2 0xECC JUMP JUMPDEST SWAP3 POP DUP3 DUP3 MUL PUSH2 0xF75 DUP2 PUSH2 0xECC JUMP JUMPDEST SWAP2 POP DUP3 DUP3 DIV DUP5 EQ DUP4 ISZERO OR PUSH2 0xF8C JUMPI PUSH2 0xF8B PUSH2 0xF25 JUMP JUMPDEST JUMPDEST POP SWAP3 SWAP2 POP POP JUMP JUMPDEST PUSH32 0x4E487B7100000000000000000000000000000000000000000000000000000000 PUSH0 MSTORE PUSH1 0x12 PUSH1 0x4 MSTORE PUSH1 0x24 PUSH0 REVERT JUMPDEST PUSH0 PUSH2 0xFCA DUP3 PUSH2 0xECC JUMP JUMPDEST SWAP2 POP PUSH2 0xFD5 DUP4 PUSH2 0xECC JUMP JUMPDEST SWAP3 POP DUP3 PUSH2 0xFE5 JUMPI PUSH2 0xFE4 PUSH2 0xF93 JUMP JUMPDEST JUMPDEST DUP3 DUP3 DIV SWAP1 POP SWAP3 SWAP2 POP POP JUMP JUMPDEST PUSH0 PUSH1 0xFF DUP3 AND SWAP1 POP SWAP2 SWAP1 POP JUMP JUMPDEST PUSH2 0x1005 DUP2 PUSH2 0xFF0 JUMP JUMPDEST DUP2 EQ PUSH2 0x100F JUMPI PUSH0 PUSH0 REVERT JUMPDEST POP JUMP JUMPDEST PUSH0 DUP2 MLOAD SWAP1 POP PUSH2 0x1020 DUP2 PUSH2 0xFFC JUMP JUMPDEST SWAP3 SWAP2 POP POP JUMP JUMPDEST PUSH0 PUSH1 0x20 DUP3 DUP5 SUB SLT ISZERO PUSH2 0x103B JUMPI PUSH2 0x103A PUSH2 0xE43 JUMP JUMPDEST JUMPDEST PUSH0 PUSH2 0x1048 DUP5 DUP3 DUP6 ADD PUSH2 0x1012 JUMP JUMPDEST SWAP2 POP POP SWAP3 SWAP2 POP POP JUMP JUMPDEST PUSH2 0x105A DUP2 PUSH2 0xECC JUMP JUMPDEST DUP2 EQ PUSH2 0x1064 JUMPI PUSH0 PUSH0 REVERT JUMPDEST POP JUMP JUMPDEST PUSH0 DUP2 MLOAD SWAP1 POP PUSH2 0x1075 DUP2 PUSH2 0x1051 JUMP JUMPDEST SWAP3 SWAP2 POP POP JUMP JUMPDEST PUSH0 PUSH1 0x20 DUP3 DUP5 SUB SLT ISZERO PUSH2 0x1090 JUMPI PUSH2 0x108F PUSH2 0xE43 JUMP JUMPDEST JUMPDEST PUSH0 PUSH2 0x109D DUP5 DUP3 DUP6 ADD PUSH2 0x1067 JUMP JUMPDEST SWAP2 POP POP SWAP3 SWAP2 POP POP JUMP JUMPDEST PUSH0 PUSH2 0x10B0 DUP3 PUSH2 0xECC JUMP JUMPDEST SWAP2 POP PUSH2 0x10BB DUP4 PUSH2 0xECC JUMP JUMPDEST SWAP3 POP DUP3 DUP3 ADD SWAP1 POP DUP1 DUP3 GT ISZERO PUSH2 0x10D3 JUMPI PUSH2 0x10D2 PUSH2 0xF25 JUMP JUMPDEST JUMPDEST SWAP3 SWAP2 POP POP JUMP JUMPDEST PUSH0 PUSH2 0x10E3 DUP3 PUSH2 0xFF0 JUMP JUMPDEST SWAP2 POP PUSH2 0x10EE DUP4 PUSH2 0xFF0 JUMP JUMPDEST SWAP3 POP DUP3 DUP3 SUB SWAP1 POP PUSH1 0xFF DUP2 GT ISZERO PUSH2 0x1107 JUMPI PUSH2 0x1106 PUSH2 0xF25 JUMP JUMPDEST JUMPDEST SWAP3 SWAP2 POP POP JUMP JUMPDEST PUSH0 DUP2 PUSH1 0x1 SHR SWAP1 POP SWAP2 SWAP1 POP JUMP JUMPDEST PUSH0 PUSH0 DUP3 SWAP2 POP DUP4 SWAP1 POP JUMPDEST PUSH1 0x1 DUP6 GT ISZERO PUSH2 0x1162 JUMPI DUP1 DUP7 DIV DUP2 GT ISZERO PUSH2 0x113E JUMPI PUSH2 0x113D PUSH2 0xF25 JUMP JUMPDEST JUMPDEST PUSH1 0x1 DUP6 AND ISZERO PUSH2 0x114D JUMPI DUP1 DUP3 MUL SWAP2 POP JUMPDEST DUP1 DUP2 MUL SWAP1 POP PUSH2 0x115B DUP6 PUSH2 0x110D JUMP JUMPDEST SWAP5 POP PUSH2 0x1122 JUMP JUMPDEST SWAP5 POP SWAP5 SWAP3 POP POP POP JUMP JUMPDEST PUSH0 DUP3 PUSH2 0x117A JUMPI PUSH1 0x1 SWAP1 POP PUSH2 0x1235 JUMP JUMPDEST DUP2 PUSH2 0x1187 JUMPI PUSH0 SWAP1 POP PUSH2 0x1235 JUMP JUMPDEST DUP2 PUSH1 0x1 DUP2 EQ PUSH2 0x119D JUMPI PUSH1 0x2 DUP2 EQ PUSH2 0x11A7 JUMPI PUSH2 0x11D6 JUMP JUMPDEST PUSH1 0x1 SWAP2 POP POP PUSH2 0x1235 JUMP JUMPDEST PUSH1 0xFF DUP5 GT ISZERO PUSH2 0x11B9 JUMPI PUSH2 0x11B8 PUSH2 0xF25 JUMP JUMPDEST JUMPDEST DUP4 PUSH1 0x2 EXP SWAP2 POP DUP5 DUP3 GT ISZERO PUSH2 0x11D0 JUMPI PUSH2 0x11CF PUSH2 0xF25 JUMP JUMPDEST JUMPDEST POP PUSH2 0x1235 JUMP JUMPDEST POP PUSH1 0x20 DUP4 LT PUSH2 0x133 DUP4 LT AND PUSH1 0x4E DUP5 LT PUSH1 0xB DUP5 LT AND OR ISZERO PUSH2 0x120B JUMPI DUP3 DUP3 EXP SWAP1 POP DUP4 DUP2 GT ISZERO PUSH2 0x1206 JUMPI PUSH2 0x1205 PUSH2 0xF25 JUMP JUMPDEST JUMPDEST PUSH2 0x1235 JUMP JUMPDEST PUSH2 0x1218 DUP5 DUP5 DUP5 PUSH1 0x1 PUSH2 0x1119 JUMP JUMPDEST SWAP3 POP SWAP1 POP DUP2 DUP5 DIV DUP2 GT ISZERO PUSH2 0x122F JUMPI PUSH2 0x122E PUSH2 0xF25 JUMP JUMPDEST JUMPDEST DUP2 DUP2 MUL SWAP1 POP JUMPDEST SWAP4 SWAP3 POP POP POP JUMP JUMPDEST PUSH0 PUSH2 0x1246 DUP3 PUSH2 0xECC JUMP JUMPDEST SWAP2 POP PUSH2 0x1251 DUP4 PUSH2 0xECC JUMP JUMPDEST SWAP3 POP PUSH2 0x127E PUSH32 0xFFFFFFFFFFFFFFFFFFFFFFFFFFFFFFFFFFFFFFFFFFFFFFFFFFFFFFFFFFFFFFFF DUP5 DUP5 PUSH2 0x116B JUMP JUMPDEST SWAP1 POP SWAP3 SWAP2 POP POP JUMP JUMPDEST PUSH0 PUSH1 0x40 DUP3 ADD SWAP1 POP PUSH2 0x1299 PUSH0 DUP4 ADD DUP6 PUSH2 0xEFD JUMP JUMPDEST PUSH2 0x12A6 PUSH1 0x20 DUP4 ADD DUP5 PUSH2 0xEFD JUMP JUMPDEST SWAP4 SWAP3 POP POP POP JUMP JUMPDEST PUSH0 DUP2 MLOAD SWAP1 POP PUSH2 0x12BB DUP2 PUSH2 0xE77 JUMP JUMPDEST SWAP3 SWAP2 POP POP JUMP JUMPDEST PUSH0 PUSH1 0x20 DUP3 DUP5 SUB SLT ISZERO PUSH2 0x12D6 JUMPI PUSH2 0x12D5 PUSH2 0xE43 JUMP JUMPDEST JUMPDEST PUSH0 PUSH2 0x12E3 DUP5 DUP3 DUP6 ADD PUSH2 0x12AD JUMP JUMPDEST SWAP2 POP POP SWAP3 SWAP2 POP POP JUMP JUMPDEST PUSH0 DUP3 DUP3 MSTORE PUSH1 0x20 DUP3 ADD SWAP1 POP SWAP3 SWAP2 POP POP JUMP JUMPDEST PUSH32 0x556E69737761705632506169723A207061697220646F6573206E6F7420657869 PUSH0 DUP3 ADD MSTORE PUSH32 0x7374000000000000000000000000000000000000000000000000000000000000 PUSH1 0x20 DUP3 ADD MSTORE POP JUMP JUMPDEST PUSH0 PUSH2 0x1356 PUSH1 0x22 DUP4 PUSH2 0x12EC JUMP JUMPDEST SWAP2 POP PUSH2 0x1361 DUP3 PUSH2 0x12FC JUMP JUMPDEST PUSH1 0x40 DUP3 ADD SWAP1 POP SWAP2 SWAP1 POP JUMP JUMPDEST PUSH0 PUSH1 0x20 DUP3 ADD SWAP1 POP DUP2 DUP2 SUB PUSH0 DUP4 ADD MSTORE PUSH2 0x1383 DUP2 PUSH2 0x134A JUMP JUMPDEST SWAP1 POP SWAP2 SWAP1 POP JUMP JUMPDEST PUSH0 PUSH14 0xFFFFFFFFFFFFFFFFFFFFFFFFFFFF DUP3 AND SWAP1 POP SWAP2 SWAP1 POP JUMP JUMPDEST PUSH2 0x13AC DUP2 PUSH2 0x138A JUMP JUMPDEST DUP2 EQ PUSH2 0x13B6 JUMPI PUSH0 PUSH0 REVERT JUMPDEST POP JUMP JUMPDEST PUSH0 DUP2 MLOAD SWAP1 POP PUSH2 0x13C7 DUP2 PUSH2 0x13A3 JUMP JUMPDEST SWAP3 SWAP2 POP POP JUMP JUMPDEST PUSH0 PUSH4 0xFFFFFFFF DUP3 AND SWAP1 POP SWAP2 SWAP1 POP JUMP JUMPDEST PUSH2 0x13E5 DUP2 PUSH2 0x13CD JUMP JUMPDEST DUP2 EQ PUSH2 0x13EF JUMPI PUSH0 PUSH0 REVERT JUMPDEST POP JUMP JUMPDEST PUSH0 DUP2 MLOAD SWAP1 POP PUSH2 0x1400 DUP2 PUSH2 0x13DC JUMP JUMPDEST SWAP3 SWAP2 POP POP JUMP JUMPDEST PUSH0 PUSH0 PUSH0 PUSH1 0x60 DUP5 DUP7 SUB SLT ISZERO PUSH2 0x141D JUMPI PUSH2 0x141C PUSH2 0xE43 JUMP JUMPDEST JUMPDEST PUSH0 PUSH2 0x142A DUP7 DUP3 DUP8 ADD PUSH2 0x13B9 JUMP JUMPDEST SWAP4 POP POP PUSH1 0x20 PUSH2 0x143B DUP7 DUP3 DUP8 ADD PUSH2 0x13B9 JUMP JUMPDEST SWAP3 POP POP PUSH1 0x40 PUSH2 0x144C DUP7 DUP3 DUP8 ADD PUSH2 0x13F2 JUMP JUMPDEST SWAP2 POP POP SWAP3 POP SWAP3 POP SWAP3 JUMP JUMPDEST PUSH32 0x5061697220646F6573206E6F7420636F6E7461696E206261736520746F6B656E PUSH0 DUP3 ADD MSTORE POP JUMP JUMPDEST PUSH0 PUSH2 0x148A PUSH1 0x20 DUP4 PUSH2 0x12EC JUMP JUMPDEST SWAP2 POP PUSH2 0x1495 DUP3 PUSH2 0x1456 JUMP JUMPDEST PUSH1 0x20 DUP3 ADD SWAP1 POP SWAP2 SWAP1 POP JUMP JUMPDEST PUSH0 PUSH1 0x20 DUP3 ADD SWAP1 POP DUP2 DUP2 SUB PUSH0 DUP4 ADD MSTORE PUSH2 0x14B7 DUP2 PUSH2 0x147E JUMP JUMPDEST SWAP1 POP SWAP2 SWAP1 POP JUMP INVALID LOG2 PUSH5 0x6970667358 0x22 SLT KECCAK256 PUSH13 0xDF278F66D2471BE386A6C28586 0xBF 0xB3 PUSH24 0x62B65B9A6AF7FF6A47A1DA617887FB64736F6C634300081E STOP CALLER "
				},
				"gasEstimates": {
					"creation": {
						"codeDepositCost": "1072800",
						"executionCost": "infinite",
						"totalCost": "infinite"
					},
					"external": {
						"UNISWAP_V2_FACTORY_ADDRESS()": "2618",
						"WETH_ADDRESS()": "2530",
						"WETH_USD_PAIR_ADDRESS()": "2553",
						"getTokenLiquidityUsd(address)": "infinite",
						"getTokenLiquidityWeth(address)": "infinite",
						"getTokenMarketCapUsd(address)": "infinite",
						"getTokenMarketCapWeth(address)": "infinite",
						"getTokenUsdPrice(address)": "infinite",
						"getTokenWethPairAddress(address)": "infinite",
						"getTokenWethPrice(address)": "infinite",
						"getWethUsdPrice()": "infinite"
					}
				},
				"methodIdentifiers": {
					"UNISWAP_V2_FACTORY_ADDRESS()": "884ec7a9",
					"WETH_ADDRESS()": "040141e5",
					"WETH_USD_PAIR_ADDRESS()": "0b017603",
					"getTokenLiquidityUsd(address)": "57b6c133",
					"getTokenLiquidityWeth(address)": "0dbc0d7d",
					"getTokenMarketCapUsd(address)": "69a2e17d",
					"getTokenMarketCapWeth(address)": "63aa0c93",
					"getTokenUsdPrice(address)": "00593bcf",
					"getTokenWethPairAddress(address)": "7d1aa610",
					"getTokenWethPrice(address)": "7b49b49d",
					"getWethUsdPrice()": "6855e939"
				}
			},
			"storageLayout": {
				"storage": [
					{
						"astId": 139,
						"contract": "hopium/standalone/main/price-oracle.sol:PriceOracle",
						"label": "WETH_ADDRESS",
						"offset": 0,
						"slot": "0",
						"type": "t_address"
					},
					{
						"astId": 141,
						"contract": "hopium/standalone/main/price-oracle.sol:PriceOracle",
						"label": "WETH_USD_PAIR_ADDRESS",
						"offset": 0,
						"slot": "1",
						"type": "t_address"
					},
					{
						"astId": 143,
						"contract": "hopium/standalone/main/price-oracle.sol:PriceOracle",
						"label": "UNISWAP_V2_FACTORY_ADDRESS",
						"offset": 0,
						"slot": "2",
						"type": "t_address"
					}
				],
				"types": {
					"t_address": {
						"encoding": "inplace",
						"label": "address",
						"numberOfBytes": "20"
					}
				}
			},
			"userdoc": {
				"kind": "user",
				"methods": {
					"getTokenMarketCapUsd(address)": {
						"notice": "Returns market cap in USD for TOKEN (scaled 1e18)."
					},
					"getTokenMarketCapWeth(address)": {
						"notice": "Returns market cap in WETH for TOKEN (scaled 1e18): totalSupply * (WETH per 1 TOKEN). If TOKEN is WETH, this is simply WETH totalSupply (scaled to 1e18)."
					},
					"getTokenUsdPrice(address)": {
						"notice": "Returns USD price of 1 TOKEN (scaled 1e18)"
					},
					"getTokenWethPrice(address)": {
						"notice": "Returns WETH per 1 QUOTE (scaled 1e18) for an arbitrary WETH-QUOTE pair. If QUOTE is WETH, returns 1e18."
					},
					"getWethUsdPrice()": {
						"notice": "Returns USD per 1 WETH (scaled 1e18) using the stored WETH/USD pair."
					}
				},
				"version": 1
			}
		}
	}
}