{
	"hopium/etf/main/etf-vault-deployer.sol": {
		"EtfVaultDeployer": {
			"abi": [
				{
					"inputs": [
						{
							"internalType": "address",
							"name": "_directory",
							"type": "address"
						}
					],
					"stateMutability": "nonpayable",
					"type": "constructor"
				},
				{
					"anonymous": false,
					"inputs": [
						{
							"indexed": true,
							"internalType": "uint256",
							"name": "indexId",
							"type": "uint256"
						},
						{
							"indexed": false,
							"internalType": "address",
							"name": "vaultAddress",
							"type": "address"
						}
					],
					"name": "EtfVaultDeployed",
					"type": "event"
				},
				{
					"inputs": [],
					"name": "Directory",
					"outputs": [
						{
							"internalType": "contract IDirectory",
							"name": "",
							"type": "address"
						}
					],
					"stateMutability": "view",
					"type": "function"
				},
				{
					"inputs": [
						{
							"internalType": "address",
							"name": "_directory",
							"type": "address"
						}
					],
					"name": "changeDirectoryAddress",
					"outputs": [],
					"stateMutability": "nonpayable",
					"type": "function"
				},
				{
					"inputs": [
						{
							"internalType": "uint256",
							"name": "indexId",
							"type": "uint256"
						}
					],
					"name": "deployEtfVault",
					"outputs": [
						{
							"internalType": "address",
							"name": "",
							"type": "address"
						}
					],
					"stateMutability": "nonpayable",
					"type": "function"
				},
				{
					"inputs": [
						{
							"internalType": "string",
							"name": "_key",
							"type": "string"
						}
					],
					"name": "fetchFromDirectory",
					"outputs": [
						{
							"internalType": "address",
							"name": "",
							"type": "address"
						}
					],
					"stateMutability": "view",
					"type": "function"
				},
				{
					"inputs": [],
					"name": "owner",
					"outputs": [
						{
							"internalType": "address",
							"name": "",
							"type": "address"
						}
					],
					"stateMutability": "view",
					"type": "function"
				}
			],
			"devdoc": {
				"kind": "dev",
				"methods": {},
				"version": 1
			},
			"evm": {
				"assembly": "    /* \"hopium/etf/main/etf-vault-deployer.sol\":2888:3473  contract EtfVaultDeployer is ImDirectory, ImEtfFactory {... */\n  mstore(0x40, 0x80)\n    /* \"hopium/etf/main/etf-vault-deployer.sol\":2950:3008  constructor(address _directory) ImDirectory(_directory) {} */\n  callvalue\n  dup1\n  iszero\n  tag_1\n  jumpi\n  revert(0x00, 0x00)\ntag_1:\n  pop\n  mload(0x40)\n  sub(codesize, bytecodeSize)\n  dup1\n  bytecodeSize\n  dup4\n  codecopy\n  dup2\n  dup2\n  add\n  0x40\n  mstore\n  dup2\n  add\n  swap1\n  tag_2\n  swap2\n  swap1\n  tag_3\n  jump\t// in\ntag_2:\n    /* \"hopium/etf/main/etf-vault-deployer.sol\":2994:3004  _directory */\n  dup1\n    /* \"hopium/common/interface/imDirectory.sol\":412:437  _setDirectory(_directory) */\n  tag_7\n    /* \"hopium/common/interface/imDirectory.sol\":426:436  _directory */\n  dup2\n    /* \"hopium/common/interface/imDirectory.sol\":412:425  _setDirectory */\n  shl(0x20, tag_8)\n    /* \"hopium/common/interface/imDirectory.sol\":412:437  _setDirectory(_directory) */\n  0x20\n  shr\n  jump\t// in\ntag_7:\n    /* \"hopium/common/interface/imDirectory.sol\":370:464  constructor(address _directory) {... */\n  pop\n    /* \"hopium/etf/main/etf-vault-deployer.sol\":2950:3008  constructor(address _directory) ImDirectory(_directory) {} */\n  pop\n    /* \"hopium/etf/main/etf-vault-deployer.sol\":2888:3473  contract EtfVaultDeployer is ImDirectory, ImEtfFactory {... */\n  jump(tag_10)\n    /* \"hopium/common/interface/imDirectory.sol\":589:1050  function _setDirectory(address _directory) internal {... */\ntag_8:\n    /* \"hopium/common/interface/imDirectory.sol\":681:682  0 */\n  0x00\n    /* \"hopium/common/interface/imDirectory.sol\":659:683  _directory != address(0) */\n  0xffffffffffffffffffffffffffffffffffffffff\n  and\n    /* \"hopium/common/interface/imDirectory.sol\":659:669  _directory */\n  dup2\n    /* \"hopium/common/interface/imDirectory.sol\":659:683  _directory != address(0) */\n  0xffffffffffffffffffffffffffffffffffffffff\n  and\n  sub\n    /* \"hopium/common/interface/imDirectory.sol\":651:720  require(_directory != address(0), \"Directory cannot be zero address\") */\n  tag_12\n  jumpi\n  mload(0x40)\n  0x08c379a000000000000000000000000000000000000000000000000000000000\n  dup2\n  mstore\n  0x04\n  add\n  tag_13\n  swap1\n  tag_14\n  jump\t// in\ntag_13:\n  mload(0x40)\n  dup1\n  swap2\n  sub\n  swap1\n  revert\ntag_12:\n    /* \"hopium/common/interface/imDirectory.sol\":763:764  0 */\n  0x00\n    /* \"hopium/common/interface/imDirectory.sol\":738:748  _directory */\n  dup2\n    /* \"hopium/common/interface/imDirectory.sol\":738:760  _directory.code.length */\n  0xffffffffffffffffffffffffffffffffffffffff\n  and\n  extcodesize\n    /* \"hopium/common/interface/imDirectory.sol\":738:764  _directory.code.length > 0 */\n  gt\n    /* \"hopium/common/interface/imDirectory.sol\":730:797  require(_directory.code.length > 0, \"Directory must be a contract\") */\n  tag_15\n  jumpi\n  mload(0x40)\n  0x08c379a000000000000000000000000000000000000000000000000000000000\n  dup2\n  mstore\n  0x04\n  add\n  tag_16\n  swap1\n  tag_17\n  jump\t// in\ntag_16:\n  mload(0x40)\n  dup1\n  swap2\n  sub\n  swap1\n  revert\ntag_15:\n    /* \"hopium/common/interface/imDirectory.sol\":861:871  _directory */\n  dup1\n    /* \"hopium/common/interface/imDirectory.sol\":850:878  IDirectory(_directory).owner */\n  0xffffffffffffffffffffffffffffffffffffffff\n  and\n  0x8da5cb5b\n    /* \"hopium/common/interface/imDirectory.sol\":850:880  IDirectory(_directory).owner() */\n  mload(0x40)\n  dup2\n  0xffffffff\n  and\n  0xe0\n  shl\n  dup2\n  mstore\n  0x04\n  add\n  0x20\n  mload(0x40)\n  dup1\n  dup4\n  sub\n  dup2\n  dup7\n  gas\n  staticcall\n  swap3\n  pop\n  pop\n  pop\n  dup1\n  iszero\n  tag_18\n  jumpi\n  pop\n  mload(0x40)\n  returndatasize\n  not(0x1f)\n  0x1f\n  dup3\n  add\n  and\n  dup3\n  add\n  dup1\n  0x40\n  mstore\n  pop\n  dup2\n  add\n  swap1\n  tag_19\n  swap2\n  swap1\n  tag_3\n  jump\t// in\ntag_19:\n  0x01\ntag_18:\n    /* \"hopium/common/interface/imDirectory.sol\":846:1044  try IDirectory(_directory).owner() returns (address) {... */\n  tag_20\n  jumpi\n    /* \"hopium/common/interface/imDirectory.sol\":979:1033  revert(\"Directory address does not implement owner()\") */\n  mload(0x40)\n  0x08c379a000000000000000000000000000000000000000000000000000000000\n  dup2\n  mstore\n  0x04\n  add\n  tag_24\n  swap1\n  tag_25\n  jump\t// in\ntag_24:\n  mload(0x40)\n  dup1\n  swap2\n  sub\n  swap1\n  revert\n    /* \"hopium/common/interface/imDirectory.sol\":846:1044  try IDirectory(_directory).owner() returns (address) {... */\ntag_20:\n    /* \"hopium/common/interface/imDirectory.sol\":936:946  _directory */\n  dup2\n    /* \"hopium/common/interface/imDirectory.sol\":913:922  Directory */\n  0x00\n  0x00\n    /* \"hopium/common/interface/imDirectory.sol\":913:947  Directory = IDirectory(_directory) */\n  0x0100\n  exp\n  dup2\n  sload\n  dup2\n  0xffffffffffffffffffffffffffffffffffffffff\n  mul\n  not\n  and\n  swap1\n  dup4\n  0xffffffffffffffffffffffffffffffffffffffff\n  and\n  mul\n  or\n  swap1\n  sstore\n  pop\n    /* \"hopium/common/interface/imDirectory.sol\":881:958  returns (address) {... */\n  pop\n    /* \"hopium/common/interface/imDirectory.sol\":589:1050  function _setDirectory(address _directory) internal {... */\n  pop\n  jump\t// out\n    /* \"#utility.yul\":88:205   */\ntag_28:\n    /* \"#utility.yul\":197:198   */\n  0x00\n    /* \"#utility.yul\":194:195   */\n  0x00\n    /* \"#utility.yul\":187:199   */\n  revert\n    /* \"#utility.yul\":334:460   */\ntag_30:\n    /* \"#utility.yul\":371:378   */\n  0x00\n    /* \"#utility.yul\":411:453   */\n  0xffffffffffffffffffffffffffffffffffffffff\n    /* \"#utility.yul\":404:409   */\n  dup3\n    /* \"#utility.yul\":400:454   */\n  and\n    /* \"#utility.yul\":389:454   */\n  swap1\n  pop\n    /* \"#utility.yul\":334:460   */\n  swap2\n  swap1\n  pop\n  jump\t// out\n    /* \"#utility.yul\":466:562   */\ntag_31:\n    /* \"#utility.yul\":503:510   */\n  0x00\n    /* \"#utility.yul\":532:556   */\n  tag_47\n    /* \"#utility.yul\":550:555   */\n  dup3\n    /* \"#utility.yul\":532:556   */\n  tag_30\n  jump\t// in\ntag_47:\n    /* \"#utility.yul\":521:556   */\n  swap1\n  pop\n    /* \"#utility.yul\":466:562   */\n  swap2\n  swap1\n  pop\n  jump\t// out\n    /* \"#utility.yul\":568:690   */\ntag_32:\n    /* \"#utility.yul\":641:665   */\n  tag_49\n    /* \"#utility.yul\":659:664   */\n  dup2\n    /* \"#utility.yul\":641:665   */\n  tag_31\n  jump\t// in\ntag_49:\n    /* \"#utility.yul\":634:639   */\n  dup2\n    /* \"#utility.yul\":631:666   */\n  eq\n    /* \"#utility.yul\":621:684   */\n  tag_50\n  jumpi\n    /* \"#utility.yul\":680:681   */\n  0x00\n    /* \"#utility.yul\":677:678   */\n  0x00\n    /* \"#utility.yul\":670:682   */\n  revert\n    /* \"#utility.yul\":621:684   */\ntag_50:\n    /* \"#utility.yul\":568:690   */\n  pop\n  jump\t// out\n    /* \"#utility.yul\":696:839   */\ntag_33:\n    /* \"#utility.yul\":753:758   */\n  0x00\n    /* \"#utility.yul\":784:790   */\n  dup2\n    /* \"#utility.yul\":778:791   */\n  mload\n    /* \"#utility.yul\":769:791   */\n  swap1\n  pop\n    /* \"#utility.yul\":800:833   */\n  tag_52\n    /* \"#utility.yul\":827:832   */\n  dup2\n    /* \"#utility.yul\":800:833   */\n  tag_32\n  jump\t// in\ntag_52:\n    /* \"#utility.yul\":696:839   */\n  swap3\n  swap2\n  pop\n  pop\n  jump\t// out\n    /* \"#utility.yul\":845:1196   */\ntag_3:\n    /* \"#utility.yul\":915:921   */\n  0x00\n    /* \"#utility.yul\":964:966   */\n  0x20\n    /* \"#utility.yul\":952:961   */\n  dup3\n    /* \"#utility.yul\":943:950   */\n  dup5\n    /* \"#utility.yul\":939:962   */\n  sub\n    /* \"#utility.yul\":935:967   */\n  slt\n    /* \"#utility.yul\":932:1051   */\n  iszero\n  tag_54\n  jumpi\n    /* \"#utility.yul\":970:1049   */\n  tag_55\n  tag_28\n  jump\t// in\ntag_55:\n    /* \"#utility.yul\":932:1051   */\ntag_54:\n    /* \"#utility.yul\":1090:1091   */\n  0x00\n    /* \"#utility.yul\":1115:1179   */\n  tag_56\n    /* \"#utility.yul\":1171:1178   */\n  dup5\n    /* \"#utility.yul\":1162:1168   */\n  dup3\n    /* \"#utility.yul\":1151:1160   */\n  dup6\n    /* \"#utility.yul\":1147:1169   */\n  add\n    /* \"#utility.yul\":1115:1179   */\n  tag_33\n  jump\t// in\ntag_56:\n    /* \"#utility.yul\":1105:1179   */\n  swap2\n  pop\n    /* \"#utility.yul\":1061:1189   */\n  pop\n    /* \"#utility.yul\":845:1196   */\n  swap3\n  swap2\n  pop\n  pop\n  jump\t// out\n    /* \"#utility.yul\":1202:1371   */\ntag_34:\n    /* \"#utility.yul\":1286:1297   */\n  0x00\n    /* \"#utility.yul\":1320:1326   */\n  dup3\n    /* \"#utility.yul\":1315:1318   */\n  dup3\n    /* \"#utility.yul\":1308:1327   */\n  mstore\n    /* \"#utility.yul\":1360:1364   */\n  0x20\n    /* \"#utility.yul\":1355:1358   */\n  dup3\n    /* \"#utility.yul\":1351:1365   */\n  add\n    /* \"#utility.yul\":1336:1365   */\n  swap1\n  pop\n    /* \"#utility.yul\":1202:1371   */\n  swap3\n  swap2\n  pop\n  pop\n  jump\t// out\n    /* \"#utility.yul\":1377:1559   */\ntag_35:\n    /* \"#utility.yul\":1517:1551   */\n  0x4469726563746f72792063616e6e6f74206265207a65726f2061646472657373\n    /* \"#utility.yul\":1513:1514   */\n  0x00\n    /* \"#utility.yul\":1505:1511   */\n  dup3\n    /* \"#utility.yul\":1501:1515   */\n  add\n    /* \"#utility.yul\":1494:1552   */\n  mstore\n    /* \"#utility.yul\":1377:1559   */\n  pop\n  jump\t// out\n    /* \"#utility.yul\":1565:1931   */\ntag_36:\n    /* \"#utility.yul\":1707:1710   */\n  0x00\n    /* \"#utility.yul\":1728:1795   */\n  tag_60\n    /* \"#utility.yul\":1792:1794   */\n  0x20\n    /* \"#utility.yul\":1787:1790   */\n  dup4\n    /* \"#utility.yul\":1728:1795   */\n  tag_34\n  jump\t// in\ntag_60:\n    /* \"#utility.yul\":1721:1795   */\n  swap2\n  pop\n    /* \"#utility.yul\":1804:1897   */\n  tag_61\n    /* \"#utility.yul\":1893:1896   */\n  dup3\n    /* \"#utility.yul\":1804:1897   */\n  tag_35\n  jump\t// in\ntag_61:\n    /* \"#utility.yul\":1922:1924   */\n  0x20\n    /* \"#utility.yul\":1917:1920   */\n  dup3\n    /* \"#utility.yul\":1913:1925   */\n  add\n    /* \"#utility.yul\":1906:1925   */\n  swap1\n  pop\n    /* \"#utility.yul\":1565:1931   */\n  swap2\n  swap1\n  pop\n  jump\t// out\n    /* \"#utility.yul\":1937:2356   */\ntag_14:\n    /* \"#utility.yul\":2103:2107   */\n  0x00\n    /* \"#utility.yul\":2141:2143   */\n  0x20\n    /* \"#utility.yul\":2130:2139   */\n  dup3\n    /* \"#utility.yul\":2126:2144   */\n  add\n    /* \"#utility.yul\":2118:2144   */\n  swap1\n  pop\n    /* \"#utility.yul\":2190:2199   */\n  dup2\n    /* \"#utility.yul\":2184:2188   */\n  dup2\n    /* \"#utility.yul\":2180:2200   */\n  sub\n    /* \"#utility.yul\":2176:2177   */\n  0x00\n    /* \"#utility.yul\":2165:2174   */\n  dup4\n    /* \"#utility.yul\":2161:2178   */\n  add\n    /* \"#utility.yul\":2154:2201   */\n  mstore\n    /* \"#utility.yul\":2218:2349   */\n  tag_63\n    /* \"#utility.yul\":2344:2348   */\n  dup2\n    /* \"#utility.yul\":2218:2349   */\n  tag_36\n  jump\t// in\ntag_63:\n    /* \"#utility.yul\":2210:2349   */\n  swap1\n  pop\n    /* \"#utility.yul\":1937:2356   */\n  swap2\n  swap1\n  pop\n  jump\t// out\n    /* \"#utility.yul\":2362:2540   */\ntag_37:\n    /* \"#utility.yul\":2502:2532   */\n  0x4469726563746f7279206d757374206265206120636f6e747261637400000000\n    /* \"#utility.yul\":2498:2499   */\n  0x00\n    /* \"#utility.yul\":2490:2496   */\n  dup3\n    /* \"#utility.yul\":2486:2500   */\n  add\n    /* \"#utility.yul\":2479:2533   */\n  mstore\n    /* \"#utility.yul\":2362:2540   */\n  pop\n  jump\t// out\n    /* \"#utility.yul\":2546:2912   */\ntag_38:\n    /* \"#utility.yul\":2688:2691   */\n  0x00\n    /* \"#utility.yul\":2709:2776   */\n  tag_66\n    /* \"#utility.yul\":2773:2775   */\n  0x1c\n    /* \"#utility.yul\":2768:2771   */\n  dup4\n    /* \"#utility.yul\":2709:2776   */\n  tag_34\n  jump\t// in\ntag_66:\n    /* \"#utility.yul\":2702:2776   */\n  swap2\n  pop\n    /* \"#utility.yul\":2785:2878   */\n  tag_67\n    /* \"#utility.yul\":2874:2877   */\n  dup3\n    /* \"#utility.yul\":2785:2878   */\n  tag_37\n  jump\t// in\ntag_67:\n    /* \"#utility.yul\":2903:2905   */\n  0x20\n    /* \"#utility.yul\":2898:2901   */\n  dup3\n    /* \"#utility.yul\":2894:2906   */\n  add\n    /* \"#utility.yul\":2887:2906   */\n  swap1\n  pop\n    /* \"#utility.yul\":2546:2912   */\n  swap2\n  swap1\n  pop\n  jump\t// out\n    /* \"#utility.yul\":2918:3337   */\ntag_17:\n    /* \"#utility.yul\":3084:3088   */\n  0x00\n    /* \"#utility.yul\":3122:3124   */\n  0x20\n    /* \"#utility.yul\":3111:3120   */\n  dup3\n    /* \"#utility.yul\":3107:3125   */\n  add\n    /* \"#utility.yul\":3099:3125   */\n  swap1\n  pop\n    /* \"#utility.yul\":3171:3180   */\n  dup2\n    /* \"#utility.yul\":3165:3169   */\n  dup2\n    /* \"#utility.yul\":3161:3181   */\n  sub\n    /* \"#utility.yul\":3157:3158   */\n  0x00\n    /* \"#utility.yul\":3146:3155   */\n  dup4\n    /* \"#utility.yul\":3142:3159   */\n  add\n    /* \"#utility.yul\":3135:3182   */\n  mstore\n    /* \"#utility.yul\":3199:3330   */\n  tag_69\n    /* \"#utility.yul\":3325:3329   */\n  dup2\n    /* \"#utility.yul\":3199:3330   */\n  tag_38\n  jump\t// in\ntag_69:\n    /* \"#utility.yul\":3191:3330   */\n  swap1\n  pop\n    /* \"#utility.yul\":2918:3337   */\n  swap2\n  swap1\n  pop\n  jump\t// out\n    /* \"#utility.yul\":3343:3574   */\ntag_39:\n    /* \"#utility.yul\":3483:3517   */\n  0x4469726563746f7279206164647265737320646f6573206e6f7420696d706c65\n    /* \"#utility.yul\":3479:3480   */\n  0x00\n    /* \"#utility.yul\":3471:3477   */\n  dup3\n    /* \"#utility.yul\":3467:3481   */\n  add\n    /* \"#utility.yul\":3460:3518   */\n  mstore\n    /* \"#utility.yul\":3552:3566   */\n  0x6d656e74206f776e657228290000000000000000000000000000000000000000\n    /* \"#utility.yul\":3547:3549   */\n  0x20\n    /* \"#utility.yul\":3539:3545   */\n  dup3\n    /* \"#utility.yul\":3535:3550   */\n  add\n    /* \"#utility.yul\":3528:3567   */\n  mstore\n    /* \"#utility.yul\":3343:3574   */\n  pop\n  jump\t// out\n    /* \"#utility.yul\":3580:3946   */\ntag_40:\n    /* \"#utility.yul\":3722:3725   */\n  0x00\n    /* \"#utility.yul\":3743:3810   */\n  tag_72\n    /* \"#utility.yul\":3807:3809   */\n  0x2c\n    /* \"#utility.yul\":3802:3805   */\n  dup4\n    /* \"#utility.yul\":3743:3810   */\n  tag_34\n  jump\t// in\ntag_72:\n    /* \"#utility.yul\":3736:3810   */\n  swap2\n  pop\n    /* \"#utility.yul\":3819:3912   */\n  tag_73\n    /* \"#utility.yul\":3908:3911   */\n  dup3\n    /* \"#utility.yul\":3819:3912   */\n  tag_39\n  jump\t// in\ntag_73:\n    /* \"#utility.yul\":3937:3939   */\n  0x40\n    /* \"#utility.yul\":3932:3935   */\n  dup3\n    /* \"#utility.yul\":3928:3940   */\n  add\n    /* \"#utility.yul\":3921:3940   */\n  swap1\n  pop\n    /* \"#utility.yul\":3580:3946   */\n  swap2\n  swap1\n  pop\n  jump\t// out\n    /* \"#utility.yul\":3952:4371   */\ntag_25:\n    /* \"#utility.yul\":4118:4122   */\n  0x00\n    /* \"#utility.yul\":4156:4158   */\n  0x20\n    /* \"#utility.yul\":4145:4154   */\n  dup3\n    /* \"#utility.yul\":4141:4159   */\n  add\n    /* \"#utility.yul\":4133:4159   */\n  swap1\n  pop\n    /* \"#utility.yul\":4205:4214   */\n  dup2\n    /* \"#utility.yul\":4199:4203   */\n  dup2\n    /* \"#utility.yul\":4195:4215   */\n  sub\n    /* \"#utility.yul\":4191:4192   */\n  0x00\n    /* \"#utility.yul\":4180:4189   */\n  dup4\n    /* \"#utility.yul\":4176:4193   */\n  add\n    /* \"#utility.yul\":4169:4216   */\n  mstore\n    /* \"#utility.yul\":4233:4364   */\n  tag_75\n    /* \"#utility.yul\":4359:4363   */\n  dup2\n    /* \"#utility.yul\":4233:4364   */\n  tag_40\n  jump\t// in\ntag_75:\n    /* \"#utility.yul\":4225:4364   */\n  swap1\n  pop\n    /* \"#utility.yul\":3952:4371   */\n  swap2\n  swap1\n  pop\n  jump\t// out\n    /* \"hopium/etf/main/etf-vault-deployer.sol\":2888:3473  contract EtfVaultDeployer is ImDirectory, ImEtfFactory {... */\ntag_10:\n  dataSize(sub_0)\n  dup1\n  dataOffset(sub_0)\n  0x00\n  codecopy\n  0x00\n  return\nstop\n\nsub_0: assembly {\n        /* \"hopium/etf/main/etf-vault-deployer.sol\":2888:3473  contract EtfVaultDeployer is ImDirectory, ImEtfFactory {... */\n      mstore(0x40, 0x80)\n      callvalue\n      dup1\n      iszero\n      tag_1\n      jumpi\n      revert(0x00, 0x00)\n    tag_1:\n      pop\n      jumpi(tag_2, lt(calldatasize, 0x04))\n      shr(0xe0, calldataload(0x00))\n      dup1\n      0x27262618\n      eq\n      tag_3\n      jumpi\n      dup1\n      0x658a847a\n      eq\n      tag_4\n      jumpi\n      dup1\n      0x8da5cb5b\n      eq\n      tag_5\n      jumpi\n      dup1\n      0xb57c59a7\n      eq\n      tag_6\n      jumpi\n      dup1\n      0xba4c7be1\n      eq\n      tag_7\n      jumpi\n    tag_2:\n      revert(0x00, 0x00)\n        /* \"hopium/common/interface/imDirectory.sol\":1272:1408  function fetchFromDirectory(string memory _key) public view returns (address) {... */\n    tag_3:\n      tag_8\n      0x04\n      dup1\n      calldatasize\n      sub\n      dup2\n      add\n      swap1\n      tag_9\n      swap2\n      swap1\n      tag_10\n      jump\t// in\n    tag_9:\n      tag_11\n      jump\t// in\n    tag_8:\n      mload(0x40)\n      tag_12\n      swap2\n      swap1\n      tag_13\n      jump\t// in\n    tag_12:\n      mload(0x40)\n      dup1\n      swap2\n      sub\n      swap1\n      return\n        /* \"hopium/common/interface/imDirectory.sol\":336:363  IDirectory public Directory */\n    tag_4:\n      tag_14\n      tag_15\n      jump\t// in\n    tag_14:\n      mload(0x40)\n      tag_16\n      swap2\n      swap1\n      tag_17\n      jump\t// in\n    tag_16:\n      mload(0x40)\n      dup1\n      swap2\n      sub\n      swap1\n      return\n        /* \"hopium/common/interface/imDirectory.sol\":1178:1266  function owner() public view returns (address) {... */\n    tag_5:\n      tag_18\n      tag_19\n      jump\t// in\n    tag_18:\n      mload(0x40)\n      tag_20\n      swap2\n      swap1\n      tag_13\n      jump\t// in\n    tag_20:\n      mload(0x40)\n      dup1\n      swap2\n      sub\n      swap1\n      return\n        /* \"hopium/etf/main/etf-vault-deployer.sol\":3184:3471  function deployEtfVault(uint256 indexId) external onlyEtfFactory returns (address) {... */\n    tag_6:\n      tag_21\n      0x04\n      dup1\n      calldatasize\n      sub\n      dup2\n      add\n      swap1\n      tag_22\n      swap2\n      swap1\n      tag_23\n      jump\t// in\n    tag_22:\n      tag_24\n      jump\t// in\n    tag_21:\n      mload(0x40)\n      tag_25\n      swap2\n      swap1\n      tag_13\n      jump\t// in\n    tag_25:\n      mload(0x40)\n      dup1\n      swap2\n      sub\n      swap1\n      return\n        /* \"hopium/common/interface/imDirectory.sol\":470:583  function changeDirectoryAddress(address _directory) external onlyOwner {... */\n    tag_7:\n      tag_26\n      0x04\n      dup1\n      calldatasize\n      sub\n      dup2\n      add\n      swap1\n      tag_27\n      swap2\n      swap1\n      tag_28\n      jump\t// in\n    tag_27:\n      tag_29\n      jump\t// in\n    tag_26:\n      stop\n        /* \"hopium/common/interface/imDirectory.sol\":1272:1408  function fetchFromDirectory(string memory _key) public view returns (address) {... */\n    tag_11:\n        /* \"hopium/common/interface/imDirectory.sol\":1341:1348  address */\n      0x00\n        /* \"hopium/common/interface/imDirectory.sol\":1367:1376  Directory */\n      0x00\n      0x00\n      swap1\n      sload\n      swap1\n      0x0100\n      exp\n      swap1\n      div\n      0xffffffffffffffffffffffffffffffffffffffff\n      and\n        /* \"hopium/common/interface/imDirectory.sol\":1367:1395  Directory.fetchFromDirectory */\n      0xffffffffffffffffffffffffffffffffffffffff\n      and\n      0x27262618\n        /* \"hopium/common/interface/imDirectory.sol\":1396:1400  _key */\n      dup4\n        /* \"hopium/common/interface/imDirectory.sol\":1367:1401  Directory.fetchFromDirectory(_key) */\n      mload(0x40)\n      dup3\n      0xffffffff\n      and\n      0xe0\n      shl\n      dup2\n      mstore\n      0x04\n      add\n      tag_31\n      swap2\n      swap1\n      tag_32\n      jump\t// in\n    tag_31:\n      0x20\n      mload(0x40)\n      dup1\n      dup4\n      sub\n      dup2\n      dup7\n      gas\n      staticcall\n      iszero\n      dup1\n      iszero\n      tag_34\n      jumpi\n      returndatacopy(0x00, 0x00, returndatasize)\n      revert(0x00, returndatasize)\n    tag_34:\n      pop\n      pop\n      pop\n      pop\n      mload(0x40)\n      returndatasize\n      not(0x1f)\n      0x1f\n      dup3\n      add\n      and\n      dup3\n      add\n      dup1\n      0x40\n      mstore\n      pop\n      dup2\n      add\n      swap1\n      tag_35\n      swap2\n      swap1\n      tag_36\n      jump\t// in\n    tag_35:\n        /* \"hopium/common/interface/imDirectory.sol\":1360:1401  return Directory.fetchFromDirectory(_key) */\n      swap1\n      pop\n        /* \"hopium/common/interface/imDirectory.sol\":1272:1408  function fetchFromDirectory(string memory _key) public view returns (address) {... */\n      swap2\n      swap1\n      pop\n      jump\t// out\n        /* \"hopium/common/interface/imDirectory.sol\":336:363  IDirectory public Directory */\n    tag_15:\n      0x00\n      0x00\n      swap1\n      sload\n      swap1\n      0x0100\n      exp\n      swap1\n      div\n      0xffffffffffffffffffffffffffffffffffffffff\n      and\n      dup2\n      jump\t// out\n        /* \"hopium/common/interface/imDirectory.sol\":1178:1266  function owner() public view returns (address) {... */\n    tag_19:\n        /* \"hopium/common/interface/imDirectory.sol\":1216:1223  address */\n      0x00\n        /* \"hopium/common/interface/imDirectory.sol\":1242:1251  Directory */\n      0x00\n      0x00\n      swap1\n      sload\n      swap1\n      0x0100\n      exp\n      swap1\n      div\n      0xffffffffffffffffffffffffffffffffffffffff\n      and\n        /* \"hopium/common/interface/imDirectory.sol\":1242:1257  Directory.owner */\n      0xffffffffffffffffffffffffffffffffffffffff\n      and\n      0x8da5cb5b\n        /* \"hopium/common/interface/imDirectory.sol\":1242:1259  Directory.owner() */\n      mload(0x40)\n      dup2\n      0xffffffff\n      and\n      0xe0\n      shl\n      dup2\n      mstore\n      0x04\n      add\n      0x20\n      mload(0x40)\n      dup1\n      dup4\n      sub\n      dup2\n      dup7\n      gas\n      staticcall\n      iszero\n      dup1\n      iszero\n      tag_39\n      jumpi\n      returndatacopy(0x00, 0x00, returndatasize)\n      revert(0x00, returndatasize)\n    tag_39:\n      pop\n      pop\n      pop\n      pop\n      mload(0x40)\n      returndatasize\n      not(0x1f)\n      0x1f\n      dup3\n      add\n      and\n      dup3\n      add\n      dup1\n      0x40\n      mstore\n      pop\n      dup2\n      add\n      swap1\n      tag_40\n      swap2\n      swap1\n      tag_36\n      jump\t// in\n    tag_40:\n        /* \"hopium/common/interface/imDirectory.sol\":1235:1259  return Directory.owner() */\n      swap1\n      pop\n        /* \"hopium/common/interface/imDirectory.sol\":1178:1266  function owner() public view returns (address) {... */\n      swap1\n      jump\t// out\n        /* \"hopium/etf/main/etf-vault-deployer.sol\":3184:3471  function deployEtfVault(uint256 indexId) external onlyEtfFactory returns (address) {... */\n    tag_24:\n        /* \"hopium/etf/main/etf-vault-deployer.sol\":3258:3265  address */\n      0x00\n        /* \"hopium/etf/interface/imEtfFactory.sol\":636:669  fetchFromDirectory(\"etf-factory\") */\n      tag_42\n      mload(0x40)\n      dup1\n      0x40\n      add\n      0x40\n      mstore\n      dup1\n      0x0b\n      dup2\n      mstore\n      0x20\n      add\n      0x6574662d666163746f7279000000000000000000000000000000000000000000\n      dup2\n      mstore\n      pop\n        /* \"hopium/etf/interface/imEtfFactory.sol\":636:654  fetchFromDirectory */\n      tag_11\n        /* \"hopium/etf/interface/imEtfFactory.sol\":636:669  fetchFromDirectory(\"etf-factory\") */\n      jump\t// in\n    tag_42:\n        /* \"hopium/etf/interface/imEtfFactory.sol\":622:669  msg.sender == fetchFromDirectory(\"etf-factory\") */\n      0xffffffffffffffffffffffffffffffffffffffff\n      and\n        /* \"hopium/etf/interface/imEtfFactory.sol\":622:632  msg.sender */\n      caller\n        /* \"hopium/etf/interface/imEtfFactory.sol\":622:669  msg.sender == fetchFromDirectory(\"etf-factory\") */\n      0xffffffffffffffffffffffffffffffffffffffff\n      and\n      eq\n        /* \"hopium/etf/interface/imEtfFactory.sol\":614:703  require(msg.sender == fetchFromDirectory(\"etf-factory\"), \"msg.sender is not etf factory\") */\n      tag_43\n      jumpi\n      mload(0x40)\n      0x08c379a000000000000000000000000000000000000000000000000000000000\n      dup2\n      mstore\n      0x04\n      add\n      tag_44\n      swap1\n      tag_45\n      jump\t// in\n    tag_44:\n      mload(0x40)\n      dup1\n      swap2\n      sub\n      swap1\n      revert\n    tag_43:\n        /* \"hopium/etf/main/etf-vault-deployer.sol\":3277:3294  EtfVault newVault */\n      0x00\n        /* \"hopium/etf/main/etf-vault-deployer.sol\":3318:3327  Directory */\n      0x00\n      0x00\n      swap1\n      sload\n      swap1\n      0x0100\n      exp\n      swap1\n      div\n      0xffffffffffffffffffffffffffffffffffffffff\n      and\n        /* \"hopium/etf/main/etf-vault-deployer.sol\":3297:3329  new EtfVault(address(Directory)) */\n      mload(0x40)\n      tag_47\n      swap1\n      tag_48\n      jump\t// in\n    tag_47:\n      tag_49\n      swap2\n      swap1\n      tag_13\n      jump\t// in\n    tag_49:\n      mload(0x40)\n      dup1\n      swap2\n      sub\n      swap1\n      0x00\n      create\n      dup1\n      iszero\n      dup1\n      iszero\n      tag_50\n      jumpi\n      returndatacopy(0x00, 0x00, returndatasize)\n      revert(0x00, returndatasize)\n    tag_50:\n      pop\n        /* \"hopium/etf/main/etf-vault-deployer.sol\":3277:3329  EtfVault newVault = new EtfVault(address(Directory)) */\n      swap1\n      pop\n        /* \"hopium/etf/main/etf-vault-deployer.sol\":3339:3359  address vaultAddress */\n      0x00\n        /* \"hopium/etf/main/etf-vault-deployer.sol\":3370:3378  newVault */\n      dup2\n        /* \"hopium/etf/main/etf-vault-deployer.sol\":3339:3379  address vaultAddress = address(newVault) */\n      swap1\n      pop\n        /* \"hopium/etf/main/etf-vault-deployer.sol\":3412:3419  indexId */\n      dup4\n        /* \"hopium/etf/main/etf-vault-deployer.sol\":3395:3434  EtfVaultDeployed(indexId, vaultAddress) */\n      0xb40972ab04998c21214527661a10d8f39921f4ab74c6e9874df14c1613cd17e6\n        /* \"hopium/etf/main/etf-vault-deployer.sol\":3421:3433  vaultAddress */\n      dup3\n        /* \"hopium/etf/main/etf-vault-deployer.sol\":3395:3434  EtfVaultDeployed(indexId, vaultAddress) */\n      mload(0x40)\n      tag_51\n      swap2\n      swap1\n      tag_13\n      jump\t// in\n    tag_51:\n      mload(0x40)\n      dup1\n      swap2\n      sub\n      swap1\n      log2\n        /* \"hopium/etf/main/etf-vault-deployer.sol\":3452:3464  vaultAddress */\n      dup1\n        /* \"hopium/etf/main/etf-vault-deployer.sol\":3445:3464  return vaultAddress */\n      swap3\n      pop\n      pop\n      pop\n        /* \"hopium/etf/main/etf-vault-deployer.sol\":3184:3471  function deployEtfVault(uint256 indexId) external onlyEtfFactory returns (address) {... */\n      swap2\n      swap1\n      pop\n      jump\t// out\n        /* \"hopium/common/interface/imDirectory.sol\":470:583  function changeDirectoryAddress(address _directory) external onlyOwner {... */\n    tag_29:\n        /* \"hopium/common/interface/imDirectory.sol\":1109:1118  Directory */\n      0x00\n      0x00\n      swap1\n      sload\n      swap1\n      0x0100\n      exp\n      swap1\n      div\n      0xffffffffffffffffffffffffffffffffffffffff\n      and\n        /* \"hopium/common/interface/imDirectory.sol\":1109:1124  Directory.owner */\n      0xffffffffffffffffffffffffffffffffffffffff\n      and\n      0x8da5cb5b\n        /* \"hopium/common/interface/imDirectory.sol\":1109:1126  Directory.owner() */\n      mload(0x40)\n      dup2\n      0xffffffff\n      and\n      0xe0\n      shl\n      dup2\n      mstore\n      0x04\n      add\n      0x20\n      mload(0x40)\n      dup1\n      dup4\n      sub\n      dup2\n      dup7\n      gas\n      staticcall\n      iszero\n      dup1\n      iszero\n      tag_54\n      jumpi\n      returndatacopy(0x00, 0x00, returndatasize)\n      revert(0x00, returndatasize)\n    tag_54:\n      pop\n      pop\n      pop\n      pop\n      mload(0x40)\n      returndatasize\n      not(0x1f)\n      0x1f\n      dup3\n      add\n      and\n      dup3\n      add\n      dup1\n      0x40\n      mstore\n      pop\n      dup2\n      add\n      swap1\n      tag_55\n      swap2\n      swap1\n      tag_36\n      jump\t// in\n    tag_55:\n        /* \"hopium/common/interface/imDirectory.sol\":1095:1126  msg.sender == Directory.owner() */\n      0xffffffffffffffffffffffffffffffffffffffff\n      and\n        /* \"hopium/common/interface/imDirectory.sol\":1095:1105  msg.sender */\n      caller\n        /* \"hopium/common/interface/imDirectory.sol\":1095:1126  msg.sender == Directory.owner() */\n      0xffffffffffffffffffffffffffffffffffffffff\n      and\n      eq\n        /* \"hopium/common/interface/imDirectory.sol\":1087:1154  require(msg.sender == Directory.owner(), \"Caller is not the owner\") */\n      tag_56\n      jumpi\n      mload(0x40)\n      0x08c379a000000000000000000000000000000000000000000000000000000000\n      dup2\n      mstore\n      0x04\n      add\n      tag_57\n      swap1\n      tag_58\n      jump\t// in\n    tag_57:\n      mload(0x40)\n      dup1\n      swap2\n      sub\n      swap1\n      revert\n    tag_56:\n        /* \"hopium/common/interface/imDirectory.sol\":551:576  _setDirectory(_directory) */\n      tag_60\n        /* \"hopium/common/interface/imDirectory.sol\":565:575  _directory */\n      dup2\n        /* \"hopium/common/interface/imDirectory.sol\":551:564  _setDirectory */\n      tag_61\n        /* \"hopium/common/interface/imDirectory.sol\":551:576  _setDirectory(_directory) */\n      jump\t// in\n    tag_60:\n        /* \"hopium/common/interface/imDirectory.sol\":470:583  function changeDirectoryAddress(address _directory) external onlyOwner {... */\n      pop\n      jump\t// out\n        /* \"hopium/common/interface/imDirectory.sol\":589:1050  function _setDirectory(address _directory) internal {... */\n    tag_61:\n        /* \"hopium/common/interface/imDirectory.sol\":681:682  0 */\n      0x00\n        /* \"hopium/common/interface/imDirectory.sol\":659:683  _directory != address(0) */\n      0xffffffffffffffffffffffffffffffffffffffff\n      and\n        /* \"hopium/common/interface/imDirectory.sol\":659:669  _directory */\n      dup2\n        /* \"hopium/common/interface/imDirectory.sol\":659:683  _directory != address(0) */\n      0xffffffffffffffffffffffffffffffffffffffff\n      and\n      sub\n        /* \"hopium/common/interface/imDirectory.sol\":651:720  require(_directory != address(0), \"Directory cannot be zero address\") */\n      tag_63\n      jumpi\n      mload(0x40)\n      0x08c379a000000000000000000000000000000000000000000000000000000000\n      dup2\n      mstore\n      0x04\n      add\n      tag_64\n      swap1\n      tag_65\n      jump\t// in\n    tag_64:\n      mload(0x40)\n      dup1\n      swap2\n      sub\n      swap1\n      revert\n    tag_63:\n        /* \"hopium/common/interface/imDirectory.sol\":763:764  0 */\n      0x00\n        /* \"hopium/common/interface/imDirectory.sol\":738:748  _directory */\n      dup2\n        /* \"hopium/common/interface/imDirectory.sol\":738:760  _directory.code.length */\n      0xffffffffffffffffffffffffffffffffffffffff\n      and\n      extcodesize\n        /* \"hopium/common/interface/imDirectory.sol\":738:764  _directory.code.length > 0 */\n      gt\n        /* \"hopium/common/interface/imDirectory.sol\":730:797  require(_directory.code.length > 0, \"Directory must be a contract\") */\n      tag_66\n      jumpi\n      mload(0x40)\n      0x08c379a000000000000000000000000000000000000000000000000000000000\n      dup2\n      mstore\n      0x04\n      add\n      tag_67\n      swap1\n      tag_68\n      jump\t// in\n    tag_67:\n      mload(0x40)\n      dup1\n      swap2\n      sub\n      swap1\n      revert\n    tag_66:\n        /* \"hopium/common/interface/imDirectory.sol\":861:871  _directory */\n      dup1\n        /* \"hopium/common/interface/imDirectory.sol\":850:878  IDirectory(_directory).owner */\n      0xffffffffffffffffffffffffffffffffffffffff\n      and\n      0x8da5cb5b\n        /* \"hopium/common/interface/imDirectory.sol\":850:880  IDirectory(_directory).owner() */\n      mload(0x40)\n      dup2\n      0xffffffff\n      and\n      0xe0\n      shl\n      dup2\n      mstore\n      0x04\n      add\n      0x20\n      mload(0x40)\n      dup1\n      dup4\n      sub\n      dup2\n      dup7\n      gas\n      staticcall\n      swap3\n      pop\n      pop\n      pop\n      dup1\n      iszero\n      tag_69\n      jumpi\n      pop\n      mload(0x40)\n      returndatasize\n      not(0x1f)\n      0x1f\n      dup3\n      add\n      and\n      dup3\n      add\n      dup1\n      0x40\n      mstore\n      pop\n      dup2\n      add\n      swap1\n      tag_70\n      swap2\n      swap1\n      tag_36\n      jump\t// in\n    tag_70:\n      0x01\n    tag_69:\n        /* \"hopium/common/interface/imDirectory.sol\":846:1044  try IDirectory(_directory).owner() returns (address) {... */\n      tag_71\n      jumpi\n        /* \"hopium/common/interface/imDirectory.sol\":979:1033  revert(\"Directory address does not implement owner()\") */\n      mload(0x40)\n      0x08c379a000000000000000000000000000000000000000000000000000000000\n      dup2\n      mstore\n      0x04\n      add\n      tag_75\n      swap1\n      tag_76\n      jump\t// in\n    tag_75:\n      mload(0x40)\n      dup1\n      swap2\n      sub\n      swap1\n      revert\n        /* \"hopium/common/interface/imDirectory.sol\":846:1044  try IDirectory(_directory).owner() returns (address) {... */\n    tag_71:\n        /* \"hopium/common/interface/imDirectory.sol\":936:946  _directory */\n      dup2\n        /* \"hopium/common/interface/imDirectory.sol\":913:922  Directory */\n      0x00\n      0x00\n        /* \"hopium/common/interface/imDirectory.sol\":913:947  Directory = IDirectory(_directory) */\n      0x0100\n      exp\n      dup2\n      sload\n      dup2\n      0xffffffffffffffffffffffffffffffffffffffff\n      mul\n      not\n      and\n      swap1\n      dup4\n      0xffffffffffffffffffffffffffffffffffffffff\n      and\n      mul\n      or\n      swap1\n      sstore\n      pop\n        /* \"hopium/common/interface/imDirectory.sol\":881:958  returns (address) {... */\n      pop\n        /* \"hopium/common/interface/imDirectory.sol\":589:1050  function _setDirectory(address _directory) internal {... */\n      pop\n      jump\t// out\n    tag_48:\n      dataSize(sub_0)\n      dup1\n      dataOffset(sub_0)\n      dup4\n      codecopy\n      add\n      swap1\n      jump\t// out\n        /* \"#utility.yul\":7:82   */\n    tag_78:\n        /* \"#utility.yul\":40:46   */\n      0x00\n        /* \"#utility.yul\":73:75   */\n      0x40\n        /* \"#utility.yul\":67:76   */\n      mload\n        /* \"#utility.yul\":57:76   */\n      swap1\n      pop\n        /* \"#utility.yul\":7:82   */\n      swap1\n      jump\t// out\n        /* \"#utility.yul\":88:205   */\n    tag_79:\n        /* \"#utility.yul\":197:198   */\n      0x00\n        /* \"#utility.yul\":194:195   */\n      0x00\n        /* \"#utility.yul\":187:199   */\n      revert\n        /* \"#utility.yul\":211:328   */\n    tag_80:\n        /* \"#utility.yul\":320:321   */\n      0x00\n        /* \"#utility.yul\":317:318   */\n      0x00\n        /* \"#utility.yul\":310:322   */\n      revert\n        /* \"#utility.yul\":334:451   */\n    tag_81:\n        /* \"#utility.yul\":443:444   */\n      0x00\n        /* \"#utility.yul\":440:441   */\n      0x00\n        /* \"#utility.yul\":433:445   */\n      revert\n        /* \"#utility.yul\":457:574   */\n    tag_82:\n        /* \"#utility.yul\":566:567   */\n      0x00\n        /* \"#utility.yul\":563:564   */\n      0x00\n        /* \"#utility.yul\":556:568   */\n      revert\n        /* \"#utility.yul\":580:682   */\n    tag_83:\n        /* \"#utility.yul\":621:627   */\n      0x00\n        /* \"#utility.yul\":672:674   */\n      0x1f\n        /* \"#utility.yul\":668:675   */\n      not\n        /* \"#utility.yul\":663:665   */\n      0x1f\n        /* \"#utility.yul\":656:661   */\n      dup4\n        /* \"#utility.yul\":652:666   */\n      add\n        /* \"#utility.yul\":648:676   */\n      and\n        /* \"#utility.yul\":638:676   */\n      swap1\n      pop\n        /* \"#utility.yul\":580:682   */\n      swap2\n      swap1\n      pop\n      jump\t// out\n        /* \"#utility.yul\":688:868   */\n    tag_84:\n        /* \"#utility.yul\":736:813   */\n      0x4e487b7100000000000000000000000000000000000000000000000000000000\n        /* \"#utility.yul\":733:734   */\n      0x00\n        /* \"#utility.yul\":726:814   */\n      mstore\n        /* \"#utility.yul\":833:837   */\n      0x41\n        /* \"#utility.yul\":830:831   */\n      0x04\n        /* \"#utility.yul\":823:838   */\n      mstore\n        /* \"#utility.yul\":857:861   */\n      0x24\n        /* \"#utility.yul\":854:855   */\n      0x00\n        /* \"#utility.yul\":847:862   */\n      revert\n        /* \"#utility.yul\":874:1155   */\n    tag_85:\n        /* \"#utility.yul\":957:984   */\n      tag_128\n        /* \"#utility.yul\":979:983   */\n      dup3\n        /* \"#utility.yul\":957:984   */\n      tag_83\n      jump\t// in\n    tag_128:\n        /* \"#utility.yul\":949:955   */\n      dup2\n        /* \"#utility.yul\":945:985   */\n      add\n        /* \"#utility.yul\":1087:1093   */\n      dup2\n        /* \"#utility.yul\":1075:1085   */\n      dup2\n        /* \"#utility.yul\":1072:1094   */\n      lt\n        /* \"#utility.yul\":1051:1069   */\n      0xffffffffffffffff\n        /* \"#utility.yul\":1039:1049   */\n      dup3\n        /* \"#utility.yul\":1036:1070   */\n      gt\n        /* \"#utility.yul\":1033:1095   */\n      or\n        /* \"#utility.yul\":1030:1118   */\n      iszero\n      tag_129\n      jumpi\n        /* \"#utility.yul\":1098:1116   */\n      tag_130\n      tag_84\n      jump\t// in\n    tag_130:\n        /* \"#utility.yul\":1030:1118   */\n    tag_129:\n        /* \"#utility.yul\":1138:1148   */\n      dup1\n        /* \"#utility.yul\":1134:1136   */\n      0x40\n        /* \"#utility.yul\":1127:1149   */\n      mstore\n        /* \"#utility.yul\":917:1155   */\n      pop\n        /* \"#utility.yul\":874:1155   */\n      pop\n      pop\n      jump\t// out\n        /* \"#utility.yul\":1161:1290   */\n    tag_86:\n        /* \"#utility.yul\":1195:1201   */\n      0x00\n        /* \"#utility.yul\":1222:1242   */\n      tag_132\n      tag_78\n      jump\t// in\n    tag_132:\n        /* \"#utility.yul\":1212:1242   */\n      swap1\n      pop\n        /* \"#utility.yul\":1251:1284   */\n      tag_133\n        /* \"#utility.yul\":1279:1283   */\n      dup3\n        /* \"#utility.yul\":1271:1277   */\n      dup3\n        /* \"#utility.yul\":1251:1284   */\n      tag_85\n      jump\t// in\n    tag_133:\n        /* \"#utility.yul\":1161:1290   */\n      swap2\n      swap1\n      pop\n      jump\t// out\n        /* \"#utility.yul\":1296:1604   */\n    tag_87:\n        /* \"#utility.yul\":1358:1362   */\n      0x00\n        /* \"#utility.yul\":1448:1466   */\n      0xffffffffffffffff\n        /* \"#utility.yul\":1440:1446   */\n      dup3\n        /* \"#utility.yul\":1437:1467   */\n      gt\n        /* \"#utility.yul\":1434:1490   */\n      iszero\n      tag_135\n      jumpi\n        /* \"#utility.yul\":1470:1488   */\n      tag_136\n      tag_84\n      jump\t// in\n    tag_136:\n        /* \"#utility.yul\":1434:1490   */\n    tag_135:\n        /* \"#utility.yul\":1508:1537   */\n      tag_137\n        /* \"#utility.yul\":1530:1536   */\n      dup3\n        /* \"#utility.yul\":1508:1537   */\n      tag_83\n      jump\t// in\n    tag_137:\n        /* \"#utility.yul\":1500:1537   */\n      swap1\n      pop\n        /* \"#utility.yul\":1592:1596   */\n      0x20\n        /* \"#utility.yul\":1586:1590   */\n      dup2\n        /* \"#utility.yul\":1582:1597   */\n      add\n        /* \"#utility.yul\":1574:1597   */\n      swap1\n      pop\n        /* \"#utility.yul\":1296:1604   */\n      swap2\n      swap1\n      pop\n      jump\t// out\n        /* \"#utility.yul\":1610:1758   */\n    tag_88:\n        /* \"#utility.yul\":1708:1714   */\n      dup3\n        /* \"#utility.yul\":1703:1706   */\n      dup2\n        /* \"#utility.yul\":1698:1701   */\n      dup4\n        /* \"#utility.yul\":1685:1715   */\n      calldatacopy\n        /* \"#utility.yul\":1749:1750   */\n      0x00\n        /* \"#utility.yul\":1740:1746   */\n      dup4\n        /* \"#utility.yul\":1735:1738   */\n      dup4\n        /* \"#utility.yul\":1731:1747   */\n      add\n        /* \"#utility.yul\":1724:1751   */\n      mstore\n        /* \"#utility.yul\":1610:1758   */\n      pop\n      pop\n      pop\n      jump\t// out\n        /* \"#utility.yul\":1764:2189   */\n    tag_89:\n        /* \"#utility.yul\":1842:1847   */\n      0x00\n        /* \"#utility.yul\":1867:1933   */\n      tag_140\n        /* \"#utility.yul\":1883:1932   */\n      tag_141\n        /* \"#utility.yul\":1925:1931   */\n      dup5\n        /* \"#utility.yul\":1883:1932   */\n      tag_87\n      jump\t// in\n    tag_141:\n        /* \"#utility.yul\":1867:1933   */\n      tag_86\n      jump\t// in\n    tag_140:\n        /* \"#utility.yul\":1858:1933   */\n      swap1\n      pop\n        /* \"#utility.yul\":1956:1962   */\n      dup3\n        /* \"#utility.yul\":1949:1954   */\n      dup2\n        /* \"#utility.yul\":1942:1963   */\n      mstore\n        /* \"#utility.yul\":1994:1998   */\n      0x20\n        /* \"#utility.yul\":1987:1992   */\n      dup2\n        /* \"#utility.yul\":1983:1999   */\n      add\n        /* \"#utility.yul\":2032:2035   */\n      dup5\n        /* \"#utility.yul\":2023:2029   */\n      dup5\n        /* \"#utility.yul\":2018:2021   */\n      dup5\n        /* \"#utility.yul\":2014:2030   */\n      add\n        /* \"#utility.yul\":2011:2036   */\n      gt\n        /* \"#utility.yul\":2008:2120   */\n      iszero\n      tag_142\n      jumpi\n        /* \"#utility.yul\":2039:2118   */\n      tag_143\n      tag_82\n      jump\t// in\n    tag_143:\n        /* \"#utility.yul\":2008:2120   */\n    tag_142:\n        /* \"#utility.yul\":2129:2183   */\n      tag_144\n        /* \"#utility.yul\":2176:2182   */\n      dup5\n        /* \"#utility.yul\":2171:2174   */\n      dup3\n        /* \"#utility.yul\":2166:2169   */\n      dup6\n        /* \"#utility.yul\":2129:2183   */\n      tag_88\n      jump\t// in\n    tag_144:\n        /* \"#utility.yul\":1848:2189   */\n      pop\n        /* \"#utility.yul\":1764:2189   */\n      swap4\n      swap3\n      pop\n      pop\n      pop\n      jump\t// out\n        /* \"#utility.yul\":2209:2549   */\n    tag_90:\n        /* \"#utility.yul\":2265:2270   */\n      0x00\n        /* \"#utility.yul\":2314:2317   */\n      dup3\n        /* \"#utility.yul\":2307:2311   */\n      0x1f\n        /* \"#utility.yul\":2299:2305   */\n      dup4\n        /* \"#utility.yul\":2295:2312   */\n      add\n        /* \"#utility.yul\":2291:2318   */\n      slt\n        /* \"#utility.yul\":2281:2403   */\n      tag_146\n      jumpi\n        /* \"#utility.yul\":2322:2401   */\n      tag_147\n      tag_81\n      jump\t// in\n    tag_147:\n        /* \"#utility.yul\":2281:2403   */\n    tag_146:\n        /* \"#utility.yul\":2439:2445   */\n      dup2\n        /* \"#utility.yul\":2426:2446   */\n      calldataload\n        /* \"#utility.yul\":2464:2543   */\n      tag_148\n        /* \"#utility.yul\":2539:2542   */\n      dup5\n        /* \"#utility.yul\":2531:2537   */\n      dup3\n        /* \"#utility.yul\":2524:2528   */\n      0x20\n        /* \"#utility.yul\":2516:2522   */\n      dup7\n        /* \"#utility.yul\":2512:2529   */\n      add\n        /* \"#utility.yul\":2464:2543   */\n      tag_89\n      jump\t// in\n    tag_148:\n        /* \"#utility.yul\":2455:2543   */\n      swap2\n      pop\n        /* \"#utility.yul\":2271:2549   */\n      pop\n        /* \"#utility.yul\":2209:2549   */\n      swap3\n      swap2\n      pop\n      pop\n      jump\t// out\n        /* \"#utility.yul\":2555:3064   */\n    tag_10:\n        /* \"#utility.yul\":2624:2630   */\n      0x00\n        /* \"#utility.yul\":2673:2675   */\n      0x20\n        /* \"#utility.yul\":2661:2670   */\n      dup3\n        /* \"#utility.yul\":2652:2659   */\n      dup5\n        /* \"#utility.yul\":2648:2671   */\n      sub\n        /* \"#utility.yul\":2644:2676   */\n      slt\n        /* \"#utility.yul\":2641:2760   */\n      iszero\n      tag_150\n      jumpi\n        /* \"#utility.yul\":2679:2758   */\n      tag_151\n      tag_79\n      jump\t// in\n    tag_151:\n        /* \"#utility.yul\":2641:2760   */\n    tag_150:\n        /* \"#utility.yul\":2827:2828   */\n      0x00\n        /* \"#utility.yul\":2816:2825   */\n      dup3\n        /* \"#utility.yul\":2812:2829   */\n      add\n        /* \"#utility.yul\":2799:2830   */\n      calldataload\n        /* \"#utility.yul\":2857:2875   */\n      0xffffffffffffffff\n        /* \"#utility.yul\":2849:2855   */\n      dup2\n        /* \"#utility.yul\":2846:2876   */\n      gt\n        /* \"#utility.yul\":2843:2960   */\n      iszero\n      tag_152\n      jumpi\n        /* \"#utility.yul\":2879:2958   */\n      tag_153\n      tag_80\n      jump\t// in\n    tag_153:\n        /* \"#utility.yul\":2843:2960   */\n    tag_152:\n        /* \"#utility.yul\":2984:3047   */\n      tag_154\n        /* \"#utility.yul\":3039:3046   */\n      dup5\n        /* \"#utility.yul\":3030:3036   */\n      dup3\n        /* \"#utility.yul\":3019:3028   */\n      dup6\n        /* \"#utility.yul\":3015:3037   */\n      add\n        /* \"#utility.yul\":2984:3047   */\n      tag_90\n      jump\t// in\n    tag_154:\n        /* \"#utility.yul\":2974:3047   */\n      swap2\n      pop\n        /* \"#utility.yul\":2770:3057   */\n      pop\n        /* \"#utility.yul\":2555:3064   */\n      swap3\n      swap2\n      pop\n      pop\n      jump\t// out\n        /* \"#utility.yul\":3070:3196   */\n    tag_91:\n        /* \"#utility.yul\":3107:3114   */\n      0x00\n        /* \"#utility.yul\":3147:3189   */\n      0xffffffffffffffffffffffffffffffffffffffff\n        /* \"#utility.yul\":3140:3145   */\n      dup3\n        /* \"#utility.yul\":3136:3190   */\n      and\n        /* \"#utility.yul\":3125:3190   */\n      swap1\n      pop\n        /* \"#utility.yul\":3070:3196   */\n      swap2\n      swap1\n      pop\n      jump\t// out\n        /* \"#utility.yul\":3202:3298   */\n    tag_92:\n        /* \"#utility.yul\":3239:3246   */\n      0x00\n        /* \"#utility.yul\":3268:3292   */\n      tag_157\n        /* \"#utility.yul\":3286:3291   */\n      dup3\n        /* \"#utility.yul\":3268:3292   */\n      tag_91\n      jump\t// in\n    tag_157:\n        /* \"#utility.yul\":3257:3292   */\n      swap1\n      pop\n        /* \"#utility.yul\":3202:3298   */\n      swap2\n      swap1\n      pop\n      jump\t// out\n        /* \"#utility.yul\":3304:3422   */\n    tag_93:\n        /* \"#utility.yul\":3391:3415   */\n      tag_159\n        /* \"#utility.yul\":3409:3414   */\n      dup2\n        /* \"#utility.yul\":3391:3415   */\n      tag_92\n      jump\t// in\n    tag_159:\n        /* \"#utility.yul\":3386:3389   */\n      dup3\n        /* \"#utility.yul\":3379:3416   */\n      mstore\n        /* \"#utility.yul\":3304:3422   */\n      pop\n      pop\n      jump\t// out\n        /* \"#utility.yul\":3428:3650   */\n    tag_13:\n        /* \"#utility.yul\":3521:3525   */\n      0x00\n        /* \"#utility.yul\":3559:3561   */\n      0x20\n        /* \"#utility.yul\":3548:3557   */\n      dup3\n        /* \"#utility.yul\":3544:3562   */\n      add\n        /* \"#utility.yul\":3536:3562   */\n      swap1\n      pop\n        /* \"#utility.yul\":3572:3643   */\n      tag_161\n        /* \"#utility.yul\":3640:3641   */\n      0x00\n        /* \"#utility.yul\":3629:3638   */\n      dup4\n        /* \"#utility.yul\":3625:3642   */\n      add\n        /* \"#utility.yul\":3616:3622   */\n      dup5\n        /* \"#utility.yul\":3572:3643   */\n      tag_93\n      jump\t// in\n    tag_161:\n        /* \"#utility.yul\":3428:3650   */\n      swap3\n      swap2\n      pop\n      pop\n      jump\t// out\n        /* \"#utility.yul\":3656:3716   */\n    tag_94:\n        /* \"#utility.yul\":3684:3687   */\n      0x00\n        /* \"#utility.yul\":3705:3710   */\n      dup2\n        /* \"#utility.yul\":3698:3710   */\n      swap1\n      pop\n        /* \"#utility.yul\":3656:3716   */\n      swap2\n      swap1\n      pop\n      jump\t// out\n        /* \"#utility.yul\":3722:3864   */\n    tag_95:\n        /* \"#utility.yul\":3772:3781   */\n      0x00\n        /* \"#utility.yul\":3805:3858   */\n      tag_164\n        /* \"#utility.yul\":3823:3857   */\n      tag_165\n        /* \"#utility.yul\":3832:3856   */\n      tag_166\n        /* \"#utility.yul\":3850:3855   */\n      dup5\n        /* \"#utility.yul\":3832:3856   */\n      tag_91\n      jump\t// in\n    tag_166:\n        /* \"#utility.yul\":3823:3857   */\n      tag_94\n      jump\t// in\n    tag_165:\n        /* \"#utility.yul\":3805:3858   */\n      tag_91\n      jump\t// in\n    tag_164:\n        /* \"#utility.yul\":3792:3858   */\n      swap1\n      pop\n        /* \"#utility.yul\":3722:3864   */\n      swap2\n      swap1\n      pop\n      jump\t// out\n        /* \"#utility.yul\":3870:3996   */\n    tag_96:\n        /* \"#utility.yul\":3920:3929   */\n      0x00\n        /* \"#utility.yul\":3953:3990   */\n      tag_168\n        /* \"#utility.yul\":3984:3989   */\n      dup3\n        /* \"#utility.yul\":3953:3990   */\n      tag_95\n      jump\t// in\n    tag_168:\n        /* \"#utility.yul\":3940:3990   */\n      swap1\n      pop\n        /* \"#utility.yul\":3870:3996   */\n      swap2\n      swap1\n      pop\n      jump\t// out\n        /* \"#utility.yul\":4002:4145   */\n    tag_97:\n        /* \"#utility.yul\":4069:4078   */\n      0x00\n        /* \"#utility.yul\":4102:4139   */\n      tag_170\n        /* \"#utility.yul\":4133:4138   */\n      dup3\n        /* \"#utility.yul\":4102:4139   */\n      tag_96\n      jump\t// in\n    tag_170:\n        /* \"#utility.yul\":4089:4139   */\n      swap1\n      pop\n        /* \"#utility.yul\":4002:4145   */\n      swap2\n      swap1\n      pop\n      jump\t// out\n        /* \"#utility.yul\":4151:4316   */\n    tag_98:\n        /* \"#utility.yul\":4255:4309   */\n      tag_172\n        /* \"#utility.yul\":4303:4308   */\n      dup2\n        /* \"#utility.yul\":4255:4309   */\n      tag_97\n      jump\t// in\n    tag_172:\n        /* \"#utility.yul\":4250:4253   */\n      dup3\n        /* \"#utility.yul\":4243:4310   */\n      mstore\n        /* \"#utility.yul\":4151:4316   */\n      pop\n      pop\n      jump\t// out\n        /* \"#utility.yul\":4322:4578   */\n    tag_17:\n        /* \"#utility.yul\":4432:4436   */\n      0x00\n        /* \"#utility.yul\":4470:4472   */\n      0x20\n        /* \"#utility.yul\":4459:4468   */\n      dup3\n        /* \"#utility.yul\":4455:4473   */\n      add\n        /* \"#utility.yul\":4447:4473   */\n      swap1\n      pop\n        /* \"#utility.yul\":4483:4571   */\n      tag_174\n        /* \"#utility.yul\":4568:4569   */\n      0x00\n        /* \"#utility.yul\":4557:4566   */\n      dup4\n        /* \"#utility.yul\":4553:4570   */\n      add\n        /* \"#utility.yul\":4544:4550   */\n      dup5\n        /* \"#utility.yul\":4483:4571   */\n      tag_98\n      jump\t// in\n    tag_174:\n        /* \"#utility.yul\":4322:4578   */\n      swap3\n      swap2\n      pop\n      pop\n      jump\t// out\n        /* \"#utility.yul\":4584:4661   */\n    tag_99:\n        /* \"#utility.yul\":4621:4628   */\n      0x00\n        /* \"#utility.yul\":4650:4655   */\n      dup2\n        /* \"#utility.yul\":4639:4655   */\n      swap1\n      pop\n        /* \"#utility.yul\":4584:4661   */\n      swap2\n      swap1\n      pop\n      jump\t// out\n        /* \"#utility.yul\":4667:4789   */\n    tag_100:\n        /* \"#utility.yul\":4740:4764   */\n      tag_177\n        /* \"#utility.yul\":4758:4763   */\n      dup2\n        /* \"#utility.yul\":4740:4764   */\n      tag_99\n      jump\t// in\n    tag_177:\n        /* \"#utility.yul\":4733:4738   */\n      dup2\n        /* \"#utility.yul\":4730:4765   */\n      eq\n        /* \"#utility.yul\":4720:4783   */\n      tag_178\n      jumpi\n        /* \"#utility.yul\":4779:4780   */\n      0x00\n        /* \"#utility.yul\":4776:4777   */\n      0x00\n        /* \"#utility.yul\":4769:4781   */\n      revert\n        /* \"#utility.yul\":4720:4783   */\n    tag_178:\n        /* \"#utility.yul\":4667:4789   */\n      pop\n      jump\t// out\n        /* \"#utility.yul\":4795:4934   */\n    tag_101:\n        /* \"#utility.yul\":4841:4846   */\n      0x00\n        /* \"#utility.yul\":4879:4885   */\n      dup2\n        /* \"#utility.yul\":4866:4886   */\n      calldataload\n        /* \"#utility.yul\":4857:4886   */\n      swap1\n      pop\n        /* \"#utility.yul\":4895:4928   */\n      tag_180\n        /* \"#utility.yul\":4922:4927   */\n      dup2\n        /* \"#utility.yul\":4895:4928   */\n      tag_100\n      jump\t// in\n    tag_180:\n        /* \"#utility.yul\":4795:4934   */\n      swap3\n      swap2\n      pop\n      pop\n      jump\t// out\n        /* \"#utility.yul\":4940:5269   */\n    tag_23:\n        /* \"#utility.yul\":4999:5005   */\n      0x00\n        /* \"#utility.yul\":5048:5050   */\n      0x20\n        /* \"#utility.yul\":5036:5045   */\n      dup3\n        /* \"#utility.yul\":5027:5034   */\n      dup5\n        /* \"#utility.yul\":5023:5046   */\n      sub\n        /* \"#utility.yul\":5019:5051   */\n      slt\n        /* \"#utility.yul\":5016:5135   */\n      iszero\n      tag_182\n      jumpi\n        /* \"#utility.yul\":5054:5133   */\n      tag_183\n      tag_79\n      jump\t// in\n    tag_183:\n        /* \"#utility.yul\":5016:5135   */\n    tag_182:\n        /* \"#utility.yul\":5174:5175   */\n      0x00\n        /* \"#utility.yul\":5199:5252   */\n      tag_184\n        /* \"#utility.yul\":5244:5251   */\n      dup5\n        /* \"#utility.yul\":5235:5241   */\n      dup3\n        /* \"#utility.yul\":5224:5233   */\n      dup6\n        /* \"#utility.yul\":5220:5242   */\n      add\n        /* \"#utility.yul\":5199:5252   */\n      tag_101\n      jump\t// in\n    tag_184:\n        /* \"#utility.yul\":5189:5252   */\n      swap2\n      pop\n        /* \"#utility.yul\":5145:5262   */\n      pop\n        /* \"#utility.yul\":4940:5269   */\n      swap3\n      swap2\n      pop\n      pop\n      jump\t// out\n        /* \"#utility.yul\":5275:5397   */\n    tag_102:\n        /* \"#utility.yul\":5348:5372   */\n      tag_186\n        /* \"#utility.yul\":5366:5371   */\n      dup2\n        /* \"#utility.yul\":5348:5372   */\n      tag_92\n      jump\t// in\n    tag_186:\n        /* \"#utility.yul\":5341:5346   */\n      dup2\n        /* \"#utility.yul\":5338:5373   */\n      eq\n        /* \"#utility.yul\":5328:5391   */\n      tag_187\n      jumpi\n        /* \"#utility.yul\":5387:5388   */\n      0x00\n        /* \"#utility.yul\":5384:5385   */\n      0x00\n        /* \"#utility.yul\":5377:5389   */\n      revert\n        /* \"#utility.yul\":5328:5391   */\n    tag_187:\n        /* \"#utility.yul\":5275:5397   */\n      pop\n      jump\t// out\n        /* \"#utility.yul\":5403:5542   */\n    tag_103:\n        /* \"#utility.yul\":5449:5454   */\n      0x00\n        /* \"#utility.yul\":5487:5493   */\n      dup2\n        /* \"#utility.yul\":5474:5494   */\n      calldataload\n        /* \"#utility.yul\":5465:5494   */\n      swap1\n      pop\n        /* \"#utility.yul\":5503:5536   */\n      tag_189\n        /* \"#utility.yul\":5530:5535   */\n      dup2\n        /* \"#utility.yul\":5503:5536   */\n      tag_102\n      jump\t// in\n    tag_189:\n        /* \"#utility.yul\":5403:5542   */\n      swap3\n      swap2\n      pop\n      pop\n      jump\t// out\n        /* \"#utility.yul\":5548:5877   */\n    tag_28:\n        /* \"#utility.yul\":5607:5613   */\n      0x00\n        /* \"#utility.yul\":5656:5658   */\n      0x20\n        /* \"#utility.yul\":5644:5653   */\n      dup3\n        /* \"#utility.yul\":5635:5642   */\n      dup5\n        /* \"#utility.yul\":5631:5654   */\n      sub\n        /* \"#utility.yul\":5627:5659   */\n      slt\n        /* \"#utility.yul\":5624:5743   */\n      iszero\n      tag_191\n      jumpi\n        /* \"#utility.yul\":5662:5741   */\n      tag_192\n      tag_79\n      jump\t// in\n    tag_192:\n        /* \"#utility.yul\":5624:5743   */\n    tag_191:\n        /* \"#utility.yul\":5782:5783   */\n      0x00\n        /* \"#utility.yul\":5807:5860   */\n      tag_193\n        /* \"#utility.yul\":5852:5859   */\n      dup5\n        /* \"#utility.yul\":5843:5849   */\n      dup3\n        /* \"#utility.yul\":5832:5841   */\n      dup6\n        /* \"#utility.yul\":5828:5850   */\n      add\n        /* \"#utility.yul\":5807:5860   */\n      tag_103\n      jump\t// in\n    tag_193:\n        /* \"#utility.yul\":5797:5860   */\n      swap2\n      pop\n        /* \"#utility.yul\":5753:5870   */\n      pop\n        /* \"#utility.yul\":5548:5877   */\n      swap3\n      swap2\n      pop\n      pop\n      jump\t// out\n        /* \"#utility.yul\":5883:5982   */\n    tag_104:\n        /* \"#utility.yul\":5935:5941   */\n      0x00\n        /* \"#utility.yul\":5969:5974   */\n      dup2\n        /* \"#utility.yul\":5963:5975   */\n      mload\n        /* \"#utility.yul\":5953:5975   */\n      swap1\n      pop\n        /* \"#utility.yul\":5883:5982   */\n      swap2\n      swap1\n      pop\n      jump\t// out\n        /* \"#utility.yul\":5988:6157   */\n    tag_105:\n        /* \"#utility.yul\":6072:6083   */\n      0x00\n        /* \"#utility.yul\":6106:6112   */\n      dup3\n        /* \"#utility.yul\":6101:6104   */\n      dup3\n        /* \"#utility.yul\":6094:6113   */\n      mstore\n        /* \"#utility.yul\":6146:6150   */\n      0x20\n        /* \"#utility.yul\":6141:6144   */\n      dup3\n        /* \"#utility.yul\":6137:6151   */\n      add\n        /* \"#utility.yul\":6122:6151   */\n      swap1\n      pop\n        /* \"#utility.yul\":5988:6157   */\n      swap3\n      swap2\n      pop\n      pop\n      jump\t// out\n        /* \"#utility.yul\":6163:6302   */\n    tag_106:\n        /* \"#utility.yul\":6252:6258   */\n      dup3\n        /* \"#utility.yul\":6247:6250   */\n      dup2\n        /* \"#utility.yul\":6242:6245   */\n      dup4\n        /* \"#utility.yul\":6236:6259   */\n      mcopy\n        /* \"#utility.yul\":6293:6294   */\n      0x00\n        /* \"#utility.yul\":6284:6290   */\n      dup4\n        /* \"#utility.yul\":6279:6282   */\n      dup4\n        /* \"#utility.yul\":6275:6291   */\n      add\n        /* \"#utility.yul\":6268:6295   */\n      mstore\n        /* \"#utility.yul\":6163:6302   */\n      pop\n      pop\n      pop\n      jump\t// out\n        /* \"#utility.yul\":6308:6685   */\n    tag_107:\n        /* \"#utility.yul\":6396:6399   */\n      0x00\n        /* \"#utility.yul\":6424:6463   */\n      tag_198\n        /* \"#utility.yul\":6457:6462   */\n      dup3\n        /* \"#utility.yul\":6424:6463   */\n      tag_104\n      jump\t// in\n    tag_198:\n        /* \"#utility.yul\":6479:6550   */\n      tag_199\n        /* \"#utility.yul\":6543:6549   */\n      dup2\n        /* \"#utility.yul\":6538:6541   */\n      dup6\n        /* \"#utility.yul\":6479:6550   */\n      tag_105\n      jump\t// in\n    tag_199:\n        /* \"#utility.yul\":6472:6550   */\n      swap4\n      pop\n        /* \"#utility.yul\":6559:6624   */\n      tag_200\n        /* \"#utility.yul\":6617:6623   */\n      dup2\n        /* \"#utility.yul\":6612:6615   */\n      dup6\n        /* \"#utility.yul\":6605:6609   */\n      0x20\n        /* \"#utility.yul\":6598:6603   */\n      dup7\n        /* \"#utility.yul\":6594:6610   */\n      add\n        /* \"#utility.yul\":6559:6624   */\n      tag_106\n      jump\t// in\n    tag_200:\n        /* \"#utility.yul\":6649:6678   */\n      tag_201\n        /* \"#utility.yul\":6671:6677   */\n      dup2\n        /* \"#utility.yul\":6649:6678   */\n      tag_83\n      jump\t// in\n    tag_201:\n        /* \"#utility.yul\":6644:6647   */\n      dup5\n        /* \"#utility.yul\":6640:6679   */\n      add\n        /* \"#utility.yul\":6633:6679   */\n      swap2\n      pop\n        /* \"#utility.yul\":6400:6685   */\n      pop\n        /* \"#utility.yul\":6308:6685   */\n      swap3\n      swap2\n      pop\n      pop\n      jump\t// out\n        /* \"#utility.yul\":6691:7004   */\n    tag_32:\n        /* \"#utility.yul\":6804:6808   */\n      0x00\n        /* \"#utility.yul\":6842:6844   */\n      0x20\n        /* \"#utility.yul\":6831:6840   */\n      dup3\n        /* \"#utility.yul\":6827:6845   */\n      add\n        /* \"#utility.yul\":6819:6845   */\n      swap1\n      pop\n        /* \"#utility.yul\":6891:6900   */\n      dup2\n        /* \"#utility.yul\":6885:6889   */\n      dup2\n        /* \"#utility.yul\":6881:6901   */\n      sub\n        /* \"#utility.yul\":6877:6878   */\n      0x00\n        /* \"#utility.yul\":6866:6875   */\n      dup4\n        /* \"#utility.yul\":6862:6879   */\n      add\n        /* \"#utility.yul\":6855:6902   */\n      mstore\n        /* \"#utility.yul\":6919:6997   */\n      tag_203\n        /* \"#utility.yul\":6992:6996   */\n      dup2\n        /* \"#utility.yul\":6983:6989   */\n      dup5\n        /* \"#utility.yul\":6919:6997   */\n      tag_107\n      jump\t// in\n    tag_203:\n        /* \"#utility.yul\":6911:6997   */\n      swap1\n      pop\n        /* \"#utility.yul\":6691:7004   */\n      swap3\n      swap2\n      pop\n      pop\n      jump\t// out\n        /* \"#utility.yul\":7010:7153   */\n    tag_108:\n        /* \"#utility.yul\":7067:7072   */\n      0x00\n        /* \"#utility.yul\":7098:7104   */\n      dup2\n        /* \"#utility.yul\":7092:7105   */\n      mload\n        /* \"#utility.yul\":7083:7105   */\n      swap1\n      pop\n        /* \"#utility.yul\":7114:7147   */\n      tag_205\n        /* \"#utility.yul\":7141:7146   */\n      dup2\n        /* \"#utility.yul\":7114:7147   */\n      tag_102\n      jump\t// in\n    tag_205:\n        /* \"#utility.yul\":7010:7153   */\n      swap3\n      swap2\n      pop\n      pop\n      jump\t// out\n        /* \"#utility.yul\":7159:7510   */\n    tag_36:\n        /* \"#utility.yul\":7229:7235   */\n      0x00\n        /* \"#utility.yul\":7278:7280   */\n      0x20\n        /* \"#utility.yul\":7266:7275   */\n      dup3\n        /* \"#utility.yul\":7257:7264   */\n      dup5\n        /* \"#utility.yul\":7253:7276   */\n      sub\n        /* \"#utility.yul\":7249:7281   */\n      slt\n        /* \"#utility.yul\":7246:7365   */\n      iszero\n      tag_207\n      jumpi\n        /* \"#utility.yul\":7284:7363   */\n      tag_208\n      tag_79\n      jump\t// in\n    tag_208:\n        /* \"#utility.yul\":7246:7365   */\n    tag_207:\n        /* \"#utility.yul\":7404:7405   */\n      0x00\n        /* \"#utility.yul\":7429:7493   */\n      tag_209\n        /* \"#utility.yul\":7485:7492   */\n      dup5\n        /* \"#utility.yul\":7476:7482   */\n      dup3\n        /* \"#utility.yul\":7465:7474   */\n      dup6\n        /* \"#utility.yul\":7461:7483   */\n      add\n        /* \"#utility.yul\":7429:7493   */\n      tag_108\n      jump\t// in\n    tag_209:\n        /* \"#utility.yul\":7419:7493   */\n      swap2\n      pop\n        /* \"#utility.yul\":7375:7503   */\n      pop\n        /* \"#utility.yul\":7159:7510   */\n      swap3\n      swap2\n      pop\n      pop\n      jump\t// out\n        /* \"#utility.yul\":7516:7695   */\n    tag_109:\n        /* \"#utility.yul\":7656:7687   */\n      0x6d73672e73656e646572206973206e6f742065746620666163746f7279000000\n        /* \"#utility.yul\":7652:7653   */\n      0x00\n        /* \"#utility.yul\":7644:7650   */\n      dup3\n        /* \"#utility.yul\":7640:7654   */\n      add\n        /* \"#utility.yul\":7633:7688   */\n      mstore\n        /* \"#utility.yul\":7516:7695   */\n      pop\n      jump\t// out\n        /* \"#utility.yul\":7701:8067   */\n    tag_110:\n        /* \"#utility.yul\":7843:7846   */\n      0x00\n        /* \"#utility.yul\":7864:7931   */\n      tag_212\n        /* \"#utility.yul\":7928:7930   */\n      0x1d\n        /* \"#utility.yul\":7923:7926   */\n      dup4\n        /* \"#utility.yul\":7864:7931   */\n      tag_105\n      jump\t// in\n    tag_212:\n        /* \"#utility.yul\":7857:7931   */\n      swap2\n      pop\n        /* \"#utility.yul\":7940:8033   */\n      tag_213\n        /* \"#utility.yul\":8029:8032   */\n      dup3\n        /* \"#utility.yul\":7940:8033   */\n      tag_109\n      jump\t// in\n    tag_213:\n        /* \"#utility.yul\":8058:8060   */\n      0x20\n        /* \"#utility.yul\":8053:8056   */\n      dup3\n        /* \"#utility.yul\":8049:8061   */\n      add\n        /* \"#utility.yul\":8042:8061   */\n      swap1\n      pop\n        /* \"#utility.yul\":7701:8067   */\n      swap2\n      swap1\n      pop\n      jump\t// out\n        /* \"#utility.yul\":8073:8492   */\n    tag_45:\n        /* \"#utility.yul\":8239:8243   */\n      0x00\n        /* \"#utility.yul\":8277:8279   */\n      0x20\n        /* \"#utility.yul\":8266:8275   */\n      dup3\n        /* \"#utility.yul\":8262:8280   */\n      add\n        /* \"#utility.yul\":8254:8280   */\n      swap1\n      pop\n        /* \"#utility.yul\":8326:8335   */\n      dup2\n        /* \"#utility.yul\":8320:8324   */\n      dup2\n        /* \"#utility.yul\":8316:8336   */\n      sub\n        /* \"#utility.yul\":8312:8313   */\n      0x00\n        /* \"#utility.yul\":8301:8310   */\n      dup4\n        /* \"#utility.yul\":8297:8314   */\n      add\n        /* \"#utility.yul\":8290:8337   */\n      mstore\n        /* \"#utility.yul\":8354:8485   */\n      tag_215\n        /* \"#utility.yul\":8480:8484   */\n      dup2\n        /* \"#utility.yul\":8354:8485   */\n      tag_110\n      jump\t// in\n    tag_215:\n        /* \"#utility.yul\":8346:8485   */\n      swap1\n      pop\n        /* \"#utility.yul\":8073:8492   */\n      swap2\n      swap1\n      pop\n      jump\t// out\n        /* \"#utility.yul\":8498:8671   */\n    tag_111:\n        /* \"#utility.yul\":8638:8663   */\n      0x43616c6c6572206973206e6f7420746865206f776e6572000000000000000000\n        /* \"#utility.yul\":8634:8635   */\n      0x00\n        /* \"#utility.yul\":8626:8632   */\n      dup3\n        /* \"#utility.yul\":8622:8636   */\n      add\n        /* \"#utility.yul\":8615:8664   */\n      mstore\n        /* \"#utility.yul\":8498:8671   */\n      pop\n      jump\t// out\n        /* \"#utility.yul\":8677:9043   */\n    tag_112:\n        /* \"#utility.yul\":8819:8822   */\n      0x00\n        /* \"#utility.yul\":8840:8907   */\n      tag_218\n        /* \"#utility.yul\":8904:8906   */\n      0x17\n        /* \"#utility.yul\":8899:8902   */\n      dup4\n        /* \"#utility.yul\":8840:8907   */\n      tag_105\n      jump\t// in\n    tag_218:\n        /* \"#utility.yul\":8833:8907   */\n      swap2\n      pop\n        /* \"#utility.yul\":8916:9009   */\n      tag_219\n        /* \"#utility.yul\":9005:9008   */\n      dup3\n        /* \"#utility.yul\":8916:9009   */\n      tag_111\n      jump\t// in\n    tag_219:\n        /* \"#utility.yul\":9034:9036   */\n      0x20\n        /* \"#utility.yul\":9029:9032   */\n      dup3\n        /* \"#utility.yul\":9025:9037   */\n      add\n        /* \"#utility.yul\":9018:9037   */\n      swap1\n      pop\n        /* \"#utility.yul\":8677:9043   */\n      swap2\n      swap1\n      pop\n      jump\t// out\n        /* \"#utility.yul\":9049:9468   */\n    tag_58:\n        /* \"#utility.yul\":9215:9219   */\n      0x00\n        /* \"#utility.yul\":9253:9255   */\n      0x20\n        /* \"#utility.yul\":9242:9251   */\n      dup3\n        /* \"#utility.yul\":9238:9256   */\n      add\n        /* \"#utility.yul\":9230:9256   */\n      swap1\n      pop\n        /* \"#utility.yul\":9302:9311   */\n      dup2\n        /* \"#utility.yul\":9296:9300   */\n      dup2\n        /* \"#utility.yul\":9292:9312   */\n      sub\n        /* \"#utility.yul\":9288:9289   */\n      0x00\n        /* \"#utility.yul\":9277:9286   */\n      dup4\n        /* \"#utility.yul\":9273:9290   */\n      add\n        /* \"#utility.yul\":9266:9313   */\n      mstore\n        /* \"#utility.yul\":9330:9461   */\n      tag_221\n        /* \"#utility.yul\":9456:9460   */\n      dup2\n        /* \"#utility.yul\":9330:9461   */\n      tag_112\n      jump\t// in\n    tag_221:\n        /* \"#utility.yul\":9322:9461   */\n      swap1\n      pop\n        /* \"#utility.yul\":9049:9468   */\n      swap2\n      swap1\n      pop\n      jump\t// out\n        /* \"#utility.yul\":9474:9656   */\n    tag_113:\n        /* \"#utility.yul\":9614:9648   */\n      0x4469726563746f72792063616e6e6f74206265207a65726f2061646472657373\n        /* \"#utility.yul\":9610:9611   */\n      0x00\n        /* \"#utility.yul\":9602:9608   */\n      dup3\n        /* \"#utility.yul\":9598:9612   */\n      add\n        /* \"#utility.yul\":9591:9649   */\n      mstore\n        /* \"#utility.yul\":9474:9656   */\n      pop\n      jump\t// out\n        /* \"#utility.yul\":9662:10028   */\n    tag_114:\n        /* \"#utility.yul\":9804:9807   */\n      0x00\n        /* \"#utility.yul\":9825:9892   */\n      tag_224\n        /* \"#utility.yul\":9889:9891   */\n      0x20\n        /* \"#utility.yul\":9884:9887   */\n      dup4\n        /* \"#utility.yul\":9825:9892   */\n      tag_105\n      jump\t// in\n    tag_224:\n        /* \"#utility.yul\":9818:9892   */\n      swap2\n      pop\n        /* \"#utility.yul\":9901:9994   */\n      tag_225\n        /* \"#utility.yul\":9990:9993   */\n      dup3\n        /* \"#utility.yul\":9901:9994   */\n      tag_113\n      jump\t// in\n    tag_225:\n        /* \"#utility.yul\":10019:10021   */\n      0x20\n        /* \"#utility.yul\":10014:10017   */\n      dup3\n        /* \"#utility.yul\":10010:10022   */\n      add\n        /* \"#utility.yul\":10003:10022   */\n      swap1\n      pop\n        /* \"#utility.yul\":9662:10028   */\n      swap2\n      swap1\n      pop\n      jump\t// out\n        /* \"#utility.yul\":10034:10453   */\n    tag_65:\n        /* \"#utility.yul\":10200:10204   */\n      0x00\n        /* \"#utility.yul\":10238:10240   */\n      0x20\n        /* \"#utility.yul\":10227:10236   */\n      dup3\n        /* \"#utility.yul\":10223:10241   */\n      add\n        /* \"#utility.yul\":10215:10241   */\n      swap1\n      pop\n        /* \"#utility.yul\":10287:10296   */\n      dup2\n        /* \"#utility.yul\":10281:10285   */\n      dup2\n        /* \"#utility.yul\":10277:10297   */\n      sub\n        /* \"#utility.yul\":10273:10274   */\n      0x00\n        /* \"#utility.yul\":10262:10271   */\n      dup4\n        /* \"#utility.yul\":10258:10275   */\n      add\n        /* \"#utility.yul\":10251:10298   */\n      mstore\n        /* \"#utility.yul\":10315:10446   */\n      tag_227\n        /* \"#utility.yul\":10441:10445   */\n      dup2\n        /* \"#utility.yul\":10315:10446   */\n      tag_114\n      jump\t// in\n    tag_227:\n        /* \"#utility.yul\":10307:10446   */\n      swap1\n      pop\n        /* \"#utility.yul\":10034:10453   */\n      swap2\n      swap1\n      pop\n      jump\t// out\n        /* \"#utility.yul\":10459:10637   */\n    tag_115:\n        /* \"#utility.yul\":10599:10629   */\n      0x4469726563746f7279206d757374206265206120636f6e747261637400000000\n        /* \"#utility.yul\":10595:10596   */\n      0x00\n        /* \"#utility.yul\":10587:10593   */\n      dup3\n        /* \"#utility.yul\":10583:10597   */\n      add\n        /* \"#utility.yul\":10576:10630   */\n      mstore\n        /* \"#utility.yul\":10459:10637   */\n      pop\n      jump\t// out\n        /* \"#utility.yul\":10643:11009   */\n    tag_116:\n        /* \"#utility.yul\":10785:10788   */\n      0x00\n        /* \"#utility.yul\":10806:10873   */\n      tag_230\n        /* \"#utility.yul\":10870:10872   */\n      0x1c\n        /* \"#utility.yul\":10865:10868   */\n      dup4\n        /* \"#utility.yul\":10806:10873   */\n      tag_105\n      jump\t// in\n    tag_230:\n        /* \"#utility.yul\":10799:10873   */\n      swap2\n      pop\n        /* \"#utility.yul\":10882:10975   */\n      tag_231\n        /* \"#utility.yul\":10971:10974   */\n      dup3\n        /* \"#utility.yul\":10882:10975   */\n      tag_115\n      jump\t// in\n    tag_231:\n        /* \"#utility.yul\":11000:11002   */\n      0x20\n        /* \"#utility.yul\":10995:10998   */\n      dup3\n        /* \"#utility.yul\":10991:11003   */\n      add\n        /* \"#utility.yul\":10984:11003   */\n      swap1\n      pop\n        /* \"#utility.yul\":10643:11009   */\n      swap2\n      swap1\n      pop\n      jump\t// out\n        /* \"#utility.yul\":11015:11434   */\n    tag_68:\n        /* \"#utility.yul\":11181:11185   */\n      0x00\n        /* \"#utility.yul\":11219:11221   */\n      0x20\n        /* \"#utility.yul\":11208:11217   */\n      dup3\n        /* \"#utility.yul\":11204:11222   */\n      add\n        /* \"#utility.yul\":11196:11222   */\n      swap1\n      pop\n        /* \"#utility.yul\":11268:11277   */\n      dup2\n        /* \"#utility.yul\":11262:11266   */\n      dup2\n        /* \"#utility.yul\":11258:11278   */\n      sub\n        /* \"#utility.yul\":11254:11255   */\n      0x00\n        /* \"#utility.yul\":11243:11252   */\n      dup4\n        /* \"#utility.yul\":11239:11256   */\n      add\n        /* \"#utility.yul\":11232:11279   */\n      mstore\n        /* \"#utility.yul\":11296:11427   */\n      tag_233\n        /* \"#utility.yul\":11422:11426   */\n      dup2\n        /* \"#utility.yul\":11296:11427   */\n      tag_116\n      jump\t// in\n    tag_233:\n        /* \"#utility.yul\":11288:11427   */\n      swap1\n      pop\n        /* \"#utility.yul\":11015:11434   */\n      swap2\n      swap1\n      pop\n      jump\t// out\n        /* \"#utility.yul\":11440:11671   */\n    tag_117:\n        /* \"#utility.yul\":11580:11614   */\n      0x4469726563746f7279206164647265737320646f6573206e6f7420696d706c65\n        /* \"#utility.yul\":11576:11577   */\n      0x00\n        /* \"#utility.yul\":11568:11574   */\n      dup3\n        /* \"#utility.yul\":11564:11578   */\n      add\n        /* \"#utility.yul\":11557:11615   */\n      mstore\n        /* \"#utility.yul\":11649:11663   */\n      0x6d656e74206f776e657228290000000000000000000000000000000000000000\n        /* \"#utility.yul\":11644:11646   */\n      0x20\n        /* \"#utility.yul\":11636:11642   */\n      dup3\n        /* \"#utility.yul\":11632:11647   */\n      add\n        /* \"#utility.yul\":11625:11664   */\n      mstore\n        /* \"#utility.yul\":11440:11671   */\n      pop\n      jump\t// out\n        /* \"#utility.yul\":11677:12043   */\n    tag_118:\n        /* \"#utility.yul\":11819:11822   */\n      0x00\n        /* \"#utility.yul\":11840:11907   */\n      tag_236\n        /* \"#utility.yul\":11904:11906   */\n      0x2c\n        /* \"#utility.yul\":11899:11902   */\n      dup4\n        /* \"#utility.yul\":11840:11907   */\n      tag_105\n      jump\t// in\n    tag_236:\n        /* \"#utility.yul\":11833:11907   */\n      swap2\n      pop\n        /* \"#utility.yul\":11916:12009   */\n      tag_237\n        /* \"#utility.yul\":12005:12008   */\n      dup3\n        /* \"#utility.yul\":11916:12009   */\n      tag_117\n      jump\t// in\n    tag_237:\n        /* \"#utility.yul\":12034:12036   */\n      0x40\n        /* \"#utility.yul\":12029:12032   */\n      dup3\n        /* \"#utility.yul\":12025:12037   */\n      add\n        /* \"#utility.yul\":12018:12037   */\n      swap1\n      pop\n        /* \"#utility.yul\":11677:12043   */\n      swap2\n      swap1\n      pop\n      jump\t// out\n        /* \"#utility.yul\":12049:12468   */\n    tag_76:\n        /* \"#utility.yul\":12215:12219   */\n      0x00\n        /* \"#utility.yul\":12253:12255   */\n      0x20\n        /* \"#utility.yul\":12242:12251   */\n      dup3\n        /* \"#utility.yul\":12238:12256   */\n      add\n        /* \"#utility.yul\":12230:12256   */\n      swap1\n      pop\n        /* \"#utility.yul\":12302:12311   */\n      dup2\n        /* \"#utility.yul\":12296:12300   */\n      dup2\n        /* \"#utility.yul\":12292:12312   */\n      sub\n        /* \"#utility.yul\":12288:12289   */\n      0x00\n        /* \"#utility.yul\":12277:12286   */\n      dup4\n        /* \"#utility.yul\":12273:12290   */\n      add\n        /* \"#utility.yul\":12266:12313   */\n      mstore\n        /* \"#utility.yul\":12330:12461   */\n      tag_239\n        /* \"#utility.yul\":12456:12460   */\n      dup2\n        /* \"#utility.yul\":12330:12461   */\n      tag_118\n      jump\t// in\n    tag_239:\n        /* \"#utility.yul\":12322:12461   */\n      swap1\n      pop\n        /* \"#utility.yul\":12049:12468   */\n      swap2\n      swap1\n      pop\n      jump\t// out\n    stop\n\n    sub_0: assembly {\n            /* \"hopium/etf/main/etf-vault-deployer.sol\":2427:2843  contract EtfVault is ImEtfRouter, TransferHelpers {... */\n          mstore(0x40, 0x80)\n            /* \"hopium/etf/main/etf-vault-deployer.sol\":2484:2542  constructor(address _directory) ImDirectory(_directory) {} */\n          callvalue\n          dup1\n          iszero\n          tag_1\n          jumpi\n          revert(0x00, 0x00)\n        tag_1:\n          pop\n          mload(0x40)\n          sub(codesize, bytecodeSize)\n          dup1\n          bytecodeSize\n          dup4\n          codecopy\n          dup2\n          dup2\n          add\n          0x40\n          mstore\n          dup2\n          add\n          swap1\n          tag_2\n          swap2\n          swap1\n          tag_3\n          jump\t// in\n        tag_2:\n            /* \"hopium/etf/main/etf-vault-deployer.sol\":2528:2538  _directory */\n          dup1\n            /* \"hopium/common/interface/imDirectory.sol\":412:437  _setDirectory(_directory) */\n          tag_7\n            /* \"hopium/common/interface/imDirectory.sol\":426:436  _directory */\n          dup2\n            /* \"hopium/common/interface/imDirectory.sol\":412:425  _setDirectory */\n          shl(0x20, tag_8)\n            /* \"hopium/common/interface/imDirectory.sol\":412:437  _setDirectory(_directory) */\n          0x20\n          shr\n          jump\t// in\n        tag_7:\n            /* \"hopium/common/interface/imDirectory.sol\":370:464  constructor(address _directory) {... */\n          pop\n            /* \"hopium/etf/main/etf-vault-deployer.sol\":2484:2542  constructor(address _directory) ImDirectory(_directory) {} */\n          pop\n            /* \"hopium/etf/main/etf-vault-deployer.sol\":2427:2843  contract EtfVault is ImEtfRouter, TransferHelpers {... */\n          jump(tag_10)\n            /* \"hopium/common/interface/imDirectory.sol\":589:1050  function _setDirectory(address _directory) internal {... */\n        tag_8:\n            /* \"hopium/common/interface/imDirectory.sol\":681:682  0 */\n          0x00\n            /* \"hopium/common/interface/imDirectory.sol\":659:683  _directory != address(0) */\n          0xffffffffffffffffffffffffffffffffffffffff\n          and\n            /* \"hopium/common/interface/imDirectory.sol\":659:669  _directory */\n          dup2\n            /* \"hopium/common/interface/imDirectory.sol\":659:683  _directory != address(0) */\n          0xffffffffffffffffffffffffffffffffffffffff\n          and\n          sub\n            /* \"hopium/common/interface/imDirectory.sol\":651:720  require(_directory != address(0), \"Directory cannot be zero address\") */\n          tag_12\n          jumpi\n          mload(0x40)\n          0x08c379a000000000000000000000000000000000000000000000000000000000\n          dup2\n          mstore\n          0x04\n          add\n          tag_13\n          swap1\n          tag_14\n          jump\t// in\n        tag_13:\n          mload(0x40)\n          dup1\n          swap2\n          sub\n          swap1\n          revert\n        tag_12:\n            /* \"hopium/common/interface/imDirectory.sol\":763:764  0 */\n          0x00\n            /* \"hopium/common/interface/imDirectory.sol\":738:748  _directory */\n          dup2\n            /* \"hopium/common/interface/imDirectory.sol\":738:760  _directory.code.length */\n          0xffffffffffffffffffffffffffffffffffffffff\n          and\n          extcodesize\n            /* \"hopium/common/interface/imDirectory.sol\":738:764  _directory.code.length > 0 */\n          gt\n            /* \"hopium/common/interface/imDirectory.sol\":730:797  require(_directory.code.length > 0, \"Directory must be a contract\") */\n          tag_15\n          jumpi\n          mload(0x40)\n          0x08c379a000000000000000000000000000000000000000000000000000000000\n          dup2\n          mstore\n          0x04\n          add\n          tag_16\n          swap1\n          tag_17\n          jump\t// in\n        tag_16:\n          mload(0x40)\n          dup1\n          swap2\n          sub\n          swap1\n          revert\n        tag_15:\n            /* \"hopium/common/interface/imDirectory.sol\":861:871  _directory */\n          dup1\n            /* \"hopium/common/interface/imDirectory.sol\":850:878  IDirectory(_directory).owner */\n          0xffffffffffffffffffffffffffffffffffffffff\n          and\n          0x8da5cb5b\n            /* \"hopium/common/interface/imDirectory.sol\":850:880  IDirectory(_directory).owner() */\n          mload(0x40)\n          dup2\n          0xffffffff\n          and\n          0xe0\n          shl\n          dup2\n          mstore\n          0x04\n          add\n          0x20\n          mload(0x40)\n          dup1\n          dup4\n          sub\n          dup2\n          dup7\n          gas\n          staticcall\n          swap3\n          pop\n          pop\n          pop\n          dup1\n          iszero\n          tag_18\n          jumpi\n          pop\n          mload(0x40)\n          returndatasize\n          not(0x1f)\n          0x1f\n          dup3\n          add\n          and\n          dup3\n          add\n          dup1\n          0x40\n          mstore\n          pop\n          dup2\n          add\n          swap1\n          tag_19\n          swap2\n          swap1\n          tag_3\n          jump\t// in\n        tag_19:\n          0x01\n        tag_18:\n            /* \"hopium/common/interface/imDirectory.sol\":846:1044  try IDirectory(_directory).owner() returns (address) {... */\n          tag_20\n          jumpi\n            /* \"hopium/common/interface/imDirectory.sol\":979:1033  revert(\"Directory address does not implement owner()\") */\n          mload(0x40)\n          0x08c379a000000000000000000000000000000000000000000000000000000000\n          dup2\n          mstore\n          0x04\n          add\n          tag_24\n          swap1\n          tag_25\n          jump\t// in\n        tag_24:\n          mload(0x40)\n          dup1\n          swap2\n          sub\n          swap1\n          revert\n            /* \"hopium/common/interface/imDirectory.sol\":846:1044  try IDirectory(_directory).owner() returns (address) {... */\n        tag_20:\n            /* \"hopium/common/interface/imDirectory.sol\":936:946  _directory */\n          dup2\n            /* \"hopium/common/interface/imDirectory.sol\":913:922  Directory */\n          0x00\n          0x00\n            /* \"hopium/common/interface/imDirectory.sol\":913:947  Directory = IDirectory(_directory) */\n          0x0100\n          exp\n          dup2\n          sload\n          dup2\n          0xffffffffffffffffffffffffffffffffffffffff\n          mul\n          not\n          and\n          swap1\n          dup4\n          0xffffffffffffffffffffffffffffffffffffffff\n          and\n          mul\n          or\n          swap1\n          sstore\n          pop\n            /* \"hopium/common/interface/imDirectory.sol\":881:958  returns (address) {... */\n          pop\n            /* \"hopium/common/interface/imDirectory.sol\":589:1050  function _setDirectory(address _directory) internal {... */\n          pop\n          jump\t// out\n            /* \"#utility.yul\":88:205   */\n        tag_28:\n            /* \"#utility.yul\":197:198   */\n          0x00\n            /* \"#utility.yul\":194:195   */\n          0x00\n            /* \"#utility.yul\":187:199   */\n          revert\n            /* \"#utility.yul\":334:460   */\n        tag_30:\n            /* \"#utility.yul\":371:378   */\n          0x00\n            /* \"#utility.yul\":411:453   */\n          0xffffffffffffffffffffffffffffffffffffffff\n            /* \"#utility.yul\":404:409   */\n          dup3\n            /* \"#utility.yul\":400:454   */\n          and\n            /* \"#utility.yul\":389:454   */\n          swap1\n          pop\n            /* \"#utility.yul\":334:460   */\n          swap2\n          swap1\n          pop\n          jump\t// out\n            /* \"#utility.yul\":466:562   */\n        tag_31:\n            /* \"#utility.yul\":503:510   */\n          0x00\n            /* \"#utility.yul\":532:556   */\n          tag_47\n            /* \"#utility.yul\":550:555   */\n          dup3\n            /* \"#utility.yul\":532:556   */\n          tag_30\n          jump\t// in\n        tag_47:\n            /* \"#utility.yul\":521:556   */\n          swap1\n          pop\n            /* \"#utility.yul\":466:562   */\n          swap2\n          swap1\n          pop\n          jump\t// out\n            /* \"#utility.yul\":568:690   */\n        tag_32:\n            /* \"#utility.yul\":641:665   */\n          tag_49\n            /* \"#utility.yul\":659:664   */\n          dup2\n            /* \"#utility.yul\":641:665   */\n          tag_31\n          jump\t// in\n        tag_49:\n            /* \"#utility.yul\":634:639   */\n          dup2\n            /* \"#utility.yul\":631:666   */\n          eq\n            /* \"#utility.yul\":621:684   */\n          tag_50\n          jumpi\n            /* \"#utility.yul\":680:681   */\n          0x00\n            /* \"#utility.yul\":677:678   */\n          0x00\n            /* \"#utility.yul\":670:682   */\n          revert\n            /* \"#utility.yul\":621:684   */\n        tag_50:\n            /* \"#utility.yul\":568:690   */\n          pop\n          jump\t// out\n            /* \"#utility.yul\":696:839   */\n        tag_33:\n            /* \"#utility.yul\":753:758   */\n          0x00\n            /* \"#utility.yul\":784:790   */\n          dup2\n            /* \"#utility.yul\":778:791   */\n          mload\n            /* \"#utility.yul\":769:791   */\n          swap1\n          pop\n            /* \"#utility.yul\":800:833   */\n          tag_52\n            /* \"#utility.yul\":827:832   */\n          dup2\n            /* \"#utility.yul\":800:833   */\n          tag_32\n          jump\t// in\n        tag_52:\n            /* \"#utility.yul\":696:839   */\n          swap3\n          swap2\n          pop\n          pop\n          jump\t// out\n            /* \"#utility.yul\":845:1196   */\n        tag_3:\n            /* \"#utility.yul\":915:921   */\n          0x00\n            /* \"#utility.yul\":964:966   */\n          0x20\n            /* \"#utility.yul\":952:961   */\n          dup3\n            /* \"#utility.yul\":943:950   */\n          dup5\n            /* \"#utility.yul\":939:962   */\n          sub\n            /* \"#utility.yul\":935:967   */\n          slt\n            /* \"#utility.yul\":932:1051   */\n          iszero\n          tag_54\n          jumpi\n            /* \"#utility.yul\":970:1049   */\n          tag_55\n          tag_28\n          jump\t// in\n        tag_55:\n            /* \"#utility.yul\":932:1051   */\n        tag_54:\n            /* \"#utility.yul\":1090:1091   */\n          0x00\n            /* \"#utility.yul\":1115:1179   */\n          tag_56\n            /* \"#utility.yul\":1171:1178   */\n          dup5\n            /* \"#utility.yul\":1162:1168   */\n          dup3\n            /* \"#utility.yul\":1151:1160   */\n          dup6\n            /* \"#utility.yul\":1147:1169   */\n          add\n            /* \"#utility.yul\":1115:1179   */\n          tag_33\n          jump\t// in\n        tag_56:\n            /* \"#utility.yul\":1105:1179   */\n          swap2\n          pop\n            /* \"#utility.yul\":1061:1189   */\n          pop\n            /* \"#utility.yul\":845:1196   */\n          swap3\n          swap2\n          pop\n          pop\n          jump\t// out\n            /* \"#utility.yul\":1202:1371   */\n        tag_34:\n            /* \"#utility.yul\":1286:1297   */\n          0x00\n            /* \"#utility.yul\":1320:1326   */\n          dup3\n            /* \"#utility.yul\":1315:1318   */\n          dup3\n            /* \"#utility.yul\":1308:1327   */\n          mstore\n            /* \"#utility.yul\":1360:1364   */\n          0x20\n            /* \"#utility.yul\":1355:1358   */\n          dup3\n            /* \"#utility.yul\":1351:1365   */\n          add\n            /* \"#utility.yul\":1336:1365   */\n          swap1\n          pop\n            /* \"#utility.yul\":1202:1371   */\n          swap3\n          swap2\n          pop\n          pop\n          jump\t// out\n            /* \"#utility.yul\":1377:1559   */\n        tag_35:\n            /* \"#utility.yul\":1517:1551   */\n          0x4469726563746f72792063616e6e6f74206265207a65726f2061646472657373\n            /* \"#utility.yul\":1513:1514   */\n          0x00\n            /* \"#utility.yul\":1505:1511   */\n          dup3\n            /* \"#utility.yul\":1501:1515   */\n          add\n            /* \"#utility.yul\":1494:1552   */\n          mstore\n            /* \"#utility.yul\":1377:1559   */\n          pop\n          jump\t// out\n            /* \"#utility.yul\":1565:1931   */\n        tag_36:\n            /* \"#utility.yul\":1707:1710   */\n          0x00\n            /* \"#utility.yul\":1728:1795   */\n          tag_60\n            /* \"#utility.yul\":1792:1794   */\n          0x20\n            /* \"#utility.yul\":1787:1790   */\n          dup4\n            /* \"#utility.yul\":1728:1795   */\n          tag_34\n          jump\t// in\n        tag_60:\n            /* \"#utility.yul\":1721:1795   */\n          swap2\n          pop\n            /* \"#utility.yul\":1804:1897   */\n          tag_61\n            /* \"#utility.yul\":1893:1896   */\n          dup3\n            /* \"#utility.yul\":1804:1897   */\n          tag_35\n          jump\t// in\n        tag_61:\n            /* \"#utility.yul\":1922:1924   */\n          0x20\n            /* \"#utility.yul\":1917:1920   */\n          dup3\n            /* \"#utility.yul\":1913:1925   */\n          add\n            /* \"#utility.yul\":1906:1925   */\n          swap1\n          pop\n            /* \"#utility.yul\":1565:1931   */\n          swap2\n          swap1\n          pop\n          jump\t// out\n            /* \"#utility.yul\":1937:2356   */\n        tag_14:\n            /* \"#utility.yul\":2103:2107   */\n          0x00\n            /* \"#utility.yul\":2141:2143   */\n          0x20\n            /* \"#utility.yul\":2130:2139   */\n          dup3\n            /* \"#utility.yul\":2126:2144   */\n          add\n            /* \"#utility.yul\":2118:2144   */\n          swap1\n          pop\n            /* \"#utility.yul\":2190:2199   */\n          dup2\n            /* \"#utility.yul\":2184:2188   */\n          dup2\n            /* \"#utility.yul\":2180:2200   */\n          sub\n            /* \"#utility.yul\":2176:2177   */\n          0x00\n            /* \"#utility.yul\":2165:2174   */\n          dup4\n            /* \"#utility.yul\":2161:2178   */\n          add\n            /* \"#utility.yul\":2154:2201   */\n          mstore\n            /* \"#utility.yul\":2218:2349   */\n          tag_63\n            /* \"#utility.yul\":2344:2348   */\n          dup2\n            /* \"#utility.yul\":2218:2349   */\n          tag_36\n          jump\t// in\n        tag_63:\n            /* \"#utility.yul\":2210:2349   */\n          swap1\n          pop\n            /* \"#utility.yul\":1937:2356   */\n          swap2\n          swap1\n          pop\n          jump\t// out\n            /* \"#utility.yul\":2362:2540   */\n        tag_37:\n            /* \"#utility.yul\":2502:2532   */\n          0x4469726563746f7279206d757374206265206120636f6e747261637400000000\n            /* \"#utility.yul\":2498:2499   */\n          0x00\n            /* \"#utility.yul\":2490:2496   */\n          dup3\n            /* \"#utility.yul\":2486:2500   */\n          add\n            /* \"#utility.yul\":2479:2533   */\n          mstore\n            /* \"#utility.yul\":2362:2540   */\n          pop\n          jump\t// out\n            /* \"#utility.yul\":2546:2912   */\n        tag_38:\n            /* \"#utility.yul\":2688:2691   */\n          0x00\n            /* \"#utility.yul\":2709:2776   */\n          tag_66\n            /* \"#utility.yul\":2773:2775   */\n          0x1c\n            /* \"#utility.yul\":2768:2771   */\n          dup4\n            /* \"#utility.yul\":2709:2776   */\n          tag_34\n          jump\t// in\n        tag_66:\n            /* \"#utility.yul\":2702:2776   */\n          swap2\n          pop\n            /* \"#utility.yul\":2785:2878   */\n          tag_67\n            /* \"#utility.yul\":2874:2877   */\n          dup3\n            /* \"#utility.yul\":2785:2878   */\n          tag_37\n          jump\t// in\n        tag_67:\n            /* \"#utility.yul\":2903:2905   */\n          0x20\n            /* \"#utility.yul\":2898:2901   */\n          dup3\n            /* \"#utility.yul\":2894:2906   */\n          add\n            /* \"#utility.yul\":2887:2906   */\n          swap1\n          pop\n            /* \"#utility.yul\":2546:2912   */\n          swap2\n          swap1\n          pop\n          jump\t// out\n            /* \"#utility.yul\":2918:3337   */\n        tag_17:\n            /* \"#utility.yul\":3084:3088   */\n          0x00\n            /* \"#utility.yul\":3122:3124   */\n          0x20\n            /* \"#utility.yul\":3111:3120   */\n          dup3\n            /* \"#utility.yul\":3107:3125   */\n          add\n            /* \"#utility.yul\":3099:3125   */\n          swap1\n          pop\n            /* \"#utility.yul\":3171:3180   */\n          dup2\n            /* \"#utility.yul\":3165:3169   */\n          dup2\n            /* \"#utility.yul\":3161:3181   */\n          sub\n            /* \"#utility.yul\":3157:3158   */\n          0x00\n            /* \"#utility.yul\":3146:3155   */\n          dup4\n            /* \"#utility.yul\":3142:3159   */\n          add\n            /* \"#utility.yul\":3135:3182   */\n          mstore\n            /* \"#utility.yul\":3199:3330   */\n          tag_69\n            /* \"#utility.yul\":3325:3329   */\n          dup2\n            /* \"#utility.yul\":3199:3330   */\n          tag_38\n          jump\t// in\n        tag_69:\n            /* \"#utility.yul\":3191:3330   */\n          swap1\n          pop\n            /* \"#utility.yul\":2918:3337   */\n          swap2\n          swap1\n          pop\n          jump\t// out\n            /* \"#utility.yul\":3343:3574   */\n        tag_39:\n            /* \"#utility.yul\":3483:3517   */\n          0x4469726563746f7279206164647265737320646f6573206e6f7420696d706c65\n            /* \"#utility.yul\":3479:3480   */\n          0x00\n            /* \"#utility.yul\":3471:3477   */\n          dup3\n            /* \"#utility.yul\":3467:3481   */\n          add\n            /* \"#utility.yul\":3460:3518   */\n          mstore\n            /* \"#utility.yul\":3552:3566   */\n          0x6d656e74206f776e657228290000000000000000000000000000000000000000\n            /* \"#utility.yul\":3547:3549   */\n          0x20\n            /* \"#utility.yul\":3539:3545   */\n          dup3\n            /* \"#utility.yul\":3535:3550   */\n          add\n            /* \"#utility.yul\":3528:3567   */\n          mstore\n            /* \"#utility.yul\":3343:3574   */\n          pop\n          jump\t// out\n            /* \"#utility.yul\":3580:3946   */\n        tag_40:\n            /* \"#utility.yul\":3722:3725   */\n          0x00\n            /* \"#utility.yul\":3743:3810   */\n          tag_72\n            /* \"#utility.yul\":3807:3809   */\n          0x2c\n            /* \"#utility.yul\":3802:3805   */\n          dup4\n            /* \"#utility.yul\":3743:3810   */\n          tag_34\n          jump\t// in\n        tag_72:\n            /* \"#utility.yul\":3736:3810   */\n          swap2\n          pop\n            /* \"#utility.yul\":3819:3912   */\n          tag_73\n            /* \"#utility.yul\":3908:3911   */\n          dup3\n            /* \"#utility.yul\":3819:3912   */\n          tag_39\n          jump\t// in\n        tag_73:\n            /* \"#utility.yul\":3937:3939   */\n          0x40\n            /* \"#utility.yul\":3932:3935   */\n          dup3\n            /* \"#utility.yul\":3928:3940   */\n          add\n            /* \"#utility.yul\":3921:3940   */\n          swap1\n          pop\n            /* \"#utility.yul\":3580:3946   */\n          swap2\n          swap1\n          pop\n          jump\t// out\n            /* \"#utility.yul\":3952:4371   */\n        tag_25:\n            /* \"#utility.yul\":4118:4122   */\n          0x00\n            /* \"#utility.yul\":4156:4158   */\n          0x20\n            /* \"#utility.yul\":4145:4154   */\n          dup3\n            /* \"#utility.yul\":4141:4159   */\n          add\n            /* \"#utility.yul\":4133:4159   */\n          swap1\n          pop\n            /* \"#utility.yul\":4205:4214   */\n          dup2\n            /* \"#utility.yul\":4199:4203   */\n          dup2\n            /* \"#utility.yul\":4195:4215   */\n          sub\n            /* \"#utility.yul\":4191:4192   */\n          0x00\n            /* \"#utility.yul\":4180:4189   */\n          dup4\n            /* \"#utility.yul\":4176:4193   */\n          add\n            /* \"#utility.yul\":4169:4216   */\n          mstore\n            /* \"#utility.yul\":4233:4364   */\n          tag_75\n            /* \"#utility.yul\":4359:4363   */\n          dup2\n            /* \"#utility.yul\":4233:4364   */\n          tag_40\n          jump\t// in\n        tag_75:\n            /* \"#utility.yul\":4225:4364   */\n          swap1\n          pop\n            /* \"#utility.yul\":3952:4371   */\n          swap2\n          swap1\n          pop\n          jump\t// out\n            /* \"hopium/etf/main/etf-vault-deployer.sol\":2427:2843  contract EtfVault is ImEtfRouter, TransferHelpers {... */\n        tag_10:\n          dataSize(sub_0)\n          dup1\n          dataOffset(sub_0)\n          0x00\n          codecopy\n          0x00\n          return\n        stop\n\n        sub_0: assembly {\n                /* \"hopium/etf/main/etf-vault-deployer.sol\":2427:2843  contract EtfVault is ImEtfRouter, TransferHelpers {... */\n              mstore(0x40, 0x80)\n              callvalue\n              dup1\n              iszero\n              tag_1\n              jumpi\n              revert(0x00, 0x00)\n            tag_1:\n              pop\n              jumpi(tag_2, lt(calldatasize, 0x04))\n              shr(0xe0, calldataload(0x00))\n              dup1\n              0x09053ac4\n              eq\n              tag_3\n              jumpi\n              dup1\n              0x27262618\n              eq\n              tag_4\n              jumpi\n              dup1\n              0x5c833bfd\n              eq\n              tag_5\n              jumpi\n              dup1\n              0x658a847a\n              eq\n              tag_6\n              jumpi\n              dup1\n              0x8da5cb5b\n              eq\n              tag_7\n              jumpi\n              dup1\n              0xba4c7be1\n              eq\n              tag_8\n              jumpi\n            tag_2:\n              revert(0x00, 0x00)\n                /* \"hopium/etf/main/etf-vault-deployer.sol\":2706:2841  function recoverAsset(address tokenAddress, address toAddress) public onlyOwner {... */\n            tag_3:\n              tag_9\n              0x04\n              dup1\n              calldatasize\n              sub\n              dup2\n              add\n              swap1\n              tag_10\n              swap2\n              swap1\n              tag_11\n              jump\t// in\n            tag_10:\n              tag_12\n              jump\t// in\n            tag_9:\n              stop\n                /* \"hopium/common/interface/imDirectory.sol\":1272:1408  function fetchFromDirectory(string memory _key) public view returns (address) {... */\n            tag_4:\n              tag_13\n              0x04\n              dup1\n              calldatasize\n              sub\n              dup2\n              add\n              swap1\n              tag_14\n              swap2\n              swap1\n              tag_15\n              jump\t// in\n            tag_14:\n              tag_16\n              jump\t// in\n            tag_13:\n              mload(0x40)\n              tag_17\n              swap2\n              swap1\n              tag_18\n              jump\t// in\n            tag_17:\n              mload(0x40)\n              dup1\n              swap2\n              sub\n              swap1\n              return\n                /* \"hopium/etf/main/etf-vault-deployer.sol\":2548:2700  function redeem(address tokenAddress, uint256 amount, address receiver) public onlyEtfRouter {... */\n            tag_5:\n              tag_19\n              0x04\n              dup1\n              calldatasize\n              sub\n              dup2\n              add\n              swap1\n              tag_20\n              swap2\n              swap1\n              tag_21\n              jump\t// in\n            tag_20:\n              tag_22\n              jump\t// in\n            tag_19:\n              stop\n                /* \"hopium/common/interface/imDirectory.sol\":336:363  IDirectory public Directory */\n            tag_6:\n              tag_23\n              tag_24\n              jump\t// in\n            tag_23:\n              mload(0x40)\n              tag_25\n              swap2\n              swap1\n              tag_26\n              jump\t// in\n            tag_25:\n              mload(0x40)\n              dup1\n              swap2\n              sub\n              swap1\n              return\n                /* \"hopium/common/interface/imDirectory.sol\":1178:1266  function owner() public view returns (address) {... */\n            tag_7:\n              tag_27\n              tag_28\n              jump\t// in\n            tag_27:\n              mload(0x40)\n              tag_29\n              swap2\n              swap1\n              tag_18\n              jump\t// in\n            tag_29:\n              mload(0x40)\n              dup1\n              swap2\n              sub\n              swap1\n              return\n                /* \"hopium/common/interface/imDirectory.sol\":470:583  function changeDirectoryAddress(address _directory) external onlyOwner {... */\n            tag_8:\n              tag_30\n              0x04\n              dup1\n              calldatasize\n              sub\n              dup2\n              add\n              swap1\n              tag_31\n              swap2\n              swap1\n              tag_32\n              jump\t// in\n            tag_31:\n              tag_33\n              jump\t// in\n            tag_30:\n              stop\n                /* \"hopium/etf/main/etf-vault-deployer.sol\":2706:2841  function recoverAsset(address tokenAddress, address toAddress) public onlyOwner {... */\n            tag_12:\n                /* \"hopium/common/interface/imDirectory.sol\":1109:1118  Directory */\n              0x00\n              0x00\n              swap1\n              sload\n              swap1\n              0x0100\n              exp\n              swap1\n              div\n              0xffffffffffffffffffffffffffffffffffffffff\n              and\n                /* \"hopium/common/interface/imDirectory.sol\":1109:1124  Directory.owner */\n              0xffffffffffffffffffffffffffffffffffffffff\n              and\n              0x8da5cb5b\n                /* \"hopium/common/interface/imDirectory.sol\":1109:1126  Directory.owner() */\n              mload(0x40)\n              dup2\n              0xffffffff\n              and\n              0xe0\n              shl\n              dup2\n              mstore\n              0x04\n              add\n              0x20\n              mload(0x40)\n              dup1\n              dup4\n              sub\n              dup2\n              dup7\n              gas\n              staticcall\n              iszero\n              dup1\n              iszero\n              tag_36\n              jumpi\n              returndatacopy(0x00, 0x00, returndatasize)\n              revert(0x00, returndatasize)\n            tag_36:\n              pop\n              pop\n              pop\n              pop\n              mload(0x40)\n              returndatasize\n              not(0x1f)\n              0x1f\n              dup3\n              add\n              and\n              dup3\n              add\n              dup1\n              0x40\n              mstore\n              pop\n              dup2\n              add\n              swap1\n              tag_37\n              swap2\n              swap1\n              tag_38\n              jump\t// in\n            tag_37:\n                /* \"hopium/common/interface/imDirectory.sol\":1095:1126  msg.sender == Directory.owner() */\n              0xffffffffffffffffffffffffffffffffffffffff\n              and\n                /* \"hopium/common/interface/imDirectory.sol\":1095:1105  msg.sender */\n              caller\n                /* \"hopium/common/interface/imDirectory.sol\":1095:1126  msg.sender == Directory.owner() */\n              0xffffffffffffffffffffffffffffffffffffffff\n              and\n              eq\n                /* \"hopium/common/interface/imDirectory.sol\":1087:1154  require(msg.sender == Directory.owner(), \"Caller is not the owner\") */\n              tag_39\n              jumpi\n              mload(0x40)\n              0x08c379a000000000000000000000000000000000000000000000000000000000\n              dup2\n              mstore\n              0x04\n              add\n              tag_40\n              swap1\n              tag_41\n              jump\t// in\n            tag_40:\n              mload(0x40)\n              dup1\n              swap2\n              sub\n              swap1\n              revert\n            tag_39:\n                /* \"hopium/etf/main/etf-vault-deployer.sol\":2796:2834  _recoverAsset(tokenAddress, toAddress) */\n              tag_43\n                /* \"hopium/etf/main/etf-vault-deployer.sol\":2810:2822  tokenAddress */\n              dup3\n                /* \"hopium/etf/main/etf-vault-deployer.sol\":2824:2833  toAddress */\n              dup3\n                /* \"hopium/etf/main/etf-vault-deployer.sol\":2796:2809  _recoverAsset */\n              tag_44\n                /* \"hopium/etf/main/etf-vault-deployer.sol\":2796:2834  _recoverAsset(tokenAddress, toAddress) */\n              jump\t// in\n            tag_43:\n                /* \"hopium/etf/main/etf-vault-deployer.sol\":2706:2841  function recoverAsset(address tokenAddress, address toAddress) public onlyOwner {... */\n              pop\n              pop\n              jump\t// out\n                /* \"hopium/common/interface/imDirectory.sol\":1272:1408  function fetchFromDirectory(string memory _key) public view returns (address) {... */\n            tag_16:\n                /* \"hopium/common/interface/imDirectory.sol\":1341:1348  address */\n              0x00\n                /* \"hopium/common/interface/imDirectory.sol\":1367:1376  Directory */\n              0x00\n              0x00\n              swap1\n              sload\n              swap1\n              0x0100\n              exp\n              swap1\n              div\n              0xffffffffffffffffffffffffffffffffffffffff\n              and\n                /* \"hopium/common/interface/imDirectory.sol\":1367:1395  Directory.fetchFromDirectory */\n              0xffffffffffffffffffffffffffffffffffffffff\n              and\n              0x27262618\n                /* \"hopium/common/interface/imDirectory.sol\":1396:1400  _key */\n              dup4\n                /* \"hopium/common/interface/imDirectory.sol\":1367:1401  Directory.fetchFromDirectory(_key) */\n              mload(0x40)\n              dup3\n              0xffffffff\n              and\n              0xe0\n              shl\n              dup2\n              mstore\n              0x04\n              add\n              tag_46\n              swap2\n              swap1\n              tag_47\n              jump\t// in\n            tag_46:\n              0x20\n              mload(0x40)\n              dup1\n              dup4\n              sub\n              dup2\n              dup7\n              gas\n              staticcall\n              iszero\n              dup1\n              iszero\n              tag_49\n              jumpi\n              returndatacopy(0x00, 0x00, returndatasize)\n              revert(0x00, returndatasize)\n            tag_49:\n              pop\n              pop\n              pop\n              pop\n              mload(0x40)\n              returndatasize\n              not(0x1f)\n              0x1f\n              dup3\n              add\n              and\n              dup3\n              add\n              dup1\n              0x40\n              mstore\n              pop\n              dup2\n              add\n              swap1\n              tag_50\n              swap2\n              swap1\n              tag_38\n              jump\t// in\n            tag_50:\n                /* \"hopium/common/interface/imDirectory.sol\":1360:1401  return Directory.fetchFromDirectory(_key) */\n              swap1\n              pop\n                /* \"hopium/common/interface/imDirectory.sol\":1272:1408  function fetchFromDirectory(string memory _key) public view returns (address) {... */\n              swap2\n              swap1\n              pop\n              jump\t// out\n                /* \"hopium/etf/main/etf-vault-deployer.sol\":2548:2700  function redeem(address tokenAddress, uint256 amount, address receiver) public onlyEtfRouter {... */\n            tag_22:\n                /* \"hopium/etf/interface/imEtfRouter.sol\":389:421  fetchFromDirectory(\"etf-router\") */\n              tag_52\n              mload(0x40)\n              dup1\n              0x40\n              add\n              0x40\n              mstore\n              dup1\n              0x0a\n              dup2\n              mstore\n              0x20\n              add\n              0x6574662d726f7574657200000000000000000000000000000000000000000000\n              dup2\n              mstore\n              pop\n                /* \"hopium/etf/interface/imEtfRouter.sol\":389:407  fetchFromDirectory */\n              tag_16\n                /* \"hopium/etf/interface/imEtfRouter.sol\":389:421  fetchFromDirectory(\"etf-router\") */\n              jump\t// in\n            tag_52:\n                /* \"hopium/etf/interface/imEtfRouter.sol\":375:421  msg.sender == fetchFromDirectory(\"etf-router\") */\n              0xffffffffffffffffffffffffffffffffffffffff\n              and\n                /* \"hopium/etf/interface/imEtfRouter.sol\":375:385  msg.sender */\n              caller\n                /* \"hopium/etf/interface/imEtfRouter.sol\":375:421  msg.sender == fetchFromDirectory(\"etf-router\") */\n              0xffffffffffffffffffffffffffffffffffffffff\n              and\n              eq\n                /* \"hopium/etf/interface/imEtfRouter.sol\":367:454  require(msg.sender == fetchFromDirectory(\"etf-router\"), \"msg.sender is not etf router\") */\n              tag_53\n              jumpi\n              mload(0x40)\n              0x08c379a000000000000000000000000000000000000000000000000000000000\n              dup2\n              mstore\n              0x04\n              add\n              tag_54\n              swap1\n              tag_55\n              jump\t// in\n            tag_54:\n              mload(0x40)\n              dup1\n              swap2\n              sub\n              swap1\n              revert\n            tag_53:\n                /* \"hopium/etf/main/etf-vault-deployer.sol\":2651:2693  _sendToken(tokenAddress, receiver, amount) */\n              tag_57\n                /* \"hopium/etf/main/etf-vault-deployer.sol\":2662:2674  tokenAddress */\n              dup4\n                /* \"hopium/etf/main/etf-vault-deployer.sol\":2676:2684  receiver */\n              dup3\n                /* \"hopium/etf/main/etf-vault-deployer.sol\":2686:2692  amount */\n              dup5\n                /* \"hopium/etf/main/etf-vault-deployer.sol\":2651:2661  _sendToken */\n              tag_58\n                /* \"hopium/etf/main/etf-vault-deployer.sol\":2651:2693  _sendToken(tokenAddress, receiver, amount) */\n              jump\t// in\n            tag_57:\n                /* \"hopium/etf/main/etf-vault-deployer.sol\":2548:2700  function redeem(address tokenAddress, uint256 amount, address receiver) public onlyEtfRouter {... */\n              pop\n              pop\n              pop\n              jump\t// out\n                /* \"hopium/common/interface/imDirectory.sol\":336:363  IDirectory public Directory */\n            tag_24:\n              0x00\n              0x00\n              swap1\n              sload\n              swap1\n              0x0100\n              exp\n              swap1\n              div\n              0xffffffffffffffffffffffffffffffffffffffff\n              and\n              dup2\n              jump\t// out\n                /* \"hopium/common/interface/imDirectory.sol\":1178:1266  function owner() public view returns (address) {... */\n            tag_28:\n                /* \"hopium/common/interface/imDirectory.sol\":1216:1223  address */\n              0x00\n                /* \"hopium/common/interface/imDirectory.sol\":1242:1251  Directory */\n              0x00\n              0x00\n              swap1\n              sload\n              swap1\n              0x0100\n              exp\n              swap1\n              div\n              0xffffffffffffffffffffffffffffffffffffffff\n              and\n                /* \"hopium/common/interface/imDirectory.sol\":1242:1257  Directory.owner */\n              0xffffffffffffffffffffffffffffffffffffffff\n              and\n              0x8da5cb5b\n                /* \"hopium/common/interface/imDirectory.sol\":1242:1259  Directory.owner() */\n              mload(0x40)\n              dup2\n              0xffffffff\n              and\n              0xe0\n              shl\n              dup2\n              mstore\n              0x04\n              add\n              0x20\n              mload(0x40)\n              dup1\n              dup4\n              sub\n              dup2\n              dup7\n              gas\n              staticcall\n              iszero\n              dup1\n              iszero\n              tag_61\n              jumpi\n              returndatacopy(0x00, 0x00, returndatasize)\n              revert(0x00, returndatasize)\n            tag_61:\n              pop\n              pop\n              pop\n              pop\n              mload(0x40)\n              returndatasize\n              not(0x1f)\n              0x1f\n              dup3\n              add\n              and\n              dup3\n              add\n              dup1\n              0x40\n              mstore\n              pop\n              dup2\n              add\n              swap1\n              tag_62\n              swap2\n              swap1\n              tag_38\n              jump\t// in\n            tag_62:\n                /* \"hopium/common/interface/imDirectory.sol\":1235:1259  return Directory.owner() */\n              swap1\n              pop\n                /* \"hopium/common/interface/imDirectory.sol\":1178:1266  function owner() public view returns (address) {... */\n              swap1\n              jump\t// out\n                /* \"hopium/common/interface/imDirectory.sol\":470:583  function changeDirectoryAddress(address _directory) external onlyOwner {... */\n            tag_33:\n                /* \"hopium/common/interface/imDirectory.sol\":1109:1118  Directory */\n              0x00\n              0x00\n              swap1\n              sload\n              swap1\n              0x0100\n              exp\n              swap1\n              div\n              0xffffffffffffffffffffffffffffffffffffffff\n              and\n                /* \"hopium/common/interface/imDirectory.sol\":1109:1124  Directory.owner */\n              0xffffffffffffffffffffffffffffffffffffffff\n              and\n              0x8da5cb5b\n                /* \"hopium/common/interface/imDirectory.sol\":1109:1126  Directory.owner() */\n              mload(0x40)\n              dup2\n              0xffffffff\n              and\n              0xe0\n              shl\n              dup2\n              mstore\n              0x04\n              add\n              0x20\n              mload(0x40)\n              dup1\n              dup4\n              sub\n              dup2\n              dup7\n              gas\n              staticcall\n              iszero\n              dup1\n              iszero\n              tag_65\n              jumpi\n              returndatacopy(0x00, 0x00, returndatasize)\n              revert(0x00, returndatasize)\n            tag_65:\n              pop\n              pop\n              pop\n              pop\n              mload(0x40)\n              returndatasize\n              not(0x1f)\n              0x1f\n              dup3\n              add\n              and\n              dup3\n              add\n              dup1\n              0x40\n              mstore\n              pop\n              dup2\n              add\n              swap1\n              tag_66\n              swap2\n              swap1\n              tag_38\n              jump\t// in\n            tag_66:\n                /* \"hopium/common/interface/imDirectory.sol\":1095:1126  msg.sender == Directory.owner() */\n              0xffffffffffffffffffffffffffffffffffffffff\n              and\n                /* \"hopium/common/interface/imDirectory.sol\":1095:1105  msg.sender */\n              caller\n                /* \"hopium/common/interface/imDirectory.sol\":1095:1126  msg.sender == Directory.owner() */\n              0xffffffffffffffffffffffffffffffffffffffff\n              and\n              eq\n                /* \"hopium/common/interface/imDirectory.sol\":1087:1154  require(msg.sender == Directory.owner(), \"Caller is not the owner\") */\n              tag_67\n              jumpi\n              mload(0x40)\n              0x08c379a000000000000000000000000000000000000000000000000000000000\n              dup2\n              mstore\n              0x04\n              add\n              tag_68\n              swap1\n              tag_41\n              jump\t// in\n            tag_68:\n              mload(0x40)\n              dup1\n              swap2\n              sub\n              swap1\n              revert\n            tag_67:\n                /* \"hopium/common/interface/imDirectory.sol\":551:576  _setDirectory(_directory) */\n              tag_70\n                /* \"hopium/common/interface/imDirectory.sol\":565:575  _directory */\n              dup2\n                /* \"hopium/common/interface/imDirectory.sol\":551:564  _setDirectory */\n              tag_71\n                /* \"hopium/common/interface/imDirectory.sol\":551:576  _setDirectory(_directory) */\n              jump\t// in\n            tag_70:\n                /* \"hopium/common/interface/imDirectory.sol\":470:583  function changeDirectoryAddress(address _directory) external onlyOwner {... */\n              pop\n              jump\t// out\n                /* \"hopium/etf/main/etf-vault-deployer.sol\":2262:2392  function _recoverAsset(address tokenAddress, address toAddress) internal {... */\n            tag_44:\n                /* \"hopium/etf/main/etf-vault-deployer.sol\":2345:2385  _sendEthOrToken(tokenAddress, toAddress) */\n              tag_73\n                /* \"hopium/etf/main/etf-vault-deployer.sol\":2361:2373  tokenAddress */\n              dup3\n                /* \"hopium/etf/main/etf-vault-deployer.sol\":2375:2384  toAddress */\n              dup3\n                /* \"hopium/etf/main/etf-vault-deployer.sol\":2345:2360  _sendEthOrToken */\n              tag_74\n                /* \"hopium/etf/main/etf-vault-deployer.sol\":2345:2385  _sendEthOrToken(tokenAddress, toAddress) */\n              jump\t// in\n            tag_73:\n                /* \"hopium/etf/main/etf-vault-deployer.sol\":2262:2392  function _recoverAsset(address tokenAddress, address toAddress) internal {... */\n              pop\n              pop\n              jump\t// out\n                /* \"hopium/etf/main/etf-vault-deployer.sol\":1707:1948  function _sendToken(address tokenAddress, address toAddress, uint256 amount) internal {... */\n            tag_58:\n                /* \"hopium/etf/main/etf-vault-deployer.sol\":1803:1815  IERC20 token */\n              0x00\n                /* \"hopium/etf/main/etf-vault-deployer.sol\":1825:1837  tokenAddress */\n              dup4\n                /* \"hopium/etf/main/etf-vault-deployer.sol\":1803:1838  IERC20 token = IERC20(tokenAddress) */\n              swap1\n              pop\n                /* \"hopium/etf/main/etf-vault-deployer.sol\":1865:1866  0 */\n              0x00\n                /* \"hopium/etf/main/etf-vault-deployer.sol\":1856:1862  amount */\n              dup3\n                /* \"hopium/etf/main/etf-vault-deployer.sol\":1856:1866  amount > 0 */\n              gt\n                /* \"hopium/etf/main/etf-vault-deployer.sol\":1848:1893  require(amount > 0, \"sendToken: zero amount\") */\n              tag_76\n              jumpi\n              mload(0x40)\n              0x08c379a000000000000000000000000000000000000000000000000000000000\n              dup2\n              mstore\n              0x04\n              add\n              tag_77\n              swap1\n              tag_78\n              jump\t// in\n            tag_77:\n              mload(0x40)\n              dup1\n              swap2\n              sub\n              swap1\n              revert\n            tag_76:\n                /* \"hopium/etf/main/etf-vault-deployer.sol\":1904:1941  token.safeTransfer(toAddress, amount) */\n              tag_79\n                /* \"hopium/etf/main/etf-vault-deployer.sol\":1923:1932  toAddress */\n              dup4\n                /* \"hopium/etf/main/etf-vault-deployer.sol\":1934:1940  amount */\n              dup4\n                /* \"hopium/etf/main/etf-vault-deployer.sol\":1904:1909  token */\n              dup4\n                /* \"hopium/etf/main/etf-vault-deployer.sol\":1904:1922  token.safeTransfer */\n              0xffffffffffffffffffffffffffffffffffffffff\n              and\n              tag_80\n              swap1\n                /* \"hopium/etf/main/etf-vault-deployer.sol\":1904:1941  token.safeTransfer(toAddress, amount) */\n              swap3\n              swap2\n              swap1\n              0xffffffff\n              and\n              jump\t// in\n            tag_79:\n                /* \"hopium/etf/main/etf-vault-deployer.sol\":1793:1948  {... */\n              pop\n                /* \"hopium/etf/main/etf-vault-deployer.sol\":1707:1948  function _sendToken(address tokenAddress, address toAddress, uint256 amount) internal {... */\n              pop\n              pop\n              pop\n              jump\t// out\n                /* \"hopium/common/interface/imDirectory.sol\":589:1050  function _setDirectory(address _directory) internal {... */\n            tag_71:\n                /* \"hopium/common/interface/imDirectory.sol\":681:682  0 */\n              0x00\n                /* \"hopium/common/interface/imDirectory.sol\":659:683  _directory != address(0) */\n              0xffffffffffffffffffffffffffffffffffffffff\n              and\n                /* \"hopium/common/interface/imDirectory.sol\":659:669  _directory */\n              dup2\n                /* \"hopium/common/interface/imDirectory.sol\":659:683  _directory != address(0) */\n              0xffffffffffffffffffffffffffffffffffffffff\n              and\n              sub\n                /* \"hopium/common/interface/imDirectory.sol\":651:720  require(_directory != address(0), \"Directory cannot be zero address\") */\n              tag_82\n              jumpi\n              mload(0x40)\n              0x08c379a000000000000000000000000000000000000000000000000000000000\n              dup2\n              mstore\n              0x04\n              add\n              tag_83\n              swap1\n              tag_84\n              jump\t// in\n            tag_83:\n              mload(0x40)\n              dup1\n              swap2\n              sub\n              swap1\n              revert\n            tag_82:\n                /* \"hopium/common/interface/imDirectory.sol\":763:764  0 */\n              0x00\n                /* \"hopium/common/interface/imDirectory.sol\":738:748  _directory */\n              dup2\n                /* \"hopium/common/interface/imDirectory.sol\":738:760  _directory.code.length */\n              0xffffffffffffffffffffffffffffffffffffffff\n              and\n              extcodesize\n                /* \"hopium/common/interface/imDirectory.sol\":738:764  _directory.code.length > 0 */\n              gt\n                /* \"hopium/common/interface/imDirectory.sol\":730:797  require(_directory.code.length > 0, \"Directory must be a contract\") */\n              tag_85\n              jumpi\n              mload(0x40)\n              0x08c379a000000000000000000000000000000000000000000000000000000000\n              dup2\n              mstore\n              0x04\n              add\n              tag_86\n              swap1\n              tag_87\n              jump\t// in\n            tag_86:\n              mload(0x40)\n              dup1\n              swap2\n              sub\n              swap1\n              revert\n            tag_85:\n                /* \"hopium/common/interface/imDirectory.sol\":861:871  _directory */\n              dup1\n                /* \"hopium/common/interface/imDirectory.sol\":850:878  IDirectory(_directory).owner */\n              0xffffffffffffffffffffffffffffffffffffffff\n              and\n              0x8da5cb5b\n                /* \"hopium/common/interface/imDirectory.sol\":850:880  IDirectory(_directory).owner() */\n              mload(0x40)\n              dup2\n              0xffffffff\n              and\n              0xe0\n              shl\n              dup2\n              mstore\n              0x04\n              add\n              0x20\n              mload(0x40)\n              dup1\n              dup4\n              sub\n              dup2\n              dup7\n              gas\n              staticcall\n              swap3\n              pop\n              pop\n              pop\n              dup1\n              iszero\n              tag_88\n              jumpi\n              pop\n              mload(0x40)\n              returndatasize\n              not(0x1f)\n              0x1f\n              dup3\n              add\n              and\n              dup3\n              add\n              dup1\n              0x40\n              mstore\n              pop\n              dup2\n              add\n              swap1\n              tag_89\n              swap2\n              swap1\n              tag_38\n              jump\t// in\n            tag_89:\n              0x01\n            tag_88:\n                /* \"hopium/common/interface/imDirectory.sol\":846:1044  try IDirectory(_directory).owner() returns (address) {... */\n              tag_90\n              jumpi\n                /* \"hopium/common/interface/imDirectory.sol\":979:1033  revert(\"Directory address does not implement owner()\") */\n              mload(0x40)\n              0x08c379a000000000000000000000000000000000000000000000000000000000\n              dup2\n              mstore\n              0x04\n              add\n              tag_94\n              swap1\n              tag_95\n              jump\t// in\n            tag_94:\n              mload(0x40)\n              dup1\n              swap2\n              sub\n              swap1\n              revert\n                /* \"hopium/common/interface/imDirectory.sol\":846:1044  try IDirectory(_directory).owner() returns (address) {... */\n            tag_90:\n                /* \"hopium/common/interface/imDirectory.sol\":936:946  _directory */\n              dup2\n                /* \"hopium/common/interface/imDirectory.sol\":913:922  Directory */\n              0x00\n              0x00\n                /* \"hopium/common/interface/imDirectory.sol\":913:947  Directory = IDirectory(_directory) */\n              0x0100\n              exp\n              dup2\n              sload\n              dup2\n              0xffffffffffffffffffffffffffffffffffffffff\n              mul\n              not\n              and\n              swap1\n              dup4\n              0xffffffffffffffffffffffffffffffffffffffff\n              and\n              mul\n              or\n              swap1\n              sstore\n              pop\n                /* \"hopium/common/interface/imDirectory.sol\":881:958  returns (address) {... */\n              pop\n                /* \"hopium/common/interface/imDirectory.sol\":589:1050  function _setDirectory(address _directory) internal {... */\n              pop\n              jump\t// out\n                /* \"hopium/etf/main/etf-vault-deployer.sol\":1954:2256  function _sendEthOrToken(address tokenAddress, address toAddress) internal {... */\n            tag_74:\n                /* \"hopium/etf/main/etf-vault-deployer.sol\":2066:2067  0 */\n              0x00\n                /* \"hopium/etf/main/etf-vault-deployer.sol\":2042:2068  tokenAddress == address(0) */\n              0xffffffffffffffffffffffffffffffffffffffff\n              and\n                /* \"hopium/etf/main/etf-vault-deployer.sol\":2042:2054  tokenAddress */\n              dup3\n                /* \"hopium/etf/main/etf-vault-deployer.sol\":2042:2068  tokenAddress == address(0) */\n              0xffffffffffffffffffffffffffffffffffffffff\n              and\n              sub\n                /* \"hopium/etf/main/etf-vault-deployer.sol\":2039:2250  if(tokenAddress == address(0)) {... */\n              tag_98\n              jumpi\n                /* \"hopium/etf/main/etf-vault-deployer.sol\":2084:2126  _sendEth(toAddress, address(this).balance) */\n              tag_99\n                /* \"hopium/etf/main/etf-vault-deployer.sol\":2093:2102  toAddress */\n              dup2\n                /* \"hopium/etf/main/etf-vault-deployer.sol\":2104:2125  address(this).balance */\n              selfbalance\n                /* \"hopium/etf/main/etf-vault-deployer.sol\":2084:2092  _sendEth */\n              tag_100\n                /* \"hopium/etf/main/etf-vault-deployer.sol\":2084:2126  _sendEth(toAddress, address(this).balance) */\n              jump\t// in\n            tag_99:\n                /* \"hopium/etf/main/etf-vault-deployer.sol\":2039:2250  if(tokenAddress == address(0)) {... */\n              jump(tag_101)\n            tag_98:\n                /* \"hopium/etf/main/etf-vault-deployer.sol\":2157:2239  _sendToken(tokenAddress, toAddress, IERC20(tokenAddress).balanceOf(address(this))) */\n              tag_102\n                /* \"hopium/etf/main/etf-vault-deployer.sol\":2168:2180  tokenAddress */\n              dup3\n                /* \"hopium/etf/main/etf-vault-deployer.sol\":2182:2191  toAddress */\n              dup3\n                /* \"hopium/etf/main/etf-vault-deployer.sol\":2200:2212  tokenAddress */\n              dup5\n                /* \"hopium/etf/main/etf-vault-deployer.sol\":2193:2223  IERC20(tokenAddress).balanceOf */\n              0xffffffffffffffffffffffffffffffffffffffff\n              and\n              0x70a08231\n                /* \"hopium/etf/main/etf-vault-deployer.sol\":2232:2236  this */\n              address\n                /* \"hopium/etf/main/etf-vault-deployer.sol\":2193:2238  IERC20(tokenAddress).balanceOf(address(this)) */\n              mload(0x40)\n              dup3\n              0xffffffff\n              and\n              0xe0\n              shl\n              dup2\n              mstore\n              0x04\n              add\n              tag_103\n              swap2\n              swap1\n              tag_18\n              jump\t// in\n            tag_103:\n              0x20\n              mload(0x40)\n              dup1\n              dup4\n              sub\n              dup2\n              dup7\n              gas\n              staticcall\n              iszero\n              dup1\n              iszero\n              tag_105\n              jumpi\n              returndatacopy(0x00, 0x00, returndatasize)\n              revert(0x00, returndatasize)\n            tag_105:\n              pop\n              pop\n              pop\n              pop\n              mload(0x40)\n              returndatasize\n              not(0x1f)\n              0x1f\n              dup3\n              add\n              and\n              dup3\n              add\n              dup1\n              0x40\n              mstore\n              pop\n              dup2\n              add\n              swap1\n              tag_106\n              swap2\n              swap1\n              tag_107\n              jump\t// in\n            tag_106:\n                /* \"hopium/etf/main/etf-vault-deployer.sol\":2157:2167  _sendToken */\n              tag_58\n                /* \"hopium/etf/main/etf-vault-deployer.sol\":2157:2239  _sendToken(tokenAddress, toAddress, IERC20(tokenAddress).balanceOf(address(this))) */\n              jump\t// in\n            tag_102:\n                /* \"hopium/etf/main/etf-vault-deployer.sol\":2039:2250  if(tokenAddress == address(0)) {... */\n            tag_101:\n                /* \"hopium/etf/main/etf-vault-deployer.sol\":1954:2256  function _sendEthOrToken(address tokenAddress, address toAddress) internal {... */\n              pop\n              pop\n              jump\t// out\n                /* \"hopium/etf/main/etf-vault-deployer.sol\":453:613  function safeTransfer(IERC20 token, address to, uint256 value) internal {... */\n            tag_80:\n                /* \"hopium/etf/main/etf-vault-deployer.sol\":535:606  _callOptionalReturn(token, abi.encodeCall(token.transfer, (to, value))) */\n              tag_109\n                /* \"hopium/etf/main/etf-vault-deployer.sol\":555:560  token */\n              dup4\n                /* \"hopium/etf/main/etf-vault-deployer.sol\":577:582  token */\n              dup5\n                /* \"hopium/etf/main/etf-vault-deployer.sol\":577:591  token.transfer */\n              0xffffffffffffffffffffffffffffffffffffffff\n              and\n              0xa9059cbb\n                /* \"hopium/etf/main/etf-vault-deployer.sol\":594:596  to */\n              dup6\n                /* \"hopium/etf/main/etf-vault-deployer.sol\":598:603  value */\n              dup6\n                /* \"hopium/etf/main/etf-vault-deployer.sol\":562:605  abi.encodeCall(token.transfer, (to, value)) */\n              add(0x24, mload(0x40))\n              tag_110\n              swap3\n              swap2\n              swap1\n              tag_111\n              jump\t// in\n            tag_110:\n              mload(0x40)\n              0x20\n              dup2\n              dup4\n              sub\n              sub\n              dup2\n              mstore\n              swap1\n              0x40\n              mstore\n              swap2\n              pop\n              0xe0\n              shl\n              0x20\n              dup3\n              add\n              dup1\n              mload\n              0xffffffffffffffffffffffffffffffffffffffffffffffffffffffff\n              dup4\n              dup2\n              dup4\n              and\n              or\n              dup4\n              mstore\n              pop\n              pop\n              pop\n              pop\n                /* \"hopium/etf/main/etf-vault-deployer.sol\":535:554  _callOptionalReturn */\n              tag_112\n                /* \"hopium/etf/main/etf-vault-deployer.sol\":535:606  _callOptionalReturn(token, abi.encodeCall(token.transfer, (to, value))) */\n              jump\t// in\n            tag_109:\n                /* \"hopium/etf/main/etf-vault-deployer.sol\":453:613  function safeTransfer(IERC20 token, address to, uint256 value) internal {... */\n              pop\n              pop\n              pop\n              jump\t// out\n                /* \"hopium/etf/main/etf-vault-deployer.sol\":1407:1701  function _sendEth(address to, uint256 amount) internal {... */\n            tag_100:\n                /* \"hopium/etf/main/etf-vault-deployer.sol\":1489:1490  0 */\n              0x00\n                /* \"hopium/etf/main/etf-vault-deployer.sol\":1480:1486  amount */\n              dup2\n                /* \"hopium/etf/main/etf-vault-deployer.sol\":1480:1490  amount > 0 */\n              gt\n                /* \"hopium/etf/main/etf-vault-deployer.sol\":1472:1515  require(amount > 0, \"sendEth: zero amount\") */\n              tag_114\n              jumpi\n              mload(0x40)\n              0x08c379a000000000000000000000000000000000000000000000000000000000\n              dup2\n              mstore\n              0x04\n              add\n              tag_115\n              swap1\n              tag_116\n              jump\t// in\n            tag_115:\n              mload(0x40)\n              dup1\n              swap2\n              sub\n              swap1\n              revert\n            tag_114:\n                /* \"hopium/etf/main/etf-vault-deployer.sol\":1558:1564  amount */\n              dup1\n                /* \"hopium/etf/main/etf-vault-deployer.sol\":1533:1554  address(this).balance */\n              selfbalance\n                /* \"hopium/etf/main/etf-vault-deployer.sol\":1533:1564  address(this).balance >= amount */\n              lt\n              iszero\n                /* \"hopium/etf/main/etf-vault-deployer.sol\":1525:1594  require(address(this).balance >= amount, \"sendEth: insufficient ETH\") */\n              tag_117\n              jumpi\n              mload(0x40)\n              0x08c379a000000000000000000000000000000000000000000000000000000000\n              dup2\n              mstore\n              0x04\n              add\n              tag_118\n              swap1\n              tag_119\n              jump\t// in\n            tag_118:\n              mload(0x40)\n              dup1\n              swap2\n              sub\n              swap1\n              revert\n            tag_117:\n                /* \"hopium/etf/main/etf-vault-deployer.sol\":1606:1613  bool ok */\n              0x00\n                /* \"hopium/etf/main/etf-vault-deployer.sol\":1627:1629  to */\n              dup3\n                /* \"hopium/etf/main/etf-vault-deployer.sol\":1619:1635  payable(to).call */\n              0xffffffffffffffffffffffffffffffffffffffff\n              and\n                /* \"hopium/etf/main/etf-vault-deployer.sol\":1643:1649  amount */\n              dup3\n                /* \"hopium/etf/main/etf-vault-deployer.sol\":1619:1654  payable(to).call{value: amount}(\"\") */\n              mload(0x40)\n              tag_120\n              swap1\n              tag_121\n              jump\t// in\n            tag_120:\n              0x00\n              mload(0x40)\n              dup1\n              dup4\n              sub\n              dup2\n              dup6\n              dup8\n              gas\n              call\n              swap3\n              pop\n              pop\n              pop\n              returndatasize\n              dup1\n              0x00\n              dup2\n              eq\n              tag_124\n              jumpi\n              mload(0x40)\n              swap2\n              pop\n              and(add(returndatasize, 0x3f), not(0x1f))\n              dup3\n              add\n              0x40\n              mstore\n              returndatasize\n              dup3\n              mstore\n              returndatasize\n              0x00\n              0x20\n              dup5\n              add\n              returndatacopy\n              jump(tag_123)\n            tag_124:\n              0x60\n              swap2\n              pop\n            tag_123:\n              pop\n                /* \"hopium/etf/main/etf-vault-deployer.sol\":1605:1654  (bool ok, ) = payable(to).call{value: amount}(\"\") */\n              pop\n              swap1\n              pop\n                /* \"hopium/etf/main/etf-vault-deployer.sol\":1672:1674  ok */\n              dup1\n                /* \"hopium/etf/main/etf-vault-deployer.sol\":1664:1694  require(ok, \"ETH send failed\") */\n              tag_125\n              jumpi\n              mload(0x40)\n              0x08c379a000000000000000000000000000000000000000000000000000000000\n              dup2\n              mstore\n              0x04\n              add\n              tag_126\n              swap1\n              tag_127\n              jump\t// in\n            tag_126:\n              mload(0x40)\n              dup1\n              swap2\n              sub\n              swap1\n              revert\n            tag_125:\n                /* \"hopium/etf/main/etf-vault-deployer.sol\":1462:1701  {... */\n              pop\n                /* \"hopium/etf/main/etf-vault-deployer.sol\":1407:1701  function _sendEth(address to, uint256 amount) internal {... */\n              pop\n              pop\n              jump\t// out\n                /* \"hopium/etf/main/etf-vault-deployer.sol\":619:1339  function _callOptionalReturn(IERC20 token, bytes memory data) private {... */\n            tag_112:\n                /* \"hopium/etf/main/etf-vault-deployer.sol\":699:717  uint256 returnSize */\n              0x00\n                /* \"hopium/etf/main/etf-vault-deployer.sol\":727:746  uint256 returnValue */\n              0x00\n                /* \"hopium/etf/main/etf-vault-deployer.sol\":865:869  0x20 */\n              0x20\n                /* \"hopium/etf/main/etf-vault-deployer.sol\":862:863  0 */\n              0x00\n                /* \"hopium/etf/main/etf-vault-deployer.sol\":855:859  data */\n              dup5\n                /* \"hopium/etf/main/etf-vault-deployer.sol\":849:860  mload(data) */\n              mload\n                /* \"hopium/etf/main/etf-vault-deployer.sol\":842:846  0x20 */\n              0x20\n                /* \"hopium/etf/main/etf-vault-deployer.sol\":836:840  data */\n              dup7\n                /* \"hopium/etf/main/etf-vault-deployer.sol\":832:847  add(data, 0x20) */\n              add\n                /* \"hopium/etf/main/etf-vault-deployer.sol\":829:830  0 */\n              0x00\n                /* \"hopium/etf/main/etf-vault-deployer.sol\":822:827  token */\n              dup9\n                /* \"hopium/etf/main/etf-vault-deployer.sol\":815:820  gas() */\n              gas\n                /* \"hopium/etf/main/etf-vault-deployer.sol\":810:870  call(gas(), token, 0, add(data, 0x20), mload(data), 0, 0x20) */\n              call\n                /* \"hopium/etf/main/etf-vault-deployer.sol\":922:929  success */\n              dup1\n                /* \"hopium/etf/main/etf-vault-deployer.sol\":912:1088  if iszero(success) {... */\n              tag_129\n              jumpi\n                /* \"hopium/etf/main/etf-vault-deployer.sol\":966:970  0x40 */\n              0x40\n                /* \"hopium/etf/main/etf-vault-deployer.sol\":960:971  mload(0x40) */\n              mload\n                /* \"hopium/etf/main/etf-vault-deployer.sol\":1011:1027  returndatasize() */\n              returndatasize\n                /* \"hopium/etf/main/etf-vault-deployer.sol\":1008:1009  0 */\n              0x00\n                /* \"hopium/etf/main/etf-vault-deployer.sol\":1003:1006  ptr */\n              dup3\n                /* \"hopium/etf/main/etf-vault-deployer.sol\":988:1028  returndatacopy(ptr, 0, returndatasize()) */\n              returndatacopy\n                /* \"hopium/etf/main/etf-vault-deployer.sol\":1057:1073  returndatasize() */\n              returndatasize\n                /* \"hopium/etf/main/etf-vault-deployer.sol\":1052:1055  ptr */\n              dup2\n                /* \"hopium/etf/main/etf-vault-deployer.sol\":1045:1074  revert(ptr, returndatasize()) */\n              revert\n                /* \"hopium/etf/main/etf-vault-deployer.sol\":912:1088  if iszero(success) {... */\n            tag_129:\n                /* \"hopium/etf/main/etf-vault-deployer.sol\":1115:1131  returndatasize() */\n              returndatasize\n                /* \"hopium/etf/main/etf-vault-deployer.sol\":1101:1131  returnSize := returndatasize() */\n              swap3\n              pop\n                /* \"hopium/etf/main/etf-vault-deployer.sol\":1165:1166  0 */\n              0x00\n                /* \"hopium/etf/main/etf-vault-deployer.sol\":1159:1167  mload(0) */\n              mload\n                /* \"hopium/etf/main/etf-vault-deployer.sol\":1144:1167  returnValue := mload(0) */\n              swap2\n              pop\n                /* \"hopium/etf/main/etf-vault-deployer.sol\":781:1177  {... */\n              pop\n                /* \"hopium/etf/main/etf-vault-deployer.sol\":1205:1206  0 */\n              0x00\n                /* \"hopium/etf/main/etf-vault-deployer.sol\":1191:1201  returnSize */\n              dup3\n                /* \"hopium/etf/main/etf-vault-deployer.sol\":1191:1206  returnSize == 0 */\n              eq\n                /* \"hopium/etf/main/etf-vault-deployer.sol\":1191:1259  returnSize == 0 ? address(token).code.length == 0 : returnValue != 1 */\n              tag_130\n              jumpi\n                /* \"hopium/etf/main/etf-vault-deployer.sol\":1258:1259  1 */\n              0x01\n                /* \"hopium/etf/main/etf-vault-deployer.sol\":1243:1254  returnValue */\n              dup2\n                /* \"hopium/etf/main/etf-vault-deployer.sol\":1243:1259  returnValue != 1 */\n              eq\n              iszero\n                /* \"hopium/etf/main/etf-vault-deployer.sol\":1191:1259  returnSize == 0 ? address(token).code.length == 0 : returnValue != 1 */\n              jump(tag_131)\n            tag_130:\n                /* \"hopium/etf/main/etf-vault-deployer.sol\":1239:1240  0 */\n              0x00\n                /* \"hopium/etf/main/etf-vault-deployer.sol\":1217:1222  token */\n              dup5\n                /* \"hopium/etf/main/etf-vault-deployer.sol\":1209:1235  address(token).code.length */\n              0xffffffffffffffffffffffffffffffffffffffff\n              and\n              extcodesize\n                /* \"hopium/etf/main/etf-vault-deployer.sol\":1209:1240  address(token).code.length == 0 */\n              eq\n                /* \"hopium/etf/main/etf-vault-deployer.sol\":1191:1259  returnSize == 0 ? address(token).code.length == 0 : returnValue != 1 */\n            tag_131:\n                /* \"hopium/etf/main/etf-vault-deployer.sol\":1187:1333  if (returnSize == 0 ? address(token).code.length == 0 : returnValue != 1) {... */\n              iszero\n              tag_132\n              jumpi\n                /* \"hopium/etf/main/etf-vault-deployer.sol\":1315:1320  token */\n              dup4\n                /* \"hopium/etf/main/etf-vault-deployer.sol\":1282:1322  SafeERC20FailedOperation(address(token)) */\n              mload(0x40)\n              0x5274afe700000000000000000000000000000000000000000000000000000000\n              dup2\n              mstore\n              0x04\n              add\n              tag_133\n              swap2\n              swap1\n              tag_18\n              jump\t// in\n            tag_133:\n              mload(0x40)\n              dup1\n              swap2\n              sub\n              swap1\n              revert\n                /* \"hopium/etf/main/etf-vault-deployer.sol\":1187:1333  if (returnSize == 0 ? address(token).code.length == 0 : returnValue != 1) {... */\n            tag_132:\n                /* \"hopium/etf/main/etf-vault-deployer.sol\":689:1339  {... */\n              pop\n              pop\n                /* \"hopium/etf/main/etf-vault-deployer.sol\":619:1339  function _callOptionalReturn(IERC20 token, bytes memory data) private {... */\n              pop\n              pop\n              jump\t// out\n                /* \"#utility.yul\":7:82   */\n            tag_134:\n                /* \"#utility.yul\":40:46   */\n              0x00\n                /* \"#utility.yul\":73:75   */\n              0x40\n                /* \"#utility.yul\":67:76   */\n              mload\n                /* \"#utility.yul\":57:76   */\n              swap1\n              pop\n                /* \"#utility.yul\":7:82   */\n              swap1\n              jump\t// out\n                /* \"#utility.yul\":88:205   */\n            tag_135:\n                /* \"#utility.yul\":197:198   */\n              0x00\n                /* \"#utility.yul\":194:195   */\n              0x00\n                /* \"#utility.yul\":187:199   */\n              revert\n                /* \"#utility.yul\":211:328   */\n            tag_136:\n                /* \"#utility.yul\":320:321   */\n              0x00\n                /* \"#utility.yul\":317:318   */\n              0x00\n                /* \"#utility.yul\":310:322   */\n              revert\n                /* \"#utility.yul\":334:460   */\n            tag_137:\n                /* \"#utility.yul\":371:378   */\n              0x00\n                /* \"#utility.yul\":411:453   */\n              0xffffffffffffffffffffffffffffffffffffffff\n                /* \"#utility.yul\":404:409   */\n              dup3\n                /* \"#utility.yul\":400:454   */\n              and\n                /* \"#utility.yul\":389:454   */\n              swap1\n              pop\n                /* \"#utility.yul\":334:460   */\n              swap2\n              swap1\n              pop\n              jump\t// out\n                /* \"#utility.yul\":466:562   */\n            tag_138:\n                /* \"#utility.yul\":503:510   */\n              0x00\n                /* \"#utility.yul\":532:556   */\n              tag_194\n                /* \"#utility.yul\":550:555   */\n              dup3\n                /* \"#utility.yul\":532:556   */\n              tag_137\n              jump\t// in\n            tag_194:\n                /* \"#utility.yul\":521:556   */\n              swap1\n              pop\n                /* \"#utility.yul\":466:562   */\n              swap2\n              swap1\n              pop\n              jump\t// out\n                /* \"#utility.yul\":568:690   */\n            tag_139:\n                /* \"#utility.yul\":641:665   */\n              tag_196\n                /* \"#utility.yul\":659:664   */\n              dup2\n                /* \"#utility.yul\":641:665   */\n              tag_138\n              jump\t// in\n            tag_196:\n                /* \"#utility.yul\":634:639   */\n              dup2\n                /* \"#utility.yul\":631:666   */\n              eq\n                /* \"#utility.yul\":621:684   */\n              tag_197\n              jumpi\n                /* \"#utility.yul\":680:681   */\n              0x00\n                /* \"#utility.yul\":677:678   */\n              0x00\n                /* \"#utility.yul\":670:682   */\n              revert\n                /* \"#utility.yul\":621:684   */\n            tag_197:\n                /* \"#utility.yul\":568:690   */\n              pop\n              jump\t// out\n                /* \"#utility.yul\":696:835   */\n            tag_140:\n                /* \"#utility.yul\":742:747   */\n              0x00\n                /* \"#utility.yul\":780:786   */\n              dup2\n                /* \"#utility.yul\":767:787   */\n              calldataload\n                /* \"#utility.yul\":758:787   */\n              swap1\n              pop\n                /* \"#utility.yul\":796:829   */\n              tag_199\n                /* \"#utility.yul\":823:828   */\n              dup2\n                /* \"#utility.yul\":796:829   */\n              tag_139\n              jump\t// in\n            tag_199:\n                /* \"#utility.yul\":696:835   */\n              swap3\n              swap2\n              pop\n              pop\n              jump\t// out\n                /* \"#utility.yul\":841:1315   */\n            tag_11:\n                /* \"#utility.yul\":909:915   */\n              0x00\n                /* \"#utility.yul\":917:923   */\n              0x00\n                /* \"#utility.yul\":966:968   */\n              0x40\n                /* \"#utility.yul\":954:963   */\n              dup4\n                /* \"#utility.yul\":945:952   */\n              dup6\n                /* \"#utility.yul\":941:964   */\n              sub\n                /* \"#utility.yul\":937:969   */\n              slt\n                /* \"#utility.yul\":934:1053   */\n              iszero\n              tag_201\n              jumpi\n                /* \"#utility.yul\":972:1051   */\n              tag_202\n              tag_135\n              jump\t// in\n            tag_202:\n                /* \"#utility.yul\":934:1053   */\n            tag_201:\n                /* \"#utility.yul\":1092:1093   */\n              0x00\n                /* \"#utility.yul\":1117:1170   */\n              tag_203\n                /* \"#utility.yul\":1162:1169   */\n              dup6\n                /* \"#utility.yul\":1153:1159   */\n              dup3\n                /* \"#utility.yul\":1142:1151   */\n              dup7\n                /* \"#utility.yul\":1138:1160   */\n              add\n                /* \"#utility.yul\":1117:1170   */\n              tag_140\n              jump\t// in\n            tag_203:\n                /* \"#utility.yul\":1107:1170   */\n              swap3\n              pop\n                /* \"#utility.yul\":1063:1180   */\n              pop\n                /* \"#utility.yul\":1219:1221   */\n              0x20\n                /* \"#utility.yul\":1245:1298   */\n              tag_204\n                /* \"#utility.yul\":1290:1297   */\n              dup6\n                /* \"#utility.yul\":1281:1287   */\n              dup3\n                /* \"#utility.yul\":1270:1279   */\n              dup7\n                /* \"#utility.yul\":1266:1288   */\n              add\n                /* \"#utility.yul\":1245:1298   */\n              tag_140\n              jump\t// in\n            tag_204:\n                /* \"#utility.yul\":1235:1298   */\n              swap2\n              pop\n                /* \"#utility.yul\":1190:1308   */\n              pop\n                /* \"#utility.yul\":841:1315   */\n              swap3\n              pop\n              swap3\n              swap1\n              pop\n              jump\t// out\n                /* \"#utility.yul\":1321:1438   */\n            tag_141:\n                /* \"#utility.yul\":1430:1431   */\n              0x00\n                /* \"#utility.yul\":1427:1428   */\n              0x00\n                /* \"#utility.yul\":1420:1432   */\n              revert\n                /* \"#utility.yul\":1444:1561   */\n            tag_142:\n                /* \"#utility.yul\":1553:1554   */\n              0x00\n                /* \"#utility.yul\":1550:1551   */\n              0x00\n                /* \"#utility.yul\":1543:1555   */\n              revert\n                /* \"#utility.yul\":1567:1669   */\n            tag_143:\n                /* \"#utility.yul\":1608:1614   */\n              0x00\n                /* \"#utility.yul\":1659:1661   */\n              0x1f\n                /* \"#utility.yul\":1655:1662   */\n              not\n                /* \"#utility.yul\":1650:1652   */\n              0x1f\n                /* \"#utility.yul\":1643:1648   */\n              dup4\n                /* \"#utility.yul\":1639:1653   */\n              add\n                /* \"#utility.yul\":1635:1663   */\n              and\n                /* \"#utility.yul\":1625:1663   */\n              swap1\n              pop\n                /* \"#utility.yul\":1567:1669   */\n              swap2\n              swap1\n              pop\n              jump\t// out\n                /* \"#utility.yul\":1675:1855   */\n            tag_144:\n                /* \"#utility.yul\":1723:1800   */\n              0x4e487b7100000000000000000000000000000000000000000000000000000000\n                /* \"#utility.yul\":1720:1721   */\n              0x00\n                /* \"#utility.yul\":1713:1801   */\n              mstore\n                /* \"#utility.yul\":1820:1824   */\n              0x41\n                /* \"#utility.yul\":1817:1818   */\n              0x04\n                /* \"#utility.yul\":1810:1825   */\n              mstore\n                /* \"#utility.yul\":1844:1848   */\n              0x24\n                /* \"#utility.yul\":1841:1842   */\n              0x00\n                /* \"#utility.yul\":1834:1849   */\n              revert\n                /* \"#utility.yul\":1861:2142   */\n            tag_145:\n                /* \"#utility.yul\":1944:1971   */\n              tag_210\n                /* \"#utility.yul\":1966:1970   */\n              dup3\n                /* \"#utility.yul\":1944:1971   */\n              tag_143\n              jump\t// in\n            tag_210:\n                /* \"#utility.yul\":1936:1942   */\n              dup2\n                /* \"#utility.yul\":1932:1972   */\n              add\n                /* \"#utility.yul\":2074:2080   */\n              dup2\n                /* \"#utility.yul\":2062:2072   */\n              dup2\n                /* \"#utility.yul\":2059:2081   */\n              lt\n                /* \"#utility.yul\":2038:2056   */\n              0xffffffffffffffff\n                /* \"#utility.yul\":2026:2036   */\n              dup3\n                /* \"#utility.yul\":2023:2057   */\n              gt\n                /* \"#utility.yul\":2020:2082   */\n              or\n                /* \"#utility.yul\":2017:2105   */\n              iszero\n              tag_211\n              jumpi\n                /* \"#utility.yul\":2085:2103   */\n              tag_212\n              tag_144\n              jump\t// in\n            tag_212:\n                /* \"#utility.yul\":2017:2105   */\n            tag_211:\n                /* \"#utility.yul\":2125:2135   */\n              dup1\n                /* \"#utility.yul\":2121:2123   */\n              0x40\n                /* \"#utility.yul\":2114:2136   */\n              mstore\n                /* \"#utility.yul\":1904:2142   */\n              pop\n                /* \"#utility.yul\":1861:2142   */\n              pop\n              pop\n              jump\t// out\n                /* \"#utility.yul\":2148:2277   */\n            tag_146:\n                /* \"#utility.yul\":2182:2188   */\n              0x00\n                /* \"#utility.yul\":2209:2229   */\n              tag_214\n              tag_134\n              jump\t// in\n            tag_214:\n                /* \"#utility.yul\":2199:2229   */\n              swap1\n              pop\n                /* \"#utility.yul\":2238:2271   */\n              tag_215\n                /* \"#utility.yul\":2266:2270   */\n              dup3\n                /* \"#utility.yul\":2258:2264   */\n              dup3\n                /* \"#utility.yul\":2238:2271   */\n              tag_145\n              jump\t// in\n            tag_215:\n                /* \"#utility.yul\":2148:2277   */\n              swap2\n              swap1\n              pop\n              jump\t// out\n                /* \"#utility.yul\":2283:2591   */\n            tag_147:\n                /* \"#utility.yul\":2345:2349   */\n              0x00\n                /* \"#utility.yul\":2435:2453   */\n              0xffffffffffffffff\n                /* \"#utility.yul\":2427:2433   */\n              dup3\n                /* \"#utility.yul\":2424:2454   */\n              gt\n                /* \"#utility.yul\":2421:2477   */\n              iszero\n              tag_217\n              jumpi\n                /* \"#utility.yul\":2457:2475   */\n              tag_218\n              tag_144\n              jump\t// in\n            tag_218:\n                /* \"#utility.yul\":2421:2477   */\n            tag_217:\n                /* \"#utility.yul\":2495:2524   */\n              tag_219\n                /* \"#utility.yul\":2517:2523   */\n              dup3\n                /* \"#utility.yul\":2495:2524   */\n              tag_143\n              jump\t// in\n            tag_219:\n                /* \"#utility.yul\":2487:2524   */\n              swap1\n              pop\n                /* \"#utility.yul\":2579:2583   */\n              0x20\n                /* \"#utility.yul\":2573:2577   */\n              dup2\n                /* \"#utility.yul\":2569:2584   */\n              add\n                /* \"#utility.yul\":2561:2584   */\n              swap1\n              pop\n                /* \"#utility.yul\":2283:2591   */\n              swap2\n              swap1\n              pop\n              jump\t// out\n                /* \"#utility.yul\":2597:2745   */\n            tag_148:\n                /* \"#utility.yul\":2695:2701   */\n              dup3\n                /* \"#utility.yul\":2690:2693   */\n              dup2\n                /* \"#utility.yul\":2685:2688   */\n              dup4\n                /* \"#utility.yul\":2672:2702   */\n              calldatacopy\n                /* \"#utility.yul\":2736:2737   */\n              0x00\n                /* \"#utility.yul\":2727:2733   */\n              dup4\n                /* \"#utility.yul\":2722:2725   */\n              dup4\n                /* \"#utility.yul\":2718:2734   */\n              add\n                /* \"#utility.yul\":2711:2738   */\n              mstore\n                /* \"#utility.yul\":2597:2745   */\n              pop\n              pop\n              pop\n              jump\t// out\n                /* \"#utility.yul\":2751:3176   */\n            tag_149:\n                /* \"#utility.yul\":2829:2834   */\n              0x00\n                /* \"#utility.yul\":2854:2920   */\n              tag_222\n                /* \"#utility.yul\":2870:2919   */\n              tag_223\n                /* \"#utility.yul\":2912:2918   */\n              dup5\n                /* \"#utility.yul\":2870:2919   */\n              tag_147\n              jump\t// in\n            tag_223:\n                /* \"#utility.yul\":2854:2920   */\n              tag_146\n              jump\t// in\n            tag_222:\n                /* \"#utility.yul\":2845:2920   */\n              swap1\n              pop\n                /* \"#utility.yul\":2943:2949   */\n              dup3\n                /* \"#utility.yul\":2936:2941   */\n              dup2\n                /* \"#utility.yul\":2929:2950   */\n              mstore\n                /* \"#utility.yul\":2981:2985   */\n              0x20\n                /* \"#utility.yul\":2974:2979   */\n              dup2\n                /* \"#utility.yul\":2970:2986   */\n              add\n                /* \"#utility.yul\":3019:3022   */\n              dup5\n                /* \"#utility.yul\":3010:3016   */\n              dup5\n                /* \"#utility.yul\":3005:3008   */\n              dup5\n                /* \"#utility.yul\":3001:3017   */\n              add\n                /* \"#utility.yul\":2998:3023   */\n              gt\n                /* \"#utility.yul\":2995:3107   */\n              iszero\n              tag_224\n              jumpi\n                /* \"#utility.yul\":3026:3105   */\n              tag_225\n              tag_142\n              jump\t// in\n            tag_225:\n                /* \"#utility.yul\":2995:3107   */\n            tag_224:\n                /* \"#utility.yul\":3116:3170   */\n              tag_226\n                /* \"#utility.yul\":3163:3169   */\n              dup5\n                /* \"#utility.yul\":3158:3161   */\n              dup3\n                /* \"#utility.yul\":3153:3156   */\n              dup6\n                /* \"#utility.yul\":3116:3170   */\n              tag_148\n              jump\t// in\n            tag_226:\n                /* \"#utility.yul\":2835:3176   */\n              pop\n                /* \"#utility.yul\":2751:3176   */\n              swap4\n              swap3\n              pop\n              pop\n              pop\n              jump\t// out\n                /* \"#utility.yul\":3196:3536   */\n            tag_150:\n                /* \"#utility.yul\":3252:3257   */\n              0x00\n                /* \"#utility.yul\":3301:3304   */\n              dup3\n                /* \"#utility.yul\":3294:3298   */\n              0x1f\n                /* \"#utility.yul\":3286:3292   */\n              dup4\n                /* \"#utility.yul\":3282:3299   */\n              add\n                /* \"#utility.yul\":3278:3305   */\n              slt\n                /* \"#utility.yul\":3268:3390   */\n              tag_228\n              jumpi\n                /* \"#utility.yul\":3309:3388   */\n              tag_229\n              tag_141\n              jump\t// in\n            tag_229:\n                /* \"#utility.yul\":3268:3390   */\n            tag_228:\n                /* \"#utility.yul\":3426:3432   */\n              dup2\n                /* \"#utility.yul\":3413:3433   */\n              calldataload\n                /* \"#utility.yul\":3451:3530   */\n              tag_230\n                /* \"#utility.yul\":3526:3529   */\n              dup5\n                /* \"#utility.yul\":3518:3524   */\n              dup3\n                /* \"#utility.yul\":3511:3515   */\n              0x20\n                /* \"#utility.yul\":3503:3509   */\n              dup7\n                /* \"#utility.yul\":3499:3516   */\n              add\n                /* \"#utility.yul\":3451:3530   */\n              tag_149\n              jump\t// in\n            tag_230:\n                /* \"#utility.yul\":3442:3530   */\n              swap2\n              pop\n                /* \"#utility.yul\":3258:3536   */\n              pop\n                /* \"#utility.yul\":3196:3536   */\n              swap3\n              swap2\n              pop\n              pop\n              jump\t// out\n                /* \"#utility.yul\":3542:4051   */\n            tag_15:\n                /* \"#utility.yul\":3611:3617   */\n              0x00\n                /* \"#utility.yul\":3660:3662   */\n              0x20\n                /* \"#utility.yul\":3648:3657   */\n              dup3\n                /* \"#utility.yul\":3639:3646   */\n              dup5\n                /* \"#utility.yul\":3635:3658   */\n              sub\n                /* \"#utility.yul\":3631:3663   */\n              slt\n                /* \"#utility.yul\":3628:3747   */\n              iszero\n              tag_232\n              jumpi\n                /* \"#utility.yul\":3666:3745   */\n              tag_233\n              tag_135\n              jump\t// in\n            tag_233:\n                /* \"#utility.yul\":3628:3747   */\n            tag_232:\n                /* \"#utility.yul\":3814:3815   */\n              0x00\n                /* \"#utility.yul\":3803:3812   */\n              dup3\n                /* \"#utility.yul\":3799:3816   */\n              add\n                /* \"#utility.yul\":3786:3817   */\n              calldataload\n                /* \"#utility.yul\":3844:3862   */\n              0xffffffffffffffff\n                /* \"#utility.yul\":3836:3842   */\n              dup2\n                /* \"#utility.yul\":3833:3863   */\n              gt\n                /* \"#utility.yul\":3830:3947   */\n              iszero\n              tag_234\n              jumpi\n                /* \"#utility.yul\":3866:3945   */\n              tag_235\n              tag_136\n              jump\t// in\n            tag_235:\n                /* \"#utility.yul\":3830:3947   */\n            tag_234:\n                /* \"#utility.yul\":3971:4034   */\n              tag_236\n                /* \"#utility.yul\":4026:4033   */\n              dup5\n                /* \"#utility.yul\":4017:4023   */\n              dup3\n                /* \"#utility.yul\":4006:4015   */\n              dup6\n                /* \"#utility.yul\":4002:4024   */\n              add\n                /* \"#utility.yul\":3971:4034   */\n              tag_150\n              jump\t// in\n            tag_236:\n                /* \"#utility.yul\":3961:4034   */\n              swap2\n              pop\n                /* \"#utility.yul\":3757:4044   */\n              pop\n                /* \"#utility.yul\":3542:4051   */\n              swap3\n              swap2\n              pop\n              pop\n              jump\t// out\n                /* \"#utility.yul\":4057:4175   */\n            tag_151:\n                /* \"#utility.yul\":4144:4168   */\n              tag_238\n                /* \"#utility.yul\":4162:4167   */\n              dup2\n                /* \"#utility.yul\":4144:4168   */\n              tag_138\n              jump\t// in\n            tag_238:\n                /* \"#utility.yul\":4139:4142   */\n              dup3\n                /* \"#utility.yul\":4132:4169   */\n              mstore\n                /* \"#utility.yul\":4057:4175   */\n              pop\n              pop\n              jump\t// out\n                /* \"#utility.yul\":4181:4403   */\n            tag_18:\n                /* \"#utility.yul\":4274:4278   */\n              0x00\n                /* \"#utility.yul\":4312:4314   */\n              0x20\n                /* \"#utility.yul\":4301:4310   */\n              dup3\n                /* \"#utility.yul\":4297:4315   */\n              add\n                /* \"#utility.yul\":4289:4315   */\n              swap1\n              pop\n                /* \"#utility.yul\":4325:4396   */\n              tag_240\n                /* \"#utility.yul\":4393:4394   */\n              0x00\n                /* \"#utility.yul\":4382:4391   */\n              dup4\n                /* \"#utility.yul\":4378:4395   */\n              add\n                /* \"#utility.yul\":4369:4375   */\n              dup5\n                /* \"#utility.yul\":4325:4396   */\n              tag_151\n              jump\t// in\n            tag_240:\n                /* \"#utility.yul\":4181:4403   */\n              swap3\n              swap2\n              pop\n              pop\n              jump\t// out\n                /* \"#utility.yul\":4409:4486   */\n            tag_152:\n                /* \"#utility.yul\":4446:4453   */\n              0x00\n                /* \"#utility.yul\":4475:4480   */\n              dup2\n                /* \"#utility.yul\":4464:4480   */\n              swap1\n              pop\n                /* \"#utility.yul\":4409:4486   */\n              swap2\n              swap1\n              pop\n              jump\t// out\n                /* \"#utility.yul\":4492:4614   */\n            tag_153:\n                /* \"#utility.yul\":4565:4589   */\n              tag_243\n                /* \"#utility.yul\":4583:4588   */\n              dup2\n                /* \"#utility.yul\":4565:4589   */\n              tag_152\n              jump\t// in\n            tag_243:\n                /* \"#utility.yul\":4558:4563   */\n              dup2\n                /* \"#utility.yul\":4555:4590   */\n              eq\n                /* \"#utility.yul\":4545:4608   */\n              tag_244\n              jumpi\n                /* \"#utility.yul\":4604:4605   */\n              0x00\n                /* \"#utility.yul\":4601:4602   */\n              0x00\n                /* \"#utility.yul\":4594:4606   */\n              revert\n                /* \"#utility.yul\":4545:4608   */\n            tag_244:\n                /* \"#utility.yul\":4492:4614   */\n              pop\n              jump\t// out\n                /* \"#utility.yul\":4620:4759   */\n            tag_154:\n                /* \"#utility.yul\":4666:4671   */\n              0x00\n                /* \"#utility.yul\":4704:4710   */\n              dup2\n                /* \"#utility.yul\":4691:4711   */\n              calldataload\n                /* \"#utility.yul\":4682:4711   */\n              swap1\n              pop\n                /* \"#utility.yul\":4720:4753   */\n              tag_246\n                /* \"#utility.yul\":4747:4752   */\n              dup2\n                /* \"#utility.yul\":4720:4753   */\n              tag_153\n              jump\t// in\n            tag_246:\n                /* \"#utility.yul\":4620:4759   */\n              swap3\n              swap2\n              pop\n              pop\n              jump\t// out\n                /* \"#utility.yul\":4765:5384   */\n            tag_21:\n                /* \"#utility.yul\":4842:4848   */\n              0x00\n                /* \"#utility.yul\":4850:4856   */\n              0x00\n                /* \"#utility.yul\":4858:4864   */\n              0x00\n                /* \"#utility.yul\":4907:4909   */\n              0x60\n                /* \"#utility.yul\":4895:4904   */\n              dup5\n                /* \"#utility.yul\":4886:4893   */\n              dup7\n                /* \"#utility.yul\":4882:4905   */\n              sub\n                /* \"#utility.yul\":4878:4910   */\n              slt\n                /* \"#utility.yul\":4875:4994   */\n              iszero\n              tag_248\n              jumpi\n                /* \"#utility.yul\":4913:4992   */\n              tag_249\n              tag_135\n              jump\t// in\n            tag_249:\n                /* \"#utility.yul\":4875:4994   */\n            tag_248:\n                /* \"#utility.yul\":5033:5034   */\n              0x00\n                /* \"#utility.yul\":5058:5111   */\n              tag_250\n                /* \"#utility.yul\":5103:5110   */\n              dup7\n                /* \"#utility.yul\":5094:5100   */\n              dup3\n                /* \"#utility.yul\":5083:5092   */\n              dup8\n                /* \"#utility.yul\":5079:5101   */\n              add\n                /* \"#utility.yul\":5058:5111   */\n              tag_140\n              jump\t// in\n            tag_250:\n                /* \"#utility.yul\":5048:5111   */\n              swap4\n              pop\n                /* \"#utility.yul\":5004:5121   */\n              pop\n                /* \"#utility.yul\":5160:5162   */\n              0x20\n                /* \"#utility.yul\":5186:5239   */\n              tag_251\n                /* \"#utility.yul\":5231:5238   */\n              dup7\n                /* \"#utility.yul\":5222:5228   */\n              dup3\n                /* \"#utility.yul\":5211:5220   */\n              dup8\n                /* \"#utility.yul\":5207:5229   */\n              add\n                /* \"#utility.yul\":5186:5239   */\n              tag_154\n              jump\t// in\n            tag_251:\n                /* \"#utility.yul\":5176:5239   */\n              swap3\n              pop\n                /* \"#utility.yul\":5131:5249   */\n              pop\n                /* \"#utility.yul\":5288:5290   */\n              0x40\n                /* \"#utility.yul\":5314:5367   */\n              tag_252\n                /* \"#utility.yul\":5359:5366   */\n              dup7\n                /* \"#utility.yul\":5350:5356   */\n              dup3\n                /* \"#utility.yul\":5339:5348   */\n              dup8\n                /* \"#utility.yul\":5335:5357   */\n              add\n                /* \"#utility.yul\":5314:5367   */\n              tag_140\n              jump\t// in\n            tag_252:\n                /* \"#utility.yul\":5304:5367   */\n              swap2\n              pop\n                /* \"#utility.yul\":5259:5377   */\n              pop\n                /* \"#utility.yul\":4765:5384   */\n              swap3\n              pop\n              swap3\n              pop\n              swap3\n              jump\t// out\n                /* \"#utility.yul\":5390:5450   */\n            tag_155:\n                /* \"#utility.yul\":5418:5421   */\n              0x00\n                /* \"#utility.yul\":5439:5444   */\n              dup2\n                /* \"#utility.yul\":5432:5444   */\n              swap1\n              pop\n                /* \"#utility.yul\":5390:5450   */\n              swap2\n              swap1\n              pop\n              jump\t// out\n                /* \"#utility.yul\":5456:5598   */\n            tag_156:\n                /* \"#utility.yul\":5506:5515   */\n              0x00\n                /* \"#utility.yul\":5539:5592   */\n              tag_255\n                /* \"#utility.yul\":5557:5591   */\n              tag_256\n                /* \"#utility.yul\":5566:5590   */\n              tag_257\n                /* \"#utility.yul\":5584:5589   */\n              dup5\n                /* \"#utility.yul\":5566:5590   */\n              tag_137\n              jump\t// in\n            tag_257:\n                /* \"#utility.yul\":5557:5591   */\n              tag_155\n              jump\t// in\n            tag_256:\n                /* \"#utility.yul\":5539:5592   */\n              tag_137\n              jump\t// in\n            tag_255:\n                /* \"#utility.yul\":5526:5592   */\n              swap1\n              pop\n                /* \"#utility.yul\":5456:5598   */\n              swap2\n              swap1\n              pop\n              jump\t// out\n                /* \"#utility.yul\":5604:5730   */\n            tag_157:\n                /* \"#utility.yul\":5654:5663   */\n              0x00\n                /* \"#utility.yul\":5687:5724   */\n              tag_259\n                /* \"#utility.yul\":5718:5723   */\n              dup3\n                /* \"#utility.yul\":5687:5724   */\n              tag_156\n              jump\t// in\n            tag_259:\n                /* \"#utility.yul\":5674:5724   */\n              swap1\n              pop\n                /* \"#utility.yul\":5604:5730   */\n              swap2\n              swap1\n              pop\n              jump\t// out\n                /* \"#utility.yul\":5736:5879   */\n            tag_158:\n                /* \"#utility.yul\":5803:5812   */\n              0x00\n                /* \"#utility.yul\":5836:5873   */\n              tag_261\n                /* \"#utility.yul\":5867:5872   */\n              dup3\n                /* \"#utility.yul\":5836:5873   */\n              tag_157\n              jump\t// in\n            tag_261:\n                /* \"#utility.yul\":5823:5873   */\n              swap1\n              pop\n                /* \"#utility.yul\":5736:5879   */\n              swap2\n              swap1\n              pop\n              jump\t// out\n                /* \"#utility.yul\":5885:6050   */\n            tag_159:\n                /* \"#utility.yul\":5989:6043   */\n              tag_263\n                /* \"#utility.yul\":6037:6042   */\n              dup2\n                /* \"#utility.yul\":5989:6043   */\n              tag_158\n              jump\t// in\n            tag_263:\n                /* \"#utility.yul\":5984:5987   */\n              dup3\n                /* \"#utility.yul\":5977:6044   */\n              mstore\n                /* \"#utility.yul\":5885:6050   */\n              pop\n              pop\n              jump\t// out\n                /* \"#utility.yul\":6056:6312   */\n            tag_26:\n                /* \"#utility.yul\":6166:6170   */\n              0x00\n                /* \"#utility.yul\":6204:6206   */\n              0x20\n                /* \"#utility.yul\":6193:6202   */\n              dup3\n                /* \"#utility.yul\":6189:6207   */\n              add\n                /* \"#utility.yul\":6181:6207   */\n              swap1\n              pop\n                /* \"#utility.yul\":6217:6305   */\n              tag_265\n                /* \"#utility.yul\":6302:6303   */\n              0x00\n                /* \"#utility.yul\":6291:6300   */\n              dup4\n                /* \"#utility.yul\":6287:6304   */\n              add\n                /* \"#utility.yul\":6278:6284   */\n              dup5\n                /* \"#utility.yul\":6217:6305   */\n              tag_159\n              jump\t// in\n            tag_265:\n                /* \"#utility.yul\":6056:6312   */\n              swap3\n              swap2\n              pop\n              pop\n              jump\t// out\n                /* \"#utility.yul\":6318:6647   */\n            tag_32:\n                /* \"#utility.yul\":6377:6383   */\n              0x00\n                /* \"#utility.yul\":6426:6428   */\n              0x20\n                /* \"#utility.yul\":6414:6423   */\n              dup3\n                /* \"#utility.yul\":6405:6412   */\n              dup5\n                /* \"#utility.yul\":6401:6424   */\n              sub\n                /* \"#utility.yul\":6397:6429   */\n              slt\n                /* \"#utility.yul\":6394:6513   */\n              iszero\n              tag_267\n              jumpi\n                /* \"#utility.yul\":6432:6511   */\n              tag_268\n              tag_135\n              jump\t// in\n            tag_268:\n                /* \"#utility.yul\":6394:6513   */\n            tag_267:\n                /* \"#utility.yul\":6552:6553   */\n              0x00\n                /* \"#utility.yul\":6577:6630   */\n              tag_269\n                /* \"#utility.yul\":6622:6629   */\n              dup5\n                /* \"#utility.yul\":6613:6619   */\n              dup3\n                /* \"#utility.yul\":6602:6611   */\n              dup6\n                /* \"#utility.yul\":6598:6620   */\n              add\n                /* \"#utility.yul\":6577:6630   */\n              tag_140\n              jump\t// in\n            tag_269:\n                /* \"#utility.yul\":6567:6630   */\n              swap2\n              pop\n                /* \"#utility.yul\":6523:6640   */\n              pop\n                /* \"#utility.yul\":6318:6647   */\n              swap3\n              swap2\n              pop\n              pop\n              jump\t// out\n                /* \"#utility.yul\":6653:6796   */\n            tag_160:\n                /* \"#utility.yul\":6710:6715   */\n              0x00\n                /* \"#utility.yul\":6741:6747   */\n              dup2\n                /* \"#utility.yul\":6735:6748   */\n              mload\n                /* \"#utility.yul\":6726:6748   */\n              swap1\n              pop\n                /* \"#utility.yul\":6757:6790   */\n              tag_271\n                /* \"#utility.yul\":6784:6789   */\n              dup2\n                /* \"#utility.yul\":6757:6790   */\n              tag_139\n              jump\t// in\n            tag_271:\n                /* \"#utility.yul\":6653:6796   */\n              swap3\n              swap2\n              pop\n              pop\n              jump\t// out\n                /* \"#utility.yul\":6802:7153   */\n            tag_38:\n                /* \"#utility.yul\":6872:6878   */\n              0x00\n                /* \"#utility.yul\":6921:6923   */\n              0x20\n                /* \"#utility.yul\":6909:6918   */\n              dup3\n                /* \"#utility.yul\":6900:6907   */\n              dup5\n                /* \"#utility.yul\":6896:6919   */\n              sub\n                /* \"#utility.yul\":6892:6924   */\n              slt\n                /* \"#utility.yul\":6889:7008   */\n              iszero\n              tag_273\n              jumpi\n                /* \"#utility.yul\":6927:7006   */\n              tag_274\n              tag_135\n              jump\t// in\n            tag_274:\n                /* \"#utility.yul\":6889:7008   */\n            tag_273:\n                /* \"#utility.yul\":7047:7048   */\n              0x00\n                /* \"#utility.yul\":7072:7136   */\n              tag_275\n                /* \"#utility.yul\":7128:7135   */\n              dup5\n                /* \"#utility.yul\":7119:7125   */\n              dup3\n                /* \"#utility.yul\":7108:7117   */\n              dup6\n                /* \"#utility.yul\":7104:7126   */\n              add\n                /* \"#utility.yul\":7072:7136   */\n              tag_160\n              jump\t// in\n            tag_275:\n                /* \"#utility.yul\":7062:7136   */\n              swap2\n              pop\n                /* \"#utility.yul\":7018:7146   */\n              pop\n                /* \"#utility.yul\":6802:7153   */\n              swap3\n              swap2\n              pop\n              pop\n              jump\t// out\n                /* \"#utility.yul\":7159:7328   */\n            tag_161:\n                /* \"#utility.yul\":7243:7254   */\n              0x00\n                /* \"#utility.yul\":7277:7283   */\n              dup3\n                /* \"#utility.yul\":7272:7275   */\n              dup3\n                /* \"#utility.yul\":7265:7284   */\n              mstore\n                /* \"#utility.yul\":7317:7321   */\n              0x20\n                /* \"#utility.yul\":7312:7315   */\n              dup3\n                /* \"#utility.yul\":7308:7322   */\n              add\n                /* \"#utility.yul\":7293:7322   */\n              swap1\n              pop\n                /* \"#utility.yul\":7159:7328   */\n              swap3\n              swap2\n              pop\n              pop\n              jump\t// out\n                /* \"#utility.yul\":7334:7507   */\n            tag_162:\n                /* \"#utility.yul\":7474:7499   */\n              0x43616c6c6572206973206e6f7420746865206f776e6572000000000000000000\n                /* \"#utility.yul\":7470:7471   */\n              0x00\n                /* \"#utility.yul\":7462:7468   */\n              dup3\n                /* \"#utility.yul\":7458:7472   */\n              add\n                /* \"#utility.yul\":7451:7500   */\n              mstore\n                /* \"#utility.yul\":7334:7507   */\n              pop\n              jump\t// out\n                /* \"#utility.yul\":7513:7879   */\n            tag_163:\n                /* \"#utility.yul\":7655:7658   */\n              0x00\n                /* \"#utility.yul\":7676:7743   */\n              tag_279\n                /* \"#utility.yul\":7740:7742   */\n              0x17\n                /* \"#utility.yul\":7735:7738   */\n              dup4\n                /* \"#utility.yul\":7676:7743   */\n              tag_161\n              jump\t// in\n            tag_279:\n                /* \"#utility.yul\":7669:7743   */\n              swap2\n              pop\n                /* \"#utility.yul\":7752:7845   */\n              tag_280\n                /* \"#utility.yul\":7841:7844   */\n              dup3\n                /* \"#utility.yul\":7752:7845   */\n              tag_162\n              jump\t// in\n            tag_280:\n                /* \"#utility.yul\":7870:7872   */\n              0x20\n                /* \"#utility.yul\":7865:7868   */\n              dup3\n                /* \"#utility.yul\":7861:7873   */\n              add\n                /* \"#utility.yul\":7854:7873   */\n              swap1\n              pop\n                /* \"#utility.yul\":7513:7879   */\n              swap2\n              swap1\n              pop\n              jump\t// out\n                /* \"#utility.yul\":7885:8304   */\n            tag_41:\n                /* \"#utility.yul\":8051:8055   */\n              0x00\n                /* \"#utility.yul\":8089:8091   */\n              0x20\n                /* \"#utility.yul\":8078:8087   */\n              dup3\n                /* \"#utility.yul\":8074:8092   */\n              add\n                /* \"#utility.yul\":8066:8092   */\n              swap1\n              pop\n                /* \"#utility.yul\":8138:8147   */\n              dup2\n                /* \"#utility.yul\":8132:8136   */\n              dup2\n                /* \"#utility.yul\":8128:8148   */\n              sub\n                /* \"#utility.yul\":8124:8125   */\n              0x00\n                /* \"#utility.yul\":8113:8122   */\n              dup4\n                /* \"#utility.yul\":8109:8126   */\n              add\n                /* \"#utility.yul\":8102:8149   */\n              mstore\n                /* \"#utility.yul\":8166:8297   */\n              tag_282\n                /* \"#utility.yul\":8292:8296   */\n              dup2\n                /* \"#utility.yul\":8166:8297   */\n              tag_163\n              jump\t// in\n            tag_282:\n                /* \"#utility.yul\":8158:8297   */\n              swap1\n              pop\n                /* \"#utility.yul\":7885:8304   */\n              swap2\n              swap1\n              pop\n              jump\t// out\n                /* \"#utility.yul\":8310:8409   */\n            tag_164:\n                /* \"#utility.yul\":8362:8368   */\n              0x00\n                /* \"#utility.yul\":8396:8401   */\n              dup2\n                /* \"#utility.yul\":8390:8402   */\n              mload\n                /* \"#utility.yul\":8380:8402   */\n              swap1\n              pop\n                /* \"#utility.yul\":8310:8409   */\n              swap2\n              swap1\n              pop\n              jump\t// out\n                /* \"#utility.yul\":8415:8554   */\n            tag_165:\n                /* \"#utility.yul\":8504:8510   */\n              dup3\n                /* \"#utility.yul\":8499:8502   */\n              dup2\n                /* \"#utility.yul\":8494:8497   */\n              dup4\n                /* \"#utility.yul\":8488:8511   */\n              mcopy\n                /* \"#utility.yul\":8545:8546   */\n              0x00\n                /* \"#utility.yul\":8536:8542   */\n              dup4\n                /* \"#utility.yul\":8531:8534   */\n              dup4\n                /* \"#utility.yul\":8527:8543   */\n              add\n                /* \"#utility.yul\":8520:8547   */\n              mstore\n                /* \"#utility.yul\":8415:8554   */\n              pop\n              pop\n              pop\n              jump\t// out\n                /* \"#utility.yul\":8560:8937   */\n            tag_166:\n                /* \"#utility.yul\":8648:8651   */\n              0x00\n                /* \"#utility.yul\":8676:8715   */\n              tag_286\n                /* \"#utility.yul\":8709:8714   */\n              dup3\n                /* \"#utility.yul\":8676:8715   */\n              tag_164\n              jump\t// in\n            tag_286:\n                /* \"#utility.yul\":8731:8802   */\n              tag_287\n                /* \"#utility.yul\":8795:8801   */\n              dup2\n                /* \"#utility.yul\":8790:8793   */\n              dup6\n                /* \"#utility.yul\":8731:8802   */\n              tag_161\n              jump\t// in\n            tag_287:\n                /* \"#utility.yul\":8724:8802   */\n              swap4\n              pop\n                /* \"#utility.yul\":8811:8876   */\n              tag_288\n                /* \"#utility.yul\":8869:8875   */\n              dup2\n                /* \"#utility.yul\":8864:8867   */\n              dup6\n                /* \"#utility.yul\":8857:8861   */\n              0x20\n                /* \"#utility.yul\":8850:8855   */\n              dup7\n                /* \"#utility.yul\":8846:8862   */\n              add\n                /* \"#utility.yul\":8811:8876   */\n              tag_165\n              jump\t// in\n            tag_288:\n                /* \"#utility.yul\":8901:8930   */\n              tag_289\n                /* \"#utility.yul\":8923:8929   */\n              dup2\n                /* \"#utility.yul\":8901:8930   */\n              tag_143\n              jump\t// in\n            tag_289:\n                /* \"#utility.yul\":8896:8899   */\n              dup5\n                /* \"#utility.yul\":8892:8931   */\n              add\n                /* \"#utility.yul\":8885:8931   */\n              swap2\n              pop\n                /* \"#utility.yul\":8652:8937   */\n              pop\n                /* \"#utility.yul\":8560:8937   */\n              swap3\n              swap2\n              pop\n              pop\n              jump\t// out\n                /* \"#utility.yul\":8943:9256   */\n            tag_47:\n                /* \"#utility.yul\":9056:9060   */\n              0x00\n                /* \"#utility.yul\":9094:9096   */\n              0x20\n                /* \"#utility.yul\":9083:9092   */\n              dup3\n                /* \"#utility.yul\":9079:9097   */\n              add\n                /* \"#utility.yul\":9071:9097   */\n              swap1\n              pop\n                /* \"#utility.yul\":9143:9152   */\n              dup2\n                /* \"#utility.yul\":9137:9141   */\n              dup2\n                /* \"#utility.yul\":9133:9153   */\n              sub\n                /* \"#utility.yul\":9129:9130   */\n              0x00\n                /* \"#utility.yul\":9118:9127   */\n              dup4\n                /* \"#utility.yul\":9114:9131   */\n              add\n                /* \"#utility.yul\":9107:9154   */\n              mstore\n                /* \"#utility.yul\":9171:9249   */\n              tag_291\n                /* \"#utility.yul\":9244:9248   */\n              dup2\n                /* \"#utility.yul\":9235:9241   */\n              dup5\n                /* \"#utility.yul\":9171:9249   */\n              tag_166\n              jump\t// in\n            tag_291:\n                /* \"#utility.yul\":9163:9249   */\n              swap1\n              pop\n                /* \"#utility.yul\":8943:9256   */\n              swap3\n              swap2\n              pop\n              pop\n              jump\t// out\n                /* \"#utility.yul\":9262:9440   */\n            tag_167:\n                /* \"#utility.yul\":9402:9432   */\n              0x6d73672e73656e646572206973206e6f742065746620726f7574657200000000\n                /* \"#utility.yul\":9398:9399   */\n              0x00\n                /* \"#utility.yul\":9390:9396   */\n              dup3\n                /* \"#utility.yul\":9386:9400   */\n              add\n                /* \"#utility.yul\":9379:9433   */\n              mstore\n                /* \"#utility.yul\":9262:9440   */\n              pop\n              jump\t// out\n                /* \"#utility.yul\":9446:9812   */\n            tag_168:\n                /* \"#utility.yul\":9588:9591   */\n              0x00\n                /* \"#utility.yul\":9609:9676   */\n              tag_294\n                /* \"#utility.yul\":9673:9675   */\n              0x1c\n                /* \"#utility.yul\":9668:9671   */\n              dup4\n                /* \"#utility.yul\":9609:9676   */\n              tag_161\n              jump\t// in\n            tag_294:\n                /* \"#utility.yul\":9602:9676   */\n              swap2\n              pop\n                /* \"#utility.yul\":9685:9778   */\n              tag_295\n                /* \"#utility.yul\":9774:9777   */\n              dup3\n                /* \"#utility.yul\":9685:9778   */\n              tag_167\n              jump\t// in\n            tag_295:\n                /* \"#utility.yul\":9803:9805   */\n              0x20\n                /* \"#utility.yul\":9798:9801   */\n              dup3\n                /* \"#utility.yul\":9794:9806   */\n              add\n                /* \"#utility.yul\":9787:9806   */\n              swap1\n              pop\n                /* \"#utility.yul\":9446:9812   */\n              swap2\n              swap1\n              pop\n              jump\t// out\n                /* \"#utility.yul\":9818:10237   */\n            tag_55:\n                /* \"#utility.yul\":9984:9988   */\n              0x00\n                /* \"#utility.yul\":10022:10024   */\n              0x20\n                /* \"#utility.yul\":10011:10020   */\n              dup3\n                /* \"#utility.yul\":10007:10025   */\n              add\n                /* \"#utility.yul\":9999:10025   */\n              swap1\n              pop\n                /* \"#utility.yul\":10071:10080   */\n              dup2\n                /* \"#utility.yul\":10065:10069   */\n              dup2\n                /* \"#utility.yul\":10061:10081   */\n              sub\n                /* \"#utility.yul\":10057:10058   */\n              0x00\n                /* \"#utility.yul\":10046:10055   */\n              dup4\n                /* \"#utility.yul\":10042:10059   */\n              add\n                /* \"#utility.yul\":10035:10082   */\n              mstore\n                /* \"#utility.yul\":10099:10230   */\n              tag_297\n                /* \"#utility.yul\":10225:10229   */\n              dup2\n                /* \"#utility.yul\":10099:10230   */\n              tag_168\n              jump\t// in\n            tag_297:\n                /* \"#utility.yul\":10091:10230   */\n              swap1\n              pop\n                /* \"#utility.yul\":9818:10237   */\n              swap2\n              swap1\n              pop\n              jump\t// out\n                /* \"#utility.yul\":10243:10415   */\n            tag_169:\n                /* \"#utility.yul\":10383:10407   */\n              0x73656e64546f6b656e3a207a65726f20616d6f756e7400000000000000000000\n                /* \"#utility.yul\":10379:10380   */\n              0x00\n                /* \"#utility.yul\":10371:10377   */\n              dup3\n                /* \"#utility.yul\":10367:10381   */\n              add\n                /* \"#utility.yul\":10360:10408   */\n              mstore\n                /* \"#utility.yul\":10243:10415   */\n              pop\n              jump\t// out\n                /* \"#utility.yul\":10421:10787   */\n            tag_170:\n                /* \"#utility.yul\":10563:10566   */\n              0x00\n                /* \"#utility.yul\":10584:10651   */\n              tag_300\n                /* \"#utility.yul\":10648:10650   */\n              0x16\n                /* \"#utility.yul\":10643:10646   */\n              dup4\n                /* \"#utility.yul\":10584:10651   */\n              tag_161\n              jump\t// in\n            tag_300:\n                /* \"#utility.yul\":10577:10651   */\n              swap2\n              pop\n                /* \"#utility.yul\":10660:10753   */\n              tag_301\n                /* \"#utility.yul\":10749:10752   */\n              dup3\n                /* \"#utility.yul\":10660:10753   */\n              tag_169\n              jump\t// in\n            tag_301:\n                /* \"#utility.yul\":10778:10780   */\n              0x20\n                /* \"#utility.yul\":10773:10776   */\n              dup3\n                /* \"#utility.yul\":10769:10781   */\n              add\n                /* \"#utility.yul\":10762:10781   */\n              swap1\n              pop\n                /* \"#utility.yul\":10421:10787   */\n              swap2\n              swap1\n              pop\n              jump\t// out\n                /* \"#utility.yul\":10793:11212   */\n            tag_78:\n                /* \"#utility.yul\":10959:10963   */\n              0x00\n                /* \"#utility.yul\":10997:10999   */\n              0x20\n                /* \"#utility.yul\":10986:10995   */\n              dup3\n                /* \"#utility.yul\":10982:11000   */\n              add\n                /* \"#utility.yul\":10974:11000   */\n              swap1\n              pop\n                /* \"#utility.yul\":11046:11055   */\n              dup2\n                /* \"#utility.yul\":11040:11044   */\n              dup2\n                /* \"#utility.yul\":11036:11056   */\n              sub\n                /* \"#utility.yul\":11032:11033   */\n              0x00\n                /* \"#utility.yul\":11021:11030   */\n              dup4\n                /* \"#utility.yul\":11017:11034   */\n              add\n                /* \"#utility.yul\":11010:11057   */\n              mstore\n                /* \"#utility.yul\":11074:11205   */\n              tag_303\n                /* \"#utility.yul\":11200:11204   */\n              dup2\n                /* \"#utility.yul\":11074:11205   */\n              tag_170\n              jump\t// in\n            tag_303:\n                /* \"#utility.yul\":11066:11205   */\n              swap1\n              pop\n                /* \"#utility.yul\":10793:11212   */\n              swap2\n              swap1\n              pop\n              jump\t// out\n                /* \"#utility.yul\":11218:11400   */\n            tag_171:\n                /* \"#utility.yul\":11358:11392   */\n              0x4469726563746f72792063616e6e6f74206265207a65726f2061646472657373\n                /* \"#utility.yul\":11354:11355   */\n              0x00\n                /* \"#utility.yul\":11346:11352   */\n              dup3\n                /* \"#utility.yul\":11342:11356   */\n              add\n                /* \"#utility.yul\":11335:11393   */\n              mstore\n                /* \"#utility.yul\":11218:11400   */\n              pop\n              jump\t// out\n                /* \"#utility.yul\":11406:11772   */\n            tag_172:\n                /* \"#utility.yul\":11548:11551   */\n              0x00\n                /* \"#utility.yul\":11569:11636   */\n              tag_306\n                /* \"#utility.yul\":11633:11635   */\n              0x20\n                /* \"#utility.yul\":11628:11631   */\n              dup4\n                /* \"#utility.yul\":11569:11636   */\n              tag_161\n              jump\t// in\n            tag_306:\n                /* \"#utility.yul\":11562:11636   */\n              swap2\n              pop\n                /* \"#utility.yul\":11645:11738   */\n              tag_307\n                /* \"#utility.yul\":11734:11737   */\n              dup3\n                /* \"#utility.yul\":11645:11738   */\n              tag_171\n              jump\t// in\n            tag_307:\n                /* \"#utility.yul\":11763:11765   */\n              0x20\n                /* \"#utility.yul\":11758:11761   */\n              dup3\n                /* \"#utility.yul\":11754:11766   */\n              add\n                /* \"#utility.yul\":11747:11766   */\n              swap1\n              pop\n                /* \"#utility.yul\":11406:11772   */\n              swap2\n              swap1\n              pop\n              jump\t// out\n                /* \"#utility.yul\":11778:12197   */\n            tag_84:\n                /* \"#utility.yul\":11944:11948   */\n              0x00\n                /* \"#utility.yul\":11982:11984   */\n              0x20\n                /* \"#utility.yul\":11971:11980   */\n              dup3\n                /* \"#utility.yul\":11967:11985   */\n              add\n                /* \"#utility.yul\":11959:11985   */\n              swap1\n              pop\n                /* \"#utility.yul\":12031:12040   */\n              dup2\n                /* \"#utility.yul\":12025:12029   */\n              dup2\n                /* \"#utility.yul\":12021:12041   */\n              sub\n                /* \"#utility.yul\":12017:12018   */\n              0x00\n                /* \"#utility.yul\":12006:12015   */\n              dup4\n                /* \"#utility.yul\":12002:12019   */\n              add\n                /* \"#utility.yul\":11995:12042   */\n              mstore\n                /* \"#utility.yul\":12059:12190   */\n              tag_309\n                /* \"#utility.yul\":12185:12189   */\n              dup2\n                /* \"#utility.yul\":12059:12190   */\n              tag_172\n              jump\t// in\n            tag_309:\n                /* \"#utility.yul\":12051:12190   */\n              swap1\n              pop\n                /* \"#utility.yul\":11778:12197   */\n              swap2\n              swap1\n              pop\n              jump\t// out\n                /* \"#utility.yul\":12203:12381   */\n            tag_173:\n                /* \"#utility.yul\":12343:12373   */\n              0x4469726563746f7279206d757374206265206120636f6e747261637400000000\n                /* \"#utility.yul\":12339:12340   */\n              0x00\n                /* \"#utility.yul\":12331:12337   */\n              dup3\n                /* \"#utility.yul\":12327:12341   */\n              add\n                /* \"#utility.yul\":12320:12374   */\n              mstore\n                /* \"#utility.yul\":12203:12381   */\n              pop\n              jump\t// out\n                /* \"#utility.yul\":12387:12753   */\n            tag_174:\n                /* \"#utility.yul\":12529:12532   */\n              0x00\n                /* \"#utility.yul\":12550:12617   */\n              tag_312\n                /* \"#utility.yul\":12614:12616   */\n              0x1c\n                /* \"#utility.yul\":12609:12612   */\n              dup4\n                /* \"#utility.yul\":12550:12617   */\n              tag_161\n              jump\t// in\n            tag_312:\n                /* \"#utility.yul\":12543:12617   */\n              swap2\n              pop\n                /* \"#utility.yul\":12626:12719   */\n              tag_313\n                /* \"#utility.yul\":12715:12718   */\n              dup3\n                /* \"#utility.yul\":12626:12719   */\n              tag_173\n              jump\t// in\n            tag_313:\n                /* \"#utility.yul\":12744:12746   */\n              0x20\n                /* \"#utility.yul\":12739:12742   */\n              dup3\n                /* \"#utility.yul\":12735:12747   */\n              add\n                /* \"#utility.yul\":12728:12747   */\n              swap1\n              pop\n                /* \"#utility.yul\":12387:12753   */\n              swap2\n              swap1\n              pop\n              jump\t// out\n                /* \"#utility.yul\":12759:13178   */\n            tag_87:\n                /* \"#utility.yul\":12925:12929   */\n              0x00\n                /* \"#utility.yul\":12963:12965   */\n              0x20\n                /* \"#utility.yul\":12952:12961   */\n              dup3\n                /* \"#utility.yul\":12948:12966   */\n              add\n                /* \"#utility.yul\":12940:12966   */\n              swap1\n              pop\n                /* \"#utility.yul\":13012:13021   */\n              dup2\n                /* \"#utility.yul\":13006:13010   */\n              dup2\n                /* \"#utility.yul\":13002:13022   */\n              sub\n                /* \"#utility.yul\":12998:12999   */\n              0x00\n                /* \"#utility.yul\":12987:12996   */\n              dup4\n                /* \"#utility.yul\":12983:13000   */\n              add\n                /* \"#utility.yul\":12976:13023   */\n              mstore\n                /* \"#utility.yul\":13040:13171   */\n              tag_315\n                /* \"#utility.yul\":13166:13170   */\n              dup2\n                /* \"#utility.yul\":13040:13171   */\n              tag_174\n              jump\t// in\n            tag_315:\n                /* \"#utility.yul\":13032:13171   */\n              swap1\n              pop\n                /* \"#utility.yul\":12759:13178   */\n              swap2\n              swap1\n              pop\n              jump\t// out\n                /* \"#utility.yul\":13184:13415   */\n            tag_175:\n                /* \"#utility.yul\":13324:13358   */\n              0x4469726563746f7279206164647265737320646f6573206e6f7420696d706c65\n                /* \"#utility.yul\":13320:13321   */\n              0x00\n                /* \"#utility.yul\":13312:13318   */\n              dup3\n                /* \"#utility.yul\":13308:13322   */\n              add\n                /* \"#utility.yul\":13301:13359   */\n              mstore\n                /* \"#utility.yul\":13393:13407   */\n              0x6d656e74206f776e657228290000000000000000000000000000000000000000\n                /* \"#utility.yul\":13388:13390   */\n              0x20\n                /* \"#utility.yul\":13380:13386   */\n              dup3\n                /* \"#utility.yul\":13376:13391   */\n              add\n                /* \"#utility.yul\":13369:13408   */\n              mstore\n                /* \"#utility.yul\":13184:13415   */\n              pop\n              jump\t// out\n                /* \"#utility.yul\":13421:13787   */\n            tag_176:\n                /* \"#utility.yul\":13563:13566   */\n              0x00\n                /* \"#utility.yul\":13584:13651   */\n              tag_318\n                /* \"#utility.yul\":13648:13650   */\n              0x2c\n                /* \"#utility.yul\":13643:13646   */\n              dup4\n                /* \"#utility.yul\":13584:13651   */\n              tag_161\n              jump\t// in\n            tag_318:\n                /* \"#utility.yul\":13577:13651   */\n              swap2\n              pop\n                /* \"#utility.yul\":13660:13753   */\n              tag_319\n                /* \"#utility.yul\":13749:13752   */\n              dup3\n                /* \"#utility.yul\":13660:13753   */\n              tag_175\n              jump\t// in\n            tag_319:\n                /* \"#utility.yul\":13778:13780   */\n              0x40\n                /* \"#utility.yul\":13773:13776   */\n              dup3\n                /* \"#utility.yul\":13769:13781   */\n              add\n                /* \"#utility.yul\":13762:13781   */\n              swap1\n              pop\n                /* \"#utility.yul\":13421:13787   */\n              swap2\n              swap1\n              pop\n              jump\t// out\n                /* \"#utility.yul\":13793:14212   */\n            tag_95:\n                /* \"#utility.yul\":13959:13963   */\n              0x00\n                /* \"#utility.yul\":13997:13999   */\n              0x20\n                /* \"#utility.yul\":13986:13995   */\n              dup3\n                /* \"#utility.yul\":13982:14000   */\n              add\n                /* \"#utility.yul\":13974:14000   */\n              swap1\n              pop\n                /* \"#utility.yul\":14046:14055   */\n              dup2\n                /* \"#utility.yul\":14040:14044   */\n              dup2\n                /* \"#utility.yul\":14036:14056   */\n              sub\n                /* \"#utility.yul\":14032:14033   */\n              0x00\n                /* \"#utility.yul\":14021:14030   */\n              dup4\n                /* \"#utility.yul\":14017:14034   */\n              add\n                /* \"#utility.yul\":14010:14057   */\n              mstore\n                /* \"#utility.yul\":14074:14205   */\n              tag_321\n                /* \"#utility.yul\":14200:14204   */\n              dup2\n                /* \"#utility.yul\":14074:14205   */\n              tag_176\n              jump\t// in\n            tag_321:\n                /* \"#utility.yul\":14066:14205   */\n              swap1\n              pop\n                /* \"#utility.yul\":13793:14212   */\n              swap2\n              swap1\n              pop\n              jump\t// out\n                /* \"#utility.yul\":14218:14361   */\n            tag_177:\n                /* \"#utility.yul\":14275:14280   */\n              0x00\n                /* \"#utility.yul\":14306:14312   */\n              dup2\n                /* \"#utility.yul\":14300:14313   */\n              mload\n                /* \"#utility.yul\":14291:14313   */\n              swap1\n              pop\n                /* \"#utility.yul\":14322:14355   */\n              tag_323\n                /* \"#utility.yul\":14349:14354   */\n              dup2\n                /* \"#utility.yul\":14322:14355   */\n              tag_153\n              jump\t// in\n            tag_323:\n                /* \"#utility.yul\":14218:14361   */\n              swap3\n              swap2\n              pop\n              pop\n              jump\t// out\n                /* \"#utility.yul\":14367:14718   */\n            tag_107:\n                /* \"#utility.yul\":14437:14443   */\n              0x00\n                /* \"#utility.yul\":14486:14488   */\n              0x20\n                /* \"#utility.yul\":14474:14483   */\n              dup3\n                /* \"#utility.yul\":14465:14472   */\n              dup5\n                /* \"#utility.yul\":14461:14484   */\n              sub\n                /* \"#utility.yul\":14457:14489   */\n              slt\n                /* \"#utility.yul\":14454:14573   */\n              iszero\n              tag_325\n              jumpi\n                /* \"#utility.yul\":14492:14571   */\n              tag_326\n              tag_135\n              jump\t// in\n            tag_326:\n                /* \"#utility.yul\":14454:14573   */\n            tag_325:\n                /* \"#utility.yul\":14612:14613   */\n              0x00\n                /* \"#utility.yul\":14637:14701   */\n              tag_327\n                /* \"#utility.yul\":14693:14700   */\n              dup5\n                /* \"#utility.yul\":14684:14690   */\n              dup3\n                /* \"#utility.yul\":14673:14682   */\n              dup6\n                /* \"#utility.yul\":14669:14691   */\n              add\n                /* \"#utility.yul\":14637:14701   */\n              tag_177\n              jump\t// in\n            tag_327:\n                /* \"#utility.yul\":14627:14701   */\n              swap2\n              pop\n                /* \"#utility.yul\":14583:14711   */\n              pop\n                /* \"#utility.yul\":14367:14718   */\n              swap3\n              swap2\n              pop\n              pop\n              jump\t// out\n                /* \"#utility.yul\":14724:14842   */\n            tag_178:\n                /* \"#utility.yul\":14811:14835   */\n              tag_329\n                /* \"#utility.yul\":14829:14834   */\n              dup2\n                /* \"#utility.yul\":14811:14835   */\n              tag_152\n              jump\t// in\n            tag_329:\n                /* \"#utility.yul\":14806:14809   */\n              dup3\n                /* \"#utility.yul\":14799:14836   */\n              mstore\n                /* \"#utility.yul\":14724:14842   */\n              pop\n              pop\n              jump\t// out\n                /* \"#utility.yul\":14848:15180   */\n            tag_111:\n                /* \"#utility.yul\":14969:14973   */\n              0x00\n                /* \"#utility.yul\":15007:15009   */\n              0x40\n                /* \"#utility.yul\":14996:15005   */\n              dup3\n                /* \"#utility.yul\":14992:15010   */\n              add\n                /* \"#utility.yul\":14984:15010   */\n              swap1\n              pop\n                /* \"#utility.yul\":15020:15091   */\n              tag_331\n                /* \"#utility.yul\":15088:15089   */\n              0x00\n                /* \"#utility.yul\":15077:15086   */\n              dup4\n                /* \"#utility.yul\":15073:15090   */\n              add\n                /* \"#utility.yul\":15064:15070   */\n              dup6\n                /* \"#utility.yul\":15020:15091   */\n              tag_151\n              jump\t// in\n            tag_331:\n                /* \"#utility.yul\":15101:15173   */\n              tag_332\n                /* \"#utility.yul\":15169:15171   */\n              0x20\n                /* \"#utility.yul\":15158:15167   */\n              dup4\n                /* \"#utility.yul\":15154:15172   */\n              add\n                /* \"#utility.yul\":15145:15151   */\n              dup5\n                /* \"#utility.yul\":15101:15173   */\n              tag_178\n              jump\t// in\n            tag_332:\n                /* \"#utility.yul\":14848:15180   */\n              swap4\n              swap3\n              pop\n              pop\n              pop\n              jump\t// out\n                /* \"#utility.yul\":15186:15356   */\n            tag_179:\n                /* \"#utility.yul\":15326:15348   */\n              0x73656e644574683a207a65726f20616d6f756e74000000000000000000000000\n                /* \"#utility.yul\":15322:15323   */\n              0x00\n                /* \"#utility.yul\":15314:15320   */\n              dup3\n                /* \"#utility.yul\":15310:15324   */\n              add\n                /* \"#utility.yul\":15303:15349   */\n              mstore\n                /* \"#utility.yul\":15186:15356   */\n              pop\n              jump\t// out\n                /* \"#utility.yul\":15362:15728   */\n            tag_180:\n                /* \"#utility.yul\":15504:15507   */\n              0x00\n                /* \"#utility.yul\":15525:15592   */\n              tag_335\n                /* \"#utility.yul\":15589:15591   */\n              0x14\n                /* \"#utility.yul\":15584:15587   */\n              dup4\n                /* \"#utility.yul\":15525:15592   */\n              tag_161\n              jump\t// in\n            tag_335:\n                /* \"#utility.yul\":15518:15592   */\n              swap2\n              pop\n                /* \"#utility.yul\":15601:15694   */\n              tag_336\n                /* \"#utility.yul\":15690:15693   */\n              dup3\n                /* \"#utility.yul\":15601:15694   */\n              tag_179\n              jump\t// in\n            tag_336:\n                /* \"#utility.yul\":15719:15721   */\n              0x20\n                /* \"#utility.yul\":15714:15717   */\n              dup3\n                /* \"#utility.yul\":15710:15722   */\n              add\n                /* \"#utility.yul\":15703:15722   */\n              swap1\n              pop\n                /* \"#utility.yul\":15362:15728   */\n              swap2\n              swap1\n              pop\n              jump\t// out\n                /* \"#utility.yul\":15734:16153   */\n            tag_116:\n                /* \"#utility.yul\":15900:15904   */\n              0x00\n                /* \"#utility.yul\":15938:15940   */\n              0x20\n                /* \"#utility.yul\":15927:15936   */\n              dup3\n                /* \"#utility.yul\":15923:15941   */\n              add\n                /* \"#utility.yul\":15915:15941   */\n              swap1\n              pop\n                /* \"#utility.yul\":15987:15996   */\n              dup2\n                /* \"#utility.yul\":15981:15985   */\n              dup2\n                /* \"#utility.yul\":15977:15997   */\n              sub\n                /* \"#utility.yul\":15973:15974   */\n              0x00\n                /* \"#utility.yul\":15962:15971   */\n              dup4\n                /* \"#utility.yul\":15958:15975   */\n              add\n                /* \"#utility.yul\":15951:15998   */\n              mstore\n                /* \"#utility.yul\":16015:16146   */\n              tag_338\n                /* \"#utility.yul\":16141:16145   */\n              dup2\n                /* \"#utility.yul\":16015:16146   */\n              tag_180\n              jump\t// in\n            tag_338:\n                /* \"#utility.yul\":16007:16146   */\n              swap1\n              pop\n                /* \"#utility.yul\":15734:16153   */\n              swap2\n              swap1\n              pop\n              jump\t// out\n                /* \"#utility.yul\":16159:16334   */\n            tag_181:\n                /* \"#utility.yul\":16299:16326   */\n              0x73656e644574683a20696e73756666696369656e742045544800000000000000\n                /* \"#utility.yul\":16295:16296   */\n              0x00\n                /* \"#utility.yul\":16287:16293   */\n              dup3\n                /* \"#utility.yul\":16283:16297   */\n              add\n                /* \"#utility.yul\":16276:16327   */\n              mstore\n                /* \"#utility.yul\":16159:16334   */\n              pop\n              jump\t// out\n                /* \"#utility.yul\":16340:16706   */\n            tag_182:\n                /* \"#utility.yul\":16482:16485   */\n              0x00\n                /* \"#utility.yul\":16503:16570   */\n              tag_341\n                /* \"#utility.yul\":16567:16569   */\n              0x19\n                /* \"#utility.yul\":16562:16565   */\n              dup4\n                /* \"#utility.yul\":16503:16570   */\n              tag_161\n              jump\t// in\n            tag_341:\n                /* \"#utility.yul\":16496:16570   */\n              swap2\n              pop\n                /* \"#utility.yul\":16579:16672   */\n              tag_342\n                /* \"#utility.yul\":16668:16671   */\n              dup3\n                /* \"#utility.yul\":16579:16672   */\n              tag_181\n              jump\t// in\n            tag_342:\n                /* \"#utility.yul\":16697:16699   */\n              0x20\n                /* \"#utility.yul\":16692:16695   */\n              dup3\n                /* \"#utility.yul\":16688:16700   */\n              add\n                /* \"#utility.yul\":16681:16700   */\n              swap1\n              pop\n                /* \"#utility.yul\":16340:16706   */\n              swap2\n              swap1\n              pop\n              jump\t// out\n                /* \"#utility.yul\":16712:17131   */\n            tag_119:\n                /* \"#utility.yul\":16878:16882   */\n              0x00\n                /* \"#utility.yul\":16916:16918   */\n              0x20\n                /* \"#utility.yul\":16905:16914   */\n              dup3\n                /* \"#utility.yul\":16901:16919   */\n              add\n                /* \"#utility.yul\":16893:16919   */\n              swap1\n              pop\n                /* \"#utility.yul\":16965:16974   */\n              dup2\n                /* \"#utility.yul\":16959:16963   */\n              dup2\n                /* \"#utility.yul\":16955:16975   */\n              sub\n                /* \"#utility.yul\":16951:16952   */\n              0x00\n                /* \"#utility.yul\":16940:16949   */\n              dup4\n                /* \"#utility.yul\":16936:16953   */\n              add\n                /* \"#utility.yul\":16929:16976   */\n              mstore\n                /* \"#utility.yul\":16993:17124   */\n              tag_344\n                /* \"#utility.yul\":17119:17123   */\n              dup2\n                /* \"#utility.yul\":16993:17124   */\n              tag_182\n              jump\t// in\n            tag_344:\n                /* \"#utility.yul\":16985:17124   */\n              swap1\n              pop\n                /* \"#utility.yul\":16712:17131   */\n              swap2\n              swap1\n              pop\n              jump\t// out\n                /* \"#utility.yul\":17137:17284   */\n            tag_183:\n                /* \"#utility.yul\":17238:17249   */\n              0x00\n                /* \"#utility.yul\":17275:17278   */\n              dup2\n                /* \"#utility.yul\":17260:17278   */\n              swap1\n              pop\n                /* \"#utility.yul\":17137:17284   */\n              swap3\n              swap2\n              pop\n              pop\n              jump\t// out\n                /* \"#utility.yul\":17290:17404   */\n            tag_184:\n              pop\n              jump\t// out\n                /* \"#utility.yul\":17410:17808   */\n            tag_185:\n                /* \"#utility.yul\":17569:17572   */\n              0x00\n                /* \"#utility.yul\":17590:17673   */\n              tag_348\n                /* \"#utility.yul\":17671:17672   */\n              0x00\n                /* \"#utility.yul\":17666:17669   */\n              dup4\n                /* \"#utility.yul\":17590:17673   */\n              tag_183\n              jump\t// in\n            tag_348:\n                /* \"#utility.yul\":17583:17673   */\n              swap2\n              pop\n                /* \"#utility.yul\":17682:17775   */\n              tag_349\n                /* \"#utility.yul\":17771:17774   */\n              dup3\n                /* \"#utility.yul\":17682:17775   */\n              tag_184\n              jump\t// in\n            tag_349:\n                /* \"#utility.yul\":17800:17801   */\n              0x00\n                /* \"#utility.yul\":17795:17798   */\n              dup3\n                /* \"#utility.yul\":17791:17802   */\n              add\n                /* \"#utility.yul\":17784:17802   */\n              swap1\n              pop\n                /* \"#utility.yul\":17410:17808   */\n              swap2\n              swap1\n              pop\n              jump\t// out\n                /* \"#utility.yul\":17814:18193   */\n            tag_121:\n                /* \"#utility.yul\":17998:18001   */\n              0x00\n                /* \"#utility.yul\":18020:18167   */\n              tag_351\n                /* \"#utility.yul\":18163:18166   */\n              dup3\n                /* \"#utility.yul\":18020:18167   */\n              tag_185\n              jump\t// in\n            tag_351:\n                /* \"#utility.yul\":18013:18167   */\n              swap2\n              pop\n                /* \"#utility.yul\":18184:18187   */\n              dup2\n                /* \"#utility.yul\":18177:18187   */\n              swap1\n              pop\n                /* \"#utility.yul\":17814:18193   */\n              swap2\n              swap1\n              pop\n              jump\t// out\n                /* \"#utility.yul\":18199:18364   */\n            tag_186:\n                /* \"#utility.yul\":18339:18356   */\n              0x4554482073656e64206661696c65640000000000000000000000000000000000\n                /* \"#utility.yul\":18335:18336   */\n              0x00\n                /* \"#utility.yul\":18327:18333   */\n              dup3\n                /* \"#utility.yul\":18323:18337   */\n              add\n                /* \"#utility.yul\":18316:18357   */\n              mstore\n                /* \"#utility.yul\":18199:18364   */\n              pop\n              jump\t// out\n                /* \"#utility.yul\":18370:18736   */\n            tag_187:\n                /* \"#utility.yul\":18512:18515   */\n              0x00\n                /* \"#utility.yul\":18533:18600   */\n              tag_354\n                /* \"#utility.yul\":18597:18599   */\n              0x0f\n                /* \"#utility.yul\":18592:18595   */\n              dup4\n                /* \"#utility.yul\":18533:18600   */\n              tag_161\n              jump\t// in\n            tag_354:\n                /* \"#utility.yul\":18526:18600   */\n              swap2\n              pop\n                /* \"#utility.yul\":18609:18702   */\n              tag_355\n                /* \"#utility.yul\":18698:18701   */\n              dup3\n                /* \"#utility.yul\":18609:18702   */\n              tag_186\n              jump\t// in\n            tag_355:\n                /* \"#utility.yul\":18727:18729   */\n              0x20\n                /* \"#utility.yul\":18722:18725   */\n              dup3\n                /* \"#utility.yul\":18718:18730   */\n              add\n                /* \"#utility.yul\":18711:18730   */\n              swap1\n              pop\n                /* \"#utility.yul\":18370:18736   */\n              swap2\n              swap1\n              pop\n              jump\t// out\n                /* \"#utility.yul\":18742:19161   */\n            tag_127:\n                /* \"#utility.yul\":18908:18912   */\n              0x00\n                /* \"#utility.yul\":18946:18948   */\n              0x20\n                /* \"#utility.yul\":18935:18944   */\n              dup3\n                /* \"#utility.yul\":18931:18949   */\n              add\n                /* \"#utility.yul\":18923:18949   */\n              swap1\n              pop\n                /* \"#utility.yul\":18995:19004   */\n              dup2\n                /* \"#utility.yul\":18989:18993   */\n              dup2\n                /* \"#utility.yul\":18985:19005   */\n              sub\n                /* \"#utility.yul\":18981:18982   */\n              0x00\n                /* \"#utility.yul\":18970:18979   */\n              dup4\n                /* \"#utility.yul\":18966:18983   */\n              add\n                /* \"#utility.yul\":18959:19006   */\n              mstore\n                /* \"#utility.yul\":19023:19154   */\n              tag_357\n                /* \"#utility.yul\":19149:19153   */\n              dup2\n                /* \"#utility.yul\":19023:19154   */\n              tag_187\n              jump\t// in\n            tag_357:\n                /* \"#utility.yul\":19015:19154   */\n              swap1\n              pop\n                /* \"#utility.yul\":18742:19161   */\n              swap2\n              swap1\n              pop\n              jump\t// out\n\n            auxdata: 0xa2646970667358221220bb93de0fedb4fb60b2212cbfcc48ef666c00f951ba7a4e6ec6c616e5189196bf64736f6c634300081e0033\n        }\n    }\n\n    auxdata: 0xa2646970667358221220730f0a60653a5cb2bdd386407995d41ee92d784c74ff5657f60090699b28950364736f6c634300081e0033\n}\n",
				"bytecode": {
					"linkReferences": {},
					"object": "608060405234801561000f575f5ffd5b5060405161282038038061282083398181016040528101906100319190610257565b806100418161004860201b60201c565b50506103f0565b5f73ffffffffffffffffffffffffffffffffffffffff168173ffffffffffffffffffffffffffffffffffffffff16036100b6576040517f08c379a00000000000000000000000000000000000000000000000000000000081526004016100ad906102dc565b60405180910390fd5b5f8173ffffffffffffffffffffffffffffffffffffffff163b1161010f576040517f08c379a000000000000000000000000000000000000000000000000000000000815260040161010690610344565b60405180910390fd5b8073ffffffffffffffffffffffffffffffffffffffff16638da5cb5b6040518163ffffffff1660e01b8152600401602060405180830381865afa92505050801561017757506040513d601f19601f820116820180604052508101906101749190610257565b60015b6101b6576040517f08c379a00000000000000000000000000000000000000000000000000000000081526004016101ad906103d2565b60405180910390fd5b815f5f6101000a81548173ffffffffffffffffffffffffffffffffffffffff021916908373ffffffffffffffffffffffffffffffffffffffff1602179055505050565b5f5ffd5b5f73ffffffffffffffffffffffffffffffffffffffff82169050919050565b5f610226826101fd565b9050919050565b6102368161021c565b8114610240575f5ffd5b50565b5f815190506102518161022d565b92915050565b5f6020828403121561026c5761026b6101f9565b5b5f61027984828501610243565b91505092915050565b5f82825260208201905092915050565b7f4469726563746f72792063616e6e6f74206265207a65726f20616464726573735f82015250565b5f6102c6602083610282565b91506102d182610292565b602082019050919050565b5f6020820190508181035f8301526102f3816102ba565b9050919050565b7f4469726563746f7279206d757374206265206120636f6e7472616374000000005f82015250565b5f61032e601c83610282565b9150610339826102fa565b602082019050919050565b5f6020820190508181035f83015261035b81610322565b9050919050565b7f4469726563746f7279206164647265737320646f6573206e6f7420696d706c655f8201527f6d656e74206f776e657228290000000000000000000000000000000000000000602082015250565b5f6103bc602c83610282565b91506103c782610362565b604082019050919050565b5f6020820190508181035f8301526103e9816103b0565b9050919050565b612423806103fd5f395ff3fe608060405234801561000f575f5ffd5b5060043610610055575f3560e01c80632726261814610059578063658a847a146100895780638da5cb5b146100a7578063b57c59a7146100c5578063ba4c7be1146100f5575b5f5ffd5b610073600480360381019061006e91906107bf565b610111565b6040516100809190610845565b60405180910390f35b6100916101b1565b60405161009e91906108b9565b60405180910390f35b6100af6101d5565b6040516100bc9190610845565b60405180910390f35b6100df60048036038101906100da9190610905565b610268565b6040516100ec9190610845565b60405180910390f35b61010f600480360381019061010a919061095a565b6103ae565b005b5f5f5f9054906101000a900473ffffffffffffffffffffffffffffffffffffffff1673ffffffffffffffffffffffffffffffffffffffff166327262618836040518263ffffffff1660e01b815260040161016b91906109e5565b602060405180830381865afa158015610186573d5f5f3e3d5ffd5b505050506040513d601f19601f820116820180604052508101906101aa9190610a19565b9050919050565b5f5f9054906101000a900473ffffffffffffffffffffffffffffffffffffffff1681565b5f5f5f9054906101000a900473ffffffffffffffffffffffffffffffffffffffff1673ffffffffffffffffffffffffffffffffffffffff16638da5cb5b6040518163ffffffff1660e01b8152600401602060405180830381865afa15801561023f573d5f5f3e3d5ffd5b505050506040513d601f19601f820116820180604052508101906102639190610a19565b905090565b5f6102a76040518060400160405280600b81526020017f6574662d666163746f7279000000000000000000000000000000000000000000815250610111565b73ffffffffffffffffffffffffffffffffffffffff163373ffffffffffffffffffffffffffffffffffffffff1614610314576040517f08c379a000000000000000000000000000000000000000000000000000000000815260040161030b90610a8e565b60405180910390fd5b5f5f5f9054906101000a900473ffffffffffffffffffffffffffffffffffffffff1660405161034290610665565b61034c9190610845565b604051809103905ff080158015610365573d5f5f3e3d5ffd5b5090505f819050837fb40972ab04998c21214527661a10d8f39921f4ab74c6e9874df14c1613cd17e68260405161039c9190610845565b60405180910390a28092505050919050565b5f5f9054906101000a900473ffffffffffffffffffffffffffffffffffffffff1673ffffffffffffffffffffffffffffffffffffffff16638da5cb5b6040518163ffffffff1660e01b8152600401602060405180830381865afa158015610417573d5f5f3e3d5ffd5b505050506040513d601f19601f8201168201806040525081019061043b9190610a19565b73ffffffffffffffffffffffffffffffffffffffff163373ffffffffffffffffffffffffffffffffffffffff16146104a8576040517f08c379a000000000000000000000000000000000000000000000000000000000815260040161049f90610af6565b60405180910390fd5b6104b1816104b4565b50565b5f73ffffffffffffffffffffffffffffffffffffffff168173ffffffffffffffffffffffffffffffffffffffff1603610522576040517f08c379a000000000000000000000000000000000000000000000000000000000815260040161051990610b5e565b60405180910390fd5b5f8173ffffffffffffffffffffffffffffffffffffffff163b1161057b576040517f08c379a000000000000000000000000000000000000000000000000000000000815260040161057290610bc6565b60405180910390fd5b8073ffffffffffffffffffffffffffffffffffffffff16638da5cb5b6040518163ffffffff1660e01b8152600401602060405180830381865afa9250505080156105e357506040513d601f19601f820116820180604052508101906105e09190610a19565b60015b610622576040517f08c379a000000000000000000000000000000000000000000000000000000000815260040161061990610c54565b60405180910390fd5b815f5f6101000a81548173ffffffffffffffffffffffffffffffffffffffff021916908373ffffffffffffffffffffffffffffffffffffffff1602179055505050565b61177b80610c7383390190565b5f604051905090565b5f5ffd5b5f5ffd5b5f5ffd5b5f5ffd5b5f601f19601f8301169050919050565b7f4e487b71000000000000000000000000000000000000000000000000000000005f52604160045260245ffd5b6106d18261068b565b810181811067ffffffffffffffff821117156106f0576106ef61069b565b5b80604052505050565b5f610702610672565b905061070e82826106c8565b919050565b5f67ffffffffffffffff82111561072d5761072c61069b565b5b6107368261068b565b9050602081019050919050565b828183375f83830152505050565b5f61076361075e84610713565b6106f9565b90508281526020810184848401111561077f5761077e610687565b5b61078a848285610743565b509392505050565b5f82601f8301126107a6576107a5610683565b5b81356107b6848260208601610751565b91505092915050565b5f602082840312156107d4576107d361067b565b5b5f82013567ffffffffffffffff8111156107f1576107f061067f565b5b6107fd84828501610792565b91505092915050565b5f73ffffffffffffffffffffffffffffffffffffffff82169050919050565b5f61082f82610806565b9050919050565b61083f81610825565b82525050565b5f6020820190506108585f830184610836565b92915050565b5f819050919050565b5f61088161087c61087784610806565b61085e565b610806565b9050919050565b5f61089282610867565b9050919050565b5f6108a382610888565b9050919050565b6108b381610899565b82525050565b5f6020820190506108cc5f8301846108aa565b92915050565b5f819050919050565b6108e4816108d2565b81146108ee575f5ffd5b50565b5f813590506108ff816108db565b92915050565b5f6020828403121561091a5761091961067b565b5b5f610927848285016108f1565b91505092915050565b61093981610825565b8114610943575f5ffd5b50565b5f8135905061095481610930565b92915050565b5f6020828403121561096f5761096e61067b565b5b5f61097c84828501610946565b91505092915050565b5f81519050919050565b5f82825260208201905092915050565b8281835e5f83830152505050565b5f6109b782610985565b6109c1818561098f565b93506109d181856020860161099f565b6109da8161068b565b840191505092915050565b5f6020820190508181035f8301526109fd81846109ad565b905092915050565b5f81519050610a1381610930565b92915050565b5f60208284031215610a2e57610a2d61067b565b5b5f610a3b84828501610a05565b91505092915050565b7f6d73672e73656e646572206973206e6f742065746620666163746f72790000005f82015250565b5f610a78601d8361098f565b9150610a8382610a44565b602082019050919050565b5f6020820190508181035f830152610aa581610a6c565b9050919050565b7f43616c6c6572206973206e6f7420746865206f776e65720000000000000000005f82015250565b5f610ae060178361098f565b9150610aeb82610aac565b602082019050919050565b5f6020820190508181035f830152610b0d81610ad4565b9050919050565b7f4469726563746f72792063616e6e6f74206265207a65726f20616464726573735f82015250565b5f610b4860208361098f565b9150610b5382610b14565b602082019050919050565b5f6020820190508181035f830152610b7581610b3c565b9050919050565b7f4469726563746f7279206d757374206265206120636f6e7472616374000000005f82015250565b5f610bb0601c8361098f565b9150610bbb82610b7c565b602082019050919050565b5f6020820190508181035f830152610bdd81610ba4565b9050919050565b7f4469726563746f7279206164647265737320646f6573206e6f7420696d706c655f8201527f6d656e74206f776e657228290000000000000000000000000000000000000000602082015250565b5f610c3e602c8361098f565b9150610c4982610be4565b604082019050919050565b5f6020820190508181035f830152610c6b81610c32565b905091905056fe608060405234801561000f575f5ffd5b5060405161177b38038061177b83398181016040528101906100319190610257565b806100418161004860201b60201c565b50506103f0565b5f73ffffffffffffffffffffffffffffffffffffffff168173ffffffffffffffffffffffffffffffffffffffff16036100b6576040517f08c379a00000000000000000000000000000000000000000000000000000000081526004016100ad906102dc565b60405180910390fd5b5f8173ffffffffffffffffffffffffffffffffffffffff163b1161010f576040517f08c379a000000000000000000000000000000000000000000000000000000000815260040161010690610344565b60405180910390fd5b8073ffffffffffffffffffffffffffffffffffffffff16638da5cb5b6040518163ffffffff1660e01b8152600401602060405180830381865afa92505050801561017757506040513d601f19601f820116820180604052508101906101749190610257565b60015b6101b6576040517f08c379a00000000000000000000000000000000000000000000000000000000081526004016101ad906103d2565b60405180910390fd5b815f5f6101000a81548173ffffffffffffffffffffffffffffffffffffffff021916908373ffffffffffffffffffffffffffffffffffffffff1602179055505050565b5f5ffd5b5f73ffffffffffffffffffffffffffffffffffffffff82169050919050565b5f610226826101fd565b9050919050565b6102368161021c565b8114610240575f5ffd5b50565b5f815190506102518161022d565b92915050565b5f6020828403121561026c5761026b6101f9565b5b5f61027984828501610243565b91505092915050565b5f82825260208201905092915050565b7f4469726563746f72792063616e6e6f74206265207a65726f20616464726573735f82015250565b5f6102c6602083610282565b91506102d182610292565b602082019050919050565b5f6020820190508181035f8301526102f3816102ba565b9050919050565b7f4469726563746f7279206d757374206265206120636f6e7472616374000000005f82015250565b5f61032e601c83610282565b9150610339826102fa565b602082019050919050565b5f6020820190508181035f83015261035b81610322565b9050919050565b7f4469726563746f7279206164647265737320646f6573206e6f7420696d706c655f8201527f6d656e74206f776e657228290000000000000000000000000000000000000000602082015250565b5f6103bc602c83610282565b91506103c782610362565b604082019050919050565b5f6020820190508181035f8301526103e9816103b0565b9050919050565b61137e806103fd5f395ff3fe608060405234801561000f575f5ffd5b5060043610610060575f3560e01c806309053ac41461006457806327262618146100805780635c833bfd146100b0578063658a847a146100cc5780638da5cb5b146100ea578063ba4c7be114610108575b5f5ffd5b61007e60048036038101906100799190610afa565b610124565b005b61009a60048036038101906100959190610c74565b61022c565b6040516100a79190610cca565b60405180910390f35b6100ca60048036038101906100c59190610d16565b6102cc565b005b6100d4610387565b6040516100e19190610dc1565b60405180910390f35b6100f26103ab565b6040516100ff9190610cca565b60405180910390f35b610122600480360381019061011d9190610dda565b61043e565b005b5f5f9054906101000a900473ffffffffffffffffffffffffffffffffffffffff1673ffffffffffffffffffffffffffffffffffffffff16638da5cb5b6040518163ffffffff1660e01b8152600401602060405180830381865afa15801561018d573d5f5f3e3d5ffd5b505050506040513d601f19601f820116820180604052508101906101b19190610e19565b73ffffffffffffffffffffffffffffffffffffffff163373ffffffffffffffffffffffffffffffffffffffff161461021e576040517f08c379a000000000000000000000000000000000000000000000000000000000815260040161021590610e9e565b60405180910390fd5b6102288282610544565b5050565b5f5f5f9054906101000a900473ffffffffffffffffffffffffffffffffffffffff1673ffffffffffffffffffffffffffffffffffffffff166327262618836040518263ffffffff1660e01b81526004016102869190610f0c565b602060405180830381865afa1580156102a1573d5f5f3e3d5ffd5b505050506040513d601f19601f820116820180604052508101906102c59190610e19565b9050919050565b61030a6040518060400160405280600a81526020017f6574662d726f757465720000000000000000000000000000000000000000000081525061022c565b73ffffffffffffffffffffffffffffffffffffffff163373ffffffffffffffffffffffffffffffffffffffff1614610377576040517f08c379a000000000000000000000000000000000000000000000000000000000815260040161036e90610f76565b60405180910390fd5b610382838284610552565b505050565b5f5f9054906101000a900473ffffffffffffffffffffffffffffffffffffffff1681565b5f5f5f9054906101000a900473ffffffffffffffffffffffffffffffffffffffff1673ffffffffffffffffffffffffffffffffffffffff16638da5cb5b6040518163ffffffff1660e01b8152600401602060405180830381865afa158015610415573d5f5f3e3d5ffd5b505050506040513d601f19601f820116820180604052508101906104399190610e19565b905090565b5f5f9054906101000a900473ffffffffffffffffffffffffffffffffffffffff1673ffffffffffffffffffffffffffffffffffffffff16638da5cb5b6040518163ffffffff1660e01b8152600401602060405180830381865afa1580156104a7573d5f5f3e3d5ffd5b505050506040513d601f19601f820116820180604052508101906104cb9190610e19565b73ffffffffffffffffffffffffffffffffffffffff163373ffffffffffffffffffffffffffffffffffffffff1614610538576040517f08c379a000000000000000000000000000000000000000000000000000000000815260040161052f90610e9e565b60405180910390fd5b610541816105c9565b50565b61054e828261077a565b5050565b5f8390505f8211610598576040517f08c379a000000000000000000000000000000000000000000000000000000000815260040161058f90610fde565b60405180910390fd5b6105c383838373ffffffffffffffffffffffffffffffffffffffff166108439092919063ffffffff16565b50505050565b5f73ffffffffffffffffffffffffffffffffffffffff168173ffffffffffffffffffffffffffffffffffffffff1603610637576040517f08c379a000000000000000000000000000000000000000000000000000000000815260040161062e90611046565b60405180910390fd5b5f8173ffffffffffffffffffffffffffffffffffffffff163b11610690576040517f08c379a0000000000000000000000000000000000000000000000000000000008152600401610687906110ae565b60405180910390fd5b8073ffffffffffffffffffffffffffffffffffffffff16638da5cb5b6040518163ffffffff1660e01b8152600401602060405180830381865afa9250505080156106f857506040513d601f19601f820116820180604052508101906106f59190610e19565b60015b610737576040517f08c379a000000000000000000000000000000000000000000000000000000000815260040161072e9061113c565b60405180910390fd5b815f5f6101000a81548173ffffffffffffffffffffffffffffffffffffffff021916908373ffffffffffffffffffffffffffffffffffffffff1602179055505050565b5f73ffffffffffffffffffffffffffffffffffffffff168273ffffffffffffffffffffffffffffffffffffffff16036107bc576107b781476108c2565b61083f565b61083e82828473ffffffffffffffffffffffffffffffffffffffff166370a08231306040518263ffffffff1660e01b81526004016107fa9190610cca565b602060405180830381865afa158015610815573d5f5f3e3d5ffd5b505050506040513d601f19601f82011682018060405250810190610839919061116e565b610552565b5b5050565b6108bd838473ffffffffffffffffffffffffffffffffffffffff1663a9059cbb85856040516024016108769291906111a8565b604051602081830303815290604052915060e01b6020820180517bffffffffffffffffffffffffffffffffffffffffffffffffffffffff83818316178352505050506109f4565b505050565b5f8111610904576040517f08c379a00000000000000000000000000000000000000000000000000000000081526004016108fb90611219565b60405180910390fd5b80471015610947576040517f08c379a000000000000000000000000000000000000000000000000000000000815260040161093e90611281565b60405180910390fd5b5f8273ffffffffffffffffffffffffffffffffffffffff168260405161096c906112cc565b5f6040518083038185875af1925050503d805f81146109a6576040519150601f19603f3d011682016040523d82523d5f602084013e6109ab565b606091505b50509050806109ef576040517f08c379a00000000000000000000000000000000000000000000000000000000081526004016109e69061132a565b60405180910390fd5b505050565b5f5f60205f8451602086015f885af180610a13576040513d5f823e3d81fd5b3d92505f519150505f8214610a2c576001811415610a47565b5f8473ffffffffffffffffffffffffffffffffffffffff163b145b15610a8957836040517f5274afe7000000000000000000000000000000000000000000000000000000008152600401610a809190610cca565b60405180910390fd5b50505050565b5f604051905090565b5f5ffd5b5f5ffd5b5f73ffffffffffffffffffffffffffffffffffffffff82169050919050565b5f610ac982610aa0565b9050919050565b610ad981610abf565b8114610ae3575f5ffd5b50565b5f81359050610af481610ad0565b92915050565b5f5f60408385031215610b1057610b0f610a98565b5b5f610b1d85828601610ae6565b9250506020610b2e85828601610ae6565b9150509250929050565b5f5ffd5b5f5ffd5b5f601f19601f8301169050919050565b7f4e487b71000000000000000000000000000000000000000000000000000000005f52604160045260245ffd5b610b8682610b40565b810181811067ffffffffffffffff82111715610ba557610ba4610b50565b5b80604052505050565b5f610bb7610a8f565b9050610bc38282610b7d565b919050565b5f67ffffffffffffffff821115610be257610be1610b50565b5b610beb82610b40565b9050602081019050919050565b828183375f83830152505050565b5f610c18610c1384610bc8565b610bae565b905082815260208101848484011115610c3457610c33610b3c565b5b610c3f848285610bf8565b509392505050565b5f82601f830112610c5b57610c5a610b38565b5b8135610c6b848260208601610c06565b91505092915050565b5f60208284031215610c8957610c88610a98565b5b5f82013567ffffffffffffffff811115610ca657610ca5610a9c565b5b610cb284828501610c47565b91505092915050565b610cc481610abf565b82525050565b5f602082019050610cdd5f830184610cbb565b92915050565b5f819050919050565b610cf581610ce3565b8114610cff575f5ffd5b50565b5f81359050610d1081610cec565b92915050565b5f5f5f60608486031215610d2d57610d2c610a98565b5b5f610d3a86828701610ae6565b9350506020610d4b86828701610d02565b9250506040610d5c86828701610ae6565b9150509250925092565b5f819050919050565b5f610d89610d84610d7f84610aa0565b610d66565b610aa0565b9050919050565b5f610d9a82610d6f565b9050919050565b5f610dab82610d90565b9050919050565b610dbb81610da1565b82525050565b5f602082019050610dd45f830184610db2565b92915050565b5f60208284031215610def57610dee610a98565b5b5f610dfc84828501610ae6565b91505092915050565b5f81519050610e1381610ad0565b92915050565b5f60208284031215610e2e57610e2d610a98565b5b5f610e3b84828501610e05565b91505092915050565b5f82825260208201905092915050565b7f43616c6c6572206973206e6f7420746865206f776e65720000000000000000005f82015250565b5f610e88601783610e44565b9150610e9382610e54565b602082019050919050565b5f6020820190508181035f830152610eb581610e7c565b9050919050565b5f81519050919050565b8281835e5f83830152505050565b5f610ede82610ebc565b610ee88185610e44565b9350610ef8818560208601610ec6565b610f0181610b40565b840191505092915050565b5f6020820190508181035f830152610f248184610ed4565b905092915050565b7f6d73672e73656e646572206973206e6f742065746620726f75746572000000005f82015250565b5f610f60601c83610e44565b9150610f6b82610f2c565b602082019050919050565b5f6020820190508181035f830152610f8d81610f54565b9050919050565b7f73656e64546f6b656e3a207a65726f20616d6f756e74000000000000000000005f82015250565b5f610fc8601683610e44565b9150610fd382610f94565b602082019050919050565b5f6020820190508181035f830152610ff581610fbc565b9050919050565b7f4469726563746f72792063616e6e6f74206265207a65726f20616464726573735f82015250565b5f611030602083610e44565b915061103b82610ffc565b602082019050919050565b5f6020820190508181035f83015261105d81611024565b9050919050565b7f4469726563746f7279206d757374206265206120636f6e7472616374000000005f82015250565b5f611098601c83610e44565b91506110a382611064565b602082019050919050565b5f6020820190508181035f8301526110c58161108c565b9050919050565b7f4469726563746f7279206164647265737320646f6573206e6f7420696d706c655f8201527f6d656e74206f776e657228290000000000000000000000000000000000000000602082015250565b5f611126602c83610e44565b9150611131826110cc565b604082019050919050565b5f6020820190508181035f8301526111538161111a565b9050919050565b5f8151905061116881610cec565b92915050565b5f6020828403121561118357611182610a98565b5b5f6111908482850161115a565b91505092915050565b6111a281610ce3565b82525050565b5f6040820190506111bb5f830185610cbb565b6111c86020830184611199565b9392505050565b7f73656e644574683a207a65726f20616d6f756e740000000000000000000000005f82015250565b5f611203601483610e44565b915061120e826111cf565b602082019050919050565b5f6020820190508181035f830152611230816111f7565b9050919050565b7f73656e644574683a20696e73756666696369656e7420455448000000000000005f82015250565b5f61126b601983610e44565b915061127682611237565b602082019050919050565b5f6020820190508181035f8301526112988161125f565b9050919050565b5f81905092915050565b50565b5f6112b75f8361129f565b91506112c2826112a9565b5f82019050919050565b5f6112d6826112ac565b9150819050919050565b7f4554482073656e64206661696c656400000000000000000000000000000000005f82015250565b5f611314600f83610e44565b915061131f826112e0565b602082019050919050565b5f6020820190508181035f83015261134181611308565b905091905056fea2646970667358221220bb93de0fedb4fb60b2212cbfcc48ef666c00f951ba7a4e6ec6c616e5189196bf64736f6c634300081e0033a2646970667358221220730f0a60653a5cb2bdd386407995d41ee92d784c74ff5657f60090699b28950364736f6c634300081e0033",
					"opcodes": "PUSH1 0x80 PUSH1 0x40 MSTORE CALLVALUE DUP1 ISZERO PUSH2 0xF JUMPI PUSH0 PUSH0 REVERT JUMPDEST POP PUSH1 0x40 MLOAD PUSH2 0x2820 CODESIZE SUB DUP1 PUSH2 0x2820 DUP4 CODECOPY DUP2 DUP2 ADD PUSH1 0x40 MSTORE DUP2 ADD SWAP1 PUSH2 0x31 SWAP2 SWAP1 PUSH2 0x257 JUMP JUMPDEST DUP1 PUSH2 0x41 DUP2 PUSH2 0x48 PUSH1 0x20 SHL PUSH1 0x20 SHR JUMP JUMPDEST POP POP PUSH2 0x3F0 JUMP JUMPDEST PUSH0 PUSH20 0xFFFFFFFFFFFFFFFFFFFFFFFFFFFFFFFFFFFFFFFF AND DUP2 PUSH20 0xFFFFFFFFFFFFFFFFFFFFFFFFFFFFFFFFFFFFFFFF AND SUB PUSH2 0xB6 JUMPI PUSH1 0x40 MLOAD PUSH32 0x8C379A000000000000000000000000000000000000000000000000000000000 DUP2 MSTORE PUSH1 0x4 ADD PUSH2 0xAD SWAP1 PUSH2 0x2DC JUMP JUMPDEST PUSH1 0x40 MLOAD DUP1 SWAP2 SUB SWAP1 REVERT JUMPDEST PUSH0 DUP2 PUSH20 0xFFFFFFFFFFFFFFFFFFFFFFFFFFFFFFFFFFFFFFFF AND EXTCODESIZE GT PUSH2 0x10F JUMPI PUSH1 0x40 MLOAD PUSH32 0x8C379A000000000000000000000000000000000000000000000000000000000 DUP2 MSTORE PUSH1 0x4 ADD PUSH2 0x106 SWAP1 PUSH2 0x344 JUMP JUMPDEST PUSH1 0x40 MLOAD DUP1 SWAP2 SUB SWAP1 REVERT JUMPDEST DUP1 PUSH20 0xFFFFFFFFFFFFFFFFFFFFFFFFFFFFFFFFFFFFFFFF AND PUSH4 0x8DA5CB5B PUSH1 0x40 MLOAD DUP2 PUSH4 0xFFFFFFFF AND PUSH1 0xE0 SHL DUP2 MSTORE PUSH1 0x4 ADD PUSH1 0x20 PUSH1 0x40 MLOAD DUP1 DUP4 SUB DUP2 DUP7 GAS STATICCALL SWAP3 POP POP POP DUP1 ISZERO PUSH2 0x177 JUMPI POP PUSH1 0x40 MLOAD RETURNDATASIZE PUSH1 0x1F NOT PUSH1 0x1F DUP3 ADD AND DUP3 ADD DUP1 PUSH1 0x40 MSTORE POP DUP2 ADD SWAP1 PUSH2 0x174 SWAP2 SWAP1 PUSH2 0x257 JUMP JUMPDEST PUSH1 0x1 JUMPDEST PUSH2 0x1B6 JUMPI PUSH1 0x40 MLOAD PUSH32 0x8C379A000000000000000000000000000000000000000000000000000000000 DUP2 MSTORE PUSH1 0x4 ADD PUSH2 0x1AD SWAP1 PUSH2 0x3D2 JUMP JUMPDEST PUSH1 0x40 MLOAD DUP1 SWAP2 SUB SWAP1 REVERT JUMPDEST DUP2 PUSH0 PUSH0 PUSH2 0x100 EXP DUP2 SLOAD DUP2 PUSH20 0xFFFFFFFFFFFFFFFFFFFFFFFFFFFFFFFFFFFFFFFF MUL NOT AND SWAP1 DUP4 PUSH20 0xFFFFFFFFFFFFFFFFFFFFFFFFFFFFFFFFFFFFFFFF AND MUL OR SWAP1 SSTORE POP POP POP JUMP JUMPDEST PUSH0 PUSH0 REVERT JUMPDEST PUSH0 PUSH20 0xFFFFFFFFFFFFFFFFFFFFFFFFFFFFFFFFFFFFFFFF DUP3 AND SWAP1 POP SWAP2 SWAP1 POP JUMP JUMPDEST PUSH0 PUSH2 0x226 DUP3 PUSH2 0x1FD JUMP JUMPDEST SWAP1 POP SWAP2 SWAP1 POP JUMP JUMPDEST PUSH2 0x236 DUP2 PUSH2 0x21C JUMP JUMPDEST DUP2 EQ PUSH2 0x240 JUMPI PUSH0 PUSH0 REVERT JUMPDEST POP JUMP JUMPDEST PUSH0 DUP2 MLOAD SWAP1 POP PUSH2 0x251 DUP2 PUSH2 0x22D JUMP JUMPDEST SWAP3 SWAP2 POP POP JUMP JUMPDEST PUSH0 PUSH1 0x20 DUP3 DUP5 SUB SLT ISZERO PUSH2 0x26C JUMPI PUSH2 0x26B PUSH2 0x1F9 JUMP JUMPDEST JUMPDEST PUSH0 PUSH2 0x279 DUP5 DUP3 DUP6 ADD PUSH2 0x243 JUMP JUMPDEST SWAP2 POP POP SWAP3 SWAP2 POP POP JUMP JUMPDEST PUSH0 DUP3 DUP3 MSTORE PUSH1 0x20 DUP3 ADD SWAP1 POP SWAP3 SWAP2 POP POP JUMP JUMPDEST PUSH32 0x4469726563746F72792063616E6E6F74206265207A65726F2061646472657373 PUSH0 DUP3 ADD MSTORE POP JUMP JUMPDEST PUSH0 PUSH2 0x2C6 PUSH1 0x20 DUP4 PUSH2 0x282 JUMP JUMPDEST SWAP2 POP PUSH2 0x2D1 DUP3 PUSH2 0x292 JUMP JUMPDEST PUSH1 0x20 DUP3 ADD SWAP1 POP SWAP2 SWAP1 POP JUMP JUMPDEST PUSH0 PUSH1 0x20 DUP3 ADD SWAP1 POP DUP2 DUP2 SUB PUSH0 DUP4 ADD MSTORE PUSH2 0x2F3 DUP2 PUSH2 0x2BA JUMP JUMPDEST SWAP1 POP SWAP2 SWAP1 POP JUMP JUMPDEST PUSH32 0x4469726563746F7279206D757374206265206120636F6E747261637400000000 PUSH0 DUP3 ADD MSTORE POP JUMP JUMPDEST PUSH0 PUSH2 0x32E PUSH1 0x1C DUP4 PUSH2 0x282 JUMP JUMPDEST SWAP2 POP PUSH2 0x339 DUP3 PUSH2 0x2FA JUMP JUMPDEST PUSH1 0x20 DUP3 ADD SWAP1 POP SWAP2 SWAP1 POP JUMP JUMPDEST PUSH0 PUSH1 0x20 DUP3 ADD SWAP1 POP DUP2 DUP2 SUB PUSH0 DUP4 ADD MSTORE PUSH2 0x35B DUP2 PUSH2 0x322 JUMP JUMPDEST SWAP1 POP SWAP2 SWAP1 POP JUMP JUMPDEST PUSH32 0x4469726563746F7279206164647265737320646F6573206E6F7420696D706C65 PUSH0 DUP3 ADD MSTORE PUSH32 0x6D656E74206F776E657228290000000000000000000000000000000000000000 PUSH1 0x20 DUP3 ADD MSTORE POP JUMP JUMPDEST PUSH0 PUSH2 0x3BC PUSH1 0x2C DUP4 PUSH2 0x282 JUMP JUMPDEST SWAP2 POP PUSH2 0x3C7 DUP3 PUSH2 0x362 JUMP JUMPDEST PUSH1 0x40 DUP3 ADD SWAP1 POP SWAP2 SWAP1 POP JUMP JUMPDEST PUSH0 PUSH1 0x20 DUP3 ADD SWAP1 POP DUP2 DUP2 SUB PUSH0 DUP4 ADD MSTORE PUSH2 0x3E9 DUP2 PUSH2 0x3B0 JUMP JUMPDEST SWAP1 POP SWAP2 SWAP1 POP JUMP JUMPDEST PUSH2 0x2423 DUP1 PUSH2 0x3FD PUSH0 CODECOPY PUSH0 RETURN INVALID PUSH1 0x80 PUSH1 0x40 MSTORE CALLVALUE DUP1 ISZERO PUSH2 0xF JUMPI PUSH0 PUSH0 REVERT JUMPDEST POP PUSH1 0x4 CALLDATASIZE LT PUSH2 0x55 JUMPI PUSH0 CALLDATALOAD PUSH1 0xE0 SHR DUP1 PUSH4 0x27262618 EQ PUSH2 0x59 JUMPI DUP1 PUSH4 0x658A847A EQ PUSH2 0x89 JUMPI DUP1 PUSH4 0x8DA5CB5B EQ PUSH2 0xA7 JUMPI DUP1 PUSH4 0xB57C59A7 EQ PUSH2 0xC5 JUMPI DUP1 PUSH4 0xBA4C7BE1 EQ PUSH2 0xF5 JUMPI JUMPDEST PUSH0 PUSH0 REVERT JUMPDEST PUSH2 0x73 PUSH1 0x4 DUP1 CALLDATASIZE SUB DUP2 ADD SWAP1 PUSH2 0x6E SWAP2 SWAP1 PUSH2 0x7BF JUMP JUMPDEST PUSH2 0x111 JUMP JUMPDEST PUSH1 0x40 MLOAD PUSH2 0x80 SWAP2 SWAP1 PUSH2 0x845 JUMP JUMPDEST PUSH1 0x40 MLOAD DUP1 SWAP2 SUB SWAP1 RETURN JUMPDEST PUSH2 0x91 PUSH2 0x1B1 JUMP JUMPDEST PUSH1 0x40 MLOAD PUSH2 0x9E SWAP2 SWAP1 PUSH2 0x8B9 JUMP JUMPDEST PUSH1 0x40 MLOAD DUP1 SWAP2 SUB SWAP1 RETURN JUMPDEST PUSH2 0xAF PUSH2 0x1D5 JUMP JUMPDEST PUSH1 0x40 MLOAD PUSH2 0xBC SWAP2 SWAP1 PUSH2 0x845 JUMP JUMPDEST PUSH1 0x40 MLOAD DUP1 SWAP2 SUB SWAP1 RETURN JUMPDEST PUSH2 0xDF PUSH1 0x4 DUP1 CALLDATASIZE SUB DUP2 ADD SWAP1 PUSH2 0xDA SWAP2 SWAP1 PUSH2 0x905 JUMP JUMPDEST PUSH2 0x268 JUMP JUMPDEST PUSH1 0x40 MLOAD PUSH2 0xEC SWAP2 SWAP1 PUSH2 0x845 JUMP JUMPDEST PUSH1 0x40 MLOAD DUP1 SWAP2 SUB SWAP1 RETURN JUMPDEST PUSH2 0x10F PUSH1 0x4 DUP1 CALLDATASIZE SUB DUP2 ADD SWAP1 PUSH2 0x10A SWAP2 SWAP1 PUSH2 0x95A JUMP JUMPDEST PUSH2 0x3AE JUMP JUMPDEST STOP JUMPDEST PUSH0 PUSH0 PUSH0 SWAP1 SLOAD SWAP1 PUSH2 0x100 EXP SWAP1 DIV PUSH20 0xFFFFFFFFFFFFFFFFFFFFFFFFFFFFFFFFFFFFFFFF AND PUSH20 0xFFFFFFFFFFFFFFFFFFFFFFFFFFFFFFFFFFFFFFFF AND PUSH4 0x27262618 DUP4 PUSH1 0x40 MLOAD DUP3 PUSH4 0xFFFFFFFF AND PUSH1 0xE0 SHL DUP2 MSTORE PUSH1 0x4 ADD PUSH2 0x16B SWAP2 SWAP1 PUSH2 0x9E5 JUMP JUMPDEST PUSH1 0x20 PUSH1 0x40 MLOAD DUP1 DUP4 SUB DUP2 DUP7 GAS STATICCALL ISZERO DUP1 ISZERO PUSH2 0x186 JUMPI RETURNDATASIZE PUSH0 PUSH0 RETURNDATACOPY RETURNDATASIZE PUSH0 REVERT JUMPDEST POP POP POP POP PUSH1 0x40 MLOAD RETURNDATASIZE PUSH1 0x1F NOT PUSH1 0x1F DUP3 ADD AND DUP3 ADD DUP1 PUSH1 0x40 MSTORE POP DUP2 ADD SWAP1 PUSH2 0x1AA SWAP2 SWAP1 PUSH2 0xA19 JUMP JUMPDEST SWAP1 POP SWAP2 SWAP1 POP JUMP JUMPDEST PUSH0 PUSH0 SWAP1 SLOAD SWAP1 PUSH2 0x100 EXP SWAP1 DIV PUSH20 0xFFFFFFFFFFFFFFFFFFFFFFFFFFFFFFFFFFFFFFFF AND DUP2 JUMP JUMPDEST PUSH0 PUSH0 PUSH0 SWAP1 SLOAD SWAP1 PUSH2 0x100 EXP SWAP1 DIV PUSH20 0xFFFFFFFFFFFFFFFFFFFFFFFFFFFFFFFFFFFFFFFF AND PUSH20 0xFFFFFFFFFFFFFFFFFFFFFFFFFFFFFFFFFFFFFFFF AND PUSH4 0x8DA5CB5B PUSH1 0x40 MLOAD DUP2 PUSH4 0xFFFFFFFF AND PUSH1 0xE0 SHL DUP2 MSTORE PUSH1 0x4 ADD PUSH1 0x20 PUSH1 0x40 MLOAD DUP1 DUP4 SUB DUP2 DUP7 GAS STATICCALL ISZERO DUP1 ISZERO PUSH2 0x23F JUMPI RETURNDATASIZE PUSH0 PUSH0 RETURNDATACOPY RETURNDATASIZE PUSH0 REVERT JUMPDEST POP POP POP POP PUSH1 0x40 MLOAD RETURNDATASIZE PUSH1 0x1F NOT PUSH1 0x1F DUP3 ADD AND DUP3 ADD DUP1 PUSH1 0x40 MSTORE POP DUP2 ADD SWAP1 PUSH2 0x263 SWAP2 SWAP1 PUSH2 0xA19 JUMP JUMPDEST SWAP1 POP SWAP1 JUMP JUMPDEST PUSH0 PUSH2 0x2A7 PUSH1 0x40 MLOAD DUP1 PUSH1 0x40 ADD PUSH1 0x40 MSTORE DUP1 PUSH1 0xB DUP2 MSTORE PUSH1 0x20 ADD PUSH32 0x6574662D666163746F7279000000000000000000000000000000000000000000 DUP2 MSTORE POP PUSH2 0x111 JUMP JUMPDEST PUSH20 0xFFFFFFFFFFFFFFFFFFFFFFFFFFFFFFFFFFFFFFFF AND CALLER PUSH20 0xFFFFFFFFFFFFFFFFFFFFFFFFFFFFFFFFFFFFFFFF AND EQ PUSH2 0x314 JUMPI PUSH1 0x40 MLOAD PUSH32 0x8C379A000000000000000000000000000000000000000000000000000000000 DUP2 MSTORE PUSH1 0x4 ADD PUSH2 0x30B SWAP1 PUSH2 0xA8E JUMP JUMPDEST PUSH1 0x40 MLOAD DUP1 SWAP2 SUB SWAP1 REVERT JUMPDEST PUSH0 PUSH0 PUSH0 SWAP1 SLOAD SWAP1 PUSH2 0x100 EXP SWAP1 DIV PUSH20 0xFFFFFFFFFFFFFFFFFFFFFFFFFFFFFFFFFFFFFFFF AND PUSH1 0x40 MLOAD PUSH2 0x342 SWAP1 PUSH2 0x665 JUMP JUMPDEST PUSH2 0x34C SWAP2 SWAP1 PUSH2 0x845 JUMP JUMPDEST PUSH1 0x40 MLOAD DUP1 SWAP2 SUB SWAP1 PUSH0 CREATE DUP1 ISZERO DUP1 ISZERO PUSH2 0x365 JUMPI RETURNDATASIZE PUSH0 PUSH0 RETURNDATACOPY RETURNDATASIZE PUSH0 REVERT JUMPDEST POP SWAP1 POP PUSH0 DUP2 SWAP1 POP DUP4 PUSH32 0xB40972AB04998C21214527661A10D8F39921F4AB74C6E9874DF14C1613CD17E6 DUP3 PUSH1 0x40 MLOAD PUSH2 0x39C SWAP2 SWAP1 PUSH2 0x845 JUMP JUMPDEST PUSH1 0x40 MLOAD DUP1 SWAP2 SUB SWAP1 LOG2 DUP1 SWAP3 POP POP POP SWAP2 SWAP1 POP JUMP JUMPDEST PUSH0 PUSH0 SWAP1 SLOAD SWAP1 PUSH2 0x100 EXP SWAP1 DIV PUSH20 0xFFFFFFFFFFFFFFFFFFFFFFFFFFFFFFFFFFFFFFFF AND PUSH20 0xFFFFFFFFFFFFFFFFFFFFFFFFFFFFFFFFFFFFFFFF AND PUSH4 0x8DA5CB5B PUSH1 0x40 MLOAD DUP2 PUSH4 0xFFFFFFFF AND PUSH1 0xE0 SHL DUP2 MSTORE PUSH1 0x4 ADD PUSH1 0x20 PUSH1 0x40 MLOAD DUP1 DUP4 SUB DUP2 DUP7 GAS STATICCALL ISZERO DUP1 ISZERO PUSH2 0x417 JUMPI RETURNDATASIZE PUSH0 PUSH0 RETURNDATACOPY RETURNDATASIZE PUSH0 REVERT JUMPDEST POP POP POP POP PUSH1 0x40 MLOAD RETURNDATASIZE PUSH1 0x1F NOT PUSH1 0x1F DUP3 ADD AND DUP3 ADD DUP1 PUSH1 0x40 MSTORE POP DUP2 ADD SWAP1 PUSH2 0x43B SWAP2 SWAP1 PUSH2 0xA19 JUMP JUMPDEST PUSH20 0xFFFFFFFFFFFFFFFFFFFFFFFFFFFFFFFFFFFFFFFF AND CALLER PUSH20 0xFFFFFFFFFFFFFFFFFFFFFFFFFFFFFFFFFFFFFFFF AND EQ PUSH2 0x4A8 JUMPI PUSH1 0x40 MLOAD PUSH32 0x8C379A000000000000000000000000000000000000000000000000000000000 DUP2 MSTORE PUSH1 0x4 ADD PUSH2 0x49F SWAP1 PUSH2 0xAF6 JUMP JUMPDEST PUSH1 0x40 MLOAD DUP1 SWAP2 SUB SWAP1 REVERT JUMPDEST PUSH2 0x4B1 DUP2 PUSH2 0x4B4 JUMP JUMPDEST POP JUMP JUMPDEST PUSH0 PUSH20 0xFFFFFFFFFFFFFFFFFFFFFFFFFFFFFFFFFFFFFFFF AND DUP2 PUSH20 0xFFFFFFFFFFFFFFFFFFFFFFFFFFFFFFFFFFFFFFFF AND SUB PUSH2 0x522 JUMPI PUSH1 0x40 MLOAD PUSH32 0x8C379A000000000000000000000000000000000000000000000000000000000 DUP2 MSTORE PUSH1 0x4 ADD PUSH2 0x519 SWAP1 PUSH2 0xB5E JUMP JUMPDEST PUSH1 0x40 MLOAD DUP1 SWAP2 SUB SWAP1 REVERT JUMPDEST PUSH0 DUP2 PUSH20 0xFFFFFFFFFFFFFFFFFFFFFFFFFFFFFFFFFFFFFFFF AND EXTCODESIZE GT PUSH2 0x57B JUMPI PUSH1 0x40 MLOAD PUSH32 0x8C379A000000000000000000000000000000000000000000000000000000000 DUP2 MSTORE PUSH1 0x4 ADD PUSH2 0x572 SWAP1 PUSH2 0xBC6 JUMP JUMPDEST PUSH1 0x40 MLOAD DUP1 SWAP2 SUB SWAP1 REVERT JUMPDEST DUP1 PUSH20 0xFFFFFFFFFFFFFFFFFFFFFFFFFFFFFFFFFFFFFFFF AND PUSH4 0x8DA5CB5B PUSH1 0x40 MLOAD DUP2 PUSH4 0xFFFFFFFF AND PUSH1 0xE0 SHL DUP2 MSTORE PUSH1 0x4 ADD PUSH1 0x20 PUSH1 0x40 MLOAD DUP1 DUP4 SUB DUP2 DUP7 GAS STATICCALL SWAP3 POP POP POP DUP1 ISZERO PUSH2 0x5E3 JUMPI POP PUSH1 0x40 MLOAD RETURNDATASIZE PUSH1 0x1F NOT PUSH1 0x1F DUP3 ADD AND DUP3 ADD DUP1 PUSH1 0x40 MSTORE POP DUP2 ADD SWAP1 PUSH2 0x5E0 SWAP2 SWAP1 PUSH2 0xA19 JUMP JUMPDEST PUSH1 0x1 JUMPDEST PUSH2 0x622 JUMPI PUSH1 0x40 MLOAD PUSH32 0x8C379A000000000000000000000000000000000000000000000000000000000 DUP2 MSTORE PUSH1 0x4 ADD PUSH2 0x619 SWAP1 PUSH2 0xC54 JUMP JUMPDEST PUSH1 0x40 MLOAD DUP1 SWAP2 SUB SWAP1 REVERT JUMPDEST DUP2 PUSH0 PUSH0 PUSH2 0x100 EXP DUP2 SLOAD DUP2 PUSH20 0xFFFFFFFFFFFFFFFFFFFFFFFFFFFFFFFFFFFFFFFF MUL NOT AND SWAP1 DUP4 PUSH20 0xFFFFFFFFFFFFFFFFFFFFFFFFFFFFFFFFFFFFFFFF AND MUL OR SWAP1 SSTORE POP POP POP JUMP JUMPDEST PUSH2 0x177B DUP1 PUSH2 0xC73 DUP4 CODECOPY ADD SWAP1 JUMP JUMPDEST PUSH0 PUSH1 0x40 MLOAD SWAP1 POP SWAP1 JUMP JUMPDEST PUSH0 PUSH0 REVERT JUMPDEST PUSH0 PUSH0 REVERT JUMPDEST PUSH0 PUSH0 REVERT JUMPDEST PUSH0 PUSH0 REVERT JUMPDEST PUSH0 PUSH1 0x1F NOT PUSH1 0x1F DUP4 ADD AND SWAP1 POP SWAP2 SWAP1 POP JUMP JUMPDEST PUSH32 0x4E487B7100000000000000000000000000000000000000000000000000000000 PUSH0 MSTORE PUSH1 0x41 PUSH1 0x4 MSTORE PUSH1 0x24 PUSH0 REVERT JUMPDEST PUSH2 0x6D1 DUP3 PUSH2 0x68B JUMP JUMPDEST DUP2 ADD DUP2 DUP2 LT PUSH8 0xFFFFFFFFFFFFFFFF DUP3 GT OR ISZERO PUSH2 0x6F0 JUMPI PUSH2 0x6EF PUSH2 0x69B JUMP JUMPDEST JUMPDEST DUP1 PUSH1 0x40 MSTORE POP POP POP JUMP JUMPDEST PUSH0 PUSH2 0x702 PUSH2 0x672 JUMP JUMPDEST SWAP1 POP PUSH2 0x70E DUP3 DUP3 PUSH2 0x6C8 JUMP JUMPDEST SWAP2 SWAP1 POP JUMP JUMPDEST PUSH0 PUSH8 0xFFFFFFFFFFFFFFFF DUP3 GT ISZERO PUSH2 0x72D JUMPI PUSH2 0x72C PUSH2 0x69B JUMP JUMPDEST JUMPDEST PUSH2 0x736 DUP3 PUSH2 0x68B JUMP JUMPDEST SWAP1 POP PUSH1 0x20 DUP2 ADD SWAP1 POP SWAP2 SWAP1 POP JUMP JUMPDEST DUP3 DUP2 DUP4 CALLDATACOPY PUSH0 DUP4 DUP4 ADD MSTORE POP POP POP JUMP JUMPDEST PUSH0 PUSH2 0x763 PUSH2 0x75E DUP5 PUSH2 0x713 JUMP JUMPDEST PUSH2 0x6F9 JUMP JUMPDEST SWAP1 POP DUP3 DUP2 MSTORE PUSH1 0x20 DUP2 ADD DUP5 DUP5 DUP5 ADD GT ISZERO PUSH2 0x77F JUMPI PUSH2 0x77E PUSH2 0x687 JUMP JUMPDEST JUMPDEST PUSH2 0x78A DUP5 DUP3 DUP6 PUSH2 0x743 JUMP JUMPDEST POP SWAP4 SWAP3 POP POP POP JUMP JUMPDEST PUSH0 DUP3 PUSH1 0x1F DUP4 ADD SLT PUSH2 0x7A6 JUMPI PUSH2 0x7A5 PUSH2 0x683 JUMP JUMPDEST JUMPDEST DUP2 CALLDATALOAD PUSH2 0x7B6 DUP5 DUP3 PUSH1 0x20 DUP7 ADD PUSH2 0x751 JUMP JUMPDEST SWAP2 POP POP SWAP3 SWAP2 POP POP JUMP JUMPDEST PUSH0 PUSH1 0x20 DUP3 DUP5 SUB SLT ISZERO PUSH2 0x7D4 JUMPI PUSH2 0x7D3 PUSH2 0x67B JUMP JUMPDEST JUMPDEST PUSH0 DUP3 ADD CALLDATALOAD PUSH8 0xFFFFFFFFFFFFFFFF DUP2 GT ISZERO PUSH2 0x7F1 JUMPI PUSH2 0x7F0 PUSH2 0x67F JUMP JUMPDEST JUMPDEST PUSH2 0x7FD DUP5 DUP3 DUP6 ADD PUSH2 0x792 JUMP JUMPDEST SWAP2 POP POP SWAP3 SWAP2 POP POP JUMP JUMPDEST PUSH0 PUSH20 0xFFFFFFFFFFFFFFFFFFFFFFFFFFFFFFFFFFFFFFFF DUP3 AND SWAP1 POP SWAP2 SWAP1 POP JUMP JUMPDEST PUSH0 PUSH2 0x82F DUP3 PUSH2 0x806 JUMP JUMPDEST SWAP1 POP SWAP2 SWAP1 POP JUMP JUMPDEST PUSH2 0x83F DUP2 PUSH2 0x825 JUMP JUMPDEST DUP3 MSTORE POP POP JUMP JUMPDEST PUSH0 PUSH1 0x20 DUP3 ADD SWAP1 POP PUSH2 0x858 PUSH0 DUP4 ADD DUP5 PUSH2 0x836 JUMP JUMPDEST SWAP3 SWAP2 POP POP JUMP JUMPDEST PUSH0 DUP2 SWAP1 POP SWAP2 SWAP1 POP JUMP JUMPDEST PUSH0 PUSH2 0x881 PUSH2 0x87C PUSH2 0x877 DUP5 PUSH2 0x806 JUMP JUMPDEST PUSH2 0x85E JUMP JUMPDEST PUSH2 0x806 JUMP JUMPDEST SWAP1 POP SWAP2 SWAP1 POP JUMP JUMPDEST PUSH0 PUSH2 0x892 DUP3 PUSH2 0x867 JUMP JUMPDEST SWAP1 POP SWAP2 SWAP1 POP JUMP JUMPDEST PUSH0 PUSH2 0x8A3 DUP3 PUSH2 0x888 JUMP JUMPDEST SWAP1 POP SWAP2 SWAP1 POP JUMP JUMPDEST PUSH2 0x8B3 DUP2 PUSH2 0x899 JUMP JUMPDEST DUP3 MSTORE POP POP JUMP JUMPDEST PUSH0 PUSH1 0x20 DUP3 ADD SWAP1 POP PUSH2 0x8CC PUSH0 DUP4 ADD DUP5 PUSH2 0x8AA JUMP JUMPDEST SWAP3 SWAP2 POP POP JUMP JUMPDEST PUSH0 DUP2 SWAP1 POP SWAP2 SWAP1 POP JUMP JUMPDEST PUSH2 0x8E4 DUP2 PUSH2 0x8D2 JUMP JUMPDEST DUP2 EQ PUSH2 0x8EE JUMPI PUSH0 PUSH0 REVERT JUMPDEST POP JUMP JUMPDEST PUSH0 DUP2 CALLDATALOAD SWAP1 POP PUSH2 0x8FF DUP2 PUSH2 0x8DB JUMP JUMPDEST SWAP3 SWAP2 POP POP JUMP JUMPDEST PUSH0 PUSH1 0x20 DUP3 DUP5 SUB SLT ISZERO PUSH2 0x91A JUMPI PUSH2 0x919 PUSH2 0x67B JUMP JUMPDEST JUMPDEST PUSH0 PUSH2 0x927 DUP5 DUP3 DUP6 ADD PUSH2 0x8F1 JUMP JUMPDEST SWAP2 POP POP SWAP3 SWAP2 POP POP JUMP JUMPDEST PUSH2 0x939 DUP2 PUSH2 0x825 JUMP JUMPDEST DUP2 EQ PUSH2 0x943 JUMPI PUSH0 PUSH0 REVERT JUMPDEST POP JUMP JUMPDEST PUSH0 DUP2 CALLDATALOAD SWAP1 POP PUSH2 0x954 DUP2 PUSH2 0x930 JUMP JUMPDEST SWAP3 SWAP2 POP POP JUMP JUMPDEST PUSH0 PUSH1 0x20 DUP3 DUP5 SUB SLT ISZERO PUSH2 0x96F JUMPI PUSH2 0x96E PUSH2 0x67B JUMP JUMPDEST JUMPDEST PUSH0 PUSH2 0x97C DUP5 DUP3 DUP6 ADD PUSH2 0x946 JUMP JUMPDEST SWAP2 POP POP SWAP3 SWAP2 POP POP JUMP JUMPDEST PUSH0 DUP2 MLOAD SWAP1 POP SWAP2 SWAP1 POP JUMP JUMPDEST PUSH0 DUP3 DUP3 MSTORE PUSH1 0x20 DUP3 ADD SWAP1 POP SWAP3 SWAP2 POP POP JUMP JUMPDEST DUP3 DUP2 DUP4 MCOPY PUSH0 DUP4 DUP4 ADD MSTORE POP POP POP JUMP JUMPDEST PUSH0 PUSH2 0x9B7 DUP3 PUSH2 0x985 JUMP JUMPDEST PUSH2 0x9C1 DUP2 DUP6 PUSH2 0x98F JUMP JUMPDEST SWAP4 POP PUSH2 0x9D1 DUP2 DUP6 PUSH1 0x20 DUP7 ADD PUSH2 0x99F JUMP JUMPDEST PUSH2 0x9DA DUP2 PUSH2 0x68B JUMP JUMPDEST DUP5 ADD SWAP2 POP POP SWAP3 SWAP2 POP POP JUMP JUMPDEST PUSH0 PUSH1 0x20 DUP3 ADD SWAP1 POP DUP2 DUP2 SUB PUSH0 DUP4 ADD MSTORE PUSH2 0x9FD DUP2 DUP5 PUSH2 0x9AD JUMP JUMPDEST SWAP1 POP SWAP3 SWAP2 POP POP JUMP JUMPDEST PUSH0 DUP2 MLOAD SWAP1 POP PUSH2 0xA13 DUP2 PUSH2 0x930 JUMP JUMPDEST SWAP3 SWAP2 POP POP JUMP JUMPDEST PUSH0 PUSH1 0x20 DUP3 DUP5 SUB SLT ISZERO PUSH2 0xA2E JUMPI PUSH2 0xA2D PUSH2 0x67B JUMP JUMPDEST JUMPDEST PUSH0 PUSH2 0xA3B DUP5 DUP3 DUP6 ADD PUSH2 0xA05 JUMP JUMPDEST SWAP2 POP POP SWAP3 SWAP2 POP POP JUMP JUMPDEST PUSH32 0x6D73672E73656E646572206973206E6F742065746620666163746F7279000000 PUSH0 DUP3 ADD MSTORE POP JUMP JUMPDEST PUSH0 PUSH2 0xA78 PUSH1 0x1D DUP4 PUSH2 0x98F JUMP JUMPDEST SWAP2 POP PUSH2 0xA83 DUP3 PUSH2 0xA44 JUMP JUMPDEST PUSH1 0x20 DUP3 ADD SWAP1 POP SWAP2 SWAP1 POP JUMP JUMPDEST PUSH0 PUSH1 0x20 DUP3 ADD SWAP1 POP DUP2 DUP2 SUB PUSH0 DUP4 ADD MSTORE PUSH2 0xAA5 DUP2 PUSH2 0xA6C JUMP JUMPDEST SWAP1 POP SWAP2 SWAP1 POP JUMP JUMPDEST PUSH32 0x43616C6C6572206973206E6F7420746865206F776E6572000000000000000000 PUSH0 DUP3 ADD MSTORE POP JUMP JUMPDEST PUSH0 PUSH2 0xAE0 PUSH1 0x17 DUP4 PUSH2 0x98F JUMP JUMPDEST SWAP2 POP PUSH2 0xAEB DUP3 PUSH2 0xAAC JUMP JUMPDEST PUSH1 0x20 DUP3 ADD SWAP1 POP SWAP2 SWAP1 POP JUMP JUMPDEST PUSH0 PUSH1 0x20 DUP3 ADD SWAP1 POP DUP2 DUP2 SUB PUSH0 DUP4 ADD MSTORE PUSH2 0xB0D DUP2 PUSH2 0xAD4 JUMP JUMPDEST SWAP1 POP SWAP2 SWAP1 POP JUMP JUMPDEST PUSH32 0x4469726563746F72792063616E6E6F74206265207A65726F2061646472657373 PUSH0 DUP3 ADD MSTORE POP JUMP JUMPDEST PUSH0 PUSH2 0xB48 PUSH1 0x20 DUP4 PUSH2 0x98F JUMP JUMPDEST SWAP2 POP PUSH2 0xB53 DUP3 PUSH2 0xB14 JUMP JUMPDEST PUSH1 0x20 DUP3 ADD SWAP1 POP SWAP2 SWAP1 POP JUMP JUMPDEST PUSH0 PUSH1 0x20 DUP3 ADD SWAP1 POP DUP2 DUP2 SUB PUSH0 DUP4 ADD MSTORE PUSH2 0xB75 DUP2 PUSH2 0xB3C JUMP JUMPDEST SWAP1 POP SWAP2 SWAP1 POP JUMP JUMPDEST PUSH32 0x4469726563746F7279206D757374206265206120636F6E747261637400000000 PUSH0 DUP3 ADD MSTORE POP JUMP JUMPDEST PUSH0 PUSH2 0xBB0 PUSH1 0x1C DUP4 PUSH2 0x98F JUMP JUMPDEST SWAP2 POP PUSH2 0xBBB DUP3 PUSH2 0xB7C JUMP JUMPDEST PUSH1 0x20 DUP3 ADD SWAP1 POP SWAP2 SWAP1 POP JUMP JUMPDEST PUSH0 PUSH1 0x20 DUP3 ADD SWAP1 POP DUP2 DUP2 SUB PUSH0 DUP4 ADD MSTORE PUSH2 0xBDD DUP2 PUSH2 0xBA4 JUMP JUMPDEST SWAP1 POP SWAP2 SWAP1 POP JUMP JUMPDEST PUSH32 0x4469726563746F7279206164647265737320646F6573206E6F7420696D706C65 PUSH0 DUP3 ADD MSTORE PUSH32 0x6D656E74206F776E657228290000000000000000000000000000000000000000 PUSH1 0x20 DUP3 ADD MSTORE POP JUMP JUMPDEST PUSH0 PUSH2 0xC3E PUSH1 0x2C DUP4 PUSH2 0x98F JUMP JUMPDEST SWAP2 POP PUSH2 0xC49 DUP3 PUSH2 0xBE4 JUMP JUMPDEST PUSH1 0x40 DUP3 ADD SWAP1 POP SWAP2 SWAP1 POP JUMP JUMPDEST PUSH0 PUSH1 0x20 DUP3 ADD SWAP1 POP DUP2 DUP2 SUB PUSH0 DUP4 ADD MSTORE PUSH2 0xC6B DUP2 PUSH2 0xC32 JUMP JUMPDEST SWAP1 POP SWAP2 SWAP1 POP JUMP INVALID PUSH1 0x80 PUSH1 0x40 MSTORE CALLVALUE DUP1 ISZERO PUSH2 0xF JUMPI PUSH0 PUSH0 REVERT JUMPDEST POP PUSH1 0x40 MLOAD PUSH2 0x177B CODESIZE SUB DUP1 PUSH2 0x177B DUP4 CODECOPY DUP2 DUP2 ADD PUSH1 0x40 MSTORE DUP2 ADD SWAP1 PUSH2 0x31 SWAP2 SWAP1 PUSH2 0x257 JUMP JUMPDEST DUP1 PUSH2 0x41 DUP2 PUSH2 0x48 PUSH1 0x20 SHL PUSH1 0x20 SHR JUMP JUMPDEST POP POP PUSH2 0x3F0 JUMP JUMPDEST PUSH0 PUSH20 0xFFFFFFFFFFFFFFFFFFFFFFFFFFFFFFFFFFFFFFFF AND DUP2 PUSH20 0xFFFFFFFFFFFFFFFFFFFFFFFFFFFFFFFFFFFFFFFF AND SUB PUSH2 0xB6 JUMPI PUSH1 0x40 MLOAD PUSH32 0x8C379A000000000000000000000000000000000000000000000000000000000 DUP2 MSTORE PUSH1 0x4 ADD PUSH2 0xAD SWAP1 PUSH2 0x2DC JUMP JUMPDEST PUSH1 0x40 MLOAD DUP1 SWAP2 SUB SWAP1 REVERT JUMPDEST PUSH0 DUP2 PUSH20 0xFFFFFFFFFFFFFFFFFFFFFFFFFFFFFFFFFFFFFFFF AND EXTCODESIZE GT PUSH2 0x10F JUMPI PUSH1 0x40 MLOAD PUSH32 0x8C379A000000000000000000000000000000000000000000000000000000000 DUP2 MSTORE PUSH1 0x4 ADD PUSH2 0x106 SWAP1 PUSH2 0x344 JUMP JUMPDEST PUSH1 0x40 MLOAD DUP1 SWAP2 SUB SWAP1 REVERT JUMPDEST DUP1 PUSH20 0xFFFFFFFFFFFFFFFFFFFFFFFFFFFFFFFFFFFFFFFF AND PUSH4 0x8DA5CB5B PUSH1 0x40 MLOAD DUP2 PUSH4 0xFFFFFFFF AND PUSH1 0xE0 SHL DUP2 MSTORE PUSH1 0x4 ADD PUSH1 0x20 PUSH1 0x40 MLOAD DUP1 DUP4 SUB DUP2 DUP7 GAS STATICCALL SWAP3 POP POP POP DUP1 ISZERO PUSH2 0x177 JUMPI POP PUSH1 0x40 MLOAD RETURNDATASIZE PUSH1 0x1F NOT PUSH1 0x1F DUP3 ADD AND DUP3 ADD DUP1 PUSH1 0x40 MSTORE POP DUP2 ADD SWAP1 PUSH2 0x174 SWAP2 SWAP1 PUSH2 0x257 JUMP JUMPDEST PUSH1 0x1 JUMPDEST PUSH2 0x1B6 JUMPI PUSH1 0x40 MLOAD PUSH32 0x8C379A000000000000000000000000000000000000000000000000000000000 DUP2 MSTORE PUSH1 0x4 ADD PUSH2 0x1AD SWAP1 PUSH2 0x3D2 JUMP JUMPDEST PUSH1 0x40 MLOAD DUP1 SWAP2 SUB SWAP1 REVERT JUMPDEST DUP2 PUSH0 PUSH0 PUSH2 0x100 EXP DUP2 SLOAD DUP2 PUSH20 0xFFFFFFFFFFFFFFFFFFFFFFFFFFFFFFFFFFFFFFFF MUL NOT AND SWAP1 DUP4 PUSH20 0xFFFFFFFFFFFFFFFFFFFFFFFFFFFFFFFFFFFFFFFF AND MUL OR SWAP1 SSTORE POP POP POP JUMP JUMPDEST PUSH0 PUSH0 REVERT JUMPDEST PUSH0 PUSH20 0xFFFFFFFFFFFFFFFFFFFFFFFFFFFFFFFFFFFFFFFF DUP3 AND SWAP1 POP SWAP2 SWAP1 POP JUMP JUMPDEST PUSH0 PUSH2 0x226 DUP3 PUSH2 0x1FD JUMP JUMPDEST SWAP1 POP SWAP2 SWAP1 POP JUMP JUMPDEST PUSH2 0x236 DUP2 PUSH2 0x21C JUMP JUMPDEST DUP2 EQ PUSH2 0x240 JUMPI PUSH0 PUSH0 REVERT JUMPDEST POP JUMP JUMPDEST PUSH0 DUP2 MLOAD SWAP1 POP PUSH2 0x251 DUP2 PUSH2 0x22D JUMP JUMPDEST SWAP3 SWAP2 POP POP JUMP JUMPDEST PUSH0 PUSH1 0x20 DUP3 DUP5 SUB SLT ISZERO PUSH2 0x26C JUMPI PUSH2 0x26B PUSH2 0x1F9 JUMP JUMPDEST JUMPDEST PUSH0 PUSH2 0x279 DUP5 DUP3 DUP6 ADD PUSH2 0x243 JUMP JUMPDEST SWAP2 POP POP SWAP3 SWAP2 POP POP JUMP JUMPDEST PUSH0 DUP3 DUP3 MSTORE PUSH1 0x20 DUP3 ADD SWAP1 POP SWAP3 SWAP2 POP POP JUMP JUMPDEST PUSH32 0x4469726563746F72792063616E6E6F74206265207A65726F2061646472657373 PUSH0 DUP3 ADD MSTORE POP JUMP JUMPDEST PUSH0 PUSH2 0x2C6 PUSH1 0x20 DUP4 PUSH2 0x282 JUMP JUMPDEST SWAP2 POP PUSH2 0x2D1 DUP3 PUSH2 0x292 JUMP JUMPDEST PUSH1 0x20 DUP3 ADD SWAP1 POP SWAP2 SWAP1 POP JUMP JUMPDEST PUSH0 PUSH1 0x20 DUP3 ADD SWAP1 POP DUP2 DUP2 SUB PUSH0 DUP4 ADD MSTORE PUSH2 0x2F3 DUP2 PUSH2 0x2BA JUMP JUMPDEST SWAP1 POP SWAP2 SWAP1 POP JUMP JUMPDEST PUSH32 0x4469726563746F7279206D757374206265206120636F6E747261637400000000 PUSH0 DUP3 ADD MSTORE POP JUMP JUMPDEST PUSH0 PUSH2 0x32E PUSH1 0x1C DUP4 PUSH2 0x282 JUMP JUMPDEST SWAP2 POP PUSH2 0x339 DUP3 PUSH2 0x2FA JUMP JUMPDEST PUSH1 0x20 DUP3 ADD SWAP1 POP SWAP2 SWAP1 POP JUMP JUMPDEST PUSH0 PUSH1 0x20 DUP3 ADD SWAP1 POP DUP2 DUP2 SUB PUSH0 DUP4 ADD MSTORE PUSH2 0x35B DUP2 PUSH2 0x322 JUMP JUMPDEST SWAP1 POP SWAP2 SWAP1 POP JUMP JUMPDEST PUSH32 0x4469726563746F7279206164647265737320646F6573206E6F7420696D706C65 PUSH0 DUP3 ADD MSTORE PUSH32 0x6D656E74206F776E657228290000000000000000000000000000000000000000 PUSH1 0x20 DUP3 ADD MSTORE POP JUMP JUMPDEST PUSH0 PUSH2 0x3BC PUSH1 0x2C DUP4 PUSH2 0x282 JUMP JUMPDEST SWAP2 POP PUSH2 0x3C7 DUP3 PUSH2 0x362 JUMP JUMPDEST PUSH1 0x40 DUP3 ADD SWAP1 POP SWAP2 SWAP1 POP JUMP JUMPDEST PUSH0 PUSH1 0x20 DUP3 ADD SWAP1 POP DUP2 DUP2 SUB PUSH0 DUP4 ADD MSTORE PUSH2 0x3E9 DUP2 PUSH2 0x3B0 JUMP JUMPDEST SWAP1 POP SWAP2 SWAP1 POP JUMP JUMPDEST PUSH2 0x137E DUP1 PUSH2 0x3FD PUSH0 CODECOPY PUSH0 RETURN INVALID PUSH1 0x80 PUSH1 0x40 MSTORE CALLVALUE DUP1 ISZERO PUSH2 0xF JUMPI PUSH0 PUSH0 REVERT JUMPDEST POP PUSH1 0x4 CALLDATASIZE LT PUSH2 0x60 JUMPI PUSH0 CALLDATALOAD PUSH1 0xE0 SHR DUP1 PUSH4 0x9053AC4 EQ PUSH2 0x64 JUMPI DUP1 PUSH4 0x27262618 EQ PUSH2 0x80 JUMPI DUP1 PUSH4 0x5C833BFD EQ PUSH2 0xB0 JUMPI DUP1 PUSH4 0x658A847A EQ PUSH2 0xCC JUMPI DUP1 PUSH4 0x8DA5CB5B EQ PUSH2 0xEA JUMPI DUP1 PUSH4 0xBA4C7BE1 EQ PUSH2 0x108 JUMPI JUMPDEST PUSH0 PUSH0 REVERT JUMPDEST PUSH2 0x7E PUSH1 0x4 DUP1 CALLDATASIZE SUB DUP2 ADD SWAP1 PUSH2 0x79 SWAP2 SWAP1 PUSH2 0xAFA JUMP JUMPDEST PUSH2 0x124 JUMP JUMPDEST STOP JUMPDEST PUSH2 0x9A PUSH1 0x4 DUP1 CALLDATASIZE SUB DUP2 ADD SWAP1 PUSH2 0x95 SWAP2 SWAP1 PUSH2 0xC74 JUMP JUMPDEST PUSH2 0x22C JUMP JUMPDEST PUSH1 0x40 MLOAD PUSH2 0xA7 SWAP2 SWAP1 PUSH2 0xCCA JUMP JUMPDEST PUSH1 0x40 MLOAD DUP1 SWAP2 SUB SWAP1 RETURN JUMPDEST PUSH2 0xCA PUSH1 0x4 DUP1 CALLDATASIZE SUB DUP2 ADD SWAP1 PUSH2 0xC5 SWAP2 SWAP1 PUSH2 0xD16 JUMP JUMPDEST PUSH2 0x2CC JUMP JUMPDEST STOP JUMPDEST PUSH2 0xD4 PUSH2 0x387 JUMP JUMPDEST PUSH1 0x40 MLOAD PUSH2 0xE1 SWAP2 SWAP1 PUSH2 0xDC1 JUMP JUMPDEST PUSH1 0x40 MLOAD DUP1 SWAP2 SUB SWAP1 RETURN JUMPDEST PUSH2 0xF2 PUSH2 0x3AB JUMP JUMPDEST PUSH1 0x40 MLOAD PUSH2 0xFF SWAP2 SWAP1 PUSH2 0xCCA JUMP JUMPDEST PUSH1 0x40 MLOAD DUP1 SWAP2 SUB SWAP1 RETURN JUMPDEST PUSH2 0x122 PUSH1 0x4 DUP1 CALLDATASIZE SUB DUP2 ADD SWAP1 PUSH2 0x11D SWAP2 SWAP1 PUSH2 0xDDA JUMP JUMPDEST PUSH2 0x43E JUMP JUMPDEST STOP JUMPDEST PUSH0 PUSH0 SWAP1 SLOAD SWAP1 PUSH2 0x100 EXP SWAP1 DIV PUSH20 0xFFFFFFFFFFFFFFFFFFFFFFFFFFFFFFFFFFFFFFFF AND PUSH20 0xFFFFFFFFFFFFFFFFFFFFFFFFFFFFFFFFFFFFFFFF AND PUSH4 0x8DA5CB5B PUSH1 0x40 MLOAD DUP2 PUSH4 0xFFFFFFFF AND PUSH1 0xE0 SHL DUP2 MSTORE PUSH1 0x4 ADD PUSH1 0x20 PUSH1 0x40 MLOAD DUP1 DUP4 SUB DUP2 DUP7 GAS STATICCALL ISZERO DUP1 ISZERO PUSH2 0x18D JUMPI RETURNDATASIZE PUSH0 PUSH0 RETURNDATACOPY RETURNDATASIZE PUSH0 REVERT JUMPDEST POP POP POP POP PUSH1 0x40 MLOAD RETURNDATASIZE PUSH1 0x1F NOT PUSH1 0x1F DUP3 ADD AND DUP3 ADD DUP1 PUSH1 0x40 MSTORE POP DUP2 ADD SWAP1 PUSH2 0x1B1 SWAP2 SWAP1 PUSH2 0xE19 JUMP JUMPDEST PUSH20 0xFFFFFFFFFFFFFFFFFFFFFFFFFFFFFFFFFFFFFFFF AND CALLER PUSH20 0xFFFFFFFFFFFFFFFFFFFFFFFFFFFFFFFFFFFFFFFF AND EQ PUSH2 0x21E JUMPI PUSH1 0x40 MLOAD PUSH32 0x8C379A000000000000000000000000000000000000000000000000000000000 DUP2 MSTORE PUSH1 0x4 ADD PUSH2 0x215 SWAP1 PUSH2 0xE9E JUMP JUMPDEST PUSH1 0x40 MLOAD DUP1 SWAP2 SUB SWAP1 REVERT JUMPDEST PUSH2 0x228 DUP3 DUP3 PUSH2 0x544 JUMP JUMPDEST POP POP JUMP JUMPDEST PUSH0 PUSH0 PUSH0 SWAP1 SLOAD SWAP1 PUSH2 0x100 EXP SWAP1 DIV PUSH20 0xFFFFFFFFFFFFFFFFFFFFFFFFFFFFFFFFFFFFFFFF AND PUSH20 0xFFFFFFFFFFFFFFFFFFFFFFFFFFFFFFFFFFFFFFFF AND PUSH4 0x27262618 DUP4 PUSH1 0x40 MLOAD DUP3 PUSH4 0xFFFFFFFF AND PUSH1 0xE0 SHL DUP2 MSTORE PUSH1 0x4 ADD PUSH2 0x286 SWAP2 SWAP1 PUSH2 0xF0C JUMP JUMPDEST PUSH1 0x20 PUSH1 0x40 MLOAD DUP1 DUP4 SUB DUP2 DUP7 GAS STATICCALL ISZERO DUP1 ISZERO PUSH2 0x2A1 JUMPI RETURNDATASIZE PUSH0 PUSH0 RETURNDATACOPY RETURNDATASIZE PUSH0 REVERT JUMPDEST POP POP POP POP PUSH1 0x40 MLOAD RETURNDATASIZE PUSH1 0x1F NOT PUSH1 0x1F DUP3 ADD AND DUP3 ADD DUP1 PUSH1 0x40 MSTORE POP DUP2 ADD SWAP1 PUSH2 0x2C5 SWAP2 SWAP1 PUSH2 0xE19 JUMP JUMPDEST SWAP1 POP SWAP2 SWAP1 POP JUMP JUMPDEST PUSH2 0x30A PUSH1 0x40 MLOAD DUP1 PUSH1 0x40 ADD PUSH1 0x40 MSTORE DUP1 PUSH1 0xA DUP2 MSTORE PUSH1 0x20 ADD PUSH32 0x6574662D726F7574657200000000000000000000000000000000000000000000 DUP2 MSTORE POP PUSH2 0x22C JUMP JUMPDEST PUSH20 0xFFFFFFFFFFFFFFFFFFFFFFFFFFFFFFFFFFFFFFFF AND CALLER PUSH20 0xFFFFFFFFFFFFFFFFFFFFFFFFFFFFFFFFFFFFFFFF AND EQ PUSH2 0x377 JUMPI PUSH1 0x40 MLOAD PUSH32 0x8C379A000000000000000000000000000000000000000000000000000000000 DUP2 MSTORE PUSH1 0x4 ADD PUSH2 0x36E SWAP1 PUSH2 0xF76 JUMP JUMPDEST PUSH1 0x40 MLOAD DUP1 SWAP2 SUB SWAP1 REVERT JUMPDEST PUSH2 0x382 DUP4 DUP3 DUP5 PUSH2 0x552 JUMP JUMPDEST POP POP POP JUMP JUMPDEST PUSH0 PUSH0 SWAP1 SLOAD SWAP1 PUSH2 0x100 EXP SWAP1 DIV PUSH20 0xFFFFFFFFFFFFFFFFFFFFFFFFFFFFFFFFFFFFFFFF AND DUP2 JUMP JUMPDEST PUSH0 PUSH0 PUSH0 SWAP1 SLOAD SWAP1 PUSH2 0x100 EXP SWAP1 DIV PUSH20 0xFFFFFFFFFFFFFFFFFFFFFFFFFFFFFFFFFFFFFFFF AND PUSH20 0xFFFFFFFFFFFFFFFFFFFFFFFFFFFFFFFFFFFFFFFF AND PUSH4 0x8DA5CB5B PUSH1 0x40 MLOAD DUP2 PUSH4 0xFFFFFFFF AND PUSH1 0xE0 SHL DUP2 MSTORE PUSH1 0x4 ADD PUSH1 0x20 PUSH1 0x40 MLOAD DUP1 DUP4 SUB DUP2 DUP7 GAS STATICCALL ISZERO DUP1 ISZERO PUSH2 0x415 JUMPI RETURNDATASIZE PUSH0 PUSH0 RETURNDATACOPY RETURNDATASIZE PUSH0 REVERT JUMPDEST POP POP POP POP PUSH1 0x40 MLOAD RETURNDATASIZE PUSH1 0x1F NOT PUSH1 0x1F DUP3 ADD AND DUP3 ADD DUP1 PUSH1 0x40 MSTORE POP DUP2 ADD SWAP1 PUSH2 0x439 SWAP2 SWAP1 PUSH2 0xE19 JUMP JUMPDEST SWAP1 POP SWAP1 JUMP JUMPDEST PUSH0 PUSH0 SWAP1 SLOAD SWAP1 PUSH2 0x100 EXP SWAP1 DIV PUSH20 0xFFFFFFFFFFFFFFFFFFFFFFFFFFFFFFFFFFFFFFFF AND PUSH20 0xFFFFFFFFFFFFFFFFFFFFFFFFFFFFFFFFFFFFFFFF AND PUSH4 0x8DA5CB5B PUSH1 0x40 MLOAD DUP2 PUSH4 0xFFFFFFFF AND PUSH1 0xE0 SHL DUP2 MSTORE PUSH1 0x4 ADD PUSH1 0x20 PUSH1 0x40 MLOAD DUP1 DUP4 SUB DUP2 DUP7 GAS STATICCALL ISZERO DUP1 ISZERO PUSH2 0x4A7 JUMPI RETURNDATASIZE PUSH0 PUSH0 RETURNDATACOPY RETURNDATASIZE PUSH0 REVERT JUMPDEST POP POP POP POP PUSH1 0x40 MLOAD RETURNDATASIZE PUSH1 0x1F NOT PUSH1 0x1F DUP3 ADD AND DUP3 ADD DUP1 PUSH1 0x40 MSTORE POP DUP2 ADD SWAP1 PUSH2 0x4CB SWAP2 SWAP1 PUSH2 0xE19 JUMP JUMPDEST PUSH20 0xFFFFFFFFFFFFFFFFFFFFFFFFFFFFFFFFFFFFFFFF AND CALLER PUSH20 0xFFFFFFFFFFFFFFFFFFFFFFFFFFFFFFFFFFFFFFFF AND EQ PUSH2 0x538 JUMPI PUSH1 0x40 MLOAD PUSH32 0x8C379A000000000000000000000000000000000000000000000000000000000 DUP2 MSTORE PUSH1 0x4 ADD PUSH2 0x52F SWAP1 PUSH2 0xE9E JUMP JUMPDEST PUSH1 0x40 MLOAD DUP1 SWAP2 SUB SWAP1 REVERT JUMPDEST PUSH2 0x541 DUP2 PUSH2 0x5C9 JUMP JUMPDEST POP JUMP JUMPDEST PUSH2 0x54E DUP3 DUP3 PUSH2 0x77A JUMP JUMPDEST POP POP JUMP JUMPDEST PUSH0 DUP4 SWAP1 POP PUSH0 DUP3 GT PUSH2 0x598 JUMPI PUSH1 0x40 MLOAD PUSH32 0x8C379A000000000000000000000000000000000000000000000000000000000 DUP2 MSTORE PUSH1 0x4 ADD PUSH2 0x58F SWAP1 PUSH2 0xFDE JUMP JUMPDEST PUSH1 0x40 MLOAD DUP1 SWAP2 SUB SWAP1 REVERT JUMPDEST PUSH2 0x5C3 DUP4 DUP4 DUP4 PUSH20 0xFFFFFFFFFFFFFFFFFFFFFFFFFFFFFFFFFFFFFFFF AND PUSH2 0x843 SWAP1 SWAP3 SWAP2 SWAP1 PUSH4 0xFFFFFFFF AND JUMP JUMPDEST POP POP POP POP JUMP JUMPDEST PUSH0 PUSH20 0xFFFFFFFFFFFFFFFFFFFFFFFFFFFFFFFFFFFFFFFF AND DUP2 PUSH20 0xFFFFFFFFFFFFFFFFFFFFFFFFFFFFFFFFFFFFFFFF AND SUB PUSH2 0x637 JUMPI PUSH1 0x40 MLOAD PUSH32 0x8C379A000000000000000000000000000000000000000000000000000000000 DUP2 MSTORE PUSH1 0x4 ADD PUSH2 0x62E SWAP1 PUSH2 0x1046 JUMP JUMPDEST PUSH1 0x40 MLOAD DUP1 SWAP2 SUB SWAP1 REVERT JUMPDEST PUSH0 DUP2 PUSH20 0xFFFFFFFFFFFFFFFFFFFFFFFFFFFFFFFFFFFFFFFF AND EXTCODESIZE GT PUSH2 0x690 JUMPI PUSH1 0x40 MLOAD PUSH32 0x8C379A000000000000000000000000000000000000000000000000000000000 DUP2 MSTORE PUSH1 0x4 ADD PUSH2 0x687 SWAP1 PUSH2 0x10AE JUMP JUMPDEST PUSH1 0x40 MLOAD DUP1 SWAP2 SUB SWAP1 REVERT JUMPDEST DUP1 PUSH20 0xFFFFFFFFFFFFFFFFFFFFFFFFFFFFFFFFFFFFFFFF AND PUSH4 0x8DA5CB5B PUSH1 0x40 MLOAD DUP2 PUSH4 0xFFFFFFFF AND PUSH1 0xE0 SHL DUP2 MSTORE PUSH1 0x4 ADD PUSH1 0x20 PUSH1 0x40 MLOAD DUP1 DUP4 SUB DUP2 DUP7 GAS STATICCALL SWAP3 POP POP POP DUP1 ISZERO PUSH2 0x6F8 JUMPI POP PUSH1 0x40 MLOAD RETURNDATASIZE PUSH1 0x1F NOT PUSH1 0x1F DUP3 ADD AND DUP3 ADD DUP1 PUSH1 0x40 MSTORE POP DUP2 ADD SWAP1 PUSH2 0x6F5 SWAP2 SWAP1 PUSH2 0xE19 JUMP JUMPDEST PUSH1 0x1 JUMPDEST PUSH2 0x737 JUMPI PUSH1 0x40 MLOAD PUSH32 0x8C379A000000000000000000000000000000000000000000000000000000000 DUP2 MSTORE PUSH1 0x4 ADD PUSH2 0x72E SWAP1 PUSH2 0x113C JUMP JUMPDEST PUSH1 0x40 MLOAD DUP1 SWAP2 SUB SWAP1 REVERT JUMPDEST DUP2 PUSH0 PUSH0 PUSH2 0x100 EXP DUP2 SLOAD DUP2 PUSH20 0xFFFFFFFFFFFFFFFFFFFFFFFFFFFFFFFFFFFFFFFF MUL NOT AND SWAP1 DUP4 PUSH20 0xFFFFFFFFFFFFFFFFFFFFFFFFFFFFFFFFFFFFFFFF AND MUL OR SWAP1 SSTORE POP POP POP JUMP JUMPDEST PUSH0 PUSH20 0xFFFFFFFFFFFFFFFFFFFFFFFFFFFFFFFFFFFFFFFF AND DUP3 PUSH20 0xFFFFFFFFFFFFFFFFFFFFFFFFFFFFFFFFFFFFFFFF AND SUB PUSH2 0x7BC JUMPI PUSH2 0x7B7 DUP2 SELFBALANCE PUSH2 0x8C2 JUMP JUMPDEST PUSH2 0x83F JUMP JUMPDEST PUSH2 0x83E DUP3 DUP3 DUP5 PUSH20 0xFFFFFFFFFFFFFFFFFFFFFFFFFFFFFFFFFFFFFFFF AND PUSH4 0x70A08231 ADDRESS PUSH1 0x40 MLOAD DUP3 PUSH4 0xFFFFFFFF AND PUSH1 0xE0 SHL DUP2 MSTORE PUSH1 0x4 ADD PUSH2 0x7FA SWAP2 SWAP1 PUSH2 0xCCA JUMP JUMPDEST PUSH1 0x20 PUSH1 0x40 MLOAD DUP1 DUP4 SUB DUP2 DUP7 GAS STATICCALL ISZERO DUP1 ISZERO PUSH2 0x815 JUMPI RETURNDATASIZE PUSH0 PUSH0 RETURNDATACOPY RETURNDATASIZE PUSH0 REVERT JUMPDEST POP POP POP POP PUSH1 0x40 MLOAD RETURNDATASIZE PUSH1 0x1F NOT PUSH1 0x1F DUP3 ADD AND DUP3 ADD DUP1 PUSH1 0x40 MSTORE POP DUP2 ADD SWAP1 PUSH2 0x839 SWAP2 SWAP1 PUSH2 0x116E JUMP JUMPDEST PUSH2 0x552 JUMP JUMPDEST JUMPDEST POP POP JUMP JUMPDEST PUSH2 0x8BD DUP4 DUP5 PUSH20 0xFFFFFFFFFFFFFFFFFFFFFFFFFFFFFFFFFFFFFFFF AND PUSH4 0xA9059CBB DUP6 DUP6 PUSH1 0x40 MLOAD PUSH1 0x24 ADD PUSH2 0x876 SWAP3 SWAP2 SWAP1 PUSH2 0x11A8 JUMP JUMPDEST PUSH1 0x40 MLOAD PUSH1 0x20 DUP2 DUP4 SUB SUB DUP2 MSTORE SWAP1 PUSH1 0x40 MSTORE SWAP2 POP PUSH1 0xE0 SHL PUSH1 0x20 DUP3 ADD DUP1 MLOAD PUSH28 0xFFFFFFFFFFFFFFFFFFFFFFFFFFFFFFFFFFFFFFFFFFFFFFFFFFFFFFFF DUP4 DUP2 DUP4 AND OR DUP4 MSTORE POP POP POP POP PUSH2 0x9F4 JUMP JUMPDEST POP POP POP JUMP JUMPDEST PUSH0 DUP2 GT PUSH2 0x904 JUMPI PUSH1 0x40 MLOAD PUSH32 0x8C379A000000000000000000000000000000000000000000000000000000000 DUP2 MSTORE PUSH1 0x4 ADD PUSH2 0x8FB SWAP1 PUSH2 0x1219 JUMP JUMPDEST PUSH1 0x40 MLOAD DUP1 SWAP2 SUB SWAP1 REVERT JUMPDEST DUP1 SELFBALANCE LT ISZERO PUSH2 0x947 JUMPI PUSH1 0x40 MLOAD PUSH32 0x8C379A000000000000000000000000000000000000000000000000000000000 DUP2 MSTORE PUSH1 0x4 ADD PUSH2 0x93E SWAP1 PUSH2 0x1281 JUMP JUMPDEST PUSH1 0x40 MLOAD DUP1 SWAP2 SUB SWAP1 REVERT JUMPDEST PUSH0 DUP3 PUSH20 0xFFFFFFFFFFFFFFFFFFFFFFFFFFFFFFFFFFFFFFFF AND DUP3 PUSH1 0x40 MLOAD PUSH2 0x96C SWAP1 PUSH2 0x12CC JUMP JUMPDEST PUSH0 PUSH1 0x40 MLOAD DUP1 DUP4 SUB DUP2 DUP6 DUP8 GAS CALL SWAP3 POP POP POP RETURNDATASIZE DUP1 PUSH0 DUP2 EQ PUSH2 0x9A6 JUMPI PUSH1 0x40 MLOAD SWAP2 POP PUSH1 0x1F NOT PUSH1 0x3F RETURNDATASIZE ADD AND DUP3 ADD PUSH1 0x40 MSTORE RETURNDATASIZE DUP3 MSTORE RETURNDATASIZE PUSH0 PUSH1 0x20 DUP5 ADD RETURNDATACOPY PUSH2 0x9AB JUMP JUMPDEST PUSH1 0x60 SWAP2 POP JUMPDEST POP POP SWAP1 POP DUP1 PUSH2 0x9EF JUMPI PUSH1 0x40 MLOAD PUSH32 0x8C379A000000000000000000000000000000000000000000000000000000000 DUP2 MSTORE PUSH1 0x4 ADD PUSH2 0x9E6 SWAP1 PUSH2 0x132A JUMP JUMPDEST PUSH1 0x40 MLOAD DUP1 SWAP2 SUB SWAP1 REVERT JUMPDEST POP POP POP JUMP JUMPDEST PUSH0 PUSH0 PUSH1 0x20 PUSH0 DUP5 MLOAD PUSH1 0x20 DUP7 ADD PUSH0 DUP9 GAS CALL DUP1 PUSH2 0xA13 JUMPI PUSH1 0x40 MLOAD RETURNDATASIZE PUSH0 DUP3 RETURNDATACOPY RETURNDATASIZE DUP2 REVERT JUMPDEST RETURNDATASIZE SWAP3 POP PUSH0 MLOAD SWAP2 POP POP PUSH0 DUP3 EQ PUSH2 0xA2C JUMPI PUSH1 0x1 DUP2 EQ ISZERO PUSH2 0xA47 JUMP JUMPDEST PUSH0 DUP5 PUSH20 0xFFFFFFFFFFFFFFFFFFFFFFFFFFFFFFFFFFFFFFFF AND EXTCODESIZE EQ JUMPDEST ISZERO PUSH2 0xA89 JUMPI DUP4 PUSH1 0x40 MLOAD PUSH32 0x5274AFE700000000000000000000000000000000000000000000000000000000 DUP2 MSTORE PUSH1 0x4 ADD PUSH2 0xA80 SWAP2 SWAP1 PUSH2 0xCCA JUMP JUMPDEST PUSH1 0x40 MLOAD DUP1 SWAP2 SUB SWAP1 REVERT JUMPDEST POP POP POP POP JUMP JUMPDEST PUSH0 PUSH1 0x40 MLOAD SWAP1 POP SWAP1 JUMP JUMPDEST PUSH0 PUSH0 REVERT JUMPDEST PUSH0 PUSH0 REVERT JUMPDEST PUSH0 PUSH20 0xFFFFFFFFFFFFFFFFFFFFFFFFFFFFFFFFFFFFFFFF DUP3 AND SWAP1 POP SWAP2 SWAP1 POP JUMP JUMPDEST PUSH0 PUSH2 0xAC9 DUP3 PUSH2 0xAA0 JUMP JUMPDEST SWAP1 POP SWAP2 SWAP1 POP JUMP JUMPDEST PUSH2 0xAD9 DUP2 PUSH2 0xABF JUMP JUMPDEST DUP2 EQ PUSH2 0xAE3 JUMPI PUSH0 PUSH0 REVERT JUMPDEST POP JUMP JUMPDEST PUSH0 DUP2 CALLDATALOAD SWAP1 POP PUSH2 0xAF4 DUP2 PUSH2 0xAD0 JUMP JUMPDEST SWAP3 SWAP2 POP POP JUMP JUMPDEST PUSH0 PUSH0 PUSH1 0x40 DUP4 DUP6 SUB SLT ISZERO PUSH2 0xB10 JUMPI PUSH2 0xB0F PUSH2 0xA98 JUMP JUMPDEST JUMPDEST PUSH0 PUSH2 0xB1D DUP6 DUP3 DUP7 ADD PUSH2 0xAE6 JUMP JUMPDEST SWAP3 POP POP PUSH1 0x20 PUSH2 0xB2E DUP6 DUP3 DUP7 ADD PUSH2 0xAE6 JUMP JUMPDEST SWAP2 POP POP SWAP3 POP SWAP3 SWAP1 POP JUMP JUMPDEST PUSH0 PUSH0 REVERT JUMPDEST PUSH0 PUSH0 REVERT JUMPDEST PUSH0 PUSH1 0x1F NOT PUSH1 0x1F DUP4 ADD AND SWAP1 POP SWAP2 SWAP1 POP JUMP JUMPDEST PUSH32 0x4E487B7100000000000000000000000000000000000000000000000000000000 PUSH0 MSTORE PUSH1 0x41 PUSH1 0x4 MSTORE PUSH1 0x24 PUSH0 REVERT JUMPDEST PUSH2 0xB86 DUP3 PUSH2 0xB40 JUMP JUMPDEST DUP2 ADD DUP2 DUP2 LT PUSH8 0xFFFFFFFFFFFFFFFF DUP3 GT OR ISZERO PUSH2 0xBA5 JUMPI PUSH2 0xBA4 PUSH2 0xB50 JUMP JUMPDEST JUMPDEST DUP1 PUSH1 0x40 MSTORE POP POP POP JUMP JUMPDEST PUSH0 PUSH2 0xBB7 PUSH2 0xA8F JUMP JUMPDEST SWAP1 POP PUSH2 0xBC3 DUP3 DUP3 PUSH2 0xB7D JUMP JUMPDEST SWAP2 SWAP1 POP JUMP JUMPDEST PUSH0 PUSH8 0xFFFFFFFFFFFFFFFF DUP3 GT ISZERO PUSH2 0xBE2 JUMPI PUSH2 0xBE1 PUSH2 0xB50 JUMP JUMPDEST JUMPDEST PUSH2 0xBEB DUP3 PUSH2 0xB40 JUMP JUMPDEST SWAP1 POP PUSH1 0x20 DUP2 ADD SWAP1 POP SWAP2 SWAP1 POP JUMP JUMPDEST DUP3 DUP2 DUP4 CALLDATACOPY PUSH0 DUP4 DUP4 ADD MSTORE POP POP POP JUMP JUMPDEST PUSH0 PUSH2 0xC18 PUSH2 0xC13 DUP5 PUSH2 0xBC8 JUMP JUMPDEST PUSH2 0xBAE JUMP JUMPDEST SWAP1 POP DUP3 DUP2 MSTORE PUSH1 0x20 DUP2 ADD DUP5 DUP5 DUP5 ADD GT ISZERO PUSH2 0xC34 JUMPI PUSH2 0xC33 PUSH2 0xB3C JUMP JUMPDEST JUMPDEST PUSH2 0xC3F DUP5 DUP3 DUP6 PUSH2 0xBF8 JUMP JUMPDEST POP SWAP4 SWAP3 POP POP POP JUMP JUMPDEST PUSH0 DUP3 PUSH1 0x1F DUP4 ADD SLT PUSH2 0xC5B JUMPI PUSH2 0xC5A PUSH2 0xB38 JUMP JUMPDEST JUMPDEST DUP2 CALLDATALOAD PUSH2 0xC6B DUP5 DUP3 PUSH1 0x20 DUP7 ADD PUSH2 0xC06 JUMP JUMPDEST SWAP2 POP POP SWAP3 SWAP2 POP POP JUMP JUMPDEST PUSH0 PUSH1 0x20 DUP3 DUP5 SUB SLT ISZERO PUSH2 0xC89 JUMPI PUSH2 0xC88 PUSH2 0xA98 JUMP JUMPDEST JUMPDEST PUSH0 DUP3 ADD CALLDATALOAD PUSH8 0xFFFFFFFFFFFFFFFF DUP2 GT ISZERO PUSH2 0xCA6 JUMPI PUSH2 0xCA5 PUSH2 0xA9C JUMP JUMPDEST JUMPDEST PUSH2 0xCB2 DUP5 DUP3 DUP6 ADD PUSH2 0xC47 JUMP JUMPDEST SWAP2 POP POP SWAP3 SWAP2 POP POP JUMP JUMPDEST PUSH2 0xCC4 DUP2 PUSH2 0xABF JUMP JUMPDEST DUP3 MSTORE POP POP JUMP JUMPDEST PUSH0 PUSH1 0x20 DUP3 ADD SWAP1 POP PUSH2 0xCDD PUSH0 DUP4 ADD DUP5 PUSH2 0xCBB JUMP JUMPDEST SWAP3 SWAP2 POP POP JUMP JUMPDEST PUSH0 DUP2 SWAP1 POP SWAP2 SWAP1 POP JUMP JUMPDEST PUSH2 0xCF5 DUP2 PUSH2 0xCE3 JUMP JUMPDEST DUP2 EQ PUSH2 0xCFF JUMPI PUSH0 PUSH0 REVERT JUMPDEST POP JUMP JUMPDEST PUSH0 DUP2 CALLDATALOAD SWAP1 POP PUSH2 0xD10 DUP2 PUSH2 0xCEC JUMP JUMPDEST SWAP3 SWAP2 POP POP JUMP JUMPDEST PUSH0 PUSH0 PUSH0 PUSH1 0x60 DUP5 DUP7 SUB SLT ISZERO PUSH2 0xD2D JUMPI PUSH2 0xD2C PUSH2 0xA98 JUMP JUMPDEST JUMPDEST PUSH0 PUSH2 0xD3A DUP7 DUP3 DUP8 ADD PUSH2 0xAE6 JUMP JUMPDEST SWAP4 POP POP PUSH1 0x20 PUSH2 0xD4B DUP7 DUP3 DUP8 ADD PUSH2 0xD02 JUMP JUMPDEST SWAP3 POP POP PUSH1 0x40 PUSH2 0xD5C DUP7 DUP3 DUP8 ADD PUSH2 0xAE6 JUMP JUMPDEST SWAP2 POP POP SWAP3 POP SWAP3 POP SWAP3 JUMP JUMPDEST PUSH0 DUP2 SWAP1 POP SWAP2 SWAP1 POP JUMP JUMPDEST PUSH0 PUSH2 0xD89 PUSH2 0xD84 PUSH2 0xD7F DUP5 PUSH2 0xAA0 JUMP JUMPDEST PUSH2 0xD66 JUMP JUMPDEST PUSH2 0xAA0 JUMP JUMPDEST SWAP1 POP SWAP2 SWAP1 POP JUMP JUMPDEST PUSH0 PUSH2 0xD9A DUP3 PUSH2 0xD6F JUMP JUMPDEST SWAP1 POP SWAP2 SWAP1 POP JUMP JUMPDEST PUSH0 PUSH2 0xDAB DUP3 PUSH2 0xD90 JUMP JUMPDEST SWAP1 POP SWAP2 SWAP1 POP JUMP JUMPDEST PUSH2 0xDBB DUP2 PUSH2 0xDA1 JUMP JUMPDEST DUP3 MSTORE POP POP JUMP JUMPDEST PUSH0 PUSH1 0x20 DUP3 ADD SWAP1 POP PUSH2 0xDD4 PUSH0 DUP4 ADD DUP5 PUSH2 0xDB2 JUMP JUMPDEST SWAP3 SWAP2 POP POP JUMP JUMPDEST PUSH0 PUSH1 0x20 DUP3 DUP5 SUB SLT ISZERO PUSH2 0xDEF JUMPI PUSH2 0xDEE PUSH2 0xA98 JUMP JUMPDEST JUMPDEST PUSH0 PUSH2 0xDFC DUP5 DUP3 DUP6 ADD PUSH2 0xAE6 JUMP JUMPDEST SWAP2 POP POP SWAP3 SWAP2 POP POP JUMP JUMPDEST PUSH0 DUP2 MLOAD SWAP1 POP PUSH2 0xE13 DUP2 PUSH2 0xAD0 JUMP JUMPDEST SWAP3 SWAP2 POP POP JUMP JUMPDEST PUSH0 PUSH1 0x20 DUP3 DUP5 SUB SLT ISZERO PUSH2 0xE2E JUMPI PUSH2 0xE2D PUSH2 0xA98 JUMP JUMPDEST JUMPDEST PUSH0 PUSH2 0xE3B DUP5 DUP3 DUP6 ADD PUSH2 0xE05 JUMP JUMPDEST SWAP2 POP POP SWAP3 SWAP2 POP POP JUMP JUMPDEST PUSH0 DUP3 DUP3 MSTORE PUSH1 0x20 DUP3 ADD SWAP1 POP SWAP3 SWAP2 POP POP JUMP JUMPDEST PUSH32 0x43616C6C6572206973206E6F7420746865206F776E6572000000000000000000 PUSH0 DUP3 ADD MSTORE POP JUMP JUMPDEST PUSH0 PUSH2 0xE88 PUSH1 0x17 DUP4 PUSH2 0xE44 JUMP JUMPDEST SWAP2 POP PUSH2 0xE93 DUP3 PUSH2 0xE54 JUMP JUMPDEST PUSH1 0x20 DUP3 ADD SWAP1 POP SWAP2 SWAP1 POP JUMP JUMPDEST PUSH0 PUSH1 0x20 DUP3 ADD SWAP1 POP DUP2 DUP2 SUB PUSH0 DUP4 ADD MSTORE PUSH2 0xEB5 DUP2 PUSH2 0xE7C JUMP JUMPDEST SWAP1 POP SWAP2 SWAP1 POP JUMP JUMPDEST PUSH0 DUP2 MLOAD SWAP1 POP SWAP2 SWAP1 POP JUMP JUMPDEST DUP3 DUP2 DUP4 MCOPY PUSH0 DUP4 DUP4 ADD MSTORE POP POP POP JUMP JUMPDEST PUSH0 PUSH2 0xEDE DUP3 PUSH2 0xEBC JUMP JUMPDEST PUSH2 0xEE8 DUP2 DUP6 PUSH2 0xE44 JUMP JUMPDEST SWAP4 POP PUSH2 0xEF8 DUP2 DUP6 PUSH1 0x20 DUP7 ADD PUSH2 0xEC6 JUMP JUMPDEST PUSH2 0xF01 DUP2 PUSH2 0xB40 JUMP JUMPDEST DUP5 ADD SWAP2 POP POP SWAP3 SWAP2 POP POP JUMP JUMPDEST PUSH0 PUSH1 0x20 DUP3 ADD SWAP1 POP DUP2 DUP2 SUB PUSH0 DUP4 ADD MSTORE PUSH2 0xF24 DUP2 DUP5 PUSH2 0xED4 JUMP JUMPDEST SWAP1 POP SWAP3 SWAP2 POP POP JUMP JUMPDEST PUSH32 0x6D73672E73656E646572206973206E6F742065746620726F7574657200000000 PUSH0 DUP3 ADD MSTORE POP JUMP JUMPDEST PUSH0 PUSH2 0xF60 PUSH1 0x1C DUP4 PUSH2 0xE44 JUMP JUMPDEST SWAP2 POP PUSH2 0xF6B DUP3 PUSH2 0xF2C JUMP JUMPDEST PUSH1 0x20 DUP3 ADD SWAP1 POP SWAP2 SWAP1 POP JUMP JUMPDEST PUSH0 PUSH1 0x20 DUP3 ADD SWAP1 POP DUP2 DUP2 SUB PUSH0 DUP4 ADD MSTORE PUSH2 0xF8D DUP2 PUSH2 0xF54 JUMP JUMPDEST SWAP1 POP SWAP2 SWAP1 POP JUMP JUMPDEST PUSH32 0x73656E64546F6B656E3A207A65726F20616D6F756E7400000000000000000000 PUSH0 DUP3 ADD MSTORE POP JUMP JUMPDEST PUSH0 PUSH2 0xFC8 PUSH1 0x16 DUP4 PUSH2 0xE44 JUMP JUMPDEST SWAP2 POP PUSH2 0xFD3 DUP3 PUSH2 0xF94 JUMP JUMPDEST PUSH1 0x20 DUP3 ADD SWAP1 POP SWAP2 SWAP1 POP JUMP JUMPDEST PUSH0 PUSH1 0x20 DUP3 ADD SWAP1 POP DUP2 DUP2 SUB PUSH0 DUP4 ADD MSTORE PUSH2 0xFF5 DUP2 PUSH2 0xFBC JUMP JUMPDEST SWAP1 POP SWAP2 SWAP1 POP JUMP JUMPDEST PUSH32 0x4469726563746F72792063616E6E6F74206265207A65726F2061646472657373 PUSH0 DUP3 ADD MSTORE POP JUMP JUMPDEST PUSH0 PUSH2 0x1030 PUSH1 0x20 DUP4 PUSH2 0xE44 JUMP JUMPDEST SWAP2 POP PUSH2 0x103B DUP3 PUSH2 0xFFC JUMP JUMPDEST PUSH1 0x20 DUP3 ADD SWAP1 POP SWAP2 SWAP1 POP JUMP JUMPDEST PUSH0 PUSH1 0x20 DUP3 ADD SWAP1 POP DUP2 DUP2 SUB PUSH0 DUP4 ADD MSTORE PUSH2 0x105D DUP2 PUSH2 0x1024 JUMP JUMPDEST SWAP1 POP SWAP2 SWAP1 POP JUMP JUMPDEST PUSH32 0x4469726563746F7279206D757374206265206120636F6E747261637400000000 PUSH0 DUP3 ADD MSTORE POP JUMP JUMPDEST PUSH0 PUSH2 0x1098 PUSH1 0x1C DUP4 PUSH2 0xE44 JUMP JUMPDEST SWAP2 POP PUSH2 0x10A3 DUP3 PUSH2 0x1064 JUMP JUMPDEST PUSH1 0x20 DUP3 ADD SWAP1 POP SWAP2 SWAP1 POP JUMP JUMPDEST PUSH0 PUSH1 0x20 DUP3 ADD SWAP1 POP DUP2 DUP2 SUB PUSH0 DUP4 ADD MSTORE PUSH2 0x10C5 DUP2 PUSH2 0x108C JUMP JUMPDEST SWAP1 POP SWAP2 SWAP1 POP JUMP JUMPDEST PUSH32 0x4469726563746F7279206164647265737320646F6573206E6F7420696D706C65 PUSH0 DUP3 ADD MSTORE PUSH32 0x6D656E74206F776E657228290000000000000000000000000000000000000000 PUSH1 0x20 DUP3 ADD MSTORE POP JUMP JUMPDEST PUSH0 PUSH2 0x1126 PUSH1 0x2C DUP4 PUSH2 0xE44 JUMP JUMPDEST SWAP2 POP PUSH2 0x1131 DUP3 PUSH2 0x10CC JUMP JUMPDEST PUSH1 0x40 DUP3 ADD SWAP1 POP SWAP2 SWAP1 POP JUMP JUMPDEST PUSH0 PUSH1 0x20 DUP3 ADD SWAP1 POP DUP2 DUP2 SUB PUSH0 DUP4 ADD MSTORE PUSH2 0x1153 DUP2 PUSH2 0x111A JUMP JUMPDEST SWAP1 POP SWAP2 SWAP1 POP JUMP JUMPDEST PUSH0 DUP2 MLOAD SWAP1 POP PUSH2 0x1168 DUP2 PUSH2 0xCEC JUMP JUMPDEST SWAP3 SWAP2 POP POP JUMP JUMPDEST PUSH0 PUSH1 0x20 DUP3 DUP5 SUB SLT ISZERO PUSH2 0x1183 JUMPI PUSH2 0x1182 PUSH2 0xA98 JUMP JUMPDEST JUMPDEST PUSH0 PUSH2 0x1190 DUP5 DUP3 DUP6 ADD PUSH2 0x115A JUMP JUMPDEST SWAP2 POP POP SWAP3 SWAP2 POP POP JUMP JUMPDEST PUSH2 0x11A2 DUP2 PUSH2 0xCE3 JUMP JUMPDEST DUP3 MSTORE POP POP JUMP JUMPDEST PUSH0 PUSH1 0x40 DUP3 ADD SWAP1 POP PUSH2 0x11BB PUSH0 DUP4 ADD DUP6 PUSH2 0xCBB JUMP JUMPDEST PUSH2 0x11C8 PUSH1 0x20 DUP4 ADD DUP5 PUSH2 0x1199 JUMP JUMPDEST SWAP4 SWAP3 POP POP POP JUMP JUMPDEST PUSH32 0x73656E644574683A207A65726F20616D6F756E74000000000000000000000000 PUSH0 DUP3 ADD MSTORE POP JUMP JUMPDEST PUSH0 PUSH2 0x1203 PUSH1 0x14 DUP4 PUSH2 0xE44 JUMP JUMPDEST SWAP2 POP PUSH2 0x120E DUP3 PUSH2 0x11CF JUMP JUMPDEST PUSH1 0x20 DUP3 ADD SWAP1 POP SWAP2 SWAP1 POP JUMP JUMPDEST PUSH0 PUSH1 0x20 DUP3 ADD SWAP1 POP DUP2 DUP2 SUB PUSH0 DUP4 ADD MSTORE PUSH2 0x1230 DUP2 PUSH2 0x11F7 JUMP JUMPDEST SWAP1 POP SWAP2 SWAP1 POP JUMP JUMPDEST PUSH32 0x73656E644574683A20696E73756666696369656E742045544800000000000000 PUSH0 DUP3 ADD MSTORE POP JUMP JUMPDEST PUSH0 PUSH2 0x126B PUSH1 0x19 DUP4 PUSH2 0xE44 JUMP JUMPDEST SWAP2 POP PUSH2 0x1276 DUP3 PUSH2 0x1237 JUMP JUMPDEST PUSH1 0x20 DUP3 ADD SWAP1 POP SWAP2 SWAP1 POP JUMP JUMPDEST PUSH0 PUSH1 0x20 DUP3 ADD SWAP1 POP DUP2 DUP2 SUB PUSH0 DUP4 ADD MSTORE PUSH2 0x1298 DUP2 PUSH2 0x125F JUMP JUMPDEST SWAP1 POP SWAP2 SWAP1 POP JUMP JUMPDEST PUSH0 DUP2 SWAP1 POP SWAP3 SWAP2 POP POP JUMP JUMPDEST POP JUMP JUMPDEST PUSH0 PUSH2 0x12B7 PUSH0 DUP4 PUSH2 0x129F JUMP JUMPDEST SWAP2 POP PUSH2 0x12C2 DUP3 PUSH2 0x12A9 JUMP JUMPDEST PUSH0 DUP3 ADD SWAP1 POP SWAP2 SWAP1 POP JUMP JUMPDEST PUSH0 PUSH2 0x12D6 DUP3 PUSH2 0x12AC JUMP JUMPDEST SWAP2 POP DUP2 SWAP1 POP SWAP2 SWAP1 POP JUMP JUMPDEST PUSH32 0x4554482073656E64206661696C65640000000000000000000000000000000000 PUSH0 DUP3 ADD MSTORE POP JUMP JUMPDEST PUSH0 PUSH2 0x1314 PUSH1 0xF DUP4 PUSH2 0xE44 JUMP JUMPDEST SWAP2 POP PUSH2 0x131F DUP3 PUSH2 0x12E0 JUMP JUMPDEST PUSH1 0x20 DUP3 ADD SWAP1 POP SWAP2 SWAP1 POP JUMP JUMPDEST PUSH0 PUSH1 0x20 DUP3 ADD SWAP1 POP DUP2 DUP2 SUB PUSH0 DUP4 ADD MSTORE PUSH2 0x1341 DUP2 PUSH2 0x1308 JUMP JUMPDEST SWAP1 POP SWAP2 SWAP1 POP JUMP INVALID LOG2 PUSH5 0x6970667358 0x22 SLT KECCAK256 0xBB SWAP4 0xDE 0xF 0xED 0xB4 EXTSTATICCALL PUSH1 0xB2 0x21 0x2C 0xBF 0xCC BASEFEE 0xEF PUSH7 0x6C00F951BA7A4E PUSH15 0xC6C616E5189196BF64736F6C634300 ADDMOD 0x1E STOP CALLER LOG2 PUSH5 0x6970667358 0x22 SLT KECCAK256 PUSH20 0xF0A60653A5CB2BDD386407995D41EE92D784C74 SELFDESTRUCT JUMP JUMPI 0xF6 STOP SWAP1 PUSH10 0x9B28950364736F6C6343 STOP ADDMOD 0x1E STOP CALLER "
				},
				"gasEstimates": {
					"creation": {
						"codeDepositCost": "1850200",
						"executionCost": "infinite",
						"totalCost": "infinite"
					},
					"external": {
						"Directory()": "infinite",
						"changeDirectoryAddress(address)": "infinite",
						"deployEtfVault(uint256)": "infinite",
						"fetchFromDirectory(string)": "infinite",
						"owner()": "infinite"
					}
				},
				"methodIdentifiers": {
					"Directory()": "658a847a",
					"changeDirectoryAddress(address)": "ba4c7be1",
					"deployEtfVault(uint256)": "b57c59a7",
					"fetchFromDirectory(string)": "27262618",
					"owner()": "8da5cb5b"
				}
			},
			"storageLayout": {
				"storage": [
					{
						"astId": 18,
						"contract": "hopium/etf/main/etf-vault-deployer.sol:EtfVaultDeployer",
						"label": "Directory",
						"offset": 0,
						"slot": "0",
						"type": "t_contract(IDirectory)15"
					}
				],
				"types": {
					"t_contract(IDirectory)15": {
						"encoding": "inplace",
						"label": "contract IDirectory",
						"numberOfBytes": "20"
					}
				}
			},
			"userdoc": {
				"kind": "user",
				"methods": {
					"deployEtfVault(uint256)": {
						"notice": "Deploys a new ERC20 index token and returns its address"
					}
				},
				"notice": "Factory that deploys Etf Vault",
				"version": 1
			}
		}
	}
}