{
	"hopium/standalone/main/multiswap-router.sol": {
		"MultiSwapRouter": {
			"abi": [
				{
					"inputs": [
						{
							"internalType": "address",
							"name": "routerAddress",
							"type": "address"
						}
					],
					"stateMutability": "nonpayable",
					"type": "constructor"
				},
				{
					"inputs": [
						{
							"internalType": "address",
							"name": "token",
							"type": "address"
						}
					],
					"name": "SafeERC20FailedOperation",
					"type": "error"
				},
				{
					"anonymous": false,
					"inputs": [
						{
							"indexed": true,
							"internalType": "address",
							"name": "to",
							"type": "address"
						},
						{
							"indexed": false,
							"internalType": "uint256",
							"name": "amountWeth",
							"type": "uint256"
						}
					],
					"name": "FeePaid",
					"type": "event"
				},
				{
					"anonymous": false,
					"inputs": [
						{
							"indexed": true,
							"internalType": "address",
							"name": "caller",
							"type": "address"
						},
						{
							"components": [
								{
									"internalType": "address",
									"name": "tokenAddress",
									"type": "address"
								},
								{
									"internalType": "uint256",
									"name": "amount",
									"type": "uint256"
								}
							],
							"indexed": false,
							"internalType": "struct SwapOrderInput[]",
							"name": "inputs",
							"type": "tuple[]"
						},
						{
							"components": [
								{
									"internalType": "address",
									"name": "tokenAddress",
									"type": "address"
								},
								{
									"internalType": "uint16",
									"name": "weightBips",
									"type": "uint16"
								}
							],
							"indexed": false,
							"internalType": "struct SwapOrderOutput[]",
							"name": "outputs",
							"type": "tuple[]"
						},
						{
							"indexed": false,
							"internalType": "uint256",
							"name": "slippageBips",
							"type": "uint256"
						},
						{
							"indexed": false,
							"internalType": "uint256",
							"name": "deadlineInSec",
							"type": "uint256"
						},
						{
							"components": [
								{
									"internalType": "address",
									"name": "feeAddress",
									"type": "address"
								},
								{
									"internalType": "uint16",
									"name": "feeBips",
									"type": "uint16"
								}
							],
							"indexed": false,
							"internalType": "struct SwapFee[]",
							"name": "fees",
							"type": "tuple[]"
						}
					],
					"name": "Swapped",
					"type": "event"
				},
				{
					"inputs": [],
					"name": "router",
					"outputs": [
						{
							"internalType": "contract IUniswapV2Router02",
							"name": "",
							"type": "address"
						}
					],
					"stateMutability": "view",
					"type": "function"
				},
				{
					"inputs": [
						{
							"components": [
								{
									"internalType": "address",
									"name": "tokenAddress",
									"type": "address"
								},
								{
									"internalType": "uint256",
									"name": "amount",
									"type": "uint256"
								}
							],
							"internalType": "struct SwapOrderInput[]",
							"name": "inputs",
							"type": "tuple[]"
						},
						{
							"components": [
								{
									"internalType": "address",
									"name": "tokenAddress",
									"type": "address"
								},
								{
									"internalType": "uint16",
									"name": "weightBips",
									"type": "uint16"
								}
							],
							"internalType": "struct SwapOrderOutput[]",
							"name": "outputs",
							"type": "tuple[]"
						},
						{
							"internalType": "address",
							"name": "receiver",
							"type": "address"
						},
						{
							"internalType": "uint256",
							"name": "slippageBips",
							"type": "uint256"
						},
						{
							"internalType": "uint256",
							"name": "deadlineInSec",
							"type": "uint256"
						},
						{
							"components": [
								{
									"internalType": "address",
									"name": "feeAddress",
									"type": "address"
								},
								{
									"internalType": "uint16",
									"name": "feeBips",
									"type": "uint16"
								}
							],
							"internalType": "struct SwapFee[]",
							"name": "fees",
							"type": "tuple[]"
						}
					],
					"name": "swap",
					"outputs": [],
					"stateMutability": "payable",
					"type": "function"
				},
				{
					"stateMutability": "payable",
					"type": "receive"
				}
			],
			"devdoc": {
				"errors": {
					"SafeERC20FailedOperation(address)": [
						{
							"details": "An operation with an ERC-20 token failed."
						}
					]
				},
				"kind": "dev",
				"methods": {},
				"version": 1
			},
			"evm": {
				"assembly": "    /* \"hopium/standalone/main/multiswap-router.sol\":11594:12969  contract MultiSwapRouter is Validations, ReentrancyGuard {... */\n  mstore(0x40, 0xa0)\n    /* \"hopium/standalone/main/multiswap-router.sol\":11657:11729  constructor(address routerAddress) ImUniswapV2Router02(routerAddress) {} */\n  callvalue\n  dup1\n  iszero\n  tag_1\n  jumpi\n  revert(0x00, 0x00)\ntag_1:\n  pop\n  mload(0x40)\n  sub(codesize, bytecodeSize)\n  dup1\n  bytecodeSize\n  dup4\n  codecopy\n  dup2\n  dup2\n  add\n  0x40\n  mstore\n  dup2\n  add\n  swap1\n  tag_2\n  swap2\n  swap1\n  tag_3\n  jump\t// in\ntag_2:\n    /* \"hopium/standalone/main/multiswap-router.sol\":11712:11725  routerAddress */\n  dup1\n    /* \"hopium/standalone/main/multiswap-router.sol\":1476:1489  routerAddress */\n  dup1\n    /* \"hopium/standalone/main/multiswap-router.sol\":1448:1490  router = IUniswapV2Router02(routerAddress) */\n  0xffffffffffffffffffffffffffffffffffffffff\n  and\n  0x80\n  dup2\n  0xffffffffffffffffffffffffffffffffffffffff\n  and\n  dup2\n  mstore\n  pop\n  pop\n    /* \"hopium/standalone/main/multiswap-router.sol\":1403:1497  constructor(address routerAddress) {... */\n  pop\n    /* \"@openzeppelin/contracts/security/ReentrancyGuard.sol\":1716:1717  1 */\n  0x01\n    /* \"@openzeppelin/contracts/security/ReentrancyGuard.sol\":1821:1828  _status */\n  0x00\n    /* \"@openzeppelin/contracts/security/ReentrancyGuard.sol\":1821:1843  _status = _NOT_ENTERED */\n  dup2\n  swap1\n  sstore\n  pop\n    /* \"hopium/standalone/main/multiswap-router.sol\":11657:11729  constructor(address routerAddress) ImUniswapV2Router02(routerAddress) {} */\n  pop\n    /* \"hopium/standalone/main/multiswap-router.sol\":11594:12969  contract MultiSwapRouter is Validations, ReentrancyGuard {... */\n  jump(tag_10)\n    /* \"#utility.yul\":88:205   */\ntag_12:\n    /* \"#utility.yul\":197:198   */\n  0x00\n    /* \"#utility.yul\":194:195   */\n  0x00\n    /* \"#utility.yul\":187:199   */\n  revert\n    /* \"#utility.yul\":334:460   */\ntag_14:\n    /* \"#utility.yul\":371:378   */\n  0x00\n    /* \"#utility.yul\":411:453   */\n  0xffffffffffffffffffffffffffffffffffffffff\n    /* \"#utility.yul\":404:409   */\n  dup3\n    /* \"#utility.yul\":400:454   */\n  and\n    /* \"#utility.yul\":389:454   */\n  swap1\n  pop\n    /* \"#utility.yul\":334:460   */\n  swap2\n  swap1\n  pop\n  jump\t// out\n    /* \"#utility.yul\":466:562   */\ntag_15:\n    /* \"#utility.yul\":503:510   */\n  0x00\n    /* \"#utility.yul\":532:556   */\n  tag_24\n    /* \"#utility.yul\":550:555   */\n  dup3\n    /* \"#utility.yul\":532:556   */\n  tag_14\n  jump\t// in\ntag_24:\n    /* \"#utility.yul\":521:556   */\n  swap1\n  pop\n    /* \"#utility.yul\":466:562   */\n  swap2\n  swap1\n  pop\n  jump\t// out\n    /* \"#utility.yul\":568:690   */\ntag_16:\n    /* \"#utility.yul\":641:665   */\n  tag_26\n    /* \"#utility.yul\":659:664   */\n  dup2\n    /* \"#utility.yul\":641:665   */\n  tag_15\n  jump\t// in\ntag_26:\n    /* \"#utility.yul\":634:639   */\n  dup2\n    /* \"#utility.yul\":631:666   */\n  eq\n    /* \"#utility.yul\":621:684   */\n  tag_27\n  jumpi\n    /* \"#utility.yul\":680:681   */\n  0x00\n    /* \"#utility.yul\":677:678   */\n  0x00\n    /* \"#utility.yul\":670:682   */\n  revert\n    /* \"#utility.yul\":621:684   */\ntag_27:\n    /* \"#utility.yul\":568:690   */\n  pop\n  jump\t// out\n    /* \"#utility.yul\":696:839   */\ntag_17:\n    /* \"#utility.yul\":753:758   */\n  0x00\n    /* \"#utility.yul\":784:790   */\n  dup2\n    /* \"#utility.yul\":778:791   */\n  mload\n    /* \"#utility.yul\":769:791   */\n  swap1\n  pop\n    /* \"#utility.yul\":800:833   */\n  tag_29\n    /* \"#utility.yul\":827:832   */\n  dup2\n    /* \"#utility.yul\":800:833   */\n  tag_16\n  jump\t// in\ntag_29:\n    /* \"#utility.yul\":696:839   */\n  swap3\n  swap2\n  pop\n  pop\n  jump\t// out\n    /* \"#utility.yul\":845:1196   */\ntag_3:\n    /* \"#utility.yul\":915:921   */\n  0x00\n    /* \"#utility.yul\":964:966   */\n  0x20\n    /* \"#utility.yul\":952:961   */\n  dup3\n    /* \"#utility.yul\":943:950   */\n  dup5\n    /* \"#utility.yul\":939:962   */\n  sub\n    /* \"#utility.yul\":935:967   */\n  slt\n    /* \"#utility.yul\":932:1051   */\n  iszero\n  tag_31\n  jumpi\n    /* \"#utility.yul\":970:1049   */\n  tag_32\n  tag_12\n  jump\t// in\ntag_32:\n    /* \"#utility.yul\":932:1051   */\ntag_31:\n    /* \"#utility.yul\":1090:1091   */\n  0x00\n    /* \"#utility.yul\":1115:1179   */\n  tag_33\n    /* \"#utility.yul\":1171:1178   */\n  dup5\n    /* \"#utility.yul\":1162:1168   */\n  dup3\n    /* \"#utility.yul\":1151:1160   */\n  dup6\n    /* \"#utility.yul\":1147:1169   */\n  add\n    /* \"#utility.yul\":1115:1179   */\n  tag_17\n  jump\t// in\ntag_33:\n    /* \"#utility.yul\":1105:1179   */\n  swap2\n  pop\n    /* \"#utility.yul\":1061:1189   */\n  pop\n    /* \"#utility.yul\":845:1196   */\n  swap3\n  swap2\n  pop\n  pop\n  jump\t// out\n    /* \"hopium/standalone/main/multiswap-router.sol\":11594:12969  contract MultiSwapRouter is Validations, ReentrancyGuard {... */\ntag_10:\n  mload(0x80)\n  codecopy(0x00, dataOffset(sub_0), dataSize(sub_0))\n  0x00\n  assignImmutable(\"0xd4814426b11746a15450e57cffd1ffda7a4aa876fa76f1f623571f671572667f\")\n  return(0x00, dataSize(sub_0))\nstop\n\nsub_0: assembly {\n        /* \"hopium/standalone/main/multiswap-router.sol\":11594:12969  contract MultiSwapRouter is Validations, ReentrancyGuard {... */\n      mstore(0x40, 0x80)\n      jumpi(tag_1, lt(calldatasize, 0x04))\n      shr(0xe0, calldataload(0x00))\n      dup1\n      0x192b5887\n      eq\n      tag_3\n      jumpi\n      dup1\n      0xf887ea40\n      eq\n      tag_4\n      jumpi\n      jump(tag_2)\n    tag_1:\n      jumpi(tag_2, calldatasize)\n        /* \"hopium/standalone/main/multiswap-router.sol\":12924:12933  getWeth() */\n      tag_7\n        /* \"hopium/standalone/main/multiswap-router.sol\":12924:12931  getWeth */\n      tag_8\n        /* \"hopium/standalone/main/multiswap-router.sol\":12924:12933  getWeth() */\n      jump\t// in\n    tag_7:\n        /* \"hopium/standalone/main/multiswap-router.sol\":12910:12933  msg.sender == getWeth() */\n      0xffffffffffffffffffffffffffffffffffffffff\n      and\n        /* \"hopium/standalone/main/multiswap-router.sol\":12910:12920  msg.sender */\n      caller\n        /* \"hopium/standalone/main/multiswap-router.sol\":12910:12933  msg.sender == getWeth() */\n      0xffffffffffffffffffffffffffffffffffffffff\n      and\n      eq\n        /* \"hopium/standalone/main/multiswap-router.sol\":12902:12960  require(msg.sender == getWeth(), \"Direct ETH not allowed\") */\n      tag_9\n      jumpi\n      mload(0x40)\n      0x08c379a000000000000000000000000000000000000000000000000000000000\n      dup2\n      mstore\n      0x04\n      add\n      tag_10\n      swap1\n      tag_11\n      jump\t// in\n    tag_10:\n      mload(0x40)\n      dup1\n      swap2\n      sub\n      swap1\n      revert\n    tag_9:\n        /* \"hopium/standalone/main/multiswap-router.sol\":11594:12969  contract MultiSwapRouter is Validations, ReentrancyGuard {... */\n      stop\n    tag_2:\n      revert(0x00, 0x00)\n        /* \"hopium/standalone/main/multiswap-router.sol\":11759:12822  function swap(SwapOrderInput[] calldata inputs, SwapOrderOutput[] calldata outputs, address receiver, uint256 slippageBips, uint256 deadlineInSec, SwapFee[] calldata fees) external payable nonReentrant {... */\n    tag_3:\n      tag_12\n      0x04\n      dup1\n      calldatasize\n      sub\n      dup2\n      add\n      swap1\n      tag_13\n      swap2\n      swap1\n      tag_14\n      jump\t// in\n    tag_13:\n      tag_15\n      jump\t// in\n    tag_12:\n      stop\n        /* \"hopium/standalone/main/multiswap-router.sol\":1354:1396  IUniswapV2Router02 public immutable router */\n    tag_4:\n      callvalue\n      dup1\n      iszero\n      tag_16\n      jumpi\n      revert(0x00, 0x00)\n    tag_16:\n      pop\n      tag_17\n      tag_18\n      jump\t// in\n    tag_17:\n      mload(0x40)\n      tag_19\n      swap2\n      swap1\n      tag_20\n      jump\t// in\n    tag_19:\n      mload(0x40)\n      dup1\n      swap2\n      sub\n      swap1\n      return\n        /* \"hopium/standalone/main/multiswap-router.sol\":1503:1591  function getWeth() internal view returns (address) {... */\n    tag_8:\n        /* \"hopium/standalone/main/multiswap-router.sol\":1545:1552  address */\n      0x00\n        /* \"hopium/standalone/main/multiswap-router.sol\":1571:1577  router */\n      immutable(\"0xd4814426b11746a15450e57cffd1ffda7a4aa876fa76f1f623571f671572667f\")\n        /* \"hopium/standalone/main/multiswap-router.sol\":1571:1582  router.WETH */\n      0xffffffffffffffffffffffffffffffffffffffff\n      and\n      0xad5c4648\n        /* \"hopium/standalone/main/multiswap-router.sol\":1571:1584  router.WETH() */\n      mload(0x40)\n      dup2\n      0xffffffff\n      and\n      0xe0\n      shl\n      dup2\n      mstore\n      0x04\n      add\n      0x20\n      mload(0x40)\n      dup1\n      dup4\n      sub\n      dup2\n      dup7\n      gas\n      staticcall\n      iszero\n      dup1\n      iszero\n      tag_23\n      jumpi\n      returndatacopy(0x00, 0x00, returndatasize)\n      revert(0x00, returndatasize)\n    tag_23:\n      pop\n      pop\n      pop\n      pop\n      mload(0x40)\n      returndatasize\n      not(0x1f)\n      0x1f\n      dup3\n      add\n      and\n      dup3\n      add\n      dup1\n      0x40\n      mstore\n      pop\n      dup2\n      add\n      swap1\n      tag_24\n      swap2\n      swap1\n      tag_25\n      jump\t// in\n    tag_24:\n        /* \"hopium/standalone/main/multiswap-router.sol\":1564:1584  return router.WETH() */\n      swap1\n      pop\n        /* \"hopium/standalone/main/multiswap-router.sol\":1503:1591  function getWeth() internal view returns (address) {... */\n      swap1\n      jump\t// out\n        /* \"hopium/standalone/main/multiswap-router.sol\":11759:12822  function swap(SwapOrderInput[] calldata inputs, SwapOrderOutput[] calldata outputs, address receiver, uint256 slippageBips, uint256 deadlineInSec, SwapFee[] calldata fees) external payable nonReentrant {... */\n    tag_15:\n        /* \"@openzeppelin/contracts/security/ReentrancyGuard.sol\":2261:2282  _nonReentrantBefore() */\n      tag_27\n        /* \"@openzeppelin/contracts/security/ReentrancyGuard.sol\":2261:2280  _nonReentrantBefore */\n      tag_28\n        /* \"@openzeppelin/contracts/security/ReentrancyGuard.sol\":2261:2282  _nonReentrantBefore() */\n      jump\t// in\n    tag_27:\n        /* \"hopium/standalone/main/multiswap-router.sol\":11995:11996  0 */\n      0x00\n        /* \"hopium/standalone/main/multiswap-router.sol\":11979:11985  inputs */\n      dup10\n      dup10\n        /* \"hopium/standalone/main/multiswap-router.sol\":11979:11992  inputs.length */\n      swap1\n      pop\n        /* \"hopium/standalone/main/multiswap-router.sol\":11979:11996  inputs.length > 0 */\n      gt\n        /* \"hopium/standalone/main/multiswap-router.sol\":11971:12028  require(inputs.length > 0, \"MultiSwap Router: No inputs\") */\n      tag_30\n      jumpi\n      mload(0x40)\n      0x08c379a000000000000000000000000000000000000000000000000000000000\n      dup2\n      mstore\n      0x04\n      add\n      tag_31\n      swap1\n      tag_32\n      jump\t// in\n    tag_31:\n      mload(0x40)\n      dup1\n      swap2\n      sub\n      swap1\n      revert\n    tag_30:\n        /* \"hopium/standalone/main/multiswap-router.sol\":12063:12064  0 */\n      0x00\n        /* \"hopium/standalone/main/multiswap-router.sol\":12046:12053  outputs */\n      dup8\n      dup8\n        /* \"hopium/standalone/main/multiswap-router.sol\":12046:12060  outputs.length */\n      swap1\n      pop\n        /* \"hopium/standalone/main/multiswap-router.sol\":12046:12064  outputs.length > 0 */\n      gt\n        /* \"hopium/standalone/main/multiswap-router.sol\":12038:12097  require(outputs.length > 0, \"MultiSwap Router: No outputs\") */\n      tag_33\n      jumpi\n      mload(0x40)\n      0x08c379a000000000000000000000000000000000000000000000000000000000\n      dup2\n      mstore\n      0x04\n      add\n      tag_34\n      swap1\n      tag_35\n      jump\t// in\n    tag_34:\n      mload(0x40)\n      dup1\n      swap2\n      sub\n      swap1\n      revert\n    tag_33:\n        /* \"hopium/standalone/main/multiswap-router.sol\":12135:12136  0 */\n      0x00\n        /* \"hopium/standalone/main/multiswap-router.sol\":12115:12137  receiver != address(0) */\n      0xffffffffffffffffffffffffffffffffffffffff\n      and\n        /* \"hopium/standalone/main/multiswap-router.sol\":12115:12123  receiver */\n      dup6\n        /* \"hopium/standalone/main/multiswap-router.sol\":12115:12137  receiver != address(0) */\n      0xffffffffffffffffffffffffffffffffffffffff\n      and\n      sub\n        /* \"hopium/standalone/main/multiswap-router.sol\":12107:12191  require(receiver != address(0), \"MultiSwap Router: Receiver cannot be zero address\") */\n      tag_36\n      jumpi\n      mload(0x40)\n      0x08c379a000000000000000000000000000000000000000000000000000000000\n      dup2\n      mstore\n      0x04\n      add\n      tag_37\n      swap1\n      tag_38\n      jump\t// in\n    tag_37:\n      mload(0x40)\n      dup1\n      swap2\n      sub\n      swap1\n      revert\n    tag_36:\n        /* \"hopium/common/storage/bips.sol\":97:103  10_000 */\n      0x2710\n        /* \"hopium/standalone/main/multiswap-router.sol\":12209:12221  slippageBips */\n      dup5\n        /* \"hopium/standalone/main/multiswap-router.sol\":12209:12245  slippageBips <= HUNDRED_PERCENT_BIPS */\n      gt\n      iszero\n        /* \"hopium/standalone/main/multiswap-router.sol\":12201:12280  require(slippageBips <= HUNDRED_PERCENT_BIPS, \"MultiSwap Router: bad slippage\") */\n      tag_39\n      jumpi\n      mload(0x40)\n      0x08c379a000000000000000000000000000000000000000000000000000000000\n      dup2\n      mstore\n      0x04\n      add\n      tag_40\n      swap1\n      tag_41\n      jump\t// in\n    tag_40:\n      mload(0x40)\n      dup1\n      swap2\n      sub\n      swap1\n      revert\n    tag_39:\n        /* \"hopium/standalone/main/multiswap-router.sol\":12315:12330  block.timestamp */\n      timestamp\n        /* \"hopium/standalone/main/multiswap-router.sol\":12298:12311  deadlineInSec */\n      dup4\n        /* \"hopium/standalone/main/multiswap-router.sol\":12298:12330  deadlineInSec >= block.timestamp */\n      lt\n      iszero\n        /* \"hopium/standalone/main/multiswap-router.sol\":12290:12368  require(deadlineInSec >= block.timestamp, \"MultiSwap Router: deadline passed\") */\n      tag_42\n      jumpi\n      mload(0x40)\n      0x08c379a000000000000000000000000000000000000000000000000000000000\n      dup2\n      mstore\n      0x04\n      add\n      tag_43\n      swap1\n      tag_44\n      jump\t// in\n    tag_43:\n      mload(0x40)\n      dup1\n      swap2\n      sub\n      swap1\n      revert\n    tag_42:\n        /* \"hopium/standalone/main/multiswap-router.sol\":12379:12404  _validateMsgValue(inputs) */\n      tag_45\n        /* \"hopium/standalone/main/multiswap-router.sol\":12397:12403  inputs */\n      dup10\n      dup10\n        /* \"hopium/standalone/main/multiswap-router.sol\":12379:12396  _validateMsgValue */\n      tag_46\n        /* \"hopium/standalone/main/multiswap-router.sol\":12379:12404  _validateMsgValue(inputs) */\n      jump\t// in\n    tag_45:\n        /* \"hopium/standalone/main/multiswap-router.sol\":12414:12439  _validateWeights(outputs) */\n      tag_47\n        /* \"hopium/standalone/main/multiswap-router.sol\":12431:12438  outputs */\n      dup8\n      dup8\n        /* \"hopium/standalone/main/multiswap-router.sol\":12414:12430  _validateWeights */\n      tag_48\n        /* \"hopium/standalone/main/multiswap-router.sol\":12414:12439  _validateWeights(outputs) */\n      jump\t// in\n    tag_47:\n        /* \"hopium/standalone/main/multiswap-router.sol\":12450:12469  uint256 swappedWeth */\n      0x00\n        /* \"hopium/standalone/main/multiswap-router.sol\":12472:12525  _swapInputToWeth(inputs, slippageBips, deadlineInSec) */\n      tag_49\n        /* \"hopium/standalone/main/multiswap-router.sol\":12489:12495  inputs */\n      dup11\n      dup11\n        /* \"hopium/standalone/main/multiswap-router.sol\":12497:12509  slippageBips */\n      dup8\n        /* \"hopium/standalone/main/multiswap-router.sol\":12511:12524  deadlineInSec */\n      dup8\n        /* \"hopium/standalone/main/multiswap-router.sol\":12472:12488  _swapInputToWeth */\n      tag_50\n        /* \"hopium/standalone/main/multiswap-router.sol\":12472:12525  _swapInputToWeth(inputs, slippageBips, deadlineInSec) */\n      jump\t// in\n    tag_49:\n        /* \"hopium/standalone/main/multiswap-router.sol\":12450:12525  uint256 swappedWeth = _swapInputToWeth(inputs, slippageBips, deadlineInSec) */\n      swap1\n      pop\n        /* \"hopium/standalone/main/multiswap-router.sol\":12536:12559  uint256 finalWethAmount */\n      0x00\n        /* \"hopium/standalone/main/multiswap-router.sol\":12562:12596  _distributeFees(fees, swappedWeth) */\n      tag_51\n        /* \"hopium/standalone/main/multiswap-router.sol\":12578:12582  fees */\n      dup5\n      dup5\n        /* \"hopium/standalone/main/multiswap-router.sol\":12584:12595  swappedWeth */\n      dup5\n        /* \"hopium/standalone/main/multiswap-router.sol\":12562:12577  _distributeFees */\n      tag_52\n        /* \"hopium/standalone/main/multiswap-router.sol\":12562:12596  _distributeFees(fees, swappedWeth) */\n      jump\t// in\n    tag_51:\n        /* \"hopium/standalone/main/multiswap-router.sol\":12536:12596  uint256 finalWethAmount = _distributeFees(fees, swappedWeth) */\n      swap1\n      pop\n        /* \"hopium/standalone/main/multiswap-router.sol\":12607:12689  _swapWethToOutput(finalWethAmount, outputs, receiver, slippageBips, deadlineInSec) */\n      tag_53\n        /* \"hopium/standalone/main/multiswap-router.sol\":12625:12640  finalWethAmount */\n      dup2\n        /* \"hopium/standalone/main/multiswap-router.sol\":12642:12649  outputs */\n      dup11\n      dup11\n        /* \"hopium/standalone/main/multiswap-router.sol\":12651:12659  receiver */\n      dup11\n        /* \"hopium/standalone/main/multiswap-router.sol\":12661:12673  slippageBips */\n      dup11\n        /* \"hopium/standalone/main/multiswap-router.sol\":12675:12688  deadlineInSec */\n      dup11\n        /* \"hopium/standalone/main/multiswap-router.sol\":12607:12624  _swapWethToOutput */\n      tag_54\n        /* \"hopium/standalone/main/multiswap-router.sol\":12607:12689  _swapWethToOutput(finalWethAmount, outputs, receiver, slippageBips, deadlineInSec) */\n      jump\t// in\n    tag_53:\n        /* \"hopium/standalone/main/multiswap-router.sol\":12700:12728  _refundRemaining(msg.sender) */\n      tag_55\n        /* \"hopium/standalone/main/multiswap-router.sol\":12717:12727  msg.sender */\n      caller\n        /* \"hopium/standalone/main/multiswap-router.sol\":12700:12716  _refundRemaining */\n      tag_56\n        /* \"hopium/standalone/main/multiswap-router.sol\":12700:12728  _refundRemaining(msg.sender) */\n      jump\t// in\n    tag_55:\n        /* \"hopium/standalone/main/multiswap-router.sol\":12752:12762  msg.sender */\n      caller\n        /* \"hopium/standalone/main/multiswap-router.sol\":12744:12815  Swapped(msg.sender, inputs, outputs, slippageBips, deadlineInSec, fees) */\n      0xffffffffffffffffffffffffffffffffffffffff\n      and\n      0x40844c000d7e2daab466e5a3c1ee770c3e2ccb92a53ddd9df72c01e07e99afaf\n        /* \"hopium/standalone/main/multiswap-router.sol\":12764:12770  inputs */\n      dup13\n      dup13\n        /* \"hopium/standalone/main/multiswap-router.sol\":12772:12779  outputs */\n      dup13\n      dup13\n        /* \"hopium/standalone/main/multiswap-router.sol\":12781:12793  slippageBips */\n      dup12\n        /* \"hopium/standalone/main/multiswap-router.sol\":12795:12808  deadlineInSec */\n      dup12\n        /* \"hopium/standalone/main/multiswap-router.sol\":12810:12814  fees */\n      dup12\n      dup12\n        /* \"hopium/standalone/main/multiswap-router.sol\":12744:12815  Swapped(msg.sender, inputs, outputs, slippageBips, deadlineInSec, fees) */\n      mload(0x40)\n      tag_57\n      swap9\n      swap8\n      swap7\n      swap6\n      swap5\n      swap4\n      swap3\n      swap2\n      swap1\n      tag_58\n      jump\t// in\n    tag_57:\n      mload(0x40)\n      dup1\n      swap2\n      sub\n      swap1\n      log2\n        /* \"hopium/standalone/main/multiswap-router.sol\":11961:12822  {... */\n      pop\n      pop\n        /* \"@openzeppelin/contracts/security/ReentrancyGuard.sol\":2303:2323  _nonReentrantAfter() */\n      tag_59\n        /* \"@openzeppelin/contracts/security/ReentrancyGuard.sol\":2303:2321  _nonReentrantAfter */\n      tag_60\n        /* \"@openzeppelin/contracts/security/ReentrancyGuard.sol\":2303:2323  _nonReentrantAfter() */\n      jump\t// in\n    tag_59:\n        /* \"hopium/standalone/main/multiswap-router.sol\":11759:12822  function swap(SwapOrderInput[] calldata inputs, SwapOrderOutput[] calldata outputs, address receiver, uint256 slippageBips, uint256 deadlineInSec, SwapFee[] calldata fees) external payable nonReentrant {... */\n      pop\n      pop\n      pop\n      pop\n      pop\n      pop\n      pop\n      pop\n      pop\n      jump\t// out\n        /* \"hopium/standalone/main/multiswap-router.sol\":1354:1396  IUniswapV2Router02 public immutable router */\n    tag_18:\n      immutable(\"0xd4814426b11746a15450e57cffd1ffda7a4aa876fa76f1f623571f671572667f\")\n      dup2\n      jump\t// out\n        /* \"@openzeppelin/contracts/security/ReentrancyGuard.sol\":2336:2623  function _nonReentrantBefore() private {... */\n    tag_28:\n        /* \"@openzeppelin/contracts/security/ReentrancyGuard.sol\":1759:1760  2 */\n      0x02\n        /* \"@openzeppelin/contracts/security/ReentrancyGuard.sol\":2468:2475  _status */\n      sload(0x00)\n        /* \"@openzeppelin/contracts/security/ReentrancyGuard.sol\":2468:2487  _status != _ENTERED */\n      sub\n        /* \"@openzeppelin/contracts/security/ReentrancyGuard.sol\":2460:2523  require(_status != _ENTERED, \"ReentrancyGuard: reentrant call\") */\n      tag_62\n      jumpi\n      mload(0x40)\n      0x08c379a000000000000000000000000000000000000000000000000000000000\n      dup2\n      mstore\n      0x04\n      add\n      tag_63\n      swap1\n      tag_64\n      jump\t// in\n    tag_63:\n      mload(0x40)\n      dup1\n      swap2\n      sub\n      swap1\n      revert\n    tag_62:\n        /* \"@openzeppelin/contracts/security/ReentrancyGuard.sol\":1759:1760  2 */\n      0x02\n        /* \"@openzeppelin/contracts/security/ReentrancyGuard.sol\":2598:2605  _status */\n      0x00\n        /* \"@openzeppelin/contracts/security/ReentrancyGuard.sol\":2598:2616  _status = _ENTERED */\n      dup2\n      swap1\n      sstore\n      pop\n        /* \"@openzeppelin/contracts/security/ReentrancyGuard.sol\":2336:2623  function _nonReentrantBefore() private {... */\n      jump\t// out\n        /* \"hopium/standalone/main/multiswap-router.sol\":10796:11144  function _validateMsgValue(SwapOrderInput[] calldata inputs) internal {... */\n    tag_46:\n        /* \"hopium/standalone/main/multiswap-router.sol\":10876:10893  uint256 ethNeeded */\n      0x00\n        /* \"hopium/standalone/main/multiswap-router.sol\":10908:10914  uint i */\n      0x00\n        /* \"hopium/standalone/main/multiswap-router.sol\":10903:11070  for (uint i; i < inputs.length; ++i) {... */\n    tag_66:\n        /* \"hopium/standalone/main/multiswap-router.sol\":10920:10926  inputs */\n      dup4\n      dup4\n        /* \"hopium/standalone/main/multiswap-router.sol\":10920:10933  inputs.length */\n      swap1\n      pop\n        /* \"hopium/standalone/main/multiswap-router.sol\":10916:10917  i */\n      dup2\n        /* \"hopium/standalone/main/multiswap-router.sol\":10916:10933  i < inputs.length */\n      lt\n        /* \"hopium/standalone/main/multiswap-router.sol\":10903:11070  for (uint i; i < inputs.length; ++i) {... */\n      iszero\n      tag_67\n      jumpi\n        /* \"hopium/standalone/main/multiswap-router.sol\":3744:3745  0 */\n      0x00\n        /* \"hopium/standalone/main/multiswap-router.sol\":10958:10996  inputs[i].tokenAddress == ZERO_ADDRESS */\n      0xffffffffffffffffffffffffffffffffffffffff\n      and\n        /* \"hopium/standalone/main/multiswap-router.sol\":10958:10964  inputs */\n      dup5\n      dup5\n        /* \"hopium/standalone/main/multiswap-router.sol\":10965:10966  i */\n      dup4\n        /* \"hopium/standalone/main/multiswap-router.sol\":10958:10967  inputs[i] */\n      dup2\n      dup2\n      lt\n      tag_69\n      jumpi\n      tag_70\n      tag_71\n      jump\t// in\n    tag_70:\n    tag_69:\n      swap1\n      pop\n      0x40\n      mul\n      add\n        /* \"hopium/standalone/main/multiswap-router.sol\":10958:10980  inputs[i].tokenAddress */\n      0x00\n      add\n      0x20\n      dup2\n      add\n      swap1\n      tag_72\n      swap2\n      swap1\n      tag_73\n      jump\t// in\n    tag_72:\n        /* \"hopium/standalone/main/multiswap-router.sol\":10958:10996  inputs[i].tokenAddress == ZERO_ADDRESS */\n      0xffffffffffffffffffffffffffffffffffffffff\n      and\n      sub\n        /* \"hopium/standalone/main/multiswap-router.sol\":10954:11060  if (inputs[i].tokenAddress == ZERO_ADDRESS) {... */\n      tag_74\n      jumpi\n        /* \"hopium/standalone/main/multiswap-router.sol\":11029:11035  inputs */\n      dup4\n      dup4\n        /* \"hopium/standalone/main/multiswap-router.sol\":11036:11037  i */\n      dup3\n        /* \"hopium/standalone/main/multiswap-router.sol\":11029:11038  inputs[i] */\n      dup2\n      dup2\n      lt\n      tag_75\n      jumpi\n      tag_76\n      tag_71\n      jump\t// in\n    tag_76:\n    tag_75:\n      swap1\n      pop\n      0x40\n      mul\n      add\n        /* \"hopium/standalone/main/multiswap-router.sol\":11029:11045  inputs[i].amount */\n      0x20\n      add\n      calldataload\n        /* \"hopium/standalone/main/multiswap-router.sol\":11016:11045  ethNeeded += inputs[i].amount */\n      dup3\n      tag_77\n      swap2\n      swap1\n      tag_78\n      jump\t// in\n    tag_77:\n      swap2\n      pop\n        /* \"hopium/standalone/main/multiswap-router.sol\":10954:11060  if (inputs[i].tokenAddress == ZERO_ADDRESS) {... */\n    tag_74:\n        /* \"hopium/standalone/main/multiswap-router.sol\":10935:10938  ++i */\n      dup1\n      0x01\n      add\n      swap1\n      pop\n        /* \"hopium/standalone/main/multiswap-router.sol\":10903:11070  for (uint i; i < inputs.length; ++i) {... */\n      jump(tag_66)\n    tag_67:\n      pop\n        /* \"hopium/standalone/main/multiswap-router.sol\":11100:11109  ethNeeded */\n      dup1\n        /* \"hopium/standalone/main/multiswap-router.sol\":11087:11096  msg.value */\n      callvalue\n        /* \"hopium/standalone/main/multiswap-router.sol\":11087:11109  msg.value >= ethNeeded */\n      lt\n      iszero\n        /* \"hopium/standalone/main/multiswap-router.sol\":11079:11137  require(msg.value >= ethNeeded, \"msg.value != ETH inputs\") */\n      tag_79\n      jumpi\n      mload(0x40)\n      0x08c379a000000000000000000000000000000000000000000000000000000000\n      dup2\n      mstore\n      0x04\n      add\n      tag_80\n      swap1\n      tag_81\n      jump\t// in\n    tag_80:\n      mload(0x40)\n      dup1\n      swap2\n      sub\n      swap1\n      revert\n    tag_79:\n        /* \"hopium/standalone/main/multiswap-router.sol\":10866:11144  {... */\n      pop\n        /* \"hopium/standalone/main/multiswap-router.sol\":10796:11144  function _validateMsgValue(SwapOrderInput[] calldata inputs) internal {... */\n      pop\n      pop\n      jump\t// out\n        /* \"hopium/standalone/main/multiswap-router.sol\":11150:11590  function _validateWeights(SwapOrderOutput[] calldata outputs) internal pure {... */\n    tag_48:\n        /* \"hopium/standalone/main/multiswap-router.sol\":11236:11255  uint256 totalWeight */\n      0x00\n        /* \"hopium/standalone/main/multiswap-router.sol\":11258:11259  0 */\n      0x00\n        /* \"hopium/standalone/main/multiswap-router.sol\":11236:11259  uint256 totalWeight = 0 */\n      swap1\n      pop\n        /* \"hopium/standalone/main/multiswap-router.sol\":11275:11284  uint256 i */\n      0x00\n        /* \"hopium/standalone/main/multiswap-router.sol\":11287:11288  0 */\n      0x00\n        /* \"hopium/standalone/main/multiswap-router.sol\":11275:11288  uint256 i = 0 */\n      swap1\n      pop\n        /* \"hopium/standalone/main/multiswap-router.sol\":11269:11483  for ( uint256 i = 0; i < outputs.length; i++) {... */\n    tag_83:\n        /* \"hopium/standalone/main/multiswap-router.sol\":11294:11301  outputs */\n      dup4\n      dup4\n        /* \"hopium/standalone/main/multiswap-router.sol\":11294:11308  outputs.length */\n      swap1\n      pop\n        /* \"hopium/standalone/main/multiswap-router.sol\":11290:11291  i */\n      dup2\n        /* \"hopium/standalone/main/multiswap-router.sol\":11290:11308  i < outputs.length */\n      lt\n        /* \"hopium/standalone/main/multiswap-router.sol\":11269:11483  for ( uint256 i = 0; i < outputs.length; i++) {... */\n      iszero\n      tag_84\n      jumpi\n        /* \"hopium/standalone/main/multiswap-router.sol\":11365:11366  0 */\n      0x00\n        /* \"hopium/standalone/main/multiswap-router.sol\":11341:11348  outputs */\n      dup5\n      dup5\n        /* \"hopium/standalone/main/multiswap-router.sol\":11349:11350  i */\n      dup4\n        /* \"hopium/standalone/main/multiswap-router.sol\":11341:11351  outputs[i] */\n      dup2\n      dup2\n      lt\n      tag_86\n      jumpi\n      tag_87\n      tag_71\n      jump\t// in\n    tag_87:\n    tag_86:\n      swap1\n      pop\n      0x40\n      mul\n      add\n        /* \"hopium/standalone/main/multiswap-router.sol\":11341:11362  outputs[i].weightBips */\n      0x20\n      add\n      0x20\n      dup2\n      add\n      swap1\n      tag_88\n      swap2\n      swap1\n      tag_89\n      jump\t// in\n    tag_88:\n        /* \"hopium/standalone/main/multiswap-router.sol\":11341:11366  outputs[i].weightBips > 0 */\n      0xffff\n      and\n      gt\n        /* \"hopium/standalone/main/multiswap-router.sol\":11333:11418  require(outputs[i].weightBips > 0, \"MultiSwap Router: Weight must be greater than 0\") */\n      tag_90\n      jumpi\n      mload(0x40)\n      0x08c379a000000000000000000000000000000000000000000000000000000000\n      dup2\n      mstore\n      0x04\n      add\n      tag_91\n      swap1\n      tag_92\n      jump\t// in\n    tag_91:\n      mload(0x40)\n      dup1\n      swap2\n      sub\n      swap1\n      revert\n    tag_90:\n        /* \"hopium/standalone/main/multiswap-router.sol\":11451:11458  outputs */\n      dup4\n      dup4\n        /* \"hopium/standalone/main/multiswap-router.sol\":11459:11460  i */\n      dup3\n        /* \"hopium/standalone/main/multiswap-router.sol\":11451:11461  outputs[i] */\n      dup2\n      dup2\n      lt\n      tag_93\n      jumpi\n      tag_94\n      tag_71\n      jump\t// in\n    tag_94:\n    tag_93:\n      swap1\n      pop\n      0x40\n      mul\n      add\n        /* \"hopium/standalone/main/multiswap-router.sol\":11451:11472  outputs[i].weightBips */\n      0x20\n      add\n      0x20\n      dup2\n      add\n      swap1\n      tag_95\n      swap2\n      swap1\n      tag_89\n      jump\t// in\n    tag_95:\n        /* \"hopium/standalone/main/multiswap-router.sol\":11436:11472  totalWeight += outputs[i].weightBips */\n      0xffff\n      and\n      dup3\n      tag_96\n      swap2\n      swap1\n      tag_78\n      jump\t// in\n    tag_96:\n      swap2\n      pop\n        /* \"hopium/standalone/main/multiswap-router.sol\":11310:11313  i++ */\n      dup1\n      dup1\n      0x01\n      add\n      swap2\n      pop\n      pop\n        /* \"hopium/standalone/main/multiswap-router.sol\":11269:11483  for ( uint256 i = 0; i < outputs.length; i++) {... */\n      jump(tag_83)\n    tag_84:\n      pop\n        /* \"hopium/common/storage/bips.sol\":97:103  10_000 */\n      0x2710\n        /* \"hopium/standalone/main/multiswap-router.sol\":11500:11511  totalWeight */\n      dup2\n        /* \"hopium/standalone/main/multiswap-router.sol\":11500:11535  totalWeight <= HUNDRED_PERCENT_BIPS */\n      gt\n      iszero\n        /* \"hopium/standalone/main/multiswap-router.sol\":11492:11583  require(totalWeight <= HUNDRED_PERCENT_BIPS, \"MultiSwap Router: Total weight must be 100%\") */\n      tag_97\n      jumpi\n      mload(0x40)\n      0x08c379a000000000000000000000000000000000000000000000000000000000\n      dup2\n      mstore\n      0x04\n      add\n      tag_98\n      swap1\n      tag_99\n      jump\t// in\n    tag_98:\n      mload(0x40)\n      dup1\n      swap2\n      sub\n      swap1\n      revert\n    tag_97:\n        /* \"hopium/standalone/main/multiswap-router.sol\":11226:11590  {... */\n      pop\n        /* \"hopium/standalone/main/multiswap-router.sol\":11150:11590  function _validateWeights(SwapOrderOutput[] calldata outputs) internal pure {... */\n      pop\n      pop\n      jump\t// out\n        /* \"hopium/standalone/main/multiswap-router.sol\":7500:8189  function _swapInputToWeth(SwapOrderInput[] calldata inputs, uint256 slippageBips, uint256 deadlineInSec) internal returns (uint256) {... */\n    tag_50:\n        /* \"hopium/standalone/main/multiswap-router.sol\":7623:7630  uint256 */\n      0x00\n        /* \"hopium/standalone/main/multiswap-router.sol\":7642:7659  uint256 totalWeth */\n      0x00\n        /* \"hopium/standalone/main/multiswap-router.sol\":7662:7663  0 */\n      0x00\n        /* \"hopium/standalone/main/multiswap-router.sol\":7642:7663  uint256 totalWeth = 0 */\n      swap1\n      pop\n        /* \"hopium/standalone/main/multiswap-router.sol\":7678:7687  uint256 i */\n      0x00\n        /* \"hopium/standalone/main/multiswap-router.sol\":7690:7691  0 */\n      0x00\n        /* \"hopium/standalone/main/multiswap-router.sol\":7678:7691  uint256 i = 0 */\n      swap1\n      pop\n        /* \"hopium/standalone/main/multiswap-router.sol\":7673:8156  for (uint256 i = 0; i < inputs.length; i++) {... */\n    tag_101:\n        /* \"hopium/standalone/main/multiswap-router.sol\":7697:7703  inputs */\n      dup7\n      dup7\n        /* \"hopium/standalone/main/multiswap-router.sol\":7697:7710  inputs.length */\n      swap1\n      pop\n        /* \"hopium/standalone/main/multiswap-router.sol\":7693:7694  i */\n      dup2\n        /* \"hopium/standalone/main/multiswap-router.sol\":7693:7710  i < inputs.length */\n      lt\n        /* \"hopium/standalone/main/multiswap-router.sol\":7673:8156  for (uint256 i = 0; i < inputs.length; i++) {... */\n      iszero\n      tag_102\n      jumpi\n        /* \"hopium/standalone/main/multiswap-router.sol\":3744:3745  0 */\n      0x00\n        /* \"hopium/standalone/main/multiswap-router.sol\":7735:7773  inputs[i].tokenAddress == ZERO_ADDRESS */\n      0xffffffffffffffffffffffffffffffffffffffff\n      and\n        /* \"hopium/standalone/main/multiswap-router.sol\":7735:7741  inputs */\n      dup8\n      dup8\n        /* \"hopium/standalone/main/multiswap-router.sol\":7742:7743  i */\n      dup4\n        /* \"hopium/standalone/main/multiswap-router.sol\":7735:7744  inputs[i] */\n      dup2\n      dup2\n      lt\n      tag_104\n      jumpi\n      tag_105\n      tag_71\n      jump\t// in\n    tag_105:\n    tag_104:\n      swap1\n      pop\n      0x40\n      mul\n      add\n        /* \"hopium/standalone/main/multiswap-router.sol\":7735:7757  inputs[i].tokenAddress */\n      0x00\n      add\n      0x20\n      dup2\n      add\n      swap1\n      tag_106\n      swap2\n      swap1\n      tag_73\n      jump\t// in\n    tag_106:\n        /* \"hopium/standalone/main/multiswap-router.sol\":7735:7773  inputs[i].tokenAddress == ZERO_ADDRESS */\n      0xffffffffffffffffffffffffffffffffffffffff\n      and\n      sub\n        /* \"hopium/standalone/main/multiswap-router.sol\":7731:8146  if (inputs[i].tokenAddress == ZERO_ADDRESS) {... */\n      tag_107\n      jumpi\n        /* \"hopium/standalone/main/multiswap-router.sol\":7793:7855  _swapEthToWeth(address(this), address(this), inputs[i].amount) */\n      tag_108\n        /* \"hopium/standalone/main/multiswap-router.sol\":7816:7820  this */\n      address\n        /* \"hopium/standalone/main/multiswap-router.sol\":7831:7835  this */\n      address\n        /* \"hopium/standalone/main/multiswap-router.sol\":7838:7844  inputs */\n      dup10\n      dup10\n        /* \"hopium/standalone/main/multiswap-router.sol\":7845:7846  i */\n      dup6\n        /* \"hopium/standalone/main/multiswap-router.sol\":7838:7847  inputs[i] */\n      dup2\n      dup2\n      lt\n      tag_109\n      jumpi\n      tag_110\n      tag_71\n      jump\t// in\n    tag_110:\n    tag_109:\n      swap1\n      pop\n      0x40\n      mul\n      add\n        /* \"hopium/standalone/main/multiswap-router.sol\":7838:7854  inputs[i].amount */\n      0x20\n      add\n      calldataload\n        /* \"hopium/standalone/main/multiswap-router.sol\":7793:7807  _swapEthToWeth */\n      tag_111\n        /* \"hopium/standalone/main/multiswap-router.sol\":7793:7855  _swapEthToWeth(address(this), address(this), inputs[i].amount) */\n      jump\t// in\n    tag_108:\n        /* \"hopium/standalone/main/multiswap-router.sol\":7886:7892  inputs */\n      dup7\n      dup7\n        /* \"hopium/standalone/main/multiswap-router.sol\":7893:7894  i */\n      dup3\n        /* \"hopium/standalone/main/multiswap-router.sol\":7886:7895  inputs[i] */\n      dup2\n      dup2\n      lt\n      tag_112\n      jumpi\n      tag_113\n      tag_71\n      jump\t// in\n    tag_113:\n    tag_112:\n      swap1\n      pop\n      0x40\n      mul\n      add\n        /* \"hopium/standalone/main/multiswap-router.sol\":7886:7902  inputs[i].amount */\n      0x20\n      add\n      calldataload\n        /* \"hopium/standalone/main/multiswap-router.sol\":7873:7902  totalWeth += inputs[i].amount */\n      dup3\n      tag_114\n      swap2\n      swap1\n      tag_78\n      jump\t// in\n    tag_114:\n      swap2\n      pop\n        /* \"hopium/standalone/main/multiswap-router.sol\":7731:8146  if (inputs[i].tokenAddress == ZERO_ADDRESS) {... */\n      jump(tag_115)\n    tag_107:\n        /* \"hopium/standalone/main/multiswap-router.sol\":7941:7960  uint256 swappedWeth */\n      0x00\n        /* \"hopium/standalone/main/multiswap-router.sol\":7963:8089  _swapTokenToToken(inputs[i].tokenAddress, getWeth(), inputs[i].amount, msg.sender, address(this), slippageBips, deadlineInSec) */\n      tag_116\n        /* \"hopium/standalone/main/multiswap-router.sol\":7981:7987  inputs */\n      dup9\n      dup9\n        /* \"hopium/standalone/main/multiswap-router.sol\":7988:7989  i */\n      dup5\n        /* \"hopium/standalone/main/multiswap-router.sol\":7981:7990  inputs[i] */\n      dup2\n      dup2\n      lt\n      tag_117\n      jumpi\n      tag_118\n      tag_71\n      jump\t// in\n    tag_118:\n    tag_117:\n      swap1\n      pop\n      0x40\n      mul\n      add\n        /* \"hopium/standalone/main/multiswap-router.sol\":7981:8003  inputs[i].tokenAddress */\n      0x00\n      add\n      0x20\n      dup2\n      add\n      swap1\n      tag_119\n      swap2\n      swap1\n      tag_73\n      jump\t// in\n    tag_119:\n        /* \"hopium/standalone/main/multiswap-router.sol\":8005:8014  getWeth() */\n      tag_120\n        /* \"hopium/standalone/main/multiswap-router.sol\":8005:8012  getWeth */\n      tag_8\n        /* \"hopium/standalone/main/multiswap-router.sol\":8005:8014  getWeth() */\n      jump\t// in\n    tag_120:\n        /* \"hopium/standalone/main/multiswap-router.sol\":8016:8022  inputs */\n      dup11\n      dup11\n        /* \"hopium/standalone/main/multiswap-router.sol\":8023:8024  i */\n      dup7\n        /* \"hopium/standalone/main/multiswap-router.sol\":8016:8025  inputs[i] */\n      dup2\n      dup2\n      lt\n      tag_121\n      jumpi\n      tag_122\n      tag_71\n      jump\t// in\n    tag_122:\n    tag_121:\n      swap1\n      pop\n      0x40\n      mul\n      add\n        /* \"hopium/standalone/main/multiswap-router.sol\":8016:8032  inputs[i].amount */\n      0x20\n      add\n      calldataload\n        /* \"hopium/standalone/main/multiswap-router.sol\":8034:8044  msg.sender */\n      caller\n        /* \"hopium/standalone/main/multiswap-router.sol\":8054:8058  this */\n      address\n        /* \"hopium/standalone/main/multiswap-router.sol\":8061:8073  slippageBips */\n      dup12\n        /* \"hopium/standalone/main/multiswap-router.sol\":8075:8088  deadlineInSec */\n      dup12\n        /* \"hopium/standalone/main/multiswap-router.sol\":7963:7980  _swapTokenToToken */\n      tag_123\n        /* \"hopium/standalone/main/multiswap-router.sol\":7963:8089  _swapTokenToToken(inputs[i].tokenAddress, getWeth(), inputs[i].amount, msg.sender, address(this), slippageBips, deadlineInSec) */\n      jump\t// in\n    tag_116:\n        /* \"hopium/standalone/main/multiswap-router.sol\":7941:8089  uint256 swappedWeth = _swapTokenToToken(inputs[i].tokenAddress, getWeth(), inputs[i].amount, msg.sender, address(this), slippageBips, deadlineInSec) */\n      swap1\n      pop\n        /* \"hopium/standalone/main/multiswap-router.sol\":8120:8131  swappedWeth */\n      dup1\n        /* \"hopium/standalone/main/multiswap-router.sol\":8107:8131  totalWeth += swappedWeth */\n      dup4\n      tag_124\n      swap2\n      swap1\n      tag_78\n      jump\t// in\n    tag_124:\n      swap3\n      pop\n        /* \"hopium/standalone/main/multiswap-router.sol\":7923:8146  {... */\n      pop\n        /* \"hopium/standalone/main/multiswap-router.sol\":7731:8146  if (inputs[i].tokenAddress == ZERO_ADDRESS) {... */\n    tag_115:\n        /* \"hopium/standalone/main/multiswap-router.sol\":7712:7715  i++ */\n      dup1\n      dup1\n      0x01\n      add\n      swap2\n      pop\n      pop\n        /* \"hopium/standalone/main/multiswap-router.sol\":7673:8156  for (uint256 i = 0; i < inputs.length; i++) {... */\n      jump(tag_101)\n    tag_102:\n      pop\n        /* \"hopium/standalone/main/multiswap-router.sol\":8173:8182  totalWeth */\n      dup1\n        /* \"hopium/standalone/main/multiswap-router.sol\":8166:8182  return totalWeth */\n      swap2\n      pop\n      pop\n        /* \"hopium/standalone/main/multiswap-router.sol\":7500:8189  function _swapInputToWeth(SwapOrderInput[] calldata inputs, uint256 slippageBips, uint256 deadlineInSec) internal returns (uint256) {... */\n      swap5\n      swap4\n      pop\n      pop\n      pop\n      pop\n      jump\t// out\n        /* \"hopium/standalone/main/multiswap-router.sol\":9206:10194  function _distributeFees(SwapFee[] calldata fees, uint256 totalWethAmount) internal returns (uint256) {... */\n    tag_52:\n        /* \"hopium/standalone/main/multiswap-router.sol\":9299:9306  uint256 */\n      0x00\n        /* \"hopium/standalone/main/multiswap-router.sol\":9337:9338  0 */\n      0x00\n        /* \"hopium/standalone/main/multiswap-router.sol\":9322:9326  fees */\n      dup5\n      dup5\n        /* \"hopium/standalone/main/multiswap-router.sol\":9322:9333  fees.length */\n      swap1\n      pop\n        /* \"hopium/standalone/main/multiswap-router.sol\":9322:9338  fees.length == 0 */\n      sub\n        /* \"hopium/standalone/main/multiswap-router.sol\":9318:9362  if (fees.length == 0) return totalWethAmount */\n      tag_126\n      jumpi\n        /* \"hopium/standalone/main/multiswap-router.sol\":9347:9362  totalWethAmount */\n      dup2\n        /* \"hopium/standalone/main/multiswap-router.sol\":9340:9362  return totalWethAmount */\n      swap1\n      pop\n      jump(tag_125)\n        /* \"hopium/standalone/main/multiswap-router.sol\":9318:9362  if (fees.length == 0) return totalWethAmount */\n    tag_126:\n        /* \"hopium/standalone/main/multiswap-router.sol\":9373:9388  uint256 sumBips */\n      0x00\n        /* \"hopium/standalone/main/multiswap-router.sol\":9391:9392  0 */\n      0x00\n        /* \"hopium/standalone/main/multiswap-router.sol\":9373:9392  uint256 sumBips = 0 */\n      swap1\n      pop\n        /* \"hopium/standalone/main/multiswap-router.sol\":9407:9416  uint256 i */\n      0x00\n        /* \"hopium/standalone/main/multiswap-router.sol\":9419:9420  0 */\n      0x00\n        /* \"hopium/standalone/main/multiswap-router.sol\":9407:9420  uint256 i = 0 */\n      swap1\n      pop\n        /* \"hopium/standalone/main/multiswap-router.sol\":9402:9633  for (uint256 i = 0; i < fees.length; i++) {... */\n    tag_127:\n        /* \"hopium/standalone/main/multiswap-router.sol\":9426:9430  fees */\n      dup6\n      dup6\n        /* \"hopium/standalone/main/multiswap-router.sol\":9426:9437  fees.length */\n      swap1\n      pop\n        /* \"hopium/standalone/main/multiswap-router.sol\":9422:9423  i */\n      dup2\n        /* \"hopium/standalone/main/multiswap-router.sol\":9422:9437  i < fees.length */\n      lt\n        /* \"hopium/standalone/main/multiswap-router.sol\":9402:9633  for (uint256 i = 0; i < fees.length; i++) {... */\n      iszero\n      tag_128\n      jumpi\n        /* \"hopium/standalone/main/multiswap-router.sol\":3744:3745  0 */\n      0x00\n        /* \"hopium/standalone/main/multiswap-router.sol\":9466:9500  fees[i].feeAddress != ZERO_ADDRESS */\n      0xffffffffffffffffffffffffffffffffffffffff\n      and\n        /* \"hopium/standalone/main/multiswap-router.sol\":9466:9470  fees */\n      dup7\n      dup7\n        /* \"hopium/standalone/main/multiswap-router.sol\":9471:9472  i */\n      dup4\n        /* \"hopium/standalone/main/multiswap-router.sol\":9466:9473  fees[i] */\n      dup2\n      dup2\n      lt\n      tag_130\n      jumpi\n      tag_131\n      tag_71\n      jump\t// in\n    tag_131:\n    tag_130:\n      swap1\n      pop\n      0x40\n      mul\n      add\n        /* \"hopium/standalone/main/multiswap-router.sol\":9466:9484  fees[i].feeAddress */\n      0x00\n      add\n      0x20\n      dup2\n      add\n      swap1\n      tag_132\n      swap2\n      swap1\n      tag_73\n      jump\t// in\n    tag_132:\n        /* \"hopium/standalone/main/multiswap-router.sol\":9466:9500  fees[i].feeAddress != ZERO_ADDRESS */\n      0xffffffffffffffffffffffffffffffffffffffff\n      and\n      sub\n        /* \"hopium/standalone/main/multiswap-router.sol\":9458:9522  require(fees[i].feeAddress != ZERO_ADDRESS, \"Fee: zero address\") */\n      tag_133\n      jumpi\n      mload(0x40)\n      0x08c379a000000000000000000000000000000000000000000000000000000000\n      dup2\n      mstore\n      0x04\n      add\n      tag_134\n      swap1\n      tag_135\n      jump\t// in\n    tag_134:\n      mload(0x40)\n      dup1\n      swap2\n      sub\n      swap1\n      revert\n    tag_133:\n        /* \"hopium/standalone/main/multiswap-router.sol\":9562:9563  0 */\n      0x00\n        /* \"hopium/standalone/main/multiswap-router.sol\":9544:9548  fees */\n      dup7\n      dup7\n        /* \"hopium/standalone/main/multiswap-router.sol\":9549:9550  i */\n      dup4\n        /* \"hopium/standalone/main/multiswap-router.sol\":9544:9551  fees[i] */\n      dup2\n      dup2\n      lt\n      tag_136\n      jumpi\n      tag_137\n      tag_71\n      jump\t// in\n    tag_137:\n    tag_136:\n      swap1\n      pop\n      0x40\n      mul\n      add\n        /* \"hopium/standalone/main/multiswap-router.sol\":9544:9559  fees[i].feeBips */\n      0x20\n      add\n      0x20\n      dup2\n      add\n      swap1\n      tag_138\n      swap2\n      swap1\n      tag_89\n      jump\t// in\n    tag_138:\n        /* \"hopium/standalone/main/multiswap-router.sol\":9544:9563  fees[i].feeBips > 0 */\n      0xffff\n      and\n      gt\n        /* \"hopium/standalone/main/multiswap-router.sol\":9536:9582  require(fees[i].feeBips > 0, \"Fee: zero bips\") */\n      tag_139\n      jumpi\n      mload(0x40)\n      0x08c379a000000000000000000000000000000000000000000000000000000000\n      dup2\n      mstore\n      0x04\n      add\n      tag_140\n      swap1\n      tag_141\n      jump\t// in\n    tag_140:\n      mload(0x40)\n      dup1\n      swap2\n      sub\n      swap1\n      revert\n    tag_139:\n        /* \"hopium/standalone/main/multiswap-router.sol\":9607:9611  fees */\n      dup6\n      dup6\n        /* \"hopium/standalone/main/multiswap-router.sol\":9612:9613  i */\n      dup3\n        /* \"hopium/standalone/main/multiswap-router.sol\":9607:9614  fees[i] */\n      dup2\n      dup2\n      lt\n      tag_142\n      jumpi\n      tag_143\n      tag_71\n      jump\t// in\n    tag_143:\n    tag_142:\n      swap1\n      pop\n      0x40\n      mul\n      add\n        /* \"hopium/standalone/main/multiswap-router.sol\":9607:9622  fees[i].feeBips */\n      0x20\n      add\n      0x20\n      dup2\n      add\n      swap1\n      tag_144\n      swap2\n      swap1\n      tag_89\n      jump\t// in\n    tag_144:\n        /* \"hopium/standalone/main/multiswap-router.sol\":9596:9622  sumBips += fees[i].feeBips */\n      0xffff\n      and\n      dup3\n      tag_145\n      swap2\n      swap1\n      tag_78\n      jump\t// in\n    tag_145:\n      swap2\n      pop\n        /* \"hopium/standalone/main/multiswap-router.sol\":9439:9442  i++ */\n      dup1\n      dup1\n      0x01\n      add\n      swap2\n      pop\n      pop\n        /* \"hopium/standalone/main/multiswap-router.sol\":9402:9633  for (uint256 i = 0; i < fees.length; i++) {... */\n      jump(tag_127)\n    tag_128:\n      pop\n        /* \"hopium/common/storage/bips.sol\":97:103  10_000 */\n      0x2710\n        /* \"hopium/standalone/main/multiswap-router.sol\":9650:9657  sumBips */\n      dup2\n        /* \"hopium/standalone/main/multiswap-router.sol\":9650:9681  sumBips <= HUNDRED_PERCENT_BIPS */\n      gt\n      iszero\n        /* \"hopium/standalone/main/multiswap-router.sol\":9642:9697  require(sumBips <= HUNDRED_PERCENT_BIPS, \"Fee: > 100%\") */\n      tag_146\n      jumpi\n      mload(0x40)\n      0x08c379a000000000000000000000000000000000000000000000000000000000\n      dup2\n      mstore\n      0x04\n      add\n      tag_147\n      swap1\n      tag_148\n      jump\t// in\n    tag_147:\n      mload(0x40)\n      dup1\n      swap2\n      sub\n      swap1\n      revert\n    tag_146:\n        /* \"hopium/standalone/main/multiswap-router.sol\":9708:9725  uint256 remaining */\n      0x00\n        /* \"hopium/standalone/main/multiswap-router.sol\":9728:9743  totalWethAmount */\n      dup4\n        /* \"hopium/standalone/main/multiswap-router.sol\":9708:9743  uint256 remaining = totalWethAmount */\n      swap1\n      pop\n        /* \"hopium/standalone/main/multiswap-router.sol\":9759:9768  uint256 i */\n      0x00\n        /* \"hopium/standalone/main/multiswap-router.sol\":9771:9772  0 */\n      0x00\n        /* \"hopium/standalone/main/multiswap-router.sol\":9759:9772  uint256 i = 0 */\n      swap1\n      pop\n        /* \"hopium/standalone/main/multiswap-router.sol\":9754:10161  for (uint256 i = 0; i < fees.length; i++) {... */\n    tag_149:\n        /* \"hopium/standalone/main/multiswap-router.sol\":9778:9782  fees */\n      dup7\n      dup7\n        /* \"hopium/standalone/main/multiswap-router.sol\":9778:9789  fees.length */\n      swap1\n      pop\n        /* \"hopium/standalone/main/multiswap-router.sol\":9774:9775  i */\n      dup2\n        /* \"hopium/standalone/main/multiswap-router.sol\":9774:9789  i < fees.length */\n      lt\n        /* \"hopium/standalone/main/multiswap-router.sol\":9754:10161  for (uint256 i = 0; i < fees.length; i++) {... */\n      iszero\n      tag_150\n      jumpi\n        /* \"hopium/standalone/main/multiswap-router.sol\":9810:9824  uint256 amount */\n      0x00\n        /* \"hopium/standalone/main/multiswap-router.sol\":9827:9882  _calcAmountFromWeight(totalWethAmount, fees[i].feeBips) */\n      tag_152\n        /* \"hopium/standalone/main/multiswap-router.sol\":9849:9864  totalWethAmount */\n      dup7\n        /* \"hopium/standalone/main/multiswap-router.sol\":9866:9870  fees */\n      dup10\n      dup10\n        /* \"hopium/standalone/main/multiswap-router.sol\":9871:9872  i */\n      dup6\n        /* \"hopium/standalone/main/multiswap-router.sol\":9866:9873  fees[i] */\n      dup2\n      dup2\n      lt\n      tag_153\n      jumpi\n      tag_154\n      tag_71\n      jump\t// in\n    tag_154:\n    tag_153:\n      swap1\n      pop\n      0x40\n      mul\n      add\n        /* \"hopium/standalone/main/multiswap-router.sol\":9866:9881  fees[i].feeBips */\n      0x20\n      add\n      0x20\n      dup2\n      add\n      swap1\n      tag_155\n      swap2\n      swap1\n      tag_89\n      jump\t// in\n    tag_155:\n        /* \"hopium/standalone/main/multiswap-router.sol\":9827:9848  _calcAmountFromWeight */\n      tag_156\n        /* \"hopium/standalone/main/multiswap-router.sol\":9827:9882  _calcAmountFromWeight(totalWethAmount, fees[i].feeBips) */\n      jump\t// in\n    tag_152:\n        /* \"hopium/standalone/main/multiswap-router.sol\":9810:9882  uint256 amount = _calcAmountFromWeight(totalWethAmount, fees[i].feeBips) */\n      swap1\n      pop\n        /* \"hopium/standalone/main/multiswap-router.sol\":9911:9912  0 */\n      0x00\n        /* \"hopium/standalone/main/multiswap-router.sol\":9901:9907  amount */\n      dup2\n        /* \"hopium/standalone/main/multiswap-router.sol\":9901:9912  amount == 0 */\n      sub\n        /* \"hopium/standalone/main/multiswap-router.sol\":9897:9922  if (amount == 0) continue */\n      tag_157\n      jumpi\n        /* \"hopium/standalone/main/multiswap-router.sol\":9914:9922  continue */\n      pop\n      jump(tag_151)\n        /* \"hopium/standalone/main/multiswap-router.sol\":9897:9922  if (amount == 0) continue */\n    tag_157:\n        /* \"hopium/standalone/main/multiswap-router.sol\":9964:10021  _swapWethToEth(address(this), fees[i].feeAddress, amount) */\n      tag_158\n        /* \"hopium/standalone/main/multiswap-router.sol\":9987:9991  this */\n      address\n        /* \"hopium/standalone/main/multiswap-router.sol\":9994:9998  fees */\n      dup10\n      dup10\n        /* \"hopium/standalone/main/multiswap-router.sol\":9999:10000  i */\n      dup6\n        /* \"hopium/standalone/main/multiswap-router.sol\":9994:10001  fees[i] */\n      dup2\n      dup2\n      lt\n      tag_159\n      jumpi\n      tag_160\n      tag_71\n      jump\t// in\n    tag_160:\n    tag_159:\n      swap1\n      pop\n      0x40\n      mul\n      add\n        /* \"hopium/standalone/main/multiswap-router.sol\":9994:10012  fees[i].feeAddress */\n      0x00\n      add\n      0x20\n      dup2\n      add\n      swap1\n      tag_161\n      swap2\n      swap1\n      tag_73\n      jump\t// in\n    tag_161:\n        /* \"hopium/standalone/main/multiswap-router.sol\":10014:10020  amount */\n      dup4\n        /* \"hopium/standalone/main/multiswap-router.sol\":9964:9978  _swapWethToEth */\n      tag_162\n        /* \"hopium/standalone/main/multiswap-router.sol\":9964:10021  _swapWethToEth(address(this), fees[i].feeAddress, amount) */\n      jump\t// in\n    tag_158:\n        /* \"hopium/standalone/main/multiswap-router.sol\":10048:10054  amount */\n      dup1\n        /* \"hopium/standalone/main/multiswap-router.sol\":10035:10054  remaining -= amount */\n      dup4\n      tag_163\n      swap2\n      swap1\n      tag_164\n      jump\t// in\n    tag_163:\n      swap3\n      pop\n        /* \"hopium/standalone/main/multiswap-router.sol\":10123:10127  fees */\n      dup8\n      dup8\n        /* \"hopium/standalone/main/multiswap-router.sol\":10128:10129  i */\n      dup4\n        /* \"hopium/standalone/main/multiswap-router.sol\":10123:10130  fees[i] */\n      dup2\n      dup2\n      lt\n      tag_165\n      jumpi\n      tag_166\n      tag_71\n      jump\t// in\n    tag_166:\n    tag_165:\n      swap1\n      pop\n      0x40\n      mul\n      add\n        /* \"hopium/standalone/main/multiswap-router.sol\":10123:10141  fees[i].feeAddress */\n      0x00\n      add\n      0x20\n      dup2\n      add\n      swap1\n      tag_167\n      swap2\n      swap1\n      tag_73\n      jump\t// in\n    tag_167:\n        /* \"hopium/standalone/main/multiswap-router.sol\":10115:10150  FeePaid(fees[i].feeAddress, amount) */\n      0xffffffffffffffffffffffffffffffffffffffff\n      and\n      0x075a2720282fdf622141dae0b048ef90a21a7e57c134c76912d19d006b3b3f6f\n        /* \"hopium/standalone/main/multiswap-router.sol\":10143:10149  amount */\n      dup3\n        /* \"hopium/standalone/main/multiswap-router.sol\":10115:10150  FeePaid(fees[i].feeAddress, amount) */\n      mload(0x40)\n      tag_168\n      swap2\n      swap1\n      tag_169\n      jump\t// in\n    tag_168:\n      mload(0x40)\n      dup1\n      swap2\n      sub\n      swap1\n      log2\n        /* \"hopium/standalone/main/multiswap-router.sol\":9796:10161  {... */\n      pop\n        /* \"hopium/standalone/main/multiswap-router.sol\":9754:10161  for (uint256 i = 0; i < fees.length; i++) {... */\n    tag_151:\n        /* \"hopium/standalone/main/multiswap-router.sol\":9791:9794  i++ */\n      dup1\n      dup1\n      0x01\n      add\n      swap2\n      pop\n      pop\n        /* \"hopium/standalone/main/multiswap-router.sol\":9754:10161  for (uint256 i = 0; i < fees.length; i++) {... */\n      jump(tag_149)\n    tag_150:\n      pop\n        /* \"hopium/standalone/main/multiswap-router.sol\":10178:10187  remaining */\n      dup1\n        /* \"hopium/standalone/main/multiswap-router.sol\":10171:10187  return remaining */\n      swap3\n      pop\n      pop\n      pop\n        /* \"hopium/standalone/main/multiswap-router.sol\":9206:10194  function _distributeFees(SwapFee[] calldata fees, uint256 totalWethAmount) internal returns (uint256) {... */\n    tag_125:\n      swap4\n      swap3\n      pop\n      pop\n      pop\n      jump\t// out\n        /* \"hopium/standalone/main/multiswap-router.sol\":8195:9010  function _swapWethToOutput(uint256 wethAmount, SwapOrderOutput[] calldata outputs, address receiver, uint256 slippageBips, uint256 deadlineInSec) internal {... */\n    tag_54:\n        /* \"hopium/standalone/main/multiswap-router.sol\":8360:8379  address wethAddress */\n      0x00\n        /* \"hopium/standalone/main/multiswap-router.sol\":8382:8391  getWeth() */\n      tag_171\n        /* \"hopium/standalone/main/multiswap-router.sol\":8382:8389  getWeth */\n      tag_8\n        /* \"hopium/standalone/main/multiswap-router.sol\":8382:8391  getWeth() */\n      jump\t// in\n    tag_171:\n        /* \"hopium/standalone/main/multiswap-router.sol\":8360:8391  address wethAddress = getWeth() */\n      swap1\n      pop\n        /* \"hopium/standalone/main/multiswap-router.sol\":8407:8416  uint256 i */\n      0x00\n        /* \"hopium/standalone/main/multiswap-router.sol\":8419:8420  0 */\n      0x00\n        /* \"hopium/standalone/main/multiswap-router.sol\":8407:8420  uint256 i = 0 */\n      swap1\n      pop\n        /* \"hopium/standalone/main/multiswap-router.sol\":8402:9003  for (uint256 i = 0; i < outputs.length; i++) {... */\n    tag_172:\n        /* \"hopium/standalone/main/multiswap-router.sol\":8426:8433  outputs */\n      dup7\n      dup7\n        /* \"hopium/standalone/main/multiswap-router.sol\":8426:8440  outputs.length */\n      swap1\n      pop\n        /* \"hopium/standalone/main/multiswap-router.sol\":8422:8423  i */\n      dup2\n        /* \"hopium/standalone/main/multiswap-router.sol\":8422:8440  i < outputs.length */\n      lt\n        /* \"hopium/standalone/main/multiswap-router.sol\":8402:9003  for (uint256 i = 0; i < outputs.length; i++) {... */\n      iszero\n      tag_173\n      jumpi\n        /* \"hopium/standalone/main/multiswap-router.sol\":8461:8475  uint256 amount */\n      0x00\n        /* \"hopium/standalone/main/multiswap-router.sol\":8478:8534  _calcAmountFromWeight(wethAmount, outputs[i].weightBips) */\n      tag_175\n        /* \"hopium/standalone/main/multiswap-router.sol\":8500:8510  wethAmount */\n      dup10\n        /* \"hopium/standalone/main/multiswap-router.sol\":8512:8519  outputs */\n      dup10\n      dup10\n        /* \"hopium/standalone/main/multiswap-router.sol\":8520:8521  i */\n      dup6\n        /* \"hopium/standalone/main/multiswap-router.sol\":8512:8522  outputs[i] */\n      dup2\n      dup2\n      lt\n      tag_176\n      jumpi\n      tag_177\n      tag_71\n      jump\t// in\n    tag_177:\n    tag_176:\n      swap1\n      pop\n      0x40\n      mul\n      add\n        /* \"hopium/standalone/main/multiswap-router.sol\":8512:8533  outputs[i].weightBips */\n      0x20\n      add\n      0x20\n      dup2\n      add\n      swap1\n      tag_178\n      swap2\n      swap1\n      tag_89\n      jump\t// in\n    tag_178:\n        /* \"hopium/standalone/main/multiswap-router.sol\":8478:8499  _calcAmountFromWeight */\n      tag_156\n        /* \"hopium/standalone/main/multiswap-router.sol\":8478:8534  _calcAmountFromWeight(wethAmount, outputs[i].weightBips) */\n      jump\t// in\n    tag_175:\n        /* \"hopium/standalone/main/multiswap-router.sol\":8461:8534  uint256 amount = _calcAmountFromWeight(wethAmount, outputs[i].weightBips) */\n      swap1\n      pop\n        /* \"hopium/standalone/main/multiswap-router.sol\":8562:8563  0 */\n      0x00\n        /* \"hopium/standalone/main/multiswap-router.sol\":8552:8558  amount */\n      dup2\n        /* \"hopium/standalone/main/multiswap-router.sol\":8552:8563  amount == 0 */\n      sub\n        /* \"hopium/standalone/main/multiswap-router.sol\":8548:8573  if (amount == 0) continue */\n      tag_179\n      jumpi\n        /* \"hopium/standalone/main/multiswap-router.sol\":8565:8573  continue */\n      pop\n      jump(tag_174)\n        /* \"hopium/standalone/main/multiswap-router.sol\":8548:8573  if (amount == 0) continue */\n    tag_179:\n        /* \"hopium/standalone/main/multiswap-router.sol\":3744:3745  0 */\n      0x00\n        /* \"hopium/standalone/main/multiswap-router.sol\":8592:8631  outputs[i].tokenAddress == ZERO_ADDRESS */\n      0xffffffffffffffffffffffffffffffffffffffff\n      and\n        /* \"hopium/standalone/main/multiswap-router.sol\":8592:8599  outputs */\n      dup9\n      dup9\n        /* \"hopium/standalone/main/multiswap-router.sol\":8600:8601  i */\n      dup5\n        /* \"hopium/standalone/main/multiswap-router.sol\":8592:8602  outputs[i] */\n      dup2\n      dup2\n      lt\n      tag_180\n      jumpi\n      tag_181\n      tag_71\n      jump\t// in\n    tag_181:\n    tag_180:\n      swap1\n      pop\n      0x40\n      mul\n      add\n        /* \"hopium/standalone/main/multiswap-router.sol\":8592:8615  outputs[i].tokenAddress */\n      0x00\n      add\n      0x20\n      dup2\n      add\n      swap1\n      tag_182\n      swap2\n      swap1\n      tag_73\n      jump\t// in\n    tag_182:\n        /* \"hopium/standalone/main/multiswap-router.sol\":8592:8631  outputs[i].tokenAddress == ZERO_ADDRESS */\n      0xffffffffffffffffffffffffffffffffffffffff\n      and\n      sub\n        /* \"hopium/standalone/main/multiswap-router.sol\":8588:8993  if (outputs[i].tokenAddress == ZERO_ADDRESS) {... */\n      tag_183\n      jumpi\n        /* \"hopium/standalone/main/multiswap-router.sol\":8651:8698  _swapWethToEth(address(this), receiver, amount) */\n      tag_184\n        /* \"hopium/standalone/main/multiswap-router.sol\":8674:8678  this */\n      address\n        /* \"hopium/standalone/main/multiswap-router.sol\":8681:8689  receiver */\n      dup8\n        /* \"hopium/standalone/main/multiswap-router.sol\":8691:8697  amount */\n      dup4\n        /* \"hopium/standalone/main/multiswap-router.sol\":8651:8665  _swapWethToEth */\n      tag_162\n        /* \"hopium/standalone/main/multiswap-router.sol\":8651:8698  _swapWethToEth(address(this), receiver, amount) */\n      jump\t// in\n    tag_184:\n        /* \"hopium/standalone/main/multiswap-router.sol\":8588:8993  if (outputs[i].tokenAddress == ZERO_ADDRESS) {... */\n      jump(tag_185)\n    tag_183:\n        /* \"hopium/standalone/main/multiswap-router.sol\":8750:8761  wethAddress */\n      dup3\n        /* \"hopium/standalone/main/multiswap-router.sol\":8723:8761  outputs[i].tokenAddress == wethAddress */\n      0xffffffffffffffffffffffffffffffffffffffff\n      and\n        /* \"hopium/standalone/main/multiswap-router.sol\":8723:8730  outputs */\n      dup9\n      dup9\n        /* \"hopium/standalone/main/multiswap-router.sol\":8731:8732  i */\n      dup5\n        /* \"hopium/standalone/main/multiswap-router.sol\":8723:8733  outputs[i] */\n      dup2\n      dup2\n      lt\n      tag_186\n      jumpi\n      tag_187\n      tag_71\n      jump\t// in\n    tag_187:\n    tag_186:\n      swap1\n      pop\n      0x40\n      mul\n      add\n        /* \"hopium/standalone/main/multiswap-router.sol\":8723:8746  outputs[i].tokenAddress */\n      0x00\n      add\n      0x20\n      dup2\n      add\n      swap1\n      tag_188\n      swap2\n      swap1\n      tag_73\n      jump\t// in\n    tag_188:\n        /* \"hopium/standalone/main/multiswap-router.sol\":8723:8761  outputs[i].tokenAddress == wethAddress */\n      0xffffffffffffffffffffffffffffffffffffffff\n      and\n      sub\n        /* \"hopium/standalone/main/multiswap-router.sol\":8719:8993  if (outputs[i].tokenAddress == wethAddress) {... */\n      tag_189\n      jumpi\n        /* \"hopium/standalone/main/multiswap-router.sol\":8781:8822  _sendToken(wethAddress, receiver, amount) */\n      tag_190\n        /* \"hopium/standalone/main/multiswap-router.sol\":8792:8803  wethAddress */\n      dup4\n        /* \"hopium/standalone/main/multiswap-router.sol\":8805:8813  receiver */\n      dup8\n        /* \"hopium/standalone/main/multiswap-router.sol\":8815:8821  amount */\n      dup4\n        /* \"hopium/standalone/main/multiswap-router.sol\":8781:8791  _sendToken */\n      tag_191\n        /* \"hopium/standalone/main/multiswap-router.sol\":8781:8822  _sendToken(wethAddress, receiver, amount) */\n      jump\t// in\n    tag_190:\n        /* \"hopium/standalone/main/multiswap-router.sol\":8719:8993  if (outputs[i].tokenAddress == wethAddress) {... */\n      jump(tag_192)\n    tag_189:\n        /* \"hopium/standalone/main/multiswap-router.sol\":8861:8978  _swapTokenToToken(wethAddress, outputs[i].tokenAddress, amount, address(this), receiver, slippageBips, deadlineInSec) */\n      tag_193\n        /* \"hopium/standalone/main/multiswap-router.sol\":8879:8890  wethAddress */\n      dup4\n        /* \"hopium/standalone/main/multiswap-router.sol\":8892:8899  outputs */\n      dup10\n      dup10\n        /* \"hopium/standalone/main/multiswap-router.sol\":8900:8901  i */\n      dup6\n        /* \"hopium/standalone/main/multiswap-router.sol\":8892:8902  outputs[i] */\n      dup2\n      dup2\n      lt\n      tag_194\n      jumpi\n      tag_195\n      tag_71\n      jump\t// in\n    tag_195:\n    tag_194:\n      swap1\n      pop\n      0x40\n      mul\n      add\n        /* \"hopium/standalone/main/multiswap-router.sol\":8892:8915  outputs[i].tokenAddress */\n      0x00\n      add\n      0x20\n      dup2\n      add\n      swap1\n      tag_196\n      swap2\n      swap1\n      tag_73\n      jump\t// in\n    tag_196:\n        /* \"hopium/standalone/main/multiswap-router.sol\":8917:8923  amount */\n      dup4\n        /* \"hopium/standalone/main/multiswap-router.sol\":8933:8937  this */\n      address\n        /* \"hopium/standalone/main/multiswap-router.sol\":8940:8948  receiver */\n      dup11\n        /* \"hopium/standalone/main/multiswap-router.sol\":8950:8962  slippageBips */\n      dup11\n        /* \"hopium/standalone/main/multiswap-router.sol\":8964:8977  deadlineInSec */\n      dup11\n        /* \"hopium/standalone/main/multiswap-router.sol\":8861:8878  _swapTokenToToken */\n      tag_123\n        /* \"hopium/standalone/main/multiswap-router.sol\":8861:8978  _swapTokenToToken(wethAddress, outputs[i].tokenAddress, amount, address(this), receiver, slippageBips, deadlineInSec) */\n      jump\t// in\n    tag_193:\n      pop\n        /* \"hopium/standalone/main/multiswap-router.sol\":8719:8993  if (outputs[i].tokenAddress == wethAddress) {... */\n    tag_192:\n        /* \"hopium/standalone/main/multiswap-router.sol\":8588:8993  if (outputs[i].tokenAddress == ZERO_ADDRESS) {... */\n    tag_185:\n        /* \"hopium/standalone/main/multiswap-router.sol\":8447:9003  {... */\n      pop\n        /* \"hopium/standalone/main/multiswap-router.sol\":8402:9003  for (uint256 i = 0; i < outputs.length; i++) {... */\n    tag_174:\n        /* \"hopium/standalone/main/multiswap-router.sol\":8442:8445  i++ */\n      dup1\n      dup1\n      0x01\n      add\n      swap2\n      pop\n      pop\n        /* \"hopium/standalone/main/multiswap-router.sol\":8402:9003  for (uint256 i = 0; i < outputs.length; i++) {... */\n      jump(tag_172)\n    tag_173:\n      pop\n        /* \"hopium/standalone/main/multiswap-router.sol\":8350:9010  {... */\n      pop\n        /* \"hopium/standalone/main/multiswap-router.sol\":8195:9010  function _swapWethToOutput(uint256 wethAmount, SwapOrderOutput[] calldata outputs, address receiver, uint256 slippageBips, uint256 deadlineInSec) internal {... */\n      pop\n      pop\n      pop\n      pop\n      pop\n      pop\n      jump\t// out\n        /* \"hopium/standalone/main/multiswap-router.sol\":10200:10737  function _refundRemaining(address toAddress) internal {... */\n    tag_56:\n        /* \"hopium/standalone/main/multiswap-router.sol\":10264:10283  uint256 wethBalance */\n      0x00\n        /* \"hopium/standalone/main/multiswap-router.sol\":10292:10301  getWeth() */\n      tag_198\n        /* \"hopium/standalone/main/multiswap-router.sol\":10292:10299  getWeth */\n      tag_8\n        /* \"hopium/standalone/main/multiswap-router.sol\":10292:10301  getWeth() */\n      jump\t// in\n    tag_198:\n        /* \"hopium/standalone/main/multiswap-router.sol\":10286:10312  IWETH(getWeth()).balanceOf */\n      0xffffffffffffffffffffffffffffffffffffffff\n      and\n      0x70a08231\n        /* \"hopium/standalone/main/multiswap-router.sol\":10321:10325  this */\n      address\n        /* \"hopium/standalone/main/multiswap-router.sol\":10286:10327  IWETH(getWeth()).balanceOf(address(this)) */\n      mload(0x40)\n      dup3\n      0xffffffff\n      and\n      0xe0\n      shl\n      dup2\n      mstore\n      0x04\n      add\n      tag_199\n      swap2\n      swap1\n      tag_200\n      jump\t// in\n    tag_199:\n      0x20\n      mload(0x40)\n      dup1\n      dup4\n      sub\n      dup2\n      dup7\n      gas\n      staticcall\n      iszero\n      dup1\n      iszero\n      tag_202\n      jumpi\n      returndatacopy(0x00, 0x00, returndatasize)\n      revert(0x00, returndatasize)\n    tag_202:\n      pop\n      pop\n      pop\n      pop\n      mload(0x40)\n      returndatasize\n      not(0x1f)\n      0x1f\n      dup3\n      add\n      and\n      dup3\n      add\n      dup1\n      0x40\n      mstore\n      pop\n      dup2\n      add\n      swap1\n      tag_203\n      swap2\n      swap1\n      tag_204\n      jump\t// in\n    tag_203:\n        /* \"hopium/standalone/main/multiswap-router.sol\":10264:10327  uint256 wethBalance = IWETH(getWeth()).balanceOf(address(this)) */\n      swap1\n      pop\n        /* \"hopium/standalone/main/multiswap-router.sol\":10337:10355  uint256 ethBalance */\n      0x00\n        /* \"hopium/standalone/main/multiswap-router.sol\":10358:10379  address(this).balance */\n      selfbalance\n        /* \"hopium/standalone/main/multiswap-router.sol\":10337:10379  uint256 ethBalance = address(this).balance */\n      swap1\n      pop\n        /* \"hopium/standalone/main/multiswap-router.sol\":10476:10477  0 */\n      0x00\n        /* \"hopium/standalone/main/multiswap-router.sol\":10462:10473  wethBalance */\n      dup3\n        /* \"hopium/standalone/main/multiswap-router.sol\":10462:10477  wethBalance > 0 */\n      gt\n        /* \"hopium/standalone/main/multiswap-router.sol\":10458:10557  if (wethBalance > 0) {... */\n      iszero\n      tag_205\n      jumpi\n        /* \"hopium/standalone/main/multiswap-router.sol\":10493:10546  _swapWethToEth(address(this), toAddress, wethBalance) */\n      tag_206\n        /* \"hopium/standalone/main/multiswap-router.sol\":10516:10520  this */\n      address\n        /* \"hopium/standalone/main/multiswap-router.sol\":10523:10532  toAddress */\n      dup5\n        /* \"hopium/standalone/main/multiswap-router.sol\":10534:10545  wethBalance */\n      dup5\n        /* \"hopium/standalone/main/multiswap-router.sol\":10493:10507  _swapWethToEth */\n      tag_162\n        /* \"hopium/standalone/main/multiswap-router.sol\":10493:10546  _swapWethToEth(address(this), toAddress, wethBalance) */\n      jump\t// in\n    tag_206:\n        /* \"hopium/standalone/main/multiswap-router.sol\":10458:10557  if (wethBalance > 0) {... */\n    tag_205:\n        /* \"hopium/standalone/main/multiswap-router.sol\":10672:10673  0 */\n      0x00\n        /* \"hopium/standalone/main/multiswap-router.sol\":10659:10669  ethBalance */\n      dup2\n        /* \"hopium/standalone/main/multiswap-router.sol\":10659:10673  ethBalance > 0 */\n      gt\n        /* \"hopium/standalone/main/multiswap-router.sol\":10655:10731  if (ethBalance > 0) {... */\n      iszero\n      tag_207\n      jumpi\n        /* \"hopium/standalone/main/multiswap-router.sol\":10689:10720  _sendEth(toAddress, ethBalance) */\n      tag_208\n        /* \"hopium/standalone/main/multiswap-router.sol\":10698:10707  toAddress */\n      dup4\n        /* \"hopium/standalone/main/multiswap-router.sol\":10709:10719  ethBalance */\n      dup3\n        /* \"hopium/standalone/main/multiswap-router.sol\":10689:10697  _sendEth */\n      tag_209\n        /* \"hopium/standalone/main/multiswap-router.sol\":10689:10720  _sendEth(toAddress, ethBalance) */\n      jump\t// in\n    tag_208:\n        /* \"hopium/standalone/main/multiswap-router.sol\":10655:10731  if (ethBalance > 0) {... */\n    tag_207:\n        /* \"hopium/standalone/main/multiswap-router.sol\":10254:10737  {... */\n      pop\n      pop\n        /* \"hopium/standalone/main/multiswap-router.sol\":10200:10737  function _refundRemaining(address toAddress) internal {... */\n      pop\n      jump\t// out\n        /* \"@openzeppelin/contracts/security/ReentrancyGuard.sol\":2629:2838  function _nonReentrantAfter() private {... */\n    tag_60:\n        /* \"@openzeppelin/contracts/security/ReentrancyGuard.sol\":1716:1717  1 */\n      0x01\n        /* \"@openzeppelin/contracts/security/ReentrancyGuard.sol\":2809:2816  _status */\n      0x00\n        /* \"@openzeppelin/contracts/security/ReentrancyGuard.sol\":2809:2831  _status = _NOT_ENTERED */\n      dup2\n      swap1\n      sstore\n      pop\n        /* \"@openzeppelin/contracts/security/ReentrancyGuard.sol\":2629:2838  function _nonReentrantAfter() private {... */\n      jump\t// out\n        /* \"hopium/standalone/main/multiswap-router.sol\":3753:4294  function _swapEthToWeth(address fromAddress, address toAddress, uint256 amount) internal {... */\n    tag_111:\n        /* \"hopium/standalone/main/multiswap-router.sol\":3852:3871  address wethAddress */\n      0x00\n        /* \"hopium/standalone/main/multiswap-router.sol\":3874:3883  getWeth() */\n      tag_212\n        /* \"hopium/standalone/main/multiswap-router.sol\":3874:3881  getWeth */\n      tag_8\n        /* \"hopium/standalone/main/multiswap-router.sol\":3874:3883  getWeth() */\n      jump\t// in\n    tag_212:\n        /* \"hopium/standalone/main/multiswap-router.sol\":3852:3883  address wethAddress = getWeth() */\n      swap1\n      pop\n        /* \"hopium/standalone/main/multiswap-router.sol\":3910:3911  0 */\n      0x00\n        /* \"hopium/standalone/main/multiswap-router.sol\":3901:3907  amount */\n      dup3\n        /* \"hopium/standalone/main/multiswap-router.sol\":3901:3911  amount > 0 */\n      gt\n        /* \"hopium/standalone/main/multiswap-router.sol\":3893:3933  require(amount > 0, \"wrap: zero amount\") */\n      tag_213\n      jumpi\n      mload(0x40)\n      0x08c379a000000000000000000000000000000000000000000000000000000000\n      dup2\n      mstore\n      0x04\n      add\n      tag_214\n      swap1\n      tag_215\n      jump\t// in\n    tag_214:\n      mload(0x40)\n      dup1\n      swap2\n      sub\n      swap1\n      revert\n    tag_213:\n        /* \"hopium/standalone/main/multiswap-router.sol\":3974:3978  this */\n      address\n        /* \"hopium/standalone/main/multiswap-router.sol\":3951:3979  fromAddress == address(this) */\n      0xffffffffffffffffffffffffffffffffffffffff\n      and\n        /* \"hopium/standalone/main/multiswap-router.sol\":3951:3962  fromAddress */\n      dup5\n        /* \"hopium/standalone/main/multiswap-router.sol\":3951:3979  fromAddress == address(this) */\n      0xffffffffffffffffffffffffffffffffffffffff\n      and\n      eq\n        /* \"hopium/standalone/main/multiswap-router.sol\":3943:4021  require(fromAddress == address(this), \"wrap: only this contract can wrap ETH\") */\n      tag_216\n      jumpi\n      mload(0x40)\n      0x08c379a000000000000000000000000000000000000000000000000000000000\n      dup2\n      mstore\n      0x04\n      add\n      tag_217\n      swap1\n      tag_218\n      jump\t// in\n    tag_217:\n      mload(0x40)\n      dup1\n      swap2\n      sub\n      swap1\n      revert\n    tag_216:\n        /* \"hopium/standalone/main/multiswap-router.sol\":4064:4070  amount */\n      dup2\n        /* \"hopium/standalone/main/multiswap-router.sol\":4039:4060  address(this).balance */\n      selfbalance\n        /* \"hopium/standalone/main/multiswap-router.sol\":4039:4070  address(this).balance >= amount */\n      lt\n      iszero\n        /* \"hopium/standalone/main/multiswap-router.sol\":4031:4097  require(address(this).balance >= amount, \"WETH: insufficient ETH\") */\n      tag_219\n      jumpi\n      mload(0x40)\n      0x08c379a000000000000000000000000000000000000000000000000000000000\n      dup2\n      mstore\n      0x04\n      add\n      tag_220\n      swap1\n      tag_221\n      jump\t// in\n    tag_220:\n      mload(0x40)\n      dup1\n      swap2\n      sub\n      swap1\n      revert\n    tag_219:\n        /* \"hopium/standalone/main/multiswap-router.sol\":4108:4118  IWETH Weth */\n      0x00\n        /* \"hopium/standalone/main/multiswap-router.sol\":4127:4138  wethAddress */\n      dup2\n        /* \"hopium/standalone/main/multiswap-router.sol\":4108:4139  IWETH Weth = IWETH(wethAddress) */\n      swap1\n      pop\n        /* \"hopium/standalone/main/multiswap-router.sol\":4149:4153  Weth */\n      dup1\n        /* \"hopium/standalone/main/multiswap-router.sol\":4149:4161  Weth.deposit */\n      0xffffffffffffffffffffffffffffffffffffffff\n      and\n      0xd0e30db0\n        /* \"hopium/standalone/main/multiswap-router.sol\":4169:4175  amount */\n      dup5\n        /* \"hopium/standalone/main/multiswap-router.sol\":4149:4178  Weth.deposit{value: amount}() */\n      mload(0x40)\n      dup3\n      0xffffffff\n      and\n      0xe0\n      shl\n      dup2\n      mstore\n      0x04\n      add\n      0x00\n      mload(0x40)\n      dup1\n      dup4\n      sub\n      dup2\n      dup6\n      dup9\n      dup1\n      extcodesize\n      iszero\n      dup1\n      iszero\n      tag_222\n      jumpi\n      revert(0x00, 0x00)\n    tag_222:\n      pop\n      gas\n      call\n      iszero\n      dup1\n      iszero\n      tag_224\n      jumpi\n      returndatacopy(0x00, 0x00, returndatasize)\n      revert(0x00, returndatasize)\n    tag_224:\n      pop\n      pop\n      pop\n      pop\n      pop\n        /* \"hopium/standalone/main/multiswap-router.sol\":4214:4218  this */\n      address\n        /* \"hopium/standalone/main/multiswap-router.sol\":4193:4219  toAddress != address(this) */\n      0xffffffffffffffffffffffffffffffffffffffff\n      and\n        /* \"hopium/standalone/main/multiswap-router.sol\":4193:4202  toAddress */\n      dup5\n        /* \"hopium/standalone/main/multiswap-router.sol\":4193:4219  toAddress != address(this) */\n      0xffffffffffffffffffffffffffffffffffffffff\n      and\n      eq\n        /* \"hopium/standalone/main/multiswap-router.sol\":4189:4288  if (toAddress != address(this)) {... */\n      tag_225\n      jumpi\n        /* \"hopium/standalone/main/multiswap-router.sol\":4235:4277  _sendToken(wethAddress, toAddress, amount) */\n      tag_226\n        /* \"hopium/standalone/main/multiswap-router.sol\":4246:4257  wethAddress */\n      dup3\n        /* \"hopium/standalone/main/multiswap-router.sol\":4259:4268  toAddress */\n      dup6\n        /* \"hopium/standalone/main/multiswap-router.sol\":4270:4276  amount */\n      dup6\n        /* \"hopium/standalone/main/multiswap-router.sol\":4235:4245  _sendToken */\n      tag_191\n        /* \"hopium/standalone/main/multiswap-router.sol\":4235:4277  _sendToken(wethAddress, toAddress, amount) */\n      jump\t// in\n    tag_226:\n        /* \"hopium/standalone/main/multiswap-router.sol\":4189:4288  if (toAddress != address(this)) {... */\n    tag_225:\n        /* \"hopium/standalone/main/multiswap-router.sol\":3842:4294  {... */\n      pop\n      pop\n        /* \"hopium/standalone/main/multiswap-router.sol\":3753:4294  function _swapEthToWeth(address fromAddress, address toAddress, uint256 amount) internal {... */\n      pop\n      pop\n      pop\n      jump\t// out\n        /* \"hopium/standalone/main/multiswap-router.sol\":4911:6506  function _swapTokenToToken(address fromTokenAddress, address toTokenAddress, uint256 fromAmount, address fromAddress, address toAddress, uint256 slippageBips, uint256 deadlineInSec) internal returns (uint256) {... */\n    tag_123:\n        /* \"hopium/standalone/main/multiswap-router.sol\":5111:5118  uint256 */\n      0x00\n        /* \"hopium/standalone/main/multiswap-router.sol\":3744:3745  0 */\n      0x00\n        /* \"hopium/standalone/main/multiswap-router.sol\":5138:5170  fromTokenAddress != ZERO_ADDRESS */\n      0xffffffffffffffffffffffffffffffffffffffff\n      and\n        /* \"hopium/standalone/main/multiswap-router.sol\":5138:5154  fromTokenAddress */\n      dup9\n        /* \"hopium/standalone/main/multiswap-router.sol\":5138:5170  fromTokenAddress != ZERO_ADDRESS */\n      0xffffffffffffffffffffffffffffffffffffffff\n      and\n      sub\n        /* \"hopium/standalone/main/multiswap-router.sol\":5130:5219  require(fromTokenAddress != ZERO_ADDRESS, \"MultiSwap Router: Invalid from token address\") */\n      tag_228\n      jumpi\n      mload(0x40)\n      0x08c379a000000000000000000000000000000000000000000000000000000000\n      dup2\n      mstore\n      0x04\n      add\n      tag_229\n      swap1\n      tag_230\n      jump\t// in\n    tag_229:\n      mload(0x40)\n      dup1\n      swap2\n      sub\n      swap1\n      revert\n    tag_228:\n        /* \"hopium/standalone/main/multiswap-router.sol\":3744:3745  0 */\n      0x00\n        /* \"hopium/standalone/main/multiswap-router.sol\":5237:5267  toTokenAddress != ZERO_ADDRESS */\n      0xffffffffffffffffffffffffffffffffffffffff\n      and\n        /* \"hopium/standalone/main/multiswap-router.sol\":5237:5251  toTokenAddress */\n      dup8\n        /* \"hopium/standalone/main/multiswap-router.sol\":5237:5267  toTokenAddress != ZERO_ADDRESS */\n      0xffffffffffffffffffffffffffffffffffffffff\n      and\n      sub\n        /* \"hopium/standalone/main/multiswap-router.sol\":5229:5314  require(toTokenAddress != ZERO_ADDRESS, \"MultiSwap Router: Invalid to token address\") */\n      tag_231\n      jumpi\n      mload(0x40)\n      0x08c379a000000000000000000000000000000000000000000000000000000000\n      dup2\n      mstore\n      0x04\n      add\n      tag_232\n      swap1\n      tag_233\n      jump\t// in\n    tag_232:\n      mload(0x40)\n      dup1\n      swap2\n      sub\n      swap1\n      revert\n    tag_231:\n        /* \"hopium/standalone/main/multiswap-router.sol\":5345:5346  0 */\n      0x00\n        /* \"hopium/standalone/main/multiswap-router.sol\":5332:5342  fromAmount */\n      dup7\n        /* \"hopium/standalone/main/multiswap-router.sol\":5332:5346  fromAmount > 0 */\n      gt\n        /* \"hopium/standalone/main/multiswap-router.sol\":5324:5398  require(fromAmount > 0, \"MultiSwap Router: Amount must be greater than 0\") */\n      tag_234\n      jumpi\n      mload(0x40)\n      0x08c379a000000000000000000000000000000000000000000000000000000000\n      dup2\n      mstore\n      0x04\n      add\n      tag_235\n      swap1\n      tag_236\n      jump\t// in\n    tag_235:\n      mload(0x40)\n      dup1\n      swap2\n      sub\n      swap1\n      revert\n    tag_234:\n        /* \"hopium/standalone/main/multiswap-router.sol\":5409:5427  uint256 swapAmount */\n      0x00\n        /* \"hopium/standalone/main/multiswap-router.sol\":5430:5440  fromAmount */\n      dup7\n        /* \"hopium/standalone/main/multiswap-router.sol\":5409:5440  uint256 swapAmount = fromAmount */\n      swap1\n      pop\n        /* \"hopium/standalone/main/multiswap-router.sol\":5477:5481  this */\n      address\n        /* \"hopium/standalone/main/multiswap-router.sol\":5454:5482  fromAddress != address(this) */\n      0xffffffffffffffffffffffffffffffffffffffff\n      and\n        /* \"hopium/standalone/main/multiswap-router.sol\":5454:5465  fromAddress */\n      dup7\n        /* \"hopium/standalone/main/multiswap-router.sol\":5454:5482  fromAddress != address(this) */\n      0xffffffffffffffffffffffffffffffffffffffff\n      and\n      eq\n        /* \"hopium/standalone/main/multiswap-router.sol\":5450:5578  if (fromAddress != address(this)) {... */\n      tag_237\n      jumpi\n        /* \"hopium/standalone/main/multiswap-router.sol\":5511:5567  _receiveToken(fromTokenAddress, fromAmount, fromAddress) */\n      tag_238\n        /* \"hopium/standalone/main/multiswap-router.sol\":5525:5541  fromTokenAddress */\n      dup10\n        /* \"hopium/standalone/main/multiswap-router.sol\":5543:5553  fromAmount */\n      dup9\n        /* \"hopium/standalone/main/multiswap-router.sol\":5555:5566  fromAddress */\n      dup9\n        /* \"hopium/standalone/main/multiswap-router.sol\":5511:5524  _receiveToken */\n      tag_239\n        /* \"hopium/standalone/main/multiswap-router.sol\":5511:5567  _receiveToken(fromTokenAddress, fromAmount, fromAddress) */\n      jump\t// in\n    tag_238:\n        /* \"hopium/standalone/main/multiswap-router.sol\":5498:5567  swapAmount = _receiveToken(fromTokenAddress, fromAmount, fromAddress) */\n      swap1\n      pop\n        /* \"hopium/standalone/main/multiswap-router.sol\":5450:5578  if (fromAddress != address(this)) {... */\n    tag_237:\n        /* \"hopium/standalone/main/multiswap-router.sol\":5612:5626  toTokenAddress */\n      dup8\n        /* \"hopium/standalone/main/multiswap-router.sol\":5592:5626  fromTokenAddress == toTokenAddress */\n      0xffffffffffffffffffffffffffffffffffffffff\n      and\n        /* \"hopium/standalone/main/multiswap-router.sol\":5592:5608  fromTokenAddress */\n      dup10\n        /* \"hopium/standalone/main/multiswap-router.sol\":5592:5626  fromTokenAddress == toTokenAddress */\n      0xffffffffffffffffffffffffffffffffffffffff\n      and\n      sub\n        /* \"hopium/standalone/main/multiswap-router.sol\":5588:6500  if (fromTokenAddress == toTokenAddress) {... */\n      tag_240\n      jumpi\n        /* \"hopium/standalone/main/multiswap-router.sol\":5642:5693  _sendToken(fromTokenAddress, toAddress, swapAmount) */\n      tag_241\n        /* \"hopium/standalone/main/multiswap-router.sol\":5653:5669  fromTokenAddress */\n      dup10\n        /* \"hopium/standalone/main/multiswap-router.sol\":5671:5680  toAddress */\n      dup7\n        /* \"hopium/standalone/main/multiswap-router.sol\":5682:5692  swapAmount */\n      dup4\n        /* \"hopium/standalone/main/multiswap-router.sol\":5642:5652  _sendToken */\n      tag_191\n        /* \"hopium/standalone/main/multiswap-router.sol\":5642:5693  _sendToken(fromTokenAddress, toAddress, swapAmount) */\n      jump\t// in\n    tag_241:\n        /* \"hopium/standalone/main/multiswap-router.sol\":5714:5724  swapAmount */\n      dup1\n        /* \"hopium/standalone/main/multiswap-router.sol\":5707:5724  return swapAmount */\n      swap2\n      pop\n      pop\n      jump(tag_227)\n        /* \"hopium/standalone/main/multiswap-router.sol\":5588:6500  if (fromTokenAddress == toTokenAddress) {... */\n    tag_240:\n        /* \"hopium/standalone/main/multiswap-router.sol\":5755:5821  _approveMaxIfNeeded(fromTokenAddress, address(router), swapAmount) */\n      tag_243\n        /* \"hopium/standalone/main/multiswap-router.sol\":5775:5791  fromTokenAddress */\n      dup10\n        /* \"hopium/standalone/main/multiswap-router.sol\":5801:5807  router */\n      immutable(\"0xd4814426b11746a15450e57cffd1ffda7a4aa876fa76f1f623571f671572667f\")\n        /* \"hopium/standalone/main/multiswap-router.sol\":5810:5820  swapAmount */\n      dup4\n        /* \"hopium/standalone/main/multiswap-router.sol\":5755:5774  _approveMaxIfNeeded */\n      tag_244\n        /* \"hopium/standalone/main/multiswap-router.sol\":5755:5821  _approveMaxIfNeeded(fromTokenAddress, address(router), swapAmount) */\n      jump\t// in\n    tag_243:\n        /* \"hopium/standalone/main/multiswap-router.sol\":5836:5857  address[] memory path */\n      0x00\n        /* \"hopium/standalone/main/multiswap-router.sol\":5860:5905  _createPath(fromTokenAddress, toTokenAddress) */\n      tag_245\n        /* \"hopium/standalone/main/multiswap-router.sol\":5872:5888  fromTokenAddress */\n      dup11\n        /* \"hopium/standalone/main/multiswap-router.sol\":5890:5904  toTokenAddress */\n      dup11\n        /* \"hopium/standalone/main/multiswap-router.sol\":5860:5871  _createPath */\n      tag_246\n        /* \"hopium/standalone/main/multiswap-router.sol\":5860:5905  _createPath(fromTokenAddress, toTokenAddress) */\n      jump\t// in\n    tag_245:\n        /* \"hopium/standalone/main/multiswap-router.sol\":5836:5905  address[] memory path = _createPath(fromTokenAddress, toTokenAddress) */\n      swap1\n      pop\n        /* \"hopium/standalone/main/multiswap-router.sol\":5920:5937  uint amountOutMin */\n      0x00\n        /* \"hopium/standalone/main/multiswap-router.sol\":5940:6001  _calcAmountOutMin(fetchQuote(swapAmount, path), slippageBips) */\n      tag_247\n        /* \"hopium/standalone/main/multiswap-router.sol\":5958:5986  fetchQuote(swapAmount, path) */\n      tag_248\n        /* \"hopium/standalone/main/multiswap-router.sol\":5969:5979  swapAmount */\n      dup5\n        /* \"hopium/standalone/main/multiswap-router.sol\":5981:5985  path */\n      dup5\n        /* \"hopium/standalone/main/multiswap-router.sol\":5958:5968  fetchQuote */\n      tag_249\n        /* \"hopium/standalone/main/multiswap-router.sol\":5958:5986  fetchQuote(swapAmount, path) */\n      jump\t// in\n    tag_248:\n        /* \"hopium/standalone/main/multiswap-router.sol\":5988:6000  slippageBips */\n      dup8\n        /* \"hopium/standalone/main/multiswap-router.sol\":5940:5957  _calcAmountOutMin */\n      tag_250\n        /* \"hopium/standalone/main/multiswap-router.sol\":5940:6001  _calcAmountOutMin(fetchQuote(swapAmount, path), slippageBips) */\n      jump\t// in\n    tag_247:\n        /* \"hopium/standalone/main/multiswap-router.sol\":5920:6001  uint amountOutMin = _calcAmountOutMin(fetchQuote(swapAmount, path), slippageBips) */\n      swap1\n      pop\n        /* \"hopium/standalone/main/multiswap-router.sol\":6016:6033  uint256 beforeBal */\n      0x00\n        /* \"hopium/standalone/main/multiswap-router.sol\":6043:6057  toTokenAddress */\n      dup11\n        /* \"hopium/standalone/main/multiswap-router.sol\":6036:6068  IERC20(toTokenAddress).balanceOf */\n      0xffffffffffffffffffffffffffffffffffffffff\n      and\n      0x70a08231\n        /* \"hopium/standalone/main/multiswap-router.sol\":6069:6078  toAddress */\n      dup10\n        /* \"hopium/standalone/main/multiswap-router.sol\":6036:6079  IERC20(toTokenAddress).balanceOf(toAddress) */\n      mload(0x40)\n      dup3\n      0xffffffff\n      and\n      0xe0\n      shl\n      dup2\n      mstore\n      0x04\n      add\n      tag_251\n      swap2\n      swap1\n      tag_200\n      jump\t// in\n    tag_251:\n      0x20\n      mload(0x40)\n      dup1\n      dup4\n      sub\n      dup2\n      dup7\n      gas\n      staticcall\n      iszero\n      dup1\n      iszero\n      tag_253\n      jumpi\n      returndatacopy(0x00, 0x00, returndatasize)\n      revert(0x00, returndatasize)\n    tag_253:\n      pop\n      pop\n      pop\n      pop\n      mload(0x40)\n      returndatasize\n      not(0x1f)\n      0x1f\n      dup3\n      add\n      and\n      dup3\n      add\n      dup1\n      0x40\n      mstore\n      pop\n      dup2\n      add\n      swap1\n      tag_254\n      swap2\n      swap1\n      tag_204\n      jump\t// in\n    tag_254:\n        /* \"hopium/standalone/main/multiswap-router.sol\":6016:6079  uint256 beforeBal = IERC20(toTokenAddress).balanceOf(toAddress) */\n      swap1\n      pop\n        /* \"hopium/standalone/main/multiswap-router.sol\":6094:6100  router */\n      immutable(\"0xd4814426b11746a15450e57cffd1ffda7a4aa876fa76f1f623571f671572667f\")\n        /* \"hopium/standalone/main/multiswap-router.sol\":6094:6154  router.swapExactTokensForTokensSupportingFeeOnTransferTokens */\n      0xffffffffffffffffffffffffffffffffffffffff\n      and\n      0x5c11d795\n        /* \"hopium/standalone/main/multiswap-router.sol\":6172:6182  swapAmount */\n      dup6\n        /* \"hopium/standalone/main/multiswap-router.sol\":6200:6212  amountOutMin */\n      dup5\n        /* \"hopium/standalone/main/multiswap-router.sol\":6230:6234  path */\n      dup7\n        /* \"hopium/standalone/main/multiswap-router.sol\":6252:6261  toAddress */\n      dup13\n        /* \"hopium/standalone/main/multiswap-router.sol\":6279:6303  _deadline(deadlineInSec) */\n      tag_255\n        /* \"hopium/standalone/main/multiswap-router.sol\":6289:6302  deadlineInSec */\n      dup13\n        /* \"hopium/standalone/main/multiswap-router.sol\":6279:6288  _deadline */\n      tag_256\n        /* \"hopium/standalone/main/multiswap-router.sol\":6279:6303  _deadline(deadlineInSec) */\n      jump\t// in\n    tag_255:\n        /* \"hopium/standalone/main/multiswap-router.sol\":6094:6317  router.swapExactTokensForTokensSupportingFeeOnTransferTokens(... */\n      mload(0x40)\n      dup7\n      0xffffffff\n      and\n      0xe0\n      shl\n      dup2\n      mstore\n      0x04\n      add\n      tag_257\n      swap6\n      swap5\n      swap4\n      swap3\n      swap2\n      swap1\n      tag_258\n      jump\t// in\n    tag_257:\n      0x00\n      mload(0x40)\n      dup1\n      dup4\n      sub\n      dup2\n      0x00\n      dup8\n      dup1\n      extcodesize\n      iszero\n      dup1\n      iszero\n      tag_259\n      jumpi\n      revert(0x00, 0x00)\n    tag_259:\n      pop\n      gas\n      call\n      iszero\n      dup1\n      iszero\n      tag_261\n      jumpi\n      returndatacopy(0x00, 0x00, returndatasize)\n      revert(0x00, returndatasize)\n    tag_261:\n      pop\n      pop\n      pop\n      pop\n        /* \"hopium/standalone/main/multiswap-router.sol\":6332:6348  uint256 afterBal */\n      0x00\n        /* \"hopium/standalone/main/multiswap-router.sol\":6358:6372  toTokenAddress */\n      dup12\n        /* \"hopium/standalone/main/multiswap-router.sol\":6351:6383  IERC20(toTokenAddress).balanceOf */\n      0xffffffffffffffffffffffffffffffffffffffff\n      and\n      0x70a08231\n        /* \"hopium/standalone/main/multiswap-router.sol\":6384:6393  toAddress */\n      dup11\n        /* \"hopium/standalone/main/multiswap-router.sol\":6351:6394  IERC20(toTokenAddress).balanceOf(toAddress) */\n      mload(0x40)\n      dup3\n      0xffffffff\n      and\n      0xe0\n      shl\n      dup2\n      mstore\n      0x04\n      add\n      tag_262\n      swap2\n      swap1\n      tag_200\n      jump\t// in\n    tag_262:\n      0x20\n      mload(0x40)\n      dup1\n      dup4\n      sub\n      dup2\n      dup7\n      gas\n      staticcall\n      iszero\n      dup1\n      iszero\n      tag_264\n      jumpi\n      returndatacopy(0x00, 0x00, returndatasize)\n      revert(0x00, returndatasize)\n    tag_264:\n      pop\n      pop\n      pop\n      pop\n      mload(0x40)\n      returndatasize\n      not(0x1f)\n      0x1f\n      dup3\n      add\n      and\n      dup3\n      add\n      dup1\n      0x40\n      mstore\n      pop\n      dup2\n      add\n      swap1\n      tag_265\n      swap2\n      swap1\n      tag_204\n      jump\t// in\n    tag_265:\n        /* \"hopium/standalone/main/multiswap-router.sol\":6332:6394  uint256 afterBal = IERC20(toTokenAddress).balanceOf(toAddress) */\n      swap1\n      pop\n        /* \"hopium/standalone/main/multiswap-router.sol\":6408:6424  uint256 received */\n      0x00\n        /* \"hopium/standalone/main/multiswap-router.sol\":6438:6447  beforeBal */\n      dup3\n        /* \"hopium/standalone/main/multiswap-router.sol\":6427:6435  afterBal */\n      dup3\n        /* \"hopium/standalone/main/multiswap-router.sol\":6427:6447  afterBal - beforeBal */\n      tag_266\n      swap2\n      swap1\n      tag_164\n      jump\t// in\n    tag_266:\n        /* \"hopium/standalone/main/multiswap-router.sol\":6408:6447  uint256 received = afterBal - beforeBal */\n      swap1\n      pop\n        /* \"hopium/standalone/main/multiswap-router.sol\":6481:6489  received */\n      dup1\n        /* \"hopium/standalone/main/multiswap-router.sol\":6474:6489  return received */\n      swap7\n      pop\n      pop\n      pop\n      pop\n      pop\n      pop\n      pop\n        /* \"hopium/standalone/main/multiswap-router.sol\":4911:6506  function _swapTokenToToken(address fromTokenAddress, address toTokenAddress, uint256 fromAmount, address fromAddress, address toAddress, uint256 slippageBips, uint256 deadlineInSec) internal returns (uint256) {... */\n    tag_227:\n      swap8\n      swap7\n      pop\n      pop\n      pop\n      pop\n      pop\n      pop\n      pop\n      jump\t// out\n        /* \"hopium/standalone/main/multiswap-router.sol\":9016:9200  function _calcAmountFromWeight(uint256 totalWethAmount, uint16 weightBips) internal pure returns (uint256) {... */\n    tag_156:\n        /* \"hopium/standalone/main/multiswap-router.sol\":9114:9121  uint256 */\n      0x00\n        /* \"hopium/common/storage/bips.sol\":97:103  10_000 */\n      0x2710\n        /* \"hopium/standalone/main/multiswap-router.sol\":9159:9169  weightBips */\n      dup3\n        /* \"hopium/standalone/main/multiswap-router.sol\":9141:9169  totalWethAmount * weightBips */\n      0xffff\n      and\n        /* \"hopium/standalone/main/multiswap-router.sol\":9141:9156  totalWethAmount */\n      dup5\n        /* \"hopium/standalone/main/multiswap-router.sol\":9141:9169  totalWethAmount * weightBips */\n      tag_268\n      swap2\n      swap1\n      tag_269\n      jump\t// in\n    tag_268:\n        /* \"hopium/standalone/main/multiswap-router.sol\":9140:9193  (totalWethAmount * weightBips) / HUNDRED_PERCENT_BIPS */\n      tag_270\n      swap2\n      swap1\n      tag_271\n      jump\t// in\n    tag_270:\n        /* \"hopium/standalone/main/multiswap-router.sol\":9133:9193  return (totalWethAmount * weightBips) / HUNDRED_PERCENT_BIPS */\n      swap1\n      pop\n        /* \"hopium/standalone/main/multiswap-router.sol\":9016:9200  function _calcAmountFromWeight(uint256 totalWethAmount, uint16 weightBips) internal pure returns (uint256) {... */\n      swap3\n      swap2\n      pop\n      pop\n      jump\t// out\n        /* \"hopium/standalone/main/multiswap-router.sol\":4300:4905  function _swapWethToEth(address fromAddress, address toAddress, uint256 amount) internal {... */\n    tag_162:\n        /* \"hopium/standalone/main/multiswap-router.sol\":4399:4418  address wethAddress */\n      0x00\n        /* \"hopium/standalone/main/multiswap-router.sol\":4421:4430  getWeth() */\n      tag_273\n        /* \"hopium/standalone/main/multiswap-router.sol\":4421:4428  getWeth */\n      tag_8\n        /* \"hopium/standalone/main/multiswap-router.sol\":4421:4430  getWeth() */\n      jump\t// in\n    tag_273:\n        /* \"hopium/standalone/main/multiswap-router.sol\":4399:4430  address wethAddress = getWeth() */\n      swap1\n      pop\n        /* \"hopium/standalone/main/multiswap-router.sol\":4440:4450  IWETH Weth */\n      0x00\n        /* \"hopium/standalone/main/multiswap-router.sol\":4459:4470  wethAddress */\n      dup2\n        /* \"hopium/standalone/main/multiswap-router.sol\":4440:4471  IWETH Weth = IWETH(wethAddress) */\n      swap1\n      pop\n        /* \"hopium/standalone/main/multiswap-router.sol\":4498:4499  0 */\n      0x00\n        /* \"hopium/standalone/main/multiswap-router.sol\":4489:4495  amount */\n      dup4\n        /* \"hopium/standalone/main/multiswap-router.sol\":4489:4499  amount > 0 */\n      gt\n        /* \"hopium/standalone/main/multiswap-router.sol\":4481:4523  require(amount > 0, \"unwrap: zero amount\") */\n      tag_274\n      jumpi\n      mload(0x40)\n      0x08c379a000000000000000000000000000000000000000000000000000000000\n      dup2\n      mstore\n      0x04\n      add\n      tag_275\n      swap1\n      tag_276\n      jump\t// in\n    tag_275:\n      mload(0x40)\n      dup1\n      swap2\n      sub\n      swap1\n      revert\n    tag_274:\n        /* \"hopium/standalone/main/multiswap-router.sol\":4572:4578  amount */\n      dup3\n        /* \"hopium/standalone/main/multiswap-router.sol\":4541:4545  Weth */\n      dup2\n        /* \"hopium/standalone/main/multiswap-router.sol\":4541:4555  Weth.balanceOf */\n      0xffffffffffffffffffffffffffffffffffffffff\n      and\n      0x70a08231\n        /* \"hopium/standalone/main/multiswap-router.sol\":4556:4567  fromAddress */\n      dup8\n        /* \"hopium/standalone/main/multiswap-router.sol\":4541:4568  Weth.balanceOf(fromAddress) */\n      mload(0x40)\n      dup3\n      0xffffffff\n      and\n      0xe0\n      shl\n      dup2\n      mstore\n      0x04\n      add\n      tag_277\n      swap2\n      swap1\n      tag_200\n      jump\t// in\n    tag_277:\n      0x20\n      mload(0x40)\n      dup1\n      dup4\n      sub\n      dup2\n      dup7\n      gas\n      staticcall\n      iszero\n      dup1\n      iszero\n      tag_279\n      jumpi\n      returndatacopy(0x00, 0x00, returndatasize)\n      revert(0x00, returndatasize)\n    tag_279:\n      pop\n      pop\n      pop\n      pop\n      mload(0x40)\n      returndatasize\n      not(0x1f)\n      0x1f\n      dup3\n      add\n      and\n      dup3\n      add\n      dup1\n      0x40\n      mstore\n      pop\n      dup2\n      add\n      swap1\n      tag_280\n      swap2\n      swap1\n      tag_204\n      jump\t// in\n    tag_280:\n        /* \"hopium/standalone/main/multiswap-router.sol\":4541:4578  Weth.balanceOf(fromAddress) >= amount */\n      lt\n      iszero\n        /* \"hopium/standalone/main/multiswap-router.sol\":4533:4606  require(Weth.balanceOf(fromAddress) >= amount, \"WETH: insufficient WETH\") */\n      tag_281\n      jumpi\n      mload(0x40)\n      0x08c379a000000000000000000000000000000000000000000000000000000000\n      dup2\n      mstore\n      0x04\n      add\n      tag_282\n      swap1\n      tag_283\n      jump\t// in\n    tag_282:\n      mload(0x40)\n      dup1\n      swap2\n      sub\n      swap1\n      revert\n    tag_281:\n        /* \"hopium/standalone/main/multiswap-router.sol\":4617:4633  uint256 toUnwrap */\n      0x00\n        /* \"hopium/standalone/main/multiswap-router.sol\":4636:4642  amount */\n      dup4\n        /* \"hopium/standalone/main/multiswap-router.sol\":4617:4642  uint256 toUnwrap = amount */\n      swap1\n      pop\n        /* \"hopium/standalone/main/multiswap-router.sol\":4679:4683  this */\n      address\n        /* \"hopium/standalone/main/multiswap-router.sol\":4656:4684  fromAddress != address(this) */\n      0xffffffffffffffffffffffffffffffffffffffff\n      and\n        /* \"hopium/standalone/main/multiswap-router.sol\":4656:4667  fromAddress */\n      dup7\n        /* \"hopium/standalone/main/multiswap-router.sol\":4656:4684  fromAddress != address(this) */\n      0xffffffffffffffffffffffffffffffffffffffff\n      and\n      eq\n        /* \"hopium/standalone/main/multiswap-router.sol\":4652:4769  if (fromAddress != address(this)) {... */\n      tag_284\n      jumpi\n        /* \"hopium/standalone/main/multiswap-router.sol\":4711:4758  _receiveToken(wethAddress, amount, fromAddress) */\n      tag_285\n        /* \"hopium/standalone/main/multiswap-router.sol\":4725:4736  wethAddress */\n      dup4\n        /* \"hopium/standalone/main/multiswap-router.sol\":4738:4744  amount */\n      dup6\n        /* \"hopium/standalone/main/multiswap-router.sol\":4746:4757  fromAddress */\n      dup9\n        /* \"hopium/standalone/main/multiswap-router.sol\":4711:4724  _receiveToken */\n      tag_239\n        /* \"hopium/standalone/main/multiswap-router.sol\":4711:4758  _receiveToken(wethAddress, amount, fromAddress) */\n      jump\t// in\n    tag_285:\n        /* \"hopium/standalone/main/multiswap-router.sol\":4700:4758  toUnwrap = _receiveToken(wethAddress, amount, fromAddress) */\n      swap1\n      pop\n        /* \"hopium/standalone/main/multiswap-router.sol\":4652:4769  if (fromAddress != address(this)) {... */\n    tag_284:\n        /* \"hopium/standalone/main/multiswap-router.sol\":4779:4783  Weth */\n      dup2\n        /* \"hopium/standalone/main/multiswap-router.sol\":4779:4792  Weth.withdraw */\n      0xffffffffffffffffffffffffffffffffffffffff\n      and\n      0x2e1a7d4d\n        /* \"hopium/standalone/main/multiswap-router.sol\":4793:4801  toUnwrap */\n      dup3\n        /* \"hopium/standalone/main/multiswap-router.sol\":4779:4802  Weth.withdraw(toUnwrap) */\n      mload(0x40)\n      dup3\n      0xffffffff\n      and\n      0xe0\n      shl\n      dup2\n      mstore\n      0x04\n      add\n      tag_286\n      swap2\n      swap1\n      tag_169\n      jump\t// in\n    tag_286:\n      0x00\n      mload(0x40)\n      dup1\n      dup4\n      sub\n      dup2\n      0x00\n      dup8\n      dup1\n      extcodesize\n      iszero\n      dup1\n      iszero\n      tag_287\n      jumpi\n      revert(0x00, 0x00)\n    tag_287:\n      pop\n      gas\n      call\n      iszero\n      dup1\n      iszero\n      tag_289\n      jumpi\n      returndatacopy(0x00, 0x00, returndatasize)\n      revert(0x00, returndatasize)\n    tag_289:\n      pop\n      pop\n      pop\n      pop\n        /* \"hopium/standalone/main/multiswap-router.sol\":4838:4842  this */\n      address\n        /* \"hopium/standalone/main/multiswap-router.sol\":4817:4843  toAddress != address(this) */\n      0xffffffffffffffffffffffffffffffffffffffff\n      and\n        /* \"hopium/standalone/main/multiswap-router.sol\":4817:4826  toAddress */\n      dup6\n        /* \"hopium/standalone/main/multiswap-router.sol\":4817:4843  toAddress != address(this) */\n      0xffffffffffffffffffffffffffffffffffffffff\n      and\n      eq\n        /* \"hopium/standalone/main/multiswap-router.sol\":4813:4899  if (toAddress != address(this)) {... */\n      tag_290\n      jumpi\n        /* \"hopium/standalone/main/multiswap-router.sol\":4859:4888  _sendEth(toAddress, toUnwrap) */\n      tag_291\n        /* \"hopium/standalone/main/multiswap-router.sol\":4868:4877  toAddress */\n      dup6\n        /* \"hopium/standalone/main/multiswap-router.sol\":4879:4887  toUnwrap */\n      dup3\n        /* \"hopium/standalone/main/multiswap-router.sol\":4859:4867  _sendEth */\n      tag_209\n        /* \"hopium/standalone/main/multiswap-router.sol\":4859:4888  _sendEth(toAddress, toUnwrap) */\n      jump\t// in\n    tag_291:\n        /* \"hopium/standalone/main/multiswap-router.sol\":4813:4899  if (toAddress != address(this)) {... */\n    tag_290:\n        /* \"hopium/standalone/main/multiswap-router.sol\":4389:4905  {... */\n      pop\n      pop\n      pop\n        /* \"hopium/standalone/main/multiswap-router.sol\":4300:4905  function _swapWethToEth(address fromAddress, address toAddress, uint256 amount) internal {... */\n      pop\n      pop\n      pop\n      jump\t// out\n        /* \"hopium/standalone/main/multiswap-router.sol\":2326:2567  function _sendToken(address tokenAddress, address toAddress, uint256 amount) internal {... */\n    tag_191:\n        /* \"hopium/standalone/main/multiswap-router.sol\":2422:2434  IERC20 token */\n      0x00\n        /* \"hopium/standalone/main/multiswap-router.sol\":2444:2456  tokenAddress */\n      dup4\n        /* \"hopium/standalone/main/multiswap-router.sol\":2422:2457  IERC20 token = IERC20(tokenAddress) */\n      swap1\n      pop\n        /* \"hopium/standalone/main/multiswap-router.sol\":2484:2485  0 */\n      0x00\n        /* \"hopium/standalone/main/multiswap-router.sol\":2475:2481  amount */\n      dup3\n        /* \"hopium/standalone/main/multiswap-router.sol\":2475:2485  amount > 0 */\n      gt\n        /* \"hopium/standalone/main/multiswap-router.sol\":2467:2512  require(amount > 0, \"sendToken: zero amount\") */\n      tag_293\n      jumpi\n      mload(0x40)\n      0x08c379a000000000000000000000000000000000000000000000000000000000\n      dup2\n      mstore\n      0x04\n      add\n      tag_294\n      swap1\n      tag_295\n      jump\t// in\n    tag_294:\n      mload(0x40)\n      dup1\n      swap2\n      sub\n      swap1\n      revert\n    tag_293:\n        /* \"hopium/standalone/main/multiswap-router.sol\":2523:2560  token.safeTransfer(toAddress, amount) */\n      tag_296\n        /* \"hopium/standalone/main/multiswap-router.sol\":2542:2551  toAddress */\n      dup4\n        /* \"hopium/standalone/main/multiswap-router.sol\":2553:2559  amount */\n      dup4\n        /* \"hopium/standalone/main/multiswap-router.sol\":2523:2528  token */\n      dup4\n        /* \"hopium/standalone/main/multiswap-router.sol\":2523:2541  token.safeTransfer */\n      0xffffffffffffffffffffffffffffffffffffffff\n      and\n      tag_297\n      swap1\n        /* \"hopium/standalone/main/multiswap-router.sol\":2523:2560  token.safeTransfer(toAddress, amount) */\n      swap3\n      swap2\n      swap1\n      0xffffffff\n      and\n      jump\t// in\n    tag_296:\n        /* \"hopium/standalone/main/multiswap-router.sol\":2412:2567  {... */\n      pop\n        /* \"hopium/standalone/main/multiswap-router.sol\":2326:2567  function _sendToken(address tokenAddress, address toAddress, uint256 amount) internal {... */\n      pop\n      pop\n      pop\n      jump\t// out\n        /* \"hopium/standalone/main/multiswap-router.sol\":2026:2320  function _sendEth(address to, uint256 amount) internal {... */\n    tag_209:\n        /* \"hopium/standalone/main/multiswap-router.sol\":2108:2109  0 */\n      0x00\n        /* \"hopium/standalone/main/multiswap-router.sol\":2099:2105  amount */\n      dup2\n        /* \"hopium/standalone/main/multiswap-router.sol\":2099:2109  amount > 0 */\n      gt\n        /* \"hopium/standalone/main/multiswap-router.sol\":2091:2134  require(amount > 0, \"sendEth: zero amount\") */\n      tag_299\n      jumpi\n      mload(0x40)\n      0x08c379a000000000000000000000000000000000000000000000000000000000\n      dup2\n      mstore\n      0x04\n      add\n      tag_300\n      swap1\n      tag_301\n      jump\t// in\n    tag_300:\n      mload(0x40)\n      dup1\n      swap2\n      sub\n      swap1\n      revert\n    tag_299:\n        /* \"hopium/standalone/main/multiswap-router.sol\":2177:2183  amount */\n      dup1\n        /* \"hopium/standalone/main/multiswap-router.sol\":2152:2173  address(this).balance */\n      selfbalance\n        /* \"hopium/standalone/main/multiswap-router.sol\":2152:2183  address(this).balance >= amount */\n      lt\n      iszero\n        /* \"hopium/standalone/main/multiswap-router.sol\":2144:2213  require(address(this).balance >= amount, \"sendEth: insufficient ETH\") */\n      tag_302\n      jumpi\n      mload(0x40)\n      0x08c379a000000000000000000000000000000000000000000000000000000000\n      dup2\n      mstore\n      0x04\n      add\n      tag_303\n      swap1\n      tag_304\n      jump\t// in\n    tag_303:\n      mload(0x40)\n      dup1\n      swap2\n      sub\n      swap1\n      revert\n    tag_302:\n        /* \"hopium/standalone/main/multiswap-router.sol\":2225:2232  bool ok */\n      0x00\n        /* \"hopium/standalone/main/multiswap-router.sol\":2246:2248  to */\n      dup3\n        /* \"hopium/standalone/main/multiswap-router.sol\":2238:2254  payable(to).call */\n      0xffffffffffffffffffffffffffffffffffffffff\n      and\n        /* \"hopium/standalone/main/multiswap-router.sol\":2262:2268  amount */\n      dup3\n        /* \"hopium/standalone/main/multiswap-router.sol\":2238:2273  payable(to).call{value: amount}(\"\") */\n      mload(0x40)\n      tag_305\n      swap1\n      tag_306\n      jump\t// in\n    tag_305:\n      0x00\n      mload(0x40)\n      dup1\n      dup4\n      sub\n      dup2\n      dup6\n      dup8\n      gas\n      call\n      swap3\n      pop\n      pop\n      pop\n      returndatasize\n      dup1\n      0x00\n      dup2\n      eq\n      tag_309\n      jumpi\n      mload(0x40)\n      swap2\n      pop\n      and(add(returndatasize, 0x3f), not(0x1f))\n      dup3\n      add\n      0x40\n      mstore\n      returndatasize\n      dup3\n      mstore\n      returndatasize\n      0x00\n      0x20\n      dup5\n      add\n      returndatacopy\n      jump(tag_308)\n    tag_309:\n      0x60\n      swap2\n      pop\n    tag_308:\n      pop\n        /* \"hopium/standalone/main/multiswap-router.sol\":2224:2273  (bool ok, ) = payable(to).call{value: amount}(\"\") */\n      pop\n      swap1\n      pop\n        /* \"hopium/standalone/main/multiswap-router.sol\":2291:2293  ok */\n      dup1\n        /* \"hopium/standalone/main/multiswap-router.sol\":2283:2313  require(ok, \"ETH send failed\") */\n      tag_310\n      jumpi\n      mload(0x40)\n      0x08c379a000000000000000000000000000000000000000000000000000000000\n      dup2\n      mstore\n      0x04\n      add\n      tag_311\n      swap1\n      tag_312\n      jump\t// in\n    tag_311:\n      mload(0x40)\n      dup1\n      swap2\n      sub\n      swap1\n      revert\n    tag_310:\n        /* \"hopium/standalone/main/multiswap-router.sol\":2081:2320  {... */\n      pop\n        /* \"hopium/standalone/main/multiswap-router.sol\":2026:2320  function _sendEth(address to, uint256 amount) internal {... */\n      pop\n      pop\n      jump\t// out\n        /* \"hopium/standalone/main/multiswap-router.sol\":2573:3240  function _receiveToken(address tokenAddress, uint256 amount, address fromAddress) internal returns (uint256) {... */\n    tag_239:\n        /* \"hopium/standalone/main/multiswap-router.sol\":2673:2680  uint256 */\n      0x00\n        /* \"hopium/standalone/main/multiswap-router.sol\":2692:2704  IERC20 token */\n      0x00\n        /* \"hopium/standalone/main/multiswap-router.sol\":2714:2726  tokenAddress */\n      dup5\n        /* \"hopium/standalone/main/multiswap-router.sol\":2692:2727  IERC20 token = IERC20(tokenAddress) */\n      swap1\n      pop\n        /* \"hopium/standalone/main/multiswap-router.sol\":2754:2755  0 */\n      0x00\n        /* \"hopium/standalone/main/multiswap-router.sol\":2745:2751  amount */\n      dup5\n        /* \"hopium/standalone/main/multiswap-router.sol\":2745:2755  amount > 0 */\n      gt\n        /* \"hopium/standalone/main/multiswap-router.sol\":2737:2785  require(amount > 0, \"receiveToken: zero amount\") */\n      tag_314\n      jumpi\n      mload(0x40)\n      0x08c379a000000000000000000000000000000000000000000000000000000000\n      dup2\n      mstore\n      0x04\n      add\n      tag_315\n      swap1\n      tag_316\n      jump\t// in\n    tag_315:\n      mload(0x40)\n      dup1\n      swap2\n      sub\n      swap1\n      revert\n    tag_314:\n        /* \"hopium/standalone/main/multiswap-router.sol\":2850:2856  amount */\n      dup4\n        /* \"hopium/standalone/main/multiswap-router.sol\":2803:2808  token */\n      dup2\n        /* \"hopium/standalone/main/multiswap-router.sol\":2803:2818  token.allowance */\n      0xffffffffffffffffffffffffffffffffffffffff\n      and\n      0xdd62ed3e\n        /* \"hopium/standalone/main/multiswap-router.sol\":2819:2830  fromAddress */\n      dup6\n        /* \"hopium/standalone/main/multiswap-router.sol\":2840:2844  this */\n      address\n        /* \"hopium/standalone/main/multiswap-router.sol\":2803:2846  token.allowance(fromAddress, address(this)) */\n      mload(0x40)\n      dup4\n      0xffffffff\n      and\n      0xe0\n      shl\n      dup2\n      mstore\n      0x04\n      add\n      tag_317\n      swap3\n      swap2\n      swap1\n      tag_318\n      jump\t// in\n    tag_317:\n      0x20\n      mload(0x40)\n      dup1\n      dup4\n      sub\n      dup2\n      dup7\n      gas\n      staticcall\n      iszero\n      dup1\n      iszero\n      tag_320\n      jumpi\n      returndatacopy(0x00, 0x00, returndatasize)\n      revert(0x00, returndatasize)\n    tag_320:\n      pop\n      pop\n      pop\n      pop\n      mload(0x40)\n      returndatasize\n      not(0x1f)\n      0x1f\n      dup3\n      add\n      and\n      dup3\n      add\n      dup1\n      0x40\n      mstore\n      pop\n      dup2\n      add\n      swap1\n      tag_321\n      swap2\n      swap1\n      tag_204\n      jump\t// in\n    tag_321:\n        /* \"hopium/standalone/main/multiswap-router.sol\":2803:2856  token.allowance(fromAddress, address(this)) >= amount */\n      lt\n      iszero\n        /* \"hopium/standalone/main/multiswap-router.sol\":2795:2904  require(token.allowance(fromAddress, address(this)) >= amount, \"receiveToken: allowance is less than amount\") */\n      tag_322\n      jumpi\n      mload(0x40)\n      0x08c379a000000000000000000000000000000000000000000000000000000000\n      dup2\n      mstore\n      0x04\n      add\n      tag_323\n      swap1\n      tag_324\n      jump\t// in\n    tag_323:\n      mload(0x40)\n      dup1\n      swap2\n      sub\n      swap1\n      revert\n    tag_322:\n        /* \"hopium/standalone/main/multiswap-router.sol\":2915:2932  uint256 balBefore */\n      0x00\n        /* \"hopium/standalone/main/multiswap-router.sol\":2935:2940  token */\n      dup2\n        /* \"hopium/standalone/main/multiswap-router.sol\":2935:2950  token.balanceOf */\n      0xffffffffffffffffffffffffffffffffffffffff\n      and\n      0x70a08231\n        /* \"hopium/standalone/main/multiswap-router.sol\":2959:2963  this */\n      address\n        /* \"hopium/standalone/main/multiswap-router.sol\":2935:2965  token.balanceOf(address(this)) */\n      mload(0x40)\n      dup3\n      0xffffffff\n      and\n      0xe0\n      shl\n      dup2\n      mstore\n      0x04\n      add\n      tag_325\n      swap2\n      swap1\n      tag_200\n      jump\t// in\n    tag_325:\n      0x20\n      mload(0x40)\n      dup1\n      dup4\n      sub\n      dup2\n      dup7\n      gas\n      staticcall\n      iszero\n      dup1\n      iszero\n      tag_327\n      jumpi\n      returndatacopy(0x00, 0x00, returndatasize)\n      revert(0x00, returndatasize)\n    tag_327:\n      pop\n      pop\n      pop\n      pop\n      mload(0x40)\n      returndatasize\n      not(0x1f)\n      0x1f\n      dup3\n      add\n      and\n      dup3\n      add\n      dup1\n      0x40\n      mstore\n      pop\n      dup2\n      add\n      swap1\n      tag_328\n      swap2\n      swap1\n      tag_204\n      jump\t// in\n    tag_328:\n        /* \"hopium/standalone/main/multiswap-router.sol\":2915:2965  uint256 balBefore = token.balanceOf(address(this)) */\n      swap1\n      pop\n        /* \"hopium/standalone/main/multiswap-router.sol\":2975:3033  token.safeTransferFrom(fromAddress, address(this), amount) */\n      tag_329\n        /* \"hopium/standalone/main/multiswap-router.sol\":2998:3009  fromAddress */\n      dup5\n        /* \"hopium/standalone/main/multiswap-router.sol\":3019:3023  this */\n      address\n        /* \"hopium/standalone/main/multiswap-router.sol\":3026:3032  amount */\n      dup8\n        /* \"hopium/standalone/main/multiswap-router.sol\":2975:2980  token */\n      dup6\n        /* \"hopium/standalone/main/multiswap-router.sol\":2975:2997  token.safeTransferFrom */\n      0xffffffffffffffffffffffffffffffffffffffff\n      and\n      tag_330\n      swap1\n        /* \"hopium/standalone/main/multiswap-router.sol\":2975:3033  token.safeTransferFrom(fromAddress, address(this), amount) */\n      swap4\n      swap3\n      swap2\n      swap1\n      0xffffffff\n      and\n      jump\t// in\n    tag_329:\n        /* \"hopium/standalone/main/multiswap-router.sol\":3043:3059  uint256 balAfter */\n      0x00\n        /* \"hopium/standalone/main/multiswap-router.sol\":3062:3067  token */\n      dup3\n        /* \"hopium/standalone/main/multiswap-router.sol\":3062:3077  token.balanceOf */\n      0xffffffffffffffffffffffffffffffffffffffff\n      and\n      0x70a08231\n        /* \"hopium/standalone/main/multiswap-router.sol\":3086:3090  this */\n      address\n        /* \"hopium/standalone/main/multiswap-router.sol\":3062:3092  token.balanceOf(address(this)) */\n      mload(0x40)\n      dup3\n      0xffffffff\n      and\n      0xe0\n      shl\n      dup2\n      mstore\n      0x04\n      add\n      tag_331\n      swap2\n      swap1\n      tag_200\n      jump\t// in\n    tag_331:\n      0x20\n      mload(0x40)\n      dup1\n      dup4\n      sub\n      dup2\n      dup7\n      gas\n      staticcall\n      iszero\n      dup1\n      iszero\n      tag_333\n      jumpi\n      returndatacopy(0x00, 0x00, returndatasize)\n      revert(0x00, returndatasize)\n    tag_333:\n      pop\n      pop\n      pop\n      pop\n      mload(0x40)\n      returndatasize\n      not(0x1f)\n      0x1f\n      dup3\n      add\n      and\n      dup3\n      add\n      dup1\n      0x40\n      mstore\n      pop\n      dup2\n      add\n      swap1\n      tag_334\n      swap2\n      swap1\n      tag_204\n      jump\t// in\n    tag_334:\n        /* \"hopium/standalone/main/multiswap-router.sol\":3043:3092  uint256 balAfter = token.balanceOf(address(this)) */\n      swap1\n      pop\n        /* \"hopium/standalone/main/multiswap-router.sol\":3103:3119  uint256 received */\n      0x00\n        /* \"hopium/standalone/main/multiswap-router.sol\":3133:3142  balBefore */\n      dup3\n        /* \"hopium/standalone/main/multiswap-router.sol\":3122:3130  balAfter */\n      dup3\n        /* \"hopium/standalone/main/multiswap-router.sol\":3122:3142  balAfter - balBefore */\n      tag_335\n      swap2\n      swap1\n      tag_164\n      jump\t// in\n    tag_335:\n        /* \"hopium/standalone/main/multiswap-router.sol\":3103:3142  uint256 received = balAfter - balBefore */\n      swap1\n      pop\n        /* \"hopium/standalone/main/multiswap-router.sol\":3171:3172  0 */\n      0x00\n        /* \"hopium/standalone/main/multiswap-router.sol\":3160:3168  received */\n      dup2\n        /* \"hopium/standalone/main/multiswap-router.sol\":3160:3172  received > 0 */\n      gt\n        /* \"hopium/standalone/main/multiswap-router.sol\":3152:3207  require(received > 0, \"receiveToken: nothing received\") */\n      tag_336\n      jumpi\n      mload(0x40)\n      0x08c379a000000000000000000000000000000000000000000000000000000000\n      dup2\n      mstore\n      0x04\n      add\n      tag_337\n      swap1\n      tag_338\n      jump\t// in\n    tag_337:\n      mload(0x40)\n      dup1\n      swap2\n      sub\n      swap1\n      revert\n    tag_336:\n        /* \"hopium/standalone/main/multiswap-router.sol\":3225:3233  received */\n      dup1\n        /* \"hopium/standalone/main/multiswap-router.sol\":3218:3233  return received */\n      swap5\n      pop\n      pop\n      pop\n      pop\n      pop\n        /* \"hopium/standalone/main/multiswap-router.sol\":2573:3240  function _receiveToken(address tokenAddress, uint256 amount, address fromAddress) internal returns (uint256) {... */\n      swap4\n      swap3\n      pop\n      pop\n      pop\n      jump\t// out\n        /* \"hopium/standalone/main/multiswap-router.sol\":3246:3644  function _approveMaxIfNeeded(address tokenAddress, address spender, uint256 amount) internal {... */\n    tag_244:\n        /* \"hopium/standalone/main/multiswap-router.sol\":3349:3361  IERC20 token */\n      0x00\n        /* \"hopium/standalone/main/multiswap-router.sol\":3371:3383  tokenAddress */\n      dup4\n        /* \"hopium/standalone/main/multiswap-router.sol\":3349:3384  IERC20 token = IERC20(tokenAddress) */\n      swap1\n      pop\n        /* \"hopium/standalone/main/multiswap-router.sol\":3394:3409  uint256 current */\n      0x00\n        /* \"hopium/standalone/main/multiswap-router.sol\":3412:3417  token */\n      dup2\n        /* \"hopium/standalone/main/multiswap-router.sol\":3412:3427  token.allowance */\n      0xffffffffffffffffffffffffffffffffffffffff\n      and\n      0xdd62ed3e\n        /* \"hopium/standalone/main/multiswap-router.sol\":3436:3440  this */\n      address\n        /* \"hopium/standalone/main/multiswap-router.sol\":3443:3450  spender */\n      dup7\n        /* \"hopium/standalone/main/multiswap-router.sol\":3412:3451  token.allowance(address(this), spender) */\n      mload(0x40)\n      dup4\n      0xffffffff\n      and\n      0xe0\n      shl\n      dup2\n      mstore\n      0x04\n      add\n      tag_340\n      swap3\n      swap2\n      swap1\n      tag_318\n      jump\t// in\n    tag_340:\n      0x20\n      mload(0x40)\n      dup1\n      dup4\n      sub\n      dup2\n      dup7\n      gas\n      staticcall\n      iszero\n      dup1\n      iszero\n      tag_342\n      jumpi\n      returndatacopy(0x00, 0x00, returndatasize)\n      revert(0x00, returndatasize)\n    tag_342:\n      pop\n      pop\n      pop\n      pop\n      mload(0x40)\n      returndatasize\n      not(0x1f)\n      0x1f\n      dup3\n      add\n      and\n      dup3\n      add\n      dup1\n      0x40\n      mstore\n      pop\n      dup2\n      add\n      swap1\n      tag_343\n      swap2\n      swap1\n      tag_204\n      jump\t// in\n    tag_343:\n        /* \"hopium/standalone/main/multiswap-router.sol\":3394:3451  uint256 current = token.allowance(address(this), spender) */\n      swap1\n      pop\n        /* \"hopium/standalone/main/multiswap-router.sol\":3475:3481  amount */\n      dup3\n        /* \"hopium/standalone/main/multiswap-router.sol\":3465:3472  current */\n      dup2\n        /* \"hopium/standalone/main/multiswap-router.sol\":3465:3481  current < amount */\n      lt\n        /* \"hopium/standalone/main/multiswap-router.sol\":3461:3638  if (current < amount) {... */\n      iszero\n      tag_344\n      jumpi\n        /* \"hopium/standalone/main/multiswap-router.sol\":3512:3513  0 */\n      0x00\n        /* \"hopium/standalone/main/multiswap-router.sol\":3501:3508  current */\n      dup2\n        /* \"hopium/standalone/main/multiswap-router.sol\":3501:3513  current != 0 */\n      eq\n        /* \"hopium/standalone/main/multiswap-router.sol\":3497:3573  if (current != 0) {... */\n      tag_345\n      jumpi\n        /* \"hopium/standalone/main/multiswap-router.sol\":3533:3538  token */\n      dup2\n        /* \"hopium/standalone/main/multiswap-router.sol\":3533:3546  token.approve */\n      0xffffffffffffffffffffffffffffffffffffffff\n      and\n      0x095ea7b3\n        /* \"hopium/standalone/main/multiswap-router.sol\":3547:3554  spender */\n      dup6\n        /* \"hopium/standalone/main/multiswap-router.sol\":3556:3557  0 */\n      0x00\n        /* \"hopium/standalone/main/multiswap-router.sol\":3533:3558  token.approve(spender, 0) */\n      mload(0x40)\n      dup4\n      0xffffffff\n      and\n      0xe0\n      shl\n      dup2\n      mstore\n      0x04\n      add\n      tag_346\n      swap3\n      swap2\n      swap1\n      tag_347\n      jump\t// in\n    tag_346:\n      0x20\n      mload(0x40)\n      dup1\n      dup4\n      sub\n      dup2\n      0x00\n      dup8\n      gas\n      call\n      iszero\n      dup1\n      iszero\n      tag_349\n      jumpi\n      returndatacopy(0x00, 0x00, returndatasize)\n      revert(0x00, returndatasize)\n    tag_349:\n      pop\n      pop\n      pop\n      pop\n      mload(0x40)\n      returndatasize\n      not(0x1f)\n      0x1f\n      dup3\n      add\n      and\n      dup3\n      add\n      dup1\n      0x40\n      mstore\n      pop\n      dup2\n      add\n      swap1\n      tag_350\n      swap2\n      swap1\n      tag_351\n      jump\t// in\n    tag_350:\n      pop\n        /* \"hopium/standalone/main/multiswap-router.sol\":3497:3573  if (current != 0) {... */\n    tag_345:\n        /* \"hopium/standalone/main/multiswap-router.sol\":3586:3591  token */\n      dup2\n        /* \"hopium/standalone/main/multiswap-router.sol\":3586:3599  token.approve */\n      0xffffffffffffffffffffffffffffffffffffffff\n      and\n      0x095ea7b3\n        /* \"hopium/standalone/main/multiswap-router.sol\":3600:3607  spender */\n      dup6\n        /* \"hopium/standalone/main/multiswap-router.sol\":3609:3626  type(uint256).max */\n      0xffffffffffffffffffffffffffffffffffffffffffffffffffffffffffffffff\n        /* \"hopium/standalone/main/multiswap-router.sol\":3586:3627  token.approve(spender, type(uint256).max) */\n      mload(0x40)\n      dup4\n      0xffffffff\n      and\n      0xe0\n      shl\n      dup2\n      mstore\n      0x04\n      add\n      tag_352\n      swap3\n      swap2\n      swap1\n      tag_353\n      jump\t// in\n    tag_352:\n      0x20\n      mload(0x40)\n      dup1\n      dup4\n      sub\n      dup2\n      0x00\n      dup8\n      gas\n      call\n      iszero\n      dup1\n      iszero\n      tag_355\n      jumpi\n      returndatacopy(0x00, 0x00, returndatasize)\n      revert(0x00, returndatasize)\n    tag_355:\n      pop\n      pop\n      pop\n      pop\n      mload(0x40)\n      returndatasize\n      not(0x1f)\n      0x1f\n      dup3\n      add\n      and\n      dup3\n      add\n      dup1\n      0x40\n      mstore\n      pop\n      dup2\n      add\n      swap1\n      tag_356\n      swap2\n      swap1\n      tag_351\n      jump\t// in\n    tag_356:\n      pop\n        /* \"hopium/standalone/main/multiswap-router.sol\":3461:3638  if (current < amount) {... */\n    tag_344:\n        /* \"hopium/standalone/main/multiswap-router.sol\":3339:3644  {... */\n      pop\n      pop\n        /* \"hopium/standalone/main/multiswap-router.sol\":3246:3644  function _approveMaxIfNeeded(address tokenAddress, address spender, uint256 amount) internal {... */\n      pop\n      pop\n      pop\n      jump\t// out\n        /* \"hopium/standalone/main/multiswap-router.sol\":6512:7023  function _createPath(address from, address to) internal view returns (address[] memory path) {... */\n    tag_246:\n        /* \"hopium/standalone/main/multiswap-router.sol\":6582:6603  address[] memory path */\n      0x60\n        /* \"hopium/standalone/main/multiswap-router.sol\":6615:6634  address wethAddress */\n      0x00\n        /* \"hopium/standalone/main/multiswap-router.sol\":6637:6646  getWeth() */\n      tag_358\n        /* \"hopium/standalone/main/multiswap-router.sol\":6637:6644  getWeth */\n      tag_8\n        /* \"hopium/standalone/main/multiswap-router.sol\":6637:6646  getWeth() */\n      jump\t// in\n    tag_358:\n        /* \"hopium/standalone/main/multiswap-router.sol\":6615:6646  address wethAddress = getWeth() */\n      swap1\n      pop\n        /* \"hopium/standalone/main/multiswap-router.sol\":6669:6680  wethAddress */\n      dup1\n        /* \"hopium/standalone/main/multiswap-router.sol\":6661:6680  from == wethAddress */\n      0xffffffffffffffffffffffffffffffffffffffff\n      and\n        /* \"hopium/standalone/main/multiswap-router.sol\":6661:6665  from */\n      dup5\n        /* \"hopium/standalone/main/multiswap-router.sol\":6661:6680  from == wethAddress */\n      0xffffffffffffffffffffffffffffffffffffffff\n      and\n      eq\n        /* \"hopium/standalone/main/multiswap-router.sol\":6661:6701  from == wethAddress || to == wethAddress */\n      dup1\n      tag_359\n      jumpi\n      pop\n        /* \"hopium/standalone/main/multiswap-router.sol\":6690:6701  wethAddress */\n      dup1\n        /* \"hopium/standalone/main/multiswap-router.sol\":6684:6701  to == wethAddress */\n      0xffffffffffffffffffffffffffffffffffffffff\n      and\n        /* \"hopium/standalone/main/multiswap-router.sol\":6684:6686  to */\n      dup4\n        /* \"hopium/standalone/main/multiswap-router.sol\":6684:6701  to == wethAddress */\n      0xffffffffffffffffffffffffffffffffffffffff\n      and\n      eq\n        /* \"hopium/standalone/main/multiswap-router.sol\":6661:6701  from == wethAddress || to == wethAddress */\n    tag_359:\n        /* \"hopium/standalone/main/multiswap-router.sol\":6657:7017  if (from == wethAddress || to == wethAddress) {... */\n      iszero\n      tag_360\n      jumpi\n        /* \"hopium/standalone/main/multiswap-router.sol\":6773:6774  2 */\n      0x02\n        /* \"hopium/standalone/main/multiswap-router.sol\":6759:6775  new address[](2) */\n      0xffffffffffffffff\n      dup2\n      gt\n      iszero\n      tag_361\n      jumpi\n      tag_362\n      tag_363\n      jump\t// in\n    tag_362:\n    tag_361:\n      mload(0x40)\n      swap1\n      dup1\n      dup3\n      mstore\n      dup1\n      0x20\n      mul\n      0x20\n      add\n      dup3\n      add\n      0x40\n      mstore\n      dup1\n      iszero\n      tag_364\n      jumpi\n      dup2\n      0x20\n      add\n      0x20\n      dup3\n      mul\n      dup1\n      calldatasize\n      dup4\n      calldatacopy\n      dup1\n      dup3\n      add\n      swap2\n      pop\n      pop\n      swap1\n      pop\n    tag_364:\n      pop\n        /* \"hopium/standalone/main/multiswap-router.sol\":6752:6775  path = new address[](2) */\n      swap2\n      pop\n        /* \"hopium/standalone/main/multiswap-router.sol\":6799:6803  from */\n      dup4\n        /* \"hopium/standalone/main/multiswap-router.sol\":6789:6793  path */\n      dup3\n        /* \"hopium/standalone/main/multiswap-router.sol\":6794:6795  0 */\n      0x00\n        /* \"hopium/standalone/main/multiswap-router.sol\":6789:6796  path[0] */\n      dup2\n      mload\n      dup2\n      lt\n      tag_365\n      jumpi\n      tag_366\n      tag_71\n      jump\t// in\n    tag_366:\n    tag_365:\n      0x20\n      mul\n      0x20\n      add\n      add\n        /* \"hopium/standalone/main/multiswap-router.sol\":6789:6803  path[0] = from */\n      swap1\n      0xffffffffffffffffffffffffffffffffffffffff\n      and\n      swap1\n      dup2\n      0xffffffffffffffffffffffffffffffffffffffff\n      and\n      dup2\n      mstore\n      pop\n      pop\n        /* \"hopium/standalone/main/multiswap-router.sol\":6827:6829  to */\n      dup3\n        /* \"hopium/standalone/main/multiswap-router.sol\":6817:6821  path */\n      dup3\n        /* \"hopium/standalone/main/multiswap-router.sol\":6822:6823  1 */\n      0x01\n        /* \"hopium/standalone/main/multiswap-router.sol\":6817:6824  path[1] */\n      dup2\n      mload\n      dup2\n      lt\n      tag_367\n      jumpi\n      tag_368\n      tag_71\n      jump\t// in\n    tag_368:\n    tag_367:\n      0x20\n      mul\n      0x20\n      add\n      add\n        /* \"hopium/standalone/main/multiswap-router.sol\":6817:6829  path[1] = to */\n      swap1\n      0xffffffffffffffffffffffffffffffffffffffff\n      and\n      swap1\n      dup2\n      0xffffffffffffffffffffffffffffffffffffffff\n      and\n      dup2\n      mstore\n      pop\n      pop\n        /* \"hopium/standalone/main/multiswap-router.sol\":6657:7017  if (from == wethAddress || to == wethAddress) {... */\n      jump(tag_369)\n    tag_360:\n        /* \"hopium/standalone/main/multiswap-router.sol\":6915:6916  3 */\n      0x03\n        /* \"hopium/standalone/main/multiswap-router.sol\":6901:6917  new address[](3) */\n      0xffffffffffffffff\n      dup2\n      gt\n      iszero\n      tag_370\n      jumpi\n      tag_371\n      tag_363\n      jump\t// in\n    tag_371:\n    tag_370:\n      mload(0x40)\n      swap1\n      dup1\n      dup3\n      mstore\n      dup1\n      0x20\n      mul\n      0x20\n      add\n      dup3\n      add\n      0x40\n      mstore\n      dup1\n      iszero\n      tag_372\n      jumpi\n      dup2\n      0x20\n      add\n      0x20\n      dup3\n      mul\n      dup1\n      calldatasize\n      dup4\n      calldatacopy\n      dup1\n      dup3\n      add\n      swap2\n      pop\n      pop\n      swap1\n      pop\n    tag_372:\n      pop\n        /* \"hopium/standalone/main/multiswap-router.sol\":6894:6917  path = new address[](3) */\n      swap2\n      pop\n        /* \"hopium/standalone/main/multiswap-router.sol\":6941:6945  from */\n      dup4\n        /* \"hopium/standalone/main/multiswap-router.sol\":6931:6935  path */\n      dup3\n        /* \"hopium/standalone/main/multiswap-router.sol\":6936:6937  0 */\n      0x00\n        /* \"hopium/standalone/main/multiswap-router.sol\":6931:6938  path[0] */\n      dup2\n      mload\n      dup2\n      lt\n      tag_373\n      jumpi\n      tag_374\n      tag_71\n      jump\t// in\n    tag_374:\n    tag_373:\n      0x20\n      mul\n      0x20\n      add\n      add\n        /* \"hopium/standalone/main/multiswap-router.sol\":6931:6945  path[0] = from */\n      swap1\n      0xffffffffffffffffffffffffffffffffffffffff\n      and\n      swap1\n      dup2\n      0xffffffffffffffffffffffffffffffffffffffff\n      and\n      dup2\n      mstore\n      pop\n      pop\n        /* \"hopium/standalone/main/multiswap-router.sol\":6969:6980  wethAddress */\n      dup1\n        /* \"hopium/standalone/main/multiswap-router.sol\":6959:6963  path */\n      dup3\n        /* \"hopium/standalone/main/multiswap-router.sol\":6964:6965  1 */\n      0x01\n        /* \"hopium/standalone/main/multiswap-router.sol\":6959:6966  path[1] */\n      dup2\n      mload\n      dup2\n      lt\n      tag_375\n      jumpi\n      tag_376\n      tag_71\n      jump\t// in\n    tag_376:\n    tag_375:\n      0x20\n      mul\n      0x20\n      add\n      add\n        /* \"hopium/standalone/main/multiswap-router.sol\":6959:6980  path[1] = wethAddress */\n      swap1\n      0xffffffffffffffffffffffffffffffffffffffff\n      and\n      swap1\n      dup2\n      0xffffffffffffffffffffffffffffffffffffffff\n      and\n      dup2\n      mstore\n      pop\n      pop\n        /* \"hopium/standalone/main/multiswap-router.sol\":7004:7006  to */\n      dup3\n        /* \"hopium/standalone/main/multiswap-router.sol\":6994:6998  path */\n      dup3\n        /* \"hopium/standalone/main/multiswap-router.sol\":6999:7000  2 */\n      0x02\n        /* \"hopium/standalone/main/multiswap-router.sol\":6994:7001  path[2] */\n      dup2\n      mload\n      dup2\n      lt\n      tag_377\n      jumpi\n      tag_378\n      tag_71\n      jump\t// in\n    tag_378:\n    tag_377:\n      0x20\n      mul\n      0x20\n      add\n      add\n        /* \"hopium/standalone/main/multiswap-router.sol\":6994:7006  path[2] = to */\n      swap1\n      0xffffffffffffffffffffffffffffffffffffffff\n      and\n      swap1\n      dup2\n      0xffffffffffffffffffffffffffffffffffffffff\n      and\n      dup2\n      mstore\n      pop\n      pop\n        /* \"hopium/standalone/main/multiswap-router.sol\":6657:7017  if (from == wethAddress || to == wethAddress) {... */\n    tag_369:\n        /* \"hopium/standalone/main/multiswap-router.sol\":6605:7023  {... */\n      pop\n        /* \"hopium/standalone/main/multiswap-router.sol\":6512:7023  function _createPath(address from, address to) internal view returns (address[] memory path) {... */\n      swap3\n      swap2\n      pop\n      pop\n      jump\t// out\n        /* \"hopium/standalone/main/multiswap-router.sol\":1597:1926  function fetchQuote(uint256 amountIn, address[] memory path) internal view returns (uint) {... */\n    tag_249:\n        /* \"hopium/standalone/main/multiswap-router.sol\":1681:1685  uint */\n      0x00\n        /* \"hopium/standalone/main/multiswap-router.sol\":1701:1707  router */\n      immutable(\"0xd4814426b11746a15450e57cffd1ffda7a4aa876fa76f1f623571f671572667f\")\n        /* \"hopium/standalone/main/multiswap-router.sol\":1701:1721  router.getAmountsOut */\n      0xffffffffffffffffffffffffffffffffffffffff\n      and\n      0xd06ca61f\n        /* \"hopium/standalone/main/multiswap-router.sol\":1722:1730  amountIn */\n      dup5\n        /* \"hopium/standalone/main/multiswap-router.sol\":1732:1736  path */\n      dup5\n        /* \"hopium/standalone/main/multiswap-router.sol\":1701:1737  router.getAmountsOut(amountIn, path) */\n      mload(0x40)\n      dup4\n      0xffffffff\n      and\n      0xe0\n      shl\n      dup2\n      mstore\n      0x04\n      add\n      tag_380\n      swap3\n      swap2\n      swap1\n      tag_381\n      jump\t// in\n    tag_380:\n      0x00\n      mload(0x40)\n      dup1\n      dup4\n      sub\n      dup2\n      dup7\n      gas\n      staticcall\n      swap3\n      pop\n      pop\n      pop\n      dup1\n      iszero\n      tag_382\n      jumpi\n      pop\n      mload(0x40)\n      returndatasize\n      0x00\n      dup3\n      returndatacopy\n      returndatasize\n      not(0x1f)\n      0x1f\n      dup3\n      add\n      and\n      dup3\n      add\n      dup1\n      0x40\n      mstore\n      pop\n      dup2\n      add\n      swap1\n      tag_383\n      swap2\n      swap1\n      tag_384\n      jump\t// in\n    tag_383:\n      0x01\n    tag_382:\n        /* \"hopium/standalone/main/multiswap-router.sol\":1697:1920  try router.getAmountsOut(amountIn, path) returns (uint[] memory amounts) {... */\n      tag_385\n      jumpi\n        /* \"hopium/standalone/main/multiswap-router.sol\":1850:1909  revert(\"Uniswap Router: Quote unavailable: path/liquidity\") */\n      mload(0x40)\n      0x08c379a000000000000000000000000000000000000000000000000000000000\n      dup2\n      mstore\n      0x04\n      add\n      tag_389\n      swap1\n      tag_390\n      jump\t// in\n    tag_389:\n      mload(0x40)\n      dup1\n      swap2\n      sub\n      swap1\n      revert\n        /* \"hopium/standalone/main/multiswap-router.sol\":1697:1920  try router.getAmountsOut(amountIn, path) returns (uint[] memory amounts) {... */\n    tag_385:\n        /* \"hopium/standalone/main/multiswap-router.sol\":1791:1798  amounts */\n      dup1\n        /* \"hopium/standalone/main/multiswap-router.sol\":1816:1817  1 */\n      0x01\n        /* \"hopium/standalone/main/multiswap-router.sol\":1799:1806  amounts */\n      dup3\n        /* \"hopium/standalone/main/multiswap-router.sol\":1799:1813  amounts.length */\n      mload\n        /* \"hopium/standalone/main/multiswap-router.sol\":1799:1817  amounts.length - 1 */\n      tag_392\n      swap2\n      swap1\n      tag_164\n      jump\t// in\n    tag_392:\n        /* \"hopium/standalone/main/multiswap-router.sol\":1791:1818  amounts[amounts.length - 1] */\n      dup2\n      mload\n      dup2\n      lt\n      tag_393\n      jumpi\n      tag_394\n      tag_71\n      jump\t// in\n    tag_394:\n    tag_393:\n      0x20\n      mul\n      0x20\n      add\n      add\n      mload\n        /* \"hopium/standalone/main/multiswap-router.sol\":1784:1818  return amounts[amounts.length - 1] */\n      swap2\n      pop\n      pop\n        /* \"hopium/standalone/main/multiswap-router.sol\":1597:1926  function fetchQuote(uint256 amountIn, address[] memory path) internal view returns (uint) {... */\n      swap3\n      swap2\n      pop\n      pop\n      jump\t// out\n        /* \"hopium/standalone/main/multiswap-router.sol\":7029:7300  function _calcAmountOutMin(uint quotedOut, uint256 slippageBips) internal pure returns (uint) {... */\n    tag_250:\n        /* \"hopium/standalone/main/multiswap-router.sol\":7117:7121  uint */\n      0x00\n        /* \"hopium/common/storage/bips.sol\":97:103  10_000 */\n      0x2710\n        /* \"hopium/standalone/main/multiswap-router.sol\":7141:7153  slippageBips */\n      dup3\n        /* \"hopium/standalone/main/multiswap-router.sol\":7141:7177  slippageBips <= HUNDRED_PERCENT_BIPS */\n      gt\n      iszero\n        /* \"hopium/standalone/main/multiswap-router.sol\":7133:7201  require(slippageBips <= HUNDRED_PERCENT_BIPS, \"slippageBips > 100%\") */\n      tag_396\n      jumpi\n      mload(0x40)\n      0x08c379a000000000000000000000000000000000000000000000000000000000\n      dup2\n      mstore\n      0x04\n      add\n      tag_397\n      swap1\n      tag_398\n      jump\t// in\n    tag_397:\n      mload(0x40)\n      dup1\n      swap2\n      sub\n      swap1\n      revert\n    tag_396:\n        /* \"hopium/common/storage/bips.sol\":97:103  10_000 */\n      0x2710\n        /* \"hopium/standalone/main/multiswap-router.sol\":7256:7268  slippageBips */\n      dup3\n        /* \"hopium/common/storage/bips.sol\":97:103  10_000 */\n      0x2710\n        /* \"hopium/standalone/main/multiswap-router.sol\":7233:7268  HUNDRED_PERCENT_BIPS - slippageBips */\n      tag_399\n      swap2\n      swap1\n      tag_164\n      jump\t// in\n    tag_399:\n        /* \"hopium/standalone/main/multiswap-router.sol\":7220:7229  quotedOut */\n      dup5\n        /* \"hopium/standalone/main/multiswap-router.sol\":7220:7269  quotedOut * (HUNDRED_PERCENT_BIPS - slippageBips) */\n      tag_400\n      swap2\n      swap1\n      tag_269\n      jump\t// in\n    tag_400:\n        /* \"hopium/standalone/main/multiswap-router.sol\":7219:7293  (quotedOut * (HUNDRED_PERCENT_BIPS - slippageBips)) / HUNDRED_PERCENT_BIPS */\n      tag_401\n      swap2\n      swap1\n      tag_271\n      jump\t// in\n    tag_401:\n        /* \"hopium/standalone/main/multiswap-router.sol\":7212:7293  return (quotedOut * (HUNDRED_PERCENT_BIPS - slippageBips)) / HUNDRED_PERCENT_BIPS */\n      swap1\n      pop\n        /* \"hopium/standalone/main/multiswap-router.sol\":7029:7300  function _calcAmountOutMin(uint quotedOut, uint256 slippageBips) internal pure returns (uint) {... */\n      swap3\n      swap2\n      pop\n      pop\n      jump\t// out\n        /* \"hopium/standalone/main/multiswap-router.sol\":7306:7432  function _deadline(uint256 deadlineInSec) internal view returns (uint) {... */\n    tag_256:\n        /* \"hopium/standalone/main/multiswap-router.sol\":7371:7375  uint */\n      0x00\n        /* \"hopium/standalone/main/multiswap-router.sol\":7412:7425  deadlineInSec */\n      dup2\n        /* \"hopium/standalone/main/multiswap-router.sol\":7394:7409  block.timestamp */\n      timestamp\n        /* \"hopium/standalone/main/multiswap-router.sol\":7394:7425  block.timestamp + deadlineInSec */\n      tag_403\n      swap2\n      swap1\n      tag_78\n      jump\t// in\n    tag_403:\n        /* \"hopium/standalone/main/multiswap-router.sol\":7387:7425  return block.timestamp + deadlineInSec */\n      swap1\n      pop\n        /* \"hopium/standalone/main/multiswap-router.sol\":7306:7432  function _deadline(uint256 deadlineInSec) internal view returns (uint) {... */\n      swap2\n      swap1\n      pop\n      jump\t// out\n        /* \"@openzeppelin/contracts/token/ERC20/utils/SafeERC20.sol\":1219:1379  function safeTransfer(IERC20 token, address to, uint256 value) internal {... */\n    tag_297:\n        /* \"@openzeppelin/contracts/token/ERC20/utils/SafeERC20.sol\":1301:1372  _callOptionalReturn(token, abi.encodeCall(token.transfer, (to, value))) */\n      tag_405\n        /* \"@openzeppelin/contracts/token/ERC20/utils/SafeERC20.sol\":1321:1326  token */\n      dup4\n        /* \"@openzeppelin/contracts/token/ERC20/utils/SafeERC20.sol\":1343:1348  token */\n      dup5\n        /* \"@openzeppelin/contracts/token/ERC20/utils/SafeERC20.sol\":1343:1357  token.transfer */\n      0xffffffffffffffffffffffffffffffffffffffff\n      and\n      0xa9059cbb\n        /* \"@openzeppelin/contracts/token/ERC20/utils/SafeERC20.sol\":1360:1362  to */\n      dup6\n        /* \"@openzeppelin/contracts/token/ERC20/utils/SafeERC20.sol\":1364:1369  value */\n      dup6\n        /* \"@openzeppelin/contracts/token/ERC20/utils/SafeERC20.sol\":1328:1371  abi.encodeCall(token.transfer, (to, value)) */\n      add(0x24, mload(0x40))\n      tag_406\n      swap3\n      swap2\n      swap1\n      tag_353\n      jump\t// in\n    tag_406:\n      mload(0x40)\n      0x20\n      dup2\n      dup4\n      sub\n      sub\n      dup2\n      mstore\n      swap1\n      0x40\n      mstore\n      swap2\n      pop\n      0xe0\n      shl\n      0x20\n      dup3\n      add\n      dup1\n      mload\n      0xffffffffffffffffffffffffffffffffffffffffffffffffffffffff\n      dup4\n      dup2\n      dup4\n      and\n      or\n      dup4\n      mstore\n      pop\n      pop\n      pop\n      pop\n        /* \"@openzeppelin/contracts/token/ERC20/utils/SafeERC20.sol\":1301:1320  _callOptionalReturn */\n      tag_407\n        /* \"@openzeppelin/contracts/token/ERC20/utils/SafeERC20.sol\":1301:1372  _callOptionalReturn(token, abi.encodeCall(token.transfer, (to, value))) */\n      jump\t// in\n    tag_405:\n        /* \"@openzeppelin/contracts/token/ERC20/utils/SafeERC20.sol\":1219:1379  function safeTransfer(IERC20 token, address to, uint256 value) internal {... */\n      pop\n      pop\n      pop\n      jump\t// out\n        /* \"@openzeppelin/contracts/token/ERC20/utils/SafeERC20.sol\":1618:1806  function safeTransferFrom(IERC20 token, address from, address to, uint256 value) internal {... */\n    tag_330:\n        /* \"@openzeppelin/contracts/token/ERC20/utils/SafeERC20.sol\":1718:1799  _callOptionalReturn(token, abi.encodeCall(token.transferFrom, (from, to, value))) */\n      tag_409\n        /* \"@openzeppelin/contracts/token/ERC20/utils/SafeERC20.sol\":1738:1743  token */\n      dup5\n        /* \"@openzeppelin/contracts/token/ERC20/utils/SafeERC20.sol\":1760:1765  token */\n      dup6\n        /* \"@openzeppelin/contracts/token/ERC20/utils/SafeERC20.sol\":1760:1778  token.transferFrom */\n      0xffffffffffffffffffffffffffffffffffffffff\n      and\n      0x23b872dd\n        /* \"@openzeppelin/contracts/token/ERC20/utils/SafeERC20.sol\":1781:1785  from */\n      dup7\n        /* \"@openzeppelin/contracts/token/ERC20/utils/SafeERC20.sol\":1787:1789  to */\n      dup7\n        /* \"@openzeppelin/contracts/token/ERC20/utils/SafeERC20.sol\":1791:1796  value */\n      dup7\n        /* \"@openzeppelin/contracts/token/ERC20/utils/SafeERC20.sol\":1745:1798  abi.encodeCall(token.transferFrom, (from, to, value)) */\n      add(0x24, mload(0x40))\n      tag_410\n      swap4\n      swap3\n      swap2\n      swap1\n      tag_411\n      jump\t// in\n    tag_410:\n      mload(0x40)\n      0x20\n      dup2\n      dup4\n      sub\n      sub\n      dup2\n      mstore\n      swap1\n      0x40\n      mstore\n      swap2\n      pop\n      0xe0\n      shl\n      0x20\n      dup3\n      add\n      dup1\n      mload\n      0xffffffffffffffffffffffffffffffffffffffffffffffffffffffff\n      dup4\n      dup2\n      dup4\n      and\n      or\n      dup4\n      mstore\n      pop\n      pop\n      pop\n      pop\n        /* \"@openzeppelin/contracts/token/ERC20/utils/SafeERC20.sol\":1718:1737  _callOptionalReturn */\n      tag_407\n        /* \"@openzeppelin/contracts/token/ERC20/utils/SafeERC20.sol\":1718:1799  _callOptionalReturn(token, abi.encodeCall(token.transferFrom, (from, to, value))) */\n      jump\t// in\n    tag_409:\n        /* \"@openzeppelin/contracts/token/ERC20/utils/SafeERC20.sol\":1618:1806  function safeTransferFrom(IERC20 token, address from, address to, uint256 value) internal {... */\n      pop\n      pop\n      pop\n      pop\n      jump\t// out\n        /* \"@openzeppelin/contracts/token/ERC20/utils/SafeERC20.sol\":8370:9090  function _callOptionalReturn(IERC20 token, bytes memory data) private {... */\n    tag_407:\n        /* \"@openzeppelin/contracts/token/ERC20/utils/SafeERC20.sol\":8450:8468  uint256 returnSize */\n      0x00\n        /* \"@openzeppelin/contracts/token/ERC20/utils/SafeERC20.sol\":8478:8497  uint256 returnValue */\n      0x00\n        /* \"@openzeppelin/contracts/token/ERC20/utils/SafeERC20.sol\":8616:8620  0x20 */\n      0x20\n        /* \"@openzeppelin/contracts/token/ERC20/utils/SafeERC20.sol\":8613:8614  0 */\n      0x00\n        /* \"@openzeppelin/contracts/token/ERC20/utils/SafeERC20.sol\":8606:8610  data */\n      dup5\n        /* \"@openzeppelin/contracts/token/ERC20/utils/SafeERC20.sol\":8600:8611  mload(data) */\n      mload\n        /* \"@openzeppelin/contracts/token/ERC20/utils/SafeERC20.sol\":8593:8597  0x20 */\n      0x20\n        /* \"@openzeppelin/contracts/token/ERC20/utils/SafeERC20.sol\":8587:8591  data */\n      dup7\n        /* \"@openzeppelin/contracts/token/ERC20/utils/SafeERC20.sol\":8583:8598  add(data, 0x20) */\n      add\n        /* \"@openzeppelin/contracts/token/ERC20/utils/SafeERC20.sol\":8580:8581  0 */\n      0x00\n        /* \"@openzeppelin/contracts/token/ERC20/utils/SafeERC20.sol\":8573:8578  token */\n      dup9\n        /* \"@openzeppelin/contracts/token/ERC20/utils/SafeERC20.sol\":8566:8571  gas() */\n      gas\n        /* \"@openzeppelin/contracts/token/ERC20/utils/SafeERC20.sol\":8561:8621  call(gas(), token, 0, add(data, 0x20), mload(data), 0, 0x20) */\n      call\n        /* \"@openzeppelin/contracts/token/ERC20/utils/SafeERC20.sol\":8673:8680  success */\n      dup1\n        /* \"@openzeppelin/contracts/token/ERC20/utils/SafeERC20.sol\":8663:8839  if iszero(success) {... */\n      tag_413\n      jumpi\n        /* \"@openzeppelin/contracts/token/ERC20/utils/SafeERC20.sol\":8717:8721  0x40 */\n      0x40\n        /* \"@openzeppelin/contracts/token/ERC20/utils/SafeERC20.sol\":8711:8722  mload(0x40) */\n      mload\n        /* \"@openzeppelin/contracts/token/ERC20/utils/SafeERC20.sol\":8762:8778  returndatasize() */\n      returndatasize\n        /* \"@openzeppelin/contracts/token/ERC20/utils/SafeERC20.sol\":8759:8760  0 */\n      0x00\n        /* \"@openzeppelin/contracts/token/ERC20/utils/SafeERC20.sol\":8754:8757  ptr */\n      dup3\n        /* \"@openzeppelin/contracts/token/ERC20/utils/SafeERC20.sol\":8739:8779  returndatacopy(ptr, 0, returndatasize()) */\n      returndatacopy\n        /* \"@openzeppelin/contracts/token/ERC20/utils/SafeERC20.sol\":8808:8824  returndatasize() */\n      returndatasize\n        /* \"@openzeppelin/contracts/token/ERC20/utils/SafeERC20.sol\":8803:8806  ptr */\n      dup2\n        /* \"@openzeppelin/contracts/token/ERC20/utils/SafeERC20.sol\":8796:8825  revert(ptr, returndatasize()) */\n      revert\n        /* \"@openzeppelin/contracts/token/ERC20/utils/SafeERC20.sol\":8663:8839  if iszero(success) {... */\n    tag_413:\n        /* \"@openzeppelin/contracts/token/ERC20/utils/SafeERC20.sol\":8866:8882  returndatasize() */\n      returndatasize\n        /* \"@openzeppelin/contracts/token/ERC20/utils/SafeERC20.sol\":8852:8882  returnSize := returndatasize() */\n      swap3\n      pop\n        /* \"@openzeppelin/contracts/token/ERC20/utils/SafeERC20.sol\":8916:8917  0 */\n      0x00\n        /* \"@openzeppelin/contracts/token/ERC20/utils/SafeERC20.sol\":8910:8918  mload(0) */\n      mload\n        /* \"@openzeppelin/contracts/token/ERC20/utils/SafeERC20.sol\":8895:8918  returnValue := mload(0) */\n      swap2\n      pop\n        /* \"@openzeppelin/contracts/token/ERC20/utils/SafeERC20.sol\":8532:8928  {... */\n      pop\n        /* \"@openzeppelin/contracts/token/ERC20/utils/SafeERC20.sol\":8956:8957  0 */\n      0x00\n        /* \"@openzeppelin/contracts/token/ERC20/utils/SafeERC20.sol\":8942:8952  returnSize */\n      dup3\n        /* \"@openzeppelin/contracts/token/ERC20/utils/SafeERC20.sol\":8942:8957  returnSize == 0 */\n      eq\n        /* \"@openzeppelin/contracts/token/ERC20/utils/SafeERC20.sol\":8942:9010  returnSize == 0 ? address(token).code.length == 0 : returnValue != 1 */\n      tag_414\n      jumpi\n        /* \"@openzeppelin/contracts/token/ERC20/utils/SafeERC20.sol\":9009:9010  1 */\n      0x01\n        /* \"@openzeppelin/contracts/token/ERC20/utils/SafeERC20.sol\":8994:9005  returnValue */\n      dup2\n        /* \"@openzeppelin/contracts/token/ERC20/utils/SafeERC20.sol\":8994:9010  returnValue != 1 */\n      eq\n      iszero\n        /* \"@openzeppelin/contracts/token/ERC20/utils/SafeERC20.sol\":8942:9010  returnSize == 0 ? address(token).code.length == 0 : returnValue != 1 */\n      jump(tag_415)\n    tag_414:\n        /* \"@openzeppelin/contracts/token/ERC20/utils/SafeERC20.sol\":8990:8991  0 */\n      0x00\n        /* \"@openzeppelin/contracts/token/ERC20/utils/SafeERC20.sol\":8968:8973  token */\n      dup5\n        /* \"@openzeppelin/contracts/token/ERC20/utils/SafeERC20.sol\":8960:8986  address(token).code.length */\n      0xffffffffffffffffffffffffffffffffffffffff\n      and\n      extcodesize\n        /* \"@openzeppelin/contracts/token/ERC20/utils/SafeERC20.sol\":8960:8991  address(token).code.length == 0 */\n      eq\n        /* \"@openzeppelin/contracts/token/ERC20/utils/SafeERC20.sol\":8942:9010  returnSize == 0 ? address(token).code.length == 0 : returnValue != 1 */\n    tag_415:\n        /* \"@openzeppelin/contracts/token/ERC20/utils/SafeERC20.sol\":8938:9084  if (returnSize == 0 ? address(token).code.length == 0 : returnValue != 1) {... */\n      iszero\n      tag_416\n      jumpi\n        /* \"@openzeppelin/contracts/token/ERC20/utils/SafeERC20.sol\":9066:9071  token */\n      dup4\n        /* \"@openzeppelin/contracts/token/ERC20/utils/SafeERC20.sol\":9033:9073  SafeERC20FailedOperation(address(token)) */\n      mload(0x40)\n      0x5274afe700000000000000000000000000000000000000000000000000000000\n      dup2\n      mstore\n      0x04\n      add\n      tag_417\n      swap2\n      swap1\n      tag_200\n      jump\t// in\n    tag_417:\n      mload(0x40)\n      dup1\n      swap2\n      sub\n      swap1\n      revert\n        /* \"@openzeppelin/contracts/token/ERC20/utils/SafeERC20.sol\":8938:9084  if (returnSize == 0 ? address(token).code.length == 0 : returnValue != 1) {... */\n    tag_416:\n        /* \"@openzeppelin/contracts/token/ERC20/utils/SafeERC20.sol\":8440:9090  {... */\n      pop\n      pop\n        /* \"@openzeppelin/contracts/token/ERC20/utils/SafeERC20.sol\":8370:9090  function _callOptionalReturn(IERC20 token, bytes memory data) private {... */\n      pop\n      pop\n      jump\t// out\n        /* \"#utility.yul\":7:176   */\n    tag_418:\n        /* \"#utility.yul\":91:102   */\n      0x00\n        /* \"#utility.yul\":125:131   */\n      dup3\n        /* \"#utility.yul\":120:123   */\n      dup3\n        /* \"#utility.yul\":113:132   */\n      mstore\n        /* \"#utility.yul\":165:169   */\n      0x20\n        /* \"#utility.yul\":160:163   */\n      dup3\n        /* \"#utility.yul\":156:170   */\n      add\n        /* \"#utility.yul\":141:170   */\n      swap1\n      pop\n        /* \"#utility.yul\":7:176   */\n      swap3\n      swap2\n      pop\n      pop\n      jump\t// out\n        /* \"#utility.yul\":182:354   */\n    tag_419:\n        /* \"#utility.yul\":322:346   */\n      0x44697265637420455448206e6f7420616c6c6f77656400000000000000000000\n        /* \"#utility.yul\":318:319   */\n      0x00\n        /* \"#utility.yul\":310:316   */\n      dup3\n        /* \"#utility.yul\":306:320   */\n      add\n        /* \"#utility.yul\":299:347   */\n      mstore\n        /* \"#utility.yul\":182:354   */\n      pop\n      jump\t// out\n        /* \"#utility.yul\":360:726   */\n    tag_420:\n        /* \"#utility.yul\":502:505   */\n      0x00\n        /* \"#utility.yul\":523:590   */\n      tag_561\n        /* \"#utility.yul\":587:589   */\n      0x16\n        /* \"#utility.yul\":582:585   */\n      dup4\n        /* \"#utility.yul\":523:590   */\n      tag_418\n      jump\t// in\n    tag_561:\n        /* \"#utility.yul\":516:590   */\n      swap2\n      pop\n        /* \"#utility.yul\":599:692   */\n      tag_562\n        /* \"#utility.yul\":688:691   */\n      dup3\n        /* \"#utility.yul\":599:692   */\n      tag_419\n      jump\t// in\n    tag_562:\n        /* \"#utility.yul\":717:719   */\n      0x20\n        /* \"#utility.yul\":712:715   */\n      dup3\n        /* \"#utility.yul\":708:720   */\n      add\n        /* \"#utility.yul\":701:720   */\n      swap1\n      pop\n        /* \"#utility.yul\":360:726   */\n      swap2\n      swap1\n      pop\n      jump\t// out\n        /* \"#utility.yul\":732:1151   */\n    tag_11:\n        /* \"#utility.yul\":898:902   */\n      0x00\n        /* \"#utility.yul\":936:938   */\n      0x20\n        /* \"#utility.yul\":925:934   */\n      dup3\n        /* \"#utility.yul\":921:939   */\n      add\n        /* \"#utility.yul\":913:939   */\n      swap1\n      pop\n        /* \"#utility.yul\":985:994   */\n      dup2\n        /* \"#utility.yul\":979:983   */\n      dup2\n        /* \"#utility.yul\":975:995   */\n      sub\n        /* \"#utility.yul\":971:972   */\n      0x00\n        /* \"#utility.yul\":960:969   */\n      dup4\n        /* \"#utility.yul\":956:973   */\n      add\n        /* \"#utility.yul\":949:996   */\n      mstore\n        /* \"#utility.yul\":1013:1144   */\n      tag_564\n        /* \"#utility.yul\":1139:1143   */\n      dup2\n        /* \"#utility.yul\":1013:1144   */\n      tag_420\n      jump\t// in\n    tag_564:\n        /* \"#utility.yul\":1005:1144   */\n      swap1\n      pop\n        /* \"#utility.yul\":732:1151   */\n      swap2\n      swap1\n      pop\n      jump\t// out\n        /* \"#utility.yul\":1157:1232   */\n    tag_421:\n        /* \"#utility.yul\":1190:1196   */\n      0x00\n        /* \"#utility.yul\":1223:1225   */\n      0x40\n        /* \"#utility.yul\":1217:1226   */\n      mload\n        /* \"#utility.yul\":1207:1226   */\n      swap1\n      pop\n        /* \"#utility.yul\":1157:1232   */\n      swap1\n      jump\t// out\n        /* \"#utility.yul\":1238:1355   */\n    tag_422:\n        /* \"#utility.yul\":1347:1348   */\n      0x00\n        /* \"#utility.yul\":1344:1345   */\n      0x00\n        /* \"#utility.yul\":1337:1349   */\n      revert\n        /* \"#utility.yul\":1361:1478   */\n    tag_423:\n        /* \"#utility.yul\":1470:1471   */\n      0x00\n        /* \"#utility.yul\":1467:1468   */\n      0x00\n        /* \"#utility.yul\":1460:1472   */\n      revert\n        /* \"#utility.yul\":1484:1601   */\n    tag_424:\n        /* \"#utility.yul\":1593:1594   */\n      0x00\n        /* \"#utility.yul\":1590:1591   */\n      0x00\n        /* \"#utility.yul\":1583:1595   */\n      revert\n        /* \"#utility.yul\":1607:1724   */\n    tag_425:\n        /* \"#utility.yul\":1716:1717   */\n      0x00\n        /* \"#utility.yul\":1713:1714   */\n      0x00\n        /* \"#utility.yul\":1706:1718   */\n      revert\n        /* \"#utility.yul\":1730:1847   */\n    tag_426:\n        /* \"#utility.yul\":1839:1840   */\n      0x00\n        /* \"#utility.yul\":1836:1837   */\n      0x00\n        /* \"#utility.yul\":1829:1841   */\n      revert\n        /* \"#utility.yul\":1884:2485   */\n    tag_427:\n        /* \"#utility.yul\":1990:1998   */\n      0x00\n        /* \"#utility.yul\":2000:2006   */\n      0x00\n        /* \"#utility.yul\":2050:2053   */\n      dup4\n        /* \"#utility.yul\":2043:2047   */\n      0x1f\n        /* \"#utility.yul\":2035:2041   */\n      dup5\n        /* \"#utility.yul\":2031:2048   */\n      add\n        /* \"#utility.yul\":2027:2054   */\n      slt\n        /* \"#utility.yul\":2017:2139   */\n      tag_572\n      jumpi\n        /* \"#utility.yul\":2058:2137   */\n      tag_573\n      tag_424\n      jump\t// in\n    tag_573:\n        /* \"#utility.yul\":2017:2139   */\n    tag_572:\n        /* \"#utility.yul\":2171:2177   */\n      dup3\n        /* \"#utility.yul\":2158:2178   */\n      calldataload\n        /* \"#utility.yul\":2148:2178   */\n      swap1\n      pop\n        /* \"#utility.yul\":2201:2219   */\n      0xffffffffffffffff\n        /* \"#utility.yul\":2193:2199   */\n      dup2\n        /* \"#utility.yul\":2190:2220   */\n      gt\n        /* \"#utility.yul\":2187:2304   */\n      iszero\n      tag_574\n      jumpi\n        /* \"#utility.yul\":2223:2302   */\n      tag_575\n      tag_425\n      jump\t// in\n    tag_575:\n        /* \"#utility.yul\":2187:2304   */\n    tag_574:\n        /* \"#utility.yul\":2337:2341   */\n      0x20\n        /* \"#utility.yul\":2329:2335   */\n      dup4\n        /* \"#utility.yul\":2325:2342   */\n      add\n        /* \"#utility.yul\":2313:2342   */\n      swap2\n      pop\n        /* \"#utility.yul\":2391:2394   */\n      dup4\n        /* \"#utility.yul\":2383:2387   */\n      0x40\n        /* \"#utility.yul\":2375:2381   */\n      dup3\n        /* \"#utility.yul\":2371:2388   */\n      mul\n        /* \"#utility.yul\":2361:2369   */\n      dup4\n        /* \"#utility.yul\":2357:2389   */\n      add\n        /* \"#utility.yul\":2354:2395   */\n      gt\n        /* \"#utility.yul\":2351:2479   */\n      iszero\n      tag_576\n      jumpi\n        /* \"#utility.yul\":2398:2477   */\n      tag_577\n      tag_426\n      jump\t// in\n    tag_577:\n        /* \"#utility.yul\":2351:2479   */\n    tag_576:\n        /* \"#utility.yul\":1884:2485   */\n      swap3\n      pop\n      swap3\n      swap1\n      pop\n      jump\t// out\n        /* \"#utility.yul\":2523:3125   */\n    tag_428:\n        /* \"#utility.yul\":2630:2638   */\n      0x00\n        /* \"#utility.yul\":2640:2646   */\n      0x00\n        /* \"#utility.yul\":2690:2693   */\n      dup4\n        /* \"#utility.yul\":2683:2687   */\n      0x1f\n        /* \"#utility.yul\":2675:2681   */\n      dup5\n        /* \"#utility.yul\":2671:2688   */\n      add\n        /* \"#utility.yul\":2667:2694   */\n      slt\n        /* \"#utility.yul\":2657:2779   */\n      tag_579\n      jumpi\n        /* \"#utility.yul\":2698:2777   */\n      tag_580\n      tag_424\n      jump\t// in\n    tag_580:\n        /* \"#utility.yul\":2657:2779   */\n    tag_579:\n        /* \"#utility.yul\":2811:2817   */\n      dup3\n        /* \"#utility.yul\":2798:2818   */\n      calldataload\n        /* \"#utility.yul\":2788:2818   */\n      swap1\n      pop\n        /* \"#utility.yul\":2841:2859   */\n      0xffffffffffffffff\n        /* \"#utility.yul\":2833:2839   */\n      dup2\n        /* \"#utility.yul\":2830:2860   */\n      gt\n        /* \"#utility.yul\":2827:2944   */\n      iszero\n      tag_581\n      jumpi\n        /* \"#utility.yul\":2863:2942   */\n      tag_582\n      tag_425\n      jump\t// in\n    tag_582:\n        /* \"#utility.yul\":2827:2944   */\n    tag_581:\n        /* \"#utility.yul\":2977:2981   */\n      0x20\n        /* \"#utility.yul\":2969:2975   */\n      dup4\n        /* \"#utility.yul\":2965:2982   */\n      add\n        /* \"#utility.yul\":2953:2982   */\n      swap2\n      pop\n        /* \"#utility.yul\":3031:3034   */\n      dup4\n        /* \"#utility.yul\":3023:3027   */\n      0x40\n        /* \"#utility.yul\":3015:3021   */\n      dup3\n        /* \"#utility.yul\":3011:3028   */\n      mul\n        /* \"#utility.yul\":3001:3009   */\n      dup4\n        /* \"#utility.yul\":2997:3029   */\n      add\n        /* \"#utility.yul\":2994:3035   */\n      gt\n        /* \"#utility.yul\":2991:3119   */\n      iszero\n      tag_583\n      jumpi\n        /* \"#utility.yul\":3038:3117   */\n      tag_584\n      tag_426\n      jump\t// in\n    tag_584:\n        /* \"#utility.yul\":2991:3119   */\n    tag_583:\n        /* \"#utility.yul\":2523:3125   */\n      swap3\n      pop\n      swap3\n      swap1\n      pop\n      jump\t// out\n        /* \"#utility.yul\":3131:3257   */\n    tag_429:\n        /* \"#utility.yul\":3168:3175   */\n      0x00\n        /* \"#utility.yul\":3208:3250   */\n      0xffffffffffffffffffffffffffffffffffffffff\n        /* \"#utility.yul\":3201:3206   */\n      dup3\n        /* \"#utility.yul\":3197:3251   */\n      and\n        /* \"#utility.yul\":3186:3251   */\n      swap1\n      pop\n        /* \"#utility.yul\":3131:3257   */\n      swap2\n      swap1\n      pop\n      jump\t// out\n        /* \"#utility.yul\":3263:3359   */\n    tag_430:\n        /* \"#utility.yul\":3300:3307   */\n      0x00\n        /* \"#utility.yul\":3329:3353   */\n      tag_587\n        /* \"#utility.yul\":3347:3352   */\n      dup3\n        /* \"#utility.yul\":3329:3353   */\n      tag_429\n      jump\t// in\n    tag_587:\n        /* \"#utility.yul\":3318:3353   */\n      swap1\n      pop\n        /* \"#utility.yul\":3263:3359   */\n      swap2\n      swap1\n      pop\n      jump\t// out\n        /* \"#utility.yul\":3365:3487   */\n    tag_431:\n        /* \"#utility.yul\":3438:3462   */\n      tag_589\n        /* \"#utility.yul\":3456:3461   */\n      dup2\n        /* \"#utility.yul\":3438:3462   */\n      tag_430\n      jump\t// in\n    tag_589:\n        /* \"#utility.yul\":3431:3436   */\n      dup2\n        /* \"#utility.yul\":3428:3463   */\n      eq\n        /* \"#utility.yul\":3418:3481   */\n      tag_590\n      jumpi\n        /* \"#utility.yul\":3477:3478   */\n      0x00\n        /* \"#utility.yul\":3474:3475   */\n      0x00\n        /* \"#utility.yul\":3467:3479   */\n      revert\n        /* \"#utility.yul\":3418:3481   */\n    tag_590:\n        /* \"#utility.yul\":3365:3487   */\n      pop\n      jump\t// out\n        /* \"#utility.yul\":3493:3632   */\n    tag_432:\n        /* \"#utility.yul\":3539:3544   */\n      0x00\n        /* \"#utility.yul\":3577:3583   */\n      dup2\n        /* \"#utility.yul\":3564:3584   */\n      calldataload\n        /* \"#utility.yul\":3555:3584   */\n      swap1\n      pop\n        /* \"#utility.yul\":3593:3626   */\n      tag_592\n        /* \"#utility.yul\":3620:3625   */\n      dup2\n        /* \"#utility.yul\":3593:3626   */\n      tag_431\n      jump\t// in\n    tag_592:\n        /* \"#utility.yul\":3493:3632   */\n      swap3\n      swap2\n      pop\n      pop\n      jump\t// out\n        /* \"#utility.yul\":3638:3715   */\n    tag_433:\n        /* \"#utility.yul\":3675:3682   */\n      0x00\n        /* \"#utility.yul\":3704:3709   */\n      dup2\n        /* \"#utility.yul\":3693:3709   */\n      swap1\n      pop\n        /* \"#utility.yul\":3638:3715   */\n      swap2\n      swap1\n      pop\n      jump\t// out\n        /* \"#utility.yul\":3721:3843   */\n    tag_434:\n        /* \"#utility.yul\":3794:3818   */\n      tag_595\n        /* \"#utility.yul\":3812:3817   */\n      dup2\n        /* \"#utility.yul\":3794:3818   */\n      tag_433\n      jump\t// in\n    tag_595:\n        /* \"#utility.yul\":3787:3792   */\n      dup2\n        /* \"#utility.yul\":3784:3819   */\n      eq\n        /* \"#utility.yul\":3774:3837   */\n      tag_596\n      jumpi\n        /* \"#utility.yul\":3833:3834   */\n      0x00\n        /* \"#utility.yul\":3830:3831   */\n      0x00\n        /* \"#utility.yul\":3823:3835   */\n      revert\n        /* \"#utility.yul\":3774:3837   */\n    tag_596:\n        /* \"#utility.yul\":3721:3843   */\n      pop\n      jump\t// out\n        /* \"#utility.yul\":3849:3988   */\n    tag_435:\n        /* \"#utility.yul\":3895:3900   */\n      0x00\n        /* \"#utility.yul\":3933:3939   */\n      dup2\n        /* \"#utility.yul\":3920:3940   */\n      calldataload\n        /* \"#utility.yul\":3911:3940   */\n      swap1\n      pop\n        /* \"#utility.yul\":3949:3982   */\n      tag_598\n        /* \"#utility.yul\":3976:3981   */\n      dup2\n        /* \"#utility.yul\":3949:3982   */\n      tag_434\n      jump\t// in\n    tag_598:\n        /* \"#utility.yul\":3849:3988   */\n      swap3\n      swap2\n      pop\n      pop\n      jump\t// out\n        /* \"#utility.yul\":4018:4612   */\n    tag_436:\n        /* \"#utility.yul\":4117:4125   */\n      0x00\n        /* \"#utility.yul\":4127:4133   */\n      0x00\n        /* \"#utility.yul\":4177:4180   */\n      dup4\n        /* \"#utility.yul\":4170:4174   */\n      0x1f\n        /* \"#utility.yul\":4162:4168   */\n      dup5\n        /* \"#utility.yul\":4158:4175   */\n      add\n        /* \"#utility.yul\":4154:4181   */\n      slt\n        /* \"#utility.yul\":4144:4266   */\n      tag_600\n      jumpi\n        /* \"#utility.yul\":4185:4264   */\n      tag_601\n      tag_424\n      jump\t// in\n    tag_601:\n        /* \"#utility.yul\":4144:4266   */\n    tag_600:\n        /* \"#utility.yul\":4298:4304   */\n      dup3\n        /* \"#utility.yul\":4285:4305   */\n      calldataload\n        /* \"#utility.yul\":4275:4305   */\n      swap1\n      pop\n        /* \"#utility.yul\":4328:4346   */\n      0xffffffffffffffff\n        /* \"#utility.yul\":4320:4326   */\n      dup2\n        /* \"#utility.yul\":4317:4347   */\n      gt\n        /* \"#utility.yul\":4314:4431   */\n      iszero\n      tag_602\n      jumpi\n        /* \"#utility.yul\":4350:4429   */\n      tag_603\n      tag_425\n      jump\t// in\n    tag_603:\n        /* \"#utility.yul\":4314:4431   */\n    tag_602:\n        /* \"#utility.yul\":4464:4468   */\n      0x20\n        /* \"#utility.yul\":4456:4462   */\n      dup4\n        /* \"#utility.yul\":4452:4469   */\n      add\n        /* \"#utility.yul\":4440:4469   */\n      swap2\n      pop\n        /* \"#utility.yul\":4518:4521   */\n      dup4\n        /* \"#utility.yul\":4510:4514   */\n      0x40\n        /* \"#utility.yul\":4502:4508   */\n      dup3\n        /* \"#utility.yul\":4498:4515   */\n      mul\n        /* \"#utility.yul\":4488:4496   */\n      dup4\n        /* \"#utility.yul\":4484:4516   */\n      add\n        /* \"#utility.yul\":4481:4522   */\n      gt\n        /* \"#utility.yul\":4478:4606   */\n      iszero\n      tag_604\n      jumpi\n        /* \"#utility.yul\":4525:4604   */\n      tag_605\n      tag_426\n      jump\t// in\n    tag_605:\n        /* \"#utility.yul\":4478:4606   */\n    tag_604:\n        /* \"#utility.yul\":4018:4612   */\n      swap3\n      pop\n      swap3\n      swap1\n      pop\n      jump\t// out\n        /* \"#utility.yul\":4618:6551   */\n    tag_14:\n        /* \"#utility.yul\":4896:4902   */\n      0x00\n        /* \"#utility.yul\":4904:4910   */\n      0x00\n        /* \"#utility.yul\":4912:4918   */\n      0x00\n        /* \"#utility.yul\":4920:4926   */\n      0x00\n        /* \"#utility.yul\":4928:4934   */\n      0x00\n        /* \"#utility.yul\":4936:4942   */\n      0x00\n        /* \"#utility.yul\":4944:4950   */\n      0x00\n        /* \"#utility.yul\":4952:4958   */\n      0x00\n        /* \"#utility.yul\":4960:4966   */\n      0x00\n        /* \"#utility.yul\":5009:5012   */\n      0xc0\n        /* \"#utility.yul\":4997:5006   */\n      dup11\n        /* \"#utility.yul\":4988:4995   */\n      dup13\n        /* \"#utility.yul\":4984:5007   */\n      sub\n        /* \"#utility.yul\":4980:5013   */\n      slt\n        /* \"#utility.yul\":4977:5097   */\n      iszero\n      tag_607\n      jumpi\n        /* \"#utility.yul\":5016:5095   */\n      tag_608\n      tag_422\n      jump\t// in\n    tag_608:\n        /* \"#utility.yul\":4977:5097   */\n    tag_607:\n        /* \"#utility.yul\":5164:5165   */\n      0x00\n        /* \"#utility.yul\":5153:5162   */\n      dup11\n        /* \"#utility.yul\":5149:5166   */\n      add\n        /* \"#utility.yul\":5136:5167   */\n      calldataload\n        /* \"#utility.yul\":5194:5212   */\n      0xffffffffffffffff\n        /* \"#utility.yul\":5186:5192   */\n      dup2\n        /* \"#utility.yul\":5183:5213   */\n      gt\n        /* \"#utility.yul\":5180:5297   */\n      iszero\n      tag_609\n      jumpi\n        /* \"#utility.yul\":5216:5295   */\n      tag_610\n      tag_423\n      jump\t// in\n    tag_610:\n        /* \"#utility.yul\":5180:5297   */\n    tag_609:\n        /* \"#utility.yul\":5329:5442   */\n      tag_611\n        /* \"#utility.yul\":5434:5441   */\n      dup13\n        /* \"#utility.yul\":5425:5431   */\n      dup3\n        /* \"#utility.yul\":5414:5423   */\n      dup14\n        /* \"#utility.yul\":5410:5432   */\n      add\n        /* \"#utility.yul\":5329:5442   */\n      tag_427\n      jump\t// in\n    tag_611:\n        /* \"#utility.yul\":5311:5442   */\n      swap10\n      pop\n      swap10\n      pop\n        /* \"#utility.yul\":5107:5452   */\n      pop\n        /* \"#utility.yul\":5519:5521   */\n      0x20\n        /* \"#utility.yul\":5508:5517   */\n      dup11\n        /* \"#utility.yul\":5504:5522   */\n      add\n        /* \"#utility.yul\":5491:5523   */\n      calldataload\n        /* \"#utility.yul\":5550:5568   */\n      0xffffffffffffffff\n        /* \"#utility.yul\":5542:5548   */\n      dup2\n        /* \"#utility.yul\":5539:5569   */\n      gt\n        /* \"#utility.yul\":5536:5653   */\n      iszero\n      tag_612\n      jumpi\n        /* \"#utility.yul\":5572:5651   */\n      tag_613\n      tag_423\n      jump\t// in\n    tag_613:\n        /* \"#utility.yul\":5536:5653   */\n    tag_612:\n        /* \"#utility.yul\":5685:5799   */\n      tag_614\n        /* \"#utility.yul\":5791:5798   */\n      dup13\n        /* \"#utility.yul\":5782:5788   */\n      dup3\n        /* \"#utility.yul\":5771:5780   */\n      dup14\n        /* \"#utility.yul\":5767:5789   */\n      add\n        /* \"#utility.yul\":5685:5799   */\n      tag_428\n      jump\t// in\n    tag_614:\n        /* \"#utility.yul\":5667:5799   */\n      swap8\n      pop\n      swap8\n      pop\n        /* \"#utility.yul\":5462:5809   */\n      pop\n        /* \"#utility.yul\":5848:5850   */\n      0x40\n        /* \"#utility.yul\":5874:5927   */\n      tag_615\n        /* \"#utility.yul\":5919:5926   */\n      dup13\n        /* \"#utility.yul\":5910:5916   */\n      dup3\n        /* \"#utility.yul\":5899:5908   */\n      dup14\n        /* \"#utility.yul\":5895:5917   */\n      add\n        /* \"#utility.yul\":5874:5927   */\n      tag_432\n      jump\t// in\n    tag_615:\n        /* \"#utility.yul\":5864:5927   */\n      swap6\n      pop\n        /* \"#utility.yul\":5819:5937   */\n      pop\n        /* \"#utility.yul\":5976:5978   */\n      0x60\n        /* \"#utility.yul\":6002:6055   */\n      tag_616\n        /* \"#utility.yul\":6047:6054   */\n      dup13\n        /* \"#utility.yul\":6038:6044   */\n      dup3\n        /* \"#utility.yul\":6027:6036   */\n      dup14\n        /* \"#utility.yul\":6023:6045   */\n      add\n        /* \"#utility.yul\":6002:6055   */\n      tag_435\n      jump\t// in\n    tag_616:\n        /* \"#utility.yul\":5992:6055   */\n      swap5\n      pop\n        /* \"#utility.yul\":5947:6065   */\n      pop\n        /* \"#utility.yul\":6104:6107   */\n      0x80\n        /* \"#utility.yul\":6131:6184   */\n      tag_617\n        /* \"#utility.yul\":6176:6183   */\n      dup13\n        /* \"#utility.yul\":6167:6173   */\n      dup3\n        /* \"#utility.yul\":6156:6165   */\n      dup14\n        /* \"#utility.yul\":6152:6174   */\n      add\n        /* \"#utility.yul\":6131:6184   */\n      tag_435\n      jump\t// in\n    tag_617:\n        /* \"#utility.yul\":6121:6184   */\n      swap4\n      pop\n        /* \"#utility.yul\":6075:6194   */\n      pop\n        /* \"#utility.yul\":6261:6264   */\n      0xa0\n        /* \"#utility.yul\":6250:6259   */\n      dup11\n        /* \"#utility.yul\":6246:6265   */\n      add\n        /* \"#utility.yul\":6233:6266   */\n      calldataload\n        /* \"#utility.yul\":6293:6311   */\n      0xffffffffffffffff\n        /* \"#utility.yul\":6285:6291   */\n      dup2\n        /* \"#utility.yul\":6282:6312   */\n      gt\n        /* \"#utility.yul\":6279:6396   */\n      iszero\n      tag_618\n      jumpi\n        /* \"#utility.yul\":6315:6394   */\n      tag_619\n      tag_423\n      jump\t// in\n    tag_619:\n        /* \"#utility.yul\":6279:6396   */\n    tag_618:\n        /* \"#utility.yul\":6428:6534   */\n      tag_620\n        /* \"#utility.yul\":6526:6533   */\n      dup13\n        /* \"#utility.yul\":6517:6523   */\n      dup3\n        /* \"#utility.yul\":6506:6515   */\n      dup14\n        /* \"#utility.yul\":6502:6524   */\n      add\n        /* \"#utility.yul\":6428:6534   */\n      tag_436\n      jump\t// in\n    tag_620:\n        /* \"#utility.yul\":6410:6534   */\n      swap3\n      pop\n      swap3\n      pop\n        /* \"#utility.yul\":6204:6544   */\n      pop\n        /* \"#utility.yul\":4618:6551   */\n      swap3\n      swap6\n      swap9\n      pop\n      swap3\n      swap6\n      swap9\n      pop\n      swap3\n      swap6\n      swap9\n      jump\t// out\n        /* \"#utility.yul\":6557:6617   */\n    tag_437:\n        /* \"#utility.yul\":6585:6588   */\n      0x00\n        /* \"#utility.yul\":6606:6611   */\n      dup2\n        /* \"#utility.yul\":6599:6611   */\n      swap1\n      pop\n        /* \"#utility.yul\":6557:6617   */\n      swap2\n      swap1\n      pop\n      jump\t// out\n        /* \"#utility.yul\":6623:6765   */\n    tag_438:\n        /* \"#utility.yul\":6673:6682   */\n      0x00\n        /* \"#utility.yul\":6706:6759   */\n      tag_623\n        /* \"#utility.yul\":6724:6758   */\n      tag_624\n        /* \"#utility.yul\":6733:6757   */\n      tag_625\n        /* \"#utility.yul\":6751:6756   */\n      dup5\n        /* \"#utility.yul\":6733:6757   */\n      tag_429\n      jump\t// in\n    tag_625:\n        /* \"#utility.yul\":6724:6758   */\n      tag_437\n      jump\t// in\n    tag_624:\n        /* \"#utility.yul\":6706:6759   */\n      tag_429\n      jump\t// in\n    tag_623:\n        /* \"#utility.yul\":6693:6759   */\n      swap1\n      pop\n        /* \"#utility.yul\":6623:6765   */\n      swap2\n      swap1\n      pop\n      jump\t// out\n        /* \"#utility.yul\":6771:6897   */\n    tag_439:\n        /* \"#utility.yul\":6821:6830   */\n      0x00\n        /* \"#utility.yul\":6854:6891   */\n      tag_627\n        /* \"#utility.yul\":6885:6890   */\n      dup3\n        /* \"#utility.yul\":6854:6891   */\n      tag_438\n      jump\t// in\n    tag_627:\n        /* \"#utility.yul\":6841:6891   */\n      swap1\n      pop\n        /* \"#utility.yul\":6771:6897   */\n      swap2\n      swap1\n      pop\n      jump\t// out\n        /* \"#utility.yul\":6903:7055   */\n    tag_440:\n        /* \"#utility.yul\":6979:6988   */\n      0x00\n        /* \"#utility.yul\":7012:7049   */\n      tag_629\n        /* \"#utility.yul\":7043:7048   */\n      dup3\n        /* \"#utility.yul\":7012:7049   */\n      tag_439\n      jump\t// in\n    tag_629:\n        /* \"#utility.yul\":6999:7049   */\n      swap1\n      pop\n        /* \"#utility.yul\":6903:7055   */\n      swap2\n      swap1\n      pop\n      jump\t// out\n        /* \"#utility.yul\":7061:7244   */\n    tag_441:\n        /* \"#utility.yul\":7174:7237   */\n      tag_631\n        /* \"#utility.yul\":7231:7236   */\n      dup2\n        /* \"#utility.yul\":7174:7237   */\n      tag_440\n      jump\t// in\n    tag_631:\n        /* \"#utility.yul\":7169:7172   */\n      dup3\n        /* \"#utility.yul\":7162:7238   */\n      mstore\n        /* \"#utility.yul\":7061:7244   */\n      pop\n      pop\n      jump\t// out\n        /* \"#utility.yul\":7250:7524   */\n    tag_20:\n        /* \"#utility.yul\":7369:7373   */\n      0x00\n        /* \"#utility.yul\":7407:7409   */\n      0x20\n        /* \"#utility.yul\":7396:7405   */\n      dup3\n        /* \"#utility.yul\":7392:7410   */\n      add\n        /* \"#utility.yul\":7384:7410   */\n      swap1\n      pop\n        /* \"#utility.yul\":7420:7517   */\n      tag_633\n        /* \"#utility.yul\":7514:7515   */\n      0x00\n        /* \"#utility.yul\":7503:7512   */\n      dup4\n        /* \"#utility.yul\":7499:7516   */\n      add\n        /* \"#utility.yul\":7490:7496   */\n      dup5\n        /* \"#utility.yul\":7420:7517   */\n      tag_441\n      jump\t// in\n    tag_633:\n        /* \"#utility.yul\":7250:7524   */\n      swap3\n      swap2\n      pop\n      pop\n      jump\t// out\n        /* \"#utility.yul\":7530:7673   */\n    tag_442:\n        /* \"#utility.yul\":7587:7592   */\n      0x00\n        /* \"#utility.yul\":7618:7624   */\n      dup2\n        /* \"#utility.yul\":7612:7625   */\n      mload\n        /* \"#utility.yul\":7603:7625   */\n      swap1\n      pop\n        /* \"#utility.yul\":7634:7667   */\n      tag_635\n        /* \"#utility.yul\":7661:7666   */\n      dup2\n        /* \"#utility.yul\":7634:7667   */\n      tag_431\n      jump\t// in\n    tag_635:\n        /* \"#utility.yul\":7530:7673   */\n      swap3\n      swap2\n      pop\n      pop\n      jump\t// out\n        /* \"#utility.yul\":7679:8030   */\n    tag_25:\n        /* \"#utility.yul\":7749:7755   */\n      0x00\n        /* \"#utility.yul\":7798:7800   */\n      0x20\n        /* \"#utility.yul\":7786:7795   */\n      dup3\n        /* \"#utility.yul\":7777:7784   */\n      dup5\n        /* \"#utility.yul\":7773:7796   */\n      sub\n        /* \"#utility.yul\":7769:7801   */\n      slt\n        /* \"#utility.yul\":7766:7885   */\n      iszero\n      tag_637\n      jumpi\n        /* \"#utility.yul\":7804:7883   */\n      tag_638\n      tag_422\n      jump\t// in\n    tag_638:\n        /* \"#utility.yul\":7766:7885   */\n    tag_637:\n        /* \"#utility.yul\":7924:7925   */\n      0x00\n        /* \"#utility.yul\":7949:8013   */\n      tag_639\n        /* \"#utility.yul\":8005:8012   */\n      dup5\n        /* \"#utility.yul\":7996:8002   */\n      dup3\n        /* \"#utility.yul\":7985:7994   */\n      dup6\n        /* \"#utility.yul\":7981:8003   */\n      add\n        /* \"#utility.yul\":7949:8013   */\n      tag_442\n      jump\t// in\n    tag_639:\n        /* \"#utility.yul\":7939:8013   */\n      swap2\n      pop\n        /* \"#utility.yul\":7895:8023   */\n      pop\n        /* \"#utility.yul\":7679:8030   */\n      swap3\n      swap2\n      pop\n      pop\n      jump\t// out\n        /* \"#utility.yul\":8036:8213   */\n    tag_443:\n        /* \"#utility.yul\":8176:8205   */\n      0x4d756c74695377617020526f757465723a204e6f20696e707574730000000000\n        /* \"#utility.yul\":8172:8173   */\n      0x00\n        /* \"#utility.yul\":8164:8170   */\n      dup3\n        /* \"#utility.yul\":8160:8174   */\n      add\n        /* \"#utility.yul\":8153:8206   */\n      mstore\n        /* \"#utility.yul\":8036:8213   */\n      pop\n      jump\t// out\n        /* \"#utility.yul\":8219:8585   */\n    tag_444:\n        /* \"#utility.yul\":8361:8364   */\n      0x00\n        /* \"#utility.yul\":8382:8449   */\n      tag_642\n        /* \"#utility.yul\":8446:8448   */\n      0x1b\n        /* \"#utility.yul\":8441:8444   */\n      dup4\n        /* \"#utility.yul\":8382:8449   */\n      tag_418\n      jump\t// in\n    tag_642:\n        /* \"#utility.yul\":8375:8449   */\n      swap2\n      pop\n        /* \"#utility.yul\":8458:8551   */\n      tag_643\n        /* \"#utility.yul\":8547:8550   */\n      dup3\n        /* \"#utility.yul\":8458:8551   */\n      tag_443\n      jump\t// in\n    tag_643:\n        /* \"#utility.yul\":8576:8578   */\n      0x20\n        /* \"#utility.yul\":8571:8574   */\n      dup3\n        /* \"#utility.yul\":8567:8579   */\n      add\n        /* \"#utility.yul\":8560:8579   */\n      swap1\n      pop\n        /* \"#utility.yul\":8219:8585   */\n      swap2\n      swap1\n      pop\n      jump\t// out\n        /* \"#utility.yul\":8591:9010   */\n    tag_32:\n        /* \"#utility.yul\":8757:8761   */\n      0x00\n        /* \"#utility.yul\":8795:8797   */\n      0x20\n        /* \"#utility.yul\":8784:8793   */\n      dup3\n        /* \"#utility.yul\":8780:8798   */\n      add\n        /* \"#utility.yul\":8772:8798   */\n      swap1\n      pop\n        /* \"#utility.yul\":8844:8853   */\n      dup2\n        /* \"#utility.yul\":8838:8842   */\n      dup2\n        /* \"#utility.yul\":8834:8854   */\n      sub\n        /* \"#utility.yul\":8830:8831   */\n      0x00\n        /* \"#utility.yul\":8819:8828   */\n      dup4\n        /* \"#utility.yul\":8815:8832   */\n      add\n        /* \"#utility.yul\":8808:8855   */\n      mstore\n        /* \"#utility.yul\":8872:9003   */\n      tag_645\n        /* \"#utility.yul\":8998:9002   */\n      dup2\n        /* \"#utility.yul\":8872:9003   */\n      tag_444\n      jump\t// in\n    tag_645:\n        /* \"#utility.yul\":8864:9003   */\n      swap1\n      pop\n        /* \"#utility.yul\":8591:9010   */\n      swap2\n      swap1\n      pop\n      jump\t// out\n        /* \"#utility.yul\":9016:9194   */\n    tag_445:\n        /* \"#utility.yul\":9156:9186   */\n      0x4d756c74695377617020526f757465723a204e6f206f75747075747300000000\n        /* \"#utility.yul\":9152:9153   */\n      0x00\n        /* \"#utility.yul\":9144:9150   */\n      dup3\n        /* \"#utility.yul\":9140:9154   */\n      add\n        /* \"#utility.yul\":9133:9187   */\n      mstore\n        /* \"#utility.yul\":9016:9194   */\n      pop\n      jump\t// out\n        /* \"#utility.yul\":9200:9566   */\n    tag_446:\n        /* \"#utility.yul\":9342:9345   */\n      0x00\n        /* \"#utility.yul\":9363:9430   */\n      tag_648\n        /* \"#utility.yul\":9427:9429   */\n      0x1c\n        /* \"#utility.yul\":9422:9425   */\n      dup4\n        /* \"#utility.yul\":9363:9430   */\n      tag_418\n      jump\t// in\n    tag_648:\n        /* \"#utility.yul\":9356:9430   */\n      swap2\n      pop\n        /* \"#utility.yul\":9439:9532   */\n      tag_649\n        /* \"#utility.yul\":9528:9531   */\n      dup3\n        /* \"#utility.yul\":9439:9532   */\n      tag_445\n      jump\t// in\n    tag_649:\n        /* \"#utility.yul\":9557:9559   */\n      0x20\n        /* \"#utility.yul\":9552:9555   */\n      dup3\n        /* \"#utility.yul\":9548:9560   */\n      add\n        /* \"#utility.yul\":9541:9560   */\n      swap1\n      pop\n        /* \"#utility.yul\":9200:9566   */\n      swap2\n      swap1\n      pop\n      jump\t// out\n        /* \"#utility.yul\":9572:9991   */\n    tag_35:\n        /* \"#utility.yul\":9738:9742   */\n      0x00\n        /* \"#utility.yul\":9776:9778   */\n      0x20\n        /* \"#utility.yul\":9765:9774   */\n      dup3\n        /* \"#utility.yul\":9761:9779   */\n      add\n        /* \"#utility.yul\":9753:9779   */\n      swap1\n      pop\n        /* \"#utility.yul\":9825:9834   */\n      dup2\n        /* \"#utility.yul\":9819:9823   */\n      dup2\n        /* \"#utility.yul\":9815:9835   */\n      sub\n        /* \"#utility.yul\":9811:9812   */\n      0x00\n        /* \"#utility.yul\":9800:9809   */\n      dup4\n        /* \"#utility.yul\":9796:9813   */\n      add\n        /* \"#utility.yul\":9789:9836   */\n      mstore\n        /* \"#utility.yul\":9853:9984   */\n      tag_651\n        /* \"#utility.yul\":9979:9983   */\n      dup2\n        /* \"#utility.yul\":9853:9984   */\n      tag_446\n      jump\t// in\n    tag_651:\n        /* \"#utility.yul\":9845:9984   */\n      swap1\n      pop\n        /* \"#utility.yul\":9572:9991   */\n      swap2\n      swap1\n      pop\n      jump\t// out\n        /* \"#utility.yul\":9997:10233   */\n    tag_447:\n        /* \"#utility.yul\":10137:10171   */\n      0x4d756c74695377617020526f757465723a2052656365697665722063616e6e6f\n        /* \"#utility.yul\":10133:10134   */\n      0x00\n        /* \"#utility.yul\":10125:10131   */\n      dup3\n        /* \"#utility.yul\":10121:10135   */\n      add\n        /* \"#utility.yul\":10114:10172   */\n      mstore\n        /* \"#utility.yul\":10206:10225   */\n      0x74206265207a65726f2061646472657373000000000000000000000000000000\n        /* \"#utility.yul\":10201:10203   */\n      0x20\n        /* \"#utility.yul\":10193:10199   */\n      dup3\n        /* \"#utility.yul\":10189:10204   */\n      add\n        /* \"#utility.yul\":10182:10226   */\n      mstore\n        /* \"#utility.yul\":9997:10233   */\n      pop\n      jump\t// out\n        /* \"#utility.yul\":10239:10605   */\n    tag_448:\n        /* \"#utility.yul\":10381:10384   */\n      0x00\n        /* \"#utility.yul\":10402:10469   */\n      tag_654\n        /* \"#utility.yul\":10466:10468   */\n      0x31\n        /* \"#utility.yul\":10461:10464   */\n      dup4\n        /* \"#utility.yul\":10402:10469   */\n      tag_418\n      jump\t// in\n    tag_654:\n        /* \"#utility.yul\":10395:10469   */\n      swap2\n      pop\n        /* \"#utility.yul\":10478:10571   */\n      tag_655\n        /* \"#utility.yul\":10567:10570   */\n      dup3\n        /* \"#utility.yul\":10478:10571   */\n      tag_447\n      jump\t// in\n    tag_655:\n        /* \"#utility.yul\":10596:10598   */\n      0x40\n        /* \"#utility.yul\":10591:10594   */\n      dup3\n        /* \"#utility.yul\":10587:10599   */\n      add\n        /* \"#utility.yul\":10580:10599   */\n      swap1\n      pop\n        /* \"#utility.yul\":10239:10605   */\n      swap2\n      swap1\n      pop\n      jump\t// out\n        /* \"#utility.yul\":10611:11030   */\n    tag_38:\n        /* \"#utility.yul\":10777:10781   */\n      0x00\n        /* \"#utility.yul\":10815:10817   */\n      0x20\n        /* \"#utility.yul\":10804:10813   */\n      dup3\n        /* \"#utility.yul\":10800:10818   */\n      add\n        /* \"#utility.yul\":10792:10818   */\n      swap1\n      pop\n        /* \"#utility.yul\":10864:10873   */\n      dup2\n        /* \"#utility.yul\":10858:10862   */\n      dup2\n        /* \"#utility.yul\":10854:10874   */\n      sub\n        /* \"#utility.yul\":10850:10851   */\n      0x00\n        /* \"#utility.yul\":10839:10848   */\n      dup4\n        /* \"#utility.yul\":10835:10852   */\n      add\n        /* \"#utility.yul\":10828:10875   */\n      mstore\n        /* \"#utility.yul\":10892:11023   */\n      tag_657\n        /* \"#utility.yul\":11018:11022   */\n      dup2\n        /* \"#utility.yul\":10892:11023   */\n      tag_448\n      jump\t// in\n    tag_657:\n        /* \"#utility.yul\":10884:11023   */\n      swap1\n      pop\n        /* \"#utility.yul\":10611:11030   */\n      swap2\n      swap1\n      pop\n      jump\t// out\n        /* \"#utility.yul\":11036:11216   */\n    tag_449:\n        /* \"#utility.yul\":11176:11208   */\n      0x4d756c74695377617020526f757465723a2062616420736c6970706167650000\n        /* \"#utility.yul\":11172:11173   */\n      0x00\n        /* \"#utility.yul\":11164:11170   */\n      dup3\n        /* \"#utility.yul\":11160:11174   */\n      add\n        /* \"#utility.yul\":11153:11209   */\n      mstore\n        /* \"#utility.yul\":11036:11216   */\n      pop\n      jump\t// out\n        /* \"#utility.yul\":11222:11588   */\n    tag_450:\n        /* \"#utility.yul\":11364:11367   */\n      0x00\n        /* \"#utility.yul\":11385:11452   */\n      tag_660\n        /* \"#utility.yul\":11449:11451   */\n      0x1e\n        /* \"#utility.yul\":11444:11447   */\n      dup4\n        /* \"#utility.yul\":11385:11452   */\n      tag_418\n      jump\t// in\n    tag_660:\n        /* \"#utility.yul\":11378:11452   */\n      swap2\n      pop\n        /* \"#utility.yul\":11461:11554   */\n      tag_661\n        /* \"#utility.yul\":11550:11553   */\n      dup3\n        /* \"#utility.yul\":11461:11554   */\n      tag_449\n      jump\t// in\n    tag_661:\n        /* \"#utility.yul\":11579:11581   */\n      0x20\n        /* \"#utility.yul\":11574:11577   */\n      dup3\n        /* \"#utility.yul\":11570:11582   */\n      add\n        /* \"#utility.yul\":11563:11582   */\n      swap1\n      pop\n        /* \"#utility.yul\":11222:11588   */\n      swap2\n      swap1\n      pop\n      jump\t// out\n        /* \"#utility.yul\":11594:12013   */\n    tag_41:\n        /* \"#utility.yul\":11760:11764   */\n      0x00\n        /* \"#utility.yul\":11798:11800   */\n      0x20\n        /* \"#utility.yul\":11787:11796   */\n      dup3\n        /* \"#utility.yul\":11783:11801   */\n      add\n        /* \"#utility.yul\":11775:11801   */\n      swap1\n      pop\n        /* \"#utility.yul\":11847:11856   */\n      dup2\n        /* \"#utility.yul\":11841:11845   */\n      dup2\n        /* \"#utility.yul\":11837:11857   */\n      sub\n        /* \"#utility.yul\":11833:11834   */\n      0x00\n        /* \"#utility.yul\":11822:11831   */\n      dup4\n        /* \"#utility.yul\":11818:11835   */\n      add\n        /* \"#utility.yul\":11811:11858   */\n      mstore\n        /* \"#utility.yul\":11875:12006   */\n      tag_663\n        /* \"#utility.yul\":12001:12005   */\n      dup2\n        /* \"#utility.yul\":11875:12006   */\n      tag_450\n      jump\t// in\n    tag_663:\n        /* \"#utility.yul\":11867:12006   */\n      swap1\n      pop\n        /* \"#utility.yul\":11594:12013   */\n      swap2\n      swap1\n      pop\n      jump\t// out\n        /* \"#utility.yul\":12019:12239   */\n    tag_451:\n        /* \"#utility.yul\":12159:12193   */\n      0x4d756c74695377617020526f757465723a20646561646c696e65207061737365\n        /* \"#utility.yul\":12155:12156   */\n      0x00\n        /* \"#utility.yul\":12147:12153   */\n      dup3\n        /* \"#utility.yul\":12143:12157   */\n      add\n        /* \"#utility.yul\":12136:12194   */\n      mstore\n        /* \"#utility.yul\":12228:12231   */\n      0x6400000000000000000000000000000000000000000000000000000000000000\n        /* \"#utility.yul\":12223:12225   */\n      0x20\n        /* \"#utility.yul\":12215:12221   */\n      dup3\n        /* \"#utility.yul\":12211:12226   */\n      add\n        /* \"#utility.yul\":12204:12232   */\n      mstore\n        /* \"#utility.yul\":12019:12239   */\n      pop\n      jump\t// out\n        /* \"#utility.yul\":12245:12611   */\n    tag_452:\n        /* \"#utility.yul\":12387:12390   */\n      0x00\n        /* \"#utility.yul\":12408:12475   */\n      tag_666\n        /* \"#utility.yul\":12472:12474   */\n      0x21\n        /* \"#utility.yul\":12467:12470   */\n      dup4\n        /* \"#utility.yul\":12408:12475   */\n      tag_418\n      jump\t// in\n    tag_666:\n        /* \"#utility.yul\":12401:12475   */\n      swap2\n      pop\n        /* \"#utility.yul\":12484:12577   */\n      tag_667\n        /* \"#utility.yul\":12573:12576   */\n      dup3\n        /* \"#utility.yul\":12484:12577   */\n      tag_451\n      jump\t// in\n    tag_667:\n        /* \"#utility.yul\":12602:12604   */\n      0x40\n        /* \"#utility.yul\":12597:12600   */\n      dup3\n        /* \"#utility.yul\":12593:12605   */\n      add\n        /* \"#utility.yul\":12586:12605   */\n      swap1\n      pop\n        /* \"#utility.yul\":12245:12611   */\n      swap2\n      swap1\n      pop\n      jump\t// out\n        /* \"#utility.yul\":12617:13036   */\n    tag_44:\n        /* \"#utility.yul\":12783:12787   */\n      0x00\n        /* \"#utility.yul\":12821:12823   */\n      0x20\n        /* \"#utility.yul\":12810:12819   */\n      dup3\n        /* \"#utility.yul\":12806:12824   */\n      add\n        /* \"#utility.yul\":12798:12824   */\n      swap1\n      pop\n        /* \"#utility.yul\":12870:12879   */\n      dup2\n        /* \"#utility.yul\":12864:12868   */\n      dup2\n        /* \"#utility.yul\":12860:12880   */\n      sub\n        /* \"#utility.yul\":12856:12857   */\n      0x00\n        /* \"#utility.yul\":12845:12854   */\n      dup4\n        /* \"#utility.yul\":12841:12858   */\n      add\n        /* \"#utility.yul\":12834:12881   */\n      mstore\n        /* \"#utility.yul\":12898:13029   */\n      tag_669\n        /* \"#utility.yul\":13024:13028   */\n      dup2\n        /* \"#utility.yul\":12898:13029   */\n      tag_452\n      jump\t// in\n    tag_669:\n        /* \"#utility.yul\":12890:13029   */\n      swap1\n      pop\n        /* \"#utility.yul\":12617:13036   */\n      swap2\n      swap1\n      pop\n      jump\t// out\n        /* \"#utility.yul\":13042:13257   */\n    tag_453:\n        /* \"#utility.yul\":13172:13183   */\n      0x00\n        /* \"#utility.yul\":13206:13212   */\n      dup3\n        /* \"#utility.yul\":13201:13204   */\n      dup3\n        /* \"#utility.yul\":13194:13213   */\n      mstore\n        /* \"#utility.yul\":13246:13250   */\n      0x20\n        /* \"#utility.yul\":13241:13244   */\n      dup3\n        /* \"#utility.yul\":13237:13251   */\n      add\n        /* \"#utility.yul\":13222:13251   */\n      swap1\n      pop\n        /* \"#utility.yul\":13042:13257   */\n      swap3\n      swap2\n      pop\n      pop\n      jump\t// out\n        /* \"#utility.yul\":13263:13398   */\n    tag_454:\n        /* \"#utility.yul\":13365:13369   */\n      0x00\n        /* \"#utility.yul\":13388:13391   */\n      dup2\n        /* \"#utility.yul\":13380:13391   */\n      swap1\n      pop\n        /* \"#utility.yul\":13263:13398   */\n      swap2\n      swap1\n      pop\n      jump\t// out\n        /* \"#utility.yul\":13404:13526   */\n    tag_455:\n        /* \"#utility.yul\":13456:13461   */\n      0x00\n        /* \"#utility.yul\":13481:13520   */\n      tag_673\n        /* \"#utility.yul\":13516:13518   */\n      0x20\n        /* \"#utility.yul\":13511:13514   */\n      dup5\n        /* \"#utility.yul\":13507:13519   */\n      add\n        /* \"#utility.yul\":13502:13505   */\n      dup5\n        /* \"#utility.yul\":13481:13520   */\n      tag_432\n      jump\t// in\n    tag_673:\n        /* \"#utility.yul\":13472:13520   */\n      swap1\n      pop\n        /* \"#utility.yul\":13404:13526   */\n      swap3\n      swap2\n      pop\n      pop\n      jump\t// out\n        /* \"#utility.yul\":13532:13640   */\n    tag_456:\n        /* \"#utility.yul\":13609:13633   */\n      tag_675\n        /* \"#utility.yul\":13627:13632   */\n      dup2\n        /* \"#utility.yul\":13609:13633   */\n      tag_430\n      jump\t// in\n    tag_675:\n        /* \"#utility.yul\":13604:13607   */\n      dup3\n        /* \"#utility.yul\":13597:13634   */\n      mstore\n        /* \"#utility.yul\":13532:13640   */\n      pop\n      pop\n      jump\t// out\n        /* \"#utility.yul\":13646:13768   */\n    tag_457:\n        /* \"#utility.yul\":13698:13703   */\n      0x00\n        /* \"#utility.yul\":13723:13762   */\n      tag_677\n        /* \"#utility.yul\":13758:13760   */\n      0x20\n        /* \"#utility.yul\":13753:13756   */\n      dup5\n        /* \"#utility.yul\":13749:13761   */\n      add\n        /* \"#utility.yul\":13744:13747   */\n      dup5\n        /* \"#utility.yul\":13723:13762   */\n      tag_435\n      jump\t// in\n    tag_677:\n        /* \"#utility.yul\":13714:13762   */\n      swap1\n      pop\n        /* \"#utility.yul\":13646:13768   */\n      swap3\n      swap2\n      pop\n      pop\n      jump\t// out\n        /* \"#utility.yul\":13774:13882   */\n    tag_458:\n        /* \"#utility.yul\":13851:13875   */\n      tag_679\n        /* \"#utility.yul\":13869:13874   */\n      dup2\n        /* \"#utility.yul\":13851:13875   */\n      tag_433\n      jump\t// in\n    tag_679:\n        /* \"#utility.yul\":13846:13849   */\n      dup3\n        /* \"#utility.yul\":13839:13876   */\n      mstore\n        /* \"#utility.yul\":13774:13882   */\n      pop\n      pop\n      jump\t// out\n        /* \"#utility.yul\":13942:14517   */\n    tag_459:\n        /* \"#utility.yul\":14093:14097   */\n      0x40\n        /* \"#utility.yul\":14088:14091   */\n      dup3\n        /* \"#utility.yul\":14084:14098   */\n      add\n        /* \"#utility.yul\":14171:14221   */\n      tag_681\n        /* \"#utility.yul\":14215:14219   */\n      0x00\n        /* \"#utility.yul\":14208:14213   */\n      dup4\n        /* \"#utility.yul\":14204:14220   */\n      add\n        /* \"#utility.yul\":14197:14202   */\n      dup4\n        /* \"#utility.yul\":14171:14221   */\n      tag_455\n      jump\t// in\n    tag_681:\n        /* \"#utility.yul\":14234:14297   */\n      tag_682\n        /* \"#utility.yul\":14291:14295   */\n      0x00\n        /* \"#utility.yul\":14286:14289   */\n      dup6\n        /* \"#utility.yul\":14282:14296   */\n      add\n        /* \"#utility.yul\":14268:14280   */\n      dup3\n        /* \"#utility.yul\":14234:14297   */\n      tag_456\n      jump\t// in\n    tag_682:\n        /* \"#utility.yul\":14108:14307   */\n      pop\n        /* \"#utility.yul\":14374:14424   */\n      tag_683\n        /* \"#utility.yul\":14418:14422   */\n      0x20\n        /* \"#utility.yul\":14411:14416   */\n      dup4\n        /* \"#utility.yul\":14407:14423   */\n      add\n        /* \"#utility.yul\":14400:14405   */\n      dup4\n        /* \"#utility.yul\":14374:14424   */\n      tag_457\n      jump\t// in\n    tag_683:\n        /* \"#utility.yul\":14437:14500   */\n      tag_684\n        /* \"#utility.yul\":14494:14498   */\n      0x20\n        /* \"#utility.yul\":14489:14492   */\n      dup6\n        /* \"#utility.yul\":14485:14499   */\n      add\n        /* \"#utility.yul\":14471:14483   */\n      dup3\n        /* \"#utility.yul\":14437:14500   */\n      tag_458\n      jump\t// in\n    tag_684:\n        /* \"#utility.yul\":14317:14510   */\n      pop\n        /* \"#utility.yul\":14062:14517   */\n      pop\n        /* \"#utility.yul\":13942:14517   */\n      pop\n      pop\n      jump\t// out\n        /* \"#utility.yul\":14523:14830   */\n    tag_460:\n        /* \"#utility.yul\":14656:14666   */\n      0x00\n        /* \"#utility.yul\":14677:14787   */\n      tag_686\n        /* \"#utility.yul\":14783:14786   */\n      dup4\n        /* \"#utility.yul\":14775:14781   */\n      dup4\n        /* \"#utility.yul\":14677:14787   */\n      tag_459\n      jump\t// in\n    tag_686:\n        /* \"#utility.yul\":14819:14823   */\n      0x40\n        /* \"#utility.yul\":14814:14817   */\n      dup4\n        /* \"#utility.yul\":14810:14824   */\n      add\n        /* \"#utility.yul\":14796:14824   */\n      swap1\n      pop\n        /* \"#utility.yul\":14523:14830   */\n      swap3\n      swap2\n      pop\n      pop\n      jump\t// out\n        /* \"#utility.yul\":14836:14955   */\n    tag_461:\n        /* \"#utility.yul\":14921:14926   */\n      0x00\n        /* \"#utility.yul\":14946:14949   */\n      dup3\n        /* \"#utility.yul\":14937:14949   */\n      swap1\n      pop\n        /* \"#utility.yul\":14836:14955   */\n      swap3\n      swap2\n      pop\n      pop\n      jump\t// out\n        /* \"#utility.yul\":14961:15109   */\n    tag_462:\n        /* \"#utility.yul\":15066:15070   */\n      0x00\n        /* \"#utility.yul\":15098:15102   */\n      0x40\n        /* \"#utility.yul\":15093:15096   */\n      dup3\n        /* \"#utility.yul\":15089:15103   */\n      add\n        /* \"#utility.yul\":15081:15103   */\n      swap1\n      pop\n        /* \"#utility.yul\":14961:15109   */\n      swap2\n      swap1\n      pop\n      jump\t// out\n        /* \"#utility.yul\":15173:16130   */\n    tag_463:\n        /* \"#utility.yul\":15366:15369   */\n      0x00\n        /* \"#utility.yul\":15389:15506   */\n      tag_690\n        /* \"#utility.yul\":15499:15505   */\n      dup4\n        /* \"#utility.yul\":15494:15497   */\n      dup6\n        /* \"#utility.yul\":15389:15506   */\n      tag_453\n      jump\t// in\n    tag_690:\n        /* \"#utility.yul\":15382:15506   */\n      swap4\n      pop\n        /* \"#utility.yul\":15530:15621   */\n      tag_691\n        /* \"#utility.yul\":15615:15620   */\n      dup3\n        /* \"#utility.yul\":15530:15621   */\n      tag_454\n      jump\t// in\n    tag_691:\n        /* \"#utility.yul\":15644:15651   */\n      dup1\n        /* \"#utility.yul\":15675:15676   */\n      0x00\n        /* \"#utility.yul\":15660:16105   */\n    tag_692:\n        /* \"#utility.yul\":15685:15691   */\n      dup6\n        /* \"#utility.yul\":15682:15683   */\n      dup2\n        /* \"#utility.yul\":15679:15692   */\n      lt\n        /* \"#utility.yul\":15660:16105   */\n      iszero\n      tag_694\n      jumpi\n        /* \"#utility.yul\":15755:15830   */\n      tag_695\n        /* \"#utility.yul\":15823:15829   */\n      dup3\n        /* \"#utility.yul\":15814:15821   */\n      dup5\n        /* \"#utility.yul\":15755:15830   */\n      tag_461\n      jump\t// in\n    tag_695:\n        /* \"#utility.yul\":15850:15977   */\n      tag_696\n        /* \"#utility.yul\":15973:15976   */\n      dup9\n        /* \"#utility.yul\":15958:15971   */\n      dup3\n        /* \"#utility.yul\":15850:15977   */\n      tag_460\n      jump\t// in\n    tag_696:\n        /* \"#utility.yul\":15843:15977   */\n      swap8\n      pop\n        /* \"#utility.yul\":16000:16095   */\n      tag_697\n        /* \"#utility.yul\":16088:16094   */\n      dup4\n        /* \"#utility.yul\":16000:16095   */\n      tag_462\n      jump\t// in\n    tag_697:\n        /* \"#utility.yul\":15990:16095   */\n      swap3\n      pop\n        /* \"#utility.yul\":15720:16105   */\n      pop\n        /* \"#utility.yul\":15707:15708   */\n      0x01\n        /* \"#utility.yul\":15704:15705   */\n      dup2\n        /* \"#utility.yul\":15700:15709   */\n      add\n        /* \"#utility.yul\":15695:15709   */\n      swap1\n      pop\n        /* \"#utility.yul\":15660:16105   */\n      jump(tag_692)\n    tag_694:\n        /* \"#utility.yul\":15664:15678   */\n      pop\n        /* \"#utility.yul\":16121:16124   */\n      dup6\n        /* \"#utility.yul\":16114:16124   */\n      swap3\n      pop\n        /* \"#utility.yul\":15371:16130   */\n      pop\n      pop\n        /* \"#utility.yul\":15173:16130   */\n      swap4\n      swap3\n      pop\n      pop\n      pop\n      jump\t// out\n        /* \"#utility.yul\":16136:16352   */\n    tag_464:\n        /* \"#utility.yul\":16267:16278   */\n      0x00\n        /* \"#utility.yul\":16301:16307   */\n      dup3\n        /* \"#utility.yul\":16296:16299   */\n      dup3\n        /* \"#utility.yul\":16289:16308   */\n      mstore\n        /* \"#utility.yul\":16341:16345   */\n      0x20\n        /* \"#utility.yul\":16336:16339   */\n      dup3\n        /* \"#utility.yul\":16332:16346   */\n      add\n        /* \"#utility.yul\":16317:16346   */\n      swap1\n      pop\n        /* \"#utility.yul\":16136:16352   */\n      swap3\n      swap2\n      pop\n      pop\n      jump\t// out\n        /* \"#utility.yul\":16358:16494   */\n    tag_465:\n        /* \"#utility.yul\":16461:16465   */\n      0x00\n        /* \"#utility.yul\":16484:16487   */\n      dup2\n        /* \"#utility.yul\":16476:16487   */\n      swap1\n      pop\n        /* \"#utility.yul\":16358:16494   */\n      swap2\n      swap1\n      pop\n      jump\t// out\n        /* \"#utility.yul\":16500:16589   */\n    tag_466:\n        /* \"#utility.yul\":16536:16543   */\n      0x00\n        /* \"#utility.yul\":16576:16582   */\n      0xffff\n        /* \"#utility.yul\":16569:16574   */\n      dup3\n        /* \"#utility.yul\":16565:16583   */\n      and\n        /* \"#utility.yul\":16554:16583   */\n      swap1\n      pop\n        /* \"#utility.yul\":16500:16589   */\n      swap2\n      swap1\n      pop\n      jump\t// out\n        /* \"#utility.yul\":16595:16715   */\n    tag_467:\n        /* \"#utility.yul\":16667:16690   */\n      tag_702\n        /* \"#utility.yul\":16684:16689   */\n      dup2\n        /* \"#utility.yul\":16667:16690   */\n      tag_466\n      jump\t// in\n    tag_702:\n        /* \"#utility.yul\":16660:16665   */\n      dup2\n        /* \"#utility.yul\":16657:16691   */\n      eq\n        /* \"#utility.yul\":16647:16709   */\n      tag_703\n      jumpi\n        /* \"#utility.yul\":16705:16706   */\n      0x00\n        /* \"#utility.yul\":16702:16703   */\n      0x00\n        /* \"#utility.yul\":16695:16707   */\n      revert\n        /* \"#utility.yul\":16647:16709   */\n    tag_703:\n        /* \"#utility.yul\":16595:16715   */\n      pop\n      jump\t// out\n        /* \"#utility.yul\":16721:16858   */\n    tag_468:\n        /* \"#utility.yul\":16766:16771   */\n      0x00\n        /* \"#utility.yul\":16804:16810   */\n      dup2\n        /* \"#utility.yul\":16791:16811   */\n      calldataload\n        /* \"#utility.yul\":16782:16811   */\n      swap1\n      pop\n        /* \"#utility.yul\":16820:16852   */\n      tag_705\n        /* \"#utility.yul\":16846:16851   */\n      dup2\n        /* \"#utility.yul\":16820:16852   */\n      tag_467\n      jump\t// in\n    tag_705:\n        /* \"#utility.yul\":16721:16858   */\n      swap3\n      swap2\n      pop\n      pop\n      jump\t// out\n        /* \"#utility.yul\":16864:16984   */\n    tag_469:\n        /* \"#utility.yul\":16915:16920   */\n      0x00\n        /* \"#utility.yul\":16940:16978   */\n      tag_707\n        /* \"#utility.yul\":16974:16976   */\n      0x20\n        /* \"#utility.yul\":16969:16972   */\n      dup5\n        /* \"#utility.yul\":16965:16977   */\n      add\n        /* \"#utility.yul\":16960:16963   */\n      dup5\n        /* \"#utility.yul\":16940:16978   */\n      tag_468\n      jump\t// in\n    tag_707:\n        /* \"#utility.yul\":16931:16978   */\n      swap1\n      pop\n        /* \"#utility.yul\":16864:16984   */\n      swap3\n      swap2\n      pop\n      pop\n      jump\t// out\n        /* \"#utility.yul\":16990:17095   */\n    tag_470:\n        /* \"#utility.yul\":17065:17088   */\n      tag_709\n        /* \"#utility.yul\":17082:17087   */\n      dup2\n        /* \"#utility.yul\":17065:17088   */\n      tag_466\n      jump\t// in\n    tag_709:\n        /* \"#utility.yul\":17060:17063   */\n      dup3\n        /* \"#utility.yul\":17053:17089   */\n      mstore\n        /* \"#utility.yul\":16990:17095   */\n      pop\n      pop\n      jump\t// out\n        /* \"#utility.yul\":17157:17735   */\n    tag_471:\n        /* \"#utility.yul\":17310:17314   */\n      0x40\n        /* \"#utility.yul\":17305:17308   */\n      dup3\n        /* \"#utility.yul\":17301:17315   */\n      add\n        /* \"#utility.yul\":17388:17438   */\n      tag_711\n        /* \"#utility.yul\":17432:17436   */\n      0x00\n        /* \"#utility.yul\":17425:17430   */\n      dup4\n        /* \"#utility.yul\":17421:17437   */\n      add\n        /* \"#utility.yul\":17414:17419   */\n      dup4\n        /* \"#utility.yul\":17388:17438   */\n      tag_455\n      jump\t// in\n    tag_711:\n        /* \"#utility.yul\":17451:17514   */\n      tag_712\n        /* \"#utility.yul\":17508:17512   */\n      0x00\n        /* \"#utility.yul\":17503:17506   */\n      dup6\n        /* \"#utility.yul\":17499:17513   */\n      add\n        /* \"#utility.yul\":17485:17497   */\n      dup3\n        /* \"#utility.yul\":17451:17514   */\n      tag_456\n      jump\t// in\n    tag_712:\n        /* \"#utility.yul\":17325:17524   */\n      pop\n        /* \"#utility.yul\":17595:17644   */\n      tag_713\n        /* \"#utility.yul\":17638:17642   */\n      0x20\n        /* \"#utility.yul\":17631:17636   */\n      dup4\n        /* \"#utility.yul\":17627:17643   */\n      add\n        /* \"#utility.yul\":17620:17625   */\n      dup4\n        /* \"#utility.yul\":17595:17644   */\n      tag_469\n      jump\t// in\n    tag_713:\n        /* \"#utility.yul\":17657:17718   */\n      tag_714\n        /* \"#utility.yul\":17712:17716   */\n      0x20\n        /* \"#utility.yul\":17707:17710   */\n      dup6\n        /* \"#utility.yul\":17703:17717   */\n      add\n        /* \"#utility.yul\":17689:17701   */\n      dup3\n        /* \"#utility.yul\":17657:17718   */\n      tag_470\n      jump\t// in\n    tag_714:\n        /* \"#utility.yul\":17534:17728   */\n      pop\n        /* \"#utility.yul\":17279:17735   */\n      pop\n        /* \"#utility.yul\":17157:17735   */\n      pop\n      pop\n      jump\t// out\n        /* \"#utility.yul\":17741:18052   */\n    tag_472:\n        /* \"#utility.yul\":17876:17886   */\n      0x00\n        /* \"#utility.yul\":17897:18009   */\n      tag_716\n        /* \"#utility.yul\":18005:18008   */\n      dup4\n        /* \"#utility.yul\":17997:18003   */\n      dup4\n        /* \"#utility.yul\":17897:18009   */\n      tag_471\n      jump\t// in\n    tag_716:\n        /* \"#utility.yul\":18041:18045   */\n      0x40\n        /* \"#utility.yul\":18036:18039   */\n      dup4\n        /* \"#utility.yul\":18032:18046   */\n      add\n        /* \"#utility.yul\":18018:18046   */\n      swap1\n      pop\n        /* \"#utility.yul\":17741:18052   */\n      swap3\n      swap2\n      pop\n      pop\n      jump\t// out\n        /* \"#utility.yul\":18058:18178   */\n    tag_473:\n        /* \"#utility.yul\":18144:18149   */\n      0x00\n        /* \"#utility.yul\":18169:18172   */\n      dup3\n        /* \"#utility.yul\":18160:18172   */\n      swap1\n      pop\n        /* \"#utility.yul\":18058:18178   */\n      swap3\n      swap2\n      pop\n      pop\n      jump\t// out\n        /* \"#utility.yul\":18184:18333   */\n    tag_474:\n        /* \"#utility.yul\":18290:18294   */\n      0x00\n        /* \"#utility.yul\":18322:18326   */\n      0x40\n        /* \"#utility.yul\":18317:18320   */\n      dup3\n        /* \"#utility.yul\":18313:18327   */\n      add\n        /* \"#utility.yul\":18305:18327   */\n      swap1\n      pop\n        /* \"#utility.yul\":18184:18333   */\n      swap2\n      swap1\n      pop\n      jump\t// out\n        /* \"#utility.yul\":18399:19364   */\n    tag_475:\n        /* \"#utility.yul\":18594:18597   */\n      0x00\n        /* \"#utility.yul\":18617:18735   */\n      tag_720\n        /* \"#utility.yul\":18728:18734   */\n      dup4\n        /* \"#utility.yul\":18723:18726   */\n      dup6\n        /* \"#utility.yul\":18617:18735   */\n      tag_464\n      jump\t// in\n    tag_720:\n        /* \"#utility.yul\":18610:18735   */\n      swap4\n      pop\n        /* \"#utility.yul\":18759:18851   */\n      tag_721\n        /* \"#utility.yul\":18845:18850   */\n      dup3\n        /* \"#utility.yul\":18759:18851   */\n      tag_465\n      jump\t// in\n    tag_721:\n        /* \"#utility.yul\":18874:18881   */\n      dup1\n        /* \"#utility.yul\":18905:18906   */\n      0x00\n        /* \"#utility.yul\":18890:19339   */\n    tag_722:\n        /* \"#utility.yul\":18915:18921   */\n      dup6\n        /* \"#utility.yul\":18912:18913   */\n      dup2\n        /* \"#utility.yul\":18909:18922   */\n      lt\n        /* \"#utility.yul\":18890:19339   */\n      iszero\n      tag_724\n      jumpi\n        /* \"#utility.yul\":18985:19061   */\n      tag_725\n        /* \"#utility.yul\":19054:19060   */\n      dup3\n        /* \"#utility.yul\":19045:19052   */\n      dup5\n        /* \"#utility.yul\":18985:19061   */\n      tag_473\n      jump\t// in\n    tag_725:\n        /* \"#utility.yul\":19081:19210   */\n      tag_726\n        /* \"#utility.yul\":19206:19209   */\n      dup9\n        /* \"#utility.yul\":19191:19204   */\n      dup3\n        /* \"#utility.yul\":19081:19210   */\n      tag_472\n      jump\t// in\n    tag_726:\n        /* \"#utility.yul\":19074:19210   */\n      swap8\n      pop\n        /* \"#utility.yul\":19233:19329   */\n      tag_727\n        /* \"#utility.yul\":19322:19328   */\n      dup4\n        /* \"#utility.yul\":19233:19329   */\n      tag_474\n      jump\t// in\n    tag_727:\n        /* \"#utility.yul\":19223:19329   */\n      swap3\n      pop\n        /* \"#utility.yul\":18950:19339   */\n      pop\n        /* \"#utility.yul\":18937:18938   */\n      0x01\n        /* \"#utility.yul\":18934:18935   */\n      dup2\n        /* \"#utility.yul\":18930:18939   */\n      add\n        /* \"#utility.yul\":18925:18939   */\n      swap1\n      pop\n        /* \"#utility.yul\":18890:19339   */\n      jump(tag_722)\n    tag_724:\n        /* \"#utility.yul\":18894:18908   */\n      pop\n        /* \"#utility.yul\":19355:19358   */\n      dup6\n        /* \"#utility.yul\":19348:19358   */\n      swap3\n      pop\n        /* \"#utility.yul\":18599:19364   */\n      pop\n      pop\n        /* \"#utility.yul\":18399:19364   */\n      swap4\n      swap3\n      pop\n      pop\n      pop\n      jump\t// out\n        /* \"#utility.yul\":19370:19488   */\n    tag_476:\n        /* \"#utility.yul\":19457:19481   */\n      tag_729\n        /* \"#utility.yul\":19475:19480   */\n      dup2\n        /* \"#utility.yul\":19457:19481   */\n      tag_433\n      jump\t// in\n    tag_729:\n        /* \"#utility.yul\":19452:19455   */\n      dup3\n        /* \"#utility.yul\":19445:19482   */\n      mstore\n        /* \"#utility.yul\":19370:19488   */\n      pop\n      pop\n      jump\t// out\n        /* \"#utility.yul\":19494:19702   */\n    tag_477:\n        /* \"#utility.yul\":19617:19628   */\n      0x00\n        /* \"#utility.yul\":19651:19657   */\n      dup3\n        /* \"#utility.yul\":19646:19649   */\n      dup3\n        /* \"#utility.yul\":19639:19658   */\n      mstore\n        /* \"#utility.yul\":19691:19695   */\n      0x20\n        /* \"#utility.yul\":19686:19689   */\n      dup3\n        /* \"#utility.yul\":19682:19696   */\n      add\n        /* \"#utility.yul\":19667:19696   */\n      swap1\n      pop\n        /* \"#utility.yul\":19494:19702   */\n      swap3\n      swap2\n      pop\n      pop\n      jump\t// out\n        /* \"#utility.yul\":19708:19836   */\n    tag_478:\n        /* \"#utility.yul\":19803:19807   */\n      0x00\n        /* \"#utility.yul\":19826:19829   */\n      dup2\n        /* \"#utility.yul\":19818:19829   */\n      swap1\n      pop\n        /* \"#utility.yul\":19708:19836   */\n      swap2\n      swap1\n      pop\n      jump\t// out\n        /* \"#utility.yul\":19882:20439   */\n    tag_479:\n        /* \"#utility.yul\":20019:20023   */\n      0x40\n        /* \"#utility.yul\":20014:20017   */\n      dup3\n        /* \"#utility.yul\":20010:20024   */\n      add\n        /* \"#utility.yul\":20095:20145   */\n      tag_733\n        /* \"#utility.yul\":20139:20143   */\n      0x00\n        /* \"#utility.yul\":20132:20137   */\n      dup4\n        /* \"#utility.yul\":20128:20144   */\n      add\n        /* \"#utility.yul\":20121:20126   */\n      dup4\n        /* \"#utility.yul\":20095:20145   */\n      tag_455\n      jump\t// in\n    tag_733:\n        /* \"#utility.yul\":20158:20221   */\n      tag_734\n        /* \"#utility.yul\":20215:20219   */\n      0x00\n        /* \"#utility.yul\":20210:20213   */\n      dup6\n        /* \"#utility.yul\":20206:20220   */\n      add\n        /* \"#utility.yul\":20192:20204   */\n      dup3\n        /* \"#utility.yul\":20158:20221   */\n      tag_456\n      jump\t// in\n    tag_734:\n        /* \"#utility.yul\":20034:20231   */\n      pop\n        /* \"#utility.yul\":20299:20348   */\n      tag_735\n        /* \"#utility.yul\":20342:20346   */\n      0x20\n        /* \"#utility.yul\":20335:20340   */\n      dup4\n        /* \"#utility.yul\":20331:20347   */\n      add\n        /* \"#utility.yul\":20324:20329   */\n      dup4\n        /* \"#utility.yul\":20299:20348   */\n      tag_469\n      jump\t// in\n    tag_735:\n        /* \"#utility.yul\":20361:20422   */\n      tag_736\n        /* \"#utility.yul\":20416:20420   */\n      0x20\n        /* \"#utility.yul\":20411:20414   */\n      dup6\n        /* \"#utility.yul\":20407:20421   */\n      add\n        /* \"#utility.yul\":20393:20405   */\n      dup3\n        /* \"#utility.yul\":20361:20422   */\n      tag_470\n      jump\t// in\n    tag_736:\n        /* \"#utility.yul\":20241:20432   */\n      pop\n        /* \"#utility.yul\":19988:20439   */\n      pop\n        /* \"#utility.yul\":19882:20439   */\n      pop\n      pop\n      jump\t// out\n        /* \"#utility.yul\":20445:20724   */\n    tag_480:\n        /* \"#utility.yul\":20564:20574   */\n      0x00\n        /* \"#utility.yul\":20585:20681   */\n      tag_738\n        /* \"#utility.yul\":20677:20680   */\n      dup4\n        /* \"#utility.yul\":20669:20675   */\n      dup4\n        /* \"#utility.yul\":20585:20681   */\n      tag_479\n      jump\t// in\n    tag_738:\n        /* \"#utility.yul\":20713:20717   */\n      0x40\n        /* \"#utility.yul\":20708:20711   */\n      dup4\n        /* \"#utility.yul\":20704:20718   */\n      add\n        /* \"#utility.yul\":20690:20718   */\n      swap1\n      pop\n        /* \"#utility.yul\":20445:20724   */\n      swap3\n      swap2\n      pop\n      pop\n      jump\t// out\n        /* \"#utility.yul\":20730:20842   */\n    tag_481:\n        /* \"#utility.yul\":20808:20813   */\n      0x00\n        /* \"#utility.yul\":20833:20836   */\n      dup3\n        /* \"#utility.yul\":20824:20836   */\n      swap1\n      pop\n        /* \"#utility.yul\":20730:20842   */\n      swap3\n      swap2\n      pop\n      pop\n      jump\t// out\n        /* \"#utility.yul\":20848:20989   */\n    tag_482:\n        /* \"#utility.yul\":20946:20950   */\n      0x00\n        /* \"#utility.yul\":20978:20982   */\n      0x40\n        /* \"#utility.yul\":20973:20976   */\n      dup3\n        /* \"#utility.yul\":20969:20983   */\n      add\n        /* \"#utility.yul\":20961:20983   */\n      swap1\n      pop\n        /* \"#utility.yul\":20848:20989   */\n      swap2\n      swap1\n      pop\n      jump\t// out\n        /* \"#utility.yul\":21039:21940   */\n    tag_483:\n        /* \"#utility.yul\":21218:21221   */\n      0x00\n        /* \"#utility.yul\":21241:21351   */\n      tag_742\n        /* \"#utility.yul\":21344:21350   */\n      dup4\n        /* \"#utility.yul\":21339:21342   */\n      dup6\n        /* \"#utility.yul\":21241:21351   */\n      tag_477\n      jump\t// in\n    tag_742:\n        /* \"#utility.yul\":21234:21351   */\n      swap4\n      pop\n        /* \"#utility.yul\":21375:21459   */\n      tag_743\n        /* \"#utility.yul\":21453:21458   */\n      dup3\n        /* \"#utility.yul\":21375:21459   */\n      tag_478\n      jump\t// in\n    tag_743:\n        /* \"#utility.yul\":21482:21489   */\n      dup1\n        /* \"#utility.yul\":21513:21514   */\n      0x00\n        /* \"#utility.yul\":21498:21915   */\n    tag_744:\n        /* \"#utility.yul\":21523:21529   */\n      dup6\n        /* \"#utility.yul\":21520:21521   */\n      dup2\n        /* \"#utility.yul\":21517:21530   */\n      lt\n        /* \"#utility.yul\":21498:21915   */\n      iszero\n      tag_746\n      jumpi\n        /* \"#utility.yul\":21593:21661   */\n      tag_747\n        /* \"#utility.yul\":21654:21660   */\n      dup3\n        /* \"#utility.yul\":21645:21652   */\n      dup5\n        /* \"#utility.yul\":21593:21661   */\n      tag_481\n      jump\t// in\n    tag_747:\n        /* \"#utility.yul\":21681:21794   */\n      tag_748\n        /* \"#utility.yul\":21790:21793   */\n      dup9\n        /* \"#utility.yul\":21775:21788   */\n      dup3\n        /* \"#utility.yul\":21681:21794   */\n      tag_480\n      jump\t// in\n    tag_748:\n        /* \"#utility.yul\":21674:21794   */\n      swap8\n      pop\n        /* \"#utility.yul\":21817:21905   */\n      tag_749\n        /* \"#utility.yul\":21898:21904   */\n      dup4\n        /* \"#utility.yul\":21817:21905   */\n      tag_482\n      jump\t// in\n    tag_749:\n        /* \"#utility.yul\":21807:21905   */\n      swap3\n      pop\n        /* \"#utility.yul\":21558:21915   */\n      pop\n        /* \"#utility.yul\":21545:21546   */\n      0x01\n        /* \"#utility.yul\":21542:21543   */\n      dup2\n        /* \"#utility.yul\":21538:21547   */\n      add\n        /* \"#utility.yul\":21533:21547   */\n      swap1\n      pop\n        /* \"#utility.yul\":21498:21915   */\n      jump(tag_744)\n    tag_746:\n        /* \"#utility.yul\":21502:21516   */\n      pop\n        /* \"#utility.yul\":21931:21934   */\n      dup6\n        /* \"#utility.yul\":21924:21934   */\n      swap3\n      pop\n        /* \"#utility.yul\":21223:21940   */\n      pop\n      pop\n        /* \"#utility.yul\":21039:21940   */\n      swap4\n      swap3\n      pop\n      pop\n      pop\n      jump\t// out\n        /* \"#utility.yul\":21946:23483   */\n    tag_58:\n        /* \"#utility.yul\":22511:22515   */\n      0x00\n        /* \"#utility.yul\":22549:22552   */\n      0xa0\n        /* \"#utility.yul\":22538:22547   */\n      dup3\n        /* \"#utility.yul\":22534:22553   */\n      add\n        /* \"#utility.yul\":22526:22553   */\n      swap1\n      pop\n        /* \"#utility.yul\":22599:22608   */\n      dup2\n        /* \"#utility.yul\":22593:22597   */\n      dup2\n        /* \"#utility.yul\":22589:22609   */\n      sub\n        /* \"#utility.yul\":22585:22586   */\n      0x00\n        /* \"#utility.yul\":22574:22583   */\n      dup4\n        /* \"#utility.yul\":22570:22587   */\n      add\n        /* \"#utility.yul\":22563:22610   */\n      mstore\n        /* \"#utility.yul\":22627:22809   */\n      tag_751\n        /* \"#utility.yul\":22804:22808   */\n      dup2\n        /* \"#utility.yul\":22795:22801   */\n      dup11\n        /* \"#utility.yul\":22787:22793   */\n      dup13\n        /* \"#utility.yul\":22627:22809   */\n      tag_463\n      jump\t// in\n    tag_751:\n        /* \"#utility.yul\":22619:22809   */\n      swap1\n      pop\n        /* \"#utility.yul\":22856:22865   */\n      dup2\n        /* \"#utility.yul\":22850:22854   */\n      dup2\n        /* \"#utility.yul\":22846:22866   */\n      sub\n        /* \"#utility.yul\":22841:22843   */\n      0x20\n        /* \"#utility.yul\":22830:22839   */\n      dup4\n        /* \"#utility.yul\":22826:22844   */\n      add\n        /* \"#utility.yul\":22819:22867   */\n      mstore\n        /* \"#utility.yul\":22884:23068   */\n      tag_752\n        /* \"#utility.yul\":23063:23067   */\n      dup2\n        /* \"#utility.yul\":23054:23060   */\n      dup9\n        /* \"#utility.yul\":23046:23052   */\n      dup11\n        /* \"#utility.yul\":22884:23068   */\n      tag_475\n      jump\t// in\n    tag_752:\n        /* \"#utility.yul\":22876:23068   */\n      swap1\n      pop\n        /* \"#utility.yul\":23078:23150   */\n      tag_753\n        /* \"#utility.yul\":23146:23148   */\n      0x40\n        /* \"#utility.yul\":23135:23144   */\n      dup4\n        /* \"#utility.yul\":23131:23149   */\n      add\n        /* \"#utility.yul\":23122:23128   */\n      dup8\n        /* \"#utility.yul\":23078:23150   */\n      tag_476\n      jump\t// in\n    tag_753:\n        /* \"#utility.yul\":23160:23232   */\n      tag_754\n        /* \"#utility.yul\":23228:23230   */\n      0x60\n        /* \"#utility.yul\":23217:23226   */\n      dup4\n        /* \"#utility.yul\":23213:23231   */\n      add\n        /* \"#utility.yul\":23204:23210   */\n      dup7\n        /* \"#utility.yul\":23160:23232   */\n      tag_476\n      jump\t// in\n    tag_754:\n        /* \"#utility.yul\":23280:23289   */\n      dup2\n        /* \"#utility.yul\":23274:23278   */\n      dup2\n        /* \"#utility.yul\":23270:23290   */\n      sub\n        /* \"#utility.yul\":23264:23267   */\n      0x80\n        /* \"#utility.yul\":23253:23262   */\n      dup4\n        /* \"#utility.yul\":23249:23268   */\n      add\n        /* \"#utility.yul\":23242:23291   */\n      mstore\n        /* \"#utility.yul\":23308:23476   */\n      tag_755\n        /* \"#utility.yul\":23471:23475   */\n      dup2\n        /* \"#utility.yul\":23462:23468   */\n      dup5\n        /* \"#utility.yul\":23454:23460   */\n      dup7\n        /* \"#utility.yul\":23308:23476   */\n      tag_483\n      jump\t// in\n    tag_755:\n        /* \"#utility.yul\":23300:23476   */\n      swap1\n      pop\n        /* \"#utility.yul\":21946:23483   */\n      swap10\n      swap9\n      pop\n      pop\n      pop\n      pop\n      pop\n      pop\n      pop\n      pop\n      pop\n      jump\t// out\n        /* \"#utility.yul\":23489:23670   */\n    tag_484:\n        /* \"#utility.yul\":23629:23662   */\n      0x5265656e7472616e637947756172643a207265656e7472616e742063616c6c00\n        /* \"#utility.yul\":23625:23626   */\n      0x00\n        /* \"#utility.yul\":23617:23623   */\n      dup3\n        /* \"#utility.yul\":23613:23627   */\n      add\n        /* \"#utility.yul\":23606:23663   */\n      mstore\n        /* \"#utility.yul\":23489:23670   */\n      pop\n      jump\t// out\n        /* \"#utility.yul\":23676:24042   */\n    tag_485:\n        /* \"#utility.yul\":23818:23821   */\n      0x00\n        /* \"#utility.yul\":23839:23906   */\n      tag_758\n        /* \"#utility.yul\":23903:23905   */\n      0x1f\n        /* \"#utility.yul\":23898:23901   */\n      dup4\n        /* \"#utility.yul\":23839:23906   */\n      tag_418\n      jump\t// in\n    tag_758:\n        /* \"#utility.yul\":23832:23906   */\n      swap2\n      pop\n        /* \"#utility.yul\":23915:24008   */\n      tag_759\n        /* \"#utility.yul\":24004:24007   */\n      dup3\n        /* \"#utility.yul\":23915:24008   */\n      tag_484\n      jump\t// in\n    tag_759:\n        /* \"#utility.yul\":24033:24035   */\n      0x20\n        /* \"#utility.yul\":24028:24031   */\n      dup3\n        /* \"#utility.yul\":24024:24036   */\n      add\n        /* \"#utility.yul\":24017:24036   */\n      swap1\n      pop\n        /* \"#utility.yul\":23676:24042   */\n      swap2\n      swap1\n      pop\n      jump\t// out\n        /* \"#utility.yul\":24048:24467   */\n    tag_64:\n        /* \"#utility.yul\":24214:24218   */\n      0x00\n        /* \"#utility.yul\":24252:24254   */\n      0x20\n        /* \"#utility.yul\":24241:24250   */\n      dup3\n        /* \"#utility.yul\":24237:24255   */\n      add\n        /* \"#utility.yul\":24229:24255   */\n      swap1\n      pop\n        /* \"#utility.yul\":24301:24310   */\n      dup2\n        /* \"#utility.yul\":24295:24299   */\n      dup2\n        /* \"#utility.yul\":24291:24311   */\n      sub\n        /* \"#utility.yul\":24287:24288   */\n      0x00\n        /* \"#utility.yul\":24276:24285   */\n      dup4\n        /* \"#utility.yul\":24272:24289   */\n      add\n        /* \"#utility.yul\":24265:24312   */\n      mstore\n        /* \"#utility.yul\":24329:24460   */\n      tag_761\n        /* \"#utility.yul\":24455:24459   */\n      dup2\n        /* \"#utility.yul\":24329:24460   */\n      tag_485\n      jump\t// in\n    tag_761:\n        /* \"#utility.yul\":24321:24460   */\n      swap1\n      pop\n        /* \"#utility.yul\":24048:24467   */\n      swap2\n      swap1\n      pop\n      jump\t// out\n        /* \"#utility.yul\":24473:24653   */\n    tag_71:\n        /* \"#utility.yul\":24521:24598   */\n      0x4e487b7100000000000000000000000000000000000000000000000000000000\n        /* \"#utility.yul\":24518:24519   */\n      0x00\n        /* \"#utility.yul\":24511:24599   */\n      mstore\n        /* \"#utility.yul\":24618:24622   */\n      0x32\n        /* \"#utility.yul\":24615:24616   */\n      0x04\n        /* \"#utility.yul\":24608:24623   */\n      mstore\n        /* \"#utility.yul\":24642:24646   */\n      0x24\n        /* \"#utility.yul\":24639:24640   */\n      0x00\n        /* \"#utility.yul\":24632:24647   */\n      revert\n        /* \"#utility.yul\":24659:24988   */\n    tag_73:\n        /* \"#utility.yul\":24718:24724   */\n      0x00\n        /* \"#utility.yul\":24767:24769   */\n      0x20\n        /* \"#utility.yul\":24755:24764   */\n      dup3\n        /* \"#utility.yul\":24746:24753   */\n      dup5\n        /* \"#utility.yul\":24742:24765   */\n      sub\n        /* \"#utility.yul\":24738:24770   */\n      slt\n        /* \"#utility.yul\":24735:24854   */\n      iszero\n      tag_764\n      jumpi\n        /* \"#utility.yul\":24773:24852   */\n      tag_765\n      tag_422\n      jump\t// in\n    tag_765:\n        /* \"#utility.yul\":24735:24854   */\n    tag_764:\n        /* \"#utility.yul\":24893:24894   */\n      0x00\n        /* \"#utility.yul\":24918:24971   */\n      tag_766\n        /* \"#utility.yul\":24963:24970   */\n      dup5\n        /* \"#utility.yul\":24954:24960   */\n      dup3\n        /* \"#utility.yul\":24943:24952   */\n      dup6\n        /* \"#utility.yul\":24939:24961   */\n      add\n        /* \"#utility.yul\":24918:24971   */\n      tag_432\n      jump\t// in\n    tag_766:\n        /* \"#utility.yul\":24908:24971   */\n      swap2\n      pop\n        /* \"#utility.yul\":24864:24981   */\n      pop\n        /* \"#utility.yul\":24659:24988   */\n      swap3\n      swap2\n      pop\n      pop\n      jump\t// out\n        /* \"#utility.yul\":24994:25174   */\n    tag_486:\n        /* \"#utility.yul\":25042:25119   */\n      0x4e487b7100000000000000000000000000000000000000000000000000000000\n        /* \"#utility.yul\":25039:25040   */\n      0x00\n        /* \"#utility.yul\":25032:25120   */\n      mstore\n        /* \"#utility.yul\":25139:25143   */\n      0x11\n        /* \"#utility.yul\":25136:25137   */\n      0x04\n        /* \"#utility.yul\":25129:25144   */\n      mstore\n        /* \"#utility.yul\":25163:25167   */\n      0x24\n        /* \"#utility.yul\":25160:25161   */\n      0x00\n        /* \"#utility.yul\":25153:25168   */\n      revert\n        /* \"#utility.yul\":25180:25371   */\n    tag_78:\n        /* \"#utility.yul\":25220:25223   */\n      0x00\n        /* \"#utility.yul\":25239:25259   */\n      tag_769\n        /* \"#utility.yul\":25257:25258   */\n      dup3\n        /* \"#utility.yul\":25239:25259   */\n      tag_433\n      jump\t// in\n    tag_769:\n        /* \"#utility.yul\":25234:25259   */\n      swap2\n      pop\n        /* \"#utility.yul\":25273:25293   */\n      tag_770\n        /* \"#utility.yul\":25291:25292   */\n      dup4\n        /* \"#utility.yul\":25273:25293   */\n      tag_433\n      jump\t// in\n    tag_770:\n        /* \"#utility.yul\":25268:25293   */\n      swap3\n      pop\n        /* \"#utility.yul\":25316:25317   */\n      dup3\n        /* \"#utility.yul\":25313:25314   */\n      dup3\n        /* \"#utility.yul\":25309:25318   */\n      add\n        /* \"#utility.yul\":25302:25318   */\n      swap1\n      pop\n        /* \"#utility.yul\":25337:25340   */\n      dup1\n        /* \"#utility.yul\":25334:25335   */\n      dup3\n        /* \"#utility.yul\":25331:25341   */\n      gt\n        /* \"#utility.yul\":25328:25364   */\n      iszero\n      tag_771\n      jumpi\n        /* \"#utility.yul\":25344:25362   */\n      tag_772\n      tag_486\n      jump\t// in\n    tag_772:\n        /* \"#utility.yul\":25328:25364   */\n    tag_771:\n        /* \"#utility.yul\":25180:25371   */\n      swap3\n      swap2\n      pop\n      pop\n      jump\t// out\n        /* \"#utility.yul\":25377:25550   */\n    tag_487:\n        /* \"#utility.yul\":25517:25542   */\n      0x6d73672e76616c756520213d2045544820696e70757473000000000000000000\n        /* \"#utility.yul\":25513:25514   */\n      0x00\n        /* \"#utility.yul\":25505:25511   */\n      dup3\n        /* \"#utility.yul\":25501:25515   */\n      add\n        /* \"#utility.yul\":25494:25543   */\n      mstore\n        /* \"#utility.yul\":25377:25550   */\n      pop\n      jump\t// out\n        /* \"#utility.yul\":25556:25922   */\n    tag_488:\n        /* \"#utility.yul\":25698:25701   */\n      0x00\n        /* \"#utility.yul\":25719:25786   */\n      tag_775\n        /* \"#utility.yul\":25783:25785   */\n      0x17\n        /* \"#utility.yul\":25778:25781   */\n      dup4\n        /* \"#utility.yul\":25719:25786   */\n      tag_418\n      jump\t// in\n    tag_775:\n        /* \"#utility.yul\":25712:25786   */\n      swap2\n      pop\n        /* \"#utility.yul\":25795:25888   */\n      tag_776\n        /* \"#utility.yul\":25884:25887   */\n      dup3\n        /* \"#utility.yul\":25795:25888   */\n      tag_487\n      jump\t// in\n    tag_776:\n        /* \"#utility.yul\":25913:25915   */\n      0x20\n        /* \"#utility.yul\":25908:25911   */\n      dup3\n        /* \"#utility.yul\":25904:25916   */\n      add\n        /* \"#utility.yul\":25897:25916   */\n      swap1\n      pop\n        /* \"#utility.yul\":25556:25922   */\n      swap2\n      swap1\n      pop\n      jump\t// out\n        /* \"#utility.yul\":25928:26347   */\n    tag_81:\n        /* \"#utility.yul\":26094:26098   */\n      0x00\n        /* \"#utility.yul\":26132:26134   */\n      0x20\n        /* \"#utility.yul\":26121:26130   */\n      dup3\n        /* \"#utility.yul\":26117:26135   */\n      add\n        /* \"#utility.yul\":26109:26135   */\n      swap1\n      pop\n        /* \"#utility.yul\":26181:26190   */\n      dup2\n        /* \"#utility.yul\":26175:26179   */\n      dup2\n        /* \"#utility.yul\":26171:26191   */\n      sub\n        /* \"#utility.yul\":26167:26168   */\n      0x00\n        /* \"#utility.yul\":26156:26165   */\n      dup4\n        /* \"#utility.yul\":26152:26169   */\n      add\n        /* \"#utility.yul\":26145:26192   */\n      mstore\n        /* \"#utility.yul\":26209:26340   */\n      tag_778\n        /* \"#utility.yul\":26335:26339   */\n      dup2\n        /* \"#utility.yul\":26209:26340   */\n      tag_488\n      jump\t// in\n    tag_778:\n        /* \"#utility.yul\":26201:26340   */\n      swap1\n      pop\n        /* \"#utility.yul\":25928:26347   */\n      swap2\n      swap1\n      pop\n      jump\t// out\n        /* \"#utility.yul\":26353:26680   */\n    tag_89:\n        /* \"#utility.yul\":26411:26417   */\n      0x00\n        /* \"#utility.yul\":26460:26462   */\n      0x20\n        /* \"#utility.yul\":26448:26457   */\n      dup3\n        /* \"#utility.yul\":26439:26446   */\n      dup5\n        /* \"#utility.yul\":26435:26458   */\n      sub\n        /* \"#utility.yul\":26431:26463   */\n      slt\n        /* \"#utility.yul\":26428:26547   */\n      iszero\n      tag_780\n      jumpi\n        /* \"#utility.yul\":26466:26545   */\n      tag_781\n      tag_422\n      jump\t// in\n    tag_781:\n        /* \"#utility.yul\":26428:26547   */\n    tag_780:\n        /* \"#utility.yul\":26586:26587   */\n      0x00\n        /* \"#utility.yul\":26611:26663   */\n      tag_782\n        /* \"#utility.yul\":26655:26662   */\n      dup5\n        /* \"#utility.yul\":26646:26652   */\n      dup3\n        /* \"#utility.yul\":26635:26644   */\n      dup6\n        /* \"#utility.yul\":26631:26653   */\n      add\n        /* \"#utility.yul\":26611:26663   */\n      tag_468\n      jump\t// in\n    tag_782:\n        /* \"#utility.yul\":26601:26663   */\n      swap2\n      pop\n        /* \"#utility.yul\":26557:26673   */\n      pop\n        /* \"#utility.yul\":26353:26680   */\n      swap3\n      swap2\n      pop\n      pop\n      jump\t// out\n        /* \"#utility.yul\":26686:26920   */\n    tag_489:\n        /* \"#utility.yul\":26826:26860   */\n      0x4d756c74695377617020526f757465723a20576569676874206d757374206265\n        /* \"#utility.yul\":26822:26823   */\n      0x00\n        /* \"#utility.yul\":26814:26820   */\n      dup3\n        /* \"#utility.yul\":26810:26824   */\n      add\n        /* \"#utility.yul\":26803:26861   */\n      mstore\n        /* \"#utility.yul\":26895:26912   */\n      0x2067726561746572207468616e20300000000000000000000000000000000000\n        /* \"#utility.yul\":26890:26892   */\n      0x20\n        /* \"#utility.yul\":26882:26888   */\n      dup3\n        /* \"#utility.yul\":26878:26893   */\n      add\n        /* \"#utility.yul\":26871:26913   */\n      mstore\n        /* \"#utility.yul\":26686:26920   */\n      pop\n      jump\t// out\n        /* \"#utility.yul\":26926:27292   */\n    tag_490:\n        /* \"#utility.yul\":27068:27071   */\n      0x00\n        /* \"#utility.yul\":27089:27156   */\n      tag_785\n        /* \"#utility.yul\":27153:27155   */\n      0x2f\n        /* \"#utility.yul\":27148:27151   */\n      dup4\n        /* \"#utility.yul\":27089:27156   */\n      tag_418\n      jump\t// in\n    tag_785:\n        /* \"#utility.yul\":27082:27156   */\n      swap2\n      pop\n        /* \"#utility.yul\":27165:27258   */\n      tag_786\n        /* \"#utility.yul\":27254:27257   */\n      dup3\n        /* \"#utility.yul\":27165:27258   */\n      tag_489\n      jump\t// in\n    tag_786:\n        /* \"#utility.yul\":27283:27285   */\n      0x40\n        /* \"#utility.yul\":27278:27281   */\n      dup3\n        /* \"#utility.yul\":27274:27286   */\n      add\n        /* \"#utility.yul\":27267:27286   */\n      swap1\n      pop\n        /* \"#utility.yul\":26926:27292   */\n      swap2\n      swap1\n      pop\n      jump\t// out\n        /* \"#utility.yul\":27298:27717   */\n    tag_92:\n        /* \"#utility.yul\":27464:27468   */\n      0x00\n        /* \"#utility.yul\":27502:27504   */\n      0x20\n        /* \"#utility.yul\":27491:27500   */\n      dup3\n        /* \"#utility.yul\":27487:27505   */\n      add\n        /* \"#utility.yul\":27479:27505   */\n      swap1\n      pop\n        /* \"#utility.yul\":27551:27560   */\n      dup2\n        /* \"#utility.yul\":27545:27549   */\n      dup2\n        /* \"#utility.yul\":27541:27561   */\n      sub\n        /* \"#utility.yul\":27537:27538   */\n      0x00\n        /* \"#utility.yul\":27526:27535   */\n      dup4\n        /* \"#utility.yul\":27522:27539   */\n      add\n        /* \"#utility.yul\":27515:27562   */\n      mstore\n        /* \"#utility.yul\":27579:27710   */\n      tag_788\n        /* \"#utility.yul\":27705:27709   */\n      dup2\n        /* \"#utility.yul\":27579:27710   */\n      tag_490\n      jump\t// in\n    tag_788:\n        /* \"#utility.yul\":27571:27710   */\n      swap1\n      pop\n        /* \"#utility.yul\":27298:27717   */\n      swap2\n      swap1\n      pop\n      jump\t// out\n        /* \"#utility.yul\":27723:27953   */\n    tag_491:\n        /* \"#utility.yul\":27863:27897   */\n      0x4d756c74695377617020526f757465723a20546f74616c20776569676874206d\n        /* \"#utility.yul\":27859:27860   */\n      0x00\n        /* \"#utility.yul\":27851:27857   */\n      dup3\n        /* \"#utility.yul\":27847:27861   */\n      add\n        /* \"#utility.yul\":27840:27898   */\n      mstore\n        /* \"#utility.yul\":27932:27945   */\n      0x7573742062652031303025000000000000000000000000000000000000000000\n        /* \"#utility.yul\":27927:27929   */\n      0x20\n        /* \"#utility.yul\":27919:27925   */\n      dup3\n        /* \"#utility.yul\":27915:27930   */\n      add\n        /* \"#utility.yul\":27908:27946   */\n      mstore\n        /* \"#utility.yul\":27723:27953   */\n      pop\n      jump\t// out\n        /* \"#utility.yul\":27959:28325   */\n    tag_492:\n        /* \"#utility.yul\":28101:28104   */\n      0x00\n        /* \"#utility.yul\":28122:28189   */\n      tag_791\n        /* \"#utility.yul\":28186:28188   */\n      0x2b\n        /* \"#utility.yul\":28181:28184   */\n      dup4\n        /* \"#utility.yul\":28122:28189   */\n      tag_418\n      jump\t// in\n    tag_791:\n        /* \"#utility.yul\":28115:28189   */\n      swap2\n      pop\n        /* \"#utility.yul\":28198:28291   */\n      tag_792\n        /* \"#utility.yul\":28287:28290   */\n      dup3\n        /* \"#utility.yul\":28198:28291   */\n      tag_491\n      jump\t// in\n    tag_792:\n        /* \"#utility.yul\":28316:28318   */\n      0x40\n        /* \"#utility.yul\":28311:28314   */\n      dup3\n        /* \"#utility.yul\":28307:28319   */\n      add\n        /* \"#utility.yul\":28300:28319   */\n      swap1\n      pop\n        /* \"#utility.yul\":27959:28325   */\n      swap2\n      swap1\n      pop\n      jump\t// out\n        /* \"#utility.yul\":28331:28750   */\n    tag_99:\n        /* \"#utility.yul\":28497:28501   */\n      0x00\n        /* \"#utility.yul\":28535:28537   */\n      0x20\n        /* \"#utility.yul\":28524:28533   */\n      dup3\n        /* \"#utility.yul\":28520:28538   */\n      add\n        /* \"#utility.yul\":28512:28538   */\n      swap1\n      pop\n        /* \"#utility.yul\":28584:28593   */\n      dup2\n        /* \"#utility.yul\":28578:28582   */\n      dup2\n        /* \"#utility.yul\":28574:28594   */\n      sub\n        /* \"#utility.yul\":28570:28571   */\n      0x00\n        /* \"#utility.yul\":28559:28568   */\n      dup4\n        /* \"#utility.yul\":28555:28572   */\n      add\n        /* \"#utility.yul\":28548:28595   */\n      mstore\n        /* \"#utility.yul\":28612:28743   */\n      tag_794\n        /* \"#utility.yul\":28738:28742   */\n      dup2\n        /* \"#utility.yul\":28612:28743   */\n      tag_492\n      jump\t// in\n    tag_794:\n        /* \"#utility.yul\":28604:28743   */\n      swap1\n      pop\n        /* \"#utility.yul\":28331:28750   */\n      swap2\n      swap1\n      pop\n      jump\t// out\n        /* \"#utility.yul\":28756:28923   */\n    tag_493:\n        /* \"#utility.yul\":28896:28915   */\n      0x4665653a207a65726f2061646472657373000000000000000000000000000000\n        /* \"#utility.yul\":28892:28893   */\n      0x00\n        /* \"#utility.yul\":28884:28890   */\n      dup3\n        /* \"#utility.yul\":28880:28894   */\n      add\n        /* \"#utility.yul\":28873:28916   */\n      mstore\n        /* \"#utility.yul\":28756:28923   */\n      pop\n      jump\t// out\n        /* \"#utility.yul\":28929:29295   */\n    tag_494:\n        /* \"#utility.yul\":29071:29074   */\n      0x00\n        /* \"#utility.yul\":29092:29159   */\n      tag_797\n        /* \"#utility.yul\":29156:29158   */\n      0x11\n        /* \"#utility.yul\":29151:29154   */\n      dup4\n        /* \"#utility.yul\":29092:29159   */\n      tag_418\n      jump\t// in\n    tag_797:\n        /* \"#utility.yul\":29085:29159   */\n      swap2\n      pop\n        /* \"#utility.yul\":29168:29261   */\n      tag_798\n        /* \"#utility.yul\":29257:29260   */\n      dup3\n        /* \"#utility.yul\":29168:29261   */\n      tag_493\n      jump\t// in\n    tag_798:\n        /* \"#utility.yul\":29286:29288   */\n      0x20\n        /* \"#utility.yul\":29281:29284   */\n      dup3\n        /* \"#utility.yul\":29277:29289   */\n      add\n        /* \"#utility.yul\":29270:29289   */\n      swap1\n      pop\n        /* \"#utility.yul\":28929:29295   */\n      swap2\n      swap1\n      pop\n      jump\t// out\n        /* \"#utility.yul\":29301:29720   */\n    tag_135:\n        /* \"#utility.yul\":29467:29471   */\n      0x00\n        /* \"#utility.yul\":29505:29507   */\n      0x20\n        /* \"#utility.yul\":29494:29503   */\n      dup3\n        /* \"#utility.yul\":29490:29508   */\n      add\n        /* \"#utility.yul\":29482:29508   */\n      swap1\n      pop\n        /* \"#utility.yul\":29554:29563   */\n      dup2\n        /* \"#utility.yul\":29548:29552   */\n      dup2\n        /* \"#utility.yul\":29544:29564   */\n      sub\n        /* \"#utility.yul\":29540:29541   */\n      0x00\n        /* \"#utility.yul\":29529:29538   */\n      dup4\n        /* \"#utility.yul\":29525:29542   */\n      add\n        /* \"#utility.yul\":29518:29565   */\n      mstore\n        /* \"#utility.yul\":29582:29713   */\n      tag_800\n        /* \"#utility.yul\":29708:29712   */\n      dup2\n        /* \"#utility.yul\":29582:29713   */\n      tag_494\n      jump\t// in\n    tag_800:\n        /* \"#utility.yul\":29574:29713   */\n      swap1\n      pop\n        /* \"#utility.yul\":29301:29720   */\n      swap2\n      swap1\n      pop\n      jump\t// out\n        /* \"#utility.yul\":29726:29890   */\n    tag_495:\n        /* \"#utility.yul\":29866:29882   */\n      0x4665653a207a65726f2062697073000000000000000000000000000000000000\n        /* \"#utility.yul\":29862:29863   */\n      0x00\n        /* \"#utility.yul\":29854:29860   */\n      dup3\n        /* \"#utility.yul\":29850:29864   */\n      add\n        /* \"#utility.yul\":29843:29883   */\n      mstore\n        /* \"#utility.yul\":29726:29890   */\n      pop\n      jump\t// out\n        /* \"#utility.yul\":29896:30262   */\n    tag_496:\n        /* \"#utility.yul\":30038:30041   */\n      0x00\n        /* \"#utility.yul\":30059:30126   */\n      tag_803\n        /* \"#utility.yul\":30123:30125   */\n      0x0e\n        /* \"#utility.yul\":30118:30121   */\n      dup4\n        /* \"#utility.yul\":30059:30126   */\n      tag_418\n      jump\t// in\n    tag_803:\n        /* \"#utility.yul\":30052:30126   */\n      swap2\n      pop\n        /* \"#utility.yul\":30135:30228   */\n      tag_804\n        /* \"#utility.yul\":30224:30227   */\n      dup3\n        /* \"#utility.yul\":30135:30228   */\n      tag_495\n      jump\t// in\n    tag_804:\n        /* \"#utility.yul\":30253:30255   */\n      0x20\n        /* \"#utility.yul\":30248:30251   */\n      dup3\n        /* \"#utility.yul\":30244:30256   */\n      add\n        /* \"#utility.yul\":30237:30256   */\n      swap1\n      pop\n        /* \"#utility.yul\":29896:30262   */\n      swap2\n      swap1\n      pop\n      jump\t// out\n        /* \"#utility.yul\":30268:30687   */\n    tag_141:\n        /* \"#utility.yul\":30434:30438   */\n      0x00\n        /* \"#utility.yul\":30472:30474   */\n      0x20\n        /* \"#utility.yul\":30461:30470   */\n      dup3\n        /* \"#utility.yul\":30457:30475   */\n      add\n        /* \"#utility.yul\":30449:30475   */\n      swap1\n      pop\n        /* \"#utility.yul\":30521:30530   */\n      dup2\n        /* \"#utility.yul\":30515:30519   */\n      dup2\n        /* \"#utility.yul\":30511:30531   */\n      sub\n        /* \"#utility.yul\":30507:30508   */\n      0x00\n        /* \"#utility.yul\":30496:30505   */\n      dup4\n        /* \"#utility.yul\":30492:30509   */\n      add\n        /* \"#utility.yul\":30485:30532   */\n      mstore\n        /* \"#utility.yul\":30549:30680   */\n      tag_806\n        /* \"#utility.yul\":30675:30679   */\n      dup2\n        /* \"#utility.yul\":30549:30680   */\n      tag_496\n      jump\t// in\n    tag_806:\n        /* \"#utility.yul\":30541:30680   */\n      swap1\n      pop\n        /* \"#utility.yul\":30268:30687   */\n      swap2\n      swap1\n      pop\n      jump\t// out\n        /* \"#utility.yul\":30693:30854   */\n    tag_497:\n        /* \"#utility.yul\":30833:30846   */\n      0x4665653a203e2031303025000000000000000000000000000000000000000000\n        /* \"#utility.yul\":30829:30830   */\n      0x00\n        /* \"#utility.yul\":30821:30827   */\n      dup3\n        /* \"#utility.yul\":30817:30831   */\n      add\n        /* \"#utility.yul\":30810:30847   */\n      mstore\n        /* \"#utility.yul\":30693:30854   */\n      pop\n      jump\t// out\n        /* \"#utility.yul\":30860:31226   */\n    tag_498:\n        /* \"#utility.yul\":31002:31005   */\n      0x00\n        /* \"#utility.yul\":31023:31090   */\n      tag_809\n        /* \"#utility.yul\":31087:31089   */\n      0x0b\n        /* \"#utility.yul\":31082:31085   */\n      dup4\n        /* \"#utility.yul\":31023:31090   */\n      tag_418\n      jump\t// in\n    tag_809:\n        /* \"#utility.yul\":31016:31090   */\n      swap2\n      pop\n        /* \"#utility.yul\":31099:31192   */\n      tag_810\n        /* \"#utility.yul\":31188:31191   */\n      dup3\n        /* \"#utility.yul\":31099:31192   */\n      tag_497\n      jump\t// in\n    tag_810:\n        /* \"#utility.yul\":31217:31219   */\n      0x20\n        /* \"#utility.yul\":31212:31215   */\n      dup3\n        /* \"#utility.yul\":31208:31220   */\n      add\n        /* \"#utility.yul\":31201:31220   */\n      swap1\n      pop\n        /* \"#utility.yul\":30860:31226   */\n      swap2\n      swap1\n      pop\n      jump\t// out\n        /* \"#utility.yul\":31232:31651   */\n    tag_148:\n        /* \"#utility.yul\":31398:31402   */\n      0x00\n        /* \"#utility.yul\":31436:31438   */\n      0x20\n        /* \"#utility.yul\":31425:31434   */\n      dup3\n        /* \"#utility.yul\":31421:31439   */\n      add\n        /* \"#utility.yul\":31413:31439   */\n      swap1\n      pop\n        /* \"#utility.yul\":31485:31494   */\n      dup2\n        /* \"#utility.yul\":31479:31483   */\n      dup2\n        /* \"#utility.yul\":31475:31495   */\n      sub\n        /* \"#utility.yul\":31471:31472   */\n      0x00\n        /* \"#utility.yul\":31460:31469   */\n      dup4\n        /* \"#utility.yul\":31456:31473   */\n      add\n        /* \"#utility.yul\":31449:31496   */\n      mstore\n        /* \"#utility.yul\":31513:31644   */\n      tag_812\n        /* \"#utility.yul\":31639:31643   */\n      dup2\n        /* \"#utility.yul\":31513:31644   */\n      tag_498\n      jump\t// in\n    tag_812:\n        /* \"#utility.yul\":31505:31644   */\n      swap1\n      pop\n        /* \"#utility.yul\":31232:31651   */\n      swap2\n      swap1\n      pop\n      jump\t// out\n        /* \"#utility.yul\":31657:31851   */\n    tag_164:\n        /* \"#utility.yul\":31697:31701   */\n      0x00\n        /* \"#utility.yul\":31717:31737   */\n      tag_814\n        /* \"#utility.yul\":31735:31736   */\n      dup3\n        /* \"#utility.yul\":31717:31737   */\n      tag_433\n      jump\t// in\n    tag_814:\n        /* \"#utility.yul\":31712:31737   */\n      swap2\n      pop\n        /* \"#utility.yul\":31751:31771   */\n      tag_815\n        /* \"#utility.yul\":31769:31770   */\n      dup4\n        /* \"#utility.yul\":31751:31771   */\n      tag_433\n      jump\t// in\n    tag_815:\n        /* \"#utility.yul\":31746:31771   */\n      swap3\n      pop\n        /* \"#utility.yul\":31795:31796   */\n      dup3\n        /* \"#utility.yul\":31792:31793   */\n      dup3\n        /* \"#utility.yul\":31788:31797   */\n      sub\n        /* \"#utility.yul\":31780:31797   */\n      swap1\n      pop\n        /* \"#utility.yul\":31819:31820   */\n      dup2\n        /* \"#utility.yul\":31813:31817   */\n      dup2\n        /* \"#utility.yul\":31810:31821   */\n      gt\n        /* \"#utility.yul\":31807:31844   */\n      iszero\n      tag_816\n      jumpi\n        /* \"#utility.yul\":31824:31842   */\n      tag_817\n      tag_486\n      jump\t// in\n    tag_817:\n        /* \"#utility.yul\":31807:31844   */\n    tag_816:\n        /* \"#utility.yul\":31657:31851   */\n      swap3\n      swap2\n      pop\n      pop\n      jump\t// out\n        /* \"#utility.yul\":31857:32079   */\n    tag_169:\n        /* \"#utility.yul\":31950:31954   */\n      0x00\n        /* \"#utility.yul\":31988:31990   */\n      0x20\n        /* \"#utility.yul\":31977:31986   */\n      dup3\n        /* \"#utility.yul\":31973:31991   */\n      add\n        /* \"#utility.yul\":31965:31991   */\n      swap1\n      pop\n        /* \"#utility.yul\":32001:32072   */\n      tag_819\n        /* \"#utility.yul\":32069:32070   */\n      0x00\n        /* \"#utility.yul\":32058:32067   */\n      dup4\n        /* \"#utility.yul\":32054:32071   */\n      add\n        /* \"#utility.yul\":32045:32051   */\n      dup5\n        /* \"#utility.yul\":32001:32072   */\n      tag_476\n      jump\t// in\n    tag_819:\n        /* \"#utility.yul\":31857:32079   */\n      swap3\n      swap2\n      pop\n      pop\n      jump\t// out\n        /* \"#utility.yul\":32085:32203   */\n    tag_499:\n        /* \"#utility.yul\":32172:32196   */\n      tag_821\n        /* \"#utility.yul\":32190:32195   */\n      dup2\n        /* \"#utility.yul\":32172:32196   */\n      tag_430\n      jump\t// in\n    tag_821:\n        /* \"#utility.yul\":32167:32170   */\n      dup3\n        /* \"#utility.yul\":32160:32197   */\n      mstore\n        /* \"#utility.yul\":32085:32203   */\n      pop\n      pop\n      jump\t// out\n        /* \"#utility.yul\":32209:32431   */\n    tag_200:\n        /* \"#utility.yul\":32302:32306   */\n      0x00\n        /* \"#utility.yul\":32340:32342   */\n      0x20\n        /* \"#utility.yul\":32329:32338   */\n      dup3\n        /* \"#utility.yul\":32325:32343   */\n      add\n        /* \"#utility.yul\":32317:32343   */\n      swap1\n      pop\n        /* \"#utility.yul\":32353:32424   */\n      tag_823\n        /* \"#utility.yul\":32421:32422   */\n      0x00\n        /* \"#utility.yul\":32410:32419   */\n      dup4\n        /* \"#utility.yul\":32406:32423   */\n      add\n        /* \"#utility.yul\":32397:32403   */\n      dup5\n        /* \"#utility.yul\":32353:32424   */\n      tag_499\n      jump\t// in\n    tag_823:\n        /* \"#utility.yul\":32209:32431   */\n      swap3\n      swap2\n      pop\n      pop\n      jump\t// out\n        /* \"#utility.yul\":32437:32580   */\n    tag_500:\n        /* \"#utility.yul\":32494:32499   */\n      0x00\n        /* \"#utility.yul\":32525:32531   */\n      dup2\n        /* \"#utility.yul\":32519:32532   */\n      mload\n        /* \"#utility.yul\":32510:32532   */\n      swap1\n      pop\n        /* \"#utility.yul\":32541:32574   */\n      tag_825\n        /* \"#utility.yul\":32568:32573   */\n      dup2\n        /* \"#utility.yul\":32541:32574   */\n      tag_434\n      jump\t// in\n    tag_825:\n        /* \"#utility.yul\":32437:32580   */\n      swap3\n      swap2\n      pop\n      pop\n      jump\t// out\n        /* \"#utility.yul\":32586:32937   */\n    tag_204:\n        /* \"#utility.yul\":32656:32662   */\n      0x00\n        /* \"#utility.yul\":32705:32707   */\n      0x20\n        /* \"#utility.yul\":32693:32702   */\n      dup3\n        /* \"#utility.yul\":32684:32691   */\n      dup5\n        /* \"#utility.yul\":32680:32703   */\n      sub\n        /* \"#utility.yul\":32676:32708   */\n      slt\n        /* \"#utility.yul\":32673:32792   */\n      iszero\n      tag_827\n      jumpi\n        /* \"#utility.yul\":32711:32790   */\n      tag_828\n      tag_422\n      jump\t// in\n    tag_828:\n        /* \"#utility.yul\":32673:32792   */\n    tag_827:\n        /* \"#utility.yul\":32831:32832   */\n      0x00\n        /* \"#utility.yul\":32856:32920   */\n      tag_829\n        /* \"#utility.yul\":32912:32919   */\n      dup5\n        /* \"#utility.yul\":32903:32909   */\n      dup3\n        /* \"#utility.yul\":32892:32901   */\n      dup6\n        /* \"#utility.yul\":32888:32910   */\n      add\n        /* \"#utility.yul\":32856:32920   */\n      tag_500\n      jump\t// in\n    tag_829:\n        /* \"#utility.yul\":32846:32920   */\n      swap2\n      pop\n        /* \"#utility.yul\":32802:32930   */\n      pop\n        /* \"#utility.yul\":32586:32937   */\n      swap3\n      swap2\n      pop\n      pop\n      jump\t// out\n        /* \"#utility.yul\":32943:33110   */\n    tag_501:\n        /* \"#utility.yul\":33083:33102   */\n      0x777261703a207a65726f20616d6f756e74000000000000000000000000000000\n        /* \"#utility.yul\":33079:33080   */\n      0x00\n        /* \"#utility.yul\":33071:33077   */\n      dup3\n        /* \"#utility.yul\":33067:33081   */\n      add\n        /* \"#utility.yul\":33060:33103   */\n      mstore\n        /* \"#utility.yul\":32943:33110   */\n      pop\n      jump\t// out\n        /* \"#utility.yul\":33116:33482   */\n    tag_502:\n        /* \"#utility.yul\":33258:33261   */\n      0x00\n        /* \"#utility.yul\":33279:33346   */\n      tag_832\n        /* \"#utility.yul\":33343:33345   */\n      0x11\n        /* \"#utility.yul\":33338:33341   */\n      dup4\n        /* \"#utility.yul\":33279:33346   */\n      tag_418\n      jump\t// in\n    tag_832:\n        /* \"#utility.yul\":33272:33346   */\n      swap2\n      pop\n        /* \"#utility.yul\":33355:33448   */\n      tag_833\n        /* \"#utility.yul\":33444:33447   */\n      dup3\n        /* \"#utility.yul\":33355:33448   */\n      tag_501\n      jump\t// in\n    tag_833:\n        /* \"#utility.yul\":33473:33475   */\n      0x20\n        /* \"#utility.yul\":33468:33471   */\n      dup3\n        /* \"#utility.yul\":33464:33476   */\n      add\n        /* \"#utility.yul\":33457:33476   */\n      swap1\n      pop\n        /* \"#utility.yul\":33116:33482   */\n      swap2\n      swap1\n      pop\n      jump\t// out\n        /* \"#utility.yul\":33488:33907   */\n    tag_215:\n        /* \"#utility.yul\":33654:33658   */\n      0x00\n        /* \"#utility.yul\":33692:33694   */\n      0x20\n        /* \"#utility.yul\":33681:33690   */\n      dup3\n        /* \"#utility.yul\":33677:33695   */\n      add\n        /* \"#utility.yul\":33669:33695   */\n      swap1\n      pop\n        /* \"#utility.yul\":33741:33750   */\n      dup2\n        /* \"#utility.yul\":33735:33739   */\n      dup2\n        /* \"#utility.yul\":33731:33751   */\n      sub\n        /* \"#utility.yul\":33727:33728   */\n      0x00\n        /* \"#utility.yul\":33716:33725   */\n      dup4\n        /* \"#utility.yul\":33712:33729   */\n      add\n        /* \"#utility.yul\":33705:33752   */\n      mstore\n        /* \"#utility.yul\":33769:33900   */\n      tag_835\n        /* \"#utility.yul\":33895:33899   */\n      dup2\n        /* \"#utility.yul\":33769:33900   */\n      tag_502\n      jump\t// in\n    tag_835:\n        /* \"#utility.yul\":33761:33900   */\n      swap1\n      pop\n        /* \"#utility.yul\":33488:33907   */\n      swap2\n      swap1\n      pop\n      jump\t// out\n        /* \"#utility.yul\":33913:34137   */\n    tag_503:\n        /* \"#utility.yul\":34053:34087   */\n      0x777261703a206f6e6c79207468697320636f6e74726163742063616e20777261\n        /* \"#utility.yul\":34049:34050   */\n      0x00\n        /* \"#utility.yul\":34041:34047   */\n      dup3\n        /* \"#utility.yul\":34037:34051   */\n      add\n        /* \"#utility.yul\":34030:34088   */\n      mstore\n        /* \"#utility.yul\":34122:34129   */\n      0x7020455448000000000000000000000000000000000000000000000000000000\n        /* \"#utility.yul\":34117:34119   */\n      0x20\n        /* \"#utility.yul\":34109:34115   */\n      dup3\n        /* \"#utility.yul\":34105:34120   */\n      add\n        /* \"#utility.yul\":34098:34130   */\n      mstore\n        /* \"#utility.yul\":33913:34137   */\n      pop\n      jump\t// out\n        /* \"#utility.yul\":34143:34509   */\n    tag_504:\n        /* \"#utility.yul\":34285:34288   */\n      0x00\n        /* \"#utility.yul\":34306:34373   */\n      tag_838\n        /* \"#utility.yul\":34370:34372   */\n      0x25\n        /* \"#utility.yul\":34365:34368   */\n      dup4\n        /* \"#utility.yul\":34306:34373   */\n      tag_418\n      jump\t// in\n    tag_838:\n        /* \"#utility.yul\":34299:34373   */\n      swap2\n      pop\n        /* \"#utility.yul\":34382:34475   */\n      tag_839\n        /* \"#utility.yul\":34471:34474   */\n      dup3\n        /* \"#utility.yul\":34382:34475   */\n      tag_503\n      jump\t// in\n    tag_839:\n        /* \"#utility.yul\":34500:34502   */\n      0x40\n        /* \"#utility.yul\":34495:34498   */\n      dup3\n        /* \"#utility.yul\":34491:34503   */\n      add\n        /* \"#utility.yul\":34484:34503   */\n      swap1\n      pop\n        /* \"#utility.yul\":34143:34509   */\n      swap2\n      swap1\n      pop\n      jump\t// out\n        /* \"#utility.yul\":34515:34934   */\n    tag_218:\n        /* \"#utility.yul\":34681:34685   */\n      0x00\n        /* \"#utility.yul\":34719:34721   */\n      0x20\n        /* \"#utility.yul\":34708:34717   */\n      dup3\n        /* \"#utility.yul\":34704:34722   */\n      add\n        /* \"#utility.yul\":34696:34722   */\n      swap1\n      pop\n        /* \"#utility.yul\":34768:34777   */\n      dup2\n        /* \"#utility.yul\":34762:34766   */\n      dup2\n        /* \"#utility.yul\":34758:34778   */\n      sub\n        /* \"#utility.yul\":34754:34755   */\n      0x00\n        /* \"#utility.yul\":34743:34752   */\n      dup4\n        /* \"#utility.yul\":34739:34756   */\n      add\n        /* \"#utility.yul\":34732:34779   */\n      mstore\n        /* \"#utility.yul\":34796:34927   */\n      tag_841\n        /* \"#utility.yul\":34922:34926   */\n      dup2\n        /* \"#utility.yul\":34796:34927   */\n      tag_504\n      jump\t// in\n    tag_841:\n        /* \"#utility.yul\":34788:34927   */\n      swap1\n      pop\n        /* \"#utility.yul\":34515:34934   */\n      swap2\n      swap1\n      pop\n      jump\t// out\n        /* \"#utility.yul\":34940:35112   */\n    tag_505:\n        /* \"#utility.yul\":35080:35104   */\n      0x574554483a20696e73756666696369656e742045544800000000000000000000\n        /* \"#utility.yul\":35076:35077   */\n      0x00\n        /* \"#utility.yul\":35068:35074   */\n      dup3\n        /* \"#utility.yul\":35064:35078   */\n      add\n        /* \"#utility.yul\":35057:35105   */\n      mstore\n        /* \"#utility.yul\":34940:35112   */\n      pop\n      jump\t// out\n        /* \"#utility.yul\":35118:35484   */\n    tag_506:\n        /* \"#utility.yul\":35260:35263   */\n      0x00\n        /* \"#utility.yul\":35281:35348   */\n      tag_844\n        /* \"#utility.yul\":35345:35347   */\n      0x16\n        /* \"#utility.yul\":35340:35343   */\n      dup4\n        /* \"#utility.yul\":35281:35348   */\n      tag_418\n      jump\t// in\n    tag_844:\n        /* \"#utility.yul\":35274:35348   */\n      swap2\n      pop\n        /* \"#utility.yul\":35357:35450   */\n      tag_845\n        /* \"#utility.yul\":35446:35449   */\n      dup3\n        /* \"#utility.yul\":35357:35450   */\n      tag_505\n      jump\t// in\n    tag_845:\n        /* \"#utility.yul\":35475:35477   */\n      0x20\n        /* \"#utility.yul\":35470:35473   */\n      dup3\n        /* \"#utility.yul\":35466:35478   */\n      add\n        /* \"#utility.yul\":35459:35478   */\n      swap1\n      pop\n        /* \"#utility.yul\":35118:35484   */\n      swap2\n      swap1\n      pop\n      jump\t// out\n        /* \"#utility.yul\":35490:35909   */\n    tag_221:\n        /* \"#utility.yul\":35656:35660   */\n      0x00\n        /* \"#utility.yul\":35694:35696   */\n      0x20\n        /* \"#utility.yul\":35683:35692   */\n      dup3\n        /* \"#utility.yul\":35679:35697   */\n      add\n        /* \"#utility.yul\":35671:35697   */\n      swap1\n      pop\n        /* \"#utility.yul\":35743:35752   */\n      dup2\n        /* \"#utility.yul\":35737:35741   */\n      dup2\n        /* \"#utility.yul\":35733:35753   */\n      sub\n        /* \"#utility.yul\":35729:35730   */\n      0x00\n        /* \"#utility.yul\":35718:35727   */\n      dup4\n        /* \"#utility.yul\":35714:35731   */\n      add\n        /* \"#utility.yul\":35707:35754   */\n      mstore\n        /* \"#utility.yul\":35771:35902   */\n      tag_847\n        /* \"#utility.yul\":35897:35901   */\n      dup2\n        /* \"#utility.yul\":35771:35902   */\n      tag_506\n      jump\t// in\n    tag_847:\n        /* \"#utility.yul\":35763:35902   */\n      swap1\n      pop\n        /* \"#utility.yul\":35490:35909   */\n      swap2\n      swap1\n      pop\n      jump\t// out\n        /* \"#utility.yul\":35915:36146   */\n    tag_507:\n        /* \"#utility.yul\":36055:36089   */\n      0x4d756c74695377617020526f757465723a20496e76616c69642066726f6d2074\n        /* \"#utility.yul\":36051:36052   */\n      0x00\n        /* \"#utility.yul\":36043:36049   */\n      dup3\n        /* \"#utility.yul\":36039:36053   */\n      add\n        /* \"#utility.yul\":36032:36090   */\n      mstore\n        /* \"#utility.yul\":36124:36138   */\n      0x6f6b656e20616464726573730000000000000000000000000000000000000000\n        /* \"#utility.yul\":36119:36121   */\n      0x20\n        /* \"#utility.yul\":36111:36117   */\n      dup3\n        /* \"#utility.yul\":36107:36122   */\n      add\n        /* \"#utility.yul\":36100:36139   */\n      mstore\n        /* \"#utility.yul\":35915:36146   */\n      pop\n      jump\t// out\n        /* \"#utility.yul\":36152:36518   */\n    tag_508:\n        /* \"#utility.yul\":36294:36297   */\n      0x00\n        /* \"#utility.yul\":36315:36382   */\n      tag_850\n        /* \"#utility.yul\":36379:36381   */\n      0x2c\n        /* \"#utility.yul\":36374:36377   */\n      dup4\n        /* \"#utility.yul\":36315:36382   */\n      tag_418\n      jump\t// in\n    tag_850:\n        /* \"#utility.yul\":36308:36382   */\n      swap2\n      pop\n        /* \"#utility.yul\":36391:36484   */\n      tag_851\n        /* \"#utility.yul\":36480:36483   */\n      dup3\n        /* \"#utility.yul\":36391:36484   */\n      tag_507\n      jump\t// in\n    tag_851:\n        /* \"#utility.yul\":36509:36511   */\n      0x40\n        /* \"#utility.yul\":36504:36507   */\n      dup3\n        /* \"#utility.yul\":36500:36512   */\n      add\n        /* \"#utility.yul\":36493:36512   */\n      swap1\n      pop\n        /* \"#utility.yul\":36152:36518   */\n      swap2\n      swap1\n      pop\n      jump\t// out\n        /* \"#utility.yul\":36524:36943   */\n    tag_230:\n        /* \"#utility.yul\":36690:36694   */\n      0x00\n        /* \"#utility.yul\":36728:36730   */\n      0x20\n        /* \"#utility.yul\":36717:36726   */\n      dup3\n        /* \"#utility.yul\":36713:36731   */\n      add\n        /* \"#utility.yul\":36705:36731   */\n      swap1\n      pop\n        /* \"#utility.yul\":36777:36786   */\n      dup2\n        /* \"#utility.yul\":36771:36775   */\n      dup2\n        /* \"#utility.yul\":36767:36787   */\n      sub\n        /* \"#utility.yul\":36763:36764   */\n      0x00\n        /* \"#utility.yul\":36752:36761   */\n      dup4\n        /* \"#utility.yul\":36748:36765   */\n      add\n        /* \"#utility.yul\":36741:36788   */\n      mstore\n        /* \"#utility.yul\":36805:36936   */\n      tag_853\n        /* \"#utility.yul\":36931:36935   */\n      dup2\n        /* \"#utility.yul\":36805:36936   */\n      tag_508\n      jump\t// in\n    tag_853:\n        /* \"#utility.yul\":36797:36936   */\n      swap1\n      pop\n        /* \"#utility.yul\":36524:36943   */\n      swap2\n      swap1\n      pop\n      jump\t// out\n        /* \"#utility.yul\":36949:37178   */\n    tag_509:\n        /* \"#utility.yul\":37089:37123   */\n      0x4d756c74695377617020526f757465723a20496e76616c696420746f20746f6b\n        /* \"#utility.yul\":37085:37086   */\n      0x00\n        /* \"#utility.yul\":37077:37083   */\n      dup3\n        /* \"#utility.yul\":37073:37087   */\n      add\n        /* \"#utility.yul\":37066:37124   */\n      mstore\n        /* \"#utility.yul\":37158:37170   */\n      0x656e206164647265737300000000000000000000000000000000000000000000\n        /* \"#utility.yul\":37153:37155   */\n      0x20\n        /* \"#utility.yul\":37145:37151   */\n      dup3\n        /* \"#utility.yul\":37141:37156   */\n      add\n        /* \"#utility.yul\":37134:37171   */\n      mstore\n        /* \"#utility.yul\":36949:37178   */\n      pop\n      jump\t// out\n        /* \"#utility.yul\":37184:37550   */\n    tag_510:\n        /* \"#utility.yul\":37326:37329   */\n      0x00\n        /* \"#utility.yul\":37347:37414   */\n      tag_856\n        /* \"#utility.yul\":37411:37413   */\n      0x2a\n        /* \"#utility.yul\":37406:37409   */\n      dup4\n        /* \"#utility.yul\":37347:37414   */\n      tag_418\n      jump\t// in\n    tag_856:\n        /* \"#utility.yul\":37340:37414   */\n      swap2\n      pop\n        /* \"#utility.yul\":37423:37516   */\n      tag_857\n        /* \"#utility.yul\":37512:37515   */\n      dup3\n        /* \"#utility.yul\":37423:37516   */\n      tag_509\n      jump\t// in\n    tag_857:\n        /* \"#utility.yul\":37541:37543   */\n      0x40\n        /* \"#utility.yul\":37536:37539   */\n      dup3\n        /* \"#utility.yul\":37532:37544   */\n      add\n        /* \"#utility.yul\":37525:37544   */\n      swap1\n      pop\n        /* \"#utility.yul\":37184:37550   */\n      swap2\n      swap1\n      pop\n      jump\t// out\n        /* \"#utility.yul\":37556:37975   */\n    tag_233:\n        /* \"#utility.yul\":37722:37726   */\n      0x00\n        /* \"#utility.yul\":37760:37762   */\n      0x20\n        /* \"#utility.yul\":37749:37758   */\n      dup3\n        /* \"#utility.yul\":37745:37763   */\n      add\n        /* \"#utility.yul\":37737:37763   */\n      swap1\n      pop\n        /* \"#utility.yul\":37809:37818   */\n      dup2\n        /* \"#utility.yul\":37803:37807   */\n      dup2\n        /* \"#utility.yul\":37799:37819   */\n      sub\n        /* \"#utility.yul\":37795:37796   */\n      0x00\n        /* \"#utility.yul\":37784:37793   */\n      dup4\n        /* \"#utility.yul\":37780:37797   */\n      add\n        /* \"#utility.yul\":37773:37820   */\n      mstore\n        /* \"#utility.yul\":37837:37968   */\n      tag_859\n        /* \"#utility.yul\":37963:37967   */\n      dup2\n        /* \"#utility.yul\":37837:37968   */\n      tag_510\n      jump\t// in\n    tag_859:\n        /* \"#utility.yul\":37829:37968   */\n      swap1\n      pop\n        /* \"#utility.yul\":37556:37975   */\n      swap2\n      swap1\n      pop\n      jump\t// out\n        /* \"#utility.yul\":37981:38215   */\n    tag_511:\n        /* \"#utility.yul\":38121:38155   */\n      0x4d756c74695377617020526f757465723a20416d6f756e74206d757374206265\n        /* \"#utility.yul\":38117:38118   */\n      0x00\n        /* \"#utility.yul\":38109:38115   */\n      dup3\n        /* \"#utility.yul\":38105:38119   */\n      add\n        /* \"#utility.yul\":38098:38156   */\n      mstore\n        /* \"#utility.yul\":38190:38207   */\n      0x2067726561746572207468616e20300000000000000000000000000000000000\n        /* \"#utility.yul\":38185:38187   */\n      0x20\n        /* \"#utility.yul\":38177:38183   */\n      dup3\n        /* \"#utility.yul\":38173:38188   */\n      add\n        /* \"#utility.yul\":38166:38208   */\n      mstore\n        /* \"#utility.yul\":37981:38215   */\n      pop\n      jump\t// out\n        /* \"#utility.yul\":38221:38587   */\n    tag_512:\n        /* \"#utility.yul\":38363:38366   */\n      0x00\n        /* \"#utility.yul\":38384:38451   */\n      tag_862\n        /* \"#utility.yul\":38448:38450   */\n      0x2f\n        /* \"#utility.yul\":38443:38446   */\n      dup4\n        /* \"#utility.yul\":38384:38451   */\n      tag_418\n      jump\t// in\n    tag_862:\n        /* \"#utility.yul\":38377:38451   */\n      swap2\n      pop\n        /* \"#utility.yul\":38460:38553   */\n      tag_863\n        /* \"#utility.yul\":38549:38552   */\n      dup3\n        /* \"#utility.yul\":38460:38553   */\n      tag_511\n      jump\t// in\n    tag_863:\n        /* \"#utility.yul\":38578:38580   */\n      0x40\n        /* \"#utility.yul\":38573:38576   */\n      dup3\n        /* \"#utility.yul\":38569:38581   */\n      add\n        /* \"#utility.yul\":38562:38581   */\n      swap1\n      pop\n        /* \"#utility.yul\":38221:38587   */\n      swap2\n      swap1\n      pop\n      jump\t// out\n        /* \"#utility.yul\":38593:39012   */\n    tag_236:\n        /* \"#utility.yul\":38759:38763   */\n      0x00\n        /* \"#utility.yul\":38797:38799   */\n      0x20\n        /* \"#utility.yul\":38786:38795   */\n      dup3\n        /* \"#utility.yul\":38782:38800   */\n      add\n        /* \"#utility.yul\":38774:38800   */\n      swap1\n      pop\n        /* \"#utility.yul\":38846:38855   */\n      dup2\n        /* \"#utility.yul\":38840:38844   */\n      dup2\n        /* \"#utility.yul\":38836:38856   */\n      sub\n        /* \"#utility.yul\":38832:38833   */\n      0x00\n        /* \"#utility.yul\":38821:38830   */\n      dup4\n        /* \"#utility.yul\":38817:38834   */\n      add\n        /* \"#utility.yul\":38810:38857   */\n      mstore\n        /* \"#utility.yul\":38874:39005   */\n      tag_865\n        /* \"#utility.yul\":39000:39004   */\n      dup2\n        /* \"#utility.yul\":38874:39005   */\n      tag_512\n      jump\t// in\n    tag_865:\n        /* \"#utility.yul\":38866:39005   */\n      swap1\n      pop\n        /* \"#utility.yul\":38593:39012   */\n      swap2\n      swap1\n      pop\n      jump\t// out\n        /* \"#utility.yul\":39018:39132   */\n    tag_513:\n        /* \"#utility.yul\":39085:39091   */\n      0x00\n        /* \"#utility.yul\":39119:39124   */\n      dup2\n        /* \"#utility.yul\":39113:39125   */\n      mload\n        /* \"#utility.yul\":39103:39125   */\n      swap1\n      pop\n        /* \"#utility.yul\":39018:39132   */\n      swap2\n      swap1\n      pop\n      jump\t// out\n        /* \"#utility.yul\":39138:39322   */\n    tag_514:\n        /* \"#utility.yul\":39237:39248   */\n      0x00\n        /* \"#utility.yul\":39271:39277   */\n      dup3\n        /* \"#utility.yul\":39266:39269   */\n      dup3\n        /* \"#utility.yul\":39259:39278   */\n      mstore\n        /* \"#utility.yul\":39311:39315   */\n      0x20\n        /* \"#utility.yul\":39306:39309   */\n      dup3\n        /* \"#utility.yul\":39302:39316   */\n      add\n        /* \"#utility.yul\":39287:39316   */\n      swap1\n      pop\n        /* \"#utility.yul\":39138:39322   */\n      swap3\n      swap2\n      pop\n      pop\n      jump\t// out\n        /* \"#utility.yul\":39328:39460   */\n    tag_515:\n        /* \"#utility.yul\":39395:39399   */\n      0x00\n        /* \"#utility.yul\":39418:39421   */\n      dup2\n        /* \"#utility.yul\":39410:39421   */\n      swap1\n      pop\n        /* \"#utility.yul\":39448:39452   */\n      0x20\n        /* \"#utility.yul\":39443:39446   */\n      dup3\n        /* \"#utility.yul\":39439:39453   */\n      add\n        /* \"#utility.yul\":39431:39453   */\n      swap1\n      pop\n        /* \"#utility.yul\":39328:39460   */\n      swap2\n      swap1\n      pop\n      jump\t// out\n        /* \"#utility.yul\":39466:39645   */\n    tag_516:\n        /* \"#utility.yul\":39535:39545   */\n      0x00\n        /* \"#utility.yul\":39556:39602   */\n      tag_870\n        /* \"#utility.yul\":39598:39601   */\n      dup4\n        /* \"#utility.yul\":39590:39596   */\n      dup4\n        /* \"#utility.yul\":39556:39602   */\n      tag_456\n      jump\t// in\n    tag_870:\n        /* \"#utility.yul\":39634:39638   */\n      0x20\n        /* \"#utility.yul\":39629:39632   */\n      dup4\n        /* \"#utility.yul\":39625:39639   */\n      add\n        /* \"#utility.yul\":39611:39639   */\n      swap1\n      pop\n        /* \"#utility.yul\":39466:39645   */\n      swap3\n      swap2\n      pop\n      pop\n      jump\t// out\n        /* \"#utility.yul\":39651:39764   */\n    tag_517:\n        /* \"#utility.yul\":39721:39725   */\n      0x00\n        /* \"#utility.yul\":39753:39757   */\n      0x20\n        /* \"#utility.yul\":39748:39751   */\n      dup3\n        /* \"#utility.yul\":39744:39758   */\n      add\n        /* \"#utility.yul\":39736:39758   */\n      swap1\n      pop\n        /* \"#utility.yul\":39651:39764   */\n      swap2\n      swap1\n      pop\n      jump\t// out\n        /* \"#utility.yul\":39800:40532   */\n    tag_518:\n        /* \"#utility.yul\":39919:39922   */\n      0x00\n        /* \"#utility.yul\":39948:40002   */\n      tag_873\n        /* \"#utility.yul\":39996:40001   */\n      dup3\n        /* \"#utility.yul\":39948:40002   */\n      tag_513\n      jump\t// in\n    tag_873:\n        /* \"#utility.yul\":40018:40104   */\n      tag_874\n        /* \"#utility.yul\":40097:40103   */\n      dup2\n        /* \"#utility.yul\":40092:40095   */\n      dup6\n        /* \"#utility.yul\":40018:40104   */\n      tag_514\n      jump\t// in\n    tag_874:\n        /* \"#utility.yul\":40011:40104   */\n      swap4\n      pop\n        /* \"#utility.yul\":40128:40184   */\n      tag_875\n        /* \"#utility.yul\":40178:40183   */\n      dup4\n        /* \"#utility.yul\":40128:40184   */\n      tag_515\n      jump\t// in\n    tag_875:\n        /* \"#utility.yul\":40207:40214   */\n      dup1\n        /* \"#utility.yul\":40238:40239   */\n      0x00\n        /* \"#utility.yul\":40223:40507   */\n    tag_876:\n        /* \"#utility.yul\":40248:40254   */\n      dup4\n        /* \"#utility.yul\":40245:40246   */\n      dup2\n        /* \"#utility.yul\":40242:40255   */\n      lt\n        /* \"#utility.yul\":40223:40507   */\n      iszero\n      tag_878\n      jumpi\n        /* \"#utility.yul\":40324:40330   */\n      dup2\n        /* \"#utility.yul\":40318:40331   */\n      mload\n        /* \"#utility.yul\":40351:40414   */\n      tag_879\n        /* \"#utility.yul\":40410:40413   */\n      dup9\n        /* \"#utility.yul\":40395:40408   */\n      dup3\n        /* \"#utility.yul\":40351:40414   */\n      tag_516\n      jump\t// in\n    tag_879:\n        /* \"#utility.yul\":40344:40414   */\n      swap8\n      pop\n        /* \"#utility.yul\":40437:40497   */\n      tag_880\n        /* \"#utility.yul\":40490:40496   */\n      dup4\n        /* \"#utility.yul\":40437:40497   */\n      tag_517\n      jump\t// in\n    tag_880:\n        /* \"#utility.yul\":40427:40497   */\n      swap3\n      pop\n        /* \"#utility.yul\":40283:40507   */\n      pop\n        /* \"#utility.yul\":40270:40271   */\n      0x01\n        /* \"#utility.yul\":40267:40268   */\n      dup2\n        /* \"#utility.yul\":40263:40272   */\n      add\n        /* \"#utility.yul\":40258:40272   */\n      swap1\n      pop\n        /* \"#utility.yul\":40223:40507   */\n      jump(tag_876)\n    tag_878:\n        /* \"#utility.yul\":40227:40241   */\n      pop\n        /* \"#utility.yul\":40523:40526   */\n      dup6\n        /* \"#utility.yul\":40516:40526   */\n      swap4\n      pop\n        /* \"#utility.yul\":39924:40532   */\n      pop\n      pop\n      pop\n        /* \"#utility.yul\":39800:40532   */\n      swap3\n      swap2\n      pop\n      pop\n      jump\t// out\n        /* \"#utility.yul\":40538:41353   */\n    tag_258:\n        /* \"#utility.yul\":40793:40797   */\n      0x00\n        /* \"#utility.yul\":40831:40834   */\n      0xa0\n        /* \"#utility.yul\":40820:40829   */\n      dup3\n        /* \"#utility.yul\":40816:40835   */\n      add\n        /* \"#utility.yul\":40808:40835   */\n      swap1\n      pop\n        /* \"#utility.yul\":40845:40916   */\n      tag_882\n        /* \"#utility.yul\":40913:40914   */\n      0x00\n        /* \"#utility.yul\":40902:40911   */\n      dup4\n        /* \"#utility.yul\":40898:40915   */\n      add\n        /* \"#utility.yul\":40889:40895   */\n      dup9\n        /* \"#utility.yul\":40845:40916   */\n      tag_476\n      jump\t// in\n    tag_882:\n        /* \"#utility.yul\":40926:40998   */\n      tag_883\n        /* \"#utility.yul\":40994:40996   */\n      0x20\n        /* \"#utility.yul\":40983:40992   */\n      dup4\n        /* \"#utility.yul\":40979:40997   */\n      add\n        /* \"#utility.yul\":40970:40976   */\n      dup8\n        /* \"#utility.yul\":40926:40998   */\n      tag_476\n      jump\t// in\n    tag_883:\n        /* \"#utility.yul\":41045:41054   */\n      dup2\n        /* \"#utility.yul\":41039:41043   */\n      dup2\n        /* \"#utility.yul\":41035:41055   */\n      sub\n        /* \"#utility.yul\":41030:41032   */\n      0x40\n        /* \"#utility.yul\":41019:41028   */\n      dup4\n        /* \"#utility.yul\":41015:41033   */\n      add\n        /* \"#utility.yul\":41008:41056   */\n      mstore\n        /* \"#utility.yul\":41073:41181   */\n      tag_884\n        /* \"#utility.yul\":41176:41180   */\n      dup2\n        /* \"#utility.yul\":41167:41173   */\n      dup7\n        /* \"#utility.yul\":41073:41181   */\n      tag_518\n      jump\t// in\n    tag_884:\n        /* \"#utility.yul\":41065:41181   */\n      swap1\n      pop\n        /* \"#utility.yul\":41191:41263   */\n      tag_885\n        /* \"#utility.yul\":41259:41261   */\n      0x60\n        /* \"#utility.yul\":41248:41257   */\n      dup4\n        /* \"#utility.yul\":41244:41262   */\n      add\n        /* \"#utility.yul\":41235:41241   */\n      dup6\n        /* \"#utility.yul\":41191:41263   */\n      tag_499\n      jump\t// in\n    tag_885:\n        /* \"#utility.yul\":41273:41346   */\n      tag_886\n        /* \"#utility.yul\":41341:41344   */\n      0x80\n        /* \"#utility.yul\":41330:41339   */\n      dup4\n        /* \"#utility.yul\":41326:41345   */\n      add\n        /* \"#utility.yul\":41317:41323   */\n      dup5\n        /* \"#utility.yul\":41273:41346   */\n      tag_476\n      jump\t// in\n    tag_886:\n        /* \"#utility.yul\":40538:41353   */\n      swap7\n      swap6\n      pop\n      pop\n      pop\n      pop\n      pop\n      pop\n      jump\t// out\n        /* \"#utility.yul\":41359:41769   */\n    tag_269:\n        /* \"#utility.yul\":41399:41406   */\n      0x00\n        /* \"#utility.yul\":41422:41442   */\n      tag_888\n        /* \"#utility.yul\":41440:41441   */\n      dup3\n        /* \"#utility.yul\":41422:41442   */\n      tag_433\n      jump\t// in\n    tag_888:\n        /* \"#utility.yul\":41417:41442   */\n      swap2\n      pop\n        /* \"#utility.yul\":41456:41476   */\n      tag_889\n        /* \"#utility.yul\":41474:41475   */\n      dup4\n        /* \"#utility.yul\":41456:41476   */\n      tag_433\n      jump\t// in\n    tag_889:\n        /* \"#utility.yul\":41451:41476   */\n      swap3\n      pop\n        /* \"#utility.yul\":41511:41512   */\n      dup3\n        /* \"#utility.yul\":41508:41509   */\n      dup3\n        /* \"#utility.yul\":41504:41513   */\n      mul\n        /* \"#utility.yul\":41533:41563   */\n      tag_890\n        /* \"#utility.yul\":41551:41562   */\n      dup2\n        /* \"#utility.yul\":41533:41563   */\n      tag_433\n      jump\t// in\n    tag_890:\n        /* \"#utility.yul\":41522:41563   */\n      swap2\n      pop\n        /* \"#utility.yul\":41712:41713   */\n      dup3\n        /* \"#utility.yul\":41703:41710   */\n      dup3\n        /* \"#utility.yul\":41699:41714   */\n      div\n        /* \"#utility.yul\":41696:41697   */\n      dup5\n        /* \"#utility.yul\":41693:41715   */\n      eq\n        /* \"#utility.yul\":41673:41674   */\n      dup4\n        /* \"#utility.yul\":41666:41675   */\n      iszero\n        /* \"#utility.yul\":41646:41729   */\n      or\n        /* \"#utility.yul\":41623:41762   */\n      tag_891\n      jumpi\n        /* \"#utility.yul\":41742:41760   */\n      tag_892\n      tag_486\n      jump\t// in\n    tag_892:\n        /* \"#utility.yul\":41623:41762   */\n    tag_891:\n        /* \"#utility.yul\":41407:41769   */\n      pop\n        /* \"#utility.yul\":41359:41769   */\n      swap3\n      swap2\n      pop\n      pop\n      jump\t// out\n        /* \"#utility.yul\":41775:41955   */\n    tag_519:\n        /* \"#utility.yul\":41823:41900   */\n      0x4e487b7100000000000000000000000000000000000000000000000000000000\n        /* \"#utility.yul\":41820:41821   */\n      0x00\n        /* \"#utility.yul\":41813:41901   */\n      mstore\n        /* \"#utility.yul\":41920:41924   */\n      0x12\n        /* \"#utility.yul\":41917:41918   */\n      0x04\n        /* \"#utility.yul\":41910:41925   */\n      mstore\n        /* \"#utility.yul\":41944:41948   */\n      0x24\n        /* \"#utility.yul\":41941:41942   */\n      0x00\n        /* \"#utility.yul\":41934:41949   */\n      revert\n        /* \"#utility.yul\":41961:42146   */\n    tag_271:\n        /* \"#utility.yul\":42001:42002   */\n      0x00\n        /* \"#utility.yul\":42018:42038   */\n      tag_895\n        /* \"#utility.yul\":42036:42037   */\n      dup3\n        /* \"#utility.yul\":42018:42038   */\n      tag_433\n      jump\t// in\n    tag_895:\n        /* \"#utility.yul\":42013:42038   */\n      swap2\n      pop\n        /* \"#utility.yul\":42052:42072   */\n      tag_896\n        /* \"#utility.yul\":42070:42071   */\n      dup4\n        /* \"#utility.yul\":42052:42072   */\n      tag_433\n      jump\t// in\n    tag_896:\n        /* \"#utility.yul\":42047:42072   */\n      swap3\n      pop\n        /* \"#utility.yul\":42091:42092   */\n      dup3\n        /* \"#utility.yul\":42081:42116   */\n      tag_897\n      jumpi\n        /* \"#utility.yul\":42096:42114   */\n      tag_898\n      tag_519\n      jump\t// in\n    tag_898:\n        /* \"#utility.yul\":42081:42116   */\n    tag_897:\n        /* \"#utility.yul\":42138:42139   */\n      dup3\n        /* \"#utility.yul\":42135:42136   */\n      dup3\n        /* \"#utility.yul\":42131:42140   */\n      div\n        /* \"#utility.yul\":42126:42140   */\n      swap1\n      pop\n        /* \"#utility.yul\":41961:42146   */\n      swap3\n      swap2\n      pop\n      pop\n      jump\t// out\n        /* \"#utility.yul\":42152:42321   */\n    tag_520:\n        /* \"#utility.yul\":42292:42313   */\n      0x756e777261703a207a65726f20616d6f756e7400000000000000000000000000\n        /* \"#utility.yul\":42288:42289   */\n      0x00\n        /* \"#utility.yul\":42280:42286   */\n      dup3\n        /* \"#utility.yul\":42276:42290   */\n      add\n        /* \"#utility.yul\":42269:42314   */\n      mstore\n        /* \"#utility.yul\":42152:42321   */\n      pop\n      jump\t// out\n        /* \"#utility.yul\":42327:42693   */\n    tag_521:\n        /* \"#utility.yul\":42469:42472   */\n      0x00\n        /* \"#utility.yul\":42490:42557   */\n      tag_901\n        /* \"#utility.yul\":42554:42556   */\n      0x13\n        /* \"#utility.yul\":42549:42552   */\n      dup4\n        /* \"#utility.yul\":42490:42557   */\n      tag_418\n      jump\t// in\n    tag_901:\n        /* \"#utility.yul\":42483:42557   */\n      swap2\n      pop\n        /* \"#utility.yul\":42566:42659   */\n      tag_902\n        /* \"#utility.yul\":42655:42658   */\n      dup3\n        /* \"#utility.yul\":42566:42659   */\n      tag_520\n      jump\t// in\n    tag_902:\n        /* \"#utility.yul\":42684:42686   */\n      0x20\n        /* \"#utility.yul\":42679:42682   */\n      dup3\n        /* \"#utility.yul\":42675:42687   */\n      add\n        /* \"#utility.yul\":42668:42687   */\n      swap1\n      pop\n        /* \"#utility.yul\":42327:42693   */\n      swap2\n      swap1\n      pop\n      jump\t// out\n        /* \"#utility.yul\":42699:43118   */\n    tag_276:\n        /* \"#utility.yul\":42865:42869   */\n      0x00\n        /* \"#utility.yul\":42903:42905   */\n      0x20\n        /* \"#utility.yul\":42892:42901   */\n      dup3\n        /* \"#utility.yul\":42888:42906   */\n      add\n        /* \"#utility.yul\":42880:42906   */\n      swap1\n      pop\n        /* \"#utility.yul\":42952:42961   */\n      dup2\n        /* \"#utility.yul\":42946:42950   */\n      dup2\n        /* \"#utility.yul\":42942:42962   */\n      sub\n        /* \"#utility.yul\":42938:42939   */\n      0x00\n        /* \"#utility.yul\":42927:42936   */\n      dup4\n        /* \"#utility.yul\":42923:42940   */\n      add\n        /* \"#utility.yul\":42916:42963   */\n      mstore\n        /* \"#utility.yul\":42980:43111   */\n      tag_904\n        /* \"#utility.yul\":43106:43110   */\n      dup2\n        /* \"#utility.yul\":42980:43111   */\n      tag_521\n      jump\t// in\n    tag_904:\n        /* \"#utility.yul\":42972:43111   */\n      swap1\n      pop\n        /* \"#utility.yul\":42699:43118   */\n      swap2\n      swap1\n      pop\n      jump\t// out\n        /* \"#utility.yul\":43124:43297   */\n    tag_522:\n        /* \"#utility.yul\":43264:43289   */\n      0x574554483a20696e73756666696369656e742057455448000000000000000000\n        /* \"#utility.yul\":43260:43261   */\n      0x00\n        /* \"#utility.yul\":43252:43258   */\n      dup3\n        /* \"#utility.yul\":43248:43262   */\n      add\n        /* \"#utility.yul\":43241:43290   */\n      mstore\n        /* \"#utility.yul\":43124:43297   */\n      pop\n      jump\t// out\n        /* \"#utility.yul\":43303:43669   */\n    tag_523:\n        /* \"#utility.yul\":43445:43448   */\n      0x00\n        /* \"#utility.yul\":43466:43533   */\n      tag_907\n        /* \"#utility.yul\":43530:43532   */\n      0x17\n        /* \"#utility.yul\":43525:43528   */\n      dup4\n        /* \"#utility.yul\":43466:43533   */\n      tag_418\n      jump\t// in\n    tag_907:\n        /* \"#utility.yul\":43459:43533   */\n      swap2\n      pop\n        /* \"#utility.yul\":43542:43635   */\n      tag_908\n        /* \"#utility.yul\":43631:43634   */\n      dup3\n        /* \"#utility.yul\":43542:43635   */\n      tag_522\n      jump\t// in\n    tag_908:\n        /* \"#utility.yul\":43660:43662   */\n      0x20\n        /* \"#utility.yul\":43655:43658   */\n      dup3\n        /* \"#utility.yul\":43651:43663   */\n      add\n        /* \"#utility.yul\":43644:43663   */\n      swap1\n      pop\n        /* \"#utility.yul\":43303:43669   */\n      swap2\n      swap1\n      pop\n      jump\t// out\n        /* \"#utility.yul\":43675:44094   */\n    tag_283:\n        /* \"#utility.yul\":43841:43845   */\n      0x00\n        /* \"#utility.yul\":43879:43881   */\n      0x20\n        /* \"#utility.yul\":43868:43877   */\n      dup3\n        /* \"#utility.yul\":43864:43882   */\n      add\n        /* \"#utility.yul\":43856:43882   */\n      swap1\n      pop\n        /* \"#utility.yul\":43928:43937   */\n      dup2\n        /* \"#utility.yul\":43922:43926   */\n      dup2\n        /* \"#utility.yul\":43918:43938   */\n      sub\n        /* \"#utility.yul\":43914:43915   */\n      0x00\n        /* \"#utility.yul\":43903:43912   */\n      dup4\n        /* \"#utility.yul\":43899:43916   */\n      add\n        /* \"#utility.yul\":43892:43939   */\n      mstore\n        /* \"#utility.yul\":43956:44087   */\n      tag_910\n        /* \"#utility.yul\":44082:44086   */\n      dup2\n        /* \"#utility.yul\":43956:44087   */\n      tag_523\n      jump\t// in\n    tag_910:\n        /* \"#utility.yul\":43948:44087   */\n      swap1\n      pop\n        /* \"#utility.yul\":43675:44094   */\n      swap2\n      swap1\n      pop\n      jump\t// out\n        /* \"#utility.yul\":44100:44272   */\n    tag_524:\n        /* \"#utility.yul\":44240:44264   */\n      0x73656e64546f6b656e3a207a65726f20616d6f756e7400000000000000000000\n        /* \"#utility.yul\":44236:44237   */\n      0x00\n        /* \"#utility.yul\":44228:44234   */\n      dup3\n        /* \"#utility.yul\":44224:44238   */\n      add\n        /* \"#utility.yul\":44217:44265   */\n      mstore\n        /* \"#utility.yul\":44100:44272   */\n      pop\n      jump\t// out\n        /* \"#utility.yul\":44278:44644   */\n    tag_525:\n        /* \"#utility.yul\":44420:44423   */\n      0x00\n        /* \"#utility.yul\":44441:44508   */\n      tag_913\n        /* \"#utility.yul\":44505:44507   */\n      0x16\n        /* \"#utility.yul\":44500:44503   */\n      dup4\n        /* \"#utility.yul\":44441:44508   */\n      tag_418\n      jump\t// in\n    tag_913:\n        /* \"#utility.yul\":44434:44508   */\n      swap2\n      pop\n        /* \"#utility.yul\":44517:44610   */\n      tag_914\n        /* \"#utility.yul\":44606:44609   */\n      dup3\n        /* \"#utility.yul\":44517:44610   */\n      tag_524\n      jump\t// in\n    tag_914:\n        /* \"#utility.yul\":44635:44637   */\n      0x20\n        /* \"#utility.yul\":44630:44633   */\n      dup3\n        /* \"#utility.yul\":44626:44638   */\n      add\n        /* \"#utility.yul\":44619:44638   */\n      swap1\n      pop\n        /* \"#utility.yul\":44278:44644   */\n      swap2\n      swap1\n      pop\n      jump\t// out\n        /* \"#utility.yul\":44650:45069   */\n    tag_295:\n        /* \"#utility.yul\":44816:44820   */\n      0x00\n        /* \"#utility.yul\":44854:44856   */\n      0x20\n        /* \"#utility.yul\":44843:44852   */\n      dup3\n        /* \"#utility.yul\":44839:44857   */\n      add\n        /* \"#utility.yul\":44831:44857   */\n      swap1\n      pop\n        /* \"#utility.yul\":44903:44912   */\n      dup2\n        /* \"#utility.yul\":44897:44901   */\n      dup2\n        /* \"#utility.yul\":44893:44913   */\n      sub\n        /* \"#utility.yul\":44889:44890   */\n      0x00\n        /* \"#utility.yul\":44878:44887   */\n      dup4\n        /* \"#utility.yul\":44874:44891   */\n      add\n        /* \"#utility.yul\":44867:44914   */\n      mstore\n        /* \"#utility.yul\":44931:45062   */\n      tag_916\n        /* \"#utility.yul\":45057:45061   */\n      dup2\n        /* \"#utility.yul\":44931:45062   */\n      tag_525\n      jump\t// in\n    tag_916:\n        /* \"#utility.yul\":44923:45062   */\n      swap1\n      pop\n        /* \"#utility.yul\":44650:45069   */\n      swap2\n      swap1\n      pop\n      jump\t// out\n        /* \"#utility.yul\":45075:45245   */\n    tag_526:\n        /* \"#utility.yul\":45215:45237   */\n      0x73656e644574683a207a65726f20616d6f756e74000000000000000000000000\n        /* \"#utility.yul\":45211:45212   */\n      0x00\n        /* \"#utility.yul\":45203:45209   */\n      dup3\n        /* \"#utility.yul\":45199:45213   */\n      add\n        /* \"#utility.yul\":45192:45238   */\n      mstore\n        /* \"#utility.yul\":45075:45245   */\n      pop\n      jump\t// out\n        /* \"#utility.yul\":45251:45617   */\n    tag_527:\n        /* \"#utility.yul\":45393:45396   */\n      0x00\n        /* \"#utility.yul\":45414:45481   */\n      tag_919\n        /* \"#utility.yul\":45478:45480   */\n      0x14\n        /* \"#utility.yul\":45473:45476   */\n      dup4\n        /* \"#utility.yul\":45414:45481   */\n      tag_418\n      jump\t// in\n    tag_919:\n        /* \"#utility.yul\":45407:45481   */\n      swap2\n      pop\n        /* \"#utility.yul\":45490:45583   */\n      tag_920\n        /* \"#utility.yul\":45579:45582   */\n      dup3\n        /* \"#utility.yul\":45490:45583   */\n      tag_526\n      jump\t// in\n    tag_920:\n        /* \"#utility.yul\":45608:45610   */\n      0x20\n        /* \"#utility.yul\":45603:45606   */\n      dup3\n        /* \"#utility.yul\":45599:45611   */\n      add\n        /* \"#utility.yul\":45592:45611   */\n      swap1\n      pop\n        /* \"#utility.yul\":45251:45617   */\n      swap2\n      swap1\n      pop\n      jump\t// out\n        /* \"#utility.yul\":45623:46042   */\n    tag_301:\n        /* \"#utility.yul\":45789:45793   */\n      0x00\n        /* \"#utility.yul\":45827:45829   */\n      0x20\n        /* \"#utility.yul\":45816:45825   */\n      dup3\n        /* \"#utility.yul\":45812:45830   */\n      add\n        /* \"#utility.yul\":45804:45830   */\n      swap1\n      pop\n        /* \"#utility.yul\":45876:45885   */\n      dup2\n        /* \"#utility.yul\":45870:45874   */\n      dup2\n        /* \"#utility.yul\":45866:45886   */\n      sub\n        /* \"#utility.yul\":45862:45863   */\n      0x00\n        /* \"#utility.yul\":45851:45860   */\n      dup4\n        /* \"#utility.yul\":45847:45864   */\n      add\n        /* \"#utility.yul\":45840:45887   */\n      mstore\n        /* \"#utility.yul\":45904:46035   */\n      tag_922\n        /* \"#utility.yul\":46030:46034   */\n      dup2\n        /* \"#utility.yul\":45904:46035   */\n      tag_527\n      jump\t// in\n    tag_922:\n        /* \"#utility.yul\":45896:46035   */\n      swap1\n      pop\n        /* \"#utility.yul\":45623:46042   */\n      swap2\n      swap1\n      pop\n      jump\t// out\n        /* \"#utility.yul\":46048:46223   */\n    tag_528:\n        /* \"#utility.yul\":46188:46215   */\n      0x73656e644574683a20696e73756666696369656e742045544800000000000000\n        /* \"#utility.yul\":46184:46185   */\n      0x00\n        /* \"#utility.yul\":46176:46182   */\n      dup3\n        /* \"#utility.yul\":46172:46186   */\n      add\n        /* \"#utility.yul\":46165:46216   */\n      mstore\n        /* \"#utility.yul\":46048:46223   */\n      pop\n      jump\t// out\n        /* \"#utility.yul\":46229:46595   */\n    tag_529:\n        /* \"#utility.yul\":46371:46374   */\n      0x00\n        /* \"#utility.yul\":46392:46459   */\n      tag_925\n        /* \"#utility.yul\":46456:46458   */\n      0x19\n        /* \"#utility.yul\":46451:46454   */\n      dup4\n        /* \"#utility.yul\":46392:46459   */\n      tag_418\n      jump\t// in\n    tag_925:\n        /* \"#utility.yul\":46385:46459   */\n      swap2\n      pop\n        /* \"#utility.yul\":46468:46561   */\n      tag_926\n        /* \"#utility.yul\":46557:46560   */\n      dup3\n        /* \"#utility.yul\":46468:46561   */\n      tag_528\n      jump\t// in\n    tag_926:\n        /* \"#utility.yul\":46586:46588   */\n      0x20\n        /* \"#utility.yul\":46581:46584   */\n      dup3\n        /* \"#utility.yul\":46577:46589   */\n      add\n        /* \"#utility.yul\":46570:46589   */\n      swap1\n      pop\n        /* \"#utility.yul\":46229:46595   */\n      swap2\n      swap1\n      pop\n      jump\t// out\n        /* \"#utility.yul\":46601:47020   */\n    tag_304:\n        /* \"#utility.yul\":46767:46771   */\n      0x00\n        /* \"#utility.yul\":46805:46807   */\n      0x20\n        /* \"#utility.yul\":46794:46803   */\n      dup3\n        /* \"#utility.yul\":46790:46808   */\n      add\n        /* \"#utility.yul\":46782:46808   */\n      swap1\n      pop\n        /* \"#utility.yul\":46854:46863   */\n      dup2\n        /* \"#utility.yul\":46848:46852   */\n      dup2\n        /* \"#utility.yul\":46844:46864   */\n      sub\n        /* \"#utility.yul\":46840:46841   */\n      0x00\n        /* \"#utility.yul\":46829:46838   */\n      dup4\n        /* \"#utility.yul\":46825:46842   */\n      add\n        /* \"#utility.yul\":46818:46865   */\n      mstore\n        /* \"#utility.yul\":46882:47013   */\n      tag_928\n        /* \"#utility.yul\":47008:47012   */\n      dup2\n        /* \"#utility.yul\":46882:47013   */\n      tag_529\n      jump\t// in\n    tag_928:\n        /* \"#utility.yul\":46874:47013   */\n      swap1\n      pop\n        /* \"#utility.yul\":46601:47020   */\n      swap2\n      swap1\n      pop\n      jump\t// out\n        /* \"#utility.yul\":47026:47173   */\n    tag_530:\n        /* \"#utility.yul\":47127:47138   */\n      0x00\n        /* \"#utility.yul\":47164:47167   */\n      dup2\n        /* \"#utility.yul\":47149:47167   */\n      swap1\n      pop\n        /* \"#utility.yul\":47026:47173   */\n      swap3\n      swap2\n      pop\n      pop\n      jump\t// out\n        /* \"#utility.yul\":47179:47293   */\n    tag_531:\n      pop\n      jump\t// out\n        /* \"#utility.yul\":47299:47697   */\n    tag_532:\n        /* \"#utility.yul\":47458:47461   */\n      0x00\n        /* \"#utility.yul\":47479:47562   */\n      tag_932\n        /* \"#utility.yul\":47560:47561   */\n      0x00\n        /* \"#utility.yul\":47555:47558   */\n      dup4\n        /* \"#utility.yul\":47479:47562   */\n      tag_530\n      jump\t// in\n    tag_932:\n        /* \"#utility.yul\":47472:47562   */\n      swap2\n      pop\n        /* \"#utility.yul\":47571:47664   */\n      tag_933\n        /* \"#utility.yul\":47660:47663   */\n      dup3\n        /* \"#utility.yul\":47571:47664   */\n      tag_531\n      jump\t// in\n    tag_933:\n        /* \"#utility.yul\":47689:47690   */\n      0x00\n        /* \"#utility.yul\":47684:47687   */\n      dup3\n        /* \"#utility.yul\":47680:47691   */\n      add\n        /* \"#utility.yul\":47673:47691   */\n      swap1\n      pop\n        /* \"#utility.yul\":47299:47697   */\n      swap2\n      swap1\n      pop\n      jump\t// out\n        /* \"#utility.yul\":47703:48082   */\n    tag_306:\n        /* \"#utility.yul\":47887:47890   */\n      0x00\n        /* \"#utility.yul\":47909:48056   */\n      tag_935\n        /* \"#utility.yul\":48052:48055   */\n      dup3\n        /* \"#utility.yul\":47909:48056   */\n      tag_532\n      jump\t// in\n    tag_935:\n        /* \"#utility.yul\":47902:48056   */\n      swap2\n      pop\n        /* \"#utility.yul\":48073:48076   */\n      dup2\n        /* \"#utility.yul\":48066:48076   */\n      swap1\n      pop\n        /* \"#utility.yul\":47703:48082   */\n      swap2\n      swap1\n      pop\n      jump\t// out\n        /* \"#utility.yul\":48088:48253   */\n    tag_533:\n        /* \"#utility.yul\":48228:48245   */\n      0x4554482073656e64206661696c65640000000000000000000000000000000000\n        /* \"#utility.yul\":48224:48225   */\n      0x00\n        /* \"#utility.yul\":48216:48222   */\n      dup3\n        /* \"#utility.yul\":48212:48226   */\n      add\n        /* \"#utility.yul\":48205:48246   */\n      mstore\n        /* \"#utility.yul\":48088:48253   */\n      pop\n      jump\t// out\n        /* \"#utility.yul\":48259:48625   */\n    tag_534:\n        /* \"#utility.yul\":48401:48404   */\n      0x00\n        /* \"#utility.yul\":48422:48489   */\n      tag_938\n        /* \"#utility.yul\":48486:48488   */\n      0x0f\n        /* \"#utility.yul\":48481:48484   */\n      dup4\n        /* \"#utility.yul\":48422:48489   */\n      tag_418\n      jump\t// in\n    tag_938:\n        /* \"#utility.yul\":48415:48489   */\n      swap2\n      pop\n        /* \"#utility.yul\":48498:48591   */\n      tag_939\n        /* \"#utility.yul\":48587:48590   */\n      dup3\n        /* \"#utility.yul\":48498:48591   */\n      tag_533\n      jump\t// in\n    tag_939:\n        /* \"#utility.yul\":48616:48618   */\n      0x20\n        /* \"#utility.yul\":48611:48614   */\n      dup3\n        /* \"#utility.yul\":48607:48619   */\n      add\n        /* \"#utility.yul\":48600:48619   */\n      swap1\n      pop\n        /* \"#utility.yul\":48259:48625   */\n      swap2\n      swap1\n      pop\n      jump\t// out\n        /* \"#utility.yul\":48631:49050   */\n    tag_312:\n        /* \"#utility.yul\":48797:48801   */\n      0x00\n        /* \"#utility.yul\":48835:48837   */\n      0x20\n        /* \"#utility.yul\":48824:48833   */\n      dup3\n        /* \"#utility.yul\":48820:48838   */\n      add\n        /* \"#utility.yul\":48812:48838   */\n      swap1\n      pop\n        /* \"#utility.yul\":48884:48893   */\n      dup2\n        /* \"#utility.yul\":48878:48882   */\n      dup2\n        /* \"#utility.yul\":48874:48894   */\n      sub\n        /* \"#utility.yul\":48870:48871   */\n      0x00\n        /* \"#utility.yul\":48859:48868   */\n      dup4\n        /* \"#utility.yul\":48855:48872   */\n      add\n        /* \"#utility.yul\":48848:48895   */\n      mstore\n        /* \"#utility.yul\":48912:49043   */\n      tag_941\n        /* \"#utility.yul\":49038:49042   */\n      dup2\n        /* \"#utility.yul\":48912:49043   */\n      tag_534\n      jump\t// in\n    tag_941:\n        /* \"#utility.yul\":48904:49043   */\n      swap1\n      pop\n        /* \"#utility.yul\":48631:49050   */\n      swap2\n      swap1\n      pop\n      jump\t// out\n        /* \"#utility.yul\":49056:49231   */\n    tag_535:\n        /* \"#utility.yul\":49196:49223   */\n      0x72656365697665546f6b656e3a207a65726f20616d6f756e7400000000000000\n        /* \"#utility.yul\":49192:49193   */\n      0x00\n        /* \"#utility.yul\":49184:49190   */\n      dup3\n        /* \"#utility.yul\":49180:49194   */\n      add\n        /* \"#utility.yul\":49173:49224   */\n      mstore\n        /* \"#utility.yul\":49056:49231   */\n      pop\n      jump\t// out\n        /* \"#utility.yul\":49237:49603   */\n    tag_536:\n        /* \"#utility.yul\":49379:49382   */\n      0x00\n        /* \"#utility.yul\":49400:49467   */\n      tag_944\n        /* \"#utility.yul\":49464:49466   */\n      0x19\n        /* \"#utility.yul\":49459:49462   */\n      dup4\n        /* \"#utility.yul\":49400:49467   */\n      tag_418\n      jump\t// in\n    tag_944:\n        /* \"#utility.yul\":49393:49467   */\n      swap2\n      pop\n        /* \"#utility.yul\":49476:49569   */\n      tag_945\n        /* \"#utility.yul\":49565:49568   */\n      dup3\n        /* \"#utility.yul\":49476:49569   */\n      tag_535\n      jump\t// in\n    tag_945:\n        /* \"#utility.yul\":49594:49596   */\n      0x20\n        /* \"#utility.yul\":49589:49592   */\n      dup3\n        /* \"#utility.yul\":49585:49597   */\n      add\n        /* \"#utility.yul\":49578:49597   */\n      swap1\n      pop\n        /* \"#utility.yul\":49237:49603   */\n      swap2\n      swap1\n      pop\n      jump\t// out\n        /* \"#utility.yul\":49609:50028   */\n    tag_316:\n        /* \"#utility.yul\":49775:49779   */\n      0x00\n        /* \"#utility.yul\":49813:49815   */\n      0x20\n        /* \"#utility.yul\":49802:49811   */\n      dup3\n        /* \"#utility.yul\":49798:49816   */\n      add\n        /* \"#utility.yul\":49790:49816   */\n      swap1\n      pop\n        /* \"#utility.yul\":49862:49871   */\n      dup2\n        /* \"#utility.yul\":49856:49860   */\n      dup2\n        /* \"#utility.yul\":49852:49872   */\n      sub\n        /* \"#utility.yul\":49848:49849   */\n      0x00\n        /* \"#utility.yul\":49837:49846   */\n      dup4\n        /* \"#utility.yul\":49833:49850   */\n      add\n        /* \"#utility.yul\":49826:49873   */\n      mstore\n        /* \"#utility.yul\":49890:50021   */\n      tag_947\n        /* \"#utility.yul\":50016:50020   */\n      dup2\n        /* \"#utility.yul\":49890:50021   */\n      tag_536\n      jump\t// in\n    tag_947:\n        /* \"#utility.yul\":49882:50021   */\n      swap1\n      pop\n        /* \"#utility.yul\":49609:50028   */\n      swap2\n      swap1\n      pop\n      jump\t// out\n        /* \"#utility.yul\":50034:50366   */\n    tag_318:\n        /* \"#utility.yul\":50155:50159   */\n      0x00\n        /* \"#utility.yul\":50193:50195   */\n      0x40\n        /* \"#utility.yul\":50182:50191   */\n      dup3\n        /* \"#utility.yul\":50178:50196   */\n      add\n        /* \"#utility.yul\":50170:50196   */\n      swap1\n      pop\n        /* \"#utility.yul\":50206:50277   */\n      tag_949\n        /* \"#utility.yul\":50274:50275   */\n      0x00\n        /* \"#utility.yul\":50263:50272   */\n      dup4\n        /* \"#utility.yul\":50259:50276   */\n      add\n        /* \"#utility.yul\":50250:50256   */\n      dup6\n        /* \"#utility.yul\":50206:50277   */\n      tag_499\n      jump\t// in\n    tag_949:\n        /* \"#utility.yul\":50287:50359   */\n      tag_950\n        /* \"#utility.yul\":50355:50357   */\n      0x20\n        /* \"#utility.yul\":50344:50353   */\n      dup4\n        /* \"#utility.yul\":50340:50358   */\n      add\n        /* \"#utility.yul\":50331:50337   */\n      dup5\n        /* \"#utility.yul\":50287:50359   */\n      tag_499\n      jump\t// in\n    tag_950:\n        /* \"#utility.yul\":50034:50366   */\n      swap4\n      swap3\n      pop\n      pop\n      pop\n      jump\t// out\n        /* \"#utility.yul\":50372:50602   */\n    tag_537:\n        /* \"#utility.yul\":50512:50546   */\n      0x72656365697665546f6b656e3a20616c6c6f77616e6365206973206c65737320\n        /* \"#utility.yul\":50508:50509   */\n      0x00\n        /* \"#utility.yul\":50500:50506   */\n      dup3\n        /* \"#utility.yul\":50496:50510   */\n      add\n        /* \"#utility.yul\":50489:50547   */\n      mstore\n        /* \"#utility.yul\":50581:50594   */\n      0x7468616e20616d6f756e74000000000000000000000000000000000000000000\n        /* \"#utility.yul\":50576:50578   */\n      0x20\n        /* \"#utility.yul\":50568:50574   */\n      dup3\n        /* \"#utility.yul\":50564:50579   */\n      add\n        /* \"#utility.yul\":50557:50595   */\n      mstore\n        /* \"#utility.yul\":50372:50602   */\n      pop\n      jump\t// out\n        /* \"#utility.yul\":50608:50974   */\n    tag_538:\n        /* \"#utility.yul\":50750:50753   */\n      0x00\n        /* \"#utility.yul\":50771:50838   */\n      tag_953\n        /* \"#utility.yul\":50835:50837   */\n      0x2b\n        /* \"#utility.yul\":50830:50833   */\n      dup4\n        /* \"#utility.yul\":50771:50838   */\n      tag_418\n      jump\t// in\n    tag_953:\n        /* \"#utility.yul\":50764:50838   */\n      swap2\n      pop\n        /* \"#utility.yul\":50847:50940   */\n      tag_954\n        /* \"#utility.yul\":50936:50939   */\n      dup3\n        /* \"#utility.yul\":50847:50940   */\n      tag_537\n      jump\t// in\n    tag_954:\n        /* \"#utility.yul\":50965:50967   */\n      0x40\n        /* \"#utility.yul\":50960:50963   */\n      dup3\n        /* \"#utility.yul\":50956:50968   */\n      add\n        /* \"#utility.yul\":50949:50968   */\n      swap1\n      pop\n        /* \"#utility.yul\":50608:50974   */\n      swap2\n      swap1\n      pop\n      jump\t// out\n        /* \"#utility.yul\":50980:51399   */\n    tag_324:\n        /* \"#utility.yul\":51146:51150   */\n      0x00\n        /* \"#utility.yul\":51184:51186   */\n      0x20\n        /* \"#utility.yul\":51173:51182   */\n      dup3\n        /* \"#utility.yul\":51169:51187   */\n      add\n        /* \"#utility.yul\":51161:51187   */\n      swap1\n      pop\n        /* \"#utility.yul\":51233:51242   */\n      dup2\n        /* \"#utility.yul\":51227:51231   */\n      dup2\n        /* \"#utility.yul\":51223:51243   */\n      sub\n        /* \"#utility.yul\":51219:51220   */\n      0x00\n        /* \"#utility.yul\":51208:51217   */\n      dup4\n        /* \"#utility.yul\":51204:51221   */\n      add\n        /* \"#utility.yul\":51197:51244   */\n      mstore\n        /* \"#utility.yul\":51261:51392   */\n      tag_956\n        /* \"#utility.yul\":51387:51391   */\n      dup2\n        /* \"#utility.yul\":51261:51392   */\n      tag_538\n      jump\t// in\n    tag_956:\n        /* \"#utility.yul\":51253:51392   */\n      swap1\n      pop\n        /* \"#utility.yul\":50980:51399   */\n      swap2\n      swap1\n      pop\n      jump\t// out\n        /* \"#utility.yul\":51405:51585   */\n    tag_539:\n        /* \"#utility.yul\":51545:51577   */\n      0x72656365697665546f6b656e3a206e6f7468696e672072656365697665640000\n        /* \"#utility.yul\":51541:51542   */\n      0x00\n        /* \"#utility.yul\":51533:51539   */\n      dup3\n        /* \"#utility.yul\":51529:51543   */\n      add\n        /* \"#utility.yul\":51522:51578   */\n      mstore\n        /* \"#utility.yul\":51405:51585   */\n      pop\n      jump\t// out\n        /* \"#utility.yul\":51591:51957   */\n    tag_540:\n        /* \"#utility.yul\":51733:51736   */\n      0x00\n        /* \"#utility.yul\":51754:51821   */\n      tag_959\n        /* \"#utility.yul\":51818:51820   */\n      0x1e\n        /* \"#utility.yul\":51813:51816   */\n      dup4\n        /* \"#utility.yul\":51754:51821   */\n      tag_418\n      jump\t// in\n    tag_959:\n        /* \"#utility.yul\":51747:51821   */\n      swap2\n      pop\n        /* \"#utility.yul\":51830:51923   */\n      tag_960\n        /* \"#utility.yul\":51919:51922   */\n      dup3\n        /* \"#utility.yul\":51830:51923   */\n      tag_539\n      jump\t// in\n    tag_960:\n        /* \"#utility.yul\":51948:51950   */\n      0x20\n        /* \"#utility.yul\":51943:51946   */\n      dup3\n        /* \"#utility.yul\":51939:51951   */\n      add\n        /* \"#utility.yul\":51932:51951   */\n      swap1\n      pop\n        /* \"#utility.yul\":51591:51957   */\n      swap2\n      swap1\n      pop\n      jump\t// out\n        /* \"#utility.yul\":51963:52382   */\n    tag_338:\n        /* \"#utility.yul\":52129:52133   */\n      0x00\n        /* \"#utility.yul\":52167:52169   */\n      0x20\n        /* \"#utility.yul\":52156:52165   */\n      dup3\n        /* \"#utility.yul\":52152:52170   */\n      add\n        /* \"#utility.yul\":52144:52170   */\n      swap1\n      pop\n        /* \"#utility.yul\":52216:52225   */\n      dup2\n        /* \"#utility.yul\":52210:52214   */\n      dup2\n        /* \"#utility.yul\":52206:52226   */\n      sub\n        /* \"#utility.yul\":52202:52203   */\n      0x00\n        /* \"#utility.yul\":52191:52200   */\n      dup4\n        /* \"#utility.yul\":52187:52204   */\n      add\n        /* \"#utility.yul\":52180:52227   */\n      mstore\n        /* \"#utility.yul\":52244:52375   */\n      tag_962\n        /* \"#utility.yul\":52370:52374   */\n      dup2\n        /* \"#utility.yul\":52244:52375   */\n      tag_540\n      jump\t// in\n    tag_962:\n        /* \"#utility.yul\":52236:52375   */\n      swap1\n      pop\n        /* \"#utility.yul\":51963:52382   */\n      swap2\n      swap1\n      pop\n      jump\t// out\n        /* \"#utility.yul\":52388:52473   */\n    tag_541:\n        /* \"#utility.yul\":52433:52440   */\n      0x00\n        /* \"#utility.yul\":52462:52467   */\n      dup2\n        /* \"#utility.yul\":52451:52467   */\n      swap1\n      pop\n        /* \"#utility.yul\":52388:52473   */\n      swap2\n      swap1\n      pop\n      jump\t// out\n        /* \"#utility.yul\":52479:52637   */\n    tag_542:\n        /* \"#utility.yul\":52537:52546   */\n      0x00\n        /* \"#utility.yul\":52570:52631   */\n      tag_965\n        /* \"#utility.yul\":52588:52630   */\n      tag_966\n        /* \"#utility.yul\":52597:52629   */\n      tag_967\n        /* \"#utility.yul\":52623:52628   */\n      dup5\n        /* \"#utility.yul\":52597:52629   */\n      tag_541\n      jump\t// in\n    tag_967:\n        /* \"#utility.yul\":52588:52630   */\n      tag_437\n      jump\t// in\n    tag_966:\n        /* \"#utility.yul\":52570:52631   */\n      tag_433\n      jump\t// in\n    tag_965:\n        /* \"#utility.yul\":52557:52631   */\n      swap1\n      pop\n        /* \"#utility.yul\":52479:52637   */\n      swap2\n      swap1\n      pop\n      jump\t// out\n        /* \"#utility.yul\":52643:52790   */\n    tag_543:\n        /* \"#utility.yul\":52738:52783   */\n      tag_969\n        /* \"#utility.yul\":52777:52782   */\n      dup2\n        /* \"#utility.yul\":52738:52783   */\n      tag_542\n      jump\t// in\n    tag_969:\n        /* \"#utility.yul\":52733:52736   */\n      dup3\n        /* \"#utility.yul\":52726:52784   */\n      mstore\n        /* \"#utility.yul\":52643:52790   */\n      pop\n      pop\n      jump\t// out\n        /* \"#utility.yul\":52796:53144   */\n    tag_347:\n        /* \"#utility.yul\":52925:52929   */\n      0x00\n        /* \"#utility.yul\":52963:52965   */\n      0x40\n        /* \"#utility.yul\":52952:52961   */\n      dup3\n        /* \"#utility.yul\":52948:52966   */\n      add\n        /* \"#utility.yul\":52940:52966   */\n      swap1\n      pop\n        /* \"#utility.yul\":52976:53047   */\n      tag_971\n        /* \"#utility.yul\":53044:53045   */\n      0x00\n        /* \"#utility.yul\":53033:53042   */\n      dup4\n        /* \"#utility.yul\":53029:53046   */\n      add\n        /* \"#utility.yul\":53020:53026   */\n      dup6\n        /* \"#utility.yul\":52976:53047   */\n      tag_499\n      jump\t// in\n    tag_971:\n        /* \"#utility.yul\":53057:53137   */\n      tag_972\n        /* \"#utility.yul\":53133:53135   */\n      0x20\n        /* \"#utility.yul\":53122:53131   */\n      dup4\n        /* \"#utility.yul\":53118:53136   */\n      add\n        /* \"#utility.yul\":53109:53115   */\n      dup5\n        /* \"#utility.yul\":53057:53137   */\n      tag_543\n      jump\t// in\n    tag_972:\n        /* \"#utility.yul\":52796:53144   */\n      swap4\n      swap3\n      pop\n      pop\n      pop\n      jump\t// out\n        /* \"#utility.yul\":53150:53240   */\n    tag_544:\n        /* \"#utility.yul\":53184:53191   */\n      0x00\n        /* \"#utility.yul\":53227:53232   */\n      dup2\n        /* \"#utility.yul\":53220:53233   */\n      iszero\n        /* \"#utility.yul\":53213:53234   */\n      iszero\n        /* \"#utility.yul\":53202:53234   */\n      swap1\n      pop\n        /* \"#utility.yul\":53150:53240   */\n      swap2\n      swap1\n      pop\n      jump\t// out\n        /* \"#utility.yul\":53246:53362   */\n    tag_545:\n        /* \"#utility.yul\":53316:53337   */\n      tag_975\n        /* \"#utility.yul\":53331:53336   */\n      dup2\n        /* \"#utility.yul\":53316:53337   */\n      tag_544\n      jump\t// in\n    tag_975:\n        /* \"#utility.yul\":53309:53314   */\n      dup2\n        /* \"#utility.yul\":53306:53338   */\n      eq\n        /* \"#utility.yul\":53296:53356   */\n      tag_976\n      jumpi\n        /* \"#utility.yul\":53352:53353   */\n      0x00\n        /* \"#utility.yul\":53349:53350   */\n      0x00\n        /* \"#utility.yul\":53342:53354   */\n      revert\n        /* \"#utility.yul\":53296:53356   */\n    tag_976:\n        /* \"#utility.yul\":53246:53362   */\n      pop\n      jump\t// out\n        /* \"#utility.yul\":53368:53505   */\n    tag_546:\n        /* \"#utility.yul\":53422:53427   */\n      0x00\n        /* \"#utility.yul\":53453:53459   */\n      dup2\n        /* \"#utility.yul\":53447:53460   */\n      mload\n        /* \"#utility.yul\":53438:53460   */\n      swap1\n      pop\n        /* \"#utility.yul\":53469:53499   */\n      tag_978\n        /* \"#utility.yul\":53493:53498   */\n      dup2\n        /* \"#utility.yul\":53469:53499   */\n      tag_545\n      jump\t// in\n    tag_978:\n        /* \"#utility.yul\":53368:53505   */\n      swap3\n      swap2\n      pop\n      pop\n      jump\t// out\n        /* \"#utility.yul\":53511:53856   */\n    tag_351:\n        /* \"#utility.yul\":53578:53584   */\n      0x00\n        /* \"#utility.yul\":53627:53629   */\n      0x20\n        /* \"#utility.yul\":53615:53624   */\n      dup3\n        /* \"#utility.yul\":53606:53613   */\n      dup5\n        /* \"#utility.yul\":53602:53625   */\n      sub\n        /* \"#utility.yul\":53598:53630   */\n      slt\n        /* \"#utility.yul\":53595:53714   */\n      iszero\n      tag_980\n      jumpi\n        /* \"#utility.yul\":53633:53712   */\n      tag_981\n      tag_422\n      jump\t// in\n    tag_981:\n        /* \"#utility.yul\":53595:53714   */\n    tag_980:\n        /* \"#utility.yul\":53753:53754   */\n      0x00\n        /* \"#utility.yul\":53778:53839   */\n      tag_982\n        /* \"#utility.yul\":53831:53838   */\n      dup5\n        /* \"#utility.yul\":53822:53828   */\n      dup3\n        /* \"#utility.yul\":53811:53820   */\n      dup6\n        /* \"#utility.yul\":53807:53829   */\n      add\n        /* \"#utility.yul\":53778:53839   */\n      tag_546\n      jump\t// in\n    tag_982:\n        /* \"#utility.yul\":53768:53839   */\n      swap2\n      pop\n        /* \"#utility.yul\":53724:53849   */\n      pop\n        /* \"#utility.yul\":53511:53856   */\n      swap3\n      swap2\n      pop\n      pop\n      jump\t// out\n        /* \"#utility.yul\":53862:54194   */\n    tag_353:\n        /* \"#utility.yul\":53983:53987   */\n      0x00\n        /* \"#utility.yul\":54021:54023   */\n      0x40\n        /* \"#utility.yul\":54010:54019   */\n      dup3\n        /* \"#utility.yul\":54006:54024   */\n      add\n        /* \"#utility.yul\":53998:54024   */\n      swap1\n      pop\n        /* \"#utility.yul\":54034:54105   */\n      tag_984\n        /* \"#utility.yul\":54102:54103   */\n      0x00\n        /* \"#utility.yul\":54091:54100   */\n      dup4\n        /* \"#utility.yul\":54087:54104   */\n      add\n        /* \"#utility.yul\":54078:54084   */\n      dup6\n        /* \"#utility.yul\":54034:54105   */\n      tag_499\n      jump\t// in\n    tag_984:\n        /* \"#utility.yul\":54115:54187   */\n      tag_985\n        /* \"#utility.yul\":54183:54185   */\n      0x20\n        /* \"#utility.yul\":54172:54181   */\n      dup4\n        /* \"#utility.yul\":54168:54186   */\n      add\n        /* \"#utility.yul\":54159:54165   */\n      dup5\n        /* \"#utility.yul\":54115:54187   */\n      tag_476\n      jump\t// in\n    tag_985:\n        /* \"#utility.yul\":53862:54194   */\n      swap4\n      swap3\n      pop\n      pop\n      pop\n      jump\t// out\n        /* \"#utility.yul\":54200:54380   */\n    tag_363:\n        /* \"#utility.yul\":54248:54325   */\n      0x4e487b7100000000000000000000000000000000000000000000000000000000\n        /* \"#utility.yul\":54245:54246   */\n      0x00\n        /* \"#utility.yul\":54238:54326   */\n      mstore\n        /* \"#utility.yul\":54345:54349   */\n      0x41\n        /* \"#utility.yul\":54342:54343   */\n      0x04\n        /* \"#utility.yul\":54335:54350   */\n      mstore\n        /* \"#utility.yul\":54369:54373   */\n      0x24\n        /* \"#utility.yul\":54366:54367   */\n      0x00\n        /* \"#utility.yul\":54359:54374   */\n      revert\n        /* \"#utility.yul\":54386:54869   */\n    tag_381:\n        /* \"#utility.yul\":54557:54561   */\n      0x00\n        /* \"#utility.yul\":54595:54597   */\n      0x40\n        /* \"#utility.yul\":54584:54593   */\n      dup3\n        /* \"#utility.yul\":54580:54598   */\n      add\n        /* \"#utility.yul\":54572:54598   */\n      swap1\n      pop\n        /* \"#utility.yul\":54608:54679   */\n      tag_988\n        /* \"#utility.yul\":54676:54677   */\n      0x00\n        /* \"#utility.yul\":54665:54674   */\n      dup4\n        /* \"#utility.yul\":54661:54678   */\n      add\n        /* \"#utility.yul\":54652:54658   */\n      dup6\n        /* \"#utility.yul\":54608:54679   */\n      tag_476\n      jump\t// in\n    tag_988:\n        /* \"#utility.yul\":54726:54735   */\n      dup2\n        /* \"#utility.yul\":54720:54724   */\n      dup2\n        /* \"#utility.yul\":54716:54736   */\n      sub\n        /* \"#utility.yul\":54711:54713   */\n      0x20\n        /* \"#utility.yul\":54700:54709   */\n      dup4\n        /* \"#utility.yul\":54696:54714   */\n      add\n        /* \"#utility.yul\":54689:54737   */\n      mstore\n        /* \"#utility.yul\":54754:54862   */\n      tag_989\n        /* \"#utility.yul\":54857:54861   */\n      dup2\n        /* \"#utility.yul\":54848:54854   */\n      dup5\n        /* \"#utility.yul\":54754:54862   */\n      tag_518\n      jump\t// in\n    tag_989:\n        /* \"#utility.yul\":54746:54862   */\n      swap1\n      pop\n        /* \"#utility.yul\":54386:54869   */\n      swap4\n      swap3\n      pop\n      pop\n      pop\n      jump\t// out\n        /* \"#utility.yul\":54875:54977   */\n    tag_547:\n        /* \"#utility.yul\":54916:54922   */\n      0x00\n        /* \"#utility.yul\":54967:54969   */\n      0x1f\n        /* \"#utility.yul\":54963:54970   */\n      not\n        /* \"#utility.yul\":54958:54960   */\n      0x1f\n        /* \"#utility.yul\":54951:54956   */\n      dup4\n        /* \"#utility.yul\":54947:54961   */\n      add\n        /* \"#utility.yul\":54943:54971   */\n      and\n        /* \"#utility.yul\":54933:54971   */\n      swap1\n      pop\n        /* \"#utility.yul\":54875:54977   */\n      swap2\n      swap1\n      pop\n      jump\t// out\n        /* \"#utility.yul\":54983:55264   */\n    tag_548:\n        /* \"#utility.yul\":55066:55093   */\n      tag_992\n        /* \"#utility.yul\":55088:55092   */\n      dup3\n        /* \"#utility.yul\":55066:55093   */\n      tag_547\n      jump\t// in\n    tag_992:\n        /* \"#utility.yul\":55058:55064   */\n      dup2\n        /* \"#utility.yul\":55054:55094   */\n      add\n        /* \"#utility.yul\":55196:55202   */\n      dup2\n        /* \"#utility.yul\":55184:55194   */\n      dup2\n        /* \"#utility.yul\":55181:55203   */\n      lt\n        /* \"#utility.yul\":55160:55178   */\n      0xffffffffffffffff\n        /* \"#utility.yul\":55148:55158   */\n      dup3\n        /* \"#utility.yul\":55145:55179   */\n      gt\n        /* \"#utility.yul\":55142:55204   */\n      or\n        /* \"#utility.yul\":55139:55227   */\n      iszero\n      tag_993\n      jumpi\n        /* \"#utility.yul\":55207:55225   */\n      tag_994\n      tag_363\n      jump\t// in\n    tag_994:\n        /* \"#utility.yul\":55139:55227   */\n    tag_993:\n        /* \"#utility.yul\":55247:55257   */\n      dup1\n        /* \"#utility.yul\":55243:55245   */\n      0x40\n        /* \"#utility.yul\":55236:55258   */\n      mstore\n        /* \"#utility.yul\":55026:55264   */\n      pop\n        /* \"#utility.yul\":54983:55264   */\n      pop\n      pop\n      jump\t// out\n        /* \"#utility.yul\":55270:55399   */\n    tag_549:\n        /* \"#utility.yul\":55304:55310   */\n      0x00\n        /* \"#utility.yul\":55331:55351   */\n      tag_996\n      tag_421\n      jump\t// in\n    tag_996:\n        /* \"#utility.yul\":55321:55351   */\n      swap1\n      pop\n        /* \"#utility.yul\":55360:55393   */\n      tag_997\n        /* \"#utility.yul\":55388:55392   */\n      dup3\n        /* \"#utility.yul\":55380:55386   */\n      dup3\n        /* \"#utility.yul\":55360:55393   */\n      tag_548\n      jump\t// in\n    tag_997:\n        /* \"#utility.yul\":55270:55399   */\n      swap2\n      swap1\n      pop\n      jump\t// out\n        /* \"#utility.yul\":55405:55716   */\n    tag_550:\n        /* \"#utility.yul\":55482:55486   */\n      0x00\n        /* \"#utility.yul\":55572:55590   */\n      0xffffffffffffffff\n        /* \"#utility.yul\":55564:55570   */\n      dup3\n        /* \"#utility.yul\":55561:55591   */\n      gt\n        /* \"#utility.yul\":55558:55614   */\n      iszero\n      tag_999\n      jumpi\n        /* \"#utility.yul\":55594:55612   */\n      tag_1000\n      tag_363\n      jump\t// in\n    tag_1000:\n        /* \"#utility.yul\":55558:55614   */\n    tag_999:\n        /* \"#utility.yul\":55644:55648   */\n      0x20\n        /* \"#utility.yul\":55636:55642   */\n      dup3\n        /* \"#utility.yul\":55632:55649   */\n      mul\n        /* \"#utility.yul\":55624:55649   */\n      swap1\n      pop\n        /* \"#utility.yul\":55704:55708   */\n      0x20\n        /* \"#utility.yul\":55698:55702   */\n      dup2\n        /* \"#utility.yul\":55694:55709   */\n      add\n        /* \"#utility.yul\":55686:55709   */\n      swap1\n      pop\n        /* \"#utility.yul\":55405:55716   */\n      swap2\n      swap1\n      pop\n      jump\t// out\n        /* \"#utility.yul\":55739:56471   */\n    tag_551:\n        /* \"#utility.yul\":55846:55851   */\n      0x00\n        /* \"#utility.yul\":55871:55952   */\n      tag_1002\n        /* \"#utility.yul\":55887:55951   */\n      tag_1003\n        /* \"#utility.yul\":55944:55950   */\n      dup5\n        /* \"#utility.yul\":55887:55951   */\n      tag_550\n      jump\t// in\n    tag_1003:\n        /* \"#utility.yul\":55871:55952   */\n      tag_549\n      jump\t// in\n    tag_1002:\n        /* \"#utility.yul\":55862:55952   */\n      swap1\n      pop\n        /* \"#utility.yul\":55972:55977   */\n      dup1\n        /* \"#utility.yul\":56001:56007   */\n      dup4\n        /* \"#utility.yul\":55994:55999   */\n      dup3\n        /* \"#utility.yul\":55987:56008   */\n      mstore\n        /* \"#utility.yul\":56035:56039   */\n      0x20\n        /* \"#utility.yul\":56028:56033   */\n      dup3\n        /* \"#utility.yul\":56024:56040   */\n      add\n        /* \"#utility.yul\":56017:56040   */\n      swap1\n      pop\n        /* \"#utility.yul\":56088:56092   */\n      0x20\n        /* \"#utility.yul\":56080:56086   */\n      dup5\n        /* \"#utility.yul\":56076:56093   */\n      mul\n        /* \"#utility.yul\":56068:56074   */\n      dup4\n        /* \"#utility.yul\":56064:56094   */\n      add\n        /* \"#utility.yul\":56117:56120   */\n      dup6\n        /* \"#utility.yul\":56109:56115   */\n      dup2\n        /* \"#utility.yul\":56106:56121   */\n      gt\n        /* \"#utility.yul\":56103:56225   */\n      iszero\n      tag_1004\n      jumpi\n        /* \"#utility.yul\":56136:56215   */\n      tag_1005\n      tag_426\n      jump\t// in\n    tag_1005:\n        /* \"#utility.yul\":56103:56225   */\n    tag_1004:\n        /* \"#utility.yul\":56251:56257   */\n      dup4\n        /* \"#utility.yul\":56234:56465   */\n    tag_1006:\n        /* \"#utility.yul\":56268:56274   */\n      dup2\n        /* \"#utility.yul\":56263:56266   */\n      dup2\n        /* \"#utility.yul\":56260:56275   */\n      lt\n        /* \"#utility.yul\":56234:56465   */\n      iszero\n      tag_1008\n      jumpi\n        /* \"#utility.yul\":56343:56346   */\n      dup1\n        /* \"#utility.yul\":56372:56420   */\n      tag_1009\n        /* \"#utility.yul\":56416:56419   */\n      dup9\n        /* \"#utility.yul\":56404:56414   */\n      dup3\n        /* \"#utility.yul\":56372:56420   */\n      tag_500\n      jump\t// in\n    tag_1009:\n        /* \"#utility.yul\":56367:56370   */\n      dup5\n        /* \"#utility.yul\":56360:56421   */\n      mstore\n        /* \"#utility.yul\":56450:56454   */\n      0x20\n        /* \"#utility.yul\":56445:56448   */\n      dup5\n        /* \"#utility.yul\":56441:56455   */\n      add\n        /* \"#utility.yul\":56434:56455   */\n      swap4\n      pop\n        /* \"#utility.yul\":56310:56465   */\n      pop\n        /* \"#utility.yul\":56294:56298   */\n      0x20\n        /* \"#utility.yul\":56289:56292   */\n      dup2\n        /* \"#utility.yul\":56285:56299   */\n      add\n        /* \"#utility.yul\":56278:56299   */\n      swap1\n      pop\n        /* \"#utility.yul\":56234:56465   */\n      jump(tag_1006)\n    tag_1008:\n        /* \"#utility.yul\":56238:56259   */\n      pop\n        /* \"#utility.yul\":55852:56471   */\n      pop\n      pop\n        /* \"#utility.yul\":55739:56471   */\n      swap4\n      swap3\n      pop\n      pop\n      pop\n      jump\t// out\n        /* \"#utility.yul\":56494:56879   */\n    tag_552:\n        /* \"#utility.yul\":56576:56581   */\n      0x00\n        /* \"#utility.yul\":56625:56628   */\n      dup3\n        /* \"#utility.yul\":56618:56622   */\n      0x1f\n        /* \"#utility.yul\":56610:56616   */\n      dup4\n        /* \"#utility.yul\":56606:56623   */\n      add\n        /* \"#utility.yul\":56602:56629   */\n      slt\n        /* \"#utility.yul\":56592:56714   */\n      tag_1011\n      jumpi\n        /* \"#utility.yul\":56633:56712   */\n      tag_1012\n      tag_424\n      jump\t// in\n    tag_1012:\n        /* \"#utility.yul\":56592:56714   */\n    tag_1011:\n        /* \"#utility.yul\":56743:56749   */\n      dup2\n        /* \"#utility.yul\":56737:56750   */\n      mload\n        /* \"#utility.yul\":56768:56873   */\n      tag_1013\n        /* \"#utility.yul\":56869:56872   */\n      dup5\n        /* \"#utility.yul\":56861:56867   */\n      dup3\n        /* \"#utility.yul\":56854:56858   */\n      0x20\n        /* \"#utility.yul\":56846:56852   */\n      dup7\n        /* \"#utility.yul\":56842:56859   */\n      add\n        /* \"#utility.yul\":56768:56873   */\n      tag_551\n      jump\t// in\n    tag_1013:\n        /* \"#utility.yul\":56759:56873   */\n      swap2\n      pop\n        /* \"#utility.yul\":56582:56879   */\n      pop\n        /* \"#utility.yul\":56494:56879   */\n      swap3\n      swap2\n      pop\n      pop\n      jump\t// out\n        /* \"#utility.yul\":56885:57439   */\n    tag_384:\n        /* \"#utility.yul\":56980:56986   */\n      0x00\n        /* \"#utility.yul\":57029:57031   */\n      0x20\n        /* \"#utility.yul\":57017:57026   */\n      dup3\n        /* \"#utility.yul\":57008:57015   */\n      dup5\n        /* \"#utility.yul\":57004:57027   */\n      sub\n        /* \"#utility.yul\":57000:57032   */\n      slt\n        /* \"#utility.yul\":56997:57116   */\n      iszero\n      tag_1015\n      jumpi\n        /* \"#utility.yul\":57035:57114   */\n      tag_1016\n      tag_422\n      jump\t// in\n    tag_1016:\n        /* \"#utility.yul\":56997:57116   */\n    tag_1015:\n        /* \"#utility.yul\":57176:57177   */\n      0x00\n        /* \"#utility.yul\":57165:57174   */\n      dup3\n        /* \"#utility.yul\":57161:57178   */\n      add\n        /* \"#utility.yul\":57155:57179   */\n      mload\n        /* \"#utility.yul\":57206:57224   */\n      0xffffffffffffffff\n        /* \"#utility.yul\":57198:57204   */\n      dup2\n        /* \"#utility.yul\":57195:57225   */\n      gt\n        /* \"#utility.yul\":57192:57309   */\n      iszero\n      tag_1017\n      jumpi\n        /* \"#utility.yul\":57228:57307   */\n      tag_1018\n      tag_423\n      jump\t// in\n    tag_1018:\n        /* \"#utility.yul\":57192:57309   */\n    tag_1017:\n        /* \"#utility.yul\":57333:57422   */\n      tag_1019\n        /* \"#utility.yul\":57414:57421   */\n      dup5\n        /* \"#utility.yul\":57405:57411   */\n      dup3\n        /* \"#utility.yul\":57394:57403   */\n      dup6\n        /* \"#utility.yul\":57390:57412   */\n      add\n        /* \"#utility.yul\":57333:57422   */\n      tag_552\n      jump\t// in\n    tag_1019:\n        /* \"#utility.yul\":57323:57422   */\n      swap2\n      pop\n        /* \"#utility.yul\":57126:57432   */\n      pop\n        /* \"#utility.yul\":56885:57439   */\n      swap3\n      swap2\n      pop\n      pop\n      jump\t// out\n        /* \"#utility.yul\":57445:57681   */\n    tag_553:\n        /* \"#utility.yul\":57585:57619   */\n      0x556e697377617020526f757465723a2051756f746520756e617661696c61626c\n        /* \"#utility.yul\":57581:57582   */\n      0x00\n        /* \"#utility.yul\":57573:57579   */\n      dup3\n        /* \"#utility.yul\":57569:57583   */\n      add\n        /* \"#utility.yul\":57562:57620   */\n      mstore\n        /* \"#utility.yul\":57654:57673   */\n      0x653a20706174682f6c6971756964697479000000000000000000000000000000\n        /* \"#utility.yul\":57649:57651   */\n      0x20\n        /* \"#utility.yul\":57641:57647   */\n      dup3\n        /* \"#utility.yul\":57637:57652   */\n      add\n        /* \"#utility.yul\":57630:57674   */\n      mstore\n        /* \"#utility.yul\":57445:57681   */\n      pop\n      jump\t// out\n        /* \"#utility.yul\":57687:58053   */\n    tag_554:\n        /* \"#utility.yul\":57829:57832   */\n      0x00\n        /* \"#utility.yul\":57850:57917   */\n      tag_1022\n        /* \"#utility.yul\":57914:57916   */\n      0x31\n        /* \"#utility.yul\":57909:57912   */\n      dup4\n        /* \"#utility.yul\":57850:57917   */\n      tag_418\n      jump\t// in\n    tag_1022:\n        /* \"#utility.yul\":57843:57917   */\n      swap2\n      pop\n        /* \"#utility.yul\":57926:58019   */\n      tag_1023\n        /* \"#utility.yul\":58015:58018   */\n      dup3\n        /* \"#utility.yul\":57926:58019   */\n      tag_553\n      jump\t// in\n    tag_1023:\n        /* \"#utility.yul\":58044:58046   */\n      0x40\n        /* \"#utility.yul\":58039:58042   */\n      dup3\n        /* \"#utility.yul\":58035:58047   */\n      add\n        /* \"#utility.yul\":58028:58047   */\n      swap1\n      pop\n        /* \"#utility.yul\":57687:58053   */\n      swap2\n      swap1\n      pop\n      jump\t// out\n        /* \"#utility.yul\":58059:58478   */\n    tag_390:\n        /* \"#utility.yul\":58225:58229   */\n      0x00\n        /* \"#utility.yul\":58263:58265   */\n      0x20\n        /* \"#utility.yul\":58252:58261   */\n      dup3\n        /* \"#utility.yul\":58248:58266   */\n      add\n        /* \"#utility.yul\":58240:58266   */\n      swap1\n      pop\n        /* \"#utility.yul\":58312:58321   */\n      dup2\n        /* \"#utility.yul\":58306:58310   */\n      dup2\n        /* \"#utility.yul\":58302:58322   */\n      sub\n        /* \"#utility.yul\":58298:58299   */\n      0x00\n        /* \"#utility.yul\":58287:58296   */\n      dup4\n        /* \"#utility.yul\":58283:58300   */\n      add\n        /* \"#utility.yul\":58276:58323   */\n      mstore\n        /* \"#utility.yul\":58340:58471   */\n      tag_1025\n        /* \"#utility.yul\":58466:58470   */\n      dup2\n        /* \"#utility.yul\":58340:58471   */\n      tag_554\n      jump\t// in\n    tag_1025:\n        /* \"#utility.yul\":58332:58471   */\n      swap1\n      pop\n        /* \"#utility.yul\":58059:58478   */\n      swap2\n      swap1\n      pop\n      jump\t// out\n        /* \"#utility.yul\":58484:58653   */\n    tag_555:\n        /* \"#utility.yul\":58624:58645   */\n      0x736c69707061676542697073203e203130302500000000000000000000000000\n        /* \"#utility.yul\":58620:58621   */\n      0x00\n        /* \"#utility.yul\":58612:58618   */\n      dup3\n        /* \"#utility.yul\":58608:58622   */\n      add\n        /* \"#utility.yul\":58601:58646   */\n      mstore\n        /* \"#utility.yul\":58484:58653   */\n      pop\n      jump\t// out\n        /* \"#utility.yul\":58659:59025   */\n    tag_556:\n        /* \"#utility.yul\":58801:58804   */\n      0x00\n        /* \"#utility.yul\":58822:58889   */\n      tag_1028\n        /* \"#utility.yul\":58886:58888   */\n      0x13\n        /* \"#utility.yul\":58881:58884   */\n      dup4\n        /* \"#utility.yul\":58822:58889   */\n      tag_418\n      jump\t// in\n    tag_1028:\n        /* \"#utility.yul\":58815:58889   */\n      swap2\n      pop\n        /* \"#utility.yul\":58898:58991   */\n      tag_1029\n        /* \"#utility.yul\":58987:58990   */\n      dup3\n        /* \"#utility.yul\":58898:58991   */\n      tag_555\n      jump\t// in\n    tag_1029:\n        /* \"#utility.yul\":59016:59018   */\n      0x20\n        /* \"#utility.yul\":59011:59014   */\n      dup3\n        /* \"#utility.yul\":59007:59019   */\n      add\n        /* \"#utility.yul\":59000:59019   */\n      swap1\n      pop\n        /* \"#utility.yul\":58659:59025   */\n      swap2\n      swap1\n      pop\n      jump\t// out\n        /* \"#utility.yul\":59031:59450   */\n    tag_398:\n        /* \"#utility.yul\":59197:59201   */\n      0x00\n        /* \"#utility.yul\":59235:59237   */\n      0x20\n        /* \"#utility.yul\":59224:59233   */\n      dup3\n        /* \"#utility.yul\":59220:59238   */\n      add\n        /* \"#utility.yul\":59212:59238   */\n      swap1\n      pop\n        /* \"#utility.yul\":59284:59293   */\n      dup2\n        /* \"#utility.yul\":59278:59282   */\n      dup2\n        /* \"#utility.yul\":59274:59294   */\n      sub\n        /* \"#utility.yul\":59270:59271   */\n      0x00\n        /* \"#utility.yul\":59259:59268   */\n      dup4\n        /* \"#utility.yul\":59255:59272   */\n      add\n        /* \"#utility.yul\":59248:59295   */\n      mstore\n        /* \"#utility.yul\":59312:59443   */\n      tag_1031\n        /* \"#utility.yul\":59438:59442   */\n      dup2\n        /* \"#utility.yul\":59312:59443   */\n      tag_556\n      jump\t// in\n    tag_1031:\n        /* \"#utility.yul\":59304:59443   */\n      swap1\n      pop\n        /* \"#utility.yul\":59031:59450   */\n      swap2\n      swap1\n      pop\n      jump\t// out\n        /* \"#utility.yul\":59456:59898   */\n    tag_411:\n        /* \"#utility.yul\":59605:59609   */\n      0x00\n        /* \"#utility.yul\":59643:59645   */\n      0x60\n        /* \"#utility.yul\":59632:59641   */\n      dup3\n        /* \"#utility.yul\":59628:59646   */\n      add\n        /* \"#utility.yul\":59620:59646   */\n      swap1\n      pop\n        /* \"#utility.yul\":59656:59727   */\n      tag_1033\n        /* \"#utility.yul\":59724:59725   */\n      0x00\n        /* \"#utility.yul\":59713:59722   */\n      dup4\n        /* \"#utility.yul\":59709:59726   */\n      add\n        /* \"#utility.yul\":59700:59706   */\n      dup7\n        /* \"#utility.yul\":59656:59727   */\n      tag_499\n      jump\t// in\n    tag_1033:\n        /* \"#utility.yul\":59737:59809   */\n      tag_1034\n        /* \"#utility.yul\":59805:59807   */\n      0x20\n        /* \"#utility.yul\":59794:59803   */\n      dup4\n        /* \"#utility.yul\":59790:59808   */\n      add\n        /* \"#utility.yul\":59781:59787   */\n      dup6\n        /* \"#utility.yul\":59737:59809   */\n      tag_499\n      jump\t// in\n    tag_1034:\n        /* \"#utility.yul\":59819:59891   */\n      tag_1035\n        /* \"#utility.yul\":59887:59889   */\n      0x40\n        /* \"#utility.yul\":59876:59885   */\n      dup4\n        /* \"#utility.yul\":59872:59890   */\n      add\n        /* \"#utility.yul\":59863:59869   */\n      dup5\n        /* \"#utility.yul\":59819:59891   */\n      tag_476\n      jump\t// in\n    tag_1035:\n        /* \"#utility.yul\":59456:59898   */\n      swap5\n      swap4\n      pop\n      pop\n      pop\n      pop\n      jump\t// out\n\n    auxdata: 0xa26469706673582212206ddef3406880886acaac0bb869f2c6fe19c57e939b1be2badc851f068041c01764736f6c634300081e0033\n}\n",
				"bytecode": {
					"linkReferences": {},
					"object": "60a060405234801561000f575f5ffd5b50604051613c70380380613c70833981810160405281019061003191906100d2565b808073ffffffffffffffffffffffffffffffffffffffff1660808173ffffffffffffffffffffffffffffffffffffffff16815250505060015f81905550506100fd565b5f5ffd5b5f73ffffffffffffffffffffffffffffffffffffffff82169050919050565b5f6100a182610078565b9050919050565b6100b181610097565b81146100bb575f5ffd5b50565b5f815190506100cc816100a8565b92915050565b5f602082840312156100e7576100e6610074565b5b5f6100f4848285016100be565b91505092915050565b608051613b406101305f395f818160f5015281816103c80152818161100e015281816110d30152611caf0152613b405ff3fe60806040526004361061002c575f3560e01c8063192b5887146100ac578063f887ea40146100c8576100a8565b366100a8576100396100f2565b73ffffffffffffffffffffffffffffffffffffffff163373ffffffffffffffffffffffffffffffffffffffff16146100a6576040517f08c379a000000000000000000000000000000000000000000000000000000000815260040161009d90612033565b60405180910390fd5b005b5f5ffd5b6100c660048036038101906100c191906121fa565b610185565b005b3480156100d3575f5ffd5b506100dc6103c6565b6040516100e9919061233e565b60405180910390f35b5f7f000000000000000000000000000000000000000000000000000000000000000073ffffffffffffffffffffffffffffffffffffffff1663ad5c46486040518163ffffffff1660e01b8152600401602060405180830381865afa15801561015c573d5f5f3e3d5ffd5b505050506040513d601f19601f82011682018060405250810190610180919061236b565b905090565b61018d6103ea565b5f89899050116101d2576040517f08c379a00000000000000000000000000000000000000000000000000000000081526004016101c9906123e0565b60405180910390fd5b5f8787905011610217576040517f08c379a000000000000000000000000000000000000000000000000000000000815260040161020e90612448565b60405180910390fd5b5f73ffffffffffffffffffffffffffffffffffffffff168573ffffffffffffffffffffffffffffffffffffffff1603610285576040517f08c379a000000000000000000000000000000000000000000000000000000000815260040161027c906124d6565b60405180910390fd5b6127108411156102ca576040517f08c379a00000000000000000000000000000000000000000000000000000000081526004016102c19061253e565b60405180910390fd5b4283101561030d576040517f08c379a0000000000000000000000000000000000000000000000000000000008152600401610304906125cc565b60405180910390fd5b6103178989610437565b6103218787610520565b5f61032e8a8a8787610638565b90505f61033c848484610787565b905061034c818a8a8a8a8a610a72565b61035533610bfd565b3373ffffffffffffffffffffffffffffffffffffffff167f40844c000d7e2daab466e5a3c1ee770c3e2ccb92a53ddd9df72c01e07e99afaf8c8c8c8c8b8b8b8b6040516103a9989796959493929190612939565b60405180910390a250506103bb610caf565b505050505050505050565b7f000000000000000000000000000000000000000000000000000000000000000081565b60025f540361042e576040517f08c379a0000000000000000000000000000000000000000000000000000000008152600401610425906129ef565b60405180910390fd5b60025f81905550565b5f5f5b838390508110156104d7575f73ffffffffffffffffffffffffffffffffffffffff1684848381811061046f5761046e612a0d565b5b9050604002015f0160208101906104869190612a3a565b73ffffffffffffffffffffffffffffffffffffffff16036104cc578383828181106104b4576104b3612a0d565b5b90506040020160200135826104c99190612a92565b91505b80600101905061043a565b508034101561051b576040517f08c379a000000000000000000000000000000000000000000000000000000000815260040161051290612b0f565b60405180910390fd5b505050565b5f5f90505f5f90505b838390508110156105ed575f84848381811061054857610547612a0d565b5b90506040020160200160208101906105609190612b2d565b61ffff16116105a4576040517f08c379a000000000000000000000000000000000000000000000000000000000815260040161059b90612bc8565b60405180910390fd5b8383828181106105b7576105b6612a0d565b5b90506040020160200160208101906105cf9190612b2d565b61ffff16826105de9190612a92565b91508080600101915050610529565b50612710811115610633576040517f08c379a000000000000000000000000000000000000000000000000000000000815260040161062a90612c56565b60405180910390fd5b505050565b5f5f5f90505f5f90505b8686905081101561077a575f73ffffffffffffffffffffffffffffffffffffffff1687878381811061067757610676612a0d565b5b9050604002015f01602081019061068e9190612a3a565b73ffffffffffffffffffffffffffffffffffffffff16036106ff576106d030308989858181106106c1576106c0612a0d565b5b90506040020160200135610cb8565b8686828181106106e3576106e2612a0d565b5b90506040020160200135826106f89190612a92565b915061076d565b5f61075b88888481811061071657610715612a0d565b5b9050604002015f01602081019061072d9190612a3a565b6107356100f2565b8a8a8681811061074857610747612a0d565b5b9050604002016020013533308b8b610e5d565b905080836107699190612a92565b9250505b8080600101915050610642565b5080915050949350505050565b5f5f848490500361079a57819050610a6b565b5f5f90505f5f90505b858590508110156108fe575f73ffffffffffffffffffffffffffffffffffffffff168686838181106107d8576107d7612a0d565b5b9050604002015f0160208101906107ef9190612a3a565b73ffffffffffffffffffffffffffffffffffffffff1603610845576040517f08c379a000000000000000000000000000000000000000000000000000000000815260040161083c90612cbe565b60405180910390fd5b5f86868381811061085957610858612a0d565b5b90506040020160200160208101906108719190612b2d565b61ffff16116108b5576040517f08c379a00000000000000000000000000000000000000000000000000000000081526004016108ac90612d26565b60405180910390fd5b8585828181106108c8576108c7612a0d565b5b90506040020160200160208101906108e09190612b2d565b61ffff16826108ef9190612a92565b915080806001019150506107a3565b50612710811115610944576040517f08c379a000000000000000000000000000000000000000000000000000000000815260040161093b90612d8e565b60405180910390fd5b5f8390505f5f90505b86869050811015610a64575f61098d868989858181106109705761096f612a0d565b5b90506040020160200160208101906109889190612b2d565b611206565b90505f810361099c5750610a57565b6109d0308989858181106109b3576109b2612a0d565b5b9050604002015f0160208101906109ca9190612a3a565b8361122c565b80836109dc9190612dac565b92508787838181106109f1576109f0612a0d565b5b9050604002015f016020810190610a089190612a3a565b73ffffffffffffffffffffffffffffffffffffffff167f075a2720282fdf622141dae0b048ef90a21a7e57c134c76912d19d006b3b3f6f82604051610a4d9190612ddf565b60405180910390a2505b808060010191505061094d565b5080925050505b9392505050565b5f610a7b6100f2565b90505f5f90505b86869050811015610bf3575f610ac289898985818110610aa557610aa4612a0d565b5b9050604002016020016020810190610abd9190612b2d565b611206565b90505f8103610ad15750610be6565b5f73ffffffffffffffffffffffffffffffffffffffff16888884818110610afb57610afa612a0d565b5b9050604002015f016020810190610b129190612a3a565b73ffffffffffffffffffffffffffffffffffffffff1603610b3d57610b3830878361122c565b610be4565b8273ffffffffffffffffffffffffffffffffffffffff16888884818110610b6757610b66612a0d565b5b9050604002015f016020810190610b7e9190612a3a565b73ffffffffffffffffffffffffffffffffffffffff1603610ba957610ba4838783611428565b610be3565b610be183898985818110610bc057610bbf612a0d565b5b9050604002015f016020810190610bd79190612a3a565b83308a8a8a610e5d565b505b5b505b8080600101915050610a82565b5050505050505050565b5f610c066100f2565b73ffffffffffffffffffffffffffffffffffffffff166370a08231306040518263ffffffff1660e01b8152600401610c3e9190612e07565b602060405180830381865afa158015610c59573d5f5f3e3d5ffd5b505050506040513d601f19601f82011682018060405250810190610c7d9190612e34565b90505f4790505f821115610c9757610c9630848461122c565b5b5f811115610caa57610ca9838261149f565b5b505050565b60015f81905550565b5f610cc16100f2565b90505f8211610d05576040517f08c379a0000000000000000000000000000000000000000000000000000000008152600401610cfc90612ea9565b60405180910390fd5b3073ffffffffffffffffffffffffffffffffffffffff168473ffffffffffffffffffffffffffffffffffffffff1614610d73576040517f08c379a0000000000000000000000000000000000000000000000000000000008152600401610d6a90612f37565b60405180910390fd5b81471015610db6576040517f08c379a0000000000000000000000000000000000000000000000000000000008152600401610dad90612f9f565b60405180910390fd5b5f8190508073ffffffffffffffffffffffffffffffffffffffff1663d0e30db0846040518263ffffffff1660e01b81526004015f604051808303818588803b158015610e00575f5ffd5b505af1158015610e12573d5f5f3e3d5ffd5b50505050503073ffffffffffffffffffffffffffffffffffffffff168473ffffffffffffffffffffffffffffffffffffffff1614610e5657610e55828585611428565b5b5050505050565b5f5f73ffffffffffffffffffffffffffffffffffffffff168873ffffffffffffffffffffffffffffffffffffffff1603610ecc576040517f08c379a0000000000000000000000000000000000000000000000000000000008152600401610ec39061302d565b60405180910390fd5b5f73ffffffffffffffffffffffffffffffffffffffff168773ffffffffffffffffffffffffffffffffffffffff1603610f3a576040517f08c379a0000000000000000000000000000000000000000000000000000000008152600401610f31906130bb565b60405180910390fd5b5f8611610f7c576040517f08c379a0000000000000000000000000000000000000000000000000000000008152600401610f7390613149565b60405180910390fd5b5f8690503073ffffffffffffffffffffffffffffffffffffffff168673ffffffffffffffffffffffffffffffffffffffff1614610fc157610fbe8988886115d1565b90505b8773ffffffffffffffffffffffffffffffffffffffff168973ffffffffffffffffffffffffffffffffffffffff160361100857610fff898683611428565b809150506111fb565b611033897f000000000000000000000000000000000000000000000000000000000000000083611856565b5f61103e8a8a611a07565b90505f61105461104e8484611cac565b87611db5565b90505f8a73ffffffffffffffffffffffffffffffffffffffff166370a08231896040518263ffffffff1660e01b81526004016110909190612e07565b602060405180830381865afa1580156110ab573d5f5f3e3d5ffd5b505050506040513d601f19601f820116820180604052508101906110cf9190612e34565b90507f000000000000000000000000000000000000000000000000000000000000000073ffffffffffffffffffffffffffffffffffffffff16635c11d7958584868c61111a8c611e29565b6040518663ffffffff1660e01b815260040161113a95949392919061320f565b5f604051808303815f87803b158015611151575f5ffd5b505af1158015611163573d5f5f3e3d5ffd5b505050505f8b73ffffffffffffffffffffffffffffffffffffffff166370a082318a6040518263ffffffff1660e01b81526004016111a19190612e07565b602060405180830381865afa1580156111bc573d5f5f3e3d5ffd5b505050506040513d601f19601f820116820180604052508101906111e09190612e34565b90505f82826111ef9190612dac565b90508096505050505050505b979650505050505050565b5f6127108261ffff168461121a9190613267565b61122491906132d5565b905092915050565b5f6112356100f2565b90505f8190505f831161127d576040517f08c379a00000000000000000000000000000000000000000000000000000000081526004016112749061334f565b60405180910390fd5b828173ffffffffffffffffffffffffffffffffffffffff166370a08231876040518263ffffffff1660e01b81526004016112b79190612e07565b602060405180830381865afa1580156112d2573d5f5f3e3d5ffd5b505050506040513d601f19601f820116820180604052508101906112f69190612e34565b1015611337576040517f08c379a000000000000000000000000000000000000000000000000000000000815260040161132e906133b7565b60405180910390fd5b5f8390503073ffffffffffffffffffffffffffffffffffffffff168673ffffffffffffffffffffffffffffffffffffffff161461137c576113798385886115d1565b90505b8173ffffffffffffffffffffffffffffffffffffffff16632e1a7d4d826040518263ffffffff1660e01b81526004016113b59190612ddf565b5f604051808303815f87803b1580156113cc575f5ffd5b505af11580156113de573d5f5f3e3d5ffd5b505050503073ffffffffffffffffffffffffffffffffffffffff168573ffffffffffffffffffffffffffffffffffffffff16146114205761141f858261149f565b5b505050505050565b5f8390505f821161146e576040517f08c379a00000000000000000000000000000000000000000000000000000000081526004016114659061341f565b60405180910390fd5b61149983838373ffffffffffffffffffffffffffffffffffffffff16611e3d9092919063ffffffff16565b50505050565b5f81116114e1576040517f08c379a00000000000000000000000000000000000000000000000000000000081526004016114d890613487565b60405180910390fd5b80471015611524576040517f08c379a000000000000000000000000000000000000000000000000000000000815260040161151b906134ef565b60405180910390fd5b5f8273ffffffffffffffffffffffffffffffffffffffff16826040516115499061353a565b5f6040518083038185875af1925050503d805f8114611583576040519150601f19603f3d011682016040523d82523d5f602084013e611588565b606091505b50509050806115cc576040517f08c379a00000000000000000000000000000000000000000000000000000000081526004016115c390613598565b60405180910390fd5b505050565b5f5f8490505f8411611618576040517f08c379a000000000000000000000000000000000000000000000000000000000815260040161160f90613600565b60405180910390fd5b838173ffffffffffffffffffffffffffffffffffffffff1663dd62ed3e85306040518363ffffffff1660e01b815260040161165492919061361e565b602060405180830381865afa15801561166f573d5f5f3e3d5ffd5b505050506040513d601f19601f820116820180604052508101906116939190612e34565b10156116d4576040517f08c379a00000000000000000000000000000000000000000000000000000000081526004016116cb906136b5565b60405180910390fd5b5f8173ffffffffffffffffffffffffffffffffffffffff166370a08231306040518263ffffffff1660e01b815260040161170e9190612e07565b602060405180830381865afa158015611729573d5f5f3e3d5ffd5b505050506040513d601f19601f8201168201806040525081019061174d9190612e34565b905061177c8430878573ffffffffffffffffffffffffffffffffffffffff16611ebc909392919063ffffffff16565b5f8273ffffffffffffffffffffffffffffffffffffffff166370a08231306040518263ffffffff1660e01b81526004016117b69190612e07565b602060405180830381865afa1580156117d1573d5f5f3e3d5ffd5b505050506040513d601f19601f820116820180604052508101906117f59190612e34565b90505f82826118049190612dac565b90505f8111611848576040517f08c379a000000000000000000000000000000000000000000000000000000000815260040161183f9061371d565b60405180910390fd5b809450505050509392505050565b5f8390505f8173ffffffffffffffffffffffffffffffffffffffff1663dd62ed3e30866040518363ffffffff1660e01b815260040161189692919061361e565b602060405180830381865afa1580156118b1573d5f5f3e3d5ffd5b505050506040513d601f19601f820116820180604052508101906118d59190612e34565b905082811015611a00575f8114611963578173ffffffffffffffffffffffffffffffffffffffff1663095ea7b3855f6040518363ffffffff1660e01b8152600401611921929190613774565b6020604051808303815f875af115801561193d573d5f5f3e3d5ffd5b505050506040513d601f19601f8201168201806040525081019061196191906137d0565b505b8173ffffffffffffffffffffffffffffffffffffffff1663095ea7b3857fffffffffffffffffffffffffffffffffffffffffffffffffffffffffffffffff6040518363ffffffff1660e01b81526004016119be9291906137fb565b6020604051808303815f875af11580156119da573d5f5f3e3d5ffd5b505050506040513d601f19601f820116820180604052508101906119fe91906137d0565b505b5050505050565b60605f611a126100f2565b90508073ffffffffffffffffffffffffffffffffffffffff168473ffffffffffffffffffffffffffffffffffffffff161480611a7957508073ffffffffffffffffffffffffffffffffffffffff168373ffffffffffffffffffffffffffffffffffffffff16145b15611b6c57600267ffffffffffffffff811115611a9957611a98613822565b5b604051908082528060200260200182016040528015611ac75781602001602082028036833780820191505090505b50915083825f81518110611ade57611add612a0d565b5b602002602001019073ffffffffffffffffffffffffffffffffffffffff16908173ffffffffffffffffffffffffffffffffffffffff16815250508282600181518110611b2d57611b2c612a0d565b5b602002602001019073ffffffffffffffffffffffffffffffffffffffff16908173ffffffffffffffffffffffffffffffffffffffff1681525050611ca5565b600367ffffffffffffffff811115611b8757611b86613822565b5b604051908082528060200260200182016040528015611bb55781602001602082028036833780820191505090505b50915083825f81518110611bcc57611bcb612a0d565b5b602002602001019073ffffffffffffffffffffffffffffffffffffffff16908173ffffffffffffffffffffffffffffffffffffffff16815250508082600181518110611c1b57611c1a612a0d565b5b602002602001019073ffffffffffffffffffffffffffffffffffffffff16908173ffffffffffffffffffffffffffffffffffffffff16815250508282600281518110611c6a57611c69612a0d565b5b602002602001019073ffffffffffffffffffffffffffffffffffffffff16908173ffffffffffffffffffffffffffffffffffffffff16815250505b5092915050565b5f7f000000000000000000000000000000000000000000000000000000000000000073ffffffffffffffffffffffffffffffffffffffff1663d06ca61f84846040518363ffffffff1660e01b8152600401611d0892919061384f565b5f60405180830381865afa925050508015611d4557506040513d5f823e3d601f19601f82011682018060405250810190611d429190613998565b60015b611d84576040517f08c379a0000000000000000000000000000000000000000000000000000000008152600401611d7b90613a4f565b60405180910390fd5b8060018251611d939190612dac565b81518110611da457611da3612a0d565b5b602002602001015191505092915050565b5f612710821115611dfb576040517f08c379a0000000000000000000000000000000000000000000000000000000008152600401611df290613ab7565b60405180910390fd5b61271082612710611e0c9190612dac565b84611e179190613267565b611e2191906132d5565b905092915050565b5f8142611e369190612a92565b9050919050565b611eb7838473ffffffffffffffffffffffffffffffffffffffff1663a9059cbb8585604051602401611e709291906137fb565b604051602081830303815290604052915060e01b6020820180517bffffffffffffffffffffffffffffffffffffffffffffffffffffffff8381831617835250505050611f3e565b505050565b611f38848573ffffffffffffffffffffffffffffffffffffffff166323b872dd868686604051602401611ef193929190613ad5565b604051602081830303815290604052915060e01b6020820180517bffffffffffffffffffffffffffffffffffffffffffffffffffffffff8381831617835250505050611f3e565b50505050565b5f5f60205f8451602086015f885af180611f5d576040513d5f823e3d81fd5b3d92505f519150505f8214611f76576001811415611f91565b5f8473ffffffffffffffffffffffffffffffffffffffff163b145b15611fd357836040517f5274afe7000000000000000000000000000000000000000000000000000000008152600401611fca9190612e07565b60405180910390fd5b50505050565b5f82825260208201905092915050565b7f44697265637420455448206e6f7420616c6c6f776564000000000000000000005f82015250565b5f61201d601683611fd9565b915061202882611fe9565b602082019050919050565b5f6020820190508181035f83015261204a81612011565b9050919050565b5f604051905090565b5f5ffd5b5f5ffd5b5f5ffd5b5f5ffd5b5f5ffd5b5f5f83601f84011261208357612082612062565b5b8235905067ffffffffffffffff8111156120a05761209f612066565b5b6020830191508360408202830111156120bc576120bb61206a565b5b9250929050565b5f5f83601f8401126120d8576120d7612062565b5b8235905067ffffffffffffffff8111156120f5576120f4612066565b5b6020830191508360408202830111156121115761211061206a565b5b9250929050565b5f73ffffffffffffffffffffffffffffffffffffffff82169050919050565b5f61214182612118565b9050919050565b61215181612137565b811461215b575f5ffd5b50565b5f8135905061216c81612148565b92915050565b5f819050919050565b61218481612172565b811461218e575f5ffd5b50565b5f8135905061219f8161217b565b92915050565b5f5f83601f8401126121ba576121b9612062565b5b8235905067ffffffffffffffff8111156121d7576121d6612066565b5b6020830191508360408202830111156121f3576121f261206a565b5b9250929050565b5f5f5f5f5f5f5f5f5f60c08a8c0312156122175761221661205a565b5b5f8a013567ffffffffffffffff8111156122345761223361205e565b5b6122408c828d0161206e565b995099505060208a013567ffffffffffffffff8111156122635761226261205e565b5b61226f8c828d016120c3565b975097505060406122828c828d0161215e565b95505060606122938c828d01612191565b94505060806122a48c828d01612191565b93505060a08a013567ffffffffffffffff8111156122c5576122c461205e565b5b6122d18c828d016121a5565b92509250509295985092959850929598565b5f819050919050565b5f6123066123016122fc84612118565b6122e3565b612118565b9050919050565b5f612317826122ec565b9050919050565b5f6123288261230d565b9050919050565b6123388161231e565b82525050565b5f6020820190506123515f83018461232f565b92915050565b5f8151905061236581612148565b92915050565b5f602082840312156123805761237f61205a565b5b5f61238d84828501612357565b91505092915050565b7f4d756c74695377617020526f757465723a204e6f20696e7075747300000000005f82015250565b5f6123ca601b83611fd9565b91506123d582612396565b602082019050919050565b5f6020820190508181035f8301526123f7816123be565b9050919050565b7f4d756c74695377617020526f757465723a204e6f206f757470757473000000005f82015250565b5f612432601c83611fd9565b915061243d826123fe565b602082019050919050565b5f6020820190508181035f83015261245f81612426565b9050919050565b7f4d756c74695377617020526f757465723a2052656365697665722063616e6e6f5f8201527f74206265207a65726f2061646472657373000000000000000000000000000000602082015250565b5f6124c0603183611fd9565b91506124cb82612466565b604082019050919050565b5f6020820190508181035f8301526124ed816124b4565b9050919050565b7f4d756c74695377617020526f757465723a2062616420736c69707061676500005f82015250565b5f612528601e83611fd9565b9150612533826124f4565b602082019050919050565b5f6020820190508181035f8301526125558161251c565b9050919050565b7f4d756c74695377617020526f757465723a20646561646c696e652070617373655f8201527f6400000000000000000000000000000000000000000000000000000000000000602082015250565b5f6125b6602183611fd9565b91506125c18261255c565b604082019050919050565b5f6020820190508181035f8301526125e3816125aa565b9050919050565b5f82825260208201905092915050565b5f819050919050565b5f612611602084018461215e565b905092915050565b61262281612137565b82525050565b5f6126366020840184612191565b905092915050565b61264781612172565b82525050565b6040820161265d5f830183612603565b6126695f850182612619565b506126776020830183612628565b612684602085018261263e565b50505050565b5f612695838361264d565b60408301905092915050565b5f82905092915050565b5f604082019050919050565b5f6126c283856125ea565b93506126cd826125fa565b805f5b85811015612705576126e282846126a1565b6126ec888261268a565b97506126f7836126ab565b9250506001810190506126d0565b5085925050509392505050565b5f82825260208201905092915050565b5f819050919050565b5f61ffff82169050919050565b6127418161272b565b811461274b575f5ffd5b50565b5f8135905061275c81612738565b92915050565b5f612770602084018461274e565b905092915050565b6127818161272b565b82525050565b604082016127975f830183612603565b6127a35f850182612619565b506127b16020830183612762565b6127be6020850182612778565b50505050565b5f6127cf8383612787565b60408301905092915050565b5f82905092915050565b5f604082019050919050565b5f6127fc8385612712565b935061280782612722565b805f5b8581101561283f5761281c82846127db565b61282688826127c4565b9750612831836127e5565b92505060018101905061280a565b5085925050509392505050565b61285581612172565b82525050565b5f82825260208201905092915050565b5f819050919050565b604082016128845f830183612603565b6128905f850182612619565b5061289e6020830183612762565b6128ab6020850182612778565b50505050565b5f6128bc8383612874565b60408301905092915050565b5f82905092915050565b5f604082019050919050565b5f6128e9838561285b565b93506128f48261286b565b805f5b8581101561292c5761290982846128c8565b61291388826128b1565b975061291e836128d2565b9250506001810190506128f7565b5085925050509392505050565b5f60a0820190508181035f830152612952818a8c6126b7565b9050818103602083015261296781888a6127f1565b9050612976604083018761284c565b612983606083018661284c565b81810360808301526129968184866128de565b90509998505050505050505050565b7f5265656e7472616e637947756172643a207265656e7472616e742063616c6c005f82015250565b5f6129d9601f83611fd9565b91506129e4826129a5565b602082019050919050565b5f6020820190508181035f830152612a06816129cd565b9050919050565b7f4e487b71000000000000000000000000000000000000000000000000000000005f52603260045260245ffd5b5f60208284031215612a4f57612a4e61205a565b5b5f612a5c8482850161215e565b91505092915050565b7f4e487b71000000000000000000000000000000000000000000000000000000005f52601160045260245ffd5b5f612a9c82612172565b9150612aa783612172565b9250828201905080821115612abf57612abe612a65565b5b92915050565b7f6d73672e76616c756520213d2045544820696e707574730000000000000000005f82015250565b5f612af9601783611fd9565b9150612b0482612ac5565b602082019050919050565b5f6020820190508181035f830152612b2681612aed565b9050919050565b5f60208284031215612b4257612b4161205a565b5b5f612b4f8482850161274e565b91505092915050565b7f4d756c74695377617020526f757465723a20576569676874206d7573742062655f8201527f2067726561746572207468616e20300000000000000000000000000000000000602082015250565b5f612bb2602f83611fd9565b9150612bbd82612b58565b604082019050919050565b5f6020820190508181035f830152612bdf81612ba6565b9050919050565b7f4d756c74695377617020526f757465723a20546f74616c20776569676874206d5f8201527f7573742062652031303025000000000000000000000000000000000000000000602082015250565b5f612c40602b83611fd9565b9150612c4b82612be6565b604082019050919050565b5f6020820190508181035f830152612c6d81612c34565b9050919050565b7f4665653a207a65726f20616464726573730000000000000000000000000000005f82015250565b5f612ca8601183611fd9565b9150612cb382612c74565b602082019050919050565b5f6020820190508181035f830152612cd581612c9c565b9050919050565b7f4665653a207a65726f20626970730000000000000000000000000000000000005f82015250565b5f612d10600e83611fd9565b9150612d1b82612cdc565b602082019050919050565b5f6020820190508181035f830152612d3d81612d04565b9050919050565b7f4665653a203e20313030250000000000000000000000000000000000000000005f82015250565b5f612d78600b83611fd9565b9150612d8382612d44565b602082019050919050565b5f6020820190508181035f830152612da581612d6c565b9050919050565b5f612db682612172565b9150612dc183612172565b9250828203905081811115612dd957612dd8612a65565b5b92915050565b5f602082019050612df25f83018461284c565b92915050565b612e0181612137565b82525050565b5f602082019050612e1a5f830184612df8565b92915050565b5f81519050612e2e8161217b565b92915050565b5f60208284031215612e4957612e4861205a565b5b5f612e5684828501612e20565b91505092915050565b7f777261703a207a65726f20616d6f756e740000000000000000000000000000005f82015250565b5f612e93601183611fd9565b9150612e9e82612e5f565b602082019050919050565b5f6020820190508181035f830152612ec081612e87565b9050919050565b7f777261703a206f6e6c79207468697320636f6e74726163742063616e207772615f8201527f7020455448000000000000000000000000000000000000000000000000000000602082015250565b5f612f21602583611fd9565b9150612f2c82612ec7565b604082019050919050565b5f6020820190508181035f830152612f4e81612f15565b9050919050565b7f574554483a20696e73756666696369656e7420455448000000000000000000005f82015250565b5f612f89601683611fd9565b9150612f9482612f55565b602082019050919050565b5f6020820190508181035f830152612fb681612f7d565b9050919050565b7f4d756c74695377617020526f757465723a20496e76616c69642066726f6d20745f8201527f6f6b656e20616464726573730000000000000000000000000000000000000000602082015250565b5f613017602c83611fd9565b915061302282612fbd565b604082019050919050565b5f6020820190508181035f8301526130448161300b565b9050919050565b7f4d756c74695377617020526f757465723a20496e76616c696420746f20746f6b5f8201527f656e206164647265737300000000000000000000000000000000000000000000602082015250565b5f6130a5602a83611fd9565b91506130b08261304b565b604082019050919050565b5f6020820190508181035f8301526130d281613099565b9050919050565b7f4d756c74695377617020526f757465723a20416d6f756e74206d7573742062655f8201527f2067726561746572207468616e20300000000000000000000000000000000000602082015250565b5f613133602f83611fd9565b915061313e826130d9565b604082019050919050565b5f6020820190508181035f83015261316081613127565b9050919050565b5f81519050919050565b5f82825260208201905092915050565b5f819050602082019050919050565b5f61319b8383612619565b60208301905092915050565b5f602082019050919050565b5f6131bd82613167565b6131c78185613171565b93506131d283613181565b805f5b838110156132025781516131e98882613190565b97506131f4836131a7565b9250506001810190506131d5565b5085935050505092915050565b5f60a0820190506132225f83018861284c565b61322f602083018761284c565b818103604083015261324181866131b3565b90506132506060830185612df8565b61325d608083018461284c565b9695505050505050565b5f61327182612172565b915061327c83612172565b925082820261328a81612172565b915082820484148315176132a1576132a0612a65565b5b5092915050565b7f4e487b71000000000000000000000000000000000000000000000000000000005f52601260045260245ffd5b5f6132df82612172565b91506132ea83612172565b9250826132fa576132f96132a8565b5b828204905092915050565b7f756e777261703a207a65726f20616d6f756e74000000000000000000000000005f82015250565b5f613339601383611fd9565b915061334482613305565b602082019050919050565b5f6020820190508181035f8301526133668161332d565b9050919050565b7f574554483a20696e73756666696369656e7420574554480000000000000000005f82015250565b5f6133a1601783611fd9565b91506133ac8261336d565b602082019050919050565b5f6020820190508181035f8301526133ce81613395565b9050919050565b7f73656e64546f6b656e3a207a65726f20616d6f756e74000000000000000000005f82015250565b5f613409601683611fd9565b9150613414826133d5565b602082019050919050565b5f6020820190508181035f830152613436816133fd565b9050919050565b7f73656e644574683a207a65726f20616d6f756e740000000000000000000000005f82015250565b5f613471601483611fd9565b915061347c8261343d565b602082019050919050565b5f6020820190508181035f83015261349e81613465565b9050919050565b7f73656e644574683a20696e73756666696369656e7420455448000000000000005f82015250565b5f6134d9601983611fd9565b91506134e4826134a5565b602082019050919050565b5f6020820190508181035f830152613506816134cd565b9050919050565b5f81905092915050565b50565b5f6135255f8361350d565b915061353082613517565b5f82019050919050565b5f6135448261351a565b9150819050919050565b7f4554482073656e64206661696c656400000000000000000000000000000000005f82015250565b5f613582600f83611fd9565b915061358d8261354e565b602082019050919050565b5f6020820190508181035f8301526135af81613576565b9050919050565b7f72656365697665546f6b656e3a207a65726f20616d6f756e74000000000000005f82015250565b5f6135ea601983611fd9565b91506135f5826135b6565b602082019050919050565b5f6020820190508181035f830152613617816135de565b9050919050565b5f6040820190506136315f830185612df8565b61363e6020830184612df8565b9392505050565b7f72656365697665546f6b656e3a20616c6c6f77616e6365206973206c657373205f8201527f7468616e20616d6f756e74000000000000000000000000000000000000000000602082015250565b5f61369f602b83611fd9565b91506136aa82613645565b604082019050919050565b5f6020820190508181035f8301526136cc81613693565b9050919050565b7f72656365697665546f6b656e3a206e6f7468696e6720726563656976656400005f82015250565b5f613707601e83611fd9565b9150613712826136d3565b602082019050919050565b5f6020820190508181035f830152613734816136fb565b9050919050565b5f819050919050565b5f61375e6137596137548461373b565b6122e3565b612172565b9050919050565b61376e81613744565b82525050565b5f6040820190506137875f830185612df8565b6137946020830184613765565b9392505050565b5f8115159050919050565b6137af8161379b565b81146137b9575f5ffd5b50565b5f815190506137ca816137a6565b92915050565b5f602082840312156137e5576137e461205a565b5b5f6137f2848285016137bc565b91505092915050565b5f60408201905061380e5f830185612df8565b61381b602083018461284c565b9392505050565b7f4e487b71000000000000000000000000000000000000000000000000000000005f52604160045260245ffd5b5f6040820190506138625f83018561284c565b818103602083015261387481846131b3565b90509392505050565b5f601f19601f8301169050919050565b6138968261387d565b810181811067ffffffffffffffff821117156138b5576138b4613822565b5b80604052505050565b5f6138c7612051565b90506138d3828261388d565b919050565b5f67ffffffffffffffff8211156138f2576138f1613822565b5b602082029050602081019050919050565b5f613915613910846138d8565b6138be565b905080838252602082019050602084028301858111156139385761393761206a565b5b835b81811015613961578061394d8882612e20565b84526020840193505060208101905061393a565b5050509392505050565b5f82601f83011261397f5761397e612062565b5b815161398f848260208601613903565b91505092915050565b5f602082840312156139ad576139ac61205a565b5b5f82015167ffffffffffffffff8111156139ca576139c961205e565b5b6139d68482850161396b565b91505092915050565b7f556e697377617020526f757465723a2051756f746520756e617661696c61626c5f8201527f653a20706174682f6c6971756964697479000000000000000000000000000000602082015250565b5f613a39603183611fd9565b9150613a44826139df565b604082019050919050565b5f6020820190508181035f830152613a6681613a2d565b9050919050565b7f736c69707061676542697073203e2031303025000000000000000000000000005f82015250565b5f613aa1601383611fd9565b9150613aac82613a6d565b602082019050919050565b5f6020820190508181035f830152613ace81613a95565b9050919050565b5f606082019050613ae85f830186612df8565b613af56020830185612df8565b613b02604083018461284c565b94935050505056fea26469706673582212206ddef3406880886acaac0bb869f2c6fe19c57e939b1be2badc851f068041c01764736f6c634300081e0033",
					"opcodes": "PUSH1 0xA0 PUSH1 0x40 MSTORE CALLVALUE DUP1 ISZERO PUSH2 0xF JUMPI PUSH0 PUSH0 REVERT JUMPDEST POP PUSH1 0x40 MLOAD PUSH2 0x3C70 CODESIZE SUB DUP1 PUSH2 0x3C70 DUP4 CODECOPY DUP2 DUP2 ADD PUSH1 0x40 MSTORE DUP2 ADD SWAP1 PUSH2 0x31 SWAP2 SWAP1 PUSH2 0xD2 JUMP JUMPDEST DUP1 DUP1 PUSH20 0xFFFFFFFFFFFFFFFFFFFFFFFFFFFFFFFFFFFFFFFF AND PUSH1 0x80 DUP2 PUSH20 0xFFFFFFFFFFFFFFFFFFFFFFFFFFFFFFFFFFFFFFFF AND DUP2 MSTORE POP POP POP PUSH1 0x1 PUSH0 DUP2 SWAP1 SSTORE POP POP PUSH2 0xFD JUMP JUMPDEST PUSH0 PUSH0 REVERT JUMPDEST PUSH0 PUSH20 0xFFFFFFFFFFFFFFFFFFFFFFFFFFFFFFFFFFFFFFFF DUP3 AND SWAP1 POP SWAP2 SWAP1 POP JUMP JUMPDEST PUSH0 PUSH2 0xA1 DUP3 PUSH2 0x78 JUMP JUMPDEST SWAP1 POP SWAP2 SWAP1 POP JUMP JUMPDEST PUSH2 0xB1 DUP2 PUSH2 0x97 JUMP JUMPDEST DUP2 EQ PUSH2 0xBB JUMPI PUSH0 PUSH0 REVERT JUMPDEST POP JUMP JUMPDEST PUSH0 DUP2 MLOAD SWAP1 POP PUSH2 0xCC DUP2 PUSH2 0xA8 JUMP JUMPDEST SWAP3 SWAP2 POP POP JUMP JUMPDEST PUSH0 PUSH1 0x20 DUP3 DUP5 SUB SLT ISZERO PUSH2 0xE7 JUMPI PUSH2 0xE6 PUSH2 0x74 JUMP JUMPDEST JUMPDEST PUSH0 PUSH2 0xF4 DUP5 DUP3 DUP6 ADD PUSH2 0xBE JUMP JUMPDEST SWAP2 POP POP SWAP3 SWAP2 POP POP JUMP JUMPDEST PUSH1 0x80 MLOAD PUSH2 0x3B40 PUSH2 0x130 PUSH0 CODECOPY PUSH0 DUP2 DUP2 PUSH1 0xF5 ADD MSTORE DUP2 DUP2 PUSH2 0x3C8 ADD MSTORE DUP2 DUP2 PUSH2 0x100E ADD MSTORE DUP2 DUP2 PUSH2 0x10D3 ADD MSTORE PUSH2 0x1CAF ADD MSTORE PUSH2 0x3B40 PUSH0 RETURN INVALID PUSH1 0x80 PUSH1 0x40 MSTORE PUSH1 0x4 CALLDATASIZE LT PUSH2 0x2C JUMPI PUSH0 CALLDATALOAD PUSH1 0xE0 SHR DUP1 PUSH4 0x192B5887 EQ PUSH2 0xAC JUMPI DUP1 PUSH4 0xF887EA40 EQ PUSH2 0xC8 JUMPI PUSH2 0xA8 JUMP JUMPDEST CALLDATASIZE PUSH2 0xA8 JUMPI PUSH2 0x39 PUSH2 0xF2 JUMP JUMPDEST PUSH20 0xFFFFFFFFFFFFFFFFFFFFFFFFFFFFFFFFFFFFFFFF AND CALLER PUSH20 0xFFFFFFFFFFFFFFFFFFFFFFFFFFFFFFFFFFFFFFFF AND EQ PUSH2 0xA6 JUMPI PUSH1 0x40 MLOAD PUSH32 0x8C379A000000000000000000000000000000000000000000000000000000000 DUP2 MSTORE PUSH1 0x4 ADD PUSH2 0x9D SWAP1 PUSH2 0x2033 JUMP JUMPDEST PUSH1 0x40 MLOAD DUP1 SWAP2 SUB SWAP1 REVERT JUMPDEST STOP JUMPDEST PUSH0 PUSH0 REVERT JUMPDEST PUSH2 0xC6 PUSH1 0x4 DUP1 CALLDATASIZE SUB DUP2 ADD SWAP1 PUSH2 0xC1 SWAP2 SWAP1 PUSH2 0x21FA JUMP JUMPDEST PUSH2 0x185 JUMP JUMPDEST STOP JUMPDEST CALLVALUE DUP1 ISZERO PUSH2 0xD3 JUMPI PUSH0 PUSH0 REVERT JUMPDEST POP PUSH2 0xDC PUSH2 0x3C6 JUMP JUMPDEST PUSH1 0x40 MLOAD PUSH2 0xE9 SWAP2 SWAP1 PUSH2 0x233E JUMP JUMPDEST PUSH1 0x40 MLOAD DUP1 SWAP2 SUB SWAP1 RETURN JUMPDEST PUSH0 PUSH32 0x0 PUSH20 0xFFFFFFFFFFFFFFFFFFFFFFFFFFFFFFFFFFFFFFFF AND PUSH4 0xAD5C4648 PUSH1 0x40 MLOAD DUP2 PUSH4 0xFFFFFFFF AND PUSH1 0xE0 SHL DUP2 MSTORE PUSH1 0x4 ADD PUSH1 0x20 PUSH1 0x40 MLOAD DUP1 DUP4 SUB DUP2 DUP7 GAS STATICCALL ISZERO DUP1 ISZERO PUSH2 0x15C JUMPI RETURNDATASIZE PUSH0 PUSH0 RETURNDATACOPY RETURNDATASIZE PUSH0 REVERT JUMPDEST POP POP POP POP PUSH1 0x40 MLOAD RETURNDATASIZE PUSH1 0x1F NOT PUSH1 0x1F DUP3 ADD AND DUP3 ADD DUP1 PUSH1 0x40 MSTORE POP DUP2 ADD SWAP1 PUSH2 0x180 SWAP2 SWAP1 PUSH2 0x236B JUMP JUMPDEST SWAP1 POP SWAP1 JUMP JUMPDEST PUSH2 0x18D PUSH2 0x3EA JUMP JUMPDEST PUSH0 DUP10 DUP10 SWAP1 POP GT PUSH2 0x1D2 JUMPI PUSH1 0x40 MLOAD PUSH32 0x8C379A000000000000000000000000000000000000000000000000000000000 DUP2 MSTORE PUSH1 0x4 ADD PUSH2 0x1C9 SWAP1 PUSH2 0x23E0 JUMP JUMPDEST PUSH1 0x40 MLOAD DUP1 SWAP2 SUB SWAP1 REVERT JUMPDEST PUSH0 DUP8 DUP8 SWAP1 POP GT PUSH2 0x217 JUMPI PUSH1 0x40 MLOAD PUSH32 0x8C379A000000000000000000000000000000000000000000000000000000000 DUP2 MSTORE PUSH1 0x4 ADD PUSH2 0x20E SWAP1 PUSH2 0x2448 JUMP JUMPDEST PUSH1 0x40 MLOAD DUP1 SWAP2 SUB SWAP1 REVERT JUMPDEST PUSH0 PUSH20 0xFFFFFFFFFFFFFFFFFFFFFFFFFFFFFFFFFFFFFFFF AND DUP6 PUSH20 0xFFFFFFFFFFFFFFFFFFFFFFFFFFFFFFFFFFFFFFFF AND SUB PUSH2 0x285 JUMPI PUSH1 0x40 MLOAD PUSH32 0x8C379A000000000000000000000000000000000000000000000000000000000 DUP2 MSTORE PUSH1 0x4 ADD PUSH2 0x27C SWAP1 PUSH2 0x24D6 JUMP JUMPDEST PUSH1 0x40 MLOAD DUP1 SWAP2 SUB SWAP1 REVERT JUMPDEST PUSH2 0x2710 DUP5 GT ISZERO PUSH2 0x2CA JUMPI PUSH1 0x40 MLOAD PUSH32 0x8C379A000000000000000000000000000000000000000000000000000000000 DUP2 MSTORE PUSH1 0x4 ADD PUSH2 0x2C1 SWAP1 PUSH2 0x253E JUMP JUMPDEST PUSH1 0x40 MLOAD DUP1 SWAP2 SUB SWAP1 REVERT JUMPDEST TIMESTAMP DUP4 LT ISZERO PUSH2 0x30D JUMPI PUSH1 0x40 MLOAD PUSH32 0x8C379A000000000000000000000000000000000000000000000000000000000 DUP2 MSTORE PUSH1 0x4 ADD PUSH2 0x304 SWAP1 PUSH2 0x25CC JUMP JUMPDEST PUSH1 0x40 MLOAD DUP1 SWAP2 SUB SWAP1 REVERT JUMPDEST PUSH2 0x317 DUP10 DUP10 PUSH2 0x437 JUMP JUMPDEST PUSH2 0x321 DUP8 DUP8 PUSH2 0x520 JUMP JUMPDEST PUSH0 PUSH2 0x32E DUP11 DUP11 DUP8 DUP8 PUSH2 0x638 JUMP JUMPDEST SWAP1 POP PUSH0 PUSH2 0x33C DUP5 DUP5 DUP5 PUSH2 0x787 JUMP JUMPDEST SWAP1 POP PUSH2 0x34C DUP2 DUP11 DUP11 DUP11 DUP11 DUP11 PUSH2 0xA72 JUMP JUMPDEST PUSH2 0x355 CALLER PUSH2 0xBFD JUMP JUMPDEST CALLER PUSH20 0xFFFFFFFFFFFFFFFFFFFFFFFFFFFFFFFFFFFFFFFF AND PUSH32 0x40844C000D7E2DAAB466E5A3C1EE770C3E2CCB92A53DDD9DF72C01E07E99AFAF DUP13 DUP13 DUP13 DUP13 DUP12 DUP12 DUP12 DUP12 PUSH1 0x40 MLOAD PUSH2 0x3A9 SWAP9 SWAP8 SWAP7 SWAP6 SWAP5 SWAP4 SWAP3 SWAP2 SWAP1 PUSH2 0x2939 JUMP JUMPDEST PUSH1 0x40 MLOAD DUP1 SWAP2 SUB SWAP1 LOG2 POP POP PUSH2 0x3BB PUSH2 0xCAF JUMP JUMPDEST POP POP POP POP POP POP POP POP POP JUMP JUMPDEST PUSH32 0x0 DUP2 JUMP JUMPDEST PUSH1 0x2 PUSH0 SLOAD SUB PUSH2 0x42E JUMPI PUSH1 0x40 MLOAD PUSH32 0x8C379A000000000000000000000000000000000000000000000000000000000 DUP2 MSTORE PUSH1 0x4 ADD PUSH2 0x425 SWAP1 PUSH2 0x29EF JUMP JUMPDEST PUSH1 0x40 MLOAD DUP1 SWAP2 SUB SWAP1 REVERT JUMPDEST PUSH1 0x2 PUSH0 DUP2 SWAP1 SSTORE POP JUMP JUMPDEST PUSH0 PUSH0 JUMPDEST DUP4 DUP4 SWAP1 POP DUP2 LT ISZERO PUSH2 0x4D7 JUMPI PUSH0 PUSH20 0xFFFFFFFFFFFFFFFFFFFFFFFFFFFFFFFFFFFFFFFF AND DUP5 DUP5 DUP4 DUP2 DUP2 LT PUSH2 0x46F JUMPI PUSH2 0x46E PUSH2 0x2A0D JUMP JUMPDEST JUMPDEST SWAP1 POP PUSH1 0x40 MUL ADD PUSH0 ADD PUSH1 0x20 DUP2 ADD SWAP1 PUSH2 0x486 SWAP2 SWAP1 PUSH2 0x2A3A JUMP JUMPDEST PUSH20 0xFFFFFFFFFFFFFFFFFFFFFFFFFFFFFFFFFFFFFFFF AND SUB PUSH2 0x4CC JUMPI DUP4 DUP4 DUP3 DUP2 DUP2 LT PUSH2 0x4B4 JUMPI PUSH2 0x4B3 PUSH2 0x2A0D JUMP JUMPDEST JUMPDEST SWAP1 POP PUSH1 0x40 MUL ADD PUSH1 0x20 ADD CALLDATALOAD DUP3 PUSH2 0x4C9 SWAP2 SWAP1 PUSH2 0x2A92 JUMP JUMPDEST SWAP2 POP JUMPDEST DUP1 PUSH1 0x1 ADD SWAP1 POP PUSH2 0x43A JUMP JUMPDEST POP DUP1 CALLVALUE LT ISZERO PUSH2 0x51B JUMPI PUSH1 0x40 MLOAD PUSH32 0x8C379A000000000000000000000000000000000000000000000000000000000 DUP2 MSTORE PUSH1 0x4 ADD PUSH2 0x512 SWAP1 PUSH2 0x2B0F JUMP JUMPDEST PUSH1 0x40 MLOAD DUP1 SWAP2 SUB SWAP1 REVERT JUMPDEST POP POP POP JUMP JUMPDEST PUSH0 PUSH0 SWAP1 POP PUSH0 PUSH0 SWAP1 POP JUMPDEST DUP4 DUP4 SWAP1 POP DUP2 LT ISZERO PUSH2 0x5ED JUMPI PUSH0 DUP5 DUP5 DUP4 DUP2 DUP2 LT PUSH2 0x548 JUMPI PUSH2 0x547 PUSH2 0x2A0D JUMP JUMPDEST JUMPDEST SWAP1 POP PUSH1 0x40 MUL ADD PUSH1 0x20 ADD PUSH1 0x20 DUP2 ADD SWAP1 PUSH2 0x560 SWAP2 SWAP1 PUSH2 0x2B2D JUMP JUMPDEST PUSH2 0xFFFF AND GT PUSH2 0x5A4 JUMPI PUSH1 0x40 MLOAD PUSH32 0x8C379A000000000000000000000000000000000000000000000000000000000 DUP2 MSTORE PUSH1 0x4 ADD PUSH2 0x59B SWAP1 PUSH2 0x2BC8 JUMP JUMPDEST PUSH1 0x40 MLOAD DUP1 SWAP2 SUB SWAP1 REVERT JUMPDEST DUP4 DUP4 DUP3 DUP2 DUP2 LT PUSH2 0x5B7 JUMPI PUSH2 0x5B6 PUSH2 0x2A0D JUMP JUMPDEST JUMPDEST SWAP1 POP PUSH1 0x40 MUL ADD PUSH1 0x20 ADD PUSH1 0x20 DUP2 ADD SWAP1 PUSH2 0x5CF SWAP2 SWAP1 PUSH2 0x2B2D JUMP JUMPDEST PUSH2 0xFFFF AND DUP3 PUSH2 0x5DE SWAP2 SWAP1 PUSH2 0x2A92 JUMP JUMPDEST SWAP2 POP DUP1 DUP1 PUSH1 0x1 ADD SWAP2 POP POP PUSH2 0x529 JUMP JUMPDEST POP PUSH2 0x2710 DUP2 GT ISZERO PUSH2 0x633 JUMPI PUSH1 0x40 MLOAD PUSH32 0x8C379A000000000000000000000000000000000000000000000000000000000 DUP2 MSTORE PUSH1 0x4 ADD PUSH2 0x62A SWAP1 PUSH2 0x2C56 JUMP JUMPDEST PUSH1 0x40 MLOAD DUP1 SWAP2 SUB SWAP1 REVERT JUMPDEST POP POP POP JUMP JUMPDEST PUSH0 PUSH0 PUSH0 SWAP1 POP PUSH0 PUSH0 SWAP1 POP JUMPDEST DUP7 DUP7 SWAP1 POP DUP2 LT ISZERO PUSH2 0x77A JUMPI PUSH0 PUSH20 0xFFFFFFFFFFFFFFFFFFFFFFFFFFFFFFFFFFFFFFFF AND DUP8 DUP8 DUP4 DUP2 DUP2 LT PUSH2 0x677 JUMPI PUSH2 0x676 PUSH2 0x2A0D JUMP JUMPDEST JUMPDEST SWAP1 POP PUSH1 0x40 MUL ADD PUSH0 ADD PUSH1 0x20 DUP2 ADD SWAP1 PUSH2 0x68E SWAP2 SWAP1 PUSH2 0x2A3A JUMP JUMPDEST PUSH20 0xFFFFFFFFFFFFFFFFFFFFFFFFFFFFFFFFFFFFFFFF AND SUB PUSH2 0x6FF JUMPI PUSH2 0x6D0 ADDRESS ADDRESS DUP10 DUP10 DUP6 DUP2 DUP2 LT PUSH2 0x6C1 JUMPI PUSH2 0x6C0 PUSH2 0x2A0D JUMP JUMPDEST JUMPDEST SWAP1 POP PUSH1 0x40 MUL ADD PUSH1 0x20 ADD CALLDATALOAD PUSH2 0xCB8 JUMP JUMPDEST DUP7 DUP7 DUP3 DUP2 DUP2 LT PUSH2 0x6E3 JUMPI PUSH2 0x6E2 PUSH2 0x2A0D JUMP JUMPDEST JUMPDEST SWAP1 POP PUSH1 0x40 MUL ADD PUSH1 0x20 ADD CALLDATALOAD DUP3 PUSH2 0x6F8 SWAP2 SWAP1 PUSH2 0x2A92 JUMP JUMPDEST SWAP2 POP PUSH2 0x76D JUMP JUMPDEST PUSH0 PUSH2 0x75B DUP9 DUP9 DUP5 DUP2 DUP2 LT PUSH2 0x716 JUMPI PUSH2 0x715 PUSH2 0x2A0D JUMP JUMPDEST JUMPDEST SWAP1 POP PUSH1 0x40 MUL ADD PUSH0 ADD PUSH1 0x20 DUP2 ADD SWAP1 PUSH2 0x72D SWAP2 SWAP1 PUSH2 0x2A3A JUMP JUMPDEST PUSH2 0x735 PUSH2 0xF2 JUMP JUMPDEST DUP11 DUP11 DUP7 DUP2 DUP2 LT PUSH2 0x748 JUMPI PUSH2 0x747 PUSH2 0x2A0D JUMP JUMPDEST JUMPDEST SWAP1 POP PUSH1 0x40 MUL ADD PUSH1 0x20 ADD CALLDATALOAD CALLER ADDRESS DUP12 DUP12 PUSH2 0xE5D JUMP JUMPDEST SWAP1 POP DUP1 DUP4 PUSH2 0x769 SWAP2 SWAP1 PUSH2 0x2A92 JUMP JUMPDEST SWAP3 POP POP JUMPDEST DUP1 DUP1 PUSH1 0x1 ADD SWAP2 POP POP PUSH2 0x642 JUMP JUMPDEST POP DUP1 SWAP2 POP POP SWAP5 SWAP4 POP POP POP POP JUMP JUMPDEST PUSH0 PUSH0 DUP5 DUP5 SWAP1 POP SUB PUSH2 0x79A JUMPI DUP2 SWAP1 POP PUSH2 0xA6B JUMP JUMPDEST PUSH0 PUSH0 SWAP1 POP PUSH0 PUSH0 SWAP1 POP JUMPDEST DUP6 DUP6 SWAP1 POP DUP2 LT ISZERO PUSH2 0x8FE JUMPI PUSH0 PUSH20 0xFFFFFFFFFFFFFFFFFFFFFFFFFFFFFFFFFFFFFFFF AND DUP7 DUP7 DUP4 DUP2 DUP2 LT PUSH2 0x7D8 JUMPI PUSH2 0x7D7 PUSH2 0x2A0D JUMP JUMPDEST JUMPDEST SWAP1 POP PUSH1 0x40 MUL ADD PUSH0 ADD PUSH1 0x20 DUP2 ADD SWAP1 PUSH2 0x7EF SWAP2 SWAP1 PUSH2 0x2A3A JUMP JUMPDEST PUSH20 0xFFFFFFFFFFFFFFFFFFFFFFFFFFFFFFFFFFFFFFFF AND SUB PUSH2 0x845 JUMPI PUSH1 0x40 MLOAD PUSH32 0x8C379A000000000000000000000000000000000000000000000000000000000 DUP2 MSTORE PUSH1 0x4 ADD PUSH2 0x83C SWAP1 PUSH2 0x2CBE JUMP JUMPDEST PUSH1 0x40 MLOAD DUP1 SWAP2 SUB SWAP1 REVERT JUMPDEST PUSH0 DUP7 DUP7 DUP4 DUP2 DUP2 LT PUSH2 0x859 JUMPI PUSH2 0x858 PUSH2 0x2A0D JUMP JUMPDEST JUMPDEST SWAP1 POP PUSH1 0x40 MUL ADD PUSH1 0x20 ADD PUSH1 0x20 DUP2 ADD SWAP1 PUSH2 0x871 SWAP2 SWAP1 PUSH2 0x2B2D JUMP JUMPDEST PUSH2 0xFFFF AND GT PUSH2 0x8B5 JUMPI PUSH1 0x40 MLOAD PUSH32 0x8C379A000000000000000000000000000000000000000000000000000000000 DUP2 MSTORE PUSH1 0x4 ADD PUSH2 0x8AC SWAP1 PUSH2 0x2D26 JUMP JUMPDEST PUSH1 0x40 MLOAD DUP1 SWAP2 SUB SWAP1 REVERT JUMPDEST DUP6 DUP6 DUP3 DUP2 DUP2 LT PUSH2 0x8C8 JUMPI PUSH2 0x8C7 PUSH2 0x2A0D JUMP JUMPDEST JUMPDEST SWAP1 POP PUSH1 0x40 MUL ADD PUSH1 0x20 ADD PUSH1 0x20 DUP2 ADD SWAP1 PUSH2 0x8E0 SWAP2 SWAP1 PUSH2 0x2B2D JUMP JUMPDEST PUSH2 0xFFFF AND DUP3 PUSH2 0x8EF SWAP2 SWAP1 PUSH2 0x2A92 JUMP JUMPDEST SWAP2 POP DUP1 DUP1 PUSH1 0x1 ADD SWAP2 POP POP PUSH2 0x7A3 JUMP JUMPDEST POP PUSH2 0x2710 DUP2 GT ISZERO PUSH2 0x944 JUMPI PUSH1 0x40 MLOAD PUSH32 0x8C379A000000000000000000000000000000000000000000000000000000000 DUP2 MSTORE PUSH1 0x4 ADD PUSH2 0x93B SWAP1 PUSH2 0x2D8E JUMP JUMPDEST PUSH1 0x40 MLOAD DUP1 SWAP2 SUB SWAP1 REVERT JUMPDEST PUSH0 DUP4 SWAP1 POP PUSH0 PUSH0 SWAP1 POP JUMPDEST DUP7 DUP7 SWAP1 POP DUP2 LT ISZERO PUSH2 0xA64 JUMPI PUSH0 PUSH2 0x98D DUP7 DUP10 DUP10 DUP6 DUP2 DUP2 LT PUSH2 0x970 JUMPI PUSH2 0x96F PUSH2 0x2A0D JUMP JUMPDEST JUMPDEST SWAP1 POP PUSH1 0x40 MUL ADD PUSH1 0x20 ADD PUSH1 0x20 DUP2 ADD SWAP1 PUSH2 0x988 SWAP2 SWAP1 PUSH2 0x2B2D JUMP JUMPDEST PUSH2 0x1206 JUMP JUMPDEST SWAP1 POP PUSH0 DUP2 SUB PUSH2 0x99C JUMPI POP PUSH2 0xA57 JUMP JUMPDEST PUSH2 0x9D0 ADDRESS DUP10 DUP10 DUP6 DUP2 DUP2 LT PUSH2 0x9B3 JUMPI PUSH2 0x9B2 PUSH2 0x2A0D JUMP JUMPDEST JUMPDEST SWAP1 POP PUSH1 0x40 MUL ADD PUSH0 ADD PUSH1 0x20 DUP2 ADD SWAP1 PUSH2 0x9CA SWAP2 SWAP1 PUSH2 0x2A3A JUMP JUMPDEST DUP4 PUSH2 0x122C JUMP JUMPDEST DUP1 DUP4 PUSH2 0x9DC SWAP2 SWAP1 PUSH2 0x2DAC JUMP JUMPDEST SWAP3 POP DUP8 DUP8 DUP4 DUP2 DUP2 LT PUSH2 0x9F1 JUMPI PUSH2 0x9F0 PUSH2 0x2A0D JUMP JUMPDEST JUMPDEST SWAP1 POP PUSH1 0x40 MUL ADD PUSH0 ADD PUSH1 0x20 DUP2 ADD SWAP1 PUSH2 0xA08 SWAP2 SWAP1 PUSH2 0x2A3A JUMP JUMPDEST PUSH20 0xFFFFFFFFFFFFFFFFFFFFFFFFFFFFFFFFFFFFFFFF AND PUSH32 0x75A2720282FDF622141DAE0B048EF90A21A7E57C134C76912D19D006B3B3F6F DUP3 PUSH1 0x40 MLOAD PUSH2 0xA4D SWAP2 SWAP1 PUSH2 0x2DDF JUMP JUMPDEST PUSH1 0x40 MLOAD DUP1 SWAP2 SUB SWAP1 LOG2 POP JUMPDEST DUP1 DUP1 PUSH1 0x1 ADD SWAP2 POP POP PUSH2 0x94D JUMP JUMPDEST POP DUP1 SWAP3 POP POP POP JUMPDEST SWAP4 SWAP3 POP POP POP JUMP JUMPDEST PUSH0 PUSH2 0xA7B PUSH2 0xF2 JUMP JUMPDEST SWAP1 POP PUSH0 PUSH0 SWAP1 POP JUMPDEST DUP7 DUP7 SWAP1 POP DUP2 LT ISZERO PUSH2 0xBF3 JUMPI PUSH0 PUSH2 0xAC2 DUP10 DUP10 DUP10 DUP6 DUP2 DUP2 LT PUSH2 0xAA5 JUMPI PUSH2 0xAA4 PUSH2 0x2A0D JUMP JUMPDEST JUMPDEST SWAP1 POP PUSH1 0x40 MUL ADD PUSH1 0x20 ADD PUSH1 0x20 DUP2 ADD SWAP1 PUSH2 0xABD SWAP2 SWAP1 PUSH2 0x2B2D JUMP JUMPDEST PUSH2 0x1206 JUMP JUMPDEST SWAP1 POP PUSH0 DUP2 SUB PUSH2 0xAD1 JUMPI POP PUSH2 0xBE6 JUMP JUMPDEST PUSH0 PUSH20 0xFFFFFFFFFFFFFFFFFFFFFFFFFFFFFFFFFFFFFFFF AND DUP9 DUP9 DUP5 DUP2 DUP2 LT PUSH2 0xAFB JUMPI PUSH2 0xAFA PUSH2 0x2A0D JUMP JUMPDEST JUMPDEST SWAP1 POP PUSH1 0x40 MUL ADD PUSH0 ADD PUSH1 0x20 DUP2 ADD SWAP1 PUSH2 0xB12 SWAP2 SWAP1 PUSH2 0x2A3A JUMP JUMPDEST PUSH20 0xFFFFFFFFFFFFFFFFFFFFFFFFFFFFFFFFFFFFFFFF AND SUB PUSH2 0xB3D JUMPI PUSH2 0xB38 ADDRESS DUP8 DUP4 PUSH2 0x122C JUMP JUMPDEST PUSH2 0xBE4 JUMP JUMPDEST DUP3 PUSH20 0xFFFFFFFFFFFFFFFFFFFFFFFFFFFFFFFFFFFFFFFF AND DUP9 DUP9 DUP5 DUP2 DUP2 LT PUSH2 0xB67 JUMPI PUSH2 0xB66 PUSH2 0x2A0D JUMP JUMPDEST JUMPDEST SWAP1 POP PUSH1 0x40 MUL ADD PUSH0 ADD PUSH1 0x20 DUP2 ADD SWAP1 PUSH2 0xB7E SWAP2 SWAP1 PUSH2 0x2A3A JUMP JUMPDEST PUSH20 0xFFFFFFFFFFFFFFFFFFFFFFFFFFFFFFFFFFFFFFFF AND SUB PUSH2 0xBA9 JUMPI PUSH2 0xBA4 DUP4 DUP8 DUP4 PUSH2 0x1428 JUMP JUMPDEST PUSH2 0xBE3 JUMP JUMPDEST PUSH2 0xBE1 DUP4 DUP10 DUP10 DUP6 DUP2 DUP2 LT PUSH2 0xBC0 JUMPI PUSH2 0xBBF PUSH2 0x2A0D JUMP JUMPDEST JUMPDEST SWAP1 POP PUSH1 0x40 MUL ADD PUSH0 ADD PUSH1 0x20 DUP2 ADD SWAP1 PUSH2 0xBD7 SWAP2 SWAP1 PUSH2 0x2A3A JUMP JUMPDEST DUP4 ADDRESS DUP11 DUP11 DUP11 PUSH2 0xE5D JUMP JUMPDEST POP JUMPDEST JUMPDEST POP JUMPDEST DUP1 DUP1 PUSH1 0x1 ADD SWAP2 POP POP PUSH2 0xA82 JUMP JUMPDEST POP POP POP POP POP POP POP POP JUMP JUMPDEST PUSH0 PUSH2 0xC06 PUSH2 0xF2 JUMP JUMPDEST PUSH20 0xFFFFFFFFFFFFFFFFFFFFFFFFFFFFFFFFFFFFFFFF AND PUSH4 0x70A08231 ADDRESS PUSH1 0x40 MLOAD DUP3 PUSH4 0xFFFFFFFF AND PUSH1 0xE0 SHL DUP2 MSTORE PUSH1 0x4 ADD PUSH2 0xC3E SWAP2 SWAP1 PUSH2 0x2E07 JUMP JUMPDEST PUSH1 0x20 PUSH1 0x40 MLOAD DUP1 DUP4 SUB DUP2 DUP7 GAS STATICCALL ISZERO DUP1 ISZERO PUSH2 0xC59 JUMPI RETURNDATASIZE PUSH0 PUSH0 RETURNDATACOPY RETURNDATASIZE PUSH0 REVERT JUMPDEST POP POP POP POP PUSH1 0x40 MLOAD RETURNDATASIZE PUSH1 0x1F NOT PUSH1 0x1F DUP3 ADD AND DUP3 ADD DUP1 PUSH1 0x40 MSTORE POP DUP2 ADD SWAP1 PUSH2 0xC7D SWAP2 SWAP1 PUSH2 0x2E34 JUMP JUMPDEST SWAP1 POP PUSH0 SELFBALANCE SWAP1 POP PUSH0 DUP3 GT ISZERO PUSH2 0xC97 JUMPI PUSH2 0xC96 ADDRESS DUP5 DUP5 PUSH2 0x122C JUMP JUMPDEST JUMPDEST PUSH0 DUP2 GT ISZERO PUSH2 0xCAA JUMPI PUSH2 0xCA9 DUP4 DUP3 PUSH2 0x149F JUMP JUMPDEST JUMPDEST POP POP POP JUMP JUMPDEST PUSH1 0x1 PUSH0 DUP2 SWAP1 SSTORE POP JUMP JUMPDEST PUSH0 PUSH2 0xCC1 PUSH2 0xF2 JUMP JUMPDEST SWAP1 POP PUSH0 DUP3 GT PUSH2 0xD05 JUMPI PUSH1 0x40 MLOAD PUSH32 0x8C379A000000000000000000000000000000000000000000000000000000000 DUP2 MSTORE PUSH1 0x4 ADD PUSH2 0xCFC SWAP1 PUSH2 0x2EA9 JUMP JUMPDEST PUSH1 0x40 MLOAD DUP1 SWAP2 SUB SWAP1 REVERT JUMPDEST ADDRESS PUSH20 0xFFFFFFFFFFFFFFFFFFFFFFFFFFFFFFFFFFFFFFFF AND DUP5 PUSH20 0xFFFFFFFFFFFFFFFFFFFFFFFFFFFFFFFFFFFFFFFF AND EQ PUSH2 0xD73 JUMPI PUSH1 0x40 MLOAD PUSH32 0x8C379A000000000000000000000000000000000000000000000000000000000 DUP2 MSTORE PUSH1 0x4 ADD PUSH2 0xD6A SWAP1 PUSH2 0x2F37 JUMP JUMPDEST PUSH1 0x40 MLOAD DUP1 SWAP2 SUB SWAP1 REVERT JUMPDEST DUP2 SELFBALANCE LT ISZERO PUSH2 0xDB6 JUMPI PUSH1 0x40 MLOAD PUSH32 0x8C379A000000000000000000000000000000000000000000000000000000000 DUP2 MSTORE PUSH1 0x4 ADD PUSH2 0xDAD SWAP1 PUSH2 0x2F9F JUMP JUMPDEST PUSH1 0x40 MLOAD DUP1 SWAP2 SUB SWAP1 REVERT JUMPDEST PUSH0 DUP2 SWAP1 POP DUP1 PUSH20 0xFFFFFFFFFFFFFFFFFFFFFFFFFFFFFFFFFFFFFFFF AND PUSH4 0xD0E30DB0 DUP5 PUSH1 0x40 MLOAD DUP3 PUSH4 0xFFFFFFFF AND PUSH1 0xE0 SHL DUP2 MSTORE PUSH1 0x4 ADD PUSH0 PUSH1 0x40 MLOAD DUP1 DUP4 SUB DUP2 DUP6 DUP9 DUP1 EXTCODESIZE ISZERO DUP1 ISZERO PUSH2 0xE00 JUMPI PUSH0 PUSH0 REVERT JUMPDEST POP GAS CALL ISZERO DUP1 ISZERO PUSH2 0xE12 JUMPI RETURNDATASIZE PUSH0 PUSH0 RETURNDATACOPY RETURNDATASIZE PUSH0 REVERT JUMPDEST POP POP POP POP POP ADDRESS PUSH20 0xFFFFFFFFFFFFFFFFFFFFFFFFFFFFFFFFFFFFFFFF AND DUP5 PUSH20 0xFFFFFFFFFFFFFFFFFFFFFFFFFFFFFFFFFFFFFFFF AND EQ PUSH2 0xE56 JUMPI PUSH2 0xE55 DUP3 DUP6 DUP6 PUSH2 0x1428 JUMP JUMPDEST JUMPDEST POP POP POP POP POP JUMP JUMPDEST PUSH0 PUSH0 PUSH20 0xFFFFFFFFFFFFFFFFFFFFFFFFFFFFFFFFFFFFFFFF AND DUP9 PUSH20 0xFFFFFFFFFFFFFFFFFFFFFFFFFFFFFFFFFFFFFFFF AND SUB PUSH2 0xECC JUMPI PUSH1 0x40 MLOAD PUSH32 0x8C379A000000000000000000000000000000000000000000000000000000000 DUP2 MSTORE PUSH1 0x4 ADD PUSH2 0xEC3 SWAP1 PUSH2 0x302D JUMP JUMPDEST PUSH1 0x40 MLOAD DUP1 SWAP2 SUB SWAP1 REVERT JUMPDEST PUSH0 PUSH20 0xFFFFFFFFFFFFFFFFFFFFFFFFFFFFFFFFFFFFFFFF AND DUP8 PUSH20 0xFFFFFFFFFFFFFFFFFFFFFFFFFFFFFFFFFFFFFFFF AND SUB PUSH2 0xF3A JUMPI PUSH1 0x40 MLOAD PUSH32 0x8C379A000000000000000000000000000000000000000000000000000000000 DUP2 MSTORE PUSH1 0x4 ADD PUSH2 0xF31 SWAP1 PUSH2 0x30BB JUMP JUMPDEST PUSH1 0x40 MLOAD DUP1 SWAP2 SUB SWAP1 REVERT JUMPDEST PUSH0 DUP7 GT PUSH2 0xF7C JUMPI PUSH1 0x40 MLOAD PUSH32 0x8C379A000000000000000000000000000000000000000000000000000000000 DUP2 MSTORE PUSH1 0x4 ADD PUSH2 0xF73 SWAP1 PUSH2 0x3149 JUMP JUMPDEST PUSH1 0x40 MLOAD DUP1 SWAP2 SUB SWAP1 REVERT JUMPDEST PUSH0 DUP7 SWAP1 POP ADDRESS PUSH20 0xFFFFFFFFFFFFFFFFFFFFFFFFFFFFFFFFFFFFFFFF AND DUP7 PUSH20 0xFFFFFFFFFFFFFFFFFFFFFFFFFFFFFFFFFFFFFFFF AND EQ PUSH2 0xFC1 JUMPI PUSH2 0xFBE DUP10 DUP9 DUP9 PUSH2 0x15D1 JUMP JUMPDEST SWAP1 POP JUMPDEST DUP8 PUSH20 0xFFFFFFFFFFFFFFFFFFFFFFFFFFFFFFFFFFFFFFFF AND DUP10 PUSH20 0xFFFFFFFFFFFFFFFFFFFFFFFFFFFFFFFFFFFFFFFF AND SUB PUSH2 0x1008 JUMPI PUSH2 0xFFF DUP10 DUP7 DUP4 PUSH2 0x1428 JUMP JUMPDEST DUP1 SWAP2 POP POP PUSH2 0x11FB JUMP JUMPDEST PUSH2 0x1033 DUP10 PUSH32 0x0 DUP4 PUSH2 0x1856 JUMP JUMPDEST PUSH0 PUSH2 0x103E DUP11 DUP11 PUSH2 0x1A07 JUMP JUMPDEST SWAP1 POP PUSH0 PUSH2 0x1054 PUSH2 0x104E DUP5 DUP5 PUSH2 0x1CAC JUMP JUMPDEST DUP8 PUSH2 0x1DB5 JUMP JUMPDEST SWAP1 POP PUSH0 DUP11 PUSH20 0xFFFFFFFFFFFFFFFFFFFFFFFFFFFFFFFFFFFFFFFF AND PUSH4 0x70A08231 DUP10 PUSH1 0x40 MLOAD DUP3 PUSH4 0xFFFFFFFF AND PUSH1 0xE0 SHL DUP2 MSTORE PUSH1 0x4 ADD PUSH2 0x1090 SWAP2 SWAP1 PUSH2 0x2E07 JUMP JUMPDEST PUSH1 0x20 PUSH1 0x40 MLOAD DUP1 DUP4 SUB DUP2 DUP7 GAS STATICCALL ISZERO DUP1 ISZERO PUSH2 0x10AB JUMPI RETURNDATASIZE PUSH0 PUSH0 RETURNDATACOPY RETURNDATASIZE PUSH0 REVERT JUMPDEST POP POP POP POP PUSH1 0x40 MLOAD RETURNDATASIZE PUSH1 0x1F NOT PUSH1 0x1F DUP3 ADD AND DUP3 ADD DUP1 PUSH1 0x40 MSTORE POP DUP2 ADD SWAP1 PUSH2 0x10CF SWAP2 SWAP1 PUSH2 0x2E34 JUMP JUMPDEST SWAP1 POP PUSH32 0x0 PUSH20 0xFFFFFFFFFFFFFFFFFFFFFFFFFFFFFFFFFFFFFFFF AND PUSH4 0x5C11D795 DUP6 DUP5 DUP7 DUP13 PUSH2 0x111A DUP13 PUSH2 0x1E29 JUMP JUMPDEST PUSH1 0x40 MLOAD DUP7 PUSH4 0xFFFFFFFF AND PUSH1 0xE0 SHL DUP2 MSTORE PUSH1 0x4 ADD PUSH2 0x113A SWAP6 SWAP5 SWAP4 SWAP3 SWAP2 SWAP1 PUSH2 0x320F JUMP JUMPDEST PUSH0 PUSH1 0x40 MLOAD DUP1 DUP4 SUB DUP2 PUSH0 DUP8 DUP1 EXTCODESIZE ISZERO DUP1 ISZERO PUSH2 0x1151 JUMPI PUSH0 PUSH0 REVERT JUMPDEST POP GAS CALL ISZERO DUP1 ISZERO PUSH2 0x1163 JUMPI RETURNDATASIZE PUSH0 PUSH0 RETURNDATACOPY RETURNDATASIZE PUSH0 REVERT JUMPDEST POP POP POP POP PUSH0 DUP12 PUSH20 0xFFFFFFFFFFFFFFFFFFFFFFFFFFFFFFFFFFFFFFFF AND PUSH4 0x70A08231 DUP11 PUSH1 0x40 MLOAD DUP3 PUSH4 0xFFFFFFFF AND PUSH1 0xE0 SHL DUP2 MSTORE PUSH1 0x4 ADD PUSH2 0x11A1 SWAP2 SWAP1 PUSH2 0x2E07 JUMP JUMPDEST PUSH1 0x20 PUSH1 0x40 MLOAD DUP1 DUP4 SUB DUP2 DUP7 GAS STATICCALL ISZERO DUP1 ISZERO PUSH2 0x11BC JUMPI RETURNDATASIZE PUSH0 PUSH0 RETURNDATACOPY RETURNDATASIZE PUSH0 REVERT JUMPDEST POP POP POP POP PUSH1 0x40 MLOAD RETURNDATASIZE PUSH1 0x1F NOT PUSH1 0x1F DUP3 ADD AND DUP3 ADD DUP1 PUSH1 0x40 MSTORE POP DUP2 ADD SWAP1 PUSH2 0x11E0 SWAP2 SWAP1 PUSH2 0x2E34 JUMP JUMPDEST SWAP1 POP PUSH0 DUP3 DUP3 PUSH2 0x11EF SWAP2 SWAP1 PUSH2 0x2DAC JUMP JUMPDEST SWAP1 POP DUP1 SWAP7 POP POP POP POP POP POP POP JUMPDEST SWAP8 SWAP7 POP POP POP POP POP POP POP JUMP JUMPDEST PUSH0 PUSH2 0x2710 DUP3 PUSH2 0xFFFF AND DUP5 PUSH2 0x121A SWAP2 SWAP1 PUSH2 0x3267 JUMP JUMPDEST PUSH2 0x1224 SWAP2 SWAP1 PUSH2 0x32D5 JUMP JUMPDEST SWAP1 POP SWAP3 SWAP2 POP POP JUMP JUMPDEST PUSH0 PUSH2 0x1235 PUSH2 0xF2 JUMP JUMPDEST SWAP1 POP PUSH0 DUP2 SWAP1 POP PUSH0 DUP4 GT PUSH2 0x127D JUMPI PUSH1 0x40 MLOAD PUSH32 0x8C379A000000000000000000000000000000000000000000000000000000000 DUP2 MSTORE PUSH1 0x4 ADD PUSH2 0x1274 SWAP1 PUSH2 0x334F JUMP JUMPDEST PUSH1 0x40 MLOAD DUP1 SWAP2 SUB SWAP1 REVERT JUMPDEST DUP3 DUP2 PUSH20 0xFFFFFFFFFFFFFFFFFFFFFFFFFFFFFFFFFFFFFFFF AND PUSH4 0x70A08231 DUP8 PUSH1 0x40 MLOAD DUP3 PUSH4 0xFFFFFFFF AND PUSH1 0xE0 SHL DUP2 MSTORE PUSH1 0x4 ADD PUSH2 0x12B7 SWAP2 SWAP1 PUSH2 0x2E07 JUMP JUMPDEST PUSH1 0x20 PUSH1 0x40 MLOAD DUP1 DUP4 SUB DUP2 DUP7 GAS STATICCALL ISZERO DUP1 ISZERO PUSH2 0x12D2 JUMPI RETURNDATASIZE PUSH0 PUSH0 RETURNDATACOPY RETURNDATASIZE PUSH0 REVERT JUMPDEST POP POP POP POP PUSH1 0x40 MLOAD RETURNDATASIZE PUSH1 0x1F NOT PUSH1 0x1F DUP3 ADD AND DUP3 ADD DUP1 PUSH1 0x40 MSTORE POP DUP2 ADD SWAP1 PUSH2 0x12F6 SWAP2 SWAP1 PUSH2 0x2E34 JUMP JUMPDEST LT ISZERO PUSH2 0x1337 JUMPI PUSH1 0x40 MLOAD PUSH32 0x8C379A000000000000000000000000000000000000000000000000000000000 DUP2 MSTORE PUSH1 0x4 ADD PUSH2 0x132E SWAP1 PUSH2 0x33B7 JUMP JUMPDEST PUSH1 0x40 MLOAD DUP1 SWAP2 SUB SWAP1 REVERT JUMPDEST PUSH0 DUP4 SWAP1 POP ADDRESS PUSH20 0xFFFFFFFFFFFFFFFFFFFFFFFFFFFFFFFFFFFFFFFF AND DUP7 PUSH20 0xFFFFFFFFFFFFFFFFFFFFFFFFFFFFFFFFFFFFFFFF AND EQ PUSH2 0x137C JUMPI PUSH2 0x1379 DUP4 DUP6 DUP9 PUSH2 0x15D1 JUMP JUMPDEST SWAP1 POP JUMPDEST DUP2 PUSH20 0xFFFFFFFFFFFFFFFFFFFFFFFFFFFFFFFFFFFFFFFF AND PUSH4 0x2E1A7D4D DUP3 PUSH1 0x40 MLOAD DUP3 PUSH4 0xFFFFFFFF AND PUSH1 0xE0 SHL DUP2 MSTORE PUSH1 0x4 ADD PUSH2 0x13B5 SWAP2 SWAP1 PUSH2 0x2DDF JUMP JUMPDEST PUSH0 PUSH1 0x40 MLOAD DUP1 DUP4 SUB DUP2 PUSH0 DUP8 DUP1 EXTCODESIZE ISZERO DUP1 ISZERO PUSH2 0x13CC JUMPI PUSH0 PUSH0 REVERT JUMPDEST POP GAS CALL ISZERO DUP1 ISZERO PUSH2 0x13DE JUMPI RETURNDATASIZE PUSH0 PUSH0 RETURNDATACOPY RETURNDATASIZE PUSH0 REVERT JUMPDEST POP POP POP POP ADDRESS PUSH20 0xFFFFFFFFFFFFFFFFFFFFFFFFFFFFFFFFFFFFFFFF AND DUP6 PUSH20 0xFFFFFFFFFFFFFFFFFFFFFFFFFFFFFFFFFFFFFFFF AND EQ PUSH2 0x1420 JUMPI PUSH2 0x141F DUP6 DUP3 PUSH2 0x149F JUMP JUMPDEST JUMPDEST POP POP POP POP POP POP JUMP JUMPDEST PUSH0 DUP4 SWAP1 POP PUSH0 DUP3 GT PUSH2 0x146E JUMPI PUSH1 0x40 MLOAD PUSH32 0x8C379A000000000000000000000000000000000000000000000000000000000 DUP2 MSTORE PUSH1 0x4 ADD PUSH2 0x1465 SWAP1 PUSH2 0x341F JUMP JUMPDEST PUSH1 0x40 MLOAD DUP1 SWAP2 SUB SWAP1 REVERT JUMPDEST PUSH2 0x1499 DUP4 DUP4 DUP4 PUSH20 0xFFFFFFFFFFFFFFFFFFFFFFFFFFFFFFFFFFFFFFFF AND PUSH2 0x1E3D SWAP1 SWAP3 SWAP2 SWAP1 PUSH4 0xFFFFFFFF AND JUMP JUMPDEST POP POP POP POP JUMP JUMPDEST PUSH0 DUP2 GT PUSH2 0x14E1 JUMPI PUSH1 0x40 MLOAD PUSH32 0x8C379A000000000000000000000000000000000000000000000000000000000 DUP2 MSTORE PUSH1 0x4 ADD PUSH2 0x14D8 SWAP1 PUSH2 0x3487 JUMP JUMPDEST PUSH1 0x40 MLOAD DUP1 SWAP2 SUB SWAP1 REVERT JUMPDEST DUP1 SELFBALANCE LT ISZERO PUSH2 0x1524 JUMPI PUSH1 0x40 MLOAD PUSH32 0x8C379A000000000000000000000000000000000000000000000000000000000 DUP2 MSTORE PUSH1 0x4 ADD PUSH2 0x151B SWAP1 PUSH2 0x34EF JUMP JUMPDEST PUSH1 0x40 MLOAD DUP1 SWAP2 SUB SWAP1 REVERT JUMPDEST PUSH0 DUP3 PUSH20 0xFFFFFFFFFFFFFFFFFFFFFFFFFFFFFFFFFFFFFFFF AND DUP3 PUSH1 0x40 MLOAD PUSH2 0x1549 SWAP1 PUSH2 0x353A JUMP JUMPDEST PUSH0 PUSH1 0x40 MLOAD DUP1 DUP4 SUB DUP2 DUP6 DUP8 GAS CALL SWAP3 POP POP POP RETURNDATASIZE DUP1 PUSH0 DUP2 EQ PUSH2 0x1583 JUMPI PUSH1 0x40 MLOAD SWAP2 POP PUSH1 0x1F NOT PUSH1 0x3F RETURNDATASIZE ADD AND DUP3 ADD PUSH1 0x40 MSTORE RETURNDATASIZE DUP3 MSTORE RETURNDATASIZE PUSH0 PUSH1 0x20 DUP5 ADD RETURNDATACOPY PUSH2 0x1588 JUMP JUMPDEST PUSH1 0x60 SWAP2 POP JUMPDEST POP POP SWAP1 POP DUP1 PUSH2 0x15CC JUMPI PUSH1 0x40 MLOAD PUSH32 0x8C379A000000000000000000000000000000000000000000000000000000000 DUP2 MSTORE PUSH1 0x4 ADD PUSH2 0x15C3 SWAP1 PUSH2 0x3598 JUMP JUMPDEST PUSH1 0x40 MLOAD DUP1 SWAP2 SUB SWAP1 REVERT JUMPDEST POP POP POP JUMP JUMPDEST PUSH0 PUSH0 DUP5 SWAP1 POP PUSH0 DUP5 GT PUSH2 0x1618 JUMPI PUSH1 0x40 MLOAD PUSH32 0x8C379A000000000000000000000000000000000000000000000000000000000 DUP2 MSTORE PUSH1 0x4 ADD PUSH2 0x160F SWAP1 PUSH2 0x3600 JUMP JUMPDEST PUSH1 0x40 MLOAD DUP1 SWAP2 SUB SWAP1 REVERT JUMPDEST DUP4 DUP2 PUSH20 0xFFFFFFFFFFFFFFFFFFFFFFFFFFFFFFFFFFFFFFFF AND PUSH4 0xDD62ED3E DUP6 ADDRESS PUSH1 0x40 MLOAD DUP4 PUSH4 0xFFFFFFFF AND PUSH1 0xE0 SHL DUP2 MSTORE PUSH1 0x4 ADD PUSH2 0x1654 SWAP3 SWAP2 SWAP1 PUSH2 0x361E JUMP JUMPDEST PUSH1 0x20 PUSH1 0x40 MLOAD DUP1 DUP4 SUB DUP2 DUP7 GAS STATICCALL ISZERO DUP1 ISZERO PUSH2 0x166F JUMPI RETURNDATASIZE PUSH0 PUSH0 RETURNDATACOPY RETURNDATASIZE PUSH0 REVERT JUMPDEST POP POP POP POP PUSH1 0x40 MLOAD RETURNDATASIZE PUSH1 0x1F NOT PUSH1 0x1F DUP3 ADD AND DUP3 ADD DUP1 PUSH1 0x40 MSTORE POP DUP2 ADD SWAP1 PUSH2 0x1693 SWAP2 SWAP1 PUSH2 0x2E34 JUMP JUMPDEST LT ISZERO PUSH2 0x16D4 JUMPI PUSH1 0x40 MLOAD PUSH32 0x8C379A000000000000000000000000000000000000000000000000000000000 DUP2 MSTORE PUSH1 0x4 ADD PUSH2 0x16CB SWAP1 PUSH2 0x36B5 JUMP JUMPDEST PUSH1 0x40 MLOAD DUP1 SWAP2 SUB SWAP1 REVERT JUMPDEST PUSH0 DUP2 PUSH20 0xFFFFFFFFFFFFFFFFFFFFFFFFFFFFFFFFFFFFFFFF AND PUSH4 0x70A08231 ADDRESS PUSH1 0x40 MLOAD DUP3 PUSH4 0xFFFFFFFF AND PUSH1 0xE0 SHL DUP2 MSTORE PUSH1 0x4 ADD PUSH2 0x170E SWAP2 SWAP1 PUSH2 0x2E07 JUMP JUMPDEST PUSH1 0x20 PUSH1 0x40 MLOAD DUP1 DUP4 SUB DUP2 DUP7 GAS STATICCALL ISZERO DUP1 ISZERO PUSH2 0x1729 JUMPI RETURNDATASIZE PUSH0 PUSH0 RETURNDATACOPY RETURNDATASIZE PUSH0 REVERT JUMPDEST POP POP POP POP PUSH1 0x40 MLOAD RETURNDATASIZE PUSH1 0x1F NOT PUSH1 0x1F DUP3 ADD AND DUP3 ADD DUP1 PUSH1 0x40 MSTORE POP DUP2 ADD SWAP1 PUSH2 0x174D SWAP2 SWAP1 PUSH2 0x2E34 JUMP JUMPDEST SWAP1 POP PUSH2 0x177C DUP5 ADDRESS DUP8 DUP6 PUSH20 0xFFFFFFFFFFFFFFFFFFFFFFFFFFFFFFFFFFFFFFFF AND PUSH2 0x1EBC SWAP1 SWAP4 SWAP3 SWAP2 SWAP1 PUSH4 0xFFFFFFFF AND JUMP JUMPDEST PUSH0 DUP3 PUSH20 0xFFFFFFFFFFFFFFFFFFFFFFFFFFFFFFFFFFFFFFFF AND PUSH4 0x70A08231 ADDRESS PUSH1 0x40 MLOAD DUP3 PUSH4 0xFFFFFFFF AND PUSH1 0xE0 SHL DUP2 MSTORE PUSH1 0x4 ADD PUSH2 0x17B6 SWAP2 SWAP1 PUSH2 0x2E07 JUMP JUMPDEST PUSH1 0x20 PUSH1 0x40 MLOAD DUP1 DUP4 SUB DUP2 DUP7 GAS STATICCALL ISZERO DUP1 ISZERO PUSH2 0x17D1 JUMPI RETURNDATASIZE PUSH0 PUSH0 RETURNDATACOPY RETURNDATASIZE PUSH0 REVERT JUMPDEST POP POP POP POP PUSH1 0x40 MLOAD RETURNDATASIZE PUSH1 0x1F NOT PUSH1 0x1F DUP3 ADD AND DUP3 ADD DUP1 PUSH1 0x40 MSTORE POP DUP2 ADD SWAP1 PUSH2 0x17F5 SWAP2 SWAP1 PUSH2 0x2E34 JUMP JUMPDEST SWAP1 POP PUSH0 DUP3 DUP3 PUSH2 0x1804 SWAP2 SWAP1 PUSH2 0x2DAC JUMP JUMPDEST SWAP1 POP PUSH0 DUP2 GT PUSH2 0x1848 JUMPI PUSH1 0x40 MLOAD PUSH32 0x8C379A000000000000000000000000000000000000000000000000000000000 DUP2 MSTORE PUSH1 0x4 ADD PUSH2 0x183F SWAP1 PUSH2 0x371D JUMP JUMPDEST PUSH1 0x40 MLOAD DUP1 SWAP2 SUB SWAP1 REVERT JUMPDEST DUP1 SWAP5 POP POP POP POP POP SWAP4 SWAP3 POP POP POP JUMP JUMPDEST PUSH0 DUP4 SWAP1 POP PUSH0 DUP2 PUSH20 0xFFFFFFFFFFFFFFFFFFFFFFFFFFFFFFFFFFFFFFFF AND PUSH4 0xDD62ED3E ADDRESS DUP7 PUSH1 0x40 MLOAD DUP4 PUSH4 0xFFFFFFFF AND PUSH1 0xE0 SHL DUP2 MSTORE PUSH1 0x4 ADD PUSH2 0x1896 SWAP3 SWAP2 SWAP1 PUSH2 0x361E JUMP JUMPDEST PUSH1 0x20 PUSH1 0x40 MLOAD DUP1 DUP4 SUB DUP2 DUP7 GAS STATICCALL ISZERO DUP1 ISZERO PUSH2 0x18B1 JUMPI RETURNDATASIZE PUSH0 PUSH0 RETURNDATACOPY RETURNDATASIZE PUSH0 REVERT JUMPDEST POP POP POP POP PUSH1 0x40 MLOAD RETURNDATASIZE PUSH1 0x1F NOT PUSH1 0x1F DUP3 ADD AND DUP3 ADD DUP1 PUSH1 0x40 MSTORE POP DUP2 ADD SWAP1 PUSH2 0x18D5 SWAP2 SWAP1 PUSH2 0x2E34 JUMP JUMPDEST SWAP1 POP DUP3 DUP2 LT ISZERO PUSH2 0x1A00 JUMPI PUSH0 DUP2 EQ PUSH2 0x1963 JUMPI DUP2 PUSH20 0xFFFFFFFFFFFFFFFFFFFFFFFFFFFFFFFFFFFFFFFF AND PUSH4 0x95EA7B3 DUP6 PUSH0 PUSH1 0x40 MLOAD DUP4 PUSH4 0xFFFFFFFF AND PUSH1 0xE0 SHL DUP2 MSTORE PUSH1 0x4 ADD PUSH2 0x1921 SWAP3 SWAP2 SWAP1 PUSH2 0x3774 JUMP JUMPDEST PUSH1 0x20 PUSH1 0x40 MLOAD DUP1 DUP4 SUB DUP2 PUSH0 DUP8 GAS CALL ISZERO DUP1 ISZERO PUSH2 0x193D JUMPI RETURNDATASIZE PUSH0 PUSH0 RETURNDATACOPY RETURNDATASIZE PUSH0 REVERT JUMPDEST POP POP POP POP PUSH1 0x40 MLOAD RETURNDATASIZE PUSH1 0x1F NOT PUSH1 0x1F DUP3 ADD AND DUP3 ADD DUP1 PUSH1 0x40 MSTORE POP DUP2 ADD SWAP1 PUSH2 0x1961 SWAP2 SWAP1 PUSH2 0x37D0 JUMP JUMPDEST POP JUMPDEST DUP2 PUSH20 0xFFFFFFFFFFFFFFFFFFFFFFFFFFFFFFFFFFFFFFFF AND PUSH4 0x95EA7B3 DUP6 PUSH32 0xFFFFFFFFFFFFFFFFFFFFFFFFFFFFFFFFFFFFFFFFFFFFFFFFFFFFFFFFFFFFFFFF PUSH1 0x40 MLOAD DUP4 PUSH4 0xFFFFFFFF AND PUSH1 0xE0 SHL DUP2 MSTORE PUSH1 0x4 ADD PUSH2 0x19BE SWAP3 SWAP2 SWAP1 PUSH2 0x37FB JUMP JUMPDEST PUSH1 0x20 PUSH1 0x40 MLOAD DUP1 DUP4 SUB DUP2 PUSH0 DUP8 GAS CALL ISZERO DUP1 ISZERO PUSH2 0x19DA JUMPI RETURNDATASIZE PUSH0 PUSH0 RETURNDATACOPY RETURNDATASIZE PUSH0 REVERT JUMPDEST POP POP POP POP PUSH1 0x40 MLOAD RETURNDATASIZE PUSH1 0x1F NOT PUSH1 0x1F DUP3 ADD AND DUP3 ADD DUP1 PUSH1 0x40 MSTORE POP DUP2 ADD SWAP1 PUSH2 0x19FE SWAP2 SWAP1 PUSH2 0x37D0 JUMP JUMPDEST POP JUMPDEST POP POP POP POP POP JUMP JUMPDEST PUSH1 0x60 PUSH0 PUSH2 0x1A12 PUSH2 0xF2 JUMP JUMPDEST SWAP1 POP DUP1 PUSH20 0xFFFFFFFFFFFFFFFFFFFFFFFFFFFFFFFFFFFFFFFF AND DUP5 PUSH20 0xFFFFFFFFFFFFFFFFFFFFFFFFFFFFFFFFFFFFFFFF AND EQ DUP1 PUSH2 0x1A79 JUMPI POP DUP1 PUSH20 0xFFFFFFFFFFFFFFFFFFFFFFFFFFFFFFFFFFFFFFFF AND DUP4 PUSH20 0xFFFFFFFFFFFFFFFFFFFFFFFFFFFFFFFFFFFFFFFF AND EQ JUMPDEST ISZERO PUSH2 0x1B6C JUMPI PUSH1 0x2 PUSH8 0xFFFFFFFFFFFFFFFF DUP2 GT ISZERO PUSH2 0x1A99 JUMPI PUSH2 0x1A98 PUSH2 0x3822 JUMP JUMPDEST JUMPDEST PUSH1 0x40 MLOAD SWAP1 DUP1 DUP3 MSTORE DUP1 PUSH1 0x20 MUL PUSH1 0x20 ADD DUP3 ADD PUSH1 0x40 MSTORE DUP1 ISZERO PUSH2 0x1AC7 JUMPI DUP2 PUSH1 0x20 ADD PUSH1 0x20 DUP3 MUL DUP1 CALLDATASIZE DUP4 CALLDATACOPY DUP1 DUP3 ADD SWAP2 POP POP SWAP1 POP JUMPDEST POP SWAP2 POP DUP4 DUP3 PUSH0 DUP2 MLOAD DUP2 LT PUSH2 0x1ADE JUMPI PUSH2 0x1ADD PUSH2 0x2A0D JUMP JUMPDEST JUMPDEST PUSH1 0x20 MUL PUSH1 0x20 ADD ADD SWAP1 PUSH20 0xFFFFFFFFFFFFFFFFFFFFFFFFFFFFFFFFFFFFFFFF AND SWAP1 DUP2 PUSH20 0xFFFFFFFFFFFFFFFFFFFFFFFFFFFFFFFFFFFFFFFF AND DUP2 MSTORE POP POP DUP3 DUP3 PUSH1 0x1 DUP2 MLOAD DUP2 LT PUSH2 0x1B2D JUMPI PUSH2 0x1B2C PUSH2 0x2A0D JUMP JUMPDEST JUMPDEST PUSH1 0x20 MUL PUSH1 0x20 ADD ADD SWAP1 PUSH20 0xFFFFFFFFFFFFFFFFFFFFFFFFFFFFFFFFFFFFFFFF AND SWAP1 DUP2 PUSH20 0xFFFFFFFFFFFFFFFFFFFFFFFFFFFFFFFFFFFFFFFF AND DUP2 MSTORE POP POP PUSH2 0x1CA5 JUMP JUMPDEST PUSH1 0x3 PUSH8 0xFFFFFFFFFFFFFFFF DUP2 GT ISZERO PUSH2 0x1B87 JUMPI PUSH2 0x1B86 PUSH2 0x3822 JUMP JUMPDEST JUMPDEST PUSH1 0x40 MLOAD SWAP1 DUP1 DUP3 MSTORE DUP1 PUSH1 0x20 MUL PUSH1 0x20 ADD DUP3 ADD PUSH1 0x40 MSTORE DUP1 ISZERO PUSH2 0x1BB5 JUMPI DUP2 PUSH1 0x20 ADD PUSH1 0x20 DUP3 MUL DUP1 CALLDATASIZE DUP4 CALLDATACOPY DUP1 DUP3 ADD SWAP2 POP POP SWAP1 POP JUMPDEST POP SWAP2 POP DUP4 DUP3 PUSH0 DUP2 MLOAD DUP2 LT PUSH2 0x1BCC JUMPI PUSH2 0x1BCB PUSH2 0x2A0D JUMP JUMPDEST JUMPDEST PUSH1 0x20 MUL PUSH1 0x20 ADD ADD SWAP1 PUSH20 0xFFFFFFFFFFFFFFFFFFFFFFFFFFFFFFFFFFFFFFFF AND SWAP1 DUP2 PUSH20 0xFFFFFFFFFFFFFFFFFFFFFFFFFFFFFFFFFFFFFFFF AND DUP2 MSTORE POP POP DUP1 DUP3 PUSH1 0x1 DUP2 MLOAD DUP2 LT PUSH2 0x1C1B JUMPI PUSH2 0x1C1A PUSH2 0x2A0D JUMP JUMPDEST JUMPDEST PUSH1 0x20 MUL PUSH1 0x20 ADD ADD SWAP1 PUSH20 0xFFFFFFFFFFFFFFFFFFFFFFFFFFFFFFFFFFFFFFFF AND SWAP1 DUP2 PUSH20 0xFFFFFFFFFFFFFFFFFFFFFFFFFFFFFFFFFFFFFFFF AND DUP2 MSTORE POP POP DUP3 DUP3 PUSH1 0x2 DUP2 MLOAD DUP2 LT PUSH2 0x1C6A JUMPI PUSH2 0x1C69 PUSH2 0x2A0D JUMP JUMPDEST JUMPDEST PUSH1 0x20 MUL PUSH1 0x20 ADD ADD SWAP1 PUSH20 0xFFFFFFFFFFFFFFFFFFFFFFFFFFFFFFFFFFFFFFFF AND SWAP1 DUP2 PUSH20 0xFFFFFFFFFFFFFFFFFFFFFFFFFFFFFFFFFFFFFFFF AND DUP2 MSTORE POP POP JUMPDEST POP SWAP3 SWAP2 POP POP JUMP JUMPDEST PUSH0 PUSH32 0x0 PUSH20 0xFFFFFFFFFFFFFFFFFFFFFFFFFFFFFFFFFFFFFFFF AND PUSH4 0xD06CA61F DUP5 DUP5 PUSH1 0x40 MLOAD DUP4 PUSH4 0xFFFFFFFF AND PUSH1 0xE0 SHL DUP2 MSTORE PUSH1 0x4 ADD PUSH2 0x1D08 SWAP3 SWAP2 SWAP1 PUSH2 0x384F JUMP JUMPDEST PUSH0 PUSH1 0x40 MLOAD DUP1 DUP4 SUB DUP2 DUP7 GAS STATICCALL SWAP3 POP POP POP DUP1 ISZERO PUSH2 0x1D45 JUMPI POP PUSH1 0x40 MLOAD RETURNDATASIZE PUSH0 DUP3 RETURNDATACOPY RETURNDATASIZE PUSH1 0x1F NOT PUSH1 0x1F DUP3 ADD AND DUP3 ADD DUP1 PUSH1 0x40 MSTORE POP DUP2 ADD SWAP1 PUSH2 0x1D42 SWAP2 SWAP1 PUSH2 0x3998 JUMP JUMPDEST PUSH1 0x1 JUMPDEST PUSH2 0x1D84 JUMPI PUSH1 0x40 MLOAD PUSH32 0x8C379A000000000000000000000000000000000000000000000000000000000 DUP2 MSTORE PUSH1 0x4 ADD PUSH2 0x1D7B SWAP1 PUSH2 0x3A4F JUMP JUMPDEST PUSH1 0x40 MLOAD DUP1 SWAP2 SUB SWAP1 REVERT JUMPDEST DUP1 PUSH1 0x1 DUP3 MLOAD PUSH2 0x1D93 SWAP2 SWAP1 PUSH2 0x2DAC JUMP JUMPDEST DUP2 MLOAD DUP2 LT PUSH2 0x1DA4 JUMPI PUSH2 0x1DA3 PUSH2 0x2A0D JUMP JUMPDEST JUMPDEST PUSH1 0x20 MUL PUSH1 0x20 ADD ADD MLOAD SWAP2 POP POP SWAP3 SWAP2 POP POP JUMP JUMPDEST PUSH0 PUSH2 0x2710 DUP3 GT ISZERO PUSH2 0x1DFB JUMPI PUSH1 0x40 MLOAD PUSH32 0x8C379A000000000000000000000000000000000000000000000000000000000 DUP2 MSTORE PUSH1 0x4 ADD PUSH2 0x1DF2 SWAP1 PUSH2 0x3AB7 JUMP JUMPDEST PUSH1 0x40 MLOAD DUP1 SWAP2 SUB SWAP1 REVERT JUMPDEST PUSH2 0x2710 DUP3 PUSH2 0x2710 PUSH2 0x1E0C SWAP2 SWAP1 PUSH2 0x2DAC JUMP JUMPDEST DUP5 PUSH2 0x1E17 SWAP2 SWAP1 PUSH2 0x3267 JUMP JUMPDEST PUSH2 0x1E21 SWAP2 SWAP1 PUSH2 0x32D5 JUMP JUMPDEST SWAP1 POP SWAP3 SWAP2 POP POP JUMP JUMPDEST PUSH0 DUP2 TIMESTAMP PUSH2 0x1E36 SWAP2 SWAP1 PUSH2 0x2A92 JUMP JUMPDEST SWAP1 POP SWAP2 SWAP1 POP JUMP JUMPDEST PUSH2 0x1EB7 DUP4 DUP5 PUSH20 0xFFFFFFFFFFFFFFFFFFFFFFFFFFFFFFFFFFFFFFFF AND PUSH4 0xA9059CBB DUP6 DUP6 PUSH1 0x40 MLOAD PUSH1 0x24 ADD PUSH2 0x1E70 SWAP3 SWAP2 SWAP1 PUSH2 0x37FB JUMP JUMPDEST PUSH1 0x40 MLOAD PUSH1 0x20 DUP2 DUP4 SUB SUB DUP2 MSTORE SWAP1 PUSH1 0x40 MSTORE SWAP2 POP PUSH1 0xE0 SHL PUSH1 0x20 DUP3 ADD DUP1 MLOAD PUSH28 0xFFFFFFFFFFFFFFFFFFFFFFFFFFFFFFFFFFFFFFFFFFFFFFFFFFFFFFFF DUP4 DUP2 DUP4 AND OR DUP4 MSTORE POP POP POP POP PUSH2 0x1F3E JUMP JUMPDEST POP POP POP JUMP JUMPDEST PUSH2 0x1F38 DUP5 DUP6 PUSH20 0xFFFFFFFFFFFFFFFFFFFFFFFFFFFFFFFFFFFFFFFF AND PUSH4 0x23B872DD DUP7 DUP7 DUP7 PUSH1 0x40 MLOAD PUSH1 0x24 ADD PUSH2 0x1EF1 SWAP4 SWAP3 SWAP2 SWAP1 PUSH2 0x3AD5 JUMP JUMPDEST PUSH1 0x40 MLOAD PUSH1 0x20 DUP2 DUP4 SUB SUB DUP2 MSTORE SWAP1 PUSH1 0x40 MSTORE SWAP2 POP PUSH1 0xE0 SHL PUSH1 0x20 DUP3 ADD DUP1 MLOAD PUSH28 0xFFFFFFFFFFFFFFFFFFFFFFFFFFFFFFFFFFFFFFFFFFFFFFFFFFFFFFFF DUP4 DUP2 DUP4 AND OR DUP4 MSTORE POP POP POP POP PUSH2 0x1F3E JUMP JUMPDEST POP POP POP POP JUMP JUMPDEST PUSH0 PUSH0 PUSH1 0x20 PUSH0 DUP5 MLOAD PUSH1 0x20 DUP7 ADD PUSH0 DUP9 GAS CALL DUP1 PUSH2 0x1F5D JUMPI PUSH1 0x40 MLOAD RETURNDATASIZE PUSH0 DUP3 RETURNDATACOPY RETURNDATASIZE DUP2 REVERT JUMPDEST RETURNDATASIZE SWAP3 POP PUSH0 MLOAD SWAP2 POP POP PUSH0 DUP3 EQ PUSH2 0x1F76 JUMPI PUSH1 0x1 DUP2 EQ ISZERO PUSH2 0x1F91 JUMP JUMPDEST PUSH0 DUP5 PUSH20 0xFFFFFFFFFFFFFFFFFFFFFFFFFFFFFFFFFFFFFFFF AND EXTCODESIZE EQ JUMPDEST ISZERO PUSH2 0x1FD3 JUMPI DUP4 PUSH1 0x40 MLOAD PUSH32 0x5274AFE700000000000000000000000000000000000000000000000000000000 DUP2 MSTORE PUSH1 0x4 ADD PUSH2 0x1FCA SWAP2 SWAP1 PUSH2 0x2E07 JUMP JUMPDEST PUSH1 0x40 MLOAD DUP1 SWAP2 SUB SWAP1 REVERT JUMPDEST POP POP POP POP JUMP JUMPDEST PUSH0 DUP3 DUP3 MSTORE PUSH1 0x20 DUP3 ADD SWAP1 POP SWAP3 SWAP2 POP POP JUMP JUMPDEST PUSH32 0x44697265637420455448206E6F7420616C6C6F77656400000000000000000000 PUSH0 DUP3 ADD MSTORE POP JUMP JUMPDEST PUSH0 PUSH2 0x201D PUSH1 0x16 DUP4 PUSH2 0x1FD9 JUMP JUMPDEST SWAP2 POP PUSH2 0x2028 DUP3 PUSH2 0x1FE9 JUMP JUMPDEST PUSH1 0x20 DUP3 ADD SWAP1 POP SWAP2 SWAP1 POP JUMP JUMPDEST PUSH0 PUSH1 0x20 DUP3 ADD SWAP1 POP DUP2 DUP2 SUB PUSH0 DUP4 ADD MSTORE PUSH2 0x204A DUP2 PUSH2 0x2011 JUMP JUMPDEST SWAP1 POP SWAP2 SWAP1 POP JUMP JUMPDEST PUSH0 PUSH1 0x40 MLOAD SWAP1 POP SWAP1 JUMP JUMPDEST PUSH0 PUSH0 REVERT JUMPDEST PUSH0 PUSH0 REVERT JUMPDEST PUSH0 PUSH0 REVERT JUMPDEST PUSH0 PUSH0 REVERT JUMPDEST PUSH0 PUSH0 REVERT JUMPDEST PUSH0 PUSH0 DUP4 PUSH1 0x1F DUP5 ADD SLT PUSH2 0x2083 JUMPI PUSH2 0x2082 PUSH2 0x2062 JUMP JUMPDEST JUMPDEST DUP3 CALLDATALOAD SWAP1 POP PUSH8 0xFFFFFFFFFFFFFFFF DUP2 GT ISZERO PUSH2 0x20A0 JUMPI PUSH2 0x209F PUSH2 0x2066 JUMP JUMPDEST JUMPDEST PUSH1 0x20 DUP4 ADD SWAP2 POP DUP4 PUSH1 0x40 DUP3 MUL DUP4 ADD GT ISZERO PUSH2 0x20BC JUMPI PUSH2 0x20BB PUSH2 0x206A JUMP JUMPDEST JUMPDEST SWAP3 POP SWAP3 SWAP1 POP JUMP JUMPDEST PUSH0 PUSH0 DUP4 PUSH1 0x1F DUP5 ADD SLT PUSH2 0x20D8 JUMPI PUSH2 0x20D7 PUSH2 0x2062 JUMP JUMPDEST JUMPDEST DUP3 CALLDATALOAD SWAP1 POP PUSH8 0xFFFFFFFFFFFFFFFF DUP2 GT ISZERO PUSH2 0x20F5 JUMPI PUSH2 0x20F4 PUSH2 0x2066 JUMP JUMPDEST JUMPDEST PUSH1 0x20 DUP4 ADD SWAP2 POP DUP4 PUSH1 0x40 DUP3 MUL DUP4 ADD GT ISZERO PUSH2 0x2111 JUMPI PUSH2 0x2110 PUSH2 0x206A JUMP JUMPDEST JUMPDEST SWAP3 POP SWAP3 SWAP1 POP JUMP JUMPDEST PUSH0 PUSH20 0xFFFFFFFFFFFFFFFFFFFFFFFFFFFFFFFFFFFFFFFF DUP3 AND SWAP1 POP SWAP2 SWAP1 POP JUMP JUMPDEST PUSH0 PUSH2 0x2141 DUP3 PUSH2 0x2118 JUMP JUMPDEST SWAP1 POP SWAP2 SWAP1 POP JUMP JUMPDEST PUSH2 0x2151 DUP2 PUSH2 0x2137 JUMP JUMPDEST DUP2 EQ PUSH2 0x215B JUMPI PUSH0 PUSH0 REVERT JUMPDEST POP JUMP JUMPDEST PUSH0 DUP2 CALLDATALOAD SWAP1 POP PUSH2 0x216C DUP2 PUSH2 0x2148 JUMP JUMPDEST SWAP3 SWAP2 POP POP JUMP JUMPDEST PUSH0 DUP2 SWAP1 POP SWAP2 SWAP1 POP JUMP JUMPDEST PUSH2 0x2184 DUP2 PUSH2 0x2172 JUMP JUMPDEST DUP2 EQ PUSH2 0x218E JUMPI PUSH0 PUSH0 REVERT JUMPDEST POP JUMP JUMPDEST PUSH0 DUP2 CALLDATALOAD SWAP1 POP PUSH2 0x219F DUP2 PUSH2 0x217B JUMP JUMPDEST SWAP3 SWAP2 POP POP JUMP JUMPDEST PUSH0 PUSH0 DUP4 PUSH1 0x1F DUP5 ADD SLT PUSH2 0x21BA JUMPI PUSH2 0x21B9 PUSH2 0x2062 JUMP JUMPDEST JUMPDEST DUP3 CALLDATALOAD SWAP1 POP PUSH8 0xFFFFFFFFFFFFFFFF DUP2 GT ISZERO PUSH2 0x21D7 JUMPI PUSH2 0x21D6 PUSH2 0x2066 JUMP JUMPDEST JUMPDEST PUSH1 0x20 DUP4 ADD SWAP2 POP DUP4 PUSH1 0x40 DUP3 MUL DUP4 ADD GT ISZERO PUSH2 0x21F3 JUMPI PUSH2 0x21F2 PUSH2 0x206A JUMP JUMPDEST JUMPDEST SWAP3 POP SWAP3 SWAP1 POP JUMP JUMPDEST PUSH0 PUSH0 PUSH0 PUSH0 PUSH0 PUSH0 PUSH0 PUSH0 PUSH0 PUSH1 0xC0 DUP11 DUP13 SUB SLT ISZERO PUSH2 0x2217 JUMPI PUSH2 0x2216 PUSH2 0x205A JUMP JUMPDEST JUMPDEST PUSH0 DUP11 ADD CALLDATALOAD PUSH8 0xFFFFFFFFFFFFFFFF DUP2 GT ISZERO PUSH2 0x2234 JUMPI PUSH2 0x2233 PUSH2 0x205E JUMP JUMPDEST JUMPDEST PUSH2 0x2240 DUP13 DUP3 DUP14 ADD PUSH2 0x206E JUMP JUMPDEST SWAP10 POP SWAP10 POP POP PUSH1 0x20 DUP11 ADD CALLDATALOAD PUSH8 0xFFFFFFFFFFFFFFFF DUP2 GT ISZERO PUSH2 0x2263 JUMPI PUSH2 0x2262 PUSH2 0x205E JUMP JUMPDEST JUMPDEST PUSH2 0x226F DUP13 DUP3 DUP14 ADD PUSH2 0x20C3 JUMP JUMPDEST SWAP8 POP SWAP8 POP POP PUSH1 0x40 PUSH2 0x2282 DUP13 DUP3 DUP14 ADD PUSH2 0x215E JUMP JUMPDEST SWAP6 POP POP PUSH1 0x60 PUSH2 0x2293 DUP13 DUP3 DUP14 ADD PUSH2 0x2191 JUMP JUMPDEST SWAP5 POP POP PUSH1 0x80 PUSH2 0x22A4 DUP13 DUP3 DUP14 ADD PUSH2 0x2191 JUMP JUMPDEST SWAP4 POP POP PUSH1 0xA0 DUP11 ADD CALLDATALOAD PUSH8 0xFFFFFFFFFFFFFFFF DUP2 GT ISZERO PUSH2 0x22C5 JUMPI PUSH2 0x22C4 PUSH2 0x205E JUMP JUMPDEST JUMPDEST PUSH2 0x22D1 DUP13 DUP3 DUP14 ADD PUSH2 0x21A5 JUMP JUMPDEST SWAP3 POP SWAP3 POP POP SWAP3 SWAP6 SWAP9 POP SWAP3 SWAP6 SWAP9 POP SWAP3 SWAP6 SWAP9 JUMP JUMPDEST PUSH0 DUP2 SWAP1 POP SWAP2 SWAP1 POP JUMP JUMPDEST PUSH0 PUSH2 0x2306 PUSH2 0x2301 PUSH2 0x22FC DUP5 PUSH2 0x2118 JUMP JUMPDEST PUSH2 0x22E3 JUMP JUMPDEST PUSH2 0x2118 JUMP JUMPDEST SWAP1 POP SWAP2 SWAP1 POP JUMP JUMPDEST PUSH0 PUSH2 0x2317 DUP3 PUSH2 0x22EC JUMP JUMPDEST SWAP1 POP SWAP2 SWAP1 POP JUMP JUMPDEST PUSH0 PUSH2 0x2328 DUP3 PUSH2 0x230D JUMP JUMPDEST SWAP1 POP SWAP2 SWAP1 POP JUMP JUMPDEST PUSH2 0x2338 DUP2 PUSH2 0x231E JUMP JUMPDEST DUP3 MSTORE POP POP JUMP JUMPDEST PUSH0 PUSH1 0x20 DUP3 ADD SWAP1 POP PUSH2 0x2351 PUSH0 DUP4 ADD DUP5 PUSH2 0x232F JUMP JUMPDEST SWAP3 SWAP2 POP POP JUMP JUMPDEST PUSH0 DUP2 MLOAD SWAP1 POP PUSH2 0x2365 DUP2 PUSH2 0x2148 JUMP JUMPDEST SWAP3 SWAP2 POP POP JUMP JUMPDEST PUSH0 PUSH1 0x20 DUP3 DUP5 SUB SLT ISZERO PUSH2 0x2380 JUMPI PUSH2 0x237F PUSH2 0x205A JUMP JUMPDEST JUMPDEST PUSH0 PUSH2 0x238D DUP5 DUP3 DUP6 ADD PUSH2 0x2357 JUMP JUMPDEST SWAP2 POP POP SWAP3 SWAP2 POP POP JUMP JUMPDEST PUSH32 0x4D756C74695377617020526F757465723A204E6F20696E707574730000000000 PUSH0 DUP3 ADD MSTORE POP JUMP JUMPDEST PUSH0 PUSH2 0x23CA PUSH1 0x1B DUP4 PUSH2 0x1FD9 JUMP JUMPDEST SWAP2 POP PUSH2 0x23D5 DUP3 PUSH2 0x2396 JUMP JUMPDEST PUSH1 0x20 DUP3 ADD SWAP1 POP SWAP2 SWAP1 POP JUMP JUMPDEST PUSH0 PUSH1 0x20 DUP3 ADD SWAP1 POP DUP2 DUP2 SUB PUSH0 DUP4 ADD MSTORE PUSH2 0x23F7 DUP2 PUSH2 0x23BE JUMP JUMPDEST SWAP1 POP SWAP2 SWAP1 POP JUMP JUMPDEST PUSH32 0x4D756C74695377617020526F757465723A204E6F206F75747075747300000000 PUSH0 DUP3 ADD MSTORE POP JUMP JUMPDEST PUSH0 PUSH2 0x2432 PUSH1 0x1C DUP4 PUSH2 0x1FD9 JUMP JUMPDEST SWAP2 POP PUSH2 0x243D DUP3 PUSH2 0x23FE JUMP JUMPDEST PUSH1 0x20 DUP3 ADD SWAP1 POP SWAP2 SWAP1 POP JUMP JUMPDEST PUSH0 PUSH1 0x20 DUP3 ADD SWAP1 POP DUP2 DUP2 SUB PUSH0 DUP4 ADD MSTORE PUSH2 0x245F DUP2 PUSH2 0x2426 JUMP JUMPDEST SWAP1 POP SWAP2 SWAP1 POP JUMP JUMPDEST PUSH32 0x4D756C74695377617020526F757465723A2052656365697665722063616E6E6F PUSH0 DUP3 ADD MSTORE PUSH32 0x74206265207A65726F2061646472657373000000000000000000000000000000 PUSH1 0x20 DUP3 ADD MSTORE POP JUMP JUMPDEST PUSH0 PUSH2 0x24C0 PUSH1 0x31 DUP4 PUSH2 0x1FD9 JUMP JUMPDEST SWAP2 POP PUSH2 0x24CB DUP3 PUSH2 0x2466 JUMP JUMPDEST PUSH1 0x40 DUP3 ADD SWAP1 POP SWAP2 SWAP1 POP JUMP JUMPDEST PUSH0 PUSH1 0x20 DUP3 ADD SWAP1 POP DUP2 DUP2 SUB PUSH0 DUP4 ADD MSTORE PUSH2 0x24ED DUP2 PUSH2 0x24B4 JUMP JUMPDEST SWAP1 POP SWAP2 SWAP1 POP JUMP JUMPDEST PUSH32 0x4D756C74695377617020526F757465723A2062616420736C6970706167650000 PUSH0 DUP3 ADD MSTORE POP JUMP JUMPDEST PUSH0 PUSH2 0x2528 PUSH1 0x1E DUP4 PUSH2 0x1FD9 JUMP JUMPDEST SWAP2 POP PUSH2 0x2533 DUP3 PUSH2 0x24F4 JUMP JUMPDEST PUSH1 0x20 DUP3 ADD SWAP1 POP SWAP2 SWAP1 POP JUMP JUMPDEST PUSH0 PUSH1 0x20 DUP3 ADD SWAP1 POP DUP2 DUP2 SUB PUSH0 DUP4 ADD MSTORE PUSH2 0x2555 DUP2 PUSH2 0x251C JUMP JUMPDEST SWAP1 POP SWAP2 SWAP1 POP JUMP JUMPDEST PUSH32 0x4D756C74695377617020526F757465723A20646561646C696E65207061737365 PUSH0 DUP3 ADD MSTORE PUSH32 0x6400000000000000000000000000000000000000000000000000000000000000 PUSH1 0x20 DUP3 ADD MSTORE POP JUMP JUMPDEST PUSH0 PUSH2 0x25B6 PUSH1 0x21 DUP4 PUSH2 0x1FD9 JUMP JUMPDEST SWAP2 POP PUSH2 0x25C1 DUP3 PUSH2 0x255C JUMP JUMPDEST PUSH1 0x40 DUP3 ADD SWAP1 POP SWAP2 SWAP1 POP JUMP JUMPDEST PUSH0 PUSH1 0x20 DUP3 ADD SWAP1 POP DUP2 DUP2 SUB PUSH0 DUP4 ADD MSTORE PUSH2 0x25E3 DUP2 PUSH2 0x25AA JUMP JUMPDEST SWAP1 POP SWAP2 SWAP1 POP JUMP JUMPDEST PUSH0 DUP3 DUP3 MSTORE PUSH1 0x20 DUP3 ADD SWAP1 POP SWAP3 SWAP2 POP POP JUMP JUMPDEST PUSH0 DUP2 SWAP1 POP SWAP2 SWAP1 POP JUMP JUMPDEST PUSH0 PUSH2 0x2611 PUSH1 0x20 DUP5 ADD DUP5 PUSH2 0x215E JUMP JUMPDEST SWAP1 POP SWAP3 SWAP2 POP POP JUMP JUMPDEST PUSH2 0x2622 DUP2 PUSH2 0x2137 JUMP JUMPDEST DUP3 MSTORE POP POP JUMP JUMPDEST PUSH0 PUSH2 0x2636 PUSH1 0x20 DUP5 ADD DUP5 PUSH2 0x2191 JUMP JUMPDEST SWAP1 POP SWAP3 SWAP2 POP POP JUMP JUMPDEST PUSH2 0x2647 DUP2 PUSH2 0x2172 JUMP JUMPDEST DUP3 MSTORE POP POP JUMP JUMPDEST PUSH1 0x40 DUP3 ADD PUSH2 0x265D PUSH0 DUP4 ADD DUP4 PUSH2 0x2603 JUMP JUMPDEST PUSH2 0x2669 PUSH0 DUP6 ADD DUP3 PUSH2 0x2619 JUMP JUMPDEST POP PUSH2 0x2677 PUSH1 0x20 DUP4 ADD DUP4 PUSH2 0x2628 JUMP JUMPDEST PUSH2 0x2684 PUSH1 0x20 DUP6 ADD DUP3 PUSH2 0x263E JUMP JUMPDEST POP POP POP POP JUMP JUMPDEST PUSH0 PUSH2 0x2695 DUP4 DUP4 PUSH2 0x264D JUMP JUMPDEST PUSH1 0x40 DUP4 ADD SWAP1 POP SWAP3 SWAP2 POP POP JUMP JUMPDEST PUSH0 DUP3 SWAP1 POP SWAP3 SWAP2 POP POP JUMP JUMPDEST PUSH0 PUSH1 0x40 DUP3 ADD SWAP1 POP SWAP2 SWAP1 POP JUMP JUMPDEST PUSH0 PUSH2 0x26C2 DUP4 DUP6 PUSH2 0x25EA JUMP JUMPDEST SWAP4 POP PUSH2 0x26CD DUP3 PUSH2 0x25FA JUMP JUMPDEST DUP1 PUSH0 JUMPDEST DUP6 DUP2 LT ISZERO PUSH2 0x2705 JUMPI PUSH2 0x26E2 DUP3 DUP5 PUSH2 0x26A1 JUMP JUMPDEST PUSH2 0x26EC DUP9 DUP3 PUSH2 0x268A JUMP JUMPDEST SWAP8 POP PUSH2 0x26F7 DUP4 PUSH2 0x26AB JUMP JUMPDEST SWAP3 POP POP PUSH1 0x1 DUP2 ADD SWAP1 POP PUSH2 0x26D0 JUMP JUMPDEST POP DUP6 SWAP3 POP POP POP SWAP4 SWAP3 POP POP POP JUMP JUMPDEST PUSH0 DUP3 DUP3 MSTORE PUSH1 0x20 DUP3 ADD SWAP1 POP SWAP3 SWAP2 POP POP JUMP JUMPDEST PUSH0 DUP2 SWAP1 POP SWAP2 SWAP1 POP JUMP JUMPDEST PUSH0 PUSH2 0xFFFF DUP3 AND SWAP1 POP SWAP2 SWAP1 POP JUMP JUMPDEST PUSH2 0x2741 DUP2 PUSH2 0x272B JUMP JUMPDEST DUP2 EQ PUSH2 0x274B JUMPI PUSH0 PUSH0 REVERT JUMPDEST POP JUMP JUMPDEST PUSH0 DUP2 CALLDATALOAD SWAP1 POP PUSH2 0x275C DUP2 PUSH2 0x2738 JUMP JUMPDEST SWAP3 SWAP2 POP POP JUMP JUMPDEST PUSH0 PUSH2 0x2770 PUSH1 0x20 DUP5 ADD DUP5 PUSH2 0x274E JUMP JUMPDEST SWAP1 POP SWAP3 SWAP2 POP POP JUMP JUMPDEST PUSH2 0x2781 DUP2 PUSH2 0x272B JUMP JUMPDEST DUP3 MSTORE POP POP JUMP JUMPDEST PUSH1 0x40 DUP3 ADD PUSH2 0x2797 PUSH0 DUP4 ADD DUP4 PUSH2 0x2603 JUMP JUMPDEST PUSH2 0x27A3 PUSH0 DUP6 ADD DUP3 PUSH2 0x2619 JUMP JUMPDEST POP PUSH2 0x27B1 PUSH1 0x20 DUP4 ADD DUP4 PUSH2 0x2762 JUMP JUMPDEST PUSH2 0x27BE PUSH1 0x20 DUP6 ADD DUP3 PUSH2 0x2778 JUMP JUMPDEST POP POP POP POP JUMP JUMPDEST PUSH0 PUSH2 0x27CF DUP4 DUP4 PUSH2 0x2787 JUMP JUMPDEST PUSH1 0x40 DUP4 ADD SWAP1 POP SWAP3 SWAP2 POP POP JUMP JUMPDEST PUSH0 DUP3 SWAP1 POP SWAP3 SWAP2 POP POP JUMP JUMPDEST PUSH0 PUSH1 0x40 DUP3 ADD SWAP1 POP SWAP2 SWAP1 POP JUMP JUMPDEST PUSH0 PUSH2 0x27FC DUP4 DUP6 PUSH2 0x2712 JUMP JUMPDEST SWAP4 POP PUSH2 0x2807 DUP3 PUSH2 0x2722 JUMP JUMPDEST DUP1 PUSH0 JUMPDEST DUP6 DUP2 LT ISZERO PUSH2 0x283F JUMPI PUSH2 0x281C DUP3 DUP5 PUSH2 0x27DB JUMP JUMPDEST PUSH2 0x2826 DUP9 DUP3 PUSH2 0x27C4 JUMP JUMPDEST SWAP8 POP PUSH2 0x2831 DUP4 PUSH2 0x27E5 JUMP JUMPDEST SWAP3 POP POP PUSH1 0x1 DUP2 ADD SWAP1 POP PUSH2 0x280A JUMP JUMPDEST POP DUP6 SWAP3 POP POP POP SWAP4 SWAP3 POP POP POP JUMP JUMPDEST PUSH2 0x2855 DUP2 PUSH2 0x2172 JUMP JUMPDEST DUP3 MSTORE POP POP JUMP JUMPDEST PUSH0 DUP3 DUP3 MSTORE PUSH1 0x20 DUP3 ADD SWAP1 POP SWAP3 SWAP2 POP POP JUMP JUMPDEST PUSH0 DUP2 SWAP1 POP SWAP2 SWAP1 POP JUMP JUMPDEST PUSH1 0x40 DUP3 ADD PUSH2 0x2884 PUSH0 DUP4 ADD DUP4 PUSH2 0x2603 JUMP JUMPDEST PUSH2 0x2890 PUSH0 DUP6 ADD DUP3 PUSH2 0x2619 JUMP JUMPDEST POP PUSH2 0x289E PUSH1 0x20 DUP4 ADD DUP4 PUSH2 0x2762 JUMP JUMPDEST PUSH2 0x28AB PUSH1 0x20 DUP6 ADD DUP3 PUSH2 0x2778 JUMP JUMPDEST POP POP POP POP JUMP JUMPDEST PUSH0 PUSH2 0x28BC DUP4 DUP4 PUSH2 0x2874 JUMP JUMPDEST PUSH1 0x40 DUP4 ADD SWAP1 POP SWAP3 SWAP2 POP POP JUMP JUMPDEST PUSH0 DUP3 SWAP1 POP SWAP3 SWAP2 POP POP JUMP JUMPDEST PUSH0 PUSH1 0x40 DUP3 ADD SWAP1 POP SWAP2 SWAP1 POP JUMP JUMPDEST PUSH0 PUSH2 0x28E9 DUP4 DUP6 PUSH2 0x285B JUMP JUMPDEST SWAP4 POP PUSH2 0x28F4 DUP3 PUSH2 0x286B JUMP JUMPDEST DUP1 PUSH0 JUMPDEST DUP6 DUP2 LT ISZERO PUSH2 0x292C JUMPI PUSH2 0x2909 DUP3 DUP5 PUSH2 0x28C8 JUMP JUMPDEST PUSH2 0x2913 DUP9 DUP3 PUSH2 0x28B1 JUMP JUMPDEST SWAP8 POP PUSH2 0x291E DUP4 PUSH2 0x28D2 JUMP JUMPDEST SWAP3 POP POP PUSH1 0x1 DUP2 ADD SWAP1 POP PUSH2 0x28F7 JUMP JUMPDEST POP DUP6 SWAP3 POP POP POP SWAP4 SWAP3 POP POP POP JUMP JUMPDEST PUSH0 PUSH1 0xA0 DUP3 ADD SWAP1 POP DUP2 DUP2 SUB PUSH0 DUP4 ADD MSTORE PUSH2 0x2952 DUP2 DUP11 DUP13 PUSH2 0x26B7 JUMP JUMPDEST SWAP1 POP DUP2 DUP2 SUB PUSH1 0x20 DUP4 ADD MSTORE PUSH2 0x2967 DUP2 DUP9 DUP11 PUSH2 0x27F1 JUMP JUMPDEST SWAP1 POP PUSH2 0x2976 PUSH1 0x40 DUP4 ADD DUP8 PUSH2 0x284C JUMP JUMPDEST PUSH2 0x2983 PUSH1 0x60 DUP4 ADD DUP7 PUSH2 0x284C JUMP JUMPDEST DUP2 DUP2 SUB PUSH1 0x80 DUP4 ADD MSTORE PUSH2 0x2996 DUP2 DUP5 DUP7 PUSH2 0x28DE JUMP JUMPDEST SWAP1 POP SWAP10 SWAP9 POP POP POP POP POP POP POP POP POP JUMP JUMPDEST PUSH32 0x5265656E7472616E637947756172643A207265656E7472616E742063616C6C00 PUSH0 DUP3 ADD MSTORE POP JUMP JUMPDEST PUSH0 PUSH2 0x29D9 PUSH1 0x1F DUP4 PUSH2 0x1FD9 JUMP JUMPDEST SWAP2 POP PUSH2 0x29E4 DUP3 PUSH2 0x29A5 JUMP JUMPDEST PUSH1 0x20 DUP3 ADD SWAP1 POP SWAP2 SWAP1 POP JUMP JUMPDEST PUSH0 PUSH1 0x20 DUP3 ADD SWAP1 POP DUP2 DUP2 SUB PUSH0 DUP4 ADD MSTORE PUSH2 0x2A06 DUP2 PUSH2 0x29CD JUMP JUMPDEST SWAP1 POP SWAP2 SWAP1 POP JUMP JUMPDEST PUSH32 0x4E487B7100000000000000000000000000000000000000000000000000000000 PUSH0 MSTORE PUSH1 0x32 PUSH1 0x4 MSTORE PUSH1 0x24 PUSH0 REVERT JUMPDEST PUSH0 PUSH1 0x20 DUP3 DUP5 SUB SLT ISZERO PUSH2 0x2A4F JUMPI PUSH2 0x2A4E PUSH2 0x205A JUMP JUMPDEST JUMPDEST PUSH0 PUSH2 0x2A5C DUP5 DUP3 DUP6 ADD PUSH2 0x215E JUMP JUMPDEST SWAP2 POP POP SWAP3 SWAP2 POP POP JUMP JUMPDEST PUSH32 0x4E487B7100000000000000000000000000000000000000000000000000000000 PUSH0 MSTORE PUSH1 0x11 PUSH1 0x4 MSTORE PUSH1 0x24 PUSH0 REVERT JUMPDEST PUSH0 PUSH2 0x2A9C DUP3 PUSH2 0x2172 JUMP JUMPDEST SWAP2 POP PUSH2 0x2AA7 DUP4 PUSH2 0x2172 JUMP JUMPDEST SWAP3 POP DUP3 DUP3 ADD SWAP1 POP DUP1 DUP3 GT ISZERO PUSH2 0x2ABF JUMPI PUSH2 0x2ABE PUSH2 0x2A65 JUMP JUMPDEST JUMPDEST SWAP3 SWAP2 POP POP JUMP JUMPDEST PUSH32 0x6D73672E76616C756520213D2045544820696E70757473000000000000000000 PUSH0 DUP3 ADD MSTORE POP JUMP JUMPDEST PUSH0 PUSH2 0x2AF9 PUSH1 0x17 DUP4 PUSH2 0x1FD9 JUMP JUMPDEST SWAP2 POP PUSH2 0x2B04 DUP3 PUSH2 0x2AC5 JUMP JUMPDEST PUSH1 0x20 DUP3 ADD SWAP1 POP SWAP2 SWAP1 POP JUMP JUMPDEST PUSH0 PUSH1 0x20 DUP3 ADD SWAP1 POP DUP2 DUP2 SUB PUSH0 DUP4 ADD MSTORE PUSH2 0x2B26 DUP2 PUSH2 0x2AED JUMP JUMPDEST SWAP1 POP SWAP2 SWAP1 POP JUMP JUMPDEST PUSH0 PUSH1 0x20 DUP3 DUP5 SUB SLT ISZERO PUSH2 0x2B42 JUMPI PUSH2 0x2B41 PUSH2 0x205A JUMP JUMPDEST JUMPDEST PUSH0 PUSH2 0x2B4F DUP5 DUP3 DUP6 ADD PUSH2 0x274E JUMP JUMPDEST SWAP2 POP POP SWAP3 SWAP2 POP POP JUMP JUMPDEST PUSH32 0x4D756C74695377617020526F757465723A20576569676874206D757374206265 PUSH0 DUP3 ADD MSTORE PUSH32 0x2067726561746572207468616E20300000000000000000000000000000000000 PUSH1 0x20 DUP3 ADD MSTORE POP JUMP JUMPDEST PUSH0 PUSH2 0x2BB2 PUSH1 0x2F DUP4 PUSH2 0x1FD9 JUMP JUMPDEST SWAP2 POP PUSH2 0x2BBD DUP3 PUSH2 0x2B58 JUMP JUMPDEST PUSH1 0x40 DUP3 ADD SWAP1 POP SWAP2 SWAP1 POP JUMP JUMPDEST PUSH0 PUSH1 0x20 DUP3 ADD SWAP1 POP DUP2 DUP2 SUB PUSH0 DUP4 ADD MSTORE PUSH2 0x2BDF DUP2 PUSH2 0x2BA6 JUMP JUMPDEST SWAP1 POP SWAP2 SWAP1 POP JUMP JUMPDEST PUSH32 0x4D756C74695377617020526F757465723A20546F74616C20776569676874206D PUSH0 DUP3 ADD MSTORE PUSH32 0x7573742062652031303025000000000000000000000000000000000000000000 PUSH1 0x20 DUP3 ADD MSTORE POP JUMP JUMPDEST PUSH0 PUSH2 0x2C40 PUSH1 0x2B DUP4 PUSH2 0x1FD9 JUMP JUMPDEST SWAP2 POP PUSH2 0x2C4B DUP3 PUSH2 0x2BE6 JUMP JUMPDEST PUSH1 0x40 DUP3 ADD SWAP1 POP SWAP2 SWAP1 POP JUMP JUMPDEST PUSH0 PUSH1 0x20 DUP3 ADD SWAP1 POP DUP2 DUP2 SUB PUSH0 DUP4 ADD MSTORE PUSH2 0x2C6D DUP2 PUSH2 0x2C34 JUMP JUMPDEST SWAP1 POP SWAP2 SWAP1 POP JUMP JUMPDEST PUSH32 0x4665653A207A65726F2061646472657373000000000000000000000000000000 PUSH0 DUP3 ADD MSTORE POP JUMP JUMPDEST PUSH0 PUSH2 0x2CA8 PUSH1 0x11 DUP4 PUSH2 0x1FD9 JUMP JUMPDEST SWAP2 POP PUSH2 0x2CB3 DUP3 PUSH2 0x2C74 JUMP JUMPDEST PUSH1 0x20 DUP3 ADD SWAP1 POP SWAP2 SWAP1 POP JUMP JUMPDEST PUSH0 PUSH1 0x20 DUP3 ADD SWAP1 POP DUP2 DUP2 SUB PUSH0 DUP4 ADD MSTORE PUSH2 0x2CD5 DUP2 PUSH2 0x2C9C JUMP JUMPDEST SWAP1 POP SWAP2 SWAP1 POP JUMP JUMPDEST PUSH32 0x4665653A207A65726F2062697073000000000000000000000000000000000000 PUSH0 DUP3 ADD MSTORE POP JUMP JUMPDEST PUSH0 PUSH2 0x2D10 PUSH1 0xE DUP4 PUSH2 0x1FD9 JUMP JUMPDEST SWAP2 POP PUSH2 0x2D1B DUP3 PUSH2 0x2CDC JUMP JUMPDEST PUSH1 0x20 DUP3 ADD SWAP1 POP SWAP2 SWAP1 POP JUMP JUMPDEST PUSH0 PUSH1 0x20 DUP3 ADD SWAP1 POP DUP2 DUP2 SUB PUSH0 DUP4 ADD MSTORE PUSH2 0x2D3D DUP2 PUSH2 0x2D04 JUMP JUMPDEST SWAP1 POP SWAP2 SWAP1 POP JUMP JUMPDEST PUSH32 0x4665653A203E2031303025000000000000000000000000000000000000000000 PUSH0 DUP3 ADD MSTORE POP JUMP JUMPDEST PUSH0 PUSH2 0x2D78 PUSH1 0xB DUP4 PUSH2 0x1FD9 JUMP JUMPDEST SWAP2 POP PUSH2 0x2D83 DUP3 PUSH2 0x2D44 JUMP JUMPDEST PUSH1 0x20 DUP3 ADD SWAP1 POP SWAP2 SWAP1 POP JUMP JUMPDEST PUSH0 PUSH1 0x20 DUP3 ADD SWAP1 POP DUP2 DUP2 SUB PUSH0 DUP4 ADD MSTORE PUSH2 0x2DA5 DUP2 PUSH2 0x2D6C JUMP JUMPDEST SWAP1 POP SWAP2 SWAP1 POP JUMP JUMPDEST PUSH0 PUSH2 0x2DB6 DUP3 PUSH2 0x2172 JUMP JUMPDEST SWAP2 POP PUSH2 0x2DC1 DUP4 PUSH2 0x2172 JUMP JUMPDEST SWAP3 POP DUP3 DUP3 SUB SWAP1 POP DUP2 DUP2 GT ISZERO PUSH2 0x2DD9 JUMPI PUSH2 0x2DD8 PUSH2 0x2A65 JUMP JUMPDEST JUMPDEST SWAP3 SWAP2 POP POP JUMP JUMPDEST PUSH0 PUSH1 0x20 DUP3 ADD SWAP1 POP PUSH2 0x2DF2 PUSH0 DUP4 ADD DUP5 PUSH2 0x284C JUMP JUMPDEST SWAP3 SWAP2 POP POP JUMP JUMPDEST PUSH2 0x2E01 DUP2 PUSH2 0x2137 JUMP JUMPDEST DUP3 MSTORE POP POP JUMP JUMPDEST PUSH0 PUSH1 0x20 DUP3 ADD SWAP1 POP PUSH2 0x2E1A PUSH0 DUP4 ADD DUP5 PUSH2 0x2DF8 JUMP JUMPDEST SWAP3 SWAP2 POP POP JUMP JUMPDEST PUSH0 DUP2 MLOAD SWAP1 POP PUSH2 0x2E2E DUP2 PUSH2 0x217B JUMP JUMPDEST SWAP3 SWAP2 POP POP JUMP JUMPDEST PUSH0 PUSH1 0x20 DUP3 DUP5 SUB SLT ISZERO PUSH2 0x2E49 JUMPI PUSH2 0x2E48 PUSH2 0x205A JUMP JUMPDEST JUMPDEST PUSH0 PUSH2 0x2E56 DUP5 DUP3 DUP6 ADD PUSH2 0x2E20 JUMP JUMPDEST SWAP2 POP POP SWAP3 SWAP2 POP POP JUMP JUMPDEST PUSH32 0x777261703A207A65726F20616D6F756E74000000000000000000000000000000 PUSH0 DUP3 ADD MSTORE POP JUMP JUMPDEST PUSH0 PUSH2 0x2E93 PUSH1 0x11 DUP4 PUSH2 0x1FD9 JUMP JUMPDEST SWAP2 POP PUSH2 0x2E9E DUP3 PUSH2 0x2E5F JUMP JUMPDEST PUSH1 0x20 DUP3 ADD SWAP1 POP SWAP2 SWAP1 POP JUMP JUMPDEST PUSH0 PUSH1 0x20 DUP3 ADD SWAP1 POP DUP2 DUP2 SUB PUSH0 DUP4 ADD MSTORE PUSH2 0x2EC0 DUP2 PUSH2 0x2E87 JUMP JUMPDEST SWAP1 POP SWAP2 SWAP1 POP JUMP JUMPDEST PUSH32 0x777261703A206F6E6C79207468697320636F6E74726163742063616E20777261 PUSH0 DUP3 ADD MSTORE PUSH32 0x7020455448000000000000000000000000000000000000000000000000000000 PUSH1 0x20 DUP3 ADD MSTORE POP JUMP JUMPDEST PUSH0 PUSH2 0x2F21 PUSH1 0x25 DUP4 PUSH2 0x1FD9 JUMP JUMPDEST SWAP2 POP PUSH2 0x2F2C DUP3 PUSH2 0x2EC7 JUMP JUMPDEST PUSH1 0x40 DUP3 ADD SWAP1 POP SWAP2 SWAP1 POP JUMP JUMPDEST PUSH0 PUSH1 0x20 DUP3 ADD SWAP1 POP DUP2 DUP2 SUB PUSH0 DUP4 ADD MSTORE PUSH2 0x2F4E DUP2 PUSH2 0x2F15 JUMP JUMPDEST SWAP1 POP SWAP2 SWAP1 POP JUMP JUMPDEST PUSH32 0x574554483A20696E73756666696369656E742045544800000000000000000000 PUSH0 DUP3 ADD MSTORE POP JUMP JUMPDEST PUSH0 PUSH2 0x2F89 PUSH1 0x16 DUP4 PUSH2 0x1FD9 JUMP JUMPDEST SWAP2 POP PUSH2 0x2F94 DUP3 PUSH2 0x2F55 JUMP JUMPDEST PUSH1 0x20 DUP3 ADD SWAP1 POP SWAP2 SWAP1 POP JUMP JUMPDEST PUSH0 PUSH1 0x20 DUP3 ADD SWAP1 POP DUP2 DUP2 SUB PUSH0 DUP4 ADD MSTORE PUSH2 0x2FB6 DUP2 PUSH2 0x2F7D JUMP JUMPDEST SWAP1 POP SWAP2 SWAP1 POP JUMP JUMPDEST PUSH32 0x4D756C74695377617020526F757465723A20496E76616C69642066726F6D2074 PUSH0 DUP3 ADD MSTORE PUSH32 0x6F6B656E20616464726573730000000000000000000000000000000000000000 PUSH1 0x20 DUP3 ADD MSTORE POP JUMP JUMPDEST PUSH0 PUSH2 0x3017 PUSH1 0x2C DUP4 PUSH2 0x1FD9 JUMP JUMPDEST SWAP2 POP PUSH2 0x3022 DUP3 PUSH2 0x2FBD JUMP JUMPDEST PUSH1 0x40 DUP3 ADD SWAP1 POP SWAP2 SWAP1 POP JUMP JUMPDEST PUSH0 PUSH1 0x20 DUP3 ADD SWAP1 POP DUP2 DUP2 SUB PUSH0 DUP4 ADD MSTORE PUSH2 0x3044 DUP2 PUSH2 0x300B JUMP JUMPDEST SWAP1 POP SWAP2 SWAP1 POP JUMP JUMPDEST PUSH32 0x4D756C74695377617020526F757465723A20496E76616C696420746F20746F6B PUSH0 DUP3 ADD MSTORE PUSH32 0x656E206164647265737300000000000000000000000000000000000000000000 PUSH1 0x20 DUP3 ADD MSTORE POP JUMP JUMPDEST PUSH0 PUSH2 0x30A5 PUSH1 0x2A DUP4 PUSH2 0x1FD9 JUMP JUMPDEST SWAP2 POP PUSH2 0x30B0 DUP3 PUSH2 0x304B JUMP JUMPDEST PUSH1 0x40 DUP3 ADD SWAP1 POP SWAP2 SWAP1 POP JUMP JUMPDEST PUSH0 PUSH1 0x20 DUP3 ADD SWAP1 POP DUP2 DUP2 SUB PUSH0 DUP4 ADD MSTORE PUSH2 0x30D2 DUP2 PUSH2 0x3099 JUMP JUMPDEST SWAP1 POP SWAP2 SWAP1 POP JUMP JUMPDEST PUSH32 0x4D756C74695377617020526F757465723A20416D6F756E74206D757374206265 PUSH0 DUP3 ADD MSTORE PUSH32 0x2067726561746572207468616E20300000000000000000000000000000000000 PUSH1 0x20 DUP3 ADD MSTORE POP JUMP JUMPDEST PUSH0 PUSH2 0x3133 PUSH1 0x2F DUP4 PUSH2 0x1FD9 JUMP JUMPDEST SWAP2 POP PUSH2 0x313E DUP3 PUSH2 0x30D9 JUMP JUMPDEST PUSH1 0x40 DUP3 ADD SWAP1 POP SWAP2 SWAP1 POP JUMP JUMPDEST PUSH0 PUSH1 0x20 DUP3 ADD SWAP1 POP DUP2 DUP2 SUB PUSH0 DUP4 ADD MSTORE PUSH2 0x3160 DUP2 PUSH2 0x3127 JUMP JUMPDEST SWAP1 POP SWAP2 SWAP1 POP JUMP JUMPDEST PUSH0 DUP2 MLOAD SWAP1 POP SWAP2 SWAP1 POP JUMP JUMPDEST PUSH0 DUP3 DUP3 MSTORE PUSH1 0x20 DUP3 ADD SWAP1 POP SWAP3 SWAP2 POP POP JUMP JUMPDEST PUSH0 DUP2 SWAP1 POP PUSH1 0x20 DUP3 ADD SWAP1 POP SWAP2 SWAP1 POP JUMP JUMPDEST PUSH0 PUSH2 0x319B DUP4 DUP4 PUSH2 0x2619 JUMP JUMPDEST PUSH1 0x20 DUP4 ADD SWAP1 POP SWAP3 SWAP2 POP POP JUMP JUMPDEST PUSH0 PUSH1 0x20 DUP3 ADD SWAP1 POP SWAP2 SWAP1 POP JUMP JUMPDEST PUSH0 PUSH2 0x31BD DUP3 PUSH2 0x3167 JUMP JUMPDEST PUSH2 0x31C7 DUP2 DUP6 PUSH2 0x3171 JUMP JUMPDEST SWAP4 POP PUSH2 0x31D2 DUP4 PUSH2 0x3181 JUMP JUMPDEST DUP1 PUSH0 JUMPDEST DUP4 DUP2 LT ISZERO PUSH2 0x3202 JUMPI DUP2 MLOAD PUSH2 0x31E9 DUP9 DUP3 PUSH2 0x3190 JUMP JUMPDEST SWAP8 POP PUSH2 0x31F4 DUP4 PUSH2 0x31A7 JUMP JUMPDEST SWAP3 POP POP PUSH1 0x1 DUP2 ADD SWAP1 POP PUSH2 0x31D5 JUMP JUMPDEST POP DUP6 SWAP4 POP POP POP POP SWAP3 SWAP2 POP POP JUMP JUMPDEST PUSH0 PUSH1 0xA0 DUP3 ADD SWAP1 POP PUSH2 0x3222 PUSH0 DUP4 ADD DUP9 PUSH2 0x284C JUMP JUMPDEST PUSH2 0x322F PUSH1 0x20 DUP4 ADD DUP8 PUSH2 0x284C JUMP JUMPDEST DUP2 DUP2 SUB PUSH1 0x40 DUP4 ADD MSTORE PUSH2 0x3241 DUP2 DUP7 PUSH2 0x31B3 JUMP JUMPDEST SWAP1 POP PUSH2 0x3250 PUSH1 0x60 DUP4 ADD DUP6 PUSH2 0x2DF8 JUMP JUMPDEST PUSH2 0x325D PUSH1 0x80 DUP4 ADD DUP5 PUSH2 0x284C JUMP JUMPDEST SWAP7 SWAP6 POP POP POP POP POP POP JUMP JUMPDEST PUSH0 PUSH2 0x3271 DUP3 PUSH2 0x2172 JUMP JUMPDEST SWAP2 POP PUSH2 0x327C DUP4 PUSH2 0x2172 JUMP JUMPDEST SWAP3 POP DUP3 DUP3 MUL PUSH2 0x328A DUP2 PUSH2 0x2172 JUMP JUMPDEST SWAP2 POP DUP3 DUP3 DIV DUP5 EQ DUP4 ISZERO OR PUSH2 0x32A1 JUMPI PUSH2 0x32A0 PUSH2 0x2A65 JUMP JUMPDEST JUMPDEST POP SWAP3 SWAP2 POP POP JUMP JUMPDEST PUSH32 0x4E487B7100000000000000000000000000000000000000000000000000000000 PUSH0 MSTORE PUSH1 0x12 PUSH1 0x4 MSTORE PUSH1 0x24 PUSH0 REVERT JUMPDEST PUSH0 PUSH2 0x32DF DUP3 PUSH2 0x2172 JUMP JUMPDEST SWAP2 POP PUSH2 0x32EA DUP4 PUSH2 0x2172 JUMP JUMPDEST SWAP3 POP DUP3 PUSH2 0x32FA JUMPI PUSH2 0x32F9 PUSH2 0x32A8 JUMP JUMPDEST JUMPDEST DUP3 DUP3 DIV SWAP1 POP SWAP3 SWAP2 POP POP JUMP JUMPDEST PUSH32 0x756E777261703A207A65726F20616D6F756E7400000000000000000000000000 PUSH0 DUP3 ADD MSTORE POP JUMP JUMPDEST PUSH0 PUSH2 0x3339 PUSH1 0x13 DUP4 PUSH2 0x1FD9 JUMP JUMPDEST SWAP2 POP PUSH2 0x3344 DUP3 PUSH2 0x3305 JUMP JUMPDEST PUSH1 0x20 DUP3 ADD SWAP1 POP SWAP2 SWAP1 POP JUMP JUMPDEST PUSH0 PUSH1 0x20 DUP3 ADD SWAP1 POP DUP2 DUP2 SUB PUSH0 DUP4 ADD MSTORE PUSH2 0x3366 DUP2 PUSH2 0x332D JUMP JUMPDEST SWAP1 POP SWAP2 SWAP1 POP JUMP JUMPDEST PUSH32 0x574554483A20696E73756666696369656E742057455448000000000000000000 PUSH0 DUP3 ADD MSTORE POP JUMP JUMPDEST PUSH0 PUSH2 0x33A1 PUSH1 0x17 DUP4 PUSH2 0x1FD9 JUMP JUMPDEST SWAP2 POP PUSH2 0x33AC DUP3 PUSH2 0x336D JUMP JUMPDEST PUSH1 0x20 DUP3 ADD SWAP1 POP SWAP2 SWAP1 POP JUMP JUMPDEST PUSH0 PUSH1 0x20 DUP3 ADD SWAP1 POP DUP2 DUP2 SUB PUSH0 DUP4 ADD MSTORE PUSH2 0x33CE DUP2 PUSH2 0x3395 JUMP JUMPDEST SWAP1 POP SWAP2 SWAP1 POP JUMP JUMPDEST PUSH32 0x73656E64546F6B656E3A207A65726F20616D6F756E7400000000000000000000 PUSH0 DUP3 ADD MSTORE POP JUMP JUMPDEST PUSH0 PUSH2 0x3409 PUSH1 0x16 DUP4 PUSH2 0x1FD9 JUMP JUMPDEST SWAP2 POP PUSH2 0x3414 DUP3 PUSH2 0x33D5 JUMP JUMPDEST PUSH1 0x20 DUP3 ADD SWAP1 POP SWAP2 SWAP1 POP JUMP JUMPDEST PUSH0 PUSH1 0x20 DUP3 ADD SWAP1 POP DUP2 DUP2 SUB PUSH0 DUP4 ADD MSTORE PUSH2 0x3436 DUP2 PUSH2 0x33FD JUMP JUMPDEST SWAP1 POP SWAP2 SWAP1 POP JUMP JUMPDEST PUSH32 0x73656E644574683A207A65726F20616D6F756E74000000000000000000000000 PUSH0 DUP3 ADD MSTORE POP JUMP JUMPDEST PUSH0 PUSH2 0x3471 PUSH1 0x14 DUP4 PUSH2 0x1FD9 JUMP JUMPDEST SWAP2 POP PUSH2 0x347C DUP3 PUSH2 0x343D JUMP JUMPDEST PUSH1 0x20 DUP3 ADD SWAP1 POP SWAP2 SWAP1 POP JUMP JUMPDEST PUSH0 PUSH1 0x20 DUP3 ADD SWAP1 POP DUP2 DUP2 SUB PUSH0 DUP4 ADD MSTORE PUSH2 0x349E DUP2 PUSH2 0x3465 JUMP JUMPDEST SWAP1 POP SWAP2 SWAP1 POP JUMP JUMPDEST PUSH32 0x73656E644574683A20696E73756666696369656E742045544800000000000000 PUSH0 DUP3 ADD MSTORE POP JUMP JUMPDEST PUSH0 PUSH2 0x34D9 PUSH1 0x19 DUP4 PUSH2 0x1FD9 JUMP JUMPDEST SWAP2 POP PUSH2 0x34E4 DUP3 PUSH2 0x34A5 JUMP JUMPDEST PUSH1 0x20 DUP3 ADD SWAP1 POP SWAP2 SWAP1 POP JUMP JUMPDEST PUSH0 PUSH1 0x20 DUP3 ADD SWAP1 POP DUP2 DUP2 SUB PUSH0 DUP4 ADD MSTORE PUSH2 0x3506 DUP2 PUSH2 0x34CD JUMP JUMPDEST SWAP1 POP SWAP2 SWAP1 POP JUMP JUMPDEST PUSH0 DUP2 SWAP1 POP SWAP3 SWAP2 POP POP JUMP JUMPDEST POP JUMP JUMPDEST PUSH0 PUSH2 0x3525 PUSH0 DUP4 PUSH2 0x350D JUMP JUMPDEST SWAP2 POP PUSH2 0x3530 DUP3 PUSH2 0x3517 JUMP JUMPDEST PUSH0 DUP3 ADD SWAP1 POP SWAP2 SWAP1 POP JUMP JUMPDEST PUSH0 PUSH2 0x3544 DUP3 PUSH2 0x351A JUMP JUMPDEST SWAP2 POP DUP2 SWAP1 POP SWAP2 SWAP1 POP JUMP JUMPDEST PUSH32 0x4554482073656E64206661696C65640000000000000000000000000000000000 PUSH0 DUP3 ADD MSTORE POP JUMP JUMPDEST PUSH0 PUSH2 0x3582 PUSH1 0xF DUP4 PUSH2 0x1FD9 JUMP JUMPDEST SWAP2 POP PUSH2 0x358D DUP3 PUSH2 0x354E JUMP JUMPDEST PUSH1 0x20 DUP3 ADD SWAP1 POP SWAP2 SWAP1 POP JUMP JUMPDEST PUSH0 PUSH1 0x20 DUP3 ADD SWAP1 POP DUP2 DUP2 SUB PUSH0 DUP4 ADD MSTORE PUSH2 0x35AF DUP2 PUSH2 0x3576 JUMP JUMPDEST SWAP1 POP SWAP2 SWAP1 POP JUMP JUMPDEST PUSH32 0x72656365697665546F6B656E3A207A65726F20616D6F756E7400000000000000 PUSH0 DUP3 ADD MSTORE POP JUMP JUMPDEST PUSH0 PUSH2 0x35EA PUSH1 0x19 DUP4 PUSH2 0x1FD9 JUMP JUMPDEST SWAP2 POP PUSH2 0x35F5 DUP3 PUSH2 0x35B6 JUMP JUMPDEST PUSH1 0x20 DUP3 ADD SWAP1 POP SWAP2 SWAP1 POP JUMP JUMPDEST PUSH0 PUSH1 0x20 DUP3 ADD SWAP1 POP DUP2 DUP2 SUB PUSH0 DUP4 ADD MSTORE PUSH2 0x3617 DUP2 PUSH2 0x35DE JUMP JUMPDEST SWAP1 POP SWAP2 SWAP1 POP JUMP JUMPDEST PUSH0 PUSH1 0x40 DUP3 ADD SWAP1 POP PUSH2 0x3631 PUSH0 DUP4 ADD DUP6 PUSH2 0x2DF8 JUMP JUMPDEST PUSH2 0x363E PUSH1 0x20 DUP4 ADD DUP5 PUSH2 0x2DF8 JUMP JUMPDEST SWAP4 SWAP3 POP POP POP JUMP JUMPDEST PUSH32 0x72656365697665546F6B656E3A20616C6C6F77616E6365206973206C65737320 PUSH0 DUP3 ADD MSTORE PUSH32 0x7468616E20616D6F756E74000000000000000000000000000000000000000000 PUSH1 0x20 DUP3 ADD MSTORE POP JUMP JUMPDEST PUSH0 PUSH2 0x369F PUSH1 0x2B DUP4 PUSH2 0x1FD9 JUMP JUMPDEST SWAP2 POP PUSH2 0x36AA DUP3 PUSH2 0x3645 JUMP JUMPDEST PUSH1 0x40 DUP3 ADD SWAP1 POP SWAP2 SWAP1 POP JUMP JUMPDEST PUSH0 PUSH1 0x20 DUP3 ADD SWAP1 POP DUP2 DUP2 SUB PUSH0 DUP4 ADD MSTORE PUSH2 0x36CC DUP2 PUSH2 0x3693 JUMP JUMPDEST SWAP1 POP SWAP2 SWAP1 POP JUMP JUMPDEST PUSH32 0x72656365697665546F6B656E3A206E6F7468696E672072656365697665640000 PUSH0 DUP3 ADD MSTORE POP JUMP JUMPDEST PUSH0 PUSH2 0x3707 PUSH1 0x1E DUP4 PUSH2 0x1FD9 JUMP JUMPDEST SWAP2 POP PUSH2 0x3712 DUP3 PUSH2 0x36D3 JUMP JUMPDEST PUSH1 0x20 DUP3 ADD SWAP1 POP SWAP2 SWAP1 POP JUMP JUMPDEST PUSH0 PUSH1 0x20 DUP3 ADD SWAP1 POP DUP2 DUP2 SUB PUSH0 DUP4 ADD MSTORE PUSH2 0x3734 DUP2 PUSH2 0x36FB JUMP JUMPDEST SWAP1 POP SWAP2 SWAP1 POP JUMP JUMPDEST PUSH0 DUP2 SWAP1 POP SWAP2 SWAP1 POP JUMP JUMPDEST PUSH0 PUSH2 0x375E PUSH2 0x3759 PUSH2 0x3754 DUP5 PUSH2 0x373B JUMP JUMPDEST PUSH2 0x22E3 JUMP JUMPDEST PUSH2 0x2172 JUMP JUMPDEST SWAP1 POP SWAP2 SWAP1 POP JUMP JUMPDEST PUSH2 0x376E DUP2 PUSH2 0x3744 JUMP JUMPDEST DUP3 MSTORE POP POP JUMP JUMPDEST PUSH0 PUSH1 0x40 DUP3 ADD SWAP1 POP PUSH2 0x3787 PUSH0 DUP4 ADD DUP6 PUSH2 0x2DF8 JUMP JUMPDEST PUSH2 0x3794 PUSH1 0x20 DUP4 ADD DUP5 PUSH2 0x3765 JUMP JUMPDEST SWAP4 SWAP3 POP POP POP JUMP JUMPDEST PUSH0 DUP2 ISZERO ISZERO SWAP1 POP SWAP2 SWAP1 POP JUMP JUMPDEST PUSH2 0x37AF DUP2 PUSH2 0x379B JUMP JUMPDEST DUP2 EQ PUSH2 0x37B9 JUMPI PUSH0 PUSH0 REVERT JUMPDEST POP JUMP JUMPDEST PUSH0 DUP2 MLOAD SWAP1 POP PUSH2 0x37CA DUP2 PUSH2 0x37A6 JUMP JUMPDEST SWAP3 SWAP2 POP POP JUMP JUMPDEST PUSH0 PUSH1 0x20 DUP3 DUP5 SUB SLT ISZERO PUSH2 0x37E5 JUMPI PUSH2 0x37E4 PUSH2 0x205A JUMP JUMPDEST JUMPDEST PUSH0 PUSH2 0x37F2 DUP5 DUP3 DUP6 ADD PUSH2 0x37BC JUMP JUMPDEST SWAP2 POP POP SWAP3 SWAP2 POP POP JUMP JUMPDEST PUSH0 PUSH1 0x40 DUP3 ADD SWAP1 POP PUSH2 0x380E PUSH0 DUP4 ADD DUP6 PUSH2 0x2DF8 JUMP JUMPDEST PUSH2 0x381B PUSH1 0x20 DUP4 ADD DUP5 PUSH2 0x284C JUMP JUMPDEST SWAP4 SWAP3 POP POP POP JUMP JUMPDEST PUSH32 0x4E487B7100000000000000000000000000000000000000000000000000000000 PUSH0 MSTORE PUSH1 0x41 PUSH1 0x4 MSTORE PUSH1 0x24 PUSH0 REVERT JUMPDEST PUSH0 PUSH1 0x40 DUP3 ADD SWAP1 POP PUSH2 0x3862 PUSH0 DUP4 ADD DUP6 PUSH2 0x284C JUMP JUMPDEST DUP2 DUP2 SUB PUSH1 0x20 DUP4 ADD MSTORE PUSH2 0x3874 DUP2 DUP5 PUSH2 0x31B3 JUMP JUMPDEST SWAP1 POP SWAP4 SWAP3 POP POP POP JUMP JUMPDEST PUSH0 PUSH1 0x1F NOT PUSH1 0x1F DUP4 ADD AND SWAP1 POP SWAP2 SWAP1 POP JUMP JUMPDEST PUSH2 0x3896 DUP3 PUSH2 0x387D JUMP JUMPDEST DUP2 ADD DUP2 DUP2 LT PUSH8 0xFFFFFFFFFFFFFFFF DUP3 GT OR ISZERO PUSH2 0x38B5 JUMPI PUSH2 0x38B4 PUSH2 0x3822 JUMP JUMPDEST JUMPDEST DUP1 PUSH1 0x40 MSTORE POP POP POP JUMP JUMPDEST PUSH0 PUSH2 0x38C7 PUSH2 0x2051 JUMP JUMPDEST SWAP1 POP PUSH2 0x38D3 DUP3 DUP3 PUSH2 0x388D JUMP JUMPDEST SWAP2 SWAP1 POP JUMP JUMPDEST PUSH0 PUSH8 0xFFFFFFFFFFFFFFFF DUP3 GT ISZERO PUSH2 0x38F2 JUMPI PUSH2 0x38F1 PUSH2 0x3822 JUMP JUMPDEST JUMPDEST PUSH1 0x20 DUP3 MUL SWAP1 POP PUSH1 0x20 DUP2 ADD SWAP1 POP SWAP2 SWAP1 POP JUMP JUMPDEST PUSH0 PUSH2 0x3915 PUSH2 0x3910 DUP5 PUSH2 0x38D8 JUMP JUMPDEST PUSH2 0x38BE JUMP JUMPDEST SWAP1 POP DUP1 DUP4 DUP3 MSTORE PUSH1 0x20 DUP3 ADD SWAP1 POP PUSH1 0x20 DUP5 MUL DUP4 ADD DUP6 DUP2 GT ISZERO PUSH2 0x3938 JUMPI PUSH2 0x3937 PUSH2 0x206A JUMP JUMPDEST JUMPDEST DUP4 JUMPDEST DUP2 DUP2 LT ISZERO PUSH2 0x3961 JUMPI DUP1 PUSH2 0x394D DUP9 DUP3 PUSH2 0x2E20 JUMP JUMPDEST DUP5 MSTORE PUSH1 0x20 DUP5 ADD SWAP4 POP POP PUSH1 0x20 DUP2 ADD SWAP1 POP PUSH2 0x393A JUMP JUMPDEST POP POP POP SWAP4 SWAP3 POP POP POP JUMP JUMPDEST PUSH0 DUP3 PUSH1 0x1F DUP4 ADD SLT PUSH2 0x397F JUMPI PUSH2 0x397E PUSH2 0x2062 JUMP JUMPDEST JUMPDEST DUP2 MLOAD PUSH2 0x398F DUP5 DUP3 PUSH1 0x20 DUP7 ADD PUSH2 0x3903 JUMP JUMPDEST SWAP2 POP POP SWAP3 SWAP2 POP POP JUMP JUMPDEST PUSH0 PUSH1 0x20 DUP3 DUP5 SUB SLT ISZERO PUSH2 0x39AD JUMPI PUSH2 0x39AC PUSH2 0x205A JUMP JUMPDEST JUMPDEST PUSH0 DUP3 ADD MLOAD PUSH8 0xFFFFFFFFFFFFFFFF DUP2 GT ISZERO PUSH2 0x39CA JUMPI PUSH2 0x39C9 PUSH2 0x205E JUMP JUMPDEST JUMPDEST PUSH2 0x39D6 DUP5 DUP3 DUP6 ADD PUSH2 0x396B JUMP JUMPDEST SWAP2 POP POP SWAP3 SWAP2 POP POP JUMP JUMPDEST PUSH32 0x556E697377617020526F757465723A2051756F746520756E617661696C61626C PUSH0 DUP3 ADD MSTORE PUSH32 0x653A20706174682F6C6971756964697479000000000000000000000000000000 PUSH1 0x20 DUP3 ADD MSTORE POP JUMP JUMPDEST PUSH0 PUSH2 0x3A39 PUSH1 0x31 DUP4 PUSH2 0x1FD9 JUMP JUMPDEST SWAP2 POP PUSH2 0x3A44 DUP3 PUSH2 0x39DF JUMP JUMPDEST PUSH1 0x40 DUP3 ADD SWAP1 POP SWAP2 SWAP1 POP JUMP JUMPDEST PUSH0 PUSH1 0x20 DUP3 ADD SWAP1 POP DUP2 DUP2 SUB PUSH0 DUP4 ADD MSTORE PUSH2 0x3A66 DUP2 PUSH2 0x3A2D JUMP JUMPDEST SWAP1 POP SWAP2 SWAP1 POP JUMP JUMPDEST PUSH32 0x736C69707061676542697073203E203130302500000000000000000000000000 PUSH0 DUP3 ADD MSTORE POP JUMP JUMPDEST PUSH0 PUSH2 0x3AA1 PUSH1 0x13 DUP4 PUSH2 0x1FD9 JUMP JUMPDEST SWAP2 POP PUSH2 0x3AAC DUP3 PUSH2 0x3A6D JUMP JUMPDEST PUSH1 0x20 DUP3 ADD SWAP1 POP SWAP2 SWAP1 POP JUMP JUMPDEST PUSH0 PUSH1 0x20 DUP3 ADD SWAP1 POP DUP2 DUP2 SUB PUSH0 DUP4 ADD MSTORE PUSH2 0x3ACE DUP2 PUSH2 0x3A95 JUMP JUMPDEST SWAP1 POP SWAP2 SWAP1 POP JUMP JUMPDEST PUSH0 PUSH1 0x60 DUP3 ADD SWAP1 POP PUSH2 0x3AE8 PUSH0 DUP4 ADD DUP7 PUSH2 0x2DF8 JUMP JUMPDEST PUSH2 0x3AF5 PUSH1 0x20 DUP4 ADD DUP6 PUSH2 0x2DF8 JUMP JUMPDEST PUSH2 0x3B02 PUSH1 0x40 DUP4 ADD DUP5 PUSH2 0x284C JUMP JUMPDEST SWAP5 SWAP4 POP POP POP POP JUMP INVALID LOG2 PUSH5 0x6970667358 0x22 SLT KECCAK256 PUSH14 0xDEF3406880886ACAAC0BB869F2C6 INVALID NOT 0xC5 PUSH31 0x939B1BE2BADC851F068041C01764736F6C634300081E003300000000000000 "
				},
				"gasEstimates": {
					"creation": {
						"codeDepositCost": "3033600",
						"executionCost": "infinite",
						"totalCost": "infinite"
					},
					"external": {
						"router()": "infinite",
						"swap((address,uint256)[],(address,uint16)[],address,uint256,uint256,(address,uint16)[])": "infinite"
					}
				},
				"methodIdentifiers": {
					"router()": "f887ea40",
					"swap((address,uint256)[],(address,uint16)[],address,uint256,uint256,(address,uint16)[])": "192b5887"
				}
			},
			"storageLayout": {
				"storage": [
					{
						"astId": 100,
						"contract": "hopium/standalone/main/multiswap-router.sol:MultiSwapRouter",
						"label": "_status",
						"offset": 0,
						"slot": "0",
						"type": "t_uint256"
					}
				],
				"types": {
					"t_uint256": {
						"encoding": "inplace",
						"label": "uint256",
						"numberOfBytes": "32"
					}
				}
			},
			"userdoc": {
				"kind": "user",
				"methods": {},
				"version": 1
			}
		}
	}
}