{
	"hopium/etf/main/etf-vault-deployer.sol": {
		"EtfVaultDeployer": {
			"abi": [
				{
					"inputs": [
						{
							"internalType": "address",
							"name": "_directory",
							"type": "address"
						}
					],
					"stateMutability": "nonpayable",
					"type": "constructor"
				},
				{
					"anonymous": false,
					"inputs": [
						{
							"indexed": true,
							"internalType": "uint256",
							"name": "indexId",
							"type": "uint256"
						},
						{
							"indexed": false,
							"internalType": "address",
							"name": "vaultAddress",
							"type": "address"
						}
					],
					"name": "EtfVaultDeployed",
					"type": "event"
				},
				{
					"inputs": [],
					"name": "Directory",
					"outputs": [
						{
							"internalType": "contract IDirectory",
							"name": "",
							"type": "address"
						}
					],
					"stateMutability": "view",
					"type": "function"
				},
				{
					"inputs": [
						{
							"internalType": "address",
							"name": "_directory",
							"type": "address"
						}
					],
					"name": "changeDirectoryAddress",
					"outputs": [],
					"stateMutability": "nonpayable",
					"type": "function"
				},
				{
					"inputs": [
						{
							"internalType": "uint256",
							"name": "indexId",
							"type": "uint256"
						}
					],
					"name": "deployEtfVault",
					"outputs": [
						{
							"internalType": "address",
							"name": "",
							"type": "address"
						}
					],
					"stateMutability": "nonpayable",
					"type": "function"
				},
				{
					"inputs": [
						{
							"internalType": "string",
							"name": "_key",
							"type": "string"
						}
					],
					"name": "fetchFromDirectory",
					"outputs": [
						{
							"internalType": "address",
							"name": "",
							"type": "address"
						}
					],
					"stateMutability": "view",
					"type": "function"
				},
				{
					"inputs": [],
					"name": "owner",
					"outputs": [
						{
							"internalType": "address",
							"name": "",
							"type": "address"
						}
					],
					"stateMutability": "view",
					"type": "function"
				}
			],
			"devdoc": {
				"kind": "dev",
				"methods": {},
				"version": 1
			},
			"evm": {
				"assembly": "    /* \"hopium/etf/main/etf-vault-deployer.sol\":2612:3197  contract EtfVaultDeployer is ImDirectory, ImEtfFactory {... */\n  mstore(0x40, 0x80)\n    /* \"hopium/etf/main/etf-vault-deployer.sol\":2674:2732  constructor(address _directory) ImDirectory(_directory) {} */\n  callvalue\n  dup1\n  iszero\n  tag_1\n  jumpi\n  revert(0x00, 0x00)\ntag_1:\n  pop\n  mload(0x40)\n  sub(codesize, bytecodeSize)\n  dup1\n  bytecodeSize\n  dup4\n  codecopy\n  dup2\n  dup2\n  add\n  0x40\n  mstore\n  dup2\n  add\n  swap1\n  tag_2\n  swap2\n  swap1\n  tag_3\n  jump\t// in\ntag_2:\n    /* \"hopium/etf/main/etf-vault-deployer.sol\":2718:2728  _directory */\n  dup1\n    /* \"hopium/common/interface/imDirectory.sol\":412:437  _setDirectory(_directory) */\n  tag_7\n    /* \"hopium/common/interface/imDirectory.sol\":426:436  _directory */\n  dup2\n    /* \"hopium/common/interface/imDirectory.sol\":412:425  _setDirectory */\n  shl(0x20, tag_8)\n    /* \"hopium/common/interface/imDirectory.sol\":412:437  _setDirectory(_directory) */\n  0x20\n  shr\n  jump\t// in\ntag_7:\n    /* \"hopium/common/interface/imDirectory.sol\":370:464  constructor(address _directory) {... */\n  pop\n    /* \"hopium/etf/main/etf-vault-deployer.sol\":2674:2732  constructor(address _directory) ImDirectory(_directory) {} */\n  pop\n    /* \"hopium/etf/main/etf-vault-deployer.sol\":2612:3197  contract EtfVaultDeployer is ImDirectory, ImEtfFactory {... */\n  jump(tag_10)\n    /* \"hopium/common/interface/imDirectory.sol\":589:1050  function _setDirectory(address _directory) internal {... */\ntag_8:\n    /* \"hopium/common/interface/imDirectory.sol\":681:682  0 */\n  0x00\n    /* \"hopium/common/interface/imDirectory.sol\":659:683  _directory != address(0) */\n  0xffffffffffffffffffffffffffffffffffffffff\n  and\n    /* \"hopium/common/interface/imDirectory.sol\":659:669  _directory */\n  dup2\n    /* \"hopium/common/interface/imDirectory.sol\":659:683  _directory != address(0) */\n  0xffffffffffffffffffffffffffffffffffffffff\n  and\n  sub\n    /* \"hopium/common/interface/imDirectory.sol\":651:720  require(_directory != address(0), \"Directory cannot be zero address\") */\n  tag_12\n  jumpi\n  mload(0x40)\n  0x08c379a000000000000000000000000000000000000000000000000000000000\n  dup2\n  mstore\n  0x04\n  add\n  tag_13\n  swap1\n  tag_14\n  jump\t// in\ntag_13:\n  mload(0x40)\n  dup1\n  swap2\n  sub\n  swap1\n  revert\ntag_12:\n    /* \"hopium/common/interface/imDirectory.sol\":763:764  0 */\n  0x00\n    /* \"hopium/common/interface/imDirectory.sol\":738:748  _directory */\n  dup2\n    /* \"hopium/common/interface/imDirectory.sol\":738:760  _directory.code.length */\n  0xffffffffffffffffffffffffffffffffffffffff\n  and\n  extcodesize\n    /* \"hopium/common/interface/imDirectory.sol\":738:764  _directory.code.length > 0 */\n  gt\n    /* \"hopium/common/interface/imDirectory.sol\":730:797  require(_directory.code.length > 0, \"Directory must be a contract\") */\n  tag_15\n  jumpi\n  mload(0x40)\n  0x08c379a000000000000000000000000000000000000000000000000000000000\n  dup2\n  mstore\n  0x04\n  add\n  tag_16\n  swap1\n  tag_17\n  jump\t// in\ntag_16:\n  mload(0x40)\n  dup1\n  swap2\n  sub\n  swap1\n  revert\ntag_15:\n    /* \"hopium/common/interface/imDirectory.sol\":861:871  _directory */\n  dup1\n    /* \"hopium/common/interface/imDirectory.sol\":850:878  IDirectory(_directory).owner */\n  0xffffffffffffffffffffffffffffffffffffffff\n  and\n  0x8da5cb5b\n    /* \"hopium/common/interface/imDirectory.sol\":850:880  IDirectory(_directory).owner() */\n  mload(0x40)\n  dup2\n  0xffffffff\n  and\n  0xe0\n  shl\n  dup2\n  mstore\n  0x04\n  add\n  0x20\n  mload(0x40)\n  dup1\n  dup4\n  sub\n  dup2\n  dup7\n  gas\n  staticcall\n  swap3\n  pop\n  pop\n  pop\n  dup1\n  iszero\n  tag_18\n  jumpi\n  pop\n  mload(0x40)\n  returndatasize\n  not(0x1f)\n  0x1f\n  dup3\n  add\n  and\n  dup3\n  add\n  dup1\n  0x40\n  mstore\n  pop\n  dup2\n  add\n  swap1\n  tag_19\n  swap2\n  swap1\n  tag_3\n  jump\t// in\ntag_19:\n  0x01\ntag_18:\n    /* \"hopium/common/interface/imDirectory.sol\":846:1044  try IDirectory(_directory).owner() returns (address) {... */\n  tag_20\n  jumpi\n    /* \"hopium/common/interface/imDirectory.sol\":979:1033  revert(\"Directory address does not implement owner()\") */\n  mload(0x40)\n  0x08c379a000000000000000000000000000000000000000000000000000000000\n  dup2\n  mstore\n  0x04\n  add\n  tag_24\n  swap1\n  tag_25\n  jump\t// in\ntag_24:\n  mload(0x40)\n  dup1\n  swap2\n  sub\n  swap1\n  revert\n    /* \"hopium/common/interface/imDirectory.sol\":846:1044  try IDirectory(_directory).owner() returns (address) {... */\ntag_20:\n    /* \"hopium/common/interface/imDirectory.sol\":936:946  _directory */\n  dup2\n    /* \"hopium/common/interface/imDirectory.sol\":913:922  Directory */\n  0x00\n  0x00\n    /* \"hopium/common/interface/imDirectory.sol\":913:947  Directory = IDirectory(_directory) */\n  0x0100\n  exp\n  dup2\n  sload\n  dup2\n  0xffffffffffffffffffffffffffffffffffffffff\n  mul\n  not\n  and\n  swap1\n  dup4\n  0xffffffffffffffffffffffffffffffffffffffff\n  and\n  mul\n  or\n  swap1\n  sstore\n  pop\n    /* \"hopium/common/interface/imDirectory.sol\":881:958  returns (address) {... */\n  pop\n    /* \"hopium/common/interface/imDirectory.sol\":589:1050  function _setDirectory(address _directory) internal {... */\n  pop\n  jump\t// out\n    /* \"#utility.yul\":88:205   */\ntag_28:\n    /* \"#utility.yul\":197:198   */\n  0x00\n    /* \"#utility.yul\":194:195   */\n  0x00\n    /* \"#utility.yul\":187:199   */\n  revert\n    /* \"#utility.yul\":334:460   */\ntag_30:\n    /* \"#utility.yul\":371:378   */\n  0x00\n    /* \"#utility.yul\":411:453   */\n  0xffffffffffffffffffffffffffffffffffffffff\n    /* \"#utility.yul\":404:409   */\n  dup3\n    /* \"#utility.yul\":400:454   */\n  and\n    /* \"#utility.yul\":389:454   */\n  swap1\n  pop\n    /* \"#utility.yul\":334:460   */\n  swap2\n  swap1\n  pop\n  jump\t// out\n    /* \"#utility.yul\":466:562   */\ntag_31:\n    /* \"#utility.yul\":503:510   */\n  0x00\n    /* \"#utility.yul\":532:556   */\n  tag_47\n    /* \"#utility.yul\":550:555   */\n  dup3\n    /* \"#utility.yul\":532:556   */\n  tag_30\n  jump\t// in\ntag_47:\n    /* \"#utility.yul\":521:556   */\n  swap1\n  pop\n    /* \"#utility.yul\":466:562   */\n  swap2\n  swap1\n  pop\n  jump\t// out\n    /* \"#utility.yul\":568:690   */\ntag_32:\n    /* \"#utility.yul\":641:665   */\n  tag_49\n    /* \"#utility.yul\":659:664   */\n  dup2\n    /* \"#utility.yul\":641:665   */\n  tag_31\n  jump\t// in\ntag_49:\n    /* \"#utility.yul\":634:639   */\n  dup2\n    /* \"#utility.yul\":631:666   */\n  eq\n    /* \"#utility.yul\":621:684   */\n  tag_50\n  jumpi\n    /* \"#utility.yul\":680:681   */\n  0x00\n    /* \"#utility.yul\":677:678   */\n  0x00\n    /* \"#utility.yul\":670:682   */\n  revert\n    /* \"#utility.yul\":621:684   */\ntag_50:\n    /* \"#utility.yul\":568:690   */\n  pop\n  jump\t// out\n    /* \"#utility.yul\":696:839   */\ntag_33:\n    /* \"#utility.yul\":753:758   */\n  0x00\n    /* \"#utility.yul\":784:790   */\n  dup2\n    /* \"#utility.yul\":778:791   */\n  mload\n    /* \"#utility.yul\":769:791   */\n  swap1\n  pop\n    /* \"#utility.yul\":800:833   */\n  tag_52\n    /* \"#utility.yul\":827:832   */\n  dup2\n    /* \"#utility.yul\":800:833   */\n  tag_32\n  jump\t// in\ntag_52:\n    /* \"#utility.yul\":696:839   */\n  swap3\n  swap2\n  pop\n  pop\n  jump\t// out\n    /* \"#utility.yul\":845:1196   */\ntag_3:\n    /* \"#utility.yul\":915:921   */\n  0x00\n    /* \"#utility.yul\":964:966   */\n  0x20\n    /* \"#utility.yul\":952:961   */\n  dup3\n    /* \"#utility.yul\":943:950   */\n  dup5\n    /* \"#utility.yul\":939:962   */\n  sub\n    /* \"#utility.yul\":935:967   */\n  slt\n    /* \"#utility.yul\":932:1051   */\n  iszero\n  tag_54\n  jumpi\n    /* \"#utility.yul\":970:1049   */\n  tag_55\n  tag_28\n  jump\t// in\ntag_55:\n    /* \"#utility.yul\":932:1051   */\ntag_54:\n    /* \"#utility.yul\":1090:1091   */\n  0x00\n    /* \"#utility.yul\":1115:1179   */\n  tag_56\n    /* \"#utility.yul\":1171:1178   */\n  dup5\n    /* \"#utility.yul\":1162:1168   */\n  dup3\n    /* \"#utility.yul\":1151:1160   */\n  dup6\n    /* \"#utility.yul\":1147:1169   */\n  add\n    /* \"#utility.yul\":1115:1179   */\n  tag_33\n  jump\t// in\ntag_56:\n    /* \"#utility.yul\":1105:1179   */\n  swap2\n  pop\n    /* \"#utility.yul\":1061:1189   */\n  pop\n    /* \"#utility.yul\":845:1196   */\n  swap3\n  swap2\n  pop\n  pop\n  jump\t// out\n    /* \"#utility.yul\":1202:1371   */\ntag_34:\n    /* \"#utility.yul\":1286:1297   */\n  0x00\n    /* \"#utility.yul\":1320:1326   */\n  dup3\n    /* \"#utility.yul\":1315:1318   */\n  dup3\n    /* \"#utility.yul\":1308:1327   */\n  mstore\n    /* \"#utility.yul\":1360:1364   */\n  0x20\n    /* \"#utility.yul\":1355:1358   */\n  dup3\n    /* \"#utility.yul\":1351:1365   */\n  add\n    /* \"#utility.yul\":1336:1365   */\n  swap1\n  pop\n    /* \"#utility.yul\":1202:1371   */\n  swap3\n  swap2\n  pop\n  pop\n  jump\t// out\n    /* \"#utility.yul\":1377:1559   */\ntag_35:\n    /* \"#utility.yul\":1517:1551   */\n  0x4469726563746f72792063616e6e6f74206265207a65726f2061646472657373\n    /* \"#utility.yul\":1513:1514   */\n  0x00\n    /* \"#utility.yul\":1505:1511   */\n  dup3\n    /* \"#utility.yul\":1501:1515   */\n  add\n    /* \"#utility.yul\":1494:1552   */\n  mstore\n    /* \"#utility.yul\":1377:1559   */\n  pop\n  jump\t// out\n    /* \"#utility.yul\":1565:1931   */\ntag_36:\n    /* \"#utility.yul\":1707:1710   */\n  0x00\n    /* \"#utility.yul\":1728:1795   */\n  tag_60\n    /* \"#utility.yul\":1792:1794   */\n  0x20\n    /* \"#utility.yul\":1787:1790   */\n  dup4\n    /* \"#utility.yul\":1728:1795   */\n  tag_34\n  jump\t// in\ntag_60:\n    /* \"#utility.yul\":1721:1795   */\n  swap2\n  pop\n    /* \"#utility.yul\":1804:1897   */\n  tag_61\n    /* \"#utility.yul\":1893:1896   */\n  dup3\n    /* \"#utility.yul\":1804:1897   */\n  tag_35\n  jump\t// in\ntag_61:\n    /* \"#utility.yul\":1922:1924   */\n  0x20\n    /* \"#utility.yul\":1917:1920   */\n  dup3\n    /* \"#utility.yul\":1913:1925   */\n  add\n    /* \"#utility.yul\":1906:1925   */\n  swap1\n  pop\n    /* \"#utility.yul\":1565:1931   */\n  swap2\n  swap1\n  pop\n  jump\t// out\n    /* \"#utility.yul\":1937:2356   */\ntag_14:\n    /* \"#utility.yul\":2103:2107   */\n  0x00\n    /* \"#utility.yul\":2141:2143   */\n  0x20\n    /* \"#utility.yul\":2130:2139   */\n  dup3\n    /* \"#utility.yul\":2126:2144   */\n  add\n    /* \"#utility.yul\":2118:2144   */\n  swap1\n  pop\n    /* \"#utility.yul\":2190:2199   */\n  dup2\n    /* \"#utility.yul\":2184:2188   */\n  dup2\n    /* \"#utility.yul\":2180:2200   */\n  sub\n    /* \"#utility.yul\":2176:2177   */\n  0x00\n    /* \"#utility.yul\":2165:2174   */\n  dup4\n    /* \"#utility.yul\":2161:2178   */\n  add\n    /* \"#utility.yul\":2154:2201   */\n  mstore\n    /* \"#utility.yul\":2218:2349   */\n  tag_63\n    /* \"#utility.yul\":2344:2348   */\n  dup2\n    /* \"#utility.yul\":2218:2349   */\n  tag_36\n  jump\t// in\ntag_63:\n    /* \"#utility.yul\":2210:2349   */\n  swap1\n  pop\n    /* \"#utility.yul\":1937:2356   */\n  swap2\n  swap1\n  pop\n  jump\t// out\n    /* \"#utility.yul\":2362:2540   */\ntag_37:\n    /* \"#utility.yul\":2502:2532   */\n  0x4469726563746f7279206d757374206265206120636f6e747261637400000000\n    /* \"#utility.yul\":2498:2499   */\n  0x00\n    /* \"#utility.yul\":2490:2496   */\n  dup3\n    /* \"#utility.yul\":2486:2500   */\n  add\n    /* \"#utility.yul\":2479:2533   */\n  mstore\n    /* \"#utility.yul\":2362:2540   */\n  pop\n  jump\t// out\n    /* \"#utility.yul\":2546:2912   */\ntag_38:\n    /* \"#utility.yul\":2688:2691   */\n  0x00\n    /* \"#utility.yul\":2709:2776   */\n  tag_66\n    /* \"#utility.yul\":2773:2775   */\n  0x1c\n    /* \"#utility.yul\":2768:2771   */\n  dup4\n    /* \"#utility.yul\":2709:2776   */\n  tag_34\n  jump\t// in\ntag_66:\n    /* \"#utility.yul\":2702:2776   */\n  swap2\n  pop\n    /* \"#utility.yul\":2785:2878   */\n  tag_67\n    /* \"#utility.yul\":2874:2877   */\n  dup3\n    /* \"#utility.yul\":2785:2878   */\n  tag_37\n  jump\t// in\ntag_67:\n    /* \"#utility.yul\":2903:2905   */\n  0x20\n    /* \"#utility.yul\":2898:2901   */\n  dup3\n    /* \"#utility.yul\":2894:2906   */\n  add\n    /* \"#utility.yul\":2887:2906   */\n  swap1\n  pop\n    /* \"#utility.yul\":2546:2912   */\n  swap2\n  swap1\n  pop\n  jump\t// out\n    /* \"#utility.yul\":2918:3337   */\ntag_17:\n    /* \"#utility.yul\":3084:3088   */\n  0x00\n    /* \"#utility.yul\":3122:3124   */\n  0x20\n    /* \"#utility.yul\":3111:3120   */\n  dup3\n    /* \"#utility.yul\":3107:3125   */\n  add\n    /* \"#utility.yul\":3099:3125   */\n  swap1\n  pop\n    /* \"#utility.yul\":3171:3180   */\n  dup2\n    /* \"#utility.yul\":3165:3169   */\n  dup2\n    /* \"#utility.yul\":3161:3181   */\n  sub\n    /* \"#utility.yul\":3157:3158   */\n  0x00\n    /* \"#utility.yul\":3146:3155   */\n  dup4\n    /* \"#utility.yul\":3142:3159   */\n  add\n    /* \"#utility.yul\":3135:3182   */\n  mstore\n    /* \"#utility.yul\":3199:3330   */\n  tag_69\n    /* \"#utility.yul\":3325:3329   */\n  dup2\n    /* \"#utility.yul\":3199:3330   */\n  tag_38\n  jump\t// in\ntag_69:\n    /* \"#utility.yul\":3191:3330   */\n  swap1\n  pop\n    /* \"#utility.yul\":2918:3337   */\n  swap2\n  swap1\n  pop\n  jump\t// out\n    /* \"#utility.yul\":3343:3574   */\ntag_39:\n    /* \"#utility.yul\":3483:3517   */\n  0x4469726563746f7279206164647265737320646f6573206e6f7420696d706c65\n    /* \"#utility.yul\":3479:3480   */\n  0x00\n    /* \"#utility.yul\":3471:3477   */\n  dup3\n    /* \"#utility.yul\":3467:3481   */\n  add\n    /* \"#utility.yul\":3460:3518   */\n  mstore\n    /* \"#utility.yul\":3552:3566   */\n  0x6d656e74206f776e657228290000000000000000000000000000000000000000\n    /* \"#utility.yul\":3547:3549   */\n  0x20\n    /* \"#utility.yul\":3539:3545   */\n  dup3\n    /* \"#utility.yul\":3535:3550   */\n  add\n    /* \"#utility.yul\":3528:3567   */\n  mstore\n    /* \"#utility.yul\":3343:3574   */\n  pop\n  jump\t// out\n    /* \"#utility.yul\":3580:3946   */\ntag_40:\n    /* \"#utility.yul\":3722:3725   */\n  0x00\n    /* \"#utility.yul\":3743:3810   */\n  tag_72\n    /* \"#utility.yul\":3807:3809   */\n  0x2c\n    /* \"#utility.yul\":3802:3805   */\n  dup4\n    /* \"#utility.yul\":3743:3810   */\n  tag_34\n  jump\t// in\ntag_72:\n    /* \"#utility.yul\":3736:3810   */\n  swap2\n  pop\n    /* \"#utility.yul\":3819:3912   */\n  tag_73\n    /* \"#utility.yul\":3908:3911   */\n  dup3\n    /* \"#utility.yul\":3819:3912   */\n  tag_39\n  jump\t// in\ntag_73:\n    /* \"#utility.yul\":3937:3939   */\n  0x40\n    /* \"#utility.yul\":3932:3935   */\n  dup3\n    /* \"#utility.yul\":3928:3940   */\n  add\n    /* \"#utility.yul\":3921:3940   */\n  swap1\n  pop\n    /* \"#utility.yul\":3580:3946   */\n  swap2\n  swap1\n  pop\n  jump\t// out\n    /* \"#utility.yul\":3952:4371   */\ntag_25:\n    /* \"#utility.yul\":4118:4122   */\n  0x00\n    /* \"#utility.yul\":4156:4158   */\n  0x20\n    /* \"#utility.yul\":4145:4154   */\n  dup3\n    /* \"#utility.yul\":4141:4159   */\n  add\n    /* \"#utility.yul\":4133:4159   */\n  swap1\n  pop\n    /* \"#utility.yul\":4205:4214   */\n  dup2\n    /* \"#utility.yul\":4199:4203   */\n  dup2\n    /* \"#utility.yul\":4195:4215   */\n  sub\n    /* \"#utility.yul\":4191:4192   */\n  0x00\n    /* \"#utility.yul\":4180:4189   */\n  dup4\n    /* \"#utility.yul\":4176:4193   */\n  add\n    /* \"#utility.yul\":4169:4216   */\n  mstore\n    /* \"#utility.yul\":4233:4364   */\n  tag_75\n    /* \"#utility.yul\":4359:4363   */\n  dup2\n    /* \"#utility.yul\":4233:4364   */\n  tag_40\n  jump\t// in\ntag_75:\n    /* \"#utility.yul\":4225:4364   */\n  swap1\n  pop\n    /* \"#utility.yul\":3952:4371   */\n  swap2\n  swap1\n  pop\n  jump\t// out\n    /* \"hopium/etf/main/etf-vault-deployer.sol\":2612:3197  contract EtfVaultDeployer is ImDirectory, ImEtfFactory {... */\ntag_10:\n  dataSize(sub_0)\n  dup1\n  dataOffset(sub_0)\n  0x00\n  codecopy\n  0x00\n  return\nstop\n\nsub_0: assembly {\n        /* \"hopium/etf/main/etf-vault-deployer.sol\":2612:3197  contract EtfVaultDeployer is ImDirectory, ImEtfFactory {... */\n      mstore(0x40, 0x80)\n      callvalue\n      dup1\n      iszero\n      tag_1\n      jumpi\n      revert(0x00, 0x00)\n    tag_1:\n      pop\n      jumpi(tag_2, lt(calldatasize, 0x04))\n      shr(0xe0, calldataload(0x00))\n      dup1\n      0x27262618\n      eq\n      tag_3\n      jumpi\n      dup1\n      0x658a847a\n      eq\n      tag_4\n      jumpi\n      dup1\n      0x8da5cb5b\n      eq\n      tag_5\n      jumpi\n      dup1\n      0xb57c59a7\n      eq\n      tag_6\n      jumpi\n      dup1\n      0xba4c7be1\n      eq\n      tag_7\n      jumpi\n    tag_2:\n      revert(0x00, 0x00)\n        /* \"hopium/common/interface/imDirectory.sol\":1272:1408  function fetchFromDirectory(string memory _key) public view returns (address) {... */\n    tag_3:\n      tag_8\n      0x04\n      dup1\n      calldatasize\n      sub\n      dup2\n      add\n      swap1\n      tag_9\n      swap2\n      swap1\n      tag_10\n      jump\t// in\n    tag_9:\n      tag_11\n      jump\t// in\n    tag_8:\n      mload(0x40)\n      tag_12\n      swap2\n      swap1\n      tag_13\n      jump\t// in\n    tag_12:\n      mload(0x40)\n      dup1\n      swap2\n      sub\n      swap1\n      return\n        /* \"hopium/common/interface/imDirectory.sol\":336:363  IDirectory public Directory */\n    tag_4:\n      tag_14\n      tag_15\n      jump\t// in\n    tag_14:\n      mload(0x40)\n      tag_16\n      swap2\n      swap1\n      tag_17\n      jump\t// in\n    tag_16:\n      mload(0x40)\n      dup1\n      swap2\n      sub\n      swap1\n      return\n        /* \"hopium/common/interface/imDirectory.sol\":1178:1266  function owner() public view returns (address) {... */\n    tag_5:\n      tag_18\n      tag_19\n      jump\t// in\n    tag_18:\n      mload(0x40)\n      tag_20\n      swap2\n      swap1\n      tag_13\n      jump\t// in\n    tag_20:\n      mload(0x40)\n      dup1\n      swap2\n      sub\n      swap1\n      return\n        /* \"hopium/etf/main/etf-vault-deployer.sol\":2908:3195  function deployEtfVault(uint256 indexId) external onlyEtfFactory returns (address) {... */\n    tag_6:\n      tag_21\n      0x04\n      dup1\n      calldatasize\n      sub\n      dup2\n      add\n      swap1\n      tag_22\n      swap2\n      swap1\n      tag_23\n      jump\t// in\n    tag_22:\n      tag_24\n      jump\t// in\n    tag_21:\n      mload(0x40)\n      tag_25\n      swap2\n      swap1\n      tag_13\n      jump\t// in\n    tag_25:\n      mload(0x40)\n      dup1\n      swap2\n      sub\n      swap1\n      return\n        /* \"hopium/common/interface/imDirectory.sol\":470:583  function changeDirectoryAddress(address _directory) external onlyOwner {... */\n    tag_7:\n      tag_26\n      0x04\n      dup1\n      calldatasize\n      sub\n      dup2\n      add\n      swap1\n      tag_27\n      swap2\n      swap1\n      tag_28\n      jump\t// in\n    tag_27:\n      tag_29\n      jump\t// in\n    tag_26:\n      stop\n        /* \"hopium/common/interface/imDirectory.sol\":1272:1408  function fetchFromDirectory(string memory _key) public view returns (address) {... */\n    tag_11:\n        /* \"hopium/common/interface/imDirectory.sol\":1341:1348  address */\n      0x00\n        /* \"hopium/common/interface/imDirectory.sol\":1367:1376  Directory */\n      0x00\n      0x00\n      swap1\n      sload\n      swap1\n      0x0100\n      exp\n      swap1\n      div\n      0xffffffffffffffffffffffffffffffffffffffff\n      and\n        /* \"hopium/common/interface/imDirectory.sol\":1367:1395  Directory.fetchFromDirectory */\n      0xffffffffffffffffffffffffffffffffffffffff\n      and\n      0x27262618\n        /* \"hopium/common/interface/imDirectory.sol\":1396:1400  _key */\n      dup4\n        /* \"hopium/common/interface/imDirectory.sol\":1367:1401  Directory.fetchFromDirectory(_key) */\n      mload(0x40)\n      dup3\n      0xffffffff\n      and\n      0xe0\n      shl\n      dup2\n      mstore\n      0x04\n      add\n      tag_31\n      swap2\n      swap1\n      tag_32\n      jump\t// in\n    tag_31:\n      0x20\n      mload(0x40)\n      dup1\n      dup4\n      sub\n      dup2\n      dup7\n      gas\n      staticcall\n      iszero\n      dup1\n      iszero\n      tag_34\n      jumpi\n      returndatacopy(0x00, 0x00, returndatasize)\n      revert(0x00, returndatasize)\n    tag_34:\n      pop\n      pop\n      pop\n      pop\n      mload(0x40)\n      returndatasize\n      not(0x1f)\n      0x1f\n      dup3\n      add\n      and\n      dup3\n      add\n      dup1\n      0x40\n      mstore\n      pop\n      dup2\n      add\n      swap1\n      tag_35\n      swap2\n      swap1\n      tag_36\n      jump\t// in\n    tag_35:\n        /* \"hopium/common/interface/imDirectory.sol\":1360:1401  return Directory.fetchFromDirectory(_key) */\n      swap1\n      pop\n        /* \"hopium/common/interface/imDirectory.sol\":1272:1408  function fetchFromDirectory(string memory _key) public view returns (address) {... */\n      swap2\n      swap1\n      pop\n      jump\t// out\n        /* \"hopium/common/interface/imDirectory.sol\":336:363  IDirectory public Directory */\n    tag_15:\n      0x00\n      0x00\n      swap1\n      sload\n      swap1\n      0x0100\n      exp\n      swap1\n      div\n      0xffffffffffffffffffffffffffffffffffffffff\n      and\n      dup2\n      jump\t// out\n        /* \"hopium/common/interface/imDirectory.sol\":1178:1266  function owner() public view returns (address) {... */\n    tag_19:\n        /* \"hopium/common/interface/imDirectory.sol\":1216:1223  address */\n      0x00\n        /* \"hopium/common/interface/imDirectory.sol\":1242:1251  Directory */\n      0x00\n      0x00\n      swap1\n      sload\n      swap1\n      0x0100\n      exp\n      swap1\n      div\n      0xffffffffffffffffffffffffffffffffffffffff\n      and\n        /* \"hopium/common/interface/imDirectory.sol\":1242:1257  Directory.owner */\n      0xffffffffffffffffffffffffffffffffffffffff\n      and\n      0x8da5cb5b\n        /* \"hopium/common/interface/imDirectory.sol\":1242:1259  Directory.owner() */\n      mload(0x40)\n      dup2\n      0xffffffff\n      and\n      0xe0\n      shl\n      dup2\n      mstore\n      0x04\n      add\n      0x20\n      mload(0x40)\n      dup1\n      dup4\n      sub\n      dup2\n      dup7\n      gas\n      staticcall\n      iszero\n      dup1\n      iszero\n      tag_39\n      jumpi\n      returndatacopy(0x00, 0x00, returndatasize)\n      revert(0x00, returndatasize)\n    tag_39:\n      pop\n      pop\n      pop\n      pop\n      mload(0x40)\n      returndatasize\n      not(0x1f)\n      0x1f\n      dup3\n      add\n      and\n      dup3\n      add\n      dup1\n      0x40\n      mstore\n      pop\n      dup2\n      add\n      swap1\n      tag_40\n      swap2\n      swap1\n      tag_36\n      jump\t// in\n    tag_40:\n        /* \"hopium/common/interface/imDirectory.sol\":1235:1259  return Directory.owner() */\n      swap1\n      pop\n        /* \"hopium/common/interface/imDirectory.sol\":1178:1266  function owner() public view returns (address) {... */\n      swap1\n      jump\t// out\n        /* \"hopium/etf/main/etf-vault-deployer.sol\":2908:3195  function deployEtfVault(uint256 indexId) external onlyEtfFactory returns (address) {... */\n    tag_24:\n        /* \"hopium/etf/main/etf-vault-deployer.sol\":2982:2989  address */\n      0x00\n        /* \"hopium/etf/interface/imEtfFactory.sol\":636:669  fetchFromDirectory(\"etf-factory\") */\n      tag_42\n      mload(0x40)\n      dup1\n      0x40\n      add\n      0x40\n      mstore\n      dup1\n      0x0b\n      dup2\n      mstore\n      0x20\n      add\n      0x6574662d666163746f7279000000000000000000000000000000000000000000\n      dup2\n      mstore\n      pop\n        /* \"hopium/etf/interface/imEtfFactory.sol\":636:654  fetchFromDirectory */\n      tag_11\n        /* \"hopium/etf/interface/imEtfFactory.sol\":636:669  fetchFromDirectory(\"etf-factory\") */\n      jump\t// in\n    tag_42:\n        /* \"hopium/etf/interface/imEtfFactory.sol\":622:669  msg.sender == fetchFromDirectory(\"etf-factory\") */\n      0xffffffffffffffffffffffffffffffffffffffff\n      and\n        /* \"hopium/etf/interface/imEtfFactory.sol\":622:632  msg.sender */\n      caller\n        /* \"hopium/etf/interface/imEtfFactory.sol\":622:669  msg.sender == fetchFromDirectory(\"etf-factory\") */\n      0xffffffffffffffffffffffffffffffffffffffff\n      and\n      eq\n        /* \"hopium/etf/interface/imEtfFactory.sol\":614:703  require(msg.sender == fetchFromDirectory(\"etf-factory\"), \"msg.sender is not etf factory\") */\n      tag_43\n      jumpi\n      mload(0x40)\n      0x08c379a000000000000000000000000000000000000000000000000000000000\n      dup2\n      mstore\n      0x04\n      add\n      tag_44\n      swap1\n      tag_45\n      jump\t// in\n    tag_44:\n      mload(0x40)\n      dup1\n      swap2\n      sub\n      swap1\n      revert\n    tag_43:\n        /* \"hopium/etf/main/etf-vault-deployer.sol\":3001:3018  EtfVault newVault */\n      0x00\n        /* \"hopium/etf/main/etf-vault-deployer.sol\":3042:3051  Directory */\n      0x00\n      0x00\n      swap1\n      sload\n      swap1\n      0x0100\n      exp\n      swap1\n      div\n      0xffffffffffffffffffffffffffffffffffffffff\n      and\n        /* \"hopium/etf/main/etf-vault-deployer.sol\":3021:3053  new EtfVault(address(Directory)) */\n      mload(0x40)\n      tag_47\n      swap1\n      tag_48\n      jump\t// in\n    tag_47:\n      tag_49\n      swap2\n      swap1\n      tag_13\n      jump\t// in\n    tag_49:\n      mload(0x40)\n      dup1\n      swap2\n      sub\n      swap1\n      0x00\n      create\n      dup1\n      iszero\n      dup1\n      iszero\n      tag_50\n      jumpi\n      returndatacopy(0x00, 0x00, returndatasize)\n      revert(0x00, returndatasize)\n    tag_50:\n      pop\n        /* \"hopium/etf/main/etf-vault-deployer.sol\":3001:3053  EtfVault newVault = new EtfVault(address(Directory)) */\n      swap1\n      pop\n        /* \"hopium/etf/main/etf-vault-deployer.sol\":3063:3083  address vaultAddress */\n      0x00\n        /* \"hopium/etf/main/etf-vault-deployer.sol\":3094:3102  newVault */\n      dup2\n        /* \"hopium/etf/main/etf-vault-deployer.sol\":3063:3103  address vaultAddress = address(newVault) */\n      swap1\n      pop\n        /* \"hopium/etf/main/etf-vault-deployer.sol\":3136:3143  indexId */\n      dup4\n        /* \"hopium/etf/main/etf-vault-deployer.sol\":3119:3158  EtfVaultDeployed(indexId, vaultAddress) */\n      0xb40972ab04998c21214527661a10d8f39921f4ab74c6e9874df14c1613cd17e6\n        /* \"hopium/etf/main/etf-vault-deployer.sol\":3145:3157  vaultAddress */\n      dup3\n        /* \"hopium/etf/main/etf-vault-deployer.sol\":3119:3158  EtfVaultDeployed(indexId, vaultAddress) */\n      mload(0x40)\n      tag_51\n      swap2\n      swap1\n      tag_13\n      jump\t// in\n    tag_51:\n      mload(0x40)\n      dup1\n      swap2\n      sub\n      swap1\n      log2\n        /* \"hopium/etf/main/etf-vault-deployer.sol\":3176:3188  vaultAddress */\n      dup1\n        /* \"hopium/etf/main/etf-vault-deployer.sol\":3169:3188  return vaultAddress */\n      swap3\n      pop\n      pop\n      pop\n        /* \"hopium/etf/main/etf-vault-deployer.sol\":2908:3195  function deployEtfVault(uint256 indexId) external onlyEtfFactory returns (address) {... */\n      swap2\n      swap1\n      pop\n      jump\t// out\n        /* \"hopium/common/interface/imDirectory.sol\":470:583  function changeDirectoryAddress(address _directory) external onlyOwner {... */\n    tag_29:\n        /* \"hopium/common/interface/imDirectory.sol\":1109:1118  Directory */\n      0x00\n      0x00\n      swap1\n      sload\n      swap1\n      0x0100\n      exp\n      swap1\n      div\n      0xffffffffffffffffffffffffffffffffffffffff\n      and\n        /* \"hopium/common/interface/imDirectory.sol\":1109:1124  Directory.owner */\n      0xffffffffffffffffffffffffffffffffffffffff\n      and\n      0x8da5cb5b\n        /* \"hopium/common/interface/imDirectory.sol\":1109:1126  Directory.owner() */\n      mload(0x40)\n      dup2\n      0xffffffff\n      and\n      0xe0\n      shl\n      dup2\n      mstore\n      0x04\n      add\n      0x20\n      mload(0x40)\n      dup1\n      dup4\n      sub\n      dup2\n      dup7\n      gas\n      staticcall\n      iszero\n      dup1\n      iszero\n      tag_54\n      jumpi\n      returndatacopy(0x00, 0x00, returndatasize)\n      revert(0x00, returndatasize)\n    tag_54:\n      pop\n      pop\n      pop\n      pop\n      mload(0x40)\n      returndatasize\n      not(0x1f)\n      0x1f\n      dup3\n      add\n      and\n      dup3\n      add\n      dup1\n      0x40\n      mstore\n      pop\n      dup2\n      add\n      swap1\n      tag_55\n      swap2\n      swap1\n      tag_36\n      jump\t// in\n    tag_55:\n        /* \"hopium/common/interface/imDirectory.sol\":1095:1126  msg.sender == Directory.owner() */\n      0xffffffffffffffffffffffffffffffffffffffff\n      and\n        /* \"hopium/common/interface/imDirectory.sol\":1095:1105  msg.sender */\n      caller\n        /* \"hopium/common/interface/imDirectory.sol\":1095:1126  msg.sender == Directory.owner() */\n      0xffffffffffffffffffffffffffffffffffffffff\n      and\n      eq\n        /* \"hopium/common/interface/imDirectory.sol\":1087:1154  require(msg.sender == Directory.owner(), \"Caller is not the owner\") */\n      tag_56\n      jumpi\n      mload(0x40)\n      0x08c379a000000000000000000000000000000000000000000000000000000000\n      dup2\n      mstore\n      0x04\n      add\n      tag_57\n      swap1\n      tag_58\n      jump\t// in\n    tag_57:\n      mload(0x40)\n      dup1\n      swap2\n      sub\n      swap1\n      revert\n    tag_56:\n        /* \"hopium/common/interface/imDirectory.sol\":551:576  _setDirectory(_directory) */\n      tag_60\n        /* \"hopium/common/interface/imDirectory.sol\":565:575  _directory */\n      dup2\n        /* \"hopium/common/interface/imDirectory.sol\":551:564  _setDirectory */\n      tag_61\n        /* \"hopium/common/interface/imDirectory.sol\":551:576  _setDirectory(_directory) */\n      jump\t// in\n    tag_60:\n        /* \"hopium/common/interface/imDirectory.sol\":470:583  function changeDirectoryAddress(address _directory) external onlyOwner {... */\n      pop\n      jump\t// out\n        /* \"hopium/common/interface/imDirectory.sol\":589:1050  function _setDirectory(address _directory) internal {... */\n    tag_61:\n        /* \"hopium/common/interface/imDirectory.sol\":681:682  0 */\n      0x00\n        /* \"hopium/common/interface/imDirectory.sol\":659:683  _directory != address(0) */\n      0xffffffffffffffffffffffffffffffffffffffff\n      and\n        /* \"hopium/common/interface/imDirectory.sol\":659:669  _directory */\n      dup2\n        /* \"hopium/common/interface/imDirectory.sol\":659:683  _directory != address(0) */\n      0xffffffffffffffffffffffffffffffffffffffff\n      and\n      sub\n        /* \"hopium/common/interface/imDirectory.sol\":651:720  require(_directory != address(0), \"Directory cannot be zero address\") */\n      tag_63\n      jumpi\n      mload(0x40)\n      0x08c379a000000000000000000000000000000000000000000000000000000000\n      dup2\n      mstore\n      0x04\n      add\n      tag_64\n      swap1\n      tag_65\n      jump\t// in\n    tag_64:\n      mload(0x40)\n      dup1\n      swap2\n      sub\n      swap1\n      revert\n    tag_63:\n        /* \"hopium/common/interface/imDirectory.sol\":763:764  0 */\n      0x00\n        /* \"hopium/common/interface/imDirectory.sol\":738:748  _directory */\n      dup2\n        /* \"hopium/common/interface/imDirectory.sol\":738:760  _directory.code.length */\n      0xffffffffffffffffffffffffffffffffffffffff\n      and\n      extcodesize\n        /* \"hopium/common/interface/imDirectory.sol\":738:764  _directory.code.length > 0 */\n      gt\n        /* \"hopium/common/interface/imDirectory.sol\":730:797  require(_directory.code.length > 0, \"Directory must be a contract\") */\n      tag_66\n      jumpi\n      mload(0x40)\n      0x08c379a000000000000000000000000000000000000000000000000000000000\n      dup2\n      mstore\n      0x04\n      add\n      tag_67\n      swap1\n      tag_68\n      jump\t// in\n    tag_67:\n      mload(0x40)\n      dup1\n      swap2\n      sub\n      swap1\n      revert\n    tag_66:\n        /* \"hopium/common/interface/imDirectory.sol\":861:871  _directory */\n      dup1\n        /* \"hopium/common/interface/imDirectory.sol\":850:878  IDirectory(_directory).owner */\n      0xffffffffffffffffffffffffffffffffffffffff\n      and\n      0x8da5cb5b\n        /* \"hopium/common/interface/imDirectory.sol\":850:880  IDirectory(_directory).owner() */\n      mload(0x40)\n      dup2\n      0xffffffff\n      and\n      0xe0\n      shl\n      dup2\n      mstore\n      0x04\n      add\n      0x20\n      mload(0x40)\n      dup1\n      dup4\n      sub\n      dup2\n      dup7\n      gas\n      staticcall\n      swap3\n      pop\n      pop\n      pop\n      dup1\n      iszero\n      tag_69\n      jumpi\n      pop\n      mload(0x40)\n      returndatasize\n      not(0x1f)\n      0x1f\n      dup3\n      add\n      and\n      dup3\n      add\n      dup1\n      0x40\n      mstore\n      pop\n      dup2\n      add\n      swap1\n      tag_70\n      swap2\n      swap1\n      tag_36\n      jump\t// in\n    tag_70:\n      0x01\n    tag_69:\n        /* \"hopium/common/interface/imDirectory.sol\":846:1044  try IDirectory(_directory).owner() returns (address) {... */\n      tag_71\n      jumpi\n        /* \"hopium/common/interface/imDirectory.sol\":979:1033  revert(\"Directory address does not implement owner()\") */\n      mload(0x40)\n      0x08c379a000000000000000000000000000000000000000000000000000000000\n      dup2\n      mstore\n      0x04\n      add\n      tag_75\n      swap1\n      tag_76\n      jump\t// in\n    tag_75:\n      mload(0x40)\n      dup1\n      swap2\n      sub\n      swap1\n      revert\n        /* \"hopium/common/interface/imDirectory.sol\":846:1044  try IDirectory(_directory).owner() returns (address) {... */\n    tag_71:\n        /* \"hopium/common/interface/imDirectory.sol\":936:946  _directory */\n      dup2\n        /* \"hopium/common/interface/imDirectory.sol\":913:922  Directory */\n      0x00\n      0x00\n        /* \"hopium/common/interface/imDirectory.sol\":913:947  Directory = IDirectory(_directory) */\n      0x0100\n      exp\n      dup2\n      sload\n      dup2\n      0xffffffffffffffffffffffffffffffffffffffff\n      mul\n      not\n      and\n      swap1\n      dup4\n      0xffffffffffffffffffffffffffffffffffffffff\n      and\n      mul\n      or\n      swap1\n      sstore\n      pop\n        /* \"hopium/common/interface/imDirectory.sol\":881:958  returns (address) {... */\n      pop\n        /* \"hopium/common/interface/imDirectory.sol\":589:1050  function _setDirectory(address _directory) internal {... */\n      pop\n      jump\t// out\n    tag_48:\n      dataSize(sub_0)\n      dup1\n      dataOffset(sub_0)\n      dup4\n      codecopy\n      add\n      swap1\n      jump\t// out\n        /* \"#utility.yul\":7:82   */\n    tag_78:\n        /* \"#utility.yul\":40:46   */\n      0x00\n        /* \"#utility.yul\":73:75   */\n      0x40\n        /* \"#utility.yul\":67:76   */\n      mload\n        /* \"#utility.yul\":57:76   */\n      swap1\n      pop\n        /* \"#utility.yul\":7:82   */\n      swap1\n      jump\t// out\n        /* \"#utility.yul\":88:205   */\n    tag_79:\n        /* \"#utility.yul\":197:198   */\n      0x00\n        /* \"#utility.yul\":194:195   */\n      0x00\n        /* \"#utility.yul\":187:199   */\n      revert\n        /* \"#utility.yul\":211:328   */\n    tag_80:\n        /* \"#utility.yul\":320:321   */\n      0x00\n        /* \"#utility.yul\":317:318   */\n      0x00\n        /* \"#utility.yul\":310:322   */\n      revert\n        /* \"#utility.yul\":334:451   */\n    tag_81:\n        /* \"#utility.yul\":443:444   */\n      0x00\n        /* \"#utility.yul\":440:441   */\n      0x00\n        /* \"#utility.yul\":433:445   */\n      revert\n        /* \"#utility.yul\":457:574   */\n    tag_82:\n        /* \"#utility.yul\":566:567   */\n      0x00\n        /* \"#utility.yul\":563:564   */\n      0x00\n        /* \"#utility.yul\":556:568   */\n      revert\n        /* \"#utility.yul\":580:682   */\n    tag_83:\n        /* \"#utility.yul\":621:627   */\n      0x00\n        /* \"#utility.yul\":672:674   */\n      0x1f\n        /* \"#utility.yul\":668:675   */\n      not\n        /* \"#utility.yul\":663:665   */\n      0x1f\n        /* \"#utility.yul\":656:661   */\n      dup4\n        /* \"#utility.yul\":652:666   */\n      add\n        /* \"#utility.yul\":648:676   */\n      and\n        /* \"#utility.yul\":638:676   */\n      swap1\n      pop\n        /* \"#utility.yul\":580:682   */\n      swap2\n      swap1\n      pop\n      jump\t// out\n        /* \"#utility.yul\":688:868   */\n    tag_84:\n        /* \"#utility.yul\":736:813   */\n      0x4e487b7100000000000000000000000000000000000000000000000000000000\n        /* \"#utility.yul\":733:734   */\n      0x00\n        /* \"#utility.yul\":726:814   */\n      mstore\n        /* \"#utility.yul\":833:837   */\n      0x41\n        /* \"#utility.yul\":830:831   */\n      0x04\n        /* \"#utility.yul\":823:838   */\n      mstore\n        /* \"#utility.yul\":857:861   */\n      0x24\n        /* \"#utility.yul\":854:855   */\n      0x00\n        /* \"#utility.yul\":847:862   */\n      revert\n        /* \"#utility.yul\":874:1155   */\n    tag_85:\n        /* \"#utility.yul\":957:984   */\n      tag_128\n        /* \"#utility.yul\":979:983   */\n      dup3\n        /* \"#utility.yul\":957:984   */\n      tag_83\n      jump\t// in\n    tag_128:\n        /* \"#utility.yul\":949:955   */\n      dup2\n        /* \"#utility.yul\":945:985   */\n      add\n        /* \"#utility.yul\":1087:1093   */\n      dup2\n        /* \"#utility.yul\":1075:1085   */\n      dup2\n        /* \"#utility.yul\":1072:1094   */\n      lt\n        /* \"#utility.yul\":1051:1069   */\n      0xffffffffffffffff\n        /* \"#utility.yul\":1039:1049   */\n      dup3\n        /* \"#utility.yul\":1036:1070   */\n      gt\n        /* \"#utility.yul\":1033:1095   */\n      or\n        /* \"#utility.yul\":1030:1118   */\n      iszero\n      tag_129\n      jumpi\n        /* \"#utility.yul\":1098:1116   */\n      tag_130\n      tag_84\n      jump\t// in\n    tag_130:\n        /* \"#utility.yul\":1030:1118   */\n    tag_129:\n        /* \"#utility.yul\":1138:1148   */\n      dup1\n        /* \"#utility.yul\":1134:1136   */\n      0x40\n        /* \"#utility.yul\":1127:1149   */\n      mstore\n        /* \"#utility.yul\":917:1155   */\n      pop\n        /* \"#utility.yul\":874:1155   */\n      pop\n      pop\n      jump\t// out\n        /* \"#utility.yul\":1161:1290   */\n    tag_86:\n        /* \"#utility.yul\":1195:1201   */\n      0x00\n        /* \"#utility.yul\":1222:1242   */\n      tag_132\n      tag_78\n      jump\t// in\n    tag_132:\n        /* \"#utility.yul\":1212:1242   */\n      swap1\n      pop\n        /* \"#utility.yul\":1251:1284   */\n      tag_133\n        /* \"#utility.yul\":1279:1283   */\n      dup3\n        /* \"#utility.yul\":1271:1277   */\n      dup3\n        /* \"#utility.yul\":1251:1284   */\n      tag_85\n      jump\t// in\n    tag_133:\n        /* \"#utility.yul\":1161:1290   */\n      swap2\n      swap1\n      pop\n      jump\t// out\n        /* \"#utility.yul\":1296:1604   */\n    tag_87:\n        /* \"#utility.yul\":1358:1362   */\n      0x00\n        /* \"#utility.yul\":1448:1466   */\n      0xffffffffffffffff\n        /* \"#utility.yul\":1440:1446   */\n      dup3\n        /* \"#utility.yul\":1437:1467   */\n      gt\n        /* \"#utility.yul\":1434:1490   */\n      iszero\n      tag_135\n      jumpi\n        /* \"#utility.yul\":1470:1488   */\n      tag_136\n      tag_84\n      jump\t// in\n    tag_136:\n        /* \"#utility.yul\":1434:1490   */\n    tag_135:\n        /* \"#utility.yul\":1508:1537   */\n      tag_137\n        /* \"#utility.yul\":1530:1536   */\n      dup3\n        /* \"#utility.yul\":1508:1537   */\n      tag_83\n      jump\t// in\n    tag_137:\n        /* \"#utility.yul\":1500:1537   */\n      swap1\n      pop\n        /* \"#utility.yul\":1592:1596   */\n      0x20\n        /* \"#utility.yul\":1586:1590   */\n      dup2\n        /* \"#utility.yul\":1582:1597   */\n      add\n        /* \"#utility.yul\":1574:1597   */\n      swap1\n      pop\n        /* \"#utility.yul\":1296:1604   */\n      swap2\n      swap1\n      pop\n      jump\t// out\n        /* \"#utility.yul\":1610:1758   */\n    tag_88:\n        /* \"#utility.yul\":1708:1714   */\n      dup3\n        /* \"#utility.yul\":1703:1706   */\n      dup2\n        /* \"#utility.yul\":1698:1701   */\n      dup4\n        /* \"#utility.yul\":1685:1715   */\n      calldatacopy\n        /* \"#utility.yul\":1749:1750   */\n      0x00\n        /* \"#utility.yul\":1740:1746   */\n      dup4\n        /* \"#utility.yul\":1735:1738   */\n      dup4\n        /* \"#utility.yul\":1731:1747   */\n      add\n        /* \"#utility.yul\":1724:1751   */\n      mstore\n        /* \"#utility.yul\":1610:1758   */\n      pop\n      pop\n      pop\n      jump\t// out\n        /* \"#utility.yul\":1764:2189   */\n    tag_89:\n        /* \"#utility.yul\":1842:1847   */\n      0x00\n        /* \"#utility.yul\":1867:1933   */\n      tag_140\n        /* \"#utility.yul\":1883:1932   */\n      tag_141\n        /* \"#utility.yul\":1925:1931   */\n      dup5\n        /* \"#utility.yul\":1883:1932   */\n      tag_87\n      jump\t// in\n    tag_141:\n        /* \"#utility.yul\":1867:1933   */\n      tag_86\n      jump\t// in\n    tag_140:\n        /* \"#utility.yul\":1858:1933   */\n      swap1\n      pop\n        /* \"#utility.yul\":1956:1962   */\n      dup3\n        /* \"#utility.yul\":1949:1954   */\n      dup2\n        /* \"#utility.yul\":1942:1963   */\n      mstore\n        /* \"#utility.yul\":1994:1998   */\n      0x20\n        /* \"#utility.yul\":1987:1992   */\n      dup2\n        /* \"#utility.yul\":1983:1999   */\n      add\n        /* \"#utility.yul\":2032:2035   */\n      dup5\n        /* \"#utility.yul\":2023:2029   */\n      dup5\n        /* \"#utility.yul\":2018:2021   */\n      dup5\n        /* \"#utility.yul\":2014:2030   */\n      add\n        /* \"#utility.yul\":2011:2036   */\n      gt\n        /* \"#utility.yul\":2008:2120   */\n      iszero\n      tag_142\n      jumpi\n        /* \"#utility.yul\":2039:2118   */\n      tag_143\n      tag_82\n      jump\t// in\n    tag_143:\n        /* \"#utility.yul\":2008:2120   */\n    tag_142:\n        /* \"#utility.yul\":2129:2183   */\n      tag_144\n        /* \"#utility.yul\":2176:2182   */\n      dup5\n        /* \"#utility.yul\":2171:2174   */\n      dup3\n        /* \"#utility.yul\":2166:2169   */\n      dup6\n        /* \"#utility.yul\":2129:2183   */\n      tag_88\n      jump\t// in\n    tag_144:\n        /* \"#utility.yul\":1848:2189   */\n      pop\n        /* \"#utility.yul\":1764:2189   */\n      swap4\n      swap3\n      pop\n      pop\n      pop\n      jump\t// out\n        /* \"#utility.yul\":2209:2549   */\n    tag_90:\n        /* \"#utility.yul\":2265:2270   */\n      0x00\n        /* \"#utility.yul\":2314:2317   */\n      dup3\n        /* \"#utility.yul\":2307:2311   */\n      0x1f\n        /* \"#utility.yul\":2299:2305   */\n      dup4\n        /* \"#utility.yul\":2295:2312   */\n      add\n        /* \"#utility.yul\":2291:2318   */\n      slt\n        /* \"#utility.yul\":2281:2403   */\n      tag_146\n      jumpi\n        /* \"#utility.yul\":2322:2401   */\n      tag_147\n      tag_81\n      jump\t// in\n    tag_147:\n        /* \"#utility.yul\":2281:2403   */\n    tag_146:\n        /* \"#utility.yul\":2439:2445   */\n      dup2\n        /* \"#utility.yul\":2426:2446   */\n      calldataload\n        /* \"#utility.yul\":2464:2543   */\n      tag_148\n        /* \"#utility.yul\":2539:2542   */\n      dup5\n        /* \"#utility.yul\":2531:2537   */\n      dup3\n        /* \"#utility.yul\":2524:2528   */\n      0x20\n        /* \"#utility.yul\":2516:2522   */\n      dup7\n        /* \"#utility.yul\":2512:2529   */\n      add\n        /* \"#utility.yul\":2464:2543   */\n      tag_89\n      jump\t// in\n    tag_148:\n        /* \"#utility.yul\":2455:2543   */\n      swap2\n      pop\n        /* \"#utility.yul\":2271:2549   */\n      pop\n        /* \"#utility.yul\":2209:2549   */\n      swap3\n      swap2\n      pop\n      pop\n      jump\t// out\n        /* \"#utility.yul\":2555:3064   */\n    tag_10:\n        /* \"#utility.yul\":2624:2630   */\n      0x00\n        /* \"#utility.yul\":2673:2675   */\n      0x20\n        /* \"#utility.yul\":2661:2670   */\n      dup3\n        /* \"#utility.yul\":2652:2659   */\n      dup5\n        /* \"#utility.yul\":2648:2671   */\n      sub\n        /* \"#utility.yul\":2644:2676   */\n      slt\n        /* \"#utility.yul\":2641:2760   */\n      iszero\n      tag_150\n      jumpi\n        /* \"#utility.yul\":2679:2758   */\n      tag_151\n      tag_79\n      jump\t// in\n    tag_151:\n        /* \"#utility.yul\":2641:2760   */\n    tag_150:\n        /* \"#utility.yul\":2827:2828   */\n      0x00\n        /* \"#utility.yul\":2816:2825   */\n      dup3\n        /* \"#utility.yul\":2812:2829   */\n      add\n        /* \"#utility.yul\":2799:2830   */\n      calldataload\n        /* \"#utility.yul\":2857:2875   */\n      0xffffffffffffffff\n        /* \"#utility.yul\":2849:2855   */\n      dup2\n        /* \"#utility.yul\":2846:2876   */\n      gt\n        /* \"#utility.yul\":2843:2960   */\n      iszero\n      tag_152\n      jumpi\n        /* \"#utility.yul\":2879:2958   */\n      tag_153\n      tag_80\n      jump\t// in\n    tag_153:\n        /* \"#utility.yul\":2843:2960   */\n    tag_152:\n        /* \"#utility.yul\":2984:3047   */\n      tag_154\n        /* \"#utility.yul\":3039:3046   */\n      dup5\n        /* \"#utility.yul\":3030:3036   */\n      dup3\n        /* \"#utility.yul\":3019:3028   */\n      dup6\n        /* \"#utility.yul\":3015:3037   */\n      add\n        /* \"#utility.yul\":2984:3047   */\n      tag_90\n      jump\t// in\n    tag_154:\n        /* \"#utility.yul\":2974:3047   */\n      swap2\n      pop\n        /* \"#utility.yul\":2770:3057   */\n      pop\n        /* \"#utility.yul\":2555:3064   */\n      swap3\n      swap2\n      pop\n      pop\n      jump\t// out\n        /* \"#utility.yul\":3070:3196   */\n    tag_91:\n        /* \"#utility.yul\":3107:3114   */\n      0x00\n        /* \"#utility.yul\":3147:3189   */\n      0xffffffffffffffffffffffffffffffffffffffff\n        /* \"#utility.yul\":3140:3145   */\n      dup3\n        /* \"#utility.yul\":3136:3190   */\n      and\n        /* \"#utility.yul\":3125:3190   */\n      swap1\n      pop\n        /* \"#utility.yul\":3070:3196   */\n      swap2\n      swap1\n      pop\n      jump\t// out\n        /* \"#utility.yul\":3202:3298   */\n    tag_92:\n        /* \"#utility.yul\":3239:3246   */\n      0x00\n        /* \"#utility.yul\":3268:3292   */\n      tag_157\n        /* \"#utility.yul\":3286:3291   */\n      dup3\n        /* \"#utility.yul\":3268:3292   */\n      tag_91\n      jump\t// in\n    tag_157:\n        /* \"#utility.yul\":3257:3292   */\n      swap1\n      pop\n        /* \"#utility.yul\":3202:3298   */\n      swap2\n      swap1\n      pop\n      jump\t// out\n        /* \"#utility.yul\":3304:3422   */\n    tag_93:\n        /* \"#utility.yul\":3391:3415   */\n      tag_159\n        /* \"#utility.yul\":3409:3414   */\n      dup2\n        /* \"#utility.yul\":3391:3415   */\n      tag_92\n      jump\t// in\n    tag_159:\n        /* \"#utility.yul\":3386:3389   */\n      dup3\n        /* \"#utility.yul\":3379:3416   */\n      mstore\n        /* \"#utility.yul\":3304:3422   */\n      pop\n      pop\n      jump\t// out\n        /* \"#utility.yul\":3428:3650   */\n    tag_13:\n        /* \"#utility.yul\":3521:3525   */\n      0x00\n        /* \"#utility.yul\":3559:3561   */\n      0x20\n        /* \"#utility.yul\":3548:3557   */\n      dup3\n        /* \"#utility.yul\":3544:3562   */\n      add\n        /* \"#utility.yul\":3536:3562   */\n      swap1\n      pop\n        /* \"#utility.yul\":3572:3643   */\n      tag_161\n        /* \"#utility.yul\":3640:3641   */\n      0x00\n        /* \"#utility.yul\":3629:3638   */\n      dup4\n        /* \"#utility.yul\":3625:3642   */\n      add\n        /* \"#utility.yul\":3616:3622   */\n      dup5\n        /* \"#utility.yul\":3572:3643   */\n      tag_93\n      jump\t// in\n    tag_161:\n        /* \"#utility.yul\":3428:3650   */\n      swap3\n      swap2\n      pop\n      pop\n      jump\t// out\n        /* \"#utility.yul\":3656:3716   */\n    tag_94:\n        /* \"#utility.yul\":3684:3687   */\n      0x00\n        /* \"#utility.yul\":3705:3710   */\n      dup2\n        /* \"#utility.yul\":3698:3710   */\n      swap1\n      pop\n        /* \"#utility.yul\":3656:3716   */\n      swap2\n      swap1\n      pop\n      jump\t// out\n        /* \"#utility.yul\":3722:3864   */\n    tag_95:\n        /* \"#utility.yul\":3772:3781   */\n      0x00\n        /* \"#utility.yul\":3805:3858   */\n      tag_164\n        /* \"#utility.yul\":3823:3857   */\n      tag_165\n        /* \"#utility.yul\":3832:3856   */\n      tag_166\n        /* \"#utility.yul\":3850:3855   */\n      dup5\n        /* \"#utility.yul\":3832:3856   */\n      tag_91\n      jump\t// in\n    tag_166:\n        /* \"#utility.yul\":3823:3857   */\n      tag_94\n      jump\t// in\n    tag_165:\n        /* \"#utility.yul\":3805:3858   */\n      tag_91\n      jump\t// in\n    tag_164:\n        /* \"#utility.yul\":3792:3858   */\n      swap1\n      pop\n        /* \"#utility.yul\":3722:3864   */\n      swap2\n      swap1\n      pop\n      jump\t// out\n        /* \"#utility.yul\":3870:3996   */\n    tag_96:\n        /* \"#utility.yul\":3920:3929   */\n      0x00\n        /* \"#utility.yul\":3953:3990   */\n      tag_168\n        /* \"#utility.yul\":3984:3989   */\n      dup3\n        /* \"#utility.yul\":3953:3990   */\n      tag_95\n      jump\t// in\n    tag_168:\n        /* \"#utility.yul\":3940:3990   */\n      swap1\n      pop\n        /* \"#utility.yul\":3870:3996   */\n      swap2\n      swap1\n      pop\n      jump\t// out\n        /* \"#utility.yul\":4002:4145   */\n    tag_97:\n        /* \"#utility.yul\":4069:4078   */\n      0x00\n        /* \"#utility.yul\":4102:4139   */\n      tag_170\n        /* \"#utility.yul\":4133:4138   */\n      dup3\n        /* \"#utility.yul\":4102:4139   */\n      tag_96\n      jump\t// in\n    tag_170:\n        /* \"#utility.yul\":4089:4139   */\n      swap1\n      pop\n        /* \"#utility.yul\":4002:4145   */\n      swap2\n      swap1\n      pop\n      jump\t// out\n        /* \"#utility.yul\":4151:4316   */\n    tag_98:\n        /* \"#utility.yul\":4255:4309   */\n      tag_172\n        /* \"#utility.yul\":4303:4308   */\n      dup2\n        /* \"#utility.yul\":4255:4309   */\n      tag_97\n      jump\t// in\n    tag_172:\n        /* \"#utility.yul\":4250:4253   */\n      dup3\n        /* \"#utility.yul\":4243:4310   */\n      mstore\n        /* \"#utility.yul\":4151:4316   */\n      pop\n      pop\n      jump\t// out\n        /* \"#utility.yul\":4322:4578   */\n    tag_17:\n        /* \"#utility.yul\":4432:4436   */\n      0x00\n        /* \"#utility.yul\":4470:4472   */\n      0x20\n        /* \"#utility.yul\":4459:4468   */\n      dup3\n        /* \"#utility.yul\":4455:4473   */\n      add\n        /* \"#utility.yul\":4447:4473   */\n      swap1\n      pop\n        /* \"#utility.yul\":4483:4571   */\n      tag_174\n        /* \"#utility.yul\":4568:4569   */\n      0x00\n        /* \"#utility.yul\":4557:4566   */\n      dup4\n        /* \"#utility.yul\":4553:4570   */\n      add\n        /* \"#utility.yul\":4544:4550   */\n      dup5\n        /* \"#utility.yul\":4483:4571   */\n      tag_98\n      jump\t// in\n    tag_174:\n        /* \"#utility.yul\":4322:4578   */\n      swap3\n      swap2\n      pop\n      pop\n      jump\t// out\n        /* \"#utility.yul\":4584:4661   */\n    tag_99:\n        /* \"#utility.yul\":4621:4628   */\n      0x00\n        /* \"#utility.yul\":4650:4655   */\n      dup2\n        /* \"#utility.yul\":4639:4655   */\n      swap1\n      pop\n        /* \"#utility.yul\":4584:4661   */\n      swap2\n      swap1\n      pop\n      jump\t// out\n        /* \"#utility.yul\":4667:4789   */\n    tag_100:\n        /* \"#utility.yul\":4740:4764   */\n      tag_177\n        /* \"#utility.yul\":4758:4763   */\n      dup2\n        /* \"#utility.yul\":4740:4764   */\n      tag_99\n      jump\t// in\n    tag_177:\n        /* \"#utility.yul\":4733:4738   */\n      dup2\n        /* \"#utility.yul\":4730:4765   */\n      eq\n        /* \"#utility.yul\":4720:4783   */\n      tag_178\n      jumpi\n        /* \"#utility.yul\":4779:4780   */\n      0x00\n        /* \"#utility.yul\":4776:4777   */\n      0x00\n        /* \"#utility.yul\":4769:4781   */\n      revert\n        /* \"#utility.yul\":4720:4783   */\n    tag_178:\n        /* \"#utility.yul\":4667:4789   */\n      pop\n      jump\t// out\n        /* \"#utility.yul\":4795:4934   */\n    tag_101:\n        /* \"#utility.yul\":4841:4846   */\n      0x00\n        /* \"#utility.yul\":4879:4885   */\n      dup2\n        /* \"#utility.yul\":4866:4886   */\n      calldataload\n        /* \"#utility.yul\":4857:4886   */\n      swap1\n      pop\n        /* \"#utility.yul\":4895:4928   */\n      tag_180\n        /* \"#utility.yul\":4922:4927   */\n      dup2\n        /* \"#utility.yul\":4895:4928   */\n      tag_100\n      jump\t// in\n    tag_180:\n        /* \"#utility.yul\":4795:4934   */\n      swap3\n      swap2\n      pop\n      pop\n      jump\t// out\n        /* \"#utility.yul\":4940:5269   */\n    tag_23:\n        /* \"#utility.yul\":4999:5005   */\n      0x00\n        /* \"#utility.yul\":5048:5050   */\n      0x20\n        /* \"#utility.yul\":5036:5045   */\n      dup3\n        /* \"#utility.yul\":5027:5034   */\n      dup5\n        /* \"#utility.yul\":5023:5046   */\n      sub\n        /* \"#utility.yul\":5019:5051   */\n      slt\n        /* \"#utility.yul\":5016:5135   */\n      iszero\n      tag_182\n      jumpi\n        /* \"#utility.yul\":5054:5133   */\n      tag_183\n      tag_79\n      jump\t// in\n    tag_183:\n        /* \"#utility.yul\":5016:5135   */\n    tag_182:\n        /* \"#utility.yul\":5174:5175   */\n      0x00\n        /* \"#utility.yul\":5199:5252   */\n      tag_184\n        /* \"#utility.yul\":5244:5251   */\n      dup5\n        /* \"#utility.yul\":5235:5241   */\n      dup3\n        /* \"#utility.yul\":5224:5233   */\n      dup6\n        /* \"#utility.yul\":5220:5242   */\n      add\n        /* \"#utility.yul\":5199:5252   */\n      tag_101\n      jump\t// in\n    tag_184:\n        /* \"#utility.yul\":5189:5252   */\n      swap2\n      pop\n        /* \"#utility.yul\":5145:5262   */\n      pop\n        /* \"#utility.yul\":4940:5269   */\n      swap3\n      swap2\n      pop\n      pop\n      jump\t// out\n        /* \"#utility.yul\":5275:5397   */\n    tag_102:\n        /* \"#utility.yul\":5348:5372   */\n      tag_186\n        /* \"#utility.yul\":5366:5371   */\n      dup2\n        /* \"#utility.yul\":5348:5372   */\n      tag_92\n      jump\t// in\n    tag_186:\n        /* \"#utility.yul\":5341:5346   */\n      dup2\n        /* \"#utility.yul\":5338:5373   */\n      eq\n        /* \"#utility.yul\":5328:5391   */\n      tag_187\n      jumpi\n        /* \"#utility.yul\":5387:5388   */\n      0x00\n        /* \"#utility.yul\":5384:5385   */\n      0x00\n        /* \"#utility.yul\":5377:5389   */\n      revert\n        /* \"#utility.yul\":5328:5391   */\n    tag_187:\n        /* \"#utility.yul\":5275:5397   */\n      pop\n      jump\t// out\n        /* \"#utility.yul\":5403:5542   */\n    tag_103:\n        /* \"#utility.yul\":5449:5454   */\n      0x00\n        /* \"#utility.yul\":5487:5493   */\n      dup2\n        /* \"#utility.yul\":5474:5494   */\n      calldataload\n        /* \"#utility.yul\":5465:5494   */\n      swap1\n      pop\n        /* \"#utility.yul\":5503:5536   */\n      tag_189\n        /* \"#utility.yul\":5530:5535   */\n      dup2\n        /* \"#utility.yul\":5503:5536   */\n      tag_102\n      jump\t// in\n    tag_189:\n        /* \"#utility.yul\":5403:5542   */\n      swap3\n      swap2\n      pop\n      pop\n      jump\t// out\n        /* \"#utility.yul\":5548:5877   */\n    tag_28:\n        /* \"#utility.yul\":5607:5613   */\n      0x00\n        /* \"#utility.yul\":5656:5658   */\n      0x20\n        /* \"#utility.yul\":5644:5653   */\n      dup3\n        /* \"#utility.yul\":5635:5642   */\n      dup5\n        /* \"#utility.yul\":5631:5654   */\n      sub\n        /* \"#utility.yul\":5627:5659   */\n      slt\n        /* \"#utility.yul\":5624:5743   */\n      iszero\n      tag_191\n      jumpi\n        /* \"#utility.yul\":5662:5741   */\n      tag_192\n      tag_79\n      jump\t// in\n    tag_192:\n        /* \"#utility.yul\":5624:5743   */\n    tag_191:\n        /* \"#utility.yul\":5782:5783   */\n      0x00\n        /* \"#utility.yul\":5807:5860   */\n      tag_193\n        /* \"#utility.yul\":5852:5859   */\n      dup5\n        /* \"#utility.yul\":5843:5849   */\n      dup3\n        /* \"#utility.yul\":5832:5841   */\n      dup6\n        /* \"#utility.yul\":5828:5850   */\n      add\n        /* \"#utility.yul\":5807:5860   */\n      tag_103\n      jump\t// in\n    tag_193:\n        /* \"#utility.yul\":5797:5860   */\n      swap2\n      pop\n        /* \"#utility.yul\":5753:5870   */\n      pop\n        /* \"#utility.yul\":5548:5877   */\n      swap3\n      swap2\n      pop\n      pop\n      jump\t// out\n        /* \"#utility.yul\":5883:5982   */\n    tag_104:\n        /* \"#utility.yul\":5935:5941   */\n      0x00\n        /* \"#utility.yul\":5969:5974   */\n      dup2\n        /* \"#utility.yul\":5963:5975   */\n      mload\n        /* \"#utility.yul\":5953:5975   */\n      swap1\n      pop\n        /* \"#utility.yul\":5883:5982   */\n      swap2\n      swap1\n      pop\n      jump\t// out\n        /* \"#utility.yul\":5988:6157   */\n    tag_105:\n        /* \"#utility.yul\":6072:6083   */\n      0x00\n        /* \"#utility.yul\":6106:6112   */\n      dup3\n        /* \"#utility.yul\":6101:6104   */\n      dup3\n        /* \"#utility.yul\":6094:6113   */\n      mstore\n        /* \"#utility.yul\":6146:6150   */\n      0x20\n        /* \"#utility.yul\":6141:6144   */\n      dup3\n        /* \"#utility.yul\":6137:6151   */\n      add\n        /* \"#utility.yul\":6122:6151   */\n      swap1\n      pop\n        /* \"#utility.yul\":5988:6157   */\n      swap3\n      swap2\n      pop\n      pop\n      jump\t// out\n        /* \"#utility.yul\":6163:6302   */\n    tag_106:\n        /* \"#utility.yul\":6252:6258   */\n      dup3\n        /* \"#utility.yul\":6247:6250   */\n      dup2\n        /* \"#utility.yul\":6242:6245   */\n      dup4\n        /* \"#utility.yul\":6236:6259   */\n      mcopy\n        /* \"#utility.yul\":6293:6294   */\n      0x00\n        /* \"#utility.yul\":6284:6290   */\n      dup4\n        /* \"#utility.yul\":6279:6282   */\n      dup4\n        /* \"#utility.yul\":6275:6291   */\n      add\n        /* \"#utility.yul\":6268:6295   */\n      mstore\n        /* \"#utility.yul\":6163:6302   */\n      pop\n      pop\n      pop\n      jump\t// out\n        /* \"#utility.yul\":6308:6685   */\n    tag_107:\n        /* \"#utility.yul\":6396:6399   */\n      0x00\n        /* \"#utility.yul\":6424:6463   */\n      tag_198\n        /* \"#utility.yul\":6457:6462   */\n      dup3\n        /* \"#utility.yul\":6424:6463   */\n      tag_104\n      jump\t// in\n    tag_198:\n        /* \"#utility.yul\":6479:6550   */\n      tag_199\n        /* \"#utility.yul\":6543:6549   */\n      dup2\n        /* \"#utility.yul\":6538:6541   */\n      dup6\n        /* \"#utility.yul\":6479:6550   */\n      tag_105\n      jump\t// in\n    tag_199:\n        /* \"#utility.yul\":6472:6550   */\n      swap4\n      pop\n        /* \"#utility.yul\":6559:6624   */\n      tag_200\n        /* \"#utility.yul\":6617:6623   */\n      dup2\n        /* \"#utility.yul\":6612:6615   */\n      dup6\n        /* \"#utility.yul\":6605:6609   */\n      0x20\n        /* \"#utility.yul\":6598:6603   */\n      dup7\n        /* \"#utility.yul\":6594:6610   */\n      add\n        /* \"#utility.yul\":6559:6624   */\n      tag_106\n      jump\t// in\n    tag_200:\n        /* \"#utility.yul\":6649:6678   */\n      tag_201\n        /* \"#utility.yul\":6671:6677   */\n      dup2\n        /* \"#utility.yul\":6649:6678   */\n      tag_83\n      jump\t// in\n    tag_201:\n        /* \"#utility.yul\":6644:6647   */\n      dup5\n        /* \"#utility.yul\":6640:6679   */\n      add\n        /* \"#utility.yul\":6633:6679   */\n      swap2\n      pop\n        /* \"#utility.yul\":6400:6685   */\n      pop\n        /* \"#utility.yul\":6308:6685   */\n      swap3\n      swap2\n      pop\n      pop\n      jump\t// out\n        /* \"#utility.yul\":6691:7004   */\n    tag_32:\n        /* \"#utility.yul\":6804:6808   */\n      0x00\n        /* \"#utility.yul\":6842:6844   */\n      0x20\n        /* \"#utility.yul\":6831:6840   */\n      dup3\n        /* \"#utility.yul\":6827:6845   */\n      add\n        /* \"#utility.yul\":6819:6845   */\n      swap1\n      pop\n        /* \"#utility.yul\":6891:6900   */\n      dup2\n        /* \"#utility.yul\":6885:6889   */\n      dup2\n        /* \"#utility.yul\":6881:6901   */\n      sub\n        /* \"#utility.yul\":6877:6878   */\n      0x00\n        /* \"#utility.yul\":6866:6875   */\n      dup4\n        /* \"#utility.yul\":6862:6879   */\n      add\n        /* \"#utility.yul\":6855:6902   */\n      mstore\n        /* \"#utility.yul\":6919:6997   */\n      tag_203\n        /* \"#utility.yul\":6992:6996   */\n      dup2\n        /* \"#utility.yul\":6983:6989   */\n      dup5\n        /* \"#utility.yul\":6919:6997   */\n      tag_107\n      jump\t// in\n    tag_203:\n        /* \"#utility.yul\":6911:6997   */\n      swap1\n      pop\n        /* \"#utility.yul\":6691:7004   */\n      swap3\n      swap2\n      pop\n      pop\n      jump\t// out\n        /* \"#utility.yul\":7010:7153   */\n    tag_108:\n        /* \"#utility.yul\":7067:7072   */\n      0x00\n        /* \"#utility.yul\":7098:7104   */\n      dup2\n        /* \"#utility.yul\":7092:7105   */\n      mload\n        /* \"#utility.yul\":7083:7105   */\n      swap1\n      pop\n        /* \"#utility.yul\":7114:7147   */\n      tag_205\n        /* \"#utility.yul\":7141:7146   */\n      dup2\n        /* \"#utility.yul\":7114:7147   */\n      tag_102\n      jump\t// in\n    tag_205:\n        /* \"#utility.yul\":7010:7153   */\n      swap3\n      swap2\n      pop\n      pop\n      jump\t// out\n        /* \"#utility.yul\":7159:7510   */\n    tag_36:\n        /* \"#utility.yul\":7229:7235   */\n      0x00\n        /* \"#utility.yul\":7278:7280   */\n      0x20\n        /* \"#utility.yul\":7266:7275   */\n      dup3\n        /* \"#utility.yul\":7257:7264   */\n      dup5\n        /* \"#utility.yul\":7253:7276   */\n      sub\n        /* \"#utility.yul\":7249:7281   */\n      slt\n        /* \"#utility.yul\":7246:7365   */\n      iszero\n      tag_207\n      jumpi\n        /* \"#utility.yul\":7284:7363   */\n      tag_208\n      tag_79\n      jump\t// in\n    tag_208:\n        /* \"#utility.yul\":7246:7365   */\n    tag_207:\n        /* \"#utility.yul\":7404:7405   */\n      0x00\n        /* \"#utility.yul\":7429:7493   */\n      tag_209\n        /* \"#utility.yul\":7485:7492   */\n      dup5\n        /* \"#utility.yul\":7476:7482   */\n      dup3\n        /* \"#utility.yul\":7465:7474   */\n      dup6\n        /* \"#utility.yul\":7461:7483   */\n      add\n        /* \"#utility.yul\":7429:7493   */\n      tag_108\n      jump\t// in\n    tag_209:\n        /* \"#utility.yul\":7419:7493   */\n      swap2\n      pop\n        /* \"#utility.yul\":7375:7503   */\n      pop\n        /* \"#utility.yul\":7159:7510   */\n      swap3\n      swap2\n      pop\n      pop\n      jump\t// out\n        /* \"#utility.yul\":7516:7695   */\n    tag_109:\n        /* \"#utility.yul\":7656:7687   */\n      0x6d73672e73656e646572206973206e6f742065746620666163746f7279000000\n        /* \"#utility.yul\":7652:7653   */\n      0x00\n        /* \"#utility.yul\":7644:7650   */\n      dup3\n        /* \"#utility.yul\":7640:7654   */\n      add\n        /* \"#utility.yul\":7633:7688   */\n      mstore\n        /* \"#utility.yul\":7516:7695   */\n      pop\n      jump\t// out\n        /* \"#utility.yul\":7701:8067   */\n    tag_110:\n        /* \"#utility.yul\":7843:7846   */\n      0x00\n        /* \"#utility.yul\":7864:7931   */\n      tag_212\n        /* \"#utility.yul\":7928:7930   */\n      0x1d\n        /* \"#utility.yul\":7923:7926   */\n      dup4\n        /* \"#utility.yul\":7864:7931   */\n      tag_105\n      jump\t// in\n    tag_212:\n        /* \"#utility.yul\":7857:7931   */\n      swap2\n      pop\n        /* \"#utility.yul\":7940:8033   */\n      tag_213\n        /* \"#utility.yul\":8029:8032   */\n      dup3\n        /* \"#utility.yul\":7940:8033   */\n      tag_109\n      jump\t// in\n    tag_213:\n        /* \"#utility.yul\":8058:8060   */\n      0x20\n        /* \"#utility.yul\":8053:8056   */\n      dup3\n        /* \"#utility.yul\":8049:8061   */\n      add\n        /* \"#utility.yul\":8042:8061   */\n      swap1\n      pop\n        /* \"#utility.yul\":7701:8067   */\n      swap2\n      swap1\n      pop\n      jump\t// out\n        /* \"#utility.yul\":8073:8492   */\n    tag_45:\n        /* \"#utility.yul\":8239:8243   */\n      0x00\n        /* \"#utility.yul\":8277:8279   */\n      0x20\n        /* \"#utility.yul\":8266:8275   */\n      dup3\n        /* \"#utility.yul\":8262:8280   */\n      add\n        /* \"#utility.yul\":8254:8280   */\n      swap1\n      pop\n        /* \"#utility.yul\":8326:8335   */\n      dup2\n        /* \"#utility.yul\":8320:8324   */\n      dup2\n        /* \"#utility.yul\":8316:8336   */\n      sub\n        /* \"#utility.yul\":8312:8313   */\n      0x00\n        /* \"#utility.yul\":8301:8310   */\n      dup4\n        /* \"#utility.yul\":8297:8314   */\n      add\n        /* \"#utility.yul\":8290:8337   */\n      mstore\n        /* \"#utility.yul\":8354:8485   */\n      tag_215\n        /* \"#utility.yul\":8480:8484   */\n      dup2\n        /* \"#utility.yul\":8354:8485   */\n      tag_110\n      jump\t// in\n    tag_215:\n        /* \"#utility.yul\":8346:8485   */\n      swap1\n      pop\n        /* \"#utility.yul\":8073:8492   */\n      swap2\n      swap1\n      pop\n      jump\t// out\n        /* \"#utility.yul\":8498:8671   */\n    tag_111:\n        /* \"#utility.yul\":8638:8663   */\n      0x43616c6c6572206973206e6f7420746865206f776e6572000000000000000000\n        /* \"#utility.yul\":8634:8635   */\n      0x00\n        /* \"#utility.yul\":8626:8632   */\n      dup3\n        /* \"#utility.yul\":8622:8636   */\n      add\n        /* \"#utility.yul\":8615:8664   */\n      mstore\n        /* \"#utility.yul\":8498:8671   */\n      pop\n      jump\t// out\n        /* \"#utility.yul\":8677:9043   */\n    tag_112:\n        /* \"#utility.yul\":8819:8822   */\n      0x00\n        /* \"#utility.yul\":8840:8907   */\n      tag_218\n        /* \"#utility.yul\":8904:8906   */\n      0x17\n        /* \"#utility.yul\":8899:8902   */\n      dup4\n        /* \"#utility.yul\":8840:8907   */\n      tag_105\n      jump\t// in\n    tag_218:\n        /* \"#utility.yul\":8833:8907   */\n      swap2\n      pop\n        /* \"#utility.yul\":8916:9009   */\n      tag_219\n        /* \"#utility.yul\":9005:9008   */\n      dup3\n        /* \"#utility.yul\":8916:9009   */\n      tag_111\n      jump\t// in\n    tag_219:\n        /* \"#utility.yul\":9034:9036   */\n      0x20\n        /* \"#utility.yul\":9029:9032   */\n      dup3\n        /* \"#utility.yul\":9025:9037   */\n      add\n        /* \"#utility.yul\":9018:9037   */\n      swap1\n      pop\n        /* \"#utility.yul\":8677:9043   */\n      swap2\n      swap1\n      pop\n      jump\t// out\n        /* \"#utility.yul\":9049:9468   */\n    tag_58:\n        /* \"#utility.yul\":9215:9219   */\n      0x00\n        /* \"#utility.yul\":9253:9255   */\n      0x20\n        /* \"#utility.yul\":9242:9251   */\n      dup3\n        /* \"#utility.yul\":9238:9256   */\n      add\n        /* \"#utility.yul\":9230:9256   */\n      swap1\n      pop\n        /* \"#utility.yul\":9302:9311   */\n      dup2\n        /* \"#utility.yul\":9296:9300   */\n      dup2\n        /* \"#utility.yul\":9292:9312   */\n      sub\n        /* \"#utility.yul\":9288:9289   */\n      0x00\n        /* \"#utility.yul\":9277:9286   */\n      dup4\n        /* \"#utility.yul\":9273:9290   */\n      add\n        /* \"#utility.yul\":9266:9313   */\n      mstore\n        /* \"#utility.yul\":9330:9461   */\n      tag_221\n        /* \"#utility.yul\":9456:9460   */\n      dup2\n        /* \"#utility.yul\":9330:9461   */\n      tag_112\n      jump\t// in\n    tag_221:\n        /* \"#utility.yul\":9322:9461   */\n      swap1\n      pop\n        /* \"#utility.yul\":9049:9468   */\n      swap2\n      swap1\n      pop\n      jump\t// out\n        /* \"#utility.yul\":9474:9656   */\n    tag_113:\n        /* \"#utility.yul\":9614:9648   */\n      0x4469726563746f72792063616e6e6f74206265207a65726f2061646472657373\n        /* \"#utility.yul\":9610:9611   */\n      0x00\n        /* \"#utility.yul\":9602:9608   */\n      dup3\n        /* \"#utility.yul\":9598:9612   */\n      add\n        /* \"#utility.yul\":9591:9649   */\n      mstore\n        /* \"#utility.yul\":9474:9656   */\n      pop\n      jump\t// out\n        /* \"#utility.yul\":9662:10028   */\n    tag_114:\n        /* \"#utility.yul\":9804:9807   */\n      0x00\n        /* \"#utility.yul\":9825:9892   */\n      tag_224\n        /* \"#utility.yul\":9889:9891   */\n      0x20\n        /* \"#utility.yul\":9884:9887   */\n      dup4\n        /* \"#utility.yul\":9825:9892   */\n      tag_105\n      jump\t// in\n    tag_224:\n        /* \"#utility.yul\":9818:9892   */\n      swap2\n      pop\n        /* \"#utility.yul\":9901:9994   */\n      tag_225\n        /* \"#utility.yul\":9990:9993   */\n      dup3\n        /* \"#utility.yul\":9901:9994   */\n      tag_113\n      jump\t// in\n    tag_225:\n        /* \"#utility.yul\":10019:10021   */\n      0x20\n        /* \"#utility.yul\":10014:10017   */\n      dup3\n        /* \"#utility.yul\":10010:10022   */\n      add\n        /* \"#utility.yul\":10003:10022   */\n      swap1\n      pop\n        /* \"#utility.yul\":9662:10028   */\n      swap2\n      swap1\n      pop\n      jump\t// out\n        /* \"#utility.yul\":10034:10453   */\n    tag_65:\n        /* \"#utility.yul\":10200:10204   */\n      0x00\n        /* \"#utility.yul\":10238:10240   */\n      0x20\n        /* \"#utility.yul\":10227:10236   */\n      dup3\n        /* \"#utility.yul\":10223:10241   */\n      add\n        /* \"#utility.yul\":10215:10241   */\n      swap1\n      pop\n        /* \"#utility.yul\":10287:10296   */\n      dup2\n        /* \"#utility.yul\":10281:10285   */\n      dup2\n        /* \"#utility.yul\":10277:10297   */\n      sub\n        /* \"#utility.yul\":10273:10274   */\n      0x00\n        /* \"#utility.yul\":10262:10271   */\n      dup4\n        /* \"#utility.yul\":10258:10275   */\n      add\n        /* \"#utility.yul\":10251:10298   */\n      mstore\n        /* \"#utility.yul\":10315:10446   */\n      tag_227\n        /* \"#utility.yul\":10441:10445   */\n      dup2\n        /* \"#utility.yul\":10315:10446   */\n      tag_114\n      jump\t// in\n    tag_227:\n        /* \"#utility.yul\":10307:10446   */\n      swap1\n      pop\n        /* \"#utility.yul\":10034:10453   */\n      swap2\n      swap1\n      pop\n      jump\t// out\n        /* \"#utility.yul\":10459:10637   */\n    tag_115:\n        /* \"#utility.yul\":10599:10629   */\n      0x4469726563746f7279206d757374206265206120636f6e747261637400000000\n        /* \"#utility.yul\":10595:10596   */\n      0x00\n        /* \"#utility.yul\":10587:10593   */\n      dup3\n        /* \"#utility.yul\":10583:10597   */\n      add\n        /* \"#utility.yul\":10576:10630   */\n      mstore\n        /* \"#utility.yul\":10459:10637   */\n      pop\n      jump\t// out\n        /* \"#utility.yul\":10643:11009   */\n    tag_116:\n        /* \"#utility.yul\":10785:10788   */\n      0x00\n        /* \"#utility.yul\":10806:10873   */\n      tag_230\n        /* \"#utility.yul\":10870:10872   */\n      0x1c\n        /* \"#utility.yul\":10865:10868   */\n      dup4\n        /* \"#utility.yul\":10806:10873   */\n      tag_105\n      jump\t// in\n    tag_230:\n        /* \"#utility.yul\":10799:10873   */\n      swap2\n      pop\n        /* \"#utility.yul\":10882:10975   */\n      tag_231\n        /* \"#utility.yul\":10971:10974   */\n      dup3\n        /* \"#utility.yul\":10882:10975   */\n      tag_115\n      jump\t// in\n    tag_231:\n        /* \"#utility.yul\":11000:11002   */\n      0x20\n        /* \"#utility.yul\":10995:10998   */\n      dup3\n        /* \"#utility.yul\":10991:11003   */\n      add\n        /* \"#utility.yul\":10984:11003   */\n      swap1\n      pop\n        /* \"#utility.yul\":10643:11009   */\n      swap2\n      swap1\n      pop\n      jump\t// out\n        /* \"#utility.yul\":11015:11434   */\n    tag_68:\n        /* \"#utility.yul\":11181:11185   */\n      0x00\n        /* \"#utility.yul\":11219:11221   */\n      0x20\n        /* \"#utility.yul\":11208:11217   */\n      dup3\n        /* \"#utility.yul\":11204:11222   */\n      add\n        /* \"#utility.yul\":11196:11222   */\n      swap1\n      pop\n        /* \"#utility.yul\":11268:11277   */\n      dup2\n        /* \"#utility.yul\":11262:11266   */\n      dup2\n        /* \"#utility.yul\":11258:11278   */\n      sub\n        /* \"#utility.yul\":11254:11255   */\n      0x00\n        /* \"#utility.yul\":11243:11252   */\n      dup4\n        /* \"#utility.yul\":11239:11256   */\n      add\n        /* \"#utility.yul\":11232:11279   */\n      mstore\n        /* \"#utility.yul\":11296:11427   */\n      tag_233\n        /* \"#utility.yul\":11422:11426   */\n      dup2\n        /* \"#utility.yul\":11296:11427   */\n      tag_116\n      jump\t// in\n    tag_233:\n        /* \"#utility.yul\":11288:11427   */\n      swap1\n      pop\n        /* \"#utility.yul\":11015:11434   */\n      swap2\n      swap1\n      pop\n      jump\t// out\n        /* \"#utility.yul\":11440:11671   */\n    tag_117:\n        /* \"#utility.yul\":11580:11614   */\n      0x4469726563746f7279206164647265737320646f6573206e6f7420696d706c65\n        /* \"#utility.yul\":11576:11577   */\n      0x00\n        /* \"#utility.yul\":11568:11574   */\n      dup3\n        /* \"#utility.yul\":11564:11578   */\n      add\n        /* \"#utility.yul\":11557:11615   */\n      mstore\n        /* \"#utility.yul\":11649:11663   */\n      0x6d656e74206f776e657228290000000000000000000000000000000000000000\n        /* \"#utility.yul\":11644:11646   */\n      0x20\n        /* \"#utility.yul\":11636:11642   */\n      dup3\n        /* \"#utility.yul\":11632:11647   */\n      add\n        /* \"#utility.yul\":11625:11664   */\n      mstore\n        /* \"#utility.yul\":11440:11671   */\n      pop\n      jump\t// out\n        /* \"#utility.yul\":11677:12043   */\n    tag_118:\n        /* \"#utility.yul\":11819:11822   */\n      0x00\n        /* \"#utility.yul\":11840:11907   */\n      tag_236\n        /* \"#utility.yul\":11904:11906   */\n      0x2c\n        /* \"#utility.yul\":11899:11902   */\n      dup4\n        /* \"#utility.yul\":11840:11907   */\n      tag_105\n      jump\t// in\n    tag_236:\n        /* \"#utility.yul\":11833:11907   */\n      swap2\n      pop\n        /* \"#utility.yul\":11916:12009   */\n      tag_237\n        /* \"#utility.yul\":12005:12008   */\n      dup3\n        /* \"#utility.yul\":11916:12009   */\n      tag_117\n      jump\t// in\n    tag_237:\n        /* \"#utility.yul\":12034:12036   */\n      0x40\n        /* \"#utility.yul\":12029:12032   */\n      dup3\n        /* \"#utility.yul\":12025:12037   */\n      add\n        /* \"#utility.yul\":12018:12037   */\n      swap1\n      pop\n        /* \"#utility.yul\":11677:12043   */\n      swap2\n      swap1\n      pop\n      jump\t// out\n        /* \"#utility.yul\":12049:12468   */\n    tag_76:\n        /* \"#utility.yul\":12215:12219   */\n      0x00\n        /* \"#utility.yul\":12253:12255   */\n      0x20\n        /* \"#utility.yul\":12242:12251   */\n      dup3\n        /* \"#utility.yul\":12238:12256   */\n      add\n        /* \"#utility.yul\":12230:12256   */\n      swap1\n      pop\n        /* \"#utility.yul\":12302:12311   */\n      dup2\n        /* \"#utility.yul\":12296:12300   */\n      dup2\n        /* \"#utility.yul\":12292:12312   */\n      sub\n        /* \"#utility.yul\":12288:12289   */\n      0x00\n        /* \"#utility.yul\":12277:12286   */\n      dup4\n        /* \"#utility.yul\":12273:12290   */\n      add\n        /* \"#utility.yul\":12266:12313   */\n      mstore\n        /* \"#utility.yul\":12330:12461   */\n      tag_239\n        /* \"#utility.yul\":12456:12460   */\n      dup2\n        /* \"#utility.yul\":12330:12461   */\n      tag_118\n      jump\t// in\n    tag_239:\n        /* \"#utility.yul\":12322:12461   */\n      swap1\n      pop\n        /* \"#utility.yul\":12049:12468   */\n      swap2\n      swap1\n      pop\n      jump\t// out\n    stop\n\n    sub_0: assembly {\n            /* \"hopium/etf/main/etf-vault-deployer.sol\":1983:2567  contract EtfVault is ImEtfRouter, TransferHelpers {... */\n          mstore(0x40, 0x80)\n            /* \"hopium/etf/main/etf-vault-deployer.sol\":2040:2098  constructor(address _directory) ImDirectory(_directory) {} */\n          callvalue\n          dup1\n          iszero\n          tag_1\n          jumpi\n          revert(0x00, 0x00)\n        tag_1:\n          pop\n          mload(0x40)\n          sub(codesize, bytecodeSize)\n          dup1\n          bytecodeSize\n          dup4\n          codecopy\n          dup2\n          dup2\n          add\n          0x40\n          mstore\n          dup2\n          add\n          swap1\n          tag_2\n          swap2\n          swap1\n          tag_3\n          jump\t// in\n        tag_2:\n            /* \"hopium/etf/main/etf-vault-deployer.sol\":2084:2094  _directory */\n          dup1\n            /* \"hopium/common/interface/imDirectory.sol\":412:437  _setDirectory(_directory) */\n          tag_7\n            /* \"hopium/common/interface/imDirectory.sol\":426:436  _directory */\n          dup2\n            /* \"hopium/common/interface/imDirectory.sol\":412:425  _setDirectory */\n          shl(0x20, tag_8)\n            /* \"hopium/common/interface/imDirectory.sol\":412:437  _setDirectory(_directory) */\n          0x20\n          shr\n          jump\t// in\n        tag_7:\n            /* \"hopium/common/interface/imDirectory.sol\":370:464  constructor(address _directory) {... */\n          pop\n            /* \"hopium/etf/main/etf-vault-deployer.sol\":2040:2098  constructor(address _directory) ImDirectory(_directory) {} */\n          pop\n            /* \"hopium/etf/main/etf-vault-deployer.sol\":1983:2567  contract EtfVault is ImEtfRouter, TransferHelpers {... */\n          jump(tag_10)\n            /* \"hopium/common/interface/imDirectory.sol\":589:1050  function _setDirectory(address _directory) internal {... */\n        tag_8:\n            /* \"hopium/common/interface/imDirectory.sol\":681:682  0 */\n          0x00\n            /* \"hopium/common/interface/imDirectory.sol\":659:683  _directory != address(0) */\n          0xffffffffffffffffffffffffffffffffffffffff\n          and\n            /* \"hopium/common/interface/imDirectory.sol\":659:669  _directory */\n          dup2\n            /* \"hopium/common/interface/imDirectory.sol\":659:683  _directory != address(0) */\n          0xffffffffffffffffffffffffffffffffffffffff\n          and\n          sub\n            /* \"hopium/common/interface/imDirectory.sol\":651:720  require(_directory != address(0), \"Directory cannot be zero address\") */\n          tag_12\n          jumpi\n          mload(0x40)\n          0x08c379a000000000000000000000000000000000000000000000000000000000\n          dup2\n          mstore\n          0x04\n          add\n          tag_13\n          swap1\n          tag_14\n          jump\t// in\n        tag_13:\n          mload(0x40)\n          dup1\n          swap2\n          sub\n          swap1\n          revert\n        tag_12:\n            /* \"hopium/common/interface/imDirectory.sol\":763:764  0 */\n          0x00\n            /* \"hopium/common/interface/imDirectory.sol\":738:748  _directory */\n          dup2\n            /* \"hopium/common/interface/imDirectory.sol\":738:760  _directory.code.length */\n          0xffffffffffffffffffffffffffffffffffffffff\n          and\n          extcodesize\n            /* \"hopium/common/interface/imDirectory.sol\":738:764  _directory.code.length > 0 */\n          gt\n            /* \"hopium/common/interface/imDirectory.sol\":730:797  require(_directory.code.length > 0, \"Directory must be a contract\") */\n          tag_15\n          jumpi\n          mload(0x40)\n          0x08c379a000000000000000000000000000000000000000000000000000000000\n          dup2\n          mstore\n          0x04\n          add\n          tag_16\n          swap1\n          tag_17\n          jump\t// in\n        tag_16:\n          mload(0x40)\n          dup1\n          swap2\n          sub\n          swap1\n          revert\n        tag_15:\n            /* \"hopium/common/interface/imDirectory.sol\":861:871  _directory */\n          dup1\n            /* \"hopium/common/interface/imDirectory.sol\":850:878  IDirectory(_directory).owner */\n          0xffffffffffffffffffffffffffffffffffffffff\n          and\n          0x8da5cb5b\n            /* \"hopium/common/interface/imDirectory.sol\":850:880  IDirectory(_directory).owner() */\n          mload(0x40)\n          dup2\n          0xffffffff\n          and\n          0xe0\n          shl\n          dup2\n          mstore\n          0x04\n          add\n          0x20\n          mload(0x40)\n          dup1\n          dup4\n          sub\n          dup2\n          dup7\n          gas\n          staticcall\n          swap3\n          pop\n          pop\n          pop\n          dup1\n          iszero\n          tag_18\n          jumpi\n          pop\n          mload(0x40)\n          returndatasize\n          not(0x1f)\n          0x1f\n          dup3\n          add\n          and\n          dup3\n          add\n          dup1\n          0x40\n          mstore\n          pop\n          dup2\n          add\n          swap1\n          tag_19\n          swap2\n          swap1\n          tag_3\n          jump\t// in\n        tag_19:\n          0x01\n        tag_18:\n            /* \"hopium/common/interface/imDirectory.sol\":846:1044  try IDirectory(_directory).owner() returns (address) {... */\n          tag_20\n          jumpi\n            /* \"hopium/common/interface/imDirectory.sol\":979:1033  revert(\"Directory address does not implement owner()\") */\n          mload(0x40)\n          0x08c379a000000000000000000000000000000000000000000000000000000000\n          dup2\n          mstore\n          0x04\n          add\n          tag_24\n          swap1\n          tag_25\n          jump\t// in\n        tag_24:\n          mload(0x40)\n          dup1\n          swap2\n          sub\n          swap1\n          revert\n            /* \"hopium/common/interface/imDirectory.sol\":846:1044  try IDirectory(_directory).owner() returns (address) {... */\n        tag_20:\n            /* \"hopium/common/interface/imDirectory.sol\":936:946  _directory */\n          dup2\n            /* \"hopium/common/interface/imDirectory.sol\":913:922  Directory */\n          0x00\n          0x00\n            /* \"hopium/common/interface/imDirectory.sol\":913:947  Directory = IDirectory(_directory) */\n          0x0100\n          exp\n          dup2\n          sload\n          dup2\n          0xffffffffffffffffffffffffffffffffffffffff\n          mul\n          not\n          and\n          swap1\n          dup4\n          0xffffffffffffffffffffffffffffffffffffffff\n          and\n          mul\n          or\n          swap1\n          sstore\n          pop\n            /* \"hopium/common/interface/imDirectory.sol\":881:958  returns (address) {... */\n          pop\n            /* \"hopium/common/interface/imDirectory.sol\":589:1050  function _setDirectory(address _directory) internal {... */\n          pop\n          jump\t// out\n            /* \"#utility.yul\":88:205   */\n        tag_28:\n            /* \"#utility.yul\":197:198   */\n          0x00\n            /* \"#utility.yul\":194:195   */\n          0x00\n            /* \"#utility.yul\":187:199   */\n          revert\n            /* \"#utility.yul\":334:460   */\n        tag_30:\n            /* \"#utility.yul\":371:378   */\n          0x00\n            /* \"#utility.yul\":411:453   */\n          0xffffffffffffffffffffffffffffffffffffffff\n            /* \"#utility.yul\":404:409   */\n          dup3\n            /* \"#utility.yul\":400:454   */\n          and\n            /* \"#utility.yul\":389:454   */\n          swap1\n          pop\n            /* \"#utility.yul\":334:460   */\n          swap2\n          swap1\n          pop\n          jump\t// out\n            /* \"#utility.yul\":466:562   */\n        tag_31:\n            /* \"#utility.yul\":503:510   */\n          0x00\n            /* \"#utility.yul\":532:556   */\n          tag_47\n            /* \"#utility.yul\":550:555   */\n          dup3\n            /* \"#utility.yul\":532:556   */\n          tag_30\n          jump\t// in\n        tag_47:\n            /* \"#utility.yul\":521:556   */\n          swap1\n          pop\n            /* \"#utility.yul\":466:562   */\n          swap2\n          swap1\n          pop\n          jump\t// out\n            /* \"#utility.yul\":568:690   */\n        tag_32:\n            /* \"#utility.yul\":641:665   */\n          tag_49\n            /* \"#utility.yul\":659:664   */\n          dup2\n            /* \"#utility.yul\":641:665   */\n          tag_31\n          jump\t// in\n        tag_49:\n            /* \"#utility.yul\":634:639   */\n          dup2\n            /* \"#utility.yul\":631:666   */\n          eq\n            /* \"#utility.yul\":621:684   */\n          tag_50\n          jumpi\n            /* \"#utility.yul\":680:681   */\n          0x00\n            /* \"#utility.yul\":677:678   */\n          0x00\n            /* \"#utility.yul\":670:682   */\n          revert\n            /* \"#utility.yul\":621:684   */\n        tag_50:\n            /* \"#utility.yul\":568:690   */\n          pop\n          jump\t// out\n            /* \"#utility.yul\":696:839   */\n        tag_33:\n            /* \"#utility.yul\":753:758   */\n          0x00\n            /* \"#utility.yul\":784:790   */\n          dup2\n            /* \"#utility.yul\":778:791   */\n          mload\n            /* \"#utility.yul\":769:791   */\n          swap1\n          pop\n            /* \"#utility.yul\":800:833   */\n          tag_52\n            /* \"#utility.yul\":827:832   */\n          dup2\n            /* \"#utility.yul\":800:833   */\n          tag_32\n          jump\t// in\n        tag_52:\n            /* \"#utility.yul\":696:839   */\n          swap3\n          swap2\n          pop\n          pop\n          jump\t// out\n            /* \"#utility.yul\":845:1196   */\n        tag_3:\n            /* \"#utility.yul\":915:921   */\n          0x00\n            /* \"#utility.yul\":964:966   */\n          0x20\n            /* \"#utility.yul\":952:961   */\n          dup3\n            /* \"#utility.yul\":943:950   */\n          dup5\n            /* \"#utility.yul\":939:962   */\n          sub\n            /* \"#utility.yul\":935:967   */\n          slt\n            /* \"#utility.yul\":932:1051   */\n          iszero\n          tag_54\n          jumpi\n            /* \"#utility.yul\":970:1049   */\n          tag_55\n          tag_28\n          jump\t// in\n        tag_55:\n            /* \"#utility.yul\":932:1051   */\n        tag_54:\n            /* \"#utility.yul\":1090:1091   */\n          0x00\n            /* \"#utility.yul\":1115:1179   */\n          tag_56\n            /* \"#utility.yul\":1171:1178   */\n          dup5\n            /* \"#utility.yul\":1162:1168   */\n          dup3\n            /* \"#utility.yul\":1151:1160   */\n          dup6\n            /* \"#utility.yul\":1147:1169   */\n          add\n            /* \"#utility.yul\":1115:1179   */\n          tag_33\n          jump\t// in\n        tag_56:\n            /* \"#utility.yul\":1105:1179   */\n          swap2\n          pop\n            /* \"#utility.yul\":1061:1189   */\n          pop\n            /* \"#utility.yul\":845:1196   */\n          swap3\n          swap2\n          pop\n          pop\n          jump\t// out\n            /* \"#utility.yul\":1202:1371   */\n        tag_34:\n            /* \"#utility.yul\":1286:1297   */\n          0x00\n            /* \"#utility.yul\":1320:1326   */\n          dup3\n            /* \"#utility.yul\":1315:1318   */\n          dup3\n            /* \"#utility.yul\":1308:1327   */\n          mstore\n            /* \"#utility.yul\":1360:1364   */\n          0x20\n            /* \"#utility.yul\":1355:1358   */\n          dup3\n            /* \"#utility.yul\":1351:1365   */\n          add\n            /* \"#utility.yul\":1336:1365   */\n          swap1\n          pop\n            /* \"#utility.yul\":1202:1371   */\n          swap3\n          swap2\n          pop\n          pop\n          jump\t// out\n            /* \"#utility.yul\":1377:1559   */\n        tag_35:\n            /* \"#utility.yul\":1517:1551   */\n          0x4469726563746f72792063616e6e6f74206265207a65726f2061646472657373\n            /* \"#utility.yul\":1513:1514   */\n          0x00\n            /* \"#utility.yul\":1505:1511   */\n          dup3\n            /* \"#utility.yul\":1501:1515   */\n          add\n            /* \"#utility.yul\":1494:1552   */\n          mstore\n            /* \"#utility.yul\":1377:1559   */\n          pop\n          jump\t// out\n            /* \"#utility.yul\":1565:1931   */\n        tag_36:\n            /* \"#utility.yul\":1707:1710   */\n          0x00\n            /* \"#utility.yul\":1728:1795   */\n          tag_60\n            /* \"#utility.yul\":1792:1794   */\n          0x20\n            /* \"#utility.yul\":1787:1790   */\n          dup4\n            /* \"#utility.yul\":1728:1795   */\n          tag_34\n          jump\t// in\n        tag_60:\n            /* \"#utility.yul\":1721:1795   */\n          swap2\n          pop\n            /* \"#utility.yul\":1804:1897   */\n          tag_61\n            /* \"#utility.yul\":1893:1896   */\n          dup3\n            /* \"#utility.yul\":1804:1897   */\n          tag_35\n          jump\t// in\n        tag_61:\n            /* \"#utility.yul\":1922:1924   */\n          0x20\n            /* \"#utility.yul\":1917:1920   */\n          dup3\n            /* \"#utility.yul\":1913:1925   */\n          add\n            /* \"#utility.yul\":1906:1925   */\n          swap1\n          pop\n            /* \"#utility.yul\":1565:1931   */\n          swap2\n          swap1\n          pop\n          jump\t// out\n            /* \"#utility.yul\":1937:2356   */\n        tag_14:\n            /* \"#utility.yul\":2103:2107   */\n          0x00\n            /* \"#utility.yul\":2141:2143   */\n          0x20\n            /* \"#utility.yul\":2130:2139   */\n          dup3\n            /* \"#utility.yul\":2126:2144   */\n          add\n            /* \"#utility.yul\":2118:2144   */\n          swap1\n          pop\n            /* \"#utility.yul\":2190:2199   */\n          dup2\n            /* \"#utility.yul\":2184:2188   */\n          dup2\n            /* \"#utility.yul\":2180:2200   */\n          sub\n            /* \"#utility.yul\":2176:2177   */\n          0x00\n            /* \"#utility.yul\":2165:2174   */\n          dup4\n            /* \"#utility.yul\":2161:2178   */\n          add\n            /* \"#utility.yul\":2154:2201   */\n          mstore\n            /* \"#utility.yul\":2218:2349   */\n          tag_63\n            /* \"#utility.yul\":2344:2348   */\n          dup2\n            /* \"#utility.yul\":2218:2349   */\n          tag_36\n          jump\t// in\n        tag_63:\n            /* \"#utility.yul\":2210:2349   */\n          swap1\n          pop\n            /* \"#utility.yul\":1937:2356   */\n          swap2\n          swap1\n          pop\n          jump\t// out\n            /* \"#utility.yul\":2362:2540   */\n        tag_37:\n            /* \"#utility.yul\":2502:2532   */\n          0x4469726563746f7279206d757374206265206120636f6e747261637400000000\n            /* \"#utility.yul\":2498:2499   */\n          0x00\n            /* \"#utility.yul\":2490:2496   */\n          dup3\n            /* \"#utility.yul\":2486:2500   */\n          add\n            /* \"#utility.yul\":2479:2533   */\n          mstore\n            /* \"#utility.yul\":2362:2540   */\n          pop\n          jump\t// out\n            /* \"#utility.yul\":2546:2912   */\n        tag_38:\n            /* \"#utility.yul\":2688:2691   */\n          0x00\n            /* \"#utility.yul\":2709:2776   */\n          tag_66\n            /* \"#utility.yul\":2773:2775   */\n          0x1c\n            /* \"#utility.yul\":2768:2771   */\n          dup4\n            /* \"#utility.yul\":2709:2776   */\n          tag_34\n          jump\t// in\n        tag_66:\n            /* \"#utility.yul\":2702:2776   */\n          swap2\n          pop\n            /* \"#utility.yul\":2785:2878   */\n          tag_67\n            /* \"#utility.yul\":2874:2877   */\n          dup3\n            /* \"#utility.yul\":2785:2878   */\n          tag_37\n          jump\t// in\n        tag_67:\n            /* \"#utility.yul\":2903:2905   */\n          0x20\n            /* \"#utility.yul\":2898:2901   */\n          dup3\n            /* \"#utility.yul\":2894:2906   */\n          add\n            /* \"#utility.yul\":2887:2906   */\n          swap1\n          pop\n            /* \"#utility.yul\":2546:2912   */\n          swap2\n          swap1\n          pop\n          jump\t// out\n            /* \"#utility.yul\":2918:3337   */\n        tag_17:\n            /* \"#utility.yul\":3084:3088   */\n          0x00\n            /* \"#utility.yul\":3122:3124   */\n          0x20\n            /* \"#utility.yul\":3111:3120   */\n          dup3\n            /* \"#utility.yul\":3107:3125   */\n          add\n            /* \"#utility.yul\":3099:3125   */\n          swap1\n          pop\n            /* \"#utility.yul\":3171:3180   */\n          dup2\n            /* \"#utility.yul\":3165:3169   */\n          dup2\n            /* \"#utility.yul\":3161:3181   */\n          sub\n            /* \"#utility.yul\":3157:3158   */\n          0x00\n            /* \"#utility.yul\":3146:3155   */\n          dup4\n            /* \"#utility.yul\":3142:3159   */\n          add\n            /* \"#utility.yul\":3135:3182   */\n          mstore\n            /* \"#utility.yul\":3199:3330   */\n          tag_69\n            /* \"#utility.yul\":3325:3329   */\n          dup2\n            /* \"#utility.yul\":3199:3330   */\n          tag_38\n          jump\t// in\n        tag_69:\n            /* \"#utility.yul\":3191:3330   */\n          swap1\n          pop\n            /* \"#utility.yul\":2918:3337   */\n          swap2\n          swap1\n          pop\n          jump\t// out\n            /* \"#utility.yul\":3343:3574   */\n        tag_39:\n            /* \"#utility.yul\":3483:3517   */\n          0x4469726563746f7279206164647265737320646f6573206e6f7420696d706c65\n            /* \"#utility.yul\":3479:3480   */\n          0x00\n            /* \"#utility.yul\":3471:3477   */\n          dup3\n            /* \"#utility.yul\":3467:3481   */\n          add\n            /* \"#utility.yul\":3460:3518   */\n          mstore\n            /* \"#utility.yul\":3552:3566   */\n          0x6d656e74206f776e657228290000000000000000000000000000000000000000\n            /* \"#utility.yul\":3547:3549   */\n          0x20\n            /* \"#utility.yul\":3539:3545   */\n          dup3\n            /* \"#utility.yul\":3535:3550   */\n          add\n            /* \"#utility.yul\":3528:3567   */\n          mstore\n            /* \"#utility.yul\":3343:3574   */\n          pop\n          jump\t// out\n            /* \"#utility.yul\":3580:3946   */\n        tag_40:\n            /* \"#utility.yul\":3722:3725   */\n          0x00\n            /* \"#utility.yul\":3743:3810   */\n          tag_72\n            /* \"#utility.yul\":3807:3809   */\n          0x2c\n            /* \"#utility.yul\":3802:3805   */\n          dup4\n            /* \"#utility.yul\":3743:3810   */\n          tag_34\n          jump\t// in\n        tag_72:\n            /* \"#utility.yul\":3736:3810   */\n          swap2\n          pop\n            /* \"#utility.yul\":3819:3912   */\n          tag_73\n            /* \"#utility.yul\":3908:3911   */\n          dup3\n            /* \"#utility.yul\":3819:3912   */\n          tag_39\n          jump\t// in\n        tag_73:\n            /* \"#utility.yul\":3937:3939   */\n          0x40\n            /* \"#utility.yul\":3932:3935   */\n          dup3\n            /* \"#utility.yul\":3928:3940   */\n          add\n            /* \"#utility.yul\":3921:3940   */\n          swap1\n          pop\n            /* \"#utility.yul\":3580:3946   */\n          swap2\n          swap1\n          pop\n          jump\t// out\n            /* \"#utility.yul\":3952:4371   */\n        tag_25:\n            /* \"#utility.yul\":4118:4122   */\n          0x00\n            /* \"#utility.yul\":4156:4158   */\n          0x20\n            /* \"#utility.yul\":4145:4154   */\n          dup3\n            /* \"#utility.yul\":4141:4159   */\n          add\n            /* \"#utility.yul\":4133:4159   */\n          swap1\n          pop\n            /* \"#utility.yul\":4205:4214   */\n          dup2\n            /* \"#utility.yul\":4199:4203   */\n          dup2\n            /* \"#utility.yul\":4195:4215   */\n          sub\n            /* \"#utility.yul\":4191:4192   */\n          0x00\n            /* \"#utility.yul\":4180:4189   */\n          dup4\n            /* \"#utility.yul\":4176:4193   */\n          add\n            /* \"#utility.yul\":4169:4216   */\n          mstore\n            /* \"#utility.yul\":4233:4364   */\n          tag_75\n            /* \"#utility.yul\":4359:4363   */\n          dup2\n            /* \"#utility.yul\":4233:4364   */\n          tag_40\n          jump\t// in\n        tag_75:\n            /* \"#utility.yul\":4225:4364   */\n          swap1\n          pop\n            /* \"#utility.yul\":3952:4371   */\n          swap2\n          swap1\n          pop\n          jump\t// out\n            /* \"hopium/etf/main/etf-vault-deployer.sol\":1983:2567  contract EtfVault is ImEtfRouter, TransferHelpers {... */\n        tag_10:\n          dataSize(sub_0)\n          dup1\n          dataOffset(sub_0)\n          0x00\n          codecopy\n          0x00\n          return\n        stop\n\n        sub_0: assembly {\n                /* \"hopium/etf/main/etf-vault-deployer.sol\":1983:2567  contract EtfVault is ImEtfRouter, TransferHelpers {... */\n              mstore(0x40, 0x80)\n              callvalue\n              dup1\n              iszero\n              tag_1\n              jumpi\n              revert(0x00, 0x00)\n            tag_1:\n              pop\n              jumpi(tag_2, lt(calldatasize, 0x04))\n              shr(0xe0, calldataload(0x00))\n              dup1\n              0x27262618\n              eq\n              tag_3\n              jumpi\n              dup1\n              0x5c833bfd\n              eq\n              tag_4\n              jumpi\n              dup1\n              0x658a847a\n              eq\n              tag_5\n              jumpi\n              dup1\n              0x8da5cb5b\n              eq\n              tag_6\n              jumpi\n              dup1\n              0xba4c7be1\n              eq\n              tag_7\n              jumpi\n              dup1\n              0xf940e385\n              eq\n              tag_8\n              jumpi\n            tag_2:\n              revert(0x00, 0x00)\n                /* \"hopium/common/interface/imDirectory.sol\":1272:1408  function fetchFromDirectory(string memory _key) public view returns (address) {... */\n            tag_3:\n              tag_9\n              0x04\n              dup1\n              calldatasize\n              sub\n              dup2\n              add\n              swap1\n              tag_10\n              swap2\n              swap1\n              tag_11\n              jump\t// in\n            tag_10:\n              tag_12\n              jump\t// in\n            tag_9:\n              mload(0x40)\n              tag_13\n              swap2\n              swap1\n              tag_14\n              jump\t// in\n            tag_13:\n              mload(0x40)\n              dup1\n              swap2\n              sub\n              swap1\n              return\n                /* \"hopium/etf/main/etf-vault-deployer.sol\":2104:2256  function redeem(address tokenAddress, uint256 amount, address receiver) public onlyEtfRouter {... */\n            tag_4:\n              tag_15\n              0x04\n              dup1\n              calldatasize\n              sub\n              dup2\n              add\n              swap1\n              tag_16\n              swap2\n              swap1\n              tag_17\n              jump\t// in\n            tag_16:\n              tag_18\n              jump\t// in\n            tag_15:\n              stop\n                /* \"hopium/common/interface/imDirectory.sol\":336:363  IDirectory public Directory */\n            tag_5:\n              tag_19\n              tag_20\n              jump\t// in\n            tag_19:\n              mload(0x40)\n              tag_21\n              swap2\n              swap1\n              tag_22\n              jump\t// in\n            tag_21:\n              mload(0x40)\n              dup1\n              swap2\n              sub\n              swap1\n              return\n                /* \"hopium/common/interface/imDirectory.sol\":1178:1266  function owner() public view returns (address) {... */\n            tag_6:\n              tag_23\n              tag_24\n              jump\t// in\n            tag_23:\n              mload(0x40)\n              tag_25\n              swap2\n              swap1\n              tag_14\n              jump\t// in\n            tag_25:\n              mload(0x40)\n              dup1\n              swap2\n              sub\n              swap1\n              return\n                /* \"hopium/common/interface/imDirectory.sol\":470:583  function changeDirectoryAddress(address _directory) external onlyOwner {... */\n            tag_7:\n              tag_26\n              0x04\n              dup1\n              calldatasize\n              sub\n              dup2\n              add\n              swap1\n              tag_27\n              swap2\n              swap1\n              tag_28\n              jump\t// in\n            tag_27:\n              tag_29\n              jump\t// in\n            tag_26:\n              stop\n                /* \"hopium/etf/main/etf-vault-deployer.sol\":2262:2565  function withdraw(address tokenAddress, address toAddress) public onlyOwner {... */\n            tag_8:\n              tag_30\n              0x04\n              dup1\n              calldatasize\n              sub\n              dup2\n              add\n              swap1\n              tag_31\n              swap2\n              swap1\n              tag_32\n              jump\t// in\n            tag_31:\n              tag_33\n              jump\t// in\n            tag_30:\n              stop\n                /* \"hopium/common/interface/imDirectory.sol\":1272:1408  function fetchFromDirectory(string memory _key) public view returns (address) {... */\n            tag_12:\n                /* \"hopium/common/interface/imDirectory.sol\":1341:1348  address */\n              0x00\n                /* \"hopium/common/interface/imDirectory.sol\":1367:1376  Directory */\n              0x00\n              0x00\n              swap1\n              sload\n              swap1\n              0x0100\n              exp\n              swap1\n              div\n              0xffffffffffffffffffffffffffffffffffffffff\n              and\n                /* \"hopium/common/interface/imDirectory.sol\":1367:1395  Directory.fetchFromDirectory */\n              0xffffffffffffffffffffffffffffffffffffffff\n              and\n              0x27262618\n                /* \"hopium/common/interface/imDirectory.sol\":1396:1400  _key */\n              dup4\n                /* \"hopium/common/interface/imDirectory.sol\":1367:1401  Directory.fetchFromDirectory(_key) */\n              mload(0x40)\n              dup3\n              0xffffffff\n              and\n              0xe0\n              shl\n              dup2\n              mstore\n              0x04\n              add\n              tag_35\n              swap2\n              swap1\n              tag_36\n              jump\t// in\n            tag_35:\n              0x20\n              mload(0x40)\n              dup1\n              dup4\n              sub\n              dup2\n              dup7\n              gas\n              staticcall\n              iszero\n              dup1\n              iszero\n              tag_38\n              jumpi\n              returndatacopy(0x00, 0x00, returndatasize)\n              revert(0x00, returndatasize)\n            tag_38:\n              pop\n              pop\n              pop\n              pop\n              mload(0x40)\n              returndatasize\n              not(0x1f)\n              0x1f\n              dup3\n              add\n              and\n              dup3\n              add\n              dup1\n              0x40\n              mstore\n              pop\n              dup2\n              add\n              swap1\n              tag_39\n              swap2\n              swap1\n              tag_40\n              jump\t// in\n            tag_39:\n                /* \"hopium/common/interface/imDirectory.sol\":1360:1401  return Directory.fetchFromDirectory(_key) */\n              swap1\n              pop\n                /* \"hopium/common/interface/imDirectory.sol\":1272:1408  function fetchFromDirectory(string memory _key) public view returns (address) {... */\n              swap2\n              swap1\n              pop\n              jump\t// out\n                /* \"hopium/etf/main/etf-vault-deployer.sol\":2104:2256  function redeem(address tokenAddress, uint256 amount, address receiver) public onlyEtfRouter {... */\n            tag_18:\n                /* \"hopium/etf/interface/imEtfRouter.sol\":389:421  fetchFromDirectory(\"etf-router\") */\n              tag_42\n              mload(0x40)\n              dup1\n              0x40\n              add\n              0x40\n              mstore\n              dup1\n              0x0a\n              dup2\n              mstore\n              0x20\n              add\n              0x6574662d726f7574657200000000000000000000000000000000000000000000\n              dup2\n              mstore\n              pop\n                /* \"hopium/etf/interface/imEtfRouter.sol\":389:407  fetchFromDirectory */\n              tag_12\n                /* \"hopium/etf/interface/imEtfRouter.sol\":389:421  fetchFromDirectory(\"etf-router\") */\n              jump\t// in\n            tag_42:\n                /* \"hopium/etf/interface/imEtfRouter.sol\":375:421  msg.sender == fetchFromDirectory(\"etf-router\") */\n              0xffffffffffffffffffffffffffffffffffffffff\n              and\n                /* \"hopium/etf/interface/imEtfRouter.sol\":375:385  msg.sender */\n              caller\n                /* \"hopium/etf/interface/imEtfRouter.sol\":375:421  msg.sender == fetchFromDirectory(\"etf-router\") */\n              0xffffffffffffffffffffffffffffffffffffffff\n              and\n              eq\n                /* \"hopium/etf/interface/imEtfRouter.sol\":367:454  require(msg.sender == fetchFromDirectory(\"etf-router\"), \"msg.sender is not etf router\") */\n              tag_43\n              jumpi\n              mload(0x40)\n              0x08c379a000000000000000000000000000000000000000000000000000000000\n              dup2\n              mstore\n              0x04\n              add\n              tag_44\n              swap1\n              tag_45\n              jump\t// in\n            tag_44:\n              mload(0x40)\n              dup1\n              swap2\n              sub\n              swap1\n              revert\n            tag_43:\n                /* \"hopium/etf/main/etf-vault-deployer.sol\":2207:2249  _sendToken(tokenAddress, receiver, amount) */\n              tag_47\n                /* \"hopium/etf/main/etf-vault-deployer.sol\":2218:2230  tokenAddress */\n              dup4\n                /* \"hopium/etf/main/etf-vault-deployer.sol\":2232:2240  receiver */\n              dup3\n                /* \"hopium/etf/main/etf-vault-deployer.sol\":2242:2248  amount */\n              dup5\n                /* \"hopium/etf/main/etf-vault-deployer.sol\":2207:2217  _sendToken */\n              tag_48\n                /* \"hopium/etf/main/etf-vault-deployer.sol\":2207:2249  _sendToken(tokenAddress, receiver, amount) */\n              jump\t// in\n            tag_47:\n                /* \"hopium/etf/main/etf-vault-deployer.sol\":2104:2256  function redeem(address tokenAddress, uint256 amount, address receiver) public onlyEtfRouter {... */\n              pop\n              pop\n              pop\n              jump\t// out\n                /* \"hopium/common/interface/imDirectory.sol\":336:363  IDirectory public Directory */\n            tag_20:\n              0x00\n              0x00\n              swap1\n              sload\n              swap1\n              0x0100\n              exp\n              swap1\n              div\n              0xffffffffffffffffffffffffffffffffffffffff\n              and\n              dup2\n              jump\t// out\n                /* \"hopium/common/interface/imDirectory.sol\":1178:1266  function owner() public view returns (address) {... */\n            tag_24:\n                /* \"hopium/common/interface/imDirectory.sol\":1216:1223  address */\n              0x00\n                /* \"hopium/common/interface/imDirectory.sol\":1242:1251  Directory */\n              0x00\n              0x00\n              swap1\n              sload\n              swap1\n              0x0100\n              exp\n              swap1\n              div\n              0xffffffffffffffffffffffffffffffffffffffff\n              and\n                /* \"hopium/common/interface/imDirectory.sol\":1242:1257  Directory.owner */\n              0xffffffffffffffffffffffffffffffffffffffff\n              and\n              0x8da5cb5b\n                /* \"hopium/common/interface/imDirectory.sol\":1242:1259  Directory.owner() */\n              mload(0x40)\n              dup2\n              0xffffffff\n              and\n              0xe0\n              shl\n              dup2\n              mstore\n              0x04\n              add\n              0x20\n              mload(0x40)\n              dup1\n              dup4\n              sub\n              dup2\n              dup7\n              gas\n              staticcall\n              iszero\n              dup1\n              iszero\n              tag_51\n              jumpi\n              returndatacopy(0x00, 0x00, returndatasize)\n              revert(0x00, returndatasize)\n            tag_51:\n              pop\n              pop\n              pop\n              pop\n              mload(0x40)\n              returndatasize\n              not(0x1f)\n              0x1f\n              dup3\n              add\n              and\n              dup3\n              add\n              dup1\n              0x40\n              mstore\n              pop\n              dup2\n              add\n              swap1\n              tag_52\n              swap2\n              swap1\n              tag_40\n              jump\t// in\n            tag_52:\n                /* \"hopium/common/interface/imDirectory.sol\":1235:1259  return Directory.owner() */\n              swap1\n              pop\n                /* \"hopium/common/interface/imDirectory.sol\":1178:1266  function owner() public view returns (address) {... */\n              swap1\n              jump\t// out\n                /* \"hopium/common/interface/imDirectory.sol\":470:583  function changeDirectoryAddress(address _directory) external onlyOwner {... */\n            tag_29:\n                /* \"hopium/common/interface/imDirectory.sol\":1109:1118  Directory */\n              0x00\n              0x00\n              swap1\n              sload\n              swap1\n              0x0100\n              exp\n              swap1\n              div\n              0xffffffffffffffffffffffffffffffffffffffff\n              and\n                /* \"hopium/common/interface/imDirectory.sol\":1109:1124  Directory.owner */\n              0xffffffffffffffffffffffffffffffffffffffff\n              and\n              0x8da5cb5b\n                /* \"hopium/common/interface/imDirectory.sol\":1109:1126  Directory.owner() */\n              mload(0x40)\n              dup2\n              0xffffffff\n              and\n              0xe0\n              shl\n              dup2\n              mstore\n              0x04\n              add\n              0x20\n              mload(0x40)\n              dup1\n              dup4\n              sub\n              dup2\n              dup7\n              gas\n              staticcall\n              iszero\n              dup1\n              iszero\n              tag_55\n              jumpi\n              returndatacopy(0x00, 0x00, returndatasize)\n              revert(0x00, returndatasize)\n            tag_55:\n              pop\n              pop\n              pop\n              pop\n              mload(0x40)\n              returndatasize\n              not(0x1f)\n              0x1f\n              dup3\n              add\n              and\n              dup3\n              add\n              dup1\n              0x40\n              mstore\n              pop\n              dup2\n              add\n              swap1\n              tag_56\n              swap2\n              swap1\n              tag_40\n              jump\t// in\n            tag_56:\n                /* \"hopium/common/interface/imDirectory.sol\":1095:1126  msg.sender == Directory.owner() */\n              0xffffffffffffffffffffffffffffffffffffffff\n              and\n                /* \"hopium/common/interface/imDirectory.sol\":1095:1105  msg.sender */\n              caller\n                /* \"hopium/common/interface/imDirectory.sol\":1095:1126  msg.sender == Directory.owner() */\n              0xffffffffffffffffffffffffffffffffffffffff\n              and\n              eq\n                /* \"hopium/common/interface/imDirectory.sol\":1087:1154  require(msg.sender == Directory.owner(), \"Caller is not the owner\") */\n              tag_57\n              jumpi\n              mload(0x40)\n              0x08c379a000000000000000000000000000000000000000000000000000000000\n              dup2\n              mstore\n              0x04\n              add\n              tag_58\n              swap1\n              tag_59\n              jump\t// in\n            tag_58:\n              mload(0x40)\n              dup1\n              swap2\n              sub\n              swap1\n              revert\n            tag_57:\n                /* \"hopium/common/interface/imDirectory.sol\":551:576  _setDirectory(_directory) */\n              tag_61\n                /* \"hopium/common/interface/imDirectory.sol\":565:575  _directory */\n              dup2\n                /* \"hopium/common/interface/imDirectory.sol\":551:564  _setDirectory */\n              tag_62\n                /* \"hopium/common/interface/imDirectory.sol\":551:576  _setDirectory(_directory) */\n              jump\t// in\n            tag_61:\n                /* \"hopium/common/interface/imDirectory.sol\":470:583  function changeDirectoryAddress(address _directory) external onlyOwner {... */\n              pop\n              jump\t// out\n                /* \"hopium/etf/main/etf-vault-deployer.sol\":2262:2565  function withdraw(address tokenAddress, address toAddress) public onlyOwner {... */\n            tag_33:\n                /* \"hopium/common/interface/imDirectory.sol\":1109:1118  Directory */\n              0x00\n              0x00\n              swap1\n              sload\n              swap1\n              0x0100\n              exp\n              swap1\n              div\n              0xffffffffffffffffffffffffffffffffffffffff\n              and\n                /* \"hopium/common/interface/imDirectory.sol\":1109:1124  Directory.owner */\n              0xffffffffffffffffffffffffffffffffffffffff\n              and\n              0x8da5cb5b\n                /* \"hopium/common/interface/imDirectory.sol\":1109:1126  Directory.owner() */\n              mload(0x40)\n              dup2\n              0xffffffff\n              and\n              0xe0\n              shl\n              dup2\n              mstore\n              0x04\n              add\n              0x20\n              mload(0x40)\n              dup1\n              dup4\n              sub\n              dup2\n              dup7\n              gas\n              staticcall\n              iszero\n              dup1\n              iszero\n              tag_65\n              jumpi\n              returndatacopy(0x00, 0x00, returndatasize)\n              revert(0x00, returndatasize)\n            tag_65:\n              pop\n              pop\n              pop\n              pop\n              mload(0x40)\n              returndatasize\n              not(0x1f)\n              0x1f\n              dup3\n              add\n              and\n              dup3\n              add\n              dup1\n              0x40\n              mstore\n              pop\n              dup2\n              add\n              swap1\n              tag_66\n              swap2\n              swap1\n              tag_40\n              jump\t// in\n            tag_66:\n                /* \"hopium/common/interface/imDirectory.sol\":1095:1126  msg.sender == Directory.owner() */\n              0xffffffffffffffffffffffffffffffffffffffff\n              and\n                /* \"hopium/common/interface/imDirectory.sol\":1095:1105  msg.sender */\n              caller\n                /* \"hopium/common/interface/imDirectory.sol\":1095:1126  msg.sender == Directory.owner() */\n              0xffffffffffffffffffffffffffffffffffffffff\n              and\n              eq\n                /* \"hopium/common/interface/imDirectory.sol\":1087:1154  require(msg.sender == Directory.owner(), \"Caller is not the owner\") */\n              tag_67\n              jumpi\n              mload(0x40)\n              0x08c379a000000000000000000000000000000000000000000000000000000000\n              dup2\n              mstore\n              0x04\n              add\n              tag_68\n              swap1\n              tag_59\n              jump\t// in\n            tag_68:\n              mload(0x40)\n              dup1\n              swap2\n              sub\n              swap1\n              revert\n            tag_67:\n                /* \"hopium/etf/main/etf-vault-deployer.sol\":2375:2376  0 */\n              0x00\n                /* \"hopium/etf/main/etf-vault-deployer.sol\":2351:2377  tokenAddress == address(0) */\n              0xffffffffffffffffffffffffffffffffffffffff\n              and\n                /* \"hopium/etf/main/etf-vault-deployer.sol\":2351:2363  tokenAddress */\n              dup3\n                /* \"hopium/etf/main/etf-vault-deployer.sol\":2351:2377  tokenAddress == address(0) */\n              0xffffffffffffffffffffffffffffffffffffffff\n              and\n              sub\n                /* \"hopium/etf/main/etf-vault-deployer.sol\":2348:2559  if(tokenAddress == address(0)) {... */\n              tag_70\n              jumpi\n                /* \"hopium/etf/main/etf-vault-deployer.sol\":2393:2435  _sendEth(toAddress, address(this).balance) */\n              tag_71\n                /* \"hopium/etf/main/etf-vault-deployer.sol\":2402:2411  toAddress */\n              dup2\n                /* \"hopium/etf/main/etf-vault-deployer.sol\":2413:2434  address(this).balance */\n              selfbalance\n                /* \"hopium/etf/main/etf-vault-deployer.sol\":2393:2401  _sendEth */\n              tag_72\n                /* \"hopium/etf/main/etf-vault-deployer.sol\":2393:2435  _sendEth(toAddress, address(this).balance) */\n              jump\t// in\n            tag_71:\n                /* \"hopium/etf/main/etf-vault-deployer.sol\":2348:2559  if(tokenAddress == address(0)) {... */\n              jump(tag_73)\n            tag_70:\n                /* \"hopium/etf/main/etf-vault-deployer.sol\":2466:2548  _sendToken(tokenAddress, toAddress, IERC20(tokenAddress).balanceOf(address(this))) */\n              tag_74\n                /* \"hopium/etf/main/etf-vault-deployer.sol\":2477:2489  tokenAddress */\n              dup3\n                /* \"hopium/etf/main/etf-vault-deployer.sol\":2491:2500  toAddress */\n              dup3\n                /* \"hopium/etf/main/etf-vault-deployer.sol\":2509:2521  tokenAddress */\n              dup5\n                /* \"hopium/etf/main/etf-vault-deployer.sol\":2502:2532  IERC20(tokenAddress).balanceOf */\n              0xffffffffffffffffffffffffffffffffffffffff\n              and\n              0x70a08231\n                /* \"hopium/etf/main/etf-vault-deployer.sol\":2541:2545  this */\n              address\n                /* \"hopium/etf/main/etf-vault-deployer.sol\":2502:2547  IERC20(tokenAddress).balanceOf(address(this)) */\n              mload(0x40)\n              dup3\n              0xffffffff\n              and\n              0xe0\n              shl\n              dup2\n              mstore\n              0x04\n              add\n              tag_75\n              swap2\n              swap1\n              tag_14\n              jump\t// in\n            tag_75:\n              0x20\n              mload(0x40)\n              dup1\n              dup4\n              sub\n              dup2\n              dup7\n              gas\n              staticcall\n              iszero\n              dup1\n              iszero\n              tag_77\n              jumpi\n              returndatacopy(0x00, 0x00, returndatasize)\n              revert(0x00, returndatasize)\n            tag_77:\n              pop\n              pop\n              pop\n              pop\n              mload(0x40)\n              returndatasize\n              not(0x1f)\n              0x1f\n              dup3\n              add\n              and\n              dup3\n              add\n              dup1\n              0x40\n              mstore\n              pop\n              dup2\n              add\n              swap1\n              tag_78\n              swap2\n              swap1\n              tag_79\n              jump\t// in\n            tag_78:\n                /* \"hopium/etf/main/etf-vault-deployer.sol\":2466:2476  _sendToken */\n              tag_48\n                /* \"hopium/etf/main/etf-vault-deployer.sol\":2466:2548  _sendToken(tokenAddress, toAddress, IERC20(tokenAddress).balanceOf(address(this))) */\n              jump\t// in\n            tag_74:\n                /* \"hopium/etf/main/etf-vault-deployer.sol\":2348:2559  if(tokenAddress == address(0)) {... */\n            tag_73:\n                /* \"hopium/etf/main/etf-vault-deployer.sol\":2262:2565  function withdraw(address tokenAddress, address toAddress) public onlyOwner {... */\n              pop\n              pop\n              jump\t// out\n                /* \"hopium/etf/main/etf-vault-deployer.sol\":1707:1948  function _sendToken(address tokenAddress, address toAddress, uint256 amount) internal {... */\n            tag_48:\n                /* \"hopium/etf/main/etf-vault-deployer.sol\":1803:1815  IERC20 token */\n              0x00\n                /* \"hopium/etf/main/etf-vault-deployer.sol\":1825:1837  tokenAddress */\n              dup4\n                /* \"hopium/etf/main/etf-vault-deployer.sol\":1803:1838  IERC20 token = IERC20(tokenAddress) */\n              swap1\n              pop\n                /* \"hopium/etf/main/etf-vault-deployer.sol\":1865:1866  0 */\n              0x00\n                /* \"hopium/etf/main/etf-vault-deployer.sol\":1856:1862  amount */\n              dup3\n                /* \"hopium/etf/main/etf-vault-deployer.sol\":1856:1866  amount > 0 */\n              gt\n                /* \"hopium/etf/main/etf-vault-deployer.sol\":1848:1893  require(amount > 0, \"sendToken: zero amount\") */\n              tag_81\n              jumpi\n              mload(0x40)\n              0x08c379a000000000000000000000000000000000000000000000000000000000\n              dup2\n              mstore\n              0x04\n              add\n              tag_82\n              swap1\n              tag_83\n              jump\t// in\n            tag_82:\n              mload(0x40)\n              dup1\n              swap2\n              sub\n              swap1\n              revert\n            tag_81:\n                /* \"hopium/etf/main/etf-vault-deployer.sol\":1904:1941  token.safeTransfer(toAddress, amount) */\n              tag_84\n                /* \"hopium/etf/main/etf-vault-deployer.sol\":1923:1932  toAddress */\n              dup4\n                /* \"hopium/etf/main/etf-vault-deployer.sol\":1934:1940  amount */\n              dup4\n                /* \"hopium/etf/main/etf-vault-deployer.sol\":1904:1909  token */\n              dup4\n                /* \"hopium/etf/main/etf-vault-deployer.sol\":1904:1922  token.safeTransfer */\n              0xffffffffffffffffffffffffffffffffffffffff\n              and\n              tag_85\n              swap1\n                /* \"hopium/etf/main/etf-vault-deployer.sol\":1904:1941  token.safeTransfer(toAddress, amount) */\n              swap3\n              swap2\n              swap1\n              0xffffffff\n              and\n              jump\t// in\n            tag_84:\n                /* \"hopium/etf/main/etf-vault-deployer.sol\":1793:1948  {... */\n              pop\n                /* \"hopium/etf/main/etf-vault-deployer.sol\":1707:1948  function _sendToken(address tokenAddress, address toAddress, uint256 amount) internal {... */\n              pop\n              pop\n              pop\n              jump\t// out\n                /* \"hopium/common/interface/imDirectory.sol\":589:1050  function _setDirectory(address _directory) internal {... */\n            tag_62:\n                /* \"hopium/common/interface/imDirectory.sol\":681:682  0 */\n              0x00\n                /* \"hopium/common/interface/imDirectory.sol\":659:683  _directory != address(0) */\n              0xffffffffffffffffffffffffffffffffffffffff\n              and\n                /* \"hopium/common/interface/imDirectory.sol\":659:669  _directory */\n              dup2\n                /* \"hopium/common/interface/imDirectory.sol\":659:683  _directory != address(0) */\n              0xffffffffffffffffffffffffffffffffffffffff\n              and\n              sub\n                /* \"hopium/common/interface/imDirectory.sol\":651:720  require(_directory != address(0), \"Directory cannot be zero address\") */\n              tag_87\n              jumpi\n              mload(0x40)\n              0x08c379a000000000000000000000000000000000000000000000000000000000\n              dup2\n              mstore\n              0x04\n              add\n              tag_88\n              swap1\n              tag_89\n              jump\t// in\n            tag_88:\n              mload(0x40)\n              dup1\n              swap2\n              sub\n              swap1\n              revert\n            tag_87:\n                /* \"hopium/common/interface/imDirectory.sol\":763:764  0 */\n              0x00\n                /* \"hopium/common/interface/imDirectory.sol\":738:748  _directory */\n              dup2\n                /* \"hopium/common/interface/imDirectory.sol\":738:760  _directory.code.length */\n              0xffffffffffffffffffffffffffffffffffffffff\n              and\n              extcodesize\n                /* \"hopium/common/interface/imDirectory.sol\":738:764  _directory.code.length > 0 */\n              gt\n                /* \"hopium/common/interface/imDirectory.sol\":730:797  require(_directory.code.length > 0, \"Directory must be a contract\") */\n              tag_90\n              jumpi\n              mload(0x40)\n              0x08c379a000000000000000000000000000000000000000000000000000000000\n              dup2\n              mstore\n              0x04\n              add\n              tag_91\n              swap1\n              tag_92\n              jump\t// in\n            tag_91:\n              mload(0x40)\n              dup1\n              swap2\n              sub\n              swap1\n              revert\n            tag_90:\n                /* \"hopium/common/interface/imDirectory.sol\":861:871  _directory */\n              dup1\n                /* \"hopium/common/interface/imDirectory.sol\":850:878  IDirectory(_directory).owner */\n              0xffffffffffffffffffffffffffffffffffffffff\n              and\n              0x8da5cb5b\n                /* \"hopium/common/interface/imDirectory.sol\":850:880  IDirectory(_directory).owner() */\n              mload(0x40)\n              dup2\n              0xffffffff\n              and\n              0xe0\n              shl\n              dup2\n              mstore\n              0x04\n              add\n              0x20\n              mload(0x40)\n              dup1\n              dup4\n              sub\n              dup2\n              dup7\n              gas\n              staticcall\n              swap3\n              pop\n              pop\n              pop\n              dup1\n              iszero\n              tag_93\n              jumpi\n              pop\n              mload(0x40)\n              returndatasize\n              not(0x1f)\n              0x1f\n              dup3\n              add\n              and\n              dup3\n              add\n              dup1\n              0x40\n              mstore\n              pop\n              dup2\n              add\n              swap1\n              tag_94\n              swap2\n              swap1\n              tag_40\n              jump\t// in\n            tag_94:\n              0x01\n            tag_93:\n                /* \"hopium/common/interface/imDirectory.sol\":846:1044  try IDirectory(_directory).owner() returns (address) {... */\n              tag_95\n              jumpi\n                /* \"hopium/common/interface/imDirectory.sol\":979:1033  revert(\"Directory address does not implement owner()\") */\n              mload(0x40)\n              0x08c379a000000000000000000000000000000000000000000000000000000000\n              dup2\n              mstore\n              0x04\n              add\n              tag_99\n              swap1\n              tag_100\n              jump\t// in\n            tag_99:\n              mload(0x40)\n              dup1\n              swap2\n              sub\n              swap1\n              revert\n                /* \"hopium/common/interface/imDirectory.sol\":846:1044  try IDirectory(_directory).owner() returns (address) {... */\n            tag_95:\n                /* \"hopium/common/interface/imDirectory.sol\":936:946  _directory */\n              dup2\n                /* \"hopium/common/interface/imDirectory.sol\":913:922  Directory */\n              0x00\n              0x00\n                /* \"hopium/common/interface/imDirectory.sol\":913:947  Directory = IDirectory(_directory) */\n              0x0100\n              exp\n              dup2\n              sload\n              dup2\n              0xffffffffffffffffffffffffffffffffffffffff\n              mul\n              not\n              and\n              swap1\n              dup4\n              0xffffffffffffffffffffffffffffffffffffffff\n              and\n              mul\n              or\n              swap1\n              sstore\n              pop\n                /* \"hopium/common/interface/imDirectory.sol\":881:958  returns (address) {... */\n              pop\n                /* \"hopium/common/interface/imDirectory.sol\":589:1050  function _setDirectory(address _directory) internal {... */\n              pop\n              jump\t// out\n                /* \"hopium/etf/main/etf-vault-deployer.sol\":1407:1701  function _sendEth(address to, uint256 amount) internal {... */\n            tag_72:\n                /* \"hopium/etf/main/etf-vault-deployer.sol\":1489:1490  0 */\n              0x00\n                /* \"hopium/etf/main/etf-vault-deployer.sol\":1480:1486  amount */\n              dup2\n                /* \"hopium/etf/main/etf-vault-deployer.sol\":1480:1490  amount > 0 */\n              gt\n                /* \"hopium/etf/main/etf-vault-deployer.sol\":1472:1515  require(amount > 0, \"sendEth: zero amount\") */\n              tag_103\n              jumpi\n              mload(0x40)\n              0x08c379a000000000000000000000000000000000000000000000000000000000\n              dup2\n              mstore\n              0x04\n              add\n              tag_104\n              swap1\n              tag_105\n              jump\t// in\n            tag_104:\n              mload(0x40)\n              dup1\n              swap2\n              sub\n              swap1\n              revert\n            tag_103:\n                /* \"hopium/etf/main/etf-vault-deployer.sol\":1558:1564  amount */\n              dup1\n                /* \"hopium/etf/main/etf-vault-deployer.sol\":1533:1554  address(this).balance */\n              selfbalance\n                /* \"hopium/etf/main/etf-vault-deployer.sol\":1533:1564  address(this).balance >= amount */\n              lt\n              iszero\n                /* \"hopium/etf/main/etf-vault-deployer.sol\":1525:1594  require(address(this).balance >= amount, \"sendEth: insufficient ETH\") */\n              tag_106\n              jumpi\n              mload(0x40)\n              0x08c379a000000000000000000000000000000000000000000000000000000000\n              dup2\n              mstore\n              0x04\n              add\n              tag_107\n              swap1\n              tag_108\n              jump\t// in\n            tag_107:\n              mload(0x40)\n              dup1\n              swap2\n              sub\n              swap1\n              revert\n            tag_106:\n                /* \"hopium/etf/main/etf-vault-deployer.sol\":1606:1613  bool ok */\n              0x00\n                /* \"hopium/etf/main/etf-vault-deployer.sol\":1627:1629  to */\n              dup3\n                /* \"hopium/etf/main/etf-vault-deployer.sol\":1619:1635  payable(to).call */\n              0xffffffffffffffffffffffffffffffffffffffff\n              and\n                /* \"hopium/etf/main/etf-vault-deployer.sol\":1643:1649  amount */\n              dup3\n                /* \"hopium/etf/main/etf-vault-deployer.sol\":1619:1654  payable(to).call{value: amount}(\"\") */\n              mload(0x40)\n              tag_109\n              swap1\n              tag_110\n              jump\t// in\n            tag_109:\n              0x00\n              mload(0x40)\n              dup1\n              dup4\n              sub\n              dup2\n              dup6\n              dup8\n              gas\n              call\n              swap3\n              pop\n              pop\n              pop\n              returndatasize\n              dup1\n              0x00\n              dup2\n              eq\n              tag_113\n              jumpi\n              mload(0x40)\n              swap2\n              pop\n              and(add(returndatasize, 0x3f), not(0x1f))\n              dup3\n              add\n              0x40\n              mstore\n              returndatasize\n              dup3\n              mstore\n              returndatasize\n              0x00\n              0x20\n              dup5\n              add\n              returndatacopy\n              jump(tag_112)\n            tag_113:\n              0x60\n              swap2\n              pop\n            tag_112:\n              pop\n                /* \"hopium/etf/main/etf-vault-deployer.sol\":1605:1654  (bool ok, ) = payable(to).call{value: amount}(\"\") */\n              pop\n              swap1\n              pop\n                /* \"hopium/etf/main/etf-vault-deployer.sol\":1672:1674  ok */\n              dup1\n                /* \"hopium/etf/main/etf-vault-deployer.sol\":1664:1694  require(ok, \"ETH send failed\") */\n              tag_114\n              jumpi\n              mload(0x40)\n              0x08c379a000000000000000000000000000000000000000000000000000000000\n              dup2\n              mstore\n              0x04\n              add\n              tag_115\n              swap1\n              tag_116\n              jump\t// in\n            tag_115:\n              mload(0x40)\n              dup1\n              swap2\n              sub\n              swap1\n              revert\n            tag_114:\n                /* \"hopium/etf/main/etf-vault-deployer.sol\":1462:1701  {... */\n              pop\n                /* \"hopium/etf/main/etf-vault-deployer.sol\":1407:1701  function _sendEth(address to, uint256 amount) internal {... */\n              pop\n              pop\n              jump\t// out\n                /* \"hopium/etf/main/etf-vault-deployer.sol\":453:613  function safeTransfer(IERC20 token, address to, uint256 value) internal {... */\n            tag_85:\n                /* \"hopium/etf/main/etf-vault-deployer.sol\":535:606  _callOptionalReturn(token, abi.encodeCall(token.transfer, (to, value))) */\n              tag_118\n                /* \"hopium/etf/main/etf-vault-deployer.sol\":555:560  token */\n              dup4\n                /* \"hopium/etf/main/etf-vault-deployer.sol\":577:582  token */\n              dup5\n                /* \"hopium/etf/main/etf-vault-deployer.sol\":577:591  token.transfer */\n              0xffffffffffffffffffffffffffffffffffffffff\n              and\n              0xa9059cbb\n                /* \"hopium/etf/main/etf-vault-deployer.sol\":594:596  to */\n              dup6\n                /* \"hopium/etf/main/etf-vault-deployer.sol\":598:603  value */\n              dup6\n                /* \"hopium/etf/main/etf-vault-deployer.sol\":562:605  abi.encodeCall(token.transfer, (to, value)) */\n              add(0x24, mload(0x40))\n              tag_119\n              swap3\n              swap2\n              swap1\n              tag_120\n              jump\t// in\n            tag_119:\n              mload(0x40)\n              0x20\n              dup2\n              dup4\n              sub\n              sub\n              dup2\n              mstore\n              swap1\n              0x40\n              mstore\n              swap2\n              pop\n              0xe0\n              shl\n              0x20\n              dup3\n              add\n              dup1\n              mload\n              0xffffffffffffffffffffffffffffffffffffffffffffffffffffffff\n              dup4\n              dup2\n              dup4\n              and\n              or\n              dup4\n              mstore\n              pop\n              pop\n              pop\n              pop\n                /* \"hopium/etf/main/etf-vault-deployer.sol\":535:554  _callOptionalReturn */\n              tag_121\n                /* \"hopium/etf/main/etf-vault-deployer.sol\":535:606  _callOptionalReturn(token, abi.encodeCall(token.transfer, (to, value))) */\n              jump\t// in\n            tag_118:\n                /* \"hopium/etf/main/etf-vault-deployer.sol\":453:613  function safeTransfer(IERC20 token, address to, uint256 value) internal {... */\n              pop\n              pop\n              pop\n              jump\t// out\n                /* \"hopium/etf/main/etf-vault-deployer.sol\":619:1339  function _callOptionalReturn(IERC20 token, bytes memory data) private {... */\n            tag_121:\n                /* \"hopium/etf/main/etf-vault-deployer.sol\":699:717  uint256 returnSize */\n              0x00\n                /* \"hopium/etf/main/etf-vault-deployer.sol\":727:746  uint256 returnValue */\n              0x00\n                /* \"hopium/etf/main/etf-vault-deployer.sol\":865:869  0x20 */\n              0x20\n                /* \"hopium/etf/main/etf-vault-deployer.sol\":862:863  0 */\n              0x00\n                /* \"hopium/etf/main/etf-vault-deployer.sol\":855:859  data */\n              dup5\n                /* \"hopium/etf/main/etf-vault-deployer.sol\":849:860  mload(data) */\n              mload\n                /* \"hopium/etf/main/etf-vault-deployer.sol\":842:846  0x20 */\n              0x20\n                /* \"hopium/etf/main/etf-vault-deployer.sol\":836:840  data */\n              dup7\n                /* \"hopium/etf/main/etf-vault-deployer.sol\":832:847  add(data, 0x20) */\n              add\n                /* \"hopium/etf/main/etf-vault-deployer.sol\":829:830  0 */\n              0x00\n                /* \"hopium/etf/main/etf-vault-deployer.sol\":822:827  token */\n              dup9\n                /* \"hopium/etf/main/etf-vault-deployer.sol\":815:820  gas() */\n              gas\n                /* \"hopium/etf/main/etf-vault-deployer.sol\":810:870  call(gas(), token, 0, add(data, 0x20), mload(data), 0, 0x20) */\n              call\n                /* \"hopium/etf/main/etf-vault-deployer.sol\":922:929  success */\n              dup1\n                /* \"hopium/etf/main/etf-vault-deployer.sol\":912:1088  if iszero(success) {... */\n              tag_123\n              jumpi\n                /* \"hopium/etf/main/etf-vault-deployer.sol\":966:970  0x40 */\n              0x40\n                /* \"hopium/etf/main/etf-vault-deployer.sol\":960:971  mload(0x40) */\n              mload\n                /* \"hopium/etf/main/etf-vault-deployer.sol\":1011:1027  returndatasize() */\n              returndatasize\n                /* \"hopium/etf/main/etf-vault-deployer.sol\":1008:1009  0 */\n              0x00\n                /* \"hopium/etf/main/etf-vault-deployer.sol\":1003:1006  ptr */\n              dup3\n                /* \"hopium/etf/main/etf-vault-deployer.sol\":988:1028  returndatacopy(ptr, 0, returndatasize()) */\n              returndatacopy\n                /* \"hopium/etf/main/etf-vault-deployer.sol\":1057:1073  returndatasize() */\n              returndatasize\n                /* \"hopium/etf/main/etf-vault-deployer.sol\":1052:1055  ptr */\n              dup2\n                /* \"hopium/etf/main/etf-vault-deployer.sol\":1045:1074  revert(ptr, returndatasize()) */\n              revert\n                /* \"hopium/etf/main/etf-vault-deployer.sol\":912:1088  if iszero(success) {... */\n            tag_123:\n                /* \"hopium/etf/main/etf-vault-deployer.sol\":1115:1131  returndatasize() */\n              returndatasize\n                /* \"hopium/etf/main/etf-vault-deployer.sol\":1101:1131  returnSize := returndatasize() */\n              swap3\n              pop\n                /* \"hopium/etf/main/etf-vault-deployer.sol\":1165:1166  0 */\n              0x00\n                /* \"hopium/etf/main/etf-vault-deployer.sol\":1159:1167  mload(0) */\n              mload\n                /* \"hopium/etf/main/etf-vault-deployer.sol\":1144:1167  returnValue := mload(0) */\n              swap2\n              pop\n                /* \"hopium/etf/main/etf-vault-deployer.sol\":781:1177  {... */\n              pop\n                /* \"hopium/etf/main/etf-vault-deployer.sol\":1205:1206  0 */\n              0x00\n                /* \"hopium/etf/main/etf-vault-deployer.sol\":1191:1201  returnSize */\n              dup3\n                /* \"hopium/etf/main/etf-vault-deployer.sol\":1191:1206  returnSize == 0 */\n              eq\n                /* \"hopium/etf/main/etf-vault-deployer.sol\":1191:1259  returnSize == 0 ? address(token).code.length == 0 : returnValue != 1 */\n              tag_124\n              jumpi\n                /* \"hopium/etf/main/etf-vault-deployer.sol\":1258:1259  1 */\n              0x01\n                /* \"hopium/etf/main/etf-vault-deployer.sol\":1243:1254  returnValue */\n              dup2\n                /* \"hopium/etf/main/etf-vault-deployer.sol\":1243:1259  returnValue != 1 */\n              eq\n              iszero\n                /* \"hopium/etf/main/etf-vault-deployer.sol\":1191:1259  returnSize == 0 ? address(token).code.length == 0 : returnValue != 1 */\n              jump(tag_125)\n            tag_124:\n                /* \"hopium/etf/main/etf-vault-deployer.sol\":1239:1240  0 */\n              0x00\n                /* \"hopium/etf/main/etf-vault-deployer.sol\":1217:1222  token */\n              dup5\n                /* \"hopium/etf/main/etf-vault-deployer.sol\":1209:1235  address(token).code.length */\n              0xffffffffffffffffffffffffffffffffffffffff\n              and\n              extcodesize\n                /* \"hopium/etf/main/etf-vault-deployer.sol\":1209:1240  address(token).code.length == 0 */\n              eq\n                /* \"hopium/etf/main/etf-vault-deployer.sol\":1191:1259  returnSize == 0 ? address(token).code.length == 0 : returnValue != 1 */\n            tag_125:\n                /* \"hopium/etf/main/etf-vault-deployer.sol\":1187:1333  if (returnSize == 0 ? address(token).code.length == 0 : returnValue != 1) {... */\n              iszero\n              tag_126\n              jumpi\n                /* \"hopium/etf/main/etf-vault-deployer.sol\":1315:1320  token */\n              dup4\n                /* \"hopium/etf/main/etf-vault-deployer.sol\":1282:1322  SafeERC20FailedOperation(address(token)) */\n              mload(0x40)\n              0x5274afe700000000000000000000000000000000000000000000000000000000\n              dup2\n              mstore\n              0x04\n              add\n              tag_127\n              swap2\n              swap1\n              tag_14\n              jump\t// in\n            tag_127:\n              mload(0x40)\n              dup1\n              swap2\n              sub\n              swap1\n              revert\n                /* \"hopium/etf/main/etf-vault-deployer.sol\":1187:1333  if (returnSize == 0 ? address(token).code.length == 0 : returnValue != 1) {... */\n            tag_126:\n                /* \"hopium/etf/main/etf-vault-deployer.sol\":689:1339  {... */\n              pop\n              pop\n                /* \"hopium/etf/main/etf-vault-deployer.sol\":619:1339  function _callOptionalReturn(IERC20 token, bytes memory data) private {... */\n              pop\n              pop\n              jump\t// out\n                /* \"#utility.yul\":7:82   */\n            tag_128:\n                /* \"#utility.yul\":40:46   */\n              0x00\n                /* \"#utility.yul\":73:75   */\n              0x40\n                /* \"#utility.yul\":67:76   */\n              mload\n                /* \"#utility.yul\":57:76   */\n              swap1\n              pop\n                /* \"#utility.yul\":7:82   */\n              swap1\n              jump\t// out\n                /* \"#utility.yul\":88:205   */\n            tag_129:\n                /* \"#utility.yul\":197:198   */\n              0x00\n                /* \"#utility.yul\":194:195   */\n              0x00\n                /* \"#utility.yul\":187:199   */\n              revert\n                /* \"#utility.yul\":211:328   */\n            tag_130:\n                /* \"#utility.yul\":320:321   */\n              0x00\n                /* \"#utility.yul\":317:318   */\n              0x00\n                /* \"#utility.yul\":310:322   */\n              revert\n                /* \"#utility.yul\":334:451   */\n            tag_131:\n                /* \"#utility.yul\":443:444   */\n              0x00\n                /* \"#utility.yul\":440:441   */\n              0x00\n                /* \"#utility.yul\":433:445   */\n              revert\n                /* \"#utility.yul\":457:574   */\n            tag_132:\n                /* \"#utility.yul\":566:567   */\n              0x00\n                /* \"#utility.yul\":563:564   */\n              0x00\n                /* \"#utility.yul\":556:568   */\n              revert\n                /* \"#utility.yul\":580:682   */\n            tag_133:\n                /* \"#utility.yul\":621:627   */\n              0x00\n                /* \"#utility.yul\":672:674   */\n              0x1f\n                /* \"#utility.yul\":668:675   */\n              not\n                /* \"#utility.yul\":663:665   */\n              0x1f\n                /* \"#utility.yul\":656:661   */\n              dup4\n                /* \"#utility.yul\":652:666   */\n              add\n                /* \"#utility.yul\":648:676   */\n              and\n                /* \"#utility.yul\":638:676   */\n              swap1\n              pop\n                /* \"#utility.yul\":580:682   */\n              swap2\n              swap1\n              pop\n              jump\t// out\n                /* \"#utility.yul\":688:868   */\n            tag_134:\n                /* \"#utility.yul\":736:813   */\n              0x4e487b7100000000000000000000000000000000000000000000000000000000\n                /* \"#utility.yul\":733:734   */\n              0x00\n                /* \"#utility.yul\":726:814   */\n              mstore\n                /* \"#utility.yul\":833:837   */\n              0x41\n                /* \"#utility.yul\":830:831   */\n              0x04\n                /* \"#utility.yul\":823:838   */\n              mstore\n                /* \"#utility.yul\":857:861   */\n              0x24\n                /* \"#utility.yul\":854:855   */\n              0x00\n                /* \"#utility.yul\":847:862   */\n              revert\n                /* \"#utility.yul\":874:1155   */\n            tag_135:\n                /* \"#utility.yul\":957:984   */\n              tag_191\n                /* \"#utility.yul\":979:983   */\n              dup3\n                /* \"#utility.yul\":957:984   */\n              tag_133\n              jump\t// in\n            tag_191:\n                /* \"#utility.yul\":949:955   */\n              dup2\n                /* \"#utility.yul\":945:985   */\n              add\n                /* \"#utility.yul\":1087:1093   */\n              dup2\n                /* \"#utility.yul\":1075:1085   */\n              dup2\n                /* \"#utility.yul\":1072:1094   */\n              lt\n                /* \"#utility.yul\":1051:1069   */\n              0xffffffffffffffff\n                /* \"#utility.yul\":1039:1049   */\n              dup3\n                /* \"#utility.yul\":1036:1070   */\n              gt\n                /* \"#utility.yul\":1033:1095   */\n              or\n                /* \"#utility.yul\":1030:1118   */\n              iszero\n              tag_192\n              jumpi\n                /* \"#utility.yul\":1098:1116   */\n              tag_193\n              tag_134\n              jump\t// in\n            tag_193:\n                /* \"#utility.yul\":1030:1118   */\n            tag_192:\n                /* \"#utility.yul\":1138:1148   */\n              dup1\n                /* \"#utility.yul\":1134:1136   */\n              0x40\n                /* \"#utility.yul\":1127:1149   */\n              mstore\n                /* \"#utility.yul\":917:1155   */\n              pop\n                /* \"#utility.yul\":874:1155   */\n              pop\n              pop\n              jump\t// out\n                /* \"#utility.yul\":1161:1290   */\n            tag_136:\n                /* \"#utility.yul\":1195:1201   */\n              0x00\n                /* \"#utility.yul\":1222:1242   */\n              tag_195\n              tag_128\n              jump\t// in\n            tag_195:\n                /* \"#utility.yul\":1212:1242   */\n              swap1\n              pop\n                /* \"#utility.yul\":1251:1284   */\n              tag_196\n                /* \"#utility.yul\":1279:1283   */\n              dup3\n                /* \"#utility.yul\":1271:1277   */\n              dup3\n                /* \"#utility.yul\":1251:1284   */\n              tag_135\n              jump\t// in\n            tag_196:\n                /* \"#utility.yul\":1161:1290   */\n              swap2\n              swap1\n              pop\n              jump\t// out\n                /* \"#utility.yul\":1296:1604   */\n            tag_137:\n                /* \"#utility.yul\":1358:1362   */\n              0x00\n                /* \"#utility.yul\":1448:1466   */\n              0xffffffffffffffff\n                /* \"#utility.yul\":1440:1446   */\n              dup3\n                /* \"#utility.yul\":1437:1467   */\n              gt\n                /* \"#utility.yul\":1434:1490   */\n              iszero\n              tag_198\n              jumpi\n                /* \"#utility.yul\":1470:1488   */\n              tag_199\n              tag_134\n              jump\t// in\n            tag_199:\n                /* \"#utility.yul\":1434:1490   */\n            tag_198:\n                /* \"#utility.yul\":1508:1537   */\n              tag_200\n                /* \"#utility.yul\":1530:1536   */\n              dup3\n                /* \"#utility.yul\":1508:1537   */\n              tag_133\n              jump\t// in\n            tag_200:\n                /* \"#utility.yul\":1500:1537   */\n              swap1\n              pop\n                /* \"#utility.yul\":1592:1596   */\n              0x20\n                /* \"#utility.yul\":1586:1590   */\n              dup2\n                /* \"#utility.yul\":1582:1597   */\n              add\n                /* \"#utility.yul\":1574:1597   */\n              swap1\n              pop\n                /* \"#utility.yul\":1296:1604   */\n              swap2\n              swap1\n              pop\n              jump\t// out\n                /* \"#utility.yul\":1610:1758   */\n            tag_138:\n                /* \"#utility.yul\":1708:1714   */\n              dup3\n                /* \"#utility.yul\":1703:1706   */\n              dup2\n                /* \"#utility.yul\":1698:1701   */\n              dup4\n                /* \"#utility.yul\":1685:1715   */\n              calldatacopy\n                /* \"#utility.yul\":1749:1750   */\n              0x00\n                /* \"#utility.yul\":1740:1746   */\n              dup4\n                /* \"#utility.yul\":1735:1738   */\n              dup4\n                /* \"#utility.yul\":1731:1747   */\n              add\n                /* \"#utility.yul\":1724:1751   */\n              mstore\n                /* \"#utility.yul\":1610:1758   */\n              pop\n              pop\n              pop\n              jump\t// out\n                /* \"#utility.yul\":1764:2189   */\n            tag_139:\n                /* \"#utility.yul\":1842:1847   */\n              0x00\n                /* \"#utility.yul\":1867:1933   */\n              tag_203\n                /* \"#utility.yul\":1883:1932   */\n              tag_204\n                /* \"#utility.yul\":1925:1931   */\n              dup5\n                /* \"#utility.yul\":1883:1932   */\n              tag_137\n              jump\t// in\n            tag_204:\n                /* \"#utility.yul\":1867:1933   */\n              tag_136\n              jump\t// in\n            tag_203:\n                /* \"#utility.yul\":1858:1933   */\n              swap1\n              pop\n                /* \"#utility.yul\":1956:1962   */\n              dup3\n                /* \"#utility.yul\":1949:1954   */\n              dup2\n                /* \"#utility.yul\":1942:1963   */\n              mstore\n                /* \"#utility.yul\":1994:1998   */\n              0x20\n                /* \"#utility.yul\":1987:1992   */\n              dup2\n                /* \"#utility.yul\":1983:1999   */\n              add\n                /* \"#utility.yul\":2032:2035   */\n              dup5\n                /* \"#utility.yul\":2023:2029   */\n              dup5\n                /* \"#utility.yul\":2018:2021   */\n              dup5\n                /* \"#utility.yul\":2014:2030   */\n              add\n                /* \"#utility.yul\":2011:2036   */\n              gt\n                /* \"#utility.yul\":2008:2120   */\n              iszero\n              tag_205\n              jumpi\n                /* \"#utility.yul\":2039:2118   */\n              tag_206\n              tag_132\n              jump\t// in\n            tag_206:\n                /* \"#utility.yul\":2008:2120   */\n            tag_205:\n                /* \"#utility.yul\":2129:2183   */\n              tag_207\n                /* \"#utility.yul\":2176:2182   */\n              dup5\n                /* \"#utility.yul\":2171:2174   */\n              dup3\n                /* \"#utility.yul\":2166:2169   */\n              dup6\n                /* \"#utility.yul\":2129:2183   */\n              tag_138\n              jump\t// in\n            tag_207:\n                /* \"#utility.yul\":1848:2189   */\n              pop\n                /* \"#utility.yul\":1764:2189   */\n              swap4\n              swap3\n              pop\n              pop\n              pop\n              jump\t// out\n                /* \"#utility.yul\":2209:2549   */\n            tag_140:\n                /* \"#utility.yul\":2265:2270   */\n              0x00\n                /* \"#utility.yul\":2314:2317   */\n              dup3\n                /* \"#utility.yul\":2307:2311   */\n              0x1f\n                /* \"#utility.yul\":2299:2305   */\n              dup4\n                /* \"#utility.yul\":2295:2312   */\n              add\n                /* \"#utility.yul\":2291:2318   */\n              slt\n                /* \"#utility.yul\":2281:2403   */\n              tag_209\n              jumpi\n                /* \"#utility.yul\":2322:2401   */\n              tag_210\n              tag_131\n              jump\t// in\n            tag_210:\n                /* \"#utility.yul\":2281:2403   */\n            tag_209:\n                /* \"#utility.yul\":2439:2445   */\n              dup2\n                /* \"#utility.yul\":2426:2446   */\n              calldataload\n                /* \"#utility.yul\":2464:2543   */\n              tag_211\n                /* \"#utility.yul\":2539:2542   */\n              dup5\n                /* \"#utility.yul\":2531:2537   */\n              dup3\n                /* \"#utility.yul\":2524:2528   */\n              0x20\n                /* \"#utility.yul\":2516:2522   */\n              dup7\n                /* \"#utility.yul\":2512:2529   */\n              add\n                /* \"#utility.yul\":2464:2543   */\n              tag_139\n              jump\t// in\n            tag_211:\n                /* \"#utility.yul\":2455:2543   */\n              swap2\n              pop\n                /* \"#utility.yul\":2271:2549   */\n              pop\n                /* \"#utility.yul\":2209:2549   */\n              swap3\n              swap2\n              pop\n              pop\n              jump\t// out\n                /* \"#utility.yul\":2555:3064   */\n            tag_11:\n                /* \"#utility.yul\":2624:2630   */\n              0x00\n                /* \"#utility.yul\":2673:2675   */\n              0x20\n                /* \"#utility.yul\":2661:2670   */\n              dup3\n                /* \"#utility.yul\":2652:2659   */\n              dup5\n                /* \"#utility.yul\":2648:2671   */\n              sub\n                /* \"#utility.yul\":2644:2676   */\n              slt\n                /* \"#utility.yul\":2641:2760   */\n              iszero\n              tag_213\n              jumpi\n                /* \"#utility.yul\":2679:2758   */\n              tag_214\n              tag_129\n              jump\t// in\n            tag_214:\n                /* \"#utility.yul\":2641:2760   */\n            tag_213:\n                /* \"#utility.yul\":2827:2828   */\n              0x00\n                /* \"#utility.yul\":2816:2825   */\n              dup3\n                /* \"#utility.yul\":2812:2829   */\n              add\n                /* \"#utility.yul\":2799:2830   */\n              calldataload\n                /* \"#utility.yul\":2857:2875   */\n              0xffffffffffffffff\n                /* \"#utility.yul\":2849:2855   */\n              dup2\n                /* \"#utility.yul\":2846:2876   */\n              gt\n                /* \"#utility.yul\":2843:2960   */\n              iszero\n              tag_215\n              jumpi\n                /* \"#utility.yul\":2879:2958   */\n              tag_216\n              tag_130\n              jump\t// in\n            tag_216:\n                /* \"#utility.yul\":2843:2960   */\n            tag_215:\n                /* \"#utility.yul\":2984:3047   */\n              tag_217\n                /* \"#utility.yul\":3039:3046   */\n              dup5\n                /* \"#utility.yul\":3030:3036   */\n              dup3\n                /* \"#utility.yul\":3019:3028   */\n              dup6\n                /* \"#utility.yul\":3015:3037   */\n              add\n                /* \"#utility.yul\":2984:3047   */\n              tag_140\n              jump\t// in\n            tag_217:\n                /* \"#utility.yul\":2974:3047   */\n              swap2\n              pop\n                /* \"#utility.yul\":2770:3057   */\n              pop\n                /* \"#utility.yul\":2555:3064   */\n              swap3\n              swap2\n              pop\n              pop\n              jump\t// out\n                /* \"#utility.yul\":3070:3196   */\n            tag_141:\n                /* \"#utility.yul\":3107:3114   */\n              0x00\n                /* \"#utility.yul\":3147:3189   */\n              0xffffffffffffffffffffffffffffffffffffffff\n                /* \"#utility.yul\":3140:3145   */\n              dup3\n                /* \"#utility.yul\":3136:3190   */\n              and\n                /* \"#utility.yul\":3125:3190   */\n              swap1\n              pop\n                /* \"#utility.yul\":3070:3196   */\n              swap2\n              swap1\n              pop\n              jump\t// out\n                /* \"#utility.yul\":3202:3298   */\n            tag_142:\n                /* \"#utility.yul\":3239:3246   */\n              0x00\n                /* \"#utility.yul\":3268:3292   */\n              tag_220\n                /* \"#utility.yul\":3286:3291   */\n              dup3\n                /* \"#utility.yul\":3268:3292   */\n              tag_141\n              jump\t// in\n            tag_220:\n                /* \"#utility.yul\":3257:3292   */\n              swap1\n              pop\n                /* \"#utility.yul\":3202:3298   */\n              swap2\n              swap1\n              pop\n              jump\t// out\n                /* \"#utility.yul\":3304:3422   */\n            tag_143:\n                /* \"#utility.yul\":3391:3415   */\n              tag_222\n                /* \"#utility.yul\":3409:3414   */\n              dup2\n                /* \"#utility.yul\":3391:3415   */\n              tag_142\n              jump\t// in\n            tag_222:\n                /* \"#utility.yul\":3386:3389   */\n              dup3\n                /* \"#utility.yul\":3379:3416   */\n              mstore\n                /* \"#utility.yul\":3304:3422   */\n              pop\n              pop\n              jump\t// out\n                /* \"#utility.yul\":3428:3650   */\n            tag_14:\n                /* \"#utility.yul\":3521:3525   */\n              0x00\n                /* \"#utility.yul\":3559:3561   */\n              0x20\n                /* \"#utility.yul\":3548:3557   */\n              dup3\n                /* \"#utility.yul\":3544:3562   */\n              add\n                /* \"#utility.yul\":3536:3562   */\n              swap1\n              pop\n                /* \"#utility.yul\":3572:3643   */\n              tag_224\n                /* \"#utility.yul\":3640:3641   */\n              0x00\n                /* \"#utility.yul\":3629:3638   */\n              dup4\n                /* \"#utility.yul\":3625:3642   */\n              add\n                /* \"#utility.yul\":3616:3622   */\n              dup5\n                /* \"#utility.yul\":3572:3643   */\n              tag_143\n              jump\t// in\n            tag_224:\n                /* \"#utility.yul\":3428:3650   */\n              swap3\n              swap2\n              pop\n              pop\n              jump\t// out\n                /* \"#utility.yul\":3656:3778   */\n            tag_144:\n                /* \"#utility.yul\":3729:3753   */\n              tag_226\n                /* \"#utility.yul\":3747:3752   */\n              dup2\n                /* \"#utility.yul\":3729:3753   */\n              tag_142\n              jump\t// in\n            tag_226:\n                /* \"#utility.yul\":3722:3727   */\n              dup2\n                /* \"#utility.yul\":3719:3754   */\n              eq\n                /* \"#utility.yul\":3709:3772   */\n              tag_227\n              jumpi\n                /* \"#utility.yul\":3768:3769   */\n              0x00\n                /* \"#utility.yul\":3765:3766   */\n              0x00\n                /* \"#utility.yul\":3758:3770   */\n              revert\n                /* \"#utility.yul\":3709:3772   */\n            tag_227:\n                /* \"#utility.yul\":3656:3778   */\n              pop\n              jump\t// out\n                /* \"#utility.yul\":3784:3923   */\n            tag_145:\n                /* \"#utility.yul\":3830:3835   */\n              0x00\n                /* \"#utility.yul\":3868:3874   */\n              dup2\n                /* \"#utility.yul\":3855:3875   */\n              calldataload\n                /* \"#utility.yul\":3846:3875   */\n              swap1\n              pop\n                /* \"#utility.yul\":3884:3917   */\n              tag_229\n                /* \"#utility.yul\":3911:3916   */\n              dup2\n                /* \"#utility.yul\":3884:3917   */\n              tag_144\n              jump\t// in\n            tag_229:\n                /* \"#utility.yul\":3784:3923   */\n              swap3\n              swap2\n              pop\n              pop\n              jump\t// out\n                /* \"#utility.yul\":3929:4006   */\n            tag_146:\n                /* \"#utility.yul\":3966:3973   */\n              0x00\n                /* \"#utility.yul\":3995:4000   */\n              dup2\n                /* \"#utility.yul\":3984:4000   */\n              swap1\n              pop\n                /* \"#utility.yul\":3929:4006   */\n              swap2\n              swap1\n              pop\n              jump\t// out\n                /* \"#utility.yul\":4012:4134   */\n            tag_147:\n                /* \"#utility.yul\":4085:4109   */\n              tag_232\n                /* \"#utility.yul\":4103:4108   */\n              dup2\n                /* \"#utility.yul\":4085:4109   */\n              tag_146\n              jump\t// in\n            tag_232:\n                /* \"#utility.yul\":4078:4083   */\n              dup2\n                /* \"#utility.yul\":4075:4110   */\n              eq\n                /* \"#utility.yul\":4065:4128   */\n              tag_233\n              jumpi\n                /* \"#utility.yul\":4124:4125   */\n              0x00\n                /* \"#utility.yul\":4121:4122   */\n              0x00\n                /* \"#utility.yul\":4114:4126   */\n              revert\n                /* \"#utility.yul\":4065:4128   */\n            tag_233:\n                /* \"#utility.yul\":4012:4134   */\n              pop\n              jump\t// out\n                /* \"#utility.yul\":4140:4279   */\n            tag_148:\n                /* \"#utility.yul\":4186:4191   */\n              0x00\n                /* \"#utility.yul\":4224:4230   */\n              dup2\n                /* \"#utility.yul\":4211:4231   */\n              calldataload\n                /* \"#utility.yul\":4202:4231   */\n              swap1\n              pop\n                /* \"#utility.yul\":4240:4273   */\n              tag_235\n                /* \"#utility.yul\":4267:4272   */\n              dup2\n                /* \"#utility.yul\":4240:4273   */\n              tag_147\n              jump\t// in\n            tag_235:\n                /* \"#utility.yul\":4140:4279   */\n              swap3\n              swap2\n              pop\n              pop\n              jump\t// out\n                /* \"#utility.yul\":4285:4904   */\n            tag_17:\n                /* \"#utility.yul\":4362:4368   */\n              0x00\n                /* \"#utility.yul\":4370:4376   */\n              0x00\n                /* \"#utility.yul\":4378:4384   */\n              0x00\n                /* \"#utility.yul\":4427:4429   */\n              0x60\n                /* \"#utility.yul\":4415:4424   */\n              dup5\n                /* \"#utility.yul\":4406:4413   */\n              dup7\n                /* \"#utility.yul\":4402:4425   */\n              sub\n                /* \"#utility.yul\":4398:4430   */\n              slt\n                /* \"#utility.yul\":4395:4514   */\n              iszero\n              tag_237\n              jumpi\n                /* \"#utility.yul\":4433:4512   */\n              tag_238\n              tag_129\n              jump\t// in\n            tag_238:\n                /* \"#utility.yul\":4395:4514   */\n            tag_237:\n                /* \"#utility.yul\":4553:4554   */\n              0x00\n                /* \"#utility.yul\":4578:4631   */\n              tag_239\n                /* \"#utility.yul\":4623:4630   */\n              dup7\n                /* \"#utility.yul\":4614:4620   */\n              dup3\n                /* \"#utility.yul\":4603:4612   */\n              dup8\n                /* \"#utility.yul\":4599:4621   */\n              add\n                /* \"#utility.yul\":4578:4631   */\n              tag_145\n              jump\t// in\n            tag_239:\n                /* \"#utility.yul\":4568:4631   */\n              swap4\n              pop\n                /* \"#utility.yul\":4524:4641   */\n              pop\n                /* \"#utility.yul\":4680:4682   */\n              0x20\n                /* \"#utility.yul\":4706:4759   */\n              tag_240\n                /* \"#utility.yul\":4751:4758   */\n              dup7\n                /* \"#utility.yul\":4742:4748   */\n              dup3\n                /* \"#utility.yul\":4731:4740   */\n              dup8\n                /* \"#utility.yul\":4727:4749   */\n              add\n                /* \"#utility.yul\":4706:4759   */\n              tag_148\n              jump\t// in\n            tag_240:\n                /* \"#utility.yul\":4696:4759   */\n              swap3\n              pop\n                /* \"#utility.yul\":4651:4769   */\n              pop\n                /* \"#utility.yul\":4808:4810   */\n              0x40\n                /* \"#utility.yul\":4834:4887   */\n              tag_241\n                /* \"#utility.yul\":4879:4886   */\n              dup7\n                /* \"#utility.yul\":4870:4876   */\n              dup3\n                /* \"#utility.yul\":4859:4868   */\n              dup8\n                /* \"#utility.yul\":4855:4877   */\n              add\n                /* \"#utility.yul\":4834:4887   */\n              tag_145\n              jump\t// in\n            tag_241:\n                /* \"#utility.yul\":4824:4887   */\n              swap2\n              pop\n                /* \"#utility.yul\":4779:4897   */\n              pop\n                /* \"#utility.yul\":4285:4904   */\n              swap3\n              pop\n              swap3\n              pop\n              swap3\n              jump\t// out\n                /* \"#utility.yul\":4910:4970   */\n            tag_149:\n                /* \"#utility.yul\":4938:4941   */\n              0x00\n                /* \"#utility.yul\":4959:4964   */\n              dup2\n                /* \"#utility.yul\":4952:4964   */\n              swap1\n              pop\n                /* \"#utility.yul\":4910:4970   */\n              swap2\n              swap1\n              pop\n              jump\t// out\n                /* \"#utility.yul\":4976:5118   */\n            tag_150:\n                /* \"#utility.yul\":5026:5035   */\n              0x00\n                /* \"#utility.yul\":5059:5112   */\n              tag_244\n                /* \"#utility.yul\":5077:5111   */\n              tag_245\n                /* \"#utility.yul\":5086:5110   */\n              tag_246\n                /* \"#utility.yul\":5104:5109   */\n              dup5\n                /* \"#utility.yul\":5086:5110   */\n              tag_141\n              jump\t// in\n            tag_246:\n                /* \"#utility.yul\":5077:5111   */\n              tag_149\n              jump\t// in\n            tag_245:\n                /* \"#utility.yul\":5059:5112   */\n              tag_141\n              jump\t// in\n            tag_244:\n                /* \"#utility.yul\":5046:5112   */\n              swap1\n              pop\n                /* \"#utility.yul\":4976:5118   */\n              swap2\n              swap1\n              pop\n              jump\t// out\n                /* \"#utility.yul\":5124:5250   */\n            tag_151:\n                /* \"#utility.yul\":5174:5183   */\n              0x00\n                /* \"#utility.yul\":5207:5244   */\n              tag_248\n                /* \"#utility.yul\":5238:5243   */\n              dup3\n                /* \"#utility.yul\":5207:5244   */\n              tag_150\n              jump\t// in\n            tag_248:\n                /* \"#utility.yul\":5194:5244   */\n              swap1\n              pop\n                /* \"#utility.yul\":5124:5250   */\n              swap2\n              swap1\n              pop\n              jump\t// out\n                /* \"#utility.yul\":5256:5399   */\n            tag_152:\n                /* \"#utility.yul\":5323:5332   */\n              0x00\n                /* \"#utility.yul\":5356:5393   */\n              tag_250\n                /* \"#utility.yul\":5387:5392   */\n              dup3\n                /* \"#utility.yul\":5356:5393   */\n              tag_151\n              jump\t// in\n            tag_250:\n                /* \"#utility.yul\":5343:5393   */\n              swap1\n              pop\n                /* \"#utility.yul\":5256:5399   */\n              swap2\n              swap1\n              pop\n              jump\t// out\n                /* \"#utility.yul\":5405:5570   */\n            tag_153:\n                /* \"#utility.yul\":5509:5563   */\n              tag_252\n                /* \"#utility.yul\":5557:5562   */\n              dup2\n                /* \"#utility.yul\":5509:5563   */\n              tag_152\n              jump\t// in\n            tag_252:\n                /* \"#utility.yul\":5504:5507   */\n              dup3\n                /* \"#utility.yul\":5497:5564   */\n              mstore\n                /* \"#utility.yul\":5405:5570   */\n              pop\n              pop\n              jump\t// out\n                /* \"#utility.yul\":5576:5832   */\n            tag_22:\n                /* \"#utility.yul\":5686:5690   */\n              0x00\n                /* \"#utility.yul\":5724:5726   */\n              0x20\n                /* \"#utility.yul\":5713:5722   */\n              dup3\n                /* \"#utility.yul\":5709:5727   */\n              add\n                /* \"#utility.yul\":5701:5727   */\n              swap1\n              pop\n                /* \"#utility.yul\":5737:5825   */\n              tag_254\n                /* \"#utility.yul\":5822:5823   */\n              0x00\n                /* \"#utility.yul\":5811:5820   */\n              dup4\n                /* \"#utility.yul\":5807:5824   */\n              add\n                /* \"#utility.yul\":5798:5804   */\n              dup5\n                /* \"#utility.yul\":5737:5825   */\n              tag_153\n              jump\t// in\n            tag_254:\n                /* \"#utility.yul\":5576:5832   */\n              swap3\n              swap2\n              pop\n              pop\n              jump\t// out\n                /* \"#utility.yul\":5838:6167   */\n            tag_28:\n                /* \"#utility.yul\":5897:5903   */\n              0x00\n                /* \"#utility.yul\":5946:5948   */\n              0x20\n                /* \"#utility.yul\":5934:5943   */\n              dup3\n                /* \"#utility.yul\":5925:5932   */\n              dup5\n                /* \"#utility.yul\":5921:5944   */\n              sub\n                /* \"#utility.yul\":5917:5949   */\n              slt\n                /* \"#utility.yul\":5914:6033   */\n              iszero\n              tag_256\n              jumpi\n                /* \"#utility.yul\":5952:6031   */\n              tag_257\n              tag_129\n              jump\t// in\n            tag_257:\n                /* \"#utility.yul\":5914:6033   */\n            tag_256:\n                /* \"#utility.yul\":6072:6073   */\n              0x00\n                /* \"#utility.yul\":6097:6150   */\n              tag_258\n                /* \"#utility.yul\":6142:6149   */\n              dup5\n                /* \"#utility.yul\":6133:6139   */\n              dup3\n                /* \"#utility.yul\":6122:6131   */\n              dup6\n                /* \"#utility.yul\":6118:6140   */\n              add\n                /* \"#utility.yul\":6097:6150   */\n              tag_145\n              jump\t// in\n            tag_258:\n                /* \"#utility.yul\":6087:6150   */\n              swap2\n              pop\n                /* \"#utility.yul\":6043:6160   */\n              pop\n                /* \"#utility.yul\":5838:6167   */\n              swap3\n              swap2\n              pop\n              pop\n              jump\t// out\n                /* \"#utility.yul\":6173:6647   */\n            tag_32:\n                /* \"#utility.yul\":6241:6247   */\n              0x00\n                /* \"#utility.yul\":6249:6255   */\n              0x00\n                /* \"#utility.yul\":6298:6300   */\n              0x40\n                /* \"#utility.yul\":6286:6295   */\n              dup4\n                /* \"#utility.yul\":6277:6284   */\n              dup6\n                /* \"#utility.yul\":6273:6296   */\n              sub\n                /* \"#utility.yul\":6269:6301   */\n              slt\n                /* \"#utility.yul\":6266:6385   */\n              iszero\n              tag_260\n              jumpi\n                /* \"#utility.yul\":6304:6383   */\n              tag_261\n              tag_129\n              jump\t// in\n            tag_261:\n                /* \"#utility.yul\":6266:6385   */\n            tag_260:\n                /* \"#utility.yul\":6424:6425   */\n              0x00\n                /* \"#utility.yul\":6449:6502   */\n              tag_262\n                /* \"#utility.yul\":6494:6501   */\n              dup6\n                /* \"#utility.yul\":6485:6491   */\n              dup3\n                /* \"#utility.yul\":6474:6483   */\n              dup7\n                /* \"#utility.yul\":6470:6492   */\n              add\n                /* \"#utility.yul\":6449:6502   */\n              tag_145\n              jump\t// in\n            tag_262:\n                /* \"#utility.yul\":6439:6502   */\n              swap3\n              pop\n                /* \"#utility.yul\":6395:6512   */\n              pop\n                /* \"#utility.yul\":6551:6553   */\n              0x20\n                /* \"#utility.yul\":6577:6630   */\n              tag_263\n                /* \"#utility.yul\":6622:6629   */\n              dup6\n                /* \"#utility.yul\":6613:6619   */\n              dup3\n                /* \"#utility.yul\":6602:6611   */\n              dup7\n                /* \"#utility.yul\":6598:6620   */\n              add\n                /* \"#utility.yul\":6577:6630   */\n              tag_145\n              jump\t// in\n            tag_263:\n                /* \"#utility.yul\":6567:6630   */\n              swap2\n              pop\n                /* \"#utility.yul\":6522:6640   */\n              pop\n                /* \"#utility.yul\":6173:6647   */\n              swap3\n              pop\n              swap3\n              swap1\n              pop\n              jump\t// out\n                /* \"#utility.yul\":6653:6752   */\n            tag_154:\n                /* \"#utility.yul\":6705:6711   */\n              0x00\n                /* \"#utility.yul\":6739:6744   */\n              dup2\n                /* \"#utility.yul\":6733:6745   */\n              mload\n                /* \"#utility.yul\":6723:6745   */\n              swap1\n              pop\n                /* \"#utility.yul\":6653:6752   */\n              swap2\n              swap1\n              pop\n              jump\t// out\n                /* \"#utility.yul\":6758:6927   */\n            tag_155:\n                /* \"#utility.yul\":6842:6853   */\n              0x00\n                /* \"#utility.yul\":6876:6882   */\n              dup3\n                /* \"#utility.yul\":6871:6874   */\n              dup3\n                /* \"#utility.yul\":6864:6883   */\n              mstore\n                /* \"#utility.yul\":6916:6920   */\n              0x20\n                /* \"#utility.yul\":6911:6914   */\n              dup3\n                /* \"#utility.yul\":6907:6921   */\n              add\n                /* \"#utility.yul\":6892:6921   */\n              swap1\n              pop\n                /* \"#utility.yul\":6758:6927   */\n              swap3\n              swap2\n              pop\n              pop\n              jump\t// out\n                /* \"#utility.yul\":6933:7072   */\n            tag_156:\n                /* \"#utility.yul\":7022:7028   */\n              dup3\n                /* \"#utility.yul\":7017:7020   */\n              dup2\n                /* \"#utility.yul\":7012:7015   */\n              dup4\n                /* \"#utility.yul\":7006:7029   */\n              mcopy\n                /* \"#utility.yul\":7063:7064   */\n              0x00\n                /* \"#utility.yul\":7054:7060   */\n              dup4\n                /* \"#utility.yul\":7049:7052   */\n              dup4\n                /* \"#utility.yul\":7045:7061   */\n              add\n                /* \"#utility.yul\":7038:7065   */\n              mstore\n                /* \"#utility.yul\":6933:7072   */\n              pop\n              pop\n              pop\n              jump\t// out\n                /* \"#utility.yul\":7078:7455   */\n            tag_157:\n                /* \"#utility.yul\":7166:7169   */\n              0x00\n                /* \"#utility.yul\":7194:7233   */\n              tag_268\n                /* \"#utility.yul\":7227:7232   */\n              dup3\n                /* \"#utility.yul\":7194:7233   */\n              tag_154\n              jump\t// in\n            tag_268:\n                /* \"#utility.yul\":7249:7320   */\n              tag_269\n                /* \"#utility.yul\":7313:7319   */\n              dup2\n                /* \"#utility.yul\":7308:7311   */\n              dup6\n                /* \"#utility.yul\":7249:7320   */\n              tag_155\n              jump\t// in\n            tag_269:\n                /* \"#utility.yul\":7242:7320   */\n              swap4\n              pop\n                /* \"#utility.yul\":7329:7394   */\n              tag_270\n                /* \"#utility.yul\":7387:7393   */\n              dup2\n                /* \"#utility.yul\":7382:7385   */\n              dup6\n                /* \"#utility.yul\":7375:7379   */\n              0x20\n                /* \"#utility.yul\":7368:7373   */\n              dup7\n                /* \"#utility.yul\":7364:7380   */\n              add\n                /* \"#utility.yul\":7329:7394   */\n              tag_156\n              jump\t// in\n            tag_270:\n                /* \"#utility.yul\":7419:7448   */\n              tag_271\n                /* \"#utility.yul\":7441:7447   */\n              dup2\n                /* \"#utility.yul\":7419:7448   */\n              tag_133\n              jump\t// in\n            tag_271:\n                /* \"#utility.yul\":7414:7417   */\n              dup5\n                /* \"#utility.yul\":7410:7449   */\n              add\n                /* \"#utility.yul\":7403:7449   */\n              swap2\n              pop\n                /* \"#utility.yul\":7170:7455   */\n              pop\n                /* \"#utility.yul\":7078:7455   */\n              swap3\n              swap2\n              pop\n              pop\n              jump\t// out\n                /* \"#utility.yul\":7461:7774   */\n            tag_36:\n                /* \"#utility.yul\":7574:7578   */\n              0x00\n                /* \"#utility.yul\":7612:7614   */\n              0x20\n                /* \"#utility.yul\":7601:7610   */\n              dup3\n                /* \"#utility.yul\":7597:7615   */\n              add\n                /* \"#utility.yul\":7589:7615   */\n              swap1\n              pop\n                /* \"#utility.yul\":7661:7670   */\n              dup2\n                /* \"#utility.yul\":7655:7659   */\n              dup2\n                /* \"#utility.yul\":7651:7671   */\n              sub\n                /* \"#utility.yul\":7647:7648   */\n              0x00\n                /* \"#utility.yul\":7636:7645   */\n              dup4\n                /* \"#utility.yul\":7632:7649   */\n              add\n                /* \"#utility.yul\":7625:7672   */\n              mstore\n                /* \"#utility.yul\":7689:7767   */\n              tag_273\n                /* \"#utility.yul\":7762:7766   */\n              dup2\n                /* \"#utility.yul\":7753:7759   */\n              dup5\n                /* \"#utility.yul\":7689:7767   */\n              tag_157\n              jump\t// in\n            tag_273:\n                /* \"#utility.yul\":7681:7767   */\n              swap1\n              pop\n                /* \"#utility.yul\":7461:7774   */\n              swap3\n              swap2\n              pop\n              pop\n              jump\t// out\n                /* \"#utility.yul\":7780:7923   */\n            tag_158:\n                /* \"#utility.yul\":7837:7842   */\n              0x00\n                /* \"#utility.yul\":7868:7874   */\n              dup2\n                /* \"#utility.yul\":7862:7875   */\n              mload\n                /* \"#utility.yul\":7853:7875   */\n              swap1\n              pop\n                /* \"#utility.yul\":7884:7917   */\n              tag_275\n                /* \"#utility.yul\":7911:7916   */\n              dup2\n                /* \"#utility.yul\":7884:7917   */\n              tag_144\n              jump\t// in\n            tag_275:\n                /* \"#utility.yul\":7780:7923   */\n              swap3\n              swap2\n              pop\n              pop\n              jump\t// out\n                /* \"#utility.yul\":7929:8280   */\n            tag_40:\n                /* \"#utility.yul\":7999:8005   */\n              0x00\n                /* \"#utility.yul\":8048:8050   */\n              0x20\n                /* \"#utility.yul\":8036:8045   */\n              dup3\n                /* \"#utility.yul\":8027:8034   */\n              dup5\n                /* \"#utility.yul\":8023:8046   */\n              sub\n                /* \"#utility.yul\":8019:8051   */\n              slt\n                /* \"#utility.yul\":8016:8135   */\n              iszero\n              tag_277\n              jumpi\n                /* \"#utility.yul\":8054:8133   */\n              tag_278\n              tag_129\n              jump\t// in\n            tag_278:\n                /* \"#utility.yul\":8016:8135   */\n            tag_277:\n                /* \"#utility.yul\":8174:8175   */\n              0x00\n                /* \"#utility.yul\":8199:8263   */\n              tag_279\n                /* \"#utility.yul\":8255:8262   */\n              dup5\n                /* \"#utility.yul\":8246:8252   */\n              dup3\n                /* \"#utility.yul\":8235:8244   */\n              dup6\n                /* \"#utility.yul\":8231:8253   */\n              add\n                /* \"#utility.yul\":8199:8263   */\n              tag_158\n              jump\t// in\n            tag_279:\n                /* \"#utility.yul\":8189:8263   */\n              swap2\n              pop\n                /* \"#utility.yul\":8145:8273   */\n              pop\n                /* \"#utility.yul\":7929:8280   */\n              swap3\n              swap2\n              pop\n              pop\n              jump\t// out\n                /* \"#utility.yul\":8286:8464   */\n            tag_159:\n                /* \"#utility.yul\":8426:8456   */\n              0x6d73672e73656e646572206973206e6f742065746620726f7574657200000000\n                /* \"#utility.yul\":8422:8423   */\n              0x00\n                /* \"#utility.yul\":8414:8420   */\n              dup3\n                /* \"#utility.yul\":8410:8424   */\n              add\n                /* \"#utility.yul\":8403:8457   */\n              mstore\n                /* \"#utility.yul\":8286:8464   */\n              pop\n              jump\t// out\n                /* \"#utility.yul\":8470:8836   */\n            tag_160:\n                /* \"#utility.yul\":8612:8615   */\n              0x00\n                /* \"#utility.yul\":8633:8700   */\n              tag_282\n                /* \"#utility.yul\":8697:8699   */\n              0x1c\n                /* \"#utility.yul\":8692:8695   */\n              dup4\n                /* \"#utility.yul\":8633:8700   */\n              tag_155\n              jump\t// in\n            tag_282:\n                /* \"#utility.yul\":8626:8700   */\n              swap2\n              pop\n                /* \"#utility.yul\":8709:8802   */\n              tag_283\n                /* \"#utility.yul\":8798:8801   */\n              dup3\n                /* \"#utility.yul\":8709:8802   */\n              tag_159\n              jump\t// in\n            tag_283:\n                /* \"#utility.yul\":8827:8829   */\n              0x20\n                /* \"#utility.yul\":8822:8825   */\n              dup3\n                /* \"#utility.yul\":8818:8830   */\n              add\n                /* \"#utility.yul\":8811:8830   */\n              swap1\n              pop\n                /* \"#utility.yul\":8470:8836   */\n              swap2\n              swap1\n              pop\n              jump\t// out\n                /* \"#utility.yul\":8842:9261   */\n            tag_45:\n                /* \"#utility.yul\":9008:9012   */\n              0x00\n                /* \"#utility.yul\":9046:9048   */\n              0x20\n                /* \"#utility.yul\":9035:9044   */\n              dup3\n                /* \"#utility.yul\":9031:9049   */\n              add\n                /* \"#utility.yul\":9023:9049   */\n              swap1\n              pop\n                /* \"#utility.yul\":9095:9104   */\n              dup2\n                /* \"#utility.yul\":9089:9093   */\n              dup2\n                /* \"#utility.yul\":9085:9105   */\n              sub\n                /* \"#utility.yul\":9081:9082   */\n              0x00\n                /* \"#utility.yul\":9070:9079   */\n              dup4\n                /* \"#utility.yul\":9066:9083   */\n              add\n                /* \"#utility.yul\":9059:9106   */\n              mstore\n                /* \"#utility.yul\":9123:9254   */\n              tag_285\n                /* \"#utility.yul\":9249:9253   */\n              dup2\n                /* \"#utility.yul\":9123:9254   */\n              tag_160\n              jump\t// in\n            tag_285:\n                /* \"#utility.yul\":9115:9254   */\n              swap1\n              pop\n                /* \"#utility.yul\":8842:9261   */\n              swap2\n              swap1\n              pop\n              jump\t// out\n                /* \"#utility.yul\":9267:9440   */\n            tag_161:\n                /* \"#utility.yul\":9407:9432   */\n              0x43616c6c6572206973206e6f7420746865206f776e6572000000000000000000\n                /* \"#utility.yul\":9403:9404   */\n              0x00\n                /* \"#utility.yul\":9395:9401   */\n              dup3\n                /* \"#utility.yul\":9391:9405   */\n              add\n                /* \"#utility.yul\":9384:9433   */\n              mstore\n                /* \"#utility.yul\":9267:9440   */\n              pop\n              jump\t// out\n                /* \"#utility.yul\":9446:9812   */\n            tag_162:\n                /* \"#utility.yul\":9588:9591   */\n              0x00\n                /* \"#utility.yul\":9609:9676   */\n              tag_288\n                /* \"#utility.yul\":9673:9675   */\n              0x17\n                /* \"#utility.yul\":9668:9671   */\n              dup4\n                /* \"#utility.yul\":9609:9676   */\n              tag_155\n              jump\t// in\n            tag_288:\n                /* \"#utility.yul\":9602:9676   */\n              swap2\n              pop\n                /* \"#utility.yul\":9685:9778   */\n              tag_289\n                /* \"#utility.yul\":9774:9777   */\n              dup3\n                /* \"#utility.yul\":9685:9778   */\n              tag_161\n              jump\t// in\n            tag_289:\n                /* \"#utility.yul\":9803:9805   */\n              0x20\n                /* \"#utility.yul\":9798:9801   */\n              dup3\n                /* \"#utility.yul\":9794:9806   */\n              add\n                /* \"#utility.yul\":9787:9806   */\n              swap1\n              pop\n                /* \"#utility.yul\":9446:9812   */\n              swap2\n              swap1\n              pop\n              jump\t// out\n                /* \"#utility.yul\":9818:10237   */\n            tag_59:\n                /* \"#utility.yul\":9984:9988   */\n              0x00\n                /* \"#utility.yul\":10022:10024   */\n              0x20\n                /* \"#utility.yul\":10011:10020   */\n              dup3\n                /* \"#utility.yul\":10007:10025   */\n              add\n                /* \"#utility.yul\":9999:10025   */\n              swap1\n              pop\n                /* \"#utility.yul\":10071:10080   */\n              dup2\n                /* \"#utility.yul\":10065:10069   */\n              dup2\n                /* \"#utility.yul\":10061:10081   */\n              sub\n                /* \"#utility.yul\":10057:10058   */\n              0x00\n                /* \"#utility.yul\":10046:10055   */\n              dup4\n                /* \"#utility.yul\":10042:10059   */\n              add\n                /* \"#utility.yul\":10035:10082   */\n              mstore\n                /* \"#utility.yul\":10099:10230   */\n              tag_291\n                /* \"#utility.yul\":10225:10229   */\n              dup2\n                /* \"#utility.yul\":10099:10230   */\n              tag_162\n              jump\t// in\n            tag_291:\n                /* \"#utility.yul\":10091:10230   */\n              swap1\n              pop\n                /* \"#utility.yul\":9818:10237   */\n              swap2\n              swap1\n              pop\n              jump\t// out\n                /* \"#utility.yul\":10243:10386   */\n            tag_163:\n                /* \"#utility.yul\":10300:10305   */\n              0x00\n                /* \"#utility.yul\":10331:10337   */\n              dup2\n                /* \"#utility.yul\":10325:10338   */\n              mload\n                /* \"#utility.yul\":10316:10338   */\n              swap1\n              pop\n                /* \"#utility.yul\":10347:10380   */\n              tag_293\n                /* \"#utility.yul\":10374:10379   */\n              dup2\n                /* \"#utility.yul\":10347:10380   */\n              tag_147\n              jump\t// in\n            tag_293:\n                /* \"#utility.yul\":10243:10386   */\n              swap3\n              swap2\n              pop\n              pop\n              jump\t// out\n                /* \"#utility.yul\":10392:10743   */\n            tag_79:\n                /* \"#utility.yul\":10462:10468   */\n              0x00\n                /* \"#utility.yul\":10511:10513   */\n              0x20\n                /* \"#utility.yul\":10499:10508   */\n              dup3\n                /* \"#utility.yul\":10490:10497   */\n              dup5\n                /* \"#utility.yul\":10486:10509   */\n              sub\n                /* \"#utility.yul\":10482:10514   */\n              slt\n                /* \"#utility.yul\":10479:10598   */\n              iszero\n              tag_295\n              jumpi\n                /* \"#utility.yul\":10517:10596   */\n              tag_296\n              tag_129\n              jump\t// in\n            tag_296:\n                /* \"#utility.yul\":10479:10598   */\n            tag_295:\n                /* \"#utility.yul\":10637:10638   */\n              0x00\n                /* \"#utility.yul\":10662:10726   */\n              tag_297\n                /* \"#utility.yul\":10718:10725   */\n              dup5\n                /* \"#utility.yul\":10709:10715   */\n              dup3\n                /* \"#utility.yul\":10698:10707   */\n              dup6\n                /* \"#utility.yul\":10694:10716   */\n              add\n                /* \"#utility.yul\":10662:10726   */\n              tag_163\n              jump\t// in\n            tag_297:\n                /* \"#utility.yul\":10652:10726   */\n              swap2\n              pop\n                /* \"#utility.yul\":10608:10736   */\n              pop\n                /* \"#utility.yul\":10392:10743   */\n              swap3\n              swap2\n              pop\n              pop\n              jump\t// out\n                /* \"#utility.yul\":10749:10921   */\n            tag_164:\n                /* \"#utility.yul\":10889:10913   */\n              0x73656e64546f6b656e3a207a65726f20616d6f756e7400000000000000000000\n                /* \"#utility.yul\":10885:10886   */\n              0x00\n                /* \"#utility.yul\":10877:10883   */\n              dup3\n                /* \"#utility.yul\":10873:10887   */\n              add\n                /* \"#utility.yul\":10866:10914   */\n              mstore\n                /* \"#utility.yul\":10749:10921   */\n              pop\n              jump\t// out\n                /* \"#utility.yul\":10927:11293   */\n            tag_165:\n                /* \"#utility.yul\":11069:11072   */\n              0x00\n                /* \"#utility.yul\":11090:11157   */\n              tag_300\n                /* \"#utility.yul\":11154:11156   */\n              0x16\n                /* \"#utility.yul\":11149:11152   */\n              dup4\n                /* \"#utility.yul\":11090:11157   */\n              tag_155\n              jump\t// in\n            tag_300:\n                /* \"#utility.yul\":11083:11157   */\n              swap2\n              pop\n                /* \"#utility.yul\":11166:11259   */\n              tag_301\n                /* \"#utility.yul\":11255:11258   */\n              dup3\n                /* \"#utility.yul\":11166:11259   */\n              tag_164\n              jump\t// in\n            tag_301:\n                /* \"#utility.yul\":11284:11286   */\n              0x20\n                /* \"#utility.yul\":11279:11282   */\n              dup3\n                /* \"#utility.yul\":11275:11287   */\n              add\n                /* \"#utility.yul\":11268:11287   */\n              swap1\n              pop\n                /* \"#utility.yul\":10927:11293   */\n              swap2\n              swap1\n              pop\n              jump\t// out\n                /* \"#utility.yul\":11299:11718   */\n            tag_83:\n                /* \"#utility.yul\":11465:11469   */\n              0x00\n                /* \"#utility.yul\":11503:11505   */\n              0x20\n                /* \"#utility.yul\":11492:11501   */\n              dup3\n                /* \"#utility.yul\":11488:11506   */\n              add\n                /* \"#utility.yul\":11480:11506   */\n              swap1\n              pop\n                /* \"#utility.yul\":11552:11561   */\n              dup2\n                /* \"#utility.yul\":11546:11550   */\n              dup2\n                /* \"#utility.yul\":11542:11562   */\n              sub\n                /* \"#utility.yul\":11538:11539   */\n              0x00\n                /* \"#utility.yul\":11527:11536   */\n              dup4\n                /* \"#utility.yul\":11523:11540   */\n              add\n                /* \"#utility.yul\":11516:11563   */\n              mstore\n                /* \"#utility.yul\":11580:11711   */\n              tag_303\n                /* \"#utility.yul\":11706:11710   */\n              dup2\n                /* \"#utility.yul\":11580:11711   */\n              tag_165\n              jump\t// in\n            tag_303:\n                /* \"#utility.yul\":11572:11711   */\n              swap1\n              pop\n                /* \"#utility.yul\":11299:11718   */\n              swap2\n              swap1\n              pop\n              jump\t// out\n                /* \"#utility.yul\":11724:11906   */\n            tag_166:\n                /* \"#utility.yul\":11864:11898   */\n              0x4469726563746f72792063616e6e6f74206265207a65726f2061646472657373\n                /* \"#utility.yul\":11860:11861   */\n              0x00\n                /* \"#utility.yul\":11852:11858   */\n              dup3\n                /* \"#utility.yul\":11848:11862   */\n              add\n                /* \"#utility.yul\":11841:11899   */\n              mstore\n                /* \"#utility.yul\":11724:11906   */\n              pop\n              jump\t// out\n                /* \"#utility.yul\":11912:12278   */\n            tag_167:\n                /* \"#utility.yul\":12054:12057   */\n              0x00\n                /* \"#utility.yul\":12075:12142   */\n              tag_306\n                /* \"#utility.yul\":12139:12141   */\n              0x20\n                /* \"#utility.yul\":12134:12137   */\n              dup4\n                /* \"#utility.yul\":12075:12142   */\n              tag_155\n              jump\t// in\n            tag_306:\n                /* \"#utility.yul\":12068:12142   */\n              swap2\n              pop\n                /* \"#utility.yul\":12151:12244   */\n              tag_307\n                /* \"#utility.yul\":12240:12243   */\n              dup3\n                /* \"#utility.yul\":12151:12244   */\n              tag_166\n              jump\t// in\n            tag_307:\n                /* \"#utility.yul\":12269:12271   */\n              0x20\n                /* \"#utility.yul\":12264:12267   */\n              dup3\n                /* \"#utility.yul\":12260:12272   */\n              add\n                /* \"#utility.yul\":12253:12272   */\n              swap1\n              pop\n                /* \"#utility.yul\":11912:12278   */\n              swap2\n              swap1\n              pop\n              jump\t// out\n                /* \"#utility.yul\":12284:12703   */\n            tag_89:\n                /* \"#utility.yul\":12450:12454   */\n              0x00\n                /* \"#utility.yul\":12488:12490   */\n              0x20\n                /* \"#utility.yul\":12477:12486   */\n              dup3\n                /* \"#utility.yul\":12473:12491   */\n              add\n                /* \"#utility.yul\":12465:12491   */\n              swap1\n              pop\n                /* \"#utility.yul\":12537:12546   */\n              dup2\n                /* \"#utility.yul\":12531:12535   */\n              dup2\n                /* \"#utility.yul\":12527:12547   */\n              sub\n                /* \"#utility.yul\":12523:12524   */\n              0x00\n                /* \"#utility.yul\":12512:12521   */\n              dup4\n                /* \"#utility.yul\":12508:12525   */\n              add\n                /* \"#utility.yul\":12501:12548   */\n              mstore\n                /* \"#utility.yul\":12565:12696   */\n              tag_309\n                /* \"#utility.yul\":12691:12695   */\n              dup2\n                /* \"#utility.yul\":12565:12696   */\n              tag_167\n              jump\t// in\n            tag_309:\n                /* \"#utility.yul\":12557:12696   */\n              swap1\n              pop\n                /* \"#utility.yul\":12284:12703   */\n              swap2\n              swap1\n              pop\n              jump\t// out\n                /* \"#utility.yul\":12709:12887   */\n            tag_168:\n                /* \"#utility.yul\":12849:12879   */\n              0x4469726563746f7279206d757374206265206120636f6e747261637400000000\n                /* \"#utility.yul\":12845:12846   */\n              0x00\n                /* \"#utility.yul\":12837:12843   */\n              dup3\n                /* \"#utility.yul\":12833:12847   */\n              add\n                /* \"#utility.yul\":12826:12880   */\n              mstore\n                /* \"#utility.yul\":12709:12887   */\n              pop\n              jump\t// out\n                /* \"#utility.yul\":12893:13259   */\n            tag_169:\n                /* \"#utility.yul\":13035:13038   */\n              0x00\n                /* \"#utility.yul\":13056:13123   */\n              tag_312\n                /* \"#utility.yul\":13120:13122   */\n              0x1c\n                /* \"#utility.yul\":13115:13118   */\n              dup4\n                /* \"#utility.yul\":13056:13123   */\n              tag_155\n              jump\t// in\n            tag_312:\n                /* \"#utility.yul\":13049:13123   */\n              swap2\n              pop\n                /* \"#utility.yul\":13132:13225   */\n              tag_313\n                /* \"#utility.yul\":13221:13224   */\n              dup3\n                /* \"#utility.yul\":13132:13225   */\n              tag_168\n              jump\t// in\n            tag_313:\n                /* \"#utility.yul\":13250:13252   */\n              0x20\n                /* \"#utility.yul\":13245:13248   */\n              dup3\n                /* \"#utility.yul\":13241:13253   */\n              add\n                /* \"#utility.yul\":13234:13253   */\n              swap1\n              pop\n                /* \"#utility.yul\":12893:13259   */\n              swap2\n              swap1\n              pop\n              jump\t// out\n                /* \"#utility.yul\":13265:13684   */\n            tag_92:\n                /* \"#utility.yul\":13431:13435   */\n              0x00\n                /* \"#utility.yul\":13469:13471   */\n              0x20\n                /* \"#utility.yul\":13458:13467   */\n              dup3\n                /* \"#utility.yul\":13454:13472   */\n              add\n                /* \"#utility.yul\":13446:13472   */\n              swap1\n              pop\n                /* \"#utility.yul\":13518:13527   */\n              dup2\n                /* \"#utility.yul\":13512:13516   */\n              dup2\n                /* \"#utility.yul\":13508:13528   */\n              sub\n                /* \"#utility.yul\":13504:13505   */\n              0x00\n                /* \"#utility.yul\":13493:13502   */\n              dup4\n                /* \"#utility.yul\":13489:13506   */\n              add\n                /* \"#utility.yul\":13482:13529   */\n              mstore\n                /* \"#utility.yul\":13546:13677   */\n              tag_315\n                /* \"#utility.yul\":13672:13676   */\n              dup2\n                /* \"#utility.yul\":13546:13677   */\n              tag_169\n              jump\t// in\n            tag_315:\n                /* \"#utility.yul\":13538:13677   */\n              swap1\n              pop\n                /* \"#utility.yul\":13265:13684   */\n              swap2\n              swap1\n              pop\n              jump\t// out\n                /* \"#utility.yul\":13690:13921   */\n            tag_170:\n                /* \"#utility.yul\":13830:13864   */\n              0x4469726563746f7279206164647265737320646f6573206e6f7420696d706c65\n                /* \"#utility.yul\":13826:13827   */\n              0x00\n                /* \"#utility.yul\":13818:13824   */\n              dup3\n                /* \"#utility.yul\":13814:13828   */\n              add\n                /* \"#utility.yul\":13807:13865   */\n              mstore\n                /* \"#utility.yul\":13899:13913   */\n              0x6d656e74206f776e657228290000000000000000000000000000000000000000\n                /* \"#utility.yul\":13894:13896   */\n              0x20\n                /* \"#utility.yul\":13886:13892   */\n              dup3\n                /* \"#utility.yul\":13882:13897   */\n              add\n                /* \"#utility.yul\":13875:13914   */\n              mstore\n                /* \"#utility.yul\":13690:13921   */\n              pop\n              jump\t// out\n                /* \"#utility.yul\":13927:14293   */\n            tag_171:\n                /* \"#utility.yul\":14069:14072   */\n              0x00\n                /* \"#utility.yul\":14090:14157   */\n              tag_318\n                /* \"#utility.yul\":14154:14156   */\n              0x2c\n                /* \"#utility.yul\":14149:14152   */\n              dup4\n                /* \"#utility.yul\":14090:14157   */\n              tag_155\n              jump\t// in\n            tag_318:\n                /* \"#utility.yul\":14083:14157   */\n              swap2\n              pop\n                /* \"#utility.yul\":14166:14259   */\n              tag_319\n                /* \"#utility.yul\":14255:14258   */\n              dup3\n                /* \"#utility.yul\":14166:14259   */\n              tag_170\n              jump\t// in\n            tag_319:\n                /* \"#utility.yul\":14284:14286   */\n              0x40\n                /* \"#utility.yul\":14279:14282   */\n              dup3\n                /* \"#utility.yul\":14275:14287   */\n              add\n                /* \"#utility.yul\":14268:14287   */\n              swap1\n              pop\n                /* \"#utility.yul\":13927:14293   */\n              swap2\n              swap1\n              pop\n              jump\t// out\n                /* \"#utility.yul\":14299:14718   */\n            tag_100:\n                /* \"#utility.yul\":14465:14469   */\n              0x00\n                /* \"#utility.yul\":14503:14505   */\n              0x20\n                /* \"#utility.yul\":14492:14501   */\n              dup3\n                /* \"#utility.yul\":14488:14506   */\n              add\n                /* \"#utility.yul\":14480:14506   */\n              swap1\n              pop\n                /* \"#utility.yul\":14552:14561   */\n              dup2\n                /* \"#utility.yul\":14546:14550   */\n              dup2\n                /* \"#utility.yul\":14542:14562   */\n              sub\n                /* \"#utility.yul\":14538:14539   */\n              0x00\n                /* \"#utility.yul\":14527:14536   */\n              dup4\n                /* \"#utility.yul\":14523:14540   */\n              add\n                /* \"#utility.yul\":14516:14563   */\n              mstore\n                /* \"#utility.yul\":14580:14711   */\n              tag_321\n                /* \"#utility.yul\":14706:14710   */\n              dup2\n                /* \"#utility.yul\":14580:14711   */\n              tag_171\n              jump\t// in\n            tag_321:\n                /* \"#utility.yul\":14572:14711   */\n              swap1\n              pop\n                /* \"#utility.yul\":14299:14718   */\n              swap2\n              swap1\n              pop\n              jump\t// out\n                /* \"#utility.yul\":14724:14894   */\n            tag_172:\n                /* \"#utility.yul\":14864:14886   */\n              0x73656e644574683a207a65726f20616d6f756e74000000000000000000000000\n                /* \"#utility.yul\":14860:14861   */\n              0x00\n                /* \"#utility.yul\":14852:14858   */\n              dup3\n                /* \"#utility.yul\":14848:14862   */\n              add\n                /* \"#utility.yul\":14841:14887   */\n              mstore\n                /* \"#utility.yul\":14724:14894   */\n              pop\n              jump\t// out\n                /* \"#utility.yul\":14900:15266   */\n            tag_173:\n                /* \"#utility.yul\":15042:15045   */\n              0x00\n                /* \"#utility.yul\":15063:15130   */\n              tag_324\n                /* \"#utility.yul\":15127:15129   */\n              0x14\n                /* \"#utility.yul\":15122:15125   */\n              dup4\n                /* \"#utility.yul\":15063:15130   */\n              tag_155\n              jump\t// in\n            tag_324:\n                /* \"#utility.yul\":15056:15130   */\n              swap2\n              pop\n                /* \"#utility.yul\":15139:15232   */\n              tag_325\n                /* \"#utility.yul\":15228:15231   */\n              dup3\n                /* \"#utility.yul\":15139:15232   */\n              tag_172\n              jump\t// in\n            tag_325:\n                /* \"#utility.yul\":15257:15259   */\n              0x20\n                /* \"#utility.yul\":15252:15255   */\n              dup3\n                /* \"#utility.yul\":15248:15260   */\n              add\n                /* \"#utility.yul\":15241:15260   */\n              swap1\n              pop\n                /* \"#utility.yul\":14900:15266   */\n              swap2\n              swap1\n              pop\n              jump\t// out\n                /* \"#utility.yul\":15272:15691   */\n            tag_105:\n                /* \"#utility.yul\":15438:15442   */\n              0x00\n                /* \"#utility.yul\":15476:15478   */\n              0x20\n                /* \"#utility.yul\":15465:15474   */\n              dup3\n                /* \"#utility.yul\":15461:15479   */\n              add\n                /* \"#utility.yul\":15453:15479   */\n              swap1\n              pop\n                /* \"#utility.yul\":15525:15534   */\n              dup2\n                /* \"#utility.yul\":15519:15523   */\n              dup2\n                /* \"#utility.yul\":15515:15535   */\n              sub\n                /* \"#utility.yul\":15511:15512   */\n              0x00\n                /* \"#utility.yul\":15500:15509   */\n              dup4\n                /* \"#utility.yul\":15496:15513   */\n              add\n                /* \"#utility.yul\":15489:15536   */\n              mstore\n                /* \"#utility.yul\":15553:15684   */\n              tag_327\n                /* \"#utility.yul\":15679:15683   */\n              dup2\n                /* \"#utility.yul\":15553:15684   */\n              tag_173\n              jump\t// in\n            tag_327:\n                /* \"#utility.yul\":15545:15684   */\n              swap1\n              pop\n                /* \"#utility.yul\":15272:15691   */\n              swap2\n              swap1\n              pop\n              jump\t// out\n                /* \"#utility.yul\":15697:15872   */\n            tag_174:\n                /* \"#utility.yul\":15837:15864   */\n              0x73656e644574683a20696e73756666696369656e742045544800000000000000\n                /* \"#utility.yul\":15833:15834   */\n              0x00\n                /* \"#utility.yul\":15825:15831   */\n              dup3\n                /* \"#utility.yul\":15821:15835   */\n              add\n                /* \"#utility.yul\":15814:15865   */\n              mstore\n                /* \"#utility.yul\":15697:15872   */\n              pop\n              jump\t// out\n                /* \"#utility.yul\":15878:16244   */\n            tag_175:\n                /* \"#utility.yul\":16020:16023   */\n              0x00\n                /* \"#utility.yul\":16041:16108   */\n              tag_330\n                /* \"#utility.yul\":16105:16107   */\n              0x19\n                /* \"#utility.yul\":16100:16103   */\n              dup4\n                /* \"#utility.yul\":16041:16108   */\n              tag_155\n              jump\t// in\n            tag_330:\n                /* \"#utility.yul\":16034:16108   */\n              swap2\n              pop\n                /* \"#utility.yul\":16117:16210   */\n              tag_331\n                /* \"#utility.yul\":16206:16209   */\n              dup3\n                /* \"#utility.yul\":16117:16210   */\n              tag_174\n              jump\t// in\n            tag_331:\n                /* \"#utility.yul\":16235:16237   */\n              0x20\n                /* \"#utility.yul\":16230:16233   */\n              dup3\n                /* \"#utility.yul\":16226:16238   */\n              add\n                /* \"#utility.yul\":16219:16238   */\n              swap1\n              pop\n                /* \"#utility.yul\":15878:16244   */\n              swap2\n              swap1\n              pop\n              jump\t// out\n                /* \"#utility.yul\":16250:16669   */\n            tag_108:\n                /* \"#utility.yul\":16416:16420   */\n              0x00\n                /* \"#utility.yul\":16454:16456   */\n              0x20\n                /* \"#utility.yul\":16443:16452   */\n              dup3\n                /* \"#utility.yul\":16439:16457   */\n              add\n                /* \"#utility.yul\":16431:16457   */\n              swap1\n              pop\n                /* \"#utility.yul\":16503:16512   */\n              dup2\n                /* \"#utility.yul\":16497:16501   */\n              dup2\n                /* \"#utility.yul\":16493:16513   */\n              sub\n                /* \"#utility.yul\":16489:16490   */\n              0x00\n                /* \"#utility.yul\":16478:16487   */\n              dup4\n                /* \"#utility.yul\":16474:16491   */\n              add\n                /* \"#utility.yul\":16467:16514   */\n              mstore\n                /* \"#utility.yul\":16531:16662   */\n              tag_333\n                /* \"#utility.yul\":16657:16661   */\n              dup2\n                /* \"#utility.yul\":16531:16662   */\n              tag_175\n              jump\t// in\n            tag_333:\n                /* \"#utility.yul\":16523:16662   */\n              swap1\n              pop\n                /* \"#utility.yul\":16250:16669   */\n              swap2\n              swap1\n              pop\n              jump\t// out\n                /* \"#utility.yul\":16675:16822   */\n            tag_176:\n                /* \"#utility.yul\":16776:16787   */\n              0x00\n                /* \"#utility.yul\":16813:16816   */\n              dup2\n                /* \"#utility.yul\":16798:16816   */\n              swap1\n              pop\n                /* \"#utility.yul\":16675:16822   */\n              swap3\n              swap2\n              pop\n              pop\n              jump\t// out\n                /* \"#utility.yul\":16828:16942   */\n            tag_177:\n              pop\n              jump\t// out\n                /* \"#utility.yul\":16948:17346   */\n            tag_178:\n                /* \"#utility.yul\":17107:17110   */\n              0x00\n                /* \"#utility.yul\":17128:17211   */\n              tag_337\n                /* \"#utility.yul\":17209:17210   */\n              0x00\n                /* \"#utility.yul\":17204:17207   */\n              dup4\n                /* \"#utility.yul\":17128:17211   */\n              tag_176\n              jump\t// in\n            tag_337:\n                /* \"#utility.yul\":17121:17211   */\n              swap2\n              pop\n                /* \"#utility.yul\":17220:17313   */\n              tag_338\n                /* \"#utility.yul\":17309:17312   */\n              dup3\n                /* \"#utility.yul\":17220:17313   */\n              tag_177\n              jump\t// in\n            tag_338:\n                /* \"#utility.yul\":17338:17339   */\n              0x00\n                /* \"#utility.yul\":17333:17336   */\n              dup3\n                /* \"#utility.yul\":17329:17340   */\n              add\n                /* \"#utility.yul\":17322:17340   */\n              swap1\n              pop\n                /* \"#utility.yul\":16948:17346   */\n              swap2\n              swap1\n              pop\n              jump\t// out\n                /* \"#utility.yul\":17352:17731   */\n            tag_110:\n                /* \"#utility.yul\":17536:17539   */\n              0x00\n                /* \"#utility.yul\":17558:17705   */\n              tag_340\n                /* \"#utility.yul\":17701:17704   */\n              dup3\n                /* \"#utility.yul\":17558:17705   */\n              tag_178\n              jump\t// in\n            tag_340:\n                /* \"#utility.yul\":17551:17705   */\n              swap2\n              pop\n                /* \"#utility.yul\":17722:17725   */\n              dup2\n                /* \"#utility.yul\":17715:17725   */\n              swap1\n              pop\n                /* \"#utility.yul\":17352:17731   */\n              swap2\n              swap1\n              pop\n              jump\t// out\n                /* \"#utility.yul\":17737:17902   */\n            tag_179:\n                /* \"#utility.yul\":17877:17894   */\n              0x4554482073656e64206661696c65640000000000000000000000000000000000\n                /* \"#utility.yul\":17873:17874   */\n              0x00\n                /* \"#utility.yul\":17865:17871   */\n              dup3\n                /* \"#utility.yul\":17861:17875   */\n              add\n                /* \"#utility.yul\":17854:17895   */\n              mstore\n                /* \"#utility.yul\":17737:17902   */\n              pop\n              jump\t// out\n                /* \"#utility.yul\":17908:18274   */\n            tag_180:\n                /* \"#utility.yul\":18050:18053   */\n              0x00\n                /* \"#utility.yul\":18071:18138   */\n              tag_343\n                /* \"#utility.yul\":18135:18137   */\n              0x0f\n                /* \"#utility.yul\":18130:18133   */\n              dup4\n                /* \"#utility.yul\":18071:18138   */\n              tag_155\n              jump\t// in\n            tag_343:\n                /* \"#utility.yul\":18064:18138   */\n              swap2\n              pop\n                /* \"#utility.yul\":18147:18240   */\n              tag_344\n                /* \"#utility.yul\":18236:18239   */\n              dup3\n                /* \"#utility.yul\":18147:18240   */\n              tag_179\n              jump\t// in\n            tag_344:\n                /* \"#utility.yul\":18265:18267   */\n              0x20\n                /* \"#utility.yul\":18260:18263   */\n              dup3\n                /* \"#utility.yul\":18256:18268   */\n              add\n                /* \"#utility.yul\":18249:18268   */\n              swap1\n              pop\n                /* \"#utility.yul\":17908:18274   */\n              swap2\n              swap1\n              pop\n              jump\t// out\n                /* \"#utility.yul\":18280:18699   */\n            tag_116:\n                /* \"#utility.yul\":18446:18450   */\n              0x00\n                /* \"#utility.yul\":18484:18486   */\n              0x20\n                /* \"#utility.yul\":18473:18482   */\n              dup3\n                /* \"#utility.yul\":18469:18487   */\n              add\n                /* \"#utility.yul\":18461:18487   */\n              swap1\n              pop\n                /* \"#utility.yul\":18533:18542   */\n              dup2\n                /* \"#utility.yul\":18527:18531   */\n              dup2\n                /* \"#utility.yul\":18523:18543   */\n              sub\n                /* \"#utility.yul\":18519:18520   */\n              0x00\n                /* \"#utility.yul\":18508:18517   */\n              dup4\n                /* \"#utility.yul\":18504:18521   */\n              add\n                /* \"#utility.yul\":18497:18544   */\n              mstore\n                /* \"#utility.yul\":18561:18692   */\n              tag_346\n                /* \"#utility.yul\":18687:18691   */\n              dup2\n                /* \"#utility.yul\":18561:18692   */\n              tag_180\n              jump\t// in\n            tag_346:\n                /* \"#utility.yul\":18553:18692   */\n              swap1\n              pop\n                /* \"#utility.yul\":18280:18699   */\n              swap2\n              swap1\n              pop\n              jump\t// out\n                /* \"#utility.yul\":18705:18823   */\n            tag_181:\n                /* \"#utility.yul\":18792:18816   */\n              tag_348\n                /* \"#utility.yul\":18810:18815   */\n              dup2\n                /* \"#utility.yul\":18792:18816   */\n              tag_146\n              jump\t// in\n            tag_348:\n                /* \"#utility.yul\":18787:18790   */\n              dup3\n                /* \"#utility.yul\":18780:18817   */\n              mstore\n                /* \"#utility.yul\":18705:18823   */\n              pop\n              pop\n              jump\t// out\n                /* \"#utility.yul\":18829:19161   */\n            tag_120:\n                /* \"#utility.yul\":18950:18954   */\n              0x00\n                /* \"#utility.yul\":18988:18990   */\n              0x40\n                /* \"#utility.yul\":18977:18986   */\n              dup3\n                /* \"#utility.yul\":18973:18991   */\n              add\n                /* \"#utility.yul\":18965:18991   */\n              swap1\n              pop\n                /* \"#utility.yul\":19001:19072   */\n              tag_350\n                /* \"#utility.yul\":19069:19070   */\n              0x00\n                /* \"#utility.yul\":19058:19067   */\n              dup4\n                /* \"#utility.yul\":19054:19071   */\n              add\n                /* \"#utility.yul\":19045:19051   */\n              dup6\n                /* \"#utility.yul\":19001:19072   */\n              tag_143\n              jump\t// in\n            tag_350:\n                /* \"#utility.yul\":19082:19154   */\n              tag_351\n                /* \"#utility.yul\":19150:19152   */\n              0x20\n                /* \"#utility.yul\":19139:19148   */\n              dup4\n                /* \"#utility.yul\":19135:19153   */\n              add\n                /* \"#utility.yul\":19126:19132   */\n              dup5\n                /* \"#utility.yul\":19082:19154   */\n              tag_181\n              jump\t// in\n            tag_351:\n                /* \"#utility.yul\":18829:19161   */\n              swap4\n              swap3\n              pop\n              pop\n              pop\n              jump\t// out\n\n            auxdata: 0xa2646970667358221220b403da5d4a10a28621fe515e2ce77bc20f57074466950d302d9ad6b93afd2cb364736f6c634300081e0033\n        }\n    }\n\n    auxdata: 0xa2646970667358221220fbf071097315d9bc3ca242fcf5720d19520f26f8448a5141cfc2d37e9a0d29bd64736f6c634300081e0033\n}\n",
				"bytecode": {
					"linkReferences": {},
					"object": "608060405234801561000f575f5ffd5b5060405161280438038061280483398181016040528101906100319190610257565b806100418161004860201b60201c565b50506103f0565b5f73ffffffffffffffffffffffffffffffffffffffff168173ffffffffffffffffffffffffffffffffffffffff16036100b6576040517f08c379a00000000000000000000000000000000000000000000000000000000081526004016100ad906102dc565b60405180910390fd5b5f8173ffffffffffffffffffffffffffffffffffffffff163b1161010f576040517f08c379a000000000000000000000000000000000000000000000000000000000815260040161010690610344565b60405180910390fd5b8073ffffffffffffffffffffffffffffffffffffffff16638da5cb5b6040518163ffffffff1660e01b8152600401602060405180830381865afa92505050801561017757506040513d601f19601f820116820180604052508101906101749190610257565b60015b6101b6576040517f08c379a00000000000000000000000000000000000000000000000000000000081526004016101ad906103d2565b60405180910390fd5b815f5f6101000a81548173ffffffffffffffffffffffffffffffffffffffff021916908373ffffffffffffffffffffffffffffffffffffffff1602179055505050565b5f5ffd5b5f73ffffffffffffffffffffffffffffffffffffffff82169050919050565b5f610226826101fd565b9050919050565b6102368161021c565b8114610240575f5ffd5b50565b5f815190506102518161022d565b92915050565b5f6020828403121561026c5761026b6101f9565b5b5f61027984828501610243565b91505092915050565b5f82825260208201905092915050565b7f4469726563746f72792063616e6e6f74206265207a65726f20616464726573735f82015250565b5f6102c6602083610282565b91506102d182610292565b602082019050919050565b5f6020820190508181035f8301526102f3816102ba565b9050919050565b7f4469726563746f7279206d757374206265206120636f6e7472616374000000005f82015250565b5f61032e601c83610282565b9150610339826102fa565b602082019050919050565b5f6020820190508181035f83015261035b81610322565b9050919050565b7f4469726563746f7279206164647265737320646f6573206e6f7420696d706c655f8201527f6d656e74206f776e657228290000000000000000000000000000000000000000602082015250565b5f6103bc602c83610282565b91506103c782610362565b604082019050919050565b5f6020820190508181035f8301526103e9816103b0565b9050919050565b612407806103fd5f395ff3fe608060405234801561000f575f5ffd5b5060043610610055575f3560e01c80632726261814610059578063658a847a146100895780638da5cb5b146100a7578063b57c59a7146100c5578063ba4c7be1146100f5575b5f5ffd5b610073600480360381019061006e91906107bf565b610111565b6040516100809190610845565b60405180910390f35b6100916101b1565b60405161009e91906108b9565b60405180910390f35b6100af6101d5565b6040516100bc9190610845565b60405180910390f35b6100df60048036038101906100da9190610905565b610268565b6040516100ec9190610845565b60405180910390f35b61010f600480360381019061010a919061095a565b6103ae565b005b5f5f5f9054906101000a900473ffffffffffffffffffffffffffffffffffffffff1673ffffffffffffffffffffffffffffffffffffffff166327262618836040518263ffffffff1660e01b815260040161016b91906109e5565b602060405180830381865afa158015610186573d5f5f3e3d5ffd5b505050506040513d601f19601f820116820180604052508101906101aa9190610a19565b9050919050565b5f5f9054906101000a900473ffffffffffffffffffffffffffffffffffffffff1681565b5f5f5f9054906101000a900473ffffffffffffffffffffffffffffffffffffffff1673ffffffffffffffffffffffffffffffffffffffff16638da5cb5b6040518163ffffffff1660e01b8152600401602060405180830381865afa15801561023f573d5f5f3e3d5ffd5b505050506040513d601f19601f820116820180604052508101906102639190610a19565b905090565b5f6102a76040518060400160405280600b81526020017f6574662d666163746f7279000000000000000000000000000000000000000000815250610111565b73ffffffffffffffffffffffffffffffffffffffff163373ffffffffffffffffffffffffffffffffffffffff1614610314576040517f08c379a000000000000000000000000000000000000000000000000000000000815260040161030b90610a8e565b60405180910390fd5b5f5f5f9054906101000a900473ffffffffffffffffffffffffffffffffffffffff1660405161034290610665565b61034c9190610845565b604051809103905ff080158015610365573d5f5f3e3d5ffd5b5090505f819050837fb40972ab04998c21214527661a10d8f39921f4ab74c6e9874df14c1613cd17e68260405161039c9190610845565b60405180910390a28092505050919050565b5f5f9054906101000a900473ffffffffffffffffffffffffffffffffffffffff1673ffffffffffffffffffffffffffffffffffffffff16638da5cb5b6040518163ffffffff1660e01b8152600401602060405180830381865afa158015610417573d5f5f3e3d5ffd5b505050506040513d601f19601f8201168201806040525081019061043b9190610a19565b73ffffffffffffffffffffffffffffffffffffffff163373ffffffffffffffffffffffffffffffffffffffff16146104a8576040517f08c379a000000000000000000000000000000000000000000000000000000000815260040161049f90610af6565b60405180910390fd5b6104b1816104b4565b50565b5f73ffffffffffffffffffffffffffffffffffffffff168173ffffffffffffffffffffffffffffffffffffffff1603610522576040517f08c379a000000000000000000000000000000000000000000000000000000000815260040161051990610b5e565b60405180910390fd5b5f8173ffffffffffffffffffffffffffffffffffffffff163b1161057b576040517f08c379a000000000000000000000000000000000000000000000000000000000815260040161057290610bc6565b60405180910390fd5b8073ffffffffffffffffffffffffffffffffffffffff16638da5cb5b6040518163ffffffff1660e01b8152600401602060405180830381865afa9250505080156105e357506040513d601f19601f820116820180604052508101906105e09190610a19565b60015b610622576040517f08c379a000000000000000000000000000000000000000000000000000000000815260040161061990610c54565b60405180910390fd5b815f5f6101000a81548173ffffffffffffffffffffffffffffffffffffffff021916908373ffffffffffffffffffffffffffffffffffffffff1602179055505050565b61175f80610c7383390190565b5f604051905090565b5f5ffd5b5f5ffd5b5f5ffd5b5f5ffd5b5f601f19601f8301169050919050565b7f4e487b71000000000000000000000000000000000000000000000000000000005f52604160045260245ffd5b6106d18261068b565b810181811067ffffffffffffffff821117156106f0576106ef61069b565b5b80604052505050565b5f610702610672565b905061070e82826106c8565b919050565b5f67ffffffffffffffff82111561072d5761072c61069b565b5b6107368261068b565b9050602081019050919050565b828183375f83830152505050565b5f61076361075e84610713565b6106f9565b90508281526020810184848401111561077f5761077e610687565b5b61078a848285610743565b509392505050565b5f82601f8301126107a6576107a5610683565b5b81356107b6848260208601610751565b91505092915050565b5f602082840312156107d4576107d361067b565b5b5f82013567ffffffffffffffff8111156107f1576107f061067f565b5b6107fd84828501610792565b91505092915050565b5f73ffffffffffffffffffffffffffffffffffffffff82169050919050565b5f61082f82610806565b9050919050565b61083f81610825565b82525050565b5f6020820190506108585f830184610836565b92915050565b5f819050919050565b5f61088161087c61087784610806565b61085e565b610806565b9050919050565b5f61089282610867565b9050919050565b5f6108a382610888565b9050919050565b6108b381610899565b82525050565b5f6020820190506108cc5f8301846108aa565b92915050565b5f819050919050565b6108e4816108d2565b81146108ee575f5ffd5b50565b5f813590506108ff816108db565b92915050565b5f6020828403121561091a5761091961067b565b5b5f610927848285016108f1565b91505092915050565b61093981610825565b8114610943575f5ffd5b50565b5f8135905061095481610930565b92915050565b5f6020828403121561096f5761096e61067b565b5b5f61097c84828501610946565b91505092915050565b5f81519050919050565b5f82825260208201905092915050565b8281835e5f83830152505050565b5f6109b782610985565b6109c1818561098f565b93506109d181856020860161099f565b6109da8161068b565b840191505092915050565b5f6020820190508181035f8301526109fd81846109ad565b905092915050565b5f81519050610a1381610930565b92915050565b5f60208284031215610a2e57610a2d61067b565b5b5f610a3b84828501610a05565b91505092915050565b7f6d73672e73656e646572206973206e6f742065746620666163746f72790000005f82015250565b5f610a78601d8361098f565b9150610a8382610a44565b602082019050919050565b5f6020820190508181035f830152610aa581610a6c565b9050919050565b7f43616c6c6572206973206e6f7420746865206f776e65720000000000000000005f82015250565b5f610ae060178361098f565b9150610aeb82610aac565b602082019050919050565b5f6020820190508181035f830152610b0d81610ad4565b9050919050565b7f4469726563746f72792063616e6e6f74206265207a65726f20616464726573735f82015250565b5f610b4860208361098f565b9150610b5382610b14565b602082019050919050565b5f6020820190508181035f830152610b7581610b3c565b9050919050565b7f4469726563746f7279206d757374206265206120636f6e7472616374000000005f82015250565b5f610bb0601c8361098f565b9150610bbb82610b7c565b602082019050919050565b5f6020820190508181035f830152610bdd81610ba4565b9050919050565b7f4469726563746f7279206164647265737320646f6573206e6f7420696d706c655f8201527f6d656e74206f776e657228290000000000000000000000000000000000000000602082015250565b5f610c3e602c8361098f565b9150610c4982610be4565b604082019050919050565b5f6020820190508181035f830152610c6b81610c32565b905091905056fe608060405234801561000f575f5ffd5b5060405161175f38038061175f83398181016040528101906100319190610257565b806100418161004860201b60201c565b50506103f0565b5f73ffffffffffffffffffffffffffffffffffffffff168173ffffffffffffffffffffffffffffffffffffffff16036100b6576040517f08c379a00000000000000000000000000000000000000000000000000000000081526004016100ad906102dc565b60405180910390fd5b5f8173ffffffffffffffffffffffffffffffffffffffff163b1161010f576040517f08c379a000000000000000000000000000000000000000000000000000000000815260040161010690610344565b60405180910390fd5b8073ffffffffffffffffffffffffffffffffffffffff16638da5cb5b6040518163ffffffff1660e01b8152600401602060405180830381865afa92505050801561017757506040513d601f19601f820116820180604052508101906101749190610257565b60015b6101b6576040517f08c379a00000000000000000000000000000000000000000000000000000000081526004016101ad906103d2565b60405180910390fd5b815f5f6101000a81548173ffffffffffffffffffffffffffffffffffffffff021916908373ffffffffffffffffffffffffffffffffffffffff1602179055505050565b5f5ffd5b5f73ffffffffffffffffffffffffffffffffffffffff82169050919050565b5f610226826101fd565b9050919050565b6102368161021c565b8114610240575f5ffd5b50565b5f815190506102518161022d565b92915050565b5f6020828403121561026c5761026b6101f9565b5b5f61027984828501610243565b91505092915050565b5f82825260208201905092915050565b7f4469726563746f72792063616e6e6f74206265207a65726f20616464726573735f82015250565b5f6102c6602083610282565b91506102d182610292565b602082019050919050565b5f6020820190508181035f8301526102f3816102ba565b9050919050565b7f4469726563746f7279206d757374206265206120636f6e7472616374000000005f82015250565b5f61032e601c83610282565b9150610339826102fa565b602082019050919050565b5f6020820190508181035f83015261035b81610322565b9050919050565b7f4469726563746f7279206164647265737320646f6573206e6f7420696d706c655f8201527f6d656e74206f776e657228290000000000000000000000000000000000000000602082015250565b5f6103bc602c83610282565b91506103c782610362565b604082019050919050565b5f6020820190508181035f8301526103e9816103b0565b9050919050565b611362806103fd5f395ff3fe608060405234801561000f575f5ffd5b5060043610610060575f3560e01c806327262618146100645780635c833bfd14610094578063658a847a146100b05780638da5cb5b146100ce578063ba4c7be1146100ec578063f940e38514610108575b5f5ffd5b61007e60048036038101906100799190610bc0565b610124565b60405161008b9190610c46565b60405180910390f35b6100ae60048036038101906100a99190610cbc565b6101c4565b005b6100b861027f565b6040516100c59190610d67565b60405180910390f35b6100d66102a3565b6040516100e39190610c46565b60405180910390f35b61010660048036038101906101019190610d80565b610336565b005b610122600480360381019061011d9190610dab565b61043c565b005b5f5f5f9054906101000a900473ffffffffffffffffffffffffffffffffffffffff1673ffffffffffffffffffffffffffffffffffffffff166327262618836040518263ffffffff1660e01b815260040161017e9190610e49565b602060405180830381865afa158015610199573d5f5f3e3d5ffd5b505050506040513d601f19601f820116820180604052508101906101bd9190610e7d565b9050919050565b6102026040518060400160405280600a81526020017f6574662d726f7574657200000000000000000000000000000000000000000000815250610124565b73ffffffffffffffffffffffffffffffffffffffff163373ffffffffffffffffffffffffffffffffffffffff161461026f576040517f08c379a000000000000000000000000000000000000000000000000000000000815260040161026690610ef2565b60405180910390fd5b61027a8382846105ff565b505050565b5f5f9054906101000a900473ffffffffffffffffffffffffffffffffffffffff1681565b5f5f5f9054906101000a900473ffffffffffffffffffffffffffffffffffffffff1673ffffffffffffffffffffffffffffffffffffffff16638da5cb5b6040518163ffffffff1660e01b8152600401602060405180830381865afa15801561030d573d5f5f3e3d5ffd5b505050506040513d601f19601f820116820180604052508101906103319190610e7d565b905090565b5f5f9054906101000a900473ffffffffffffffffffffffffffffffffffffffff1673ffffffffffffffffffffffffffffffffffffffff16638da5cb5b6040518163ffffffff1660e01b8152600401602060405180830381865afa15801561039f573d5f5f3e3d5ffd5b505050506040513d601f19601f820116820180604052508101906103c39190610e7d565b73ffffffffffffffffffffffffffffffffffffffff163373ffffffffffffffffffffffffffffffffffffffff1614610430576040517f08c379a000000000000000000000000000000000000000000000000000000000815260040161042790610f5a565b60405180910390fd5b61043981610676565b50565b5f5f9054906101000a900473ffffffffffffffffffffffffffffffffffffffff1673ffffffffffffffffffffffffffffffffffffffff16638da5cb5b6040518163ffffffff1660e01b8152600401602060405180830381865afa1580156104a5573d5f5f3e3d5ffd5b505050506040513d601f19601f820116820180604052508101906104c99190610e7d565b73ffffffffffffffffffffffffffffffffffffffff163373ffffffffffffffffffffffffffffffffffffffff1614610536576040517f08c379a000000000000000000000000000000000000000000000000000000000815260040161052d90610f5a565b60405180910390fd5b5f73ffffffffffffffffffffffffffffffffffffffff168273ffffffffffffffffffffffffffffffffffffffff1603610578576105738147610827565b6105fb565b6105fa82828473ffffffffffffffffffffffffffffffffffffffff166370a08231306040518263ffffffff1660e01b81526004016105b69190610c46565b602060405180830381865afa1580156105d1573d5f5f3e3d5ffd5b505050506040513d601f19601f820116820180604052508101906105f59190610f8c565b6105ff565b5b5050565b5f8390505f8211610645576040517f08c379a000000000000000000000000000000000000000000000000000000000815260040161063c90611001565b60405180910390fd5b61067083838373ffffffffffffffffffffffffffffffffffffffff166109599092919063ffffffff16565b50505050565b5f73ffffffffffffffffffffffffffffffffffffffff168173ffffffffffffffffffffffffffffffffffffffff16036106e4576040517f08c379a00000000000000000000000000000000000000000000000000000000081526004016106db90611069565b60405180910390fd5b5f8173ffffffffffffffffffffffffffffffffffffffff163b1161073d576040517f08c379a0000000000000000000000000000000000000000000000000000000008152600401610734906110d1565b60405180910390fd5b8073ffffffffffffffffffffffffffffffffffffffff16638da5cb5b6040518163ffffffff1660e01b8152600401602060405180830381865afa9250505080156107a557506040513d601f19601f820116820180604052508101906107a29190610e7d565b60015b6107e4576040517f08c379a00000000000000000000000000000000000000000000000000000000081526004016107db9061115f565b60405180910390fd5b815f5f6101000a81548173ffffffffffffffffffffffffffffffffffffffff021916908373ffffffffffffffffffffffffffffffffffffffff1602179055505050565b5f8111610869576040517f08c379a0000000000000000000000000000000000000000000000000000000008152600401610860906111c7565b60405180910390fd5b804710156108ac576040517f08c379a00000000000000000000000000000000000000000000000000000000081526004016108a39061122f565b60405180910390fd5b5f8273ffffffffffffffffffffffffffffffffffffffff16826040516108d19061127a565b5f6040518083038185875af1925050503d805f811461090b576040519150601f19603f3d011682016040523d82523d5f602084013e610910565b606091505b5050905080610954576040517f08c379a000000000000000000000000000000000000000000000000000000000815260040161094b906112d8565b60405180910390fd5b505050565b6109d3838473ffffffffffffffffffffffffffffffffffffffff1663a9059cbb858560405160240161098c929190611305565b604051602081830303815290604052915060e01b6020820180517bffffffffffffffffffffffffffffffffffffffffffffffffffffffff83818316178352505050506109d8565b505050565b5f5f60205f8451602086015f885af1806109f7576040513d5f823e3d81fd5b3d92505f519150505f8214610a10576001811415610a2b565b5f8473ffffffffffffffffffffffffffffffffffffffff163b145b15610a6d57836040517f5274afe7000000000000000000000000000000000000000000000000000000008152600401610a649190610c46565b60405180910390fd5b50505050565b5f604051905090565b5f5ffd5b5f5ffd5b5f5ffd5b5f5ffd5b5f601f19601f8301169050919050565b7f4e487b71000000000000000000000000000000000000000000000000000000005f52604160045260245ffd5b610ad282610a8c565b810181811067ffffffffffffffff82111715610af157610af0610a9c565b5b80604052505050565b5f610b03610a73565b9050610b0f8282610ac9565b919050565b5f67ffffffffffffffff821115610b2e57610b2d610a9c565b5b610b3782610a8c565b9050602081019050919050565b828183375f83830152505050565b5f610b64610b5f84610b14565b610afa565b905082815260208101848484011115610b8057610b7f610a88565b5b610b8b848285610b44565b509392505050565b5f82601f830112610ba757610ba6610a84565b5b8135610bb7848260208601610b52565b91505092915050565b5f60208284031215610bd557610bd4610a7c565b5b5f82013567ffffffffffffffff811115610bf257610bf1610a80565b5b610bfe84828501610b93565b91505092915050565b5f73ffffffffffffffffffffffffffffffffffffffff82169050919050565b5f610c3082610c07565b9050919050565b610c4081610c26565b82525050565b5f602082019050610c595f830184610c37565b92915050565b610c6881610c26565b8114610c72575f5ffd5b50565b5f81359050610c8381610c5f565b92915050565b5f819050919050565b610c9b81610c89565b8114610ca5575f5ffd5b50565b5f81359050610cb681610c92565b92915050565b5f5f5f60608486031215610cd357610cd2610a7c565b5b5f610ce086828701610c75565b9350506020610cf186828701610ca8565b9250506040610d0286828701610c75565b9150509250925092565b5f819050919050565b5f610d2f610d2a610d2584610c07565b610d0c565b610c07565b9050919050565b5f610d4082610d15565b9050919050565b5f610d5182610d36565b9050919050565b610d6181610d47565b82525050565b5f602082019050610d7a5f830184610d58565b92915050565b5f60208284031215610d9557610d94610a7c565b5b5f610da284828501610c75565b91505092915050565b5f5f60408385031215610dc157610dc0610a7c565b5b5f610dce85828601610c75565b9250506020610ddf85828601610c75565b9150509250929050565b5f81519050919050565b5f82825260208201905092915050565b8281835e5f83830152505050565b5f610e1b82610de9565b610e258185610df3565b9350610e35818560208601610e03565b610e3e81610a8c565b840191505092915050565b5f6020820190508181035f830152610e618184610e11565b905092915050565b5f81519050610e7781610c5f565b92915050565b5f60208284031215610e9257610e91610a7c565b5b5f610e9f84828501610e69565b91505092915050565b7f6d73672e73656e646572206973206e6f742065746620726f75746572000000005f82015250565b5f610edc601c83610df3565b9150610ee782610ea8565b602082019050919050565b5f6020820190508181035f830152610f0981610ed0565b9050919050565b7f43616c6c6572206973206e6f7420746865206f776e65720000000000000000005f82015250565b5f610f44601783610df3565b9150610f4f82610f10565b602082019050919050565b5f6020820190508181035f830152610f7181610f38565b9050919050565b5f81519050610f8681610c92565b92915050565b5f60208284031215610fa157610fa0610a7c565b5b5f610fae84828501610f78565b91505092915050565b7f73656e64546f6b656e3a207a65726f20616d6f756e74000000000000000000005f82015250565b5f610feb601683610df3565b9150610ff682610fb7565b602082019050919050565b5f6020820190508181035f83015261101881610fdf565b9050919050565b7f4469726563746f72792063616e6e6f74206265207a65726f20616464726573735f82015250565b5f611053602083610df3565b915061105e8261101f565b602082019050919050565b5f6020820190508181035f83015261108081611047565b9050919050565b7f4469726563746f7279206d757374206265206120636f6e7472616374000000005f82015250565b5f6110bb601c83610df3565b91506110c682611087565b602082019050919050565b5f6020820190508181035f8301526110e8816110af565b9050919050565b7f4469726563746f7279206164647265737320646f6573206e6f7420696d706c655f8201527f6d656e74206f776e657228290000000000000000000000000000000000000000602082015250565b5f611149602c83610df3565b9150611154826110ef565b604082019050919050565b5f6020820190508181035f8301526111768161113d565b9050919050565b7f73656e644574683a207a65726f20616d6f756e740000000000000000000000005f82015250565b5f6111b1601483610df3565b91506111bc8261117d565b602082019050919050565b5f6020820190508181035f8301526111de816111a5565b9050919050565b7f73656e644574683a20696e73756666696369656e7420455448000000000000005f82015250565b5f611219601983610df3565b9150611224826111e5565b602082019050919050565b5f6020820190508181035f8301526112468161120d565b9050919050565b5f81905092915050565b50565b5f6112655f8361124d565b915061127082611257565b5f82019050919050565b5f6112848261125a565b9150819050919050565b7f4554482073656e64206661696c656400000000000000000000000000000000005f82015250565b5f6112c2600f83610df3565b91506112cd8261128e565b602082019050919050565b5f6020820190508181035f8301526112ef816112b6565b9050919050565b6112ff81610c89565b82525050565b5f6040820190506113185f830185610c37565b61132560208301846112f6565b939250505056fea2646970667358221220b403da5d4a10a28621fe515e2ce77bc20f57074466950d302d9ad6b93afd2cb364736f6c634300081e0033a2646970667358221220fbf071097315d9bc3ca242fcf5720d19520f26f8448a5141cfc2d37e9a0d29bd64736f6c634300081e0033",
					"opcodes": "PUSH1 0x80 PUSH1 0x40 MSTORE CALLVALUE DUP1 ISZERO PUSH2 0xF JUMPI PUSH0 PUSH0 REVERT JUMPDEST POP PUSH1 0x40 MLOAD PUSH2 0x2804 CODESIZE SUB DUP1 PUSH2 0x2804 DUP4 CODECOPY DUP2 DUP2 ADD PUSH1 0x40 MSTORE DUP2 ADD SWAP1 PUSH2 0x31 SWAP2 SWAP1 PUSH2 0x257 JUMP JUMPDEST DUP1 PUSH2 0x41 DUP2 PUSH2 0x48 PUSH1 0x20 SHL PUSH1 0x20 SHR JUMP JUMPDEST POP POP PUSH2 0x3F0 JUMP JUMPDEST PUSH0 PUSH20 0xFFFFFFFFFFFFFFFFFFFFFFFFFFFFFFFFFFFFFFFF AND DUP2 PUSH20 0xFFFFFFFFFFFFFFFFFFFFFFFFFFFFFFFFFFFFFFFF AND SUB PUSH2 0xB6 JUMPI PUSH1 0x40 MLOAD PUSH32 0x8C379A000000000000000000000000000000000000000000000000000000000 DUP2 MSTORE PUSH1 0x4 ADD PUSH2 0xAD SWAP1 PUSH2 0x2DC JUMP JUMPDEST PUSH1 0x40 MLOAD DUP1 SWAP2 SUB SWAP1 REVERT JUMPDEST PUSH0 DUP2 PUSH20 0xFFFFFFFFFFFFFFFFFFFFFFFFFFFFFFFFFFFFFFFF AND EXTCODESIZE GT PUSH2 0x10F JUMPI PUSH1 0x40 MLOAD PUSH32 0x8C379A000000000000000000000000000000000000000000000000000000000 DUP2 MSTORE PUSH1 0x4 ADD PUSH2 0x106 SWAP1 PUSH2 0x344 JUMP JUMPDEST PUSH1 0x40 MLOAD DUP1 SWAP2 SUB SWAP1 REVERT JUMPDEST DUP1 PUSH20 0xFFFFFFFFFFFFFFFFFFFFFFFFFFFFFFFFFFFFFFFF AND PUSH4 0x8DA5CB5B PUSH1 0x40 MLOAD DUP2 PUSH4 0xFFFFFFFF AND PUSH1 0xE0 SHL DUP2 MSTORE PUSH1 0x4 ADD PUSH1 0x20 PUSH1 0x40 MLOAD DUP1 DUP4 SUB DUP2 DUP7 GAS STATICCALL SWAP3 POP POP POP DUP1 ISZERO PUSH2 0x177 JUMPI POP PUSH1 0x40 MLOAD RETURNDATASIZE PUSH1 0x1F NOT PUSH1 0x1F DUP3 ADD AND DUP3 ADD DUP1 PUSH1 0x40 MSTORE POP DUP2 ADD SWAP1 PUSH2 0x174 SWAP2 SWAP1 PUSH2 0x257 JUMP JUMPDEST PUSH1 0x1 JUMPDEST PUSH2 0x1B6 JUMPI PUSH1 0x40 MLOAD PUSH32 0x8C379A000000000000000000000000000000000000000000000000000000000 DUP2 MSTORE PUSH1 0x4 ADD PUSH2 0x1AD SWAP1 PUSH2 0x3D2 JUMP JUMPDEST PUSH1 0x40 MLOAD DUP1 SWAP2 SUB SWAP1 REVERT JUMPDEST DUP2 PUSH0 PUSH0 PUSH2 0x100 EXP DUP2 SLOAD DUP2 PUSH20 0xFFFFFFFFFFFFFFFFFFFFFFFFFFFFFFFFFFFFFFFF MUL NOT AND SWAP1 DUP4 PUSH20 0xFFFFFFFFFFFFFFFFFFFFFFFFFFFFFFFFFFFFFFFF AND MUL OR SWAP1 SSTORE POP POP POP JUMP JUMPDEST PUSH0 PUSH0 REVERT JUMPDEST PUSH0 PUSH20 0xFFFFFFFFFFFFFFFFFFFFFFFFFFFFFFFFFFFFFFFF DUP3 AND SWAP1 POP SWAP2 SWAP1 POP JUMP JUMPDEST PUSH0 PUSH2 0x226 DUP3 PUSH2 0x1FD JUMP JUMPDEST SWAP1 POP SWAP2 SWAP1 POP JUMP JUMPDEST PUSH2 0x236 DUP2 PUSH2 0x21C JUMP JUMPDEST DUP2 EQ PUSH2 0x240 JUMPI PUSH0 PUSH0 REVERT JUMPDEST POP JUMP JUMPDEST PUSH0 DUP2 MLOAD SWAP1 POP PUSH2 0x251 DUP2 PUSH2 0x22D JUMP JUMPDEST SWAP3 SWAP2 POP POP JUMP JUMPDEST PUSH0 PUSH1 0x20 DUP3 DUP5 SUB SLT ISZERO PUSH2 0x26C JUMPI PUSH2 0x26B PUSH2 0x1F9 JUMP JUMPDEST JUMPDEST PUSH0 PUSH2 0x279 DUP5 DUP3 DUP6 ADD PUSH2 0x243 JUMP JUMPDEST SWAP2 POP POP SWAP3 SWAP2 POP POP JUMP JUMPDEST PUSH0 DUP3 DUP3 MSTORE PUSH1 0x20 DUP3 ADD SWAP1 POP SWAP3 SWAP2 POP POP JUMP JUMPDEST PUSH32 0x4469726563746F72792063616E6E6F74206265207A65726F2061646472657373 PUSH0 DUP3 ADD MSTORE POP JUMP JUMPDEST PUSH0 PUSH2 0x2C6 PUSH1 0x20 DUP4 PUSH2 0x282 JUMP JUMPDEST SWAP2 POP PUSH2 0x2D1 DUP3 PUSH2 0x292 JUMP JUMPDEST PUSH1 0x20 DUP3 ADD SWAP1 POP SWAP2 SWAP1 POP JUMP JUMPDEST PUSH0 PUSH1 0x20 DUP3 ADD SWAP1 POP DUP2 DUP2 SUB PUSH0 DUP4 ADD MSTORE PUSH2 0x2F3 DUP2 PUSH2 0x2BA JUMP JUMPDEST SWAP1 POP SWAP2 SWAP1 POP JUMP JUMPDEST PUSH32 0x4469726563746F7279206D757374206265206120636F6E747261637400000000 PUSH0 DUP3 ADD MSTORE POP JUMP JUMPDEST PUSH0 PUSH2 0x32E PUSH1 0x1C DUP4 PUSH2 0x282 JUMP JUMPDEST SWAP2 POP PUSH2 0x339 DUP3 PUSH2 0x2FA JUMP JUMPDEST PUSH1 0x20 DUP3 ADD SWAP1 POP SWAP2 SWAP1 POP JUMP JUMPDEST PUSH0 PUSH1 0x20 DUP3 ADD SWAP1 POP DUP2 DUP2 SUB PUSH0 DUP4 ADD MSTORE PUSH2 0x35B DUP2 PUSH2 0x322 JUMP JUMPDEST SWAP1 POP SWAP2 SWAP1 POP JUMP JUMPDEST PUSH32 0x4469726563746F7279206164647265737320646F6573206E6F7420696D706C65 PUSH0 DUP3 ADD MSTORE PUSH32 0x6D656E74206F776E657228290000000000000000000000000000000000000000 PUSH1 0x20 DUP3 ADD MSTORE POP JUMP JUMPDEST PUSH0 PUSH2 0x3BC PUSH1 0x2C DUP4 PUSH2 0x282 JUMP JUMPDEST SWAP2 POP PUSH2 0x3C7 DUP3 PUSH2 0x362 JUMP JUMPDEST PUSH1 0x40 DUP3 ADD SWAP1 POP SWAP2 SWAP1 POP JUMP JUMPDEST PUSH0 PUSH1 0x20 DUP3 ADD SWAP1 POP DUP2 DUP2 SUB PUSH0 DUP4 ADD MSTORE PUSH2 0x3E9 DUP2 PUSH2 0x3B0 JUMP JUMPDEST SWAP1 POP SWAP2 SWAP1 POP JUMP JUMPDEST PUSH2 0x2407 DUP1 PUSH2 0x3FD PUSH0 CODECOPY PUSH0 RETURN INVALID PUSH1 0x80 PUSH1 0x40 MSTORE CALLVALUE DUP1 ISZERO PUSH2 0xF JUMPI PUSH0 PUSH0 REVERT JUMPDEST POP PUSH1 0x4 CALLDATASIZE LT PUSH2 0x55 JUMPI PUSH0 CALLDATALOAD PUSH1 0xE0 SHR DUP1 PUSH4 0x27262618 EQ PUSH2 0x59 JUMPI DUP1 PUSH4 0x658A847A EQ PUSH2 0x89 JUMPI DUP1 PUSH4 0x8DA5CB5B EQ PUSH2 0xA7 JUMPI DUP1 PUSH4 0xB57C59A7 EQ PUSH2 0xC5 JUMPI DUP1 PUSH4 0xBA4C7BE1 EQ PUSH2 0xF5 JUMPI JUMPDEST PUSH0 PUSH0 REVERT JUMPDEST PUSH2 0x73 PUSH1 0x4 DUP1 CALLDATASIZE SUB DUP2 ADD SWAP1 PUSH2 0x6E SWAP2 SWAP1 PUSH2 0x7BF JUMP JUMPDEST PUSH2 0x111 JUMP JUMPDEST PUSH1 0x40 MLOAD PUSH2 0x80 SWAP2 SWAP1 PUSH2 0x845 JUMP JUMPDEST PUSH1 0x40 MLOAD DUP1 SWAP2 SUB SWAP1 RETURN JUMPDEST PUSH2 0x91 PUSH2 0x1B1 JUMP JUMPDEST PUSH1 0x40 MLOAD PUSH2 0x9E SWAP2 SWAP1 PUSH2 0x8B9 JUMP JUMPDEST PUSH1 0x40 MLOAD DUP1 SWAP2 SUB SWAP1 RETURN JUMPDEST PUSH2 0xAF PUSH2 0x1D5 JUMP JUMPDEST PUSH1 0x40 MLOAD PUSH2 0xBC SWAP2 SWAP1 PUSH2 0x845 JUMP JUMPDEST PUSH1 0x40 MLOAD DUP1 SWAP2 SUB SWAP1 RETURN JUMPDEST PUSH2 0xDF PUSH1 0x4 DUP1 CALLDATASIZE SUB DUP2 ADD SWAP1 PUSH2 0xDA SWAP2 SWAP1 PUSH2 0x905 JUMP JUMPDEST PUSH2 0x268 JUMP JUMPDEST PUSH1 0x40 MLOAD PUSH2 0xEC SWAP2 SWAP1 PUSH2 0x845 JUMP JUMPDEST PUSH1 0x40 MLOAD DUP1 SWAP2 SUB SWAP1 RETURN JUMPDEST PUSH2 0x10F PUSH1 0x4 DUP1 CALLDATASIZE SUB DUP2 ADD SWAP1 PUSH2 0x10A SWAP2 SWAP1 PUSH2 0x95A JUMP JUMPDEST PUSH2 0x3AE JUMP JUMPDEST STOP JUMPDEST PUSH0 PUSH0 PUSH0 SWAP1 SLOAD SWAP1 PUSH2 0x100 EXP SWAP1 DIV PUSH20 0xFFFFFFFFFFFFFFFFFFFFFFFFFFFFFFFFFFFFFFFF AND PUSH20 0xFFFFFFFFFFFFFFFFFFFFFFFFFFFFFFFFFFFFFFFF AND PUSH4 0x27262618 DUP4 PUSH1 0x40 MLOAD DUP3 PUSH4 0xFFFFFFFF AND PUSH1 0xE0 SHL DUP2 MSTORE PUSH1 0x4 ADD PUSH2 0x16B SWAP2 SWAP1 PUSH2 0x9E5 JUMP JUMPDEST PUSH1 0x20 PUSH1 0x40 MLOAD DUP1 DUP4 SUB DUP2 DUP7 GAS STATICCALL ISZERO DUP1 ISZERO PUSH2 0x186 JUMPI RETURNDATASIZE PUSH0 PUSH0 RETURNDATACOPY RETURNDATASIZE PUSH0 REVERT JUMPDEST POP POP POP POP PUSH1 0x40 MLOAD RETURNDATASIZE PUSH1 0x1F NOT PUSH1 0x1F DUP3 ADD AND DUP3 ADD DUP1 PUSH1 0x40 MSTORE POP DUP2 ADD SWAP1 PUSH2 0x1AA SWAP2 SWAP1 PUSH2 0xA19 JUMP JUMPDEST SWAP1 POP SWAP2 SWAP1 POP JUMP JUMPDEST PUSH0 PUSH0 SWAP1 SLOAD SWAP1 PUSH2 0x100 EXP SWAP1 DIV PUSH20 0xFFFFFFFFFFFFFFFFFFFFFFFFFFFFFFFFFFFFFFFF AND DUP2 JUMP JUMPDEST PUSH0 PUSH0 PUSH0 SWAP1 SLOAD SWAP1 PUSH2 0x100 EXP SWAP1 DIV PUSH20 0xFFFFFFFFFFFFFFFFFFFFFFFFFFFFFFFFFFFFFFFF AND PUSH20 0xFFFFFFFFFFFFFFFFFFFFFFFFFFFFFFFFFFFFFFFF AND PUSH4 0x8DA5CB5B PUSH1 0x40 MLOAD DUP2 PUSH4 0xFFFFFFFF AND PUSH1 0xE0 SHL DUP2 MSTORE PUSH1 0x4 ADD PUSH1 0x20 PUSH1 0x40 MLOAD DUP1 DUP4 SUB DUP2 DUP7 GAS STATICCALL ISZERO DUP1 ISZERO PUSH2 0x23F JUMPI RETURNDATASIZE PUSH0 PUSH0 RETURNDATACOPY RETURNDATASIZE PUSH0 REVERT JUMPDEST POP POP POP POP PUSH1 0x40 MLOAD RETURNDATASIZE PUSH1 0x1F NOT PUSH1 0x1F DUP3 ADD AND DUP3 ADD DUP1 PUSH1 0x40 MSTORE POP DUP2 ADD SWAP1 PUSH2 0x263 SWAP2 SWAP1 PUSH2 0xA19 JUMP JUMPDEST SWAP1 POP SWAP1 JUMP JUMPDEST PUSH0 PUSH2 0x2A7 PUSH1 0x40 MLOAD DUP1 PUSH1 0x40 ADD PUSH1 0x40 MSTORE DUP1 PUSH1 0xB DUP2 MSTORE PUSH1 0x20 ADD PUSH32 0x6574662D666163746F7279000000000000000000000000000000000000000000 DUP2 MSTORE POP PUSH2 0x111 JUMP JUMPDEST PUSH20 0xFFFFFFFFFFFFFFFFFFFFFFFFFFFFFFFFFFFFFFFF AND CALLER PUSH20 0xFFFFFFFFFFFFFFFFFFFFFFFFFFFFFFFFFFFFFFFF AND EQ PUSH2 0x314 JUMPI PUSH1 0x40 MLOAD PUSH32 0x8C379A000000000000000000000000000000000000000000000000000000000 DUP2 MSTORE PUSH1 0x4 ADD PUSH2 0x30B SWAP1 PUSH2 0xA8E JUMP JUMPDEST PUSH1 0x40 MLOAD DUP1 SWAP2 SUB SWAP1 REVERT JUMPDEST PUSH0 PUSH0 PUSH0 SWAP1 SLOAD SWAP1 PUSH2 0x100 EXP SWAP1 DIV PUSH20 0xFFFFFFFFFFFFFFFFFFFFFFFFFFFFFFFFFFFFFFFF AND PUSH1 0x40 MLOAD PUSH2 0x342 SWAP1 PUSH2 0x665 JUMP JUMPDEST PUSH2 0x34C SWAP2 SWAP1 PUSH2 0x845 JUMP JUMPDEST PUSH1 0x40 MLOAD DUP1 SWAP2 SUB SWAP1 PUSH0 CREATE DUP1 ISZERO DUP1 ISZERO PUSH2 0x365 JUMPI RETURNDATASIZE PUSH0 PUSH0 RETURNDATACOPY RETURNDATASIZE PUSH0 REVERT JUMPDEST POP SWAP1 POP PUSH0 DUP2 SWAP1 POP DUP4 PUSH32 0xB40972AB04998C21214527661A10D8F39921F4AB74C6E9874DF14C1613CD17E6 DUP3 PUSH1 0x40 MLOAD PUSH2 0x39C SWAP2 SWAP1 PUSH2 0x845 JUMP JUMPDEST PUSH1 0x40 MLOAD DUP1 SWAP2 SUB SWAP1 LOG2 DUP1 SWAP3 POP POP POP SWAP2 SWAP1 POP JUMP JUMPDEST PUSH0 PUSH0 SWAP1 SLOAD SWAP1 PUSH2 0x100 EXP SWAP1 DIV PUSH20 0xFFFFFFFFFFFFFFFFFFFFFFFFFFFFFFFFFFFFFFFF AND PUSH20 0xFFFFFFFFFFFFFFFFFFFFFFFFFFFFFFFFFFFFFFFF AND PUSH4 0x8DA5CB5B PUSH1 0x40 MLOAD DUP2 PUSH4 0xFFFFFFFF AND PUSH1 0xE0 SHL DUP2 MSTORE PUSH1 0x4 ADD PUSH1 0x20 PUSH1 0x40 MLOAD DUP1 DUP4 SUB DUP2 DUP7 GAS STATICCALL ISZERO DUP1 ISZERO PUSH2 0x417 JUMPI RETURNDATASIZE PUSH0 PUSH0 RETURNDATACOPY RETURNDATASIZE PUSH0 REVERT JUMPDEST POP POP POP POP PUSH1 0x40 MLOAD RETURNDATASIZE PUSH1 0x1F NOT PUSH1 0x1F DUP3 ADD AND DUP3 ADD DUP1 PUSH1 0x40 MSTORE POP DUP2 ADD SWAP1 PUSH2 0x43B SWAP2 SWAP1 PUSH2 0xA19 JUMP JUMPDEST PUSH20 0xFFFFFFFFFFFFFFFFFFFFFFFFFFFFFFFFFFFFFFFF AND CALLER PUSH20 0xFFFFFFFFFFFFFFFFFFFFFFFFFFFFFFFFFFFFFFFF AND EQ PUSH2 0x4A8 JUMPI PUSH1 0x40 MLOAD PUSH32 0x8C379A000000000000000000000000000000000000000000000000000000000 DUP2 MSTORE PUSH1 0x4 ADD PUSH2 0x49F SWAP1 PUSH2 0xAF6 JUMP JUMPDEST PUSH1 0x40 MLOAD DUP1 SWAP2 SUB SWAP1 REVERT JUMPDEST PUSH2 0x4B1 DUP2 PUSH2 0x4B4 JUMP JUMPDEST POP JUMP JUMPDEST PUSH0 PUSH20 0xFFFFFFFFFFFFFFFFFFFFFFFFFFFFFFFFFFFFFFFF AND DUP2 PUSH20 0xFFFFFFFFFFFFFFFFFFFFFFFFFFFFFFFFFFFFFFFF AND SUB PUSH2 0x522 JUMPI PUSH1 0x40 MLOAD PUSH32 0x8C379A000000000000000000000000000000000000000000000000000000000 DUP2 MSTORE PUSH1 0x4 ADD PUSH2 0x519 SWAP1 PUSH2 0xB5E JUMP JUMPDEST PUSH1 0x40 MLOAD DUP1 SWAP2 SUB SWAP1 REVERT JUMPDEST PUSH0 DUP2 PUSH20 0xFFFFFFFFFFFFFFFFFFFFFFFFFFFFFFFFFFFFFFFF AND EXTCODESIZE GT PUSH2 0x57B JUMPI PUSH1 0x40 MLOAD PUSH32 0x8C379A000000000000000000000000000000000000000000000000000000000 DUP2 MSTORE PUSH1 0x4 ADD PUSH2 0x572 SWAP1 PUSH2 0xBC6 JUMP JUMPDEST PUSH1 0x40 MLOAD DUP1 SWAP2 SUB SWAP1 REVERT JUMPDEST DUP1 PUSH20 0xFFFFFFFFFFFFFFFFFFFFFFFFFFFFFFFFFFFFFFFF AND PUSH4 0x8DA5CB5B PUSH1 0x40 MLOAD DUP2 PUSH4 0xFFFFFFFF AND PUSH1 0xE0 SHL DUP2 MSTORE PUSH1 0x4 ADD PUSH1 0x20 PUSH1 0x40 MLOAD DUP1 DUP4 SUB DUP2 DUP7 GAS STATICCALL SWAP3 POP POP POP DUP1 ISZERO PUSH2 0x5E3 JUMPI POP PUSH1 0x40 MLOAD RETURNDATASIZE PUSH1 0x1F NOT PUSH1 0x1F DUP3 ADD AND DUP3 ADD DUP1 PUSH1 0x40 MSTORE POP DUP2 ADD SWAP1 PUSH2 0x5E0 SWAP2 SWAP1 PUSH2 0xA19 JUMP JUMPDEST PUSH1 0x1 JUMPDEST PUSH2 0x622 JUMPI PUSH1 0x40 MLOAD PUSH32 0x8C379A000000000000000000000000000000000000000000000000000000000 DUP2 MSTORE PUSH1 0x4 ADD PUSH2 0x619 SWAP1 PUSH2 0xC54 JUMP JUMPDEST PUSH1 0x40 MLOAD DUP1 SWAP2 SUB SWAP1 REVERT JUMPDEST DUP2 PUSH0 PUSH0 PUSH2 0x100 EXP DUP2 SLOAD DUP2 PUSH20 0xFFFFFFFFFFFFFFFFFFFFFFFFFFFFFFFFFFFFFFFF MUL NOT AND SWAP1 DUP4 PUSH20 0xFFFFFFFFFFFFFFFFFFFFFFFFFFFFFFFFFFFFFFFF AND MUL OR SWAP1 SSTORE POP POP POP JUMP JUMPDEST PUSH2 0x175F DUP1 PUSH2 0xC73 DUP4 CODECOPY ADD SWAP1 JUMP JUMPDEST PUSH0 PUSH1 0x40 MLOAD SWAP1 POP SWAP1 JUMP JUMPDEST PUSH0 PUSH0 REVERT JUMPDEST PUSH0 PUSH0 REVERT JUMPDEST PUSH0 PUSH0 REVERT JUMPDEST PUSH0 PUSH0 REVERT JUMPDEST PUSH0 PUSH1 0x1F NOT PUSH1 0x1F DUP4 ADD AND SWAP1 POP SWAP2 SWAP1 POP JUMP JUMPDEST PUSH32 0x4E487B7100000000000000000000000000000000000000000000000000000000 PUSH0 MSTORE PUSH1 0x41 PUSH1 0x4 MSTORE PUSH1 0x24 PUSH0 REVERT JUMPDEST PUSH2 0x6D1 DUP3 PUSH2 0x68B JUMP JUMPDEST DUP2 ADD DUP2 DUP2 LT PUSH8 0xFFFFFFFFFFFFFFFF DUP3 GT OR ISZERO PUSH2 0x6F0 JUMPI PUSH2 0x6EF PUSH2 0x69B JUMP JUMPDEST JUMPDEST DUP1 PUSH1 0x40 MSTORE POP POP POP JUMP JUMPDEST PUSH0 PUSH2 0x702 PUSH2 0x672 JUMP JUMPDEST SWAP1 POP PUSH2 0x70E DUP3 DUP3 PUSH2 0x6C8 JUMP JUMPDEST SWAP2 SWAP1 POP JUMP JUMPDEST PUSH0 PUSH8 0xFFFFFFFFFFFFFFFF DUP3 GT ISZERO PUSH2 0x72D JUMPI PUSH2 0x72C PUSH2 0x69B JUMP JUMPDEST JUMPDEST PUSH2 0x736 DUP3 PUSH2 0x68B JUMP JUMPDEST SWAP1 POP PUSH1 0x20 DUP2 ADD SWAP1 POP SWAP2 SWAP1 POP JUMP JUMPDEST DUP3 DUP2 DUP4 CALLDATACOPY PUSH0 DUP4 DUP4 ADD MSTORE POP POP POP JUMP JUMPDEST PUSH0 PUSH2 0x763 PUSH2 0x75E DUP5 PUSH2 0x713 JUMP JUMPDEST PUSH2 0x6F9 JUMP JUMPDEST SWAP1 POP DUP3 DUP2 MSTORE PUSH1 0x20 DUP2 ADD DUP5 DUP5 DUP5 ADD GT ISZERO PUSH2 0x77F JUMPI PUSH2 0x77E PUSH2 0x687 JUMP JUMPDEST JUMPDEST PUSH2 0x78A DUP5 DUP3 DUP6 PUSH2 0x743 JUMP JUMPDEST POP SWAP4 SWAP3 POP POP POP JUMP JUMPDEST PUSH0 DUP3 PUSH1 0x1F DUP4 ADD SLT PUSH2 0x7A6 JUMPI PUSH2 0x7A5 PUSH2 0x683 JUMP JUMPDEST JUMPDEST DUP2 CALLDATALOAD PUSH2 0x7B6 DUP5 DUP3 PUSH1 0x20 DUP7 ADD PUSH2 0x751 JUMP JUMPDEST SWAP2 POP POP SWAP3 SWAP2 POP POP JUMP JUMPDEST PUSH0 PUSH1 0x20 DUP3 DUP5 SUB SLT ISZERO PUSH2 0x7D4 JUMPI PUSH2 0x7D3 PUSH2 0x67B JUMP JUMPDEST JUMPDEST PUSH0 DUP3 ADD CALLDATALOAD PUSH8 0xFFFFFFFFFFFFFFFF DUP2 GT ISZERO PUSH2 0x7F1 JUMPI PUSH2 0x7F0 PUSH2 0x67F JUMP JUMPDEST JUMPDEST PUSH2 0x7FD DUP5 DUP3 DUP6 ADD PUSH2 0x792 JUMP JUMPDEST SWAP2 POP POP SWAP3 SWAP2 POP POP JUMP JUMPDEST PUSH0 PUSH20 0xFFFFFFFFFFFFFFFFFFFFFFFFFFFFFFFFFFFFFFFF DUP3 AND SWAP1 POP SWAP2 SWAP1 POP JUMP JUMPDEST PUSH0 PUSH2 0x82F DUP3 PUSH2 0x806 JUMP JUMPDEST SWAP1 POP SWAP2 SWAP1 POP JUMP JUMPDEST PUSH2 0x83F DUP2 PUSH2 0x825 JUMP JUMPDEST DUP3 MSTORE POP POP JUMP JUMPDEST PUSH0 PUSH1 0x20 DUP3 ADD SWAP1 POP PUSH2 0x858 PUSH0 DUP4 ADD DUP5 PUSH2 0x836 JUMP JUMPDEST SWAP3 SWAP2 POP POP JUMP JUMPDEST PUSH0 DUP2 SWAP1 POP SWAP2 SWAP1 POP JUMP JUMPDEST PUSH0 PUSH2 0x881 PUSH2 0x87C PUSH2 0x877 DUP5 PUSH2 0x806 JUMP JUMPDEST PUSH2 0x85E JUMP JUMPDEST PUSH2 0x806 JUMP JUMPDEST SWAP1 POP SWAP2 SWAP1 POP JUMP JUMPDEST PUSH0 PUSH2 0x892 DUP3 PUSH2 0x867 JUMP JUMPDEST SWAP1 POP SWAP2 SWAP1 POP JUMP JUMPDEST PUSH0 PUSH2 0x8A3 DUP3 PUSH2 0x888 JUMP JUMPDEST SWAP1 POP SWAP2 SWAP1 POP JUMP JUMPDEST PUSH2 0x8B3 DUP2 PUSH2 0x899 JUMP JUMPDEST DUP3 MSTORE POP POP JUMP JUMPDEST PUSH0 PUSH1 0x20 DUP3 ADD SWAP1 POP PUSH2 0x8CC PUSH0 DUP4 ADD DUP5 PUSH2 0x8AA JUMP JUMPDEST SWAP3 SWAP2 POP POP JUMP JUMPDEST PUSH0 DUP2 SWAP1 POP SWAP2 SWAP1 POP JUMP JUMPDEST PUSH2 0x8E4 DUP2 PUSH2 0x8D2 JUMP JUMPDEST DUP2 EQ PUSH2 0x8EE JUMPI PUSH0 PUSH0 REVERT JUMPDEST POP JUMP JUMPDEST PUSH0 DUP2 CALLDATALOAD SWAP1 POP PUSH2 0x8FF DUP2 PUSH2 0x8DB JUMP JUMPDEST SWAP3 SWAP2 POP POP JUMP JUMPDEST PUSH0 PUSH1 0x20 DUP3 DUP5 SUB SLT ISZERO PUSH2 0x91A JUMPI PUSH2 0x919 PUSH2 0x67B JUMP JUMPDEST JUMPDEST PUSH0 PUSH2 0x927 DUP5 DUP3 DUP6 ADD PUSH2 0x8F1 JUMP JUMPDEST SWAP2 POP POP SWAP3 SWAP2 POP POP JUMP JUMPDEST PUSH2 0x939 DUP2 PUSH2 0x825 JUMP JUMPDEST DUP2 EQ PUSH2 0x943 JUMPI PUSH0 PUSH0 REVERT JUMPDEST POP JUMP JUMPDEST PUSH0 DUP2 CALLDATALOAD SWAP1 POP PUSH2 0x954 DUP2 PUSH2 0x930 JUMP JUMPDEST SWAP3 SWAP2 POP POP JUMP JUMPDEST PUSH0 PUSH1 0x20 DUP3 DUP5 SUB SLT ISZERO PUSH2 0x96F JUMPI PUSH2 0x96E PUSH2 0x67B JUMP JUMPDEST JUMPDEST PUSH0 PUSH2 0x97C DUP5 DUP3 DUP6 ADD PUSH2 0x946 JUMP JUMPDEST SWAP2 POP POP SWAP3 SWAP2 POP POP JUMP JUMPDEST PUSH0 DUP2 MLOAD SWAP1 POP SWAP2 SWAP1 POP JUMP JUMPDEST PUSH0 DUP3 DUP3 MSTORE PUSH1 0x20 DUP3 ADD SWAP1 POP SWAP3 SWAP2 POP POP JUMP JUMPDEST DUP3 DUP2 DUP4 MCOPY PUSH0 DUP4 DUP4 ADD MSTORE POP POP POP JUMP JUMPDEST PUSH0 PUSH2 0x9B7 DUP3 PUSH2 0x985 JUMP JUMPDEST PUSH2 0x9C1 DUP2 DUP6 PUSH2 0x98F JUMP JUMPDEST SWAP4 POP PUSH2 0x9D1 DUP2 DUP6 PUSH1 0x20 DUP7 ADD PUSH2 0x99F JUMP JUMPDEST PUSH2 0x9DA DUP2 PUSH2 0x68B JUMP JUMPDEST DUP5 ADD SWAP2 POP POP SWAP3 SWAP2 POP POP JUMP JUMPDEST PUSH0 PUSH1 0x20 DUP3 ADD SWAP1 POP DUP2 DUP2 SUB PUSH0 DUP4 ADD MSTORE PUSH2 0x9FD DUP2 DUP5 PUSH2 0x9AD JUMP JUMPDEST SWAP1 POP SWAP3 SWAP2 POP POP JUMP JUMPDEST PUSH0 DUP2 MLOAD SWAP1 POP PUSH2 0xA13 DUP2 PUSH2 0x930 JUMP JUMPDEST SWAP3 SWAP2 POP POP JUMP JUMPDEST PUSH0 PUSH1 0x20 DUP3 DUP5 SUB SLT ISZERO PUSH2 0xA2E JUMPI PUSH2 0xA2D PUSH2 0x67B JUMP JUMPDEST JUMPDEST PUSH0 PUSH2 0xA3B DUP5 DUP3 DUP6 ADD PUSH2 0xA05 JUMP JUMPDEST SWAP2 POP POP SWAP3 SWAP2 POP POP JUMP JUMPDEST PUSH32 0x6D73672E73656E646572206973206E6F742065746620666163746F7279000000 PUSH0 DUP3 ADD MSTORE POP JUMP JUMPDEST PUSH0 PUSH2 0xA78 PUSH1 0x1D DUP4 PUSH2 0x98F JUMP JUMPDEST SWAP2 POP PUSH2 0xA83 DUP3 PUSH2 0xA44 JUMP JUMPDEST PUSH1 0x20 DUP3 ADD SWAP1 POP SWAP2 SWAP1 POP JUMP JUMPDEST PUSH0 PUSH1 0x20 DUP3 ADD SWAP1 POP DUP2 DUP2 SUB PUSH0 DUP4 ADD MSTORE PUSH2 0xAA5 DUP2 PUSH2 0xA6C JUMP JUMPDEST SWAP1 POP SWAP2 SWAP1 POP JUMP JUMPDEST PUSH32 0x43616C6C6572206973206E6F7420746865206F776E6572000000000000000000 PUSH0 DUP3 ADD MSTORE POP JUMP JUMPDEST PUSH0 PUSH2 0xAE0 PUSH1 0x17 DUP4 PUSH2 0x98F JUMP JUMPDEST SWAP2 POP PUSH2 0xAEB DUP3 PUSH2 0xAAC JUMP JUMPDEST PUSH1 0x20 DUP3 ADD SWAP1 POP SWAP2 SWAP1 POP JUMP JUMPDEST PUSH0 PUSH1 0x20 DUP3 ADD SWAP1 POP DUP2 DUP2 SUB PUSH0 DUP4 ADD MSTORE PUSH2 0xB0D DUP2 PUSH2 0xAD4 JUMP JUMPDEST SWAP1 POP SWAP2 SWAP1 POP JUMP JUMPDEST PUSH32 0x4469726563746F72792063616E6E6F74206265207A65726F2061646472657373 PUSH0 DUP3 ADD MSTORE POP JUMP JUMPDEST PUSH0 PUSH2 0xB48 PUSH1 0x20 DUP4 PUSH2 0x98F JUMP JUMPDEST SWAP2 POP PUSH2 0xB53 DUP3 PUSH2 0xB14 JUMP JUMPDEST PUSH1 0x20 DUP3 ADD SWAP1 POP SWAP2 SWAP1 POP JUMP JUMPDEST PUSH0 PUSH1 0x20 DUP3 ADD SWAP1 POP DUP2 DUP2 SUB PUSH0 DUP4 ADD MSTORE PUSH2 0xB75 DUP2 PUSH2 0xB3C JUMP JUMPDEST SWAP1 POP SWAP2 SWAP1 POP JUMP JUMPDEST PUSH32 0x4469726563746F7279206D757374206265206120636F6E747261637400000000 PUSH0 DUP3 ADD MSTORE POP JUMP JUMPDEST PUSH0 PUSH2 0xBB0 PUSH1 0x1C DUP4 PUSH2 0x98F JUMP JUMPDEST SWAP2 POP PUSH2 0xBBB DUP3 PUSH2 0xB7C JUMP JUMPDEST PUSH1 0x20 DUP3 ADD SWAP1 POP SWAP2 SWAP1 POP JUMP JUMPDEST PUSH0 PUSH1 0x20 DUP3 ADD SWAP1 POP DUP2 DUP2 SUB PUSH0 DUP4 ADD MSTORE PUSH2 0xBDD DUP2 PUSH2 0xBA4 JUMP JUMPDEST SWAP1 POP SWAP2 SWAP1 POP JUMP JUMPDEST PUSH32 0x4469726563746F7279206164647265737320646F6573206E6F7420696D706C65 PUSH0 DUP3 ADD MSTORE PUSH32 0x6D656E74206F776E657228290000000000000000000000000000000000000000 PUSH1 0x20 DUP3 ADD MSTORE POP JUMP JUMPDEST PUSH0 PUSH2 0xC3E PUSH1 0x2C DUP4 PUSH2 0x98F JUMP JUMPDEST SWAP2 POP PUSH2 0xC49 DUP3 PUSH2 0xBE4 JUMP JUMPDEST PUSH1 0x40 DUP3 ADD SWAP1 POP SWAP2 SWAP1 POP JUMP JUMPDEST PUSH0 PUSH1 0x20 DUP3 ADD SWAP1 POP DUP2 DUP2 SUB PUSH0 DUP4 ADD MSTORE PUSH2 0xC6B DUP2 PUSH2 0xC32 JUMP JUMPDEST SWAP1 POP SWAP2 SWAP1 POP JUMP INVALID PUSH1 0x80 PUSH1 0x40 MSTORE CALLVALUE DUP1 ISZERO PUSH2 0xF JUMPI PUSH0 PUSH0 REVERT JUMPDEST POP PUSH1 0x40 MLOAD PUSH2 0x175F CODESIZE SUB DUP1 PUSH2 0x175F DUP4 CODECOPY DUP2 DUP2 ADD PUSH1 0x40 MSTORE DUP2 ADD SWAP1 PUSH2 0x31 SWAP2 SWAP1 PUSH2 0x257 JUMP JUMPDEST DUP1 PUSH2 0x41 DUP2 PUSH2 0x48 PUSH1 0x20 SHL PUSH1 0x20 SHR JUMP JUMPDEST POP POP PUSH2 0x3F0 JUMP JUMPDEST PUSH0 PUSH20 0xFFFFFFFFFFFFFFFFFFFFFFFFFFFFFFFFFFFFFFFF AND DUP2 PUSH20 0xFFFFFFFFFFFFFFFFFFFFFFFFFFFFFFFFFFFFFFFF AND SUB PUSH2 0xB6 JUMPI PUSH1 0x40 MLOAD PUSH32 0x8C379A000000000000000000000000000000000000000000000000000000000 DUP2 MSTORE PUSH1 0x4 ADD PUSH2 0xAD SWAP1 PUSH2 0x2DC JUMP JUMPDEST PUSH1 0x40 MLOAD DUP1 SWAP2 SUB SWAP1 REVERT JUMPDEST PUSH0 DUP2 PUSH20 0xFFFFFFFFFFFFFFFFFFFFFFFFFFFFFFFFFFFFFFFF AND EXTCODESIZE GT PUSH2 0x10F JUMPI PUSH1 0x40 MLOAD PUSH32 0x8C379A000000000000000000000000000000000000000000000000000000000 DUP2 MSTORE PUSH1 0x4 ADD PUSH2 0x106 SWAP1 PUSH2 0x344 JUMP JUMPDEST PUSH1 0x40 MLOAD DUP1 SWAP2 SUB SWAP1 REVERT JUMPDEST DUP1 PUSH20 0xFFFFFFFFFFFFFFFFFFFFFFFFFFFFFFFFFFFFFFFF AND PUSH4 0x8DA5CB5B PUSH1 0x40 MLOAD DUP2 PUSH4 0xFFFFFFFF AND PUSH1 0xE0 SHL DUP2 MSTORE PUSH1 0x4 ADD PUSH1 0x20 PUSH1 0x40 MLOAD DUP1 DUP4 SUB DUP2 DUP7 GAS STATICCALL SWAP3 POP POP POP DUP1 ISZERO PUSH2 0x177 JUMPI POP PUSH1 0x40 MLOAD RETURNDATASIZE PUSH1 0x1F NOT PUSH1 0x1F DUP3 ADD AND DUP3 ADD DUP1 PUSH1 0x40 MSTORE POP DUP2 ADD SWAP1 PUSH2 0x174 SWAP2 SWAP1 PUSH2 0x257 JUMP JUMPDEST PUSH1 0x1 JUMPDEST PUSH2 0x1B6 JUMPI PUSH1 0x40 MLOAD PUSH32 0x8C379A000000000000000000000000000000000000000000000000000000000 DUP2 MSTORE PUSH1 0x4 ADD PUSH2 0x1AD SWAP1 PUSH2 0x3D2 JUMP JUMPDEST PUSH1 0x40 MLOAD DUP1 SWAP2 SUB SWAP1 REVERT JUMPDEST DUP2 PUSH0 PUSH0 PUSH2 0x100 EXP DUP2 SLOAD DUP2 PUSH20 0xFFFFFFFFFFFFFFFFFFFFFFFFFFFFFFFFFFFFFFFF MUL NOT AND SWAP1 DUP4 PUSH20 0xFFFFFFFFFFFFFFFFFFFFFFFFFFFFFFFFFFFFFFFF AND MUL OR SWAP1 SSTORE POP POP POP JUMP JUMPDEST PUSH0 PUSH0 REVERT JUMPDEST PUSH0 PUSH20 0xFFFFFFFFFFFFFFFFFFFFFFFFFFFFFFFFFFFFFFFF DUP3 AND SWAP1 POP SWAP2 SWAP1 POP JUMP JUMPDEST PUSH0 PUSH2 0x226 DUP3 PUSH2 0x1FD JUMP JUMPDEST SWAP1 POP SWAP2 SWAP1 POP JUMP JUMPDEST PUSH2 0x236 DUP2 PUSH2 0x21C JUMP JUMPDEST DUP2 EQ PUSH2 0x240 JUMPI PUSH0 PUSH0 REVERT JUMPDEST POP JUMP JUMPDEST PUSH0 DUP2 MLOAD SWAP1 POP PUSH2 0x251 DUP2 PUSH2 0x22D JUMP JUMPDEST SWAP3 SWAP2 POP POP JUMP JUMPDEST PUSH0 PUSH1 0x20 DUP3 DUP5 SUB SLT ISZERO PUSH2 0x26C JUMPI PUSH2 0x26B PUSH2 0x1F9 JUMP JUMPDEST JUMPDEST PUSH0 PUSH2 0x279 DUP5 DUP3 DUP6 ADD PUSH2 0x243 JUMP JUMPDEST SWAP2 POP POP SWAP3 SWAP2 POP POP JUMP JUMPDEST PUSH0 DUP3 DUP3 MSTORE PUSH1 0x20 DUP3 ADD SWAP1 POP SWAP3 SWAP2 POP POP JUMP JUMPDEST PUSH32 0x4469726563746F72792063616E6E6F74206265207A65726F2061646472657373 PUSH0 DUP3 ADD MSTORE POP JUMP JUMPDEST PUSH0 PUSH2 0x2C6 PUSH1 0x20 DUP4 PUSH2 0x282 JUMP JUMPDEST SWAP2 POP PUSH2 0x2D1 DUP3 PUSH2 0x292 JUMP JUMPDEST PUSH1 0x20 DUP3 ADD SWAP1 POP SWAP2 SWAP1 POP JUMP JUMPDEST PUSH0 PUSH1 0x20 DUP3 ADD SWAP1 POP DUP2 DUP2 SUB PUSH0 DUP4 ADD MSTORE PUSH2 0x2F3 DUP2 PUSH2 0x2BA JUMP JUMPDEST SWAP1 POP SWAP2 SWAP1 POP JUMP JUMPDEST PUSH32 0x4469726563746F7279206D757374206265206120636F6E747261637400000000 PUSH0 DUP3 ADD MSTORE POP JUMP JUMPDEST PUSH0 PUSH2 0x32E PUSH1 0x1C DUP4 PUSH2 0x282 JUMP JUMPDEST SWAP2 POP PUSH2 0x339 DUP3 PUSH2 0x2FA JUMP JUMPDEST PUSH1 0x20 DUP3 ADD SWAP1 POP SWAP2 SWAP1 POP JUMP JUMPDEST PUSH0 PUSH1 0x20 DUP3 ADD SWAP1 POP DUP2 DUP2 SUB PUSH0 DUP4 ADD MSTORE PUSH2 0x35B DUP2 PUSH2 0x322 JUMP JUMPDEST SWAP1 POP SWAP2 SWAP1 POP JUMP JUMPDEST PUSH32 0x4469726563746F7279206164647265737320646F6573206E6F7420696D706C65 PUSH0 DUP3 ADD MSTORE PUSH32 0x6D656E74206F776E657228290000000000000000000000000000000000000000 PUSH1 0x20 DUP3 ADD MSTORE POP JUMP JUMPDEST PUSH0 PUSH2 0x3BC PUSH1 0x2C DUP4 PUSH2 0x282 JUMP JUMPDEST SWAP2 POP PUSH2 0x3C7 DUP3 PUSH2 0x362 JUMP JUMPDEST PUSH1 0x40 DUP3 ADD SWAP1 POP SWAP2 SWAP1 POP JUMP JUMPDEST PUSH0 PUSH1 0x20 DUP3 ADD SWAP1 POP DUP2 DUP2 SUB PUSH0 DUP4 ADD MSTORE PUSH2 0x3E9 DUP2 PUSH2 0x3B0 JUMP JUMPDEST SWAP1 POP SWAP2 SWAP1 POP JUMP JUMPDEST PUSH2 0x1362 DUP1 PUSH2 0x3FD PUSH0 CODECOPY PUSH0 RETURN INVALID PUSH1 0x80 PUSH1 0x40 MSTORE CALLVALUE DUP1 ISZERO PUSH2 0xF JUMPI PUSH0 PUSH0 REVERT JUMPDEST POP PUSH1 0x4 CALLDATASIZE LT PUSH2 0x60 JUMPI PUSH0 CALLDATALOAD PUSH1 0xE0 SHR DUP1 PUSH4 0x27262618 EQ PUSH2 0x64 JUMPI DUP1 PUSH4 0x5C833BFD EQ PUSH2 0x94 JUMPI DUP1 PUSH4 0x658A847A EQ PUSH2 0xB0 JUMPI DUP1 PUSH4 0x8DA5CB5B EQ PUSH2 0xCE JUMPI DUP1 PUSH4 0xBA4C7BE1 EQ PUSH2 0xEC JUMPI DUP1 PUSH4 0xF940E385 EQ PUSH2 0x108 JUMPI JUMPDEST PUSH0 PUSH0 REVERT JUMPDEST PUSH2 0x7E PUSH1 0x4 DUP1 CALLDATASIZE SUB DUP2 ADD SWAP1 PUSH2 0x79 SWAP2 SWAP1 PUSH2 0xBC0 JUMP JUMPDEST PUSH2 0x124 JUMP JUMPDEST PUSH1 0x40 MLOAD PUSH2 0x8B SWAP2 SWAP1 PUSH2 0xC46 JUMP JUMPDEST PUSH1 0x40 MLOAD DUP1 SWAP2 SUB SWAP1 RETURN JUMPDEST PUSH2 0xAE PUSH1 0x4 DUP1 CALLDATASIZE SUB DUP2 ADD SWAP1 PUSH2 0xA9 SWAP2 SWAP1 PUSH2 0xCBC JUMP JUMPDEST PUSH2 0x1C4 JUMP JUMPDEST STOP JUMPDEST PUSH2 0xB8 PUSH2 0x27F JUMP JUMPDEST PUSH1 0x40 MLOAD PUSH2 0xC5 SWAP2 SWAP1 PUSH2 0xD67 JUMP JUMPDEST PUSH1 0x40 MLOAD DUP1 SWAP2 SUB SWAP1 RETURN JUMPDEST PUSH2 0xD6 PUSH2 0x2A3 JUMP JUMPDEST PUSH1 0x40 MLOAD PUSH2 0xE3 SWAP2 SWAP1 PUSH2 0xC46 JUMP JUMPDEST PUSH1 0x40 MLOAD DUP1 SWAP2 SUB SWAP1 RETURN JUMPDEST PUSH2 0x106 PUSH1 0x4 DUP1 CALLDATASIZE SUB DUP2 ADD SWAP1 PUSH2 0x101 SWAP2 SWAP1 PUSH2 0xD80 JUMP JUMPDEST PUSH2 0x336 JUMP JUMPDEST STOP JUMPDEST PUSH2 0x122 PUSH1 0x4 DUP1 CALLDATASIZE SUB DUP2 ADD SWAP1 PUSH2 0x11D SWAP2 SWAP1 PUSH2 0xDAB JUMP JUMPDEST PUSH2 0x43C JUMP JUMPDEST STOP JUMPDEST PUSH0 PUSH0 PUSH0 SWAP1 SLOAD SWAP1 PUSH2 0x100 EXP SWAP1 DIV PUSH20 0xFFFFFFFFFFFFFFFFFFFFFFFFFFFFFFFFFFFFFFFF AND PUSH20 0xFFFFFFFFFFFFFFFFFFFFFFFFFFFFFFFFFFFFFFFF AND PUSH4 0x27262618 DUP4 PUSH1 0x40 MLOAD DUP3 PUSH4 0xFFFFFFFF AND PUSH1 0xE0 SHL DUP2 MSTORE PUSH1 0x4 ADD PUSH2 0x17E SWAP2 SWAP1 PUSH2 0xE49 JUMP JUMPDEST PUSH1 0x20 PUSH1 0x40 MLOAD DUP1 DUP4 SUB DUP2 DUP7 GAS STATICCALL ISZERO DUP1 ISZERO PUSH2 0x199 JUMPI RETURNDATASIZE PUSH0 PUSH0 RETURNDATACOPY RETURNDATASIZE PUSH0 REVERT JUMPDEST POP POP POP POP PUSH1 0x40 MLOAD RETURNDATASIZE PUSH1 0x1F NOT PUSH1 0x1F DUP3 ADD AND DUP3 ADD DUP1 PUSH1 0x40 MSTORE POP DUP2 ADD SWAP1 PUSH2 0x1BD SWAP2 SWAP1 PUSH2 0xE7D JUMP JUMPDEST SWAP1 POP SWAP2 SWAP1 POP JUMP JUMPDEST PUSH2 0x202 PUSH1 0x40 MLOAD DUP1 PUSH1 0x40 ADD PUSH1 0x40 MSTORE DUP1 PUSH1 0xA DUP2 MSTORE PUSH1 0x20 ADD PUSH32 0x6574662D726F7574657200000000000000000000000000000000000000000000 DUP2 MSTORE POP PUSH2 0x124 JUMP JUMPDEST PUSH20 0xFFFFFFFFFFFFFFFFFFFFFFFFFFFFFFFFFFFFFFFF AND CALLER PUSH20 0xFFFFFFFFFFFFFFFFFFFFFFFFFFFFFFFFFFFFFFFF AND EQ PUSH2 0x26F JUMPI PUSH1 0x40 MLOAD PUSH32 0x8C379A000000000000000000000000000000000000000000000000000000000 DUP2 MSTORE PUSH1 0x4 ADD PUSH2 0x266 SWAP1 PUSH2 0xEF2 JUMP JUMPDEST PUSH1 0x40 MLOAD DUP1 SWAP2 SUB SWAP1 REVERT JUMPDEST PUSH2 0x27A DUP4 DUP3 DUP5 PUSH2 0x5FF JUMP JUMPDEST POP POP POP JUMP JUMPDEST PUSH0 PUSH0 SWAP1 SLOAD SWAP1 PUSH2 0x100 EXP SWAP1 DIV PUSH20 0xFFFFFFFFFFFFFFFFFFFFFFFFFFFFFFFFFFFFFFFF AND DUP2 JUMP JUMPDEST PUSH0 PUSH0 PUSH0 SWAP1 SLOAD SWAP1 PUSH2 0x100 EXP SWAP1 DIV PUSH20 0xFFFFFFFFFFFFFFFFFFFFFFFFFFFFFFFFFFFFFFFF AND PUSH20 0xFFFFFFFFFFFFFFFFFFFFFFFFFFFFFFFFFFFFFFFF AND PUSH4 0x8DA5CB5B PUSH1 0x40 MLOAD DUP2 PUSH4 0xFFFFFFFF AND PUSH1 0xE0 SHL DUP2 MSTORE PUSH1 0x4 ADD PUSH1 0x20 PUSH1 0x40 MLOAD DUP1 DUP4 SUB DUP2 DUP7 GAS STATICCALL ISZERO DUP1 ISZERO PUSH2 0x30D JUMPI RETURNDATASIZE PUSH0 PUSH0 RETURNDATACOPY RETURNDATASIZE PUSH0 REVERT JUMPDEST POP POP POP POP PUSH1 0x40 MLOAD RETURNDATASIZE PUSH1 0x1F NOT PUSH1 0x1F DUP3 ADD AND DUP3 ADD DUP1 PUSH1 0x40 MSTORE POP DUP2 ADD SWAP1 PUSH2 0x331 SWAP2 SWAP1 PUSH2 0xE7D JUMP JUMPDEST SWAP1 POP SWAP1 JUMP JUMPDEST PUSH0 PUSH0 SWAP1 SLOAD SWAP1 PUSH2 0x100 EXP SWAP1 DIV PUSH20 0xFFFFFFFFFFFFFFFFFFFFFFFFFFFFFFFFFFFFFFFF AND PUSH20 0xFFFFFFFFFFFFFFFFFFFFFFFFFFFFFFFFFFFFFFFF AND PUSH4 0x8DA5CB5B PUSH1 0x40 MLOAD DUP2 PUSH4 0xFFFFFFFF AND PUSH1 0xE0 SHL DUP2 MSTORE PUSH1 0x4 ADD PUSH1 0x20 PUSH1 0x40 MLOAD DUP1 DUP4 SUB DUP2 DUP7 GAS STATICCALL ISZERO DUP1 ISZERO PUSH2 0x39F JUMPI RETURNDATASIZE PUSH0 PUSH0 RETURNDATACOPY RETURNDATASIZE PUSH0 REVERT JUMPDEST POP POP POP POP PUSH1 0x40 MLOAD RETURNDATASIZE PUSH1 0x1F NOT PUSH1 0x1F DUP3 ADD AND DUP3 ADD DUP1 PUSH1 0x40 MSTORE POP DUP2 ADD SWAP1 PUSH2 0x3C3 SWAP2 SWAP1 PUSH2 0xE7D JUMP JUMPDEST PUSH20 0xFFFFFFFFFFFFFFFFFFFFFFFFFFFFFFFFFFFFFFFF AND CALLER PUSH20 0xFFFFFFFFFFFFFFFFFFFFFFFFFFFFFFFFFFFFFFFF AND EQ PUSH2 0x430 JUMPI PUSH1 0x40 MLOAD PUSH32 0x8C379A000000000000000000000000000000000000000000000000000000000 DUP2 MSTORE PUSH1 0x4 ADD PUSH2 0x427 SWAP1 PUSH2 0xF5A JUMP JUMPDEST PUSH1 0x40 MLOAD DUP1 SWAP2 SUB SWAP1 REVERT JUMPDEST PUSH2 0x439 DUP2 PUSH2 0x676 JUMP JUMPDEST POP JUMP JUMPDEST PUSH0 PUSH0 SWAP1 SLOAD SWAP1 PUSH2 0x100 EXP SWAP1 DIV PUSH20 0xFFFFFFFFFFFFFFFFFFFFFFFFFFFFFFFFFFFFFFFF AND PUSH20 0xFFFFFFFFFFFFFFFFFFFFFFFFFFFFFFFFFFFFFFFF AND PUSH4 0x8DA5CB5B PUSH1 0x40 MLOAD DUP2 PUSH4 0xFFFFFFFF AND PUSH1 0xE0 SHL DUP2 MSTORE PUSH1 0x4 ADD PUSH1 0x20 PUSH1 0x40 MLOAD DUP1 DUP4 SUB DUP2 DUP7 GAS STATICCALL ISZERO DUP1 ISZERO PUSH2 0x4A5 JUMPI RETURNDATASIZE PUSH0 PUSH0 RETURNDATACOPY RETURNDATASIZE PUSH0 REVERT JUMPDEST POP POP POP POP PUSH1 0x40 MLOAD RETURNDATASIZE PUSH1 0x1F NOT PUSH1 0x1F DUP3 ADD AND DUP3 ADD DUP1 PUSH1 0x40 MSTORE POP DUP2 ADD SWAP1 PUSH2 0x4C9 SWAP2 SWAP1 PUSH2 0xE7D JUMP JUMPDEST PUSH20 0xFFFFFFFFFFFFFFFFFFFFFFFFFFFFFFFFFFFFFFFF AND CALLER PUSH20 0xFFFFFFFFFFFFFFFFFFFFFFFFFFFFFFFFFFFFFFFF AND EQ PUSH2 0x536 JUMPI PUSH1 0x40 MLOAD PUSH32 0x8C379A000000000000000000000000000000000000000000000000000000000 DUP2 MSTORE PUSH1 0x4 ADD PUSH2 0x52D SWAP1 PUSH2 0xF5A JUMP JUMPDEST PUSH1 0x40 MLOAD DUP1 SWAP2 SUB SWAP1 REVERT JUMPDEST PUSH0 PUSH20 0xFFFFFFFFFFFFFFFFFFFFFFFFFFFFFFFFFFFFFFFF AND DUP3 PUSH20 0xFFFFFFFFFFFFFFFFFFFFFFFFFFFFFFFFFFFFFFFF AND SUB PUSH2 0x578 JUMPI PUSH2 0x573 DUP2 SELFBALANCE PUSH2 0x827 JUMP JUMPDEST PUSH2 0x5FB JUMP JUMPDEST PUSH2 0x5FA DUP3 DUP3 DUP5 PUSH20 0xFFFFFFFFFFFFFFFFFFFFFFFFFFFFFFFFFFFFFFFF AND PUSH4 0x70A08231 ADDRESS PUSH1 0x40 MLOAD DUP3 PUSH4 0xFFFFFFFF AND PUSH1 0xE0 SHL DUP2 MSTORE PUSH1 0x4 ADD PUSH2 0x5B6 SWAP2 SWAP1 PUSH2 0xC46 JUMP JUMPDEST PUSH1 0x20 PUSH1 0x40 MLOAD DUP1 DUP4 SUB DUP2 DUP7 GAS STATICCALL ISZERO DUP1 ISZERO PUSH2 0x5D1 JUMPI RETURNDATASIZE PUSH0 PUSH0 RETURNDATACOPY RETURNDATASIZE PUSH0 REVERT JUMPDEST POP POP POP POP PUSH1 0x40 MLOAD RETURNDATASIZE PUSH1 0x1F NOT PUSH1 0x1F DUP3 ADD AND DUP3 ADD DUP1 PUSH1 0x40 MSTORE POP DUP2 ADD SWAP1 PUSH2 0x5F5 SWAP2 SWAP1 PUSH2 0xF8C JUMP JUMPDEST PUSH2 0x5FF JUMP JUMPDEST JUMPDEST POP POP JUMP JUMPDEST PUSH0 DUP4 SWAP1 POP PUSH0 DUP3 GT PUSH2 0x645 JUMPI PUSH1 0x40 MLOAD PUSH32 0x8C379A000000000000000000000000000000000000000000000000000000000 DUP2 MSTORE PUSH1 0x4 ADD PUSH2 0x63C SWAP1 PUSH2 0x1001 JUMP JUMPDEST PUSH1 0x40 MLOAD DUP1 SWAP2 SUB SWAP1 REVERT JUMPDEST PUSH2 0x670 DUP4 DUP4 DUP4 PUSH20 0xFFFFFFFFFFFFFFFFFFFFFFFFFFFFFFFFFFFFFFFF AND PUSH2 0x959 SWAP1 SWAP3 SWAP2 SWAP1 PUSH4 0xFFFFFFFF AND JUMP JUMPDEST POP POP POP POP JUMP JUMPDEST PUSH0 PUSH20 0xFFFFFFFFFFFFFFFFFFFFFFFFFFFFFFFFFFFFFFFF AND DUP2 PUSH20 0xFFFFFFFFFFFFFFFFFFFFFFFFFFFFFFFFFFFFFFFF AND SUB PUSH2 0x6E4 JUMPI PUSH1 0x40 MLOAD PUSH32 0x8C379A000000000000000000000000000000000000000000000000000000000 DUP2 MSTORE PUSH1 0x4 ADD PUSH2 0x6DB SWAP1 PUSH2 0x1069 JUMP JUMPDEST PUSH1 0x40 MLOAD DUP1 SWAP2 SUB SWAP1 REVERT JUMPDEST PUSH0 DUP2 PUSH20 0xFFFFFFFFFFFFFFFFFFFFFFFFFFFFFFFFFFFFFFFF AND EXTCODESIZE GT PUSH2 0x73D JUMPI PUSH1 0x40 MLOAD PUSH32 0x8C379A000000000000000000000000000000000000000000000000000000000 DUP2 MSTORE PUSH1 0x4 ADD PUSH2 0x734 SWAP1 PUSH2 0x10D1 JUMP JUMPDEST PUSH1 0x40 MLOAD DUP1 SWAP2 SUB SWAP1 REVERT JUMPDEST DUP1 PUSH20 0xFFFFFFFFFFFFFFFFFFFFFFFFFFFFFFFFFFFFFFFF AND PUSH4 0x8DA5CB5B PUSH1 0x40 MLOAD DUP2 PUSH4 0xFFFFFFFF AND PUSH1 0xE0 SHL DUP2 MSTORE PUSH1 0x4 ADD PUSH1 0x20 PUSH1 0x40 MLOAD DUP1 DUP4 SUB DUP2 DUP7 GAS STATICCALL SWAP3 POP POP POP DUP1 ISZERO PUSH2 0x7A5 JUMPI POP PUSH1 0x40 MLOAD RETURNDATASIZE PUSH1 0x1F NOT PUSH1 0x1F DUP3 ADD AND DUP3 ADD DUP1 PUSH1 0x40 MSTORE POP DUP2 ADD SWAP1 PUSH2 0x7A2 SWAP2 SWAP1 PUSH2 0xE7D JUMP JUMPDEST PUSH1 0x1 JUMPDEST PUSH2 0x7E4 JUMPI PUSH1 0x40 MLOAD PUSH32 0x8C379A000000000000000000000000000000000000000000000000000000000 DUP2 MSTORE PUSH1 0x4 ADD PUSH2 0x7DB SWAP1 PUSH2 0x115F JUMP JUMPDEST PUSH1 0x40 MLOAD DUP1 SWAP2 SUB SWAP1 REVERT JUMPDEST DUP2 PUSH0 PUSH0 PUSH2 0x100 EXP DUP2 SLOAD DUP2 PUSH20 0xFFFFFFFFFFFFFFFFFFFFFFFFFFFFFFFFFFFFFFFF MUL NOT AND SWAP1 DUP4 PUSH20 0xFFFFFFFFFFFFFFFFFFFFFFFFFFFFFFFFFFFFFFFF AND MUL OR SWAP1 SSTORE POP POP POP JUMP JUMPDEST PUSH0 DUP2 GT PUSH2 0x869 JUMPI PUSH1 0x40 MLOAD PUSH32 0x8C379A000000000000000000000000000000000000000000000000000000000 DUP2 MSTORE PUSH1 0x4 ADD PUSH2 0x860 SWAP1 PUSH2 0x11C7 JUMP JUMPDEST PUSH1 0x40 MLOAD DUP1 SWAP2 SUB SWAP1 REVERT JUMPDEST DUP1 SELFBALANCE LT ISZERO PUSH2 0x8AC JUMPI PUSH1 0x40 MLOAD PUSH32 0x8C379A000000000000000000000000000000000000000000000000000000000 DUP2 MSTORE PUSH1 0x4 ADD PUSH2 0x8A3 SWAP1 PUSH2 0x122F JUMP JUMPDEST PUSH1 0x40 MLOAD DUP1 SWAP2 SUB SWAP1 REVERT JUMPDEST PUSH0 DUP3 PUSH20 0xFFFFFFFFFFFFFFFFFFFFFFFFFFFFFFFFFFFFFFFF AND DUP3 PUSH1 0x40 MLOAD PUSH2 0x8D1 SWAP1 PUSH2 0x127A JUMP JUMPDEST PUSH0 PUSH1 0x40 MLOAD DUP1 DUP4 SUB DUP2 DUP6 DUP8 GAS CALL SWAP3 POP POP POP RETURNDATASIZE DUP1 PUSH0 DUP2 EQ PUSH2 0x90B JUMPI PUSH1 0x40 MLOAD SWAP2 POP PUSH1 0x1F NOT PUSH1 0x3F RETURNDATASIZE ADD AND DUP3 ADD PUSH1 0x40 MSTORE RETURNDATASIZE DUP3 MSTORE RETURNDATASIZE PUSH0 PUSH1 0x20 DUP5 ADD RETURNDATACOPY PUSH2 0x910 JUMP JUMPDEST PUSH1 0x60 SWAP2 POP JUMPDEST POP POP SWAP1 POP DUP1 PUSH2 0x954 JUMPI PUSH1 0x40 MLOAD PUSH32 0x8C379A000000000000000000000000000000000000000000000000000000000 DUP2 MSTORE PUSH1 0x4 ADD PUSH2 0x94B SWAP1 PUSH2 0x12D8 JUMP JUMPDEST PUSH1 0x40 MLOAD DUP1 SWAP2 SUB SWAP1 REVERT JUMPDEST POP POP POP JUMP JUMPDEST PUSH2 0x9D3 DUP4 DUP5 PUSH20 0xFFFFFFFFFFFFFFFFFFFFFFFFFFFFFFFFFFFFFFFF AND PUSH4 0xA9059CBB DUP6 DUP6 PUSH1 0x40 MLOAD PUSH1 0x24 ADD PUSH2 0x98C SWAP3 SWAP2 SWAP1 PUSH2 0x1305 JUMP JUMPDEST PUSH1 0x40 MLOAD PUSH1 0x20 DUP2 DUP4 SUB SUB DUP2 MSTORE SWAP1 PUSH1 0x40 MSTORE SWAP2 POP PUSH1 0xE0 SHL PUSH1 0x20 DUP3 ADD DUP1 MLOAD PUSH28 0xFFFFFFFFFFFFFFFFFFFFFFFFFFFFFFFFFFFFFFFFFFFFFFFFFFFFFFFF DUP4 DUP2 DUP4 AND OR DUP4 MSTORE POP POP POP POP PUSH2 0x9D8 JUMP JUMPDEST POP POP POP JUMP JUMPDEST PUSH0 PUSH0 PUSH1 0x20 PUSH0 DUP5 MLOAD PUSH1 0x20 DUP7 ADD PUSH0 DUP9 GAS CALL DUP1 PUSH2 0x9F7 JUMPI PUSH1 0x40 MLOAD RETURNDATASIZE PUSH0 DUP3 RETURNDATACOPY RETURNDATASIZE DUP2 REVERT JUMPDEST RETURNDATASIZE SWAP3 POP PUSH0 MLOAD SWAP2 POP POP PUSH0 DUP3 EQ PUSH2 0xA10 JUMPI PUSH1 0x1 DUP2 EQ ISZERO PUSH2 0xA2B JUMP JUMPDEST PUSH0 DUP5 PUSH20 0xFFFFFFFFFFFFFFFFFFFFFFFFFFFFFFFFFFFFFFFF AND EXTCODESIZE EQ JUMPDEST ISZERO PUSH2 0xA6D JUMPI DUP4 PUSH1 0x40 MLOAD PUSH32 0x5274AFE700000000000000000000000000000000000000000000000000000000 DUP2 MSTORE PUSH1 0x4 ADD PUSH2 0xA64 SWAP2 SWAP1 PUSH2 0xC46 JUMP JUMPDEST PUSH1 0x40 MLOAD DUP1 SWAP2 SUB SWAP1 REVERT JUMPDEST POP POP POP POP JUMP JUMPDEST PUSH0 PUSH1 0x40 MLOAD SWAP1 POP SWAP1 JUMP JUMPDEST PUSH0 PUSH0 REVERT JUMPDEST PUSH0 PUSH0 REVERT JUMPDEST PUSH0 PUSH0 REVERT JUMPDEST PUSH0 PUSH0 REVERT JUMPDEST PUSH0 PUSH1 0x1F NOT PUSH1 0x1F DUP4 ADD AND SWAP1 POP SWAP2 SWAP1 POP JUMP JUMPDEST PUSH32 0x4E487B7100000000000000000000000000000000000000000000000000000000 PUSH0 MSTORE PUSH1 0x41 PUSH1 0x4 MSTORE PUSH1 0x24 PUSH0 REVERT JUMPDEST PUSH2 0xAD2 DUP3 PUSH2 0xA8C JUMP JUMPDEST DUP2 ADD DUP2 DUP2 LT PUSH8 0xFFFFFFFFFFFFFFFF DUP3 GT OR ISZERO PUSH2 0xAF1 JUMPI PUSH2 0xAF0 PUSH2 0xA9C JUMP JUMPDEST JUMPDEST DUP1 PUSH1 0x40 MSTORE POP POP POP JUMP JUMPDEST PUSH0 PUSH2 0xB03 PUSH2 0xA73 JUMP JUMPDEST SWAP1 POP PUSH2 0xB0F DUP3 DUP3 PUSH2 0xAC9 JUMP JUMPDEST SWAP2 SWAP1 POP JUMP JUMPDEST PUSH0 PUSH8 0xFFFFFFFFFFFFFFFF DUP3 GT ISZERO PUSH2 0xB2E JUMPI PUSH2 0xB2D PUSH2 0xA9C JUMP JUMPDEST JUMPDEST PUSH2 0xB37 DUP3 PUSH2 0xA8C JUMP JUMPDEST SWAP1 POP PUSH1 0x20 DUP2 ADD SWAP1 POP SWAP2 SWAP1 POP JUMP JUMPDEST DUP3 DUP2 DUP4 CALLDATACOPY PUSH0 DUP4 DUP4 ADD MSTORE POP POP POP JUMP JUMPDEST PUSH0 PUSH2 0xB64 PUSH2 0xB5F DUP5 PUSH2 0xB14 JUMP JUMPDEST PUSH2 0xAFA JUMP JUMPDEST SWAP1 POP DUP3 DUP2 MSTORE PUSH1 0x20 DUP2 ADD DUP5 DUP5 DUP5 ADD GT ISZERO PUSH2 0xB80 JUMPI PUSH2 0xB7F PUSH2 0xA88 JUMP JUMPDEST JUMPDEST PUSH2 0xB8B DUP5 DUP3 DUP6 PUSH2 0xB44 JUMP JUMPDEST POP SWAP4 SWAP3 POP POP POP JUMP JUMPDEST PUSH0 DUP3 PUSH1 0x1F DUP4 ADD SLT PUSH2 0xBA7 JUMPI PUSH2 0xBA6 PUSH2 0xA84 JUMP JUMPDEST JUMPDEST DUP2 CALLDATALOAD PUSH2 0xBB7 DUP5 DUP3 PUSH1 0x20 DUP7 ADD PUSH2 0xB52 JUMP JUMPDEST SWAP2 POP POP SWAP3 SWAP2 POP POP JUMP JUMPDEST PUSH0 PUSH1 0x20 DUP3 DUP5 SUB SLT ISZERO PUSH2 0xBD5 JUMPI PUSH2 0xBD4 PUSH2 0xA7C JUMP JUMPDEST JUMPDEST PUSH0 DUP3 ADD CALLDATALOAD PUSH8 0xFFFFFFFFFFFFFFFF DUP2 GT ISZERO PUSH2 0xBF2 JUMPI PUSH2 0xBF1 PUSH2 0xA80 JUMP JUMPDEST JUMPDEST PUSH2 0xBFE DUP5 DUP3 DUP6 ADD PUSH2 0xB93 JUMP JUMPDEST SWAP2 POP POP SWAP3 SWAP2 POP POP JUMP JUMPDEST PUSH0 PUSH20 0xFFFFFFFFFFFFFFFFFFFFFFFFFFFFFFFFFFFFFFFF DUP3 AND SWAP1 POP SWAP2 SWAP1 POP JUMP JUMPDEST PUSH0 PUSH2 0xC30 DUP3 PUSH2 0xC07 JUMP JUMPDEST SWAP1 POP SWAP2 SWAP1 POP JUMP JUMPDEST PUSH2 0xC40 DUP2 PUSH2 0xC26 JUMP JUMPDEST DUP3 MSTORE POP POP JUMP JUMPDEST PUSH0 PUSH1 0x20 DUP3 ADD SWAP1 POP PUSH2 0xC59 PUSH0 DUP4 ADD DUP5 PUSH2 0xC37 JUMP JUMPDEST SWAP3 SWAP2 POP POP JUMP JUMPDEST PUSH2 0xC68 DUP2 PUSH2 0xC26 JUMP JUMPDEST DUP2 EQ PUSH2 0xC72 JUMPI PUSH0 PUSH0 REVERT JUMPDEST POP JUMP JUMPDEST PUSH0 DUP2 CALLDATALOAD SWAP1 POP PUSH2 0xC83 DUP2 PUSH2 0xC5F JUMP JUMPDEST SWAP3 SWAP2 POP POP JUMP JUMPDEST PUSH0 DUP2 SWAP1 POP SWAP2 SWAP1 POP JUMP JUMPDEST PUSH2 0xC9B DUP2 PUSH2 0xC89 JUMP JUMPDEST DUP2 EQ PUSH2 0xCA5 JUMPI PUSH0 PUSH0 REVERT JUMPDEST POP JUMP JUMPDEST PUSH0 DUP2 CALLDATALOAD SWAP1 POP PUSH2 0xCB6 DUP2 PUSH2 0xC92 JUMP JUMPDEST SWAP3 SWAP2 POP POP JUMP JUMPDEST PUSH0 PUSH0 PUSH0 PUSH1 0x60 DUP5 DUP7 SUB SLT ISZERO PUSH2 0xCD3 JUMPI PUSH2 0xCD2 PUSH2 0xA7C JUMP JUMPDEST JUMPDEST PUSH0 PUSH2 0xCE0 DUP7 DUP3 DUP8 ADD PUSH2 0xC75 JUMP JUMPDEST SWAP4 POP POP PUSH1 0x20 PUSH2 0xCF1 DUP7 DUP3 DUP8 ADD PUSH2 0xCA8 JUMP JUMPDEST SWAP3 POP POP PUSH1 0x40 PUSH2 0xD02 DUP7 DUP3 DUP8 ADD PUSH2 0xC75 JUMP JUMPDEST SWAP2 POP POP SWAP3 POP SWAP3 POP SWAP3 JUMP JUMPDEST PUSH0 DUP2 SWAP1 POP SWAP2 SWAP1 POP JUMP JUMPDEST PUSH0 PUSH2 0xD2F PUSH2 0xD2A PUSH2 0xD25 DUP5 PUSH2 0xC07 JUMP JUMPDEST PUSH2 0xD0C JUMP JUMPDEST PUSH2 0xC07 JUMP JUMPDEST SWAP1 POP SWAP2 SWAP1 POP JUMP JUMPDEST PUSH0 PUSH2 0xD40 DUP3 PUSH2 0xD15 JUMP JUMPDEST SWAP1 POP SWAP2 SWAP1 POP JUMP JUMPDEST PUSH0 PUSH2 0xD51 DUP3 PUSH2 0xD36 JUMP JUMPDEST SWAP1 POP SWAP2 SWAP1 POP JUMP JUMPDEST PUSH2 0xD61 DUP2 PUSH2 0xD47 JUMP JUMPDEST DUP3 MSTORE POP POP JUMP JUMPDEST PUSH0 PUSH1 0x20 DUP3 ADD SWAP1 POP PUSH2 0xD7A PUSH0 DUP4 ADD DUP5 PUSH2 0xD58 JUMP JUMPDEST SWAP3 SWAP2 POP POP JUMP JUMPDEST PUSH0 PUSH1 0x20 DUP3 DUP5 SUB SLT ISZERO PUSH2 0xD95 JUMPI PUSH2 0xD94 PUSH2 0xA7C JUMP JUMPDEST JUMPDEST PUSH0 PUSH2 0xDA2 DUP5 DUP3 DUP6 ADD PUSH2 0xC75 JUMP JUMPDEST SWAP2 POP POP SWAP3 SWAP2 POP POP JUMP JUMPDEST PUSH0 PUSH0 PUSH1 0x40 DUP4 DUP6 SUB SLT ISZERO PUSH2 0xDC1 JUMPI PUSH2 0xDC0 PUSH2 0xA7C JUMP JUMPDEST JUMPDEST PUSH0 PUSH2 0xDCE DUP6 DUP3 DUP7 ADD PUSH2 0xC75 JUMP JUMPDEST SWAP3 POP POP PUSH1 0x20 PUSH2 0xDDF DUP6 DUP3 DUP7 ADD PUSH2 0xC75 JUMP JUMPDEST SWAP2 POP POP SWAP3 POP SWAP3 SWAP1 POP JUMP JUMPDEST PUSH0 DUP2 MLOAD SWAP1 POP SWAP2 SWAP1 POP JUMP JUMPDEST PUSH0 DUP3 DUP3 MSTORE PUSH1 0x20 DUP3 ADD SWAP1 POP SWAP3 SWAP2 POP POP JUMP JUMPDEST DUP3 DUP2 DUP4 MCOPY PUSH0 DUP4 DUP4 ADD MSTORE POP POP POP JUMP JUMPDEST PUSH0 PUSH2 0xE1B DUP3 PUSH2 0xDE9 JUMP JUMPDEST PUSH2 0xE25 DUP2 DUP6 PUSH2 0xDF3 JUMP JUMPDEST SWAP4 POP PUSH2 0xE35 DUP2 DUP6 PUSH1 0x20 DUP7 ADD PUSH2 0xE03 JUMP JUMPDEST PUSH2 0xE3E DUP2 PUSH2 0xA8C JUMP JUMPDEST DUP5 ADD SWAP2 POP POP SWAP3 SWAP2 POP POP JUMP JUMPDEST PUSH0 PUSH1 0x20 DUP3 ADD SWAP1 POP DUP2 DUP2 SUB PUSH0 DUP4 ADD MSTORE PUSH2 0xE61 DUP2 DUP5 PUSH2 0xE11 JUMP JUMPDEST SWAP1 POP SWAP3 SWAP2 POP POP JUMP JUMPDEST PUSH0 DUP2 MLOAD SWAP1 POP PUSH2 0xE77 DUP2 PUSH2 0xC5F JUMP JUMPDEST SWAP3 SWAP2 POP POP JUMP JUMPDEST PUSH0 PUSH1 0x20 DUP3 DUP5 SUB SLT ISZERO PUSH2 0xE92 JUMPI PUSH2 0xE91 PUSH2 0xA7C JUMP JUMPDEST JUMPDEST PUSH0 PUSH2 0xE9F DUP5 DUP3 DUP6 ADD PUSH2 0xE69 JUMP JUMPDEST SWAP2 POP POP SWAP3 SWAP2 POP POP JUMP JUMPDEST PUSH32 0x6D73672E73656E646572206973206E6F742065746620726F7574657200000000 PUSH0 DUP3 ADD MSTORE POP JUMP JUMPDEST PUSH0 PUSH2 0xEDC PUSH1 0x1C DUP4 PUSH2 0xDF3 JUMP JUMPDEST SWAP2 POP PUSH2 0xEE7 DUP3 PUSH2 0xEA8 JUMP JUMPDEST PUSH1 0x20 DUP3 ADD SWAP1 POP SWAP2 SWAP1 POP JUMP JUMPDEST PUSH0 PUSH1 0x20 DUP3 ADD SWAP1 POP DUP2 DUP2 SUB PUSH0 DUP4 ADD MSTORE PUSH2 0xF09 DUP2 PUSH2 0xED0 JUMP JUMPDEST SWAP1 POP SWAP2 SWAP1 POP JUMP JUMPDEST PUSH32 0x43616C6C6572206973206E6F7420746865206F776E6572000000000000000000 PUSH0 DUP3 ADD MSTORE POP JUMP JUMPDEST PUSH0 PUSH2 0xF44 PUSH1 0x17 DUP4 PUSH2 0xDF3 JUMP JUMPDEST SWAP2 POP PUSH2 0xF4F DUP3 PUSH2 0xF10 JUMP JUMPDEST PUSH1 0x20 DUP3 ADD SWAP1 POP SWAP2 SWAP1 POP JUMP JUMPDEST PUSH0 PUSH1 0x20 DUP3 ADD SWAP1 POP DUP2 DUP2 SUB PUSH0 DUP4 ADD MSTORE PUSH2 0xF71 DUP2 PUSH2 0xF38 JUMP JUMPDEST SWAP1 POP SWAP2 SWAP1 POP JUMP JUMPDEST PUSH0 DUP2 MLOAD SWAP1 POP PUSH2 0xF86 DUP2 PUSH2 0xC92 JUMP JUMPDEST SWAP3 SWAP2 POP POP JUMP JUMPDEST PUSH0 PUSH1 0x20 DUP3 DUP5 SUB SLT ISZERO PUSH2 0xFA1 JUMPI PUSH2 0xFA0 PUSH2 0xA7C JUMP JUMPDEST JUMPDEST PUSH0 PUSH2 0xFAE DUP5 DUP3 DUP6 ADD PUSH2 0xF78 JUMP JUMPDEST SWAP2 POP POP SWAP3 SWAP2 POP POP JUMP JUMPDEST PUSH32 0x73656E64546F6B656E3A207A65726F20616D6F756E7400000000000000000000 PUSH0 DUP3 ADD MSTORE POP JUMP JUMPDEST PUSH0 PUSH2 0xFEB PUSH1 0x16 DUP4 PUSH2 0xDF3 JUMP JUMPDEST SWAP2 POP PUSH2 0xFF6 DUP3 PUSH2 0xFB7 JUMP JUMPDEST PUSH1 0x20 DUP3 ADD SWAP1 POP SWAP2 SWAP1 POP JUMP JUMPDEST PUSH0 PUSH1 0x20 DUP3 ADD SWAP1 POP DUP2 DUP2 SUB PUSH0 DUP4 ADD MSTORE PUSH2 0x1018 DUP2 PUSH2 0xFDF JUMP JUMPDEST SWAP1 POP SWAP2 SWAP1 POP JUMP JUMPDEST PUSH32 0x4469726563746F72792063616E6E6F74206265207A65726F2061646472657373 PUSH0 DUP3 ADD MSTORE POP JUMP JUMPDEST PUSH0 PUSH2 0x1053 PUSH1 0x20 DUP4 PUSH2 0xDF3 JUMP JUMPDEST SWAP2 POP PUSH2 0x105E DUP3 PUSH2 0x101F JUMP JUMPDEST PUSH1 0x20 DUP3 ADD SWAP1 POP SWAP2 SWAP1 POP JUMP JUMPDEST PUSH0 PUSH1 0x20 DUP3 ADD SWAP1 POP DUP2 DUP2 SUB PUSH0 DUP4 ADD MSTORE PUSH2 0x1080 DUP2 PUSH2 0x1047 JUMP JUMPDEST SWAP1 POP SWAP2 SWAP1 POP JUMP JUMPDEST PUSH32 0x4469726563746F7279206D757374206265206120636F6E747261637400000000 PUSH0 DUP3 ADD MSTORE POP JUMP JUMPDEST PUSH0 PUSH2 0x10BB PUSH1 0x1C DUP4 PUSH2 0xDF3 JUMP JUMPDEST SWAP2 POP PUSH2 0x10C6 DUP3 PUSH2 0x1087 JUMP JUMPDEST PUSH1 0x20 DUP3 ADD SWAP1 POP SWAP2 SWAP1 POP JUMP JUMPDEST PUSH0 PUSH1 0x20 DUP3 ADD SWAP1 POP DUP2 DUP2 SUB PUSH0 DUP4 ADD MSTORE PUSH2 0x10E8 DUP2 PUSH2 0x10AF JUMP JUMPDEST SWAP1 POP SWAP2 SWAP1 POP JUMP JUMPDEST PUSH32 0x4469726563746F7279206164647265737320646F6573206E6F7420696D706C65 PUSH0 DUP3 ADD MSTORE PUSH32 0x6D656E74206F776E657228290000000000000000000000000000000000000000 PUSH1 0x20 DUP3 ADD MSTORE POP JUMP JUMPDEST PUSH0 PUSH2 0x1149 PUSH1 0x2C DUP4 PUSH2 0xDF3 JUMP JUMPDEST SWAP2 POP PUSH2 0x1154 DUP3 PUSH2 0x10EF JUMP JUMPDEST PUSH1 0x40 DUP3 ADD SWAP1 POP SWAP2 SWAP1 POP JUMP JUMPDEST PUSH0 PUSH1 0x20 DUP3 ADD SWAP1 POP DUP2 DUP2 SUB PUSH0 DUP4 ADD MSTORE PUSH2 0x1176 DUP2 PUSH2 0x113D JUMP JUMPDEST SWAP1 POP SWAP2 SWAP1 POP JUMP JUMPDEST PUSH32 0x73656E644574683A207A65726F20616D6F756E74000000000000000000000000 PUSH0 DUP3 ADD MSTORE POP JUMP JUMPDEST PUSH0 PUSH2 0x11B1 PUSH1 0x14 DUP4 PUSH2 0xDF3 JUMP JUMPDEST SWAP2 POP PUSH2 0x11BC DUP3 PUSH2 0x117D JUMP JUMPDEST PUSH1 0x20 DUP3 ADD SWAP1 POP SWAP2 SWAP1 POP JUMP JUMPDEST PUSH0 PUSH1 0x20 DUP3 ADD SWAP1 POP DUP2 DUP2 SUB PUSH0 DUP4 ADD MSTORE PUSH2 0x11DE DUP2 PUSH2 0x11A5 JUMP JUMPDEST SWAP1 POP SWAP2 SWAP1 POP JUMP JUMPDEST PUSH32 0x73656E644574683A20696E73756666696369656E742045544800000000000000 PUSH0 DUP3 ADD MSTORE POP JUMP JUMPDEST PUSH0 PUSH2 0x1219 PUSH1 0x19 DUP4 PUSH2 0xDF3 JUMP JUMPDEST SWAP2 POP PUSH2 0x1224 DUP3 PUSH2 0x11E5 JUMP JUMPDEST PUSH1 0x20 DUP3 ADD SWAP1 POP SWAP2 SWAP1 POP JUMP JUMPDEST PUSH0 PUSH1 0x20 DUP3 ADD SWAP1 POP DUP2 DUP2 SUB PUSH0 DUP4 ADD MSTORE PUSH2 0x1246 DUP2 PUSH2 0x120D JUMP JUMPDEST SWAP1 POP SWAP2 SWAP1 POP JUMP JUMPDEST PUSH0 DUP2 SWAP1 POP SWAP3 SWAP2 POP POP JUMP JUMPDEST POP JUMP JUMPDEST PUSH0 PUSH2 0x1265 PUSH0 DUP4 PUSH2 0x124D JUMP JUMPDEST SWAP2 POP PUSH2 0x1270 DUP3 PUSH2 0x1257 JUMP JUMPDEST PUSH0 DUP3 ADD SWAP1 POP SWAP2 SWAP1 POP JUMP JUMPDEST PUSH0 PUSH2 0x1284 DUP3 PUSH2 0x125A JUMP JUMPDEST SWAP2 POP DUP2 SWAP1 POP SWAP2 SWAP1 POP JUMP JUMPDEST PUSH32 0x4554482073656E64206661696C65640000000000000000000000000000000000 PUSH0 DUP3 ADD MSTORE POP JUMP JUMPDEST PUSH0 PUSH2 0x12C2 PUSH1 0xF DUP4 PUSH2 0xDF3 JUMP JUMPDEST SWAP2 POP PUSH2 0x12CD DUP3 PUSH2 0x128E JUMP JUMPDEST PUSH1 0x20 DUP3 ADD SWAP1 POP SWAP2 SWAP1 POP JUMP JUMPDEST PUSH0 PUSH1 0x20 DUP3 ADD SWAP1 POP DUP2 DUP2 SUB PUSH0 DUP4 ADD MSTORE PUSH2 0x12EF DUP2 PUSH2 0x12B6 JUMP JUMPDEST SWAP1 POP SWAP2 SWAP1 POP JUMP JUMPDEST PUSH2 0x12FF DUP2 PUSH2 0xC89 JUMP JUMPDEST DUP3 MSTORE POP POP JUMP JUMPDEST PUSH0 PUSH1 0x40 DUP3 ADD SWAP1 POP PUSH2 0x1318 PUSH0 DUP4 ADD DUP6 PUSH2 0xC37 JUMP JUMPDEST PUSH2 0x1325 PUSH1 0x20 DUP4 ADD DUP5 PUSH2 0x12F6 JUMP JUMPDEST SWAP4 SWAP3 POP POP POP JUMP INVALID LOG2 PUSH5 0x6970667358 0x22 SLT KECCAK256 0xB4 SUB 0xDA TSTORE BLOBBASEFEE LT LOG2 DUP7 0x21 INVALID MLOAD MCOPY 0x2C SWAPN 0x7B 0xC2 0xF JUMPI SMOD PREVRANDAO PUSH7 0x950D302D9AD6B9 GASPRICE REVERT 0x2C 0xB3 PUSH5 0x736F6C6343 STOP ADDMOD 0x1E STOP CALLER LOG2 PUSH5 0x6970667358 0x22 SLT KECCAK256 EXTSTATICCALL CREATE PUSH18 0x97315D9BC3CA242FCF5720D19520F26F844 DUP11 MLOAD COINBASE 0xCF 0xC2 0xD3 PUSH31 0x9A0D29BD64736F6C634300081E003300000000000000000000000000000000 "
				},
				"gasEstimates": {
					"creation": {
						"codeDepositCost": "1844600",
						"executionCost": "infinite",
						"totalCost": "infinite"
					},
					"external": {
						"Directory()": "infinite",
						"changeDirectoryAddress(address)": "infinite",
						"deployEtfVault(uint256)": "infinite",
						"fetchFromDirectory(string)": "infinite",
						"owner()": "infinite"
					}
				},
				"methodIdentifiers": {
					"Directory()": "658a847a",
					"changeDirectoryAddress(address)": "ba4c7be1",
					"deployEtfVault(uint256)": "b57c59a7",
					"fetchFromDirectory(string)": "27262618",
					"owner()": "8da5cb5b"
				}
			},
			"storageLayout": {
				"storage": [
					{
						"astId": 18,
						"contract": "hopium/etf/main/etf-vault-deployer.sol:EtfVaultDeployer",
						"label": "Directory",
						"offset": 0,
						"slot": "0",
						"type": "t_contract(IDirectory)15"
					}
				],
				"types": {
					"t_contract(IDirectory)15": {
						"encoding": "inplace",
						"label": "contract IDirectory",
						"numberOfBytes": "20"
					}
				}
			},
			"userdoc": {
				"kind": "user",
				"methods": {
					"deployEtfVault(uint256)": {
						"notice": "Deploys a new ERC20 index token and returns its address"
					}
				},
				"notice": "Factory that deploys Etf Vault",
				"version": 1
			}
		}
	}
}