{
	"hopium/etf/main/etf-oracle.sol": {
		"EtfOracle": {
			"abi": [
				{
					"inputs": [
						{
							"internalType": "address",
							"name": "_directory",
							"type": "address"
						}
					],
					"stateMutability": "nonpayable",
					"type": "constructor"
				},
				{
					"inputs": [],
					"name": "Directory",
					"outputs": [
						{
							"internalType": "contract IDirectory",
							"name": "",
							"type": "address"
						}
					],
					"stateMutability": "view",
					"type": "function"
				},
				{
					"inputs": [
						{
							"internalType": "address",
							"name": "_directory",
							"type": "address"
						}
					],
					"name": "changeDirectoryAddress",
					"outputs": [],
					"stateMutability": "nonpayable",
					"type": "function"
				},
				{
					"inputs": [
						{
							"internalType": "string",
							"name": "_key",
							"type": "string"
						}
					],
					"name": "fetchFromDirectory",
					"outputs": [
						{
							"internalType": "address",
							"name": "",
							"type": "address"
						}
					],
					"stateMutability": "view",
					"type": "function"
				},
				{
					"inputs": [
						{
							"internalType": "uint256",
							"name": "etfId",
							"type": "uint256"
						}
					],
					"name": "getEtfDetails",
					"outputs": [
						{
							"components": [
								{
									"internalType": "string",
									"name": "name",
									"type": "string"
								},
								{
									"internalType": "string",
									"name": "ticker",
									"type": "string"
								},
								{
									"components": [
										{
											"internalType": "address",
											"name": "tokenAddress",
											"type": "address"
										},
										{
											"internalType": "uint16",
											"name": "weightBips",
											"type": "uint16"
										}
									],
									"internalType": "struct Asset[]",
									"name": "assets",
									"type": "tuple[]"
								}
							],
							"internalType": "struct Etf",
							"name": "etf",
							"type": "tuple"
						},
						{
							"components": [
								{
									"components": [
										{
											"internalType": "uint256",
											"name": "eth18",
											"type": "uint256"
										},
										{
											"internalType": "uint256",
											"name": "usd18",
											"type": "uint256"
										}
									],
									"internalType": "struct EtfStats.EthUsd",
									"name": "price",
									"type": "tuple"
								},
								{
									"components": [
										{
											"internalType": "uint256",
											"name": "eth18",
											"type": "uint256"
										},
										{
											"internalType": "uint256",
											"name": "usd18",
											"type": "uint256"
										}
									],
									"internalType": "struct EtfStats.EthUsd",
									"name": "volume",
									"type": "tuple"
								},
								{
									"components": [
										{
											"internalType": "uint256",
											"name": "eth18",
											"type": "uint256"
										},
										{
											"internalType": "uint256",
											"name": "usd18",
											"type": "uint256"
										}
									],
									"internalType": "struct EtfStats.EthUsd",
									"name": "tvl",
									"type": "tuple"
								},
								{
									"internalType": "uint256",
									"name": "assetsLiquidityUsd",
									"type": "uint256"
								},
								{
									"internalType": "uint256",
									"name": "assetsMcapUsd",
									"type": "uint256"
								}
							],
							"internalType": "struct EtfStats.Stats",
							"name": "st",
							"type": "tuple"
						},
						{
							"components": [
								{
									"internalType": "address",
									"name": "tokenAddress",
									"type": "address"
								},
								{
									"internalType": "uint8",
									"name": "tokenDecimals",
									"type": "uint8"
								},
								{
									"internalType": "uint16",
									"name": "currentWeight",
									"type": "uint16"
								},
								{
									"internalType": "uint256",
									"name": "tokenRawBalance",
									"type": "uint256"
								},
								{
									"internalType": "uint256",
									"name": "tokenPriceWeth18",
									"type": "uint256"
								},
								{
									"internalType": "uint256",
									"name": "tokenPriceUsd18",
									"type": "uint256"
								},
								{
									"internalType": "uint256",
									"name": "tokenValueWeth18",
									"type": "uint256"
								},
								{
									"internalType": "uint256",
									"name": "tokenValueUsd18",
									"type": "uint256"
								}
							],
							"internalType": "struct SnapshotWithUsd[]",
							"name": "sn",
							"type": "tuple[]"
						},
						{
							"internalType": "uint256",
							"name": "etfTvlWeth",
							"type": "uint256"
						},
						{
							"internalType": "uint256",
							"name": "etfTvlUsd",
							"type": "uint256"
						}
					],
					"stateMutability": "view",
					"type": "function"
				},
				{
					"inputs": [
						{
							"internalType": "uint256",
							"name": "etfId",
							"type": "uint256"
						}
					],
					"name": "getEtfPrice",
					"outputs": [
						{
							"internalType": "uint256",
							"name": "wethPrice18",
							"type": "uint256"
						},
						{
							"internalType": "uint256",
							"name": "usdPrice18",
							"type": "uint256"
						}
					],
					"stateMutability": "view",
					"type": "function"
				},
				{
					"inputs": [
						{
							"internalType": "uint256",
							"name": "etfId",
							"type": "uint256"
						}
					],
					"name": "getEtfStats",
					"outputs": [
						{
							"components": [
								{
									"components": [
										{
											"internalType": "uint256",
											"name": "eth18",
											"type": "uint256"
										},
										{
											"internalType": "uint256",
											"name": "usd18",
											"type": "uint256"
										}
									],
									"internalType": "struct EtfStats.EthUsd",
									"name": "price",
									"type": "tuple"
								},
								{
									"components": [
										{
											"internalType": "uint256",
											"name": "eth18",
											"type": "uint256"
										},
										{
											"internalType": "uint256",
											"name": "usd18",
											"type": "uint256"
										}
									],
									"internalType": "struct EtfStats.EthUsd",
									"name": "volume",
									"type": "tuple"
								},
								{
									"components": [
										{
											"internalType": "uint256",
											"name": "eth18",
											"type": "uint256"
										},
										{
											"internalType": "uint256",
											"name": "usd18",
											"type": "uint256"
										}
									],
									"internalType": "struct EtfStats.EthUsd",
									"name": "tvl",
									"type": "tuple"
								},
								{
									"internalType": "uint256",
									"name": "assetsLiquidityUsd",
									"type": "uint256"
								},
								{
									"internalType": "uint256",
									"name": "assetsMcapUsd",
									"type": "uint256"
								}
							],
							"internalType": "struct EtfStats.Stats",
							"name": "s",
							"type": "tuple"
						}
					],
					"stateMutability": "view",
					"type": "function"
				},
				{
					"inputs": [
						{
							"internalType": "uint256",
							"name": "etfId",
							"type": "uint256"
						}
					],
					"name": "getEtfUsdPrice",
					"outputs": [
						{
							"internalType": "uint256",
							"name": "",
							"type": "uint256"
						}
					],
					"stateMutability": "view",
					"type": "function"
				},
				{
					"inputs": [
						{
							"internalType": "uint256",
							"name": "etfId",
							"type": "uint256"
						}
					],
					"name": "getEtfWethPrice",
					"outputs": [
						{
							"internalType": "uint256",
							"name": "",
							"type": "uint256"
						}
					],
					"stateMutability": "view",
					"type": "function"
				},
				{
					"inputs": [],
					"name": "owner",
					"outputs": [
						{
							"internalType": "address",
							"name": "",
							"type": "address"
						}
					],
					"stateMutability": "view",
					"type": "function"
				},
				{
					"inputs": [
						{
							"internalType": "uint256",
							"name": "etfId",
							"type": "uint256"
						}
					],
					"name": "snapshotVault",
					"outputs": [
						{
							"components": [
								{
									"internalType": "address",
									"name": "tokenAddress",
									"type": "address"
								},
								{
									"internalType": "uint8",
									"name": "tokenDecimals",
									"type": "uint8"
								},
								{
									"internalType": "uint16",
									"name": "currentWeight",
									"type": "uint16"
								},
								{
									"internalType": "uint256",
									"name": "tokenRawBalance",
									"type": "uint256"
								},
								{
									"internalType": "uint256",
									"name": "tokenPriceWeth18",
									"type": "uint256"
								},
								{
									"internalType": "uint256",
									"name": "tokenValueWeth18",
									"type": "uint256"
								}
							],
							"internalType": "struct Snapshot[]",
							"name": "s",
							"type": "tuple[]"
						},
						{
							"internalType": "uint256",
							"name": "etfTvlWeth",
							"type": "uint256"
						}
					],
					"stateMutability": "view",
					"type": "function"
				},
				{
					"inputs": [
						{
							"components": [
								{
									"internalType": "string",
									"name": "name",
									"type": "string"
								},
								{
									"internalType": "string",
									"name": "ticker",
									"type": "string"
								},
								{
									"components": [
										{
											"internalType": "address",
											"name": "tokenAddress",
											"type": "address"
										},
										{
											"internalType": "uint16",
											"name": "weightBips",
											"type": "uint16"
										}
									],
									"internalType": "struct Asset[]",
									"name": "assets",
									"type": "tuple[]"
								}
							],
							"internalType": "struct Etf",
							"name": "etf",
							"type": "tuple"
						},
						{
							"internalType": "address",
							"name": "vaultAddress",
							"type": "address"
						}
					],
					"name": "snapshotVaultUnchecked",
					"outputs": [
						{
							"components": [
								{
									"internalType": "address",
									"name": "tokenAddress",
									"type": "address"
								},
								{
									"internalType": "uint8",
									"name": "tokenDecimals",
									"type": "uint8"
								},
								{
									"internalType": "uint16",
									"name": "currentWeight",
									"type": "uint16"
								},
								{
									"internalType": "uint256",
									"name": "tokenRawBalance",
									"type": "uint256"
								},
								{
									"internalType": "uint256",
									"name": "tokenPriceWeth18",
									"type": "uint256"
								},
								{
									"internalType": "uint256",
									"name": "tokenValueWeth18",
									"type": "uint256"
								}
							],
							"internalType": "struct Snapshot[]",
							"name": "s",
							"type": "tuple[]"
						},
						{
							"internalType": "uint256",
							"name": "etfTvlWeth",
							"type": "uint256"
						}
					],
					"stateMutability": "view",
					"type": "function"
				},
				{
					"inputs": [
						{
							"internalType": "uint256",
							"name": "etfId",
							"type": "uint256"
						}
					],
					"name": "snapshotVaultWithUsd",
					"outputs": [
						{
							"components": [
								{
									"internalType": "address",
									"name": "tokenAddress",
									"type": "address"
								},
								{
									"internalType": "uint8",
									"name": "tokenDecimals",
									"type": "uint8"
								},
								{
									"internalType": "uint16",
									"name": "currentWeight",
									"type": "uint16"
								},
								{
									"internalType": "uint256",
									"name": "tokenRawBalance",
									"type": "uint256"
								},
								{
									"internalType": "uint256",
									"name": "tokenPriceWeth18",
									"type": "uint256"
								},
								{
									"internalType": "uint256",
									"name": "tokenPriceUsd18",
									"type": "uint256"
								},
								{
									"internalType": "uint256",
									"name": "tokenValueWeth18",
									"type": "uint256"
								},
								{
									"internalType": "uint256",
									"name": "tokenValueUsd18",
									"type": "uint256"
								}
							],
							"internalType": "struct SnapshotWithUsd[]",
							"name": "s",
							"type": "tuple[]"
						},
						{
							"internalType": "uint256",
							"name": "etfTvlWeth",
							"type": "uint256"
						},
						{
							"internalType": "uint256",
							"name": "etfTvlUsd",
							"type": "uint256"
						}
					],
					"stateMutability": "view",
					"type": "function"
				}
			],
			"devdoc": {
				"kind": "dev",
				"methods": {
					"getEtfUsdPrice(uint256)": {
						"details": "Uses the internal _convertWethToUsd helper for conversion."
					}
				},
				"version": 1
			},
			"evm": {
				"assembly": "    /* \"hopium/etf/main/etf-oracle.sol\":10012:12554  contract EtfOracle is ImDirectory, PriceHelpers, EtfStats {... */\n  mstore(0x40, 0x80)\n    /* \"hopium/etf/main/etf-oracle.sol\":10077:10135  constructor(address _directory) ImDirectory(_directory) {} */\n  callvalue\n  dup1\n  iszero\n  tag_1\n  jumpi\n  revert(0x00, 0x00)\ntag_1:\n  pop\n  mload(0x40)\n  sub(codesize, bytecodeSize)\n  dup1\n  bytecodeSize\n  dup4\n  codecopy\n  dup2\n  dup2\n  add\n  0x40\n  mstore\n  dup2\n  add\n  swap1\n  tag_2\n  swap2\n  swap1\n  tag_3\n  jump\t// in\ntag_2:\n    /* \"hopium/etf/main/etf-oracle.sol\":10121:10131  _directory */\n  dup1\n    /* \"hopium/common/interface/imDirectory.sol\":412:437  _setDirectory(_directory) */\n  tag_7\n    /* \"hopium/common/interface/imDirectory.sol\":426:436  _directory */\n  dup2\n    /* \"hopium/common/interface/imDirectory.sol\":412:425  _setDirectory */\n  shl(0x20, tag_8)\n    /* \"hopium/common/interface/imDirectory.sol\":412:437  _setDirectory(_directory) */\n  0x20\n  shr\n  jump\t// in\ntag_7:\n    /* \"hopium/common/interface/imDirectory.sol\":370:464  constructor(address _directory) {... */\n  pop\n    /* \"hopium/etf/main/etf-oracle.sol\":10077:10135  constructor(address _directory) ImDirectory(_directory) {} */\n  pop\n    /* \"hopium/etf/main/etf-oracle.sol\":10012:12554  contract EtfOracle is ImDirectory, PriceHelpers, EtfStats {... */\n  jump(tag_10)\n    /* \"hopium/common/interface/imDirectory.sol\":589:1050  function _setDirectory(address _directory) internal {... */\ntag_8:\n    /* \"hopium/common/interface/imDirectory.sol\":681:682  0 */\n  0x00\n    /* \"hopium/common/interface/imDirectory.sol\":659:683  _directory != address(0) */\n  0xffffffffffffffffffffffffffffffffffffffff\n  and\n    /* \"hopium/common/interface/imDirectory.sol\":659:669  _directory */\n  dup2\n    /* \"hopium/common/interface/imDirectory.sol\":659:683  _directory != address(0) */\n  0xffffffffffffffffffffffffffffffffffffffff\n  and\n  sub\n    /* \"hopium/common/interface/imDirectory.sol\":651:720  require(_directory != address(0), \"Directory cannot be zero address\") */\n  tag_12\n  jumpi\n  mload(0x40)\n  0x08c379a000000000000000000000000000000000000000000000000000000000\n  dup2\n  mstore\n  0x04\n  add\n  tag_13\n  swap1\n  tag_14\n  jump\t// in\ntag_13:\n  mload(0x40)\n  dup1\n  swap2\n  sub\n  swap1\n  revert\ntag_12:\n    /* \"hopium/common/interface/imDirectory.sol\":763:764  0 */\n  0x00\n    /* \"hopium/common/interface/imDirectory.sol\":738:748  _directory */\n  dup2\n    /* \"hopium/common/interface/imDirectory.sol\":738:760  _directory.code.length */\n  0xffffffffffffffffffffffffffffffffffffffff\n  and\n  extcodesize\n    /* \"hopium/common/interface/imDirectory.sol\":738:764  _directory.code.length > 0 */\n  gt\n    /* \"hopium/common/interface/imDirectory.sol\":730:797  require(_directory.code.length > 0, \"Directory must be a contract\") */\n  tag_15\n  jumpi\n  mload(0x40)\n  0x08c379a000000000000000000000000000000000000000000000000000000000\n  dup2\n  mstore\n  0x04\n  add\n  tag_16\n  swap1\n  tag_17\n  jump\t// in\ntag_16:\n  mload(0x40)\n  dup1\n  swap2\n  sub\n  swap1\n  revert\ntag_15:\n    /* \"hopium/common/interface/imDirectory.sol\":861:871  _directory */\n  dup1\n    /* \"hopium/common/interface/imDirectory.sol\":850:878  IDirectory(_directory).owner */\n  0xffffffffffffffffffffffffffffffffffffffff\n  and\n  0x8da5cb5b\n    /* \"hopium/common/interface/imDirectory.sol\":850:880  IDirectory(_directory).owner() */\n  mload(0x40)\n  dup2\n  0xffffffff\n  and\n  0xe0\n  shl\n  dup2\n  mstore\n  0x04\n  add\n  0x20\n  mload(0x40)\n  dup1\n  dup4\n  sub\n  dup2\n  dup7\n  gas\n  staticcall\n  swap3\n  pop\n  pop\n  pop\n  dup1\n  iszero\n  tag_18\n  jumpi\n  pop\n  mload(0x40)\n  returndatasize\n  not(0x1f)\n  0x1f\n  dup3\n  add\n  and\n  dup3\n  add\n  dup1\n  0x40\n  mstore\n  pop\n  dup2\n  add\n  swap1\n  tag_19\n  swap2\n  swap1\n  tag_3\n  jump\t// in\ntag_19:\n  0x01\ntag_18:\n    /* \"hopium/common/interface/imDirectory.sol\":846:1044  try IDirectory(_directory).owner() returns (address) {... */\n  tag_20\n  jumpi\n    /* \"hopium/common/interface/imDirectory.sol\":979:1033  revert(\"Directory address does not implement owner()\") */\n  mload(0x40)\n  0x08c379a000000000000000000000000000000000000000000000000000000000\n  dup2\n  mstore\n  0x04\n  add\n  tag_24\n  swap1\n  tag_25\n  jump\t// in\ntag_24:\n  mload(0x40)\n  dup1\n  swap2\n  sub\n  swap1\n  revert\n    /* \"hopium/common/interface/imDirectory.sol\":846:1044  try IDirectory(_directory).owner() returns (address) {... */\ntag_20:\n    /* \"hopium/common/interface/imDirectory.sol\":936:946  _directory */\n  dup2\n    /* \"hopium/common/interface/imDirectory.sol\":913:922  Directory */\n  0x00\n  0x00\n    /* \"hopium/common/interface/imDirectory.sol\":913:947  Directory = IDirectory(_directory) */\n  0x0100\n  exp\n  dup2\n  sload\n  dup2\n  0xffffffffffffffffffffffffffffffffffffffff\n  mul\n  not\n  and\n  swap1\n  dup4\n  0xffffffffffffffffffffffffffffffffffffffff\n  and\n  mul\n  or\n  swap1\n  sstore\n  pop\n    /* \"hopium/common/interface/imDirectory.sol\":881:958  returns (address) {... */\n  pop\n    /* \"hopium/common/interface/imDirectory.sol\":589:1050  function _setDirectory(address _directory) internal {... */\n  pop\n  jump\t// out\n    /* \"#utility.yul\":88:205   */\ntag_28:\n    /* \"#utility.yul\":197:198   */\n  0x00\n    /* \"#utility.yul\":194:195   */\n  0x00\n    /* \"#utility.yul\":187:199   */\n  revert\n    /* \"#utility.yul\":334:460   */\ntag_30:\n    /* \"#utility.yul\":371:378   */\n  0x00\n    /* \"#utility.yul\":411:453   */\n  0xffffffffffffffffffffffffffffffffffffffff\n    /* \"#utility.yul\":404:409   */\n  dup3\n    /* \"#utility.yul\":400:454   */\n  and\n    /* \"#utility.yul\":389:454   */\n  swap1\n  pop\n    /* \"#utility.yul\":334:460   */\n  swap2\n  swap1\n  pop\n  jump\t// out\n    /* \"#utility.yul\":466:562   */\ntag_31:\n    /* \"#utility.yul\":503:510   */\n  0x00\n    /* \"#utility.yul\":532:556   */\n  tag_47\n    /* \"#utility.yul\":550:555   */\n  dup3\n    /* \"#utility.yul\":532:556   */\n  tag_30\n  jump\t// in\ntag_47:\n    /* \"#utility.yul\":521:556   */\n  swap1\n  pop\n    /* \"#utility.yul\":466:562   */\n  swap2\n  swap1\n  pop\n  jump\t// out\n    /* \"#utility.yul\":568:690   */\ntag_32:\n    /* \"#utility.yul\":641:665   */\n  tag_49\n    /* \"#utility.yul\":659:664   */\n  dup2\n    /* \"#utility.yul\":641:665   */\n  tag_31\n  jump\t// in\ntag_49:\n    /* \"#utility.yul\":634:639   */\n  dup2\n    /* \"#utility.yul\":631:666   */\n  eq\n    /* \"#utility.yul\":621:684   */\n  tag_50\n  jumpi\n    /* \"#utility.yul\":680:681   */\n  0x00\n    /* \"#utility.yul\":677:678   */\n  0x00\n    /* \"#utility.yul\":670:682   */\n  revert\n    /* \"#utility.yul\":621:684   */\ntag_50:\n    /* \"#utility.yul\":568:690   */\n  pop\n  jump\t// out\n    /* \"#utility.yul\":696:839   */\ntag_33:\n    /* \"#utility.yul\":753:758   */\n  0x00\n    /* \"#utility.yul\":784:790   */\n  dup2\n    /* \"#utility.yul\":778:791   */\n  mload\n    /* \"#utility.yul\":769:791   */\n  swap1\n  pop\n    /* \"#utility.yul\":800:833   */\n  tag_52\n    /* \"#utility.yul\":827:832   */\n  dup2\n    /* \"#utility.yul\":800:833   */\n  tag_32\n  jump\t// in\ntag_52:\n    /* \"#utility.yul\":696:839   */\n  swap3\n  swap2\n  pop\n  pop\n  jump\t// out\n    /* \"#utility.yul\":845:1196   */\ntag_3:\n    /* \"#utility.yul\":915:921   */\n  0x00\n    /* \"#utility.yul\":964:966   */\n  0x20\n    /* \"#utility.yul\":952:961   */\n  dup3\n    /* \"#utility.yul\":943:950   */\n  dup5\n    /* \"#utility.yul\":939:962   */\n  sub\n    /* \"#utility.yul\":935:967   */\n  slt\n    /* \"#utility.yul\":932:1051   */\n  iszero\n  tag_54\n  jumpi\n    /* \"#utility.yul\":970:1049   */\n  tag_55\n  tag_28\n  jump\t// in\ntag_55:\n    /* \"#utility.yul\":932:1051   */\ntag_54:\n    /* \"#utility.yul\":1090:1091   */\n  0x00\n    /* \"#utility.yul\":1115:1179   */\n  tag_56\n    /* \"#utility.yul\":1171:1178   */\n  dup5\n    /* \"#utility.yul\":1162:1168   */\n  dup3\n    /* \"#utility.yul\":1151:1160   */\n  dup6\n    /* \"#utility.yul\":1147:1169   */\n  add\n    /* \"#utility.yul\":1115:1179   */\n  tag_33\n  jump\t// in\ntag_56:\n    /* \"#utility.yul\":1105:1179   */\n  swap2\n  pop\n    /* \"#utility.yul\":1061:1189   */\n  pop\n    /* \"#utility.yul\":845:1196   */\n  swap3\n  swap2\n  pop\n  pop\n  jump\t// out\n    /* \"#utility.yul\":1202:1371   */\ntag_34:\n    /* \"#utility.yul\":1286:1297   */\n  0x00\n    /* \"#utility.yul\":1320:1326   */\n  dup3\n    /* \"#utility.yul\":1315:1318   */\n  dup3\n    /* \"#utility.yul\":1308:1327   */\n  mstore\n    /* \"#utility.yul\":1360:1364   */\n  0x20\n    /* \"#utility.yul\":1355:1358   */\n  dup3\n    /* \"#utility.yul\":1351:1365   */\n  add\n    /* \"#utility.yul\":1336:1365   */\n  swap1\n  pop\n    /* \"#utility.yul\":1202:1371   */\n  swap3\n  swap2\n  pop\n  pop\n  jump\t// out\n    /* \"#utility.yul\":1377:1559   */\ntag_35:\n    /* \"#utility.yul\":1517:1551   */\n  0x4469726563746f72792063616e6e6f74206265207a65726f2061646472657373\n    /* \"#utility.yul\":1513:1514   */\n  0x00\n    /* \"#utility.yul\":1505:1511   */\n  dup3\n    /* \"#utility.yul\":1501:1515   */\n  add\n    /* \"#utility.yul\":1494:1552   */\n  mstore\n    /* \"#utility.yul\":1377:1559   */\n  pop\n  jump\t// out\n    /* \"#utility.yul\":1565:1931   */\ntag_36:\n    /* \"#utility.yul\":1707:1710   */\n  0x00\n    /* \"#utility.yul\":1728:1795   */\n  tag_60\n    /* \"#utility.yul\":1792:1794   */\n  0x20\n    /* \"#utility.yul\":1787:1790   */\n  dup4\n    /* \"#utility.yul\":1728:1795   */\n  tag_34\n  jump\t// in\ntag_60:\n    /* \"#utility.yul\":1721:1795   */\n  swap2\n  pop\n    /* \"#utility.yul\":1804:1897   */\n  tag_61\n    /* \"#utility.yul\":1893:1896   */\n  dup3\n    /* \"#utility.yul\":1804:1897   */\n  tag_35\n  jump\t// in\ntag_61:\n    /* \"#utility.yul\":1922:1924   */\n  0x20\n    /* \"#utility.yul\":1917:1920   */\n  dup3\n    /* \"#utility.yul\":1913:1925   */\n  add\n    /* \"#utility.yul\":1906:1925   */\n  swap1\n  pop\n    /* \"#utility.yul\":1565:1931   */\n  swap2\n  swap1\n  pop\n  jump\t// out\n    /* \"#utility.yul\":1937:2356   */\ntag_14:\n    /* \"#utility.yul\":2103:2107   */\n  0x00\n    /* \"#utility.yul\":2141:2143   */\n  0x20\n    /* \"#utility.yul\":2130:2139   */\n  dup3\n    /* \"#utility.yul\":2126:2144   */\n  add\n    /* \"#utility.yul\":2118:2144   */\n  swap1\n  pop\n    /* \"#utility.yul\":2190:2199   */\n  dup2\n    /* \"#utility.yul\":2184:2188   */\n  dup2\n    /* \"#utility.yul\":2180:2200   */\n  sub\n    /* \"#utility.yul\":2176:2177   */\n  0x00\n    /* \"#utility.yul\":2165:2174   */\n  dup4\n    /* \"#utility.yul\":2161:2178   */\n  add\n    /* \"#utility.yul\":2154:2201   */\n  mstore\n    /* \"#utility.yul\":2218:2349   */\n  tag_63\n    /* \"#utility.yul\":2344:2348   */\n  dup2\n    /* \"#utility.yul\":2218:2349   */\n  tag_36\n  jump\t// in\ntag_63:\n    /* \"#utility.yul\":2210:2349   */\n  swap1\n  pop\n    /* \"#utility.yul\":1937:2356   */\n  swap2\n  swap1\n  pop\n  jump\t// out\n    /* \"#utility.yul\":2362:2540   */\ntag_37:\n    /* \"#utility.yul\":2502:2532   */\n  0x4469726563746f7279206d757374206265206120636f6e747261637400000000\n    /* \"#utility.yul\":2498:2499   */\n  0x00\n    /* \"#utility.yul\":2490:2496   */\n  dup3\n    /* \"#utility.yul\":2486:2500   */\n  add\n    /* \"#utility.yul\":2479:2533   */\n  mstore\n    /* \"#utility.yul\":2362:2540   */\n  pop\n  jump\t// out\n    /* \"#utility.yul\":2546:2912   */\ntag_38:\n    /* \"#utility.yul\":2688:2691   */\n  0x00\n    /* \"#utility.yul\":2709:2776   */\n  tag_66\n    /* \"#utility.yul\":2773:2775   */\n  0x1c\n    /* \"#utility.yul\":2768:2771   */\n  dup4\n    /* \"#utility.yul\":2709:2776   */\n  tag_34\n  jump\t// in\ntag_66:\n    /* \"#utility.yul\":2702:2776   */\n  swap2\n  pop\n    /* \"#utility.yul\":2785:2878   */\n  tag_67\n    /* \"#utility.yul\":2874:2877   */\n  dup3\n    /* \"#utility.yul\":2785:2878   */\n  tag_37\n  jump\t// in\ntag_67:\n    /* \"#utility.yul\":2903:2905   */\n  0x20\n    /* \"#utility.yul\":2898:2901   */\n  dup3\n    /* \"#utility.yul\":2894:2906   */\n  add\n    /* \"#utility.yul\":2887:2906   */\n  swap1\n  pop\n    /* \"#utility.yul\":2546:2912   */\n  swap2\n  swap1\n  pop\n  jump\t// out\n    /* \"#utility.yul\":2918:3337   */\ntag_17:\n    /* \"#utility.yul\":3084:3088   */\n  0x00\n    /* \"#utility.yul\":3122:3124   */\n  0x20\n    /* \"#utility.yul\":3111:3120   */\n  dup3\n    /* \"#utility.yul\":3107:3125   */\n  add\n    /* \"#utility.yul\":3099:3125   */\n  swap1\n  pop\n    /* \"#utility.yul\":3171:3180   */\n  dup2\n    /* \"#utility.yul\":3165:3169   */\n  dup2\n    /* \"#utility.yul\":3161:3181   */\n  sub\n    /* \"#utility.yul\":3157:3158   */\n  0x00\n    /* \"#utility.yul\":3146:3155   */\n  dup4\n    /* \"#utility.yul\":3142:3159   */\n  add\n    /* \"#utility.yul\":3135:3182   */\n  mstore\n    /* \"#utility.yul\":3199:3330   */\n  tag_69\n    /* \"#utility.yul\":3325:3329   */\n  dup2\n    /* \"#utility.yul\":3199:3330   */\n  tag_38\n  jump\t// in\ntag_69:\n    /* \"#utility.yul\":3191:3330   */\n  swap1\n  pop\n    /* \"#utility.yul\":2918:3337   */\n  swap2\n  swap1\n  pop\n  jump\t// out\n    /* \"#utility.yul\":3343:3574   */\ntag_39:\n    /* \"#utility.yul\":3483:3517   */\n  0x4469726563746f7279206164647265737320646f6573206e6f7420696d706c65\n    /* \"#utility.yul\":3479:3480   */\n  0x00\n    /* \"#utility.yul\":3471:3477   */\n  dup3\n    /* \"#utility.yul\":3467:3481   */\n  add\n    /* \"#utility.yul\":3460:3518   */\n  mstore\n    /* \"#utility.yul\":3552:3566   */\n  0x6d656e74206f776e657228290000000000000000000000000000000000000000\n    /* \"#utility.yul\":3547:3549   */\n  0x20\n    /* \"#utility.yul\":3539:3545   */\n  dup3\n    /* \"#utility.yul\":3535:3550   */\n  add\n    /* \"#utility.yul\":3528:3567   */\n  mstore\n    /* \"#utility.yul\":3343:3574   */\n  pop\n  jump\t// out\n    /* \"#utility.yul\":3580:3946   */\ntag_40:\n    /* \"#utility.yul\":3722:3725   */\n  0x00\n    /* \"#utility.yul\":3743:3810   */\n  tag_72\n    /* \"#utility.yul\":3807:3809   */\n  0x2c\n    /* \"#utility.yul\":3802:3805   */\n  dup4\n    /* \"#utility.yul\":3743:3810   */\n  tag_34\n  jump\t// in\ntag_72:\n    /* \"#utility.yul\":3736:3810   */\n  swap2\n  pop\n    /* \"#utility.yul\":3819:3912   */\n  tag_73\n    /* \"#utility.yul\":3908:3911   */\n  dup3\n    /* \"#utility.yul\":3819:3912   */\n  tag_39\n  jump\t// in\ntag_73:\n    /* \"#utility.yul\":3937:3939   */\n  0x40\n    /* \"#utility.yul\":3932:3935   */\n  dup3\n    /* \"#utility.yul\":3928:3940   */\n  add\n    /* \"#utility.yul\":3921:3940   */\n  swap1\n  pop\n    /* \"#utility.yul\":3580:3946   */\n  swap2\n  swap1\n  pop\n  jump\t// out\n    /* \"#utility.yul\":3952:4371   */\ntag_25:\n    /* \"#utility.yul\":4118:4122   */\n  0x00\n    /* \"#utility.yul\":4156:4158   */\n  0x20\n    /* \"#utility.yul\":4145:4154   */\n  dup3\n    /* \"#utility.yul\":4141:4159   */\n  add\n    /* \"#utility.yul\":4133:4159   */\n  swap1\n  pop\n    /* \"#utility.yul\":4205:4214   */\n  dup2\n    /* \"#utility.yul\":4199:4203   */\n  dup2\n    /* \"#utility.yul\":4195:4215   */\n  sub\n    /* \"#utility.yul\":4191:4192   */\n  0x00\n    /* \"#utility.yul\":4180:4189   */\n  dup4\n    /* \"#utility.yul\":4176:4193   */\n  add\n    /* \"#utility.yul\":4169:4216   */\n  mstore\n    /* \"#utility.yul\":4233:4364   */\n  tag_75\n    /* \"#utility.yul\":4359:4363   */\n  dup2\n    /* \"#utility.yul\":4233:4364   */\n  tag_40\n  jump\t// in\ntag_75:\n    /* \"#utility.yul\":4225:4364   */\n  swap1\n  pop\n    /* \"#utility.yul\":3952:4371   */\n  swap2\n  swap1\n  pop\n  jump\t// out\n    /* \"hopium/etf/main/etf-oracle.sol\":10012:12554  contract EtfOracle is ImDirectory, PriceHelpers, EtfStats {... */\ntag_10:\n  dataSize(sub_0)\n  dup1\n  dataOffset(sub_0)\n  0x00\n  codecopy\n  0x00\n  return\nstop\n\nsub_0: assembly {\n        /* \"hopium/etf/main/etf-oracle.sol\":10012:12554  contract EtfOracle is ImDirectory, PriceHelpers, EtfStats {... */\n      mstore(0x40, 0x80)\n      callvalue\n      dup1\n      iszero\n      tag_1\n      jumpi\n      revert(0x00, 0x00)\n    tag_1:\n      pop\n      jumpi(tag_2, lt(calldatasize, 0x04))\n      shr(0xe0, calldataload(0x00))\n      dup1\n      0x79de9e82\n      gt\n      tag_15\n      jumpi\n      dup1\n      0x79de9e82\n      eq\n      tag_9\n      jumpi\n      dup1\n      0x812efc8e\n      eq\n      tag_10\n      jumpi\n      dup1\n      0x8da5cb5b\n      eq\n      tag_11\n      jumpi\n      dup1\n      0xba4c7be1\n      eq\n      tag_12\n      jumpi\n      dup1\n      0xcd8d334f\n      eq\n      tag_13\n      jumpi\n      dup1\n      0xee0d96c5\n      eq\n      tag_14\n      jumpi\n      jump(tag_2)\n    tag_15:\n      dup1\n      0x0705a3e8\n      eq\n      tag_3\n      jumpi\n      dup1\n      0x13290a89\n      eq\n      tag_4\n      jumpi\n      dup1\n      0x179b8f97\n      eq\n      tag_5\n      jumpi\n      dup1\n      0x27262618\n      eq\n      tag_6\n      jumpi\n      dup1\n      0x399a23da\n      eq\n      tag_7\n      jumpi\n      dup1\n      0x658a847a\n      eq\n      tag_8\n      jumpi\n    tag_2:\n      revert(0x00, 0x00)\n        /* \"hopium/etf/main/etf-oracle.sol\":10564:10861  function getEtfUsdPrice(uint256 etfId) external view returns (uint256) {... */\n    tag_3:\n      tag_16\n      0x04\n      dup1\n      calldatasize\n      sub\n      dup2\n      add\n      swap1\n      tag_17\n      swap2\n      swap1\n      tag_18\n      jump\t// in\n    tag_17:\n      tag_19\n      jump\t// in\n    tag_16:\n      mload(0x40)\n      tag_20\n      swap2\n      swap1\n      tag_21\n      jump\t// in\n    tag_20:\n      mload(0x40)\n      dup1\n      swap2\n      sub\n      swap1\n      return\n        /* \"hopium/etf/main/etf-oracle.sol\":11191:11442  function snapshotVault(uint256 etfId) external view returns (Snapshot[] memory s, uint256 etfTvlWeth) {... */\n    tag_4:\n      tag_22\n      0x04\n      dup1\n      calldatasize\n      sub\n      dup2\n      add\n      swap1\n      tag_23\n      swap2\n      swap1\n      tag_18\n      jump\t// in\n    tag_23:\n      tag_24\n      jump\t// in\n    tag_22:\n      mload(0x40)\n      tag_25\n      swap3\n      swap2\n      swap1\n      tag_26\n      jump\t// in\n    tag_25:\n      mload(0x40)\n      dup1\n      swap2\n      sub\n      swap1\n      return\n        /* \"hopium/etf/main/etf-oracle.sol\":11942:12160  function getEtfStats(uint256 etfId) external view returns (Stats memory s) {... */\n    tag_5:\n      tag_27\n      0x04\n      dup1\n      calldatasize\n      sub\n      dup2\n      add\n      swap1\n      tag_28\n      swap2\n      swap1\n      tag_18\n      jump\t// in\n    tag_28:\n      tag_29\n      jump\t// in\n    tag_27:\n      mload(0x40)\n      tag_30\n      swap2\n      swap1\n      tag_31\n      jump\t// in\n    tag_30:\n      mload(0x40)\n      dup1\n      swap2\n      sub\n      swap1\n      return\n        /* \"hopium/common/interface/imDirectory.sol\":1272:1408  function fetchFromDirectory(string memory _key) public view returns (address) {... */\n    tag_6:\n      tag_32\n      0x04\n      dup1\n      calldatasize\n      sub\n      dup2\n      add\n      swap1\n      tag_33\n      swap2\n      swap1\n      tag_34\n      jump\t// in\n    tag_33:\n      tag_35\n      jump\t// in\n    tag_32:\n      mload(0x40)\n      tag_36\n      swap2\n      swap1\n      tag_37\n      jump\t// in\n    tag_36:\n      mload(0x40)\n      dup1\n      swap2\n      sub\n      swap1\n      return\n        /* \"hopium/etf/main/etf-oracle.sol\":12166:12552  function getEtfDetails(uint256 etfId) external view returns (Etf memory etf, Stats memory st, SnapshotWithUsd[] memory sn, uint256 etfTvlWeth, uint256 etfTvlUsd) {... */\n    tag_7:\n      tag_38\n      0x04\n      dup1\n      calldatasize\n      sub\n      dup2\n      add\n      swap1\n      tag_39\n      swap2\n      swap1\n      tag_18\n      jump\t// in\n    tag_39:\n      tag_40\n      jump\t// in\n    tag_38:\n      mload(0x40)\n      tag_41\n      swap6\n      swap5\n      swap4\n      swap3\n      swap2\n      swap1\n      tag_42\n      jump\t// in\n    tag_41:\n      mload(0x40)\n      dup1\n      swap2\n      sub\n      swap1\n      return\n        /* \"hopium/common/interface/imDirectory.sol\":336:363  IDirectory public Directory */\n    tag_8:\n      tag_43\n      tag_44\n      jump\t// in\n    tag_43:\n      mload(0x40)\n      tag_45\n      swap2\n      swap1\n      tag_46\n      jump\t// in\n    tag_45:\n      mload(0x40)\n      dup1\n      swap2\n      sub\n      swap1\n      return\n        /* \"hopium/etf/main/etf-oracle.sol\":10867:11185  function getEtfPrice(uint256 etfId) external view returns (uint256 wethPrice18, uint256 usdPrice18) {... */\n    tag_9:\n      tag_47\n      0x04\n      dup1\n      calldatasize\n      sub\n      dup2\n      add\n      swap1\n      tag_48\n      swap2\n      swap1\n      tag_18\n      jump\t// in\n    tag_48:\n      tag_49\n      jump\t// in\n    tag_47:\n      mload(0x40)\n      tag_50\n      swap3\n      swap2\n      swap1\n      tag_51\n      jump\t// in\n    tag_50:\n      mload(0x40)\n      dup1\n      swap2\n      sub\n      swap1\n      return\n        /* \"hopium/etf/main/etf-oracle.sol\":10199:10429  function getEtfWethPrice(uint256 etfId) external view returns (uint256) {... */\n    tag_10:\n      tag_52\n      0x04\n      dup1\n      calldatasize\n      sub\n      dup2\n      add\n      swap1\n      tag_53\n      swap2\n      swap1\n      tag_18\n      jump\t// in\n    tag_53:\n      tag_54\n      jump\t// in\n    tag_52:\n      mload(0x40)\n      tag_55\n      swap2\n      swap1\n      tag_21\n      jump\t// in\n    tag_55:\n      mload(0x40)\n      dup1\n      swap2\n      sub\n      swap1\n      return\n        /* \"hopium/common/interface/imDirectory.sol\":1178:1266  function owner() public view returns (address) {... */\n    tag_11:\n      tag_56\n      tag_57\n      jump\t// in\n    tag_56:\n      mload(0x40)\n      tag_58\n      swap2\n      swap1\n      tag_37\n      jump\t// in\n    tag_58:\n      mload(0x40)\n      dup1\n      swap2\n      sub\n      swap1\n      return\n        /* \"hopium/common/interface/imDirectory.sol\":470:583  function changeDirectoryAddress(address _directory) external onlyOwner {... */\n    tag_12:\n      tag_59\n      0x04\n      dup1\n      calldatasize\n      sub\n      dup2\n      add\n      swap1\n      tag_60\n      swap2\n      swap1\n      tag_61\n      jump\t// in\n    tag_60:\n      tag_62\n      jump\t// in\n    tag_59:\n      stop\n        /* \"hopium/etf/main/etf-oracle.sol\":11645:11936  function snapshotVaultWithUsd(uint256 etfId) external view returns (SnapshotWithUsd[] memory s, uint256 etfTvlWeth, uint256 etfTvlUsd) {... */\n    tag_13:\n      tag_63\n      0x04\n      dup1\n      calldatasize\n      sub\n      dup2\n      add\n      swap1\n      tag_64\n      swap2\n      swap1\n      tag_18\n      jump\t// in\n    tag_64:\n      tag_65\n      jump\t// in\n    tag_63:\n      mload(0x40)\n      tag_66\n      swap4\n      swap3\n      swap2\n      swap1\n      tag_67\n      jump\t// in\n    tag_66:\n      mload(0x40)\n      dup1\n      swap2\n      sub\n      swap1\n      return\n        /* \"hopium/etf/main/etf-oracle.sol\":11448:11639  function snapshotVaultUnchecked(Etf memory etf, address vaultAddress) external view returns (Snapshot[] memory s, uint256 etfTvlWeth) {... */\n    tag_14:\n      tag_68\n      0x04\n      dup1\n      calldatasize\n      sub\n      dup2\n      add\n      swap1\n      tag_69\n      swap2\n      swap1\n      tag_70\n      jump\t// in\n    tag_69:\n      tag_71\n      jump\t// in\n    tag_68:\n      mload(0x40)\n      tag_72\n      swap3\n      swap2\n      swap1\n      tag_26\n      jump\t// in\n    tag_72:\n      mload(0x40)\n      dup1\n      swap2\n      sub\n      swap1\n      return\n        /* \"hopium/etf/main/etf-oracle.sol\":10564:10861  function getEtfUsdPrice(uint256 etfId) external view returns (uint256) {... */\n    tag_19:\n        /* \"hopium/etf/main/etf-oracle.sol\":10626:10633  uint256 */\n      0x00\n        /* \"hopium/etf/main/etf-oracle.sol\":10646:10660  Etf memory etf */\n      0x00\n        /* \"hopium/etf/main/etf-oracle.sol\":10662:10682  address vaultAddress */\n      0x00\n        /* \"hopium/etf/main/etf-oracle.sol\":10686:10701  getEtfFactory() */\n      tag_74\n        /* \"hopium/etf/main/etf-oracle.sol\":10686:10699  getEtfFactory */\n      tag_75\n        /* \"hopium/etf/main/etf-oracle.sol\":10686:10701  getEtfFactory() */\n      jump\t// in\n    tag_74:\n        /* \"hopium/etf/main/etf-oracle.sol\":10686:10720  getEtfFactory().getEtfByIdAndVault */\n      0xffffffffffffffffffffffffffffffffffffffff\n      and\n      0x3088f069\n        /* \"hopium/etf/main/etf-oracle.sol\":10721:10726  etfId */\n      dup6\n        /* \"hopium/etf/main/etf-oracle.sol\":10686:10727  getEtfFactory().getEtfByIdAndVault(etfId) */\n      mload(0x40)\n      dup3\n      0xffffffff\n      and\n      0xe0\n      shl\n      dup2\n      mstore\n      0x04\n      add\n      tag_76\n      swap2\n      swap1\n      tag_21\n      jump\t// in\n    tag_76:\n      0x00\n      mload(0x40)\n      dup1\n      dup4\n      sub\n      dup2\n      dup7\n      gas\n      staticcall\n      iszero\n      dup1\n      iszero\n      tag_78\n      jumpi\n      returndatacopy(0x00, 0x00, returndatasize)\n      revert(0x00, returndatasize)\n    tag_78:\n      pop\n      pop\n      pop\n      pop\n      mload(0x40)\n      returndatasize\n      0x00\n      dup3\n      returndatacopy\n      returndatasize\n      not(0x1f)\n      0x1f\n      dup3\n      add\n      and\n      dup3\n      add\n      dup1\n      0x40\n      mstore\n      pop\n      dup2\n      add\n      swap1\n      tag_79\n      swap2\n      swap1\n      tag_80\n      jump\t// in\n    tag_79:\n        /* \"hopium/etf/main/etf-oracle.sol\":10645:10727  (Etf memory etf, address vaultAddress) = getEtfFactory().getEtfByIdAndVault(etfId) */\n      swap2\n      pop\n      swap2\n      pop\n        /* \"hopium/etf/main/etf-oracle.sol\":10737:10759  uint256 etfWethPrice18 */\n      0x00\n        /* \"hopium/etf/main/etf-oracle.sol\":10762:10804  _getEtfWethPrice(etfId, etf, vaultAddress) */\n      tag_81\n        /* \"hopium/etf/main/etf-oracle.sol\":10779:10784  etfId */\n      dup6\n        /* \"hopium/etf/main/etf-oracle.sol\":10786:10789  etf */\n      dup5\n        /* \"hopium/etf/main/etf-oracle.sol\":10791:10803  vaultAddress */\n      dup5\n        /* \"hopium/etf/main/etf-oracle.sol\":10762:10778  _getEtfWethPrice */\n      tag_82\n        /* \"hopium/etf/main/etf-oracle.sol\":10762:10804  _getEtfWethPrice(etfId, etf, vaultAddress) */\n      jump\t// in\n    tag_81:\n        /* \"hopium/etf/main/etf-oracle.sol\":10737:10804  uint256 etfWethPrice18 = _getEtfWethPrice(etfId, etf, vaultAddress) */\n      swap1\n      pop\n        /* \"hopium/etf/main/etf-oracle.sol\":10821:10854  _convertWethToUsd(etfWethPrice18) */\n      tag_83\n        /* \"hopium/etf/main/etf-oracle.sol\":10839:10853  etfWethPrice18 */\n      dup2\n        /* \"hopium/etf/main/etf-oracle.sol\":10821:10838  _convertWethToUsd */\n      tag_84\n        /* \"hopium/etf/main/etf-oracle.sol\":10821:10854  _convertWethToUsd(etfWethPrice18) */\n      jump\t// in\n    tag_83:\n        /* \"hopium/etf/main/etf-oracle.sol\":10814:10854  return _convertWethToUsd(etfWethPrice18) */\n      swap4\n      pop\n      pop\n      pop\n      pop\n        /* \"hopium/etf/main/etf-oracle.sol\":10564:10861  function getEtfUsdPrice(uint256 etfId) external view returns (uint256) {... */\n      swap2\n      swap1\n      pop\n      jump\t// out\n        /* \"hopium/etf/main/etf-oracle.sol\":11191:11442  function snapshotVault(uint256 etfId) external view returns (Snapshot[] memory s, uint256 etfTvlWeth) {... */\n    tag_24:\n        /* \"hopium/etf/main/etf-oracle.sol\":11252:11271  Snapshot[] memory s */\n      0x60\n        /* \"hopium/etf/main/etf-oracle.sol\":11273:11291  uint256 etfTvlWeth */\n      0x00\n        /* \"hopium/etf/main/etf-oracle.sol\":11304:11318  Etf memory etf */\n      0x00\n        /* \"hopium/etf/main/etf-oracle.sol\":11320:11340  address vaultAddress */\n      0x00\n        /* \"hopium/etf/main/etf-oracle.sol\":11344:11359  getEtfFactory() */\n      tag_86\n        /* \"hopium/etf/main/etf-oracle.sol\":11344:11357  getEtfFactory */\n      tag_75\n        /* \"hopium/etf/main/etf-oracle.sol\":11344:11359  getEtfFactory() */\n      jump\t// in\n    tag_86:\n        /* \"hopium/etf/main/etf-oracle.sol\":11344:11378  getEtfFactory().getEtfByIdAndVault */\n      0xffffffffffffffffffffffffffffffffffffffff\n      and\n      0x3088f069\n        /* \"hopium/etf/main/etf-oracle.sol\":11379:11384  etfId */\n      dup7\n        /* \"hopium/etf/main/etf-oracle.sol\":11344:11385  getEtfFactory().getEtfByIdAndVault(etfId) */\n      mload(0x40)\n      dup3\n      0xffffffff\n      and\n      0xe0\n      shl\n      dup2\n      mstore\n      0x04\n      add\n      tag_87\n      swap2\n      swap1\n      tag_21\n      jump\t// in\n    tag_87:\n      0x00\n      mload(0x40)\n      dup1\n      dup4\n      sub\n      dup2\n      dup7\n      gas\n      staticcall\n      iszero\n      dup1\n      iszero\n      tag_89\n      jumpi\n      returndatacopy(0x00, 0x00, returndatasize)\n      revert(0x00, returndatasize)\n    tag_89:\n      pop\n      pop\n      pop\n      pop\n      mload(0x40)\n      returndatasize\n      0x00\n      dup3\n      returndatacopy\n      returndatasize\n      not(0x1f)\n      0x1f\n      dup3\n      add\n      and\n      dup3\n      add\n      dup1\n      0x40\n      mstore\n      pop\n      dup2\n      add\n      swap1\n      tag_90\n      swap2\n      swap1\n      tag_80\n      jump\t// in\n    tag_90:\n        /* \"hopium/etf/main/etf-oracle.sol\":11303:11385  (Etf memory etf, address vaultAddress) = getEtfFactory().getEtfByIdAndVault(etfId) */\n      swap2\n      pop\n      swap2\n      pop\n        /* \"hopium/etf/main/etf-oracle.sol\":11402:11435  _snapshotVault(etf, vaultAddress) */\n      tag_91\n        /* \"hopium/etf/main/etf-oracle.sol\":11417:11420  etf */\n      dup3\n        /* \"hopium/etf/main/etf-oracle.sol\":11422:11434  vaultAddress */\n      dup3\n        /* \"hopium/etf/main/etf-oracle.sol\":11402:11416  _snapshotVault */\n      tag_92\n        /* \"hopium/etf/main/etf-oracle.sol\":11402:11435  _snapshotVault(etf, vaultAddress) */\n      jump\t// in\n    tag_91:\n        /* \"hopium/etf/main/etf-oracle.sol\":11395:11435  return _snapshotVault(etf, vaultAddress) */\n      swap4\n      pop\n      swap4\n      pop\n      pop\n      pop\n        /* \"hopium/etf/main/etf-oracle.sol\":11191:11442  function snapshotVault(uint256 etfId) external view returns (Snapshot[] memory s, uint256 etfTvlWeth) {... */\n      swap2\n      pop\n      swap2\n      jump\t// out\n        /* \"hopium/etf/main/etf-oracle.sol\":11942:12160  function getEtfStats(uint256 etfId) external view returns (Stats memory s) {... */\n    tag_29:\n        /* \"hopium/etf/main/etf-oracle.sol\":12001:12015  Stats memory s */\n      tag_93\n      tag_94\n      jump\t// in\n    tag_93:\n        /* \"hopium/etf/main/etf-oracle.sol\":12028:12042  Etf memory etf */\n      0x00\n        /* \"hopium/etf/main/etf-oracle.sol\":12044:12060  address etfVault */\n      0x00\n        /* \"hopium/etf/main/etf-oracle.sol\":12064:12079  getEtfFactory() */\n      tag_96\n        /* \"hopium/etf/main/etf-oracle.sol\":12064:12077  getEtfFactory */\n      tag_75\n        /* \"hopium/etf/main/etf-oracle.sol\":12064:12079  getEtfFactory() */\n      jump\t// in\n    tag_96:\n        /* \"hopium/etf/main/etf-oracle.sol\":12064:12098  getEtfFactory().getEtfByIdAndVault */\n      0xffffffffffffffffffffffffffffffffffffffff\n      and\n      0x3088f069\n        /* \"hopium/etf/main/etf-oracle.sol\":12099:12104  etfId */\n      dup6\n        /* \"hopium/etf/main/etf-oracle.sol\":12064:12105  getEtfFactory().getEtfByIdAndVault(etfId) */\n      mload(0x40)\n      dup3\n      0xffffffff\n      and\n      0xe0\n      shl\n      dup2\n      mstore\n      0x04\n      add\n      tag_97\n      swap2\n      swap1\n      tag_21\n      jump\t// in\n    tag_97:\n      0x00\n      mload(0x40)\n      dup1\n      dup4\n      sub\n      dup2\n      dup7\n      gas\n      staticcall\n      iszero\n      dup1\n      iszero\n      tag_99\n      jumpi\n      returndatacopy(0x00, 0x00, returndatasize)\n      revert(0x00, returndatasize)\n    tag_99:\n      pop\n      pop\n      pop\n      pop\n      mload(0x40)\n      returndatasize\n      0x00\n      dup3\n      returndatacopy\n      returndatasize\n      not(0x1f)\n      0x1f\n      dup3\n      add\n      and\n      dup3\n      add\n      dup1\n      0x40\n      mstore\n      pop\n      dup2\n      add\n      swap1\n      tag_100\n      swap2\n      swap1\n      tag_80\n      jump\t// in\n    tag_100:\n        /* \"hopium/etf/main/etf-oracle.sol\":12027:12105  (Etf memory etf, address etfVault) = getEtfFactory().getEtfByIdAndVault(etfId) */\n      swap2\n      pop\n      swap2\n      pop\n        /* \"hopium/etf/main/etf-oracle.sol\":12122:12153  _getStats(etfId, etf, etfVault) */\n      tag_101\n        /* \"hopium/etf/main/etf-oracle.sol\":12132:12137  etfId */\n      dup5\n        /* \"hopium/etf/main/etf-oracle.sol\":12139:12142  etf */\n      dup4\n        /* \"hopium/etf/main/etf-oracle.sol\":12144:12152  etfVault */\n      dup4\n        /* \"hopium/etf/main/etf-oracle.sol\":12122:12131  _getStats */\n      tag_102\n        /* \"hopium/etf/main/etf-oracle.sol\":12122:12153  _getStats(etfId, etf, etfVault) */\n      jump\t// in\n    tag_101:\n        /* \"hopium/etf/main/etf-oracle.sol\":12115:12153  return _getStats(etfId, etf, etfVault) */\n      swap3\n      pop\n      pop\n      pop\n        /* \"hopium/etf/main/etf-oracle.sol\":11942:12160  function getEtfStats(uint256 etfId) external view returns (Stats memory s) {... */\n      swap2\n      swap1\n      pop\n      jump\t// out\n        /* \"hopium/common/interface/imDirectory.sol\":1272:1408  function fetchFromDirectory(string memory _key) public view returns (address) {... */\n    tag_35:\n        /* \"hopium/common/interface/imDirectory.sol\":1341:1348  address */\n      0x00\n        /* \"hopium/common/interface/imDirectory.sol\":1367:1376  Directory */\n      0x00\n      0x00\n      swap1\n      sload\n      swap1\n      0x0100\n      exp\n      swap1\n      div\n      0xffffffffffffffffffffffffffffffffffffffff\n      and\n        /* \"hopium/common/interface/imDirectory.sol\":1367:1395  Directory.fetchFromDirectory */\n      0xffffffffffffffffffffffffffffffffffffffff\n      and\n      0x27262618\n        /* \"hopium/common/interface/imDirectory.sol\":1396:1400  _key */\n      dup4\n        /* \"hopium/common/interface/imDirectory.sol\":1367:1401  Directory.fetchFromDirectory(_key) */\n      mload(0x40)\n      dup3\n      0xffffffff\n      and\n      0xe0\n      shl\n      dup2\n      mstore\n      0x04\n      add\n      tag_104\n      swap2\n      swap1\n      tag_105\n      jump\t// in\n    tag_104:\n      0x20\n      mload(0x40)\n      dup1\n      dup4\n      sub\n      dup2\n      dup7\n      gas\n      staticcall\n      iszero\n      dup1\n      iszero\n      tag_107\n      jumpi\n      returndatacopy(0x00, 0x00, returndatasize)\n      revert(0x00, returndatasize)\n    tag_107:\n      pop\n      pop\n      pop\n      pop\n      mload(0x40)\n      returndatasize\n      not(0x1f)\n      0x1f\n      dup3\n      add\n      and\n      dup3\n      add\n      dup1\n      0x40\n      mstore\n      pop\n      dup2\n      add\n      swap1\n      tag_108\n      swap2\n      swap1\n      tag_109\n      jump\t// in\n    tag_108:\n        /* \"hopium/common/interface/imDirectory.sol\":1360:1401  return Directory.fetchFromDirectory(_key) */\n      swap1\n      pop\n        /* \"hopium/common/interface/imDirectory.sol\":1272:1408  function fetchFromDirectory(string memory _key) public view returns (address) {... */\n      swap2\n      swap1\n      pop\n      jump\t// out\n        /* \"hopium/etf/main/etf-oracle.sol\":12166:12552  function getEtfDetails(uint256 etfId) external view returns (Etf memory etf, Stats memory st, SnapshotWithUsd[] memory sn, uint256 etfTvlWeth, uint256 etfTvlUsd) {... */\n    tag_40:\n        /* \"hopium/etf/main/etf-oracle.sol\":12227:12241  Etf memory etf */\n      tag_110\n      tag_111\n      jump\t// in\n    tag_110:\n        /* \"hopium/etf/main/etf-oracle.sol\":12243:12258  Stats memory st */\n      tag_112\n      tag_94\n      jump\t// in\n    tag_112:\n        /* \"hopium/etf/main/etf-oracle.sol\":12260:12287  SnapshotWithUsd[] memory sn */\n      0x60\n        /* \"hopium/etf/main/etf-oracle.sol\":12289:12307  uint256 etfTvlWeth */\n      0x00\n        /* \"hopium/etf/main/etf-oracle.sol\":12309:12326  uint256 etfTvlUsd */\n      0x00\n        /* \"hopium/etf/main/etf-oracle.sol\":12338:12354  address etfVault */\n      0x00\n        /* \"hopium/etf/main/etf-oracle.sol\":12382:12397  getEtfFactory() */\n      tag_114\n        /* \"hopium/etf/main/etf-oracle.sol\":12382:12395  getEtfFactory */\n      tag_75\n        /* \"hopium/etf/main/etf-oracle.sol\":12382:12397  getEtfFactory() */\n      jump\t// in\n    tag_114:\n        /* \"hopium/etf/main/etf-oracle.sol\":12382:12416  getEtfFactory().getEtfByIdAndVault */\n      0xffffffffffffffffffffffffffffffffffffffff\n      and\n      0x3088f069\n        /* \"hopium/etf/main/etf-oracle.sol\":12417:12422  etfId */\n      dup9\n        /* \"hopium/etf/main/etf-oracle.sol\":12382:12423  getEtfFactory().getEtfByIdAndVault(etfId) */\n      mload(0x40)\n      dup3\n      0xffffffff\n      and\n      0xe0\n      shl\n      dup2\n      mstore\n      0x04\n      add\n      tag_115\n      swap2\n      swap1\n      tag_21\n      jump\t// in\n    tag_115:\n      0x00\n      mload(0x40)\n      dup1\n      dup4\n      sub\n      dup2\n      dup7\n      gas\n      staticcall\n      iszero\n      dup1\n      iszero\n      tag_117\n      jumpi\n      returndatacopy(0x00, 0x00, returndatasize)\n      revert(0x00, returndatasize)\n    tag_117:\n      pop\n      pop\n      pop\n      pop\n      mload(0x40)\n      returndatasize\n      0x00\n      dup3\n      returndatacopy\n      returndatasize\n      not(0x1f)\n      0x1f\n      dup3\n      add\n      and\n      dup3\n      add\n      dup1\n      0x40\n      mstore\n      pop\n      dup2\n      add\n      swap1\n      tag_118\n      swap2\n      swap1\n      tag_80\n      jump\t// in\n    tag_118:\n        /* \"hopium/etf/main/etf-oracle.sol\":12364:12423  (etf, etfVault) = getEtfFactory().getEtfByIdAndVault(etfId) */\n      dup1\n      swap3\n      pop\n      dup2\n      swap8\n      pop\n      pop\n      pop\n        /* \"hopium/etf/main/etf-oracle.sol\":12438:12469  _getStats(etfId, etf, etfVault) */\n      tag_119\n        /* \"hopium/etf/main/etf-oracle.sol\":12448:12453  etfId */\n      dup8\n        /* \"hopium/etf/main/etf-oracle.sol\":12455:12458  etf */\n      dup8\n        /* \"hopium/etf/main/etf-oracle.sol\":12460:12468  etfVault */\n      dup4\n        /* \"hopium/etf/main/etf-oracle.sol\":12438:12447  _getStats */\n      tag_102\n        /* \"hopium/etf/main/etf-oracle.sol\":12438:12469  _getStats(etfId, etf, etfVault) */\n      jump\t// in\n    tag_119:\n        /* \"hopium/etf/main/etf-oracle.sol\":12433:12469  st = _getStats(etfId, etf, etfVault) */\n      swap5\n      pop\n        /* \"hopium/etf/main/etf-oracle.sol\":12509:12545  _snapshotVaultWithUsd(etf, etfVault) */\n      tag_120\n        /* \"hopium/etf/main/etf-oracle.sol\":12531:12534  etf */\n      dup7\n        /* \"hopium/etf/main/etf-oracle.sol\":12536:12544  etfVault */\n      dup3\n        /* \"hopium/etf/main/etf-oracle.sol\":12509:12530  _snapshotVaultWithUsd */\n      tag_121\n        /* \"hopium/etf/main/etf-oracle.sol\":12509:12545  _snapshotVaultWithUsd(etf, etfVault) */\n      jump\t// in\n    tag_120:\n        /* \"hopium/etf/main/etf-oracle.sol\":12479:12545  (sn, etfTvlWeth, etfTvlUsd) = _snapshotVaultWithUsd(etf, etfVault) */\n      dup1\n      swap5\n      pop\n      dup2\n      swap6\n      pop\n      dup3\n      swap7\n      pop\n      pop\n      pop\n      pop\n        /* \"hopium/etf/main/etf-oracle.sol\":12328:12552  {... */\n      pop\n        /* \"hopium/etf/main/etf-oracle.sol\":12166:12552  function getEtfDetails(uint256 etfId) external view returns (Etf memory etf, Stats memory st, SnapshotWithUsd[] memory sn, uint256 etfTvlWeth, uint256 etfTvlUsd) {... */\n      swap2\n      swap4\n      swap6\n      swap1\n      swap3\n      swap5\n      pop\n      jump\t// out\n        /* \"hopium/common/interface/imDirectory.sol\":336:363  IDirectory public Directory */\n    tag_44:\n      0x00\n      0x00\n      swap1\n      sload\n      swap1\n      0x0100\n      exp\n      swap1\n      div\n      0xffffffffffffffffffffffffffffffffffffffff\n      and\n      dup2\n      jump\t// out\n        /* \"hopium/etf/main/etf-oracle.sol\":10867:11185  function getEtfPrice(uint256 etfId) external view returns (uint256 wethPrice18, uint256 usdPrice18) {... */\n    tag_49:\n        /* \"hopium/etf/main/etf-oracle.sol\":10926:10945  uint256 wethPrice18 */\n      0x00\n        /* \"hopium/etf/main/etf-oracle.sol\":10947:10965  uint256 usdPrice18 */\n      0x00\n        /* \"hopium/etf/main/etf-oracle.sol\":10978:10992  Etf memory etf */\n      0x00\n        /* \"hopium/etf/main/etf-oracle.sol\":10994:11014  address vaultAddress */\n      0x00\n        /* \"hopium/etf/main/etf-oracle.sol\":11018:11033  getEtfFactory() */\n      tag_123\n        /* \"hopium/etf/main/etf-oracle.sol\":11018:11031  getEtfFactory */\n      tag_75\n        /* \"hopium/etf/main/etf-oracle.sol\":11018:11033  getEtfFactory() */\n      jump\t// in\n    tag_123:\n        /* \"hopium/etf/main/etf-oracle.sol\":11018:11052  getEtfFactory().getEtfByIdAndVault */\n      0xffffffffffffffffffffffffffffffffffffffff\n      and\n      0x3088f069\n        /* \"hopium/etf/main/etf-oracle.sol\":11053:11058  etfId */\n      dup7\n        /* \"hopium/etf/main/etf-oracle.sol\":11018:11059  getEtfFactory().getEtfByIdAndVault(etfId) */\n      mload(0x40)\n      dup3\n      0xffffffff\n      and\n      0xe0\n      shl\n      dup2\n      mstore\n      0x04\n      add\n      tag_124\n      swap2\n      swap1\n      tag_21\n      jump\t// in\n    tag_124:\n      0x00\n      mload(0x40)\n      dup1\n      dup4\n      sub\n      dup2\n      dup7\n      gas\n      staticcall\n      iszero\n      dup1\n      iszero\n      tag_126\n      jumpi\n      returndatacopy(0x00, 0x00, returndatasize)\n      revert(0x00, returndatasize)\n    tag_126:\n      pop\n      pop\n      pop\n      pop\n      mload(0x40)\n      returndatasize\n      0x00\n      dup3\n      returndatacopy\n      returndatasize\n      not(0x1f)\n      0x1f\n      dup3\n      add\n      and\n      dup3\n      add\n      dup1\n      0x40\n      mstore\n      pop\n      dup2\n      add\n      swap1\n      tag_127\n      swap2\n      swap1\n      tag_80\n      jump\t// in\n    tag_127:\n        /* \"hopium/etf/main/etf-oracle.sol\":10977:11059  (Etf memory etf, address vaultAddress) = getEtfFactory().getEtfByIdAndVault(etfId) */\n      swap2\n      pop\n      swap2\n      pop\n        /* \"hopium/etf/main/etf-oracle.sol\":11083:11125  _getEtfWethPrice(etfId, etf, vaultAddress) */\n      tag_128\n        /* \"hopium/etf/main/etf-oracle.sol\":11100:11105  etfId */\n      dup6\n        /* \"hopium/etf/main/etf-oracle.sol\":11107:11110  etf */\n      dup4\n        /* \"hopium/etf/main/etf-oracle.sol\":11112:11124  vaultAddress */\n      dup4\n        /* \"hopium/etf/main/etf-oracle.sol\":11083:11099  _getEtfWethPrice */\n      tag_82\n        /* \"hopium/etf/main/etf-oracle.sol\":11083:11125  _getEtfWethPrice(etfId, etf, vaultAddress) */\n      jump\t// in\n    tag_128:\n        /* \"hopium/etf/main/etf-oracle.sol\":11069:11125  wethPrice18 = _getEtfWethPrice(etfId, etf, vaultAddress) */\n      swap4\n      pop\n        /* \"hopium/etf/main/etf-oracle.sol\":11148:11178  _convertWethToUsd(wethPrice18) */\n      tag_129\n        /* \"hopium/etf/main/etf-oracle.sol\":11166:11177  wethPrice18 */\n      dup5\n        /* \"hopium/etf/main/etf-oracle.sol\":11148:11165  _convertWethToUsd */\n      tag_84\n        /* \"hopium/etf/main/etf-oracle.sol\":11148:11178  _convertWethToUsd(wethPrice18) */\n      jump\t// in\n    tag_129:\n        /* \"hopium/etf/main/etf-oracle.sol\":11135:11178  usdPrice18 = _convertWethToUsd(wethPrice18) */\n      swap3\n      pop\n        /* \"hopium/etf/main/etf-oracle.sol\":10967:11185  {... */\n      pop\n      pop\n        /* \"hopium/etf/main/etf-oracle.sol\":10867:11185  function getEtfPrice(uint256 etfId) external view returns (uint256 wethPrice18, uint256 usdPrice18) {... */\n      swap2\n      pop\n      swap2\n      jump\t// out\n        /* \"hopium/etf/main/etf-oracle.sol\":10199:10429  function getEtfWethPrice(uint256 etfId) external view returns (uint256) {... */\n    tag_54:\n        /* \"hopium/etf/main/etf-oracle.sol\":10262:10269  uint256 */\n      0x00\n        /* \"hopium/etf/main/etf-oracle.sol\":10282:10296  Etf memory etf */\n      0x00\n        /* \"hopium/etf/main/etf-oracle.sol\":10298:10318  address vaultAddress */\n      0x00\n        /* \"hopium/etf/main/etf-oracle.sol\":10322:10337  getEtfFactory() */\n      tag_131\n        /* \"hopium/etf/main/etf-oracle.sol\":10322:10335  getEtfFactory */\n      tag_75\n        /* \"hopium/etf/main/etf-oracle.sol\":10322:10337  getEtfFactory() */\n      jump\t// in\n    tag_131:\n        /* \"hopium/etf/main/etf-oracle.sol\":10322:10356  getEtfFactory().getEtfByIdAndVault */\n      0xffffffffffffffffffffffffffffffffffffffff\n      and\n      0x3088f069\n        /* \"hopium/etf/main/etf-oracle.sol\":10357:10362  etfId */\n      dup6\n        /* \"hopium/etf/main/etf-oracle.sol\":10322:10363  getEtfFactory().getEtfByIdAndVault(etfId) */\n      mload(0x40)\n      dup3\n      0xffffffff\n      and\n      0xe0\n      shl\n      dup2\n      mstore\n      0x04\n      add\n      tag_132\n      swap2\n      swap1\n      tag_21\n      jump\t// in\n    tag_132:\n      0x00\n      mload(0x40)\n      dup1\n      dup4\n      sub\n      dup2\n      dup7\n      gas\n      staticcall\n      iszero\n      dup1\n      iszero\n      tag_134\n      jumpi\n      returndatacopy(0x00, 0x00, returndatasize)\n      revert(0x00, returndatasize)\n    tag_134:\n      pop\n      pop\n      pop\n      pop\n      mload(0x40)\n      returndatasize\n      0x00\n      dup3\n      returndatacopy\n      returndatasize\n      not(0x1f)\n      0x1f\n      dup3\n      add\n      and\n      dup3\n      add\n      dup1\n      0x40\n      mstore\n      pop\n      dup2\n      add\n      swap1\n      tag_135\n      swap2\n      swap1\n      tag_80\n      jump\t// in\n    tag_135:\n        /* \"hopium/etf/main/etf-oracle.sol\":10281:10363  (Etf memory etf, address vaultAddress) = getEtfFactory().getEtfByIdAndVault(etfId) */\n      swap2\n      pop\n      swap2\n      pop\n        /* \"hopium/etf/main/etf-oracle.sol\":10380:10422  _getEtfWethPrice(etfId, etf, vaultAddress) */\n      tag_136\n        /* \"hopium/etf/main/etf-oracle.sol\":10397:10402  etfId */\n      dup5\n        /* \"hopium/etf/main/etf-oracle.sol\":10404:10407  etf */\n      dup4\n        /* \"hopium/etf/main/etf-oracle.sol\":10409:10421  vaultAddress */\n      dup4\n        /* \"hopium/etf/main/etf-oracle.sol\":10380:10396  _getEtfWethPrice */\n      tag_82\n        /* \"hopium/etf/main/etf-oracle.sol\":10380:10422  _getEtfWethPrice(etfId, etf, vaultAddress) */\n      jump\t// in\n    tag_136:\n        /* \"hopium/etf/main/etf-oracle.sol\":10373:10422  return _getEtfWethPrice(etfId, etf, vaultAddress) */\n      swap3\n      pop\n      pop\n      pop\n        /* \"hopium/etf/main/etf-oracle.sol\":10199:10429  function getEtfWethPrice(uint256 etfId) external view returns (uint256) {... */\n      swap2\n      swap1\n      pop\n      jump\t// out\n        /* \"hopium/common/interface/imDirectory.sol\":1178:1266  function owner() public view returns (address) {... */\n    tag_57:\n        /* \"hopium/common/interface/imDirectory.sol\":1216:1223  address */\n      0x00\n        /* \"hopium/common/interface/imDirectory.sol\":1242:1251  Directory */\n      0x00\n      0x00\n      swap1\n      sload\n      swap1\n      0x0100\n      exp\n      swap1\n      div\n      0xffffffffffffffffffffffffffffffffffffffff\n      and\n        /* \"hopium/common/interface/imDirectory.sol\":1242:1257  Directory.owner */\n      0xffffffffffffffffffffffffffffffffffffffff\n      and\n      0x8da5cb5b\n        /* \"hopium/common/interface/imDirectory.sol\":1242:1259  Directory.owner() */\n      mload(0x40)\n      dup2\n      0xffffffff\n      and\n      0xe0\n      shl\n      dup2\n      mstore\n      0x04\n      add\n      0x20\n      mload(0x40)\n      dup1\n      dup4\n      sub\n      dup2\n      dup7\n      gas\n      staticcall\n      iszero\n      dup1\n      iszero\n      tag_139\n      jumpi\n      returndatacopy(0x00, 0x00, returndatasize)\n      revert(0x00, returndatasize)\n    tag_139:\n      pop\n      pop\n      pop\n      pop\n      mload(0x40)\n      returndatasize\n      not(0x1f)\n      0x1f\n      dup3\n      add\n      and\n      dup3\n      add\n      dup1\n      0x40\n      mstore\n      pop\n      dup2\n      add\n      swap1\n      tag_140\n      swap2\n      swap1\n      tag_109\n      jump\t// in\n    tag_140:\n        /* \"hopium/common/interface/imDirectory.sol\":1235:1259  return Directory.owner() */\n      swap1\n      pop\n        /* \"hopium/common/interface/imDirectory.sol\":1178:1266  function owner() public view returns (address) {... */\n      swap1\n      jump\t// out\n        /* \"hopium/common/interface/imDirectory.sol\":470:583  function changeDirectoryAddress(address _directory) external onlyOwner {... */\n    tag_62:\n        /* \"hopium/common/interface/imDirectory.sol\":1109:1118  Directory */\n      0x00\n      0x00\n      swap1\n      sload\n      swap1\n      0x0100\n      exp\n      swap1\n      div\n      0xffffffffffffffffffffffffffffffffffffffff\n      and\n        /* \"hopium/common/interface/imDirectory.sol\":1109:1124  Directory.owner */\n      0xffffffffffffffffffffffffffffffffffffffff\n      and\n      0x8da5cb5b\n        /* \"hopium/common/interface/imDirectory.sol\":1109:1126  Directory.owner() */\n      mload(0x40)\n      dup2\n      0xffffffff\n      and\n      0xe0\n      shl\n      dup2\n      mstore\n      0x04\n      add\n      0x20\n      mload(0x40)\n      dup1\n      dup4\n      sub\n      dup2\n      dup7\n      gas\n      staticcall\n      iszero\n      dup1\n      iszero\n      tag_143\n      jumpi\n      returndatacopy(0x00, 0x00, returndatasize)\n      revert(0x00, returndatasize)\n    tag_143:\n      pop\n      pop\n      pop\n      pop\n      mload(0x40)\n      returndatasize\n      not(0x1f)\n      0x1f\n      dup3\n      add\n      and\n      dup3\n      add\n      dup1\n      0x40\n      mstore\n      pop\n      dup2\n      add\n      swap1\n      tag_144\n      swap2\n      swap1\n      tag_109\n      jump\t// in\n    tag_144:\n        /* \"hopium/common/interface/imDirectory.sol\":1095:1126  msg.sender == Directory.owner() */\n      0xffffffffffffffffffffffffffffffffffffffff\n      and\n        /* \"hopium/common/interface/imDirectory.sol\":1095:1105  msg.sender */\n      caller\n        /* \"hopium/common/interface/imDirectory.sol\":1095:1126  msg.sender == Directory.owner() */\n      0xffffffffffffffffffffffffffffffffffffffff\n      and\n      eq\n        /* \"hopium/common/interface/imDirectory.sol\":1087:1154  require(msg.sender == Directory.owner(), \"Caller is not the owner\") */\n      tag_145\n      jumpi\n      mload(0x40)\n      0x08c379a000000000000000000000000000000000000000000000000000000000\n      dup2\n      mstore\n      0x04\n      add\n      tag_146\n      swap1\n      tag_147\n      jump\t// in\n    tag_146:\n      mload(0x40)\n      dup1\n      swap2\n      sub\n      swap1\n      revert\n    tag_145:\n        /* \"hopium/common/interface/imDirectory.sol\":551:576  _setDirectory(_directory) */\n      tag_149\n        /* \"hopium/common/interface/imDirectory.sol\":565:575  _directory */\n      dup2\n        /* \"hopium/common/interface/imDirectory.sol\":551:564  _setDirectory */\n      tag_150\n        /* \"hopium/common/interface/imDirectory.sol\":551:576  _setDirectory(_directory) */\n      jump\t// in\n    tag_149:\n        /* \"hopium/common/interface/imDirectory.sol\":470:583  function changeDirectoryAddress(address _directory) external onlyOwner {... */\n      pop\n      jump\t// out\n        /* \"hopium/etf/main/etf-oracle.sol\":11645:11936  function snapshotVaultWithUsd(uint256 etfId) external view returns (SnapshotWithUsd[] memory s, uint256 etfTvlWeth, uint256 etfTvlUsd) {... */\n    tag_65:\n        /* \"hopium/etf/main/etf-oracle.sol\":11713:11739  SnapshotWithUsd[] memory s */\n      0x60\n        /* \"hopium/etf/main/etf-oracle.sol\":11741:11759  uint256 etfTvlWeth */\n      0x00\n        /* \"hopium/etf/main/etf-oracle.sol\":11761:11778  uint256 etfTvlUsd */\n      0x00\n        /* \"hopium/etf/main/etf-oracle.sol\":11791:11805  Etf memory etf */\n      0x00\n        /* \"hopium/etf/main/etf-oracle.sol\":11807:11827  address vaultAddress */\n      0x00\n        /* \"hopium/etf/main/etf-oracle.sol\":11831:11846  getEtfFactory() */\n      tag_152\n        /* \"hopium/etf/main/etf-oracle.sol\":11831:11844  getEtfFactory */\n      tag_75\n        /* \"hopium/etf/main/etf-oracle.sol\":11831:11846  getEtfFactory() */\n      jump\t// in\n    tag_152:\n        /* \"hopium/etf/main/etf-oracle.sol\":11831:11865  getEtfFactory().getEtfByIdAndVault */\n      0xffffffffffffffffffffffffffffffffffffffff\n      and\n      0x3088f069\n        /* \"hopium/etf/main/etf-oracle.sol\":11866:11871  etfId */\n      dup8\n        /* \"hopium/etf/main/etf-oracle.sol\":11831:11872  getEtfFactory().getEtfByIdAndVault(etfId) */\n      mload(0x40)\n      dup3\n      0xffffffff\n      and\n      0xe0\n      shl\n      dup2\n      mstore\n      0x04\n      add\n      tag_153\n      swap2\n      swap1\n      tag_21\n      jump\t// in\n    tag_153:\n      0x00\n      mload(0x40)\n      dup1\n      dup4\n      sub\n      dup2\n      dup7\n      gas\n      staticcall\n      iszero\n      dup1\n      iszero\n      tag_155\n      jumpi\n      returndatacopy(0x00, 0x00, returndatasize)\n      revert(0x00, returndatasize)\n    tag_155:\n      pop\n      pop\n      pop\n      pop\n      mload(0x40)\n      returndatasize\n      0x00\n      dup3\n      returndatacopy\n      returndatasize\n      not(0x1f)\n      0x1f\n      dup3\n      add\n      and\n      dup3\n      add\n      dup1\n      0x40\n      mstore\n      pop\n      dup2\n      add\n      swap1\n      tag_156\n      swap2\n      swap1\n      tag_80\n      jump\t// in\n    tag_156:\n        /* \"hopium/etf/main/etf-oracle.sol\":11790:11872  (Etf memory etf, address vaultAddress) = getEtfFactory().getEtfByIdAndVault(etfId) */\n      swap2\n      pop\n      swap2\n      pop\n        /* \"hopium/etf/main/etf-oracle.sol\":11889:11929  _snapshotVaultWithUsd(etf, vaultAddress) */\n      tag_157\n        /* \"hopium/etf/main/etf-oracle.sol\":11911:11914  etf */\n      dup3\n        /* \"hopium/etf/main/etf-oracle.sol\":11916:11928  vaultAddress */\n      dup3\n        /* \"hopium/etf/main/etf-oracle.sol\":11889:11910  _snapshotVaultWithUsd */\n      tag_121\n        /* \"hopium/etf/main/etf-oracle.sol\":11889:11929  _snapshotVaultWithUsd(etf, vaultAddress) */\n      jump\t// in\n    tag_157:\n        /* \"hopium/etf/main/etf-oracle.sol\":11882:11929  return _snapshotVaultWithUsd(etf, vaultAddress) */\n      swap5\n      pop\n      swap5\n      pop\n      swap5\n      pop\n      pop\n      pop\n        /* \"hopium/etf/main/etf-oracle.sol\":11645:11936  function snapshotVaultWithUsd(uint256 etfId) external view returns (SnapshotWithUsd[] memory s, uint256 etfTvlWeth, uint256 etfTvlUsd) {... */\n      swap2\n      swap4\n      swap1\n      swap3\n      pop\n      jump\t// out\n        /* \"hopium/etf/main/etf-oracle.sol\":11448:11639  function snapshotVaultUnchecked(Etf memory etf, address vaultAddress) external view returns (Snapshot[] memory s, uint256 etfTvlWeth) {... */\n    tag_71:\n        /* \"hopium/etf/main/etf-oracle.sol\":11541:11560  Snapshot[] memory s */\n      0x60\n        /* \"hopium/etf/main/etf-oracle.sol\":11562:11580  uint256 etfTvlWeth */\n      0x00\n        /* \"hopium/etf/main/etf-oracle.sol\":11599:11632  _snapshotVault(etf, vaultAddress) */\n      tag_159\n        /* \"hopium/etf/main/etf-oracle.sol\":11614:11617  etf */\n      dup5\n        /* \"hopium/etf/main/etf-oracle.sol\":11619:11631  vaultAddress */\n      dup5\n        /* \"hopium/etf/main/etf-oracle.sol\":11599:11613  _snapshotVault */\n      tag_92\n        /* \"hopium/etf/main/etf-oracle.sol\":11599:11632  _snapshotVault(etf, vaultAddress) */\n      jump\t// in\n    tag_159:\n        /* \"hopium/etf/main/etf-oracle.sol\":11592:11632  return _snapshotVault(etf, vaultAddress) */\n      swap2\n      pop\n      swap2\n      pop\n        /* \"hopium/etf/main/etf-oracle.sol\":11448:11639  function snapshotVaultUnchecked(Etf memory etf, address vaultAddress) external view returns (Snapshot[] memory s, uint256 etfTvlWeth) {... */\n      swap3\n      pop\n      swap3\n      swap1\n      pop\n      jump\t// out\n        /* \"hopium/etf/interface/imEtfFactory.sol\":915:1054  function getEtfFactory() internal view virtual returns (IEtfFactory) {... */\n    tag_75:\n        /* \"hopium/etf/interface/imEtfFactory.sol\":971:982  IEtfFactory */\n      0x00\n        /* \"hopium/etf/interface/imEtfFactory.sol\":1013:1046  fetchFromDirectory(\"etf-factory\") */\n      tag_161\n      mload(0x40)\n      dup1\n      0x40\n      add\n      0x40\n      mstore\n      dup1\n      0x0b\n      dup2\n      mstore\n      0x20\n      add\n      0x6574662d666163746f7279000000000000000000000000000000000000000000\n      dup2\n      mstore\n      pop\n        /* \"hopium/etf/interface/imEtfFactory.sol\":1013:1031  fetchFromDirectory */\n      tag_35\n        /* \"hopium/etf/interface/imEtfFactory.sol\":1013:1046  fetchFromDirectory(\"etf-factory\") */\n      jump\t// in\n    tag_161:\n        /* \"hopium/etf/interface/imEtfFactory.sol\":994:1047  return IEtfFactory(fetchFromDirectory(\"etf-factory\")) */\n      swap1\n      pop\n        /* \"hopium/etf/interface/imEtfFactory.sol\":915:1054  function getEtfFactory() internal view virtual returns (IEtfFactory) {... */\n      swap1\n      jump\t// out\n        /* \"hopium/etf/main/etf-oracle.sol\":5803:6728  function _getEtfWethPrice(uint256 etfId, Etf memory etf, address etfVault) internal view returns (uint256) {... */\n    tag_82:\n        /* \"hopium/etf/main/etf-oracle.sol\":5901:5908  uint256 */\n      0x00\n        /* \"hopium/etf/main/etf-oracle.sol\":5949:5965  address etfToken */\n      0x00\n        /* \"hopium/etf/main/etf-oracle.sol\":5968:5983  getEtfFactory() */\n      tag_163\n        /* \"hopium/etf/main/etf-oracle.sol\":5968:5981  getEtfFactory */\n      tag_75\n        /* \"hopium/etf/main/etf-oracle.sol\":5968:5983  getEtfFactory() */\n      jump\t// in\n    tag_163:\n        /* \"hopium/etf/main/etf-oracle.sol\":5968:6002  getEtfFactory().getEtfTokenAddress */\n      0xffffffffffffffffffffffffffffffffffffffff\n      and\n      0xf2018a1f\n        /* \"hopium/etf/main/etf-oracle.sol\":6003:6008  etfId */\n      dup7\n        /* \"hopium/etf/main/etf-oracle.sol\":5968:6009  getEtfFactory().getEtfTokenAddress(etfId) */\n      mload(0x40)\n      dup3\n      0xffffffff\n      and\n      0xe0\n      shl\n      dup2\n      mstore\n      0x04\n      add\n      tag_164\n      swap2\n      swap1\n      tag_21\n      jump\t// in\n    tag_164:\n      0x20\n      mload(0x40)\n      dup1\n      dup4\n      sub\n      dup2\n      dup7\n      gas\n      staticcall\n      iszero\n      dup1\n      iszero\n      tag_166\n      jumpi\n      returndatacopy(0x00, 0x00, returndatasize)\n      revert(0x00, returndatasize)\n    tag_166:\n      pop\n      pop\n      pop\n      pop\n      mload(0x40)\n      returndatasize\n      not(0x1f)\n      0x1f\n      dup3\n      add\n      and\n      dup3\n      add\n      dup1\n      0x40\n      mstore\n      pop\n      dup2\n      add\n      swap1\n      tag_167\n      swap2\n      swap1\n      tag_109\n      jump\t// in\n    tag_167:\n        /* \"hopium/etf/main/etf-oracle.sol\":5949:6009  address etfToken = getEtfFactory().getEtfTokenAddress(etfId) */\n      swap1\n      pop\n        /* \"hopium/etf/main/etf-oracle.sol\":6059:6076  uint256 rawSupply */\n      0x00\n        /* \"hopium/etf/main/etf-oracle.sol\":6086:6094  etfToken */\n      dup2\n        /* \"hopium/etf/main/etf-oracle.sol\":6079:6107  IERC20(etfToken).totalSupply */\n      0xffffffffffffffffffffffffffffffffffffffff\n      and\n      0x18160ddd\n        /* \"hopium/etf/main/etf-oracle.sol\":6079:6109  IERC20(etfToken).totalSupply() */\n      mload(0x40)\n      dup2\n      0xffffffff\n      and\n      0xe0\n      shl\n      dup2\n      mstore\n      0x04\n      add\n      0x20\n      mload(0x40)\n      dup1\n      dup4\n      sub\n      dup2\n      dup7\n      gas\n      staticcall\n      iszero\n      dup1\n      iszero\n      tag_169\n      jumpi\n      returndatacopy(0x00, 0x00, returndatasize)\n      revert(0x00, returndatasize)\n    tag_169:\n      pop\n      pop\n      pop\n      pop\n      mload(0x40)\n      returndatasize\n      not(0x1f)\n      0x1f\n      dup3\n      add\n      and\n      dup3\n      add\n      dup1\n      0x40\n      mstore\n      pop\n      dup2\n      add\n      swap1\n      tag_170\n      swap2\n      swap1\n      tag_171\n      jump\t// in\n    tag_170:\n        /* \"hopium/etf/main/etf-oracle.sol\":6059:6109  uint256 rawSupply = IERC20(etfToken).totalSupply() */\n      swap1\n      pop\n        /* \"hopium/etf/main/etf-oracle.sol\":6119:6133  uint8   etfDec */\n      0x00\n        /* \"hopium/etf/main/etf-oracle.sol\":6153:6161  etfToken */\n      dup3\n        /* \"hopium/etf/main/etf-oracle.sol\":6138:6171  IERC20Metadata(etfToken).decimals */\n      0xffffffffffffffffffffffffffffffffffffffff\n      and\n      0x313ce567\n        /* \"hopium/etf/main/etf-oracle.sol\":6138:6173  IERC20Metadata(etfToken).decimals() */\n      mload(0x40)\n      dup2\n      0xffffffff\n      and\n      0xe0\n      shl\n      dup2\n      mstore\n      0x04\n      add\n      0x20\n      mload(0x40)\n      dup1\n      dup4\n      sub\n      dup2\n      dup7\n      gas\n      staticcall\n      iszero\n      dup1\n      iszero\n      tag_173\n      jumpi\n      returndatacopy(0x00, 0x00, returndatasize)\n      revert(0x00, returndatasize)\n    tag_173:\n      pop\n      pop\n      pop\n      pop\n      mload(0x40)\n      returndatasize\n      not(0x1f)\n      0x1f\n      dup3\n      add\n      and\n      dup3\n      add\n      dup1\n      0x40\n      mstore\n      pop\n      dup2\n      add\n      swap1\n      tag_174\n      swap2\n      swap1\n      tag_175\n      jump\t// in\n    tag_174:\n        /* \"hopium/etf/main/etf-oracle.sol\":6119:6173  uint8   etfDec   = IERC20Metadata(etfToken).decimals() */\n      swap1\n      pop\n        /* \"hopium/etf/main/etf-oracle.sol\":6200:6201  0 */\n      0x00\n        /* \"hopium/etf/main/etf-oracle.sol\":6187:6196  rawSupply */\n      dup3\n        /* \"hopium/etf/main/etf-oracle.sol\":6187:6201  rawSupply == 0 */\n      sub\n        /* \"hopium/etf/main/etf-oracle.sol\":6183:6308  if (rawSupply == 0) {... */\n      tag_176\n      jumpi\n        /* \"hopium/etf/main/etf-oracle.sol\":6273:6297  _getEtfInitialPrice(etf) */\n      tag_177\n        /* \"hopium/etf/main/etf-oracle.sol\":6293:6296  etf */\n      dup7\n        /* \"hopium/etf/main/etf-oracle.sol\":6273:6292  _getEtfInitialPrice */\n      tag_178\n        /* \"hopium/etf/main/etf-oracle.sol\":6273:6297  _getEtfInitialPrice(etf) */\n      jump\t// in\n    tag_177:\n        /* \"hopium/etf/main/etf-oracle.sol\":6266:6297  return _getEtfInitialPrice(etf) */\n      swap4\n      pop\n      pop\n      pop\n      pop\n      jump(tag_162)\n        /* \"hopium/etf/main/etf-oracle.sol\":6183:6308  if (rawSupply == 0) {... */\n    tag_176:\n        /* \"hopium/etf/main/etf-oracle.sol\":6317:6338  uint256 supplyWhole18 */\n      0x00\n        /* \"hopium/etf/main/etf-oracle.sol\":6341:6372  _scaleTo1e18(rawSupply, etfDec) */\n      tag_179\n        /* \"hopium/etf/main/etf-oracle.sol\":6354:6363  rawSupply */\n      dup4\n        /* \"hopium/etf/main/etf-oracle.sol\":6365:6371  etfDec */\n      dup4\n        /* \"hopium/etf/main/etf-oracle.sol\":6341:6353  _scaleTo1e18 */\n      tag_180\n        /* \"hopium/etf/main/etf-oracle.sol\":6341:6372  _scaleTo1e18(rawSupply, etfDec) */\n      jump\t// in\n    tag_179:\n        /* \"hopium/etf/main/etf-oracle.sol\":6317:6372  uint256 supplyWhole18 = _scaleTo1e18(rawSupply, etfDec) */\n      swap1\n      pop\n        /* \"hopium/etf/main/etf-oracle.sol\":6437:6438  0 */\n      0x00\n        /* \"hopium/etf/main/etf-oracle.sol\":6420:6433  supplyWhole18 */\n      dup2\n        /* \"hopium/etf/main/etf-oracle.sol\":6420:6438  supplyWhole18 == 0 */\n      sub\n        /* \"hopium/etf/main/etf-oracle.sol\":6416:6448  if (supplyWhole18 == 0) return 0 */\n      tag_181\n      jumpi\n        /* \"hopium/etf/main/etf-oracle.sol\":6447:6448  0 */\n      0x00\n        /* \"hopium/etf/main/etf-oracle.sol\":6440:6448  return 0 */\n      swap5\n      pop\n      pop\n      pop\n      pop\n      pop\n      jump(tag_162)\n        /* \"hopium/etf/main/etf-oracle.sol\":6416:6448  if (supplyWhole18 == 0) return 0 */\n    tag_181:\n        /* \"hopium/etf/main/etf-oracle.sol\":6511:6535  uint256 totalWethValue18 */\n      0x00\n        /* \"hopium/etf/main/etf-oracle.sol\":6538:6567  _getEtfTvlWeth(etf, etfVault) */\n      tag_182\n        /* \"hopium/etf/main/etf-oracle.sol\":6553:6556  etf */\n      dup9\n        /* \"hopium/etf/main/etf-oracle.sol\":6558:6566  etfVault */\n      dup9\n        /* \"hopium/etf/main/etf-oracle.sol\":6538:6552  _getEtfTvlWeth */\n      tag_183\n        /* \"hopium/etf/main/etf-oracle.sol\":6538:6567  _getEtfTvlWeth(etf, etfVault) */\n      jump\t// in\n    tag_182:\n        /* \"hopium/etf/main/etf-oracle.sol\":6511:6567  uint256 totalWethValue18 = _getEtfTvlWeth(etf, etfVault) */\n      swap1\n      pop\n        /* \"hopium/etf/main/etf-oracle.sol\":6668:6721  FullMath.mulDiv(totalWethValue18, WAD, supplyWhole18) */\n      tag_184\n        /* \"hopium/etf/main/etf-oracle.sol\":6684:6700  totalWethValue18 */\n      dup2\n        /* \"hopium/etf/main/etf-oracle.sol\":494:498  1e18 */\n      0x0de0b6b3a7640000\n        /* \"hopium/etf/main/etf-oracle.sol\":6707:6720  supplyWhole18 */\n      dup5\n        /* \"hopium/etf/main/etf-oracle.sol\":6668:6683  FullMath.mulDiv */\n      tag_185\n        /* \"hopium/etf/main/etf-oracle.sol\":6668:6721  FullMath.mulDiv(totalWethValue18, WAD, supplyWhole18) */\n      jump\t// in\n    tag_184:\n        /* \"hopium/etf/main/etf-oracle.sol\":6661:6721  return FullMath.mulDiv(totalWethValue18, WAD, supplyWhole18) */\n      swap6\n      pop\n      pop\n      pop\n      pop\n      pop\n      pop\n        /* \"hopium/etf/main/etf-oracle.sol\":5803:6728  function _getEtfWethPrice(uint256 etfId, Etf memory etf, address etfVault) internal view returns (uint256) {... */\n    tag_162:\n      swap4\n      swap3\n      pop\n      pop\n      pop\n      jump\t// out\n        /* \"hopium/etf/main/etf-oracle.sol\":1486:1867  function _convertWethToUsd(uint256 wethAmount18) internal view returns (uint256 usdAmount18) {... */\n    tag_84:\n        /* \"hopium/etf/main/etf-oracle.sol\":1558:1577  uint256 usdAmount18 */\n      0x00\n        /* \"hopium/etf/main/etf-oracle.sol\":1609:1610  0 */\n      0x00\n        /* \"hopium/etf/main/etf-oracle.sol\":1593:1605  wethAmount18 */\n      dup3\n        /* \"hopium/etf/main/etf-oracle.sol\":1593:1610  wethAmount18 == 0 */\n      sub\n        /* \"hopium/etf/main/etf-oracle.sol\":1589:1620  if (wethAmount18 == 0) return 0 */\n      tag_187\n      jumpi\n        /* \"hopium/etf/main/etf-oracle.sol\":1619:1620  0 */\n      0x00\n        /* \"hopium/etf/main/etf-oracle.sol\":1612:1620  return 0 */\n      swap1\n      pop\n      jump(tag_186)\n        /* \"hopium/etf/main/etf-oracle.sol\":1589:1620  if (wethAmount18 == 0) return 0 */\n    tag_187:\n        /* \"hopium/etf/main/etf-oracle.sol\":1630:1652  uint256 wethUsdPrice18 */\n      0x00\n        /* \"hopium/etf/main/etf-oracle.sol\":1655:1673  getUniswapOracle() */\n      tag_188\n        /* \"hopium/etf/main/etf-oracle.sol\":1655:1671  getUniswapOracle */\n      tag_189\n        /* \"hopium/etf/main/etf-oracle.sol\":1655:1673  getUniswapOracle() */\n      jump\t// in\n    tag_188:\n        /* \"hopium/etf/main/etf-oracle.sol\":1655:1689  getUniswapOracle().getWethUsdPrice */\n      0xffffffffffffffffffffffffffffffffffffffff\n      and\n      0x6855e939\n        /* \"hopium/etf/main/etf-oracle.sol\":1655:1691  getUniswapOracle().getWethUsdPrice() */\n      mload(0x40)\n      dup2\n      0xffffffff\n      and\n      0xe0\n      shl\n      dup2\n      mstore\n      0x04\n      add\n      0x20\n      mload(0x40)\n      dup1\n      dup4\n      sub\n      dup2\n      dup7\n      gas\n      staticcall\n      iszero\n      dup1\n      iszero\n      tag_191\n      jumpi\n      returndatacopy(0x00, 0x00, returndatasize)\n      revert(0x00, returndatasize)\n    tag_191:\n      pop\n      pop\n      pop\n      pop\n      mload(0x40)\n      returndatasize\n      not(0x1f)\n      0x1f\n      dup3\n      add\n      and\n      dup3\n      add\n      dup1\n      0x40\n      mstore\n      pop\n      dup2\n      add\n      swap1\n      tag_192\n      swap2\n      swap1\n      tag_171\n      jump\t// in\n    tag_192:\n        /* \"hopium/etf/main/etf-oracle.sol\":1630:1691  uint256 wethUsdPrice18 = getUniswapOracle().getWethUsdPrice() */\n      swap1\n      pop\n        /* \"hopium/etf/main/etf-oracle.sol\":1747:1748  0 */\n      0x00\n        /* \"hopium/etf/main/etf-oracle.sol\":1729:1743  wethUsdPrice18 */\n      dup2\n        /* \"hopium/etf/main/etf-oracle.sol\":1729:1748  wethUsdPrice18 == 0 */\n      sub\n        /* \"hopium/etf/main/etf-oracle.sol\":1725:1758  if (wethUsdPrice18 == 0) return 0 */\n      tag_193\n      jumpi\n        /* \"hopium/etf/main/etf-oracle.sol\":1757:1758  0 */\n      0x00\n        /* \"hopium/etf/main/etf-oracle.sol\":1750:1758  return 0 */\n      swap2\n      pop\n      pop\n      jump(tag_186)\n        /* \"hopium/etf/main/etf-oracle.sol\":1725:1758  if (wethUsdPrice18 == 0) return 0 */\n    tag_193:\n        /* \"hopium/etf/main/etf-oracle.sol\":1810:1860  FullMath.mulDiv(wethAmount18, wethUsdPrice18, WAD) */\n      tag_194\n        /* \"hopium/etf/main/etf-oracle.sol\":1826:1838  wethAmount18 */\n      dup4\n        /* \"hopium/etf/main/etf-oracle.sol\":1840:1854  wethUsdPrice18 */\n      dup3\n        /* \"hopium/etf/main/etf-oracle.sol\":494:498  1e18 */\n      0x0de0b6b3a7640000\n        /* \"hopium/etf/main/etf-oracle.sol\":1810:1825  FullMath.mulDiv */\n      tag_185\n        /* \"hopium/etf/main/etf-oracle.sol\":1810:1860  FullMath.mulDiv(wethAmount18, wethUsdPrice18, WAD) */\n      jump\t// in\n    tag_194:\n        /* \"hopium/etf/main/etf-oracle.sol\":1803:1860  return FullMath.mulDiv(wethAmount18, wethUsdPrice18, WAD) */\n      swap2\n      pop\n      pop\n        /* \"hopium/etf/main/etf-oracle.sol\":1486:1867  function _convertWethToUsd(uint256 wethAmount18) internal view returns (uint256 usdAmount18) {... */\n    tag_186:\n      swap2\n      swap1\n      pop\n      jump\t// out\n        /* \"hopium/etf/main/etf-oracle.sol\":1936:3510  function _snapshotVault(Etf memory etf, address etfVault)... */\n    tag_92:\n        /* \"hopium/etf/main/etf-oracle.sol\":2041:2060  Snapshot[] memory s */\n      0x60\n        /* \"hopium/etf/main/etf-oracle.sol\":2062:2080  uint256 etfTvlWeth */\n      0x00\n        /* \"hopium/etf/main/etf-oracle.sol\":2096:2105  uint256 n */\n      0x00\n        /* \"hopium/etf/main/etf-oracle.sol\":2108:2111  etf */\n      dup5\n        /* \"hopium/etf/main/etf-oracle.sol\":2108:2118  etf.assets */\n      0x40\n      add\n      mload\n        /* \"hopium/etf/main/etf-oracle.sol\":2108:2125  etf.assets.length */\n      mload\n        /* \"hopium/etf/main/etf-oracle.sol\":2096:2125  uint256 n = etf.assets.length */\n      swap1\n      pop\n        /* \"hopium/etf/main/etf-oracle.sol\":2154:2155  n */\n      dup1\n        /* \"hopium/etf/main/etf-oracle.sol\":2139:2156  new Snapshot[](n) */\n      0xffffffffffffffff\n      dup2\n      gt\n      iszero\n      tag_196\n      jumpi\n      tag_197\n      tag_198\n      jump\t// in\n    tag_197:\n    tag_196:\n      mload(0x40)\n      swap1\n      dup1\n      dup3\n      mstore\n      dup1\n      0x20\n      mul\n      0x20\n      add\n      dup3\n      add\n      0x40\n      mstore\n      dup1\n      iszero\n      tag_199\n      jumpi\n      dup2\n      0x20\n      add\n    tag_200:\n      tag_201\n      tag_202\n      jump\t// in\n    tag_201:\n      dup2\n      mstore\n      0x20\n      add\n      swap1\n      0x01\n      swap1\n      sub\n      swap1\n      dup2\n      tag_200\n      jumpi\n      swap1\n      pop\n    tag_199:\n      pop\n        /* \"hopium/etf/main/etf-oracle.sol\":2135:2156  s = new Snapshot[](n) */\n      swap3\n      pop\n        /* \"hopium/etf/main/etf-oracle.sol\":2167:2188  IUniswapOracle oracle */\n      0x00\n        /* \"hopium/etf/main/etf-oracle.sol\":2191:2209  getUniswapOracle() */\n      tag_203\n        /* \"hopium/etf/main/etf-oracle.sol\":2191:2207  getUniswapOracle */\n      tag_189\n        /* \"hopium/etf/main/etf-oracle.sol\":2191:2209  getUniswapOracle() */\n      jump\t// in\n    tag_203:\n        /* \"hopium/etf/main/etf-oracle.sol\":2167:2209  IUniswapOracle oracle = getUniswapOracle() */\n      swap1\n      pop\n        /* \"hopium/etf/main/etf-oracle.sol\":2310:2319  uint256 i */\n      0x00\n        /* \"hopium/etf/main/etf-oracle.sol\":2322:2323  0 */\n      0x00\n        /* \"hopium/etf/main/etf-oracle.sol\":2310:2323  uint256 i = 0 */\n      swap1\n      pop\n        /* \"hopium/etf/main/etf-oracle.sol\":2305:3124  for (uint256 i = 0; i < n; ++i) {... */\n    tag_204:\n        /* \"hopium/etf/main/etf-oracle.sol\":2329:2330  n */\n      dup3\n        /* \"hopium/etf/main/etf-oracle.sol\":2325:2326  i */\n      dup2\n        /* \"hopium/etf/main/etf-oracle.sol\":2325:2330  i < n */\n      lt\n        /* \"hopium/etf/main/etf-oracle.sol\":2305:3124  for (uint256 i = 0; i < n; ++i) {... */\n      iszero\n      tag_205\n      jumpi\n        /* \"hopium/etf/main/etf-oracle.sol\":2355:2364  address t */\n      0x00\n        /* \"hopium/etf/main/etf-oracle.sol\":2367:2370  etf */\n      dup8\n        /* \"hopium/etf/main/etf-oracle.sol\":2367:2377  etf.assets */\n      0x40\n      add\n      mload\n        /* \"hopium/etf/main/etf-oracle.sol\":2378:2379  i */\n      dup3\n        /* \"hopium/etf/main/etf-oracle.sol\":2367:2380  etf.assets[i] */\n      dup2\n      mload\n      dup2\n      lt\n      tag_207\n      jumpi\n      tag_208\n      tag_209\n      jump\t// in\n    tag_208:\n    tag_207:\n      0x20\n      mul\n      0x20\n      add\n      add\n      mload\n        /* \"hopium/etf/main/etf-oracle.sol\":2367:2393  etf.assets[i].tokenAddress */\n      0x00\n      add\n      mload\n        /* \"hopium/etf/main/etf-oracle.sol\":2355:2393  address t = etf.assets[i].tokenAddress */\n      swap1\n      pop\n        /* \"hopium/etf/main/etf-oracle.sol\":2411:2420  uint8   d */\n      0x00\n        /* \"hopium/etf/main/etf-oracle.sol\":2438:2439  t */\n      dup2\n        /* \"hopium/etf/main/etf-oracle.sol\":2423:2449  IERC20Metadata(t).decimals */\n      0xffffffffffffffffffffffffffffffffffffffff\n      and\n      0x313ce567\n        /* \"hopium/etf/main/etf-oracle.sol\":2423:2451  IERC20Metadata(t).decimals() */\n      mload(0x40)\n      dup2\n      0xffffffff\n      and\n      0xe0\n      shl\n      dup2\n      mstore\n      0x04\n      add\n      0x20\n      mload(0x40)\n      dup1\n      dup4\n      sub\n      dup2\n      dup7\n      gas\n      staticcall\n      iszero\n      dup1\n      iszero\n      tag_211\n      jumpi\n      returndatacopy(0x00, 0x00, returndatasize)\n      revert(0x00, returndatasize)\n    tag_211:\n      pop\n      pop\n      pop\n      pop\n      mload(0x40)\n      returndatasize\n      not(0x1f)\n      0x1f\n      dup3\n      add\n      and\n      dup3\n      add\n      dup1\n      0x40\n      mstore\n      pop\n      dup2\n      add\n      swap1\n      tag_212\n      swap2\n      swap1\n      tag_175\n      jump\t// in\n    tag_212:\n        /* \"hopium/etf/main/etf-oracle.sol\":2411:2451  uint8   d = IERC20Metadata(t).decimals() */\n      swap1\n      pop\n        /* \"hopium/etf/main/etf-oracle.sol\":2469:2480  uint256 bal */\n      0x00\n        /* \"hopium/etf/main/etf-oracle.sol\":2490:2491  t */\n      dup3\n        /* \"hopium/etf/main/etf-oracle.sol\":2483:2502  IERC20(t).balanceOf */\n      0xffffffffffffffffffffffffffffffffffffffff\n      and\n      0x70a08231\n        /* \"hopium/etf/main/etf-oracle.sol\":2503:2511  etfVault */\n      dup11\n        /* \"hopium/etf/main/etf-oracle.sol\":2483:2512  IERC20(t).balanceOf(etfVault) */\n      mload(0x40)\n      dup3\n      0xffffffff\n      and\n      0xe0\n      shl\n      dup2\n      mstore\n      0x04\n      add\n      tag_213\n      swap2\n      swap1\n      tag_37\n      jump\t// in\n    tag_213:\n      0x20\n      mload(0x40)\n      dup1\n      dup4\n      sub\n      dup2\n      dup7\n      gas\n      staticcall\n      iszero\n      dup1\n      iszero\n      tag_215\n      jumpi\n      returndatacopy(0x00, 0x00, returndatasize)\n      revert(0x00, returndatasize)\n    tag_215:\n      pop\n      pop\n      pop\n      pop\n      mload(0x40)\n      returndatasize\n      not(0x1f)\n      0x1f\n      dup3\n      add\n      and\n      dup3\n      add\n      dup1\n      0x40\n      mstore\n      pop\n      dup2\n      add\n      swap1\n      tag_216\n      swap2\n      swap1\n      tag_171\n      jump\t// in\n    tag_216:\n        /* \"hopium/etf/main/etf-oracle.sol\":2469:2512  uint256 bal = IERC20(t).balanceOf(etfVault) */\n      swap1\n      pop\n        /* \"hopium/etf/main/etf-oracle.sol\":2530:2539  uint256 p */\n      0x00\n        /* \"hopium/etf/main/etf-oracle.sol\":2544:2550  oracle */\n      dup6\n        /* \"hopium/etf/main/etf-oracle.sol\":2544:2568  oracle.getTokenWethPrice */\n      0xffffffffffffffffffffffffffffffffffffffff\n      and\n      0x7b49b49d\n        /* \"hopium/etf/main/etf-oracle.sol\":2569:2570  t */\n      dup6\n        /* \"hopium/etf/main/etf-oracle.sol\":2544:2571  oracle.getTokenWethPrice(t) */\n      mload(0x40)\n      dup3\n      0xffffffff\n      and\n      0xe0\n      shl\n      dup2\n      mstore\n      0x04\n      add\n      tag_217\n      swap2\n      swap1\n      tag_37\n      jump\t// in\n    tag_217:\n      0x20\n      mload(0x40)\n      dup1\n      dup4\n      sub\n      dup2\n      dup7\n      gas\n      staticcall\n      iszero\n      dup1\n      iszero\n      tag_219\n      jumpi\n      returndatacopy(0x00, 0x00, returndatasize)\n      revert(0x00, returndatasize)\n    tag_219:\n      pop\n      pop\n      pop\n      pop\n      mload(0x40)\n      returndatasize\n      not(0x1f)\n      0x1f\n      dup3\n      add\n      and\n      dup3\n      add\n      dup1\n      0x40\n      mstore\n      pop\n      dup2\n      add\n      swap1\n      tag_220\n      swap2\n      swap1\n      tag_171\n      jump\t// in\n    tag_220:\n        /* \"hopium/etf/main/etf-oracle.sol\":2530:2571  uint256 p   = oracle.getTokenWethPrice(t) */\n      swap1\n      pop\n        /* \"hopium/etf/main/etf-oracle.sol\":2675:2684  uint256 v */\n      0x00\n        /* \"hopium/etf/main/etf-oracle.sol\":2695:2696  0 */\n      0x00\n        /* \"hopium/etf/main/etf-oracle.sol\":2688:2691  bal */\n      dup4\n        /* \"hopium/etf/main/etf-oracle.sol\":2688:2696  bal == 0 */\n      eq\n        /* \"hopium/etf/main/etf-oracle.sol\":2688:2706  bal == 0 || p == 0 */\n      dup1\n      tag_221\n      jumpi\n      pop\n        /* \"hopium/etf/main/etf-oracle.sol\":2705:2706  0 */\n      0x00\n        /* \"hopium/etf/main/etf-oracle.sol\":2700:2701  p */\n      dup3\n        /* \"hopium/etf/main/etf-oracle.sol\":2700:2706  p == 0 */\n      eq\n        /* \"hopium/etf/main/etf-oracle.sol\":2688:2706  bal == 0 || p == 0 */\n    tag_221:\n        /* \"hopium/etf/main/etf-oracle.sol\":2687:2746  (bal == 0 || p == 0) ? 0 : FullMath.mulDiv(bal, p, 10 ** d) */\n      tag_222\n      jumpi\n        /* \"hopium/etf/main/etf-oracle.sol\":2714:2746  FullMath.mulDiv(bal, p, 10 ** d) */\n      tag_223\n        /* \"hopium/etf/main/etf-oracle.sol\":2730:2733  bal */\n      dup4\n        /* \"hopium/etf/main/etf-oracle.sol\":2735:2736  p */\n      dup4\n        /* \"hopium/etf/main/etf-oracle.sol\":2744:2745  d */\n      dup7\n        /* \"hopium/etf/main/etf-oracle.sol\":2738:2745  10 ** d */\n      0xff\n      and\n        /* \"hopium/etf/main/etf-oracle.sol\":2738:2740  10 */\n      0x0a\n        /* \"hopium/etf/main/etf-oracle.sol\":2738:2745  10 ** d */\n      exp\n        /* \"hopium/etf/main/etf-oracle.sol\":2714:2729  FullMath.mulDiv */\n      tag_185\n        /* \"hopium/etf/main/etf-oracle.sol\":2714:2746  FullMath.mulDiv(bal, p, 10 ** d) */\n      jump\t// in\n    tag_223:\n        /* \"hopium/etf/main/etf-oracle.sol\":2687:2746  (bal == 0 || p == 0) ? 0 : FullMath.mulDiv(bal, p, 10 ** d) */\n      jump(tag_224)\n    tag_222:\n        /* \"hopium/etf/main/etf-oracle.sol\":2710:2711  0 */\n      0x00\n        /* \"hopium/etf/main/etf-oracle.sol\":2687:2746  (bal == 0 || p == 0) ? 0 : FullMath.mulDiv(bal, p, 10 ** d) */\n    tag_224:\n        /* \"hopium/etf/main/etf-oracle.sol\":2675:2746  uint256 v = (bal == 0 || p == 0) ? 0 : FullMath.mulDiv(bal, p, 10 ** d) */\n      swap1\n      pop\n        /* \"hopium/etf/main/etf-oracle.sol\":2772:3075  Snapshot({... */\n      mload(0x40)\n      dup1\n      0xc0\n      add\n      0x40\n      mstore\n      dup1\n        /* \"hopium/etf/main/etf-oracle.sol\":2821:2822  t */\n      dup7\n        /* \"hopium/etf/main/etf-oracle.sol\":2772:3075  Snapshot({... */\n      0xffffffffffffffffffffffffffffffffffffffff\n      and\n      dup2\n      mstore\n      0x20\n      add\n        /* \"hopium/etf/main/etf-oracle.sol\":2862:2863  d */\n      dup6\n        /* \"hopium/etf/main/etf-oracle.sol\":2772:3075  Snapshot({... */\n      0xff\n      and\n      dup2\n      mstore\n      0x20\n      add\n        /* \"hopium/etf/main/etf-oracle.sol\":2903:2904  0 */\n      0x00\n        /* \"hopium/etf/main/etf-oracle.sol\":2772:3075  Snapshot({... */\n      0xffff\n      and\n      dup2\n      mstore\n      0x20\n      add\n        /* \"hopium/etf/main/etf-oracle.sol\":2971:2974  bal */\n      dup5\n        /* \"hopium/etf/main/etf-oracle.sol\":2772:3075  Snapshot({... */\n      dup2\n      mstore\n      0x20\n      add\n        /* \"hopium/etf/main/etf-oracle.sol\":3014:3015  p */\n      dup4\n        /* \"hopium/etf/main/etf-oracle.sol\":2772:3075  Snapshot({... */\n      dup2\n      mstore\n      0x20\n      add\n        /* \"hopium/etf/main/etf-oracle.sol\":3055:3056  v */\n      dup3\n        /* \"hopium/etf/main/etf-oracle.sol\":2772:3075  Snapshot({... */\n      dup2\n      mstore\n      pop\n        /* \"hopium/etf/main/etf-oracle.sol\":2765:2766  s */\n      dup11\n        /* \"hopium/etf/main/etf-oracle.sol\":2767:2768  i */\n      dup8\n        /* \"hopium/etf/main/etf-oracle.sol\":2765:2769  s[i] */\n      dup2\n      mload\n      dup2\n      lt\n      tag_225\n      jumpi\n      tag_226\n      tag_209\n      jump\t// in\n    tag_226:\n    tag_225:\n      0x20\n      mul\n      0x20\n      add\n      add\n        /* \"hopium/etf/main/etf-oracle.sol\":2765:3075  s[i] = Snapshot({... */\n      dup2\n      swap1\n      mstore\n      pop\n        /* \"hopium/etf/main/etf-oracle.sol\":3108:3109  v */\n      dup1\n        /* \"hopium/etf/main/etf-oracle.sol\":3094:3109  etfTvlWeth += v */\n      dup10\n      add\n      swap9\n      pop\n        /* \"hopium/etf/main/etf-oracle.sol\":2337:3124  {... */\n      pop\n      pop\n      pop\n      pop\n      pop\n        /* \"hopium/etf/main/etf-oracle.sol\":2332:2335  ++i */\n      dup1\n      0x01\n      add\n      swap1\n      pop\n        /* \"hopium/etf/main/etf-oracle.sol\":2305:3124  for (uint256 i = 0; i < n; ++i) {... */\n      jump(tag_204)\n    tag_205:\n      pop\n        /* \"hopium/etf/main/etf-oracle.sol\":3228:3229  0 */\n      0x00\n        /* \"hopium/etf/main/etf-oracle.sol\":3215:3225  etfTvlWeth */\n      dup4\n        /* \"hopium/etf/main/etf-oracle.sol\":3215:3229  etfTvlWeth > 0 */\n      gt\n        /* \"hopium/etf/main/etf-oracle.sol\":3211:3504  if (etfTvlWeth > 0) {... */\n      iszero\n      tag_227\n      jumpi\n        /* \"hopium/etf/main/etf-oracle.sol\":3278:3287  uint256 i */\n      0x00\n        /* \"hopium/etf/main/etf-oracle.sol\":3290:3291  0 */\n      0x00\n        /* \"hopium/etf/main/etf-oracle.sol\":3278:3291  uint256 i = 0 */\n      swap1\n      pop\n        /* \"hopium/etf/main/etf-oracle.sol\":3273:3480  for (uint256 i = 0; i < n; ++i) {... */\n    tag_228:\n        /* \"hopium/etf/main/etf-oracle.sol\":3297:3298  n */\n      dup3\n        /* \"hopium/etf/main/etf-oracle.sol\":3293:3294  i */\n      dup2\n        /* \"hopium/etf/main/etf-oracle.sol\":3293:3298  i < n */\n      lt\n        /* \"hopium/etf/main/etf-oracle.sol\":3273:3480  for (uint256 i = 0; i < n; ++i) {... */\n      iszero\n      tag_229\n      jumpi\n        /* \"hopium/etf/main/etf-oracle.sol\":3429:3439  etfTvlWeth */\n      dup4\n        /* \"hopium/common/types/bips.sol\":97:103  10_000 */\n      0x2710\n        /* \"hopium/etf/main/etf-oracle.sol\":3381:3382  s */\n      dup7\n        /* \"hopium/etf/main/etf-oracle.sol\":3383:3384  i */\n      dup4\n        /* \"hopium/etf/main/etf-oracle.sol\":3381:3385  s[i] */\n      dup2\n      mload\n      dup2\n      lt\n      tag_231\n      jumpi\n      tag_232\n      tag_209\n      jump\t// in\n    tag_232:\n    tag_231:\n      0x20\n      mul\n      0x20\n      add\n      add\n      mload\n        /* \"hopium/etf/main/etf-oracle.sol\":3381:3402  s[i].tokenValueWeth18 */\n      0xa0\n      add\n      mload\n        /* \"hopium/etf/main/etf-oracle.sol\":3381:3425  s[i].tokenValueWeth18 * HUNDRED_PERCENT_BIPS */\n      mul\n        /* \"hopium/etf/main/etf-oracle.sol\":3380:3439  (s[i].tokenValueWeth18 * HUNDRED_PERCENT_BIPS) / etfTvlWeth */\n      dup2\n      tag_233\n      jumpi\n      tag_234\n      tag_235\n      jump\t// in\n    tag_234:\n    tag_233:\n      div\n        /* \"hopium/etf/main/etf-oracle.sol\":3327:3328  s */\n      dup6\n        /* \"hopium/etf/main/etf-oracle.sol\":3329:3330  i */\n      dup3\n        /* \"hopium/etf/main/etf-oracle.sol\":3327:3331  s[i] */\n      dup2\n      mload\n      dup2\n      lt\n      tag_236\n      jumpi\n      tag_237\n      tag_209\n      jump\t// in\n    tag_237:\n    tag_236:\n      0x20\n      mul\n      0x20\n      add\n      add\n      mload\n        /* \"hopium/etf/main/etf-oracle.sol\":3327:3345  s[i].currentWeight */\n      0x40\n      add\n        /* \"hopium/etf/main/etf-oracle.sol\":3327:3461  s[i].currentWeight = uint16(... */\n      swap1\n      0xffff\n      and\n      swap1\n      dup2\n      0xffff\n      and\n      dup2\n      mstore\n      pop\n      pop\n        /* \"hopium/etf/main/etf-oracle.sol\":3300:3303  ++i */\n      dup1\n      0x01\n      add\n      swap1\n      pop\n        /* \"hopium/etf/main/etf-oracle.sol\":3273:3480  for (uint256 i = 0; i < n; ++i) {... */\n      jump(tag_228)\n    tag_229:\n      pop\n        /* \"hopium/etf/main/etf-oracle.sol\":3211:3504  if (etfTvlWeth > 0) {... */\n    tag_227:\n        /* \"hopium/etf/main/etf-oracle.sol\":2086:3510  {... */\n      pop\n      pop\n        /* \"hopium/etf/main/etf-oracle.sol\":1936:3510  function _snapshotVault(Etf memory etf, address etfVault)... */\n      swap3\n      pop\n      swap3\n      swap1\n      pop\n      jump\t// out\n        /* \"hopium/etf/main/etf-oracle.sol\":9012:10007  function _getStats(uint256 etfId, Etf memory etf, address etfVault) internal view returns (Stats memory s) {... */\n    tag_102:\n        /* \"hopium/etf/main/etf-oracle.sol\":9103:9117  Stats memory s */\n      tag_238\n      tag_94\n      jump\t// in\n    tag_238:\n        /* \"hopium/etf/main/etf-oracle.sol\":9129:9148  IUniswapOracle uniO */\n      0x00\n        /* \"hopium/etf/main/etf-oracle.sol\":9151:9169  getUniswapOracle() */\n      tag_240\n        /* \"hopium/etf/main/etf-oracle.sol\":9151:9167  getUniswapOracle */\n      tag_189\n        /* \"hopium/etf/main/etf-oracle.sol\":9151:9169  getUniswapOracle() */\n      jump\t// in\n    tag_240:\n        /* \"hopium/etf/main/etf-oracle.sol\":9129:9169  IUniswapOracle uniO = getUniswapOracle() */\n      swap1\n      pop\n        /* \"hopium/etf/main/etf-oracle.sol\":9212:9230  uint256 priceEth18 */\n      0x00\n        /* \"hopium/etf/main/etf-oracle.sol\":9233:9271  _getEtfWethPrice(etfId, etf, etfVault) */\n      tag_241\n        /* \"hopium/etf/main/etf-oracle.sol\":9250:9255  etfId */\n      dup7\n        /* \"hopium/etf/main/etf-oracle.sol\":9257:9260  etf */\n      dup7\n        /* \"hopium/etf/main/etf-oracle.sol\":9262:9270  etfVault */\n      dup7\n        /* \"hopium/etf/main/etf-oracle.sol\":9233:9249  _getEtfWethPrice */\n      tag_82\n        /* \"hopium/etf/main/etf-oracle.sol\":9233:9271  _getEtfWethPrice(etfId, etf, etfVault) */\n      jump\t// in\n    tag_241:\n        /* \"hopium/etf/main/etf-oracle.sol\":9212:9271  uint256 priceEth18 = _getEtfWethPrice(etfId, etf, etfVault) */\n      swap1\n      pop\n        /* \"hopium/etf/main/etf-oracle.sol\":9281:9299  uint256 priceUsd18 */\n      0x00\n        /* \"hopium/etf/main/etf-oracle.sol\":9302:9331  _convertWethToUsd(priceEth18) */\n      tag_242\n        /* \"hopium/etf/main/etf-oracle.sol\":9320:9330  priceEth18 */\n      dup3\n        /* \"hopium/etf/main/etf-oracle.sol\":9302:9319  _convertWethToUsd */\n      tag_84\n        /* \"hopium/etf/main/etf-oracle.sol\":9302:9331  _convertWethToUsd(priceEth18) */\n      jump\t// in\n    tag_242:\n        /* \"hopium/etf/main/etf-oracle.sol\":9281:9331  uint256 priceUsd18 = _convertWethToUsd(priceEth18) */\n      swap1\n      pop\n        /* \"hopium/etf/main/etf-oracle.sol\":9351:9399  EthUsd({ eth18: priceEth18, usd18: priceUsd18 }) */\n      mload(0x40)\n      dup1\n      0x40\n      add\n      0x40\n      mstore\n      dup1\n        /* \"hopium/etf/main/etf-oracle.sol\":9367:9377  priceEth18 */\n      dup4\n        /* \"hopium/etf/main/etf-oracle.sol\":9351:9399  EthUsd({ eth18: priceEth18, usd18: priceUsd18 }) */\n      dup2\n      mstore\n      0x20\n      add\n        /* \"hopium/etf/main/etf-oracle.sol\":9386:9396  priceUsd18 */\n      dup3\n        /* \"hopium/etf/main/etf-oracle.sol\":9351:9399  EthUsd({ eth18: priceEth18, usd18: priceUsd18 }) */\n      dup2\n      mstore\n      pop\n        /* \"hopium/etf/main/etf-oracle.sol\":9341:9342  s */\n      dup5\n        /* \"hopium/etf/main/etf-oracle.sol\":9341:9348  s.price */\n      0x00\n      add\n        /* \"hopium/etf/main/etf-oracle.sol\":9341:9399  s.price = EthUsd({ eth18: priceEth18, usd18: priceUsd18 }) */\n      dup2\n      swap1\n      mstore\n      pop\n        /* \"hopium/etf/main/etf-oracle.sol\":9447:9464  uint256 volWeth18 */\n      0x00\n        /* \"hopium/etf/main/etf-oracle.sol\":9466:9482  uint256 volUsd18 */\n      0x00\n        /* \"hopium/etf/main/etf-oracle.sol\":9486:9501  getEtfFactory() */\n      tag_243\n        /* \"hopium/etf/main/etf-oracle.sol\":9486:9499  getEtfFactory */\n      tag_75\n        /* \"hopium/etf/main/etf-oracle.sol\":9486:9501  getEtfFactory() */\n      jump\t// in\n    tag_243:\n        /* \"hopium/etf/main/etf-oracle.sol\":9486:9519  getEtfFactory().getEtfTotalVolume */\n      0xffffffffffffffffffffffffffffffffffffffff\n      and\n      0xc45f0607\n        /* \"hopium/etf/main/etf-oracle.sol\":9520:9525  etfId */\n      dup11\n        /* \"hopium/etf/main/etf-oracle.sol\":9486:9526  getEtfFactory().getEtfTotalVolume(etfId) */\n      mload(0x40)\n      dup3\n      0xffffffff\n      and\n      0xe0\n      shl\n      dup2\n      mstore\n      0x04\n      add\n      tag_244\n      swap2\n      swap1\n      tag_21\n      jump\t// in\n    tag_244:\n      0x40\n      dup1\n      mload\n      dup1\n      dup4\n      sub\n      dup2\n      dup7\n      gas\n      staticcall\n      iszero\n      dup1\n      iszero\n      tag_246\n      jumpi\n      returndatacopy(0x00, 0x00, returndatasize)\n      revert(0x00, returndatasize)\n    tag_246:\n      pop\n      pop\n      pop\n      pop\n      mload(0x40)\n      returndatasize\n      not(0x1f)\n      0x1f\n      dup3\n      add\n      and\n      dup3\n      add\n      dup1\n      0x40\n      mstore\n      pop\n      dup2\n      add\n      swap1\n      tag_247\n      swap2\n      swap1\n      tag_248\n      jump\t// in\n    tag_247:\n        /* \"hopium/etf/main/etf-oracle.sol\":9446:9526  (uint256 volWeth18, uint256 volUsd18) = getEtfFactory().getEtfTotalVolume(etfId) */\n      swap2\n      pop\n      swap2\n      pop\n        /* \"hopium/etf/main/etf-oracle.sol\":9547:9592  EthUsd({ eth18: volWeth18, usd18: volUsd18 }) */\n      mload(0x40)\n      dup1\n      0x40\n      add\n      0x40\n      mstore\n      dup1\n        /* \"hopium/etf/main/etf-oracle.sol\":9563:9572  volWeth18 */\n      dup4\n        /* \"hopium/etf/main/etf-oracle.sol\":9547:9592  EthUsd({ eth18: volWeth18, usd18: volUsd18 }) */\n      dup2\n      mstore\n      0x20\n      add\n        /* \"hopium/etf/main/etf-oracle.sol\":9581:9589  volUsd18 */\n      dup3\n        /* \"hopium/etf/main/etf-oracle.sol\":9547:9592  EthUsd({ eth18: volWeth18, usd18: volUsd18 }) */\n      dup2\n      mstore\n      pop\n        /* \"hopium/etf/main/etf-oracle.sol\":9536:9537  s */\n      dup7\n        /* \"hopium/etf/main/etf-oracle.sol\":9536:9544  s.volume */\n      0x20\n      add\n        /* \"hopium/etf/main/etf-oracle.sol\":9536:9592  s.volume = EthUsd({ eth18: volWeth18, usd18: volUsd18 }) */\n      dup2\n      swap1\n      mstore\n      pop\n        /* \"hopium/etf/main/etf-oracle.sol\":9638:9654  uint256 tvlEth18 */\n      0x00\n        /* \"hopium/etf/main/etf-oracle.sol\":9657:9686  _getEtfTvlWeth(etf, etfVault) */\n      tag_249\n        /* \"hopium/etf/main/etf-oracle.sol\":9672:9675  etf */\n      dup10\n        /* \"hopium/etf/main/etf-oracle.sol\":9677:9685  etfVault */\n      dup10\n        /* \"hopium/etf/main/etf-oracle.sol\":9657:9671  _getEtfTvlWeth */\n      tag_183\n        /* \"hopium/etf/main/etf-oracle.sol\":9657:9686  _getEtfTvlWeth(etf, etfVault) */\n      jump\t// in\n    tag_249:\n        /* \"hopium/etf/main/etf-oracle.sol\":9638:9686  uint256 tvlEth18 = _getEtfTvlWeth(etf, etfVault) */\n      swap1\n      pop\n        /* \"hopium/etf/main/etf-oracle.sol\":9696:9712  uint256 tvlUsd18 */\n      0x00\n        /* \"hopium/etf/main/etf-oracle.sol\":9715:9742  _convertWethToUsd(tvlEth18) */\n      tag_250\n        /* \"hopium/etf/main/etf-oracle.sol\":9733:9741  tvlEth18 */\n      dup3\n        /* \"hopium/etf/main/etf-oracle.sol\":9715:9732  _convertWethToUsd */\n      tag_84\n        /* \"hopium/etf/main/etf-oracle.sol\":9715:9742  _convertWethToUsd(tvlEth18) */\n      jump\t// in\n    tag_250:\n        /* \"hopium/etf/main/etf-oracle.sol\":9696:9742  uint256 tvlUsd18 = _convertWethToUsd(tvlEth18) */\n      swap1\n      pop\n        /* \"hopium/etf/main/etf-oracle.sol\":9760:9804  EthUsd({ eth18: tvlEth18, usd18: tvlUsd18 }) */\n      mload(0x40)\n      dup1\n      0x40\n      add\n      0x40\n      mstore\n      dup1\n        /* \"hopium/etf/main/etf-oracle.sol\":9776:9784  tvlEth18 */\n      dup4\n        /* \"hopium/etf/main/etf-oracle.sol\":9760:9804  EthUsd({ eth18: tvlEth18, usd18: tvlUsd18 }) */\n      dup2\n      mstore\n      0x20\n      add\n        /* \"hopium/etf/main/etf-oracle.sol\":9793:9801  tvlUsd18 */\n      dup3\n        /* \"hopium/etf/main/etf-oracle.sol\":9760:9804  EthUsd({ eth18: tvlEth18, usd18: tvlUsd18 }) */\n      dup2\n      mstore\n      pop\n        /* \"hopium/etf/main/etf-oracle.sol\":9752:9753  s */\n      dup9\n        /* \"hopium/etf/main/etf-oracle.sol\":9752:9757  s.tvl */\n      0x40\n      add\n        /* \"hopium/etf/main/etf-oracle.sol\":9752:9804  s.tvl = EthUsd({ eth18: tvlEth18, usd18: tvlUsd18 }) */\n      dup2\n      swap1\n      mstore\n      pop\n        /* \"hopium/etf/main/etf-oracle.sol\":9879:9923  _sumPerAsset(etf, uniO.getTokenLiquidityUsd) */\n      tag_251\n        /* \"hopium/etf/main/etf-oracle.sol\":9892:9895  etf */\n      dup11\n        /* \"hopium/etf/main/etf-oracle.sol\":9897:9901  uniO */\n      dup9\n        /* \"hopium/etf/main/etf-oracle.sol\":9897:9922  uniO.getTokenLiquidityUsd */\n      0xffffffffffffffffffffffffffffffffffffffff\n      and\n      0x57b6c133\n        /* \"hopium/etf/main/etf-oracle.sol\":9879:9891  _sumPerAsset */\n      tag_252\n        /* \"hopium/etf/main/etf-oracle.sol\":9879:9923  _sumPerAsset(etf, uniO.getTokenLiquidityUsd) */\n      jump\t// in\n    tag_251:\n        /* \"hopium/etf/main/etf-oracle.sol\":9856:9857  s */\n      dup9\n        /* \"hopium/etf/main/etf-oracle.sol\":9856:9876  s.assetsLiquidityUsd */\n      0x60\n      add\n        /* \"hopium/etf/main/etf-oracle.sol\":9856:9923  s.assetsLiquidityUsd = _sumPerAsset(etf, uniO.getTokenLiquidityUsd) */\n      dup2\n      dup2\n      mstore\n      pop\n      pop\n        /* \"hopium/etf/main/etf-oracle.sol\":9956:10000  _sumPerAsset(etf, uniO.getTokenMarketCapUsd) */\n      tag_253\n        /* \"hopium/etf/main/etf-oracle.sol\":9969:9972  etf */\n      dup11\n        /* \"hopium/etf/main/etf-oracle.sol\":9974:9978  uniO */\n      dup9\n        /* \"hopium/etf/main/etf-oracle.sol\":9974:9999  uniO.getTokenMarketCapUsd */\n      0xffffffffffffffffffffffffffffffffffffffff\n      and\n      0x69a2e17d\n        /* \"hopium/etf/main/etf-oracle.sol\":9956:9968  _sumPerAsset */\n      tag_252\n        /* \"hopium/etf/main/etf-oracle.sol\":9956:10000  _sumPerAsset(etf, uniO.getTokenMarketCapUsd) */\n      jump\t// in\n    tag_253:\n        /* \"hopium/etf/main/etf-oracle.sol\":9933:9934  s */\n      dup9\n        /* \"hopium/etf/main/etf-oracle.sol\":9933:9948  s.assetsMcapUsd */\n      0x80\n      add\n        /* \"hopium/etf/main/etf-oracle.sol\":9933:10000  s.assetsMcapUsd      = _sumPerAsset(etf, uniO.getTokenMarketCapUsd) */\n      dup2\n      dup2\n      mstore\n      pop\n      pop\n        /* \"hopium/etf/main/etf-oracle.sol\":9119:10007  {... */\n      pop\n      pop\n      pop\n      pop\n      pop\n      pop\n      pop\n        /* \"hopium/etf/main/etf-oracle.sol\":9012:10007  function _getStats(uint256 etfId, Etf memory etf, address etfVault) internal view returns (Stats memory s) {... */\n      swap4\n      swap3\n      pop\n      pop\n      pop\n      jump\t// out\n        /* \"hopium/etf/main/etf-oracle.sol\":3618:4741  function _snapshotVaultWithUsd(Etf memory etf, address etfVault)... */\n    tag_121:\n        /* \"hopium/etf/main/etf-oracle.sol\":3730:3756  SnapshotWithUsd[] memory s */\n      0x60\n        /* \"hopium/etf/main/etf-oracle.sol\":3758:3776  uint256 etfTvlWeth */\n      0x00\n        /* \"hopium/etf/main/etf-oracle.sol\":3778:3795  uint256 etfTvlUsd */\n      0x00\n        /* \"hopium/etf/main/etf-oracle.sol\":3812:3834  Snapshot[] memory snap */\n      0x00\n        /* \"hopium/etf/main/etf-oracle.sol\":3836:3851  uint256 tvlWeth */\n      0x00\n        /* \"hopium/etf/main/etf-oracle.sol\":3855:3884  _snapshotVault(etf, etfVault) */\n      tag_255\n        /* \"hopium/etf/main/etf-oracle.sol\":3870:3873  etf */\n      dup8\n        /* \"hopium/etf/main/etf-oracle.sol\":3875:3883  etfVault */\n      dup8\n        /* \"hopium/etf/main/etf-oracle.sol\":3855:3869  _snapshotVault */\n      tag_92\n        /* \"hopium/etf/main/etf-oracle.sol\":3855:3884  _snapshotVault(etf, etfVault) */\n      jump\t// in\n    tag_255:\n        /* \"hopium/etf/main/etf-oracle.sol\":3811:3884  (Snapshot[] memory snap, uint256 tvlWeth) = _snapshotVault(etf, etfVault) */\n      swap2\n      pop\n      swap2\n      pop\n        /* \"hopium/etf/main/etf-oracle.sol\":3908:3915  tvlWeth */\n      dup1\n        /* \"hopium/etf/main/etf-oracle.sol\":3895:3915  etfTvlWeth = tvlWeth */\n      swap4\n      pop\n        /* \"hopium/etf/main/etf-oracle.sol\":3938:3964  _convertWethToUsd(tvlWeth) */\n      tag_256\n        /* \"hopium/etf/main/etf-oracle.sol\":3956:3963  tvlWeth */\n      dup2\n        /* \"hopium/etf/main/etf-oracle.sol\":3938:3955  _convertWethToUsd */\n      tag_84\n        /* \"hopium/etf/main/etf-oracle.sol\":3938:3964  _convertWethToUsd(tvlWeth) */\n      jump\t// in\n    tag_256:\n        /* \"hopium/etf/main/etf-oracle.sol\":3925:3964  etfTvlUsd  = _convertWethToUsd(tvlWeth) */\n      swap3\n      pop\n        /* \"hopium/etf/main/etf-oracle.sol\":3975:3984  uint256 n */\n      0x00\n        /* \"hopium/etf/main/etf-oracle.sol\":3987:3991  snap */\n      dup3\n        /* \"hopium/etf/main/etf-oracle.sol\":3987:3998  snap.length */\n      mload\n        /* \"hopium/etf/main/etf-oracle.sol\":3975:3998  uint256 n = snap.length */\n      swap1\n      pop\n        /* \"hopium/etf/main/etf-oracle.sol\":4034:4035  n */\n      dup1\n        /* \"hopium/etf/main/etf-oracle.sol\":4012:4036  new SnapshotWithUsd[](n) */\n      0xffffffffffffffff\n      dup2\n      gt\n      iszero\n      tag_257\n      jumpi\n      tag_258\n      tag_198\n      jump\t// in\n    tag_258:\n    tag_257:\n      mload(0x40)\n      swap1\n      dup1\n      dup3\n      mstore\n      dup1\n      0x20\n      mul\n      0x20\n      add\n      dup3\n      add\n      0x40\n      mstore\n      dup1\n      iszero\n      tag_259\n      jumpi\n      dup2\n      0x20\n      add\n    tag_260:\n      tag_261\n      tag_262\n      jump\t// in\n    tag_261:\n      dup2\n      mstore\n      0x20\n      add\n      swap1\n      0x01\n      swap1\n      sub\n      swap1\n      dup2\n      tag_260\n      jumpi\n      swap1\n      pop\n    tag_259:\n      pop\n        /* \"hopium/etf/main/etf-oracle.sol\":4008:4036  s = new SnapshotWithUsd[](n) */\n      swap6\n      pop\n        /* \"hopium/etf/main/etf-oracle.sol\":4076:4085  uint256 i */\n      0x00\n        /* \"hopium/etf/main/etf-oracle.sol\":4088:4089  0 */\n      0x00\n        /* \"hopium/etf/main/etf-oracle.sol\":4076:4089  uint256 i = 0 */\n      swap1\n      pop\n        /* \"hopium/etf/main/etf-oracle.sol\":4071:4725  for (uint256 i = 0; i < n; ++i) {... */\n    tag_263:\n        /* \"hopium/etf/main/etf-oracle.sol\":4095:4096  n */\n      dup2\n        /* \"hopium/etf/main/etf-oracle.sol\":4091:4092  i */\n      dup2\n        /* \"hopium/etf/main/etf-oracle.sol\":4091:4096  i < n */\n      lt\n        /* \"hopium/etf/main/etf-oracle.sol\":4071:4725  for (uint256 i = 0; i < n; ++i) {... */\n      iszero\n      tag_264\n      jumpi\n        /* \"hopium/etf/main/etf-oracle.sol\":4128:4710  SnapshotWithUsd({... */\n      mload(0x40)\n      dup1\n      0x0100\n      add\n      0x40\n      mstore\n      dup1\n        /* \"hopium/etf/main/etf-oracle.sol\":4185:4189  snap */\n      dup6\n        /* \"hopium/etf/main/etf-oracle.sol\":4190:4191  i */\n      dup4\n        /* \"hopium/etf/main/etf-oracle.sol\":4185:4192  snap[i] */\n      dup2\n      mload\n      dup2\n      lt\n      tag_266\n      jumpi\n      tag_267\n      tag_209\n      jump\t// in\n    tag_267:\n    tag_266:\n      0x20\n      mul\n      0x20\n      add\n      add\n      mload\n        /* \"hopium/etf/main/etf-oracle.sol\":4185:4205  snap[i].tokenAddress */\n      0x00\n      add\n      mload\n        /* \"hopium/etf/main/etf-oracle.sol\":4128:4710  SnapshotWithUsd({... */\n      0xffffffffffffffffffffffffffffffffffffffff\n      and\n      dup2\n      mstore\n      0x20\n      add\n        /* \"hopium/etf/main/etf-oracle.sol\":4246:4250  snap */\n      dup6\n        /* \"hopium/etf/main/etf-oracle.sol\":4251:4252  i */\n      dup4\n        /* \"hopium/etf/main/etf-oracle.sol\":4246:4253  snap[i] */\n      dup2\n      mload\n      dup2\n      lt\n      tag_268\n      jumpi\n      tag_269\n      tag_209\n      jump\t// in\n    tag_269:\n    tag_268:\n      0x20\n      mul\n      0x20\n      add\n      add\n      mload\n        /* \"hopium/etf/main/etf-oracle.sol\":4246:4267  snap[i].tokenDecimals */\n      0x20\n      add\n      mload\n        /* \"hopium/etf/main/etf-oracle.sol\":4128:4710  SnapshotWithUsd({... */\n      0xff\n      and\n      dup2\n      mstore\n      0x20\n      add\n        /* \"hopium/etf/main/etf-oracle.sol\":4308:4312  snap */\n      dup6\n        /* \"hopium/etf/main/etf-oracle.sol\":4313:4314  i */\n      dup4\n        /* \"hopium/etf/main/etf-oracle.sol\":4308:4315  snap[i] */\n      dup2\n      mload\n      dup2\n      lt\n      tag_270\n      jumpi\n      tag_271\n      tag_209\n      jump\t// in\n    tag_271:\n    tag_270:\n      0x20\n      mul\n      0x20\n      add\n      add\n      mload\n        /* \"hopium/etf/main/etf-oracle.sol\":4308:4329  snap[i].currentWeight */\n      0x40\n      add\n      mload\n        /* \"hopium/etf/main/etf-oracle.sol\":4128:4710  SnapshotWithUsd({... */\n      0xffff\n      and\n      dup2\n      mstore\n      0x20\n      add\n        /* \"hopium/etf/main/etf-oracle.sol\":4370:4374  snap */\n      dup6\n        /* \"hopium/etf/main/etf-oracle.sol\":4375:4376  i */\n      dup4\n        /* \"hopium/etf/main/etf-oracle.sol\":4370:4377  snap[i] */\n      dup2\n      mload\n      dup2\n      lt\n      tag_272\n      jumpi\n      tag_273\n      tag_209\n      jump\t// in\n    tag_273:\n    tag_272:\n      0x20\n      mul\n      0x20\n      add\n      add\n      mload\n        /* \"hopium/etf/main/etf-oracle.sol\":4370:4393  snap[i].tokenRawBalance */\n      0x60\n      add\n      mload\n        /* \"hopium/etf/main/etf-oracle.sol\":4128:4710  SnapshotWithUsd({... */\n      dup2\n      mstore\n      0x20\n      add\n        /* \"hopium/etf/main/etf-oracle.sol\":4434:4438  snap */\n      dup6\n        /* \"hopium/etf/main/etf-oracle.sol\":4439:4440  i */\n      dup4\n        /* \"hopium/etf/main/etf-oracle.sol\":4434:4441  snap[i] */\n      dup2\n      mload\n      dup2\n      lt\n      tag_274\n      jumpi\n      tag_275\n      tag_209\n      jump\t// in\n    tag_275:\n    tag_274:\n      0x20\n      mul\n      0x20\n      add\n      add\n      mload\n        /* \"hopium/etf/main/etf-oracle.sol\":4434:4458  snap[i].tokenPriceWeth18 */\n      0x80\n      add\n      mload\n        /* \"hopium/etf/main/etf-oracle.sol\":4128:4710  SnapshotWithUsd({... */\n      dup2\n      mstore\n      0x20\n      add\n        /* \"hopium/etf/main/etf-oracle.sol\":4499:4542  _convertWethToUsd(snap[i].tokenPriceWeth18) */\n      tag_276\n        /* \"hopium/etf/main/etf-oracle.sol\":4517:4521  snap */\n      dup7\n        /* \"hopium/etf/main/etf-oracle.sol\":4522:4523  i */\n      dup5\n        /* \"hopium/etf/main/etf-oracle.sol\":4517:4524  snap[i] */\n      dup2\n      mload\n      dup2\n      lt\n      tag_277\n      jumpi\n      tag_278\n      tag_209\n      jump\t// in\n    tag_278:\n    tag_277:\n      0x20\n      mul\n      0x20\n      add\n      add\n      mload\n        /* \"hopium/etf/main/etf-oracle.sol\":4517:4541  snap[i].tokenPriceWeth18 */\n      0x80\n      add\n      mload\n        /* \"hopium/etf/main/etf-oracle.sol\":4499:4516  _convertWethToUsd */\n      tag_84\n        /* \"hopium/etf/main/etf-oracle.sol\":4499:4542  _convertWethToUsd(snap[i].tokenPriceWeth18) */\n      jump\t// in\n    tag_276:\n        /* \"hopium/etf/main/etf-oracle.sol\":4128:4710  SnapshotWithUsd({... */\n      dup2\n      mstore\n      0x20\n      add\n        /* \"hopium/etf/main/etf-oracle.sol\":4583:4587  snap */\n      dup6\n        /* \"hopium/etf/main/etf-oracle.sol\":4588:4589  i */\n      dup4\n        /* \"hopium/etf/main/etf-oracle.sol\":4583:4590  snap[i] */\n      dup2\n      mload\n      dup2\n      lt\n      tag_279\n      jumpi\n      tag_280\n      tag_209\n      jump\t// in\n    tag_280:\n    tag_279:\n      0x20\n      mul\n      0x20\n      add\n      add\n      mload\n        /* \"hopium/etf/main/etf-oracle.sol\":4583:4607  snap[i].tokenValueWeth18 */\n      0xa0\n      add\n      mload\n        /* \"hopium/etf/main/etf-oracle.sol\":4128:4710  SnapshotWithUsd({... */\n      dup2\n      mstore\n      0x20\n      add\n        /* \"hopium/etf/main/etf-oracle.sol\":4648:4691  _convertWethToUsd(snap[i].tokenValueWeth18) */\n      tag_281\n        /* \"hopium/etf/main/etf-oracle.sol\":4666:4670  snap */\n      dup7\n        /* \"hopium/etf/main/etf-oracle.sol\":4671:4672  i */\n      dup5\n        /* \"hopium/etf/main/etf-oracle.sol\":4666:4673  snap[i] */\n      dup2\n      mload\n      dup2\n      lt\n      tag_282\n      jumpi\n      tag_283\n      tag_209\n      jump\t// in\n    tag_283:\n    tag_282:\n      0x20\n      mul\n      0x20\n      add\n      add\n      mload\n        /* \"hopium/etf/main/etf-oracle.sol\":4666:4690  snap[i].tokenValueWeth18 */\n      0xa0\n      add\n      mload\n        /* \"hopium/etf/main/etf-oracle.sol\":4648:4665  _convertWethToUsd */\n      tag_84\n        /* \"hopium/etf/main/etf-oracle.sol\":4648:4691  _convertWethToUsd(snap[i].tokenValueWeth18) */\n      jump\t// in\n    tag_281:\n        /* \"hopium/etf/main/etf-oracle.sol\":4128:4710  SnapshotWithUsd({... */\n      dup2\n      mstore\n      pop\n        /* \"hopium/etf/main/etf-oracle.sol\":4121:4122  s */\n      dup8\n        /* \"hopium/etf/main/etf-oracle.sol\":4123:4124  i */\n      dup3\n        /* \"hopium/etf/main/etf-oracle.sol\":4121:4125  s[i] */\n      dup2\n      mload\n      dup2\n      lt\n      tag_284\n      jumpi\n      tag_285\n      tag_209\n      jump\t// in\n    tag_285:\n    tag_284:\n      0x20\n      mul\n      0x20\n      add\n      add\n        /* \"hopium/etf/main/etf-oracle.sol\":4121:4710  s[i] = SnapshotWithUsd({... */\n      dup2\n      swap1\n      mstore\n      pop\n        /* \"hopium/etf/main/etf-oracle.sol\":4098:4101  ++i */\n      dup1\n      0x01\n      add\n      swap1\n      pop\n        /* \"hopium/etf/main/etf-oracle.sol\":4071:4725  for (uint256 i = 0; i < n; ++i) {... */\n      jump(tag_263)\n    tag_264:\n      pop\n        /* \"hopium/etf/main/etf-oracle.sol\":3801:4741  {... */\n      pop\n      pop\n      pop\n        /* \"hopium/etf/main/etf-oracle.sol\":3618:4741  function _snapshotVaultWithUsd(Etf memory etf, address etfVault)... */\n      swap3\n      pop\n      swap3\n      pop\n      swap3\n      jump\t// out\n        /* \"hopium/common/interface/imDirectory.sol\":589:1050  function _setDirectory(address _directory) internal {... */\n    tag_150:\n        /* \"hopium/common/interface/imDirectory.sol\":681:682  0 */\n      0x00\n        /* \"hopium/common/interface/imDirectory.sol\":659:683  _directory != address(0) */\n      0xffffffffffffffffffffffffffffffffffffffff\n      and\n        /* \"hopium/common/interface/imDirectory.sol\":659:669  _directory */\n      dup2\n        /* \"hopium/common/interface/imDirectory.sol\":659:683  _directory != address(0) */\n      0xffffffffffffffffffffffffffffffffffffffff\n      and\n      sub\n        /* \"hopium/common/interface/imDirectory.sol\":651:720  require(_directory != address(0), \"Directory cannot be zero address\") */\n      tag_287\n      jumpi\n      mload(0x40)\n      0x08c379a000000000000000000000000000000000000000000000000000000000\n      dup2\n      mstore\n      0x04\n      add\n      tag_288\n      swap1\n      tag_289\n      jump\t// in\n    tag_288:\n      mload(0x40)\n      dup1\n      swap2\n      sub\n      swap1\n      revert\n    tag_287:\n        /* \"hopium/common/interface/imDirectory.sol\":763:764  0 */\n      0x00\n        /* \"hopium/common/interface/imDirectory.sol\":738:748  _directory */\n      dup2\n        /* \"hopium/common/interface/imDirectory.sol\":738:760  _directory.code.length */\n      0xffffffffffffffffffffffffffffffffffffffff\n      and\n      extcodesize\n        /* \"hopium/common/interface/imDirectory.sol\":738:764  _directory.code.length > 0 */\n      gt\n        /* \"hopium/common/interface/imDirectory.sol\":730:797  require(_directory.code.length > 0, \"Directory must be a contract\") */\n      tag_290\n      jumpi\n      mload(0x40)\n      0x08c379a000000000000000000000000000000000000000000000000000000000\n      dup2\n      mstore\n      0x04\n      add\n      tag_291\n      swap1\n      tag_292\n      jump\t// in\n    tag_291:\n      mload(0x40)\n      dup1\n      swap2\n      sub\n      swap1\n      revert\n    tag_290:\n        /* \"hopium/common/interface/imDirectory.sol\":861:871  _directory */\n      dup1\n        /* \"hopium/common/interface/imDirectory.sol\":850:878  IDirectory(_directory).owner */\n      0xffffffffffffffffffffffffffffffffffffffff\n      and\n      0x8da5cb5b\n        /* \"hopium/common/interface/imDirectory.sol\":850:880  IDirectory(_directory).owner() */\n      mload(0x40)\n      dup2\n      0xffffffff\n      and\n      0xe0\n      shl\n      dup2\n      mstore\n      0x04\n      add\n      0x20\n      mload(0x40)\n      dup1\n      dup4\n      sub\n      dup2\n      dup7\n      gas\n      staticcall\n      swap3\n      pop\n      pop\n      pop\n      dup1\n      iszero\n      tag_293\n      jumpi\n      pop\n      mload(0x40)\n      returndatasize\n      not(0x1f)\n      0x1f\n      dup3\n      add\n      and\n      dup3\n      add\n      dup1\n      0x40\n      mstore\n      pop\n      dup2\n      add\n      swap1\n      tag_294\n      swap2\n      swap1\n      tag_109\n      jump\t// in\n    tag_294:\n      0x01\n    tag_293:\n        /* \"hopium/common/interface/imDirectory.sol\":846:1044  try IDirectory(_directory).owner() returns (address) {... */\n      tag_295\n      jumpi\n        /* \"hopium/common/interface/imDirectory.sol\":979:1033  revert(\"Directory address does not implement owner()\") */\n      mload(0x40)\n      0x08c379a000000000000000000000000000000000000000000000000000000000\n      dup2\n      mstore\n      0x04\n      add\n      tag_299\n      swap1\n      tag_300\n      jump\t// in\n    tag_299:\n      mload(0x40)\n      dup1\n      swap2\n      sub\n      swap1\n      revert\n        /* \"hopium/common/interface/imDirectory.sol\":846:1044  try IDirectory(_directory).owner() returns (address) {... */\n    tag_295:\n        /* \"hopium/common/interface/imDirectory.sol\":936:946  _directory */\n      dup2\n        /* \"hopium/common/interface/imDirectory.sol\":913:922  Directory */\n      0x00\n      0x00\n        /* \"hopium/common/interface/imDirectory.sol\":913:947  Directory = IDirectory(_directory) */\n      0x0100\n      exp\n      dup2\n      sload\n      dup2\n      0xffffffffffffffffffffffffffffffffffffffff\n      mul\n      not\n      and\n      swap1\n      dup4\n      0xffffffffffffffffffffffffffffffffffffffff\n      and\n      mul\n      or\n      swap1\n      sstore\n      pop\n        /* \"hopium/common/interface/imDirectory.sol\":881:958  returns (address) {... */\n      pop\n        /* \"hopium/common/interface/imDirectory.sol\":589:1050  function _setDirectory(address _directory) internal {... */\n      pop\n      jump\t// out\n        /* \"hopium/etf/main/etf-oracle.sol\":4860:5592  function _getEtfInitialPrice(Etf memory etf) internal view returns (uint256 priceWeth18) {... */\n    tag_178:\n        /* \"hopium/etf/main/etf-oracle.sol\":4928:4947  uint256 priceWeth18 */\n      0x00\n        /* \"hopium/etf/main/etf-oracle.sol\":4959:4970  uint256 sum */\n      0x00\n        /* \"hopium/etf/main/etf-oracle.sol\":4997:5018  IUniswapOracle oracle */\n      0x00\n        /* \"hopium/etf/main/etf-oracle.sol\":5021:5039  getUniswapOracle() */\n      tag_303\n        /* \"hopium/etf/main/etf-oracle.sol\":5021:5037  getUniswapOracle */\n      tag_189\n        /* \"hopium/etf/main/etf-oracle.sol\":5021:5039  getUniswapOracle() */\n      jump\t// in\n    tag_303:\n        /* \"hopium/etf/main/etf-oracle.sol\":4997:5039  IUniswapOracle oracle = getUniswapOracle() */\n      swap1\n      pop\n        /* \"hopium/etf/main/etf-oracle.sol\":5079:5088  uint256 i */\n      0x00\n        /* \"hopium/etf/main/etf-oracle.sol\":5091:5092  0 */\n      0x00\n        /* \"hopium/etf/main/etf-oracle.sol\":5079:5092  uint256 i = 0 */\n      swap1\n      pop\n        /* \"hopium/etf/main/etf-oracle.sol\":5074:5468  for (uint256 i = 0; i < etf.assets.length; ++i) {... */\n    tag_304:\n        /* \"hopium/etf/main/etf-oracle.sol\":5098:5101  etf */\n      dup5\n        /* \"hopium/etf/main/etf-oracle.sol\":5098:5108  etf.assets */\n      0x40\n      add\n      mload\n        /* \"hopium/etf/main/etf-oracle.sol\":5098:5115  etf.assets.length */\n      mload\n        /* \"hopium/etf/main/etf-oracle.sol\":5094:5095  i */\n      dup2\n        /* \"hopium/etf/main/etf-oracle.sol\":5094:5115  i < etf.assets.length */\n      lt\n        /* \"hopium/etf/main/etf-oracle.sol\":5074:5468  for (uint256 i = 0; i < etf.assets.length; ++i) {... */\n      iszero\n      tag_305\n      jumpi\n        /* \"hopium/etf/main/etf-oracle.sol\":5140:5153  address token */\n      0x00\n        /* \"hopium/etf/main/etf-oracle.sol\":5156:5159  etf */\n      dup6\n        /* \"hopium/etf/main/etf-oracle.sol\":5156:5166  etf.assets */\n      0x40\n      add\n      mload\n        /* \"hopium/etf/main/etf-oracle.sol\":5167:5168  i */\n      dup3\n        /* \"hopium/etf/main/etf-oracle.sol\":5156:5169  etf.assets[i] */\n      dup2\n      mload\n      dup2\n      lt\n      tag_307\n      jumpi\n      tag_308\n      tag_209\n      jump\t// in\n    tag_308:\n    tag_307:\n      0x20\n      mul\n      0x20\n      add\n      add\n      mload\n        /* \"hopium/etf/main/etf-oracle.sol\":5156:5182  etf.assets[i].tokenAddress */\n      0x00\n      add\n      mload\n        /* \"hopium/etf/main/etf-oracle.sol\":5140:5182  address token = etf.assets[i].tokenAddress */\n      swap1\n      pop\n        /* \"hopium/etf/main/etf-oracle.sol\":5200:5213  uint16  wBips */\n      0x00\n        /* \"hopium/etf/main/etf-oracle.sol\":5216:5219  etf */\n      dup7\n        /* \"hopium/etf/main/etf-oracle.sol\":5216:5226  etf.assets */\n      0x40\n      add\n      mload\n        /* \"hopium/etf/main/etf-oracle.sol\":5227:5228  i */\n      dup4\n        /* \"hopium/etf/main/etf-oracle.sol\":5216:5229  etf.assets[i] */\n      dup2\n      mload\n      dup2\n      lt\n      tag_309\n      jumpi\n      tag_310\n      tag_209\n      jump\t// in\n    tag_310:\n    tag_309:\n      0x20\n      mul\n      0x20\n      add\n      add\n      mload\n        /* \"hopium/etf/main/etf-oracle.sol\":5216:5240  etf.assets[i].weightBips */\n      0x20\n      add\n      mload\n        /* \"hopium/etf/main/etf-oracle.sol\":5200:5240  uint16  wBips = etf.assets[i].weightBips */\n      swap1\n      pop\n        /* \"hopium/etf/main/etf-oracle.sol\":5314:5323  uint256 p */\n      0x00\n        /* \"hopium/etf/main/etf-oracle.sol\":5326:5332  oracle */\n      dup5\n        /* \"hopium/etf/main/etf-oracle.sol\":5326:5350  oracle.getTokenWethPrice */\n      0xffffffffffffffffffffffffffffffffffffffff\n      and\n      0x7b49b49d\n        /* \"hopium/etf/main/etf-oracle.sol\":5351:5356  token */\n      dup5\n        /* \"hopium/etf/main/etf-oracle.sol\":5326:5357  oracle.getTokenWethPrice(token) */\n      mload(0x40)\n      dup3\n      0xffffffff\n      and\n      0xe0\n      shl\n      dup2\n      mstore\n      0x04\n      add\n      tag_311\n      swap2\n      swap1\n      tag_37\n      jump\t// in\n    tag_311:\n      0x20\n      mload(0x40)\n      dup1\n      dup4\n      sub\n      dup2\n      dup7\n      gas\n      staticcall\n      iszero\n      dup1\n      iszero\n      tag_313\n      jumpi\n      returndatacopy(0x00, 0x00, returndatasize)\n      revert(0x00, returndatasize)\n    tag_313:\n      pop\n      pop\n      pop\n      pop\n      mload(0x40)\n      returndatasize\n      not(0x1f)\n      0x1f\n      dup3\n      add\n      and\n      dup3\n      add\n      dup1\n      0x40\n      mstore\n      pop\n      dup2\n      add\n      swap1\n      tag_314\n      swap2\n      swap1\n      tag_171\n      jump\t// in\n    tag_314:\n        /* \"hopium/etf/main/etf-oracle.sol\":5314:5357  uint256 p = oracle.getTokenWethPrice(token) */\n      swap1\n      pop\n        /* \"hopium/etf/main/etf-oracle.sol\":5384:5385  0 */\n      0x00\n        /* \"hopium/etf/main/etf-oracle.sol\":5379:5380  p */\n      dup2\n        /* \"hopium/etf/main/etf-oracle.sol\":5379:5385  p == 0 */\n      eq\n        /* \"hopium/etf/main/etf-oracle.sol\":5379:5399  p == 0 || wBips == 0 */\n      dup1\n      tag_315\n      jumpi\n      pop\n        /* \"hopium/etf/main/etf-oracle.sol\":5398:5399  0 */\n      0x00\n        /* \"hopium/etf/main/etf-oracle.sol\":5389:5394  wBips */\n      dup3\n        /* \"hopium/etf/main/etf-oracle.sol\":5389:5399  wBips == 0 */\n      0xffff\n      and\n      eq\n        /* \"hopium/etf/main/etf-oracle.sol\":5379:5399  p == 0 || wBips == 0 */\n    tag_315:\n        /* \"hopium/etf/main/etf-oracle.sol\":5375:5409  if (p == 0 || wBips == 0) continue */\n      iszero\n      tag_316\n      jumpi\n        /* \"hopium/etf/main/etf-oracle.sol\":5401:5409  continue */\n      pop\n      pop\n      pop\n      jump(tag_306)\n        /* \"hopium/etf/main/etf-oracle.sol\":5375:5409  if (p == 0 || wBips == 0) continue */\n    tag_316:\n        /* \"hopium/etf/main/etf-oracle.sol\":5452:5453  p */\n      dup1\n        /* \"hopium/etf/main/etf-oracle.sol\":5443:5448  wBips */\n      dup3\n        /* \"hopium/etf/main/etf-oracle.sol\":5435:5449  uint256(wBips) */\n      0xffff\n      and\n        /* \"hopium/etf/main/etf-oracle.sol\":5435:5453  uint256(wBips) * p */\n      mul\n        /* \"hopium/etf/main/etf-oracle.sol\":5428:5453  sum += uint256(wBips) * p */\n      dup7\n      add\n      swap6\n      pop\n        /* \"hopium/etf/main/etf-oracle.sol\":5122:5468  {... */\n      pop\n      pop\n      pop\n        /* \"hopium/etf/main/etf-oracle.sol\":5074:5468  for (uint256 i = 0; i < etf.assets.length; ++i) {... */\n    tag_306:\n        /* \"hopium/etf/main/etf-oracle.sol\":5117:5120  ++i */\n      dup1\n      0x01\n      add\n      swap1\n      pop\n        /* \"hopium/etf/main/etf-oracle.sol\":5074:5468  for (uint256 i = 0; i < etf.assets.length; ++i) {... */\n      jump(tag_304)\n    tag_305:\n      pop\n        /* \"hopium/common/types/bips.sol\":97:103  10_000 */\n      0x2710\n        /* \"hopium/etf/main/etf-oracle.sol\":5559:5562  sum */\n      dup3\n        /* \"hopium/etf/main/etf-oracle.sol\":5559:5585  sum / HUNDRED_PERCENT_BIPS */\n      tag_317\n      swap2\n      swap1\n      tag_318\n      jump\t// in\n    tag_317:\n        /* \"hopium/etf/main/etf-oracle.sol\":5552:5585  return sum / HUNDRED_PERCENT_BIPS */\n      swap3\n      pop\n      pop\n      pop\n        /* \"hopium/etf/main/etf-oracle.sol\":4860:5592  function _getEtfInitialPrice(Etf memory etf) internal view returns (uint256 priceWeth18) {... */\n      swap2\n      swap1\n      pop\n      jump\t// out\n        /* \"hopium/etf/main/etf-oracle.sol\":917:1328  function _scaleTo1e18(uint256 amount, uint8 decimals) internal pure returns (uint256) {... */\n    tag_180:\n        /* \"hopium/etf/main/etf-oracle.sol\":994:1001  uint256 */\n      0x00\n        /* \"hopium/etf/main/etf-oracle.sol\":1029:1031  18 */\n      0x12\n        /* \"hopium/etf/main/etf-oracle.sol\":1017:1025  decimals */\n      dup3\n        /* \"hopium/etf/main/etf-oracle.sol\":1017:1031  decimals == 18 */\n      0xff\n      and\n      sub\n        /* \"hopium/etf/main/etf-oracle.sol\":1013:1046  if (decimals == 18) return amount */\n      tag_320\n      jumpi\n        /* \"hopium/etf/main/etf-oracle.sol\":1040:1046  amount */\n      dup3\n        /* \"hopium/etf/main/etf-oracle.sol\":1033:1046  return amount */\n      swap1\n      pop\n      jump(tag_319)\n        /* \"hopium/etf/main/etf-oracle.sol\":1013:1046  if (decimals == 18) return amount */\n    tag_320:\n        /* \"hopium/etf/main/etf-oracle.sol\":1071:1073  18 */\n      0x12\n        /* \"hopium/etf/main/etf-oracle.sol\":1060:1068  decimals */\n      dup3\n        /* \"hopium/etf/main/etf-oracle.sol\":1060:1073  decimals < 18 */\n      0xff\n      and\n      lt\n        /* \"hopium/etf/main/etf-oracle.sol\":1056:1322  if (decimals < 18) {... */\n      iszero\n      tag_321\n      jumpi\n        /* \"hopium/etf/main/etf-oracle.sol\":1134:1180  FullMath.mulDiv(amount, WAD, _pow10(decimals)) */\n      tag_322\n        /* \"hopium/etf/main/etf-oracle.sol\":1150:1156  amount */\n      dup4\n        /* \"hopium/etf/main/etf-oracle.sol\":494:498  1e18 */\n      0x0de0b6b3a7640000\n        /* \"hopium/etf/main/etf-oracle.sol\":1163:1179  _pow10(decimals) */\n      tag_323\n        /* \"hopium/etf/main/etf-oracle.sol\":1170:1178  decimals */\n      dup6\n        /* \"hopium/etf/main/etf-oracle.sol\":1163:1169  _pow10 */\n      tag_324\n        /* \"hopium/etf/main/etf-oracle.sol\":1163:1179  _pow10(decimals) */\n      jump\t// in\n    tag_323:\n        /* \"hopium/etf/main/etf-oracle.sol\":1134:1149  FullMath.mulDiv */\n      tag_185\n        /* \"hopium/etf/main/etf-oracle.sol\":1134:1180  FullMath.mulDiv(amount, WAD, _pow10(decimals)) */\n      jump\t// in\n    tag_322:\n        /* \"hopium/etf/main/etf-oracle.sol\":1127:1180  return FullMath.mulDiv(amount, WAD, _pow10(decimals)) */\n      swap1\n      pop\n      jump(tag_319)\n        /* \"hopium/etf/main/etf-oracle.sol\":1056:1322  if (decimals < 18) {... */\n    tag_321:\n        /* \"hopium/etf/main/etf-oracle.sol\":1290:1311  _pow10(decimals - 18) */\n      tag_326\n        /* \"hopium/etf/main/etf-oracle.sol\":1308:1310  18 */\n      0x12\n        /* \"hopium/etf/main/etf-oracle.sol\":1297:1305  decimals */\n      dup4\n        /* \"hopium/etf/main/etf-oracle.sol\":1297:1310  decimals - 18 */\n      tag_327\n      swap2\n      swap1\n      tag_328\n      jump\t// in\n    tag_327:\n        /* \"hopium/etf/main/etf-oracle.sol\":1290:1296  _pow10 */\n      tag_324\n        /* \"hopium/etf/main/etf-oracle.sol\":1290:1311  _pow10(decimals - 18) */\n      jump\t// in\n    tag_326:\n        /* \"hopium/etf/main/etf-oracle.sol\":1281:1287  amount */\n      dup4\n        /* \"hopium/etf/main/etf-oracle.sol\":1281:1311  amount / _pow10(decimals - 18) */\n      tag_329\n      swap2\n      swap1\n      tag_318\n      jump\t// in\n    tag_329:\n        /* \"hopium/etf/main/etf-oracle.sol\":1274:1311  return amount / _pow10(decimals - 18) */\n      swap1\n      pop\n        /* \"hopium/etf/main/etf-oracle.sol\":917:1328  function _scaleTo1e18(uint256 amount, uint8 decimals) internal pure returns (uint256) {... */\n    tag_319:\n      swap3\n      swap2\n      pop\n      pop\n      jump\t// out\n        /* \"hopium/etf/main/etf-oracle.sol\":6803:7735  function _getEtfTvlWeth(Etf memory etf, address etfVault) internal view returns (uint256 totalWethValue18) {... */\n    tag_183:\n        /* \"hopium/etf/main/etf-oracle.sol\":6884:6908  uint256 totalWethValue18 */\n      0x00\n        /* \"hopium/etf/main/etf-oracle.sol\":6920:6941  IUniswapOracle oracle */\n      0x00\n        /* \"hopium/etf/main/etf-oracle.sol\":6944:6962  getUniswapOracle() */\n      tag_331\n        /* \"hopium/etf/main/etf-oracle.sol\":6944:6960  getUniswapOracle */\n      tag_189\n        /* \"hopium/etf/main/etf-oracle.sol\":6944:6962  getUniswapOracle() */\n      jump\t// in\n    tag_331:\n        /* \"hopium/etf/main/etf-oracle.sol\":6920:6962  IUniswapOracle oracle = getUniswapOracle() */\n      swap1\n      pop\n        /* \"hopium/etf/main/etf-oracle.sol\":7058:7067  uint256 i */\n      0x00\n        /* \"hopium/etf/main/etf-oracle.sol\":7070:7071  0 */\n      0x00\n        /* \"hopium/etf/main/etf-oracle.sol\":7058:7071  uint256 i = 0 */\n      swap1\n      pop\n        /* \"hopium/etf/main/etf-oracle.sol\":7053:7719  for (uint256 i = 0; i < etf.assets.length; ++i) {... */\n    tag_332:\n        /* \"hopium/etf/main/etf-oracle.sol\":7077:7080  etf */\n      dup5\n        /* \"hopium/etf/main/etf-oracle.sol\":7077:7087  etf.assets */\n      0x40\n      add\n      mload\n        /* \"hopium/etf/main/etf-oracle.sol\":7077:7094  etf.assets.length */\n      mload\n        /* \"hopium/etf/main/etf-oracle.sol\":7073:7074  i */\n      dup2\n        /* \"hopium/etf/main/etf-oracle.sol\":7073:7094  i < etf.assets.length */\n      lt\n        /* \"hopium/etf/main/etf-oracle.sol\":7053:7719  for (uint256 i = 0; i < etf.assets.length; ++i) {... */\n      iszero\n      tag_333\n      jumpi\n        /* \"hopium/etf/main/etf-oracle.sol\":7119:7132  address token */\n      0x00\n        /* \"hopium/etf/main/etf-oracle.sol\":7135:7138  etf */\n      dup6\n        /* \"hopium/etf/main/etf-oracle.sol\":7135:7145  etf.assets */\n      0x40\n      add\n      mload\n        /* \"hopium/etf/main/etf-oracle.sol\":7146:7147  i */\n      dup3\n        /* \"hopium/etf/main/etf-oracle.sol\":7135:7148  etf.assets[i] */\n      dup2\n      mload\n      dup2\n      lt\n      tag_335\n      jumpi\n      tag_336\n      tag_209\n      jump\t// in\n    tag_336:\n    tag_335:\n      0x20\n      mul\n      0x20\n      add\n      add\n      mload\n        /* \"hopium/etf/main/etf-oracle.sol\":7135:7161  etf.assets[i].tokenAddress */\n      0x00\n      add\n      mload\n        /* \"hopium/etf/main/etf-oracle.sol\":7119:7161  address token = etf.assets[i].tokenAddress */\n      swap1\n      pop\n        /* \"hopium/etf/main/etf-oracle.sol\":7180:7191  uint256 bal */\n      0x00\n        /* \"hopium/etf/main/etf-oracle.sol\":7201:7206  token */\n      dup2\n        /* \"hopium/etf/main/etf-oracle.sol\":7194:7217  IERC20(token).balanceOf */\n      0xffffffffffffffffffffffffffffffffffffffff\n      and\n      0x70a08231\n        /* \"hopium/etf/main/etf-oracle.sol\":7218:7226  etfVault */\n      dup8\n        /* \"hopium/etf/main/etf-oracle.sol\":7194:7227  IERC20(token).balanceOf(etfVault) */\n      mload(0x40)\n      dup3\n      0xffffffff\n      and\n      0xe0\n      shl\n      dup2\n      mstore\n      0x04\n      add\n      tag_337\n      swap2\n      swap1\n      tag_37\n      jump\t// in\n    tag_337:\n      0x20\n      mload(0x40)\n      dup1\n      dup4\n      sub\n      dup2\n      dup7\n      gas\n      staticcall\n      iszero\n      dup1\n      iszero\n      tag_339\n      jumpi\n      returndatacopy(0x00, 0x00, returndatasize)\n      revert(0x00, returndatasize)\n    tag_339:\n      pop\n      pop\n      pop\n      pop\n      mload(0x40)\n      returndatasize\n      not(0x1f)\n      0x1f\n      dup3\n      add\n      and\n      dup3\n      add\n      dup1\n      0x40\n      mstore\n      pop\n      dup2\n      add\n      swap1\n      tag_340\n      swap2\n      swap1\n      tag_171\n      jump\t// in\n    tag_340:\n        /* \"hopium/etf/main/etf-oracle.sol\":7180:7227  uint256 bal = IERC20(token).balanceOf(etfVault) */\n      swap1\n      pop\n        /* \"hopium/etf/main/etf-oracle.sol\":7269:7270  0 */\n      0x00\n        /* \"hopium/etf/main/etf-oracle.sol\":7262:7265  bal */\n      dup2\n        /* \"hopium/etf/main/etf-oracle.sol\":7262:7270  bal == 0 */\n      sub\n        /* \"hopium/etf/main/etf-oracle.sol\":7258:7280  if (bal == 0) continue */\n      tag_341\n      jumpi\n        /* \"hopium/etf/main/etf-oracle.sol\":7272:7280  continue */\n      pop\n      pop\n      jump(tag_334)\n        /* \"hopium/etf/main/etf-oracle.sol\":7258:7280  if (bal == 0) continue */\n    tag_341:\n        /* \"hopium/etf/main/etf-oracle.sol\":7348:7370  uint256 wethPerToken18 */\n      0x00\n        /* \"hopium/etf/main/etf-oracle.sol\":7373:7379  oracle */\n      dup5\n        /* \"hopium/etf/main/etf-oracle.sol\":7373:7397  oracle.getTokenWethPrice */\n      0xffffffffffffffffffffffffffffffffffffffff\n      and\n      0x7b49b49d\n        /* \"hopium/etf/main/etf-oracle.sol\":7398:7403  token */\n      dup5\n        /* \"hopium/etf/main/etf-oracle.sol\":7373:7404  oracle.getTokenWethPrice(token) */\n      mload(0x40)\n      dup3\n      0xffffffff\n      and\n      0xe0\n      shl\n      dup2\n      mstore\n      0x04\n      add\n      tag_342\n      swap2\n      swap1\n      tag_37\n      jump\t// in\n    tag_342:\n      0x20\n      mload(0x40)\n      dup1\n      dup4\n      sub\n      dup2\n      dup7\n      gas\n      staticcall\n      iszero\n      dup1\n      iszero\n      tag_344\n      jumpi\n      returndatacopy(0x00, 0x00, returndatasize)\n      revert(0x00, returndatasize)\n    tag_344:\n      pop\n      pop\n      pop\n      pop\n      mload(0x40)\n      returndatasize\n      not(0x1f)\n      0x1f\n      dup3\n      add\n      and\n      dup3\n      add\n      dup1\n      0x40\n      mstore\n      pop\n      dup2\n      add\n      swap1\n      tag_345\n      swap2\n      swap1\n      tag_171\n      jump\t// in\n    tag_345:\n        /* \"hopium/etf/main/etf-oracle.sol\":7348:7404  uint256 wethPerToken18 = oracle.getTokenWethPrice(token) */\n      swap1\n      pop\n        /* \"hopium/etf/main/etf-oracle.sol\":7444:7445  0 */\n      0x00\n        /* \"hopium/etf/main/etf-oracle.sol\":7426:7440  wethPerToken18 */\n      dup2\n        /* \"hopium/etf/main/etf-oracle.sol\":7426:7445  wethPerToken18 == 0 */\n      sub\n        /* \"hopium/etf/main/etf-oracle.sol\":7422:7455  if (wethPerToken18 == 0) continue */\n      tag_346\n      jumpi\n        /* \"hopium/etf/main/etf-oracle.sol\":7447:7455  continue */\n      pop\n      pop\n      pop\n      jump(tag_334)\n        /* \"hopium/etf/main/etf-oracle.sol\":7422:7455  if (wethPerToken18 == 0) continue */\n    tag_346:\n        /* \"hopium/etf/main/etf-oracle.sol\":7533:7542  uint8 dec */\n      0x00\n        /* \"hopium/etf/main/etf-oracle.sol\":7560:7565  token */\n      dup4\n        /* \"hopium/etf/main/etf-oracle.sol\":7545:7575  IERC20Metadata(token).decimals */\n      0xffffffffffffffffffffffffffffffffffffffff\n      and\n      0x313ce567\n        /* \"hopium/etf/main/etf-oracle.sol\":7545:7577  IERC20Metadata(token).decimals() */\n      mload(0x40)\n      dup2\n      0xffffffff\n      and\n      0xe0\n      shl\n      dup2\n      mstore\n      0x04\n      add\n      0x20\n      mload(0x40)\n      dup1\n      dup4\n      sub\n      dup2\n      dup7\n      gas\n      staticcall\n      iszero\n      dup1\n      iszero\n      tag_348\n      jumpi\n      returndatacopy(0x00, 0x00, returndatasize)\n      revert(0x00, returndatasize)\n    tag_348:\n      pop\n      pop\n      pop\n      pop\n      mload(0x40)\n      returndatasize\n      not(0x1f)\n      0x1f\n      dup3\n      add\n      and\n      dup3\n      add\n      dup1\n      0x40\n      mstore\n      pop\n      dup2\n      add\n      swap1\n      tag_349\n      swap2\n      swap1\n      tag_175\n      jump\t// in\n    tag_349:\n        /* \"hopium/etf/main/etf-oracle.sol\":7533:7577  uint8 dec = IERC20Metadata(token).decimals() */\n      swap1\n      pop\n        /* \"hopium/etf/main/etf-oracle.sol\":7595:7608  uint256 denom */\n      0x00\n        /* \"hopium/etf/main/etf-oracle.sol\":7611:7622  _pow10(dec) */\n      tag_350\n        /* \"hopium/etf/main/etf-oracle.sol\":7618:7621  dec */\n      dup3\n        /* \"hopium/etf/main/etf-oracle.sol\":7611:7617  _pow10 */\n      tag_324\n        /* \"hopium/etf/main/etf-oracle.sol\":7611:7622  _pow10(dec) */\n      jump\t// in\n    tag_350:\n        /* \"hopium/etf/main/etf-oracle.sol\":7595:7622  uint256 denom = _pow10(dec) */\n      swap1\n      pop\n        /* \"hopium/etf/main/etf-oracle.sol\":7661:7704  FullMath.mulDiv(bal, wethPerToken18, denom) */\n      tag_351\n        /* \"hopium/etf/main/etf-oracle.sol\":7677:7680  bal */\n      dup5\n        /* \"hopium/etf/main/etf-oracle.sol\":7682:7696  wethPerToken18 */\n      dup5\n        /* \"hopium/etf/main/etf-oracle.sol\":7698:7703  denom */\n      dup4\n        /* \"hopium/etf/main/etf-oracle.sol\":7661:7676  FullMath.mulDiv */\n      tag_185\n        /* \"hopium/etf/main/etf-oracle.sol\":7661:7704  FullMath.mulDiv(bal, wethPerToken18, denom) */\n      jump\t// in\n    tag_351:\n        /* \"hopium/etf/main/etf-oracle.sol\":7641:7704  totalWethValue18 += FullMath.mulDiv(bal, wethPerToken18, denom) */\n      dup9\n      add\n      swap8\n      pop\n        /* \"hopium/etf/main/etf-oracle.sol\":7101:7719  {... */\n      pop\n      pop\n      pop\n      pop\n      pop\n        /* \"hopium/etf/main/etf-oracle.sol\":7053:7719  for (uint256 i = 0; i < etf.assets.length; ++i) {... */\n    tag_334:\n        /* \"hopium/etf/main/etf-oracle.sol\":7096:7099  ++i */\n      dup1\n      0x01\n      add\n      swap1\n      pop\n        /* \"hopium/etf/main/etf-oracle.sol\":7053:7719  for (uint256 i = 0; i < etf.assets.length; ++i) {... */\n      jump(tag_332)\n    tag_333:\n      pop\n        /* \"hopium/etf/main/etf-oracle.sol\":6910:7735  {... */\n      pop\n        /* \"hopium/etf/main/etf-oracle.sol\":6803:7735  function _getEtfTvlWeth(Etf memory etf, address etfVault) internal view returns (uint256 totalWethValue18) {... */\n      swap3\n      swap2\n      pop\n      pop\n      jump\t// out\n        /* \"hopium/common/lib/full-math.sol\":285:2708  function mulDiv(... */\n    tag_185:\n        /* \"hopium/common/lib/full-math.sol\":397:411  uint256 result */\n      0x00\n        /* \"hopium/common/lib/full-math.sol\":501:514  uint256 prod0 */\n      0x00\n        /* \"hopium/common/lib/full-math.sol\":558:571  uint256 prod1 */\n      0x00\n        /* \"hopium/common/lib/full-math.sol\":668:669  0 */\n      0x00\n        /* \"hopium/common/lib/full-math.sol\":664:670  not(0) */\n      not\n        /* \"hopium/common/lib/full-math.sol\":661:662  b */\n      dup6\n        /* \"hopium/common/lib/full-math.sol\":658:659  a */\n      dup8\n        /* \"hopium/common/lib/full-math.sol\":651:671  mulmod(a, b, not(0)) */\n      mulmod\n        /* \"hopium/common/lib/full-math.sol\":704:705  b */\n      dup6\n        /* \"hopium/common/lib/full-math.sol\":701:702  a */\n      dup8\n        /* \"hopium/common/lib/full-math.sol\":697:706  mul(a, b) */\n      mul\n        /* \"hopium/common/lib/full-math.sol\":688:706  prod0 := mul(a, b) */\n      swap3\n      pop\n        /* \"hopium/common/lib/full-math.sol\":759:764  prod0 */\n      dup3\n        /* \"hopium/common/lib/full-math.sol\":755:757  mm */\n      dup2\n        /* \"hopium/common/lib/full-math.sol\":752:765  lt(mm, prod0) */\n      lt\n        /* \"hopium/common/lib/full-math.sol\":744:749  prod0 */\n      dup4\n        /* \"hopium/common/lib/full-math.sol\":740:742  mm */\n      dup3\n        /* \"hopium/common/lib/full-math.sol\":736:750  sub(mm, prod0) */\n      sub\n        /* \"hopium/common/lib/full-math.sol\":732:766  sub(sub(mm, prod0), lt(mm, prod0)) */\n      sub\n        /* \"hopium/common/lib/full-math.sol\":723:766  prod1 := sub(sub(mm, prod0), lt(mm, prod0)) */\n      swap2\n      pop\n        /* \"hopium/common/lib/full-math.sol\":623:780  {... */\n      pop\n        /* \"hopium/common/lib/full-math.sol\":854:855  0 */\n      0x00\n        /* \"hopium/common/lib/full-math.sol\":845:850  prod1 */\n      dup2\n        /* \"hopium/common/lib/full-math.sol\":845:855  prod1 == 0 */\n      sub\n        /* \"hopium/common/lib/full-math.sol\":841:883  if (prod1 == 0) return prod0 / denominator */\n      tag_353\n      jumpi\n        /* \"hopium/common/lib/full-math.sol\":872:883  denominator */\n      dup4\n        /* \"hopium/common/lib/full-math.sol\":864:869  prod0 */\n      dup3\n        /* \"hopium/common/lib/full-math.sol\":864:883  prod0 / denominator */\n      dup2\n      tag_354\n      jumpi\n      tag_355\n      tag_235\n      jump\t// in\n    tag_355:\n    tag_354:\n      div\n        /* \"hopium/common/lib/full-math.sol\":857:883  return prod0 / denominator */\n      swap3\n      pop\n      pop\n      pop\n      jump(tag_352)\n        /* \"hopium/common/lib/full-math.sol\":841:883  if (prod1 == 0) return prod0 / denominator */\n    tag_353:\n        /* \"hopium/common/lib/full-math.sol\":920:925  prod1 */\n      dup1\n        /* \"hopium/common/lib/full-math.sol\":906:917  denominator */\n      dup5\n        /* \"hopium/common/lib/full-math.sol\":906:925  denominator > prod1 */\n      gt\n        /* \"hopium/common/lib/full-math.sol\":898:945  require(denominator > prod1, \"mulDiv overflow\") */\n      tag_356\n      jumpi\n      mload(0x40)\n      0x08c379a000000000000000000000000000000000000000000000000000000000\n      dup2\n      mstore\n      0x04\n      add\n      tag_357\n      swap1\n      tag_358\n      jump\t// in\n    tag_357:\n      mload(0x40)\n      dup1\n      swap2\n      sub\n      swap1\n      revert\n    tag_356:\n        /* \"hopium/common/lib/full-math.sol\":1138:1155  uint256 remainder */\n      0x00\n        /* \"hopium/common/lib/full-math.sol\":1222:1233  denominator */\n      dup5\n        /* \"hopium/common/lib/full-math.sol\":1219:1220  b */\n      dup7\n        /* \"hopium/common/lib/full-math.sol\":1216:1217  a */\n      dup9\n        /* \"hopium/common/lib/full-math.sol\":1209:1234  mulmod(a, b, denominator) */\n      mulmod\n        /* \"hopium/common/lib/full-math.sol\":1196:1234  remainder := mulmod(a, b, denominator) */\n      swap1\n      pop\n        /* \"hopium/common/lib/full-math.sol\":1285:1290  prod0 */\n      dup3\n        /* \"hopium/common/lib/full-math.sol\":1274:1283  remainder */\n      dup2\n        /* \"hopium/common/lib/full-math.sol\":1271:1291  gt(remainder, prod0) */\n      gt\n        /* \"hopium/common/lib/full-math.sol\":1264:1269  prod1 */\n      dup3\n        /* \"hopium/common/lib/full-math.sol\":1260:1292  sub(prod1, gt(remainder, prod0)) */\n      sub\n        /* \"hopium/common/lib/full-math.sol\":1251:1292  prod1 := sub(prod1, gt(remainder, prod0)) */\n      swap2\n      pop\n        /* \"hopium/common/lib/full-math.sol\":1329:1338  remainder */\n      dup1\n        /* \"hopium/common/lib/full-math.sol\":1322:1327  prod0 */\n      dup4\n        /* \"hopium/common/lib/full-math.sol\":1318:1339  sub(prod0, remainder) */\n      sub\n        /* \"hopium/common/lib/full-math.sol\":1309:1339  prod0 := sub(prod0, remainder) */\n      swap3\n      pop\n        /* \"hopium/common/lib/full-math.sol\":1543:1555  uint256 twos */\n      0x00\n        /* \"hopium/common/lib/full-math.sol\":1588:1589  1 */\n      0x01\n        /* \"hopium/common/lib/full-math.sol\":1574:1585  denominator */\n      dup7\n        /* \"hopium/common/lib/full-math.sol\":1573:1585  ~denominator */\n      not\n        /* \"hopium/common/lib/full-math.sol\":1573:1589  ~denominator + 1 */\n      add\n        /* \"hopium/common/lib/full-math.sol\":1558:1569  denominator */\n      dup7\n        /* \"hopium/common/lib/full-math.sol\":1558:1590  denominator & (~denominator + 1) */\n      and\n        /* \"hopium/common/lib/full-math.sol\":1543:1590  uint256 twos = denominator & (~denominator + 1) */\n      swap1\n      pop\n        /* \"hopium/common/lib/full-math.sol\":1663:1667  twos */\n      dup1\n        /* \"hopium/common/lib/full-math.sol\":1650:1661  denominator */\n      dup7\n        /* \"hopium/common/lib/full-math.sol\":1646:1668  div(denominator, twos) */\n      div\n        /* \"hopium/common/lib/full-math.sol\":1631:1668  denominator := div(denominator, twos) */\n      swap6\n      pop\n        /* \"hopium/common/lib/full-math.sol\":1705:1709  twos */\n      dup1\n        /* \"hopium/common/lib/full-math.sol\":1698:1703  prod0 */\n      dup5\n        /* \"hopium/common/lib/full-math.sol\":1694:1710  div(prod0, twos) */\n      div\n        /* \"hopium/common/lib/full-math.sol\":1685:1710  prod0 := div(prod0, twos) */\n      swap4\n      pop\n        /* \"hopium/common/lib/full-math.sol\":1764:1765  1 */\n      0x01\n        /* \"hopium/common/lib/full-math.sol\":1757:1761  twos */\n      dup2\n        /* \"hopium/common/lib/full-math.sol\":1750:1754  twos */\n      dup3\n        /* \"hopium/common/lib/full-math.sol\":1747:1748  0 */\n      0x00\n        /* \"hopium/common/lib/full-math.sol\":1743:1755  sub(0, twos) */\n      sub\n        /* \"hopium/common/lib/full-math.sol\":1739:1762  div(sub(0, twos), twos) */\n      div\n        /* \"hopium/common/lib/full-math.sol\":1735:1766  add(div(sub(0, twos), twos), 1) */\n      add\n        /* \"hopium/common/lib/full-math.sol\":1727:1766  twos := add(div(sub(0, twos), twos), 1) */\n      swap1\n      pop\n        /* \"hopium/common/lib/full-math.sol\":1856:1860  twos */\n      dup1\n        /* \"hopium/common/lib/full-math.sol\":1848:1853  prod1 */\n      dup4\n        /* \"hopium/common/lib/full-math.sol\":1848:1860  prod1 * twos */\n      mul\n        /* \"hopium/common/lib/full-math.sol\":1839:1860  prod0 |= prod1 * twos */\n      dup5\n      or\n      swap4\n      pop\n        /* \"hopium/common/lib/full-math.sol\":2064:2075  uint256 inv */\n      0x00\n        /* \"hopium/common/lib/full-math.sol\":2098:2099  2 */\n      0x02\n        /* \"hopium/common/lib/full-math.sol\":2083:2094  denominator */\n      dup8\n        /* \"hopium/common/lib/full-math.sol\":2079:2080  3 */\n      0x03\n        /* \"hopium/common/lib/full-math.sol\":2079:2094  3 * denominator */\n      mul\n        /* \"hopium/common/lib/full-math.sol\":2078:2099  (3 * denominator) ^ 2 */\n      xor\n        /* \"hopium/common/lib/full-math.sol\":2064:2099  uint256 inv = (3 * denominator) ^ 2 */\n      swap1\n      pop\n        /* \"hopium/common/lib/full-math.sol\":2138:2141  inv */\n      dup1\n        /* \"hopium/common/lib/full-math.sol\":2124:2135  denominator */\n      dup8\n        /* \"hopium/common/lib/full-math.sol\":2124:2141  denominator * inv */\n      mul\n        /* \"hopium/common/lib/full-math.sol\":2120:2121  2 */\n      0x02\n        /* \"hopium/common/lib/full-math.sol\":2120:2141  2 - denominator * inv */\n      sub\n        /* \"hopium/common/lib/full-math.sol\":2113:2141  inv *= 2 - denominator * inv */\n      dup2\n      mul\n      swap1\n      pop\n        /* \"hopium/common/lib/full-math.sol\":2200:2203  inv */\n      dup1\n        /* \"hopium/common/lib/full-math.sol\":2186:2197  denominator */\n      dup8\n        /* \"hopium/common/lib/full-math.sol\":2186:2203  denominator * inv */\n      mul\n        /* \"hopium/common/lib/full-math.sol\":2182:2183  2 */\n      0x02\n        /* \"hopium/common/lib/full-math.sol\":2182:2203  2 - denominator * inv */\n      sub\n        /* \"hopium/common/lib/full-math.sol\":2175:2203  inv *= 2 - denominator * inv */\n      dup2\n      mul\n      swap1\n      pop\n        /* \"hopium/common/lib/full-math.sol\":2256:2259  inv */\n      dup1\n        /* \"hopium/common/lib/full-math.sol\":2242:2253  denominator */\n      dup8\n        /* \"hopium/common/lib/full-math.sol\":2242:2259  denominator * inv */\n      mul\n        /* \"hopium/common/lib/full-math.sol\":2238:2239  2 */\n      0x02\n        /* \"hopium/common/lib/full-math.sol\":2238:2259  2 - denominator * inv */\n      sub\n        /* \"hopium/common/lib/full-math.sol\":2231:2259  inv *= 2 - denominator * inv */\n      dup2\n      mul\n      swap1\n      pop\n        /* \"hopium/common/lib/full-math.sol\":2311:2314  inv */\n      dup1\n        /* \"hopium/common/lib/full-math.sol\":2297:2308  denominator */\n      dup8\n        /* \"hopium/common/lib/full-math.sol\":2297:2314  denominator * inv */\n      mul\n        /* \"hopium/common/lib/full-math.sol\":2293:2294  2 */\n      0x02\n        /* \"hopium/common/lib/full-math.sol\":2293:2314  2 - denominator * inv */\n      sub\n        /* \"hopium/common/lib/full-math.sol\":2286:2314  inv *= 2 - denominator * inv */\n      dup2\n      mul\n      swap1\n      pop\n        /* \"hopium/common/lib/full-math.sol\":2368:2371  inv */\n      dup1\n        /* \"hopium/common/lib/full-math.sol\":2354:2365  denominator */\n      dup8\n        /* \"hopium/common/lib/full-math.sol\":2354:2371  denominator * inv */\n      mul\n        /* \"hopium/common/lib/full-math.sol\":2350:2351  2 */\n      0x02\n        /* \"hopium/common/lib/full-math.sol\":2350:2371  2 - denominator * inv */\n      sub\n        /* \"hopium/common/lib/full-math.sol\":2343:2371  inv *= 2 - denominator * inv */\n      dup2\n      mul\n      swap1\n      pop\n        /* \"hopium/common/lib/full-math.sol\":2426:2429  inv */\n      dup1\n        /* \"hopium/common/lib/full-math.sol\":2412:2423  denominator */\n      dup8\n        /* \"hopium/common/lib/full-math.sol\":2412:2429  denominator * inv */\n      mul\n        /* \"hopium/common/lib/full-math.sol\":2408:2409  2 */\n      0x02\n        /* \"hopium/common/lib/full-math.sol\":2408:2429  2 - denominator * inv */\n      sub\n        /* \"hopium/common/lib/full-math.sol\":2401:2429  inv *= 2 - denominator * inv */\n      dup2\n      mul\n      swap1\n      pop\n        /* \"hopium/common/lib/full-math.sol\":2661:2664  inv */\n      dup1\n        /* \"hopium/common/lib/full-math.sol\":2653:2658  prod0 */\n      dup6\n        /* \"hopium/common/lib/full-math.sol\":2653:2664  prod0 * inv */\n      mul\n        /* \"hopium/common/lib/full-math.sol\":2644:2664  result = prod0 * inv */\n      swap6\n      pop\n        /* \"hopium/common/lib/full-math.sol\":2678:2691  return result */\n      pop\n      pop\n      pop\n      pop\n      pop\n        /* \"hopium/common/lib/full-math.sol\":285:2708  function mulDiv(... */\n    tag_352:\n      swap4\n      swap3\n      pop\n      pop\n      pop\n      jump\t// out\n        /* \"hopium/uniswap/interface/imUniswapOracle.sol\":218:369  function getUniswapOracle() internal view virtual returns (IUniswapOracle) {... */\n    tag_189:\n        /* \"hopium/uniswap/interface/imUniswapOracle.sol\":277:291  IUniswapOracle */\n      0x00\n        /* \"hopium/uniswap/interface/imUniswapOracle.sol\":325:361  fetchFromDirectory(\"uniswap-oracle\") */\n      tag_360\n      mload(0x40)\n      dup1\n      0x40\n      add\n      0x40\n      mstore\n      dup1\n      0x0e\n      dup2\n      mstore\n      0x20\n      add\n      0x756e69737761702d6f7261636c65000000000000000000000000000000000000\n      dup2\n      mstore\n      pop\n        /* \"hopium/uniswap/interface/imUniswapOracle.sol\":325:343  fetchFromDirectory */\n      tag_35\n        /* \"hopium/uniswap/interface/imUniswapOracle.sol\":325:361  fetchFromDirectory(\"uniswap-oracle\") */\n      jump\t// in\n    tag_360:\n        /* \"hopium/uniswap/interface/imUniswapOracle.sol\":303:362  return IUniswapOracle(fetchFromDirectory(\"uniswap-oracle\")) */\n      swap1\n      pop\n        /* \"hopium/uniswap/interface/imUniswapOracle.sol\":218:369  function getUniswapOracle() internal view virtual returns (IUniswapOracle) {... */\n      swap1\n      jump\t// out\n        /* \"hopium/etf/main/etf-oracle.sol\":8512:8966  function _sumPerAsset(Etf memory etf, function (address) external view returns (uint256) fn) internal view returns (uint256 sum) {... */\n    tag_252:\n        /* \"hopium/etf/main/etf-oracle.sol\":8628:8639  uint256 sum */\n      0x00\n        /* \"hopium/etf/main/etf-oracle.sol\":8680:8689  uint256 i */\n      0x00\n        /* \"hopium/etf/main/etf-oracle.sol\":8692:8693  0 */\n      0x00\n        /* \"hopium/etf/main/etf-oracle.sol\":8680:8693  uint256 i = 0 */\n      swap1\n      pop\n        /* \"hopium/etf/main/etf-oracle.sol\":8675:8950  for (uint256 i = 0; i < etf.assets.length; ++i) {... */\n    tag_362:\n        /* \"hopium/etf/main/etf-oracle.sol\":8699:8702  etf */\n      dup5\n        /* \"hopium/etf/main/etf-oracle.sol\":8699:8709  etf.assets */\n      0x40\n      add\n      mload\n        /* \"hopium/etf/main/etf-oracle.sol\":8699:8716  etf.assets.length */\n      mload\n        /* \"hopium/etf/main/etf-oracle.sol\":8695:8696  i */\n      dup2\n        /* \"hopium/etf/main/etf-oracle.sol\":8695:8716  i < etf.assets.length */\n      lt\n        /* \"hopium/etf/main/etf-oracle.sol\":8675:8950  for (uint256 i = 0; i < etf.assets.length; ++i) {... */\n      iszero\n      tag_363\n      jumpi\n        /* \"hopium/etf/main/etf-oracle.sol\":8741:8754  address token */\n      0x00\n        /* \"hopium/etf/main/etf-oracle.sol\":8757:8760  etf */\n      dup6\n        /* \"hopium/etf/main/etf-oracle.sol\":8757:8767  etf.assets */\n      0x40\n      add\n      mload\n        /* \"hopium/etf/main/etf-oracle.sol\":8768:8769  i */\n      dup3\n        /* \"hopium/etf/main/etf-oracle.sol\":8757:8770  etf.assets[i] */\n      dup2\n      mload\n      dup2\n      lt\n      tag_365\n      jumpi\n      tag_366\n      tag_209\n      jump\t// in\n    tag_366:\n    tag_365:\n      0x20\n      mul\n      0x20\n      add\n      add\n      mload\n        /* \"hopium/etf/main/etf-oracle.sol\":8757:8783  etf.assets[i].tokenAddress */\n      0x00\n      add\n      mload\n        /* \"hopium/etf/main/etf-oracle.sol\":8741:8783  address token = etf.assets[i].tokenAddress */\n      swap1\n      pop\n        /* \"hopium/etf/main/etf-oracle.sol\":8805:8807  fn */\n      dup5\n      dup5\n        /* \"hopium/etf/main/etf-oracle.sol\":8808:8813  token */\n      dup3\n        /* \"hopium/etf/main/etf-oracle.sol\":8805:8814  fn(token) */\n      mload(0x40)\n      dup3\n      0xffffffff\n      and\n      0xe0\n      shl\n      dup2\n      mstore\n      0x04\n      add\n      tag_367\n      swap2\n      swap1\n      tag_37\n      jump\t// in\n    tag_367:\n      0x20\n      mload(0x40)\n      dup1\n      dup4\n      sub\n      dup2\n      dup7\n      gas\n      staticcall\n      swap3\n      pop\n      pop\n      pop\n      dup1\n      iszero\n      tag_368\n      jumpi\n      pop\n      mload(0x40)\n      returndatasize\n      not(0x1f)\n      0x1f\n      dup3\n      add\n      and\n      dup3\n      add\n      dup1\n      0x40\n      mstore\n      pop\n      dup2\n      add\n      swap1\n      tag_369\n      swap2\n      swap1\n      tag_171\n      jump\t// in\n    tag_369:\n      0x01\n    tag_368:\n        /* \"hopium/etf/main/etf-oracle.sol\":8801:8936  try fn(token) returns (uint256 value) {... */\n      iszero\n      tag_374\n      jumpi\n        /* \"hopium/etf/main/etf-oracle.sol\":8868:8873  value */\n      dup1\n        /* \"hopium/etf/main/etf-oracle.sol\":8861:8873  sum += value */\n      dup5\n      add\n      swap4\n      pop\n        /* \"hopium/etf/main/etf-oracle.sol\":8815:8892  returns (uint256 value) {... */\n      pop\n        /* \"hopium/etf/main/etf-oracle.sol\":8801:8936  try fn(token) returns (uint256 value) {... */\n    tag_374:\n        /* \"hopium/etf/main/etf-oracle.sol\":8723:8950  {... */\n      pop\n        /* \"hopium/etf/main/etf-oracle.sol\":8718:8721  ++i */\n      dup1\n      0x01\n      add\n      swap1\n      pop\n        /* \"hopium/etf/main/etf-oracle.sol\":8675:8950  for (uint256 i = 0; i < etf.assets.length; ++i) {... */\n      jump(tag_362)\n    tag_363:\n      pop\n        /* \"hopium/etf/main/etf-oracle.sol\":8512:8966  function _sumPerAsset(Etf memory etf, function (address) external view returns (uint256) fn) internal view returns (uint256 sum) {... */\n      swap4\n      swap3\n      pop\n      pop\n      pop\n      jump\t// out\n        /* \"hopium/etf/main/etf-oracle.sol\":627:834  function _pow10(uint8 exp) internal pure returns (uint256) {... */\n    tag_324:\n        /* \"hopium/etf/main/etf-oracle.sol\":677:684  uint256 */\n      0x00\n        /* \"hopium/etf/main/etf-oracle.sol\":711:713  77 */\n      0x4d\n        /* \"hopium/etf/main/etf-oracle.sol\":704:707  exp */\n      dup3\n        /* \"hopium/etf/main/etf-oracle.sol\":704:713  exp <= 77 */\n      0xff\n      and\n      gt\n      iszero\n        /* \"hopium/etf/main/etf-oracle.sol\":696:732  require(exp <= 77, \"pow10 overflow\") */\n      tag_376\n      jumpi\n      mload(0x40)\n      0x08c379a000000000000000000000000000000000000000000000000000000000\n      dup2\n      mstore\n      0x04\n      add\n      tag_377\n      swap1\n      tag_378\n      jump\t// in\n    tag_377:\n      mload(0x40)\n      dup1\n      swap2\n      sub\n      swap1\n      revert\n    tag_376:\n        /* \"hopium/etf/main/etf-oracle.sol\":821:824  exp */\n      dup2\n        /* \"hopium/etf/main/etf-oracle.sol\":813:825  uint256(exp) */\n      0xff\n      and\n        /* \"hopium/etf/main/etf-oracle.sol\":807:809  10 */\n      0x0a\n        /* \"hopium/etf/main/etf-oracle.sol\":807:825  10 ** uint256(exp) */\n      exp\n        /* \"hopium/etf/main/etf-oracle.sol\":800:825  return 10 ** uint256(exp) */\n      swap1\n      pop\n        /* \"hopium/etf/main/etf-oracle.sol\":627:834  function _pow10(uint8 exp) internal pure returns (uint256) {... */\n      swap2\n      swap1\n      pop\n      jump\t// out\n    tag_94:\n      mload(0x40)\n      dup1\n      0xa0\n      add\n      0x40\n      mstore\n      dup1\n      tag_379\n      tag_380\n      jump\t// in\n    tag_379:\n      dup2\n      mstore\n      0x20\n      add\n      tag_381\n      tag_380\n      jump\t// in\n    tag_381:\n      dup2\n      mstore\n      0x20\n      add\n      tag_382\n      tag_380\n      jump\t// in\n    tag_382:\n      dup2\n      mstore\n      0x20\n      add\n      0x00\n      dup2\n      mstore\n      0x20\n      add\n      0x00\n      dup2\n      mstore\n      pop\n      swap1\n      jump\t// out\n    tag_111:\n      mload(0x40)\n      dup1\n      0x60\n      add\n      0x40\n      mstore\n      dup1\n      0x60\n      dup2\n      mstore\n      0x20\n      add\n      0x60\n      dup2\n      mstore\n      0x20\n      add\n      0x60\n      dup2\n      mstore\n      pop\n      swap1\n      jump\t// out\n    tag_202:\n      mload(0x40)\n      dup1\n      0xc0\n      add\n      0x40\n      mstore\n      dup1\n      and(0xffffffffffffffffffffffffffffffffffffffff, 0x00)\n      dup2\n      mstore\n      0x20\n      add\n      and(0xff, 0x00)\n      dup2\n      mstore\n      0x20\n      add\n      and(0xffff, 0x00)\n      dup2\n      mstore\n      0x20\n      add\n      0x00\n      dup2\n      mstore\n      0x20\n      add\n      0x00\n      dup2\n      mstore\n      0x20\n      add\n      0x00\n      dup2\n      mstore\n      pop\n      swap1\n      jump\t// out\n    tag_262:\n      mload(0x40)\n      dup1\n      0x0100\n      add\n      0x40\n      mstore\n      dup1\n      and(0xffffffffffffffffffffffffffffffffffffffff, 0x00)\n      dup2\n      mstore\n      0x20\n      add\n      and(0xff, 0x00)\n      dup2\n      mstore\n      0x20\n      add\n      and(0xffff, 0x00)\n      dup2\n      mstore\n      0x20\n      add\n      0x00\n      dup2\n      mstore\n      0x20\n      add\n      0x00\n      dup2\n      mstore\n      0x20\n      add\n      0x00\n      dup2\n      mstore\n      0x20\n      add\n      0x00\n      dup2\n      mstore\n      0x20\n      add\n      0x00\n      dup2\n      mstore\n      pop\n      swap1\n      jump\t// out\n    tag_380:\n      mload(0x40)\n      dup1\n      0x40\n      add\n      0x40\n      mstore\n      dup1\n      0x00\n      dup2\n      mstore\n      0x20\n      add\n      0x00\n      dup2\n      mstore\n      pop\n      swap1\n      jump\t// out\n        /* \"#utility.yul\":7:82   */\n    tag_383:\n        /* \"#utility.yul\":40:46   */\n      0x00\n        /* \"#utility.yul\":73:75   */\n      0x40\n        /* \"#utility.yul\":67:76   */\n      mload\n        /* \"#utility.yul\":57:76   */\n      swap1\n      pop\n        /* \"#utility.yul\":7:82   */\n      swap1\n      jump\t// out\n        /* \"#utility.yul\":88:205   */\n    tag_384:\n        /* \"#utility.yul\":197:198   */\n      0x00\n        /* \"#utility.yul\":194:195   */\n      0x00\n        /* \"#utility.yul\":187:199   */\n      revert\n        /* \"#utility.yul\":211:328   */\n    tag_385:\n        /* \"#utility.yul\":320:321   */\n      0x00\n        /* \"#utility.yul\":317:318   */\n      0x00\n        /* \"#utility.yul\":310:322   */\n      revert\n        /* \"#utility.yul\":334:411   */\n    tag_386:\n        /* \"#utility.yul\":371:378   */\n      0x00\n        /* \"#utility.yul\":400:405   */\n      dup2\n        /* \"#utility.yul\":389:405   */\n      swap1\n      pop\n        /* \"#utility.yul\":334:411   */\n      swap2\n      swap1\n      pop\n      jump\t// out\n        /* \"#utility.yul\":417:539   */\n    tag_387:\n        /* \"#utility.yul\":490:514   */\n      tag_485\n        /* \"#utility.yul\":508:513   */\n      dup2\n        /* \"#utility.yul\":490:514   */\n      tag_386\n      jump\t// in\n    tag_485:\n        /* \"#utility.yul\":483:488   */\n      dup2\n        /* \"#utility.yul\":480:515   */\n      eq\n        /* \"#utility.yul\":470:533   */\n      tag_486\n      jumpi\n        /* \"#utility.yul\":529:530   */\n      0x00\n        /* \"#utility.yul\":526:527   */\n      0x00\n        /* \"#utility.yul\":519:531   */\n      revert\n        /* \"#utility.yul\":470:533   */\n    tag_486:\n        /* \"#utility.yul\":417:539   */\n      pop\n      jump\t// out\n        /* \"#utility.yul\":545:684   */\n    tag_388:\n        /* \"#utility.yul\":591:596   */\n      0x00\n        /* \"#utility.yul\":629:635   */\n      dup2\n        /* \"#utility.yul\":616:636   */\n      calldataload\n        /* \"#utility.yul\":607:636   */\n      swap1\n      pop\n        /* \"#utility.yul\":645:678   */\n      tag_488\n        /* \"#utility.yul\":672:677   */\n      dup2\n        /* \"#utility.yul\":645:678   */\n      tag_387\n      jump\t// in\n    tag_488:\n        /* \"#utility.yul\":545:684   */\n      swap3\n      swap2\n      pop\n      pop\n      jump\t// out\n        /* \"#utility.yul\":690:1019   */\n    tag_18:\n        /* \"#utility.yul\":749:755   */\n      0x00\n        /* \"#utility.yul\":798:800   */\n      0x20\n        /* \"#utility.yul\":786:795   */\n      dup3\n        /* \"#utility.yul\":777:784   */\n      dup5\n        /* \"#utility.yul\":773:796   */\n      sub\n        /* \"#utility.yul\":769:801   */\n      slt\n        /* \"#utility.yul\":766:885   */\n      iszero\n      tag_490\n      jumpi\n        /* \"#utility.yul\":804:883   */\n      tag_491\n      tag_384\n      jump\t// in\n    tag_491:\n        /* \"#utility.yul\":766:885   */\n    tag_490:\n        /* \"#utility.yul\":924:925   */\n      0x00\n        /* \"#utility.yul\":949:1002   */\n      tag_492\n        /* \"#utility.yul\":994:1001   */\n      dup5\n        /* \"#utility.yul\":985:991   */\n      dup3\n        /* \"#utility.yul\":974:983   */\n      dup6\n        /* \"#utility.yul\":970:992   */\n      add\n        /* \"#utility.yul\":949:1002   */\n      tag_388\n      jump\t// in\n    tag_492:\n        /* \"#utility.yul\":939:1002   */\n      swap2\n      pop\n        /* \"#utility.yul\":895:1012   */\n      pop\n        /* \"#utility.yul\":690:1019   */\n      swap3\n      swap2\n      pop\n      pop\n      jump\t// out\n        /* \"#utility.yul\":1025:1143   */\n    tag_389:\n        /* \"#utility.yul\":1112:1136   */\n      tag_494\n        /* \"#utility.yul\":1130:1135   */\n      dup2\n        /* \"#utility.yul\":1112:1136   */\n      tag_386\n      jump\t// in\n    tag_494:\n        /* \"#utility.yul\":1107:1110   */\n      dup3\n        /* \"#utility.yul\":1100:1137   */\n      mstore\n        /* \"#utility.yul\":1025:1143   */\n      pop\n      pop\n      jump\t// out\n        /* \"#utility.yul\":1149:1371   */\n    tag_21:\n        /* \"#utility.yul\":1242:1246   */\n      0x00\n        /* \"#utility.yul\":1280:1282   */\n      0x20\n        /* \"#utility.yul\":1269:1278   */\n      dup3\n        /* \"#utility.yul\":1265:1283   */\n      add\n        /* \"#utility.yul\":1257:1283   */\n      swap1\n      pop\n        /* \"#utility.yul\":1293:1364   */\n      tag_496\n        /* \"#utility.yul\":1361:1362   */\n      0x00\n        /* \"#utility.yul\":1350:1359   */\n      dup4\n        /* \"#utility.yul\":1346:1363   */\n      add\n        /* \"#utility.yul\":1337:1343   */\n      dup5\n        /* \"#utility.yul\":1293:1364   */\n      tag_389\n      jump\t// in\n    tag_496:\n        /* \"#utility.yul\":1149:1371   */\n      swap3\n      swap2\n      pop\n      pop\n      jump\t// out\n        /* \"#utility.yul\":1377:1516   */\n    tag_390:\n        /* \"#utility.yul\":1469:1475   */\n      0x00\n        /* \"#utility.yul\":1503:1508   */\n      dup2\n        /* \"#utility.yul\":1497:1509   */\n      mload\n        /* \"#utility.yul\":1487:1509   */\n      swap1\n      pop\n        /* \"#utility.yul\":1377:1516   */\n      swap2\n      swap1\n      pop\n      jump\t// out\n        /* \"#utility.yul\":1522:1731   */\n    tag_391:\n        /* \"#utility.yul\":1646:1657   */\n      0x00\n        /* \"#utility.yul\":1680:1686   */\n      dup3\n        /* \"#utility.yul\":1675:1678   */\n      dup3\n        /* \"#utility.yul\":1668:1687   */\n      mstore\n        /* \"#utility.yul\":1720:1724   */\n      0x20\n        /* \"#utility.yul\":1715:1718   */\n      dup3\n        /* \"#utility.yul\":1711:1725   */\n      add\n        /* \"#utility.yul\":1696:1725   */\n      swap1\n      pop\n        /* \"#utility.yul\":1522:1731   */\n      swap3\n      swap2\n      pop\n      pop\n      jump\t// out\n        /* \"#utility.yul\":1737:1894   */\n    tag_392:\n        /* \"#utility.yul\":1829:1833   */\n      0x00\n        /* \"#utility.yul\":1852:1855   */\n      dup2\n        /* \"#utility.yul\":1844:1855   */\n      swap1\n      pop\n        /* \"#utility.yul\":1882:1886   */\n      0x20\n        /* \"#utility.yul\":1877:1880   */\n      dup3\n        /* \"#utility.yul\":1873:1887   */\n      add\n        /* \"#utility.yul\":1865:1887   */\n      swap1\n      pop\n        /* \"#utility.yul\":1737:1894   */\n      swap2\n      swap1\n      pop\n      jump\t// out\n        /* \"#utility.yul\":1900:2026   */\n    tag_393:\n        /* \"#utility.yul\":1937:1944   */\n      0x00\n        /* \"#utility.yul\":1977:2019   */\n      0xffffffffffffffffffffffffffffffffffffffff\n        /* \"#utility.yul\":1970:1975   */\n      dup3\n        /* \"#utility.yul\":1966:2020   */\n      and\n        /* \"#utility.yul\":1955:2020   */\n      swap1\n      pop\n        /* \"#utility.yul\":1900:2026   */\n      swap2\n      swap1\n      pop\n      jump\t// out\n        /* \"#utility.yul\":2032:2128   */\n    tag_394:\n        /* \"#utility.yul\":2069:2076   */\n      0x00\n        /* \"#utility.yul\":2098:2122   */\n      tag_502\n        /* \"#utility.yul\":2116:2121   */\n      dup3\n        /* \"#utility.yul\":2098:2122   */\n      tag_393\n      jump\t// in\n    tag_502:\n        /* \"#utility.yul\":2087:2122   */\n      swap1\n      pop\n        /* \"#utility.yul\":2032:2128   */\n      swap2\n      swap1\n      pop\n      jump\t// out\n        /* \"#utility.yul\":2134:2242   */\n    tag_395:\n        /* \"#utility.yul\":2211:2235   */\n      tag_504\n        /* \"#utility.yul\":2229:2234   */\n      dup2\n        /* \"#utility.yul\":2211:2235   */\n      tag_394\n      jump\t// in\n    tag_504:\n        /* \"#utility.yul\":2206:2209   */\n      dup3\n        /* \"#utility.yul\":2199:2236   */\n      mstore\n        /* \"#utility.yul\":2134:2242   */\n      pop\n      pop\n      jump\t// out\n        /* \"#utility.yul\":2248:2334   */\n    tag_396:\n        /* \"#utility.yul\":2283:2290   */\n      0x00\n        /* \"#utility.yul\":2323:2327   */\n      0xff\n        /* \"#utility.yul\":2316:2321   */\n      dup3\n        /* \"#utility.yul\":2312:2328   */\n      and\n        /* \"#utility.yul\":2301:2328   */\n      swap1\n      pop\n        /* \"#utility.yul\":2248:2334   */\n      swap2\n      swap1\n      pop\n      jump\t// out\n        /* \"#utility.yul\":2340:2442   */\n    tag_397:\n        /* \"#utility.yul\":2413:2435   */\n      tag_507\n        /* \"#utility.yul\":2429:2434   */\n      dup2\n        /* \"#utility.yul\":2413:2435   */\n      tag_396\n      jump\t// in\n    tag_507:\n        /* \"#utility.yul\":2408:2411   */\n      dup3\n        /* \"#utility.yul\":2401:2436   */\n      mstore\n        /* \"#utility.yul\":2340:2442   */\n      pop\n      pop\n      jump\t// out\n        /* \"#utility.yul\":2448:2537   */\n    tag_398:\n        /* \"#utility.yul\":2484:2491   */\n      0x00\n        /* \"#utility.yul\":2524:2530   */\n      0xffff\n        /* \"#utility.yul\":2517:2522   */\n      dup3\n        /* \"#utility.yul\":2513:2531   */\n      and\n        /* \"#utility.yul\":2502:2531   */\n      swap1\n      pop\n        /* \"#utility.yul\":2448:2537   */\n      swap2\n      swap1\n      pop\n      jump\t// out\n        /* \"#utility.yul\":2543:2648   */\n    tag_399:\n        /* \"#utility.yul\":2618:2641   */\n      tag_510\n        /* \"#utility.yul\":2635:2640   */\n      dup2\n        /* \"#utility.yul\":2618:2641   */\n      tag_398\n      jump\t// in\n    tag_510:\n        /* \"#utility.yul\":2613:2616   */\n      dup3\n        /* \"#utility.yul\":2606:2642   */\n      mstore\n        /* \"#utility.yul\":2543:2648   */\n      pop\n      pop\n      jump\t// out\n        /* \"#utility.yul\":2654:2762   */\n    tag_400:\n        /* \"#utility.yul\":2731:2755   */\n      tag_512\n        /* \"#utility.yul\":2749:2754   */\n      dup2\n        /* \"#utility.yul\":2731:2755   */\n      tag_386\n      jump\t// in\n    tag_512:\n        /* \"#utility.yul\":2726:2729   */\n      dup3\n        /* \"#utility.yul\":2719:2756   */\n      mstore\n        /* \"#utility.yul\":2654:2762   */\n      pop\n      pop\n      jump\t// out\n        /* \"#utility.yul\":2810:4058   */\n    tag_401:\n        /* \"#utility.yul\":2947:2951   */\n      0xc0\n        /* \"#utility.yul\":2942:2945   */\n      dup3\n        /* \"#utility.yul\":2938:2952   */\n      add\n        /* \"#utility.yul\":3042:3046   */\n      0x00\n        /* \"#utility.yul\":3035:3040   */\n      dup3\n        /* \"#utility.yul\":3031:3047   */\n      add\n        /* \"#utility.yul\":3025:3048   */\n      mload\n        /* \"#utility.yul\":3061:3124   */\n      tag_514\n        /* \"#utility.yul\":3118:3122   */\n      0x00\n        /* \"#utility.yul\":3113:3116   */\n      dup6\n        /* \"#utility.yul\":3109:3123   */\n      add\n        /* \"#utility.yul\":3095:3107   */\n      dup3\n        /* \"#utility.yul\":3061:3124   */\n      tag_395\n      jump\t// in\n    tag_514:\n        /* \"#utility.yul\":2962:3134   */\n      pop\n        /* \"#utility.yul\":3225:3229   */\n      0x20\n        /* \"#utility.yul\":3218:3223   */\n      dup3\n        /* \"#utility.yul\":3214:3230   */\n      add\n        /* \"#utility.yul\":3208:3231   */\n      mload\n        /* \"#utility.yul\":3244:3303   */\n      tag_515\n        /* \"#utility.yul\":3297:3301   */\n      0x20\n        /* \"#utility.yul\":3292:3295   */\n      dup6\n        /* \"#utility.yul\":3288:3302   */\n      add\n        /* \"#utility.yul\":3274:3286   */\n      dup3\n        /* \"#utility.yul\":3244:3303   */\n      tag_397\n      jump\t// in\n    tag_515:\n        /* \"#utility.yul\":3144:3313   */\n      pop\n        /* \"#utility.yul\":3404:3408   */\n      0x40\n        /* \"#utility.yul\":3397:3402   */\n      dup3\n        /* \"#utility.yul\":3393:3409   */\n      add\n        /* \"#utility.yul\":3387:3410   */\n      mload\n        /* \"#utility.yul\":3423:3484   */\n      tag_516\n        /* \"#utility.yul\":3478:3482   */\n      0x40\n        /* \"#utility.yul\":3473:3476   */\n      dup6\n        /* \"#utility.yul\":3469:3483   */\n      add\n        /* \"#utility.yul\":3455:3467   */\n      dup3\n        /* \"#utility.yul\":3423:3484   */\n      tag_399\n      jump\t// in\n    tag_516:\n        /* \"#utility.yul\":3323:3494   */\n      pop\n        /* \"#utility.yul\":3587:3591   */\n      0x60\n        /* \"#utility.yul\":3580:3585   */\n      dup3\n        /* \"#utility.yul\":3576:3592   */\n      add\n        /* \"#utility.yul\":3570:3593   */\n      mload\n        /* \"#utility.yul\":3606:3669   */\n      tag_517\n        /* \"#utility.yul\":3663:3667   */\n      0x60\n        /* \"#utility.yul\":3658:3661   */\n      dup6\n        /* \"#utility.yul\":3654:3668   */\n      add\n        /* \"#utility.yul\":3640:3652   */\n      dup3\n        /* \"#utility.yul\":3606:3669   */\n      tag_400\n      jump\t// in\n    tag_517:\n        /* \"#utility.yul\":3504:3679   */\n      pop\n        /* \"#utility.yul\":3773:3777   */\n      0x80\n        /* \"#utility.yul\":3766:3771   */\n      dup3\n        /* \"#utility.yul\":3762:3778   */\n      add\n        /* \"#utility.yul\":3756:3779   */\n      mload\n        /* \"#utility.yul\":3792:3855   */\n      tag_518\n        /* \"#utility.yul\":3849:3853   */\n      0x80\n        /* \"#utility.yul\":3844:3847   */\n      dup6\n        /* \"#utility.yul\":3840:3854   */\n      add\n        /* \"#utility.yul\":3826:3838   */\n      dup3\n        /* \"#utility.yul\":3792:3855   */\n      tag_400\n      jump\t// in\n    tag_518:\n        /* \"#utility.yul\":3689:3865   */\n      pop\n        /* \"#utility.yul\":3959:3963   */\n      0xa0\n        /* \"#utility.yul\":3952:3957   */\n      dup3\n        /* \"#utility.yul\":3948:3964   */\n      add\n        /* \"#utility.yul\":3942:3965   */\n      mload\n        /* \"#utility.yul\":3978:4041   */\n      tag_519\n        /* \"#utility.yul\":4035:4039   */\n      0xa0\n        /* \"#utility.yul\":4030:4033   */\n      dup6\n        /* \"#utility.yul\":4026:4040   */\n      add\n        /* \"#utility.yul\":4012:4024   */\n      dup3\n        /* \"#utility.yul\":3978:4041   */\n      tag_400\n      jump\t// in\n    tag_519:\n        /* \"#utility.yul\":3875:4051   */\n      pop\n        /* \"#utility.yul\":2916:4058   */\n      pop\n        /* \"#utility.yul\":2810:4058   */\n      pop\n      pop\n      jump\t// out\n        /* \"#utility.yul\":4064:4343   */\n    tag_402:\n        /* \"#utility.yul\":4183:4193   */\n      0x00\n        /* \"#utility.yul\":4204:4300   */\n      tag_521\n        /* \"#utility.yul\":4296:4299   */\n      dup4\n        /* \"#utility.yul\":4288:4294   */\n      dup4\n        /* \"#utility.yul\":4204:4300   */\n      tag_401\n      jump\t// in\n    tag_521:\n        /* \"#utility.yul\":4332:4336   */\n      0xc0\n        /* \"#utility.yul\":4327:4330   */\n      dup4\n        /* \"#utility.yul\":4323:4337   */\n      add\n        /* \"#utility.yul\":4309:4337   */\n      swap1\n      pop\n        /* \"#utility.yul\":4064:4343   */\n      swap3\n      swap2\n      pop\n      pop\n      jump\t// out\n        /* \"#utility.yul\":4349:4487   */\n    tag_403:\n        /* \"#utility.yul\":4444:4448   */\n      0x00\n        /* \"#utility.yul\":4476:4480   */\n      0x20\n        /* \"#utility.yul\":4471:4474   */\n      dup3\n        /* \"#utility.yul\":4467:4481   */\n      add\n        /* \"#utility.yul\":4459:4481   */\n      swap1\n      pop\n        /* \"#utility.yul\":4349:4487   */\n      swap2\n      swap1\n      pop\n      jump\t// out\n        /* \"#utility.yul\":4539:5471   */\n    tag_404:\n        /* \"#utility.yul\":4708:4711   */\n      0x00\n        /* \"#utility.yul\":4737:4816   */\n      tag_524\n        /* \"#utility.yul\":4810:4815   */\n      dup3\n        /* \"#utility.yul\":4737:4816   */\n      tag_390\n      jump\t// in\n    tag_524:\n        /* \"#utility.yul\":4832:4943   */\n      tag_525\n        /* \"#utility.yul\":4936:4942   */\n      dup2\n        /* \"#utility.yul\":4931:4934   */\n      dup6\n        /* \"#utility.yul\":4832:4943   */\n      tag_391\n      jump\t// in\n    tag_525:\n        /* \"#utility.yul\":4825:4943   */\n      swap4\n      pop\n        /* \"#utility.yul\":4967:5048   */\n      tag_526\n        /* \"#utility.yul\":5042:5047   */\n      dup4\n        /* \"#utility.yul\":4967:5048   */\n      tag_392\n      jump\t// in\n    tag_526:\n        /* \"#utility.yul\":5071:5078   */\n      dup1\n        /* \"#utility.yul\":5102:5103   */\n      0x00\n        /* \"#utility.yul\":5087:5446   */\n    tag_527:\n        /* \"#utility.yul\":5112:5118   */\n      dup4\n        /* \"#utility.yul\":5109:5110   */\n      dup2\n        /* \"#utility.yul\":5106:5119   */\n      lt\n        /* \"#utility.yul\":5087:5446   */\n      iszero\n      tag_529\n      jumpi\n        /* \"#utility.yul\":5188:5194   */\n      dup2\n        /* \"#utility.yul\":5182:5195   */\n      mload\n        /* \"#utility.yul\":5215:5328   */\n      tag_530\n        /* \"#utility.yul\":5324:5327   */\n      dup9\n        /* \"#utility.yul\":5309:5322   */\n      dup3\n        /* \"#utility.yul\":5215:5328   */\n      tag_402\n      jump\t// in\n    tag_530:\n        /* \"#utility.yul\":5208:5328   */\n      swap8\n      pop\n        /* \"#utility.yul\":5351:5436   */\n      tag_531\n        /* \"#utility.yul\":5429:5435   */\n      dup4\n        /* \"#utility.yul\":5351:5436   */\n      tag_403\n      jump\t// in\n    tag_531:\n        /* \"#utility.yul\":5341:5436   */\n      swap3\n      pop\n        /* \"#utility.yul\":5147:5446   */\n      pop\n        /* \"#utility.yul\":5134:5135   */\n      0x01\n        /* \"#utility.yul\":5131:5132   */\n      dup2\n        /* \"#utility.yul\":5127:5136   */\n      add\n        /* \"#utility.yul\":5122:5136   */\n      swap1\n      pop\n        /* \"#utility.yul\":5087:5446   */\n      jump(tag_527)\n    tag_529:\n        /* \"#utility.yul\":5091:5105   */\n      pop\n        /* \"#utility.yul\":5462:5465   */\n      dup6\n        /* \"#utility.yul\":5455:5465   */\n      swap4\n      pop\n        /* \"#utility.yul\":4713:5471   */\n      pop\n      pop\n      pop\n        /* \"#utility.yul\":4539:5471   */\n      swap3\n      swap2\n      pop\n      pop\n      jump\t// out\n        /* \"#utility.yul\":5477:6060   */\n    tag_26:\n        /* \"#utility.yul\":5698:5702   */\n      0x00\n        /* \"#utility.yul\":5736:5738   */\n      0x40\n        /* \"#utility.yul\":5725:5734   */\n      dup3\n        /* \"#utility.yul\":5721:5739   */\n      add\n        /* \"#utility.yul\":5713:5739   */\n      swap1\n      pop\n        /* \"#utility.yul\":5785:5794   */\n      dup2\n        /* \"#utility.yul\":5779:5783   */\n      dup2\n        /* \"#utility.yul\":5775:5795   */\n      sub\n        /* \"#utility.yul\":5771:5772   */\n      0x00\n        /* \"#utility.yul\":5760:5769   */\n      dup4\n        /* \"#utility.yul\":5756:5773   */\n      add\n        /* \"#utility.yul\":5749:5796   */\n      mstore\n        /* \"#utility.yul\":5813:5971   */\n      tag_533\n        /* \"#utility.yul\":5966:5970   */\n      dup2\n        /* \"#utility.yul\":5957:5963   */\n      dup6\n        /* \"#utility.yul\":5813:5971   */\n      tag_404\n      jump\t// in\n    tag_533:\n        /* \"#utility.yul\":5805:5971   */\n      swap1\n      pop\n        /* \"#utility.yul\":5981:6053   */\n      tag_534\n        /* \"#utility.yul\":6049:6051   */\n      0x20\n        /* \"#utility.yul\":6038:6047   */\n      dup4\n        /* \"#utility.yul\":6034:6052   */\n      add\n        /* \"#utility.yul\":6025:6031   */\n      dup5\n        /* \"#utility.yul\":5981:6053   */\n      tag_389\n      jump\t// in\n    tag_534:\n        /* \"#utility.yul\":5477:6060   */\n      swap4\n      swap3\n      pop\n      pop\n      pop\n      jump\t// out\n        /* \"#utility.yul\":6122:6619   */\n    tag_405:\n        /* \"#utility.yul\":6257:6261   */\n      0x40\n        /* \"#utility.yul\":6252:6255   */\n      dup3\n        /* \"#utility.yul\":6248:6262   */\n      add\n        /* \"#utility.yul\":6345:6349   */\n      0x00\n        /* \"#utility.yul\":6338:6343   */\n      dup3\n        /* \"#utility.yul\":6334:6350   */\n      add\n        /* \"#utility.yul\":6328:6351   */\n      mload\n        /* \"#utility.yul\":6364:6427   */\n      tag_536\n        /* \"#utility.yul\":6421:6425   */\n      0x00\n        /* \"#utility.yul\":6416:6419   */\n      dup6\n        /* \"#utility.yul\":6412:6426   */\n      add\n        /* \"#utility.yul\":6398:6410   */\n      dup3\n        /* \"#utility.yul\":6364:6427   */\n      tag_400\n      jump\t// in\n    tag_536:\n        /* \"#utility.yul\":6272:6437   */\n      pop\n        /* \"#utility.yul\":6520:6524   */\n      0x20\n        /* \"#utility.yul\":6513:6518   */\n      dup3\n        /* \"#utility.yul\":6509:6525   */\n      add\n        /* \"#utility.yul\":6503:6526   */\n      mload\n        /* \"#utility.yul\":6539:6602   */\n      tag_537\n        /* \"#utility.yul\":6596:6600   */\n      0x20\n        /* \"#utility.yul\":6591:6594   */\n      dup6\n        /* \"#utility.yul\":6587:6601   */\n      add\n        /* \"#utility.yul\":6573:6585   */\n      dup3\n        /* \"#utility.yul\":6539:6602   */\n      tag_400\n      jump\t// in\n    tag_537:\n        /* \"#utility.yul\":6447:6612   */\n      pop\n        /* \"#utility.yul\":6226:6619   */\n      pop\n        /* \"#utility.yul\":6122:6619   */\n      pop\n      pop\n      jump\t// out\n        /* \"#utility.yul\":6679:7875   */\n    tag_406:\n        /* \"#utility.yul\":6822:6828   */\n      0x0100\n        /* \"#utility.yul\":6817:6820   */\n      dup3\n        /* \"#utility.yul\":6813:6829   */\n      add\n        /* \"#utility.yul\":6912:6916   */\n      0x00\n        /* \"#utility.yul\":6905:6910   */\n      dup3\n        /* \"#utility.yul\":6901:6917   */\n      add\n        /* \"#utility.yul\":6895:6918   */\n      mload\n        /* \"#utility.yul\":6931:7042   */\n      tag_539\n        /* \"#utility.yul\":7036:7040   */\n      0x00\n        /* \"#utility.yul\":7031:7034   */\n      dup6\n        /* \"#utility.yul\":7027:7041   */\n      add\n        /* \"#utility.yul\":7013:7025   */\n      dup3\n        /* \"#utility.yul\":6931:7042   */\n      tag_405\n      jump\t// in\n    tag_539:\n        /* \"#utility.yul\":6839:7052   */\n      pop\n        /* \"#utility.yul\":7136:7140   */\n      0x20\n        /* \"#utility.yul\":7129:7134   */\n      dup3\n        /* \"#utility.yul\":7125:7141   */\n      add\n        /* \"#utility.yul\":7119:7142   */\n      mload\n        /* \"#utility.yul\":7155:7266   */\n      tag_540\n        /* \"#utility.yul\":7260:7264   */\n      0x40\n        /* \"#utility.yul\":7255:7258   */\n      dup6\n        /* \"#utility.yul\":7251:7265   */\n      add\n        /* \"#utility.yul\":7237:7249   */\n      dup3\n        /* \"#utility.yul\":7155:7266   */\n      tag_405\n      jump\t// in\n    tag_540:\n        /* \"#utility.yul\":7062:7276   */\n      pop\n        /* \"#utility.yul\":7357:7361   */\n      0x40\n        /* \"#utility.yul\":7350:7355   */\n      dup3\n        /* \"#utility.yul\":7346:7362   */\n      add\n        /* \"#utility.yul\":7340:7363   */\n      mload\n        /* \"#utility.yul\":7376:7487   */\n      tag_541\n        /* \"#utility.yul\":7481:7485   */\n      0x80\n        /* \"#utility.yul\":7476:7479   */\n      dup6\n        /* \"#utility.yul\":7472:7486   */\n      add\n        /* \"#utility.yul\":7458:7470   */\n      dup3\n        /* \"#utility.yul\":7376:7487   */\n      tag_405\n      jump\t// in\n    tag_541:\n        /* \"#utility.yul\":7286:7497   */\n      pop\n        /* \"#utility.yul\":7593:7597   */\n      0x60\n        /* \"#utility.yul\":7586:7591   */\n      dup3\n        /* \"#utility.yul\":7582:7598   */\n      add\n        /* \"#utility.yul\":7576:7599   */\n      mload\n        /* \"#utility.yul\":7612:7675   */\n      tag_542\n        /* \"#utility.yul\":7669:7673   */\n      0xc0\n        /* \"#utility.yul\":7664:7667   */\n      dup6\n        /* \"#utility.yul\":7660:7674   */\n      add\n        /* \"#utility.yul\":7646:7658   */\n      dup3\n        /* \"#utility.yul\":7612:7675   */\n      tag_400\n      jump\t// in\n    tag_542:\n        /* \"#utility.yul\":7507:7685   */\n      pop\n        /* \"#utility.yul\":7776:7780   */\n      0x80\n        /* \"#utility.yul\":7769:7774   */\n      dup3\n        /* \"#utility.yul\":7765:7781   */\n      add\n        /* \"#utility.yul\":7759:7782   */\n      mload\n        /* \"#utility.yul\":7795:7858   */\n      tag_543\n        /* \"#utility.yul\":7852:7856   */\n      0xe0\n        /* \"#utility.yul\":7847:7850   */\n      dup6\n        /* \"#utility.yul\":7843:7857   */\n      add\n        /* \"#utility.yul\":7829:7841   */\n      dup3\n        /* \"#utility.yul\":7795:7858   */\n      tag_400\n      jump\t// in\n    tag_543:\n        /* \"#utility.yul\":7695:7868   */\n      pop\n        /* \"#utility.yul\":6791:7875   */\n      pop\n        /* \"#utility.yul\":6679:7875   */\n      pop\n      pop\n      jump\t// out\n        /* \"#utility.yul\":7881:8196   */\n    tag_31:\n        /* \"#utility.yul\":8020:8024   */\n      0x00\n        /* \"#utility.yul\":8058:8061   */\n      0x0100\n        /* \"#utility.yul\":8047:8056   */\n      dup3\n        /* \"#utility.yul\":8043:8062   */\n      add\n        /* \"#utility.yul\":8035:8062   */\n      swap1\n      pop\n        /* \"#utility.yul\":8072:8189   */\n      tag_545\n        /* \"#utility.yul\":8186:8187   */\n      0x00\n        /* \"#utility.yul\":8175:8184   */\n      dup4\n        /* \"#utility.yul\":8171:8188   */\n      add\n        /* \"#utility.yul\":8162:8168   */\n      dup5\n        /* \"#utility.yul\":8072:8189   */\n      tag_406\n      jump\t// in\n    tag_545:\n        /* \"#utility.yul\":7881:8196   */\n      swap3\n      swap2\n      pop\n      pop\n      jump\t// out\n        /* \"#utility.yul\":8202:8319   */\n    tag_407:\n        /* \"#utility.yul\":8311:8312   */\n      0x00\n        /* \"#utility.yul\":8308:8309   */\n      0x00\n        /* \"#utility.yul\":8301:8313   */\n      revert\n        /* \"#utility.yul\":8325:8442   */\n    tag_408:\n        /* \"#utility.yul\":8434:8435   */\n      0x00\n        /* \"#utility.yul\":8431:8432   */\n      0x00\n        /* \"#utility.yul\":8424:8436   */\n      revert\n        /* \"#utility.yul\":8448:8550   */\n    tag_409:\n        /* \"#utility.yul\":8489:8495   */\n      0x00\n        /* \"#utility.yul\":8540:8542   */\n      0x1f\n        /* \"#utility.yul\":8536:8543   */\n      not\n        /* \"#utility.yul\":8531:8533   */\n      0x1f\n        /* \"#utility.yul\":8524:8529   */\n      dup4\n        /* \"#utility.yul\":8520:8534   */\n      add\n        /* \"#utility.yul\":8516:8544   */\n      and\n        /* \"#utility.yul\":8506:8544   */\n      swap1\n      pop\n        /* \"#utility.yul\":8448:8550   */\n      swap2\n      swap1\n      pop\n      jump\t// out\n        /* \"#utility.yul\":8556:8736   */\n    tag_198:\n        /* \"#utility.yul\":8604:8681   */\n      0x4e487b7100000000000000000000000000000000000000000000000000000000\n        /* \"#utility.yul\":8601:8602   */\n      0x00\n        /* \"#utility.yul\":8594:8682   */\n      mstore\n        /* \"#utility.yul\":8701:8705   */\n      0x41\n        /* \"#utility.yul\":8698:8699   */\n      0x04\n        /* \"#utility.yul\":8691:8706   */\n      mstore\n        /* \"#utility.yul\":8725:8729   */\n      0x24\n        /* \"#utility.yul\":8722:8723   */\n      0x00\n        /* \"#utility.yul\":8715:8730   */\n      revert\n        /* \"#utility.yul\":8742:9023   */\n    tag_410:\n        /* \"#utility.yul\":8825:8852   */\n      tag_551\n        /* \"#utility.yul\":8847:8851   */\n      dup3\n        /* \"#utility.yul\":8825:8852   */\n      tag_409\n      jump\t// in\n    tag_551:\n        /* \"#utility.yul\":8817:8823   */\n      dup2\n        /* \"#utility.yul\":8813:8853   */\n      add\n        /* \"#utility.yul\":8955:8961   */\n      dup2\n        /* \"#utility.yul\":8943:8953   */\n      dup2\n        /* \"#utility.yul\":8940:8962   */\n      lt\n        /* \"#utility.yul\":8919:8937   */\n      0xffffffffffffffff\n        /* \"#utility.yul\":8907:8917   */\n      dup3\n        /* \"#utility.yul\":8904:8938   */\n      gt\n        /* \"#utility.yul\":8901:8963   */\n      or\n        /* \"#utility.yul\":8898:8986   */\n      iszero\n      tag_552\n      jumpi\n        /* \"#utility.yul\":8966:8984   */\n      tag_553\n      tag_198\n      jump\t// in\n    tag_553:\n        /* \"#utility.yul\":8898:8986   */\n    tag_552:\n        /* \"#utility.yul\":9006:9016   */\n      dup1\n        /* \"#utility.yul\":9002:9004   */\n      0x40\n        /* \"#utility.yul\":8995:9017   */\n      mstore\n        /* \"#utility.yul\":8785:9023   */\n      pop\n        /* \"#utility.yul\":8742:9023   */\n      pop\n      pop\n      jump\t// out\n        /* \"#utility.yul\":9029:9158   */\n    tag_411:\n        /* \"#utility.yul\":9063:9069   */\n      0x00\n        /* \"#utility.yul\":9090:9110   */\n      tag_555\n      tag_383\n      jump\t// in\n    tag_555:\n        /* \"#utility.yul\":9080:9110   */\n      swap1\n      pop\n        /* \"#utility.yul\":9119:9152   */\n      tag_556\n        /* \"#utility.yul\":9147:9151   */\n      dup3\n        /* \"#utility.yul\":9139:9145   */\n      dup3\n        /* \"#utility.yul\":9119:9152   */\n      tag_410\n      jump\t// in\n    tag_556:\n        /* \"#utility.yul\":9029:9158   */\n      swap2\n      swap1\n      pop\n      jump\t// out\n        /* \"#utility.yul\":9164:9472   */\n    tag_412:\n        /* \"#utility.yul\":9226:9230   */\n      0x00\n        /* \"#utility.yul\":9316:9334   */\n      0xffffffffffffffff\n        /* \"#utility.yul\":9308:9314   */\n      dup3\n        /* \"#utility.yul\":9305:9335   */\n      gt\n        /* \"#utility.yul\":9302:9358   */\n      iszero\n      tag_558\n      jumpi\n        /* \"#utility.yul\":9338:9356   */\n      tag_559\n      tag_198\n      jump\t// in\n    tag_559:\n        /* \"#utility.yul\":9302:9358   */\n    tag_558:\n        /* \"#utility.yul\":9376:9405   */\n      tag_560\n        /* \"#utility.yul\":9398:9404   */\n      dup3\n        /* \"#utility.yul\":9376:9405   */\n      tag_409\n      jump\t// in\n    tag_560:\n        /* \"#utility.yul\":9368:9405   */\n      swap1\n      pop\n        /* \"#utility.yul\":9460:9464   */\n      0x20\n        /* \"#utility.yul\":9454:9458   */\n      dup2\n        /* \"#utility.yul\":9450:9465   */\n      add\n        /* \"#utility.yul\":9442:9465   */\n      swap1\n      pop\n        /* \"#utility.yul\":9164:9472   */\n      swap2\n      swap1\n      pop\n      jump\t// out\n        /* \"#utility.yul\":9478:9626   */\n    tag_413:\n        /* \"#utility.yul\":9576:9582   */\n      dup3\n        /* \"#utility.yul\":9571:9574   */\n      dup2\n        /* \"#utility.yul\":9566:9569   */\n      dup4\n        /* \"#utility.yul\":9553:9583   */\n      calldatacopy\n        /* \"#utility.yul\":9617:9618   */\n      0x00\n        /* \"#utility.yul\":9608:9614   */\n      dup4\n        /* \"#utility.yul\":9603:9606   */\n      dup4\n        /* \"#utility.yul\":9599:9615   */\n      add\n        /* \"#utility.yul\":9592:9619   */\n      mstore\n        /* \"#utility.yul\":9478:9626   */\n      pop\n      pop\n      pop\n      jump\t// out\n        /* \"#utility.yul\":9632:10057   */\n    tag_414:\n        /* \"#utility.yul\":9710:9715   */\n      0x00\n        /* \"#utility.yul\":9735:9801   */\n      tag_563\n        /* \"#utility.yul\":9751:9800   */\n      tag_564\n        /* \"#utility.yul\":9793:9799   */\n      dup5\n        /* \"#utility.yul\":9751:9800   */\n      tag_412\n      jump\t// in\n    tag_564:\n        /* \"#utility.yul\":9735:9801   */\n      tag_411\n      jump\t// in\n    tag_563:\n        /* \"#utility.yul\":9726:9801   */\n      swap1\n      pop\n        /* \"#utility.yul\":9824:9830   */\n      dup3\n        /* \"#utility.yul\":9817:9822   */\n      dup2\n        /* \"#utility.yul\":9810:9831   */\n      mstore\n        /* \"#utility.yul\":9862:9866   */\n      0x20\n        /* \"#utility.yul\":9855:9860   */\n      dup2\n        /* \"#utility.yul\":9851:9867   */\n      add\n        /* \"#utility.yul\":9900:9903   */\n      dup5\n        /* \"#utility.yul\":9891:9897   */\n      dup5\n        /* \"#utility.yul\":9886:9889   */\n      dup5\n        /* \"#utility.yul\":9882:9898   */\n      add\n        /* \"#utility.yul\":9879:9904   */\n      gt\n        /* \"#utility.yul\":9876:9988   */\n      iszero\n      tag_565\n      jumpi\n        /* \"#utility.yul\":9907:9986   */\n      tag_566\n      tag_408\n      jump\t// in\n    tag_566:\n        /* \"#utility.yul\":9876:9988   */\n    tag_565:\n        /* \"#utility.yul\":9997:10051   */\n      tag_567\n        /* \"#utility.yul\":10044:10050   */\n      dup5\n        /* \"#utility.yul\":10039:10042   */\n      dup3\n        /* \"#utility.yul\":10034:10037   */\n      dup6\n        /* \"#utility.yul\":9997:10051   */\n      tag_413\n      jump\t// in\n    tag_567:\n        /* \"#utility.yul\":9716:10057   */\n      pop\n        /* \"#utility.yul\":9632:10057   */\n      swap4\n      swap3\n      pop\n      pop\n      pop\n      jump\t// out\n        /* \"#utility.yul\":10077:10417   */\n    tag_415:\n        /* \"#utility.yul\":10133:10138   */\n      0x00\n        /* \"#utility.yul\":10182:10185   */\n      dup3\n        /* \"#utility.yul\":10175:10179   */\n      0x1f\n        /* \"#utility.yul\":10167:10173   */\n      dup4\n        /* \"#utility.yul\":10163:10180   */\n      add\n        /* \"#utility.yul\":10159:10186   */\n      slt\n        /* \"#utility.yul\":10149:10271   */\n      tag_569\n      jumpi\n        /* \"#utility.yul\":10190:10269   */\n      tag_570\n      tag_407\n      jump\t// in\n    tag_570:\n        /* \"#utility.yul\":10149:10271   */\n    tag_569:\n        /* \"#utility.yul\":10307:10313   */\n      dup2\n        /* \"#utility.yul\":10294:10314   */\n      calldataload\n        /* \"#utility.yul\":10332:10411   */\n      tag_571\n        /* \"#utility.yul\":10407:10410   */\n      dup5\n        /* \"#utility.yul\":10399:10405   */\n      dup3\n        /* \"#utility.yul\":10392:10396   */\n      0x20\n        /* \"#utility.yul\":10384:10390   */\n      dup7\n        /* \"#utility.yul\":10380:10397   */\n      add\n        /* \"#utility.yul\":10332:10411   */\n      tag_414\n      jump\t// in\n    tag_571:\n        /* \"#utility.yul\":10323:10411   */\n      swap2\n      pop\n        /* \"#utility.yul\":10139:10417   */\n      pop\n        /* \"#utility.yul\":10077:10417   */\n      swap3\n      swap2\n      pop\n      pop\n      jump\t// out\n        /* \"#utility.yul\":10423:10932   */\n    tag_34:\n        /* \"#utility.yul\":10492:10498   */\n      0x00\n        /* \"#utility.yul\":10541:10543   */\n      0x20\n        /* \"#utility.yul\":10529:10538   */\n      dup3\n        /* \"#utility.yul\":10520:10527   */\n      dup5\n        /* \"#utility.yul\":10516:10539   */\n      sub\n        /* \"#utility.yul\":10512:10544   */\n      slt\n        /* \"#utility.yul\":10509:10628   */\n      iszero\n      tag_573\n      jumpi\n        /* \"#utility.yul\":10547:10626   */\n      tag_574\n      tag_384\n      jump\t// in\n    tag_574:\n        /* \"#utility.yul\":10509:10628   */\n    tag_573:\n        /* \"#utility.yul\":10695:10696   */\n      0x00\n        /* \"#utility.yul\":10684:10693   */\n      dup3\n        /* \"#utility.yul\":10680:10697   */\n      add\n        /* \"#utility.yul\":10667:10698   */\n      calldataload\n        /* \"#utility.yul\":10725:10743   */\n      0xffffffffffffffff\n        /* \"#utility.yul\":10717:10723   */\n      dup2\n        /* \"#utility.yul\":10714:10744   */\n      gt\n        /* \"#utility.yul\":10711:10828   */\n      iszero\n      tag_575\n      jumpi\n        /* \"#utility.yul\":10747:10826   */\n      tag_576\n      tag_385\n      jump\t// in\n    tag_576:\n        /* \"#utility.yul\":10711:10828   */\n    tag_575:\n        /* \"#utility.yul\":10852:10915   */\n      tag_577\n        /* \"#utility.yul\":10907:10914   */\n      dup5\n        /* \"#utility.yul\":10898:10904   */\n      dup3\n        /* \"#utility.yul\":10887:10896   */\n      dup6\n        /* \"#utility.yul\":10883:10905   */\n      add\n        /* \"#utility.yul\":10852:10915   */\n      tag_415\n      jump\t// in\n    tag_577:\n        /* \"#utility.yul\":10842:10915   */\n      swap2\n      pop\n        /* \"#utility.yul\":10638:10925   */\n      pop\n        /* \"#utility.yul\":10423:10932   */\n      swap3\n      swap2\n      pop\n      pop\n      jump\t// out\n        /* \"#utility.yul\":10938:11056   */\n    tag_416:\n        /* \"#utility.yul\":11025:11049   */\n      tag_579\n        /* \"#utility.yul\":11043:11048   */\n      dup2\n        /* \"#utility.yul\":11025:11049   */\n      tag_394\n      jump\t// in\n    tag_579:\n        /* \"#utility.yul\":11020:11023   */\n      dup3\n        /* \"#utility.yul\":11013:11050   */\n      mstore\n        /* \"#utility.yul\":10938:11056   */\n      pop\n      pop\n      jump\t// out\n        /* \"#utility.yul\":11062:11284   */\n    tag_37:\n        /* \"#utility.yul\":11155:11159   */\n      0x00\n        /* \"#utility.yul\":11193:11195   */\n      0x20\n        /* \"#utility.yul\":11182:11191   */\n      dup3\n        /* \"#utility.yul\":11178:11196   */\n      add\n        /* \"#utility.yul\":11170:11196   */\n      swap1\n      pop\n        /* \"#utility.yul\":11206:11277   */\n      tag_581\n        /* \"#utility.yul\":11274:11275   */\n      0x00\n        /* \"#utility.yul\":11263:11272   */\n      dup4\n        /* \"#utility.yul\":11259:11276   */\n      add\n        /* \"#utility.yul\":11250:11256   */\n      dup5\n        /* \"#utility.yul\":11206:11277   */\n      tag_416\n      jump\t// in\n    tag_581:\n        /* \"#utility.yul\":11062:11284   */\n      swap3\n      swap2\n      pop\n      pop\n      jump\t// out\n        /* \"#utility.yul\":11290:11389   */\n    tag_417:\n        /* \"#utility.yul\":11342:11348   */\n      0x00\n        /* \"#utility.yul\":11376:11381   */\n      dup2\n        /* \"#utility.yul\":11370:11382   */\n      mload\n        /* \"#utility.yul\":11360:11382   */\n      swap1\n      pop\n        /* \"#utility.yul\":11290:11389   */\n      swap2\n      swap1\n      pop\n      jump\t// out\n        /* \"#utility.yul\":11395:11554   */\n    tag_418:\n        /* \"#utility.yul\":11469:11480   */\n      0x00\n        /* \"#utility.yul\":11503:11509   */\n      dup3\n        /* \"#utility.yul\":11498:11501   */\n      dup3\n        /* \"#utility.yul\":11491:11510   */\n      mstore\n        /* \"#utility.yul\":11543:11547   */\n      0x20\n        /* \"#utility.yul\":11538:11541   */\n      dup3\n        /* \"#utility.yul\":11534:11548   */\n      add\n        /* \"#utility.yul\":11519:11548   */\n      swap1\n      pop\n        /* \"#utility.yul\":11395:11554   */\n      swap3\n      swap2\n      pop\n      pop\n      jump\t// out\n        /* \"#utility.yul\":11560:11699   */\n    tag_419:\n        /* \"#utility.yul\":11649:11655   */\n      dup3\n        /* \"#utility.yul\":11644:11647   */\n      dup2\n        /* \"#utility.yul\":11639:11642   */\n      dup4\n        /* \"#utility.yul\":11633:11656   */\n      mcopy\n        /* \"#utility.yul\":11690:11691   */\n      0x00\n        /* \"#utility.yul\":11681:11687   */\n      dup4\n        /* \"#utility.yul\":11676:11679   */\n      dup4\n        /* \"#utility.yul\":11672:11688   */\n      add\n        /* \"#utility.yul\":11665:11692   */\n      mstore\n        /* \"#utility.yul\":11560:11699   */\n      pop\n      pop\n      pop\n      jump\t// out\n        /* \"#utility.yul\":11705:12062   */\n    tag_420:\n        /* \"#utility.yul\":11783:11786   */\n      0x00\n        /* \"#utility.yul\":11811:11850   */\n      tag_586\n        /* \"#utility.yul\":11844:11849   */\n      dup3\n        /* \"#utility.yul\":11811:11850   */\n      tag_417\n      jump\t// in\n    tag_586:\n        /* \"#utility.yul\":11866:11927   */\n      tag_587\n        /* \"#utility.yul\":11920:11926   */\n      dup2\n        /* \"#utility.yul\":11915:11918   */\n      dup6\n        /* \"#utility.yul\":11866:11927   */\n      tag_418\n      jump\t// in\n    tag_587:\n        /* \"#utility.yul\":11859:11927   */\n      swap4\n      pop\n        /* \"#utility.yul\":11936:12001   */\n      tag_588\n        /* \"#utility.yul\":11994:12000   */\n      dup2\n        /* \"#utility.yul\":11989:11992   */\n      dup6\n        /* \"#utility.yul\":11982:11986   */\n      0x20\n        /* \"#utility.yul\":11975:11980   */\n      dup7\n        /* \"#utility.yul\":11971:11987   */\n      add\n        /* \"#utility.yul\":11936:12001   */\n      tag_419\n      jump\t// in\n    tag_588:\n        /* \"#utility.yul\":12026:12055   */\n      tag_589\n        /* \"#utility.yul\":12048:12054   */\n      dup2\n        /* \"#utility.yul\":12026:12055   */\n      tag_409\n      jump\t// in\n    tag_589:\n        /* \"#utility.yul\":12021:12024   */\n      dup5\n        /* \"#utility.yul\":12017:12056   */\n      add\n        /* \"#utility.yul\":12010:12056   */\n      swap2\n      pop\n        /* \"#utility.yul\":11787:12062   */\n      pop\n        /* \"#utility.yul\":11705:12062   */\n      swap3\n      swap2\n      pop\n      pop\n      jump\t// out\n        /* \"#utility.yul\":12068:12205   */\n    tag_421:\n        /* \"#utility.yul\":12158:12164   */\n      0x00\n        /* \"#utility.yul\":12192:12197   */\n      dup2\n        /* \"#utility.yul\":12186:12198   */\n      mload\n        /* \"#utility.yul\":12176:12198   */\n      swap1\n      pop\n        /* \"#utility.yul\":12068:12205   */\n      swap2\n      swap1\n      pop\n      jump\t// out\n        /* \"#utility.yul\":12211:12408   */\n    tag_422:\n        /* \"#utility.yul\":12323:12334   */\n      0x00\n        /* \"#utility.yul\":12357:12363   */\n      dup3\n        /* \"#utility.yul\":12352:12355   */\n      dup3\n        /* \"#utility.yul\":12345:12364   */\n      mstore\n        /* \"#utility.yul\":12397:12401   */\n      0x20\n        /* \"#utility.yul\":12392:12395   */\n      dup3\n        /* \"#utility.yul\":12388:12402   */\n      add\n        /* \"#utility.yul\":12373:12402   */\n      swap1\n      pop\n        /* \"#utility.yul\":12211:12408   */\n      swap3\n      swap2\n      pop\n      pop\n      jump\t// out\n        /* \"#utility.yul\":12414:12569   */\n    tag_423:\n        /* \"#utility.yul\":12504:12508   */\n      0x00\n        /* \"#utility.yul\":12527:12530   */\n      dup2\n        /* \"#utility.yul\":12519:12530   */\n      swap1\n      pop\n        /* \"#utility.yul\":12557:12561   */\n      0x20\n        /* \"#utility.yul\":12552:12555   */\n      dup3\n        /* \"#utility.yul\":12548:12562   */\n      add\n        /* \"#utility.yul\":12540:12562   */\n      swap1\n      pop\n        /* \"#utility.yul\":12414:12569   */\n      swap2\n      swap1\n      pop\n      jump\t// out\n        /* \"#utility.yul\":12611:13116   */\n    tag_424:\n        /* \"#utility.yul\":12744:12748   */\n      0x40\n        /* \"#utility.yul\":12739:12742   */\n      dup3\n        /* \"#utility.yul\":12735:12749   */\n      add\n        /* \"#utility.yul\":12839:12843   */\n      0x00\n        /* \"#utility.yul\":12832:12837   */\n      dup3\n        /* \"#utility.yul\":12828:12844   */\n      add\n        /* \"#utility.yul\":12822:12845   */\n      mload\n        /* \"#utility.yul\":12858:12921   */\n      tag_594\n        /* \"#utility.yul\":12915:12919   */\n      0x00\n        /* \"#utility.yul\":12910:12913   */\n      dup6\n        /* \"#utility.yul\":12906:12920   */\n      add\n        /* \"#utility.yul\":12892:12904   */\n      dup3\n        /* \"#utility.yul\":12858:12921   */\n      tag_395\n      jump\t// in\n    tag_594:\n        /* \"#utility.yul\":12759:12931   */\n      pop\n        /* \"#utility.yul\":13019:13023   */\n      0x20\n        /* \"#utility.yul\":13012:13017   */\n      dup3\n        /* \"#utility.yul\":13008:13024   */\n      add\n        /* \"#utility.yul\":13002:13025   */\n      mload\n        /* \"#utility.yul\":13038:13099   */\n      tag_595\n        /* \"#utility.yul\":13093:13097   */\n      0x20\n        /* \"#utility.yul\":13088:13091   */\n      dup6\n        /* \"#utility.yul\":13084:13098   */\n      add\n        /* \"#utility.yul\":13070:13082   */\n      dup3\n        /* \"#utility.yul\":13038:13099   */\n      tag_399\n      jump\t// in\n    tag_595:\n        /* \"#utility.yul\":12941:13109   */\n      pop\n        /* \"#utility.yul\":12713:13116   */\n      pop\n        /* \"#utility.yul\":12611:13116   */\n      pop\n      pop\n      jump\t// out\n        /* \"#utility.yul\":13122:13393   */\n    tag_425:\n        /* \"#utility.yul\":13237:13247   */\n      0x00\n        /* \"#utility.yul\":13258:13350   */\n      tag_597\n        /* \"#utility.yul\":13346:13349   */\n      dup4\n        /* \"#utility.yul\":13338:13344   */\n      dup4\n        /* \"#utility.yul\":13258:13350   */\n      tag_424\n      jump\t// in\n    tag_597:\n        /* \"#utility.yul\":13382:13386   */\n      0x40\n        /* \"#utility.yul\":13377:13380   */\n      dup4\n        /* \"#utility.yul\":13373:13387   */\n      add\n        /* \"#utility.yul\":13359:13387   */\n      swap1\n      pop\n        /* \"#utility.yul\":13122:13393   */\n      swap3\n      swap2\n      pop\n      pop\n      jump\t// out\n        /* \"#utility.yul\":13399:13535   */\n    tag_426:\n        /* \"#utility.yul\":13492:13496   */\n      0x00\n        /* \"#utility.yul\":13524:13528   */\n      0x20\n        /* \"#utility.yul\":13519:13522   */\n      dup3\n        /* \"#utility.yul\":13515:13529   */\n      add\n        /* \"#utility.yul\":13507:13529   */\n      swap1\n      pop\n        /* \"#utility.yul\":13399:13535   */\n      swap2\n      swap1\n      pop\n      jump\t// out\n        /* \"#utility.yul\":13581:14477   */\n    tag_427:\n        /* \"#utility.yul\":13736:13739   */\n      0x00\n        /* \"#utility.yul\":13765:13842   */\n      tag_600\n        /* \"#utility.yul\":13836:13841   */\n      dup3\n        /* \"#utility.yul\":13765:13842   */\n      tag_421\n      jump\t// in\n    tag_600:\n        /* \"#utility.yul\":13858:13957   */\n      tag_601\n        /* \"#utility.yul\":13950:13956   */\n      dup2\n        /* \"#utility.yul\":13945:13948   */\n      dup6\n        /* \"#utility.yul\":13858:13957   */\n      tag_422\n      jump\t// in\n    tag_601:\n        /* \"#utility.yul\":13851:13957   */\n      swap4\n      pop\n        /* \"#utility.yul\":13981:14060   */\n      tag_602\n        /* \"#utility.yul\":14054:14059   */\n      dup4\n        /* \"#utility.yul\":13981:14060   */\n      tag_423\n      jump\t// in\n    tag_602:\n        /* \"#utility.yul\":14083:14090   */\n      dup1\n        /* \"#utility.yul\":14114:14115   */\n      0x00\n        /* \"#utility.yul\":14099:14452   */\n    tag_603:\n        /* \"#utility.yul\":14124:14130   */\n      dup4\n        /* \"#utility.yul\":14121:14122   */\n      dup2\n        /* \"#utility.yul\":14118:14131   */\n      lt\n        /* \"#utility.yul\":14099:14452   */\n      iszero\n      tag_605\n      jumpi\n        /* \"#utility.yul\":14200:14206   */\n      dup2\n        /* \"#utility.yul\":14194:14207   */\n      mload\n        /* \"#utility.yul\":14227:14336   */\n      tag_606\n        /* \"#utility.yul\":14332:14335   */\n      dup9\n        /* \"#utility.yul\":14317:14330   */\n      dup3\n        /* \"#utility.yul\":14227:14336   */\n      tag_425\n      jump\t// in\n    tag_606:\n        /* \"#utility.yul\":14220:14336   */\n      swap8\n      pop\n        /* \"#utility.yul\":14359:14442   */\n      tag_607\n        /* \"#utility.yul\":14435:14441   */\n      dup4\n        /* \"#utility.yul\":14359:14442   */\n      tag_426\n      jump\t// in\n    tag_607:\n        /* \"#utility.yul\":14349:14442   */\n      swap3\n      pop\n        /* \"#utility.yul\":14159:14452   */\n      pop\n        /* \"#utility.yul\":14146:14147   */\n      0x01\n        /* \"#utility.yul\":14143:14144   */\n      dup2\n        /* \"#utility.yul\":14139:14148   */\n      add\n        /* \"#utility.yul\":14134:14148   */\n      swap1\n      pop\n        /* \"#utility.yul\":14099:14452   */\n      jump(tag_603)\n    tag_605:\n        /* \"#utility.yul\":14103:14117   */\n      pop\n        /* \"#utility.yul\":14468:14471   */\n      dup6\n        /* \"#utility.yul\":14461:14471   */\n      swap4\n      pop\n        /* \"#utility.yul\":13741:14477   */\n      pop\n      pop\n      pop\n        /* \"#utility.yul\":13581:14477   */\n      swap3\n      swap2\n      pop\n      pop\n      jump\t// out\n        /* \"#utility.yul\":14515:15509   */\n    tag_428:\n        /* \"#utility.yul\":14626:14629   */\n      0x00\n        /* \"#utility.yul\":14662:14666   */\n      0x60\n        /* \"#utility.yul\":14657:14660   */\n      dup4\n        /* \"#utility.yul\":14653:14667   */\n      add\n        /* \"#utility.yul\":14749:14753   */\n      0x00\n        /* \"#utility.yul\":14742:14747   */\n      dup4\n        /* \"#utility.yul\":14738:14754   */\n      add\n        /* \"#utility.yul\":14732:14755   */\n      mload\n        /* \"#utility.yul\":14802:14805   */\n      dup5\n        /* \"#utility.yul\":14796:14800   */\n      dup3\n        /* \"#utility.yul\":14792:14806   */\n      sub\n        /* \"#utility.yul\":14785:14789   */\n      0x00\n        /* \"#utility.yul\":14780:14783   */\n      dup7\n        /* \"#utility.yul\":14776:14790   */\n      add\n        /* \"#utility.yul\":14769:14807   */\n      mstore\n        /* \"#utility.yul\":14828:14901   */\n      tag_609\n        /* \"#utility.yul\":14896:14900   */\n      dup3\n        /* \"#utility.yul\":14882:14894   */\n      dup3\n        /* \"#utility.yul\":14828:14901   */\n      tag_420\n      jump\t// in\n    tag_609:\n        /* \"#utility.yul\":14820:14901   */\n      swap2\n      pop\n        /* \"#utility.yul\":14677:14912   */\n      pop\n        /* \"#utility.yul\":14996:15000   */\n      0x20\n        /* \"#utility.yul\":14989:14994   */\n      dup4\n        /* \"#utility.yul\":14985:15001   */\n      add\n        /* \"#utility.yul\":14979:15002   */\n      mload\n        /* \"#utility.yul\":15049:15052   */\n      dup5\n        /* \"#utility.yul\":15043:15047   */\n      dup3\n        /* \"#utility.yul\":15039:15053   */\n      sub\n        /* \"#utility.yul\":15032:15036   */\n      0x20\n        /* \"#utility.yul\":15027:15030   */\n      dup7\n        /* \"#utility.yul\":15023:15037   */\n      add\n        /* \"#utility.yul\":15016:15054   */\n      mstore\n        /* \"#utility.yul\":15075:15148   */\n      tag_610\n        /* \"#utility.yul\":15143:15147   */\n      dup3\n        /* \"#utility.yul\":15129:15141   */\n      dup3\n        /* \"#utility.yul\":15075:15148   */\n      tag_420\n      jump\t// in\n    tag_610:\n        /* \"#utility.yul\":15067:15148   */\n      swap2\n      pop\n        /* \"#utility.yul\":14922:15159   */\n      pop\n        /* \"#utility.yul\":15243:15247   */\n      0x40\n        /* \"#utility.yul\":15236:15241   */\n      dup4\n        /* \"#utility.yul\":15232:15248   */\n      add\n        /* \"#utility.yul\":15226:15249   */\n      mload\n        /* \"#utility.yul\":15296:15299   */\n      dup5\n        /* \"#utility.yul\":15290:15294   */\n      dup3\n        /* \"#utility.yul\":15286:15300   */\n      sub\n        /* \"#utility.yul\":15279:15283   */\n      0x40\n        /* \"#utility.yul\":15274:15277   */\n      dup7\n        /* \"#utility.yul\":15270:15284   */\n      add\n        /* \"#utility.yul\":15263:15301   */\n      mstore\n        /* \"#utility.yul\":15322:15471   */\n      tag_611\n        /* \"#utility.yul\":15466:15470   */\n      dup3\n        /* \"#utility.yul\":15452:15464   */\n      dup3\n        /* \"#utility.yul\":15322:15471   */\n      tag_427\n      jump\t// in\n    tag_611:\n        /* \"#utility.yul\":15314:15471   */\n      swap2\n      pop\n        /* \"#utility.yul\":15169:15482   */\n      pop\n        /* \"#utility.yul\":15499:15503   */\n      dup1\n        /* \"#utility.yul\":15492:15503   */\n      swap2\n      pop\n        /* \"#utility.yul\":14631:15509   */\n      pop\n        /* \"#utility.yul\":14515:15509   */\n      swap3\n      swap2\n      pop\n      pop\n      jump\t// out\n        /* \"#utility.yul\":15515:15661   */\n    tag_429:\n        /* \"#utility.yul\":15614:15620   */\n      0x00\n        /* \"#utility.yul\":15648:15653   */\n      dup2\n        /* \"#utility.yul\":15642:15654   */\n      mload\n        /* \"#utility.yul\":15632:15654   */\n      swap1\n      pop\n        /* \"#utility.yul\":15515:15661   */\n      swap2\n      swap1\n      pop\n      jump\t// out\n        /* \"#utility.yul\":15667:15883   */\n    tag_430:\n        /* \"#utility.yul\":15798:15809   */\n      0x00\n        /* \"#utility.yul\":15832:15838   */\n      dup3\n        /* \"#utility.yul\":15827:15830   */\n      dup3\n        /* \"#utility.yul\":15820:15839   */\n      mstore\n        /* \"#utility.yul\":15872:15876   */\n      0x20\n        /* \"#utility.yul\":15867:15870   */\n      dup3\n        /* \"#utility.yul\":15863:15877   */\n      add\n        /* \"#utility.yul\":15848:15877   */\n      swap1\n      pop\n        /* \"#utility.yul\":15667:15883   */\n      swap3\n      swap2\n      pop\n      pop\n      jump\t// out\n        /* \"#utility.yul\":15889:16053   */\n    tag_431:\n        /* \"#utility.yul\":15988:15992   */\n      0x00\n        /* \"#utility.yul\":16011:16014   */\n      dup2\n        /* \"#utility.yul\":16003:16014   */\n      swap1\n      pop\n        /* \"#utility.yul\":16041:16045   */\n      0x20\n        /* \"#utility.yul\":16036:16039   */\n      dup3\n        /* \"#utility.yul\":16032:16046   */\n      add\n        /* \"#utility.yul\":16024:16046   */\n      swap1\n      pop\n        /* \"#utility.yul\":15889:16053   */\n      swap2\n      swap1\n      pop\n      jump\t// out\n        /* \"#utility.yul\":16115:17749   */\n    tag_432:\n        /* \"#utility.yul\":16266:16272   */\n      0x0100\n        /* \"#utility.yul\":16261:16264   */\n      dup3\n        /* \"#utility.yul\":16257:16273   */\n      add\n        /* \"#utility.yul\":16363:16367   */\n      0x00\n        /* \"#utility.yul\":16356:16361   */\n      dup3\n        /* \"#utility.yul\":16352:16368   */\n      add\n        /* \"#utility.yul\":16346:16369   */\n      mload\n        /* \"#utility.yul\":16382:16445   */\n      tag_616\n        /* \"#utility.yul\":16439:16443   */\n      0x00\n        /* \"#utility.yul\":16434:16437   */\n      dup6\n        /* \"#utility.yul\":16430:16444   */\n      add\n        /* \"#utility.yul\":16416:16428   */\n      dup3\n        /* \"#utility.yul\":16382:16445   */\n      tag_395\n      jump\t// in\n    tag_616:\n        /* \"#utility.yul\":16283:16455   */\n      pop\n        /* \"#utility.yul\":16546:16550   */\n      0x20\n        /* \"#utility.yul\":16539:16544   */\n      dup3\n        /* \"#utility.yul\":16535:16551   */\n      add\n        /* \"#utility.yul\":16529:16552   */\n      mload\n        /* \"#utility.yul\":16565:16624   */\n      tag_617\n        /* \"#utility.yul\":16618:16622   */\n      0x20\n        /* \"#utility.yul\":16613:16616   */\n      dup6\n        /* \"#utility.yul\":16609:16623   */\n      add\n        /* \"#utility.yul\":16595:16607   */\n      dup3\n        /* \"#utility.yul\":16565:16624   */\n      tag_397\n      jump\t// in\n    tag_617:\n        /* \"#utility.yul\":16465:16634   */\n      pop\n        /* \"#utility.yul\":16725:16729   */\n      0x40\n        /* \"#utility.yul\":16718:16723   */\n      dup3\n        /* \"#utility.yul\":16714:16730   */\n      add\n        /* \"#utility.yul\":16708:16731   */\n      mload\n        /* \"#utility.yul\":16744:16805   */\n      tag_618\n        /* \"#utility.yul\":16799:16803   */\n      0x40\n        /* \"#utility.yul\":16794:16797   */\n      dup6\n        /* \"#utility.yul\":16790:16804   */\n      add\n        /* \"#utility.yul\":16776:16788   */\n      dup3\n        /* \"#utility.yul\":16744:16805   */\n      tag_399\n      jump\t// in\n    tag_618:\n        /* \"#utility.yul\":16644:16815   */\n      pop\n        /* \"#utility.yul\":16908:16912   */\n      0x60\n        /* \"#utility.yul\":16901:16906   */\n      dup3\n        /* \"#utility.yul\":16897:16913   */\n      add\n        /* \"#utility.yul\":16891:16914   */\n      mload\n        /* \"#utility.yul\":16927:16990   */\n      tag_619\n        /* \"#utility.yul\":16984:16988   */\n      0x60\n        /* \"#utility.yul\":16979:16982   */\n      dup6\n        /* \"#utility.yul\":16975:16989   */\n      add\n        /* \"#utility.yul\":16961:16973   */\n      dup3\n        /* \"#utility.yul\":16927:16990   */\n      tag_400\n      jump\t// in\n    tag_619:\n        /* \"#utility.yul\":16825:17000   */\n      pop\n        /* \"#utility.yul\":17094:17098   */\n      0x80\n        /* \"#utility.yul\":17087:17092   */\n      dup3\n        /* \"#utility.yul\":17083:17099   */\n      add\n        /* \"#utility.yul\":17077:17100   */\n      mload\n        /* \"#utility.yul\":17113:17176   */\n      tag_620\n        /* \"#utility.yul\":17170:17174   */\n      0x80\n        /* \"#utility.yul\":17165:17168   */\n      dup6\n        /* \"#utility.yul\":17161:17175   */\n      add\n        /* \"#utility.yul\":17147:17159   */\n      dup3\n        /* \"#utility.yul\":17113:17176   */\n      tag_400\n      jump\t// in\n    tag_620:\n        /* \"#utility.yul\":17010:17186   */\n      pop\n        /* \"#utility.yul\":17279:17283   */\n      0xa0\n        /* \"#utility.yul\":17272:17277   */\n      dup3\n        /* \"#utility.yul\":17268:17284   */\n      add\n        /* \"#utility.yul\":17262:17285   */\n      mload\n        /* \"#utility.yul\":17298:17361   */\n      tag_621\n        /* \"#utility.yul\":17355:17359   */\n      0xa0\n        /* \"#utility.yul\":17350:17353   */\n      dup6\n        /* \"#utility.yul\":17346:17360   */\n      add\n        /* \"#utility.yul\":17332:17344   */\n      dup3\n        /* \"#utility.yul\":17298:17361   */\n      tag_400\n      jump\t// in\n    tag_621:\n        /* \"#utility.yul\":17196:17371   */\n      pop\n        /* \"#utility.yul\":17465:17469   */\n      0xc0\n        /* \"#utility.yul\":17458:17463   */\n      dup3\n        /* \"#utility.yul\":17454:17470   */\n      add\n        /* \"#utility.yul\":17448:17471   */\n      mload\n        /* \"#utility.yul\":17484:17547   */\n      tag_622\n        /* \"#utility.yul\":17541:17545   */\n      0xc0\n        /* \"#utility.yul\":17536:17539   */\n      dup6\n        /* \"#utility.yul\":17532:17546   */\n      add\n        /* \"#utility.yul\":17518:17530   */\n      dup3\n        /* \"#utility.yul\":17484:17547   */\n      tag_400\n      jump\t// in\n    tag_622:\n        /* \"#utility.yul\":17381:17557   */\n      pop\n        /* \"#utility.yul\":17650:17654   */\n      0xe0\n        /* \"#utility.yul\":17643:17648   */\n      dup3\n        /* \"#utility.yul\":17639:17655   */\n      add\n        /* \"#utility.yul\":17633:17656   */\n      mload\n        /* \"#utility.yul\":17669:17732   */\n      tag_623\n        /* \"#utility.yul\":17726:17730   */\n      0xe0\n        /* \"#utility.yul\":17721:17724   */\n      dup6\n        /* \"#utility.yul\":17717:17731   */\n      add\n        /* \"#utility.yul\":17703:17715   */\n      dup3\n        /* \"#utility.yul\":17669:17732   */\n      tag_400\n      jump\t// in\n    tag_623:\n        /* \"#utility.yul\":17567:17742   */\n      pop\n        /* \"#utility.yul\":16235:17749   */\n      pop\n        /* \"#utility.yul\":16115:17749   */\n      pop\n      pop\n      jump\t// out\n        /* \"#utility.yul\":17755:18064   */\n    tag_433:\n        /* \"#utility.yul\":17888:17898   */\n      0x00\n        /* \"#utility.yul\":17909:18019   */\n      tag_625\n        /* \"#utility.yul\":18015:18018   */\n      dup4\n        /* \"#utility.yul\":18007:18013   */\n      dup4\n        /* \"#utility.yul\":17909:18019   */\n      tag_432\n      jump\t// in\n    tag_625:\n        /* \"#utility.yul\":18051:18057   */\n      0x0100\n        /* \"#utility.yul\":18046:18049   */\n      dup4\n        /* \"#utility.yul\":18042:18058   */\n      add\n        /* \"#utility.yul\":18028:18058   */\n      swap1\n      pop\n        /* \"#utility.yul\":17755:18064   */\n      swap3\n      swap2\n      pop\n      pop\n      jump\t// out\n        /* \"#utility.yul\":18070:18215   */\n    tag_434:\n        /* \"#utility.yul\":18172:18176   */\n      0x00\n        /* \"#utility.yul\":18204:18208   */\n      0x20\n        /* \"#utility.yul\":18199:18202   */\n      dup3\n        /* \"#utility.yul\":18195:18209   */\n      add\n        /* \"#utility.yul\":18187:18209   */\n      swap1\n      pop\n        /* \"#utility.yul\":18070:18215   */\n      swap2\n      swap1\n      pop\n      jump\t// out\n        /* \"#utility.yul\":18281:19269   */\n    tag_435:\n        /* \"#utility.yul\":18464:18467   */\n      0x00\n        /* \"#utility.yul\":18493:18579   */\n      tag_628\n        /* \"#utility.yul\":18573:18578   */\n      dup3\n        /* \"#utility.yul\":18493:18579   */\n      tag_429\n      jump\t// in\n    tag_628:\n        /* \"#utility.yul\":18595:18713   */\n      tag_629\n        /* \"#utility.yul\":18706:18712   */\n      dup2\n        /* \"#utility.yul\":18701:18704   */\n      dup6\n        /* \"#utility.yul\":18595:18713   */\n      tag_430\n      jump\t// in\n    tag_629:\n        /* \"#utility.yul\":18588:18713   */\n      swap4\n      pop\n        /* \"#utility.yul\":18737:18825   */\n      tag_630\n        /* \"#utility.yul\":18819:18824   */\n      dup4\n        /* \"#utility.yul\":18737:18825   */\n      tag_431\n      jump\t// in\n    tag_630:\n        /* \"#utility.yul\":18848:18855   */\n      dup1\n        /* \"#utility.yul\":18879:18880   */\n      0x00\n        /* \"#utility.yul\":18864:19244   */\n    tag_631:\n        /* \"#utility.yul\":18889:18895   */\n      dup4\n        /* \"#utility.yul\":18886:18887   */\n      dup2\n        /* \"#utility.yul\":18883:18896   */\n      lt\n        /* \"#utility.yul\":18864:19244   */\n      iszero\n      tag_633\n      jumpi\n        /* \"#utility.yul\":18965:18971   */\n      dup2\n        /* \"#utility.yul\":18959:18972   */\n      mload\n        /* \"#utility.yul\":18992:19119   */\n      tag_634\n        /* \"#utility.yul\":19115:19118   */\n      dup9\n        /* \"#utility.yul\":19100:19113   */\n      dup3\n        /* \"#utility.yul\":18992:19119   */\n      tag_433\n      jump\t// in\n    tag_634:\n        /* \"#utility.yul\":18985:19119   */\n      swap8\n      pop\n        /* \"#utility.yul\":19142:19234   */\n      tag_635\n        /* \"#utility.yul\":19227:19233   */\n      dup4\n        /* \"#utility.yul\":19142:19234   */\n      tag_434\n      jump\t// in\n    tag_635:\n        /* \"#utility.yul\":19132:19234   */\n      swap3\n      pop\n        /* \"#utility.yul\":18924:19244   */\n      pop\n        /* \"#utility.yul\":18911:18912   */\n      0x01\n        /* \"#utility.yul\":18908:18909   */\n      dup2\n        /* \"#utility.yul\":18904:18913   */\n      add\n        /* \"#utility.yul\":18899:18913   */\n      swap1\n      pop\n        /* \"#utility.yul\":18864:19244   */\n      jump(tag_631)\n    tag_633:\n        /* \"#utility.yul\":18868:18882   */\n      pop\n        /* \"#utility.yul\":19260:19263   */\n      dup6\n        /* \"#utility.yul\":19253:19263   */\n      swap4\n      pop\n        /* \"#utility.yul\":18469:19269   */\n      pop\n      pop\n      pop\n        /* \"#utility.yul\":18281:19269   */\n      swap3\n      swap2\n      pop\n      pop\n      jump\t// out\n        /* \"#utility.yul\":19275:20447   */\n    tag_42:\n        /* \"#utility.yul\":19682:19686   */\n      0x00\n        /* \"#utility.yul\":19720:19723   */\n      0x0180\n        /* \"#utility.yul\":19709:19718   */\n      dup3\n        /* \"#utility.yul\":19705:19724   */\n      add\n        /* \"#utility.yul\":19697:19724   */\n      swap1\n      pop\n        /* \"#utility.yul\":19770:19779   */\n      dup2\n        /* \"#utility.yul\":19764:19768   */\n      dup2\n        /* \"#utility.yul\":19760:19780   */\n      sub\n        /* \"#utility.yul\":19756:19757   */\n      0x00\n        /* \"#utility.yul\":19745:19754   */\n      dup4\n        /* \"#utility.yul\":19741:19758   */\n      add\n        /* \"#utility.yul\":19734:19781   */\n      mstore\n        /* \"#utility.yul\":19798:19898   */\n      tag_637\n        /* \"#utility.yul\":19893:19897   */\n      dup2\n        /* \"#utility.yul\":19884:19890   */\n      dup9\n        /* \"#utility.yul\":19798:19898   */\n      tag_428\n      jump\t// in\n    tag_637:\n        /* \"#utility.yul\":19790:19898   */\n      swap1\n      pop\n        /* \"#utility.yul\":19908:20026   */\n      tag_638\n        /* \"#utility.yul\":20022:20024   */\n      0x20\n        /* \"#utility.yul\":20011:20020   */\n      dup4\n        /* \"#utility.yul\":20007:20025   */\n      add\n        /* \"#utility.yul\":19998:20004   */\n      dup8\n        /* \"#utility.yul\":19908:20026   */\n      tag_406\n      jump\t// in\n    tag_638:\n        /* \"#utility.yul\":20074:20083   */\n      dup2\n        /* \"#utility.yul\":20068:20072   */\n      dup2\n        /* \"#utility.yul\":20064:20084   */\n      sub\n        /* \"#utility.yul\":20058:20061   */\n      0x0120\n        /* \"#utility.yul\":20047:20056   */\n      dup4\n        /* \"#utility.yul\":20043:20062   */\n      add\n        /* \"#utility.yul\":20036:20085   */\n      mstore\n        /* \"#utility.yul\":20102:20274   */\n      tag_639\n        /* \"#utility.yul\":20269:20273   */\n      dup2\n        /* \"#utility.yul\":20260:20266   */\n      dup7\n        /* \"#utility.yul\":20102:20274   */\n      tag_435\n      jump\t// in\n    tag_639:\n        /* \"#utility.yul\":20094:20274   */\n      swap1\n      pop\n        /* \"#utility.yul\":20284:20357   */\n      tag_640\n        /* \"#utility.yul\":20352:20355   */\n      0x0140\n        /* \"#utility.yul\":20341:20350   */\n      dup4\n        /* \"#utility.yul\":20337:20356   */\n      add\n        /* \"#utility.yul\":20328:20334   */\n      dup6\n        /* \"#utility.yul\":20284:20357   */\n      tag_389\n      jump\t// in\n    tag_640:\n        /* \"#utility.yul\":20367:20440   */\n      tag_641\n        /* \"#utility.yul\":20435:20438   */\n      0x0160\n        /* \"#utility.yul\":20424:20433   */\n      dup4\n        /* \"#utility.yul\":20420:20439   */\n      add\n        /* \"#utility.yul\":20411:20417   */\n      dup5\n        /* \"#utility.yul\":20367:20440   */\n      tag_389\n      jump\t// in\n    tag_641:\n        /* \"#utility.yul\":19275:20447   */\n      swap7\n      swap6\n      pop\n      pop\n      pop\n      pop\n      pop\n      pop\n      jump\t// out\n        /* \"#utility.yul\":20453:20513   */\n    tag_436:\n        /* \"#utility.yul\":20481:20484   */\n      0x00\n        /* \"#utility.yul\":20502:20507   */\n      dup2\n        /* \"#utility.yul\":20495:20507   */\n      swap1\n      pop\n        /* \"#utility.yul\":20453:20513   */\n      swap2\n      swap1\n      pop\n      jump\t// out\n        /* \"#utility.yul\":20519:20661   */\n    tag_437:\n        /* \"#utility.yul\":20569:20578   */\n      0x00\n        /* \"#utility.yul\":20602:20655   */\n      tag_644\n        /* \"#utility.yul\":20620:20654   */\n      tag_645\n        /* \"#utility.yul\":20629:20653   */\n      tag_646\n        /* \"#utility.yul\":20647:20652   */\n      dup5\n        /* \"#utility.yul\":20629:20653   */\n      tag_393\n      jump\t// in\n    tag_646:\n        /* \"#utility.yul\":20620:20654   */\n      tag_436\n      jump\t// in\n    tag_645:\n        /* \"#utility.yul\":20602:20655   */\n      tag_393\n      jump\t// in\n    tag_644:\n        /* \"#utility.yul\":20589:20655   */\n      swap1\n      pop\n        /* \"#utility.yul\":20519:20661   */\n      swap2\n      swap1\n      pop\n      jump\t// out\n        /* \"#utility.yul\":20667:20793   */\n    tag_438:\n        /* \"#utility.yul\":20717:20726   */\n      0x00\n        /* \"#utility.yul\":20750:20787   */\n      tag_648\n        /* \"#utility.yul\":20781:20786   */\n      dup3\n        /* \"#utility.yul\":20750:20787   */\n      tag_437\n      jump\t// in\n    tag_648:\n        /* \"#utility.yul\":20737:20787   */\n      swap1\n      pop\n        /* \"#utility.yul\":20667:20793   */\n      swap2\n      swap1\n      pop\n      jump\t// out\n        /* \"#utility.yul\":20799:20942   */\n    tag_439:\n        /* \"#utility.yul\":20866:20875   */\n      0x00\n        /* \"#utility.yul\":20899:20936   */\n      tag_650\n        /* \"#utility.yul\":20930:20935   */\n      dup3\n        /* \"#utility.yul\":20899:20936   */\n      tag_438\n      jump\t// in\n    tag_650:\n        /* \"#utility.yul\":20886:20936   */\n      swap1\n      pop\n        /* \"#utility.yul\":20799:20942   */\n      swap2\n      swap1\n      pop\n      jump\t// out\n        /* \"#utility.yul\":20948:21113   */\n    tag_440:\n        /* \"#utility.yul\":21052:21106   */\n      tag_652\n        /* \"#utility.yul\":21100:21105   */\n      dup2\n        /* \"#utility.yul\":21052:21106   */\n      tag_439\n      jump\t// in\n    tag_652:\n        /* \"#utility.yul\":21047:21050   */\n      dup3\n        /* \"#utility.yul\":21040:21107   */\n      mstore\n        /* \"#utility.yul\":20948:21113   */\n      pop\n      pop\n      jump\t// out\n        /* \"#utility.yul\":21119:21375   */\n    tag_46:\n        /* \"#utility.yul\":21229:21233   */\n      0x00\n        /* \"#utility.yul\":21267:21269   */\n      0x20\n        /* \"#utility.yul\":21256:21265   */\n      dup3\n        /* \"#utility.yul\":21252:21270   */\n      add\n        /* \"#utility.yul\":21244:21270   */\n      swap1\n      pop\n        /* \"#utility.yul\":21280:21368   */\n      tag_654\n        /* \"#utility.yul\":21365:21366   */\n      0x00\n        /* \"#utility.yul\":21354:21363   */\n      dup4\n        /* \"#utility.yul\":21350:21367   */\n      add\n        /* \"#utility.yul\":21341:21347   */\n      dup5\n        /* \"#utility.yul\":21280:21368   */\n      tag_440\n      jump\t// in\n    tag_654:\n        /* \"#utility.yul\":21119:21375   */\n      swap3\n      swap2\n      pop\n      pop\n      jump\t// out\n        /* \"#utility.yul\":21381:21713   */\n    tag_51:\n        /* \"#utility.yul\":21502:21506   */\n      0x00\n        /* \"#utility.yul\":21540:21542   */\n      0x40\n        /* \"#utility.yul\":21529:21538   */\n      dup3\n        /* \"#utility.yul\":21525:21543   */\n      add\n        /* \"#utility.yul\":21517:21543   */\n      swap1\n      pop\n        /* \"#utility.yul\":21553:21624   */\n      tag_656\n        /* \"#utility.yul\":21621:21622   */\n      0x00\n        /* \"#utility.yul\":21610:21619   */\n      dup4\n        /* \"#utility.yul\":21606:21623   */\n      add\n        /* \"#utility.yul\":21597:21603   */\n      dup6\n        /* \"#utility.yul\":21553:21624   */\n      tag_389\n      jump\t// in\n    tag_656:\n        /* \"#utility.yul\":21634:21706   */\n      tag_657\n        /* \"#utility.yul\":21702:21704   */\n      0x20\n        /* \"#utility.yul\":21691:21700   */\n      dup4\n        /* \"#utility.yul\":21687:21705   */\n      add\n        /* \"#utility.yul\":21678:21684   */\n      dup5\n        /* \"#utility.yul\":21634:21706   */\n      tag_389\n      jump\t// in\n    tag_657:\n        /* \"#utility.yul\":21381:21713   */\n      swap4\n      swap3\n      pop\n      pop\n      pop\n      jump\t// out\n        /* \"#utility.yul\":21719:21841   */\n    tag_441:\n        /* \"#utility.yul\":21792:21816   */\n      tag_659\n        /* \"#utility.yul\":21810:21815   */\n      dup2\n        /* \"#utility.yul\":21792:21816   */\n      tag_394\n      jump\t// in\n    tag_659:\n        /* \"#utility.yul\":21785:21790   */\n      dup2\n        /* \"#utility.yul\":21782:21817   */\n      eq\n        /* \"#utility.yul\":21772:21835   */\n      tag_660\n      jumpi\n        /* \"#utility.yul\":21831:21832   */\n      0x00\n        /* \"#utility.yul\":21828:21829   */\n      0x00\n        /* \"#utility.yul\":21821:21833   */\n      revert\n        /* \"#utility.yul\":21772:21835   */\n    tag_660:\n        /* \"#utility.yul\":21719:21841   */\n      pop\n      jump\t// out\n        /* \"#utility.yul\":21847:21986   */\n    tag_442:\n        /* \"#utility.yul\":21893:21898   */\n      0x00\n        /* \"#utility.yul\":21931:21937   */\n      dup2\n        /* \"#utility.yul\":21918:21938   */\n      calldataload\n        /* \"#utility.yul\":21909:21938   */\n      swap1\n      pop\n        /* \"#utility.yul\":21947:21980   */\n      tag_662\n        /* \"#utility.yul\":21974:21979   */\n      dup2\n        /* \"#utility.yul\":21947:21980   */\n      tag_441\n      jump\t// in\n    tag_662:\n        /* \"#utility.yul\":21847:21986   */\n      swap3\n      swap2\n      pop\n      pop\n      jump\t// out\n        /* \"#utility.yul\":21992:22321   */\n    tag_61:\n        /* \"#utility.yul\":22051:22057   */\n      0x00\n        /* \"#utility.yul\":22100:22102   */\n      0x20\n        /* \"#utility.yul\":22088:22097   */\n      dup3\n        /* \"#utility.yul\":22079:22086   */\n      dup5\n        /* \"#utility.yul\":22075:22098   */\n      sub\n        /* \"#utility.yul\":22071:22103   */\n      slt\n        /* \"#utility.yul\":22068:22187   */\n      iszero\n      tag_664\n      jumpi\n        /* \"#utility.yul\":22106:22185   */\n      tag_665\n      tag_384\n      jump\t// in\n    tag_665:\n        /* \"#utility.yul\":22068:22187   */\n    tag_664:\n        /* \"#utility.yul\":22226:22227   */\n      0x00\n        /* \"#utility.yul\":22251:22304   */\n      tag_666\n        /* \"#utility.yul\":22296:22303   */\n      dup5\n        /* \"#utility.yul\":22287:22293   */\n      dup3\n        /* \"#utility.yul\":22276:22285   */\n      dup6\n        /* \"#utility.yul\":22272:22294   */\n      add\n        /* \"#utility.yul\":22251:22304   */\n      tag_442\n      jump\t// in\n    tag_666:\n        /* \"#utility.yul\":22241:22304   */\n      swap2\n      pop\n        /* \"#utility.yul\":22197:22314   */\n      pop\n        /* \"#utility.yul\":21992:22321   */\n      swap3\n      swap2\n      pop\n      pop\n      jump\t// out\n        /* \"#utility.yul\":22327:23048   */\n    tag_67:\n        /* \"#utility.yul\":22590:22594   */\n      0x00\n        /* \"#utility.yul\":22628:22630   */\n      0x60\n        /* \"#utility.yul\":22617:22626   */\n      dup3\n        /* \"#utility.yul\":22613:22631   */\n      add\n        /* \"#utility.yul\":22605:22631   */\n      swap1\n      pop\n        /* \"#utility.yul\":22677:22686   */\n      dup2\n        /* \"#utility.yul\":22671:22675   */\n      dup2\n        /* \"#utility.yul\":22667:22687   */\n      sub\n        /* \"#utility.yul\":22663:22664   */\n      0x00\n        /* \"#utility.yul\":22652:22661   */\n      dup4\n        /* \"#utility.yul\":22648:22665   */\n      add\n        /* \"#utility.yul\":22641:22688   */\n      mstore\n        /* \"#utility.yul\":22705:22877   */\n      tag_668\n        /* \"#utility.yul\":22872:22876   */\n      dup2\n        /* \"#utility.yul\":22863:22869   */\n      dup7\n        /* \"#utility.yul\":22705:22877   */\n      tag_435\n      jump\t// in\n    tag_668:\n        /* \"#utility.yul\":22697:22877   */\n      swap1\n      pop\n        /* \"#utility.yul\":22887:22959   */\n      tag_669\n        /* \"#utility.yul\":22955:22957   */\n      0x20\n        /* \"#utility.yul\":22944:22953   */\n      dup4\n        /* \"#utility.yul\":22940:22958   */\n      add\n        /* \"#utility.yul\":22931:22937   */\n      dup6\n        /* \"#utility.yul\":22887:22959   */\n      tag_389\n      jump\t// in\n    tag_669:\n        /* \"#utility.yul\":22969:23041   */\n      tag_670\n        /* \"#utility.yul\":23037:23039   */\n      0x40\n        /* \"#utility.yul\":23026:23035   */\n      dup4\n        /* \"#utility.yul\":23022:23040   */\n      add\n        /* \"#utility.yul\":23013:23019   */\n      dup5\n        /* \"#utility.yul\":22969:23041   */\n      tag_389\n      jump\t// in\n    tag_670:\n        /* \"#utility.yul\":22327:23048   */\n      swap5\n      swap4\n      pop\n      pop\n      pop\n      pop\n      jump\t// out\n        /* \"#utility.yul\":23054:23171   */\n    tag_443:\n        /* \"#utility.yul\":23163:23164   */\n      0x00\n        /* \"#utility.yul\":23160:23161   */\n      0x00\n        /* \"#utility.yul\":23153:23165   */\n      revert\n        /* \"#utility.yul\":23177:23294   */\n    tag_444:\n        /* \"#utility.yul\":23286:23287   */\n      0x00\n        /* \"#utility.yul\":23283:23284   */\n      0x00\n        /* \"#utility.yul\":23276:23288   */\n      revert\n        /* \"#utility.yul\":23300:23634   */\n    tag_445:\n        /* \"#utility.yul\":23400:23404   */\n      0x00\n        /* \"#utility.yul\":23490:23508   */\n      0xffffffffffffffff\n        /* \"#utility.yul\":23482:23488   */\n      dup3\n        /* \"#utility.yul\":23479:23509   */\n      gt\n        /* \"#utility.yul\":23476:23532   */\n      iszero\n      tag_674\n      jumpi\n        /* \"#utility.yul\":23512:23530   */\n      tag_675\n      tag_198\n      jump\t// in\n    tag_675:\n        /* \"#utility.yul\":23476:23532   */\n    tag_674:\n        /* \"#utility.yul\":23562:23566   */\n      0x20\n        /* \"#utility.yul\":23554:23560   */\n      dup3\n        /* \"#utility.yul\":23550:23567   */\n      mul\n        /* \"#utility.yul\":23542:23567   */\n      swap1\n      pop\n        /* \"#utility.yul\":23622:23626   */\n      0x20\n        /* \"#utility.yul\":23616:23620   */\n      dup2\n        /* \"#utility.yul\":23612:23627   */\n      add\n        /* \"#utility.yul\":23604:23627   */\n      swap1\n      pop\n        /* \"#utility.yul\":23300:23634   */\n      swap2\n      swap1\n      pop\n      jump\t// out\n        /* \"#utility.yul\":23640:23757   */\n    tag_446:\n        /* \"#utility.yul\":23749:23750   */\n      0x00\n        /* \"#utility.yul\":23746:23747   */\n      0x00\n        /* \"#utility.yul\":23739:23751   */\n      revert\n        /* \"#utility.yul\":23763:23883   */\n    tag_447:\n        /* \"#utility.yul\":23835:23858   */\n      tag_678\n        /* \"#utility.yul\":23852:23857   */\n      dup2\n        /* \"#utility.yul\":23835:23858   */\n      tag_398\n      jump\t// in\n    tag_678:\n        /* \"#utility.yul\":23828:23833   */\n      dup2\n        /* \"#utility.yul\":23825:23859   */\n      eq\n        /* \"#utility.yul\":23815:23877   */\n      tag_679\n      jumpi\n        /* \"#utility.yul\":23873:23874   */\n      0x00\n        /* \"#utility.yul\":23870:23871   */\n      0x00\n        /* \"#utility.yul\":23863:23875   */\n      revert\n        /* \"#utility.yul\":23815:23877   */\n    tag_679:\n        /* \"#utility.yul\":23763:23883   */\n      pop\n      jump\t// out\n        /* \"#utility.yul\":23889:24026   */\n    tag_448:\n        /* \"#utility.yul\":23934:23939   */\n      0x00\n        /* \"#utility.yul\":23972:23978   */\n      dup2\n        /* \"#utility.yul\":23959:23979   */\n      calldataload\n        /* \"#utility.yul\":23950:23979   */\n      swap1\n      pop\n        /* \"#utility.yul\":23988:24020   */\n      tag_681\n        /* \"#utility.yul\":24014:24019   */\n      dup2\n        /* \"#utility.yul\":23988:24020   */\n      tag_447\n      jump\t// in\n    tag_681:\n        /* \"#utility.yul\":23889:24026   */\n      swap3\n      swap2\n      pop\n      pop\n      jump\t// out\n        /* \"#utility.yul\":24052:24637   */\n    tag_449:\n        /* \"#utility.yul\":24124:24129   */\n      0x00\n        /* \"#utility.yul\":24168:24172   */\n      0x40\n        /* \"#utility.yul\":24156:24165   */\n      dup3\n        /* \"#utility.yul\":24151:24154   */\n      dup5\n        /* \"#utility.yul\":24147:24166   */\n      sub\n        /* \"#utility.yul\":24143:24173   */\n      slt\n        /* \"#utility.yul\":24140:24257   */\n      iszero\n      tag_683\n      jumpi\n        /* \"#utility.yul\":24176:24255   */\n      tag_684\n      tag_443\n      jump\t// in\n    tag_684:\n        /* \"#utility.yul\":24140:24257   */\n    tag_683:\n        /* \"#utility.yul\":24275:24296   */\n      tag_685\n        /* \"#utility.yul\":24291:24295   */\n      0x40\n        /* \"#utility.yul\":24275:24296   */\n      tag_411\n      jump\t// in\n    tag_685:\n        /* \"#utility.yul\":24266:24296   */\n      swap1\n      pop\n        /* \"#utility.yul\":24363:24364   */\n      0x00\n        /* \"#utility.yul\":24403:24452   */\n      tag_686\n        /* \"#utility.yul\":24448:24451   */\n      dup5\n        /* \"#utility.yul\":24439:24445   */\n      dup3\n        /* \"#utility.yul\":24428:24437   */\n      dup6\n        /* \"#utility.yul\":24424:24446   */\n      add\n        /* \"#utility.yul\":24403:24452   */\n      tag_442\n      jump\t// in\n    tag_686:\n        /* \"#utility.yul\":24396:24400   */\n      0x00\n        /* \"#utility.yul\":24389:24394   */\n      dup4\n        /* \"#utility.yul\":24385:24401   */\n      add\n        /* \"#utility.yul\":24378:24453   */\n      mstore\n        /* \"#utility.yul\":24306:24464   */\n      pop\n        /* \"#utility.yul\":24529:24531   */\n      0x20\n        /* \"#utility.yul\":24570:24618   */\n      tag_687\n        /* \"#utility.yul\":24614:24617   */\n      dup5\n        /* \"#utility.yul\":24605:24611   */\n      dup3\n        /* \"#utility.yul\":24594:24603   */\n      dup6\n        /* \"#utility.yul\":24590:24612   */\n      add\n        /* \"#utility.yul\":24570:24618   */\n      tag_448\n      jump\t// in\n    tag_687:\n        /* \"#utility.yul\":24563:24567   */\n      0x20\n        /* \"#utility.yul\":24556:24561   */\n      dup4\n        /* \"#utility.yul\":24552:24568   */\n      add\n        /* \"#utility.yul\":24545:24619   */\n      mstore\n        /* \"#utility.yul\":24474:24630   */\n      pop\n        /* \"#utility.yul\":24052:24637   */\n      swap3\n      swap2\n      pop\n      pop\n      jump\t// out\n        /* \"#utility.yul\":24665:25444   */\n    tag_450:\n        /* \"#utility.yul\":24784:24789   */\n      0x00\n        /* \"#utility.yul\":24809:24913   */\n      tag_689\n        /* \"#utility.yul\":24825:24912   */\n      tag_690\n        /* \"#utility.yul\":24905:24911   */\n      dup5\n        /* \"#utility.yul\":24825:24912   */\n      tag_445\n      jump\t// in\n    tag_690:\n        /* \"#utility.yul\":24809:24913   */\n      tag_411\n      jump\t// in\n    tag_689:\n        /* \"#utility.yul\":24800:24913   */\n      swap1\n      pop\n        /* \"#utility.yul\":24933:24938   */\n      dup1\n        /* \"#utility.yul\":24962:24968   */\n      dup4\n        /* \"#utility.yul\":24955:24960   */\n      dup3\n        /* \"#utility.yul\":24948:24969   */\n      mstore\n        /* \"#utility.yul\":24996:25000   */\n      0x20\n        /* \"#utility.yul\":24989:24994   */\n      dup3\n        /* \"#utility.yul\":24985:25001   */\n      add\n        /* \"#utility.yul\":24978:25001   */\n      swap1\n      pop\n        /* \"#utility.yul\":25049:25053   */\n      0x40\n        /* \"#utility.yul\":25041:25047   */\n      dup5\n        /* \"#utility.yul\":25037:25054   */\n      mul\n        /* \"#utility.yul\":25029:25035   */\n      dup4\n        /* \"#utility.yul\":25025:25055   */\n      add\n        /* \"#utility.yul\":25078:25081   */\n      dup6\n        /* \"#utility.yul\":25070:25076   */\n      dup2\n        /* \"#utility.yul\":25067:25082   */\n      gt\n        /* \"#utility.yul\":25064:25186   */\n      iszero\n      tag_691\n      jumpi\n        /* \"#utility.yul\":25097:25176   */\n      tag_692\n      tag_446\n      jump\t// in\n    tag_692:\n        /* \"#utility.yul\":25064:25186   */\n    tag_691:\n        /* \"#utility.yul\":25212:25218   */\n      dup4\n        /* \"#utility.yul\":25195:25438   */\n    tag_693:\n        /* \"#utility.yul\":25229:25235   */\n      dup2\n        /* \"#utility.yul\":25224:25227   */\n      dup2\n        /* \"#utility.yul\":25221:25236   */\n      lt\n        /* \"#utility.yul\":25195:25438   */\n      iszero\n      tag_695\n      jumpi\n        /* \"#utility.yul\":25304:25307   */\n      dup1\n        /* \"#utility.yul\":25333:25393   */\n      tag_696\n        /* \"#utility.yul\":25389:25392   */\n      dup9\n        /* \"#utility.yul\":25377:25387   */\n      dup3\n        /* \"#utility.yul\":25333:25393   */\n      tag_449\n      jump\t// in\n    tag_696:\n        /* \"#utility.yul\":25328:25331   */\n      dup5\n        /* \"#utility.yul\":25321:25394   */\n      mstore\n        /* \"#utility.yul\":25423:25427   */\n      0x20\n        /* \"#utility.yul\":25418:25421   */\n      dup5\n        /* \"#utility.yul\":25414:25428   */\n      add\n        /* \"#utility.yul\":25407:25428   */\n      swap4\n      pop\n        /* \"#utility.yul\":25271:25438   */\n      pop\n        /* \"#utility.yul\":25255:25259   */\n      0x40\n        /* \"#utility.yul\":25250:25253   */\n      dup2\n        /* \"#utility.yul\":25246:25260   */\n      add\n        /* \"#utility.yul\":25239:25260   */\n      swap1\n      pop\n        /* \"#utility.yul\":25195:25438   */\n      jump(tag_693)\n    tag_695:\n        /* \"#utility.yul\":25199:25220   */\n      pop\n        /* \"#utility.yul\":24790:25444   */\n      pop\n      pop\n        /* \"#utility.yul\":24665:25444   */\n      swap4\n      swap3\n      pop\n      pop\n      pop\n      jump\t// out\n        /* \"#utility.yul\":25472:25888   */\n    tag_451:\n        /* \"#utility.yul\":25566:25571   */\n      0x00\n        /* \"#utility.yul\":25615:25618   */\n      dup3\n        /* \"#utility.yul\":25608:25612   */\n      0x1f\n        /* \"#utility.yul\":25600:25606   */\n      dup4\n        /* \"#utility.yul\":25596:25613   */\n      add\n        /* \"#utility.yul\":25592:25619   */\n      slt\n        /* \"#utility.yul\":25582:25704   */\n      tag_698\n      jumpi\n        /* \"#utility.yul\":25623:25702   */\n      tag_699\n      tag_407\n      jump\t// in\n    tag_699:\n        /* \"#utility.yul\":25582:25704   */\n    tag_698:\n        /* \"#utility.yul\":25740:25746   */\n      dup2\n        /* \"#utility.yul\":25727:25747   */\n      calldataload\n        /* \"#utility.yul\":25765:25882   */\n      tag_700\n        /* \"#utility.yul\":25878:25881   */\n      dup5\n        /* \"#utility.yul\":25870:25876   */\n      dup3\n        /* \"#utility.yul\":25863:25867   */\n      0x20\n        /* \"#utility.yul\":25855:25861   */\n      dup7\n        /* \"#utility.yul\":25851:25868   */\n      add\n        /* \"#utility.yul\":25765:25882   */\n      tag_450\n      jump\t// in\n    tag_700:\n        /* \"#utility.yul\":25756:25882   */\n      swap2\n      pop\n        /* \"#utility.yul\":25572:25888   */\n      pop\n        /* \"#utility.yul\":25472:25888   */\n      swap3\n      swap2\n      pop\n      pop\n      jump\t// out\n        /* \"#utility.yul\":25912:27195   */\n    tag_452:\n        /* \"#utility.yul\":25982:25987   */\n      0x00\n        /* \"#utility.yul\":26026:26030   */\n      0x60\n        /* \"#utility.yul\":26014:26023   */\n      dup3\n        /* \"#utility.yul\":26009:26012   */\n      dup5\n        /* \"#utility.yul\":26005:26024   */\n      sub\n        /* \"#utility.yul\":26001:26031   */\n      slt\n        /* \"#utility.yul\":25998:26115   */\n      iszero\n      tag_702\n      jumpi\n        /* \"#utility.yul\":26034:26113   */\n      tag_703\n      tag_443\n      jump\t// in\n    tag_703:\n        /* \"#utility.yul\":25998:26115   */\n    tag_702:\n        /* \"#utility.yul\":26133:26154   */\n      tag_704\n        /* \"#utility.yul\":26149:26153   */\n      0x60\n        /* \"#utility.yul\":26133:26154   */\n      tag_411\n      jump\t// in\n    tag_704:\n        /* \"#utility.yul\":26124:26154   */\n      swap1\n      pop\n        /* \"#utility.yul\":26241:26242   */\n      0x00\n        /* \"#utility.yul\":26230:26239   */\n      dup3\n        /* \"#utility.yul\":26226:26243   */\n      add\n        /* \"#utility.yul\":26213:26244   */\n      calldataload\n        /* \"#utility.yul\":26271:26289   */\n      0xffffffffffffffff\n        /* \"#utility.yul\":26263:26269   */\n      dup2\n        /* \"#utility.yul\":26260:26290   */\n      gt\n        /* \"#utility.yul\":26257:26374   */\n      iszero\n      tag_705\n      jumpi\n        /* \"#utility.yul\":26293:26372   */\n      tag_706\n      tag_444\n      jump\t// in\n    tag_706:\n        /* \"#utility.yul\":26257:26374   */\n    tag_705:\n        /* \"#utility.yul\":26413:26472   */\n      tag_707\n        /* \"#utility.yul\":26468:26471   */\n      dup5\n        /* \"#utility.yul\":26459:26465   */\n      dup3\n        /* \"#utility.yul\":26448:26457   */\n      dup6\n        /* \"#utility.yul\":26444:26466   */\n      add\n        /* \"#utility.yul\":26413:26472   */\n      tag_415\n      jump\t// in\n    tag_707:\n        /* \"#utility.yul\":26406:26410   */\n      0x00\n        /* \"#utility.yul\":26399:26404   */\n      dup4\n        /* \"#utility.yul\":26395:26411   */\n      add\n        /* \"#utility.yul\":26388:26473   */\n      mstore\n        /* \"#utility.yul\":26164:26484   */\n      pop\n        /* \"#utility.yul\":26573:26575   */\n      0x20\n        /* \"#utility.yul\":26562:26571   */\n      dup3\n        /* \"#utility.yul\":26558:26576   */\n      add\n        /* \"#utility.yul\":26545:26577   */\n      calldataload\n        /* \"#utility.yul\":26604:26622   */\n      0xffffffffffffffff\n        /* \"#utility.yul\":26596:26602   */\n      dup2\n        /* \"#utility.yul\":26593:26623   */\n      gt\n        /* \"#utility.yul\":26590:26707   */\n      iszero\n      tag_708\n      jumpi\n        /* \"#utility.yul\":26626:26705   */\n      tag_709\n      tag_444\n      jump\t// in\n    tag_709:\n        /* \"#utility.yul\":26590:26707   */\n    tag_708:\n        /* \"#utility.yul\":26746:26805   */\n      tag_710\n        /* \"#utility.yul\":26801:26804   */\n      dup5\n        /* \"#utility.yul\":26792:26798   */\n      dup3\n        /* \"#utility.yul\":26781:26790   */\n      dup6\n        /* \"#utility.yul\":26777:26799   */\n      add\n        /* \"#utility.yul\":26746:26805   */\n      tag_415\n      jump\t// in\n    tag_710:\n        /* \"#utility.yul\":26739:26743   */\n      0x20\n        /* \"#utility.yul\":26732:26737   */\n      dup4\n        /* \"#utility.yul\":26728:26744   */\n      add\n        /* \"#utility.yul\":26721:26806   */\n      mstore\n        /* \"#utility.yul\":26494:26817   */\n      pop\n        /* \"#utility.yul\":26906:26908   */\n      0x40\n        /* \"#utility.yul\":26895:26904   */\n      dup3\n        /* \"#utility.yul\":26891:26909   */\n      add\n        /* \"#utility.yul\":26878:26910   */\n      calldataload\n        /* \"#utility.yul\":26937:26955   */\n      0xffffffffffffffff\n        /* \"#utility.yul\":26929:26935   */\n      dup2\n        /* \"#utility.yul\":26926:26956   */\n      gt\n        /* \"#utility.yul\":26923:27040   */\n      iszero\n      tag_711\n      jumpi\n        /* \"#utility.yul\":26959:27038   */\n      tag_712\n      tag_444\n      jump\t// in\n    tag_712:\n        /* \"#utility.yul\":26923:27040   */\n    tag_711:\n        /* \"#utility.yul\":27079:27176   */\n      tag_713\n        /* \"#utility.yul\":27172:27175   */\n      dup5\n        /* \"#utility.yul\":27163:27169   */\n      dup3\n        /* \"#utility.yul\":27152:27161   */\n      dup6\n        /* \"#utility.yul\":27148:27170   */\n      add\n        /* \"#utility.yul\":27079:27176   */\n      tag_451\n      jump\t// in\n    tag_713:\n        /* \"#utility.yul\":27072:27076   */\n      0x40\n        /* \"#utility.yul\":27065:27070   */\n      dup4\n        /* \"#utility.yul\":27061:27077   */\n      add\n        /* \"#utility.yul\":27054:27177   */\n      mstore\n        /* \"#utility.yul\":26827:27188   */\n      pop\n        /* \"#utility.yul\":25912:27195   */\n      swap3\n      swap2\n      pop\n      pop\n      jump\t// out\n        /* \"#utility.yul\":27201:27877   */\n    tag_70:\n        /* \"#utility.yul\":27290:27296   */\n      0x00\n        /* \"#utility.yul\":27298:27304   */\n      0x00\n        /* \"#utility.yul\":27347:27349   */\n      0x40\n        /* \"#utility.yul\":27335:27344   */\n      dup4\n        /* \"#utility.yul\":27326:27333   */\n      dup6\n        /* \"#utility.yul\":27322:27345   */\n      sub\n        /* \"#utility.yul\":27318:27350   */\n      slt\n        /* \"#utility.yul\":27315:27434   */\n      iszero\n      tag_715\n      jumpi\n        /* \"#utility.yul\":27353:27432   */\n      tag_716\n      tag_384\n      jump\t// in\n    tag_716:\n        /* \"#utility.yul\":27315:27434   */\n    tag_715:\n        /* \"#utility.yul\":27501:27502   */\n      0x00\n        /* \"#utility.yul\":27490:27499   */\n      dup4\n        /* \"#utility.yul\":27486:27503   */\n      add\n        /* \"#utility.yul\":27473:27504   */\n      calldataload\n        /* \"#utility.yul\":27531:27549   */\n      0xffffffffffffffff\n        /* \"#utility.yul\":27523:27529   */\n      dup2\n        /* \"#utility.yul\":27520:27550   */\n      gt\n        /* \"#utility.yul\":27517:27634   */\n      iszero\n      tag_717\n      jumpi\n        /* \"#utility.yul\":27553:27632   */\n      tag_718\n      tag_385\n      jump\t// in\n    tag_718:\n        /* \"#utility.yul\":27517:27634   */\n    tag_717:\n        /* \"#utility.yul\":27658:27732   */\n      tag_719\n        /* \"#utility.yul\":27724:27731   */\n      dup6\n        /* \"#utility.yul\":27715:27721   */\n      dup3\n        /* \"#utility.yul\":27704:27713   */\n      dup7\n        /* \"#utility.yul\":27700:27722   */\n      add\n        /* \"#utility.yul\":27658:27732   */\n      tag_452\n      jump\t// in\n    tag_719:\n        /* \"#utility.yul\":27648:27732   */\n      swap3\n      pop\n        /* \"#utility.yul\":27444:27742   */\n      pop\n        /* \"#utility.yul\":27781:27783   */\n      0x20\n        /* \"#utility.yul\":27807:27860   */\n      tag_720\n        /* \"#utility.yul\":27852:27859   */\n      dup6\n        /* \"#utility.yul\":27843:27849   */\n      dup3\n        /* \"#utility.yul\":27832:27841   */\n      dup7\n        /* \"#utility.yul\":27828:27850   */\n      add\n        /* \"#utility.yul\":27807:27860   */\n      tag_442\n      jump\t// in\n    tag_720:\n        /* \"#utility.yul\":27797:27860   */\n      swap2\n      pop\n        /* \"#utility.yul\":27752:27870   */\n      pop\n        /* \"#utility.yul\":27201:27877   */\n      swap3\n      pop\n      swap3\n      swap1\n      pop\n      jump\t// out\n        /* \"#utility.yul\":27883:28317   */\n    tag_453:\n        /* \"#utility.yul\":27972:27977   */\n      0x00\n        /* \"#utility.yul\":27997:28063   */\n      tag_722\n        /* \"#utility.yul\":28013:28062   */\n      tag_723\n        /* \"#utility.yul\":28055:28061   */\n      dup5\n        /* \"#utility.yul\":28013:28062   */\n      tag_412\n      jump\t// in\n    tag_723:\n        /* \"#utility.yul\":27997:28063   */\n      tag_411\n      jump\t// in\n    tag_722:\n        /* \"#utility.yul\":27988:28063   */\n      swap1\n      pop\n        /* \"#utility.yul\":28086:28092   */\n      dup3\n        /* \"#utility.yul\":28079:28084   */\n      dup2\n        /* \"#utility.yul\":28072:28093   */\n      mstore\n        /* \"#utility.yul\":28124:28128   */\n      0x20\n        /* \"#utility.yul\":28117:28122   */\n      dup2\n        /* \"#utility.yul\":28113:28129   */\n      add\n        /* \"#utility.yul\":28162:28165   */\n      dup5\n        /* \"#utility.yul\":28153:28159   */\n      dup5\n        /* \"#utility.yul\":28148:28151   */\n      dup5\n        /* \"#utility.yul\":28144:28160   */\n      add\n        /* \"#utility.yul\":28141:28166   */\n      gt\n        /* \"#utility.yul\":28138:28250   */\n      iszero\n      tag_724\n      jumpi\n        /* \"#utility.yul\":28169:28248   */\n      tag_725\n      tag_408\n      jump\t// in\n    tag_725:\n        /* \"#utility.yul\":28138:28250   */\n    tag_724:\n        /* \"#utility.yul\":28259:28311   */\n      tag_726\n        /* \"#utility.yul\":28304:28310   */\n      dup5\n        /* \"#utility.yul\":28299:28302   */\n      dup3\n        /* \"#utility.yul\":28294:28297   */\n      dup6\n        /* \"#utility.yul\":28259:28311   */\n      tag_419\n      jump\t// in\n    tag_726:\n        /* \"#utility.yul\":27978:28317   */\n      pop\n        /* \"#utility.yul\":27883:28317   */\n      swap4\n      swap3\n      pop\n      pop\n      pop\n      jump\t// out\n        /* \"#utility.yul\":28337:28692   */\n    tag_454:\n        /* \"#utility.yul\":28404:28409   */\n      0x00\n        /* \"#utility.yul\":28453:28456   */\n      dup3\n        /* \"#utility.yul\":28446:28450   */\n      0x1f\n        /* \"#utility.yul\":28438:28444   */\n      dup4\n        /* \"#utility.yul\":28434:28451   */\n      add\n        /* \"#utility.yul\":28430:28457   */\n      slt\n        /* \"#utility.yul\":28420:28542   */\n      tag_728\n      jumpi\n        /* \"#utility.yul\":28461:28540   */\n      tag_729\n      tag_407\n      jump\t// in\n    tag_729:\n        /* \"#utility.yul\":28420:28542   */\n    tag_728:\n        /* \"#utility.yul\":28571:28577   */\n      dup2\n        /* \"#utility.yul\":28565:28578   */\n      mload\n        /* \"#utility.yul\":28596:28686   */\n      tag_730\n        /* \"#utility.yul\":28682:28685   */\n      dup5\n        /* \"#utility.yul\":28674:28680   */\n      dup3\n        /* \"#utility.yul\":28667:28671   */\n      0x20\n        /* \"#utility.yul\":28659:28665   */\n      dup7\n        /* \"#utility.yul\":28655:28672   */\n      add\n        /* \"#utility.yul\":28596:28686   */\n      tag_453\n      jump\t// in\n    tag_730:\n        /* \"#utility.yul\":28587:28686   */\n      swap2\n      pop\n        /* \"#utility.yul\":28410:28692   */\n      pop\n        /* \"#utility.yul\":28337:28692   */\n      swap3\n      swap2\n      pop\n      pop\n      jump\t// out\n        /* \"#utility.yul\":28698:28841   */\n    tag_455:\n        /* \"#utility.yul\":28755:28760   */\n      0x00\n        /* \"#utility.yul\":28786:28792   */\n      dup2\n        /* \"#utility.yul\":28780:28793   */\n      mload\n        /* \"#utility.yul\":28771:28793   */\n      swap1\n      pop\n        /* \"#utility.yul\":28802:28835   */\n      tag_732\n        /* \"#utility.yul\":28829:28834   */\n      dup2\n        /* \"#utility.yul\":28802:28835   */\n      tag_441\n      jump\t// in\n    tag_732:\n        /* \"#utility.yul\":28698:28841   */\n      swap3\n      swap2\n      pop\n      pop\n      jump\t// out\n        /* \"#utility.yul\":28847:28988   */\n    tag_456:\n        /* \"#utility.yul\":28903:28908   */\n      0x00\n        /* \"#utility.yul\":28934:28940   */\n      dup2\n        /* \"#utility.yul\":28928:28941   */\n      mload\n        /* \"#utility.yul\":28919:28941   */\n      swap1\n      pop\n        /* \"#utility.yul\":28950:28982   */\n      tag_734\n        /* \"#utility.yul\":28976:28981   */\n      dup2\n        /* \"#utility.yul\":28950:28982   */\n      tag_447\n      jump\t// in\n    tag_734:\n        /* \"#utility.yul\":28847:28988   */\n      swap3\n      swap2\n      pop\n      pop\n      jump\t// out\n        /* \"#utility.yul\":29014:29632   */\n    tag_457:\n        /* \"#utility.yul\":29097:29102   */\n      0x00\n        /* \"#utility.yul\":29141:29145   */\n      0x40\n        /* \"#utility.yul\":29129:29138   */\n      dup3\n        /* \"#utility.yul\":29124:29127   */\n      dup5\n        /* \"#utility.yul\":29120:29139   */\n      sub\n        /* \"#utility.yul\":29116:29146   */\n      slt\n        /* \"#utility.yul\":29113:29230   */\n      iszero\n      tag_736\n      jumpi\n        /* \"#utility.yul\":29149:29228   */\n      tag_737\n      tag_443\n      jump\t// in\n    tag_737:\n        /* \"#utility.yul\":29113:29230   */\n    tag_736:\n        /* \"#utility.yul\":29248:29269   */\n      tag_738\n        /* \"#utility.yul\":29264:29268   */\n      0x40\n        /* \"#utility.yul\":29248:29269   */\n      tag_411\n      jump\t// in\n    tag_738:\n        /* \"#utility.yul\":29239:29269   */\n      swap1\n      pop\n        /* \"#utility.yul\":29336:29337   */\n      0x00\n        /* \"#utility.yul\":29376:29436   */\n      tag_739\n        /* \"#utility.yul\":29432:29435   */\n      dup5\n        /* \"#utility.yul\":29423:29429   */\n      dup3\n        /* \"#utility.yul\":29412:29421   */\n      dup6\n        /* \"#utility.yul\":29408:29430   */\n      add\n        /* \"#utility.yul\":29376:29436   */\n      tag_455\n      jump\t// in\n    tag_739:\n        /* \"#utility.yul\":29369:29373   */\n      0x00\n        /* \"#utility.yul\":29362:29367   */\n      dup4\n        /* \"#utility.yul\":29358:29374   */\n      add\n        /* \"#utility.yul\":29351:29437   */\n      mstore\n        /* \"#utility.yul\":29279:29448   */\n      pop\n        /* \"#utility.yul\":29513:29515   */\n      0x20\n        /* \"#utility.yul\":29554:29613   */\n      tag_740\n        /* \"#utility.yul\":29609:29612   */\n      dup5\n        /* \"#utility.yul\":29600:29606   */\n      dup3\n        /* \"#utility.yul\":29589:29598   */\n      dup6\n        /* \"#utility.yul\":29585:29607   */\n      add\n        /* \"#utility.yul\":29554:29613   */\n      tag_456\n      jump\t// in\n    tag_740:\n        /* \"#utility.yul\":29547:29551   */\n      0x20\n        /* \"#utility.yul\":29540:29545   */\n      dup4\n        /* \"#utility.yul\":29536:29552   */\n      add\n        /* \"#utility.yul\":29529:29614   */\n      mstore\n        /* \"#utility.yul\":29458:29625   */\n      pop\n        /* \"#utility.yul\":29014:29632   */\n      swap3\n      swap2\n      pop\n      pop\n      jump\t// out\n        /* \"#utility.yul\":29660:30461   */\n    tag_458:\n        /* \"#utility.yul\":29790:29795   */\n      0x00\n        /* \"#utility.yul\":29815:29919   */\n      tag_742\n        /* \"#utility.yul\":29831:29918   */\n      tag_743\n        /* \"#utility.yul\":29911:29917   */\n      dup5\n        /* \"#utility.yul\":29831:29918   */\n      tag_445\n      jump\t// in\n    tag_743:\n        /* \"#utility.yul\":29815:29919   */\n      tag_411\n      jump\t// in\n    tag_742:\n        /* \"#utility.yul\":29806:29919   */\n      swap1\n      pop\n        /* \"#utility.yul\":29939:29944   */\n      dup1\n        /* \"#utility.yul\":29968:29974   */\n      dup4\n        /* \"#utility.yul\":29961:29966   */\n      dup3\n        /* \"#utility.yul\":29954:29975   */\n      mstore\n        /* \"#utility.yul\":30002:30006   */\n      0x20\n        /* \"#utility.yul\":29995:30000   */\n      dup3\n        /* \"#utility.yul\":29991:30007   */\n      add\n        /* \"#utility.yul\":29984:30007   */\n      swap1\n      pop\n        /* \"#utility.yul\":30055:30059   */\n      0x40\n        /* \"#utility.yul\":30047:30053   */\n      dup5\n        /* \"#utility.yul\":30043:30060   */\n      mul\n        /* \"#utility.yul\":30035:30041   */\n      dup4\n        /* \"#utility.yul\":30031:30061   */\n      add\n        /* \"#utility.yul\":30084:30087   */\n      dup6\n        /* \"#utility.yul\":30076:30082   */\n      dup2\n        /* \"#utility.yul\":30073:30088   */\n      gt\n        /* \"#utility.yul\":30070:30192   */\n      iszero\n      tag_744\n      jumpi\n        /* \"#utility.yul\":30103:30182   */\n      tag_745\n      tag_446\n      jump\t// in\n    tag_745:\n        /* \"#utility.yul\":30070:30192   */\n    tag_744:\n        /* \"#utility.yul\":30218:30224   */\n      dup4\n        /* \"#utility.yul\":30201:30455   */\n    tag_746:\n        /* \"#utility.yul\":30235:30241   */\n      dup2\n        /* \"#utility.yul\":30230:30233   */\n      dup2\n        /* \"#utility.yul\":30227:30242   */\n      lt\n        /* \"#utility.yul\":30201:30455   */\n      iszero\n      tag_748\n      jumpi\n        /* \"#utility.yul\":30310:30313   */\n      dup1\n        /* \"#utility.yul\":30339:30410   */\n      tag_749\n        /* \"#utility.yul\":30406:30409   */\n      dup9\n        /* \"#utility.yul\":30394:30404   */\n      dup3\n        /* \"#utility.yul\":30339:30410   */\n      tag_457\n      jump\t// in\n    tag_749:\n        /* \"#utility.yul\":30334:30337   */\n      dup5\n        /* \"#utility.yul\":30327:30411   */\n      mstore\n        /* \"#utility.yul\":30440:30444   */\n      0x20\n        /* \"#utility.yul\":30435:30438   */\n      dup5\n        /* \"#utility.yul\":30431:30445   */\n      add\n        /* \"#utility.yul\":30424:30445   */\n      swap4\n      pop\n        /* \"#utility.yul\":30277:30455   */\n      pop\n        /* \"#utility.yul\":30261:30265   */\n      0x40\n        /* \"#utility.yul\":30256:30259   */\n      dup2\n        /* \"#utility.yul\":30252:30266   */\n      add\n        /* \"#utility.yul\":30245:30266   */\n      swap1\n      pop\n        /* \"#utility.yul\":30201:30455   */\n      jump(tag_746)\n    tag_748:\n        /* \"#utility.yul\":30205:30226   */\n      pop\n        /* \"#utility.yul\":29796:30461   */\n      pop\n      pop\n        /* \"#utility.yul\":29660:30461   */\n      swap4\n      swap3\n      pop\n      pop\n      pop\n      jump\t// out\n        /* \"#utility.yul\":30489:30920   */\n    tag_459:\n        /* \"#utility.yul\":30594:30599   */\n      0x00\n        /* \"#utility.yul\":30643:30646   */\n      dup3\n        /* \"#utility.yul\":30636:30640   */\n      0x1f\n        /* \"#utility.yul\":30628:30634   */\n      dup4\n        /* \"#utility.yul\":30624:30641   */\n      add\n        /* \"#utility.yul\":30620:30647   */\n      slt\n        /* \"#utility.yul\":30610:30732   */\n      tag_751\n      jumpi\n        /* \"#utility.yul\":30651:30730   */\n      tag_752\n      tag_407\n      jump\t// in\n    tag_752:\n        /* \"#utility.yul\":30610:30732   */\n    tag_751:\n        /* \"#utility.yul\":30761:30767   */\n      dup2\n        /* \"#utility.yul\":30755:30768   */\n      mload\n        /* \"#utility.yul\":30786:30914   */\n      tag_753\n        /* \"#utility.yul\":30910:30913   */\n      dup5\n        /* \"#utility.yul\":30902:30908   */\n      dup3\n        /* \"#utility.yul\":30895:30899   */\n      0x20\n        /* \"#utility.yul\":30887:30893   */\n      dup7\n        /* \"#utility.yul\":30883:30900   */\n      add\n        /* \"#utility.yul\":30786:30914   */\n      tag_458\n      jump\t// in\n    tag_753:\n        /* \"#utility.yul\":30777:30914   */\n      swap2\n      pop\n        /* \"#utility.yul\":30600:30920   */\n      pop\n        /* \"#utility.yul\":30489:30920   */\n      swap3\n      swap2\n      pop\n      pop\n      jump\t// out\n        /* \"#utility.yul\":30944:32250   */\n    tag_460:\n        /* \"#utility.yul\":31025:31030   */\n      0x00\n        /* \"#utility.yul\":31069:31073   */\n      0x60\n        /* \"#utility.yul\":31057:31066   */\n      dup3\n        /* \"#utility.yul\":31052:31055   */\n      dup5\n        /* \"#utility.yul\":31048:31067   */\n      sub\n        /* \"#utility.yul\":31044:31074   */\n      slt\n        /* \"#utility.yul\":31041:31158   */\n      iszero\n      tag_755\n      jumpi\n        /* \"#utility.yul\":31077:31156   */\n      tag_756\n      tag_443\n      jump\t// in\n    tag_756:\n        /* \"#utility.yul\":31041:31158   */\n    tag_755:\n        /* \"#utility.yul\":31176:31197   */\n      tag_757\n        /* \"#utility.yul\":31192:31196   */\n      0x60\n        /* \"#utility.yul\":31176:31197   */\n      tag_411\n      jump\t// in\n    tag_757:\n        /* \"#utility.yul\":31167:31197   */\n      swap1\n      pop\n        /* \"#utility.yul\":31277:31278   */\n      0x00\n        /* \"#utility.yul\":31266:31275   */\n      dup3\n        /* \"#utility.yul\":31262:31279   */\n      add\n        /* \"#utility.yul\":31256:31280   */\n      mload\n        /* \"#utility.yul\":31307:31325   */\n      0xffffffffffffffff\n        /* \"#utility.yul\":31299:31305   */\n      dup2\n        /* \"#utility.yul\":31296:31326   */\n      gt\n        /* \"#utility.yul\":31293:31410   */\n      iszero\n      tag_758\n      jumpi\n        /* \"#utility.yul\":31329:31408   */\n      tag_759\n      tag_444\n      jump\t// in\n    tag_759:\n        /* \"#utility.yul\":31293:31410   */\n    tag_758:\n        /* \"#utility.yul\":31449:31519   */\n      tag_760\n        /* \"#utility.yul\":31515:31518   */\n      dup5\n        /* \"#utility.yul\":31506:31512   */\n      dup3\n        /* \"#utility.yul\":31495:31504   */\n      dup6\n        /* \"#utility.yul\":31491:31513   */\n      add\n        /* \"#utility.yul\":31449:31519   */\n      tag_454\n      jump\t// in\n    tag_760:\n        /* \"#utility.yul\":31442:31446   */\n      0x00\n        /* \"#utility.yul\":31435:31440   */\n      dup4\n        /* \"#utility.yul\":31431:31447   */\n      add\n        /* \"#utility.yul\":31424:31520   */\n      mstore\n        /* \"#utility.yul\":31207:31531   */\n      pop\n        /* \"#utility.yul\":31613:31615   */\n      0x20\n        /* \"#utility.yul\":31602:31611   */\n      dup3\n        /* \"#utility.yul\":31598:31616   */\n      add\n        /* \"#utility.yul\":31592:31617   */\n      mload\n        /* \"#utility.yul\":31644:31662   */\n      0xffffffffffffffff\n        /* \"#utility.yul\":31636:31642   */\n      dup2\n        /* \"#utility.yul\":31633:31663   */\n      gt\n        /* \"#utility.yul\":31630:31747   */\n      iszero\n      tag_761\n      jumpi\n        /* \"#utility.yul\":31666:31745   */\n      tag_762\n      tag_444\n      jump\t// in\n    tag_762:\n        /* \"#utility.yul\":31630:31747   */\n    tag_761:\n        /* \"#utility.yul\":31786:31856   */\n      tag_763\n        /* \"#utility.yul\":31852:31855   */\n      dup5\n        /* \"#utility.yul\":31843:31849   */\n      dup3\n        /* \"#utility.yul\":31832:31841   */\n      dup6\n        /* \"#utility.yul\":31828:31850   */\n      add\n        /* \"#utility.yul\":31786:31856   */\n      tag_454\n      jump\t// in\n    tag_763:\n        /* \"#utility.yul\":31779:31783   */\n      0x20\n        /* \"#utility.yul\":31772:31777   */\n      dup4\n        /* \"#utility.yul\":31768:31784   */\n      add\n        /* \"#utility.yul\":31761:31857   */\n      mstore\n        /* \"#utility.yul\":31541:31868   */\n      pop\n        /* \"#utility.yul\":31950:31952   */\n      0x40\n        /* \"#utility.yul\":31939:31948   */\n      dup3\n        /* \"#utility.yul\":31935:31953   */\n      add\n        /* \"#utility.yul\":31929:31954   */\n      mload\n        /* \"#utility.yul\":31981:31999   */\n      0xffffffffffffffff\n        /* \"#utility.yul\":31973:31979   */\n      dup2\n        /* \"#utility.yul\":31970:32000   */\n      gt\n        /* \"#utility.yul\":31967:32084   */\n      iszero\n      tag_764\n      jumpi\n        /* \"#utility.yul\":32003:32082   */\n      tag_765\n      tag_444\n      jump\t// in\n    tag_765:\n        /* \"#utility.yul\":31967:32084   */\n    tag_764:\n        /* \"#utility.yul\":32123:32231   */\n      tag_766\n        /* \"#utility.yul\":32227:32230   */\n      dup5\n        /* \"#utility.yul\":32218:32224   */\n      dup3\n        /* \"#utility.yul\":32207:32216   */\n      dup6\n        /* \"#utility.yul\":32203:32225   */\n      add\n        /* \"#utility.yul\":32123:32231   */\n      tag_459\n      jump\t// in\n    tag_766:\n        /* \"#utility.yul\":32116:32120   */\n      0x40\n        /* \"#utility.yul\":32109:32114   */\n      dup4\n        /* \"#utility.yul\":32105:32121   */\n      add\n        /* \"#utility.yul\":32098:32232   */\n      mstore\n        /* \"#utility.yul\":31878:32243   */\n      pop\n        /* \"#utility.yul\":30944:32250   */\n      swap3\n      swap2\n      pop\n      pop\n      jump\t// out\n        /* \"#utility.yul\":32256:32958   */\n    tag_80:\n        /* \"#utility.yul\":32356:32362   */\n      0x00\n        /* \"#utility.yul\":32364:32370   */\n      0x00\n        /* \"#utility.yul\":32413:32415   */\n      0x40\n        /* \"#utility.yul\":32401:32410   */\n      dup4\n        /* \"#utility.yul\":32392:32399   */\n      dup6\n        /* \"#utility.yul\":32388:32411   */\n      sub\n        /* \"#utility.yul\":32384:32416   */\n      slt\n        /* \"#utility.yul\":32381:32500   */\n      iszero\n      tag_768\n      jumpi\n        /* \"#utility.yul\":32419:32498   */\n      tag_769\n      tag_384\n      jump\t// in\n    tag_769:\n        /* \"#utility.yul\":32381:32500   */\n    tag_768:\n        /* \"#utility.yul\":32560:32561   */\n      0x00\n        /* \"#utility.yul\":32549:32558   */\n      dup4\n        /* \"#utility.yul\":32545:32562   */\n      add\n        /* \"#utility.yul\":32539:32563   */\n      mload\n        /* \"#utility.yul\":32590:32608   */\n      0xffffffffffffffff\n        /* \"#utility.yul\":32582:32588   */\n      dup2\n        /* \"#utility.yul\":32579:32609   */\n      gt\n        /* \"#utility.yul\":32576:32693   */\n      iszero\n      tag_770\n      jumpi\n        /* \"#utility.yul\":32612:32691   */\n      tag_771\n      tag_385\n      jump\t// in\n    tag_771:\n        /* \"#utility.yul\":32576:32693   */\n    tag_770:\n        /* \"#utility.yul\":32717:32802   */\n      tag_772\n        /* \"#utility.yul\":32794:32801   */\n      dup6\n        /* \"#utility.yul\":32785:32791   */\n      dup3\n        /* \"#utility.yul\":32774:32783   */\n      dup7\n        /* \"#utility.yul\":32770:32792   */\n      add\n        /* \"#utility.yul\":32717:32802   */\n      tag_460\n      jump\t// in\n    tag_772:\n        /* \"#utility.yul\":32707:32802   */\n      swap3\n      pop\n        /* \"#utility.yul\":32510:32812   */\n      pop\n        /* \"#utility.yul\":32851:32853   */\n      0x20\n        /* \"#utility.yul\":32877:32941   */\n      tag_773\n        /* \"#utility.yul\":32933:32940   */\n      dup6\n        /* \"#utility.yul\":32924:32930   */\n      dup3\n        /* \"#utility.yul\":32913:32922   */\n      dup7\n        /* \"#utility.yul\":32909:32931   */\n      add\n        /* \"#utility.yul\":32877:32941   */\n      tag_455\n      jump\t// in\n    tag_773:\n        /* \"#utility.yul\":32867:32941   */\n      swap2\n      pop\n        /* \"#utility.yul\":32822:32951   */\n      pop\n        /* \"#utility.yul\":32256:32958   */\n      swap3\n      pop\n      swap3\n      swap1\n      pop\n      jump\t// out\n        /* \"#utility.yul\":32964:33133   */\n    tag_461:\n        /* \"#utility.yul\":33048:33059   */\n      0x00\n        /* \"#utility.yul\":33082:33088   */\n      dup3\n        /* \"#utility.yul\":33077:33080   */\n      dup3\n        /* \"#utility.yul\":33070:33089   */\n      mstore\n        /* \"#utility.yul\":33122:33126   */\n      0x20\n        /* \"#utility.yul\":33117:33120   */\n      dup3\n        /* \"#utility.yul\":33113:33127   */\n      add\n        /* \"#utility.yul\":33098:33127   */\n      swap1\n      pop\n        /* \"#utility.yul\":32964:33133   */\n      swap3\n      swap2\n      pop\n      pop\n      jump\t// out\n        /* \"#utility.yul\":33139:33516   */\n    tag_462:\n        /* \"#utility.yul\":33227:33230   */\n      0x00\n        /* \"#utility.yul\":33255:33294   */\n      tag_776\n        /* \"#utility.yul\":33288:33293   */\n      dup3\n        /* \"#utility.yul\":33255:33294   */\n      tag_417\n      jump\t// in\n    tag_776:\n        /* \"#utility.yul\":33310:33381   */\n      tag_777\n        /* \"#utility.yul\":33374:33380   */\n      dup2\n        /* \"#utility.yul\":33369:33372   */\n      dup6\n        /* \"#utility.yul\":33310:33381   */\n      tag_461\n      jump\t// in\n    tag_777:\n        /* \"#utility.yul\":33303:33381   */\n      swap4\n      pop\n        /* \"#utility.yul\":33390:33455   */\n      tag_778\n        /* \"#utility.yul\":33448:33454   */\n      dup2\n        /* \"#utility.yul\":33443:33446   */\n      dup6\n        /* \"#utility.yul\":33436:33440   */\n      0x20\n        /* \"#utility.yul\":33429:33434   */\n      dup7\n        /* \"#utility.yul\":33425:33441   */\n      add\n        /* \"#utility.yul\":33390:33455   */\n      tag_419\n      jump\t// in\n    tag_778:\n        /* \"#utility.yul\":33480:33509   */\n      tag_779\n        /* \"#utility.yul\":33502:33508   */\n      dup2\n        /* \"#utility.yul\":33480:33509   */\n      tag_409\n      jump\t// in\n    tag_779:\n        /* \"#utility.yul\":33475:33478   */\n      dup5\n        /* \"#utility.yul\":33471:33510   */\n      add\n        /* \"#utility.yul\":33464:33510   */\n      swap2\n      pop\n        /* \"#utility.yul\":33231:33516   */\n      pop\n        /* \"#utility.yul\":33139:33516   */\n      swap3\n      swap2\n      pop\n      pop\n      jump\t// out\n        /* \"#utility.yul\":33522:33835   */\n    tag_105:\n        /* \"#utility.yul\":33635:33639   */\n      0x00\n        /* \"#utility.yul\":33673:33675   */\n      0x20\n        /* \"#utility.yul\":33662:33671   */\n      dup3\n        /* \"#utility.yul\":33658:33676   */\n      add\n        /* \"#utility.yul\":33650:33676   */\n      swap1\n      pop\n        /* \"#utility.yul\":33722:33731   */\n      dup2\n        /* \"#utility.yul\":33716:33720   */\n      dup2\n        /* \"#utility.yul\":33712:33732   */\n      sub\n        /* \"#utility.yul\":33708:33709   */\n      0x00\n        /* \"#utility.yul\":33697:33706   */\n      dup4\n        /* \"#utility.yul\":33693:33710   */\n      add\n        /* \"#utility.yul\":33686:33733   */\n      mstore\n        /* \"#utility.yul\":33750:33828   */\n      tag_781\n        /* \"#utility.yul\":33823:33827   */\n      dup2\n        /* \"#utility.yul\":33814:33820   */\n      dup5\n        /* \"#utility.yul\":33750:33828   */\n      tag_462\n      jump\t// in\n    tag_781:\n        /* \"#utility.yul\":33742:33828   */\n      swap1\n      pop\n        /* \"#utility.yul\":33522:33835   */\n      swap3\n      swap2\n      pop\n      pop\n      jump\t// out\n        /* \"#utility.yul\":33841:34192   */\n    tag_109:\n        /* \"#utility.yul\":33911:33917   */\n      0x00\n        /* \"#utility.yul\":33960:33962   */\n      0x20\n        /* \"#utility.yul\":33948:33957   */\n      dup3\n        /* \"#utility.yul\":33939:33946   */\n      dup5\n        /* \"#utility.yul\":33935:33958   */\n      sub\n        /* \"#utility.yul\":33931:33963   */\n      slt\n        /* \"#utility.yul\":33928:34047   */\n      iszero\n      tag_783\n      jumpi\n        /* \"#utility.yul\":33966:34045   */\n      tag_784\n      tag_384\n      jump\t// in\n    tag_784:\n        /* \"#utility.yul\":33928:34047   */\n    tag_783:\n        /* \"#utility.yul\":34086:34087   */\n      0x00\n        /* \"#utility.yul\":34111:34175   */\n      tag_785\n        /* \"#utility.yul\":34167:34174   */\n      dup5\n        /* \"#utility.yul\":34158:34164   */\n      dup3\n        /* \"#utility.yul\":34147:34156   */\n      dup6\n        /* \"#utility.yul\":34143:34165   */\n      add\n        /* \"#utility.yul\":34111:34175   */\n      tag_455\n      jump\t// in\n    tag_785:\n        /* \"#utility.yul\":34101:34175   */\n      swap2\n      pop\n        /* \"#utility.yul\":34057:34185   */\n      pop\n        /* \"#utility.yul\":33841:34192   */\n      swap3\n      swap2\n      pop\n      pop\n      jump\t// out\n        /* \"#utility.yul\":34198:34371   */\n    tag_463:\n        /* \"#utility.yul\":34338:34363   */\n      0x43616c6c6572206973206e6f7420746865206f776e6572000000000000000000\n        /* \"#utility.yul\":34334:34335   */\n      0x00\n        /* \"#utility.yul\":34326:34332   */\n      dup3\n        /* \"#utility.yul\":34322:34336   */\n      add\n        /* \"#utility.yul\":34315:34364   */\n      mstore\n        /* \"#utility.yul\":34198:34371   */\n      pop\n      jump\t// out\n        /* \"#utility.yul\":34377:34743   */\n    tag_464:\n        /* \"#utility.yul\":34519:34522   */\n      0x00\n        /* \"#utility.yul\":34540:34607   */\n      tag_788\n        /* \"#utility.yul\":34604:34606   */\n      0x17\n        /* \"#utility.yul\":34599:34602   */\n      dup4\n        /* \"#utility.yul\":34540:34607   */\n      tag_461\n      jump\t// in\n    tag_788:\n        /* \"#utility.yul\":34533:34607   */\n      swap2\n      pop\n        /* \"#utility.yul\":34616:34709   */\n      tag_789\n        /* \"#utility.yul\":34705:34708   */\n      dup3\n        /* \"#utility.yul\":34616:34709   */\n      tag_463\n      jump\t// in\n    tag_789:\n        /* \"#utility.yul\":34734:34736   */\n      0x20\n        /* \"#utility.yul\":34729:34732   */\n      dup3\n        /* \"#utility.yul\":34725:34737   */\n      add\n        /* \"#utility.yul\":34718:34737   */\n      swap1\n      pop\n        /* \"#utility.yul\":34377:34743   */\n      swap2\n      swap1\n      pop\n      jump\t// out\n        /* \"#utility.yul\":34749:35168   */\n    tag_147:\n        /* \"#utility.yul\":34915:34919   */\n      0x00\n        /* \"#utility.yul\":34953:34955   */\n      0x20\n        /* \"#utility.yul\":34942:34951   */\n      dup3\n        /* \"#utility.yul\":34938:34956   */\n      add\n        /* \"#utility.yul\":34930:34956   */\n      swap1\n      pop\n        /* \"#utility.yul\":35002:35011   */\n      dup2\n        /* \"#utility.yul\":34996:35000   */\n      dup2\n        /* \"#utility.yul\":34992:35012   */\n      sub\n        /* \"#utility.yul\":34988:34989   */\n      0x00\n        /* \"#utility.yul\":34977:34986   */\n      dup4\n        /* \"#utility.yul\":34973:34990   */\n      add\n        /* \"#utility.yul\":34966:35013   */\n      mstore\n        /* \"#utility.yul\":35030:35161   */\n      tag_791\n        /* \"#utility.yul\":35156:35160   */\n      dup2\n        /* \"#utility.yul\":35030:35161   */\n      tag_464\n      jump\t// in\n    tag_791:\n        /* \"#utility.yul\":35022:35161   */\n      swap1\n      pop\n        /* \"#utility.yul\":34749:35168   */\n      swap2\n      swap1\n      pop\n      jump\t// out\n        /* \"#utility.yul\":35174:35317   */\n    tag_465:\n        /* \"#utility.yul\":35231:35236   */\n      0x00\n        /* \"#utility.yul\":35262:35268   */\n      dup2\n        /* \"#utility.yul\":35256:35269   */\n      mload\n        /* \"#utility.yul\":35247:35269   */\n      swap1\n      pop\n        /* \"#utility.yul\":35278:35311   */\n      tag_793\n        /* \"#utility.yul\":35305:35310   */\n      dup2\n        /* \"#utility.yul\":35278:35311   */\n      tag_387\n      jump\t// in\n    tag_793:\n        /* \"#utility.yul\":35174:35317   */\n      swap3\n      swap2\n      pop\n      pop\n      jump\t// out\n        /* \"#utility.yul\":35323:35674   */\n    tag_171:\n        /* \"#utility.yul\":35393:35399   */\n      0x00\n        /* \"#utility.yul\":35442:35444   */\n      0x20\n        /* \"#utility.yul\":35430:35439   */\n      dup3\n        /* \"#utility.yul\":35421:35428   */\n      dup5\n        /* \"#utility.yul\":35417:35440   */\n      sub\n        /* \"#utility.yul\":35413:35445   */\n      slt\n        /* \"#utility.yul\":35410:35529   */\n      iszero\n      tag_795\n      jumpi\n        /* \"#utility.yul\":35448:35527   */\n      tag_796\n      tag_384\n      jump\t// in\n    tag_796:\n        /* \"#utility.yul\":35410:35529   */\n    tag_795:\n        /* \"#utility.yul\":35568:35569   */\n      0x00\n        /* \"#utility.yul\":35593:35657   */\n      tag_797\n        /* \"#utility.yul\":35649:35656   */\n      dup5\n        /* \"#utility.yul\":35640:35646   */\n      dup3\n        /* \"#utility.yul\":35629:35638   */\n      dup6\n        /* \"#utility.yul\":35625:35647   */\n      add\n        /* \"#utility.yul\":35593:35657   */\n      tag_465\n      jump\t// in\n    tag_797:\n        /* \"#utility.yul\":35583:35657   */\n      swap2\n      pop\n        /* \"#utility.yul\":35539:35667   */\n      pop\n        /* \"#utility.yul\":35323:35674   */\n      swap3\n      swap2\n      pop\n      pop\n      jump\t// out\n        /* \"#utility.yul\":35680:35798   */\n    tag_466:\n        /* \"#utility.yul\":35751:35773   */\n      tag_799\n        /* \"#utility.yul\":35767:35772   */\n      dup2\n        /* \"#utility.yul\":35751:35773   */\n      tag_396\n      jump\t// in\n    tag_799:\n        /* \"#utility.yul\":35744:35749   */\n      dup2\n        /* \"#utility.yul\":35741:35774   */\n      eq\n        /* \"#utility.yul\":35731:35792   */\n      tag_800\n      jumpi\n        /* \"#utility.yul\":35788:35789   */\n      0x00\n        /* \"#utility.yul\":35785:35786   */\n      0x00\n        /* \"#utility.yul\":35778:35790   */\n      revert\n        /* \"#utility.yul\":35731:35792   */\n    tag_800:\n        /* \"#utility.yul\":35680:35798   */\n      pop\n      jump\t// out\n        /* \"#utility.yul\":35804:35943   */\n    tag_467:\n        /* \"#utility.yul\":35859:35864   */\n      0x00\n        /* \"#utility.yul\":35890:35896   */\n      dup2\n        /* \"#utility.yul\":35884:35897   */\n      mload\n        /* \"#utility.yul\":35875:35897   */\n      swap1\n      pop\n        /* \"#utility.yul\":35906:35937   */\n      tag_802\n        /* \"#utility.yul\":35931:35936   */\n      dup2\n        /* \"#utility.yul\":35906:35937   */\n      tag_466\n      jump\t// in\n    tag_802:\n        /* \"#utility.yul\":35804:35943   */\n      swap3\n      swap2\n      pop\n      pop\n      jump\t// out\n        /* \"#utility.yul\":35949:36296   */\n    tag_175:\n        /* \"#utility.yul\":36017:36023   */\n      0x00\n        /* \"#utility.yul\":36066:36068   */\n      0x20\n        /* \"#utility.yul\":36054:36063   */\n      dup3\n        /* \"#utility.yul\":36045:36052   */\n      dup5\n        /* \"#utility.yul\":36041:36064   */\n      sub\n        /* \"#utility.yul\":36037:36069   */\n      slt\n        /* \"#utility.yul\":36034:36153   */\n      iszero\n      tag_804\n      jumpi\n        /* \"#utility.yul\":36072:36151   */\n      tag_805\n      tag_384\n      jump\t// in\n    tag_805:\n        /* \"#utility.yul\":36034:36153   */\n    tag_804:\n        /* \"#utility.yul\":36192:36193   */\n      0x00\n        /* \"#utility.yul\":36217:36279   */\n      tag_806\n        /* \"#utility.yul\":36271:36278   */\n      dup5\n        /* \"#utility.yul\":36262:36268   */\n      dup3\n        /* \"#utility.yul\":36251:36260   */\n      dup6\n        /* \"#utility.yul\":36247:36269   */\n      add\n        /* \"#utility.yul\":36217:36279   */\n      tag_467\n      jump\t// in\n    tag_806:\n        /* \"#utility.yul\":36207:36279   */\n      swap2\n      pop\n        /* \"#utility.yul\":36163:36289   */\n      pop\n        /* \"#utility.yul\":35949:36296   */\n      swap3\n      swap2\n      pop\n      pop\n      jump\t// out\n        /* \"#utility.yul\":36302:36482   */\n    tag_209:\n        /* \"#utility.yul\":36350:36427   */\n      0x4e487b7100000000000000000000000000000000000000000000000000000000\n        /* \"#utility.yul\":36347:36348   */\n      0x00\n        /* \"#utility.yul\":36340:36428   */\n      mstore\n        /* \"#utility.yul\":36447:36451   */\n      0x32\n        /* \"#utility.yul\":36444:36445   */\n      0x04\n        /* \"#utility.yul\":36437:36452   */\n      mstore\n        /* \"#utility.yul\":36471:36475   */\n      0x24\n        /* \"#utility.yul\":36468:36469   */\n      0x00\n        /* \"#utility.yul\":36461:36476   */\n      revert\n        /* \"#utility.yul\":36488:36668   */\n    tag_235:\n        /* \"#utility.yul\":36536:36613   */\n      0x4e487b7100000000000000000000000000000000000000000000000000000000\n        /* \"#utility.yul\":36533:36534   */\n      0x00\n        /* \"#utility.yul\":36526:36614   */\n      mstore\n        /* \"#utility.yul\":36633:36637   */\n      0x12\n        /* \"#utility.yul\":36630:36631   */\n      0x04\n        /* \"#utility.yul\":36623:36638   */\n      mstore\n        /* \"#utility.yul\":36657:36661   */\n      0x24\n        /* \"#utility.yul\":36654:36655   */\n      0x00\n        /* \"#utility.yul\":36647:36662   */\n      revert\n        /* \"#utility.yul\":36674:37181   */\n    tag_248:\n        /* \"#utility.yul\":36753:36759   */\n      0x00\n        /* \"#utility.yul\":36761:36767   */\n      0x00\n        /* \"#utility.yul\":36810:36812   */\n      0x40\n        /* \"#utility.yul\":36798:36807   */\n      dup4\n        /* \"#utility.yul\":36789:36796   */\n      dup6\n        /* \"#utility.yul\":36785:36808   */\n      sub\n        /* \"#utility.yul\":36781:36813   */\n      slt\n        /* \"#utility.yul\":36778:36897   */\n      iszero\n      tag_810\n      jumpi\n        /* \"#utility.yul\":36816:36895   */\n      tag_811\n      tag_384\n      jump\t// in\n    tag_811:\n        /* \"#utility.yul\":36778:36897   */\n    tag_810:\n        /* \"#utility.yul\":36936:36937   */\n      0x00\n        /* \"#utility.yul\":36961:37025   */\n      tag_812\n        /* \"#utility.yul\":37017:37024   */\n      dup6\n        /* \"#utility.yul\":37008:37014   */\n      dup3\n        /* \"#utility.yul\":36997:37006   */\n      dup7\n        /* \"#utility.yul\":36993:37015   */\n      add\n        /* \"#utility.yul\":36961:37025   */\n      tag_465\n      jump\t// in\n    tag_812:\n        /* \"#utility.yul\":36951:37025   */\n      swap3\n      pop\n        /* \"#utility.yul\":36907:37035   */\n      pop\n        /* \"#utility.yul\":37074:37076   */\n      0x20\n        /* \"#utility.yul\":37100:37164   */\n      tag_813\n        /* \"#utility.yul\":37156:37163   */\n      dup6\n        /* \"#utility.yul\":37147:37153   */\n      dup3\n        /* \"#utility.yul\":37136:37145   */\n      dup7\n        /* \"#utility.yul\":37132:37154   */\n      add\n        /* \"#utility.yul\":37100:37164   */\n      tag_465\n      jump\t// in\n    tag_813:\n        /* \"#utility.yul\":37090:37164   */\n      swap2\n      pop\n        /* \"#utility.yul\":37045:37174   */\n      pop\n        /* \"#utility.yul\":36674:37181   */\n      swap3\n      pop\n      swap3\n      swap1\n      pop\n      jump\t// out\n        /* \"#utility.yul\":37187:37369   */\n    tag_468:\n        /* \"#utility.yul\":37327:37361   */\n      0x4469726563746f72792063616e6e6f74206265207a65726f2061646472657373\n        /* \"#utility.yul\":37323:37324   */\n      0x00\n        /* \"#utility.yul\":37315:37321   */\n      dup3\n        /* \"#utility.yul\":37311:37325   */\n      add\n        /* \"#utility.yul\":37304:37362   */\n      mstore\n        /* \"#utility.yul\":37187:37369   */\n      pop\n      jump\t// out\n        /* \"#utility.yul\":37375:37741   */\n    tag_469:\n        /* \"#utility.yul\":37517:37520   */\n      0x00\n        /* \"#utility.yul\":37538:37605   */\n      tag_816\n        /* \"#utility.yul\":37602:37604   */\n      0x20\n        /* \"#utility.yul\":37597:37600   */\n      dup4\n        /* \"#utility.yul\":37538:37605   */\n      tag_461\n      jump\t// in\n    tag_816:\n        /* \"#utility.yul\":37531:37605   */\n      swap2\n      pop\n        /* \"#utility.yul\":37614:37707   */\n      tag_817\n        /* \"#utility.yul\":37703:37706   */\n      dup3\n        /* \"#utility.yul\":37614:37707   */\n      tag_468\n      jump\t// in\n    tag_817:\n        /* \"#utility.yul\":37732:37734   */\n      0x20\n        /* \"#utility.yul\":37727:37730   */\n      dup3\n        /* \"#utility.yul\":37723:37735   */\n      add\n        /* \"#utility.yul\":37716:37735   */\n      swap1\n      pop\n        /* \"#utility.yul\":37375:37741   */\n      swap2\n      swap1\n      pop\n      jump\t// out\n        /* \"#utility.yul\":37747:38166   */\n    tag_289:\n        /* \"#utility.yul\":37913:37917   */\n      0x00\n        /* \"#utility.yul\":37951:37953   */\n      0x20\n        /* \"#utility.yul\":37940:37949   */\n      dup3\n        /* \"#utility.yul\":37936:37954   */\n      add\n        /* \"#utility.yul\":37928:37954   */\n      swap1\n      pop\n        /* \"#utility.yul\":38000:38009   */\n      dup2\n        /* \"#utility.yul\":37994:37998   */\n      dup2\n        /* \"#utility.yul\":37990:38010   */\n      sub\n        /* \"#utility.yul\":37986:37987   */\n      0x00\n        /* \"#utility.yul\":37975:37984   */\n      dup4\n        /* \"#utility.yul\":37971:37988   */\n      add\n        /* \"#utility.yul\":37964:38011   */\n      mstore\n        /* \"#utility.yul\":38028:38159   */\n      tag_819\n        /* \"#utility.yul\":38154:38158   */\n      dup2\n        /* \"#utility.yul\":38028:38159   */\n      tag_469\n      jump\t// in\n    tag_819:\n        /* \"#utility.yul\":38020:38159   */\n      swap1\n      pop\n        /* \"#utility.yul\":37747:38166   */\n      swap2\n      swap1\n      pop\n      jump\t// out\n        /* \"#utility.yul\":38172:38350   */\n    tag_470:\n        /* \"#utility.yul\":38312:38342   */\n      0x4469726563746f7279206d757374206265206120636f6e747261637400000000\n        /* \"#utility.yul\":38308:38309   */\n      0x00\n        /* \"#utility.yul\":38300:38306   */\n      dup3\n        /* \"#utility.yul\":38296:38310   */\n      add\n        /* \"#utility.yul\":38289:38343   */\n      mstore\n        /* \"#utility.yul\":38172:38350   */\n      pop\n      jump\t// out\n        /* \"#utility.yul\":38356:38722   */\n    tag_471:\n        /* \"#utility.yul\":38498:38501   */\n      0x00\n        /* \"#utility.yul\":38519:38586   */\n      tag_822\n        /* \"#utility.yul\":38583:38585   */\n      0x1c\n        /* \"#utility.yul\":38578:38581   */\n      dup4\n        /* \"#utility.yul\":38519:38586   */\n      tag_461\n      jump\t// in\n    tag_822:\n        /* \"#utility.yul\":38512:38586   */\n      swap2\n      pop\n        /* \"#utility.yul\":38595:38688   */\n      tag_823\n        /* \"#utility.yul\":38684:38687   */\n      dup3\n        /* \"#utility.yul\":38595:38688   */\n      tag_470\n      jump\t// in\n    tag_823:\n        /* \"#utility.yul\":38713:38715   */\n      0x20\n        /* \"#utility.yul\":38708:38711   */\n      dup3\n        /* \"#utility.yul\":38704:38716   */\n      add\n        /* \"#utility.yul\":38697:38716   */\n      swap1\n      pop\n        /* \"#utility.yul\":38356:38722   */\n      swap2\n      swap1\n      pop\n      jump\t// out\n        /* \"#utility.yul\":38728:39147   */\n    tag_292:\n        /* \"#utility.yul\":38894:38898   */\n      0x00\n        /* \"#utility.yul\":38932:38934   */\n      0x20\n        /* \"#utility.yul\":38921:38930   */\n      dup3\n        /* \"#utility.yul\":38917:38935   */\n      add\n        /* \"#utility.yul\":38909:38935   */\n      swap1\n      pop\n        /* \"#utility.yul\":38981:38990   */\n      dup2\n        /* \"#utility.yul\":38975:38979   */\n      dup2\n        /* \"#utility.yul\":38971:38991   */\n      sub\n        /* \"#utility.yul\":38967:38968   */\n      0x00\n        /* \"#utility.yul\":38956:38965   */\n      dup4\n        /* \"#utility.yul\":38952:38969   */\n      add\n        /* \"#utility.yul\":38945:38992   */\n      mstore\n        /* \"#utility.yul\":39009:39140   */\n      tag_825\n        /* \"#utility.yul\":39135:39139   */\n      dup2\n        /* \"#utility.yul\":39009:39140   */\n      tag_471\n      jump\t// in\n    tag_825:\n        /* \"#utility.yul\":39001:39140   */\n      swap1\n      pop\n        /* \"#utility.yul\":38728:39147   */\n      swap2\n      swap1\n      pop\n      jump\t// out\n        /* \"#utility.yul\":39153:39384   */\n    tag_472:\n        /* \"#utility.yul\":39293:39327   */\n      0x4469726563746f7279206164647265737320646f6573206e6f7420696d706c65\n        /* \"#utility.yul\":39289:39290   */\n      0x00\n        /* \"#utility.yul\":39281:39287   */\n      dup3\n        /* \"#utility.yul\":39277:39291   */\n      add\n        /* \"#utility.yul\":39270:39328   */\n      mstore\n        /* \"#utility.yul\":39362:39376   */\n      0x6d656e74206f776e657228290000000000000000000000000000000000000000\n        /* \"#utility.yul\":39357:39359   */\n      0x20\n        /* \"#utility.yul\":39349:39355   */\n      dup3\n        /* \"#utility.yul\":39345:39360   */\n      add\n        /* \"#utility.yul\":39338:39377   */\n      mstore\n        /* \"#utility.yul\":39153:39384   */\n      pop\n      jump\t// out\n        /* \"#utility.yul\":39390:39756   */\n    tag_473:\n        /* \"#utility.yul\":39532:39535   */\n      0x00\n        /* \"#utility.yul\":39553:39620   */\n      tag_828\n        /* \"#utility.yul\":39617:39619   */\n      0x2c\n        /* \"#utility.yul\":39612:39615   */\n      dup4\n        /* \"#utility.yul\":39553:39620   */\n      tag_461\n      jump\t// in\n    tag_828:\n        /* \"#utility.yul\":39546:39620   */\n      swap2\n      pop\n        /* \"#utility.yul\":39629:39722   */\n      tag_829\n        /* \"#utility.yul\":39718:39721   */\n      dup3\n        /* \"#utility.yul\":39629:39722   */\n      tag_472\n      jump\t// in\n    tag_829:\n        /* \"#utility.yul\":39747:39749   */\n      0x40\n        /* \"#utility.yul\":39742:39745   */\n      dup3\n        /* \"#utility.yul\":39738:39750   */\n      add\n        /* \"#utility.yul\":39731:39750   */\n      swap1\n      pop\n        /* \"#utility.yul\":39390:39756   */\n      swap2\n      swap1\n      pop\n      jump\t// out\n        /* \"#utility.yul\":39762:40181   */\n    tag_300:\n        /* \"#utility.yul\":39928:39932   */\n      0x00\n        /* \"#utility.yul\":39966:39968   */\n      0x20\n        /* \"#utility.yul\":39955:39964   */\n      dup3\n        /* \"#utility.yul\":39951:39969   */\n      add\n        /* \"#utility.yul\":39943:39969   */\n      swap1\n      pop\n        /* \"#utility.yul\":40015:40024   */\n      dup2\n        /* \"#utility.yul\":40009:40013   */\n      dup2\n        /* \"#utility.yul\":40005:40025   */\n      sub\n        /* \"#utility.yul\":40001:40002   */\n      0x00\n        /* \"#utility.yul\":39990:39999   */\n      dup4\n        /* \"#utility.yul\":39986:40003   */\n      add\n        /* \"#utility.yul\":39979:40026   */\n      mstore\n        /* \"#utility.yul\":40043:40174   */\n      tag_831\n        /* \"#utility.yul\":40169:40173   */\n      dup2\n        /* \"#utility.yul\":40043:40174   */\n      tag_473\n      jump\t// in\n    tag_831:\n        /* \"#utility.yul\":40035:40174   */\n      swap1\n      pop\n        /* \"#utility.yul\":39762:40181   */\n      swap2\n      swap1\n      pop\n      jump\t// out\n        /* \"#utility.yul\":40187:40367   */\n    tag_474:\n        /* \"#utility.yul\":40235:40312   */\n      0x4e487b7100000000000000000000000000000000000000000000000000000000\n        /* \"#utility.yul\":40232:40233   */\n      0x00\n        /* \"#utility.yul\":40225:40313   */\n      mstore\n        /* \"#utility.yul\":40332:40336   */\n      0x11\n        /* \"#utility.yul\":40329:40330   */\n      0x04\n        /* \"#utility.yul\":40322:40337   */\n      mstore\n        /* \"#utility.yul\":40356:40360   */\n      0x24\n        /* \"#utility.yul\":40353:40354   */\n      0x00\n        /* \"#utility.yul\":40346:40361   */\n      revert\n        /* \"#utility.yul\":40373:40558   */\n    tag_318:\n        /* \"#utility.yul\":40413:40414   */\n      0x00\n        /* \"#utility.yul\":40430:40450   */\n      tag_834\n        /* \"#utility.yul\":40448:40449   */\n      dup3\n        /* \"#utility.yul\":40430:40450   */\n      tag_386\n      jump\t// in\n    tag_834:\n        /* \"#utility.yul\":40425:40450   */\n      swap2\n      pop\n        /* \"#utility.yul\":40464:40484   */\n      tag_835\n        /* \"#utility.yul\":40482:40483   */\n      dup4\n        /* \"#utility.yul\":40464:40484   */\n      tag_386\n      jump\t// in\n    tag_835:\n        /* \"#utility.yul\":40459:40484   */\n      swap3\n      pop\n        /* \"#utility.yul\":40503:40504   */\n      dup3\n        /* \"#utility.yul\":40493:40528   */\n      tag_836\n      jumpi\n        /* \"#utility.yul\":40508:40526   */\n      tag_837\n      tag_235\n      jump\t// in\n    tag_837:\n        /* \"#utility.yul\":40493:40528   */\n    tag_836:\n        /* \"#utility.yul\":40550:40551   */\n      dup3\n        /* \"#utility.yul\":40547:40548   */\n      dup3\n        /* \"#utility.yul\":40543:40552   */\n      div\n        /* \"#utility.yul\":40538:40552   */\n      swap1\n      pop\n        /* \"#utility.yul\":40373:40558   */\n      swap3\n      swap2\n      pop\n      pop\n      jump\t// out\n        /* \"#utility.yul\":40564:40755   */\n    tag_328:\n        /* \"#utility.yul\":40602:40606   */\n      0x00\n        /* \"#utility.yul\":40622:40640   */\n      tag_839\n        /* \"#utility.yul\":40638:40639   */\n      dup3\n        /* \"#utility.yul\":40622:40640   */\n      tag_396\n      jump\t// in\n    tag_839:\n        /* \"#utility.yul\":40617:40640   */\n      swap2\n      pop\n        /* \"#utility.yul\":40654:40672   */\n      tag_840\n        /* \"#utility.yul\":40670:40671   */\n      dup4\n        /* \"#utility.yul\":40654:40672   */\n      tag_396\n      jump\t// in\n    tag_840:\n        /* \"#utility.yul\":40649:40672   */\n      swap3\n      pop\n        /* \"#utility.yul\":40696:40697   */\n      dup3\n        /* \"#utility.yul\":40693:40694   */\n      dup3\n        /* \"#utility.yul\":40689:40698   */\n      sub\n        /* \"#utility.yul\":40681:40698   */\n      swap1\n      pop\n        /* \"#utility.yul\":40720:40724   */\n      0xff\n        /* \"#utility.yul\":40714:40718   */\n      dup2\n        /* \"#utility.yul\":40711:40725   */\n      gt\n        /* \"#utility.yul\":40708:40748   */\n      iszero\n      tag_841\n      jumpi\n        /* \"#utility.yul\":40728:40746   */\n      tag_842\n      tag_474\n      jump\t// in\n    tag_842:\n        /* \"#utility.yul\":40708:40748   */\n    tag_841:\n        /* \"#utility.yul\":40564:40755   */\n      swap3\n      swap2\n      pop\n      pop\n      jump\t// out\n        /* \"#utility.yul\":40761:40926   */\n    tag_475:\n        /* \"#utility.yul\":40901:40918   */\n      0x6d756c446976206f766572666c6f770000000000000000000000000000000000\n        /* \"#utility.yul\":40897:40898   */\n      0x00\n        /* \"#utility.yul\":40889:40895   */\n      dup3\n        /* \"#utility.yul\":40885:40899   */\n      add\n        /* \"#utility.yul\":40878:40919   */\n      mstore\n        /* \"#utility.yul\":40761:40926   */\n      pop\n      jump\t// out\n        /* \"#utility.yul\":40932:41298   */\n    tag_476:\n        /* \"#utility.yul\":41074:41077   */\n      0x00\n        /* \"#utility.yul\":41095:41162   */\n      tag_845\n        /* \"#utility.yul\":41159:41161   */\n      0x0f\n        /* \"#utility.yul\":41154:41157   */\n      dup4\n        /* \"#utility.yul\":41095:41162   */\n      tag_461\n      jump\t// in\n    tag_845:\n        /* \"#utility.yul\":41088:41162   */\n      swap2\n      pop\n        /* \"#utility.yul\":41171:41264   */\n      tag_846\n        /* \"#utility.yul\":41260:41263   */\n      dup3\n        /* \"#utility.yul\":41171:41264   */\n      tag_475\n      jump\t// in\n    tag_846:\n        /* \"#utility.yul\":41289:41291   */\n      0x20\n        /* \"#utility.yul\":41284:41287   */\n      dup3\n        /* \"#utility.yul\":41280:41292   */\n      add\n        /* \"#utility.yul\":41273:41292   */\n      swap1\n      pop\n        /* \"#utility.yul\":40932:41298   */\n      swap2\n      swap1\n      pop\n      jump\t// out\n        /* \"#utility.yul\":41304:41723   */\n    tag_358:\n        /* \"#utility.yul\":41470:41474   */\n      0x00\n        /* \"#utility.yul\":41508:41510   */\n      0x20\n        /* \"#utility.yul\":41497:41506   */\n      dup3\n        /* \"#utility.yul\":41493:41511   */\n      add\n        /* \"#utility.yul\":41485:41511   */\n      swap1\n      pop\n        /* \"#utility.yul\":41557:41566   */\n      dup2\n        /* \"#utility.yul\":41551:41555   */\n      dup2\n        /* \"#utility.yul\":41547:41567   */\n      sub\n        /* \"#utility.yul\":41543:41544   */\n      0x00\n        /* \"#utility.yul\":41532:41541   */\n      dup4\n        /* \"#utility.yul\":41528:41545   */\n      add\n        /* \"#utility.yul\":41521:41568   */\n      mstore\n        /* \"#utility.yul\":41585:41716   */\n      tag_848\n        /* \"#utility.yul\":41711:41715   */\n      dup2\n        /* \"#utility.yul\":41585:41716   */\n      tag_476\n      jump\t// in\n    tag_848:\n        /* \"#utility.yul\":41577:41716   */\n      swap1\n      pop\n        /* \"#utility.yul\":41304:41723   */\n      swap2\n      swap1\n      pop\n      jump\t// out\n        /* \"#utility.yul\":41729:41893   */\n    tag_477:\n        /* \"#utility.yul\":41869:41885   */\n      0x706f773130206f766572666c6f77000000000000000000000000000000000000\n        /* \"#utility.yul\":41865:41866   */\n      0x00\n        /* \"#utility.yul\":41857:41863   */\n      dup3\n        /* \"#utility.yul\":41853:41867   */\n      add\n        /* \"#utility.yul\":41846:41886   */\n      mstore\n        /* \"#utility.yul\":41729:41893   */\n      pop\n      jump\t// out\n        /* \"#utility.yul\":41899:42265   */\n    tag_478:\n        /* \"#utility.yul\":42041:42044   */\n      0x00\n        /* \"#utility.yul\":42062:42129   */\n      tag_851\n        /* \"#utility.yul\":42126:42128   */\n      0x0e\n        /* \"#utility.yul\":42121:42124   */\n      dup4\n        /* \"#utility.yul\":42062:42129   */\n      tag_461\n      jump\t// in\n    tag_851:\n        /* \"#utility.yul\":42055:42129   */\n      swap2\n      pop\n        /* \"#utility.yul\":42138:42231   */\n      tag_852\n        /* \"#utility.yul\":42227:42230   */\n      dup3\n        /* \"#utility.yul\":42138:42231   */\n      tag_477\n      jump\t// in\n    tag_852:\n        /* \"#utility.yul\":42256:42258   */\n      0x20\n        /* \"#utility.yul\":42251:42254   */\n      dup3\n        /* \"#utility.yul\":42247:42259   */\n      add\n        /* \"#utility.yul\":42240:42259   */\n      swap1\n      pop\n        /* \"#utility.yul\":41899:42265   */\n      swap2\n      swap1\n      pop\n      jump\t// out\n        /* \"#utility.yul\":42271:42690   */\n    tag_378:\n        /* \"#utility.yul\":42437:42441   */\n      0x00\n        /* \"#utility.yul\":42475:42477   */\n      0x20\n        /* \"#utility.yul\":42464:42473   */\n      dup3\n        /* \"#utility.yul\":42460:42478   */\n      add\n        /* \"#utility.yul\":42452:42478   */\n      swap1\n      pop\n        /* \"#utility.yul\":42524:42533   */\n      dup2\n        /* \"#utility.yul\":42518:42522   */\n      dup2\n        /* \"#utility.yul\":42514:42534   */\n      sub\n        /* \"#utility.yul\":42510:42511   */\n      0x00\n        /* \"#utility.yul\":42499:42508   */\n      dup4\n        /* \"#utility.yul\":42495:42512   */\n      add\n        /* \"#utility.yul\":42488:42535   */\n      mstore\n        /* \"#utility.yul\":42552:42683   */\n      tag_854\n        /* \"#utility.yul\":42678:42682   */\n      dup2\n        /* \"#utility.yul\":42552:42683   */\n      tag_478\n      jump\t// in\n    tag_854:\n        /* \"#utility.yul\":42544:42683   */\n      swap1\n      pop\n        /* \"#utility.yul\":42271:42690   */\n      swap2\n      swap1\n      pop\n      jump\t// out\n\n    auxdata: 0xa264697066735822122082c842d3d043980fe8708c98e9388d4f8432fa24c1722beb32f15fb63721c5ed64736f6c634300081e0033\n}\n",
				"bytecode": {
					"linkReferences": {},
					"object": "608060405234801561000f575f5ffd5b5060405161335938038061335983398181016040528101906100319190610257565b806100418161004860201b60201c565b50506103f0565b5f73ffffffffffffffffffffffffffffffffffffffff168173ffffffffffffffffffffffffffffffffffffffff16036100b6576040517f08c379a00000000000000000000000000000000000000000000000000000000081526004016100ad906102dc565b60405180910390fd5b5f8173ffffffffffffffffffffffffffffffffffffffff163b1161010f576040517f08c379a000000000000000000000000000000000000000000000000000000000815260040161010690610344565b60405180910390fd5b8073ffffffffffffffffffffffffffffffffffffffff16638da5cb5b6040518163ffffffff1660e01b8152600401602060405180830381865afa92505050801561017757506040513d601f19601f820116820180604052508101906101749190610257565b60015b6101b6576040517f08c379a00000000000000000000000000000000000000000000000000000000081526004016101ad906103d2565b60405180910390fd5b815f5f6101000a81548173ffffffffffffffffffffffffffffffffffffffff021916908373ffffffffffffffffffffffffffffffffffffffff1602179055505050565b5f5ffd5b5f73ffffffffffffffffffffffffffffffffffffffff82169050919050565b5f610226826101fd565b9050919050565b6102368161021c565b8114610240575f5ffd5b50565b5f815190506102518161022d565b92915050565b5f6020828403121561026c5761026b6101f9565b5b5f61027984828501610243565b91505092915050565b5f82825260208201905092915050565b7f4469726563746f72792063616e6e6f74206265207a65726f20616464726573735f82015250565b5f6102c6602083610282565b91506102d182610292565b602082019050919050565b5f6020820190508181035f8301526102f3816102ba565b9050919050565b7f4469726563746f7279206d757374206265206120636f6e7472616374000000005f82015250565b5f61032e601c83610282565b9150610339826102fa565b602082019050919050565b5f6020820190508181035f83015261035b81610322565b9050919050565b7f4469726563746f7279206164647265737320646f6573206e6f7420696d706c655f8201527f6d656e74206f776e657228290000000000000000000000000000000000000000602082015250565b5f6103bc602c83610282565b91506103c782610362565b604082019050919050565b5f6020820190508181035f8301526103e9816103b0565b9050919050565b612f5c806103fd5f395ff3fe608060405234801561000f575f5ffd5b50600436106100b2575f3560e01c806379de9e821161006f57806379de9e82146101c9578063812efc8e146101fa5780638da5cb5b1461022a578063ba4c7be114610248578063cd8d334f14610264578063ee0d96c514610296576100b2565b80630705a3e8146100b657806313290a89146100e6578063179b8f97146101175780632726261814610147578063399a23da14610177578063658a847a146101ab575b5f5ffd5b6100d060048036038101906100cb9190611c7f565b6102c7565b6040516100dd9190611cb9565b60405180910390f35b61010060048036038101906100fb9190611c7f565b610371565b60405161010e929190611e78565b60405180910390f35b610131600480360381019061012c9190611c7f565b610411565b60405161013e9190611f3a565b60405180910390f35b610161600480360381019061015c9190612090565b6104b5565b60405161016e91906120e6565b60405180910390f35b610191600480360381019061018c9190611c7f565b610555565b6040516101a29594939291906123d8565b60405180910390f35b6101b3610621565b6040516101c09190612496565b60405180910390f35b6101e360048036038101906101de9190611c7f565b610645565b6040516101f19291906124af565b60405180910390f35b610214600480360381019061020f9190611c7f565b6106ee565b6040516102219190611cb9565b60405180910390f35b61023261078b565b60405161023f91906120e6565b60405180910390f35b610262600480360381019061025d9190612500565b61081e565b005b61027e60048036038101906102799190611c7f565b610924565b60405161028d9392919061252b565b60405180910390f35b6102b060048036038101906102ab919061275f565b6109c9565b6040516102be929190611e78565b60405180910390f35b5f5f5f6102d26109e1565b73ffffffffffffffffffffffffffffffffffffffff16633088f069856040518263ffffffff1660e01b815260040161030a9190611cb9565b5f60405180830381865afa158015610324573d5f5f3e3d5ffd5b505050506040513d5f823e3d601f19601f8201168201806040525081019061034c91906129e6565b915091505f61035c858484610a25565b905061036781610bf1565b9350505050919050565b60605f5f5f61037e6109e1565b73ffffffffffffffffffffffffffffffffffffffff16633088f069866040518263ffffffff1660e01b81526004016103b69190611cb9565b5f60405180830381865afa1580156103d0573d5f5f3e3d5ffd5b505050506040513d5f823e3d601f19601f820116820180604052508101906103f891906129e6565b915091506104068282610ca4565b935093505050915091565b610419611b1c565b5f5f6104236109e1565b73ffffffffffffffffffffffffffffffffffffffff16633088f069856040518263ffffffff1660e01b815260040161045b9190611cb9565b5f60405180830381865afa158015610475573d5f5f3e3d5ffd5b505050506040513d5f823e3d601f19601f8201168201806040525081019061049d91906129e6565b915091506104ac848383610fde565b92505050919050565b5f5f5f9054906101000a900473ffffffffffffffffffffffffffffffffffffffff1673ffffffffffffffffffffffffffffffffffffffff166327262618836040518263ffffffff1660e01b815260040161050f9190612a88565b602060405180830381865afa15801561052a573d5f5f3e3d5ffd5b505050506040513d601f19601f8201168201806040525081019061054e9190612aa8565b9050919050565b61055d611b5b565b610565611b1c565b60605f5f5f6105726109e1565b73ffffffffffffffffffffffffffffffffffffffff16633088f069886040518263ffffffff1660e01b81526004016105aa9190611cb9565b5f60405180830381865afa1580156105c4573d5f5f3e3d5ffd5b505050506040513d5f823e3d601f19601f820116820180604052508101906105ec91906129e6565b80925081975050506105ff878783610fde565b945061060b8682611168565b8094508195508296505050505091939590929450565b5f5f9054906101000a900473ffffffffffffffffffffffffffffffffffffffff1681565b5f5f5f5f6106516109e1565b73ffffffffffffffffffffffffffffffffffffffff16633088f069866040518263ffffffff1660e01b81526004016106899190611cb9565b5f60405180830381865afa1580156106a3573d5f5f3e3d5ffd5b505050506040513d5f823e3d601f19601f820116820180604052508101906106cb91906129e6565b915091506106da858383610a25565b93506106e584610bf1565b92505050915091565b5f5f5f6106f96109e1565b73ffffffffffffffffffffffffffffffffffffffff16633088f069856040518263ffffffff1660e01b81526004016107319190611cb9565b5f60405180830381865afa15801561074b573d5f5f3e3d5ffd5b505050506040513d5f823e3d601f19601f8201168201806040525081019061077391906129e6565b91509150610782848383610a25565b92505050919050565b5f5f5f9054906101000a900473ffffffffffffffffffffffffffffffffffffffff1673ffffffffffffffffffffffffffffffffffffffff16638da5cb5b6040518163ffffffff1660e01b8152600401602060405180830381865afa1580156107f5573d5f5f3e3d5ffd5b505050506040513d601f19601f820116820180604052508101906108199190612aa8565b905090565b5f5f9054906101000a900473ffffffffffffffffffffffffffffffffffffffff1673ffffffffffffffffffffffffffffffffffffffff16638da5cb5b6040518163ffffffff1660e01b8152600401602060405180830381865afa158015610887573d5f5f3e3d5ffd5b505050506040513d601f19601f820116820180604052508101906108ab9190612aa8565b73ffffffffffffffffffffffffffffffffffffffff163373ffffffffffffffffffffffffffffffffffffffff1614610918576040517f08c379a000000000000000000000000000000000000000000000000000000000815260040161090f90612b1d565b60405180910390fd5b6109218161137c565b50565b60605f5f5f5f6109326109e1565b73ffffffffffffffffffffffffffffffffffffffff16633088f069876040518263ffffffff1660e01b815260040161096a9190611cb9565b5f60405180830381865afa158015610984573d5f5f3e3d5ffd5b505050506040513d5f823e3d601f19601f820116820180604052508101906109ac91906129e6565b915091506109ba8282611168565b94509450945050509193909250565b60605f6109d68484610ca4565b915091509250929050565b5f610a206040518060400160405280600b81526020017f6574662d666163746f72790000000000000000000000000000000000000000008152506104b5565b905090565b5f5f610a2f6109e1565b73ffffffffffffffffffffffffffffffffffffffff1663f2018a1f866040518263ffffffff1660e01b8152600401610a679190611cb9565b602060405180830381865afa158015610a82573d5f5f3e3d5ffd5b505050506040513d601f19601f82011682018060405250810190610aa69190612aa8565b90505f8173ffffffffffffffffffffffffffffffffffffffff166318160ddd6040518163ffffffff1660e01b8152600401602060405180830381865afa158015610af2573d5f5f3e3d5ffd5b505050506040513d601f19601f82011682018060405250810190610b169190612b4f565b90505f8273ffffffffffffffffffffffffffffffffffffffff1663313ce5676040518163ffffffff1660e01b8152600401602060405180830381865afa158015610b62573d5f5f3e3d5ffd5b505050506040513d601f19601f82011682018060405250810190610b869190612ba4565b90505f8203610ba257610b988661152d565b9350505050610bea565b5f610bad8383611662565b90505f8103610bc2575f945050505050610bea565b5f610bcd88886116cd565b9050610be281670de0b6b3a7640000846118c7565b955050505050505b9392505050565b5f5f8203610c01575f9050610c9f565b5f610c0a6119d1565b73ffffffffffffffffffffffffffffffffffffffff16636855e9396040518163ffffffff1660e01b8152600401602060405180830381865afa158015610c52573d5f5f3e3d5ffd5b505050506040513d601f19601f82011682018060405250810190610c769190612b4f565b90505f8103610c88575f915050610c9f565b610c9b8382670de0b6b3a76400006118c7565b9150505b919050565b60605f5f84604001515190508067ffffffffffffffff811115610cca57610cc9611f6c565b5b604051908082528060200260200182016040528015610d0357816020015b610cf0611b7c565b815260200190600190039081610ce85790505b5092505f610d0f6119d1565b90505f5f90505b82811015610f52575f87604001518281518110610d3657610d35612bcf565b5b60200260200101515f015190505f8173ffffffffffffffffffffffffffffffffffffffff1663313ce5676040518163ffffffff1660e01b8152600401602060405180830381865afa158015610d8d573d5f5f3e3d5ffd5b505050506040513d601f19601f82011682018060405250810190610db19190612ba4565b90505f8273ffffffffffffffffffffffffffffffffffffffff166370a082318a6040518263ffffffff1660e01b8152600401610ded91906120e6565b602060405180830381865afa158015610e08573d5f5f3e3d5ffd5b505050506040513d601f19601f82011682018060405250810190610e2c9190612b4f565b90505f8573ffffffffffffffffffffffffffffffffffffffff16637b49b49d856040518263ffffffff1660e01b8152600401610e6891906120e6565b602060405180830381865afa158015610e83573d5f5f3e3d5ffd5b505050506040513d601f19601f82011682018060405250810190610ea79190612b4f565b90505f5f831480610eb757505f82145b610ed157610ecc83838660ff16600a0a6118c7565b610ed3565b5f5b90506040518060c001604052808673ffffffffffffffffffffffffffffffffffffffff1681526020018560ff1681526020015f61ffff168152602001848152602001838152602001828152508a8781518110610f3257610f31612bcf565b5b602002602001018190525080890198505050505050806001019050610d16565b505f831115610fd5575f5f90505b82811015610fd35783612710868381518110610f7f57610f7e612bcf565b5b602002602001015160a001510281610f9a57610f99612bfc565b5b04858281518110610fae57610fad612bcf565b5b60200260200101516040019061ffff16908161ffff1681525050806001019050610f60565b505b50509250929050565b610fe6611b1c565b5f610fef6119d1565b90505f610ffd868686610a25565b90505f61100982610bf1565b9050604051806040016040528083815260200182815250845f01819052505f5f6110316109e1565b73ffffffffffffffffffffffffffffffffffffffff1663c45f06078a6040518263ffffffff1660e01b81526004016110699190611cb9565b6040805180830381865afa158015611083573d5f5f3e3d5ffd5b505050506040513d601f19601f820116820180604052508101906110a79190612c29565b9150915060405180604001604052808381526020018281525086602001819052505f6110d389896116cd565b90505f6110df82610bf1565b905060405180604001604052808381526020018281525088604001819052506111238a8873ffffffffffffffffffffffffffffffffffffffff166357b6c133611a15565b8860600181815250506111518a8873ffffffffffffffffffffffffffffffffffffffff166369a2e17d611a15565b886080018181525050505050505050509392505050565b60605f5f5f5f6111788787610ca4565b9150915080935061118881610bf1565b92505f825190508067ffffffffffffffff8111156111a9576111a8611f6c565b5b6040519080825280602002602001820160405280156111e257816020015b6111cf611bc9565b8152602001906001900390816111c75790505b5095505f5f90505b818110156113715760405180610100016040528085838151811061121157611210612bcf565b5b60200260200101515f015173ffffffffffffffffffffffffffffffffffffffff16815260200185838151811061124a57611249612bcf565b5b60200260200101516020015160ff16815260200185838151811061127157611270612bcf565b5b60200260200101516040015161ffff16815260200185838151811061129957611298612bcf565b5b60200260200101516060015181526020018583815181106112bd576112bc612bcf565b5b60200260200101516080015181526020016112f58684815181106112e4576112e3612bcf565b5b602002602001015160800151610bf1565b815260200185838151811061130d5761130c612bcf565b5b602002602001015160a00151815260200161134586848151811061133457611333612bcf565b5b602002602001015160a00151610bf1565b81525087828151811061135b5761135a612bcf565b5b60200260200101819052508060010190506111ea565b505050509250925092565b5f73ffffffffffffffffffffffffffffffffffffffff168173ffffffffffffffffffffffffffffffffffffffff16036113ea576040517f08c379a00000000000000000000000000000000000000000000000000000000081526004016113e190612cb1565b60405180910390fd5b5f8173ffffffffffffffffffffffffffffffffffffffff163b11611443576040517f08c379a000000000000000000000000000000000000000000000000000000000815260040161143a90612d19565b60405180910390fd5b8073ffffffffffffffffffffffffffffffffffffffff16638da5cb5b6040518163ffffffff1660e01b8152600401602060405180830381865afa9250505080156114ab57506040513d601f19601f820116820180604052508101906114a89190612aa8565b60015b6114ea576040517f08c379a00000000000000000000000000000000000000000000000000000000081526004016114e190612da7565b60405180910390fd5b815f5f6101000a81548173ffffffffffffffffffffffffffffffffffffffff021916908373ffffffffffffffffffffffffffffffffffffffff1602179055505050565b5f5f5f6115386119d1565b90505f5f90505b84604001515181101561164a575f8560400151828151811061156457611563612bcf565b5b60200260200101515f015190505f8660400151838151811061158957611588612bcf565b5b60200260200101516020015190505f8473ffffffffffffffffffffffffffffffffffffffff16637b49b49d846040518263ffffffff1660e01b81526004016115d191906120e6565b602060405180830381865afa1580156115ec573d5f5f3e3d5ffd5b505050506040513d601f19601f820116820180604052508101906116109190612b4f565b90505f81148061162357505f8261ffff16145b156116305750505061163f565b808261ffff1602860195505050505b80600101905061153f565b50612710826116599190612df2565b92505050919050565b5f60128260ff1603611676578290506116c7565b60128260ff1610156116a45761169d83670de0b6b3a764000061169885611ac6565b6118c7565b90506116c7565b6116b96012836116b49190612e22565b611ac6565b836116c49190612df2565b90505b92915050565b5f5f6116d76119d1565b90505f5f90505b8460400151518110156118bf575f8560400151828151811061170357611702612bcf565b5b60200260200101515f015190505f8173ffffffffffffffffffffffffffffffffffffffff166370a08231876040518263ffffffff1660e01b815260040161174a91906120e6565b602060405180830381865afa158015611765573d5f5f3e3d5ffd5b505050506040513d601f19601f820116820180604052508101906117899190612b4f565b90505f81036117995750506118b4565b5f8473ffffffffffffffffffffffffffffffffffffffff16637b49b49d846040518263ffffffff1660e01b81526004016117d391906120e6565b602060405180830381865afa1580156117ee573d5f5f3e3d5ffd5b505050506040513d601f19601f820116820180604052508101906118129190612b4f565b90505f8103611823575050506118b4565b5f8373ffffffffffffffffffffffffffffffffffffffff1663313ce5676040518163ffffffff1660e01b8152600401602060405180830381865afa15801561186d573d5f5f3e3d5ffd5b505050506040513d601f19601f820116820180604052508101906118919190612ba4565b90505f61189d82611ac6565b90506118aa8484836118c7565b8801975050505050505b8060010190506116de565b505092915050565b5f5f5f5f198587098587029250828110838203039150505f81036118ff578382816118f5576118f4612bfc565b5b04925050506119ca565b808411611941576040517f08c379a000000000000000000000000000000000000000000000000000000000815260040161193890612ea0565b60405180910390fd5b5f8486880990508281118203915080830392505f60018619018616905080860495508084049350600181825f0304019050808302841793505f600287600302189050808702600203810290508087026002038102905080870260020381029050808702600203810290508087026002038102905080870260020381029050808502955050505050505b9392505050565b5f611a106040518060400160405280600e81526020017f756e69737761702d6f7261636c650000000000000000000000000000000000008152506104b5565b905090565b5f5f5f90505b846040015151811015611abe575f85604001518281518110611a4057611a3f612bcf565b5b60200260200101515f015190508484826040518263ffffffff1660e01b8152600401611a6c91906120e6565b602060405180830381865afa925050508015611aa657506040513d601f19601f82011682018060405250810190611aa39190612b4f565b60015b15611ab2578084019350505b50806001019050611a1b565b509392505050565b5f604d8260ff161115611b0e576040517f08c379a0000000000000000000000000000000000000000000000000000000008152600401611b0590612f08565b60405180910390fd5b8160ff16600a0a9050919050565b6040518060a00160405280611b2f611c23565b8152602001611b3c611c23565b8152602001611b49611c23565b81526020015f81526020015f81525090565b60405180606001604052806060815260200160608152602001606081525090565b6040518060c001604052805f73ffffffffffffffffffffffffffffffffffffffff1681526020015f60ff1681526020015f61ffff1681526020015f81526020015f81526020015f81525090565b6040518061010001604052805f73ffffffffffffffffffffffffffffffffffffffff1681526020015f60ff1681526020015f61ffff1681526020015f81526020015f81526020015f81526020015f81526020015f81525090565b60405180604001604052805f81526020015f81525090565b5f604051905090565b5f5ffd5b5f5ffd5b5f819050919050565b611c5e81611c4c565b8114611c68575f5ffd5b50565b5f81359050611c7981611c55565b92915050565b5f60208284031215611c9457611c93611c44565b5b5f611ca184828501611c6b565b91505092915050565b611cb381611c4c565b82525050565b5f602082019050611ccc5f830184611caa565b92915050565b5f81519050919050565b5f82825260208201905092915050565b5f819050602082019050919050565b5f73ffffffffffffffffffffffffffffffffffffffff82169050919050565b5f611d2482611cfb565b9050919050565b611d3481611d1a565b82525050565b5f60ff82169050919050565b611d4f81611d3a565b82525050565b5f61ffff82169050919050565b611d6b81611d55565b82525050565b611d7a81611c4c565b82525050565b60c082015f820151611d945f850182611d2b565b506020820151611da76020850182611d46565b506040820151611dba6040850182611d62565b506060820151611dcd6060850182611d71565b506080820151611de06080850182611d71565b5060a0820151611df360a0850182611d71565b50505050565b5f611e048383611d80565b60c08301905092915050565b5f602082019050919050565b5f611e2682611cd2565b611e308185611cdc565b9350611e3b83611cec565b805f5b83811015611e6b578151611e528882611df9565b9750611e5d83611e10565b925050600181019050611e3e565b5085935050505092915050565b5f6040820190508181035f830152611e908185611e1c565b9050611e9f6020830184611caa565b9392505050565b604082015f820151611eba5f850182611d71565b506020820151611ecd6020850182611d71565b50505050565b61010082015f820151611ee85f850182611ea6565b506020820151611efb6040850182611ea6565b506040820151611f0e6080850182611ea6565b506060820151611f2160c0850182611d71565b506080820151611f3460e0850182611d71565b50505050565b5f61010082019050611f4e5f830184611ed3565b92915050565b5f5ffd5b5f5ffd5b5f601f19601f8301169050919050565b7f4e487b71000000000000000000000000000000000000000000000000000000005f52604160045260245ffd5b611fa282611f5c565b810181811067ffffffffffffffff82111715611fc157611fc0611f6c565b5b80604052505050565b5f611fd3611c3b565b9050611fdf8282611f99565b919050565b5f67ffffffffffffffff821115611ffe57611ffd611f6c565b5b61200782611f5c565b9050602081019050919050565b828183375f83830152505050565b5f61203461202f84611fe4565b611fca565b9050828152602081018484840111156120505761204f611f58565b5b61205b848285612014565b509392505050565b5f82601f83011261207757612076611f54565b5b8135612087848260208601612022565b91505092915050565b5f602082840312156120a5576120a4611c44565b5b5f82013567ffffffffffffffff8111156120c2576120c1611c48565b5b6120ce84828501612063565b91505092915050565b6120e081611d1a565b82525050565b5f6020820190506120f95f8301846120d7565b92915050565b5f81519050919050565b5f82825260208201905092915050565b8281835e5f83830152505050565b5f612131826120ff565b61213b8185612109565b935061214b818560208601612119565b61215481611f5c565b840191505092915050565b5f81519050919050565b5f82825260208201905092915050565b5f819050602082019050919050565b604082015f82015161219c5f850182611d2b565b5060208201516121af6020850182611d62565b50505050565b5f6121c08383612188565b60408301905092915050565b5f602082019050919050565b5f6121e28261215f565b6121ec8185612169565b93506121f783612179565b805f5b8381101561222757815161220e88826121b5565b9750612219836121cc565b9250506001810190506121fa565b5085935050505092915050565b5f606083015f8301518482035f86015261224e8282612127565b915050602083015184820360208601526122688282612127565b9150506040830151848203604086015261228282826121d8565b9150508091505092915050565b5f81519050919050565b5f82825260208201905092915050565b5f819050602082019050919050565b61010082015f8201516122cd5f850182611d2b565b5060208201516122e06020850182611d46565b5060408201516122f36040850182611d62565b5060608201516123066060850182611d71565b5060808201516123196080850182611d71565b5060a082015161232c60a0850182611d71565b5060c082015161233f60c0850182611d71565b5060e082015161235260e0850182611d71565b50505050565b5f61236383836122b8565b6101008301905092915050565b5f602082019050919050565b5f6123868261228f565b6123908185612299565b935061239b836122a9565b805f5b838110156123cb5781516123b28882612358565b97506123bd83612370565b92505060018101905061239e565b5085935050505092915050565b5f610180820190508181035f8301526123f18188612234565b90506124006020830187611ed3565b818103610120830152612413818661237c565b9050612423610140830185611caa565b612431610160830184611caa565b9695505050505050565b5f819050919050565b5f61245e61245961245484611cfb565b61243b565b611cfb565b9050919050565b5f61246f82612444565b9050919050565b5f61248082612465565b9050919050565b61249081612476565b82525050565b5f6020820190506124a95f830184612487565b92915050565b5f6040820190506124c25f830185611caa565b6124cf6020830184611caa565b9392505050565b6124df81611d1a565b81146124e9575f5ffd5b50565b5f813590506124fa816124d6565b92915050565b5f6020828403121561251557612514611c44565b5b5f612522848285016124ec565b91505092915050565b5f6060820190508181035f830152612543818661237c565b90506125526020830185611caa565b61255f6040830184611caa565b949350505050565b5f5ffd5b5f5ffd5b5f67ffffffffffffffff82111561258957612588611f6c565b5b602082029050602081019050919050565b5f5ffd5b6125a781611d55565b81146125b1575f5ffd5b50565b5f813590506125c28161259e565b92915050565b5f604082840312156125dd576125dc612567565b5b6125e76040611fca565b90505f6125f6848285016124ec565b5f830152506020612609848285016125b4565b60208301525092915050565b5f6126276126228461256f565b611fca565b9050808382526020820190506040840283018581111561264a5761264961259a565b5b835b81811015612673578061265f88826125c8565b84526020840193505060408101905061264c565b5050509392505050565b5f82601f83011261269157612690611f54565b5b81356126a1848260208601612615565b91505092915050565b5f606082840312156126bf576126be612567565b5b6126c96060611fca565b90505f82013567ffffffffffffffff8111156126e8576126e761256b565b5b6126f484828501612063565b5f83015250602082013567ffffffffffffffff8111156127175761271661256b565b5b61272384828501612063565b602083015250604082013567ffffffffffffffff8111156127475761274661256b565b5b6127538482850161267d565b60408301525092915050565b5f5f6040838503121561277557612774611c44565b5b5f83013567ffffffffffffffff81111561279257612791611c48565b5b61279e858286016126aa565b92505060206127af858286016124ec565b9150509250929050565b5f6127cb6127c684611fe4565b611fca565b9050828152602081018484840111156127e7576127e6611f58565b5b6127f2848285612119565b509392505050565b5f82601f83011261280e5761280d611f54565b5b815161281e8482602086016127b9565b91505092915050565b5f81519050612835816124d6565b92915050565b5f815190506128498161259e565b92915050565b5f6040828403121561286457612863612567565b5b61286e6040611fca565b90505f61287d84828501612827565b5f8301525060206128908482850161283b565b60208301525092915050565b5f6128ae6128a98461256f565b611fca565b905080838252602082019050604084028301858111156128d1576128d061259a565b5b835b818110156128fa57806128e6888261284f565b8452602084019350506040810190506128d3565b5050509392505050565b5f82601f83011261291857612917611f54565b5b815161292884826020860161289c565b91505092915050565b5f6060828403121561294657612945612567565b5b6129506060611fca565b90505f82015167ffffffffffffffff81111561296f5761296e61256b565b5b61297b848285016127fa565b5f83015250602082015167ffffffffffffffff81111561299e5761299d61256b565b5b6129aa848285016127fa565b602083015250604082015167ffffffffffffffff8111156129ce576129cd61256b565b5b6129da84828501612904565b60408301525092915050565b5f5f604083850312156129fc576129fb611c44565b5b5f83015167ffffffffffffffff811115612a1957612a18611c48565b5b612a2585828601612931565b9250506020612a3685828601612827565b9150509250929050565b5f82825260208201905092915050565b5f612a5a826120ff565b612a648185612a40565b9350612a74818560208601612119565b612a7d81611f5c565b840191505092915050565b5f6020820190508181035f830152612aa08184612a50565b905092915050565b5f60208284031215612abd57612abc611c44565b5b5f612aca84828501612827565b91505092915050565b7f43616c6c6572206973206e6f7420746865206f776e65720000000000000000005f82015250565b5f612b07601783612a40565b9150612b1282612ad3565b602082019050919050565b5f6020820190508181035f830152612b3481612afb565b9050919050565b5f81519050612b4981611c55565b92915050565b5f60208284031215612b6457612b63611c44565b5b5f612b7184828501612b3b565b91505092915050565b612b8381611d3a565b8114612b8d575f5ffd5b50565b5f81519050612b9e81612b7a565b92915050565b5f60208284031215612bb957612bb8611c44565b5b5f612bc684828501612b90565b91505092915050565b7f4e487b71000000000000000000000000000000000000000000000000000000005f52603260045260245ffd5b7f4e487b71000000000000000000000000000000000000000000000000000000005f52601260045260245ffd5b5f5f60408385031215612c3f57612c3e611c44565b5b5f612c4c85828601612b3b565b9250506020612c5d85828601612b3b565b9150509250929050565b7f4469726563746f72792063616e6e6f74206265207a65726f20616464726573735f82015250565b5f612c9b602083612a40565b9150612ca682612c67565b602082019050919050565b5f6020820190508181035f830152612cc881612c8f565b9050919050565b7f4469726563746f7279206d757374206265206120636f6e7472616374000000005f82015250565b5f612d03601c83612a40565b9150612d0e82612ccf565b602082019050919050565b5f6020820190508181035f830152612d3081612cf7565b9050919050565b7f4469726563746f7279206164647265737320646f6573206e6f7420696d706c655f8201527f6d656e74206f776e657228290000000000000000000000000000000000000000602082015250565b5f612d91602c83612a40565b9150612d9c82612d37565b604082019050919050565b5f6020820190508181035f830152612dbe81612d85565b9050919050565b7f4e487b71000000000000000000000000000000000000000000000000000000005f52601160045260245ffd5b5f612dfc82611c4c565b9150612e0783611c4c565b925082612e1757612e16612bfc565b5b828204905092915050565b5f612e2c82611d3a565b9150612e3783611d3a565b9250828203905060ff811115612e5057612e4f612dc5565b5b92915050565b7f6d756c446976206f766572666c6f7700000000000000000000000000000000005f82015250565b5f612e8a600f83612a40565b9150612e9582612e56565b602082019050919050565b5f6020820190508181035f830152612eb781612e7e565b9050919050565b7f706f773130206f766572666c6f770000000000000000000000000000000000005f82015250565b5f612ef2600e83612a40565b9150612efd82612ebe565b602082019050919050565b5f6020820190508181035f830152612f1f81612ee6565b905091905056fea264697066735822122082c842d3d043980fe8708c98e9388d4f8432fa24c1722beb32f15fb63721c5ed64736f6c634300081e0033",
					"opcodes": "PUSH1 0x80 PUSH1 0x40 MSTORE CALLVALUE DUP1 ISZERO PUSH2 0xF JUMPI PUSH0 PUSH0 REVERT JUMPDEST POP PUSH1 0x40 MLOAD PUSH2 0x3359 CODESIZE SUB DUP1 PUSH2 0x3359 DUP4 CODECOPY DUP2 DUP2 ADD PUSH1 0x40 MSTORE DUP2 ADD SWAP1 PUSH2 0x31 SWAP2 SWAP1 PUSH2 0x257 JUMP JUMPDEST DUP1 PUSH2 0x41 DUP2 PUSH2 0x48 PUSH1 0x20 SHL PUSH1 0x20 SHR JUMP JUMPDEST POP POP PUSH2 0x3F0 JUMP JUMPDEST PUSH0 PUSH20 0xFFFFFFFFFFFFFFFFFFFFFFFFFFFFFFFFFFFFFFFF AND DUP2 PUSH20 0xFFFFFFFFFFFFFFFFFFFFFFFFFFFFFFFFFFFFFFFF AND SUB PUSH2 0xB6 JUMPI PUSH1 0x40 MLOAD PUSH32 0x8C379A000000000000000000000000000000000000000000000000000000000 DUP2 MSTORE PUSH1 0x4 ADD PUSH2 0xAD SWAP1 PUSH2 0x2DC JUMP JUMPDEST PUSH1 0x40 MLOAD DUP1 SWAP2 SUB SWAP1 REVERT JUMPDEST PUSH0 DUP2 PUSH20 0xFFFFFFFFFFFFFFFFFFFFFFFFFFFFFFFFFFFFFFFF AND EXTCODESIZE GT PUSH2 0x10F JUMPI PUSH1 0x40 MLOAD PUSH32 0x8C379A000000000000000000000000000000000000000000000000000000000 DUP2 MSTORE PUSH1 0x4 ADD PUSH2 0x106 SWAP1 PUSH2 0x344 JUMP JUMPDEST PUSH1 0x40 MLOAD DUP1 SWAP2 SUB SWAP1 REVERT JUMPDEST DUP1 PUSH20 0xFFFFFFFFFFFFFFFFFFFFFFFFFFFFFFFFFFFFFFFF AND PUSH4 0x8DA5CB5B PUSH1 0x40 MLOAD DUP2 PUSH4 0xFFFFFFFF AND PUSH1 0xE0 SHL DUP2 MSTORE PUSH1 0x4 ADD PUSH1 0x20 PUSH1 0x40 MLOAD DUP1 DUP4 SUB DUP2 DUP7 GAS STATICCALL SWAP3 POP POP POP DUP1 ISZERO PUSH2 0x177 JUMPI POP PUSH1 0x40 MLOAD RETURNDATASIZE PUSH1 0x1F NOT PUSH1 0x1F DUP3 ADD AND DUP3 ADD DUP1 PUSH1 0x40 MSTORE POP DUP2 ADD SWAP1 PUSH2 0x174 SWAP2 SWAP1 PUSH2 0x257 JUMP JUMPDEST PUSH1 0x1 JUMPDEST PUSH2 0x1B6 JUMPI PUSH1 0x40 MLOAD PUSH32 0x8C379A000000000000000000000000000000000000000000000000000000000 DUP2 MSTORE PUSH1 0x4 ADD PUSH2 0x1AD SWAP1 PUSH2 0x3D2 JUMP JUMPDEST PUSH1 0x40 MLOAD DUP1 SWAP2 SUB SWAP1 REVERT JUMPDEST DUP2 PUSH0 PUSH0 PUSH2 0x100 EXP DUP2 SLOAD DUP2 PUSH20 0xFFFFFFFFFFFFFFFFFFFFFFFFFFFFFFFFFFFFFFFF MUL NOT AND SWAP1 DUP4 PUSH20 0xFFFFFFFFFFFFFFFFFFFFFFFFFFFFFFFFFFFFFFFF AND MUL OR SWAP1 SSTORE POP POP POP JUMP JUMPDEST PUSH0 PUSH0 REVERT JUMPDEST PUSH0 PUSH20 0xFFFFFFFFFFFFFFFFFFFFFFFFFFFFFFFFFFFFFFFF DUP3 AND SWAP1 POP SWAP2 SWAP1 POP JUMP JUMPDEST PUSH0 PUSH2 0x226 DUP3 PUSH2 0x1FD JUMP JUMPDEST SWAP1 POP SWAP2 SWAP1 POP JUMP JUMPDEST PUSH2 0x236 DUP2 PUSH2 0x21C JUMP JUMPDEST DUP2 EQ PUSH2 0x240 JUMPI PUSH0 PUSH0 REVERT JUMPDEST POP JUMP JUMPDEST PUSH0 DUP2 MLOAD SWAP1 POP PUSH2 0x251 DUP2 PUSH2 0x22D JUMP JUMPDEST SWAP3 SWAP2 POP POP JUMP JUMPDEST PUSH0 PUSH1 0x20 DUP3 DUP5 SUB SLT ISZERO PUSH2 0x26C JUMPI PUSH2 0x26B PUSH2 0x1F9 JUMP JUMPDEST JUMPDEST PUSH0 PUSH2 0x279 DUP5 DUP3 DUP6 ADD PUSH2 0x243 JUMP JUMPDEST SWAP2 POP POP SWAP3 SWAP2 POP POP JUMP JUMPDEST PUSH0 DUP3 DUP3 MSTORE PUSH1 0x20 DUP3 ADD SWAP1 POP SWAP3 SWAP2 POP POP JUMP JUMPDEST PUSH32 0x4469726563746F72792063616E6E6F74206265207A65726F2061646472657373 PUSH0 DUP3 ADD MSTORE POP JUMP JUMPDEST PUSH0 PUSH2 0x2C6 PUSH1 0x20 DUP4 PUSH2 0x282 JUMP JUMPDEST SWAP2 POP PUSH2 0x2D1 DUP3 PUSH2 0x292 JUMP JUMPDEST PUSH1 0x20 DUP3 ADD SWAP1 POP SWAP2 SWAP1 POP JUMP JUMPDEST PUSH0 PUSH1 0x20 DUP3 ADD SWAP1 POP DUP2 DUP2 SUB PUSH0 DUP4 ADD MSTORE PUSH2 0x2F3 DUP2 PUSH2 0x2BA JUMP JUMPDEST SWAP1 POP SWAP2 SWAP1 POP JUMP JUMPDEST PUSH32 0x4469726563746F7279206D757374206265206120636F6E747261637400000000 PUSH0 DUP3 ADD MSTORE POP JUMP JUMPDEST PUSH0 PUSH2 0x32E PUSH1 0x1C DUP4 PUSH2 0x282 JUMP JUMPDEST SWAP2 POP PUSH2 0x339 DUP3 PUSH2 0x2FA JUMP JUMPDEST PUSH1 0x20 DUP3 ADD SWAP1 POP SWAP2 SWAP1 POP JUMP JUMPDEST PUSH0 PUSH1 0x20 DUP3 ADD SWAP1 POP DUP2 DUP2 SUB PUSH0 DUP4 ADD MSTORE PUSH2 0x35B DUP2 PUSH2 0x322 JUMP JUMPDEST SWAP1 POP SWAP2 SWAP1 POP JUMP JUMPDEST PUSH32 0x4469726563746F7279206164647265737320646F6573206E6F7420696D706C65 PUSH0 DUP3 ADD MSTORE PUSH32 0x6D656E74206F776E657228290000000000000000000000000000000000000000 PUSH1 0x20 DUP3 ADD MSTORE POP JUMP JUMPDEST PUSH0 PUSH2 0x3BC PUSH1 0x2C DUP4 PUSH2 0x282 JUMP JUMPDEST SWAP2 POP PUSH2 0x3C7 DUP3 PUSH2 0x362 JUMP JUMPDEST PUSH1 0x40 DUP3 ADD SWAP1 POP SWAP2 SWAP1 POP JUMP JUMPDEST PUSH0 PUSH1 0x20 DUP3 ADD SWAP1 POP DUP2 DUP2 SUB PUSH0 DUP4 ADD MSTORE PUSH2 0x3E9 DUP2 PUSH2 0x3B0 JUMP JUMPDEST SWAP1 POP SWAP2 SWAP1 POP JUMP JUMPDEST PUSH2 0x2F5C DUP1 PUSH2 0x3FD PUSH0 CODECOPY PUSH0 RETURN INVALID PUSH1 0x80 PUSH1 0x40 MSTORE CALLVALUE DUP1 ISZERO PUSH2 0xF JUMPI PUSH0 PUSH0 REVERT JUMPDEST POP PUSH1 0x4 CALLDATASIZE LT PUSH2 0xB2 JUMPI PUSH0 CALLDATALOAD PUSH1 0xE0 SHR DUP1 PUSH4 0x79DE9E82 GT PUSH2 0x6F JUMPI DUP1 PUSH4 0x79DE9E82 EQ PUSH2 0x1C9 JUMPI DUP1 PUSH4 0x812EFC8E EQ PUSH2 0x1FA JUMPI DUP1 PUSH4 0x8DA5CB5B EQ PUSH2 0x22A JUMPI DUP1 PUSH4 0xBA4C7BE1 EQ PUSH2 0x248 JUMPI DUP1 PUSH4 0xCD8D334F EQ PUSH2 0x264 JUMPI DUP1 PUSH4 0xEE0D96C5 EQ PUSH2 0x296 JUMPI PUSH2 0xB2 JUMP JUMPDEST DUP1 PUSH4 0x705A3E8 EQ PUSH2 0xB6 JUMPI DUP1 PUSH4 0x13290A89 EQ PUSH2 0xE6 JUMPI DUP1 PUSH4 0x179B8F97 EQ PUSH2 0x117 JUMPI DUP1 PUSH4 0x27262618 EQ PUSH2 0x147 JUMPI DUP1 PUSH4 0x399A23DA EQ PUSH2 0x177 JUMPI DUP1 PUSH4 0x658A847A EQ PUSH2 0x1AB JUMPI JUMPDEST PUSH0 PUSH0 REVERT JUMPDEST PUSH2 0xD0 PUSH1 0x4 DUP1 CALLDATASIZE SUB DUP2 ADD SWAP1 PUSH2 0xCB SWAP2 SWAP1 PUSH2 0x1C7F JUMP JUMPDEST PUSH2 0x2C7 JUMP JUMPDEST PUSH1 0x40 MLOAD PUSH2 0xDD SWAP2 SWAP1 PUSH2 0x1CB9 JUMP JUMPDEST PUSH1 0x40 MLOAD DUP1 SWAP2 SUB SWAP1 RETURN JUMPDEST PUSH2 0x100 PUSH1 0x4 DUP1 CALLDATASIZE SUB DUP2 ADD SWAP1 PUSH2 0xFB SWAP2 SWAP1 PUSH2 0x1C7F JUMP JUMPDEST PUSH2 0x371 JUMP JUMPDEST PUSH1 0x40 MLOAD PUSH2 0x10E SWAP3 SWAP2 SWAP1 PUSH2 0x1E78 JUMP JUMPDEST PUSH1 0x40 MLOAD DUP1 SWAP2 SUB SWAP1 RETURN JUMPDEST PUSH2 0x131 PUSH1 0x4 DUP1 CALLDATASIZE SUB DUP2 ADD SWAP1 PUSH2 0x12C SWAP2 SWAP1 PUSH2 0x1C7F JUMP JUMPDEST PUSH2 0x411 JUMP JUMPDEST PUSH1 0x40 MLOAD PUSH2 0x13E SWAP2 SWAP1 PUSH2 0x1F3A JUMP JUMPDEST PUSH1 0x40 MLOAD DUP1 SWAP2 SUB SWAP1 RETURN JUMPDEST PUSH2 0x161 PUSH1 0x4 DUP1 CALLDATASIZE SUB DUP2 ADD SWAP1 PUSH2 0x15C SWAP2 SWAP1 PUSH2 0x2090 JUMP JUMPDEST PUSH2 0x4B5 JUMP JUMPDEST PUSH1 0x40 MLOAD PUSH2 0x16E SWAP2 SWAP1 PUSH2 0x20E6 JUMP JUMPDEST PUSH1 0x40 MLOAD DUP1 SWAP2 SUB SWAP1 RETURN JUMPDEST PUSH2 0x191 PUSH1 0x4 DUP1 CALLDATASIZE SUB DUP2 ADD SWAP1 PUSH2 0x18C SWAP2 SWAP1 PUSH2 0x1C7F JUMP JUMPDEST PUSH2 0x555 JUMP JUMPDEST PUSH1 0x40 MLOAD PUSH2 0x1A2 SWAP6 SWAP5 SWAP4 SWAP3 SWAP2 SWAP1 PUSH2 0x23D8 JUMP JUMPDEST PUSH1 0x40 MLOAD DUP1 SWAP2 SUB SWAP1 RETURN JUMPDEST PUSH2 0x1B3 PUSH2 0x621 JUMP JUMPDEST PUSH1 0x40 MLOAD PUSH2 0x1C0 SWAP2 SWAP1 PUSH2 0x2496 JUMP JUMPDEST PUSH1 0x40 MLOAD DUP1 SWAP2 SUB SWAP1 RETURN JUMPDEST PUSH2 0x1E3 PUSH1 0x4 DUP1 CALLDATASIZE SUB DUP2 ADD SWAP1 PUSH2 0x1DE SWAP2 SWAP1 PUSH2 0x1C7F JUMP JUMPDEST PUSH2 0x645 JUMP JUMPDEST PUSH1 0x40 MLOAD PUSH2 0x1F1 SWAP3 SWAP2 SWAP1 PUSH2 0x24AF JUMP JUMPDEST PUSH1 0x40 MLOAD DUP1 SWAP2 SUB SWAP1 RETURN JUMPDEST PUSH2 0x214 PUSH1 0x4 DUP1 CALLDATASIZE SUB DUP2 ADD SWAP1 PUSH2 0x20F SWAP2 SWAP1 PUSH2 0x1C7F JUMP JUMPDEST PUSH2 0x6EE JUMP JUMPDEST PUSH1 0x40 MLOAD PUSH2 0x221 SWAP2 SWAP1 PUSH2 0x1CB9 JUMP JUMPDEST PUSH1 0x40 MLOAD DUP1 SWAP2 SUB SWAP1 RETURN JUMPDEST PUSH2 0x232 PUSH2 0x78B JUMP JUMPDEST PUSH1 0x40 MLOAD PUSH2 0x23F SWAP2 SWAP1 PUSH2 0x20E6 JUMP JUMPDEST PUSH1 0x40 MLOAD DUP1 SWAP2 SUB SWAP1 RETURN JUMPDEST PUSH2 0x262 PUSH1 0x4 DUP1 CALLDATASIZE SUB DUP2 ADD SWAP1 PUSH2 0x25D SWAP2 SWAP1 PUSH2 0x2500 JUMP JUMPDEST PUSH2 0x81E JUMP JUMPDEST STOP JUMPDEST PUSH2 0x27E PUSH1 0x4 DUP1 CALLDATASIZE SUB DUP2 ADD SWAP1 PUSH2 0x279 SWAP2 SWAP1 PUSH2 0x1C7F JUMP JUMPDEST PUSH2 0x924 JUMP JUMPDEST PUSH1 0x40 MLOAD PUSH2 0x28D SWAP4 SWAP3 SWAP2 SWAP1 PUSH2 0x252B JUMP JUMPDEST PUSH1 0x40 MLOAD DUP1 SWAP2 SUB SWAP1 RETURN JUMPDEST PUSH2 0x2B0 PUSH1 0x4 DUP1 CALLDATASIZE SUB DUP2 ADD SWAP1 PUSH2 0x2AB SWAP2 SWAP1 PUSH2 0x275F JUMP JUMPDEST PUSH2 0x9C9 JUMP JUMPDEST PUSH1 0x40 MLOAD PUSH2 0x2BE SWAP3 SWAP2 SWAP1 PUSH2 0x1E78 JUMP JUMPDEST PUSH1 0x40 MLOAD DUP1 SWAP2 SUB SWAP1 RETURN JUMPDEST PUSH0 PUSH0 PUSH0 PUSH2 0x2D2 PUSH2 0x9E1 JUMP JUMPDEST PUSH20 0xFFFFFFFFFFFFFFFFFFFFFFFFFFFFFFFFFFFFFFFF AND PUSH4 0x3088F069 DUP6 PUSH1 0x40 MLOAD DUP3 PUSH4 0xFFFFFFFF AND PUSH1 0xE0 SHL DUP2 MSTORE PUSH1 0x4 ADD PUSH2 0x30A SWAP2 SWAP1 PUSH2 0x1CB9 JUMP JUMPDEST PUSH0 PUSH1 0x40 MLOAD DUP1 DUP4 SUB DUP2 DUP7 GAS STATICCALL ISZERO DUP1 ISZERO PUSH2 0x324 JUMPI RETURNDATASIZE PUSH0 PUSH0 RETURNDATACOPY RETURNDATASIZE PUSH0 REVERT JUMPDEST POP POP POP POP PUSH1 0x40 MLOAD RETURNDATASIZE PUSH0 DUP3 RETURNDATACOPY RETURNDATASIZE PUSH1 0x1F NOT PUSH1 0x1F DUP3 ADD AND DUP3 ADD DUP1 PUSH1 0x40 MSTORE POP DUP2 ADD SWAP1 PUSH2 0x34C SWAP2 SWAP1 PUSH2 0x29E6 JUMP JUMPDEST SWAP2 POP SWAP2 POP PUSH0 PUSH2 0x35C DUP6 DUP5 DUP5 PUSH2 0xA25 JUMP JUMPDEST SWAP1 POP PUSH2 0x367 DUP2 PUSH2 0xBF1 JUMP JUMPDEST SWAP4 POP POP POP POP SWAP2 SWAP1 POP JUMP JUMPDEST PUSH1 0x60 PUSH0 PUSH0 PUSH0 PUSH2 0x37E PUSH2 0x9E1 JUMP JUMPDEST PUSH20 0xFFFFFFFFFFFFFFFFFFFFFFFFFFFFFFFFFFFFFFFF AND PUSH4 0x3088F069 DUP7 PUSH1 0x40 MLOAD DUP3 PUSH4 0xFFFFFFFF AND PUSH1 0xE0 SHL DUP2 MSTORE PUSH1 0x4 ADD PUSH2 0x3B6 SWAP2 SWAP1 PUSH2 0x1CB9 JUMP JUMPDEST PUSH0 PUSH1 0x40 MLOAD DUP1 DUP4 SUB DUP2 DUP7 GAS STATICCALL ISZERO DUP1 ISZERO PUSH2 0x3D0 JUMPI RETURNDATASIZE PUSH0 PUSH0 RETURNDATACOPY RETURNDATASIZE PUSH0 REVERT JUMPDEST POP POP POP POP PUSH1 0x40 MLOAD RETURNDATASIZE PUSH0 DUP3 RETURNDATACOPY RETURNDATASIZE PUSH1 0x1F NOT PUSH1 0x1F DUP3 ADD AND DUP3 ADD DUP1 PUSH1 0x40 MSTORE POP DUP2 ADD SWAP1 PUSH2 0x3F8 SWAP2 SWAP1 PUSH2 0x29E6 JUMP JUMPDEST SWAP2 POP SWAP2 POP PUSH2 0x406 DUP3 DUP3 PUSH2 0xCA4 JUMP JUMPDEST SWAP4 POP SWAP4 POP POP POP SWAP2 POP SWAP2 JUMP JUMPDEST PUSH2 0x419 PUSH2 0x1B1C JUMP JUMPDEST PUSH0 PUSH0 PUSH2 0x423 PUSH2 0x9E1 JUMP JUMPDEST PUSH20 0xFFFFFFFFFFFFFFFFFFFFFFFFFFFFFFFFFFFFFFFF AND PUSH4 0x3088F069 DUP6 PUSH1 0x40 MLOAD DUP3 PUSH4 0xFFFFFFFF AND PUSH1 0xE0 SHL DUP2 MSTORE PUSH1 0x4 ADD PUSH2 0x45B SWAP2 SWAP1 PUSH2 0x1CB9 JUMP JUMPDEST PUSH0 PUSH1 0x40 MLOAD DUP1 DUP4 SUB DUP2 DUP7 GAS STATICCALL ISZERO DUP1 ISZERO PUSH2 0x475 JUMPI RETURNDATASIZE PUSH0 PUSH0 RETURNDATACOPY RETURNDATASIZE PUSH0 REVERT JUMPDEST POP POP POP POP PUSH1 0x40 MLOAD RETURNDATASIZE PUSH0 DUP3 RETURNDATACOPY RETURNDATASIZE PUSH1 0x1F NOT PUSH1 0x1F DUP3 ADD AND DUP3 ADD DUP1 PUSH1 0x40 MSTORE POP DUP2 ADD SWAP1 PUSH2 0x49D SWAP2 SWAP1 PUSH2 0x29E6 JUMP JUMPDEST SWAP2 POP SWAP2 POP PUSH2 0x4AC DUP5 DUP4 DUP4 PUSH2 0xFDE JUMP JUMPDEST SWAP3 POP POP POP SWAP2 SWAP1 POP JUMP JUMPDEST PUSH0 PUSH0 PUSH0 SWAP1 SLOAD SWAP1 PUSH2 0x100 EXP SWAP1 DIV PUSH20 0xFFFFFFFFFFFFFFFFFFFFFFFFFFFFFFFFFFFFFFFF AND PUSH20 0xFFFFFFFFFFFFFFFFFFFFFFFFFFFFFFFFFFFFFFFF AND PUSH4 0x27262618 DUP4 PUSH1 0x40 MLOAD DUP3 PUSH4 0xFFFFFFFF AND PUSH1 0xE0 SHL DUP2 MSTORE PUSH1 0x4 ADD PUSH2 0x50F SWAP2 SWAP1 PUSH2 0x2A88 JUMP JUMPDEST PUSH1 0x20 PUSH1 0x40 MLOAD DUP1 DUP4 SUB DUP2 DUP7 GAS STATICCALL ISZERO DUP1 ISZERO PUSH2 0x52A JUMPI RETURNDATASIZE PUSH0 PUSH0 RETURNDATACOPY RETURNDATASIZE PUSH0 REVERT JUMPDEST POP POP POP POP PUSH1 0x40 MLOAD RETURNDATASIZE PUSH1 0x1F NOT PUSH1 0x1F DUP3 ADD AND DUP3 ADD DUP1 PUSH1 0x40 MSTORE POP DUP2 ADD SWAP1 PUSH2 0x54E SWAP2 SWAP1 PUSH2 0x2AA8 JUMP JUMPDEST SWAP1 POP SWAP2 SWAP1 POP JUMP JUMPDEST PUSH2 0x55D PUSH2 0x1B5B JUMP JUMPDEST PUSH2 0x565 PUSH2 0x1B1C JUMP JUMPDEST PUSH1 0x60 PUSH0 PUSH0 PUSH0 PUSH2 0x572 PUSH2 0x9E1 JUMP JUMPDEST PUSH20 0xFFFFFFFFFFFFFFFFFFFFFFFFFFFFFFFFFFFFFFFF AND PUSH4 0x3088F069 DUP9 PUSH1 0x40 MLOAD DUP3 PUSH4 0xFFFFFFFF AND PUSH1 0xE0 SHL DUP2 MSTORE PUSH1 0x4 ADD PUSH2 0x5AA SWAP2 SWAP1 PUSH2 0x1CB9 JUMP JUMPDEST PUSH0 PUSH1 0x40 MLOAD DUP1 DUP4 SUB DUP2 DUP7 GAS STATICCALL ISZERO DUP1 ISZERO PUSH2 0x5C4 JUMPI RETURNDATASIZE PUSH0 PUSH0 RETURNDATACOPY RETURNDATASIZE PUSH0 REVERT JUMPDEST POP POP POP POP PUSH1 0x40 MLOAD RETURNDATASIZE PUSH0 DUP3 RETURNDATACOPY RETURNDATASIZE PUSH1 0x1F NOT PUSH1 0x1F DUP3 ADD AND DUP3 ADD DUP1 PUSH1 0x40 MSTORE POP DUP2 ADD SWAP1 PUSH2 0x5EC SWAP2 SWAP1 PUSH2 0x29E6 JUMP JUMPDEST DUP1 SWAP3 POP DUP2 SWAP8 POP POP POP PUSH2 0x5FF DUP8 DUP8 DUP4 PUSH2 0xFDE JUMP JUMPDEST SWAP5 POP PUSH2 0x60B DUP7 DUP3 PUSH2 0x1168 JUMP JUMPDEST DUP1 SWAP5 POP DUP2 SWAP6 POP DUP3 SWAP7 POP POP POP POP POP SWAP2 SWAP4 SWAP6 SWAP1 SWAP3 SWAP5 POP JUMP JUMPDEST PUSH0 PUSH0 SWAP1 SLOAD SWAP1 PUSH2 0x100 EXP SWAP1 DIV PUSH20 0xFFFFFFFFFFFFFFFFFFFFFFFFFFFFFFFFFFFFFFFF AND DUP2 JUMP JUMPDEST PUSH0 PUSH0 PUSH0 PUSH0 PUSH2 0x651 PUSH2 0x9E1 JUMP JUMPDEST PUSH20 0xFFFFFFFFFFFFFFFFFFFFFFFFFFFFFFFFFFFFFFFF AND PUSH4 0x3088F069 DUP7 PUSH1 0x40 MLOAD DUP3 PUSH4 0xFFFFFFFF AND PUSH1 0xE0 SHL DUP2 MSTORE PUSH1 0x4 ADD PUSH2 0x689 SWAP2 SWAP1 PUSH2 0x1CB9 JUMP JUMPDEST PUSH0 PUSH1 0x40 MLOAD DUP1 DUP4 SUB DUP2 DUP7 GAS STATICCALL ISZERO DUP1 ISZERO PUSH2 0x6A3 JUMPI RETURNDATASIZE PUSH0 PUSH0 RETURNDATACOPY RETURNDATASIZE PUSH0 REVERT JUMPDEST POP POP POP POP PUSH1 0x40 MLOAD RETURNDATASIZE PUSH0 DUP3 RETURNDATACOPY RETURNDATASIZE PUSH1 0x1F NOT PUSH1 0x1F DUP3 ADD AND DUP3 ADD DUP1 PUSH1 0x40 MSTORE POP DUP2 ADD SWAP1 PUSH2 0x6CB SWAP2 SWAP1 PUSH2 0x29E6 JUMP JUMPDEST SWAP2 POP SWAP2 POP PUSH2 0x6DA DUP6 DUP4 DUP4 PUSH2 0xA25 JUMP JUMPDEST SWAP4 POP PUSH2 0x6E5 DUP5 PUSH2 0xBF1 JUMP JUMPDEST SWAP3 POP POP POP SWAP2 POP SWAP2 JUMP JUMPDEST PUSH0 PUSH0 PUSH0 PUSH2 0x6F9 PUSH2 0x9E1 JUMP JUMPDEST PUSH20 0xFFFFFFFFFFFFFFFFFFFFFFFFFFFFFFFFFFFFFFFF AND PUSH4 0x3088F069 DUP6 PUSH1 0x40 MLOAD DUP3 PUSH4 0xFFFFFFFF AND PUSH1 0xE0 SHL DUP2 MSTORE PUSH1 0x4 ADD PUSH2 0x731 SWAP2 SWAP1 PUSH2 0x1CB9 JUMP JUMPDEST PUSH0 PUSH1 0x40 MLOAD DUP1 DUP4 SUB DUP2 DUP7 GAS STATICCALL ISZERO DUP1 ISZERO PUSH2 0x74B JUMPI RETURNDATASIZE PUSH0 PUSH0 RETURNDATACOPY RETURNDATASIZE PUSH0 REVERT JUMPDEST POP POP POP POP PUSH1 0x40 MLOAD RETURNDATASIZE PUSH0 DUP3 RETURNDATACOPY RETURNDATASIZE PUSH1 0x1F NOT PUSH1 0x1F DUP3 ADD AND DUP3 ADD DUP1 PUSH1 0x40 MSTORE POP DUP2 ADD SWAP1 PUSH2 0x773 SWAP2 SWAP1 PUSH2 0x29E6 JUMP JUMPDEST SWAP2 POP SWAP2 POP PUSH2 0x782 DUP5 DUP4 DUP4 PUSH2 0xA25 JUMP JUMPDEST SWAP3 POP POP POP SWAP2 SWAP1 POP JUMP JUMPDEST PUSH0 PUSH0 PUSH0 SWAP1 SLOAD SWAP1 PUSH2 0x100 EXP SWAP1 DIV PUSH20 0xFFFFFFFFFFFFFFFFFFFFFFFFFFFFFFFFFFFFFFFF AND PUSH20 0xFFFFFFFFFFFFFFFFFFFFFFFFFFFFFFFFFFFFFFFF AND PUSH4 0x8DA5CB5B PUSH1 0x40 MLOAD DUP2 PUSH4 0xFFFFFFFF AND PUSH1 0xE0 SHL DUP2 MSTORE PUSH1 0x4 ADD PUSH1 0x20 PUSH1 0x40 MLOAD DUP1 DUP4 SUB DUP2 DUP7 GAS STATICCALL ISZERO DUP1 ISZERO PUSH2 0x7F5 JUMPI RETURNDATASIZE PUSH0 PUSH0 RETURNDATACOPY RETURNDATASIZE PUSH0 REVERT JUMPDEST POP POP POP POP PUSH1 0x40 MLOAD RETURNDATASIZE PUSH1 0x1F NOT PUSH1 0x1F DUP3 ADD AND DUP3 ADD DUP1 PUSH1 0x40 MSTORE POP DUP2 ADD SWAP1 PUSH2 0x819 SWAP2 SWAP1 PUSH2 0x2AA8 JUMP JUMPDEST SWAP1 POP SWAP1 JUMP JUMPDEST PUSH0 PUSH0 SWAP1 SLOAD SWAP1 PUSH2 0x100 EXP SWAP1 DIV PUSH20 0xFFFFFFFFFFFFFFFFFFFFFFFFFFFFFFFFFFFFFFFF AND PUSH20 0xFFFFFFFFFFFFFFFFFFFFFFFFFFFFFFFFFFFFFFFF AND PUSH4 0x8DA5CB5B PUSH1 0x40 MLOAD DUP2 PUSH4 0xFFFFFFFF AND PUSH1 0xE0 SHL DUP2 MSTORE PUSH1 0x4 ADD PUSH1 0x20 PUSH1 0x40 MLOAD DUP1 DUP4 SUB DUP2 DUP7 GAS STATICCALL ISZERO DUP1 ISZERO PUSH2 0x887 JUMPI RETURNDATASIZE PUSH0 PUSH0 RETURNDATACOPY RETURNDATASIZE PUSH0 REVERT JUMPDEST POP POP POP POP PUSH1 0x40 MLOAD RETURNDATASIZE PUSH1 0x1F NOT PUSH1 0x1F DUP3 ADD AND DUP3 ADD DUP1 PUSH1 0x40 MSTORE POP DUP2 ADD SWAP1 PUSH2 0x8AB SWAP2 SWAP1 PUSH2 0x2AA8 JUMP JUMPDEST PUSH20 0xFFFFFFFFFFFFFFFFFFFFFFFFFFFFFFFFFFFFFFFF AND CALLER PUSH20 0xFFFFFFFFFFFFFFFFFFFFFFFFFFFFFFFFFFFFFFFF AND EQ PUSH2 0x918 JUMPI PUSH1 0x40 MLOAD PUSH32 0x8C379A000000000000000000000000000000000000000000000000000000000 DUP2 MSTORE PUSH1 0x4 ADD PUSH2 0x90F SWAP1 PUSH2 0x2B1D JUMP JUMPDEST PUSH1 0x40 MLOAD DUP1 SWAP2 SUB SWAP1 REVERT JUMPDEST PUSH2 0x921 DUP2 PUSH2 0x137C JUMP JUMPDEST POP JUMP JUMPDEST PUSH1 0x60 PUSH0 PUSH0 PUSH0 PUSH0 PUSH2 0x932 PUSH2 0x9E1 JUMP JUMPDEST PUSH20 0xFFFFFFFFFFFFFFFFFFFFFFFFFFFFFFFFFFFFFFFF AND PUSH4 0x3088F069 DUP8 PUSH1 0x40 MLOAD DUP3 PUSH4 0xFFFFFFFF AND PUSH1 0xE0 SHL DUP2 MSTORE PUSH1 0x4 ADD PUSH2 0x96A SWAP2 SWAP1 PUSH2 0x1CB9 JUMP JUMPDEST PUSH0 PUSH1 0x40 MLOAD DUP1 DUP4 SUB DUP2 DUP7 GAS STATICCALL ISZERO DUP1 ISZERO PUSH2 0x984 JUMPI RETURNDATASIZE PUSH0 PUSH0 RETURNDATACOPY RETURNDATASIZE PUSH0 REVERT JUMPDEST POP POP POP POP PUSH1 0x40 MLOAD RETURNDATASIZE PUSH0 DUP3 RETURNDATACOPY RETURNDATASIZE PUSH1 0x1F NOT PUSH1 0x1F DUP3 ADD AND DUP3 ADD DUP1 PUSH1 0x40 MSTORE POP DUP2 ADD SWAP1 PUSH2 0x9AC SWAP2 SWAP1 PUSH2 0x29E6 JUMP JUMPDEST SWAP2 POP SWAP2 POP PUSH2 0x9BA DUP3 DUP3 PUSH2 0x1168 JUMP JUMPDEST SWAP5 POP SWAP5 POP SWAP5 POP POP POP SWAP2 SWAP4 SWAP1 SWAP3 POP JUMP JUMPDEST PUSH1 0x60 PUSH0 PUSH2 0x9D6 DUP5 DUP5 PUSH2 0xCA4 JUMP JUMPDEST SWAP2 POP SWAP2 POP SWAP3 POP SWAP3 SWAP1 POP JUMP JUMPDEST PUSH0 PUSH2 0xA20 PUSH1 0x40 MLOAD DUP1 PUSH1 0x40 ADD PUSH1 0x40 MSTORE DUP1 PUSH1 0xB DUP2 MSTORE PUSH1 0x20 ADD PUSH32 0x6574662D666163746F7279000000000000000000000000000000000000000000 DUP2 MSTORE POP PUSH2 0x4B5 JUMP JUMPDEST SWAP1 POP SWAP1 JUMP JUMPDEST PUSH0 PUSH0 PUSH2 0xA2F PUSH2 0x9E1 JUMP JUMPDEST PUSH20 0xFFFFFFFFFFFFFFFFFFFFFFFFFFFFFFFFFFFFFFFF AND PUSH4 0xF2018A1F DUP7 PUSH1 0x40 MLOAD DUP3 PUSH4 0xFFFFFFFF AND PUSH1 0xE0 SHL DUP2 MSTORE PUSH1 0x4 ADD PUSH2 0xA67 SWAP2 SWAP1 PUSH2 0x1CB9 JUMP JUMPDEST PUSH1 0x20 PUSH1 0x40 MLOAD DUP1 DUP4 SUB DUP2 DUP7 GAS STATICCALL ISZERO DUP1 ISZERO PUSH2 0xA82 JUMPI RETURNDATASIZE PUSH0 PUSH0 RETURNDATACOPY RETURNDATASIZE PUSH0 REVERT JUMPDEST POP POP POP POP PUSH1 0x40 MLOAD RETURNDATASIZE PUSH1 0x1F NOT PUSH1 0x1F DUP3 ADD AND DUP3 ADD DUP1 PUSH1 0x40 MSTORE POP DUP2 ADD SWAP1 PUSH2 0xAA6 SWAP2 SWAP1 PUSH2 0x2AA8 JUMP JUMPDEST SWAP1 POP PUSH0 DUP2 PUSH20 0xFFFFFFFFFFFFFFFFFFFFFFFFFFFFFFFFFFFFFFFF AND PUSH4 0x18160DDD PUSH1 0x40 MLOAD DUP2 PUSH4 0xFFFFFFFF AND PUSH1 0xE0 SHL DUP2 MSTORE PUSH1 0x4 ADD PUSH1 0x20 PUSH1 0x40 MLOAD DUP1 DUP4 SUB DUP2 DUP7 GAS STATICCALL ISZERO DUP1 ISZERO PUSH2 0xAF2 JUMPI RETURNDATASIZE PUSH0 PUSH0 RETURNDATACOPY RETURNDATASIZE PUSH0 REVERT JUMPDEST POP POP POP POP PUSH1 0x40 MLOAD RETURNDATASIZE PUSH1 0x1F NOT PUSH1 0x1F DUP3 ADD AND DUP3 ADD DUP1 PUSH1 0x40 MSTORE POP DUP2 ADD SWAP1 PUSH2 0xB16 SWAP2 SWAP1 PUSH2 0x2B4F JUMP JUMPDEST SWAP1 POP PUSH0 DUP3 PUSH20 0xFFFFFFFFFFFFFFFFFFFFFFFFFFFFFFFFFFFFFFFF AND PUSH4 0x313CE567 PUSH1 0x40 MLOAD DUP2 PUSH4 0xFFFFFFFF AND PUSH1 0xE0 SHL DUP2 MSTORE PUSH1 0x4 ADD PUSH1 0x20 PUSH1 0x40 MLOAD DUP1 DUP4 SUB DUP2 DUP7 GAS STATICCALL ISZERO DUP1 ISZERO PUSH2 0xB62 JUMPI RETURNDATASIZE PUSH0 PUSH0 RETURNDATACOPY RETURNDATASIZE PUSH0 REVERT JUMPDEST POP POP POP POP PUSH1 0x40 MLOAD RETURNDATASIZE PUSH1 0x1F NOT PUSH1 0x1F DUP3 ADD AND DUP3 ADD DUP1 PUSH1 0x40 MSTORE POP DUP2 ADD SWAP1 PUSH2 0xB86 SWAP2 SWAP1 PUSH2 0x2BA4 JUMP JUMPDEST SWAP1 POP PUSH0 DUP3 SUB PUSH2 0xBA2 JUMPI PUSH2 0xB98 DUP7 PUSH2 0x152D JUMP JUMPDEST SWAP4 POP POP POP POP PUSH2 0xBEA JUMP JUMPDEST PUSH0 PUSH2 0xBAD DUP4 DUP4 PUSH2 0x1662 JUMP JUMPDEST SWAP1 POP PUSH0 DUP2 SUB PUSH2 0xBC2 JUMPI PUSH0 SWAP5 POP POP POP POP POP PUSH2 0xBEA JUMP JUMPDEST PUSH0 PUSH2 0xBCD DUP9 DUP9 PUSH2 0x16CD JUMP JUMPDEST SWAP1 POP PUSH2 0xBE2 DUP2 PUSH8 0xDE0B6B3A7640000 DUP5 PUSH2 0x18C7 JUMP JUMPDEST SWAP6 POP POP POP POP POP POP JUMPDEST SWAP4 SWAP3 POP POP POP JUMP JUMPDEST PUSH0 PUSH0 DUP3 SUB PUSH2 0xC01 JUMPI PUSH0 SWAP1 POP PUSH2 0xC9F JUMP JUMPDEST PUSH0 PUSH2 0xC0A PUSH2 0x19D1 JUMP JUMPDEST PUSH20 0xFFFFFFFFFFFFFFFFFFFFFFFFFFFFFFFFFFFFFFFF AND PUSH4 0x6855E939 PUSH1 0x40 MLOAD DUP2 PUSH4 0xFFFFFFFF AND PUSH1 0xE0 SHL DUP2 MSTORE PUSH1 0x4 ADD PUSH1 0x20 PUSH1 0x40 MLOAD DUP1 DUP4 SUB DUP2 DUP7 GAS STATICCALL ISZERO DUP1 ISZERO PUSH2 0xC52 JUMPI RETURNDATASIZE PUSH0 PUSH0 RETURNDATACOPY RETURNDATASIZE PUSH0 REVERT JUMPDEST POP POP POP POP PUSH1 0x40 MLOAD RETURNDATASIZE PUSH1 0x1F NOT PUSH1 0x1F DUP3 ADD AND DUP3 ADD DUP1 PUSH1 0x40 MSTORE POP DUP2 ADD SWAP1 PUSH2 0xC76 SWAP2 SWAP1 PUSH2 0x2B4F JUMP JUMPDEST SWAP1 POP PUSH0 DUP2 SUB PUSH2 0xC88 JUMPI PUSH0 SWAP2 POP POP PUSH2 0xC9F JUMP JUMPDEST PUSH2 0xC9B DUP4 DUP3 PUSH8 0xDE0B6B3A7640000 PUSH2 0x18C7 JUMP JUMPDEST SWAP2 POP POP JUMPDEST SWAP2 SWAP1 POP JUMP JUMPDEST PUSH1 0x60 PUSH0 PUSH0 DUP5 PUSH1 0x40 ADD MLOAD MLOAD SWAP1 POP DUP1 PUSH8 0xFFFFFFFFFFFFFFFF DUP2 GT ISZERO PUSH2 0xCCA JUMPI PUSH2 0xCC9 PUSH2 0x1F6C JUMP JUMPDEST JUMPDEST PUSH1 0x40 MLOAD SWAP1 DUP1 DUP3 MSTORE DUP1 PUSH1 0x20 MUL PUSH1 0x20 ADD DUP3 ADD PUSH1 0x40 MSTORE DUP1 ISZERO PUSH2 0xD03 JUMPI DUP2 PUSH1 0x20 ADD JUMPDEST PUSH2 0xCF0 PUSH2 0x1B7C JUMP JUMPDEST DUP2 MSTORE PUSH1 0x20 ADD SWAP1 PUSH1 0x1 SWAP1 SUB SWAP1 DUP2 PUSH2 0xCE8 JUMPI SWAP1 POP JUMPDEST POP SWAP3 POP PUSH0 PUSH2 0xD0F PUSH2 0x19D1 JUMP JUMPDEST SWAP1 POP PUSH0 PUSH0 SWAP1 POP JUMPDEST DUP3 DUP2 LT ISZERO PUSH2 0xF52 JUMPI PUSH0 DUP8 PUSH1 0x40 ADD MLOAD DUP3 DUP2 MLOAD DUP2 LT PUSH2 0xD36 JUMPI PUSH2 0xD35 PUSH2 0x2BCF JUMP JUMPDEST JUMPDEST PUSH1 0x20 MUL PUSH1 0x20 ADD ADD MLOAD PUSH0 ADD MLOAD SWAP1 POP PUSH0 DUP2 PUSH20 0xFFFFFFFFFFFFFFFFFFFFFFFFFFFFFFFFFFFFFFFF AND PUSH4 0x313CE567 PUSH1 0x40 MLOAD DUP2 PUSH4 0xFFFFFFFF AND PUSH1 0xE0 SHL DUP2 MSTORE PUSH1 0x4 ADD PUSH1 0x20 PUSH1 0x40 MLOAD DUP1 DUP4 SUB DUP2 DUP7 GAS STATICCALL ISZERO DUP1 ISZERO PUSH2 0xD8D JUMPI RETURNDATASIZE PUSH0 PUSH0 RETURNDATACOPY RETURNDATASIZE PUSH0 REVERT JUMPDEST POP POP POP POP PUSH1 0x40 MLOAD RETURNDATASIZE PUSH1 0x1F NOT PUSH1 0x1F DUP3 ADD AND DUP3 ADD DUP1 PUSH1 0x40 MSTORE POP DUP2 ADD SWAP1 PUSH2 0xDB1 SWAP2 SWAP1 PUSH2 0x2BA4 JUMP JUMPDEST SWAP1 POP PUSH0 DUP3 PUSH20 0xFFFFFFFFFFFFFFFFFFFFFFFFFFFFFFFFFFFFFFFF AND PUSH4 0x70A08231 DUP11 PUSH1 0x40 MLOAD DUP3 PUSH4 0xFFFFFFFF AND PUSH1 0xE0 SHL DUP2 MSTORE PUSH1 0x4 ADD PUSH2 0xDED SWAP2 SWAP1 PUSH2 0x20E6 JUMP JUMPDEST PUSH1 0x20 PUSH1 0x40 MLOAD DUP1 DUP4 SUB DUP2 DUP7 GAS STATICCALL ISZERO DUP1 ISZERO PUSH2 0xE08 JUMPI RETURNDATASIZE PUSH0 PUSH0 RETURNDATACOPY RETURNDATASIZE PUSH0 REVERT JUMPDEST POP POP POP POP PUSH1 0x40 MLOAD RETURNDATASIZE PUSH1 0x1F NOT PUSH1 0x1F DUP3 ADD AND DUP3 ADD DUP1 PUSH1 0x40 MSTORE POP DUP2 ADD SWAP1 PUSH2 0xE2C SWAP2 SWAP1 PUSH2 0x2B4F JUMP JUMPDEST SWAP1 POP PUSH0 DUP6 PUSH20 0xFFFFFFFFFFFFFFFFFFFFFFFFFFFFFFFFFFFFFFFF AND PUSH4 0x7B49B49D DUP6 PUSH1 0x40 MLOAD DUP3 PUSH4 0xFFFFFFFF AND PUSH1 0xE0 SHL DUP2 MSTORE PUSH1 0x4 ADD PUSH2 0xE68 SWAP2 SWAP1 PUSH2 0x20E6 JUMP JUMPDEST PUSH1 0x20 PUSH1 0x40 MLOAD DUP1 DUP4 SUB DUP2 DUP7 GAS STATICCALL ISZERO DUP1 ISZERO PUSH2 0xE83 JUMPI RETURNDATASIZE PUSH0 PUSH0 RETURNDATACOPY RETURNDATASIZE PUSH0 REVERT JUMPDEST POP POP POP POP PUSH1 0x40 MLOAD RETURNDATASIZE PUSH1 0x1F NOT PUSH1 0x1F DUP3 ADD AND DUP3 ADD DUP1 PUSH1 0x40 MSTORE POP DUP2 ADD SWAP1 PUSH2 0xEA7 SWAP2 SWAP1 PUSH2 0x2B4F JUMP JUMPDEST SWAP1 POP PUSH0 PUSH0 DUP4 EQ DUP1 PUSH2 0xEB7 JUMPI POP PUSH0 DUP3 EQ JUMPDEST PUSH2 0xED1 JUMPI PUSH2 0xECC DUP4 DUP4 DUP7 PUSH1 0xFF AND PUSH1 0xA EXP PUSH2 0x18C7 JUMP JUMPDEST PUSH2 0xED3 JUMP JUMPDEST PUSH0 JUMPDEST SWAP1 POP PUSH1 0x40 MLOAD DUP1 PUSH1 0xC0 ADD PUSH1 0x40 MSTORE DUP1 DUP7 PUSH20 0xFFFFFFFFFFFFFFFFFFFFFFFFFFFFFFFFFFFFFFFF AND DUP2 MSTORE PUSH1 0x20 ADD DUP6 PUSH1 0xFF AND DUP2 MSTORE PUSH1 0x20 ADD PUSH0 PUSH2 0xFFFF AND DUP2 MSTORE PUSH1 0x20 ADD DUP5 DUP2 MSTORE PUSH1 0x20 ADD DUP4 DUP2 MSTORE PUSH1 0x20 ADD DUP3 DUP2 MSTORE POP DUP11 DUP8 DUP2 MLOAD DUP2 LT PUSH2 0xF32 JUMPI PUSH2 0xF31 PUSH2 0x2BCF JUMP JUMPDEST JUMPDEST PUSH1 0x20 MUL PUSH1 0x20 ADD ADD DUP2 SWAP1 MSTORE POP DUP1 DUP10 ADD SWAP9 POP POP POP POP POP POP DUP1 PUSH1 0x1 ADD SWAP1 POP PUSH2 0xD16 JUMP JUMPDEST POP PUSH0 DUP4 GT ISZERO PUSH2 0xFD5 JUMPI PUSH0 PUSH0 SWAP1 POP JUMPDEST DUP3 DUP2 LT ISZERO PUSH2 0xFD3 JUMPI DUP4 PUSH2 0x2710 DUP7 DUP4 DUP2 MLOAD DUP2 LT PUSH2 0xF7F JUMPI PUSH2 0xF7E PUSH2 0x2BCF JUMP JUMPDEST JUMPDEST PUSH1 0x20 MUL PUSH1 0x20 ADD ADD MLOAD PUSH1 0xA0 ADD MLOAD MUL DUP2 PUSH2 0xF9A JUMPI PUSH2 0xF99 PUSH2 0x2BFC JUMP JUMPDEST JUMPDEST DIV DUP6 DUP3 DUP2 MLOAD DUP2 LT PUSH2 0xFAE JUMPI PUSH2 0xFAD PUSH2 0x2BCF JUMP JUMPDEST JUMPDEST PUSH1 0x20 MUL PUSH1 0x20 ADD ADD MLOAD PUSH1 0x40 ADD SWAP1 PUSH2 0xFFFF AND SWAP1 DUP2 PUSH2 0xFFFF AND DUP2 MSTORE POP POP DUP1 PUSH1 0x1 ADD SWAP1 POP PUSH2 0xF60 JUMP JUMPDEST POP JUMPDEST POP POP SWAP3 POP SWAP3 SWAP1 POP JUMP JUMPDEST PUSH2 0xFE6 PUSH2 0x1B1C JUMP JUMPDEST PUSH0 PUSH2 0xFEF PUSH2 0x19D1 JUMP JUMPDEST SWAP1 POP PUSH0 PUSH2 0xFFD DUP7 DUP7 DUP7 PUSH2 0xA25 JUMP JUMPDEST SWAP1 POP PUSH0 PUSH2 0x1009 DUP3 PUSH2 0xBF1 JUMP JUMPDEST SWAP1 POP PUSH1 0x40 MLOAD DUP1 PUSH1 0x40 ADD PUSH1 0x40 MSTORE DUP1 DUP4 DUP2 MSTORE PUSH1 0x20 ADD DUP3 DUP2 MSTORE POP DUP5 PUSH0 ADD DUP2 SWAP1 MSTORE POP PUSH0 PUSH0 PUSH2 0x1031 PUSH2 0x9E1 JUMP JUMPDEST PUSH20 0xFFFFFFFFFFFFFFFFFFFFFFFFFFFFFFFFFFFFFFFF AND PUSH4 0xC45F0607 DUP11 PUSH1 0x40 MLOAD DUP3 PUSH4 0xFFFFFFFF AND PUSH1 0xE0 SHL DUP2 MSTORE PUSH1 0x4 ADD PUSH2 0x1069 SWAP2 SWAP1 PUSH2 0x1CB9 JUMP JUMPDEST PUSH1 0x40 DUP1 MLOAD DUP1 DUP4 SUB DUP2 DUP7 GAS STATICCALL ISZERO DUP1 ISZERO PUSH2 0x1083 JUMPI RETURNDATASIZE PUSH0 PUSH0 RETURNDATACOPY RETURNDATASIZE PUSH0 REVERT JUMPDEST POP POP POP POP PUSH1 0x40 MLOAD RETURNDATASIZE PUSH1 0x1F NOT PUSH1 0x1F DUP3 ADD AND DUP3 ADD DUP1 PUSH1 0x40 MSTORE POP DUP2 ADD SWAP1 PUSH2 0x10A7 SWAP2 SWAP1 PUSH2 0x2C29 JUMP JUMPDEST SWAP2 POP SWAP2 POP PUSH1 0x40 MLOAD DUP1 PUSH1 0x40 ADD PUSH1 0x40 MSTORE DUP1 DUP4 DUP2 MSTORE PUSH1 0x20 ADD DUP3 DUP2 MSTORE POP DUP7 PUSH1 0x20 ADD DUP2 SWAP1 MSTORE POP PUSH0 PUSH2 0x10D3 DUP10 DUP10 PUSH2 0x16CD JUMP JUMPDEST SWAP1 POP PUSH0 PUSH2 0x10DF DUP3 PUSH2 0xBF1 JUMP JUMPDEST SWAP1 POP PUSH1 0x40 MLOAD DUP1 PUSH1 0x40 ADD PUSH1 0x40 MSTORE DUP1 DUP4 DUP2 MSTORE PUSH1 0x20 ADD DUP3 DUP2 MSTORE POP DUP9 PUSH1 0x40 ADD DUP2 SWAP1 MSTORE POP PUSH2 0x1123 DUP11 DUP9 PUSH20 0xFFFFFFFFFFFFFFFFFFFFFFFFFFFFFFFFFFFFFFFF AND PUSH4 0x57B6C133 PUSH2 0x1A15 JUMP JUMPDEST DUP9 PUSH1 0x60 ADD DUP2 DUP2 MSTORE POP POP PUSH2 0x1151 DUP11 DUP9 PUSH20 0xFFFFFFFFFFFFFFFFFFFFFFFFFFFFFFFFFFFFFFFF AND PUSH4 0x69A2E17D PUSH2 0x1A15 JUMP JUMPDEST DUP9 PUSH1 0x80 ADD DUP2 DUP2 MSTORE POP POP POP POP POP POP POP POP POP SWAP4 SWAP3 POP POP POP JUMP JUMPDEST PUSH1 0x60 PUSH0 PUSH0 PUSH0 PUSH0 PUSH2 0x1178 DUP8 DUP8 PUSH2 0xCA4 JUMP JUMPDEST SWAP2 POP SWAP2 POP DUP1 SWAP4 POP PUSH2 0x1188 DUP2 PUSH2 0xBF1 JUMP JUMPDEST SWAP3 POP PUSH0 DUP3 MLOAD SWAP1 POP DUP1 PUSH8 0xFFFFFFFFFFFFFFFF DUP2 GT ISZERO PUSH2 0x11A9 JUMPI PUSH2 0x11A8 PUSH2 0x1F6C JUMP JUMPDEST JUMPDEST PUSH1 0x40 MLOAD SWAP1 DUP1 DUP3 MSTORE DUP1 PUSH1 0x20 MUL PUSH1 0x20 ADD DUP3 ADD PUSH1 0x40 MSTORE DUP1 ISZERO PUSH2 0x11E2 JUMPI DUP2 PUSH1 0x20 ADD JUMPDEST PUSH2 0x11CF PUSH2 0x1BC9 JUMP JUMPDEST DUP2 MSTORE PUSH1 0x20 ADD SWAP1 PUSH1 0x1 SWAP1 SUB SWAP1 DUP2 PUSH2 0x11C7 JUMPI SWAP1 POP JUMPDEST POP SWAP6 POP PUSH0 PUSH0 SWAP1 POP JUMPDEST DUP2 DUP2 LT ISZERO PUSH2 0x1371 JUMPI PUSH1 0x40 MLOAD DUP1 PUSH2 0x100 ADD PUSH1 0x40 MSTORE DUP1 DUP6 DUP4 DUP2 MLOAD DUP2 LT PUSH2 0x1211 JUMPI PUSH2 0x1210 PUSH2 0x2BCF JUMP JUMPDEST JUMPDEST PUSH1 0x20 MUL PUSH1 0x20 ADD ADD MLOAD PUSH0 ADD MLOAD PUSH20 0xFFFFFFFFFFFFFFFFFFFFFFFFFFFFFFFFFFFFFFFF AND DUP2 MSTORE PUSH1 0x20 ADD DUP6 DUP4 DUP2 MLOAD DUP2 LT PUSH2 0x124A JUMPI PUSH2 0x1249 PUSH2 0x2BCF JUMP JUMPDEST JUMPDEST PUSH1 0x20 MUL PUSH1 0x20 ADD ADD MLOAD PUSH1 0x20 ADD MLOAD PUSH1 0xFF AND DUP2 MSTORE PUSH1 0x20 ADD DUP6 DUP4 DUP2 MLOAD DUP2 LT PUSH2 0x1271 JUMPI PUSH2 0x1270 PUSH2 0x2BCF JUMP JUMPDEST JUMPDEST PUSH1 0x20 MUL PUSH1 0x20 ADD ADD MLOAD PUSH1 0x40 ADD MLOAD PUSH2 0xFFFF AND DUP2 MSTORE PUSH1 0x20 ADD DUP6 DUP4 DUP2 MLOAD DUP2 LT PUSH2 0x1299 JUMPI PUSH2 0x1298 PUSH2 0x2BCF JUMP JUMPDEST JUMPDEST PUSH1 0x20 MUL PUSH1 0x20 ADD ADD MLOAD PUSH1 0x60 ADD MLOAD DUP2 MSTORE PUSH1 0x20 ADD DUP6 DUP4 DUP2 MLOAD DUP2 LT PUSH2 0x12BD JUMPI PUSH2 0x12BC PUSH2 0x2BCF JUMP JUMPDEST JUMPDEST PUSH1 0x20 MUL PUSH1 0x20 ADD ADD MLOAD PUSH1 0x80 ADD MLOAD DUP2 MSTORE PUSH1 0x20 ADD PUSH2 0x12F5 DUP7 DUP5 DUP2 MLOAD DUP2 LT PUSH2 0x12E4 JUMPI PUSH2 0x12E3 PUSH2 0x2BCF JUMP JUMPDEST JUMPDEST PUSH1 0x20 MUL PUSH1 0x20 ADD ADD MLOAD PUSH1 0x80 ADD MLOAD PUSH2 0xBF1 JUMP JUMPDEST DUP2 MSTORE PUSH1 0x20 ADD DUP6 DUP4 DUP2 MLOAD DUP2 LT PUSH2 0x130D JUMPI PUSH2 0x130C PUSH2 0x2BCF JUMP JUMPDEST JUMPDEST PUSH1 0x20 MUL PUSH1 0x20 ADD ADD MLOAD PUSH1 0xA0 ADD MLOAD DUP2 MSTORE PUSH1 0x20 ADD PUSH2 0x1345 DUP7 DUP5 DUP2 MLOAD DUP2 LT PUSH2 0x1334 JUMPI PUSH2 0x1333 PUSH2 0x2BCF JUMP JUMPDEST JUMPDEST PUSH1 0x20 MUL PUSH1 0x20 ADD ADD MLOAD PUSH1 0xA0 ADD MLOAD PUSH2 0xBF1 JUMP JUMPDEST DUP2 MSTORE POP DUP8 DUP3 DUP2 MLOAD DUP2 LT PUSH2 0x135B JUMPI PUSH2 0x135A PUSH2 0x2BCF JUMP JUMPDEST JUMPDEST PUSH1 0x20 MUL PUSH1 0x20 ADD ADD DUP2 SWAP1 MSTORE POP DUP1 PUSH1 0x1 ADD SWAP1 POP PUSH2 0x11EA JUMP JUMPDEST POP POP POP POP SWAP3 POP SWAP3 POP SWAP3 JUMP JUMPDEST PUSH0 PUSH20 0xFFFFFFFFFFFFFFFFFFFFFFFFFFFFFFFFFFFFFFFF AND DUP2 PUSH20 0xFFFFFFFFFFFFFFFFFFFFFFFFFFFFFFFFFFFFFFFF AND SUB PUSH2 0x13EA JUMPI PUSH1 0x40 MLOAD PUSH32 0x8C379A000000000000000000000000000000000000000000000000000000000 DUP2 MSTORE PUSH1 0x4 ADD PUSH2 0x13E1 SWAP1 PUSH2 0x2CB1 JUMP JUMPDEST PUSH1 0x40 MLOAD DUP1 SWAP2 SUB SWAP1 REVERT JUMPDEST PUSH0 DUP2 PUSH20 0xFFFFFFFFFFFFFFFFFFFFFFFFFFFFFFFFFFFFFFFF AND EXTCODESIZE GT PUSH2 0x1443 JUMPI PUSH1 0x40 MLOAD PUSH32 0x8C379A000000000000000000000000000000000000000000000000000000000 DUP2 MSTORE PUSH1 0x4 ADD PUSH2 0x143A SWAP1 PUSH2 0x2D19 JUMP JUMPDEST PUSH1 0x40 MLOAD DUP1 SWAP2 SUB SWAP1 REVERT JUMPDEST DUP1 PUSH20 0xFFFFFFFFFFFFFFFFFFFFFFFFFFFFFFFFFFFFFFFF AND PUSH4 0x8DA5CB5B PUSH1 0x40 MLOAD DUP2 PUSH4 0xFFFFFFFF AND PUSH1 0xE0 SHL DUP2 MSTORE PUSH1 0x4 ADD PUSH1 0x20 PUSH1 0x40 MLOAD DUP1 DUP4 SUB DUP2 DUP7 GAS STATICCALL SWAP3 POP POP POP DUP1 ISZERO PUSH2 0x14AB JUMPI POP PUSH1 0x40 MLOAD RETURNDATASIZE PUSH1 0x1F NOT PUSH1 0x1F DUP3 ADD AND DUP3 ADD DUP1 PUSH1 0x40 MSTORE POP DUP2 ADD SWAP1 PUSH2 0x14A8 SWAP2 SWAP1 PUSH2 0x2AA8 JUMP JUMPDEST PUSH1 0x1 JUMPDEST PUSH2 0x14EA JUMPI PUSH1 0x40 MLOAD PUSH32 0x8C379A000000000000000000000000000000000000000000000000000000000 DUP2 MSTORE PUSH1 0x4 ADD PUSH2 0x14E1 SWAP1 PUSH2 0x2DA7 JUMP JUMPDEST PUSH1 0x40 MLOAD DUP1 SWAP2 SUB SWAP1 REVERT JUMPDEST DUP2 PUSH0 PUSH0 PUSH2 0x100 EXP DUP2 SLOAD DUP2 PUSH20 0xFFFFFFFFFFFFFFFFFFFFFFFFFFFFFFFFFFFFFFFF MUL NOT AND SWAP1 DUP4 PUSH20 0xFFFFFFFFFFFFFFFFFFFFFFFFFFFFFFFFFFFFFFFF AND MUL OR SWAP1 SSTORE POP POP POP JUMP JUMPDEST PUSH0 PUSH0 PUSH0 PUSH2 0x1538 PUSH2 0x19D1 JUMP JUMPDEST SWAP1 POP PUSH0 PUSH0 SWAP1 POP JUMPDEST DUP5 PUSH1 0x40 ADD MLOAD MLOAD DUP2 LT ISZERO PUSH2 0x164A JUMPI PUSH0 DUP6 PUSH1 0x40 ADD MLOAD DUP3 DUP2 MLOAD DUP2 LT PUSH2 0x1564 JUMPI PUSH2 0x1563 PUSH2 0x2BCF JUMP JUMPDEST JUMPDEST PUSH1 0x20 MUL PUSH1 0x20 ADD ADD MLOAD PUSH0 ADD MLOAD SWAP1 POP PUSH0 DUP7 PUSH1 0x40 ADD MLOAD DUP4 DUP2 MLOAD DUP2 LT PUSH2 0x1589 JUMPI PUSH2 0x1588 PUSH2 0x2BCF JUMP JUMPDEST JUMPDEST PUSH1 0x20 MUL PUSH1 0x20 ADD ADD MLOAD PUSH1 0x20 ADD MLOAD SWAP1 POP PUSH0 DUP5 PUSH20 0xFFFFFFFFFFFFFFFFFFFFFFFFFFFFFFFFFFFFFFFF AND PUSH4 0x7B49B49D DUP5 PUSH1 0x40 MLOAD DUP3 PUSH4 0xFFFFFFFF AND PUSH1 0xE0 SHL DUP2 MSTORE PUSH1 0x4 ADD PUSH2 0x15D1 SWAP2 SWAP1 PUSH2 0x20E6 JUMP JUMPDEST PUSH1 0x20 PUSH1 0x40 MLOAD DUP1 DUP4 SUB DUP2 DUP7 GAS STATICCALL ISZERO DUP1 ISZERO PUSH2 0x15EC JUMPI RETURNDATASIZE PUSH0 PUSH0 RETURNDATACOPY RETURNDATASIZE PUSH0 REVERT JUMPDEST POP POP POP POP PUSH1 0x40 MLOAD RETURNDATASIZE PUSH1 0x1F NOT PUSH1 0x1F DUP3 ADD AND DUP3 ADD DUP1 PUSH1 0x40 MSTORE POP DUP2 ADD SWAP1 PUSH2 0x1610 SWAP2 SWAP1 PUSH2 0x2B4F JUMP JUMPDEST SWAP1 POP PUSH0 DUP2 EQ DUP1 PUSH2 0x1623 JUMPI POP PUSH0 DUP3 PUSH2 0xFFFF AND EQ JUMPDEST ISZERO PUSH2 0x1630 JUMPI POP POP POP PUSH2 0x163F JUMP JUMPDEST DUP1 DUP3 PUSH2 0xFFFF AND MUL DUP7 ADD SWAP6 POP POP POP POP JUMPDEST DUP1 PUSH1 0x1 ADD SWAP1 POP PUSH2 0x153F JUMP JUMPDEST POP PUSH2 0x2710 DUP3 PUSH2 0x1659 SWAP2 SWAP1 PUSH2 0x2DF2 JUMP JUMPDEST SWAP3 POP POP POP SWAP2 SWAP1 POP JUMP JUMPDEST PUSH0 PUSH1 0x12 DUP3 PUSH1 0xFF AND SUB PUSH2 0x1676 JUMPI DUP3 SWAP1 POP PUSH2 0x16C7 JUMP JUMPDEST PUSH1 0x12 DUP3 PUSH1 0xFF AND LT ISZERO PUSH2 0x16A4 JUMPI PUSH2 0x169D DUP4 PUSH8 0xDE0B6B3A7640000 PUSH2 0x1698 DUP6 PUSH2 0x1AC6 JUMP JUMPDEST PUSH2 0x18C7 JUMP JUMPDEST SWAP1 POP PUSH2 0x16C7 JUMP JUMPDEST PUSH2 0x16B9 PUSH1 0x12 DUP4 PUSH2 0x16B4 SWAP2 SWAP1 PUSH2 0x2E22 JUMP JUMPDEST PUSH2 0x1AC6 JUMP JUMPDEST DUP4 PUSH2 0x16C4 SWAP2 SWAP1 PUSH2 0x2DF2 JUMP JUMPDEST SWAP1 POP JUMPDEST SWAP3 SWAP2 POP POP JUMP JUMPDEST PUSH0 PUSH0 PUSH2 0x16D7 PUSH2 0x19D1 JUMP JUMPDEST SWAP1 POP PUSH0 PUSH0 SWAP1 POP JUMPDEST DUP5 PUSH1 0x40 ADD MLOAD MLOAD DUP2 LT ISZERO PUSH2 0x18BF JUMPI PUSH0 DUP6 PUSH1 0x40 ADD MLOAD DUP3 DUP2 MLOAD DUP2 LT PUSH2 0x1703 JUMPI PUSH2 0x1702 PUSH2 0x2BCF JUMP JUMPDEST JUMPDEST PUSH1 0x20 MUL PUSH1 0x20 ADD ADD MLOAD PUSH0 ADD MLOAD SWAP1 POP PUSH0 DUP2 PUSH20 0xFFFFFFFFFFFFFFFFFFFFFFFFFFFFFFFFFFFFFFFF AND PUSH4 0x70A08231 DUP8 PUSH1 0x40 MLOAD DUP3 PUSH4 0xFFFFFFFF AND PUSH1 0xE0 SHL DUP2 MSTORE PUSH1 0x4 ADD PUSH2 0x174A SWAP2 SWAP1 PUSH2 0x20E6 JUMP JUMPDEST PUSH1 0x20 PUSH1 0x40 MLOAD DUP1 DUP4 SUB DUP2 DUP7 GAS STATICCALL ISZERO DUP1 ISZERO PUSH2 0x1765 JUMPI RETURNDATASIZE PUSH0 PUSH0 RETURNDATACOPY RETURNDATASIZE PUSH0 REVERT JUMPDEST POP POP POP POP PUSH1 0x40 MLOAD RETURNDATASIZE PUSH1 0x1F NOT PUSH1 0x1F DUP3 ADD AND DUP3 ADD DUP1 PUSH1 0x40 MSTORE POP DUP2 ADD SWAP1 PUSH2 0x1789 SWAP2 SWAP1 PUSH2 0x2B4F JUMP JUMPDEST SWAP1 POP PUSH0 DUP2 SUB PUSH2 0x1799 JUMPI POP POP PUSH2 0x18B4 JUMP JUMPDEST PUSH0 DUP5 PUSH20 0xFFFFFFFFFFFFFFFFFFFFFFFFFFFFFFFFFFFFFFFF AND PUSH4 0x7B49B49D DUP5 PUSH1 0x40 MLOAD DUP3 PUSH4 0xFFFFFFFF AND PUSH1 0xE0 SHL DUP2 MSTORE PUSH1 0x4 ADD PUSH2 0x17D3 SWAP2 SWAP1 PUSH2 0x20E6 JUMP JUMPDEST PUSH1 0x20 PUSH1 0x40 MLOAD DUP1 DUP4 SUB DUP2 DUP7 GAS STATICCALL ISZERO DUP1 ISZERO PUSH2 0x17EE JUMPI RETURNDATASIZE PUSH0 PUSH0 RETURNDATACOPY RETURNDATASIZE PUSH0 REVERT JUMPDEST POP POP POP POP PUSH1 0x40 MLOAD RETURNDATASIZE PUSH1 0x1F NOT PUSH1 0x1F DUP3 ADD AND DUP3 ADD DUP1 PUSH1 0x40 MSTORE POP DUP2 ADD SWAP1 PUSH2 0x1812 SWAP2 SWAP1 PUSH2 0x2B4F JUMP JUMPDEST SWAP1 POP PUSH0 DUP2 SUB PUSH2 0x1823 JUMPI POP POP POP PUSH2 0x18B4 JUMP JUMPDEST PUSH0 DUP4 PUSH20 0xFFFFFFFFFFFFFFFFFFFFFFFFFFFFFFFFFFFFFFFF AND PUSH4 0x313CE567 PUSH1 0x40 MLOAD DUP2 PUSH4 0xFFFFFFFF AND PUSH1 0xE0 SHL DUP2 MSTORE PUSH1 0x4 ADD PUSH1 0x20 PUSH1 0x40 MLOAD DUP1 DUP4 SUB DUP2 DUP7 GAS STATICCALL ISZERO DUP1 ISZERO PUSH2 0x186D JUMPI RETURNDATASIZE PUSH0 PUSH0 RETURNDATACOPY RETURNDATASIZE PUSH0 REVERT JUMPDEST POP POP POP POP PUSH1 0x40 MLOAD RETURNDATASIZE PUSH1 0x1F NOT PUSH1 0x1F DUP3 ADD AND DUP3 ADD DUP1 PUSH1 0x40 MSTORE POP DUP2 ADD SWAP1 PUSH2 0x1891 SWAP2 SWAP1 PUSH2 0x2BA4 JUMP JUMPDEST SWAP1 POP PUSH0 PUSH2 0x189D DUP3 PUSH2 0x1AC6 JUMP JUMPDEST SWAP1 POP PUSH2 0x18AA DUP5 DUP5 DUP4 PUSH2 0x18C7 JUMP JUMPDEST DUP9 ADD SWAP8 POP POP POP POP POP POP JUMPDEST DUP1 PUSH1 0x1 ADD SWAP1 POP PUSH2 0x16DE JUMP JUMPDEST POP POP SWAP3 SWAP2 POP POP JUMP JUMPDEST PUSH0 PUSH0 PUSH0 PUSH0 NOT DUP6 DUP8 MULMOD DUP6 DUP8 MUL SWAP3 POP DUP3 DUP2 LT DUP4 DUP3 SUB SUB SWAP2 POP POP PUSH0 DUP2 SUB PUSH2 0x18FF JUMPI DUP4 DUP3 DUP2 PUSH2 0x18F5 JUMPI PUSH2 0x18F4 PUSH2 0x2BFC JUMP JUMPDEST JUMPDEST DIV SWAP3 POP POP POP PUSH2 0x19CA JUMP JUMPDEST DUP1 DUP5 GT PUSH2 0x1941 JUMPI PUSH1 0x40 MLOAD PUSH32 0x8C379A000000000000000000000000000000000000000000000000000000000 DUP2 MSTORE PUSH1 0x4 ADD PUSH2 0x1938 SWAP1 PUSH2 0x2EA0 JUMP JUMPDEST PUSH1 0x40 MLOAD DUP1 SWAP2 SUB SWAP1 REVERT JUMPDEST PUSH0 DUP5 DUP7 DUP9 MULMOD SWAP1 POP DUP3 DUP2 GT DUP3 SUB SWAP2 POP DUP1 DUP4 SUB SWAP3 POP PUSH0 PUSH1 0x1 DUP7 NOT ADD DUP7 AND SWAP1 POP DUP1 DUP7 DIV SWAP6 POP DUP1 DUP5 DIV SWAP4 POP PUSH1 0x1 DUP2 DUP3 PUSH0 SUB DIV ADD SWAP1 POP DUP1 DUP4 MUL DUP5 OR SWAP4 POP PUSH0 PUSH1 0x2 DUP8 PUSH1 0x3 MUL XOR SWAP1 POP DUP1 DUP8 MUL PUSH1 0x2 SUB DUP2 MUL SWAP1 POP DUP1 DUP8 MUL PUSH1 0x2 SUB DUP2 MUL SWAP1 POP DUP1 DUP8 MUL PUSH1 0x2 SUB DUP2 MUL SWAP1 POP DUP1 DUP8 MUL PUSH1 0x2 SUB DUP2 MUL SWAP1 POP DUP1 DUP8 MUL PUSH1 0x2 SUB DUP2 MUL SWAP1 POP DUP1 DUP8 MUL PUSH1 0x2 SUB DUP2 MUL SWAP1 POP DUP1 DUP6 MUL SWAP6 POP POP POP POP POP POP JUMPDEST SWAP4 SWAP3 POP POP POP JUMP JUMPDEST PUSH0 PUSH2 0x1A10 PUSH1 0x40 MLOAD DUP1 PUSH1 0x40 ADD PUSH1 0x40 MSTORE DUP1 PUSH1 0xE DUP2 MSTORE PUSH1 0x20 ADD PUSH32 0x756E69737761702D6F7261636C65000000000000000000000000000000000000 DUP2 MSTORE POP PUSH2 0x4B5 JUMP JUMPDEST SWAP1 POP SWAP1 JUMP JUMPDEST PUSH0 PUSH0 PUSH0 SWAP1 POP JUMPDEST DUP5 PUSH1 0x40 ADD MLOAD MLOAD DUP2 LT ISZERO PUSH2 0x1ABE JUMPI PUSH0 DUP6 PUSH1 0x40 ADD MLOAD DUP3 DUP2 MLOAD DUP2 LT PUSH2 0x1A40 JUMPI PUSH2 0x1A3F PUSH2 0x2BCF JUMP JUMPDEST JUMPDEST PUSH1 0x20 MUL PUSH1 0x20 ADD ADD MLOAD PUSH0 ADD MLOAD SWAP1 POP DUP5 DUP5 DUP3 PUSH1 0x40 MLOAD DUP3 PUSH4 0xFFFFFFFF AND PUSH1 0xE0 SHL DUP2 MSTORE PUSH1 0x4 ADD PUSH2 0x1A6C SWAP2 SWAP1 PUSH2 0x20E6 JUMP JUMPDEST PUSH1 0x20 PUSH1 0x40 MLOAD DUP1 DUP4 SUB DUP2 DUP7 GAS STATICCALL SWAP3 POP POP POP DUP1 ISZERO PUSH2 0x1AA6 JUMPI POP PUSH1 0x40 MLOAD RETURNDATASIZE PUSH1 0x1F NOT PUSH1 0x1F DUP3 ADD AND DUP3 ADD DUP1 PUSH1 0x40 MSTORE POP DUP2 ADD SWAP1 PUSH2 0x1AA3 SWAP2 SWAP1 PUSH2 0x2B4F JUMP JUMPDEST PUSH1 0x1 JUMPDEST ISZERO PUSH2 0x1AB2 JUMPI DUP1 DUP5 ADD SWAP4 POP POP JUMPDEST POP DUP1 PUSH1 0x1 ADD SWAP1 POP PUSH2 0x1A1B JUMP JUMPDEST POP SWAP4 SWAP3 POP POP POP JUMP JUMPDEST PUSH0 PUSH1 0x4D DUP3 PUSH1 0xFF AND GT ISZERO PUSH2 0x1B0E JUMPI PUSH1 0x40 MLOAD PUSH32 0x8C379A000000000000000000000000000000000000000000000000000000000 DUP2 MSTORE PUSH1 0x4 ADD PUSH2 0x1B05 SWAP1 PUSH2 0x2F08 JUMP JUMPDEST PUSH1 0x40 MLOAD DUP1 SWAP2 SUB SWAP1 REVERT JUMPDEST DUP2 PUSH1 0xFF AND PUSH1 0xA EXP SWAP1 POP SWAP2 SWAP1 POP JUMP JUMPDEST PUSH1 0x40 MLOAD DUP1 PUSH1 0xA0 ADD PUSH1 0x40 MSTORE DUP1 PUSH2 0x1B2F PUSH2 0x1C23 JUMP JUMPDEST DUP2 MSTORE PUSH1 0x20 ADD PUSH2 0x1B3C PUSH2 0x1C23 JUMP JUMPDEST DUP2 MSTORE PUSH1 0x20 ADD PUSH2 0x1B49 PUSH2 0x1C23 JUMP JUMPDEST DUP2 MSTORE PUSH1 0x20 ADD PUSH0 DUP2 MSTORE PUSH1 0x20 ADD PUSH0 DUP2 MSTORE POP SWAP1 JUMP JUMPDEST PUSH1 0x40 MLOAD DUP1 PUSH1 0x60 ADD PUSH1 0x40 MSTORE DUP1 PUSH1 0x60 DUP2 MSTORE PUSH1 0x20 ADD PUSH1 0x60 DUP2 MSTORE PUSH1 0x20 ADD PUSH1 0x60 DUP2 MSTORE POP SWAP1 JUMP JUMPDEST PUSH1 0x40 MLOAD DUP1 PUSH1 0xC0 ADD PUSH1 0x40 MSTORE DUP1 PUSH0 PUSH20 0xFFFFFFFFFFFFFFFFFFFFFFFFFFFFFFFFFFFFFFFF AND DUP2 MSTORE PUSH1 0x20 ADD PUSH0 PUSH1 0xFF AND DUP2 MSTORE PUSH1 0x20 ADD PUSH0 PUSH2 0xFFFF AND DUP2 MSTORE PUSH1 0x20 ADD PUSH0 DUP2 MSTORE PUSH1 0x20 ADD PUSH0 DUP2 MSTORE PUSH1 0x20 ADD PUSH0 DUP2 MSTORE POP SWAP1 JUMP JUMPDEST PUSH1 0x40 MLOAD DUP1 PUSH2 0x100 ADD PUSH1 0x40 MSTORE DUP1 PUSH0 PUSH20 0xFFFFFFFFFFFFFFFFFFFFFFFFFFFFFFFFFFFFFFFF AND DUP2 MSTORE PUSH1 0x20 ADD PUSH0 PUSH1 0xFF AND DUP2 MSTORE PUSH1 0x20 ADD PUSH0 PUSH2 0xFFFF AND DUP2 MSTORE PUSH1 0x20 ADD PUSH0 DUP2 MSTORE PUSH1 0x20 ADD PUSH0 DUP2 MSTORE PUSH1 0x20 ADD PUSH0 DUP2 MSTORE PUSH1 0x20 ADD PUSH0 DUP2 MSTORE PUSH1 0x20 ADD PUSH0 DUP2 MSTORE POP SWAP1 JUMP JUMPDEST PUSH1 0x40 MLOAD DUP1 PUSH1 0x40 ADD PUSH1 0x40 MSTORE DUP1 PUSH0 DUP2 MSTORE PUSH1 0x20 ADD PUSH0 DUP2 MSTORE POP SWAP1 JUMP JUMPDEST PUSH0 PUSH1 0x40 MLOAD SWAP1 POP SWAP1 JUMP JUMPDEST PUSH0 PUSH0 REVERT JUMPDEST PUSH0 PUSH0 REVERT JUMPDEST PUSH0 DUP2 SWAP1 POP SWAP2 SWAP1 POP JUMP JUMPDEST PUSH2 0x1C5E DUP2 PUSH2 0x1C4C JUMP JUMPDEST DUP2 EQ PUSH2 0x1C68 JUMPI PUSH0 PUSH0 REVERT JUMPDEST POP JUMP JUMPDEST PUSH0 DUP2 CALLDATALOAD SWAP1 POP PUSH2 0x1C79 DUP2 PUSH2 0x1C55 JUMP JUMPDEST SWAP3 SWAP2 POP POP JUMP JUMPDEST PUSH0 PUSH1 0x20 DUP3 DUP5 SUB SLT ISZERO PUSH2 0x1C94 JUMPI PUSH2 0x1C93 PUSH2 0x1C44 JUMP JUMPDEST JUMPDEST PUSH0 PUSH2 0x1CA1 DUP5 DUP3 DUP6 ADD PUSH2 0x1C6B JUMP JUMPDEST SWAP2 POP POP SWAP3 SWAP2 POP POP JUMP JUMPDEST PUSH2 0x1CB3 DUP2 PUSH2 0x1C4C JUMP JUMPDEST DUP3 MSTORE POP POP JUMP JUMPDEST PUSH0 PUSH1 0x20 DUP3 ADD SWAP1 POP PUSH2 0x1CCC PUSH0 DUP4 ADD DUP5 PUSH2 0x1CAA JUMP JUMPDEST SWAP3 SWAP2 POP POP JUMP JUMPDEST PUSH0 DUP2 MLOAD SWAP1 POP SWAP2 SWAP1 POP JUMP JUMPDEST PUSH0 DUP3 DUP3 MSTORE PUSH1 0x20 DUP3 ADD SWAP1 POP SWAP3 SWAP2 POP POP JUMP JUMPDEST PUSH0 DUP2 SWAP1 POP PUSH1 0x20 DUP3 ADD SWAP1 POP SWAP2 SWAP1 POP JUMP JUMPDEST PUSH0 PUSH20 0xFFFFFFFFFFFFFFFFFFFFFFFFFFFFFFFFFFFFFFFF DUP3 AND SWAP1 POP SWAP2 SWAP1 POP JUMP JUMPDEST PUSH0 PUSH2 0x1D24 DUP3 PUSH2 0x1CFB JUMP JUMPDEST SWAP1 POP SWAP2 SWAP1 POP JUMP JUMPDEST PUSH2 0x1D34 DUP2 PUSH2 0x1D1A JUMP JUMPDEST DUP3 MSTORE POP POP JUMP JUMPDEST PUSH0 PUSH1 0xFF DUP3 AND SWAP1 POP SWAP2 SWAP1 POP JUMP JUMPDEST PUSH2 0x1D4F DUP2 PUSH2 0x1D3A JUMP JUMPDEST DUP3 MSTORE POP POP JUMP JUMPDEST PUSH0 PUSH2 0xFFFF DUP3 AND SWAP1 POP SWAP2 SWAP1 POP JUMP JUMPDEST PUSH2 0x1D6B DUP2 PUSH2 0x1D55 JUMP JUMPDEST DUP3 MSTORE POP POP JUMP JUMPDEST PUSH2 0x1D7A DUP2 PUSH2 0x1C4C JUMP JUMPDEST DUP3 MSTORE POP POP JUMP JUMPDEST PUSH1 0xC0 DUP3 ADD PUSH0 DUP3 ADD MLOAD PUSH2 0x1D94 PUSH0 DUP6 ADD DUP3 PUSH2 0x1D2B JUMP JUMPDEST POP PUSH1 0x20 DUP3 ADD MLOAD PUSH2 0x1DA7 PUSH1 0x20 DUP6 ADD DUP3 PUSH2 0x1D46 JUMP JUMPDEST POP PUSH1 0x40 DUP3 ADD MLOAD PUSH2 0x1DBA PUSH1 0x40 DUP6 ADD DUP3 PUSH2 0x1D62 JUMP JUMPDEST POP PUSH1 0x60 DUP3 ADD MLOAD PUSH2 0x1DCD PUSH1 0x60 DUP6 ADD DUP3 PUSH2 0x1D71 JUMP JUMPDEST POP PUSH1 0x80 DUP3 ADD MLOAD PUSH2 0x1DE0 PUSH1 0x80 DUP6 ADD DUP3 PUSH2 0x1D71 JUMP JUMPDEST POP PUSH1 0xA0 DUP3 ADD MLOAD PUSH2 0x1DF3 PUSH1 0xA0 DUP6 ADD DUP3 PUSH2 0x1D71 JUMP JUMPDEST POP POP POP POP JUMP JUMPDEST PUSH0 PUSH2 0x1E04 DUP4 DUP4 PUSH2 0x1D80 JUMP JUMPDEST PUSH1 0xC0 DUP4 ADD SWAP1 POP SWAP3 SWAP2 POP POP JUMP JUMPDEST PUSH0 PUSH1 0x20 DUP3 ADD SWAP1 POP SWAP2 SWAP1 POP JUMP JUMPDEST PUSH0 PUSH2 0x1E26 DUP3 PUSH2 0x1CD2 JUMP JUMPDEST PUSH2 0x1E30 DUP2 DUP6 PUSH2 0x1CDC JUMP JUMPDEST SWAP4 POP PUSH2 0x1E3B DUP4 PUSH2 0x1CEC JUMP JUMPDEST DUP1 PUSH0 JUMPDEST DUP4 DUP2 LT ISZERO PUSH2 0x1E6B JUMPI DUP2 MLOAD PUSH2 0x1E52 DUP9 DUP3 PUSH2 0x1DF9 JUMP JUMPDEST SWAP8 POP PUSH2 0x1E5D DUP4 PUSH2 0x1E10 JUMP JUMPDEST SWAP3 POP POP PUSH1 0x1 DUP2 ADD SWAP1 POP PUSH2 0x1E3E JUMP JUMPDEST POP DUP6 SWAP4 POP POP POP POP SWAP3 SWAP2 POP POP JUMP JUMPDEST PUSH0 PUSH1 0x40 DUP3 ADD SWAP1 POP DUP2 DUP2 SUB PUSH0 DUP4 ADD MSTORE PUSH2 0x1E90 DUP2 DUP6 PUSH2 0x1E1C JUMP JUMPDEST SWAP1 POP PUSH2 0x1E9F PUSH1 0x20 DUP4 ADD DUP5 PUSH2 0x1CAA JUMP JUMPDEST SWAP4 SWAP3 POP POP POP JUMP JUMPDEST PUSH1 0x40 DUP3 ADD PUSH0 DUP3 ADD MLOAD PUSH2 0x1EBA PUSH0 DUP6 ADD DUP3 PUSH2 0x1D71 JUMP JUMPDEST POP PUSH1 0x20 DUP3 ADD MLOAD PUSH2 0x1ECD PUSH1 0x20 DUP6 ADD DUP3 PUSH2 0x1D71 JUMP JUMPDEST POP POP POP POP JUMP JUMPDEST PUSH2 0x100 DUP3 ADD PUSH0 DUP3 ADD MLOAD PUSH2 0x1EE8 PUSH0 DUP6 ADD DUP3 PUSH2 0x1EA6 JUMP JUMPDEST POP PUSH1 0x20 DUP3 ADD MLOAD PUSH2 0x1EFB PUSH1 0x40 DUP6 ADD DUP3 PUSH2 0x1EA6 JUMP JUMPDEST POP PUSH1 0x40 DUP3 ADD MLOAD PUSH2 0x1F0E PUSH1 0x80 DUP6 ADD DUP3 PUSH2 0x1EA6 JUMP JUMPDEST POP PUSH1 0x60 DUP3 ADD MLOAD PUSH2 0x1F21 PUSH1 0xC0 DUP6 ADD DUP3 PUSH2 0x1D71 JUMP JUMPDEST POP PUSH1 0x80 DUP3 ADD MLOAD PUSH2 0x1F34 PUSH1 0xE0 DUP6 ADD DUP3 PUSH2 0x1D71 JUMP JUMPDEST POP POP POP POP JUMP JUMPDEST PUSH0 PUSH2 0x100 DUP3 ADD SWAP1 POP PUSH2 0x1F4E PUSH0 DUP4 ADD DUP5 PUSH2 0x1ED3 JUMP JUMPDEST SWAP3 SWAP2 POP POP JUMP JUMPDEST PUSH0 PUSH0 REVERT JUMPDEST PUSH0 PUSH0 REVERT JUMPDEST PUSH0 PUSH1 0x1F NOT PUSH1 0x1F DUP4 ADD AND SWAP1 POP SWAP2 SWAP1 POP JUMP JUMPDEST PUSH32 0x4E487B7100000000000000000000000000000000000000000000000000000000 PUSH0 MSTORE PUSH1 0x41 PUSH1 0x4 MSTORE PUSH1 0x24 PUSH0 REVERT JUMPDEST PUSH2 0x1FA2 DUP3 PUSH2 0x1F5C JUMP JUMPDEST DUP2 ADD DUP2 DUP2 LT PUSH8 0xFFFFFFFFFFFFFFFF DUP3 GT OR ISZERO PUSH2 0x1FC1 JUMPI PUSH2 0x1FC0 PUSH2 0x1F6C JUMP JUMPDEST JUMPDEST DUP1 PUSH1 0x40 MSTORE POP POP POP JUMP JUMPDEST PUSH0 PUSH2 0x1FD3 PUSH2 0x1C3B JUMP JUMPDEST SWAP1 POP PUSH2 0x1FDF DUP3 DUP3 PUSH2 0x1F99 JUMP JUMPDEST SWAP2 SWAP1 POP JUMP JUMPDEST PUSH0 PUSH8 0xFFFFFFFFFFFFFFFF DUP3 GT ISZERO PUSH2 0x1FFE JUMPI PUSH2 0x1FFD PUSH2 0x1F6C JUMP JUMPDEST JUMPDEST PUSH2 0x2007 DUP3 PUSH2 0x1F5C JUMP JUMPDEST SWAP1 POP PUSH1 0x20 DUP2 ADD SWAP1 POP SWAP2 SWAP1 POP JUMP JUMPDEST DUP3 DUP2 DUP4 CALLDATACOPY PUSH0 DUP4 DUP4 ADD MSTORE POP POP POP JUMP JUMPDEST PUSH0 PUSH2 0x2034 PUSH2 0x202F DUP5 PUSH2 0x1FE4 JUMP JUMPDEST PUSH2 0x1FCA JUMP JUMPDEST SWAP1 POP DUP3 DUP2 MSTORE PUSH1 0x20 DUP2 ADD DUP5 DUP5 DUP5 ADD GT ISZERO PUSH2 0x2050 JUMPI PUSH2 0x204F PUSH2 0x1F58 JUMP JUMPDEST JUMPDEST PUSH2 0x205B DUP5 DUP3 DUP6 PUSH2 0x2014 JUMP JUMPDEST POP SWAP4 SWAP3 POP POP POP JUMP JUMPDEST PUSH0 DUP3 PUSH1 0x1F DUP4 ADD SLT PUSH2 0x2077 JUMPI PUSH2 0x2076 PUSH2 0x1F54 JUMP JUMPDEST JUMPDEST DUP2 CALLDATALOAD PUSH2 0x2087 DUP5 DUP3 PUSH1 0x20 DUP7 ADD PUSH2 0x2022 JUMP JUMPDEST SWAP2 POP POP SWAP3 SWAP2 POP POP JUMP JUMPDEST PUSH0 PUSH1 0x20 DUP3 DUP5 SUB SLT ISZERO PUSH2 0x20A5 JUMPI PUSH2 0x20A4 PUSH2 0x1C44 JUMP JUMPDEST JUMPDEST PUSH0 DUP3 ADD CALLDATALOAD PUSH8 0xFFFFFFFFFFFFFFFF DUP2 GT ISZERO PUSH2 0x20C2 JUMPI PUSH2 0x20C1 PUSH2 0x1C48 JUMP JUMPDEST JUMPDEST PUSH2 0x20CE DUP5 DUP3 DUP6 ADD PUSH2 0x2063 JUMP JUMPDEST SWAP2 POP POP SWAP3 SWAP2 POP POP JUMP JUMPDEST PUSH2 0x20E0 DUP2 PUSH2 0x1D1A JUMP JUMPDEST DUP3 MSTORE POP POP JUMP JUMPDEST PUSH0 PUSH1 0x20 DUP3 ADD SWAP1 POP PUSH2 0x20F9 PUSH0 DUP4 ADD DUP5 PUSH2 0x20D7 JUMP JUMPDEST SWAP3 SWAP2 POP POP JUMP JUMPDEST PUSH0 DUP2 MLOAD SWAP1 POP SWAP2 SWAP1 POP JUMP JUMPDEST PUSH0 DUP3 DUP3 MSTORE PUSH1 0x20 DUP3 ADD SWAP1 POP SWAP3 SWAP2 POP POP JUMP JUMPDEST DUP3 DUP2 DUP4 MCOPY PUSH0 DUP4 DUP4 ADD MSTORE POP POP POP JUMP JUMPDEST PUSH0 PUSH2 0x2131 DUP3 PUSH2 0x20FF JUMP JUMPDEST PUSH2 0x213B DUP2 DUP6 PUSH2 0x2109 JUMP JUMPDEST SWAP4 POP PUSH2 0x214B DUP2 DUP6 PUSH1 0x20 DUP7 ADD PUSH2 0x2119 JUMP JUMPDEST PUSH2 0x2154 DUP2 PUSH2 0x1F5C JUMP JUMPDEST DUP5 ADD SWAP2 POP POP SWAP3 SWAP2 POP POP JUMP JUMPDEST PUSH0 DUP2 MLOAD SWAP1 POP SWAP2 SWAP1 POP JUMP JUMPDEST PUSH0 DUP3 DUP3 MSTORE PUSH1 0x20 DUP3 ADD SWAP1 POP SWAP3 SWAP2 POP POP JUMP JUMPDEST PUSH0 DUP2 SWAP1 POP PUSH1 0x20 DUP3 ADD SWAP1 POP SWAP2 SWAP1 POP JUMP JUMPDEST PUSH1 0x40 DUP3 ADD PUSH0 DUP3 ADD MLOAD PUSH2 0x219C PUSH0 DUP6 ADD DUP3 PUSH2 0x1D2B JUMP JUMPDEST POP PUSH1 0x20 DUP3 ADD MLOAD PUSH2 0x21AF PUSH1 0x20 DUP6 ADD DUP3 PUSH2 0x1D62 JUMP JUMPDEST POP POP POP POP JUMP JUMPDEST PUSH0 PUSH2 0x21C0 DUP4 DUP4 PUSH2 0x2188 JUMP JUMPDEST PUSH1 0x40 DUP4 ADD SWAP1 POP SWAP3 SWAP2 POP POP JUMP JUMPDEST PUSH0 PUSH1 0x20 DUP3 ADD SWAP1 POP SWAP2 SWAP1 POP JUMP JUMPDEST PUSH0 PUSH2 0x21E2 DUP3 PUSH2 0x215F JUMP JUMPDEST PUSH2 0x21EC DUP2 DUP6 PUSH2 0x2169 JUMP JUMPDEST SWAP4 POP PUSH2 0x21F7 DUP4 PUSH2 0x2179 JUMP JUMPDEST DUP1 PUSH0 JUMPDEST DUP4 DUP2 LT ISZERO PUSH2 0x2227 JUMPI DUP2 MLOAD PUSH2 0x220E DUP9 DUP3 PUSH2 0x21B5 JUMP JUMPDEST SWAP8 POP PUSH2 0x2219 DUP4 PUSH2 0x21CC JUMP JUMPDEST SWAP3 POP POP PUSH1 0x1 DUP2 ADD SWAP1 POP PUSH2 0x21FA JUMP JUMPDEST POP DUP6 SWAP4 POP POP POP POP SWAP3 SWAP2 POP POP JUMP JUMPDEST PUSH0 PUSH1 0x60 DUP4 ADD PUSH0 DUP4 ADD MLOAD DUP5 DUP3 SUB PUSH0 DUP7 ADD MSTORE PUSH2 0x224E DUP3 DUP3 PUSH2 0x2127 JUMP JUMPDEST SWAP2 POP POP PUSH1 0x20 DUP4 ADD MLOAD DUP5 DUP3 SUB PUSH1 0x20 DUP7 ADD MSTORE PUSH2 0x2268 DUP3 DUP3 PUSH2 0x2127 JUMP JUMPDEST SWAP2 POP POP PUSH1 0x40 DUP4 ADD MLOAD DUP5 DUP3 SUB PUSH1 0x40 DUP7 ADD MSTORE PUSH2 0x2282 DUP3 DUP3 PUSH2 0x21D8 JUMP JUMPDEST SWAP2 POP POP DUP1 SWAP2 POP POP SWAP3 SWAP2 POP POP JUMP JUMPDEST PUSH0 DUP2 MLOAD SWAP1 POP SWAP2 SWAP1 POP JUMP JUMPDEST PUSH0 DUP3 DUP3 MSTORE PUSH1 0x20 DUP3 ADD SWAP1 POP SWAP3 SWAP2 POP POP JUMP JUMPDEST PUSH0 DUP2 SWAP1 POP PUSH1 0x20 DUP3 ADD SWAP1 POP SWAP2 SWAP1 POP JUMP JUMPDEST PUSH2 0x100 DUP3 ADD PUSH0 DUP3 ADD MLOAD PUSH2 0x22CD PUSH0 DUP6 ADD DUP3 PUSH2 0x1D2B JUMP JUMPDEST POP PUSH1 0x20 DUP3 ADD MLOAD PUSH2 0x22E0 PUSH1 0x20 DUP6 ADD DUP3 PUSH2 0x1D46 JUMP JUMPDEST POP PUSH1 0x40 DUP3 ADD MLOAD PUSH2 0x22F3 PUSH1 0x40 DUP6 ADD DUP3 PUSH2 0x1D62 JUMP JUMPDEST POP PUSH1 0x60 DUP3 ADD MLOAD PUSH2 0x2306 PUSH1 0x60 DUP6 ADD DUP3 PUSH2 0x1D71 JUMP JUMPDEST POP PUSH1 0x80 DUP3 ADD MLOAD PUSH2 0x2319 PUSH1 0x80 DUP6 ADD DUP3 PUSH2 0x1D71 JUMP JUMPDEST POP PUSH1 0xA0 DUP3 ADD MLOAD PUSH2 0x232C PUSH1 0xA0 DUP6 ADD DUP3 PUSH2 0x1D71 JUMP JUMPDEST POP PUSH1 0xC0 DUP3 ADD MLOAD PUSH2 0x233F PUSH1 0xC0 DUP6 ADD DUP3 PUSH2 0x1D71 JUMP JUMPDEST POP PUSH1 0xE0 DUP3 ADD MLOAD PUSH2 0x2352 PUSH1 0xE0 DUP6 ADD DUP3 PUSH2 0x1D71 JUMP JUMPDEST POP POP POP POP JUMP JUMPDEST PUSH0 PUSH2 0x2363 DUP4 DUP4 PUSH2 0x22B8 JUMP JUMPDEST PUSH2 0x100 DUP4 ADD SWAP1 POP SWAP3 SWAP2 POP POP JUMP JUMPDEST PUSH0 PUSH1 0x20 DUP3 ADD SWAP1 POP SWAP2 SWAP1 POP JUMP JUMPDEST PUSH0 PUSH2 0x2386 DUP3 PUSH2 0x228F JUMP JUMPDEST PUSH2 0x2390 DUP2 DUP6 PUSH2 0x2299 JUMP JUMPDEST SWAP4 POP PUSH2 0x239B DUP4 PUSH2 0x22A9 JUMP JUMPDEST DUP1 PUSH0 JUMPDEST DUP4 DUP2 LT ISZERO PUSH2 0x23CB JUMPI DUP2 MLOAD PUSH2 0x23B2 DUP9 DUP3 PUSH2 0x2358 JUMP JUMPDEST SWAP8 POP PUSH2 0x23BD DUP4 PUSH2 0x2370 JUMP JUMPDEST SWAP3 POP POP PUSH1 0x1 DUP2 ADD SWAP1 POP PUSH2 0x239E JUMP JUMPDEST POP DUP6 SWAP4 POP POP POP POP SWAP3 SWAP2 POP POP JUMP JUMPDEST PUSH0 PUSH2 0x180 DUP3 ADD SWAP1 POP DUP2 DUP2 SUB PUSH0 DUP4 ADD MSTORE PUSH2 0x23F1 DUP2 DUP9 PUSH2 0x2234 JUMP JUMPDEST SWAP1 POP PUSH2 0x2400 PUSH1 0x20 DUP4 ADD DUP8 PUSH2 0x1ED3 JUMP JUMPDEST DUP2 DUP2 SUB PUSH2 0x120 DUP4 ADD MSTORE PUSH2 0x2413 DUP2 DUP7 PUSH2 0x237C JUMP JUMPDEST SWAP1 POP PUSH2 0x2423 PUSH2 0x140 DUP4 ADD DUP6 PUSH2 0x1CAA JUMP JUMPDEST PUSH2 0x2431 PUSH2 0x160 DUP4 ADD DUP5 PUSH2 0x1CAA JUMP JUMPDEST SWAP7 SWAP6 POP POP POP POP POP POP JUMP JUMPDEST PUSH0 DUP2 SWAP1 POP SWAP2 SWAP1 POP JUMP JUMPDEST PUSH0 PUSH2 0x245E PUSH2 0x2459 PUSH2 0x2454 DUP5 PUSH2 0x1CFB JUMP JUMPDEST PUSH2 0x243B JUMP JUMPDEST PUSH2 0x1CFB JUMP JUMPDEST SWAP1 POP SWAP2 SWAP1 POP JUMP JUMPDEST PUSH0 PUSH2 0x246F DUP3 PUSH2 0x2444 JUMP JUMPDEST SWAP1 POP SWAP2 SWAP1 POP JUMP JUMPDEST PUSH0 PUSH2 0x2480 DUP3 PUSH2 0x2465 JUMP JUMPDEST SWAP1 POP SWAP2 SWAP1 POP JUMP JUMPDEST PUSH2 0x2490 DUP2 PUSH2 0x2476 JUMP JUMPDEST DUP3 MSTORE POP POP JUMP JUMPDEST PUSH0 PUSH1 0x20 DUP3 ADD SWAP1 POP PUSH2 0x24A9 PUSH0 DUP4 ADD DUP5 PUSH2 0x2487 JUMP JUMPDEST SWAP3 SWAP2 POP POP JUMP JUMPDEST PUSH0 PUSH1 0x40 DUP3 ADD SWAP1 POP PUSH2 0x24C2 PUSH0 DUP4 ADD DUP6 PUSH2 0x1CAA JUMP JUMPDEST PUSH2 0x24CF PUSH1 0x20 DUP4 ADD DUP5 PUSH2 0x1CAA JUMP JUMPDEST SWAP4 SWAP3 POP POP POP JUMP JUMPDEST PUSH2 0x24DF DUP2 PUSH2 0x1D1A JUMP JUMPDEST DUP2 EQ PUSH2 0x24E9 JUMPI PUSH0 PUSH0 REVERT JUMPDEST POP JUMP JUMPDEST PUSH0 DUP2 CALLDATALOAD SWAP1 POP PUSH2 0x24FA DUP2 PUSH2 0x24D6 JUMP JUMPDEST SWAP3 SWAP2 POP POP JUMP JUMPDEST PUSH0 PUSH1 0x20 DUP3 DUP5 SUB SLT ISZERO PUSH2 0x2515 JUMPI PUSH2 0x2514 PUSH2 0x1C44 JUMP JUMPDEST JUMPDEST PUSH0 PUSH2 0x2522 DUP5 DUP3 DUP6 ADD PUSH2 0x24EC JUMP JUMPDEST SWAP2 POP POP SWAP3 SWAP2 POP POP JUMP JUMPDEST PUSH0 PUSH1 0x60 DUP3 ADD SWAP1 POP DUP2 DUP2 SUB PUSH0 DUP4 ADD MSTORE PUSH2 0x2543 DUP2 DUP7 PUSH2 0x237C JUMP JUMPDEST SWAP1 POP PUSH2 0x2552 PUSH1 0x20 DUP4 ADD DUP6 PUSH2 0x1CAA JUMP JUMPDEST PUSH2 0x255F PUSH1 0x40 DUP4 ADD DUP5 PUSH2 0x1CAA JUMP JUMPDEST SWAP5 SWAP4 POP POP POP POP JUMP JUMPDEST PUSH0 PUSH0 REVERT JUMPDEST PUSH0 PUSH0 REVERT JUMPDEST PUSH0 PUSH8 0xFFFFFFFFFFFFFFFF DUP3 GT ISZERO PUSH2 0x2589 JUMPI PUSH2 0x2588 PUSH2 0x1F6C JUMP JUMPDEST JUMPDEST PUSH1 0x20 DUP3 MUL SWAP1 POP PUSH1 0x20 DUP2 ADD SWAP1 POP SWAP2 SWAP1 POP JUMP JUMPDEST PUSH0 PUSH0 REVERT JUMPDEST PUSH2 0x25A7 DUP2 PUSH2 0x1D55 JUMP JUMPDEST DUP2 EQ PUSH2 0x25B1 JUMPI PUSH0 PUSH0 REVERT JUMPDEST POP JUMP JUMPDEST PUSH0 DUP2 CALLDATALOAD SWAP1 POP PUSH2 0x25C2 DUP2 PUSH2 0x259E JUMP JUMPDEST SWAP3 SWAP2 POP POP JUMP JUMPDEST PUSH0 PUSH1 0x40 DUP3 DUP5 SUB SLT ISZERO PUSH2 0x25DD JUMPI PUSH2 0x25DC PUSH2 0x2567 JUMP JUMPDEST JUMPDEST PUSH2 0x25E7 PUSH1 0x40 PUSH2 0x1FCA JUMP JUMPDEST SWAP1 POP PUSH0 PUSH2 0x25F6 DUP5 DUP3 DUP6 ADD PUSH2 0x24EC JUMP JUMPDEST PUSH0 DUP4 ADD MSTORE POP PUSH1 0x20 PUSH2 0x2609 DUP5 DUP3 DUP6 ADD PUSH2 0x25B4 JUMP JUMPDEST PUSH1 0x20 DUP4 ADD MSTORE POP SWAP3 SWAP2 POP POP JUMP JUMPDEST PUSH0 PUSH2 0x2627 PUSH2 0x2622 DUP5 PUSH2 0x256F JUMP JUMPDEST PUSH2 0x1FCA JUMP JUMPDEST SWAP1 POP DUP1 DUP4 DUP3 MSTORE PUSH1 0x20 DUP3 ADD SWAP1 POP PUSH1 0x40 DUP5 MUL DUP4 ADD DUP6 DUP2 GT ISZERO PUSH2 0x264A JUMPI PUSH2 0x2649 PUSH2 0x259A JUMP JUMPDEST JUMPDEST DUP4 JUMPDEST DUP2 DUP2 LT ISZERO PUSH2 0x2673 JUMPI DUP1 PUSH2 0x265F DUP9 DUP3 PUSH2 0x25C8 JUMP JUMPDEST DUP5 MSTORE PUSH1 0x20 DUP5 ADD SWAP4 POP POP PUSH1 0x40 DUP2 ADD SWAP1 POP PUSH2 0x264C JUMP JUMPDEST POP POP POP SWAP4 SWAP3 POP POP POP JUMP JUMPDEST PUSH0 DUP3 PUSH1 0x1F DUP4 ADD SLT PUSH2 0x2691 JUMPI PUSH2 0x2690 PUSH2 0x1F54 JUMP JUMPDEST JUMPDEST DUP2 CALLDATALOAD PUSH2 0x26A1 DUP5 DUP3 PUSH1 0x20 DUP7 ADD PUSH2 0x2615 JUMP JUMPDEST SWAP2 POP POP SWAP3 SWAP2 POP POP JUMP JUMPDEST PUSH0 PUSH1 0x60 DUP3 DUP5 SUB SLT ISZERO PUSH2 0x26BF JUMPI PUSH2 0x26BE PUSH2 0x2567 JUMP JUMPDEST JUMPDEST PUSH2 0x26C9 PUSH1 0x60 PUSH2 0x1FCA JUMP JUMPDEST SWAP1 POP PUSH0 DUP3 ADD CALLDATALOAD PUSH8 0xFFFFFFFFFFFFFFFF DUP2 GT ISZERO PUSH2 0x26E8 JUMPI PUSH2 0x26E7 PUSH2 0x256B JUMP JUMPDEST JUMPDEST PUSH2 0x26F4 DUP5 DUP3 DUP6 ADD PUSH2 0x2063 JUMP JUMPDEST PUSH0 DUP4 ADD MSTORE POP PUSH1 0x20 DUP3 ADD CALLDATALOAD PUSH8 0xFFFFFFFFFFFFFFFF DUP2 GT ISZERO PUSH2 0x2717 JUMPI PUSH2 0x2716 PUSH2 0x256B JUMP JUMPDEST JUMPDEST PUSH2 0x2723 DUP5 DUP3 DUP6 ADD PUSH2 0x2063 JUMP JUMPDEST PUSH1 0x20 DUP4 ADD MSTORE POP PUSH1 0x40 DUP3 ADD CALLDATALOAD PUSH8 0xFFFFFFFFFFFFFFFF DUP2 GT ISZERO PUSH2 0x2747 JUMPI PUSH2 0x2746 PUSH2 0x256B JUMP JUMPDEST JUMPDEST PUSH2 0x2753 DUP5 DUP3 DUP6 ADD PUSH2 0x267D JUMP JUMPDEST PUSH1 0x40 DUP4 ADD MSTORE POP SWAP3 SWAP2 POP POP JUMP JUMPDEST PUSH0 PUSH0 PUSH1 0x40 DUP4 DUP6 SUB SLT ISZERO PUSH2 0x2775 JUMPI PUSH2 0x2774 PUSH2 0x1C44 JUMP JUMPDEST JUMPDEST PUSH0 DUP4 ADD CALLDATALOAD PUSH8 0xFFFFFFFFFFFFFFFF DUP2 GT ISZERO PUSH2 0x2792 JUMPI PUSH2 0x2791 PUSH2 0x1C48 JUMP JUMPDEST JUMPDEST PUSH2 0x279E DUP6 DUP3 DUP7 ADD PUSH2 0x26AA JUMP JUMPDEST SWAP3 POP POP PUSH1 0x20 PUSH2 0x27AF DUP6 DUP3 DUP7 ADD PUSH2 0x24EC JUMP JUMPDEST SWAP2 POP POP SWAP3 POP SWAP3 SWAP1 POP JUMP JUMPDEST PUSH0 PUSH2 0x27CB PUSH2 0x27C6 DUP5 PUSH2 0x1FE4 JUMP JUMPDEST PUSH2 0x1FCA JUMP JUMPDEST SWAP1 POP DUP3 DUP2 MSTORE PUSH1 0x20 DUP2 ADD DUP5 DUP5 DUP5 ADD GT ISZERO PUSH2 0x27E7 JUMPI PUSH2 0x27E6 PUSH2 0x1F58 JUMP JUMPDEST JUMPDEST PUSH2 0x27F2 DUP5 DUP3 DUP6 PUSH2 0x2119 JUMP JUMPDEST POP SWAP4 SWAP3 POP POP POP JUMP JUMPDEST PUSH0 DUP3 PUSH1 0x1F DUP4 ADD SLT PUSH2 0x280E JUMPI PUSH2 0x280D PUSH2 0x1F54 JUMP JUMPDEST JUMPDEST DUP2 MLOAD PUSH2 0x281E DUP5 DUP3 PUSH1 0x20 DUP7 ADD PUSH2 0x27B9 JUMP JUMPDEST SWAP2 POP POP SWAP3 SWAP2 POP POP JUMP JUMPDEST PUSH0 DUP2 MLOAD SWAP1 POP PUSH2 0x2835 DUP2 PUSH2 0x24D6 JUMP JUMPDEST SWAP3 SWAP2 POP POP JUMP JUMPDEST PUSH0 DUP2 MLOAD SWAP1 POP PUSH2 0x2849 DUP2 PUSH2 0x259E JUMP JUMPDEST SWAP3 SWAP2 POP POP JUMP JUMPDEST PUSH0 PUSH1 0x40 DUP3 DUP5 SUB SLT ISZERO PUSH2 0x2864 JUMPI PUSH2 0x2863 PUSH2 0x2567 JUMP JUMPDEST JUMPDEST PUSH2 0x286E PUSH1 0x40 PUSH2 0x1FCA JUMP JUMPDEST SWAP1 POP PUSH0 PUSH2 0x287D DUP5 DUP3 DUP6 ADD PUSH2 0x2827 JUMP JUMPDEST PUSH0 DUP4 ADD MSTORE POP PUSH1 0x20 PUSH2 0x2890 DUP5 DUP3 DUP6 ADD PUSH2 0x283B JUMP JUMPDEST PUSH1 0x20 DUP4 ADD MSTORE POP SWAP3 SWAP2 POP POP JUMP JUMPDEST PUSH0 PUSH2 0x28AE PUSH2 0x28A9 DUP5 PUSH2 0x256F JUMP JUMPDEST PUSH2 0x1FCA JUMP JUMPDEST SWAP1 POP DUP1 DUP4 DUP3 MSTORE PUSH1 0x20 DUP3 ADD SWAP1 POP PUSH1 0x40 DUP5 MUL DUP4 ADD DUP6 DUP2 GT ISZERO PUSH2 0x28D1 JUMPI PUSH2 0x28D0 PUSH2 0x259A JUMP JUMPDEST JUMPDEST DUP4 JUMPDEST DUP2 DUP2 LT ISZERO PUSH2 0x28FA JUMPI DUP1 PUSH2 0x28E6 DUP9 DUP3 PUSH2 0x284F JUMP JUMPDEST DUP5 MSTORE PUSH1 0x20 DUP5 ADD SWAP4 POP POP PUSH1 0x40 DUP2 ADD SWAP1 POP PUSH2 0x28D3 JUMP JUMPDEST POP POP POP SWAP4 SWAP3 POP POP POP JUMP JUMPDEST PUSH0 DUP3 PUSH1 0x1F DUP4 ADD SLT PUSH2 0x2918 JUMPI PUSH2 0x2917 PUSH2 0x1F54 JUMP JUMPDEST JUMPDEST DUP2 MLOAD PUSH2 0x2928 DUP5 DUP3 PUSH1 0x20 DUP7 ADD PUSH2 0x289C JUMP JUMPDEST SWAP2 POP POP SWAP3 SWAP2 POP POP JUMP JUMPDEST PUSH0 PUSH1 0x60 DUP3 DUP5 SUB SLT ISZERO PUSH2 0x2946 JUMPI PUSH2 0x2945 PUSH2 0x2567 JUMP JUMPDEST JUMPDEST PUSH2 0x2950 PUSH1 0x60 PUSH2 0x1FCA JUMP JUMPDEST SWAP1 POP PUSH0 DUP3 ADD MLOAD PUSH8 0xFFFFFFFFFFFFFFFF DUP2 GT ISZERO PUSH2 0x296F JUMPI PUSH2 0x296E PUSH2 0x256B JUMP JUMPDEST JUMPDEST PUSH2 0x297B DUP5 DUP3 DUP6 ADD PUSH2 0x27FA JUMP JUMPDEST PUSH0 DUP4 ADD MSTORE POP PUSH1 0x20 DUP3 ADD MLOAD PUSH8 0xFFFFFFFFFFFFFFFF DUP2 GT ISZERO PUSH2 0x299E JUMPI PUSH2 0x299D PUSH2 0x256B JUMP JUMPDEST JUMPDEST PUSH2 0x29AA DUP5 DUP3 DUP6 ADD PUSH2 0x27FA JUMP JUMPDEST PUSH1 0x20 DUP4 ADD MSTORE POP PUSH1 0x40 DUP3 ADD MLOAD PUSH8 0xFFFFFFFFFFFFFFFF DUP2 GT ISZERO PUSH2 0x29CE JUMPI PUSH2 0x29CD PUSH2 0x256B JUMP JUMPDEST JUMPDEST PUSH2 0x29DA DUP5 DUP3 DUP6 ADD PUSH2 0x2904 JUMP JUMPDEST PUSH1 0x40 DUP4 ADD MSTORE POP SWAP3 SWAP2 POP POP JUMP JUMPDEST PUSH0 PUSH0 PUSH1 0x40 DUP4 DUP6 SUB SLT ISZERO PUSH2 0x29FC JUMPI PUSH2 0x29FB PUSH2 0x1C44 JUMP JUMPDEST JUMPDEST PUSH0 DUP4 ADD MLOAD PUSH8 0xFFFFFFFFFFFFFFFF DUP2 GT ISZERO PUSH2 0x2A19 JUMPI PUSH2 0x2A18 PUSH2 0x1C48 JUMP JUMPDEST JUMPDEST PUSH2 0x2A25 DUP6 DUP3 DUP7 ADD PUSH2 0x2931 JUMP JUMPDEST SWAP3 POP POP PUSH1 0x20 PUSH2 0x2A36 DUP6 DUP3 DUP7 ADD PUSH2 0x2827 JUMP JUMPDEST SWAP2 POP POP SWAP3 POP SWAP3 SWAP1 POP JUMP JUMPDEST PUSH0 DUP3 DUP3 MSTORE PUSH1 0x20 DUP3 ADD SWAP1 POP SWAP3 SWAP2 POP POP JUMP JUMPDEST PUSH0 PUSH2 0x2A5A DUP3 PUSH2 0x20FF JUMP JUMPDEST PUSH2 0x2A64 DUP2 DUP6 PUSH2 0x2A40 JUMP JUMPDEST SWAP4 POP PUSH2 0x2A74 DUP2 DUP6 PUSH1 0x20 DUP7 ADD PUSH2 0x2119 JUMP JUMPDEST PUSH2 0x2A7D DUP2 PUSH2 0x1F5C JUMP JUMPDEST DUP5 ADD SWAP2 POP POP SWAP3 SWAP2 POP POP JUMP JUMPDEST PUSH0 PUSH1 0x20 DUP3 ADD SWAP1 POP DUP2 DUP2 SUB PUSH0 DUP4 ADD MSTORE PUSH2 0x2AA0 DUP2 DUP5 PUSH2 0x2A50 JUMP JUMPDEST SWAP1 POP SWAP3 SWAP2 POP POP JUMP JUMPDEST PUSH0 PUSH1 0x20 DUP3 DUP5 SUB SLT ISZERO PUSH2 0x2ABD JUMPI PUSH2 0x2ABC PUSH2 0x1C44 JUMP JUMPDEST JUMPDEST PUSH0 PUSH2 0x2ACA DUP5 DUP3 DUP6 ADD PUSH2 0x2827 JUMP JUMPDEST SWAP2 POP POP SWAP3 SWAP2 POP POP JUMP JUMPDEST PUSH32 0x43616C6C6572206973206E6F7420746865206F776E6572000000000000000000 PUSH0 DUP3 ADD MSTORE POP JUMP JUMPDEST PUSH0 PUSH2 0x2B07 PUSH1 0x17 DUP4 PUSH2 0x2A40 JUMP JUMPDEST SWAP2 POP PUSH2 0x2B12 DUP3 PUSH2 0x2AD3 JUMP JUMPDEST PUSH1 0x20 DUP3 ADD SWAP1 POP SWAP2 SWAP1 POP JUMP JUMPDEST PUSH0 PUSH1 0x20 DUP3 ADD SWAP1 POP DUP2 DUP2 SUB PUSH0 DUP4 ADD MSTORE PUSH2 0x2B34 DUP2 PUSH2 0x2AFB JUMP JUMPDEST SWAP1 POP SWAP2 SWAP1 POP JUMP JUMPDEST PUSH0 DUP2 MLOAD SWAP1 POP PUSH2 0x2B49 DUP2 PUSH2 0x1C55 JUMP JUMPDEST SWAP3 SWAP2 POP POP JUMP JUMPDEST PUSH0 PUSH1 0x20 DUP3 DUP5 SUB SLT ISZERO PUSH2 0x2B64 JUMPI PUSH2 0x2B63 PUSH2 0x1C44 JUMP JUMPDEST JUMPDEST PUSH0 PUSH2 0x2B71 DUP5 DUP3 DUP6 ADD PUSH2 0x2B3B JUMP JUMPDEST SWAP2 POP POP SWAP3 SWAP2 POP POP JUMP JUMPDEST PUSH2 0x2B83 DUP2 PUSH2 0x1D3A JUMP JUMPDEST DUP2 EQ PUSH2 0x2B8D JUMPI PUSH0 PUSH0 REVERT JUMPDEST POP JUMP JUMPDEST PUSH0 DUP2 MLOAD SWAP1 POP PUSH2 0x2B9E DUP2 PUSH2 0x2B7A JUMP JUMPDEST SWAP3 SWAP2 POP POP JUMP JUMPDEST PUSH0 PUSH1 0x20 DUP3 DUP5 SUB SLT ISZERO PUSH2 0x2BB9 JUMPI PUSH2 0x2BB8 PUSH2 0x1C44 JUMP JUMPDEST JUMPDEST PUSH0 PUSH2 0x2BC6 DUP5 DUP3 DUP6 ADD PUSH2 0x2B90 JUMP JUMPDEST SWAP2 POP POP SWAP3 SWAP2 POP POP JUMP JUMPDEST PUSH32 0x4E487B7100000000000000000000000000000000000000000000000000000000 PUSH0 MSTORE PUSH1 0x32 PUSH1 0x4 MSTORE PUSH1 0x24 PUSH0 REVERT JUMPDEST PUSH32 0x4E487B7100000000000000000000000000000000000000000000000000000000 PUSH0 MSTORE PUSH1 0x12 PUSH1 0x4 MSTORE PUSH1 0x24 PUSH0 REVERT JUMPDEST PUSH0 PUSH0 PUSH1 0x40 DUP4 DUP6 SUB SLT ISZERO PUSH2 0x2C3F JUMPI PUSH2 0x2C3E PUSH2 0x1C44 JUMP JUMPDEST JUMPDEST PUSH0 PUSH2 0x2C4C DUP6 DUP3 DUP7 ADD PUSH2 0x2B3B JUMP JUMPDEST SWAP3 POP POP PUSH1 0x20 PUSH2 0x2C5D DUP6 DUP3 DUP7 ADD PUSH2 0x2B3B JUMP JUMPDEST SWAP2 POP POP SWAP3 POP SWAP3 SWAP1 POP JUMP JUMPDEST PUSH32 0x4469726563746F72792063616E6E6F74206265207A65726F2061646472657373 PUSH0 DUP3 ADD MSTORE POP JUMP JUMPDEST PUSH0 PUSH2 0x2C9B PUSH1 0x20 DUP4 PUSH2 0x2A40 JUMP JUMPDEST SWAP2 POP PUSH2 0x2CA6 DUP3 PUSH2 0x2C67 JUMP JUMPDEST PUSH1 0x20 DUP3 ADD SWAP1 POP SWAP2 SWAP1 POP JUMP JUMPDEST PUSH0 PUSH1 0x20 DUP3 ADD SWAP1 POP DUP2 DUP2 SUB PUSH0 DUP4 ADD MSTORE PUSH2 0x2CC8 DUP2 PUSH2 0x2C8F JUMP JUMPDEST SWAP1 POP SWAP2 SWAP1 POP JUMP JUMPDEST PUSH32 0x4469726563746F7279206D757374206265206120636F6E747261637400000000 PUSH0 DUP3 ADD MSTORE POP JUMP JUMPDEST PUSH0 PUSH2 0x2D03 PUSH1 0x1C DUP4 PUSH2 0x2A40 JUMP JUMPDEST SWAP2 POP PUSH2 0x2D0E DUP3 PUSH2 0x2CCF JUMP JUMPDEST PUSH1 0x20 DUP3 ADD SWAP1 POP SWAP2 SWAP1 POP JUMP JUMPDEST PUSH0 PUSH1 0x20 DUP3 ADD SWAP1 POP DUP2 DUP2 SUB PUSH0 DUP4 ADD MSTORE PUSH2 0x2D30 DUP2 PUSH2 0x2CF7 JUMP JUMPDEST SWAP1 POP SWAP2 SWAP1 POP JUMP JUMPDEST PUSH32 0x4469726563746F7279206164647265737320646F6573206E6F7420696D706C65 PUSH0 DUP3 ADD MSTORE PUSH32 0x6D656E74206F776E657228290000000000000000000000000000000000000000 PUSH1 0x20 DUP3 ADD MSTORE POP JUMP JUMPDEST PUSH0 PUSH2 0x2D91 PUSH1 0x2C DUP4 PUSH2 0x2A40 JUMP JUMPDEST SWAP2 POP PUSH2 0x2D9C DUP3 PUSH2 0x2D37 JUMP JUMPDEST PUSH1 0x40 DUP3 ADD SWAP1 POP SWAP2 SWAP1 POP JUMP JUMPDEST PUSH0 PUSH1 0x20 DUP3 ADD SWAP1 POP DUP2 DUP2 SUB PUSH0 DUP4 ADD MSTORE PUSH2 0x2DBE DUP2 PUSH2 0x2D85 JUMP JUMPDEST SWAP1 POP SWAP2 SWAP1 POP JUMP JUMPDEST PUSH32 0x4E487B7100000000000000000000000000000000000000000000000000000000 PUSH0 MSTORE PUSH1 0x11 PUSH1 0x4 MSTORE PUSH1 0x24 PUSH0 REVERT JUMPDEST PUSH0 PUSH2 0x2DFC DUP3 PUSH2 0x1C4C JUMP JUMPDEST SWAP2 POP PUSH2 0x2E07 DUP4 PUSH2 0x1C4C JUMP JUMPDEST SWAP3 POP DUP3 PUSH2 0x2E17 JUMPI PUSH2 0x2E16 PUSH2 0x2BFC JUMP JUMPDEST JUMPDEST DUP3 DUP3 DIV SWAP1 POP SWAP3 SWAP2 POP POP JUMP JUMPDEST PUSH0 PUSH2 0x2E2C DUP3 PUSH2 0x1D3A JUMP JUMPDEST SWAP2 POP PUSH2 0x2E37 DUP4 PUSH2 0x1D3A JUMP JUMPDEST SWAP3 POP DUP3 DUP3 SUB SWAP1 POP PUSH1 0xFF DUP2 GT ISZERO PUSH2 0x2E50 JUMPI PUSH2 0x2E4F PUSH2 0x2DC5 JUMP JUMPDEST JUMPDEST SWAP3 SWAP2 POP POP JUMP JUMPDEST PUSH32 0x6D756C446976206F766572666C6F770000000000000000000000000000000000 PUSH0 DUP3 ADD MSTORE POP JUMP JUMPDEST PUSH0 PUSH2 0x2E8A PUSH1 0xF DUP4 PUSH2 0x2A40 JUMP JUMPDEST SWAP2 POP PUSH2 0x2E95 DUP3 PUSH2 0x2E56 JUMP JUMPDEST PUSH1 0x20 DUP3 ADD SWAP1 POP SWAP2 SWAP1 POP JUMP JUMPDEST PUSH0 PUSH1 0x20 DUP3 ADD SWAP1 POP DUP2 DUP2 SUB PUSH0 DUP4 ADD MSTORE PUSH2 0x2EB7 DUP2 PUSH2 0x2E7E JUMP JUMPDEST SWAP1 POP SWAP2 SWAP1 POP JUMP JUMPDEST PUSH32 0x706F773130206F766572666C6F77000000000000000000000000000000000000 PUSH0 DUP3 ADD MSTORE POP JUMP JUMPDEST PUSH0 PUSH2 0x2EF2 PUSH1 0xE DUP4 PUSH2 0x2A40 JUMP JUMPDEST SWAP2 POP PUSH2 0x2EFD DUP3 PUSH2 0x2EBE JUMP JUMPDEST PUSH1 0x20 DUP3 ADD SWAP1 POP SWAP2 SWAP1 POP JUMP JUMPDEST PUSH0 PUSH1 0x20 DUP3 ADD SWAP1 POP DUP2 DUP2 SUB PUSH0 DUP4 ADD MSTORE PUSH2 0x2F1F DUP2 PUSH2 0x2EE6 JUMP JUMPDEST SWAP1 POP SWAP2 SWAP1 POP JUMP INVALID LOG2 PUSH5 0x6970667358 0x22 SLT KECCAK256 DUP3 0xC8 TIMESTAMP 0xD3 0xD0 NUMBER SWAP9 0xF 0xE8 PUSH17 0x8C98E9388D4F8432FA24C1722BEB32F15F 0xB6 CALLDATACOPY 0x21 0xC5 0xED PUSH5 0x736F6C6343 STOP ADDMOD 0x1E STOP CALLER "
				},
				"gasEstimates": {
					"creation": {
						"codeDepositCost": "2424800",
						"executionCost": "infinite",
						"totalCost": "infinite"
					},
					"external": {
						"Directory()": "infinite",
						"changeDirectoryAddress(address)": "infinite",
						"fetchFromDirectory(string)": "infinite",
						"getEtfDetails(uint256)": "infinite",
						"getEtfPrice(uint256)": "infinite",
						"getEtfStats(uint256)": "infinite",
						"getEtfUsdPrice(uint256)": "infinite",
						"getEtfWethPrice(uint256)": "infinite",
						"owner()": "infinite",
						"snapshotVault(uint256)": "infinite",
						"snapshotVaultUnchecked((string,string,(address,uint16)[]),address)": "infinite",
						"snapshotVaultWithUsd(uint256)": "infinite"
					}
				},
				"methodIdentifiers": {
					"Directory()": "658a847a",
					"changeDirectoryAddress(address)": "ba4c7be1",
					"fetchFromDirectory(string)": "27262618",
					"getEtfDetails(uint256)": "399a23da",
					"getEtfPrice(uint256)": "79de9e82",
					"getEtfStats(uint256)": "179b8f97",
					"getEtfUsdPrice(uint256)": "0705a3e8",
					"getEtfWethPrice(uint256)": "812efc8e",
					"owner()": "8da5cb5b",
					"snapshotVault(uint256)": "13290a89",
					"snapshotVaultUnchecked((string,string,(address,uint16)[]),address)": "ee0d96c5",
					"snapshotVaultWithUsd(uint256)": "cd8d334f"
				}
			},
			"storageLayout": {
				"storage": [
					{
						"astId": 82,
						"contract": "hopium/etf/main/etf-oracle.sol:EtfOracle",
						"label": "Directory",
						"offset": 0,
						"slot": "0",
						"type": "t_contract(IDirectory)79"
					}
				],
				"types": {
					"t_contract(IDirectory)79": {
						"encoding": "inplace",
						"label": "contract IDirectory",
						"numberOfBytes": "20"
					}
				}
			},
			"userdoc": {
				"kind": "user",
				"methods": {
					"getEtfUsdPrice(uint256)": {
						"notice": "Current NAV per ETF token in USD (1e18)."
					},
					"getEtfWethPrice(uint256)": {
						"notice": "Current NAV per ETF token in WETH (1e18)."
					}
				},
				"version": 1
			}
		}
	}
}