{
	"hopium/etf/main/etf-factory.sol": {
		"EtfFactory": {
			"abi": [
				{
					"inputs": [
						{
							"internalType": "address",
							"name": "_directory",
							"type": "address"
						}
					],
					"stateMutability": "nonpayable",
					"type": "constructor"
				},
				{
					"anonymous": false,
					"inputs": [
						{
							"indexed": true,
							"internalType": "uint256",
							"name": "indexId",
							"type": "uint256"
						},
						{
							"indexed": false,
							"internalType": "address",
							"name": "etfTokenAddress",
							"type": "address"
						},
						{
							"indexed": false,
							"internalType": "address",
							"name": "etfVaultAddress",
							"type": "address"
						}
					],
					"name": "EtfDeployed",
					"type": "event"
				},
				{
					"inputs": [],
					"name": "Directory",
					"outputs": [
						{
							"internalType": "contract IDirectory",
							"name": "",
							"type": "address"
						}
					],
					"stateMutability": "view",
					"type": "function"
				},
				{
					"inputs": [
						{
							"internalType": "address",
							"name": "_directory",
							"type": "address"
						}
					],
					"name": "changeDirectoryAddress",
					"outputs": [],
					"stateMutability": "nonpayable",
					"type": "function"
				},
				{
					"inputs": [
						{
							"components": [
								{
									"internalType": "string",
									"name": "name",
									"type": "string"
								},
								{
									"internalType": "string",
									"name": "ticker",
									"type": "string"
								},
								{
									"components": [
										{
											"internalType": "address",
											"name": "tokenAddress",
											"type": "address"
										},
										{
											"internalType": "uint16",
											"name": "weightBips",
											"type": "uint16"
										}
									],
									"internalType": "struct Holding[]",
									"name": "holdings",
									"type": "tuple[]"
								}
							],
							"internalType": "struct Index",
							"name": "index",
							"type": "tuple"
						}
					],
					"name": "createIndexAndEtf",
					"outputs": [],
					"stateMutability": "nonpayable",
					"type": "function"
				},
				{
					"inputs": [
						{
							"internalType": "string",
							"name": "_key",
							"type": "string"
						}
					],
					"name": "fetchFromDirectory",
					"outputs": [
						{
							"internalType": "address",
							"name": "",
							"type": "address"
						}
					],
					"stateMutability": "view",
					"type": "function"
				},
				{
					"inputs": [
						{
							"internalType": "uint256",
							"name": "indexId",
							"type": "uint256"
						}
					],
					"name": "getEtfNavUsd",
					"outputs": [
						{
							"internalType": "uint256",
							"name": "navUsd",
							"type": "uint256"
						}
					],
					"stateMutability": "view",
					"type": "function"
				},
				{
					"inputs": [
						{
							"internalType": "uint256",
							"name": "indexId",
							"type": "uint256"
						}
					],
					"name": "getEtfNavWeth",
					"outputs": [
						{
							"internalType": "uint256",
							"name": "nav",
							"type": "uint256"
						}
					],
					"stateMutability": "view",
					"type": "function"
				},
				{
					"inputs": [
						{
							"internalType": "uint256",
							"name": "indexId",
							"type": "uint256"
						}
					],
					"name": "getEtfTokenAddress",
					"outputs": [
						{
							"internalType": "address",
							"name": "",
							"type": "address"
						}
					],
					"stateMutability": "view",
					"type": "function"
				},
				{
					"inputs": [
						{
							"internalType": "uint256",
							"name": "indexId",
							"type": "uint256"
						}
					],
					"name": "getEtfTotalVolumeUsd",
					"outputs": [
						{
							"internalType": "uint256",
							"name": "",
							"type": "uint256"
						}
					],
					"stateMutability": "view",
					"type": "function"
				},
				{
					"inputs": [
						{
							"internalType": "uint256",
							"name": "indexId",
							"type": "uint256"
						}
					],
					"name": "getEtfTotalVolumeWeth",
					"outputs": [
						{
							"internalType": "uint256",
							"name": "",
							"type": "uint256"
						}
					],
					"stateMutability": "view",
					"type": "function"
				},
				{
					"inputs": [
						{
							"internalType": "uint256",
							"name": "indexId",
							"type": "uint256"
						}
					],
					"name": "getEtfVaultAddress",
					"outputs": [
						{
							"internalType": "address",
							"name": "",
							"type": "address"
						}
					],
					"stateMutability": "view",
					"type": "function"
				},
				{
					"inputs": [
						{
							"internalType": "address",
							"name": "etfTokenAddress",
							"type": "address"
						}
					],
					"name": "getIndexIdFromEtfTokenAddress",
					"outputs": [
						{
							"internalType": "uint256",
							"name": "",
							"type": "uint256"
						}
					],
					"stateMutability": "view",
					"type": "function"
				},
				{
					"inputs": [],
					"name": "isActive",
					"outputs": [
						{
							"internalType": "bool",
							"name": "",
							"type": "bool"
						}
					],
					"stateMutability": "view",
					"type": "function"
				},
				{
					"inputs": [],
					"name": "owner",
					"outputs": [
						{
							"internalType": "address",
							"name": "",
							"type": "address"
						}
					],
					"stateMutability": "view",
					"type": "function"
				},
				{
					"inputs": [
						{
							"internalType": "bool",
							"name": "_active",
							"type": "bool"
						}
					],
					"name": "setActive",
					"outputs": [],
					"stateMutability": "nonpayable",
					"type": "function"
				},
				{
					"inputs": [
						{
							"internalType": "uint256",
							"name": "indexId",
							"type": "uint256"
						},
						{
							"internalType": "uint256",
							"name": "tradeWethValue",
							"type": "uint256"
						}
					],
					"name": "updateEtfVolume",
					"outputs": [],
					"stateMutability": "nonpayable",
					"type": "function"
				}
			],
			"devdoc": {
				"kind": "dev",
				"methods": {},
				"version": 1
			},
			"evm": {
				"assembly": "    /* \"hopium/etf/main/etf-factory.sol\":2271:4950  contract EtfFactory is ImDirectory, ImEtfTokenDeployer, ImEtfVaultDeployer, Helpers, ImActive, ImEtfRouter {... */\n  mstore(0x40, 0x80)\n    /* \"hopium/common/interface/imActive.sol\":179:183  true */\n  0x01\n    /* \"hopium/common/interface/imActive.sol\":156:183  bool public isActive = true */\n  0x06\n  exp(0x0100, 0x00)\n  dup2\n  sload\n  dup2\n  0xff\n  mul\n  not\n  and\n  swap1\n  dup4\n  iszero\n  iszero\n  mul\n  or\n  swap1\n  sstore\n  pop\n    /* \"hopium/etf/main/etf-factory.sol\":2384:2442  constructor(address _directory) ImDirectory(_directory) {} */\n  callvalue\n  dup1\n  iszero\n  tag_1\n  jumpi\n  revert(0x00, 0x00)\ntag_1:\n  pop\n  mload(0x40)\n  sub(codesize, bytecodeSize)\n  dup1\n  bytecodeSize\n  dup4\n  codecopy\n  dup2\n  dup2\n  add\n  0x40\n  mstore\n  dup2\n  add\n  swap1\n  tag_2\n  swap2\n  swap1\n  tag_3\n  jump\t// in\ntag_2:\n    /* \"hopium/etf/main/etf-factory.sol\":2428:2438  _directory */\n  dup1\n    /* \"hopium/common/interface/imDirectory.sol\":412:437  _setDirectory(_directory) */\n  tag_7\n    /* \"hopium/common/interface/imDirectory.sol\":426:436  _directory */\n  dup2\n    /* \"hopium/common/interface/imDirectory.sol\":412:425  _setDirectory */\n  shl(0x20, tag_8)\n    /* \"hopium/common/interface/imDirectory.sol\":412:437  _setDirectory(_directory) */\n  0x20\n  shr\n  jump\t// in\ntag_7:\n    /* \"hopium/common/interface/imDirectory.sol\":370:464  constructor(address _directory) {... */\n  pop\n    /* \"hopium/etf/main/etf-factory.sol\":2384:2442  constructor(address _directory) ImDirectory(_directory) {} */\n  pop\n    /* \"hopium/etf/main/etf-factory.sol\":2271:4950  contract EtfFactory is ImDirectory, ImEtfTokenDeployer, ImEtfVaultDeployer, Helpers, ImActive, ImEtfRouter {... */\n  jump(tag_10)\n    /* \"hopium/common/interface/imDirectory.sol\":589:1050  function _setDirectory(address _directory) internal {... */\ntag_8:\n    /* \"hopium/common/interface/imDirectory.sol\":681:682  0 */\n  0x00\n    /* \"hopium/common/interface/imDirectory.sol\":659:683  _directory != address(0) */\n  0xffffffffffffffffffffffffffffffffffffffff\n  and\n    /* \"hopium/common/interface/imDirectory.sol\":659:669  _directory */\n  dup2\n    /* \"hopium/common/interface/imDirectory.sol\":659:683  _directory != address(0) */\n  0xffffffffffffffffffffffffffffffffffffffff\n  and\n  sub\n    /* \"hopium/common/interface/imDirectory.sol\":651:720  require(_directory != address(0), \"Directory cannot be zero address\") */\n  tag_12\n  jumpi\n  mload(0x40)\n  0x08c379a000000000000000000000000000000000000000000000000000000000\n  dup2\n  mstore\n  0x04\n  add\n  tag_13\n  swap1\n  tag_14\n  jump\t// in\ntag_13:\n  mload(0x40)\n  dup1\n  swap2\n  sub\n  swap1\n  revert\ntag_12:\n    /* \"hopium/common/interface/imDirectory.sol\":763:764  0 */\n  0x00\n    /* \"hopium/common/interface/imDirectory.sol\":738:748  _directory */\n  dup2\n    /* \"hopium/common/interface/imDirectory.sol\":738:760  _directory.code.length */\n  0xffffffffffffffffffffffffffffffffffffffff\n  and\n  extcodesize\n    /* \"hopium/common/interface/imDirectory.sol\":738:764  _directory.code.length > 0 */\n  gt\n    /* \"hopium/common/interface/imDirectory.sol\":730:797  require(_directory.code.length > 0, \"Directory must be a contract\") */\n  tag_15\n  jumpi\n  mload(0x40)\n  0x08c379a000000000000000000000000000000000000000000000000000000000\n  dup2\n  mstore\n  0x04\n  add\n  tag_16\n  swap1\n  tag_17\n  jump\t// in\ntag_16:\n  mload(0x40)\n  dup1\n  swap2\n  sub\n  swap1\n  revert\ntag_15:\n    /* \"hopium/common/interface/imDirectory.sol\":861:871  _directory */\n  dup1\n    /* \"hopium/common/interface/imDirectory.sol\":850:878  IDirectory(_directory).owner */\n  0xffffffffffffffffffffffffffffffffffffffff\n  and\n  0x8da5cb5b\n    /* \"hopium/common/interface/imDirectory.sol\":850:880  IDirectory(_directory).owner() */\n  mload(0x40)\n  dup2\n  0xffffffff\n  and\n  0xe0\n  shl\n  dup2\n  mstore\n  0x04\n  add\n  0x20\n  mload(0x40)\n  dup1\n  dup4\n  sub\n  dup2\n  dup7\n  gas\n  staticcall\n  swap3\n  pop\n  pop\n  pop\n  dup1\n  iszero\n  tag_18\n  jumpi\n  pop\n  mload(0x40)\n  returndatasize\n  not(0x1f)\n  0x1f\n  dup3\n  add\n  and\n  dup3\n  add\n  dup1\n  0x40\n  mstore\n  pop\n  dup2\n  add\n  swap1\n  tag_19\n  swap2\n  swap1\n  tag_3\n  jump\t// in\ntag_19:\n  0x01\ntag_18:\n    /* \"hopium/common/interface/imDirectory.sol\":846:1044  try IDirectory(_directory).owner() returns (address) {... */\n  tag_20\n  jumpi\n    /* \"hopium/common/interface/imDirectory.sol\":979:1033  revert(\"Directory address does not implement owner()\") */\n  mload(0x40)\n  0x08c379a000000000000000000000000000000000000000000000000000000000\n  dup2\n  mstore\n  0x04\n  add\n  tag_24\n  swap1\n  tag_25\n  jump\t// in\ntag_24:\n  mload(0x40)\n  dup1\n  swap2\n  sub\n  swap1\n  revert\n    /* \"hopium/common/interface/imDirectory.sol\":846:1044  try IDirectory(_directory).owner() returns (address) {... */\ntag_20:\n    /* \"hopium/common/interface/imDirectory.sol\":936:946  _directory */\n  dup2\n    /* \"hopium/common/interface/imDirectory.sol\":913:922  Directory */\n  0x00\n  0x00\n    /* \"hopium/common/interface/imDirectory.sol\":913:947  Directory = IDirectory(_directory) */\n  0x0100\n  exp\n  dup2\n  sload\n  dup2\n  0xffffffffffffffffffffffffffffffffffffffff\n  mul\n  not\n  and\n  swap1\n  dup4\n  0xffffffffffffffffffffffffffffffffffffffff\n  and\n  mul\n  or\n  swap1\n  sstore\n  pop\n    /* \"hopium/common/interface/imDirectory.sol\":881:958  returns (address) {... */\n  pop\n    /* \"hopium/common/interface/imDirectory.sol\":589:1050  function _setDirectory(address _directory) internal {... */\n  pop\n  jump\t// out\n    /* \"#utility.yul\":88:205   */\ntag_28:\n    /* \"#utility.yul\":197:198   */\n  0x00\n    /* \"#utility.yul\":194:195   */\n  0x00\n    /* \"#utility.yul\":187:199   */\n  revert\n    /* \"#utility.yul\":334:460   */\ntag_30:\n    /* \"#utility.yul\":371:378   */\n  0x00\n    /* \"#utility.yul\":411:453   */\n  0xffffffffffffffffffffffffffffffffffffffff\n    /* \"#utility.yul\":404:409   */\n  dup3\n    /* \"#utility.yul\":400:454   */\n  and\n    /* \"#utility.yul\":389:454   */\n  swap1\n  pop\n    /* \"#utility.yul\":334:460   */\n  swap2\n  swap1\n  pop\n  jump\t// out\n    /* \"#utility.yul\":466:562   */\ntag_31:\n    /* \"#utility.yul\":503:510   */\n  0x00\n    /* \"#utility.yul\":532:556   */\n  tag_47\n    /* \"#utility.yul\":550:555   */\n  dup3\n    /* \"#utility.yul\":532:556   */\n  tag_30\n  jump\t// in\ntag_47:\n    /* \"#utility.yul\":521:556   */\n  swap1\n  pop\n    /* \"#utility.yul\":466:562   */\n  swap2\n  swap1\n  pop\n  jump\t// out\n    /* \"#utility.yul\":568:690   */\ntag_32:\n    /* \"#utility.yul\":641:665   */\n  tag_49\n    /* \"#utility.yul\":659:664   */\n  dup2\n    /* \"#utility.yul\":641:665   */\n  tag_31\n  jump\t// in\ntag_49:\n    /* \"#utility.yul\":634:639   */\n  dup2\n    /* \"#utility.yul\":631:666   */\n  eq\n    /* \"#utility.yul\":621:684   */\n  tag_50\n  jumpi\n    /* \"#utility.yul\":680:681   */\n  0x00\n    /* \"#utility.yul\":677:678   */\n  0x00\n    /* \"#utility.yul\":670:682   */\n  revert\n    /* \"#utility.yul\":621:684   */\ntag_50:\n    /* \"#utility.yul\":568:690   */\n  pop\n  jump\t// out\n    /* \"#utility.yul\":696:839   */\ntag_33:\n    /* \"#utility.yul\":753:758   */\n  0x00\n    /* \"#utility.yul\":784:790   */\n  dup2\n    /* \"#utility.yul\":778:791   */\n  mload\n    /* \"#utility.yul\":769:791   */\n  swap1\n  pop\n    /* \"#utility.yul\":800:833   */\n  tag_52\n    /* \"#utility.yul\":827:832   */\n  dup2\n    /* \"#utility.yul\":800:833   */\n  tag_32\n  jump\t// in\ntag_52:\n    /* \"#utility.yul\":696:839   */\n  swap3\n  swap2\n  pop\n  pop\n  jump\t// out\n    /* \"#utility.yul\":845:1196   */\ntag_3:\n    /* \"#utility.yul\":915:921   */\n  0x00\n    /* \"#utility.yul\":964:966   */\n  0x20\n    /* \"#utility.yul\":952:961   */\n  dup3\n    /* \"#utility.yul\":943:950   */\n  dup5\n    /* \"#utility.yul\":939:962   */\n  sub\n    /* \"#utility.yul\":935:967   */\n  slt\n    /* \"#utility.yul\":932:1051   */\n  iszero\n  tag_54\n  jumpi\n    /* \"#utility.yul\":970:1049   */\n  tag_55\n  tag_28\n  jump\t// in\ntag_55:\n    /* \"#utility.yul\":932:1051   */\ntag_54:\n    /* \"#utility.yul\":1090:1091   */\n  0x00\n    /* \"#utility.yul\":1115:1179   */\n  tag_56\n    /* \"#utility.yul\":1171:1178   */\n  dup5\n    /* \"#utility.yul\":1162:1168   */\n  dup3\n    /* \"#utility.yul\":1151:1160   */\n  dup6\n    /* \"#utility.yul\":1147:1169   */\n  add\n    /* \"#utility.yul\":1115:1179   */\n  tag_33\n  jump\t// in\ntag_56:\n    /* \"#utility.yul\":1105:1179   */\n  swap2\n  pop\n    /* \"#utility.yul\":1061:1189   */\n  pop\n    /* \"#utility.yul\":845:1196   */\n  swap3\n  swap2\n  pop\n  pop\n  jump\t// out\n    /* \"#utility.yul\":1202:1371   */\ntag_34:\n    /* \"#utility.yul\":1286:1297   */\n  0x00\n    /* \"#utility.yul\":1320:1326   */\n  dup3\n    /* \"#utility.yul\":1315:1318   */\n  dup3\n    /* \"#utility.yul\":1308:1327   */\n  mstore\n    /* \"#utility.yul\":1360:1364   */\n  0x20\n    /* \"#utility.yul\":1355:1358   */\n  dup3\n    /* \"#utility.yul\":1351:1365   */\n  add\n    /* \"#utility.yul\":1336:1365   */\n  swap1\n  pop\n    /* \"#utility.yul\":1202:1371   */\n  swap3\n  swap2\n  pop\n  pop\n  jump\t// out\n    /* \"#utility.yul\":1377:1559   */\ntag_35:\n    /* \"#utility.yul\":1517:1551   */\n  0x4469726563746f72792063616e6e6f74206265207a65726f2061646472657373\n    /* \"#utility.yul\":1513:1514   */\n  0x00\n    /* \"#utility.yul\":1505:1511   */\n  dup3\n    /* \"#utility.yul\":1501:1515   */\n  add\n    /* \"#utility.yul\":1494:1552   */\n  mstore\n    /* \"#utility.yul\":1377:1559   */\n  pop\n  jump\t// out\n    /* \"#utility.yul\":1565:1931   */\ntag_36:\n    /* \"#utility.yul\":1707:1710   */\n  0x00\n    /* \"#utility.yul\":1728:1795   */\n  tag_60\n    /* \"#utility.yul\":1792:1794   */\n  0x20\n    /* \"#utility.yul\":1787:1790   */\n  dup4\n    /* \"#utility.yul\":1728:1795   */\n  tag_34\n  jump\t// in\ntag_60:\n    /* \"#utility.yul\":1721:1795   */\n  swap2\n  pop\n    /* \"#utility.yul\":1804:1897   */\n  tag_61\n    /* \"#utility.yul\":1893:1896   */\n  dup3\n    /* \"#utility.yul\":1804:1897   */\n  tag_35\n  jump\t// in\ntag_61:\n    /* \"#utility.yul\":1922:1924   */\n  0x20\n    /* \"#utility.yul\":1917:1920   */\n  dup3\n    /* \"#utility.yul\":1913:1925   */\n  add\n    /* \"#utility.yul\":1906:1925   */\n  swap1\n  pop\n    /* \"#utility.yul\":1565:1931   */\n  swap2\n  swap1\n  pop\n  jump\t// out\n    /* \"#utility.yul\":1937:2356   */\ntag_14:\n    /* \"#utility.yul\":2103:2107   */\n  0x00\n    /* \"#utility.yul\":2141:2143   */\n  0x20\n    /* \"#utility.yul\":2130:2139   */\n  dup3\n    /* \"#utility.yul\":2126:2144   */\n  add\n    /* \"#utility.yul\":2118:2144   */\n  swap1\n  pop\n    /* \"#utility.yul\":2190:2199   */\n  dup2\n    /* \"#utility.yul\":2184:2188   */\n  dup2\n    /* \"#utility.yul\":2180:2200   */\n  sub\n    /* \"#utility.yul\":2176:2177   */\n  0x00\n    /* \"#utility.yul\":2165:2174   */\n  dup4\n    /* \"#utility.yul\":2161:2178   */\n  add\n    /* \"#utility.yul\":2154:2201   */\n  mstore\n    /* \"#utility.yul\":2218:2349   */\n  tag_63\n    /* \"#utility.yul\":2344:2348   */\n  dup2\n    /* \"#utility.yul\":2218:2349   */\n  tag_36\n  jump\t// in\ntag_63:\n    /* \"#utility.yul\":2210:2349   */\n  swap1\n  pop\n    /* \"#utility.yul\":1937:2356   */\n  swap2\n  swap1\n  pop\n  jump\t// out\n    /* \"#utility.yul\":2362:2540   */\ntag_37:\n    /* \"#utility.yul\":2502:2532   */\n  0x4469726563746f7279206d757374206265206120636f6e747261637400000000\n    /* \"#utility.yul\":2498:2499   */\n  0x00\n    /* \"#utility.yul\":2490:2496   */\n  dup3\n    /* \"#utility.yul\":2486:2500   */\n  add\n    /* \"#utility.yul\":2479:2533   */\n  mstore\n    /* \"#utility.yul\":2362:2540   */\n  pop\n  jump\t// out\n    /* \"#utility.yul\":2546:2912   */\ntag_38:\n    /* \"#utility.yul\":2688:2691   */\n  0x00\n    /* \"#utility.yul\":2709:2776   */\n  tag_66\n    /* \"#utility.yul\":2773:2775   */\n  0x1c\n    /* \"#utility.yul\":2768:2771   */\n  dup4\n    /* \"#utility.yul\":2709:2776   */\n  tag_34\n  jump\t// in\ntag_66:\n    /* \"#utility.yul\":2702:2776   */\n  swap2\n  pop\n    /* \"#utility.yul\":2785:2878   */\n  tag_67\n    /* \"#utility.yul\":2874:2877   */\n  dup3\n    /* \"#utility.yul\":2785:2878   */\n  tag_37\n  jump\t// in\ntag_67:\n    /* \"#utility.yul\":2903:2905   */\n  0x20\n    /* \"#utility.yul\":2898:2901   */\n  dup3\n    /* \"#utility.yul\":2894:2906   */\n  add\n    /* \"#utility.yul\":2887:2906   */\n  swap1\n  pop\n    /* \"#utility.yul\":2546:2912   */\n  swap2\n  swap1\n  pop\n  jump\t// out\n    /* \"#utility.yul\":2918:3337   */\ntag_17:\n    /* \"#utility.yul\":3084:3088   */\n  0x00\n    /* \"#utility.yul\":3122:3124   */\n  0x20\n    /* \"#utility.yul\":3111:3120   */\n  dup3\n    /* \"#utility.yul\":3107:3125   */\n  add\n    /* \"#utility.yul\":3099:3125   */\n  swap1\n  pop\n    /* \"#utility.yul\":3171:3180   */\n  dup2\n    /* \"#utility.yul\":3165:3169   */\n  dup2\n    /* \"#utility.yul\":3161:3181   */\n  sub\n    /* \"#utility.yul\":3157:3158   */\n  0x00\n    /* \"#utility.yul\":3146:3155   */\n  dup4\n    /* \"#utility.yul\":3142:3159   */\n  add\n    /* \"#utility.yul\":3135:3182   */\n  mstore\n    /* \"#utility.yul\":3199:3330   */\n  tag_69\n    /* \"#utility.yul\":3325:3329   */\n  dup2\n    /* \"#utility.yul\":3199:3330   */\n  tag_38\n  jump\t// in\ntag_69:\n    /* \"#utility.yul\":3191:3330   */\n  swap1\n  pop\n    /* \"#utility.yul\":2918:3337   */\n  swap2\n  swap1\n  pop\n  jump\t// out\n    /* \"#utility.yul\":3343:3574   */\ntag_39:\n    /* \"#utility.yul\":3483:3517   */\n  0x4469726563746f7279206164647265737320646f6573206e6f7420696d706c65\n    /* \"#utility.yul\":3479:3480   */\n  0x00\n    /* \"#utility.yul\":3471:3477   */\n  dup3\n    /* \"#utility.yul\":3467:3481   */\n  add\n    /* \"#utility.yul\":3460:3518   */\n  mstore\n    /* \"#utility.yul\":3552:3566   */\n  0x6d656e74206f776e657228290000000000000000000000000000000000000000\n    /* \"#utility.yul\":3547:3549   */\n  0x20\n    /* \"#utility.yul\":3539:3545   */\n  dup3\n    /* \"#utility.yul\":3535:3550   */\n  add\n    /* \"#utility.yul\":3528:3567   */\n  mstore\n    /* \"#utility.yul\":3343:3574   */\n  pop\n  jump\t// out\n    /* \"#utility.yul\":3580:3946   */\ntag_40:\n    /* \"#utility.yul\":3722:3725   */\n  0x00\n    /* \"#utility.yul\":3743:3810   */\n  tag_72\n    /* \"#utility.yul\":3807:3809   */\n  0x2c\n    /* \"#utility.yul\":3802:3805   */\n  dup4\n    /* \"#utility.yul\":3743:3810   */\n  tag_34\n  jump\t// in\ntag_72:\n    /* \"#utility.yul\":3736:3810   */\n  swap2\n  pop\n    /* \"#utility.yul\":3819:3912   */\n  tag_73\n    /* \"#utility.yul\":3908:3911   */\n  dup3\n    /* \"#utility.yul\":3819:3912   */\n  tag_39\n  jump\t// in\ntag_73:\n    /* \"#utility.yul\":3937:3939   */\n  0x40\n    /* \"#utility.yul\":3932:3935   */\n  dup3\n    /* \"#utility.yul\":3928:3940   */\n  add\n    /* \"#utility.yul\":3921:3940   */\n  swap1\n  pop\n    /* \"#utility.yul\":3580:3946   */\n  swap2\n  swap1\n  pop\n  jump\t// out\n    /* \"#utility.yul\":3952:4371   */\ntag_25:\n    /* \"#utility.yul\":4118:4122   */\n  0x00\n    /* \"#utility.yul\":4156:4158   */\n  0x20\n    /* \"#utility.yul\":4145:4154   */\n  dup3\n    /* \"#utility.yul\":4141:4159   */\n  add\n    /* \"#utility.yul\":4133:4159   */\n  swap1\n  pop\n    /* \"#utility.yul\":4205:4214   */\n  dup2\n    /* \"#utility.yul\":4199:4203   */\n  dup2\n    /* \"#utility.yul\":4195:4215   */\n  sub\n    /* \"#utility.yul\":4191:4192   */\n  0x00\n    /* \"#utility.yul\":4180:4189   */\n  dup4\n    /* \"#utility.yul\":4176:4193   */\n  add\n    /* \"#utility.yul\":4169:4216   */\n  mstore\n    /* \"#utility.yul\":4233:4364   */\n  tag_75\n    /* \"#utility.yul\":4359:4363   */\n  dup2\n    /* \"#utility.yul\":4233:4364   */\n  tag_40\n  jump\t// in\ntag_75:\n    /* \"#utility.yul\":4225:4364   */\n  swap1\n  pop\n    /* \"#utility.yul\":3952:4371   */\n  swap2\n  swap1\n  pop\n  jump\t// out\n    /* \"hopium/etf/main/etf-factory.sol\":2271:4950  contract EtfFactory is ImDirectory, ImEtfTokenDeployer, ImEtfVaultDeployer, Helpers, ImActive, ImEtfRouter {... */\ntag_10:\n  dataSize(sub_0)\n  dup1\n  dataOffset(sub_0)\n  0x00\n  codecopy\n  0x00\n  return\nstop\n\nsub_0: assembly {\n        /* \"hopium/etf/main/etf-factory.sol\":2271:4950  contract EtfFactory is ImDirectory, ImEtfTokenDeployer, ImEtfVaultDeployer, Helpers, ImActive, ImEtfRouter {... */\n      mstore(0x40, 0x80)\n      callvalue\n      dup1\n      iszero\n      tag_1\n      jumpi\n      revert(0x00, 0x00)\n    tag_1:\n      pop\n      jumpi(tag_2, lt(calldatasize, 0x04))\n      shr(0xe0, calldataload(0x00))\n      dup1\n      0x8da5cb5b\n      gt\n      tag_18\n      jumpi\n      dup1\n      0xc4eda09e\n      gt\n      tag_19\n      jumpi\n      dup1\n      0xc4eda09e\n      eq\n      tag_14\n      jumpi\n      dup1\n      0xd00ed651\n      eq\n      tag_15\n      jumpi\n      dup1\n      0xe4b603b3\n      eq\n      tag_16\n      jumpi\n      dup1\n      0xf2018a1f\n      eq\n      tag_17\n      jumpi\n      jump(tag_2)\n    tag_19:\n      dup1\n      0x8da5cb5b\n      eq\n      tag_10\n      jumpi\n      dup1\n      0x9cfe0b3b\n      eq\n      tag_11\n      jumpi\n      dup1\n      0xacec338a\n      eq\n      tag_12\n      jumpi\n      dup1\n      0xba4c7be1\n      eq\n      tag_13\n      jumpi\n      jump(tag_2)\n    tag_18:\n      dup1\n      0x3ee79962\n      gt\n      tag_20\n      jumpi\n      dup1\n      0x3ee79962\n      eq\n      tag_6\n      jumpi\n      dup1\n      0x4eea0e0d\n      eq\n      tag_7\n      jumpi\n      dup1\n      0x658a847a\n      eq\n      tag_8\n      jumpi\n      dup1\n      0x65a8f8b5\n      eq\n      tag_9\n      jumpi\n      jump(tag_2)\n    tag_20:\n      dup1\n      0x1626542c\n      eq\n      tag_3\n      jumpi\n      dup1\n      0x22f3e2d4\n      eq\n      tag_4\n      jumpi\n      dup1\n      0x27262618\n      eq\n      tag_5\n      jumpi\n    tag_2:\n      revert(0x00, 0x00)\n        /* \"hopium/etf/main/etf-factory.sol\":3278:3955  function updateEtfVolume(uint256 indexId, uint256 tradeWethValue) public onlyEtfRouter {... */\n    tag_3:\n      tag_21\n      0x04\n      dup1\n      calldatasize\n      sub\n      dup2\n      add\n      swap1\n      tag_22\n      swap2\n      swap1\n      tag_23\n      jump\t// in\n    tag_22:\n      tag_24\n      jump\t// in\n    tag_21:\n      stop\n        /* \"hopium/common/interface/imActive.sol\":156:183  bool public isActive = true */\n    tag_4:\n      tag_25\n      tag_26\n      jump\t// in\n    tag_25:\n      mload(0x40)\n      tag_27\n      swap2\n      swap1\n      tag_28\n      jump\t// in\n    tag_27:\n      mload(0x40)\n      dup1\n      swap2\n      sub\n      swap1\n      return\n        /* \"hopium/common/interface/imDirectory.sol\":1272:1408  function fetchFromDirectory(string memory _key) public view returns (address) {... */\n    tag_5:\n      tag_29\n      0x04\n      dup1\n      calldatasize\n      sub\n      dup2\n      add\n      swap1\n      tag_30\n      swap2\n      swap1\n      tag_31\n      jump\t// in\n    tag_30:\n      tag_32\n      jump\t// in\n    tag_29:\n      mload(0x40)\n      tag_33\n      swap2\n      swap1\n      tag_34\n      jump\t// in\n    tag_33:\n      mload(0x40)\n      dup1\n      swap2\n      sub\n      swap1\n      return\n        /* \"hopium/etf/main/etf-factory.sol\":4117:4244  function getEtfVaultAddress(uint256 indexId) public view returns (address) {... */\n    tag_6:\n      tag_35\n      0x04\n      dup1\n      calldatasize\n      sub\n      dup2\n      add\n      swap1\n      tag_36\n      swap2\n      swap1\n      tag_37\n      jump\t// in\n    tag_36:\n      tag_38\n      jump\t// in\n    tag_35:\n      mload(0x40)\n      tag_39\n      swap2\n      swap1\n      tag_34\n      jump\t// in\n    tag_39:\n      mload(0x40)\n      dup1\n      swap2\n      sub\n      swap1\n      return\n        /* \"hopium/etf/main/etf-factory.sol\":4670:4805  function getEtfTotalVolumeWeth(uint256 indexId) public view returns (uint256) {... */\n    tag_7:\n      tag_40\n      0x04\n      dup1\n      calldatasize\n      sub\n      dup2\n      add\n      swap1\n      tag_41\n      swap2\n      swap1\n      tag_37\n      jump\t// in\n    tag_41:\n      tag_42\n      jump\t// in\n    tag_40:\n      mload(0x40)\n      tag_43\n      swap2\n      swap1\n      tag_44\n      jump\t// in\n    tag_43:\n      mload(0x40)\n      dup1\n      swap2\n      sub\n      swap1\n      return\n        /* \"hopium/common/interface/imDirectory.sol\":336:363  IDirectory public Directory */\n    tag_8:\n      tag_45\n      tag_46\n      jump\t// in\n    tag_45:\n      mload(0x40)\n      tag_47\n      swap2\n      swap1\n      tag_48\n      jump\t// in\n    tag_47:\n      mload(0x40)\n      dup1\n      swap2\n      sub\n      swap1\n      return\n        /* \"hopium/etf/main/etf-factory.sol\":4377:4499  function getEtfNavUsd(uint256 indexId) public view returns (uint256 navUsd) {... */\n    tag_9:\n      tag_49\n      0x04\n      dup1\n      calldatasize\n      sub\n      dup2\n      add\n      swap1\n      tag_50\n      swap2\n      swap1\n      tag_37\n      jump\t// in\n    tag_50:\n      tag_51\n      jump\t// in\n    tag_49:\n      mload(0x40)\n      tag_52\n      swap2\n      swap1\n      tag_44\n      jump\t// in\n    tag_52:\n      mload(0x40)\n      dup1\n      swap2\n      sub\n      swap1\n      return\n        /* \"hopium/common/interface/imDirectory.sol\":1178:1266  function owner() public view returns (address) {... */\n    tag_10:\n      tag_53\n      tag_54\n      jump\t// in\n    tag_53:\n      mload(0x40)\n      tag_55\n      swap2\n      swap1\n      tag_34\n      jump\t// in\n    tag_55:\n      mload(0x40)\n      dup1\n      swap2\n      sub\n      swap1\n      return\n        /* \"hopium/etf/main/etf-factory.sol\":4811:4948  function getEtfTotalVolumeUsd(uint256 indexId) public view returns (uint256) {    ... */\n    tag_11:\n      tag_56\n      0x04\n      dup1\n      calldatasize\n      sub\n      dup2\n      add\n      swap1\n      tag_57\n      swap2\n      swap1\n      tag_37\n      jump\t// in\n    tag_57:\n      tag_58\n      jump\t// in\n    tag_56:\n      mload(0x40)\n      tag_59\n      swap2\n      swap1\n      tag_44\n      jump\t// in\n    tag_59:\n      mload(0x40)\n      dup1\n      swap2\n      sub\n      swap1\n      return\n        /* \"hopium/common/interface/imActive.sol\":289:374  function setActive(bool _active) public onlyOwner {... */\n    tag_12:\n      tag_60\n      0x04\n      dup1\n      calldatasize\n      sub\n      dup2\n      add\n      swap1\n      tag_61\n      swap2\n      swap1\n      tag_62\n      jump\t// in\n    tag_61:\n      tag_63\n      jump\t// in\n    tag_60:\n      stop\n        /* \"hopium/common/interface/imDirectory.sol\":470:583  function changeDirectoryAddress(address _directory) external onlyOwner {... */\n    tag_13:\n      tag_64\n      0x04\n      dup1\n      calldatasize\n      sub\n      dup2\n      add\n      swap1\n      tag_65\n      swap2\n      swap1\n      tag_66\n      jump\t// in\n    tag_65:\n      tag_67\n      jump\t// in\n    tag_64:\n      stop\n        /* \"hopium/etf/main/etf-factory.sol\":2601:3272  function createIndexAndEtf(Index calldata index) public onlyOwner onlyActive {... */\n    tag_14:\n      tag_68\n      0x04\n      dup1\n      calldatasize\n      sub\n      dup2\n      add\n      swap1\n      tag_69\n      swap2\n      swap1\n      tag_70\n      jump\t// in\n    tag_69:\n      tag_71\n      jump\t// in\n    tag_68:\n      stop\n        /* \"hopium/etf/main/etf-factory.sol\":4505:4664  function getIndexIdFromEtfTokenAddress(address etfTokenAddress) public view returns (uint256) {... */\n    tag_15:\n      tag_72\n      0x04\n      dup1\n      calldatasize\n      sub\n      dup2\n      add\n      swap1\n      tag_73\n      swap2\n      swap1\n      tag_66\n      jump\t// in\n    tag_73:\n      tag_74\n      jump\t// in\n    tag_72:\n      mload(0x40)\n      tag_75\n      swap2\n      swap1\n      tag_44\n      jump\t// in\n    tag_75:\n      mload(0x40)\n      dup1\n      swap2\n      sub\n      swap1\n      return\n        /* \"hopium/etf/main/etf-factory.sol\":4250:4371  function getEtfNavWeth(uint256 indexId) public view returns (uint256 nav) {... */\n    tag_16:\n      tag_76\n      0x04\n      dup1\n      calldatasize\n      sub\n      dup2\n      add\n      swap1\n      tag_77\n      swap2\n      swap1\n      tag_37\n      jump\t// in\n    tag_77:\n      tag_78\n      jump\t// in\n    tag_76:\n      mload(0x40)\n      tag_79\n      swap2\n      swap1\n      tag_44\n      jump\t// in\n    tag_79:\n      mload(0x40)\n      dup1\n      swap2\n      sub\n      swap1\n      return\n        /* \"hopium/etf/main/etf-factory.sol\":3984:4111  function getEtfTokenAddress(uint256 indexId) public view returns (address) {... */\n    tag_17:\n      tag_80\n      0x04\n      dup1\n      calldatasize\n      sub\n      dup2\n      add\n      swap1\n      tag_81\n      swap2\n      swap1\n      tag_37\n      jump\t// in\n    tag_81:\n      tag_82\n      jump\t// in\n    tag_80:\n      mload(0x40)\n      tag_83\n      swap2\n      swap1\n      tag_34\n      jump\t// in\n    tag_83:\n      mload(0x40)\n      dup1\n      swap2\n      sub\n      swap1\n      return\n        /* \"hopium/etf/main/etf-factory.sol\":3278:3955  function updateEtfVolume(uint256 indexId, uint256 tradeWethValue) public onlyEtfRouter {... */\n    tag_24:\n        /* \"hopium/etf/interface/imEtfRouter.sol\":389:421  fetchFromDirectory(\"etf-router\") */\n      tag_85\n      mload(0x40)\n      dup1\n      0x40\n      add\n      0x40\n      mstore\n      dup1\n      0x0a\n      dup2\n      mstore\n      0x20\n      add\n      0x6574662d726f7574657200000000000000000000000000000000000000000000\n      dup2\n      mstore\n      pop\n        /* \"hopium/etf/interface/imEtfRouter.sol\":389:407  fetchFromDirectory */\n      tag_32\n        /* \"hopium/etf/interface/imEtfRouter.sol\":389:421  fetchFromDirectory(\"etf-router\") */\n      jump\t// in\n    tag_85:\n        /* \"hopium/etf/interface/imEtfRouter.sol\":375:421  msg.sender == fetchFromDirectory(\"etf-router\") */\n      0xffffffffffffffffffffffffffffffffffffffff\n      and\n        /* \"hopium/etf/interface/imEtfRouter.sol\":375:385  msg.sender */\n      caller\n        /* \"hopium/etf/interface/imEtfRouter.sol\":375:421  msg.sender == fetchFromDirectory(\"etf-router\") */\n      0xffffffffffffffffffffffffffffffffffffffff\n      and\n      eq\n        /* \"hopium/etf/interface/imEtfRouter.sol\":367:454  require(msg.sender == fetchFromDirectory(\"etf-router\"), \"msg.sender is not etf router\") */\n      tag_86\n      jumpi\n      mload(0x40)\n      0x08c379a000000000000000000000000000000000000000000000000000000000\n      dup2\n      mstore\n      0x04\n      add\n      tag_87\n      swap1\n      tag_88\n      jump\t// in\n    tag_87:\n      mload(0x40)\n      dup1\n      swap2\n      sub\n      swap1\n      revert\n    tag_86:\n        /* \"hopium/etf/main/etf-factory.sol\":3400:3401  0 */\n      0x00\n        /* \"hopium/etf/main/etf-factory.sol\":3383:3397  tradeWethValue */\n      dup2\n        /* \"hopium/etf/main/etf-factory.sol\":3383:3401  tradeWethValue > 0 */\n      gt\n        /* \"hopium/etf/main/etf-factory.sol\":3375:3437  require(tradeWethValue > 0, \"EtfFactory: trade value is zero\") */\n      tag_90\n      jumpi\n      mload(0x40)\n      0x08c379a000000000000000000000000000000000000000000000000000000000\n      dup2\n      mstore\n      0x04\n      add\n      tag_91\n      swap1\n      tag_92\n      jump\t// in\n    tag_91:\n      mload(0x40)\n      dup1\n      swap2\n      sub\n      swap1\n      revert\n    tag_90:\n        /* \"hopium/etf/main/etf-factory.sol\":3448:3468  uint256 wethUsdPrice */\n      0x00\n        /* \"hopium/etf/main/etf-factory.sol\":3471:3487  getPriceOracle() */\n      tag_93\n        /* \"hopium/etf/main/etf-factory.sol\":3471:3485  getPriceOracle */\n      tag_94\n        /* \"hopium/etf/main/etf-factory.sol\":3471:3487  getPriceOracle() */\n      jump\t// in\n    tag_93:\n        /* \"hopium/etf/main/etf-factory.sol\":3471:3503  getPriceOracle().getWethUsdPrice */\n      0xffffffffffffffffffffffffffffffffffffffff\n      and\n      0x6855e939\n        /* \"hopium/etf/main/etf-factory.sol\":3471:3505  getPriceOracle().getWethUsdPrice() */\n      mload(0x40)\n      dup2\n      0xffffffff\n      and\n      0xe0\n      shl\n      dup2\n      mstore\n      0x04\n      add\n      0x20\n      mload(0x40)\n      dup1\n      dup4\n      sub\n      dup2\n      dup7\n      gas\n      staticcall\n      iszero\n      dup1\n      iszero\n      tag_96\n      jumpi\n      returndatacopy(0x00, 0x00, returndatasize)\n      revert(0x00, returndatasize)\n    tag_96:\n      pop\n      pop\n      pop\n      pop\n      mload(0x40)\n      returndatasize\n      not(0x1f)\n      0x1f\n      dup3\n      add\n      and\n      dup3\n      add\n      dup1\n      0x40\n      mstore\n      pop\n      dup2\n      add\n      swap1\n      tag_97\n      swap2\n      swap1\n      tag_98\n      jump\t// in\n    tag_97:\n        /* \"hopium/etf/main/etf-factory.sol\":3448:3505  uint256 wethUsdPrice = getPriceOracle().getWethUsdPrice() */\n      swap1\n      pop\n        /* \"hopium/etf/main/etf-factory.sol\":3570:3571  0 */\n      0x00\n        /* \"hopium/etf/main/etf-factory.sol\":3555:3567  wethUsdPrice */\n      dup2\n        /* \"hopium/etf/main/etf-factory.sol\":3555:3571  wethUsdPrice > 0 */\n      gt\n        /* \"hopium/etf/main/etf-factory.sol\":3547:3610  require(wethUsdPrice > 0, \"EtfFactory: WETH/USD price is zero\") */\n      tag_99\n      jumpi\n      mload(0x40)\n      0x08c379a000000000000000000000000000000000000000000000000000000000\n      dup2\n      mstore\n      0x04\n      add\n      tag_100\n      swap1\n      tag_101\n      jump\t// in\n    tag_100:\n      mload(0x40)\n      dup1\n      swap2\n      sub\n      swap1\n      revert\n    tag_99:\n        /* \"hopium/etf/main/etf-factory.sol\":3701:3722  uint256 tradeUsdValue */\n      0x00\n        /* \"hopium/etf/main/etf-factory.sol\":3759:3763  1e18 */\n      0x0de0b6b3a7640000\n        /* \"hopium/etf/main/etf-factory.sol\":3743:3755  wethUsdPrice */\n      dup3\n        /* \"hopium/etf/main/etf-factory.sol\":3726:3740  tradeWethValue */\n      dup5\n        /* \"hopium/etf/main/etf-factory.sol\":3726:3755  tradeWethValue * wethUsdPrice */\n      tag_102\n      swap2\n      swap1\n      tag_103\n      jump\t// in\n    tag_102:\n        /* \"hopium/etf/main/etf-factory.sol\":3725:3763  (tradeWethValue * wethUsdPrice) / 1e18 */\n      tag_104\n      swap2\n      swap1\n      tag_105\n      jump\t// in\n    tag_104:\n        /* \"hopium/etf/main/etf-factory.sol\":3701:3763  uint256 tradeUsdValue = (tradeWethValue * wethUsdPrice) / 1e18 */\n      swap1\n      pop\n        /* \"hopium/etf/main/etf-factory.sol\":3875:3889  tradeWethValue */\n      dup3\n        /* \"hopium/etf/main/etf-factory.sol\":3838:3862  indexIdToTotalVolumeWeth */\n      0x04\n        /* \"hopium/etf/main/etf-factory.sol\":3838:3871  indexIdToTotalVolumeWeth[indexId] */\n      0x00\n        /* \"hopium/etf/main/etf-factory.sol\":3863:3870  indexId */\n      dup7\n        /* \"hopium/etf/main/etf-factory.sol\":3838:3871  indexIdToTotalVolumeWeth[indexId] */\n      dup2\n      mstore\n      0x20\n      add\n      swap1\n      dup2\n      mstore\n      0x20\n      add\n      0x00\n      keccak256\n      0x00\n        /* \"hopium/etf/main/etf-factory.sol\":3838:3889  indexIdToTotalVolumeWeth[indexId] += tradeWethValue */\n      dup3\n      dup3\n      sload\n      tag_106\n      swap2\n      swap1\n      tag_107\n      jump\t// in\n    tag_106:\n      swap3\n      pop\n      pop\n      dup2\n      swap1\n      sstore\n      pop\n        /* \"hopium/etf/main/etf-factory.sol\":3935:3948  tradeUsdValue */\n      dup1\n        /* \"hopium/etf/main/etf-factory.sol\":3899:3922  indexIdToTotalVolumeUsd */\n      0x05\n        /* \"hopium/etf/main/etf-factory.sol\":3899:3931  indexIdToTotalVolumeUsd[indexId] */\n      0x00\n        /* \"hopium/etf/main/etf-factory.sol\":3923:3930  indexId */\n      dup7\n        /* \"hopium/etf/main/etf-factory.sol\":3899:3931  indexIdToTotalVolumeUsd[indexId] */\n      dup2\n      mstore\n      0x20\n      add\n      swap1\n      dup2\n      mstore\n      0x20\n      add\n      0x00\n      keccak256\n      0x00\n        /* \"hopium/etf/main/etf-factory.sol\":3899:3948  indexIdToTotalVolumeUsd[indexId] += tradeUsdValue */\n      dup3\n      dup3\n      sload\n      tag_108\n      swap2\n      swap1\n      tag_107\n      jump\t// in\n    tag_108:\n      swap3\n      pop\n      pop\n      dup2\n      swap1\n      sstore\n      pop\n        /* \"hopium/etf/main/etf-factory.sol\":3365:3955  {... */\n      pop\n      pop\n        /* \"hopium/etf/main/etf-factory.sol\":3278:3955  function updateEtfVolume(uint256 indexId, uint256 tradeWethValue) public onlyEtfRouter {... */\n      pop\n      pop\n      jump\t// out\n        /* \"hopium/common/interface/imActive.sol\":156:183  bool public isActive = true */\n    tag_26:\n      0x06\n      0x00\n      swap1\n      sload\n      swap1\n      0x0100\n      exp\n      swap1\n      div\n      0xff\n      and\n      dup2\n      jump\t// out\n        /* \"hopium/common/interface/imDirectory.sol\":1272:1408  function fetchFromDirectory(string memory _key) public view returns (address) {... */\n    tag_32:\n        /* \"hopium/common/interface/imDirectory.sol\":1341:1348  address */\n      0x00\n        /* \"hopium/common/interface/imDirectory.sol\":1367:1376  Directory */\n      0x00\n      0x00\n      swap1\n      sload\n      swap1\n      0x0100\n      exp\n      swap1\n      div\n      0xffffffffffffffffffffffffffffffffffffffff\n      and\n        /* \"hopium/common/interface/imDirectory.sol\":1367:1395  Directory.fetchFromDirectory */\n      0xffffffffffffffffffffffffffffffffffffffff\n      and\n      0x27262618\n        /* \"hopium/common/interface/imDirectory.sol\":1396:1400  _key */\n      dup4\n        /* \"hopium/common/interface/imDirectory.sol\":1367:1401  Directory.fetchFromDirectory(_key) */\n      mload(0x40)\n      dup3\n      0xffffffff\n      and\n      0xe0\n      shl\n      dup2\n      mstore\n      0x04\n      add\n      tag_110\n      swap2\n      swap1\n      tag_111\n      jump\t// in\n    tag_110:\n      0x20\n      mload(0x40)\n      dup1\n      dup4\n      sub\n      dup2\n      dup7\n      gas\n      staticcall\n      iszero\n      dup1\n      iszero\n      tag_113\n      jumpi\n      returndatacopy(0x00, 0x00, returndatasize)\n      revert(0x00, returndatasize)\n    tag_113:\n      pop\n      pop\n      pop\n      pop\n      mload(0x40)\n      returndatasize\n      not(0x1f)\n      0x1f\n      dup3\n      add\n      and\n      dup3\n      add\n      dup1\n      0x40\n      mstore\n      pop\n      dup2\n      add\n      swap1\n      tag_114\n      swap2\n      swap1\n      tag_115\n      jump\t// in\n    tag_114:\n        /* \"hopium/common/interface/imDirectory.sol\":1360:1401  return Directory.fetchFromDirectory(_key) */\n      swap1\n      pop\n        /* \"hopium/common/interface/imDirectory.sol\":1272:1408  function fetchFromDirectory(string memory _key) public view returns (address) {... */\n      swap2\n      swap1\n      pop\n      jump\t// out\n        /* \"hopium/etf/main/etf-factory.sol\":4117:4244  function getEtfVaultAddress(uint256 indexId) public view returns (address) {... */\n    tag_38:\n        /* \"hopium/etf/main/etf-factory.sol\":4183:4190  address */\n      0x00\n        /* \"hopium/etf/main/etf-factory.sol\":4209:4237  _getEtfVaultAddress(indexId) */\n      tag_117\n        /* \"hopium/etf/main/etf-factory.sol\":4229:4236  indexId */\n      dup3\n        /* \"hopium/etf/main/etf-factory.sol\":4209:4228  _getEtfVaultAddress */\n      tag_118\n        /* \"hopium/etf/main/etf-factory.sol\":4209:4237  _getEtfVaultAddress(indexId) */\n      jump\t// in\n    tag_117:\n        /* \"hopium/etf/main/etf-factory.sol\":4202:4237  return _getEtfVaultAddress(indexId) */\n      swap1\n      pop\n        /* \"hopium/etf/main/etf-factory.sol\":4117:4244  function getEtfVaultAddress(uint256 indexId) public view returns (address) {... */\n      swap2\n      swap1\n      pop\n      jump\t// out\n        /* \"hopium/etf/main/etf-factory.sol\":4670:4805  function getEtfTotalVolumeWeth(uint256 indexId) public view returns (uint256) {... */\n    tag_42:\n        /* \"hopium/etf/main/etf-factory.sol\":4739:4746  uint256 */\n      0x00\n        /* \"hopium/etf/main/etf-factory.sol\":4765:4789  indexIdToTotalVolumeWeth */\n      0x04\n        /* \"hopium/etf/main/etf-factory.sol\":4765:4798  indexIdToTotalVolumeWeth[indexId] */\n      0x00\n        /* \"hopium/etf/main/etf-factory.sol\":4790:4797  indexId */\n      dup4\n        /* \"hopium/etf/main/etf-factory.sol\":4765:4798  indexIdToTotalVolumeWeth[indexId] */\n      dup2\n      mstore\n      0x20\n      add\n      swap1\n      dup2\n      mstore\n      0x20\n      add\n      0x00\n      keccak256\n      sload\n        /* \"hopium/etf/main/etf-factory.sol\":4758:4798  return indexIdToTotalVolumeWeth[indexId] */\n      swap1\n      pop\n        /* \"hopium/etf/main/etf-factory.sol\":4670:4805  function getEtfTotalVolumeWeth(uint256 indexId) public view returns (uint256) {... */\n      swap2\n      swap1\n      pop\n      jump\t// out\n        /* \"hopium/common/interface/imDirectory.sol\":336:363  IDirectory public Directory */\n    tag_46:\n      0x00\n      0x00\n      swap1\n      sload\n      swap1\n      0x0100\n      exp\n      swap1\n      div\n      0xffffffffffffffffffffffffffffffffffffffff\n      and\n      dup2\n      jump\t// out\n        /* \"hopium/etf/main/etf-factory.sol\":4377:4499  function getEtfNavUsd(uint256 indexId) public view returns (uint256 navUsd) {... */\n    tag_51:\n        /* \"hopium/etf/main/etf-factory.sol\":4437:4451  uint256 navUsd */\n      0x00\n        /* \"hopium/etf/main/etf-factory.sol\":4470:4492  _getEtfNavUsd(indexId) */\n      tag_121\n        /* \"hopium/etf/main/etf-factory.sol\":4484:4491  indexId */\n      dup3\n        /* \"hopium/etf/main/etf-factory.sol\":4470:4483  _getEtfNavUsd */\n      tag_122\n        /* \"hopium/etf/main/etf-factory.sol\":4470:4492  _getEtfNavUsd(indexId) */\n      jump\t// in\n    tag_121:\n        /* \"hopium/etf/main/etf-factory.sol\":4463:4492  return _getEtfNavUsd(indexId) */\n      swap1\n      pop\n        /* \"hopium/etf/main/etf-factory.sol\":4377:4499  function getEtfNavUsd(uint256 indexId) public view returns (uint256 navUsd) {... */\n      swap2\n      swap1\n      pop\n      jump\t// out\n        /* \"hopium/common/interface/imDirectory.sol\":1178:1266  function owner() public view returns (address) {... */\n    tag_54:\n        /* \"hopium/common/interface/imDirectory.sol\":1216:1223  address */\n      0x00\n        /* \"hopium/common/interface/imDirectory.sol\":1242:1251  Directory */\n      0x00\n      0x00\n      swap1\n      sload\n      swap1\n      0x0100\n      exp\n      swap1\n      div\n      0xffffffffffffffffffffffffffffffffffffffff\n      and\n        /* \"hopium/common/interface/imDirectory.sol\":1242:1257  Directory.owner */\n      0xffffffffffffffffffffffffffffffffffffffff\n      and\n      0x8da5cb5b\n        /* \"hopium/common/interface/imDirectory.sol\":1242:1259  Directory.owner() */\n      mload(0x40)\n      dup2\n      0xffffffff\n      and\n      0xe0\n      shl\n      dup2\n      mstore\n      0x04\n      add\n      0x20\n      mload(0x40)\n      dup1\n      dup4\n      sub\n      dup2\n      dup7\n      gas\n      staticcall\n      iszero\n      dup1\n      iszero\n      tag_125\n      jumpi\n      returndatacopy(0x00, 0x00, returndatasize)\n      revert(0x00, returndatasize)\n    tag_125:\n      pop\n      pop\n      pop\n      pop\n      mload(0x40)\n      returndatasize\n      not(0x1f)\n      0x1f\n      dup3\n      add\n      and\n      dup3\n      add\n      dup1\n      0x40\n      mstore\n      pop\n      dup2\n      add\n      swap1\n      tag_126\n      swap2\n      swap1\n      tag_115\n      jump\t// in\n    tag_126:\n        /* \"hopium/common/interface/imDirectory.sol\":1235:1259  return Directory.owner() */\n      swap1\n      pop\n        /* \"hopium/common/interface/imDirectory.sol\":1178:1266  function owner() public view returns (address) {... */\n      swap1\n      jump\t// out\n        /* \"hopium/etf/main/etf-factory.sol\":4811:4948  function getEtfTotalVolumeUsd(uint256 indexId) public view returns (uint256) {    ... */\n    tag_58:\n        /* \"hopium/etf/main/etf-factory.sol\":4879:4886  uint256 */\n      0x00\n        /* \"hopium/etf/main/etf-factory.sol\":4909:4932  indexIdToTotalVolumeUsd */\n      0x05\n        /* \"hopium/etf/main/etf-factory.sol\":4909:4941  indexIdToTotalVolumeUsd[indexId] */\n      0x00\n        /* \"hopium/etf/main/etf-factory.sol\":4933:4940  indexId */\n      dup4\n        /* \"hopium/etf/main/etf-factory.sol\":4909:4941  indexIdToTotalVolumeUsd[indexId] */\n      dup2\n      mstore\n      0x20\n      add\n      swap1\n      dup2\n      mstore\n      0x20\n      add\n      0x00\n      keccak256\n      sload\n        /* \"hopium/etf/main/etf-factory.sol\":4902:4941  return indexIdToTotalVolumeUsd[indexId] */\n      swap1\n      pop\n        /* \"hopium/etf/main/etf-factory.sol\":4811:4948  function getEtfTotalVolumeUsd(uint256 indexId) public view returns (uint256) {    ... */\n      swap2\n      swap1\n      pop\n      jump\t// out\n        /* \"hopium/common/interface/imActive.sol\":289:374  function setActive(bool _active) public onlyOwner {... */\n    tag_63:\n        /* \"hopium/common/interface/imDirectory.sol\":1109:1118  Directory */\n      0x00\n      0x00\n      swap1\n      sload\n      swap1\n      0x0100\n      exp\n      swap1\n      div\n      0xffffffffffffffffffffffffffffffffffffffff\n      and\n        /* \"hopium/common/interface/imDirectory.sol\":1109:1124  Directory.owner */\n      0xffffffffffffffffffffffffffffffffffffffff\n      and\n      0x8da5cb5b\n        /* \"hopium/common/interface/imDirectory.sol\":1109:1126  Directory.owner() */\n      mload(0x40)\n      dup2\n      0xffffffff\n      and\n      0xe0\n      shl\n      dup2\n      mstore\n      0x04\n      add\n      0x20\n      mload(0x40)\n      dup1\n      dup4\n      sub\n      dup2\n      dup7\n      gas\n      staticcall\n      iszero\n      dup1\n      iszero\n      tag_130\n      jumpi\n      returndatacopy(0x00, 0x00, returndatasize)\n      revert(0x00, returndatasize)\n    tag_130:\n      pop\n      pop\n      pop\n      pop\n      mload(0x40)\n      returndatasize\n      not(0x1f)\n      0x1f\n      dup3\n      add\n      and\n      dup3\n      add\n      dup1\n      0x40\n      mstore\n      pop\n      dup2\n      add\n      swap1\n      tag_131\n      swap2\n      swap1\n      tag_115\n      jump\t// in\n    tag_131:\n        /* \"hopium/common/interface/imDirectory.sol\":1095:1126  msg.sender == Directory.owner() */\n      0xffffffffffffffffffffffffffffffffffffffff\n      and\n        /* \"hopium/common/interface/imDirectory.sol\":1095:1105  msg.sender */\n      caller\n        /* \"hopium/common/interface/imDirectory.sol\":1095:1126  msg.sender == Directory.owner() */\n      0xffffffffffffffffffffffffffffffffffffffff\n      and\n      eq\n        /* \"hopium/common/interface/imDirectory.sol\":1087:1154  require(msg.sender == Directory.owner(), \"Caller is not the owner\") */\n      tag_132\n      jumpi\n      mload(0x40)\n      0x08c379a000000000000000000000000000000000000000000000000000000000\n      dup2\n      mstore\n      0x04\n      add\n      tag_133\n      swap1\n      tag_134\n      jump\t// in\n    tag_133:\n      mload(0x40)\n      dup1\n      swap2\n      sub\n      swap1\n      revert\n    tag_132:\n        /* \"hopium/common/interface/imActive.sol\":360:367  _active */\n      dup1\n        /* \"hopium/common/interface/imActive.sol\":349:357  isActive */\n      0x06\n      0x00\n        /* \"hopium/common/interface/imActive.sol\":349:367  isActive = _active */\n      0x0100\n      exp\n      dup2\n      sload\n      dup2\n      0xff\n      mul\n      not\n      and\n      swap1\n      dup4\n      iszero\n      iszero\n      mul\n      or\n      swap1\n      sstore\n      pop\n        /* \"hopium/common/interface/imActive.sol\":289:374  function setActive(bool _active) public onlyOwner {... */\n      pop\n      jump\t// out\n        /* \"hopium/common/interface/imDirectory.sol\":470:583  function changeDirectoryAddress(address _directory) external onlyOwner {... */\n    tag_67:\n        /* \"hopium/common/interface/imDirectory.sol\":1109:1118  Directory */\n      0x00\n      0x00\n      swap1\n      sload\n      swap1\n      0x0100\n      exp\n      swap1\n      div\n      0xffffffffffffffffffffffffffffffffffffffff\n      and\n        /* \"hopium/common/interface/imDirectory.sol\":1109:1124  Directory.owner */\n      0xffffffffffffffffffffffffffffffffffffffff\n      and\n      0x8da5cb5b\n        /* \"hopium/common/interface/imDirectory.sol\":1109:1126  Directory.owner() */\n      mload(0x40)\n      dup2\n      0xffffffff\n      and\n      0xe0\n      shl\n      dup2\n      mstore\n      0x04\n      add\n      0x20\n      mload(0x40)\n      dup1\n      dup4\n      sub\n      dup2\n      dup7\n      gas\n      staticcall\n      iszero\n      dup1\n      iszero\n      tag_138\n      jumpi\n      returndatacopy(0x00, 0x00, returndatasize)\n      revert(0x00, returndatasize)\n    tag_138:\n      pop\n      pop\n      pop\n      pop\n      mload(0x40)\n      returndatasize\n      not(0x1f)\n      0x1f\n      dup3\n      add\n      and\n      dup3\n      add\n      dup1\n      0x40\n      mstore\n      pop\n      dup2\n      add\n      swap1\n      tag_139\n      swap2\n      swap1\n      tag_115\n      jump\t// in\n    tag_139:\n        /* \"hopium/common/interface/imDirectory.sol\":1095:1126  msg.sender == Directory.owner() */\n      0xffffffffffffffffffffffffffffffffffffffff\n      and\n        /* \"hopium/common/interface/imDirectory.sol\":1095:1105  msg.sender */\n      caller\n        /* \"hopium/common/interface/imDirectory.sol\":1095:1126  msg.sender == Directory.owner() */\n      0xffffffffffffffffffffffffffffffffffffffff\n      and\n      eq\n        /* \"hopium/common/interface/imDirectory.sol\":1087:1154  require(msg.sender == Directory.owner(), \"Caller is not the owner\") */\n      tag_140\n      jumpi\n      mload(0x40)\n      0x08c379a000000000000000000000000000000000000000000000000000000000\n      dup2\n      mstore\n      0x04\n      add\n      tag_141\n      swap1\n      tag_134\n      jump\t// in\n    tag_141:\n      mload(0x40)\n      dup1\n      swap2\n      sub\n      swap1\n      revert\n    tag_140:\n        /* \"hopium/common/interface/imDirectory.sol\":551:576  _setDirectory(_directory) */\n      tag_143\n        /* \"hopium/common/interface/imDirectory.sol\":565:575  _directory */\n      dup2\n        /* \"hopium/common/interface/imDirectory.sol\":551:564  _setDirectory */\n      tag_144\n        /* \"hopium/common/interface/imDirectory.sol\":551:576  _setDirectory(_directory) */\n      jump\t// in\n    tag_143:\n        /* \"hopium/common/interface/imDirectory.sol\":470:583  function changeDirectoryAddress(address _directory) external onlyOwner {... */\n      pop\n      jump\t// out\n        /* \"hopium/etf/main/etf-factory.sol\":2601:3272  function createIndexAndEtf(Index calldata index) public onlyOwner onlyActive {... */\n    tag_71:\n        /* \"hopium/common/interface/imDirectory.sol\":1109:1118  Directory */\n      0x00\n      0x00\n      swap1\n      sload\n      swap1\n      0x0100\n      exp\n      swap1\n      div\n      0xffffffffffffffffffffffffffffffffffffffff\n      and\n        /* \"hopium/common/interface/imDirectory.sol\":1109:1124  Directory.owner */\n      0xffffffffffffffffffffffffffffffffffffffff\n      and\n      0x8da5cb5b\n        /* \"hopium/common/interface/imDirectory.sol\":1109:1126  Directory.owner() */\n      mload(0x40)\n      dup2\n      0xffffffff\n      and\n      0xe0\n      shl\n      dup2\n      mstore\n      0x04\n      add\n      0x20\n      mload(0x40)\n      dup1\n      dup4\n      sub\n      dup2\n      dup7\n      gas\n      staticcall\n      iszero\n      dup1\n      iszero\n      tag_147\n      jumpi\n      returndatacopy(0x00, 0x00, returndatasize)\n      revert(0x00, returndatasize)\n    tag_147:\n      pop\n      pop\n      pop\n      pop\n      mload(0x40)\n      returndatasize\n      not(0x1f)\n      0x1f\n      dup3\n      add\n      and\n      dup3\n      add\n      dup1\n      0x40\n      mstore\n      pop\n      dup2\n      add\n      swap1\n      tag_148\n      swap2\n      swap1\n      tag_115\n      jump\t// in\n    tag_148:\n        /* \"hopium/common/interface/imDirectory.sol\":1095:1126  msg.sender == Directory.owner() */\n      0xffffffffffffffffffffffffffffffffffffffff\n      and\n        /* \"hopium/common/interface/imDirectory.sol\":1095:1105  msg.sender */\n      caller\n        /* \"hopium/common/interface/imDirectory.sol\":1095:1126  msg.sender == Directory.owner() */\n      0xffffffffffffffffffffffffffffffffffffffff\n      and\n      eq\n        /* \"hopium/common/interface/imDirectory.sol\":1087:1154  require(msg.sender == Directory.owner(), \"Caller is not the owner\") */\n      tag_149\n      jumpi\n      mload(0x40)\n      0x08c379a000000000000000000000000000000000000000000000000000000000\n      dup2\n      mstore\n      0x04\n      add\n      tag_150\n      swap1\n      tag_134\n      jump\t// in\n    tag_150:\n      mload(0x40)\n      dup1\n      swap2\n      sub\n      swap1\n      revert\n    tag_149:\n        /* \"hopium/common/interface/imActive.sol\":230:238  isActive */\n      0x06\n      0x00\n      swap1\n      sload\n      swap1\n      0x0100\n      exp\n      swap1\n      div\n      0xff\n      and\n        /* \"hopium/common/interface/imActive.sol\":222:265  require(isActive, \"Contract is not active\") */\n      tag_152\n      jumpi\n      mload(0x40)\n      0x08c379a000000000000000000000000000000000000000000000000000000000\n      dup2\n      mstore\n      0x04\n      add\n      tag_153\n      swap1\n      tag_154\n      jump\t// in\n    tag_153:\n      mload(0x40)\n      dup1\n      swap2\n      sub\n      swap1\n      revert\n    tag_152:\n        /* \"hopium/etf/main/etf-factory.sol\":2712:2727  uint256 indexId */\n      0x00\n        /* \"hopium/etf/main/etf-factory.sol\":2730:2747  getIndexFactory() */\n      tag_156\n        /* \"hopium/etf/main/etf-factory.sol\":2730:2745  getIndexFactory */\n      tag_157\n        /* \"hopium/etf/main/etf-factory.sol\":2730:2747  getIndexFactory() */\n      jump\t// in\n    tag_156:\n        /* \"hopium/etf/main/etf-factory.sol\":2730:2759  getIndexFactory().createIndex */\n      0xffffffffffffffffffffffffffffffffffffffff\n      and\n      0x428d9a93\n        /* \"hopium/etf/main/etf-factory.sol\":2760:2765  index */\n      dup4\n        /* \"hopium/etf/main/etf-factory.sol\":2730:2766  getIndexFactory().createIndex(index) */\n      mload(0x40)\n      dup3\n      0xffffffff\n      and\n      0xe0\n      shl\n      dup2\n      mstore\n      0x04\n      add\n      tag_158\n      swap2\n      swap1\n      tag_159\n      jump\t// in\n    tag_158:\n      0x20\n      mload(0x40)\n      dup1\n      dup4\n      sub\n      dup2\n      0x00\n      dup8\n      gas\n      call\n      iszero\n      dup1\n      iszero\n      tag_161\n      jumpi\n      returndatacopy(0x00, 0x00, returndatasize)\n      revert(0x00, returndatasize)\n    tag_161:\n      pop\n      pop\n      pop\n      pop\n      mload(0x40)\n      returndatasize\n      not(0x1f)\n      0x1f\n      dup3\n      add\n      and\n      dup3\n      add\n      dup1\n      0x40\n      mstore\n      pop\n      dup2\n      add\n      swap1\n      tag_162\n      swap2\n      swap1\n      tag_98\n      jump\t// in\n    tag_162:\n        /* \"hopium/etf/main/etf-factory.sol\":2712:2766  uint256 indexId = getIndexFactory().createIndex(index) */\n      swap1\n      pop\n        /* \"hopium/etf/main/etf-factory.sol\":2805:2828  address etfTokenAddress */\n      0x00\n        /* \"hopium/etf/main/etf-factory.sol\":2831:2852  getEtfTokenDeployer() */\n      tag_163\n        /* \"hopium/etf/main/etf-factory.sol\":2831:2850  getEtfTokenDeployer */\n      tag_164\n        /* \"hopium/etf/main/etf-factory.sol\":2831:2852  getEtfTokenDeployer() */\n      jump\t// in\n    tag_163:\n        /* \"hopium/etf/main/etf-factory.sol\":2831:2867  getEtfTokenDeployer().deployEtfToken */\n      0xffffffffffffffffffffffffffffffffffffffff\n      and\n      0x78f6c7c4\n        /* \"hopium/etf/main/etf-factory.sol\":2868:2875  indexId */\n      dup4\n        /* \"hopium/etf/main/etf-factory.sol\":2877:2882  index */\n      dup6\n        /* \"hopium/etf/main/etf-factory.sol\":2877:2887  index.name */\n      dup1\n      0x00\n      add\n      swap1\n      tag_165\n      swap2\n      swap1\n      tag_166\n      jump\t// in\n    tag_165:\n        /* \"hopium/etf/main/etf-factory.sol\":2889:2894  index */\n      dup8\n        /* \"hopium/etf/main/etf-factory.sol\":2889:2901  index.ticker */\n      dup1\n      0x20\n      add\n      swap1\n      tag_167\n      swap2\n      swap1\n      tag_166\n      jump\t// in\n    tag_167:\n        /* \"hopium/etf/main/etf-factory.sol\":2831:2902  getEtfTokenDeployer().deployEtfToken(indexId, index.name, index.ticker) */\n      mload(0x40)\n      dup7\n      0xffffffff\n      and\n      0xe0\n      shl\n      dup2\n      mstore\n      0x04\n      add\n      tag_168\n      swap6\n      swap5\n      swap4\n      swap3\n      swap2\n      swap1\n      tag_169\n      jump\t// in\n    tag_168:\n      0x20\n      mload(0x40)\n      dup1\n      dup4\n      sub\n      dup2\n      0x00\n      dup8\n      gas\n      call\n      iszero\n      dup1\n      iszero\n      tag_171\n      jumpi\n      returndatacopy(0x00, 0x00, returndatasize)\n      revert(0x00, returndatasize)\n    tag_171:\n      pop\n      pop\n      pop\n      pop\n      mload(0x40)\n      returndatasize\n      not(0x1f)\n      0x1f\n      dup3\n      add\n      and\n      dup3\n      add\n      dup1\n      0x40\n      mstore\n      pop\n      dup2\n      add\n      swap1\n      tag_172\n      swap2\n      swap1\n      tag_115\n      jump\t// in\n    tag_172:\n        /* \"hopium/etf/main/etf-factory.sol\":2805:2902  address etfTokenAddress = getEtfTokenDeployer().deployEtfToken(indexId, index.name, index.ticker) */\n      swap1\n      pop\n        /* \"hopium/etf/main/etf-factory.sol\":2948:2963  etfTokenAddress */\n      dup1\n        /* \"hopium/etf/main/etf-factory.sol\":2912:2936  indexIdToEtfTokenAddress */\n      0x01\n        /* \"hopium/etf/main/etf-factory.sol\":2912:2945  indexIdToEtfTokenAddress[indexId] */\n      0x00\n        /* \"hopium/etf/main/etf-factory.sol\":2937:2944  indexId */\n      dup5\n        /* \"hopium/etf/main/etf-factory.sol\":2912:2945  indexIdToEtfTokenAddress[indexId] */\n      dup2\n      mstore\n      0x20\n      add\n      swap1\n      dup2\n      mstore\n      0x20\n      add\n      0x00\n      keccak256\n      0x00\n        /* \"hopium/etf/main/etf-factory.sol\":2912:2963  indexIdToEtfTokenAddress[indexId] = etfTokenAddress */\n      0x0100\n      exp\n      dup2\n      sload\n      dup2\n      0xffffffffffffffffffffffffffffffffffffffff\n      mul\n      not\n      and\n      swap1\n      dup4\n      0xffffffffffffffffffffffffffffffffffffffff\n      and\n      mul\n      or\n      swap1\n      sstore\n      pop\n        /* \"hopium/etf/main/etf-factory.sol\":3017:3024  indexId */\n      dup2\n        /* \"hopium/etf/main/etf-factory.sol\":2973:2997  etfTokenAddressToIndexId */\n      0x02\n        /* \"hopium/etf/main/etf-factory.sol\":2973:3014  etfTokenAddressToIndexId[etfTokenAddress] */\n      0x00\n        /* \"hopium/etf/main/etf-factory.sol\":2998:3013  etfTokenAddress */\n      dup4\n        /* \"hopium/etf/main/etf-factory.sol\":2973:3014  etfTokenAddressToIndexId[etfTokenAddress] */\n      0xffffffffffffffffffffffffffffffffffffffff\n      and\n      0xffffffffffffffffffffffffffffffffffffffff\n      and\n      dup2\n      mstore\n      0x20\n      add\n      swap1\n      dup2\n      mstore\n      0x20\n      add\n      0x00\n      keccak256\n        /* \"hopium/etf/main/etf-factory.sol\":2973:3024  etfTokenAddressToIndexId[etfTokenAddress] = indexId */\n      dup2\n      swap1\n      sstore\n      pop\n        /* \"hopium/etf/main/etf-factory.sol\":3063:3086  address etfVaultAddress */\n      0x00\n        /* \"hopium/etf/main/etf-factory.sol\":3089:3110  getEtfVaultDeployer() */\n      tag_173\n        /* \"hopium/etf/main/etf-factory.sol\":3089:3108  getEtfVaultDeployer */\n      tag_174\n        /* \"hopium/etf/main/etf-factory.sol\":3089:3110  getEtfVaultDeployer() */\n      jump\t// in\n    tag_173:\n        /* \"hopium/etf/main/etf-factory.sol\":3089:3125  getEtfVaultDeployer().deployEtfVault */\n      0xffffffffffffffffffffffffffffffffffffffff\n      and\n      0xb57c59a7\n        /* \"hopium/etf/main/etf-factory.sol\":3126:3133  indexId */\n      dup5\n        /* \"hopium/etf/main/etf-factory.sol\":3089:3134  getEtfVaultDeployer().deployEtfVault(indexId) */\n      mload(0x40)\n      dup3\n      0xffffffff\n      and\n      0xe0\n      shl\n      dup2\n      mstore\n      0x04\n      add\n      tag_175\n      swap2\n      swap1\n      tag_44\n      jump\t// in\n    tag_175:\n      0x20\n      mload(0x40)\n      dup1\n      dup4\n      sub\n      dup2\n      0x00\n      dup8\n      gas\n      call\n      iszero\n      dup1\n      iszero\n      tag_177\n      jumpi\n      returndatacopy(0x00, 0x00, returndatasize)\n      revert(0x00, returndatasize)\n    tag_177:\n      pop\n      pop\n      pop\n      pop\n      mload(0x40)\n      returndatasize\n      not(0x1f)\n      0x1f\n      dup3\n      add\n      and\n      dup3\n      add\n      dup1\n      0x40\n      mstore\n      pop\n      dup2\n      add\n      swap1\n      tag_178\n      swap2\n      swap1\n      tag_115\n      jump\t// in\n    tag_178:\n        /* \"hopium/etf/main/etf-factory.sol\":3063:3134  address etfVaultAddress = getEtfVaultDeployer().deployEtfVault(indexId) */\n      swap1\n      pop\n        /* \"hopium/etf/main/etf-factory.sol\":3180:3195  etfVaultAddress */\n      dup1\n        /* \"hopium/etf/main/etf-factory.sol\":3144:3168  indexIdToEtfVaultAddress */\n      0x03\n        /* \"hopium/etf/main/etf-factory.sol\":3144:3177  indexIdToEtfVaultAddress[indexId] */\n      0x00\n        /* \"hopium/etf/main/etf-factory.sol\":3169:3176  indexId */\n      dup6\n        /* \"hopium/etf/main/etf-factory.sol\":3144:3177  indexIdToEtfVaultAddress[indexId] */\n      dup2\n      mstore\n      0x20\n      add\n      swap1\n      dup2\n      mstore\n      0x20\n      add\n      0x00\n      keccak256\n      0x00\n        /* \"hopium/etf/main/etf-factory.sol\":3144:3195  indexIdToEtfVaultAddress[indexId] = etfVaultAddress */\n      0x0100\n      exp\n      dup2\n      sload\n      dup2\n      0xffffffffffffffffffffffffffffffffffffffff\n      mul\n      not\n      and\n      swap1\n      dup4\n      0xffffffffffffffffffffffffffffffffffffffff\n      and\n      mul\n      or\n      swap1\n      sstore\n      pop\n        /* \"hopium/etf/main/etf-factory.sol\":3223:3230  indexId */\n      dup3\n        /* \"hopium/etf/main/etf-factory.sol\":3211:3265  EtfDeployed(indexId, etfTokenAddress, etfVaultAddress) */\n      0x714caab8b078979e833e97982712cd462ab7124c2a27401542011f30e3d47d55\n        /* \"hopium/etf/main/etf-factory.sol\":3232:3247  etfTokenAddress */\n      dup4\n        /* \"hopium/etf/main/etf-factory.sol\":3249:3264  etfVaultAddress */\n      dup4\n        /* \"hopium/etf/main/etf-factory.sol\":3211:3265  EtfDeployed(indexId, etfTokenAddress, etfVaultAddress) */\n      mload(0x40)\n      tag_179\n      swap3\n      swap2\n      swap1\n      tag_180\n      jump\t// in\n    tag_179:\n      mload(0x40)\n      dup1\n      swap2\n      sub\n      swap1\n      log2\n        /* \"hopium/etf/main/etf-factory.sol\":2678:3272  {... */\n      pop\n      pop\n      pop\n        /* \"hopium/etf/main/etf-factory.sol\":2601:3272  function createIndexAndEtf(Index calldata index) public onlyOwner onlyActive {... */\n      pop\n      jump\t// out\n        /* \"hopium/etf/main/etf-factory.sol\":4505:4664  function getIndexIdFromEtfTokenAddress(address etfTokenAddress) public view returns (uint256) {... */\n    tag_74:\n        /* \"hopium/etf/main/etf-factory.sol\":4590:4597  uint256 */\n      0x00\n        /* \"hopium/etf/main/etf-factory.sol\":4616:4640  etfTokenAddressToIndexId */\n      0x02\n        /* \"hopium/etf/main/etf-factory.sol\":4616:4657  etfTokenAddressToIndexId[etfTokenAddress] */\n      0x00\n        /* \"hopium/etf/main/etf-factory.sol\":4641:4656  etfTokenAddress */\n      dup4\n        /* \"hopium/etf/main/etf-factory.sol\":4616:4657  etfTokenAddressToIndexId[etfTokenAddress] */\n      0xffffffffffffffffffffffffffffffffffffffff\n      and\n      0xffffffffffffffffffffffffffffffffffffffff\n      and\n      dup2\n      mstore\n      0x20\n      add\n      swap1\n      dup2\n      mstore\n      0x20\n      add\n      0x00\n      keccak256\n      sload\n        /* \"hopium/etf/main/etf-factory.sol\":4609:4657  return etfTokenAddressToIndexId[etfTokenAddress] */\n      swap1\n      pop\n        /* \"hopium/etf/main/etf-factory.sol\":4505:4664  function getIndexIdFromEtfTokenAddress(address etfTokenAddress) public view returns (uint256) {... */\n      swap2\n      swap1\n      pop\n      jump\t// out\n        /* \"hopium/etf/main/etf-factory.sol\":4250:4371  function getEtfNavWeth(uint256 indexId) public view returns (uint256 nav) {... */\n    tag_78:\n        /* \"hopium/etf/main/etf-factory.sol\":4311:4322  uint256 nav */\n      0x00\n        /* \"hopium/etf/main/etf-factory.sol\":4341:4364  _getEtfNavWeth(indexId) */\n      tag_183\n        /* \"hopium/etf/main/etf-factory.sol\":4356:4363  indexId */\n      dup3\n        /* \"hopium/etf/main/etf-factory.sol\":4341:4355  _getEtfNavWeth */\n      tag_184\n        /* \"hopium/etf/main/etf-factory.sol\":4341:4364  _getEtfNavWeth(indexId) */\n      jump\t// in\n    tag_183:\n        /* \"hopium/etf/main/etf-factory.sol\":4334:4364  return _getEtfNavWeth(indexId) */\n      swap1\n      pop\n        /* \"hopium/etf/main/etf-factory.sol\":4250:4371  function getEtfNavWeth(uint256 indexId) public view returns (uint256 nav) {... */\n      swap2\n      swap1\n      pop\n      jump\t// out\n        /* \"hopium/etf/main/etf-factory.sol\":3984:4111  function getEtfTokenAddress(uint256 indexId) public view returns (address) {... */\n    tag_82:\n        /* \"hopium/etf/main/etf-factory.sol\":4050:4057  address */\n      0x00\n        /* \"hopium/etf/main/etf-factory.sol\":4076:4104  _getEtfTokenAddress(indexId) */\n      tag_186\n        /* \"hopium/etf/main/etf-factory.sol\":4096:4103  indexId */\n      dup3\n        /* \"hopium/etf/main/etf-factory.sol\":4076:4095  _getEtfTokenAddress */\n      tag_187\n        /* \"hopium/etf/main/etf-factory.sol\":4076:4104  _getEtfTokenAddress(indexId) */\n      jump\t// in\n    tag_186:\n        /* \"hopium/etf/main/etf-factory.sol\":4069:4104  return _getEtfTokenAddress(indexId) */\n      swap1\n      pop\n        /* \"hopium/etf/main/etf-factory.sol\":3984:4111  function getEtfTokenAddress(uint256 indexId) public view returns (address) {... */\n      swap2\n      swap1\n      pop\n      jump\t// out\n        /* \"hopium/standalone/interface/imPriceOracle.sol\":256:399  function getPriceOracle() internal view virtual returns (IPriceOracle) {... */\n    tag_94:\n        /* \"hopium/standalone/interface/imPriceOracle.sol\":313:325  IPriceOracle */\n      0x00\n        /* \"hopium/standalone/interface/imPriceOracle.sol\":357:391  fetchFromDirectory(\"price-oracle\") */\n      tag_189\n      mload(0x40)\n      dup1\n      0x40\n      add\n      0x40\n      mstore\n      dup1\n      0x0c\n      dup2\n      mstore\n      0x20\n      add\n      0x70726963652d6f7261636c650000000000000000000000000000000000000000\n      dup2\n      mstore\n      pop\n        /* \"hopium/standalone/interface/imPriceOracle.sol\":357:375  fetchFromDirectory */\n      tag_32\n        /* \"hopium/standalone/interface/imPriceOracle.sol\":357:391  fetchFromDirectory(\"price-oracle\") */\n      jump\t// in\n    tag_189:\n        /* \"hopium/standalone/interface/imPriceOracle.sol\":337:392  return IPriceOracle(fetchFromDirectory(\"price-oracle\")) */\n      swap1\n      pop\n        /* \"hopium/standalone/interface/imPriceOracle.sol\":256:399  function getPriceOracle() internal view virtual returns (IPriceOracle) {... */\n      swap1\n      jump\t// out\n        /* \"hopium/etf/main/etf-factory.sol\":1093:1228  function _getEtfVaultAddress(uint256 indexId) internal view returns (address) {... */\n    tag_118:\n        /* \"hopium/etf/main/etf-factory.sol\":1162:1169  address */\n      0x00\n        /* \"hopium/etf/main/etf-factory.sol\":1188:1212  indexIdToEtfVaultAddress */\n      0x03\n        /* \"hopium/etf/main/etf-factory.sol\":1188:1221  indexIdToEtfVaultAddress[indexId] */\n      0x00\n        /* \"hopium/etf/main/etf-factory.sol\":1213:1220  indexId */\n      dup4\n        /* \"hopium/etf/main/etf-factory.sol\":1188:1221  indexIdToEtfVaultAddress[indexId] */\n      dup2\n      mstore\n      0x20\n      add\n      swap1\n      dup2\n      mstore\n      0x20\n      add\n      0x00\n      keccak256\n      0x00\n      swap1\n      sload\n      swap1\n      0x0100\n      exp\n      swap1\n      div\n      0xffffffffffffffffffffffffffffffffffffffff\n      and\n        /* \"hopium/etf/main/etf-factory.sol\":1181:1221  return indexIdToEtfVaultAddress[indexId] */\n      swap1\n      pop\n        /* \"hopium/etf/main/etf-factory.sol\":1093:1228  function _getEtfVaultAddress(uint256 indexId) internal view returns (address) {... */\n      swap2\n      swap1\n      pop\n      jump\t// out\n        /* \"hopium/etf/main/etf-factory.sol\":1816:2267  function _getEtfNavUsd(uint256 indexId) internal view returns (uint256 navUsd) {... */\n    tag_122:\n        /* \"hopium/etf/main/etf-factory.sol\":1879:1893  uint256 navUsd */\n      0x00\n        /* \"hopium/etf/main/etf-factory.sol\":1905:1920  uint256 navWeth */\n      0x00\n        /* \"hopium/etf/main/etf-factory.sol\":1923:1946  _getEtfNavWeth(indexId) */\n      tag_192\n        /* \"hopium/etf/main/etf-factory.sol\":1938:1945  indexId */\n      dup4\n        /* \"hopium/etf/main/etf-factory.sol\":1923:1937  _getEtfNavWeth */\n      tag_184\n        /* \"hopium/etf/main/etf-factory.sol\":1923:1946  _getEtfNavWeth(indexId) */\n      jump\t// in\n    tag_192:\n        /* \"hopium/etf/main/etf-factory.sol\":1905:1946  uint256 navWeth = _getEtfNavWeth(indexId) */\n      swap1\n      pop\n        /* \"hopium/etf/main/etf-factory.sol\":1971:1972  0 */\n      0x00\n        /* \"hopium/etf/main/etf-factory.sol\":1960:1967  navWeth */\n      dup2\n        /* \"hopium/etf/main/etf-factory.sol\":1960:1972  navWeth == 0 */\n      sub\n        /* \"hopium/etf/main/etf-factory.sol\":1956:1982  if (navWeth == 0) return 0 */\n      tag_193\n      jumpi\n        /* \"hopium/etf/main/etf-factory.sol\":1981:1982  0 */\n      0x00\n        /* \"hopium/etf/main/etf-factory.sol\":1974:1982  return 0 */\n      swap2\n      pop\n      pop\n      jump(tag_191)\n        /* \"hopium/etf/main/etf-factory.sol\":1956:1982  if (navWeth == 0) return 0 */\n    tag_193:\n        /* \"hopium/etf/main/etf-factory.sol\":1993:2013  uint256 wethUsdPrice */\n      0x00\n        /* \"hopium/etf/main/etf-factory.sol\":2016:2032  getPriceOracle() */\n      tag_194\n        /* \"hopium/etf/main/etf-factory.sol\":2016:2030  getPriceOracle */\n      tag_94\n        /* \"hopium/etf/main/etf-factory.sol\":2016:2032  getPriceOracle() */\n      jump\t// in\n    tag_194:\n        /* \"hopium/etf/main/etf-factory.sol\":2016:2048  getPriceOracle().getWethUsdPrice */\n      0xffffffffffffffffffffffffffffffffffffffff\n      and\n      0x6855e939\n        /* \"hopium/etf/main/etf-factory.sol\":2016:2050  getPriceOracle().getWethUsdPrice() */\n      mload(0x40)\n      dup2\n      0xffffffff\n      and\n      0xe0\n      shl\n      dup2\n      mstore\n      0x04\n      add\n      0x20\n      mload(0x40)\n      dup1\n      dup4\n      sub\n      dup2\n      dup7\n      gas\n      staticcall\n      iszero\n      dup1\n      iszero\n      tag_196\n      jumpi\n      returndatacopy(0x00, 0x00, returndatasize)\n      revert(0x00, returndatasize)\n    tag_196:\n      pop\n      pop\n      pop\n      pop\n      mload(0x40)\n      returndatasize\n      not(0x1f)\n      0x1f\n      dup3\n      add\n      and\n      dup3\n      add\n      dup1\n      0x40\n      mstore\n      pop\n      dup2\n      add\n      swap1\n      tag_197\n      swap2\n      swap1\n      tag_98\n      jump\t// in\n    tag_197:\n        /* \"hopium/etf/main/etf-factory.sol\":1993:2050  uint256 wethUsdPrice = getPriceOracle().getWethUsdPrice() */\n      swap1\n      pop\n        /* \"hopium/etf/main/etf-factory.sol\":2115:2116  0 */\n      0x00\n        /* \"hopium/etf/main/etf-factory.sol\":2100:2112  wethUsdPrice */\n      dup2\n        /* \"hopium/etf/main/etf-factory.sol\":2100:2116  wethUsdPrice > 0 */\n      gt\n        /* \"hopium/etf/main/etf-factory.sol\":2092:2155  require(wethUsdPrice > 0, \"EtfFactory: WETH/USD price is zero\") */\n      tag_198\n      jumpi\n      mload(0x40)\n      0x08c379a000000000000000000000000000000000000000000000000000000000\n      dup2\n      mstore\n      0x04\n      add\n      tag_199\n      swap1\n      tag_101\n      jump\t// in\n    tag_199:\n      mload(0x40)\n      dup1\n      swap2\n      sub\n      swap1\n      revert\n    tag_198:\n        /* \"hopium/etf/main/etf-factory.sol\":2256:2260  1e18 */\n      0x0de0b6b3a7640000\n        /* \"hopium/etf/main/etf-factory.sol\":2240:2252  wethUsdPrice */\n      dup2\n        /* \"hopium/etf/main/etf-factory.sol\":2230:2237  navWeth */\n      dup4\n        /* \"hopium/etf/main/etf-factory.sol\":2230:2252  navWeth * wethUsdPrice */\n      tag_200\n      swap2\n      swap1\n      tag_103\n      jump\t// in\n    tag_200:\n        /* \"hopium/etf/main/etf-factory.sol\":2229:2260  (navWeth * wethUsdPrice) / 1e18 */\n      tag_201\n      swap2\n      swap1\n      tag_105\n      jump\t// in\n    tag_201:\n        /* \"hopium/etf/main/etf-factory.sol\":2220:2260  navUsd = (navWeth * wethUsdPrice) / 1e18 */\n      swap3\n      pop\n        /* \"hopium/etf/main/etf-factory.sol\":1895:2267  {... */\n      pop\n      pop\n        /* \"hopium/etf/main/etf-factory.sol\":1816:2267  function _getEtfNavUsd(uint256 indexId) internal view returns (uint256 navUsd) {... */\n    tag_191:\n      swap2\n      swap1\n      pop\n      jump\t// out\n        /* \"hopium/common/interface/imDirectory.sol\":589:1050  function _setDirectory(address _directory) internal {... */\n    tag_144:\n        /* \"hopium/common/interface/imDirectory.sol\":681:682  0 */\n      0x00\n        /* \"hopium/common/interface/imDirectory.sol\":659:683  _directory != address(0) */\n      0xffffffffffffffffffffffffffffffffffffffff\n      and\n        /* \"hopium/common/interface/imDirectory.sol\":659:669  _directory */\n      dup2\n        /* \"hopium/common/interface/imDirectory.sol\":659:683  _directory != address(0) */\n      0xffffffffffffffffffffffffffffffffffffffff\n      and\n      sub\n        /* \"hopium/common/interface/imDirectory.sol\":651:720  require(_directory != address(0), \"Directory cannot be zero address\") */\n      tag_203\n      jumpi\n      mload(0x40)\n      0x08c379a000000000000000000000000000000000000000000000000000000000\n      dup2\n      mstore\n      0x04\n      add\n      tag_204\n      swap1\n      tag_205\n      jump\t// in\n    tag_204:\n      mload(0x40)\n      dup1\n      swap2\n      sub\n      swap1\n      revert\n    tag_203:\n        /* \"hopium/common/interface/imDirectory.sol\":763:764  0 */\n      0x00\n        /* \"hopium/common/interface/imDirectory.sol\":738:748  _directory */\n      dup2\n        /* \"hopium/common/interface/imDirectory.sol\":738:760  _directory.code.length */\n      0xffffffffffffffffffffffffffffffffffffffff\n      and\n      extcodesize\n        /* \"hopium/common/interface/imDirectory.sol\":738:764  _directory.code.length > 0 */\n      gt\n        /* \"hopium/common/interface/imDirectory.sol\":730:797  require(_directory.code.length > 0, \"Directory must be a contract\") */\n      tag_206\n      jumpi\n      mload(0x40)\n      0x08c379a000000000000000000000000000000000000000000000000000000000\n      dup2\n      mstore\n      0x04\n      add\n      tag_207\n      swap1\n      tag_208\n      jump\t// in\n    tag_207:\n      mload(0x40)\n      dup1\n      swap2\n      sub\n      swap1\n      revert\n    tag_206:\n        /* \"hopium/common/interface/imDirectory.sol\":861:871  _directory */\n      dup1\n        /* \"hopium/common/interface/imDirectory.sol\":850:878  IDirectory(_directory).owner */\n      0xffffffffffffffffffffffffffffffffffffffff\n      and\n      0x8da5cb5b\n        /* \"hopium/common/interface/imDirectory.sol\":850:880  IDirectory(_directory).owner() */\n      mload(0x40)\n      dup2\n      0xffffffff\n      and\n      0xe0\n      shl\n      dup2\n      mstore\n      0x04\n      add\n      0x20\n      mload(0x40)\n      dup1\n      dup4\n      sub\n      dup2\n      dup7\n      gas\n      staticcall\n      swap3\n      pop\n      pop\n      pop\n      dup1\n      iszero\n      tag_209\n      jumpi\n      pop\n      mload(0x40)\n      returndatasize\n      not(0x1f)\n      0x1f\n      dup3\n      add\n      and\n      dup3\n      add\n      dup1\n      0x40\n      mstore\n      pop\n      dup2\n      add\n      swap1\n      tag_210\n      swap2\n      swap1\n      tag_115\n      jump\t// in\n    tag_210:\n      0x01\n    tag_209:\n        /* \"hopium/common/interface/imDirectory.sol\":846:1044  try IDirectory(_directory).owner() returns (address) {... */\n      tag_211\n      jumpi\n        /* \"hopium/common/interface/imDirectory.sol\":979:1033  revert(\"Directory address does not implement owner()\") */\n      mload(0x40)\n      0x08c379a000000000000000000000000000000000000000000000000000000000\n      dup2\n      mstore\n      0x04\n      add\n      tag_215\n      swap1\n      tag_216\n      jump\t// in\n    tag_215:\n      mload(0x40)\n      dup1\n      swap2\n      sub\n      swap1\n      revert\n        /* \"hopium/common/interface/imDirectory.sol\":846:1044  try IDirectory(_directory).owner() returns (address) {... */\n    tag_211:\n        /* \"hopium/common/interface/imDirectory.sol\":936:946  _directory */\n      dup2\n        /* \"hopium/common/interface/imDirectory.sol\":913:922  Directory */\n      0x00\n      0x00\n        /* \"hopium/common/interface/imDirectory.sol\":913:947  Directory = IDirectory(_directory) */\n      0x0100\n      exp\n      dup2\n      sload\n      dup2\n      0xffffffffffffffffffffffffffffffffffffffff\n      mul\n      not\n      and\n      swap1\n      dup4\n      0xffffffffffffffffffffffffffffffffffffffff\n      and\n      mul\n      or\n      swap1\n      sstore\n      pop\n        /* \"hopium/common/interface/imDirectory.sol\":881:958  returns (address) {... */\n      pop\n        /* \"hopium/common/interface/imDirectory.sol\":589:1050  function _setDirectory(address _directory) internal {... */\n      pop\n      jump\t// out\n        /* \"hopium/etf/interface/imIndexFactory.sol\":387:534  function getIndexFactory() internal view virtual returns (IIndexFactory) {... */\n    tag_157:\n        /* \"hopium/etf/interface/imIndexFactory.sol\":445:458  IIndexFactory */\n      0x00\n        /* \"hopium/etf/interface/imIndexFactory.sol\":491:526  fetchFromDirectory(\"index-factory\") */\n      tag_219\n      mload(0x40)\n      dup1\n      0x40\n      add\n      0x40\n      mstore\n      dup1\n      0x0d\n      dup2\n      mstore\n      0x20\n      add\n      0x696e6465782d666163746f727900000000000000000000000000000000000000\n      dup2\n      mstore\n      pop\n        /* \"hopium/etf/interface/imIndexFactory.sol\":491:509  fetchFromDirectory */\n      tag_32\n        /* \"hopium/etf/interface/imIndexFactory.sol\":491:526  fetchFromDirectory(\"index-factory\") */\n      jump\t// in\n    tag_219:\n        /* \"hopium/etf/interface/imIndexFactory.sol\":470:527  return IIndexFactory(fetchFromDirectory(\"index-factory\")) */\n      swap1\n      pop\n        /* \"hopium/etf/interface/imIndexFactory.sol\":387:534  function getIndexFactory() internal view virtual returns (IIndexFactory) {... */\n      swap1\n      jump\t// out\n        /* \"hopium/etf/interface/imEtfTokenDeployer.sol\":319:483  function getEtfTokenDeployer() internal view virtual returns (IEtfTokenDeployer) {... */\n    tag_164:\n        /* \"hopium/etf/interface/imEtfTokenDeployer.sol\":381:398  IEtfTokenDeployer */\n      0x00\n        /* \"hopium/etf/interface/imEtfTokenDeployer.sol\":435:475  fetchFromDirectory(\"etf-token-deployer\") */\n      tag_221\n      mload(0x40)\n      dup1\n      0x40\n      add\n      0x40\n      mstore\n      dup1\n      0x12\n      dup2\n      mstore\n      0x20\n      add\n      0x6574662d746f6b656e2d6465706c6f7965720000000000000000000000000000\n      dup2\n      mstore\n      pop\n        /* \"hopium/etf/interface/imEtfTokenDeployer.sol\":435:453  fetchFromDirectory */\n      tag_32\n        /* \"hopium/etf/interface/imEtfTokenDeployer.sol\":435:475  fetchFromDirectory(\"etf-token-deployer\") */\n      jump\t// in\n    tag_221:\n        /* \"hopium/etf/interface/imEtfTokenDeployer.sol\":410:476  return IEtfTokenDeployer(fetchFromDirectory(\"etf-token-deployer\")) */\n      swap1\n      pop\n        /* \"hopium/etf/interface/imEtfTokenDeployer.sol\":319:483  function getEtfTokenDeployer() internal view virtual returns (IEtfTokenDeployer) {... */\n      swap1\n      jump\t// out\n        /* \"hopium/etf/interface/imEtfVaultDeployer.sol\":272:436  function getEtfVaultDeployer() internal view virtual returns (IEtfVaultDeployer) {... */\n    tag_174:\n        /* \"hopium/etf/interface/imEtfVaultDeployer.sol\":334:351  IEtfVaultDeployer */\n      0x00\n        /* \"hopium/etf/interface/imEtfVaultDeployer.sol\":388:428  fetchFromDirectory(\"etf-vault-deployer\") */\n      tag_223\n      mload(0x40)\n      dup1\n      0x40\n      add\n      0x40\n      mstore\n      dup1\n      0x12\n      dup2\n      mstore\n      0x20\n      add\n      0x6574662d7661756c742d6465706c6f7965720000000000000000000000000000\n      dup2\n      mstore\n      pop\n        /* \"hopium/etf/interface/imEtfVaultDeployer.sol\":388:406  fetchFromDirectory */\n      tag_32\n        /* \"hopium/etf/interface/imEtfVaultDeployer.sol\":388:428  fetchFromDirectory(\"etf-vault-deployer\") */\n      jump\t// in\n    tag_223:\n        /* \"hopium/etf/interface/imEtfVaultDeployer.sol\":363:429  return IEtfVaultDeployer(fetchFromDirectory(\"etf-vault-deployer\")) */\n      swap1\n      pop\n        /* \"hopium/etf/interface/imEtfVaultDeployer.sol\":272:436  function getEtfVaultDeployer() internal view virtual returns (IEtfVaultDeployer) {... */\n      swap1\n      jump\t// out\n        /* \"hopium/etf/main/etf-factory.sol\":1234:1810  function _getEtfNavWeth(uint256 indexId) internal view returns (uint256 nav) {... */\n    tag_184:\n        /* \"hopium/etf/main/etf-factory.sol\":1298:1309  uint256 nav */\n      0x00\n        /* \"hopium/etf/main/etf-factory.sol\":1321:1339  Index memory index */\n      0x00\n        /* \"hopium/etf/main/etf-factory.sol\":1342:1359  getIndexFactory() */\n      tag_225\n        /* \"hopium/etf/main/etf-factory.sol\":1342:1357  getIndexFactory */\n      tag_157\n        /* \"hopium/etf/main/etf-factory.sol\":1342:1359  getIndexFactory() */\n      jump\t// in\n    tag_225:\n        /* \"hopium/etf/main/etf-factory.sol\":1342:1372  getIndexFactory().getIndexById */\n      0xffffffffffffffffffffffffffffffffffffffff\n      and\n      0x549e122b\n        /* \"hopium/etf/main/etf-factory.sol\":1373:1380  indexId */\n      dup5\n        /* \"hopium/etf/main/etf-factory.sol\":1342:1381  getIndexFactory().getIndexById(indexId) */\n      mload(0x40)\n      dup3\n      0xffffffff\n      and\n      0xe0\n      shl\n      dup2\n      mstore\n      0x04\n      add\n      tag_226\n      swap2\n      swap1\n      tag_44\n      jump\t// in\n    tag_226:\n      0x00\n      mload(0x40)\n      dup1\n      dup4\n      sub\n      dup2\n      dup7\n      gas\n      staticcall\n      iszero\n      dup1\n      iszero\n      tag_228\n      jumpi\n      returndatacopy(0x00, 0x00, returndatasize)\n      revert(0x00, returndatasize)\n    tag_228:\n      pop\n      pop\n      pop\n      pop\n      mload(0x40)\n      returndatasize\n      0x00\n      dup3\n      returndatacopy\n      returndatasize\n      not(0x1f)\n      0x1f\n      dup3\n      add\n      and\n      dup3\n      add\n      dup1\n      0x40\n      mstore\n      pop\n      dup2\n      add\n      swap1\n      tag_229\n      swap2\n      swap1\n      tag_230\n      jump\t// in\n    tag_229:\n        /* \"hopium/etf/main/etf-factory.sol\":1321:1381  Index memory index = getIndexFactory().getIndexById(indexId) */\n      swap1\n      pop\n        /* \"hopium/etf/main/etf-factory.sol\":1391:1411  address vaultAddress */\n      0x00\n        /* \"hopium/etf/main/etf-factory.sol\":1414:1442  _getEtfVaultAddress(indexId) */\n      tag_231\n        /* \"hopium/etf/main/etf-factory.sol\":1434:1441  indexId */\n      dup5\n        /* \"hopium/etf/main/etf-factory.sol\":1414:1433  _getEtfVaultAddress */\n      tag_118\n        /* \"hopium/etf/main/etf-factory.sol\":1414:1442  _getEtfVaultAddress(indexId) */\n      jump\t// in\n    tag_231:\n        /* \"hopium/etf/main/etf-factory.sol\":1391:1442  address vaultAddress = _getEtfVaultAddress(indexId) */\n      swap1\n      pop\n        /* \"hopium/etf/main/etf-factory.sol\":1458:1467  uint256 i */\n      0x00\n        /* \"hopium/etf/main/etf-factory.sol\":1470:1471  0 */\n      0x00\n        /* \"hopium/etf/main/etf-factory.sol\":1458:1471  uint256 i = 0 */\n      swap1\n      pop\n        /* \"hopium/etf/main/etf-factory.sol\":1453:1804  for (uint256 i = 0; i < index.holdings.length; i++) {... */\n    tag_232:\n        /* \"hopium/etf/main/etf-factory.sol\":1477:1482  index */\n      dup3\n        /* \"hopium/etf/main/etf-factory.sol\":1477:1491  index.holdings */\n      0x40\n      add\n      mload\n        /* \"hopium/etf/main/etf-factory.sol\":1477:1498  index.holdings.length */\n      mload\n        /* \"hopium/etf/main/etf-factory.sol\":1473:1474  i */\n      dup2\n        /* \"hopium/etf/main/etf-factory.sol\":1473:1498  i < index.holdings.length */\n      lt\n        /* \"hopium/etf/main/etf-factory.sol\":1453:1804  for (uint256 i = 0; i < index.holdings.length; i++) {... */\n      iszero\n      tag_233\n      jumpi\n        /* \"hopium/etf/main/etf-factory.sol\":1519:1532  address token */\n      0x00\n        /* \"hopium/etf/main/etf-factory.sol\":1535:1540  index */\n      dup4\n        /* \"hopium/etf/main/etf-factory.sol\":1535:1549  index.holdings */\n      0x40\n      add\n      mload\n        /* \"hopium/etf/main/etf-factory.sol\":1550:1551  i */\n      dup3\n        /* \"hopium/etf/main/etf-factory.sol\":1535:1552  index.holdings[i] */\n      dup2\n      mload\n      dup2\n      lt\n      tag_235\n      jumpi\n      tag_236\n      tag_237\n      jump\t// in\n    tag_236:\n    tag_235:\n      0x20\n      mul\n      0x20\n      add\n      add\n      mload\n        /* \"hopium/etf/main/etf-factory.sol\":1535:1565  index.holdings[i].tokenAddress */\n      0x00\n      add\n      mload\n        /* \"hopium/etf/main/etf-factory.sol\":1519:1565  address token = index.holdings[i].tokenAddress */\n      swap1\n      pop\n        /* \"hopium/etf/main/etf-factory.sol\":1579:1594  uint256 balance */\n      0x00\n        /* \"hopium/etf/main/etf-factory.sol\":1604:1609  token */\n      dup2\n        /* \"hopium/etf/main/etf-factory.sol\":1597:1620  IERC20(token).balanceOf */\n      0xffffffffffffffffffffffffffffffffffffffff\n      and\n      0x70a08231\n        /* \"hopium/etf/main/etf-factory.sol\":1621:1633  vaultAddress */\n      dup6\n        /* \"hopium/etf/main/etf-factory.sol\":1597:1634  IERC20(token).balanceOf(vaultAddress) */\n      mload(0x40)\n      dup3\n      0xffffffff\n      and\n      0xe0\n      shl\n      dup2\n      mstore\n      0x04\n      add\n      tag_238\n      swap2\n      swap1\n      tag_34\n      jump\t// in\n    tag_238:\n      0x20\n      mload(0x40)\n      dup1\n      dup4\n      sub\n      dup2\n      dup7\n      gas\n      staticcall\n      iszero\n      dup1\n      iszero\n      tag_240\n      jumpi\n      returndatacopy(0x00, 0x00, returndatasize)\n      revert(0x00, returndatasize)\n    tag_240:\n      pop\n      pop\n      pop\n      pop\n      mload(0x40)\n      returndatasize\n      not(0x1f)\n      0x1f\n      dup3\n      add\n      and\n      dup3\n      add\n      dup1\n      0x40\n      mstore\n      pop\n      dup2\n      add\n      swap1\n      tag_241\n      swap2\n      swap1\n      tag_98\n      jump\t// in\n    tag_241:\n        /* \"hopium/etf/main/etf-factory.sol\":1579:1634  uint256 balance = IERC20(token).balanceOf(vaultAddress) */\n      swap1\n      pop\n        /* \"hopium/etf/main/etf-factory.sol\":1663:1664  0 */\n      0x00\n        /* \"hopium/etf/main/etf-factory.sol\":1652:1659  balance */\n      dup2\n        /* \"hopium/etf/main/etf-factory.sol\":1652:1664  balance == 0 */\n      sub\n        /* \"hopium/etf/main/etf-factory.sol\":1648:1674  if (balance == 0) continue */\n      tag_242\n      jumpi\n        /* \"hopium/etf/main/etf-factory.sol\":1666:1674  continue */\n      pop\n      pop\n      jump(tag_234)\n        /* \"hopium/etf/main/etf-factory.sol\":1648:1674  if (balance == 0) continue */\n    tag_242:\n        /* \"hopium/etf/main/etf-factory.sol\":1689:1699  uint256 px */\n      0x00\n        /* \"hopium/etf/main/etf-factory.sol\":1702:1718  getPriceOracle() */\n      tag_243\n        /* \"hopium/etf/main/etf-factory.sol\":1702:1716  getPriceOracle */\n      tag_94\n        /* \"hopium/etf/main/etf-factory.sol\":1702:1718  getPriceOracle() */\n      jump\t// in\n    tag_243:\n        /* \"hopium/etf/main/etf-factory.sol\":1702:1736  getPriceOracle().getTokenWethPrice */\n      0xffffffffffffffffffffffffffffffffffffffff\n      and\n      0x7b49b49d\n        /* \"hopium/etf/main/etf-factory.sol\":1737:1742  token */\n      dup5\n        /* \"hopium/etf/main/etf-factory.sol\":1702:1743  getPriceOracle().getTokenWethPrice(token) */\n      mload(0x40)\n      dup3\n      0xffffffff\n      and\n      0xe0\n      shl\n      dup2\n      mstore\n      0x04\n      add\n      tag_244\n      swap2\n      swap1\n      tag_34\n      jump\t// in\n    tag_244:\n      0x20\n      mload(0x40)\n      dup1\n      dup4\n      sub\n      dup2\n      dup7\n      gas\n      staticcall\n      iszero\n      dup1\n      iszero\n      tag_246\n      jumpi\n      returndatacopy(0x00, 0x00, returndatasize)\n      revert(0x00, returndatasize)\n    tag_246:\n      pop\n      pop\n      pop\n      pop\n      mload(0x40)\n      returndatasize\n      not(0x1f)\n      0x1f\n      dup3\n      add\n      and\n      dup3\n      add\n      dup1\n      0x40\n      mstore\n      pop\n      dup2\n      add\n      swap1\n      tag_247\n      swap2\n      swap1\n      tag_98\n      jump\t// in\n    tag_247:\n        /* \"hopium/etf/main/etf-factory.sol\":1689:1743  uint256 px = getPriceOracle().getTokenWethPrice(token) */\n      swap1\n      pop\n        /* \"hopium/etf/main/etf-factory.sol\":1789:1793  1e18 */\n      0x0de0b6b3a7640000\n        /* \"hopium/etf/main/etf-factory.sol\":1783:1785  px */\n      dup2\n        /* \"hopium/etf/main/etf-factory.sol\":1773:1780  balance */\n      dup4\n        /* \"hopium/etf/main/etf-factory.sol\":1773:1785  balance * px */\n      tag_248\n      swap2\n      swap1\n      tag_103\n      jump\t// in\n    tag_248:\n        /* \"hopium/etf/main/etf-factory.sol\":1772:1793  (balance * px) / 1e18 */\n      tag_249\n      swap2\n      swap1\n      tag_105\n      jump\t// in\n    tag_249:\n        /* \"hopium/etf/main/etf-factory.sol\":1765:1793  nav += (balance * px) / 1e18 */\n      dup8\n      tag_250\n      swap2\n      swap1\n      tag_107\n      jump\t// in\n    tag_250:\n      swap7\n      pop\n        /* \"hopium/etf/main/etf-factory.sol\":1505:1804  {... */\n      pop\n      pop\n      pop\n        /* \"hopium/etf/main/etf-factory.sol\":1453:1804  for (uint256 i = 0; i < index.holdings.length; i++) {... */\n    tag_234:\n        /* \"hopium/etf/main/etf-factory.sol\":1500:1503  i++ */\n      dup1\n      dup1\n      0x01\n      add\n      swap2\n      pop\n      pop\n        /* \"hopium/etf/main/etf-factory.sol\":1453:1804  for (uint256 i = 0; i < index.holdings.length; i++) {... */\n      jump(tag_232)\n    tag_233:\n      pop\n        /* \"hopium/etf/main/etf-factory.sol\":1311:1810  {... */\n      pop\n      pop\n        /* \"hopium/etf/main/etf-factory.sol\":1234:1810  function _getEtfNavWeth(uint256 indexId) internal view returns (uint256 nav) {... */\n      swap2\n      swap1\n      pop\n      jump\t// out\n        /* \"hopium/etf/main/etf-factory.sol\":952:1087  function _getEtfTokenAddress(uint256 indexId) internal view returns (address) {... */\n    tag_187:\n        /* \"hopium/etf/main/etf-factory.sol\":1021:1028  address */\n      0x00\n        /* \"hopium/etf/main/etf-factory.sol\":1047:1071  indexIdToEtfTokenAddress */\n      0x01\n        /* \"hopium/etf/main/etf-factory.sol\":1047:1080  indexIdToEtfTokenAddress[indexId] */\n      0x00\n        /* \"hopium/etf/main/etf-factory.sol\":1072:1079  indexId */\n      dup4\n        /* \"hopium/etf/main/etf-factory.sol\":1047:1080  indexIdToEtfTokenAddress[indexId] */\n      dup2\n      mstore\n      0x20\n      add\n      swap1\n      dup2\n      mstore\n      0x20\n      add\n      0x00\n      keccak256\n      0x00\n      swap1\n      sload\n      swap1\n      0x0100\n      exp\n      swap1\n      div\n      0xffffffffffffffffffffffffffffffffffffffff\n      and\n        /* \"hopium/etf/main/etf-factory.sol\":1040:1080  return indexIdToEtfTokenAddress[indexId] */\n      swap1\n      pop\n        /* \"hopium/etf/main/etf-factory.sol\":952:1087  function _getEtfTokenAddress(uint256 indexId) internal view returns (address) {... */\n      swap2\n      swap1\n      pop\n      jump\t// out\n        /* \"#utility.yul\":7:82   */\n    tag_252:\n        /* \"#utility.yul\":40:46   */\n      0x00\n        /* \"#utility.yul\":73:75   */\n      0x40\n        /* \"#utility.yul\":67:76   */\n      mload\n        /* \"#utility.yul\":57:76   */\n      swap1\n      pop\n        /* \"#utility.yul\":7:82   */\n      swap1\n      jump\t// out\n        /* \"#utility.yul\":88:205   */\n    tag_253:\n        /* \"#utility.yul\":197:198   */\n      0x00\n        /* \"#utility.yul\":194:195   */\n      0x00\n        /* \"#utility.yul\":187:199   */\n      revert\n        /* \"#utility.yul\":211:328   */\n    tag_254:\n        /* \"#utility.yul\":320:321   */\n      0x00\n        /* \"#utility.yul\":317:318   */\n      0x00\n        /* \"#utility.yul\":310:322   */\n      revert\n        /* \"#utility.yul\":334:411   */\n    tag_255:\n        /* \"#utility.yul\":371:378   */\n      0x00\n        /* \"#utility.yul\":400:405   */\n      dup2\n        /* \"#utility.yul\":389:405   */\n      swap1\n      pop\n        /* \"#utility.yul\":334:411   */\n      swap2\n      swap1\n      pop\n      jump\t// out\n        /* \"#utility.yul\":417:539   */\n    tag_256:\n        /* \"#utility.yul\":490:514   */\n      tag_352\n        /* \"#utility.yul\":508:513   */\n      dup2\n        /* \"#utility.yul\":490:514   */\n      tag_255\n      jump\t// in\n    tag_352:\n        /* \"#utility.yul\":483:488   */\n      dup2\n        /* \"#utility.yul\":480:515   */\n      eq\n        /* \"#utility.yul\":470:533   */\n      tag_353\n      jumpi\n        /* \"#utility.yul\":529:530   */\n      0x00\n        /* \"#utility.yul\":526:527   */\n      0x00\n        /* \"#utility.yul\":519:531   */\n      revert\n        /* \"#utility.yul\":470:533   */\n    tag_353:\n        /* \"#utility.yul\":417:539   */\n      pop\n      jump\t// out\n        /* \"#utility.yul\":545:684   */\n    tag_257:\n        /* \"#utility.yul\":591:596   */\n      0x00\n        /* \"#utility.yul\":629:635   */\n      dup2\n        /* \"#utility.yul\":616:636   */\n      calldataload\n        /* \"#utility.yul\":607:636   */\n      swap1\n      pop\n        /* \"#utility.yul\":645:678   */\n      tag_355\n        /* \"#utility.yul\":672:677   */\n      dup2\n        /* \"#utility.yul\":645:678   */\n      tag_256\n      jump\t// in\n    tag_355:\n        /* \"#utility.yul\":545:684   */\n      swap3\n      swap2\n      pop\n      pop\n      jump\t// out\n        /* \"#utility.yul\":690:1164   */\n    tag_23:\n        /* \"#utility.yul\":758:764   */\n      0x00\n        /* \"#utility.yul\":766:772   */\n      0x00\n        /* \"#utility.yul\":815:817   */\n      0x40\n        /* \"#utility.yul\":803:812   */\n      dup4\n        /* \"#utility.yul\":794:801   */\n      dup6\n        /* \"#utility.yul\":790:813   */\n      sub\n        /* \"#utility.yul\":786:818   */\n      slt\n        /* \"#utility.yul\":783:902   */\n      iszero\n      tag_357\n      jumpi\n        /* \"#utility.yul\":821:900   */\n      tag_358\n      tag_253\n      jump\t// in\n    tag_358:\n        /* \"#utility.yul\":783:902   */\n    tag_357:\n        /* \"#utility.yul\":941:942   */\n      0x00\n        /* \"#utility.yul\":966:1019   */\n      tag_359\n        /* \"#utility.yul\":1011:1018   */\n      dup6\n        /* \"#utility.yul\":1002:1008   */\n      dup3\n        /* \"#utility.yul\":991:1000   */\n      dup7\n        /* \"#utility.yul\":987:1009   */\n      add\n        /* \"#utility.yul\":966:1019   */\n      tag_257\n      jump\t// in\n    tag_359:\n        /* \"#utility.yul\":956:1019   */\n      swap3\n      pop\n        /* \"#utility.yul\":912:1029   */\n      pop\n        /* \"#utility.yul\":1068:1070   */\n      0x20\n        /* \"#utility.yul\":1094:1147   */\n      tag_360\n        /* \"#utility.yul\":1139:1146   */\n      dup6\n        /* \"#utility.yul\":1130:1136   */\n      dup3\n        /* \"#utility.yul\":1119:1128   */\n      dup7\n        /* \"#utility.yul\":1115:1137   */\n      add\n        /* \"#utility.yul\":1094:1147   */\n      tag_257\n      jump\t// in\n    tag_360:\n        /* \"#utility.yul\":1084:1147   */\n      swap2\n      pop\n        /* \"#utility.yul\":1039:1157   */\n      pop\n        /* \"#utility.yul\":690:1164   */\n      swap3\n      pop\n      swap3\n      swap1\n      pop\n      jump\t// out\n        /* \"#utility.yul\":1170:1260   */\n    tag_258:\n        /* \"#utility.yul\":1204:1211   */\n      0x00\n        /* \"#utility.yul\":1247:1252   */\n      dup2\n        /* \"#utility.yul\":1240:1253   */\n      iszero\n        /* \"#utility.yul\":1233:1254   */\n      iszero\n        /* \"#utility.yul\":1222:1254   */\n      swap1\n      pop\n        /* \"#utility.yul\":1170:1260   */\n      swap2\n      swap1\n      pop\n      jump\t// out\n        /* \"#utility.yul\":1266:1375   */\n    tag_259:\n        /* \"#utility.yul\":1347:1368   */\n      tag_363\n        /* \"#utility.yul\":1362:1367   */\n      dup2\n        /* \"#utility.yul\":1347:1368   */\n      tag_258\n      jump\t// in\n    tag_363:\n        /* \"#utility.yul\":1342:1345   */\n      dup3\n        /* \"#utility.yul\":1335:1369   */\n      mstore\n        /* \"#utility.yul\":1266:1375   */\n      pop\n      pop\n      jump\t// out\n        /* \"#utility.yul\":1381:1591   */\n    tag_28:\n        /* \"#utility.yul\":1468:1472   */\n      0x00\n        /* \"#utility.yul\":1506:1508   */\n      0x20\n        /* \"#utility.yul\":1495:1504   */\n      dup3\n        /* \"#utility.yul\":1491:1509   */\n      add\n        /* \"#utility.yul\":1483:1509   */\n      swap1\n      pop\n        /* \"#utility.yul\":1519:1584   */\n      tag_365\n        /* \"#utility.yul\":1581:1582   */\n      0x00\n        /* \"#utility.yul\":1570:1579   */\n      dup4\n        /* \"#utility.yul\":1566:1583   */\n      add\n        /* \"#utility.yul\":1557:1563   */\n      dup5\n        /* \"#utility.yul\":1519:1584   */\n      tag_259\n      jump\t// in\n    tag_365:\n        /* \"#utility.yul\":1381:1591   */\n      swap3\n      swap2\n      pop\n      pop\n      jump\t// out\n        /* \"#utility.yul\":1597:1714   */\n    tag_260:\n        /* \"#utility.yul\":1706:1707   */\n      0x00\n        /* \"#utility.yul\":1703:1704   */\n      0x00\n        /* \"#utility.yul\":1696:1708   */\n      revert\n        /* \"#utility.yul\":1720:1837   */\n    tag_261:\n        /* \"#utility.yul\":1829:1830   */\n      0x00\n        /* \"#utility.yul\":1826:1827   */\n      0x00\n        /* \"#utility.yul\":1819:1831   */\n      revert\n        /* \"#utility.yul\":1843:1945   */\n    tag_262:\n        /* \"#utility.yul\":1884:1890   */\n      0x00\n        /* \"#utility.yul\":1935:1937   */\n      0x1f\n        /* \"#utility.yul\":1931:1938   */\n      not\n        /* \"#utility.yul\":1926:1928   */\n      0x1f\n        /* \"#utility.yul\":1919:1924   */\n      dup4\n        /* \"#utility.yul\":1915:1929   */\n      add\n        /* \"#utility.yul\":1911:1939   */\n      and\n        /* \"#utility.yul\":1901:1939   */\n      swap1\n      pop\n        /* \"#utility.yul\":1843:1945   */\n      swap2\n      swap1\n      pop\n      jump\t// out\n        /* \"#utility.yul\":1951:2131   */\n    tag_263:\n        /* \"#utility.yul\":1999:2076   */\n      0x4e487b7100000000000000000000000000000000000000000000000000000000\n        /* \"#utility.yul\":1996:1997   */\n      0x00\n        /* \"#utility.yul\":1989:2077   */\n      mstore\n        /* \"#utility.yul\":2096:2100   */\n      0x41\n        /* \"#utility.yul\":2093:2094   */\n      0x04\n        /* \"#utility.yul\":2086:2101   */\n      mstore\n        /* \"#utility.yul\":2120:2124   */\n      0x24\n        /* \"#utility.yul\":2117:2118   */\n      0x00\n        /* \"#utility.yul\":2110:2125   */\n      revert\n        /* \"#utility.yul\":2137:2418   */\n    tag_264:\n        /* \"#utility.yul\":2220:2247   */\n      tag_371\n        /* \"#utility.yul\":2242:2246   */\n      dup3\n        /* \"#utility.yul\":2220:2247   */\n      tag_262\n      jump\t// in\n    tag_371:\n        /* \"#utility.yul\":2212:2218   */\n      dup2\n        /* \"#utility.yul\":2208:2248   */\n      add\n        /* \"#utility.yul\":2350:2356   */\n      dup2\n        /* \"#utility.yul\":2338:2348   */\n      dup2\n        /* \"#utility.yul\":2335:2357   */\n      lt\n        /* \"#utility.yul\":2314:2332   */\n      0xffffffffffffffff\n        /* \"#utility.yul\":2302:2312   */\n      dup3\n        /* \"#utility.yul\":2299:2333   */\n      gt\n        /* \"#utility.yul\":2296:2358   */\n      or\n        /* \"#utility.yul\":2293:2381   */\n      iszero\n      tag_372\n      jumpi\n        /* \"#utility.yul\":2361:2379   */\n      tag_373\n      tag_263\n      jump\t// in\n    tag_373:\n        /* \"#utility.yul\":2293:2381   */\n    tag_372:\n        /* \"#utility.yul\":2401:2411   */\n      dup1\n        /* \"#utility.yul\":2397:2399   */\n      0x40\n        /* \"#utility.yul\":2390:2412   */\n      mstore\n        /* \"#utility.yul\":2180:2418   */\n      pop\n        /* \"#utility.yul\":2137:2418   */\n      pop\n      pop\n      jump\t// out\n        /* \"#utility.yul\":2424:2553   */\n    tag_265:\n        /* \"#utility.yul\":2458:2464   */\n      0x00\n        /* \"#utility.yul\":2485:2505   */\n      tag_375\n      tag_252\n      jump\t// in\n    tag_375:\n        /* \"#utility.yul\":2475:2505   */\n      swap1\n      pop\n        /* \"#utility.yul\":2514:2547   */\n      tag_376\n        /* \"#utility.yul\":2542:2546   */\n      dup3\n        /* \"#utility.yul\":2534:2540   */\n      dup3\n        /* \"#utility.yul\":2514:2547   */\n      tag_264\n      jump\t// in\n    tag_376:\n        /* \"#utility.yul\":2424:2553   */\n      swap2\n      swap1\n      pop\n      jump\t// out\n        /* \"#utility.yul\":2559:2867   */\n    tag_266:\n        /* \"#utility.yul\":2621:2625   */\n      0x00\n        /* \"#utility.yul\":2711:2729   */\n      0xffffffffffffffff\n        /* \"#utility.yul\":2703:2709   */\n      dup3\n        /* \"#utility.yul\":2700:2730   */\n      gt\n        /* \"#utility.yul\":2697:2753   */\n      iszero\n      tag_378\n      jumpi\n        /* \"#utility.yul\":2733:2751   */\n      tag_379\n      tag_263\n      jump\t// in\n    tag_379:\n        /* \"#utility.yul\":2697:2753   */\n    tag_378:\n        /* \"#utility.yul\":2771:2800   */\n      tag_380\n        /* \"#utility.yul\":2793:2799   */\n      dup3\n        /* \"#utility.yul\":2771:2800   */\n      tag_262\n      jump\t// in\n    tag_380:\n        /* \"#utility.yul\":2763:2800   */\n      swap1\n      pop\n        /* \"#utility.yul\":2855:2859   */\n      0x20\n        /* \"#utility.yul\":2849:2853   */\n      dup2\n        /* \"#utility.yul\":2845:2860   */\n      add\n        /* \"#utility.yul\":2837:2860   */\n      swap1\n      pop\n        /* \"#utility.yul\":2559:2867   */\n      swap2\n      swap1\n      pop\n      jump\t// out\n        /* \"#utility.yul\":2873:3021   */\n    tag_267:\n        /* \"#utility.yul\":2971:2977   */\n      dup3\n        /* \"#utility.yul\":2966:2969   */\n      dup2\n        /* \"#utility.yul\":2961:2964   */\n      dup4\n        /* \"#utility.yul\":2948:2978   */\n      calldatacopy\n        /* \"#utility.yul\":3012:3013   */\n      0x00\n        /* \"#utility.yul\":3003:3009   */\n      dup4\n        /* \"#utility.yul\":2998:3001   */\n      dup4\n        /* \"#utility.yul\":2994:3010   */\n      add\n        /* \"#utility.yul\":2987:3014   */\n      mstore\n        /* \"#utility.yul\":2873:3021   */\n      pop\n      pop\n      pop\n      jump\t// out\n        /* \"#utility.yul\":3027:3452   */\n    tag_268:\n        /* \"#utility.yul\":3105:3110   */\n      0x00\n        /* \"#utility.yul\":3130:3196   */\n      tag_383\n        /* \"#utility.yul\":3146:3195   */\n      tag_384\n        /* \"#utility.yul\":3188:3194   */\n      dup5\n        /* \"#utility.yul\":3146:3195   */\n      tag_266\n      jump\t// in\n    tag_384:\n        /* \"#utility.yul\":3130:3196   */\n      tag_265\n      jump\t// in\n    tag_383:\n        /* \"#utility.yul\":3121:3196   */\n      swap1\n      pop\n        /* \"#utility.yul\":3219:3225   */\n      dup3\n        /* \"#utility.yul\":3212:3217   */\n      dup2\n        /* \"#utility.yul\":3205:3226   */\n      mstore\n        /* \"#utility.yul\":3257:3261   */\n      0x20\n        /* \"#utility.yul\":3250:3255   */\n      dup2\n        /* \"#utility.yul\":3246:3262   */\n      add\n        /* \"#utility.yul\":3295:3298   */\n      dup5\n        /* \"#utility.yul\":3286:3292   */\n      dup5\n        /* \"#utility.yul\":3281:3284   */\n      dup5\n        /* \"#utility.yul\":3277:3293   */\n      add\n        /* \"#utility.yul\":3274:3299   */\n      gt\n        /* \"#utility.yul\":3271:3383   */\n      iszero\n      tag_385\n      jumpi\n        /* \"#utility.yul\":3302:3381   */\n      tag_386\n      tag_261\n      jump\t// in\n    tag_386:\n        /* \"#utility.yul\":3271:3383   */\n    tag_385:\n        /* \"#utility.yul\":3392:3446   */\n      tag_387\n        /* \"#utility.yul\":3439:3445   */\n      dup5\n        /* \"#utility.yul\":3434:3437   */\n      dup3\n        /* \"#utility.yul\":3429:3432   */\n      dup6\n        /* \"#utility.yul\":3392:3446   */\n      tag_267\n      jump\t// in\n    tag_387:\n        /* \"#utility.yul\":3111:3452   */\n      pop\n        /* \"#utility.yul\":3027:3452   */\n      swap4\n      swap3\n      pop\n      pop\n      pop\n      jump\t// out\n        /* \"#utility.yul\":3472:3812   */\n    tag_269:\n        /* \"#utility.yul\":3528:3533   */\n      0x00\n        /* \"#utility.yul\":3577:3580   */\n      dup3\n        /* \"#utility.yul\":3570:3574   */\n      0x1f\n        /* \"#utility.yul\":3562:3568   */\n      dup4\n        /* \"#utility.yul\":3558:3575   */\n      add\n        /* \"#utility.yul\":3554:3581   */\n      slt\n        /* \"#utility.yul\":3544:3666   */\n      tag_389\n      jumpi\n        /* \"#utility.yul\":3585:3664   */\n      tag_390\n      tag_260\n      jump\t// in\n    tag_390:\n        /* \"#utility.yul\":3544:3666   */\n    tag_389:\n        /* \"#utility.yul\":3702:3708   */\n      dup2\n        /* \"#utility.yul\":3689:3709   */\n      calldataload\n        /* \"#utility.yul\":3727:3806   */\n      tag_391\n        /* \"#utility.yul\":3802:3805   */\n      dup5\n        /* \"#utility.yul\":3794:3800   */\n      dup3\n        /* \"#utility.yul\":3787:3791   */\n      0x20\n        /* \"#utility.yul\":3779:3785   */\n      dup7\n        /* \"#utility.yul\":3775:3792   */\n      add\n        /* \"#utility.yul\":3727:3806   */\n      tag_268\n      jump\t// in\n    tag_391:\n        /* \"#utility.yul\":3718:3806   */\n      swap2\n      pop\n        /* \"#utility.yul\":3534:3812   */\n      pop\n        /* \"#utility.yul\":3472:3812   */\n      swap3\n      swap2\n      pop\n      pop\n      jump\t// out\n        /* \"#utility.yul\":3818:4327   */\n    tag_31:\n        /* \"#utility.yul\":3887:3893   */\n      0x00\n        /* \"#utility.yul\":3936:3938   */\n      0x20\n        /* \"#utility.yul\":3924:3933   */\n      dup3\n        /* \"#utility.yul\":3915:3922   */\n      dup5\n        /* \"#utility.yul\":3911:3934   */\n      sub\n        /* \"#utility.yul\":3907:3939   */\n      slt\n        /* \"#utility.yul\":3904:4023   */\n      iszero\n      tag_393\n      jumpi\n        /* \"#utility.yul\":3942:4021   */\n      tag_394\n      tag_253\n      jump\t// in\n    tag_394:\n        /* \"#utility.yul\":3904:4023   */\n    tag_393:\n        /* \"#utility.yul\":4090:4091   */\n      0x00\n        /* \"#utility.yul\":4079:4088   */\n      dup3\n        /* \"#utility.yul\":4075:4092   */\n      add\n        /* \"#utility.yul\":4062:4093   */\n      calldataload\n        /* \"#utility.yul\":4120:4138   */\n      0xffffffffffffffff\n        /* \"#utility.yul\":4112:4118   */\n      dup2\n        /* \"#utility.yul\":4109:4139   */\n      gt\n        /* \"#utility.yul\":4106:4223   */\n      iszero\n      tag_395\n      jumpi\n        /* \"#utility.yul\":4142:4221   */\n      tag_396\n      tag_254\n      jump\t// in\n    tag_396:\n        /* \"#utility.yul\":4106:4223   */\n    tag_395:\n        /* \"#utility.yul\":4247:4310   */\n      tag_397\n        /* \"#utility.yul\":4302:4309   */\n      dup5\n        /* \"#utility.yul\":4293:4299   */\n      dup3\n        /* \"#utility.yul\":4282:4291   */\n      dup6\n        /* \"#utility.yul\":4278:4300   */\n      add\n        /* \"#utility.yul\":4247:4310   */\n      tag_269\n      jump\t// in\n    tag_397:\n        /* \"#utility.yul\":4237:4310   */\n      swap2\n      pop\n        /* \"#utility.yul\":4033:4320   */\n      pop\n        /* \"#utility.yul\":3818:4327   */\n      swap3\n      swap2\n      pop\n      pop\n      jump\t// out\n        /* \"#utility.yul\":4333:4459   */\n    tag_270:\n        /* \"#utility.yul\":4370:4377   */\n      0x00\n        /* \"#utility.yul\":4410:4452   */\n      0xffffffffffffffffffffffffffffffffffffffff\n        /* \"#utility.yul\":4403:4408   */\n      dup3\n        /* \"#utility.yul\":4399:4453   */\n      and\n        /* \"#utility.yul\":4388:4453   */\n      swap1\n      pop\n        /* \"#utility.yul\":4333:4459   */\n      swap2\n      swap1\n      pop\n      jump\t// out\n        /* \"#utility.yul\":4465:4561   */\n    tag_271:\n        /* \"#utility.yul\":4502:4509   */\n      0x00\n        /* \"#utility.yul\":4531:4555   */\n      tag_400\n        /* \"#utility.yul\":4549:4554   */\n      dup3\n        /* \"#utility.yul\":4531:4555   */\n      tag_270\n      jump\t// in\n    tag_400:\n        /* \"#utility.yul\":4520:4555   */\n      swap1\n      pop\n        /* \"#utility.yul\":4465:4561   */\n      swap2\n      swap1\n      pop\n      jump\t// out\n        /* \"#utility.yul\":4567:4685   */\n    tag_272:\n        /* \"#utility.yul\":4654:4678   */\n      tag_402\n        /* \"#utility.yul\":4672:4677   */\n      dup2\n        /* \"#utility.yul\":4654:4678   */\n      tag_271\n      jump\t// in\n    tag_402:\n        /* \"#utility.yul\":4649:4652   */\n      dup3\n        /* \"#utility.yul\":4642:4679   */\n      mstore\n        /* \"#utility.yul\":4567:4685   */\n      pop\n      pop\n      jump\t// out\n        /* \"#utility.yul\":4691:4913   */\n    tag_34:\n        /* \"#utility.yul\":4784:4788   */\n      0x00\n        /* \"#utility.yul\":4822:4824   */\n      0x20\n        /* \"#utility.yul\":4811:4820   */\n      dup3\n        /* \"#utility.yul\":4807:4825   */\n      add\n        /* \"#utility.yul\":4799:4825   */\n      swap1\n      pop\n        /* \"#utility.yul\":4835:4906   */\n      tag_404\n        /* \"#utility.yul\":4903:4904   */\n      0x00\n        /* \"#utility.yul\":4892:4901   */\n      dup4\n        /* \"#utility.yul\":4888:4905   */\n      add\n        /* \"#utility.yul\":4879:4885   */\n      dup5\n        /* \"#utility.yul\":4835:4906   */\n      tag_272\n      jump\t// in\n    tag_404:\n        /* \"#utility.yul\":4691:4913   */\n      swap3\n      swap2\n      pop\n      pop\n      jump\t// out\n        /* \"#utility.yul\":4919:5248   */\n    tag_37:\n        /* \"#utility.yul\":4978:4984   */\n      0x00\n        /* \"#utility.yul\":5027:5029   */\n      0x20\n        /* \"#utility.yul\":5015:5024   */\n      dup3\n        /* \"#utility.yul\":5006:5013   */\n      dup5\n        /* \"#utility.yul\":5002:5025   */\n      sub\n        /* \"#utility.yul\":4998:5030   */\n      slt\n        /* \"#utility.yul\":4995:5114   */\n      iszero\n      tag_406\n      jumpi\n        /* \"#utility.yul\":5033:5112   */\n      tag_407\n      tag_253\n      jump\t// in\n    tag_407:\n        /* \"#utility.yul\":4995:5114   */\n    tag_406:\n        /* \"#utility.yul\":5153:5154   */\n      0x00\n        /* \"#utility.yul\":5178:5231   */\n      tag_408\n        /* \"#utility.yul\":5223:5230   */\n      dup5\n        /* \"#utility.yul\":5214:5220   */\n      dup3\n        /* \"#utility.yul\":5203:5212   */\n      dup6\n        /* \"#utility.yul\":5199:5221   */\n      add\n        /* \"#utility.yul\":5178:5231   */\n      tag_257\n      jump\t// in\n    tag_408:\n        /* \"#utility.yul\":5168:5231   */\n      swap2\n      pop\n        /* \"#utility.yul\":5124:5241   */\n      pop\n        /* \"#utility.yul\":4919:5248   */\n      swap3\n      swap2\n      pop\n      pop\n      jump\t// out\n        /* \"#utility.yul\":5254:5372   */\n    tag_273:\n        /* \"#utility.yul\":5341:5365   */\n      tag_410\n        /* \"#utility.yul\":5359:5364   */\n      dup2\n        /* \"#utility.yul\":5341:5365   */\n      tag_255\n      jump\t// in\n    tag_410:\n        /* \"#utility.yul\":5336:5339   */\n      dup3\n        /* \"#utility.yul\":5329:5366   */\n      mstore\n        /* \"#utility.yul\":5254:5372   */\n      pop\n      pop\n      jump\t// out\n        /* \"#utility.yul\":5378:5600   */\n    tag_44:\n        /* \"#utility.yul\":5471:5475   */\n      0x00\n        /* \"#utility.yul\":5509:5511   */\n      0x20\n        /* \"#utility.yul\":5498:5507   */\n      dup3\n        /* \"#utility.yul\":5494:5512   */\n      add\n        /* \"#utility.yul\":5486:5512   */\n      swap1\n      pop\n        /* \"#utility.yul\":5522:5593   */\n      tag_412\n        /* \"#utility.yul\":5590:5591   */\n      0x00\n        /* \"#utility.yul\":5579:5588   */\n      dup4\n        /* \"#utility.yul\":5575:5592   */\n      add\n        /* \"#utility.yul\":5566:5572   */\n      dup5\n        /* \"#utility.yul\":5522:5593   */\n      tag_273\n      jump\t// in\n    tag_412:\n        /* \"#utility.yul\":5378:5600   */\n      swap3\n      swap2\n      pop\n      pop\n      jump\t// out\n        /* \"#utility.yul\":5606:5666   */\n    tag_274:\n        /* \"#utility.yul\":5634:5637   */\n      0x00\n        /* \"#utility.yul\":5655:5660   */\n      dup2\n        /* \"#utility.yul\":5648:5660   */\n      swap1\n      pop\n        /* \"#utility.yul\":5606:5666   */\n      swap2\n      swap1\n      pop\n      jump\t// out\n        /* \"#utility.yul\":5672:5814   */\n    tag_275:\n        /* \"#utility.yul\":5722:5731   */\n      0x00\n        /* \"#utility.yul\":5755:5808   */\n      tag_415\n        /* \"#utility.yul\":5773:5807   */\n      tag_416\n        /* \"#utility.yul\":5782:5806   */\n      tag_417\n        /* \"#utility.yul\":5800:5805   */\n      dup5\n        /* \"#utility.yul\":5782:5806   */\n      tag_270\n      jump\t// in\n    tag_417:\n        /* \"#utility.yul\":5773:5807   */\n      tag_274\n      jump\t// in\n    tag_416:\n        /* \"#utility.yul\":5755:5808   */\n      tag_270\n      jump\t// in\n    tag_415:\n        /* \"#utility.yul\":5742:5808   */\n      swap1\n      pop\n        /* \"#utility.yul\":5672:5814   */\n      swap2\n      swap1\n      pop\n      jump\t// out\n        /* \"#utility.yul\":5820:5946   */\n    tag_276:\n        /* \"#utility.yul\":5870:5879   */\n      0x00\n        /* \"#utility.yul\":5903:5940   */\n      tag_419\n        /* \"#utility.yul\":5934:5939   */\n      dup3\n        /* \"#utility.yul\":5903:5940   */\n      tag_275\n      jump\t// in\n    tag_419:\n        /* \"#utility.yul\":5890:5940   */\n      swap1\n      pop\n        /* \"#utility.yul\":5820:5946   */\n      swap2\n      swap1\n      pop\n      jump\t// out\n        /* \"#utility.yul\":5952:6096   */\n    tag_277:\n        /* \"#utility.yul\":6020:6029   */\n      0x00\n        /* \"#utility.yul\":6053:6090   */\n      tag_421\n        /* \"#utility.yul\":6084:6089   */\n      dup3\n        /* \"#utility.yul\":6053:6090   */\n      tag_276\n      jump\t// in\n    tag_421:\n        /* \"#utility.yul\":6040:6090   */\n      swap1\n      pop\n        /* \"#utility.yul\":5952:6096   */\n      swap2\n      swap1\n      pop\n      jump\t// out\n        /* \"#utility.yul\":6102:6269   */\n    tag_278:\n        /* \"#utility.yul\":6207:6262   */\n      tag_423\n        /* \"#utility.yul\":6256:6261   */\n      dup2\n        /* \"#utility.yul\":6207:6262   */\n      tag_277\n      jump\t// in\n    tag_423:\n        /* \"#utility.yul\":6202:6205   */\n      dup3\n        /* \"#utility.yul\":6195:6263   */\n      mstore\n        /* \"#utility.yul\":6102:6269   */\n      pop\n      pop\n      jump\t// out\n        /* \"#utility.yul\":6275:6533   */\n    tag_48:\n        /* \"#utility.yul\":6386:6390   */\n      0x00\n        /* \"#utility.yul\":6424:6426   */\n      0x20\n        /* \"#utility.yul\":6413:6422   */\n      dup3\n        /* \"#utility.yul\":6409:6427   */\n      add\n        /* \"#utility.yul\":6401:6427   */\n      swap1\n      pop\n        /* \"#utility.yul\":6437:6526   */\n      tag_425\n        /* \"#utility.yul\":6523:6524   */\n      0x00\n        /* \"#utility.yul\":6512:6521   */\n      dup4\n        /* \"#utility.yul\":6508:6525   */\n      add\n        /* \"#utility.yul\":6499:6505   */\n      dup5\n        /* \"#utility.yul\":6437:6526   */\n      tag_278\n      jump\t// in\n    tag_425:\n        /* \"#utility.yul\":6275:6533   */\n      swap3\n      swap2\n      pop\n      pop\n      jump\t// out\n        /* \"#utility.yul\":6539:6655   */\n    tag_279:\n        /* \"#utility.yul\":6609:6630   */\n      tag_427\n        /* \"#utility.yul\":6624:6629   */\n      dup2\n        /* \"#utility.yul\":6609:6630   */\n      tag_258\n      jump\t// in\n    tag_427:\n        /* \"#utility.yul\":6602:6607   */\n      dup2\n        /* \"#utility.yul\":6599:6631   */\n      eq\n        /* \"#utility.yul\":6589:6649   */\n      tag_428\n      jumpi\n        /* \"#utility.yul\":6645:6646   */\n      0x00\n        /* \"#utility.yul\":6642:6643   */\n      0x00\n        /* \"#utility.yul\":6635:6647   */\n      revert\n        /* \"#utility.yul\":6589:6649   */\n    tag_428:\n        /* \"#utility.yul\":6539:6655   */\n      pop\n      jump\t// out\n        /* \"#utility.yul\":6661:6794   */\n    tag_280:\n        /* \"#utility.yul\":6704:6709   */\n      0x00\n        /* \"#utility.yul\":6742:6748   */\n      dup2\n        /* \"#utility.yul\":6729:6749   */\n      calldataload\n        /* \"#utility.yul\":6720:6749   */\n      swap1\n      pop\n        /* \"#utility.yul\":6758:6788   */\n      tag_430\n        /* \"#utility.yul\":6782:6787   */\n      dup2\n        /* \"#utility.yul\":6758:6788   */\n      tag_279\n      jump\t// in\n    tag_430:\n        /* \"#utility.yul\":6661:6794   */\n      swap3\n      swap2\n      pop\n      pop\n      jump\t// out\n        /* \"#utility.yul\":6800:7123   */\n    tag_62:\n        /* \"#utility.yul\":6856:6862   */\n      0x00\n        /* \"#utility.yul\":6905:6907   */\n      0x20\n        /* \"#utility.yul\":6893:6902   */\n      dup3\n        /* \"#utility.yul\":6884:6891   */\n      dup5\n        /* \"#utility.yul\":6880:6903   */\n      sub\n        /* \"#utility.yul\":6876:6908   */\n      slt\n        /* \"#utility.yul\":6873:6992   */\n      iszero\n      tag_432\n      jumpi\n        /* \"#utility.yul\":6911:6990   */\n      tag_433\n      tag_253\n      jump\t// in\n    tag_433:\n        /* \"#utility.yul\":6873:6992   */\n    tag_432:\n        /* \"#utility.yul\":7031:7032   */\n      0x00\n        /* \"#utility.yul\":7056:7106   */\n      tag_434\n        /* \"#utility.yul\":7098:7105   */\n      dup5\n        /* \"#utility.yul\":7089:7095   */\n      dup3\n        /* \"#utility.yul\":7078:7087   */\n      dup6\n        /* \"#utility.yul\":7074:7096   */\n      add\n        /* \"#utility.yul\":7056:7106   */\n      tag_280\n      jump\t// in\n    tag_434:\n        /* \"#utility.yul\":7046:7106   */\n      swap2\n      pop\n        /* \"#utility.yul\":7002:7116   */\n      pop\n        /* \"#utility.yul\":6800:7123   */\n      swap3\n      swap2\n      pop\n      pop\n      jump\t// out\n        /* \"#utility.yul\":7129:7251   */\n    tag_281:\n        /* \"#utility.yul\":7202:7226   */\n      tag_436\n        /* \"#utility.yul\":7220:7225   */\n      dup2\n        /* \"#utility.yul\":7202:7226   */\n      tag_271\n      jump\t// in\n    tag_436:\n        /* \"#utility.yul\":7195:7200   */\n      dup2\n        /* \"#utility.yul\":7192:7227   */\n      eq\n        /* \"#utility.yul\":7182:7245   */\n      tag_437\n      jumpi\n        /* \"#utility.yul\":7241:7242   */\n      0x00\n        /* \"#utility.yul\":7238:7239   */\n      0x00\n        /* \"#utility.yul\":7231:7243   */\n      revert\n        /* \"#utility.yul\":7182:7245   */\n    tag_437:\n        /* \"#utility.yul\":7129:7251   */\n      pop\n      jump\t// out\n        /* \"#utility.yul\":7257:7396   */\n    tag_282:\n        /* \"#utility.yul\":7303:7308   */\n      0x00\n        /* \"#utility.yul\":7341:7347   */\n      dup2\n        /* \"#utility.yul\":7328:7348   */\n      calldataload\n        /* \"#utility.yul\":7319:7348   */\n      swap1\n      pop\n        /* \"#utility.yul\":7357:7390   */\n      tag_439\n        /* \"#utility.yul\":7384:7389   */\n      dup2\n        /* \"#utility.yul\":7357:7390   */\n      tag_281\n      jump\t// in\n    tag_439:\n        /* \"#utility.yul\":7257:7396   */\n      swap3\n      swap2\n      pop\n      pop\n      jump\t// out\n        /* \"#utility.yul\":7402:7731   */\n    tag_66:\n        /* \"#utility.yul\":7461:7467   */\n      0x00\n        /* \"#utility.yul\":7510:7512   */\n      0x20\n        /* \"#utility.yul\":7498:7507   */\n      dup3\n        /* \"#utility.yul\":7489:7496   */\n      dup5\n        /* \"#utility.yul\":7485:7508   */\n      sub\n        /* \"#utility.yul\":7481:7513   */\n      slt\n        /* \"#utility.yul\":7478:7597   */\n      iszero\n      tag_441\n      jumpi\n        /* \"#utility.yul\":7516:7595   */\n      tag_442\n      tag_253\n      jump\t// in\n    tag_442:\n        /* \"#utility.yul\":7478:7597   */\n    tag_441:\n        /* \"#utility.yul\":7636:7637   */\n      0x00\n        /* \"#utility.yul\":7661:7714   */\n      tag_443\n        /* \"#utility.yul\":7706:7713   */\n      dup5\n        /* \"#utility.yul\":7697:7703   */\n      dup3\n        /* \"#utility.yul\":7686:7695   */\n      dup6\n        /* \"#utility.yul\":7682:7704   */\n      add\n        /* \"#utility.yul\":7661:7714   */\n      tag_282\n      jump\t// in\n    tag_443:\n        /* \"#utility.yul\":7651:7714   */\n      swap2\n      pop\n        /* \"#utility.yul\":7607:7724   */\n      pop\n        /* \"#utility.yul\":7402:7731   */\n      swap3\n      swap2\n      pop\n      pop\n      jump\t// out\n        /* \"#utility.yul\":7737:7854   */\n    tag_283:\n        /* \"#utility.yul\":7846:7847   */\n      0x00\n        /* \"#utility.yul\":7843:7844   */\n      0x00\n        /* \"#utility.yul\":7836:7848   */\n      revert\n        /* \"#utility.yul\":7880:8108   */\n    tag_284:\n        /* \"#utility.yul\":7950:7955   */\n      0x00\n        /* \"#utility.yul\":7991:7993   */\n      0x60\n        /* \"#utility.yul\":7982:7988   */\n      dup3\n        /* \"#utility.yul\":7977:7980   */\n      dup5\n        /* \"#utility.yul\":7973:7989   */\n      sub\n        /* \"#utility.yul\":7969:7994   */\n      slt\n        /* \"#utility.yul\":7966:8078   */\n      iszero\n      tag_446\n      jumpi\n        /* \"#utility.yul\":7997:8076   */\n      tag_447\n      tag_283\n      jump\t// in\n    tag_447:\n        /* \"#utility.yul\":7966:8078   */\n    tag_446:\n        /* \"#utility.yul\":8096:8102   */\n      dup2\n        /* \"#utility.yul\":8087:8102   */\n      swap1\n      pop\n        /* \"#utility.yul\":7880:8108   */\n      swap3\n      swap2\n      pop\n      pop\n      jump\t// out\n        /* \"#utility.yul\":8114:8651   */\n    tag_70:\n        /* \"#utility.yul\":8197:8203   */\n      0x00\n        /* \"#utility.yul\":8246:8248   */\n      0x20\n        /* \"#utility.yul\":8234:8243   */\n      dup3\n        /* \"#utility.yul\":8225:8232   */\n      dup5\n        /* \"#utility.yul\":8221:8244   */\n      sub\n        /* \"#utility.yul\":8217:8249   */\n      slt\n        /* \"#utility.yul\":8214:8333   */\n      iszero\n      tag_449\n      jumpi\n        /* \"#utility.yul\":8252:8331   */\n      tag_450\n      tag_253\n      jump\t// in\n    tag_450:\n        /* \"#utility.yul\":8214:8333   */\n    tag_449:\n        /* \"#utility.yul\":8400:8401   */\n      0x00\n        /* \"#utility.yul\":8389:8398   */\n      dup3\n        /* \"#utility.yul\":8385:8402   */\n      add\n        /* \"#utility.yul\":8372:8403   */\n      calldataload\n        /* \"#utility.yul\":8430:8448   */\n      0xffffffffffffffff\n        /* \"#utility.yul\":8422:8428   */\n      dup2\n        /* \"#utility.yul\":8419:8449   */\n      gt\n        /* \"#utility.yul\":8416:8533   */\n      iszero\n      tag_451\n      jumpi\n        /* \"#utility.yul\":8452:8531   */\n      tag_452\n      tag_254\n      jump\t// in\n    tag_452:\n        /* \"#utility.yul\":8416:8533   */\n    tag_451:\n        /* \"#utility.yul\":8557:8634   */\n      tag_453\n        /* \"#utility.yul\":8626:8633   */\n      dup5\n        /* \"#utility.yul\":8617:8623   */\n      dup3\n        /* \"#utility.yul\":8606:8615   */\n      dup6\n        /* \"#utility.yul\":8602:8624   */\n      add\n        /* \"#utility.yul\":8557:8634   */\n      tag_284\n      jump\t// in\n    tag_453:\n        /* \"#utility.yul\":8547:8634   */\n      swap2\n      pop\n        /* \"#utility.yul\":8343:8644   */\n      pop\n        /* \"#utility.yul\":8114:8651   */\n      swap3\n      swap2\n      pop\n      pop\n      jump\t// out\n        /* \"#utility.yul\":8657:8826   */\n    tag_285:\n        /* \"#utility.yul\":8741:8752   */\n      0x00\n        /* \"#utility.yul\":8775:8781   */\n      dup3\n        /* \"#utility.yul\":8770:8773   */\n      dup3\n        /* \"#utility.yul\":8763:8782   */\n      mstore\n        /* \"#utility.yul\":8815:8819   */\n      0x20\n        /* \"#utility.yul\":8810:8813   */\n      dup3\n        /* \"#utility.yul\":8806:8820   */\n      add\n        /* \"#utility.yul\":8791:8820   */\n      swap1\n      pop\n        /* \"#utility.yul\":8657:8826   */\n      swap3\n      swap2\n      pop\n      pop\n      jump\t// out\n        /* \"#utility.yul\":8832:9010   */\n    tag_286:\n        /* \"#utility.yul\":8972:9002   */\n      0x6d73672e73656e646572206973206e6f742065746620726f7574657200000000\n        /* \"#utility.yul\":8968:8969   */\n      0x00\n        /* \"#utility.yul\":8960:8966   */\n      dup3\n        /* \"#utility.yul\":8956:8970   */\n      add\n        /* \"#utility.yul\":8949:9003   */\n      mstore\n        /* \"#utility.yul\":8832:9010   */\n      pop\n      jump\t// out\n        /* \"#utility.yul\":9016:9382   */\n    tag_287:\n        /* \"#utility.yul\":9158:9161   */\n      0x00\n        /* \"#utility.yul\":9179:9246   */\n      tag_457\n        /* \"#utility.yul\":9243:9245   */\n      0x1c\n        /* \"#utility.yul\":9238:9241   */\n      dup4\n        /* \"#utility.yul\":9179:9246   */\n      tag_285\n      jump\t// in\n    tag_457:\n        /* \"#utility.yul\":9172:9246   */\n      swap2\n      pop\n        /* \"#utility.yul\":9255:9348   */\n      tag_458\n        /* \"#utility.yul\":9344:9347   */\n      dup3\n        /* \"#utility.yul\":9255:9348   */\n      tag_286\n      jump\t// in\n    tag_458:\n        /* \"#utility.yul\":9373:9375   */\n      0x20\n        /* \"#utility.yul\":9368:9371   */\n      dup3\n        /* \"#utility.yul\":9364:9376   */\n      add\n        /* \"#utility.yul\":9357:9376   */\n      swap1\n      pop\n        /* \"#utility.yul\":9016:9382   */\n      swap2\n      swap1\n      pop\n      jump\t// out\n        /* \"#utility.yul\":9388:9807   */\n    tag_88:\n        /* \"#utility.yul\":9554:9558   */\n      0x00\n        /* \"#utility.yul\":9592:9594   */\n      0x20\n        /* \"#utility.yul\":9581:9590   */\n      dup3\n        /* \"#utility.yul\":9577:9595   */\n      add\n        /* \"#utility.yul\":9569:9595   */\n      swap1\n      pop\n        /* \"#utility.yul\":9641:9650   */\n      dup2\n        /* \"#utility.yul\":9635:9639   */\n      dup2\n        /* \"#utility.yul\":9631:9651   */\n      sub\n        /* \"#utility.yul\":9627:9628   */\n      0x00\n        /* \"#utility.yul\":9616:9625   */\n      dup4\n        /* \"#utility.yul\":9612:9629   */\n      add\n        /* \"#utility.yul\":9605:9652   */\n      mstore\n        /* \"#utility.yul\":9669:9800   */\n      tag_460\n        /* \"#utility.yul\":9795:9799   */\n      dup2\n        /* \"#utility.yul\":9669:9800   */\n      tag_287\n      jump\t// in\n    tag_460:\n        /* \"#utility.yul\":9661:9800   */\n      swap1\n      pop\n        /* \"#utility.yul\":9388:9807   */\n      swap2\n      swap1\n      pop\n      jump\t// out\n        /* \"#utility.yul\":9813:9994   */\n    tag_288:\n        /* \"#utility.yul\":9953:9986   */\n      0x457466466163746f72793a2074726164652076616c7565206973207a65726f00\n        /* \"#utility.yul\":9949:9950   */\n      0x00\n        /* \"#utility.yul\":9941:9947   */\n      dup3\n        /* \"#utility.yul\":9937:9951   */\n      add\n        /* \"#utility.yul\":9930:9987   */\n      mstore\n        /* \"#utility.yul\":9813:9994   */\n      pop\n      jump\t// out\n        /* \"#utility.yul\":10000:10366   */\n    tag_289:\n        /* \"#utility.yul\":10142:10145   */\n      0x00\n        /* \"#utility.yul\":10163:10230   */\n      tag_463\n        /* \"#utility.yul\":10227:10229   */\n      0x1f\n        /* \"#utility.yul\":10222:10225   */\n      dup4\n        /* \"#utility.yul\":10163:10230   */\n      tag_285\n      jump\t// in\n    tag_463:\n        /* \"#utility.yul\":10156:10230   */\n      swap2\n      pop\n        /* \"#utility.yul\":10239:10332   */\n      tag_464\n        /* \"#utility.yul\":10328:10331   */\n      dup3\n        /* \"#utility.yul\":10239:10332   */\n      tag_288\n      jump\t// in\n    tag_464:\n        /* \"#utility.yul\":10357:10359   */\n      0x20\n        /* \"#utility.yul\":10352:10355   */\n      dup3\n        /* \"#utility.yul\":10348:10360   */\n      add\n        /* \"#utility.yul\":10341:10360   */\n      swap1\n      pop\n        /* \"#utility.yul\":10000:10366   */\n      swap2\n      swap1\n      pop\n      jump\t// out\n        /* \"#utility.yul\":10372:10791   */\n    tag_92:\n        /* \"#utility.yul\":10538:10542   */\n      0x00\n        /* \"#utility.yul\":10576:10578   */\n      0x20\n        /* \"#utility.yul\":10565:10574   */\n      dup3\n        /* \"#utility.yul\":10561:10579   */\n      add\n        /* \"#utility.yul\":10553:10579   */\n      swap1\n      pop\n        /* \"#utility.yul\":10625:10634   */\n      dup2\n        /* \"#utility.yul\":10619:10623   */\n      dup2\n        /* \"#utility.yul\":10615:10635   */\n      sub\n        /* \"#utility.yul\":10611:10612   */\n      0x00\n        /* \"#utility.yul\":10600:10609   */\n      dup4\n        /* \"#utility.yul\":10596:10613   */\n      add\n        /* \"#utility.yul\":10589:10636   */\n      mstore\n        /* \"#utility.yul\":10653:10784   */\n      tag_466\n        /* \"#utility.yul\":10779:10783   */\n      dup2\n        /* \"#utility.yul\":10653:10784   */\n      tag_289\n      jump\t// in\n    tag_466:\n        /* \"#utility.yul\":10645:10784   */\n      swap1\n      pop\n        /* \"#utility.yul\":10372:10791   */\n      swap2\n      swap1\n      pop\n      jump\t// out\n        /* \"#utility.yul\":10797:10940   */\n    tag_290:\n        /* \"#utility.yul\":10854:10859   */\n      0x00\n        /* \"#utility.yul\":10885:10891   */\n      dup2\n        /* \"#utility.yul\":10879:10892   */\n      mload\n        /* \"#utility.yul\":10870:10892   */\n      swap1\n      pop\n        /* \"#utility.yul\":10901:10934   */\n      tag_468\n        /* \"#utility.yul\":10928:10933   */\n      dup2\n        /* \"#utility.yul\":10901:10934   */\n      tag_256\n      jump\t// in\n    tag_468:\n        /* \"#utility.yul\":10797:10940   */\n      swap3\n      swap2\n      pop\n      pop\n      jump\t// out\n        /* \"#utility.yul\":10946:11297   */\n    tag_98:\n        /* \"#utility.yul\":11016:11022   */\n      0x00\n        /* \"#utility.yul\":11065:11067   */\n      0x20\n        /* \"#utility.yul\":11053:11062   */\n      dup3\n        /* \"#utility.yul\":11044:11051   */\n      dup5\n        /* \"#utility.yul\":11040:11063   */\n      sub\n        /* \"#utility.yul\":11036:11068   */\n      slt\n        /* \"#utility.yul\":11033:11152   */\n      iszero\n      tag_470\n      jumpi\n        /* \"#utility.yul\":11071:11150   */\n      tag_471\n      tag_253\n      jump\t// in\n    tag_471:\n        /* \"#utility.yul\":11033:11152   */\n    tag_470:\n        /* \"#utility.yul\":11191:11192   */\n      0x00\n        /* \"#utility.yul\":11216:11280   */\n      tag_472\n        /* \"#utility.yul\":11272:11279   */\n      dup5\n        /* \"#utility.yul\":11263:11269   */\n      dup3\n        /* \"#utility.yul\":11252:11261   */\n      dup6\n        /* \"#utility.yul\":11248:11270   */\n      add\n        /* \"#utility.yul\":11216:11280   */\n      tag_290\n      jump\t// in\n    tag_472:\n        /* \"#utility.yul\":11206:11280   */\n      swap2\n      pop\n        /* \"#utility.yul\":11162:11290   */\n      pop\n        /* \"#utility.yul\":10946:11297   */\n      swap3\n      swap2\n      pop\n      pop\n      jump\t// out\n        /* \"#utility.yul\":11303:11524   */\n    tag_291:\n        /* \"#utility.yul\":11443:11477   */\n      0x457466466163746f72793a20574554482f555344207072696365206973207a65\n        /* \"#utility.yul\":11439:11440   */\n      0x00\n        /* \"#utility.yul\":11431:11437   */\n      dup3\n        /* \"#utility.yul\":11427:11441   */\n      add\n        /* \"#utility.yul\":11420:11478   */\n      mstore\n        /* \"#utility.yul\":11512:11516   */\n      0x726f000000000000000000000000000000000000000000000000000000000000\n        /* \"#utility.yul\":11507:11509   */\n      0x20\n        /* \"#utility.yul\":11499:11505   */\n      dup3\n        /* \"#utility.yul\":11495:11510   */\n      add\n        /* \"#utility.yul\":11488:11517   */\n      mstore\n        /* \"#utility.yul\":11303:11524   */\n      pop\n      jump\t// out\n        /* \"#utility.yul\":11530:11896   */\n    tag_292:\n        /* \"#utility.yul\":11672:11675   */\n      0x00\n        /* \"#utility.yul\":11693:11760   */\n      tag_475\n        /* \"#utility.yul\":11757:11759   */\n      0x22\n        /* \"#utility.yul\":11752:11755   */\n      dup4\n        /* \"#utility.yul\":11693:11760   */\n      tag_285\n      jump\t// in\n    tag_475:\n        /* \"#utility.yul\":11686:11760   */\n      swap2\n      pop\n        /* \"#utility.yul\":11769:11862   */\n      tag_476\n        /* \"#utility.yul\":11858:11861   */\n      dup3\n        /* \"#utility.yul\":11769:11862   */\n      tag_291\n      jump\t// in\n    tag_476:\n        /* \"#utility.yul\":11887:11889   */\n      0x40\n        /* \"#utility.yul\":11882:11885   */\n      dup3\n        /* \"#utility.yul\":11878:11890   */\n      add\n        /* \"#utility.yul\":11871:11890   */\n      swap1\n      pop\n        /* \"#utility.yul\":11530:11896   */\n      swap2\n      swap1\n      pop\n      jump\t// out\n        /* \"#utility.yul\":11902:12321   */\n    tag_101:\n        /* \"#utility.yul\":12068:12072   */\n      0x00\n        /* \"#utility.yul\":12106:12108   */\n      0x20\n        /* \"#utility.yul\":12095:12104   */\n      dup3\n        /* \"#utility.yul\":12091:12109   */\n      add\n        /* \"#utility.yul\":12083:12109   */\n      swap1\n      pop\n        /* \"#utility.yul\":12155:12164   */\n      dup2\n        /* \"#utility.yul\":12149:12153   */\n      dup2\n        /* \"#utility.yul\":12145:12165   */\n      sub\n        /* \"#utility.yul\":12141:12142   */\n      0x00\n        /* \"#utility.yul\":12130:12139   */\n      dup4\n        /* \"#utility.yul\":12126:12143   */\n      add\n        /* \"#utility.yul\":12119:12166   */\n      mstore\n        /* \"#utility.yul\":12183:12314   */\n      tag_478\n        /* \"#utility.yul\":12309:12313   */\n      dup2\n        /* \"#utility.yul\":12183:12314   */\n      tag_292\n      jump\t// in\n    tag_478:\n        /* \"#utility.yul\":12175:12314   */\n      swap1\n      pop\n        /* \"#utility.yul\":11902:12321   */\n      swap2\n      swap1\n      pop\n      jump\t// out\n        /* \"#utility.yul\":12327:12507   */\n    tag_293:\n        /* \"#utility.yul\":12375:12452   */\n      0x4e487b7100000000000000000000000000000000000000000000000000000000\n        /* \"#utility.yul\":12372:12373   */\n      0x00\n        /* \"#utility.yul\":12365:12453   */\n      mstore\n        /* \"#utility.yul\":12472:12476   */\n      0x11\n        /* \"#utility.yul\":12469:12470   */\n      0x04\n        /* \"#utility.yul\":12462:12477   */\n      mstore\n        /* \"#utility.yul\":12496:12500   */\n      0x24\n        /* \"#utility.yul\":12493:12494   */\n      0x00\n        /* \"#utility.yul\":12486:12501   */\n      revert\n        /* \"#utility.yul\":12513:12923   */\n    tag_103:\n        /* \"#utility.yul\":12553:12560   */\n      0x00\n        /* \"#utility.yul\":12576:12596   */\n      tag_481\n        /* \"#utility.yul\":12594:12595   */\n      dup3\n        /* \"#utility.yul\":12576:12596   */\n      tag_255\n      jump\t// in\n    tag_481:\n        /* \"#utility.yul\":12571:12596   */\n      swap2\n      pop\n        /* \"#utility.yul\":12610:12630   */\n      tag_482\n        /* \"#utility.yul\":12628:12629   */\n      dup4\n        /* \"#utility.yul\":12610:12630   */\n      tag_255\n      jump\t// in\n    tag_482:\n        /* \"#utility.yul\":12605:12630   */\n      swap3\n      pop\n        /* \"#utility.yul\":12665:12666   */\n      dup3\n        /* \"#utility.yul\":12662:12663   */\n      dup3\n        /* \"#utility.yul\":12658:12667   */\n      mul\n        /* \"#utility.yul\":12687:12717   */\n      tag_483\n        /* \"#utility.yul\":12705:12716   */\n      dup2\n        /* \"#utility.yul\":12687:12717   */\n      tag_255\n      jump\t// in\n    tag_483:\n        /* \"#utility.yul\":12676:12717   */\n      swap2\n      pop\n        /* \"#utility.yul\":12866:12867   */\n      dup3\n        /* \"#utility.yul\":12857:12864   */\n      dup3\n        /* \"#utility.yul\":12853:12868   */\n      div\n        /* \"#utility.yul\":12850:12851   */\n      dup5\n        /* \"#utility.yul\":12847:12869   */\n      eq\n        /* \"#utility.yul\":12827:12828   */\n      dup4\n        /* \"#utility.yul\":12820:12829   */\n      iszero\n        /* \"#utility.yul\":12800:12883   */\n      or\n        /* \"#utility.yul\":12777:12916   */\n      tag_484\n      jumpi\n        /* \"#utility.yul\":12896:12914   */\n      tag_485\n      tag_293\n      jump\t// in\n    tag_485:\n        /* \"#utility.yul\":12777:12916   */\n    tag_484:\n        /* \"#utility.yul\":12561:12923   */\n      pop\n        /* \"#utility.yul\":12513:12923   */\n      swap3\n      swap2\n      pop\n      pop\n      jump\t// out\n        /* \"#utility.yul\":12929:13109   */\n    tag_294:\n        /* \"#utility.yul\":12977:13054   */\n      0x4e487b7100000000000000000000000000000000000000000000000000000000\n        /* \"#utility.yul\":12974:12975   */\n      0x00\n        /* \"#utility.yul\":12967:13055   */\n      mstore\n        /* \"#utility.yul\":13074:13078   */\n      0x12\n        /* \"#utility.yul\":13071:13072   */\n      0x04\n        /* \"#utility.yul\":13064:13079   */\n      mstore\n        /* \"#utility.yul\":13098:13102   */\n      0x24\n        /* \"#utility.yul\":13095:13096   */\n      0x00\n        /* \"#utility.yul\":13088:13103   */\n      revert\n        /* \"#utility.yul\":13115:13300   */\n    tag_105:\n        /* \"#utility.yul\":13155:13156   */\n      0x00\n        /* \"#utility.yul\":13172:13192   */\n      tag_488\n        /* \"#utility.yul\":13190:13191   */\n      dup3\n        /* \"#utility.yul\":13172:13192   */\n      tag_255\n      jump\t// in\n    tag_488:\n        /* \"#utility.yul\":13167:13192   */\n      swap2\n      pop\n        /* \"#utility.yul\":13206:13226   */\n      tag_489\n        /* \"#utility.yul\":13224:13225   */\n      dup4\n        /* \"#utility.yul\":13206:13226   */\n      tag_255\n      jump\t// in\n    tag_489:\n        /* \"#utility.yul\":13201:13226   */\n      swap3\n      pop\n        /* \"#utility.yul\":13245:13246   */\n      dup3\n        /* \"#utility.yul\":13235:13270   */\n      tag_490\n      jumpi\n        /* \"#utility.yul\":13250:13268   */\n      tag_491\n      tag_294\n      jump\t// in\n    tag_491:\n        /* \"#utility.yul\":13235:13270   */\n    tag_490:\n        /* \"#utility.yul\":13292:13293   */\n      dup3\n        /* \"#utility.yul\":13289:13290   */\n      dup3\n        /* \"#utility.yul\":13285:13294   */\n      div\n        /* \"#utility.yul\":13280:13294   */\n      swap1\n      pop\n        /* \"#utility.yul\":13115:13300   */\n      swap3\n      swap2\n      pop\n      pop\n      jump\t// out\n        /* \"#utility.yul\":13306:13497   */\n    tag_107:\n        /* \"#utility.yul\":13346:13349   */\n      0x00\n        /* \"#utility.yul\":13365:13385   */\n      tag_493\n        /* \"#utility.yul\":13383:13384   */\n      dup3\n        /* \"#utility.yul\":13365:13385   */\n      tag_255\n      jump\t// in\n    tag_493:\n        /* \"#utility.yul\":13360:13385   */\n      swap2\n      pop\n        /* \"#utility.yul\":13399:13419   */\n      tag_494\n        /* \"#utility.yul\":13417:13418   */\n      dup4\n        /* \"#utility.yul\":13399:13419   */\n      tag_255\n      jump\t// in\n    tag_494:\n        /* \"#utility.yul\":13394:13419   */\n      swap3\n      pop\n        /* \"#utility.yul\":13442:13443   */\n      dup3\n        /* \"#utility.yul\":13439:13440   */\n      dup3\n        /* \"#utility.yul\":13435:13444   */\n      add\n        /* \"#utility.yul\":13428:13444   */\n      swap1\n      pop\n        /* \"#utility.yul\":13463:13466   */\n      dup1\n        /* \"#utility.yul\":13460:13461   */\n      dup3\n        /* \"#utility.yul\":13457:13467   */\n      gt\n        /* \"#utility.yul\":13454:13490   */\n      iszero\n      tag_495\n      jumpi\n        /* \"#utility.yul\":13470:13488   */\n      tag_496\n      tag_293\n      jump\t// in\n    tag_496:\n        /* \"#utility.yul\":13454:13490   */\n    tag_495:\n        /* \"#utility.yul\":13306:13497   */\n      swap3\n      swap2\n      pop\n      pop\n      jump\t// out\n        /* \"#utility.yul\":13503:13602   */\n    tag_295:\n        /* \"#utility.yul\":13555:13561   */\n      0x00\n        /* \"#utility.yul\":13589:13594   */\n      dup2\n        /* \"#utility.yul\":13583:13595   */\n      mload\n        /* \"#utility.yul\":13573:13595   */\n      swap1\n      pop\n        /* \"#utility.yul\":13503:13602   */\n      swap2\n      swap1\n      pop\n      jump\t// out\n        /* \"#utility.yul\":13608:13747   */\n    tag_296:\n        /* \"#utility.yul\":13697:13703   */\n      dup3\n        /* \"#utility.yul\":13692:13695   */\n      dup2\n        /* \"#utility.yul\":13687:13690   */\n      dup4\n        /* \"#utility.yul\":13681:13704   */\n      mcopy\n        /* \"#utility.yul\":13738:13739   */\n      0x00\n        /* \"#utility.yul\":13729:13735   */\n      dup4\n        /* \"#utility.yul\":13724:13727   */\n      dup4\n        /* \"#utility.yul\":13720:13736   */\n      add\n        /* \"#utility.yul\":13713:13740   */\n      mstore\n        /* \"#utility.yul\":13608:13747   */\n      pop\n      pop\n      pop\n      jump\t// out\n        /* \"#utility.yul\":13753:14130   */\n    tag_297:\n        /* \"#utility.yul\":13841:13844   */\n      0x00\n        /* \"#utility.yul\":13869:13908   */\n      tag_500\n        /* \"#utility.yul\":13902:13907   */\n      dup3\n        /* \"#utility.yul\":13869:13908   */\n      tag_295\n      jump\t// in\n    tag_500:\n        /* \"#utility.yul\":13924:13995   */\n      tag_501\n        /* \"#utility.yul\":13988:13994   */\n      dup2\n        /* \"#utility.yul\":13983:13986   */\n      dup6\n        /* \"#utility.yul\":13924:13995   */\n      tag_285\n      jump\t// in\n    tag_501:\n        /* \"#utility.yul\":13917:13995   */\n      swap4\n      pop\n        /* \"#utility.yul\":14004:14069   */\n      tag_502\n        /* \"#utility.yul\":14062:14068   */\n      dup2\n        /* \"#utility.yul\":14057:14060   */\n      dup6\n        /* \"#utility.yul\":14050:14054   */\n      0x20\n        /* \"#utility.yul\":14043:14048   */\n      dup7\n        /* \"#utility.yul\":14039:14055   */\n      add\n        /* \"#utility.yul\":14004:14069   */\n      tag_296\n      jump\t// in\n    tag_502:\n        /* \"#utility.yul\":14094:14123   */\n      tag_503\n        /* \"#utility.yul\":14116:14122   */\n      dup2\n        /* \"#utility.yul\":14094:14123   */\n      tag_262\n      jump\t// in\n    tag_503:\n        /* \"#utility.yul\":14089:14092   */\n      dup5\n        /* \"#utility.yul\":14085:14124   */\n      add\n        /* \"#utility.yul\":14078:14124   */\n      swap2\n      pop\n        /* \"#utility.yul\":13845:14130   */\n      pop\n        /* \"#utility.yul\":13753:14130   */\n      swap3\n      swap2\n      pop\n      pop\n      jump\t// out\n        /* \"#utility.yul\":14136:14449   */\n    tag_111:\n        /* \"#utility.yul\":14249:14253   */\n      0x00\n        /* \"#utility.yul\":14287:14289   */\n      0x20\n        /* \"#utility.yul\":14276:14285   */\n      dup3\n        /* \"#utility.yul\":14272:14290   */\n      add\n        /* \"#utility.yul\":14264:14290   */\n      swap1\n      pop\n        /* \"#utility.yul\":14336:14345   */\n      dup2\n        /* \"#utility.yul\":14330:14334   */\n      dup2\n        /* \"#utility.yul\":14326:14346   */\n      sub\n        /* \"#utility.yul\":14322:14323   */\n      0x00\n        /* \"#utility.yul\":14311:14320   */\n      dup4\n        /* \"#utility.yul\":14307:14324   */\n      add\n        /* \"#utility.yul\":14300:14347   */\n      mstore\n        /* \"#utility.yul\":14364:14442   */\n      tag_505\n        /* \"#utility.yul\":14437:14441   */\n      dup2\n        /* \"#utility.yul\":14428:14434   */\n      dup5\n        /* \"#utility.yul\":14364:14442   */\n      tag_297\n      jump\t// in\n    tag_505:\n        /* \"#utility.yul\":14356:14442   */\n      swap1\n      pop\n        /* \"#utility.yul\":14136:14449   */\n      swap3\n      swap2\n      pop\n      pop\n      jump\t// out\n        /* \"#utility.yul\":14455:14598   */\n    tag_298:\n        /* \"#utility.yul\":14512:14517   */\n      0x00\n        /* \"#utility.yul\":14543:14549   */\n      dup2\n        /* \"#utility.yul\":14537:14550   */\n      mload\n        /* \"#utility.yul\":14528:14550   */\n      swap1\n      pop\n        /* \"#utility.yul\":14559:14592   */\n      tag_507\n        /* \"#utility.yul\":14586:14591   */\n      dup2\n        /* \"#utility.yul\":14559:14592   */\n      tag_281\n      jump\t// in\n    tag_507:\n        /* \"#utility.yul\":14455:14598   */\n      swap3\n      swap2\n      pop\n      pop\n      jump\t// out\n        /* \"#utility.yul\":14604:14955   */\n    tag_115:\n        /* \"#utility.yul\":14674:14680   */\n      0x00\n        /* \"#utility.yul\":14723:14725   */\n      0x20\n        /* \"#utility.yul\":14711:14720   */\n      dup3\n        /* \"#utility.yul\":14702:14709   */\n      dup5\n        /* \"#utility.yul\":14698:14721   */\n      sub\n        /* \"#utility.yul\":14694:14726   */\n      slt\n        /* \"#utility.yul\":14691:14810   */\n      iszero\n      tag_509\n      jumpi\n        /* \"#utility.yul\":14729:14808   */\n      tag_510\n      tag_253\n      jump\t// in\n    tag_510:\n        /* \"#utility.yul\":14691:14810   */\n    tag_509:\n        /* \"#utility.yul\":14849:14850   */\n      0x00\n        /* \"#utility.yul\":14874:14938   */\n      tag_511\n        /* \"#utility.yul\":14930:14937   */\n      dup5\n        /* \"#utility.yul\":14921:14927   */\n      dup3\n        /* \"#utility.yul\":14910:14919   */\n      dup6\n        /* \"#utility.yul\":14906:14928   */\n      add\n        /* \"#utility.yul\":14874:14938   */\n      tag_298\n      jump\t// in\n    tag_511:\n        /* \"#utility.yul\":14864:14938   */\n      swap2\n      pop\n        /* \"#utility.yul\":14820:14948   */\n      pop\n        /* \"#utility.yul\":14604:14955   */\n      swap3\n      swap2\n      pop\n      pop\n      jump\t// out\n        /* \"#utility.yul\":14961:15134   */\n    tag_299:\n        /* \"#utility.yul\":15101:15126   */\n      0x43616c6c6572206973206e6f7420746865206f776e6572000000000000000000\n        /* \"#utility.yul\":15097:15098   */\n      0x00\n        /* \"#utility.yul\":15089:15095   */\n      dup3\n        /* \"#utility.yul\":15085:15099   */\n      add\n        /* \"#utility.yul\":15078:15127   */\n      mstore\n        /* \"#utility.yul\":14961:15134   */\n      pop\n      jump\t// out\n        /* \"#utility.yul\":15140:15506   */\n    tag_300:\n        /* \"#utility.yul\":15282:15285   */\n      0x00\n        /* \"#utility.yul\":15303:15370   */\n      tag_514\n        /* \"#utility.yul\":15367:15369   */\n      0x17\n        /* \"#utility.yul\":15362:15365   */\n      dup4\n        /* \"#utility.yul\":15303:15370   */\n      tag_285\n      jump\t// in\n    tag_514:\n        /* \"#utility.yul\":15296:15370   */\n      swap2\n      pop\n        /* \"#utility.yul\":15379:15472   */\n      tag_515\n        /* \"#utility.yul\":15468:15471   */\n      dup3\n        /* \"#utility.yul\":15379:15472   */\n      tag_299\n      jump\t// in\n    tag_515:\n        /* \"#utility.yul\":15497:15499   */\n      0x20\n        /* \"#utility.yul\":15492:15495   */\n      dup3\n        /* \"#utility.yul\":15488:15500   */\n      add\n        /* \"#utility.yul\":15481:15500   */\n      swap1\n      pop\n        /* \"#utility.yul\":15140:15506   */\n      swap2\n      swap1\n      pop\n      jump\t// out\n        /* \"#utility.yul\":15512:15931   */\n    tag_134:\n        /* \"#utility.yul\":15678:15682   */\n      0x00\n        /* \"#utility.yul\":15716:15718   */\n      0x20\n        /* \"#utility.yul\":15705:15714   */\n      dup3\n        /* \"#utility.yul\":15701:15719   */\n      add\n        /* \"#utility.yul\":15693:15719   */\n      swap1\n      pop\n        /* \"#utility.yul\":15765:15774   */\n      dup2\n        /* \"#utility.yul\":15759:15763   */\n      dup2\n        /* \"#utility.yul\":15755:15775   */\n      sub\n        /* \"#utility.yul\":15751:15752   */\n      0x00\n        /* \"#utility.yul\":15740:15749   */\n      dup4\n        /* \"#utility.yul\":15736:15753   */\n      add\n        /* \"#utility.yul\":15729:15776   */\n      mstore\n        /* \"#utility.yul\":15793:15924   */\n      tag_517\n        /* \"#utility.yul\":15919:15923   */\n      dup2\n        /* \"#utility.yul\":15793:15924   */\n      tag_300\n      jump\t// in\n    tag_517:\n        /* \"#utility.yul\":15785:15924   */\n      swap1\n      pop\n        /* \"#utility.yul\":15512:15931   */\n      swap2\n      swap1\n      pop\n      jump\t// out\n        /* \"#utility.yul\":15937:16109   */\n    tag_301:\n        /* \"#utility.yul\":16077:16101   */\n      0x436f6e7472616374206973206e6f742061637469766500000000000000000000\n        /* \"#utility.yul\":16073:16074   */\n      0x00\n        /* \"#utility.yul\":16065:16071   */\n      dup3\n        /* \"#utility.yul\":16061:16075   */\n      add\n        /* \"#utility.yul\":16054:16102   */\n      mstore\n        /* \"#utility.yul\":15937:16109   */\n      pop\n      jump\t// out\n        /* \"#utility.yul\":16115:16481   */\n    tag_302:\n        /* \"#utility.yul\":16257:16260   */\n      0x00\n        /* \"#utility.yul\":16278:16345   */\n      tag_520\n        /* \"#utility.yul\":16342:16344   */\n      0x16\n        /* \"#utility.yul\":16337:16340   */\n      dup4\n        /* \"#utility.yul\":16278:16345   */\n      tag_285\n      jump\t// in\n    tag_520:\n        /* \"#utility.yul\":16271:16345   */\n      swap2\n      pop\n        /* \"#utility.yul\":16354:16447   */\n      tag_521\n        /* \"#utility.yul\":16443:16446   */\n      dup3\n        /* \"#utility.yul\":16354:16447   */\n      tag_301\n      jump\t// in\n    tag_521:\n        /* \"#utility.yul\":16472:16474   */\n      0x20\n        /* \"#utility.yul\":16467:16470   */\n      dup3\n        /* \"#utility.yul\":16463:16475   */\n      add\n        /* \"#utility.yul\":16456:16475   */\n      swap1\n      pop\n        /* \"#utility.yul\":16115:16481   */\n      swap2\n      swap1\n      pop\n      jump\t// out\n        /* \"#utility.yul\":16487:16906   */\n    tag_154:\n        /* \"#utility.yul\":16653:16657   */\n      0x00\n        /* \"#utility.yul\":16691:16693   */\n      0x20\n        /* \"#utility.yul\":16680:16689   */\n      dup3\n        /* \"#utility.yul\":16676:16694   */\n      add\n        /* \"#utility.yul\":16668:16694   */\n      swap1\n      pop\n        /* \"#utility.yul\":16740:16749   */\n      dup2\n        /* \"#utility.yul\":16734:16738   */\n      dup2\n        /* \"#utility.yul\":16730:16750   */\n      sub\n        /* \"#utility.yul\":16726:16727   */\n      0x00\n        /* \"#utility.yul\":16715:16724   */\n      dup4\n        /* \"#utility.yul\":16711:16728   */\n      add\n        /* \"#utility.yul\":16704:16751   */\n      mstore\n        /* \"#utility.yul\":16768:16899   */\n      tag_523\n        /* \"#utility.yul\":16894:16898   */\n      dup2\n        /* \"#utility.yul\":16768:16899   */\n      tag_302\n      jump\t// in\n    tag_523:\n        /* \"#utility.yul\":16760:16899   */\n      swap1\n      pop\n        /* \"#utility.yul\":16487:16906   */\n      swap2\n      swap1\n      pop\n      jump\t// out\n        /* \"#utility.yul\":16912:17029   */\n    tag_303:\n        /* \"#utility.yul\":17021:17022   */\n      0x00\n        /* \"#utility.yul\":17018:17019   */\n      0x00\n        /* \"#utility.yul\":17011:17023   */\n      revert\n        /* \"#utility.yul\":17035:17152   */\n    tag_304:\n        /* \"#utility.yul\":17144:17145   */\n      0x00\n        /* \"#utility.yul\":17141:17142   */\n      0x00\n        /* \"#utility.yul\":17134:17146   */\n      revert\n        /* \"#utility.yul\":17158:17275   */\n    tag_305:\n        /* \"#utility.yul\":17267:17268   */\n      0x00\n        /* \"#utility.yul\":17264:17265   */\n      0x00\n        /* \"#utility.yul\":17257:17269   */\n      revert\n        /* \"#utility.yul\":17281:17993   */\n    tag_306:\n        /* \"#utility.yul\":17346:17351   */\n      0x00\n        /* \"#utility.yul\":17353:17359   */\n      0x00\n        /* \"#utility.yul\":17409:17412   */\n      dup4\n        /* \"#utility.yul\":17396:17413   */\n      calldataload\n        /* \"#utility.yul\":17501:17502   */\n      0x01\n        /* \"#utility.yul\":17495:17499   */\n      0x20\n        /* \"#utility.yul\":17491:17503   */\n      sub\n        /* \"#utility.yul\":17480:17488   */\n      dup5\n        /* \"#utility.yul\":17464:17478   */\n      calldatasize\n        /* \"#utility.yul\":17460:17489   */\n      sub\n        /* \"#utility.yul\":17456:17504   */\n      sub\n        /* \"#utility.yul\":17436:17454   */\n      dup2\n        /* \"#utility.yul\":17432:17505   */\n      slt\n        /* \"#utility.yul\":17422:17590   */\n      tag_528\n      jumpi\n        /* \"#utility.yul\":17509:17588   */\n      tag_529\n      tag_305\n      jump\t// in\n    tag_529:\n        /* \"#utility.yul\":17422:17590   */\n    tag_528:\n        /* \"#utility.yul\":17632:17640   */\n      dup4\n        /* \"#utility.yul\":17612:17630   */\n      dup2\n        /* \"#utility.yul\":17608:17641   */\n      add\n        /* \"#utility.yul\":17599:17641   */\n      swap3\n      pop\n        /* \"#utility.yul\":17674:17679   */\n      dup3\n        /* \"#utility.yul\":17661:17680   */\n      calldataload\n        /* \"#utility.yul\":17651:17680   */\n      swap2\n      pop\n        /* \"#utility.yul\":17709:17713   */\n      0x20\n        /* \"#utility.yul\":17702:17707   */\n      dup4\n        /* \"#utility.yul\":17698:17714   */\n      add\n        /* \"#utility.yul\":17689:17714   */\n      swap3\n      pop\n        /* \"#utility.yul\":17737:17755   */\n      0xffffffffffffffff\n        /* \"#utility.yul\":17729:17735   */\n      dup3\n        /* \"#utility.yul\":17726:17756   */\n      gt\n        /* \"#utility.yul\":17723:17840   */\n      iszero\n      tag_530\n      jumpi\n        /* \"#utility.yul\":17759:17838   */\n      tag_531\n      tag_303\n      jump\t// in\n    tag_531:\n        /* \"#utility.yul\":17723:17840   */\n    tag_530:\n        /* \"#utility.yul\":17895:17899   */\n      0x01\n        /* \"#utility.yul\":17887:17893   */\n      dup3\n        /* \"#utility.yul\":17883:17900   */\n      mul\n        /* \"#utility.yul\":17867:17881   */\n      calldatasize\n        /* \"#utility.yul\":17863:17901   */\n      sub\n        /* \"#utility.yul\":17856:17861   */\n      dup4\n        /* \"#utility.yul\":17852:17902   */\n      sgt\n        /* \"#utility.yul\":17849:17986   */\n      iszero\n      tag_532\n      jumpi\n        /* \"#utility.yul\":17905:17984   */\n      tag_533\n      tag_304\n      jump\t// in\n    tag_533:\n        /* \"#utility.yul\":17849:17986   */\n    tag_532:\n        /* \"#utility.yul\":17360:17993   */\n      pop\n        /* \"#utility.yul\":17281:17993   */\n      swap3\n      pop\n      swap3\n      swap1\n      pop\n      jump\t// out\n        /* \"#utility.yul\":17999:18158   */\n    tag_307:\n        /* \"#utility.yul\":18073:18084   */\n      0x00\n        /* \"#utility.yul\":18107:18113   */\n      dup3\n        /* \"#utility.yul\":18102:18105   */\n      dup3\n        /* \"#utility.yul\":18095:18114   */\n      mstore\n        /* \"#utility.yul\":18147:18151   */\n      0x20\n        /* \"#utility.yul\":18142:18145   */\n      dup3\n        /* \"#utility.yul\":18138:18152   */\n      add\n        /* \"#utility.yul\":18123:18152   */\n      swap1\n      pop\n        /* \"#utility.yul\":17999:18158   */\n      swap3\n      swap2\n      pop\n      pop\n      jump\t// out\n        /* \"#utility.yul\":18188:18485   */\n    tag_308:\n        /* \"#utility.yul\":18276:18279   */\n      0x00\n        /* \"#utility.yul\":18297:18358   */\n      tag_536\n        /* \"#utility.yul\":18351:18357   */\n      dup4\n        /* \"#utility.yul\":18346:18349   */\n      dup6\n        /* \"#utility.yul\":18297:18358   */\n      tag_307\n      jump\t// in\n    tag_536:\n        /* \"#utility.yul\":18290:18358   */\n      swap4\n      pop\n        /* \"#utility.yul\":18368:18424   */\n      tag_537\n        /* \"#utility.yul\":18417:18423   */\n      dup4\n        /* \"#utility.yul\":18412:18415   */\n      dup6\n        /* \"#utility.yul\":18405:18410   */\n      dup5\n        /* \"#utility.yul\":18368:18424   */\n      tag_267\n      jump\t// in\n    tag_537:\n        /* \"#utility.yul\":18449:18478   */\n      tag_538\n        /* \"#utility.yul\":18471:18477   */\n      dup4\n        /* \"#utility.yul\":18449:18478   */\n      tag_262\n      jump\t// in\n    tag_538:\n        /* \"#utility.yul\":18444:18447   */\n      dup5\n        /* \"#utility.yul\":18440:18479   */\n      add\n        /* \"#utility.yul\":18433:18479   */\n      swap1\n      pop\n        /* \"#utility.yul\":18188:18485   */\n      swap4\n      swap3\n      pop\n      pop\n      pop\n      jump\t// out\n        /* \"#utility.yul\":18491:19244   */\n    tag_309:\n        /* \"#utility.yul\":18597:18602   */\n      0x00\n        /* \"#utility.yul\":18604:18610   */\n      0x00\n        /* \"#utility.yul\":18660:18663   */\n      dup4\n        /* \"#utility.yul\":18647:18664   */\n      calldataload\n        /* \"#utility.yul\":18752:18753   */\n      0x01\n        /* \"#utility.yul\":18746:18750   */\n      0x20\n        /* \"#utility.yul\":18742:18754   */\n      sub\n        /* \"#utility.yul\":18731:18739   */\n      dup5\n        /* \"#utility.yul\":18715:18729   */\n      calldatasize\n        /* \"#utility.yul\":18711:18740   */\n      sub\n        /* \"#utility.yul\":18707:18755   */\n      sub\n        /* \"#utility.yul\":18687:18705   */\n      dup2\n        /* \"#utility.yul\":18683:18756   */\n      slt\n        /* \"#utility.yul\":18673:18841   */\n      tag_540\n      jumpi\n        /* \"#utility.yul\":18760:18839   */\n      tag_541\n      tag_305\n      jump\t// in\n    tag_541:\n        /* \"#utility.yul\":18673:18841   */\n    tag_540:\n        /* \"#utility.yul\":18883:18891   */\n      dup4\n        /* \"#utility.yul\":18863:18881   */\n      dup2\n        /* \"#utility.yul\":18859:18892   */\n      add\n        /* \"#utility.yul\":18850:18892   */\n      swap3\n      pop\n        /* \"#utility.yul\":18925:18930   */\n      dup3\n        /* \"#utility.yul\":18912:18931   */\n      calldataload\n        /* \"#utility.yul\":18902:18931   */\n      swap2\n      pop\n        /* \"#utility.yul\":18960:18964   */\n      0x20\n        /* \"#utility.yul\":18953:18958   */\n      dup4\n        /* \"#utility.yul\":18949:18965   */\n      add\n        /* \"#utility.yul\":18940:18965   */\n      swap3\n      pop\n        /* \"#utility.yul\":18988:19006   */\n      0xffffffffffffffff\n        /* \"#utility.yul\":18980:18986   */\n      dup3\n        /* \"#utility.yul\":18977:19007   */\n      gt\n        /* \"#utility.yul\":18974:19091   */\n      iszero\n      tag_542\n      jumpi\n        /* \"#utility.yul\":19010:19089   */\n      tag_543\n      tag_303\n      jump\t// in\n    tag_543:\n        /* \"#utility.yul\":18974:19091   */\n    tag_542:\n        /* \"#utility.yul\":19146:19150   */\n      0x40\n        /* \"#utility.yul\":19138:19144   */\n      dup3\n        /* \"#utility.yul\":19134:19151   */\n      mul\n        /* \"#utility.yul\":19118:19132   */\n      calldatasize\n        /* \"#utility.yul\":19114:19152   */\n      sub\n        /* \"#utility.yul\":19107:19112   */\n      dup4\n        /* \"#utility.yul\":19103:19153   */\n      sgt\n        /* \"#utility.yul\":19100:19237   */\n      iszero\n      tag_544\n      jumpi\n        /* \"#utility.yul\":19156:19235   */\n      tag_545\n      tag_304\n      jump\t// in\n    tag_545:\n        /* \"#utility.yul\":19100:19237   */\n    tag_544:\n        /* \"#utility.yul\":18611:19244   */\n      pop\n        /* \"#utility.yul\":18491:19244   */\n      swap3\n      pop\n      swap3\n      swap1\n      pop\n      jump\t// out\n        /* \"#utility.yul\":19250:19448   */\n    tag_310:\n        /* \"#utility.yul\":19363:19374   */\n      0x00\n        /* \"#utility.yul\":19397:19403   */\n      dup3\n        /* \"#utility.yul\":19392:19395   */\n      dup3\n        /* \"#utility.yul\":19385:19404   */\n      mstore\n        /* \"#utility.yul\":19437:19441   */\n      0x20\n        /* \"#utility.yul\":19432:19435   */\n      dup3\n        /* \"#utility.yul\":19428:19442   */\n      add\n        /* \"#utility.yul\":19413:19442   */\n      swap1\n      pop\n        /* \"#utility.yul\":19250:19448   */\n      swap3\n      swap2\n      pop\n      pop\n      jump\t// out\n        /* \"#utility.yul\":19454:19582   */\n    tag_311:\n        /* \"#utility.yul\":19549:19553   */\n      0x00\n        /* \"#utility.yul\":19572:19575   */\n      dup2\n        /* \"#utility.yul\":19564:19575   */\n      swap1\n      pop\n        /* \"#utility.yul\":19454:19582   */\n      swap2\n      swap1\n      pop\n      jump\t// out\n        /* \"#utility.yul\":19588:19710   */\n    tag_312:\n        /* \"#utility.yul\":19640:19645   */\n      0x00\n        /* \"#utility.yul\":19665:19704   */\n      tag_549\n        /* \"#utility.yul\":19700:19702   */\n      0x20\n        /* \"#utility.yul\":19695:19698   */\n      dup5\n        /* \"#utility.yul\":19691:19703   */\n      add\n        /* \"#utility.yul\":19686:19689   */\n      dup5\n        /* \"#utility.yul\":19665:19704   */\n      tag_282\n      jump\t// in\n    tag_549:\n        /* \"#utility.yul\":19656:19704   */\n      swap1\n      pop\n        /* \"#utility.yul\":19588:19710   */\n      swap3\n      swap2\n      pop\n      pop\n      jump\t// out\n        /* \"#utility.yul\":19716:19824   */\n    tag_313:\n        /* \"#utility.yul\":19793:19817   */\n      tag_551\n        /* \"#utility.yul\":19811:19816   */\n      dup2\n        /* \"#utility.yul\":19793:19817   */\n      tag_271\n      jump\t// in\n    tag_551:\n        /* \"#utility.yul\":19788:19791   */\n      dup3\n        /* \"#utility.yul\":19781:19818   */\n      mstore\n        /* \"#utility.yul\":19716:19824   */\n      pop\n      pop\n      jump\t// out\n        /* \"#utility.yul\":19830:19919   */\n    tag_314:\n        /* \"#utility.yul\":19866:19873   */\n      0x00\n        /* \"#utility.yul\":19906:19912   */\n      0xffff\n        /* \"#utility.yul\":19899:19904   */\n      dup3\n        /* \"#utility.yul\":19895:19913   */\n      and\n        /* \"#utility.yul\":19884:19913   */\n      swap1\n      pop\n        /* \"#utility.yul\":19830:19919   */\n      swap2\n      swap1\n      pop\n      jump\t// out\n        /* \"#utility.yul\":19925:20045   */\n    tag_315:\n        /* \"#utility.yul\":19997:20020   */\n      tag_554\n        /* \"#utility.yul\":20014:20019   */\n      dup2\n        /* \"#utility.yul\":19997:20020   */\n      tag_314\n      jump\t// in\n    tag_554:\n        /* \"#utility.yul\":19990:19995   */\n      dup2\n        /* \"#utility.yul\":19987:20021   */\n      eq\n        /* \"#utility.yul\":19977:20039   */\n      tag_555\n      jumpi\n        /* \"#utility.yul\":20035:20036   */\n      0x00\n        /* \"#utility.yul\":20032:20033   */\n      0x00\n        /* \"#utility.yul\":20025:20037   */\n      revert\n        /* \"#utility.yul\":19977:20039   */\n    tag_555:\n        /* \"#utility.yul\":19925:20045   */\n      pop\n      jump\t// out\n        /* \"#utility.yul\":20051:20188   */\n    tag_316:\n        /* \"#utility.yul\":20096:20101   */\n      0x00\n        /* \"#utility.yul\":20134:20140   */\n      dup2\n        /* \"#utility.yul\":20121:20141   */\n      calldataload\n        /* \"#utility.yul\":20112:20141   */\n      swap1\n      pop\n        /* \"#utility.yul\":20150:20182   */\n      tag_557\n        /* \"#utility.yul\":20176:20181   */\n      dup2\n        /* \"#utility.yul\":20150:20182   */\n      tag_315\n      jump\t// in\n    tag_557:\n        /* \"#utility.yul\":20051:20188   */\n      swap3\n      swap2\n      pop\n      pop\n      jump\t// out\n        /* \"#utility.yul\":20194:20314   */\n    tag_317:\n        /* \"#utility.yul\":20245:20250   */\n      0x00\n        /* \"#utility.yul\":20270:20308   */\n      tag_559\n        /* \"#utility.yul\":20304:20306   */\n      0x20\n        /* \"#utility.yul\":20299:20302   */\n      dup5\n        /* \"#utility.yul\":20295:20307   */\n      add\n        /* \"#utility.yul\":20290:20293   */\n      dup5\n        /* \"#utility.yul\":20270:20308   */\n      tag_316\n      jump\t// in\n    tag_559:\n        /* \"#utility.yul\":20261:20308   */\n      swap1\n      pop\n        /* \"#utility.yul\":20194:20314   */\n      swap3\n      swap2\n      pop\n      pop\n      jump\t// out\n        /* \"#utility.yul\":20320:20425   */\n    tag_318:\n        /* \"#utility.yul\":20395:20418   */\n      tag_561\n        /* \"#utility.yul\":20412:20417   */\n      dup2\n        /* \"#utility.yul\":20395:20418   */\n      tag_314\n      jump\t// in\n    tag_561:\n        /* \"#utility.yul\":20390:20393   */\n      dup3\n        /* \"#utility.yul\":20383:20419   */\n      mstore\n        /* \"#utility.yul\":20320:20425   */\n      pop\n      pop\n      jump\t// out\n        /* \"#utility.yul\":20471:21033   */\n    tag_319:\n        /* \"#utility.yul\":20608:20612   */\n      0x40\n        /* \"#utility.yul\":20603:20606   */\n      dup3\n        /* \"#utility.yul\":20599:20613   */\n      add\n        /* \"#utility.yul\":20686:20736   */\n      tag_563\n        /* \"#utility.yul\":20730:20734   */\n      0x00\n        /* \"#utility.yul\":20723:20728   */\n      dup4\n        /* \"#utility.yul\":20719:20735   */\n      add\n        /* \"#utility.yul\":20712:20717   */\n      dup4\n        /* \"#utility.yul\":20686:20736   */\n      tag_312\n      jump\t// in\n    tag_563:\n        /* \"#utility.yul\":20749:20812   */\n      tag_564\n        /* \"#utility.yul\":20806:20810   */\n      0x00\n        /* \"#utility.yul\":20801:20804   */\n      dup6\n        /* \"#utility.yul\":20797:20811   */\n      add\n        /* \"#utility.yul\":20783:20795   */\n      dup3\n        /* \"#utility.yul\":20749:20812   */\n      tag_313\n      jump\t// in\n    tag_564:\n        /* \"#utility.yul\":20623:20822   */\n      pop\n        /* \"#utility.yul\":20893:20942   */\n      tag_565\n        /* \"#utility.yul\":20936:20940   */\n      0x20\n        /* \"#utility.yul\":20929:20934   */\n      dup4\n        /* \"#utility.yul\":20925:20941   */\n      add\n        /* \"#utility.yul\":20918:20923   */\n      dup4\n        /* \"#utility.yul\":20893:20942   */\n      tag_317\n      jump\t// in\n    tag_565:\n        /* \"#utility.yul\":20955:21016   */\n      tag_566\n        /* \"#utility.yul\":21010:21014   */\n      0x20\n        /* \"#utility.yul\":21005:21008   */\n      dup6\n        /* \"#utility.yul\":21001:21015   */\n      add\n        /* \"#utility.yul\":20987:20999   */\n      dup3\n        /* \"#utility.yul\":20955:21016   */\n      tag_318\n      jump\t// in\n    tag_566:\n        /* \"#utility.yul\":20832:21026   */\n      pop\n        /* \"#utility.yul\":20577:21033   */\n      pop\n        /* \"#utility.yul\":20471:21033   */\n      pop\n      pop\n      jump\t// out\n        /* \"#utility.yul\":21039:21318   */\n    tag_320:\n        /* \"#utility.yul\":21158:21168   */\n      0x00\n        /* \"#utility.yul\":21179:21275   */\n      tag_568\n        /* \"#utility.yul\":21271:21274   */\n      dup4\n        /* \"#utility.yul\":21263:21269   */\n      dup4\n        /* \"#utility.yul\":21179:21275   */\n      tag_319\n      jump\t// in\n    tag_568:\n        /* \"#utility.yul\":21307:21311   */\n      0x40\n        /* \"#utility.yul\":21302:21305   */\n      dup4\n        /* \"#utility.yul\":21298:21312   */\n      add\n        /* \"#utility.yul\":21284:21312   */\n      swap1\n      pop\n        /* \"#utility.yul\":21039:21318   */\n      swap3\n      swap2\n      pop\n      pop\n      jump\t// out\n        /* \"#utility.yul\":21324:21436   */\n    tag_321:\n        /* \"#utility.yul\":21402:21407   */\n      0x00\n        /* \"#utility.yul\":21427:21430   */\n      dup3\n        /* \"#utility.yul\":21418:21430   */\n      swap1\n      pop\n        /* \"#utility.yul\":21324:21436   */\n      swap3\n      swap2\n      pop\n      pop\n      jump\t// out\n        /* \"#utility.yul\":21442:21583   */\n    tag_322:\n        /* \"#utility.yul\":21540:21544   */\n      0x00\n        /* \"#utility.yul\":21572:21576   */\n      0x40\n        /* \"#utility.yul\":21567:21570   */\n      dup3\n        /* \"#utility.yul\":21563:21577   */\n      add\n        /* \"#utility.yul\":21555:21577   */\n      swap1\n      pop\n        /* \"#utility.yul\":21442:21583   */\n      swap2\n      swap1\n      pop\n      jump\t// out\n        /* \"#utility.yul\":21633:22514   */\n    tag_323:\n        /* \"#utility.yul\":21802:21805   */\n      0x00\n        /* \"#utility.yul\":21825:21925   */\n      tag_572\n        /* \"#utility.yul\":21918:21924   */\n      dup4\n        /* \"#utility.yul\":21913:21916   */\n      dup6\n        /* \"#utility.yul\":21825:21925   */\n      tag_310\n      jump\t// in\n    tag_572:\n        /* \"#utility.yul\":21818:21925   */\n      swap4\n      pop\n        /* \"#utility.yul\":21949:22033   */\n      tag_573\n        /* \"#utility.yul\":22027:22032   */\n      dup3\n        /* \"#utility.yul\":21949:22033   */\n      tag_311\n      jump\t// in\n    tag_573:\n        /* \"#utility.yul\":22056:22063   */\n      dup1\n        /* \"#utility.yul\":22087:22088   */\n      0x00\n        /* \"#utility.yul\":22072:22489   */\n    tag_574:\n        /* \"#utility.yul\":22097:22103   */\n      dup6\n        /* \"#utility.yul\":22094:22095   */\n      dup2\n        /* \"#utility.yul\":22091:22104   */\n      lt\n        /* \"#utility.yul\":22072:22489   */\n      iszero\n      tag_576\n      jumpi\n        /* \"#utility.yul\":22167:22235   */\n      tag_577\n        /* \"#utility.yul\":22228:22234   */\n      dup3\n        /* \"#utility.yul\":22219:22226   */\n      dup5\n        /* \"#utility.yul\":22167:22235   */\n      tag_321\n      jump\t// in\n    tag_577:\n        /* \"#utility.yul\":22255:22368   */\n      tag_578\n        /* \"#utility.yul\":22364:22367   */\n      dup9\n        /* \"#utility.yul\":22349:22362   */\n      dup3\n        /* \"#utility.yul\":22255:22368   */\n      tag_320\n      jump\t// in\n    tag_578:\n        /* \"#utility.yul\":22248:22368   */\n      swap8\n      pop\n        /* \"#utility.yul\":22391:22479   */\n      tag_579\n        /* \"#utility.yul\":22472:22478   */\n      dup4\n        /* \"#utility.yul\":22391:22479   */\n      tag_322\n      jump\t// in\n    tag_579:\n        /* \"#utility.yul\":22381:22479   */\n      swap3\n      pop\n        /* \"#utility.yul\":22132:22489   */\n      pop\n        /* \"#utility.yul\":22119:22120   */\n      0x01\n        /* \"#utility.yul\":22116:22117   */\n      dup2\n        /* \"#utility.yul\":22112:22121   */\n      add\n        /* \"#utility.yul\":22107:22121   */\n      swap1\n      pop\n        /* \"#utility.yul\":22072:22489   */\n      jump(tag_574)\n    tag_576:\n        /* \"#utility.yul\":22076:22090   */\n      pop\n        /* \"#utility.yul\":22505:22508   */\n      dup6\n        /* \"#utility.yul\":22498:22508   */\n      swap3\n      pop\n        /* \"#utility.yul\":21807:22514   */\n      pop\n      pop\n        /* \"#utility.yul\":21633:22514   */\n      swap4\n      swap3\n      pop\n      pop\n      pop\n      jump\t// out\n        /* \"#utility.yul\":22556:23808   */\n    tag_324:\n        /* \"#utility.yul\":22671:22674   */\n      0x00\n        /* \"#utility.yul\":22707:22711   */\n      0x60\n        /* \"#utility.yul\":22702:22705   */\n      dup4\n        /* \"#utility.yul\":22698:22712   */\n      add\n        /* \"#utility.yul\":22791:22853   */\n      tag_581\n        /* \"#utility.yul\":22847:22851   */\n      0x00\n        /* \"#utility.yul\":22840:22845   */\n      dup5\n        /* \"#utility.yul\":22836:22852   */\n      add\n        /* \"#utility.yul\":22829:22834   */\n      dup5\n        /* \"#utility.yul\":22791:22853   */\n      tag_306\n      jump\t// in\n    tag_581:\n        /* \"#utility.yul\":22900:22903   */\n      dup6\n        /* \"#utility.yul\":22894:22898   */\n      dup4\n        /* \"#utility.yul\":22890:22904   */\n      sub\n        /* \"#utility.yul\":22883:22887   */\n      0x00\n        /* \"#utility.yul\":22878:22881   */\n      dup8\n        /* \"#utility.yul\":22874:22888   */\n      add\n        /* \"#utility.yul\":22867:22905   */\n      mstore\n        /* \"#utility.yul\":22926:23015   */\n      tag_582\n        /* \"#utility.yul\":23010:23014   */\n      dup4\n        /* \"#utility.yul\":22996:23008   */\n      dup3\n        /* \"#utility.yul\":22982:22994   */\n      dup5\n        /* \"#utility.yul\":22926:23015   */\n      tag_308\n      jump\t// in\n    tag_582:\n        /* \"#utility.yul\":22918:23015   */\n      swap3\n      pop\n        /* \"#utility.yul\":22722:23026   */\n      pop\n      pop\n        /* \"#utility.yul\":23107:23169   */\n      tag_583\n        /* \"#utility.yul\":23163:23167   */\n      0x20\n        /* \"#utility.yul\":23156:23161   */\n      dup5\n        /* \"#utility.yul\":23152:23168   */\n      add\n        /* \"#utility.yul\":23145:23150   */\n      dup5\n        /* \"#utility.yul\":23107:23169   */\n      tag_306\n      jump\t// in\n    tag_583:\n        /* \"#utility.yul\":23216:23219   */\n      dup6\n        /* \"#utility.yul\":23210:23214   */\n      dup4\n        /* \"#utility.yul\":23206:23220   */\n      sub\n        /* \"#utility.yul\":23199:23203   */\n      0x20\n        /* \"#utility.yul\":23194:23197   */\n      dup8\n        /* \"#utility.yul\":23190:23204   */\n      add\n        /* \"#utility.yul\":23183:23221   */\n      mstore\n        /* \"#utility.yul\":23242:23331   */\n      tag_584\n        /* \"#utility.yul\":23326:23330   */\n      dup4\n        /* \"#utility.yul\":23312:23324   */\n      dup3\n        /* \"#utility.yul\":23298:23310   */\n      dup5\n        /* \"#utility.yul\":23242:23331   */\n      tag_308\n      jump\t// in\n    tag_584:\n        /* \"#utility.yul\":23234:23331   */\n      swap3\n      pop\n        /* \"#utility.yul\":23036:23342   */\n      pop\n      pop\n        /* \"#utility.yul\":23425:23528   */\n      tag_585\n        /* \"#utility.yul\":23522:23526   */\n      0x40\n        /* \"#utility.yul\":23515:23520   */\n      dup5\n        /* \"#utility.yul\":23511:23527   */\n      add\n        /* \"#utility.yul\":23504:23509   */\n      dup5\n        /* \"#utility.yul\":23425:23528   */\n      tag_309\n      jump\t// in\n    tag_585:\n        /* \"#utility.yul\":23575:23578   */\n      dup6\n        /* \"#utility.yul\":23569:23573   */\n      dup4\n        /* \"#utility.yul\":23565:23579   */\n      sub\n        /* \"#utility.yul\":23558:23562   */\n      0x40\n        /* \"#utility.yul\":23553:23556   */\n      dup8\n        /* \"#utility.yul\":23549:23563   */\n      add\n        /* \"#utility.yul\":23542:23580   */\n      mstore\n        /* \"#utility.yul\":23601:23770   */\n      tag_586\n        /* \"#utility.yul\":23765:23769   */\n      dup4\n        /* \"#utility.yul\":23751:23763   */\n      dup3\n        /* \"#utility.yul\":23737:23749   */\n      dup5\n        /* \"#utility.yul\":23601:23770   */\n      tag_323\n      jump\t// in\n    tag_586:\n        /* \"#utility.yul\":23593:23770   */\n      swap3\n      pop\n        /* \"#utility.yul\":23352:23781   */\n      pop\n      pop\n        /* \"#utility.yul\":23798:23802   */\n      dup1\n        /* \"#utility.yul\":23791:23802   */\n      swap2\n      pop\n        /* \"#utility.yul\":22676:23808   */\n      pop\n        /* \"#utility.yul\":22556:23808   */\n      swap3\n      swap2\n      pop\n      pop\n      jump\t// out\n        /* \"#utility.yul\":23814:24179   */\n    tag_159:\n        /* \"#utility.yul\":23953:23957   */\n      0x00\n        /* \"#utility.yul\":23991:23993   */\n      0x20\n        /* \"#utility.yul\":23980:23989   */\n      dup3\n        /* \"#utility.yul\":23976:23994   */\n      add\n        /* \"#utility.yul\":23968:23994   */\n      swap1\n      pop\n        /* \"#utility.yul\":24040:24049   */\n      dup2\n        /* \"#utility.yul\":24034:24038   */\n      dup2\n        /* \"#utility.yul\":24030:24050   */\n      sub\n        /* \"#utility.yul\":24026:24027   */\n      0x00\n        /* \"#utility.yul\":24015:24024   */\n      dup4\n        /* \"#utility.yul\":24011:24028   */\n      add\n        /* \"#utility.yul\":24004:24051   */\n      mstore\n        /* \"#utility.yul\":24068:24172   */\n      tag_588\n        /* \"#utility.yul\":24167:24171   */\n      dup2\n        /* \"#utility.yul\":24158:24164   */\n      dup5\n        /* \"#utility.yul\":24068:24172   */\n      tag_324\n      jump\t// in\n    tag_588:\n        /* \"#utility.yul\":24060:24172   */\n      swap1\n      pop\n        /* \"#utility.yul\":23814:24179   */\n      swap3\n      swap2\n      pop\n      pop\n      jump\t// out\n        /* \"#utility.yul\":24185:24302   */\n    tag_325:\n        /* \"#utility.yul\":24294:24295   */\n      0x00\n        /* \"#utility.yul\":24291:24292   */\n      0x00\n        /* \"#utility.yul\":24284:24296   */\n      revert\n        /* \"#utility.yul\":24308:24425   */\n    tag_326:\n        /* \"#utility.yul\":24417:24418   */\n      0x00\n        /* \"#utility.yul\":24414:24415   */\n      0x00\n        /* \"#utility.yul\":24407:24419   */\n      revert\n        /* \"#utility.yul\":24431:24548   */\n    tag_327:\n        /* \"#utility.yul\":24540:24541   */\n      0x00\n        /* \"#utility.yul\":24537:24538   */\n      0x00\n        /* \"#utility.yul\":24530:24542   */\n      revert\n        /* \"#utility.yul\":24554:25279   */\n    tag_166:\n        /* \"#utility.yul\":24632:24636   */\n      0x00\n        /* \"#utility.yul\":24638:24644   */\n      0x00\n        /* \"#utility.yul\":24694:24705   */\n      dup4\n        /* \"#utility.yul\":24681:24706   */\n      calldataload\n        /* \"#utility.yul\":24794:24795   */\n      0x01\n        /* \"#utility.yul\":24788:24792   */\n      0x20\n        /* \"#utility.yul\":24784:24796   */\n      sub\n        /* \"#utility.yul\":24773:24781   */\n      dup5\n        /* \"#utility.yul\":24757:24771   */\n      calldatasize\n        /* \"#utility.yul\":24753:24782   */\n      sub\n        /* \"#utility.yul\":24749:24797   */\n      sub\n        /* \"#utility.yul\":24729:24747   */\n      dup2\n        /* \"#utility.yul\":24725:24798   */\n      slt\n        /* \"#utility.yul\":24715:24883   */\n      tag_593\n      jumpi\n        /* \"#utility.yul\":24802:24881   */\n      tag_594\n      tag_325\n      jump\t// in\n    tag_594:\n        /* \"#utility.yul\":24715:24883   */\n    tag_593:\n        /* \"#utility.yul\":24914:24932   */\n      dup1\n        /* \"#utility.yul\":24904:24912   */\n      dup5\n        /* \"#utility.yul\":24900:24933   */\n      add\n        /* \"#utility.yul\":24892:24933   */\n      swap3\n      pop\n        /* \"#utility.yul\":24966:24970   */\n      dup3\n        /* \"#utility.yul\":24953:24971   */\n      calldataload\n        /* \"#utility.yul\":24943:24971   */\n      swap2\n      pop\n        /* \"#utility.yul\":24994:25012   */\n      0xffffffffffffffff\n        /* \"#utility.yul\":24986:24992   */\n      dup3\n        /* \"#utility.yul\":24983:25013   */\n      gt\n        /* \"#utility.yul\":24980:25097   */\n      iszero\n      tag_595\n      jumpi\n        /* \"#utility.yul\":25016:25095   */\n      tag_596\n      tag_326\n      jump\t// in\n    tag_596:\n        /* \"#utility.yul\":24980:25097   */\n    tag_595:\n        /* \"#utility.yul\":25124:25126   */\n      0x20\n        /* \"#utility.yul\":25118:25122   */\n      dup4\n        /* \"#utility.yul\":25114:25127   */\n      add\n        /* \"#utility.yul\":25106:25127   */\n      swap3\n      pop\n        /* \"#utility.yul\":25181:25185   */\n      0x01\n        /* \"#utility.yul\":25173:25179   */\n      dup3\n        /* \"#utility.yul\":25169:25186   */\n      mul\n        /* \"#utility.yul\":25153:25167   */\n      calldatasize\n        /* \"#utility.yul\":25149:25187   */\n      sub\n        /* \"#utility.yul\":25143:25147   */\n      dup4\n        /* \"#utility.yul\":25139:25188   */\n      sgt\n        /* \"#utility.yul\":25136:25272   */\n      iszero\n      tag_597\n      jumpi\n        /* \"#utility.yul\":25191:25270   */\n      tag_598\n      tag_327\n      jump\t// in\n    tag_598:\n        /* \"#utility.yul\":25136:25272   */\n    tag_597:\n        /* \"#utility.yul\":24645:25279   */\n      pop\n        /* \"#utility.yul\":24554:25279   */\n      swap3\n      pop\n      swap3\n      swap1\n      pop\n      jump\t// out\n        /* \"#utility.yul\":25309:25626   */\n    tag_328:\n        /* \"#utility.yul\":25407:25410   */\n      0x00\n        /* \"#utility.yul\":25428:25499   */\n      tag_600\n        /* \"#utility.yul\":25492:25498   */\n      dup4\n        /* \"#utility.yul\":25487:25490   */\n      dup6\n        /* \"#utility.yul\":25428:25499   */\n      tag_285\n      jump\t// in\n    tag_600:\n        /* \"#utility.yul\":25421:25499   */\n      swap4\n      pop\n        /* \"#utility.yul\":25509:25565   */\n      tag_601\n        /* \"#utility.yul\":25558:25564   */\n      dup4\n        /* \"#utility.yul\":25553:25556   */\n      dup6\n        /* \"#utility.yul\":25546:25551   */\n      dup5\n        /* \"#utility.yul\":25509:25565   */\n      tag_267\n      jump\t// in\n    tag_601:\n        /* \"#utility.yul\":25590:25619   */\n      tag_602\n        /* \"#utility.yul\":25612:25618   */\n      dup4\n        /* \"#utility.yul\":25590:25619   */\n      tag_262\n      jump\t// in\n    tag_602:\n        /* \"#utility.yul\":25585:25588   */\n      dup5\n        /* \"#utility.yul\":25581:25620   */\n      add\n        /* \"#utility.yul\":25574:25620   */\n      swap1\n      pop\n        /* \"#utility.yul\":25309:25626   */\n      swap4\n      swap3\n      pop\n      pop\n      pop\n      jump\t// out\n        /* \"#utility.yul\":25632:26296   */\n    tag_169:\n        /* \"#utility.yul\":25841:25845   */\n      0x00\n        /* \"#utility.yul\":25879:25881   */\n      0x60\n        /* \"#utility.yul\":25868:25877   */\n      dup3\n        /* \"#utility.yul\":25864:25882   */\n      add\n        /* \"#utility.yul\":25856:25882   */\n      swap1\n      pop\n        /* \"#utility.yul\":25892:25963   */\n      tag_604\n        /* \"#utility.yul\":25960:25961   */\n      0x00\n        /* \"#utility.yul\":25949:25958   */\n      dup4\n        /* \"#utility.yul\":25945:25962   */\n      add\n        /* \"#utility.yul\":25936:25942   */\n      dup9\n        /* \"#utility.yul\":25892:25963   */\n      tag_273\n      jump\t// in\n    tag_604:\n        /* \"#utility.yul\":26010:26019   */\n      dup2\n        /* \"#utility.yul\":26004:26008   */\n      dup2\n        /* \"#utility.yul\":26000:26020   */\n      sub\n        /* \"#utility.yul\":25995:25997   */\n      0x20\n        /* \"#utility.yul\":25984:25993   */\n      dup4\n        /* \"#utility.yul\":25980:25998   */\n      add\n        /* \"#utility.yul\":25973:26021   */\n      mstore\n        /* \"#utility.yul\":26038:26126   */\n      tag_605\n        /* \"#utility.yul\":26121:26125   */\n      dup2\n        /* \"#utility.yul\":26112:26118   */\n      dup7\n        /* \"#utility.yul\":26104:26110   */\n      dup9\n        /* \"#utility.yul\":26038:26126   */\n      tag_328\n      jump\t// in\n    tag_605:\n        /* \"#utility.yul\":26030:26126   */\n      swap1\n      pop\n        /* \"#utility.yul\":26173:26182   */\n      dup2\n        /* \"#utility.yul\":26167:26171   */\n      dup2\n        /* \"#utility.yul\":26163:26183   */\n      sub\n        /* \"#utility.yul\":26158:26160   */\n      0x40\n        /* \"#utility.yul\":26147:26156   */\n      dup4\n        /* \"#utility.yul\":26143:26161   */\n      add\n        /* \"#utility.yul\":26136:26184   */\n      mstore\n        /* \"#utility.yul\":26201:26289   */\n      tag_606\n        /* \"#utility.yul\":26284:26288   */\n      dup2\n        /* \"#utility.yul\":26275:26281   */\n      dup5\n        /* \"#utility.yul\":26267:26273   */\n      dup7\n        /* \"#utility.yul\":26201:26289   */\n      tag_328\n      jump\t// in\n    tag_606:\n        /* \"#utility.yul\":26193:26289   */\n      swap1\n      pop\n        /* \"#utility.yul\":25632:26296   */\n      swap7\n      swap6\n      pop\n      pop\n      pop\n      pop\n      pop\n      pop\n      jump\t// out\n        /* \"#utility.yul\":26302:26634   */\n    tag_180:\n        /* \"#utility.yul\":26423:26427   */\n      0x00\n        /* \"#utility.yul\":26461:26463   */\n      0x40\n        /* \"#utility.yul\":26450:26459   */\n      dup3\n        /* \"#utility.yul\":26446:26464   */\n      add\n        /* \"#utility.yul\":26438:26464   */\n      swap1\n      pop\n        /* \"#utility.yul\":26474:26545   */\n      tag_608\n        /* \"#utility.yul\":26542:26543   */\n      0x00\n        /* \"#utility.yul\":26531:26540   */\n      dup4\n        /* \"#utility.yul\":26527:26544   */\n      add\n        /* \"#utility.yul\":26518:26524   */\n      dup6\n        /* \"#utility.yul\":26474:26545   */\n      tag_272\n      jump\t// in\n    tag_608:\n        /* \"#utility.yul\":26555:26627   */\n      tag_609\n        /* \"#utility.yul\":26623:26625   */\n      0x20\n        /* \"#utility.yul\":26612:26621   */\n      dup4\n        /* \"#utility.yul\":26608:26626   */\n      add\n        /* \"#utility.yul\":26599:26605   */\n      dup5\n        /* \"#utility.yul\":26555:26627   */\n      tag_272\n      jump\t// in\n    tag_609:\n        /* \"#utility.yul\":26302:26634   */\n      swap4\n      swap3\n      pop\n      pop\n      pop\n      jump\t// out\n        /* \"#utility.yul\":26640:26822   */\n    tag_329:\n        /* \"#utility.yul\":26780:26814   */\n      0x4469726563746f72792063616e6e6f74206265207a65726f2061646472657373\n        /* \"#utility.yul\":26776:26777   */\n      0x00\n        /* \"#utility.yul\":26768:26774   */\n      dup3\n        /* \"#utility.yul\":26764:26778   */\n      add\n        /* \"#utility.yul\":26757:26815   */\n      mstore\n        /* \"#utility.yul\":26640:26822   */\n      pop\n      jump\t// out\n        /* \"#utility.yul\":26828:27194   */\n    tag_330:\n        /* \"#utility.yul\":26970:26973   */\n      0x00\n        /* \"#utility.yul\":26991:27058   */\n      tag_612\n        /* \"#utility.yul\":27055:27057   */\n      0x20\n        /* \"#utility.yul\":27050:27053   */\n      dup4\n        /* \"#utility.yul\":26991:27058   */\n      tag_285\n      jump\t// in\n    tag_612:\n        /* \"#utility.yul\":26984:27058   */\n      swap2\n      pop\n        /* \"#utility.yul\":27067:27160   */\n      tag_613\n        /* \"#utility.yul\":27156:27159   */\n      dup3\n        /* \"#utility.yul\":27067:27160   */\n      tag_329\n      jump\t// in\n    tag_613:\n        /* \"#utility.yul\":27185:27187   */\n      0x20\n        /* \"#utility.yul\":27180:27183   */\n      dup3\n        /* \"#utility.yul\":27176:27188   */\n      add\n        /* \"#utility.yul\":27169:27188   */\n      swap1\n      pop\n        /* \"#utility.yul\":26828:27194   */\n      swap2\n      swap1\n      pop\n      jump\t// out\n        /* \"#utility.yul\":27200:27619   */\n    tag_205:\n        /* \"#utility.yul\":27366:27370   */\n      0x00\n        /* \"#utility.yul\":27404:27406   */\n      0x20\n        /* \"#utility.yul\":27393:27402   */\n      dup3\n        /* \"#utility.yul\":27389:27407   */\n      add\n        /* \"#utility.yul\":27381:27407   */\n      swap1\n      pop\n        /* \"#utility.yul\":27453:27462   */\n      dup2\n        /* \"#utility.yul\":27447:27451   */\n      dup2\n        /* \"#utility.yul\":27443:27463   */\n      sub\n        /* \"#utility.yul\":27439:27440   */\n      0x00\n        /* \"#utility.yul\":27428:27437   */\n      dup4\n        /* \"#utility.yul\":27424:27441   */\n      add\n        /* \"#utility.yul\":27417:27464   */\n      mstore\n        /* \"#utility.yul\":27481:27612   */\n      tag_615\n        /* \"#utility.yul\":27607:27611   */\n      dup2\n        /* \"#utility.yul\":27481:27612   */\n      tag_330\n      jump\t// in\n    tag_615:\n        /* \"#utility.yul\":27473:27612   */\n      swap1\n      pop\n        /* \"#utility.yul\":27200:27619   */\n      swap2\n      swap1\n      pop\n      jump\t// out\n        /* \"#utility.yul\":27625:27803   */\n    tag_331:\n        /* \"#utility.yul\":27765:27795   */\n      0x4469726563746f7279206d757374206265206120636f6e747261637400000000\n        /* \"#utility.yul\":27761:27762   */\n      0x00\n        /* \"#utility.yul\":27753:27759   */\n      dup3\n        /* \"#utility.yul\":27749:27763   */\n      add\n        /* \"#utility.yul\":27742:27796   */\n      mstore\n        /* \"#utility.yul\":27625:27803   */\n      pop\n      jump\t// out\n        /* \"#utility.yul\":27809:28175   */\n    tag_332:\n        /* \"#utility.yul\":27951:27954   */\n      0x00\n        /* \"#utility.yul\":27972:28039   */\n      tag_618\n        /* \"#utility.yul\":28036:28038   */\n      0x1c\n        /* \"#utility.yul\":28031:28034   */\n      dup4\n        /* \"#utility.yul\":27972:28039   */\n      tag_285\n      jump\t// in\n    tag_618:\n        /* \"#utility.yul\":27965:28039   */\n      swap2\n      pop\n        /* \"#utility.yul\":28048:28141   */\n      tag_619\n        /* \"#utility.yul\":28137:28140   */\n      dup3\n        /* \"#utility.yul\":28048:28141   */\n      tag_331\n      jump\t// in\n    tag_619:\n        /* \"#utility.yul\":28166:28168   */\n      0x20\n        /* \"#utility.yul\":28161:28164   */\n      dup3\n        /* \"#utility.yul\":28157:28169   */\n      add\n        /* \"#utility.yul\":28150:28169   */\n      swap1\n      pop\n        /* \"#utility.yul\":27809:28175   */\n      swap2\n      swap1\n      pop\n      jump\t// out\n        /* \"#utility.yul\":28181:28600   */\n    tag_208:\n        /* \"#utility.yul\":28347:28351   */\n      0x00\n        /* \"#utility.yul\":28385:28387   */\n      0x20\n        /* \"#utility.yul\":28374:28383   */\n      dup3\n        /* \"#utility.yul\":28370:28388   */\n      add\n        /* \"#utility.yul\":28362:28388   */\n      swap1\n      pop\n        /* \"#utility.yul\":28434:28443   */\n      dup2\n        /* \"#utility.yul\":28428:28432   */\n      dup2\n        /* \"#utility.yul\":28424:28444   */\n      sub\n        /* \"#utility.yul\":28420:28421   */\n      0x00\n        /* \"#utility.yul\":28409:28418   */\n      dup4\n        /* \"#utility.yul\":28405:28422   */\n      add\n        /* \"#utility.yul\":28398:28445   */\n      mstore\n        /* \"#utility.yul\":28462:28593   */\n      tag_621\n        /* \"#utility.yul\":28588:28592   */\n      dup2\n        /* \"#utility.yul\":28462:28593   */\n      tag_332\n      jump\t// in\n    tag_621:\n        /* \"#utility.yul\":28454:28593   */\n      swap1\n      pop\n        /* \"#utility.yul\":28181:28600   */\n      swap2\n      swap1\n      pop\n      jump\t// out\n        /* \"#utility.yul\":28606:28837   */\n    tag_333:\n        /* \"#utility.yul\":28746:28780   */\n      0x4469726563746f7279206164647265737320646f6573206e6f7420696d706c65\n        /* \"#utility.yul\":28742:28743   */\n      0x00\n        /* \"#utility.yul\":28734:28740   */\n      dup3\n        /* \"#utility.yul\":28730:28744   */\n      add\n        /* \"#utility.yul\":28723:28781   */\n      mstore\n        /* \"#utility.yul\":28815:28829   */\n      0x6d656e74206f776e657228290000000000000000000000000000000000000000\n        /* \"#utility.yul\":28810:28812   */\n      0x20\n        /* \"#utility.yul\":28802:28808   */\n      dup3\n        /* \"#utility.yul\":28798:28813   */\n      add\n        /* \"#utility.yul\":28791:28830   */\n      mstore\n        /* \"#utility.yul\":28606:28837   */\n      pop\n      jump\t// out\n        /* \"#utility.yul\":28843:29209   */\n    tag_334:\n        /* \"#utility.yul\":28985:28988   */\n      0x00\n        /* \"#utility.yul\":29006:29073   */\n      tag_624\n        /* \"#utility.yul\":29070:29072   */\n      0x2c\n        /* \"#utility.yul\":29065:29068   */\n      dup4\n        /* \"#utility.yul\":29006:29073   */\n      tag_285\n      jump\t// in\n    tag_624:\n        /* \"#utility.yul\":28999:29073   */\n      swap2\n      pop\n        /* \"#utility.yul\":29082:29175   */\n      tag_625\n        /* \"#utility.yul\":29171:29174   */\n      dup3\n        /* \"#utility.yul\":29082:29175   */\n      tag_333\n      jump\t// in\n    tag_625:\n        /* \"#utility.yul\":29200:29202   */\n      0x40\n        /* \"#utility.yul\":29195:29198   */\n      dup3\n        /* \"#utility.yul\":29191:29203   */\n      add\n        /* \"#utility.yul\":29184:29203   */\n      swap1\n      pop\n        /* \"#utility.yul\":28843:29209   */\n      swap2\n      swap1\n      pop\n      jump\t// out\n        /* \"#utility.yul\":29215:29634   */\n    tag_216:\n        /* \"#utility.yul\":29381:29385   */\n      0x00\n        /* \"#utility.yul\":29419:29421   */\n      0x20\n        /* \"#utility.yul\":29408:29417   */\n      dup3\n        /* \"#utility.yul\":29404:29422   */\n      add\n        /* \"#utility.yul\":29396:29422   */\n      swap1\n      pop\n        /* \"#utility.yul\":29468:29477   */\n      dup2\n        /* \"#utility.yul\":29462:29466   */\n      dup2\n        /* \"#utility.yul\":29458:29478   */\n      sub\n        /* \"#utility.yul\":29454:29455   */\n      0x00\n        /* \"#utility.yul\":29443:29452   */\n      dup4\n        /* \"#utility.yul\":29439:29456   */\n      add\n        /* \"#utility.yul\":29432:29479   */\n      mstore\n        /* \"#utility.yul\":29496:29627   */\n      tag_627\n        /* \"#utility.yul\":29622:29626   */\n      dup2\n        /* \"#utility.yul\":29496:29627   */\n      tag_334\n      jump\t// in\n    tag_627:\n        /* \"#utility.yul\":29488:29627   */\n      swap1\n      pop\n        /* \"#utility.yul\":29215:29634   */\n      swap2\n      swap1\n      pop\n      jump\t// out\n        /* \"#utility.yul\":29640:29757   */\n    tag_335:\n        /* \"#utility.yul\":29749:29750   */\n      0x00\n        /* \"#utility.yul\":29746:29747   */\n      0x00\n        /* \"#utility.yul\":29739:29751   */\n      revert\n        /* \"#utility.yul\":29763:29880   */\n    tag_336:\n        /* \"#utility.yul\":29872:29873   */\n      0x00\n        /* \"#utility.yul\":29869:29870   */\n      0x00\n        /* \"#utility.yul\":29862:29874   */\n      revert\n        /* \"#utility.yul\":29886:30320   */\n    tag_337:\n        /* \"#utility.yul\":29975:29980   */\n      0x00\n        /* \"#utility.yul\":30000:30066   */\n      tag_631\n        /* \"#utility.yul\":30016:30065   */\n      tag_632\n        /* \"#utility.yul\":30058:30064   */\n      dup5\n        /* \"#utility.yul\":30016:30065   */\n      tag_266\n      jump\t// in\n    tag_632:\n        /* \"#utility.yul\":30000:30066   */\n      tag_265\n      jump\t// in\n    tag_631:\n        /* \"#utility.yul\":29991:30066   */\n      swap1\n      pop\n        /* \"#utility.yul\":30089:30095   */\n      dup3\n        /* \"#utility.yul\":30082:30087   */\n      dup2\n        /* \"#utility.yul\":30075:30096   */\n      mstore\n        /* \"#utility.yul\":30127:30131   */\n      0x20\n        /* \"#utility.yul\":30120:30125   */\n      dup2\n        /* \"#utility.yul\":30116:30132   */\n      add\n        /* \"#utility.yul\":30165:30168   */\n      dup5\n        /* \"#utility.yul\":30156:30162   */\n      dup5\n        /* \"#utility.yul\":30151:30154   */\n      dup5\n        /* \"#utility.yul\":30147:30163   */\n      add\n        /* \"#utility.yul\":30144:30169   */\n      gt\n        /* \"#utility.yul\":30141:30253   */\n      iszero\n      tag_633\n      jumpi\n        /* \"#utility.yul\":30172:30251   */\n      tag_634\n      tag_261\n      jump\t// in\n    tag_634:\n        /* \"#utility.yul\":30141:30253   */\n    tag_633:\n        /* \"#utility.yul\":30262:30314   */\n      tag_635\n        /* \"#utility.yul\":30307:30313   */\n      dup5\n        /* \"#utility.yul\":30302:30305   */\n      dup3\n        /* \"#utility.yul\":30297:30300   */\n      dup6\n        /* \"#utility.yul\":30262:30314   */\n      tag_296\n      jump\t// in\n    tag_635:\n        /* \"#utility.yul\":29981:30320   */\n      pop\n        /* \"#utility.yul\":29886:30320   */\n      swap4\n      swap3\n      pop\n      pop\n      pop\n      jump\t// out\n        /* \"#utility.yul\":30340:30695   */\n    tag_338:\n        /* \"#utility.yul\":30407:30412   */\n      0x00\n        /* \"#utility.yul\":30456:30459   */\n      dup3\n        /* \"#utility.yul\":30449:30453   */\n      0x1f\n        /* \"#utility.yul\":30441:30447   */\n      dup4\n        /* \"#utility.yul\":30437:30454   */\n      add\n        /* \"#utility.yul\":30433:30460   */\n      slt\n        /* \"#utility.yul\":30423:30545   */\n      tag_637\n      jumpi\n        /* \"#utility.yul\":30464:30543   */\n      tag_638\n      tag_260\n      jump\t// in\n    tag_638:\n        /* \"#utility.yul\":30423:30545   */\n    tag_637:\n        /* \"#utility.yul\":30574:30580   */\n      dup2\n        /* \"#utility.yul\":30568:30581   */\n      mload\n        /* \"#utility.yul\":30599:30689   */\n      tag_639\n        /* \"#utility.yul\":30685:30688   */\n      dup5\n        /* \"#utility.yul\":30677:30683   */\n      dup3\n        /* \"#utility.yul\":30670:30674   */\n      0x20\n        /* \"#utility.yul\":30662:30668   */\n      dup7\n        /* \"#utility.yul\":30658:30675   */\n      add\n        /* \"#utility.yul\":30599:30689   */\n      tag_337\n      jump\t// in\n    tag_639:\n        /* \"#utility.yul\":30590:30689   */\n      swap2\n      pop\n        /* \"#utility.yul\":30413:30695   */\n      pop\n        /* \"#utility.yul\":30340:30695   */\n      swap3\n      swap2\n      pop\n      pop\n      jump\t// out\n        /* \"#utility.yul\":30701:31036   */\n    tag_339:\n        /* \"#utility.yul\":30802:30806   */\n      0x00\n        /* \"#utility.yul\":30892:30910   */\n      0xffffffffffffffff\n        /* \"#utility.yul\":30884:30890   */\n      dup3\n        /* \"#utility.yul\":30881:30911   */\n      gt\n        /* \"#utility.yul\":30878:30934   */\n      iszero\n      tag_641\n      jumpi\n        /* \"#utility.yul\":30914:30932   */\n      tag_642\n      tag_263\n      jump\t// in\n    tag_642:\n        /* \"#utility.yul\":30878:30934   */\n    tag_641:\n        /* \"#utility.yul\":30964:30968   */\n      0x20\n        /* \"#utility.yul\":30956:30962   */\n      dup3\n        /* \"#utility.yul\":30952:30969   */\n      mul\n        /* \"#utility.yul\":30944:30969   */\n      swap1\n      pop\n        /* \"#utility.yul\":31024:31028   */\n      0x20\n        /* \"#utility.yul\":31018:31022   */\n      dup2\n        /* \"#utility.yul\":31014:31029   */\n      add\n        /* \"#utility.yul\":31006:31029   */\n      swap1\n      pop\n        /* \"#utility.yul\":30701:31036   */\n      swap2\n      swap1\n      pop\n      jump\t// out\n        /* \"#utility.yul\":31042:31159   */\n    tag_340:\n        /* \"#utility.yul\":31151:31152   */\n      0x00\n        /* \"#utility.yul\":31148:31149   */\n      0x00\n        /* \"#utility.yul\":31141:31153   */\n      revert\n        /* \"#utility.yul\":31165:31306   */\n    tag_341:\n        /* \"#utility.yul\":31221:31226   */\n      0x00\n        /* \"#utility.yul\":31252:31258   */\n      dup2\n        /* \"#utility.yul\":31246:31259   */\n      mload\n        /* \"#utility.yul\":31237:31259   */\n      swap1\n      pop\n        /* \"#utility.yul\":31268:31300   */\n      tag_645\n        /* \"#utility.yul\":31294:31299   */\n      dup2\n        /* \"#utility.yul\":31268:31300   */\n      tag_315\n      jump\t// in\n    tag_645:\n        /* \"#utility.yul\":31165:31306   */\n      swap3\n      swap2\n      pop\n      pop\n      jump\t// out\n        /* \"#utility.yul\":31334:31953   */\n    tag_342:\n        /* \"#utility.yul\":31418:31423   */\n      0x00\n        /* \"#utility.yul\":31462:31466   */\n      0x40\n        /* \"#utility.yul\":31450:31459   */\n      dup3\n        /* \"#utility.yul\":31445:31448   */\n      dup5\n        /* \"#utility.yul\":31441:31460   */\n      sub\n        /* \"#utility.yul\":31437:31467   */\n      slt\n        /* \"#utility.yul\":31434:31551   */\n      iszero\n      tag_647\n      jumpi\n        /* \"#utility.yul\":31470:31549   */\n      tag_648\n      tag_335\n      jump\t// in\n    tag_648:\n        /* \"#utility.yul\":31434:31551   */\n    tag_647:\n        /* \"#utility.yul\":31569:31590   */\n      tag_649\n        /* \"#utility.yul\":31585:31589   */\n      0x40\n        /* \"#utility.yul\":31569:31590   */\n      tag_265\n      jump\t// in\n    tag_649:\n        /* \"#utility.yul\":31560:31590   */\n      swap1\n      pop\n        /* \"#utility.yul\":31657:31658   */\n      0x00\n        /* \"#utility.yul\":31697:31757   */\n      tag_650\n        /* \"#utility.yul\":31753:31756   */\n      dup5\n        /* \"#utility.yul\":31744:31750   */\n      dup3\n        /* \"#utility.yul\":31733:31742   */\n      dup6\n        /* \"#utility.yul\":31729:31751   */\n      add\n        /* \"#utility.yul\":31697:31757   */\n      tag_298\n      jump\t// in\n    tag_650:\n        /* \"#utility.yul\":31690:31694   */\n      0x00\n        /* \"#utility.yul\":31683:31688   */\n      dup4\n        /* \"#utility.yul\":31679:31695   */\n      add\n        /* \"#utility.yul\":31672:31758   */\n      mstore\n        /* \"#utility.yul\":31600:31769   */\n      pop\n        /* \"#utility.yul\":31834:31836   */\n      0x20\n        /* \"#utility.yul\":31875:31934   */\n      tag_651\n        /* \"#utility.yul\":31930:31933   */\n      dup5\n        /* \"#utility.yul\":31921:31927   */\n      dup3\n        /* \"#utility.yul\":31910:31919   */\n      dup6\n        /* \"#utility.yul\":31906:31928   */\n      add\n        /* \"#utility.yul\":31875:31934   */\n      tag_341\n      jump\t// in\n    tag_651:\n        /* \"#utility.yul\":31868:31872   */\n      0x20\n        /* \"#utility.yul\":31861:31866   */\n      dup4\n        /* \"#utility.yul\":31857:31873   */\n      add\n        /* \"#utility.yul\":31850:31935   */\n      mstore\n        /* \"#utility.yul\":31779:31946   */\n      pop\n        /* \"#utility.yul\":31334:31953   */\n      swap3\n      swap2\n      pop\n      pop\n      jump\t// out\n        /* \"#utility.yul\":31983:32787   */\n    tag_343:\n        /* \"#utility.yul\":32114:32119   */\n      0x00\n        /* \"#utility.yul\":32139:32244   */\n      tag_653\n        /* \"#utility.yul\":32155:32243   */\n      tag_654\n        /* \"#utility.yul\":32236:32242   */\n      dup5\n        /* \"#utility.yul\":32155:32243   */\n      tag_339\n      jump\t// in\n    tag_654:\n        /* \"#utility.yul\":32139:32244   */\n      tag_265\n      jump\t// in\n    tag_653:\n        /* \"#utility.yul\":32130:32244   */\n      swap1\n      pop\n        /* \"#utility.yul\":32264:32269   */\n      dup1\n        /* \"#utility.yul\":32293:32299   */\n      dup4\n        /* \"#utility.yul\":32286:32291   */\n      dup3\n        /* \"#utility.yul\":32279:32300   */\n      mstore\n        /* \"#utility.yul\":32327:32331   */\n      0x20\n        /* \"#utility.yul\":32320:32325   */\n      dup3\n        /* \"#utility.yul\":32316:32332   */\n      add\n        /* \"#utility.yul\":32309:32332   */\n      swap1\n      pop\n        /* \"#utility.yul\":32380:32384   */\n      0x40\n        /* \"#utility.yul\":32372:32378   */\n      dup5\n        /* \"#utility.yul\":32368:32385   */\n      mul\n        /* \"#utility.yul\":32360:32366   */\n      dup4\n        /* \"#utility.yul\":32356:32386   */\n      add\n        /* \"#utility.yul\":32409:32412   */\n      dup6\n        /* \"#utility.yul\":32401:32407   */\n      dup2\n        /* \"#utility.yul\":32398:32413   */\n      gt\n        /* \"#utility.yul\":32395:32517   */\n      iszero\n      tag_655\n      jumpi\n        /* \"#utility.yul\":32428:32507   */\n      tag_656\n      tag_340\n      jump\t// in\n    tag_656:\n        /* \"#utility.yul\":32395:32517   */\n    tag_655:\n        /* \"#utility.yul\":32543:32549   */\n      dup4\n        /* \"#utility.yul\":32526:32781   */\n    tag_657:\n        /* \"#utility.yul\":32560:32566   */\n      dup2\n        /* \"#utility.yul\":32555:32558   */\n      dup2\n        /* \"#utility.yul\":32552:32567   */\n      lt\n        /* \"#utility.yul\":32526:32781   */\n      iszero\n      tag_659\n      jumpi\n        /* \"#utility.yul\":32635:32638   */\n      dup1\n        /* \"#utility.yul\":32664:32736   */\n      tag_660\n        /* \"#utility.yul\":32732:32735   */\n      dup9\n        /* \"#utility.yul\":32720:32730   */\n      dup3\n        /* \"#utility.yul\":32664:32736   */\n      tag_342\n      jump\t// in\n    tag_660:\n        /* \"#utility.yul\":32659:32662   */\n      dup5\n        /* \"#utility.yul\":32652:32737   */\n      mstore\n        /* \"#utility.yul\":32766:32770   */\n      0x20\n        /* \"#utility.yul\":32761:32764   */\n      dup5\n        /* \"#utility.yul\":32757:32771   */\n      add\n        /* \"#utility.yul\":32750:32771   */\n      swap4\n      pop\n        /* \"#utility.yul\":32602:32781   */\n      pop\n        /* \"#utility.yul\":32586:32590   */\n      0x40\n        /* \"#utility.yul\":32581:32584   */\n      dup2\n        /* \"#utility.yul\":32577:32591   */\n      add\n        /* \"#utility.yul\":32570:32591   */\n      swap1\n      pop\n        /* \"#utility.yul\":32526:32781   */\n      jump(tag_657)\n    tag_659:\n        /* \"#utility.yul\":32530:32551   */\n      pop\n        /* \"#utility.yul\":32120:32787   */\n      pop\n      pop\n        /* \"#utility.yul\":31983:32787   */\n      swap4\n      swap3\n      pop\n      pop\n      pop\n      jump\t// out\n        /* \"#utility.yul\":32817:33250   */\n    tag_344:\n        /* \"#utility.yul\":32923:32928   */\n      0x00\n        /* \"#utility.yul\":32972:32975   */\n      dup3\n        /* \"#utility.yul\":32965:32969   */\n      0x1f\n        /* \"#utility.yul\":32957:32963   */\n      dup4\n        /* \"#utility.yul\":32953:32970   */\n      add\n        /* \"#utility.yul\":32949:32976   */\n      slt\n        /* \"#utility.yul\":32939:33061   */\n      tag_662\n      jumpi\n        /* \"#utility.yul\":32980:33059   */\n      tag_663\n      tag_260\n      jump\t// in\n    tag_663:\n        /* \"#utility.yul\":32939:33061   */\n    tag_662:\n        /* \"#utility.yul\":33090:33096   */\n      dup2\n        /* \"#utility.yul\":33084:33097   */\n      mload\n        /* \"#utility.yul\":33115:33244   */\n      tag_664\n        /* \"#utility.yul\":33240:33243   */\n      dup5\n        /* \"#utility.yul\":33232:33238   */\n      dup3\n        /* \"#utility.yul\":33225:33229   */\n      0x20\n        /* \"#utility.yul\":33217:33223   */\n      dup7\n        /* \"#utility.yul\":33213:33230   */\n      add\n        /* \"#utility.yul\":33115:33244   */\n      tag_343\n      jump\t// in\n    tag_664:\n        /* \"#utility.yul\":33106:33244   */\n      swap2\n      pop\n        /* \"#utility.yul\":32929:33250   */\n      pop\n        /* \"#utility.yul\":32817:33250   */\n      swap3\n      swap2\n      pop\n      pop\n      jump\t// out\n        /* \"#utility.yul\":33276:34586   */\n    tag_345:\n        /* \"#utility.yul\":33358:33363   */\n      0x00\n        /* \"#utility.yul\":33402:33406   */\n      0x60\n        /* \"#utility.yul\":33390:33399   */\n      dup3\n        /* \"#utility.yul\":33385:33388   */\n      dup5\n        /* \"#utility.yul\":33381:33400   */\n      sub\n        /* \"#utility.yul\":33377:33407   */\n      slt\n        /* \"#utility.yul\":33374:33491   */\n      iszero\n      tag_666\n      jumpi\n        /* \"#utility.yul\":33410:33489   */\n      tag_667\n      tag_335\n      jump\t// in\n    tag_667:\n        /* \"#utility.yul\":33374:33491   */\n    tag_666:\n        /* \"#utility.yul\":33509:33530   */\n      tag_668\n        /* \"#utility.yul\":33525:33529   */\n      0x60\n        /* \"#utility.yul\":33509:33530   */\n      tag_265\n      jump\t// in\n    tag_668:\n        /* \"#utility.yul\":33500:33530   */\n      swap1\n      pop\n        /* \"#utility.yul\":33610:33611   */\n      0x00\n        /* \"#utility.yul\":33599:33608   */\n      dup3\n        /* \"#utility.yul\":33595:33612   */\n      add\n        /* \"#utility.yul\":33589:33613   */\n      mload\n        /* \"#utility.yul\":33640:33658   */\n      0xffffffffffffffff\n        /* \"#utility.yul\":33632:33638   */\n      dup2\n        /* \"#utility.yul\":33629:33659   */\n      gt\n        /* \"#utility.yul\":33626:33743   */\n      iszero\n      tag_669\n      jumpi\n        /* \"#utility.yul\":33662:33741   */\n      tag_670\n      tag_336\n      jump\t// in\n    tag_670:\n        /* \"#utility.yul\":33626:33743   */\n    tag_669:\n        /* \"#utility.yul\":33782:33852   */\n      tag_671\n        /* \"#utility.yul\":33848:33851   */\n      dup5\n        /* \"#utility.yul\":33839:33845   */\n      dup3\n        /* \"#utility.yul\":33828:33837   */\n      dup6\n        /* \"#utility.yul\":33824:33846   */\n      add\n        /* \"#utility.yul\":33782:33852   */\n      tag_338\n      jump\t// in\n    tag_671:\n        /* \"#utility.yul\":33775:33779   */\n      0x00\n        /* \"#utility.yul\":33768:33773   */\n      dup4\n        /* \"#utility.yul\":33764:33780   */\n      add\n        /* \"#utility.yul\":33757:33853   */\n      mstore\n        /* \"#utility.yul\":33540:33864   */\n      pop\n        /* \"#utility.yul\":33946:33948   */\n      0x20\n        /* \"#utility.yul\":33935:33944   */\n      dup3\n        /* \"#utility.yul\":33931:33949   */\n      add\n        /* \"#utility.yul\":33925:33950   */\n      mload\n        /* \"#utility.yul\":33977:33995   */\n      0xffffffffffffffff\n        /* \"#utility.yul\":33969:33975   */\n      dup2\n        /* \"#utility.yul\":33966:33996   */\n      gt\n        /* \"#utility.yul\":33963:34080   */\n      iszero\n      tag_672\n      jumpi\n        /* \"#utility.yul\":33999:34078   */\n      tag_673\n      tag_336\n      jump\t// in\n    tag_673:\n        /* \"#utility.yul\":33963:34080   */\n    tag_672:\n        /* \"#utility.yul\":34119:34189   */\n      tag_674\n        /* \"#utility.yul\":34185:34188   */\n      dup5\n        /* \"#utility.yul\":34176:34182   */\n      dup3\n        /* \"#utility.yul\":34165:34174   */\n      dup6\n        /* \"#utility.yul\":34161:34183   */\n      add\n        /* \"#utility.yul\":34119:34189   */\n      tag_338\n      jump\t// in\n    tag_674:\n        /* \"#utility.yul\":34112:34116   */\n      0x20\n        /* \"#utility.yul\":34105:34110   */\n      dup4\n        /* \"#utility.yul\":34101:34117   */\n      add\n        /* \"#utility.yul\":34094:34190   */\n      mstore\n        /* \"#utility.yul\":33874:34201   */\n      pop\n        /* \"#utility.yul\":34285:34287   */\n      0x40\n        /* \"#utility.yul\":34274:34283   */\n      dup3\n        /* \"#utility.yul\":34270:34288   */\n      add\n        /* \"#utility.yul\":34264:34289   */\n      mload\n        /* \"#utility.yul\":34316:34334   */\n      0xffffffffffffffff\n        /* \"#utility.yul\":34308:34314   */\n      dup2\n        /* \"#utility.yul\":34305:34335   */\n      gt\n        /* \"#utility.yul\":34302:34419   */\n      iszero\n      tag_675\n      jumpi\n        /* \"#utility.yul\":34338:34417   */\n      tag_676\n      tag_336\n      jump\t// in\n    tag_676:\n        /* \"#utility.yul\":34302:34419   */\n    tag_675:\n        /* \"#utility.yul\":34458:34567   */\n      tag_677\n        /* \"#utility.yul\":34563:34566   */\n      dup5\n        /* \"#utility.yul\":34554:34560   */\n      dup3\n        /* \"#utility.yul\":34543:34552   */\n      dup6\n        /* \"#utility.yul\":34539:34561   */\n      add\n        /* \"#utility.yul\":34458:34567   */\n      tag_344\n      jump\t// in\n    tag_677:\n        /* \"#utility.yul\":34451:34455   */\n      0x40\n        /* \"#utility.yul\":34444:34449   */\n      dup4\n        /* \"#utility.yul\":34440:34456   */\n      add\n        /* \"#utility.yul\":34433:34568   */\n      mstore\n        /* \"#utility.yul\":34211:34579   */\n      pop\n        /* \"#utility.yul\":33276:34586   */\n      swap3\n      swap2\n      pop\n      pop\n      jump\t// out\n        /* \"#utility.yul\":34592:35140   */\n    tag_230:\n        /* \"#utility.yul\":34684:34690   */\n      0x00\n        /* \"#utility.yul\":34733:34735   */\n      0x20\n        /* \"#utility.yul\":34721:34730   */\n      dup3\n        /* \"#utility.yul\":34712:34719   */\n      dup5\n        /* \"#utility.yul\":34708:34731   */\n      sub\n        /* \"#utility.yul\":34704:34736   */\n      slt\n        /* \"#utility.yul\":34701:34820   */\n      iszero\n      tag_679\n      jumpi\n        /* \"#utility.yul\":34739:34818   */\n      tag_680\n      tag_253\n      jump\t// in\n    tag_680:\n        /* \"#utility.yul\":34701:34820   */\n    tag_679:\n        /* \"#utility.yul\":34880:34881   */\n      0x00\n        /* \"#utility.yul\":34869:34878   */\n      dup3\n        /* \"#utility.yul\":34865:34882   */\n      add\n        /* \"#utility.yul\":34859:34883   */\n      mload\n        /* \"#utility.yul\":34910:34928   */\n      0xffffffffffffffff\n        /* \"#utility.yul\":34902:34908   */\n      dup2\n        /* \"#utility.yul\":34899:34929   */\n      gt\n        /* \"#utility.yul\":34896:35013   */\n      iszero\n      tag_681\n      jumpi\n        /* \"#utility.yul\":34932:35011   */\n      tag_682\n      tag_254\n      jump\t// in\n    tag_682:\n        /* \"#utility.yul\":34896:35013   */\n    tag_681:\n        /* \"#utility.yul\":35037:35123   */\n      tag_683\n        /* \"#utility.yul\":35115:35122   */\n      dup5\n        /* \"#utility.yul\":35106:35112   */\n      dup3\n        /* \"#utility.yul\":35095:35104   */\n      dup6\n        /* \"#utility.yul\":35091:35113   */\n      add\n        /* \"#utility.yul\":35037:35123   */\n      tag_345\n      jump\t// in\n    tag_683:\n        /* \"#utility.yul\":35027:35123   */\n      swap2\n      pop\n        /* \"#utility.yul\":34830:35133   */\n      pop\n        /* \"#utility.yul\":34592:35140   */\n      swap3\n      swap2\n      pop\n      pop\n      jump\t// out\n        /* \"#utility.yul\":35146:35326   */\n    tag_237:\n        /* \"#utility.yul\":35194:35271   */\n      0x4e487b7100000000000000000000000000000000000000000000000000000000\n        /* \"#utility.yul\":35191:35192   */\n      0x00\n        /* \"#utility.yul\":35184:35272   */\n      mstore\n        /* \"#utility.yul\":35291:35295   */\n      0x32\n        /* \"#utility.yul\":35288:35289   */\n      0x04\n        /* \"#utility.yul\":35281:35296   */\n      mstore\n        /* \"#utility.yul\":35315:35319   */\n      0x24\n        /* \"#utility.yul\":35312:35313   */\n      0x00\n        /* \"#utility.yul\":35305:35320   */\n      revert\n\n    auxdata: 0xa2646970667358221220157b4a2676f51af3288c00b05c49916f8f5ad9160430c0dfae5ec54f64adf57a64736f6c634300081e0033\n}\n",
				"bytecode": {
					"linkReferences": {},
					"object": "6080604052600160065f6101000a81548160ff021916908315150217905550348015610029575f5ffd5b5060405161290e38038061290e833981810160405281019061004b9190610271565b8061005b8161006260201b60201c565b505061040a565b5f73ffffffffffffffffffffffffffffffffffffffff168173ffffffffffffffffffffffffffffffffffffffff16036100d0576040517f08c379a00000000000000000000000000000000000000000000000000000000081526004016100c7906102f6565b60405180910390fd5b5f8173ffffffffffffffffffffffffffffffffffffffff163b11610129576040517f08c379a00000000000000000000000000000000000000000000000000000000081526004016101209061035e565b60405180910390fd5b8073ffffffffffffffffffffffffffffffffffffffff16638da5cb5b6040518163ffffffff1660e01b8152600401602060405180830381865afa92505050801561019157506040513d601f19601f8201168201806040525081019061018e9190610271565b60015b6101d0576040517f08c379a00000000000000000000000000000000000000000000000000000000081526004016101c7906103ec565b60405180910390fd5b815f5f6101000a81548173ffffffffffffffffffffffffffffffffffffffff021916908373ffffffffffffffffffffffffffffffffffffffff1602179055505050565b5f5ffd5b5f73ffffffffffffffffffffffffffffffffffffffff82169050919050565b5f61024082610217565b9050919050565b61025081610236565b811461025a575f5ffd5b50565b5f8151905061026b81610247565b92915050565b5f6020828403121561028657610285610213565b5b5f6102938482850161025d565b91505092915050565b5f82825260208201905092915050565b7f4469726563746f72792063616e6e6f74206265207a65726f20616464726573735f82015250565b5f6102e060208361029c565b91506102eb826102ac565b602082019050919050565b5f6020820190508181035f83015261030d816102d4565b9050919050565b7f4469726563746f7279206d757374206265206120636f6e7472616374000000005f82015250565b5f610348601c8361029c565b915061035382610314565b602082019050919050565b5f6020820190508181035f8301526103758161033c565b9050919050565b7f4469726563746f7279206164647265737320646f6573206e6f7420696d706c655f8201527f6d656e74206f776e657228290000000000000000000000000000000000000000602082015250565b5f6103d6602c8361029c565b91506103e18261037c565b604082019050919050565b5f6020820190508181035f830152610403816103ca565b9050919050565b6124f7806104175f395ff3fe608060405234801561000f575f5ffd5b50600436106100f3575f3560e01c80638da5cb5b11610095578063c4eda09e11610064578063c4eda09e14610295578063d00ed651146102b1578063e4b603b3146102e1578063f2018a1f14610311576100f3565b80638da5cb5b1461020f5780639cfe0b3b1461022d578063acec338a1461025d578063ba4c7be114610279576100f3565b80633ee79962116100d15780633ee79962146101615780634eea0e0d14610191578063658a847a146101c157806365a8f8b5146101df576100f3565b80631626542c146100f757806322f3e2d4146101135780632726261814610131575b5f5ffd5b610111600480360381019061010c9190611443565b610341565b005b61011b61055d565b604051610128919061149b565b60405180910390f35b61014b600480360381019061014691906115f0565b61056f565b6040516101589190611676565b60405180910390f35b61017b6004803603810190610176919061168f565b61060f565b6040516101889190611676565b60405180910390f35b6101ab60048036038101906101a6919061168f565b610620565b6040516101b891906116c9565b60405180910390f35b6101c961063a565b6040516101d6919061173d565b60405180910390f35b6101f960048036038101906101f4919061168f565b61065e565b60405161020691906116c9565b60405180910390f35b61021761066f565b6040516102249190611676565b60405180910390f35b6102476004803603810190610242919061168f565b610702565b60405161025491906116c9565b60405180910390f35b61027760048036038101906102729190611780565b61071c565b005b610293600480360381019061028e91906117d5565b610832565b005b6102af60048036038101906102aa9190611822565b610938565b005b6102cb60048036038101906102c691906117d5565b610d4c565b6040516102d891906116c9565b60405180910390f35b6102fb60048036038101906102f6919061168f565b610d92565b60405161030891906116c9565b60405180910390f35b61032b6004803603810190610326919061168f565b610da3565b6040516103389190611676565b60405180910390f35b61037f6040518060400160405280600a81526020017f6574662d726f757465720000000000000000000000000000000000000000000081525061056f565b73ffffffffffffffffffffffffffffffffffffffff163373ffffffffffffffffffffffffffffffffffffffff16146103ec576040517f08c379a00000000000000000000000000000000000000000000000000000000081526004016103e3906118c3565b60405180910390fd5b5f811161042e576040517f08c379a00000000000000000000000000000000000000000000000000000000081526004016104259061192b565b60405180910390fd5b5f610437610db4565b73ffffffffffffffffffffffffffffffffffffffff16636855e9396040518163ffffffff1660e01b8152600401602060405180830381865afa15801561047f573d5f5f3e3d5ffd5b505050506040513d601f19601f820116820180604052508101906104a3919061195d565b90505f81116104e7576040517f08c379a00000000000000000000000000000000000000000000000000000000081526004016104de906119f8565b60405180910390fd5b5f670de0b6b3a764000082846104fd9190611a43565b6105079190611ab1565b90508260045f8681526020019081526020015f205f8282546105299190611ae1565b925050819055508060055f8681526020019081526020015f205f8282546105509190611ae1565b9250508190555050505050565b60065f9054906101000a900460ff1681565b5f5f5f9054906101000a900473ffffffffffffffffffffffffffffffffffffffff1673ffffffffffffffffffffffffffffffffffffffff166327262618836040518263ffffffff1660e01b81526004016105c99190611b64565b602060405180830381865afa1580156105e4573d5f5f3e3d5ffd5b505050506040513d601f19601f820116820180604052508101906106089190611b98565b9050919050565b5f61061982610df8565b9050919050565b5f60045f8381526020019081526020015f20549050919050565b5f5f9054906101000a900473ffffffffffffffffffffffffffffffffffffffff1681565b5f61066882610e31565b9050919050565b5f5f5f9054906101000a900473ffffffffffffffffffffffffffffffffffffffff1673ffffffffffffffffffffffffffffffffffffffff16638da5cb5b6040518163ffffffff1660e01b8152600401602060405180830381865afa1580156106d9573d5f5f3e3d5ffd5b505050506040513d601f19601f820116820180604052508101906106fd9190611b98565b905090565b5f60055f8381526020019081526020015f20549050919050565b5f5f9054906101000a900473ffffffffffffffffffffffffffffffffffffffff1673ffffffffffffffffffffffffffffffffffffffff16638da5cb5b6040518163ffffffff1660e01b8152600401602060405180830381865afa158015610785573d5f5f3e3d5ffd5b505050506040513d601f19601f820116820180604052508101906107a99190611b98565b73ffffffffffffffffffffffffffffffffffffffff163373ffffffffffffffffffffffffffffffffffffffff1614610816576040517f08c379a000000000000000000000000000000000000000000000000000000000815260040161080d90611c0d565b60405180910390fd5b8060065f6101000a81548160ff02191690831515021790555050565b5f5f9054906101000a900473ffffffffffffffffffffffffffffffffffffffff1673ffffffffffffffffffffffffffffffffffffffff16638da5cb5b6040518163ffffffff1660e01b8152600401602060405180830381865afa15801561089b573d5f5f3e3d5ffd5b505050506040513d601f19601f820116820180604052508101906108bf9190611b98565b73ffffffffffffffffffffffffffffffffffffffff163373ffffffffffffffffffffffffffffffffffffffff161461092c576040517f08c379a000000000000000000000000000000000000000000000000000000000815260040161092390611c0d565b60405180910390fd5b61093581610f30565b50565b5f5f9054906101000a900473ffffffffffffffffffffffffffffffffffffffff1673ffffffffffffffffffffffffffffffffffffffff16638da5cb5b6040518163ffffffff1660e01b8152600401602060405180830381865afa1580156109a1573d5f5f3e3d5ffd5b505050506040513d601f19601f820116820180604052508101906109c59190611b98565b73ffffffffffffffffffffffffffffffffffffffff163373ffffffffffffffffffffffffffffffffffffffff1614610a32576040517f08c379a0000000000000000000000000000000000000000000000000000000008152600401610a2990611c0d565b60405180910390fd5b60065f9054906101000a900460ff16610a80576040517f08c379a0000000000000000000000000000000000000000000000000000000008152600401610a7790611c75565b60405180910390fd5b5f610a896110e1565b73ffffffffffffffffffffffffffffffffffffffff1663428d9a93836040518263ffffffff1660e01b8152600401610ac19190611f77565b6020604051808303815f875af1158015610add573d5f5f3e3d5ffd5b505050506040513d601f19601f82011682018060405250810190610b01919061195d565b90505f610b0c611125565b73ffffffffffffffffffffffffffffffffffffffff166378f6c7c48385805f0190610b379190611fa3565b878060200190610b479190611fa3565b6040518663ffffffff1660e01b8152600401610b67959493929190612031565b6020604051808303815f875af1158015610b83573d5f5f3e3d5ffd5b505050506040513d601f19601f82011682018060405250810190610ba79190611b98565b90508060015f8481526020019081526020015f205f6101000a81548173ffffffffffffffffffffffffffffffffffffffff021916908373ffffffffffffffffffffffffffffffffffffffff1602179055508160025f8373ffffffffffffffffffffffffffffffffffffffff1673ffffffffffffffffffffffffffffffffffffffff1681526020019081526020015f20819055505f610c43611169565b73ffffffffffffffffffffffffffffffffffffffff1663b57c59a7846040518263ffffffff1660e01b8152600401610c7b91906116c9565b6020604051808303815f875af1158015610c97573d5f5f3e3d5ffd5b505050506040513d601f19601f82011682018060405250810190610cbb9190611b98565b90508060035f8581526020019081526020015f205f6101000a81548173ffffffffffffffffffffffffffffffffffffffff021916908373ffffffffffffffffffffffffffffffffffffffff160217905550827f714caab8b078979e833e97982712cd462ab7124c2a27401542011f30e3d47d558383604051610d3e929190612078565b60405180910390a250505050565b5f60025f8373ffffffffffffffffffffffffffffffffffffffff1673ffffffffffffffffffffffffffffffffffffffff1681526020019081526020015f20549050919050565b5f610d9c826111ad565b9050919050565b5f610dad826113c6565b9050919050565b5f610df36040518060400160405280600c81526020017f70726963652d6f7261636c65000000000000000000000000000000000000000081525061056f565b905090565b5f60035f8381526020019081526020015f205f9054906101000a900473ffffffffffffffffffffffffffffffffffffffff169050919050565b5f5f610e3c836111ad565b90505f8103610e4e575f915050610f2b565b5f610e57610db4565b73ffffffffffffffffffffffffffffffffffffffff16636855e9396040518163ffffffff1660e01b8152600401602060405180830381865afa158015610e9f573d5f5f3e3d5ffd5b505050506040513d601f19601f82011682018060405250810190610ec3919061195d565b90505f8111610f07576040517f08c379a0000000000000000000000000000000000000000000000000000000008152600401610efe906119f8565b60405180910390fd5b670de0b6b3a76400008183610f1c9190611a43565b610f269190611ab1565b925050505b919050565b5f73ffffffffffffffffffffffffffffffffffffffff168173ffffffffffffffffffffffffffffffffffffffff1603610f9e576040517f08c379a0000000000000000000000000000000000000000000000000000000008152600401610f95906120e9565b60405180910390fd5b5f8173ffffffffffffffffffffffffffffffffffffffff163b11610ff7576040517f08c379a0000000000000000000000000000000000000000000000000000000008152600401610fee90612151565b60405180910390fd5b8073ffffffffffffffffffffffffffffffffffffffff16638da5cb5b6040518163ffffffff1660e01b8152600401602060405180830381865afa92505050801561105f57506040513d601f19601f8201168201806040525081019061105c9190611b98565b60015b61109e576040517f08c379a0000000000000000000000000000000000000000000000000000000008152600401611095906121df565b60405180910390fd5b815f5f6101000a81548173ffffffffffffffffffffffffffffffffffffffff021916908373ffffffffffffffffffffffffffffffffffffffff1602179055505050565b5f6111206040518060400160405280600d81526020017f696e6465782d666163746f72790000000000000000000000000000000000000081525061056f565b905090565b5f6111646040518060400160405280601281526020017f6574662d746f6b656e2d6465706c6f796572000000000000000000000000000081525061056f565b905090565b5f6111a86040518060400160405280601281526020017f6574662d7661756c742d6465706c6f796572000000000000000000000000000081525061056f565b905090565b5f5f6111b76110e1565b73ffffffffffffffffffffffffffffffffffffffff1663549e122b846040518263ffffffff1660e01b81526004016111ef91906116c9565b5f60405180830381865afa158015611209573d5f5f3e3d5ffd5b505050506040513d5f823e3d601f19601f82011682018060405250810190611231919061244d565b90505f61123d84610df8565b90505f5f90505b8260400151518110156113be575f8360400151828151811061126957611268612494565b5b60200260200101515f015190505f8173ffffffffffffffffffffffffffffffffffffffff166370a08231856040518263ffffffff1660e01b81526004016112b09190611676565b602060405180830381865afa1580156112cb573d5f5f3e3d5ffd5b505050506040513d601f19601f820116820180604052508101906112ef919061195d565b90505f81036112ff5750506113b1565b5f611308610db4565b73ffffffffffffffffffffffffffffffffffffffff16637b49b49d846040518263ffffffff1660e01b81526004016113409190611676565b602060405180830381865afa15801561135b573d5f5f3e3d5ffd5b505050506040513d601f19601f8201168201806040525081019061137f919061195d565b9050670de0b6b3a764000081836113969190611a43565b6113a09190611ab1565b876113ab9190611ae1565b96505050505b8080600101915050611244565b505050919050565b5f60015f8381526020019081526020015f205f9054906101000a900473ffffffffffffffffffffffffffffffffffffffff169050919050565b5f604051905090565b5f5ffd5b5f5ffd5b5f819050919050565b61142281611410565b811461142c575f5ffd5b50565b5f8135905061143d81611419565b92915050565b5f5f6040838503121561145957611458611408565b5b5f6114668582860161142f565b92505060206114778582860161142f565b9150509250929050565b5f8115159050919050565b61149581611481565b82525050565b5f6020820190506114ae5f83018461148c565b92915050565b5f5ffd5b5f5ffd5b5f601f19601f8301169050919050565b7f4e487b71000000000000000000000000000000000000000000000000000000005f52604160045260245ffd5b611502826114bc565b810181811067ffffffffffffffff82111715611521576115206114cc565b5b80604052505050565b5f6115336113ff565b905061153f82826114f9565b919050565b5f67ffffffffffffffff82111561155e5761155d6114cc565b5b611567826114bc565b9050602081019050919050565b828183375f83830152505050565b5f61159461158f84611544565b61152a565b9050828152602081018484840111156115b0576115af6114b8565b5b6115bb848285611574565b509392505050565b5f82601f8301126115d7576115d66114b4565b5b81356115e7848260208601611582565b91505092915050565b5f6020828403121561160557611604611408565b5b5f82013567ffffffffffffffff8111156116225761162161140c565b5b61162e848285016115c3565b91505092915050565b5f73ffffffffffffffffffffffffffffffffffffffff82169050919050565b5f61166082611637565b9050919050565b61167081611656565b82525050565b5f6020820190506116895f830184611667565b92915050565b5f602082840312156116a4576116a3611408565b5b5f6116b18482850161142f565b91505092915050565b6116c381611410565b82525050565b5f6020820190506116dc5f8301846116ba565b92915050565b5f819050919050565b5f6117056117006116fb84611637565b6116e2565b611637565b9050919050565b5f611716826116eb565b9050919050565b5f6117278261170c565b9050919050565b6117378161171d565b82525050565b5f6020820190506117505f83018461172e565b92915050565b61175f81611481565b8114611769575f5ffd5b50565b5f8135905061177a81611756565b92915050565b5f6020828403121561179557611794611408565b5b5f6117a28482850161176c565b91505092915050565b6117b481611656565b81146117be575f5ffd5b50565b5f813590506117cf816117ab565b92915050565b5f602082840312156117ea576117e9611408565b5b5f6117f7848285016117c1565b91505092915050565b5f5ffd5b5f6060828403121561181957611818611800565b5b81905092915050565b5f6020828403121561183757611836611408565b5b5f82013567ffffffffffffffff8111156118545761185361140c565b5b61186084828501611804565b91505092915050565b5f82825260208201905092915050565b7f6d73672e73656e646572206973206e6f742065746620726f75746572000000005f82015250565b5f6118ad601c83611869565b91506118b882611879565b602082019050919050565b5f6020820190508181035f8301526118da816118a1565b9050919050565b7f457466466163746f72793a2074726164652076616c7565206973207a65726f005f82015250565b5f611915601f83611869565b9150611920826118e1565b602082019050919050565b5f6020820190508181035f83015261194281611909565b9050919050565b5f8151905061195781611419565b92915050565b5f6020828403121561197257611971611408565b5b5f61197f84828501611949565b91505092915050565b7f457466466163746f72793a20574554482f555344207072696365206973207a655f8201527f726f000000000000000000000000000000000000000000000000000000000000602082015250565b5f6119e2602283611869565b91506119ed82611988565b604082019050919050565b5f6020820190508181035f830152611a0f816119d6565b9050919050565b7f4e487b71000000000000000000000000000000000000000000000000000000005f52601160045260245ffd5b5f611a4d82611410565b9150611a5883611410565b9250828202611a6681611410565b91508282048414831517611a7d57611a7c611a16565b5b5092915050565b7f4e487b71000000000000000000000000000000000000000000000000000000005f52601260045260245ffd5b5f611abb82611410565b9150611ac683611410565b925082611ad657611ad5611a84565b5b828204905092915050565b5f611aeb82611410565b9150611af683611410565b9250828201905080821115611b0e57611b0d611a16565b5b92915050565b5f81519050919050565b8281835e5f83830152505050565b5f611b3682611b14565b611b408185611869565b9350611b50818560208601611b1e565b611b59816114bc565b840191505092915050565b5f6020820190508181035f830152611b7c8184611b2c565b905092915050565b5f81519050611b92816117ab565b92915050565b5f60208284031215611bad57611bac611408565b5b5f611bba84828501611b84565b91505092915050565b7f43616c6c6572206973206e6f7420746865206f776e65720000000000000000005f82015250565b5f611bf7601783611869565b9150611c0282611bc3565b602082019050919050565b5f6020820190508181035f830152611c2481611beb565b9050919050565b7f436f6e7472616374206973206e6f7420616374697665000000000000000000005f82015250565b5f611c5f601683611869565b9150611c6a82611c2b565b602082019050919050565b5f6020820190508181035f830152611c8c81611c53565b9050919050565b5f5ffd5b5f5ffd5b5f5ffd5b5f5f83356001602003843603038112611cbb57611cba611c9b565b5b83810192508235915060208301925067ffffffffffffffff821115611ce357611ce2611c93565b5b600182023603831315611cf957611cf8611c97565b5b509250929050565b5f82825260208201905092915050565b5f611d1c8385611d01565b9350611d29838584611574565b611d32836114bc565b840190509392505050565b5f5f83356001602003843603038112611d5957611d58611c9b565b5b83810192508235915060208301925067ffffffffffffffff821115611d8157611d80611c93565b5b604082023603831315611d9757611d96611c97565b5b509250929050565b5f82825260208201905092915050565b5f819050919050565b5f611dc660208401846117c1565b905092915050565b611dd781611656565b82525050565b5f61ffff82169050919050565b611df381611ddd565b8114611dfd575f5ffd5b50565b5f81359050611e0e81611dea565b92915050565b5f611e226020840184611e00565b905092915050565b611e3381611ddd565b82525050565b60408201611e495f830183611db8565b611e555f850182611dce565b50611e636020830183611e14565b611e706020850182611e2a565b50505050565b5f611e818383611e39565b60408301905092915050565b5f82905092915050565b5f604082019050919050565b5f611eae8385611d9f565b9350611eb982611daf565b805f5b85811015611ef157611ece8284611e8d565b611ed88882611e76565b9750611ee383611e97565b925050600181019050611ebc565b5085925050509392505050565b5f60608301611f0f5f840184611c9f565b8583035f870152611f21838284611d11565b92505050611f326020840184611c9f565b8583036020870152611f45838284611d11565b92505050611f566040840184611d3d565b8583036040870152611f69838284611ea3565b925050508091505092915050565b5f6020820190508181035f830152611f8f8184611efe565b905092915050565b5f5ffd5b5f5ffd5b5f5ffd5b5f5f83356001602003843603038112611fbf57611fbe611f97565b5b80840192508235915067ffffffffffffffff821115611fe157611fe0611f9b565b5b602083019250600182023603831315611ffd57611ffc611f9f565b5b509250929050565b5f6120108385611869565b935061201d838584611574565b612026836114bc565b840190509392505050565b5f6060820190506120445f8301886116ba565b8181036020830152612057818688612005565b9050818103604083015261206c818486612005565b90509695505050505050565b5f60408201905061208b5f830185611667565b6120986020830184611667565b9392505050565b7f4469726563746f72792063616e6e6f74206265207a65726f20616464726573735f82015250565b5f6120d3602083611869565b91506120de8261209f565b602082019050919050565b5f6020820190508181035f830152612100816120c7565b9050919050565b7f4469726563746f7279206d757374206265206120636f6e7472616374000000005f82015250565b5f61213b601c83611869565b915061214682612107565b602082019050919050565b5f6020820190508181035f8301526121688161212f565b9050919050565b7f4469726563746f7279206164647265737320646f6573206e6f7420696d706c655f8201527f6d656e74206f776e657228290000000000000000000000000000000000000000602082015250565b5f6121c9602c83611869565b91506121d48261216f565b604082019050919050565b5f6020820190508181035f8301526121f6816121bd565b9050919050565b5f5ffd5b5f5ffd5b5f61221761221284611544565b61152a565b905082815260208101848484011115612233576122326114b8565b5b61223e848285611b1e565b509392505050565b5f82601f83011261225a576122596114b4565b5b815161226a848260208601612205565b91505092915050565b5f67ffffffffffffffff82111561228d5761228c6114cc565b5b602082029050602081019050919050565b5f5ffd5b5f815190506122b081611dea565b92915050565b5f604082840312156122cb576122ca6121fd565b5b6122d5604061152a565b90505f6122e484828501611b84565b5f8301525060206122f7848285016122a2565b60208301525092915050565b5f61231561231084612273565b61152a565b905080838252602082019050604084028301858111156123385761233761229e565b5b835b81811015612361578061234d88826122b6565b84526020840193505060408101905061233a565b5050509392505050565b5f82601f83011261237f5761237e6114b4565b5b815161238f848260208601612303565b91505092915050565b5f606082840312156123ad576123ac6121fd565b5b6123b7606061152a565b90505f82015167ffffffffffffffff8111156123d6576123d5612201565b5b6123e284828501612246565b5f83015250602082015167ffffffffffffffff81111561240557612404612201565b5b61241184828501612246565b602083015250604082015167ffffffffffffffff81111561243557612434612201565b5b6124418482850161236b565b60408301525092915050565b5f6020828403121561246257612461611408565b5b5f82015167ffffffffffffffff81111561247f5761247e61140c565b5b61248b84828501612398565b91505092915050565b7f4e487b71000000000000000000000000000000000000000000000000000000005f52603260045260245ffdfea2646970667358221220157b4a2676f51af3288c00b05c49916f8f5ad9160430c0dfae5ec54f64adf57a64736f6c634300081e0033",
					"opcodes": "PUSH1 0x80 PUSH1 0x40 MSTORE PUSH1 0x1 PUSH1 0x6 PUSH0 PUSH2 0x100 EXP DUP2 SLOAD DUP2 PUSH1 0xFF MUL NOT AND SWAP1 DUP4 ISZERO ISZERO MUL OR SWAP1 SSTORE POP CALLVALUE DUP1 ISZERO PUSH2 0x29 JUMPI PUSH0 PUSH0 REVERT JUMPDEST POP PUSH1 0x40 MLOAD PUSH2 0x290E CODESIZE SUB DUP1 PUSH2 0x290E DUP4 CODECOPY DUP2 DUP2 ADD PUSH1 0x40 MSTORE DUP2 ADD SWAP1 PUSH2 0x4B SWAP2 SWAP1 PUSH2 0x271 JUMP JUMPDEST DUP1 PUSH2 0x5B DUP2 PUSH2 0x62 PUSH1 0x20 SHL PUSH1 0x20 SHR JUMP JUMPDEST POP POP PUSH2 0x40A JUMP JUMPDEST PUSH0 PUSH20 0xFFFFFFFFFFFFFFFFFFFFFFFFFFFFFFFFFFFFFFFF AND DUP2 PUSH20 0xFFFFFFFFFFFFFFFFFFFFFFFFFFFFFFFFFFFFFFFF AND SUB PUSH2 0xD0 JUMPI PUSH1 0x40 MLOAD PUSH32 0x8C379A000000000000000000000000000000000000000000000000000000000 DUP2 MSTORE PUSH1 0x4 ADD PUSH2 0xC7 SWAP1 PUSH2 0x2F6 JUMP JUMPDEST PUSH1 0x40 MLOAD DUP1 SWAP2 SUB SWAP1 REVERT JUMPDEST PUSH0 DUP2 PUSH20 0xFFFFFFFFFFFFFFFFFFFFFFFFFFFFFFFFFFFFFFFF AND EXTCODESIZE GT PUSH2 0x129 JUMPI PUSH1 0x40 MLOAD PUSH32 0x8C379A000000000000000000000000000000000000000000000000000000000 DUP2 MSTORE PUSH1 0x4 ADD PUSH2 0x120 SWAP1 PUSH2 0x35E JUMP JUMPDEST PUSH1 0x40 MLOAD DUP1 SWAP2 SUB SWAP1 REVERT JUMPDEST DUP1 PUSH20 0xFFFFFFFFFFFFFFFFFFFFFFFFFFFFFFFFFFFFFFFF AND PUSH4 0x8DA5CB5B PUSH1 0x40 MLOAD DUP2 PUSH4 0xFFFFFFFF AND PUSH1 0xE0 SHL DUP2 MSTORE PUSH1 0x4 ADD PUSH1 0x20 PUSH1 0x40 MLOAD DUP1 DUP4 SUB DUP2 DUP7 GAS STATICCALL SWAP3 POP POP POP DUP1 ISZERO PUSH2 0x191 JUMPI POP PUSH1 0x40 MLOAD RETURNDATASIZE PUSH1 0x1F NOT PUSH1 0x1F DUP3 ADD AND DUP3 ADD DUP1 PUSH1 0x40 MSTORE POP DUP2 ADD SWAP1 PUSH2 0x18E SWAP2 SWAP1 PUSH2 0x271 JUMP JUMPDEST PUSH1 0x1 JUMPDEST PUSH2 0x1D0 JUMPI PUSH1 0x40 MLOAD PUSH32 0x8C379A000000000000000000000000000000000000000000000000000000000 DUP2 MSTORE PUSH1 0x4 ADD PUSH2 0x1C7 SWAP1 PUSH2 0x3EC JUMP JUMPDEST PUSH1 0x40 MLOAD DUP1 SWAP2 SUB SWAP1 REVERT JUMPDEST DUP2 PUSH0 PUSH0 PUSH2 0x100 EXP DUP2 SLOAD DUP2 PUSH20 0xFFFFFFFFFFFFFFFFFFFFFFFFFFFFFFFFFFFFFFFF MUL NOT AND SWAP1 DUP4 PUSH20 0xFFFFFFFFFFFFFFFFFFFFFFFFFFFFFFFFFFFFFFFF AND MUL OR SWAP1 SSTORE POP POP POP JUMP JUMPDEST PUSH0 PUSH0 REVERT JUMPDEST PUSH0 PUSH20 0xFFFFFFFFFFFFFFFFFFFFFFFFFFFFFFFFFFFFFFFF DUP3 AND SWAP1 POP SWAP2 SWAP1 POP JUMP JUMPDEST PUSH0 PUSH2 0x240 DUP3 PUSH2 0x217 JUMP JUMPDEST SWAP1 POP SWAP2 SWAP1 POP JUMP JUMPDEST PUSH2 0x250 DUP2 PUSH2 0x236 JUMP JUMPDEST DUP2 EQ PUSH2 0x25A JUMPI PUSH0 PUSH0 REVERT JUMPDEST POP JUMP JUMPDEST PUSH0 DUP2 MLOAD SWAP1 POP PUSH2 0x26B DUP2 PUSH2 0x247 JUMP JUMPDEST SWAP3 SWAP2 POP POP JUMP JUMPDEST PUSH0 PUSH1 0x20 DUP3 DUP5 SUB SLT ISZERO PUSH2 0x286 JUMPI PUSH2 0x285 PUSH2 0x213 JUMP JUMPDEST JUMPDEST PUSH0 PUSH2 0x293 DUP5 DUP3 DUP6 ADD PUSH2 0x25D JUMP JUMPDEST SWAP2 POP POP SWAP3 SWAP2 POP POP JUMP JUMPDEST PUSH0 DUP3 DUP3 MSTORE PUSH1 0x20 DUP3 ADD SWAP1 POP SWAP3 SWAP2 POP POP JUMP JUMPDEST PUSH32 0x4469726563746F72792063616E6E6F74206265207A65726F2061646472657373 PUSH0 DUP3 ADD MSTORE POP JUMP JUMPDEST PUSH0 PUSH2 0x2E0 PUSH1 0x20 DUP4 PUSH2 0x29C JUMP JUMPDEST SWAP2 POP PUSH2 0x2EB DUP3 PUSH2 0x2AC JUMP JUMPDEST PUSH1 0x20 DUP3 ADD SWAP1 POP SWAP2 SWAP1 POP JUMP JUMPDEST PUSH0 PUSH1 0x20 DUP3 ADD SWAP1 POP DUP2 DUP2 SUB PUSH0 DUP4 ADD MSTORE PUSH2 0x30D DUP2 PUSH2 0x2D4 JUMP JUMPDEST SWAP1 POP SWAP2 SWAP1 POP JUMP JUMPDEST PUSH32 0x4469726563746F7279206D757374206265206120636F6E747261637400000000 PUSH0 DUP3 ADD MSTORE POP JUMP JUMPDEST PUSH0 PUSH2 0x348 PUSH1 0x1C DUP4 PUSH2 0x29C JUMP JUMPDEST SWAP2 POP PUSH2 0x353 DUP3 PUSH2 0x314 JUMP JUMPDEST PUSH1 0x20 DUP3 ADD SWAP1 POP SWAP2 SWAP1 POP JUMP JUMPDEST PUSH0 PUSH1 0x20 DUP3 ADD SWAP1 POP DUP2 DUP2 SUB PUSH0 DUP4 ADD MSTORE PUSH2 0x375 DUP2 PUSH2 0x33C JUMP JUMPDEST SWAP1 POP SWAP2 SWAP1 POP JUMP JUMPDEST PUSH32 0x4469726563746F7279206164647265737320646F6573206E6F7420696D706C65 PUSH0 DUP3 ADD MSTORE PUSH32 0x6D656E74206F776E657228290000000000000000000000000000000000000000 PUSH1 0x20 DUP3 ADD MSTORE POP JUMP JUMPDEST PUSH0 PUSH2 0x3D6 PUSH1 0x2C DUP4 PUSH2 0x29C JUMP JUMPDEST SWAP2 POP PUSH2 0x3E1 DUP3 PUSH2 0x37C JUMP JUMPDEST PUSH1 0x40 DUP3 ADD SWAP1 POP SWAP2 SWAP1 POP JUMP JUMPDEST PUSH0 PUSH1 0x20 DUP3 ADD SWAP1 POP DUP2 DUP2 SUB PUSH0 DUP4 ADD MSTORE PUSH2 0x403 DUP2 PUSH2 0x3CA JUMP JUMPDEST SWAP1 POP SWAP2 SWAP1 POP JUMP JUMPDEST PUSH2 0x24F7 DUP1 PUSH2 0x417 PUSH0 CODECOPY PUSH0 RETURN INVALID PUSH1 0x80 PUSH1 0x40 MSTORE CALLVALUE DUP1 ISZERO PUSH2 0xF JUMPI PUSH0 PUSH0 REVERT JUMPDEST POP PUSH1 0x4 CALLDATASIZE LT PUSH2 0xF3 JUMPI PUSH0 CALLDATALOAD PUSH1 0xE0 SHR DUP1 PUSH4 0x8DA5CB5B GT PUSH2 0x95 JUMPI DUP1 PUSH4 0xC4EDA09E GT PUSH2 0x64 JUMPI DUP1 PUSH4 0xC4EDA09E EQ PUSH2 0x295 JUMPI DUP1 PUSH4 0xD00ED651 EQ PUSH2 0x2B1 JUMPI DUP1 PUSH4 0xE4B603B3 EQ PUSH2 0x2E1 JUMPI DUP1 PUSH4 0xF2018A1F EQ PUSH2 0x311 JUMPI PUSH2 0xF3 JUMP JUMPDEST DUP1 PUSH4 0x8DA5CB5B EQ PUSH2 0x20F JUMPI DUP1 PUSH4 0x9CFE0B3B EQ PUSH2 0x22D JUMPI DUP1 PUSH4 0xACEC338A EQ PUSH2 0x25D JUMPI DUP1 PUSH4 0xBA4C7BE1 EQ PUSH2 0x279 JUMPI PUSH2 0xF3 JUMP JUMPDEST DUP1 PUSH4 0x3EE79962 GT PUSH2 0xD1 JUMPI DUP1 PUSH4 0x3EE79962 EQ PUSH2 0x161 JUMPI DUP1 PUSH4 0x4EEA0E0D EQ PUSH2 0x191 JUMPI DUP1 PUSH4 0x658A847A EQ PUSH2 0x1C1 JUMPI DUP1 PUSH4 0x65A8F8B5 EQ PUSH2 0x1DF JUMPI PUSH2 0xF3 JUMP JUMPDEST DUP1 PUSH4 0x1626542C EQ PUSH2 0xF7 JUMPI DUP1 PUSH4 0x22F3E2D4 EQ PUSH2 0x113 JUMPI DUP1 PUSH4 0x27262618 EQ PUSH2 0x131 JUMPI JUMPDEST PUSH0 PUSH0 REVERT JUMPDEST PUSH2 0x111 PUSH1 0x4 DUP1 CALLDATASIZE SUB DUP2 ADD SWAP1 PUSH2 0x10C SWAP2 SWAP1 PUSH2 0x1443 JUMP JUMPDEST PUSH2 0x341 JUMP JUMPDEST STOP JUMPDEST PUSH2 0x11B PUSH2 0x55D JUMP JUMPDEST PUSH1 0x40 MLOAD PUSH2 0x128 SWAP2 SWAP1 PUSH2 0x149B JUMP JUMPDEST PUSH1 0x40 MLOAD DUP1 SWAP2 SUB SWAP1 RETURN JUMPDEST PUSH2 0x14B PUSH1 0x4 DUP1 CALLDATASIZE SUB DUP2 ADD SWAP1 PUSH2 0x146 SWAP2 SWAP1 PUSH2 0x15F0 JUMP JUMPDEST PUSH2 0x56F JUMP JUMPDEST PUSH1 0x40 MLOAD PUSH2 0x158 SWAP2 SWAP1 PUSH2 0x1676 JUMP JUMPDEST PUSH1 0x40 MLOAD DUP1 SWAP2 SUB SWAP1 RETURN JUMPDEST PUSH2 0x17B PUSH1 0x4 DUP1 CALLDATASIZE SUB DUP2 ADD SWAP1 PUSH2 0x176 SWAP2 SWAP1 PUSH2 0x168F JUMP JUMPDEST PUSH2 0x60F JUMP JUMPDEST PUSH1 0x40 MLOAD PUSH2 0x188 SWAP2 SWAP1 PUSH2 0x1676 JUMP JUMPDEST PUSH1 0x40 MLOAD DUP1 SWAP2 SUB SWAP1 RETURN JUMPDEST PUSH2 0x1AB PUSH1 0x4 DUP1 CALLDATASIZE SUB DUP2 ADD SWAP1 PUSH2 0x1A6 SWAP2 SWAP1 PUSH2 0x168F JUMP JUMPDEST PUSH2 0x620 JUMP JUMPDEST PUSH1 0x40 MLOAD PUSH2 0x1B8 SWAP2 SWAP1 PUSH2 0x16C9 JUMP JUMPDEST PUSH1 0x40 MLOAD DUP1 SWAP2 SUB SWAP1 RETURN JUMPDEST PUSH2 0x1C9 PUSH2 0x63A JUMP JUMPDEST PUSH1 0x40 MLOAD PUSH2 0x1D6 SWAP2 SWAP1 PUSH2 0x173D JUMP JUMPDEST PUSH1 0x40 MLOAD DUP1 SWAP2 SUB SWAP1 RETURN JUMPDEST PUSH2 0x1F9 PUSH1 0x4 DUP1 CALLDATASIZE SUB DUP2 ADD SWAP1 PUSH2 0x1F4 SWAP2 SWAP1 PUSH2 0x168F JUMP JUMPDEST PUSH2 0x65E JUMP JUMPDEST PUSH1 0x40 MLOAD PUSH2 0x206 SWAP2 SWAP1 PUSH2 0x16C9 JUMP JUMPDEST PUSH1 0x40 MLOAD DUP1 SWAP2 SUB SWAP1 RETURN JUMPDEST PUSH2 0x217 PUSH2 0x66F JUMP JUMPDEST PUSH1 0x40 MLOAD PUSH2 0x224 SWAP2 SWAP1 PUSH2 0x1676 JUMP JUMPDEST PUSH1 0x40 MLOAD DUP1 SWAP2 SUB SWAP1 RETURN JUMPDEST PUSH2 0x247 PUSH1 0x4 DUP1 CALLDATASIZE SUB DUP2 ADD SWAP1 PUSH2 0x242 SWAP2 SWAP1 PUSH2 0x168F JUMP JUMPDEST PUSH2 0x702 JUMP JUMPDEST PUSH1 0x40 MLOAD PUSH2 0x254 SWAP2 SWAP1 PUSH2 0x16C9 JUMP JUMPDEST PUSH1 0x40 MLOAD DUP1 SWAP2 SUB SWAP1 RETURN JUMPDEST PUSH2 0x277 PUSH1 0x4 DUP1 CALLDATASIZE SUB DUP2 ADD SWAP1 PUSH2 0x272 SWAP2 SWAP1 PUSH2 0x1780 JUMP JUMPDEST PUSH2 0x71C JUMP JUMPDEST STOP JUMPDEST PUSH2 0x293 PUSH1 0x4 DUP1 CALLDATASIZE SUB DUP2 ADD SWAP1 PUSH2 0x28E SWAP2 SWAP1 PUSH2 0x17D5 JUMP JUMPDEST PUSH2 0x832 JUMP JUMPDEST STOP JUMPDEST PUSH2 0x2AF PUSH1 0x4 DUP1 CALLDATASIZE SUB DUP2 ADD SWAP1 PUSH2 0x2AA SWAP2 SWAP1 PUSH2 0x1822 JUMP JUMPDEST PUSH2 0x938 JUMP JUMPDEST STOP JUMPDEST PUSH2 0x2CB PUSH1 0x4 DUP1 CALLDATASIZE SUB DUP2 ADD SWAP1 PUSH2 0x2C6 SWAP2 SWAP1 PUSH2 0x17D5 JUMP JUMPDEST PUSH2 0xD4C JUMP JUMPDEST PUSH1 0x40 MLOAD PUSH2 0x2D8 SWAP2 SWAP1 PUSH2 0x16C9 JUMP JUMPDEST PUSH1 0x40 MLOAD DUP1 SWAP2 SUB SWAP1 RETURN JUMPDEST PUSH2 0x2FB PUSH1 0x4 DUP1 CALLDATASIZE SUB DUP2 ADD SWAP1 PUSH2 0x2F6 SWAP2 SWAP1 PUSH2 0x168F JUMP JUMPDEST PUSH2 0xD92 JUMP JUMPDEST PUSH1 0x40 MLOAD PUSH2 0x308 SWAP2 SWAP1 PUSH2 0x16C9 JUMP JUMPDEST PUSH1 0x40 MLOAD DUP1 SWAP2 SUB SWAP1 RETURN JUMPDEST PUSH2 0x32B PUSH1 0x4 DUP1 CALLDATASIZE SUB DUP2 ADD SWAP1 PUSH2 0x326 SWAP2 SWAP1 PUSH2 0x168F JUMP JUMPDEST PUSH2 0xDA3 JUMP JUMPDEST PUSH1 0x40 MLOAD PUSH2 0x338 SWAP2 SWAP1 PUSH2 0x1676 JUMP JUMPDEST PUSH1 0x40 MLOAD DUP1 SWAP2 SUB SWAP1 RETURN JUMPDEST PUSH2 0x37F PUSH1 0x40 MLOAD DUP1 PUSH1 0x40 ADD PUSH1 0x40 MSTORE DUP1 PUSH1 0xA DUP2 MSTORE PUSH1 0x20 ADD PUSH32 0x6574662D726F7574657200000000000000000000000000000000000000000000 DUP2 MSTORE POP PUSH2 0x56F JUMP JUMPDEST PUSH20 0xFFFFFFFFFFFFFFFFFFFFFFFFFFFFFFFFFFFFFFFF AND CALLER PUSH20 0xFFFFFFFFFFFFFFFFFFFFFFFFFFFFFFFFFFFFFFFF AND EQ PUSH2 0x3EC JUMPI PUSH1 0x40 MLOAD PUSH32 0x8C379A000000000000000000000000000000000000000000000000000000000 DUP2 MSTORE PUSH1 0x4 ADD PUSH2 0x3E3 SWAP1 PUSH2 0x18C3 JUMP JUMPDEST PUSH1 0x40 MLOAD DUP1 SWAP2 SUB SWAP1 REVERT JUMPDEST PUSH0 DUP2 GT PUSH2 0x42E JUMPI PUSH1 0x40 MLOAD PUSH32 0x8C379A000000000000000000000000000000000000000000000000000000000 DUP2 MSTORE PUSH1 0x4 ADD PUSH2 0x425 SWAP1 PUSH2 0x192B JUMP JUMPDEST PUSH1 0x40 MLOAD DUP1 SWAP2 SUB SWAP1 REVERT JUMPDEST PUSH0 PUSH2 0x437 PUSH2 0xDB4 JUMP JUMPDEST PUSH20 0xFFFFFFFFFFFFFFFFFFFFFFFFFFFFFFFFFFFFFFFF AND PUSH4 0x6855E939 PUSH1 0x40 MLOAD DUP2 PUSH4 0xFFFFFFFF AND PUSH1 0xE0 SHL DUP2 MSTORE PUSH1 0x4 ADD PUSH1 0x20 PUSH1 0x40 MLOAD DUP1 DUP4 SUB DUP2 DUP7 GAS STATICCALL ISZERO DUP1 ISZERO PUSH2 0x47F JUMPI RETURNDATASIZE PUSH0 PUSH0 RETURNDATACOPY RETURNDATASIZE PUSH0 REVERT JUMPDEST POP POP POP POP PUSH1 0x40 MLOAD RETURNDATASIZE PUSH1 0x1F NOT PUSH1 0x1F DUP3 ADD AND DUP3 ADD DUP1 PUSH1 0x40 MSTORE POP DUP2 ADD SWAP1 PUSH2 0x4A3 SWAP2 SWAP1 PUSH2 0x195D JUMP JUMPDEST SWAP1 POP PUSH0 DUP2 GT PUSH2 0x4E7 JUMPI PUSH1 0x40 MLOAD PUSH32 0x8C379A000000000000000000000000000000000000000000000000000000000 DUP2 MSTORE PUSH1 0x4 ADD PUSH2 0x4DE SWAP1 PUSH2 0x19F8 JUMP JUMPDEST PUSH1 0x40 MLOAD DUP1 SWAP2 SUB SWAP1 REVERT JUMPDEST PUSH0 PUSH8 0xDE0B6B3A7640000 DUP3 DUP5 PUSH2 0x4FD SWAP2 SWAP1 PUSH2 0x1A43 JUMP JUMPDEST PUSH2 0x507 SWAP2 SWAP1 PUSH2 0x1AB1 JUMP JUMPDEST SWAP1 POP DUP3 PUSH1 0x4 PUSH0 DUP7 DUP2 MSTORE PUSH1 0x20 ADD SWAP1 DUP2 MSTORE PUSH1 0x20 ADD PUSH0 KECCAK256 PUSH0 DUP3 DUP3 SLOAD PUSH2 0x529 SWAP2 SWAP1 PUSH2 0x1AE1 JUMP JUMPDEST SWAP3 POP POP DUP2 SWAP1 SSTORE POP DUP1 PUSH1 0x5 PUSH0 DUP7 DUP2 MSTORE PUSH1 0x20 ADD SWAP1 DUP2 MSTORE PUSH1 0x20 ADD PUSH0 KECCAK256 PUSH0 DUP3 DUP3 SLOAD PUSH2 0x550 SWAP2 SWAP1 PUSH2 0x1AE1 JUMP JUMPDEST SWAP3 POP POP DUP2 SWAP1 SSTORE POP POP POP POP POP JUMP JUMPDEST PUSH1 0x6 PUSH0 SWAP1 SLOAD SWAP1 PUSH2 0x100 EXP SWAP1 DIV PUSH1 0xFF AND DUP2 JUMP JUMPDEST PUSH0 PUSH0 PUSH0 SWAP1 SLOAD SWAP1 PUSH2 0x100 EXP SWAP1 DIV PUSH20 0xFFFFFFFFFFFFFFFFFFFFFFFFFFFFFFFFFFFFFFFF AND PUSH20 0xFFFFFFFFFFFFFFFFFFFFFFFFFFFFFFFFFFFFFFFF AND PUSH4 0x27262618 DUP4 PUSH1 0x40 MLOAD DUP3 PUSH4 0xFFFFFFFF AND PUSH1 0xE0 SHL DUP2 MSTORE PUSH1 0x4 ADD PUSH2 0x5C9 SWAP2 SWAP1 PUSH2 0x1B64 JUMP JUMPDEST PUSH1 0x20 PUSH1 0x40 MLOAD DUP1 DUP4 SUB DUP2 DUP7 GAS STATICCALL ISZERO DUP1 ISZERO PUSH2 0x5E4 JUMPI RETURNDATASIZE PUSH0 PUSH0 RETURNDATACOPY RETURNDATASIZE PUSH0 REVERT JUMPDEST POP POP POP POP PUSH1 0x40 MLOAD RETURNDATASIZE PUSH1 0x1F NOT PUSH1 0x1F DUP3 ADD AND DUP3 ADD DUP1 PUSH1 0x40 MSTORE POP DUP2 ADD SWAP1 PUSH2 0x608 SWAP2 SWAP1 PUSH2 0x1B98 JUMP JUMPDEST SWAP1 POP SWAP2 SWAP1 POP JUMP JUMPDEST PUSH0 PUSH2 0x619 DUP3 PUSH2 0xDF8 JUMP JUMPDEST SWAP1 POP SWAP2 SWAP1 POP JUMP JUMPDEST PUSH0 PUSH1 0x4 PUSH0 DUP4 DUP2 MSTORE PUSH1 0x20 ADD SWAP1 DUP2 MSTORE PUSH1 0x20 ADD PUSH0 KECCAK256 SLOAD SWAP1 POP SWAP2 SWAP1 POP JUMP JUMPDEST PUSH0 PUSH0 SWAP1 SLOAD SWAP1 PUSH2 0x100 EXP SWAP1 DIV PUSH20 0xFFFFFFFFFFFFFFFFFFFFFFFFFFFFFFFFFFFFFFFF AND DUP2 JUMP JUMPDEST PUSH0 PUSH2 0x668 DUP3 PUSH2 0xE31 JUMP JUMPDEST SWAP1 POP SWAP2 SWAP1 POP JUMP JUMPDEST PUSH0 PUSH0 PUSH0 SWAP1 SLOAD SWAP1 PUSH2 0x100 EXP SWAP1 DIV PUSH20 0xFFFFFFFFFFFFFFFFFFFFFFFFFFFFFFFFFFFFFFFF AND PUSH20 0xFFFFFFFFFFFFFFFFFFFFFFFFFFFFFFFFFFFFFFFF AND PUSH4 0x8DA5CB5B PUSH1 0x40 MLOAD DUP2 PUSH4 0xFFFFFFFF AND PUSH1 0xE0 SHL DUP2 MSTORE PUSH1 0x4 ADD PUSH1 0x20 PUSH1 0x40 MLOAD DUP1 DUP4 SUB DUP2 DUP7 GAS STATICCALL ISZERO DUP1 ISZERO PUSH2 0x6D9 JUMPI RETURNDATASIZE PUSH0 PUSH0 RETURNDATACOPY RETURNDATASIZE PUSH0 REVERT JUMPDEST POP POP POP POP PUSH1 0x40 MLOAD RETURNDATASIZE PUSH1 0x1F NOT PUSH1 0x1F DUP3 ADD AND DUP3 ADD DUP1 PUSH1 0x40 MSTORE POP DUP2 ADD SWAP1 PUSH2 0x6FD SWAP2 SWAP1 PUSH2 0x1B98 JUMP JUMPDEST SWAP1 POP SWAP1 JUMP JUMPDEST PUSH0 PUSH1 0x5 PUSH0 DUP4 DUP2 MSTORE PUSH1 0x20 ADD SWAP1 DUP2 MSTORE PUSH1 0x20 ADD PUSH0 KECCAK256 SLOAD SWAP1 POP SWAP2 SWAP1 POP JUMP JUMPDEST PUSH0 PUSH0 SWAP1 SLOAD SWAP1 PUSH2 0x100 EXP SWAP1 DIV PUSH20 0xFFFFFFFFFFFFFFFFFFFFFFFFFFFFFFFFFFFFFFFF AND PUSH20 0xFFFFFFFFFFFFFFFFFFFFFFFFFFFFFFFFFFFFFFFF AND PUSH4 0x8DA5CB5B PUSH1 0x40 MLOAD DUP2 PUSH4 0xFFFFFFFF AND PUSH1 0xE0 SHL DUP2 MSTORE PUSH1 0x4 ADD PUSH1 0x20 PUSH1 0x40 MLOAD DUP1 DUP4 SUB DUP2 DUP7 GAS STATICCALL ISZERO DUP1 ISZERO PUSH2 0x785 JUMPI RETURNDATASIZE PUSH0 PUSH0 RETURNDATACOPY RETURNDATASIZE PUSH0 REVERT JUMPDEST POP POP POP POP PUSH1 0x40 MLOAD RETURNDATASIZE PUSH1 0x1F NOT PUSH1 0x1F DUP3 ADD AND DUP3 ADD DUP1 PUSH1 0x40 MSTORE POP DUP2 ADD SWAP1 PUSH2 0x7A9 SWAP2 SWAP1 PUSH2 0x1B98 JUMP JUMPDEST PUSH20 0xFFFFFFFFFFFFFFFFFFFFFFFFFFFFFFFFFFFFFFFF AND CALLER PUSH20 0xFFFFFFFFFFFFFFFFFFFFFFFFFFFFFFFFFFFFFFFF AND EQ PUSH2 0x816 JUMPI PUSH1 0x40 MLOAD PUSH32 0x8C379A000000000000000000000000000000000000000000000000000000000 DUP2 MSTORE PUSH1 0x4 ADD PUSH2 0x80D SWAP1 PUSH2 0x1C0D JUMP JUMPDEST PUSH1 0x40 MLOAD DUP1 SWAP2 SUB SWAP1 REVERT JUMPDEST DUP1 PUSH1 0x6 PUSH0 PUSH2 0x100 EXP DUP2 SLOAD DUP2 PUSH1 0xFF MUL NOT AND SWAP1 DUP4 ISZERO ISZERO MUL OR SWAP1 SSTORE POP POP JUMP JUMPDEST PUSH0 PUSH0 SWAP1 SLOAD SWAP1 PUSH2 0x100 EXP SWAP1 DIV PUSH20 0xFFFFFFFFFFFFFFFFFFFFFFFFFFFFFFFFFFFFFFFF AND PUSH20 0xFFFFFFFFFFFFFFFFFFFFFFFFFFFFFFFFFFFFFFFF AND PUSH4 0x8DA5CB5B PUSH1 0x40 MLOAD DUP2 PUSH4 0xFFFFFFFF AND PUSH1 0xE0 SHL DUP2 MSTORE PUSH1 0x4 ADD PUSH1 0x20 PUSH1 0x40 MLOAD DUP1 DUP4 SUB DUP2 DUP7 GAS STATICCALL ISZERO DUP1 ISZERO PUSH2 0x89B JUMPI RETURNDATASIZE PUSH0 PUSH0 RETURNDATACOPY RETURNDATASIZE PUSH0 REVERT JUMPDEST POP POP POP POP PUSH1 0x40 MLOAD RETURNDATASIZE PUSH1 0x1F NOT PUSH1 0x1F DUP3 ADD AND DUP3 ADD DUP1 PUSH1 0x40 MSTORE POP DUP2 ADD SWAP1 PUSH2 0x8BF SWAP2 SWAP1 PUSH2 0x1B98 JUMP JUMPDEST PUSH20 0xFFFFFFFFFFFFFFFFFFFFFFFFFFFFFFFFFFFFFFFF AND CALLER PUSH20 0xFFFFFFFFFFFFFFFFFFFFFFFFFFFFFFFFFFFFFFFF AND EQ PUSH2 0x92C JUMPI PUSH1 0x40 MLOAD PUSH32 0x8C379A000000000000000000000000000000000000000000000000000000000 DUP2 MSTORE PUSH1 0x4 ADD PUSH2 0x923 SWAP1 PUSH2 0x1C0D JUMP JUMPDEST PUSH1 0x40 MLOAD DUP1 SWAP2 SUB SWAP1 REVERT JUMPDEST PUSH2 0x935 DUP2 PUSH2 0xF30 JUMP JUMPDEST POP JUMP JUMPDEST PUSH0 PUSH0 SWAP1 SLOAD SWAP1 PUSH2 0x100 EXP SWAP1 DIV PUSH20 0xFFFFFFFFFFFFFFFFFFFFFFFFFFFFFFFFFFFFFFFF AND PUSH20 0xFFFFFFFFFFFFFFFFFFFFFFFFFFFFFFFFFFFFFFFF AND PUSH4 0x8DA5CB5B PUSH1 0x40 MLOAD DUP2 PUSH4 0xFFFFFFFF AND PUSH1 0xE0 SHL DUP2 MSTORE PUSH1 0x4 ADD PUSH1 0x20 PUSH1 0x40 MLOAD DUP1 DUP4 SUB DUP2 DUP7 GAS STATICCALL ISZERO DUP1 ISZERO PUSH2 0x9A1 JUMPI RETURNDATASIZE PUSH0 PUSH0 RETURNDATACOPY RETURNDATASIZE PUSH0 REVERT JUMPDEST POP POP POP POP PUSH1 0x40 MLOAD RETURNDATASIZE PUSH1 0x1F NOT PUSH1 0x1F DUP3 ADD AND DUP3 ADD DUP1 PUSH1 0x40 MSTORE POP DUP2 ADD SWAP1 PUSH2 0x9C5 SWAP2 SWAP1 PUSH2 0x1B98 JUMP JUMPDEST PUSH20 0xFFFFFFFFFFFFFFFFFFFFFFFFFFFFFFFFFFFFFFFF AND CALLER PUSH20 0xFFFFFFFFFFFFFFFFFFFFFFFFFFFFFFFFFFFFFFFF AND EQ PUSH2 0xA32 JUMPI PUSH1 0x40 MLOAD PUSH32 0x8C379A000000000000000000000000000000000000000000000000000000000 DUP2 MSTORE PUSH1 0x4 ADD PUSH2 0xA29 SWAP1 PUSH2 0x1C0D JUMP JUMPDEST PUSH1 0x40 MLOAD DUP1 SWAP2 SUB SWAP1 REVERT JUMPDEST PUSH1 0x6 PUSH0 SWAP1 SLOAD SWAP1 PUSH2 0x100 EXP SWAP1 DIV PUSH1 0xFF AND PUSH2 0xA80 JUMPI PUSH1 0x40 MLOAD PUSH32 0x8C379A000000000000000000000000000000000000000000000000000000000 DUP2 MSTORE PUSH1 0x4 ADD PUSH2 0xA77 SWAP1 PUSH2 0x1C75 JUMP JUMPDEST PUSH1 0x40 MLOAD DUP1 SWAP2 SUB SWAP1 REVERT JUMPDEST PUSH0 PUSH2 0xA89 PUSH2 0x10E1 JUMP JUMPDEST PUSH20 0xFFFFFFFFFFFFFFFFFFFFFFFFFFFFFFFFFFFFFFFF AND PUSH4 0x428D9A93 DUP4 PUSH1 0x40 MLOAD DUP3 PUSH4 0xFFFFFFFF AND PUSH1 0xE0 SHL DUP2 MSTORE PUSH1 0x4 ADD PUSH2 0xAC1 SWAP2 SWAP1 PUSH2 0x1F77 JUMP JUMPDEST PUSH1 0x20 PUSH1 0x40 MLOAD DUP1 DUP4 SUB DUP2 PUSH0 DUP8 GAS CALL ISZERO DUP1 ISZERO PUSH2 0xADD JUMPI RETURNDATASIZE PUSH0 PUSH0 RETURNDATACOPY RETURNDATASIZE PUSH0 REVERT JUMPDEST POP POP POP POP PUSH1 0x40 MLOAD RETURNDATASIZE PUSH1 0x1F NOT PUSH1 0x1F DUP3 ADD AND DUP3 ADD DUP1 PUSH1 0x40 MSTORE POP DUP2 ADD SWAP1 PUSH2 0xB01 SWAP2 SWAP1 PUSH2 0x195D JUMP JUMPDEST SWAP1 POP PUSH0 PUSH2 0xB0C PUSH2 0x1125 JUMP JUMPDEST PUSH20 0xFFFFFFFFFFFFFFFFFFFFFFFFFFFFFFFFFFFFFFFF AND PUSH4 0x78F6C7C4 DUP4 DUP6 DUP1 PUSH0 ADD SWAP1 PUSH2 0xB37 SWAP2 SWAP1 PUSH2 0x1FA3 JUMP JUMPDEST DUP8 DUP1 PUSH1 0x20 ADD SWAP1 PUSH2 0xB47 SWAP2 SWAP1 PUSH2 0x1FA3 JUMP JUMPDEST PUSH1 0x40 MLOAD DUP7 PUSH4 0xFFFFFFFF AND PUSH1 0xE0 SHL DUP2 MSTORE PUSH1 0x4 ADD PUSH2 0xB67 SWAP6 SWAP5 SWAP4 SWAP3 SWAP2 SWAP1 PUSH2 0x2031 JUMP JUMPDEST PUSH1 0x20 PUSH1 0x40 MLOAD DUP1 DUP4 SUB DUP2 PUSH0 DUP8 GAS CALL ISZERO DUP1 ISZERO PUSH2 0xB83 JUMPI RETURNDATASIZE PUSH0 PUSH0 RETURNDATACOPY RETURNDATASIZE PUSH0 REVERT JUMPDEST POP POP POP POP PUSH1 0x40 MLOAD RETURNDATASIZE PUSH1 0x1F NOT PUSH1 0x1F DUP3 ADD AND DUP3 ADD DUP1 PUSH1 0x40 MSTORE POP DUP2 ADD SWAP1 PUSH2 0xBA7 SWAP2 SWAP1 PUSH2 0x1B98 JUMP JUMPDEST SWAP1 POP DUP1 PUSH1 0x1 PUSH0 DUP5 DUP2 MSTORE PUSH1 0x20 ADD SWAP1 DUP2 MSTORE PUSH1 0x20 ADD PUSH0 KECCAK256 PUSH0 PUSH2 0x100 EXP DUP2 SLOAD DUP2 PUSH20 0xFFFFFFFFFFFFFFFFFFFFFFFFFFFFFFFFFFFFFFFF MUL NOT AND SWAP1 DUP4 PUSH20 0xFFFFFFFFFFFFFFFFFFFFFFFFFFFFFFFFFFFFFFFF AND MUL OR SWAP1 SSTORE POP DUP2 PUSH1 0x2 PUSH0 DUP4 PUSH20 0xFFFFFFFFFFFFFFFFFFFFFFFFFFFFFFFFFFFFFFFF AND PUSH20 0xFFFFFFFFFFFFFFFFFFFFFFFFFFFFFFFFFFFFFFFF AND DUP2 MSTORE PUSH1 0x20 ADD SWAP1 DUP2 MSTORE PUSH1 0x20 ADD PUSH0 KECCAK256 DUP2 SWAP1 SSTORE POP PUSH0 PUSH2 0xC43 PUSH2 0x1169 JUMP JUMPDEST PUSH20 0xFFFFFFFFFFFFFFFFFFFFFFFFFFFFFFFFFFFFFFFF AND PUSH4 0xB57C59A7 DUP5 PUSH1 0x40 MLOAD DUP3 PUSH4 0xFFFFFFFF AND PUSH1 0xE0 SHL DUP2 MSTORE PUSH1 0x4 ADD PUSH2 0xC7B SWAP2 SWAP1 PUSH2 0x16C9 JUMP JUMPDEST PUSH1 0x20 PUSH1 0x40 MLOAD DUP1 DUP4 SUB DUP2 PUSH0 DUP8 GAS CALL ISZERO DUP1 ISZERO PUSH2 0xC97 JUMPI RETURNDATASIZE PUSH0 PUSH0 RETURNDATACOPY RETURNDATASIZE PUSH0 REVERT JUMPDEST POP POP POP POP PUSH1 0x40 MLOAD RETURNDATASIZE PUSH1 0x1F NOT PUSH1 0x1F DUP3 ADD AND DUP3 ADD DUP1 PUSH1 0x40 MSTORE POP DUP2 ADD SWAP1 PUSH2 0xCBB SWAP2 SWAP1 PUSH2 0x1B98 JUMP JUMPDEST SWAP1 POP DUP1 PUSH1 0x3 PUSH0 DUP6 DUP2 MSTORE PUSH1 0x20 ADD SWAP1 DUP2 MSTORE PUSH1 0x20 ADD PUSH0 KECCAK256 PUSH0 PUSH2 0x100 EXP DUP2 SLOAD DUP2 PUSH20 0xFFFFFFFFFFFFFFFFFFFFFFFFFFFFFFFFFFFFFFFF MUL NOT AND SWAP1 DUP4 PUSH20 0xFFFFFFFFFFFFFFFFFFFFFFFFFFFFFFFFFFFFFFFF AND MUL OR SWAP1 SSTORE POP DUP3 PUSH32 0x714CAAB8B078979E833E97982712CD462AB7124C2A27401542011F30E3D47D55 DUP4 DUP4 PUSH1 0x40 MLOAD PUSH2 0xD3E SWAP3 SWAP2 SWAP1 PUSH2 0x2078 JUMP JUMPDEST PUSH1 0x40 MLOAD DUP1 SWAP2 SUB SWAP1 LOG2 POP POP POP POP JUMP JUMPDEST PUSH0 PUSH1 0x2 PUSH0 DUP4 PUSH20 0xFFFFFFFFFFFFFFFFFFFFFFFFFFFFFFFFFFFFFFFF AND PUSH20 0xFFFFFFFFFFFFFFFFFFFFFFFFFFFFFFFFFFFFFFFF AND DUP2 MSTORE PUSH1 0x20 ADD SWAP1 DUP2 MSTORE PUSH1 0x20 ADD PUSH0 KECCAK256 SLOAD SWAP1 POP SWAP2 SWAP1 POP JUMP JUMPDEST PUSH0 PUSH2 0xD9C DUP3 PUSH2 0x11AD JUMP JUMPDEST SWAP1 POP SWAP2 SWAP1 POP JUMP JUMPDEST PUSH0 PUSH2 0xDAD DUP3 PUSH2 0x13C6 JUMP JUMPDEST SWAP1 POP SWAP2 SWAP1 POP JUMP JUMPDEST PUSH0 PUSH2 0xDF3 PUSH1 0x40 MLOAD DUP1 PUSH1 0x40 ADD PUSH1 0x40 MSTORE DUP1 PUSH1 0xC DUP2 MSTORE PUSH1 0x20 ADD PUSH32 0x70726963652D6F7261636C650000000000000000000000000000000000000000 DUP2 MSTORE POP PUSH2 0x56F JUMP JUMPDEST SWAP1 POP SWAP1 JUMP JUMPDEST PUSH0 PUSH1 0x3 PUSH0 DUP4 DUP2 MSTORE PUSH1 0x20 ADD SWAP1 DUP2 MSTORE PUSH1 0x20 ADD PUSH0 KECCAK256 PUSH0 SWAP1 SLOAD SWAP1 PUSH2 0x100 EXP SWAP1 DIV PUSH20 0xFFFFFFFFFFFFFFFFFFFFFFFFFFFFFFFFFFFFFFFF AND SWAP1 POP SWAP2 SWAP1 POP JUMP JUMPDEST PUSH0 PUSH0 PUSH2 0xE3C DUP4 PUSH2 0x11AD JUMP JUMPDEST SWAP1 POP PUSH0 DUP2 SUB PUSH2 0xE4E JUMPI PUSH0 SWAP2 POP POP PUSH2 0xF2B JUMP JUMPDEST PUSH0 PUSH2 0xE57 PUSH2 0xDB4 JUMP JUMPDEST PUSH20 0xFFFFFFFFFFFFFFFFFFFFFFFFFFFFFFFFFFFFFFFF AND PUSH4 0x6855E939 PUSH1 0x40 MLOAD DUP2 PUSH4 0xFFFFFFFF AND PUSH1 0xE0 SHL DUP2 MSTORE PUSH1 0x4 ADD PUSH1 0x20 PUSH1 0x40 MLOAD DUP1 DUP4 SUB DUP2 DUP7 GAS STATICCALL ISZERO DUP1 ISZERO PUSH2 0xE9F JUMPI RETURNDATASIZE PUSH0 PUSH0 RETURNDATACOPY RETURNDATASIZE PUSH0 REVERT JUMPDEST POP POP POP POP PUSH1 0x40 MLOAD RETURNDATASIZE PUSH1 0x1F NOT PUSH1 0x1F DUP3 ADD AND DUP3 ADD DUP1 PUSH1 0x40 MSTORE POP DUP2 ADD SWAP1 PUSH2 0xEC3 SWAP2 SWAP1 PUSH2 0x195D JUMP JUMPDEST SWAP1 POP PUSH0 DUP2 GT PUSH2 0xF07 JUMPI PUSH1 0x40 MLOAD PUSH32 0x8C379A000000000000000000000000000000000000000000000000000000000 DUP2 MSTORE PUSH1 0x4 ADD PUSH2 0xEFE SWAP1 PUSH2 0x19F8 JUMP JUMPDEST PUSH1 0x40 MLOAD DUP1 SWAP2 SUB SWAP1 REVERT JUMPDEST PUSH8 0xDE0B6B3A7640000 DUP2 DUP4 PUSH2 0xF1C SWAP2 SWAP1 PUSH2 0x1A43 JUMP JUMPDEST PUSH2 0xF26 SWAP2 SWAP1 PUSH2 0x1AB1 JUMP JUMPDEST SWAP3 POP POP POP JUMPDEST SWAP2 SWAP1 POP JUMP JUMPDEST PUSH0 PUSH20 0xFFFFFFFFFFFFFFFFFFFFFFFFFFFFFFFFFFFFFFFF AND DUP2 PUSH20 0xFFFFFFFFFFFFFFFFFFFFFFFFFFFFFFFFFFFFFFFF AND SUB PUSH2 0xF9E JUMPI PUSH1 0x40 MLOAD PUSH32 0x8C379A000000000000000000000000000000000000000000000000000000000 DUP2 MSTORE PUSH1 0x4 ADD PUSH2 0xF95 SWAP1 PUSH2 0x20E9 JUMP JUMPDEST PUSH1 0x40 MLOAD DUP1 SWAP2 SUB SWAP1 REVERT JUMPDEST PUSH0 DUP2 PUSH20 0xFFFFFFFFFFFFFFFFFFFFFFFFFFFFFFFFFFFFFFFF AND EXTCODESIZE GT PUSH2 0xFF7 JUMPI PUSH1 0x40 MLOAD PUSH32 0x8C379A000000000000000000000000000000000000000000000000000000000 DUP2 MSTORE PUSH1 0x4 ADD PUSH2 0xFEE SWAP1 PUSH2 0x2151 JUMP JUMPDEST PUSH1 0x40 MLOAD DUP1 SWAP2 SUB SWAP1 REVERT JUMPDEST DUP1 PUSH20 0xFFFFFFFFFFFFFFFFFFFFFFFFFFFFFFFFFFFFFFFF AND PUSH4 0x8DA5CB5B PUSH1 0x40 MLOAD DUP2 PUSH4 0xFFFFFFFF AND PUSH1 0xE0 SHL DUP2 MSTORE PUSH1 0x4 ADD PUSH1 0x20 PUSH1 0x40 MLOAD DUP1 DUP4 SUB DUP2 DUP7 GAS STATICCALL SWAP3 POP POP POP DUP1 ISZERO PUSH2 0x105F JUMPI POP PUSH1 0x40 MLOAD RETURNDATASIZE PUSH1 0x1F NOT PUSH1 0x1F DUP3 ADD AND DUP3 ADD DUP1 PUSH1 0x40 MSTORE POP DUP2 ADD SWAP1 PUSH2 0x105C SWAP2 SWAP1 PUSH2 0x1B98 JUMP JUMPDEST PUSH1 0x1 JUMPDEST PUSH2 0x109E JUMPI PUSH1 0x40 MLOAD PUSH32 0x8C379A000000000000000000000000000000000000000000000000000000000 DUP2 MSTORE PUSH1 0x4 ADD PUSH2 0x1095 SWAP1 PUSH2 0x21DF JUMP JUMPDEST PUSH1 0x40 MLOAD DUP1 SWAP2 SUB SWAP1 REVERT JUMPDEST DUP2 PUSH0 PUSH0 PUSH2 0x100 EXP DUP2 SLOAD DUP2 PUSH20 0xFFFFFFFFFFFFFFFFFFFFFFFFFFFFFFFFFFFFFFFF MUL NOT AND SWAP1 DUP4 PUSH20 0xFFFFFFFFFFFFFFFFFFFFFFFFFFFFFFFFFFFFFFFF AND MUL OR SWAP1 SSTORE POP POP POP JUMP JUMPDEST PUSH0 PUSH2 0x1120 PUSH1 0x40 MLOAD DUP1 PUSH1 0x40 ADD PUSH1 0x40 MSTORE DUP1 PUSH1 0xD DUP2 MSTORE PUSH1 0x20 ADD PUSH32 0x696E6465782D666163746F727900000000000000000000000000000000000000 DUP2 MSTORE POP PUSH2 0x56F JUMP JUMPDEST SWAP1 POP SWAP1 JUMP JUMPDEST PUSH0 PUSH2 0x1164 PUSH1 0x40 MLOAD DUP1 PUSH1 0x40 ADD PUSH1 0x40 MSTORE DUP1 PUSH1 0x12 DUP2 MSTORE PUSH1 0x20 ADD PUSH32 0x6574662D746F6B656E2D6465706C6F7965720000000000000000000000000000 DUP2 MSTORE POP PUSH2 0x56F JUMP JUMPDEST SWAP1 POP SWAP1 JUMP JUMPDEST PUSH0 PUSH2 0x11A8 PUSH1 0x40 MLOAD DUP1 PUSH1 0x40 ADD PUSH1 0x40 MSTORE DUP1 PUSH1 0x12 DUP2 MSTORE PUSH1 0x20 ADD PUSH32 0x6574662D7661756C742D6465706C6F7965720000000000000000000000000000 DUP2 MSTORE POP PUSH2 0x56F JUMP JUMPDEST SWAP1 POP SWAP1 JUMP JUMPDEST PUSH0 PUSH0 PUSH2 0x11B7 PUSH2 0x10E1 JUMP JUMPDEST PUSH20 0xFFFFFFFFFFFFFFFFFFFFFFFFFFFFFFFFFFFFFFFF AND PUSH4 0x549E122B DUP5 PUSH1 0x40 MLOAD DUP3 PUSH4 0xFFFFFFFF AND PUSH1 0xE0 SHL DUP2 MSTORE PUSH1 0x4 ADD PUSH2 0x11EF SWAP2 SWAP1 PUSH2 0x16C9 JUMP JUMPDEST PUSH0 PUSH1 0x40 MLOAD DUP1 DUP4 SUB DUP2 DUP7 GAS STATICCALL ISZERO DUP1 ISZERO PUSH2 0x1209 JUMPI RETURNDATASIZE PUSH0 PUSH0 RETURNDATACOPY RETURNDATASIZE PUSH0 REVERT JUMPDEST POP POP POP POP PUSH1 0x40 MLOAD RETURNDATASIZE PUSH0 DUP3 RETURNDATACOPY RETURNDATASIZE PUSH1 0x1F NOT PUSH1 0x1F DUP3 ADD AND DUP3 ADD DUP1 PUSH1 0x40 MSTORE POP DUP2 ADD SWAP1 PUSH2 0x1231 SWAP2 SWAP1 PUSH2 0x244D JUMP JUMPDEST SWAP1 POP PUSH0 PUSH2 0x123D DUP5 PUSH2 0xDF8 JUMP JUMPDEST SWAP1 POP PUSH0 PUSH0 SWAP1 POP JUMPDEST DUP3 PUSH1 0x40 ADD MLOAD MLOAD DUP2 LT ISZERO PUSH2 0x13BE JUMPI PUSH0 DUP4 PUSH1 0x40 ADD MLOAD DUP3 DUP2 MLOAD DUP2 LT PUSH2 0x1269 JUMPI PUSH2 0x1268 PUSH2 0x2494 JUMP JUMPDEST JUMPDEST PUSH1 0x20 MUL PUSH1 0x20 ADD ADD MLOAD PUSH0 ADD MLOAD SWAP1 POP PUSH0 DUP2 PUSH20 0xFFFFFFFFFFFFFFFFFFFFFFFFFFFFFFFFFFFFFFFF AND PUSH4 0x70A08231 DUP6 PUSH1 0x40 MLOAD DUP3 PUSH4 0xFFFFFFFF AND PUSH1 0xE0 SHL DUP2 MSTORE PUSH1 0x4 ADD PUSH2 0x12B0 SWAP2 SWAP1 PUSH2 0x1676 JUMP JUMPDEST PUSH1 0x20 PUSH1 0x40 MLOAD DUP1 DUP4 SUB DUP2 DUP7 GAS STATICCALL ISZERO DUP1 ISZERO PUSH2 0x12CB JUMPI RETURNDATASIZE PUSH0 PUSH0 RETURNDATACOPY RETURNDATASIZE PUSH0 REVERT JUMPDEST POP POP POP POP PUSH1 0x40 MLOAD RETURNDATASIZE PUSH1 0x1F NOT PUSH1 0x1F DUP3 ADD AND DUP3 ADD DUP1 PUSH1 0x40 MSTORE POP DUP2 ADD SWAP1 PUSH2 0x12EF SWAP2 SWAP1 PUSH2 0x195D JUMP JUMPDEST SWAP1 POP PUSH0 DUP2 SUB PUSH2 0x12FF JUMPI POP POP PUSH2 0x13B1 JUMP JUMPDEST PUSH0 PUSH2 0x1308 PUSH2 0xDB4 JUMP JUMPDEST PUSH20 0xFFFFFFFFFFFFFFFFFFFFFFFFFFFFFFFFFFFFFFFF AND PUSH4 0x7B49B49D DUP5 PUSH1 0x40 MLOAD DUP3 PUSH4 0xFFFFFFFF AND PUSH1 0xE0 SHL DUP2 MSTORE PUSH1 0x4 ADD PUSH2 0x1340 SWAP2 SWAP1 PUSH2 0x1676 JUMP JUMPDEST PUSH1 0x20 PUSH1 0x40 MLOAD DUP1 DUP4 SUB DUP2 DUP7 GAS STATICCALL ISZERO DUP1 ISZERO PUSH2 0x135B JUMPI RETURNDATASIZE PUSH0 PUSH0 RETURNDATACOPY RETURNDATASIZE PUSH0 REVERT JUMPDEST POP POP POP POP PUSH1 0x40 MLOAD RETURNDATASIZE PUSH1 0x1F NOT PUSH1 0x1F DUP3 ADD AND DUP3 ADD DUP1 PUSH1 0x40 MSTORE POP DUP2 ADD SWAP1 PUSH2 0x137F SWAP2 SWAP1 PUSH2 0x195D JUMP JUMPDEST SWAP1 POP PUSH8 0xDE0B6B3A7640000 DUP2 DUP4 PUSH2 0x1396 SWAP2 SWAP1 PUSH2 0x1A43 JUMP JUMPDEST PUSH2 0x13A0 SWAP2 SWAP1 PUSH2 0x1AB1 JUMP JUMPDEST DUP8 PUSH2 0x13AB SWAP2 SWAP1 PUSH2 0x1AE1 JUMP JUMPDEST SWAP7 POP POP POP POP JUMPDEST DUP1 DUP1 PUSH1 0x1 ADD SWAP2 POP POP PUSH2 0x1244 JUMP JUMPDEST POP POP POP SWAP2 SWAP1 POP JUMP JUMPDEST PUSH0 PUSH1 0x1 PUSH0 DUP4 DUP2 MSTORE PUSH1 0x20 ADD SWAP1 DUP2 MSTORE PUSH1 0x20 ADD PUSH0 KECCAK256 PUSH0 SWAP1 SLOAD SWAP1 PUSH2 0x100 EXP SWAP1 DIV PUSH20 0xFFFFFFFFFFFFFFFFFFFFFFFFFFFFFFFFFFFFFFFF AND SWAP1 POP SWAP2 SWAP1 POP JUMP JUMPDEST PUSH0 PUSH1 0x40 MLOAD SWAP1 POP SWAP1 JUMP JUMPDEST PUSH0 PUSH0 REVERT JUMPDEST PUSH0 PUSH0 REVERT JUMPDEST PUSH0 DUP2 SWAP1 POP SWAP2 SWAP1 POP JUMP JUMPDEST PUSH2 0x1422 DUP2 PUSH2 0x1410 JUMP JUMPDEST DUP2 EQ PUSH2 0x142C JUMPI PUSH0 PUSH0 REVERT JUMPDEST POP JUMP JUMPDEST PUSH0 DUP2 CALLDATALOAD SWAP1 POP PUSH2 0x143D DUP2 PUSH2 0x1419 JUMP JUMPDEST SWAP3 SWAP2 POP POP JUMP JUMPDEST PUSH0 PUSH0 PUSH1 0x40 DUP4 DUP6 SUB SLT ISZERO PUSH2 0x1459 JUMPI PUSH2 0x1458 PUSH2 0x1408 JUMP JUMPDEST JUMPDEST PUSH0 PUSH2 0x1466 DUP6 DUP3 DUP7 ADD PUSH2 0x142F JUMP JUMPDEST SWAP3 POP POP PUSH1 0x20 PUSH2 0x1477 DUP6 DUP3 DUP7 ADD PUSH2 0x142F JUMP JUMPDEST SWAP2 POP POP SWAP3 POP SWAP3 SWAP1 POP JUMP JUMPDEST PUSH0 DUP2 ISZERO ISZERO SWAP1 POP SWAP2 SWAP1 POP JUMP JUMPDEST PUSH2 0x1495 DUP2 PUSH2 0x1481 JUMP JUMPDEST DUP3 MSTORE POP POP JUMP JUMPDEST PUSH0 PUSH1 0x20 DUP3 ADD SWAP1 POP PUSH2 0x14AE PUSH0 DUP4 ADD DUP5 PUSH2 0x148C JUMP JUMPDEST SWAP3 SWAP2 POP POP JUMP JUMPDEST PUSH0 PUSH0 REVERT JUMPDEST PUSH0 PUSH0 REVERT JUMPDEST PUSH0 PUSH1 0x1F NOT PUSH1 0x1F DUP4 ADD AND SWAP1 POP SWAP2 SWAP1 POP JUMP JUMPDEST PUSH32 0x4E487B7100000000000000000000000000000000000000000000000000000000 PUSH0 MSTORE PUSH1 0x41 PUSH1 0x4 MSTORE PUSH1 0x24 PUSH0 REVERT JUMPDEST PUSH2 0x1502 DUP3 PUSH2 0x14BC JUMP JUMPDEST DUP2 ADD DUP2 DUP2 LT PUSH8 0xFFFFFFFFFFFFFFFF DUP3 GT OR ISZERO PUSH2 0x1521 JUMPI PUSH2 0x1520 PUSH2 0x14CC JUMP JUMPDEST JUMPDEST DUP1 PUSH1 0x40 MSTORE POP POP POP JUMP JUMPDEST PUSH0 PUSH2 0x1533 PUSH2 0x13FF JUMP JUMPDEST SWAP1 POP PUSH2 0x153F DUP3 DUP3 PUSH2 0x14F9 JUMP JUMPDEST SWAP2 SWAP1 POP JUMP JUMPDEST PUSH0 PUSH8 0xFFFFFFFFFFFFFFFF DUP3 GT ISZERO PUSH2 0x155E JUMPI PUSH2 0x155D PUSH2 0x14CC JUMP JUMPDEST JUMPDEST PUSH2 0x1567 DUP3 PUSH2 0x14BC JUMP JUMPDEST SWAP1 POP PUSH1 0x20 DUP2 ADD SWAP1 POP SWAP2 SWAP1 POP JUMP JUMPDEST DUP3 DUP2 DUP4 CALLDATACOPY PUSH0 DUP4 DUP4 ADD MSTORE POP POP POP JUMP JUMPDEST PUSH0 PUSH2 0x1594 PUSH2 0x158F DUP5 PUSH2 0x1544 JUMP JUMPDEST PUSH2 0x152A JUMP JUMPDEST SWAP1 POP DUP3 DUP2 MSTORE PUSH1 0x20 DUP2 ADD DUP5 DUP5 DUP5 ADD GT ISZERO PUSH2 0x15B0 JUMPI PUSH2 0x15AF PUSH2 0x14B8 JUMP JUMPDEST JUMPDEST PUSH2 0x15BB DUP5 DUP3 DUP6 PUSH2 0x1574 JUMP JUMPDEST POP SWAP4 SWAP3 POP POP POP JUMP JUMPDEST PUSH0 DUP3 PUSH1 0x1F DUP4 ADD SLT PUSH2 0x15D7 JUMPI PUSH2 0x15D6 PUSH2 0x14B4 JUMP JUMPDEST JUMPDEST DUP2 CALLDATALOAD PUSH2 0x15E7 DUP5 DUP3 PUSH1 0x20 DUP7 ADD PUSH2 0x1582 JUMP JUMPDEST SWAP2 POP POP SWAP3 SWAP2 POP POP JUMP JUMPDEST PUSH0 PUSH1 0x20 DUP3 DUP5 SUB SLT ISZERO PUSH2 0x1605 JUMPI PUSH2 0x1604 PUSH2 0x1408 JUMP JUMPDEST JUMPDEST PUSH0 DUP3 ADD CALLDATALOAD PUSH8 0xFFFFFFFFFFFFFFFF DUP2 GT ISZERO PUSH2 0x1622 JUMPI PUSH2 0x1621 PUSH2 0x140C JUMP JUMPDEST JUMPDEST PUSH2 0x162E DUP5 DUP3 DUP6 ADD PUSH2 0x15C3 JUMP JUMPDEST SWAP2 POP POP SWAP3 SWAP2 POP POP JUMP JUMPDEST PUSH0 PUSH20 0xFFFFFFFFFFFFFFFFFFFFFFFFFFFFFFFFFFFFFFFF DUP3 AND SWAP1 POP SWAP2 SWAP1 POP JUMP JUMPDEST PUSH0 PUSH2 0x1660 DUP3 PUSH2 0x1637 JUMP JUMPDEST SWAP1 POP SWAP2 SWAP1 POP JUMP JUMPDEST PUSH2 0x1670 DUP2 PUSH2 0x1656 JUMP JUMPDEST DUP3 MSTORE POP POP JUMP JUMPDEST PUSH0 PUSH1 0x20 DUP3 ADD SWAP1 POP PUSH2 0x1689 PUSH0 DUP4 ADD DUP5 PUSH2 0x1667 JUMP JUMPDEST SWAP3 SWAP2 POP POP JUMP JUMPDEST PUSH0 PUSH1 0x20 DUP3 DUP5 SUB SLT ISZERO PUSH2 0x16A4 JUMPI PUSH2 0x16A3 PUSH2 0x1408 JUMP JUMPDEST JUMPDEST PUSH0 PUSH2 0x16B1 DUP5 DUP3 DUP6 ADD PUSH2 0x142F JUMP JUMPDEST SWAP2 POP POP SWAP3 SWAP2 POP POP JUMP JUMPDEST PUSH2 0x16C3 DUP2 PUSH2 0x1410 JUMP JUMPDEST DUP3 MSTORE POP POP JUMP JUMPDEST PUSH0 PUSH1 0x20 DUP3 ADD SWAP1 POP PUSH2 0x16DC PUSH0 DUP4 ADD DUP5 PUSH2 0x16BA JUMP JUMPDEST SWAP3 SWAP2 POP POP JUMP JUMPDEST PUSH0 DUP2 SWAP1 POP SWAP2 SWAP1 POP JUMP JUMPDEST PUSH0 PUSH2 0x1705 PUSH2 0x1700 PUSH2 0x16FB DUP5 PUSH2 0x1637 JUMP JUMPDEST PUSH2 0x16E2 JUMP JUMPDEST PUSH2 0x1637 JUMP JUMPDEST SWAP1 POP SWAP2 SWAP1 POP JUMP JUMPDEST PUSH0 PUSH2 0x1716 DUP3 PUSH2 0x16EB JUMP JUMPDEST SWAP1 POP SWAP2 SWAP1 POP JUMP JUMPDEST PUSH0 PUSH2 0x1727 DUP3 PUSH2 0x170C JUMP JUMPDEST SWAP1 POP SWAP2 SWAP1 POP JUMP JUMPDEST PUSH2 0x1737 DUP2 PUSH2 0x171D JUMP JUMPDEST DUP3 MSTORE POP POP JUMP JUMPDEST PUSH0 PUSH1 0x20 DUP3 ADD SWAP1 POP PUSH2 0x1750 PUSH0 DUP4 ADD DUP5 PUSH2 0x172E JUMP JUMPDEST SWAP3 SWAP2 POP POP JUMP JUMPDEST PUSH2 0x175F DUP2 PUSH2 0x1481 JUMP JUMPDEST DUP2 EQ PUSH2 0x1769 JUMPI PUSH0 PUSH0 REVERT JUMPDEST POP JUMP JUMPDEST PUSH0 DUP2 CALLDATALOAD SWAP1 POP PUSH2 0x177A DUP2 PUSH2 0x1756 JUMP JUMPDEST SWAP3 SWAP2 POP POP JUMP JUMPDEST PUSH0 PUSH1 0x20 DUP3 DUP5 SUB SLT ISZERO PUSH2 0x1795 JUMPI PUSH2 0x1794 PUSH2 0x1408 JUMP JUMPDEST JUMPDEST PUSH0 PUSH2 0x17A2 DUP5 DUP3 DUP6 ADD PUSH2 0x176C JUMP JUMPDEST SWAP2 POP POP SWAP3 SWAP2 POP POP JUMP JUMPDEST PUSH2 0x17B4 DUP2 PUSH2 0x1656 JUMP JUMPDEST DUP2 EQ PUSH2 0x17BE JUMPI PUSH0 PUSH0 REVERT JUMPDEST POP JUMP JUMPDEST PUSH0 DUP2 CALLDATALOAD SWAP1 POP PUSH2 0x17CF DUP2 PUSH2 0x17AB JUMP JUMPDEST SWAP3 SWAP2 POP POP JUMP JUMPDEST PUSH0 PUSH1 0x20 DUP3 DUP5 SUB SLT ISZERO PUSH2 0x17EA JUMPI PUSH2 0x17E9 PUSH2 0x1408 JUMP JUMPDEST JUMPDEST PUSH0 PUSH2 0x17F7 DUP5 DUP3 DUP6 ADD PUSH2 0x17C1 JUMP JUMPDEST SWAP2 POP POP SWAP3 SWAP2 POP POP JUMP JUMPDEST PUSH0 PUSH0 REVERT JUMPDEST PUSH0 PUSH1 0x60 DUP3 DUP5 SUB SLT ISZERO PUSH2 0x1819 JUMPI PUSH2 0x1818 PUSH2 0x1800 JUMP JUMPDEST JUMPDEST DUP2 SWAP1 POP SWAP3 SWAP2 POP POP JUMP JUMPDEST PUSH0 PUSH1 0x20 DUP3 DUP5 SUB SLT ISZERO PUSH2 0x1837 JUMPI PUSH2 0x1836 PUSH2 0x1408 JUMP JUMPDEST JUMPDEST PUSH0 DUP3 ADD CALLDATALOAD PUSH8 0xFFFFFFFFFFFFFFFF DUP2 GT ISZERO PUSH2 0x1854 JUMPI PUSH2 0x1853 PUSH2 0x140C JUMP JUMPDEST JUMPDEST PUSH2 0x1860 DUP5 DUP3 DUP6 ADD PUSH2 0x1804 JUMP JUMPDEST SWAP2 POP POP SWAP3 SWAP2 POP POP JUMP JUMPDEST PUSH0 DUP3 DUP3 MSTORE PUSH1 0x20 DUP3 ADD SWAP1 POP SWAP3 SWAP2 POP POP JUMP JUMPDEST PUSH32 0x6D73672E73656E646572206973206E6F742065746620726F7574657200000000 PUSH0 DUP3 ADD MSTORE POP JUMP JUMPDEST PUSH0 PUSH2 0x18AD PUSH1 0x1C DUP4 PUSH2 0x1869 JUMP JUMPDEST SWAP2 POP PUSH2 0x18B8 DUP3 PUSH2 0x1879 JUMP JUMPDEST PUSH1 0x20 DUP3 ADD SWAP1 POP SWAP2 SWAP1 POP JUMP JUMPDEST PUSH0 PUSH1 0x20 DUP3 ADD SWAP1 POP DUP2 DUP2 SUB PUSH0 DUP4 ADD MSTORE PUSH2 0x18DA DUP2 PUSH2 0x18A1 JUMP JUMPDEST SWAP1 POP SWAP2 SWAP1 POP JUMP JUMPDEST PUSH32 0x457466466163746F72793A2074726164652076616C7565206973207A65726F00 PUSH0 DUP3 ADD MSTORE POP JUMP JUMPDEST PUSH0 PUSH2 0x1915 PUSH1 0x1F DUP4 PUSH2 0x1869 JUMP JUMPDEST SWAP2 POP PUSH2 0x1920 DUP3 PUSH2 0x18E1 JUMP JUMPDEST PUSH1 0x20 DUP3 ADD SWAP1 POP SWAP2 SWAP1 POP JUMP JUMPDEST PUSH0 PUSH1 0x20 DUP3 ADD SWAP1 POP DUP2 DUP2 SUB PUSH0 DUP4 ADD MSTORE PUSH2 0x1942 DUP2 PUSH2 0x1909 JUMP JUMPDEST SWAP1 POP SWAP2 SWAP1 POP JUMP JUMPDEST PUSH0 DUP2 MLOAD SWAP1 POP PUSH2 0x1957 DUP2 PUSH2 0x1419 JUMP JUMPDEST SWAP3 SWAP2 POP POP JUMP JUMPDEST PUSH0 PUSH1 0x20 DUP3 DUP5 SUB SLT ISZERO PUSH2 0x1972 JUMPI PUSH2 0x1971 PUSH2 0x1408 JUMP JUMPDEST JUMPDEST PUSH0 PUSH2 0x197F DUP5 DUP3 DUP6 ADD PUSH2 0x1949 JUMP JUMPDEST SWAP2 POP POP SWAP3 SWAP2 POP POP JUMP JUMPDEST PUSH32 0x457466466163746F72793A20574554482F555344207072696365206973207A65 PUSH0 DUP3 ADD MSTORE PUSH32 0x726F000000000000000000000000000000000000000000000000000000000000 PUSH1 0x20 DUP3 ADD MSTORE POP JUMP JUMPDEST PUSH0 PUSH2 0x19E2 PUSH1 0x22 DUP4 PUSH2 0x1869 JUMP JUMPDEST SWAP2 POP PUSH2 0x19ED DUP3 PUSH2 0x1988 JUMP JUMPDEST PUSH1 0x40 DUP3 ADD SWAP1 POP SWAP2 SWAP1 POP JUMP JUMPDEST PUSH0 PUSH1 0x20 DUP3 ADD SWAP1 POP DUP2 DUP2 SUB PUSH0 DUP4 ADD MSTORE PUSH2 0x1A0F DUP2 PUSH2 0x19D6 JUMP JUMPDEST SWAP1 POP SWAP2 SWAP1 POP JUMP JUMPDEST PUSH32 0x4E487B7100000000000000000000000000000000000000000000000000000000 PUSH0 MSTORE PUSH1 0x11 PUSH1 0x4 MSTORE PUSH1 0x24 PUSH0 REVERT JUMPDEST PUSH0 PUSH2 0x1A4D DUP3 PUSH2 0x1410 JUMP JUMPDEST SWAP2 POP PUSH2 0x1A58 DUP4 PUSH2 0x1410 JUMP JUMPDEST SWAP3 POP DUP3 DUP3 MUL PUSH2 0x1A66 DUP2 PUSH2 0x1410 JUMP JUMPDEST SWAP2 POP DUP3 DUP3 DIV DUP5 EQ DUP4 ISZERO OR PUSH2 0x1A7D JUMPI PUSH2 0x1A7C PUSH2 0x1A16 JUMP JUMPDEST JUMPDEST POP SWAP3 SWAP2 POP POP JUMP JUMPDEST PUSH32 0x4E487B7100000000000000000000000000000000000000000000000000000000 PUSH0 MSTORE PUSH1 0x12 PUSH1 0x4 MSTORE PUSH1 0x24 PUSH0 REVERT JUMPDEST PUSH0 PUSH2 0x1ABB DUP3 PUSH2 0x1410 JUMP JUMPDEST SWAP2 POP PUSH2 0x1AC6 DUP4 PUSH2 0x1410 JUMP JUMPDEST SWAP3 POP DUP3 PUSH2 0x1AD6 JUMPI PUSH2 0x1AD5 PUSH2 0x1A84 JUMP JUMPDEST JUMPDEST DUP3 DUP3 DIV SWAP1 POP SWAP3 SWAP2 POP POP JUMP JUMPDEST PUSH0 PUSH2 0x1AEB DUP3 PUSH2 0x1410 JUMP JUMPDEST SWAP2 POP PUSH2 0x1AF6 DUP4 PUSH2 0x1410 JUMP JUMPDEST SWAP3 POP DUP3 DUP3 ADD SWAP1 POP DUP1 DUP3 GT ISZERO PUSH2 0x1B0E JUMPI PUSH2 0x1B0D PUSH2 0x1A16 JUMP JUMPDEST JUMPDEST SWAP3 SWAP2 POP POP JUMP JUMPDEST PUSH0 DUP2 MLOAD SWAP1 POP SWAP2 SWAP1 POP JUMP JUMPDEST DUP3 DUP2 DUP4 MCOPY PUSH0 DUP4 DUP4 ADD MSTORE POP POP POP JUMP JUMPDEST PUSH0 PUSH2 0x1B36 DUP3 PUSH2 0x1B14 JUMP JUMPDEST PUSH2 0x1B40 DUP2 DUP6 PUSH2 0x1869 JUMP JUMPDEST SWAP4 POP PUSH2 0x1B50 DUP2 DUP6 PUSH1 0x20 DUP7 ADD PUSH2 0x1B1E JUMP JUMPDEST PUSH2 0x1B59 DUP2 PUSH2 0x14BC JUMP JUMPDEST DUP5 ADD SWAP2 POP POP SWAP3 SWAP2 POP POP JUMP JUMPDEST PUSH0 PUSH1 0x20 DUP3 ADD SWAP1 POP DUP2 DUP2 SUB PUSH0 DUP4 ADD MSTORE PUSH2 0x1B7C DUP2 DUP5 PUSH2 0x1B2C JUMP JUMPDEST SWAP1 POP SWAP3 SWAP2 POP POP JUMP JUMPDEST PUSH0 DUP2 MLOAD SWAP1 POP PUSH2 0x1B92 DUP2 PUSH2 0x17AB JUMP JUMPDEST SWAP3 SWAP2 POP POP JUMP JUMPDEST PUSH0 PUSH1 0x20 DUP3 DUP5 SUB SLT ISZERO PUSH2 0x1BAD JUMPI PUSH2 0x1BAC PUSH2 0x1408 JUMP JUMPDEST JUMPDEST PUSH0 PUSH2 0x1BBA DUP5 DUP3 DUP6 ADD PUSH2 0x1B84 JUMP JUMPDEST SWAP2 POP POP SWAP3 SWAP2 POP POP JUMP JUMPDEST PUSH32 0x43616C6C6572206973206E6F7420746865206F776E6572000000000000000000 PUSH0 DUP3 ADD MSTORE POP JUMP JUMPDEST PUSH0 PUSH2 0x1BF7 PUSH1 0x17 DUP4 PUSH2 0x1869 JUMP JUMPDEST SWAP2 POP PUSH2 0x1C02 DUP3 PUSH2 0x1BC3 JUMP JUMPDEST PUSH1 0x20 DUP3 ADD SWAP1 POP SWAP2 SWAP1 POP JUMP JUMPDEST PUSH0 PUSH1 0x20 DUP3 ADD SWAP1 POP DUP2 DUP2 SUB PUSH0 DUP4 ADD MSTORE PUSH2 0x1C24 DUP2 PUSH2 0x1BEB JUMP JUMPDEST SWAP1 POP SWAP2 SWAP1 POP JUMP JUMPDEST PUSH32 0x436F6E7472616374206973206E6F742061637469766500000000000000000000 PUSH0 DUP3 ADD MSTORE POP JUMP JUMPDEST PUSH0 PUSH2 0x1C5F PUSH1 0x16 DUP4 PUSH2 0x1869 JUMP JUMPDEST SWAP2 POP PUSH2 0x1C6A DUP3 PUSH2 0x1C2B JUMP JUMPDEST PUSH1 0x20 DUP3 ADD SWAP1 POP SWAP2 SWAP1 POP JUMP JUMPDEST PUSH0 PUSH1 0x20 DUP3 ADD SWAP1 POP DUP2 DUP2 SUB PUSH0 DUP4 ADD MSTORE PUSH2 0x1C8C DUP2 PUSH2 0x1C53 JUMP JUMPDEST SWAP1 POP SWAP2 SWAP1 POP JUMP JUMPDEST PUSH0 PUSH0 REVERT JUMPDEST PUSH0 PUSH0 REVERT JUMPDEST PUSH0 PUSH0 REVERT JUMPDEST PUSH0 PUSH0 DUP4 CALLDATALOAD PUSH1 0x1 PUSH1 0x20 SUB DUP5 CALLDATASIZE SUB SUB DUP2 SLT PUSH2 0x1CBB JUMPI PUSH2 0x1CBA PUSH2 0x1C9B JUMP JUMPDEST JUMPDEST DUP4 DUP2 ADD SWAP3 POP DUP3 CALLDATALOAD SWAP2 POP PUSH1 0x20 DUP4 ADD SWAP3 POP PUSH8 0xFFFFFFFFFFFFFFFF DUP3 GT ISZERO PUSH2 0x1CE3 JUMPI PUSH2 0x1CE2 PUSH2 0x1C93 JUMP JUMPDEST JUMPDEST PUSH1 0x1 DUP3 MUL CALLDATASIZE SUB DUP4 SGT ISZERO PUSH2 0x1CF9 JUMPI PUSH2 0x1CF8 PUSH2 0x1C97 JUMP JUMPDEST JUMPDEST POP SWAP3 POP SWAP3 SWAP1 POP JUMP JUMPDEST PUSH0 DUP3 DUP3 MSTORE PUSH1 0x20 DUP3 ADD SWAP1 POP SWAP3 SWAP2 POP POP JUMP JUMPDEST PUSH0 PUSH2 0x1D1C DUP4 DUP6 PUSH2 0x1D01 JUMP JUMPDEST SWAP4 POP PUSH2 0x1D29 DUP4 DUP6 DUP5 PUSH2 0x1574 JUMP JUMPDEST PUSH2 0x1D32 DUP4 PUSH2 0x14BC JUMP JUMPDEST DUP5 ADD SWAP1 POP SWAP4 SWAP3 POP POP POP JUMP JUMPDEST PUSH0 PUSH0 DUP4 CALLDATALOAD PUSH1 0x1 PUSH1 0x20 SUB DUP5 CALLDATASIZE SUB SUB DUP2 SLT PUSH2 0x1D59 JUMPI PUSH2 0x1D58 PUSH2 0x1C9B JUMP JUMPDEST JUMPDEST DUP4 DUP2 ADD SWAP3 POP DUP3 CALLDATALOAD SWAP2 POP PUSH1 0x20 DUP4 ADD SWAP3 POP PUSH8 0xFFFFFFFFFFFFFFFF DUP3 GT ISZERO PUSH2 0x1D81 JUMPI PUSH2 0x1D80 PUSH2 0x1C93 JUMP JUMPDEST JUMPDEST PUSH1 0x40 DUP3 MUL CALLDATASIZE SUB DUP4 SGT ISZERO PUSH2 0x1D97 JUMPI PUSH2 0x1D96 PUSH2 0x1C97 JUMP JUMPDEST JUMPDEST POP SWAP3 POP SWAP3 SWAP1 POP JUMP JUMPDEST PUSH0 DUP3 DUP3 MSTORE PUSH1 0x20 DUP3 ADD SWAP1 POP SWAP3 SWAP2 POP POP JUMP JUMPDEST PUSH0 DUP2 SWAP1 POP SWAP2 SWAP1 POP JUMP JUMPDEST PUSH0 PUSH2 0x1DC6 PUSH1 0x20 DUP5 ADD DUP5 PUSH2 0x17C1 JUMP JUMPDEST SWAP1 POP SWAP3 SWAP2 POP POP JUMP JUMPDEST PUSH2 0x1DD7 DUP2 PUSH2 0x1656 JUMP JUMPDEST DUP3 MSTORE POP POP JUMP JUMPDEST PUSH0 PUSH2 0xFFFF DUP3 AND SWAP1 POP SWAP2 SWAP1 POP JUMP JUMPDEST PUSH2 0x1DF3 DUP2 PUSH2 0x1DDD JUMP JUMPDEST DUP2 EQ PUSH2 0x1DFD JUMPI PUSH0 PUSH0 REVERT JUMPDEST POP JUMP JUMPDEST PUSH0 DUP2 CALLDATALOAD SWAP1 POP PUSH2 0x1E0E DUP2 PUSH2 0x1DEA JUMP JUMPDEST SWAP3 SWAP2 POP POP JUMP JUMPDEST PUSH0 PUSH2 0x1E22 PUSH1 0x20 DUP5 ADD DUP5 PUSH2 0x1E00 JUMP JUMPDEST SWAP1 POP SWAP3 SWAP2 POP POP JUMP JUMPDEST PUSH2 0x1E33 DUP2 PUSH2 0x1DDD JUMP JUMPDEST DUP3 MSTORE POP POP JUMP JUMPDEST PUSH1 0x40 DUP3 ADD PUSH2 0x1E49 PUSH0 DUP4 ADD DUP4 PUSH2 0x1DB8 JUMP JUMPDEST PUSH2 0x1E55 PUSH0 DUP6 ADD DUP3 PUSH2 0x1DCE JUMP JUMPDEST POP PUSH2 0x1E63 PUSH1 0x20 DUP4 ADD DUP4 PUSH2 0x1E14 JUMP JUMPDEST PUSH2 0x1E70 PUSH1 0x20 DUP6 ADD DUP3 PUSH2 0x1E2A JUMP JUMPDEST POP POP POP POP JUMP JUMPDEST PUSH0 PUSH2 0x1E81 DUP4 DUP4 PUSH2 0x1E39 JUMP JUMPDEST PUSH1 0x40 DUP4 ADD SWAP1 POP SWAP3 SWAP2 POP POP JUMP JUMPDEST PUSH0 DUP3 SWAP1 POP SWAP3 SWAP2 POP POP JUMP JUMPDEST PUSH0 PUSH1 0x40 DUP3 ADD SWAP1 POP SWAP2 SWAP1 POP JUMP JUMPDEST PUSH0 PUSH2 0x1EAE DUP4 DUP6 PUSH2 0x1D9F JUMP JUMPDEST SWAP4 POP PUSH2 0x1EB9 DUP3 PUSH2 0x1DAF JUMP JUMPDEST DUP1 PUSH0 JUMPDEST DUP6 DUP2 LT ISZERO PUSH2 0x1EF1 JUMPI PUSH2 0x1ECE DUP3 DUP5 PUSH2 0x1E8D JUMP JUMPDEST PUSH2 0x1ED8 DUP9 DUP3 PUSH2 0x1E76 JUMP JUMPDEST SWAP8 POP PUSH2 0x1EE3 DUP4 PUSH2 0x1E97 JUMP JUMPDEST SWAP3 POP POP PUSH1 0x1 DUP2 ADD SWAP1 POP PUSH2 0x1EBC JUMP JUMPDEST POP DUP6 SWAP3 POP POP POP SWAP4 SWAP3 POP POP POP JUMP JUMPDEST PUSH0 PUSH1 0x60 DUP4 ADD PUSH2 0x1F0F PUSH0 DUP5 ADD DUP5 PUSH2 0x1C9F JUMP JUMPDEST DUP6 DUP4 SUB PUSH0 DUP8 ADD MSTORE PUSH2 0x1F21 DUP4 DUP3 DUP5 PUSH2 0x1D11 JUMP JUMPDEST SWAP3 POP POP POP PUSH2 0x1F32 PUSH1 0x20 DUP5 ADD DUP5 PUSH2 0x1C9F JUMP JUMPDEST DUP6 DUP4 SUB PUSH1 0x20 DUP8 ADD MSTORE PUSH2 0x1F45 DUP4 DUP3 DUP5 PUSH2 0x1D11 JUMP JUMPDEST SWAP3 POP POP POP PUSH2 0x1F56 PUSH1 0x40 DUP5 ADD DUP5 PUSH2 0x1D3D JUMP JUMPDEST DUP6 DUP4 SUB PUSH1 0x40 DUP8 ADD MSTORE PUSH2 0x1F69 DUP4 DUP3 DUP5 PUSH2 0x1EA3 JUMP JUMPDEST SWAP3 POP POP POP DUP1 SWAP2 POP POP SWAP3 SWAP2 POP POP JUMP JUMPDEST PUSH0 PUSH1 0x20 DUP3 ADD SWAP1 POP DUP2 DUP2 SUB PUSH0 DUP4 ADD MSTORE PUSH2 0x1F8F DUP2 DUP5 PUSH2 0x1EFE JUMP JUMPDEST SWAP1 POP SWAP3 SWAP2 POP POP JUMP JUMPDEST PUSH0 PUSH0 REVERT JUMPDEST PUSH0 PUSH0 REVERT JUMPDEST PUSH0 PUSH0 REVERT JUMPDEST PUSH0 PUSH0 DUP4 CALLDATALOAD PUSH1 0x1 PUSH1 0x20 SUB DUP5 CALLDATASIZE SUB SUB DUP2 SLT PUSH2 0x1FBF JUMPI PUSH2 0x1FBE PUSH2 0x1F97 JUMP JUMPDEST JUMPDEST DUP1 DUP5 ADD SWAP3 POP DUP3 CALLDATALOAD SWAP2 POP PUSH8 0xFFFFFFFFFFFFFFFF DUP3 GT ISZERO PUSH2 0x1FE1 JUMPI PUSH2 0x1FE0 PUSH2 0x1F9B JUMP JUMPDEST JUMPDEST PUSH1 0x20 DUP4 ADD SWAP3 POP PUSH1 0x1 DUP3 MUL CALLDATASIZE SUB DUP4 SGT ISZERO PUSH2 0x1FFD JUMPI PUSH2 0x1FFC PUSH2 0x1F9F JUMP JUMPDEST JUMPDEST POP SWAP3 POP SWAP3 SWAP1 POP JUMP JUMPDEST PUSH0 PUSH2 0x2010 DUP4 DUP6 PUSH2 0x1869 JUMP JUMPDEST SWAP4 POP PUSH2 0x201D DUP4 DUP6 DUP5 PUSH2 0x1574 JUMP JUMPDEST PUSH2 0x2026 DUP4 PUSH2 0x14BC JUMP JUMPDEST DUP5 ADD SWAP1 POP SWAP4 SWAP3 POP POP POP JUMP JUMPDEST PUSH0 PUSH1 0x60 DUP3 ADD SWAP1 POP PUSH2 0x2044 PUSH0 DUP4 ADD DUP9 PUSH2 0x16BA JUMP JUMPDEST DUP2 DUP2 SUB PUSH1 0x20 DUP4 ADD MSTORE PUSH2 0x2057 DUP2 DUP7 DUP9 PUSH2 0x2005 JUMP JUMPDEST SWAP1 POP DUP2 DUP2 SUB PUSH1 0x40 DUP4 ADD MSTORE PUSH2 0x206C DUP2 DUP5 DUP7 PUSH2 0x2005 JUMP JUMPDEST SWAP1 POP SWAP7 SWAP6 POP POP POP POP POP POP JUMP JUMPDEST PUSH0 PUSH1 0x40 DUP3 ADD SWAP1 POP PUSH2 0x208B PUSH0 DUP4 ADD DUP6 PUSH2 0x1667 JUMP JUMPDEST PUSH2 0x2098 PUSH1 0x20 DUP4 ADD DUP5 PUSH2 0x1667 JUMP JUMPDEST SWAP4 SWAP3 POP POP POP JUMP JUMPDEST PUSH32 0x4469726563746F72792063616E6E6F74206265207A65726F2061646472657373 PUSH0 DUP3 ADD MSTORE POP JUMP JUMPDEST PUSH0 PUSH2 0x20D3 PUSH1 0x20 DUP4 PUSH2 0x1869 JUMP JUMPDEST SWAP2 POP PUSH2 0x20DE DUP3 PUSH2 0x209F JUMP JUMPDEST PUSH1 0x20 DUP3 ADD SWAP1 POP SWAP2 SWAP1 POP JUMP JUMPDEST PUSH0 PUSH1 0x20 DUP3 ADD SWAP1 POP DUP2 DUP2 SUB PUSH0 DUP4 ADD MSTORE PUSH2 0x2100 DUP2 PUSH2 0x20C7 JUMP JUMPDEST SWAP1 POP SWAP2 SWAP1 POP JUMP JUMPDEST PUSH32 0x4469726563746F7279206D757374206265206120636F6E747261637400000000 PUSH0 DUP3 ADD MSTORE POP JUMP JUMPDEST PUSH0 PUSH2 0x213B PUSH1 0x1C DUP4 PUSH2 0x1869 JUMP JUMPDEST SWAP2 POP PUSH2 0x2146 DUP3 PUSH2 0x2107 JUMP JUMPDEST PUSH1 0x20 DUP3 ADD SWAP1 POP SWAP2 SWAP1 POP JUMP JUMPDEST PUSH0 PUSH1 0x20 DUP3 ADD SWAP1 POP DUP2 DUP2 SUB PUSH0 DUP4 ADD MSTORE PUSH2 0x2168 DUP2 PUSH2 0x212F JUMP JUMPDEST SWAP1 POP SWAP2 SWAP1 POP JUMP JUMPDEST PUSH32 0x4469726563746F7279206164647265737320646F6573206E6F7420696D706C65 PUSH0 DUP3 ADD MSTORE PUSH32 0x6D656E74206F776E657228290000000000000000000000000000000000000000 PUSH1 0x20 DUP3 ADD MSTORE POP JUMP JUMPDEST PUSH0 PUSH2 0x21C9 PUSH1 0x2C DUP4 PUSH2 0x1869 JUMP JUMPDEST SWAP2 POP PUSH2 0x21D4 DUP3 PUSH2 0x216F JUMP JUMPDEST PUSH1 0x40 DUP3 ADD SWAP1 POP SWAP2 SWAP1 POP JUMP JUMPDEST PUSH0 PUSH1 0x20 DUP3 ADD SWAP1 POP DUP2 DUP2 SUB PUSH0 DUP4 ADD MSTORE PUSH2 0x21F6 DUP2 PUSH2 0x21BD JUMP JUMPDEST SWAP1 POP SWAP2 SWAP1 POP JUMP JUMPDEST PUSH0 PUSH0 REVERT JUMPDEST PUSH0 PUSH0 REVERT JUMPDEST PUSH0 PUSH2 0x2217 PUSH2 0x2212 DUP5 PUSH2 0x1544 JUMP JUMPDEST PUSH2 0x152A JUMP JUMPDEST SWAP1 POP DUP3 DUP2 MSTORE PUSH1 0x20 DUP2 ADD DUP5 DUP5 DUP5 ADD GT ISZERO PUSH2 0x2233 JUMPI PUSH2 0x2232 PUSH2 0x14B8 JUMP JUMPDEST JUMPDEST PUSH2 0x223E DUP5 DUP3 DUP6 PUSH2 0x1B1E JUMP JUMPDEST POP SWAP4 SWAP3 POP POP POP JUMP JUMPDEST PUSH0 DUP3 PUSH1 0x1F DUP4 ADD SLT PUSH2 0x225A JUMPI PUSH2 0x2259 PUSH2 0x14B4 JUMP JUMPDEST JUMPDEST DUP2 MLOAD PUSH2 0x226A DUP5 DUP3 PUSH1 0x20 DUP7 ADD PUSH2 0x2205 JUMP JUMPDEST SWAP2 POP POP SWAP3 SWAP2 POP POP JUMP JUMPDEST PUSH0 PUSH8 0xFFFFFFFFFFFFFFFF DUP3 GT ISZERO PUSH2 0x228D JUMPI PUSH2 0x228C PUSH2 0x14CC JUMP JUMPDEST JUMPDEST PUSH1 0x20 DUP3 MUL SWAP1 POP PUSH1 0x20 DUP2 ADD SWAP1 POP SWAP2 SWAP1 POP JUMP JUMPDEST PUSH0 PUSH0 REVERT JUMPDEST PUSH0 DUP2 MLOAD SWAP1 POP PUSH2 0x22B0 DUP2 PUSH2 0x1DEA JUMP JUMPDEST SWAP3 SWAP2 POP POP JUMP JUMPDEST PUSH0 PUSH1 0x40 DUP3 DUP5 SUB SLT ISZERO PUSH2 0x22CB JUMPI PUSH2 0x22CA PUSH2 0x21FD JUMP JUMPDEST JUMPDEST PUSH2 0x22D5 PUSH1 0x40 PUSH2 0x152A JUMP JUMPDEST SWAP1 POP PUSH0 PUSH2 0x22E4 DUP5 DUP3 DUP6 ADD PUSH2 0x1B84 JUMP JUMPDEST PUSH0 DUP4 ADD MSTORE POP PUSH1 0x20 PUSH2 0x22F7 DUP5 DUP3 DUP6 ADD PUSH2 0x22A2 JUMP JUMPDEST PUSH1 0x20 DUP4 ADD MSTORE POP SWAP3 SWAP2 POP POP JUMP JUMPDEST PUSH0 PUSH2 0x2315 PUSH2 0x2310 DUP5 PUSH2 0x2273 JUMP JUMPDEST PUSH2 0x152A JUMP JUMPDEST SWAP1 POP DUP1 DUP4 DUP3 MSTORE PUSH1 0x20 DUP3 ADD SWAP1 POP PUSH1 0x40 DUP5 MUL DUP4 ADD DUP6 DUP2 GT ISZERO PUSH2 0x2338 JUMPI PUSH2 0x2337 PUSH2 0x229E JUMP JUMPDEST JUMPDEST DUP4 JUMPDEST DUP2 DUP2 LT ISZERO PUSH2 0x2361 JUMPI DUP1 PUSH2 0x234D DUP9 DUP3 PUSH2 0x22B6 JUMP JUMPDEST DUP5 MSTORE PUSH1 0x20 DUP5 ADD SWAP4 POP POP PUSH1 0x40 DUP2 ADD SWAP1 POP PUSH2 0x233A JUMP JUMPDEST POP POP POP SWAP4 SWAP3 POP POP POP JUMP JUMPDEST PUSH0 DUP3 PUSH1 0x1F DUP4 ADD SLT PUSH2 0x237F JUMPI PUSH2 0x237E PUSH2 0x14B4 JUMP JUMPDEST JUMPDEST DUP2 MLOAD PUSH2 0x238F DUP5 DUP3 PUSH1 0x20 DUP7 ADD PUSH2 0x2303 JUMP JUMPDEST SWAP2 POP POP SWAP3 SWAP2 POP POP JUMP JUMPDEST PUSH0 PUSH1 0x60 DUP3 DUP5 SUB SLT ISZERO PUSH2 0x23AD JUMPI PUSH2 0x23AC PUSH2 0x21FD JUMP JUMPDEST JUMPDEST PUSH2 0x23B7 PUSH1 0x60 PUSH2 0x152A JUMP JUMPDEST SWAP1 POP PUSH0 DUP3 ADD MLOAD PUSH8 0xFFFFFFFFFFFFFFFF DUP2 GT ISZERO PUSH2 0x23D6 JUMPI PUSH2 0x23D5 PUSH2 0x2201 JUMP JUMPDEST JUMPDEST PUSH2 0x23E2 DUP5 DUP3 DUP6 ADD PUSH2 0x2246 JUMP JUMPDEST PUSH0 DUP4 ADD MSTORE POP PUSH1 0x20 DUP3 ADD MLOAD PUSH8 0xFFFFFFFFFFFFFFFF DUP2 GT ISZERO PUSH2 0x2405 JUMPI PUSH2 0x2404 PUSH2 0x2201 JUMP JUMPDEST JUMPDEST PUSH2 0x2411 DUP5 DUP3 DUP6 ADD PUSH2 0x2246 JUMP JUMPDEST PUSH1 0x20 DUP4 ADD MSTORE POP PUSH1 0x40 DUP3 ADD MLOAD PUSH8 0xFFFFFFFFFFFFFFFF DUP2 GT ISZERO PUSH2 0x2435 JUMPI PUSH2 0x2434 PUSH2 0x2201 JUMP JUMPDEST JUMPDEST PUSH2 0x2441 DUP5 DUP3 DUP6 ADD PUSH2 0x236B JUMP JUMPDEST PUSH1 0x40 DUP4 ADD MSTORE POP SWAP3 SWAP2 POP POP JUMP JUMPDEST PUSH0 PUSH1 0x20 DUP3 DUP5 SUB SLT ISZERO PUSH2 0x2462 JUMPI PUSH2 0x2461 PUSH2 0x1408 JUMP JUMPDEST JUMPDEST PUSH0 DUP3 ADD MLOAD PUSH8 0xFFFFFFFFFFFFFFFF DUP2 GT ISZERO PUSH2 0x247F JUMPI PUSH2 0x247E PUSH2 0x140C JUMP JUMPDEST JUMPDEST PUSH2 0x248B DUP5 DUP3 DUP6 ADD PUSH2 0x2398 JUMP JUMPDEST SWAP2 POP POP SWAP3 SWAP2 POP POP JUMP JUMPDEST PUSH32 0x4E487B7100000000000000000000000000000000000000000000000000000000 PUSH0 MSTORE PUSH1 0x32 PUSH1 0x4 MSTORE PUSH1 0x24 PUSH0 REVERT INVALID LOG2 PUSH5 0x6970667358 0x22 SLT KECCAK256 ISZERO PUSH28 0x4A2676F51AF3288C00B05C49916F8F5AD9160430C0DFAE5EC54F64AD CREATE2 PUSH27 0x64736F6C634300081E003300000000000000000000000000000000 "
				},
				"gasEstimates": {
					"creation": {
						"codeDepositCost": "1892600",
						"executionCost": "infinite",
						"totalCost": "infinite"
					},
					"external": {
						"Directory()": "infinite",
						"changeDirectoryAddress(address)": "infinite",
						"createIndexAndEtf((string,string,(address,uint16)[]))": "infinite",
						"fetchFromDirectory(string)": "infinite",
						"getEtfNavUsd(uint256)": "infinite",
						"getEtfNavWeth(uint256)": "infinite",
						"getEtfTokenAddress(uint256)": "2982",
						"getEtfTotalVolumeUsd(uint256)": "infinite",
						"getEtfTotalVolumeWeth(uint256)": "infinite",
						"getEtfVaultAddress(uint256)": "2917",
						"getIndexIdFromEtfTokenAddress(address)": "2873",
						"isActive()": "2512",
						"owner()": "infinite",
						"setActive(bool)": "infinite",
						"updateEtfVolume(uint256,uint256)": "infinite"
					}
				},
				"methodIdentifiers": {
					"Directory()": "658a847a",
					"changeDirectoryAddress(address)": "ba4c7be1",
					"createIndexAndEtf((string,string,(address,uint16)[]))": "c4eda09e",
					"fetchFromDirectory(string)": "27262618",
					"getEtfNavUsd(uint256)": "65a8f8b5",
					"getEtfNavWeth(uint256)": "e4b603b3",
					"getEtfTokenAddress(uint256)": "f2018a1f",
					"getEtfTotalVolumeUsd(uint256)": "9cfe0b3b",
					"getEtfTotalVolumeWeth(uint256)": "4eea0e0d",
					"getEtfVaultAddress(uint256)": "3ee79962",
					"getIndexIdFromEtfTokenAddress(address)": "d00ed651",
					"isActive()": "22f3e2d4",
					"owner()": "8da5cb5b",
					"setActive(bool)": "acec338a",
					"updateEtfVolume(uint256,uint256)": "1626542c"
				}
			},
			"storageLayout": {
				"storage": [
					{
						"astId": 126,
						"contract": "hopium/etf/main/etf-factory.sol:EtfFactory",
						"label": "Directory",
						"offset": 0,
						"slot": "0",
						"type": "t_contract(IDirectory)123"
					},
					{
						"astId": 378,
						"contract": "hopium/etf/main/etf-factory.sol:EtfFactory",
						"label": "indexIdToEtfTokenAddress",
						"offset": 0,
						"slot": "1",
						"type": "t_mapping(t_uint256,t_address)"
					},
					{
						"astId": 382,
						"contract": "hopium/etf/main/etf-factory.sol:EtfFactory",
						"label": "etfTokenAddressToIndexId",
						"offset": 0,
						"slot": "2",
						"type": "t_mapping(t_address,t_uint256)"
					},
					{
						"astId": 386,
						"contract": "hopium/etf/main/etf-factory.sol:EtfFactory",
						"label": "indexIdToEtfVaultAddress",
						"offset": 0,
						"slot": "3",
						"type": "t_mapping(t_uint256,t_address)"
					},
					{
						"astId": 390,
						"contract": "hopium/etf/main/etf-factory.sol:EtfFactory",
						"label": "indexIdToTotalVolumeWeth",
						"offset": 0,
						"slot": "4",
						"type": "t_mapping(t_uint256,t_uint256)"
					},
					{
						"astId": 394,
						"contract": "hopium/etf/main/etf-factory.sol:EtfFactory",
						"label": "indexIdToTotalVolumeUsd",
						"offset": 0,
						"slot": "5",
						"type": "t_mapping(t_uint256,t_uint256)"
					},
					{
						"astId": 85,
						"contract": "hopium/etf/main/etf-factory.sol:EtfFactory",
						"label": "isActive",
						"offset": 0,
						"slot": "6",
						"type": "t_bool"
					}
				],
				"types": {
					"t_address": {
						"encoding": "inplace",
						"label": "address",
						"numberOfBytes": "20"
					},
					"t_bool": {
						"encoding": "inplace",
						"label": "bool",
						"numberOfBytes": "1"
					},
					"t_contract(IDirectory)123": {
						"encoding": "inplace",
						"label": "contract IDirectory",
						"numberOfBytes": "20"
					},
					"t_mapping(t_address,t_uint256)": {
						"encoding": "mapping",
						"key": "t_address",
						"label": "mapping(address => uint256)",
						"numberOfBytes": "32",
						"value": "t_uint256"
					},
					"t_mapping(t_uint256,t_address)": {
						"encoding": "mapping",
						"key": "t_uint256",
						"label": "mapping(uint256 => address)",
						"numberOfBytes": "32",
						"value": "t_address"
					},
					"t_mapping(t_uint256,t_uint256)": {
						"encoding": "mapping",
						"key": "t_uint256",
						"label": "mapping(uint256 => uint256)",
						"numberOfBytes": "32",
						"value": "t_uint256"
					},
					"t_uint256": {
						"encoding": "inplace",
						"label": "uint256",
						"numberOfBytes": "32"
					}
				}
			},
			"userdoc": {
				"kind": "user",
				"methods": {},
				"version": 1
			}
		}
	}
}