{
	"hopium/etf/main/index-factory.sol": {
		"IndexFactory": {
			"abi": [
				{
					"inputs": [
						{
							"internalType": "address",
							"name": "_directory",
							"type": "address"
						}
					],
					"stateMutability": "nonpayable",
					"type": "constructor"
				},
				{
					"inputs": [],
					"name": "DuplicateToken",
					"type": "error"
				},
				{
					"inputs": [],
					"name": "EmptyTicker",
					"type": "error"
				},
				{
					"inputs": [],
					"name": "IndexExists",
					"type": "error"
				},
				{
					"inputs": [],
					"name": "InvalidId",
					"type": "error"
				},
				{
					"inputs": [],
					"name": "NoHoldings",
					"type": "error"
				},
				{
					"inputs": [],
					"name": "NotHundred",
					"type": "error"
				},
				{
					"inputs": [],
					"name": "OverWeight",
					"type": "error"
				},
				{
					"inputs": [],
					"name": "TickerExists",
					"type": "error"
				},
				{
					"inputs": [],
					"name": "UnknownTicker",
					"type": "error"
				},
				{
					"inputs": [],
					"name": "ZeroToken",
					"type": "error"
				},
				{
					"inputs": [],
					"name": "ZeroWeight",
					"type": "error"
				},
				{
					"anonymous": false,
					"inputs": [
						{
							"indexed": true,
							"internalType": "uint256",
							"name": "indexId",
							"type": "uint256"
						}
					],
					"name": "IndexCreated",
					"type": "event"
				},
				{
					"inputs": [],
					"name": "Directory",
					"outputs": [
						{
							"internalType": "contract IDirectory",
							"name": "",
							"type": "address"
						}
					],
					"stateMutability": "view",
					"type": "function"
				},
				{
					"inputs": [
						{
							"internalType": "address",
							"name": "_directory",
							"type": "address"
						}
					],
					"name": "changeDirectoryAddress",
					"outputs": [],
					"stateMutability": "nonpayable",
					"type": "function"
				},
				{
					"inputs": [
						{
							"components": [
								{
									"internalType": "string",
									"name": "name",
									"type": "string"
								},
								{
									"internalType": "string",
									"name": "ticker",
									"type": "string"
								},
								{
									"components": [
										{
											"internalType": "address",
											"name": "tokenAddress",
											"type": "address"
										},
										{
											"internalType": "uint16",
											"name": "weightBips",
											"type": "uint16"
										}
									],
									"internalType": "struct Holding[]",
									"name": "holdings",
									"type": "tuple[]"
								}
							],
							"internalType": "struct Index",
							"name": "index",
							"type": "tuple"
						}
					],
					"name": "createIndex",
					"outputs": [
						{
							"internalType": "uint256",
							"name": "",
							"type": "uint256"
						}
					],
					"stateMutability": "nonpayable",
					"type": "function"
				},
				{
					"inputs": [
						{
							"internalType": "string",
							"name": "_key",
							"type": "string"
						}
					],
					"name": "fetchFromDirectory",
					"outputs": [
						{
							"internalType": "address",
							"name": "",
							"type": "address"
						}
					],
					"stateMutability": "view",
					"type": "function"
				},
				{
					"inputs": [
						{
							"internalType": "uint256",
							"name": "indexId",
							"type": "uint256"
						}
					],
					"name": "getIndexById",
					"outputs": [
						{
							"components": [
								{
									"internalType": "string",
									"name": "name",
									"type": "string"
								},
								{
									"internalType": "string",
									"name": "ticker",
									"type": "string"
								},
								{
									"components": [
										{
											"internalType": "address",
											"name": "tokenAddress",
											"type": "address"
										},
										{
											"internalType": "uint16",
											"name": "weightBips",
											"type": "uint16"
										}
									],
									"internalType": "struct Holding[]",
									"name": "holdings",
									"type": "tuple[]"
								}
							],
							"internalType": "struct Index",
							"name": "",
							"type": "tuple"
						}
					],
					"stateMutability": "view",
					"type": "function"
				},
				{
					"inputs": [
						{
							"internalType": "string",
							"name": "ticker",
							"type": "string"
						}
					],
					"name": "getIndexByTicker",
					"outputs": [
						{
							"components": [
								{
									"internalType": "string",
									"name": "name",
									"type": "string"
								},
								{
									"internalType": "string",
									"name": "ticker",
									"type": "string"
								},
								{
									"components": [
										{
											"internalType": "address",
											"name": "tokenAddress",
											"type": "address"
										},
										{
											"internalType": "uint16",
											"name": "weightBips",
											"type": "uint16"
										}
									],
									"internalType": "struct Holding[]",
									"name": "holdings",
									"type": "tuple[]"
								}
							],
							"internalType": "struct Index",
							"name": "",
							"type": "tuple"
						}
					],
					"stateMutability": "view",
					"type": "function"
				},
				{
					"inputs": [],
					"name": "isActive",
					"outputs": [
						{
							"internalType": "bool",
							"name": "",
							"type": "bool"
						}
					],
					"stateMutability": "view",
					"type": "function"
				},
				{
					"inputs": [],
					"name": "owner",
					"outputs": [
						{
							"internalType": "address",
							"name": "",
							"type": "address"
						}
					],
					"stateMutability": "view",
					"type": "function"
				},
				{
					"inputs": [
						{
							"internalType": "bool",
							"name": "_active",
							"type": "bool"
						}
					],
					"name": "setActive",
					"outputs": [],
					"stateMutability": "nonpayable",
					"type": "function"
				},
				{
					"inputs": [],
					"name": "totalIndexes",
					"outputs": [
						{
							"internalType": "uint256",
							"name": "",
							"type": "uint256"
						}
					],
					"stateMutability": "view",
					"type": "function"
				}
			],
			"devdoc": {
				"events": {
					"IndexCreated(uint256)": {
						"details": "lean event: all topics, constant-size; no dynamic arrays/strings in data"
					}
				},
				"kind": "dev",
				"methods": {},
				"version": 1
			},
			"evm": {
				"assembly": "    /* \"hopium/etf/main/index-factory.sol\":4377:6109  contract IndexFactory is ImDirectory, ValidationHelpers, ImEtfFactory, ImActive {... */\n  mstore(0x40, 0x80)\n    /* \"hopium/common/interface/imActive.sol\":179:183  true */\n  0x01\n    /* \"hopium/common/interface/imActive.sol\":156:183  bool public isActive = true */\n  0x03\n  exp(0x0100, 0x14)\n  dup2\n  sload\n  dup2\n  0xff\n  mul\n  not\n  and\n  swap1\n  dup4\n  iszero\n  iszero\n  mul\n  or\n  swap1\n  sstore\n  pop\n    /* \"hopium/etf/main/index-factory.sol\":4463:4521  constructor(address _directory) ImDirectory(_directory) {} */\n  callvalue\n  dup1\n  iszero\n  tag_1\n  jumpi\n  revert(0x00, 0x00)\ntag_1:\n  pop\n  mload(0x40)\n  sub(codesize, bytecodeSize)\n  dup1\n  bytecodeSize\n  dup4\n  codecopy\n  dup2\n  dup2\n  add\n  0x40\n  mstore\n  dup2\n  add\n  swap1\n  tag_2\n  swap2\n  swap1\n  tag_3\n  jump\t// in\ntag_2:\n    /* \"hopium/etf/main/index-factory.sol\":4507:4517  _directory */\n  dup1\n    /* \"hopium/common/interface/imDirectory.sol\":412:437  _setDirectory(_directory) */\n  tag_7\n    /* \"hopium/common/interface/imDirectory.sol\":426:436  _directory */\n  dup2\n    /* \"hopium/common/interface/imDirectory.sol\":412:425  _setDirectory */\n  shl(0x20, tag_8)\n    /* \"hopium/common/interface/imDirectory.sol\":412:437  _setDirectory(_directory) */\n  0x20\n  shr\n  jump\t// in\ntag_7:\n    /* \"hopium/common/interface/imDirectory.sol\":370:464  constructor(address _directory) {... */\n  pop\n    /* \"hopium/etf/main/index-factory.sol\":4463:4521  constructor(address _directory) ImDirectory(_directory) {} */\n  pop\n    /* \"hopium/etf/main/index-factory.sol\":4377:6109  contract IndexFactory is ImDirectory, ValidationHelpers, ImEtfFactory, ImActive {... */\n  jump(tag_10)\n    /* \"hopium/common/interface/imDirectory.sol\":589:1050  function _setDirectory(address _directory) internal {... */\ntag_8:\n    /* \"hopium/common/interface/imDirectory.sol\":681:682  0 */\n  0x00\n    /* \"hopium/common/interface/imDirectory.sol\":659:683  _directory != address(0) */\n  0xffffffffffffffffffffffffffffffffffffffff\n  and\n    /* \"hopium/common/interface/imDirectory.sol\":659:669  _directory */\n  dup2\n    /* \"hopium/common/interface/imDirectory.sol\":659:683  _directory != address(0) */\n  0xffffffffffffffffffffffffffffffffffffffff\n  and\n  sub\n    /* \"hopium/common/interface/imDirectory.sol\":651:720  require(_directory != address(0), \"Directory cannot be zero address\") */\n  tag_12\n  jumpi\n  mload(0x40)\n  0x08c379a000000000000000000000000000000000000000000000000000000000\n  dup2\n  mstore\n  0x04\n  add\n  tag_13\n  swap1\n  tag_14\n  jump\t// in\ntag_13:\n  mload(0x40)\n  dup1\n  swap2\n  sub\n  swap1\n  revert\ntag_12:\n    /* \"hopium/common/interface/imDirectory.sol\":763:764  0 */\n  0x00\n    /* \"hopium/common/interface/imDirectory.sol\":738:748  _directory */\n  dup2\n    /* \"hopium/common/interface/imDirectory.sol\":738:760  _directory.code.length */\n  0xffffffffffffffffffffffffffffffffffffffff\n  and\n  extcodesize\n    /* \"hopium/common/interface/imDirectory.sol\":738:764  _directory.code.length > 0 */\n  gt\n    /* \"hopium/common/interface/imDirectory.sol\":730:797  require(_directory.code.length > 0, \"Directory must be a contract\") */\n  tag_15\n  jumpi\n  mload(0x40)\n  0x08c379a000000000000000000000000000000000000000000000000000000000\n  dup2\n  mstore\n  0x04\n  add\n  tag_16\n  swap1\n  tag_17\n  jump\t// in\ntag_16:\n  mload(0x40)\n  dup1\n  swap2\n  sub\n  swap1\n  revert\ntag_15:\n    /* \"hopium/common/interface/imDirectory.sol\":861:871  _directory */\n  dup1\n    /* \"hopium/common/interface/imDirectory.sol\":850:878  IDirectory(_directory).owner */\n  0xffffffffffffffffffffffffffffffffffffffff\n  and\n  0x8da5cb5b\n    /* \"hopium/common/interface/imDirectory.sol\":850:880  IDirectory(_directory).owner() */\n  mload(0x40)\n  dup2\n  0xffffffff\n  and\n  0xe0\n  shl\n  dup2\n  mstore\n  0x04\n  add\n  0x20\n  mload(0x40)\n  dup1\n  dup4\n  sub\n  dup2\n  dup7\n  gas\n  staticcall\n  swap3\n  pop\n  pop\n  pop\n  dup1\n  iszero\n  tag_18\n  jumpi\n  pop\n  mload(0x40)\n  returndatasize\n  not(0x1f)\n  0x1f\n  dup3\n  add\n  and\n  dup3\n  add\n  dup1\n  0x40\n  mstore\n  pop\n  dup2\n  add\n  swap1\n  tag_19\n  swap2\n  swap1\n  tag_3\n  jump\t// in\ntag_19:\n  0x01\ntag_18:\n    /* \"hopium/common/interface/imDirectory.sol\":846:1044  try IDirectory(_directory).owner() returns (address) {... */\n  tag_20\n  jumpi\n    /* \"hopium/common/interface/imDirectory.sol\":979:1033  revert(\"Directory address does not implement owner()\") */\n  mload(0x40)\n  0x08c379a000000000000000000000000000000000000000000000000000000000\n  dup2\n  mstore\n  0x04\n  add\n  tag_24\n  swap1\n  tag_25\n  jump\t// in\ntag_24:\n  mload(0x40)\n  dup1\n  swap2\n  sub\n  swap1\n  revert\n    /* \"hopium/common/interface/imDirectory.sol\":846:1044  try IDirectory(_directory).owner() returns (address) {... */\ntag_20:\n    /* \"hopium/common/interface/imDirectory.sol\":936:946  _directory */\n  dup2\n    /* \"hopium/common/interface/imDirectory.sol\":913:922  Directory */\n  0x03\n  0x00\n    /* \"hopium/common/interface/imDirectory.sol\":913:947  Directory = IDirectory(_directory) */\n  0x0100\n  exp\n  dup2\n  sload\n  dup2\n  0xffffffffffffffffffffffffffffffffffffffff\n  mul\n  not\n  and\n  swap1\n  dup4\n  0xffffffffffffffffffffffffffffffffffffffff\n  and\n  mul\n  or\n  swap1\n  sstore\n  pop\n    /* \"hopium/common/interface/imDirectory.sol\":881:958  returns (address) {... */\n  pop\n    /* \"hopium/common/interface/imDirectory.sol\":589:1050  function _setDirectory(address _directory) internal {... */\n  pop\n  jump\t// out\n    /* \"#utility.yul\":88:205   */\ntag_28:\n    /* \"#utility.yul\":197:198   */\n  0x00\n    /* \"#utility.yul\":194:195   */\n  0x00\n    /* \"#utility.yul\":187:199   */\n  revert\n    /* \"#utility.yul\":334:460   */\ntag_30:\n    /* \"#utility.yul\":371:378   */\n  0x00\n    /* \"#utility.yul\":411:453   */\n  0xffffffffffffffffffffffffffffffffffffffff\n    /* \"#utility.yul\":404:409   */\n  dup3\n    /* \"#utility.yul\":400:454   */\n  and\n    /* \"#utility.yul\":389:454   */\n  swap1\n  pop\n    /* \"#utility.yul\":334:460   */\n  swap2\n  swap1\n  pop\n  jump\t// out\n    /* \"#utility.yul\":466:562   */\ntag_31:\n    /* \"#utility.yul\":503:510   */\n  0x00\n    /* \"#utility.yul\":532:556   */\n  tag_47\n    /* \"#utility.yul\":550:555   */\n  dup3\n    /* \"#utility.yul\":532:556   */\n  tag_30\n  jump\t// in\ntag_47:\n    /* \"#utility.yul\":521:556   */\n  swap1\n  pop\n    /* \"#utility.yul\":466:562   */\n  swap2\n  swap1\n  pop\n  jump\t// out\n    /* \"#utility.yul\":568:690   */\ntag_32:\n    /* \"#utility.yul\":641:665   */\n  tag_49\n    /* \"#utility.yul\":659:664   */\n  dup2\n    /* \"#utility.yul\":641:665   */\n  tag_31\n  jump\t// in\ntag_49:\n    /* \"#utility.yul\":634:639   */\n  dup2\n    /* \"#utility.yul\":631:666   */\n  eq\n    /* \"#utility.yul\":621:684   */\n  tag_50\n  jumpi\n    /* \"#utility.yul\":680:681   */\n  0x00\n    /* \"#utility.yul\":677:678   */\n  0x00\n    /* \"#utility.yul\":670:682   */\n  revert\n    /* \"#utility.yul\":621:684   */\ntag_50:\n    /* \"#utility.yul\":568:690   */\n  pop\n  jump\t// out\n    /* \"#utility.yul\":696:839   */\ntag_33:\n    /* \"#utility.yul\":753:758   */\n  0x00\n    /* \"#utility.yul\":784:790   */\n  dup2\n    /* \"#utility.yul\":778:791   */\n  mload\n    /* \"#utility.yul\":769:791   */\n  swap1\n  pop\n    /* \"#utility.yul\":800:833   */\n  tag_52\n    /* \"#utility.yul\":827:832   */\n  dup2\n    /* \"#utility.yul\":800:833   */\n  tag_32\n  jump\t// in\ntag_52:\n    /* \"#utility.yul\":696:839   */\n  swap3\n  swap2\n  pop\n  pop\n  jump\t// out\n    /* \"#utility.yul\":845:1196   */\ntag_3:\n    /* \"#utility.yul\":915:921   */\n  0x00\n    /* \"#utility.yul\":964:966   */\n  0x20\n    /* \"#utility.yul\":952:961   */\n  dup3\n    /* \"#utility.yul\":943:950   */\n  dup5\n    /* \"#utility.yul\":939:962   */\n  sub\n    /* \"#utility.yul\":935:967   */\n  slt\n    /* \"#utility.yul\":932:1051   */\n  iszero\n  tag_54\n  jumpi\n    /* \"#utility.yul\":970:1049   */\n  tag_55\n  tag_28\n  jump\t// in\ntag_55:\n    /* \"#utility.yul\":932:1051   */\ntag_54:\n    /* \"#utility.yul\":1090:1091   */\n  0x00\n    /* \"#utility.yul\":1115:1179   */\n  tag_56\n    /* \"#utility.yul\":1171:1178   */\n  dup5\n    /* \"#utility.yul\":1162:1168   */\n  dup3\n    /* \"#utility.yul\":1151:1160   */\n  dup6\n    /* \"#utility.yul\":1147:1169   */\n  add\n    /* \"#utility.yul\":1115:1179   */\n  tag_33\n  jump\t// in\ntag_56:\n    /* \"#utility.yul\":1105:1179   */\n  swap2\n  pop\n    /* \"#utility.yul\":1061:1189   */\n  pop\n    /* \"#utility.yul\":845:1196   */\n  swap3\n  swap2\n  pop\n  pop\n  jump\t// out\n    /* \"#utility.yul\":1202:1371   */\ntag_34:\n    /* \"#utility.yul\":1286:1297   */\n  0x00\n    /* \"#utility.yul\":1320:1326   */\n  dup3\n    /* \"#utility.yul\":1315:1318   */\n  dup3\n    /* \"#utility.yul\":1308:1327   */\n  mstore\n    /* \"#utility.yul\":1360:1364   */\n  0x20\n    /* \"#utility.yul\":1355:1358   */\n  dup3\n    /* \"#utility.yul\":1351:1365   */\n  add\n    /* \"#utility.yul\":1336:1365   */\n  swap1\n  pop\n    /* \"#utility.yul\":1202:1371   */\n  swap3\n  swap2\n  pop\n  pop\n  jump\t// out\n    /* \"#utility.yul\":1377:1559   */\ntag_35:\n    /* \"#utility.yul\":1517:1551   */\n  0x4469726563746f72792063616e6e6f74206265207a65726f2061646472657373\n    /* \"#utility.yul\":1513:1514   */\n  0x00\n    /* \"#utility.yul\":1505:1511   */\n  dup3\n    /* \"#utility.yul\":1501:1515   */\n  add\n    /* \"#utility.yul\":1494:1552   */\n  mstore\n    /* \"#utility.yul\":1377:1559   */\n  pop\n  jump\t// out\n    /* \"#utility.yul\":1565:1931   */\ntag_36:\n    /* \"#utility.yul\":1707:1710   */\n  0x00\n    /* \"#utility.yul\":1728:1795   */\n  tag_60\n    /* \"#utility.yul\":1792:1794   */\n  0x20\n    /* \"#utility.yul\":1787:1790   */\n  dup4\n    /* \"#utility.yul\":1728:1795   */\n  tag_34\n  jump\t// in\ntag_60:\n    /* \"#utility.yul\":1721:1795   */\n  swap2\n  pop\n    /* \"#utility.yul\":1804:1897   */\n  tag_61\n    /* \"#utility.yul\":1893:1896   */\n  dup3\n    /* \"#utility.yul\":1804:1897   */\n  tag_35\n  jump\t// in\ntag_61:\n    /* \"#utility.yul\":1922:1924   */\n  0x20\n    /* \"#utility.yul\":1917:1920   */\n  dup3\n    /* \"#utility.yul\":1913:1925   */\n  add\n    /* \"#utility.yul\":1906:1925   */\n  swap1\n  pop\n    /* \"#utility.yul\":1565:1931   */\n  swap2\n  swap1\n  pop\n  jump\t// out\n    /* \"#utility.yul\":1937:2356   */\ntag_14:\n    /* \"#utility.yul\":2103:2107   */\n  0x00\n    /* \"#utility.yul\":2141:2143   */\n  0x20\n    /* \"#utility.yul\":2130:2139   */\n  dup3\n    /* \"#utility.yul\":2126:2144   */\n  add\n    /* \"#utility.yul\":2118:2144   */\n  swap1\n  pop\n    /* \"#utility.yul\":2190:2199   */\n  dup2\n    /* \"#utility.yul\":2184:2188   */\n  dup2\n    /* \"#utility.yul\":2180:2200   */\n  sub\n    /* \"#utility.yul\":2176:2177   */\n  0x00\n    /* \"#utility.yul\":2165:2174   */\n  dup4\n    /* \"#utility.yul\":2161:2178   */\n  add\n    /* \"#utility.yul\":2154:2201   */\n  mstore\n    /* \"#utility.yul\":2218:2349   */\n  tag_63\n    /* \"#utility.yul\":2344:2348   */\n  dup2\n    /* \"#utility.yul\":2218:2349   */\n  tag_36\n  jump\t// in\ntag_63:\n    /* \"#utility.yul\":2210:2349   */\n  swap1\n  pop\n    /* \"#utility.yul\":1937:2356   */\n  swap2\n  swap1\n  pop\n  jump\t// out\n    /* \"#utility.yul\":2362:2540   */\ntag_37:\n    /* \"#utility.yul\":2502:2532   */\n  0x4469726563746f7279206d757374206265206120636f6e747261637400000000\n    /* \"#utility.yul\":2498:2499   */\n  0x00\n    /* \"#utility.yul\":2490:2496   */\n  dup3\n    /* \"#utility.yul\":2486:2500   */\n  add\n    /* \"#utility.yul\":2479:2533   */\n  mstore\n    /* \"#utility.yul\":2362:2540   */\n  pop\n  jump\t// out\n    /* \"#utility.yul\":2546:2912   */\ntag_38:\n    /* \"#utility.yul\":2688:2691   */\n  0x00\n    /* \"#utility.yul\":2709:2776   */\n  tag_66\n    /* \"#utility.yul\":2773:2775   */\n  0x1c\n    /* \"#utility.yul\":2768:2771   */\n  dup4\n    /* \"#utility.yul\":2709:2776   */\n  tag_34\n  jump\t// in\ntag_66:\n    /* \"#utility.yul\":2702:2776   */\n  swap2\n  pop\n    /* \"#utility.yul\":2785:2878   */\n  tag_67\n    /* \"#utility.yul\":2874:2877   */\n  dup3\n    /* \"#utility.yul\":2785:2878   */\n  tag_37\n  jump\t// in\ntag_67:\n    /* \"#utility.yul\":2903:2905   */\n  0x20\n    /* \"#utility.yul\":2898:2901   */\n  dup3\n    /* \"#utility.yul\":2894:2906   */\n  add\n    /* \"#utility.yul\":2887:2906   */\n  swap1\n  pop\n    /* \"#utility.yul\":2546:2912   */\n  swap2\n  swap1\n  pop\n  jump\t// out\n    /* \"#utility.yul\":2918:3337   */\ntag_17:\n    /* \"#utility.yul\":3084:3088   */\n  0x00\n    /* \"#utility.yul\":3122:3124   */\n  0x20\n    /* \"#utility.yul\":3111:3120   */\n  dup3\n    /* \"#utility.yul\":3107:3125   */\n  add\n    /* \"#utility.yul\":3099:3125   */\n  swap1\n  pop\n    /* \"#utility.yul\":3171:3180   */\n  dup2\n    /* \"#utility.yul\":3165:3169   */\n  dup2\n    /* \"#utility.yul\":3161:3181   */\n  sub\n    /* \"#utility.yul\":3157:3158   */\n  0x00\n    /* \"#utility.yul\":3146:3155   */\n  dup4\n    /* \"#utility.yul\":3142:3159   */\n  add\n    /* \"#utility.yul\":3135:3182   */\n  mstore\n    /* \"#utility.yul\":3199:3330   */\n  tag_69\n    /* \"#utility.yul\":3325:3329   */\n  dup2\n    /* \"#utility.yul\":3199:3330   */\n  tag_38\n  jump\t// in\ntag_69:\n    /* \"#utility.yul\":3191:3330   */\n  swap1\n  pop\n    /* \"#utility.yul\":2918:3337   */\n  swap2\n  swap1\n  pop\n  jump\t// out\n    /* \"#utility.yul\":3343:3574   */\ntag_39:\n    /* \"#utility.yul\":3483:3517   */\n  0x4469726563746f7279206164647265737320646f6573206e6f7420696d706c65\n    /* \"#utility.yul\":3479:3480   */\n  0x00\n    /* \"#utility.yul\":3471:3477   */\n  dup3\n    /* \"#utility.yul\":3467:3481   */\n  add\n    /* \"#utility.yul\":3460:3518   */\n  mstore\n    /* \"#utility.yul\":3552:3566   */\n  0x6d656e74206f776e657228290000000000000000000000000000000000000000\n    /* \"#utility.yul\":3547:3549   */\n  0x20\n    /* \"#utility.yul\":3539:3545   */\n  dup3\n    /* \"#utility.yul\":3535:3550   */\n  add\n    /* \"#utility.yul\":3528:3567   */\n  mstore\n    /* \"#utility.yul\":3343:3574   */\n  pop\n  jump\t// out\n    /* \"#utility.yul\":3580:3946   */\ntag_40:\n    /* \"#utility.yul\":3722:3725   */\n  0x00\n    /* \"#utility.yul\":3743:3810   */\n  tag_72\n    /* \"#utility.yul\":3807:3809   */\n  0x2c\n    /* \"#utility.yul\":3802:3805   */\n  dup4\n    /* \"#utility.yul\":3743:3810   */\n  tag_34\n  jump\t// in\ntag_72:\n    /* \"#utility.yul\":3736:3810   */\n  swap2\n  pop\n    /* \"#utility.yul\":3819:3912   */\n  tag_73\n    /* \"#utility.yul\":3908:3911   */\n  dup3\n    /* \"#utility.yul\":3819:3912   */\n  tag_39\n  jump\t// in\ntag_73:\n    /* \"#utility.yul\":3937:3939   */\n  0x40\n    /* \"#utility.yul\":3932:3935   */\n  dup3\n    /* \"#utility.yul\":3928:3940   */\n  add\n    /* \"#utility.yul\":3921:3940   */\n  swap1\n  pop\n    /* \"#utility.yul\":3580:3946   */\n  swap2\n  swap1\n  pop\n  jump\t// out\n    /* \"#utility.yul\":3952:4371   */\ntag_25:\n    /* \"#utility.yul\":4118:4122   */\n  0x00\n    /* \"#utility.yul\":4156:4158   */\n  0x20\n    /* \"#utility.yul\":4145:4154   */\n  dup3\n    /* \"#utility.yul\":4141:4159   */\n  add\n    /* \"#utility.yul\":4133:4159   */\n  swap1\n  pop\n    /* \"#utility.yul\":4205:4214   */\n  dup2\n    /* \"#utility.yul\":4199:4203   */\n  dup2\n    /* \"#utility.yul\":4195:4215   */\n  sub\n    /* \"#utility.yul\":4191:4192   */\n  0x00\n    /* \"#utility.yul\":4180:4189   */\n  dup4\n    /* \"#utility.yul\":4176:4193   */\n  add\n    /* \"#utility.yul\":4169:4216   */\n  mstore\n    /* \"#utility.yul\":4233:4364   */\n  tag_75\n    /* \"#utility.yul\":4359:4363   */\n  dup2\n    /* \"#utility.yul\":4233:4364   */\n  tag_40\n  jump\t// in\ntag_75:\n    /* \"#utility.yul\":4225:4364   */\n  swap1\n  pop\n    /* \"#utility.yul\":3952:4371   */\n  swap2\n  swap1\n  pop\n  jump\t// out\n    /* \"hopium/etf/main/index-factory.sol\":4377:6109  contract IndexFactory is ImDirectory, ValidationHelpers, ImEtfFactory, ImActive {... */\ntag_10:\n  dataSize(sub_0)\n  dup1\n  dataOffset(sub_0)\n  0x00\n  codecopy\n  0x00\n  return\nstop\n\nsub_0: assembly {\n        /* \"hopium/etf/main/index-factory.sol\":4377:6109  contract IndexFactory is ImDirectory, ValidationHelpers, ImEtfFactory, ImActive {... */\n      mstore(0x40, 0x80)\n      callvalue\n      dup1\n      iszero\n      tag_1\n      jumpi\n      revert(0x00, 0x00)\n    tag_1:\n      pop\n      jumpi(tag_2, lt(calldatasize, 0x04))\n      shr(0xe0, calldataload(0x00))\n      dup1\n      0x658a847a\n      gt\n      tag_13\n      jumpi\n      dup1\n      0x658a847a\n      eq\n      tag_8\n      jumpi\n      dup1\n      0x8da5cb5b\n      eq\n      tag_9\n      jumpi\n      dup1\n      0xab73314d\n      eq\n      tag_10\n      jumpi\n      dup1\n      0xacec338a\n      eq\n      tag_11\n      jumpi\n      dup1\n      0xba4c7be1\n      eq\n      tag_12\n      jumpi\n      jump(tag_2)\n    tag_13:\n      dup1\n      0x22f3e2d4\n      eq\n      tag_3\n      jumpi\n      dup1\n      0x27262618\n      eq\n      tag_4\n      jumpi\n      dup1\n      0x2ff910ce\n      eq\n      tag_5\n      jumpi\n      dup1\n      0x428d9a93\n      eq\n      tag_6\n      jumpi\n      dup1\n      0x549e122b\n      eq\n      tag_7\n      jumpi\n    tag_2:\n      revert(0x00, 0x00)\n        /* \"hopium/common/interface/imActive.sol\":156:183  bool public isActive = true */\n    tag_3:\n      tag_14\n      tag_15\n      jump\t// in\n    tag_14:\n      mload(0x40)\n      tag_16\n      swap2\n      swap1\n      tag_17\n      jump\t// in\n    tag_16:\n      mload(0x40)\n      dup1\n      swap2\n      sub\n      swap1\n      return\n        /* \"hopium/common/interface/imDirectory.sol\":1272:1408  function fetchFromDirectory(string memory _key) public view returns (address) {... */\n    tag_4:\n      tag_18\n      0x04\n      dup1\n      calldatasize\n      sub\n      dup2\n      add\n      swap1\n      tag_19\n      swap2\n      swap1\n      tag_20\n      jump\t// in\n    tag_19:\n      tag_21\n      jump\t// in\n    tag_18:\n      mload(0x40)\n      tag_22\n      swap2\n      swap1\n      tag_23\n      jump\t// in\n    tag_22:\n      mload(0x40)\n      dup1\n      swap2\n      sub\n      swap1\n      return\n        /* \"hopium/etf/main/index-factory.sol\":5488:5589  function totalIndexes() external view returns (uint256) {... */\n    tag_5:\n      tag_24\n      tag_25\n      jump\t// in\n    tag_24:\n      mload(0x40)\n      tag_26\n      swap2\n      swap1\n      tag_27\n      jump\t// in\n    tag_26:\n      mload(0x40)\n      dup1\n      swap2\n      sub\n      swap1\n      return\n        /* \"hopium/etf/main/index-factory.sol\":4687:5459  function createIndex(Index calldata index) public onlyEtfFactory onlyActive returns (uint256) {... */\n    tag_6:\n      tag_28\n      0x04\n      dup1\n      calldatasize\n      sub\n      dup2\n      add\n      swap1\n      tag_29\n      swap2\n      swap1\n      tag_30\n      jump\t// in\n    tag_29:\n      tag_31\n      jump\t// in\n    tag_28:\n      mload(0x40)\n      tag_32\n      swap2\n      swap1\n      tag_27\n      jump\t// in\n    tag_32:\n      mload(0x40)\n      dup1\n      swap2\n      sub\n      swap1\n      return\n        /* \"hopium/etf/main/index-factory.sol\":5595:5809  function getIndexById(uint256 indexId) external view returns (Index memory) {... */\n    tag_7:\n      tag_33\n      0x04\n      dup1\n      calldatasize\n      sub\n      dup2\n      add\n      swap1\n      tag_34\n      swap2\n      swap1\n      tag_35\n      jump\t// in\n    tag_34:\n      tag_36\n      jump\t// in\n    tag_33:\n      mload(0x40)\n      tag_37\n      swap2\n      swap1\n      tag_38\n      jump\t// in\n    tag_37:\n      mload(0x40)\n      dup1\n      swap2\n      sub\n      swap1\n      return\n        /* \"hopium/common/interface/imDirectory.sol\":336:363  IDirectory public Directory */\n    tag_8:\n      tag_39\n      tag_40\n      jump\t// in\n    tag_39:\n      mload(0x40)\n      tag_41\n      swap2\n      swap1\n      tag_42\n      jump\t// in\n    tag_41:\n      mload(0x40)\n      dup1\n      swap2\n      sub\n      swap1\n      return\n        /* \"hopium/common/interface/imDirectory.sol\":1178:1266  function owner() public view returns (address) {... */\n    tag_9:\n      tag_43\n      tag_44\n      jump\t// in\n    tag_43:\n      mload(0x40)\n      tag_45\n      swap2\n      swap1\n      tag_23\n      jump\t// in\n    tag_45:\n      mload(0x40)\n      dup1\n      swap2\n      sub\n      swap1\n      return\n        /* \"hopium/etf/main/index-factory.sol\":5815:6107  function getIndexByTicker(string calldata ticker) external view returns (Index memory) {... */\n    tag_10:\n      tag_46\n      0x04\n      dup1\n      calldatasize\n      sub\n      dup2\n      add\n      swap1\n      tag_47\n      swap2\n      swap1\n      tag_48\n      jump\t// in\n    tag_47:\n      tag_49\n      jump\t// in\n    tag_46:\n      mload(0x40)\n      tag_50\n      swap2\n      swap1\n      tag_38\n      jump\t// in\n    tag_50:\n      mload(0x40)\n      dup1\n      swap2\n      sub\n      swap1\n      return\n        /* \"hopium/common/interface/imActive.sol\":289:374  function setActive(bool _active) public onlyOwner {... */\n    tag_11:\n      tag_51\n      0x04\n      dup1\n      calldatasize\n      sub\n      dup2\n      add\n      swap1\n      tag_52\n      swap2\n      swap1\n      tag_53\n      jump\t// in\n    tag_52:\n      tag_54\n      jump\t// in\n    tag_51:\n      stop\n        /* \"hopium/common/interface/imDirectory.sol\":470:583  function changeDirectoryAddress(address _directory) external onlyOwner {... */\n    tag_12:\n      tag_55\n      0x04\n      dup1\n      calldatasize\n      sub\n      dup2\n      add\n      swap1\n      tag_56\n      swap2\n      swap1\n      tag_57\n      jump\t// in\n    tag_56:\n      tag_58\n      jump\t// in\n    tag_55:\n      stop\n        /* \"hopium/common/interface/imActive.sol\":156:183  bool public isActive = true */\n    tag_15:\n      0x03\n      0x14\n      swap1\n      sload\n      swap1\n      0x0100\n      exp\n      swap1\n      div\n      0xff\n      and\n      dup2\n      jump\t// out\n        /* \"hopium/common/interface/imDirectory.sol\":1272:1408  function fetchFromDirectory(string memory _key) public view returns (address) {... */\n    tag_21:\n        /* \"hopium/common/interface/imDirectory.sol\":1341:1348  address */\n      0x00\n        /* \"hopium/common/interface/imDirectory.sol\":1367:1376  Directory */\n      0x03\n      0x00\n      swap1\n      sload\n      swap1\n      0x0100\n      exp\n      swap1\n      div\n      0xffffffffffffffffffffffffffffffffffffffff\n      and\n        /* \"hopium/common/interface/imDirectory.sol\":1367:1395  Directory.fetchFromDirectory */\n      0xffffffffffffffffffffffffffffffffffffffff\n      and\n      0x27262618\n        /* \"hopium/common/interface/imDirectory.sol\":1396:1400  _key */\n      dup4\n        /* \"hopium/common/interface/imDirectory.sol\":1367:1401  Directory.fetchFromDirectory(_key) */\n      mload(0x40)\n      dup3\n      0xffffffff\n      and\n      0xe0\n      shl\n      dup2\n      mstore\n      0x04\n      add\n      tag_60\n      swap2\n      swap1\n      tag_61\n      jump\t// in\n    tag_60:\n      0x20\n      mload(0x40)\n      dup1\n      dup4\n      sub\n      dup2\n      dup7\n      gas\n      staticcall\n      iszero\n      dup1\n      iszero\n      tag_63\n      jumpi\n      returndatacopy(0x00, 0x00, returndatasize)\n      revert(0x00, returndatasize)\n    tag_63:\n      pop\n      pop\n      pop\n      pop\n      mload(0x40)\n      returndatasize\n      not(0x1f)\n      0x1f\n      dup3\n      add\n      and\n      dup3\n      add\n      dup1\n      0x40\n      mstore\n      pop\n      dup2\n      add\n      swap1\n      tag_64\n      swap2\n      swap1\n      tag_65\n      jump\t// in\n    tag_64:\n        /* \"hopium/common/interface/imDirectory.sol\":1360:1401  return Directory.fetchFromDirectory(_key) */\n      swap1\n      pop\n        /* \"hopium/common/interface/imDirectory.sol\":1272:1408  function fetchFromDirectory(string memory _key) public view returns (address) {... */\n      swap2\n      swap1\n      pop\n      jump\t// out\n        /* \"hopium/etf/main/index-factory.sol\":5488:5589  function totalIndexes() external view returns (uint256) {... */\n    tag_25:\n        /* \"hopium/etf/main/index-factory.sol\":5535:5542  uint256 */\n      0x00\n        /* \"hopium/etf/main/index-factory.sol\":5561:5575  createdIndexes */\n      0x00\n        /* \"hopium/etf/main/index-factory.sol\":5561:5582  createdIndexes.length */\n      dup1\n      sload\n      swap1\n      pop\n        /* \"hopium/etf/main/index-factory.sol\":5554:5582  return createdIndexes.length */\n      swap1\n      pop\n        /* \"hopium/etf/main/index-factory.sol\":5488:5589  function totalIndexes() external view returns (uint256) {... */\n      swap1\n      jump\t// out\n        /* \"hopium/etf/main/index-factory.sol\":4687:5459  function createIndex(Index calldata index) public onlyEtfFactory onlyActive returns (uint256) {... */\n    tag_31:\n        /* \"hopium/etf/main/index-factory.sol\":4772:4779  uint256 */\n      0x00\n        /* \"hopium/etf/interface/imEtfFactory.sol\":817:850  fetchFromDirectory(\"etf-factory\") */\n      tag_68\n      mload(0x40)\n      dup1\n      0x40\n      add\n      0x40\n      mstore\n      dup1\n      0x0b\n      dup2\n      mstore\n      0x20\n      add\n      0x6574662d666163746f7279000000000000000000000000000000000000000000\n      dup2\n      mstore\n      pop\n        /* \"hopium/etf/interface/imEtfFactory.sol\":817:835  fetchFromDirectory */\n      tag_21\n        /* \"hopium/etf/interface/imEtfFactory.sol\":817:850  fetchFromDirectory(\"etf-factory\") */\n      jump\t// in\n    tag_68:\n        /* \"hopium/etf/interface/imEtfFactory.sol\":803:850  msg.sender == fetchFromDirectory(\"etf-factory\") */\n      0xffffffffffffffffffffffffffffffffffffffff\n      and\n        /* \"hopium/etf/interface/imEtfFactory.sol\":803:813  msg.sender */\n      caller\n        /* \"hopium/etf/interface/imEtfFactory.sol\":803:850  msg.sender == fetchFromDirectory(\"etf-factory\") */\n      0xffffffffffffffffffffffffffffffffffffffff\n      and\n      eq\n        /* \"hopium/etf/interface/imEtfFactory.sol\":795:884  require(msg.sender == fetchFromDirectory(\"etf-factory\"), \"msg.sender is not etf factory\") */\n      tag_69\n      jumpi\n      mload(0x40)\n      0x08c379a000000000000000000000000000000000000000000000000000000000\n      dup2\n      mstore\n      0x04\n      add\n      tag_70\n      swap1\n      tag_71\n      jump\t// in\n    tag_70:\n      mload(0x40)\n      dup1\n      swap2\n      sub\n      swap1\n      revert\n    tag_69:\n        /* \"hopium/common/interface/imActive.sol\":230:238  isActive */\n      0x03\n      0x14\n      swap1\n      sload\n      swap1\n      0x0100\n      exp\n      swap1\n      div\n      0xff\n      and\n        /* \"hopium/common/interface/imActive.sol\":222:265  require(isActive, \"Contract is not active\") */\n      tag_73\n      jumpi\n      mload(0x40)\n      0x08c379a000000000000000000000000000000000000000000000000000000000\n      dup2\n      mstore\n      0x04\n      add\n      tag_74\n      swap1\n      tag_75\n      jump\t// in\n    tag_74:\n      mload(0x40)\n      dup1\n      swap2\n      sub\n      swap1\n      revert\n    tag_73:\n        /* \"hopium/etf/main/index-factory.sol\":4828:4841  bytes32 tHash */\n      0x00\n        /* \"hopium/etf/main/index-factory.sol\":4844:4873  _validateTicker(index.ticker) */\n      tag_77\n        /* \"hopium/etf/main/index-factory.sol\":4860:4865  index */\n      dup4\n        /* \"hopium/etf/main/index-factory.sol\":4860:4872  index.ticker */\n      dup1\n      0x20\n      add\n      swap1\n      tag_78\n      swap2\n      swap1\n      tag_79\n      jump\t// in\n    tag_78:\n        /* \"hopium/etf/main/index-factory.sol\":4844:4859  _validateTicker */\n      tag_80\n        /* \"hopium/etf/main/index-factory.sol\":4844:4873  _validateTicker(index.ticker) */\n      jump\t// in\n    tag_77:\n        /* \"hopium/etf/main/index-factory.sol\":4828:4873  bytes32 tHash = _validateTicker(index.ticker) */\n      swap1\n      pop\n        /* \"hopium/etf/main/index-factory.sol\":4946:4969  Holding[] memory sorted */\n      0x00\n        /* \"hopium/etf/main/index-factory.sol\":4972:5004  _validateAndSort(index.holdings) */\n      tag_81\n        /* \"hopium/etf/main/index-factory.sol\":4989:4994  index */\n      dup5\n        /* \"hopium/etf/main/index-factory.sol\":4989:5003  index.holdings */\n      dup1\n      0x40\n      add\n      swap1\n      tag_82\n      swap2\n      swap1\n      tag_83\n      jump\t// in\n    tag_82:\n        /* \"hopium/etf/main/index-factory.sol\":4972:4988  _validateAndSort */\n      tag_84\n        /* \"hopium/etf/main/index-factory.sol\":4972:5004  _validateAndSort(index.holdings) */\n      jump\t// in\n    tag_81:\n        /* \"hopium/etf/main/index-factory.sol\":4946:5004  Holding[] memory sorted = _validateAndSort(index.holdings) */\n      swap1\n      pop\n        /* \"hopium/etf/main/index-factory.sol\":5051:5064  bytes32 iHash */\n      0x00\n        /* \"hopium/etf/main/index-factory.sol\":5067:5099  _validateIndexHashUnique(sorted) */\n      tag_85\n        /* \"hopium/etf/main/index-factory.sol\":5092:5098  sorted */\n      dup3\n        /* \"hopium/etf/main/index-factory.sol\":5067:5091  _validateIndexHashUnique */\n      tag_86\n        /* \"hopium/etf/main/index-factory.sol\":5067:5099  _validateIndexHashUnique(sorted) */\n      jump\t// in\n    tag_85:\n        /* \"hopium/etf/main/index-factory.sol\":5051:5099  bytes32 iHash = _validateIndexHashUnique(sorted) */\n      swap1\n      pop\n        /* \"hopium/etf/main/index-factory.sol\":5175:5193  uint256 newIndexId */\n      0x00\n        /* \"hopium/etf/main/index-factory.sol\":5196:5227  _idxToId(createdIndexes.length) */\n      tag_87\n        /* \"hopium/etf/main/index-factory.sol\":5205:5219  createdIndexes */\n      0x00\n        /* \"hopium/etf/main/index-factory.sol\":5205:5226  createdIndexes.length */\n      dup1\n      sload\n      swap1\n      pop\n        /* \"hopium/etf/main/index-factory.sol\":5196:5204  _idxToId */\n      tag_88\n        /* \"hopium/etf/main/index-factory.sol\":5196:5227  _idxToId(createdIndexes.length) */\n      jump\t// in\n    tag_87:\n        /* \"hopium/etf/main/index-factory.sol\":5175:5227  uint256 newIndexId = _idxToId(createdIndexes.length) */\n      swap1\n      pop\n        /* \"hopium/etf/main/index-factory.sol\":5237:5251  createdIndexes */\n      0x00\n        /* \"hopium/etf/main/index-factory.sol\":5257:5262  index */\n      dup7\n        /* \"hopium/etf/main/index-factory.sol\":5237:5263  createdIndexes.push(index) */\n      swap1\n      dup1\n      0x01\n      dup2\n      sload\n      add\n      dup1\n      dup3\n      sstore\n      dup1\n      swap2\n      pop\n      pop\n      0x01\n      swap1\n      sub\n      swap1\n      0x00\n      mstore\n      keccak256(0x00, 0x20)\n      swap1\n      0x03\n      mul\n      add\n      0x00\n      swap1\n      swap2\n      swap1\n      swap2\n      swap1\n      swap2\n      pop\n      dup2\n      dup2\n      tag_90\n      swap2\n      swap1\n      tag_91\n      jump\t// in\n    tag_90:\n      pop\n      pop\n        /* \"hopium/etf/main/index-factory.sol\":5332:5342  newIndexId */\n      dup1\n        /* \"hopium/etf/main/index-factory.sol\":5303:5322  indexTickerHashToId */\n      0x01\n        /* \"hopium/etf/main/index-factory.sol\":5303:5329  indexTickerHashToId[tHash] */\n      0x00\n        /* \"hopium/etf/main/index-factory.sol\":5323:5328  tHash */\n      dup7\n        /* \"hopium/etf/main/index-factory.sol\":5303:5329  indexTickerHashToId[tHash] */\n      dup2\n      mstore\n      0x20\n      add\n      swap1\n      dup2\n      mstore\n      0x20\n      add\n      0x00\n      keccak256\n        /* \"hopium/etf/main/index-factory.sol\":5303:5342  indexTickerHashToId[tHash] = newIndexId */\n      dup2\n      swap1\n      sstore\n      pop\n        /* \"hopium/etf/main/index-factory.sol\":5375:5385  newIndexId */\n      dup1\n        /* \"hopium/etf/main/index-factory.sol\":5352:5365  indexHashToId */\n      0x02\n        /* \"hopium/etf/main/index-factory.sol\":5352:5372  indexHashToId[iHash] */\n      0x00\n        /* \"hopium/etf/main/index-factory.sol\":5366:5371  iHash */\n      dup5\n        /* \"hopium/etf/main/index-factory.sol\":5352:5372  indexHashToId[iHash] */\n      dup2\n      mstore\n      0x20\n      add\n      swap1\n      dup2\n      mstore\n      0x20\n      add\n      0x00\n      keccak256\n        /* \"hopium/etf/main/index-factory.sol\":5352:5385  indexHashToId[iHash] = newIndexId */\n      dup2\n      swap1\n      sstore\n      pop\n        /* \"hopium/etf/main/index-factory.sol\":5414:5424  newIndexId */\n      dup1\n        /* \"hopium/etf/main/index-factory.sol\":5401:5425  IndexCreated(newIndexId) */\n      0xec8be6228fe1ea57f9377adc29cda27fec19a8470821cbe6c2022b2528062aa9\n      mload(0x40)\n      mload(0x40)\n      dup1\n      swap2\n      sub\n      swap1\n      log2\n        /* \"hopium/etf/main/index-factory.sol\":5442:5452  newIndexId */\n      dup1\n        /* \"hopium/etf/main/index-factory.sol\":5435:5452  return newIndexId */\n      swap5\n      pop\n      pop\n      pop\n      pop\n      pop\n        /* \"hopium/etf/main/index-factory.sol\":4687:5459  function createIndex(Index calldata index) public onlyEtfFactory onlyActive returns (uint256) {... */\n      swap2\n      swap1\n      pop\n      jump\t// out\n        /* \"hopium/etf/main/index-factory.sol\":5595:5809  function getIndexById(uint256 indexId) external view returns (Index memory) {... */\n    tag_36:\n        /* \"hopium/etf/main/index-factory.sol\":5657:5669  Index memory */\n      tag_92\n      tag_93\n      jump\t// in\n    tag_92:\n        /* \"hopium/etf/main/index-factory.sol\":5696:5697  0 */\n      0x00\n        /* \"hopium/etf/main/index-factory.sol\":5685:5692  indexId */\n      dup3\n        /* \"hopium/etf/main/index-factory.sol\":5685:5697  indexId == 0 */\n      eq\n        /* \"hopium/etf/main/index-factory.sol\":5685:5732  indexId == 0 || indexId > createdIndexes.length */\n      dup1\n      tag_95\n      jumpi\n      pop\n        /* \"hopium/etf/main/index-factory.sol\":5711:5725  createdIndexes */\n      0x00\n        /* \"hopium/etf/main/index-factory.sol\":5711:5732  createdIndexes.length */\n      dup1\n      sload\n      swap1\n      pop\n        /* \"hopium/etf/main/index-factory.sol\":5701:5708  indexId */\n      dup3\n        /* \"hopium/etf/main/index-factory.sol\":5701:5732  indexId > createdIndexes.length */\n      gt\n        /* \"hopium/etf/main/index-factory.sol\":5685:5732  indexId == 0 || indexId > createdIndexes.length */\n    tag_95:\n        /* \"hopium/etf/main/index-factory.sol\":5681:5752  if (indexId == 0 || indexId > createdIndexes.length) revert InvalidId() */\n      iszero\n      tag_96\n      jumpi\n        /* \"hopium/etf/main/index-factory.sol\":5741:5752  InvalidId() */\n      mload(0x40)\n      0xdfa1a40800000000000000000000000000000000000000000000000000000000\n      dup2\n      mstore\n      0x04\n      add\n      mload(0x40)\n      dup1\n      swap2\n      sub\n      swap1\n      revert\n        /* \"hopium/etf/main/index-factory.sol\":5681:5752  if (indexId == 0 || indexId > createdIndexes.length) revert InvalidId() */\n    tag_96:\n        /* \"hopium/etf/main/index-factory.sol\":5769:5783  createdIndexes */\n      0x00\n        /* \"hopium/etf/main/index-factory.sol\":5784:5801  _idToIdx(indexId) */\n      tag_97\n        /* \"hopium/etf/main/index-factory.sol\":5793:5800  indexId */\n      dup4\n        /* \"hopium/etf/main/index-factory.sol\":5784:5792  _idToIdx */\n      tag_98\n        /* \"hopium/etf/main/index-factory.sol\":5784:5801  _idToIdx(indexId) */\n      jump\t// in\n    tag_97:\n        /* \"hopium/etf/main/index-factory.sol\":5769:5802  createdIndexes[_idToIdx(indexId)] */\n      dup2\n      sload\n      dup2\n      lt\n      tag_99\n      jumpi\n      tag_100\n      tag_101\n      jump\t// in\n    tag_100:\n    tag_99:\n      swap1\n      0x00\n      mstore\n      keccak256(0x00, 0x20)\n      swap1\n      0x03\n      mul\n      add\n        /* \"hopium/etf/main/index-factory.sol\":5762:5802  return createdIndexes[_idToIdx(indexId)] */\n      mload(0x40)\n      dup1\n      0x60\n      add\n      0x40\n      mstore\n      swap1\n      dup2\n      0x00\n      dup3\n      add\n      dup1\n      sload\n      tag_103\n      swap1\n      tag_104\n      jump\t// in\n    tag_103:\n      dup1\n      0x1f\n      add\n      0x20\n      dup1\n      swap2\n      div\n      mul\n      0x20\n      add\n      mload(0x40)\n      swap1\n      dup2\n      add\n      0x40\n      mstore\n      dup1\n      swap3\n      swap2\n      swap1\n      dup2\n      dup2\n      mstore\n      0x20\n      add\n      dup3\n      dup1\n      sload\n      tag_105\n      swap1\n      tag_104\n      jump\t// in\n    tag_105:\n      dup1\n      iszero\n      tag_106\n      jumpi\n      dup1\n      0x1f\n      lt\n      tag_107\n      jumpi\n      0x0100\n      dup1\n      dup4\n      sload\n      div\n      mul\n      dup4\n      mstore\n      swap2\n      0x20\n      add\n      swap2\n      jump(tag_106)\n    tag_107:\n      dup3\n      add\n      swap2\n      swap1\n      0x00\n      mstore\n      keccak256(0x00, 0x20)\n      swap1\n    tag_108:\n      dup2\n      sload\n      dup2\n      mstore\n      swap1\n      0x01\n      add\n      swap1\n      0x20\n      add\n      dup1\n      dup4\n      gt\n      tag_108\n      jumpi\n      dup3\n      swap1\n      sub\n      0x1f\n      and\n      dup3\n      add\n      swap2\n    tag_106:\n      pop\n      pop\n      pop\n      pop\n      pop\n      dup2\n      mstore\n      0x20\n      add\n      0x01\n      dup3\n      add\n      dup1\n      sload\n      tag_109\n      swap1\n      tag_104\n      jump\t// in\n    tag_109:\n      dup1\n      0x1f\n      add\n      0x20\n      dup1\n      swap2\n      div\n      mul\n      0x20\n      add\n      mload(0x40)\n      swap1\n      dup2\n      add\n      0x40\n      mstore\n      dup1\n      swap3\n      swap2\n      swap1\n      dup2\n      dup2\n      mstore\n      0x20\n      add\n      dup3\n      dup1\n      sload\n      tag_110\n      swap1\n      tag_104\n      jump\t// in\n    tag_110:\n      dup1\n      iszero\n      tag_111\n      jumpi\n      dup1\n      0x1f\n      lt\n      tag_112\n      jumpi\n      0x0100\n      dup1\n      dup4\n      sload\n      div\n      mul\n      dup4\n      mstore\n      swap2\n      0x20\n      add\n      swap2\n      jump(tag_111)\n    tag_112:\n      dup3\n      add\n      swap2\n      swap1\n      0x00\n      mstore\n      keccak256(0x00, 0x20)\n      swap1\n    tag_113:\n      dup2\n      sload\n      dup2\n      mstore\n      swap1\n      0x01\n      add\n      swap1\n      0x20\n      add\n      dup1\n      dup4\n      gt\n      tag_113\n      jumpi\n      dup3\n      swap1\n      sub\n      0x1f\n      and\n      dup3\n      add\n      swap2\n    tag_111:\n      pop\n      pop\n      pop\n      pop\n      pop\n      dup2\n      mstore\n      0x20\n      add\n      0x02\n      dup3\n      add\n      dup1\n      sload\n      dup1\n      0x20\n      mul\n      0x20\n      add\n      mload(0x40)\n      swap1\n      dup2\n      add\n      0x40\n      mstore\n      dup1\n      swap3\n      swap2\n      swap1\n      dup2\n      dup2\n      mstore\n      0x20\n      add\n      0x00\n      swap1\n    tag_114:\n      dup3\n      dup3\n      lt\n      iszero\n      tag_115\n      jumpi\n      dup4\n      dup3\n      swap1\n      0x00\n      mstore\n      keccak256(0x00, 0x20)\n      add\n      mload(0x40)\n      dup1\n      0x40\n      add\n      0x40\n      mstore\n      swap1\n      dup2\n      0x00\n      dup3\n      add\n      0x00\n      swap1\n      sload\n      swap1\n      0x0100\n      exp\n      swap1\n      div\n      0xffffffffffffffffffffffffffffffffffffffff\n      and\n      0xffffffffffffffffffffffffffffffffffffffff\n      and\n      0xffffffffffffffffffffffffffffffffffffffff\n      and\n      dup2\n      mstore\n      0x20\n      add\n      0x00\n      dup3\n      add\n      0x14\n      swap1\n      sload\n      swap1\n      0x0100\n      exp\n      swap1\n      div\n      0xffff\n      and\n      0xffff\n      and\n      0xffff\n      and\n      dup2\n      mstore\n      pop\n      pop\n      dup2\n      mstore\n      0x20\n      add\n      swap1\n      0x01\n      add\n      swap1\n      jump(tag_114)\n    tag_115:\n      pop\n      pop\n      pop\n      pop\n      dup2\n      mstore\n      pop\n      pop\n      swap1\n      pop\n        /* \"hopium/etf/main/index-factory.sol\":5595:5809  function getIndexById(uint256 indexId) external view returns (Index memory) {... */\n      swap2\n      swap1\n      pop\n      jump\t// out\n        /* \"hopium/common/interface/imDirectory.sol\":336:363  IDirectory public Directory */\n    tag_40:\n      0x03\n      0x00\n      swap1\n      sload\n      swap1\n      0x0100\n      exp\n      swap1\n      div\n      0xffffffffffffffffffffffffffffffffffffffff\n      and\n      dup2\n      jump\t// out\n        /* \"hopium/common/interface/imDirectory.sol\":1178:1266  function owner() public view returns (address) {... */\n    tag_44:\n        /* \"hopium/common/interface/imDirectory.sol\":1216:1223  address */\n      0x00\n        /* \"hopium/common/interface/imDirectory.sol\":1242:1251  Directory */\n      0x03\n      0x00\n      swap1\n      sload\n      swap1\n      0x0100\n      exp\n      swap1\n      div\n      0xffffffffffffffffffffffffffffffffffffffff\n      and\n        /* \"hopium/common/interface/imDirectory.sol\":1242:1257  Directory.owner */\n      0xffffffffffffffffffffffffffffffffffffffff\n      and\n      0x8da5cb5b\n        /* \"hopium/common/interface/imDirectory.sol\":1242:1259  Directory.owner() */\n      mload(0x40)\n      dup2\n      0xffffffff\n      and\n      0xe0\n      shl\n      dup2\n      mstore\n      0x04\n      add\n      0x20\n      mload(0x40)\n      dup1\n      dup4\n      sub\n      dup2\n      dup7\n      gas\n      staticcall\n      iszero\n      dup1\n      iszero\n      tag_119\n      jumpi\n      returndatacopy(0x00, 0x00, returndatasize)\n      revert(0x00, returndatasize)\n    tag_119:\n      pop\n      pop\n      pop\n      pop\n      mload(0x40)\n      returndatasize\n      not(0x1f)\n      0x1f\n      dup3\n      add\n      and\n      dup3\n      add\n      dup1\n      0x40\n      mstore\n      pop\n      dup2\n      add\n      swap1\n      tag_120\n      swap2\n      swap1\n      tag_65\n      jump\t// in\n    tag_120:\n        /* \"hopium/common/interface/imDirectory.sol\":1235:1259  return Directory.owner() */\n      swap1\n      pop\n        /* \"hopium/common/interface/imDirectory.sol\":1178:1266  function owner() public view returns (address) {... */\n      swap1\n      jump\t// out\n        /* \"hopium/etf/main/index-factory.sol\":5815:6107  function getIndexByTicker(string calldata ticker) external view returns (Index memory) {... */\n    tag_49:\n        /* \"hopium/etf/main/index-factory.sol\":5888:5900  Index memory */\n      tag_121\n      tag_93\n      jump\t// in\n    tag_121:\n        /* \"hopium/etf/main/index-factory.sol\":5912:5925  bytes32 tHash */\n      0x00\n        /* \"hopium/etf/main/index-factory.sol\":5928:5946  _tickerKey(ticker) */\n      tag_123\n        /* \"hopium/etf/main/index-factory.sol\":5939:5945  ticker */\n      dup5\n      dup5\n        /* \"hopium/etf/main/index-factory.sol\":5928:5938  _tickerKey */\n      tag_124\n        /* \"hopium/etf/main/index-factory.sol\":5928:5946  _tickerKey(ticker) */\n      jump\t// in\n    tag_123:\n        /* \"hopium/etf/main/index-factory.sol\":5912:5946  bytes32 tHash = _tickerKey(ticker) */\n      swap1\n      pop\n        /* \"hopium/etf/main/index-factory.sol\":5956:5971  uint256 indexId */\n      0x00\n        /* \"hopium/etf/main/index-factory.sol\":5974:5993  indexTickerHashToId */\n      0x01\n        /* \"hopium/etf/main/index-factory.sol\":5974:6000  indexTickerHashToId[tHash] */\n      0x00\n        /* \"hopium/etf/main/index-factory.sol\":5994:5999  tHash */\n      dup4\n        /* \"hopium/etf/main/index-factory.sol\":5974:6000  indexTickerHashToId[tHash] */\n      dup2\n      mstore\n      0x20\n      add\n      swap1\n      dup2\n      mstore\n      0x20\n      add\n      0x00\n      keccak256\n      sload\n        /* \"hopium/etf/main/index-factory.sol\":5956:6000  uint256 indexId = indexTickerHashToId[tHash] */\n      swap1\n      pop\n        /* \"hopium/etf/main/index-factory.sol\":6025:6026  0 */\n      0x00\n        /* \"hopium/etf/main/index-factory.sol\":6014:6021  indexId */\n      dup2\n        /* \"hopium/etf/main/index-factory.sol\":6014:6026  indexId == 0 */\n      sub\n        /* \"hopium/etf/main/index-factory.sol\":6010:6050  if (indexId == 0) revert UnknownTicker() */\n      tag_125\n      jumpi\n        /* \"hopium/etf/main/index-factory.sol\":6035:6050  UnknownTicker() */\n      mload(0x40)\n      0xbfb6fd0d00000000000000000000000000000000000000000000000000000000\n      dup2\n      mstore\n      0x04\n      add\n      mload(0x40)\n      dup1\n      swap2\n      sub\n      swap1\n      revert\n        /* \"hopium/etf/main/index-factory.sol\":6010:6050  if (indexId == 0) revert UnknownTicker() */\n    tag_125:\n        /* \"hopium/etf/main/index-factory.sol\":6067:6081  createdIndexes */\n      0x00\n        /* \"hopium/etf/main/index-factory.sol\":6082:6099  _idToIdx(indexId) */\n      tag_126\n        /* \"hopium/etf/main/index-factory.sol\":6091:6098  indexId */\n      dup3\n        /* \"hopium/etf/main/index-factory.sol\":6082:6090  _idToIdx */\n      tag_98\n        /* \"hopium/etf/main/index-factory.sol\":6082:6099  _idToIdx(indexId) */\n      jump\t// in\n    tag_126:\n        /* \"hopium/etf/main/index-factory.sol\":6067:6100  createdIndexes[_idToIdx(indexId)] */\n      dup2\n      sload\n      dup2\n      lt\n      tag_127\n      jumpi\n      tag_128\n      tag_101\n      jump\t// in\n    tag_128:\n    tag_127:\n      swap1\n      0x00\n      mstore\n      keccak256(0x00, 0x20)\n      swap1\n      0x03\n      mul\n      add\n        /* \"hopium/etf/main/index-factory.sol\":6060:6100  return createdIndexes[_idToIdx(indexId)] */\n      mload(0x40)\n      dup1\n      0x60\n      add\n      0x40\n      mstore\n      swap1\n      dup2\n      0x00\n      dup3\n      add\n      dup1\n      sload\n      tag_130\n      swap1\n      tag_104\n      jump\t// in\n    tag_130:\n      dup1\n      0x1f\n      add\n      0x20\n      dup1\n      swap2\n      div\n      mul\n      0x20\n      add\n      mload(0x40)\n      swap1\n      dup2\n      add\n      0x40\n      mstore\n      dup1\n      swap3\n      swap2\n      swap1\n      dup2\n      dup2\n      mstore\n      0x20\n      add\n      dup3\n      dup1\n      sload\n      tag_131\n      swap1\n      tag_104\n      jump\t// in\n    tag_131:\n      dup1\n      iszero\n      tag_132\n      jumpi\n      dup1\n      0x1f\n      lt\n      tag_133\n      jumpi\n      0x0100\n      dup1\n      dup4\n      sload\n      div\n      mul\n      dup4\n      mstore\n      swap2\n      0x20\n      add\n      swap2\n      jump(tag_132)\n    tag_133:\n      dup3\n      add\n      swap2\n      swap1\n      0x00\n      mstore\n      keccak256(0x00, 0x20)\n      swap1\n    tag_134:\n      dup2\n      sload\n      dup2\n      mstore\n      swap1\n      0x01\n      add\n      swap1\n      0x20\n      add\n      dup1\n      dup4\n      gt\n      tag_134\n      jumpi\n      dup3\n      swap1\n      sub\n      0x1f\n      and\n      dup3\n      add\n      swap2\n    tag_132:\n      pop\n      pop\n      pop\n      pop\n      pop\n      dup2\n      mstore\n      0x20\n      add\n      0x01\n      dup3\n      add\n      dup1\n      sload\n      tag_135\n      swap1\n      tag_104\n      jump\t// in\n    tag_135:\n      dup1\n      0x1f\n      add\n      0x20\n      dup1\n      swap2\n      div\n      mul\n      0x20\n      add\n      mload(0x40)\n      swap1\n      dup2\n      add\n      0x40\n      mstore\n      dup1\n      swap3\n      swap2\n      swap1\n      dup2\n      dup2\n      mstore\n      0x20\n      add\n      dup3\n      dup1\n      sload\n      tag_136\n      swap1\n      tag_104\n      jump\t// in\n    tag_136:\n      dup1\n      iszero\n      tag_137\n      jumpi\n      dup1\n      0x1f\n      lt\n      tag_138\n      jumpi\n      0x0100\n      dup1\n      dup4\n      sload\n      div\n      mul\n      dup4\n      mstore\n      swap2\n      0x20\n      add\n      swap2\n      jump(tag_137)\n    tag_138:\n      dup3\n      add\n      swap2\n      swap1\n      0x00\n      mstore\n      keccak256(0x00, 0x20)\n      swap1\n    tag_139:\n      dup2\n      sload\n      dup2\n      mstore\n      swap1\n      0x01\n      add\n      swap1\n      0x20\n      add\n      dup1\n      dup4\n      gt\n      tag_139\n      jumpi\n      dup3\n      swap1\n      sub\n      0x1f\n      and\n      dup3\n      add\n      swap2\n    tag_137:\n      pop\n      pop\n      pop\n      pop\n      pop\n      dup2\n      mstore\n      0x20\n      add\n      0x02\n      dup3\n      add\n      dup1\n      sload\n      dup1\n      0x20\n      mul\n      0x20\n      add\n      mload(0x40)\n      swap1\n      dup2\n      add\n      0x40\n      mstore\n      dup1\n      swap3\n      swap2\n      swap1\n      dup2\n      dup2\n      mstore\n      0x20\n      add\n      0x00\n      swap1\n    tag_140:\n      dup3\n      dup3\n      lt\n      iszero\n      tag_141\n      jumpi\n      dup4\n      dup3\n      swap1\n      0x00\n      mstore\n      keccak256(0x00, 0x20)\n      add\n      mload(0x40)\n      dup1\n      0x40\n      add\n      0x40\n      mstore\n      swap1\n      dup2\n      0x00\n      dup3\n      add\n      0x00\n      swap1\n      sload\n      swap1\n      0x0100\n      exp\n      swap1\n      div\n      0xffffffffffffffffffffffffffffffffffffffff\n      and\n      0xffffffffffffffffffffffffffffffffffffffff\n      and\n      0xffffffffffffffffffffffffffffffffffffffff\n      and\n      dup2\n      mstore\n      0x20\n      add\n      0x00\n      dup3\n      add\n      0x14\n      swap1\n      sload\n      swap1\n      0x0100\n      exp\n      swap1\n      div\n      0xffff\n      and\n      0xffff\n      and\n      0xffff\n      and\n      dup2\n      mstore\n      pop\n      pop\n      dup2\n      mstore\n      0x20\n      add\n      swap1\n      0x01\n      add\n      swap1\n      jump(tag_140)\n    tag_141:\n      pop\n      pop\n      pop\n      pop\n      dup2\n      mstore\n      pop\n      pop\n      swap3\n      pop\n      pop\n      pop\n        /* \"hopium/etf/main/index-factory.sol\":5815:6107  function getIndexByTicker(string calldata ticker) external view returns (Index memory) {... */\n      swap3\n      swap2\n      pop\n      pop\n      jump\t// out\n        /* \"hopium/common/interface/imActive.sol\":289:374  function setActive(bool _active) public onlyOwner {... */\n    tag_54:\n        /* \"hopium/common/interface/imDirectory.sol\":1109:1118  Directory */\n      0x03\n      0x00\n      swap1\n      sload\n      swap1\n      0x0100\n      exp\n      swap1\n      div\n      0xffffffffffffffffffffffffffffffffffffffff\n      and\n        /* \"hopium/common/interface/imDirectory.sol\":1109:1124  Directory.owner */\n      0xffffffffffffffffffffffffffffffffffffffff\n      and\n      0x8da5cb5b\n        /* \"hopium/common/interface/imDirectory.sol\":1109:1126  Directory.owner() */\n      mload(0x40)\n      dup2\n      0xffffffff\n      and\n      0xe0\n      shl\n      dup2\n      mstore\n      0x04\n      add\n      0x20\n      mload(0x40)\n      dup1\n      dup4\n      sub\n      dup2\n      dup7\n      gas\n      staticcall\n      iszero\n      dup1\n      iszero\n      tag_145\n      jumpi\n      returndatacopy(0x00, 0x00, returndatasize)\n      revert(0x00, returndatasize)\n    tag_145:\n      pop\n      pop\n      pop\n      pop\n      mload(0x40)\n      returndatasize\n      not(0x1f)\n      0x1f\n      dup3\n      add\n      and\n      dup3\n      add\n      dup1\n      0x40\n      mstore\n      pop\n      dup2\n      add\n      swap1\n      tag_146\n      swap2\n      swap1\n      tag_65\n      jump\t// in\n    tag_146:\n        /* \"hopium/common/interface/imDirectory.sol\":1095:1126  msg.sender == Directory.owner() */\n      0xffffffffffffffffffffffffffffffffffffffff\n      and\n        /* \"hopium/common/interface/imDirectory.sol\":1095:1105  msg.sender */\n      caller\n        /* \"hopium/common/interface/imDirectory.sol\":1095:1126  msg.sender == Directory.owner() */\n      0xffffffffffffffffffffffffffffffffffffffff\n      and\n      eq\n        /* \"hopium/common/interface/imDirectory.sol\":1087:1154  require(msg.sender == Directory.owner(), \"Caller is not the owner\") */\n      tag_147\n      jumpi\n      mload(0x40)\n      0x08c379a000000000000000000000000000000000000000000000000000000000\n      dup2\n      mstore\n      0x04\n      add\n      tag_148\n      swap1\n      tag_149\n      jump\t// in\n    tag_148:\n      mload(0x40)\n      dup1\n      swap2\n      sub\n      swap1\n      revert\n    tag_147:\n        /* \"hopium/common/interface/imActive.sol\":360:367  _active */\n      dup1\n        /* \"hopium/common/interface/imActive.sol\":349:357  isActive */\n      0x03\n      0x14\n        /* \"hopium/common/interface/imActive.sol\":349:367  isActive = _active */\n      0x0100\n      exp\n      dup2\n      sload\n      dup2\n      0xff\n      mul\n      not\n      and\n      swap1\n      dup4\n      iszero\n      iszero\n      mul\n      or\n      swap1\n      sstore\n      pop\n        /* \"hopium/common/interface/imActive.sol\":289:374  function setActive(bool _active) public onlyOwner {... */\n      pop\n      jump\t// out\n        /* \"hopium/common/interface/imDirectory.sol\":470:583  function changeDirectoryAddress(address _directory) external onlyOwner {... */\n    tag_58:\n        /* \"hopium/common/interface/imDirectory.sol\":1109:1118  Directory */\n      0x03\n      0x00\n      swap1\n      sload\n      swap1\n      0x0100\n      exp\n      swap1\n      div\n      0xffffffffffffffffffffffffffffffffffffffff\n      and\n        /* \"hopium/common/interface/imDirectory.sol\":1109:1124  Directory.owner */\n      0xffffffffffffffffffffffffffffffffffffffff\n      and\n      0x8da5cb5b\n        /* \"hopium/common/interface/imDirectory.sol\":1109:1126  Directory.owner() */\n      mload(0x40)\n      dup2\n      0xffffffff\n      and\n      0xe0\n      shl\n      dup2\n      mstore\n      0x04\n      add\n      0x20\n      mload(0x40)\n      dup1\n      dup4\n      sub\n      dup2\n      dup7\n      gas\n      staticcall\n      iszero\n      dup1\n      iszero\n      tag_153\n      jumpi\n      returndatacopy(0x00, 0x00, returndatasize)\n      revert(0x00, returndatasize)\n    tag_153:\n      pop\n      pop\n      pop\n      pop\n      mload(0x40)\n      returndatasize\n      not(0x1f)\n      0x1f\n      dup3\n      add\n      and\n      dup3\n      add\n      dup1\n      0x40\n      mstore\n      pop\n      dup2\n      add\n      swap1\n      tag_154\n      swap2\n      swap1\n      tag_65\n      jump\t// in\n    tag_154:\n        /* \"hopium/common/interface/imDirectory.sol\":1095:1126  msg.sender == Directory.owner() */\n      0xffffffffffffffffffffffffffffffffffffffff\n      and\n        /* \"hopium/common/interface/imDirectory.sol\":1095:1105  msg.sender */\n      caller\n        /* \"hopium/common/interface/imDirectory.sol\":1095:1126  msg.sender == Directory.owner() */\n      0xffffffffffffffffffffffffffffffffffffffff\n      and\n      eq\n        /* \"hopium/common/interface/imDirectory.sol\":1087:1154  require(msg.sender == Directory.owner(), \"Caller is not the owner\") */\n      tag_155\n      jumpi\n      mload(0x40)\n      0x08c379a000000000000000000000000000000000000000000000000000000000\n      dup2\n      mstore\n      0x04\n      add\n      tag_156\n      swap1\n      tag_149\n      jump\t// in\n    tag_156:\n      mload(0x40)\n      dup1\n      swap2\n      sub\n      swap1\n      revert\n    tag_155:\n        /* \"hopium/common/interface/imDirectory.sol\":551:576  _setDirectory(_directory) */\n      tag_158\n        /* \"hopium/common/interface/imDirectory.sol\":565:575  _directory */\n      dup2\n        /* \"hopium/common/interface/imDirectory.sol\":551:564  _setDirectory */\n      tag_159\n        /* \"hopium/common/interface/imDirectory.sol\":551:576  _setDirectory(_directory) */\n      jump\t// in\n    tag_158:\n        /* \"hopium/common/interface/imDirectory.sol\":470:583  function changeDirectoryAddress(address _directory) external onlyOwner {... */\n      pop\n      jump\t// out\n        /* \"hopium/etf/main/index-factory.sol\":2503:2777  function _validateTicker(string calldata ticker) internal view returns (bytes32 tickerHash) {... */\n    tag_80:\n        /* \"hopium/etf/main/index-factory.sol\":2575:2593  bytes32 tickerHash */\n      0x00\n        /* \"hopium/etf/main/index-factory.sol\":2633:2634  0 */\n      0x00\n        /* \"hopium/etf/main/index-factory.sol\":2615:2621  ticker */\n      dup4\n      dup4\n        /* \"hopium/etf/main/index-factory.sol\":2609:2629  bytes(ticker).length */\n      swap1\n      pop\n        /* \"hopium/etf/main/index-factory.sol\":2609:2634  bytes(ticker).length == 0 */\n      sub\n        /* \"hopium/etf/main/index-factory.sol\":2605:2656  if (bytes(ticker).length == 0) revert EmptyTicker() */\n      tag_161\n      jumpi\n        /* \"hopium/etf/main/index-factory.sol\":2643:2656  EmptyTicker() */\n      mload(0x40)\n      0x653b1be600000000000000000000000000000000000000000000000000000000\n      dup2\n      mstore\n      0x04\n      add\n      mload(0x40)\n      dup1\n      swap2\n      sub\n      swap1\n      revert\n        /* \"hopium/etf/main/index-factory.sol\":2605:2656  if (bytes(ticker).length == 0) revert EmptyTicker() */\n    tag_161:\n        /* \"hopium/etf/main/index-factory.sol\":2679:2697  _tickerKey(ticker) */\n      tag_162\n        /* \"hopium/etf/main/index-factory.sol\":2690:2696  ticker */\n      dup4\n      dup4\n        /* \"hopium/etf/main/index-factory.sol\":2679:2689  _tickerKey */\n      tag_124\n        /* \"hopium/etf/main/index-factory.sol\":2679:2697  _tickerKey(ticker) */\n      jump\t// in\n    tag_162:\n        /* \"hopium/etf/main/index-factory.sol\":2666:2697  tickerHash = _tickerKey(ticker) */\n      swap1\n      pop\n        /* \"hopium/etf/main/index-factory.sol\":2746:2747  0 */\n      0x00\n        /* \"hopium/etf/main/index-factory.sol\":2711:2730  indexTickerHashToId */\n      0x01\n        /* \"hopium/etf/main/index-factory.sol\":2711:2742  indexTickerHashToId[tickerHash] */\n      0x00\n        /* \"hopium/etf/main/index-factory.sol\":2731:2741  tickerHash */\n      dup4\n        /* \"hopium/etf/main/index-factory.sol\":2711:2742  indexTickerHashToId[tickerHash] */\n      dup2\n      mstore\n      0x20\n      add\n      swap1\n      dup2\n      mstore\n      0x20\n      add\n      0x00\n      keccak256\n      sload\n        /* \"hopium/etf/main/index-factory.sol\":2711:2747  indexTickerHashToId[tickerHash] != 0 */\n      eq\n        /* \"hopium/etf/main/index-factory.sol\":2707:2770  if (indexTickerHashToId[tickerHash] != 0) revert TickerExists() */\n      tag_163\n      jumpi\n        /* \"hopium/etf/main/index-factory.sol\":2756:2770  TickerExists() */\n      mload(0x40)\n      0xc498761200000000000000000000000000000000000000000000000000000000\n      dup2\n      mstore\n      0x04\n      add\n      mload(0x40)\n      dup1\n      swap2\n      sub\n      swap1\n      revert\n        /* \"hopium/etf/main/index-factory.sol\":2707:2770  if (indexTickerHashToId[tickerHash] != 0) revert TickerExists() */\n    tag_163:\n        /* \"hopium/etf/main/index-factory.sol\":2503:2777  function _validateTicker(string calldata ticker) internal view returns (bytes32 tickerHash) {... */\n      swap3\n      swap2\n      pop\n      pop\n      jump\t// out\n        /* \"hopium/etf/main/index-factory.sol\":2865:4013  function _validateAndSort(Holding[] calldata holdings)... */\n    tag_84:\n        /* \"hopium/etf/main/index-factory.sol\":2967:2990  Holding[] memory sorted */\n      0x60\n        /* \"hopium/etf/main/index-factory.sol\":3006:3015  uint256 n */\n      0x00\n        /* \"hopium/etf/main/index-factory.sol\":3018:3026  holdings */\n      dup4\n      dup4\n        /* \"hopium/etf/main/index-factory.sol\":3018:3033  holdings.length */\n      swap1\n      pop\n        /* \"hopium/etf/main/index-factory.sol\":3006:3033  uint256 n = holdings.length */\n      swap1\n      pop\n        /* \"hopium/etf/main/index-factory.sol\":3052:3053  0 */\n      0x00\n        /* \"hopium/etf/main/index-factory.sol\":3047:3048  n */\n      dup2\n        /* \"hopium/etf/main/index-factory.sol\":3047:3053  n == 0 */\n      sub\n        /* \"hopium/etf/main/index-factory.sol\":3043:3074  if (n == 0) revert NoHoldings() */\n      tag_165\n      jumpi\n        /* \"hopium/etf/main/index-factory.sol\":3062:3074  NoHoldings() */\n      mload(0x40)\n      0xd7c8da3200000000000000000000000000000000000000000000000000000000\n      dup2\n      mstore\n      0x04\n      add\n      mload(0x40)\n      dup1\n      swap2\n      sub\n      swap1\n      revert\n        /* \"hopium/etf/main/index-factory.sol\":3043:3074  if (n == 0) revert NoHoldings() */\n    tag_165:\n        /* \"hopium/etf/main/index-factory.sol\":3148:3149  n */\n      dup1\n        /* \"hopium/etf/main/index-factory.sol\":3134:3150  new Holding[](n) */\n      0xffffffffffffffff\n      dup2\n      gt\n      iszero\n      tag_166\n      jumpi\n      tag_167\n      tag_168\n      jump\t// in\n    tag_167:\n    tag_166:\n      mload(0x40)\n      swap1\n      dup1\n      dup3\n      mstore\n      dup1\n      0x20\n      mul\n      0x20\n      add\n      dup3\n      add\n      0x40\n      mstore\n      dup1\n      iszero\n      tag_169\n      jumpi\n      dup2\n      0x20\n      add\n    tag_170:\n      tag_171\n      tag_172\n      jump\t// in\n    tag_171:\n      dup2\n      mstore\n      0x20\n      add\n      swap1\n      0x01\n      swap1\n      sub\n      swap1\n      dup2\n      tag_170\n      jumpi\n      swap1\n      pop\n    tag_169:\n      pop\n        /* \"hopium/etf/main/index-factory.sol\":3125:3150  sorted = new Holding[](n) */\n      swap2\n      pop\n        /* \"hopium/etf/main/index-factory.sol\":3165:3174  uint256 i */\n      0x00\n        /* \"hopium/etf/main/index-factory.sol\":3177:3178  0 */\n      0x00\n        /* \"hopium/etf/main/index-factory.sol\":3165:3178  uint256 i = 0 */\n      swap1\n      pop\n        /* \"hopium/etf/main/index-factory.sol\":3160:3553  for (uint256 i = 0; i < n; ) {... */\n    tag_173:\n        /* \"hopium/etf/main/index-factory.sol\":3184:3185  n */\n      dup2\n        /* \"hopium/etf/main/index-factory.sol\":3180:3181  i */\n      dup2\n        /* \"hopium/etf/main/index-factory.sol\":3180:3185  i < n */\n      lt\n        /* \"hopium/etf/main/index-factory.sol\":3160:3553  for (uint256 i = 0; i < n; ) {... */\n      iszero\n      tag_174\n      jumpi\n        /* \"hopium/etf/main/index-factory.sol\":3203:3221  Holding calldata h */\n      calldatasize\n        /* \"hopium/etf/main/index-factory.sol\":3224:3232  holdings */\n      dup6\n      dup6\n        /* \"hopium/etf/main/index-factory.sol\":3233:3234  i */\n      dup4\n        /* \"hopium/etf/main/index-factory.sol\":3224:3235  holdings[i] */\n      dup2\n      dup2\n      lt\n      tag_176\n      jumpi\n      tag_177\n      tag_101\n      jump\t// in\n    tag_177:\n    tag_176:\n      swap1\n      pop\n      0x40\n      mul\n      add\n        /* \"hopium/etf/main/index-factory.sol\":3203:3235  Holding calldata h = holdings[i] */\n      swap1\n      pop\n        /* \"hopium/etf/main/index-factory.sol\":3249:3262  address token */\n      0x00\n        /* \"hopium/etf/main/index-factory.sol\":3265:3266  h */\n      dup2\n        /* \"hopium/etf/main/index-factory.sol\":3265:3279  h.tokenAddress */\n      0x00\n      add\n      0x20\n      dup2\n      add\n      swap1\n      tag_178\n      swap2\n      swap1\n      tag_57\n      jump\t// in\n    tag_178:\n        /* \"hopium/etf/main/index-factory.sol\":3249:3279  address token = h.tokenAddress */\n      swap1\n      pop\n        /* \"hopium/etf/main/index-factory.sol\":3293:3302  uint256 w */\n      0x00\n        /* \"hopium/etf/main/index-factory.sol\":3305:3306  h */\n      dup3\n        /* \"hopium/etf/main/index-factory.sol\":3305:3317  h.weightBips */\n      0x20\n      add\n      0x20\n      dup2\n      add\n      swap1\n      tag_179\n      swap2\n      swap1\n      tag_180\n      jump\t// in\n    tag_179:\n        /* \"hopium/etf/main/index-factory.sol\":3293:3317  uint256 w = h.weightBips */\n      0xffff\n      and\n      swap1\n      pop\n        /* \"hopium/etf/main/index-factory.sol\":3353:3354  0 */\n      0x00\n        /* \"hopium/etf/main/index-factory.sol\":3336:3355  token == address(0) */\n      0xffffffffffffffffffffffffffffffffffffffff\n      and\n        /* \"hopium/etf/main/index-factory.sol\":3336:3341  token */\n      dup3\n        /* \"hopium/etf/main/index-factory.sol\":3336:3355  token == address(0) */\n      0xffffffffffffffffffffffffffffffffffffffff\n      and\n      sub\n        /* \"hopium/etf/main/index-factory.sol\":3332:3375  if (token == address(0)) revert ZeroToken() */\n      tag_181\n      jumpi\n        /* \"hopium/etf/main/index-factory.sol\":3364:3375  ZeroToken() */\n      mload(0x40)\n      0xad1991f500000000000000000000000000000000000000000000000000000000\n      dup2\n      mstore\n      0x04\n      add\n      mload(0x40)\n      dup1\n      swap2\n      sub\n      swap1\n      revert\n        /* \"hopium/etf/main/index-factory.sol\":3332:3375  if (token == address(0)) revert ZeroToken() */\n    tag_181:\n        /* \"hopium/etf/main/index-factory.sol\":3398:3399  0 */\n      0x00\n        /* \"hopium/etf/main/index-factory.sol\":3393:3394  w */\n      dup2\n        /* \"hopium/etf/main/index-factory.sol\":3393:3399  w == 0 */\n      sub\n        /* \"hopium/etf/main/index-factory.sol\":3389:3420  if (w == 0) revert ZeroWeight() */\n      tag_182\n      jumpi\n        /* \"hopium/etf/main/index-factory.sol\":3408:3420  ZeroWeight() */\n      mload(0x40)\n      0x19a2a9bd00000000000000000000000000000000000000000000000000000000\n      dup2\n      mstore\n      0x04\n      add\n      mload(0x40)\n      dup1\n      swap2\n      sub\n      swap1\n      revert\n        /* \"hopium/etf/main/index-factory.sol\":3389:3420  if (w == 0) revert ZeroWeight() */\n    tag_182:\n        /* \"hopium/common/storage/bips.sol\":97:103  10_000 */\n      0x2710\n        /* \"hopium/etf/main/index-factory.sol\":3438:3439  w */\n      dup2\n        /* \"hopium/etf/main/index-factory.sol\":3438:3462  w > HUNDRED_PERCENT_BIPS */\n      gt\n        /* \"hopium/etf/main/index-factory.sol\":3434:3483  if (w > HUNDRED_PERCENT_BIPS) revert OverWeight() */\n      iszero\n      tag_183\n      jumpi\n        /* \"hopium/etf/main/index-factory.sol\":3471:3483  OverWeight() */\n      mload(0x40)\n      0xc663343d00000000000000000000000000000000000000000000000000000000\n      dup2\n      mstore\n      0x04\n      add\n      mload(0x40)\n      dup1\n      swap2\n      sub\n      swap1\n      revert\n        /* \"hopium/etf/main/index-factory.sol\":3434:3483  if (w > HUNDRED_PERCENT_BIPS) revert OverWeight() */\n    tag_183:\n        /* \"hopium/etf/main/index-factory.sol\":3510:3511  h */\n      dup3\n        /* \"hopium/etf/main/index-factory.sol\":3498:3511  sorted[i] = h */\n      dup1\n      calldatasize\n      sub\n      dup2\n      add\n      swap1\n      tag_184\n      swap2\n      swap1\n      tag_185\n      jump\t// in\n    tag_184:\n        /* \"hopium/etf/main/index-factory.sol\":3498:3504  sorted */\n      dup7\n        /* \"hopium/etf/main/index-factory.sol\":3505:3506  i */\n      dup6\n        /* \"hopium/etf/main/index-factory.sol\":3498:3507  sorted[i] */\n      dup2\n      mload\n      dup2\n      lt\n      tag_186\n      jumpi\n      tag_187\n      tag_101\n      jump\t// in\n    tag_187:\n    tag_186:\n      0x20\n      mul\n      0x20\n      add\n      add\n        /* \"hopium/etf/main/index-factory.sol\":3498:3511  sorted[i] = h */\n      dup2\n      swap1\n      mstore\n      pop\n        /* \"hopium/etf/main/index-factory.sol\":3537:3540  ++i */\n      dup4\n      0x01\n      add\n      swap4\n      pop\n        /* \"hopium/etf/main/index-factory.sol\":3189:3553  {... */\n      pop\n      pop\n      pop\n        /* \"hopium/etf/main/index-factory.sol\":3160:3553  for (uint256 i = 0; i < n; ) {... */\n      jump(tag_173)\n    tag_174:\n      pop\n        /* \"hopium/etf/main/index-factory.sol\":3588:3610  _insertionSort(sorted) */\n      tag_188\n        /* \"hopium/etf/main/index-factory.sol\":3603:3609  sorted */\n      dup3\n        /* \"hopium/etf/main/index-factory.sol\":3588:3602  _insertionSort */\n      tag_189\n        /* \"hopium/etf/main/index-factory.sol\":3588:3610  _insertionSort(sorted) */\n      jump\t// in\n    tag_188:\n        /* \"hopium/etf/main/index-factory.sol\":3676:3687  uint256 sum */\n      0x00\n        /* \"hopium/etf/main/index-factory.sol\":3702:3711  uint256 i */\n      0x00\n        /* \"hopium/etf/main/index-factory.sol\":3714:3715  0 */\n      0x00\n        /* \"hopium/etf/main/index-factory.sol\":3702:3715  uint256 i = 0 */\n      swap1\n      pop\n        /* \"hopium/etf/main/index-factory.sol\":3697:3945  for (uint256 i = 0; i < n; ) {... */\n    tag_190:\n        /* \"hopium/etf/main/index-factory.sol\":3721:3722  n */\n      dup3\n        /* \"hopium/etf/main/index-factory.sol\":3717:3718  i */\n      dup2\n        /* \"hopium/etf/main/index-factory.sol\":3717:3722  i < n */\n      lt\n        /* \"hopium/etf/main/index-factory.sol\":3697:3945  for (uint256 i = 0; i < n; ) {... */\n      iszero\n      tag_191\n      jumpi\n        /* \"hopium/etf/main/index-factory.sol\":3748:3749  0 */\n      0x00\n        /* \"hopium/etf/main/index-factory.sol\":3744:3745  i */\n      dup2\n        /* \"hopium/etf/main/index-factory.sol\":3744:3749  i > 0 */\n      gt\n        /* \"hopium/etf/main/index-factory.sol\":3744:3805  i > 0 && sorted[i - 1].tokenAddress == sorted[i].tokenAddress */\n      dup1\n      iszero\n      tag_193\n      jumpi\n      pop\n        /* \"hopium/etf/main/index-factory.sol\":3783:3789  sorted */\n      dup4\n        /* \"hopium/etf/main/index-factory.sol\":3790:3791  i */\n      dup2\n        /* \"hopium/etf/main/index-factory.sol\":3783:3792  sorted[i] */\n      dup2\n      mload\n      dup2\n      lt\n      tag_194\n      jumpi\n      tag_195\n      tag_101\n      jump\t// in\n    tag_195:\n    tag_194:\n      0x20\n      mul\n      0x20\n      add\n      add\n      mload\n        /* \"hopium/etf/main/index-factory.sol\":3783:3805  sorted[i].tokenAddress */\n      0x00\n      add\n      mload\n        /* \"hopium/etf/main/index-factory.sol\":3753:3805  sorted[i - 1].tokenAddress == sorted[i].tokenAddress */\n      0xffffffffffffffffffffffffffffffffffffffff\n      and\n        /* \"hopium/etf/main/index-factory.sol\":3753:3759  sorted */\n      dup5\n        /* \"hopium/etf/main/index-factory.sol\":3764:3765  1 */\n      0x01\n        /* \"hopium/etf/main/index-factory.sol\":3760:3761  i */\n      dup4\n        /* \"hopium/etf/main/index-factory.sol\":3760:3765  i - 1 */\n      tag_196\n      swap2\n      swap1\n      tag_197\n      jump\t// in\n    tag_196:\n        /* \"hopium/etf/main/index-factory.sol\":3753:3766  sorted[i - 1] */\n      dup2\n      mload\n      dup2\n      lt\n      tag_198\n      jumpi\n      tag_199\n      tag_101\n      jump\t// in\n    tag_199:\n    tag_198:\n      0x20\n      mul\n      0x20\n      add\n      add\n      mload\n        /* \"hopium/etf/main/index-factory.sol\":3753:3779  sorted[i - 1].tokenAddress */\n      0x00\n      add\n      mload\n        /* \"hopium/etf/main/index-factory.sol\":3753:3805  sorted[i - 1].tokenAddress == sorted[i].tokenAddress */\n      0xffffffffffffffffffffffffffffffffffffffff\n      and\n      eq\n        /* \"hopium/etf/main/index-factory.sol\":3744:3805  i > 0 && sorted[i - 1].tokenAddress == sorted[i].tokenAddress */\n    tag_193:\n        /* \"hopium/etf/main/index-factory.sol\":3740:3863  if (i > 0 && sorted[i - 1].tokenAddress == sorted[i].tokenAddress) {... */\n      iszero\n      tag_200\n      jumpi\n        /* \"hopium/etf/main/index-factory.sol\":3832:3848  DuplicateToken() */\n      mload(0x40)\n      0x464e3f6a00000000000000000000000000000000000000000000000000000000\n      dup2\n      mstore\n      0x04\n      add\n      mload(0x40)\n      dup1\n      swap2\n      sub\n      swap1\n      revert\n        /* \"hopium/etf/main/index-factory.sol\":3740:3863  if (i > 0 && sorted[i - 1].tokenAddress == sorted[i].tokenAddress) {... */\n    tag_200:\n        /* \"hopium/etf/main/index-factory.sol\":3883:3889  sorted */\n      dup4\n        /* \"hopium/etf/main/index-factory.sol\":3890:3891  i */\n      dup2\n        /* \"hopium/etf/main/index-factory.sol\":3883:3892  sorted[i] */\n      dup2\n      mload\n      dup2\n      lt\n      tag_201\n      jumpi\n      tag_202\n      tag_101\n      jump\t// in\n    tag_202:\n    tag_201:\n      0x20\n      mul\n      0x20\n      add\n      add\n      mload\n        /* \"hopium/etf/main/index-factory.sol\":3883:3903  sorted[i].weightBips */\n      0x20\n      add\n      mload\n        /* \"hopium/etf/main/index-factory.sol\":3876:3903  sum += sorted[i].weightBips */\n      0xffff\n      and\n      dup3\n      tag_203\n      swap2\n      swap1\n      tag_204\n      jump\t// in\n    tag_203:\n      swap2\n      pop\n        /* \"hopium/etf/main/index-factory.sol\":3929:3932  ++i */\n      dup1\n      0x01\n      add\n      swap1\n      pop\n        /* \"hopium/etf/main/index-factory.sol\":3697:3945  for (uint256 i = 0; i < n; ) {... */\n      jump(tag_190)\n    tag_191:\n      pop\n        /* \"hopium/common/storage/bips.sol\":97:103  10_000 */\n      0x2710\n        /* \"hopium/etf/main/index-factory.sol\":3958:3961  sum */\n      dup2\n        /* \"hopium/etf/main/index-factory.sol\":3958:3985  sum != HUNDRED_PERCENT_BIPS */\n      eq\n        /* \"hopium/etf/main/index-factory.sol\":3954:4006  if (sum != HUNDRED_PERCENT_BIPS) revert NotHundred() */\n      tag_205\n      jumpi\n        /* \"hopium/etf/main/index-factory.sol\":3994:4006  NotHundred() */\n      mload(0x40)\n      0xda6957ea00000000000000000000000000000000000000000000000000000000\n      dup2\n      mstore\n      0x04\n      add\n      mload(0x40)\n      dup1\n      swap2\n      sub\n      swap1\n      revert\n        /* \"hopium/etf/main/index-factory.sol\":3954:4006  if (sum != HUNDRED_PERCENT_BIPS) revert NotHundred() */\n    tag_205:\n        /* \"hopium/etf/main/index-factory.sol\":2996:4013  {... */\n      pop\n      pop\n        /* \"hopium/etf/main/index-factory.sol\":2865:4013  function _validateAndSort(Holding[] calldata holdings)... */\n      swap3\n      swap2\n      pop\n      pop\n      jump\t// out\n        /* \"hopium/etf/main/index-factory.sol\":4088:4314  function _validateIndexHashUnique(Holding[] memory sorted) internal view returns (bytes32 indexHash) {... */\n    tag_86:\n        /* \"hopium/etf/main/index-factory.sol\":4170:4187  bytes32 indexHash */\n      0x00\n        /* \"hopium/etf/main/index-factory.sol\":4211:4242  _computeIndexHashSorted(sorted) */\n      tag_207\n        /* \"hopium/etf/main/index-factory.sol\":4235:4241  sorted */\n      dup3\n        /* \"hopium/etf/main/index-factory.sol\":4211:4234  _computeIndexHashSorted */\n      tag_208\n        /* \"hopium/etf/main/index-factory.sol\":4211:4242  _computeIndexHashSorted(sorted) */\n      jump\t// in\n    tag_207:\n        /* \"hopium/etf/main/index-factory.sol\":4199:4242  indexHash = _computeIndexHashSorted(sorted) */\n      swap1\n      pop\n        /* \"hopium/etf/main/index-factory.sol\":4284:4285  0 */\n      0x00\n        /* \"hopium/etf/main/index-factory.sol\":4256:4269  indexHashToId */\n      0x02\n        /* \"hopium/etf/main/index-factory.sol\":4256:4280  indexHashToId[indexHash] */\n      0x00\n        /* \"hopium/etf/main/index-factory.sol\":4270:4279  indexHash */\n      dup4\n        /* \"hopium/etf/main/index-factory.sol\":4256:4280  indexHashToId[indexHash] */\n      dup2\n      mstore\n      0x20\n      add\n      swap1\n      dup2\n      mstore\n      0x20\n      add\n      0x00\n      keccak256\n      sload\n        /* \"hopium/etf/main/index-factory.sol\":4256:4285  indexHashToId[indexHash] != 0 */\n      eq\n        /* \"hopium/etf/main/index-factory.sol\":4252:4307  if (indexHashToId[indexHash] != 0) revert IndexExists() */\n      tag_209\n      jumpi\n        /* \"hopium/etf/main/index-factory.sol\":4294:4307  IndexExists() */\n      mload(0x40)\n      0x15b689d700000000000000000000000000000000000000000000000000000000\n      dup2\n      mstore\n      0x04\n      add\n      mload(0x40)\n      dup1\n      swap2\n      sub\n      swap1\n      revert\n        /* \"hopium/etf/main/index-factory.sol\":4252:4307  if (indexHashToId[indexHash] != 0) revert IndexExists() */\n    tag_209:\n        /* \"hopium/etf/main/index-factory.sol\":4088:4314  function _validateIndexHashUnique(Holding[] memory sorted) internal view returns (bytes32 indexHash) {... */\n      swap2\n      swap1\n      pop\n      jump\t// out\n        /* \"hopium/common/utils/id-idx.sol\":93:187  function _idxToId(uint256 idx) internal pure returns (uint256) {... */\n    tag_88:\n        /* \"hopium/common/utils/id-idx.sol\":147:154  uint256 */\n      0x00\n        /* \"hopium/common/utils/id-idx.sol\":179:180  1 */\n      0x01\n        /* \"hopium/common/utils/id-idx.sol\":173:176  idx */\n      dup3\n        /* \"hopium/common/utils/id-idx.sol\":173:180  idx + 1 */\n      tag_211\n      swap2\n      swap1\n      tag_204\n      jump\t// in\n    tag_211:\n        /* \"hopium/common/utils/id-idx.sol\":166:180  return idx + 1 */\n      swap1\n      pop\n        /* \"hopium/common/utils/id-idx.sol\":93:187  function _idxToId(uint256 idx) internal pure returns (uint256) {... */\n      swap2\n      swap1\n      pop\n      jump\t// out\n        /* \"hopium/common/utils/id-idx.sol\":193:285  function _idToIdx(uint256 id) internal pure returns (uint256) {... */\n    tag_98:\n        /* \"hopium/common/utils/id-idx.sol\":246:253  uint256 */\n      0x00\n        /* \"hopium/common/utils/id-idx.sol\":277:278  1 */\n      0x01\n        /* \"hopium/common/utils/id-idx.sol\":272:274  id */\n      dup3\n        /* \"hopium/common/utils/id-idx.sol\":272:278  id - 1 */\n      tag_213\n      swap2\n      swap1\n      tag_197\n      jump\t// in\n    tag_213:\n        /* \"hopium/common/utils/id-idx.sol\":265:278  return id - 1 */\n      swap1\n      pop\n        /* \"hopium/common/utils/id-idx.sol\":193:285  function _idToIdx(uint256 id) internal pure returns (uint256) {... */\n      swap2\n      swap1\n      pop\n      jump\t// out\n        /* \"hopium/etf/main/index-factory.sol\":2171:2285  function _tickerKey(string calldata t) internal pure returns (bytes32) {... */\n    tag_124:\n        /* \"hopium/etf/main/index-factory.sol\":2233:2240  bytes32 */\n      0x00\n        /* \"hopium/etf/main/index-factory.sol\":2275:2276  t */\n      dup3\n      dup3\n        /* \"hopium/etf/main/index-factory.sol\":2259:2278  keccak256(bytes(t)) */\n      mload(0x40)\n      tag_215\n      swap3\n      swap2\n      swap1\n      tag_216\n      jump\t// in\n    tag_215:\n      mload(0x40)\n      dup1\n      swap2\n      sub\n      swap1\n      keccak256\n        /* \"hopium/etf/main/index-factory.sol\":2252:2278  return keccak256(bytes(t)) */\n      swap1\n      pop\n        /* \"hopium/etf/main/index-factory.sol\":2171:2285  function _tickerKey(string calldata t) internal pure returns (bytes32) {... */\n      swap3\n      swap2\n      pop\n      pop\n      jump\t// out\n        /* \"hopium/common/interface/imDirectory.sol\":589:1050  function _setDirectory(address _directory) internal {... */\n    tag_159:\n        /* \"hopium/common/interface/imDirectory.sol\":681:682  0 */\n      0x00\n        /* \"hopium/common/interface/imDirectory.sol\":659:683  _directory != address(0) */\n      0xffffffffffffffffffffffffffffffffffffffff\n      and\n        /* \"hopium/common/interface/imDirectory.sol\":659:669  _directory */\n      dup2\n        /* \"hopium/common/interface/imDirectory.sol\":659:683  _directory != address(0) */\n      0xffffffffffffffffffffffffffffffffffffffff\n      and\n      sub\n        /* \"hopium/common/interface/imDirectory.sol\":651:720  require(_directory != address(0), \"Directory cannot be zero address\") */\n      tag_218\n      jumpi\n      mload(0x40)\n      0x08c379a000000000000000000000000000000000000000000000000000000000\n      dup2\n      mstore\n      0x04\n      add\n      tag_219\n      swap1\n      tag_220\n      jump\t// in\n    tag_219:\n      mload(0x40)\n      dup1\n      swap2\n      sub\n      swap1\n      revert\n    tag_218:\n        /* \"hopium/common/interface/imDirectory.sol\":763:764  0 */\n      0x00\n        /* \"hopium/common/interface/imDirectory.sol\":738:748  _directory */\n      dup2\n        /* \"hopium/common/interface/imDirectory.sol\":738:760  _directory.code.length */\n      0xffffffffffffffffffffffffffffffffffffffff\n      and\n      extcodesize\n        /* \"hopium/common/interface/imDirectory.sol\":738:764  _directory.code.length > 0 */\n      gt\n        /* \"hopium/common/interface/imDirectory.sol\":730:797  require(_directory.code.length > 0, \"Directory must be a contract\") */\n      tag_221\n      jumpi\n      mload(0x40)\n      0x08c379a000000000000000000000000000000000000000000000000000000000\n      dup2\n      mstore\n      0x04\n      add\n      tag_222\n      swap1\n      tag_223\n      jump\t// in\n    tag_222:\n      mload(0x40)\n      dup1\n      swap2\n      sub\n      swap1\n      revert\n    tag_221:\n        /* \"hopium/common/interface/imDirectory.sol\":861:871  _directory */\n      dup1\n        /* \"hopium/common/interface/imDirectory.sol\":850:878  IDirectory(_directory).owner */\n      0xffffffffffffffffffffffffffffffffffffffff\n      and\n      0x8da5cb5b\n        /* \"hopium/common/interface/imDirectory.sol\":850:880  IDirectory(_directory).owner() */\n      mload(0x40)\n      dup2\n      0xffffffff\n      and\n      0xe0\n      shl\n      dup2\n      mstore\n      0x04\n      add\n      0x20\n      mload(0x40)\n      dup1\n      dup4\n      sub\n      dup2\n      dup7\n      gas\n      staticcall\n      swap3\n      pop\n      pop\n      pop\n      dup1\n      iszero\n      tag_224\n      jumpi\n      pop\n      mload(0x40)\n      returndatasize\n      not(0x1f)\n      0x1f\n      dup3\n      add\n      and\n      dup3\n      add\n      dup1\n      0x40\n      mstore\n      pop\n      dup2\n      add\n      swap1\n      tag_225\n      swap2\n      swap1\n      tag_65\n      jump\t// in\n    tag_225:\n      0x01\n    tag_224:\n        /* \"hopium/common/interface/imDirectory.sol\":846:1044  try IDirectory(_directory).owner() returns (address) {... */\n      tag_226\n      jumpi\n        /* \"hopium/common/interface/imDirectory.sol\":979:1033  revert(\"Directory address does not implement owner()\") */\n      mload(0x40)\n      0x08c379a000000000000000000000000000000000000000000000000000000000\n      dup2\n      mstore\n      0x04\n      add\n      tag_230\n      swap1\n      tag_231\n      jump\t// in\n    tag_230:\n      mload(0x40)\n      dup1\n      swap2\n      sub\n      swap1\n      revert\n        /* \"hopium/common/interface/imDirectory.sol\":846:1044  try IDirectory(_directory).owner() returns (address) {... */\n    tag_226:\n        /* \"hopium/common/interface/imDirectory.sol\":936:946  _directory */\n      dup2\n        /* \"hopium/common/interface/imDirectory.sol\":913:922  Directory */\n      0x03\n      0x00\n        /* \"hopium/common/interface/imDirectory.sol\":913:947  Directory = IDirectory(_directory) */\n      0x0100\n      exp\n      dup2\n      sload\n      dup2\n      0xffffffffffffffffffffffffffffffffffffffff\n      mul\n      not\n      and\n      swap1\n      dup4\n      0xffffffffffffffffffffffffffffffffffffffff\n      and\n      mul\n      or\n      swap1\n      sstore\n      pop\n        /* \"hopium/common/interface/imDirectory.sol\":881:958  returns (address) {... */\n      pop\n        /* \"hopium/common/interface/imDirectory.sol\":589:1050  function _setDirectory(address _directory) internal {... */\n      pop\n      jump\t// out\n        /* \"hopium/etf/main/index-factory.sol\":1129:1805  function _insertionSort(Holding[] memory a) internal pure {... */\n    tag_189:\n        /* \"hopium/etf/main/index-factory.sol\":1197:1206  uint256 n */\n      0x00\n        /* \"hopium/etf/main/index-factory.sol\":1209:1210  a */\n      dup2\n        /* \"hopium/etf/main/index-factory.sol\":1209:1217  a.length */\n      mload\n        /* \"hopium/etf/main/index-factory.sol\":1197:1217  uint256 n = a.length */\n      swap1\n      pop\n        /* \"hopium/etf/main/index-factory.sol\":1232:1241  uint256 i */\n      0x00\n        /* \"hopium/etf/main/index-factory.sol\":1244:1245  1 */\n      0x01\n        /* \"hopium/etf/main/index-factory.sol\":1232:1245  uint256 i = 1 */\n      swap1\n      pop\n        /* \"hopium/etf/main/index-factory.sol\":1227:1799  for (uint256 i = 1; i < n; ) {... */\n    tag_234:\n        /* \"hopium/etf/main/index-factory.sol\":1251:1252  n */\n      dup2\n        /* \"hopium/etf/main/index-factory.sol\":1247:1248  i */\n      dup2\n        /* \"hopium/etf/main/index-factory.sol\":1247:1252  i < n */\n      lt\n        /* \"hopium/etf/main/index-factory.sol\":1227:1799  for (uint256 i = 1; i < n; ) {... */\n      iszero\n      tag_235\n      jumpi\n        /* \"hopium/etf/main/index-factory.sol\":1270:1288  Holding memory key */\n      0x00\n        /* \"hopium/etf/main/index-factory.sol\":1291:1292  a */\n      dup4\n        /* \"hopium/etf/main/index-factory.sol\":1293:1294  i */\n      dup3\n        /* \"hopium/etf/main/index-factory.sol\":1291:1295  a[i] */\n      dup2\n      mload\n      dup2\n      lt\n      tag_237\n      jumpi\n      tag_238\n      tag_101\n      jump\t// in\n    tag_238:\n    tag_237:\n      0x20\n      mul\n      0x20\n      add\n      add\n      mload\n        /* \"hopium/etf/main/index-factory.sol\":1270:1295  Holding memory key = a[i] */\n      swap1\n      pop\n        /* \"hopium/etf/main/index-factory.sol\":1309:1318  uint256 j */\n      0x00\n        /* \"hopium/etf/main/index-factory.sol\":1321:1322  i */\n      dup3\n        /* \"hopium/etf/main/index-factory.sol\":1309:1322  uint256 j = i */\n      swap1\n      pop\n        /* \"hopium/etf/main/index-factory.sol\":1336:1734  while (j > 0) {... */\n    tag_239:\n        /* \"hopium/etf/main/index-factory.sol\":1347:1348  0 */\n      0x00\n        /* \"hopium/etf/main/index-factory.sol\":1343:1344  j */\n      dup2\n        /* \"hopium/etf/main/index-factory.sol\":1343:1348  j > 0 */\n      gt\n        /* \"hopium/etf/main/index-factory.sol\":1336:1734  while (j > 0) {... */\n      iszero\n      tag_240\n      jumpi\n        /* \"hopium/etf/main/index-factory.sol\":1368:1387  Holding memory prev */\n      0x00\n        /* \"hopium/etf/main/index-factory.sol\":1390:1391  a */\n      dup6\n        /* \"hopium/etf/main/index-factory.sol\":1396:1397  1 */\n      0x01\n        /* \"hopium/etf/main/index-factory.sol\":1392:1393  j */\n      dup4\n        /* \"hopium/etf/main/index-factory.sol\":1392:1397  j - 1 */\n      tag_241\n      swap2\n      swap1\n      tag_197\n      jump\t// in\n    tag_241:\n        /* \"hopium/etf/main/index-factory.sol\":1390:1398  a[j - 1] */\n      dup2\n      mload\n      dup2\n      lt\n      tag_242\n      jumpi\n      tag_243\n      tag_101\n      jump\t// in\n    tag_243:\n    tag_242:\n      0x20\n      mul\n      0x20\n      add\n      add\n      mload\n        /* \"hopium/etf/main/index-factory.sol\":1368:1398  Holding memory prev = a[j - 1] */\n      swap1\n      pop\n        /* \"hopium/etf/main/index-factory.sol\":1492:1495  key */\n      dup3\n        /* \"hopium/etf/main/index-factory.sol\":1492:1508  key.tokenAddress */\n      0x00\n      add\n      mload\n        /* \"hopium/etf/main/index-factory.sol\":1472:1508  prev.tokenAddress < key.tokenAddress */\n      0xffffffffffffffffffffffffffffffffffffffff\n      and\n        /* \"hopium/etf/main/index-factory.sol\":1472:1476  prev */\n      dup2\n        /* \"hopium/etf/main/index-factory.sol\":1472:1489  prev.tokenAddress */\n      0x00\n      add\n      mload\n        /* \"hopium/etf/main/index-factory.sol\":1472:1508  prev.tokenAddress < key.tokenAddress */\n      0xffffffffffffffffffffffffffffffffffffffff\n      and\n      lt\n        /* \"hopium/etf/main/index-factory.sol\":1472:1608  prev.tokenAddress < key.tokenAddress || ... */\n      dup1\n      tag_244\n      jumpi\n      pop\n        /* \"hopium/etf/main/index-factory.sol\":1554:1557  key */\n      dup3\n        /* \"hopium/etf/main/index-factory.sol\":1554:1570  key.tokenAddress */\n      0x00\n      add\n      mload\n        /* \"hopium/etf/main/index-factory.sol\":1533:1570  prev.tokenAddress == key.tokenAddress */\n      0xffffffffffffffffffffffffffffffffffffffff\n      and\n        /* \"hopium/etf/main/index-factory.sol\":1533:1537  prev */\n      dup2\n        /* \"hopium/etf/main/index-factory.sol\":1533:1550  prev.tokenAddress */\n      0x00\n      add\n      mload\n        /* \"hopium/etf/main/index-factory.sol\":1533:1570  prev.tokenAddress == key.tokenAddress */\n      0xffffffffffffffffffffffffffffffffffffffff\n      and\n      eq\n        /* \"hopium/etf/main/index-factory.sol\":1533:1607  prev.tokenAddress == key.tokenAddress && prev.weightBips <= key.weightBips */\n      dup1\n      iszero\n      tag_245\n      jumpi\n      pop\n        /* \"hopium/etf/main/index-factory.sol\":1593:1596  key */\n      dup3\n        /* \"hopium/etf/main/index-factory.sol\":1593:1607  key.weightBips */\n      0x20\n      add\n      mload\n        /* \"hopium/etf/main/index-factory.sol\":1574:1607  prev.weightBips <= key.weightBips */\n      0xffff\n      and\n        /* \"hopium/etf/main/index-factory.sol\":1574:1578  prev */\n      dup2\n        /* \"hopium/etf/main/index-factory.sol\":1574:1589  prev.weightBips */\n      0x20\n      add\n      mload\n        /* \"hopium/etf/main/index-factory.sol\":1574:1607  prev.weightBips <= key.weightBips */\n      0xffff\n      and\n      gt\n      iszero\n        /* \"hopium/etf/main/index-factory.sol\":1533:1607  prev.tokenAddress == key.tokenAddress && prev.weightBips <= key.weightBips */\n    tag_245:\n        /* \"hopium/etf/main/index-factory.sol\":1472:1608  prev.tokenAddress < key.tokenAddress || ... */\n    tag_244:\n        /* \"hopium/etf/main/index-factory.sol\":1468:1656  if (prev.tokenAddress < key.tokenAddress || ... */\n      iszero\n      tag_246\n      jumpi\n        /* \"hopium/etf/main/index-factory.sol\":1632:1637  break */\n      pop\n      jump(tag_240)\n        /* \"hopium/etf/main/index-factory.sol\":1468:1656  if (prev.tokenAddress < key.tokenAddress || ... */\n    tag_246:\n        /* \"hopium/etf/main/index-factory.sol\":1680:1684  prev */\n      dup1\n        /* \"hopium/etf/main/index-factory.sol\":1673:1674  a */\n      dup7\n        /* \"hopium/etf/main/index-factory.sol\":1675:1676  j */\n      dup4\n        /* \"hopium/etf/main/index-factory.sol\":1673:1677  a[j] */\n      dup2\n      mload\n      dup2\n      lt\n      tag_247\n      jumpi\n      tag_248\n      tag_101\n      jump\t// in\n    tag_248:\n    tag_247:\n      0x20\n      mul\n      0x20\n      add\n      add\n        /* \"hopium/etf/main/index-factory.sol\":1673:1684  a[j] = prev */\n      dup2\n      swap1\n      mstore\n      pop\n        /* \"hopium/etf/main/index-factory.sol\":1714:1717  --j */\n      dup2\n      0x01\n      swap1\n      sub\n      swap2\n      pop\n        /* \"hopium/etf/main/index-factory.sol\":1350:1734  {... */\n      pop\n        /* \"hopium/etf/main/index-factory.sol\":1336:1734  while (j > 0) {... */\n      jump(tag_239)\n    tag_240:\n        /* \"hopium/etf/main/index-factory.sol\":1754:1757  key */\n      dup2\n        /* \"hopium/etf/main/index-factory.sol\":1747:1748  a */\n      dup6\n        /* \"hopium/etf/main/index-factory.sol\":1749:1750  j */\n      dup3\n        /* \"hopium/etf/main/index-factory.sol\":1747:1751  a[j] */\n      dup2\n      mload\n      dup2\n      lt\n      tag_249\n      jumpi\n      tag_250\n      tag_101\n      jump\t// in\n    tag_250:\n    tag_249:\n      0x20\n      mul\n      0x20\n      add\n      add\n        /* \"hopium/etf/main/index-factory.sol\":1747:1757  a[j] = key */\n      dup2\n      swap1\n      mstore\n      pop\n        /* \"hopium/etf/main/index-factory.sol\":1783:1786  ++i */\n      dup3\n      0x01\n      add\n      swap3\n      pop\n        /* \"hopium/etf/main/index-factory.sol\":1256:1799  {... */\n      pop\n      pop\n        /* \"hopium/etf/main/index-factory.sol\":1227:1799  for (uint256 i = 1; i < n; ) {... */\n      jump(tag_234)\n    tag_235:\n      pop\n        /* \"hopium/etf/main/index-factory.sol\":1187:1805  {... */\n      pop\n        /* \"hopium/etf/main/index-factory.sol\":1129:1805  function _insertionSort(Holding[] memory a) internal pure {... */\n      pop\n      jump\t// out\n        /* \"hopium/etf/main/index-factory.sol\":1903:2122  function _computeIndexHashSorted(Holding[] memory sorted) internal pure returns (bytes32) {... */\n    tag_208:\n        /* \"hopium/etf/main/index-factory.sol\":1984:1991  bytes32 */\n      0x00\n        /* \"hopium/etf/main/index-factory.sol\":2107:2113  sorted */\n      dup2\n        /* \"hopium/etf/main/index-factory.sol\":2096:2114  abi.encode(sorted) */\n      add(0x20, mload(0x40))\n      tag_252\n      swap2\n      swap1\n      tag_253\n      jump\t// in\n    tag_252:\n      mload(0x40)\n      0x20\n      dup2\n      dup4\n      sub\n      sub\n      dup2\n      mstore\n      swap1\n      0x40\n      mstore\n        /* \"hopium/etf/main/index-factory.sol\":2086:2115  keccak256(abi.encode(sorted)) */\n      dup1\n      mload\n      swap1\n      0x20\n      add\n      keccak256\n        /* \"hopium/etf/main/index-factory.sol\":2079:2115  return keccak256(abi.encode(sorted)) */\n      swap1\n      pop\n        /* \"hopium/etf/main/index-factory.sol\":1903:2122  function _computeIndexHashSorted(Holding[] memory sorted) internal pure returns (bytes32) {... */\n      swap2\n      swap1\n      pop\n      jump\t// out\n    tag_93:\n      mload(0x40)\n      dup1\n      0x60\n      add\n      0x40\n      mstore\n      dup1\n      0x60\n      dup2\n      mstore\n      0x20\n      add\n      0x60\n      dup2\n      mstore\n      0x20\n      add\n      0x60\n      dup2\n      mstore\n      pop\n      swap1\n      jump\t// out\n    tag_172:\n      mload(0x40)\n      dup1\n      0x40\n      add\n      0x40\n      mstore\n      dup1\n      and(0xffffffffffffffffffffffffffffffffffffffff, 0x00)\n      dup2\n      mstore\n      0x20\n      add\n      and(0xffff, 0x00)\n      dup2\n      mstore\n      pop\n      swap1\n      jump\t// out\n        /* \"#utility.yul\":7:97   */\n    tag_254:\n        /* \"#utility.yul\":41:48   */\n      0x00\n        /* \"#utility.yul\":84:89   */\n      dup2\n        /* \"#utility.yul\":77:90   */\n      iszero\n        /* \"#utility.yul\":70:91   */\n      iszero\n        /* \"#utility.yul\":59:91   */\n      swap1\n      pop\n        /* \"#utility.yul\":7:97   */\n      swap2\n      swap1\n      pop\n      jump\t// out\n        /* \"#utility.yul\":103:212   */\n    tag_255:\n        /* \"#utility.yul\":184:205   */\n      tag_383\n        /* \"#utility.yul\":199:204   */\n      dup2\n        /* \"#utility.yul\":184:205   */\n      tag_254\n      jump\t// in\n    tag_383:\n        /* \"#utility.yul\":179:182   */\n      dup3\n        /* \"#utility.yul\":172:206   */\n      mstore\n        /* \"#utility.yul\":103:212   */\n      pop\n      pop\n      jump\t// out\n        /* \"#utility.yul\":218:428   */\n    tag_17:\n        /* \"#utility.yul\":305:309   */\n      0x00\n        /* \"#utility.yul\":343:345   */\n      0x20\n        /* \"#utility.yul\":332:341   */\n      dup3\n        /* \"#utility.yul\":328:346   */\n      add\n        /* \"#utility.yul\":320:346   */\n      swap1\n      pop\n        /* \"#utility.yul\":356:421   */\n      tag_385\n        /* \"#utility.yul\":418:419   */\n      0x00\n        /* \"#utility.yul\":407:416   */\n      dup4\n        /* \"#utility.yul\":403:420   */\n      add\n        /* \"#utility.yul\":394:400   */\n      dup5\n        /* \"#utility.yul\":356:421   */\n      tag_255\n      jump\t// in\n    tag_385:\n        /* \"#utility.yul\":218:428   */\n      swap3\n      swap2\n      pop\n      pop\n      jump\t// out\n        /* \"#utility.yul\":434:509   */\n    tag_256:\n        /* \"#utility.yul\":467:473   */\n      0x00\n        /* \"#utility.yul\":500:502   */\n      0x40\n        /* \"#utility.yul\":494:503   */\n      mload\n        /* \"#utility.yul\":484:503   */\n      swap1\n      pop\n        /* \"#utility.yul\":434:509   */\n      swap1\n      jump\t// out\n        /* \"#utility.yul\":515:632   */\n    tag_257:\n        /* \"#utility.yul\":624:625   */\n      0x00\n        /* \"#utility.yul\":621:622   */\n      0x00\n        /* \"#utility.yul\":614:626   */\n      revert\n        /* \"#utility.yul\":638:755   */\n    tag_258:\n        /* \"#utility.yul\":747:748   */\n      0x00\n        /* \"#utility.yul\":744:745   */\n      0x00\n        /* \"#utility.yul\":737:749   */\n      revert\n        /* \"#utility.yul\":761:878   */\n    tag_259:\n        /* \"#utility.yul\":870:871   */\n      0x00\n        /* \"#utility.yul\":867:868   */\n      0x00\n        /* \"#utility.yul\":860:872   */\n      revert\n        /* \"#utility.yul\":884:1001   */\n    tag_260:\n        /* \"#utility.yul\":993:994   */\n      0x00\n        /* \"#utility.yul\":990:991   */\n      0x00\n        /* \"#utility.yul\":983:995   */\n      revert\n        /* \"#utility.yul\":1007:1109   */\n    tag_261:\n        /* \"#utility.yul\":1048:1054   */\n      0x00\n        /* \"#utility.yul\":1099:1101   */\n      0x1f\n        /* \"#utility.yul\":1095:1102   */\n      not\n        /* \"#utility.yul\":1090:1092   */\n      0x1f\n        /* \"#utility.yul\":1083:1088   */\n      dup4\n        /* \"#utility.yul\":1079:1093   */\n      add\n        /* \"#utility.yul\":1075:1103   */\n      and\n        /* \"#utility.yul\":1065:1103   */\n      swap1\n      pop\n        /* \"#utility.yul\":1007:1109   */\n      swap2\n      swap1\n      pop\n      jump\t// out\n        /* \"#utility.yul\":1115:1295   */\n    tag_168:\n        /* \"#utility.yul\":1163:1240   */\n      0x4e487b7100000000000000000000000000000000000000000000000000000000\n        /* \"#utility.yul\":1160:1161   */\n      0x00\n        /* \"#utility.yul\":1153:1241   */\n      mstore\n        /* \"#utility.yul\":1260:1264   */\n      0x41\n        /* \"#utility.yul\":1257:1258   */\n      0x04\n        /* \"#utility.yul\":1250:1265   */\n      mstore\n        /* \"#utility.yul\":1284:1288   */\n      0x24\n        /* \"#utility.yul\":1281:1282   */\n      0x00\n        /* \"#utility.yul\":1274:1289   */\n      revert\n        /* \"#utility.yul\":1301:1582   */\n    tag_262:\n        /* \"#utility.yul\":1384:1411   */\n      tag_394\n        /* \"#utility.yul\":1406:1410   */\n      dup3\n        /* \"#utility.yul\":1384:1411   */\n      tag_261\n      jump\t// in\n    tag_394:\n        /* \"#utility.yul\":1376:1382   */\n      dup2\n        /* \"#utility.yul\":1372:1412   */\n      add\n        /* \"#utility.yul\":1514:1520   */\n      dup2\n        /* \"#utility.yul\":1502:1512   */\n      dup2\n        /* \"#utility.yul\":1499:1521   */\n      lt\n        /* \"#utility.yul\":1478:1496   */\n      0xffffffffffffffff\n        /* \"#utility.yul\":1466:1476   */\n      dup3\n        /* \"#utility.yul\":1463:1497   */\n      gt\n        /* \"#utility.yul\":1460:1522   */\n      or\n        /* \"#utility.yul\":1457:1545   */\n      iszero\n      tag_395\n      jumpi\n        /* \"#utility.yul\":1525:1543   */\n      tag_396\n      tag_168\n      jump\t// in\n    tag_396:\n        /* \"#utility.yul\":1457:1545   */\n    tag_395:\n        /* \"#utility.yul\":1565:1575   */\n      dup1\n        /* \"#utility.yul\":1561:1563   */\n      0x40\n        /* \"#utility.yul\":1554:1576   */\n      mstore\n        /* \"#utility.yul\":1344:1582   */\n      pop\n        /* \"#utility.yul\":1301:1582   */\n      pop\n      pop\n      jump\t// out\n        /* \"#utility.yul\":1588:1717   */\n    tag_263:\n        /* \"#utility.yul\":1622:1628   */\n      0x00\n        /* \"#utility.yul\":1649:1669   */\n      tag_398\n      tag_256\n      jump\t// in\n    tag_398:\n        /* \"#utility.yul\":1639:1669   */\n      swap1\n      pop\n        /* \"#utility.yul\":1678:1711   */\n      tag_399\n        /* \"#utility.yul\":1706:1710   */\n      dup3\n        /* \"#utility.yul\":1698:1704   */\n      dup3\n        /* \"#utility.yul\":1678:1711   */\n      tag_262\n      jump\t// in\n    tag_399:\n        /* \"#utility.yul\":1588:1717   */\n      swap2\n      swap1\n      pop\n      jump\t// out\n        /* \"#utility.yul\":1723:2031   */\n    tag_264:\n        /* \"#utility.yul\":1785:1789   */\n      0x00\n        /* \"#utility.yul\":1875:1893   */\n      0xffffffffffffffff\n        /* \"#utility.yul\":1867:1873   */\n      dup3\n        /* \"#utility.yul\":1864:1894   */\n      gt\n        /* \"#utility.yul\":1861:1917   */\n      iszero\n      tag_401\n      jumpi\n        /* \"#utility.yul\":1897:1915   */\n      tag_402\n      tag_168\n      jump\t// in\n    tag_402:\n        /* \"#utility.yul\":1861:1917   */\n    tag_401:\n        /* \"#utility.yul\":1935:1964   */\n      tag_403\n        /* \"#utility.yul\":1957:1963   */\n      dup3\n        /* \"#utility.yul\":1935:1964   */\n      tag_261\n      jump\t// in\n    tag_403:\n        /* \"#utility.yul\":1927:1964   */\n      swap1\n      pop\n        /* \"#utility.yul\":2019:2023   */\n      0x20\n        /* \"#utility.yul\":2013:2017   */\n      dup2\n        /* \"#utility.yul\":2009:2024   */\n      add\n        /* \"#utility.yul\":2001:2024   */\n      swap1\n      pop\n        /* \"#utility.yul\":1723:2031   */\n      swap2\n      swap1\n      pop\n      jump\t// out\n        /* \"#utility.yul\":2037:2185   */\n    tag_265:\n        /* \"#utility.yul\":2135:2141   */\n      dup3\n        /* \"#utility.yul\":2130:2133   */\n      dup2\n        /* \"#utility.yul\":2125:2128   */\n      dup4\n        /* \"#utility.yul\":2112:2142   */\n      calldatacopy\n        /* \"#utility.yul\":2176:2177   */\n      0x00\n        /* \"#utility.yul\":2167:2173   */\n      dup4\n        /* \"#utility.yul\":2162:2165   */\n      dup4\n        /* \"#utility.yul\":2158:2174   */\n      add\n        /* \"#utility.yul\":2151:2178   */\n      mstore\n        /* \"#utility.yul\":2037:2185   */\n      pop\n      pop\n      pop\n      jump\t// out\n        /* \"#utility.yul\":2191:2616   */\n    tag_266:\n        /* \"#utility.yul\":2269:2274   */\n      0x00\n        /* \"#utility.yul\":2294:2360   */\n      tag_406\n        /* \"#utility.yul\":2310:2359   */\n      tag_407\n        /* \"#utility.yul\":2352:2358   */\n      dup5\n        /* \"#utility.yul\":2310:2359   */\n      tag_264\n      jump\t// in\n    tag_407:\n        /* \"#utility.yul\":2294:2360   */\n      tag_263\n      jump\t// in\n    tag_406:\n        /* \"#utility.yul\":2285:2360   */\n      swap1\n      pop\n        /* \"#utility.yul\":2383:2389   */\n      dup3\n        /* \"#utility.yul\":2376:2381   */\n      dup2\n        /* \"#utility.yul\":2369:2390   */\n      mstore\n        /* \"#utility.yul\":2421:2425   */\n      0x20\n        /* \"#utility.yul\":2414:2419   */\n      dup2\n        /* \"#utility.yul\":2410:2426   */\n      add\n        /* \"#utility.yul\":2459:2462   */\n      dup5\n        /* \"#utility.yul\":2450:2456   */\n      dup5\n        /* \"#utility.yul\":2445:2448   */\n      dup5\n        /* \"#utility.yul\":2441:2457   */\n      add\n        /* \"#utility.yul\":2438:2463   */\n      gt\n        /* \"#utility.yul\":2435:2547   */\n      iszero\n      tag_408\n      jumpi\n        /* \"#utility.yul\":2466:2545   */\n      tag_409\n      tag_260\n      jump\t// in\n    tag_409:\n        /* \"#utility.yul\":2435:2547   */\n    tag_408:\n        /* \"#utility.yul\":2556:2610   */\n      tag_410\n        /* \"#utility.yul\":2603:2609   */\n      dup5\n        /* \"#utility.yul\":2598:2601   */\n      dup3\n        /* \"#utility.yul\":2593:2596   */\n      dup6\n        /* \"#utility.yul\":2556:2610   */\n      tag_265\n      jump\t// in\n    tag_410:\n        /* \"#utility.yul\":2275:2616   */\n      pop\n        /* \"#utility.yul\":2191:2616   */\n      swap4\n      swap3\n      pop\n      pop\n      pop\n      jump\t// out\n        /* \"#utility.yul\":2636:2976   */\n    tag_267:\n        /* \"#utility.yul\":2692:2697   */\n      0x00\n        /* \"#utility.yul\":2741:2744   */\n      dup3\n        /* \"#utility.yul\":2734:2738   */\n      0x1f\n        /* \"#utility.yul\":2726:2732   */\n      dup4\n        /* \"#utility.yul\":2722:2739   */\n      add\n        /* \"#utility.yul\":2718:2745   */\n      slt\n        /* \"#utility.yul\":2708:2830   */\n      tag_412\n      jumpi\n        /* \"#utility.yul\":2749:2828   */\n      tag_413\n      tag_259\n      jump\t// in\n    tag_413:\n        /* \"#utility.yul\":2708:2830   */\n    tag_412:\n        /* \"#utility.yul\":2866:2872   */\n      dup2\n        /* \"#utility.yul\":2853:2873   */\n      calldataload\n        /* \"#utility.yul\":2891:2970   */\n      tag_414\n        /* \"#utility.yul\":2966:2969   */\n      dup5\n        /* \"#utility.yul\":2958:2964   */\n      dup3\n        /* \"#utility.yul\":2951:2955   */\n      0x20\n        /* \"#utility.yul\":2943:2949   */\n      dup7\n        /* \"#utility.yul\":2939:2956   */\n      add\n        /* \"#utility.yul\":2891:2970   */\n      tag_266\n      jump\t// in\n    tag_414:\n        /* \"#utility.yul\":2882:2970   */\n      swap2\n      pop\n        /* \"#utility.yul\":2698:2976   */\n      pop\n        /* \"#utility.yul\":2636:2976   */\n      swap3\n      swap2\n      pop\n      pop\n      jump\t// out\n        /* \"#utility.yul\":2982:3491   */\n    tag_20:\n        /* \"#utility.yul\":3051:3057   */\n      0x00\n        /* \"#utility.yul\":3100:3102   */\n      0x20\n        /* \"#utility.yul\":3088:3097   */\n      dup3\n        /* \"#utility.yul\":3079:3086   */\n      dup5\n        /* \"#utility.yul\":3075:3098   */\n      sub\n        /* \"#utility.yul\":3071:3103   */\n      slt\n        /* \"#utility.yul\":3068:3187   */\n      iszero\n      tag_416\n      jumpi\n        /* \"#utility.yul\":3106:3185   */\n      tag_417\n      tag_257\n      jump\t// in\n    tag_417:\n        /* \"#utility.yul\":3068:3187   */\n    tag_416:\n        /* \"#utility.yul\":3254:3255   */\n      0x00\n        /* \"#utility.yul\":3243:3252   */\n      dup3\n        /* \"#utility.yul\":3239:3256   */\n      add\n        /* \"#utility.yul\":3226:3257   */\n      calldataload\n        /* \"#utility.yul\":3284:3302   */\n      0xffffffffffffffff\n        /* \"#utility.yul\":3276:3282   */\n      dup2\n        /* \"#utility.yul\":3273:3303   */\n      gt\n        /* \"#utility.yul\":3270:3387   */\n      iszero\n      tag_418\n      jumpi\n        /* \"#utility.yul\":3306:3385   */\n      tag_419\n      tag_258\n      jump\t// in\n    tag_419:\n        /* \"#utility.yul\":3270:3387   */\n    tag_418:\n        /* \"#utility.yul\":3411:3474   */\n      tag_420\n        /* \"#utility.yul\":3466:3473   */\n      dup5\n        /* \"#utility.yul\":3457:3463   */\n      dup3\n        /* \"#utility.yul\":3446:3455   */\n      dup6\n        /* \"#utility.yul\":3442:3464   */\n      add\n        /* \"#utility.yul\":3411:3474   */\n      tag_267\n      jump\t// in\n    tag_420:\n        /* \"#utility.yul\":3401:3474   */\n      swap2\n      pop\n        /* \"#utility.yul\":3197:3484   */\n      pop\n        /* \"#utility.yul\":2982:3491   */\n      swap3\n      swap2\n      pop\n      pop\n      jump\t// out\n        /* \"#utility.yul\":3497:3623   */\n    tag_268:\n        /* \"#utility.yul\":3534:3541   */\n      0x00\n        /* \"#utility.yul\":3574:3616   */\n      0xffffffffffffffffffffffffffffffffffffffff\n        /* \"#utility.yul\":3567:3572   */\n      dup3\n        /* \"#utility.yul\":3563:3617   */\n      and\n        /* \"#utility.yul\":3552:3617   */\n      swap1\n      pop\n        /* \"#utility.yul\":3497:3623   */\n      swap2\n      swap1\n      pop\n      jump\t// out\n        /* \"#utility.yul\":3629:3725   */\n    tag_269:\n        /* \"#utility.yul\":3666:3673   */\n      0x00\n        /* \"#utility.yul\":3695:3719   */\n      tag_423\n        /* \"#utility.yul\":3713:3718   */\n      dup3\n        /* \"#utility.yul\":3695:3719   */\n      tag_268\n      jump\t// in\n    tag_423:\n        /* \"#utility.yul\":3684:3719   */\n      swap1\n      pop\n        /* \"#utility.yul\":3629:3725   */\n      swap2\n      swap1\n      pop\n      jump\t// out\n        /* \"#utility.yul\":3731:3849   */\n    tag_270:\n        /* \"#utility.yul\":3818:3842   */\n      tag_425\n        /* \"#utility.yul\":3836:3841   */\n      dup2\n        /* \"#utility.yul\":3818:3842   */\n      tag_269\n      jump\t// in\n    tag_425:\n        /* \"#utility.yul\":3813:3816   */\n      dup3\n        /* \"#utility.yul\":3806:3843   */\n      mstore\n        /* \"#utility.yul\":3731:3849   */\n      pop\n      pop\n      jump\t// out\n        /* \"#utility.yul\":3855:4077   */\n    tag_23:\n        /* \"#utility.yul\":3948:3952   */\n      0x00\n        /* \"#utility.yul\":3986:3988   */\n      0x20\n        /* \"#utility.yul\":3975:3984   */\n      dup3\n        /* \"#utility.yul\":3971:3989   */\n      add\n        /* \"#utility.yul\":3963:3989   */\n      swap1\n      pop\n        /* \"#utility.yul\":3999:4070   */\n      tag_427\n        /* \"#utility.yul\":4067:4068   */\n      0x00\n        /* \"#utility.yul\":4056:4065   */\n      dup4\n        /* \"#utility.yul\":4052:4069   */\n      add\n        /* \"#utility.yul\":4043:4049   */\n      dup5\n        /* \"#utility.yul\":3999:4070   */\n      tag_270\n      jump\t// in\n    tag_427:\n        /* \"#utility.yul\":3855:4077   */\n      swap3\n      swap2\n      pop\n      pop\n      jump\t// out\n        /* \"#utility.yul\":4083:4160   */\n    tag_271:\n        /* \"#utility.yul\":4120:4127   */\n      0x00\n        /* \"#utility.yul\":4149:4154   */\n      dup2\n        /* \"#utility.yul\":4138:4154   */\n      swap1\n      pop\n        /* \"#utility.yul\":4083:4160   */\n      swap2\n      swap1\n      pop\n      jump\t// out\n        /* \"#utility.yul\":4166:4284   */\n    tag_272:\n        /* \"#utility.yul\":4253:4277   */\n      tag_430\n        /* \"#utility.yul\":4271:4276   */\n      dup2\n        /* \"#utility.yul\":4253:4277   */\n      tag_271\n      jump\t// in\n    tag_430:\n        /* \"#utility.yul\":4248:4251   */\n      dup3\n        /* \"#utility.yul\":4241:4278   */\n      mstore\n        /* \"#utility.yul\":4166:4284   */\n      pop\n      pop\n      jump\t// out\n        /* \"#utility.yul\":4290:4512   */\n    tag_27:\n        /* \"#utility.yul\":4383:4387   */\n      0x00\n        /* \"#utility.yul\":4421:4423   */\n      0x20\n        /* \"#utility.yul\":4410:4419   */\n      dup3\n        /* \"#utility.yul\":4406:4424   */\n      add\n        /* \"#utility.yul\":4398:4424   */\n      swap1\n      pop\n        /* \"#utility.yul\":4434:4505   */\n      tag_432\n        /* \"#utility.yul\":4502:4503   */\n      0x00\n        /* \"#utility.yul\":4491:4500   */\n      dup4\n        /* \"#utility.yul\":4487:4504   */\n      add\n        /* \"#utility.yul\":4478:4484   */\n      dup5\n        /* \"#utility.yul\":4434:4505   */\n      tag_272\n      jump\t// in\n    tag_432:\n        /* \"#utility.yul\":4290:4512   */\n      swap3\n      swap2\n      pop\n      pop\n      jump\t// out\n        /* \"#utility.yul\":4518:4635   */\n    tag_273:\n        /* \"#utility.yul\":4627:4628   */\n      0x00\n        /* \"#utility.yul\":4624:4625   */\n      0x00\n        /* \"#utility.yul\":4617:4629   */\n      revert\n        /* \"#utility.yul\":4661:4889   */\n    tag_274:\n        /* \"#utility.yul\":4731:4736   */\n      0x00\n        /* \"#utility.yul\":4772:4774   */\n      0x60\n        /* \"#utility.yul\":4763:4769   */\n      dup3\n        /* \"#utility.yul\":4758:4761   */\n      dup5\n        /* \"#utility.yul\":4754:4770   */\n      sub\n        /* \"#utility.yul\":4750:4775   */\n      slt\n        /* \"#utility.yul\":4747:4859   */\n      iszero\n      tag_435\n      jumpi\n        /* \"#utility.yul\":4778:4857   */\n      tag_436\n      tag_273\n      jump\t// in\n    tag_436:\n        /* \"#utility.yul\":4747:4859   */\n    tag_435:\n        /* \"#utility.yul\":4877:4883   */\n      dup2\n        /* \"#utility.yul\":4868:4883   */\n      swap1\n      pop\n        /* \"#utility.yul\":4661:4889   */\n      swap3\n      swap2\n      pop\n      pop\n      jump\t// out\n        /* \"#utility.yul\":4895:5432   */\n    tag_30:\n        /* \"#utility.yul\":4978:4984   */\n      0x00\n        /* \"#utility.yul\":5027:5029   */\n      0x20\n        /* \"#utility.yul\":5015:5024   */\n      dup3\n        /* \"#utility.yul\":5006:5013   */\n      dup5\n        /* \"#utility.yul\":5002:5025   */\n      sub\n        /* \"#utility.yul\":4998:5030   */\n      slt\n        /* \"#utility.yul\":4995:5114   */\n      iszero\n      tag_438\n      jumpi\n        /* \"#utility.yul\":5033:5112   */\n      tag_439\n      tag_257\n      jump\t// in\n    tag_439:\n        /* \"#utility.yul\":4995:5114   */\n    tag_438:\n        /* \"#utility.yul\":5181:5182   */\n      0x00\n        /* \"#utility.yul\":5170:5179   */\n      dup3\n        /* \"#utility.yul\":5166:5183   */\n      add\n        /* \"#utility.yul\":5153:5184   */\n      calldataload\n        /* \"#utility.yul\":5211:5229   */\n      0xffffffffffffffff\n        /* \"#utility.yul\":5203:5209   */\n      dup2\n        /* \"#utility.yul\":5200:5230   */\n      gt\n        /* \"#utility.yul\":5197:5314   */\n      iszero\n      tag_440\n      jumpi\n        /* \"#utility.yul\":5233:5312   */\n      tag_441\n      tag_258\n      jump\t// in\n    tag_441:\n        /* \"#utility.yul\":5197:5314   */\n    tag_440:\n        /* \"#utility.yul\":5338:5415   */\n      tag_442\n        /* \"#utility.yul\":5407:5414   */\n      dup5\n        /* \"#utility.yul\":5398:5404   */\n      dup3\n        /* \"#utility.yul\":5387:5396   */\n      dup6\n        /* \"#utility.yul\":5383:5405   */\n      add\n        /* \"#utility.yul\":5338:5415   */\n      tag_274\n      jump\t// in\n    tag_442:\n        /* \"#utility.yul\":5328:5415   */\n      swap2\n      pop\n        /* \"#utility.yul\":5124:5425   */\n      pop\n        /* \"#utility.yul\":4895:5432   */\n      swap3\n      swap2\n      pop\n      pop\n      jump\t// out\n        /* \"#utility.yul\":5438:5560   */\n    tag_275:\n        /* \"#utility.yul\":5511:5535   */\n      tag_444\n        /* \"#utility.yul\":5529:5534   */\n      dup2\n        /* \"#utility.yul\":5511:5535   */\n      tag_271\n      jump\t// in\n    tag_444:\n        /* \"#utility.yul\":5504:5509   */\n      dup2\n        /* \"#utility.yul\":5501:5536   */\n      eq\n        /* \"#utility.yul\":5491:5554   */\n      tag_445\n      jumpi\n        /* \"#utility.yul\":5550:5551   */\n      0x00\n        /* \"#utility.yul\":5547:5548   */\n      0x00\n        /* \"#utility.yul\":5540:5552   */\n      revert\n        /* \"#utility.yul\":5491:5554   */\n    tag_445:\n        /* \"#utility.yul\":5438:5560   */\n      pop\n      jump\t// out\n        /* \"#utility.yul\":5566:5705   */\n    tag_276:\n        /* \"#utility.yul\":5612:5617   */\n      0x00\n        /* \"#utility.yul\":5650:5656   */\n      dup2\n        /* \"#utility.yul\":5637:5657   */\n      calldataload\n        /* \"#utility.yul\":5628:5657   */\n      swap1\n      pop\n        /* \"#utility.yul\":5666:5699   */\n      tag_447\n        /* \"#utility.yul\":5693:5698   */\n      dup2\n        /* \"#utility.yul\":5666:5699   */\n      tag_275\n      jump\t// in\n    tag_447:\n        /* \"#utility.yul\":5566:5705   */\n      swap3\n      swap2\n      pop\n      pop\n      jump\t// out\n        /* \"#utility.yul\":5711:6040   */\n    tag_35:\n        /* \"#utility.yul\":5770:5776   */\n      0x00\n        /* \"#utility.yul\":5819:5821   */\n      0x20\n        /* \"#utility.yul\":5807:5816   */\n      dup3\n        /* \"#utility.yul\":5798:5805   */\n      dup5\n        /* \"#utility.yul\":5794:5817   */\n      sub\n        /* \"#utility.yul\":5790:5822   */\n      slt\n        /* \"#utility.yul\":5787:5906   */\n      iszero\n      tag_449\n      jumpi\n        /* \"#utility.yul\":5825:5904   */\n      tag_450\n      tag_257\n      jump\t// in\n    tag_450:\n        /* \"#utility.yul\":5787:5906   */\n    tag_449:\n        /* \"#utility.yul\":5945:5946   */\n      0x00\n        /* \"#utility.yul\":5970:6023   */\n      tag_451\n        /* \"#utility.yul\":6015:6022   */\n      dup5\n        /* \"#utility.yul\":6006:6012   */\n      dup3\n        /* \"#utility.yul\":5995:6004   */\n      dup6\n        /* \"#utility.yul\":5991:6013   */\n      add\n        /* \"#utility.yul\":5970:6023   */\n      tag_276\n      jump\t// in\n    tag_451:\n        /* \"#utility.yul\":5960:6023   */\n      swap2\n      pop\n        /* \"#utility.yul\":5916:6033   */\n      pop\n        /* \"#utility.yul\":5711:6040   */\n      swap3\n      swap2\n      pop\n      pop\n      jump\t// out\n        /* \"#utility.yul\":6046:6145   */\n    tag_277:\n        /* \"#utility.yul\":6098:6104   */\n      0x00\n        /* \"#utility.yul\":6132:6137   */\n      dup2\n        /* \"#utility.yul\":6126:6138   */\n      mload\n        /* \"#utility.yul\":6116:6138   */\n      swap1\n      pop\n        /* \"#utility.yul\":6046:6145   */\n      swap2\n      swap1\n      pop\n      jump\t// out\n        /* \"#utility.yul\":6151:6310   */\n    tag_278:\n        /* \"#utility.yul\":6225:6236   */\n      0x00\n        /* \"#utility.yul\":6259:6265   */\n      dup3\n        /* \"#utility.yul\":6254:6257   */\n      dup3\n        /* \"#utility.yul\":6247:6266   */\n      mstore\n        /* \"#utility.yul\":6299:6303   */\n      0x20\n        /* \"#utility.yul\":6294:6297   */\n      dup3\n        /* \"#utility.yul\":6290:6304   */\n      add\n        /* \"#utility.yul\":6275:6304   */\n      swap1\n      pop\n        /* \"#utility.yul\":6151:6310   */\n      swap3\n      swap2\n      pop\n      pop\n      jump\t// out\n        /* \"#utility.yul\":6316:6455   */\n    tag_279:\n        /* \"#utility.yul\":6405:6411   */\n      dup3\n        /* \"#utility.yul\":6400:6403   */\n      dup2\n        /* \"#utility.yul\":6395:6398   */\n      dup4\n        /* \"#utility.yul\":6389:6412   */\n      mcopy\n        /* \"#utility.yul\":6446:6447   */\n      0x00\n        /* \"#utility.yul\":6437:6443   */\n      dup4\n        /* \"#utility.yul\":6432:6435   */\n      dup4\n        /* \"#utility.yul\":6428:6444   */\n      add\n        /* \"#utility.yul\":6421:6448   */\n      mstore\n        /* \"#utility.yul\":6316:6455   */\n      pop\n      pop\n      pop\n      jump\t// out\n        /* \"#utility.yul\":6461:6818   */\n    tag_280:\n        /* \"#utility.yul\":6539:6542   */\n      0x00\n        /* \"#utility.yul\":6567:6606   */\n      tag_456\n        /* \"#utility.yul\":6600:6605   */\n      dup3\n        /* \"#utility.yul\":6567:6606   */\n      tag_277\n      jump\t// in\n    tag_456:\n        /* \"#utility.yul\":6622:6683   */\n      tag_457\n        /* \"#utility.yul\":6676:6682   */\n      dup2\n        /* \"#utility.yul\":6671:6674   */\n      dup6\n        /* \"#utility.yul\":6622:6683   */\n      tag_278\n      jump\t// in\n    tag_457:\n        /* \"#utility.yul\":6615:6683   */\n      swap4\n      pop\n        /* \"#utility.yul\":6692:6757   */\n      tag_458\n        /* \"#utility.yul\":6750:6756   */\n      dup2\n        /* \"#utility.yul\":6745:6748   */\n      dup6\n        /* \"#utility.yul\":6738:6742   */\n      0x20\n        /* \"#utility.yul\":6731:6736   */\n      dup7\n        /* \"#utility.yul\":6727:6743   */\n      add\n        /* \"#utility.yul\":6692:6757   */\n      tag_279\n      jump\t// in\n    tag_458:\n        /* \"#utility.yul\":6782:6811   */\n      tag_459\n        /* \"#utility.yul\":6804:6810   */\n      dup2\n        /* \"#utility.yul\":6782:6811   */\n      tag_261\n      jump\t// in\n    tag_459:\n        /* \"#utility.yul\":6777:6780   */\n      dup5\n        /* \"#utility.yul\":6773:6812   */\n      add\n        /* \"#utility.yul\":6766:6812   */\n      swap2\n      pop\n        /* \"#utility.yul\":6543:6818   */\n      pop\n        /* \"#utility.yul\":6461:6818   */\n      swap3\n      swap2\n      pop\n      pop\n      jump\t// out\n        /* \"#utility.yul\":6824:6962   */\n    tag_281:\n        /* \"#utility.yul\":6915:6921   */\n      0x00\n        /* \"#utility.yul\":6949:6954   */\n      dup2\n        /* \"#utility.yul\":6943:6955   */\n      mload\n        /* \"#utility.yul\":6933:6955   */\n      swap1\n      pop\n        /* \"#utility.yul\":6824:6962   */\n      swap2\n      swap1\n      pop\n      jump\t// out\n        /* \"#utility.yul\":6968:7166   */\n    tag_282:\n        /* \"#utility.yul\":7081:7092   */\n      0x00\n        /* \"#utility.yul\":7115:7121   */\n      dup3\n        /* \"#utility.yul\":7110:7113   */\n      dup3\n        /* \"#utility.yul\":7103:7122   */\n      mstore\n        /* \"#utility.yul\":7155:7159   */\n      0x20\n        /* \"#utility.yul\":7150:7153   */\n      dup3\n        /* \"#utility.yul\":7146:7160   */\n      add\n        /* \"#utility.yul\":7131:7160   */\n      swap1\n      pop\n        /* \"#utility.yul\":6968:7166   */\n      swap3\n      swap2\n      pop\n      pop\n      jump\t// out\n        /* \"#utility.yul\":7172:7328   */\n    tag_283:\n        /* \"#utility.yul\":7263:7267   */\n      0x00\n        /* \"#utility.yul\":7286:7289   */\n      dup2\n        /* \"#utility.yul\":7278:7289   */\n      swap1\n      pop\n        /* \"#utility.yul\":7316:7320   */\n      0x20\n        /* \"#utility.yul\":7311:7314   */\n      dup3\n        /* \"#utility.yul\":7307:7321   */\n      add\n        /* \"#utility.yul\":7299:7321   */\n      swap1\n      pop\n        /* \"#utility.yul\":7172:7328   */\n      swap2\n      swap1\n      pop\n      jump\t// out\n        /* \"#utility.yul\":7334:7442   */\n    tag_284:\n        /* \"#utility.yul\":7411:7435   */\n      tag_464\n        /* \"#utility.yul\":7429:7434   */\n      dup2\n        /* \"#utility.yul\":7411:7435   */\n      tag_269\n      jump\t// in\n    tag_464:\n        /* \"#utility.yul\":7406:7409   */\n      dup3\n        /* \"#utility.yul\":7399:7436   */\n      mstore\n        /* \"#utility.yul\":7334:7442   */\n      pop\n      pop\n      jump\t// out\n        /* \"#utility.yul\":7448:7537   */\n    tag_285:\n        /* \"#utility.yul\":7484:7491   */\n      0x00\n        /* \"#utility.yul\":7524:7530   */\n      0xffff\n        /* \"#utility.yul\":7517:7522   */\n      dup3\n        /* \"#utility.yul\":7513:7531   */\n      and\n        /* \"#utility.yul\":7502:7531   */\n      swap1\n      pop\n        /* \"#utility.yul\":7448:7537   */\n      swap2\n      swap1\n      pop\n      jump\t// out\n        /* \"#utility.yul\":7543:7648   */\n    tag_286:\n        /* \"#utility.yul\":7618:7641   */\n      tag_467\n        /* \"#utility.yul\":7635:7640   */\n      dup2\n        /* \"#utility.yul\":7618:7641   */\n      tag_285\n      jump\t// in\n    tag_467:\n        /* \"#utility.yul\":7613:7616   */\n      dup3\n        /* \"#utility.yul\":7606:7642   */\n      mstore\n        /* \"#utility.yul\":7543:7648   */\n      pop\n      pop\n      jump\t// out\n        /* \"#utility.yul\":7694:8201   */\n    tag_287:\n        /* \"#utility.yul\":7829:7833   */\n      0x40\n        /* \"#utility.yul\":7824:7827   */\n      dup3\n        /* \"#utility.yul\":7820:7834   */\n      add\n        /* \"#utility.yul\":7924:7928   */\n      0x00\n        /* \"#utility.yul\":7917:7922   */\n      dup3\n        /* \"#utility.yul\":7913:7929   */\n      add\n        /* \"#utility.yul\":7907:7930   */\n      mload\n        /* \"#utility.yul\":7943:8006   */\n      tag_469\n        /* \"#utility.yul\":8000:8004   */\n      0x00\n        /* \"#utility.yul\":7995:7998   */\n      dup6\n        /* \"#utility.yul\":7991:8005   */\n      add\n        /* \"#utility.yul\":7977:7989   */\n      dup3\n        /* \"#utility.yul\":7943:8006   */\n      tag_284\n      jump\t// in\n    tag_469:\n        /* \"#utility.yul\":7844:8016   */\n      pop\n        /* \"#utility.yul\":8104:8108   */\n      0x20\n        /* \"#utility.yul\":8097:8102   */\n      dup3\n        /* \"#utility.yul\":8093:8109   */\n      add\n        /* \"#utility.yul\":8087:8110   */\n      mload\n        /* \"#utility.yul\":8123:8184   */\n      tag_470\n        /* \"#utility.yul\":8178:8182   */\n      0x20\n        /* \"#utility.yul\":8173:8176   */\n      dup6\n        /* \"#utility.yul\":8169:8183   */\n      add\n        /* \"#utility.yul\":8155:8167   */\n      dup3\n        /* \"#utility.yul\":8123:8184   */\n      tag_286\n      jump\t// in\n    tag_470:\n        /* \"#utility.yul\":8026:8194   */\n      pop\n        /* \"#utility.yul\":7798:8201   */\n      pop\n        /* \"#utility.yul\":7694:8201   */\n      pop\n      pop\n      jump\t// out\n        /* \"#utility.yul\":8207:8482   */\n    tag_288:\n        /* \"#utility.yul\":8324:8334   */\n      0x00\n        /* \"#utility.yul\":8345:8439   */\n      tag_472\n        /* \"#utility.yul\":8435:8438   */\n      dup4\n        /* \"#utility.yul\":8427:8433   */\n      dup4\n        /* \"#utility.yul\":8345:8439   */\n      tag_287\n      jump\t// in\n    tag_472:\n        /* \"#utility.yul\":8471:8475   */\n      0x40\n        /* \"#utility.yul\":8466:8469   */\n      dup4\n        /* \"#utility.yul\":8462:8476   */\n      add\n        /* \"#utility.yul\":8448:8476   */\n      swap1\n      pop\n        /* \"#utility.yul\":8207:8482   */\n      swap3\n      swap2\n      pop\n      pop\n      jump\t// out\n        /* \"#utility.yul\":8488:8625   */\n    tag_289:\n        /* \"#utility.yul\":8582:8586   */\n      0x00\n        /* \"#utility.yul\":8614:8618   */\n      0x20\n        /* \"#utility.yul\":8609:8612   */\n      dup3\n        /* \"#utility.yul\":8605:8619   */\n      add\n        /* \"#utility.yul\":8597:8619   */\n      swap1\n      pop\n        /* \"#utility.yul\":8488:8625   */\n      swap2\n      swap1\n      pop\n      jump\t// out\n        /* \"#utility.yul\":8675:9579   */\n    tag_290:\n        /* \"#utility.yul\":8832:8835   */\n      0x00\n        /* \"#utility.yul\":8861:8939   */\n      tag_475\n        /* \"#utility.yul\":8933:8938   */\n      dup3\n        /* \"#utility.yul\":8861:8939   */\n      tag_281\n      jump\t// in\n    tag_475:\n        /* \"#utility.yul\":8955:9055   */\n      tag_476\n        /* \"#utility.yul\":9048:9054   */\n      dup2\n        /* \"#utility.yul\":9043:9046   */\n      dup6\n        /* \"#utility.yul\":8955:9055   */\n      tag_282\n      jump\t// in\n    tag_476:\n        /* \"#utility.yul\":8948:9055   */\n      swap4\n      pop\n        /* \"#utility.yul\":9079:9159   */\n      tag_477\n        /* \"#utility.yul\":9153:9158   */\n      dup4\n        /* \"#utility.yul\":9079:9159   */\n      tag_283\n      jump\t// in\n    tag_477:\n        /* \"#utility.yul\":9182:9189   */\n      dup1\n        /* \"#utility.yul\":9213:9214   */\n      0x00\n        /* \"#utility.yul\":9198:9554   */\n    tag_478:\n        /* \"#utility.yul\":9223:9229   */\n      dup4\n        /* \"#utility.yul\":9220:9221   */\n      dup2\n        /* \"#utility.yul\":9217:9230   */\n      lt\n        /* \"#utility.yul\":9198:9554   */\n      iszero\n      tag_480\n      jumpi\n        /* \"#utility.yul\":9299:9305   */\n      dup2\n        /* \"#utility.yul\":9293:9306   */\n      mload\n        /* \"#utility.yul\":9326:9437   */\n      tag_481\n        /* \"#utility.yul\":9433:9436   */\n      dup9\n        /* \"#utility.yul\":9418:9431   */\n      dup3\n        /* \"#utility.yul\":9326:9437   */\n      tag_288\n      jump\t// in\n    tag_481:\n        /* \"#utility.yul\":9319:9437   */\n      swap8\n      pop\n        /* \"#utility.yul\":9460:9544   */\n      tag_482\n        /* \"#utility.yul\":9537:9543   */\n      dup4\n        /* \"#utility.yul\":9460:9544   */\n      tag_289\n      jump\t// in\n    tag_482:\n        /* \"#utility.yul\":9450:9544   */\n      swap3\n      pop\n        /* \"#utility.yul\":9258:9554   */\n      pop\n        /* \"#utility.yul\":9245:9246   */\n      0x01\n        /* \"#utility.yul\":9242:9243   */\n      dup2\n        /* \"#utility.yul\":9238:9247   */\n      add\n        /* \"#utility.yul\":9233:9247   */\n      swap1\n      pop\n        /* \"#utility.yul\":9198:9554   */\n      jump(tag_478)\n    tag_480:\n        /* \"#utility.yul\":9202:9216   */\n      pop\n        /* \"#utility.yul\":9570:9573   */\n      dup6\n        /* \"#utility.yul\":9563:9573   */\n      swap4\n      pop\n        /* \"#utility.yul\":8837:9579   */\n      pop\n      pop\n      pop\n        /* \"#utility.yul\":8675:9579   */\n      swap3\n      swap2\n      pop\n      pop\n      jump\t// out\n        /* \"#utility.yul\":9621:10621   */\n    tag_291:\n        /* \"#utility.yul\":9734:9737   */\n      0x00\n        /* \"#utility.yul\":9770:9774   */\n      0x60\n        /* \"#utility.yul\":9765:9768   */\n      dup4\n        /* \"#utility.yul\":9761:9775   */\n      add\n        /* \"#utility.yul\":9857:9861   */\n      0x00\n        /* \"#utility.yul\":9850:9855   */\n      dup4\n        /* \"#utility.yul\":9846:9862   */\n      add\n        /* \"#utility.yul\":9840:9863   */\n      mload\n        /* \"#utility.yul\":9910:9913   */\n      dup5\n        /* \"#utility.yul\":9904:9908   */\n      dup3\n        /* \"#utility.yul\":9900:9914   */\n      sub\n        /* \"#utility.yul\":9893:9897   */\n      0x00\n        /* \"#utility.yul\":9888:9891   */\n      dup7\n        /* \"#utility.yul\":9884:9898   */\n      add\n        /* \"#utility.yul\":9877:9915   */\n      mstore\n        /* \"#utility.yul\":9936:10009   */\n      tag_484\n        /* \"#utility.yul\":10004:10008   */\n      dup3\n        /* \"#utility.yul\":9990:10002   */\n      dup3\n        /* \"#utility.yul\":9936:10009   */\n      tag_280\n      jump\t// in\n    tag_484:\n        /* \"#utility.yul\":9928:10009   */\n      swap2\n      pop\n        /* \"#utility.yul\":9785:10020   */\n      pop\n        /* \"#utility.yul\":10104:10108   */\n      0x20\n        /* \"#utility.yul\":10097:10102   */\n      dup4\n        /* \"#utility.yul\":10093:10109   */\n      add\n        /* \"#utility.yul\":10087:10110   */\n      mload\n        /* \"#utility.yul\":10157:10160   */\n      dup5\n        /* \"#utility.yul\":10151:10155   */\n      dup3\n        /* \"#utility.yul\":10147:10161   */\n      sub\n        /* \"#utility.yul\":10140:10144   */\n      0x20\n        /* \"#utility.yul\":10135:10138   */\n      dup7\n        /* \"#utility.yul\":10131:10145   */\n      add\n        /* \"#utility.yul\":10124:10162   */\n      mstore\n        /* \"#utility.yul\":10183:10256   */\n      tag_485\n        /* \"#utility.yul\":10251:10255   */\n      dup3\n        /* \"#utility.yul\":10237:10249   */\n      dup3\n        /* \"#utility.yul\":10183:10256   */\n      tag_280\n      jump\t// in\n    tag_485:\n        /* \"#utility.yul\":10175:10256   */\n      swap2\n      pop\n        /* \"#utility.yul\":10030:10267   */\n      pop\n        /* \"#utility.yul\":10353:10357   */\n      0x40\n        /* \"#utility.yul\":10346:10351   */\n      dup4\n        /* \"#utility.yul\":10342:10358   */\n      add\n        /* \"#utility.yul\":10336:10359   */\n      mload\n        /* \"#utility.yul\":10406:10409   */\n      dup5\n        /* \"#utility.yul\":10400:10404   */\n      dup3\n        /* \"#utility.yul\":10396:10410   */\n      sub\n        /* \"#utility.yul\":10389:10393   */\n      0x40\n        /* \"#utility.yul\":10384:10387   */\n      dup7\n        /* \"#utility.yul\":10380:10394   */\n      add\n        /* \"#utility.yul\":10373:10411   */\n      mstore\n        /* \"#utility.yul\":10432:10583   */\n      tag_486\n        /* \"#utility.yul\":10578:10582   */\n      dup3\n        /* \"#utility.yul\":10564:10576   */\n      dup3\n        /* \"#utility.yul\":10432:10583   */\n      tag_290\n      jump\t// in\n    tag_486:\n        /* \"#utility.yul\":10424:10583   */\n      swap2\n      pop\n        /* \"#utility.yul\":10277:10594   */\n      pop\n        /* \"#utility.yul\":10611:10615   */\n      dup1\n        /* \"#utility.yul\":10604:10615   */\n      swap2\n      pop\n        /* \"#utility.yul\":9739:10621   */\n      pop\n        /* \"#utility.yul\":9621:10621   */\n      swap3\n      swap2\n      pop\n      pop\n      jump\t// out\n        /* \"#utility.yul\":10627:10988   */\n    tag_38:\n        /* \"#utility.yul\":10764:10768   */\n      0x00\n        /* \"#utility.yul\":10802:10804   */\n      0x20\n        /* \"#utility.yul\":10791:10800   */\n      dup3\n        /* \"#utility.yul\":10787:10805   */\n      add\n        /* \"#utility.yul\":10779:10805   */\n      swap1\n      pop\n        /* \"#utility.yul\":10851:10860   */\n      dup2\n        /* \"#utility.yul\":10845:10849   */\n      dup2\n        /* \"#utility.yul\":10841:10861   */\n      sub\n        /* \"#utility.yul\":10837:10838   */\n      0x00\n        /* \"#utility.yul\":10826:10835   */\n      dup4\n        /* \"#utility.yul\":10822:10839   */\n      add\n        /* \"#utility.yul\":10815:10862   */\n      mstore\n        /* \"#utility.yul\":10879:10981   */\n      tag_488\n        /* \"#utility.yul\":10976:10980   */\n      dup2\n        /* \"#utility.yul\":10967:10973   */\n      dup5\n        /* \"#utility.yul\":10879:10981   */\n      tag_291\n      jump\t// in\n    tag_488:\n        /* \"#utility.yul\":10871:10981   */\n      swap1\n      pop\n        /* \"#utility.yul\":10627:10988   */\n      swap3\n      swap2\n      pop\n      pop\n      jump\t// out\n        /* \"#utility.yul\":10994:11054   */\n    tag_292:\n        /* \"#utility.yul\":11022:11025   */\n      0x00\n        /* \"#utility.yul\":11043:11048   */\n      dup2\n        /* \"#utility.yul\":11036:11048   */\n      swap1\n      pop\n        /* \"#utility.yul\":10994:11054   */\n      swap2\n      swap1\n      pop\n      jump\t// out\n        /* \"#utility.yul\":11060:11202   */\n    tag_293:\n        /* \"#utility.yul\":11110:11119   */\n      0x00\n        /* \"#utility.yul\":11143:11196   */\n      tag_491\n        /* \"#utility.yul\":11161:11195   */\n      tag_492\n        /* \"#utility.yul\":11170:11194   */\n      tag_493\n        /* \"#utility.yul\":11188:11193   */\n      dup5\n        /* \"#utility.yul\":11170:11194   */\n      tag_268\n      jump\t// in\n    tag_493:\n        /* \"#utility.yul\":11161:11195   */\n      tag_292\n      jump\t// in\n    tag_492:\n        /* \"#utility.yul\":11143:11196   */\n      tag_268\n      jump\t// in\n    tag_491:\n        /* \"#utility.yul\":11130:11196   */\n      swap1\n      pop\n        /* \"#utility.yul\":11060:11202   */\n      swap2\n      swap1\n      pop\n      jump\t// out\n        /* \"#utility.yul\":11208:11334   */\n    tag_294:\n        /* \"#utility.yul\":11258:11267   */\n      0x00\n        /* \"#utility.yul\":11291:11328   */\n      tag_495\n        /* \"#utility.yul\":11322:11327   */\n      dup3\n        /* \"#utility.yul\":11291:11328   */\n      tag_293\n      jump\t// in\n    tag_495:\n        /* \"#utility.yul\":11278:11328   */\n      swap1\n      pop\n        /* \"#utility.yul\":11208:11334   */\n      swap2\n      swap1\n      pop\n      jump\t// out\n        /* \"#utility.yul\":11340:11483   */\n    tag_295:\n        /* \"#utility.yul\":11407:11416   */\n      0x00\n        /* \"#utility.yul\":11440:11477   */\n      tag_497\n        /* \"#utility.yul\":11471:11476   */\n      dup3\n        /* \"#utility.yul\":11440:11477   */\n      tag_294\n      jump\t// in\n    tag_497:\n        /* \"#utility.yul\":11427:11477   */\n      swap1\n      pop\n        /* \"#utility.yul\":11340:11483   */\n      swap2\n      swap1\n      pop\n      jump\t// out\n        /* \"#utility.yul\":11489:11654   */\n    tag_296:\n        /* \"#utility.yul\":11593:11647   */\n      tag_499\n        /* \"#utility.yul\":11641:11646   */\n      dup2\n        /* \"#utility.yul\":11593:11647   */\n      tag_295\n      jump\t// in\n    tag_499:\n        /* \"#utility.yul\":11588:11591   */\n      dup3\n        /* \"#utility.yul\":11581:11648   */\n      mstore\n        /* \"#utility.yul\":11489:11654   */\n      pop\n      pop\n      jump\t// out\n        /* \"#utility.yul\":11660:11916   */\n    tag_42:\n        /* \"#utility.yul\":11770:11774   */\n      0x00\n        /* \"#utility.yul\":11808:11810   */\n      0x20\n        /* \"#utility.yul\":11797:11806   */\n      dup3\n        /* \"#utility.yul\":11793:11811   */\n      add\n        /* \"#utility.yul\":11785:11811   */\n      swap1\n      pop\n        /* \"#utility.yul\":11821:11909   */\n      tag_501\n        /* \"#utility.yul\":11906:11907   */\n      0x00\n        /* \"#utility.yul\":11895:11904   */\n      dup4\n        /* \"#utility.yul\":11891:11908   */\n      add\n        /* \"#utility.yul\":11882:11888   */\n      dup5\n        /* \"#utility.yul\":11821:11909   */\n      tag_296\n      jump\t// in\n    tag_501:\n        /* \"#utility.yul\":11660:11916   */\n      swap3\n      swap2\n      pop\n      pop\n      jump\t// out\n        /* \"#utility.yul\":11922:12039   */\n    tag_297:\n        /* \"#utility.yul\":12031:12032   */\n      0x00\n        /* \"#utility.yul\":12028:12029   */\n      0x00\n        /* \"#utility.yul\":12021:12033   */\n      revert\n        /* \"#utility.yul\":12045:12162   */\n    tag_298:\n        /* \"#utility.yul\":12154:12155   */\n      0x00\n        /* \"#utility.yul\":12151:12152   */\n      0x00\n        /* \"#utility.yul\":12144:12156   */\n      revert\n        /* \"#utility.yul\":12182:12735   */\n    tag_299:\n        /* \"#utility.yul\":12240:12248   */\n      0x00\n        /* \"#utility.yul\":12250:12256   */\n      0x00\n        /* \"#utility.yul\":12300:12303   */\n      dup4\n        /* \"#utility.yul\":12293:12297   */\n      0x1f\n        /* \"#utility.yul\":12285:12291   */\n      dup5\n        /* \"#utility.yul\":12281:12298   */\n      add\n        /* \"#utility.yul\":12277:12304   */\n      slt\n        /* \"#utility.yul\":12267:12389   */\n      tag_505\n      jumpi\n        /* \"#utility.yul\":12308:12387   */\n      tag_506\n      tag_259\n      jump\t// in\n    tag_506:\n        /* \"#utility.yul\":12267:12389   */\n    tag_505:\n        /* \"#utility.yul\":12421:12427   */\n      dup3\n        /* \"#utility.yul\":12408:12428   */\n      calldataload\n        /* \"#utility.yul\":12398:12428   */\n      swap1\n      pop\n        /* \"#utility.yul\":12451:12469   */\n      0xffffffffffffffff\n        /* \"#utility.yul\":12443:12449   */\n      dup2\n        /* \"#utility.yul\":12440:12470   */\n      gt\n        /* \"#utility.yul\":12437:12554   */\n      iszero\n      tag_507\n      jumpi\n        /* \"#utility.yul\":12473:12552   */\n      tag_508\n      tag_297\n      jump\t// in\n    tag_508:\n        /* \"#utility.yul\":12437:12554   */\n    tag_507:\n        /* \"#utility.yul\":12587:12591   */\n      0x20\n        /* \"#utility.yul\":12579:12585   */\n      dup4\n        /* \"#utility.yul\":12575:12592   */\n      add\n        /* \"#utility.yul\":12563:12592   */\n      swap2\n      pop\n        /* \"#utility.yul\":12641:12644   */\n      dup4\n        /* \"#utility.yul\":12633:12637   */\n      0x01\n        /* \"#utility.yul\":12625:12631   */\n      dup3\n        /* \"#utility.yul\":12621:12638   */\n      mul\n        /* \"#utility.yul\":12611:12619   */\n      dup4\n        /* \"#utility.yul\":12607:12639   */\n      add\n        /* \"#utility.yul\":12604:12645   */\n      gt\n        /* \"#utility.yul\":12601:12729   */\n      iszero\n      tag_509\n      jumpi\n        /* \"#utility.yul\":12648:12727   */\n      tag_510\n      tag_298\n      jump\t// in\n    tag_510:\n        /* \"#utility.yul\":12601:12729   */\n    tag_509:\n        /* \"#utility.yul\":12182:12735   */\n      swap3\n      pop\n      swap3\n      swap1\n      pop\n      jump\t// out\n        /* \"#utility.yul\":12741:13270   */\n    tag_48:\n        /* \"#utility.yul\":12812:12818   */\n      0x00\n        /* \"#utility.yul\":12820:12826   */\n      0x00\n        /* \"#utility.yul\":12869:12871   */\n      0x20\n        /* \"#utility.yul\":12857:12866   */\n      dup4\n        /* \"#utility.yul\":12848:12855   */\n      dup6\n        /* \"#utility.yul\":12844:12867   */\n      sub\n        /* \"#utility.yul\":12840:12872   */\n      slt\n        /* \"#utility.yul\":12837:12956   */\n      iszero\n      tag_512\n      jumpi\n        /* \"#utility.yul\":12875:12954   */\n      tag_513\n      tag_257\n      jump\t// in\n    tag_513:\n        /* \"#utility.yul\":12837:12956   */\n    tag_512:\n        /* \"#utility.yul\":13023:13024   */\n      0x00\n        /* \"#utility.yul\":13012:13021   */\n      dup4\n        /* \"#utility.yul\":13008:13025   */\n      add\n        /* \"#utility.yul\":12995:13026   */\n      calldataload\n        /* \"#utility.yul\":13053:13071   */\n      0xffffffffffffffff\n        /* \"#utility.yul\":13045:13051   */\n      dup2\n        /* \"#utility.yul\":13042:13072   */\n      gt\n        /* \"#utility.yul\":13039:13156   */\n      iszero\n      tag_514\n      jumpi\n        /* \"#utility.yul\":13075:13154   */\n      tag_515\n      tag_258\n      jump\t// in\n    tag_515:\n        /* \"#utility.yul\":13039:13156   */\n    tag_514:\n        /* \"#utility.yul\":13188:13253   */\n      tag_516\n        /* \"#utility.yul\":13245:13252   */\n      dup6\n        /* \"#utility.yul\":13236:13242   */\n      dup3\n        /* \"#utility.yul\":13225:13234   */\n      dup7\n        /* \"#utility.yul\":13221:13243   */\n      add\n        /* \"#utility.yul\":13188:13253   */\n      tag_299\n      jump\t// in\n    tag_516:\n        /* \"#utility.yul\":13170:13253   */\n      swap3\n      pop\n      swap3\n      pop\n        /* \"#utility.yul\":12966:13263   */\n      pop\n        /* \"#utility.yul\":12741:13270   */\n      swap3\n      pop\n      swap3\n      swap1\n      pop\n      jump\t// out\n        /* \"#utility.yul\":13276:13392   */\n    tag_300:\n        /* \"#utility.yul\":13346:13367   */\n      tag_518\n        /* \"#utility.yul\":13361:13366   */\n      dup2\n        /* \"#utility.yul\":13346:13367   */\n      tag_254\n      jump\t// in\n    tag_518:\n        /* \"#utility.yul\":13339:13344   */\n      dup2\n        /* \"#utility.yul\":13336:13368   */\n      eq\n        /* \"#utility.yul\":13326:13386   */\n      tag_519\n      jumpi\n        /* \"#utility.yul\":13382:13383   */\n      0x00\n        /* \"#utility.yul\":13379:13380   */\n      0x00\n        /* \"#utility.yul\":13372:13384   */\n      revert\n        /* \"#utility.yul\":13326:13386   */\n    tag_519:\n        /* \"#utility.yul\":13276:13392   */\n      pop\n      jump\t// out\n        /* \"#utility.yul\":13398:13531   */\n    tag_301:\n        /* \"#utility.yul\":13441:13446   */\n      0x00\n        /* \"#utility.yul\":13479:13485   */\n      dup2\n        /* \"#utility.yul\":13466:13486   */\n      calldataload\n        /* \"#utility.yul\":13457:13486   */\n      swap1\n      pop\n        /* \"#utility.yul\":13495:13525   */\n      tag_521\n        /* \"#utility.yul\":13519:13524   */\n      dup2\n        /* \"#utility.yul\":13495:13525   */\n      tag_300\n      jump\t// in\n    tag_521:\n        /* \"#utility.yul\":13398:13531   */\n      swap3\n      swap2\n      pop\n      pop\n      jump\t// out\n        /* \"#utility.yul\":13537:13860   */\n    tag_53:\n        /* \"#utility.yul\":13593:13599   */\n      0x00\n        /* \"#utility.yul\":13642:13644   */\n      0x20\n        /* \"#utility.yul\":13630:13639   */\n      dup3\n        /* \"#utility.yul\":13621:13628   */\n      dup5\n        /* \"#utility.yul\":13617:13640   */\n      sub\n        /* \"#utility.yul\":13613:13645   */\n      slt\n        /* \"#utility.yul\":13610:13729   */\n      iszero\n      tag_523\n      jumpi\n        /* \"#utility.yul\":13648:13727   */\n      tag_524\n      tag_257\n      jump\t// in\n    tag_524:\n        /* \"#utility.yul\":13610:13729   */\n    tag_523:\n        /* \"#utility.yul\":13768:13769   */\n      0x00\n        /* \"#utility.yul\":13793:13843   */\n      tag_525\n        /* \"#utility.yul\":13835:13842   */\n      dup5\n        /* \"#utility.yul\":13826:13832   */\n      dup3\n        /* \"#utility.yul\":13815:13824   */\n      dup6\n        /* \"#utility.yul\":13811:13833   */\n      add\n        /* \"#utility.yul\":13793:13843   */\n      tag_301\n      jump\t// in\n    tag_525:\n        /* \"#utility.yul\":13783:13843   */\n      swap2\n      pop\n        /* \"#utility.yul\":13739:13853   */\n      pop\n        /* \"#utility.yul\":13537:13860   */\n      swap3\n      swap2\n      pop\n      pop\n      jump\t// out\n        /* \"#utility.yul\":13866:13988   */\n    tag_302:\n        /* \"#utility.yul\":13939:13963   */\n      tag_527\n        /* \"#utility.yul\":13957:13962   */\n      dup2\n        /* \"#utility.yul\":13939:13963   */\n      tag_269\n      jump\t// in\n    tag_527:\n        /* \"#utility.yul\":13932:13937   */\n      dup2\n        /* \"#utility.yul\":13929:13964   */\n      eq\n        /* \"#utility.yul\":13919:13982   */\n      tag_528\n      jumpi\n        /* \"#utility.yul\":13978:13979   */\n      0x00\n        /* \"#utility.yul\":13975:13976   */\n      0x00\n        /* \"#utility.yul\":13968:13980   */\n      revert\n        /* \"#utility.yul\":13919:13982   */\n    tag_528:\n        /* \"#utility.yul\":13866:13988   */\n      pop\n      jump\t// out\n        /* \"#utility.yul\":13994:14133   */\n    tag_303:\n        /* \"#utility.yul\":14040:14045   */\n      0x00\n        /* \"#utility.yul\":14078:14084   */\n      dup2\n        /* \"#utility.yul\":14065:14085   */\n      calldataload\n        /* \"#utility.yul\":14056:14085   */\n      swap1\n      pop\n        /* \"#utility.yul\":14094:14127   */\n      tag_530\n        /* \"#utility.yul\":14121:14126   */\n      dup2\n        /* \"#utility.yul\":14094:14127   */\n      tag_302\n      jump\t// in\n    tag_530:\n        /* \"#utility.yul\":13994:14133   */\n      swap3\n      swap2\n      pop\n      pop\n      jump\t// out\n        /* \"#utility.yul\":14139:14468   */\n    tag_57:\n        /* \"#utility.yul\":14198:14204   */\n      0x00\n        /* \"#utility.yul\":14247:14249   */\n      0x20\n        /* \"#utility.yul\":14235:14244   */\n      dup3\n        /* \"#utility.yul\":14226:14233   */\n      dup5\n        /* \"#utility.yul\":14222:14245   */\n      sub\n        /* \"#utility.yul\":14218:14250   */\n      slt\n        /* \"#utility.yul\":14215:14334   */\n      iszero\n      tag_532\n      jumpi\n        /* \"#utility.yul\":14253:14332   */\n      tag_533\n      tag_257\n      jump\t// in\n    tag_533:\n        /* \"#utility.yul\":14215:14334   */\n    tag_532:\n        /* \"#utility.yul\":14373:14374   */\n      0x00\n        /* \"#utility.yul\":14398:14451   */\n      tag_534\n        /* \"#utility.yul\":14443:14450   */\n      dup5\n        /* \"#utility.yul\":14434:14440   */\n      dup3\n        /* \"#utility.yul\":14423:14432   */\n      dup6\n        /* \"#utility.yul\":14419:14441   */\n      add\n        /* \"#utility.yul\":14398:14451   */\n      tag_303\n      jump\t// in\n    tag_534:\n        /* \"#utility.yul\":14388:14451   */\n      swap2\n      pop\n        /* \"#utility.yul\":14344:14461   */\n      pop\n        /* \"#utility.yul\":14139:14468   */\n      swap3\n      swap2\n      pop\n      pop\n      jump\t// out\n        /* \"#utility.yul\":14474:14643   */\n    tag_304:\n        /* \"#utility.yul\":14558:14569   */\n      0x00\n        /* \"#utility.yul\":14592:14598   */\n      dup3\n        /* \"#utility.yul\":14587:14590   */\n      dup3\n        /* \"#utility.yul\":14580:14599   */\n      mstore\n        /* \"#utility.yul\":14632:14636   */\n      0x20\n        /* \"#utility.yul\":14627:14630   */\n      dup3\n        /* \"#utility.yul\":14623:14637   */\n      add\n        /* \"#utility.yul\":14608:14637   */\n      swap1\n      pop\n        /* \"#utility.yul\":14474:14643   */\n      swap3\n      swap2\n      pop\n      pop\n      jump\t// out\n        /* \"#utility.yul\":14649:15026   */\n    tag_305:\n        /* \"#utility.yul\":14737:14740   */\n      0x00\n        /* \"#utility.yul\":14765:14804   */\n      tag_537\n        /* \"#utility.yul\":14798:14803   */\n      dup3\n        /* \"#utility.yul\":14765:14804   */\n      tag_277\n      jump\t// in\n    tag_537:\n        /* \"#utility.yul\":14820:14891   */\n      tag_538\n        /* \"#utility.yul\":14884:14890   */\n      dup2\n        /* \"#utility.yul\":14879:14882   */\n      dup6\n        /* \"#utility.yul\":14820:14891   */\n      tag_304\n      jump\t// in\n    tag_538:\n        /* \"#utility.yul\":14813:14891   */\n      swap4\n      pop\n        /* \"#utility.yul\":14900:14965   */\n      tag_539\n        /* \"#utility.yul\":14958:14964   */\n      dup2\n        /* \"#utility.yul\":14953:14956   */\n      dup6\n        /* \"#utility.yul\":14946:14950   */\n      0x20\n        /* \"#utility.yul\":14939:14944   */\n      dup7\n        /* \"#utility.yul\":14935:14951   */\n      add\n        /* \"#utility.yul\":14900:14965   */\n      tag_279\n      jump\t// in\n    tag_539:\n        /* \"#utility.yul\":14990:15019   */\n      tag_540\n        /* \"#utility.yul\":15012:15018   */\n      dup2\n        /* \"#utility.yul\":14990:15019   */\n      tag_261\n      jump\t// in\n    tag_540:\n        /* \"#utility.yul\":14985:14988   */\n      dup5\n        /* \"#utility.yul\":14981:15020   */\n      add\n        /* \"#utility.yul\":14974:15020   */\n      swap2\n      pop\n        /* \"#utility.yul\":14741:15026   */\n      pop\n        /* \"#utility.yul\":14649:15026   */\n      swap3\n      swap2\n      pop\n      pop\n      jump\t// out\n        /* \"#utility.yul\":15032:15345   */\n    tag_61:\n        /* \"#utility.yul\":15145:15149   */\n      0x00\n        /* \"#utility.yul\":15183:15185   */\n      0x20\n        /* \"#utility.yul\":15172:15181   */\n      dup3\n        /* \"#utility.yul\":15168:15186   */\n      add\n        /* \"#utility.yul\":15160:15186   */\n      swap1\n      pop\n        /* \"#utility.yul\":15232:15241   */\n      dup2\n        /* \"#utility.yul\":15226:15230   */\n      dup2\n        /* \"#utility.yul\":15222:15242   */\n      sub\n        /* \"#utility.yul\":15218:15219   */\n      0x00\n        /* \"#utility.yul\":15207:15216   */\n      dup4\n        /* \"#utility.yul\":15203:15220   */\n      add\n        /* \"#utility.yul\":15196:15243   */\n      mstore\n        /* \"#utility.yul\":15260:15338   */\n      tag_542\n        /* \"#utility.yul\":15333:15337   */\n      dup2\n        /* \"#utility.yul\":15324:15330   */\n      dup5\n        /* \"#utility.yul\":15260:15338   */\n      tag_305\n      jump\t// in\n    tag_542:\n        /* \"#utility.yul\":15252:15338   */\n      swap1\n      pop\n        /* \"#utility.yul\":15032:15345   */\n      swap3\n      swap2\n      pop\n      pop\n      jump\t// out\n        /* \"#utility.yul\":15351:15494   */\n    tag_306:\n        /* \"#utility.yul\":15408:15413   */\n      0x00\n        /* \"#utility.yul\":15439:15445   */\n      dup2\n        /* \"#utility.yul\":15433:15446   */\n      mload\n        /* \"#utility.yul\":15424:15446   */\n      swap1\n      pop\n        /* \"#utility.yul\":15455:15488   */\n      tag_544\n        /* \"#utility.yul\":15482:15487   */\n      dup2\n        /* \"#utility.yul\":15455:15488   */\n      tag_302\n      jump\t// in\n    tag_544:\n        /* \"#utility.yul\":15351:15494   */\n      swap3\n      swap2\n      pop\n      pop\n      jump\t// out\n        /* \"#utility.yul\":15500:15851   */\n    tag_65:\n        /* \"#utility.yul\":15570:15576   */\n      0x00\n        /* \"#utility.yul\":15619:15621   */\n      0x20\n        /* \"#utility.yul\":15607:15616   */\n      dup3\n        /* \"#utility.yul\":15598:15605   */\n      dup5\n        /* \"#utility.yul\":15594:15617   */\n      sub\n        /* \"#utility.yul\":15590:15622   */\n      slt\n        /* \"#utility.yul\":15587:15706   */\n      iszero\n      tag_546\n      jumpi\n        /* \"#utility.yul\":15625:15704   */\n      tag_547\n      tag_257\n      jump\t// in\n    tag_547:\n        /* \"#utility.yul\":15587:15706   */\n    tag_546:\n        /* \"#utility.yul\":15745:15746   */\n      0x00\n        /* \"#utility.yul\":15770:15834   */\n      tag_548\n        /* \"#utility.yul\":15826:15833   */\n      dup5\n        /* \"#utility.yul\":15817:15823   */\n      dup3\n        /* \"#utility.yul\":15806:15815   */\n      dup6\n        /* \"#utility.yul\":15802:15824   */\n      add\n        /* \"#utility.yul\":15770:15834   */\n      tag_306\n      jump\t// in\n    tag_548:\n        /* \"#utility.yul\":15760:15834   */\n      swap2\n      pop\n        /* \"#utility.yul\":15716:15844   */\n      pop\n        /* \"#utility.yul\":15500:15851   */\n      swap3\n      swap2\n      pop\n      pop\n      jump\t// out\n        /* \"#utility.yul\":15857:16036   */\n    tag_307:\n        /* \"#utility.yul\":15997:16028   */\n      0x6d73672e73656e646572206973206e6f742065746620666163746f7279000000\n        /* \"#utility.yul\":15993:15994   */\n      0x00\n        /* \"#utility.yul\":15985:15991   */\n      dup3\n        /* \"#utility.yul\":15981:15995   */\n      add\n        /* \"#utility.yul\":15974:16029   */\n      mstore\n        /* \"#utility.yul\":15857:16036   */\n      pop\n      jump\t// out\n        /* \"#utility.yul\":16042:16408   */\n    tag_308:\n        /* \"#utility.yul\":16184:16187   */\n      0x00\n        /* \"#utility.yul\":16205:16272   */\n      tag_551\n        /* \"#utility.yul\":16269:16271   */\n      0x1d\n        /* \"#utility.yul\":16264:16267   */\n      dup4\n        /* \"#utility.yul\":16205:16272   */\n      tag_304\n      jump\t// in\n    tag_551:\n        /* \"#utility.yul\":16198:16272   */\n      swap2\n      pop\n        /* \"#utility.yul\":16281:16374   */\n      tag_552\n        /* \"#utility.yul\":16370:16373   */\n      dup3\n        /* \"#utility.yul\":16281:16374   */\n      tag_307\n      jump\t// in\n    tag_552:\n        /* \"#utility.yul\":16399:16401   */\n      0x20\n        /* \"#utility.yul\":16394:16397   */\n      dup3\n        /* \"#utility.yul\":16390:16402   */\n      add\n        /* \"#utility.yul\":16383:16402   */\n      swap1\n      pop\n        /* \"#utility.yul\":16042:16408   */\n      swap2\n      swap1\n      pop\n      jump\t// out\n        /* \"#utility.yul\":16414:16833   */\n    tag_71:\n        /* \"#utility.yul\":16580:16584   */\n      0x00\n        /* \"#utility.yul\":16618:16620   */\n      0x20\n        /* \"#utility.yul\":16607:16616   */\n      dup3\n        /* \"#utility.yul\":16603:16621   */\n      add\n        /* \"#utility.yul\":16595:16621   */\n      swap1\n      pop\n        /* \"#utility.yul\":16667:16676   */\n      dup2\n        /* \"#utility.yul\":16661:16665   */\n      dup2\n        /* \"#utility.yul\":16657:16677   */\n      sub\n        /* \"#utility.yul\":16653:16654   */\n      0x00\n        /* \"#utility.yul\":16642:16651   */\n      dup4\n        /* \"#utility.yul\":16638:16655   */\n      add\n        /* \"#utility.yul\":16631:16678   */\n      mstore\n        /* \"#utility.yul\":16695:16826   */\n      tag_554\n        /* \"#utility.yul\":16821:16825   */\n      dup2\n        /* \"#utility.yul\":16695:16826   */\n      tag_308\n      jump\t// in\n    tag_554:\n        /* \"#utility.yul\":16687:16826   */\n      swap1\n      pop\n        /* \"#utility.yul\":16414:16833   */\n      swap2\n      swap1\n      pop\n      jump\t// out\n        /* \"#utility.yul\":16839:17011   */\n    tag_309:\n        /* \"#utility.yul\":16979:17003   */\n      0x436f6e7472616374206973206e6f742061637469766500000000000000000000\n        /* \"#utility.yul\":16975:16976   */\n      0x00\n        /* \"#utility.yul\":16967:16973   */\n      dup3\n        /* \"#utility.yul\":16963:16977   */\n      add\n        /* \"#utility.yul\":16956:17004   */\n      mstore\n        /* \"#utility.yul\":16839:17011   */\n      pop\n      jump\t// out\n        /* \"#utility.yul\":17017:17383   */\n    tag_310:\n        /* \"#utility.yul\":17159:17162   */\n      0x00\n        /* \"#utility.yul\":17180:17247   */\n      tag_557\n        /* \"#utility.yul\":17244:17246   */\n      0x16\n        /* \"#utility.yul\":17239:17242   */\n      dup4\n        /* \"#utility.yul\":17180:17247   */\n      tag_304\n      jump\t// in\n    tag_557:\n        /* \"#utility.yul\":17173:17247   */\n      swap2\n      pop\n        /* \"#utility.yul\":17256:17349   */\n      tag_558\n        /* \"#utility.yul\":17345:17348   */\n      dup3\n        /* \"#utility.yul\":17256:17349   */\n      tag_309\n      jump\t// in\n    tag_558:\n        /* \"#utility.yul\":17374:17376   */\n      0x20\n        /* \"#utility.yul\":17369:17372   */\n      dup3\n        /* \"#utility.yul\":17365:17377   */\n      add\n        /* \"#utility.yul\":17358:17377   */\n      swap1\n      pop\n        /* \"#utility.yul\":17017:17383   */\n      swap2\n      swap1\n      pop\n      jump\t// out\n        /* \"#utility.yul\":17389:17808   */\n    tag_75:\n        /* \"#utility.yul\":17555:17559   */\n      0x00\n        /* \"#utility.yul\":17593:17595   */\n      0x20\n        /* \"#utility.yul\":17582:17591   */\n      dup3\n        /* \"#utility.yul\":17578:17596   */\n      add\n        /* \"#utility.yul\":17570:17596   */\n      swap1\n      pop\n        /* \"#utility.yul\":17642:17651   */\n      dup2\n        /* \"#utility.yul\":17636:17640   */\n      dup2\n        /* \"#utility.yul\":17632:17652   */\n      sub\n        /* \"#utility.yul\":17628:17629   */\n      0x00\n        /* \"#utility.yul\":17617:17626   */\n      dup4\n        /* \"#utility.yul\":17613:17630   */\n      add\n        /* \"#utility.yul\":17606:17653   */\n      mstore\n        /* \"#utility.yul\":17670:17801   */\n      tag_560\n        /* \"#utility.yul\":17796:17800   */\n      dup2\n        /* \"#utility.yul\":17670:17801   */\n      tag_310\n      jump\t// in\n    tag_560:\n        /* \"#utility.yul\":17662:17801   */\n      swap1\n      pop\n        /* \"#utility.yul\":17389:17808   */\n      swap2\n      swap1\n      pop\n      jump\t// out\n        /* \"#utility.yul\":17814:17931   */\n    tag_311:\n        /* \"#utility.yul\":17923:17924   */\n      0x00\n        /* \"#utility.yul\":17920:17921   */\n      0x00\n        /* \"#utility.yul\":17913:17925   */\n      revert\n        /* \"#utility.yul\":17937:18054   */\n    tag_312:\n        /* \"#utility.yul\":18046:18047   */\n      0x00\n        /* \"#utility.yul\":18043:18044   */\n      0x00\n        /* \"#utility.yul\":18036:18048   */\n      revert\n        /* \"#utility.yul\":18060:18177   */\n    tag_313:\n        /* \"#utility.yul\":18169:18170   */\n      0x00\n        /* \"#utility.yul\":18166:18167   */\n      0x00\n        /* \"#utility.yul\":18159:18171   */\n      revert\n        /* \"#utility.yul\":18183:18908   */\n    tag_79:\n        /* \"#utility.yul\":18261:18265   */\n      0x00\n        /* \"#utility.yul\":18267:18273   */\n      0x00\n        /* \"#utility.yul\":18323:18334   */\n      dup4\n        /* \"#utility.yul\":18310:18335   */\n      calldataload\n        /* \"#utility.yul\":18423:18424   */\n      0x01\n        /* \"#utility.yul\":18417:18421   */\n      0x20\n        /* \"#utility.yul\":18413:18425   */\n      sub\n        /* \"#utility.yul\":18402:18410   */\n      dup5\n        /* \"#utility.yul\":18386:18400   */\n      calldatasize\n        /* \"#utility.yul\":18382:18411   */\n      sub\n        /* \"#utility.yul\":18378:18426   */\n      sub\n        /* \"#utility.yul\":18358:18376   */\n      dup2\n        /* \"#utility.yul\":18354:18427   */\n      slt\n        /* \"#utility.yul\":18344:18512   */\n      tag_565\n      jumpi\n        /* \"#utility.yul\":18431:18510   */\n      tag_566\n      tag_311\n      jump\t// in\n    tag_566:\n        /* \"#utility.yul\":18344:18512   */\n    tag_565:\n        /* \"#utility.yul\":18543:18561   */\n      dup1\n        /* \"#utility.yul\":18533:18541   */\n      dup5\n        /* \"#utility.yul\":18529:18562   */\n      add\n        /* \"#utility.yul\":18521:18562   */\n      swap3\n      pop\n        /* \"#utility.yul\":18595:18599   */\n      dup3\n        /* \"#utility.yul\":18582:18600   */\n      calldataload\n        /* \"#utility.yul\":18572:18600   */\n      swap2\n      pop\n        /* \"#utility.yul\":18623:18641   */\n      0xffffffffffffffff\n        /* \"#utility.yul\":18615:18621   */\n      dup3\n        /* \"#utility.yul\":18612:18642   */\n      gt\n        /* \"#utility.yul\":18609:18726   */\n      iszero\n      tag_567\n      jumpi\n        /* \"#utility.yul\":18645:18724   */\n      tag_568\n      tag_312\n      jump\t// in\n    tag_568:\n        /* \"#utility.yul\":18609:18726   */\n    tag_567:\n        /* \"#utility.yul\":18753:18755   */\n      0x20\n        /* \"#utility.yul\":18747:18751   */\n      dup4\n        /* \"#utility.yul\":18743:18756   */\n      add\n        /* \"#utility.yul\":18735:18756   */\n      swap3\n      pop\n        /* \"#utility.yul\":18810:18814   */\n      0x01\n        /* \"#utility.yul\":18802:18808   */\n      dup3\n        /* \"#utility.yul\":18798:18815   */\n      mul\n        /* \"#utility.yul\":18782:18796   */\n      calldatasize\n        /* \"#utility.yul\":18778:18816   */\n      sub\n        /* \"#utility.yul\":18772:18776   */\n      dup4\n        /* \"#utility.yul\":18768:18817   */\n      sgt\n        /* \"#utility.yul\":18765:18901   */\n      iszero\n      tag_569\n      jumpi\n        /* \"#utility.yul\":18820:18899   */\n      tag_570\n      tag_313\n      jump\t// in\n    tag_570:\n        /* \"#utility.yul\":18765:18901   */\n    tag_569:\n        /* \"#utility.yul\":18274:18908   */\n      pop\n        /* \"#utility.yul\":18183:18908   */\n      swap3\n      pop\n      swap3\n      swap1\n      pop\n      jump\t// out\n        /* \"#utility.yul\":18914:19680   */\n    tag_83:\n        /* \"#utility.yul\":19033:19037   */\n      0x00\n        /* \"#utility.yul\":19039:19045   */\n      0x00\n        /* \"#utility.yul\":19095:19106   */\n      dup4\n        /* \"#utility.yul\":19082:19107   */\n      calldataload\n        /* \"#utility.yul\":19195:19196   */\n      0x01\n        /* \"#utility.yul\":19189:19193   */\n      0x20\n        /* \"#utility.yul\":19185:19197   */\n      sub\n        /* \"#utility.yul\":19174:19182   */\n      dup5\n        /* \"#utility.yul\":19158:19172   */\n      calldatasize\n        /* \"#utility.yul\":19154:19183   */\n      sub\n        /* \"#utility.yul\":19150:19198   */\n      sub\n        /* \"#utility.yul\":19130:19148   */\n      dup2\n        /* \"#utility.yul\":19126:19199   */\n      slt\n        /* \"#utility.yul\":19116:19284   */\n      tag_572\n      jumpi\n        /* \"#utility.yul\":19203:19282   */\n      tag_573\n      tag_311\n      jump\t// in\n    tag_573:\n        /* \"#utility.yul\":19116:19284   */\n    tag_572:\n        /* \"#utility.yul\":19315:19333   */\n      dup1\n        /* \"#utility.yul\":19305:19313   */\n      dup5\n        /* \"#utility.yul\":19301:19334   */\n      add\n        /* \"#utility.yul\":19293:19334   */\n      swap3\n      pop\n        /* \"#utility.yul\":19367:19371   */\n      dup3\n        /* \"#utility.yul\":19354:19372   */\n      calldataload\n        /* \"#utility.yul\":19344:19372   */\n      swap2\n      pop\n        /* \"#utility.yul\":19395:19413   */\n      0xffffffffffffffff\n        /* \"#utility.yul\":19387:19393   */\n      dup3\n        /* \"#utility.yul\":19384:19414   */\n      gt\n        /* \"#utility.yul\":19381:19498   */\n      iszero\n      tag_574\n      jumpi\n        /* \"#utility.yul\":19417:19496   */\n      tag_575\n      tag_312\n      jump\t// in\n    tag_575:\n        /* \"#utility.yul\":19381:19498   */\n    tag_574:\n        /* \"#utility.yul\":19525:19527   */\n      0x20\n        /* \"#utility.yul\":19519:19523   */\n      dup4\n        /* \"#utility.yul\":19515:19528   */\n      add\n        /* \"#utility.yul\":19507:19528   */\n      swap3\n      pop\n        /* \"#utility.yul\":19582:19586   */\n      0x40\n        /* \"#utility.yul\":19574:19580   */\n      dup3\n        /* \"#utility.yul\":19570:19587   */\n      mul\n        /* \"#utility.yul\":19554:19568   */\n      calldatasize\n        /* \"#utility.yul\":19550:19588   */\n      sub\n        /* \"#utility.yul\":19544:19548   */\n      dup4\n        /* \"#utility.yul\":19540:19589   */\n      sgt\n        /* \"#utility.yul\":19537:19673   */\n      iszero\n      tag_576\n      jumpi\n        /* \"#utility.yul\":19592:19671   */\n      tag_577\n      tag_313\n      jump\t// in\n    tag_577:\n        /* \"#utility.yul\":19537:19673   */\n    tag_576:\n        /* \"#utility.yul\":19046:19680   */\n      pop\n        /* \"#utility.yul\":18914:19680   */\n      swap3\n      pop\n      swap3\n      swap1\n      pop\n      jump\t// out\n        /* \"#utility.yul\":19686:19866   */\n    tag_314:\n        /* \"#utility.yul\":19734:19811   */\n      0x4e487b7100000000000000000000000000000000000000000000000000000000\n        /* \"#utility.yul\":19731:19732   */\n      0x00\n        /* \"#utility.yul\":19724:19812   */\n      mstore\n        /* \"#utility.yul\":19831:19835   */\n      0x00\n        /* \"#utility.yul\":19828:19829   */\n      0x04\n        /* \"#utility.yul\":19821:19836   */\n      mstore\n        /* \"#utility.yul\":19855:19859   */\n      0x24\n        /* \"#utility.yul\":19852:19853   */\n      0x00\n        /* \"#utility.yul\":19845:19860   */\n      revert\n        /* \"#utility.yul\":19872:19969   */\n    tag_315:\n        /* \"#utility.yul\":19931:19937   */\n      0x00\n        /* \"#utility.yul\":19959:19962   */\n      dup3\n        /* \"#utility.yul\":19949:19962   */\n      swap1\n      pop\n        /* \"#utility.yul\":19872:19969   */\n      swap3\n      swap2\n      pop\n      pop\n      jump\t// out\n        /* \"#utility.yul\":19975:20155   */\n    tag_316:\n        /* \"#utility.yul\":20023:20100   */\n      0x4e487b7100000000000000000000000000000000000000000000000000000000\n        /* \"#utility.yul\":20020:20021   */\n      0x00\n        /* \"#utility.yul\":20013:20101   */\n      mstore\n        /* \"#utility.yul\":20120:20124   */\n      0x22\n        /* \"#utility.yul\":20117:20118   */\n      0x04\n        /* \"#utility.yul\":20110:20125   */\n      mstore\n        /* \"#utility.yul\":20144:20148   */\n      0x24\n        /* \"#utility.yul\":20141:20142   */\n      0x00\n        /* \"#utility.yul\":20134:20149   */\n      revert\n        /* \"#utility.yul\":20161:20481   */\n    tag_104:\n        /* \"#utility.yul\":20205:20211   */\n      0x00\n        /* \"#utility.yul\":20242:20243   */\n      0x02\n        /* \"#utility.yul\":20236:20240   */\n      dup3\n        /* \"#utility.yul\":20232:20244   */\n      div\n        /* \"#utility.yul\":20222:20244   */\n      swap1\n      pop\n        /* \"#utility.yul\":20289:20290   */\n      0x01\n        /* \"#utility.yul\":20283:20287   */\n      dup3\n        /* \"#utility.yul\":20279:20291   */\n      and\n        /* \"#utility.yul\":20310:20328   */\n      dup1\n        /* \"#utility.yul\":20300:20381   */\n      tag_582\n      jumpi\n        /* \"#utility.yul\":20366:20370   */\n      0x7f\n        /* \"#utility.yul\":20358:20364   */\n      dup3\n        /* \"#utility.yul\":20354:20371   */\n      and\n        /* \"#utility.yul\":20344:20371   */\n      swap2\n      pop\n        /* \"#utility.yul\":20300:20381   */\n    tag_582:\n        /* \"#utility.yul\":20428:20430   */\n      0x20\n        /* \"#utility.yul\":20420:20426   */\n      dup3\n        /* \"#utility.yul\":20417:20431   */\n      lt\n        /* \"#utility.yul\":20397:20415   */\n      dup2\n        /* \"#utility.yul\":20394:20432   */\n      sub\n        /* \"#utility.yul\":20391:20475   */\n      tag_583\n      jumpi\n        /* \"#utility.yul\":20447:20465   */\n      tag_584\n      tag_316\n      jump\t// in\n    tag_584:\n        /* \"#utility.yul\":20391:20475   */\n    tag_583:\n        /* \"#utility.yul\":20212:20481   */\n      pop\n        /* \"#utility.yul\":20161:20481   */\n      swap2\n      swap1\n      pop\n      jump\t// out\n        /* \"#utility.yul\":20487:20628   */\n    tag_317:\n        /* \"#utility.yul\":20536:20540   */\n      0x00\n        /* \"#utility.yul\":20559:20562   */\n      dup2\n        /* \"#utility.yul\":20551:20562   */\n      swap1\n      pop\n        /* \"#utility.yul\":20582:20585   */\n      dup2\n        /* \"#utility.yul\":20579:20580   */\n      0x00\n        /* \"#utility.yul\":20572:20586   */\n      mstore\n        /* \"#utility.yul\":20616:20620   */\n      0x20\n        /* \"#utility.yul\":20613:20614   */\n      0x00\n        /* \"#utility.yul\":20603:20621   */\n      keccak256\n        /* \"#utility.yul\":20595:20621   */\n      swap1\n      pop\n        /* \"#utility.yul\":20487:20628   */\n      swap2\n      swap1\n      pop\n      jump\t// out\n        /* \"#utility.yul\":20634:20727   */\n    tag_318:\n        /* \"#utility.yul\":20671:20677   */\n      0x00\n        /* \"#utility.yul\":20718:20720   */\n      0x20\n        /* \"#utility.yul\":20713:20715   */\n      0x1f\n        /* \"#utility.yul\":20706:20711   */\n      dup4\n        /* \"#utility.yul\":20702:20716   */\n      add\n        /* \"#utility.yul\":20698:20721   */\n      div\n        /* \"#utility.yul\":20688:20721   */\n      swap1\n      pop\n        /* \"#utility.yul\":20634:20727   */\n      swap2\n      swap1\n      pop\n      jump\t// out\n        /* \"#utility.yul\":20733:20840   */\n    tag_319:\n        /* \"#utility.yul\":20777:20785   */\n      0x00\n        /* \"#utility.yul\":20827:20832   */\n      dup3\n        /* \"#utility.yul\":20821:20825   */\n      dup3\n        /* \"#utility.yul\":20817:20833   */\n      shl\n        /* \"#utility.yul\":20796:20833   */\n      swap1\n      pop\n        /* \"#utility.yul\":20733:20840   */\n      swap3\n      swap2\n      pop\n      pop\n      jump\t// out\n        /* \"#utility.yul\":20846:21239   */\n    tag_320:\n        /* \"#utility.yul\":20915:20921   */\n      0x00\n        /* \"#utility.yul\":20965:20966   */\n      0x08\n        /* \"#utility.yul\":20953:20963   */\n      dup4\n        /* \"#utility.yul\":20949:20967   */\n      mul\n        /* \"#utility.yul\":20988:21085   */\n      tag_589\n        /* \"#utility.yul\":21018:21084   */\n      0xffffffffffffffffffffffffffffffffffffffffffffffffffffffffffffffff\n        /* \"#utility.yul\":21007:21016   */\n      dup3\n        /* \"#utility.yul\":20988:21085   */\n      tag_319\n      jump\t// in\n    tag_589:\n        /* \"#utility.yul\":21106:21145   */\n      tag_590\n        /* \"#utility.yul\":21136:21144   */\n      dup7\n        /* \"#utility.yul\":21125:21134   */\n      dup4\n        /* \"#utility.yul\":21106:21145   */\n      tag_319\n      jump\t// in\n    tag_590:\n        /* \"#utility.yul\":21094:21145   */\n      swap6\n      pop\n        /* \"#utility.yul\":21178:21182   */\n      dup1\n        /* \"#utility.yul\":21174:21183   */\n      not\n        /* \"#utility.yul\":21167:21172   */\n      dup5\n        /* \"#utility.yul\":21163:21184   */\n      and\n        /* \"#utility.yul\":21154:21184   */\n      swap4\n      pop\n        /* \"#utility.yul\":21227:21231   */\n      dup1\n        /* \"#utility.yul\":21217:21225   */\n      dup7\n        /* \"#utility.yul\":21213:21232   */\n      and\n        /* \"#utility.yul\":21206:21211   */\n      dup5\n        /* \"#utility.yul\":21203:21233   */\n      or\n        /* \"#utility.yul\":21193:21233   */\n      swap3\n      pop\n        /* \"#utility.yul\":20922:21239   */\n      pop\n      pop\n        /* \"#utility.yul\":20846:21239   */\n      swap4\n      swap3\n      pop\n      pop\n      pop\n      jump\t// out\n        /* \"#utility.yul\":21245:21387   */\n    tag_321:\n        /* \"#utility.yul\":21295:21304   */\n      0x00\n        /* \"#utility.yul\":21328:21381   */\n      tag_592\n        /* \"#utility.yul\":21346:21380   */\n      tag_593\n        /* \"#utility.yul\":21355:21379   */\n      tag_594\n        /* \"#utility.yul\":21373:21378   */\n      dup5\n        /* \"#utility.yul\":21355:21379   */\n      tag_271\n      jump\t// in\n    tag_594:\n        /* \"#utility.yul\":21346:21380   */\n      tag_292\n      jump\t// in\n    tag_593:\n        /* \"#utility.yul\":21328:21381   */\n      tag_271\n      jump\t// in\n    tag_592:\n        /* \"#utility.yul\":21315:21381   */\n      swap1\n      pop\n        /* \"#utility.yul\":21245:21387   */\n      swap2\n      swap1\n      pop\n      jump\t// out\n        /* \"#utility.yul\":21393:21468   */\n    tag_322:\n        /* \"#utility.yul\":21436:21439   */\n      0x00\n        /* \"#utility.yul\":21457:21462   */\n      dup2\n        /* \"#utility.yul\":21450:21462   */\n      swap1\n      pop\n        /* \"#utility.yul\":21393:21468   */\n      swap2\n      swap1\n      pop\n      jump\t// out\n        /* \"#utility.yul\":21474:21743   */\n    tag_323:\n        /* \"#utility.yul\":21584:21623   */\n      tag_597\n        /* \"#utility.yul\":21615:21622   */\n      dup4\n        /* \"#utility.yul\":21584:21623   */\n      tag_321\n      jump\t// in\n    tag_597:\n        /* \"#utility.yul\":21645:21736   */\n      tag_598\n        /* \"#utility.yul\":21694:21735   */\n      tag_599\n        /* \"#utility.yul\":21718:21734   */\n      dup3\n        /* \"#utility.yul\":21694:21735   */\n      tag_322\n      jump\t// in\n    tag_599:\n        /* \"#utility.yul\":21686:21692   */\n      dup5\n        /* \"#utility.yul\":21679:21683   */\n      dup5\n        /* \"#utility.yul\":21673:21684   */\n      sload\n        /* \"#utility.yul\":21645:21736   */\n      tag_320\n      jump\t// in\n    tag_598:\n        /* \"#utility.yul\":21639:21643   */\n      dup3\n        /* \"#utility.yul\":21632:21737   */\n      sstore\n        /* \"#utility.yul\":21550:21743   */\n      pop\n        /* \"#utility.yul\":21474:21743   */\n      pop\n      pop\n      pop\n      jump\t// out\n        /* \"#utility.yul\":21749:21822   */\n    tag_324:\n        /* \"#utility.yul\":21794:21797   */\n      0x00\n        /* \"#utility.yul\":21815:21816   */\n      0x00\n        /* \"#utility.yul\":21808:21816   */\n      swap1\n      pop\n        /* \"#utility.yul\":21749:21822   */\n      swap1\n      jump\t// out\n        /* \"#utility.yul\":21828:22017   */\n    tag_325:\n        /* \"#utility.yul\":21905:21937   */\n      tag_602\n      tag_324\n      jump\t// in\n    tag_602:\n        /* \"#utility.yul\":21946:22011   */\n      tag_603\n        /* \"#utility.yul\":22004:22010   */\n      dup2\n        /* \"#utility.yul\":21996:22002   */\n      dup5\n        /* \"#utility.yul\":21990:21994   */\n      dup5\n        /* \"#utility.yul\":21946:22011   */\n      tag_323\n      jump\t// in\n    tag_603:\n        /* \"#utility.yul\":21881:22017   */\n      pop\n        /* \"#utility.yul\":21828:22017   */\n      pop\n      pop\n      jump\t// out\n        /* \"#utility.yul\":22023:22209   */\n    tag_326:\n        /* \"#utility.yul\":22083:22203   */\n    tag_605:\n        /* \"#utility.yul\":22100:22103   */\n      dup2\n        /* \"#utility.yul\":22093:22098   */\n      dup2\n        /* \"#utility.yul\":22090:22104   */\n      lt\n        /* \"#utility.yul\":22083:22203   */\n      iszero\n      tag_607\n      jumpi\n        /* \"#utility.yul\":22154:22193   */\n      tag_608\n        /* \"#utility.yul\":22191:22192   */\n      0x00\n        /* \"#utility.yul\":22184:22189   */\n      dup3\n        /* \"#utility.yul\":22154:22193   */\n      tag_325\n      jump\t// in\n    tag_608:\n        /* \"#utility.yul\":22127:22128   */\n      0x01\n        /* \"#utility.yul\":22120:22125   */\n      dup2\n        /* \"#utility.yul\":22116:22129   */\n      add\n        /* \"#utility.yul\":22107:22129   */\n      swap1\n      pop\n        /* \"#utility.yul\":22083:22203   */\n      jump(tag_605)\n    tag_607:\n        /* \"#utility.yul\":22023:22209   */\n      pop\n      pop\n      jump\t// out\n        /* \"#utility.yul\":22215:22758   */\n    tag_327:\n        /* \"#utility.yul\":22316:22318   */\n      0x1f\n        /* \"#utility.yul\":22311:22314   */\n      dup3\n        /* \"#utility.yul\":22308:22319   */\n      gt\n        /* \"#utility.yul\":22305:22751   */\n      iszero\n      tag_610\n      jumpi\n        /* \"#utility.yul\":22350:22388   */\n      tag_611\n        /* \"#utility.yul\":22382:22387   */\n      dup2\n        /* \"#utility.yul\":22350:22388   */\n      tag_317\n      jump\t// in\n    tag_611:\n        /* \"#utility.yul\":22434:22463   */\n      tag_612\n        /* \"#utility.yul\":22452:22462   */\n      dup5\n        /* \"#utility.yul\":22434:22463   */\n      tag_318\n      jump\t// in\n    tag_612:\n        /* \"#utility.yul\":22424:22432   */\n      dup2\n        /* \"#utility.yul\":22420:22464   */\n      add\n        /* \"#utility.yul\":22617:22619   */\n      0x20\n        /* \"#utility.yul\":22605:22615   */\n      dup6\n        /* \"#utility.yul\":22602:22620   */\n      lt\n        /* \"#utility.yul\":22599:22648   */\n      iszero\n      tag_613\n      jumpi\n        /* \"#utility.yul\":22638:22646   */\n      dup2\n        /* \"#utility.yul\":22623:22646   */\n      swap1\n      pop\n        /* \"#utility.yul\":22599:22648   */\n    tag_613:\n        /* \"#utility.yul\":22661:22741   */\n      tag_614\n        /* \"#utility.yul\":22717:22739   */\n      tag_615\n        /* \"#utility.yul\":22735:22738   */\n      dup6\n        /* \"#utility.yul\":22717:22739   */\n      tag_318\n      jump\t// in\n    tag_615:\n        /* \"#utility.yul\":22707:22715   */\n      dup4\n        /* \"#utility.yul\":22703:22740   */\n      add\n        /* \"#utility.yul\":22690:22701   */\n      dup3\n        /* \"#utility.yul\":22661:22741   */\n      tag_326\n      jump\t// in\n    tag_614:\n        /* \"#utility.yul\":22320:22751   */\n      pop\n      pop\n        /* \"#utility.yul\":22305:22751   */\n    tag_610:\n        /* \"#utility.yul\":22215:22758   */\n      pop\n      pop\n      pop\n      jump\t// out\n        /* \"#utility.yul\":22764:22881   */\n    tag_328:\n        /* \"#utility.yul\":22818:22826   */\n      0x00\n        /* \"#utility.yul\":22868:22873   */\n      dup3\n        /* \"#utility.yul\":22862:22866   */\n      dup3\n        /* \"#utility.yul\":22858:22874   */\n      shr\n        /* \"#utility.yul\":22837:22874   */\n      swap1\n      pop\n        /* \"#utility.yul\":22764:22881   */\n      swap3\n      swap2\n      pop\n      pop\n      jump\t// out\n        /* \"#utility.yul\":22887:23056   */\n    tag_329:\n        /* \"#utility.yul\":22931:22937   */\n      0x00\n        /* \"#utility.yul\":22964:23015   */\n      tag_618\n        /* \"#utility.yul\":23012:23013   */\n      0x00\n        /* \"#utility.yul\":23008:23014   */\n      not\n        /* \"#utility.yul\":23000:23005   */\n      dup5\n        /* \"#utility.yul\":22997:22998   */\n      0x08\n        /* \"#utility.yul\":22993:23006   */\n      mul\n        /* \"#utility.yul\":22964:23015   */\n      tag_328\n      jump\t// in\n    tag_618:\n        /* \"#utility.yul\":22960:23016   */\n      not\n        /* \"#utility.yul\":23045:23049   */\n      dup1\n        /* \"#utility.yul\":23039:23043   */\n      dup4\n        /* \"#utility.yul\":23035:23050   */\n      and\n        /* \"#utility.yul\":23025:23050   */\n      swap2\n      pop\n        /* \"#utility.yul\":22938:23056   */\n      pop\n        /* \"#utility.yul\":22887:23056   */\n      swap3\n      swap2\n      pop\n      pop\n      jump\t// out\n        /* \"#utility.yul\":23061:23356   */\n    tag_330:\n        /* \"#utility.yul\":23137:23141   */\n      0x00\n        /* \"#utility.yul\":23283:23312   */\n      tag_620\n        /* \"#utility.yul\":23308:23311   */\n      dup4\n        /* \"#utility.yul\":23302:23306   */\n      dup4\n        /* \"#utility.yul\":23283:23312   */\n      tag_329\n      jump\t// in\n    tag_620:\n        /* \"#utility.yul\":23275:23312   */\n      swap2\n      pop\n        /* \"#utility.yul\":23345:23348   */\n      dup3\n        /* \"#utility.yul\":23342:23343   */\n      0x02\n        /* \"#utility.yul\":23338:23349   */\n      mul\n        /* \"#utility.yul\":23332:23336   */\n      dup3\n        /* \"#utility.yul\":23329:23350   */\n      or\n        /* \"#utility.yul\":23321:23350   */\n      swap1\n      pop\n        /* \"#utility.yul\":23061:23356   */\n      swap3\n      swap2\n      pop\n      pop\n      jump\t// out\n        /* \"#utility.yul\":23361:24764   */\n    tag_331:\n        /* \"#utility.yul\":23485:23529   */\n      tag_622\n        /* \"#utility.yul\":23525:23528   */\n      dup4\n        /* \"#utility.yul\":23520:23523   */\n      dup4\n        /* \"#utility.yul\":23485:23529   */\n      tag_315\n      jump\t// in\n    tag_622:\n        /* \"#utility.yul\":23594:23612   */\n      0xffffffffffffffff\n        /* \"#utility.yul\":23586:23592   */\n      dup2\n        /* \"#utility.yul\":23583:23613   */\n      gt\n        /* \"#utility.yul\":23580:23636   */\n      iszero\n      tag_623\n      jumpi\n        /* \"#utility.yul\":23616:23634   */\n      tag_624\n      tag_168\n      jump\t// in\n    tag_624:\n        /* \"#utility.yul\":23580:23636   */\n    tag_623:\n        /* \"#utility.yul\":23660:23698   */\n      tag_625\n        /* \"#utility.yul\":23692:23696   */\n      dup3\n        /* \"#utility.yul\":23686:23697   */\n      sload\n        /* \"#utility.yul\":23660:23698   */\n      tag_104\n      jump\t// in\n    tag_625:\n        /* \"#utility.yul\":23745:23812   */\n      tag_626\n        /* \"#utility.yul\":23805:23811   */\n      dup3\n        /* \"#utility.yul\":23797:23803   */\n      dup3\n        /* \"#utility.yul\":23791:23795   */\n      dup6\n        /* \"#utility.yul\":23745:23812   */\n      tag_327\n      jump\t// in\n    tag_626:\n        /* \"#utility.yul\":23839:23840   */\n      0x00\n        /* \"#utility.yul\":23868:23870   */\n      0x1f\n        /* \"#utility.yul\":23860:23866   */\n      dup4\n        /* \"#utility.yul\":23857:23871   */\n      gt\n        /* \"#utility.yul\":23885:23886   */\n      0x01\n        /* \"#utility.yul\":23880:24512   */\n      dup2\n      eq\n      tag_628\n      jumpi\n        /* \"#utility.yul\":24556:24557   */\n      0x00\n        /* \"#utility.yul\":24573:24579   */\n      dup5\n        /* \"#utility.yul\":24570:24654   */\n      iszero\n      tag_629\n      jumpi\n        /* \"#utility.yul\":24629:24638   */\n      dup3\n        /* \"#utility.yul\":24624:24627   */\n      dup8\n        /* \"#utility.yul\":24620:24639   */\n      add\n        /* \"#utility.yul\":24607:24640   */\n      calldataload\n        /* \"#utility.yul\":24598:24640   */\n      swap1\n      pop\n        /* \"#utility.yul\":24570:24654   */\n    tag_629:\n        /* \"#utility.yul\":24680:24747   */\n      tag_630\n        /* \"#utility.yul\":24740:24746   */\n      dup6\n        /* \"#utility.yul\":24733:24738   */\n      dup3\n        /* \"#utility.yul\":24680:24747   */\n      tag_330\n      jump\t// in\n    tag_630:\n        /* \"#utility.yul\":24674:24678   */\n      dup7\n        /* \"#utility.yul\":24667:24748   */\n      sstore\n        /* \"#utility.yul\":24529:24758   */\n      pop\n        /* \"#utility.yul\":23850:24758   */\n      jump(tag_627)\n        /* \"#utility.yul\":23880:24512   */\n    tag_628:\n        /* \"#utility.yul\":23932:23936   */\n      0x1f\n        /* \"#utility.yul\":23928:23937   */\n      not\n        /* \"#utility.yul\":23920:23926   */\n      dup5\n        /* \"#utility.yul\":23916:23938   */\n      and\n        /* \"#utility.yul\":23966:24003   */\n      tag_631\n        /* \"#utility.yul\":23998:24002   */\n      dup7\n        /* \"#utility.yul\":23966:24003   */\n      tag_317\n      jump\t// in\n    tag_631:\n        /* \"#utility.yul\":24025:24026   */\n      0x00\n        /* \"#utility.yul\":24039:24254   */\n    tag_632:\n        /* \"#utility.yul\":24053:24060   */\n      dup3\n        /* \"#utility.yul\":24050:24051   */\n      dup2\n        /* \"#utility.yul\":24047:24061   */\n      lt\n        /* \"#utility.yul\":24039:24254   */\n      iszero\n      tag_634\n      jumpi\n        /* \"#utility.yul\":24139:24148   */\n      dup5\n        /* \"#utility.yul\":24134:24137   */\n      dup10\n        /* \"#utility.yul\":24130:24149   */\n      add\n        /* \"#utility.yul\":24117:24150   */\n      calldataload\n        /* \"#utility.yul\":24109:24115   */\n      dup3\n        /* \"#utility.yul\":24102:24151   */\n      sstore\n        /* \"#utility.yul\":24190:24191   */\n      0x01\n        /* \"#utility.yul\":24182:24188   */\n      dup3\n        /* \"#utility.yul\":24178:24192   */\n      add\n        /* \"#utility.yul\":24168:24192   */\n      swap2\n      pop\n        /* \"#utility.yul\":24237:24239   */\n      0x20\n        /* \"#utility.yul\":24226:24235   */\n      dup6\n        /* \"#utility.yul\":24222:24240   */\n      add\n        /* \"#utility.yul\":24209:24240   */\n      swap5\n      pop\n        /* \"#utility.yul\":24076:24080   */\n      0x20\n        /* \"#utility.yul\":24073:24074   */\n      dup2\n        /* \"#utility.yul\":24069:24081   */\n      add\n        /* \"#utility.yul\":24064:24081   */\n      swap1\n      pop\n        /* \"#utility.yul\":24039:24254   */\n      jump(tag_632)\n    tag_634:\n        /* \"#utility.yul\":24282:24288   */\n      dup7\n        /* \"#utility.yul\":24273:24280   */\n      dup4\n        /* \"#utility.yul\":24270:24289   */\n      lt\n        /* \"#utility.yul\":24267:24453   */\n      iszero\n      tag_635\n      jumpi\n        /* \"#utility.yul\":24347:24356   */\n      dup5\n        /* \"#utility.yul\":24342:24345   */\n      dup10\n        /* \"#utility.yul\":24338:24357   */\n      add\n        /* \"#utility.yul\":24325:24358   */\n      calldataload\n        /* \"#utility.yul\":24390:24438   */\n      tag_636\n        /* \"#utility.yul\":24432:24436   */\n      0x1f\n        /* \"#utility.yul\":24424:24430   */\n      dup10\n        /* \"#utility.yul\":24420:24437   */\n      and\n        /* \"#utility.yul\":24409:24418   */\n      dup3\n        /* \"#utility.yul\":24390:24438   */\n      tag_329\n      jump\t// in\n    tag_636:\n        /* \"#utility.yul\":24382:24388   */\n      dup4\n        /* \"#utility.yul\":24375:24439   */\n      sstore\n        /* \"#utility.yul\":24290:24453   */\n      pop\n        /* \"#utility.yul\":24267:24453   */\n    tag_635:\n        /* \"#utility.yul\":24499:24500   */\n      0x01\n        /* \"#utility.yul\":24495:24496   */\n      0x02\n        /* \"#utility.yul\":24487:24493   */\n      dup9\n        /* \"#utility.yul\":24483:24497   */\n      mul\n        /* \"#utility.yul\":24479:24501   */\n      add\n        /* \"#utility.yul\":24473:24477   */\n      dup9\n        /* \"#utility.yul\":24466:24502   */\n      sstore\n        /* \"#utility.yul\":23887:24512   */\n      pop\n      pop\n      pop\n        /* \"#utility.yul\":23850:24758   */\n    tag_627:\n      pop\n        /* \"#utility.yul\":23460:24764   */\n      pop\n      pop\n      pop\n        /* \"#utility.yul\":23361:24764   */\n      pop\n      pop\n      pop\n      jump\t// out\n        /* \"#utility.yul\":24770:24989   */\n    tag_332:\n        /* \"#utility.yul\":24886:24983   */\n      tag_638\n        /* \"#utility.yul\":24975:24982   */\n      dup4\n        /* \"#utility.yul\":24966:24973   */\n      dup4\n        /* \"#utility.yul\":24960:24964   */\n      dup4\n        /* \"#utility.yul\":24886:24983   */\n      tag_331\n      jump\t// in\n    tag_638:\n        /* \"#utility.yul\":24770:24989   */\n      pop\n      pop\n      pop\n      jump\t// out\n        /* \"#utility.yul\":24995:25123   */\n    tag_333:\n        /* \"#utility.yul\":25090:25094   */\n      0x00\n        /* \"#utility.yul\":25113:25116   */\n      dup2\n        /* \"#utility.yul\":25105:25116   */\n      swap1\n      pop\n        /* \"#utility.yul\":24995:25123   */\n      swap2\n      swap1\n      pop\n      jump\t// out\n        /* \"#utility.yul\":25129:25261   */\n    tag_334:\n        /* \"#utility.yul\":25214:25220   */\n      0x00\n        /* \"#utility.yul\":25248:25253   */\n      dup2\n        /* \"#utility.yul\":25242:25254   */\n      sload\n        /* \"#utility.yul\":25232:25254   */\n      swap1\n      pop\n        /* \"#utility.yul\":25129:25261   */\n      swap2\n      swap1\n      pop\n      jump\t// out\n        /* \"#utility.yul\":25267:25447   */\n    tag_335:\n        /* \"#utility.yul\":25315:25392   */\n      0x4e487b7100000000000000000000000000000000000000000000000000000000\n        /* \"#utility.yul\":25312:25313   */\n      0x00\n        /* \"#utility.yul\":25305:25393   */\n      mstore\n        /* \"#utility.yul\":25412:25416   */\n      0x11\n        /* \"#utility.yul\":25409:25410   */\n      0x04\n        /* \"#utility.yul\":25402:25417   */\n      mstore\n        /* \"#utility.yul\":25436:25440   */\n      0x24\n        /* \"#utility.yul\":25433:25434   */\n      0x00\n        /* \"#utility.yul\":25426:25441   */\n      revert\n        /* \"#utility.yul\":25869:26093   */\n    tag_337:\n        /* \"#utility.yul\":25971:25975   */\n      0x00\n        /* \"#utility.yul\":25994:26000   */\n      dup2\n        /* \"#utility.yul\":25986:26000   */\n      swap1\n      pop\n        /* \"#utility.yul\":26084:26085   */\n      0x01\n        /* \"#utility.yul\":26079:26080   */\n      dup1\n        /* \"#utility.yul\":26076:26077   */\n      0x01\n        /* \"#utility.yul\":26072:26081   */\n      sub\n        /* \"#utility.yul\":26064:26070   */\n      dup4\n        /* \"#utility.yul\":26060:26082   */\n      add\n        /* \"#utility.yul\":26056:26086   */\n      div\n        /* \"#utility.yul\":26048:26086   */\n      swap1\n      pop\n        /* \"#utility.yul\":25869:26093   */\n      swap2\n      swap1\n      pop\n      jump\t// out\n        /* \"#utility.yul\":26098:26275   */\n    tag_338:\n        /* \"#utility.yul\":26183:26187   */\n      0x00\n        /* \"#utility.yul\":26206:26209   */\n      dup2\n        /* \"#utility.yul\":26198:26209   */\n      swap1\n      pop\n        /* \"#utility.yul\":26229:26232   */\n      dup2\n        /* \"#utility.yul\":26226:26227   */\n      0x00\n        /* \"#utility.yul\":26219:26233   */\n      mstore\n        /* \"#utility.yul\":26263:26267   */\n      0x20\n        /* \"#utility.yul\":26260:26261   */\n      0x00\n        /* \"#utility.yul\":26250:26268   */\n      keccak256\n        /* \"#utility.yul\":26242:26268   */\n      swap1\n      pop\n        /* \"#utility.yul\":26098:26275   */\n      swap2\n      swap1\n      pop\n      jump\t// out\n        /* \"#utility.yul\":26281:26389   */\n    tag_339:\n        /* \"#utility.yul\":26380:26381   */\n      0x00\n        /* \"#utility.yul\":26376:26377   */\n      0x00\n        /* \"#utility.yul\":26370:26374   */\n      dup3\n        /* \"#utility.yul\":26366:26378   */\n      add\n        /* \"#utility.yul\":26359:26382   */\n      sstore\n        /* \"#utility.yul\":26281:26389   */\n      pop\n      jump\t// out\n        /* \"#utility.yul\":26395:26598   */\n    tag_340:\n        /* \"#utility.yul\":26500:26501   */\n      0x00\n        /* \"#utility.yul\":26492:26498   */\n      dup3\n        /* \"#utility.yul\":26489:26502   */\n      eq\n        /* \"#utility.yul\":26479:26526   */\n      tag_652\n      jumpi\n        /* \"#utility.yul\":26506:26524   */\n      tag_653\n      tag_314\n      jump\t// in\n    tag_653:\n        /* \"#utility.yul\":26479:26526   */\n    tag_652:\n        /* \"#utility.yul\":26535:26592   */\n      tag_654\n        /* \"#utility.yul\":26587:26591   */\n      dup2\n        /* \"#utility.yul\":26535:26592   */\n      tag_339\n      jump\t// in\n    tag_654:\n        /* \"#utility.yul\":26395:26598   */\n      pop\n      pop\n      jump\t// out\n        /* \"#utility.yul\":26604:26833   */\n    tag_341:\n        /* \"#utility.yul\":26686:26827   */\n    tag_656:\n        /* \"#utility.yul\":26703:26706   */\n      dup2\n        /* \"#utility.yul\":26696:26701   */\n      dup2\n        /* \"#utility.yul\":26693:26707   */\n      lt\n        /* \"#utility.yul\":26686:26827   */\n      iszero\n      tag_658\n      jumpi\n        /* \"#utility.yul\":26757:26817   */\n      tag_659\n        /* \"#utility.yul\":26815:26816   */\n      0x00\n        /* \"#utility.yul\":26808:26813   */\n      dup3\n        /* \"#utility.yul\":26757:26817   */\n      tag_340\n      jump\t// in\n    tag_659:\n        /* \"#utility.yul\":26730:26731   */\n      0x01\n        /* \"#utility.yul\":26723:26728   */\n      dup2\n        /* \"#utility.yul\":26719:26732   */\n      add\n        /* \"#utility.yul\":26710:26732   */\n      swap1\n      pop\n        /* \"#utility.yul\":26686:26827   */\n      jump(tag_656)\n    tag_658:\n        /* \"#utility.yul\":26604:26833   */\n      pop\n      pop\n      jump\t// out\n        /* \"#utility.yul\":27089:27875   */\n    tag_343:\n        /* \"#utility.yul\":27230:27233   */\n      dup2\n        /* \"#utility.yul\":27218:27228   */\n      dup4\n        /* \"#utility.yul\":27215:27234   */\n      lt\n        /* \"#utility.yul\":27212:27868   */\n      iszero\n      tag_663\n      jumpi\n        /* \"#utility.yul\":27321:27407   */\n      tag_664\n        /* \"#utility.yul\":27403:27406   */\n      dup3\n        /* \"#utility.yul\":27321:27407   */\n      tag_337\n      jump\t// in\n    tag_664:\n        /* \"#utility.yul\":27440:27533   */\n      tag_665\n        /* \"#utility.yul\":27522:27532   */\n      dup5\n        /* \"#utility.yul\":27440:27533   */\n      tag_337\n      jump\t// in\n    tag_665:\n        /* \"#utility.yul\":27568:27642   */\n      tag_666\n        /* \"#utility.yul\":27636:27641   */\n      dup4\n        /* \"#utility.yul\":27568:27642   */\n      tag_338\n      jump\t// in\n    tag_666:\n        /* \"#utility.yul\":27694:27706   */\n      dup2\n        /* \"#utility.yul\":27678:27692   */\n      dup2\n        /* \"#utility.yul\":27674:27707   */\n      add\n        /* \"#utility.yul\":27757:27769   */\n      dup4\n        /* \"#utility.yul\":27741:27755   */\n      dup3\n        /* \"#utility.yul\":27737:27770   */\n      add\n        /* \"#utility.yul\":27784:27858   */\n      tag_667\n        /* \"#utility.yul\":27848:27857   */\n      dup2\n        /* \"#utility.yul\":27835:27846   */\n      dup4\n        /* \"#utility.yul\":27784:27858   */\n      tag_341\n      jump\t// in\n    tag_667:\n        /* \"#utility.yul\":27235:27868   */\n      pop\n      pop\n      pop\n      pop\n      pop\n        /* \"#utility.yul\":27212:27868   */\n    tag_663:\n        /* \"#utility.yul\":27089:27875   */\n      pop\n      pop\n      pop\n      jump\t// out\n        /* \"#utility.yul\":27881:28332   */\n    tag_344:\n        /* \"#utility.yul\":27995:28015   */\n      0x010000000000000000\n        /* \"#utility.yul\":27987:27993   */\n      dup3\n        /* \"#utility.yul\":27984:28016   */\n      gt\n        /* \"#utility.yul\":27981:28059   */\n      iszero\n      tag_669\n      jumpi\n        /* \"#utility.yul\":28031:28049   */\n      tag_670\n      tag_168\n      jump\t// in\n    tag_670:\n        /* \"#utility.yul\":27981:28059   */\n    tag_669:\n        /* \"#utility.yul\":28083:28155   */\n      tag_671\n        /* \"#utility.yul\":28149:28154   */\n      dup2\n        /* \"#utility.yul\":28083:28155   */\n      tag_334\n      jump\t// in\n    tag_671:\n        /* \"#utility.yul\":28207:28213   */\n      dup3\n        /* \"#utility.yul\":28200:28205   */\n      dup3\n        /* \"#utility.yul\":28193:28214   */\n      sstore\n        /* \"#utility.yul\":28224:28325   */\n      tag_672\n        /* \"#utility.yul\":28318:28324   */\n      dup4\n        /* \"#utility.yul\":28310:28316   */\n      dup3\n        /* \"#utility.yul\":28303:28308   */\n      dup5\n        /* \"#utility.yul\":28224:28325   */\n      tag_343\n      jump\t// in\n    tag_672:\n        /* \"#utility.yul\":27971:28332   */\n      pop\n        /* \"#utility.yul\":27881:28332   */\n      pop\n      pop\n      jump\t// out\n        /* \"#utility.yul\":28337:28475   */\n    tag_345:\n        /* \"#utility.yul\":28437:28443   */\n      0x00\n        /* \"#utility.yul\":28465:28468   */\n      dup3\n        /* \"#utility.yul\":28455:28468   */\n      swap1\n      pop\n        /* \"#utility.yul\":28337:28475   */\n      swap3\n      swap2\n      pop\n      pop\n      jump\t// out\n        /* \"#utility.yul\":28481:28667   */\n    tag_346:\n        /* \"#utility.yul\":28526:28537   */\n      0x00\n        /* \"#utility.yul\":28575:28578   */\n      dup2\n        /* \"#utility.yul\":28562:28579   */\n      calldataload\n        /* \"#utility.yul\":28588:28621   */\n      tag_675\n        /* \"#utility.yul\":28615:28620   */\n      dup2\n        /* \"#utility.yul\":28588:28621   */\n      tag_302\n      jump\t// in\n    tag_675:\n        /* \"#utility.yul\":28655:28660   */\n      dup1\n        /* \"#utility.yul\":28631:28660   */\n      swap2\n      pop\n        /* \"#utility.yul\":28538:28667   */\n      pop\n        /* \"#utility.yul\":28481:28667   */\n      swap2\n      swap1\n      pop\n      jump\t// out\n        /* \"#utility.yul\":28673:28765   */\n    tag_347:\n        /* \"#utility.yul\":28705:28713   */\n      0x00\n        /* \"#utility.yul\":28752:28757   */\n      dup2\n        /* \"#utility.yul\":28749:28750   */\n      0x00\n        /* \"#utility.yul\":28745:28758   */\n      shl\n        /* \"#utility.yul\":28724:28758   */\n      swap1\n      pop\n        /* \"#utility.yul\":28673:28765   */\n      swap2\n      swap1\n      pop\n      jump\t// out\n        /* \"#utility.yul\":28771:29037   */\n    tag_348:\n        /* \"#utility.yul\":28829:28835   */\n      0x00\n        /* \"#utility.yul\":28858:28900   */\n      0xffffffffffffffffffffffffffffffffffffffff\n        /* \"#utility.yul\":28921:28943   */\n      tag_678\n        /* \"#utility.yul\":28934:28942   */\n      dup5\n        /* \"#utility.yul\":28921:28943   */\n      tag_347\n      jump\t// in\n    tag_678:\n        /* \"#utility.yul\":28909:28943   */\n      swap4\n      pop\n        /* \"#utility.yul\":28976:28980   */\n      dup1\n        /* \"#utility.yul\":28972:28981   */\n      not\n        /* \"#utility.yul\":28965:28970   */\n      dup4\n        /* \"#utility.yul\":28961:28982   */\n      and\n        /* \"#utility.yul\":28952:28982   */\n      swap3\n      pop\n        /* \"#utility.yul\":29025:29029   */\n      dup1\n        /* \"#utility.yul\":29015:29023   */\n      dup5\n        /* \"#utility.yul\":29011:29030   */\n      and\n        /* \"#utility.yul\":29004:29009   */\n      dup4\n        /* \"#utility.yul\":29001:29031   */\n      or\n        /* \"#utility.yul\":28991:29031   */\n      swap2\n      pop\n        /* \"#utility.yul\":28836:29037   */\n      pop\n        /* \"#utility.yul\":28771:29037   */\n      swap3\n      swap2\n      pop\n      pop\n      jump\t// out\n        /* \"#utility.yul\":29043:29169   */\n    tag_349:\n        /* \"#utility.yul\":29093:29102   */\n      0x00\n        /* \"#utility.yul\":29126:29163   */\n      tag_680\n        /* \"#utility.yul\":29157:29162   */\n      dup3\n        /* \"#utility.yul\":29126:29163   */\n      tag_294\n      jump\t// in\n    tag_680:\n        /* \"#utility.yul\":29113:29163   */\n      swap1\n      pop\n        /* \"#utility.yul\":29043:29169   */\n      swap2\n      swap1\n      pop\n      jump\t// out\n        /* \"#utility.yul\":29175:29250   */\n    tag_350:\n        /* \"#utility.yul\":29218:29221   */\n      0x00\n        /* \"#utility.yul\":29239:29244   */\n      dup2\n        /* \"#utility.yul\":29232:29244   */\n      swap1\n      pop\n        /* \"#utility.yul\":29175:29250   */\n      swap2\n      swap1\n      pop\n      jump\t// out\n        /* \"#utility.yul\":29256:29519   */\n    tag_351:\n        /* \"#utility.yul\":29367:29406   */\n      tag_683\n        /* \"#utility.yul\":29398:29405   */\n      dup3\n        /* \"#utility.yul\":29367:29406   */\n      tag_349\n      jump\t// in\n    tag_683:\n        /* \"#utility.yul\":29428:29512   */\n      tag_684\n        /* \"#utility.yul\":29470:29511   */\n      tag_685\n        /* \"#utility.yul\":29494:29510   */\n      dup3\n        /* \"#utility.yul\":29470:29511   */\n      tag_350\n      jump\t// in\n    tag_685:\n        /* \"#utility.yul\":29463:29467   */\n      dup4\n        /* \"#utility.yul\":29457:29468   */\n      sload\n        /* \"#utility.yul\":29428:29512   */\n      tag_348\n      jump\t// in\n    tag_684:\n        /* \"#utility.yul\":29422:29426   */\n      dup3\n        /* \"#utility.yul\":29415:29513   */\n      sstore\n        /* \"#utility.yul\":29333:29519   */\n      pop\n        /* \"#utility.yul\":29256:29519   */\n      pop\n      pop\n      jump\t// out\n        /* \"#utility.yul\":29525:29645   */\n    tag_352:\n        /* \"#utility.yul\":29597:29620   */\n      tag_687\n        /* \"#utility.yul\":29614:29619   */\n      dup2\n        /* \"#utility.yul\":29597:29620   */\n      tag_285\n      jump\t// in\n    tag_687:\n        /* \"#utility.yul\":29590:29595   */\n      dup2\n        /* \"#utility.yul\":29587:29621   */\n      eq\n        /* \"#utility.yul\":29577:29639   */\n      tag_688\n      jumpi\n        /* \"#utility.yul\":29635:29636   */\n      0x00\n        /* \"#utility.yul\":29632:29633   */\n      0x00\n        /* \"#utility.yul\":29625:29637   */\n      revert\n        /* \"#utility.yul\":29577:29639   */\n    tag_688:\n        /* \"#utility.yul\":29525:29645   */\n      pop\n      jump\t// out\n        /* \"#utility.yul\":29651:29835   */\n    tag_353:\n        /* \"#utility.yul\":29695:29706   */\n      0x00\n        /* \"#utility.yul\":29744:29747   */\n      dup2\n        /* \"#utility.yul\":29731:29748   */\n      calldataload\n        /* \"#utility.yul\":29757:29789   */\n      tag_690\n        /* \"#utility.yul\":29783:29788   */\n      dup2\n        /* \"#utility.yul\":29757:29789   */\n      tag_352\n      jump\t// in\n    tag_690:\n        /* \"#utility.yul\":29823:29828   */\n      dup1\n        /* \"#utility.yul\":29799:29828   */\n      swap2\n      pop\n        /* \"#utility.yul\":29707:29835   */\n      pop\n        /* \"#utility.yul\":29651:29835   */\n      swap2\n      swap1\n      pop\n      jump\t// out\n        /* \"#utility.yul\":29841:29937   */\n    tag_354:\n        /* \"#utility.yul\":29875:29883   */\n      0x00\n        /* \"#utility.yul\":29924:29929   */\n      dup2\n        /* \"#utility.yul\":29919:29922   */\n      0xa0\n        /* \"#utility.yul\":29915:29930   */\n      shl\n        /* \"#utility.yul\":29894:29930   */\n      swap1\n      pop\n        /* \"#utility.yul\":29841:29937   */\n      swap2\n      swap1\n      pop\n      jump\t// out\n        /* \"#utility.yul\":29943:30215   */\n    tag_355:\n        /* \"#utility.yul\":30001:30007   */\n      0x00\n        /* \"#utility.yul\":30030:30076   */\n      0xffff0000000000000000000000000000000000000000\n        /* \"#utility.yul\":30097:30121   */\n      tag_693\n        /* \"#utility.yul\":30112:30120   */\n      dup5\n        /* \"#utility.yul\":30097:30121   */\n      tag_354\n      jump\t// in\n    tag_693:\n        /* \"#utility.yul\":30085:30121   */\n      swap4\n      pop\n        /* \"#utility.yul\":30154:30158   */\n      dup1\n        /* \"#utility.yul\":30150:30159   */\n      not\n        /* \"#utility.yul\":30143:30148   */\n      dup4\n        /* \"#utility.yul\":30139:30160   */\n      and\n        /* \"#utility.yul\":30130:30160   */\n      swap3\n      pop\n        /* \"#utility.yul\":30203:30207   */\n      dup1\n        /* \"#utility.yul\":30193:30201   */\n      dup5\n        /* \"#utility.yul\":30189:30208   */\n      and\n        /* \"#utility.yul\":30182:30187   */\n      dup4\n        /* \"#utility.yul\":30179:30209   */\n      or\n        /* \"#utility.yul\":30169:30209   */\n      swap2\n      pop\n        /* \"#utility.yul\":30008:30215   */\n      pop\n        /* \"#utility.yul\":29943:30215   */\n      swap3\n      swap2\n      pop\n      pop\n      jump\t// out\n        /* \"#utility.yul\":30221:30359   */\n    tag_356:\n        /* \"#utility.yul\":30269:30278   */\n      0x00\n        /* \"#utility.yul\":30302:30353   */\n      tag_695\n        /* \"#utility.yul\":30319:30352   */\n      tag_696\n        /* \"#utility.yul\":30328:30351   */\n      tag_697\n        /* \"#utility.yul\":30345:30350   */\n      dup5\n        /* \"#utility.yul\":30328:30351   */\n      tag_285\n      jump\t// in\n    tag_697:\n        /* \"#utility.yul\":30319:30352   */\n      tag_292\n      jump\t// in\n    tag_696:\n        /* \"#utility.yul\":30302:30353   */\n      tag_285\n      jump\t// in\n    tag_695:\n        /* \"#utility.yul\":30289:30353   */\n      swap1\n      pop\n        /* \"#utility.yul\":30221:30359   */\n      swap2\n      swap1\n      pop\n      jump\t// out\n        /* \"#utility.yul\":30365:30439   */\n    tag_357:\n        /* \"#utility.yul\":30407:30410   */\n      0x00\n        /* \"#utility.yul\":30428:30433   */\n      dup2\n        /* \"#utility.yul\":30421:30433   */\n      swap1\n      pop\n        /* \"#utility.yul\":30365:30439   */\n      swap2\n      swap1\n      pop\n      jump\t// out\n        /* \"#utility.yul\":30445:30704   */\n    tag_358:\n        /* \"#utility.yul\":30555:30592   */\n      tag_700\n        /* \"#utility.yul\":30584:30591   */\n      dup3\n        /* \"#utility.yul\":30555:30592   */\n      tag_356\n      jump\t// in\n    tag_700:\n        /* \"#utility.yul\":30614:30697   */\n      tag_701\n        /* \"#utility.yul\":30656:30696   */\n      tag_702\n        /* \"#utility.yul\":30679:30695   */\n      dup3\n        /* \"#utility.yul\":30656:30696   */\n      tag_357\n      jump\t// in\n    tag_702:\n        /* \"#utility.yul\":30649:30653   */\n      dup4\n        /* \"#utility.yul\":30643:30654   */\n      sload\n        /* \"#utility.yul\":30614:30697   */\n      tag_355\n      jump\t// in\n    tag_701:\n        /* \"#utility.yul\":30608:30612   */\n      dup3\n        /* \"#utility.yul\":30601:30698   */\n      sstore\n        /* \"#utility.yul\":30521:30704   */\n      pop\n        /* \"#utility.yul\":30445:30704   */\n      pop\n      pop\n      jump\t// out\n        /* \"#utility.yul\":30710:31513   */\n    tag_359:\n        /* \"#utility.yul\":30884:30885   */\n      0x00\n        /* \"#utility.yul\":30878:30882   */\n      dup2\n        /* \"#utility.yul\":30874:30886   */\n      add\n        /* \"#utility.yul\":30930:30931   */\n      0x00\n        /* \"#utility.yul\":30923:30928   */\n      dup4\n        /* \"#utility.yul\":30919:30932   */\n      add\n        /* \"#utility.yul\":30980:30992   */\n      dup1\n        /* \"#utility.yul\":31023:31065   */\n      tag_704\n        /* \"#utility.yul\":31051:31064   */\n      dup2\n        /* \"#utility.yul\":31023:31065   */\n      tag_346\n      jump\t// in\n    tag_704:\n        /* \"#utility.yul\":31006:31065   */\n      swap1\n      pop\n        /* \"#utility.yul\":31079:31158   */\n      tag_705\n        /* \"#utility.yul\":31144:31157   */\n      dup2\n        /* \"#utility.yul\":31132:31142   */\n      dup5\n        /* \"#utility.yul\":31079:31158   */\n      tag_351\n      jump\t// in\n    tag_705:\n        /* \"#utility.yul\":30841:31169   */\n      pop\n      pop\n      pop\n        /* \"#utility.yul\":31222:31223   */\n      0x00\n        /* \"#utility.yul\":31216:31220   */\n      dup2\n        /* \"#utility.yul\":31212:31224   */\n      add\n        /* \"#utility.yul\":31268:31270   */\n      0x20\n        /* \"#utility.yul\":31261:31266   */\n      dup4\n        /* \"#utility.yul\":31257:31271   */\n      add\n        /* \"#utility.yul\":31319:31331   */\n      dup1\n        /* \"#utility.yul\":31362:31403   */\n      tag_706\n        /* \"#utility.yul\":31389:31402   */\n      dup2\n        /* \"#utility.yul\":31362:31403   */\n      tag_353\n      jump\t// in\n    tag_706:\n        /* \"#utility.yul\":31345:31403   */\n      swap1\n      pop\n        /* \"#utility.yul\":31417:31495   */\n      tag_707\n        /* \"#utility.yul\":31481:31494   */\n      dup2\n        /* \"#utility.yul\":31469:31479   */\n      dup5\n        /* \"#utility.yul\":31417:31495   */\n      tag_358\n      jump\t// in\n    tag_707:\n        /* \"#utility.yul\":31179:31506   */\n      pop\n      pop\n      pop\n        /* \"#utility.yul\":30710:31513   */\n      pop\n      pop\n      jump\t// out\n        /* \"#utility.yul\":31519:31772   */\n    tag_360:\n        /* \"#utility.yul\":31654:31766   */\n      tag_709\n        /* \"#utility.yul\":31758:31765   */\n      dup3\n        /* \"#utility.yul\":31752:31756   */\n      dup3\n        /* \"#utility.yul\":31654:31766   */\n      tag_359\n      jump\t// in\n    tag_709:\n        /* \"#utility.yul\":31519:31772   */\n      pop\n      pop\n      jump\t// out\n        /* \"#utility.yul\":31778:32717   */\n    tag_361:\n        /* \"#utility.yul\":31976:32063   */\n      tag_711\n        /* \"#utility.yul\":32059:32062   */\n      dup4\n        /* \"#utility.yul\":32052:32057   */\n      dup4\n        /* \"#utility.yul\":31976:32063   */\n      tag_345\n      jump\t// in\n    tag_711:\n        /* \"#utility.yul\":32073:32152   */\n      tag_712\n        /* \"#utility.yul\":32145:32151   */\n      dup2\n        /* \"#utility.yul\":32139:32143   */\n      dup4\n        /* \"#utility.yul\":32073:32152   */\n      tag_344\n      jump\t// in\n    tag_712:\n        /* \"#utility.yul\":32176:32260   */\n      tag_713\n        /* \"#utility.yul\":32254:32259   */\n      dup4\n        /* \"#utility.yul\":32176:32260   */\n      tag_333\n      jump\t// in\n    tag_713:\n        /* \"#utility.yul\":32289:32362   */\n      tag_714\n        /* \"#utility.yul\":32357:32361   */\n      dup4\n        /* \"#utility.yul\":32289:32362   */\n      tag_338\n      jump\t// in\n    tag_714:\n        /* \"#utility.yul\":32387:32388   */\n      0x00\n        /* \"#utility.yul\":32372:32711   */\n    tag_715:\n        /* \"#utility.yul\":32397:32403   */\n      dup4\n        /* \"#utility.yul\":32394:32395   */\n      dup2\n        /* \"#utility.yul\":32391:32404   */\n      lt\n        /* \"#utility.yul\":32372:32711   */\n      iszero\n      tag_717\n      jumpi\n        /* \"#utility.yul\":32469:32475   */\n      dup3\n        /* \"#utility.yul\":32489:32614   */\n      tag_718\n        /* \"#utility.yul\":32602:32613   */\n      dup2\n        /* \"#utility.yul\":32589:32600   */\n      dup5\n        /* \"#utility.yul\":32489:32614   */\n      tag_360\n      jump\t// in\n    tag_718:\n        /* \"#utility.yul\":32650:32652   */\n      0x40\n        /* \"#utility.yul\":32642:32648   */\n      dup5\n        /* \"#utility.yul\":32638:32653   */\n      add\n        /* \"#utility.yul\":32628:32653   */\n      swap4\n      pop\n        /* \"#utility.yul\":32699:32700   */\n      0x01\n        /* \"#utility.yul\":32686:32697   */\n      dup4\n        /* \"#utility.yul\":32682:32701   */\n      add\n        /* \"#utility.yul\":32667:32701   */\n      swap3\n      pop\n        /* \"#utility.yul\":32422:32711   */\n      pop\n        /* \"#utility.yul\":32418:32419   */\n      0x01\n        /* \"#utility.yul\":32415:32416   */\n      dup2\n        /* \"#utility.yul\":32411:32420   */\n      add\n        /* \"#utility.yul\":32406:32420   */\n      swap1\n      pop\n        /* \"#utility.yul\":32372:32711   */\n      jump(tag_715)\n    tag_717:\n        /* \"#utility.yul\":32376:32390   */\n      pop\n        /* \"#utility.yul\":31951:32717   */\n      pop\n      pop\n      pop\n        /* \"#utility.yul\":31778:32717   */\n      pop\n      pop\n      pop\n      jump\t// out\n        /* \"#utility.yul\":32723:33091   */\n    tag_362:\n        /* \"#utility.yul\":32916:33085   */\n      tag_720\n        /* \"#utility.yul\":33077:33084   */\n      dup4\n        /* \"#utility.yul\":33068:33075   */\n      dup4\n        /* \"#utility.yul\":33062:33066   */\n      dup4\n        /* \"#utility.yul\":32916:33085   */\n      tag_361\n      jump\t// in\n    tag_720:\n        /* \"#utility.yul\":32723:33091   */\n      pop\n      pop\n      pop\n      jump\t// out\n        /* \"#utility.yul\":33097:34436   */\n    tag_363:\n        /* \"#utility.yul\":33267:33268   */\n      0x00\n        /* \"#utility.yul\":33261:33265   */\n      dup2\n        /* \"#utility.yul\":33257:33269   */\n      add\n        /* \"#utility.yul\":33313:33314   */\n      0x00\n        /* \"#utility.yul\":33306:33311   */\n      dup4\n        /* \"#utility.yul\":33302:33315   */\n      add\n        /* \"#utility.yul\":33378:33441   */\n      tag_722\n        /* \"#utility.yul\":33428:33440   */\n      dup2\n        /* \"#utility.yul\":33421:33426   */\n      dup6\n        /* \"#utility.yul\":33378:33441   */\n      tag_79\n      jump\t// in\n    tag_722:\n        /* \"#utility.yul\":33455:33568   */\n      tag_723\n        /* \"#utility.yul\":33554:33567   */\n      dup2\n        /* \"#utility.yul\":33539:33552   */\n      dup4\n        /* \"#utility.yul\":33527:33537   */\n      dup7\n        /* \"#utility.yul\":33455:33568   */\n      tag_332\n      jump\t// in\n    tag_723:\n        /* \"#utility.yul\":33224:33579   */\n      pop\n      pop\n      pop\n      pop\n        /* \"#utility.yul\":33632:33633   */\n      0x01\n        /* \"#utility.yul\":33626:33630   */\n      dup2\n        /* \"#utility.yul\":33622:33634   */\n      add\n        /* \"#utility.yul\":33678:33680   */\n      0x20\n        /* \"#utility.yul\":33671:33676   */\n      dup4\n        /* \"#utility.yul\":33667:33681   */\n      add\n        /* \"#utility.yul\":33744:33807   */\n      tag_724\n        /* \"#utility.yul\":33794:33806   */\n      dup2\n        /* \"#utility.yul\":33787:33792   */\n      dup6\n        /* \"#utility.yul\":33744:33807   */\n      tag_79\n      jump\t// in\n    tag_724:\n        /* \"#utility.yul\":33821:33934   */\n      tag_725\n        /* \"#utility.yul\":33920:33933   */\n      dup2\n        /* \"#utility.yul\":33905:33918   */\n      dup4\n        /* \"#utility.yul\":33893:33903   */\n      dup7\n        /* \"#utility.yul\":33821:33934   */\n      tag_332\n      jump\t// in\n    tag_725:\n        /* \"#utility.yul\":33589:33945   */\n      pop\n      pop\n      pop\n      pop\n        /* \"#utility.yul\":33998:33999   */\n      0x02\n        /* \"#utility.yul\":33992:33996   */\n      dup2\n        /* \"#utility.yul\":33988:34000   */\n      add\n        /* \"#utility.yul\":34044:34046   */\n      0x40\n        /* \"#utility.yul\":34037:34042   */\n      dup4\n        /* \"#utility.yul\":34033:34047   */\n      add\n        /* \"#utility.yul\":34110:34214   */\n      tag_726\n        /* \"#utility.yul\":34201:34213   */\n      dup2\n        /* \"#utility.yul\":34194:34199   */\n      dup6\n        /* \"#utility.yul\":34110:34214   */\n      tag_83\n      jump\t// in\n    tag_726:\n        /* \"#utility.yul\":34228:34418   */\n      tag_727\n        /* \"#utility.yul\":34404:34417   */\n      dup2\n        /* \"#utility.yul\":34389:34402   */\n      dup4\n        /* \"#utility.yul\":34377:34387   */\n      dup7\n        /* \"#utility.yul\":34228:34418   */\n      tag_362\n      jump\t// in\n    tag_727:\n        /* \"#utility.yul\":33955:34429   */\n      pop\n      pop\n      pop\n      pop\n        /* \"#utility.yul\":33097:34436   */\n      pop\n      pop\n      jump\t// out\n        /* \"#utility.yul\":34442:34687   */\n    tag_91:\n        /* \"#utility.yul\":34573:34681   */\n      tag_729\n        /* \"#utility.yul\":34673:34680   */\n      dup3\n        /* \"#utility.yul\":34667:34671   */\n      dup3\n        /* \"#utility.yul\":34573:34681   */\n      tag_363\n      jump\t// in\n    tag_729:\n        /* \"#utility.yul\":34442:34687   */\n      pop\n      pop\n      jump\t// out\n        /* \"#utility.yul\":34693:34873   */\n    tag_101:\n        /* \"#utility.yul\":34741:34818   */\n      0x4e487b7100000000000000000000000000000000000000000000000000000000\n        /* \"#utility.yul\":34738:34739   */\n      0x00\n        /* \"#utility.yul\":34731:34819   */\n      mstore\n        /* \"#utility.yul\":34838:34842   */\n      0x32\n        /* \"#utility.yul\":34835:34836   */\n      0x04\n        /* \"#utility.yul\":34828:34843   */\n      mstore\n        /* \"#utility.yul\":34862:34866   */\n      0x24\n        /* \"#utility.yul\":34859:34860   */\n      0x00\n        /* \"#utility.yul\":34852:34867   */\n      revert\n        /* \"#utility.yul\":34879:35052   */\n    tag_364:\n        /* \"#utility.yul\":35019:35044   */\n      0x43616c6c6572206973206e6f7420746865206f776e6572000000000000000000\n        /* \"#utility.yul\":35015:35016   */\n      0x00\n        /* \"#utility.yul\":35007:35013   */\n      dup3\n        /* \"#utility.yul\":35003:35017   */\n      add\n        /* \"#utility.yul\":34996:35045   */\n      mstore\n        /* \"#utility.yul\":34879:35052   */\n      pop\n      jump\t// out\n        /* \"#utility.yul\":35058:35424   */\n    tag_365:\n        /* \"#utility.yul\":35200:35203   */\n      0x00\n        /* \"#utility.yul\":35221:35288   */\n      tag_733\n        /* \"#utility.yul\":35285:35287   */\n      0x17\n        /* \"#utility.yul\":35280:35283   */\n      dup4\n        /* \"#utility.yul\":35221:35288   */\n      tag_304\n      jump\t// in\n    tag_733:\n        /* \"#utility.yul\":35214:35288   */\n      swap2\n      pop\n        /* \"#utility.yul\":35297:35390   */\n      tag_734\n        /* \"#utility.yul\":35386:35389   */\n      dup3\n        /* \"#utility.yul\":35297:35390   */\n      tag_364\n      jump\t// in\n    tag_734:\n        /* \"#utility.yul\":35415:35417   */\n      0x20\n        /* \"#utility.yul\":35410:35413   */\n      dup3\n        /* \"#utility.yul\":35406:35418   */\n      add\n        /* \"#utility.yul\":35399:35418   */\n      swap1\n      pop\n        /* \"#utility.yul\":35058:35424   */\n      swap2\n      swap1\n      pop\n      jump\t// out\n        /* \"#utility.yul\":35430:35849   */\n    tag_149:\n        /* \"#utility.yul\":35596:35600   */\n      0x00\n        /* \"#utility.yul\":35634:35636   */\n      0x20\n        /* \"#utility.yul\":35623:35632   */\n      dup3\n        /* \"#utility.yul\":35619:35637   */\n      add\n        /* \"#utility.yul\":35611:35637   */\n      swap1\n      pop\n        /* \"#utility.yul\":35683:35692   */\n      dup2\n        /* \"#utility.yul\":35677:35681   */\n      dup2\n        /* \"#utility.yul\":35673:35693   */\n      sub\n        /* \"#utility.yul\":35669:35670   */\n      0x00\n        /* \"#utility.yul\":35658:35667   */\n      dup4\n        /* \"#utility.yul\":35654:35671   */\n      add\n        /* \"#utility.yul\":35647:35694   */\n      mstore\n        /* \"#utility.yul\":35711:35842   */\n      tag_736\n        /* \"#utility.yul\":35837:35841   */\n      dup2\n        /* \"#utility.yul\":35711:35842   */\n      tag_365\n      jump\t// in\n    tag_736:\n        /* \"#utility.yul\":35703:35842   */\n      swap1\n      pop\n        /* \"#utility.yul\":35430:35849   */\n      swap2\n      swap1\n      pop\n      jump\t// out\n        /* \"#utility.yul\":35855:35992   */\n    tag_366:\n        /* \"#utility.yul\":35900:35905   */\n      0x00\n        /* \"#utility.yul\":35938:35944   */\n      dup2\n        /* \"#utility.yul\":35925:35945   */\n      calldataload\n        /* \"#utility.yul\":35916:35945   */\n      swap1\n      pop\n        /* \"#utility.yul\":35954:35986   */\n      tag_738\n        /* \"#utility.yul\":35980:35985   */\n      dup2\n        /* \"#utility.yul\":35954:35986   */\n      tag_352\n      jump\t// in\n    tag_738:\n        /* \"#utility.yul\":35855:35992   */\n      swap3\n      swap2\n      pop\n      pop\n      jump\t// out\n        /* \"#utility.yul\":35998:36325   */\n    tag_180:\n        /* \"#utility.yul\":36056:36062   */\n      0x00\n        /* \"#utility.yul\":36105:36107   */\n      0x20\n        /* \"#utility.yul\":36093:36102   */\n      dup3\n        /* \"#utility.yul\":36084:36091   */\n      dup5\n        /* \"#utility.yul\":36080:36103   */\n      sub\n        /* \"#utility.yul\":36076:36108   */\n      slt\n        /* \"#utility.yul\":36073:36192   */\n      iszero\n      tag_740\n      jumpi\n        /* \"#utility.yul\":36111:36190   */\n      tag_741\n      tag_257\n      jump\t// in\n    tag_741:\n        /* \"#utility.yul\":36073:36192   */\n    tag_740:\n        /* \"#utility.yul\":36231:36232   */\n      0x00\n        /* \"#utility.yul\":36256:36308   */\n      tag_742\n        /* \"#utility.yul\":36300:36307   */\n      dup5\n        /* \"#utility.yul\":36291:36297   */\n      dup3\n        /* \"#utility.yul\":36280:36289   */\n      dup6\n        /* \"#utility.yul\":36276:36298   */\n      add\n        /* \"#utility.yul\":36256:36308   */\n      tag_366\n      jump\t// in\n    tag_742:\n        /* \"#utility.yul\":36246:36308   */\n      swap2\n      pop\n        /* \"#utility.yul\":36202:36318   */\n      pop\n        /* \"#utility.yul\":35998:36325   */\n      swap3\n      swap2\n      pop\n      pop\n      jump\t// out\n        /* \"#utility.yul\":36331:36448   */\n    tag_367:\n        /* \"#utility.yul\":36440:36441   */\n      0x00\n        /* \"#utility.yul\":36437:36438   */\n      0x00\n        /* \"#utility.yul\":36430:36442   */\n      revert\n        /* \"#utility.yul\":36599:37185   */\n    tag_369:\n        /* \"#utility.yul\":36672:36677   */\n      0x00\n        /* \"#utility.yul\":36716:36720   */\n      0x40\n        /* \"#utility.yul\":36704:36713   */\n      dup3\n        /* \"#utility.yul\":36699:36702   */\n      dup5\n        /* \"#utility.yul\":36695:36714   */\n      sub\n        /* \"#utility.yul\":36691:36721   */\n      slt\n        /* \"#utility.yul\":36688:36805   */\n      iszero\n      tag_746\n      jumpi\n        /* \"#utility.yul\":36724:36803   */\n      tag_747\n      tag_367\n      jump\t// in\n    tag_747:\n        /* \"#utility.yul\":36688:36805   */\n    tag_746:\n        /* \"#utility.yul\":36823:36844   */\n      tag_748\n        /* \"#utility.yul\":36839:36843   */\n      0x40\n        /* \"#utility.yul\":36823:36844   */\n      tag_263\n      jump\t// in\n    tag_748:\n        /* \"#utility.yul\":36814:36844   */\n      swap1\n      pop\n        /* \"#utility.yul\":36911:36912   */\n      0x00\n        /* \"#utility.yul\":36951:37000   */\n      tag_749\n        /* \"#utility.yul\":36996:36999   */\n      dup5\n        /* \"#utility.yul\":36987:36993   */\n      dup3\n        /* \"#utility.yul\":36976:36985   */\n      dup6\n        /* \"#utility.yul\":36972:36994   */\n      add\n        /* \"#utility.yul\":36951:37000   */\n      tag_303\n      jump\t// in\n    tag_749:\n        /* \"#utility.yul\":36944:36948   */\n      0x00\n        /* \"#utility.yul\":36937:36942   */\n      dup4\n        /* \"#utility.yul\":36933:36949   */\n      add\n        /* \"#utility.yul\":36926:37001   */\n      mstore\n        /* \"#utility.yul\":36854:37012   */\n      pop\n        /* \"#utility.yul\":37077:37079   */\n      0x20\n        /* \"#utility.yul\":37118:37166   */\n      tag_750\n        /* \"#utility.yul\":37162:37165   */\n      dup5\n        /* \"#utility.yul\":37153:37159   */\n      dup3\n        /* \"#utility.yul\":37142:37151   */\n      dup6\n        /* \"#utility.yul\":37138:37160   */\n      add\n        /* \"#utility.yul\":37118:37166   */\n      tag_366\n      jump\t// in\n    tag_750:\n        /* \"#utility.yul\":37111:37115   */\n      0x20\n        /* \"#utility.yul\":37104:37109   */\n      dup4\n        /* \"#utility.yul\":37100:37116   */\n      add\n        /* \"#utility.yul\":37093:37167   */\n      mstore\n        /* \"#utility.yul\":37022:37178   */\n      pop\n        /* \"#utility.yul\":36599:37185   */\n      swap3\n      swap2\n      pop\n      pop\n      jump\t// out\n        /* \"#utility.yul\":37191:37568   */\n    tag_185:\n        /* \"#utility.yul\":37274:37280   */\n      0x00\n        /* \"#utility.yul\":37323:37325   */\n      0x40\n        /* \"#utility.yul\":37311:37320   */\n      dup3\n        /* \"#utility.yul\":37302:37309   */\n      dup5\n        /* \"#utility.yul\":37298:37321   */\n      sub\n        /* \"#utility.yul\":37294:37326   */\n      slt\n        /* \"#utility.yul\":37291:37410   */\n      iszero\n      tag_752\n      jumpi\n        /* \"#utility.yul\":37329:37408   */\n      tag_753\n      tag_257\n      jump\t// in\n    tag_753:\n        /* \"#utility.yul\":37291:37410   */\n    tag_752:\n        /* \"#utility.yul\":37449:37450   */\n      0x00\n        /* \"#utility.yul\":37474:37551   */\n      tag_754\n        /* \"#utility.yul\":37543:37550   */\n      dup5\n        /* \"#utility.yul\":37534:37540   */\n      dup3\n        /* \"#utility.yul\":37523:37532   */\n      dup6\n        /* \"#utility.yul\":37519:37541   */\n      add\n        /* \"#utility.yul\":37474:37551   */\n      tag_369\n      jump\t// in\n    tag_754:\n        /* \"#utility.yul\":37464:37551   */\n      swap2\n      pop\n        /* \"#utility.yul\":37420:37561   */\n      pop\n        /* \"#utility.yul\":37191:37568   */\n      swap3\n      swap2\n      pop\n      pop\n      jump\t// out\n        /* \"#utility.yul\":37574:37768   */\n    tag_197:\n        /* \"#utility.yul\":37614:37618   */\n      0x00\n        /* \"#utility.yul\":37634:37654   */\n      tag_756\n        /* \"#utility.yul\":37652:37653   */\n      dup3\n        /* \"#utility.yul\":37634:37654   */\n      tag_271\n      jump\t// in\n    tag_756:\n        /* \"#utility.yul\":37629:37654   */\n      swap2\n      pop\n        /* \"#utility.yul\":37668:37688   */\n      tag_757\n        /* \"#utility.yul\":37686:37687   */\n      dup4\n        /* \"#utility.yul\":37668:37688   */\n      tag_271\n      jump\t// in\n    tag_757:\n        /* \"#utility.yul\":37663:37688   */\n      swap3\n      pop\n        /* \"#utility.yul\":37712:37713   */\n      dup3\n        /* \"#utility.yul\":37709:37710   */\n      dup3\n        /* \"#utility.yul\":37705:37714   */\n      sub\n        /* \"#utility.yul\":37697:37714   */\n      swap1\n      pop\n        /* \"#utility.yul\":37736:37737   */\n      dup2\n        /* \"#utility.yul\":37730:37734   */\n      dup2\n        /* \"#utility.yul\":37727:37738   */\n      gt\n        /* \"#utility.yul\":37724:37761   */\n      iszero\n      tag_758\n      jumpi\n        /* \"#utility.yul\":37741:37759   */\n      tag_759\n      tag_335\n      jump\t// in\n    tag_759:\n        /* \"#utility.yul\":37724:37761   */\n    tag_758:\n        /* \"#utility.yul\":37574:37768   */\n      swap3\n      swap2\n      pop\n      pop\n      jump\t// out\n        /* \"#utility.yul\":37774:37965   */\n    tag_204:\n        /* \"#utility.yul\":37814:37817   */\n      0x00\n        /* \"#utility.yul\":37833:37853   */\n      tag_761\n        /* \"#utility.yul\":37851:37852   */\n      dup3\n        /* \"#utility.yul\":37833:37853   */\n      tag_271\n      jump\t// in\n    tag_761:\n        /* \"#utility.yul\":37828:37853   */\n      swap2\n      pop\n        /* \"#utility.yul\":37867:37887   */\n      tag_762\n        /* \"#utility.yul\":37885:37886   */\n      dup4\n        /* \"#utility.yul\":37867:37887   */\n      tag_271\n      jump\t// in\n    tag_762:\n        /* \"#utility.yul\":37862:37887   */\n      swap3\n      pop\n        /* \"#utility.yul\":37910:37911   */\n      dup3\n        /* \"#utility.yul\":37907:37908   */\n      dup3\n        /* \"#utility.yul\":37903:37912   */\n      add\n        /* \"#utility.yul\":37896:37912   */\n      swap1\n      pop\n        /* \"#utility.yul\":37931:37934   */\n      dup1\n        /* \"#utility.yul\":37928:37929   */\n      dup3\n        /* \"#utility.yul\":37925:37935   */\n      gt\n        /* \"#utility.yul\":37922:37958   */\n      iszero\n      tag_763\n      jumpi\n        /* \"#utility.yul\":37938:37956   */\n      tag_764\n      tag_335\n      jump\t// in\n    tag_764:\n        /* \"#utility.yul\":37922:37958   */\n    tag_763:\n        /* \"#utility.yul\":37774:37965   */\n      swap3\n      swap2\n      pop\n      pop\n      jump\t// out\n        /* \"#utility.yul\":37971:38118   */\n    tag_370:\n        /* \"#utility.yul\":38072:38083   */\n      0x00\n        /* \"#utility.yul\":38109:38112   */\n      dup2\n        /* \"#utility.yul\":38094:38112   */\n      swap1\n      pop\n        /* \"#utility.yul\":37971:38118   */\n      swap3\n      swap2\n      pop\n      pop\n      jump\t// out\n        /* \"#utility.yul\":38146:38473   */\n    tag_371:\n        /* \"#utility.yul\":38260:38263   */\n      0x00\n        /* \"#utility.yul\":38281:38369   */\n      tag_767\n        /* \"#utility.yul\":38362:38368   */\n      dup4\n        /* \"#utility.yul\":38357:38360   */\n      dup6\n        /* \"#utility.yul\":38281:38369   */\n      tag_370\n      jump\t// in\n    tag_767:\n        /* \"#utility.yul\":38274:38369   */\n      swap4\n      pop\n        /* \"#utility.yul\":38379:38435   */\n      tag_768\n        /* \"#utility.yul\":38428:38434   */\n      dup4\n        /* \"#utility.yul\":38423:38426   */\n      dup6\n        /* \"#utility.yul\":38416:38421   */\n      dup5\n        /* \"#utility.yul\":38379:38435   */\n      tag_265\n      jump\t// in\n    tag_768:\n        /* \"#utility.yul\":38460:38466   */\n      dup3\n        /* \"#utility.yul\":38455:38458   */\n      dup5\n        /* \"#utility.yul\":38451:38467   */\n      add\n        /* \"#utility.yul\":38444:38467   */\n      swap1\n      pop\n        /* \"#utility.yul\":38146:38473   */\n      swap4\n      swap3\n      pop\n      pop\n      pop\n      jump\t// out\n        /* \"#utility.yul\":38479:38770   */\n    tag_216:\n        /* \"#utility.yul\":38619:38622   */\n      0x00\n        /* \"#utility.yul\":38641:38744   */\n      tag_770\n        /* \"#utility.yul\":38740:38743   */\n      dup3\n        /* \"#utility.yul\":38731:38737   */\n      dup5\n        /* \"#utility.yul\":38723:38729   */\n      dup7\n        /* \"#utility.yul\":38641:38744   */\n      tag_371\n      jump\t// in\n    tag_770:\n        /* \"#utility.yul\":38634:38744   */\n      swap2\n      pop\n        /* \"#utility.yul\":38761:38764   */\n      dup2\n        /* \"#utility.yul\":38754:38764   */\n      swap1\n      pop\n        /* \"#utility.yul\":38479:38770   */\n      swap4\n      swap3\n      pop\n      pop\n      pop\n      jump\t// out\n        /* \"#utility.yul\":38776:38958   */\n    tag_372:\n        /* \"#utility.yul\":38916:38950   */\n      0x4469726563746f72792063616e6e6f74206265207a65726f2061646472657373\n        /* \"#utility.yul\":38912:38913   */\n      0x00\n        /* \"#utility.yul\":38904:38910   */\n      dup3\n        /* \"#utility.yul\":38900:38914   */\n      add\n        /* \"#utility.yul\":38893:38951   */\n      mstore\n        /* \"#utility.yul\":38776:38958   */\n      pop\n      jump\t// out\n        /* \"#utility.yul\":38964:39330   */\n    tag_373:\n        /* \"#utility.yul\":39106:39109   */\n      0x00\n        /* \"#utility.yul\":39127:39194   */\n      tag_773\n        /* \"#utility.yul\":39191:39193   */\n      0x20\n        /* \"#utility.yul\":39186:39189   */\n      dup4\n        /* \"#utility.yul\":39127:39194   */\n      tag_304\n      jump\t// in\n    tag_773:\n        /* \"#utility.yul\":39120:39194   */\n      swap2\n      pop\n        /* \"#utility.yul\":39203:39296   */\n      tag_774\n        /* \"#utility.yul\":39292:39295   */\n      dup3\n        /* \"#utility.yul\":39203:39296   */\n      tag_372\n      jump\t// in\n    tag_774:\n        /* \"#utility.yul\":39321:39323   */\n      0x20\n        /* \"#utility.yul\":39316:39319   */\n      dup3\n        /* \"#utility.yul\":39312:39324   */\n      add\n        /* \"#utility.yul\":39305:39324   */\n      swap1\n      pop\n        /* \"#utility.yul\":38964:39330   */\n      swap2\n      swap1\n      pop\n      jump\t// out\n        /* \"#utility.yul\":39336:39755   */\n    tag_220:\n        /* \"#utility.yul\":39502:39506   */\n      0x00\n        /* \"#utility.yul\":39540:39542   */\n      0x20\n        /* \"#utility.yul\":39529:39538   */\n      dup3\n        /* \"#utility.yul\":39525:39543   */\n      add\n        /* \"#utility.yul\":39517:39543   */\n      swap1\n      pop\n        /* \"#utility.yul\":39589:39598   */\n      dup2\n        /* \"#utility.yul\":39583:39587   */\n      dup2\n        /* \"#utility.yul\":39579:39599   */\n      sub\n        /* \"#utility.yul\":39575:39576   */\n      0x00\n        /* \"#utility.yul\":39564:39573   */\n      dup4\n        /* \"#utility.yul\":39560:39577   */\n      add\n        /* \"#utility.yul\":39553:39600   */\n      mstore\n        /* \"#utility.yul\":39617:39748   */\n      tag_776\n        /* \"#utility.yul\":39743:39747   */\n      dup2\n        /* \"#utility.yul\":39617:39748   */\n      tag_373\n      jump\t// in\n    tag_776:\n        /* \"#utility.yul\":39609:39748   */\n      swap1\n      pop\n        /* \"#utility.yul\":39336:39755   */\n      swap2\n      swap1\n      pop\n      jump\t// out\n        /* \"#utility.yul\":39761:39939   */\n    tag_374:\n        /* \"#utility.yul\":39901:39931   */\n      0x4469726563746f7279206d757374206265206120636f6e747261637400000000\n        /* \"#utility.yul\":39897:39898   */\n      0x00\n        /* \"#utility.yul\":39889:39895   */\n      dup3\n        /* \"#utility.yul\":39885:39899   */\n      add\n        /* \"#utility.yul\":39878:39932   */\n      mstore\n        /* \"#utility.yul\":39761:39939   */\n      pop\n      jump\t// out\n        /* \"#utility.yul\":39945:40311   */\n    tag_375:\n        /* \"#utility.yul\":40087:40090   */\n      0x00\n        /* \"#utility.yul\":40108:40175   */\n      tag_779\n        /* \"#utility.yul\":40172:40174   */\n      0x1c\n        /* \"#utility.yul\":40167:40170   */\n      dup4\n        /* \"#utility.yul\":40108:40175   */\n      tag_304\n      jump\t// in\n    tag_779:\n        /* \"#utility.yul\":40101:40175   */\n      swap2\n      pop\n        /* \"#utility.yul\":40184:40277   */\n      tag_780\n        /* \"#utility.yul\":40273:40276   */\n      dup3\n        /* \"#utility.yul\":40184:40277   */\n      tag_374\n      jump\t// in\n    tag_780:\n        /* \"#utility.yul\":40302:40304   */\n      0x20\n        /* \"#utility.yul\":40297:40300   */\n      dup3\n        /* \"#utility.yul\":40293:40305   */\n      add\n        /* \"#utility.yul\":40286:40305   */\n      swap1\n      pop\n        /* \"#utility.yul\":39945:40311   */\n      swap2\n      swap1\n      pop\n      jump\t// out\n        /* \"#utility.yul\":40317:40736   */\n    tag_223:\n        /* \"#utility.yul\":40483:40487   */\n      0x00\n        /* \"#utility.yul\":40521:40523   */\n      0x20\n        /* \"#utility.yul\":40510:40519   */\n      dup3\n        /* \"#utility.yul\":40506:40524   */\n      add\n        /* \"#utility.yul\":40498:40524   */\n      swap1\n      pop\n        /* \"#utility.yul\":40570:40579   */\n      dup2\n        /* \"#utility.yul\":40564:40568   */\n      dup2\n        /* \"#utility.yul\":40560:40580   */\n      sub\n        /* \"#utility.yul\":40556:40557   */\n      0x00\n        /* \"#utility.yul\":40545:40554   */\n      dup4\n        /* \"#utility.yul\":40541:40558   */\n      add\n        /* \"#utility.yul\":40534:40581   */\n      mstore\n        /* \"#utility.yul\":40598:40729   */\n      tag_782\n        /* \"#utility.yul\":40724:40728   */\n      dup2\n        /* \"#utility.yul\":40598:40729   */\n      tag_375\n      jump\t// in\n    tag_782:\n        /* \"#utility.yul\":40590:40729   */\n      swap1\n      pop\n        /* \"#utility.yul\":40317:40736   */\n      swap2\n      swap1\n      pop\n      jump\t// out\n        /* \"#utility.yul\":40742:40973   */\n    tag_376:\n        /* \"#utility.yul\":40882:40916   */\n      0x4469726563746f7279206164647265737320646f6573206e6f7420696d706c65\n        /* \"#utility.yul\":40878:40879   */\n      0x00\n        /* \"#utility.yul\":40870:40876   */\n      dup3\n        /* \"#utility.yul\":40866:40880   */\n      add\n        /* \"#utility.yul\":40859:40917   */\n      mstore\n        /* \"#utility.yul\":40951:40965   */\n      0x6d656e74206f776e657228290000000000000000000000000000000000000000\n        /* \"#utility.yul\":40946:40948   */\n      0x20\n        /* \"#utility.yul\":40938:40944   */\n      dup3\n        /* \"#utility.yul\":40934:40949   */\n      add\n        /* \"#utility.yul\":40927:40966   */\n      mstore\n        /* \"#utility.yul\":40742:40973   */\n      pop\n      jump\t// out\n        /* \"#utility.yul\":40979:41345   */\n    tag_377:\n        /* \"#utility.yul\":41121:41124   */\n      0x00\n        /* \"#utility.yul\":41142:41209   */\n      tag_785\n        /* \"#utility.yul\":41206:41208   */\n      0x2c\n        /* \"#utility.yul\":41201:41204   */\n      dup4\n        /* \"#utility.yul\":41142:41209   */\n      tag_304\n      jump\t// in\n    tag_785:\n        /* \"#utility.yul\":41135:41209   */\n      swap2\n      pop\n        /* \"#utility.yul\":41218:41311   */\n      tag_786\n        /* \"#utility.yul\":41307:41310   */\n      dup3\n        /* \"#utility.yul\":41218:41311   */\n      tag_376\n      jump\t// in\n    tag_786:\n        /* \"#utility.yul\":41336:41338   */\n      0x40\n        /* \"#utility.yul\":41331:41334   */\n      dup3\n        /* \"#utility.yul\":41327:41339   */\n      add\n        /* \"#utility.yul\":41320:41339   */\n      swap1\n      pop\n        /* \"#utility.yul\":40979:41345   */\n      swap2\n      swap1\n      pop\n      jump\t// out\n        /* \"#utility.yul\":41351:41770   */\n    tag_231:\n        /* \"#utility.yul\":41517:41521   */\n      0x00\n        /* \"#utility.yul\":41555:41557   */\n      0x20\n        /* \"#utility.yul\":41544:41553   */\n      dup3\n        /* \"#utility.yul\":41540:41558   */\n      add\n        /* \"#utility.yul\":41532:41558   */\n      swap1\n      pop\n        /* \"#utility.yul\":41604:41613   */\n      dup2\n        /* \"#utility.yul\":41598:41602   */\n      dup2\n        /* \"#utility.yul\":41594:41614   */\n      sub\n        /* \"#utility.yul\":41590:41591   */\n      0x00\n        /* \"#utility.yul\":41579:41588   */\n      dup4\n        /* \"#utility.yul\":41575:41592   */\n      add\n        /* \"#utility.yul\":41568:41615   */\n      mstore\n        /* \"#utility.yul\":41632:41763   */\n      tag_788\n        /* \"#utility.yul\":41758:41762   */\n      dup2\n        /* \"#utility.yul\":41632:41763   */\n      tag_377\n      jump\t// in\n    tag_788:\n        /* \"#utility.yul\":41624:41763   */\n      swap1\n      pop\n        /* \"#utility.yul\":41351:41770   */\n      swap2\n      swap1\n      pop\n      jump\t// out\n        /* \"#utility.yul\":41776:41984   */\n    tag_378:\n        /* \"#utility.yul\":41899:41910   */\n      0x00\n        /* \"#utility.yul\":41933:41939   */\n      dup3\n        /* \"#utility.yul\":41928:41931   */\n      dup3\n        /* \"#utility.yul\":41921:41940   */\n      mstore\n        /* \"#utility.yul\":41973:41977   */\n      0x20\n        /* \"#utility.yul\":41968:41971   */\n      dup3\n        /* \"#utility.yul\":41964:41978   */\n      add\n        /* \"#utility.yul\":41949:41978   */\n      swap1\n      pop\n        /* \"#utility.yul\":41776:41984   */\n      swap3\n      swap2\n      pop\n      pop\n      jump\t// out\n        /* \"#utility.yul\":42034:42958   */\n    tag_379:\n        /* \"#utility.yul\":42201:42204   */\n      0x00\n        /* \"#utility.yul\":42230:42308   */\n      tag_791\n        /* \"#utility.yul\":42302:42307   */\n      dup3\n        /* \"#utility.yul\":42230:42308   */\n      tag_281\n      jump\t// in\n    tag_791:\n        /* \"#utility.yul\":42324:42434   */\n      tag_792\n        /* \"#utility.yul\":42427:42433   */\n      dup2\n        /* \"#utility.yul\":42422:42425   */\n      dup6\n        /* \"#utility.yul\":42324:42434   */\n      tag_378\n      jump\t// in\n    tag_792:\n        /* \"#utility.yul\":42317:42434   */\n      swap4\n      pop\n        /* \"#utility.yul\":42458:42538   */\n      tag_793\n        /* \"#utility.yul\":42532:42537   */\n      dup4\n        /* \"#utility.yul\":42458:42538   */\n      tag_283\n      jump\t// in\n    tag_793:\n        /* \"#utility.yul\":42561:42568   */\n      dup1\n        /* \"#utility.yul\":42592:42593   */\n      0x00\n        /* \"#utility.yul\":42577:42933   */\n    tag_794:\n        /* \"#utility.yul\":42602:42608   */\n      dup4\n        /* \"#utility.yul\":42599:42600   */\n      dup2\n        /* \"#utility.yul\":42596:42609   */\n      lt\n        /* \"#utility.yul\":42577:42933   */\n      iszero\n      tag_796\n      jumpi\n        /* \"#utility.yul\":42678:42684   */\n      dup2\n        /* \"#utility.yul\":42672:42685   */\n      mload\n        /* \"#utility.yul\":42705:42816   */\n      tag_797\n        /* \"#utility.yul\":42812:42815   */\n      dup9\n        /* \"#utility.yul\":42797:42810   */\n      dup3\n        /* \"#utility.yul\":42705:42816   */\n      tag_288\n      jump\t// in\n    tag_797:\n        /* \"#utility.yul\":42698:42816   */\n      swap8\n      pop\n        /* \"#utility.yul\":42839:42923   */\n      tag_798\n        /* \"#utility.yul\":42916:42922   */\n      dup4\n        /* \"#utility.yul\":42839:42923   */\n      tag_289\n      jump\t// in\n    tag_798:\n        /* \"#utility.yul\":42829:42923   */\n      swap3\n      pop\n        /* \"#utility.yul\":42637:42933   */\n      pop\n        /* \"#utility.yul\":42624:42625   */\n      0x01\n        /* \"#utility.yul\":42621:42622   */\n      dup2\n        /* \"#utility.yul\":42617:42626   */\n      add\n        /* \"#utility.yul\":42612:42626   */\n      swap1\n      pop\n        /* \"#utility.yul\":42577:42933   */\n      jump(tag_794)\n    tag_796:\n        /* \"#utility.yul\":42581:42595   */\n      pop\n        /* \"#utility.yul\":42949:42952   */\n      dup6\n        /* \"#utility.yul\":42942:42952   */\n      swap4\n      pop\n        /* \"#utility.yul\":42206:42958   */\n      pop\n      pop\n      pop\n        /* \"#utility.yul\":42034:42958   */\n      swap3\n      swap2\n      pop\n      pop\n      jump\t// out\n        /* \"#utility.yul\":42964:43433   */\n    tag_253:\n        /* \"#utility.yul\":43155:43159   */\n      0x00\n        /* \"#utility.yul\":43193:43195   */\n      0x20\n        /* \"#utility.yul\":43182:43191   */\n      dup3\n        /* \"#utility.yul\":43178:43196   */\n      add\n        /* \"#utility.yul\":43170:43196   */\n      swap1\n      pop\n        /* \"#utility.yul\":43242:43251   */\n      dup2\n        /* \"#utility.yul\":43236:43240   */\n      dup2\n        /* \"#utility.yul\":43232:43252   */\n      sub\n        /* \"#utility.yul\":43228:43229   */\n      0x00\n        /* \"#utility.yul\":43217:43226   */\n      dup4\n        /* \"#utility.yul\":43213:43230   */\n      add\n        /* \"#utility.yul\":43206:43253   */\n      mstore\n        /* \"#utility.yul\":43270:43426   */\n      tag_800\n        /* \"#utility.yul\":43421:43425   */\n      dup2\n        /* \"#utility.yul\":43412:43418   */\n      dup5\n        /* \"#utility.yul\":43270:43426   */\n      tag_379\n      jump\t// in\n    tag_800:\n        /* \"#utility.yul\":43262:43426   */\n      swap1\n      pop\n        /* \"#utility.yul\":42964:43433   */\n      swap3\n      swap2\n      pop\n      pop\n      jump\t// out\n\n    auxdata: 0xa2646970667358221220e0e13e615774e5fc61f945015ab78786c884e94c0c2db9e093b12e3fe7b0e49e64736f6c634300081e0033\n}\n",
				"bytecode": {
					"linkReferences": {},
					"object": "60806040526001600360146101000a81548160ff02191690831515021790555034801561002a575f5ffd5b50604051612c8a380380612c8a833981810160405281019061004c9190610273565b8061005c8161006360201b60201c565b505061040c565b5f73ffffffffffffffffffffffffffffffffffffffff168173ffffffffffffffffffffffffffffffffffffffff16036100d1576040517f08c379a00000000000000000000000000000000000000000000000000000000081526004016100c8906102f8565b60405180910390fd5b5f8173ffffffffffffffffffffffffffffffffffffffff163b1161012a576040517f08c379a000000000000000000000000000000000000000000000000000000000815260040161012190610360565b60405180910390fd5b8073ffffffffffffffffffffffffffffffffffffffff16638da5cb5b6040518163ffffffff1660e01b8152600401602060405180830381865afa92505050801561019257506040513d601f19601f8201168201806040525081019061018f9190610273565b60015b6101d1576040517f08c379a00000000000000000000000000000000000000000000000000000000081526004016101c8906103ee565b60405180910390fd5b8160035f6101000a81548173ffffffffffffffffffffffffffffffffffffffff021916908373ffffffffffffffffffffffffffffffffffffffff1602179055505050565b5f5ffd5b5f73ffffffffffffffffffffffffffffffffffffffff82169050919050565b5f61024282610219565b9050919050565b61025281610238565b811461025c575f5ffd5b50565b5f8151905061026d81610249565b92915050565b5f6020828403121561028857610287610215565b5b5f6102958482850161025f565b91505092915050565b5f82825260208201905092915050565b7f4469726563746f72792063616e6e6f74206265207a65726f20616464726573735f82015250565b5f6102e260208361029e565b91506102ed826102ae565b602082019050919050565b5f6020820190508181035f83015261030f816102d6565b9050919050565b7f4469726563746f7279206d757374206265206120636f6e7472616374000000005f82015250565b5f61034a601c8361029e565b915061035582610316565b602082019050919050565b5f6020820190508181035f8301526103778161033e565b9050919050565b7f4469726563746f7279206164647265737320646f6573206e6f7420696d706c655f8201527f6d656e74206f776e657228290000000000000000000000000000000000000000602082015250565b5f6103d8602c8361029e565b91506103e38261037e565b604082019050919050565b5f6020820190508181035f830152610405816103cc565b9050919050565b612871806104195f395ff3fe608060405234801561000f575f5ffd5b506004361061009c575f3560e01c8063658a847a11610064578063658a847a1461016c5780638da5cb5b1461018a578063ab73314d146101a8578063acec338a146101d8578063ba4c7be1146101f45761009c565b806322f3e2d4146100a057806327262618146100be5780632ff910ce146100ee578063428d9a931461010c578063549e122b1461013c575b5f5ffd5b6100a8610210565b6040516100b591906114ca565b60405180910390f35b6100d860048036038101906100d39190611630565b610223565b6040516100e591906116b6565b60405180910390f35b6100f66102c4565b60405161010391906116e7565b60405180910390f35b61012660048036038101906101219190611722565b6102cf565b60405161013391906116e7565b60405180910390f35b61015660048036038101906101519190611793565b6104b7565b6040516101639190611979565b60405180910390f35b61017461072a565b60405161018191906119f4565b60405180910390f35b61019261074f565b60405161019f91906116b6565b60405180910390f35b6101c260048036038101906101bd9190611a6a565b6107e3565b6040516101cf9190611979565b60405180910390f35b6101f260048036038101906101ed9190611adf565b610a6c565b005b61020e60048036038101906102099190611b34565b610b84565b005b600360149054906101000a900460ff1681565b5f60035f9054906101000a900473ffffffffffffffffffffffffffffffffffffffff1673ffffffffffffffffffffffffffffffffffffffff166327262618836040518263ffffffff1660e01b815260040161027e9190611ba7565b602060405180830381865afa158015610299573d5f5f3e3d5ffd5b505050506040513d601f19601f820116820180604052508101906102bd9190611bdb565b9050919050565b5f5f80549050905090565b5f61030e6040518060400160405280600b81526020017f6574662d666163746f7279000000000000000000000000000000000000000000815250610223565b73ffffffffffffffffffffffffffffffffffffffff163373ffffffffffffffffffffffffffffffffffffffff161461037b576040517f08c379a000000000000000000000000000000000000000000000000000000000815260040161037290611c50565b60405180910390fd5b600360149054906101000a900460ff166103ca576040517f08c379a00000000000000000000000000000000000000000000000000000000081526004016103c190611cb8565b60405180910390fd5b5f6103e38380602001906103de9190611ce2565b610c8b565b90505f6103fe8480604001906103f99190611d44565b610d24565b90505f61040a82611079565b90505f61041a5f805490506110d4565b90505f86908060018154018082558091505060019003905f5260205f2090600302015f9091909190915081816104509190612447565b50508060015f8681526020019081526020015f20819055508060025f8481526020019081526020015f2081905550807fec8be6228fe1ea57f9377adc29cda27fec19a8470821cbe6c2022b2528062aa960405160405180910390a280945050505050919050565b6104bf61145d565b5f8214806104d057505f8054905082115b15610507576040517fdfa1a40800000000000000000000000000000000000000000000000000000000815260040160405180910390fd5b5f610511836110e9565b8154811061052257610521612455565b5b905f5260205f2090600302016040518060600160405290815f8201805461054890611e09565b80601f016020809104026020016040519081016040528092919081815260200182805461057490611e09565b80156105bf5780601f10610596576101008083540402835291602001916105bf565b820191905f5260205f20905b8154815290600101906020018083116105a257829003601f168201915b505050505081526020016001820180546105d890611e09565b80601f016020809104026020016040519081016040528092919081815260200182805461060490611e09565b801561064f5780601f106106265761010080835404028352916020019161064f565b820191905f5260205f20905b81548152906001019060200180831161063257829003601f168201915b5050505050815260200160028201805480602002602001604051908101604052809291908181526020015f905b8282101561071b578382905f5260205f20016040518060400160405290815f82015f9054906101000a900473ffffffffffffffffffffffffffffffffffffffff1673ffffffffffffffffffffffffffffffffffffffff1673ffffffffffffffffffffffffffffffffffffffff1681526020015f820160149054906101000a900461ffff1661ffff1661ffff16815250508152602001906001019061067c565b50505050815250509050919050565b60035f9054906101000a900473ffffffffffffffffffffffffffffffffffffffff1681565b5f60035f9054906101000a900473ffffffffffffffffffffffffffffffffffffffff1673ffffffffffffffffffffffffffffffffffffffff16638da5cb5b6040518163ffffffff1660e01b8152600401602060405180830381865afa1580156107ba573d5f5f3e3d5ffd5b505050506040513d601f19601f820116820180604052508101906107de9190611bdb565b905090565b6107eb61145d565b5f6107f684846110fe565b90505f60015f8381526020019081526020015f205490505f8103610846576040517fbfb6fd0d00000000000000000000000000000000000000000000000000000000815260040160405180910390fd5b5f610850826110e9565b8154811061086157610860612455565b5b905f5260205f2090600302016040518060600160405290815f8201805461088790611e09565b80601f01602080910402602001604051908101604052809291908181526020018280546108b390611e09565b80156108fe5780601f106108d5576101008083540402835291602001916108fe565b820191905f5260205f20905b8154815290600101906020018083116108e157829003601f168201915b5050505050815260200160018201805461091790611e09565b80601f016020809104026020016040519081016040528092919081815260200182805461094390611e09565b801561098e5780601f106109655761010080835404028352916020019161098e565b820191905f5260205f20905b81548152906001019060200180831161097157829003601f168201915b5050505050815260200160028201805480602002602001604051908101604052809291908181526020015f905b82821015610a5a578382905f5260205f20016040518060400160405290815f82015f9054906101000a900473ffffffffffffffffffffffffffffffffffffffff1673ffffffffffffffffffffffffffffffffffffffff1673ffffffffffffffffffffffffffffffffffffffff1681526020015f820160149054906101000a900461ffff1661ffff1661ffff1681525050815260200190600101906109bb565b50505050815250509250505092915050565b60035f9054906101000a900473ffffffffffffffffffffffffffffffffffffffff1673ffffffffffffffffffffffffffffffffffffffff16638da5cb5b6040518163ffffffff1660e01b8152600401602060405180830381865afa158015610ad6573d5f5f3e3d5ffd5b505050506040513d601f19601f82011682018060405250810190610afa9190611bdb565b73ffffffffffffffffffffffffffffffffffffffff163373ffffffffffffffffffffffffffffffffffffffff1614610b67576040517f08c379a0000000000000000000000000000000000000000000000000000000008152600401610b5e906124cc565b60405180910390fd5b80600360146101000a81548160ff02191690831515021790555050565b60035f9054906101000a900473ffffffffffffffffffffffffffffffffffffffff1673ffffffffffffffffffffffffffffffffffffffff16638da5cb5b6040518163ffffffff1660e01b8152600401602060405180830381865afa158015610bee573d5f5f3e3d5ffd5b505050506040513d601f19601f82011682018060405250810190610c129190611bdb565b73ffffffffffffffffffffffffffffffffffffffff163373ffffffffffffffffffffffffffffffffffffffff1614610c7f576040517f08c379a0000000000000000000000000000000000000000000000000000000008152600401610c76906124cc565b60405180910390fd5b610c888161111f565b50565b5f5f8383905003610cc8576040517f653b1be600000000000000000000000000000000000000000000000000000000815260040160405180910390fd5b610cd283836110fe565b90505f60015f8381526020019081526020015f205414610d1e576040517fc498761200000000000000000000000000000000000000000000000000000000815260040160405180910390fd5b92915050565b60605f8383905090505f8103610d66576040517fd7c8da3200000000000000000000000000000000000000000000000000000000815260040160405180910390fd5b8067ffffffffffffffff811115610d8057610d7f61150c565b5b604051908082528060200260200182016040528015610db957816020015b610da661147e565b815260200190600190039081610d9e5790505b5091505f5f90505b81811015610f2b5736858583818110610ddd57610ddc612455565b5b90506040020190505f815f016020810190610df89190611b34565b90505f826020016020810190610e0e91906124fe565b61ffff1690505f73ffffffffffffffffffffffffffffffffffffffff168273ffffffffffffffffffffffffffffffffffffffff1603610e79576040517fad1991f500000000000000000000000000000000000000000000000000000000815260040160405180910390fd5b5f8103610eb2576040517f19a2a9bd00000000000000000000000000000000000000000000000000000000815260040160405180910390fd5b612710811115610eee576040517fc663343d00000000000000000000000000000000000000000000000000000000815260040160405180910390fd5b82803603810190610eff919061257a565b868581518110610f1257610f11612455565b5b6020026020010181905250836001019350505050610dc1565b50610f35826112d1565b5f5f5f90505b82811015611035575f81118015610fc35750838181518110610f6057610f5f612455565b5b60200260200101515f015173ffffffffffffffffffffffffffffffffffffffff1684600183610f8f91906125a5565b81518110610fa057610f9f612455565b5b60200260200101515f015173ffffffffffffffffffffffffffffffffffffffff16145b15610ffa576040517f464e3f6a00000000000000000000000000000000000000000000000000000000815260040160405180910390fd5b83818151811061100d5761100c612455565b5b60200260200101516020015161ffff168261102891906125d8565b9150806001019050610f3b565b506127108114611071576040517fda6957ea00000000000000000000000000000000000000000000000000000000815260040160405180910390fd5b505092915050565b5f6110838261142e565b90505f60025f8381526020019081526020015f2054146110cf576040517f15b689d700000000000000000000000000000000000000000000000000000000815260040160405180910390fd5b919050565b5f6001826110e291906125d8565b9050919050565b5f6001826110f791906125a5565b9050919050565b5f828260405161110f929190612639565b6040518091039020905092915050565b5f73ffffffffffffffffffffffffffffffffffffffff168173ffffffffffffffffffffffffffffffffffffffff160361118d576040517f08c379a00000000000000000000000000000000000000000000000000000000081526004016111849061269b565b60405180910390fd5b5f8173ffffffffffffffffffffffffffffffffffffffff163b116111e6576040517f08c379a00000000000000000000000000000000000000000000000000000000081526004016111dd90612703565b60405180910390fd5b8073ffffffffffffffffffffffffffffffffffffffff16638da5cb5b6040518163ffffffff1660e01b8152600401602060405180830381865afa92505050801561124e57506040513d601f19601f8201168201806040525081019061124b9190611bdb565b60015b61128d576040517f08c379a000000000000000000000000000000000000000000000000000000000815260040161128490612791565b60405180910390fd5b8160035f6101000a81548173ffffffffffffffffffffffffffffffffffffffff021916908373ffffffffffffffffffffffffffffffffffffffff1602179055505050565b5f815190505f600190505b81811015611429575f8382815181106112f8576112f7612455565b5b602002602001015190505f8290505b5f8111156113fd575f8560018361131e91906125a5565b8151811061132f5761132e612455565b5b60200260200101519050825f015173ffffffffffffffffffffffffffffffffffffffff16815f015173ffffffffffffffffffffffffffffffffffffffff1610806113c65750825f015173ffffffffffffffffffffffffffffffffffffffff16815f015173ffffffffffffffffffffffffffffffffffffffff161480156113c55750826020015161ffff16816020015161ffff1611155b5b156113d157506113fd565b808683815181106113e5576113e4612455565b5b60200260200101819052508160019003915050611307565b8185828151811061141157611410612455565b5b602002602001018190525082600101925050506112dc565b505050565b5f81604051602001611440919061281b565b604051602081830303815290604052805190602001209050919050565b60405180606001604052806060815260200160608152602001606081525090565b60405180604001604052805f73ffffffffffffffffffffffffffffffffffffffff1681526020015f61ffff1681525090565b5f8115159050919050565b6114c4816114b0565b82525050565b5f6020820190506114dd5f8301846114bb565b92915050565b5f604051905090565b5f5ffd5b5f5ffd5b5f5ffd5b5f5ffd5b5f601f19601f8301169050919050565b7f4e487b71000000000000000000000000000000000000000000000000000000005f52604160045260245ffd5b611542826114fc565b810181811067ffffffffffffffff821117156115615761156061150c565b5b80604052505050565b5f6115736114e3565b905061157f8282611539565b919050565b5f67ffffffffffffffff82111561159e5761159d61150c565b5b6115a7826114fc565b9050602081019050919050565b828183375f83830152505050565b5f6115d46115cf84611584565b61156a565b9050828152602081018484840111156115f0576115ef6114f8565b5b6115fb8482856115b4565b509392505050565b5f82601f830112611617576116166114f4565b5b81356116278482602086016115c2565b91505092915050565b5f60208284031215611645576116446114ec565b5b5f82013567ffffffffffffffff811115611662576116616114f0565b5b61166e84828501611603565b91505092915050565b5f73ffffffffffffffffffffffffffffffffffffffff82169050919050565b5f6116a082611677565b9050919050565b6116b081611696565b82525050565b5f6020820190506116c95f8301846116a7565b92915050565b5f819050919050565b6116e1816116cf565b82525050565b5f6020820190506116fa5f8301846116d8565b92915050565b5f5ffd5b5f6060828403121561171957611718611700565b5b81905092915050565b5f60208284031215611737576117366114ec565b5b5f82013567ffffffffffffffff811115611754576117536114f0565b5b61176084828501611704565b91505092915050565b611772816116cf565b811461177c575f5ffd5b50565b5f8135905061178d81611769565b92915050565b5f602082840312156117a8576117a76114ec565b5b5f6117b58482850161177f565b91505092915050565b5f81519050919050565b5f82825260208201905092915050565b8281835e5f83830152505050565b5f6117f0826117be565b6117fa81856117c8565b935061180a8185602086016117d8565b611813816114fc565b840191505092915050565b5f81519050919050565b5f82825260208201905092915050565b5f819050602082019050919050565b61185081611696565b82525050565b5f61ffff82169050919050565b61186c81611856565b82525050565b604082015f8201516118865f850182611847565b5060208201516118996020850182611863565b50505050565b5f6118aa8383611872565b60408301905092915050565b5f602082019050919050565b5f6118cc8261181e565b6118d68185611828565b93506118e183611838565b805f5b838110156119115781516118f8888261189f565b9750611903836118b6565b9250506001810190506118e4565b5085935050505092915050565b5f606083015f8301518482035f86015261193882826117e6565b9150506020830151848203602086015261195282826117e6565b9150506040830151848203604086015261196c82826118c2565b9150508091505092915050565b5f6020820190508181035f830152611991818461191e565b905092915050565b5f819050919050565b5f6119bc6119b76119b284611677565b611999565b611677565b9050919050565b5f6119cd826119a2565b9050919050565b5f6119de826119c3565b9050919050565b6119ee816119d4565b82525050565b5f602082019050611a075f8301846119e5565b92915050565b5f5ffd5b5f5ffd5b5f5f83601f840112611a2a57611a296114f4565b5b8235905067ffffffffffffffff811115611a4757611a46611a0d565b5b602083019150836001820283011115611a6357611a62611a11565b5b9250929050565b5f5f60208385031215611a8057611a7f6114ec565b5b5f83013567ffffffffffffffff811115611a9d57611a9c6114f0565b5b611aa985828601611a15565b92509250509250929050565b611abe816114b0565b8114611ac8575f5ffd5b50565b5f81359050611ad981611ab5565b92915050565b5f60208284031215611af457611af36114ec565b5b5f611b0184828501611acb565b91505092915050565b611b1381611696565b8114611b1d575f5ffd5b50565b5f81359050611b2e81611b0a565b92915050565b5f60208284031215611b4957611b486114ec565b5b5f611b5684828501611b20565b91505092915050565b5f82825260208201905092915050565b5f611b79826117be565b611b838185611b5f565b9350611b938185602086016117d8565b611b9c816114fc565b840191505092915050565b5f6020820190508181035f830152611bbf8184611b6f565b905092915050565b5f81519050611bd581611b0a565b92915050565b5f60208284031215611bf057611bef6114ec565b5b5f611bfd84828501611bc7565b91505092915050565b7f6d73672e73656e646572206973206e6f742065746620666163746f72790000005f82015250565b5f611c3a601d83611b5f565b9150611c4582611c06565b602082019050919050565b5f6020820190508181035f830152611c6781611c2e565b9050919050565b7f436f6e7472616374206973206e6f7420616374697665000000000000000000005f82015250565b5f611ca2601683611b5f565b9150611cad82611c6e565b602082019050919050565b5f6020820190508181035f830152611ccf81611c96565b9050919050565b5f5ffd5b5f5ffd5b5f5ffd5b5f5f83356001602003843603038112611cfe57611cfd611cd6565b5b80840192508235915067ffffffffffffffff821115611d2057611d1f611cda565b5b602083019250600182023603831315611d3c57611d3b611cde565b5b509250929050565b5f5f83356001602003843603038112611d6057611d5f611cd6565b5b80840192508235915067ffffffffffffffff821115611d8257611d81611cda565b5b602083019250604082023603831315611d9e57611d9d611cde565b5b509250929050565b7f4e487b71000000000000000000000000000000000000000000000000000000005f525f60045260245ffd5b5f82905092915050565b7f4e487b71000000000000000000000000000000000000000000000000000000005f52602260045260245ffd5b5f6002820490506001821680611e2057607f821691505b602082108103611e3357611e32611ddc565b5b50919050565b5f819050815f5260205f209050919050565b5f6020601f8301049050919050565b5f82821b905092915050565b5f60088302611e957fffffffffffffffffffffffffffffffffffffffffffffffffffffffffffffffff82611e5a565b611e9f8683611e5a565b95508019841693508086168417925050509392505050565b5f611ed1611ecc611ec7846116cf565b611999565b6116cf565b9050919050565b5f819050919050565b611eea83611eb7565b611efe611ef682611ed8565b848454611e66565b825550505050565b5f5f905090565b611f15611f06565b611f20818484611ee1565b505050565b5b81811015611f4357611f385f82611f0d565b600181019050611f26565b5050565b601f821115611f8857611f5981611e39565b611f6284611e4b565b81016020851015611f71578190505b611f85611f7d85611e4b565b830182611f25565b50505b505050565b5f82821c905092915050565b5f611fa85f1984600802611f8d565b1980831691505092915050565b5f611fc08383611f99565b9150826002028217905092915050565b611fda8383611dd2565b67ffffffffffffffff811115611ff357611ff261150c565b5b611ffd8254611e09565b612008828285611f47565b5f601f831160018114612035575f8415612023578287013590505b61202d8582611fb5565b865550612094565b601f19841661204386611e39565b5f5b8281101561206a57848901358255600182019150602085019450602081019050612045565b868310156120875784890135612083601f891682611f99565b8355505b6001600288020188555050505b50505050505050565b6120a8838383611fd0565b505050565b5f819050919050565b5f81549050919050565b7f4e487b71000000000000000000000000000000000000000000000000000000005f52601160045260245ffd5b5f8190506001806001038301049050919050565b5f819050815f5260205f209050919050565b5f5f82015550565b5f821461212b5761212a611da6565b5b61213481612113565b5050565b5b818110156121565761214b5f8261211b565b600181019050612139565b5050565b818310156121935761216b826120ed565b612174846120ed565b61217d83612101565b81810183820161218d8183612138565b50505050505b505050565b680100000000000000008211156121b2576121b161150c565b5b6121bb816120b6565b8282556121c983828461215a565b505050565b5f82905092915050565b5f81356121e481611b0a565b80915050919050565b5f815f1b9050919050565b5f73ffffffffffffffffffffffffffffffffffffffff612217846121ed565b9350801983169250808416831791505092915050565b5f612237826119c3565b9050919050565b5f819050919050565b6122508261222d565b61226361225c8261223e565b83546121f8565b8255505050565b61227381611856565b811461227d575f5ffd5b50565b5f813561228c8161226a565b80915050919050565b5f8160a01b9050919050565b5f75ffff00000000000000000000000000000000000000006122c284612295565b9350801983169250808416831791505092915050565b5f6122f26122ed6122e884611856565b611999565b611856565b9050919050565b5f819050919050565b61230b826122d8565b61231e612317826122f9565b83546122a1565b8255505050565b5f81015f830180612335816121d8565b90506123418184612247565b5050505f8101602083018061235581612280565b90506123618184612302565b5050505050565b6123728282612325565b5050565b61238083836121ce565b61238a8183612198565b612393836120ad565b61239c83612101565b5f5b838110156123c957826123b18184612368565b6040840193506001830192505060018101905061239e565b50505050505050565b6123dd838383612376565b505050565b5f81015f83016123f28185611ce2565b6123fd81838661209d565b5050505060018101602083016124138185611ce2565b61241e81838661209d565b5050505060028101604083016124348185611d44565b61243f8183866123d2565b505050505050565b61245182826123e2565b5050565b7f4e487b71000000000000000000000000000000000000000000000000000000005f52603260045260245ffd5b7f43616c6c6572206973206e6f7420746865206f776e65720000000000000000005f82015250565b5f6124b6601783611b5f565b91506124c182612482565b602082019050919050565b5f6020820190508181035f8301526124e3816124aa565b9050919050565b5f813590506124f88161226a565b92915050565b5f60208284031215612513576125126114ec565b5b5f612520848285016124ea565b91505092915050565b5f5ffd5b5f6040828403121561254257612541612529565b5b61254c604061156a565b90505f61255b84828501611b20565b5f83015250602061256e848285016124ea565b60208301525092915050565b5f6040828403121561258f5761258e6114ec565b5b5f61259c8482850161252d565b91505092915050565b5f6125af826116cf565b91506125ba836116cf565b92508282039050818111156125d2576125d16120c0565b5b92915050565b5f6125e2826116cf565b91506125ed836116cf565b9250828201905080821115612605576126046120c0565b5b92915050565b5f81905092915050565b5f612620838561260b565b935061262d8385846115b4565b82840190509392505050565b5f612645828486612615565b91508190509392505050565b7f4469726563746f72792063616e6e6f74206265207a65726f20616464726573735f82015250565b5f612685602083611b5f565b915061269082612651565b602082019050919050565b5f6020820190508181035f8301526126b281612679565b9050919050565b7f4469726563746f7279206d757374206265206120636f6e7472616374000000005f82015250565b5f6126ed601c83611b5f565b91506126f8826126b9565b602082019050919050565b5f6020820190508181035f83015261271a816126e1565b9050919050565b7f4469726563746f7279206164647265737320646f6573206e6f7420696d706c655f8201527f6d656e74206f776e657228290000000000000000000000000000000000000000602082015250565b5f61277b602c83611b5f565b915061278682612721565b604082019050919050565b5f6020820190508181035f8301526127a88161276f565b9050919050565b5f82825260208201905092915050565b5f6127c98261181e565b6127d381856127af565b93506127de83611838565b805f5b8381101561280e5781516127f5888261189f565b9750612800836118b6565b9250506001810190506127e1565b5085935050505092915050565b5f6020820190508181035f83015261283381846127bf565b90509291505056fea2646970667358221220e0e13e615774e5fc61f945015ab78786c884e94c0c2db9e093b12e3fe7b0e49e64736f6c634300081e0033",
					"opcodes": "PUSH1 0x80 PUSH1 0x40 MSTORE PUSH1 0x1 PUSH1 0x3 PUSH1 0x14 PUSH2 0x100 EXP DUP2 SLOAD DUP2 PUSH1 0xFF MUL NOT AND SWAP1 DUP4 ISZERO ISZERO MUL OR SWAP1 SSTORE POP CALLVALUE DUP1 ISZERO PUSH2 0x2A JUMPI PUSH0 PUSH0 REVERT JUMPDEST POP PUSH1 0x40 MLOAD PUSH2 0x2C8A CODESIZE SUB DUP1 PUSH2 0x2C8A DUP4 CODECOPY DUP2 DUP2 ADD PUSH1 0x40 MSTORE DUP2 ADD SWAP1 PUSH2 0x4C SWAP2 SWAP1 PUSH2 0x273 JUMP JUMPDEST DUP1 PUSH2 0x5C DUP2 PUSH2 0x63 PUSH1 0x20 SHL PUSH1 0x20 SHR JUMP JUMPDEST POP POP PUSH2 0x40C JUMP JUMPDEST PUSH0 PUSH20 0xFFFFFFFFFFFFFFFFFFFFFFFFFFFFFFFFFFFFFFFF AND DUP2 PUSH20 0xFFFFFFFFFFFFFFFFFFFFFFFFFFFFFFFFFFFFFFFF AND SUB PUSH2 0xD1 JUMPI PUSH1 0x40 MLOAD PUSH32 0x8C379A000000000000000000000000000000000000000000000000000000000 DUP2 MSTORE PUSH1 0x4 ADD PUSH2 0xC8 SWAP1 PUSH2 0x2F8 JUMP JUMPDEST PUSH1 0x40 MLOAD DUP1 SWAP2 SUB SWAP1 REVERT JUMPDEST PUSH0 DUP2 PUSH20 0xFFFFFFFFFFFFFFFFFFFFFFFFFFFFFFFFFFFFFFFF AND EXTCODESIZE GT PUSH2 0x12A JUMPI PUSH1 0x40 MLOAD PUSH32 0x8C379A000000000000000000000000000000000000000000000000000000000 DUP2 MSTORE PUSH1 0x4 ADD PUSH2 0x121 SWAP1 PUSH2 0x360 JUMP JUMPDEST PUSH1 0x40 MLOAD DUP1 SWAP2 SUB SWAP1 REVERT JUMPDEST DUP1 PUSH20 0xFFFFFFFFFFFFFFFFFFFFFFFFFFFFFFFFFFFFFFFF AND PUSH4 0x8DA5CB5B PUSH1 0x40 MLOAD DUP2 PUSH4 0xFFFFFFFF AND PUSH1 0xE0 SHL DUP2 MSTORE PUSH1 0x4 ADD PUSH1 0x20 PUSH1 0x40 MLOAD DUP1 DUP4 SUB DUP2 DUP7 GAS STATICCALL SWAP3 POP POP POP DUP1 ISZERO PUSH2 0x192 JUMPI POP PUSH1 0x40 MLOAD RETURNDATASIZE PUSH1 0x1F NOT PUSH1 0x1F DUP3 ADD AND DUP3 ADD DUP1 PUSH1 0x40 MSTORE POP DUP2 ADD SWAP1 PUSH2 0x18F SWAP2 SWAP1 PUSH2 0x273 JUMP JUMPDEST PUSH1 0x1 JUMPDEST PUSH2 0x1D1 JUMPI PUSH1 0x40 MLOAD PUSH32 0x8C379A000000000000000000000000000000000000000000000000000000000 DUP2 MSTORE PUSH1 0x4 ADD PUSH2 0x1C8 SWAP1 PUSH2 0x3EE JUMP JUMPDEST PUSH1 0x40 MLOAD DUP1 SWAP2 SUB SWAP1 REVERT JUMPDEST DUP2 PUSH1 0x3 PUSH0 PUSH2 0x100 EXP DUP2 SLOAD DUP2 PUSH20 0xFFFFFFFFFFFFFFFFFFFFFFFFFFFFFFFFFFFFFFFF MUL NOT AND SWAP1 DUP4 PUSH20 0xFFFFFFFFFFFFFFFFFFFFFFFFFFFFFFFFFFFFFFFF AND MUL OR SWAP1 SSTORE POP POP POP JUMP JUMPDEST PUSH0 PUSH0 REVERT JUMPDEST PUSH0 PUSH20 0xFFFFFFFFFFFFFFFFFFFFFFFFFFFFFFFFFFFFFFFF DUP3 AND SWAP1 POP SWAP2 SWAP1 POP JUMP JUMPDEST PUSH0 PUSH2 0x242 DUP3 PUSH2 0x219 JUMP JUMPDEST SWAP1 POP SWAP2 SWAP1 POP JUMP JUMPDEST PUSH2 0x252 DUP2 PUSH2 0x238 JUMP JUMPDEST DUP2 EQ PUSH2 0x25C JUMPI PUSH0 PUSH0 REVERT JUMPDEST POP JUMP JUMPDEST PUSH0 DUP2 MLOAD SWAP1 POP PUSH2 0x26D DUP2 PUSH2 0x249 JUMP JUMPDEST SWAP3 SWAP2 POP POP JUMP JUMPDEST PUSH0 PUSH1 0x20 DUP3 DUP5 SUB SLT ISZERO PUSH2 0x288 JUMPI PUSH2 0x287 PUSH2 0x215 JUMP JUMPDEST JUMPDEST PUSH0 PUSH2 0x295 DUP5 DUP3 DUP6 ADD PUSH2 0x25F JUMP JUMPDEST SWAP2 POP POP SWAP3 SWAP2 POP POP JUMP JUMPDEST PUSH0 DUP3 DUP3 MSTORE PUSH1 0x20 DUP3 ADD SWAP1 POP SWAP3 SWAP2 POP POP JUMP JUMPDEST PUSH32 0x4469726563746F72792063616E6E6F74206265207A65726F2061646472657373 PUSH0 DUP3 ADD MSTORE POP JUMP JUMPDEST PUSH0 PUSH2 0x2E2 PUSH1 0x20 DUP4 PUSH2 0x29E JUMP JUMPDEST SWAP2 POP PUSH2 0x2ED DUP3 PUSH2 0x2AE JUMP JUMPDEST PUSH1 0x20 DUP3 ADD SWAP1 POP SWAP2 SWAP1 POP JUMP JUMPDEST PUSH0 PUSH1 0x20 DUP3 ADD SWAP1 POP DUP2 DUP2 SUB PUSH0 DUP4 ADD MSTORE PUSH2 0x30F DUP2 PUSH2 0x2D6 JUMP JUMPDEST SWAP1 POP SWAP2 SWAP1 POP JUMP JUMPDEST PUSH32 0x4469726563746F7279206D757374206265206120636F6E747261637400000000 PUSH0 DUP3 ADD MSTORE POP JUMP JUMPDEST PUSH0 PUSH2 0x34A PUSH1 0x1C DUP4 PUSH2 0x29E JUMP JUMPDEST SWAP2 POP PUSH2 0x355 DUP3 PUSH2 0x316 JUMP JUMPDEST PUSH1 0x20 DUP3 ADD SWAP1 POP SWAP2 SWAP1 POP JUMP JUMPDEST PUSH0 PUSH1 0x20 DUP3 ADD SWAP1 POP DUP2 DUP2 SUB PUSH0 DUP4 ADD MSTORE PUSH2 0x377 DUP2 PUSH2 0x33E JUMP JUMPDEST SWAP1 POP SWAP2 SWAP1 POP JUMP JUMPDEST PUSH32 0x4469726563746F7279206164647265737320646F6573206E6F7420696D706C65 PUSH0 DUP3 ADD MSTORE PUSH32 0x6D656E74206F776E657228290000000000000000000000000000000000000000 PUSH1 0x20 DUP3 ADD MSTORE POP JUMP JUMPDEST PUSH0 PUSH2 0x3D8 PUSH1 0x2C DUP4 PUSH2 0x29E JUMP JUMPDEST SWAP2 POP PUSH2 0x3E3 DUP3 PUSH2 0x37E JUMP JUMPDEST PUSH1 0x40 DUP3 ADD SWAP1 POP SWAP2 SWAP1 POP JUMP JUMPDEST PUSH0 PUSH1 0x20 DUP3 ADD SWAP1 POP DUP2 DUP2 SUB PUSH0 DUP4 ADD MSTORE PUSH2 0x405 DUP2 PUSH2 0x3CC JUMP JUMPDEST SWAP1 POP SWAP2 SWAP1 POP JUMP JUMPDEST PUSH2 0x2871 DUP1 PUSH2 0x419 PUSH0 CODECOPY PUSH0 RETURN INVALID PUSH1 0x80 PUSH1 0x40 MSTORE CALLVALUE DUP1 ISZERO PUSH2 0xF JUMPI PUSH0 PUSH0 REVERT JUMPDEST POP PUSH1 0x4 CALLDATASIZE LT PUSH2 0x9C JUMPI PUSH0 CALLDATALOAD PUSH1 0xE0 SHR DUP1 PUSH4 0x658A847A GT PUSH2 0x64 JUMPI DUP1 PUSH4 0x658A847A EQ PUSH2 0x16C JUMPI DUP1 PUSH4 0x8DA5CB5B EQ PUSH2 0x18A JUMPI DUP1 PUSH4 0xAB73314D EQ PUSH2 0x1A8 JUMPI DUP1 PUSH4 0xACEC338A EQ PUSH2 0x1D8 JUMPI DUP1 PUSH4 0xBA4C7BE1 EQ PUSH2 0x1F4 JUMPI PUSH2 0x9C JUMP JUMPDEST DUP1 PUSH4 0x22F3E2D4 EQ PUSH2 0xA0 JUMPI DUP1 PUSH4 0x27262618 EQ PUSH2 0xBE JUMPI DUP1 PUSH4 0x2FF910CE EQ PUSH2 0xEE JUMPI DUP1 PUSH4 0x428D9A93 EQ PUSH2 0x10C JUMPI DUP1 PUSH4 0x549E122B EQ PUSH2 0x13C JUMPI JUMPDEST PUSH0 PUSH0 REVERT JUMPDEST PUSH2 0xA8 PUSH2 0x210 JUMP JUMPDEST PUSH1 0x40 MLOAD PUSH2 0xB5 SWAP2 SWAP1 PUSH2 0x14CA JUMP JUMPDEST PUSH1 0x40 MLOAD DUP1 SWAP2 SUB SWAP1 RETURN JUMPDEST PUSH2 0xD8 PUSH1 0x4 DUP1 CALLDATASIZE SUB DUP2 ADD SWAP1 PUSH2 0xD3 SWAP2 SWAP1 PUSH2 0x1630 JUMP JUMPDEST PUSH2 0x223 JUMP JUMPDEST PUSH1 0x40 MLOAD PUSH2 0xE5 SWAP2 SWAP1 PUSH2 0x16B6 JUMP JUMPDEST PUSH1 0x40 MLOAD DUP1 SWAP2 SUB SWAP1 RETURN JUMPDEST PUSH2 0xF6 PUSH2 0x2C4 JUMP JUMPDEST PUSH1 0x40 MLOAD PUSH2 0x103 SWAP2 SWAP1 PUSH2 0x16E7 JUMP JUMPDEST PUSH1 0x40 MLOAD DUP1 SWAP2 SUB SWAP1 RETURN JUMPDEST PUSH2 0x126 PUSH1 0x4 DUP1 CALLDATASIZE SUB DUP2 ADD SWAP1 PUSH2 0x121 SWAP2 SWAP1 PUSH2 0x1722 JUMP JUMPDEST PUSH2 0x2CF JUMP JUMPDEST PUSH1 0x40 MLOAD PUSH2 0x133 SWAP2 SWAP1 PUSH2 0x16E7 JUMP JUMPDEST PUSH1 0x40 MLOAD DUP1 SWAP2 SUB SWAP1 RETURN JUMPDEST PUSH2 0x156 PUSH1 0x4 DUP1 CALLDATASIZE SUB DUP2 ADD SWAP1 PUSH2 0x151 SWAP2 SWAP1 PUSH2 0x1793 JUMP JUMPDEST PUSH2 0x4B7 JUMP JUMPDEST PUSH1 0x40 MLOAD PUSH2 0x163 SWAP2 SWAP1 PUSH2 0x1979 JUMP JUMPDEST PUSH1 0x40 MLOAD DUP1 SWAP2 SUB SWAP1 RETURN JUMPDEST PUSH2 0x174 PUSH2 0x72A JUMP JUMPDEST PUSH1 0x40 MLOAD PUSH2 0x181 SWAP2 SWAP1 PUSH2 0x19F4 JUMP JUMPDEST PUSH1 0x40 MLOAD DUP1 SWAP2 SUB SWAP1 RETURN JUMPDEST PUSH2 0x192 PUSH2 0x74F JUMP JUMPDEST PUSH1 0x40 MLOAD PUSH2 0x19F SWAP2 SWAP1 PUSH2 0x16B6 JUMP JUMPDEST PUSH1 0x40 MLOAD DUP1 SWAP2 SUB SWAP1 RETURN JUMPDEST PUSH2 0x1C2 PUSH1 0x4 DUP1 CALLDATASIZE SUB DUP2 ADD SWAP1 PUSH2 0x1BD SWAP2 SWAP1 PUSH2 0x1A6A JUMP JUMPDEST PUSH2 0x7E3 JUMP JUMPDEST PUSH1 0x40 MLOAD PUSH2 0x1CF SWAP2 SWAP1 PUSH2 0x1979 JUMP JUMPDEST PUSH1 0x40 MLOAD DUP1 SWAP2 SUB SWAP1 RETURN JUMPDEST PUSH2 0x1F2 PUSH1 0x4 DUP1 CALLDATASIZE SUB DUP2 ADD SWAP1 PUSH2 0x1ED SWAP2 SWAP1 PUSH2 0x1ADF JUMP JUMPDEST PUSH2 0xA6C JUMP JUMPDEST STOP JUMPDEST PUSH2 0x20E PUSH1 0x4 DUP1 CALLDATASIZE SUB DUP2 ADD SWAP1 PUSH2 0x209 SWAP2 SWAP1 PUSH2 0x1B34 JUMP JUMPDEST PUSH2 0xB84 JUMP JUMPDEST STOP JUMPDEST PUSH1 0x3 PUSH1 0x14 SWAP1 SLOAD SWAP1 PUSH2 0x100 EXP SWAP1 DIV PUSH1 0xFF AND DUP2 JUMP JUMPDEST PUSH0 PUSH1 0x3 PUSH0 SWAP1 SLOAD SWAP1 PUSH2 0x100 EXP SWAP1 DIV PUSH20 0xFFFFFFFFFFFFFFFFFFFFFFFFFFFFFFFFFFFFFFFF AND PUSH20 0xFFFFFFFFFFFFFFFFFFFFFFFFFFFFFFFFFFFFFFFF AND PUSH4 0x27262618 DUP4 PUSH1 0x40 MLOAD DUP3 PUSH4 0xFFFFFFFF AND PUSH1 0xE0 SHL DUP2 MSTORE PUSH1 0x4 ADD PUSH2 0x27E SWAP2 SWAP1 PUSH2 0x1BA7 JUMP JUMPDEST PUSH1 0x20 PUSH1 0x40 MLOAD DUP1 DUP4 SUB DUP2 DUP7 GAS STATICCALL ISZERO DUP1 ISZERO PUSH2 0x299 JUMPI RETURNDATASIZE PUSH0 PUSH0 RETURNDATACOPY RETURNDATASIZE PUSH0 REVERT JUMPDEST POP POP POP POP PUSH1 0x40 MLOAD RETURNDATASIZE PUSH1 0x1F NOT PUSH1 0x1F DUP3 ADD AND DUP3 ADD DUP1 PUSH1 0x40 MSTORE POP DUP2 ADD SWAP1 PUSH2 0x2BD SWAP2 SWAP1 PUSH2 0x1BDB JUMP JUMPDEST SWAP1 POP SWAP2 SWAP1 POP JUMP JUMPDEST PUSH0 PUSH0 DUP1 SLOAD SWAP1 POP SWAP1 POP SWAP1 JUMP JUMPDEST PUSH0 PUSH2 0x30E PUSH1 0x40 MLOAD DUP1 PUSH1 0x40 ADD PUSH1 0x40 MSTORE DUP1 PUSH1 0xB DUP2 MSTORE PUSH1 0x20 ADD PUSH32 0x6574662D666163746F7279000000000000000000000000000000000000000000 DUP2 MSTORE POP PUSH2 0x223 JUMP JUMPDEST PUSH20 0xFFFFFFFFFFFFFFFFFFFFFFFFFFFFFFFFFFFFFFFF AND CALLER PUSH20 0xFFFFFFFFFFFFFFFFFFFFFFFFFFFFFFFFFFFFFFFF AND EQ PUSH2 0x37B JUMPI PUSH1 0x40 MLOAD PUSH32 0x8C379A000000000000000000000000000000000000000000000000000000000 DUP2 MSTORE PUSH1 0x4 ADD PUSH2 0x372 SWAP1 PUSH2 0x1C50 JUMP JUMPDEST PUSH1 0x40 MLOAD DUP1 SWAP2 SUB SWAP1 REVERT JUMPDEST PUSH1 0x3 PUSH1 0x14 SWAP1 SLOAD SWAP1 PUSH2 0x100 EXP SWAP1 DIV PUSH1 0xFF AND PUSH2 0x3CA JUMPI PUSH1 0x40 MLOAD PUSH32 0x8C379A000000000000000000000000000000000000000000000000000000000 DUP2 MSTORE PUSH1 0x4 ADD PUSH2 0x3C1 SWAP1 PUSH2 0x1CB8 JUMP JUMPDEST PUSH1 0x40 MLOAD DUP1 SWAP2 SUB SWAP1 REVERT JUMPDEST PUSH0 PUSH2 0x3E3 DUP4 DUP1 PUSH1 0x20 ADD SWAP1 PUSH2 0x3DE SWAP2 SWAP1 PUSH2 0x1CE2 JUMP JUMPDEST PUSH2 0xC8B JUMP JUMPDEST SWAP1 POP PUSH0 PUSH2 0x3FE DUP5 DUP1 PUSH1 0x40 ADD SWAP1 PUSH2 0x3F9 SWAP2 SWAP1 PUSH2 0x1D44 JUMP JUMPDEST PUSH2 0xD24 JUMP JUMPDEST SWAP1 POP PUSH0 PUSH2 0x40A DUP3 PUSH2 0x1079 JUMP JUMPDEST SWAP1 POP PUSH0 PUSH2 0x41A PUSH0 DUP1 SLOAD SWAP1 POP PUSH2 0x10D4 JUMP JUMPDEST SWAP1 POP PUSH0 DUP7 SWAP1 DUP1 PUSH1 0x1 DUP2 SLOAD ADD DUP1 DUP3 SSTORE DUP1 SWAP2 POP POP PUSH1 0x1 SWAP1 SUB SWAP1 PUSH0 MSTORE PUSH1 0x20 PUSH0 KECCAK256 SWAP1 PUSH1 0x3 MUL ADD PUSH0 SWAP1 SWAP2 SWAP1 SWAP2 SWAP1 SWAP2 POP DUP2 DUP2 PUSH2 0x450 SWAP2 SWAP1 PUSH2 0x2447 JUMP JUMPDEST POP POP DUP1 PUSH1 0x1 PUSH0 DUP7 DUP2 MSTORE PUSH1 0x20 ADD SWAP1 DUP2 MSTORE PUSH1 0x20 ADD PUSH0 KECCAK256 DUP2 SWAP1 SSTORE POP DUP1 PUSH1 0x2 PUSH0 DUP5 DUP2 MSTORE PUSH1 0x20 ADD SWAP1 DUP2 MSTORE PUSH1 0x20 ADD PUSH0 KECCAK256 DUP2 SWAP1 SSTORE POP DUP1 PUSH32 0xEC8BE6228FE1EA57F9377ADC29CDA27FEC19A8470821CBE6C2022B2528062AA9 PUSH1 0x40 MLOAD PUSH1 0x40 MLOAD DUP1 SWAP2 SUB SWAP1 LOG2 DUP1 SWAP5 POP POP POP POP POP SWAP2 SWAP1 POP JUMP JUMPDEST PUSH2 0x4BF PUSH2 0x145D JUMP JUMPDEST PUSH0 DUP3 EQ DUP1 PUSH2 0x4D0 JUMPI POP PUSH0 DUP1 SLOAD SWAP1 POP DUP3 GT JUMPDEST ISZERO PUSH2 0x507 JUMPI PUSH1 0x40 MLOAD PUSH32 0xDFA1A40800000000000000000000000000000000000000000000000000000000 DUP2 MSTORE PUSH1 0x4 ADD PUSH1 0x40 MLOAD DUP1 SWAP2 SUB SWAP1 REVERT JUMPDEST PUSH0 PUSH2 0x511 DUP4 PUSH2 0x10E9 JUMP JUMPDEST DUP2 SLOAD DUP2 LT PUSH2 0x522 JUMPI PUSH2 0x521 PUSH2 0x2455 JUMP JUMPDEST JUMPDEST SWAP1 PUSH0 MSTORE PUSH1 0x20 PUSH0 KECCAK256 SWAP1 PUSH1 0x3 MUL ADD PUSH1 0x40 MLOAD DUP1 PUSH1 0x60 ADD PUSH1 0x40 MSTORE SWAP1 DUP2 PUSH0 DUP3 ADD DUP1 SLOAD PUSH2 0x548 SWAP1 PUSH2 0x1E09 JUMP JUMPDEST DUP1 PUSH1 0x1F ADD PUSH1 0x20 DUP1 SWAP2 DIV MUL PUSH1 0x20 ADD PUSH1 0x40 MLOAD SWAP1 DUP2 ADD PUSH1 0x40 MSTORE DUP1 SWAP3 SWAP2 SWAP1 DUP2 DUP2 MSTORE PUSH1 0x20 ADD DUP3 DUP1 SLOAD PUSH2 0x574 SWAP1 PUSH2 0x1E09 JUMP JUMPDEST DUP1 ISZERO PUSH2 0x5BF JUMPI DUP1 PUSH1 0x1F LT PUSH2 0x596 JUMPI PUSH2 0x100 DUP1 DUP4 SLOAD DIV MUL DUP4 MSTORE SWAP2 PUSH1 0x20 ADD SWAP2 PUSH2 0x5BF JUMP JUMPDEST DUP3 ADD SWAP2 SWAP1 PUSH0 MSTORE PUSH1 0x20 PUSH0 KECCAK256 SWAP1 JUMPDEST DUP2 SLOAD DUP2 MSTORE SWAP1 PUSH1 0x1 ADD SWAP1 PUSH1 0x20 ADD DUP1 DUP4 GT PUSH2 0x5A2 JUMPI DUP3 SWAP1 SUB PUSH1 0x1F AND DUP3 ADD SWAP2 JUMPDEST POP POP POP POP POP DUP2 MSTORE PUSH1 0x20 ADD PUSH1 0x1 DUP3 ADD DUP1 SLOAD PUSH2 0x5D8 SWAP1 PUSH2 0x1E09 JUMP JUMPDEST DUP1 PUSH1 0x1F ADD PUSH1 0x20 DUP1 SWAP2 DIV MUL PUSH1 0x20 ADD PUSH1 0x40 MLOAD SWAP1 DUP2 ADD PUSH1 0x40 MSTORE DUP1 SWAP3 SWAP2 SWAP1 DUP2 DUP2 MSTORE PUSH1 0x20 ADD DUP3 DUP1 SLOAD PUSH2 0x604 SWAP1 PUSH2 0x1E09 JUMP JUMPDEST DUP1 ISZERO PUSH2 0x64F JUMPI DUP1 PUSH1 0x1F LT PUSH2 0x626 JUMPI PUSH2 0x100 DUP1 DUP4 SLOAD DIV MUL DUP4 MSTORE SWAP2 PUSH1 0x20 ADD SWAP2 PUSH2 0x64F JUMP JUMPDEST DUP3 ADD SWAP2 SWAP1 PUSH0 MSTORE PUSH1 0x20 PUSH0 KECCAK256 SWAP1 JUMPDEST DUP2 SLOAD DUP2 MSTORE SWAP1 PUSH1 0x1 ADD SWAP1 PUSH1 0x20 ADD DUP1 DUP4 GT PUSH2 0x632 JUMPI DUP3 SWAP1 SUB PUSH1 0x1F AND DUP3 ADD SWAP2 JUMPDEST POP POP POP POP POP DUP2 MSTORE PUSH1 0x20 ADD PUSH1 0x2 DUP3 ADD DUP1 SLOAD DUP1 PUSH1 0x20 MUL PUSH1 0x20 ADD PUSH1 0x40 MLOAD SWAP1 DUP2 ADD PUSH1 0x40 MSTORE DUP1 SWAP3 SWAP2 SWAP1 DUP2 DUP2 MSTORE PUSH1 0x20 ADD PUSH0 SWAP1 JUMPDEST DUP3 DUP3 LT ISZERO PUSH2 0x71B JUMPI DUP4 DUP3 SWAP1 PUSH0 MSTORE PUSH1 0x20 PUSH0 KECCAK256 ADD PUSH1 0x40 MLOAD DUP1 PUSH1 0x40 ADD PUSH1 0x40 MSTORE SWAP1 DUP2 PUSH0 DUP3 ADD PUSH0 SWAP1 SLOAD SWAP1 PUSH2 0x100 EXP SWAP1 DIV PUSH20 0xFFFFFFFFFFFFFFFFFFFFFFFFFFFFFFFFFFFFFFFF AND PUSH20 0xFFFFFFFFFFFFFFFFFFFFFFFFFFFFFFFFFFFFFFFF AND PUSH20 0xFFFFFFFFFFFFFFFFFFFFFFFFFFFFFFFFFFFFFFFF AND DUP2 MSTORE PUSH1 0x20 ADD PUSH0 DUP3 ADD PUSH1 0x14 SWAP1 SLOAD SWAP1 PUSH2 0x100 EXP SWAP1 DIV PUSH2 0xFFFF AND PUSH2 0xFFFF AND PUSH2 0xFFFF AND DUP2 MSTORE POP POP DUP2 MSTORE PUSH1 0x20 ADD SWAP1 PUSH1 0x1 ADD SWAP1 PUSH2 0x67C JUMP JUMPDEST POP POP POP POP DUP2 MSTORE POP POP SWAP1 POP SWAP2 SWAP1 POP JUMP JUMPDEST PUSH1 0x3 PUSH0 SWAP1 SLOAD SWAP1 PUSH2 0x100 EXP SWAP1 DIV PUSH20 0xFFFFFFFFFFFFFFFFFFFFFFFFFFFFFFFFFFFFFFFF AND DUP2 JUMP JUMPDEST PUSH0 PUSH1 0x3 PUSH0 SWAP1 SLOAD SWAP1 PUSH2 0x100 EXP SWAP1 DIV PUSH20 0xFFFFFFFFFFFFFFFFFFFFFFFFFFFFFFFFFFFFFFFF AND PUSH20 0xFFFFFFFFFFFFFFFFFFFFFFFFFFFFFFFFFFFFFFFF AND PUSH4 0x8DA5CB5B PUSH1 0x40 MLOAD DUP2 PUSH4 0xFFFFFFFF AND PUSH1 0xE0 SHL DUP2 MSTORE PUSH1 0x4 ADD PUSH1 0x20 PUSH1 0x40 MLOAD DUP1 DUP4 SUB DUP2 DUP7 GAS STATICCALL ISZERO DUP1 ISZERO PUSH2 0x7BA JUMPI RETURNDATASIZE PUSH0 PUSH0 RETURNDATACOPY RETURNDATASIZE PUSH0 REVERT JUMPDEST POP POP POP POP PUSH1 0x40 MLOAD RETURNDATASIZE PUSH1 0x1F NOT PUSH1 0x1F DUP3 ADD AND DUP3 ADD DUP1 PUSH1 0x40 MSTORE POP DUP2 ADD SWAP1 PUSH2 0x7DE SWAP2 SWAP1 PUSH2 0x1BDB JUMP JUMPDEST SWAP1 POP SWAP1 JUMP JUMPDEST PUSH2 0x7EB PUSH2 0x145D JUMP JUMPDEST PUSH0 PUSH2 0x7F6 DUP5 DUP5 PUSH2 0x10FE JUMP JUMPDEST SWAP1 POP PUSH0 PUSH1 0x1 PUSH0 DUP4 DUP2 MSTORE PUSH1 0x20 ADD SWAP1 DUP2 MSTORE PUSH1 0x20 ADD PUSH0 KECCAK256 SLOAD SWAP1 POP PUSH0 DUP2 SUB PUSH2 0x846 JUMPI PUSH1 0x40 MLOAD PUSH32 0xBFB6FD0D00000000000000000000000000000000000000000000000000000000 DUP2 MSTORE PUSH1 0x4 ADD PUSH1 0x40 MLOAD DUP1 SWAP2 SUB SWAP1 REVERT JUMPDEST PUSH0 PUSH2 0x850 DUP3 PUSH2 0x10E9 JUMP JUMPDEST DUP2 SLOAD DUP2 LT PUSH2 0x861 JUMPI PUSH2 0x860 PUSH2 0x2455 JUMP JUMPDEST JUMPDEST SWAP1 PUSH0 MSTORE PUSH1 0x20 PUSH0 KECCAK256 SWAP1 PUSH1 0x3 MUL ADD PUSH1 0x40 MLOAD DUP1 PUSH1 0x60 ADD PUSH1 0x40 MSTORE SWAP1 DUP2 PUSH0 DUP3 ADD DUP1 SLOAD PUSH2 0x887 SWAP1 PUSH2 0x1E09 JUMP JUMPDEST DUP1 PUSH1 0x1F ADD PUSH1 0x20 DUP1 SWAP2 DIV MUL PUSH1 0x20 ADD PUSH1 0x40 MLOAD SWAP1 DUP2 ADD PUSH1 0x40 MSTORE DUP1 SWAP3 SWAP2 SWAP1 DUP2 DUP2 MSTORE PUSH1 0x20 ADD DUP3 DUP1 SLOAD PUSH2 0x8B3 SWAP1 PUSH2 0x1E09 JUMP JUMPDEST DUP1 ISZERO PUSH2 0x8FE JUMPI DUP1 PUSH1 0x1F LT PUSH2 0x8D5 JUMPI PUSH2 0x100 DUP1 DUP4 SLOAD DIV MUL DUP4 MSTORE SWAP2 PUSH1 0x20 ADD SWAP2 PUSH2 0x8FE JUMP JUMPDEST DUP3 ADD SWAP2 SWAP1 PUSH0 MSTORE PUSH1 0x20 PUSH0 KECCAK256 SWAP1 JUMPDEST DUP2 SLOAD DUP2 MSTORE SWAP1 PUSH1 0x1 ADD SWAP1 PUSH1 0x20 ADD DUP1 DUP4 GT PUSH2 0x8E1 JUMPI DUP3 SWAP1 SUB PUSH1 0x1F AND DUP3 ADD SWAP2 JUMPDEST POP POP POP POP POP DUP2 MSTORE PUSH1 0x20 ADD PUSH1 0x1 DUP3 ADD DUP1 SLOAD PUSH2 0x917 SWAP1 PUSH2 0x1E09 JUMP JUMPDEST DUP1 PUSH1 0x1F ADD PUSH1 0x20 DUP1 SWAP2 DIV MUL PUSH1 0x20 ADD PUSH1 0x40 MLOAD SWAP1 DUP2 ADD PUSH1 0x40 MSTORE DUP1 SWAP3 SWAP2 SWAP1 DUP2 DUP2 MSTORE PUSH1 0x20 ADD DUP3 DUP1 SLOAD PUSH2 0x943 SWAP1 PUSH2 0x1E09 JUMP JUMPDEST DUP1 ISZERO PUSH2 0x98E JUMPI DUP1 PUSH1 0x1F LT PUSH2 0x965 JUMPI PUSH2 0x100 DUP1 DUP4 SLOAD DIV MUL DUP4 MSTORE SWAP2 PUSH1 0x20 ADD SWAP2 PUSH2 0x98E JUMP JUMPDEST DUP3 ADD SWAP2 SWAP1 PUSH0 MSTORE PUSH1 0x20 PUSH0 KECCAK256 SWAP1 JUMPDEST DUP2 SLOAD DUP2 MSTORE SWAP1 PUSH1 0x1 ADD SWAP1 PUSH1 0x20 ADD DUP1 DUP4 GT PUSH2 0x971 JUMPI DUP3 SWAP1 SUB PUSH1 0x1F AND DUP3 ADD SWAP2 JUMPDEST POP POP POP POP POP DUP2 MSTORE PUSH1 0x20 ADD PUSH1 0x2 DUP3 ADD DUP1 SLOAD DUP1 PUSH1 0x20 MUL PUSH1 0x20 ADD PUSH1 0x40 MLOAD SWAP1 DUP2 ADD PUSH1 0x40 MSTORE DUP1 SWAP3 SWAP2 SWAP1 DUP2 DUP2 MSTORE PUSH1 0x20 ADD PUSH0 SWAP1 JUMPDEST DUP3 DUP3 LT ISZERO PUSH2 0xA5A JUMPI DUP4 DUP3 SWAP1 PUSH0 MSTORE PUSH1 0x20 PUSH0 KECCAK256 ADD PUSH1 0x40 MLOAD DUP1 PUSH1 0x40 ADD PUSH1 0x40 MSTORE SWAP1 DUP2 PUSH0 DUP3 ADD PUSH0 SWAP1 SLOAD SWAP1 PUSH2 0x100 EXP SWAP1 DIV PUSH20 0xFFFFFFFFFFFFFFFFFFFFFFFFFFFFFFFFFFFFFFFF AND PUSH20 0xFFFFFFFFFFFFFFFFFFFFFFFFFFFFFFFFFFFFFFFF AND PUSH20 0xFFFFFFFFFFFFFFFFFFFFFFFFFFFFFFFFFFFFFFFF AND DUP2 MSTORE PUSH1 0x20 ADD PUSH0 DUP3 ADD PUSH1 0x14 SWAP1 SLOAD SWAP1 PUSH2 0x100 EXP SWAP1 DIV PUSH2 0xFFFF AND PUSH2 0xFFFF AND PUSH2 0xFFFF AND DUP2 MSTORE POP POP DUP2 MSTORE PUSH1 0x20 ADD SWAP1 PUSH1 0x1 ADD SWAP1 PUSH2 0x9BB JUMP JUMPDEST POP POP POP POP DUP2 MSTORE POP POP SWAP3 POP POP POP SWAP3 SWAP2 POP POP JUMP JUMPDEST PUSH1 0x3 PUSH0 SWAP1 SLOAD SWAP1 PUSH2 0x100 EXP SWAP1 DIV PUSH20 0xFFFFFFFFFFFFFFFFFFFFFFFFFFFFFFFFFFFFFFFF AND PUSH20 0xFFFFFFFFFFFFFFFFFFFFFFFFFFFFFFFFFFFFFFFF AND PUSH4 0x8DA5CB5B PUSH1 0x40 MLOAD DUP2 PUSH4 0xFFFFFFFF AND PUSH1 0xE0 SHL DUP2 MSTORE PUSH1 0x4 ADD PUSH1 0x20 PUSH1 0x40 MLOAD DUP1 DUP4 SUB DUP2 DUP7 GAS STATICCALL ISZERO DUP1 ISZERO PUSH2 0xAD6 JUMPI RETURNDATASIZE PUSH0 PUSH0 RETURNDATACOPY RETURNDATASIZE PUSH0 REVERT JUMPDEST POP POP POP POP PUSH1 0x40 MLOAD RETURNDATASIZE PUSH1 0x1F NOT PUSH1 0x1F DUP3 ADD AND DUP3 ADD DUP1 PUSH1 0x40 MSTORE POP DUP2 ADD SWAP1 PUSH2 0xAFA SWAP2 SWAP1 PUSH2 0x1BDB JUMP JUMPDEST PUSH20 0xFFFFFFFFFFFFFFFFFFFFFFFFFFFFFFFFFFFFFFFF AND CALLER PUSH20 0xFFFFFFFFFFFFFFFFFFFFFFFFFFFFFFFFFFFFFFFF AND EQ PUSH2 0xB67 JUMPI PUSH1 0x40 MLOAD PUSH32 0x8C379A000000000000000000000000000000000000000000000000000000000 DUP2 MSTORE PUSH1 0x4 ADD PUSH2 0xB5E SWAP1 PUSH2 0x24CC JUMP JUMPDEST PUSH1 0x40 MLOAD DUP1 SWAP2 SUB SWAP1 REVERT JUMPDEST DUP1 PUSH1 0x3 PUSH1 0x14 PUSH2 0x100 EXP DUP2 SLOAD DUP2 PUSH1 0xFF MUL NOT AND SWAP1 DUP4 ISZERO ISZERO MUL OR SWAP1 SSTORE POP POP JUMP JUMPDEST PUSH1 0x3 PUSH0 SWAP1 SLOAD SWAP1 PUSH2 0x100 EXP SWAP1 DIV PUSH20 0xFFFFFFFFFFFFFFFFFFFFFFFFFFFFFFFFFFFFFFFF AND PUSH20 0xFFFFFFFFFFFFFFFFFFFFFFFFFFFFFFFFFFFFFFFF AND PUSH4 0x8DA5CB5B PUSH1 0x40 MLOAD DUP2 PUSH4 0xFFFFFFFF AND PUSH1 0xE0 SHL DUP2 MSTORE PUSH1 0x4 ADD PUSH1 0x20 PUSH1 0x40 MLOAD DUP1 DUP4 SUB DUP2 DUP7 GAS STATICCALL ISZERO DUP1 ISZERO PUSH2 0xBEE JUMPI RETURNDATASIZE PUSH0 PUSH0 RETURNDATACOPY RETURNDATASIZE PUSH0 REVERT JUMPDEST POP POP POP POP PUSH1 0x40 MLOAD RETURNDATASIZE PUSH1 0x1F NOT PUSH1 0x1F DUP3 ADD AND DUP3 ADD DUP1 PUSH1 0x40 MSTORE POP DUP2 ADD SWAP1 PUSH2 0xC12 SWAP2 SWAP1 PUSH2 0x1BDB JUMP JUMPDEST PUSH20 0xFFFFFFFFFFFFFFFFFFFFFFFFFFFFFFFFFFFFFFFF AND CALLER PUSH20 0xFFFFFFFFFFFFFFFFFFFFFFFFFFFFFFFFFFFFFFFF AND EQ PUSH2 0xC7F JUMPI PUSH1 0x40 MLOAD PUSH32 0x8C379A000000000000000000000000000000000000000000000000000000000 DUP2 MSTORE PUSH1 0x4 ADD PUSH2 0xC76 SWAP1 PUSH2 0x24CC JUMP JUMPDEST PUSH1 0x40 MLOAD DUP1 SWAP2 SUB SWAP1 REVERT JUMPDEST PUSH2 0xC88 DUP2 PUSH2 0x111F JUMP JUMPDEST POP JUMP JUMPDEST PUSH0 PUSH0 DUP4 DUP4 SWAP1 POP SUB PUSH2 0xCC8 JUMPI PUSH1 0x40 MLOAD PUSH32 0x653B1BE600000000000000000000000000000000000000000000000000000000 DUP2 MSTORE PUSH1 0x4 ADD PUSH1 0x40 MLOAD DUP1 SWAP2 SUB SWAP1 REVERT JUMPDEST PUSH2 0xCD2 DUP4 DUP4 PUSH2 0x10FE JUMP JUMPDEST SWAP1 POP PUSH0 PUSH1 0x1 PUSH0 DUP4 DUP2 MSTORE PUSH1 0x20 ADD SWAP1 DUP2 MSTORE PUSH1 0x20 ADD PUSH0 KECCAK256 SLOAD EQ PUSH2 0xD1E JUMPI PUSH1 0x40 MLOAD PUSH32 0xC498761200000000000000000000000000000000000000000000000000000000 DUP2 MSTORE PUSH1 0x4 ADD PUSH1 0x40 MLOAD DUP1 SWAP2 SUB SWAP1 REVERT JUMPDEST SWAP3 SWAP2 POP POP JUMP JUMPDEST PUSH1 0x60 PUSH0 DUP4 DUP4 SWAP1 POP SWAP1 POP PUSH0 DUP2 SUB PUSH2 0xD66 JUMPI PUSH1 0x40 MLOAD PUSH32 0xD7C8DA3200000000000000000000000000000000000000000000000000000000 DUP2 MSTORE PUSH1 0x4 ADD PUSH1 0x40 MLOAD DUP1 SWAP2 SUB SWAP1 REVERT JUMPDEST DUP1 PUSH8 0xFFFFFFFFFFFFFFFF DUP2 GT ISZERO PUSH2 0xD80 JUMPI PUSH2 0xD7F PUSH2 0x150C JUMP JUMPDEST JUMPDEST PUSH1 0x40 MLOAD SWAP1 DUP1 DUP3 MSTORE DUP1 PUSH1 0x20 MUL PUSH1 0x20 ADD DUP3 ADD PUSH1 0x40 MSTORE DUP1 ISZERO PUSH2 0xDB9 JUMPI DUP2 PUSH1 0x20 ADD JUMPDEST PUSH2 0xDA6 PUSH2 0x147E JUMP JUMPDEST DUP2 MSTORE PUSH1 0x20 ADD SWAP1 PUSH1 0x1 SWAP1 SUB SWAP1 DUP2 PUSH2 0xD9E JUMPI SWAP1 POP JUMPDEST POP SWAP2 POP PUSH0 PUSH0 SWAP1 POP JUMPDEST DUP2 DUP2 LT ISZERO PUSH2 0xF2B JUMPI CALLDATASIZE DUP6 DUP6 DUP4 DUP2 DUP2 LT PUSH2 0xDDD JUMPI PUSH2 0xDDC PUSH2 0x2455 JUMP JUMPDEST JUMPDEST SWAP1 POP PUSH1 0x40 MUL ADD SWAP1 POP PUSH0 DUP2 PUSH0 ADD PUSH1 0x20 DUP2 ADD SWAP1 PUSH2 0xDF8 SWAP2 SWAP1 PUSH2 0x1B34 JUMP JUMPDEST SWAP1 POP PUSH0 DUP3 PUSH1 0x20 ADD PUSH1 0x20 DUP2 ADD SWAP1 PUSH2 0xE0E SWAP2 SWAP1 PUSH2 0x24FE JUMP JUMPDEST PUSH2 0xFFFF AND SWAP1 POP PUSH0 PUSH20 0xFFFFFFFFFFFFFFFFFFFFFFFFFFFFFFFFFFFFFFFF AND DUP3 PUSH20 0xFFFFFFFFFFFFFFFFFFFFFFFFFFFFFFFFFFFFFFFF AND SUB PUSH2 0xE79 JUMPI PUSH1 0x40 MLOAD PUSH32 0xAD1991F500000000000000000000000000000000000000000000000000000000 DUP2 MSTORE PUSH1 0x4 ADD PUSH1 0x40 MLOAD DUP1 SWAP2 SUB SWAP1 REVERT JUMPDEST PUSH0 DUP2 SUB PUSH2 0xEB2 JUMPI PUSH1 0x40 MLOAD PUSH32 0x19A2A9BD00000000000000000000000000000000000000000000000000000000 DUP2 MSTORE PUSH1 0x4 ADD PUSH1 0x40 MLOAD DUP1 SWAP2 SUB SWAP1 REVERT JUMPDEST PUSH2 0x2710 DUP2 GT ISZERO PUSH2 0xEEE JUMPI PUSH1 0x40 MLOAD PUSH32 0xC663343D00000000000000000000000000000000000000000000000000000000 DUP2 MSTORE PUSH1 0x4 ADD PUSH1 0x40 MLOAD DUP1 SWAP2 SUB SWAP1 REVERT JUMPDEST DUP3 DUP1 CALLDATASIZE SUB DUP2 ADD SWAP1 PUSH2 0xEFF SWAP2 SWAP1 PUSH2 0x257A JUMP JUMPDEST DUP7 DUP6 DUP2 MLOAD DUP2 LT PUSH2 0xF12 JUMPI PUSH2 0xF11 PUSH2 0x2455 JUMP JUMPDEST JUMPDEST PUSH1 0x20 MUL PUSH1 0x20 ADD ADD DUP2 SWAP1 MSTORE POP DUP4 PUSH1 0x1 ADD SWAP4 POP POP POP POP PUSH2 0xDC1 JUMP JUMPDEST POP PUSH2 0xF35 DUP3 PUSH2 0x12D1 JUMP JUMPDEST PUSH0 PUSH0 PUSH0 SWAP1 POP JUMPDEST DUP3 DUP2 LT ISZERO PUSH2 0x1035 JUMPI PUSH0 DUP2 GT DUP1 ISZERO PUSH2 0xFC3 JUMPI POP DUP4 DUP2 DUP2 MLOAD DUP2 LT PUSH2 0xF60 JUMPI PUSH2 0xF5F PUSH2 0x2455 JUMP JUMPDEST JUMPDEST PUSH1 0x20 MUL PUSH1 0x20 ADD ADD MLOAD PUSH0 ADD MLOAD PUSH20 0xFFFFFFFFFFFFFFFFFFFFFFFFFFFFFFFFFFFFFFFF AND DUP5 PUSH1 0x1 DUP4 PUSH2 0xF8F SWAP2 SWAP1 PUSH2 0x25A5 JUMP JUMPDEST DUP2 MLOAD DUP2 LT PUSH2 0xFA0 JUMPI PUSH2 0xF9F PUSH2 0x2455 JUMP JUMPDEST JUMPDEST PUSH1 0x20 MUL PUSH1 0x20 ADD ADD MLOAD PUSH0 ADD MLOAD PUSH20 0xFFFFFFFFFFFFFFFFFFFFFFFFFFFFFFFFFFFFFFFF AND EQ JUMPDEST ISZERO PUSH2 0xFFA JUMPI PUSH1 0x40 MLOAD PUSH32 0x464E3F6A00000000000000000000000000000000000000000000000000000000 DUP2 MSTORE PUSH1 0x4 ADD PUSH1 0x40 MLOAD DUP1 SWAP2 SUB SWAP1 REVERT JUMPDEST DUP4 DUP2 DUP2 MLOAD DUP2 LT PUSH2 0x100D JUMPI PUSH2 0x100C PUSH2 0x2455 JUMP JUMPDEST JUMPDEST PUSH1 0x20 MUL PUSH1 0x20 ADD ADD MLOAD PUSH1 0x20 ADD MLOAD PUSH2 0xFFFF AND DUP3 PUSH2 0x1028 SWAP2 SWAP1 PUSH2 0x25D8 JUMP JUMPDEST SWAP2 POP DUP1 PUSH1 0x1 ADD SWAP1 POP PUSH2 0xF3B JUMP JUMPDEST POP PUSH2 0x2710 DUP2 EQ PUSH2 0x1071 JUMPI PUSH1 0x40 MLOAD PUSH32 0xDA6957EA00000000000000000000000000000000000000000000000000000000 DUP2 MSTORE PUSH1 0x4 ADD PUSH1 0x40 MLOAD DUP1 SWAP2 SUB SWAP1 REVERT JUMPDEST POP POP SWAP3 SWAP2 POP POP JUMP JUMPDEST PUSH0 PUSH2 0x1083 DUP3 PUSH2 0x142E JUMP JUMPDEST SWAP1 POP PUSH0 PUSH1 0x2 PUSH0 DUP4 DUP2 MSTORE PUSH1 0x20 ADD SWAP1 DUP2 MSTORE PUSH1 0x20 ADD PUSH0 KECCAK256 SLOAD EQ PUSH2 0x10CF JUMPI PUSH1 0x40 MLOAD PUSH32 0x15B689D700000000000000000000000000000000000000000000000000000000 DUP2 MSTORE PUSH1 0x4 ADD PUSH1 0x40 MLOAD DUP1 SWAP2 SUB SWAP1 REVERT JUMPDEST SWAP2 SWAP1 POP JUMP JUMPDEST PUSH0 PUSH1 0x1 DUP3 PUSH2 0x10E2 SWAP2 SWAP1 PUSH2 0x25D8 JUMP JUMPDEST SWAP1 POP SWAP2 SWAP1 POP JUMP JUMPDEST PUSH0 PUSH1 0x1 DUP3 PUSH2 0x10F7 SWAP2 SWAP1 PUSH2 0x25A5 JUMP JUMPDEST SWAP1 POP SWAP2 SWAP1 POP JUMP JUMPDEST PUSH0 DUP3 DUP3 PUSH1 0x40 MLOAD PUSH2 0x110F SWAP3 SWAP2 SWAP1 PUSH2 0x2639 JUMP JUMPDEST PUSH1 0x40 MLOAD DUP1 SWAP2 SUB SWAP1 KECCAK256 SWAP1 POP SWAP3 SWAP2 POP POP JUMP JUMPDEST PUSH0 PUSH20 0xFFFFFFFFFFFFFFFFFFFFFFFFFFFFFFFFFFFFFFFF AND DUP2 PUSH20 0xFFFFFFFFFFFFFFFFFFFFFFFFFFFFFFFFFFFFFFFF AND SUB PUSH2 0x118D JUMPI PUSH1 0x40 MLOAD PUSH32 0x8C379A000000000000000000000000000000000000000000000000000000000 DUP2 MSTORE PUSH1 0x4 ADD PUSH2 0x1184 SWAP1 PUSH2 0x269B JUMP JUMPDEST PUSH1 0x40 MLOAD DUP1 SWAP2 SUB SWAP1 REVERT JUMPDEST PUSH0 DUP2 PUSH20 0xFFFFFFFFFFFFFFFFFFFFFFFFFFFFFFFFFFFFFFFF AND EXTCODESIZE GT PUSH2 0x11E6 JUMPI PUSH1 0x40 MLOAD PUSH32 0x8C379A000000000000000000000000000000000000000000000000000000000 DUP2 MSTORE PUSH1 0x4 ADD PUSH2 0x11DD SWAP1 PUSH2 0x2703 JUMP JUMPDEST PUSH1 0x40 MLOAD DUP1 SWAP2 SUB SWAP1 REVERT JUMPDEST DUP1 PUSH20 0xFFFFFFFFFFFFFFFFFFFFFFFFFFFFFFFFFFFFFFFF AND PUSH4 0x8DA5CB5B PUSH1 0x40 MLOAD DUP2 PUSH4 0xFFFFFFFF AND PUSH1 0xE0 SHL DUP2 MSTORE PUSH1 0x4 ADD PUSH1 0x20 PUSH1 0x40 MLOAD DUP1 DUP4 SUB DUP2 DUP7 GAS STATICCALL SWAP3 POP POP POP DUP1 ISZERO PUSH2 0x124E JUMPI POP PUSH1 0x40 MLOAD RETURNDATASIZE PUSH1 0x1F NOT PUSH1 0x1F DUP3 ADD AND DUP3 ADD DUP1 PUSH1 0x40 MSTORE POP DUP2 ADD SWAP1 PUSH2 0x124B SWAP2 SWAP1 PUSH2 0x1BDB JUMP JUMPDEST PUSH1 0x1 JUMPDEST PUSH2 0x128D JUMPI PUSH1 0x40 MLOAD PUSH32 0x8C379A000000000000000000000000000000000000000000000000000000000 DUP2 MSTORE PUSH1 0x4 ADD PUSH2 0x1284 SWAP1 PUSH2 0x2791 JUMP JUMPDEST PUSH1 0x40 MLOAD DUP1 SWAP2 SUB SWAP1 REVERT JUMPDEST DUP2 PUSH1 0x3 PUSH0 PUSH2 0x100 EXP DUP2 SLOAD DUP2 PUSH20 0xFFFFFFFFFFFFFFFFFFFFFFFFFFFFFFFFFFFFFFFF MUL NOT AND SWAP1 DUP4 PUSH20 0xFFFFFFFFFFFFFFFFFFFFFFFFFFFFFFFFFFFFFFFF AND MUL OR SWAP1 SSTORE POP POP POP JUMP JUMPDEST PUSH0 DUP2 MLOAD SWAP1 POP PUSH0 PUSH1 0x1 SWAP1 POP JUMPDEST DUP2 DUP2 LT ISZERO PUSH2 0x1429 JUMPI PUSH0 DUP4 DUP3 DUP2 MLOAD DUP2 LT PUSH2 0x12F8 JUMPI PUSH2 0x12F7 PUSH2 0x2455 JUMP JUMPDEST JUMPDEST PUSH1 0x20 MUL PUSH1 0x20 ADD ADD MLOAD SWAP1 POP PUSH0 DUP3 SWAP1 POP JUMPDEST PUSH0 DUP2 GT ISZERO PUSH2 0x13FD JUMPI PUSH0 DUP6 PUSH1 0x1 DUP4 PUSH2 0x131E SWAP2 SWAP1 PUSH2 0x25A5 JUMP JUMPDEST DUP2 MLOAD DUP2 LT PUSH2 0x132F JUMPI PUSH2 0x132E PUSH2 0x2455 JUMP JUMPDEST JUMPDEST PUSH1 0x20 MUL PUSH1 0x20 ADD ADD MLOAD SWAP1 POP DUP3 PUSH0 ADD MLOAD PUSH20 0xFFFFFFFFFFFFFFFFFFFFFFFFFFFFFFFFFFFFFFFF AND DUP2 PUSH0 ADD MLOAD PUSH20 0xFFFFFFFFFFFFFFFFFFFFFFFFFFFFFFFFFFFFFFFF AND LT DUP1 PUSH2 0x13C6 JUMPI POP DUP3 PUSH0 ADD MLOAD PUSH20 0xFFFFFFFFFFFFFFFFFFFFFFFFFFFFFFFFFFFFFFFF AND DUP2 PUSH0 ADD MLOAD PUSH20 0xFFFFFFFFFFFFFFFFFFFFFFFFFFFFFFFFFFFFFFFF AND EQ DUP1 ISZERO PUSH2 0x13C5 JUMPI POP DUP3 PUSH1 0x20 ADD MLOAD PUSH2 0xFFFF AND DUP2 PUSH1 0x20 ADD MLOAD PUSH2 0xFFFF AND GT ISZERO JUMPDEST JUMPDEST ISZERO PUSH2 0x13D1 JUMPI POP PUSH2 0x13FD JUMP JUMPDEST DUP1 DUP7 DUP4 DUP2 MLOAD DUP2 LT PUSH2 0x13E5 JUMPI PUSH2 0x13E4 PUSH2 0x2455 JUMP JUMPDEST JUMPDEST PUSH1 0x20 MUL PUSH1 0x20 ADD ADD DUP2 SWAP1 MSTORE POP DUP2 PUSH1 0x1 SWAP1 SUB SWAP2 POP POP PUSH2 0x1307 JUMP JUMPDEST DUP2 DUP6 DUP3 DUP2 MLOAD DUP2 LT PUSH2 0x1411 JUMPI PUSH2 0x1410 PUSH2 0x2455 JUMP JUMPDEST JUMPDEST PUSH1 0x20 MUL PUSH1 0x20 ADD ADD DUP2 SWAP1 MSTORE POP DUP3 PUSH1 0x1 ADD SWAP3 POP POP POP PUSH2 0x12DC JUMP JUMPDEST POP POP POP JUMP JUMPDEST PUSH0 DUP2 PUSH1 0x40 MLOAD PUSH1 0x20 ADD PUSH2 0x1440 SWAP2 SWAP1 PUSH2 0x281B JUMP JUMPDEST PUSH1 0x40 MLOAD PUSH1 0x20 DUP2 DUP4 SUB SUB DUP2 MSTORE SWAP1 PUSH1 0x40 MSTORE DUP1 MLOAD SWAP1 PUSH1 0x20 ADD KECCAK256 SWAP1 POP SWAP2 SWAP1 POP JUMP JUMPDEST PUSH1 0x40 MLOAD DUP1 PUSH1 0x60 ADD PUSH1 0x40 MSTORE DUP1 PUSH1 0x60 DUP2 MSTORE PUSH1 0x20 ADD PUSH1 0x60 DUP2 MSTORE PUSH1 0x20 ADD PUSH1 0x60 DUP2 MSTORE POP SWAP1 JUMP JUMPDEST PUSH1 0x40 MLOAD DUP1 PUSH1 0x40 ADD PUSH1 0x40 MSTORE DUP1 PUSH0 PUSH20 0xFFFFFFFFFFFFFFFFFFFFFFFFFFFFFFFFFFFFFFFF AND DUP2 MSTORE PUSH1 0x20 ADD PUSH0 PUSH2 0xFFFF AND DUP2 MSTORE POP SWAP1 JUMP JUMPDEST PUSH0 DUP2 ISZERO ISZERO SWAP1 POP SWAP2 SWAP1 POP JUMP JUMPDEST PUSH2 0x14C4 DUP2 PUSH2 0x14B0 JUMP JUMPDEST DUP3 MSTORE POP POP JUMP JUMPDEST PUSH0 PUSH1 0x20 DUP3 ADD SWAP1 POP PUSH2 0x14DD PUSH0 DUP4 ADD DUP5 PUSH2 0x14BB JUMP JUMPDEST SWAP3 SWAP2 POP POP JUMP JUMPDEST PUSH0 PUSH1 0x40 MLOAD SWAP1 POP SWAP1 JUMP JUMPDEST PUSH0 PUSH0 REVERT JUMPDEST PUSH0 PUSH0 REVERT JUMPDEST PUSH0 PUSH0 REVERT JUMPDEST PUSH0 PUSH0 REVERT JUMPDEST PUSH0 PUSH1 0x1F NOT PUSH1 0x1F DUP4 ADD AND SWAP1 POP SWAP2 SWAP1 POP JUMP JUMPDEST PUSH32 0x4E487B7100000000000000000000000000000000000000000000000000000000 PUSH0 MSTORE PUSH1 0x41 PUSH1 0x4 MSTORE PUSH1 0x24 PUSH0 REVERT JUMPDEST PUSH2 0x1542 DUP3 PUSH2 0x14FC JUMP JUMPDEST DUP2 ADD DUP2 DUP2 LT PUSH8 0xFFFFFFFFFFFFFFFF DUP3 GT OR ISZERO PUSH2 0x1561 JUMPI PUSH2 0x1560 PUSH2 0x150C JUMP JUMPDEST JUMPDEST DUP1 PUSH1 0x40 MSTORE POP POP POP JUMP JUMPDEST PUSH0 PUSH2 0x1573 PUSH2 0x14E3 JUMP JUMPDEST SWAP1 POP PUSH2 0x157F DUP3 DUP3 PUSH2 0x1539 JUMP JUMPDEST SWAP2 SWAP1 POP JUMP JUMPDEST PUSH0 PUSH8 0xFFFFFFFFFFFFFFFF DUP3 GT ISZERO PUSH2 0x159E JUMPI PUSH2 0x159D PUSH2 0x150C JUMP JUMPDEST JUMPDEST PUSH2 0x15A7 DUP3 PUSH2 0x14FC JUMP JUMPDEST SWAP1 POP PUSH1 0x20 DUP2 ADD SWAP1 POP SWAP2 SWAP1 POP JUMP JUMPDEST DUP3 DUP2 DUP4 CALLDATACOPY PUSH0 DUP4 DUP4 ADD MSTORE POP POP POP JUMP JUMPDEST PUSH0 PUSH2 0x15D4 PUSH2 0x15CF DUP5 PUSH2 0x1584 JUMP JUMPDEST PUSH2 0x156A JUMP JUMPDEST SWAP1 POP DUP3 DUP2 MSTORE PUSH1 0x20 DUP2 ADD DUP5 DUP5 DUP5 ADD GT ISZERO PUSH2 0x15F0 JUMPI PUSH2 0x15EF PUSH2 0x14F8 JUMP JUMPDEST JUMPDEST PUSH2 0x15FB DUP5 DUP3 DUP6 PUSH2 0x15B4 JUMP JUMPDEST POP SWAP4 SWAP3 POP POP POP JUMP JUMPDEST PUSH0 DUP3 PUSH1 0x1F DUP4 ADD SLT PUSH2 0x1617 JUMPI PUSH2 0x1616 PUSH2 0x14F4 JUMP JUMPDEST JUMPDEST DUP2 CALLDATALOAD PUSH2 0x1627 DUP5 DUP3 PUSH1 0x20 DUP7 ADD PUSH2 0x15C2 JUMP JUMPDEST SWAP2 POP POP SWAP3 SWAP2 POP POP JUMP JUMPDEST PUSH0 PUSH1 0x20 DUP3 DUP5 SUB SLT ISZERO PUSH2 0x1645 JUMPI PUSH2 0x1644 PUSH2 0x14EC JUMP JUMPDEST JUMPDEST PUSH0 DUP3 ADD CALLDATALOAD PUSH8 0xFFFFFFFFFFFFFFFF DUP2 GT ISZERO PUSH2 0x1662 JUMPI PUSH2 0x1661 PUSH2 0x14F0 JUMP JUMPDEST JUMPDEST PUSH2 0x166E DUP5 DUP3 DUP6 ADD PUSH2 0x1603 JUMP JUMPDEST SWAP2 POP POP SWAP3 SWAP2 POP POP JUMP JUMPDEST PUSH0 PUSH20 0xFFFFFFFFFFFFFFFFFFFFFFFFFFFFFFFFFFFFFFFF DUP3 AND SWAP1 POP SWAP2 SWAP1 POP JUMP JUMPDEST PUSH0 PUSH2 0x16A0 DUP3 PUSH2 0x1677 JUMP JUMPDEST SWAP1 POP SWAP2 SWAP1 POP JUMP JUMPDEST PUSH2 0x16B0 DUP2 PUSH2 0x1696 JUMP JUMPDEST DUP3 MSTORE POP POP JUMP JUMPDEST PUSH0 PUSH1 0x20 DUP3 ADD SWAP1 POP PUSH2 0x16C9 PUSH0 DUP4 ADD DUP5 PUSH2 0x16A7 JUMP JUMPDEST SWAP3 SWAP2 POP POP JUMP JUMPDEST PUSH0 DUP2 SWAP1 POP SWAP2 SWAP1 POP JUMP JUMPDEST PUSH2 0x16E1 DUP2 PUSH2 0x16CF JUMP JUMPDEST DUP3 MSTORE POP POP JUMP JUMPDEST PUSH0 PUSH1 0x20 DUP3 ADD SWAP1 POP PUSH2 0x16FA PUSH0 DUP4 ADD DUP5 PUSH2 0x16D8 JUMP JUMPDEST SWAP3 SWAP2 POP POP JUMP JUMPDEST PUSH0 PUSH0 REVERT JUMPDEST PUSH0 PUSH1 0x60 DUP3 DUP5 SUB SLT ISZERO PUSH2 0x1719 JUMPI PUSH2 0x1718 PUSH2 0x1700 JUMP JUMPDEST JUMPDEST DUP2 SWAP1 POP SWAP3 SWAP2 POP POP JUMP JUMPDEST PUSH0 PUSH1 0x20 DUP3 DUP5 SUB SLT ISZERO PUSH2 0x1737 JUMPI PUSH2 0x1736 PUSH2 0x14EC JUMP JUMPDEST JUMPDEST PUSH0 DUP3 ADD CALLDATALOAD PUSH8 0xFFFFFFFFFFFFFFFF DUP2 GT ISZERO PUSH2 0x1754 JUMPI PUSH2 0x1753 PUSH2 0x14F0 JUMP JUMPDEST JUMPDEST PUSH2 0x1760 DUP5 DUP3 DUP6 ADD PUSH2 0x1704 JUMP JUMPDEST SWAP2 POP POP SWAP3 SWAP2 POP POP JUMP JUMPDEST PUSH2 0x1772 DUP2 PUSH2 0x16CF JUMP JUMPDEST DUP2 EQ PUSH2 0x177C JUMPI PUSH0 PUSH0 REVERT JUMPDEST POP JUMP JUMPDEST PUSH0 DUP2 CALLDATALOAD SWAP1 POP PUSH2 0x178D DUP2 PUSH2 0x1769 JUMP JUMPDEST SWAP3 SWAP2 POP POP JUMP JUMPDEST PUSH0 PUSH1 0x20 DUP3 DUP5 SUB SLT ISZERO PUSH2 0x17A8 JUMPI PUSH2 0x17A7 PUSH2 0x14EC JUMP JUMPDEST JUMPDEST PUSH0 PUSH2 0x17B5 DUP5 DUP3 DUP6 ADD PUSH2 0x177F JUMP JUMPDEST SWAP2 POP POP SWAP3 SWAP2 POP POP JUMP JUMPDEST PUSH0 DUP2 MLOAD SWAP1 POP SWAP2 SWAP1 POP JUMP JUMPDEST PUSH0 DUP3 DUP3 MSTORE PUSH1 0x20 DUP3 ADD SWAP1 POP SWAP3 SWAP2 POP POP JUMP JUMPDEST DUP3 DUP2 DUP4 MCOPY PUSH0 DUP4 DUP4 ADD MSTORE POP POP POP JUMP JUMPDEST PUSH0 PUSH2 0x17F0 DUP3 PUSH2 0x17BE JUMP JUMPDEST PUSH2 0x17FA DUP2 DUP6 PUSH2 0x17C8 JUMP JUMPDEST SWAP4 POP PUSH2 0x180A DUP2 DUP6 PUSH1 0x20 DUP7 ADD PUSH2 0x17D8 JUMP JUMPDEST PUSH2 0x1813 DUP2 PUSH2 0x14FC JUMP JUMPDEST DUP5 ADD SWAP2 POP POP SWAP3 SWAP2 POP POP JUMP JUMPDEST PUSH0 DUP2 MLOAD SWAP1 POP SWAP2 SWAP1 POP JUMP JUMPDEST PUSH0 DUP3 DUP3 MSTORE PUSH1 0x20 DUP3 ADD SWAP1 POP SWAP3 SWAP2 POP POP JUMP JUMPDEST PUSH0 DUP2 SWAP1 POP PUSH1 0x20 DUP3 ADD SWAP1 POP SWAP2 SWAP1 POP JUMP JUMPDEST PUSH2 0x1850 DUP2 PUSH2 0x1696 JUMP JUMPDEST DUP3 MSTORE POP POP JUMP JUMPDEST PUSH0 PUSH2 0xFFFF DUP3 AND SWAP1 POP SWAP2 SWAP1 POP JUMP JUMPDEST PUSH2 0x186C DUP2 PUSH2 0x1856 JUMP JUMPDEST DUP3 MSTORE POP POP JUMP JUMPDEST PUSH1 0x40 DUP3 ADD PUSH0 DUP3 ADD MLOAD PUSH2 0x1886 PUSH0 DUP6 ADD DUP3 PUSH2 0x1847 JUMP JUMPDEST POP PUSH1 0x20 DUP3 ADD MLOAD PUSH2 0x1899 PUSH1 0x20 DUP6 ADD DUP3 PUSH2 0x1863 JUMP JUMPDEST POP POP POP POP JUMP JUMPDEST PUSH0 PUSH2 0x18AA DUP4 DUP4 PUSH2 0x1872 JUMP JUMPDEST PUSH1 0x40 DUP4 ADD SWAP1 POP SWAP3 SWAP2 POP POP JUMP JUMPDEST PUSH0 PUSH1 0x20 DUP3 ADD SWAP1 POP SWAP2 SWAP1 POP JUMP JUMPDEST PUSH0 PUSH2 0x18CC DUP3 PUSH2 0x181E JUMP JUMPDEST PUSH2 0x18D6 DUP2 DUP6 PUSH2 0x1828 JUMP JUMPDEST SWAP4 POP PUSH2 0x18E1 DUP4 PUSH2 0x1838 JUMP JUMPDEST DUP1 PUSH0 JUMPDEST DUP4 DUP2 LT ISZERO PUSH2 0x1911 JUMPI DUP2 MLOAD PUSH2 0x18F8 DUP9 DUP3 PUSH2 0x189F JUMP JUMPDEST SWAP8 POP PUSH2 0x1903 DUP4 PUSH2 0x18B6 JUMP JUMPDEST SWAP3 POP POP PUSH1 0x1 DUP2 ADD SWAP1 POP PUSH2 0x18E4 JUMP JUMPDEST POP DUP6 SWAP4 POP POP POP POP SWAP3 SWAP2 POP POP JUMP JUMPDEST PUSH0 PUSH1 0x60 DUP4 ADD PUSH0 DUP4 ADD MLOAD DUP5 DUP3 SUB PUSH0 DUP7 ADD MSTORE PUSH2 0x1938 DUP3 DUP3 PUSH2 0x17E6 JUMP JUMPDEST SWAP2 POP POP PUSH1 0x20 DUP4 ADD MLOAD DUP5 DUP3 SUB PUSH1 0x20 DUP7 ADD MSTORE PUSH2 0x1952 DUP3 DUP3 PUSH2 0x17E6 JUMP JUMPDEST SWAP2 POP POP PUSH1 0x40 DUP4 ADD MLOAD DUP5 DUP3 SUB PUSH1 0x40 DUP7 ADD MSTORE PUSH2 0x196C DUP3 DUP3 PUSH2 0x18C2 JUMP JUMPDEST SWAP2 POP POP DUP1 SWAP2 POP POP SWAP3 SWAP2 POP POP JUMP JUMPDEST PUSH0 PUSH1 0x20 DUP3 ADD SWAP1 POP DUP2 DUP2 SUB PUSH0 DUP4 ADD MSTORE PUSH2 0x1991 DUP2 DUP5 PUSH2 0x191E JUMP JUMPDEST SWAP1 POP SWAP3 SWAP2 POP POP JUMP JUMPDEST PUSH0 DUP2 SWAP1 POP SWAP2 SWAP1 POP JUMP JUMPDEST PUSH0 PUSH2 0x19BC PUSH2 0x19B7 PUSH2 0x19B2 DUP5 PUSH2 0x1677 JUMP JUMPDEST PUSH2 0x1999 JUMP JUMPDEST PUSH2 0x1677 JUMP JUMPDEST SWAP1 POP SWAP2 SWAP1 POP JUMP JUMPDEST PUSH0 PUSH2 0x19CD DUP3 PUSH2 0x19A2 JUMP JUMPDEST SWAP1 POP SWAP2 SWAP1 POP JUMP JUMPDEST PUSH0 PUSH2 0x19DE DUP3 PUSH2 0x19C3 JUMP JUMPDEST SWAP1 POP SWAP2 SWAP1 POP JUMP JUMPDEST PUSH2 0x19EE DUP2 PUSH2 0x19D4 JUMP JUMPDEST DUP3 MSTORE POP POP JUMP JUMPDEST PUSH0 PUSH1 0x20 DUP3 ADD SWAP1 POP PUSH2 0x1A07 PUSH0 DUP4 ADD DUP5 PUSH2 0x19E5 JUMP JUMPDEST SWAP3 SWAP2 POP POP JUMP JUMPDEST PUSH0 PUSH0 REVERT JUMPDEST PUSH0 PUSH0 REVERT JUMPDEST PUSH0 PUSH0 DUP4 PUSH1 0x1F DUP5 ADD SLT PUSH2 0x1A2A JUMPI PUSH2 0x1A29 PUSH2 0x14F4 JUMP JUMPDEST JUMPDEST DUP3 CALLDATALOAD SWAP1 POP PUSH8 0xFFFFFFFFFFFFFFFF DUP2 GT ISZERO PUSH2 0x1A47 JUMPI PUSH2 0x1A46 PUSH2 0x1A0D JUMP JUMPDEST JUMPDEST PUSH1 0x20 DUP4 ADD SWAP2 POP DUP4 PUSH1 0x1 DUP3 MUL DUP4 ADD GT ISZERO PUSH2 0x1A63 JUMPI PUSH2 0x1A62 PUSH2 0x1A11 JUMP JUMPDEST JUMPDEST SWAP3 POP SWAP3 SWAP1 POP JUMP JUMPDEST PUSH0 PUSH0 PUSH1 0x20 DUP4 DUP6 SUB SLT ISZERO PUSH2 0x1A80 JUMPI PUSH2 0x1A7F PUSH2 0x14EC JUMP JUMPDEST JUMPDEST PUSH0 DUP4 ADD CALLDATALOAD PUSH8 0xFFFFFFFFFFFFFFFF DUP2 GT ISZERO PUSH2 0x1A9D JUMPI PUSH2 0x1A9C PUSH2 0x14F0 JUMP JUMPDEST JUMPDEST PUSH2 0x1AA9 DUP6 DUP3 DUP7 ADD PUSH2 0x1A15 JUMP JUMPDEST SWAP3 POP SWAP3 POP POP SWAP3 POP SWAP3 SWAP1 POP JUMP JUMPDEST PUSH2 0x1ABE DUP2 PUSH2 0x14B0 JUMP JUMPDEST DUP2 EQ PUSH2 0x1AC8 JUMPI PUSH0 PUSH0 REVERT JUMPDEST POP JUMP JUMPDEST PUSH0 DUP2 CALLDATALOAD SWAP1 POP PUSH2 0x1AD9 DUP2 PUSH2 0x1AB5 JUMP JUMPDEST SWAP3 SWAP2 POP POP JUMP JUMPDEST PUSH0 PUSH1 0x20 DUP3 DUP5 SUB SLT ISZERO PUSH2 0x1AF4 JUMPI PUSH2 0x1AF3 PUSH2 0x14EC JUMP JUMPDEST JUMPDEST PUSH0 PUSH2 0x1B01 DUP5 DUP3 DUP6 ADD PUSH2 0x1ACB JUMP JUMPDEST SWAP2 POP POP SWAP3 SWAP2 POP POP JUMP JUMPDEST PUSH2 0x1B13 DUP2 PUSH2 0x1696 JUMP JUMPDEST DUP2 EQ PUSH2 0x1B1D JUMPI PUSH0 PUSH0 REVERT JUMPDEST POP JUMP JUMPDEST PUSH0 DUP2 CALLDATALOAD SWAP1 POP PUSH2 0x1B2E DUP2 PUSH2 0x1B0A JUMP JUMPDEST SWAP3 SWAP2 POP POP JUMP JUMPDEST PUSH0 PUSH1 0x20 DUP3 DUP5 SUB SLT ISZERO PUSH2 0x1B49 JUMPI PUSH2 0x1B48 PUSH2 0x14EC JUMP JUMPDEST JUMPDEST PUSH0 PUSH2 0x1B56 DUP5 DUP3 DUP6 ADD PUSH2 0x1B20 JUMP JUMPDEST SWAP2 POP POP SWAP3 SWAP2 POP POP JUMP JUMPDEST PUSH0 DUP3 DUP3 MSTORE PUSH1 0x20 DUP3 ADD SWAP1 POP SWAP3 SWAP2 POP POP JUMP JUMPDEST PUSH0 PUSH2 0x1B79 DUP3 PUSH2 0x17BE JUMP JUMPDEST PUSH2 0x1B83 DUP2 DUP6 PUSH2 0x1B5F JUMP JUMPDEST SWAP4 POP PUSH2 0x1B93 DUP2 DUP6 PUSH1 0x20 DUP7 ADD PUSH2 0x17D8 JUMP JUMPDEST PUSH2 0x1B9C DUP2 PUSH2 0x14FC JUMP JUMPDEST DUP5 ADD SWAP2 POP POP SWAP3 SWAP2 POP POP JUMP JUMPDEST PUSH0 PUSH1 0x20 DUP3 ADD SWAP1 POP DUP2 DUP2 SUB PUSH0 DUP4 ADD MSTORE PUSH2 0x1BBF DUP2 DUP5 PUSH2 0x1B6F JUMP JUMPDEST SWAP1 POP SWAP3 SWAP2 POP POP JUMP JUMPDEST PUSH0 DUP2 MLOAD SWAP1 POP PUSH2 0x1BD5 DUP2 PUSH2 0x1B0A JUMP JUMPDEST SWAP3 SWAP2 POP POP JUMP JUMPDEST PUSH0 PUSH1 0x20 DUP3 DUP5 SUB SLT ISZERO PUSH2 0x1BF0 JUMPI PUSH2 0x1BEF PUSH2 0x14EC JUMP JUMPDEST JUMPDEST PUSH0 PUSH2 0x1BFD DUP5 DUP3 DUP6 ADD PUSH2 0x1BC7 JUMP JUMPDEST SWAP2 POP POP SWAP3 SWAP2 POP POP JUMP JUMPDEST PUSH32 0x6D73672E73656E646572206973206E6F742065746620666163746F7279000000 PUSH0 DUP3 ADD MSTORE POP JUMP JUMPDEST PUSH0 PUSH2 0x1C3A PUSH1 0x1D DUP4 PUSH2 0x1B5F JUMP JUMPDEST SWAP2 POP PUSH2 0x1C45 DUP3 PUSH2 0x1C06 JUMP JUMPDEST PUSH1 0x20 DUP3 ADD SWAP1 POP SWAP2 SWAP1 POP JUMP JUMPDEST PUSH0 PUSH1 0x20 DUP3 ADD SWAP1 POP DUP2 DUP2 SUB PUSH0 DUP4 ADD MSTORE PUSH2 0x1C67 DUP2 PUSH2 0x1C2E JUMP JUMPDEST SWAP1 POP SWAP2 SWAP1 POP JUMP JUMPDEST PUSH32 0x436F6E7472616374206973206E6F742061637469766500000000000000000000 PUSH0 DUP3 ADD MSTORE POP JUMP JUMPDEST PUSH0 PUSH2 0x1CA2 PUSH1 0x16 DUP4 PUSH2 0x1B5F JUMP JUMPDEST SWAP2 POP PUSH2 0x1CAD DUP3 PUSH2 0x1C6E JUMP JUMPDEST PUSH1 0x20 DUP3 ADD SWAP1 POP SWAP2 SWAP1 POP JUMP JUMPDEST PUSH0 PUSH1 0x20 DUP3 ADD SWAP1 POP DUP2 DUP2 SUB PUSH0 DUP4 ADD MSTORE PUSH2 0x1CCF DUP2 PUSH2 0x1C96 JUMP JUMPDEST SWAP1 POP SWAP2 SWAP1 POP JUMP JUMPDEST PUSH0 PUSH0 REVERT JUMPDEST PUSH0 PUSH0 REVERT JUMPDEST PUSH0 PUSH0 REVERT JUMPDEST PUSH0 PUSH0 DUP4 CALLDATALOAD PUSH1 0x1 PUSH1 0x20 SUB DUP5 CALLDATASIZE SUB SUB DUP2 SLT PUSH2 0x1CFE JUMPI PUSH2 0x1CFD PUSH2 0x1CD6 JUMP JUMPDEST JUMPDEST DUP1 DUP5 ADD SWAP3 POP DUP3 CALLDATALOAD SWAP2 POP PUSH8 0xFFFFFFFFFFFFFFFF DUP3 GT ISZERO PUSH2 0x1D20 JUMPI PUSH2 0x1D1F PUSH2 0x1CDA JUMP JUMPDEST JUMPDEST PUSH1 0x20 DUP4 ADD SWAP3 POP PUSH1 0x1 DUP3 MUL CALLDATASIZE SUB DUP4 SGT ISZERO PUSH2 0x1D3C JUMPI PUSH2 0x1D3B PUSH2 0x1CDE JUMP JUMPDEST JUMPDEST POP SWAP3 POP SWAP3 SWAP1 POP JUMP JUMPDEST PUSH0 PUSH0 DUP4 CALLDATALOAD PUSH1 0x1 PUSH1 0x20 SUB DUP5 CALLDATASIZE SUB SUB DUP2 SLT PUSH2 0x1D60 JUMPI PUSH2 0x1D5F PUSH2 0x1CD6 JUMP JUMPDEST JUMPDEST DUP1 DUP5 ADD SWAP3 POP DUP3 CALLDATALOAD SWAP2 POP PUSH8 0xFFFFFFFFFFFFFFFF DUP3 GT ISZERO PUSH2 0x1D82 JUMPI PUSH2 0x1D81 PUSH2 0x1CDA JUMP JUMPDEST JUMPDEST PUSH1 0x20 DUP4 ADD SWAP3 POP PUSH1 0x40 DUP3 MUL CALLDATASIZE SUB DUP4 SGT ISZERO PUSH2 0x1D9E JUMPI PUSH2 0x1D9D PUSH2 0x1CDE JUMP JUMPDEST JUMPDEST POP SWAP3 POP SWAP3 SWAP1 POP JUMP JUMPDEST PUSH32 0x4E487B7100000000000000000000000000000000000000000000000000000000 PUSH0 MSTORE PUSH0 PUSH1 0x4 MSTORE PUSH1 0x24 PUSH0 REVERT JUMPDEST PUSH0 DUP3 SWAP1 POP SWAP3 SWAP2 POP POP JUMP JUMPDEST PUSH32 0x4E487B7100000000000000000000000000000000000000000000000000000000 PUSH0 MSTORE PUSH1 0x22 PUSH1 0x4 MSTORE PUSH1 0x24 PUSH0 REVERT JUMPDEST PUSH0 PUSH1 0x2 DUP3 DIV SWAP1 POP PUSH1 0x1 DUP3 AND DUP1 PUSH2 0x1E20 JUMPI PUSH1 0x7F DUP3 AND SWAP2 POP JUMPDEST PUSH1 0x20 DUP3 LT DUP2 SUB PUSH2 0x1E33 JUMPI PUSH2 0x1E32 PUSH2 0x1DDC JUMP JUMPDEST JUMPDEST POP SWAP2 SWAP1 POP JUMP JUMPDEST PUSH0 DUP2 SWAP1 POP DUP2 PUSH0 MSTORE PUSH1 0x20 PUSH0 KECCAK256 SWAP1 POP SWAP2 SWAP1 POP JUMP JUMPDEST PUSH0 PUSH1 0x20 PUSH1 0x1F DUP4 ADD DIV SWAP1 POP SWAP2 SWAP1 POP JUMP JUMPDEST PUSH0 DUP3 DUP3 SHL SWAP1 POP SWAP3 SWAP2 POP POP JUMP JUMPDEST PUSH0 PUSH1 0x8 DUP4 MUL PUSH2 0x1E95 PUSH32 0xFFFFFFFFFFFFFFFFFFFFFFFFFFFFFFFFFFFFFFFFFFFFFFFFFFFFFFFFFFFFFFFF DUP3 PUSH2 0x1E5A JUMP JUMPDEST PUSH2 0x1E9F DUP7 DUP4 PUSH2 0x1E5A JUMP JUMPDEST SWAP6 POP DUP1 NOT DUP5 AND SWAP4 POP DUP1 DUP7 AND DUP5 OR SWAP3 POP POP POP SWAP4 SWAP3 POP POP POP JUMP JUMPDEST PUSH0 PUSH2 0x1ED1 PUSH2 0x1ECC PUSH2 0x1EC7 DUP5 PUSH2 0x16CF JUMP JUMPDEST PUSH2 0x1999 JUMP JUMPDEST PUSH2 0x16CF JUMP JUMPDEST SWAP1 POP SWAP2 SWAP1 POP JUMP JUMPDEST PUSH0 DUP2 SWAP1 POP SWAP2 SWAP1 POP JUMP JUMPDEST PUSH2 0x1EEA DUP4 PUSH2 0x1EB7 JUMP JUMPDEST PUSH2 0x1EFE PUSH2 0x1EF6 DUP3 PUSH2 0x1ED8 JUMP JUMPDEST DUP5 DUP5 SLOAD PUSH2 0x1E66 JUMP JUMPDEST DUP3 SSTORE POP POP POP POP JUMP JUMPDEST PUSH0 PUSH0 SWAP1 POP SWAP1 JUMP JUMPDEST PUSH2 0x1F15 PUSH2 0x1F06 JUMP JUMPDEST PUSH2 0x1F20 DUP2 DUP5 DUP5 PUSH2 0x1EE1 JUMP JUMPDEST POP POP POP JUMP JUMPDEST JUMPDEST DUP2 DUP2 LT ISZERO PUSH2 0x1F43 JUMPI PUSH2 0x1F38 PUSH0 DUP3 PUSH2 0x1F0D JUMP JUMPDEST PUSH1 0x1 DUP2 ADD SWAP1 POP PUSH2 0x1F26 JUMP JUMPDEST POP POP JUMP JUMPDEST PUSH1 0x1F DUP3 GT ISZERO PUSH2 0x1F88 JUMPI PUSH2 0x1F59 DUP2 PUSH2 0x1E39 JUMP JUMPDEST PUSH2 0x1F62 DUP5 PUSH2 0x1E4B JUMP JUMPDEST DUP2 ADD PUSH1 0x20 DUP6 LT ISZERO PUSH2 0x1F71 JUMPI DUP2 SWAP1 POP JUMPDEST PUSH2 0x1F85 PUSH2 0x1F7D DUP6 PUSH2 0x1E4B JUMP JUMPDEST DUP4 ADD DUP3 PUSH2 0x1F25 JUMP JUMPDEST POP POP JUMPDEST POP POP POP JUMP JUMPDEST PUSH0 DUP3 DUP3 SHR SWAP1 POP SWAP3 SWAP2 POP POP JUMP JUMPDEST PUSH0 PUSH2 0x1FA8 PUSH0 NOT DUP5 PUSH1 0x8 MUL PUSH2 0x1F8D JUMP JUMPDEST NOT DUP1 DUP4 AND SWAP2 POP POP SWAP3 SWAP2 POP POP JUMP JUMPDEST PUSH0 PUSH2 0x1FC0 DUP4 DUP4 PUSH2 0x1F99 JUMP JUMPDEST SWAP2 POP DUP3 PUSH1 0x2 MUL DUP3 OR SWAP1 POP SWAP3 SWAP2 POP POP JUMP JUMPDEST PUSH2 0x1FDA DUP4 DUP4 PUSH2 0x1DD2 JUMP JUMPDEST PUSH8 0xFFFFFFFFFFFFFFFF DUP2 GT ISZERO PUSH2 0x1FF3 JUMPI PUSH2 0x1FF2 PUSH2 0x150C JUMP JUMPDEST JUMPDEST PUSH2 0x1FFD DUP3 SLOAD PUSH2 0x1E09 JUMP JUMPDEST PUSH2 0x2008 DUP3 DUP3 DUP6 PUSH2 0x1F47 JUMP JUMPDEST PUSH0 PUSH1 0x1F DUP4 GT PUSH1 0x1 DUP2 EQ PUSH2 0x2035 JUMPI PUSH0 DUP5 ISZERO PUSH2 0x2023 JUMPI DUP3 DUP8 ADD CALLDATALOAD SWAP1 POP JUMPDEST PUSH2 0x202D DUP6 DUP3 PUSH2 0x1FB5 JUMP JUMPDEST DUP7 SSTORE POP PUSH2 0x2094 JUMP JUMPDEST PUSH1 0x1F NOT DUP5 AND PUSH2 0x2043 DUP7 PUSH2 0x1E39 JUMP JUMPDEST PUSH0 JUMPDEST DUP3 DUP2 LT ISZERO PUSH2 0x206A JUMPI DUP5 DUP10 ADD CALLDATALOAD DUP3 SSTORE PUSH1 0x1 DUP3 ADD SWAP2 POP PUSH1 0x20 DUP6 ADD SWAP5 POP PUSH1 0x20 DUP2 ADD SWAP1 POP PUSH2 0x2045 JUMP JUMPDEST DUP7 DUP4 LT ISZERO PUSH2 0x2087 JUMPI DUP5 DUP10 ADD CALLDATALOAD PUSH2 0x2083 PUSH1 0x1F DUP10 AND DUP3 PUSH2 0x1F99 JUMP JUMPDEST DUP4 SSTORE POP JUMPDEST PUSH1 0x1 PUSH1 0x2 DUP9 MUL ADD DUP9 SSTORE POP POP POP JUMPDEST POP POP POP POP POP POP POP JUMP JUMPDEST PUSH2 0x20A8 DUP4 DUP4 DUP4 PUSH2 0x1FD0 JUMP JUMPDEST POP POP POP JUMP JUMPDEST PUSH0 DUP2 SWAP1 POP SWAP2 SWAP1 POP JUMP JUMPDEST PUSH0 DUP2 SLOAD SWAP1 POP SWAP2 SWAP1 POP JUMP JUMPDEST PUSH32 0x4E487B7100000000000000000000000000000000000000000000000000000000 PUSH0 MSTORE PUSH1 0x11 PUSH1 0x4 MSTORE PUSH1 0x24 PUSH0 REVERT JUMPDEST PUSH0 DUP2 SWAP1 POP PUSH1 0x1 DUP1 PUSH1 0x1 SUB DUP4 ADD DIV SWAP1 POP SWAP2 SWAP1 POP JUMP JUMPDEST PUSH0 DUP2 SWAP1 POP DUP2 PUSH0 MSTORE PUSH1 0x20 PUSH0 KECCAK256 SWAP1 POP SWAP2 SWAP1 POP JUMP JUMPDEST PUSH0 PUSH0 DUP3 ADD SSTORE POP JUMP JUMPDEST PUSH0 DUP3 EQ PUSH2 0x212B JUMPI PUSH2 0x212A PUSH2 0x1DA6 JUMP JUMPDEST JUMPDEST PUSH2 0x2134 DUP2 PUSH2 0x2113 JUMP JUMPDEST POP POP JUMP JUMPDEST JUMPDEST DUP2 DUP2 LT ISZERO PUSH2 0x2156 JUMPI PUSH2 0x214B PUSH0 DUP3 PUSH2 0x211B JUMP JUMPDEST PUSH1 0x1 DUP2 ADD SWAP1 POP PUSH2 0x2139 JUMP JUMPDEST POP POP JUMP JUMPDEST DUP2 DUP4 LT ISZERO PUSH2 0x2193 JUMPI PUSH2 0x216B DUP3 PUSH2 0x20ED JUMP JUMPDEST PUSH2 0x2174 DUP5 PUSH2 0x20ED JUMP JUMPDEST PUSH2 0x217D DUP4 PUSH2 0x2101 JUMP JUMPDEST DUP2 DUP2 ADD DUP4 DUP3 ADD PUSH2 0x218D DUP2 DUP4 PUSH2 0x2138 JUMP JUMPDEST POP POP POP POP POP JUMPDEST POP POP POP JUMP JUMPDEST PUSH9 0x10000000000000000 DUP3 GT ISZERO PUSH2 0x21B2 JUMPI PUSH2 0x21B1 PUSH2 0x150C JUMP JUMPDEST JUMPDEST PUSH2 0x21BB DUP2 PUSH2 0x20B6 JUMP JUMPDEST DUP3 DUP3 SSTORE PUSH2 0x21C9 DUP4 DUP3 DUP5 PUSH2 0x215A JUMP JUMPDEST POP POP POP JUMP JUMPDEST PUSH0 DUP3 SWAP1 POP SWAP3 SWAP2 POP POP JUMP JUMPDEST PUSH0 DUP2 CALLDATALOAD PUSH2 0x21E4 DUP2 PUSH2 0x1B0A JUMP JUMPDEST DUP1 SWAP2 POP POP SWAP2 SWAP1 POP JUMP JUMPDEST PUSH0 DUP2 PUSH0 SHL SWAP1 POP SWAP2 SWAP1 POP JUMP JUMPDEST PUSH0 PUSH20 0xFFFFFFFFFFFFFFFFFFFFFFFFFFFFFFFFFFFFFFFF PUSH2 0x2217 DUP5 PUSH2 0x21ED JUMP JUMPDEST SWAP4 POP DUP1 NOT DUP4 AND SWAP3 POP DUP1 DUP5 AND DUP4 OR SWAP2 POP POP SWAP3 SWAP2 POP POP JUMP JUMPDEST PUSH0 PUSH2 0x2237 DUP3 PUSH2 0x19C3 JUMP JUMPDEST SWAP1 POP SWAP2 SWAP1 POP JUMP JUMPDEST PUSH0 DUP2 SWAP1 POP SWAP2 SWAP1 POP JUMP JUMPDEST PUSH2 0x2250 DUP3 PUSH2 0x222D JUMP JUMPDEST PUSH2 0x2263 PUSH2 0x225C DUP3 PUSH2 0x223E JUMP JUMPDEST DUP4 SLOAD PUSH2 0x21F8 JUMP JUMPDEST DUP3 SSTORE POP POP POP JUMP JUMPDEST PUSH2 0x2273 DUP2 PUSH2 0x1856 JUMP JUMPDEST DUP2 EQ PUSH2 0x227D JUMPI PUSH0 PUSH0 REVERT JUMPDEST POP JUMP JUMPDEST PUSH0 DUP2 CALLDATALOAD PUSH2 0x228C DUP2 PUSH2 0x226A JUMP JUMPDEST DUP1 SWAP2 POP POP SWAP2 SWAP1 POP JUMP JUMPDEST PUSH0 DUP2 PUSH1 0xA0 SHL SWAP1 POP SWAP2 SWAP1 POP JUMP JUMPDEST PUSH0 PUSH22 0xFFFF0000000000000000000000000000000000000000 PUSH2 0x22C2 DUP5 PUSH2 0x2295 JUMP JUMPDEST SWAP4 POP DUP1 NOT DUP4 AND SWAP3 POP DUP1 DUP5 AND DUP4 OR SWAP2 POP POP SWAP3 SWAP2 POP POP JUMP JUMPDEST PUSH0 PUSH2 0x22F2 PUSH2 0x22ED PUSH2 0x22E8 DUP5 PUSH2 0x1856 JUMP JUMPDEST PUSH2 0x1999 JUMP JUMPDEST PUSH2 0x1856 JUMP JUMPDEST SWAP1 POP SWAP2 SWAP1 POP JUMP JUMPDEST PUSH0 DUP2 SWAP1 POP SWAP2 SWAP1 POP JUMP JUMPDEST PUSH2 0x230B DUP3 PUSH2 0x22D8 JUMP JUMPDEST PUSH2 0x231E PUSH2 0x2317 DUP3 PUSH2 0x22F9 JUMP JUMPDEST DUP4 SLOAD PUSH2 0x22A1 JUMP JUMPDEST DUP3 SSTORE POP POP POP JUMP JUMPDEST PUSH0 DUP2 ADD PUSH0 DUP4 ADD DUP1 PUSH2 0x2335 DUP2 PUSH2 0x21D8 JUMP JUMPDEST SWAP1 POP PUSH2 0x2341 DUP2 DUP5 PUSH2 0x2247 JUMP JUMPDEST POP POP POP PUSH0 DUP2 ADD PUSH1 0x20 DUP4 ADD DUP1 PUSH2 0x2355 DUP2 PUSH2 0x2280 JUMP JUMPDEST SWAP1 POP PUSH2 0x2361 DUP2 DUP5 PUSH2 0x2302 JUMP JUMPDEST POP POP POP POP POP JUMP JUMPDEST PUSH2 0x2372 DUP3 DUP3 PUSH2 0x2325 JUMP JUMPDEST POP POP JUMP JUMPDEST PUSH2 0x2380 DUP4 DUP4 PUSH2 0x21CE JUMP JUMPDEST PUSH2 0x238A DUP2 DUP4 PUSH2 0x2198 JUMP JUMPDEST PUSH2 0x2393 DUP4 PUSH2 0x20AD JUMP JUMPDEST PUSH2 0x239C DUP4 PUSH2 0x2101 JUMP JUMPDEST PUSH0 JUMPDEST DUP4 DUP2 LT ISZERO PUSH2 0x23C9 JUMPI DUP3 PUSH2 0x23B1 DUP2 DUP5 PUSH2 0x2368 JUMP JUMPDEST PUSH1 0x40 DUP5 ADD SWAP4 POP PUSH1 0x1 DUP4 ADD SWAP3 POP POP PUSH1 0x1 DUP2 ADD SWAP1 POP PUSH2 0x239E JUMP JUMPDEST POP POP POP POP POP POP POP JUMP JUMPDEST PUSH2 0x23DD DUP4 DUP4 DUP4 PUSH2 0x2376 JUMP JUMPDEST POP POP POP JUMP JUMPDEST PUSH0 DUP2 ADD PUSH0 DUP4 ADD PUSH2 0x23F2 DUP2 DUP6 PUSH2 0x1CE2 JUMP JUMPDEST PUSH2 0x23FD DUP2 DUP4 DUP7 PUSH2 0x209D JUMP JUMPDEST POP POP POP POP PUSH1 0x1 DUP2 ADD PUSH1 0x20 DUP4 ADD PUSH2 0x2413 DUP2 DUP6 PUSH2 0x1CE2 JUMP JUMPDEST PUSH2 0x241E DUP2 DUP4 DUP7 PUSH2 0x209D JUMP JUMPDEST POP POP POP POP PUSH1 0x2 DUP2 ADD PUSH1 0x40 DUP4 ADD PUSH2 0x2434 DUP2 DUP6 PUSH2 0x1D44 JUMP JUMPDEST PUSH2 0x243F DUP2 DUP4 DUP7 PUSH2 0x23D2 JUMP JUMPDEST POP POP POP POP POP POP JUMP JUMPDEST PUSH2 0x2451 DUP3 DUP3 PUSH2 0x23E2 JUMP JUMPDEST POP POP JUMP JUMPDEST PUSH32 0x4E487B7100000000000000000000000000000000000000000000000000000000 PUSH0 MSTORE PUSH1 0x32 PUSH1 0x4 MSTORE PUSH1 0x24 PUSH0 REVERT JUMPDEST PUSH32 0x43616C6C6572206973206E6F7420746865206F776E6572000000000000000000 PUSH0 DUP3 ADD MSTORE POP JUMP JUMPDEST PUSH0 PUSH2 0x24B6 PUSH1 0x17 DUP4 PUSH2 0x1B5F JUMP JUMPDEST SWAP2 POP PUSH2 0x24C1 DUP3 PUSH2 0x2482 JUMP JUMPDEST PUSH1 0x20 DUP3 ADD SWAP1 POP SWAP2 SWAP1 POP JUMP JUMPDEST PUSH0 PUSH1 0x20 DUP3 ADD SWAP1 POP DUP2 DUP2 SUB PUSH0 DUP4 ADD MSTORE PUSH2 0x24E3 DUP2 PUSH2 0x24AA JUMP JUMPDEST SWAP1 POP SWAP2 SWAP1 POP JUMP JUMPDEST PUSH0 DUP2 CALLDATALOAD SWAP1 POP PUSH2 0x24F8 DUP2 PUSH2 0x226A JUMP JUMPDEST SWAP3 SWAP2 POP POP JUMP JUMPDEST PUSH0 PUSH1 0x20 DUP3 DUP5 SUB SLT ISZERO PUSH2 0x2513 JUMPI PUSH2 0x2512 PUSH2 0x14EC JUMP JUMPDEST JUMPDEST PUSH0 PUSH2 0x2520 DUP5 DUP3 DUP6 ADD PUSH2 0x24EA JUMP JUMPDEST SWAP2 POP POP SWAP3 SWAP2 POP POP JUMP JUMPDEST PUSH0 PUSH0 REVERT JUMPDEST PUSH0 PUSH1 0x40 DUP3 DUP5 SUB SLT ISZERO PUSH2 0x2542 JUMPI PUSH2 0x2541 PUSH2 0x2529 JUMP JUMPDEST JUMPDEST PUSH2 0x254C PUSH1 0x40 PUSH2 0x156A JUMP JUMPDEST SWAP1 POP PUSH0 PUSH2 0x255B DUP5 DUP3 DUP6 ADD PUSH2 0x1B20 JUMP JUMPDEST PUSH0 DUP4 ADD MSTORE POP PUSH1 0x20 PUSH2 0x256E DUP5 DUP3 DUP6 ADD PUSH2 0x24EA JUMP JUMPDEST PUSH1 0x20 DUP4 ADD MSTORE POP SWAP3 SWAP2 POP POP JUMP JUMPDEST PUSH0 PUSH1 0x40 DUP3 DUP5 SUB SLT ISZERO PUSH2 0x258F JUMPI PUSH2 0x258E PUSH2 0x14EC JUMP JUMPDEST JUMPDEST PUSH0 PUSH2 0x259C DUP5 DUP3 DUP6 ADD PUSH2 0x252D JUMP JUMPDEST SWAP2 POP POP SWAP3 SWAP2 POP POP JUMP JUMPDEST PUSH0 PUSH2 0x25AF DUP3 PUSH2 0x16CF JUMP JUMPDEST SWAP2 POP PUSH2 0x25BA DUP4 PUSH2 0x16CF JUMP JUMPDEST SWAP3 POP DUP3 DUP3 SUB SWAP1 POP DUP2 DUP2 GT ISZERO PUSH2 0x25D2 JUMPI PUSH2 0x25D1 PUSH2 0x20C0 JUMP JUMPDEST JUMPDEST SWAP3 SWAP2 POP POP JUMP JUMPDEST PUSH0 PUSH2 0x25E2 DUP3 PUSH2 0x16CF JUMP JUMPDEST SWAP2 POP PUSH2 0x25ED DUP4 PUSH2 0x16CF JUMP JUMPDEST SWAP3 POP DUP3 DUP3 ADD SWAP1 POP DUP1 DUP3 GT ISZERO PUSH2 0x2605 JUMPI PUSH2 0x2604 PUSH2 0x20C0 JUMP JUMPDEST JUMPDEST SWAP3 SWAP2 POP POP JUMP JUMPDEST PUSH0 DUP2 SWAP1 POP SWAP3 SWAP2 POP POP JUMP JUMPDEST PUSH0 PUSH2 0x2620 DUP4 DUP6 PUSH2 0x260B JUMP JUMPDEST SWAP4 POP PUSH2 0x262D DUP4 DUP6 DUP5 PUSH2 0x15B4 JUMP JUMPDEST DUP3 DUP5 ADD SWAP1 POP SWAP4 SWAP3 POP POP POP JUMP JUMPDEST PUSH0 PUSH2 0x2645 DUP3 DUP5 DUP7 PUSH2 0x2615 JUMP JUMPDEST SWAP2 POP DUP2 SWAP1 POP SWAP4 SWAP3 POP POP POP JUMP JUMPDEST PUSH32 0x4469726563746F72792063616E6E6F74206265207A65726F2061646472657373 PUSH0 DUP3 ADD MSTORE POP JUMP JUMPDEST PUSH0 PUSH2 0x2685 PUSH1 0x20 DUP4 PUSH2 0x1B5F JUMP JUMPDEST SWAP2 POP PUSH2 0x2690 DUP3 PUSH2 0x2651 JUMP JUMPDEST PUSH1 0x20 DUP3 ADD SWAP1 POP SWAP2 SWAP1 POP JUMP JUMPDEST PUSH0 PUSH1 0x20 DUP3 ADD SWAP1 POP DUP2 DUP2 SUB PUSH0 DUP4 ADD MSTORE PUSH2 0x26B2 DUP2 PUSH2 0x2679 JUMP JUMPDEST SWAP1 POP SWAP2 SWAP1 POP JUMP JUMPDEST PUSH32 0x4469726563746F7279206D757374206265206120636F6E747261637400000000 PUSH0 DUP3 ADD MSTORE POP JUMP JUMPDEST PUSH0 PUSH2 0x26ED PUSH1 0x1C DUP4 PUSH2 0x1B5F JUMP JUMPDEST SWAP2 POP PUSH2 0x26F8 DUP3 PUSH2 0x26B9 JUMP JUMPDEST PUSH1 0x20 DUP3 ADD SWAP1 POP SWAP2 SWAP1 POP JUMP JUMPDEST PUSH0 PUSH1 0x20 DUP3 ADD SWAP1 POP DUP2 DUP2 SUB PUSH0 DUP4 ADD MSTORE PUSH2 0x271A DUP2 PUSH2 0x26E1 JUMP JUMPDEST SWAP1 POP SWAP2 SWAP1 POP JUMP JUMPDEST PUSH32 0x4469726563746F7279206164647265737320646F6573206E6F7420696D706C65 PUSH0 DUP3 ADD MSTORE PUSH32 0x6D656E74206F776E657228290000000000000000000000000000000000000000 PUSH1 0x20 DUP3 ADD MSTORE POP JUMP JUMPDEST PUSH0 PUSH2 0x277B PUSH1 0x2C DUP4 PUSH2 0x1B5F JUMP JUMPDEST SWAP2 POP PUSH2 0x2786 DUP3 PUSH2 0x2721 JUMP JUMPDEST PUSH1 0x40 DUP3 ADD SWAP1 POP SWAP2 SWAP1 POP JUMP JUMPDEST PUSH0 PUSH1 0x20 DUP3 ADD SWAP1 POP DUP2 DUP2 SUB PUSH0 DUP4 ADD MSTORE PUSH2 0x27A8 DUP2 PUSH2 0x276F JUMP JUMPDEST SWAP1 POP SWAP2 SWAP1 POP JUMP JUMPDEST PUSH0 DUP3 DUP3 MSTORE PUSH1 0x20 DUP3 ADD SWAP1 POP SWAP3 SWAP2 POP POP JUMP JUMPDEST PUSH0 PUSH2 0x27C9 DUP3 PUSH2 0x181E JUMP JUMPDEST PUSH2 0x27D3 DUP2 DUP6 PUSH2 0x27AF JUMP JUMPDEST SWAP4 POP PUSH2 0x27DE DUP4 PUSH2 0x1838 JUMP JUMPDEST DUP1 PUSH0 JUMPDEST DUP4 DUP2 LT ISZERO PUSH2 0x280E JUMPI DUP2 MLOAD PUSH2 0x27F5 DUP9 DUP3 PUSH2 0x189F JUMP JUMPDEST SWAP8 POP PUSH2 0x2800 DUP4 PUSH2 0x18B6 JUMP JUMPDEST SWAP3 POP POP PUSH1 0x1 DUP2 ADD SWAP1 POP PUSH2 0x27E1 JUMP JUMPDEST POP DUP6 SWAP4 POP POP POP POP SWAP3 SWAP2 POP POP JUMP JUMPDEST PUSH0 PUSH1 0x20 DUP3 ADD SWAP1 POP DUP2 DUP2 SUB PUSH0 DUP4 ADD MSTORE PUSH2 0x2833 DUP2 DUP5 PUSH2 0x27BF JUMP JUMPDEST SWAP1 POP SWAP3 SWAP2 POP POP JUMP INVALID LOG2 PUSH5 0x6970667358 0x22 SLT KECCAK256 RJUMP 0xE13E PUSH2 0x5774 JUMPF 0xFC61 EXTDELEGATECALL GASLIMIT ADD GAS 0xB7 DUP8 DUP7 0xC8 DUP5 0xE9 0x4C 0xC 0x2D 0xB9 RJUMP 0x93B1 0x2E EXTCODEHASH SWAPN 0xB0 RETF SWAP15 PUSH5 0x736F6C6343 STOP ADDMOD 0x1E STOP CALLER "
				},
				"gasEstimates": {
					"creation": {
						"codeDepositCost": "2070600",
						"executionCost": "infinite",
						"totalCost": "infinite"
					},
					"external": {
						"Directory()": "infinite",
						"changeDirectoryAddress(address)": "infinite",
						"createIndex((string,string,(address,uint16)[]))": "infinite",
						"fetchFromDirectory(string)": "infinite",
						"getIndexById(uint256)": "infinite",
						"getIndexByTicker(string)": "infinite",
						"isActive()": "2518",
						"owner()": "infinite",
						"setActive(bool)": "infinite",
						"totalIndexes()": "2484"
					}
				},
				"methodIdentifiers": {
					"Directory()": "658a847a",
					"changeDirectoryAddress(address)": "ba4c7be1",
					"createIndex((string,string,(address,uint16)[]))": "428d9a93",
					"fetchFromDirectory(string)": "27262618",
					"getIndexById(uint256)": "549e122b",
					"getIndexByTicker(string)": "ab73314d",
					"isActive()": "22f3e2d4",
					"owner()": "8da5cb5b",
					"setActive(bool)": "acec338a",
					"totalIndexes()": "2ff910ce"
				}
			},
			"storageLayout": {
				"storage": [
					{
						"astId": 293,
						"contract": "hopium/etf/main/index-factory.sol:IndexFactory",
						"label": "createdIndexes",
						"offset": 0,
						"slot": "0",
						"type": "t_array(t_struct(Index)821_storage)dyn_storage"
					},
					{
						"astId": 297,
						"contract": "hopium/etf/main/index-factory.sol:IndexFactory",
						"label": "indexTickerHashToId",
						"offset": 0,
						"slot": "1",
						"type": "t_mapping(t_bytes32,t_uint256)"
					},
					{
						"astId": 301,
						"contract": "hopium/etf/main/index-factory.sol:IndexFactory",
						"label": "indexHashToId",
						"offset": 0,
						"slot": "2",
						"type": "t_mapping(t_bytes32,t_uint256)"
					},
					{
						"astId": 48,
						"contract": "hopium/etf/main/index-factory.sol:IndexFactory",
						"label": "Directory",
						"offset": 0,
						"slot": "3",
						"type": "t_contract(IDirectory)45"
					},
					{
						"astId": 7,
						"contract": "hopium/etf/main/index-factory.sol:IndexFactory",
						"label": "isActive",
						"offset": 20,
						"slot": "3",
						"type": "t_bool"
					}
				],
				"types": {
					"t_address": {
						"encoding": "inplace",
						"label": "address",
						"numberOfBytes": "20"
					},
					"t_array(t_struct(Holding)812_storage)dyn_storage": {
						"base": "t_struct(Holding)812_storage",
						"encoding": "dynamic_array",
						"label": "struct Holding[]",
						"numberOfBytes": "32"
					},
					"t_array(t_struct(Index)821_storage)dyn_storage": {
						"base": "t_struct(Index)821_storage",
						"encoding": "dynamic_array",
						"label": "struct Index[]",
						"numberOfBytes": "32"
					},
					"t_bool": {
						"encoding": "inplace",
						"label": "bool",
						"numberOfBytes": "1"
					},
					"t_bytes32": {
						"encoding": "inplace",
						"label": "bytes32",
						"numberOfBytes": "32"
					},
					"t_contract(IDirectory)45": {
						"encoding": "inplace",
						"label": "contract IDirectory",
						"numberOfBytes": "20"
					},
					"t_mapping(t_bytes32,t_uint256)": {
						"encoding": "mapping",
						"key": "t_bytes32",
						"label": "mapping(bytes32 => uint256)",
						"numberOfBytes": "32",
						"value": "t_uint256"
					},
					"t_string_storage": {
						"encoding": "bytes",
						"label": "string",
						"numberOfBytes": "32"
					},
					"t_struct(Holding)812_storage": {
						"encoding": "inplace",
						"label": "struct Holding",
						"members": [
							{
								"astId": 809,
								"contract": "hopium/etf/main/index-factory.sol:IndexFactory",
								"label": "tokenAddress",
								"offset": 0,
								"slot": "0",
								"type": "t_address"
							},
							{
								"astId": 811,
								"contract": "hopium/etf/main/index-factory.sol:IndexFactory",
								"label": "weightBips",
								"offset": 20,
								"slot": "0",
								"type": "t_uint16"
							}
						],
						"numberOfBytes": "32"
					},
					"t_struct(Index)821_storage": {
						"encoding": "inplace",
						"label": "struct Index",
						"members": [
							{
								"astId": 814,
								"contract": "hopium/etf/main/index-factory.sol:IndexFactory",
								"label": "name",
								"offset": 0,
								"slot": "0",
								"type": "t_string_storage"
							},
							{
								"astId": 816,
								"contract": "hopium/etf/main/index-factory.sol:IndexFactory",
								"label": "ticker",
								"offset": 0,
								"slot": "1",
								"type": "t_string_storage"
							},
							{
								"astId": 820,
								"contract": "hopium/etf/main/index-factory.sol:IndexFactory",
								"label": "holdings",
								"offset": 0,
								"slot": "2",
								"type": "t_array(t_struct(Holding)812_storage)dyn_storage"
							}
						],
						"numberOfBytes": "96"
					},
					"t_uint16": {
						"encoding": "inplace",
						"label": "uint16",
						"numberOfBytes": "2"
					},
					"t_uint256": {
						"encoding": "inplace",
						"label": "uint256",
						"numberOfBytes": "32"
					}
				}
			},
			"userdoc": {
				"errors": {
					"EmptyTicker()": [
						{
							"notice": "Custom, low-gas errors (replace revert strings)"
						}
					]
				},
				"kind": "user",
				"methods": {},
				"notice": "Factory with gas-optimized validation & events",
				"version": 1
			}
		}
	}
}