{
	"hopium/etf/main/etf-token-events.sol": {
		"EtfTokenEvents": {
			"abi": [
				{
					"inputs": [
						{
							"internalType": "address",
							"name": "_directory",
							"type": "address"
						}
					],
					"stateMutability": "nonpayable",
					"type": "constructor"
				},
				{
					"anonymous": false,
					"inputs": [
						{
							"indexed": true,
							"internalType": "address",
							"name": "etfTokenAddress",
							"type": "address"
						},
						{
							"indexed": true,
							"internalType": "address",
							"name": "fromAddress",
							"type": "address"
						},
						{
							"indexed": true,
							"internalType": "address",
							"name": "toAddress",
							"type": "address"
						},
						{
							"indexed": false,
							"internalType": "uint256",
							"name": "transferAmount",
							"type": "uint256"
						},
						{
							"indexed": false,
							"internalType": "uint256",
							"name": "etfWethPrice",
							"type": "uint256"
						},
						{
							"indexed": false,
							"internalType": "uint256",
							"name": "etfUsdPrice",
							"type": "uint256"
						}
					],
					"name": "EtfTokenTransfer",
					"type": "event"
				},
				{
					"inputs": [],
					"name": "Directory",
					"outputs": [
						{
							"internalType": "contract IDirectory",
							"name": "",
							"type": "address"
						}
					],
					"stateMutability": "view",
					"type": "function"
				},
				{
					"inputs": [
						{
							"internalType": "address",
							"name": "_directory",
							"type": "address"
						}
					],
					"name": "changeDirectoryAddress",
					"outputs": [],
					"stateMutability": "nonpayable",
					"type": "function"
				},
				{
					"inputs": [
						{
							"internalType": "uint256",
							"name": "etfId",
							"type": "uint256"
						},
						{
							"internalType": "address",
							"name": "fromAddress",
							"type": "address"
						},
						{
							"internalType": "address",
							"name": "toAddress",
							"type": "address"
						},
						{
							"internalType": "uint256",
							"name": "transferAmount",
							"type": "uint256"
						}
					],
					"name": "emitTransferEvent",
					"outputs": [],
					"stateMutability": "nonpayable",
					"type": "function"
				},
				{
					"inputs": [
						{
							"internalType": "string",
							"name": "_key",
							"type": "string"
						}
					],
					"name": "fetchFromDirectory",
					"outputs": [
						{
							"internalType": "address",
							"name": "",
							"type": "address"
						}
					],
					"stateMutability": "view",
					"type": "function"
				},
				{
					"inputs": [],
					"name": "owner",
					"outputs": [
						{
							"internalType": "address",
							"name": "",
							"type": "address"
						}
					],
					"stateMutability": "view",
					"type": "function"
				}
			],
			"devdoc": {
				"kind": "dev",
				"methods": {},
				"version": 1
			},
			"evm": {
				"assembly": "    /* \"hopium/etf/main/etf-token-events.sol\":155:896  contract EtfTokenEvents is ImDirectory, ImEtfOracle {... */\n  mstore(0x40, 0x80)\n    /* \"hopium/etf/main/etf-token-events.sol\":453:511  constructor(address _directory) ImDirectory(_directory) {} */\n  callvalue\n  dup1\n  iszero\n  tag_1\n  jumpi\n  revert(0x00, 0x00)\ntag_1:\n  pop\n  mload(0x40)\n  sub(codesize, bytecodeSize)\n  dup1\n  bytecodeSize\n  dup4\n  codecopy\n  dup2\n  dup2\n  add\n  0x40\n  mstore\n  dup2\n  add\n  swap1\n  tag_2\n  swap2\n  swap1\n  tag_3\n  jump\t// in\ntag_2:\n    /* \"hopium/etf/main/etf-token-events.sol\":497:507  _directory */\n  dup1\n    /* \"hopium/common/interface/imDirectory.sol\":412:437  _setDirectory(_directory) */\n  tag_7\n    /* \"hopium/common/interface/imDirectory.sol\":426:436  _directory */\n  dup2\n    /* \"hopium/common/interface/imDirectory.sol\":412:425  _setDirectory */\n  shl(0x20, tag_8)\n    /* \"hopium/common/interface/imDirectory.sol\":412:437  _setDirectory(_directory) */\n  0x20\n  shr\n  jump\t// in\ntag_7:\n    /* \"hopium/common/interface/imDirectory.sol\":370:464  constructor(address _directory) {... */\n  pop\n    /* \"hopium/etf/main/etf-token-events.sol\":453:511  constructor(address _directory) ImDirectory(_directory) {} */\n  pop\n    /* \"hopium/etf/main/etf-token-events.sol\":155:896  contract EtfTokenEvents is ImDirectory, ImEtfOracle {... */\n  jump(tag_10)\n    /* \"hopium/common/interface/imDirectory.sol\":589:1050  function _setDirectory(address _directory) internal {... */\ntag_8:\n    /* \"hopium/common/interface/imDirectory.sol\":681:682  0 */\n  0x00\n    /* \"hopium/common/interface/imDirectory.sol\":659:683  _directory != address(0) */\n  0xffffffffffffffffffffffffffffffffffffffff\n  and\n    /* \"hopium/common/interface/imDirectory.sol\":659:669  _directory */\n  dup2\n    /* \"hopium/common/interface/imDirectory.sol\":659:683  _directory != address(0) */\n  0xffffffffffffffffffffffffffffffffffffffff\n  and\n  sub\n    /* \"hopium/common/interface/imDirectory.sol\":651:720  require(_directory != address(0), \"Directory cannot be zero address\") */\n  tag_12\n  jumpi\n  mload(0x40)\n  0x08c379a000000000000000000000000000000000000000000000000000000000\n  dup2\n  mstore\n  0x04\n  add\n  tag_13\n  swap1\n  tag_14\n  jump\t// in\ntag_13:\n  mload(0x40)\n  dup1\n  swap2\n  sub\n  swap1\n  revert\ntag_12:\n    /* \"hopium/common/interface/imDirectory.sol\":763:764  0 */\n  0x00\n    /* \"hopium/common/interface/imDirectory.sol\":738:748  _directory */\n  dup2\n    /* \"hopium/common/interface/imDirectory.sol\":738:760  _directory.code.length */\n  0xffffffffffffffffffffffffffffffffffffffff\n  and\n  extcodesize\n    /* \"hopium/common/interface/imDirectory.sol\":738:764  _directory.code.length > 0 */\n  gt\n    /* \"hopium/common/interface/imDirectory.sol\":730:797  require(_directory.code.length > 0, \"Directory must be a contract\") */\n  tag_15\n  jumpi\n  mload(0x40)\n  0x08c379a000000000000000000000000000000000000000000000000000000000\n  dup2\n  mstore\n  0x04\n  add\n  tag_16\n  swap1\n  tag_17\n  jump\t// in\ntag_16:\n  mload(0x40)\n  dup1\n  swap2\n  sub\n  swap1\n  revert\ntag_15:\n    /* \"hopium/common/interface/imDirectory.sol\":861:871  _directory */\n  dup1\n    /* \"hopium/common/interface/imDirectory.sol\":850:878  IDirectory(_directory).owner */\n  0xffffffffffffffffffffffffffffffffffffffff\n  and\n  0x8da5cb5b\n    /* \"hopium/common/interface/imDirectory.sol\":850:880  IDirectory(_directory).owner() */\n  mload(0x40)\n  dup2\n  0xffffffff\n  and\n  0xe0\n  shl\n  dup2\n  mstore\n  0x04\n  add\n  0x20\n  mload(0x40)\n  dup1\n  dup4\n  sub\n  dup2\n  dup7\n  gas\n  staticcall\n  swap3\n  pop\n  pop\n  pop\n  dup1\n  iszero\n  tag_18\n  jumpi\n  pop\n  mload(0x40)\n  returndatasize\n  not(0x1f)\n  0x1f\n  dup3\n  add\n  and\n  dup3\n  add\n  dup1\n  0x40\n  mstore\n  pop\n  dup2\n  add\n  swap1\n  tag_19\n  swap2\n  swap1\n  tag_3\n  jump\t// in\ntag_19:\n  0x01\ntag_18:\n    /* \"hopium/common/interface/imDirectory.sol\":846:1044  try IDirectory(_directory).owner() returns (address) {... */\n  tag_20\n  jumpi\n    /* \"hopium/common/interface/imDirectory.sol\":979:1033  revert(\"Directory address does not implement owner()\") */\n  mload(0x40)\n  0x08c379a000000000000000000000000000000000000000000000000000000000\n  dup2\n  mstore\n  0x04\n  add\n  tag_24\n  swap1\n  tag_25\n  jump\t// in\ntag_24:\n  mload(0x40)\n  dup1\n  swap2\n  sub\n  swap1\n  revert\n    /* \"hopium/common/interface/imDirectory.sol\":846:1044  try IDirectory(_directory).owner() returns (address) {... */\ntag_20:\n    /* \"hopium/common/interface/imDirectory.sol\":936:946  _directory */\n  dup2\n    /* \"hopium/common/interface/imDirectory.sol\":913:922  Directory */\n  0x00\n  0x00\n    /* \"hopium/common/interface/imDirectory.sol\":913:947  Directory = IDirectory(_directory) */\n  0x0100\n  exp\n  dup2\n  sload\n  dup2\n  0xffffffffffffffffffffffffffffffffffffffff\n  mul\n  not\n  and\n  swap1\n  dup4\n  0xffffffffffffffffffffffffffffffffffffffff\n  and\n  mul\n  or\n  swap1\n  sstore\n  pop\n    /* \"hopium/common/interface/imDirectory.sol\":881:958  returns (address) {... */\n  pop\n    /* \"hopium/common/interface/imDirectory.sol\":589:1050  function _setDirectory(address _directory) internal {... */\n  pop\n  jump\t// out\n    /* \"#utility.yul\":88:205   */\ntag_28:\n    /* \"#utility.yul\":197:198   */\n  0x00\n    /* \"#utility.yul\":194:195   */\n  0x00\n    /* \"#utility.yul\":187:199   */\n  revert\n    /* \"#utility.yul\":334:460   */\ntag_30:\n    /* \"#utility.yul\":371:378   */\n  0x00\n    /* \"#utility.yul\":411:453   */\n  0xffffffffffffffffffffffffffffffffffffffff\n    /* \"#utility.yul\":404:409   */\n  dup3\n    /* \"#utility.yul\":400:454   */\n  and\n    /* \"#utility.yul\":389:454   */\n  swap1\n  pop\n    /* \"#utility.yul\":334:460   */\n  swap2\n  swap1\n  pop\n  jump\t// out\n    /* \"#utility.yul\":466:562   */\ntag_31:\n    /* \"#utility.yul\":503:510   */\n  0x00\n    /* \"#utility.yul\":532:556   */\n  tag_47\n    /* \"#utility.yul\":550:555   */\n  dup3\n    /* \"#utility.yul\":532:556   */\n  tag_30\n  jump\t// in\ntag_47:\n    /* \"#utility.yul\":521:556   */\n  swap1\n  pop\n    /* \"#utility.yul\":466:562   */\n  swap2\n  swap1\n  pop\n  jump\t// out\n    /* \"#utility.yul\":568:690   */\ntag_32:\n    /* \"#utility.yul\":641:665   */\n  tag_49\n    /* \"#utility.yul\":659:664   */\n  dup2\n    /* \"#utility.yul\":641:665   */\n  tag_31\n  jump\t// in\ntag_49:\n    /* \"#utility.yul\":634:639   */\n  dup2\n    /* \"#utility.yul\":631:666   */\n  eq\n    /* \"#utility.yul\":621:684   */\n  tag_50\n  jumpi\n    /* \"#utility.yul\":680:681   */\n  0x00\n    /* \"#utility.yul\":677:678   */\n  0x00\n    /* \"#utility.yul\":670:682   */\n  revert\n    /* \"#utility.yul\":621:684   */\ntag_50:\n    /* \"#utility.yul\":568:690   */\n  pop\n  jump\t// out\n    /* \"#utility.yul\":696:839   */\ntag_33:\n    /* \"#utility.yul\":753:758   */\n  0x00\n    /* \"#utility.yul\":784:790   */\n  dup2\n    /* \"#utility.yul\":778:791   */\n  mload\n    /* \"#utility.yul\":769:791   */\n  swap1\n  pop\n    /* \"#utility.yul\":800:833   */\n  tag_52\n    /* \"#utility.yul\":827:832   */\n  dup2\n    /* \"#utility.yul\":800:833   */\n  tag_32\n  jump\t// in\ntag_52:\n    /* \"#utility.yul\":696:839   */\n  swap3\n  swap2\n  pop\n  pop\n  jump\t// out\n    /* \"#utility.yul\":845:1196   */\ntag_3:\n    /* \"#utility.yul\":915:921   */\n  0x00\n    /* \"#utility.yul\":964:966   */\n  0x20\n    /* \"#utility.yul\":952:961   */\n  dup3\n    /* \"#utility.yul\":943:950   */\n  dup5\n    /* \"#utility.yul\":939:962   */\n  sub\n    /* \"#utility.yul\":935:967   */\n  slt\n    /* \"#utility.yul\":932:1051   */\n  iszero\n  tag_54\n  jumpi\n    /* \"#utility.yul\":970:1049   */\n  tag_55\n  tag_28\n  jump\t// in\ntag_55:\n    /* \"#utility.yul\":932:1051   */\ntag_54:\n    /* \"#utility.yul\":1090:1091   */\n  0x00\n    /* \"#utility.yul\":1115:1179   */\n  tag_56\n    /* \"#utility.yul\":1171:1178   */\n  dup5\n    /* \"#utility.yul\":1162:1168   */\n  dup3\n    /* \"#utility.yul\":1151:1160   */\n  dup6\n    /* \"#utility.yul\":1147:1169   */\n  add\n    /* \"#utility.yul\":1115:1179   */\n  tag_33\n  jump\t// in\ntag_56:\n    /* \"#utility.yul\":1105:1179   */\n  swap2\n  pop\n    /* \"#utility.yul\":1061:1189   */\n  pop\n    /* \"#utility.yul\":845:1196   */\n  swap3\n  swap2\n  pop\n  pop\n  jump\t// out\n    /* \"#utility.yul\":1202:1371   */\ntag_34:\n    /* \"#utility.yul\":1286:1297   */\n  0x00\n    /* \"#utility.yul\":1320:1326   */\n  dup3\n    /* \"#utility.yul\":1315:1318   */\n  dup3\n    /* \"#utility.yul\":1308:1327   */\n  mstore\n    /* \"#utility.yul\":1360:1364   */\n  0x20\n    /* \"#utility.yul\":1355:1358   */\n  dup3\n    /* \"#utility.yul\":1351:1365   */\n  add\n    /* \"#utility.yul\":1336:1365   */\n  swap1\n  pop\n    /* \"#utility.yul\":1202:1371   */\n  swap3\n  swap2\n  pop\n  pop\n  jump\t// out\n    /* \"#utility.yul\":1377:1559   */\ntag_35:\n    /* \"#utility.yul\":1517:1551   */\n  0x4469726563746f72792063616e6e6f74206265207a65726f2061646472657373\n    /* \"#utility.yul\":1513:1514   */\n  0x00\n    /* \"#utility.yul\":1505:1511   */\n  dup3\n    /* \"#utility.yul\":1501:1515   */\n  add\n    /* \"#utility.yul\":1494:1552   */\n  mstore\n    /* \"#utility.yul\":1377:1559   */\n  pop\n  jump\t// out\n    /* \"#utility.yul\":1565:1931   */\ntag_36:\n    /* \"#utility.yul\":1707:1710   */\n  0x00\n    /* \"#utility.yul\":1728:1795   */\n  tag_60\n    /* \"#utility.yul\":1792:1794   */\n  0x20\n    /* \"#utility.yul\":1787:1790   */\n  dup4\n    /* \"#utility.yul\":1728:1795   */\n  tag_34\n  jump\t// in\ntag_60:\n    /* \"#utility.yul\":1721:1795   */\n  swap2\n  pop\n    /* \"#utility.yul\":1804:1897   */\n  tag_61\n    /* \"#utility.yul\":1893:1896   */\n  dup3\n    /* \"#utility.yul\":1804:1897   */\n  tag_35\n  jump\t// in\ntag_61:\n    /* \"#utility.yul\":1922:1924   */\n  0x20\n    /* \"#utility.yul\":1917:1920   */\n  dup3\n    /* \"#utility.yul\":1913:1925   */\n  add\n    /* \"#utility.yul\":1906:1925   */\n  swap1\n  pop\n    /* \"#utility.yul\":1565:1931   */\n  swap2\n  swap1\n  pop\n  jump\t// out\n    /* \"#utility.yul\":1937:2356   */\ntag_14:\n    /* \"#utility.yul\":2103:2107   */\n  0x00\n    /* \"#utility.yul\":2141:2143   */\n  0x20\n    /* \"#utility.yul\":2130:2139   */\n  dup3\n    /* \"#utility.yul\":2126:2144   */\n  add\n    /* \"#utility.yul\":2118:2144   */\n  swap1\n  pop\n    /* \"#utility.yul\":2190:2199   */\n  dup2\n    /* \"#utility.yul\":2184:2188   */\n  dup2\n    /* \"#utility.yul\":2180:2200   */\n  sub\n    /* \"#utility.yul\":2176:2177   */\n  0x00\n    /* \"#utility.yul\":2165:2174   */\n  dup4\n    /* \"#utility.yul\":2161:2178   */\n  add\n    /* \"#utility.yul\":2154:2201   */\n  mstore\n    /* \"#utility.yul\":2218:2349   */\n  tag_63\n    /* \"#utility.yul\":2344:2348   */\n  dup2\n    /* \"#utility.yul\":2218:2349   */\n  tag_36\n  jump\t// in\ntag_63:\n    /* \"#utility.yul\":2210:2349   */\n  swap1\n  pop\n    /* \"#utility.yul\":1937:2356   */\n  swap2\n  swap1\n  pop\n  jump\t// out\n    /* \"#utility.yul\":2362:2540   */\ntag_37:\n    /* \"#utility.yul\":2502:2532   */\n  0x4469726563746f7279206d757374206265206120636f6e747261637400000000\n    /* \"#utility.yul\":2498:2499   */\n  0x00\n    /* \"#utility.yul\":2490:2496   */\n  dup3\n    /* \"#utility.yul\":2486:2500   */\n  add\n    /* \"#utility.yul\":2479:2533   */\n  mstore\n    /* \"#utility.yul\":2362:2540   */\n  pop\n  jump\t// out\n    /* \"#utility.yul\":2546:2912   */\ntag_38:\n    /* \"#utility.yul\":2688:2691   */\n  0x00\n    /* \"#utility.yul\":2709:2776   */\n  tag_66\n    /* \"#utility.yul\":2773:2775   */\n  0x1c\n    /* \"#utility.yul\":2768:2771   */\n  dup4\n    /* \"#utility.yul\":2709:2776   */\n  tag_34\n  jump\t// in\ntag_66:\n    /* \"#utility.yul\":2702:2776   */\n  swap2\n  pop\n    /* \"#utility.yul\":2785:2878   */\n  tag_67\n    /* \"#utility.yul\":2874:2877   */\n  dup3\n    /* \"#utility.yul\":2785:2878   */\n  tag_37\n  jump\t// in\ntag_67:\n    /* \"#utility.yul\":2903:2905   */\n  0x20\n    /* \"#utility.yul\":2898:2901   */\n  dup3\n    /* \"#utility.yul\":2894:2906   */\n  add\n    /* \"#utility.yul\":2887:2906   */\n  swap1\n  pop\n    /* \"#utility.yul\":2546:2912   */\n  swap2\n  swap1\n  pop\n  jump\t// out\n    /* \"#utility.yul\":2918:3337   */\ntag_17:\n    /* \"#utility.yul\":3084:3088   */\n  0x00\n    /* \"#utility.yul\":3122:3124   */\n  0x20\n    /* \"#utility.yul\":3111:3120   */\n  dup3\n    /* \"#utility.yul\":3107:3125   */\n  add\n    /* \"#utility.yul\":3099:3125   */\n  swap1\n  pop\n    /* \"#utility.yul\":3171:3180   */\n  dup2\n    /* \"#utility.yul\":3165:3169   */\n  dup2\n    /* \"#utility.yul\":3161:3181   */\n  sub\n    /* \"#utility.yul\":3157:3158   */\n  0x00\n    /* \"#utility.yul\":3146:3155   */\n  dup4\n    /* \"#utility.yul\":3142:3159   */\n  add\n    /* \"#utility.yul\":3135:3182   */\n  mstore\n    /* \"#utility.yul\":3199:3330   */\n  tag_69\n    /* \"#utility.yul\":3325:3329   */\n  dup2\n    /* \"#utility.yul\":3199:3330   */\n  tag_38\n  jump\t// in\ntag_69:\n    /* \"#utility.yul\":3191:3330   */\n  swap1\n  pop\n    /* \"#utility.yul\":2918:3337   */\n  swap2\n  swap1\n  pop\n  jump\t// out\n    /* \"#utility.yul\":3343:3574   */\ntag_39:\n    /* \"#utility.yul\":3483:3517   */\n  0x4469726563746f7279206164647265737320646f6573206e6f7420696d706c65\n    /* \"#utility.yul\":3479:3480   */\n  0x00\n    /* \"#utility.yul\":3471:3477   */\n  dup3\n    /* \"#utility.yul\":3467:3481   */\n  add\n    /* \"#utility.yul\":3460:3518   */\n  mstore\n    /* \"#utility.yul\":3552:3566   */\n  0x6d656e74206f776e657228290000000000000000000000000000000000000000\n    /* \"#utility.yul\":3547:3549   */\n  0x20\n    /* \"#utility.yul\":3539:3545   */\n  dup3\n    /* \"#utility.yul\":3535:3550   */\n  add\n    /* \"#utility.yul\":3528:3567   */\n  mstore\n    /* \"#utility.yul\":3343:3574   */\n  pop\n  jump\t// out\n    /* \"#utility.yul\":3580:3946   */\ntag_40:\n    /* \"#utility.yul\":3722:3725   */\n  0x00\n    /* \"#utility.yul\":3743:3810   */\n  tag_72\n    /* \"#utility.yul\":3807:3809   */\n  0x2c\n    /* \"#utility.yul\":3802:3805   */\n  dup4\n    /* \"#utility.yul\":3743:3810   */\n  tag_34\n  jump\t// in\ntag_72:\n    /* \"#utility.yul\":3736:3810   */\n  swap2\n  pop\n    /* \"#utility.yul\":3819:3912   */\n  tag_73\n    /* \"#utility.yul\":3908:3911   */\n  dup3\n    /* \"#utility.yul\":3819:3912   */\n  tag_39\n  jump\t// in\ntag_73:\n    /* \"#utility.yul\":3937:3939   */\n  0x40\n    /* \"#utility.yul\":3932:3935   */\n  dup3\n    /* \"#utility.yul\":3928:3940   */\n  add\n    /* \"#utility.yul\":3921:3940   */\n  swap1\n  pop\n    /* \"#utility.yul\":3580:3946   */\n  swap2\n  swap1\n  pop\n  jump\t// out\n    /* \"#utility.yul\":3952:4371   */\ntag_25:\n    /* \"#utility.yul\":4118:4122   */\n  0x00\n    /* \"#utility.yul\":4156:4158   */\n  0x20\n    /* \"#utility.yul\":4145:4154   */\n  dup3\n    /* \"#utility.yul\":4141:4159   */\n  add\n    /* \"#utility.yul\":4133:4159   */\n  swap1\n  pop\n    /* \"#utility.yul\":4205:4214   */\n  dup2\n    /* \"#utility.yul\":4199:4203   */\n  dup2\n    /* \"#utility.yul\":4195:4215   */\n  sub\n    /* \"#utility.yul\":4191:4192   */\n  0x00\n    /* \"#utility.yul\":4180:4189   */\n  dup4\n    /* \"#utility.yul\":4176:4193   */\n  add\n    /* \"#utility.yul\":4169:4216   */\n  mstore\n    /* \"#utility.yul\":4233:4364   */\n  tag_75\n    /* \"#utility.yul\":4359:4363   */\n  dup2\n    /* \"#utility.yul\":4233:4364   */\n  tag_40\n  jump\t// in\ntag_75:\n    /* \"#utility.yul\":4225:4364   */\n  swap1\n  pop\n    /* \"#utility.yul\":3952:4371   */\n  swap2\n  swap1\n  pop\n  jump\t// out\n    /* \"hopium/etf/main/etf-token-events.sol\":155:896  contract EtfTokenEvents is ImDirectory, ImEtfOracle {... */\ntag_10:\n  dataSize(sub_0)\n  dup1\n  dataOffset(sub_0)\n  0x00\n  codecopy\n  0x00\n  return\nstop\n\nsub_0: assembly {\n        /* \"hopium/etf/main/etf-token-events.sol\":155:896  contract EtfTokenEvents is ImDirectory, ImEtfOracle {... */\n      mstore(0x40, 0x80)\n      callvalue\n      dup1\n      iszero\n      tag_1\n      jumpi\n      revert(0x00, 0x00)\n    tag_1:\n      pop\n      jumpi(tag_2, lt(calldatasize, 0x04))\n      shr(0xe0, calldataload(0x00))\n      dup1\n      0x27262618\n      eq\n      tag_3\n      jumpi\n      dup1\n      0x658a847a\n      eq\n      tag_4\n      jumpi\n      dup1\n      0x8da5cb5b\n      eq\n      tag_5\n      jumpi\n      dup1\n      0xba4c7be1\n      eq\n      tag_6\n      jumpi\n      dup1\n      0xc082f03f\n      eq\n      tag_7\n      jumpi\n    tag_2:\n      revert(0x00, 0x00)\n        /* \"hopium/common/interface/imDirectory.sol\":1272:1408  function fetchFromDirectory(string memory _key) public view returns (address) {... */\n    tag_3:\n      tag_8\n      0x04\n      dup1\n      calldatasize\n      sub\n      dup2\n      add\n      swap1\n      tag_9\n      swap2\n      swap1\n      tag_10\n      jump\t// in\n    tag_9:\n      tag_11\n      jump\t// in\n    tag_8:\n      mload(0x40)\n      tag_12\n      swap2\n      swap1\n      tag_13\n      jump\t// in\n    tag_12:\n      mload(0x40)\n      dup1\n      swap2\n      sub\n      swap1\n      return\n        /* \"hopium/common/interface/imDirectory.sol\":336:363  IDirectory public Directory */\n    tag_4:\n      tag_14\n      tag_15\n      jump\t// in\n    tag_14:\n      mload(0x40)\n      tag_16\n      swap2\n      swap1\n      tag_17\n      jump\t// in\n    tag_16:\n      mload(0x40)\n      dup1\n      swap2\n      sub\n      swap1\n      return\n        /* \"hopium/common/interface/imDirectory.sol\":1178:1266  function owner() public view returns (address) {... */\n    tag_5:\n      tag_18\n      tag_19\n      jump\t// in\n    tag_18:\n      mload(0x40)\n      tag_20\n      swap2\n      swap1\n      tag_13\n      jump\t// in\n    tag_20:\n      mload(0x40)\n      dup1\n      swap2\n      sub\n      swap1\n      return\n        /* \"hopium/common/interface/imDirectory.sol\":470:583  function changeDirectoryAddress(address _directory) external onlyOwner {... */\n    tag_6:\n      tag_21\n      0x04\n      dup1\n      calldatasize\n      sub\n      dup2\n      add\n      swap1\n      tag_22\n      swap2\n      swap1\n      tag_23\n      jump\t// in\n    tag_22:\n      tag_24\n      jump\t// in\n    tag_21:\n      stop\n        /* \"hopium/etf/main/etf-token-events.sol\":571:894  function emitTransferEvent(uint256 etfId, address fromAddress, address toAddress, uint256 transferAmount) external {... */\n    tag_7:\n      tag_25\n      0x04\n      dup1\n      calldatasize\n      sub\n      dup2\n      add\n      swap1\n      tag_26\n      swap2\n      swap1\n      tag_27\n      jump\t// in\n    tag_26:\n      tag_28\n      jump\t// in\n    tag_25:\n      stop\n        /* \"hopium/common/interface/imDirectory.sol\":1272:1408  function fetchFromDirectory(string memory _key) public view returns (address) {... */\n    tag_11:\n        /* \"hopium/common/interface/imDirectory.sol\":1341:1348  address */\n      0x00\n        /* \"hopium/common/interface/imDirectory.sol\":1367:1376  Directory */\n      0x00\n      0x00\n      swap1\n      sload\n      swap1\n      0x0100\n      exp\n      swap1\n      div\n      0xffffffffffffffffffffffffffffffffffffffff\n      and\n        /* \"hopium/common/interface/imDirectory.sol\":1367:1395  Directory.fetchFromDirectory */\n      0xffffffffffffffffffffffffffffffffffffffff\n      and\n      0x27262618\n        /* \"hopium/common/interface/imDirectory.sol\":1396:1400  _key */\n      dup4\n        /* \"hopium/common/interface/imDirectory.sol\":1367:1401  Directory.fetchFromDirectory(_key) */\n      mload(0x40)\n      dup3\n      0xffffffff\n      and\n      0xe0\n      shl\n      dup2\n      mstore\n      0x04\n      add\n      tag_30\n      swap2\n      swap1\n      tag_31\n      jump\t// in\n    tag_30:\n      0x20\n      mload(0x40)\n      dup1\n      dup4\n      sub\n      dup2\n      dup7\n      gas\n      staticcall\n      iszero\n      dup1\n      iszero\n      tag_33\n      jumpi\n      returndatacopy(0x00, 0x00, returndatasize)\n      revert(0x00, returndatasize)\n    tag_33:\n      pop\n      pop\n      pop\n      pop\n      mload(0x40)\n      returndatasize\n      not(0x1f)\n      0x1f\n      dup3\n      add\n      and\n      dup3\n      add\n      dup1\n      0x40\n      mstore\n      pop\n      dup2\n      add\n      swap1\n      tag_34\n      swap2\n      swap1\n      tag_35\n      jump\t// in\n    tag_34:\n        /* \"hopium/common/interface/imDirectory.sol\":1360:1401  return Directory.fetchFromDirectory(_key) */\n      swap1\n      pop\n        /* \"hopium/common/interface/imDirectory.sol\":1272:1408  function fetchFromDirectory(string memory _key) public view returns (address) {... */\n      swap2\n      swap1\n      pop\n      jump\t// out\n        /* \"hopium/common/interface/imDirectory.sol\":336:363  IDirectory public Directory */\n    tag_15:\n      0x00\n      0x00\n      swap1\n      sload\n      swap1\n      0x0100\n      exp\n      swap1\n      div\n      0xffffffffffffffffffffffffffffffffffffffff\n      and\n      dup2\n      jump\t// out\n        /* \"hopium/common/interface/imDirectory.sol\":1178:1266  function owner() public view returns (address) {... */\n    tag_19:\n        /* \"hopium/common/interface/imDirectory.sol\":1216:1223  address */\n      0x00\n        /* \"hopium/common/interface/imDirectory.sol\":1242:1251  Directory */\n      0x00\n      0x00\n      swap1\n      sload\n      swap1\n      0x0100\n      exp\n      swap1\n      div\n      0xffffffffffffffffffffffffffffffffffffffff\n      and\n        /* \"hopium/common/interface/imDirectory.sol\":1242:1257  Directory.owner */\n      0xffffffffffffffffffffffffffffffffffffffff\n      and\n      0x8da5cb5b\n        /* \"hopium/common/interface/imDirectory.sol\":1242:1259  Directory.owner() */\n      mload(0x40)\n      dup2\n      0xffffffff\n      and\n      0xe0\n      shl\n      dup2\n      mstore\n      0x04\n      add\n      0x20\n      mload(0x40)\n      dup1\n      dup4\n      sub\n      dup2\n      dup7\n      gas\n      staticcall\n      iszero\n      dup1\n      iszero\n      tag_38\n      jumpi\n      returndatacopy(0x00, 0x00, returndatasize)\n      revert(0x00, returndatasize)\n    tag_38:\n      pop\n      pop\n      pop\n      pop\n      mload(0x40)\n      returndatasize\n      not(0x1f)\n      0x1f\n      dup3\n      add\n      and\n      dup3\n      add\n      dup1\n      0x40\n      mstore\n      pop\n      dup2\n      add\n      swap1\n      tag_39\n      swap2\n      swap1\n      tag_35\n      jump\t// in\n    tag_39:\n        /* \"hopium/common/interface/imDirectory.sol\":1235:1259  return Directory.owner() */\n      swap1\n      pop\n        /* \"hopium/common/interface/imDirectory.sol\":1178:1266  function owner() public view returns (address) {... */\n      swap1\n      jump\t// out\n        /* \"hopium/common/interface/imDirectory.sol\":470:583  function changeDirectoryAddress(address _directory) external onlyOwner {... */\n    tag_24:\n        /* \"hopium/common/interface/imDirectory.sol\":1109:1118  Directory */\n      0x00\n      0x00\n      swap1\n      sload\n      swap1\n      0x0100\n      exp\n      swap1\n      div\n      0xffffffffffffffffffffffffffffffffffffffff\n      and\n        /* \"hopium/common/interface/imDirectory.sol\":1109:1124  Directory.owner */\n      0xffffffffffffffffffffffffffffffffffffffff\n      and\n      0x8da5cb5b\n        /* \"hopium/common/interface/imDirectory.sol\":1109:1126  Directory.owner() */\n      mload(0x40)\n      dup2\n      0xffffffff\n      and\n      0xe0\n      shl\n      dup2\n      mstore\n      0x04\n      add\n      0x20\n      mload(0x40)\n      dup1\n      dup4\n      sub\n      dup2\n      dup7\n      gas\n      staticcall\n      iszero\n      dup1\n      iszero\n      tag_42\n      jumpi\n      returndatacopy(0x00, 0x00, returndatasize)\n      revert(0x00, returndatasize)\n    tag_42:\n      pop\n      pop\n      pop\n      pop\n      mload(0x40)\n      returndatasize\n      not(0x1f)\n      0x1f\n      dup3\n      add\n      and\n      dup3\n      add\n      dup1\n      0x40\n      mstore\n      pop\n      dup2\n      add\n      swap1\n      tag_43\n      swap2\n      swap1\n      tag_35\n      jump\t// in\n    tag_43:\n        /* \"hopium/common/interface/imDirectory.sol\":1095:1126  msg.sender == Directory.owner() */\n      0xffffffffffffffffffffffffffffffffffffffff\n      and\n        /* \"hopium/common/interface/imDirectory.sol\":1095:1105  msg.sender */\n      caller\n        /* \"hopium/common/interface/imDirectory.sol\":1095:1126  msg.sender == Directory.owner() */\n      0xffffffffffffffffffffffffffffffffffffffff\n      and\n      eq\n        /* \"hopium/common/interface/imDirectory.sol\":1087:1154  require(msg.sender == Directory.owner(), \"Caller is not the owner\") */\n      tag_44\n      jumpi\n      mload(0x40)\n      0x08c379a000000000000000000000000000000000000000000000000000000000\n      dup2\n      mstore\n      0x04\n      add\n      tag_45\n      swap1\n      tag_46\n      jump\t// in\n    tag_45:\n      mload(0x40)\n      dup1\n      swap2\n      sub\n      swap1\n      revert\n    tag_44:\n        /* \"hopium/common/interface/imDirectory.sol\":551:576  _setDirectory(_directory) */\n      tag_48\n        /* \"hopium/common/interface/imDirectory.sol\":565:575  _directory */\n      dup2\n        /* \"hopium/common/interface/imDirectory.sol\":551:564  _setDirectory */\n      tag_49\n        /* \"hopium/common/interface/imDirectory.sol\":551:576  _setDirectory(_directory) */\n      jump\t// in\n    tag_48:\n        /* \"hopium/common/interface/imDirectory.sol\":470:583  function changeDirectoryAddress(address _directory) external onlyOwner {... */\n      pop\n      jump\t// out\n        /* \"hopium/etf/main/etf-token-events.sol\":571:894  function emitTransferEvent(uint256 etfId, address fromAddress, address toAddress, uint256 transferAmount) external {... */\n    tag_28:\n        /* \"hopium/etf/main/etf-token-events.sol\":698:718  uint256 etfWethPrice */\n      0x00\n        /* \"hopium/etf/main/etf-token-events.sol\":720:739  uint256 etfUsdPrice */\n      0x00\n        /* \"hopium/etf/main/etf-token-events.sol\":743:757  getEtfOracle() */\n      tag_51\n        /* \"hopium/etf/main/etf-token-events.sol\":743:755  getEtfOracle */\n      tag_52\n        /* \"hopium/etf/main/etf-token-events.sol\":743:757  getEtfOracle() */\n      jump\t// in\n    tag_51:\n        /* \"hopium/etf/main/etf-token-events.sol\":743:769  getEtfOracle().getEtfPrice */\n      0xffffffffffffffffffffffffffffffffffffffff\n      and\n      0x79de9e82\n        /* \"hopium/etf/main/etf-token-events.sol\":770:775  etfId */\n      dup8\n        /* \"hopium/etf/main/etf-token-events.sol\":743:776  getEtfOracle().getEtfPrice(etfId) */\n      mload(0x40)\n      dup3\n      0xffffffff\n      and\n      0xe0\n      shl\n      dup2\n      mstore\n      0x04\n      add\n      tag_53\n      swap2\n      swap1\n      tag_54\n      jump\t// in\n    tag_53:\n      0x40\n      dup1\n      mload\n      dup1\n      dup4\n      sub\n      dup2\n      dup7\n      gas\n      staticcall\n      iszero\n      dup1\n      iszero\n      tag_56\n      jumpi\n      returndatacopy(0x00, 0x00, returndatasize)\n      revert(0x00, returndatasize)\n    tag_56:\n      pop\n      pop\n      pop\n      pop\n      mload(0x40)\n      returndatasize\n      not(0x1f)\n      0x1f\n      dup3\n      add\n      and\n      dup3\n      add\n      dup1\n      0x40\n      mstore\n      pop\n      dup2\n      add\n      swap1\n      tag_57\n      swap2\n      swap1\n      tag_58\n      jump\t// in\n    tag_57:\n        /* \"hopium/etf/main/etf-token-events.sol\":697:776  (uint256 etfWethPrice, uint256 etfUsdPrice) = getEtfOracle().getEtfPrice(etfId) */\n      swap2\n      pop\n      swap2\n      pop\n        /* \"hopium/etf/main/etf-token-events.sol\":834:843  toAddress */\n      dup4\n        /* \"hopium/etf/main/etf-token-events.sol\":792:887  EtfTokenTransfer(msg.sender, fromAddress, toAddress, transferAmount, etfWethPrice, etfUsdPrice) */\n      0xffffffffffffffffffffffffffffffffffffffff\n      and\n        /* \"hopium/etf/main/etf-token-events.sol\":821:832  fromAddress */\n      dup6\n        /* \"hopium/etf/main/etf-token-events.sol\":792:887  EtfTokenTransfer(msg.sender, fromAddress, toAddress, transferAmount, etfWethPrice, etfUsdPrice) */\n      0xffffffffffffffffffffffffffffffffffffffff\n      and\n        /* \"hopium/etf/main/etf-token-events.sol\":809:819  msg.sender */\n      caller\n        /* \"hopium/etf/main/etf-token-events.sol\":792:887  EtfTokenTransfer(msg.sender, fromAddress, toAddress, transferAmount, etfWethPrice, etfUsdPrice) */\n      0xffffffffffffffffffffffffffffffffffffffff\n      and\n      0x81922c40d912e2f283a7d2b2d0e692c560caafd69d7927154759059dfdcaebfa\n        /* \"hopium/etf/main/etf-token-events.sol\":845:859  transferAmount */\n      dup7\n        /* \"hopium/etf/main/etf-token-events.sol\":861:873  etfWethPrice */\n      dup7\n        /* \"hopium/etf/main/etf-token-events.sol\":875:886  etfUsdPrice */\n      dup7\n        /* \"hopium/etf/main/etf-token-events.sol\":792:887  EtfTokenTransfer(msg.sender, fromAddress, toAddress, transferAmount, etfWethPrice, etfUsdPrice) */\n      mload(0x40)\n      tag_59\n      swap4\n      swap3\n      swap2\n      swap1\n      tag_60\n      jump\t// in\n    tag_59:\n      mload(0x40)\n      dup1\n      swap2\n      sub\n      swap1\n      log4\n        /* \"hopium/etf/main/etf-token-events.sol\":686:894  {... */\n      pop\n      pop\n        /* \"hopium/etf/main/etf-token-events.sol\":571:894  function emitTransferEvent(uint256 etfId, address fromAddress, address toAddress, uint256 transferAmount) external {... */\n      pop\n      pop\n      pop\n      pop\n      jump\t// out\n        /* \"hopium/common/interface/imDirectory.sol\":589:1050  function _setDirectory(address _directory) internal {... */\n    tag_49:\n        /* \"hopium/common/interface/imDirectory.sol\":681:682  0 */\n      0x00\n        /* \"hopium/common/interface/imDirectory.sol\":659:683  _directory != address(0) */\n      0xffffffffffffffffffffffffffffffffffffffff\n      and\n        /* \"hopium/common/interface/imDirectory.sol\":659:669  _directory */\n      dup2\n        /* \"hopium/common/interface/imDirectory.sol\":659:683  _directory != address(0) */\n      0xffffffffffffffffffffffffffffffffffffffff\n      and\n      sub\n        /* \"hopium/common/interface/imDirectory.sol\":651:720  require(_directory != address(0), \"Directory cannot be zero address\") */\n      tag_62\n      jumpi\n      mload(0x40)\n      0x08c379a000000000000000000000000000000000000000000000000000000000\n      dup2\n      mstore\n      0x04\n      add\n      tag_63\n      swap1\n      tag_64\n      jump\t// in\n    tag_63:\n      mload(0x40)\n      dup1\n      swap2\n      sub\n      swap1\n      revert\n    tag_62:\n        /* \"hopium/common/interface/imDirectory.sol\":763:764  0 */\n      0x00\n        /* \"hopium/common/interface/imDirectory.sol\":738:748  _directory */\n      dup2\n        /* \"hopium/common/interface/imDirectory.sol\":738:760  _directory.code.length */\n      0xffffffffffffffffffffffffffffffffffffffff\n      and\n      extcodesize\n        /* \"hopium/common/interface/imDirectory.sol\":738:764  _directory.code.length > 0 */\n      gt\n        /* \"hopium/common/interface/imDirectory.sol\":730:797  require(_directory.code.length > 0, \"Directory must be a contract\") */\n      tag_65\n      jumpi\n      mload(0x40)\n      0x08c379a000000000000000000000000000000000000000000000000000000000\n      dup2\n      mstore\n      0x04\n      add\n      tag_66\n      swap1\n      tag_67\n      jump\t// in\n    tag_66:\n      mload(0x40)\n      dup1\n      swap2\n      sub\n      swap1\n      revert\n    tag_65:\n        /* \"hopium/common/interface/imDirectory.sol\":861:871  _directory */\n      dup1\n        /* \"hopium/common/interface/imDirectory.sol\":850:878  IDirectory(_directory).owner */\n      0xffffffffffffffffffffffffffffffffffffffff\n      and\n      0x8da5cb5b\n        /* \"hopium/common/interface/imDirectory.sol\":850:880  IDirectory(_directory).owner() */\n      mload(0x40)\n      dup2\n      0xffffffff\n      and\n      0xe0\n      shl\n      dup2\n      mstore\n      0x04\n      add\n      0x20\n      mload(0x40)\n      dup1\n      dup4\n      sub\n      dup2\n      dup7\n      gas\n      staticcall\n      swap3\n      pop\n      pop\n      pop\n      dup1\n      iszero\n      tag_68\n      jumpi\n      pop\n      mload(0x40)\n      returndatasize\n      not(0x1f)\n      0x1f\n      dup3\n      add\n      and\n      dup3\n      add\n      dup1\n      0x40\n      mstore\n      pop\n      dup2\n      add\n      swap1\n      tag_69\n      swap2\n      swap1\n      tag_35\n      jump\t// in\n    tag_69:\n      0x01\n    tag_68:\n        /* \"hopium/common/interface/imDirectory.sol\":846:1044  try IDirectory(_directory).owner() returns (address) {... */\n      tag_70\n      jumpi\n        /* \"hopium/common/interface/imDirectory.sol\":979:1033  revert(\"Directory address does not implement owner()\") */\n      mload(0x40)\n      0x08c379a000000000000000000000000000000000000000000000000000000000\n      dup2\n      mstore\n      0x04\n      add\n      tag_74\n      swap1\n      tag_75\n      jump\t// in\n    tag_74:\n      mload(0x40)\n      dup1\n      swap2\n      sub\n      swap1\n      revert\n        /* \"hopium/common/interface/imDirectory.sol\":846:1044  try IDirectory(_directory).owner() returns (address) {... */\n    tag_70:\n        /* \"hopium/common/interface/imDirectory.sol\":936:946  _directory */\n      dup2\n        /* \"hopium/common/interface/imDirectory.sol\":913:922  Directory */\n      0x00\n      0x00\n        /* \"hopium/common/interface/imDirectory.sol\":913:947  Directory = IDirectory(_directory) */\n      0x0100\n      exp\n      dup2\n      sload\n      dup2\n      0xffffffffffffffffffffffffffffffffffffffff\n      mul\n      not\n      and\n      swap1\n      dup4\n      0xffffffffffffffffffffffffffffffffffffffff\n      and\n      mul\n      or\n      swap1\n      sstore\n      pop\n        /* \"hopium/common/interface/imDirectory.sol\":881:958  returns (address) {... */\n      pop\n        /* \"hopium/common/interface/imDirectory.sol\":589:1050  function _setDirectory(address _directory) internal {... */\n      pop\n      jump\t// out\n        /* \"hopium/etf/interface/imEtfOracle.sol\":241:376  function getEtfOracle() internal view virtual returns (IEtfOracle) {... */\n    tag_52:\n        /* \"hopium/etf/interface/imEtfOracle.sol\":296:306  IEtfOracle */\n      0x00\n        /* \"hopium/etf/interface/imEtfOracle.sol\":336:368  fetchFromDirectory(\"etf-oracle\") */\n      tag_78\n      mload(0x40)\n      dup1\n      0x40\n      add\n      0x40\n      mstore\n      dup1\n      0x0a\n      dup2\n      mstore\n      0x20\n      add\n      0x6574662d6f7261636c6500000000000000000000000000000000000000000000\n      dup2\n      mstore\n      pop\n        /* \"hopium/etf/interface/imEtfOracle.sol\":336:354  fetchFromDirectory */\n      tag_11\n        /* \"hopium/etf/interface/imEtfOracle.sol\":336:368  fetchFromDirectory(\"etf-oracle\") */\n      jump\t// in\n    tag_78:\n        /* \"hopium/etf/interface/imEtfOracle.sol\":318:369  return IEtfOracle(fetchFromDirectory(\"etf-oracle\")) */\n      swap1\n      pop\n        /* \"hopium/etf/interface/imEtfOracle.sol\":241:376  function getEtfOracle() internal view virtual returns (IEtfOracle) {... */\n      swap1\n      jump\t// out\n        /* \"#utility.yul\":7:82   */\n    tag_79:\n        /* \"#utility.yul\":40:46   */\n      0x00\n        /* \"#utility.yul\":73:75   */\n      0x40\n        /* \"#utility.yul\":67:76   */\n      mload\n        /* \"#utility.yul\":57:76   */\n      swap1\n      pop\n        /* \"#utility.yul\":7:82   */\n      swap1\n      jump\t// out\n        /* \"#utility.yul\":88:205   */\n    tag_80:\n        /* \"#utility.yul\":197:198   */\n      0x00\n        /* \"#utility.yul\":194:195   */\n      0x00\n        /* \"#utility.yul\":187:199   */\n      revert\n        /* \"#utility.yul\":211:328   */\n    tag_81:\n        /* \"#utility.yul\":320:321   */\n      0x00\n        /* \"#utility.yul\":317:318   */\n      0x00\n        /* \"#utility.yul\":310:322   */\n      revert\n        /* \"#utility.yul\":334:451   */\n    tag_82:\n        /* \"#utility.yul\":443:444   */\n      0x00\n        /* \"#utility.yul\":440:441   */\n      0x00\n        /* \"#utility.yul\":433:445   */\n      revert\n        /* \"#utility.yul\":457:574   */\n    tag_83:\n        /* \"#utility.yul\":566:567   */\n      0x00\n        /* \"#utility.yul\":563:564   */\n      0x00\n        /* \"#utility.yul\":556:568   */\n      revert\n        /* \"#utility.yul\":580:682   */\n    tag_84:\n        /* \"#utility.yul\":621:627   */\n      0x00\n        /* \"#utility.yul\":672:674   */\n      0x1f\n        /* \"#utility.yul\":668:675   */\n      not\n        /* \"#utility.yul\":663:665   */\n      0x1f\n        /* \"#utility.yul\":656:661   */\n      dup4\n        /* \"#utility.yul\":652:666   */\n      add\n        /* \"#utility.yul\":648:676   */\n      and\n        /* \"#utility.yul\":638:676   */\n      swap1\n      pop\n        /* \"#utility.yul\":580:682   */\n      swap2\n      swap1\n      pop\n      jump\t// out\n        /* \"#utility.yul\":688:868   */\n    tag_85:\n        /* \"#utility.yul\":736:813   */\n      0x4e487b7100000000000000000000000000000000000000000000000000000000\n        /* \"#utility.yul\":733:734   */\n      0x00\n        /* \"#utility.yul\":726:814   */\n      mstore\n        /* \"#utility.yul\":833:837   */\n      0x41\n        /* \"#utility.yul\":830:831   */\n      0x04\n        /* \"#utility.yul\":823:838   */\n      mstore\n        /* \"#utility.yul\":857:861   */\n      0x24\n        /* \"#utility.yul\":854:855   */\n      0x00\n        /* \"#utility.yul\":847:862   */\n      revert\n        /* \"#utility.yul\":874:1155   */\n    tag_86:\n        /* \"#utility.yul\":957:984   */\n      tag_129\n        /* \"#utility.yul\":979:983   */\n      dup3\n        /* \"#utility.yul\":957:984   */\n      tag_84\n      jump\t// in\n    tag_129:\n        /* \"#utility.yul\":949:955   */\n      dup2\n        /* \"#utility.yul\":945:985   */\n      add\n        /* \"#utility.yul\":1087:1093   */\n      dup2\n        /* \"#utility.yul\":1075:1085   */\n      dup2\n        /* \"#utility.yul\":1072:1094   */\n      lt\n        /* \"#utility.yul\":1051:1069   */\n      0xffffffffffffffff\n        /* \"#utility.yul\":1039:1049   */\n      dup3\n        /* \"#utility.yul\":1036:1070   */\n      gt\n        /* \"#utility.yul\":1033:1095   */\n      or\n        /* \"#utility.yul\":1030:1118   */\n      iszero\n      tag_130\n      jumpi\n        /* \"#utility.yul\":1098:1116   */\n      tag_131\n      tag_85\n      jump\t// in\n    tag_131:\n        /* \"#utility.yul\":1030:1118   */\n    tag_130:\n        /* \"#utility.yul\":1138:1148   */\n      dup1\n        /* \"#utility.yul\":1134:1136   */\n      0x40\n        /* \"#utility.yul\":1127:1149   */\n      mstore\n        /* \"#utility.yul\":917:1155   */\n      pop\n        /* \"#utility.yul\":874:1155   */\n      pop\n      pop\n      jump\t// out\n        /* \"#utility.yul\":1161:1290   */\n    tag_87:\n        /* \"#utility.yul\":1195:1201   */\n      0x00\n        /* \"#utility.yul\":1222:1242   */\n      tag_133\n      tag_79\n      jump\t// in\n    tag_133:\n        /* \"#utility.yul\":1212:1242   */\n      swap1\n      pop\n        /* \"#utility.yul\":1251:1284   */\n      tag_134\n        /* \"#utility.yul\":1279:1283   */\n      dup3\n        /* \"#utility.yul\":1271:1277   */\n      dup3\n        /* \"#utility.yul\":1251:1284   */\n      tag_86\n      jump\t// in\n    tag_134:\n        /* \"#utility.yul\":1161:1290   */\n      swap2\n      swap1\n      pop\n      jump\t// out\n        /* \"#utility.yul\":1296:1604   */\n    tag_88:\n        /* \"#utility.yul\":1358:1362   */\n      0x00\n        /* \"#utility.yul\":1448:1466   */\n      0xffffffffffffffff\n        /* \"#utility.yul\":1440:1446   */\n      dup3\n        /* \"#utility.yul\":1437:1467   */\n      gt\n        /* \"#utility.yul\":1434:1490   */\n      iszero\n      tag_136\n      jumpi\n        /* \"#utility.yul\":1470:1488   */\n      tag_137\n      tag_85\n      jump\t// in\n    tag_137:\n        /* \"#utility.yul\":1434:1490   */\n    tag_136:\n        /* \"#utility.yul\":1508:1537   */\n      tag_138\n        /* \"#utility.yul\":1530:1536   */\n      dup3\n        /* \"#utility.yul\":1508:1537   */\n      tag_84\n      jump\t// in\n    tag_138:\n        /* \"#utility.yul\":1500:1537   */\n      swap1\n      pop\n        /* \"#utility.yul\":1592:1596   */\n      0x20\n        /* \"#utility.yul\":1586:1590   */\n      dup2\n        /* \"#utility.yul\":1582:1597   */\n      add\n        /* \"#utility.yul\":1574:1597   */\n      swap1\n      pop\n        /* \"#utility.yul\":1296:1604   */\n      swap2\n      swap1\n      pop\n      jump\t// out\n        /* \"#utility.yul\":1610:1758   */\n    tag_89:\n        /* \"#utility.yul\":1708:1714   */\n      dup3\n        /* \"#utility.yul\":1703:1706   */\n      dup2\n        /* \"#utility.yul\":1698:1701   */\n      dup4\n        /* \"#utility.yul\":1685:1715   */\n      calldatacopy\n        /* \"#utility.yul\":1749:1750   */\n      0x00\n        /* \"#utility.yul\":1740:1746   */\n      dup4\n        /* \"#utility.yul\":1735:1738   */\n      dup4\n        /* \"#utility.yul\":1731:1747   */\n      add\n        /* \"#utility.yul\":1724:1751   */\n      mstore\n        /* \"#utility.yul\":1610:1758   */\n      pop\n      pop\n      pop\n      jump\t// out\n        /* \"#utility.yul\":1764:2189   */\n    tag_90:\n        /* \"#utility.yul\":1842:1847   */\n      0x00\n        /* \"#utility.yul\":1867:1933   */\n      tag_141\n        /* \"#utility.yul\":1883:1932   */\n      tag_142\n        /* \"#utility.yul\":1925:1931   */\n      dup5\n        /* \"#utility.yul\":1883:1932   */\n      tag_88\n      jump\t// in\n    tag_142:\n        /* \"#utility.yul\":1867:1933   */\n      tag_87\n      jump\t// in\n    tag_141:\n        /* \"#utility.yul\":1858:1933   */\n      swap1\n      pop\n        /* \"#utility.yul\":1956:1962   */\n      dup3\n        /* \"#utility.yul\":1949:1954   */\n      dup2\n        /* \"#utility.yul\":1942:1963   */\n      mstore\n        /* \"#utility.yul\":1994:1998   */\n      0x20\n        /* \"#utility.yul\":1987:1992   */\n      dup2\n        /* \"#utility.yul\":1983:1999   */\n      add\n        /* \"#utility.yul\":2032:2035   */\n      dup5\n        /* \"#utility.yul\":2023:2029   */\n      dup5\n        /* \"#utility.yul\":2018:2021   */\n      dup5\n        /* \"#utility.yul\":2014:2030   */\n      add\n        /* \"#utility.yul\":2011:2036   */\n      gt\n        /* \"#utility.yul\":2008:2120   */\n      iszero\n      tag_143\n      jumpi\n        /* \"#utility.yul\":2039:2118   */\n      tag_144\n      tag_83\n      jump\t// in\n    tag_144:\n        /* \"#utility.yul\":2008:2120   */\n    tag_143:\n        /* \"#utility.yul\":2129:2183   */\n      tag_145\n        /* \"#utility.yul\":2176:2182   */\n      dup5\n        /* \"#utility.yul\":2171:2174   */\n      dup3\n        /* \"#utility.yul\":2166:2169   */\n      dup6\n        /* \"#utility.yul\":2129:2183   */\n      tag_89\n      jump\t// in\n    tag_145:\n        /* \"#utility.yul\":1848:2189   */\n      pop\n        /* \"#utility.yul\":1764:2189   */\n      swap4\n      swap3\n      pop\n      pop\n      pop\n      jump\t// out\n        /* \"#utility.yul\":2209:2549   */\n    tag_91:\n        /* \"#utility.yul\":2265:2270   */\n      0x00\n        /* \"#utility.yul\":2314:2317   */\n      dup3\n        /* \"#utility.yul\":2307:2311   */\n      0x1f\n        /* \"#utility.yul\":2299:2305   */\n      dup4\n        /* \"#utility.yul\":2295:2312   */\n      add\n        /* \"#utility.yul\":2291:2318   */\n      slt\n        /* \"#utility.yul\":2281:2403   */\n      tag_147\n      jumpi\n        /* \"#utility.yul\":2322:2401   */\n      tag_148\n      tag_82\n      jump\t// in\n    tag_148:\n        /* \"#utility.yul\":2281:2403   */\n    tag_147:\n        /* \"#utility.yul\":2439:2445   */\n      dup2\n        /* \"#utility.yul\":2426:2446   */\n      calldataload\n        /* \"#utility.yul\":2464:2543   */\n      tag_149\n        /* \"#utility.yul\":2539:2542   */\n      dup5\n        /* \"#utility.yul\":2531:2537   */\n      dup3\n        /* \"#utility.yul\":2524:2528   */\n      0x20\n        /* \"#utility.yul\":2516:2522   */\n      dup7\n        /* \"#utility.yul\":2512:2529   */\n      add\n        /* \"#utility.yul\":2464:2543   */\n      tag_90\n      jump\t// in\n    tag_149:\n        /* \"#utility.yul\":2455:2543   */\n      swap2\n      pop\n        /* \"#utility.yul\":2271:2549   */\n      pop\n        /* \"#utility.yul\":2209:2549   */\n      swap3\n      swap2\n      pop\n      pop\n      jump\t// out\n        /* \"#utility.yul\":2555:3064   */\n    tag_10:\n        /* \"#utility.yul\":2624:2630   */\n      0x00\n        /* \"#utility.yul\":2673:2675   */\n      0x20\n        /* \"#utility.yul\":2661:2670   */\n      dup3\n        /* \"#utility.yul\":2652:2659   */\n      dup5\n        /* \"#utility.yul\":2648:2671   */\n      sub\n        /* \"#utility.yul\":2644:2676   */\n      slt\n        /* \"#utility.yul\":2641:2760   */\n      iszero\n      tag_151\n      jumpi\n        /* \"#utility.yul\":2679:2758   */\n      tag_152\n      tag_80\n      jump\t// in\n    tag_152:\n        /* \"#utility.yul\":2641:2760   */\n    tag_151:\n        /* \"#utility.yul\":2827:2828   */\n      0x00\n        /* \"#utility.yul\":2816:2825   */\n      dup3\n        /* \"#utility.yul\":2812:2829   */\n      add\n        /* \"#utility.yul\":2799:2830   */\n      calldataload\n        /* \"#utility.yul\":2857:2875   */\n      0xffffffffffffffff\n        /* \"#utility.yul\":2849:2855   */\n      dup2\n        /* \"#utility.yul\":2846:2876   */\n      gt\n        /* \"#utility.yul\":2843:2960   */\n      iszero\n      tag_153\n      jumpi\n        /* \"#utility.yul\":2879:2958   */\n      tag_154\n      tag_81\n      jump\t// in\n    tag_154:\n        /* \"#utility.yul\":2843:2960   */\n    tag_153:\n        /* \"#utility.yul\":2984:3047   */\n      tag_155\n        /* \"#utility.yul\":3039:3046   */\n      dup5\n        /* \"#utility.yul\":3030:3036   */\n      dup3\n        /* \"#utility.yul\":3019:3028   */\n      dup6\n        /* \"#utility.yul\":3015:3037   */\n      add\n        /* \"#utility.yul\":2984:3047   */\n      tag_91\n      jump\t// in\n    tag_155:\n        /* \"#utility.yul\":2974:3047   */\n      swap2\n      pop\n        /* \"#utility.yul\":2770:3057   */\n      pop\n        /* \"#utility.yul\":2555:3064   */\n      swap3\n      swap2\n      pop\n      pop\n      jump\t// out\n        /* \"#utility.yul\":3070:3196   */\n    tag_92:\n        /* \"#utility.yul\":3107:3114   */\n      0x00\n        /* \"#utility.yul\":3147:3189   */\n      0xffffffffffffffffffffffffffffffffffffffff\n        /* \"#utility.yul\":3140:3145   */\n      dup3\n        /* \"#utility.yul\":3136:3190   */\n      and\n        /* \"#utility.yul\":3125:3190   */\n      swap1\n      pop\n        /* \"#utility.yul\":3070:3196   */\n      swap2\n      swap1\n      pop\n      jump\t// out\n        /* \"#utility.yul\":3202:3298   */\n    tag_93:\n        /* \"#utility.yul\":3239:3246   */\n      0x00\n        /* \"#utility.yul\":3268:3292   */\n      tag_158\n        /* \"#utility.yul\":3286:3291   */\n      dup3\n        /* \"#utility.yul\":3268:3292   */\n      tag_92\n      jump\t// in\n    tag_158:\n        /* \"#utility.yul\":3257:3292   */\n      swap1\n      pop\n        /* \"#utility.yul\":3202:3298   */\n      swap2\n      swap1\n      pop\n      jump\t// out\n        /* \"#utility.yul\":3304:3422   */\n    tag_94:\n        /* \"#utility.yul\":3391:3415   */\n      tag_160\n        /* \"#utility.yul\":3409:3414   */\n      dup2\n        /* \"#utility.yul\":3391:3415   */\n      tag_93\n      jump\t// in\n    tag_160:\n        /* \"#utility.yul\":3386:3389   */\n      dup3\n        /* \"#utility.yul\":3379:3416   */\n      mstore\n        /* \"#utility.yul\":3304:3422   */\n      pop\n      pop\n      jump\t// out\n        /* \"#utility.yul\":3428:3650   */\n    tag_13:\n        /* \"#utility.yul\":3521:3525   */\n      0x00\n        /* \"#utility.yul\":3559:3561   */\n      0x20\n        /* \"#utility.yul\":3548:3557   */\n      dup3\n        /* \"#utility.yul\":3544:3562   */\n      add\n        /* \"#utility.yul\":3536:3562   */\n      swap1\n      pop\n        /* \"#utility.yul\":3572:3643   */\n      tag_162\n        /* \"#utility.yul\":3640:3641   */\n      0x00\n        /* \"#utility.yul\":3629:3638   */\n      dup4\n        /* \"#utility.yul\":3625:3642   */\n      add\n        /* \"#utility.yul\":3616:3622   */\n      dup5\n        /* \"#utility.yul\":3572:3643   */\n      tag_94\n      jump\t// in\n    tag_162:\n        /* \"#utility.yul\":3428:3650   */\n      swap3\n      swap2\n      pop\n      pop\n      jump\t// out\n        /* \"#utility.yul\":3656:3716   */\n    tag_95:\n        /* \"#utility.yul\":3684:3687   */\n      0x00\n        /* \"#utility.yul\":3705:3710   */\n      dup2\n        /* \"#utility.yul\":3698:3710   */\n      swap1\n      pop\n        /* \"#utility.yul\":3656:3716   */\n      swap2\n      swap1\n      pop\n      jump\t// out\n        /* \"#utility.yul\":3722:3864   */\n    tag_96:\n        /* \"#utility.yul\":3772:3781   */\n      0x00\n        /* \"#utility.yul\":3805:3858   */\n      tag_165\n        /* \"#utility.yul\":3823:3857   */\n      tag_166\n        /* \"#utility.yul\":3832:3856   */\n      tag_167\n        /* \"#utility.yul\":3850:3855   */\n      dup5\n        /* \"#utility.yul\":3832:3856   */\n      tag_92\n      jump\t// in\n    tag_167:\n        /* \"#utility.yul\":3823:3857   */\n      tag_95\n      jump\t// in\n    tag_166:\n        /* \"#utility.yul\":3805:3858   */\n      tag_92\n      jump\t// in\n    tag_165:\n        /* \"#utility.yul\":3792:3858   */\n      swap1\n      pop\n        /* \"#utility.yul\":3722:3864   */\n      swap2\n      swap1\n      pop\n      jump\t// out\n        /* \"#utility.yul\":3870:3996   */\n    tag_97:\n        /* \"#utility.yul\":3920:3929   */\n      0x00\n        /* \"#utility.yul\":3953:3990   */\n      tag_169\n        /* \"#utility.yul\":3984:3989   */\n      dup3\n        /* \"#utility.yul\":3953:3990   */\n      tag_96\n      jump\t// in\n    tag_169:\n        /* \"#utility.yul\":3940:3990   */\n      swap1\n      pop\n        /* \"#utility.yul\":3870:3996   */\n      swap2\n      swap1\n      pop\n      jump\t// out\n        /* \"#utility.yul\":4002:4145   */\n    tag_98:\n        /* \"#utility.yul\":4069:4078   */\n      0x00\n        /* \"#utility.yul\":4102:4139   */\n      tag_171\n        /* \"#utility.yul\":4133:4138   */\n      dup3\n        /* \"#utility.yul\":4102:4139   */\n      tag_97\n      jump\t// in\n    tag_171:\n        /* \"#utility.yul\":4089:4139   */\n      swap1\n      pop\n        /* \"#utility.yul\":4002:4145   */\n      swap2\n      swap1\n      pop\n      jump\t// out\n        /* \"#utility.yul\":4151:4316   */\n    tag_99:\n        /* \"#utility.yul\":4255:4309   */\n      tag_173\n        /* \"#utility.yul\":4303:4308   */\n      dup2\n        /* \"#utility.yul\":4255:4309   */\n      tag_98\n      jump\t// in\n    tag_173:\n        /* \"#utility.yul\":4250:4253   */\n      dup3\n        /* \"#utility.yul\":4243:4310   */\n      mstore\n        /* \"#utility.yul\":4151:4316   */\n      pop\n      pop\n      jump\t// out\n        /* \"#utility.yul\":4322:4578   */\n    tag_17:\n        /* \"#utility.yul\":4432:4436   */\n      0x00\n        /* \"#utility.yul\":4470:4472   */\n      0x20\n        /* \"#utility.yul\":4459:4468   */\n      dup3\n        /* \"#utility.yul\":4455:4473   */\n      add\n        /* \"#utility.yul\":4447:4473   */\n      swap1\n      pop\n        /* \"#utility.yul\":4483:4571   */\n      tag_175\n        /* \"#utility.yul\":4568:4569   */\n      0x00\n        /* \"#utility.yul\":4557:4566   */\n      dup4\n        /* \"#utility.yul\":4553:4570   */\n      add\n        /* \"#utility.yul\":4544:4550   */\n      dup5\n        /* \"#utility.yul\":4483:4571   */\n      tag_99\n      jump\t// in\n    tag_175:\n        /* \"#utility.yul\":4322:4578   */\n      swap3\n      swap2\n      pop\n      pop\n      jump\t// out\n        /* \"#utility.yul\":4584:4706   */\n    tag_100:\n        /* \"#utility.yul\":4657:4681   */\n      tag_177\n        /* \"#utility.yul\":4675:4680   */\n      dup2\n        /* \"#utility.yul\":4657:4681   */\n      tag_93\n      jump\t// in\n    tag_177:\n        /* \"#utility.yul\":4650:4655   */\n      dup2\n        /* \"#utility.yul\":4647:4682   */\n      eq\n        /* \"#utility.yul\":4637:4700   */\n      tag_178\n      jumpi\n        /* \"#utility.yul\":4696:4697   */\n      0x00\n        /* \"#utility.yul\":4693:4694   */\n      0x00\n        /* \"#utility.yul\":4686:4698   */\n      revert\n        /* \"#utility.yul\":4637:4700   */\n    tag_178:\n        /* \"#utility.yul\":4584:4706   */\n      pop\n      jump\t// out\n        /* \"#utility.yul\":4712:4851   */\n    tag_101:\n        /* \"#utility.yul\":4758:4763   */\n      0x00\n        /* \"#utility.yul\":4796:4802   */\n      dup2\n        /* \"#utility.yul\":4783:4803   */\n      calldataload\n        /* \"#utility.yul\":4774:4803   */\n      swap1\n      pop\n        /* \"#utility.yul\":4812:4845   */\n      tag_180\n        /* \"#utility.yul\":4839:4844   */\n      dup2\n        /* \"#utility.yul\":4812:4845   */\n      tag_100\n      jump\t// in\n    tag_180:\n        /* \"#utility.yul\":4712:4851   */\n      swap3\n      swap2\n      pop\n      pop\n      jump\t// out\n        /* \"#utility.yul\":4857:5186   */\n    tag_23:\n        /* \"#utility.yul\":4916:4922   */\n      0x00\n        /* \"#utility.yul\":4965:4967   */\n      0x20\n        /* \"#utility.yul\":4953:4962   */\n      dup3\n        /* \"#utility.yul\":4944:4951   */\n      dup5\n        /* \"#utility.yul\":4940:4963   */\n      sub\n        /* \"#utility.yul\":4936:4968   */\n      slt\n        /* \"#utility.yul\":4933:5052   */\n      iszero\n      tag_182\n      jumpi\n        /* \"#utility.yul\":4971:5050   */\n      tag_183\n      tag_80\n      jump\t// in\n    tag_183:\n        /* \"#utility.yul\":4933:5052   */\n    tag_182:\n        /* \"#utility.yul\":5091:5092   */\n      0x00\n        /* \"#utility.yul\":5116:5169   */\n      tag_184\n        /* \"#utility.yul\":5161:5168   */\n      dup5\n        /* \"#utility.yul\":5152:5158   */\n      dup3\n        /* \"#utility.yul\":5141:5150   */\n      dup6\n        /* \"#utility.yul\":5137:5159   */\n      add\n        /* \"#utility.yul\":5116:5169   */\n      tag_101\n      jump\t// in\n    tag_184:\n        /* \"#utility.yul\":5106:5169   */\n      swap2\n      pop\n        /* \"#utility.yul\":5062:5179   */\n      pop\n        /* \"#utility.yul\":4857:5186   */\n      swap3\n      swap2\n      pop\n      pop\n      jump\t// out\n        /* \"#utility.yul\":5192:5269   */\n    tag_102:\n        /* \"#utility.yul\":5229:5236   */\n      0x00\n        /* \"#utility.yul\":5258:5263   */\n      dup2\n        /* \"#utility.yul\":5247:5263   */\n      swap1\n      pop\n        /* \"#utility.yul\":5192:5269   */\n      swap2\n      swap1\n      pop\n      jump\t// out\n        /* \"#utility.yul\":5275:5397   */\n    tag_103:\n        /* \"#utility.yul\":5348:5372   */\n      tag_187\n        /* \"#utility.yul\":5366:5371   */\n      dup2\n        /* \"#utility.yul\":5348:5372   */\n      tag_102\n      jump\t// in\n    tag_187:\n        /* \"#utility.yul\":5341:5346   */\n      dup2\n        /* \"#utility.yul\":5338:5373   */\n      eq\n        /* \"#utility.yul\":5328:5391   */\n      tag_188\n      jumpi\n        /* \"#utility.yul\":5387:5388   */\n      0x00\n        /* \"#utility.yul\":5384:5385   */\n      0x00\n        /* \"#utility.yul\":5377:5389   */\n      revert\n        /* \"#utility.yul\":5328:5391   */\n    tag_188:\n        /* \"#utility.yul\":5275:5397   */\n      pop\n      jump\t// out\n        /* \"#utility.yul\":5403:5542   */\n    tag_104:\n        /* \"#utility.yul\":5449:5454   */\n      0x00\n        /* \"#utility.yul\":5487:5493   */\n      dup2\n        /* \"#utility.yul\":5474:5494   */\n      calldataload\n        /* \"#utility.yul\":5465:5494   */\n      swap1\n      pop\n        /* \"#utility.yul\":5503:5536   */\n      tag_190\n        /* \"#utility.yul\":5530:5535   */\n      dup2\n        /* \"#utility.yul\":5503:5536   */\n      tag_103\n      jump\t// in\n    tag_190:\n        /* \"#utility.yul\":5403:5542   */\n      swap3\n      swap2\n      pop\n      pop\n      jump\t// out\n        /* \"#utility.yul\":5548:6313   */\n    tag_27:\n        /* \"#utility.yul\":5634:5640   */\n      0x00\n        /* \"#utility.yul\":5642:5648   */\n      0x00\n        /* \"#utility.yul\":5650:5656   */\n      0x00\n        /* \"#utility.yul\":5658:5664   */\n      0x00\n        /* \"#utility.yul\":5707:5710   */\n      0x80\n        /* \"#utility.yul\":5695:5704   */\n      dup6\n        /* \"#utility.yul\":5686:5693   */\n      dup8\n        /* \"#utility.yul\":5682:5705   */\n      sub\n        /* \"#utility.yul\":5678:5711   */\n      slt\n        /* \"#utility.yul\":5675:5795   */\n      iszero\n      tag_192\n      jumpi\n        /* \"#utility.yul\":5714:5793   */\n      tag_193\n      tag_80\n      jump\t// in\n    tag_193:\n        /* \"#utility.yul\":5675:5795   */\n    tag_192:\n        /* \"#utility.yul\":5834:5835   */\n      0x00\n        /* \"#utility.yul\":5859:5912   */\n      tag_194\n        /* \"#utility.yul\":5904:5911   */\n      dup8\n        /* \"#utility.yul\":5895:5901   */\n      dup3\n        /* \"#utility.yul\":5884:5893   */\n      dup9\n        /* \"#utility.yul\":5880:5902   */\n      add\n        /* \"#utility.yul\":5859:5912   */\n      tag_104\n      jump\t// in\n    tag_194:\n        /* \"#utility.yul\":5849:5912   */\n      swap5\n      pop\n        /* \"#utility.yul\":5805:5922   */\n      pop\n        /* \"#utility.yul\":5961:5963   */\n      0x20\n        /* \"#utility.yul\":5987:6040   */\n      tag_195\n        /* \"#utility.yul\":6032:6039   */\n      dup8\n        /* \"#utility.yul\":6023:6029   */\n      dup3\n        /* \"#utility.yul\":6012:6021   */\n      dup9\n        /* \"#utility.yul\":6008:6030   */\n      add\n        /* \"#utility.yul\":5987:6040   */\n      tag_101\n      jump\t// in\n    tag_195:\n        /* \"#utility.yul\":5977:6040   */\n      swap4\n      pop\n        /* \"#utility.yul\":5932:6050   */\n      pop\n        /* \"#utility.yul\":6089:6091   */\n      0x40\n        /* \"#utility.yul\":6115:6168   */\n      tag_196\n        /* \"#utility.yul\":6160:6167   */\n      dup8\n        /* \"#utility.yul\":6151:6157   */\n      dup3\n        /* \"#utility.yul\":6140:6149   */\n      dup9\n        /* \"#utility.yul\":6136:6158   */\n      add\n        /* \"#utility.yul\":6115:6168   */\n      tag_101\n      jump\t// in\n    tag_196:\n        /* \"#utility.yul\":6105:6168   */\n      swap3\n      pop\n        /* \"#utility.yul\":6060:6178   */\n      pop\n        /* \"#utility.yul\":6217:6219   */\n      0x60\n        /* \"#utility.yul\":6243:6296   */\n      tag_197\n        /* \"#utility.yul\":6288:6295   */\n      dup8\n        /* \"#utility.yul\":6279:6285   */\n      dup3\n        /* \"#utility.yul\":6268:6277   */\n      dup9\n        /* \"#utility.yul\":6264:6286   */\n      add\n        /* \"#utility.yul\":6243:6296   */\n      tag_104\n      jump\t// in\n    tag_197:\n        /* \"#utility.yul\":6233:6296   */\n      swap2\n      pop\n        /* \"#utility.yul\":6188:6306   */\n      pop\n        /* \"#utility.yul\":5548:6313   */\n      swap3\n      swap6\n      swap2\n      swap5\n      pop\n      swap3\n      pop\n      jump\t// out\n        /* \"#utility.yul\":6319:6418   */\n    tag_105:\n        /* \"#utility.yul\":6371:6377   */\n      0x00\n        /* \"#utility.yul\":6405:6410   */\n      dup2\n        /* \"#utility.yul\":6399:6411   */\n      mload\n        /* \"#utility.yul\":6389:6411   */\n      swap1\n      pop\n        /* \"#utility.yul\":6319:6418   */\n      swap2\n      swap1\n      pop\n      jump\t// out\n        /* \"#utility.yul\":6424:6593   */\n    tag_106:\n        /* \"#utility.yul\":6508:6519   */\n      0x00\n        /* \"#utility.yul\":6542:6548   */\n      dup3\n        /* \"#utility.yul\":6537:6540   */\n      dup3\n        /* \"#utility.yul\":6530:6549   */\n      mstore\n        /* \"#utility.yul\":6582:6586   */\n      0x20\n        /* \"#utility.yul\":6577:6580   */\n      dup3\n        /* \"#utility.yul\":6573:6587   */\n      add\n        /* \"#utility.yul\":6558:6587   */\n      swap1\n      pop\n        /* \"#utility.yul\":6424:6593   */\n      swap3\n      swap2\n      pop\n      pop\n      jump\t// out\n        /* \"#utility.yul\":6599:6738   */\n    tag_107:\n        /* \"#utility.yul\":6688:6694   */\n      dup3\n        /* \"#utility.yul\":6683:6686   */\n      dup2\n        /* \"#utility.yul\":6678:6681   */\n      dup4\n        /* \"#utility.yul\":6672:6695   */\n      mcopy\n        /* \"#utility.yul\":6729:6730   */\n      0x00\n        /* \"#utility.yul\":6720:6726   */\n      dup4\n        /* \"#utility.yul\":6715:6718   */\n      dup4\n        /* \"#utility.yul\":6711:6727   */\n      add\n        /* \"#utility.yul\":6704:6731   */\n      mstore\n        /* \"#utility.yul\":6599:6738   */\n      pop\n      pop\n      pop\n      jump\t// out\n        /* \"#utility.yul\":6744:7121   */\n    tag_108:\n        /* \"#utility.yul\":6832:6835   */\n      0x00\n        /* \"#utility.yul\":6860:6899   */\n      tag_202\n        /* \"#utility.yul\":6893:6898   */\n      dup3\n        /* \"#utility.yul\":6860:6899   */\n      tag_105\n      jump\t// in\n    tag_202:\n        /* \"#utility.yul\":6915:6986   */\n      tag_203\n        /* \"#utility.yul\":6979:6985   */\n      dup2\n        /* \"#utility.yul\":6974:6977   */\n      dup6\n        /* \"#utility.yul\":6915:6986   */\n      tag_106\n      jump\t// in\n    tag_203:\n        /* \"#utility.yul\":6908:6986   */\n      swap4\n      pop\n        /* \"#utility.yul\":6995:7060   */\n      tag_204\n        /* \"#utility.yul\":7053:7059   */\n      dup2\n        /* \"#utility.yul\":7048:7051   */\n      dup6\n        /* \"#utility.yul\":7041:7045   */\n      0x20\n        /* \"#utility.yul\":7034:7039   */\n      dup7\n        /* \"#utility.yul\":7030:7046   */\n      add\n        /* \"#utility.yul\":6995:7060   */\n      tag_107\n      jump\t// in\n    tag_204:\n        /* \"#utility.yul\":7085:7114   */\n      tag_205\n        /* \"#utility.yul\":7107:7113   */\n      dup2\n        /* \"#utility.yul\":7085:7114   */\n      tag_84\n      jump\t// in\n    tag_205:\n        /* \"#utility.yul\":7080:7083   */\n      dup5\n        /* \"#utility.yul\":7076:7115   */\n      add\n        /* \"#utility.yul\":7069:7115   */\n      swap2\n      pop\n        /* \"#utility.yul\":6836:7121   */\n      pop\n        /* \"#utility.yul\":6744:7121   */\n      swap3\n      swap2\n      pop\n      pop\n      jump\t// out\n        /* \"#utility.yul\":7127:7440   */\n    tag_31:\n        /* \"#utility.yul\":7240:7244   */\n      0x00\n        /* \"#utility.yul\":7278:7280   */\n      0x20\n        /* \"#utility.yul\":7267:7276   */\n      dup3\n        /* \"#utility.yul\":7263:7281   */\n      add\n        /* \"#utility.yul\":7255:7281   */\n      swap1\n      pop\n        /* \"#utility.yul\":7327:7336   */\n      dup2\n        /* \"#utility.yul\":7321:7325   */\n      dup2\n        /* \"#utility.yul\":7317:7337   */\n      sub\n        /* \"#utility.yul\":7313:7314   */\n      0x00\n        /* \"#utility.yul\":7302:7311   */\n      dup4\n        /* \"#utility.yul\":7298:7315   */\n      add\n        /* \"#utility.yul\":7291:7338   */\n      mstore\n        /* \"#utility.yul\":7355:7433   */\n      tag_207\n        /* \"#utility.yul\":7428:7432   */\n      dup2\n        /* \"#utility.yul\":7419:7425   */\n      dup5\n        /* \"#utility.yul\":7355:7433   */\n      tag_108\n      jump\t// in\n    tag_207:\n        /* \"#utility.yul\":7347:7433   */\n      swap1\n      pop\n        /* \"#utility.yul\":7127:7440   */\n      swap3\n      swap2\n      pop\n      pop\n      jump\t// out\n        /* \"#utility.yul\":7446:7589   */\n    tag_109:\n        /* \"#utility.yul\":7503:7508   */\n      0x00\n        /* \"#utility.yul\":7534:7540   */\n      dup2\n        /* \"#utility.yul\":7528:7541   */\n      mload\n        /* \"#utility.yul\":7519:7541   */\n      swap1\n      pop\n        /* \"#utility.yul\":7550:7583   */\n      tag_209\n        /* \"#utility.yul\":7577:7582   */\n      dup2\n        /* \"#utility.yul\":7550:7583   */\n      tag_100\n      jump\t// in\n    tag_209:\n        /* \"#utility.yul\":7446:7589   */\n      swap3\n      swap2\n      pop\n      pop\n      jump\t// out\n        /* \"#utility.yul\":7595:7946   */\n    tag_35:\n        /* \"#utility.yul\":7665:7671   */\n      0x00\n        /* \"#utility.yul\":7714:7716   */\n      0x20\n        /* \"#utility.yul\":7702:7711   */\n      dup3\n        /* \"#utility.yul\":7693:7700   */\n      dup5\n        /* \"#utility.yul\":7689:7712   */\n      sub\n        /* \"#utility.yul\":7685:7717   */\n      slt\n        /* \"#utility.yul\":7682:7801   */\n      iszero\n      tag_211\n      jumpi\n        /* \"#utility.yul\":7720:7799   */\n      tag_212\n      tag_80\n      jump\t// in\n    tag_212:\n        /* \"#utility.yul\":7682:7801   */\n    tag_211:\n        /* \"#utility.yul\":7840:7841   */\n      0x00\n        /* \"#utility.yul\":7865:7929   */\n      tag_213\n        /* \"#utility.yul\":7921:7928   */\n      dup5\n        /* \"#utility.yul\":7912:7918   */\n      dup3\n        /* \"#utility.yul\":7901:7910   */\n      dup6\n        /* \"#utility.yul\":7897:7919   */\n      add\n        /* \"#utility.yul\":7865:7929   */\n      tag_109\n      jump\t// in\n    tag_213:\n        /* \"#utility.yul\":7855:7929   */\n      swap2\n      pop\n        /* \"#utility.yul\":7811:7939   */\n      pop\n        /* \"#utility.yul\":7595:7946   */\n      swap3\n      swap2\n      pop\n      pop\n      jump\t// out\n        /* \"#utility.yul\":7952:8125   */\n    tag_110:\n        /* \"#utility.yul\":8092:8117   */\n      0x43616c6c6572206973206e6f7420746865206f776e6572000000000000000000\n        /* \"#utility.yul\":8088:8089   */\n      0x00\n        /* \"#utility.yul\":8080:8086   */\n      dup3\n        /* \"#utility.yul\":8076:8090   */\n      add\n        /* \"#utility.yul\":8069:8118   */\n      mstore\n        /* \"#utility.yul\":7952:8125   */\n      pop\n      jump\t// out\n        /* \"#utility.yul\":8131:8497   */\n    tag_111:\n        /* \"#utility.yul\":8273:8276   */\n      0x00\n        /* \"#utility.yul\":8294:8361   */\n      tag_216\n        /* \"#utility.yul\":8358:8360   */\n      0x17\n        /* \"#utility.yul\":8353:8356   */\n      dup4\n        /* \"#utility.yul\":8294:8361   */\n      tag_106\n      jump\t// in\n    tag_216:\n        /* \"#utility.yul\":8287:8361   */\n      swap2\n      pop\n        /* \"#utility.yul\":8370:8463   */\n      tag_217\n        /* \"#utility.yul\":8459:8462   */\n      dup3\n        /* \"#utility.yul\":8370:8463   */\n      tag_110\n      jump\t// in\n    tag_217:\n        /* \"#utility.yul\":8488:8490   */\n      0x20\n        /* \"#utility.yul\":8483:8486   */\n      dup3\n        /* \"#utility.yul\":8479:8491   */\n      add\n        /* \"#utility.yul\":8472:8491   */\n      swap1\n      pop\n        /* \"#utility.yul\":8131:8497   */\n      swap2\n      swap1\n      pop\n      jump\t// out\n        /* \"#utility.yul\":8503:8922   */\n    tag_46:\n        /* \"#utility.yul\":8669:8673   */\n      0x00\n        /* \"#utility.yul\":8707:8709   */\n      0x20\n        /* \"#utility.yul\":8696:8705   */\n      dup3\n        /* \"#utility.yul\":8692:8710   */\n      add\n        /* \"#utility.yul\":8684:8710   */\n      swap1\n      pop\n        /* \"#utility.yul\":8756:8765   */\n      dup2\n        /* \"#utility.yul\":8750:8754   */\n      dup2\n        /* \"#utility.yul\":8746:8766   */\n      sub\n        /* \"#utility.yul\":8742:8743   */\n      0x00\n        /* \"#utility.yul\":8731:8740   */\n      dup4\n        /* \"#utility.yul\":8727:8744   */\n      add\n        /* \"#utility.yul\":8720:8767   */\n      mstore\n        /* \"#utility.yul\":8784:8915   */\n      tag_219\n        /* \"#utility.yul\":8910:8914   */\n      dup2\n        /* \"#utility.yul\":8784:8915   */\n      tag_111\n      jump\t// in\n    tag_219:\n        /* \"#utility.yul\":8776:8915   */\n      swap1\n      pop\n        /* \"#utility.yul\":8503:8922   */\n      swap2\n      swap1\n      pop\n      jump\t// out\n        /* \"#utility.yul\":8928:9046   */\n    tag_112:\n        /* \"#utility.yul\":9015:9039   */\n      tag_221\n        /* \"#utility.yul\":9033:9038   */\n      dup2\n        /* \"#utility.yul\":9015:9039   */\n      tag_102\n      jump\t// in\n    tag_221:\n        /* \"#utility.yul\":9010:9013   */\n      dup3\n        /* \"#utility.yul\":9003:9040   */\n      mstore\n        /* \"#utility.yul\":8928:9046   */\n      pop\n      pop\n      jump\t// out\n        /* \"#utility.yul\":9052:9274   */\n    tag_54:\n        /* \"#utility.yul\":9145:9149   */\n      0x00\n        /* \"#utility.yul\":9183:9185   */\n      0x20\n        /* \"#utility.yul\":9172:9181   */\n      dup3\n        /* \"#utility.yul\":9168:9186   */\n      add\n        /* \"#utility.yul\":9160:9186   */\n      swap1\n      pop\n        /* \"#utility.yul\":9196:9267   */\n      tag_223\n        /* \"#utility.yul\":9264:9265   */\n      0x00\n        /* \"#utility.yul\":9253:9262   */\n      dup4\n        /* \"#utility.yul\":9249:9266   */\n      add\n        /* \"#utility.yul\":9240:9246   */\n      dup5\n        /* \"#utility.yul\":9196:9267   */\n      tag_112\n      jump\t// in\n    tag_223:\n        /* \"#utility.yul\":9052:9274   */\n      swap3\n      swap2\n      pop\n      pop\n      jump\t// out\n        /* \"#utility.yul\":9280:9423   */\n    tag_113:\n        /* \"#utility.yul\":9337:9342   */\n      0x00\n        /* \"#utility.yul\":9368:9374   */\n      dup2\n        /* \"#utility.yul\":9362:9375   */\n      mload\n        /* \"#utility.yul\":9353:9375   */\n      swap1\n      pop\n        /* \"#utility.yul\":9384:9417   */\n      tag_225\n        /* \"#utility.yul\":9411:9416   */\n      dup2\n        /* \"#utility.yul\":9384:9417   */\n      tag_103\n      jump\t// in\n    tag_225:\n        /* \"#utility.yul\":9280:9423   */\n      swap3\n      swap2\n      pop\n      pop\n      jump\t// out\n        /* \"#utility.yul\":9429:9936   */\n    tag_58:\n        /* \"#utility.yul\":9508:9514   */\n      0x00\n        /* \"#utility.yul\":9516:9522   */\n      0x00\n        /* \"#utility.yul\":9565:9567   */\n      0x40\n        /* \"#utility.yul\":9553:9562   */\n      dup4\n        /* \"#utility.yul\":9544:9551   */\n      dup6\n        /* \"#utility.yul\":9540:9563   */\n      sub\n        /* \"#utility.yul\":9536:9568   */\n      slt\n        /* \"#utility.yul\":9533:9652   */\n      iszero\n      tag_227\n      jumpi\n        /* \"#utility.yul\":9571:9650   */\n      tag_228\n      tag_80\n      jump\t// in\n    tag_228:\n        /* \"#utility.yul\":9533:9652   */\n    tag_227:\n        /* \"#utility.yul\":9691:9692   */\n      0x00\n        /* \"#utility.yul\":9716:9780   */\n      tag_229\n        /* \"#utility.yul\":9772:9779   */\n      dup6\n        /* \"#utility.yul\":9763:9769   */\n      dup3\n        /* \"#utility.yul\":9752:9761   */\n      dup7\n        /* \"#utility.yul\":9748:9770   */\n      add\n        /* \"#utility.yul\":9716:9780   */\n      tag_113\n      jump\t// in\n    tag_229:\n        /* \"#utility.yul\":9706:9780   */\n      swap3\n      pop\n        /* \"#utility.yul\":9662:9790   */\n      pop\n        /* \"#utility.yul\":9829:9831   */\n      0x20\n        /* \"#utility.yul\":9855:9919   */\n      tag_230\n        /* \"#utility.yul\":9911:9918   */\n      dup6\n        /* \"#utility.yul\":9902:9908   */\n      dup3\n        /* \"#utility.yul\":9891:9900   */\n      dup7\n        /* \"#utility.yul\":9887:9909   */\n      add\n        /* \"#utility.yul\":9855:9919   */\n      tag_113\n      jump\t// in\n    tag_230:\n        /* \"#utility.yul\":9845:9919   */\n      swap2\n      pop\n        /* \"#utility.yul\":9800:9929   */\n      pop\n        /* \"#utility.yul\":9429:9936   */\n      swap3\n      pop\n      swap3\n      swap1\n      pop\n      jump\t// out\n        /* \"#utility.yul\":9942:10384   */\n    tag_60:\n        /* \"#utility.yul\":10091:10095   */\n      0x00\n        /* \"#utility.yul\":10129:10131   */\n      0x60\n        /* \"#utility.yul\":10118:10127   */\n      dup3\n        /* \"#utility.yul\":10114:10132   */\n      add\n        /* \"#utility.yul\":10106:10132   */\n      swap1\n      pop\n        /* \"#utility.yul\":10142:10213   */\n      tag_232\n        /* \"#utility.yul\":10210:10211   */\n      0x00\n        /* \"#utility.yul\":10199:10208   */\n      dup4\n        /* \"#utility.yul\":10195:10212   */\n      add\n        /* \"#utility.yul\":10186:10192   */\n      dup7\n        /* \"#utility.yul\":10142:10213   */\n      tag_112\n      jump\t// in\n    tag_232:\n        /* \"#utility.yul\":10223:10295   */\n      tag_233\n        /* \"#utility.yul\":10291:10293   */\n      0x20\n        /* \"#utility.yul\":10280:10289   */\n      dup4\n        /* \"#utility.yul\":10276:10294   */\n      add\n        /* \"#utility.yul\":10267:10273   */\n      dup6\n        /* \"#utility.yul\":10223:10295   */\n      tag_112\n      jump\t// in\n    tag_233:\n        /* \"#utility.yul\":10305:10377   */\n      tag_234\n        /* \"#utility.yul\":10373:10375   */\n      0x40\n        /* \"#utility.yul\":10362:10371   */\n      dup4\n        /* \"#utility.yul\":10358:10376   */\n      add\n        /* \"#utility.yul\":10349:10355   */\n      dup5\n        /* \"#utility.yul\":10305:10377   */\n      tag_112\n      jump\t// in\n    tag_234:\n        /* \"#utility.yul\":9942:10384   */\n      swap5\n      swap4\n      pop\n      pop\n      pop\n      pop\n      jump\t// out\n        /* \"#utility.yul\":10390:10572   */\n    tag_114:\n        /* \"#utility.yul\":10530:10564   */\n      0x4469726563746f72792063616e6e6f74206265207a65726f2061646472657373\n        /* \"#utility.yul\":10526:10527   */\n      0x00\n        /* \"#utility.yul\":10518:10524   */\n      dup3\n        /* \"#utility.yul\":10514:10528   */\n      add\n        /* \"#utility.yul\":10507:10565   */\n      mstore\n        /* \"#utility.yul\":10390:10572   */\n      pop\n      jump\t// out\n        /* \"#utility.yul\":10578:10944   */\n    tag_115:\n        /* \"#utility.yul\":10720:10723   */\n      0x00\n        /* \"#utility.yul\":10741:10808   */\n      tag_237\n        /* \"#utility.yul\":10805:10807   */\n      0x20\n        /* \"#utility.yul\":10800:10803   */\n      dup4\n        /* \"#utility.yul\":10741:10808   */\n      tag_106\n      jump\t// in\n    tag_237:\n        /* \"#utility.yul\":10734:10808   */\n      swap2\n      pop\n        /* \"#utility.yul\":10817:10910   */\n      tag_238\n        /* \"#utility.yul\":10906:10909   */\n      dup3\n        /* \"#utility.yul\":10817:10910   */\n      tag_114\n      jump\t// in\n    tag_238:\n        /* \"#utility.yul\":10935:10937   */\n      0x20\n        /* \"#utility.yul\":10930:10933   */\n      dup3\n        /* \"#utility.yul\":10926:10938   */\n      add\n        /* \"#utility.yul\":10919:10938   */\n      swap1\n      pop\n        /* \"#utility.yul\":10578:10944   */\n      swap2\n      swap1\n      pop\n      jump\t// out\n        /* \"#utility.yul\":10950:11369   */\n    tag_64:\n        /* \"#utility.yul\":11116:11120   */\n      0x00\n        /* \"#utility.yul\":11154:11156   */\n      0x20\n        /* \"#utility.yul\":11143:11152   */\n      dup3\n        /* \"#utility.yul\":11139:11157   */\n      add\n        /* \"#utility.yul\":11131:11157   */\n      swap1\n      pop\n        /* \"#utility.yul\":11203:11212   */\n      dup2\n        /* \"#utility.yul\":11197:11201   */\n      dup2\n        /* \"#utility.yul\":11193:11213   */\n      sub\n        /* \"#utility.yul\":11189:11190   */\n      0x00\n        /* \"#utility.yul\":11178:11187   */\n      dup4\n        /* \"#utility.yul\":11174:11191   */\n      add\n        /* \"#utility.yul\":11167:11214   */\n      mstore\n        /* \"#utility.yul\":11231:11362   */\n      tag_240\n        /* \"#utility.yul\":11357:11361   */\n      dup2\n        /* \"#utility.yul\":11231:11362   */\n      tag_115\n      jump\t// in\n    tag_240:\n        /* \"#utility.yul\":11223:11362   */\n      swap1\n      pop\n        /* \"#utility.yul\":10950:11369   */\n      swap2\n      swap1\n      pop\n      jump\t// out\n        /* \"#utility.yul\":11375:11553   */\n    tag_116:\n        /* \"#utility.yul\":11515:11545   */\n      0x4469726563746f7279206d757374206265206120636f6e747261637400000000\n        /* \"#utility.yul\":11511:11512   */\n      0x00\n        /* \"#utility.yul\":11503:11509   */\n      dup3\n        /* \"#utility.yul\":11499:11513   */\n      add\n        /* \"#utility.yul\":11492:11546   */\n      mstore\n        /* \"#utility.yul\":11375:11553   */\n      pop\n      jump\t// out\n        /* \"#utility.yul\":11559:11925   */\n    tag_117:\n        /* \"#utility.yul\":11701:11704   */\n      0x00\n        /* \"#utility.yul\":11722:11789   */\n      tag_243\n        /* \"#utility.yul\":11786:11788   */\n      0x1c\n        /* \"#utility.yul\":11781:11784   */\n      dup4\n        /* \"#utility.yul\":11722:11789   */\n      tag_106\n      jump\t// in\n    tag_243:\n        /* \"#utility.yul\":11715:11789   */\n      swap2\n      pop\n        /* \"#utility.yul\":11798:11891   */\n      tag_244\n        /* \"#utility.yul\":11887:11890   */\n      dup3\n        /* \"#utility.yul\":11798:11891   */\n      tag_116\n      jump\t// in\n    tag_244:\n        /* \"#utility.yul\":11916:11918   */\n      0x20\n        /* \"#utility.yul\":11911:11914   */\n      dup3\n        /* \"#utility.yul\":11907:11919   */\n      add\n        /* \"#utility.yul\":11900:11919   */\n      swap1\n      pop\n        /* \"#utility.yul\":11559:11925   */\n      swap2\n      swap1\n      pop\n      jump\t// out\n        /* \"#utility.yul\":11931:12350   */\n    tag_67:\n        /* \"#utility.yul\":12097:12101   */\n      0x00\n        /* \"#utility.yul\":12135:12137   */\n      0x20\n        /* \"#utility.yul\":12124:12133   */\n      dup3\n        /* \"#utility.yul\":12120:12138   */\n      add\n        /* \"#utility.yul\":12112:12138   */\n      swap1\n      pop\n        /* \"#utility.yul\":12184:12193   */\n      dup2\n        /* \"#utility.yul\":12178:12182   */\n      dup2\n        /* \"#utility.yul\":12174:12194   */\n      sub\n        /* \"#utility.yul\":12170:12171   */\n      0x00\n        /* \"#utility.yul\":12159:12168   */\n      dup4\n        /* \"#utility.yul\":12155:12172   */\n      add\n        /* \"#utility.yul\":12148:12195   */\n      mstore\n        /* \"#utility.yul\":12212:12343   */\n      tag_246\n        /* \"#utility.yul\":12338:12342   */\n      dup2\n        /* \"#utility.yul\":12212:12343   */\n      tag_117\n      jump\t// in\n    tag_246:\n        /* \"#utility.yul\":12204:12343   */\n      swap1\n      pop\n        /* \"#utility.yul\":11931:12350   */\n      swap2\n      swap1\n      pop\n      jump\t// out\n        /* \"#utility.yul\":12356:12587   */\n    tag_118:\n        /* \"#utility.yul\":12496:12530   */\n      0x4469726563746f7279206164647265737320646f6573206e6f7420696d706c65\n        /* \"#utility.yul\":12492:12493   */\n      0x00\n        /* \"#utility.yul\":12484:12490   */\n      dup3\n        /* \"#utility.yul\":12480:12494   */\n      add\n        /* \"#utility.yul\":12473:12531   */\n      mstore\n        /* \"#utility.yul\":12565:12579   */\n      0x6d656e74206f776e657228290000000000000000000000000000000000000000\n        /* \"#utility.yul\":12560:12562   */\n      0x20\n        /* \"#utility.yul\":12552:12558   */\n      dup3\n        /* \"#utility.yul\":12548:12563   */\n      add\n        /* \"#utility.yul\":12541:12580   */\n      mstore\n        /* \"#utility.yul\":12356:12587   */\n      pop\n      jump\t// out\n        /* \"#utility.yul\":12593:12959   */\n    tag_119:\n        /* \"#utility.yul\":12735:12738   */\n      0x00\n        /* \"#utility.yul\":12756:12823   */\n      tag_249\n        /* \"#utility.yul\":12820:12822   */\n      0x2c\n        /* \"#utility.yul\":12815:12818   */\n      dup4\n        /* \"#utility.yul\":12756:12823   */\n      tag_106\n      jump\t// in\n    tag_249:\n        /* \"#utility.yul\":12749:12823   */\n      swap2\n      pop\n        /* \"#utility.yul\":12832:12925   */\n      tag_250\n        /* \"#utility.yul\":12921:12924   */\n      dup3\n        /* \"#utility.yul\":12832:12925   */\n      tag_118\n      jump\t// in\n    tag_250:\n        /* \"#utility.yul\":12950:12952   */\n      0x40\n        /* \"#utility.yul\":12945:12948   */\n      dup3\n        /* \"#utility.yul\":12941:12953   */\n      add\n        /* \"#utility.yul\":12934:12953   */\n      swap1\n      pop\n        /* \"#utility.yul\":12593:12959   */\n      swap2\n      swap1\n      pop\n      jump\t// out\n        /* \"#utility.yul\":12965:13384   */\n    tag_75:\n        /* \"#utility.yul\":13131:13135   */\n      0x00\n        /* \"#utility.yul\":13169:13171   */\n      0x20\n        /* \"#utility.yul\":13158:13167   */\n      dup3\n        /* \"#utility.yul\":13154:13172   */\n      add\n        /* \"#utility.yul\":13146:13172   */\n      swap1\n      pop\n        /* \"#utility.yul\":13218:13227   */\n      dup2\n        /* \"#utility.yul\":13212:13216   */\n      dup2\n        /* \"#utility.yul\":13208:13228   */\n      sub\n        /* \"#utility.yul\":13204:13205   */\n      0x00\n        /* \"#utility.yul\":13193:13202   */\n      dup4\n        /* \"#utility.yul\":13189:13206   */\n      add\n        /* \"#utility.yul\":13182:13229   */\n      mstore\n        /* \"#utility.yul\":13246:13377   */\n      tag_252\n        /* \"#utility.yul\":13372:13376   */\n      dup2\n        /* \"#utility.yul\":13246:13377   */\n      tag_119\n      jump\t// in\n    tag_252:\n        /* \"#utility.yul\":13238:13377   */\n      swap1\n      pop\n        /* \"#utility.yul\":12965:13384   */\n      swap2\n      swap1\n      pop\n      jump\t// out\n\n    auxdata: 0xa2646970667358221220895ddcf8f53ba6c4bbb19595a75e47fb608e735b05ba6bb4fdc388e17b2d3f8864736f6c634300081e0033\n}\n",
				"bytecode": {
					"linkReferences": {},
					"object": "608060405234801561000f575f5ffd5b5060405161110e38038061110e83398181016040528101906100319190610257565b806100418161004860201b60201c565b50506103f0565b5f73ffffffffffffffffffffffffffffffffffffffff168173ffffffffffffffffffffffffffffffffffffffff16036100b6576040517f08c379a00000000000000000000000000000000000000000000000000000000081526004016100ad906102dc565b60405180910390fd5b5f8173ffffffffffffffffffffffffffffffffffffffff163b1161010f576040517f08c379a000000000000000000000000000000000000000000000000000000000815260040161010690610344565b60405180910390fd5b8073ffffffffffffffffffffffffffffffffffffffff16638da5cb5b6040518163ffffffff1660e01b8152600401602060405180830381865afa92505050801561017757506040513d601f19601f820116820180604052508101906101749190610257565b60015b6101b6576040517f08c379a00000000000000000000000000000000000000000000000000000000081526004016101ad906103d2565b60405180910390fd5b815f5f6101000a81548173ffffffffffffffffffffffffffffffffffffffff021916908373ffffffffffffffffffffffffffffffffffffffff1602179055505050565b5f5ffd5b5f73ffffffffffffffffffffffffffffffffffffffff82169050919050565b5f610226826101fd565b9050919050565b6102368161021c565b8114610240575f5ffd5b50565b5f815190506102518161022d565b92915050565b5f6020828403121561026c5761026b6101f9565b5b5f61027984828501610243565b91505092915050565b5f82825260208201905092915050565b7f4469726563746f72792063616e6e6f74206265207a65726f20616464726573735f82015250565b5f6102c6602083610282565b91506102d182610292565b602082019050919050565b5f6020820190508181035f8301526102f3816102ba565b9050919050565b7f4469726563746f7279206d757374206265206120636f6e7472616374000000005f82015250565b5f61032e601c83610282565b9150610339826102fa565b602082019050919050565b5f6020820190508181035f83015261035b81610322565b9050919050565b7f4469726563746f7279206164647265737320646f6573206e6f7420696d706c655f8201527f6d656e74206f776e657228290000000000000000000000000000000000000000602082015250565b5f6103bc602c83610282565b91506103c782610362565b604082019050919050565b5f6020820190508181035f8301526103e9816103b0565b9050919050565b610d11806103fd5f395ff3fe608060405234801561000f575f5ffd5b5060043610610055575f3560e01c80632726261814610059578063658a847a146100895780638da5cb5b146100a7578063ba4c7be1146100c5578063c082f03f146100e1575b5f5ffd5b610073600480360381019061006e91906107a8565b6100fd565b604051610080919061082e565b60405180910390f35b61009161019d565b60405161009e91906108a2565b60405180910390f35b6100af6101c1565b6040516100bc919061082e565b60405180910390f35b6100df60048036038101906100da91906108e5565b610254565b005b6100fb60048036038101906100f69190610943565b61035a565b005b5f5f5f9054906101000a900473ffffffffffffffffffffffffffffffffffffffff1673ffffffffffffffffffffffffffffffffffffffff166327262618836040518263ffffffff1660e01b81526004016101579190610a07565b602060405180830381865afa158015610172573d5f5f3e3d5ffd5b505050506040513d601f19601f820116820180604052508101906101969190610a3b565b9050919050565b5f5f9054906101000a900473ffffffffffffffffffffffffffffffffffffffff1681565b5f5f5f9054906101000a900473ffffffffffffffffffffffffffffffffffffffff1673ffffffffffffffffffffffffffffffffffffffff16638da5cb5b6040518163ffffffff1660e01b8152600401602060405180830381865afa15801561022b573d5f5f3e3d5ffd5b505050506040513d601f19601f8201168201806040525081019061024f9190610a3b565b905090565b5f5f9054906101000a900473ffffffffffffffffffffffffffffffffffffffff1673ffffffffffffffffffffffffffffffffffffffff16638da5cb5b6040518163ffffffff1660e01b8152600401602060405180830381865afa1580156102bd573d5f5f3e3d5ffd5b505050506040513d601f19601f820116820180604052508101906102e19190610a3b565b73ffffffffffffffffffffffffffffffffffffffff163373ffffffffffffffffffffffffffffffffffffffff161461034e576040517f08c379a000000000000000000000000000000000000000000000000000000000815260040161034590610ab0565b60405180910390fd5b61035781610466565b50565b5f5f610364610617565b73ffffffffffffffffffffffffffffffffffffffff166379de9e82876040518263ffffffff1660e01b815260040161039c9190610add565b6040805180830381865afa1580156103b6573d5f5f3e3d5ffd5b505050506040513d601f19601f820116820180604052508101906103da9190610b0a565b915091508373ffffffffffffffffffffffffffffffffffffffff168573ffffffffffffffffffffffffffffffffffffffff163373ffffffffffffffffffffffffffffffffffffffff167f81922c40d912e2f283a7d2b2d0e692c560caafd69d7927154759059dfdcaebfa86868660405161045693929190610b48565b60405180910390a4505050505050565b5f73ffffffffffffffffffffffffffffffffffffffff168173ffffffffffffffffffffffffffffffffffffffff16036104d4576040517f08c379a00000000000000000000000000000000000000000000000000000000081526004016104cb90610bc7565b60405180910390fd5b5f8173ffffffffffffffffffffffffffffffffffffffff163b1161052d576040517f08c379a000000000000000000000000000000000000000000000000000000000815260040161052490610c2f565b60405180910390fd5b8073ffffffffffffffffffffffffffffffffffffffff16638da5cb5b6040518163ffffffff1660e01b8152600401602060405180830381865afa92505050801561059557506040513d601f19601f820116820180604052508101906105929190610a3b565b60015b6105d4576040517f08c379a00000000000000000000000000000000000000000000000000000000081526004016105cb90610cbd565b60405180910390fd5b815f5f6101000a81548173ffffffffffffffffffffffffffffffffffffffff021916908373ffffffffffffffffffffffffffffffffffffffff1602179055505050565b5f6106566040518060400160405280600a81526020017f6574662d6f7261636c65000000000000000000000000000000000000000000008152506100fd565b905090565b5f604051905090565b5f5ffd5b5f5ffd5b5f5ffd5b5f5ffd5b5f601f19601f8301169050919050565b7f4e487b71000000000000000000000000000000000000000000000000000000005f52604160045260245ffd5b6106ba82610674565b810181811067ffffffffffffffff821117156106d9576106d8610684565b5b80604052505050565b5f6106eb61065b565b90506106f782826106b1565b919050565b5f67ffffffffffffffff82111561071657610715610684565b5b61071f82610674565b9050602081019050919050565b828183375f83830152505050565b5f61074c610747846106fc565b6106e2565b90508281526020810184848401111561076857610767610670565b5b61077384828561072c565b509392505050565b5f82601f83011261078f5761078e61066c565b5b813561079f84826020860161073a565b91505092915050565b5f602082840312156107bd576107bc610664565b5b5f82013567ffffffffffffffff8111156107da576107d9610668565b5b6107e68482850161077b565b91505092915050565b5f73ffffffffffffffffffffffffffffffffffffffff82169050919050565b5f610818826107ef565b9050919050565b6108288161080e565b82525050565b5f6020820190506108415f83018461081f565b92915050565b5f819050919050565b5f61086a610865610860846107ef565b610847565b6107ef565b9050919050565b5f61087b82610850565b9050919050565b5f61088c82610871565b9050919050565b61089c81610882565b82525050565b5f6020820190506108b55f830184610893565b92915050565b6108c48161080e565b81146108ce575f5ffd5b50565b5f813590506108df816108bb565b92915050565b5f602082840312156108fa576108f9610664565b5b5f610907848285016108d1565b91505092915050565b5f819050919050565b61092281610910565b811461092c575f5ffd5b50565b5f8135905061093d81610919565b92915050565b5f5f5f5f6080858703121561095b5761095a610664565b5b5f6109688782880161092f565b9450506020610979878288016108d1565b935050604061098a878288016108d1565b925050606061099b8782880161092f565b91505092959194509250565b5f81519050919050565b5f82825260208201905092915050565b8281835e5f83830152505050565b5f6109d9826109a7565b6109e381856109b1565b93506109f38185602086016109c1565b6109fc81610674565b840191505092915050565b5f6020820190508181035f830152610a1f81846109cf565b905092915050565b5f81519050610a35816108bb565b92915050565b5f60208284031215610a5057610a4f610664565b5b5f610a5d84828501610a27565b91505092915050565b7f43616c6c6572206973206e6f7420746865206f776e65720000000000000000005f82015250565b5f610a9a6017836109b1565b9150610aa582610a66565b602082019050919050565b5f6020820190508181035f830152610ac781610a8e565b9050919050565b610ad781610910565b82525050565b5f602082019050610af05f830184610ace565b92915050565b5f81519050610b0481610919565b92915050565b5f5f60408385031215610b2057610b1f610664565b5b5f610b2d85828601610af6565b9250506020610b3e85828601610af6565b9150509250929050565b5f606082019050610b5b5f830186610ace565b610b686020830185610ace565b610b756040830184610ace565b949350505050565b7f4469726563746f72792063616e6e6f74206265207a65726f20616464726573735f82015250565b5f610bb16020836109b1565b9150610bbc82610b7d565b602082019050919050565b5f6020820190508181035f830152610bde81610ba5565b9050919050565b7f4469726563746f7279206d757374206265206120636f6e7472616374000000005f82015250565b5f610c19601c836109b1565b9150610c2482610be5565b602082019050919050565b5f6020820190508181035f830152610c4681610c0d565b9050919050565b7f4469726563746f7279206164647265737320646f6573206e6f7420696d706c655f8201527f6d656e74206f776e657228290000000000000000000000000000000000000000602082015250565b5f610ca7602c836109b1565b9150610cb282610c4d565b604082019050919050565b5f6020820190508181035f830152610cd481610c9b565b905091905056fea2646970667358221220895ddcf8f53ba6c4bbb19595a75e47fb608e735b05ba6bb4fdc388e17b2d3f8864736f6c634300081e0033",
					"opcodes": "PUSH1 0x80 PUSH1 0x40 MSTORE CALLVALUE DUP1 ISZERO PUSH2 0xF JUMPI PUSH0 PUSH0 REVERT JUMPDEST POP PUSH1 0x40 MLOAD PUSH2 0x110E CODESIZE SUB DUP1 PUSH2 0x110E DUP4 CODECOPY DUP2 DUP2 ADD PUSH1 0x40 MSTORE DUP2 ADD SWAP1 PUSH2 0x31 SWAP2 SWAP1 PUSH2 0x257 JUMP JUMPDEST DUP1 PUSH2 0x41 DUP2 PUSH2 0x48 PUSH1 0x20 SHL PUSH1 0x20 SHR JUMP JUMPDEST POP POP PUSH2 0x3F0 JUMP JUMPDEST PUSH0 PUSH20 0xFFFFFFFFFFFFFFFFFFFFFFFFFFFFFFFFFFFFFFFF AND DUP2 PUSH20 0xFFFFFFFFFFFFFFFFFFFFFFFFFFFFFFFFFFFFFFFF AND SUB PUSH2 0xB6 JUMPI PUSH1 0x40 MLOAD PUSH32 0x8C379A000000000000000000000000000000000000000000000000000000000 DUP2 MSTORE PUSH1 0x4 ADD PUSH2 0xAD SWAP1 PUSH2 0x2DC JUMP JUMPDEST PUSH1 0x40 MLOAD DUP1 SWAP2 SUB SWAP1 REVERT JUMPDEST PUSH0 DUP2 PUSH20 0xFFFFFFFFFFFFFFFFFFFFFFFFFFFFFFFFFFFFFFFF AND EXTCODESIZE GT PUSH2 0x10F JUMPI PUSH1 0x40 MLOAD PUSH32 0x8C379A000000000000000000000000000000000000000000000000000000000 DUP2 MSTORE PUSH1 0x4 ADD PUSH2 0x106 SWAP1 PUSH2 0x344 JUMP JUMPDEST PUSH1 0x40 MLOAD DUP1 SWAP2 SUB SWAP1 REVERT JUMPDEST DUP1 PUSH20 0xFFFFFFFFFFFFFFFFFFFFFFFFFFFFFFFFFFFFFFFF AND PUSH4 0x8DA5CB5B PUSH1 0x40 MLOAD DUP2 PUSH4 0xFFFFFFFF AND PUSH1 0xE0 SHL DUP2 MSTORE PUSH1 0x4 ADD PUSH1 0x20 PUSH1 0x40 MLOAD DUP1 DUP4 SUB DUP2 DUP7 GAS STATICCALL SWAP3 POP POP POP DUP1 ISZERO PUSH2 0x177 JUMPI POP PUSH1 0x40 MLOAD RETURNDATASIZE PUSH1 0x1F NOT PUSH1 0x1F DUP3 ADD AND DUP3 ADD DUP1 PUSH1 0x40 MSTORE POP DUP2 ADD SWAP1 PUSH2 0x174 SWAP2 SWAP1 PUSH2 0x257 JUMP JUMPDEST PUSH1 0x1 JUMPDEST PUSH2 0x1B6 JUMPI PUSH1 0x40 MLOAD PUSH32 0x8C379A000000000000000000000000000000000000000000000000000000000 DUP2 MSTORE PUSH1 0x4 ADD PUSH2 0x1AD SWAP1 PUSH2 0x3D2 JUMP JUMPDEST PUSH1 0x40 MLOAD DUP1 SWAP2 SUB SWAP1 REVERT JUMPDEST DUP2 PUSH0 PUSH0 PUSH2 0x100 EXP DUP2 SLOAD DUP2 PUSH20 0xFFFFFFFFFFFFFFFFFFFFFFFFFFFFFFFFFFFFFFFF MUL NOT AND SWAP1 DUP4 PUSH20 0xFFFFFFFFFFFFFFFFFFFFFFFFFFFFFFFFFFFFFFFF AND MUL OR SWAP1 SSTORE POP POP POP JUMP JUMPDEST PUSH0 PUSH0 REVERT JUMPDEST PUSH0 PUSH20 0xFFFFFFFFFFFFFFFFFFFFFFFFFFFFFFFFFFFFFFFF DUP3 AND SWAP1 POP SWAP2 SWAP1 POP JUMP JUMPDEST PUSH0 PUSH2 0x226 DUP3 PUSH2 0x1FD JUMP JUMPDEST SWAP1 POP SWAP2 SWAP1 POP JUMP JUMPDEST PUSH2 0x236 DUP2 PUSH2 0x21C JUMP JUMPDEST DUP2 EQ PUSH2 0x240 JUMPI PUSH0 PUSH0 REVERT JUMPDEST POP JUMP JUMPDEST PUSH0 DUP2 MLOAD SWAP1 POP PUSH2 0x251 DUP2 PUSH2 0x22D JUMP JUMPDEST SWAP3 SWAP2 POP POP JUMP JUMPDEST PUSH0 PUSH1 0x20 DUP3 DUP5 SUB SLT ISZERO PUSH2 0x26C JUMPI PUSH2 0x26B PUSH2 0x1F9 JUMP JUMPDEST JUMPDEST PUSH0 PUSH2 0x279 DUP5 DUP3 DUP6 ADD PUSH2 0x243 JUMP JUMPDEST SWAP2 POP POP SWAP3 SWAP2 POP POP JUMP JUMPDEST PUSH0 DUP3 DUP3 MSTORE PUSH1 0x20 DUP3 ADD SWAP1 POP SWAP3 SWAP2 POP POP JUMP JUMPDEST PUSH32 0x4469726563746F72792063616E6E6F74206265207A65726F2061646472657373 PUSH0 DUP3 ADD MSTORE POP JUMP JUMPDEST PUSH0 PUSH2 0x2C6 PUSH1 0x20 DUP4 PUSH2 0x282 JUMP JUMPDEST SWAP2 POP PUSH2 0x2D1 DUP3 PUSH2 0x292 JUMP JUMPDEST PUSH1 0x20 DUP3 ADD SWAP1 POP SWAP2 SWAP1 POP JUMP JUMPDEST PUSH0 PUSH1 0x20 DUP3 ADD SWAP1 POP DUP2 DUP2 SUB PUSH0 DUP4 ADD MSTORE PUSH2 0x2F3 DUP2 PUSH2 0x2BA JUMP JUMPDEST SWAP1 POP SWAP2 SWAP1 POP JUMP JUMPDEST PUSH32 0x4469726563746F7279206D757374206265206120636F6E747261637400000000 PUSH0 DUP3 ADD MSTORE POP JUMP JUMPDEST PUSH0 PUSH2 0x32E PUSH1 0x1C DUP4 PUSH2 0x282 JUMP JUMPDEST SWAP2 POP PUSH2 0x339 DUP3 PUSH2 0x2FA JUMP JUMPDEST PUSH1 0x20 DUP3 ADD SWAP1 POP SWAP2 SWAP1 POP JUMP JUMPDEST PUSH0 PUSH1 0x20 DUP3 ADD SWAP1 POP DUP2 DUP2 SUB PUSH0 DUP4 ADD MSTORE PUSH2 0x35B DUP2 PUSH2 0x322 JUMP JUMPDEST SWAP1 POP SWAP2 SWAP1 POP JUMP JUMPDEST PUSH32 0x4469726563746F7279206164647265737320646F6573206E6F7420696D706C65 PUSH0 DUP3 ADD MSTORE PUSH32 0x6D656E74206F776E657228290000000000000000000000000000000000000000 PUSH1 0x20 DUP3 ADD MSTORE POP JUMP JUMPDEST PUSH0 PUSH2 0x3BC PUSH1 0x2C DUP4 PUSH2 0x282 JUMP JUMPDEST SWAP2 POP PUSH2 0x3C7 DUP3 PUSH2 0x362 JUMP JUMPDEST PUSH1 0x40 DUP3 ADD SWAP1 POP SWAP2 SWAP1 POP JUMP JUMPDEST PUSH0 PUSH1 0x20 DUP3 ADD SWAP1 POP DUP2 DUP2 SUB PUSH0 DUP4 ADD MSTORE PUSH2 0x3E9 DUP2 PUSH2 0x3B0 JUMP JUMPDEST SWAP1 POP SWAP2 SWAP1 POP JUMP JUMPDEST PUSH2 0xD11 DUP1 PUSH2 0x3FD PUSH0 CODECOPY PUSH0 RETURN INVALID PUSH1 0x80 PUSH1 0x40 MSTORE CALLVALUE DUP1 ISZERO PUSH2 0xF JUMPI PUSH0 PUSH0 REVERT JUMPDEST POP PUSH1 0x4 CALLDATASIZE LT PUSH2 0x55 JUMPI PUSH0 CALLDATALOAD PUSH1 0xE0 SHR DUP1 PUSH4 0x27262618 EQ PUSH2 0x59 JUMPI DUP1 PUSH4 0x658A847A EQ PUSH2 0x89 JUMPI DUP1 PUSH4 0x8DA5CB5B EQ PUSH2 0xA7 JUMPI DUP1 PUSH4 0xBA4C7BE1 EQ PUSH2 0xC5 JUMPI DUP1 PUSH4 0xC082F03F EQ PUSH2 0xE1 JUMPI JUMPDEST PUSH0 PUSH0 REVERT JUMPDEST PUSH2 0x73 PUSH1 0x4 DUP1 CALLDATASIZE SUB DUP2 ADD SWAP1 PUSH2 0x6E SWAP2 SWAP1 PUSH2 0x7A8 JUMP JUMPDEST PUSH2 0xFD JUMP JUMPDEST PUSH1 0x40 MLOAD PUSH2 0x80 SWAP2 SWAP1 PUSH2 0x82E JUMP JUMPDEST PUSH1 0x40 MLOAD DUP1 SWAP2 SUB SWAP1 RETURN JUMPDEST PUSH2 0x91 PUSH2 0x19D JUMP JUMPDEST PUSH1 0x40 MLOAD PUSH2 0x9E SWAP2 SWAP1 PUSH2 0x8A2 JUMP JUMPDEST PUSH1 0x40 MLOAD DUP1 SWAP2 SUB SWAP1 RETURN JUMPDEST PUSH2 0xAF PUSH2 0x1C1 JUMP JUMPDEST PUSH1 0x40 MLOAD PUSH2 0xBC SWAP2 SWAP1 PUSH2 0x82E JUMP JUMPDEST PUSH1 0x40 MLOAD DUP1 SWAP2 SUB SWAP1 RETURN JUMPDEST PUSH2 0xDF PUSH1 0x4 DUP1 CALLDATASIZE SUB DUP2 ADD SWAP1 PUSH2 0xDA SWAP2 SWAP1 PUSH2 0x8E5 JUMP JUMPDEST PUSH2 0x254 JUMP JUMPDEST STOP JUMPDEST PUSH2 0xFB PUSH1 0x4 DUP1 CALLDATASIZE SUB DUP2 ADD SWAP1 PUSH2 0xF6 SWAP2 SWAP1 PUSH2 0x943 JUMP JUMPDEST PUSH2 0x35A JUMP JUMPDEST STOP JUMPDEST PUSH0 PUSH0 PUSH0 SWAP1 SLOAD SWAP1 PUSH2 0x100 EXP SWAP1 DIV PUSH20 0xFFFFFFFFFFFFFFFFFFFFFFFFFFFFFFFFFFFFFFFF AND PUSH20 0xFFFFFFFFFFFFFFFFFFFFFFFFFFFFFFFFFFFFFFFF AND PUSH4 0x27262618 DUP4 PUSH1 0x40 MLOAD DUP3 PUSH4 0xFFFFFFFF AND PUSH1 0xE0 SHL DUP2 MSTORE PUSH1 0x4 ADD PUSH2 0x157 SWAP2 SWAP1 PUSH2 0xA07 JUMP JUMPDEST PUSH1 0x20 PUSH1 0x40 MLOAD DUP1 DUP4 SUB DUP2 DUP7 GAS STATICCALL ISZERO DUP1 ISZERO PUSH2 0x172 JUMPI RETURNDATASIZE PUSH0 PUSH0 RETURNDATACOPY RETURNDATASIZE PUSH0 REVERT JUMPDEST POP POP POP POP PUSH1 0x40 MLOAD RETURNDATASIZE PUSH1 0x1F NOT PUSH1 0x1F DUP3 ADD AND DUP3 ADD DUP1 PUSH1 0x40 MSTORE POP DUP2 ADD SWAP1 PUSH2 0x196 SWAP2 SWAP1 PUSH2 0xA3B JUMP JUMPDEST SWAP1 POP SWAP2 SWAP1 POP JUMP JUMPDEST PUSH0 PUSH0 SWAP1 SLOAD SWAP1 PUSH2 0x100 EXP SWAP1 DIV PUSH20 0xFFFFFFFFFFFFFFFFFFFFFFFFFFFFFFFFFFFFFFFF AND DUP2 JUMP JUMPDEST PUSH0 PUSH0 PUSH0 SWAP1 SLOAD SWAP1 PUSH2 0x100 EXP SWAP1 DIV PUSH20 0xFFFFFFFFFFFFFFFFFFFFFFFFFFFFFFFFFFFFFFFF AND PUSH20 0xFFFFFFFFFFFFFFFFFFFFFFFFFFFFFFFFFFFFFFFF AND PUSH4 0x8DA5CB5B PUSH1 0x40 MLOAD DUP2 PUSH4 0xFFFFFFFF AND PUSH1 0xE0 SHL DUP2 MSTORE PUSH1 0x4 ADD PUSH1 0x20 PUSH1 0x40 MLOAD DUP1 DUP4 SUB DUP2 DUP7 GAS STATICCALL ISZERO DUP1 ISZERO PUSH2 0x22B JUMPI RETURNDATASIZE PUSH0 PUSH0 RETURNDATACOPY RETURNDATASIZE PUSH0 REVERT JUMPDEST POP POP POP POP PUSH1 0x40 MLOAD RETURNDATASIZE PUSH1 0x1F NOT PUSH1 0x1F DUP3 ADD AND DUP3 ADD DUP1 PUSH1 0x40 MSTORE POP DUP2 ADD SWAP1 PUSH2 0x24F SWAP2 SWAP1 PUSH2 0xA3B JUMP JUMPDEST SWAP1 POP SWAP1 JUMP JUMPDEST PUSH0 PUSH0 SWAP1 SLOAD SWAP1 PUSH2 0x100 EXP SWAP1 DIV PUSH20 0xFFFFFFFFFFFFFFFFFFFFFFFFFFFFFFFFFFFFFFFF AND PUSH20 0xFFFFFFFFFFFFFFFFFFFFFFFFFFFFFFFFFFFFFFFF AND PUSH4 0x8DA5CB5B PUSH1 0x40 MLOAD DUP2 PUSH4 0xFFFFFFFF AND PUSH1 0xE0 SHL DUP2 MSTORE PUSH1 0x4 ADD PUSH1 0x20 PUSH1 0x40 MLOAD DUP1 DUP4 SUB DUP2 DUP7 GAS STATICCALL ISZERO DUP1 ISZERO PUSH2 0x2BD JUMPI RETURNDATASIZE PUSH0 PUSH0 RETURNDATACOPY RETURNDATASIZE PUSH0 REVERT JUMPDEST POP POP POP POP PUSH1 0x40 MLOAD RETURNDATASIZE PUSH1 0x1F NOT PUSH1 0x1F DUP3 ADD AND DUP3 ADD DUP1 PUSH1 0x40 MSTORE POP DUP2 ADD SWAP1 PUSH2 0x2E1 SWAP2 SWAP1 PUSH2 0xA3B JUMP JUMPDEST PUSH20 0xFFFFFFFFFFFFFFFFFFFFFFFFFFFFFFFFFFFFFFFF AND CALLER PUSH20 0xFFFFFFFFFFFFFFFFFFFFFFFFFFFFFFFFFFFFFFFF AND EQ PUSH2 0x34E JUMPI PUSH1 0x40 MLOAD PUSH32 0x8C379A000000000000000000000000000000000000000000000000000000000 DUP2 MSTORE PUSH1 0x4 ADD PUSH2 0x345 SWAP1 PUSH2 0xAB0 JUMP JUMPDEST PUSH1 0x40 MLOAD DUP1 SWAP2 SUB SWAP1 REVERT JUMPDEST PUSH2 0x357 DUP2 PUSH2 0x466 JUMP JUMPDEST POP JUMP JUMPDEST PUSH0 PUSH0 PUSH2 0x364 PUSH2 0x617 JUMP JUMPDEST PUSH20 0xFFFFFFFFFFFFFFFFFFFFFFFFFFFFFFFFFFFFFFFF AND PUSH4 0x79DE9E82 DUP8 PUSH1 0x40 MLOAD DUP3 PUSH4 0xFFFFFFFF AND PUSH1 0xE0 SHL DUP2 MSTORE PUSH1 0x4 ADD PUSH2 0x39C SWAP2 SWAP1 PUSH2 0xADD JUMP JUMPDEST PUSH1 0x40 DUP1 MLOAD DUP1 DUP4 SUB DUP2 DUP7 GAS STATICCALL ISZERO DUP1 ISZERO PUSH2 0x3B6 JUMPI RETURNDATASIZE PUSH0 PUSH0 RETURNDATACOPY RETURNDATASIZE PUSH0 REVERT JUMPDEST POP POP POP POP PUSH1 0x40 MLOAD RETURNDATASIZE PUSH1 0x1F NOT PUSH1 0x1F DUP3 ADD AND DUP3 ADD DUP1 PUSH1 0x40 MSTORE POP DUP2 ADD SWAP1 PUSH2 0x3DA SWAP2 SWAP1 PUSH2 0xB0A JUMP JUMPDEST SWAP2 POP SWAP2 POP DUP4 PUSH20 0xFFFFFFFFFFFFFFFFFFFFFFFFFFFFFFFFFFFFFFFF AND DUP6 PUSH20 0xFFFFFFFFFFFFFFFFFFFFFFFFFFFFFFFFFFFFFFFF AND CALLER PUSH20 0xFFFFFFFFFFFFFFFFFFFFFFFFFFFFFFFFFFFFFFFF AND PUSH32 0x81922C40D912E2F283A7D2B2D0E692C560CAAFD69D7927154759059DFDCAEBFA DUP7 DUP7 DUP7 PUSH1 0x40 MLOAD PUSH2 0x456 SWAP4 SWAP3 SWAP2 SWAP1 PUSH2 0xB48 JUMP JUMPDEST PUSH1 0x40 MLOAD DUP1 SWAP2 SUB SWAP1 LOG4 POP POP POP POP POP POP JUMP JUMPDEST PUSH0 PUSH20 0xFFFFFFFFFFFFFFFFFFFFFFFFFFFFFFFFFFFFFFFF AND DUP2 PUSH20 0xFFFFFFFFFFFFFFFFFFFFFFFFFFFFFFFFFFFFFFFF AND SUB PUSH2 0x4D4 JUMPI PUSH1 0x40 MLOAD PUSH32 0x8C379A000000000000000000000000000000000000000000000000000000000 DUP2 MSTORE PUSH1 0x4 ADD PUSH2 0x4CB SWAP1 PUSH2 0xBC7 JUMP JUMPDEST PUSH1 0x40 MLOAD DUP1 SWAP2 SUB SWAP1 REVERT JUMPDEST PUSH0 DUP2 PUSH20 0xFFFFFFFFFFFFFFFFFFFFFFFFFFFFFFFFFFFFFFFF AND EXTCODESIZE GT PUSH2 0x52D JUMPI PUSH1 0x40 MLOAD PUSH32 0x8C379A000000000000000000000000000000000000000000000000000000000 DUP2 MSTORE PUSH1 0x4 ADD PUSH2 0x524 SWAP1 PUSH2 0xC2F JUMP JUMPDEST PUSH1 0x40 MLOAD DUP1 SWAP2 SUB SWAP1 REVERT JUMPDEST DUP1 PUSH20 0xFFFFFFFFFFFFFFFFFFFFFFFFFFFFFFFFFFFFFFFF AND PUSH4 0x8DA5CB5B PUSH1 0x40 MLOAD DUP2 PUSH4 0xFFFFFFFF AND PUSH1 0xE0 SHL DUP2 MSTORE PUSH1 0x4 ADD PUSH1 0x20 PUSH1 0x40 MLOAD DUP1 DUP4 SUB DUP2 DUP7 GAS STATICCALL SWAP3 POP POP POP DUP1 ISZERO PUSH2 0x595 JUMPI POP PUSH1 0x40 MLOAD RETURNDATASIZE PUSH1 0x1F NOT PUSH1 0x1F DUP3 ADD AND DUP3 ADD DUP1 PUSH1 0x40 MSTORE POP DUP2 ADD SWAP1 PUSH2 0x592 SWAP2 SWAP1 PUSH2 0xA3B JUMP JUMPDEST PUSH1 0x1 JUMPDEST PUSH2 0x5D4 JUMPI PUSH1 0x40 MLOAD PUSH32 0x8C379A000000000000000000000000000000000000000000000000000000000 DUP2 MSTORE PUSH1 0x4 ADD PUSH2 0x5CB SWAP1 PUSH2 0xCBD JUMP JUMPDEST PUSH1 0x40 MLOAD DUP1 SWAP2 SUB SWAP1 REVERT JUMPDEST DUP2 PUSH0 PUSH0 PUSH2 0x100 EXP DUP2 SLOAD DUP2 PUSH20 0xFFFFFFFFFFFFFFFFFFFFFFFFFFFFFFFFFFFFFFFF MUL NOT AND SWAP1 DUP4 PUSH20 0xFFFFFFFFFFFFFFFFFFFFFFFFFFFFFFFFFFFFFFFF AND MUL OR SWAP1 SSTORE POP POP POP JUMP JUMPDEST PUSH0 PUSH2 0x656 PUSH1 0x40 MLOAD DUP1 PUSH1 0x40 ADD PUSH1 0x40 MSTORE DUP1 PUSH1 0xA DUP2 MSTORE PUSH1 0x20 ADD PUSH32 0x6574662D6F7261636C6500000000000000000000000000000000000000000000 DUP2 MSTORE POP PUSH2 0xFD JUMP JUMPDEST SWAP1 POP SWAP1 JUMP JUMPDEST PUSH0 PUSH1 0x40 MLOAD SWAP1 POP SWAP1 JUMP JUMPDEST PUSH0 PUSH0 REVERT JUMPDEST PUSH0 PUSH0 REVERT JUMPDEST PUSH0 PUSH0 REVERT JUMPDEST PUSH0 PUSH0 REVERT JUMPDEST PUSH0 PUSH1 0x1F NOT PUSH1 0x1F DUP4 ADD AND SWAP1 POP SWAP2 SWAP1 POP JUMP JUMPDEST PUSH32 0x4E487B7100000000000000000000000000000000000000000000000000000000 PUSH0 MSTORE PUSH1 0x41 PUSH1 0x4 MSTORE PUSH1 0x24 PUSH0 REVERT JUMPDEST PUSH2 0x6BA DUP3 PUSH2 0x674 JUMP JUMPDEST DUP2 ADD DUP2 DUP2 LT PUSH8 0xFFFFFFFFFFFFFFFF DUP3 GT OR ISZERO PUSH2 0x6D9 JUMPI PUSH2 0x6D8 PUSH2 0x684 JUMP JUMPDEST JUMPDEST DUP1 PUSH1 0x40 MSTORE POP POP POP JUMP JUMPDEST PUSH0 PUSH2 0x6EB PUSH2 0x65B JUMP JUMPDEST SWAP1 POP PUSH2 0x6F7 DUP3 DUP3 PUSH2 0x6B1 JUMP JUMPDEST SWAP2 SWAP1 POP JUMP JUMPDEST PUSH0 PUSH8 0xFFFFFFFFFFFFFFFF DUP3 GT ISZERO PUSH2 0x716 JUMPI PUSH2 0x715 PUSH2 0x684 JUMP JUMPDEST JUMPDEST PUSH2 0x71F DUP3 PUSH2 0x674 JUMP JUMPDEST SWAP1 POP PUSH1 0x20 DUP2 ADD SWAP1 POP SWAP2 SWAP1 POP JUMP JUMPDEST DUP3 DUP2 DUP4 CALLDATACOPY PUSH0 DUP4 DUP4 ADD MSTORE POP POP POP JUMP JUMPDEST PUSH0 PUSH2 0x74C PUSH2 0x747 DUP5 PUSH2 0x6FC JUMP JUMPDEST PUSH2 0x6E2 JUMP JUMPDEST SWAP1 POP DUP3 DUP2 MSTORE PUSH1 0x20 DUP2 ADD DUP5 DUP5 DUP5 ADD GT ISZERO PUSH2 0x768 JUMPI PUSH2 0x767 PUSH2 0x670 JUMP JUMPDEST JUMPDEST PUSH2 0x773 DUP5 DUP3 DUP6 PUSH2 0x72C JUMP JUMPDEST POP SWAP4 SWAP3 POP POP POP JUMP JUMPDEST PUSH0 DUP3 PUSH1 0x1F DUP4 ADD SLT PUSH2 0x78F JUMPI PUSH2 0x78E PUSH2 0x66C JUMP JUMPDEST JUMPDEST DUP2 CALLDATALOAD PUSH2 0x79F DUP5 DUP3 PUSH1 0x20 DUP7 ADD PUSH2 0x73A JUMP JUMPDEST SWAP2 POP POP SWAP3 SWAP2 POP POP JUMP JUMPDEST PUSH0 PUSH1 0x20 DUP3 DUP5 SUB SLT ISZERO PUSH2 0x7BD JUMPI PUSH2 0x7BC PUSH2 0x664 JUMP JUMPDEST JUMPDEST PUSH0 DUP3 ADD CALLDATALOAD PUSH8 0xFFFFFFFFFFFFFFFF DUP2 GT ISZERO PUSH2 0x7DA JUMPI PUSH2 0x7D9 PUSH2 0x668 JUMP JUMPDEST JUMPDEST PUSH2 0x7E6 DUP5 DUP3 DUP6 ADD PUSH2 0x77B JUMP JUMPDEST SWAP2 POP POP SWAP3 SWAP2 POP POP JUMP JUMPDEST PUSH0 PUSH20 0xFFFFFFFFFFFFFFFFFFFFFFFFFFFFFFFFFFFFFFFF DUP3 AND SWAP1 POP SWAP2 SWAP1 POP JUMP JUMPDEST PUSH0 PUSH2 0x818 DUP3 PUSH2 0x7EF JUMP JUMPDEST SWAP1 POP SWAP2 SWAP1 POP JUMP JUMPDEST PUSH2 0x828 DUP2 PUSH2 0x80E JUMP JUMPDEST DUP3 MSTORE POP POP JUMP JUMPDEST PUSH0 PUSH1 0x20 DUP3 ADD SWAP1 POP PUSH2 0x841 PUSH0 DUP4 ADD DUP5 PUSH2 0x81F JUMP JUMPDEST SWAP3 SWAP2 POP POP JUMP JUMPDEST PUSH0 DUP2 SWAP1 POP SWAP2 SWAP1 POP JUMP JUMPDEST PUSH0 PUSH2 0x86A PUSH2 0x865 PUSH2 0x860 DUP5 PUSH2 0x7EF JUMP JUMPDEST PUSH2 0x847 JUMP JUMPDEST PUSH2 0x7EF JUMP JUMPDEST SWAP1 POP SWAP2 SWAP1 POP JUMP JUMPDEST PUSH0 PUSH2 0x87B DUP3 PUSH2 0x850 JUMP JUMPDEST SWAP1 POP SWAP2 SWAP1 POP JUMP JUMPDEST PUSH0 PUSH2 0x88C DUP3 PUSH2 0x871 JUMP JUMPDEST SWAP1 POP SWAP2 SWAP1 POP JUMP JUMPDEST PUSH2 0x89C DUP2 PUSH2 0x882 JUMP JUMPDEST DUP3 MSTORE POP POP JUMP JUMPDEST PUSH0 PUSH1 0x20 DUP3 ADD SWAP1 POP PUSH2 0x8B5 PUSH0 DUP4 ADD DUP5 PUSH2 0x893 JUMP JUMPDEST SWAP3 SWAP2 POP POP JUMP JUMPDEST PUSH2 0x8C4 DUP2 PUSH2 0x80E JUMP JUMPDEST DUP2 EQ PUSH2 0x8CE JUMPI PUSH0 PUSH0 REVERT JUMPDEST POP JUMP JUMPDEST PUSH0 DUP2 CALLDATALOAD SWAP1 POP PUSH2 0x8DF DUP2 PUSH2 0x8BB JUMP JUMPDEST SWAP3 SWAP2 POP POP JUMP JUMPDEST PUSH0 PUSH1 0x20 DUP3 DUP5 SUB SLT ISZERO PUSH2 0x8FA JUMPI PUSH2 0x8F9 PUSH2 0x664 JUMP JUMPDEST JUMPDEST PUSH0 PUSH2 0x907 DUP5 DUP3 DUP6 ADD PUSH2 0x8D1 JUMP JUMPDEST SWAP2 POP POP SWAP3 SWAP2 POP POP JUMP JUMPDEST PUSH0 DUP2 SWAP1 POP SWAP2 SWAP1 POP JUMP JUMPDEST PUSH2 0x922 DUP2 PUSH2 0x910 JUMP JUMPDEST DUP2 EQ PUSH2 0x92C JUMPI PUSH0 PUSH0 REVERT JUMPDEST POP JUMP JUMPDEST PUSH0 DUP2 CALLDATALOAD SWAP1 POP PUSH2 0x93D DUP2 PUSH2 0x919 JUMP JUMPDEST SWAP3 SWAP2 POP POP JUMP JUMPDEST PUSH0 PUSH0 PUSH0 PUSH0 PUSH1 0x80 DUP6 DUP8 SUB SLT ISZERO PUSH2 0x95B JUMPI PUSH2 0x95A PUSH2 0x664 JUMP JUMPDEST JUMPDEST PUSH0 PUSH2 0x968 DUP8 DUP3 DUP9 ADD PUSH2 0x92F JUMP JUMPDEST SWAP5 POP POP PUSH1 0x20 PUSH2 0x979 DUP8 DUP3 DUP9 ADD PUSH2 0x8D1 JUMP JUMPDEST SWAP4 POP POP PUSH1 0x40 PUSH2 0x98A DUP8 DUP3 DUP9 ADD PUSH2 0x8D1 JUMP JUMPDEST SWAP3 POP POP PUSH1 0x60 PUSH2 0x99B DUP8 DUP3 DUP9 ADD PUSH2 0x92F JUMP JUMPDEST SWAP2 POP POP SWAP3 SWAP6 SWAP2 SWAP5 POP SWAP3 POP JUMP JUMPDEST PUSH0 DUP2 MLOAD SWAP1 POP SWAP2 SWAP1 POP JUMP JUMPDEST PUSH0 DUP3 DUP3 MSTORE PUSH1 0x20 DUP3 ADD SWAP1 POP SWAP3 SWAP2 POP POP JUMP JUMPDEST DUP3 DUP2 DUP4 MCOPY PUSH0 DUP4 DUP4 ADD MSTORE POP POP POP JUMP JUMPDEST PUSH0 PUSH2 0x9D9 DUP3 PUSH2 0x9A7 JUMP JUMPDEST PUSH2 0x9E3 DUP2 DUP6 PUSH2 0x9B1 JUMP JUMPDEST SWAP4 POP PUSH2 0x9F3 DUP2 DUP6 PUSH1 0x20 DUP7 ADD PUSH2 0x9C1 JUMP JUMPDEST PUSH2 0x9FC DUP2 PUSH2 0x674 JUMP JUMPDEST DUP5 ADD SWAP2 POP POP SWAP3 SWAP2 POP POP JUMP JUMPDEST PUSH0 PUSH1 0x20 DUP3 ADD SWAP1 POP DUP2 DUP2 SUB PUSH0 DUP4 ADD MSTORE PUSH2 0xA1F DUP2 DUP5 PUSH2 0x9CF JUMP JUMPDEST SWAP1 POP SWAP3 SWAP2 POP POP JUMP JUMPDEST PUSH0 DUP2 MLOAD SWAP1 POP PUSH2 0xA35 DUP2 PUSH2 0x8BB JUMP JUMPDEST SWAP3 SWAP2 POP POP JUMP JUMPDEST PUSH0 PUSH1 0x20 DUP3 DUP5 SUB SLT ISZERO PUSH2 0xA50 JUMPI PUSH2 0xA4F PUSH2 0x664 JUMP JUMPDEST JUMPDEST PUSH0 PUSH2 0xA5D DUP5 DUP3 DUP6 ADD PUSH2 0xA27 JUMP JUMPDEST SWAP2 POP POP SWAP3 SWAP2 POP POP JUMP JUMPDEST PUSH32 0x43616C6C6572206973206E6F7420746865206F776E6572000000000000000000 PUSH0 DUP3 ADD MSTORE POP JUMP JUMPDEST PUSH0 PUSH2 0xA9A PUSH1 0x17 DUP4 PUSH2 0x9B1 JUMP JUMPDEST SWAP2 POP PUSH2 0xAA5 DUP3 PUSH2 0xA66 JUMP JUMPDEST PUSH1 0x20 DUP3 ADD SWAP1 POP SWAP2 SWAP1 POP JUMP JUMPDEST PUSH0 PUSH1 0x20 DUP3 ADD SWAP1 POP DUP2 DUP2 SUB PUSH0 DUP4 ADD MSTORE PUSH2 0xAC7 DUP2 PUSH2 0xA8E JUMP JUMPDEST SWAP1 POP SWAP2 SWAP1 POP JUMP JUMPDEST PUSH2 0xAD7 DUP2 PUSH2 0x910 JUMP JUMPDEST DUP3 MSTORE POP POP JUMP JUMPDEST PUSH0 PUSH1 0x20 DUP3 ADD SWAP1 POP PUSH2 0xAF0 PUSH0 DUP4 ADD DUP5 PUSH2 0xACE JUMP JUMPDEST SWAP3 SWAP2 POP POP JUMP JUMPDEST PUSH0 DUP2 MLOAD SWAP1 POP PUSH2 0xB04 DUP2 PUSH2 0x919 JUMP JUMPDEST SWAP3 SWAP2 POP POP JUMP JUMPDEST PUSH0 PUSH0 PUSH1 0x40 DUP4 DUP6 SUB SLT ISZERO PUSH2 0xB20 JUMPI PUSH2 0xB1F PUSH2 0x664 JUMP JUMPDEST JUMPDEST PUSH0 PUSH2 0xB2D DUP6 DUP3 DUP7 ADD PUSH2 0xAF6 JUMP JUMPDEST SWAP3 POP POP PUSH1 0x20 PUSH2 0xB3E DUP6 DUP3 DUP7 ADD PUSH2 0xAF6 JUMP JUMPDEST SWAP2 POP POP SWAP3 POP SWAP3 SWAP1 POP JUMP JUMPDEST PUSH0 PUSH1 0x60 DUP3 ADD SWAP1 POP PUSH2 0xB5B PUSH0 DUP4 ADD DUP7 PUSH2 0xACE JUMP JUMPDEST PUSH2 0xB68 PUSH1 0x20 DUP4 ADD DUP6 PUSH2 0xACE JUMP JUMPDEST PUSH2 0xB75 PUSH1 0x40 DUP4 ADD DUP5 PUSH2 0xACE JUMP JUMPDEST SWAP5 SWAP4 POP POP POP POP JUMP JUMPDEST PUSH32 0x4469726563746F72792063616E6E6F74206265207A65726F2061646472657373 PUSH0 DUP3 ADD MSTORE POP JUMP JUMPDEST PUSH0 PUSH2 0xBB1 PUSH1 0x20 DUP4 PUSH2 0x9B1 JUMP JUMPDEST SWAP2 POP PUSH2 0xBBC DUP3 PUSH2 0xB7D JUMP JUMPDEST PUSH1 0x20 DUP3 ADD SWAP1 POP SWAP2 SWAP1 POP JUMP JUMPDEST PUSH0 PUSH1 0x20 DUP3 ADD SWAP1 POP DUP2 DUP2 SUB PUSH0 DUP4 ADD MSTORE PUSH2 0xBDE DUP2 PUSH2 0xBA5 JUMP JUMPDEST SWAP1 POP SWAP2 SWAP1 POP JUMP JUMPDEST PUSH32 0x4469726563746F7279206D757374206265206120636F6E747261637400000000 PUSH0 DUP3 ADD MSTORE POP JUMP JUMPDEST PUSH0 PUSH2 0xC19 PUSH1 0x1C DUP4 PUSH2 0x9B1 JUMP JUMPDEST SWAP2 POP PUSH2 0xC24 DUP3 PUSH2 0xBE5 JUMP JUMPDEST PUSH1 0x20 DUP3 ADD SWAP1 POP SWAP2 SWAP1 POP JUMP JUMPDEST PUSH0 PUSH1 0x20 DUP3 ADD SWAP1 POP DUP2 DUP2 SUB PUSH0 DUP4 ADD MSTORE PUSH2 0xC46 DUP2 PUSH2 0xC0D JUMP JUMPDEST SWAP1 POP SWAP2 SWAP1 POP JUMP JUMPDEST PUSH32 0x4469726563746F7279206164647265737320646F6573206E6F7420696D706C65 PUSH0 DUP3 ADD MSTORE PUSH32 0x6D656E74206F776E657228290000000000000000000000000000000000000000 PUSH1 0x20 DUP3 ADD MSTORE POP JUMP JUMPDEST PUSH0 PUSH2 0xCA7 PUSH1 0x2C DUP4 PUSH2 0x9B1 JUMP JUMPDEST SWAP2 POP PUSH2 0xCB2 DUP3 PUSH2 0xC4D JUMP JUMPDEST PUSH1 0x40 DUP3 ADD SWAP1 POP SWAP2 SWAP1 POP JUMP JUMPDEST PUSH0 PUSH1 0x20 DUP3 ADD SWAP1 POP DUP2 DUP2 SUB PUSH0 DUP4 ADD MSTORE PUSH2 0xCD4 DUP2 PUSH2 0xC9B JUMP JUMPDEST SWAP1 POP SWAP2 SWAP1 POP JUMP INVALID LOG2 PUSH5 0x6970667358 0x22 SLT KECCAK256 DUP10 TSTORE 0xDC EXTCALL CREATE2 EXTCODESIZE 0xA6 0xC4 0xBB 0xB1 SWAP6 SWAP6 0xA7 MCOPY SELFBALANCE EXTSTATICCALL PUSH1 0x8E PUSH20 0x5B05BA6BB4FDC388E17B2D3F8864736F6C634300 ADDMOD 0x1E STOP CALLER "
				},
				"gasEstimates": {
					"creation": {
						"codeDepositCost": "669000",
						"executionCost": "infinite",
						"totalCost": "infinite"
					},
					"external": {
						"Directory()": "infinite",
						"changeDirectoryAddress(address)": "infinite",
						"emitTransferEvent(uint256,address,address,uint256)": "infinite",
						"fetchFromDirectory(string)": "infinite",
						"owner()": "infinite"
					}
				},
				"methodIdentifiers": {
					"Directory()": "658a847a",
					"changeDirectoryAddress(address)": "ba4c7be1",
					"emitTransferEvent(uint256,address,address,uint256)": "c082f03f",
					"fetchFromDirectory(string)": "27262618",
					"owner()": "8da5cb5b"
				}
			},
			"storageLayout": {
				"storage": [
					{
						"astId": 18,
						"contract": "hopium/etf/main/etf-token-events.sol:EtfTokenEvents",
						"label": "Directory",
						"offset": 0,
						"slot": "0",
						"type": "t_contract(IDirectory)15"
					}
				],
				"types": {
					"t_contract(IDirectory)15": {
						"encoding": "inplace",
						"label": "contract IDirectory",
						"numberOfBytes": "20"
					}
				}
			},
			"userdoc": {
				"kind": "user",
				"methods": {
					"emitTransferEvent(uint256,address,address,uint256)": {
						"notice": "Emits a transfer event for ETF tokens"
					}
				},
				"version": 1
			}
		}
	}
}