{
	"hopium/uniswap/main/uniswap-oracle.sol": {
		"UniswapOracle": {
			"abi": [
				{
					"inputs": [
						{
							"internalType": "address",
							"name": "_directory",
							"type": "address"
						},
						{
							"internalType": "address",
							"name": "_wethAddress",
							"type": "address"
						},
						{
							"internalType": "address",
							"name": "_wethUsdPoolAddress",
							"type": "address"
						},
						{
							"internalType": "bool",
							"name": "_isWethUsdPoolV3",
							"type": "bool"
						}
					],
					"stateMutability": "nonpayable",
					"type": "constructor"
				},
				{
					"inputs": [],
					"name": "EmptyReserves",
					"type": "error"
				},
				{
					"inputs": [],
					"name": "NotBasePool",
					"type": "error"
				},
				{
					"inputs": [],
					"name": "PoolDoesNotExist",
					"type": "error"
				},
				{
					"inputs": [],
					"name": "ZeroLiquidity",
					"type": "error"
				},
				{
					"inputs": [],
					"name": "Directory",
					"outputs": [
						{
							"internalType": "contract IDirectory",
							"name": "",
							"type": "address"
						}
					],
					"stateMutability": "view",
					"type": "function"
				},
				{
					"inputs": [],
					"name": "IS_WETH_USD_PAIR_ADDRESS_V3",
					"outputs": [
						{
							"internalType": "bool",
							"name": "",
							"type": "bool"
						}
					],
					"stateMutability": "view",
					"type": "function"
				},
				{
					"inputs": [],
					"name": "USD_ADDRESS",
					"outputs": [
						{
							"internalType": "address",
							"name": "",
							"type": "address"
						}
					],
					"stateMutability": "view",
					"type": "function"
				},
				{
					"inputs": [],
					"name": "WETH_ADDRESS",
					"outputs": [
						{
							"internalType": "address",
							"name": "",
							"type": "address"
						}
					],
					"stateMutability": "view",
					"type": "function"
				},
				{
					"inputs": [],
					"name": "WETH_DECIMALS",
					"outputs": [
						{
							"internalType": "uint8",
							"name": "",
							"type": "uint8"
						}
					],
					"stateMutability": "view",
					"type": "function"
				},
				{
					"inputs": [],
					"name": "WETH_USD_PAIR_ADDRESS",
					"outputs": [
						{
							"internalType": "address",
							"name": "",
							"type": "address"
						}
					],
					"stateMutability": "view",
					"type": "function"
				},
				{
					"inputs": [
						{
							"internalType": "address",
							"name": "poolAddress",
							"type": "address"
						},
						{
							"internalType": "address",
							"name": "baseAddress",
							"type": "address"
						}
					],
					"name": "_getTokenPriceV2",
					"outputs": [
						{
							"internalType": "uint256",
							"name": "price18",
							"type": "uint256"
						}
					],
					"stateMutability": "view",
					"type": "function"
				},
				{
					"inputs": [
						{
							"internalType": "address",
							"name": "poolAddress",
							"type": "address"
						},
						{
							"internalType": "address",
							"name": "baseAddress",
							"type": "address"
						}
					],
					"name": "_getTokenPriceV3",
					"outputs": [
						{
							"internalType": "uint256",
							"name": "price18",
							"type": "uint256"
						}
					],
					"stateMutability": "view",
					"type": "function"
				},
				{
					"inputs": [
						{
							"internalType": "address",
							"name": "_directory",
							"type": "address"
						}
					],
					"name": "changeDirectoryAddress",
					"outputs": [],
					"stateMutability": "nonpayable",
					"type": "function"
				},
				{
					"inputs": [],
					"name": "emitPoolChangedEventOnWethUsdPool",
					"outputs": [],
					"stateMutability": "nonpayable",
					"type": "function"
				},
				{
					"inputs": [
						{
							"internalType": "string",
							"name": "_key",
							"type": "string"
						}
					],
					"name": "fetchFromDirectory",
					"outputs": [
						{
							"internalType": "address",
							"name": "",
							"type": "address"
						}
					],
					"stateMutability": "view",
					"type": "function"
				},
				{
					"inputs": [
						{
							"internalType": "address",
							"name": "tokenAddress",
							"type": "address"
						}
					],
					"name": "getTokenLiquidityUsd",
					"outputs": [
						{
							"internalType": "uint256",
							"name": "totalLiquidityUsd18",
							"type": "uint256"
						}
					],
					"stateMutability": "view",
					"type": "function"
				},
				{
					"inputs": [
						{
							"internalType": "address",
							"name": "tokenAddress",
							"type": "address"
						}
					],
					"name": "getTokenLiquidityWeth",
					"outputs": [
						{
							"internalType": "uint256",
							"name": "",
							"type": "uint256"
						}
					],
					"stateMutability": "view",
					"type": "function"
				},
				{
					"inputs": [
						{
							"internalType": "address",
							"name": "tokenAddress",
							"type": "address"
						}
					],
					"name": "getTokenMarketCapUsd",
					"outputs": [
						{
							"internalType": "uint256",
							"name": "marketCapUsd18",
							"type": "uint256"
						}
					],
					"stateMutability": "view",
					"type": "function"
				},
				{
					"inputs": [
						{
							"internalType": "address",
							"name": "tokenAddress",
							"type": "address"
						}
					],
					"name": "getTokenMarketCapWeth",
					"outputs": [
						{
							"internalType": "uint256",
							"name": "",
							"type": "uint256"
						}
					],
					"stateMutability": "view",
					"type": "function"
				},
				{
					"inputs": [
						{
							"internalType": "address",
							"name": "tokenAddress",
							"type": "address"
						}
					],
					"name": "getTokenUsdPrice",
					"outputs": [
						{
							"internalType": "uint256",
							"name": "price18",
							"type": "uint256"
						}
					],
					"stateMutability": "view",
					"type": "function"
				},
				{
					"inputs": [
						{
							"internalType": "address",
							"name": "tokenAddress",
							"type": "address"
						}
					],
					"name": "getTokenWethPoolAddress",
					"outputs": [
						{
							"internalType": "bool",
							"name": "isV3Pool",
							"type": "bool"
						},
						{
							"internalType": "address",
							"name": "poolAddress",
							"type": "address"
						}
					],
					"stateMutability": "view",
					"type": "function"
				},
				{
					"inputs": [
						{
							"internalType": "address",
							"name": "tokenAddress",
							"type": "address"
						}
					],
					"name": "getTokenWethPrice",
					"outputs": [
						{
							"internalType": "uint256",
							"name": "",
							"type": "uint256"
						}
					],
					"stateMutability": "view",
					"type": "function"
				},
				{
					"inputs": [],
					"name": "getWethUsdPrice",
					"outputs": [
						{
							"internalType": "uint256",
							"name": "price18",
							"type": "uint256"
						}
					],
					"stateMutability": "view",
					"type": "function"
				},
				{
					"inputs": [],
					"name": "owner",
					"outputs": [
						{
							"internalType": "address",
							"name": "",
							"type": "address"
						}
					],
					"stateMutability": "view",
					"type": "function"
				}
			],
			"devdoc": {
				"kind": "dev",
				"methods": {
					"_getTokenPriceV2(address,address)": {
						"details": "`baseAddress` must be either token0 or token1 in the pair.      Returns base units per 1 unit of the *other* token in the pool."
					},
					"_getTokenPriceV3(address,address)": {
						"details": "`baseAddress` must be one side. Uses sqrtPriceX96 and handles decimals exactly."
					}
				},
				"version": 1
			},
			"evm": {
				"assembly": "    /* \"hopium/uniswap/main/uniswap-oracle.sol\":13999:17715  contract UniswapOracle is LiquidityHelper {... */\n  mstore(0x40, 0x0120)\n    /* \"hopium/uniswap/main/uniswap-oracle.sol\":14048:14909  constructor(... */\n  callvalue\n  dup1\n  iszero\n  tag_1\n  jumpi\n  revert(0x00, 0x00)\ntag_1:\n  pop\n  mload(0x40)\n  sub(codesize, bytecodeSize)\n  dup1\n  bytecodeSize\n  dup4\n  codecopy\n  dup2\n  dup2\n  add\n  0x40\n  mstore\n  dup2\n  add\n  swap1\n  tag_2\n  swap2\n  swap1\n  tag_3\n  jump\t// in\ntag_2:\n    /* \"hopium/uniswap/main/uniswap-oracle.sol\":14204:14214  _directory */\n  dup4\n    /* \"hopium/common/interface/imDirectory.sol\":412:437  _setDirectory(_directory) */\n  tag_7\n    /* \"hopium/common/interface/imDirectory.sol\":426:436  _directory */\n  dup2\n    /* \"hopium/common/interface/imDirectory.sol\":412:425  _setDirectory */\n  shl(0x20, tag_8)\n    /* \"hopium/common/interface/imDirectory.sol\":412:437  _setDirectory(_directory) */\n  0x20\n  shr\n  jump\t// in\ntag_7:\n    /* \"hopium/common/interface/imDirectory.sol\":370:464  constructor(address _directory) {... */\n  pop\n    /* \"hopium/uniswap/main/uniswap-oracle.sol\":14241:14253  _wethAddress */\n  dup3\n    /* \"hopium/uniswap/main/uniswap-oracle.sol\":14226:14253  WETH_ADDRESS = _wethAddress */\n  0xffffffffffffffffffffffffffffffffffffffff\n  and\n  0x80\n  dup2\n  0xffffffffffffffffffffffffffffffffffffffff\n  and\n  dup2\n  mstore\n  pop\n  pop\n    /* \"hopium/uniswap/main/uniswap-oracle.sol\":14287:14306  _wethUsdPoolAddress */\n  dup2\n    /* \"hopium/uniswap/main/uniswap-oracle.sol\":14263:14306  WETH_USD_PAIR_ADDRESS = _wethUsdPoolAddress */\n  0xffffffffffffffffffffffffffffffffffffffff\n  and\n  0xc0\n  dup2\n  0xffffffffffffffffffffffffffffffffffffffff\n  and\n  dup2\n  mstore\n  pop\n  pop\n    /* \"hopium/uniswap/main/uniswap-oracle.sol\":14346:14362  _isWethUsdPoolV3 */\n  dup1\n    /* \"hopium/uniswap/main/uniswap-oracle.sol\":14316:14362  IS_WETH_USD_PAIR_ADDRESS_V3 = _isWethUsdPoolV3 */\n  iszero\n  iszero\n  0xe0\n  dup2\n  iszero\n  iszero\n  dup2\n  mstore\n  pop\n  pop\n    /* \"hopium/uniswap/main/uniswap-oracle.sol\":14404:14416  _wethAddress */\n  dup3\n    /* \"hopium/uniswap/main/uniswap-oracle.sol\":14389:14426  IERC20Metadata(_wethAddress).decimals */\n  0xffffffffffffffffffffffffffffffffffffffff\n  and\n  0x313ce567\n    /* \"hopium/uniswap/main/uniswap-oracle.sol\":14389:14428  IERC20Metadata(_wethAddress).decimals() */\n  mload(0x40)\n  dup2\n  0xffffffff\n  and\n  0xe0\n  shl\n  dup2\n  mstore\n  0x04\n  add\n  0x20\n  mload(0x40)\n  dup1\n  dup4\n  sub\n  dup2\n  dup7\n  gas\n  staticcall\n  iszero\n  dup1\n  iszero\n  tag_11\n  jumpi\n  returndatacopy(0x00, 0x00, returndatasize)\n  revert(0x00, returndatasize)\ntag_11:\n  pop\n  pop\n  pop\n  pop\n  mload(0x40)\n  returndatasize\n  not(0x1f)\n  0x1f\n  dup3\n  add\n  and\n  dup3\n  add\n  dup1\n  0x40\n  mstore\n  pop\n  dup2\n  add\n  swap1\n  tag_12\n  swap2\n  swap1\n  tag_13\n  jump\t// in\ntag_12:\n    /* \"hopium/uniswap/main/uniswap-oracle.sol\":14373:14428  WETH_DECIMALS = IERC20Metadata(_wethAddress).decimals() */\n  0xff\n  and\n  0x0100\n  dup2\n  0xff\n  and\n  dup2\n  mstore\n  pop\n  pop\n    /* \"hopium/uniswap/main/uniswap-oracle.sol\":14443:14459  _isWethUsdPoolV3 */\n  dup1\n    /* \"hopium/uniswap/main/uniswap-oracle.sol\":14439:14903  if (_isWethUsdPoolV3) {... */\n  iszero\n  tag_14\n  jumpi\n    /* \"hopium/uniswap/main/uniswap-oracle.sol\":14475:14494  IUniswapV3Pool pool */\n  0x00\n    /* \"hopium/uniswap/main/uniswap-oracle.sol\":14512:14531  _wethUsdPoolAddress */\n  dup3\n    /* \"hopium/uniswap/main/uniswap-oracle.sol\":14475:14532  IUniswapV3Pool pool = IUniswapV3Pool(_wethUsdPoolAddress) */\n  swap1\n  pop\n    /* \"hopium/uniswap/main/uniswap-oracle.sol\":14546:14556  address t0 */\n  0x00\n    /* \"hopium/uniswap/main/uniswap-oracle.sol\":14559:14563  pool */\n  dup2\n    /* \"hopium/uniswap/main/uniswap-oracle.sol\":14559:14570  pool.token0 */\n  0xffffffffffffffffffffffffffffffffffffffff\n  and\n  0x0dfe1681\n    /* \"hopium/uniswap/main/uniswap-oracle.sol\":14559:14572  pool.token0() */\n  mload(0x40)\n  dup2\n  0xffffffff\n  and\n  0xe0\n  shl\n  dup2\n  mstore\n  0x04\n  add\n  0x20\n  mload(0x40)\n  dup1\n  dup4\n  sub\n  dup2\n  dup7\n  gas\n  staticcall\n  iszero\n  dup1\n  iszero\n  tag_16\n  jumpi\n  returndatacopy(0x00, 0x00, returndatasize)\n  revert(0x00, returndatasize)\ntag_16:\n  pop\n  pop\n  pop\n  pop\n  mload(0x40)\n  returndatasize\n  not(0x1f)\n  0x1f\n  dup3\n  add\n  and\n  dup3\n  add\n  dup1\n  0x40\n  mstore\n  pop\n  dup2\n  add\n  swap1\n  tag_17\n  swap2\n  swap1\n  tag_18\n  jump\t// in\ntag_17:\n    /* \"hopium/uniswap/main/uniswap-oracle.sol\":14546:14572  address t0 = pool.token0() */\n  swap1\n  pop\n    /* \"hopium/uniswap/main/uniswap-oracle.sol\":14586:14596  address t1 */\n  0x00\n    /* \"hopium/uniswap/main/uniswap-oracle.sol\":14599:14603  pool */\n  dup3\n    /* \"hopium/uniswap/main/uniswap-oracle.sol\":14599:14610  pool.token1 */\n  0xffffffffffffffffffffffffffffffffffffffff\n  and\n  0xd21220a7\n    /* \"hopium/uniswap/main/uniswap-oracle.sol\":14599:14612  pool.token1() */\n  mload(0x40)\n  dup2\n  0xffffffff\n  and\n  0xe0\n  shl\n  dup2\n  mstore\n  0x04\n  add\n  0x20\n  mload(0x40)\n  dup1\n  dup4\n  sub\n  dup2\n  dup7\n  gas\n  staticcall\n  iszero\n  dup1\n  iszero\n  tag_20\n  jumpi\n  returndatacopy(0x00, 0x00, returndatasize)\n  revert(0x00, returndatasize)\ntag_20:\n  pop\n  pop\n  pop\n  pop\n  mload(0x40)\n  returndatasize\n  not(0x1f)\n  0x1f\n  dup3\n  add\n  and\n  dup3\n  add\n  dup1\n  0x40\n  mstore\n  pop\n  dup2\n  add\n  swap1\n  tag_21\n  swap2\n  swap1\n  tag_18\n  jump\t// in\ntag_21:\n    /* \"hopium/uniswap/main/uniswap-oracle.sol\":14586:14612  address t1 = pool.token1() */\n  swap1\n  pop\n    /* \"hopium/uniswap/main/uniswap-oracle.sol\":14646:14658  _wethAddress */\n  dup6\n    /* \"hopium/uniswap/main/uniswap-oracle.sol\":14640:14658  t0 == _wethAddress */\n  0xffffffffffffffffffffffffffffffffffffffff\n  and\n    /* \"hopium/uniswap/main/uniswap-oracle.sol\":14640:14642  t0 */\n  dup3\n    /* \"hopium/uniswap/main/uniswap-oracle.sol\":14640:14658  t0 == _wethAddress */\n  0xffffffffffffffffffffffffffffffffffffffff\n  and\n  eq\n    /* \"hopium/uniswap/main/uniswap-oracle.sol\":14640:14668  t0 == _wethAddress ? t1 : t0 */\n  tag_22\n  jumpi\n    /* \"hopium/uniswap/main/uniswap-oracle.sol\":14666:14668  t0 */\n  dup2\n    /* \"hopium/uniswap/main/uniswap-oracle.sol\":14640:14668  t0 == _wethAddress ? t1 : t0 */\n  jump(tag_23)\ntag_22:\n    /* \"hopium/uniswap/main/uniswap-oracle.sol\":14661:14663  t1 */\n  dup1\n    /* \"hopium/uniswap/main/uniswap-oracle.sol\":14640:14668  t0 == _wethAddress ? t1 : t0 */\ntag_23:\n    /* \"hopium/uniswap/main/uniswap-oracle.sol\":14626:14668  USD_ADDRESS = t0 == _wethAddress ? t1 : t0 */\n  0xffffffffffffffffffffffffffffffffffffffff\n  and\n  0xa0\n  dup2\n  0xffffffffffffffffffffffffffffffffffffffff\n  and\n  dup2\n  mstore\n  pop\n  pop\n    /* \"hopium/uniswap/main/uniswap-oracle.sol\":14461:14679  {... */\n  pop\n  pop\n  pop\n    /* \"hopium/uniswap/main/uniswap-oracle.sol\":14439:14903  if (_isWethUsdPoolV3) {... */\n  jump(tag_24)\ntag_14:\n    /* \"hopium/uniswap/main/uniswap-oracle.sol\":14699:14718  IUniswapV2Pair pool */\n  0x00\n    /* \"hopium/uniswap/main/uniswap-oracle.sol\":14736:14755  _wethUsdPoolAddress */\n  dup3\n    /* \"hopium/uniswap/main/uniswap-oracle.sol\":14699:14756  IUniswapV2Pair pool = IUniswapV2Pair(_wethUsdPoolAddress) */\n  swap1\n  pop\n    /* \"hopium/uniswap/main/uniswap-oracle.sol\":14770:14780  address t0 */\n  0x00\n    /* \"hopium/uniswap/main/uniswap-oracle.sol\":14783:14787  pool */\n  dup2\n    /* \"hopium/uniswap/main/uniswap-oracle.sol\":14783:14794  pool.token0 */\n  0xffffffffffffffffffffffffffffffffffffffff\n  and\n  0x0dfe1681\n    /* \"hopium/uniswap/main/uniswap-oracle.sol\":14783:14796  pool.token0() */\n  mload(0x40)\n  dup2\n  0xffffffff\n  and\n  0xe0\n  shl\n  dup2\n  mstore\n  0x04\n  add\n  0x20\n  mload(0x40)\n  dup1\n  dup4\n  sub\n  dup2\n  dup7\n  gas\n  staticcall\n  iszero\n  dup1\n  iszero\n  tag_26\n  jumpi\n  returndatacopy(0x00, 0x00, returndatasize)\n  revert(0x00, returndatasize)\ntag_26:\n  pop\n  pop\n  pop\n  pop\n  mload(0x40)\n  returndatasize\n  not(0x1f)\n  0x1f\n  dup3\n  add\n  and\n  dup3\n  add\n  dup1\n  0x40\n  mstore\n  pop\n  dup2\n  add\n  swap1\n  tag_27\n  swap2\n  swap1\n  tag_18\n  jump\t// in\ntag_27:\n    /* \"hopium/uniswap/main/uniswap-oracle.sol\":14770:14796  address t0 = pool.token0() */\n  swap1\n  pop\n    /* \"hopium/uniswap/main/uniswap-oracle.sol\":14810:14820  address t1 */\n  0x00\n    /* \"hopium/uniswap/main/uniswap-oracle.sol\":14823:14827  pool */\n  dup3\n    /* \"hopium/uniswap/main/uniswap-oracle.sol\":14823:14834  pool.token1 */\n  0xffffffffffffffffffffffffffffffffffffffff\n  and\n  0xd21220a7\n    /* \"hopium/uniswap/main/uniswap-oracle.sol\":14823:14836  pool.token1() */\n  mload(0x40)\n  dup2\n  0xffffffff\n  and\n  0xe0\n  shl\n  dup2\n  mstore\n  0x04\n  add\n  0x20\n  mload(0x40)\n  dup1\n  dup4\n  sub\n  dup2\n  dup7\n  gas\n  staticcall\n  iszero\n  dup1\n  iszero\n  tag_29\n  jumpi\n  returndatacopy(0x00, 0x00, returndatasize)\n  revert(0x00, returndatasize)\ntag_29:\n  pop\n  pop\n  pop\n  pop\n  mload(0x40)\n  returndatasize\n  not(0x1f)\n  0x1f\n  dup3\n  add\n  and\n  dup3\n  add\n  dup1\n  0x40\n  mstore\n  pop\n  dup2\n  add\n  swap1\n  tag_30\n  swap2\n  swap1\n  tag_18\n  jump\t// in\ntag_30:\n    /* \"hopium/uniswap/main/uniswap-oracle.sol\":14810:14836  address t1 = pool.token1() */\n  swap1\n  pop\n    /* \"hopium/uniswap/main/uniswap-oracle.sol\":14870:14882  _wethAddress */\n  dup6\n    /* \"hopium/uniswap/main/uniswap-oracle.sol\":14864:14882  t0 == _wethAddress */\n  0xffffffffffffffffffffffffffffffffffffffff\n  and\n    /* \"hopium/uniswap/main/uniswap-oracle.sol\":14864:14866  t0 */\n  dup3\n    /* \"hopium/uniswap/main/uniswap-oracle.sol\":14864:14882  t0 == _wethAddress */\n  0xffffffffffffffffffffffffffffffffffffffff\n  and\n  eq\n    /* \"hopium/uniswap/main/uniswap-oracle.sol\":14864:14892  t0 == _wethAddress ? t1 : t0 */\n  tag_31\n  jumpi\n    /* \"hopium/uniswap/main/uniswap-oracle.sol\":14890:14892  t0 */\n  dup2\n    /* \"hopium/uniswap/main/uniswap-oracle.sol\":14864:14892  t0 == _wethAddress ? t1 : t0 */\n  jump(tag_32)\ntag_31:\n    /* \"hopium/uniswap/main/uniswap-oracle.sol\":14885:14887  t1 */\n  dup1\n    /* \"hopium/uniswap/main/uniswap-oracle.sol\":14864:14892  t0 == _wethAddress ? t1 : t0 */\ntag_32:\n    /* \"hopium/uniswap/main/uniswap-oracle.sol\":14850:14892  USD_ADDRESS = t0 == _wethAddress ? t1 : t0 */\n  0xffffffffffffffffffffffffffffffffffffffff\n  and\n  0xa0\n  dup2\n  0xffffffffffffffffffffffffffffffffffffffff\n  and\n  dup2\n  mstore\n  pop\n  pop\n    /* \"hopium/uniswap/main/uniswap-oracle.sol\":14685:14903  {... */\n  pop\n  pop\n  pop\n    /* \"hopium/uniswap/main/uniswap-oracle.sol\":14439:14903  if (_isWethUsdPoolV3) {... */\ntag_24:\n    /* \"hopium/uniswap/main/uniswap-oracle.sol\":14048:14909  constructor(... */\n  pop\n  pop\n  pop\n  pop\n    /* \"hopium/uniswap/main/uniswap-oracle.sol\":13999:17715  contract UniswapOracle is LiquidityHelper {... */\n  jump(tag_33)\n    /* \"hopium/common/interface/imDirectory.sol\":589:1050  function _setDirectory(address _directory) internal {... */\ntag_8:\n    /* \"hopium/common/interface/imDirectory.sol\":681:682  0 */\n  0x00\n    /* \"hopium/common/interface/imDirectory.sol\":659:683  _directory != address(0) */\n  0xffffffffffffffffffffffffffffffffffffffff\n  and\n    /* \"hopium/common/interface/imDirectory.sol\":659:669  _directory */\n  dup2\n    /* \"hopium/common/interface/imDirectory.sol\":659:683  _directory != address(0) */\n  0xffffffffffffffffffffffffffffffffffffffff\n  and\n  sub\n    /* \"hopium/common/interface/imDirectory.sol\":651:720  require(_directory != address(0), \"Directory cannot be zero address\") */\n  tag_35\n  jumpi\n  mload(0x40)\n  0x08c379a000000000000000000000000000000000000000000000000000000000\n  dup2\n  mstore\n  0x04\n  add\n  tag_36\n  swap1\n  tag_37\n  jump\t// in\ntag_36:\n  mload(0x40)\n  dup1\n  swap2\n  sub\n  swap1\n  revert\ntag_35:\n    /* \"hopium/common/interface/imDirectory.sol\":763:764  0 */\n  0x00\n    /* \"hopium/common/interface/imDirectory.sol\":738:748  _directory */\n  dup2\n    /* \"hopium/common/interface/imDirectory.sol\":738:760  _directory.code.length */\n  0xffffffffffffffffffffffffffffffffffffffff\n  and\n  extcodesize\n    /* \"hopium/common/interface/imDirectory.sol\":738:764  _directory.code.length > 0 */\n  gt\n    /* \"hopium/common/interface/imDirectory.sol\":730:797  require(_directory.code.length > 0, \"Directory must be a contract\") */\n  tag_38\n  jumpi\n  mload(0x40)\n  0x08c379a000000000000000000000000000000000000000000000000000000000\n  dup2\n  mstore\n  0x04\n  add\n  tag_39\n  swap1\n  tag_40\n  jump\t// in\ntag_39:\n  mload(0x40)\n  dup1\n  swap2\n  sub\n  swap1\n  revert\ntag_38:\n    /* \"hopium/common/interface/imDirectory.sol\":861:871  _directory */\n  dup1\n    /* \"hopium/common/interface/imDirectory.sol\":850:878  IDirectory(_directory).owner */\n  0xffffffffffffffffffffffffffffffffffffffff\n  and\n  0x8da5cb5b\n    /* \"hopium/common/interface/imDirectory.sol\":850:880  IDirectory(_directory).owner() */\n  mload(0x40)\n  dup2\n  0xffffffff\n  and\n  0xe0\n  shl\n  dup2\n  mstore\n  0x04\n  add\n  0x20\n  mload(0x40)\n  dup1\n  dup4\n  sub\n  dup2\n  dup7\n  gas\n  staticcall\n  swap3\n  pop\n  pop\n  pop\n  dup1\n  iszero\n  tag_41\n  jumpi\n  pop\n  mload(0x40)\n  returndatasize\n  not(0x1f)\n  0x1f\n  dup3\n  add\n  and\n  dup3\n  add\n  dup1\n  0x40\n  mstore\n  pop\n  dup2\n  add\n  swap1\n  tag_42\n  swap2\n  swap1\n  tag_18\n  jump\t// in\ntag_42:\n  0x01\ntag_41:\n    /* \"hopium/common/interface/imDirectory.sol\":846:1044  try IDirectory(_directory).owner() returns (address) {... */\n  tag_43\n  jumpi\n    /* \"hopium/common/interface/imDirectory.sol\":979:1033  revert(\"Directory address does not implement owner()\") */\n  mload(0x40)\n  0x08c379a000000000000000000000000000000000000000000000000000000000\n  dup2\n  mstore\n  0x04\n  add\n  tag_47\n  swap1\n  tag_48\n  jump\t// in\ntag_47:\n  mload(0x40)\n  dup1\n  swap2\n  sub\n  swap1\n  revert\n    /* \"hopium/common/interface/imDirectory.sol\":846:1044  try IDirectory(_directory).owner() returns (address) {... */\ntag_43:\n    /* \"hopium/common/interface/imDirectory.sol\":936:946  _directory */\n  dup2\n    /* \"hopium/common/interface/imDirectory.sol\":913:922  Directory */\n  0x00\n  0x00\n    /* \"hopium/common/interface/imDirectory.sol\":913:947  Directory = IDirectory(_directory) */\n  0x0100\n  exp\n  dup2\n  sload\n  dup2\n  0xffffffffffffffffffffffffffffffffffffffff\n  mul\n  not\n  and\n  swap1\n  dup4\n  0xffffffffffffffffffffffffffffffffffffffff\n  and\n  mul\n  or\n  swap1\n  sstore\n  pop\n    /* \"hopium/common/interface/imDirectory.sol\":881:958  returns (address) {... */\n  pop\n    /* \"hopium/common/interface/imDirectory.sol\":589:1050  function _setDirectory(address _directory) internal {... */\n  pop\n  jump\t// out\n    /* \"#utility.yul\":88:205   */\ntag_51:\n    /* \"#utility.yul\":197:198   */\n  0x00\n    /* \"#utility.yul\":194:195   */\n  0x00\n    /* \"#utility.yul\":187:199   */\n  revert\n    /* \"#utility.yul\":334:460   */\ntag_53:\n    /* \"#utility.yul\":371:378   */\n  0x00\n    /* \"#utility.yul\":411:453   */\n  0xffffffffffffffffffffffffffffffffffffffff\n    /* \"#utility.yul\":404:409   */\n  dup3\n    /* \"#utility.yul\":400:454   */\n  and\n    /* \"#utility.yul\":389:454   */\n  swap1\n  pop\n    /* \"#utility.yul\":334:460   */\n  swap2\n  swap1\n  pop\n  jump\t// out\n    /* \"#utility.yul\":466:562   */\ntag_54:\n    /* \"#utility.yul\":503:510   */\n  0x00\n    /* \"#utility.yul\":532:556   */\n  tag_76\n    /* \"#utility.yul\":550:555   */\n  dup3\n    /* \"#utility.yul\":532:556   */\n  tag_53\n  jump\t// in\ntag_76:\n    /* \"#utility.yul\":521:556   */\n  swap1\n  pop\n    /* \"#utility.yul\":466:562   */\n  swap2\n  swap1\n  pop\n  jump\t// out\n    /* \"#utility.yul\":568:690   */\ntag_55:\n    /* \"#utility.yul\":641:665   */\n  tag_78\n    /* \"#utility.yul\":659:664   */\n  dup2\n    /* \"#utility.yul\":641:665   */\n  tag_54\n  jump\t// in\ntag_78:\n    /* \"#utility.yul\":634:639   */\n  dup2\n    /* \"#utility.yul\":631:666   */\n  eq\n    /* \"#utility.yul\":621:684   */\n  tag_79\n  jumpi\n    /* \"#utility.yul\":680:681   */\n  0x00\n    /* \"#utility.yul\":677:678   */\n  0x00\n    /* \"#utility.yul\":670:682   */\n  revert\n    /* \"#utility.yul\":621:684   */\ntag_79:\n    /* \"#utility.yul\":568:690   */\n  pop\n  jump\t// out\n    /* \"#utility.yul\":696:839   */\ntag_56:\n    /* \"#utility.yul\":753:758   */\n  0x00\n    /* \"#utility.yul\":784:790   */\n  dup2\n    /* \"#utility.yul\":778:791   */\n  mload\n    /* \"#utility.yul\":769:791   */\n  swap1\n  pop\n    /* \"#utility.yul\":800:833   */\n  tag_81\n    /* \"#utility.yul\":827:832   */\n  dup2\n    /* \"#utility.yul\":800:833   */\n  tag_55\n  jump\t// in\ntag_81:\n    /* \"#utility.yul\":696:839   */\n  swap3\n  swap2\n  pop\n  pop\n  jump\t// out\n    /* \"#utility.yul\":845:935   */\ntag_57:\n    /* \"#utility.yul\":879:886   */\n  0x00\n    /* \"#utility.yul\":922:927   */\n  dup2\n    /* \"#utility.yul\":915:928   */\n  iszero\n    /* \"#utility.yul\":908:929   */\n  iszero\n    /* \"#utility.yul\":897:929   */\n  swap1\n  pop\n    /* \"#utility.yul\":845:935   */\n  swap2\n  swap1\n  pop\n  jump\t// out\n    /* \"#utility.yul\":941:1057   */\ntag_58:\n    /* \"#utility.yul\":1011:1032   */\n  tag_84\n    /* \"#utility.yul\":1026:1031   */\n  dup2\n    /* \"#utility.yul\":1011:1032   */\n  tag_57\n  jump\t// in\ntag_84:\n    /* \"#utility.yul\":1004:1009   */\n  dup2\n    /* \"#utility.yul\":1001:1033   */\n  eq\n    /* \"#utility.yul\":991:1051   */\n  tag_85\n  jumpi\n    /* \"#utility.yul\":1047:1048   */\n  0x00\n    /* \"#utility.yul\":1044:1045   */\n  0x00\n    /* \"#utility.yul\":1037:1049   */\n  revert\n    /* \"#utility.yul\":991:1051   */\ntag_85:\n    /* \"#utility.yul\":941:1057   */\n  pop\n  jump\t// out\n    /* \"#utility.yul\":1063:1200   */\ntag_59:\n    /* \"#utility.yul\":1117:1122   */\n  0x00\n    /* \"#utility.yul\":1148:1154   */\n  dup2\n    /* \"#utility.yul\":1142:1155   */\n  mload\n    /* \"#utility.yul\":1133:1155   */\n  swap1\n  pop\n    /* \"#utility.yul\":1164:1194   */\n  tag_87\n    /* \"#utility.yul\":1188:1193   */\n  dup2\n    /* \"#utility.yul\":1164:1194   */\n  tag_58\n  jump\t// in\ntag_87:\n    /* \"#utility.yul\":1063:1200   */\n  swap3\n  swap2\n  pop\n  pop\n  jump\t// out\n    /* \"#utility.yul\":1206:2020   */\ntag_3:\n    /* \"#utility.yul\":1300:1306   */\n  0x00\n    /* \"#utility.yul\":1308:1314   */\n  0x00\n    /* \"#utility.yul\":1316:1322   */\n  0x00\n    /* \"#utility.yul\":1324:1330   */\n  0x00\n    /* \"#utility.yul\":1373:1376   */\n  0x80\n    /* \"#utility.yul\":1361:1370   */\n  dup6\n    /* \"#utility.yul\":1352:1359   */\n  dup8\n    /* \"#utility.yul\":1348:1371   */\n  sub\n    /* \"#utility.yul\":1344:1377   */\n  slt\n    /* \"#utility.yul\":1341:1461   */\n  iszero\n  tag_89\n  jumpi\n    /* \"#utility.yul\":1380:1459   */\n  tag_90\n  tag_51\n  jump\t// in\ntag_90:\n    /* \"#utility.yul\":1341:1461   */\ntag_89:\n    /* \"#utility.yul\":1500:1501   */\n  0x00\n    /* \"#utility.yul\":1525:1589   */\n  tag_91\n    /* \"#utility.yul\":1581:1588   */\n  dup8\n    /* \"#utility.yul\":1572:1578   */\n  dup3\n    /* \"#utility.yul\":1561:1570   */\n  dup9\n    /* \"#utility.yul\":1557:1579   */\n  add\n    /* \"#utility.yul\":1525:1589   */\n  tag_56\n  jump\t// in\ntag_91:\n    /* \"#utility.yul\":1515:1589   */\n  swap5\n  pop\n    /* \"#utility.yul\":1471:1599   */\n  pop\n    /* \"#utility.yul\":1638:1640   */\n  0x20\n    /* \"#utility.yul\":1664:1728   */\n  tag_92\n    /* \"#utility.yul\":1720:1727   */\n  dup8\n    /* \"#utility.yul\":1711:1717   */\n  dup3\n    /* \"#utility.yul\":1700:1709   */\n  dup9\n    /* \"#utility.yul\":1696:1718   */\n  add\n    /* \"#utility.yul\":1664:1728   */\n  tag_56\n  jump\t// in\ntag_92:\n    /* \"#utility.yul\":1654:1728   */\n  swap4\n  pop\n    /* \"#utility.yul\":1609:1738   */\n  pop\n    /* \"#utility.yul\":1777:1779   */\n  0x40\n    /* \"#utility.yul\":1803:1867   */\n  tag_93\n    /* \"#utility.yul\":1859:1866   */\n  dup8\n    /* \"#utility.yul\":1850:1856   */\n  dup3\n    /* \"#utility.yul\":1839:1848   */\n  dup9\n    /* \"#utility.yul\":1835:1857   */\n  add\n    /* \"#utility.yul\":1803:1867   */\n  tag_56\n  jump\t// in\ntag_93:\n    /* \"#utility.yul\":1793:1867   */\n  swap3\n  pop\n    /* \"#utility.yul\":1748:1877   */\n  pop\n    /* \"#utility.yul\":1916:1918   */\n  0x60\n    /* \"#utility.yul\":1942:2003   */\n  tag_94\n    /* \"#utility.yul\":1995:2002   */\n  dup8\n    /* \"#utility.yul\":1986:1992   */\n  dup3\n    /* \"#utility.yul\":1975:1984   */\n  dup9\n    /* \"#utility.yul\":1971:1993   */\n  add\n    /* \"#utility.yul\":1942:2003   */\n  tag_59\n  jump\t// in\ntag_94:\n    /* \"#utility.yul\":1932:2003   */\n  swap2\n  pop\n    /* \"#utility.yul\":1887:2013   */\n  pop\n    /* \"#utility.yul\":1206:2020   */\n  swap3\n  swap6\n  swap2\n  swap5\n  pop\n  swap3\n  pop\n  jump\t// out\n    /* \"#utility.yul\":2026:2112   */\ntag_60:\n    /* \"#utility.yul\":2061:2068   */\n  0x00\n    /* \"#utility.yul\":2101:2105   */\n  0xff\n    /* \"#utility.yul\":2094:2099   */\n  dup3\n    /* \"#utility.yul\":2090:2106   */\n  and\n    /* \"#utility.yul\":2079:2106   */\n  swap1\n  pop\n    /* \"#utility.yul\":2026:2112   */\n  swap2\n  swap1\n  pop\n  jump\t// out\n    /* \"#utility.yul\":2118:2236   */\ntag_61:\n    /* \"#utility.yul\":2189:2211   */\n  tag_97\n    /* \"#utility.yul\":2205:2210   */\n  dup2\n    /* \"#utility.yul\":2189:2211   */\n  tag_60\n  jump\t// in\ntag_97:\n    /* \"#utility.yul\":2182:2187   */\n  dup2\n    /* \"#utility.yul\":2179:2212   */\n  eq\n    /* \"#utility.yul\":2169:2230   */\n  tag_98\n  jumpi\n    /* \"#utility.yul\":2226:2227   */\n  0x00\n    /* \"#utility.yul\":2223:2224   */\n  0x00\n    /* \"#utility.yul\":2216:2228   */\n  revert\n    /* \"#utility.yul\":2169:2230   */\ntag_98:\n    /* \"#utility.yul\":2118:2236   */\n  pop\n  jump\t// out\n    /* \"#utility.yul\":2242:2381   */\ntag_62:\n    /* \"#utility.yul\":2297:2302   */\n  0x00\n    /* \"#utility.yul\":2328:2334   */\n  dup2\n    /* \"#utility.yul\":2322:2335   */\n  mload\n    /* \"#utility.yul\":2313:2335   */\n  swap1\n  pop\n    /* \"#utility.yul\":2344:2375   */\n  tag_100\n    /* \"#utility.yul\":2369:2374   */\n  dup2\n    /* \"#utility.yul\":2344:2375   */\n  tag_61\n  jump\t// in\ntag_100:\n    /* \"#utility.yul\":2242:2381   */\n  swap3\n  swap2\n  pop\n  pop\n  jump\t// out\n    /* \"#utility.yul\":2387:2734   */\ntag_13:\n    /* \"#utility.yul\":2455:2461   */\n  0x00\n    /* \"#utility.yul\":2504:2506   */\n  0x20\n    /* \"#utility.yul\":2492:2501   */\n  dup3\n    /* \"#utility.yul\":2483:2490   */\n  dup5\n    /* \"#utility.yul\":2479:2502   */\n  sub\n    /* \"#utility.yul\":2475:2507   */\n  slt\n    /* \"#utility.yul\":2472:2591   */\n  iszero\n  tag_102\n  jumpi\n    /* \"#utility.yul\":2510:2589   */\n  tag_103\n  tag_51\n  jump\t// in\ntag_103:\n    /* \"#utility.yul\":2472:2591   */\ntag_102:\n    /* \"#utility.yul\":2630:2631   */\n  0x00\n    /* \"#utility.yul\":2655:2717   */\n  tag_104\n    /* \"#utility.yul\":2709:2716   */\n  dup5\n    /* \"#utility.yul\":2700:2706   */\n  dup3\n    /* \"#utility.yul\":2689:2698   */\n  dup6\n    /* \"#utility.yul\":2685:2707   */\n  add\n    /* \"#utility.yul\":2655:2717   */\n  tag_62\n  jump\t// in\ntag_104:\n    /* \"#utility.yul\":2645:2717   */\n  swap2\n  pop\n    /* \"#utility.yul\":2601:2727   */\n  pop\n    /* \"#utility.yul\":2387:2734   */\n  swap3\n  swap2\n  pop\n  pop\n  jump\t// out\n    /* \"#utility.yul\":2740:3091   */\ntag_18:\n    /* \"#utility.yul\":2810:2816   */\n  0x00\n    /* \"#utility.yul\":2859:2861   */\n  0x20\n    /* \"#utility.yul\":2847:2856   */\n  dup3\n    /* \"#utility.yul\":2838:2845   */\n  dup5\n    /* \"#utility.yul\":2834:2857   */\n  sub\n    /* \"#utility.yul\":2830:2862   */\n  slt\n    /* \"#utility.yul\":2827:2946   */\n  iszero\n  tag_106\n  jumpi\n    /* \"#utility.yul\":2865:2944   */\n  tag_107\n  tag_51\n  jump\t// in\ntag_107:\n    /* \"#utility.yul\":2827:2946   */\ntag_106:\n    /* \"#utility.yul\":2985:2986   */\n  0x00\n    /* \"#utility.yul\":3010:3074   */\n  tag_108\n    /* \"#utility.yul\":3066:3073   */\n  dup5\n    /* \"#utility.yul\":3057:3063   */\n  dup3\n    /* \"#utility.yul\":3046:3055   */\n  dup6\n    /* \"#utility.yul\":3042:3064   */\n  add\n    /* \"#utility.yul\":3010:3074   */\n  tag_56\n  jump\t// in\ntag_108:\n    /* \"#utility.yul\":3000:3074   */\n  swap2\n  pop\n    /* \"#utility.yul\":2956:3084   */\n  pop\n    /* \"#utility.yul\":2740:3091   */\n  swap3\n  swap2\n  pop\n  pop\n  jump\t// out\n    /* \"#utility.yul\":3097:3266   */\ntag_63:\n    /* \"#utility.yul\":3181:3192   */\n  0x00\n    /* \"#utility.yul\":3215:3221   */\n  dup3\n    /* \"#utility.yul\":3210:3213   */\n  dup3\n    /* \"#utility.yul\":3203:3222   */\n  mstore\n    /* \"#utility.yul\":3255:3259   */\n  0x20\n    /* \"#utility.yul\":3250:3253   */\n  dup3\n    /* \"#utility.yul\":3246:3260   */\n  add\n    /* \"#utility.yul\":3231:3260   */\n  swap1\n  pop\n    /* \"#utility.yul\":3097:3266   */\n  swap3\n  swap2\n  pop\n  pop\n  jump\t// out\n    /* \"#utility.yul\":3272:3454   */\ntag_64:\n    /* \"#utility.yul\":3412:3446   */\n  0x4469726563746f72792063616e6e6f74206265207a65726f2061646472657373\n    /* \"#utility.yul\":3408:3409   */\n  0x00\n    /* \"#utility.yul\":3400:3406   */\n  dup3\n    /* \"#utility.yul\":3396:3410   */\n  add\n    /* \"#utility.yul\":3389:3447   */\n  mstore\n    /* \"#utility.yul\":3272:3454   */\n  pop\n  jump\t// out\n    /* \"#utility.yul\":3460:3826   */\ntag_65:\n    /* \"#utility.yul\":3602:3605   */\n  0x00\n    /* \"#utility.yul\":3623:3690   */\n  tag_112\n    /* \"#utility.yul\":3687:3689   */\n  0x20\n    /* \"#utility.yul\":3682:3685   */\n  dup4\n    /* \"#utility.yul\":3623:3690   */\n  tag_63\n  jump\t// in\ntag_112:\n    /* \"#utility.yul\":3616:3690   */\n  swap2\n  pop\n    /* \"#utility.yul\":3699:3792   */\n  tag_113\n    /* \"#utility.yul\":3788:3791   */\n  dup3\n    /* \"#utility.yul\":3699:3792   */\n  tag_64\n  jump\t// in\ntag_113:\n    /* \"#utility.yul\":3817:3819   */\n  0x20\n    /* \"#utility.yul\":3812:3815   */\n  dup3\n    /* \"#utility.yul\":3808:3820   */\n  add\n    /* \"#utility.yul\":3801:3820   */\n  swap1\n  pop\n    /* \"#utility.yul\":3460:3826   */\n  swap2\n  swap1\n  pop\n  jump\t// out\n    /* \"#utility.yul\":3832:4251   */\ntag_37:\n    /* \"#utility.yul\":3998:4002   */\n  0x00\n    /* \"#utility.yul\":4036:4038   */\n  0x20\n    /* \"#utility.yul\":4025:4034   */\n  dup3\n    /* \"#utility.yul\":4021:4039   */\n  add\n    /* \"#utility.yul\":4013:4039   */\n  swap1\n  pop\n    /* \"#utility.yul\":4085:4094   */\n  dup2\n    /* \"#utility.yul\":4079:4083   */\n  dup2\n    /* \"#utility.yul\":4075:4095   */\n  sub\n    /* \"#utility.yul\":4071:4072   */\n  0x00\n    /* \"#utility.yul\":4060:4069   */\n  dup4\n    /* \"#utility.yul\":4056:4073   */\n  add\n    /* \"#utility.yul\":4049:4096   */\n  mstore\n    /* \"#utility.yul\":4113:4244   */\n  tag_115\n    /* \"#utility.yul\":4239:4243   */\n  dup2\n    /* \"#utility.yul\":4113:4244   */\n  tag_65\n  jump\t// in\ntag_115:\n    /* \"#utility.yul\":4105:4244   */\n  swap1\n  pop\n    /* \"#utility.yul\":3832:4251   */\n  swap2\n  swap1\n  pop\n  jump\t// out\n    /* \"#utility.yul\":4257:4435   */\ntag_66:\n    /* \"#utility.yul\":4397:4427   */\n  0x4469726563746f7279206d757374206265206120636f6e747261637400000000\n    /* \"#utility.yul\":4393:4394   */\n  0x00\n    /* \"#utility.yul\":4385:4391   */\n  dup3\n    /* \"#utility.yul\":4381:4395   */\n  add\n    /* \"#utility.yul\":4374:4428   */\n  mstore\n    /* \"#utility.yul\":4257:4435   */\n  pop\n  jump\t// out\n    /* \"#utility.yul\":4441:4807   */\ntag_67:\n    /* \"#utility.yul\":4583:4586   */\n  0x00\n    /* \"#utility.yul\":4604:4671   */\n  tag_118\n    /* \"#utility.yul\":4668:4670   */\n  0x1c\n    /* \"#utility.yul\":4663:4666   */\n  dup4\n    /* \"#utility.yul\":4604:4671   */\n  tag_63\n  jump\t// in\ntag_118:\n    /* \"#utility.yul\":4597:4671   */\n  swap2\n  pop\n    /* \"#utility.yul\":4680:4773   */\n  tag_119\n    /* \"#utility.yul\":4769:4772   */\n  dup3\n    /* \"#utility.yul\":4680:4773   */\n  tag_66\n  jump\t// in\ntag_119:\n    /* \"#utility.yul\":4798:4800   */\n  0x20\n    /* \"#utility.yul\":4793:4796   */\n  dup3\n    /* \"#utility.yul\":4789:4801   */\n  add\n    /* \"#utility.yul\":4782:4801   */\n  swap1\n  pop\n    /* \"#utility.yul\":4441:4807   */\n  swap2\n  swap1\n  pop\n  jump\t// out\n    /* \"#utility.yul\":4813:5232   */\ntag_40:\n    /* \"#utility.yul\":4979:4983   */\n  0x00\n    /* \"#utility.yul\":5017:5019   */\n  0x20\n    /* \"#utility.yul\":5006:5015   */\n  dup3\n    /* \"#utility.yul\":5002:5020   */\n  add\n    /* \"#utility.yul\":4994:5020   */\n  swap1\n  pop\n    /* \"#utility.yul\":5066:5075   */\n  dup2\n    /* \"#utility.yul\":5060:5064   */\n  dup2\n    /* \"#utility.yul\":5056:5076   */\n  sub\n    /* \"#utility.yul\":5052:5053   */\n  0x00\n    /* \"#utility.yul\":5041:5050   */\n  dup4\n    /* \"#utility.yul\":5037:5054   */\n  add\n    /* \"#utility.yul\":5030:5077   */\n  mstore\n    /* \"#utility.yul\":5094:5225   */\n  tag_121\n    /* \"#utility.yul\":5220:5224   */\n  dup2\n    /* \"#utility.yul\":5094:5225   */\n  tag_67\n  jump\t// in\ntag_121:\n    /* \"#utility.yul\":5086:5225   */\n  swap1\n  pop\n    /* \"#utility.yul\":4813:5232   */\n  swap2\n  swap1\n  pop\n  jump\t// out\n    /* \"#utility.yul\":5238:5469   */\ntag_68:\n    /* \"#utility.yul\":5378:5412   */\n  0x4469726563746f7279206164647265737320646f6573206e6f7420696d706c65\n    /* \"#utility.yul\":5374:5375   */\n  0x00\n    /* \"#utility.yul\":5366:5372   */\n  dup3\n    /* \"#utility.yul\":5362:5376   */\n  add\n    /* \"#utility.yul\":5355:5413   */\n  mstore\n    /* \"#utility.yul\":5447:5461   */\n  0x6d656e74206f776e657228290000000000000000000000000000000000000000\n    /* \"#utility.yul\":5442:5444   */\n  0x20\n    /* \"#utility.yul\":5434:5440   */\n  dup3\n    /* \"#utility.yul\":5430:5445   */\n  add\n    /* \"#utility.yul\":5423:5462   */\n  mstore\n    /* \"#utility.yul\":5238:5469   */\n  pop\n  jump\t// out\n    /* \"#utility.yul\":5475:5841   */\ntag_69:\n    /* \"#utility.yul\":5617:5620   */\n  0x00\n    /* \"#utility.yul\":5638:5705   */\n  tag_124\n    /* \"#utility.yul\":5702:5704   */\n  0x2c\n    /* \"#utility.yul\":5697:5700   */\n  dup4\n    /* \"#utility.yul\":5638:5705   */\n  tag_63\n  jump\t// in\ntag_124:\n    /* \"#utility.yul\":5631:5705   */\n  swap2\n  pop\n    /* \"#utility.yul\":5714:5807   */\n  tag_125\n    /* \"#utility.yul\":5803:5806   */\n  dup3\n    /* \"#utility.yul\":5714:5807   */\n  tag_68\n  jump\t// in\ntag_125:\n    /* \"#utility.yul\":5832:5834   */\n  0x40\n    /* \"#utility.yul\":5827:5830   */\n  dup3\n    /* \"#utility.yul\":5823:5835   */\n  add\n    /* \"#utility.yul\":5816:5835   */\n  swap1\n  pop\n    /* \"#utility.yul\":5475:5841   */\n  swap2\n  swap1\n  pop\n  jump\t// out\n    /* \"#utility.yul\":5847:6266   */\ntag_48:\n    /* \"#utility.yul\":6013:6017   */\n  0x00\n    /* \"#utility.yul\":6051:6053   */\n  0x20\n    /* \"#utility.yul\":6040:6049   */\n  dup3\n    /* \"#utility.yul\":6036:6054   */\n  add\n    /* \"#utility.yul\":6028:6054   */\n  swap1\n  pop\n    /* \"#utility.yul\":6100:6109   */\n  dup2\n    /* \"#utility.yul\":6094:6098   */\n  dup2\n    /* \"#utility.yul\":6090:6110   */\n  sub\n    /* \"#utility.yul\":6086:6087   */\n  0x00\n    /* \"#utility.yul\":6075:6084   */\n  dup4\n    /* \"#utility.yul\":6071:6088   */\n  add\n    /* \"#utility.yul\":6064:6111   */\n  mstore\n    /* \"#utility.yul\":6128:6259   */\n  tag_127\n    /* \"#utility.yul\":6254:6258   */\n  dup2\n    /* \"#utility.yul\":6128:6259   */\n  tag_69\n  jump\t// in\ntag_127:\n    /* \"#utility.yul\":6120:6259   */\n  swap1\n  pop\n    /* \"#utility.yul\":5847:6266   */\n  swap2\n  swap1\n  pop\n  jump\t// out\n    /* \"hopium/uniswap/main/uniswap-oracle.sol\":13999:17715  contract UniswapOracle is LiquidityHelper {... */\ntag_33:\n  mload(0x80)\n  mload(0xa0)\n  mload(0xc0)\n  mload(0xe0)\n  mload(0x0100)\n  codecopy(0x00, dataOffset(sub_0), dataSize(sub_0))\n  0x00\n  assignImmutable(\"0x8542fd6224680a1c8acc4a73d199f6633ee1089ceb34d1007e9de66262a36fbd\")\n  0x00\n  assignImmutable(\"0x865307fd9343f9b21447315c34d5042aa95db66533b26762dae88e17b3c809d7\")\n  0x00\n  assignImmutable(\"0x1f149d6c96e793351c7a360bcab9e10c751eb5044885f39398212a489e22545b\")\n  0x00\n  assignImmutable(\"0x5081277725af21b52adfcd8be9eaf5a350f1ec111a4413c31b8ff210fe7f74ef\")\n  0x00\n  assignImmutable(\"0x06dc925f7e0472030ab837bf4003aff8a140fea172ce25164bd1dc54959e1c1f\")\n  return(0x00, dataSize(sub_0))\nstop\n\nsub_0: assembly {\n        /* \"hopium/uniswap/main/uniswap-oracle.sol\":13999:17715  contract UniswapOracle is LiquidityHelper {... */\n      mstore(0x40, 0x80)\n      callvalue\n      dup1\n      iszero\n      tag_1\n      jumpi\n      revert(0x00, 0x00)\n    tag_1:\n      pop\n      jumpi(tag_2, lt(calldatasize, 0x04))\n      shr(0xe0, calldataload(0x00))\n      dup1\n      0x658a847a\n      gt\n      tag_23\n      jumpi\n      dup1\n      0x9d1211bf\n      gt\n      tag_24\n      jumpi\n      dup1\n      0x9d1211bf\n      eq\n      tag_18\n      jumpi\n      dup1\n      0xba4c7be1\n      eq\n      tag_19\n      jumpi\n      dup1\n      0xbe00e0c2\n      eq\n      tag_20\n      jumpi\n      dup1\n      0xd08aef7c\n      eq\n      tag_21\n      jumpi\n      dup1\n      0xd43d883e\n      eq\n      tag_22\n      jumpi\n      jump(tag_2)\n    tag_24:\n      dup1\n      0x658a847a\n      eq\n      tag_13\n      jumpi\n      dup1\n      0x6855e939\n      eq\n      tag_14\n      jumpi\n      dup1\n      0x69a2e17d\n      eq\n      tag_15\n      jumpi\n      dup1\n      0x7b49b49d\n      eq\n      tag_16\n      jumpi\n      dup1\n      0x8da5cb5b\n      eq\n      tag_17\n      jumpi\n      jump(tag_2)\n    tag_23:\n      dup1\n      0x2c5d1063\n      gt\n      tag_25\n      jumpi\n      dup1\n      0x2c5d1063\n      eq\n      tag_8\n      jumpi\n      dup1\n      0x41e0e1d6\n      eq\n      tag_9\n      jumpi\n      dup1\n      0x5498f4bc\n      eq\n      tag_10\n      jumpi\n      dup1\n      0x57b6c133\n      eq\n      tag_11\n      jumpi\n      dup1\n      0x63aa0c93\n      eq\n      tag_12\n      jumpi\n      jump(tag_2)\n    tag_25:\n      dup1\n      0x593bcf\n      eq\n      tag_3\n      jumpi\n      dup1\n      0x040141e5\n      eq\n      tag_4\n      jumpi\n      dup1\n      0x0b017603\n      eq\n      tag_5\n      jumpi\n      dup1\n      0x0dbc0d7d\n      eq\n      tag_6\n      jumpi\n      dup1\n      0x27262618\n      eq\n      tag_7\n      jumpi\n    tag_2:\n      revert(0x00, 0x00)\n        /* \"hopium/uniswap/main/uniswap-oracle.sol\":15429:15660  function getTokenUsdPrice(address tokenAddress) external view returns (uint256 price18) {... */\n    tag_3:\n      tag_26\n      0x04\n      dup1\n      calldatasize\n      sub\n      dup2\n      add\n      swap1\n      tag_27\n      swap2\n      swap1\n      tag_28\n      jump\t// in\n    tag_27:\n      tag_29\n      jump\t// in\n    tag_26:\n      mload(0x40)\n      tag_30\n      swap2\n      swap1\n      tag_31\n      jump\t// in\n    tag_30:\n      mload(0x40)\n      dup1\n      swap2\n      sub\n      swap1\n      return\n        /* \"hopium/uniswap/main/uniswap-oracle.sol\":1233:1270  address public immutable WETH_ADDRESS */\n    tag_4:\n      tag_32\n      tag_33\n      jump\t// in\n    tag_32:\n      mload(0x40)\n      tag_34\n      swap2\n      swap1\n      tag_35\n      jump\t// in\n    tag_34:\n      mload(0x40)\n      dup1\n      swap2\n      sub\n      swap1\n      return\n        /* \"hopium/uniswap/main/uniswap-oracle.sol\":1318:1364  address public immutable WETH_USD_PAIR_ADDRESS */\n    tag_5:\n      tag_36\n      tag_37\n      jump\t// in\n    tag_36:\n      mload(0x40)\n      tag_38\n      swap2\n      swap1\n      tag_35\n      jump\t// in\n    tag_38:\n      mload(0x40)\n      dup1\n      swap2\n      sub\n      swap1\n      return\n        /* \"hopium/uniswap/main/uniswap-oracle.sol\":15821:15964  function getTokenLiquidityWeth(address tokenAddress) public view returns (uint256) {... */\n    tag_6:\n      tag_39\n      0x04\n      dup1\n      calldatasize\n      sub\n      dup2\n      add\n      swap1\n      tag_40\n      swap2\n      swap1\n      tag_28\n      jump\t// in\n    tag_40:\n      tag_41\n      jump\t// in\n    tag_39:\n      mload(0x40)\n      tag_42\n      swap2\n      swap1\n      tag_31\n      jump\t// in\n    tag_42:\n      mload(0x40)\n      dup1\n      swap2\n      sub\n      swap1\n      return\n        /* \"hopium/common/interface/imDirectory.sol\":1272:1408  function fetchFromDirectory(string memory _key) public view returns (address) {... */\n    tag_7:\n      tag_43\n      0x04\n      dup1\n      calldatasize\n      sub\n      dup2\n      add\n      swap1\n      tag_44\n      swap2\n      swap1\n      tag_45\n      jump\t// in\n    tag_44:\n      tag_46\n      jump\t// in\n    tag_43:\n      mload(0x40)\n      tag_47\n      swap2\n      swap1\n      tag_35\n      jump\t// in\n    tag_47:\n      mload(0x40)\n      dup1\n      swap2\n      sub\n      swap1\n      return\n        /* \"hopium/uniswap/main/uniswap-oracle.sol\":6723:8932  function _getTokenPriceV3(address poolAddress, address baseAddress) public view returns (uint256 price18) {... */\n    tag_8:\n      tag_48\n      0x04\n      dup1\n      calldatasize\n      sub\n      dup2\n      add\n      swap1\n      tag_49\n      swap2\n      swap1\n      tag_50\n      jump\t// in\n    tag_49:\n      tag_51\n      jump\t// in\n    tag_48:\n      mload(0x40)\n      tag_52\n      swap2\n      swap1\n      tag_31\n      jump\t// in\n    tag_52:\n      mload(0x40)\n      dup1\n      swap2\n      sub\n      swap1\n      return\n        /* \"hopium/uniswap/main/uniswap-oracle.sol\":17358:17535  function getTokenWethPoolAddress(address tokenAddress) external view returns (bool isV3Pool, address poolAddress) {... */\n    tag_9:\n      tag_53\n      0x04\n      dup1\n      calldatasize\n      sub\n      dup2\n      add\n      swap1\n      tag_54\n      swap2\n      swap1\n      tag_28\n      jump\t// in\n    tag_54:\n      tag_55\n      jump\t// in\n    tag_53:\n      mload(0x40)\n      tag_56\n      swap3\n      swap2\n      swap1\n      tag_57\n      jump\t// in\n    tag_56:\n      mload(0x40)\n      dup1\n      swap2\n      sub\n      swap1\n      return\n        /* \"hopium/uniswap/main/uniswap-oracle.sol\":1370:1419  bool public immutable IS_WETH_USD_PAIR_ADDRESS_V3 */\n    tag_10:\n      tag_58\n      tag_59\n      jump\t// in\n    tag_58:\n      mload(0x40)\n      tag_60\n      swap2\n      swap1\n      tag_61\n      jump\t// in\n    tag_60:\n      mload(0x40)\n      dup1\n      swap2\n      sub\n      swap1\n      return\n        /* \"hopium/uniswap/main/uniswap-oracle.sol\":16055:16313  function getTokenLiquidityUsd(address tokenAddress) external view returns (uint256 totalLiquidityUsd18) {... */\n    tag_11:\n      tag_62\n      0x04\n      dup1\n      calldatasize\n      sub\n      dup2\n      add\n      swap1\n      tag_63\n      swap2\n      swap1\n      tag_28\n      jump\t// in\n    tag_63:\n      tag_64\n      jump\t// in\n    tag_62:\n      mload(0x40)\n      tag_65\n      swap2\n      swap1\n      tag_31\n      jump\t// in\n    tag_65:\n      mload(0x40)\n      dup1\n      swap2\n      sub\n      swap1\n      return\n        /* \"hopium/uniswap/main/uniswap-oracle.sol\":16486:16992  function getTokenMarketCapWeth(address tokenAddress) public view returns (uint256) {... */\n    tag_12:\n      tag_66\n      0x04\n      dup1\n      calldatasize\n      sub\n      dup2\n      add\n      swap1\n      tag_67\n      swap2\n      swap1\n      tag_28\n      jump\t// in\n    tag_67:\n      tag_68\n      jump\t// in\n    tag_66:\n      mload(0x40)\n      tag_69\n      swap2\n      swap1\n      tag_31\n      jump\t// in\n    tag_69:\n      mload(0x40)\n      dup1\n      swap2\n      sub\n      swap1\n      return\n        /* \"hopium/common/interface/imDirectory.sol\":336:363  IDirectory public Directory */\n    tag_13:\n      tag_70\n      tag_71\n      jump\t// in\n    tag_70:\n      mload(0x40)\n      tag_72\n      swap2\n      swap1\n      tag_73\n      jump\t// in\n    tag_72:\n      mload(0x40)\n      dup1\n      swap2\n      sub\n      swap1\n      return\n        /* \"hopium/uniswap/main/uniswap-oracle.sol\":14937:15044  function getWethUsdPrice() public view returns (uint256 price18) {... */\n    tag_14:\n      tag_74\n      tag_75\n      jump\t// in\n    tag_74:\n      mload(0x40)\n      tag_76\n      swap2\n      swap1\n      tag_31\n      jump\t// in\n    tag_76:\n      mload(0x40)\n      dup1\n      swap2\n      sub\n      swap1\n      return\n        /* \"hopium/uniswap/main/uniswap-oracle.sol\":17057:17352  function getTokenMarketCapUsd(address tokenAddress) external view returns (uint256 marketCapUsd18) {... */\n    tag_15:\n      tag_77\n      0x04\n      dup1\n      calldatasize\n      sub\n      dup2\n      add\n      swap1\n      tag_78\n      swap2\n      swap1\n      tag_28\n      jump\t// in\n    tag_78:\n      tag_79\n      jump\t// in\n    tag_77:\n      mload(0x40)\n      tag_80\n      swap2\n      swap1\n      tag_31\n      jump\t// in\n    tag_80:\n      mload(0x40)\n      dup1\n      swap2\n      sub\n      swap1\n      return\n        /* \"hopium/uniswap/main/uniswap-oracle.sol\":15050:15371  function getTokenWethPrice(address tokenAddress) public view returns (uint256) {... */\n    tag_16:\n      tag_81\n      0x04\n      dup1\n      calldatasize\n      sub\n      dup2\n      add\n      swap1\n      tag_82\n      swap2\n      swap1\n      tag_28\n      jump\t// in\n    tag_82:\n      tag_83\n      jump\t// in\n    tag_81:\n      mload(0x40)\n      tag_84\n      swap2\n      swap1\n      tag_31\n      jump\t// in\n    tag_84:\n      mload(0x40)\n      dup1\n      swap2\n      sub\n      swap1\n      return\n        /* \"hopium/common/interface/imDirectory.sol\":1178:1266  function owner() public view returns (address) {... */\n    tag_17:\n      tag_85\n      tag_86\n      jump\t// in\n    tag_85:\n      mload(0x40)\n      tag_87\n      swap2\n      swap1\n      tag_35\n      jump\t// in\n    tag_87:\n      mload(0x40)\n      dup1\n      swap2\n      sub\n      swap1\n      return\n        /* \"hopium/uniswap/main/uniswap-oracle.sol\":1276:1312  address public immutable USD_ADDRESS */\n    tag_18:\n      tag_88\n      tag_89\n      jump\t// in\n    tag_88:\n      mload(0x40)\n      tag_90\n      swap2\n      swap1\n      tag_35\n      jump\t// in\n    tag_90:\n      mload(0x40)\n      dup1\n      swap2\n      sub\n      swap1\n      return\n        /* \"hopium/common/interface/imDirectory.sol\":470:583  function changeDirectoryAddress(address _directory) external onlyOwner {... */\n    tag_19:\n      tag_91\n      0x04\n      dup1\n      calldatasize\n      sub\n      dup2\n      add\n      swap1\n      tag_92\n      swap2\n      swap1\n      tag_28\n      jump\t// in\n    tag_92:\n      tag_93\n      jump\t// in\n    tag_91:\n      stop\n        /* \"hopium/uniswap/main/uniswap-oracle.sol\":17541:17713  function emitPoolChangedEventOnWethUsdPool() external {... */\n    tag_20:\n      tag_94\n      tag_95\n      jump\t// in\n    tag_94:\n      stop\n        /* \"hopium/uniswap/main/uniswap-oracle.sol\":1426:1462  uint8 public immutable WETH_DECIMALS */\n    tag_21:\n      tag_96\n      tag_97\n      jump\t// in\n    tag_96:\n      mload(0x40)\n      tag_98\n      swap2\n      swap1\n      tag_99\n      jump\t// in\n    tag_98:\n      mload(0x40)\n      dup1\n      swap2\n      sub\n      swap1\n      return\n        /* \"hopium/uniswap/main/uniswap-oracle.sol\":5557:6537  function _getTokenPriceV2(address poolAddress, address baseAddress) public view returns (uint256 price18) {... */\n    tag_22:\n      tag_100\n      0x04\n      dup1\n      calldatasize\n      sub\n      dup2\n      add\n      swap1\n      tag_101\n      swap2\n      swap1\n      tag_50\n      jump\t// in\n    tag_101:\n      tag_102\n      jump\t// in\n    tag_100:\n      mload(0x40)\n      tag_103\n      swap2\n      swap1\n      tag_31\n      jump\t// in\n    tag_103:\n      mload(0x40)\n      dup1\n      swap2\n      sub\n      swap1\n      return\n        /* \"hopium/uniswap/main/uniswap-oracle.sol\":15429:15660  function getTokenUsdPrice(address tokenAddress) external view returns (uint256 price18) {... */\n    tag_29:\n        /* \"hopium/uniswap/main/uniswap-oracle.sol\":15500:15515  uint256 price18 */\n      0x00\n        /* \"hopium/uniswap/main/uniswap-oracle.sol\":15527:15544  uint256 tokenWeth */\n      0x00\n        /* \"hopium/uniswap/main/uniswap-oracle.sol\":15547:15578  getTokenWethPrice(tokenAddress) */\n      tag_105\n        /* \"hopium/uniswap/main/uniswap-oracle.sol\":15565:15577  tokenAddress */\n      dup4\n        /* \"hopium/uniswap/main/uniswap-oracle.sol\":15547:15564  getTokenWethPrice */\n      tag_83\n        /* \"hopium/uniswap/main/uniswap-oracle.sol\":15547:15578  getTokenWethPrice(tokenAddress) */\n      jump\t// in\n    tag_105:\n        /* \"hopium/uniswap/main/uniswap-oracle.sol\":15527:15578  uint256 tokenWeth = getTokenWethPrice(tokenAddress) */\n      swap1\n      pop\n        /* \"hopium/uniswap/main/uniswap-oracle.sol\":15625:15653  _convertWethToUsd(tokenWeth) */\n      tag_106\n        /* \"hopium/uniswap/main/uniswap-oracle.sol\":15643:15652  tokenWeth */\n      dup2\n        /* \"hopium/uniswap/main/uniswap-oracle.sol\":15625:15642  _convertWethToUsd */\n      tag_107\n        /* \"hopium/uniswap/main/uniswap-oracle.sol\":15625:15653  _convertWethToUsd(tokenWeth) */\n      jump\t// in\n    tag_106:\n        /* \"hopium/uniswap/main/uniswap-oracle.sol\":15615:15653  price18 = _convertWethToUsd(tokenWeth) */\n      swap2\n      pop\n        /* \"hopium/uniswap/main/uniswap-oracle.sol\":15517:15660  {... */\n      pop\n        /* \"hopium/uniswap/main/uniswap-oracle.sol\":15429:15660  function getTokenUsdPrice(address tokenAddress) external view returns (uint256 price18) {... */\n      swap2\n      swap1\n      pop\n      jump\t// out\n        /* \"hopium/uniswap/main/uniswap-oracle.sol\":1233:1270  address public immutable WETH_ADDRESS */\n    tag_33:\n      immutable(\"0x06dc925f7e0472030ab837bf4003aff8a140fea172ce25164bd1dc54959e1c1f\")\n      dup2\n      jump\t// out\n        /* \"hopium/uniswap/main/uniswap-oracle.sol\":1318:1364  address public immutable WETH_USD_PAIR_ADDRESS */\n    tag_37:\n      immutable(\"0x1f149d6c96e793351c7a360bcab9e10c751eb5044885f39398212a489e22545b\")\n      dup2\n      jump\t// out\n        /* \"hopium/uniswap/main/uniswap-oracle.sol\":15821:15964  function getTokenLiquidityWeth(address tokenAddress) public view returns (uint256) {... */\n    tag_41:\n        /* \"hopium/uniswap/main/uniswap-oracle.sol\":15895:15902  uint256 */\n      0x00\n        /* \"hopium/uniswap/main/uniswap-oracle.sol\":15921:15957  _getTokenLiquidityWeth(tokenAddress) */\n      tag_109\n        /* \"hopium/uniswap/main/uniswap-oracle.sol\":15944:15956  tokenAddress */\n      dup3\n        /* \"hopium/uniswap/main/uniswap-oracle.sol\":15921:15943  _getTokenLiquidityWeth */\n      tag_110\n        /* \"hopium/uniswap/main/uniswap-oracle.sol\":15921:15957  _getTokenLiquidityWeth(tokenAddress) */\n      jump\t// in\n    tag_109:\n        /* \"hopium/uniswap/main/uniswap-oracle.sol\":15914:15957  return _getTokenLiquidityWeth(tokenAddress) */\n      swap1\n      pop\n        /* \"hopium/uniswap/main/uniswap-oracle.sol\":15821:15964  function getTokenLiquidityWeth(address tokenAddress) public view returns (uint256) {... */\n      swap2\n      swap1\n      pop\n      jump\t// out\n        /* \"hopium/common/interface/imDirectory.sol\":1272:1408  function fetchFromDirectory(string memory _key) public view returns (address) {... */\n    tag_46:\n        /* \"hopium/common/interface/imDirectory.sol\":1341:1348  address */\n      0x00\n        /* \"hopium/common/interface/imDirectory.sol\":1367:1376  Directory */\n      0x00\n      0x00\n      swap1\n      sload\n      swap1\n      0x0100\n      exp\n      swap1\n      div\n      0xffffffffffffffffffffffffffffffffffffffff\n      and\n        /* \"hopium/common/interface/imDirectory.sol\":1367:1395  Directory.fetchFromDirectory */\n      0xffffffffffffffffffffffffffffffffffffffff\n      and\n      0x27262618\n        /* \"hopium/common/interface/imDirectory.sol\":1396:1400  _key */\n      dup4\n        /* \"hopium/common/interface/imDirectory.sol\":1367:1401  Directory.fetchFromDirectory(_key) */\n      mload(0x40)\n      dup3\n      0xffffffff\n      and\n      0xe0\n      shl\n      dup2\n      mstore\n      0x04\n      add\n      tag_112\n      swap2\n      swap1\n      tag_113\n      jump\t// in\n    tag_112:\n      0x20\n      mload(0x40)\n      dup1\n      dup4\n      sub\n      dup2\n      dup7\n      gas\n      staticcall\n      iszero\n      dup1\n      iszero\n      tag_115\n      jumpi\n      returndatacopy(0x00, 0x00, returndatasize)\n      revert(0x00, returndatasize)\n    tag_115:\n      pop\n      pop\n      pop\n      pop\n      mload(0x40)\n      returndatasize\n      not(0x1f)\n      0x1f\n      dup3\n      add\n      and\n      dup3\n      add\n      dup1\n      0x40\n      mstore\n      pop\n      dup2\n      add\n      swap1\n      tag_116\n      swap2\n      swap1\n      tag_117\n      jump\t// in\n    tag_116:\n        /* \"hopium/common/interface/imDirectory.sol\":1360:1401  return Directory.fetchFromDirectory(_key) */\n      swap1\n      pop\n        /* \"hopium/common/interface/imDirectory.sol\":1272:1408  function fetchFromDirectory(string memory _key) public view returns (address) {... */\n      swap2\n      swap1\n      pop\n      jump\t// out\n        /* \"hopium/uniswap/main/uniswap-oracle.sol\":6723:8932  function _getTokenPriceV3(address poolAddress, address baseAddress) public view returns (uint256 price18) {... */\n    tag_51:\n        /* \"hopium/uniswap/main/uniswap-oracle.sol\":6812:6827  uint256 price18 */\n      0x00\n        /* \"hopium/uniswap/main/uniswap-oracle.sol\":6839:6858  IUniswapV3Pool pool */\n      0x00\n        /* \"hopium/uniswap/main/uniswap-oracle.sol\":6876:6887  poolAddress */\n      dup4\n        /* \"hopium/uniswap/main/uniswap-oracle.sol\":6839:6888  IUniswapV3Pool pool = IUniswapV3Pool(poolAddress) */\n      swap1\n      pop\n        /* \"hopium/uniswap/main/uniswap-oracle.sol\":6899:6919  uint160 sqrtPriceX96 */\n      0x00\n        /* \"hopium/uniswap/main/uniswap-oracle.sol\":6935:6939  pool */\n      dup2\n        /* \"hopium/uniswap/main/uniswap-oracle.sol\":6935:6945  pool.slot0 */\n      0xffffffffffffffffffffffffffffffffffffffff\n      and\n      0x3850c7bd\n        /* \"hopium/uniswap/main/uniswap-oracle.sol\":6935:6947  pool.slot0() */\n      mload(0x40)\n      dup2\n      0xffffffff\n      and\n      0xe0\n      shl\n      dup2\n      mstore\n      0x04\n      add\n      0xe0\n      mload(0x40)\n      dup1\n      dup4\n      sub\n      dup2\n      dup7\n      gas\n      staticcall\n      iszero\n      dup1\n      iszero\n      tag_120\n      jumpi\n      returndatacopy(0x00, 0x00, returndatasize)\n      revert(0x00, returndatasize)\n    tag_120:\n      pop\n      pop\n      pop\n      pop\n      mload(0x40)\n      returndatasize\n      not(0x1f)\n      0x1f\n      dup3\n      add\n      and\n      dup3\n      add\n      dup1\n      0x40\n      mstore\n      pop\n      dup2\n      add\n      swap1\n      tag_121\n      swap2\n      swap1\n      tag_122\n      jump\t// in\n    tag_121:\n        /* \"hopium/uniswap/main/uniswap-oracle.sol\":6898:6947  (uint160 sqrtPriceX96, , , , , , ) = pool.slot0() */\n      pop\n      pop\n      pop\n      pop\n      pop\n      pop\n      swap1\n      pop\n        /* \"hopium/uniswap/main/uniswap-oracle.sol\":6981:6982  0 */\n      0x00\n        /* \"hopium/uniswap/main/uniswap-oracle.sol\":6961:6965  pool */\n      dup3\n        /* \"hopium/uniswap/main/uniswap-oracle.sol\":6961:6975  pool.liquidity */\n      0xffffffffffffffffffffffffffffffffffffffff\n      and\n      0x1a686502\n        /* \"hopium/uniswap/main/uniswap-oracle.sol\":6961:6977  pool.liquidity() */\n      mload(0x40)\n      dup2\n      0xffffffff\n      and\n      0xe0\n      shl\n      dup2\n      mstore\n      0x04\n      add\n      0x20\n      mload(0x40)\n      dup1\n      dup4\n      sub\n      dup2\n      dup7\n      gas\n      staticcall\n      iszero\n      dup1\n      iszero\n      tag_124\n      jumpi\n      returndatacopy(0x00, 0x00, returndatasize)\n      revert(0x00, returndatasize)\n    tag_124:\n      pop\n      pop\n      pop\n      pop\n      mload(0x40)\n      returndatasize\n      not(0x1f)\n      0x1f\n      dup3\n      add\n      and\n      dup3\n      add\n      dup1\n      0x40\n      mstore\n      pop\n      dup2\n      add\n      swap1\n      tag_125\n      swap2\n      swap1\n      tag_126\n      jump\t// in\n    tag_125:\n        /* \"hopium/uniswap/main/uniswap-oracle.sol\":6961:6982  pool.liquidity() == 0 */\n      0xffffffffffffffffffffffffffffffff\n      and\n      sub\n        /* \"hopium/uniswap/main/uniswap-oracle.sol\":6957:7006  if (pool.liquidity() == 0) revert ZeroLiquidity() */\n      tag_127\n      jumpi\n        /* \"hopium/uniswap/main/uniswap-oracle.sol\":6991:7006  ZeroLiquidity() */\n      mload(0x40)\n      0x1007454800000000000000000000000000000000000000000000000000000000\n      dup2\n      mstore\n      0x04\n      add\n      mload(0x40)\n      dup1\n      swap2\n      sub\n      swap1\n      revert\n        /* \"hopium/uniswap/main/uniswap-oracle.sol\":6957:7006  if (pool.liquidity() == 0) revert ZeroLiquidity() */\n    tag_127:\n        /* \"hopium/uniswap/main/uniswap-oracle.sol\":7017:7027  address t0 */\n      0x00\n        /* \"hopium/uniswap/main/uniswap-oracle.sol\":7030:7034  pool */\n      dup3\n        /* \"hopium/uniswap/main/uniswap-oracle.sol\":7030:7041  pool.token0 */\n      0xffffffffffffffffffffffffffffffffffffffff\n      and\n      0x0dfe1681\n        /* \"hopium/uniswap/main/uniswap-oracle.sol\":7030:7043  pool.token0() */\n      mload(0x40)\n      dup2\n      0xffffffff\n      and\n      0xe0\n      shl\n      dup2\n      mstore\n      0x04\n      add\n      0x20\n      mload(0x40)\n      dup1\n      dup4\n      sub\n      dup2\n      dup7\n      gas\n      staticcall\n      iszero\n      dup1\n      iszero\n      tag_129\n      jumpi\n      returndatacopy(0x00, 0x00, returndatasize)\n      revert(0x00, returndatasize)\n    tag_129:\n      pop\n      pop\n      pop\n      pop\n      mload(0x40)\n      returndatasize\n      not(0x1f)\n      0x1f\n      dup3\n      add\n      and\n      dup3\n      add\n      dup1\n      0x40\n      mstore\n      pop\n      dup2\n      add\n      swap1\n      tag_130\n      swap2\n      swap1\n      tag_117\n      jump\t// in\n    tag_130:\n        /* \"hopium/uniswap/main/uniswap-oracle.sol\":7017:7043  address t0 = pool.token0() */\n      swap1\n      pop\n        /* \"hopium/uniswap/main/uniswap-oracle.sol\":7053:7063  address t1 */\n      0x00\n        /* \"hopium/uniswap/main/uniswap-oracle.sol\":7066:7070  pool */\n      dup4\n        /* \"hopium/uniswap/main/uniswap-oracle.sol\":7066:7077  pool.token1 */\n      0xffffffffffffffffffffffffffffffffffffffff\n      and\n      0xd21220a7\n        /* \"hopium/uniswap/main/uniswap-oracle.sol\":7066:7079  pool.token1() */\n      mload(0x40)\n      dup2\n      0xffffffff\n      and\n      0xe0\n      shl\n      dup2\n      mstore\n      0x04\n      add\n      0x20\n      mload(0x40)\n      dup1\n      dup4\n      sub\n      dup2\n      dup7\n      gas\n      staticcall\n      iszero\n      dup1\n      iszero\n      tag_132\n      jumpi\n      returndatacopy(0x00, 0x00, returndatasize)\n      revert(0x00, returndatasize)\n    tag_132:\n      pop\n      pop\n      pop\n      pop\n      mload(0x40)\n      returndatasize\n      not(0x1f)\n      0x1f\n      dup3\n      add\n      and\n      dup3\n      add\n      dup1\n      0x40\n      mstore\n      pop\n      dup2\n      add\n      swap1\n      tag_133\n      swap2\n      swap1\n      tag_117\n      jump\t// in\n    tag_133:\n        /* \"hopium/uniswap/main/uniswap-oracle.sol\":7053:7079  address t1 = pool.token1() */\n      swap1\n      pop\n        /* \"hopium/uniswap/main/uniswap-oracle.sol\":7090:7102  bool baseIs0 */\n      0x00\n        /* \"hopium/uniswap/main/uniswap-oracle.sol\":7112:7123  baseAddress */\n      dup7\n        /* \"hopium/uniswap/main/uniswap-oracle.sol\":7106:7123  t0 == baseAddress */\n      0xffffffffffffffffffffffffffffffffffffffff\n      and\n        /* \"hopium/uniswap/main/uniswap-oracle.sol\":7106:7108  t0 */\n      dup4\n        /* \"hopium/uniswap/main/uniswap-oracle.sol\":7106:7123  t0 == baseAddress */\n      0xffffffffffffffffffffffffffffffffffffffff\n      and\n      eq\n        /* \"hopium/uniswap/main/uniswap-oracle.sol\":7090:7124  bool baseIs0 = (t0 == baseAddress) */\n      swap1\n      pop\n        /* \"hopium/uniswap/main/uniswap-oracle.sol\":7134:7146  bool baseIs1 */\n      0x00\n        /* \"hopium/uniswap/main/uniswap-oracle.sol\":7156:7167  baseAddress */\n      dup8\n        /* \"hopium/uniswap/main/uniswap-oracle.sol\":7150:7167  t1 == baseAddress */\n      0xffffffffffffffffffffffffffffffffffffffff\n      and\n        /* \"hopium/uniswap/main/uniswap-oracle.sol\":7150:7152  t1 */\n      dup4\n        /* \"hopium/uniswap/main/uniswap-oracle.sol\":7150:7167  t1 == baseAddress */\n      0xffffffffffffffffffffffffffffffffffffffff\n      and\n      eq\n        /* \"hopium/uniswap/main/uniswap-oracle.sol\":7134:7168  bool baseIs1 = (t1 == baseAddress) */\n      swap1\n      pop\n        /* \"hopium/uniswap/main/uniswap-oracle.sol\":7184:7191  baseIs0 */\n      dup2\n        /* \"hopium/uniswap/main/uniswap-oracle.sol\":7184:7202  baseIs0 || baseIs1 */\n      dup1\n      tag_134\n      jumpi\n      pop\n        /* \"hopium/uniswap/main/uniswap-oracle.sol\":7195:7202  baseIs1 */\n      dup1\n        /* \"hopium/uniswap/main/uniswap-oracle.sol\":7184:7202  baseIs0 || baseIs1 */\n    tag_134:\n        /* \"hopium/uniswap/main/uniswap-oracle.sol\":7182:7203  !(baseIs0 || baseIs1) */\n      iszero\n        /* \"hopium/uniswap/main/uniswap-oracle.sol\":7182:7227  !(baseIs0 || baseIs1) || (baseIs0 && baseIs1) */\n      dup1\n      tag_135\n      jumpi\n      pop\n        /* \"hopium/uniswap/main/uniswap-oracle.sol\":7208:7215  baseIs0 */\n      dup2\n        /* \"hopium/uniswap/main/uniswap-oracle.sol\":7208:7226  baseIs0 && baseIs1 */\n      dup1\n      iszero\n      tag_136\n      jumpi\n      pop\n        /* \"hopium/uniswap/main/uniswap-oracle.sol\":7219:7226  baseIs1 */\n      dup1\n        /* \"hopium/uniswap/main/uniswap-oracle.sol\":7208:7226  baseIs0 && baseIs1 */\n    tag_136:\n        /* \"hopium/uniswap/main/uniswap-oracle.sol\":7182:7227  !(baseIs0 || baseIs1) || (baseIs0 && baseIs1) */\n    tag_135:\n        /* \"hopium/uniswap/main/uniswap-oracle.sol\":7178:7249  if (!(baseIs0 || baseIs1) || (baseIs0 && baseIs1)) revert NotBasePool() */\n      iszero\n      tag_137\n      jumpi\n        /* \"hopium/uniswap/main/uniswap-oracle.sol\":7236:7249  NotBasePool() */\n      mload(0x40)\n      0xb0d73dc900000000000000000000000000000000000000000000000000000000\n      dup2\n      mstore\n      0x04\n      add\n      mload(0x40)\n      dup1\n      swap2\n      sub\n      swap1\n      revert\n        /* \"hopium/uniswap/main/uniswap-oracle.sol\":7178:7249  if (!(baseIs0 || baseIs1) || (baseIs0 && baseIs1)) revert NotBasePool() */\n    tag_137:\n        /* \"hopium/uniswap/main/uniswap-oracle.sol\":7306:7322  uint256 priceQ96 */\n      0x00\n        /* \"hopium/uniswap/main/uniswap-oracle.sol\":7325:7395  FullMath.mulDiv(uint256(sqrtPriceX96), uint256(sqrtPriceX96), 1 << 96) */\n      tag_138\n        /* \"hopium/uniswap/main/uniswap-oracle.sol\":7349:7361  sqrtPriceX96 */\n      dup7\n        /* \"hopium/uniswap/main/uniswap-oracle.sol\":7341:7362  uint256(sqrtPriceX96) */\n      0xffffffffffffffffffffffffffffffffffffffff\n      and\n        /* \"hopium/uniswap/main/uniswap-oracle.sol\":7372:7384  sqrtPriceX96 */\n      dup8\n        /* \"hopium/uniswap/main/uniswap-oracle.sol\":7364:7385  uint256(sqrtPriceX96) */\n      0xffffffffffffffffffffffffffffffffffffffff\n      and\n        /* \"hopium/uniswap/main/uniswap-oracle.sol\":7387:7394  1 << 96 */\n      0x01000000000000000000000000\n        /* \"hopium/uniswap/main/uniswap-oracle.sol\":7325:7340  FullMath.mulDiv */\n      tag_139\n        /* \"hopium/uniswap/main/uniswap-oracle.sol\":7325:7395  FullMath.mulDiv(uint256(sqrtPriceX96), uint256(sqrtPriceX96), 1 << 96) */\n      jump\t// in\n    tag_138:\n        /* \"hopium/uniswap/main/uniswap-oracle.sol\":7306:7395  uint256 priceQ96 = FullMath.mulDiv(uint256(sqrtPriceX96), uint256(sqrtPriceX96), 1 << 96) */\n      swap1\n      pop\n        /* \"hopium/uniswap/main/uniswap-oracle.sol\":7410:7417  baseIs1 */\n      dup2\n        /* \"hopium/uniswap/main/uniswap-oracle.sol\":7406:8926  if (baseIs1) {... */\n      iszero\n      tag_140\n      jumpi\n        /* \"hopium/uniswap/main/uniswap-oracle.sol\":7492:7505  uint8 baseDec */\n      0x00\n        /* \"hopium/uniswap/main/uniswap-oracle.sol\":7524:7526  t1 */\n      dup5\n        /* \"hopium/uniswap/main/uniswap-oracle.sol\":7509:7536  IERC20Metadata(t1).decimals */\n      0xffffffffffffffffffffffffffffffffffffffff\n      and\n      0x313ce567\n        /* \"hopium/uniswap/main/uniswap-oracle.sol\":7509:7538  IERC20Metadata(t1).decimals() */\n      mload(0x40)\n      dup2\n      0xffffffff\n      and\n      0xe0\n      shl\n      dup2\n      mstore\n      0x04\n      add\n      0x20\n      mload(0x40)\n      dup1\n      dup4\n      sub\n      dup2\n      dup7\n      gas\n      staticcall\n      iszero\n      dup1\n      iszero\n      tag_142\n      jumpi\n      returndatacopy(0x00, 0x00, returndatasize)\n      revert(0x00, returndatasize)\n    tag_142:\n      pop\n      pop\n      pop\n      pop\n      mload(0x40)\n      returndatasize\n      not(0x1f)\n      0x1f\n      dup3\n      add\n      and\n      dup3\n      add\n      dup1\n      0x40\n      mstore\n      pop\n      dup2\n      add\n      swap1\n      tag_143\n      swap2\n      swap1\n      tag_144\n      jump\t// in\n    tag_143:\n        /* \"hopium/uniswap/main/uniswap-oracle.sol\":7492:7538  uint8 baseDec  = IERC20Metadata(t1).decimals() */\n      swap1\n      pop\n        /* \"hopium/uniswap/main/uniswap-oracle.sol\":7552:7566  uint8 tokenDec */\n      0x00\n        /* \"hopium/uniswap/main/uniswap-oracle.sol\":7584:7586  t0 */\n      dup7\n        /* \"hopium/uniswap/main/uniswap-oracle.sol\":7569:7596  IERC20Metadata(t0).decimals */\n      0xffffffffffffffffffffffffffffffffffffffff\n      and\n      0x313ce567\n        /* \"hopium/uniswap/main/uniswap-oracle.sol\":7569:7598  IERC20Metadata(t0).decimals() */\n      mload(0x40)\n      dup2\n      0xffffffff\n      and\n      0xe0\n      shl\n      dup2\n      mstore\n      0x04\n      add\n      0x20\n      mload(0x40)\n      dup1\n      dup4\n      sub\n      dup2\n      dup7\n      gas\n      staticcall\n      iszero\n      dup1\n      iszero\n      tag_146\n      jumpi\n      returndatacopy(0x00, 0x00, returndatasize)\n      revert(0x00, returndatasize)\n    tag_146:\n      pop\n      pop\n      pop\n      pop\n      mload(0x40)\n      returndatasize\n      not(0x1f)\n      0x1f\n      dup3\n      add\n      and\n      dup3\n      add\n      dup1\n      0x40\n      mstore\n      pop\n      dup2\n      add\n      swap1\n      tag_147\n      swap2\n      swap1\n      tag_144\n      jump\t// in\n    tag_147:\n        /* \"hopium/uniswap/main/uniswap-oracle.sol\":7552:7598  uint8 tokenDec = IERC20Metadata(t0).decimals() */\n      swap1\n      pop\n        /* \"hopium/uniswap/main/uniswap-oracle.sol\":7656:7663  baseDec */\n      dup2\n        /* \"hopium/uniswap/main/uniswap-oracle.sol\":7644:7663  tokenDec >= baseDec */\n      0xff\n      and\n        /* \"hopium/uniswap/main/uniswap-oracle.sol\":7644:7652  tokenDec */\n      dup2\n        /* \"hopium/uniswap/main/uniswap-oracle.sol\":7644:7663  tokenDec >= baseDec */\n      0xff\n      and\n      lt\n        /* \"hopium/uniswap/main/uniswap-oracle.sol\":7640:7991  if (tokenDec >= baseDec) {... */\n      tag_148\n      jumpi\n        /* \"hopium/uniswap/main/uniswap-oracle.sol\":7687:7700  uint256 scale */\n      0x00\n        /* \"hopium/uniswap/main/uniswap-oracle.sol\":7709:7735  _pow10(tokenDec - baseDec) */\n      tag_149\n        /* \"hopium/uniswap/main/uniswap-oracle.sol\":7727:7734  baseDec */\n      dup4\n        /* \"hopium/uniswap/main/uniswap-oracle.sol\":7716:7724  tokenDec */\n      dup4\n        /* \"hopium/uniswap/main/uniswap-oracle.sol\":7716:7734  tokenDec - baseDec */\n      sub\n        /* \"hopium/uniswap/main/uniswap-oracle.sol\":7709:7715  _pow10 */\n      tag_150\n        /* \"hopium/uniswap/main/uniswap-oracle.sol\":7709:7735  _pow10(tokenDec - baseDec) */\n      jump\t// in\n    tag_149:\n        /* \"hopium/uniswap/main/uniswap-oracle.sol\":1518:1522  1e18 */\n      0x0de0b6b3a7640000\n        /* \"hopium/uniswap/main/uniswap-oracle.sol\":7703:7735  WAD * _pow10(tokenDec - baseDec) */\n      mul\n        /* \"hopium/uniswap/main/uniswap-oracle.sol\":7687:7735  uint256 scale = WAD * _pow10(tokenDec - baseDec) */\n      swap1\n      pop\n        /* \"hopium/uniswap/main/uniswap-oracle.sol\":7764:7805  FullMath.mulDiv(priceQ96, scale, 1 << 96) */\n      tag_151\n        /* \"hopium/uniswap/main/uniswap-oracle.sol\":7780:7788  priceQ96 */\n      dup5\n        /* \"hopium/uniswap/main/uniswap-oracle.sol\":7790:7795  scale */\n      dup3\n        /* \"hopium/uniswap/main/uniswap-oracle.sol\":7797:7804  1 << 96 */\n      0x01000000000000000000000000\n        /* \"hopium/uniswap/main/uniswap-oracle.sol\":7764:7779  FullMath.mulDiv */\n      tag_139\n        /* \"hopium/uniswap/main/uniswap-oracle.sol\":7764:7805  FullMath.mulDiv(priceQ96, scale, 1 << 96) */\n      jump\t// in\n    tag_151:\n        /* \"hopium/uniswap/main/uniswap-oracle.sol\":7757:7805  return FullMath.mulDiv(priceQ96, scale, 1 << 96) */\n      swap11\n      pop\n      pop\n      pop\n      pop\n      pop\n      pop\n      pop\n      pop\n      pop\n      pop\n      pop\n      jump(tag_118)\n        /* \"hopium/uniswap/main/uniswap-oracle.sol\":7640:7991  if (tokenDec >= baseDec) {... */\n    tag_148:\n        /* \"hopium/uniswap/main/uniswap-oracle.sol\":7852:7865  uint256 denom */\n      0x00\n        /* \"hopium/uniswap/main/uniswap-oracle.sol\":7880:7906  _pow10(baseDec - tokenDec) */\n      tag_153\n        /* \"hopium/uniswap/main/uniswap-oracle.sol\":7897:7905  tokenDec */\n      dup3\n        /* \"hopium/uniswap/main/uniswap-oracle.sol\":7887:7894  baseDec */\n      dup5\n        /* \"hopium/uniswap/main/uniswap-oracle.sol\":7887:7905  baseDec - tokenDec */\n      sub\n        /* \"hopium/uniswap/main/uniswap-oracle.sol\":7880:7886  _pow10 */\n      tag_150\n        /* \"hopium/uniswap/main/uniswap-oracle.sol\":7880:7906  _pow10(baseDec - tokenDec) */\n      jump\t// in\n    tag_153:\n        /* \"hopium/uniswap/main/uniswap-oracle.sol\":7869:7876  1 << 96 */\n      0x01000000000000000000000000\n        /* \"hopium/uniswap/main/uniswap-oracle.sol\":7868:7906  (1 << 96) * _pow10(baseDec - tokenDec) */\n      mul\n        /* \"hopium/uniswap/main/uniswap-oracle.sol\":7852:7906  uint256 denom = (1 << 96) * _pow10(baseDec - tokenDec) */\n      swap1\n      pop\n        /* \"hopium/uniswap/main/uniswap-oracle.sol\":7935:7972  FullMath.mulDiv(priceQ96, WAD, denom) */\n      tag_154\n        /* \"hopium/uniswap/main/uniswap-oracle.sol\":7951:7959  priceQ96 */\n      dup5\n        /* \"hopium/uniswap/main/uniswap-oracle.sol\":1518:1522  1e18 */\n      0x0de0b6b3a7640000\n        /* \"hopium/uniswap/main/uniswap-oracle.sol\":7966:7971  denom */\n      dup4\n        /* \"hopium/uniswap/main/uniswap-oracle.sol\":7935:7950  FullMath.mulDiv */\n      tag_139\n        /* \"hopium/uniswap/main/uniswap-oracle.sol\":7935:7972  FullMath.mulDiv(priceQ96, WAD, denom) */\n      jump\t// in\n    tag_154:\n        /* \"hopium/uniswap/main/uniswap-oracle.sol\":7928:7972  return FullMath.mulDiv(priceQ96, WAD, denom) */\n      swap11\n      pop\n      pop\n      pop\n      pop\n      pop\n      pop\n      pop\n      pop\n      pop\n      pop\n      pop\n      jump(tag_118)\n        /* \"hopium/uniswap/main/uniswap-oracle.sol\":7406:8926  if (baseIs1) {... */\n    tag_140:\n        /* \"hopium/uniswap/main/uniswap-oracle.sol\":8098:8111  uint8 baseDec */\n      0x00\n        /* \"hopium/uniswap/main/uniswap-oracle.sol\":8130:8132  t0 */\n      dup6\n        /* \"hopium/uniswap/main/uniswap-oracle.sol\":8115:8142  IERC20Metadata(t0).decimals */\n      0xffffffffffffffffffffffffffffffffffffffff\n      and\n      0x313ce567\n        /* \"hopium/uniswap/main/uniswap-oracle.sol\":8115:8144  IERC20Metadata(t0).decimals() */\n      mload(0x40)\n      dup2\n      0xffffffff\n      and\n      0xe0\n      shl\n      dup2\n      mstore\n      0x04\n      add\n      0x20\n      mload(0x40)\n      dup1\n      dup4\n      sub\n      dup2\n      dup7\n      gas\n      staticcall\n      iszero\n      dup1\n      iszero\n      tag_157\n      jumpi\n      returndatacopy(0x00, 0x00, returndatasize)\n      revert(0x00, returndatasize)\n    tag_157:\n      pop\n      pop\n      pop\n      pop\n      mload(0x40)\n      returndatasize\n      not(0x1f)\n      0x1f\n      dup3\n      add\n      and\n      dup3\n      add\n      dup1\n      0x40\n      mstore\n      pop\n      dup2\n      add\n      swap1\n      tag_158\n      swap2\n      swap1\n      tag_144\n      jump\t// in\n    tag_158:\n        /* \"hopium/uniswap/main/uniswap-oracle.sol\":8098:8144  uint8 baseDec  = IERC20Metadata(t0).decimals() */\n      swap1\n      pop\n        /* \"hopium/uniswap/main/uniswap-oracle.sol\":8158:8172  uint8 tokenDec */\n      0x00\n        /* \"hopium/uniswap/main/uniswap-oracle.sol\":8190:8192  t1 */\n      dup6\n        /* \"hopium/uniswap/main/uniswap-oracle.sol\":8175:8202  IERC20Metadata(t1).decimals */\n      0xffffffffffffffffffffffffffffffffffffffff\n      and\n      0x313ce567\n        /* \"hopium/uniswap/main/uniswap-oracle.sol\":8175:8204  IERC20Metadata(t1).decimals() */\n      mload(0x40)\n      dup2\n      0xffffffff\n      and\n      0xe0\n      shl\n      dup2\n      mstore\n      0x04\n      add\n      0x20\n      mload(0x40)\n      dup1\n      dup4\n      sub\n      dup2\n      dup7\n      gas\n      staticcall\n      iszero\n      dup1\n      iszero\n      tag_160\n      jumpi\n      returndatacopy(0x00, 0x00, returndatasize)\n      revert(0x00, returndatasize)\n    tag_160:\n      pop\n      pop\n      pop\n      pop\n      mload(0x40)\n      returndatasize\n      not(0x1f)\n      0x1f\n      dup3\n      add\n      and\n      dup3\n      add\n      dup1\n      0x40\n      mstore\n      pop\n      dup2\n      add\n      swap1\n      tag_161\n      swap2\n      swap1\n      tag_144\n      jump\t// in\n    tag_161:\n        /* \"hopium/uniswap/main/uniswap-oracle.sol\":8158:8204  uint8 tokenDec = IERC20Metadata(t1).decimals() */\n      swap1\n      pop\n        /* \"hopium/uniswap/main/uniswap-oracle.sol\":8350:8357  baseDec */\n      dup2\n        /* \"hopium/uniswap/main/uniswap-oracle.sol\":8338:8357  tokenDec >= baseDec */\n      0xff\n      and\n        /* \"hopium/uniswap/main/uniswap-oracle.sol\":8338:8346  tokenDec */\n      dup2\n        /* \"hopium/uniswap/main/uniswap-oracle.sol\":8338:8357  tokenDec >= baseDec */\n      0xff\n      and\n      lt\n        /* \"hopium/uniswap/main/uniswap-oracle.sol\":8334:8865  if (tokenDec >= baseDec) {... */\n      tag_162\n      jumpi\n        /* \"hopium/uniswap/main/uniswap-oracle.sol\":8465:8478  uint256 numer */\n      0x00\n        /* \"hopium/uniswap/main/uniswap-oracle.sol\":8517:8524  1 << 96 */\n      0x01000000000000000000000000\n        /* \"hopium/uniswap/main/uniswap-oracle.sol\":8487:8513  _pow10(tokenDec - baseDec) */\n      tag_163\n        /* \"hopium/uniswap/main/uniswap-oracle.sol\":8505:8512  baseDec */\n      dup5\n        /* \"hopium/uniswap/main/uniswap-oracle.sol\":8494:8502  tokenDec */\n      dup5\n        /* \"hopium/uniswap/main/uniswap-oracle.sol\":8494:8512  tokenDec - baseDec */\n      sub\n        /* \"hopium/uniswap/main/uniswap-oracle.sol\":8487:8493  _pow10 */\n      tag_150\n        /* \"hopium/uniswap/main/uniswap-oracle.sol\":8487:8513  _pow10(tokenDec - baseDec) */\n      jump\t// in\n    tag_163:\n        /* \"hopium/uniswap/main/uniswap-oracle.sol\":1518:1522  1e18 */\n      0x0de0b6b3a7640000\n        /* \"hopium/uniswap/main/uniswap-oracle.sol\":8481:8513  WAD * _pow10(tokenDec - baseDec) */\n      mul\n        /* \"hopium/uniswap/main/uniswap-oracle.sol\":8481:8525  WAD * _pow10(tokenDec - baseDec) * (1 << 96) */\n      mul\n        /* \"hopium/uniswap/main/uniswap-oracle.sol\":8465:8525  uint256 numer = WAD * _pow10(tokenDec - baseDec) * (1 << 96) */\n      swap1\n      pop\n        /* \"hopium/uniswap/main/uniswap-oracle.sol\":8554:8589  FullMath.mulDiv(numer, 1, priceQ96) */\n      tag_164\n        /* \"hopium/uniswap/main/uniswap-oracle.sol\":8570:8575  numer */\n      dup2\n        /* \"hopium/uniswap/main/uniswap-oracle.sol\":8577:8578  1 */\n      0x01\n        /* \"hopium/uniswap/main/uniswap-oracle.sol\":8580:8588  priceQ96 */\n      dup7\n        /* \"hopium/uniswap/main/uniswap-oracle.sol\":8554:8569  FullMath.mulDiv */\n      tag_139\n        /* \"hopium/uniswap/main/uniswap-oracle.sol\":8554:8589  FullMath.mulDiv(numer, 1, priceQ96) */\n      jump\t// in\n    tag_164:\n        /* \"hopium/uniswap/main/uniswap-oracle.sol\":8547:8589  return FullMath.mulDiv(numer, 1, priceQ96) */\n      swap11\n      pop\n      pop\n      pop\n      pop\n      pop\n      pop\n      pop\n      pop\n      pop\n      pop\n      pop\n      jump(tag_118)\n        /* \"hopium/uniswap/main/uniswap-oracle.sol\":8334:8865  if (tokenDec >= baseDec) {... */\n    tag_162:\n        /* \"hopium/uniswap/main/uniswap-oracle.sol\":8722:8735  uint256 denom */\n      0x00\n        /* \"hopium/uniswap/main/uniswap-oracle.sol\":8749:8775  _pow10(baseDec - tokenDec) */\n      tag_166\n        /* \"hopium/uniswap/main/uniswap-oracle.sol\":8766:8774  tokenDec */\n      dup3\n        /* \"hopium/uniswap/main/uniswap-oracle.sol\":8756:8763  baseDec */\n      dup5\n        /* \"hopium/uniswap/main/uniswap-oracle.sol\":8756:8774  baseDec - tokenDec */\n      sub\n        /* \"hopium/uniswap/main/uniswap-oracle.sol\":8749:8755  _pow10 */\n      tag_150\n        /* \"hopium/uniswap/main/uniswap-oracle.sol\":8749:8775  _pow10(baseDec - tokenDec) */\n      jump\t// in\n    tag_166:\n        /* \"hopium/uniswap/main/uniswap-oracle.sol\":8738:8746  priceQ96 */\n      dup5\n        /* \"hopium/uniswap/main/uniswap-oracle.sol\":8738:8775  priceQ96 * _pow10(baseDec - tokenDec) */\n      mul\n        /* \"hopium/uniswap/main/uniswap-oracle.sol\":8722:8775  uint256 denom = priceQ96 * _pow10(baseDec - tokenDec) */\n      swap1\n      pop\n        /* \"hopium/uniswap/main/uniswap-oracle.sol\":8804:8846  FullMath.mulDiv(WAD * (1 << 96), 1, denom) */\n      tag_167\n        /* \"hopium/uniswap/main/uniswap-oracle.sol\":8827:8834  1 << 96 */\n      0x01000000000000000000000000\n        /* \"hopium/uniswap/main/uniswap-oracle.sol\":1518:1522  1e18 */\n      0x0de0b6b3a7640000\n        /* \"hopium/uniswap/main/uniswap-oracle.sol\":8820:8835  WAD * (1 << 96) */\n      mul\n        /* \"hopium/uniswap/main/uniswap-oracle.sol\":8837:8838  1 */\n      0x01\n        /* \"hopium/uniswap/main/uniswap-oracle.sol\":8840:8845  denom */\n      dup4\n        /* \"hopium/uniswap/main/uniswap-oracle.sol\":8804:8819  FullMath.mulDiv */\n      tag_139\n        /* \"hopium/uniswap/main/uniswap-oracle.sol\":8804:8846  FullMath.mulDiv(WAD * (1 << 96), 1, denom) */\n      jump\t// in\n    tag_167:\n        /* \"hopium/uniswap/main/uniswap-oracle.sol\":8797:8846  return FullMath.mulDiv(WAD * (1 << 96), 1, denom) */\n      swap11\n      pop\n      pop\n      pop\n      pop\n      pop\n      pop\n      pop\n      pop\n      pop\n      pop\n      pop\n        /* \"hopium/uniswap/main/uniswap-oracle.sol\":6723:8932  function _getTokenPriceV3(address poolAddress, address baseAddress) public view returns (uint256 price18) {... */\n    tag_118:\n      swap3\n      swap2\n      pop\n      pop\n      jump\t// out\n        /* \"hopium/uniswap/main/uniswap-oracle.sol\":17358:17535  function getTokenWethPoolAddress(address tokenAddress) external view returns (bool isV3Pool, address poolAddress) {... */\n    tag_55:\n        /* \"hopium/uniswap/main/uniswap-oracle.sol\":17436:17449  bool isV3Pool */\n      0x00\n        /* \"hopium/uniswap/main/uniswap-oracle.sol\":17451:17470  address poolAddress */\n      0x00\n        /* \"hopium/uniswap/main/uniswap-oracle.sol\":17489:17528  _findTokenWethPoolAddress(tokenAddress) */\n      tag_169\n        /* \"hopium/uniswap/main/uniswap-oracle.sol\":17515:17527  tokenAddress */\n      dup4\n        /* \"hopium/uniswap/main/uniswap-oracle.sol\":17489:17514  _findTokenWethPoolAddress */\n      tag_170\n        /* \"hopium/uniswap/main/uniswap-oracle.sol\":17489:17528  _findTokenWethPoolAddress(tokenAddress) */\n      jump\t// in\n    tag_169:\n        /* \"hopium/uniswap/main/uniswap-oracle.sol\":17482:17528  return _findTokenWethPoolAddress(tokenAddress) */\n      swap2\n      pop\n      swap2\n      pop\n        /* \"hopium/uniswap/main/uniswap-oracle.sol\":17358:17535  function getTokenWethPoolAddress(address tokenAddress) external view returns (bool isV3Pool, address poolAddress) {... */\n      swap2\n      pop\n      swap2\n      jump\t// out\n        /* \"hopium/uniswap/main/uniswap-oracle.sol\":1370:1419  bool public immutable IS_WETH_USD_PAIR_ADDRESS_V3 */\n    tag_59:\n      immutable(\"0x865307fd9343f9b21447315c34d5042aa95db66533b26762dae88e17b3c809d7\")\n      dup2\n      jump\t// out\n        /* \"hopium/uniswap/main/uniswap-oracle.sol\":16055:16313  function getTokenLiquidityUsd(address tokenAddress) external view returns (uint256 totalLiquidityUsd18) {... */\n    tag_64:\n        /* \"hopium/uniswap/main/uniswap-oracle.sol\":16130:16157  uint256 totalLiquidityUsd18 */\n      0x00\n        /* \"hopium/uniswap/main/uniswap-oracle.sol\":16169:16197  uint256 totalLiquidityWeth18 */\n      0x00\n        /* \"hopium/uniswap/main/uniswap-oracle.sol\":16200:16235  getTokenLiquidityWeth(tokenAddress) */\n      tag_172\n        /* \"hopium/uniswap/main/uniswap-oracle.sol\":16222:16234  tokenAddress */\n      dup4\n        /* \"hopium/uniswap/main/uniswap-oracle.sol\":16200:16221  getTokenLiquidityWeth */\n      tag_41\n        /* \"hopium/uniswap/main/uniswap-oracle.sol\":16200:16235  getTokenLiquidityWeth(tokenAddress) */\n      jump\t// in\n    tag_172:\n        /* \"hopium/uniswap/main/uniswap-oracle.sol\":16169:16235  uint256 totalLiquidityWeth18 = getTokenLiquidityWeth(tokenAddress) */\n      swap1\n      pop\n        /* \"hopium/uniswap/main/uniswap-oracle.sol\":16267:16306  _convertWethToUsd(totalLiquidityWeth18) */\n      tag_173\n        /* \"hopium/uniswap/main/uniswap-oracle.sol\":16285:16305  totalLiquidityWeth18 */\n      dup2\n        /* \"hopium/uniswap/main/uniswap-oracle.sol\":16267:16284  _convertWethToUsd */\n      tag_107\n        /* \"hopium/uniswap/main/uniswap-oracle.sol\":16267:16306  _convertWethToUsd(totalLiquidityWeth18) */\n      jump\t// in\n    tag_173:\n        /* \"hopium/uniswap/main/uniswap-oracle.sol\":16245:16306  totalLiquidityUsd18 = _convertWethToUsd(totalLiquidityWeth18) */\n      swap2\n      pop\n        /* \"hopium/uniswap/main/uniswap-oracle.sol\":16159:16313  {... */\n      pop\n        /* \"hopium/uniswap/main/uniswap-oracle.sol\":16055:16313  function getTokenLiquidityUsd(address tokenAddress) external view returns (uint256 totalLiquidityUsd18) {... */\n      swap2\n      swap1\n      pop\n      jump\t// out\n        /* \"hopium/uniswap/main/uniswap-oracle.sol\":16486:16992  function getTokenMarketCapWeth(address tokenAddress) public view returns (uint256) {... */\n    tag_68:\n        /* \"hopium/uniswap/main/uniswap-oracle.sol\":16560:16567  uint256 */\n      0x00\n        /* \"hopium/uniswap/main/uniswap-oracle.sol\":16579:16593  uint256 supply */\n      0x00\n        /* \"hopium/uniswap/main/uniswap-oracle.sol\":16604:16616  tokenAddress */\n      dup3\n        /* \"hopium/uniswap/main/uniswap-oracle.sol\":16597:16629  IERC20(tokenAddress).totalSupply */\n      0xffffffffffffffffffffffffffffffffffffffff\n      and\n      0x18160ddd\n        /* \"hopium/uniswap/main/uniswap-oracle.sol\":16597:16631  IERC20(tokenAddress).totalSupply() */\n      mload(0x40)\n      dup2\n      0xffffffff\n      and\n      0xe0\n      shl\n      dup2\n      mstore\n      0x04\n      add\n      0x20\n      mload(0x40)\n      dup1\n      dup4\n      sub\n      dup2\n      dup7\n      gas\n      staticcall\n      iszero\n      dup1\n      iszero\n      tag_176\n      jumpi\n      returndatacopy(0x00, 0x00, returndatasize)\n      revert(0x00, returndatasize)\n    tag_176:\n      pop\n      pop\n      pop\n      pop\n      mload(0x40)\n      returndatasize\n      not(0x1f)\n      0x1f\n      dup3\n      add\n      and\n      dup3\n      add\n      dup1\n      0x40\n      mstore\n      pop\n      dup2\n      add\n      swap1\n      tag_177\n      swap2\n      swap1\n      tag_178\n      jump\t// in\n    tag_177:\n        /* \"hopium/uniswap/main/uniswap-oracle.sol\":16579:16631  uint256 supply  = IERC20(tokenAddress).totalSupply() */\n      swap1\n      pop\n        /* \"hopium/uniswap/main/uniswap-oracle.sol\":16641:16653  uint8   decT */\n      0x00\n        /* \"hopium/uniswap/main/uniswap-oracle.sol\":16674:16686  tokenAddress */\n      dup4\n        /* \"hopium/uniswap/main/uniswap-oracle.sol\":16659:16696  IERC20Metadata(tokenAddress).decimals */\n      0xffffffffffffffffffffffffffffffffffffffff\n      and\n      0x313ce567\n        /* \"hopium/uniswap/main/uniswap-oracle.sol\":16659:16698  IERC20Metadata(tokenAddress).decimals() */\n      mload(0x40)\n      dup2\n      0xffffffff\n      and\n      0xe0\n      shl\n      dup2\n      mstore\n      0x04\n      add\n      0x20\n      mload(0x40)\n      dup1\n      dup4\n      sub\n      dup2\n      dup7\n      gas\n      staticcall\n      iszero\n      dup1\n      iszero\n      tag_180\n      jumpi\n      returndatacopy(0x00, 0x00, returndatasize)\n      revert(0x00, returndatasize)\n    tag_180:\n      pop\n      pop\n      pop\n      pop\n      mload(0x40)\n      returndatasize\n      not(0x1f)\n      0x1f\n      dup3\n      add\n      and\n      dup3\n      add\n      dup1\n      0x40\n      mstore\n      pop\n      dup2\n      add\n      swap1\n      tag_181\n      swap2\n      swap1\n      tag_144\n      jump\t// in\n    tag_181:\n        /* \"hopium/uniswap/main/uniswap-oracle.sol\":16641:16698  uint8   decT    = IERC20Metadata(tokenAddress).decimals() */\n      swap1\n      pop\n        /* \"hopium/uniswap/main/uniswap-oracle.sol\":16708:16724  uint256 supply18 */\n      0x00\n        /* \"hopium/uniswap/main/uniswap-oracle.sol\":16727:16753  _scaleTo1e18(supply, decT) */\n      tag_182\n        /* \"hopium/uniswap/main/uniswap-oracle.sol\":16740:16746  supply */\n      dup4\n        /* \"hopium/uniswap/main/uniswap-oracle.sol\":16748:16752  decT */\n      dup4\n        /* \"hopium/uniswap/main/uniswap-oracle.sol\":16727:16739  _scaleTo1e18 */\n      tag_183\n        /* \"hopium/uniswap/main/uniswap-oracle.sol\":16727:16753  _scaleTo1e18(supply, decT) */\n      jump\t// in\n    tag_182:\n        /* \"hopium/uniswap/main/uniswap-oracle.sol\":16708:16753  uint256 supply18 = _scaleTo1e18(supply, decT) */\n      swap1\n      pop\n        /* \"hopium/uniswap/main/uniswap-oracle.sol\":16784:16796  WETH_ADDRESS */\n      immutable(\"0x06dc925f7e0472030ab837bf4003aff8a140fea172ce25164bd1dc54959e1c1f\")\n        /* \"hopium/uniswap/main/uniswap-oracle.sol\":16768:16796  tokenAddress == WETH_ADDRESS */\n      0xffffffffffffffffffffffffffffffffffffffff\n      and\n        /* \"hopium/uniswap/main/uniswap-oracle.sol\":16768:16780  tokenAddress */\n      dup6\n        /* \"hopium/uniswap/main/uniswap-oracle.sol\":16768:16796  tokenAddress == WETH_ADDRESS */\n      0xffffffffffffffffffffffffffffffffffffffff\n      and\n      sub\n        /* \"hopium/uniswap/main/uniswap-oracle.sol\":16764:16857  if (tokenAddress == WETH_ADDRESS) {... */\n      tag_184\n      jumpi\n        /* \"hopium/uniswap/main/uniswap-oracle.sol\":16819:16827  supply18 */\n      dup1\n        /* \"hopium/uniswap/main/uniswap-oracle.sol\":16812:16827  return supply18 */\n      swap4\n      pop\n      pop\n      pop\n      pop\n      jump(tag_174)\n        /* \"hopium/uniswap/main/uniswap-oracle.sol\":16764:16857  if (tokenAddress == WETH_ADDRESS) {... */\n    tag_184:\n        /* \"hopium/uniswap/main/uniswap-oracle.sol\":16866:16888  uint256 wethPerToken18 */\n      0x00\n        /* \"hopium/uniswap/main/uniswap-oracle.sol\":16891:16922  getTokenWethPrice(tokenAddress) */\n      tag_185\n        /* \"hopium/uniswap/main/uniswap-oracle.sol\":16909:16921  tokenAddress */\n      dup7\n        /* \"hopium/uniswap/main/uniswap-oracle.sol\":16891:16908  getTokenWethPrice */\n      tag_83\n        /* \"hopium/uniswap/main/uniswap-oracle.sol\":16891:16922  getTokenWethPrice(tokenAddress) */\n      jump\t// in\n    tag_185:\n        /* \"hopium/uniswap/main/uniswap-oracle.sol\":16866:16922  uint256 wethPerToken18 = getTokenWethPrice(tokenAddress) */\n      swap1\n      pop\n        /* \"hopium/uniswap/main/uniswap-oracle.sol\":16939:16985  FullMath.mulDiv(supply18, wethPerToken18, WAD) */\n      tag_186\n        /* \"hopium/uniswap/main/uniswap-oracle.sol\":16955:16963  supply18 */\n      dup3\n        /* \"hopium/uniswap/main/uniswap-oracle.sol\":16965:16979  wethPerToken18 */\n      dup3\n        /* \"hopium/uniswap/main/uniswap-oracle.sol\":1518:1522  1e18 */\n      0x0de0b6b3a7640000\n        /* \"hopium/uniswap/main/uniswap-oracle.sol\":16939:16954  FullMath.mulDiv */\n      tag_139\n        /* \"hopium/uniswap/main/uniswap-oracle.sol\":16939:16985  FullMath.mulDiv(supply18, wethPerToken18, WAD) */\n      jump\t// in\n    tag_186:\n        /* \"hopium/uniswap/main/uniswap-oracle.sol\":16932:16985  return FullMath.mulDiv(supply18, wethPerToken18, WAD) */\n      swap5\n      pop\n      pop\n      pop\n      pop\n      pop\n        /* \"hopium/uniswap/main/uniswap-oracle.sol\":16486:16992  function getTokenMarketCapWeth(address tokenAddress) public view returns (uint256) {... */\n    tag_174:\n      swap2\n      swap1\n      pop\n      jump\t// out\n        /* \"hopium/common/interface/imDirectory.sol\":336:363  IDirectory public Directory */\n    tag_71:\n      0x00\n      0x00\n      swap1\n      sload\n      swap1\n      0x0100\n      exp\n      swap1\n      div\n      0xffffffffffffffffffffffffffffffffffffffff\n      and\n      dup2\n      jump\t// out\n        /* \"hopium/uniswap/main/uniswap-oracle.sol\":14937:15044  function getWethUsdPrice() public view returns (uint256 price18) {... */\n    tag_75:\n        /* \"hopium/uniswap/main/uniswap-oracle.sol\":14985:15000  uint256 price18 */\n      0x00\n        /* \"hopium/uniswap/main/uniswap-oracle.sol\":15019:15037  _getWethUsdPrice() */\n      tag_188\n        /* \"hopium/uniswap/main/uniswap-oracle.sol\":15019:15035  _getWethUsdPrice */\n      tag_189\n        /* \"hopium/uniswap/main/uniswap-oracle.sol\":15019:15037  _getWethUsdPrice() */\n      jump\t// in\n    tag_188:\n        /* \"hopium/uniswap/main/uniswap-oracle.sol\":15012:15037  return _getWethUsdPrice() */\n      swap1\n      pop\n        /* \"hopium/uniswap/main/uniswap-oracle.sol\":14937:15044  function getWethUsdPrice() public view returns (uint256 price18) {... */\n      swap1\n      jump\t// out\n        /* \"hopium/uniswap/main/uniswap-oracle.sol\":17057:17352  function getTokenMarketCapUsd(address tokenAddress) external view returns (uint256 marketCapUsd18) {... */\n    tag_79:\n        /* \"hopium/uniswap/main/uniswap-oracle.sol\":17132:17154  uint256 marketCapUsd18 */\n      0x00\n        /* \"hopium/uniswap/main/uniswap-oracle.sol\":17166:17182  uint256 mcWeth18 */\n      0x00\n        /* \"hopium/uniswap/main/uniswap-oracle.sol\":17189:17224  getTokenMarketCapWeth(tokenAddress) */\n      tag_191\n        /* \"hopium/uniswap/main/uniswap-oracle.sol\":17211:17223  tokenAddress */\n      dup4\n        /* \"hopium/uniswap/main/uniswap-oracle.sol\":17189:17210  getTokenMarketCapWeth */\n      tag_68\n        /* \"hopium/uniswap/main/uniswap-oracle.sol\":17189:17224  getTokenMarketCapWeth(tokenAddress) */\n      jump\t// in\n    tag_191:\n        /* \"hopium/uniswap/main/uniswap-oracle.sol\":17166:17224  uint256 mcWeth18     = getTokenMarketCapWeth(tokenAddress) */\n      swap1\n      pop\n        /* \"hopium/uniswap/main/uniswap-oracle.sol\":17234:17254  uint256 usdPerWeth18 */\n      0x00\n        /* \"hopium/uniswap/main/uniswap-oracle.sol\":17257:17274  getWethUsdPrice() */\n      tag_192\n        /* \"hopium/uniswap/main/uniswap-oracle.sol\":17257:17272  getWethUsdPrice */\n      tag_75\n        /* \"hopium/uniswap/main/uniswap-oracle.sol\":17257:17274  getWethUsdPrice() */\n      jump\t// in\n    tag_192:\n        /* \"hopium/uniswap/main/uniswap-oracle.sol\":17234:17274  uint256 usdPerWeth18 = getWethUsdPrice() */\n      swap1\n      pop\n        /* \"hopium/uniswap/main/uniswap-oracle.sol\":17301:17345  FullMath.mulDiv(mcWeth18, usdPerWeth18, WAD) */\n      tag_193\n        /* \"hopium/uniswap/main/uniswap-oracle.sol\":17317:17325  mcWeth18 */\n      dup3\n        /* \"hopium/uniswap/main/uniswap-oracle.sol\":17327:17339  usdPerWeth18 */\n      dup3\n        /* \"hopium/uniswap/main/uniswap-oracle.sol\":1518:1522  1e18 */\n      0x0de0b6b3a7640000\n        /* \"hopium/uniswap/main/uniswap-oracle.sol\":17301:17316  FullMath.mulDiv */\n      tag_139\n        /* \"hopium/uniswap/main/uniswap-oracle.sol\":17301:17345  FullMath.mulDiv(mcWeth18, usdPerWeth18, WAD) */\n      jump\t// in\n    tag_193:\n        /* \"hopium/uniswap/main/uniswap-oracle.sol\":17284:17345  marketCapUsd18 = FullMath.mulDiv(mcWeth18, usdPerWeth18, WAD) */\n      swap3\n      pop\n        /* \"hopium/uniswap/main/uniswap-oracle.sol\":17156:17352  {... */\n      pop\n      pop\n        /* \"hopium/uniswap/main/uniswap-oracle.sol\":17057:17352  function getTokenMarketCapUsd(address tokenAddress) external view returns (uint256 marketCapUsd18) {... */\n      swap2\n      swap1\n      pop\n      jump\t// out\n        /* \"hopium/uniswap/main/uniswap-oracle.sol\":15050:15371  function getTokenWethPrice(address tokenAddress) public view returns (uint256) {... */\n    tag_83:\n        /* \"hopium/uniswap/main/uniswap-oracle.sol\":15120:15127  uint256 */\n      0x00\n        /* \"hopium/uniswap/main/uniswap-oracle.sol\":15159:15171  WETH_ADDRESS */\n      immutable(\"0x06dc925f7e0472030ab837bf4003aff8a140fea172ce25164bd1dc54959e1c1f\")\n        /* \"hopium/uniswap/main/uniswap-oracle.sol\":15143:15171  tokenAddress == WETH_ADDRESS */\n      0xffffffffffffffffffffffffffffffffffffffff\n      and\n        /* \"hopium/uniswap/main/uniswap-oracle.sol\":15143:15155  tokenAddress */\n      dup3\n        /* \"hopium/uniswap/main/uniswap-oracle.sol\":15143:15171  tokenAddress == WETH_ADDRESS */\n      0xffffffffffffffffffffffffffffffffffffffff\n      and\n      sub\n        /* \"hopium/uniswap/main/uniswap-oracle.sol\":15139:15208  if (tokenAddress == WETH_ADDRESS) {... */\n      tag_195\n      jumpi\n        /* \"hopium/uniswap/main/uniswap-oracle.sol\":1518:1522  1e18 */\n      0x0de0b6b3a7640000\n        /* \"hopium/uniswap/main/uniswap-oracle.sol\":15187:15197  return WAD */\n      swap1\n      pop\n      jump(tag_194)\n        /* \"hopium/uniswap/main/uniswap-oracle.sol\":15139:15208  if (tokenAddress == WETH_ADDRESS) {... */\n    tag_195:\n        /* \"hopium/uniswap/main/uniswap-oracle.sol\":15218:15231  bool isV3Pool */\n      0x00\n        /* \"hopium/uniswap/main/uniswap-oracle.sol\":15233:15252  address poolAddress */\n      0x00\n        /* \"hopium/uniswap/main/uniswap-oracle.sol\":15256:15295  _findTokenWethPoolAddress(tokenAddress) */\n      tag_196\n        /* \"hopium/uniswap/main/uniswap-oracle.sol\":15282:15294  tokenAddress */\n      dup5\n        /* \"hopium/uniswap/main/uniswap-oracle.sol\":15256:15281  _findTokenWethPoolAddress */\n      tag_170\n        /* \"hopium/uniswap/main/uniswap-oracle.sol\":15256:15295  _findTokenWethPoolAddress(tokenAddress) */\n      jump\t// in\n    tag_196:\n        /* \"hopium/uniswap/main/uniswap-oracle.sol\":15217:15295  (bool isV3Pool, address poolAddress) = _findTokenWethPoolAddress(tokenAddress) */\n      swap2\n      pop\n      swap2\n      pop\n        /* \"hopium/uniswap/main/uniswap-oracle.sol\":15313:15364  _getTokenPrice(poolAddress, isV3Pool, WETH_ADDRESS) */\n      tag_197\n        /* \"hopium/uniswap/main/uniswap-oracle.sol\":15328:15339  poolAddress */\n      dup2\n        /* \"hopium/uniswap/main/uniswap-oracle.sol\":15341:15349  isV3Pool */\n      dup4\n        /* \"hopium/uniswap/main/uniswap-oracle.sol\":15351:15363  WETH_ADDRESS */\n      immutable(\"0x06dc925f7e0472030ab837bf4003aff8a140fea172ce25164bd1dc54959e1c1f\")\n        /* \"hopium/uniswap/main/uniswap-oracle.sol\":15313:15327  _getTokenPrice */\n      tag_198\n        /* \"hopium/uniswap/main/uniswap-oracle.sol\":15313:15364  _getTokenPrice(poolAddress, isV3Pool, WETH_ADDRESS) */\n      jump\t// in\n    tag_197:\n        /* \"hopium/uniswap/main/uniswap-oracle.sol\":15306:15364  return _getTokenPrice(poolAddress, isV3Pool, WETH_ADDRESS) */\n      swap3\n      pop\n      pop\n      pop\n        /* \"hopium/uniswap/main/uniswap-oracle.sol\":15050:15371  function getTokenWethPrice(address tokenAddress) public view returns (uint256) {... */\n    tag_194:\n      swap2\n      swap1\n      pop\n      jump\t// out\n        /* \"hopium/common/interface/imDirectory.sol\":1178:1266  function owner() public view returns (address) {... */\n    tag_86:\n        /* \"hopium/common/interface/imDirectory.sol\":1216:1223  address */\n      0x00\n        /* \"hopium/common/interface/imDirectory.sol\":1242:1251  Directory */\n      0x00\n      0x00\n      swap1\n      sload\n      swap1\n      0x0100\n      exp\n      swap1\n      div\n      0xffffffffffffffffffffffffffffffffffffffff\n      and\n        /* \"hopium/common/interface/imDirectory.sol\":1242:1257  Directory.owner */\n      0xffffffffffffffffffffffffffffffffffffffff\n      and\n      0x8da5cb5b\n        /* \"hopium/common/interface/imDirectory.sol\":1242:1259  Directory.owner() */\n      mload(0x40)\n      dup2\n      0xffffffff\n      and\n      0xe0\n      shl\n      dup2\n      mstore\n      0x04\n      add\n      0x20\n      mload(0x40)\n      dup1\n      dup4\n      sub\n      dup2\n      dup7\n      gas\n      staticcall\n      iszero\n      dup1\n      iszero\n      tag_201\n      jumpi\n      returndatacopy(0x00, 0x00, returndatasize)\n      revert(0x00, returndatasize)\n    tag_201:\n      pop\n      pop\n      pop\n      pop\n      mload(0x40)\n      returndatasize\n      not(0x1f)\n      0x1f\n      dup3\n      add\n      and\n      dup3\n      add\n      dup1\n      0x40\n      mstore\n      pop\n      dup2\n      add\n      swap1\n      tag_202\n      swap2\n      swap1\n      tag_117\n      jump\t// in\n    tag_202:\n        /* \"hopium/common/interface/imDirectory.sol\":1235:1259  return Directory.owner() */\n      swap1\n      pop\n        /* \"hopium/common/interface/imDirectory.sol\":1178:1266  function owner() public view returns (address) {... */\n      swap1\n      jump\t// out\n        /* \"hopium/uniswap/main/uniswap-oracle.sol\":1276:1312  address public immutable USD_ADDRESS */\n    tag_89:\n      immutable(\"0x5081277725af21b52adfcd8be9eaf5a350f1ec111a4413c31b8ff210fe7f74ef\")\n      dup2\n      jump\t// out\n        /* \"hopium/common/interface/imDirectory.sol\":470:583  function changeDirectoryAddress(address _directory) external onlyOwner {... */\n    tag_93:\n        /* \"hopium/common/interface/imDirectory.sol\":1109:1118  Directory */\n      0x00\n      0x00\n      swap1\n      sload\n      swap1\n      0x0100\n      exp\n      swap1\n      div\n      0xffffffffffffffffffffffffffffffffffffffff\n      and\n        /* \"hopium/common/interface/imDirectory.sol\":1109:1124  Directory.owner */\n      0xffffffffffffffffffffffffffffffffffffffff\n      and\n      0x8da5cb5b\n        /* \"hopium/common/interface/imDirectory.sol\":1109:1126  Directory.owner() */\n      mload(0x40)\n      dup2\n      0xffffffff\n      and\n      0xe0\n      shl\n      dup2\n      mstore\n      0x04\n      add\n      0x20\n      mload(0x40)\n      dup1\n      dup4\n      sub\n      dup2\n      dup7\n      gas\n      staticcall\n      iszero\n      dup1\n      iszero\n      tag_205\n      jumpi\n      returndatacopy(0x00, 0x00, returndatasize)\n      revert(0x00, returndatasize)\n    tag_205:\n      pop\n      pop\n      pop\n      pop\n      mload(0x40)\n      returndatasize\n      not(0x1f)\n      0x1f\n      dup3\n      add\n      and\n      dup3\n      add\n      dup1\n      0x40\n      mstore\n      pop\n      dup2\n      add\n      swap1\n      tag_206\n      swap2\n      swap1\n      tag_117\n      jump\t// in\n    tag_206:\n        /* \"hopium/common/interface/imDirectory.sol\":1095:1126  msg.sender == Directory.owner() */\n      0xffffffffffffffffffffffffffffffffffffffff\n      and\n        /* \"hopium/common/interface/imDirectory.sol\":1095:1105  msg.sender */\n      caller\n        /* \"hopium/common/interface/imDirectory.sol\":1095:1126  msg.sender == Directory.owner() */\n      0xffffffffffffffffffffffffffffffffffffffff\n      and\n      eq\n        /* \"hopium/common/interface/imDirectory.sol\":1087:1154  require(msg.sender == Directory.owner(), \"Caller is not the owner\") */\n      tag_207\n      jumpi\n      mload(0x40)\n      0x08c379a000000000000000000000000000000000000000000000000000000000\n      dup2\n      mstore\n      0x04\n      add\n      tag_208\n      swap1\n      tag_209\n      jump\t// in\n    tag_208:\n      mload(0x40)\n      dup1\n      swap2\n      sub\n      swap1\n      revert\n    tag_207:\n        /* \"hopium/common/interface/imDirectory.sol\":551:576  _setDirectory(_directory) */\n      tag_211\n        /* \"hopium/common/interface/imDirectory.sol\":565:575  _directory */\n      dup2\n        /* \"hopium/common/interface/imDirectory.sol\":551:564  _setDirectory */\n      tag_212\n        /* \"hopium/common/interface/imDirectory.sol\":551:576  _setDirectory(_directory) */\n      jump\t// in\n    tag_211:\n        /* \"hopium/common/interface/imDirectory.sol\":470:583  function changeDirectoryAddress(address _directory) external onlyOwner {... */\n      pop\n      jump\t// out\n        /* \"hopium/uniswap/main/uniswap-oracle.sol\":17541:17713  function emitPoolChangedEventOnWethUsdPool() external {... */\n    tag_95:\n        /* \"hopium/uniswap/main/uniswap-oracle.sol\":17605:17620  getPoolFinder() */\n      tag_214\n        /* \"hopium/uniswap/main/uniswap-oracle.sol\":17605:17618  getPoolFinder */\n      tag_215\n        /* \"hopium/uniswap/main/uniswap-oracle.sol\":17605:17620  getPoolFinder() */\n      jump\t// in\n    tag_214:\n        /* \"hopium/uniswap/main/uniswap-oracle.sol\":17605:17654  getPoolFinder().emitPoolChangedEventOnWethUsdPool */\n      0xffffffffffffffffffffffffffffffffffffffff\n      and\n      0x15345689\n        /* \"hopium/uniswap/main/uniswap-oracle.sol\":17655:17676  WETH_USD_PAIR_ADDRESS */\n      immutable(\"0x1f149d6c96e793351c7a360bcab9e10c751eb5044885f39398212a489e22545b\")\n        /* \"hopium/uniswap/main/uniswap-oracle.sol\":17678:17705  IS_WETH_USD_PAIR_ADDRESS_V3 */\n      immutable(\"0x865307fd9343f9b21447315c34d5042aa95db66533b26762dae88e17b3c809d7\")\n        /* \"hopium/uniswap/main/uniswap-oracle.sol\":17605:17706  getPoolFinder().emitPoolChangedEventOnWethUsdPool(WETH_USD_PAIR_ADDRESS, IS_WETH_USD_PAIR_ADDRESS_V3) */\n      mload(0x40)\n      dup4\n      0xffffffff\n      and\n      0xe0\n      shl\n      dup2\n      mstore\n      0x04\n      add\n      tag_216\n      swap3\n      swap2\n      swap1\n      tag_217\n      jump\t// in\n    tag_216:\n      0x00\n      mload(0x40)\n      dup1\n      dup4\n      sub\n      dup2\n      0x00\n      dup8\n      dup1\n      extcodesize\n      iszero\n      dup1\n      iszero\n      tag_218\n      jumpi\n      revert(0x00, 0x00)\n    tag_218:\n      pop\n      gas\n      call\n      iszero\n      dup1\n      iszero\n      tag_220\n      jumpi\n      returndatacopy(0x00, 0x00, returndatasize)\n      revert(0x00, returndatasize)\n    tag_220:\n      pop\n      pop\n      pop\n      pop\n        /* \"hopium/uniswap/main/uniswap-oracle.sol\":17541:17713  function emitPoolChangedEventOnWethUsdPool() external {... */\n      jump\t// out\n        /* \"hopium/uniswap/main/uniswap-oracle.sol\":1426:1462  uint8 public immutable WETH_DECIMALS */\n    tag_97:\n      immutable(\"0x8542fd6224680a1c8acc4a73d199f6633ee1089ceb34d1007e9de66262a36fbd\")\n      dup2\n      jump\t// out\n        /* \"hopium/uniswap/main/uniswap-oracle.sol\":5557:6537  function _getTokenPriceV2(address poolAddress, address baseAddress) public view returns (uint256 price18) {... */\n    tag_102:\n        /* \"hopium/uniswap/main/uniswap-oracle.sol\":5646:5661  uint256 price18 */\n      0x00\n        /* \"hopium/uniswap/main/uniswap-oracle.sol\":5673:5692  IUniswapV2Pair pool */\n      0x00\n        /* \"hopium/uniswap/main/uniswap-oracle.sol\":5710:5721  poolAddress */\n      dup4\n        /* \"hopium/uniswap/main/uniswap-oracle.sol\":5673:5722  IUniswapV2Pair pool = IUniswapV2Pair(poolAddress) */\n      swap1\n      pop\n        /* \"hopium/uniswap/main/uniswap-oracle.sol\":5732:5742  address t0 */\n      0x00\n        /* \"hopium/uniswap/main/uniswap-oracle.sol\":5745:5749  pool */\n      dup2\n        /* \"hopium/uniswap/main/uniswap-oracle.sol\":5745:5756  pool.token0 */\n      0xffffffffffffffffffffffffffffffffffffffff\n      and\n      0x0dfe1681\n        /* \"hopium/uniswap/main/uniswap-oracle.sol\":5745:5758  pool.token0() */\n      mload(0x40)\n      dup2\n      0xffffffff\n      and\n      0xe0\n      shl\n      dup2\n      mstore\n      0x04\n      add\n      0x20\n      mload(0x40)\n      dup1\n      dup4\n      sub\n      dup2\n      dup7\n      gas\n      staticcall\n      iszero\n      dup1\n      iszero\n      tag_223\n      jumpi\n      returndatacopy(0x00, 0x00, returndatasize)\n      revert(0x00, returndatasize)\n    tag_223:\n      pop\n      pop\n      pop\n      pop\n      mload(0x40)\n      returndatasize\n      not(0x1f)\n      0x1f\n      dup3\n      add\n      and\n      dup3\n      add\n      dup1\n      0x40\n      mstore\n      pop\n      dup2\n      add\n      swap1\n      tag_224\n      swap2\n      swap1\n      tag_117\n      jump\t// in\n    tag_224:\n        /* \"hopium/uniswap/main/uniswap-oracle.sol\":5732:5758  address t0 = pool.token0() */\n      swap1\n      pop\n        /* \"hopium/uniswap/main/uniswap-oracle.sol\":5768:5778  address t1 */\n      0x00\n        /* \"hopium/uniswap/main/uniswap-oracle.sol\":5781:5785  pool */\n      dup3\n        /* \"hopium/uniswap/main/uniswap-oracle.sol\":5781:5792  pool.token1 */\n      0xffffffffffffffffffffffffffffffffffffffff\n      and\n      0xd21220a7\n        /* \"hopium/uniswap/main/uniswap-oracle.sol\":5781:5794  pool.token1() */\n      mload(0x40)\n      dup2\n      0xffffffff\n      and\n      0xe0\n      shl\n      dup2\n      mstore\n      0x04\n      add\n      0x20\n      mload(0x40)\n      dup1\n      dup4\n      sub\n      dup2\n      dup7\n      gas\n      staticcall\n      iszero\n      dup1\n      iszero\n      tag_226\n      jumpi\n      returndatacopy(0x00, 0x00, returndatasize)\n      revert(0x00, returndatasize)\n    tag_226:\n      pop\n      pop\n      pop\n      pop\n      mload(0x40)\n      returndatasize\n      not(0x1f)\n      0x1f\n      dup3\n      add\n      and\n      dup3\n      add\n      dup1\n      0x40\n      mstore\n      pop\n      dup2\n      add\n      swap1\n      tag_227\n      swap2\n      swap1\n      tag_117\n      jump\t// in\n    tag_227:\n        /* \"hopium/uniswap/main/uniswap-oracle.sol\":5768:5794  address t1 = pool.token1() */\n      swap1\n      pop\n        /* \"hopium/uniswap/main/uniswap-oracle.sol\":5806:5816  uint112 r0 */\n      0x00\n        /* \"hopium/uniswap/main/uniswap-oracle.sol\":5818:5828  uint112 r1 */\n      0x00\n        /* \"hopium/uniswap/main/uniswap-oracle.sol\":5834:5838  pool */\n      dup5\n        /* \"hopium/uniswap/main/uniswap-oracle.sol\":5834:5850  pool.getReserves */\n      0xffffffffffffffffffffffffffffffffffffffff\n      and\n      0x0902f1ac\n        /* \"hopium/uniswap/main/uniswap-oracle.sol\":5834:5852  pool.getReserves() */\n      mload(0x40)\n      dup2\n      0xffffffff\n      and\n      0xe0\n      shl\n      dup2\n      mstore\n      0x04\n      add\n      0x60\n      mload(0x40)\n      dup1\n      dup4\n      sub\n      dup2\n      dup7\n      gas\n      staticcall\n      iszero\n      dup1\n      iszero\n      tag_229\n      jumpi\n      returndatacopy(0x00, 0x00, returndatasize)\n      revert(0x00, returndatasize)\n    tag_229:\n      pop\n      pop\n      pop\n      pop\n      mload(0x40)\n      returndatasize\n      not(0x1f)\n      0x1f\n      dup3\n      add\n      and\n      dup3\n      add\n      dup1\n      0x40\n      mstore\n      pop\n      dup2\n      add\n      swap1\n      tag_230\n      swap2\n      swap1\n      tag_231\n      jump\t// in\n    tag_230:\n        /* \"hopium/uniswap/main/uniswap-oracle.sol\":5805:5852  (uint112 r0, uint112 r1, ) = pool.getReserves() */\n      pop\n      swap2\n      pop\n      swap2\n      pop\n        /* \"hopium/uniswap/main/uniswap-oracle.sol\":5863:5875  bool baseIs0 */\n      0x00\n        /* \"hopium/uniswap/main/uniswap-oracle.sol\":5885:5896  baseAddress */\n      dup8\n        /* \"hopium/uniswap/main/uniswap-oracle.sol\":5879:5896  t0 == baseAddress */\n      0xffffffffffffffffffffffffffffffffffffffff\n      and\n        /* \"hopium/uniswap/main/uniswap-oracle.sol\":5879:5881  t0 */\n      dup6\n        /* \"hopium/uniswap/main/uniswap-oracle.sol\":5879:5896  t0 == baseAddress */\n      0xffffffffffffffffffffffffffffffffffffffff\n      and\n      eq\n        /* \"hopium/uniswap/main/uniswap-oracle.sol\":5863:5897  bool baseIs0 = (t0 == baseAddress) */\n      swap1\n      pop\n        /* \"hopium/uniswap/main/uniswap-oracle.sol\":5907:5919  bool baseIs1 */\n      0x00\n        /* \"hopium/uniswap/main/uniswap-oracle.sol\":5929:5940  baseAddress */\n      dup9\n        /* \"hopium/uniswap/main/uniswap-oracle.sol\":5923:5940  t1 == baseAddress */\n      0xffffffffffffffffffffffffffffffffffffffff\n      and\n        /* \"hopium/uniswap/main/uniswap-oracle.sol\":5923:5925  t1 */\n      dup6\n        /* \"hopium/uniswap/main/uniswap-oracle.sol\":5923:5940  t1 == baseAddress */\n      0xffffffffffffffffffffffffffffffffffffffff\n      and\n      eq\n        /* \"hopium/uniswap/main/uniswap-oracle.sol\":5907:5941  bool baseIs1 = (t1 == baseAddress) */\n      swap1\n      pop\n        /* \"hopium/uniswap/main/uniswap-oracle.sol\":5957:5964  baseIs0 */\n      dup2\n        /* \"hopium/uniswap/main/uniswap-oracle.sol\":5957:5975  baseIs0 || baseIs1 */\n      dup1\n      tag_232\n      jumpi\n      pop\n        /* \"hopium/uniswap/main/uniswap-oracle.sol\":5968:5975  baseIs1 */\n      dup1\n        /* \"hopium/uniswap/main/uniswap-oracle.sol\":5957:5975  baseIs0 || baseIs1 */\n    tag_232:\n        /* \"hopium/uniswap/main/uniswap-oracle.sol\":5955:5976  !(baseIs0 || baseIs1) */\n      iszero\n        /* \"hopium/uniswap/main/uniswap-oracle.sol\":5955:6000  !(baseIs0 || baseIs1) || (baseIs0 && baseIs1) */\n      dup1\n      tag_233\n      jumpi\n      pop\n        /* \"hopium/uniswap/main/uniswap-oracle.sol\":5981:5988  baseIs0 */\n      dup2\n        /* \"hopium/uniswap/main/uniswap-oracle.sol\":5981:5999  baseIs0 && baseIs1 */\n      dup1\n      iszero\n      tag_234\n      jumpi\n      pop\n        /* \"hopium/uniswap/main/uniswap-oracle.sol\":5992:5999  baseIs1 */\n      dup1\n        /* \"hopium/uniswap/main/uniswap-oracle.sol\":5981:5999  baseIs0 && baseIs1 */\n    tag_234:\n        /* \"hopium/uniswap/main/uniswap-oracle.sol\":5955:6000  !(baseIs0 || baseIs1) || (baseIs0 && baseIs1) */\n    tag_233:\n        /* \"hopium/uniswap/main/uniswap-oracle.sol\":5951:6022  if (!(baseIs0 || baseIs1) || (baseIs0 && baseIs1)) revert NotBasePool() */\n      iszero\n      tag_235\n      jumpi\n        /* \"hopium/uniswap/main/uniswap-oracle.sol\":6009:6022  NotBasePool() */\n      mload(0x40)\n      0xb0d73dc900000000000000000000000000000000000000000000000000000000\n      dup2\n      mstore\n      0x04\n      add\n      mload(0x40)\n      dup1\n      swap2\n      sub\n      swap1\n      revert\n        /* \"hopium/uniswap/main/uniswap-oracle.sol\":5951:6022  if (!(baseIs0 || baseIs1) || (baseIs0 && baseIs1)) revert NotBasePool() */\n    tag_235:\n        /* \"hopium/uniswap/main/uniswap-oracle.sol\":6037:6044  baseIs0 */\n      dup2\n        /* \"hopium/uniswap/main/uniswap-oracle.sol\":6033:6531  if (baseIs0) {... */\n      iszero\n      tag_236\n      jumpi\n        /* \"hopium/uniswap/main/uniswap-oracle.sol\":6086:6099  uint8 baseDec */\n      0x00\n        /* \"hopium/uniswap/main/uniswap-oracle.sol\":6118:6120  t0 */\n      dup7\n        /* \"hopium/uniswap/main/uniswap-oracle.sol\":6103:6130  IERC20Metadata(t0).decimals */\n      0xffffffffffffffffffffffffffffffffffffffff\n      and\n      0x313ce567\n        /* \"hopium/uniswap/main/uniswap-oracle.sol\":6103:6132  IERC20Metadata(t0).decimals() */\n      mload(0x40)\n      dup2\n      0xffffffff\n      and\n      0xe0\n      shl\n      dup2\n      mstore\n      0x04\n      add\n      0x20\n      mload(0x40)\n      dup1\n      dup4\n      sub\n      dup2\n      dup7\n      gas\n      staticcall\n      iszero\n      dup1\n      iszero\n      tag_238\n      jumpi\n      returndatacopy(0x00, 0x00, returndatasize)\n      revert(0x00, returndatasize)\n    tag_238:\n      pop\n      pop\n      pop\n      pop\n      mload(0x40)\n      returndatasize\n      not(0x1f)\n      0x1f\n      dup3\n      add\n      and\n      dup3\n      add\n      dup1\n      0x40\n      mstore\n      pop\n      dup2\n      add\n      swap1\n      tag_239\n      swap2\n      swap1\n      tag_144\n      jump\t// in\n    tag_239:\n        /* \"hopium/uniswap/main/uniswap-oracle.sol\":6086:6132  uint8 baseDec  = IERC20Metadata(t0).decimals() */\n      swap1\n      pop\n        /* \"hopium/uniswap/main/uniswap-oracle.sol\":6146:6160  uint8 tokenDec */\n      0x00\n        /* \"hopium/uniswap/main/uniswap-oracle.sol\":6178:6180  t1 */\n      dup7\n        /* \"hopium/uniswap/main/uniswap-oracle.sol\":6163:6190  IERC20Metadata(t1).decimals */\n      0xffffffffffffffffffffffffffffffffffffffff\n      and\n      0x313ce567\n        /* \"hopium/uniswap/main/uniswap-oracle.sol\":6163:6192  IERC20Metadata(t1).decimals() */\n      mload(0x40)\n      dup2\n      0xffffffff\n      and\n      0xe0\n      shl\n      dup2\n      mstore\n      0x04\n      add\n      0x20\n      mload(0x40)\n      dup1\n      dup4\n      sub\n      dup2\n      dup7\n      gas\n      staticcall\n      iszero\n      dup1\n      iszero\n      tag_241\n      jumpi\n      returndatacopy(0x00, 0x00, returndatasize)\n      revert(0x00, returndatasize)\n    tag_241:\n      pop\n      pop\n      pop\n      pop\n      mload(0x40)\n      returndatasize\n      not(0x1f)\n      0x1f\n      dup3\n      add\n      and\n      dup3\n      add\n      dup1\n      0x40\n      mstore\n      pop\n      dup2\n      add\n      swap1\n      tag_242\n      swap2\n      swap1\n      tag_144\n      jump\t// in\n    tag_242:\n        /* \"hopium/uniswap/main/uniswap-oracle.sol\":6146:6192  uint8 tokenDec = IERC20Metadata(t1).decimals() */\n      swap1\n      pop\n        /* \"hopium/uniswap/main/uniswap-oracle.sol\":6216:6269  _price18(uint256(r0), baseDec, uint256(r1), tokenDec) */\n      tag_243\n        /* \"hopium/uniswap/main/uniswap-oracle.sol\":6233:6235  r0 */\n      dup7\n        /* \"hopium/uniswap/main/uniswap-oracle.sol\":6225:6236  uint256(r0) */\n      0xffffffffffffffffffffffffffff\n      and\n        /* \"hopium/uniswap/main/uniswap-oracle.sol\":6238:6245  baseDec */\n      dup4\n        /* \"hopium/uniswap/main/uniswap-oracle.sol\":6255:6257  r1 */\n      dup8\n        /* \"hopium/uniswap/main/uniswap-oracle.sol\":6247:6258  uint256(r1) */\n      0xffffffffffffffffffffffffffff\n      and\n        /* \"hopium/uniswap/main/uniswap-oracle.sol\":6260:6268  tokenDec */\n      dup5\n        /* \"hopium/uniswap/main/uniswap-oracle.sol\":6216:6224  _price18 */\n      tag_244\n        /* \"hopium/uniswap/main/uniswap-oracle.sol\":6216:6269  _price18(uint256(r0), baseDec, uint256(r1), tokenDec) */\n      jump\t// in\n    tag_243:\n        /* \"hopium/uniswap/main/uniswap-oracle.sol\":6206:6269  price18 = _price18(uint256(r0), baseDec, uint256(r1), tokenDec) */\n      swap10\n      pop\n        /* \"hopium/uniswap/main/uniswap-oracle.sol\":6046:6280  {... */\n      pop\n      pop\n        /* \"hopium/uniswap/main/uniswap-oracle.sol\":6033:6531  if (baseIs0) {... */\n      jump(tag_245)\n    tag_236:\n        /* \"hopium/uniswap/main/uniswap-oracle.sol\":6337:6350  uint8 baseDec */\n      0x00\n        /* \"hopium/uniswap/main/uniswap-oracle.sol\":6369:6371  t1 */\n      dup6\n        /* \"hopium/uniswap/main/uniswap-oracle.sol\":6354:6381  IERC20Metadata(t1).decimals */\n      0xffffffffffffffffffffffffffffffffffffffff\n      and\n      0x313ce567\n        /* \"hopium/uniswap/main/uniswap-oracle.sol\":6354:6383  IERC20Metadata(t1).decimals() */\n      mload(0x40)\n      dup2\n      0xffffffff\n      and\n      0xe0\n      shl\n      dup2\n      mstore\n      0x04\n      add\n      0x20\n      mload(0x40)\n      dup1\n      dup4\n      sub\n      dup2\n      dup7\n      gas\n      staticcall\n      iszero\n      dup1\n      iszero\n      tag_247\n      jumpi\n      returndatacopy(0x00, 0x00, returndatasize)\n      revert(0x00, returndatasize)\n    tag_247:\n      pop\n      pop\n      pop\n      pop\n      mload(0x40)\n      returndatasize\n      not(0x1f)\n      0x1f\n      dup3\n      add\n      and\n      dup3\n      add\n      dup1\n      0x40\n      mstore\n      pop\n      dup2\n      add\n      swap1\n      tag_248\n      swap2\n      swap1\n      tag_144\n      jump\t// in\n    tag_248:\n        /* \"hopium/uniswap/main/uniswap-oracle.sol\":6337:6383  uint8 baseDec  = IERC20Metadata(t1).decimals() */\n      swap1\n      pop\n        /* \"hopium/uniswap/main/uniswap-oracle.sol\":6397:6411  uint8 tokenDec */\n      0x00\n        /* \"hopium/uniswap/main/uniswap-oracle.sol\":6429:6431  t0 */\n      dup8\n        /* \"hopium/uniswap/main/uniswap-oracle.sol\":6414:6441  IERC20Metadata(t0).decimals */\n      0xffffffffffffffffffffffffffffffffffffffff\n      and\n      0x313ce567\n        /* \"hopium/uniswap/main/uniswap-oracle.sol\":6414:6443  IERC20Metadata(t0).decimals() */\n      mload(0x40)\n      dup2\n      0xffffffff\n      and\n      0xe0\n      shl\n      dup2\n      mstore\n      0x04\n      add\n      0x20\n      mload(0x40)\n      dup1\n      dup4\n      sub\n      dup2\n      dup7\n      gas\n      staticcall\n      iszero\n      dup1\n      iszero\n      tag_250\n      jumpi\n      returndatacopy(0x00, 0x00, returndatasize)\n      revert(0x00, returndatasize)\n    tag_250:\n      pop\n      pop\n      pop\n      pop\n      mload(0x40)\n      returndatasize\n      not(0x1f)\n      0x1f\n      dup3\n      add\n      and\n      dup3\n      add\n      dup1\n      0x40\n      mstore\n      pop\n      dup2\n      add\n      swap1\n      tag_251\n      swap2\n      swap1\n      tag_144\n      jump\t// in\n    tag_251:\n        /* \"hopium/uniswap/main/uniswap-oracle.sol\":6397:6443  uint8 tokenDec = IERC20Metadata(t0).decimals() */\n      swap1\n      pop\n        /* \"hopium/uniswap/main/uniswap-oracle.sol\":6467:6520  _price18(uint256(r1), baseDec, uint256(r0), tokenDec) */\n      tag_252\n        /* \"hopium/uniswap/main/uniswap-oracle.sol\":6484:6486  r1 */\n      dup6\n        /* \"hopium/uniswap/main/uniswap-oracle.sol\":6476:6487  uint256(r1) */\n      0xffffffffffffffffffffffffffff\n      and\n        /* \"hopium/uniswap/main/uniswap-oracle.sol\":6489:6496  baseDec */\n      dup4\n        /* \"hopium/uniswap/main/uniswap-oracle.sol\":6506:6508  r0 */\n      dup9\n        /* \"hopium/uniswap/main/uniswap-oracle.sol\":6498:6509  uint256(r0) */\n      0xffffffffffffffffffffffffffff\n      and\n        /* \"hopium/uniswap/main/uniswap-oracle.sol\":6511:6519  tokenDec */\n      dup5\n        /* \"hopium/uniswap/main/uniswap-oracle.sol\":6467:6475  _price18 */\n      tag_244\n        /* \"hopium/uniswap/main/uniswap-oracle.sol\":6467:6520  _price18(uint256(r1), baseDec, uint256(r0), tokenDec) */\n      jump\t// in\n    tag_252:\n        /* \"hopium/uniswap/main/uniswap-oracle.sol\":6457:6520  price18 = _price18(uint256(r1), baseDec, uint256(r0), tokenDec) */\n      swap10\n      pop\n        /* \"hopium/uniswap/main/uniswap-oracle.sol\":6286:6531  {... */\n      pop\n      pop\n        /* \"hopium/uniswap/main/uniswap-oracle.sol\":6033:6531  if (baseIs0) {... */\n    tag_245:\n        /* \"hopium/uniswap/main/uniswap-oracle.sol\":5663:6537  {... */\n      pop\n      pop\n      pop\n      pop\n      pop\n      pop\n      pop\n        /* \"hopium/uniswap/main/uniswap-oracle.sol\":5557:6537  function _getTokenPriceV2(address poolAddress, address baseAddress) public view returns (uint256 price18) {... */\n      swap3\n      swap2\n      pop\n      pop\n      jump\t// out\n        /* \"hopium/uniswap/main/uniswap-oracle.sol\":9641:10004  function _convertWethToUsd(uint256 wethAmount18) internal view returns (uint256 usdAmount18) {... */\n    tag_107:\n        /* \"hopium/uniswap/main/uniswap-oracle.sol\":9713:9732  uint256 usdAmount18 */\n      0x00\n        /* \"hopium/uniswap/main/uniswap-oracle.sol\":9764:9765  0 */\n      0x00\n        /* \"hopium/uniswap/main/uniswap-oracle.sol\":9748:9760  wethAmount18 */\n      dup3\n        /* \"hopium/uniswap/main/uniswap-oracle.sol\":9748:9765  wethAmount18 == 0 */\n      sub\n        /* \"hopium/uniswap/main/uniswap-oracle.sol\":9744:9775  if (wethAmount18 == 0) return 0 */\n      tag_254\n      jumpi\n        /* \"hopium/uniswap/main/uniswap-oracle.sol\":9774:9775  0 */\n      0x00\n        /* \"hopium/uniswap/main/uniswap-oracle.sol\":9767:9775  return 0 */\n      swap1\n      pop\n      jump(tag_253)\n        /* \"hopium/uniswap/main/uniswap-oracle.sol\":9744:9775  if (wethAmount18 == 0) return 0 */\n    tag_254:\n        /* \"hopium/uniswap/main/uniswap-oracle.sol\":9785:9807  uint256 wethUsdPrice18 */\n      0x00\n        /* \"hopium/uniswap/main/uniswap-oracle.sol\":9810:9828  _getWethUsdPrice() */\n      tag_255\n        /* \"hopium/uniswap/main/uniswap-oracle.sol\":9810:9826  _getWethUsdPrice */\n      tag_189\n        /* \"hopium/uniswap/main/uniswap-oracle.sol\":9810:9828  _getWethUsdPrice() */\n      jump\t// in\n    tag_255:\n        /* \"hopium/uniswap/main/uniswap-oracle.sol\":9785:9828  uint256 wethUsdPrice18 = _getWethUsdPrice() */\n      swap1\n      pop\n        /* \"hopium/uniswap/main/uniswap-oracle.sol\":9884:9885  0 */\n      0x00\n        /* \"hopium/uniswap/main/uniswap-oracle.sol\":9866:9880  wethUsdPrice18 */\n      dup2\n        /* \"hopium/uniswap/main/uniswap-oracle.sol\":9866:9885  wethUsdPrice18 == 0 */\n      sub\n        /* \"hopium/uniswap/main/uniswap-oracle.sol\":9862:9895  if (wethUsdPrice18 == 0) return 0 */\n      tag_256\n      jumpi\n        /* \"hopium/uniswap/main/uniswap-oracle.sol\":9894:9895  0 */\n      0x00\n        /* \"hopium/uniswap/main/uniswap-oracle.sol\":9887:9895  return 0 */\n      swap2\n      pop\n      pop\n      jump(tag_253)\n        /* \"hopium/uniswap/main/uniswap-oracle.sol\":9862:9895  if (wethUsdPrice18 == 0) return 0 */\n    tag_256:\n        /* \"hopium/uniswap/main/uniswap-oracle.sol\":9947:9997  FullMath.mulDiv(wethAmount18, wethUsdPrice18, WAD) */\n      tag_257\n        /* \"hopium/uniswap/main/uniswap-oracle.sol\":9963:9975  wethAmount18 */\n      dup4\n        /* \"hopium/uniswap/main/uniswap-oracle.sol\":9977:9991  wethUsdPrice18 */\n      dup3\n        /* \"hopium/uniswap/main/uniswap-oracle.sol\":1518:1522  1e18 */\n      0x0de0b6b3a7640000\n        /* \"hopium/uniswap/main/uniswap-oracle.sol\":9947:9962  FullMath.mulDiv */\n      tag_139\n        /* \"hopium/uniswap/main/uniswap-oracle.sol\":9947:9997  FullMath.mulDiv(wethAmount18, wethUsdPrice18, WAD) */\n      jump\t// in\n    tag_257:\n        /* \"hopium/uniswap/main/uniswap-oracle.sol\":9940:9997  return FullMath.mulDiv(wethAmount18, wethUsdPrice18, WAD) */\n      swap2\n      pop\n      pop\n        /* \"hopium/uniswap/main/uniswap-oracle.sol\":9641:10004  function _convertWethToUsd(uint256 wethAmount18) internal view returns (uint256 usdAmount18) {... */\n    tag_253:\n      swap2\n      swap1\n      pop\n      jump\t// out\n        /* \"hopium/uniswap/main/uniswap-oracle.sol\":13438:13990  function _getTokenLiquidityWeth(address tokenAddress) internal view returns (uint256 wethLiquidity18) {... */\n    tag_110:\n        /* \"hopium/uniswap/main/uniswap-oracle.sol\":13515:13538  uint256 wethLiquidity18 */\n      0x00\n        /* \"hopium/uniswap/main/uniswap-oracle.sol\":13570:13582  WETH_ADDRESS */\n      immutable(\"0x06dc925f7e0472030ab837bf4003aff8a140fea172ce25164bd1dc54959e1c1f\")\n        /* \"hopium/uniswap/main/uniswap-oracle.sol\":13554:13582  tokenAddress == WETH_ADDRESS */\n      0xffffffffffffffffffffffffffffffffffffffff\n      and\n        /* \"hopium/uniswap/main/uniswap-oracle.sol\":13554:13566  tokenAddress */\n      dup3\n        /* \"hopium/uniswap/main/uniswap-oracle.sol\":13554:13582  tokenAddress == WETH_ADDRESS */\n      0xffffffffffffffffffffffffffffffffffffffff\n      and\n      sub\n        /* \"hopium/uniswap/main/uniswap-oracle.sol\":13550:13716  if (tokenAddress == WETH_ADDRESS) {... */\n      tag_259\n      jumpi\n        /* \"hopium/uniswap/main/uniswap-oracle.sol\":13598:13612  uint256 supply */\n      0x00\n        /* \"hopium/uniswap/main/uniswap-oracle.sol\":13622:13634  WETH_ADDRESS */\n      immutable(\"0x06dc925f7e0472030ab837bf4003aff8a140fea172ce25164bd1dc54959e1c1f\")\n        /* \"hopium/uniswap/main/uniswap-oracle.sol\":13615:13647  IERC20(WETH_ADDRESS).totalSupply */\n      0xffffffffffffffffffffffffffffffffffffffff\n      and\n      0x18160ddd\n        /* \"hopium/uniswap/main/uniswap-oracle.sol\":13615:13649  IERC20(WETH_ADDRESS).totalSupply() */\n      mload(0x40)\n      dup2\n      0xffffffff\n      and\n      0xe0\n      shl\n      dup2\n      mstore\n      0x04\n      add\n      0x20\n      mload(0x40)\n      dup1\n      dup4\n      sub\n      dup2\n      dup7\n      gas\n      staticcall\n      iszero\n      dup1\n      iszero\n      tag_261\n      jumpi\n      returndatacopy(0x00, 0x00, returndatasize)\n      revert(0x00, returndatasize)\n    tag_261:\n      pop\n      pop\n      pop\n      pop\n      mload(0x40)\n      returndatasize\n      not(0x1f)\n      0x1f\n      dup3\n      add\n      and\n      dup3\n      add\n      dup1\n      0x40\n      mstore\n      pop\n      dup2\n      add\n      swap1\n      tag_262\n      swap2\n      swap1\n      tag_178\n      jump\t// in\n    tag_262:\n        /* \"hopium/uniswap/main/uniswap-oracle.sol\":13598:13649  uint256 supply = IERC20(WETH_ADDRESS).totalSupply() */\n      swap1\n      pop\n        /* \"hopium/uniswap/main/uniswap-oracle.sol\":13670:13705  _scaleTo1e18(supply, WETH_DECIMALS) */\n      tag_263\n        /* \"hopium/uniswap/main/uniswap-oracle.sol\":13683:13689  supply */\n      dup2\n        /* \"hopium/uniswap/main/uniswap-oracle.sol\":13691:13704  WETH_DECIMALS */\n      immutable(\"0x8542fd6224680a1c8acc4a73d199f6633ee1089ceb34d1007e9de66262a36fbd\")\n        /* \"hopium/uniswap/main/uniswap-oracle.sol\":13670:13682  _scaleTo1e18 */\n      tag_183\n        /* \"hopium/uniswap/main/uniswap-oracle.sol\":13670:13705  _scaleTo1e18(supply, WETH_DECIMALS) */\n      jump\t// in\n    tag_263:\n        /* \"hopium/uniswap/main/uniswap-oracle.sol\":13663:13705  return _scaleTo1e18(supply, WETH_DECIMALS) */\n      swap2\n      pop\n      pop\n      jump(tag_258)\n        /* \"hopium/uniswap/main/uniswap-oracle.sol\":13550:13716  if (tokenAddress == WETH_ADDRESS) {... */\n    tag_259:\n        /* \"hopium/uniswap/main/uniswap-oracle.sol\":13727:13740  bool isV3Pool */\n      0x00\n        /* \"hopium/uniswap/main/uniswap-oracle.sol\":13742:13761  address poolAddress */\n      0x00\n        /* \"hopium/uniswap/main/uniswap-oracle.sol\":13765:13804  _findTokenWethPoolAddress(tokenAddress) */\n      tag_264\n        /* \"hopium/uniswap/main/uniswap-oracle.sol\":13791:13803  tokenAddress */\n      dup5\n        /* \"hopium/uniswap/main/uniswap-oracle.sol\":13765:13790  _findTokenWethPoolAddress */\n      tag_170\n        /* \"hopium/uniswap/main/uniswap-oracle.sol\":13765:13804  _findTokenWethPoolAddress(tokenAddress) */\n      jump\t// in\n    tag_264:\n        /* \"hopium/uniswap/main/uniswap-oracle.sol\":13726:13804  (bool isV3Pool, address poolAddress) = _findTokenWethPoolAddress(tokenAddress) */\n      swap2\n      pop\n      swap2\n      pop\n        /* \"hopium/uniswap/main/uniswap-oracle.sol\":13818:13826  isV3Pool */\n      dup2\n        /* \"hopium/uniswap/main/uniswap-oracle.sol\":13814:13984  if (isV3Pool) {... */\n      iszero\n      tag_265\n      jumpi\n        /* \"hopium/uniswap/main/uniswap-oracle.sol\":13860:13892  _getLiquidityWethV3(poolAddress) */\n      tag_266\n        /* \"hopium/uniswap/main/uniswap-oracle.sol\":13880:13891  poolAddress */\n      dup2\n        /* \"hopium/uniswap/main/uniswap-oracle.sol\":13860:13879  _getLiquidityWethV3 */\n      tag_267\n        /* \"hopium/uniswap/main/uniswap-oracle.sol\":13860:13892  _getLiquidityWethV3(poolAddress) */\n      jump\t// in\n    tag_266:\n        /* \"hopium/uniswap/main/uniswap-oracle.sol\":13842:13892  wethLiquidity18 = _getLiquidityWethV3(poolAddress) */\n      swap3\n      pop\n        /* \"hopium/uniswap/main/uniswap-oracle.sol\":13814:13984  if (isV3Pool) {... */\n      jump(tag_268)\n    tag_265:\n        /* \"hopium/uniswap/main/uniswap-oracle.sol\":13941:13973  _getLiquidityWethV2(poolAddress) */\n      tag_269\n        /* \"hopium/uniswap/main/uniswap-oracle.sol\":13961:13972  poolAddress */\n      dup2\n        /* \"hopium/uniswap/main/uniswap-oracle.sol\":13941:13960  _getLiquidityWethV2 */\n      tag_270\n        /* \"hopium/uniswap/main/uniswap-oracle.sol\":13941:13973  _getLiquidityWethV2(poolAddress) */\n      jump\t// in\n    tag_269:\n        /* \"hopium/uniswap/main/uniswap-oracle.sol\":13923:13973  wethLiquidity18 = _getLiquidityWethV2(poolAddress) */\n      swap3\n      pop\n        /* \"hopium/uniswap/main/uniswap-oracle.sol\":13814:13984  if (isV3Pool) {... */\n    tag_268:\n        /* \"hopium/uniswap/main/uniswap-oracle.sol\":13540:13990  {... */\n      pop\n      pop\n        /* \"hopium/uniswap/main/uniswap-oracle.sol\":13438:13990  function _getTokenLiquidityWeth(address tokenAddress) internal view returns (uint256 wethLiquidity18) {... */\n    tag_258:\n      swap2\n      swap1\n      pop\n      jump\t// out\n        /* \"hopium/common/lib/full-math.sol\":285:2708  function mulDiv(... */\n    tag_139:\n        /* \"hopium/common/lib/full-math.sol\":397:411  uint256 result */\n      0x00\n        /* \"hopium/common/lib/full-math.sol\":501:514  uint256 prod0 */\n      0x00\n        /* \"hopium/common/lib/full-math.sol\":558:571  uint256 prod1 */\n      0x00\n        /* \"hopium/common/lib/full-math.sol\":668:669  0 */\n      0x00\n        /* \"hopium/common/lib/full-math.sol\":664:670  not(0) */\n      not\n        /* \"hopium/common/lib/full-math.sol\":661:662  b */\n      dup6\n        /* \"hopium/common/lib/full-math.sol\":658:659  a */\n      dup8\n        /* \"hopium/common/lib/full-math.sol\":651:671  mulmod(a, b, not(0)) */\n      mulmod\n        /* \"hopium/common/lib/full-math.sol\":704:705  b */\n      dup6\n        /* \"hopium/common/lib/full-math.sol\":701:702  a */\n      dup8\n        /* \"hopium/common/lib/full-math.sol\":697:706  mul(a, b) */\n      mul\n        /* \"hopium/common/lib/full-math.sol\":688:706  prod0 := mul(a, b) */\n      swap3\n      pop\n        /* \"hopium/common/lib/full-math.sol\":759:764  prod0 */\n      dup3\n        /* \"hopium/common/lib/full-math.sol\":755:757  mm */\n      dup2\n        /* \"hopium/common/lib/full-math.sol\":752:765  lt(mm, prod0) */\n      lt\n        /* \"hopium/common/lib/full-math.sol\":744:749  prod0 */\n      dup4\n        /* \"hopium/common/lib/full-math.sol\":740:742  mm */\n      dup3\n        /* \"hopium/common/lib/full-math.sol\":736:750  sub(mm, prod0) */\n      sub\n        /* \"hopium/common/lib/full-math.sol\":732:766  sub(sub(mm, prod0), lt(mm, prod0)) */\n      sub\n        /* \"hopium/common/lib/full-math.sol\":723:766  prod1 := sub(sub(mm, prod0), lt(mm, prod0)) */\n      swap2\n      pop\n        /* \"hopium/common/lib/full-math.sol\":623:780  {... */\n      pop\n        /* \"hopium/common/lib/full-math.sol\":854:855  0 */\n      0x00\n        /* \"hopium/common/lib/full-math.sol\":845:850  prod1 */\n      dup2\n        /* \"hopium/common/lib/full-math.sol\":845:855  prod1 == 0 */\n      sub\n        /* \"hopium/common/lib/full-math.sol\":841:883  if (prod1 == 0) return prod0 / denominator */\n      tag_272\n      jumpi\n        /* \"hopium/common/lib/full-math.sol\":872:883  denominator */\n      dup4\n        /* \"hopium/common/lib/full-math.sol\":864:869  prod0 */\n      dup3\n        /* \"hopium/common/lib/full-math.sol\":864:883  prod0 / denominator */\n      dup2\n      tag_273\n      jumpi\n      tag_274\n      tag_275\n      jump\t// in\n    tag_274:\n    tag_273:\n      div\n        /* \"hopium/common/lib/full-math.sol\":857:883  return prod0 / denominator */\n      swap3\n      pop\n      pop\n      pop\n      jump(tag_271)\n        /* \"hopium/common/lib/full-math.sol\":841:883  if (prod1 == 0) return prod0 / denominator */\n    tag_272:\n        /* \"hopium/common/lib/full-math.sol\":920:925  prod1 */\n      dup1\n        /* \"hopium/common/lib/full-math.sol\":906:917  denominator */\n      dup5\n        /* \"hopium/common/lib/full-math.sol\":906:925  denominator > prod1 */\n      gt\n        /* \"hopium/common/lib/full-math.sol\":898:945  require(denominator > prod1, \"mulDiv overflow\") */\n      tag_276\n      jumpi\n      mload(0x40)\n      0x08c379a000000000000000000000000000000000000000000000000000000000\n      dup2\n      mstore\n      0x04\n      add\n      tag_277\n      swap1\n      tag_278\n      jump\t// in\n    tag_277:\n      mload(0x40)\n      dup1\n      swap2\n      sub\n      swap1\n      revert\n    tag_276:\n        /* \"hopium/common/lib/full-math.sol\":1138:1155  uint256 remainder */\n      0x00\n        /* \"hopium/common/lib/full-math.sol\":1222:1233  denominator */\n      dup5\n        /* \"hopium/common/lib/full-math.sol\":1219:1220  b */\n      dup7\n        /* \"hopium/common/lib/full-math.sol\":1216:1217  a */\n      dup9\n        /* \"hopium/common/lib/full-math.sol\":1209:1234  mulmod(a, b, denominator) */\n      mulmod\n        /* \"hopium/common/lib/full-math.sol\":1196:1234  remainder := mulmod(a, b, denominator) */\n      swap1\n      pop\n        /* \"hopium/common/lib/full-math.sol\":1285:1290  prod0 */\n      dup3\n        /* \"hopium/common/lib/full-math.sol\":1274:1283  remainder */\n      dup2\n        /* \"hopium/common/lib/full-math.sol\":1271:1291  gt(remainder, prod0) */\n      gt\n        /* \"hopium/common/lib/full-math.sol\":1264:1269  prod1 */\n      dup3\n        /* \"hopium/common/lib/full-math.sol\":1260:1292  sub(prod1, gt(remainder, prod0)) */\n      sub\n        /* \"hopium/common/lib/full-math.sol\":1251:1292  prod1 := sub(prod1, gt(remainder, prod0)) */\n      swap2\n      pop\n        /* \"hopium/common/lib/full-math.sol\":1329:1338  remainder */\n      dup1\n        /* \"hopium/common/lib/full-math.sol\":1322:1327  prod0 */\n      dup4\n        /* \"hopium/common/lib/full-math.sol\":1318:1339  sub(prod0, remainder) */\n      sub\n        /* \"hopium/common/lib/full-math.sol\":1309:1339  prod0 := sub(prod0, remainder) */\n      swap3\n      pop\n        /* \"hopium/common/lib/full-math.sol\":1543:1555  uint256 twos */\n      0x00\n        /* \"hopium/common/lib/full-math.sol\":1588:1589  1 */\n      0x01\n        /* \"hopium/common/lib/full-math.sol\":1574:1585  denominator */\n      dup7\n        /* \"hopium/common/lib/full-math.sol\":1573:1585  ~denominator */\n      not\n        /* \"hopium/common/lib/full-math.sol\":1573:1589  ~denominator + 1 */\n      add\n        /* \"hopium/common/lib/full-math.sol\":1558:1569  denominator */\n      dup7\n        /* \"hopium/common/lib/full-math.sol\":1558:1590  denominator & (~denominator + 1) */\n      and\n        /* \"hopium/common/lib/full-math.sol\":1543:1590  uint256 twos = denominator & (~denominator + 1) */\n      swap1\n      pop\n        /* \"hopium/common/lib/full-math.sol\":1663:1667  twos */\n      dup1\n        /* \"hopium/common/lib/full-math.sol\":1650:1661  denominator */\n      dup7\n        /* \"hopium/common/lib/full-math.sol\":1646:1668  div(denominator, twos) */\n      div\n        /* \"hopium/common/lib/full-math.sol\":1631:1668  denominator := div(denominator, twos) */\n      swap6\n      pop\n        /* \"hopium/common/lib/full-math.sol\":1705:1709  twos */\n      dup1\n        /* \"hopium/common/lib/full-math.sol\":1698:1703  prod0 */\n      dup5\n        /* \"hopium/common/lib/full-math.sol\":1694:1710  div(prod0, twos) */\n      div\n        /* \"hopium/common/lib/full-math.sol\":1685:1710  prod0 := div(prod0, twos) */\n      swap4\n      pop\n        /* \"hopium/common/lib/full-math.sol\":1764:1765  1 */\n      0x01\n        /* \"hopium/common/lib/full-math.sol\":1757:1761  twos */\n      dup2\n        /* \"hopium/common/lib/full-math.sol\":1750:1754  twos */\n      dup3\n        /* \"hopium/common/lib/full-math.sol\":1747:1748  0 */\n      0x00\n        /* \"hopium/common/lib/full-math.sol\":1743:1755  sub(0, twos) */\n      sub\n        /* \"hopium/common/lib/full-math.sol\":1739:1762  div(sub(0, twos), twos) */\n      div\n        /* \"hopium/common/lib/full-math.sol\":1735:1766  add(div(sub(0, twos), twos), 1) */\n      add\n        /* \"hopium/common/lib/full-math.sol\":1727:1766  twos := add(div(sub(0, twos), twos), 1) */\n      swap1\n      pop\n        /* \"hopium/common/lib/full-math.sol\":1856:1860  twos */\n      dup1\n        /* \"hopium/common/lib/full-math.sol\":1848:1853  prod1 */\n      dup4\n        /* \"hopium/common/lib/full-math.sol\":1848:1860  prod1 * twos */\n      mul\n        /* \"hopium/common/lib/full-math.sol\":1839:1860  prod0 |= prod1 * twos */\n      dup5\n      or\n      swap4\n      pop\n        /* \"hopium/common/lib/full-math.sol\":2064:2075  uint256 inv */\n      0x00\n        /* \"hopium/common/lib/full-math.sol\":2098:2099  2 */\n      0x02\n        /* \"hopium/common/lib/full-math.sol\":2083:2094  denominator */\n      dup8\n        /* \"hopium/common/lib/full-math.sol\":2079:2080  3 */\n      0x03\n        /* \"hopium/common/lib/full-math.sol\":2079:2094  3 * denominator */\n      mul\n        /* \"hopium/common/lib/full-math.sol\":2078:2099  (3 * denominator) ^ 2 */\n      xor\n        /* \"hopium/common/lib/full-math.sol\":2064:2099  uint256 inv = (3 * denominator) ^ 2 */\n      swap1\n      pop\n        /* \"hopium/common/lib/full-math.sol\":2138:2141  inv */\n      dup1\n        /* \"hopium/common/lib/full-math.sol\":2124:2135  denominator */\n      dup8\n        /* \"hopium/common/lib/full-math.sol\":2124:2141  denominator * inv */\n      mul\n        /* \"hopium/common/lib/full-math.sol\":2120:2121  2 */\n      0x02\n        /* \"hopium/common/lib/full-math.sol\":2120:2141  2 - denominator * inv */\n      sub\n        /* \"hopium/common/lib/full-math.sol\":2113:2141  inv *= 2 - denominator * inv */\n      dup2\n      mul\n      swap1\n      pop\n        /* \"hopium/common/lib/full-math.sol\":2200:2203  inv */\n      dup1\n        /* \"hopium/common/lib/full-math.sol\":2186:2197  denominator */\n      dup8\n        /* \"hopium/common/lib/full-math.sol\":2186:2203  denominator * inv */\n      mul\n        /* \"hopium/common/lib/full-math.sol\":2182:2183  2 */\n      0x02\n        /* \"hopium/common/lib/full-math.sol\":2182:2203  2 - denominator * inv */\n      sub\n        /* \"hopium/common/lib/full-math.sol\":2175:2203  inv *= 2 - denominator * inv */\n      dup2\n      mul\n      swap1\n      pop\n        /* \"hopium/common/lib/full-math.sol\":2256:2259  inv */\n      dup1\n        /* \"hopium/common/lib/full-math.sol\":2242:2253  denominator */\n      dup8\n        /* \"hopium/common/lib/full-math.sol\":2242:2259  denominator * inv */\n      mul\n        /* \"hopium/common/lib/full-math.sol\":2238:2239  2 */\n      0x02\n        /* \"hopium/common/lib/full-math.sol\":2238:2259  2 - denominator * inv */\n      sub\n        /* \"hopium/common/lib/full-math.sol\":2231:2259  inv *= 2 - denominator * inv */\n      dup2\n      mul\n      swap1\n      pop\n        /* \"hopium/common/lib/full-math.sol\":2311:2314  inv */\n      dup1\n        /* \"hopium/common/lib/full-math.sol\":2297:2308  denominator */\n      dup8\n        /* \"hopium/common/lib/full-math.sol\":2297:2314  denominator * inv */\n      mul\n        /* \"hopium/common/lib/full-math.sol\":2293:2294  2 */\n      0x02\n        /* \"hopium/common/lib/full-math.sol\":2293:2314  2 - denominator * inv */\n      sub\n        /* \"hopium/common/lib/full-math.sol\":2286:2314  inv *= 2 - denominator * inv */\n      dup2\n      mul\n      swap1\n      pop\n        /* \"hopium/common/lib/full-math.sol\":2368:2371  inv */\n      dup1\n        /* \"hopium/common/lib/full-math.sol\":2354:2365  denominator */\n      dup8\n        /* \"hopium/common/lib/full-math.sol\":2354:2371  denominator * inv */\n      mul\n        /* \"hopium/common/lib/full-math.sol\":2350:2351  2 */\n      0x02\n        /* \"hopium/common/lib/full-math.sol\":2350:2371  2 - denominator * inv */\n      sub\n        /* \"hopium/common/lib/full-math.sol\":2343:2371  inv *= 2 - denominator * inv */\n      dup2\n      mul\n      swap1\n      pop\n        /* \"hopium/common/lib/full-math.sol\":2426:2429  inv */\n      dup1\n        /* \"hopium/common/lib/full-math.sol\":2412:2423  denominator */\n      dup8\n        /* \"hopium/common/lib/full-math.sol\":2412:2429  denominator * inv */\n      mul\n        /* \"hopium/common/lib/full-math.sol\":2408:2409  2 */\n      0x02\n        /* \"hopium/common/lib/full-math.sol\":2408:2429  2 - denominator * inv */\n      sub\n        /* \"hopium/common/lib/full-math.sol\":2401:2429  inv *= 2 - denominator * inv */\n      dup2\n      mul\n      swap1\n      pop\n        /* \"hopium/common/lib/full-math.sol\":2661:2664  inv */\n      dup1\n        /* \"hopium/common/lib/full-math.sol\":2653:2658  prod0 */\n      dup6\n        /* \"hopium/common/lib/full-math.sol\":2653:2664  prod0 * inv */\n      mul\n        /* \"hopium/common/lib/full-math.sol\":2644:2664  result = prod0 * inv */\n      swap6\n      pop\n        /* \"hopium/common/lib/full-math.sol\":2678:2691  return result */\n      pop\n      pop\n      pop\n      pop\n      pop\n        /* \"hopium/common/lib/full-math.sol\":285:2708  function mulDiv(... */\n    tag_271:\n      swap4\n      swap3\n      pop\n      pop\n      pop\n      jump\t// out\n        /* \"hopium/uniswap/main/uniswap-oracle.sol\":2713:3495  function _pow10(uint8 n) internal pure returns (uint256) {... */\n    tag_150:\n        /* \"hopium/uniswap/main/uniswap-oracle.sol\":2761:2768  uint256 */\n      0x00\n        /* \"hopium/uniswap/main/uniswap-oracle.sol\":2789:2790  0 */\n      0x00\n        /* \"hopium/uniswap/main/uniswap-oracle.sol\":2784:2785  n */\n      dup3\n        /* \"hopium/uniswap/main/uniswap-oracle.sol\":2784:2790  n == 0 */\n      0xff\n      and\n      sub\n        /* \"hopium/uniswap/main/uniswap-oracle.sol\":2780:2807  if (n == 0)  return POW10_0 */\n      tag_280\n      jumpi\n        /* \"hopium/uniswap/main/uniswap-oracle.sol\":1651:1652  1 */\n      0x01\n        /* \"hopium/uniswap/main/uniswap-oracle.sol\":2793:2807  return POW10_0 */\n      swap1\n      pop\n      jump(tag_279)\n        /* \"hopium/uniswap/main/uniswap-oracle.sol\":2780:2807  if (n == 0)  return POW10_0 */\n    tag_280:\n        /* \"hopium/uniswap/main/uniswap-oracle.sol\":2826:2827  1 */\n      0x01\n        /* \"hopium/uniswap/main/uniswap-oracle.sol\":2821:2822  n */\n      dup3\n        /* \"hopium/uniswap/main/uniswap-oracle.sol\":2821:2827  n == 1 */\n      0xff\n      and\n      sub\n        /* \"hopium/uniswap/main/uniswap-oracle.sol\":2817:2844  if (n == 1)  return POW10_1 */\n      tag_281\n      jumpi\n        /* \"hopium/uniswap/main/uniswap-oracle.sol\":1694:1696  10 */\n      0x0a\n        /* \"hopium/uniswap/main/uniswap-oracle.sol\":2830:2844  return POW10_1 */\n      swap1\n      pop\n      jump(tag_279)\n        /* \"hopium/uniswap/main/uniswap-oracle.sol\":2817:2844  if (n == 1)  return POW10_1 */\n    tag_281:\n        /* \"hopium/uniswap/main/uniswap-oracle.sol\":2863:2864  2 */\n      0x02\n        /* \"hopium/uniswap/main/uniswap-oracle.sol\":2858:2859  n */\n      dup3\n        /* \"hopium/uniswap/main/uniswap-oracle.sol\":2858:2864  n == 2 */\n      0xff\n      and\n      sub\n        /* \"hopium/uniswap/main/uniswap-oracle.sol\":2854:2881  if (n == 2)  return POW10_2 */\n      tag_282\n      jumpi\n        /* \"hopium/uniswap/main/uniswap-oracle.sol\":1738:1741  100 */\n      0x64\n        /* \"hopium/uniswap/main/uniswap-oracle.sol\":2867:2881  return POW10_2 */\n      swap1\n      pop\n      jump(tag_279)\n        /* \"hopium/uniswap/main/uniswap-oracle.sol\":2854:2881  if (n == 2)  return POW10_2 */\n    tag_282:\n        /* \"hopium/uniswap/main/uniswap-oracle.sol\":2900:2901  3 */\n      0x03\n        /* \"hopium/uniswap/main/uniswap-oracle.sol\":2895:2896  n */\n      dup3\n        /* \"hopium/uniswap/main/uniswap-oracle.sol\":2895:2901  n == 3 */\n      0xff\n      and\n      sub\n        /* \"hopium/uniswap/main/uniswap-oracle.sol\":2891:2918  if (n == 3)  return POW10_3 */\n      tag_283\n      jumpi\n        /* \"hopium/uniswap/main/uniswap-oracle.sol\":1783:1788  1_000 */\n      0x03e8\n        /* \"hopium/uniswap/main/uniswap-oracle.sol\":2904:2918  return POW10_3 */\n      swap1\n      pop\n      jump(tag_279)\n        /* \"hopium/uniswap/main/uniswap-oracle.sol\":2891:2918  if (n == 3)  return POW10_3 */\n    tag_283:\n        /* \"hopium/uniswap/main/uniswap-oracle.sol\":2937:2938  4 */\n      0x04\n        /* \"hopium/uniswap/main/uniswap-oracle.sol\":2932:2933  n */\n      dup3\n        /* \"hopium/uniswap/main/uniswap-oracle.sol\":2932:2938  n == 4 */\n      0xff\n      and\n      sub\n        /* \"hopium/uniswap/main/uniswap-oracle.sol\":2928:2955  if (n == 4)  return POW10_4 */\n      tag_284\n      jumpi\n        /* \"hopium/uniswap/main/uniswap-oracle.sol\":1830:1836  10_000 */\n      0x2710\n        /* \"hopium/uniswap/main/uniswap-oracle.sol\":2941:2955  return POW10_4 */\n      swap1\n      pop\n      jump(tag_279)\n        /* \"hopium/uniswap/main/uniswap-oracle.sol\":2928:2955  if (n == 4)  return POW10_4 */\n    tag_284:\n        /* \"hopium/uniswap/main/uniswap-oracle.sol\":2974:2975  5 */\n      0x05\n        /* \"hopium/uniswap/main/uniswap-oracle.sol\":2969:2970  n */\n      dup3\n        /* \"hopium/uniswap/main/uniswap-oracle.sol\":2969:2975  n == 5 */\n      0xff\n      and\n      sub\n        /* \"hopium/uniswap/main/uniswap-oracle.sol\":2965:2992  if (n == 5)  return POW10_5 */\n      tag_285\n      jumpi\n        /* \"hopium/uniswap/main/uniswap-oracle.sol\":1878:1885  100_000 */\n      0x0186a0\n        /* \"hopium/uniswap/main/uniswap-oracle.sol\":2978:2992  return POW10_5 */\n      swap1\n      pop\n      jump(tag_279)\n        /* \"hopium/uniswap/main/uniswap-oracle.sol\":2965:2992  if (n == 5)  return POW10_5 */\n    tag_285:\n        /* \"hopium/uniswap/main/uniswap-oracle.sol\":3011:3012  6 */\n      0x06\n        /* \"hopium/uniswap/main/uniswap-oracle.sol\":3006:3007  n */\n      dup3\n        /* \"hopium/uniswap/main/uniswap-oracle.sol\":3006:3012  n == 6 */\n      0xff\n      and\n      sub\n        /* \"hopium/uniswap/main/uniswap-oracle.sol\":3002:3029  if (n == 6)  return POW10_6 */\n      tag_286\n      jumpi\n        /* \"hopium/uniswap/main/uniswap-oracle.sol\":1927:1936  1_000_000 */\n      0x0f4240\n        /* \"hopium/uniswap/main/uniswap-oracle.sol\":3015:3029  return POW10_6 */\n      swap1\n      pop\n      jump(tag_279)\n        /* \"hopium/uniswap/main/uniswap-oracle.sol\":3002:3029  if (n == 6)  return POW10_6 */\n    tag_286:\n        /* \"hopium/uniswap/main/uniswap-oracle.sol\":3048:3049  7 */\n      0x07\n        /* \"hopium/uniswap/main/uniswap-oracle.sol\":3043:3044  n */\n      dup3\n        /* \"hopium/uniswap/main/uniswap-oracle.sol\":3043:3049  n == 7 */\n      0xff\n      and\n      sub\n        /* \"hopium/uniswap/main/uniswap-oracle.sol\":3039:3066  if (n == 7)  return POW10_7 */\n      tag_287\n      jumpi\n        /* \"hopium/uniswap/main/uniswap-oracle.sol\":1978:1988  10_000_000 */\n      0x989680\n        /* \"hopium/uniswap/main/uniswap-oracle.sol\":3052:3066  return POW10_7 */\n      swap1\n      pop\n      jump(tag_279)\n        /* \"hopium/uniswap/main/uniswap-oracle.sol\":3039:3066  if (n == 7)  return POW10_7 */\n    tag_287:\n        /* \"hopium/uniswap/main/uniswap-oracle.sol\":3085:3086  8 */\n      0x08\n        /* \"hopium/uniswap/main/uniswap-oracle.sol\":3080:3081  n */\n      dup3\n        /* \"hopium/uniswap/main/uniswap-oracle.sol\":3080:3086  n == 8 */\n      0xff\n      and\n      sub\n        /* \"hopium/uniswap/main/uniswap-oracle.sol\":3076:3103  if (n == 8)  return POW10_8 */\n      tag_288\n      jumpi\n        /* \"hopium/uniswap/main/uniswap-oracle.sol\":2030:2041  100_000_000 */\n      0x05f5e100\n        /* \"hopium/uniswap/main/uniswap-oracle.sol\":3089:3103  return POW10_8 */\n      swap1\n      pop\n      jump(tag_279)\n        /* \"hopium/uniswap/main/uniswap-oracle.sol\":3076:3103  if (n == 8)  return POW10_8 */\n    tag_288:\n        /* \"hopium/uniswap/main/uniswap-oracle.sol\":3122:3123  9 */\n      0x09\n        /* \"hopium/uniswap/main/uniswap-oracle.sol\":3117:3118  n */\n      dup3\n        /* \"hopium/uniswap/main/uniswap-oracle.sol\":3117:3123  n == 9 */\n      0xff\n      and\n      sub\n        /* \"hopium/uniswap/main/uniswap-oracle.sol\":3113:3140  if (n == 9)  return POW10_9 */\n      tag_289\n      jumpi\n        /* \"hopium/uniswap/main/uniswap-oracle.sol\":2083:2096  1_000_000_000 */\n      0x3b9aca00\n        /* \"hopium/uniswap/main/uniswap-oracle.sol\":3126:3140  return POW10_9 */\n      swap1\n      pop\n      jump(tag_279)\n        /* \"hopium/uniswap/main/uniswap-oracle.sol\":3113:3140  if (n == 9)  return POW10_9 */\n    tag_289:\n        /* \"hopium/uniswap/main/uniswap-oracle.sol\":3159:3161  10 */\n      0x0a\n        /* \"hopium/uniswap/main/uniswap-oracle.sol\":3154:3155  n */\n      dup3\n        /* \"hopium/uniswap/main/uniswap-oracle.sol\":3154:3161  n == 10 */\n      0xff\n      and\n      sub\n        /* \"hopium/uniswap/main/uniswap-oracle.sol\":3150:3178  if (n == 10) return POW10_10 */\n      tag_290\n      jumpi\n        /* \"hopium/uniswap/main/uniswap-oracle.sol\":2138:2152  10_000_000_000 */\n      0x02540be400\n        /* \"hopium/uniswap/main/uniswap-oracle.sol\":3163:3178  return POW10_10 */\n      swap1\n      pop\n      jump(tag_279)\n        /* \"hopium/uniswap/main/uniswap-oracle.sol\":3150:3178  if (n == 10) return POW10_10 */\n    tag_290:\n        /* \"hopium/uniswap/main/uniswap-oracle.sol\":3197:3199  11 */\n      0x0b\n        /* \"hopium/uniswap/main/uniswap-oracle.sol\":3192:3193  n */\n      dup3\n        /* \"hopium/uniswap/main/uniswap-oracle.sol\":3192:3199  n == 11 */\n      0xff\n      and\n      sub\n        /* \"hopium/uniswap/main/uniswap-oracle.sol\":3188:3216  if (n == 11) return POW10_11 */\n      tag_291\n      jumpi\n        /* \"hopium/uniswap/main/uniswap-oracle.sol\":2194:2209  100_000_000_000 */\n      0x174876e800\n        /* \"hopium/uniswap/main/uniswap-oracle.sol\":3201:3216  return POW10_11 */\n      swap1\n      pop\n      jump(tag_279)\n        /* \"hopium/uniswap/main/uniswap-oracle.sol\":3188:3216  if (n == 11) return POW10_11 */\n    tag_291:\n        /* \"hopium/uniswap/main/uniswap-oracle.sol\":3235:3237  12 */\n      0x0c\n        /* \"hopium/uniswap/main/uniswap-oracle.sol\":3230:3231  n */\n      dup3\n        /* \"hopium/uniswap/main/uniswap-oracle.sol\":3230:3237  n == 12 */\n      0xff\n      and\n      sub\n        /* \"hopium/uniswap/main/uniswap-oracle.sol\":3226:3254  if (n == 12) return POW10_12 */\n      tag_292\n      jumpi\n        /* \"hopium/uniswap/main/uniswap-oracle.sol\":2251:2268  1_000_000_000_000 */\n      0xe8d4a51000\n        /* \"hopium/uniswap/main/uniswap-oracle.sol\":3239:3254  return POW10_12 */\n      swap1\n      pop\n      jump(tag_279)\n        /* \"hopium/uniswap/main/uniswap-oracle.sol\":3226:3254  if (n == 12) return POW10_12 */\n    tag_292:\n        /* \"hopium/uniswap/main/uniswap-oracle.sol\":3273:3275  13 */\n      0x0d\n        /* \"hopium/uniswap/main/uniswap-oracle.sol\":3268:3269  n */\n      dup3\n        /* \"hopium/uniswap/main/uniswap-oracle.sol\":3268:3275  n == 13 */\n      0xff\n      and\n      sub\n        /* \"hopium/uniswap/main/uniswap-oracle.sol\":3264:3292  if (n == 13) return POW10_13 */\n      tag_293\n      jumpi\n        /* \"hopium/uniswap/main/uniswap-oracle.sol\":2310:2328  10_000_000_000_000 */\n      0x09184e72a000\n        /* \"hopium/uniswap/main/uniswap-oracle.sol\":3277:3292  return POW10_13 */\n      swap1\n      pop\n      jump(tag_279)\n        /* \"hopium/uniswap/main/uniswap-oracle.sol\":3264:3292  if (n == 13) return POW10_13 */\n    tag_293:\n        /* \"hopium/uniswap/main/uniswap-oracle.sol\":3311:3313  14 */\n      0x0e\n        /* \"hopium/uniswap/main/uniswap-oracle.sol\":3306:3307  n */\n      dup3\n        /* \"hopium/uniswap/main/uniswap-oracle.sol\":3306:3313  n == 14 */\n      0xff\n      and\n      sub\n        /* \"hopium/uniswap/main/uniswap-oracle.sol\":3302:3330  if (n == 14) return POW10_14 */\n      tag_294\n      jumpi\n        /* \"hopium/uniswap/main/uniswap-oracle.sol\":2370:2389  100_000_000_000_000 */\n      0x5af3107a4000\n        /* \"hopium/uniswap/main/uniswap-oracle.sol\":3315:3330  return POW10_14 */\n      swap1\n      pop\n      jump(tag_279)\n        /* \"hopium/uniswap/main/uniswap-oracle.sol\":3302:3330  if (n == 14) return POW10_14 */\n    tag_294:\n        /* \"hopium/uniswap/main/uniswap-oracle.sol\":3349:3351  15 */\n      0x0f\n        /* \"hopium/uniswap/main/uniswap-oracle.sol\":3344:3345  n */\n      dup3\n        /* \"hopium/uniswap/main/uniswap-oracle.sol\":3344:3351  n == 15 */\n      0xff\n      and\n      sub\n        /* \"hopium/uniswap/main/uniswap-oracle.sol\":3340:3368  if (n == 15) return POW10_15 */\n      tag_295\n      jumpi\n        /* \"hopium/uniswap/main/uniswap-oracle.sol\":2431:2452  1_000_000_000_000_000 */\n      0x038d7ea4c68000\n        /* \"hopium/uniswap/main/uniswap-oracle.sol\":3353:3368  return POW10_15 */\n      swap1\n      pop\n      jump(tag_279)\n        /* \"hopium/uniswap/main/uniswap-oracle.sol\":3340:3368  if (n == 15) return POW10_15 */\n    tag_295:\n        /* \"hopium/uniswap/main/uniswap-oracle.sol\":3387:3389  16 */\n      0x10\n        /* \"hopium/uniswap/main/uniswap-oracle.sol\":3382:3383  n */\n      dup3\n        /* \"hopium/uniswap/main/uniswap-oracle.sol\":3382:3389  n == 16 */\n      0xff\n      and\n      sub\n        /* \"hopium/uniswap/main/uniswap-oracle.sol\":3378:3406  if (n == 16) return POW10_16 */\n      tag_296\n      jumpi\n        /* \"hopium/uniswap/main/uniswap-oracle.sol\":2494:2516  10_000_000_000_000_000 */\n      0x2386f26fc10000\n        /* \"hopium/uniswap/main/uniswap-oracle.sol\":3391:3406  return POW10_16 */\n      swap1\n      pop\n      jump(tag_279)\n        /* \"hopium/uniswap/main/uniswap-oracle.sol\":3378:3406  if (n == 16) return POW10_16 */\n    tag_296:\n        /* \"hopium/uniswap/main/uniswap-oracle.sol\":3425:3427  17 */\n      0x11\n        /* \"hopium/uniswap/main/uniswap-oracle.sol\":3420:3421  n */\n      dup3\n        /* \"hopium/uniswap/main/uniswap-oracle.sol\":3420:3427  n == 17 */\n      0xff\n      and\n      sub\n        /* \"hopium/uniswap/main/uniswap-oracle.sol\":3416:3444  if (n == 17) return POW10_17 */\n      tag_297\n      jumpi\n        /* \"hopium/uniswap/main/uniswap-oracle.sol\":2558:2581  100_000_000_000_000_000 */\n      0x016345785d8a0000\n        /* \"hopium/uniswap/main/uniswap-oracle.sol\":3429:3444  return POW10_17 */\n      swap1\n      pop\n      jump(tag_279)\n        /* \"hopium/uniswap/main/uniswap-oracle.sol\":3416:3444  if (n == 17) return POW10_17 */\n    tag_297:\n        /* \"hopium/uniswap/main/uniswap-oracle.sol\":2623:2648  1_000_000_000_000_000_000 */\n      0x0de0b6b3a7640000\n        /* \"hopium/uniswap/main/uniswap-oracle.sol\":3473:3488  return POW10_18 */\n      swap1\n      pop\n        /* \"hopium/uniswap/main/uniswap-oracle.sol\":2713:3495  function _pow10(uint8 n) internal pure returns (uint256) {... */\n    tag_279:\n      swap2\n      swap1\n      pop\n      jump\t// out\n        /* \"hopium/uniswap/main/uniswap-oracle.sol\":4827:5205  function _findTokenWethPoolAddress(address tokenAddress)... */\n    tag_170:\n        /* \"hopium/uniswap/main/uniswap-oracle.sol\":4931:4944  bool isV3Pool */\n      0x00\n        /* \"hopium/uniswap/main/uniswap-oracle.sol\":4946:4965  address poolAddress */\n      0x00\n        /* \"hopium/uniswap/main/uniswap-oracle.sol\":4981:4997  Pool memory pool */\n      0x00\n        /* \"hopium/uniswap/main/uniswap-oracle.sol\":5000:5015  getPoolFinder() */\n      tag_299\n        /* \"hopium/uniswap/main/uniswap-oracle.sol\":5000:5013  getPoolFinder */\n      tag_215\n        /* \"hopium/uniswap/main/uniswap-oracle.sol\":5000:5015  getPoolFinder() */\n      jump\t// in\n    tag_299:\n        /* \"hopium/uniswap/main/uniswap-oracle.sol\":5000:5031  getPoolFinder().getBestWethPool */\n      0xffffffffffffffffffffffffffffffffffffffff\n      and\n      0xdf697cc4\n        /* \"hopium/uniswap/main/uniswap-oracle.sol\":5032:5044  tokenAddress */\n      dup6\n        /* \"hopium/uniswap/main/uniswap-oracle.sol\":5000:5045  getPoolFinder().getBestWethPool(tokenAddress) */\n      mload(0x40)\n      dup3\n      0xffffffff\n      and\n      0xe0\n      shl\n      dup2\n      mstore\n      0x04\n      add\n      tag_300\n      swap2\n      swap1\n      tag_35\n      jump\t// in\n    tag_300:\n      0x80\n      mload(0x40)\n      dup1\n      dup4\n      sub\n      dup2\n      dup7\n      gas\n      staticcall\n      iszero\n      dup1\n      iszero\n      tag_302\n      jumpi\n      returndatacopy(0x00, 0x00, returndatasize)\n      revert(0x00, returndatasize)\n    tag_302:\n      pop\n      pop\n      pop\n      pop\n      mload(0x40)\n      returndatasize\n      not(0x1f)\n      0x1f\n      dup3\n      add\n      and\n      dup3\n      add\n      dup1\n      0x40\n      mstore\n      pop\n      dup2\n      add\n      swap1\n      tag_303\n      swap2\n      swap1\n      tag_304\n      jump\t// in\n    tag_303:\n        /* \"hopium/uniswap/main/uniswap-oracle.sol\":4981:5045  Pool memory pool = getPoolFinder().getBestWethPool(tokenAddress) */\n      swap1\n      pop\n        /* \"hopium/uniswap/main/uniswap-oracle.sol\":5087:5088  0 */\n      0x00\n        /* \"hopium/uniswap/main/uniswap-oracle.sol\":5059:5089  pool.poolAddress == address(0) */\n      0xffffffffffffffffffffffffffffffffffffffff\n      and\n        /* \"hopium/uniswap/main/uniswap-oracle.sol\":5059:5063  pool */\n      dup2\n        /* \"hopium/uniswap/main/uniswap-oracle.sol\":5059:5075  pool.poolAddress */\n      0x00\n      add\n      mload\n        /* \"hopium/uniswap/main/uniswap-oracle.sol\":5059:5089  pool.poolAddress == address(0) */\n      0xffffffffffffffffffffffffffffffffffffffff\n      and\n      sub\n        /* \"hopium/uniswap/main/uniswap-oracle.sol\":5055:5116  if (pool.poolAddress == address(0)) revert PoolDoesNotExist() */\n      tag_305\n      jumpi\n        /* \"hopium/uniswap/main/uniswap-oracle.sol\":5098:5116  PoolDoesNotExist() */\n      mload(0x40)\n      0x9c8787c000000000000000000000000000000000000000000000000000000000\n      dup2\n      mstore\n      0x04\n      add\n      mload(0x40)\n      dup1\n      swap2\n      sub\n      swap1\n      revert\n        /* \"hopium/uniswap/main/uniswap-oracle.sol\":5055:5116  if (pool.poolAddress == address(0)) revert PoolDoesNotExist() */\n    tag_305:\n        /* \"hopium/uniswap/main/uniswap-oracle.sol\":5157:5158  0 */\n      0x00\n        /* \"hopium/uniswap/main/uniswap-oracle.sol\":5140:5144  pool */\n      dup2\n        /* \"hopium/uniswap/main/uniswap-oracle.sol\":5140:5153  pool.isV3Pool */\n      0x40\n      add\n      mload\n        /* \"hopium/uniswap/main/uniswap-oracle.sol\":5140:5158  pool.isV3Pool != 0 */\n      0xff\n      and\n      eq\n      iszero\n        /* \"hopium/uniswap/main/uniswap-oracle.sol\":5126:5158  isV3Pool    = pool.isV3Pool != 0 */\n      swap3\n      pop\n        /* \"hopium/uniswap/main/uniswap-oracle.sol\":5182:5186  pool */\n      dup1\n        /* \"hopium/uniswap/main/uniswap-oracle.sol\":5182:5198  pool.poolAddress */\n      0x00\n      add\n      mload\n        /* \"hopium/uniswap/main/uniswap-oracle.sol\":5168:5198  poolAddress = pool.poolAddress */\n      swap2\n      pop\n        /* \"hopium/uniswap/main/uniswap-oracle.sol\":4971:5205  {... */\n      pop\n        /* \"hopium/uniswap/main/uniswap-oracle.sol\":4827:5205  function _findTokenWethPoolAddress(address tokenAddress)... */\n      swap2\n      pop\n      swap2\n      jump\t// out\n        /* \"hopium/uniswap/main/uniswap-oracle.sol\":4391:4742  function _scaleTo1e18(uint256 amount, uint8 decimals) internal pure returns (uint256 scaled) {... */\n    tag_183:\n        /* \"hopium/uniswap/main/uniswap-oracle.sol\":4468:4482  uint256 scaled */\n      0x00\n        /* \"hopium/uniswap/main/uniswap-oracle.sol\":4510:4512  18 */\n      0x12\n        /* \"hopium/uniswap/main/uniswap-oracle.sol\":4498:4506  decimals */\n      dup3\n        /* \"hopium/uniswap/main/uniswap-oracle.sol\":4498:4512  decimals == 18 */\n      0xff\n      and\n      sub\n        /* \"hopium/uniswap/main/uniswap-oracle.sol\":4494:4527  if (decimals == 18) return amount */\n      tag_307\n      jumpi\n        /* \"hopium/uniswap/main/uniswap-oracle.sol\":4521:4527  amount */\n      dup3\n        /* \"hopium/uniswap/main/uniswap-oracle.sol\":4514:4527  return amount */\n      swap1\n      pop\n      jump(tag_306)\n        /* \"hopium/uniswap/main/uniswap-oracle.sol\":4494:4527  if (decimals == 18) return amount */\n    tag_307:\n        /* \"hopium/uniswap/main/uniswap-oracle.sol\":4576:4578  18 */\n      0x12\n        /* \"hopium/uniswap/main/uniswap-oracle.sol\":4565:4573  decimals */\n      dup3\n        /* \"hopium/uniswap/main/uniswap-oracle.sol\":4565:4578  decimals < 18 */\n      0xff\n      and\n      lt\n        /* \"hopium/uniswap/main/uniswap-oracle.sol\":4561:4726  if (decimals < 18) {... */\n      iszero\n      tag_308\n      jumpi\n        /* \"hopium/uniswap/main/uniswap-oracle.sol\":4614:4635  _pow10(18 - decimals) */\n      tag_309\n        /* \"hopium/uniswap/main/uniswap-oracle.sol\":4626:4634  decimals */\n      dup3\n        /* \"hopium/uniswap/main/uniswap-oracle.sol\":4621:4623  18 */\n      0x12\n        /* \"hopium/uniswap/main/uniswap-oracle.sol\":4621:4634  18 - decimals */\n      sub\n        /* \"hopium/uniswap/main/uniswap-oracle.sol\":4614:4620  _pow10 */\n      tag_150\n        /* \"hopium/uniswap/main/uniswap-oracle.sol\":4614:4635  _pow10(18 - decimals) */\n      jump\t// in\n    tag_309:\n        /* \"hopium/uniswap/main/uniswap-oracle.sol\":4605:4611  amount */\n      dup4\n        /* \"hopium/uniswap/main/uniswap-oracle.sol\":4605:4635  amount * _pow10(18 - decimals) */\n      mul\n        /* \"hopium/uniswap/main/uniswap-oracle.sol\":4598:4635  return amount * _pow10(18 - decimals) */\n      swap1\n      pop\n      jump(tag_306)\n        /* \"hopium/uniswap/main/uniswap-oracle.sol\":4561:4726  if (decimals < 18) {... */\n    tag_308:\n        /* \"hopium/uniswap/main/uniswap-oracle.sol\":4690:4711  _pow10(decimals - 18) */\n      tag_311\n        /* \"hopium/uniswap/main/uniswap-oracle.sol\":4708:4710  18 */\n      0x12\n        /* \"hopium/uniswap/main/uniswap-oracle.sol\":4697:4705  decimals */\n      dup4\n        /* \"hopium/uniswap/main/uniswap-oracle.sol\":4697:4710  decimals - 18 */\n      sub\n        /* \"hopium/uniswap/main/uniswap-oracle.sol\":4690:4696  _pow10 */\n      tag_150\n        /* \"hopium/uniswap/main/uniswap-oracle.sol\":4690:4711  _pow10(decimals - 18) */\n      jump\t// in\n    tag_311:\n        /* \"hopium/uniswap/main/uniswap-oracle.sol\":4681:4687  amount */\n      dup4\n        /* \"hopium/uniswap/main/uniswap-oracle.sol\":4681:4711  amount / _pow10(decimals - 18) */\n      dup2\n      tag_312\n      jumpi\n      tag_313\n      tag_275\n      jump\t// in\n    tag_313:\n    tag_312:\n      div\n        /* \"hopium/uniswap/main/uniswap-oracle.sol\":4674:4711  return amount / _pow10(decimals - 18) */\n      swap1\n      pop\n        /* \"hopium/uniswap/main/uniswap-oracle.sol\":4391:4742  function _scaleTo1e18(uint256 amount, uint8 decimals) internal pure returns (uint256 scaled) {... */\n    tag_306:\n      swap3\n      swap2\n      pop\n      pop\n      jump\t// out\n        /* \"hopium/uniswap/main/uniswap-oracle.sol\":9309:9483  function _getWethUsdPrice() internal view returns (uint256 price18) {... */\n    tag_189:\n        /* \"hopium/uniswap/main/uniswap-oracle.sol\":9360:9375  uint256 price18 */\n      0x00\n        /* \"hopium/uniswap/main/uniswap-oracle.sol\":9397:9476  _getTokenPrice(WETH_USD_PAIR_ADDRESS, IS_WETH_USD_PAIR_ADDRESS_V3, USD_ADDRESS) */\n      tag_315\n        /* \"hopium/uniswap/main/uniswap-oracle.sol\":9412:9433  WETH_USD_PAIR_ADDRESS */\n      immutable(\"0x1f149d6c96e793351c7a360bcab9e10c751eb5044885f39398212a489e22545b\")\n        /* \"hopium/uniswap/main/uniswap-oracle.sol\":9435:9462  IS_WETH_USD_PAIR_ADDRESS_V3 */\n      immutable(\"0x865307fd9343f9b21447315c34d5042aa95db66533b26762dae88e17b3c809d7\")\n        /* \"hopium/uniswap/main/uniswap-oracle.sol\":9464:9475  USD_ADDRESS */\n      immutable(\"0x5081277725af21b52adfcd8be9eaf5a350f1ec111a4413c31b8ff210fe7f74ef\")\n        /* \"hopium/uniswap/main/uniswap-oracle.sol\":9397:9411  _getTokenPrice */\n      tag_198\n        /* \"hopium/uniswap/main/uniswap-oracle.sol\":9397:9476  _getTokenPrice(WETH_USD_PAIR_ADDRESS, IS_WETH_USD_PAIR_ADDRESS_V3, USD_ADDRESS) */\n      jump\t// in\n    tag_315:\n        /* \"hopium/uniswap/main/uniswap-oracle.sol\":9387:9476  price18 = _getTokenPrice(WETH_USD_PAIR_ADDRESS, IS_WETH_USD_PAIR_ADDRESS_V3, USD_ADDRESS) */\n      swap1\n      pop\n        /* \"hopium/uniswap/main/uniswap-oracle.sol\":9309:9483  function _getWethUsdPrice() internal view returns (uint256 price18) {... */\n      swap1\n      jump\t// out\n        /* \"hopium/uniswap/main/uniswap-oracle.sol\":8940:9251  function _getTokenPrice(address poolAddress, bool isV3Pool, address baseAddress) internal view returns (uint256 price18) {... */\n    tag_198:\n        /* \"hopium/uniswap/main/uniswap-oracle.sol\":9044:9059  uint256 price18 */\n      0x00\n        /* \"hopium/uniswap/main/uniswap-oracle.sol\":9075:9083  isV3Pool */\n      dup3\n        /* \"hopium/uniswap/main/uniswap-oracle.sol\":9071:9245  if (isV3Pool) {... */\n      iszero\n      tag_317\n      jumpi\n        /* \"hopium/uniswap/main/uniswap-oracle.sol\":9109:9151  _getTokenPriceV3(poolAddress, baseAddress) */\n      tag_318\n        /* \"hopium/uniswap/main/uniswap-oracle.sol\":9126:9137  poolAddress */\n      dup5\n        /* \"hopium/uniswap/main/uniswap-oracle.sol\":9139:9150  baseAddress */\n      dup4\n        /* \"hopium/uniswap/main/uniswap-oracle.sol\":9109:9125  _getTokenPriceV3 */\n      tag_51\n        /* \"hopium/uniswap/main/uniswap-oracle.sol\":9109:9151  _getTokenPriceV3(poolAddress, baseAddress) */\n      jump\t// in\n    tag_318:\n        /* \"hopium/uniswap/main/uniswap-oracle.sol\":9099:9151  price18 = _getTokenPriceV3(poolAddress, baseAddress) */\n      swap1\n      pop\n        /* \"hopium/uniswap/main/uniswap-oracle.sol\":9071:9245  if (isV3Pool) {... */\n      jump(tag_319)\n    tag_317:\n        /* \"hopium/uniswap/main/uniswap-oracle.sol\":9192:9234  _getTokenPriceV2(poolAddress, baseAddress) */\n      tag_320\n        /* \"hopium/uniswap/main/uniswap-oracle.sol\":9209:9220  poolAddress */\n      dup5\n        /* \"hopium/uniswap/main/uniswap-oracle.sol\":9222:9233  baseAddress */\n      dup4\n        /* \"hopium/uniswap/main/uniswap-oracle.sol\":9192:9208  _getTokenPriceV2 */\n      tag_102\n        /* \"hopium/uniswap/main/uniswap-oracle.sol\":9192:9234  _getTokenPriceV2(poolAddress, baseAddress) */\n      jump\t// in\n    tag_320:\n        /* \"hopium/uniswap/main/uniswap-oracle.sol\":9182:9234  price18 = _getTokenPriceV2(poolAddress, baseAddress) */\n      swap1\n      pop\n        /* \"hopium/uniswap/main/uniswap-oracle.sol\":9071:9245  if (isV3Pool) {... */\n    tag_319:\n        /* \"hopium/uniswap/main/uniswap-oracle.sol\":8940:9251  function _getTokenPrice(address poolAddress, bool isV3Pool, address baseAddress) internal view returns (uint256 price18) {... */\n      swap4\n      swap3\n      pop\n      pop\n      pop\n      jump\t// out\n        /* \"hopium/common/interface/imDirectory.sol\":589:1050  function _setDirectory(address _directory) internal {... */\n    tag_212:\n        /* \"hopium/common/interface/imDirectory.sol\":681:682  0 */\n      0x00\n        /* \"hopium/common/interface/imDirectory.sol\":659:683  _directory != address(0) */\n      0xffffffffffffffffffffffffffffffffffffffff\n      and\n        /* \"hopium/common/interface/imDirectory.sol\":659:669  _directory */\n      dup2\n        /* \"hopium/common/interface/imDirectory.sol\":659:683  _directory != address(0) */\n      0xffffffffffffffffffffffffffffffffffffffff\n      and\n      sub\n        /* \"hopium/common/interface/imDirectory.sol\":651:720  require(_directory != address(0), \"Directory cannot be zero address\") */\n      tag_322\n      jumpi\n      mload(0x40)\n      0x08c379a000000000000000000000000000000000000000000000000000000000\n      dup2\n      mstore\n      0x04\n      add\n      tag_323\n      swap1\n      tag_324\n      jump\t// in\n    tag_323:\n      mload(0x40)\n      dup1\n      swap2\n      sub\n      swap1\n      revert\n    tag_322:\n        /* \"hopium/common/interface/imDirectory.sol\":763:764  0 */\n      0x00\n        /* \"hopium/common/interface/imDirectory.sol\":738:748  _directory */\n      dup2\n        /* \"hopium/common/interface/imDirectory.sol\":738:760  _directory.code.length */\n      0xffffffffffffffffffffffffffffffffffffffff\n      and\n      extcodesize\n        /* \"hopium/common/interface/imDirectory.sol\":738:764  _directory.code.length > 0 */\n      gt\n        /* \"hopium/common/interface/imDirectory.sol\":730:797  require(_directory.code.length > 0, \"Directory must be a contract\") */\n      tag_325\n      jumpi\n      mload(0x40)\n      0x08c379a000000000000000000000000000000000000000000000000000000000\n      dup2\n      mstore\n      0x04\n      add\n      tag_326\n      swap1\n      tag_327\n      jump\t// in\n    tag_326:\n      mload(0x40)\n      dup1\n      swap2\n      sub\n      swap1\n      revert\n    tag_325:\n        /* \"hopium/common/interface/imDirectory.sol\":861:871  _directory */\n      dup1\n        /* \"hopium/common/interface/imDirectory.sol\":850:878  IDirectory(_directory).owner */\n      0xffffffffffffffffffffffffffffffffffffffff\n      and\n      0x8da5cb5b\n        /* \"hopium/common/interface/imDirectory.sol\":850:880  IDirectory(_directory).owner() */\n      mload(0x40)\n      dup2\n      0xffffffff\n      and\n      0xe0\n      shl\n      dup2\n      mstore\n      0x04\n      add\n      0x20\n      mload(0x40)\n      dup1\n      dup4\n      sub\n      dup2\n      dup7\n      gas\n      staticcall\n      swap3\n      pop\n      pop\n      pop\n      dup1\n      iszero\n      tag_328\n      jumpi\n      pop\n      mload(0x40)\n      returndatasize\n      not(0x1f)\n      0x1f\n      dup3\n      add\n      and\n      dup3\n      add\n      dup1\n      0x40\n      mstore\n      pop\n      dup2\n      add\n      swap1\n      tag_329\n      swap2\n      swap1\n      tag_117\n      jump\t// in\n    tag_329:\n      0x01\n    tag_328:\n        /* \"hopium/common/interface/imDirectory.sol\":846:1044  try IDirectory(_directory).owner() returns (address) {... */\n      tag_330\n      jumpi\n        /* \"hopium/common/interface/imDirectory.sol\":979:1033  revert(\"Directory address does not implement owner()\") */\n      mload(0x40)\n      0x08c379a000000000000000000000000000000000000000000000000000000000\n      dup2\n      mstore\n      0x04\n      add\n      tag_334\n      swap1\n      tag_335\n      jump\t// in\n    tag_334:\n      mload(0x40)\n      dup1\n      swap2\n      sub\n      swap1\n      revert\n        /* \"hopium/common/interface/imDirectory.sol\":846:1044  try IDirectory(_directory).owner() returns (address) {... */\n    tag_330:\n        /* \"hopium/common/interface/imDirectory.sol\":936:946  _directory */\n      dup2\n        /* \"hopium/common/interface/imDirectory.sol\":913:922  Directory */\n      0x00\n      0x00\n        /* \"hopium/common/interface/imDirectory.sol\":913:947  Directory = IDirectory(_directory) */\n      0x0100\n      exp\n      dup2\n      sload\n      dup2\n      0xffffffffffffffffffffffffffffffffffffffff\n      mul\n      not\n      and\n      swap1\n      dup4\n      0xffffffffffffffffffffffffffffffffffffffff\n      and\n      mul\n      or\n      swap1\n      sstore\n      pop\n        /* \"hopium/common/interface/imDirectory.sol\":881:958  returns (address) {... */\n      pop\n        /* \"hopium/common/interface/imDirectory.sol\":589:1050  function _setDirectory(address _directory) internal {... */\n      pop\n      jump\t// out\n        /* \"hopium/uniswap/interface/imPoolFinder.sol\":619:758  function getPoolFinder() internal view virtual returns (IPoolFinder) {... */\n    tag_215:\n        /* \"hopium/uniswap/interface/imPoolFinder.sol\":675:686  IPoolFinder */\n      0x00\n        /* \"hopium/uniswap/interface/imPoolFinder.sol\":717:750  fetchFromDirectory(\"pool-finder\") */\n      tag_338\n      mload(0x40)\n      dup1\n      0x40\n      add\n      0x40\n      mstore\n      dup1\n      0x0b\n      dup2\n      mstore\n      0x20\n      add\n      0x706f6f6c2d66696e646572000000000000000000000000000000000000000000\n      dup2\n      mstore\n      pop\n        /* \"hopium/uniswap/interface/imPoolFinder.sol\":717:735  fetchFromDirectory */\n      tag_46\n        /* \"hopium/uniswap/interface/imPoolFinder.sol\":717:750  fetchFromDirectory(\"pool-finder\") */\n      jump\t// in\n    tag_338:\n        /* \"hopium/uniswap/interface/imPoolFinder.sol\":698:751  return IPoolFinder(fetchFromDirectory(\"pool-finder\")) */\n      swap1\n      pop\n        /* \"hopium/uniswap/interface/imPoolFinder.sol\":619:758  function getPoolFinder() internal view virtual returns (IPoolFinder) {... */\n      swap1\n      jump\t// out\n        /* \"hopium/uniswap/main/uniswap-oracle.sol\":3631:4343  function _price18(... */\n    tag_244:\n        /* \"hopium/uniswap/main/uniswap-oracle.sol\":3770:3777  uint256 */\n      0x00\n        /* \"hopium/uniswap/main/uniswap-oracle.sol\":3805:3806  0 */\n      0x00\n        /* \"hopium/uniswap/main/uniswap-oracle.sol\":3793:3801  reserveA */\n      dup6\n        /* \"hopium/uniswap/main/uniswap-oracle.sol\":3793:3806  reserveA == 0 */\n      eq\n        /* \"hopium/uniswap/main/uniswap-oracle.sol\":3793:3823  reserveA == 0 || reserveB == 0 */\n      dup1\n      tag_340\n      jumpi\n      pop\n        /* \"hopium/uniswap/main/uniswap-oracle.sol\":3822:3823  0 */\n      0x00\n        /* \"hopium/uniswap/main/uniswap-oracle.sol\":3810:3818  reserveB */\n      dup4\n        /* \"hopium/uniswap/main/uniswap-oracle.sol\":3810:3823  reserveB == 0 */\n      eq\n        /* \"hopium/uniswap/main/uniswap-oracle.sol\":3793:3823  reserveA == 0 || reserveB == 0 */\n    tag_340:\n        /* \"hopium/uniswap/main/uniswap-oracle.sol\":3789:3847  if (reserveA == 0 || reserveB == 0) revert EmptyReserves() */\n      iszero\n      tag_341\n      jumpi\n        /* \"hopium/uniswap/main/uniswap-oracle.sol\":3832:3847  EmptyReserves() */\n      mload(0x40)\n      0x8b4a713e00000000000000000000000000000000000000000000000000000000\n      dup2\n      mstore\n      0x04\n      add\n      mload(0x40)\n      dup1\n      swap2\n      sub\n      swap1\n      revert\n        /* \"hopium/uniswap/main/uniswap-oracle.sol\":3789:3847  if (reserveA == 0 || reserveB == 0) revert EmptyReserves() */\n    tag_341:\n        /* \"hopium/uniswap/main/uniswap-oracle.sol\":3907:3920  uint256 scale */\n      0x00\n        /* \"hopium/uniswap/main/uniswap-oracle.sol\":3966:3970  decA */\n      dup5\n        /* \"hopium/uniswap/main/uniswap-oracle.sol\":3958:3970  decB >= decA */\n      0xff\n      and\n        /* \"hopium/uniswap/main/uniswap-oracle.sol\":3958:3962  decB */\n      dup4\n        /* \"hopium/uniswap/main/uniswap-oracle.sol\":3958:3970  decB >= decA */\n      0xff\n      and\n      lt\n        /* \"hopium/uniswap/main/uniswap-oracle.sol\":3954:4268  if (decB >= decA) {... */\n      tag_342\n      jumpi\n        /* \"hopium/uniswap/main/uniswap-oracle.sol\":4004:4023  _pow10(decB - decA) */\n      tag_343\n        /* \"hopium/uniswap/main/uniswap-oracle.sol\":4018:4022  decA */\n      dup6\n        /* \"hopium/uniswap/main/uniswap-oracle.sol\":4011:4015  decB */\n      dup5\n        /* \"hopium/uniswap/main/uniswap-oracle.sol\":4011:4022  decB - decA */\n      sub\n        /* \"hopium/uniswap/main/uniswap-oracle.sol\":4004:4010  _pow10 */\n      tag_150\n        /* \"hopium/uniswap/main/uniswap-oracle.sol\":4004:4023  _pow10(decB - decA) */\n      jump\t// in\n    tag_343:\n        /* \"hopium/uniswap/main/uniswap-oracle.sol\":1518:1522  1e18 */\n      0x0de0b6b3a7640000\n        /* \"hopium/uniswap/main/uniswap-oracle.sol\":3998:4023  WAD * _pow10(decB - decA) */\n      mul\n        /* \"hopium/uniswap/main/uniswap-oracle.sol\":3990:4023  scale = WAD * _pow10(decB - decA) */\n      swap1\n      pop\n        /* \"hopium/uniswap/main/uniswap-oracle.sol\":3954:4268  if (decB >= decA) {... */\n      jump(tag_344)\n    tag_342:\n        /* \"hopium/uniswap/main/uniswap-oracle.sol\":4145:4158  uint256 denom */\n      0x00\n        /* \"hopium/uniswap/main/uniswap-oracle.sol\":4172:4191  _pow10(decA - decB) */\n      tag_345\n        /* \"hopium/uniswap/main/uniswap-oracle.sol\":4186:4190  decB */\n      dup5\n        /* \"hopium/uniswap/main/uniswap-oracle.sol\":4179:4183  decA */\n      dup8\n        /* \"hopium/uniswap/main/uniswap-oracle.sol\":4179:4190  decA - decB */\n      sub\n        /* \"hopium/uniswap/main/uniswap-oracle.sol\":4172:4178  _pow10 */\n      tag_150\n        /* \"hopium/uniswap/main/uniswap-oracle.sol\":4172:4191  _pow10(decA - decB) */\n      jump\t// in\n    tag_345:\n        /* \"hopium/uniswap/main/uniswap-oracle.sol\":4161:4169  reserveB */\n      dup6\n        /* \"hopium/uniswap/main/uniswap-oracle.sol\":4161:4191  reserveB * _pow10(decA - decB) */\n      mul\n        /* \"hopium/uniswap/main/uniswap-oracle.sol\":4145:4191  uint256 denom = reserveB * _pow10(decA - decB) */\n      swap1\n      pop\n        /* \"hopium/uniswap/main/uniswap-oracle.sol\":4216:4253  FullMath.mulDiv(reserveA, WAD, denom) */\n      tag_346\n        /* \"hopium/uniswap/main/uniswap-oracle.sol\":4232:4240  reserveA */\n      dup8\n        /* \"hopium/uniswap/main/uniswap-oracle.sol\":1518:1522  1e18 */\n      0x0de0b6b3a7640000\n        /* \"hopium/uniswap/main/uniswap-oracle.sol\":4247:4252  denom */\n      dup4\n        /* \"hopium/uniswap/main/uniswap-oracle.sol\":4216:4231  FullMath.mulDiv */\n      tag_139\n        /* \"hopium/uniswap/main/uniswap-oracle.sol\":4216:4253  FullMath.mulDiv(reserveA, WAD, denom) */\n      jump\t// in\n    tag_346:\n        /* \"hopium/uniswap/main/uniswap-oracle.sol\":4209:4253  return FullMath.mulDiv(reserveA, WAD, denom) */\n      swap3\n      pop\n      pop\n      pop\n      jump(tag_339)\n        /* \"hopium/uniswap/main/uniswap-oracle.sol\":3954:4268  if (decB >= decA) {... */\n    tag_344:\n        /* \"hopium/uniswap/main/uniswap-oracle.sol\":4294:4336  FullMath.mulDiv(reserveA, scale, reserveB) */\n      tag_347\n        /* \"hopium/uniswap/main/uniswap-oracle.sol\":4310:4318  reserveA */\n      dup7\n        /* \"hopium/uniswap/main/uniswap-oracle.sol\":4320:4325  scale */\n      dup3\n        /* \"hopium/uniswap/main/uniswap-oracle.sol\":4327:4335  reserveB */\n      dup7\n        /* \"hopium/uniswap/main/uniswap-oracle.sol\":4294:4309  FullMath.mulDiv */\n      tag_139\n        /* \"hopium/uniswap/main/uniswap-oracle.sol\":4294:4336  FullMath.mulDiv(reserveA, scale, reserveB) */\n      jump\t// in\n    tag_347:\n        /* \"hopium/uniswap/main/uniswap-oracle.sol\":4287:4336  return FullMath.mulDiv(reserveA, scale, reserveB) */\n      swap2\n      pop\n      pop\n        /* \"hopium/uniswap/main/uniswap-oracle.sol\":3631:4343  function _price18(... */\n    tag_339:\n      swap5\n      swap4\n      pop\n      pop\n      pop\n      pop\n      jump\t// out\n        /* \"hopium/uniswap/main/uniswap-oracle.sol\":11885:13277  function _getLiquidityWethV3(address poolAddress) internal view returns (uint256 wethLiquidity18) {... */\n    tag_267:\n        /* \"hopium/uniswap/main/uniswap-oracle.sol\":11958:11981  uint256 wethLiquidity18 */\n      0x00\n        /* \"hopium/uniswap/main/uniswap-oracle.sol\":11993:12012  IUniswapV3Pool pool */\n      0x00\n        /* \"hopium/uniswap/main/uniswap-oracle.sol\":12030:12041  poolAddress */\n      dup3\n        /* \"hopium/uniswap/main/uniswap-oracle.sol\":11993:12042  IUniswapV3Pool pool = IUniswapV3Pool(poolAddress) */\n      swap1\n      pop\n        /* \"hopium/uniswap/main/uniswap-oracle.sol\":12053:12073  uint160 sqrtPriceX96 */\n      0x00\n        /* \"hopium/uniswap/main/uniswap-oracle.sol\":12089:12093  pool */\n      dup2\n        /* \"hopium/uniswap/main/uniswap-oracle.sol\":12089:12099  pool.slot0 */\n      0xffffffffffffffffffffffffffffffffffffffff\n      and\n      0x3850c7bd\n        /* \"hopium/uniswap/main/uniswap-oracle.sol\":12089:12101  pool.slot0() */\n      mload(0x40)\n      dup2\n      0xffffffff\n      and\n      0xe0\n      shl\n      dup2\n      mstore\n      0x04\n      add\n      0xe0\n      mload(0x40)\n      dup1\n      dup4\n      sub\n      dup2\n      dup7\n      gas\n      staticcall\n      iszero\n      dup1\n      iszero\n      tag_350\n      jumpi\n      returndatacopy(0x00, 0x00, returndatasize)\n      revert(0x00, returndatasize)\n    tag_350:\n      pop\n      pop\n      pop\n      pop\n      mload(0x40)\n      returndatasize\n      not(0x1f)\n      0x1f\n      dup3\n      add\n      and\n      dup3\n      add\n      dup1\n      0x40\n      mstore\n      pop\n      dup2\n      add\n      swap1\n      tag_351\n      swap2\n      swap1\n      tag_122\n      jump\t// in\n    tag_351:\n        /* \"hopium/uniswap/main/uniswap-oracle.sol\":12052:12101  (uint160 sqrtPriceX96, , , , , , ) = pool.slot0() */\n      pop\n      pop\n      pop\n      pop\n      pop\n      pop\n      swap1\n      pop\n        /* \"hopium/uniswap/main/uniswap-oracle.sol\":12111:12122  uint128 liq */\n      0x00\n        /* \"hopium/uniswap/main/uniswap-oracle.sol\":12125:12129  pool */\n      dup3\n        /* \"hopium/uniswap/main/uniswap-oracle.sol\":12125:12139  pool.liquidity */\n      0xffffffffffffffffffffffffffffffffffffffff\n      and\n      0x1a686502\n        /* \"hopium/uniswap/main/uniswap-oracle.sol\":12125:12141  pool.liquidity() */\n      mload(0x40)\n      dup2\n      0xffffffff\n      and\n      0xe0\n      shl\n      dup2\n      mstore\n      0x04\n      add\n      0x20\n      mload(0x40)\n      dup1\n      dup4\n      sub\n      dup2\n      dup7\n      gas\n      staticcall\n      iszero\n      dup1\n      iszero\n      tag_353\n      jumpi\n      returndatacopy(0x00, 0x00, returndatasize)\n      revert(0x00, returndatasize)\n    tag_353:\n      pop\n      pop\n      pop\n      pop\n      mload(0x40)\n      returndatasize\n      not(0x1f)\n      0x1f\n      dup3\n      add\n      and\n      dup3\n      add\n      dup1\n      0x40\n      mstore\n      pop\n      dup2\n      add\n      swap1\n      tag_354\n      swap2\n      swap1\n      tag_126\n      jump\t// in\n    tag_354:\n        /* \"hopium/uniswap/main/uniswap-oracle.sol\":12111:12141  uint128 liq = pool.liquidity() */\n      swap1\n      pop\n        /* \"hopium/uniswap/main/uniswap-oracle.sol\":12162:12163  0 */\n      0x00\n        /* \"hopium/uniswap/main/uniswap-oracle.sol\":12155:12158  liq */\n      dup2\n        /* \"hopium/uniswap/main/uniswap-oracle.sol\":12155:12163  liq == 0 */\n      0xffffffffffffffffffffffffffffffff\n      and\n      sub\n        /* \"hopium/uniswap/main/uniswap-oracle.sol\":12151:12187  if (liq == 0) revert ZeroLiquidity() */\n      tag_355\n      jumpi\n        /* \"hopium/uniswap/main/uniswap-oracle.sol\":12172:12187  ZeroLiquidity() */\n      mload(0x40)\n      0x1007454800000000000000000000000000000000000000000000000000000000\n      dup2\n      mstore\n      0x04\n      add\n      mload(0x40)\n      dup1\n      swap2\n      sub\n      swap1\n      revert\n        /* \"hopium/uniswap/main/uniswap-oracle.sol\":12151:12187  if (liq == 0) revert ZeroLiquidity() */\n    tag_355:\n        /* \"hopium/uniswap/main/uniswap-oracle.sol\":12198:12208  address t0 */\n      0x00\n        /* \"hopium/uniswap/main/uniswap-oracle.sol\":12211:12215  pool */\n      dup4\n        /* \"hopium/uniswap/main/uniswap-oracle.sol\":12211:12222  pool.token0 */\n      0xffffffffffffffffffffffffffffffffffffffff\n      and\n      0x0dfe1681\n        /* \"hopium/uniswap/main/uniswap-oracle.sol\":12211:12224  pool.token0() */\n      mload(0x40)\n      dup2\n      0xffffffff\n      and\n      0xe0\n      shl\n      dup2\n      mstore\n      0x04\n      add\n      0x20\n      mload(0x40)\n      dup1\n      dup4\n      sub\n      dup2\n      dup7\n      gas\n      staticcall\n      iszero\n      dup1\n      iszero\n      tag_357\n      jumpi\n      returndatacopy(0x00, 0x00, returndatasize)\n      revert(0x00, returndatasize)\n    tag_357:\n      pop\n      pop\n      pop\n      pop\n      mload(0x40)\n      returndatasize\n      not(0x1f)\n      0x1f\n      dup3\n      add\n      and\n      dup3\n      add\n      dup1\n      0x40\n      mstore\n      pop\n      dup2\n      add\n      swap1\n      tag_358\n      swap2\n      swap1\n      tag_117\n      jump\t// in\n    tag_358:\n        /* \"hopium/uniswap/main/uniswap-oracle.sol\":12198:12224  address t0 = pool.token0() */\n      swap1\n      pop\n        /* \"hopium/uniswap/main/uniswap-oracle.sol\":12234:12244  address t1 */\n      0x00\n        /* \"hopium/uniswap/main/uniswap-oracle.sol\":12247:12251  pool */\n      dup5\n        /* \"hopium/uniswap/main/uniswap-oracle.sol\":12247:12258  pool.token1 */\n      0xffffffffffffffffffffffffffffffffffffffff\n      and\n      0xd21220a7\n        /* \"hopium/uniswap/main/uniswap-oracle.sol\":12247:12260  pool.token1() */\n      mload(0x40)\n      dup2\n      0xffffffff\n      and\n      0xe0\n      shl\n      dup2\n      mstore\n      0x04\n      add\n      0x20\n      mload(0x40)\n      dup1\n      dup4\n      sub\n      dup2\n      dup7\n      gas\n      staticcall\n      iszero\n      dup1\n      iszero\n      tag_360\n      jumpi\n      returndatacopy(0x00, 0x00, returndatasize)\n      revert(0x00, returndatasize)\n    tag_360:\n      pop\n      pop\n      pop\n      pop\n      mload(0x40)\n      returndatasize\n      not(0x1f)\n      0x1f\n      dup3\n      add\n      and\n      dup3\n      add\n      dup1\n      0x40\n      mstore\n      pop\n      dup2\n      add\n      swap1\n      tag_361\n      swap2\n      swap1\n      tag_117\n      jump\t// in\n    tag_361:\n        /* \"hopium/uniswap/main/uniswap-oracle.sol\":12234:12260  address t1 = pool.token1() */\n      swap1\n      pop\n        /* \"hopium/uniswap/main/uniswap-oracle.sol\":12270:12282  bool wethIs0 */\n      0x00\n        /* \"hopium/uniswap/main/uniswap-oracle.sol\":12292:12304  WETH_ADDRESS */\n      immutable(\"0x06dc925f7e0472030ab837bf4003aff8a140fea172ce25164bd1dc54959e1c1f\")\n        /* \"hopium/uniswap/main/uniswap-oracle.sol\":12286:12304  t0 == WETH_ADDRESS */\n      0xffffffffffffffffffffffffffffffffffffffff\n      and\n        /* \"hopium/uniswap/main/uniswap-oracle.sol\":12286:12288  t0 */\n      dup4\n        /* \"hopium/uniswap/main/uniswap-oracle.sol\":12286:12304  t0 == WETH_ADDRESS */\n      0xffffffffffffffffffffffffffffffffffffffff\n      and\n      eq\n        /* \"hopium/uniswap/main/uniswap-oracle.sol\":12270:12305  bool wethIs0 = (t0 == WETH_ADDRESS) */\n      swap1\n      pop\n        /* \"hopium/uniswap/main/uniswap-oracle.sol\":12315:12327  bool wethIs1 */\n      0x00\n        /* \"hopium/uniswap/main/uniswap-oracle.sol\":12337:12349  WETH_ADDRESS */\n      immutable(\"0x06dc925f7e0472030ab837bf4003aff8a140fea172ce25164bd1dc54959e1c1f\")\n        /* \"hopium/uniswap/main/uniswap-oracle.sol\":12331:12349  t1 == WETH_ADDRESS */\n      0xffffffffffffffffffffffffffffffffffffffff\n      and\n        /* \"hopium/uniswap/main/uniswap-oracle.sol\":12331:12333  t1 */\n      dup4\n        /* \"hopium/uniswap/main/uniswap-oracle.sol\":12331:12349  t1 == WETH_ADDRESS */\n      0xffffffffffffffffffffffffffffffffffffffff\n      and\n      eq\n        /* \"hopium/uniswap/main/uniswap-oracle.sol\":12315:12350  bool wethIs1 = (t1 == WETH_ADDRESS) */\n      swap1\n      pop\n        /* \"hopium/uniswap/main/uniswap-oracle.sol\":12366:12373  wethIs0 */\n      dup2\n        /* \"hopium/uniswap/main/uniswap-oracle.sol\":12366:12384  wethIs0 || wethIs1 */\n      dup1\n      tag_362\n      jumpi\n      pop\n        /* \"hopium/uniswap/main/uniswap-oracle.sol\":12377:12384  wethIs1 */\n      dup1\n        /* \"hopium/uniswap/main/uniswap-oracle.sol\":12366:12384  wethIs0 || wethIs1 */\n    tag_362:\n        /* \"hopium/uniswap/main/uniswap-oracle.sol\":12360:12407  if (!(wethIs0 || wethIs1)) revert NotBasePool() */\n      tag_363\n      jumpi\n        /* \"hopium/uniswap/main/uniswap-oracle.sol\":12394:12407  NotBasePool() */\n      mload(0x40)\n      0xb0d73dc900000000000000000000000000000000000000000000000000000000\n      dup2\n      mstore\n      0x04\n      add\n      mload(0x40)\n      dup1\n      swap2\n      sub\n      swap1\n      revert\n        /* \"hopium/uniswap/main/uniswap-oracle.sol\":12360:12407  if (!(wethIs0 || wethIs1)) revert NotBasePool() */\n    tag_363:\n        /* \"hopium/uniswap/main/uniswap-oracle.sol\":12458:12471  uint256 sqrtP */\n      0x00\n        /* \"hopium/uniswap/main/uniswap-oracle.sol\":12482:12494  sqrtPriceX96 */\n      dup7\n        /* \"hopium/uniswap/main/uniswap-oracle.sol\":12474:12495  uint256(sqrtPriceX96) */\n      0xffffffffffffffffffffffffffffffffffffffff\n      and\n        /* \"hopium/uniswap/main/uniswap-oracle.sol\":12458:12495  uint256 sqrtP = uint256(sqrtPriceX96) */\n      swap1\n      pop\n        /* \"hopium/uniswap/main/uniswap-oracle.sol\":12505:12521  uint256 reserve0 */\n      0x00\n        /* \"hopium/uniswap/main/uniswap-oracle.sol\":12524:12569  FullMath.mulDiv(uint256(liq) << 96, 1, sqrtP) */\n      tag_364\n        /* \"hopium/uniswap/main/uniswap-oracle.sol\":12556:12558  96 */\n      0x60\n        /* \"hopium/uniswap/main/uniswap-oracle.sol\":12548:12551  liq */\n      dup9\n        /* \"hopium/uniswap/main/uniswap-oracle.sol\":12540:12552  uint256(liq) */\n      0xffffffffffffffffffffffffffffffff\n      and\n        /* \"hopium/uniswap/main/uniswap-oracle.sol\":12540:12558  uint256(liq) << 96 */\n      swap1\n      shl\n        /* \"hopium/uniswap/main/uniswap-oracle.sol\":12560:12561  1 */\n      0x01\n        /* \"hopium/uniswap/main/uniswap-oracle.sol\":12563:12568  sqrtP */\n      dup5\n        /* \"hopium/uniswap/main/uniswap-oracle.sol\":12524:12539  FullMath.mulDiv */\n      tag_139\n        /* \"hopium/uniswap/main/uniswap-oracle.sol\":12524:12569  FullMath.mulDiv(uint256(liq) << 96, 1, sqrtP) */\n      jump\t// in\n    tag_364:\n        /* \"hopium/uniswap/main/uniswap-oracle.sol\":12505:12569  uint256 reserve0 = FullMath.mulDiv(uint256(liq) << 96, 1, sqrtP) */\n      swap1\n      pop\n        /* \"hopium/uniswap/main/uniswap-oracle.sol\":12579:12595  uint256 reserve1 */\n      0x00\n        /* \"hopium/uniswap/main/uniswap-oracle.sol\":12598:12647  FullMath.mulDiv(uint256(liq) * sqrtP, 1, 1 << 96) */\n      tag_365\n        /* \"hopium/uniswap/main/uniswap-oracle.sol\":12629:12634  sqrtP */\n      dup4\n        /* \"hopium/uniswap/main/uniswap-oracle.sol\":12622:12625  liq */\n      dup10\n        /* \"hopium/uniswap/main/uniswap-oracle.sol\":12614:12626  uint256(liq) */\n      0xffffffffffffffffffffffffffffffff\n      and\n        /* \"hopium/uniswap/main/uniswap-oracle.sol\":12614:12634  uint256(liq) * sqrtP */\n      tag_366\n      swap2\n      swap1\n      tag_367\n      jump\t// in\n    tag_366:\n        /* \"hopium/uniswap/main/uniswap-oracle.sol\":12636:12637  1 */\n      0x01\n        /* \"hopium/uniswap/main/uniswap-oracle.sol\":12639:12646  1 << 96 */\n      0x01000000000000000000000000\n        /* \"hopium/uniswap/main/uniswap-oracle.sol\":12598:12613  FullMath.mulDiv */\n      tag_139\n        /* \"hopium/uniswap/main/uniswap-oracle.sol\":12598:12647  FullMath.mulDiv(uint256(liq) * sqrtP, 1, 1 << 96) */\n      jump\t// in\n    tag_365:\n        /* \"hopium/uniswap/main/uniswap-oracle.sol\":12579:12647  uint256 reserve1 = FullMath.mulDiv(uint256(liq) * sqrtP, 1, 1 << 96) */\n      swap1\n      pop\n        /* \"hopium/uniswap/main/uniswap-oracle.sol\":12657:12681  uint256 tokenWethPrice18 */\n      0x00\n        /* \"hopium/uniswap/main/uniswap-oracle.sol\":12684:12731  _getTokenPrice(poolAddress, true, WETH_ADDRESS) */\n      tag_368\n        /* \"hopium/uniswap/main/uniswap-oracle.sol\":12699:12710  poolAddress */\n      dup14\n        /* \"hopium/uniswap/main/uniswap-oracle.sol\":12712:12716  true */\n      0x01\n        /* \"hopium/uniswap/main/uniswap-oracle.sol\":12718:12730  WETH_ADDRESS */\n      immutable(\"0x06dc925f7e0472030ab837bf4003aff8a140fea172ce25164bd1dc54959e1c1f\")\n        /* \"hopium/uniswap/main/uniswap-oracle.sol\":12684:12698  _getTokenPrice */\n      tag_198\n        /* \"hopium/uniswap/main/uniswap-oracle.sol\":12684:12731  _getTokenPrice(poolAddress, true, WETH_ADDRESS) */\n      jump\t// in\n    tag_368:\n        /* \"hopium/uniswap/main/uniswap-oracle.sol\":12657:12731  uint256 tokenWethPrice18 = _getTokenPrice(poolAddress, true, WETH_ADDRESS) */\n      swap1\n      pop\n        /* \"hopium/uniswap/main/uniswap-oracle.sol\":12746:12753  wethIs0 */\n      dup6\n        /* \"hopium/uniswap/main/uniswap-oracle.sol\":12742:13271  if (wethIs0) {... */\n      iszero\n      tag_369\n      jumpi\n        /* \"hopium/uniswap/main/uniswap-oracle.sol\":12787:12999  _calcLiquidityWeth(... */\n      tag_370\n        /* \"hopium/uniswap/main/uniswap-oracle.sol\":12823:12831  reserve0 */\n      dup4\n        /* \"hopium/uniswap/main/uniswap-oracle.sol\":12864:12866  t0 */\n      dup10\n        /* \"hopium/uniswap/main/uniswap-oracle.sol\":12849:12876  IERC20Metadata(t0).decimals */\n      0xffffffffffffffffffffffffffffffffffffffff\n      and\n      0x313ce567\n        /* \"hopium/uniswap/main/uniswap-oracle.sol\":12849:12878  IERC20Metadata(t0).decimals() */\n      mload(0x40)\n      dup2\n      0xffffffff\n      and\n      0xe0\n      shl\n      dup2\n      mstore\n      0x04\n      add\n      0x20\n      mload(0x40)\n      dup1\n      dup4\n      sub\n      dup2\n      dup7\n      gas\n      staticcall\n      iszero\n      dup1\n      iszero\n      tag_372\n      jumpi\n      returndatacopy(0x00, 0x00, returndatasize)\n      revert(0x00, returndatasize)\n    tag_372:\n      pop\n      pop\n      pop\n      pop\n      mload(0x40)\n      returndatasize\n      not(0x1f)\n      0x1f\n      dup3\n      add\n      and\n      dup3\n      add\n      dup1\n      0x40\n      mstore\n      pop\n      dup2\n      add\n      swap1\n      tag_373\n      swap2\n      swap1\n      tag_144\n      jump\t// in\n    tag_373:\n        /* \"hopium/uniswap/main/uniswap-oracle.sol\":12896:12904  reserve1 */\n      dup5\n        /* \"hopium/uniswap/main/uniswap-oracle.sol\":12937:12939  t1 */\n      dup11\n        /* \"hopium/uniswap/main/uniswap-oracle.sol\":12922:12949  IERC20Metadata(t1).decimals */\n      0xffffffffffffffffffffffffffffffffffffffff\n      and\n      0x313ce567\n        /* \"hopium/uniswap/main/uniswap-oracle.sol\":12922:12951  IERC20Metadata(t1).decimals() */\n      mload(0x40)\n      dup2\n      0xffffffff\n      and\n      0xe0\n      shl\n      dup2\n      mstore\n      0x04\n      add\n      0x20\n      mload(0x40)\n      dup1\n      dup4\n      sub\n      dup2\n      dup7\n      gas\n      staticcall\n      iszero\n      dup1\n      iszero\n      tag_375\n      jumpi\n      returndatacopy(0x00, 0x00, returndatasize)\n      revert(0x00, returndatasize)\n    tag_375:\n      pop\n      pop\n      pop\n      pop\n      mload(0x40)\n      returndatasize\n      not(0x1f)\n      0x1f\n      dup3\n      add\n      and\n      dup3\n      add\n      dup1\n      0x40\n      mstore\n      pop\n      dup2\n      add\n      swap1\n      tag_376\n      swap2\n      swap1\n      tag_144\n      jump\t// in\n    tag_376:\n        /* \"hopium/uniswap/main/uniswap-oracle.sol\":12969:12985  tokenWethPrice18 */\n      dup6\n        /* \"hopium/uniswap/main/uniswap-oracle.sol\":12787:12805  _calcLiquidityWeth */\n      tag_377\n        /* \"hopium/uniswap/main/uniswap-oracle.sol\":12787:12999  _calcLiquidityWeth(... */\n      jump\t// in\n    tag_370:\n        /* \"hopium/uniswap/main/uniswap-oracle.sol\":12769:12999  wethLiquidity18 = _calcLiquidityWeth(... */\n      swap12\n      pop\n        /* \"hopium/uniswap/main/uniswap-oracle.sol\":12742:13271  if (wethIs0) {... */\n      jump(tag_378)\n    tag_369:\n        /* \"hopium/uniswap/main/uniswap-oracle.sol\":13048:13260  _calcLiquidityWeth(... */\n      tag_379\n        /* \"hopium/uniswap/main/uniswap-oracle.sol\":13084:13092  reserve1 */\n      dup3\n        /* \"hopium/uniswap/main/uniswap-oracle.sol\":13125:13127  t1 */\n      dup9\n        /* \"hopium/uniswap/main/uniswap-oracle.sol\":13110:13137  IERC20Metadata(t1).decimals */\n      0xffffffffffffffffffffffffffffffffffffffff\n      and\n      0x313ce567\n        /* \"hopium/uniswap/main/uniswap-oracle.sol\":13110:13139  IERC20Metadata(t1).decimals() */\n      mload(0x40)\n      dup2\n      0xffffffff\n      and\n      0xe0\n      shl\n      dup2\n      mstore\n      0x04\n      add\n      0x20\n      mload(0x40)\n      dup1\n      dup4\n      sub\n      dup2\n      dup7\n      gas\n      staticcall\n      iszero\n      dup1\n      iszero\n      tag_381\n      jumpi\n      returndatacopy(0x00, 0x00, returndatasize)\n      revert(0x00, returndatasize)\n    tag_381:\n      pop\n      pop\n      pop\n      pop\n      mload(0x40)\n      returndatasize\n      not(0x1f)\n      0x1f\n      dup3\n      add\n      and\n      dup3\n      add\n      dup1\n      0x40\n      mstore\n      pop\n      dup2\n      add\n      swap1\n      tag_382\n      swap2\n      swap1\n      tag_144\n      jump\t// in\n    tag_382:\n        /* \"hopium/uniswap/main/uniswap-oracle.sol\":13157:13165  reserve0 */\n      dup6\n        /* \"hopium/uniswap/main/uniswap-oracle.sol\":13198:13200  t0 */\n      dup12\n        /* \"hopium/uniswap/main/uniswap-oracle.sol\":13183:13210  IERC20Metadata(t0).decimals */\n      0xffffffffffffffffffffffffffffffffffffffff\n      and\n      0x313ce567\n        /* \"hopium/uniswap/main/uniswap-oracle.sol\":13183:13212  IERC20Metadata(t0).decimals() */\n      mload(0x40)\n      dup2\n      0xffffffff\n      and\n      0xe0\n      shl\n      dup2\n      mstore\n      0x04\n      add\n      0x20\n      mload(0x40)\n      dup1\n      dup4\n      sub\n      dup2\n      dup7\n      gas\n      staticcall\n      iszero\n      dup1\n      iszero\n      tag_384\n      jumpi\n      returndatacopy(0x00, 0x00, returndatasize)\n      revert(0x00, returndatasize)\n    tag_384:\n      pop\n      pop\n      pop\n      pop\n      mload(0x40)\n      returndatasize\n      not(0x1f)\n      0x1f\n      dup3\n      add\n      and\n      dup3\n      add\n      dup1\n      0x40\n      mstore\n      pop\n      dup2\n      add\n      swap1\n      tag_385\n      swap2\n      swap1\n      tag_144\n      jump\t// in\n    tag_385:\n        /* \"hopium/uniswap/main/uniswap-oracle.sol\":13230:13246  tokenWethPrice18 */\n      dup6\n        /* \"hopium/uniswap/main/uniswap-oracle.sol\":13048:13066  _calcLiquidityWeth */\n      tag_377\n        /* \"hopium/uniswap/main/uniswap-oracle.sol\":13048:13260  _calcLiquidityWeth(... */\n      jump\t// in\n    tag_379:\n        /* \"hopium/uniswap/main/uniswap-oracle.sol\":13030:13260  wethLiquidity18 = _calcLiquidityWeth(... */\n      swap12\n      pop\n        /* \"hopium/uniswap/main/uniswap-oracle.sol\":12742:13271  if (wethIs0) {... */\n    tag_378:\n        /* \"hopium/uniswap/main/uniswap-oracle.sol\":11983:13277  {... */\n      pop\n      pop\n      pop\n      pop\n      pop\n      pop\n      pop\n      pop\n      pop\n      pop\n      pop\n        /* \"hopium/uniswap/main/uniswap-oracle.sol\":11885:13277  function _getLiquidityWethV3(address poolAddress) internal view returns (uint256 wethLiquidity18) {... */\n      swap2\n      swap1\n      pop\n      jump\t// out\n        /* \"hopium/uniswap/main/uniswap-oracle.sol\":10710:11808  function _getLiquidityWethV2(address poolAddress) internal view returns (uint256 wethLiquidity18) {... */\n    tag_270:\n        /* \"hopium/uniswap/main/uniswap-oracle.sol\":10783:10806  uint256 wethLiquidity18 */\n      0x00\n        /* \"hopium/uniswap/main/uniswap-oracle.sol\":10818:10837  IUniswapV2Pair pool */\n      0x00\n        /* \"hopium/uniswap/main/uniswap-oracle.sol\":10855:10866  poolAddress */\n      dup3\n        /* \"hopium/uniswap/main/uniswap-oracle.sol\":10818:10867  IUniswapV2Pair pool = IUniswapV2Pair(poolAddress) */\n      swap1\n      pop\n        /* \"hopium/uniswap/main/uniswap-oracle.sol\":10878:10888  uint112 r0 */\n      0x00\n        /* \"hopium/uniswap/main/uniswap-oracle.sol\":10890:10900  uint112 r1 */\n      0x00\n        /* \"hopium/uniswap/main/uniswap-oracle.sol\":10906:10910  pool */\n      dup3\n        /* \"hopium/uniswap/main/uniswap-oracle.sol\":10906:10922  pool.getReserves */\n      0xffffffffffffffffffffffffffffffffffffffff\n      and\n      0x0902f1ac\n        /* \"hopium/uniswap/main/uniswap-oracle.sol\":10906:10924  pool.getReserves() */\n      mload(0x40)\n      dup2\n      0xffffffff\n      and\n      0xe0\n      shl\n      dup2\n      mstore\n      0x04\n      add\n      0x60\n      mload(0x40)\n      dup1\n      dup4\n      sub\n      dup2\n      dup7\n      gas\n      staticcall\n      iszero\n      dup1\n      iszero\n      tag_388\n      jumpi\n      returndatacopy(0x00, 0x00, returndatasize)\n      revert(0x00, returndatasize)\n    tag_388:\n      pop\n      pop\n      pop\n      pop\n      mload(0x40)\n      returndatasize\n      not(0x1f)\n      0x1f\n      dup3\n      add\n      and\n      dup3\n      add\n      dup1\n      0x40\n      mstore\n      pop\n      dup2\n      add\n      swap1\n      tag_389\n      swap2\n      swap1\n      tag_231\n      jump\t// in\n    tag_389:\n        /* \"hopium/uniswap/main/uniswap-oracle.sol\":10877:10924  (uint112 r0, uint112 r1, ) = pool.getReserves() */\n      pop\n      swap2\n      pop\n      swap2\n      pop\n        /* \"hopium/uniswap/main/uniswap-oracle.sol\":10944:10945  0 */\n      0x00\n        /* \"hopium/uniswap/main/uniswap-oracle.sol\":10938:10940  r0 */\n      dup3\n        /* \"hopium/uniswap/main/uniswap-oracle.sol\":10938:10945  r0 == 0 */\n      0xffffffffffffffffffffffffffff\n      and\n      eq\n        /* \"hopium/uniswap/main/uniswap-oracle.sol\":10938:10956  r0 == 0 || r1 == 0 */\n      dup1\n      tag_390\n      jumpi\n      pop\n        /* \"hopium/uniswap/main/uniswap-oracle.sol\":10955:10956  0 */\n      0x00\n        /* \"hopium/uniswap/main/uniswap-oracle.sol\":10949:10951  r1 */\n      dup2\n        /* \"hopium/uniswap/main/uniswap-oracle.sol\":10949:10956  r1 == 0 */\n      0xffffffffffffffffffffffffffff\n      and\n      eq\n        /* \"hopium/uniswap/main/uniswap-oracle.sol\":10938:10956  r0 == 0 || r1 == 0 */\n    tag_390:\n        /* \"hopium/uniswap/main/uniswap-oracle.sol\":10934:10980  if (r0 == 0 || r1 == 0) revert EmptyReserves() */\n      iszero\n      tag_391\n      jumpi\n        /* \"hopium/uniswap/main/uniswap-oracle.sol\":10965:10980  EmptyReserves() */\n      mload(0x40)\n      0x8b4a713e00000000000000000000000000000000000000000000000000000000\n      dup2\n      mstore\n      0x04\n      add\n      mload(0x40)\n      dup1\n      swap2\n      sub\n      swap1\n      revert\n        /* \"hopium/uniswap/main/uniswap-oracle.sol\":10934:10980  if (r0 == 0 || r1 == 0) revert EmptyReserves() */\n    tag_391:\n        /* \"hopium/uniswap/main/uniswap-oracle.sol\":10991:11001  address t0 */\n      0x00\n        /* \"hopium/uniswap/main/uniswap-oracle.sol\":11004:11008  pool */\n      dup4\n        /* \"hopium/uniswap/main/uniswap-oracle.sol\":11004:11015  pool.token0 */\n      0xffffffffffffffffffffffffffffffffffffffff\n      and\n      0x0dfe1681\n        /* \"hopium/uniswap/main/uniswap-oracle.sol\":11004:11017  pool.token0() */\n      mload(0x40)\n      dup2\n      0xffffffff\n      and\n      0xe0\n      shl\n      dup2\n      mstore\n      0x04\n      add\n      0x20\n      mload(0x40)\n      dup1\n      dup4\n      sub\n      dup2\n      dup7\n      gas\n      staticcall\n      iszero\n      dup1\n      iszero\n      tag_393\n      jumpi\n      returndatacopy(0x00, 0x00, returndatasize)\n      revert(0x00, returndatasize)\n    tag_393:\n      pop\n      pop\n      pop\n      pop\n      mload(0x40)\n      returndatasize\n      not(0x1f)\n      0x1f\n      dup3\n      add\n      and\n      dup3\n      add\n      dup1\n      0x40\n      mstore\n      pop\n      dup2\n      add\n      swap1\n      tag_394\n      swap2\n      swap1\n      tag_117\n      jump\t// in\n    tag_394:\n        /* \"hopium/uniswap/main/uniswap-oracle.sol\":10991:11017  address t0 = pool.token0() */\n      swap1\n      pop\n        /* \"hopium/uniswap/main/uniswap-oracle.sol\":11027:11037  address t1 */\n      0x00\n        /* \"hopium/uniswap/main/uniswap-oracle.sol\":11040:11044  pool */\n      dup5\n        /* \"hopium/uniswap/main/uniswap-oracle.sol\":11040:11051  pool.token1 */\n      0xffffffffffffffffffffffffffffffffffffffff\n      and\n      0xd21220a7\n        /* \"hopium/uniswap/main/uniswap-oracle.sol\":11040:11053  pool.token1() */\n      mload(0x40)\n      dup2\n      0xffffffff\n      and\n      0xe0\n      shl\n      dup2\n      mstore\n      0x04\n      add\n      0x20\n      mload(0x40)\n      dup1\n      dup4\n      sub\n      dup2\n      dup7\n      gas\n      staticcall\n      iszero\n      dup1\n      iszero\n      tag_396\n      jumpi\n      returndatacopy(0x00, 0x00, returndatasize)\n      revert(0x00, returndatasize)\n    tag_396:\n      pop\n      pop\n      pop\n      pop\n      mload(0x40)\n      returndatasize\n      not(0x1f)\n      0x1f\n      dup3\n      add\n      and\n      dup3\n      add\n      dup1\n      0x40\n      mstore\n      pop\n      dup2\n      add\n      swap1\n      tag_397\n      swap2\n      swap1\n      tag_117\n      jump\t// in\n    tag_397:\n        /* \"hopium/uniswap/main/uniswap-oracle.sol\":11027:11053  address t1 = pool.token1() */\n      swap1\n      pop\n        /* \"hopium/uniswap/main/uniswap-oracle.sol\":11063:11075  bool wethIs0 */\n      0x00\n        /* \"hopium/uniswap/main/uniswap-oracle.sol\":11085:11097  WETH_ADDRESS */\n      immutable(\"0x06dc925f7e0472030ab837bf4003aff8a140fea172ce25164bd1dc54959e1c1f\")\n        /* \"hopium/uniswap/main/uniswap-oracle.sol\":11079:11097  t0 == WETH_ADDRESS */\n      0xffffffffffffffffffffffffffffffffffffffff\n      and\n        /* \"hopium/uniswap/main/uniswap-oracle.sol\":11079:11081  t0 */\n      dup4\n        /* \"hopium/uniswap/main/uniswap-oracle.sol\":11079:11097  t0 == WETH_ADDRESS */\n      0xffffffffffffffffffffffffffffffffffffffff\n      and\n      eq\n        /* \"hopium/uniswap/main/uniswap-oracle.sol\":11063:11098  bool wethIs0 = (t0 == WETH_ADDRESS) */\n      swap1\n      pop\n        /* \"hopium/uniswap/main/uniswap-oracle.sol\":11108:11120  bool wethIs1 */\n      0x00\n        /* \"hopium/uniswap/main/uniswap-oracle.sol\":11130:11142  WETH_ADDRESS */\n      immutable(\"0x06dc925f7e0472030ab837bf4003aff8a140fea172ce25164bd1dc54959e1c1f\")\n        /* \"hopium/uniswap/main/uniswap-oracle.sol\":11124:11142  t1 == WETH_ADDRESS */\n      0xffffffffffffffffffffffffffffffffffffffff\n      and\n        /* \"hopium/uniswap/main/uniswap-oracle.sol\":11124:11126  t1 */\n      dup4\n        /* \"hopium/uniswap/main/uniswap-oracle.sol\":11124:11142  t1 == WETH_ADDRESS */\n      0xffffffffffffffffffffffffffffffffffffffff\n      and\n      eq\n        /* \"hopium/uniswap/main/uniswap-oracle.sol\":11108:11143  bool wethIs1 = (t1 == WETH_ADDRESS) */\n      swap1\n      pop\n        /* \"hopium/uniswap/main/uniswap-oracle.sol\":11159:11166  wethIs0 */\n      dup2\n        /* \"hopium/uniswap/main/uniswap-oracle.sol\":11159:11177  wethIs0 || wethIs1 */\n      dup1\n      tag_398\n      jumpi\n      pop\n        /* \"hopium/uniswap/main/uniswap-oracle.sol\":11170:11177  wethIs1 */\n      dup1\n        /* \"hopium/uniswap/main/uniswap-oracle.sol\":11159:11177  wethIs0 || wethIs1 */\n    tag_398:\n        /* \"hopium/uniswap/main/uniswap-oracle.sol\":11153:11200  if (!(wethIs0 || wethIs1)) revert NotBasePool() */\n      tag_399\n      jumpi\n        /* \"hopium/uniswap/main/uniswap-oracle.sol\":11187:11200  NotBasePool() */\n      mload(0x40)\n      0xb0d73dc900000000000000000000000000000000000000000000000000000000\n      dup2\n      mstore\n      0x04\n      add\n      mload(0x40)\n      dup1\n      swap2\n      sub\n      swap1\n      revert\n        /* \"hopium/uniswap/main/uniswap-oracle.sol\":11153:11200  if (!(wethIs0 || wethIs1)) revert NotBasePool() */\n    tag_399:\n        /* \"hopium/uniswap/main/uniswap-oracle.sol\":11211:11235  uint256 tokenWethPrice18 */\n      0x00\n        /* \"hopium/uniswap/main/uniswap-oracle.sol\":11238:11286  _getTokenPrice(poolAddress, false, WETH_ADDRESS) */\n      tag_400\n        /* \"hopium/uniswap/main/uniswap-oracle.sol\":11253:11264  poolAddress */\n      dup11\n        /* \"hopium/uniswap/main/uniswap-oracle.sol\":11266:11271  false */\n      0x00\n        /* \"hopium/uniswap/main/uniswap-oracle.sol\":11273:11285  WETH_ADDRESS */\n      immutable(\"0x06dc925f7e0472030ab837bf4003aff8a140fea172ce25164bd1dc54959e1c1f\")\n        /* \"hopium/uniswap/main/uniswap-oracle.sol\":11238:11252  _getTokenPrice */\n      tag_198\n        /* \"hopium/uniswap/main/uniswap-oracle.sol\":11238:11286  _getTokenPrice(poolAddress, false, WETH_ADDRESS) */\n      jump\t// in\n    tag_400:\n        /* \"hopium/uniswap/main/uniswap-oracle.sol\":11211:11286  uint256 tokenWethPrice18 = _getTokenPrice(poolAddress, false, WETH_ADDRESS) */\n      swap1\n      pop\n        /* \"hopium/uniswap/main/uniswap-oracle.sol\":11301:11308  wethIs0 */\n      dup3\n        /* \"hopium/uniswap/main/uniswap-oracle.sol\":11297:11802  if (wethIs0) {... */\n      iszero\n      tag_401\n      jumpi\n        /* \"hopium/uniswap/main/uniswap-oracle.sol\":11342:11542  _calcLiquidityWeth(... */\n      tag_402\n        /* \"hopium/uniswap/main/uniswap-oracle.sol\":11378:11380  r0 */\n      dup8\n        /* \"hopium/uniswap/main/uniswap-oracle.sol\":11342:11542  _calcLiquidityWeth(... */\n      0xffffffffffffffffffffffffffff\n      and\n        /* \"hopium/uniswap/main/uniswap-oracle.sol\":11413:11415  t0 */\n      dup7\n        /* \"hopium/uniswap/main/uniswap-oracle.sol\":11398:11425  IERC20Metadata(t0).decimals */\n      0xffffffffffffffffffffffffffffffffffffffff\n      and\n      0x313ce567\n        /* \"hopium/uniswap/main/uniswap-oracle.sol\":11398:11427  IERC20Metadata(t0).decimals() */\n      mload(0x40)\n      dup2\n      0xffffffff\n      and\n      0xe0\n      shl\n      dup2\n      mstore\n      0x04\n      add\n      0x20\n      mload(0x40)\n      dup1\n      dup4\n      sub\n      dup2\n      dup7\n      gas\n      staticcall\n      iszero\n      dup1\n      iszero\n      tag_404\n      jumpi\n      returndatacopy(0x00, 0x00, returndatasize)\n      revert(0x00, returndatasize)\n    tag_404:\n      pop\n      pop\n      pop\n      pop\n      mload(0x40)\n      returndatasize\n      not(0x1f)\n      0x1f\n      dup3\n      add\n      and\n      dup3\n      add\n      dup1\n      0x40\n      mstore\n      pop\n      dup2\n      add\n      swap1\n      tag_405\n      swap2\n      swap1\n      tag_144\n      jump\t// in\n    tag_405:\n        /* \"hopium/uniswap/main/uniswap-oracle.sol\":11445:11447  r1 */\n      dup9\n        /* \"hopium/uniswap/main/uniswap-oracle.sol\":11342:11542  _calcLiquidityWeth(... */\n      0xffffffffffffffffffffffffffff\n      and\n        /* \"hopium/uniswap/main/uniswap-oracle.sol\":11480:11482  t1 */\n      dup8\n        /* \"hopium/uniswap/main/uniswap-oracle.sol\":11465:11492  IERC20Metadata(t1).decimals */\n      0xffffffffffffffffffffffffffffffffffffffff\n      and\n      0x313ce567\n        /* \"hopium/uniswap/main/uniswap-oracle.sol\":11465:11494  IERC20Metadata(t1).decimals() */\n      mload(0x40)\n      dup2\n      0xffffffff\n      and\n      0xe0\n      shl\n      dup2\n      mstore\n      0x04\n      add\n      0x20\n      mload(0x40)\n      dup1\n      dup4\n      sub\n      dup2\n      dup7\n      gas\n      staticcall\n      iszero\n      dup1\n      iszero\n      tag_407\n      jumpi\n      returndatacopy(0x00, 0x00, returndatasize)\n      revert(0x00, returndatasize)\n    tag_407:\n      pop\n      pop\n      pop\n      pop\n      mload(0x40)\n      returndatasize\n      not(0x1f)\n      0x1f\n      dup3\n      add\n      and\n      dup3\n      add\n      dup1\n      0x40\n      mstore\n      pop\n      dup2\n      add\n      swap1\n      tag_408\n      swap2\n      swap1\n      tag_144\n      jump\t// in\n    tag_408:\n        /* \"hopium/uniswap/main/uniswap-oracle.sol\":11512:11528  tokenWethPrice18 */\n      dup6\n        /* \"hopium/uniswap/main/uniswap-oracle.sol\":11342:11360  _calcLiquidityWeth */\n      tag_377\n        /* \"hopium/uniswap/main/uniswap-oracle.sol\":11342:11542  _calcLiquidityWeth(... */\n      jump\t// in\n    tag_402:\n        /* \"hopium/uniswap/main/uniswap-oracle.sol\":11324:11542  wethLiquidity18 = _calcLiquidityWeth(... */\n      swap9\n      pop\n        /* \"hopium/uniswap/main/uniswap-oracle.sol\":11297:11802  if (wethIs0) {... */\n      jump(tag_409)\n    tag_401:\n        /* \"hopium/uniswap/main/uniswap-oracle.sol\":11591:11791  _calcLiquidityWeth(... */\n      tag_410\n        /* \"hopium/uniswap/main/uniswap-oracle.sol\":11627:11629  r1 */\n      dup7\n        /* \"hopium/uniswap/main/uniswap-oracle.sol\":11591:11791  _calcLiquidityWeth(... */\n      0xffffffffffffffffffffffffffff\n      and\n        /* \"hopium/uniswap/main/uniswap-oracle.sol\":11662:11664  t1 */\n      dup6\n        /* \"hopium/uniswap/main/uniswap-oracle.sol\":11647:11674  IERC20Metadata(t1).decimals */\n      0xffffffffffffffffffffffffffffffffffffffff\n      and\n      0x313ce567\n        /* \"hopium/uniswap/main/uniswap-oracle.sol\":11647:11676  IERC20Metadata(t1).decimals() */\n      mload(0x40)\n      dup2\n      0xffffffff\n      and\n      0xe0\n      shl\n      dup2\n      mstore\n      0x04\n      add\n      0x20\n      mload(0x40)\n      dup1\n      dup4\n      sub\n      dup2\n      dup7\n      gas\n      staticcall\n      iszero\n      dup1\n      iszero\n      tag_412\n      jumpi\n      returndatacopy(0x00, 0x00, returndatasize)\n      revert(0x00, returndatasize)\n    tag_412:\n      pop\n      pop\n      pop\n      pop\n      mload(0x40)\n      returndatasize\n      not(0x1f)\n      0x1f\n      dup3\n      add\n      and\n      dup3\n      add\n      dup1\n      0x40\n      mstore\n      pop\n      dup2\n      add\n      swap1\n      tag_413\n      swap2\n      swap1\n      tag_144\n      jump\t// in\n    tag_413:\n        /* \"hopium/uniswap/main/uniswap-oracle.sol\":11694:11696  r0 */\n      dup10\n        /* \"hopium/uniswap/main/uniswap-oracle.sol\":11591:11791  _calcLiquidityWeth(... */\n      0xffffffffffffffffffffffffffff\n      and\n        /* \"hopium/uniswap/main/uniswap-oracle.sol\":11729:11731  t0 */\n      dup9\n        /* \"hopium/uniswap/main/uniswap-oracle.sol\":11714:11741  IERC20Metadata(t0).decimals */\n      0xffffffffffffffffffffffffffffffffffffffff\n      and\n      0x313ce567\n        /* \"hopium/uniswap/main/uniswap-oracle.sol\":11714:11743  IERC20Metadata(t0).decimals() */\n      mload(0x40)\n      dup2\n      0xffffffff\n      and\n      0xe0\n      shl\n      dup2\n      mstore\n      0x04\n      add\n      0x20\n      mload(0x40)\n      dup1\n      dup4\n      sub\n      dup2\n      dup7\n      gas\n      staticcall\n      iszero\n      dup1\n      iszero\n      tag_415\n      jumpi\n      returndatacopy(0x00, 0x00, returndatasize)\n      revert(0x00, returndatasize)\n    tag_415:\n      pop\n      pop\n      pop\n      pop\n      mload(0x40)\n      returndatasize\n      not(0x1f)\n      0x1f\n      dup3\n      add\n      and\n      dup3\n      add\n      dup1\n      0x40\n      mstore\n      pop\n      dup2\n      add\n      swap1\n      tag_416\n      swap2\n      swap1\n      tag_144\n      jump\t// in\n    tag_416:\n        /* \"hopium/uniswap/main/uniswap-oracle.sol\":11761:11777  tokenWethPrice18 */\n      dup6\n        /* \"hopium/uniswap/main/uniswap-oracle.sol\":11591:11609  _calcLiquidityWeth */\n      tag_377\n        /* \"hopium/uniswap/main/uniswap-oracle.sol\":11591:11791  _calcLiquidityWeth(... */\n      jump\t// in\n    tag_410:\n        /* \"hopium/uniswap/main/uniswap-oracle.sol\":11573:11791  wethLiquidity18 = _calcLiquidityWeth(... */\n      swap9\n      pop\n        /* \"hopium/uniswap/main/uniswap-oracle.sol\":11297:11802  if (wethIs0) {... */\n    tag_409:\n        /* \"hopium/uniswap/main/uniswap-oracle.sol\":10808:11808  {... */\n      pop\n      pop\n      pop\n      pop\n      pop\n      pop\n      pop\n      pop\n        /* \"hopium/uniswap/main/uniswap-oracle.sol\":10710:11808  function _getLiquidityWethV2(address poolAddress) internal view returns (uint256 wethLiquidity18) {... */\n      swap2\n      swap1\n      pop\n      jump\t// out\n        /* \"hopium/uniswap/main/uniswap-oracle.sol\":10134:10633  function _calcLiquidityWeth(... */\n    tag_377:\n        /* \"hopium/uniswap/main/uniswap-oracle.sol\":10331:10354  uint256 wethLiquidity18 */\n      0x00\n        /* \"hopium/uniswap/main/uniswap-oracle.sol\":10366:10383  uint256 wethRes18 */\n      0x00\n        /* \"hopium/uniswap/main/uniswap-oracle.sol\":10386:10420  _scaleTo1e18(wethReserve, wethDec) */\n      tag_418\n        /* \"hopium/uniswap/main/uniswap-oracle.sol\":10399:10410  wethReserve */\n      dup8\n        /* \"hopium/uniswap/main/uniswap-oracle.sol\":10412:10419  wethDec */\n      dup8\n        /* \"hopium/uniswap/main/uniswap-oracle.sol\":10386:10398  _scaleTo1e18 */\n      tag_183\n        /* \"hopium/uniswap/main/uniswap-oracle.sol\":10386:10420  _scaleTo1e18(wethReserve, wethDec) */\n      jump\t// in\n    tag_418:\n        /* \"hopium/uniswap/main/uniswap-oracle.sol\":10366:10420  uint256 wethRes18 = _scaleTo1e18(wethReserve, wethDec) */\n      swap1\n      pop\n        /* \"hopium/uniswap/main/uniswap-oracle.sol\":10430:10448  uint256 tokenRes18 */\n      0x00\n        /* \"hopium/uniswap/main/uniswap-oracle.sol\":10451:10487  _scaleTo1e18(tokenReserve, tokenDec) */\n      tag_419\n        /* \"hopium/uniswap/main/uniswap-oracle.sol\":10464:10476  tokenReserve */\n      dup7\n        /* \"hopium/uniswap/main/uniswap-oracle.sol\":10478:10486  tokenDec */\n      dup7\n        /* \"hopium/uniswap/main/uniswap-oracle.sol\":10451:10463  _scaleTo1e18 */\n      tag_183\n        /* \"hopium/uniswap/main/uniswap-oracle.sol\":10451:10487  _scaleTo1e18(tokenReserve, tokenDec) */\n      jump\t// in\n    tag_419:\n        /* \"hopium/uniswap/main/uniswap-oracle.sol\":10430:10487  uint256 tokenRes18 = _scaleTo1e18(tokenReserve, tokenDec) */\n      swap1\n      pop\n        /* \"hopium/uniswap/main/uniswap-oracle.sol\":10497:10519  uint256 tokenValueWeth */\n      0x00\n        /* \"hopium/uniswap/main/uniswap-oracle.sol\":10522:10572  FullMath.mulDiv(tokenRes18, tokenWethPrice18, WAD) */\n      tag_420\n        /* \"hopium/uniswap/main/uniswap-oracle.sol\":10538:10548  tokenRes18 */\n      dup3\n        /* \"hopium/uniswap/main/uniswap-oracle.sol\":10550:10566  tokenWethPrice18 */\n      dup7\n        /* \"hopium/uniswap/main/uniswap-oracle.sol\":1518:1522  1e18 */\n      0x0de0b6b3a7640000\n        /* \"hopium/uniswap/main/uniswap-oracle.sol\":10522:10537  FullMath.mulDiv */\n      tag_139\n        /* \"hopium/uniswap/main/uniswap-oracle.sol\":10522:10572  FullMath.mulDiv(tokenRes18, tokenWethPrice18, WAD) */\n      jump\t// in\n    tag_420:\n        /* \"hopium/uniswap/main/uniswap-oracle.sol\":10497:10572  uint256 tokenValueWeth = FullMath.mulDiv(tokenRes18, tokenWethPrice18, WAD) */\n      swap1\n      pop\n        /* \"hopium/uniswap/main/uniswap-oracle.sol\":10612:10626  tokenValueWeth */\n      dup1\n        /* \"hopium/uniswap/main/uniswap-oracle.sol\":10600:10609  wethRes18 */\n      dup4\n        /* \"hopium/uniswap/main/uniswap-oracle.sol\":10600:10626  wethRes18 + tokenValueWeth */\n      tag_421\n      swap2\n      swap1\n      tag_422\n      jump\t// in\n    tag_421:\n        /* \"hopium/uniswap/main/uniswap-oracle.sol\":10582:10626  wethLiquidity18 = wethRes18 + tokenValueWeth */\n      swap4\n      pop\n        /* \"hopium/uniswap/main/uniswap-oracle.sol\":10356:10633  {... */\n      pop\n      pop\n      pop\n        /* \"hopium/uniswap/main/uniswap-oracle.sol\":10134:10633  function _calcLiquidityWeth(... */\n      swap6\n      swap5\n      pop\n      pop\n      pop\n      pop\n      pop\n      jump\t// out\n        /* \"#utility.yul\":7:82   */\n    tag_423:\n        /* \"#utility.yul\":40:46   */\n      0x00\n        /* \"#utility.yul\":73:75   */\n      0x40\n        /* \"#utility.yul\":67:76   */\n      mload\n        /* \"#utility.yul\":57:76   */\n      swap1\n      pop\n        /* \"#utility.yul\":7:82   */\n      swap1\n      jump\t// out\n        /* \"#utility.yul\":88:205   */\n    tag_424:\n        /* \"#utility.yul\":197:198   */\n      0x00\n        /* \"#utility.yul\":194:195   */\n      0x00\n        /* \"#utility.yul\":187:199   */\n      revert\n        /* \"#utility.yul\":211:328   */\n    tag_425:\n        /* \"#utility.yul\":320:321   */\n      0x00\n        /* \"#utility.yul\":317:318   */\n      0x00\n        /* \"#utility.yul\":310:322   */\n      revert\n        /* \"#utility.yul\":334:460   */\n    tag_426:\n        /* \"#utility.yul\":371:378   */\n      0x00\n        /* \"#utility.yul\":411:453   */\n      0xffffffffffffffffffffffffffffffffffffffff\n        /* \"#utility.yul\":404:409   */\n      dup3\n        /* \"#utility.yul\":400:454   */\n      and\n        /* \"#utility.yul\":389:454   */\n      swap1\n      pop\n        /* \"#utility.yul\":334:460   */\n      swap2\n      swap1\n      pop\n      jump\t// out\n        /* \"#utility.yul\":466:562   */\n    tag_427:\n        /* \"#utility.yul\":503:510   */\n      0x00\n        /* \"#utility.yul\":532:556   */\n      tag_506\n        /* \"#utility.yul\":550:555   */\n      dup3\n        /* \"#utility.yul\":532:556   */\n      tag_426\n      jump\t// in\n    tag_506:\n        /* \"#utility.yul\":521:556   */\n      swap1\n      pop\n        /* \"#utility.yul\":466:562   */\n      swap2\n      swap1\n      pop\n      jump\t// out\n        /* \"#utility.yul\":568:690   */\n    tag_428:\n        /* \"#utility.yul\":641:665   */\n      tag_508\n        /* \"#utility.yul\":659:664   */\n      dup2\n        /* \"#utility.yul\":641:665   */\n      tag_427\n      jump\t// in\n    tag_508:\n        /* \"#utility.yul\":634:639   */\n      dup2\n        /* \"#utility.yul\":631:666   */\n      eq\n        /* \"#utility.yul\":621:684   */\n      tag_509\n      jumpi\n        /* \"#utility.yul\":680:681   */\n      0x00\n        /* \"#utility.yul\":677:678   */\n      0x00\n        /* \"#utility.yul\":670:682   */\n      revert\n        /* \"#utility.yul\":621:684   */\n    tag_509:\n        /* \"#utility.yul\":568:690   */\n      pop\n      jump\t// out\n        /* \"#utility.yul\":696:835   */\n    tag_429:\n        /* \"#utility.yul\":742:747   */\n      0x00\n        /* \"#utility.yul\":780:786   */\n      dup2\n        /* \"#utility.yul\":767:787   */\n      calldataload\n        /* \"#utility.yul\":758:787   */\n      swap1\n      pop\n        /* \"#utility.yul\":796:829   */\n      tag_511\n        /* \"#utility.yul\":823:828   */\n      dup2\n        /* \"#utility.yul\":796:829   */\n      tag_428\n      jump\t// in\n    tag_511:\n        /* \"#utility.yul\":696:835   */\n      swap3\n      swap2\n      pop\n      pop\n      jump\t// out\n        /* \"#utility.yul\":841:1170   */\n    tag_28:\n        /* \"#utility.yul\":900:906   */\n      0x00\n        /* \"#utility.yul\":949:951   */\n      0x20\n        /* \"#utility.yul\":937:946   */\n      dup3\n        /* \"#utility.yul\":928:935   */\n      dup5\n        /* \"#utility.yul\":924:947   */\n      sub\n        /* \"#utility.yul\":920:952   */\n      slt\n        /* \"#utility.yul\":917:1036   */\n      iszero\n      tag_513\n      jumpi\n        /* \"#utility.yul\":955:1034   */\n      tag_514\n      tag_424\n      jump\t// in\n    tag_514:\n        /* \"#utility.yul\":917:1036   */\n    tag_513:\n        /* \"#utility.yul\":1075:1076   */\n      0x00\n        /* \"#utility.yul\":1100:1153   */\n      tag_515\n        /* \"#utility.yul\":1145:1152   */\n      dup5\n        /* \"#utility.yul\":1136:1142   */\n      dup3\n        /* \"#utility.yul\":1125:1134   */\n      dup6\n        /* \"#utility.yul\":1121:1143   */\n      add\n        /* \"#utility.yul\":1100:1153   */\n      tag_429\n      jump\t// in\n    tag_515:\n        /* \"#utility.yul\":1090:1153   */\n      swap2\n      pop\n        /* \"#utility.yul\":1046:1163   */\n      pop\n        /* \"#utility.yul\":841:1170   */\n      swap3\n      swap2\n      pop\n      pop\n      jump\t// out\n        /* \"#utility.yul\":1176:1253   */\n    tag_430:\n        /* \"#utility.yul\":1213:1220   */\n      0x00\n        /* \"#utility.yul\":1242:1247   */\n      dup2\n        /* \"#utility.yul\":1231:1247   */\n      swap1\n      pop\n        /* \"#utility.yul\":1176:1253   */\n      swap2\n      swap1\n      pop\n      jump\t// out\n        /* \"#utility.yul\":1259:1377   */\n    tag_431:\n        /* \"#utility.yul\":1346:1370   */\n      tag_518\n        /* \"#utility.yul\":1364:1369   */\n      dup2\n        /* \"#utility.yul\":1346:1370   */\n      tag_430\n      jump\t// in\n    tag_518:\n        /* \"#utility.yul\":1341:1344   */\n      dup3\n        /* \"#utility.yul\":1334:1371   */\n      mstore\n        /* \"#utility.yul\":1259:1377   */\n      pop\n      pop\n      jump\t// out\n        /* \"#utility.yul\":1383:1605   */\n    tag_31:\n        /* \"#utility.yul\":1476:1480   */\n      0x00\n        /* \"#utility.yul\":1514:1516   */\n      0x20\n        /* \"#utility.yul\":1503:1512   */\n      dup3\n        /* \"#utility.yul\":1499:1517   */\n      add\n        /* \"#utility.yul\":1491:1517   */\n      swap1\n      pop\n        /* \"#utility.yul\":1527:1598   */\n      tag_520\n        /* \"#utility.yul\":1595:1596   */\n      0x00\n        /* \"#utility.yul\":1584:1593   */\n      dup4\n        /* \"#utility.yul\":1580:1597   */\n      add\n        /* \"#utility.yul\":1571:1577   */\n      dup5\n        /* \"#utility.yul\":1527:1598   */\n      tag_431\n      jump\t// in\n    tag_520:\n        /* \"#utility.yul\":1383:1605   */\n      swap3\n      swap2\n      pop\n      pop\n      jump\t// out\n        /* \"#utility.yul\":1611:1729   */\n    tag_432:\n        /* \"#utility.yul\":1698:1722   */\n      tag_522\n        /* \"#utility.yul\":1716:1721   */\n      dup2\n        /* \"#utility.yul\":1698:1722   */\n      tag_427\n      jump\t// in\n    tag_522:\n        /* \"#utility.yul\":1693:1696   */\n      dup3\n        /* \"#utility.yul\":1686:1723   */\n      mstore\n        /* \"#utility.yul\":1611:1729   */\n      pop\n      pop\n      jump\t// out\n        /* \"#utility.yul\":1735:1957   */\n    tag_35:\n        /* \"#utility.yul\":1828:1832   */\n      0x00\n        /* \"#utility.yul\":1866:1868   */\n      0x20\n        /* \"#utility.yul\":1855:1864   */\n      dup3\n        /* \"#utility.yul\":1851:1869   */\n      add\n        /* \"#utility.yul\":1843:1869   */\n      swap1\n      pop\n        /* \"#utility.yul\":1879:1950   */\n      tag_524\n        /* \"#utility.yul\":1947:1948   */\n      0x00\n        /* \"#utility.yul\":1936:1945   */\n      dup4\n        /* \"#utility.yul\":1932:1949   */\n      add\n        /* \"#utility.yul\":1923:1929   */\n      dup5\n        /* \"#utility.yul\":1879:1950   */\n      tag_432\n      jump\t// in\n    tag_524:\n        /* \"#utility.yul\":1735:1957   */\n      swap3\n      swap2\n      pop\n      pop\n      jump\t// out\n        /* \"#utility.yul\":1963:2080   */\n    tag_433:\n        /* \"#utility.yul\":2072:2073   */\n      0x00\n        /* \"#utility.yul\":2069:2070   */\n      0x00\n        /* \"#utility.yul\":2062:2074   */\n      revert\n        /* \"#utility.yul\":2086:2203   */\n    tag_434:\n        /* \"#utility.yul\":2195:2196   */\n      0x00\n        /* \"#utility.yul\":2192:2193   */\n      0x00\n        /* \"#utility.yul\":2185:2197   */\n      revert\n        /* \"#utility.yul\":2209:2311   */\n    tag_435:\n        /* \"#utility.yul\":2250:2256   */\n      0x00\n        /* \"#utility.yul\":2301:2303   */\n      0x1f\n        /* \"#utility.yul\":2297:2304   */\n      not\n        /* \"#utility.yul\":2292:2294   */\n      0x1f\n        /* \"#utility.yul\":2285:2290   */\n      dup4\n        /* \"#utility.yul\":2281:2295   */\n      add\n        /* \"#utility.yul\":2277:2305   */\n      and\n        /* \"#utility.yul\":2267:2305   */\n      swap1\n      pop\n        /* \"#utility.yul\":2209:2311   */\n      swap2\n      swap1\n      pop\n      jump\t// out\n        /* \"#utility.yul\":2317:2497   */\n    tag_436:\n        /* \"#utility.yul\":2365:2442   */\n      0x4e487b7100000000000000000000000000000000000000000000000000000000\n        /* \"#utility.yul\":2362:2363   */\n      0x00\n        /* \"#utility.yul\":2355:2443   */\n      mstore\n        /* \"#utility.yul\":2462:2466   */\n      0x41\n        /* \"#utility.yul\":2459:2460   */\n      0x04\n        /* \"#utility.yul\":2452:2467   */\n      mstore\n        /* \"#utility.yul\":2486:2490   */\n      0x24\n        /* \"#utility.yul\":2483:2484   */\n      0x00\n        /* \"#utility.yul\":2476:2491   */\n      revert\n        /* \"#utility.yul\":2503:2784   */\n    tag_437:\n        /* \"#utility.yul\":2586:2613   */\n      tag_530\n        /* \"#utility.yul\":2608:2612   */\n      dup3\n        /* \"#utility.yul\":2586:2613   */\n      tag_435\n      jump\t// in\n    tag_530:\n        /* \"#utility.yul\":2578:2584   */\n      dup2\n        /* \"#utility.yul\":2574:2614   */\n      add\n        /* \"#utility.yul\":2716:2722   */\n      dup2\n        /* \"#utility.yul\":2704:2714   */\n      dup2\n        /* \"#utility.yul\":2701:2723   */\n      lt\n        /* \"#utility.yul\":2680:2698   */\n      0xffffffffffffffff\n        /* \"#utility.yul\":2668:2678   */\n      dup3\n        /* \"#utility.yul\":2665:2699   */\n      gt\n        /* \"#utility.yul\":2662:2724   */\n      or\n        /* \"#utility.yul\":2659:2747   */\n      iszero\n      tag_531\n      jumpi\n        /* \"#utility.yul\":2727:2745   */\n      tag_532\n      tag_436\n      jump\t// in\n    tag_532:\n        /* \"#utility.yul\":2659:2747   */\n    tag_531:\n        /* \"#utility.yul\":2767:2777   */\n      dup1\n        /* \"#utility.yul\":2763:2765   */\n      0x40\n        /* \"#utility.yul\":2756:2778   */\n      mstore\n        /* \"#utility.yul\":2546:2784   */\n      pop\n        /* \"#utility.yul\":2503:2784   */\n      pop\n      pop\n      jump\t// out\n        /* \"#utility.yul\":2790:2919   */\n    tag_438:\n        /* \"#utility.yul\":2824:2830   */\n      0x00\n        /* \"#utility.yul\":2851:2871   */\n      tag_534\n      tag_423\n      jump\t// in\n    tag_534:\n        /* \"#utility.yul\":2841:2871   */\n      swap1\n      pop\n        /* \"#utility.yul\":2880:2913   */\n      tag_535\n        /* \"#utility.yul\":2908:2912   */\n      dup3\n        /* \"#utility.yul\":2900:2906   */\n      dup3\n        /* \"#utility.yul\":2880:2913   */\n      tag_437\n      jump\t// in\n    tag_535:\n        /* \"#utility.yul\":2790:2919   */\n      swap2\n      swap1\n      pop\n      jump\t// out\n        /* \"#utility.yul\":2925:3233   */\n    tag_439:\n        /* \"#utility.yul\":2987:2991   */\n      0x00\n        /* \"#utility.yul\":3077:3095   */\n      0xffffffffffffffff\n        /* \"#utility.yul\":3069:3075   */\n      dup3\n        /* \"#utility.yul\":3066:3096   */\n      gt\n        /* \"#utility.yul\":3063:3119   */\n      iszero\n      tag_537\n      jumpi\n        /* \"#utility.yul\":3099:3117   */\n      tag_538\n      tag_436\n      jump\t// in\n    tag_538:\n        /* \"#utility.yul\":3063:3119   */\n    tag_537:\n        /* \"#utility.yul\":3137:3166   */\n      tag_539\n        /* \"#utility.yul\":3159:3165   */\n      dup3\n        /* \"#utility.yul\":3137:3166   */\n      tag_435\n      jump\t// in\n    tag_539:\n        /* \"#utility.yul\":3129:3166   */\n      swap1\n      pop\n        /* \"#utility.yul\":3221:3225   */\n      0x20\n        /* \"#utility.yul\":3215:3219   */\n      dup2\n        /* \"#utility.yul\":3211:3226   */\n      add\n        /* \"#utility.yul\":3203:3226   */\n      swap1\n      pop\n        /* \"#utility.yul\":2925:3233   */\n      swap2\n      swap1\n      pop\n      jump\t// out\n        /* \"#utility.yul\":3239:3387   */\n    tag_440:\n        /* \"#utility.yul\":3337:3343   */\n      dup3\n        /* \"#utility.yul\":3332:3335   */\n      dup2\n        /* \"#utility.yul\":3327:3330   */\n      dup4\n        /* \"#utility.yul\":3314:3344   */\n      calldatacopy\n        /* \"#utility.yul\":3378:3379   */\n      0x00\n        /* \"#utility.yul\":3369:3375   */\n      dup4\n        /* \"#utility.yul\":3364:3367   */\n      dup4\n        /* \"#utility.yul\":3360:3376   */\n      add\n        /* \"#utility.yul\":3353:3380   */\n      mstore\n        /* \"#utility.yul\":3239:3387   */\n      pop\n      pop\n      pop\n      jump\t// out\n        /* \"#utility.yul\":3393:3818   */\n    tag_441:\n        /* \"#utility.yul\":3471:3476   */\n      0x00\n        /* \"#utility.yul\":3496:3562   */\n      tag_542\n        /* \"#utility.yul\":3512:3561   */\n      tag_543\n        /* \"#utility.yul\":3554:3560   */\n      dup5\n        /* \"#utility.yul\":3512:3561   */\n      tag_439\n      jump\t// in\n    tag_543:\n        /* \"#utility.yul\":3496:3562   */\n      tag_438\n      jump\t// in\n    tag_542:\n        /* \"#utility.yul\":3487:3562   */\n      swap1\n      pop\n        /* \"#utility.yul\":3585:3591   */\n      dup3\n        /* \"#utility.yul\":3578:3583   */\n      dup2\n        /* \"#utility.yul\":3571:3592   */\n      mstore\n        /* \"#utility.yul\":3623:3627   */\n      0x20\n        /* \"#utility.yul\":3616:3621   */\n      dup2\n        /* \"#utility.yul\":3612:3628   */\n      add\n        /* \"#utility.yul\":3661:3664   */\n      dup5\n        /* \"#utility.yul\":3652:3658   */\n      dup5\n        /* \"#utility.yul\":3647:3650   */\n      dup5\n        /* \"#utility.yul\":3643:3659   */\n      add\n        /* \"#utility.yul\":3640:3665   */\n      gt\n        /* \"#utility.yul\":3637:3749   */\n      iszero\n      tag_544\n      jumpi\n        /* \"#utility.yul\":3668:3747   */\n      tag_545\n      tag_434\n      jump\t// in\n    tag_545:\n        /* \"#utility.yul\":3637:3749   */\n    tag_544:\n        /* \"#utility.yul\":3758:3812   */\n      tag_546\n        /* \"#utility.yul\":3805:3811   */\n      dup5\n        /* \"#utility.yul\":3800:3803   */\n      dup3\n        /* \"#utility.yul\":3795:3798   */\n      dup6\n        /* \"#utility.yul\":3758:3812   */\n      tag_440\n      jump\t// in\n    tag_546:\n        /* \"#utility.yul\":3477:3818   */\n      pop\n        /* \"#utility.yul\":3393:3818   */\n      swap4\n      swap3\n      pop\n      pop\n      pop\n      jump\t// out\n        /* \"#utility.yul\":3838:4178   */\n    tag_442:\n        /* \"#utility.yul\":3894:3899   */\n      0x00\n        /* \"#utility.yul\":3943:3946   */\n      dup3\n        /* \"#utility.yul\":3936:3940   */\n      0x1f\n        /* \"#utility.yul\":3928:3934   */\n      dup4\n        /* \"#utility.yul\":3924:3941   */\n      add\n        /* \"#utility.yul\":3920:3947   */\n      slt\n        /* \"#utility.yul\":3910:4032   */\n      tag_548\n      jumpi\n        /* \"#utility.yul\":3951:4030   */\n      tag_549\n      tag_433\n      jump\t// in\n    tag_549:\n        /* \"#utility.yul\":3910:4032   */\n    tag_548:\n        /* \"#utility.yul\":4068:4074   */\n      dup2\n        /* \"#utility.yul\":4055:4075   */\n      calldataload\n        /* \"#utility.yul\":4093:4172   */\n      tag_550\n        /* \"#utility.yul\":4168:4171   */\n      dup5\n        /* \"#utility.yul\":4160:4166   */\n      dup3\n        /* \"#utility.yul\":4153:4157   */\n      0x20\n        /* \"#utility.yul\":4145:4151   */\n      dup7\n        /* \"#utility.yul\":4141:4158   */\n      add\n        /* \"#utility.yul\":4093:4172   */\n      tag_441\n      jump\t// in\n    tag_550:\n        /* \"#utility.yul\":4084:4172   */\n      swap2\n      pop\n        /* \"#utility.yul\":3900:4178   */\n      pop\n        /* \"#utility.yul\":3838:4178   */\n      swap3\n      swap2\n      pop\n      pop\n      jump\t// out\n        /* \"#utility.yul\":4184:4693   */\n    tag_45:\n        /* \"#utility.yul\":4253:4259   */\n      0x00\n        /* \"#utility.yul\":4302:4304   */\n      0x20\n        /* \"#utility.yul\":4290:4299   */\n      dup3\n        /* \"#utility.yul\":4281:4288   */\n      dup5\n        /* \"#utility.yul\":4277:4300   */\n      sub\n        /* \"#utility.yul\":4273:4305   */\n      slt\n        /* \"#utility.yul\":4270:4389   */\n      iszero\n      tag_552\n      jumpi\n        /* \"#utility.yul\":4308:4387   */\n      tag_553\n      tag_424\n      jump\t// in\n    tag_553:\n        /* \"#utility.yul\":4270:4389   */\n    tag_552:\n        /* \"#utility.yul\":4456:4457   */\n      0x00\n        /* \"#utility.yul\":4445:4454   */\n      dup3\n        /* \"#utility.yul\":4441:4458   */\n      add\n        /* \"#utility.yul\":4428:4459   */\n      calldataload\n        /* \"#utility.yul\":4486:4504   */\n      0xffffffffffffffff\n        /* \"#utility.yul\":4478:4484   */\n      dup2\n        /* \"#utility.yul\":4475:4505   */\n      gt\n        /* \"#utility.yul\":4472:4589   */\n      iszero\n      tag_554\n      jumpi\n        /* \"#utility.yul\":4508:4587   */\n      tag_555\n      tag_425\n      jump\t// in\n    tag_555:\n        /* \"#utility.yul\":4472:4589   */\n    tag_554:\n        /* \"#utility.yul\":4613:4676   */\n      tag_556\n        /* \"#utility.yul\":4668:4675   */\n      dup5\n        /* \"#utility.yul\":4659:4665   */\n      dup3\n        /* \"#utility.yul\":4648:4657   */\n      dup6\n        /* \"#utility.yul\":4644:4666   */\n      add\n        /* \"#utility.yul\":4613:4676   */\n      tag_442\n      jump\t// in\n    tag_556:\n        /* \"#utility.yul\":4603:4676   */\n      swap2\n      pop\n        /* \"#utility.yul\":4399:4686   */\n      pop\n        /* \"#utility.yul\":4184:4693   */\n      swap3\n      swap2\n      pop\n      pop\n      jump\t// out\n        /* \"#utility.yul\":4699:5173   */\n    tag_50:\n        /* \"#utility.yul\":4767:4773   */\n      0x00\n        /* \"#utility.yul\":4775:4781   */\n      0x00\n        /* \"#utility.yul\":4824:4826   */\n      0x40\n        /* \"#utility.yul\":4812:4821   */\n      dup4\n        /* \"#utility.yul\":4803:4810   */\n      dup6\n        /* \"#utility.yul\":4799:4822   */\n      sub\n        /* \"#utility.yul\":4795:4827   */\n      slt\n        /* \"#utility.yul\":4792:4911   */\n      iszero\n      tag_558\n      jumpi\n        /* \"#utility.yul\":4830:4909   */\n      tag_559\n      tag_424\n      jump\t// in\n    tag_559:\n        /* \"#utility.yul\":4792:4911   */\n    tag_558:\n        /* \"#utility.yul\":4950:4951   */\n      0x00\n        /* \"#utility.yul\":4975:5028   */\n      tag_560\n        /* \"#utility.yul\":5020:5027   */\n      dup6\n        /* \"#utility.yul\":5011:5017   */\n      dup3\n        /* \"#utility.yul\":5000:5009   */\n      dup7\n        /* \"#utility.yul\":4996:5018   */\n      add\n        /* \"#utility.yul\":4975:5028   */\n      tag_429\n      jump\t// in\n    tag_560:\n        /* \"#utility.yul\":4965:5028   */\n      swap3\n      pop\n        /* \"#utility.yul\":4921:5038   */\n      pop\n        /* \"#utility.yul\":5077:5079   */\n      0x20\n        /* \"#utility.yul\":5103:5156   */\n      tag_561\n        /* \"#utility.yul\":5148:5155   */\n      dup6\n        /* \"#utility.yul\":5139:5145   */\n      dup3\n        /* \"#utility.yul\":5128:5137   */\n      dup7\n        /* \"#utility.yul\":5124:5146   */\n      add\n        /* \"#utility.yul\":5103:5156   */\n      tag_429\n      jump\t// in\n    tag_561:\n        /* \"#utility.yul\":5093:5156   */\n      swap2\n      pop\n        /* \"#utility.yul\":5048:5166   */\n      pop\n        /* \"#utility.yul\":4699:5173   */\n      swap3\n      pop\n      swap3\n      swap1\n      pop\n      jump\t// out\n        /* \"#utility.yul\":5179:5269   */\n    tag_443:\n        /* \"#utility.yul\":5213:5220   */\n      0x00\n        /* \"#utility.yul\":5256:5261   */\n      dup2\n        /* \"#utility.yul\":5249:5262   */\n      iszero\n        /* \"#utility.yul\":5242:5263   */\n      iszero\n        /* \"#utility.yul\":5231:5263   */\n      swap1\n      pop\n        /* \"#utility.yul\":5179:5269   */\n      swap2\n      swap1\n      pop\n      jump\t// out\n        /* \"#utility.yul\":5275:5384   */\n    tag_444:\n        /* \"#utility.yul\":5356:5377   */\n      tag_564\n        /* \"#utility.yul\":5371:5376   */\n      dup2\n        /* \"#utility.yul\":5356:5377   */\n      tag_443\n      jump\t// in\n    tag_564:\n        /* \"#utility.yul\":5351:5354   */\n      dup3\n        /* \"#utility.yul\":5344:5378   */\n      mstore\n        /* \"#utility.yul\":5275:5384   */\n      pop\n      pop\n      jump\t// out\n        /* \"#utility.yul\":5390:5710   */\n    tag_57:\n        /* \"#utility.yul\":5505:5509   */\n      0x00\n        /* \"#utility.yul\":5543:5545   */\n      0x40\n        /* \"#utility.yul\":5532:5541   */\n      dup3\n        /* \"#utility.yul\":5528:5546   */\n      add\n        /* \"#utility.yul\":5520:5546   */\n      swap1\n      pop\n        /* \"#utility.yul\":5556:5621   */\n      tag_566\n        /* \"#utility.yul\":5618:5619   */\n      0x00\n        /* \"#utility.yul\":5607:5616   */\n      dup4\n        /* \"#utility.yul\":5603:5620   */\n      add\n        /* \"#utility.yul\":5594:5600   */\n      dup6\n        /* \"#utility.yul\":5556:5621   */\n      tag_444\n      jump\t// in\n    tag_566:\n        /* \"#utility.yul\":5631:5703   */\n      tag_567\n        /* \"#utility.yul\":5699:5701   */\n      0x20\n        /* \"#utility.yul\":5688:5697   */\n      dup4\n        /* \"#utility.yul\":5684:5702   */\n      add\n        /* \"#utility.yul\":5675:5681   */\n      dup5\n        /* \"#utility.yul\":5631:5703   */\n      tag_432\n      jump\t// in\n    tag_567:\n        /* \"#utility.yul\":5390:5710   */\n      swap4\n      swap3\n      pop\n      pop\n      pop\n      jump\t// out\n        /* \"#utility.yul\":5716:5926   */\n    tag_61:\n        /* \"#utility.yul\":5803:5807   */\n      0x00\n        /* \"#utility.yul\":5841:5843   */\n      0x20\n        /* \"#utility.yul\":5830:5839   */\n      dup3\n        /* \"#utility.yul\":5826:5844   */\n      add\n        /* \"#utility.yul\":5818:5844   */\n      swap1\n      pop\n        /* \"#utility.yul\":5854:5919   */\n      tag_569\n        /* \"#utility.yul\":5916:5917   */\n      0x00\n        /* \"#utility.yul\":5905:5914   */\n      dup4\n        /* \"#utility.yul\":5901:5918   */\n      add\n        /* \"#utility.yul\":5892:5898   */\n      dup5\n        /* \"#utility.yul\":5854:5919   */\n      tag_444\n      jump\t// in\n    tag_569:\n        /* \"#utility.yul\":5716:5926   */\n      swap3\n      swap2\n      pop\n      pop\n      jump\t// out\n        /* \"#utility.yul\":5932:5992   */\n    tag_445:\n        /* \"#utility.yul\":5960:5963   */\n      0x00\n        /* \"#utility.yul\":5981:5986   */\n      dup2\n        /* \"#utility.yul\":5974:5986   */\n      swap1\n      pop\n        /* \"#utility.yul\":5932:5992   */\n      swap2\n      swap1\n      pop\n      jump\t// out\n        /* \"#utility.yul\":5998:6140   */\n    tag_446:\n        /* \"#utility.yul\":6048:6057   */\n      0x00\n        /* \"#utility.yul\":6081:6134   */\n      tag_572\n        /* \"#utility.yul\":6099:6133   */\n      tag_573\n        /* \"#utility.yul\":6108:6132   */\n      tag_574\n        /* \"#utility.yul\":6126:6131   */\n      dup5\n        /* \"#utility.yul\":6108:6132   */\n      tag_426\n      jump\t// in\n    tag_574:\n        /* \"#utility.yul\":6099:6133   */\n      tag_445\n      jump\t// in\n    tag_573:\n        /* \"#utility.yul\":6081:6134   */\n      tag_426\n      jump\t// in\n    tag_572:\n        /* \"#utility.yul\":6068:6134   */\n      swap1\n      pop\n        /* \"#utility.yul\":5998:6140   */\n      swap2\n      swap1\n      pop\n      jump\t// out\n        /* \"#utility.yul\":6146:6272   */\n    tag_447:\n        /* \"#utility.yul\":6196:6205   */\n      0x00\n        /* \"#utility.yul\":6229:6266   */\n      tag_576\n        /* \"#utility.yul\":6260:6265   */\n      dup3\n        /* \"#utility.yul\":6229:6266   */\n      tag_446\n      jump\t// in\n    tag_576:\n        /* \"#utility.yul\":6216:6266   */\n      swap1\n      pop\n        /* \"#utility.yul\":6146:6272   */\n      swap2\n      swap1\n      pop\n      jump\t// out\n        /* \"#utility.yul\":6278:6421   */\n    tag_448:\n        /* \"#utility.yul\":6345:6354   */\n      0x00\n        /* \"#utility.yul\":6378:6415   */\n      tag_578\n        /* \"#utility.yul\":6409:6414   */\n      dup3\n        /* \"#utility.yul\":6378:6415   */\n      tag_447\n      jump\t// in\n    tag_578:\n        /* \"#utility.yul\":6365:6415   */\n      swap1\n      pop\n        /* \"#utility.yul\":6278:6421   */\n      swap2\n      swap1\n      pop\n      jump\t// out\n        /* \"#utility.yul\":6427:6592   */\n    tag_449:\n        /* \"#utility.yul\":6531:6585   */\n      tag_580\n        /* \"#utility.yul\":6579:6584   */\n      dup2\n        /* \"#utility.yul\":6531:6585   */\n      tag_448\n      jump\t// in\n    tag_580:\n        /* \"#utility.yul\":6526:6529   */\n      dup3\n        /* \"#utility.yul\":6519:6586   */\n      mstore\n        /* \"#utility.yul\":6427:6592   */\n      pop\n      pop\n      jump\t// out\n        /* \"#utility.yul\":6598:6854   */\n    tag_73:\n        /* \"#utility.yul\":6708:6712   */\n      0x00\n        /* \"#utility.yul\":6746:6748   */\n      0x20\n        /* \"#utility.yul\":6735:6744   */\n      dup3\n        /* \"#utility.yul\":6731:6749   */\n      add\n        /* \"#utility.yul\":6723:6749   */\n      swap1\n      pop\n        /* \"#utility.yul\":6759:6847   */\n      tag_582\n        /* \"#utility.yul\":6844:6845   */\n      0x00\n        /* \"#utility.yul\":6833:6842   */\n      dup4\n        /* \"#utility.yul\":6829:6846   */\n      add\n        /* \"#utility.yul\":6820:6826   */\n      dup5\n        /* \"#utility.yul\":6759:6847   */\n      tag_449\n      jump\t// in\n    tag_582:\n        /* \"#utility.yul\":6598:6854   */\n      swap3\n      swap2\n      pop\n      pop\n      jump\t// out\n        /* \"#utility.yul\":6860:6946   */\n    tag_450:\n        /* \"#utility.yul\":6895:6902   */\n      0x00\n        /* \"#utility.yul\":6935:6939   */\n      0xff\n        /* \"#utility.yul\":6928:6933   */\n      dup3\n        /* \"#utility.yul\":6924:6940   */\n      and\n        /* \"#utility.yul\":6913:6940   */\n      swap1\n      pop\n        /* \"#utility.yul\":6860:6946   */\n      swap2\n      swap1\n      pop\n      jump\t// out\n        /* \"#utility.yul\":6952:7064   */\n    tag_451:\n        /* \"#utility.yul\":7035:7057   */\n      tag_585\n        /* \"#utility.yul\":7051:7056   */\n      dup2\n        /* \"#utility.yul\":7035:7057   */\n      tag_450\n      jump\t// in\n    tag_585:\n        /* \"#utility.yul\":7030:7033   */\n      dup3\n        /* \"#utility.yul\":7023:7058   */\n      mstore\n        /* \"#utility.yul\":6952:7064   */\n      pop\n      pop\n      jump\t// out\n        /* \"#utility.yul\":7070:7284   */\n    tag_99:\n        /* \"#utility.yul\":7159:7163   */\n      0x00\n        /* \"#utility.yul\":7197:7199   */\n      0x20\n        /* \"#utility.yul\":7186:7195   */\n      dup3\n        /* \"#utility.yul\":7182:7200   */\n      add\n        /* \"#utility.yul\":7174:7200   */\n      swap1\n      pop\n        /* \"#utility.yul\":7210:7277   */\n      tag_587\n        /* \"#utility.yul\":7274:7275   */\n      0x00\n        /* \"#utility.yul\":7263:7272   */\n      dup4\n        /* \"#utility.yul\":7259:7276   */\n      add\n        /* \"#utility.yul\":7250:7256   */\n      dup5\n        /* \"#utility.yul\":7210:7277   */\n      tag_451\n      jump\t// in\n    tag_587:\n        /* \"#utility.yul\":7070:7284   */\n      swap3\n      swap2\n      pop\n      pop\n      jump\t// out\n        /* \"#utility.yul\":7290:7389   */\n    tag_452:\n        /* \"#utility.yul\":7342:7348   */\n      0x00\n        /* \"#utility.yul\":7376:7381   */\n      dup2\n        /* \"#utility.yul\":7370:7382   */\n      mload\n        /* \"#utility.yul\":7360:7382   */\n      swap1\n      pop\n        /* \"#utility.yul\":7290:7389   */\n      swap2\n      swap1\n      pop\n      jump\t// out\n        /* \"#utility.yul\":7395:7564   */\n    tag_453:\n        /* \"#utility.yul\":7479:7490   */\n      0x00\n        /* \"#utility.yul\":7513:7519   */\n      dup3\n        /* \"#utility.yul\":7508:7511   */\n      dup3\n        /* \"#utility.yul\":7501:7520   */\n      mstore\n        /* \"#utility.yul\":7553:7557   */\n      0x20\n        /* \"#utility.yul\":7548:7551   */\n      dup3\n        /* \"#utility.yul\":7544:7558   */\n      add\n        /* \"#utility.yul\":7529:7558   */\n      swap1\n      pop\n        /* \"#utility.yul\":7395:7564   */\n      swap3\n      swap2\n      pop\n      pop\n      jump\t// out\n        /* \"#utility.yul\":7570:7709   */\n    tag_454:\n        /* \"#utility.yul\":7659:7665   */\n      dup3\n        /* \"#utility.yul\":7654:7657   */\n      dup2\n        /* \"#utility.yul\":7649:7652   */\n      dup4\n        /* \"#utility.yul\":7643:7666   */\n      mcopy\n        /* \"#utility.yul\":7700:7701   */\n      0x00\n        /* \"#utility.yul\":7691:7697   */\n      dup4\n        /* \"#utility.yul\":7686:7689   */\n      dup4\n        /* \"#utility.yul\":7682:7698   */\n      add\n        /* \"#utility.yul\":7675:7702   */\n      mstore\n        /* \"#utility.yul\":7570:7709   */\n      pop\n      pop\n      pop\n      jump\t// out\n        /* \"#utility.yul\":7715:8092   */\n    tag_455:\n        /* \"#utility.yul\":7803:7806   */\n      0x00\n        /* \"#utility.yul\":7831:7870   */\n      tag_592\n        /* \"#utility.yul\":7864:7869   */\n      dup3\n        /* \"#utility.yul\":7831:7870   */\n      tag_452\n      jump\t// in\n    tag_592:\n        /* \"#utility.yul\":7886:7957   */\n      tag_593\n        /* \"#utility.yul\":7950:7956   */\n      dup2\n        /* \"#utility.yul\":7945:7948   */\n      dup6\n        /* \"#utility.yul\":7886:7957   */\n      tag_453\n      jump\t// in\n    tag_593:\n        /* \"#utility.yul\":7879:7957   */\n      swap4\n      pop\n        /* \"#utility.yul\":7966:8031   */\n      tag_594\n        /* \"#utility.yul\":8024:8030   */\n      dup2\n        /* \"#utility.yul\":8019:8022   */\n      dup6\n        /* \"#utility.yul\":8012:8016   */\n      0x20\n        /* \"#utility.yul\":8005:8010   */\n      dup7\n        /* \"#utility.yul\":8001:8017   */\n      add\n        /* \"#utility.yul\":7966:8031   */\n      tag_454\n      jump\t// in\n    tag_594:\n        /* \"#utility.yul\":8056:8085   */\n      tag_595\n        /* \"#utility.yul\":8078:8084   */\n      dup2\n        /* \"#utility.yul\":8056:8085   */\n      tag_435\n      jump\t// in\n    tag_595:\n        /* \"#utility.yul\":8051:8054   */\n      dup5\n        /* \"#utility.yul\":8047:8086   */\n      add\n        /* \"#utility.yul\":8040:8086   */\n      swap2\n      pop\n        /* \"#utility.yul\":7807:8092   */\n      pop\n        /* \"#utility.yul\":7715:8092   */\n      swap3\n      swap2\n      pop\n      pop\n      jump\t// out\n        /* \"#utility.yul\":8098:8411   */\n    tag_113:\n        /* \"#utility.yul\":8211:8215   */\n      0x00\n        /* \"#utility.yul\":8249:8251   */\n      0x20\n        /* \"#utility.yul\":8238:8247   */\n      dup3\n        /* \"#utility.yul\":8234:8252   */\n      add\n        /* \"#utility.yul\":8226:8252   */\n      swap1\n      pop\n        /* \"#utility.yul\":8298:8307   */\n      dup2\n        /* \"#utility.yul\":8292:8296   */\n      dup2\n        /* \"#utility.yul\":8288:8308   */\n      sub\n        /* \"#utility.yul\":8284:8285   */\n      0x00\n        /* \"#utility.yul\":8273:8282   */\n      dup4\n        /* \"#utility.yul\":8269:8286   */\n      add\n        /* \"#utility.yul\":8262:8309   */\n      mstore\n        /* \"#utility.yul\":8326:8404   */\n      tag_597\n        /* \"#utility.yul\":8399:8403   */\n      dup2\n        /* \"#utility.yul\":8390:8396   */\n      dup5\n        /* \"#utility.yul\":8326:8404   */\n      tag_455\n      jump\t// in\n    tag_597:\n        /* \"#utility.yul\":8318:8404   */\n      swap1\n      pop\n        /* \"#utility.yul\":8098:8411   */\n      swap3\n      swap2\n      pop\n      pop\n      jump\t// out\n        /* \"#utility.yul\":8417:8560   */\n    tag_456:\n        /* \"#utility.yul\":8474:8479   */\n      0x00\n        /* \"#utility.yul\":8505:8511   */\n      dup2\n        /* \"#utility.yul\":8499:8512   */\n      mload\n        /* \"#utility.yul\":8490:8512   */\n      swap1\n      pop\n        /* \"#utility.yul\":8521:8554   */\n      tag_599\n        /* \"#utility.yul\":8548:8553   */\n      dup2\n        /* \"#utility.yul\":8521:8554   */\n      tag_428\n      jump\t// in\n    tag_599:\n        /* \"#utility.yul\":8417:8560   */\n      swap3\n      swap2\n      pop\n      pop\n      jump\t// out\n        /* \"#utility.yul\":8566:8917   */\n    tag_117:\n        /* \"#utility.yul\":8636:8642   */\n      0x00\n        /* \"#utility.yul\":8685:8687   */\n      0x20\n        /* \"#utility.yul\":8673:8682   */\n      dup3\n        /* \"#utility.yul\":8664:8671   */\n      dup5\n        /* \"#utility.yul\":8660:8683   */\n      sub\n        /* \"#utility.yul\":8656:8688   */\n      slt\n        /* \"#utility.yul\":8653:8772   */\n      iszero\n      tag_601\n      jumpi\n        /* \"#utility.yul\":8691:8770   */\n      tag_602\n      tag_424\n      jump\t// in\n    tag_602:\n        /* \"#utility.yul\":8653:8772   */\n    tag_601:\n        /* \"#utility.yul\":8811:8812   */\n      0x00\n        /* \"#utility.yul\":8836:8900   */\n      tag_603\n        /* \"#utility.yul\":8892:8899   */\n      dup5\n        /* \"#utility.yul\":8883:8889   */\n      dup3\n        /* \"#utility.yul\":8872:8881   */\n      dup6\n        /* \"#utility.yul\":8868:8890   */\n      add\n        /* \"#utility.yul\":8836:8900   */\n      tag_456\n      jump\t// in\n    tag_603:\n        /* \"#utility.yul\":8826:8900   */\n      swap2\n      pop\n        /* \"#utility.yul\":8782:8910   */\n      pop\n        /* \"#utility.yul\":8566:8917   */\n      swap3\n      swap2\n      pop\n      pop\n      jump\t// out\n        /* \"#utility.yul\":8923:9045   */\n    tag_457:\n        /* \"#utility.yul\":8996:9020   */\n      tag_605\n        /* \"#utility.yul\":9014:9019   */\n      dup2\n        /* \"#utility.yul\":8996:9020   */\n      tag_426\n      jump\t// in\n    tag_605:\n        /* \"#utility.yul\":8989:8994   */\n      dup2\n        /* \"#utility.yul\":8986:9021   */\n      eq\n        /* \"#utility.yul\":8976:9039   */\n      tag_606\n      jumpi\n        /* \"#utility.yul\":9035:9036   */\n      0x00\n        /* \"#utility.yul\":9032:9033   */\n      0x00\n        /* \"#utility.yul\":9025:9037   */\n      revert\n        /* \"#utility.yul\":8976:9039   */\n    tag_606:\n        /* \"#utility.yul\":8923:9045   */\n      pop\n      jump\t// out\n        /* \"#utility.yul\":9051:9194   */\n    tag_458:\n        /* \"#utility.yul\":9108:9113   */\n      0x00\n        /* \"#utility.yul\":9139:9145   */\n      dup2\n        /* \"#utility.yul\":9133:9146   */\n      mload\n        /* \"#utility.yul\":9124:9146   */\n      swap1\n      pop\n        /* \"#utility.yul\":9155:9188   */\n      tag_608\n        /* \"#utility.yul\":9182:9187   */\n      dup2\n        /* \"#utility.yul\":9155:9188   */\n      tag_457\n      jump\t// in\n    tag_608:\n        /* \"#utility.yul\":9051:9194   */\n      swap3\n      swap2\n      pop\n      pop\n      jump\t// out\n        /* \"#utility.yul\":9200:9290   */\n    tag_459:\n        /* \"#utility.yul\":9235:9242   */\n      0x00\n        /* \"#utility.yul\":9278:9283   */\n      dup2\n        /* \"#utility.yul\":9275:9276   */\n      0x02\n        /* \"#utility.yul\":9264:9284   */\n      signextend\n        /* \"#utility.yul\":9253:9284   */\n      swap1\n      pop\n        /* \"#utility.yul\":9200:9290   */\n      swap2\n      swap1\n      pop\n      jump\t// out\n        /* \"#utility.yul\":9296:9414   */\n    tag_460:\n        /* \"#utility.yul\":9367:9389   */\n      tag_611\n        /* \"#utility.yul\":9383:9388   */\n      dup2\n        /* \"#utility.yul\":9367:9389   */\n      tag_459\n      jump\t// in\n    tag_611:\n        /* \"#utility.yul\":9360:9365   */\n      dup2\n        /* \"#utility.yul\":9357:9390   */\n      eq\n        /* \"#utility.yul\":9347:9408   */\n      tag_612\n      jumpi\n        /* \"#utility.yul\":9404:9405   */\n      0x00\n        /* \"#utility.yul\":9401:9402   */\n      0x00\n        /* \"#utility.yul\":9394:9406   */\n      revert\n        /* \"#utility.yul\":9347:9408   */\n    tag_612:\n        /* \"#utility.yul\":9296:9414   */\n      pop\n      jump\t// out\n        /* \"#utility.yul\":9420:9559   */\n    tag_461:\n        /* \"#utility.yul\":9475:9480   */\n      0x00\n        /* \"#utility.yul\":9506:9512   */\n      dup2\n        /* \"#utility.yul\":9500:9513   */\n      mload\n        /* \"#utility.yul\":9491:9513   */\n      swap1\n      pop\n        /* \"#utility.yul\":9522:9553   */\n      tag_614\n        /* \"#utility.yul\":9547:9552   */\n      dup2\n        /* \"#utility.yul\":9522:9553   */\n      tag_460\n      jump\t// in\n    tag_614:\n        /* \"#utility.yul\":9420:9559   */\n      swap3\n      swap2\n      pop\n      pop\n      jump\t// out\n        /* \"#utility.yul\":9565:9654   */\n    tag_462:\n        /* \"#utility.yul\":9601:9608   */\n      0x00\n        /* \"#utility.yul\":9641:9647   */\n      0xffff\n        /* \"#utility.yul\":9634:9639   */\n      dup3\n        /* \"#utility.yul\":9630:9648   */\n      and\n        /* \"#utility.yul\":9619:9648   */\n      swap1\n      pop\n        /* \"#utility.yul\":9565:9654   */\n      swap2\n      swap1\n      pop\n      jump\t// out\n        /* \"#utility.yul\":9660:9780   */\n    tag_463:\n        /* \"#utility.yul\":9732:9755   */\n      tag_617\n        /* \"#utility.yul\":9749:9754   */\n      dup2\n        /* \"#utility.yul\":9732:9755   */\n      tag_462\n      jump\t// in\n    tag_617:\n        /* \"#utility.yul\":9725:9730   */\n      dup2\n        /* \"#utility.yul\":9722:9756   */\n      eq\n        /* \"#utility.yul\":9712:9774   */\n      tag_618\n      jumpi\n        /* \"#utility.yul\":9770:9771   */\n      0x00\n        /* \"#utility.yul\":9767:9768   */\n      0x00\n        /* \"#utility.yul\":9760:9772   */\n      revert\n        /* \"#utility.yul\":9712:9774   */\n    tag_618:\n        /* \"#utility.yul\":9660:9780   */\n      pop\n      jump\t// out\n        /* \"#utility.yul\":9786:9927   */\n    tag_464:\n        /* \"#utility.yul\":9842:9847   */\n      0x00\n        /* \"#utility.yul\":9873:9879   */\n      dup2\n        /* \"#utility.yul\":9867:9880   */\n      mload\n        /* \"#utility.yul\":9858:9880   */\n      swap1\n      pop\n        /* \"#utility.yul\":9889:9921   */\n      tag_620\n        /* \"#utility.yul\":9915:9920   */\n      dup2\n        /* \"#utility.yul\":9889:9921   */\n      tag_463\n      jump\t// in\n    tag_620:\n        /* \"#utility.yul\":9786:9927   */\n      swap3\n      swap2\n      pop\n      pop\n      jump\t// out\n        /* \"#utility.yul\":9933:10051   */\n    tag_465:\n        /* \"#utility.yul\":10004:10026   */\n      tag_622\n        /* \"#utility.yul\":10020:10025   */\n      dup2\n        /* \"#utility.yul\":10004:10026   */\n      tag_450\n      jump\t// in\n    tag_622:\n        /* \"#utility.yul\":9997:10002   */\n      dup2\n        /* \"#utility.yul\":9994:10027   */\n      eq\n        /* \"#utility.yul\":9984:10045   */\n      tag_623\n      jumpi\n        /* \"#utility.yul\":10041:10042   */\n      0x00\n        /* \"#utility.yul\":10038:10039   */\n      0x00\n        /* \"#utility.yul\":10031:10043   */\n      revert\n        /* \"#utility.yul\":9984:10045   */\n    tag_623:\n        /* \"#utility.yul\":9933:10051   */\n      pop\n      jump\t// out\n        /* \"#utility.yul\":10057:10196   */\n    tag_466:\n        /* \"#utility.yul\":10112:10117   */\n      0x00\n        /* \"#utility.yul\":10143:10149   */\n      dup2\n        /* \"#utility.yul\":10137:10150   */\n      mload\n        /* \"#utility.yul\":10128:10150   */\n      swap1\n      pop\n        /* \"#utility.yul\":10159:10190   */\n      tag_625\n        /* \"#utility.yul\":10184:10189   */\n      dup2\n        /* \"#utility.yul\":10159:10190   */\n      tag_465\n      jump\t// in\n    tag_625:\n        /* \"#utility.yul\":10057:10196   */\n      swap3\n      swap2\n      pop\n      pop\n      jump\t// out\n        /* \"#utility.yul\":10202:10318   */\n    tag_467:\n        /* \"#utility.yul\":10272:10293   */\n      tag_627\n        /* \"#utility.yul\":10287:10292   */\n      dup2\n        /* \"#utility.yul\":10272:10293   */\n      tag_443\n      jump\t// in\n    tag_627:\n        /* \"#utility.yul\":10265:10270   */\n      dup2\n        /* \"#utility.yul\":10262:10294   */\n      eq\n        /* \"#utility.yul\":10252:10312   */\n      tag_628\n      jumpi\n        /* \"#utility.yul\":10308:10309   */\n      0x00\n        /* \"#utility.yul\":10305:10306   */\n      0x00\n        /* \"#utility.yul\":10298:10310   */\n      revert\n        /* \"#utility.yul\":10252:10312   */\n    tag_628:\n        /* \"#utility.yul\":10202:10318   */\n      pop\n      jump\t// out\n        /* \"#utility.yul\":10324:10461   */\n    tag_468:\n        /* \"#utility.yul\":10378:10383   */\n      0x00\n        /* \"#utility.yul\":10409:10415   */\n      dup2\n        /* \"#utility.yul\":10403:10416   */\n      mload\n        /* \"#utility.yul\":10394:10416   */\n      swap1\n      pop\n        /* \"#utility.yul\":10425:10455   */\n      tag_630\n        /* \"#utility.yul\":10449:10454   */\n      dup2\n        /* \"#utility.yul\":10425:10455   */\n      tag_467\n      jump\t// in\n    tag_630:\n        /* \"#utility.yul\":10324:10461   */\n      swap3\n      swap2\n      pop\n      pop\n      jump\t// out\n        /* \"#utility.yul\":10467:11738   */\n    tag_122:\n        /* \"#utility.yul\":10581:10587   */\n      0x00\n        /* \"#utility.yul\":10589:10595   */\n      0x00\n        /* \"#utility.yul\":10597:10603   */\n      0x00\n        /* \"#utility.yul\":10605:10611   */\n      0x00\n        /* \"#utility.yul\":10613:10619   */\n      0x00\n        /* \"#utility.yul\":10621:10627   */\n      0x00\n        /* \"#utility.yul\":10629:10635   */\n      0x00\n        /* \"#utility.yul\":10678:10681   */\n      0xe0\n        /* \"#utility.yul\":10666:10675   */\n      dup9\n        /* \"#utility.yul\":10657:10664   */\n      dup11\n        /* \"#utility.yul\":10653:10676   */\n      sub\n        /* \"#utility.yul\":10649:10682   */\n      slt\n        /* \"#utility.yul\":10646:10766   */\n      iszero\n      tag_632\n      jumpi\n        /* \"#utility.yul\":10685:10764   */\n      tag_633\n      tag_424\n      jump\t// in\n    tag_633:\n        /* \"#utility.yul\":10646:10766   */\n    tag_632:\n        /* \"#utility.yul\":10805:10806   */\n      0x00\n        /* \"#utility.yul\":10830:10894   */\n      tag_634\n        /* \"#utility.yul\":10886:10893   */\n      dup11\n        /* \"#utility.yul\":10877:10883   */\n      dup3\n        /* \"#utility.yul\":10866:10875   */\n      dup12\n        /* \"#utility.yul\":10862:10884   */\n      add\n        /* \"#utility.yul\":10830:10894   */\n      tag_458\n      jump\t// in\n    tag_634:\n        /* \"#utility.yul\":10820:10894   */\n      swap8\n      pop\n        /* \"#utility.yul\":10776:10904   */\n      pop\n        /* \"#utility.yul\":10943:10945   */\n      0x20\n        /* \"#utility.yul\":10969:11031   */\n      tag_635\n        /* \"#utility.yul\":11023:11030   */\n      dup11\n        /* \"#utility.yul\":11014:11020   */\n      dup3\n        /* \"#utility.yul\":11003:11012   */\n      dup12\n        /* \"#utility.yul\":10999:11021   */\n      add\n        /* \"#utility.yul\":10969:11031   */\n      tag_461\n      jump\t// in\n    tag_635:\n        /* \"#utility.yul\":10959:11031   */\n      swap7\n      pop\n        /* \"#utility.yul\":10914:11041   */\n      pop\n        /* \"#utility.yul\":11080:11082   */\n      0x40\n        /* \"#utility.yul\":11106:11169   */\n      tag_636\n        /* \"#utility.yul\":11161:11168   */\n      dup11\n        /* \"#utility.yul\":11152:11158   */\n      dup3\n        /* \"#utility.yul\":11141:11150   */\n      dup12\n        /* \"#utility.yul\":11137:11159   */\n      add\n        /* \"#utility.yul\":11106:11169   */\n      tag_464\n      jump\t// in\n    tag_636:\n        /* \"#utility.yul\":11096:11169   */\n      swap6\n      pop\n        /* \"#utility.yul\":11051:11179   */\n      pop\n        /* \"#utility.yul\":11218:11220   */\n      0x60\n        /* \"#utility.yul\":11244:11307   */\n      tag_637\n        /* \"#utility.yul\":11299:11306   */\n      dup11\n        /* \"#utility.yul\":11290:11296   */\n      dup3\n        /* \"#utility.yul\":11279:11288   */\n      dup12\n        /* \"#utility.yul\":11275:11297   */\n      add\n        /* \"#utility.yul\":11244:11307   */\n      tag_464\n      jump\t// in\n    tag_637:\n        /* \"#utility.yul\":11234:11307   */\n      swap5\n      pop\n        /* \"#utility.yul\":11189:11317   */\n      pop\n        /* \"#utility.yul\":11356:11359   */\n      0x80\n        /* \"#utility.yul\":11383:11446   */\n      tag_638\n        /* \"#utility.yul\":11438:11445   */\n      dup11\n        /* \"#utility.yul\":11429:11435   */\n      dup3\n        /* \"#utility.yul\":11418:11427   */\n      dup12\n        /* \"#utility.yul\":11414:11436   */\n      add\n        /* \"#utility.yul\":11383:11446   */\n      tag_464\n      jump\t// in\n    tag_638:\n        /* \"#utility.yul\":11373:11446   */\n      swap4\n      pop\n        /* \"#utility.yul\":11327:11456   */\n      pop\n        /* \"#utility.yul\":11495:11498   */\n      0xa0\n        /* \"#utility.yul\":11522:11584   */\n      tag_639\n        /* \"#utility.yul\":11576:11583   */\n      dup11\n        /* \"#utility.yul\":11567:11573   */\n      dup3\n        /* \"#utility.yul\":11556:11565   */\n      dup12\n        /* \"#utility.yul\":11552:11574   */\n      add\n        /* \"#utility.yul\":11522:11584   */\n      tag_466\n      jump\t// in\n    tag_639:\n        /* \"#utility.yul\":11512:11584   */\n      swap3\n      pop\n        /* \"#utility.yul\":11466:11594   */\n      pop\n        /* \"#utility.yul\":11633:11636   */\n      0xc0\n        /* \"#utility.yul\":11660:11721   */\n      tag_640\n        /* \"#utility.yul\":11713:11720   */\n      dup11\n        /* \"#utility.yul\":11704:11710   */\n      dup3\n        /* \"#utility.yul\":11693:11702   */\n      dup12\n        /* \"#utility.yul\":11689:11711   */\n      add\n        /* \"#utility.yul\":11660:11721   */\n      tag_468\n      jump\t// in\n    tag_640:\n        /* \"#utility.yul\":11650:11721   */\n      swap2\n      pop\n        /* \"#utility.yul\":11604:11731   */\n      pop\n        /* \"#utility.yul\":10467:11738   */\n      swap3\n      swap6\n      swap9\n      swap2\n      swap5\n      swap8\n      pop\n      swap3\n      swap6\n      pop\n      jump\t// out\n        /* \"#utility.yul\":11744:11862   */\n    tag_469:\n        /* \"#utility.yul\":11781:11788   */\n      0x00\n        /* \"#utility.yul\":11821:11855   */\n      0xffffffffffffffffffffffffffffffff\n        /* \"#utility.yul\":11814:11819   */\n      dup3\n        /* \"#utility.yul\":11810:11856   */\n      and\n        /* \"#utility.yul\":11799:11856   */\n      swap1\n      pop\n        /* \"#utility.yul\":11744:11862   */\n      swap2\n      swap1\n      pop\n      jump\t// out\n        /* \"#utility.yul\":11868:11990   */\n    tag_470:\n        /* \"#utility.yul\":11941:11965   */\n      tag_643\n        /* \"#utility.yul\":11959:11964   */\n      dup2\n        /* \"#utility.yul\":11941:11965   */\n      tag_469\n      jump\t// in\n    tag_643:\n        /* \"#utility.yul\":11934:11939   */\n      dup2\n        /* \"#utility.yul\":11931:11966   */\n      eq\n        /* \"#utility.yul\":11921:11984   */\n      tag_644\n      jumpi\n        /* \"#utility.yul\":11980:11981   */\n      0x00\n        /* \"#utility.yul\":11977:11978   */\n      0x00\n        /* \"#utility.yul\":11970:11982   */\n      revert\n        /* \"#utility.yul\":11921:11984   */\n    tag_644:\n        /* \"#utility.yul\":11868:11990   */\n      pop\n      jump\t// out\n        /* \"#utility.yul\":11996:12139   */\n    tag_471:\n        /* \"#utility.yul\":12053:12058   */\n      0x00\n        /* \"#utility.yul\":12084:12090   */\n      dup2\n        /* \"#utility.yul\":12078:12091   */\n      mload\n        /* \"#utility.yul\":12069:12091   */\n      swap1\n      pop\n        /* \"#utility.yul\":12100:12133   */\n      tag_646\n        /* \"#utility.yul\":12127:12132   */\n      dup2\n        /* \"#utility.yul\":12100:12133   */\n      tag_470\n      jump\t// in\n    tag_646:\n        /* \"#utility.yul\":11996:12139   */\n      swap3\n      swap2\n      pop\n      pop\n      jump\t// out\n        /* \"#utility.yul\":12145:12496   */\n    tag_126:\n        /* \"#utility.yul\":12215:12221   */\n      0x00\n        /* \"#utility.yul\":12264:12266   */\n      0x20\n        /* \"#utility.yul\":12252:12261   */\n      dup3\n        /* \"#utility.yul\":12243:12250   */\n      dup5\n        /* \"#utility.yul\":12239:12262   */\n      sub\n        /* \"#utility.yul\":12235:12267   */\n      slt\n        /* \"#utility.yul\":12232:12351   */\n      iszero\n      tag_648\n      jumpi\n        /* \"#utility.yul\":12270:12349   */\n      tag_649\n      tag_424\n      jump\t// in\n    tag_649:\n        /* \"#utility.yul\":12232:12351   */\n    tag_648:\n        /* \"#utility.yul\":12390:12391   */\n      0x00\n        /* \"#utility.yul\":12415:12479   */\n      tag_650\n        /* \"#utility.yul\":12471:12478   */\n      dup5\n        /* \"#utility.yul\":12462:12468   */\n      dup3\n        /* \"#utility.yul\":12451:12460   */\n      dup6\n        /* \"#utility.yul\":12447:12469   */\n      add\n        /* \"#utility.yul\":12415:12479   */\n      tag_471\n      jump\t// in\n    tag_650:\n        /* \"#utility.yul\":12405:12479   */\n      swap2\n      pop\n        /* \"#utility.yul\":12361:12489   */\n      pop\n        /* \"#utility.yul\":12145:12496   */\n      swap3\n      swap2\n      pop\n      pop\n      jump\t// out\n        /* \"#utility.yul\":12502:12849   */\n    tag_144:\n        /* \"#utility.yul\":12570:12576   */\n      0x00\n        /* \"#utility.yul\":12619:12621   */\n      0x20\n        /* \"#utility.yul\":12607:12616   */\n      dup3\n        /* \"#utility.yul\":12598:12605   */\n      dup5\n        /* \"#utility.yul\":12594:12617   */\n      sub\n        /* \"#utility.yul\":12590:12622   */\n      slt\n        /* \"#utility.yul\":12587:12706   */\n      iszero\n      tag_652\n      jumpi\n        /* \"#utility.yul\":12625:12704   */\n      tag_653\n      tag_424\n      jump\t// in\n    tag_653:\n        /* \"#utility.yul\":12587:12706   */\n    tag_652:\n        /* \"#utility.yul\":12745:12746   */\n      0x00\n        /* \"#utility.yul\":12770:12832   */\n      tag_654\n        /* \"#utility.yul\":12824:12831   */\n      dup5\n        /* \"#utility.yul\":12815:12821   */\n      dup3\n        /* \"#utility.yul\":12804:12813   */\n      dup6\n        /* \"#utility.yul\":12800:12822   */\n      add\n        /* \"#utility.yul\":12770:12832   */\n      tag_466\n      jump\t// in\n    tag_654:\n        /* \"#utility.yul\":12760:12832   */\n      swap2\n      pop\n        /* \"#utility.yul\":12716:12842   */\n      pop\n        /* \"#utility.yul\":12502:12849   */\n      swap3\n      swap2\n      pop\n      pop\n      jump\t// out\n        /* \"#utility.yul\":12855:12977   */\n    tag_472:\n        /* \"#utility.yul\":12928:12952   */\n      tag_656\n        /* \"#utility.yul\":12946:12951   */\n      dup2\n        /* \"#utility.yul\":12928:12952   */\n      tag_430\n      jump\t// in\n    tag_656:\n        /* \"#utility.yul\":12921:12926   */\n      dup2\n        /* \"#utility.yul\":12918:12953   */\n      eq\n        /* \"#utility.yul\":12908:12971   */\n      tag_657\n      jumpi\n        /* \"#utility.yul\":12967:12968   */\n      0x00\n        /* \"#utility.yul\":12964:12965   */\n      0x00\n        /* \"#utility.yul\":12957:12969   */\n      revert\n        /* \"#utility.yul\":12908:12971   */\n    tag_657:\n        /* \"#utility.yul\":12855:12977   */\n      pop\n      jump\t// out\n        /* \"#utility.yul\":12983:13126   */\n    tag_473:\n        /* \"#utility.yul\":13040:13045   */\n      0x00\n        /* \"#utility.yul\":13071:13077   */\n      dup2\n        /* \"#utility.yul\":13065:13078   */\n      mload\n        /* \"#utility.yul\":13056:13078   */\n      swap1\n      pop\n        /* \"#utility.yul\":13087:13120   */\n      tag_659\n        /* \"#utility.yul\":13114:13119   */\n      dup2\n        /* \"#utility.yul\":13087:13120   */\n      tag_472\n      jump\t// in\n    tag_659:\n        /* \"#utility.yul\":12983:13126   */\n      swap3\n      swap2\n      pop\n      pop\n      jump\t// out\n        /* \"#utility.yul\":13132:13483   */\n    tag_178:\n        /* \"#utility.yul\":13202:13208   */\n      0x00\n        /* \"#utility.yul\":13251:13253   */\n      0x20\n        /* \"#utility.yul\":13239:13248   */\n      dup3\n        /* \"#utility.yul\":13230:13237   */\n      dup5\n        /* \"#utility.yul\":13226:13249   */\n      sub\n        /* \"#utility.yul\":13222:13254   */\n      slt\n        /* \"#utility.yul\":13219:13338   */\n      iszero\n      tag_661\n      jumpi\n        /* \"#utility.yul\":13257:13336   */\n      tag_662\n      tag_424\n      jump\t// in\n    tag_662:\n        /* \"#utility.yul\":13219:13338   */\n    tag_661:\n        /* \"#utility.yul\":13377:13378   */\n      0x00\n        /* \"#utility.yul\":13402:13466   */\n      tag_663\n        /* \"#utility.yul\":13458:13465   */\n      dup5\n        /* \"#utility.yul\":13449:13455   */\n      dup3\n        /* \"#utility.yul\":13438:13447   */\n      dup6\n        /* \"#utility.yul\":13434:13456   */\n      add\n        /* \"#utility.yul\":13402:13466   */\n      tag_473\n      jump\t// in\n    tag_663:\n        /* \"#utility.yul\":13392:13466   */\n      swap2\n      pop\n        /* \"#utility.yul\":13348:13476   */\n      pop\n        /* \"#utility.yul\":13132:13483   */\n      swap3\n      swap2\n      pop\n      pop\n      jump\t// out\n        /* \"#utility.yul\":13489:13662   */\n    tag_474:\n        /* \"#utility.yul\":13629:13654   */\n      0x43616c6c6572206973206e6f7420746865206f776e6572000000000000000000\n        /* \"#utility.yul\":13625:13626   */\n      0x00\n        /* \"#utility.yul\":13617:13623   */\n      dup3\n        /* \"#utility.yul\":13613:13627   */\n      add\n        /* \"#utility.yul\":13606:13655   */\n      mstore\n        /* \"#utility.yul\":13489:13662   */\n      pop\n      jump\t// out\n        /* \"#utility.yul\":13668:14034   */\n    tag_475:\n        /* \"#utility.yul\":13810:13813   */\n      0x00\n        /* \"#utility.yul\":13831:13898   */\n      tag_666\n        /* \"#utility.yul\":13895:13897   */\n      0x17\n        /* \"#utility.yul\":13890:13893   */\n      dup4\n        /* \"#utility.yul\":13831:13898   */\n      tag_453\n      jump\t// in\n    tag_666:\n        /* \"#utility.yul\":13824:13898   */\n      swap2\n      pop\n        /* \"#utility.yul\":13907:14000   */\n      tag_667\n        /* \"#utility.yul\":13996:13999   */\n      dup3\n        /* \"#utility.yul\":13907:14000   */\n      tag_474\n      jump\t// in\n    tag_667:\n        /* \"#utility.yul\":14025:14027   */\n      0x20\n        /* \"#utility.yul\":14020:14023   */\n      dup3\n        /* \"#utility.yul\":14016:14028   */\n      add\n        /* \"#utility.yul\":14009:14028   */\n      swap1\n      pop\n        /* \"#utility.yul\":13668:14034   */\n      swap2\n      swap1\n      pop\n      jump\t// out\n        /* \"#utility.yul\":14040:14459   */\n    tag_209:\n        /* \"#utility.yul\":14206:14210   */\n      0x00\n        /* \"#utility.yul\":14244:14246   */\n      0x20\n        /* \"#utility.yul\":14233:14242   */\n      dup3\n        /* \"#utility.yul\":14229:14247   */\n      add\n        /* \"#utility.yul\":14221:14247   */\n      swap1\n      pop\n        /* \"#utility.yul\":14293:14302   */\n      dup2\n        /* \"#utility.yul\":14287:14291   */\n      dup2\n        /* \"#utility.yul\":14283:14303   */\n      sub\n        /* \"#utility.yul\":14279:14280   */\n      0x00\n        /* \"#utility.yul\":14268:14277   */\n      dup4\n        /* \"#utility.yul\":14264:14281   */\n      add\n        /* \"#utility.yul\":14257:14304   */\n      mstore\n        /* \"#utility.yul\":14321:14452   */\n      tag_669\n        /* \"#utility.yul\":14447:14451   */\n      dup2\n        /* \"#utility.yul\":14321:14452   */\n      tag_475\n      jump\t// in\n    tag_669:\n        /* \"#utility.yul\":14313:14452   */\n      swap1\n      pop\n        /* \"#utility.yul\":14040:14459   */\n      swap2\n      swap1\n      pop\n      jump\t// out\n        /* \"#utility.yul\":14465:14785   */\n    tag_217:\n        /* \"#utility.yul\":14580:14584   */\n      0x00\n        /* \"#utility.yul\":14618:14620   */\n      0x40\n        /* \"#utility.yul\":14607:14616   */\n      dup3\n        /* \"#utility.yul\":14603:14621   */\n      add\n        /* \"#utility.yul\":14595:14621   */\n      swap1\n      pop\n        /* \"#utility.yul\":14631:14702   */\n      tag_671\n        /* \"#utility.yul\":14699:14700   */\n      0x00\n        /* \"#utility.yul\":14688:14697   */\n      dup4\n        /* \"#utility.yul\":14684:14701   */\n      add\n        /* \"#utility.yul\":14675:14681   */\n      dup6\n        /* \"#utility.yul\":14631:14702   */\n      tag_432\n      jump\t// in\n    tag_671:\n        /* \"#utility.yul\":14712:14778   */\n      tag_672\n        /* \"#utility.yul\":14774:14776   */\n      0x20\n        /* \"#utility.yul\":14763:14772   */\n      dup4\n        /* \"#utility.yul\":14759:14777   */\n      add\n        /* \"#utility.yul\":14750:14756   */\n      dup5\n        /* \"#utility.yul\":14712:14778   */\n      tag_444\n      jump\t// in\n    tag_672:\n        /* \"#utility.yul\":14465:14785   */\n      swap4\n      swap3\n      pop\n      pop\n      pop\n      jump\t// out\n        /* \"#utility.yul\":14791:14905   */\n    tag_476:\n        /* \"#utility.yul\":14828:14835   */\n      0x00\n        /* \"#utility.yul\":14868:14898   */\n      0xffffffffffffffffffffffffffff\n        /* \"#utility.yul\":14861:14866   */\n      dup3\n        /* \"#utility.yul\":14857:14899   */\n      and\n        /* \"#utility.yul\":14846:14899   */\n      swap1\n      pop\n        /* \"#utility.yul\":14791:14905   */\n      swap2\n      swap1\n      pop\n      jump\t// out\n        /* \"#utility.yul\":14911:15033   */\n    tag_477:\n        /* \"#utility.yul\":14984:15008   */\n      tag_675\n        /* \"#utility.yul\":15002:15007   */\n      dup2\n        /* \"#utility.yul\":14984:15008   */\n      tag_476\n      jump\t// in\n    tag_675:\n        /* \"#utility.yul\":14977:14982   */\n      dup2\n        /* \"#utility.yul\":14974:15009   */\n      eq\n        /* \"#utility.yul\":14964:15027   */\n      tag_676\n      jumpi\n        /* \"#utility.yul\":15023:15024   */\n      0x00\n        /* \"#utility.yul\":15020:15021   */\n      0x00\n        /* \"#utility.yul\":15013:15025   */\n      revert\n        /* \"#utility.yul\":14964:15027   */\n    tag_676:\n        /* \"#utility.yul\":14911:15033   */\n      pop\n      jump\t// out\n        /* \"#utility.yul\":15039:15182   */\n    tag_478:\n        /* \"#utility.yul\":15096:15101   */\n      0x00\n        /* \"#utility.yul\":15127:15133   */\n      dup2\n        /* \"#utility.yul\":15121:15134   */\n      mload\n        /* \"#utility.yul\":15112:15134   */\n      swap1\n      pop\n        /* \"#utility.yul\":15143:15176   */\n      tag_678\n        /* \"#utility.yul\":15170:15175   */\n      dup2\n        /* \"#utility.yul\":15143:15176   */\n      tag_477\n      jump\t// in\n    tag_678:\n        /* \"#utility.yul\":15039:15182   */\n      swap3\n      swap2\n      pop\n      pop\n      jump\t// out\n        /* \"#utility.yul\":15188:15281   */\n    tag_479:\n        /* \"#utility.yul\":15224:15231   */\n      0x00\n        /* \"#utility.yul\":15264:15274   */\n      0xffffffff\n        /* \"#utility.yul\":15257:15262   */\n      dup3\n        /* \"#utility.yul\":15253:15275   */\n      and\n        /* \"#utility.yul\":15242:15275   */\n      swap1\n      pop\n        /* \"#utility.yul\":15188:15281   */\n      swap2\n      swap1\n      pop\n      jump\t// out\n        /* \"#utility.yul\":15287:15407   */\n    tag_480:\n        /* \"#utility.yul\":15359:15382   */\n      tag_681\n        /* \"#utility.yul\":15376:15381   */\n      dup2\n        /* \"#utility.yul\":15359:15382   */\n      tag_479\n      jump\t// in\n    tag_681:\n        /* \"#utility.yul\":15352:15357   */\n      dup2\n        /* \"#utility.yul\":15349:15383   */\n      eq\n        /* \"#utility.yul\":15339:15401   */\n      tag_682\n      jumpi\n        /* \"#utility.yul\":15397:15398   */\n      0x00\n        /* \"#utility.yul\":15394:15395   */\n      0x00\n        /* \"#utility.yul\":15387:15399   */\n      revert\n        /* \"#utility.yul\":15339:15401   */\n    tag_682:\n        /* \"#utility.yul\":15287:15407   */\n      pop\n      jump\t// out\n        /* \"#utility.yul\":15413:15554   */\n    tag_481:\n        /* \"#utility.yul\":15469:15474   */\n      0x00\n        /* \"#utility.yul\":15500:15506   */\n      dup2\n        /* \"#utility.yul\":15494:15507   */\n      mload\n        /* \"#utility.yul\":15485:15507   */\n      swap1\n      pop\n        /* \"#utility.yul\":15516:15548   */\n      tag_684\n        /* \"#utility.yul\":15542:15547   */\n      dup2\n        /* \"#utility.yul\":15516:15548   */\n      tag_480\n      jump\t// in\n    tag_684:\n        /* \"#utility.yul\":15413:15554   */\n      swap3\n      swap2\n      pop\n      pop\n      jump\t// out\n        /* \"#utility.yul\":15560:16221   */\n    tag_231:\n        /* \"#utility.yul\":15647:15653   */\n      0x00\n        /* \"#utility.yul\":15655:15661   */\n      0x00\n        /* \"#utility.yul\":15663:15669   */\n      0x00\n        /* \"#utility.yul\":15712:15714   */\n      0x60\n        /* \"#utility.yul\":15700:15709   */\n      dup5\n        /* \"#utility.yul\":15691:15698   */\n      dup7\n        /* \"#utility.yul\":15687:15710   */\n      sub\n        /* \"#utility.yul\":15683:15715   */\n      slt\n        /* \"#utility.yul\":15680:15799   */\n      iszero\n      tag_686\n      jumpi\n        /* \"#utility.yul\":15718:15797   */\n      tag_687\n      tag_424\n      jump\t// in\n    tag_687:\n        /* \"#utility.yul\":15680:15799   */\n    tag_686:\n        /* \"#utility.yul\":15838:15839   */\n      0x00\n        /* \"#utility.yul\":15863:15927   */\n      tag_688\n        /* \"#utility.yul\":15919:15926   */\n      dup7\n        /* \"#utility.yul\":15910:15916   */\n      dup3\n        /* \"#utility.yul\":15899:15908   */\n      dup8\n        /* \"#utility.yul\":15895:15917   */\n      add\n        /* \"#utility.yul\":15863:15927   */\n      tag_478\n      jump\t// in\n    tag_688:\n        /* \"#utility.yul\":15853:15927   */\n      swap4\n      pop\n        /* \"#utility.yul\":15809:15937   */\n      pop\n        /* \"#utility.yul\":15976:15978   */\n      0x20\n        /* \"#utility.yul\":16002:16066   */\n      tag_689\n        /* \"#utility.yul\":16058:16065   */\n      dup7\n        /* \"#utility.yul\":16049:16055   */\n      dup3\n        /* \"#utility.yul\":16038:16047   */\n      dup8\n        /* \"#utility.yul\":16034:16056   */\n      add\n        /* \"#utility.yul\":16002:16066   */\n      tag_478\n      jump\t// in\n    tag_689:\n        /* \"#utility.yul\":15992:16066   */\n      swap3\n      pop\n        /* \"#utility.yul\":15947:16076   */\n      pop\n        /* \"#utility.yul\":16115:16117   */\n      0x40\n        /* \"#utility.yul\":16141:16204   */\n      tag_690\n        /* \"#utility.yul\":16196:16203   */\n      dup7\n        /* \"#utility.yul\":16187:16193   */\n      dup3\n        /* \"#utility.yul\":16176:16185   */\n      dup8\n        /* \"#utility.yul\":16172:16194   */\n      add\n        /* \"#utility.yul\":16141:16204   */\n      tag_481\n      jump\t// in\n    tag_690:\n        /* \"#utility.yul\":16131:16204   */\n      swap2\n      pop\n        /* \"#utility.yul\":16086:16214   */\n      pop\n        /* \"#utility.yul\":15560:16221   */\n      swap3\n      pop\n      swap3\n      pop\n      swap3\n      jump\t// out\n        /* \"#utility.yul\":16227:16407   */\n    tag_275:\n        /* \"#utility.yul\":16275:16352   */\n      0x4e487b7100000000000000000000000000000000000000000000000000000000\n        /* \"#utility.yul\":16272:16273   */\n      0x00\n        /* \"#utility.yul\":16265:16353   */\n      mstore\n        /* \"#utility.yul\":16372:16376   */\n      0x12\n        /* \"#utility.yul\":16369:16370   */\n      0x04\n        /* \"#utility.yul\":16362:16377   */\n      mstore\n        /* \"#utility.yul\":16396:16400   */\n      0x24\n        /* \"#utility.yul\":16393:16394   */\n      0x00\n        /* \"#utility.yul\":16386:16401   */\n      revert\n        /* \"#utility.yul\":16413:16578   */\n    tag_482:\n        /* \"#utility.yul\":16553:16570   */\n      0x6d756c446976206f766572666c6f770000000000000000000000000000000000\n        /* \"#utility.yul\":16549:16550   */\n      0x00\n        /* \"#utility.yul\":16541:16547   */\n      dup3\n        /* \"#utility.yul\":16537:16551   */\n      add\n        /* \"#utility.yul\":16530:16571   */\n      mstore\n        /* \"#utility.yul\":16413:16578   */\n      pop\n      jump\t// out\n        /* \"#utility.yul\":16584:16950   */\n    tag_483:\n        /* \"#utility.yul\":16726:16729   */\n      0x00\n        /* \"#utility.yul\":16747:16814   */\n      tag_694\n        /* \"#utility.yul\":16811:16813   */\n      0x0f\n        /* \"#utility.yul\":16806:16809   */\n      dup4\n        /* \"#utility.yul\":16747:16814   */\n      tag_453\n      jump\t// in\n    tag_694:\n        /* \"#utility.yul\":16740:16814   */\n      swap2\n      pop\n        /* \"#utility.yul\":16823:16916   */\n      tag_695\n        /* \"#utility.yul\":16912:16915   */\n      dup3\n        /* \"#utility.yul\":16823:16916   */\n      tag_482\n      jump\t// in\n    tag_695:\n        /* \"#utility.yul\":16941:16943   */\n      0x20\n        /* \"#utility.yul\":16936:16939   */\n      dup3\n        /* \"#utility.yul\":16932:16944   */\n      add\n        /* \"#utility.yul\":16925:16944   */\n      swap1\n      pop\n        /* \"#utility.yul\":16584:16950   */\n      swap2\n      swap1\n      pop\n      jump\t// out\n        /* \"#utility.yul\":16956:17375   */\n    tag_278:\n        /* \"#utility.yul\":17122:17126   */\n      0x00\n        /* \"#utility.yul\":17160:17162   */\n      0x20\n        /* \"#utility.yul\":17149:17158   */\n      dup3\n        /* \"#utility.yul\":17145:17163   */\n      add\n        /* \"#utility.yul\":17137:17163   */\n      swap1\n      pop\n        /* \"#utility.yul\":17209:17218   */\n      dup2\n        /* \"#utility.yul\":17203:17207   */\n      dup2\n        /* \"#utility.yul\":17199:17219   */\n      sub\n        /* \"#utility.yul\":17195:17196   */\n      0x00\n        /* \"#utility.yul\":17184:17193   */\n      dup4\n        /* \"#utility.yul\":17180:17197   */\n      add\n        /* \"#utility.yul\":17173:17220   */\n      mstore\n        /* \"#utility.yul\":17237:17368   */\n      tag_697\n        /* \"#utility.yul\":17363:17367   */\n      dup2\n        /* \"#utility.yul\":17237:17368   */\n      tag_483\n      jump\t// in\n    tag_697:\n        /* \"#utility.yul\":17229:17368   */\n      swap1\n      pop\n        /* \"#utility.yul\":16956:17375   */\n      swap2\n      swap1\n      pop\n      jump\t// out\n        /* \"#utility.yul\":17381:17498   */\n    tag_484:\n        /* \"#utility.yul\":17490:17491   */\n      0x00\n        /* \"#utility.yul\":17487:17488   */\n      0x00\n        /* \"#utility.yul\":17480:17492   */\n      revert\n        /* \"#utility.yul\":17627:17718   */\n    tag_486:\n        /* \"#utility.yul\":17663:17670   */\n      0x00\n        /* \"#utility.yul\":17703:17711   */\n      0xffffff\n        /* \"#utility.yul\":17696:17701   */\n      dup3\n        /* \"#utility.yul\":17692:17712   */\n      and\n        /* \"#utility.yul\":17681:17712   */\n      swap1\n      pop\n        /* \"#utility.yul\":17627:17718   */\n      swap2\n      swap1\n      pop\n      jump\t// out\n        /* \"#utility.yul\":17724:17844   */\n    tag_487:\n        /* \"#utility.yul\":17796:17819   */\n      tag_702\n        /* \"#utility.yul\":17813:17818   */\n      dup2\n        /* \"#utility.yul\":17796:17819   */\n      tag_486\n      jump\t// in\n    tag_702:\n        /* \"#utility.yul\":17789:17794   */\n      dup2\n        /* \"#utility.yul\":17786:17820   */\n      eq\n        /* \"#utility.yul\":17776:17838   */\n      tag_703\n      jumpi\n        /* \"#utility.yul\":17834:17835   */\n      0x00\n        /* \"#utility.yul\":17831:17832   */\n      0x00\n        /* \"#utility.yul\":17824:17836   */\n      revert\n        /* \"#utility.yul\":17776:17838   */\n    tag_703:\n        /* \"#utility.yul\":17724:17844   */\n      pop\n      jump\t// out\n        /* \"#utility.yul\":17850:17991   */\n    tag_488:\n        /* \"#utility.yul\":17906:17911   */\n      0x00\n        /* \"#utility.yul\":17937:17943   */\n      dup2\n        /* \"#utility.yul\":17931:17944   */\n      mload\n        /* \"#utility.yul\":17922:17944   */\n      swap1\n      pop\n        /* \"#utility.yul\":17953:17985   */\n      tag_705\n        /* \"#utility.yul\":17979:17984   */\n      dup2\n        /* \"#utility.yul\":17953:17985   */\n      tag_487\n      jump\t// in\n    tag_705:\n        /* \"#utility.yul\":17850:17991   */\n      swap3\n      swap2\n      pop\n      pop\n      jump\t// out\n        /* \"#utility.yul\":17997:18098   */\n    tag_489:\n        /* \"#utility.yul\":18033:18040   */\n      0x00\n        /* \"#utility.yul\":18073:18091   */\n      0xffffffffffffffff\n        /* \"#utility.yul\":18066:18071   */\n      dup3\n        /* \"#utility.yul\":18062:18092   */\n      and\n        /* \"#utility.yul\":18051:18092   */\n      swap1\n      pop\n        /* \"#utility.yul\":17997:18098   */\n      swap2\n      swap1\n      pop\n      jump\t// out\n        /* \"#utility.yul\":18104:18224   */\n    tag_490:\n        /* \"#utility.yul\":18176:18199   */\n      tag_708\n        /* \"#utility.yul\":18193:18198   */\n      dup2\n        /* \"#utility.yul\":18176:18199   */\n      tag_489\n      jump\t// in\n    tag_708:\n        /* \"#utility.yul\":18169:18174   */\n      dup2\n        /* \"#utility.yul\":18166:18200   */\n      eq\n        /* \"#utility.yul\":18156:18218   */\n      tag_709\n      jumpi\n        /* \"#utility.yul\":18214:18215   */\n      0x00\n        /* \"#utility.yul\":18211:18212   */\n      0x00\n        /* \"#utility.yul\":18204:18216   */\n      revert\n        /* \"#utility.yul\":18156:18218   */\n    tag_709:\n        /* \"#utility.yul\":18104:18224   */\n      pop\n      jump\t// out\n        /* \"#utility.yul\":18230:18371   */\n    tag_491:\n        /* \"#utility.yul\":18286:18291   */\n      0x00\n        /* \"#utility.yul\":18317:18323   */\n      dup2\n        /* \"#utility.yul\":18311:18324   */\n      mload\n        /* \"#utility.yul\":18302:18324   */\n      swap1\n      pop\n        /* \"#utility.yul\":18333:18365   */\n      tag_711\n        /* \"#utility.yul\":18359:18364   */\n      dup2\n        /* \"#utility.yul\":18333:18365   */\n      tag_490\n      jump\t// in\n    tag_711:\n        /* \"#utility.yul\":18230:18371   */\n      swap3\n      swap2\n      pop\n      pop\n      jump\t// out\n        /* \"#utility.yul\":18396:19360   */\n    tag_492:\n        /* \"#utility.yul\":18478:18483   */\n      0x00\n        /* \"#utility.yul\":18522:18526   */\n      0x80\n        /* \"#utility.yul\":18510:18519   */\n      dup3\n        /* \"#utility.yul\":18505:18508   */\n      dup5\n        /* \"#utility.yul\":18501:18520   */\n      sub\n        /* \"#utility.yul\":18497:18527   */\n      slt\n        /* \"#utility.yul\":18494:18611   */\n      iszero\n      tag_713\n      jumpi\n        /* \"#utility.yul\":18530:18609   */\n      tag_714\n      tag_484\n      jump\t// in\n    tag_714:\n        /* \"#utility.yul\":18494:18611   */\n    tag_713:\n        /* \"#utility.yul\":18629:18650   */\n      tag_715\n        /* \"#utility.yul\":18645:18649   */\n      0x80\n        /* \"#utility.yul\":18629:18650   */\n      tag_438\n      jump\t// in\n    tag_715:\n        /* \"#utility.yul\":18620:18650   */\n      swap1\n      pop\n        /* \"#utility.yul\":18716:18717   */\n      0x00\n        /* \"#utility.yul\":18756:18816   */\n      tag_716\n        /* \"#utility.yul\":18812:18815   */\n      dup5\n        /* \"#utility.yul\":18803:18809   */\n      dup3\n        /* \"#utility.yul\":18792:18801   */\n      dup6\n        /* \"#utility.yul\":18788:18810   */\n      add\n        /* \"#utility.yul\":18756:18816   */\n      tag_456\n      jump\t// in\n    tag_716:\n        /* \"#utility.yul\":18749:18753   */\n      0x00\n        /* \"#utility.yul\":18742:18747   */\n      dup4\n        /* \"#utility.yul\":18738:18754   */\n      add\n        /* \"#utility.yul\":18731:18817   */\n      mstore\n        /* \"#utility.yul\":18660:18828   */\n      pop\n        /* \"#utility.yul\":18890:18892   */\n      0x20\n        /* \"#utility.yul\":18931:18990   */\n      tag_717\n        /* \"#utility.yul\":18986:18989   */\n      dup5\n        /* \"#utility.yul\":18977:18983   */\n      dup3\n        /* \"#utility.yul\":18966:18975   */\n      dup6\n        /* \"#utility.yul\":18962:18984   */\n      add\n        /* \"#utility.yul\":18931:18990   */\n      tag_488\n      jump\t// in\n    tag_717:\n        /* \"#utility.yul\":18924:18928   */\n      0x20\n        /* \"#utility.yul\":18917:18922   */\n      dup4\n        /* \"#utility.yul\":18913:18929   */\n      add\n        /* \"#utility.yul\":18906:18991   */\n      mstore\n        /* \"#utility.yul\":18838:19002   */\n      pop\n        /* \"#utility.yul\":19065:19067   */\n      0x40\n        /* \"#utility.yul\":19106:19164   */\n      tag_718\n        /* \"#utility.yul\":19160:19163   */\n      dup5\n        /* \"#utility.yul\":19151:19157   */\n      dup3\n        /* \"#utility.yul\":19140:19149   */\n      dup6\n        /* \"#utility.yul\":19136:19158   */\n      add\n        /* \"#utility.yul\":19106:19164   */\n      tag_466\n      jump\t// in\n    tag_718:\n        /* \"#utility.yul\":19099:19103   */\n      0x40\n        /* \"#utility.yul\":19092:19097   */\n      dup4\n        /* \"#utility.yul\":19088:19104   */\n      add\n        /* \"#utility.yul\":19081:19165   */\n      mstore\n        /* \"#utility.yul\":19012:19176   */\n      pop\n        /* \"#utility.yul\":19241:19243   */\n      0x60\n        /* \"#utility.yul\":19282:19341   */\n      tag_719\n        /* \"#utility.yul\":19337:19340   */\n      dup5\n        /* \"#utility.yul\":19328:19334   */\n      dup3\n        /* \"#utility.yul\":19317:19326   */\n      dup6\n        /* \"#utility.yul\":19313:19335   */\n      add\n        /* \"#utility.yul\":19282:19341   */\n      tag_491\n      jump\t// in\n    tag_719:\n        /* \"#utility.yul\":19275:19279   */\n      0x60\n        /* \"#utility.yul\":19268:19273   */\n      dup4\n        /* \"#utility.yul\":19264:19280   */\n      add\n        /* \"#utility.yul\":19257:19342   */\n      mstore\n        /* \"#utility.yul\":19186:19353   */\n      pop\n        /* \"#utility.yul\":18396:19360   */\n      swap3\n      swap2\n      pop\n      pop\n      jump\t// out\n        /* \"#utility.yul\":19366:19762   */\n    tag_304:\n        /* \"#utility.yul\":19458:19464   */\n      0x00\n        /* \"#utility.yul\":19507:19510   */\n      0x80\n        /* \"#utility.yul\":19495:19504   */\n      dup3\n        /* \"#utility.yul\":19486:19493   */\n      dup5\n        /* \"#utility.yul\":19482:19505   */\n      sub\n        /* \"#utility.yul\":19478:19511   */\n      slt\n        /* \"#utility.yul\":19475:19595   */\n      iszero\n      tag_721\n      jumpi\n        /* \"#utility.yul\":19514:19593   */\n      tag_722\n      tag_424\n      jump\t// in\n    tag_722:\n        /* \"#utility.yul\":19475:19595   */\n    tag_721:\n        /* \"#utility.yul\":19634:19635   */\n      0x00\n        /* \"#utility.yul\":19659:19745   */\n      tag_723\n        /* \"#utility.yul\":19737:19744   */\n      dup5\n        /* \"#utility.yul\":19728:19734   */\n      dup3\n        /* \"#utility.yul\":19717:19726   */\n      dup6\n        /* \"#utility.yul\":19713:19735   */\n      add\n        /* \"#utility.yul\":19659:19745   */\n      tag_492\n      jump\t// in\n    tag_723:\n        /* \"#utility.yul\":19649:19745   */\n      swap2\n      pop\n        /* \"#utility.yul\":19605:19755   */\n      pop\n        /* \"#utility.yul\":19366:19762   */\n      swap3\n      swap2\n      pop\n      pop\n      jump\t// out\n        /* \"#utility.yul\":19768:19950   */\n    tag_493:\n        /* \"#utility.yul\":19908:19942   */\n      0x4469726563746f72792063616e6e6f74206265207a65726f2061646472657373\n        /* \"#utility.yul\":19904:19905   */\n      0x00\n        /* \"#utility.yul\":19896:19902   */\n      dup3\n        /* \"#utility.yul\":19892:19906   */\n      add\n        /* \"#utility.yul\":19885:19943   */\n      mstore\n        /* \"#utility.yul\":19768:19950   */\n      pop\n      jump\t// out\n        /* \"#utility.yul\":19956:20322   */\n    tag_494:\n        /* \"#utility.yul\":20098:20101   */\n      0x00\n        /* \"#utility.yul\":20119:20186   */\n      tag_726\n        /* \"#utility.yul\":20183:20185   */\n      0x20\n        /* \"#utility.yul\":20178:20181   */\n      dup4\n        /* \"#utility.yul\":20119:20186   */\n      tag_453\n      jump\t// in\n    tag_726:\n        /* \"#utility.yul\":20112:20186   */\n      swap2\n      pop\n        /* \"#utility.yul\":20195:20288   */\n      tag_727\n        /* \"#utility.yul\":20284:20287   */\n      dup3\n        /* \"#utility.yul\":20195:20288   */\n      tag_493\n      jump\t// in\n    tag_727:\n        /* \"#utility.yul\":20313:20315   */\n      0x20\n        /* \"#utility.yul\":20308:20311   */\n      dup3\n        /* \"#utility.yul\":20304:20316   */\n      add\n        /* \"#utility.yul\":20297:20316   */\n      swap1\n      pop\n        /* \"#utility.yul\":19956:20322   */\n      swap2\n      swap1\n      pop\n      jump\t// out\n        /* \"#utility.yul\":20328:20747   */\n    tag_324:\n        /* \"#utility.yul\":20494:20498   */\n      0x00\n        /* \"#utility.yul\":20532:20534   */\n      0x20\n        /* \"#utility.yul\":20521:20530   */\n      dup3\n        /* \"#utility.yul\":20517:20535   */\n      add\n        /* \"#utility.yul\":20509:20535   */\n      swap1\n      pop\n        /* \"#utility.yul\":20581:20590   */\n      dup2\n        /* \"#utility.yul\":20575:20579   */\n      dup2\n        /* \"#utility.yul\":20571:20591   */\n      sub\n        /* \"#utility.yul\":20567:20568   */\n      0x00\n        /* \"#utility.yul\":20556:20565   */\n      dup4\n        /* \"#utility.yul\":20552:20569   */\n      add\n        /* \"#utility.yul\":20545:20592   */\n      mstore\n        /* \"#utility.yul\":20609:20740   */\n      tag_729\n        /* \"#utility.yul\":20735:20739   */\n      dup2\n        /* \"#utility.yul\":20609:20740   */\n      tag_494\n      jump\t// in\n    tag_729:\n        /* \"#utility.yul\":20601:20740   */\n      swap1\n      pop\n        /* \"#utility.yul\":20328:20747   */\n      swap2\n      swap1\n      pop\n      jump\t// out\n        /* \"#utility.yul\":20753:20931   */\n    tag_495:\n        /* \"#utility.yul\":20893:20923   */\n      0x4469726563746f7279206d757374206265206120636f6e747261637400000000\n        /* \"#utility.yul\":20889:20890   */\n      0x00\n        /* \"#utility.yul\":20881:20887   */\n      dup3\n        /* \"#utility.yul\":20877:20891   */\n      add\n        /* \"#utility.yul\":20870:20924   */\n      mstore\n        /* \"#utility.yul\":20753:20931   */\n      pop\n      jump\t// out\n        /* \"#utility.yul\":20937:21303   */\n    tag_496:\n        /* \"#utility.yul\":21079:21082   */\n      0x00\n        /* \"#utility.yul\":21100:21167   */\n      tag_732\n        /* \"#utility.yul\":21164:21166   */\n      0x1c\n        /* \"#utility.yul\":21159:21162   */\n      dup4\n        /* \"#utility.yul\":21100:21167   */\n      tag_453\n      jump\t// in\n    tag_732:\n        /* \"#utility.yul\":21093:21167   */\n      swap2\n      pop\n        /* \"#utility.yul\":21176:21269   */\n      tag_733\n        /* \"#utility.yul\":21265:21268   */\n      dup3\n        /* \"#utility.yul\":21176:21269   */\n      tag_495\n      jump\t// in\n    tag_733:\n        /* \"#utility.yul\":21294:21296   */\n      0x20\n        /* \"#utility.yul\":21289:21292   */\n      dup3\n        /* \"#utility.yul\":21285:21297   */\n      add\n        /* \"#utility.yul\":21278:21297   */\n      swap1\n      pop\n        /* \"#utility.yul\":20937:21303   */\n      swap2\n      swap1\n      pop\n      jump\t// out\n        /* \"#utility.yul\":21309:21728   */\n    tag_327:\n        /* \"#utility.yul\":21475:21479   */\n      0x00\n        /* \"#utility.yul\":21513:21515   */\n      0x20\n        /* \"#utility.yul\":21502:21511   */\n      dup3\n        /* \"#utility.yul\":21498:21516   */\n      add\n        /* \"#utility.yul\":21490:21516   */\n      swap1\n      pop\n        /* \"#utility.yul\":21562:21571   */\n      dup2\n        /* \"#utility.yul\":21556:21560   */\n      dup2\n        /* \"#utility.yul\":21552:21572   */\n      sub\n        /* \"#utility.yul\":21548:21549   */\n      0x00\n        /* \"#utility.yul\":21537:21546   */\n      dup4\n        /* \"#utility.yul\":21533:21550   */\n      add\n        /* \"#utility.yul\":21526:21573   */\n      mstore\n        /* \"#utility.yul\":21590:21721   */\n      tag_735\n        /* \"#utility.yul\":21716:21720   */\n      dup2\n        /* \"#utility.yul\":21590:21721   */\n      tag_496\n      jump\t// in\n    tag_735:\n        /* \"#utility.yul\":21582:21721   */\n      swap1\n      pop\n        /* \"#utility.yul\":21309:21728   */\n      swap2\n      swap1\n      pop\n      jump\t// out\n        /* \"#utility.yul\":21734:21965   */\n    tag_497:\n        /* \"#utility.yul\":21874:21908   */\n      0x4469726563746f7279206164647265737320646f6573206e6f7420696d706c65\n        /* \"#utility.yul\":21870:21871   */\n      0x00\n        /* \"#utility.yul\":21862:21868   */\n      dup3\n        /* \"#utility.yul\":21858:21872   */\n      add\n        /* \"#utility.yul\":21851:21909   */\n      mstore\n        /* \"#utility.yul\":21943:21957   */\n      0x6d656e74206f776e657228290000000000000000000000000000000000000000\n        /* \"#utility.yul\":21938:21940   */\n      0x20\n        /* \"#utility.yul\":21930:21936   */\n      dup3\n        /* \"#utility.yul\":21926:21941   */\n      add\n        /* \"#utility.yul\":21919:21958   */\n      mstore\n        /* \"#utility.yul\":21734:21965   */\n      pop\n      jump\t// out\n        /* \"#utility.yul\":21971:22337   */\n    tag_498:\n        /* \"#utility.yul\":22113:22116   */\n      0x00\n        /* \"#utility.yul\":22134:22201   */\n      tag_738\n        /* \"#utility.yul\":22198:22200   */\n      0x2c\n        /* \"#utility.yul\":22193:22196   */\n      dup4\n        /* \"#utility.yul\":22134:22201   */\n      tag_453\n      jump\t// in\n    tag_738:\n        /* \"#utility.yul\":22127:22201   */\n      swap2\n      pop\n        /* \"#utility.yul\":22210:22303   */\n      tag_739\n        /* \"#utility.yul\":22299:22302   */\n      dup3\n        /* \"#utility.yul\":22210:22303   */\n      tag_497\n      jump\t// in\n    tag_739:\n        /* \"#utility.yul\":22328:22330   */\n      0x40\n        /* \"#utility.yul\":22323:22326   */\n      dup3\n        /* \"#utility.yul\":22319:22331   */\n      add\n        /* \"#utility.yul\":22312:22331   */\n      swap1\n      pop\n        /* \"#utility.yul\":21971:22337   */\n      swap2\n      swap1\n      pop\n      jump\t// out\n        /* \"#utility.yul\":22343:22762   */\n    tag_335:\n        /* \"#utility.yul\":22509:22513   */\n      0x00\n        /* \"#utility.yul\":22547:22549   */\n      0x20\n        /* \"#utility.yul\":22536:22545   */\n      dup3\n        /* \"#utility.yul\":22532:22550   */\n      add\n        /* \"#utility.yul\":22524:22550   */\n      swap1\n      pop\n        /* \"#utility.yul\":22596:22605   */\n      dup2\n        /* \"#utility.yul\":22590:22594   */\n      dup2\n        /* \"#utility.yul\":22586:22606   */\n      sub\n        /* \"#utility.yul\":22582:22583   */\n      0x00\n        /* \"#utility.yul\":22571:22580   */\n      dup4\n        /* \"#utility.yul\":22567:22584   */\n      add\n        /* \"#utility.yul\":22560:22607   */\n      mstore\n        /* \"#utility.yul\":22624:22755   */\n      tag_741\n        /* \"#utility.yul\":22750:22754   */\n      dup2\n        /* \"#utility.yul\":22624:22755   */\n      tag_498\n      jump\t// in\n    tag_741:\n        /* \"#utility.yul\":22616:22755   */\n      swap1\n      pop\n        /* \"#utility.yul\":22343:22762   */\n      swap2\n      swap1\n      pop\n      jump\t// out\n        /* \"#utility.yul\":22768:22948   */\n    tag_499:\n        /* \"#utility.yul\":22816:22893   */\n      0x4e487b7100000000000000000000000000000000000000000000000000000000\n        /* \"#utility.yul\":22813:22814   */\n      0x00\n        /* \"#utility.yul\":22806:22894   */\n      mstore\n        /* \"#utility.yul\":22913:22917   */\n      0x11\n        /* \"#utility.yul\":22910:22911   */\n      0x04\n        /* \"#utility.yul\":22903:22918   */\n      mstore\n        /* \"#utility.yul\":22937:22941   */\n      0x24\n        /* \"#utility.yul\":22934:22935   */\n      0x00\n        /* \"#utility.yul\":22927:22942   */\n      revert\n        /* \"#utility.yul\":22954:23364   */\n    tag_367:\n        /* \"#utility.yul\":22994:23001   */\n      0x00\n        /* \"#utility.yul\":23017:23037   */\n      tag_744\n        /* \"#utility.yul\":23035:23036   */\n      dup3\n        /* \"#utility.yul\":23017:23037   */\n      tag_430\n      jump\t// in\n    tag_744:\n        /* \"#utility.yul\":23012:23037   */\n      swap2\n      pop\n        /* \"#utility.yul\":23051:23071   */\n      tag_745\n        /* \"#utility.yul\":23069:23070   */\n      dup4\n        /* \"#utility.yul\":23051:23071   */\n      tag_430\n      jump\t// in\n    tag_745:\n        /* \"#utility.yul\":23046:23071   */\n      swap3\n      pop\n        /* \"#utility.yul\":23106:23107   */\n      dup3\n        /* \"#utility.yul\":23103:23104   */\n      dup3\n        /* \"#utility.yul\":23099:23108   */\n      mul\n        /* \"#utility.yul\":23128:23158   */\n      tag_746\n        /* \"#utility.yul\":23146:23157   */\n      dup2\n        /* \"#utility.yul\":23128:23158   */\n      tag_430\n      jump\t// in\n    tag_746:\n        /* \"#utility.yul\":23117:23158   */\n      swap2\n      pop\n        /* \"#utility.yul\":23307:23308   */\n      dup3\n        /* \"#utility.yul\":23298:23305   */\n      dup3\n        /* \"#utility.yul\":23294:23309   */\n      div\n        /* \"#utility.yul\":23291:23292   */\n      dup5\n        /* \"#utility.yul\":23288:23310   */\n      eq\n        /* \"#utility.yul\":23268:23269   */\n      dup4\n        /* \"#utility.yul\":23261:23270   */\n      iszero\n        /* \"#utility.yul\":23241:23324   */\n      or\n        /* \"#utility.yul\":23218:23357   */\n      tag_747\n      jumpi\n        /* \"#utility.yul\":23337:23355   */\n      tag_748\n      tag_499\n      jump\t// in\n    tag_748:\n        /* \"#utility.yul\":23218:23357   */\n    tag_747:\n        /* \"#utility.yul\":23002:23364   */\n      pop\n        /* \"#utility.yul\":22954:23364   */\n      swap3\n      swap2\n      pop\n      pop\n      jump\t// out\n        /* \"#utility.yul\":23370:23561   */\n    tag_422:\n        /* \"#utility.yul\":23410:23413   */\n      0x00\n        /* \"#utility.yul\":23429:23449   */\n      tag_750\n        /* \"#utility.yul\":23447:23448   */\n      dup3\n        /* \"#utility.yul\":23429:23449   */\n      tag_430\n      jump\t// in\n    tag_750:\n        /* \"#utility.yul\":23424:23449   */\n      swap2\n      pop\n        /* \"#utility.yul\":23463:23483   */\n      tag_751\n        /* \"#utility.yul\":23481:23482   */\n      dup4\n        /* \"#utility.yul\":23463:23483   */\n      tag_430\n      jump\t// in\n    tag_751:\n        /* \"#utility.yul\":23458:23483   */\n      swap3\n      pop\n        /* \"#utility.yul\":23506:23507   */\n      dup3\n        /* \"#utility.yul\":23503:23504   */\n      dup3\n        /* \"#utility.yul\":23499:23508   */\n      add\n        /* \"#utility.yul\":23492:23508   */\n      swap1\n      pop\n        /* \"#utility.yul\":23527:23530   */\n      dup1\n        /* \"#utility.yul\":23524:23525   */\n      dup3\n        /* \"#utility.yul\":23521:23531   */\n      gt\n        /* \"#utility.yul\":23518:23554   */\n      iszero\n      tag_752\n      jumpi\n        /* \"#utility.yul\":23534:23552   */\n      tag_753\n      tag_499\n      jump\t// in\n    tag_753:\n        /* \"#utility.yul\":23518:23554   */\n    tag_752:\n        /* \"#utility.yul\":23370:23561   */\n      swap3\n      swap2\n      pop\n      pop\n      jump\t// out\n\n    auxdata: 0xa264697066735822122041c4b2aeda34a68eaf0caf7ea455b1cdb87df1ba344df13907c3acd31b0f106e64736f6c634300081e0033\n}\n",
				"bytecode": {
					"linkReferences": {},
					"object": "610120604052348015610010575f5ffd5b50604051613e16380380613e1683398181016040528101906100329190610635565b83610042816103f160201b60201c565b508273ffffffffffffffffffffffffffffffffffffffff1660808173ffffffffffffffffffffffffffffffffffffffff16815250508173ffffffffffffffffffffffffffffffffffffffff1660c08173ffffffffffffffffffffffffffffffffffffffff168152505080151560e0811515815250508273ffffffffffffffffffffffffffffffffffffffff1663313ce5676040518163ffffffff1660e01b8152600401602060405180830381865afa158015610100573d5f5f3e3d5ffd5b505050506040513d601f19601f8201168201806040525081019061012491906106cf565b60ff166101008160ff16815250508015610292575f8290505f8173ffffffffffffffffffffffffffffffffffffffff16630dfe16816040518163ffffffff1660e01b8152600401602060405180830381865afa158015610186573d5f5f3e3d5ffd5b505050506040513d601f19601f820116820180604052508101906101aa91906106fa565b90505f8273ffffffffffffffffffffffffffffffffffffffff1663d21220a76040518163ffffffff1660e01b8152600401602060405180830381865afa1580156101f6573d5f5f3e3d5ffd5b505050506040513d601f19601f8201168201806040525081019061021a91906106fa565b90508573ffffffffffffffffffffffffffffffffffffffff168273ffffffffffffffffffffffffffffffffffffffff16146102555781610257565b805b73ffffffffffffffffffffffffffffffffffffffff1660a08173ffffffffffffffffffffffffffffffffffffffff16815250505050506103e8565b5f8290505f8173ffffffffffffffffffffffffffffffffffffffff16630dfe16816040518163ffffffff1660e01b8152600401602060405180830381865afa1580156102e0573d5f5f3e3d5ffd5b505050506040513d601f19601f8201168201806040525081019061030491906106fa565b90505f8273ffffffffffffffffffffffffffffffffffffffff1663d21220a76040518163ffffffff1660e01b8152600401602060405180830381865afa158015610350573d5f5f3e3d5ffd5b505050506040513d601f19601f8201168201806040525081019061037491906106fa565b90508573ffffffffffffffffffffffffffffffffffffffff168273ffffffffffffffffffffffffffffffffffffffff16146103af57816103b1565b805b73ffffffffffffffffffffffffffffffffffffffff1660a08173ffffffffffffffffffffffffffffffffffffffff16815250505050505b50505050610893565b5f73ffffffffffffffffffffffffffffffffffffffff168173ffffffffffffffffffffffffffffffffffffffff160361045f576040517f08c379a00000000000000000000000000000000000000000000000000000000081526004016104569061077f565b60405180910390fd5b5f8173ffffffffffffffffffffffffffffffffffffffff163b116104b8576040517f08c379a00000000000000000000000000000000000000000000000000000000081526004016104af906107e7565b60405180910390fd5b8073ffffffffffffffffffffffffffffffffffffffff16638da5cb5b6040518163ffffffff1660e01b8152600401602060405180830381865afa92505050801561052057506040513d601f19601f8201168201806040525081019061051d91906106fa565b60015b61055f576040517f08c379a000000000000000000000000000000000000000000000000000000000815260040161055690610875565b60405180910390fd5b815f5f6101000a81548173ffffffffffffffffffffffffffffffffffffffff021916908373ffffffffffffffffffffffffffffffffffffffff1602179055505050565b5f5ffd5b5f73ffffffffffffffffffffffffffffffffffffffff82169050919050565b5f6105cf826105a6565b9050919050565b6105df816105c5565b81146105e9575f5ffd5b50565b5f815190506105fa816105d6565b92915050565b5f8115159050919050565b61061481610600565b811461061e575f5ffd5b50565b5f8151905061062f8161060b565b92915050565b5f5f5f5f6080858703121561064d5761064c6105a2565b5b5f61065a878288016105ec565b945050602061066b878288016105ec565b935050604061067c878288016105ec565b925050606061068d87828801610621565b91505092959194509250565b5f60ff82169050919050565b6106ae81610699565b81146106b8575f5ffd5b50565b5f815190506106c9816106a5565b92915050565b5f602082840312156106e4576106e36105a2565b5b5f6106f1848285016106bb565b91505092915050565b5f6020828403121561070f5761070e6105a2565b5b5f61071c848285016105ec565b91505092915050565b5f82825260208201905092915050565b7f4469726563746f72792063616e6e6f74206265207a65726f20616464726573735f82015250565b5f610769602083610725565b915061077482610735565b602082019050919050565b5f6020820190508181035f8301526107968161075d565b9050919050565b7f4469726563746f7279206d757374206265206120636f6e7472616374000000005f82015250565b5f6107d1601c83610725565b91506107dc8261079d565b602082019050919050565b5f6020820190508181035f8301526107fe816107c5565b9050919050565b7f4469726563746f7279206164647265737320646f6573206e6f7420696d706c655f8201527f6d656e74206f776e657228290000000000000000000000000000000000000000602082015250565b5f61085f602c83610725565b915061086a82610805565b604082019050919050565b5f6020820190508181035f83015261088c81610853565b9050919050565b60805160a05160c05160e051610100516134cf6109475f395f8181611081015261161c01525f8181610b4c015281816110140152611ac101525f818161046801528181610ff30152611aa001525f8181610ea60152611ae201525f818161044401528181610c7c01528181610d6c01528181610de3015281816115350152818161158901528181611ff70152818161204901528181612158015281816125280152818161257a015261261001526134cf5ff3fe608060405234801561000f575f5ffd5b5060043610610129575f3560e01c8063658a847a116100ab5780639d1211bf1161006f5780639d1211bf14610392578063ba4c7be1146103b0578063be00e0c2146103cc578063d08aef7c146103d6578063d43d883e146103f457610129565b8063658a847a146102d85780636855e939146102f657806369a2e17d146103145780637b49b49d146103445780638da5cb5b1461037457610129565b80632c5d1063116100f25780632c5d1063146101f957806341e0e1d6146102295780635498f4bc1461025a57806357b6c1331461027857806363aa0c93146102a857610129565b8062593bcf1461012d578063040141e51461015d5780630b0176031461017b5780630dbc0d7d1461019957806327262618146101c9575b5f5ffd5b61014760048036038101906101429190612913565b610424565b6040516101549190612956565b60405180910390f35b610165610442565b604051610172919061297e565b60405180910390f35b610183610466565b604051610190919061297e565b60405180910390f35b6101b360048036038101906101ae9190612913565b61048a565b6040516101c09190612956565b60405180910390f35b6101e360048036038101906101de9190612ad3565b61049b565b6040516101f0919061297e565b60405180910390f35b610213600480360381019061020e9190612b1a565b61053b565b6040516102209190612956565b60405180910390f35b610243600480360381019061023e9190612913565b610b36565b604051610251929190612b72565b60405180910390f35b610262610b4a565b60405161026f9190612b99565b60405180910390f35b610292600480360381019061028d9190612913565b610b6e565b60405161029f9190612956565b60405180910390f35b6102c260048036038101906102bd9190612913565b610b8c565b6040516102cf9190612956565b60405180910390f35b6102e0610d03565b6040516102ed9190612c0d565b60405180910390f35b6102fe610d27565b60405161030b9190612956565b60405180910390f35b61032e60048036038101906103299190612913565b610d35565b60405161033b9190612956565b60405180910390f35b61035e60048036038101906103599190612913565b610d69565b60405161036b9190612956565b60405180910390f35b61037c610e11565b604051610389919061297e565b60405180910390f35b61039a610ea4565b6040516103a7919061297e565b60405180910390f35b6103ca60048036038101906103c59190612913565b610ec8565b005b6103d4610fce565b005b6103de61107f565b6040516103eb9190612c41565b60405180910390f35b61040e60048036038101906104099190612b1a565b6110a3565b60405161041b9190612956565b60405180910390f35b5f5f61042f83610d69565b905061043a816114eb565b915050919050565b7f000000000000000000000000000000000000000000000000000000000000000081565b7f000000000000000000000000000000000000000000000000000000000000000081565b5f61049482611532565b9050919050565b5f5f5f9054906101000a900473ffffffffffffffffffffffffffffffffffffffff1673ffffffffffffffffffffffffffffffffffffffff166327262618836040518263ffffffff1660e01b81526004016104f59190612cba565b602060405180830381865afa158015610510573d5f5f3e3d5ffd5b505050506040513d601f19601f820116820180604052508101906105349190612cee565b9050919050565b5f5f8390505f8173ffffffffffffffffffffffffffffffffffffffff16633850c7bd6040518163ffffffff1660e01b815260040160e060405180830381865afa15801561058a573d5f5f3e3d5ffd5b505050506040513d601f19601f820116820180604052508101906105ae9190612e04565b50505050505090505f8273ffffffffffffffffffffffffffffffffffffffff16631a6865026040518163ffffffff1660e01b8152600401602060405180830381865afa158015610600573d5f5f3e3d5ffd5b505050506040513d601f19601f820116820180604052508101906106249190612ee6565b6fffffffffffffffffffffffffffffffff160361066d576040517f1007454800000000000000000000000000000000000000000000000000000000815260040160405180910390fd5b5f8273ffffffffffffffffffffffffffffffffffffffff16630dfe16816040518163ffffffff1660e01b8152600401602060405180830381865afa1580156106b7573d5f5f3e3d5ffd5b505050506040513d601f19601f820116820180604052508101906106db9190612cee565b90505f8373ffffffffffffffffffffffffffffffffffffffff1663d21220a76040518163ffffffff1660e01b8152600401602060405180830381865afa158015610727573d5f5f3e3d5ffd5b505050506040513d601f19601f8201168201806040525081019061074b9190612cee565b90505f8673ffffffffffffffffffffffffffffffffffffffff168373ffffffffffffffffffffffffffffffffffffffff161490505f8773ffffffffffffffffffffffffffffffffffffffff168373ffffffffffffffffffffffffffffffffffffffff1614905081806107ba5750805b15806107cc57508180156107cb5750805b5b15610803576040517fb0d73dc900000000000000000000000000000000000000000000000000000000815260040160405180910390fd5b5f6108488673ffffffffffffffffffffffffffffffffffffffff168773ffffffffffffffffffffffffffffffffffffffff166c01000000000000000000000000611681565b905081156109bf575f8473ffffffffffffffffffffffffffffffffffffffff1663313ce5676040518163ffffffff1660e01b8152600401602060405180830381865afa15801561089a573d5f5f3e3d5ffd5b505050506040513d601f19601f820116820180604052508101906108be9190612f11565b90505f8673ffffffffffffffffffffffffffffffffffffffff1663313ce5676040518163ffffffff1660e01b8152600401602060405180830381865afa15801561090a573d5f5f3e3d5ffd5b505050506040513d601f19601f8201168201806040525081019061092e9190612f11565b90508160ff168160ff161061097e575f61094983830361178b565b670de0b6b3a764000002905061096d84826c01000000000000000000000000611681565b9a5050505050505050505050610b30565b5f61098a82840361178b565b6c010000000000000000000000000290506109ae84670de0b6b3a764000083611681565b9a5050505050505050505050610b30565b5f8573ffffffffffffffffffffffffffffffffffffffff1663313ce5676040518163ffffffff1660e01b8152600401602060405180830381865afa158015610a09573d5f5f3e3d5ffd5b505050506040513d601f19601f82011682018060405250810190610a2d9190612f11565b90505f8573ffffffffffffffffffffffffffffffffffffffff1663313ce5676040518163ffffffff1660e01b8152600401602060405180830381865afa158015610a79573d5f5f3e3d5ffd5b505050506040513d601f19601f82011682018060405250810190610a9d9190612f11565b90508160ff168160ff1610610af0575f6c01000000000000000000000000610ac684840361178b565b670de0b6b3a764000002029050610adf81600186611681565b9a5050505050505050505050610b30565b5f610afc82840361178b565b84029050610b236c01000000000000000000000000670de0b6b3a764000002600183611681565b9a50505050505050505050505b92915050565b5f5f610b418361193b565b91509150915091565b7f000000000000000000000000000000000000000000000000000000000000000081565b5f5f610b798361048a565b9050610b84816114eb565b915050919050565b5f5f8273ffffffffffffffffffffffffffffffffffffffff166318160ddd6040518163ffffffff1660e01b8152600401602060405180830381865afa158015610bd7573d5f5f3e3d5ffd5b505050506040513d601f19601f82011682018060405250810190610bfb9190612f66565b90505f8373ffffffffffffffffffffffffffffffffffffffff1663313ce5676040518163ffffffff1660e01b8152600401602060405180830381865afa158015610c47573d5f5f3e3d5ffd5b505050506040513d601f19601f82011682018060405250810190610c6b9190612f11565b90505f610c788383611a40565b90507f000000000000000000000000000000000000000000000000000000000000000073ffffffffffffffffffffffffffffffffffffffff168573ffffffffffffffffffffffffffffffffffffffff1603610cd857809350505050610cfe565b5f610ce286610d69565b9050610cf78282670de0b6b3a7640000611681565b9450505050505b919050565b5f5f9054906101000a900473ffffffffffffffffffffffffffffffffffffffff1681565b5f610d30611a9a565b905090565b5f5f610d4083610b8c565b90505f610d4b610d27565b9050610d608282670de0b6b3a7640000611681565b92505050919050565b5f7f000000000000000000000000000000000000000000000000000000000000000073ffffffffffffffffffffffffffffffffffffffff168273ffffffffffffffffffffffffffffffffffffffff1603610dcd57670de0b6b3a76400009050610e0c565b5f5f610dd88461193b565b91509150610e0781837f0000000000000000000000000000000000000000000000000000000000000000611b0b565b925050505b919050565b5f5f5f9054906101000a900473ffffffffffffffffffffffffffffffffffffffff1673ffffffffffffffffffffffffffffffffffffffff16638da5cb5b6040518163ffffffff1660e01b8152600401602060405180830381865afa158015610e7b573d5f5f3e3d5ffd5b505050506040513d601f19601f82011682018060405250810190610e9f9190612cee565b905090565b7f000000000000000000000000000000000000000000000000000000000000000081565b5f5f9054906101000a900473ffffffffffffffffffffffffffffffffffffffff1673ffffffffffffffffffffffffffffffffffffffff16638da5cb5b6040518163ffffffff1660e01b8152600401602060405180830381865afa158015610f31573d5f5f3e3d5ffd5b505050506040513d601f19601f82011682018060405250810190610f559190612cee565b73ffffffffffffffffffffffffffffffffffffffff163373ffffffffffffffffffffffffffffffffffffffff1614610fc2576040517f08c379a0000000000000000000000000000000000000000000000000000000008152600401610fb990612fdb565b60405180910390fd5b610fcb81611b37565b50565b610fd6611ce8565b73ffffffffffffffffffffffffffffffffffffffff1663153456897f00000000000000000000000000000000000000000000000000000000000000007f00000000000000000000000000000000000000000000000000000000000000006040518363ffffffff1660e01b8152600401611050929190612ff9565b5f604051808303815f87803b158015611067575f5ffd5b505af1158015611079573d5f5f3e3d5ffd5b50505050565b7f000000000000000000000000000000000000000000000000000000000000000081565b5f5f8390505f8173ffffffffffffffffffffffffffffffffffffffff16630dfe16816040518163ffffffff1660e01b8152600401602060405180830381865afa1580156110f2573d5f5f3e3d5ffd5b505050506040513d601f19601f820116820180604052508101906111169190612cee565b90505f8273ffffffffffffffffffffffffffffffffffffffff1663d21220a76040518163ffffffff1660e01b8152600401602060405180830381865afa158015611162573d5f5f3e3d5ffd5b505050506040513d601f19601f820116820180604052508101906111869190612cee565b90505f5f8473ffffffffffffffffffffffffffffffffffffffff16630902f1ac6040518163ffffffff1660e01b8152600401606060405180830381865afa1580156111d3573d5f5f3e3d5ffd5b505050506040513d601f19601f820116820180604052508101906111f7919061309c565b50915091505f8773ffffffffffffffffffffffffffffffffffffffff168573ffffffffffffffffffffffffffffffffffffffff161490505f8873ffffffffffffffffffffffffffffffffffffffff168573ffffffffffffffffffffffffffffffffffffffff1614905081806112695750805b158061127b575081801561127a5750805b5b156112b2576040517fb0d73dc900000000000000000000000000000000000000000000000000000000815260040160405180910390fd5b81156113cd575f8673ffffffffffffffffffffffffffffffffffffffff1663313ce5676040518163ffffffff1660e01b8152600401602060405180830381865afa158015611302573d5f5f3e3d5ffd5b505050506040513d601f19601f820116820180604052508101906113269190612f11565b90505f8673ffffffffffffffffffffffffffffffffffffffff1663313ce5676040518163ffffffff1660e01b8152600401602060405180830381865afa158015611372573d5f5f3e3d5ffd5b505050506040513d601f19601f820116820180604052508101906113969190612f11565b90506113c4866dffffffffffffffffffffffffffff1683876dffffffffffffffffffffffffffff1684611d2c565b995050506114de565b5f8573ffffffffffffffffffffffffffffffffffffffff1663313ce5676040518163ffffffff1660e01b8152600401602060405180830381865afa158015611417573d5f5f3e3d5ffd5b505050506040513d601f19601f8201168201806040525081019061143b9190612f11565b90505f8773ffffffffffffffffffffffffffffffffffffffff1663313ce5676040518163ffffffff1660e01b8152600401602060405180830381865afa158015611487573d5f5f3e3d5ffd5b505050506040513d601f19601f820116820180604052508101906114ab9190612f11565b90506114d9856dffffffffffffffffffffffffffff1683886dffffffffffffffffffffffffffff1684611d2c565b995050505b5050505050505092915050565b5f5f82036114fb575f905061152d565b5f611504611a9a565b90505f8103611516575f91505061152d565b6115298382670de0b6b3a7640000611681565b9150505b919050565b5f7f000000000000000000000000000000000000000000000000000000000000000073ffffffffffffffffffffffffffffffffffffffff168273ffffffffffffffffffffffffffffffffffffffff1603611648575f7f000000000000000000000000000000000000000000000000000000000000000073ffffffffffffffffffffffffffffffffffffffff166318160ddd6040518163ffffffff1660e01b8152600401602060405180830381865afa1580156115f0573d5f5f3e3d5ffd5b505050506040513d601f19601f820116820180604052508101906116149190612f66565b9050611640817f0000000000000000000000000000000000000000000000000000000000000000611a40565b91505061167c565b5f5f6116538461193b565b91509150811561166d5761166681611dde565b9250611679565b61167681612368565b92505b50505b919050565b5f5f5f5f198587098587029250828110838203039150505f81036116b9578382816116af576116ae6130ec565b5b0492505050611784565b8084116116fb576040517f08c379a00000000000000000000000000000000000000000000000000000000081526004016116f290613163565b60405180910390fd5b5f8486880990508281118203915080830392505f60018619018616905080860495508084049350600181825f0304019050808302841793505f600287600302189050808702600203810290508087026002038102905080870260020381029050808702600203810290508087026002038102905080870260020381029050808502955050505050505b9392505050565b5f5f8260ff160361179f5760019050611936565b60018260ff16036117b357600a9050611936565b60028260ff16036117c75760649050611936565b60038260ff16036117dc576103e89050611936565b60048260ff16036117f1576127109050611936565b60058260ff160361180757620186a09050611936565b60068260ff160361181d57620f42409050611936565b60078260ff160361183357629896809050611936565b60088260ff160361184a576305f5e1009050611936565b60098260ff160361186157633b9aca009050611936565b600a8260ff1603611879576402540be4009050611936565b600b8260ff16036118915764174876e8009050611936565b600c8260ff16036118a95764e8d4a510009050611936565b600d8260ff16036118c2576509184e72a0009050611936565b600e8260ff16036118db57655af3107a40009050611936565b600f8260ff16036118f55766038d7ea4c680009050611936565b60108260ff160361190f57662386f26fc100009050611936565b60118260ff160361192a5767016345785d8a00009050611936565b670de0b6b3a764000090505b919050565b5f5f5f611946611ce8565b73ffffffffffffffffffffffffffffffffffffffff1663df697cc4856040518263ffffffff1660e01b815260040161197e919061297e565b608060405180830381865afa158015611999573d5f5f3e3d5ffd5b505050506040513d601f19601f820116820180604052508101906119bd919061326f565b90505f73ffffffffffffffffffffffffffffffffffffffff16815f015173ffffffffffffffffffffffffffffffffffffffff1603611a27576040517f9c8787c000000000000000000000000000000000000000000000000000000000815260040160405180910390fd5b5f816040015160ff1614159250805f0151915050915091565b5f60128260ff1603611a5457829050611a94565b60128260ff161015611a7557611a6c8260120361178b565b83029050611a94565b611a816012830361178b565b8381611a9057611a8f6130ec565b5b0490505b92915050565b5f611b067f00000000000000000000000000000000000000000000000000000000000000007f00000000000000000000000000000000000000000000000000000000000000007f0000000000000000000000000000000000000000000000000000000000000000611b0b565b905090565b5f8215611b2357611b1c848361053b565b9050611b30565b611b2d84836110a3565b90505b9392505050565b5f73ffffffffffffffffffffffffffffffffffffffff168173ffffffffffffffffffffffffffffffffffffffff1603611ba5576040517f08c379a0000000000000000000000000000000000000000000000000000000008152600401611b9c906132e4565b60405180910390fd5b5f8173ffffffffffffffffffffffffffffffffffffffff163b11611bfe576040517f08c379a0000000000000000000000000000000000000000000000000000000008152600401611bf59061334c565b60405180910390fd5b8073ffffffffffffffffffffffffffffffffffffffff16638da5cb5b6040518163ffffffff1660e01b8152600401602060405180830381865afa925050508015611c6657506040513d601f19601f82011682018060405250810190611c639190612cee565b60015b611ca5576040517f08c379a0000000000000000000000000000000000000000000000000000000008152600401611c9c906133da565b60405180910390fd5b815f5f6101000a81548173ffffffffffffffffffffffffffffffffffffffff021916908373ffffffffffffffffffffffffffffffffffffffff1602179055505050565b5f611d276040518060400160405280600b81526020017f706f6f6c2d66696e64657200000000000000000000000000000000000000000081525061049b565b905090565b5f5f851480611d3a57505f83145b15611d71576040517f8b4a713e00000000000000000000000000000000000000000000000000000000815260040160405180910390fd5b5f8460ff168360ff1610611d9b57611d8a85840361178b565b670de0b6b3a7640000029050611dc7565b5f611da784870361178b565b85029050611dbe87670de0b6b3a764000083611681565b92505050611dd6565b611dd2868286611681565b9150505b949350505050565b5f5f8290505f8173ffffffffffffffffffffffffffffffffffffffff16633850c7bd6040518163ffffffff1660e01b815260040160e060405180830381865afa158015611e2d573d5f5f3e3d5ffd5b505050506040513d601f19601f82011682018060405250810190611e519190612e04565b50505050505090505f8273ffffffffffffffffffffffffffffffffffffffff16631a6865026040518163ffffffff1660e01b8152600401602060405180830381865afa158015611ea3573d5f5f3e3d5ffd5b505050506040513d601f19601f82011682018060405250810190611ec79190612ee6565b90505f816fffffffffffffffffffffffffffffffff1603611f14576040517f1007454800000000000000000000000000000000000000000000000000000000815260040160405180910390fd5b5f8373ffffffffffffffffffffffffffffffffffffffff16630dfe16816040518163ffffffff1660e01b8152600401602060405180830381865afa158015611f5e573d5f5f3e3d5ffd5b505050506040513d601f19601f82011682018060405250810190611f829190612cee565b90505f8473ffffffffffffffffffffffffffffffffffffffff1663d21220a76040518163ffffffff1660e01b8152600401602060405180830381865afa158015611fce573d5f5f3e3d5ffd5b505050506040513d601f19601f82011682018060405250810190611ff29190612cee565b90505f7f000000000000000000000000000000000000000000000000000000000000000073ffffffffffffffffffffffffffffffffffffffff168373ffffffffffffffffffffffffffffffffffffffff161490505f7f000000000000000000000000000000000000000000000000000000000000000073ffffffffffffffffffffffffffffffffffffffff168373ffffffffffffffffffffffffffffffffffffffff1614905081806120a15750805b6120d7576040517fb0d73dc900000000000000000000000000000000000000000000000000000000815260040160405180910390fd5b5f8673ffffffffffffffffffffffffffffffffffffffff1690505f6121146060886fffffffffffffffffffffffffffffffff16901b600184611681565b90505f61214d83896fffffffffffffffffffffffffffffffff166121389190613425565b60016c01000000000000000000000000611681565b90505f61217c8d60017f0000000000000000000000000000000000000000000000000000000000000000611b0b565b9050851561227057612269838973ffffffffffffffffffffffffffffffffffffffff1663313ce5676040518163ffffffff1660e01b8152600401602060405180830381865afa1580156121d1573d5f5f3e3d5ffd5b505050506040513d601f19601f820116820180604052508101906121f59190612f11565b848a73ffffffffffffffffffffffffffffffffffffffff1663313ce5676040518163ffffffff1660e01b8152600401602060405180830381865afa15801561223f573d5f5f3e3d5ffd5b505050506040513d601f19601f820116820180604052508101906122639190612f11565b8561285d565b9b50612358565b612355828873ffffffffffffffffffffffffffffffffffffffff1663313ce5676040518163ffffffff1660e01b8152600401602060405180830381865afa1580156122bd573d5f5f3e3d5ffd5b505050506040513d601f19601f820116820180604052508101906122e19190612f11565b858b73ffffffffffffffffffffffffffffffffffffffff1663313ce5676040518163ffffffff1660e01b8152600401602060405180830381865afa15801561232b573d5f5f3e3d5ffd5b505050506040513d601f19601f8201168201806040525081019061234f9190612f11565b8561285d565b9b505b5050505050505050505050919050565b5f5f8290505f5f8273ffffffffffffffffffffffffffffffffffffffff16630902f1ac6040518163ffffffff1660e01b8152600401606060405180830381865afa1580156123b8573d5f5f3e3d5ffd5b505050506040513d601f19601f820116820180604052508101906123dc919061309c565b50915091505f826dffffffffffffffffffffffffffff16148061240e57505f816dffffffffffffffffffffffffffff16145b15612445576040517f8b4a713e00000000000000000000000000000000000000000000000000000000815260040160405180910390fd5b5f8373ffffffffffffffffffffffffffffffffffffffff16630dfe16816040518163ffffffff1660e01b8152600401602060405180830381865afa15801561248f573d5f5f3e3d5ffd5b505050506040513d601f19601f820116820180604052508101906124b39190612cee565b90505f8473ffffffffffffffffffffffffffffffffffffffff1663d21220a76040518163ffffffff1660e01b8152600401602060405180830381865afa1580156124ff573d5f5f3e3d5ffd5b505050506040513d601f19601f820116820180604052508101906125239190612cee565b90505f7f000000000000000000000000000000000000000000000000000000000000000073ffffffffffffffffffffffffffffffffffffffff168373ffffffffffffffffffffffffffffffffffffffff161490505f7f000000000000000000000000000000000000000000000000000000000000000073ffffffffffffffffffffffffffffffffffffffff168373ffffffffffffffffffffffffffffffffffffffff1614905081806125d25750805b612608576040517fb0d73dc900000000000000000000000000000000000000000000000000000000815260040160405180910390fd5b5f6126348a5f7f0000000000000000000000000000000000000000000000000000000000000000611b0b565b9050821561274857612741876dffffffffffffffffffffffffffff168673ffffffffffffffffffffffffffffffffffffffff1663313ce5676040518163ffffffff1660e01b8152600401602060405180830381865afa158015612699573d5f5f3e3d5ffd5b505050506040513d601f19601f820116820180604052508101906126bd9190612f11565b886dffffffffffffffffffffffffffff168773ffffffffffffffffffffffffffffffffffffffff1663313ce5676040518163ffffffff1660e01b8152600401602060405180830381865afa158015612717573d5f5f3e3d5ffd5b505050506040513d601f19601f8201168201806040525081019061273b9190612f11565b8561285d565b9850612850565b61284d866dffffffffffffffffffffffffffff168573ffffffffffffffffffffffffffffffffffffffff1663313ce5676040518163ffffffff1660e01b8152600401602060405180830381865afa1580156127a5573d5f5f3e3d5ffd5b505050506040513d601f19601f820116820180604052508101906127c99190612f11565b896dffffffffffffffffffffffffffff168873ffffffffffffffffffffffffffffffffffffffff1663313ce5676040518163ffffffff1660e01b8152600401602060405180830381865afa158015612823573d5f5f3e3d5ffd5b505050506040513d601f19601f820116820180604052508101906128479190612f11565b8561285d565b98505b5050505050505050919050565b5f5f6128698787611a40565b90505f6128768686611a40565b90505f61288c8286670de0b6b3a7640000611681565b9050808361289a9190613466565b935050505095945050505050565b5f604051905090565b5f5ffd5b5f5ffd5b5f73ffffffffffffffffffffffffffffffffffffffff82169050919050565b5f6128e2826128b9565b9050919050565b6128f2816128d8565b81146128fc575f5ffd5b50565b5f8135905061290d816128e9565b92915050565b5f60208284031215612928576129276128b1565b5b5f612935848285016128ff565b91505092915050565b5f819050919050565b6129508161293e565b82525050565b5f6020820190506129695f830184612947565b92915050565b612978816128d8565b82525050565b5f6020820190506129915f83018461296f565b92915050565b5f5ffd5b5f5ffd5b5f601f19601f8301169050919050565b7f4e487b71000000000000000000000000000000000000000000000000000000005f52604160045260245ffd5b6129e58261299f565b810181811067ffffffffffffffff82111715612a0457612a036129af565b5b80604052505050565b5f612a166128a8565b9050612a2282826129dc565b919050565b5f67ffffffffffffffff821115612a4157612a406129af565b5b612a4a8261299f565b9050602081019050919050565b828183375f83830152505050565b5f612a77612a7284612a27565b612a0d565b905082815260208101848484011115612a9357612a9261299b565b5b612a9e848285612a57565b509392505050565b5f82601f830112612aba57612ab9612997565b5b8135612aca848260208601612a65565b91505092915050565b5f60208284031215612ae857612ae76128b1565b5b5f82013567ffffffffffffffff811115612b0557612b046128b5565b5b612b1184828501612aa6565b91505092915050565b5f5f60408385031215612b3057612b2f6128b1565b5b5f612b3d858286016128ff565b9250506020612b4e858286016128ff565b9150509250929050565b5f8115159050919050565b612b6c81612b58565b82525050565b5f604082019050612b855f830185612b63565b612b92602083018461296f565b9392505050565b5f602082019050612bac5f830184612b63565b92915050565b5f819050919050565b5f612bd5612bd0612bcb846128b9565b612bb2565b6128b9565b9050919050565b5f612be682612bbb565b9050919050565b5f612bf782612bdc565b9050919050565b612c0781612bed565b82525050565b5f602082019050612c205f830184612bfe565b92915050565b5f60ff82169050919050565b612c3b81612c26565b82525050565b5f602082019050612c545f830184612c32565b92915050565b5f81519050919050565b5f82825260208201905092915050565b8281835e5f83830152505050565b5f612c8c82612c5a565b612c968185612c64565b9350612ca6818560208601612c74565b612caf8161299f565b840191505092915050565b5f6020820190508181035f830152612cd28184612c82565b905092915050565b5f81519050612ce8816128e9565b92915050565b5f60208284031215612d0357612d026128b1565b5b5f612d1084828501612cda565b91505092915050565b612d22816128b9565b8114612d2c575f5ffd5b50565b5f81519050612d3d81612d19565b92915050565b5f8160020b9050919050565b612d5881612d43565b8114612d62575f5ffd5b50565b5f81519050612d7381612d4f565b92915050565b5f61ffff82169050919050565b612d8f81612d79565b8114612d99575f5ffd5b50565b5f81519050612daa81612d86565b92915050565b612db981612c26565b8114612dc3575f5ffd5b50565b5f81519050612dd481612db0565b92915050565b612de381612b58565b8114612ded575f5ffd5b50565b5f81519050612dfe81612dda565b92915050565b5f5f5f5f5f5f5f60e0888a031215612e1f57612e1e6128b1565b5b5f612e2c8a828b01612d2f565b9750506020612e3d8a828b01612d65565b9650506040612e4e8a828b01612d9c565b9550506060612e5f8a828b01612d9c565b9450506080612e708a828b01612d9c565b93505060a0612e818a828b01612dc6565b92505060c0612e928a828b01612df0565b91505092959891949750929550565b5f6fffffffffffffffffffffffffffffffff82169050919050565b612ec581612ea1565b8114612ecf575f5ffd5b50565b5f81519050612ee081612ebc565b92915050565b5f60208284031215612efb57612efa6128b1565b5b5f612f0884828501612ed2565b91505092915050565b5f60208284031215612f2657612f256128b1565b5b5f612f3384828501612dc6565b91505092915050565b612f458161293e565b8114612f4f575f5ffd5b50565b5f81519050612f6081612f3c565b92915050565b5f60208284031215612f7b57612f7a6128b1565b5b5f612f8884828501612f52565b91505092915050565b7f43616c6c6572206973206e6f7420746865206f776e65720000000000000000005f82015250565b5f612fc5601783612c64565b9150612fd082612f91565b602082019050919050565b5f6020820190508181035f830152612ff281612fb9565b9050919050565b5f60408201905061300c5f83018561296f565b6130196020830184612b63565b9392505050565b5f6dffffffffffffffffffffffffffff82169050919050565b61304281613020565b811461304c575f5ffd5b50565b5f8151905061305d81613039565b92915050565b5f63ffffffff82169050919050565b61307b81613063565b8114613085575f5ffd5b50565b5f8151905061309681613072565b92915050565b5f5f5f606084860312156130b3576130b26128b1565b5b5f6130c08682870161304f565b93505060206130d18682870161304f565b92505060406130e286828701613088565b9150509250925092565b7f4e487b71000000000000000000000000000000000000000000000000000000005f52601260045260245ffd5b7f6d756c446976206f766572666c6f7700000000000000000000000000000000005f82015250565b5f61314d600f83612c64565b915061315882613119565b602082019050919050565b5f6020820190508181035f83015261317a81613141565b9050919050565b5f5ffd5b5f62ffffff82169050919050565b61319c81613185565b81146131a6575f5ffd5b50565b5f815190506131b781613193565b92915050565b5f67ffffffffffffffff82169050919050565b6131d9816131bd565b81146131e3575f5ffd5b50565b5f815190506131f4816131d0565b92915050565b5f6080828403121561320f5761320e613181565b5b6132196080612a0d565b90505f61322884828501612cda565b5f83015250602061323b848285016131a9565b602083015250604061324f84828501612dc6565b6040830152506060613263848285016131e6565b60608301525092915050565b5f60808284031215613284576132836128b1565b5b5f613291848285016131fa565b91505092915050565b7f4469726563746f72792063616e6e6f74206265207a65726f20616464726573735f82015250565b5f6132ce602083612c64565b91506132d98261329a565b602082019050919050565b5f6020820190508181035f8301526132fb816132c2565b9050919050565b7f4469726563746f7279206d757374206265206120636f6e7472616374000000005f82015250565b5f613336601c83612c64565b915061334182613302565b602082019050919050565b5f6020820190508181035f8301526133638161332a565b9050919050565b7f4469726563746f7279206164647265737320646f6573206e6f7420696d706c655f8201527f6d656e74206f776e657228290000000000000000000000000000000000000000602082015250565b5f6133c4602c83612c64565b91506133cf8261336a565b604082019050919050565b5f6020820190508181035f8301526133f1816133b8565b9050919050565b7f4e487b71000000000000000000000000000000000000000000000000000000005f52601160045260245ffd5b5f61342f8261293e565b915061343a8361293e565b92508282026134488161293e565b9150828204841483151761345f5761345e6133f8565b5b5092915050565b5f6134708261293e565b915061347b8361293e565b9250828201905080821115613493576134926133f8565b5b9291505056fea264697066735822122041c4b2aeda34a68eaf0caf7ea455b1cdb87df1ba344df13907c3acd31b0f106e64736f6c634300081e0033",
					"opcodes": "PUSH2 0x120 PUSH1 0x40 MSTORE CALLVALUE DUP1 ISZERO PUSH2 0x10 JUMPI PUSH0 PUSH0 REVERT JUMPDEST POP PUSH1 0x40 MLOAD PUSH2 0x3E16 CODESIZE SUB DUP1 PUSH2 0x3E16 DUP4 CODECOPY DUP2 DUP2 ADD PUSH1 0x40 MSTORE DUP2 ADD SWAP1 PUSH2 0x32 SWAP2 SWAP1 PUSH2 0x635 JUMP JUMPDEST DUP4 PUSH2 0x42 DUP2 PUSH2 0x3F1 PUSH1 0x20 SHL PUSH1 0x20 SHR JUMP JUMPDEST POP DUP3 PUSH20 0xFFFFFFFFFFFFFFFFFFFFFFFFFFFFFFFFFFFFFFFF AND PUSH1 0x80 DUP2 PUSH20 0xFFFFFFFFFFFFFFFFFFFFFFFFFFFFFFFFFFFFFFFF AND DUP2 MSTORE POP POP DUP2 PUSH20 0xFFFFFFFFFFFFFFFFFFFFFFFFFFFFFFFFFFFFFFFF AND PUSH1 0xC0 DUP2 PUSH20 0xFFFFFFFFFFFFFFFFFFFFFFFFFFFFFFFFFFFFFFFF AND DUP2 MSTORE POP POP DUP1 ISZERO ISZERO PUSH1 0xE0 DUP2 ISZERO ISZERO DUP2 MSTORE POP POP DUP3 PUSH20 0xFFFFFFFFFFFFFFFFFFFFFFFFFFFFFFFFFFFFFFFF AND PUSH4 0x313CE567 PUSH1 0x40 MLOAD DUP2 PUSH4 0xFFFFFFFF AND PUSH1 0xE0 SHL DUP2 MSTORE PUSH1 0x4 ADD PUSH1 0x20 PUSH1 0x40 MLOAD DUP1 DUP4 SUB DUP2 DUP7 GAS STATICCALL ISZERO DUP1 ISZERO PUSH2 0x100 JUMPI RETURNDATASIZE PUSH0 PUSH0 RETURNDATACOPY RETURNDATASIZE PUSH0 REVERT JUMPDEST POP POP POP POP PUSH1 0x40 MLOAD RETURNDATASIZE PUSH1 0x1F NOT PUSH1 0x1F DUP3 ADD AND DUP3 ADD DUP1 PUSH1 0x40 MSTORE POP DUP2 ADD SWAP1 PUSH2 0x124 SWAP2 SWAP1 PUSH2 0x6CF JUMP JUMPDEST PUSH1 0xFF AND PUSH2 0x100 DUP2 PUSH1 0xFF AND DUP2 MSTORE POP POP DUP1 ISZERO PUSH2 0x292 JUMPI PUSH0 DUP3 SWAP1 POP PUSH0 DUP2 PUSH20 0xFFFFFFFFFFFFFFFFFFFFFFFFFFFFFFFFFFFFFFFF AND PUSH4 0xDFE1681 PUSH1 0x40 MLOAD DUP2 PUSH4 0xFFFFFFFF AND PUSH1 0xE0 SHL DUP2 MSTORE PUSH1 0x4 ADD PUSH1 0x20 PUSH1 0x40 MLOAD DUP1 DUP4 SUB DUP2 DUP7 GAS STATICCALL ISZERO DUP1 ISZERO PUSH2 0x186 JUMPI RETURNDATASIZE PUSH0 PUSH0 RETURNDATACOPY RETURNDATASIZE PUSH0 REVERT JUMPDEST POP POP POP POP PUSH1 0x40 MLOAD RETURNDATASIZE PUSH1 0x1F NOT PUSH1 0x1F DUP3 ADD AND DUP3 ADD DUP1 PUSH1 0x40 MSTORE POP DUP2 ADD SWAP1 PUSH2 0x1AA SWAP2 SWAP1 PUSH2 0x6FA JUMP JUMPDEST SWAP1 POP PUSH0 DUP3 PUSH20 0xFFFFFFFFFFFFFFFFFFFFFFFFFFFFFFFFFFFFFFFF AND PUSH4 0xD21220A7 PUSH1 0x40 MLOAD DUP2 PUSH4 0xFFFFFFFF AND PUSH1 0xE0 SHL DUP2 MSTORE PUSH1 0x4 ADD PUSH1 0x20 PUSH1 0x40 MLOAD DUP1 DUP4 SUB DUP2 DUP7 GAS STATICCALL ISZERO DUP1 ISZERO PUSH2 0x1F6 JUMPI RETURNDATASIZE PUSH0 PUSH0 RETURNDATACOPY RETURNDATASIZE PUSH0 REVERT JUMPDEST POP POP POP POP PUSH1 0x40 MLOAD RETURNDATASIZE PUSH1 0x1F NOT PUSH1 0x1F DUP3 ADD AND DUP3 ADD DUP1 PUSH1 0x40 MSTORE POP DUP2 ADD SWAP1 PUSH2 0x21A SWAP2 SWAP1 PUSH2 0x6FA JUMP JUMPDEST SWAP1 POP DUP6 PUSH20 0xFFFFFFFFFFFFFFFFFFFFFFFFFFFFFFFFFFFFFFFF AND DUP3 PUSH20 0xFFFFFFFFFFFFFFFFFFFFFFFFFFFFFFFFFFFFFFFF AND EQ PUSH2 0x255 JUMPI DUP2 PUSH2 0x257 JUMP JUMPDEST DUP1 JUMPDEST PUSH20 0xFFFFFFFFFFFFFFFFFFFFFFFFFFFFFFFFFFFFFFFF AND PUSH1 0xA0 DUP2 PUSH20 0xFFFFFFFFFFFFFFFFFFFFFFFFFFFFFFFFFFFFFFFF AND DUP2 MSTORE POP POP POP POP POP PUSH2 0x3E8 JUMP JUMPDEST PUSH0 DUP3 SWAP1 POP PUSH0 DUP2 PUSH20 0xFFFFFFFFFFFFFFFFFFFFFFFFFFFFFFFFFFFFFFFF AND PUSH4 0xDFE1681 PUSH1 0x40 MLOAD DUP2 PUSH4 0xFFFFFFFF AND PUSH1 0xE0 SHL DUP2 MSTORE PUSH1 0x4 ADD PUSH1 0x20 PUSH1 0x40 MLOAD DUP1 DUP4 SUB DUP2 DUP7 GAS STATICCALL ISZERO DUP1 ISZERO PUSH2 0x2E0 JUMPI RETURNDATASIZE PUSH0 PUSH0 RETURNDATACOPY RETURNDATASIZE PUSH0 REVERT JUMPDEST POP POP POP POP PUSH1 0x40 MLOAD RETURNDATASIZE PUSH1 0x1F NOT PUSH1 0x1F DUP3 ADD AND DUP3 ADD DUP1 PUSH1 0x40 MSTORE POP DUP2 ADD SWAP1 PUSH2 0x304 SWAP2 SWAP1 PUSH2 0x6FA JUMP JUMPDEST SWAP1 POP PUSH0 DUP3 PUSH20 0xFFFFFFFFFFFFFFFFFFFFFFFFFFFFFFFFFFFFFFFF AND PUSH4 0xD21220A7 PUSH1 0x40 MLOAD DUP2 PUSH4 0xFFFFFFFF AND PUSH1 0xE0 SHL DUP2 MSTORE PUSH1 0x4 ADD PUSH1 0x20 PUSH1 0x40 MLOAD DUP1 DUP4 SUB DUP2 DUP7 GAS STATICCALL ISZERO DUP1 ISZERO PUSH2 0x350 JUMPI RETURNDATASIZE PUSH0 PUSH0 RETURNDATACOPY RETURNDATASIZE PUSH0 REVERT JUMPDEST POP POP POP POP PUSH1 0x40 MLOAD RETURNDATASIZE PUSH1 0x1F NOT PUSH1 0x1F DUP3 ADD AND DUP3 ADD DUP1 PUSH1 0x40 MSTORE POP DUP2 ADD SWAP1 PUSH2 0x374 SWAP2 SWAP1 PUSH2 0x6FA JUMP JUMPDEST SWAP1 POP DUP6 PUSH20 0xFFFFFFFFFFFFFFFFFFFFFFFFFFFFFFFFFFFFFFFF AND DUP3 PUSH20 0xFFFFFFFFFFFFFFFFFFFFFFFFFFFFFFFFFFFFFFFF AND EQ PUSH2 0x3AF JUMPI DUP2 PUSH2 0x3B1 JUMP JUMPDEST DUP1 JUMPDEST PUSH20 0xFFFFFFFFFFFFFFFFFFFFFFFFFFFFFFFFFFFFFFFF AND PUSH1 0xA0 DUP2 PUSH20 0xFFFFFFFFFFFFFFFFFFFFFFFFFFFFFFFFFFFFFFFF AND DUP2 MSTORE POP POP POP POP POP JUMPDEST POP POP POP POP PUSH2 0x893 JUMP JUMPDEST PUSH0 PUSH20 0xFFFFFFFFFFFFFFFFFFFFFFFFFFFFFFFFFFFFFFFF AND DUP2 PUSH20 0xFFFFFFFFFFFFFFFFFFFFFFFFFFFFFFFFFFFFFFFF AND SUB PUSH2 0x45F JUMPI PUSH1 0x40 MLOAD PUSH32 0x8C379A000000000000000000000000000000000000000000000000000000000 DUP2 MSTORE PUSH1 0x4 ADD PUSH2 0x456 SWAP1 PUSH2 0x77F JUMP JUMPDEST PUSH1 0x40 MLOAD DUP1 SWAP2 SUB SWAP1 REVERT JUMPDEST PUSH0 DUP2 PUSH20 0xFFFFFFFFFFFFFFFFFFFFFFFFFFFFFFFFFFFFFFFF AND EXTCODESIZE GT PUSH2 0x4B8 JUMPI PUSH1 0x40 MLOAD PUSH32 0x8C379A000000000000000000000000000000000000000000000000000000000 DUP2 MSTORE PUSH1 0x4 ADD PUSH2 0x4AF SWAP1 PUSH2 0x7E7 JUMP JUMPDEST PUSH1 0x40 MLOAD DUP1 SWAP2 SUB SWAP1 REVERT JUMPDEST DUP1 PUSH20 0xFFFFFFFFFFFFFFFFFFFFFFFFFFFFFFFFFFFFFFFF AND PUSH4 0x8DA5CB5B PUSH1 0x40 MLOAD DUP2 PUSH4 0xFFFFFFFF AND PUSH1 0xE0 SHL DUP2 MSTORE PUSH1 0x4 ADD PUSH1 0x20 PUSH1 0x40 MLOAD DUP1 DUP4 SUB DUP2 DUP7 GAS STATICCALL SWAP3 POP POP POP DUP1 ISZERO PUSH2 0x520 JUMPI POP PUSH1 0x40 MLOAD RETURNDATASIZE PUSH1 0x1F NOT PUSH1 0x1F DUP3 ADD AND DUP3 ADD DUP1 PUSH1 0x40 MSTORE POP DUP2 ADD SWAP1 PUSH2 0x51D SWAP2 SWAP1 PUSH2 0x6FA JUMP JUMPDEST PUSH1 0x1 JUMPDEST PUSH2 0x55F JUMPI PUSH1 0x40 MLOAD PUSH32 0x8C379A000000000000000000000000000000000000000000000000000000000 DUP2 MSTORE PUSH1 0x4 ADD PUSH2 0x556 SWAP1 PUSH2 0x875 JUMP JUMPDEST PUSH1 0x40 MLOAD DUP1 SWAP2 SUB SWAP1 REVERT JUMPDEST DUP2 PUSH0 PUSH0 PUSH2 0x100 EXP DUP2 SLOAD DUP2 PUSH20 0xFFFFFFFFFFFFFFFFFFFFFFFFFFFFFFFFFFFFFFFF MUL NOT AND SWAP1 DUP4 PUSH20 0xFFFFFFFFFFFFFFFFFFFFFFFFFFFFFFFFFFFFFFFF AND MUL OR SWAP1 SSTORE POP POP POP JUMP JUMPDEST PUSH0 PUSH0 REVERT JUMPDEST PUSH0 PUSH20 0xFFFFFFFFFFFFFFFFFFFFFFFFFFFFFFFFFFFFFFFF DUP3 AND SWAP1 POP SWAP2 SWAP1 POP JUMP JUMPDEST PUSH0 PUSH2 0x5CF DUP3 PUSH2 0x5A6 JUMP JUMPDEST SWAP1 POP SWAP2 SWAP1 POP JUMP JUMPDEST PUSH2 0x5DF DUP2 PUSH2 0x5C5 JUMP JUMPDEST DUP2 EQ PUSH2 0x5E9 JUMPI PUSH0 PUSH0 REVERT JUMPDEST POP JUMP JUMPDEST PUSH0 DUP2 MLOAD SWAP1 POP PUSH2 0x5FA DUP2 PUSH2 0x5D6 JUMP JUMPDEST SWAP3 SWAP2 POP POP JUMP JUMPDEST PUSH0 DUP2 ISZERO ISZERO SWAP1 POP SWAP2 SWAP1 POP JUMP JUMPDEST PUSH2 0x614 DUP2 PUSH2 0x600 JUMP JUMPDEST DUP2 EQ PUSH2 0x61E JUMPI PUSH0 PUSH0 REVERT JUMPDEST POP JUMP JUMPDEST PUSH0 DUP2 MLOAD SWAP1 POP PUSH2 0x62F DUP2 PUSH2 0x60B JUMP JUMPDEST SWAP3 SWAP2 POP POP JUMP JUMPDEST PUSH0 PUSH0 PUSH0 PUSH0 PUSH1 0x80 DUP6 DUP8 SUB SLT ISZERO PUSH2 0x64D JUMPI PUSH2 0x64C PUSH2 0x5A2 JUMP JUMPDEST JUMPDEST PUSH0 PUSH2 0x65A DUP8 DUP3 DUP9 ADD PUSH2 0x5EC JUMP JUMPDEST SWAP5 POP POP PUSH1 0x20 PUSH2 0x66B DUP8 DUP3 DUP9 ADD PUSH2 0x5EC JUMP JUMPDEST SWAP4 POP POP PUSH1 0x40 PUSH2 0x67C DUP8 DUP3 DUP9 ADD PUSH2 0x5EC JUMP JUMPDEST SWAP3 POP POP PUSH1 0x60 PUSH2 0x68D DUP8 DUP3 DUP9 ADD PUSH2 0x621 JUMP JUMPDEST SWAP2 POP POP SWAP3 SWAP6 SWAP2 SWAP5 POP SWAP3 POP JUMP JUMPDEST PUSH0 PUSH1 0xFF DUP3 AND SWAP1 POP SWAP2 SWAP1 POP JUMP JUMPDEST PUSH2 0x6AE DUP2 PUSH2 0x699 JUMP JUMPDEST DUP2 EQ PUSH2 0x6B8 JUMPI PUSH0 PUSH0 REVERT JUMPDEST POP JUMP JUMPDEST PUSH0 DUP2 MLOAD SWAP1 POP PUSH2 0x6C9 DUP2 PUSH2 0x6A5 JUMP JUMPDEST SWAP3 SWAP2 POP POP JUMP JUMPDEST PUSH0 PUSH1 0x20 DUP3 DUP5 SUB SLT ISZERO PUSH2 0x6E4 JUMPI PUSH2 0x6E3 PUSH2 0x5A2 JUMP JUMPDEST JUMPDEST PUSH0 PUSH2 0x6F1 DUP5 DUP3 DUP6 ADD PUSH2 0x6BB JUMP JUMPDEST SWAP2 POP POP SWAP3 SWAP2 POP POP JUMP JUMPDEST PUSH0 PUSH1 0x20 DUP3 DUP5 SUB SLT ISZERO PUSH2 0x70F JUMPI PUSH2 0x70E PUSH2 0x5A2 JUMP JUMPDEST JUMPDEST PUSH0 PUSH2 0x71C DUP5 DUP3 DUP6 ADD PUSH2 0x5EC JUMP JUMPDEST SWAP2 POP POP SWAP3 SWAP2 POP POP JUMP JUMPDEST PUSH0 DUP3 DUP3 MSTORE PUSH1 0x20 DUP3 ADD SWAP1 POP SWAP3 SWAP2 POP POP JUMP JUMPDEST PUSH32 0x4469726563746F72792063616E6E6F74206265207A65726F2061646472657373 PUSH0 DUP3 ADD MSTORE POP JUMP JUMPDEST PUSH0 PUSH2 0x769 PUSH1 0x20 DUP4 PUSH2 0x725 JUMP JUMPDEST SWAP2 POP PUSH2 0x774 DUP3 PUSH2 0x735 JUMP JUMPDEST PUSH1 0x20 DUP3 ADD SWAP1 POP SWAP2 SWAP1 POP JUMP JUMPDEST PUSH0 PUSH1 0x20 DUP3 ADD SWAP1 POP DUP2 DUP2 SUB PUSH0 DUP4 ADD MSTORE PUSH2 0x796 DUP2 PUSH2 0x75D JUMP JUMPDEST SWAP1 POP SWAP2 SWAP1 POP JUMP JUMPDEST PUSH32 0x4469726563746F7279206D757374206265206120636F6E747261637400000000 PUSH0 DUP3 ADD MSTORE POP JUMP JUMPDEST PUSH0 PUSH2 0x7D1 PUSH1 0x1C DUP4 PUSH2 0x725 JUMP JUMPDEST SWAP2 POP PUSH2 0x7DC DUP3 PUSH2 0x79D JUMP JUMPDEST PUSH1 0x20 DUP3 ADD SWAP1 POP SWAP2 SWAP1 POP JUMP JUMPDEST PUSH0 PUSH1 0x20 DUP3 ADD SWAP1 POP DUP2 DUP2 SUB PUSH0 DUP4 ADD MSTORE PUSH2 0x7FE DUP2 PUSH2 0x7C5 JUMP JUMPDEST SWAP1 POP SWAP2 SWAP1 POP JUMP JUMPDEST PUSH32 0x4469726563746F7279206164647265737320646F6573206E6F7420696D706C65 PUSH0 DUP3 ADD MSTORE PUSH32 0x6D656E74206F776E657228290000000000000000000000000000000000000000 PUSH1 0x20 DUP3 ADD MSTORE POP JUMP JUMPDEST PUSH0 PUSH2 0x85F PUSH1 0x2C DUP4 PUSH2 0x725 JUMP JUMPDEST SWAP2 POP PUSH2 0x86A DUP3 PUSH2 0x805 JUMP JUMPDEST PUSH1 0x40 DUP3 ADD SWAP1 POP SWAP2 SWAP1 POP JUMP JUMPDEST PUSH0 PUSH1 0x20 DUP3 ADD SWAP1 POP DUP2 DUP2 SUB PUSH0 DUP4 ADD MSTORE PUSH2 0x88C DUP2 PUSH2 0x853 JUMP JUMPDEST SWAP1 POP SWAP2 SWAP1 POP JUMP JUMPDEST PUSH1 0x80 MLOAD PUSH1 0xA0 MLOAD PUSH1 0xC0 MLOAD PUSH1 0xE0 MLOAD PUSH2 0x100 MLOAD PUSH2 0x34CF PUSH2 0x947 PUSH0 CODECOPY PUSH0 DUP2 DUP2 PUSH2 0x1081 ADD MSTORE PUSH2 0x161C ADD MSTORE PUSH0 DUP2 DUP2 PUSH2 0xB4C ADD MSTORE DUP2 DUP2 PUSH2 0x1014 ADD MSTORE PUSH2 0x1AC1 ADD MSTORE PUSH0 DUP2 DUP2 PUSH2 0x468 ADD MSTORE DUP2 DUP2 PUSH2 0xFF3 ADD MSTORE PUSH2 0x1AA0 ADD MSTORE PUSH0 DUP2 DUP2 PUSH2 0xEA6 ADD MSTORE PUSH2 0x1AE2 ADD MSTORE PUSH0 DUP2 DUP2 PUSH2 0x444 ADD MSTORE DUP2 DUP2 PUSH2 0xC7C ADD MSTORE DUP2 DUP2 PUSH2 0xD6C ADD MSTORE DUP2 DUP2 PUSH2 0xDE3 ADD MSTORE DUP2 DUP2 PUSH2 0x1535 ADD MSTORE DUP2 DUP2 PUSH2 0x1589 ADD MSTORE DUP2 DUP2 PUSH2 0x1FF7 ADD MSTORE DUP2 DUP2 PUSH2 0x2049 ADD MSTORE DUP2 DUP2 PUSH2 0x2158 ADD MSTORE DUP2 DUP2 PUSH2 0x2528 ADD MSTORE DUP2 DUP2 PUSH2 0x257A ADD MSTORE PUSH2 0x2610 ADD MSTORE PUSH2 0x34CF PUSH0 RETURN INVALID PUSH1 0x80 PUSH1 0x40 MSTORE CALLVALUE DUP1 ISZERO PUSH2 0xF JUMPI PUSH0 PUSH0 REVERT JUMPDEST POP PUSH1 0x4 CALLDATASIZE LT PUSH2 0x129 JUMPI PUSH0 CALLDATALOAD PUSH1 0xE0 SHR DUP1 PUSH4 0x658A847A GT PUSH2 0xAB JUMPI DUP1 PUSH4 0x9D1211BF GT PUSH2 0x6F JUMPI DUP1 PUSH4 0x9D1211BF EQ PUSH2 0x392 JUMPI DUP1 PUSH4 0xBA4C7BE1 EQ PUSH2 0x3B0 JUMPI DUP1 PUSH4 0xBE00E0C2 EQ PUSH2 0x3CC JUMPI DUP1 PUSH4 0xD08AEF7C EQ PUSH2 0x3D6 JUMPI DUP1 PUSH4 0xD43D883E EQ PUSH2 0x3F4 JUMPI PUSH2 0x129 JUMP JUMPDEST DUP1 PUSH4 0x658A847A EQ PUSH2 0x2D8 JUMPI DUP1 PUSH4 0x6855E939 EQ PUSH2 0x2F6 JUMPI DUP1 PUSH4 0x69A2E17D EQ PUSH2 0x314 JUMPI DUP1 PUSH4 0x7B49B49D EQ PUSH2 0x344 JUMPI DUP1 PUSH4 0x8DA5CB5B EQ PUSH2 0x374 JUMPI PUSH2 0x129 JUMP JUMPDEST DUP1 PUSH4 0x2C5D1063 GT PUSH2 0xF2 JUMPI DUP1 PUSH4 0x2C5D1063 EQ PUSH2 0x1F9 JUMPI DUP1 PUSH4 0x41E0E1D6 EQ PUSH2 0x229 JUMPI DUP1 PUSH4 0x5498F4BC EQ PUSH2 0x25A JUMPI DUP1 PUSH4 0x57B6C133 EQ PUSH2 0x278 JUMPI DUP1 PUSH4 0x63AA0C93 EQ PUSH2 0x2A8 JUMPI PUSH2 0x129 JUMP JUMPDEST DUP1 PUSH3 0x593BCF EQ PUSH2 0x12D JUMPI DUP1 PUSH4 0x40141E5 EQ PUSH2 0x15D JUMPI DUP1 PUSH4 0xB017603 EQ PUSH2 0x17B JUMPI DUP1 PUSH4 0xDBC0D7D EQ PUSH2 0x199 JUMPI DUP1 PUSH4 0x27262618 EQ PUSH2 0x1C9 JUMPI JUMPDEST PUSH0 PUSH0 REVERT JUMPDEST PUSH2 0x147 PUSH1 0x4 DUP1 CALLDATASIZE SUB DUP2 ADD SWAP1 PUSH2 0x142 SWAP2 SWAP1 PUSH2 0x2913 JUMP JUMPDEST PUSH2 0x424 JUMP JUMPDEST PUSH1 0x40 MLOAD PUSH2 0x154 SWAP2 SWAP1 PUSH2 0x2956 JUMP JUMPDEST PUSH1 0x40 MLOAD DUP1 SWAP2 SUB SWAP1 RETURN JUMPDEST PUSH2 0x165 PUSH2 0x442 JUMP JUMPDEST PUSH1 0x40 MLOAD PUSH2 0x172 SWAP2 SWAP1 PUSH2 0x297E JUMP JUMPDEST PUSH1 0x40 MLOAD DUP1 SWAP2 SUB SWAP1 RETURN JUMPDEST PUSH2 0x183 PUSH2 0x466 JUMP JUMPDEST PUSH1 0x40 MLOAD PUSH2 0x190 SWAP2 SWAP1 PUSH2 0x297E JUMP JUMPDEST PUSH1 0x40 MLOAD DUP1 SWAP2 SUB SWAP1 RETURN JUMPDEST PUSH2 0x1B3 PUSH1 0x4 DUP1 CALLDATASIZE SUB DUP2 ADD SWAP1 PUSH2 0x1AE SWAP2 SWAP1 PUSH2 0x2913 JUMP JUMPDEST PUSH2 0x48A JUMP JUMPDEST PUSH1 0x40 MLOAD PUSH2 0x1C0 SWAP2 SWAP1 PUSH2 0x2956 JUMP JUMPDEST PUSH1 0x40 MLOAD DUP1 SWAP2 SUB SWAP1 RETURN JUMPDEST PUSH2 0x1E3 PUSH1 0x4 DUP1 CALLDATASIZE SUB DUP2 ADD SWAP1 PUSH2 0x1DE SWAP2 SWAP1 PUSH2 0x2AD3 JUMP JUMPDEST PUSH2 0x49B JUMP JUMPDEST PUSH1 0x40 MLOAD PUSH2 0x1F0 SWAP2 SWAP1 PUSH2 0x297E JUMP JUMPDEST PUSH1 0x40 MLOAD DUP1 SWAP2 SUB SWAP1 RETURN JUMPDEST PUSH2 0x213 PUSH1 0x4 DUP1 CALLDATASIZE SUB DUP2 ADD SWAP1 PUSH2 0x20E SWAP2 SWAP1 PUSH2 0x2B1A JUMP JUMPDEST PUSH2 0x53B JUMP JUMPDEST PUSH1 0x40 MLOAD PUSH2 0x220 SWAP2 SWAP1 PUSH2 0x2956 JUMP JUMPDEST PUSH1 0x40 MLOAD DUP1 SWAP2 SUB SWAP1 RETURN JUMPDEST PUSH2 0x243 PUSH1 0x4 DUP1 CALLDATASIZE SUB DUP2 ADD SWAP1 PUSH2 0x23E SWAP2 SWAP1 PUSH2 0x2913 JUMP JUMPDEST PUSH2 0xB36 JUMP JUMPDEST PUSH1 0x40 MLOAD PUSH2 0x251 SWAP3 SWAP2 SWAP1 PUSH2 0x2B72 JUMP JUMPDEST PUSH1 0x40 MLOAD DUP1 SWAP2 SUB SWAP1 RETURN JUMPDEST PUSH2 0x262 PUSH2 0xB4A JUMP JUMPDEST PUSH1 0x40 MLOAD PUSH2 0x26F SWAP2 SWAP1 PUSH2 0x2B99 JUMP JUMPDEST PUSH1 0x40 MLOAD DUP1 SWAP2 SUB SWAP1 RETURN JUMPDEST PUSH2 0x292 PUSH1 0x4 DUP1 CALLDATASIZE SUB DUP2 ADD SWAP1 PUSH2 0x28D SWAP2 SWAP1 PUSH2 0x2913 JUMP JUMPDEST PUSH2 0xB6E JUMP JUMPDEST PUSH1 0x40 MLOAD PUSH2 0x29F SWAP2 SWAP1 PUSH2 0x2956 JUMP JUMPDEST PUSH1 0x40 MLOAD DUP1 SWAP2 SUB SWAP1 RETURN JUMPDEST PUSH2 0x2C2 PUSH1 0x4 DUP1 CALLDATASIZE SUB DUP2 ADD SWAP1 PUSH2 0x2BD SWAP2 SWAP1 PUSH2 0x2913 JUMP JUMPDEST PUSH2 0xB8C JUMP JUMPDEST PUSH1 0x40 MLOAD PUSH2 0x2CF SWAP2 SWAP1 PUSH2 0x2956 JUMP JUMPDEST PUSH1 0x40 MLOAD DUP1 SWAP2 SUB SWAP1 RETURN JUMPDEST PUSH2 0x2E0 PUSH2 0xD03 JUMP JUMPDEST PUSH1 0x40 MLOAD PUSH2 0x2ED SWAP2 SWAP1 PUSH2 0x2C0D JUMP JUMPDEST PUSH1 0x40 MLOAD DUP1 SWAP2 SUB SWAP1 RETURN JUMPDEST PUSH2 0x2FE PUSH2 0xD27 JUMP JUMPDEST PUSH1 0x40 MLOAD PUSH2 0x30B SWAP2 SWAP1 PUSH2 0x2956 JUMP JUMPDEST PUSH1 0x40 MLOAD DUP1 SWAP2 SUB SWAP1 RETURN JUMPDEST PUSH2 0x32E PUSH1 0x4 DUP1 CALLDATASIZE SUB DUP2 ADD SWAP1 PUSH2 0x329 SWAP2 SWAP1 PUSH2 0x2913 JUMP JUMPDEST PUSH2 0xD35 JUMP JUMPDEST PUSH1 0x40 MLOAD PUSH2 0x33B SWAP2 SWAP1 PUSH2 0x2956 JUMP JUMPDEST PUSH1 0x40 MLOAD DUP1 SWAP2 SUB SWAP1 RETURN JUMPDEST PUSH2 0x35E PUSH1 0x4 DUP1 CALLDATASIZE SUB DUP2 ADD SWAP1 PUSH2 0x359 SWAP2 SWAP1 PUSH2 0x2913 JUMP JUMPDEST PUSH2 0xD69 JUMP JUMPDEST PUSH1 0x40 MLOAD PUSH2 0x36B SWAP2 SWAP1 PUSH2 0x2956 JUMP JUMPDEST PUSH1 0x40 MLOAD DUP1 SWAP2 SUB SWAP1 RETURN JUMPDEST PUSH2 0x37C PUSH2 0xE11 JUMP JUMPDEST PUSH1 0x40 MLOAD PUSH2 0x389 SWAP2 SWAP1 PUSH2 0x297E JUMP JUMPDEST PUSH1 0x40 MLOAD DUP1 SWAP2 SUB SWAP1 RETURN JUMPDEST PUSH2 0x39A PUSH2 0xEA4 JUMP JUMPDEST PUSH1 0x40 MLOAD PUSH2 0x3A7 SWAP2 SWAP1 PUSH2 0x297E JUMP JUMPDEST PUSH1 0x40 MLOAD DUP1 SWAP2 SUB SWAP1 RETURN JUMPDEST PUSH2 0x3CA PUSH1 0x4 DUP1 CALLDATASIZE SUB DUP2 ADD SWAP1 PUSH2 0x3C5 SWAP2 SWAP1 PUSH2 0x2913 JUMP JUMPDEST PUSH2 0xEC8 JUMP JUMPDEST STOP JUMPDEST PUSH2 0x3D4 PUSH2 0xFCE JUMP JUMPDEST STOP JUMPDEST PUSH2 0x3DE PUSH2 0x107F JUMP JUMPDEST PUSH1 0x40 MLOAD PUSH2 0x3EB SWAP2 SWAP1 PUSH2 0x2C41 JUMP JUMPDEST PUSH1 0x40 MLOAD DUP1 SWAP2 SUB SWAP1 RETURN JUMPDEST PUSH2 0x40E PUSH1 0x4 DUP1 CALLDATASIZE SUB DUP2 ADD SWAP1 PUSH2 0x409 SWAP2 SWAP1 PUSH2 0x2B1A JUMP JUMPDEST PUSH2 0x10A3 JUMP JUMPDEST PUSH1 0x40 MLOAD PUSH2 0x41B SWAP2 SWAP1 PUSH2 0x2956 JUMP JUMPDEST PUSH1 0x40 MLOAD DUP1 SWAP2 SUB SWAP1 RETURN JUMPDEST PUSH0 PUSH0 PUSH2 0x42F DUP4 PUSH2 0xD69 JUMP JUMPDEST SWAP1 POP PUSH2 0x43A DUP2 PUSH2 0x14EB JUMP JUMPDEST SWAP2 POP POP SWAP2 SWAP1 POP JUMP JUMPDEST PUSH32 0x0 DUP2 JUMP JUMPDEST PUSH32 0x0 DUP2 JUMP JUMPDEST PUSH0 PUSH2 0x494 DUP3 PUSH2 0x1532 JUMP JUMPDEST SWAP1 POP SWAP2 SWAP1 POP JUMP JUMPDEST PUSH0 PUSH0 PUSH0 SWAP1 SLOAD SWAP1 PUSH2 0x100 EXP SWAP1 DIV PUSH20 0xFFFFFFFFFFFFFFFFFFFFFFFFFFFFFFFFFFFFFFFF AND PUSH20 0xFFFFFFFFFFFFFFFFFFFFFFFFFFFFFFFFFFFFFFFF AND PUSH4 0x27262618 DUP4 PUSH1 0x40 MLOAD DUP3 PUSH4 0xFFFFFFFF AND PUSH1 0xE0 SHL DUP2 MSTORE PUSH1 0x4 ADD PUSH2 0x4F5 SWAP2 SWAP1 PUSH2 0x2CBA JUMP JUMPDEST PUSH1 0x20 PUSH1 0x40 MLOAD DUP1 DUP4 SUB DUP2 DUP7 GAS STATICCALL ISZERO DUP1 ISZERO PUSH2 0x510 JUMPI RETURNDATASIZE PUSH0 PUSH0 RETURNDATACOPY RETURNDATASIZE PUSH0 REVERT JUMPDEST POP POP POP POP PUSH1 0x40 MLOAD RETURNDATASIZE PUSH1 0x1F NOT PUSH1 0x1F DUP3 ADD AND DUP3 ADD DUP1 PUSH1 0x40 MSTORE POP DUP2 ADD SWAP1 PUSH2 0x534 SWAP2 SWAP1 PUSH2 0x2CEE JUMP JUMPDEST SWAP1 POP SWAP2 SWAP1 POP JUMP JUMPDEST PUSH0 PUSH0 DUP4 SWAP1 POP PUSH0 DUP2 PUSH20 0xFFFFFFFFFFFFFFFFFFFFFFFFFFFFFFFFFFFFFFFF AND PUSH4 0x3850C7BD PUSH1 0x40 MLOAD DUP2 PUSH4 0xFFFFFFFF AND PUSH1 0xE0 SHL DUP2 MSTORE PUSH1 0x4 ADD PUSH1 0xE0 PUSH1 0x40 MLOAD DUP1 DUP4 SUB DUP2 DUP7 GAS STATICCALL ISZERO DUP1 ISZERO PUSH2 0x58A JUMPI RETURNDATASIZE PUSH0 PUSH0 RETURNDATACOPY RETURNDATASIZE PUSH0 REVERT JUMPDEST POP POP POP POP PUSH1 0x40 MLOAD RETURNDATASIZE PUSH1 0x1F NOT PUSH1 0x1F DUP3 ADD AND DUP3 ADD DUP1 PUSH1 0x40 MSTORE POP DUP2 ADD SWAP1 PUSH2 0x5AE SWAP2 SWAP1 PUSH2 0x2E04 JUMP JUMPDEST POP POP POP POP POP POP SWAP1 POP PUSH0 DUP3 PUSH20 0xFFFFFFFFFFFFFFFFFFFFFFFFFFFFFFFFFFFFFFFF AND PUSH4 0x1A686502 PUSH1 0x40 MLOAD DUP2 PUSH4 0xFFFFFFFF AND PUSH1 0xE0 SHL DUP2 MSTORE PUSH1 0x4 ADD PUSH1 0x20 PUSH1 0x40 MLOAD DUP1 DUP4 SUB DUP2 DUP7 GAS STATICCALL ISZERO DUP1 ISZERO PUSH2 0x600 JUMPI RETURNDATASIZE PUSH0 PUSH0 RETURNDATACOPY RETURNDATASIZE PUSH0 REVERT JUMPDEST POP POP POP POP PUSH1 0x40 MLOAD RETURNDATASIZE PUSH1 0x1F NOT PUSH1 0x1F DUP3 ADD AND DUP3 ADD DUP1 PUSH1 0x40 MSTORE POP DUP2 ADD SWAP1 PUSH2 0x624 SWAP2 SWAP1 PUSH2 0x2EE6 JUMP JUMPDEST PUSH16 0xFFFFFFFFFFFFFFFFFFFFFFFFFFFFFFFF AND SUB PUSH2 0x66D JUMPI PUSH1 0x40 MLOAD PUSH32 0x1007454800000000000000000000000000000000000000000000000000000000 DUP2 MSTORE PUSH1 0x4 ADD PUSH1 0x40 MLOAD DUP1 SWAP2 SUB SWAP1 REVERT JUMPDEST PUSH0 DUP3 PUSH20 0xFFFFFFFFFFFFFFFFFFFFFFFFFFFFFFFFFFFFFFFF AND PUSH4 0xDFE1681 PUSH1 0x40 MLOAD DUP2 PUSH4 0xFFFFFFFF AND PUSH1 0xE0 SHL DUP2 MSTORE PUSH1 0x4 ADD PUSH1 0x20 PUSH1 0x40 MLOAD DUP1 DUP4 SUB DUP2 DUP7 GAS STATICCALL ISZERO DUP1 ISZERO PUSH2 0x6B7 JUMPI RETURNDATASIZE PUSH0 PUSH0 RETURNDATACOPY RETURNDATASIZE PUSH0 REVERT JUMPDEST POP POP POP POP PUSH1 0x40 MLOAD RETURNDATASIZE PUSH1 0x1F NOT PUSH1 0x1F DUP3 ADD AND DUP3 ADD DUP1 PUSH1 0x40 MSTORE POP DUP2 ADD SWAP1 PUSH2 0x6DB SWAP2 SWAP1 PUSH2 0x2CEE JUMP JUMPDEST SWAP1 POP PUSH0 DUP4 PUSH20 0xFFFFFFFFFFFFFFFFFFFFFFFFFFFFFFFFFFFFFFFF AND PUSH4 0xD21220A7 PUSH1 0x40 MLOAD DUP2 PUSH4 0xFFFFFFFF AND PUSH1 0xE0 SHL DUP2 MSTORE PUSH1 0x4 ADD PUSH1 0x20 PUSH1 0x40 MLOAD DUP1 DUP4 SUB DUP2 DUP7 GAS STATICCALL ISZERO DUP1 ISZERO PUSH2 0x727 JUMPI RETURNDATASIZE PUSH0 PUSH0 RETURNDATACOPY RETURNDATASIZE PUSH0 REVERT JUMPDEST POP POP POP POP PUSH1 0x40 MLOAD RETURNDATASIZE PUSH1 0x1F NOT PUSH1 0x1F DUP3 ADD AND DUP3 ADD DUP1 PUSH1 0x40 MSTORE POP DUP2 ADD SWAP1 PUSH2 0x74B SWAP2 SWAP1 PUSH2 0x2CEE JUMP JUMPDEST SWAP1 POP PUSH0 DUP7 PUSH20 0xFFFFFFFFFFFFFFFFFFFFFFFFFFFFFFFFFFFFFFFF AND DUP4 PUSH20 0xFFFFFFFFFFFFFFFFFFFFFFFFFFFFFFFFFFFFFFFF AND EQ SWAP1 POP PUSH0 DUP8 PUSH20 0xFFFFFFFFFFFFFFFFFFFFFFFFFFFFFFFFFFFFFFFF AND DUP4 PUSH20 0xFFFFFFFFFFFFFFFFFFFFFFFFFFFFFFFFFFFFFFFF AND EQ SWAP1 POP DUP2 DUP1 PUSH2 0x7BA JUMPI POP DUP1 JUMPDEST ISZERO DUP1 PUSH2 0x7CC JUMPI POP DUP2 DUP1 ISZERO PUSH2 0x7CB JUMPI POP DUP1 JUMPDEST JUMPDEST ISZERO PUSH2 0x803 JUMPI PUSH1 0x40 MLOAD PUSH32 0xB0D73DC900000000000000000000000000000000000000000000000000000000 DUP2 MSTORE PUSH1 0x4 ADD PUSH1 0x40 MLOAD DUP1 SWAP2 SUB SWAP1 REVERT JUMPDEST PUSH0 PUSH2 0x848 DUP7 PUSH20 0xFFFFFFFFFFFFFFFFFFFFFFFFFFFFFFFFFFFFFFFF AND DUP8 PUSH20 0xFFFFFFFFFFFFFFFFFFFFFFFFFFFFFFFFFFFFFFFF AND PUSH13 0x1000000000000000000000000 PUSH2 0x1681 JUMP JUMPDEST SWAP1 POP DUP2 ISZERO PUSH2 0x9BF JUMPI PUSH0 DUP5 PUSH20 0xFFFFFFFFFFFFFFFFFFFFFFFFFFFFFFFFFFFFFFFF AND PUSH4 0x313CE567 PUSH1 0x40 MLOAD DUP2 PUSH4 0xFFFFFFFF AND PUSH1 0xE0 SHL DUP2 MSTORE PUSH1 0x4 ADD PUSH1 0x20 PUSH1 0x40 MLOAD DUP1 DUP4 SUB DUP2 DUP7 GAS STATICCALL ISZERO DUP1 ISZERO PUSH2 0x89A JUMPI RETURNDATASIZE PUSH0 PUSH0 RETURNDATACOPY RETURNDATASIZE PUSH0 REVERT JUMPDEST POP POP POP POP PUSH1 0x40 MLOAD RETURNDATASIZE PUSH1 0x1F NOT PUSH1 0x1F DUP3 ADD AND DUP3 ADD DUP1 PUSH1 0x40 MSTORE POP DUP2 ADD SWAP1 PUSH2 0x8BE SWAP2 SWAP1 PUSH2 0x2F11 JUMP JUMPDEST SWAP1 POP PUSH0 DUP7 PUSH20 0xFFFFFFFFFFFFFFFFFFFFFFFFFFFFFFFFFFFFFFFF AND PUSH4 0x313CE567 PUSH1 0x40 MLOAD DUP2 PUSH4 0xFFFFFFFF AND PUSH1 0xE0 SHL DUP2 MSTORE PUSH1 0x4 ADD PUSH1 0x20 PUSH1 0x40 MLOAD DUP1 DUP4 SUB DUP2 DUP7 GAS STATICCALL ISZERO DUP1 ISZERO PUSH2 0x90A JUMPI RETURNDATASIZE PUSH0 PUSH0 RETURNDATACOPY RETURNDATASIZE PUSH0 REVERT JUMPDEST POP POP POP POP PUSH1 0x40 MLOAD RETURNDATASIZE PUSH1 0x1F NOT PUSH1 0x1F DUP3 ADD AND DUP3 ADD DUP1 PUSH1 0x40 MSTORE POP DUP2 ADD SWAP1 PUSH2 0x92E SWAP2 SWAP1 PUSH2 0x2F11 JUMP JUMPDEST SWAP1 POP DUP2 PUSH1 0xFF AND DUP2 PUSH1 0xFF AND LT PUSH2 0x97E JUMPI PUSH0 PUSH2 0x949 DUP4 DUP4 SUB PUSH2 0x178B JUMP JUMPDEST PUSH8 0xDE0B6B3A7640000 MUL SWAP1 POP PUSH2 0x96D DUP5 DUP3 PUSH13 0x1000000000000000000000000 PUSH2 0x1681 JUMP JUMPDEST SWAP11 POP POP POP POP POP POP POP POP POP POP POP PUSH2 0xB30 JUMP JUMPDEST PUSH0 PUSH2 0x98A DUP3 DUP5 SUB PUSH2 0x178B JUMP JUMPDEST PUSH13 0x1000000000000000000000000 MUL SWAP1 POP PUSH2 0x9AE DUP5 PUSH8 0xDE0B6B3A7640000 DUP4 PUSH2 0x1681 JUMP JUMPDEST SWAP11 POP POP POP POP POP POP POP POP POP POP POP PUSH2 0xB30 JUMP JUMPDEST PUSH0 DUP6 PUSH20 0xFFFFFFFFFFFFFFFFFFFFFFFFFFFFFFFFFFFFFFFF AND PUSH4 0x313CE567 PUSH1 0x40 MLOAD DUP2 PUSH4 0xFFFFFFFF AND PUSH1 0xE0 SHL DUP2 MSTORE PUSH1 0x4 ADD PUSH1 0x20 PUSH1 0x40 MLOAD DUP1 DUP4 SUB DUP2 DUP7 GAS STATICCALL ISZERO DUP1 ISZERO PUSH2 0xA09 JUMPI RETURNDATASIZE PUSH0 PUSH0 RETURNDATACOPY RETURNDATASIZE PUSH0 REVERT JUMPDEST POP POP POP POP PUSH1 0x40 MLOAD RETURNDATASIZE PUSH1 0x1F NOT PUSH1 0x1F DUP3 ADD AND DUP3 ADD DUP1 PUSH1 0x40 MSTORE POP DUP2 ADD SWAP1 PUSH2 0xA2D SWAP2 SWAP1 PUSH2 0x2F11 JUMP JUMPDEST SWAP1 POP PUSH0 DUP6 PUSH20 0xFFFFFFFFFFFFFFFFFFFFFFFFFFFFFFFFFFFFFFFF AND PUSH4 0x313CE567 PUSH1 0x40 MLOAD DUP2 PUSH4 0xFFFFFFFF AND PUSH1 0xE0 SHL DUP2 MSTORE PUSH1 0x4 ADD PUSH1 0x20 PUSH1 0x40 MLOAD DUP1 DUP4 SUB DUP2 DUP7 GAS STATICCALL ISZERO DUP1 ISZERO PUSH2 0xA79 JUMPI RETURNDATASIZE PUSH0 PUSH0 RETURNDATACOPY RETURNDATASIZE PUSH0 REVERT JUMPDEST POP POP POP POP PUSH1 0x40 MLOAD RETURNDATASIZE PUSH1 0x1F NOT PUSH1 0x1F DUP3 ADD AND DUP3 ADD DUP1 PUSH1 0x40 MSTORE POP DUP2 ADD SWAP1 PUSH2 0xA9D SWAP2 SWAP1 PUSH2 0x2F11 JUMP JUMPDEST SWAP1 POP DUP2 PUSH1 0xFF AND DUP2 PUSH1 0xFF AND LT PUSH2 0xAF0 JUMPI PUSH0 PUSH13 0x1000000000000000000000000 PUSH2 0xAC6 DUP5 DUP5 SUB PUSH2 0x178B JUMP JUMPDEST PUSH8 0xDE0B6B3A7640000 MUL MUL SWAP1 POP PUSH2 0xADF DUP2 PUSH1 0x1 DUP7 PUSH2 0x1681 JUMP JUMPDEST SWAP11 POP POP POP POP POP POP POP POP POP POP POP PUSH2 0xB30 JUMP JUMPDEST PUSH0 PUSH2 0xAFC DUP3 DUP5 SUB PUSH2 0x178B JUMP JUMPDEST DUP5 MUL SWAP1 POP PUSH2 0xB23 PUSH13 0x1000000000000000000000000 PUSH8 0xDE0B6B3A7640000 MUL PUSH1 0x1 DUP4 PUSH2 0x1681 JUMP JUMPDEST SWAP11 POP POP POP POP POP POP POP POP POP POP POP JUMPDEST SWAP3 SWAP2 POP POP JUMP JUMPDEST PUSH0 PUSH0 PUSH2 0xB41 DUP4 PUSH2 0x193B JUMP JUMPDEST SWAP2 POP SWAP2 POP SWAP2 POP SWAP2 JUMP JUMPDEST PUSH32 0x0 DUP2 JUMP JUMPDEST PUSH0 PUSH0 PUSH2 0xB79 DUP4 PUSH2 0x48A JUMP JUMPDEST SWAP1 POP PUSH2 0xB84 DUP2 PUSH2 0x14EB JUMP JUMPDEST SWAP2 POP POP SWAP2 SWAP1 POP JUMP JUMPDEST PUSH0 PUSH0 DUP3 PUSH20 0xFFFFFFFFFFFFFFFFFFFFFFFFFFFFFFFFFFFFFFFF AND PUSH4 0x18160DDD PUSH1 0x40 MLOAD DUP2 PUSH4 0xFFFFFFFF AND PUSH1 0xE0 SHL DUP2 MSTORE PUSH1 0x4 ADD PUSH1 0x20 PUSH1 0x40 MLOAD DUP1 DUP4 SUB DUP2 DUP7 GAS STATICCALL ISZERO DUP1 ISZERO PUSH2 0xBD7 JUMPI RETURNDATASIZE PUSH0 PUSH0 RETURNDATACOPY RETURNDATASIZE PUSH0 REVERT JUMPDEST POP POP POP POP PUSH1 0x40 MLOAD RETURNDATASIZE PUSH1 0x1F NOT PUSH1 0x1F DUP3 ADD AND DUP3 ADD DUP1 PUSH1 0x40 MSTORE POP DUP2 ADD SWAP1 PUSH2 0xBFB SWAP2 SWAP1 PUSH2 0x2F66 JUMP JUMPDEST SWAP1 POP PUSH0 DUP4 PUSH20 0xFFFFFFFFFFFFFFFFFFFFFFFFFFFFFFFFFFFFFFFF AND PUSH4 0x313CE567 PUSH1 0x40 MLOAD DUP2 PUSH4 0xFFFFFFFF AND PUSH1 0xE0 SHL DUP2 MSTORE PUSH1 0x4 ADD PUSH1 0x20 PUSH1 0x40 MLOAD DUP1 DUP4 SUB DUP2 DUP7 GAS STATICCALL ISZERO DUP1 ISZERO PUSH2 0xC47 JUMPI RETURNDATASIZE PUSH0 PUSH0 RETURNDATACOPY RETURNDATASIZE PUSH0 REVERT JUMPDEST POP POP POP POP PUSH1 0x40 MLOAD RETURNDATASIZE PUSH1 0x1F NOT PUSH1 0x1F DUP3 ADD AND DUP3 ADD DUP1 PUSH1 0x40 MSTORE POP DUP2 ADD SWAP1 PUSH2 0xC6B SWAP2 SWAP1 PUSH2 0x2F11 JUMP JUMPDEST SWAP1 POP PUSH0 PUSH2 0xC78 DUP4 DUP4 PUSH2 0x1A40 JUMP JUMPDEST SWAP1 POP PUSH32 0x0 PUSH20 0xFFFFFFFFFFFFFFFFFFFFFFFFFFFFFFFFFFFFFFFF AND DUP6 PUSH20 0xFFFFFFFFFFFFFFFFFFFFFFFFFFFFFFFFFFFFFFFF AND SUB PUSH2 0xCD8 JUMPI DUP1 SWAP4 POP POP POP POP PUSH2 0xCFE JUMP JUMPDEST PUSH0 PUSH2 0xCE2 DUP7 PUSH2 0xD69 JUMP JUMPDEST SWAP1 POP PUSH2 0xCF7 DUP3 DUP3 PUSH8 0xDE0B6B3A7640000 PUSH2 0x1681 JUMP JUMPDEST SWAP5 POP POP POP POP POP JUMPDEST SWAP2 SWAP1 POP JUMP JUMPDEST PUSH0 PUSH0 SWAP1 SLOAD SWAP1 PUSH2 0x100 EXP SWAP1 DIV PUSH20 0xFFFFFFFFFFFFFFFFFFFFFFFFFFFFFFFFFFFFFFFF AND DUP2 JUMP JUMPDEST PUSH0 PUSH2 0xD30 PUSH2 0x1A9A JUMP JUMPDEST SWAP1 POP SWAP1 JUMP JUMPDEST PUSH0 PUSH0 PUSH2 0xD40 DUP4 PUSH2 0xB8C JUMP JUMPDEST SWAP1 POP PUSH0 PUSH2 0xD4B PUSH2 0xD27 JUMP JUMPDEST SWAP1 POP PUSH2 0xD60 DUP3 DUP3 PUSH8 0xDE0B6B3A7640000 PUSH2 0x1681 JUMP JUMPDEST SWAP3 POP POP POP SWAP2 SWAP1 POP JUMP JUMPDEST PUSH0 PUSH32 0x0 PUSH20 0xFFFFFFFFFFFFFFFFFFFFFFFFFFFFFFFFFFFFFFFF AND DUP3 PUSH20 0xFFFFFFFFFFFFFFFFFFFFFFFFFFFFFFFFFFFFFFFF AND SUB PUSH2 0xDCD JUMPI PUSH8 0xDE0B6B3A7640000 SWAP1 POP PUSH2 0xE0C JUMP JUMPDEST PUSH0 PUSH0 PUSH2 0xDD8 DUP5 PUSH2 0x193B JUMP JUMPDEST SWAP2 POP SWAP2 POP PUSH2 0xE07 DUP2 DUP4 PUSH32 0x0 PUSH2 0x1B0B JUMP JUMPDEST SWAP3 POP POP POP JUMPDEST SWAP2 SWAP1 POP JUMP JUMPDEST PUSH0 PUSH0 PUSH0 SWAP1 SLOAD SWAP1 PUSH2 0x100 EXP SWAP1 DIV PUSH20 0xFFFFFFFFFFFFFFFFFFFFFFFFFFFFFFFFFFFFFFFF AND PUSH20 0xFFFFFFFFFFFFFFFFFFFFFFFFFFFFFFFFFFFFFFFF AND PUSH4 0x8DA5CB5B PUSH1 0x40 MLOAD DUP2 PUSH4 0xFFFFFFFF AND PUSH1 0xE0 SHL DUP2 MSTORE PUSH1 0x4 ADD PUSH1 0x20 PUSH1 0x40 MLOAD DUP1 DUP4 SUB DUP2 DUP7 GAS STATICCALL ISZERO DUP1 ISZERO PUSH2 0xE7B JUMPI RETURNDATASIZE PUSH0 PUSH0 RETURNDATACOPY RETURNDATASIZE PUSH0 REVERT JUMPDEST POP POP POP POP PUSH1 0x40 MLOAD RETURNDATASIZE PUSH1 0x1F NOT PUSH1 0x1F DUP3 ADD AND DUP3 ADD DUP1 PUSH1 0x40 MSTORE POP DUP2 ADD SWAP1 PUSH2 0xE9F SWAP2 SWAP1 PUSH2 0x2CEE JUMP JUMPDEST SWAP1 POP SWAP1 JUMP JUMPDEST PUSH32 0x0 DUP2 JUMP JUMPDEST PUSH0 PUSH0 SWAP1 SLOAD SWAP1 PUSH2 0x100 EXP SWAP1 DIV PUSH20 0xFFFFFFFFFFFFFFFFFFFFFFFFFFFFFFFFFFFFFFFF AND PUSH20 0xFFFFFFFFFFFFFFFFFFFFFFFFFFFFFFFFFFFFFFFF AND PUSH4 0x8DA5CB5B PUSH1 0x40 MLOAD DUP2 PUSH4 0xFFFFFFFF AND PUSH1 0xE0 SHL DUP2 MSTORE PUSH1 0x4 ADD PUSH1 0x20 PUSH1 0x40 MLOAD DUP1 DUP4 SUB DUP2 DUP7 GAS STATICCALL ISZERO DUP1 ISZERO PUSH2 0xF31 JUMPI RETURNDATASIZE PUSH0 PUSH0 RETURNDATACOPY RETURNDATASIZE PUSH0 REVERT JUMPDEST POP POP POP POP PUSH1 0x40 MLOAD RETURNDATASIZE PUSH1 0x1F NOT PUSH1 0x1F DUP3 ADD AND DUP3 ADD DUP1 PUSH1 0x40 MSTORE POP DUP2 ADD SWAP1 PUSH2 0xF55 SWAP2 SWAP1 PUSH2 0x2CEE JUMP JUMPDEST PUSH20 0xFFFFFFFFFFFFFFFFFFFFFFFFFFFFFFFFFFFFFFFF AND CALLER PUSH20 0xFFFFFFFFFFFFFFFFFFFFFFFFFFFFFFFFFFFFFFFF AND EQ PUSH2 0xFC2 JUMPI PUSH1 0x40 MLOAD PUSH32 0x8C379A000000000000000000000000000000000000000000000000000000000 DUP2 MSTORE PUSH1 0x4 ADD PUSH2 0xFB9 SWAP1 PUSH2 0x2FDB JUMP JUMPDEST PUSH1 0x40 MLOAD DUP1 SWAP2 SUB SWAP1 REVERT JUMPDEST PUSH2 0xFCB DUP2 PUSH2 0x1B37 JUMP JUMPDEST POP JUMP JUMPDEST PUSH2 0xFD6 PUSH2 0x1CE8 JUMP JUMPDEST PUSH20 0xFFFFFFFFFFFFFFFFFFFFFFFFFFFFFFFFFFFFFFFF AND PUSH4 0x15345689 PUSH32 0x0 PUSH32 0x0 PUSH1 0x40 MLOAD DUP4 PUSH4 0xFFFFFFFF AND PUSH1 0xE0 SHL DUP2 MSTORE PUSH1 0x4 ADD PUSH2 0x1050 SWAP3 SWAP2 SWAP1 PUSH2 0x2FF9 JUMP JUMPDEST PUSH0 PUSH1 0x40 MLOAD DUP1 DUP4 SUB DUP2 PUSH0 DUP8 DUP1 EXTCODESIZE ISZERO DUP1 ISZERO PUSH2 0x1067 JUMPI PUSH0 PUSH0 REVERT JUMPDEST POP GAS CALL ISZERO DUP1 ISZERO PUSH2 0x1079 JUMPI RETURNDATASIZE PUSH0 PUSH0 RETURNDATACOPY RETURNDATASIZE PUSH0 REVERT JUMPDEST POP POP POP POP JUMP JUMPDEST PUSH32 0x0 DUP2 JUMP JUMPDEST PUSH0 PUSH0 DUP4 SWAP1 POP PUSH0 DUP2 PUSH20 0xFFFFFFFFFFFFFFFFFFFFFFFFFFFFFFFFFFFFFFFF AND PUSH4 0xDFE1681 PUSH1 0x40 MLOAD DUP2 PUSH4 0xFFFFFFFF AND PUSH1 0xE0 SHL DUP2 MSTORE PUSH1 0x4 ADD PUSH1 0x20 PUSH1 0x40 MLOAD DUP1 DUP4 SUB DUP2 DUP7 GAS STATICCALL ISZERO DUP1 ISZERO PUSH2 0x10F2 JUMPI RETURNDATASIZE PUSH0 PUSH0 RETURNDATACOPY RETURNDATASIZE PUSH0 REVERT JUMPDEST POP POP POP POP PUSH1 0x40 MLOAD RETURNDATASIZE PUSH1 0x1F NOT PUSH1 0x1F DUP3 ADD AND DUP3 ADD DUP1 PUSH1 0x40 MSTORE POP DUP2 ADD SWAP1 PUSH2 0x1116 SWAP2 SWAP1 PUSH2 0x2CEE JUMP JUMPDEST SWAP1 POP PUSH0 DUP3 PUSH20 0xFFFFFFFFFFFFFFFFFFFFFFFFFFFFFFFFFFFFFFFF AND PUSH4 0xD21220A7 PUSH1 0x40 MLOAD DUP2 PUSH4 0xFFFFFFFF AND PUSH1 0xE0 SHL DUP2 MSTORE PUSH1 0x4 ADD PUSH1 0x20 PUSH1 0x40 MLOAD DUP1 DUP4 SUB DUP2 DUP7 GAS STATICCALL ISZERO DUP1 ISZERO PUSH2 0x1162 JUMPI RETURNDATASIZE PUSH0 PUSH0 RETURNDATACOPY RETURNDATASIZE PUSH0 REVERT JUMPDEST POP POP POP POP PUSH1 0x40 MLOAD RETURNDATASIZE PUSH1 0x1F NOT PUSH1 0x1F DUP3 ADD AND DUP3 ADD DUP1 PUSH1 0x40 MSTORE POP DUP2 ADD SWAP1 PUSH2 0x1186 SWAP2 SWAP1 PUSH2 0x2CEE JUMP JUMPDEST SWAP1 POP PUSH0 PUSH0 DUP5 PUSH20 0xFFFFFFFFFFFFFFFFFFFFFFFFFFFFFFFFFFFFFFFF AND PUSH4 0x902F1AC PUSH1 0x40 MLOAD DUP2 PUSH4 0xFFFFFFFF AND PUSH1 0xE0 SHL DUP2 MSTORE PUSH1 0x4 ADD PUSH1 0x60 PUSH1 0x40 MLOAD DUP1 DUP4 SUB DUP2 DUP7 GAS STATICCALL ISZERO DUP1 ISZERO PUSH2 0x11D3 JUMPI RETURNDATASIZE PUSH0 PUSH0 RETURNDATACOPY RETURNDATASIZE PUSH0 REVERT JUMPDEST POP POP POP POP PUSH1 0x40 MLOAD RETURNDATASIZE PUSH1 0x1F NOT PUSH1 0x1F DUP3 ADD AND DUP3 ADD DUP1 PUSH1 0x40 MSTORE POP DUP2 ADD SWAP1 PUSH2 0x11F7 SWAP2 SWAP1 PUSH2 0x309C JUMP JUMPDEST POP SWAP2 POP SWAP2 POP PUSH0 DUP8 PUSH20 0xFFFFFFFFFFFFFFFFFFFFFFFFFFFFFFFFFFFFFFFF AND DUP6 PUSH20 0xFFFFFFFFFFFFFFFFFFFFFFFFFFFFFFFFFFFFFFFF AND EQ SWAP1 POP PUSH0 DUP9 PUSH20 0xFFFFFFFFFFFFFFFFFFFFFFFFFFFFFFFFFFFFFFFF AND DUP6 PUSH20 0xFFFFFFFFFFFFFFFFFFFFFFFFFFFFFFFFFFFFFFFF AND EQ SWAP1 POP DUP2 DUP1 PUSH2 0x1269 JUMPI POP DUP1 JUMPDEST ISZERO DUP1 PUSH2 0x127B JUMPI POP DUP2 DUP1 ISZERO PUSH2 0x127A JUMPI POP DUP1 JUMPDEST JUMPDEST ISZERO PUSH2 0x12B2 JUMPI PUSH1 0x40 MLOAD PUSH32 0xB0D73DC900000000000000000000000000000000000000000000000000000000 DUP2 MSTORE PUSH1 0x4 ADD PUSH1 0x40 MLOAD DUP1 SWAP2 SUB SWAP1 REVERT JUMPDEST DUP2 ISZERO PUSH2 0x13CD JUMPI PUSH0 DUP7 PUSH20 0xFFFFFFFFFFFFFFFFFFFFFFFFFFFFFFFFFFFFFFFF AND PUSH4 0x313CE567 PUSH1 0x40 MLOAD DUP2 PUSH4 0xFFFFFFFF AND PUSH1 0xE0 SHL DUP2 MSTORE PUSH1 0x4 ADD PUSH1 0x20 PUSH1 0x40 MLOAD DUP1 DUP4 SUB DUP2 DUP7 GAS STATICCALL ISZERO DUP1 ISZERO PUSH2 0x1302 JUMPI RETURNDATASIZE PUSH0 PUSH0 RETURNDATACOPY RETURNDATASIZE PUSH0 REVERT JUMPDEST POP POP POP POP PUSH1 0x40 MLOAD RETURNDATASIZE PUSH1 0x1F NOT PUSH1 0x1F DUP3 ADD AND DUP3 ADD DUP1 PUSH1 0x40 MSTORE POP DUP2 ADD SWAP1 PUSH2 0x1326 SWAP2 SWAP1 PUSH2 0x2F11 JUMP JUMPDEST SWAP1 POP PUSH0 DUP7 PUSH20 0xFFFFFFFFFFFFFFFFFFFFFFFFFFFFFFFFFFFFFFFF AND PUSH4 0x313CE567 PUSH1 0x40 MLOAD DUP2 PUSH4 0xFFFFFFFF AND PUSH1 0xE0 SHL DUP2 MSTORE PUSH1 0x4 ADD PUSH1 0x20 PUSH1 0x40 MLOAD DUP1 DUP4 SUB DUP2 DUP7 GAS STATICCALL ISZERO DUP1 ISZERO PUSH2 0x1372 JUMPI RETURNDATASIZE PUSH0 PUSH0 RETURNDATACOPY RETURNDATASIZE PUSH0 REVERT JUMPDEST POP POP POP POP PUSH1 0x40 MLOAD RETURNDATASIZE PUSH1 0x1F NOT PUSH1 0x1F DUP3 ADD AND DUP3 ADD DUP1 PUSH1 0x40 MSTORE POP DUP2 ADD SWAP1 PUSH2 0x1396 SWAP2 SWAP1 PUSH2 0x2F11 JUMP JUMPDEST SWAP1 POP PUSH2 0x13C4 DUP7 PUSH14 0xFFFFFFFFFFFFFFFFFFFFFFFFFFFF AND DUP4 DUP8 PUSH14 0xFFFFFFFFFFFFFFFFFFFFFFFFFFFF AND DUP5 PUSH2 0x1D2C JUMP JUMPDEST SWAP10 POP POP POP PUSH2 0x14DE JUMP JUMPDEST PUSH0 DUP6 PUSH20 0xFFFFFFFFFFFFFFFFFFFFFFFFFFFFFFFFFFFFFFFF AND PUSH4 0x313CE567 PUSH1 0x40 MLOAD DUP2 PUSH4 0xFFFFFFFF AND PUSH1 0xE0 SHL DUP2 MSTORE PUSH1 0x4 ADD PUSH1 0x20 PUSH1 0x40 MLOAD DUP1 DUP4 SUB DUP2 DUP7 GAS STATICCALL ISZERO DUP1 ISZERO PUSH2 0x1417 JUMPI RETURNDATASIZE PUSH0 PUSH0 RETURNDATACOPY RETURNDATASIZE PUSH0 REVERT JUMPDEST POP POP POP POP PUSH1 0x40 MLOAD RETURNDATASIZE PUSH1 0x1F NOT PUSH1 0x1F DUP3 ADD AND DUP3 ADD DUP1 PUSH1 0x40 MSTORE POP DUP2 ADD SWAP1 PUSH2 0x143B SWAP2 SWAP1 PUSH2 0x2F11 JUMP JUMPDEST SWAP1 POP PUSH0 DUP8 PUSH20 0xFFFFFFFFFFFFFFFFFFFFFFFFFFFFFFFFFFFFFFFF AND PUSH4 0x313CE567 PUSH1 0x40 MLOAD DUP2 PUSH4 0xFFFFFFFF AND PUSH1 0xE0 SHL DUP2 MSTORE PUSH1 0x4 ADD PUSH1 0x20 PUSH1 0x40 MLOAD DUP1 DUP4 SUB DUP2 DUP7 GAS STATICCALL ISZERO DUP1 ISZERO PUSH2 0x1487 JUMPI RETURNDATASIZE PUSH0 PUSH0 RETURNDATACOPY RETURNDATASIZE PUSH0 REVERT JUMPDEST POP POP POP POP PUSH1 0x40 MLOAD RETURNDATASIZE PUSH1 0x1F NOT PUSH1 0x1F DUP3 ADD AND DUP3 ADD DUP1 PUSH1 0x40 MSTORE POP DUP2 ADD SWAP1 PUSH2 0x14AB SWAP2 SWAP1 PUSH2 0x2F11 JUMP JUMPDEST SWAP1 POP PUSH2 0x14D9 DUP6 PUSH14 0xFFFFFFFFFFFFFFFFFFFFFFFFFFFF AND DUP4 DUP9 PUSH14 0xFFFFFFFFFFFFFFFFFFFFFFFFFFFF AND DUP5 PUSH2 0x1D2C JUMP JUMPDEST SWAP10 POP POP POP JUMPDEST POP POP POP POP POP POP POP SWAP3 SWAP2 POP POP JUMP JUMPDEST PUSH0 PUSH0 DUP3 SUB PUSH2 0x14FB JUMPI PUSH0 SWAP1 POP PUSH2 0x152D JUMP JUMPDEST PUSH0 PUSH2 0x1504 PUSH2 0x1A9A JUMP JUMPDEST SWAP1 POP PUSH0 DUP2 SUB PUSH2 0x1516 JUMPI PUSH0 SWAP2 POP POP PUSH2 0x152D JUMP JUMPDEST PUSH2 0x1529 DUP4 DUP3 PUSH8 0xDE0B6B3A7640000 PUSH2 0x1681 JUMP JUMPDEST SWAP2 POP POP JUMPDEST SWAP2 SWAP1 POP JUMP JUMPDEST PUSH0 PUSH32 0x0 PUSH20 0xFFFFFFFFFFFFFFFFFFFFFFFFFFFFFFFFFFFFFFFF AND DUP3 PUSH20 0xFFFFFFFFFFFFFFFFFFFFFFFFFFFFFFFFFFFFFFFF AND SUB PUSH2 0x1648 JUMPI PUSH0 PUSH32 0x0 PUSH20 0xFFFFFFFFFFFFFFFFFFFFFFFFFFFFFFFFFFFFFFFF AND PUSH4 0x18160DDD PUSH1 0x40 MLOAD DUP2 PUSH4 0xFFFFFFFF AND PUSH1 0xE0 SHL DUP2 MSTORE PUSH1 0x4 ADD PUSH1 0x20 PUSH1 0x40 MLOAD DUP1 DUP4 SUB DUP2 DUP7 GAS STATICCALL ISZERO DUP1 ISZERO PUSH2 0x15F0 JUMPI RETURNDATASIZE PUSH0 PUSH0 RETURNDATACOPY RETURNDATASIZE PUSH0 REVERT JUMPDEST POP POP POP POP PUSH1 0x40 MLOAD RETURNDATASIZE PUSH1 0x1F NOT PUSH1 0x1F DUP3 ADD AND DUP3 ADD DUP1 PUSH1 0x40 MSTORE POP DUP2 ADD SWAP1 PUSH2 0x1614 SWAP2 SWAP1 PUSH2 0x2F66 JUMP JUMPDEST SWAP1 POP PUSH2 0x1640 DUP2 PUSH32 0x0 PUSH2 0x1A40 JUMP JUMPDEST SWAP2 POP POP PUSH2 0x167C JUMP JUMPDEST PUSH0 PUSH0 PUSH2 0x1653 DUP5 PUSH2 0x193B JUMP JUMPDEST SWAP2 POP SWAP2 POP DUP2 ISZERO PUSH2 0x166D JUMPI PUSH2 0x1666 DUP2 PUSH2 0x1DDE JUMP JUMPDEST SWAP3 POP PUSH2 0x1679 JUMP JUMPDEST PUSH2 0x1676 DUP2 PUSH2 0x2368 JUMP JUMPDEST SWAP3 POP JUMPDEST POP POP JUMPDEST SWAP2 SWAP1 POP JUMP JUMPDEST PUSH0 PUSH0 PUSH0 PUSH0 NOT DUP6 DUP8 MULMOD DUP6 DUP8 MUL SWAP3 POP DUP3 DUP2 LT DUP4 DUP3 SUB SUB SWAP2 POP POP PUSH0 DUP2 SUB PUSH2 0x16B9 JUMPI DUP4 DUP3 DUP2 PUSH2 0x16AF JUMPI PUSH2 0x16AE PUSH2 0x30EC JUMP JUMPDEST JUMPDEST DIV SWAP3 POP POP POP PUSH2 0x1784 JUMP JUMPDEST DUP1 DUP5 GT PUSH2 0x16FB JUMPI PUSH1 0x40 MLOAD PUSH32 0x8C379A000000000000000000000000000000000000000000000000000000000 DUP2 MSTORE PUSH1 0x4 ADD PUSH2 0x16F2 SWAP1 PUSH2 0x3163 JUMP JUMPDEST PUSH1 0x40 MLOAD DUP1 SWAP2 SUB SWAP1 REVERT JUMPDEST PUSH0 DUP5 DUP7 DUP9 MULMOD SWAP1 POP DUP3 DUP2 GT DUP3 SUB SWAP2 POP DUP1 DUP4 SUB SWAP3 POP PUSH0 PUSH1 0x1 DUP7 NOT ADD DUP7 AND SWAP1 POP DUP1 DUP7 DIV SWAP6 POP DUP1 DUP5 DIV SWAP4 POP PUSH1 0x1 DUP2 DUP3 PUSH0 SUB DIV ADD SWAP1 POP DUP1 DUP4 MUL DUP5 OR SWAP4 POP PUSH0 PUSH1 0x2 DUP8 PUSH1 0x3 MUL XOR SWAP1 POP DUP1 DUP8 MUL PUSH1 0x2 SUB DUP2 MUL SWAP1 POP DUP1 DUP8 MUL PUSH1 0x2 SUB DUP2 MUL SWAP1 POP DUP1 DUP8 MUL PUSH1 0x2 SUB DUP2 MUL SWAP1 POP DUP1 DUP8 MUL PUSH1 0x2 SUB DUP2 MUL SWAP1 POP DUP1 DUP8 MUL PUSH1 0x2 SUB DUP2 MUL SWAP1 POP DUP1 DUP8 MUL PUSH1 0x2 SUB DUP2 MUL SWAP1 POP DUP1 DUP6 MUL SWAP6 POP POP POP POP POP POP JUMPDEST SWAP4 SWAP3 POP POP POP JUMP JUMPDEST PUSH0 PUSH0 DUP3 PUSH1 0xFF AND SUB PUSH2 0x179F JUMPI PUSH1 0x1 SWAP1 POP PUSH2 0x1936 JUMP JUMPDEST PUSH1 0x1 DUP3 PUSH1 0xFF AND SUB PUSH2 0x17B3 JUMPI PUSH1 0xA SWAP1 POP PUSH2 0x1936 JUMP JUMPDEST PUSH1 0x2 DUP3 PUSH1 0xFF AND SUB PUSH2 0x17C7 JUMPI PUSH1 0x64 SWAP1 POP PUSH2 0x1936 JUMP JUMPDEST PUSH1 0x3 DUP3 PUSH1 0xFF AND SUB PUSH2 0x17DC JUMPI PUSH2 0x3E8 SWAP1 POP PUSH2 0x1936 JUMP JUMPDEST PUSH1 0x4 DUP3 PUSH1 0xFF AND SUB PUSH2 0x17F1 JUMPI PUSH2 0x2710 SWAP1 POP PUSH2 0x1936 JUMP JUMPDEST PUSH1 0x5 DUP3 PUSH1 0xFF AND SUB PUSH2 0x1807 JUMPI PUSH3 0x186A0 SWAP1 POP PUSH2 0x1936 JUMP JUMPDEST PUSH1 0x6 DUP3 PUSH1 0xFF AND SUB PUSH2 0x181D JUMPI PUSH3 0xF4240 SWAP1 POP PUSH2 0x1936 JUMP JUMPDEST PUSH1 0x7 DUP3 PUSH1 0xFF AND SUB PUSH2 0x1833 JUMPI PUSH3 0x989680 SWAP1 POP PUSH2 0x1936 JUMP JUMPDEST PUSH1 0x8 DUP3 PUSH1 0xFF AND SUB PUSH2 0x184A JUMPI PUSH4 0x5F5E100 SWAP1 POP PUSH2 0x1936 JUMP JUMPDEST PUSH1 0x9 DUP3 PUSH1 0xFF AND SUB PUSH2 0x1861 JUMPI PUSH4 0x3B9ACA00 SWAP1 POP PUSH2 0x1936 JUMP JUMPDEST PUSH1 0xA DUP3 PUSH1 0xFF AND SUB PUSH2 0x1879 JUMPI PUSH5 0x2540BE400 SWAP1 POP PUSH2 0x1936 JUMP JUMPDEST PUSH1 0xB DUP3 PUSH1 0xFF AND SUB PUSH2 0x1891 JUMPI PUSH5 0x174876E800 SWAP1 POP PUSH2 0x1936 JUMP JUMPDEST PUSH1 0xC DUP3 PUSH1 0xFF AND SUB PUSH2 0x18A9 JUMPI PUSH5 0xE8D4A51000 SWAP1 POP PUSH2 0x1936 JUMP JUMPDEST PUSH1 0xD DUP3 PUSH1 0xFF AND SUB PUSH2 0x18C2 JUMPI PUSH6 0x9184E72A000 SWAP1 POP PUSH2 0x1936 JUMP JUMPDEST PUSH1 0xE DUP3 PUSH1 0xFF AND SUB PUSH2 0x18DB JUMPI PUSH6 0x5AF3107A4000 SWAP1 POP PUSH2 0x1936 JUMP JUMPDEST PUSH1 0xF DUP3 PUSH1 0xFF AND SUB PUSH2 0x18F5 JUMPI PUSH7 0x38D7EA4C68000 SWAP1 POP PUSH2 0x1936 JUMP JUMPDEST PUSH1 0x10 DUP3 PUSH1 0xFF AND SUB PUSH2 0x190F JUMPI PUSH7 0x2386F26FC10000 SWAP1 POP PUSH2 0x1936 JUMP JUMPDEST PUSH1 0x11 DUP3 PUSH1 0xFF AND SUB PUSH2 0x192A JUMPI PUSH8 0x16345785D8A0000 SWAP1 POP PUSH2 0x1936 JUMP JUMPDEST PUSH8 0xDE0B6B3A7640000 SWAP1 POP JUMPDEST SWAP2 SWAP1 POP JUMP JUMPDEST PUSH0 PUSH0 PUSH0 PUSH2 0x1946 PUSH2 0x1CE8 JUMP JUMPDEST PUSH20 0xFFFFFFFFFFFFFFFFFFFFFFFFFFFFFFFFFFFFFFFF AND PUSH4 0xDF697CC4 DUP6 PUSH1 0x40 MLOAD DUP3 PUSH4 0xFFFFFFFF AND PUSH1 0xE0 SHL DUP2 MSTORE PUSH1 0x4 ADD PUSH2 0x197E SWAP2 SWAP1 PUSH2 0x297E JUMP JUMPDEST PUSH1 0x80 PUSH1 0x40 MLOAD DUP1 DUP4 SUB DUP2 DUP7 GAS STATICCALL ISZERO DUP1 ISZERO PUSH2 0x1999 JUMPI RETURNDATASIZE PUSH0 PUSH0 RETURNDATACOPY RETURNDATASIZE PUSH0 REVERT JUMPDEST POP POP POP POP PUSH1 0x40 MLOAD RETURNDATASIZE PUSH1 0x1F NOT PUSH1 0x1F DUP3 ADD AND DUP3 ADD DUP1 PUSH1 0x40 MSTORE POP DUP2 ADD SWAP1 PUSH2 0x19BD SWAP2 SWAP1 PUSH2 0x326F JUMP JUMPDEST SWAP1 POP PUSH0 PUSH20 0xFFFFFFFFFFFFFFFFFFFFFFFFFFFFFFFFFFFFFFFF AND DUP2 PUSH0 ADD MLOAD PUSH20 0xFFFFFFFFFFFFFFFFFFFFFFFFFFFFFFFFFFFFFFFF AND SUB PUSH2 0x1A27 JUMPI PUSH1 0x40 MLOAD PUSH32 0x9C8787C000000000000000000000000000000000000000000000000000000000 DUP2 MSTORE PUSH1 0x4 ADD PUSH1 0x40 MLOAD DUP1 SWAP2 SUB SWAP1 REVERT JUMPDEST PUSH0 DUP2 PUSH1 0x40 ADD MLOAD PUSH1 0xFF AND EQ ISZERO SWAP3 POP DUP1 PUSH0 ADD MLOAD SWAP2 POP POP SWAP2 POP SWAP2 JUMP JUMPDEST PUSH0 PUSH1 0x12 DUP3 PUSH1 0xFF AND SUB PUSH2 0x1A54 JUMPI DUP3 SWAP1 POP PUSH2 0x1A94 JUMP JUMPDEST PUSH1 0x12 DUP3 PUSH1 0xFF AND LT ISZERO PUSH2 0x1A75 JUMPI PUSH2 0x1A6C DUP3 PUSH1 0x12 SUB PUSH2 0x178B JUMP JUMPDEST DUP4 MUL SWAP1 POP PUSH2 0x1A94 JUMP JUMPDEST PUSH2 0x1A81 PUSH1 0x12 DUP4 SUB PUSH2 0x178B JUMP JUMPDEST DUP4 DUP2 PUSH2 0x1A90 JUMPI PUSH2 0x1A8F PUSH2 0x30EC JUMP JUMPDEST JUMPDEST DIV SWAP1 POP JUMPDEST SWAP3 SWAP2 POP POP JUMP JUMPDEST PUSH0 PUSH2 0x1B06 PUSH32 0x0 PUSH32 0x0 PUSH32 0x0 PUSH2 0x1B0B JUMP JUMPDEST SWAP1 POP SWAP1 JUMP JUMPDEST PUSH0 DUP3 ISZERO PUSH2 0x1B23 JUMPI PUSH2 0x1B1C DUP5 DUP4 PUSH2 0x53B JUMP JUMPDEST SWAP1 POP PUSH2 0x1B30 JUMP JUMPDEST PUSH2 0x1B2D DUP5 DUP4 PUSH2 0x10A3 JUMP JUMPDEST SWAP1 POP JUMPDEST SWAP4 SWAP3 POP POP POP JUMP JUMPDEST PUSH0 PUSH20 0xFFFFFFFFFFFFFFFFFFFFFFFFFFFFFFFFFFFFFFFF AND DUP2 PUSH20 0xFFFFFFFFFFFFFFFFFFFFFFFFFFFFFFFFFFFFFFFF AND SUB PUSH2 0x1BA5 JUMPI PUSH1 0x40 MLOAD PUSH32 0x8C379A000000000000000000000000000000000000000000000000000000000 DUP2 MSTORE PUSH1 0x4 ADD PUSH2 0x1B9C SWAP1 PUSH2 0x32E4 JUMP JUMPDEST PUSH1 0x40 MLOAD DUP1 SWAP2 SUB SWAP1 REVERT JUMPDEST PUSH0 DUP2 PUSH20 0xFFFFFFFFFFFFFFFFFFFFFFFFFFFFFFFFFFFFFFFF AND EXTCODESIZE GT PUSH2 0x1BFE JUMPI PUSH1 0x40 MLOAD PUSH32 0x8C379A000000000000000000000000000000000000000000000000000000000 DUP2 MSTORE PUSH1 0x4 ADD PUSH2 0x1BF5 SWAP1 PUSH2 0x334C JUMP JUMPDEST PUSH1 0x40 MLOAD DUP1 SWAP2 SUB SWAP1 REVERT JUMPDEST DUP1 PUSH20 0xFFFFFFFFFFFFFFFFFFFFFFFFFFFFFFFFFFFFFFFF AND PUSH4 0x8DA5CB5B PUSH1 0x40 MLOAD DUP2 PUSH4 0xFFFFFFFF AND PUSH1 0xE0 SHL DUP2 MSTORE PUSH1 0x4 ADD PUSH1 0x20 PUSH1 0x40 MLOAD DUP1 DUP4 SUB DUP2 DUP7 GAS STATICCALL SWAP3 POP POP POP DUP1 ISZERO PUSH2 0x1C66 JUMPI POP PUSH1 0x40 MLOAD RETURNDATASIZE PUSH1 0x1F NOT PUSH1 0x1F DUP3 ADD AND DUP3 ADD DUP1 PUSH1 0x40 MSTORE POP DUP2 ADD SWAP1 PUSH2 0x1C63 SWAP2 SWAP1 PUSH2 0x2CEE JUMP JUMPDEST PUSH1 0x1 JUMPDEST PUSH2 0x1CA5 JUMPI PUSH1 0x40 MLOAD PUSH32 0x8C379A000000000000000000000000000000000000000000000000000000000 DUP2 MSTORE PUSH1 0x4 ADD PUSH2 0x1C9C SWAP1 PUSH2 0x33DA JUMP JUMPDEST PUSH1 0x40 MLOAD DUP1 SWAP2 SUB SWAP1 REVERT JUMPDEST DUP2 PUSH0 PUSH0 PUSH2 0x100 EXP DUP2 SLOAD DUP2 PUSH20 0xFFFFFFFFFFFFFFFFFFFFFFFFFFFFFFFFFFFFFFFF MUL NOT AND SWAP1 DUP4 PUSH20 0xFFFFFFFFFFFFFFFFFFFFFFFFFFFFFFFFFFFFFFFF AND MUL OR SWAP1 SSTORE POP POP POP JUMP JUMPDEST PUSH0 PUSH2 0x1D27 PUSH1 0x40 MLOAD DUP1 PUSH1 0x40 ADD PUSH1 0x40 MSTORE DUP1 PUSH1 0xB DUP2 MSTORE PUSH1 0x20 ADD PUSH32 0x706F6F6C2D66696E646572000000000000000000000000000000000000000000 DUP2 MSTORE POP PUSH2 0x49B JUMP JUMPDEST SWAP1 POP SWAP1 JUMP JUMPDEST PUSH0 PUSH0 DUP6 EQ DUP1 PUSH2 0x1D3A JUMPI POP PUSH0 DUP4 EQ JUMPDEST ISZERO PUSH2 0x1D71 JUMPI PUSH1 0x40 MLOAD PUSH32 0x8B4A713E00000000000000000000000000000000000000000000000000000000 DUP2 MSTORE PUSH1 0x4 ADD PUSH1 0x40 MLOAD DUP1 SWAP2 SUB SWAP1 REVERT JUMPDEST PUSH0 DUP5 PUSH1 0xFF AND DUP4 PUSH1 0xFF AND LT PUSH2 0x1D9B JUMPI PUSH2 0x1D8A DUP6 DUP5 SUB PUSH2 0x178B JUMP JUMPDEST PUSH8 0xDE0B6B3A7640000 MUL SWAP1 POP PUSH2 0x1DC7 JUMP JUMPDEST PUSH0 PUSH2 0x1DA7 DUP5 DUP8 SUB PUSH2 0x178B JUMP JUMPDEST DUP6 MUL SWAP1 POP PUSH2 0x1DBE DUP8 PUSH8 0xDE0B6B3A7640000 DUP4 PUSH2 0x1681 JUMP JUMPDEST SWAP3 POP POP POP PUSH2 0x1DD6 JUMP JUMPDEST PUSH2 0x1DD2 DUP7 DUP3 DUP7 PUSH2 0x1681 JUMP JUMPDEST SWAP2 POP POP JUMPDEST SWAP5 SWAP4 POP POP POP POP JUMP JUMPDEST PUSH0 PUSH0 DUP3 SWAP1 POP PUSH0 DUP2 PUSH20 0xFFFFFFFFFFFFFFFFFFFFFFFFFFFFFFFFFFFFFFFF AND PUSH4 0x3850C7BD PUSH1 0x40 MLOAD DUP2 PUSH4 0xFFFFFFFF AND PUSH1 0xE0 SHL DUP2 MSTORE PUSH1 0x4 ADD PUSH1 0xE0 PUSH1 0x40 MLOAD DUP1 DUP4 SUB DUP2 DUP7 GAS STATICCALL ISZERO DUP1 ISZERO PUSH2 0x1E2D JUMPI RETURNDATASIZE PUSH0 PUSH0 RETURNDATACOPY RETURNDATASIZE PUSH0 REVERT JUMPDEST POP POP POP POP PUSH1 0x40 MLOAD RETURNDATASIZE PUSH1 0x1F NOT PUSH1 0x1F DUP3 ADD AND DUP3 ADD DUP1 PUSH1 0x40 MSTORE POP DUP2 ADD SWAP1 PUSH2 0x1E51 SWAP2 SWAP1 PUSH2 0x2E04 JUMP JUMPDEST POP POP POP POP POP POP SWAP1 POP PUSH0 DUP3 PUSH20 0xFFFFFFFFFFFFFFFFFFFFFFFFFFFFFFFFFFFFFFFF AND PUSH4 0x1A686502 PUSH1 0x40 MLOAD DUP2 PUSH4 0xFFFFFFFF AND PUSH1 0xE0 SHL DUP2 MSTORE PUSH1 0x4 ADD PUSH1 0x20 PUSH1 0x40 MLOAD DUP1 DUP4 SUB DUP2 DUP7 GAS STATICCALL ISZERO DUP1 ISZERO PUSH2 0x1EA3 JUMPI RETURNDATASIZE PUSH0 PUSH0 RETURNDATACOPY RETURNDATASIZE PUSH0 REVERT JUMPDEST POP POP POP POP PUSH1 0x40 MLOAD RETURNDATASIZE PUSH1 0x1F NOT PUSH1 0x1F DUP3 ADD AND DUP3 ADD DUP1 PUSH1 0x40 MSTORE POP DUP2 ADD SWAP1 PUSH2 0x1EC7 SWAP2 SWAP1 PUSH2 0x2EE6 JUMP JUMPDEST SWAP1 POP PUSH0 DUP2 PUSH16 0xFFFFFFFFFFFFFFFFFFFFFFFFFFFFFFFF AND SUB PUSH2 0x1F14 JUMPI PUSH1 0x40 MLOAD PUSH32 0x1007454800000000000000000000000000000000000000000000000000000000 DUP2 MSTORE PUSH1 0x4 ADD PUSH1 0x40 MLOAD DUP1 SWAP2 SUB SWAP1 REVERT JUMPDEST PUSH0 DUP4 PUSH20 0xFFFFFFFFFFFFFFFFFFFFFFFFFFFFFFFFFFFFFFFF AND PUSH4 0xDFE1681 PUSH1 0x40 MLOAD DUP2 PUSH4 0xFFFFFFFF AND PUSH1 0xE0 SHL DUP2 MSTORE PUSH1 0x4 ADD PUSH1 0x20 PUSH1 0x40 MLOAD DUP1 DUP4 SUB DUP2 DUP7 GAS STATICCALL ISZERO DUP1 ISZERO PUSH2 0x1F5E JUMPI RETURNDATASIZE PUSH0 PUSH0 RETURNDATACOPY RETURNDATASIZE PUSH0 REVERT JUMPDEST POP POP POP POP PUSH1 0x40 MLOAD RETURNDATASIZE PUSH1 0x1F NOT PUSH1 0x1F DUP3 ADD AND DUP3 ADD DUP1 PUSH1 0x40 MSTORE POP DUP2 ADD SWAP1 PUSH2 0x1F82 SWAP2 SWAP1 PUSH2 0x2CEE JUMP JUMPDEST SWAP1 POP PUSH0 DUP5 PUSH20 0xFFFFFFFFFFFFFFFFFFFFFFFFFFFFFFFFFFFFFFFF AND PUSH4 0xD21220A7 PUSH1 0x40 MLOAD DUP2 PUSH4 0xFFFFFFFF AND PUSH1 0xE0 SHL DUP2 MSTORE PUSH1 0x4 ADD PUSH1 0x20 PUSH1 0x40 MLOAD DUP1 DUP4 SUB DUP2 DUP7 GAS STATICCALL ISZERO DUP1 ISZERO PUSH2 0x1FCE JUMPI RETURNDATASIZE PUSH0 PUSH0 RETURNDATACOPY RETURNDATASIZE PUSH0 REVERT JUMPDEST POP POP POP POP PUSH1 0x40 MLOAD RETURNDATASIZE PUSH1 0x1F NOT PUSH1 0x1F DUP3 ADD AND DUP3 ADD DUP1 PUSH1 0x40 MSTORE POP DUP2 ADD SWAP1 PUSH2 0x1FF2 SWAP2 SWAP1 PUSH2 0x2CEE JUMP JUMPDEST SWAP1 POP PUSH0 PUSH32 0x0 PUSH20 0xFFFFFFFFFFFFFFFFFFFFFFFFFFFFFFFFFFFFFFFF AND DUP4 PUSH20 0xFFFFFFFFFFFFFFFFFFFFFFFFFFFFFFFFFFFFFFFF AND EQ SWAP1 POP PUSH0 PUSH32 0x0 PUSH20 0xFFFFFFFFFFFFFFFFFFFFFFFFFFFFFFFFFFFFFFFF AND DUP4 PUSH20 0xFFFFFFFFFFFFFFFFFFFFFFFFFFFFFFFFFFFFFFFF AND EQ SWAP1 POP DUP2 DUP1 PUSH2 0x20A1 JUMPI POP DUP1 JUMPDEST PUSH2 0x20D7 JUMPI PUSH1 0x40 MLOAD PUSH32 0xB0D73DC900000000000000000000000000000000000000000000000000000000 DUP2 MSTORE PUSH1 0x4 ADD PUSH1 0x40 MLOAD DUP1 SWAP2 SUB SWAP1 REVERT JUMPDEST PUSH0 DUP7 PUSH20 0xFFFFFFFFFFFFFFFFFFFFFFFFFFFFFFFFFFFFFFFF AND SWAP1 POP PUSH0 PUSH2 0x2114 PUSH1 0x60 DUP9 PUSH16 0xFFFFFFFFFFFFFFFFFFFFFFFFFFFFFFFF AND SWAP1 SHL PUSH1 0x1 DUP5 PUSH2 0x1681 JUMP JUMPDEST SWAP1 POP PUSH0 PUSH2 0x214D DUP4 DUP10 PUSH16 0xFFFFFFFFFFFFFFFFFFFFFFFFFFFFFFFF AND PUSH2 0x2138 SWAP2 SWAP1 PUSH2 0x3425 JUMP JUMPDEST PUSH1 0x1 PUSH13 0x1000000000000000000000000 PUSH2 0x1681 JUMP JUMPDEST SWAP1 POP PUSH0 PUSH2 0x217C DUP14 PUSH1 0x1 PUSH32 0x0 PUSH2 0x1B0B JUMP JUMPDEST SWAP1 POP DUP6 ISZERO PUSH2 0x2270 JUMPI PUSH2 0x2269 DUP4 DUP10 PUSH20 0xFFFFFFFFFFFFFFFFFFFFFFFFFFFFFFFFFFFFFFFF AND PUSH4 0x313CE567 PUSH1 0x40 MLOAD DUP2 PUSH4 0xFFFFFFFF AND PUSH1 0xE0 SHL DUP2 MSTORE PUSH1 0x4 ADD PUSH1 0x20 PUSH1 0x40 MLOAD DUP1 DUP4 SUB DUP2 DUP7 GAS STATICCALL ISZERO DUP1 ISZERO PUSH2 0x21D1 JUMPI RETURNDATASIZE PUSH0 PUSH0 RETURNDATACOPY RETURNDATASIZE PUSH0 REVERT JUMPDEST POP POP POP POP PUSH1 0x40 MLOAD RETURNDATASIZE PUSH1 0x1F NOT PUSH1 0x1F DUP3 ADD AND DUP3 ADD DUP1 PUSH1 0x40 MSTORE POP DUP2 ADD SWAP1 PUSH2 0x21F5 SWAP2 SWAP1 PUSH2 0x2F11 JUMP JUMPDEST DUP5 DUP11 PUSH20 0xFFFFFFFFFFFFFFFFFFFFFFFFFFFFFFFFFFFFFFFF AND PUSH4 0x313CE567 PUSH1 0x40 MLOAD DUP2 PUSH4 0xFFFFFFFF AND PUSH1 0xE0 SHL DUP2 MSTORE PUSH1 0x4 ADD PUSH1 0x20 PUSH1 0x40 MLOAD DUP1 DUP4 SUB DUP2 DUP7 GAS STATICCALL ISZERO DUP1 ISZERO PUSH2 0x223F JUMPI RETURNDATASIZE PUSH0 PUSH0 RETURNDATACOPY RETURNDATASIZE PUSH0 REVERT JUMPDEST POP POP POP POP PUSH1 0x40 MLOAD RETURNDATASIZE PUSH1 0x1F NOT PUSH1 0x1F DUP3 ADD AND DUP3 ADD DUP1 PUSH1 0x40 MSTORE POP DUP2 ADD SWAP1 PUSH2 0x2263 SWAP2 SWAP1 PUSH2 0x2F11 JUMP JUMPDEST DUP6 PUSH2 0x285D JUMP JUMPDEST SWAP12 POP PUSH2 0x2358 JUMP JUMPDEST PUSH2 0x2355 DUP3 DUP9 PUSH20 0xFFFFFFFFFFFFFFFFFFFFFFFFFFFFFFFFFFFFFFFF AND PUSH4 0x313CE567 PUSH1 0x40 MLOAD DUP2 PUSH4 0xFFFFFFFF AND PUSH1 0xE0 SHL DUP2 MSTORE PUSH1 0x4 ADD PUSH1 0x20 PUSH1 0x40 MLOAD DUP1 DUP4 SUB DUP2 DUP7 GAS STATICCALL ISZERO DUP1 ISZERO PUSH2 0x22BD JUMPI RETURNDATASIZE PUSH0 PUSH0 RETURNDATACOPY RETURNDATASIZE PUSH0 REVERT JUMPDEST POP POP POP POP PUSH1 0x40 MLOAD RETURNDATASIZE PUSH1 0x1F NOT PUSH1 0x1F DUP3 ADD AND DUP3 ADD DUP1 PUSH1 0x40 MSTORE POP DUP2 ADD SWAP1 PUSH2 0x22E1 SWAP2 SWAP1 PUSH2 0x2F11 JUMP JUMPDEST DUP6 DUP12 PUSH20 0xFFFFFFFFFFFFFFFFFFFFFFFFFFFFFFFFFFFFFFFF AND PUSH4 0x313CE567 PUSH1 0x40 MLOAD DUP2 PUSH4 0xFFFFFFFF AND PUSH1 0xE0 SHL DUP2 MSTORE PUSH1 0x4 ADD PUSH1 0x20 PUSH1 0x40 MLOAD DUP1 DUP4 SUB DUP2 DUP7 GAS STATICCALL ISZERO DUP1 ISZERO PUSH2 0x232B JUMPI RETURNDATASIZE PUSH0 PUSH0 RETURNDATACOPY RETURNDATASIZE PUSH0 REVERT JUMPDEST POP POP POP POP PUSH1 0x40 MLOAD RETURNDATASIZE PUSH1 0x1F NOT PUSH1 0x1F DUP3 ADD AND DUP3 ADD DUP1 PUSH1 0x40 MSTORE POP DUP2 ADD SWAP1 PUSH2 0x234F SWAP2 SWAP1 PUSH2 0x2F11 JUMP JUMPDEST DUP6 PUSH2 0x285D JUMP JUMPDEST SWAP12 POP JUMPDEST POP POP POP POP POP POP POP POP POP POP POP SWAP2 SWAP1 POP JUMP JUMPDEST PUSH0 PUSH0 DUP3 SWAP1 POP PUSH0 PUSH0 DUP3 PUSH20 0xFFFFFFFFFFFFFFFFFFFFFFFFFFFFFFFFFFFFFFFF AND PUSH4 0x902F1AC PUSH1 0x40 MLOAD DUP2 PUSH4 0xFFFFFFFF AND PUSH1 0xE0 SHL DUP2 MSTORE PUSH1 0x4 ADD PUSH1 0x60 PUSH1 0x40 MLOAD DUP1 DUP4 SUB DUP2 DUP7 GAS STATICCALL ISZERO DUP1 ISZERO PUSH2 0x23B8 JUMPI RETURNDATASIZE PUSH0 PUSH0 RETURNDATACOPY RETURNDATASIZE PUSH0 REVERT JUMPDEST POP POP POP POP PUSH1 0x40 MLOAD RETURNDATASIZE PUSH1 0x1F NOT PUSH1 0x1F DUP3 ADD AND DUP3 ADD DUP1 PUSH1 0x40 MSTORE POP DUP2 ADD SWAP1 PUSH2 0x23DC SWAP2 SWAP1 PUSH2 0x309C JUMP JUMPDEST POP SWAP2 POP SWAP2 POP PUSH0 DUP3 PUSH14 0xFFFFFFFFFFFFFFFFFFFFFFFFFFFF AND EQ DUP1 PUSH2 0x240E JUMPI POP PUSH0 DUP2 PUSH14 0xFFFFFFFFFFFFFFFFFFFFFFFFFFFF AND EQ JUMPDEST ISZERO PUSH2 0x2445 JUMPI PUSH1 0x40 MLOAD PUSH32 0x8B4A713E00000000000000000000000000000000000000000000000000000000 DUP2 MSTORE PUSH1 0x4 ADD PUSH1 0x40 MLOAD DUP1 SWAP2 SUB SWAP1 REVERT JUMPDEST PUSH0 DUP4 PUSH20 0xFFFFFFFFFFFFFFFFFFFFFFFFFFFFFFFFFFFFFFFF AND PUSH4 0xDFE1681 PUSH1 0x40 MLOAD DUP2 PUSH4 0xFFFFFFFF AND PUSH1 0xE0 SHL DUP2 MSTORE PUSH1 0x4 ADD PUSH1 0x20 PUSH1 0x40 MLOAD DUP1 DUP4 SUB DUP2 DUP7 GAS STATICCALL ISZERO DUP1 ISZERO PUSH2 0x248F JUMPI RETURNDATASIZE PUSH0 PUSH0 RETURNDATACOPY RETURNDATASIZE PUSH0 REVERT JUMPDEST POP POP POP POP PUSH1 0x40 MLOAD RETURNDATASIZE PUSH1 0x1F NOT PUSH1 0x1F DUP3 ADD AND DUP3 ADD DUP1 PUSH1 0x40 MSTORE POP DUP2 ADD SWAP1 PUSH2 0x24B3 SWAP2 SWAP1 PUSH2 0x2CEE JUMP JUMPDEST SWAP1 POP PUSH0 DUP5 PUSH20 0xFFFFFFFFFFFFFFFFFFFFFFFFFFFFFFFFFFFFFFFF AND PUSH4 0xD21220A7 PUSH1 0x40 MLOAD DUP2 PUSH4 0xFFFFFFFF AND PUSH1 0xE0 SHL DUP2 MSTORE PUSH1 0x4 ADD PUSH1 0x20 PUSH1 0x40 MLOAD DUP1 DUP4 SUB DUP2 DUP7 GAS STATICCALL ISZERO DUP1 ISZERO PUSH2 0x24FF JUMPI RETURNDATASIZE PUSH0 PUSH0 RETURNDATACOPY RETURNDATASIZE PUSH0 REVERT JUMPDEST POP POP POP POP PUSH1 0x40 MLOAD RETURNDATASIZE PUSH1 0x1F NOT PUSH1 0x1F DUP3 ADD AND DUP3 ADD DUP1 PUSH1 0x40 MSTORE POP DUP2 ADD SWAP1 PUSH2 0x2523 SWAP2 SWAP1 PUSH2 0x2CEE JUMP JUMPDEST SWAP1 POP PUSH0 PUSH32 0x0 PUSH20 0xFFFFFFFFFFFFFFFFFFFFFFFFFFFFFFFFFFFFFFFF AND DUP4 PUSH20 0xFFFFFFFFFFFFFFFFFFFFFFFFFFFFFFFFFFFFFFFF AND EQ SWAP1 POP PUSH0 PUSH32 0x0 PUSH20 0xFFFFFFFFFFFFFFFFFFFFFFFFFFFFFFFFFFFFFFFF AND DUP4 PUSH20 0xFFFFFFFFFFFFFFFFFFFFFFFFFFFFFFFFFFFFFFFF AND EQ SWAP1 POP DUP2 DUP1 PUSH2 0x25D2 JUMPI POP DUP1 JUMPDEST PUSH2 0x2608 JUMPI PUSH1 0x40 MLOAD PUSH32 0xB0D73DC900000000000000000000000000000000000000000000000000000000 DUP2 MSTORE PUSH1 0x4 ADD PUSH1 0x40 MLOAD DUP1 SWAP2 SUB SWAP1 REVERT JUMPDEST PUSH0 PUSH2 0x2634 DUP11 PUSH0 PUSH32 0x0 PUSH2 0x1B0B JUMP JUMPDEST SWAP1 POP DUP3 ISZERO PUSH2 0x2748 JUMPI PUSH2 0x2741 DUP8 PUSH14 0xFFFFFFFFFFFFFFFFFFFFFFFFFFFF AND DUP7 PUSH20 0xFFFFFFFFFFFFFFFFFFFFFFFFFFFFFFFFFFFFFFFF AND PUSH4 0x313CE567 PUSH1 0x40 MLOAD DUP2 PUSH4 0xFFFFFFFF AND PUSH1 0xE0 SHL DUP2 MSTORE PUSH1 0x4 ADD PUSH1 0x20 PUSH1 0x40 MLOAD DUP1 DUP4 SUB DUP2 DUP7 GAS STATICCALL ISZERO DUP1 ISZERO PUSH2 0x2699 JUMPI RETURNDATASIZE PUSH0 PUSH0 RETURNDATACOPY RETURNDATASIZE PUSH0 REVERT JUMPDEST POP POP POP POP PUSH1 0x40 MLOAD RETURNDATASIZE PUSH1 0x1F NOT PUSH1 0x1F DUP3 ADD AND DUP3 ADD DUP1 PUSH1 0x40 MSTORE POP DUP2 ADD SWAP1 PUSH2 0x26BD SWAP2 SWAP1 PUSH2 0x2F11 JUMP JUMPDEST DUP9 PUSH14 0xFFFFFFFFFFFFFFFFFFFFFFFFFFFF AND DUP8 PUSH20 0xFFFFFFFFFFFFFFFFFFFFFFFFFFFFFFFFFFFFFFFF AND PUSH4 0x313CE567 PUSH1 0x40 MLOAD DUP2 PUSH4 0xFFFFFFFF AND PUSH1 0xE0 SHL DUP2 MSTORE PUSH1 0x4 ADD PUSH1 0x20 PUSH1 0x40 MLOAD DUP1 DUP4 SUB DUP2 DUP7 GAS STATICCALL ISZERO DUP1 ISZERO PUSH2 0x2717 JUMPI RETURNDATASIZE PUSH0 PUSH0 RETURNDATACOPY RETURNDATASIZE PUSH0 REVERT JUMPDEST POP POP POP POP PUSH1 0x40 MLOAD RETURNDATASIZE PUSH1 0x1F NOT PUSH1 0x1F DUP3 ADD AND DUP3 ADD DUP1 PUSH1 0x40 MSTORE POP DUP2 ADD SWAP1 PUSH2 0x273B SWAP2 SWAP1 PUSH2 0x2F11 JUMP JUMPDEST DUP6 PUSH2 0x285D JUMP JUMPDEST SWAP9 POP PUSH2 0x2850 JUMP JUMPDEST PUSH2 0x284D DUP7 PUSH14 0xFFFFFFFFFFFFFFFFFFFFFFFFFFFF AND DUP6 PUSH20 0xFFFFFFFFFFFFFFFFFFFFFFFFFFFFFFFFFFFFFFFF AND PUSH4 0x313CE567 PUSH1 0x40 MLOAD DUP2 PUSH4 0xFFFFFFFF AND PUSH1 0xE0 SHL DUP2 MSTORE PUSH1 0x4 ADD PUSH1 0x20 PUSH1 0x40 MLOAD DUP1 DUP4 SUB DUP2 DUP7 GAS STATICCALL ISZERO DUP1 ISZERO PUSH2 0x27A5 JUMPI RETURNDATASIZE PUSH0 PUSH0 RETURNDATACOPY RETURNDATASIZE PUSH0 REVERT JUMPDEST POP POP POP POP PUSH1 0x40 MLOAD RETURNDATASIZE PUSH1 0x1F NOT PUSH1 0x1F DUP3 ADD AND DUP3 ADD DUP1 PUSH1 0x40 MSTORE POP DUP2 ADD SWAP1 PUSH2 0x27C9 SWAP2 SWAP1 PUSH2 0x2F11 JUMP JUMPDEST DUP10 PUSH14 0xFFFFFFFFFFFFFFFFFFFFFFFFFFFF AND DUP9 PUSH20 0xFFFFFFFFFFFFFFFFFFFFFFFFFFFFFFFFFFFFFFFF AND PUSH4 0x313CE567 PUSH1 0x40 MLOAD DUP2 PUSH4 0xFFFFFFFF AND PUSH1 0xE0 SHL DUP2 MSTORE PUSH1 0x4 ADD PUSH1 0x20 PUSH1 0x40 MLOAD DUP1 DUP4 SUB DUP2 DUP7 GAS STATICCALL ISZERO DUP1 ISZERO PUSH2 0x2823 JUMPI RETURNDATASIZE PUSH0 PUSH0 RETURNDATACOPY RETURNDATASIZE PUSH0 REVERT JUMPDEST POP POP POP POP PUSH1 0x40 MLOAD RETURNDATASIZE PUSH1 0x1F NOT PUSH1 0x1F DUP3 ADD AND DUP3 ADD DUP1 PUSH1 0x40 MSTORE POP DUP2 ADD SWAP1 PUSH2 0x2847 SWAP2 SWAP1 PUSH2 0x2F11 JUMP JUMPDEST DUP6 PUSH2 0x285D JUMP JUMPDEST SWAP9 POP JUMPDEST POP POP POP POP POP POP POP POP SWAP2 SWAP1 POP JUMP JUMPDEST PUSH0 PUSH0 PUSH2 0x2869 DUP8 DUP8 PUSH2 0x1A40 JUMP JUMPDEST SWAP1 POP PUSH0 PUSH2 0x2876 DUP7 DUP7 PUSH2 0x1A40 JUMP JUMPDEST SWAP1 POP PUSH0 PUSH2 0x288C DUP3 DUP7 PUSH8 0xDE0B6B3A7640000 PUSH2 0x1681 JUMP JUMPDEST SWAP1 POP DUP1 DUP4 PUSH2 0x289A SWAP2 SWAP1 PUSH2 0x3466 JUMP JUMPDEST SWAP4 POP POP POP POP SWAP6 SWAP5 POP POP POP POP POP JUMP JUMPDEST PUSH0 PUSH1 0x40 MLOAD SWAP1 POP SWAP1 JUMP JUMPDEST PUSH0 PUSH0 REVERT JUMPDEST PUSH0 PUSH0 REVERT JUMPDEST PUSH0 PUSH20 0xFFFFFFFFFFFFFFFFFFFFFFFFFFFFFFFFFFFFFFFF DUP3 AND SWAP1 POP SWAP2 SWAP1 POP JUMP JUMPDEST PUSH0 PUSH2 0x28E2 DUP3 PUSH2 0x28B9 JUMP JUMPDEST SWAP1 POP SWAP2 SWAP1 POP JUMP JUMPDEST PUSH2 0x28F2 DUP2 PUSH2 0x28D8 JUMP JUMPDEST DUP2 EQ PUSH2 0x28FC JUMPI PUSH0 PUSH0 REVERT JUMPDEST POP JUMP JUMPDEST PUSH0 DUP2 CALLDATALOAD SWAP1 POP PUSH2 0x290D DUP2 PUSH2 0x28E9 JUMP JUMPDEST SWAP3 SWAP2 POP POP JUMP JUMPDEST PUSH0 PUSH1 0x20 DUP3 DUP5 SUB SLT ISZERO PUSH2 0x2928 JUMPI PUSH2 0x2927 PUSH2 0x28B1 JUMP JUMPDEST JUMPDEST PUSH0 PUSH2 0x2935 DUP5 DUP3 DUP6 ADD PUSH2 0x28FF JUMP JUMPDEST SWAP2 POP POP SWAP3 SWAP2 POP POP JUMP JUMPDEST PUSH0 DUP2 SWAP1 POP SWAP2 SWAP1 POP JUMP JUMPDEST PUSH2 0x2950 DUP2 PUSH2 0x293E JUMP JUMPDEST DUP3 MSTORE POP POP JUMP JUMPDEST PUSH0 PUSH1 0x20 DUP3 ADD SWAP1 POP PUSH2 0x2969 PUSH0 DUP4 ADD DUP5 PUSH2 0x2947 JUMP JUMPDEST SWAP3 SWAP2 POP POP JUMP JUMPDEST PUSH2 0x2978 DUP2 PUSH2 0x28D8 JUMP JUMPDEST DUP3 MSTORE POP POP JUMP JUMPDEST PUSH0 PUSH1 0x20 DUP3 ADD SWAP1 POP PUSH2 0x2991 PUSH0 DUP4 ADD DUP5 PUSH2 0x296F JUMP JUMPDEST SWAP3 SWAP2 POP POP JUMP JUMPDEST PUSH0 PUSH0 REVERT JUMPDEST PUSH0 PUSH0 REVERT JUMPDEST PUSH0 PUSH1 0x1F NOT PUSH1 0x1F DUP4 ADD AND SWAP1 POP SWAP2 SWAP1 POP JUMP JUMPDEST PUSH32 0x4E487B7100000000000000000000000000000000000000000000000000000000 PUSH0 MSTORE PUSH1 0x41 PUSH1 0x4 MSTORE PUSH1 0x24 PUSH0 REVERT JUMPDEST PUSH2 0x29E5 DUP3 PUSH2 0x299F JUMP JUMPDEST DUP2 ADD DUP2 DUP2 LT PUSH8 0xFFFFFFFFFFFFFFFF DUP3 GT OR ISZERO PUSH2 0x2A04 JUMPI PUSH2 0x2A03 PUSH2 0x29AF JUMP JUMPDEST JUMPDEST DUP1 PUSH1 0x40 MSTORE POP POP POP JUMP JUMPDEST PUSH0 PUSH2 0x2A16 PUSH2 0x28A8 JUMP JUMPDEST SWAP1 POP PUSH2 0x2A22 DUP3 DUP3 PUSH2 0x29DC JUMP JUMPDEST SWAP2 SWAP1 POP JUMP JUMPDEST PUSH0 PUSH8 0xFFFFFFFFFFFFFFFF DUP3 GT ISZERO PUSH2 0x2A41 JUMPI PUSH2 0x2A40 PUSH2 0x29AF JUMP JUMPDEST JUMPDEST PUSH2 0x2A4A DUP3 PUSH2 0x299F JUMP JUMPDEST SWAP1 POP PUSH1 0x20 DUP2 ADD SWAP1 POP SWAP2 SWAP1 POP JUMP JUMPDEST DUP3 DUP2 DUP4 CALLDATACOPY PUSH0 DUP4 DUP4 ADD MSTORE POP POP POP JUMP JUMPDEST PUSH0 PUSH2 0x2A77 PUSH2 0x2A72 DUP5 PUSH2 0x2A27 JUMP JUMPDEST PUSH2 0x2A0D JUMP JUMPDEST SWAP1 POP DUP3 DUP2 MSTORE PUSH1 0x20 DUP2 ADD DUP5 DUP5 DUP5 ADD GT ISZERO PUSH2 0x2A93 JUMPI PUSH2 0x2A92 PUSH2 0x299B JUMP JUMPDEST JUMPDEST PUSH2 0x2A9E DUP5 DUP3 DUP6 PUSH2 0x2A57 JUMP JUMPDEST POP SWAP4 SWAP3 POP POP POP JUMP JUMPDEST PUSH0 DUP3 PUSH1 0x1F DUP4 ADD SLT PUSH2 0x2ABA JUMPI PUSH2 0x2AB9 PUSH2 0x2997 JUMP JUMPDEST JUMPDEST DUP2 CALLDATALOAD PUSH2 0x2ACA DUP5 DUP3 PUSH1 0x20 DUP7 ADD PUSH2 0x2A65 JUMP JUMPDEST SWAP2 POP POP SWAP3 SWAP2 POP POP JUMP JUMPDEST PUSH0 PUSH1 0x20 DUP3 DUP5 SUB SLT ISZERO PUSH2 0x2AE8 JUMPI PUSH2 0x2AE7 PUSH2 0x28B1 JUMP JUMPDEST JUMPDEST PUSH0 DUP3 ADD CALLDATALOAD PUSH8 0xFFFFFFFFFFFFFFFF DUP2 GT ISZERO PUSH2 0x2B05 JUMPI PUSH2 0x2B04 PUSH2 0x28B5 JUMP JUMPDEST JUMPDEST PUSH2 0x2B11 DUP5 DUP3 DUP6 ADD PUSH2 0x2AA6 JUMP JUMPDEST SWAP2 POP POP SWAP3 SWAP2 POP POP JUMP JUMPDEST PUSH0 PUSH0 PUSH1 0x40 DUP4 DUP6 SUB SLT ISZERO PUSH2 0x2B30 JUMPI PUSH2 0x2B2F PUSH2 0x28B1 JUMP JUMPDEST JUMPDEST PUSH0 PUSH2 0x2B3D DUP6 DUP3 DUP7 ADD PUSH2 0x28FF JUMP JUMPDEST SWAP3 POP POP PUSH1 0x20 PUSH2 0x2B4E DUP6 DUP3 DUP7 ADD PUSH2 0x28FF JUMP JUMPDEST SWAP2 POP POP SWAP3 POP SWAP3 SWAP1 POP JUMP JUMPDEST PUSH0 DUP2 ISZERO ISZERO SWAP1 POP SWAP2 SWAP1 POP JUMP JUMPDEST PUSH2 0x2B6C DUP2 PUSH2 0x2B58 JUMP JUMPDEST DUP3 MSTORE POP POP JUMP JUMPDEST PUSH0 PUSH1 0x40 DUP3 ADD SWAP1 POP PUSH2 0x2B85 PUSH0 DUP4 ADD DUP6 PUSH2 0x2B63 JUMP JUMPDEST PUSH2 0x2B92 PUSH1 0x20 DUP4 ADD DUP5 PUSH2 0x296F JUMP JUMPDEST SWAP4 SWAP3 POP POP POP JUMP JUMPDEST PUSH0 PUSH1 0x20 DUP3 ADD SWAP1 POP PUSH2 0x2BAC PUSH0 DUP4 ADD DUP5 PUSH2 0x2B63 JUMP JUMPDEST SWAP3 SWAP2 POP POP JUMP JUMPDEST PUSH0 DUP2 SWAP1 POP SWAP2 SWAP1 POP JUMP JUMPDEST PUSH0 PUSH2 0x2BD5 PUSH2 0x2BD0 PUSH2 0x2BCB DUP5 PUSH2 0x28B9 JUMP JUMPDEST PUSH2 0x2BB2 JUMP JUMPDEST PUSH2 0x28B9 JUMP JUMPDEST SWAP1 POP SWAP2 SWAP1 POP JUMP JUMPDEST PUSH0 PUSH2 0x2BE6 DUP3 PUSH2 0x2BBB JUMP JUMPDEST SWAP1 POP SWAP2 SWAP1 POP JUMP JUMPDEST PUSH0 PUSH2 0x2BF7 DUP3 PUSH2 0x2BDC JUMP JUMPDEST SWAP1 POP SWAP2 SWAP1 POP JUMP JUMPDEST PUSH2 0x2C07 DUP2 PUSH2 0x2BED JUMP JUMPDEST DUP3 MSTORE POP POP JUMP JUMPDEST PUSH0 PUSH1 0x20 DUP3 ADD SWAP1 POP PUSH2 0x2C20 PUSH0 DUP4 ADD DUP5 PUSH2 0x2BFE JUMP JUMPDEST SWAP3 SWAP2 POP POP JUMP JUMPDEST PUSH0 PUSH1 0xFF DUP3 AND SWAP1 POP SWAP2 SWAP1 POP JUMP JUMPDEST PUSH2 0x2C3B DUP2 PUSH2 0x2C26 JUMP JUMPDEST DUP3 MSTORE POP POP JUMP JUMPDEST PUSH0 PUSH1 0x20 DUP3 ADD SWAP1 POP PUSH2 0x2C54 PUSH0 DUP4 ADD DUP5 PUSH2 0x2C32 JUMP JUMPDEST SWAP3 SWAP2 POP POP JUMP JUMPDEST PUSH0 DUP2 MLOAD SWAP1 POP SWAP2 SWAP1 POP JUMP JUMPDEST PUSH0 DUP3 DUP3 MSTORE PUSH1 0x20 DUP3 ADD SWAP1 POP SWAP3 SWAP2 POP POP JUMP JUMPDEST DUP3 DUP2 DUP4 MCOPY PUSH0 DUP4 DUP4 ADD MSTORE POP POP POP JUMP JUMPDEST PUSH0 PUSH2 0x2C8C DUP3 PUSH2 0x2C5A JUMP JUMPDEST PUSH2 0x2C96 DUP2 DUP6 PUSH2 0x2C64 JUMP JUMPDEST SWAP4 POP PUSH2 0x2CA6 DUP2 DUP6 PUSH1 0x20 DUP7 ADD PUSH2 0x2C74 JUMP JUMPDEST PUSH2 0x2CAF DUP2 PUSH2 0x299F JUMP JUMPDEST DUP5 ADD SWAP2 POP POP SWAP3 SWAP2 POP POP JUMP JUMPDEST PUSH0 PUSH1 0x20 DUP3 ADD SWAP1 POP DUP2 DUP2 SUB PUSH0 DUP4 ADD MSTORE PUSH2 0x2CD2 DUP2 DUP5 PUSH2 0x2C82 JUMP JUMPDEST SWAP1 POP SWAP3 SWAP2 POP POP JUMP JUMPDEST PUSH0 DUP2 MLOAD SWAP1 POP PUSH2 0x2CE8 DUP2 PUSH2 0x28E9 JUMP JUMPDEST SWAP3 SWAP2 POP POP JUMP JUMPDEST PUSH0 PUSH1 0x20 DUP3 DUP5 SUB SLT ISZERO PUSH2 0x2D03 JUMPI PUSH2 0x2D02 PUSH2 0x28B1 JUMP JUMPDEST JUMPDEST PUSH0 PUSH2 0x2D10 DUP5 DUP3 DUP6 ADD PUSH2 0x2CDA JUMP JUMPDEST SWAP2 POP POP SWAP3 SWAP2 POP POP JUMP JUMPDEST PUSH2 0x2D22 DUP2 PUSH2 0x28B9 JUMP JUMPDEST DUP2 EQ PUSH2 0x2D2C JUMPI PUSH0 PUSH0 REVERT JUMPDEST POP JUMP JUMPDEST PUSH0 DUP2 MLOAD SWAP1 POP PUSH2 0x2D3D DUP2 PUSH2 0x2D19 JUMP JUMPDEST SWAP3 SWAP2 POP POP JUMP JUMPDEST PUSH0 DUP2 PUSH1 0x2 SIGNEXTEND SWAP1 POP SWAP2 SWAP1 POP JUMP JUMPDEST PUSH2 0x2D58 DUP2 PUSH2 0x2D43 JUMP JUMPDEST DUP2 EQ PUSH2 0x2D62 JUMPI PUSH0 PUSH0 REVERT JUMPDEST POP JUMP JUMPDEST PUSH0 DUP2 MLOAD SWAP1 POP PUSH2 0x2D73 DUP2 PUSH2 0x2D4F JUMP JUMPDEST SWAP3 SWAP2 POP POP JUMP JUMPDEST PUSH0 PUSH2 0xFFFF DUP3 AND SWAP1 POP SWAP2 SWAP1 POP JUMP JUMPDEST PUSH2 0x2D8F DUP2 PUSH2 0x2D79 JUMP JUMPDEST DUP2 EQ PUSH2 0x2D99 JUMPI PUSH0 PUSH0 REVERT JUMPDEST POP JUMP JUMPDEST PUSH0 DUP2 MLOAD SWAP1 POP PUSH2 0x2DAA DUP2 PUSH2 0x2D86 JUMP JUMPDEST SWAP3 SWAP2 POP POP JUMP JUMPDEST PUSH2 0x2DB9 DUP2 PUSH2 0x2C26 JUMP JUMPDEST DUP2 EQ PUSH2 0x2DC3 JUMPI PUSH0 PUSH0 REVERT JUMPDEST POP JUMP JUMPDEST PUSH0 DUP2 MLOAD SWAP1 POP PUSH2 0x2DD4 DUP2 PUSH2 0x2DB0 JUMP JUMPDEST SWAP3 SWAP2 POP POP JUMP JUMPDEST PUSH2 0x2DE3 DUP2 PUSH2 0x2B58 JUMP JUMPDEST DUP2 EQ PUSH2 0x2DED JUMPI PUSH0 PUSH0 REVERT JUMPDEST POP JUMP JUMPDEST PUSH0 DUP2 MLOAD SWAP1 POP PUSH2 0x2DFE DUP2 PUSH2 0x2DDA JUMP JUMPDEST SWAP3 SWAP2 POP POP JUMP JUMPDEST PUSH0 PUSH0 PUSH0 PUSH0 PUSH0 PUSH0 PUSH0 PUSH1 0xE0 DUP9 DUP11 SUB SLT ISZERO PUSH2 0x2E1F JUMPI PUSH2 0x2E1E PUSH2 0x28B1 JUMP JUMPDEST JUMPDEST PUSH0 PUSH2 0x2E2C DUP11 DUP3 DUP12 ADD PUSH2 0x2D2F JUMP JUMPDEST SWAP8 POP POP PUSH1 0x20 PUSH2 0x2E3D DUP11 DUP3 DUP12 ADD PUSH2 0x2D65 JUMP JUMPDEST SWAP7 POP POP PUSH1 0x40 PUSH2 0x2E4E DUP11 DUP3 DUP12 ADD PUSH2 0x2D9C JUMP JUMPDEST SWAP6 POP POP PUSH1 0x60 PUSH2 0x2E5F DUP11 DUP3 DUP12 ADD PUSH2 0x2D9C JUMP JUMPDEST SWAP5 POP POP PUSH1 0x80 PUSH2 0x2E70 DUP11 DUP3 DUP12 ADD PUSH2 0x2D9C JUMP JUMPDEST SWAP4 POP POP PUSH1 0xA0 PUSH2 0x2E81 DUP11 DUP3 DUP12 ADD PUSH2 0x2DC6 JUMP JUMPDEST SWAP3 POP POP PUSH1 0xC0 PUSH2 0x2E92 DUP11 DUP3 DUP12 ADD PUSH2 0x2DF0 JUMP JUMPDEST SWAP2 POP POP SWAP3 SWAP6 SWAP9 SWAP2 SWAP5 SWAP8 POP SWAP3 SWAP6 POP JUMP JUMPDEST PUSH0 PUSH16 0xFFFFFFFFFFFFFFFFFFFFFFFFFFFFFFFF DUP3 AND SWAP1 POP SWAP2 SWAP1 POP JUMP JUMPDEST PUSH2 0x2EC5 DUP2 PUSH2 0x2EA1 JUMP JUMPDEST DUP2 EQ PUSH2 0x2ECF JUMPI PUSH0 PUSH0 REVERT JUMPDEST POP JUMP JUMPDEST PUSH0 DUP2 MLOAD SWAP1 POP PUSH2 0x2EE0 DUP2 PUSH2 0x2EBC JUMP JUMPDEST SWAP3 SWAP2 POP POP JUMP JUMPDEST PUSH0 PUSH1 0x20 DUP3 DUP5 SUB SLT ISZERO PUSH2 0x2EFB JUMPI PUSH2 0x2EFA PUSH2 0x28B1 JUMP JUMPDEST JUMPDEST PUSH0 PUSH2 0x2F08 DUP5 DUP3 DUP6 ADD PUSH2 0x2ED2 JUMP JUMPDEST SWAP2 POP POP SWAP3 SWAP2 POP POP JUMP JUMPDEST PUSH0 PUSH1 0x20 DUP3 DUP5 SUB SLT ISZERO PUSH2 0x2F26 JUMPI PUSH2 0x2F25 PUSH2 0x28B1 JUMP JUMPDEST JUMPDEST PUSH0 PUSH2 0x2F33 DUP5 DUP3 DUP6 ADD PUSH2 0x2DC6 JUMP JUMPDEST SWAP2 POP POP SWAP3 SWAP2 POP POP JUMP JUMPDEST PUSH2 0x2F45 DUP2 PUSH2 0x293E JUMP JUMPDEST DUP2 EQ PUSH2 0x2F4F JUMPI PUSH0 PUSH0 REVERT JUMPDEST POP JUMP JUMPDEST PUSH0 DUP2 MLOAD SWAP1 POP PUSH2 0x2F60 DUP2 PUSH2 0x2F3C JUMP JUMPDEST SWAP3 SWAP2 POP POP JUMP JUMPDEST PUSH0 PUSH1 0x20 DUP3 DUP5 SUB SLT ISZERO PUSH2 0x2F7B JUMPI PUSH2 0x2F7A PUSH2 0x28B1 JUMP JUMPDEST JUMPDEST PUSH0 PUSH2 0x2F88 DUP5 DUP3 DUP6 ADD PUSH2 0x2F52 JUMP JUMPDEST SWAP2 POP POP SWAP3 SWAP2 POP POP JUMP JUMPDEST PUSH32 0x43616C6C6572206973206E6F7420746865206F776E6572000000000000000000 PUSH0 DUP3 ADD MSTORE POP JUMP JUMPDEST PUSH0 PUSH2 0x2FC5 PUSH1 0x17 DUP4 PUSH2 0x2C64 JUMP JUMPDEST SWAP2 POP PUSH2 0x2FD0 DUP3 PUSH2 0x2F91 JUMP JUMPDEST PUSH1 0x20 DUP3 ADD SWAP1 POP SWAP2 SWAP1 POP JUMP JUMPDEST PUSH0 PUSH1 0x20 DUP3 ADD SWAP1 POP DUP2 DUP2 SUB PUSH0 DUP4 ADD MSTORE PUSH2 0x2FF2 DUP2 PUSH2 0x2FB9 JUMP JUMPDEST SWAP1 POP SWAP2 SWAP1 POP JUMP JUMPDEST PUSH0 PUSH1 0x40 DUP3 ADD SWAP1 POP PUSH2 0x300C PUSH0 DUP4 ADD DUP6 PUSH2 0x296F JUMP JUMPDEST PUSH2 0x3019 PUSH1 0x20 DUP4 ADD DUP5 PUSH2 0x2B63 JUMP JUMPDEST SWAP4 SWAP3 POP POP POP JUMP JUMPDEST PUSH0 PUSH14 0xFFFFFFFFFFFFFFFFFFFFFFFFFFFF DUP3 AND SWAP1 POP SWAP2 SWAP1 POP JUMP JUMPDEST PUSH2 0x3042 DUP2 PUSH2 0x3020 JUMP JUMPDEST DUP2 EQ PUSH2 0x304C JUMPI PUSH0 PUSH0 REVERT JUMPDEST POP JUMP JUMPDEST PUSH0 DUP2 MLOAD SWAP1 POP PUSH2 0x305D DUP2 PUSH2 0x3039 JUMP JUMPDEST SWAP3 SWAP2 POP POP JUMP JUMPDEST PUSH0 PUSH4 0xFFFFFFFF DUP3 AND SWAP1 POP SWAP2 SWAP1 POP JUMP JUMPDEST PUSH2 0x307B DUP2 PUSH2 0x3063 JUMP JUMPDEST DUP2 EQ PUSH2 0x3085 JUMPI PUSH0 PUSH0 REVERT JUMPDEST POP JUMP JUMPDEST PUSH0 DUP2 MLOAD SWAP1 POP PUSH2 0x3096 DUP2 PUSH2 0x3072 JUMP JUMPDEST SWAP3 SWAP2 POP POP JUMP JUMPDEST PUSH0 PUSH0 PUSH0 PUSH1 0x60 DUP5 DUP7 SUB SLT ISZERO PUSH2 0x30B3 JUMPI PUSH2 0x30B2 PUSH2 0x28B1 JUMP JUMPDEST JUMPDEST PUSH0 PUSH2 0x30C0 DUP7 DUP3 DUP8 ADD PUSH2 0x304F JUMP JUMPDEST SWAP4 POP POP PUSH1 0x20 PUSH2 0x30D1 DUP7 DUP3 DUP8 ADD PUSH2 0x304F JUMP JUMPDEST SWAP3 POP POP PUSH1 0x40 PUSH2 0x30E2 DUP7 DUP3 DUP8 ADD PUSH2 0x3088 JUMP JUMPDEST SWAP2 POP POP SWAP3 POP SWAP3 POP SWAP3 JUMP JUMPDEST PUSH32 0x4E487B7100000000000000000000000000000000000000000000000000000000 PUSH0 MSTORE PUSH1 0x12 PUSH1 0x4 MSTORE PUSH1 0x24 PUSH0 REVERT JUMPDEST PUSH32 0x6D756C446976206F766572666C6F770000000000000000000000000000000000 PUSH0 DUP3 ADD MSTORE POP JUMP JUMPDEST PUSH0 PUSH2 0x314D PUSH1 0xF DUP4 PUSH2 0x2C64 JUMP JUMPDEST SWAP2 POP PUSH2 0x3158 DUP3 PUSH2 0x3119 JUMP JUMPDEST PUSH1 0x20 DUP3 ADD SWAP1 POP SWAP2 SWAP1 POP JUMP JUMPDEST PUSH0 PUSH1 0x20 DUP3 ADD SWAP1 POP DUP2 DUP2 SUB PUSH0 DUP4 ADD MSTORE PUSH2 0x317A DUP2 PUSH2 0x3141 JUMP JUMPDEST SWAP1 POP SWAP2 SWAP1 POP JUMP JUMPDEST PUSH0 PUSH0 REVERT JUMPDEST PUSH0 PUSH3 0xFFFFFF DUP3 AND SWAP1 POP SWAP2 SWAP1 POP JUMP JUMPDEST PUSH2 0x319C DUP2 PUSH2 0x3185 JUMP JUMPDEST DUP2 EQ PUSH2 0x31A6 JUMPI PUSH0 PUSH0 REVERT JUMPDEST POP JUMP JUMPDEST PUSH0 DUP2 MLOAD SWAP1 POP PUSH2 0x31B7 DUP2 PUSH2 0x3193 JUMP JUMPDEST SWAP3 SWAP2 POP POP JUMP JUMPDEST PUSH0 PUSH8 0xFFFFFFFFFFFFFFFF DUP3 AND SWAP1 POP SWAP2 SWAP1 POP JUMP JUMPDEST PUSH2 0x31D9 DUP2 PUSH2 0x31BD JUMP JUMPDEST DUP2 EQ PUSH2 0x31E3 JUMPI PUSH0 PUSH0 REVERT JUMPDEST POP JUMP JUMPDEST PUSH0 DUP2 MLOAD SWAP1 POP PUSH2 0x31F4 DUP2 PUSH2 0x31D0 JUMP JUMPDEST SWAP3 SWAP2 POP POP JUMP JUMPDEST PUSH0 PUSH1 0x80 DUP3 DUP5 SUB SLT ISZERO PUSH2 0x320F JUMPI PUSH2 0x320E PUSH2 0x3181 JUMP JUMPDEST JUMPDEST PUSH2 0x3219 PUSH1 0x80 PUSH2 0x2A0D JUMP JUMPDEST SWAP1 POP PUSH0 PUSH2 0x3228 DUP5 DUP3 DUP6 ADD PUSH2 0x2CDA JUMP JUMPDEST PUSH0 DUP4 ADD MSTORE POP PUSH1 0x20 PUSH2 0x323B DUP5 DUP3 DUP6 ADD PUSH2 0x31A9 JUMP JUMPDEST PUSH1 0x20 DUP4 ADD MSTORE POP PUSH1 0x40 PUSH2 0x324F DUP5 DUP3 DUP6 ADD PUSH2 0x2DC6 JUMP JUMPDEST PUSH1 0x40 DUP4 ADD MSTORE POP PUSH1 0x60 PUSH2 0x3263 DUP5 DUP3 DUP6 ADD PUSH2 0x31E6 JUMP JUMPDEST PUSH1 0x60 DUP4 ADD MSTORE POP SWAP3 SWAP2 POP POP JUMP JUMPDEST PUSH0 PUSH1 0x80 DUP3 DUP5 SUB SLT ISZERO PUSH2 0x3284 JUMPI PUSH2 0x3283 PUSH2 0x28B1 JUMP JUMPDEST JUMPDEST PUSH0 PUSH2 0x3291 DUP5 DUP3 DUP6 ADD PUSH2 0x31FA JUMP JUMPDEST SWAP2 POP POP SWAP3 SWAP2 POP POP JUMP JUMPDEST PUSH32 0x4469726563746F72792063616E6E6F74206265207A65726F2061646472657373 PUSH0 DUP3 ADD MSTORE POP JUMP JUMPDEST PUSH0 PUSH2 0x32CE PUSH1 0x20 DUP4 PUSH2 0x2C64 JUMP JUMPDEST SWAP2 POP PUSH2 0x32D9 DUP3 PUSH2 0x329A JUMP JUMPDEST PUSH1 0x20 DUP3 ADD SWAP1 POP SWAP2 SWAP1 POP JUMP JUMPDEST PUSH0 PUSH1 0x20 DUP3 ADD SWAP1 POP DUP2 DUP2 SUB PUSH0 DUP4 ADD MSTORE PUSH2 0x32FB DUP2 PUSH2 0x32C2 JUMP JUMPDEST SWAP1 POP SWAP2 SWAP1 POP JUMP JUMPDEST PUSH32 0x4469726563746F7279206D757374206265206120636F6E747261637400000000 PUSH0 DUP3 ADD MSTORE POP JUMP JUMPDEST PUSH0 PUSH2 0x3336 PUSH1 0x1C DUP4 PUSH2 0x2C64 JUMP JUMPDEST SWAP2 POP PUSH2 0x3341 DUP3 PUSH2 0x3302 JUMP JUMPDEST PUSH1 0x20 DUP3 ADD SWAP1 POP SWAP2 SWAP1 POP JUMP JUMPDEST PUSH0 PUSH1 0x20 DUP3 ADD SWAP1 POP DUP2 DUP2 SUB PUSH0 DUP4 ADD MSTORE PUSH2 0x3363 DUP2 PUSH2 0x332A JUMP JUMPDEST SWAP1 POP SWAP2 SWAP1 POP JUMP JUMPDEST PUSH32 0x4469726563746F7279206164647265737320646F6573206E6F7420696D706C65 PUSH0 DUP3 ADD MSTORE PUSH32 0x6D656E74206F776E657228290000000000000000000000000000000000000000 PUSH1 0x20 DUP3 ADD MSTORE POP JUMP JUMPDEST PUSH0 PUSH2 0x33C4 PUSH1 0x2C DUP4 PUSH2 0x2C64 JUMP JUMPDEST SWAP2 POP PUSH2 0x33CF DUP3 PUSH2 0x336A JUMP JUMPDEST PUSH1 0x40 DUP3 ADD SWAP1 POP SWAP2 SWAP1 POP JUMP JUMPDEST PUSH0 PUSH1 0x20 DUP3 ADD SWAP1 POP DUP2 DUP2 SUB PUSH0 DUP4 ADD MSTORE PUSH2 0x33F1 DUP2 PUSH2 0x33B8 JUMP JUMPDEST SWAP1 POP SWAP2 SWAP1 POP JUMP JUMPDEST PUSH32 0x4E487B7100000000000000000000000000000000000000000000000000000000 PUSH0 MSTORE PUSH1 0x11 PUSH1 0x4 MSTORE PUSH1 0x24 PUSH0 REVERT JUMPDEST PUSH0 PUSH2 0x342F DUP3 PUSH2 0x293E JUMP JUMPDEST SWAP2 POP PUSH2 0x343A DUP4 PUSH2 0x293E JUMP JUMPDEST SWAP3 POP DUP3 DUP3 MUL PUSH2 0x3448 DUP2 PUSH2 0x293E JUMP JUMPDEST SWAP2 POP DUP3 DUP3 DIV DUP5 EQ DUP4 ISZERO OR PUSH2 0x345F JUMPI PUSH2 0x345E PUSH2 0x33F8 JUMP JUMPDEST JUMPDEST POP SWAP3 SWAP2 POP POP JUMP JUMPDEST PUSH0 PUSH2 0x3470 DUP3 PUSH2 0x293E JUMP JUMPDEST SWAP2 POP PUSH2 0x347B DUP4 PUSH2 0x293E JUMP JUMPDEST SWAP3 POP DUP3 DUP3 ADD SWAP1 POP DUP1 DUP3 GT ISZERO PUSH2 0x3493 JUMPI PUSH2 0x3492 PUSH2 0x33F8 JUMP JUMPDEST JUMPDEST SWAP3 SWAP2 POP POP JUMP INVALID LOG2 PUSH5 0x6970667358 0x22 SLT KECCAK256 COINBASE 0xC4 0xB2 0xAE 0xDA CALLVALUE 0xA6 DUP15 0xAF 0xC 0xAF PUSH31 0xA455B1CDB87DF1BA344DF13907C3ACD31B0F106E64736F6C634300081E0033 "
				},
				"gasEstimates": {
					"creation": {
						"codeDepositCost": "2703800",
						"executionCost": "infinite",
						"totalCost": "infinite"
					},
					"external": {
						"Directory()": "infinite",
						"IS_WETH_USD_PAIR_ADDRESS_V3()": "infinite",
						"USD_ADDRESS()": "infinite",
						"WETH_ADDRESS()": "infinite",
						"WETH_DECIMALS()": "infinite",
						"WETH_USD_PAIR_ADDRESS()": "infinite",
						"_getTokenPriceV2(address,address)": "infinite",
						"_getTokenPriceV3(address,address)": "infinite",
						"changeDirectoryAddress(address)": "infinite",
						"emitPoolChangedEventOnWethUsdPool()": "infinite",
						"fetchFromDirectory(string)": "infinite",
						"getTokenLiquidityUsd(address)": "infinite",
						"getTokenLiquidityWeth(address)": "infinite",
						"getTokenMarketCapUsd(address)": "infinite",
						"getTokenMarketCapWeth(address)": "infinite",
						"getTokenUsdPrice(address)": "infinite",
						"getTokenWethPoolAddress(address)": "infinite",
						"getTokenWethPrice(address)": "infinite",
						"getWethUsdPrice()": "infinite",
						"owner()": "infinite"
					}
				},
				"methodIdentifiers": {
					"Directory()": "658a847a",
					"IS_WETH_USD_PAIR_ADDRESS_V3()": "5498f4bc",
					"USD_ADDRESS()": "9d1211bf",
					"WETH_ADDRESS()": "040141e5",
					"WETH_DECIMALS()": "d08aef7c",
					"WETH_USD_PAIR_ADDRESS()": "0b017603",
					"_getTokenPriceV2(address,address)": "d43d883e",
					"_getTokenPriceV3(address,address)": "2c5d1063",
					"changeDirectoryAddress(address)": "ba4c7be1",
					"emitPoolChangedEventOnWethUsdPool()": "be00e0c2",
					"fetchFromDirectory(string)": "27262618",
					"getTokenLiquidityUsd(address)": "57b6c133",
					"getTokenLiquidityWeth(address)": "0dbc0d7d",
					"getTokenMarketCapUsd(address)": "69a2e17d",
					"getTokenMarketCapWeth(address)": "63aa0c93",
					"getTokenUsdPrice(address)": "00593bcf",
					"getTokenWethPoolAddress(address)": "41e0e1d6",
					"getTokenWethPrice(address)": "7b49b49d",
					"getWethUsdPrice()": "6855e939",
					"owner()": "8da5cb5b"
				}
			},
			"storageLayout": {
				"storage": [
					{
						"astId": 18,
						"contract": "hopium/uniswap/main/uniswap-oracle.sol:UniswapOracle",
						"label": "Directory",
						"offset": 0,
						"slot": "0",
						"type": "t_contract(IDirectory)15"
					}
				],
				"types": {
					"t_contract(IDirectory)15": {
						"encoding": "inplace",
						"label": "contract IDirectory",
						"numberOfBytes": "20"
					}
				}
			},
			"userdoc": {
				"kind": "user",
				"methods": {
					"_getTokenPriceV2(address,address)": {
						"notice": "Base-per-1-token price (1e18 scaled) from a Uniswap V2-like pair."
					},
					"_getTokenPriceV3(address,address)": {
						"notice": "Base-per-1-token price (1e18 scaled) from a Uniswap V3 pool via slot0."
					},
					"getTokenLiquidityUsd(address)": {
						"notice": "Total pool liquidity in USD for the TOKEN–WETH pair (scaled 1e18)."
					},
					"getTokenLiquidityWeth(address)": {
						"notice": "Total pool liquidity in WETH for the TOKEN–WETH pair (scaled 1e18). If TOKEN is WETH, returns WETH totalSupply (scaled to 1e18)."
					},
					"getTokenMarketCapUsd(address)": {
						"notice": "Market cap in USD for TOKEN (scaled 1e18)."
					},
					"getTokenMarketCapWeth(address)": {
						"notice": "Market cap in WETH for TOKEN (scaled 1e18): totalSupply * (WETH per 1 TOKEN). If TOKEN is WETH, this is simply WETH totalSupply (scaled 1e18)."
					},
					"getTokenUsdPrice(address)": {
						"notice": "USD price of 1 TOKEN (scaled 1e18)."
					}
				},
				"version": 1
			}
		}
	}
}