{
	"hopium/etf/main/etf-factory.sol": {
		"EtfFactory": {
			"abi": [
				{
					"inputs": [
						{
							"internalType": "address",
							"name": "_directory",
							"type": "address"
						},
						{
							"internalType": "address",
							"name": "_wethAddress",
							"type": "address"
						}
					],
					"stateMutability": "nonpayable",
					"type": "constructor"
				},
				{
					"inputs": [],
					"name": "DuplicateToken",
					"type": "error"
				},
				{
					"inputs": [],
					"name": "EmptyTicker",
					"type": "error"
				},
				{
					"inputs": [],
					"name": "EtfExists",
					"type": "error"
				},
				{
					"inputs": [],
					"name": "InvalidAddress",
					"type": "error"
				},
				{
					"inputs": [],
					"name": "InvalidId",
					"type": "error"
				},
				{
					"inputs": [],
					"name": "NoAssets",
					"type": "error"
				},
				{
					"inputs": [],
					"name": "NoPoolFound",
					"type": "error"
				},
				{
					"inputs": [],
					"name": "NotHundred",
					"type": "error"
				},
				{
					"inputs": [],
					"name": "OverWeight",
					"type": "error"
				},
				{
					"inputs": [],
					"name": "TickerExists",
					"type": "error"
				},
				{
					"inputs": [],
					"name": "ZeroToken",
					"type": "error"
				},
				{
					"inputs": [],
					"name": "ZeroTradeValue",
					"type": "error"
				},
				{
					"inputs": [],
					"name": "ZeroWeight",
					"type": "error"
				},
				{
					"inputs": [],
					"name": "ZeroWethUsdPrice",
					"type": "error"
				},
				{
					"anonymous": false,
					"inputs": [
						{
							"indexed": true,
							"internalType": "uint256",
							"name": "etfId",
							"type": "uint256"
						}
					],
					"name": "EtfCreated",
					"type": "event"
				},
				{
					"anonymous": false,
					"inputs": [
						{
							"indexed": true,
							"internalType": "uint256",
							"name": "etfId",
							"type": "uint256"
						},
						{
							"indexed": false,
							"internalType": "address",
							"name": "etfTokenAddress",
							"type": "address"
						},
						{
							"indexed": false,
							"internalType": "address",
							"name": "etfVaultAddress",
							"type": "address"
						}
					],
					"name": "EtfDeployed",
					"type": "event"
				},
				{
					"inputs": [],
					"name": "Directory",
					"outputs": [
						{
							"internalType": "contract IDirectory",
							"name": "",
							"type": "address"
						}
					],
					"stateMutability": "view",
					"type": "function"
				},
				{
					"inputs": [],
					"name": "WETH_ADDRESS",
					"outputs": [
						{
							"internalType": "address",
							"name": "",
							"type": "address"
						}
					],
					"stateMutability": "view",
					"type": "function"
				},
				{
					"inputs": [
						{
							"internalType": "address",
							"name": "_directory",
							"type": "address"
						}
					],
					"name": "changeDirectoryAddress",
					"outputs": [],
					"stateMutability": "nonpayable",
					"type": "function"
				},
				{
					"inputs": [
						{
							"components": [
								{
									"internalType": "string",
									"name": "name",
									"type": "string"
								},
								{
									"internalType": "string",
									"name": "ticker",
									"type": "string"
								},
								{
									"components": [
										{
											"internalType": "address",
											"name": "tokenAddress",
											"type": "address"
										},
										{
											"internalType": "uint16",
											"name": "weightBips",
											"type": "uint16"
										}
									],
									"internalType": "struct Asset[]",
									"name": "assets",
									"type": "tuple[]"
								}
							],
							"internalType": "struct Etf",
							"name": "etf",
							"type": "tuple"
						}
					],
					"name": "createEtf",
					"outputs": [
						{
							"internalType": "uint256",
							"name": "",
							"type": "uint256"
						}
					],
					"stateMutability": "nonpayable",
					"type": "function"
				},
				{
					"inputs": [
						{
							"internalType": "string",
							"name": "_key",
							"type": "string"
						}
					],
					"name": "fetchFromDirectory",
					"outputs": [
						{
							"internalType": "address",
							"name": "",
							"type": "address"
						}
					],
					"stateMutability": "view",
					"type": "function"
				},
				{
					"inputs": [
						{
							"internalType": "uint256",
							"name": "etfId",
							"type": "uint256"
						}
					],
					"name": "getEtfById",
					"outputs": [
						{
							"components": [
								{
									"internalType": "string",
									"name": "name",
									"type": "string"
								},
								{
									"internalType": "string",
									"name": "ticker",
									"type": "string"
								},
								{
									"components": [
										{
											"internalType": "address",
											"name": "tokenAddress",
											"type": "address"
										},
										{
											"internalType": "uint16",
											"name": "weightBips",
											"type": "uint16"
										}
									],
									"internalType": "struct Asset[]",
									"name": "assets",
									"type": "tuple[]"
								}
							],
							"internalType": "struct Etf",
							"name": "",
							"type": "tuple"
						}
					],
					"stateMutability": "view",
					"type": "function"
				},
				{
					"inputs": [
						{
							"internalType": "uint256",
							"name": "etfId",
							"type": "uint256"
						}
					],
					"name": "getEtfByIdAndAddresses",
					"outputs": [
						{
							"components": [
								{
									"internalType": "string",
									"name": "name",
									"type": "string"
								},
								{
									"internalType": "string",
									"name": "ticker",
									"type": "string"
								},
								{
									"components": [
										{
											"internalType": "address",
											"name": "tokenAddress",
											"type": "address"
										},
										{
											"internalType": "uint16",
											"name": "weightBips",
											"type": "uint16"
										}
									],
									"internalType": "struct Asset[]",
									"name": "assets",
									"type": "tuple[]"
								}
							],
							"internalType": "struct Etf",
							"name": "etf",
							"type": "tuple"
						},
						{
							"internalType": "address",
							"name": "tokenAddress",
							"type": "address"
						},
						{
							"internalType": "address",
							"name": "vaultAddress",
							"type": "address"
						}
					],
					"stateMutability": "view",
					"type": "function"
				},
				{
					"inputs": [
						{
							"internalType": "uint256",
							"name": "etfId",
							"type": "uint256"
						}
					],
					"name": "getEtfByIdAndVault",
					"outputs": [
						{
							"components": [
								{
									"internalType": "string",
									"name": "name",
									"type": "string"
								},
								{
									"internalType": "string",
									"name": "ticker",
									"type": "string"
								},
								{
									"components": [
										{
											"internalType": "address",
											"name": "tokenAddress",
											"type": "address"
										},
										{
											"internalType": "uint16",
											"name": "weightBips",
											"type": "uint16"
										}
									],
									"internalType": "struct Asset[]",
									"name": "assets",
									"type": "tuple[]"
								}
							],
							"internalType": "struct Etf",
							"name": "etf",
							"type": "tuple"
						},
						{
							"internalType": "address",
							"name": "vaultAddress",
							"type": "address"
						}
					],
					"stateMutability": "view",
					"type": "function"
				},
				{
					"inputs": [
						{
							"internalType": "uint256",
							"name": "etfId",
							"type": "uint256"
						}
					],
					"name": "getEtfTokenAddress",
					"outputs": [
						{
							"internalType": "address",
							"name": "tokenAddress",
							"type": "address"
						}
					],
					"stateMutability": "view",
					"type": "function"
				},
				{
					"inputs": [
						{
							"internalType": "uint256",
							"name": "etfId",
							"type": "uint256"
						}
					],
					"name": "getEtfTotalVolume",
					"outputs": [
						{
							"internalType": "uint256",
							"name": "volWeth",
							"type": "uint256"
						},
						{
							"internalType": "uint256",
							"name": "volUsd",
							"type": "uint256"
						}
					],
					"stateMutability": "view",
					"type": "function"
				},
				{
					"inputs": [
						{
							"internalType": "uint256",
							"name": "etfId",
							"type": "uint256"
						}
					],
					"name": "getEtfVaultAddress",
					"outputs": [
						{
							"internalType": "address",
							"name": "vaultAddress",
							"type": "address"
						}
					],
					"stateMutability": "view",
					"type": "function"
				},
				{
					"inputs": [],
					"name": "owner",
					"outputs": [
						{
							"internalType": "address",
							"name": "",
							"type": "address"
						}
					],
					"stateMutability": "view",
					"type": "function"
				},
				{
					"inputs": [
						{
							"internalType": "uint256",
							"name": "etfId",
							"type": "uint256"
						},
						{
							"internalType": "uint256",
							"name": "ethAmount",
							"type": "uint256"
						}
					],
					"name": "updateEtfVolume",
					"outputs": [],
					"stateMutability": "nonpayable",
					"type": "function"
				}
			],
			"devdoc": {
				"kind": "dev",
				"methods": {},
				"version": 1
			},
			"evm": {
				"assembly": "    /* \"hopium/etf/main/etf-factory.sol\":5662:8385  contract EtfFactory is ImDirectory, Helpers, ImEtfTokenDeployer, ImEtfVaultDeployer, ImEtfRouter, ImUniswapOracle {... */\n  mstore(0x40, 0xc0)\n    /* \"hopium/etf/main/etf-factory.sol\":547:551  1e18 */\n  0x0de0b6b3a7640000\n    /* \"hopium/etf/main/etf-factory.sol\":514:551  uint256 internal immutable WAD = 1e18 */\n  0x80\n  swap1\n  dup2\n  mstore\n  pop\n    /* \"hopium/etf/main/etf-factory.sol\":5782:5905  constructor(address _directory,  address _wethAddress) ImDirectory(_directory) {... */\n  callvalue\n  dup1\n  iszero\n  tag_1\n  jumpi\n  revert(0x00, 0x00)\ntag_1:\n  pop\n  mload(0x40)\n  sub(codesize, bytecodeSize)\n  dup1\n  bytecodeSize\n  dup4\n  codecopy\n  dup2\n  dup2\n  add\n  0x40\n  mstore\n  dup2\n  add\n  swap1\n  tag_2\n  swap2\n  swap1\n  tag_3\n  jump\t// in\ntag_2:\n    /* \"hopium/etf/main/etf-factory.sol\":5849:5859  _directory */\n  dup2\n    /* \"hopium/common/interface/imDirectory.sol\":412:437  _setDirectory(_directory) */\n  tag_7\n    /* \"hopium/common/interface/imDirectory.sol\":426:436  _directory */\n  dup2\n    /* \"hopium/common/interface/imDirectory.sol\":412:425  _setDirectory */\n  shl(0x20, tag_8)\n    /* \"hopium/common/interface/imDirectory.sol\":412:437  _setDirectory(_directory) */\n  0x20\n  shr\n  jump\t// in\ntag_7:\n    /* \"hopium/common/interface/imDirectory.sol\":370:464  constructor(address _directory) {... */\n  pop\n    /* \"hopium/etf/main/etf-factory.sol\":5886:5898  _wethAddress */\n  dup1\n    /* \"hopium/etf/main/etf-factory.sol\":5871:5898  WETH_ADDRESS = _wethAddress */\n  0xffffffffffffffffffffffffffffffffffffffff\n  and\n  0xa0\n  dup2\n  0xffffffffffffffffffffffffffffffffffffffff\n  and\n  dup2\n  mstore\n  pop\n  pop\n    /* \"hopium/etf/main/etf-factory.sol\":5782:5905  constructor(address _directory,  address _wethAddress) ImDirectory(_directory) {... */\n  pop\n  pop\n    /* \"hopium/etf/main/etf-factory.sol\":5662:8385  contract EtfFactory is ImDirectory, Helpers, ImEtfTokenDeployer, ImEtfVaultDeployer, ImEtfRouter, ImUniswapOracle {... */\n  jump(tag_10)\n    /* \"hopium/common/interface/imDirectory.sol\":589:1050  function _setDirectory(address _directory) internal {... */\ntag_8:\n    /* \"hopium/common/interface/imDirectory.sol\":681:682  0 */\n  0x00\n    /* \"hopium/common/interface/imDirectory.sol\":659:683  _directory != address(0) */\n  0xffffffffffffffffffffffffffffffffffffffff\n  and\n    /* \"hopium/common/interface/imDirectory.sol\":659:669  _directory */\n  dup2\n    /* \"hopium/common/interface/imDirectory.sol\":659:683  _directory != address(0) */\n  0xffffffffffffffffffffffffffffffffffffffff\n  and\n  sub\n    /* \"hopium/common/interface/imDirectory.sol\":651:720  require(_directory != address(0), \"Directory cannot be zero address\") */\n  tag_12\n  jumpi\n  mload(0x40)\n  0x08c379a000000000000000000000000000000000000000000000000000000000\n  dup2\n  mstore\n  0x04\n  add\n  tag_13\n  swap1\n  tag_14\n  jump\t// in\ntag_13:\n  mload(0x40)\n  dup1\n  swap2\n  sub\n  swap1\n  revert\ntag_12:\n    /* \"hopium/common/interface/imDirectory.sol\":763:764  0 */\n  0x00\n    /* \"hopium/common/interface/imDirectory.sol\":738:748  _directory */\n  dup2\n    /* \"hopium/common/interface/imDirectory.sol\":738:760  _directory.code.length */\n  0xffffffffffffffffffffffffffffffffffffffff\n  and\n  extcodesize\n    /* \"hopium/common/interface/imDirectory.sol\":738:764  _directory.code.length > 0 */\n  gt\n    /* \"hopium/common/interface/imDirectory.sol\":730:797  require(_directory.code.length > 0, \"Directory must be a contract\") */\n  tag_15\n  jumpi\n  mload(0x40)\n  0x08c379a000000000000000000000000000000000000000000000000000000000\n  dup2\n  mstore\n  0x04\n  add\n  tag_16\n  swap1\n  tag_17\n  jump\t// in\ntag_16:\n  mload(0x40)\n  dup1\n  swap2\n  sub\n  swap1\n  revert\ntag_15:\n    /* \"hopium/common/interface/imDirectory.sol\":861:871  _directory */\n  dup1\n    /* \"hopium/common/interface/imDirectory.sol\":850:878  IDirectory(_directory).owner */\n  0xffffffffffffffffffffffffffffffffffffffff\n  and\n  0x8da5cb5b\n    /* \"hopium/common/interface/imDirectory.sol\":850:880  IDirectory(_directory).owner() */\n  mload(0x40)\n  dup2\n  0xffffffff\n  and\n  0xe0\n  shl\n  dup2\n  mstore\n  0x04\n  add\n  0x20\n  mload(0x40)\n  dup1\n  dup4\n  sub\n  dup2\n  dup7\n  gas\n  staticcall\n  swap3\n  pop\n  pop\n  pop\n  dup1\n  iszero\n  tag_18\n  jumpi\n  pop\n  mload(0x40)\n  returndatasize\n  not(0x1f)\n  0x1f\n  dup3\n  add\n  and\n  dup3\n  add\n  dup1\n  0x40\n  mstore\n  pop\n  dup2\n  add\n  swap1\n  tag_19\n  swap2\n  swap1\n  tag_20\n  jump\t// in\ntag_19:\n  0x01\ntag_18:\n    /* \"hopium/common/interface/imDirectory.sol\":846:1044  try IDirectory(_directory).owner() returns (address) {... */\n  tag_21\n  jumpi\n    /* \"hopium/common/interface/imDirectory.sol\":979:1033  revert(\"Directory address does not implement owner()\") */\n  mload(0x40)\n  0x08c379a000000000000000000000000000000000000000000000000000000000\n  dup2\n  mstore\n  0x04\n  add\n  tag_25\n  swap1\n  tag_26\n  jump\t// in\ntag_25:\n  mload(0x40)\n  dup1\n  swap2\n  sub\n  swap1\n  revert\n    /* \"hopium/common/interface/imDirectory.sol\":846:1044  try IDirectory(_directory).owner() returns (address) {... */\ntag_21:\n    /* \"hopium/common/interface/imDirectory.sol\":936:946  _directory */\n  dup2\n    /* \"hopium/common/interface/imDirectory.sol\":913:922  Directory */\n  0x07\n  0x00\n    /* \"hopium/common/interface/imDirectory.sol\":913:947  Directory = IDirectory(_directory) */\n  0x0100\n  exp\n  dup2\n  sload\n  dup2\n  0xffffffffffffffffffffffffffffffffffffffff\n  mul\n  not\n  and\n  swap1\n  dup4\n  0xffffffffffffffffffffffffffffffffffffffff\n  and\n  mul\n  or\n  swap1\n  sstore\n  pop\n    /* \"hopium/common/interface/imDirectory.sol\":881:958  returns (address) {... */\n  pop\n    /* \"hopium/common/interface/imDirectory.sol\":589:1050  function _setDirectory(address _directory) internal {... */\n  pop\n  jump\t// out\n    /* \"#utility.yul\":88:205   */\ntag_29:\n    /* \"#utility.yul\":197:198   */\n  0x00\n    /* \"#utility.yul\":194:195   */\n  0x00\n    /* \"#utility.yul\":187:199   */\n  revert\n    /* \"#utility.yul\":334:460   */\ntag_31:\n    /* \"#utility.yul\":371:378   */\n  0x00\n    /* \"#utility.yul\":411:453   */\n  0xffffffffffffffffffffffffffffffffffffffff\n    /* \"#utility.yul\":404:409   */\n  dup3\n    /* \"#utility.yul\":400:454   */\n  and\n    /* \"#utility.yul\":389:454   */\n  swap1\n  pop\n    /* \"#utility.yul\":334:460   */\n  swap2\n  swap1\n  pop\n  jump\t// out\n    /* \"#utility.yul\":466:562   */\ntag_32:\n    /* \"#utility.yul\":503:510   */\n  0x00\n    /* \"#utility.yul\":532:556   */\n  tag_48\n    /* \"#utility.yul\":550:555   */\n  dup3\n    /* \"#utility.yul\":532:556   */\n  tag_31\n  jump\t// in\ntag_48:\n    /* \"#utility.yul\":521:556   */\n  swap1\n  pop\n    /* \"#utility.yul\":466:562   */\n  swap2\n  swap1\n  pop\n  jump\t// out\n    /* \"#utility.yul\":568:690   */\ntag_33:\n    /* \"#utility.yul\":641:665   */\n  tag_50\n    /* \"#utility.yul\":659:664   */\n  dup2\n    /* \"#utility.yul\":641:665   */\n  tag_32\n  jump\t// in\ntag_50:\n    /* \"#utility.yul\":634:639   */\n  dup2\n    /* \"#utility.yul\":631:666   */\n  eq\n    /* \"#utility.yul\":621:684   */\n  tag_51\n  jumpi\n    /* \"#utility.yul\":680:681   */\n  0x00\n    /* \"#utility.yul\":677:678   */\n  0x00\n    /* \"#utility.yul\":670:682   */\n  revert\n    /* \"#utility.yul\":621:684   */\ntag_51:\n    /* \"#utility.yul\":568:690   */\n  pop\n  jump\t// out\n    /* \"#utility.yul\":696:839   */\ntag_34:\n    /* \"#utility.yul\":753:758   */\n  0x00\n    /* \"#utility.yul\":784:790   */\n  dup2\n    /* \"#utility.yul\":778:791   */\n  mload\n    /* \"#utility.yul\":769:791   */\n  swap1\n  pop\n    /* \"#utility.yul\":800:833   */\n  tag_53\n    /* \"#utility.yul\":827:832   */\n  dup2\n    /* \"#utility.yul\":800:833   */\n  tag_33\n  jump\t// in\ntag_53:\n    /* \"#utility.yul\":696:839   */\n  swap3\n  swap2\n  pop\n  pop\n  jump\t// out\n    /* \"#utility.yul\":845:1352   */\ntag_3:\n    /* \"#utility.yul\":924:930   */\n  0x00\n    /* \"#utility.yul\":932:938   */\n  0x00\n    /* \"#utility.yul\":981:983   */\n  0x40\n    /* \"#utility.yul\":969:978   */\n  dup4\n    /* \"#utility.yul\":960:967   */\n  dup6\n    /* \"#utility.yul\":956:979   */\n  sub\n    /* \"#utility.yul\":952:984   */\n  slt\n    /* \"#utility.yul\":949:1068   */\n  iszero\n  tag_55\n  jumpi\n    /* \"#utility.yul\":987:1066   */\n  tag_56\n  tag_29\n  jump\t// in\ntag_56:\n    /* \"#utility.yul\":949:1068   */\ntag_55:\n    /* \"#utility.yul\":1107:1108   */\n  0x00\n    /* \"#utility.yul\":1132:1196   */\n  tag_57\n    /* \"#utility.yul\":1188:1195   */\n  dup6\n    /* \"#utility.yul\":1179:1185   */\n  dup3\n    /* \"#utility.yul\":1168:1177   */\n  dup7\n    /* \"#utility.yul\":1164:1186   */\n  add\n    /* \"#utility.yul\":1132:1196   */\n  tag_34\n  jump\t// in\ntag_57:\n    /* \"#utility.yul\":1122:1196   */\n  swap3\n  pop\n    /* \"#utility.yul\":1078:1206   */\n  pop\n    /* \"#utility.yul\":1245:1247   */\n  0x20\n    /* \"#utility.yul\":1271:1335   */\n  tag_58\n    /* \"#utility.yul\":1327:1334   */\n  dup6\n    /* \"#utility.yul\":1318:1324   */\n  dup3\n    /* \"#utility.yul\":1307:1316   */\n  dup7\n    /* \"#utility.yul\":1303:1325   */\n  add\n    /* \"#utility.yul\":1271:1335   */\n  tag_34\n  jump\t// in\ntag_58:\n    /* \"#utility.yul\":1261:1335   */\n  swap2\n  pop\n    /* \"#utility.yul\":1216:1345   */\n  pop\n    /* \"#utility.yul\":845:1352   */\n  swap3\n  pop\n  swap3\n  swap1\n  pop\n  jump\t// out\n    /* \"#utility.yul\":1358:1527   */\ntag_35:\n    /* \"#utility.yul\":1442:1453   */\n  0x00\n    /* \"#utility.yul\":1476:1482   */\n  dup3\n    /* \"#utility.yul\":1471:1474   */\n  dup3\n    /* \"#utility.yul\":1464:1483   */\n  mstore\n    /* \"#utility.yul\":1516:1520   */\n  0x20\n    /* \"#utility.yul\":1511:1514   */\n  dup3\n    /* \"#utility.yul\":1507:1521   */\n  add\n    /* \"#utility.yul\":1492:1521   */\n  swap1\n  pop\n    /* \"#utility.yul\":1358:1527   */\n  swap3\n  swap2\n  pop\n  pop\n  jump\t// out\n    /* \"#utility.yul\":1533:1715   */\ntag_36:\n    /* \"#utility.yul\":1673:1707   */\n  0x4469726563746f72792063616e6e6f74206265207a65726f2061646472657373\n    /* \"#utility.yul\":1669:1670   */\n  0x00\n    /* \"#utility.yul\":1661:1667   */\n  dup3\n    /* \"#utility.yul\":1657:1671   */\n  add\n    /* \"#utility.yul\":1650:1708   */\n  mstore\n    /* \"#utility.yul\":1533:1715   */\n  pop\n  jump\t// out\n    /* \"#utility.yul\":1721:2087   */\ntag_37:\n    /* \"#utility.yul\":1863:1866   */\n  0x00\n    /* \"#utility.yul\":1884:1951   */\n  tag_62\n    /* \"#utility.yul\":1948:1950   */\n  0x20\n    /* \"#utility.yul\":1943:1946   */\n  dup4\n    /* \"#utility.yul\":1884:1951   */\n  tag_35\n  jump\t// in\ntag_62:\n    /* \"#utility.yul\":1877:1951   */\n  swap2\n  pop\n    /* \"#utility.yul\":1960:2053   */\n  tag_63\n    /* \"#utility.yul\":2049:2052   */\n  dup3\n    /* \"#utility.yul\":1960:2053   */\n  tag_36\n  jump\t// in\ntag_63:\n    /* \"#utility.yul\":2078:2080   */\n  0x20\n    /* \"#utility.yul\":2073:2076   */\n  dup3\n    /* \"#utility.yul\":2069:2081   */\n  add\n    /* \"#utility.yul\":2062:2081   */\n  swap1\n  pop\n    /* \"#utility.yul\":1721:2087   */\n  swap2\n  swap1\n  pop\n  jump\t// out\n    /* \"#utility.yul\":2093:2512   */\ntag_14:\n    /* \"#utility.yul\":2259:2263   */\n  0x00\n    /* \"#utility.yul\":2297:2299   */\n  0x20\n    /* \"#utility.yul\":2286:2295   */\n  dup3\n    /* \"#utility.yul\":2282:2300   */\n  add\n    /* \"#utility.yul\":2274:2300   */\n  swap1\n  pop\n    /* \"#utility.yul\":2346:2355   */\n  dup2\n    /* \"#utility.yul\":2340:2344   */\n  dup2\n    /* \"#utility.yul\":2336:2356   */\n  sub\n    /* \"#utility.yul\":2332:2333   */\n  0x00\n    /* \"#utility.yul\":2321:2330   */\n  dup4\n    /* \"#utility.yul\":2317:2334   */\n  add\n    /* \"#utility.yul\":2310:2357   */\n  mstore\n    /* \"#utility.yul\":2374:2505   */\n  tag_65\n    /* \"#utility.yul\":2500:2504   */\n  dup2\n    /* \"#utility.yul\":2374:2505   */\n  tag_37\n  jump\t// in\ntag_65:\n    /* \"#utility.yul\":2366:2505   */\n  swap1\n  pop\n    /* \"#utility.yul\":2093:2512   */\n  swap2\n  swap1\n  pop\n  jump\t// out\n    /* \"#utility.yul\":2518:2696   */\ntag_38:\n    /* \"#utility.yul\":2658:2688   */\n  0x4469726563746f7279206d757374206265206120636f6e747261637400000000\n    /* \"#utility.yul\":2654:2655   */\n  0x00\n    /* \"#utility.yul\":2646:2652   */\n  dup3\n    /* \"#utility.yul\":2642:2656   */\n  add\n    /* \"#utility.yul\":2635:2689   */\n  mstore\n    /* \"#utility.yul\":2518:2696   */\n  pop\n  jump\t// out\n    /* \"#utility.yul\":2702:3068   */\ntag_39:\n    /* \"#utility.yul\":2844:2847   */\n  0x00\n    /* \"#utility.yul\":2865:2932   */\n  tag_68\n    /* \"#utility.yul\":2929:2931   */\n  0x1c\n    /* \"#utility.yul\":2924:2927   */\n  dup4\n    /* \"#utility.yul\":2865:2932   */\n  tag_35\n  jump\t// in\ntag_68:\n    /* \"#utility.yul\":2858:2932   */\n  swap2\n  pop\n    /* \"#utility.yul\":2941:3034   */\n  tag_69\n    /* \"#utility.yul\":3030:3033   */\n  dup3\n    /* \"#utility.yul\":2941:3034   */\n  tag_38\n  jump\t// in\ntag_69:\n    /* \"#utility.yul\":3059:3061   */\n  0x20\n    /* \"#utility.yul\":3054:3057   */\n  dup3\n    /* \"#utility.yul\":3050:3062   */\n  add\n    /* \"#utility.yul\":3043:3062   */\n  swap1\n  pop\n    /* \"#utility.yul\":2702:3068   */\n  swap2\n  swap1\n  pop\n  jump\t// out\n    /* \"#utility.yul\":3074:3493   */\ntag_17:\n    /* \"#utility.yul\":3240:3244   */\n  0x00\n    /* \"#utility.yul\":3278:3280   */\n  0x20\n    /* \"#utility.yul\":3267:3276   */\n  dup3\n    /* \"#utility.yul\":3263:3281   */\n  add\n    /* \"#utility.yul\":3255:3281   */\n  swap1\n  pop\n    /* \"#utility.yul\":3327:3336   */\n  dup2\n    /* \"#utility.yul\":3321:3325   */\n  dup2\n    /* \"#utility.yul\":3317:3337   */\n  sub\n    /* \"#utility.yul\":3313:3314   */\n  0x00\n    /* \"#utility.yul\":3302:3311   */\n  dup4\n    /* \"#utility.yul\":3298:3315   */\n  add\n    /* \"#utility.yul\":3291:3338   */\n  mstore\n    /* \"#utility.yul\":3355:3486   */\n  tag_71\n    /* \"#utility.yul\":3481:3485   */\n  dup2\n    /* \"#utility.yul\":3355:3486   */\n  tag_39\n  jump\t// in\ntag_71:\n    /* \"#utility.yul\":3347:3486   */\n  swap1\n  pop\n    /* \"#utility.yul\":3074:3493   */\n  swap2\n  swap1\n  pop\n  jump\t// out\n    /* \"#utility.yul\":3499:3850   */\ntag_20:\n    /* \"#utility.yul\":3569:3575   */\n  0x00\n    /* \"#utility.yul\":3618:3620   */\n  0x20\n    /* \"#utility.yul\":3606:3615   */\n  dup3\n    /* \"#utility.yul\":3597:3604   */\n  dup5\n    /* \"#utility.yul\":3593:3616   */\n  sub\n    /* \"#utility.yul\":3589:3621   */\n  slt\n    /* \"#utility.yul\":3586:3705   */\n  iszero\n  tag_73\n  jumpi\n    /* \"#utility.yul\":3624:3703   */\n  tag_74\n  tag_29\n  jump\t// in\ntag_74:\n    /* \"#utility.yul\":3586:3705   */\ntag_73:\n    /* \"#utility.yul\":3744:3745   */\n  0x00\n    /* \"#utility.yul\":3769:3833   */\n  tag_75\n    /* \"#utility.yul\":3825:3832   */\n  dup5\n    /* \"#utility.yul\":3816:3822   */\n  dup3\n    /* \"#utility.yul\":3805:3814   */\n  dup6\n    /* \"#utility.yul\":3801:3823   */\n  add\n    /* \"#utility.yul\":3769:3833   */\n  tag_34\n  jump\t// in\ntag_75:\n    /* \"#utility.yul\":3759:3833   */\n  swap2\n  pop\n    /* \"#utility.yul\":3715:3843   */\n  pop\n    /* \"#utility.yul\":3499:3850   */\n  swap3\n  swap2\n  pop\n  pop\n  jump\t// out\n    /* \"#utility.yul\":3856:4087   */\ntag_40:\n    /* \"#utility.yul\":3996:4030   */\n  0x4469726563746f7279206164647265737320646f6573206e6f7420696d706c65\n    /* \"#utility.yul\":3992:3993   */\n  0x00\n    /* \"#utility.yul\":3984:3990   */\n  dup3\n    /* \"#utility.yul\":3980:3994   */\n  add\n    /* \"#utility.yul\":3973:4031   */\n  mstore\n    /* \"#utility.yul\":4065:4079   */\n  0x6d656e74206f776e657228290000000000000000000000000000000000000000\n    /* \"#utility.yul\":4060:4062   */\n  0x20\n    /* \"#utility.yul\":4052:4058   */\n  dup3\n    /* \"#utility.yul\":4048:4063   */\n  add\n    /* \"#utility.yul\":4041:4080   */\n  mstore\n    /* \"#utility.yul\":3856:4087   */\n  pop\n  jump\t// out\n    /* \"#utility.yul\":4093:4459   */\ntag_41:\n    /* \"#utility.yul\":4235:4238   */\n  0x00\n    /* \"#utility.yul\":4256:4323   */\n  tag_78\n    /* \"#utility.yul\":4320:4322   */\n  0x2c\n    /* \"#utility.yul\":4315:4318   */\n  dup4\n    /* \"#utility.yul\":4256:4323   */\n  tag_35\n  jump\t// in\ntag_78:\n    /* \"#utility.yul\":4249:4323   */\n  swap2\n  pop\n    /* \"#utility.yul\":4332:4425   */\n  tag_79\n    /* \"#utility.yul\":4421:4424   */\n  dup3\n    /* \"#utility.yul\":4332:4425   */\n  tag_40\n  jump\t// in\ntag_79:\n    /* \"#utility.yul\":4450:4452   */\n  0x40\n    /* \"#utility.yul\":4445:4448   */\n  dup3\n    /* \"#utility.yul\":4441:4453   */\n  add\n    /* \"#utility.yul\":4434:4453   */\n  swap1\n  pop\n    /* \"#utility.yul\":4093:4459   */\n  swap2\n  swap1\n  pop\n  jump\t// out\n    /* \"#utility.yul\":4465:4884   */\ntag_26:\n    /* \"#utility.yul\":4631:4635   */\n  0x00\n    /* \"#utility.yul\":4669:4671   */\n  0x20\n    /* \"#utility.yul\":4658:4667   */\n  dup3\n    /* \"#utility.yul\":4654:4672   */\n  add\n    /* \"#utility.yul\":4646:4672   */\n  swap1\n  pop\n    /* \"#utility.yul\":4718:4727   */\n  dup2\n    /* \"#utility.yul\":4712:4716   */\n  dup2\n    /* \"#utility.yul\":4708:4728   */\n  sub\n    /* \"#utility.yul\":4704:4705   */\n  0x00\n    /* \"#utility.yul\":4693:4702   */\n  dup4\n    /* \"#utility.yul\":4689:4706   */\n  add\n    /* \"#utility.yul\":4682:4729   */\n  mstore\n    /* \"#utility.yul\":4746:4877   */\n  tag_81\n    /* \"#utility.yul\":4872:4876   */\n  dup2\n    /* \"#utility.yul\":4746:4877   */\n  tag_41\n  jump\t// in\ntag_81:\n    /* \"#utility.yul\":4738:4877   */\n  swap1\n  pop\n    /* \"#utility.yul\":4465:4884   */\n  swap2\n  swap1\n  pop\n  jump\t// out\n    /* \"hopium/etf/main/etf-factory.sol\":5662:8385  contract EtfFactory is ImDirectory, Helpers, ImEtfTokenDeployer, ImEtfVaultDeployer, ImEtfRouter, ImUniswapOracle {... */\ntag_10:\n  mload(0x80)\n  mload(0xa0)\n  codecopy(0x00, dataOffset(sub_0), dataSize(sub_0))\n  0x00\n  assignImmutable(\"0xb7020dd003fcd4d96af1507ff4dc7e2c1158f23ad0bacfdf3455869cf9fb4898\")\n  0x00\n  assignImmutable(\"0x4b4b9efaff899efa2095e6e12f4c7ffa5d130c6cf88a562d7f7bbc11486ed4fb\")\n  return(0x00, dataSize(sub_0))\nstop\n\nsub_0: assembly {\n        /* \"hopium/etf/main/etf-factory.sol\":5662:8385  contract EtfFactory is ImDirectory, Helpers, ImEtfTokenDeployer, ImEtfVaultDeployer, ImEtfRouter, ImUniswapOracle {... */\n      mstore(0x40, 0x80)\n      callvalue\n      dup1\n      iszero\n      tag_1\n      jumpi\n      revert(0x00, 0x00)\n    tag_1:\n      pop\n      jumpi(tag_2, lt(calldatasize, 0x04))\n      shr(0xe0, calldataload(0x00))\n      dup1\n      0x658a847a\n      gt\n      tag_16\n      jumpi\n      dup1\n      0xc45f0607\n      gt\n      tag_17\n      jumpi\n      dup1\n      0xc45f0607\n      eq\n      tag_12\n      jumpi\n      dup1\n      0xecb0271c\n      eq\n      tag_13\n      jumpi\n      dup1\n      0xf2018a1f\n      eq\n      tag_14\n      jumpi\n      dup1\n      0xfc0121d4\n      eq\n      tag_15\n      jumpi\n      jump(tag_2)\n    tag_17:\n      dup1\n      0x658a847a\n      eq\n      tag_9\n      jumpi\n      dup1\n      0x8da5cb5b\n      eq\n      tag_10\n      jumpi\n      dup1\n      0xba4c7be1\n      eq\n      tag_11\n      jumpi\n      jump(tag_2)\n    tag_16:\n      dup1\n      0x040141e5\n      eq\n      tag_3\n      jumpi\n      dup1\n      0x1626542c\n      eq\n      tag_4\n      jumpi\n      dup1\n      0x27262618\n      eq\n      tag_5\n      jumpi\n      dup1\n      0x3088f069\n      eq\n      tag_6\n      jumpi\n      dup1\n      0x3ee79962\n      eq\n      tag_7\n      jumpi\n      dup1\n      0x61668690\n      eq\n      tag_8\n      jumpi\n    tag_2:\n      revert(0x00, 0x00)\n        /* \"hopium/etf/main/etf-factory.sol\":557:594  address public immutable WETH_ADDRESS */\n    tag_3:\n      tag_18\n      tag_19\n      jump\t// in\n    tag_18:\n      mload(0x40)\n      tag_20\n      swap2\n      swap1\n      tag_21\n      jump\t// in\n    tag_20:\n      mload(0x40)\n      dup1\n      swap2\n      sub\n      swap1\n      return\n        /* \"hopium/etf/main/etf-factory.sol\":6569:6997  function updateEtfVolume(uint256 etfId, uint256 ethAmount) public onlyEtfRouter {... */\n    tag_4:\n      tag_22\n      0x04\n      dup1\n      calldatasize\n      sub\n      dup2\n      add\n      swap1\n      tag_23\n      swap2\n      swap1\n      tag_24\n      jump\t// in\n    tag_23:\n      tag_25\n      jump\t// in\n    tag_22:\n      stop\n        /* \"hopium/common/interface/imDirectory.sol\":1272:1408  function fetchFromDirectory(string memory _key) public view returns (address) {... */\n    tag_5:\n      tag_26\n      0x04\n      dup1\n      calldatasize\n      sub\n      dup2\n      add\n      swap1\n      tag_27\n      swap2\n      swap1\n      tag_28\n      jump\t// in\n    tag_27:\n      tag_29\n      jump\t// in\n    tag_26:\n      mload(0x40)\n      tag_30\n      swap2\n      swap1\n      tag_21\n      jump\t// in\n    tag_30:\n      mload(0x40)\n      dup1\n      swap2\n      sub\n      swap1\n      return\n        /* \"hopium/etf/main/etf-factory.sol\":7982:8176  function getEtfByIdAndVault(uint256 etfId) external view returns (Etf memory etf, address vaultAddress) {... */\n    tag_6:\n      tag_31\n      0x04\n      dup1\n      calldatasize\n      sub\n      dup2\n      add\n      swap1\n      tag_32\n      swap2\n      swap1\n      tag_33\n      jump\t// in\n    tag_32:\n      tag_34\n      jump\t// in\n    tag_31:\n      mload(0x40)\n      tag_35\n      swap3\n      swap2\n      swap1\n      tag_36\n      jump\t// in\n    tag_35:\n      mload(0x40)\n      dup1\n      swap2\n      sub\n      swap1\n      return\n        /* \"hopium/etf/main/etf-factory.sol\":7494:7700  function getEtfVaultAddress(uint256 etfId) public view returns (address vaultAddress) {... */\n    tag_7:\n      tag_37\n      0x04\n      dup1\n      calldatasize\n      sub\n      dup2\n      add\n      swap1\n      tag_38\n      swap2\n      swap1\n      tag_33\n      jump\t// in\n    tag_38:\n      tag_39\n      jump\t// in\n    tag_37:\n      mload(0x40)\n      tag_40\n      swap2\n      swap1\n      tag_21\n      jump\t// in\n    tag_40:\n      mload(0x40)\n      dup1\n      swap2\n      sub\n      swap1\n      return\n        /* \"hopium/etf/main/etf-factory.sol\":7706:7976  function getEtfByIdAndAddresses(uint256 etfId) external view returns (Etf memory etf, address tokenAddress, address vaultAddress) {... */\n    tag_8:\n      tag_41\n      0x04\n      dup1\n      calldatasize\n      sub\n      dup2\n      add\n      swap1\n      tag_42\n      swap2\n      swap1\n      tag_33\n      jump\t// in\n    tag_42:\n      tag_43\n      jump\t// in\n    tag_41:\n      mload(0x40)\n      tag_44\n      swap4\n      swap3\n      swap2\n      swap1\n      tag_45\n      jump\t// in\n    tag_44:\n      mload(0x40)\n      dup1\n      swap2\n      sub\n      swap1\n      return\n        /* \"hopium/common/interface/imDirectory.sol\":336:363  IDirectory public Directory */\n    tag_9:\n      tag_46\n      tag_47\n      jump\t// in\n    tag_46:\n      mload(0x40)\n      tag_48\n      swap2\n      swap1\n      tag_49\n      jump\t// in\n    tag_48:\n      mload(0x40)\n      dup1\n      swap2\n      sub\n      swap1\n      return\n        /* \"hopium/common/interface/imDirectory.sol\":1178:1266  function owner() public view returns (address) {... */\n    tag_10:\n      tag_50\n      tag_51\n      jump\t// in\n    tag_50:\n      mload(0x40)\n      tag_52\n      swap2\n      swap1\n      tag_21\n      jump\t// in\n    tag_52:\n      mload(0x40)\n      dup1\n      swap2\n      sub\n      swap1\n      return\n        /* \"hopium/common/interface/imDirectory.sol\":470:583  function changeDirectoryAddress(address _directory) external onlyOwner {... */\n    tag_11:\n      tag_53\n      0x04\n      dup1\n      calldatasize\n      sub\n      dup2\n      add\n      swap1\n      tag_54\n      swap2\n      swap1\n      tag_55\n      jump\t// in\n    tag_54:\n      tag_56\n      jump\t// in\n    tag_53:\n      stop\n        /* \"hopium/etf/main/etf-factory.sol\":8182:8383  function getEtfTotalVolume(uint256 etfId) external view returns (uint256 volWeth, uint256 volUsd) {... */\n    tag_12:\n      tag_57\n      0x04\n      dup1\n      calldatasize\n      sub\n      dup2\n      add\n      swap1\n      tag_58\n      swap2\n      swap1\n      tag_33\n      jump\t// in\n    tag_58:\n      tag_59\n      jump\t// in\n    tag_57:\n      mload(0x40)\n      tag_60\n      swap3\n      swap2\n      swap1\n      tag_61\n      jump\t// in\n    tag_60:\n      mload(0x40)\n      dup1\n      swap2\n      sub\n      swap1\n      return\n        /* \"hopium/etf/main/etf-factory.sol\":7049:7248  function getEtfById(uint256 etfId) public view returns (Etf memory) {... */\n    tag_13:\n      tag_62\n      0x04\n      dup1\n      calldatasize\n      sub\n      dup2\n      add\n      swap1\n      tag_63\n      swap2\n      swap1\n      tag_33\n      jump\t// in\n    tag_63:\n      tag_64\n      jump\t// in\n    tag_62:\n      mload(0x40)\n      tag_65\n      swap2\n      swap1\n      tag_66\n      jump\t// in\n    tag_65:\n      mload(0x40)\n      dup1\n      swap2\n      sub\n      swap1\n      return\n        /* \"hopium/etf/main/etf-factory.sol\":7282:7488  function getEtfTokenAddress(uint256 etfId) public view returns (address tokenAddress) {... */\n    tag_14:\n      tag_67\n      0x04\n      dup1\n      calldatasize\n      sub\n      dup2\n      add\n      swap1\n      tag_68\n      swap2\n      swap1\n      tag_33\n      jump\t// in\n    tag_68:\n      tag_69\n      jump\t// in\n    tag_67:\n      mload(0x40)\n      tag_70\n      swap2\n      swap1\n      tag_21\n      jump\t// in\n    tag_70:\n      mload(0x40)\n      dup1\n      swap2\n      sub\n      swap1\n      return\n        /* \"hopium/etf/main/etf-factory.sol\":5935:6505  function createEtf(Etf calldata etf) external onlyOwner returns (uint256) {... */\n    tag_15:\n      tag_71\n      0x04\n      dup1\n      calldatasize\n      sub\n      dup2\n      add\n      swap1\n      tag_72\n      swap2\n      swap1\n      tag_73\n      jump\t// in\n    tag_72:\n      tag_74\n      jump\t// in\n    tag_71:\n      mload(0x40)\n      tag_75\n      swap2\n      swap1\n      tag_76\n      jump\t// in\n    tag_75:\n      mload(0x40)\n      dup1\n      swap2\n      sub\n      swap1\n      return\n        /* \"hopium/etf/main/etf-factory.sol\":557:594  address public immutable WETH_ADDRESS */\n    tag_19:\n      immutable(\"0xb7020dd003fcd4d96af1507ff4dc7e2c1158f23ad0bacfdf3455869cf9fb4898\")\n      dup2\n      jump\t// out\n        /* \"hopium/etf/main/etf-factory.sol\":6569:6997  function updateEtfVolume(uint256 etfId, uint256 ethAmount) public onlyEtfRouter {... */\n    tag_25:\n        /* \"hopium/etf/interface/imEtfRouter.sol\":389:421  fetchFromDirectory(\"etf-router\") */\n      tag_78\n      mload(0x40)\n      dup1\n      0x40\n      add\n      0x40\n      mstore\n      dup1\n      0x0a\n      dup2\n      mstore\n      0x20\n      add\n      0x6574662d726f7574657200000000000000000000000000000000000000000000\n      dup2\n      mstore\n      pop\n        /* \"hopium/etf/interface/imEtfRouter.sol\":389:407  fetchFromDirectory */\n      tag_29\n        /* \"hopium/etf/interface/imEtfRouter.sol\":389:421  fetchFromDirectory(\"etf-router\") */\n      jump\t// in\n    tag_78:\n        /* \"hopium/etf/interface/imEtfRouter.sol\":375:421  msg.sender == fetchFromDirectory(\"etf-router\") */\n      0xffffffffffffffffffffffffffffffffffffffff\n      and\n        /* \"hopium/etf/interface/imEtfRouter.sol\":375:385  msg.sender */\n      caller\n        /* \"hopium/etf/interface/imEtfRouter.sol\":375:421  msg.sender == fetchFromDirectory(\"etf-router\") */\n      0xffffffffffffffffffffffffffffffffffffffff\n      and\n      eq\n        /* \"hopium/etf/interface/imEtfRouter.sol\":367:454  require(msg.sender == fetchFromDirectory(\"etf-router\"), \"msg.sender is not etf router\") */\n      tag_79\n      jumpi\n      mload(0x40)\n      0x08c379a000000000000000000000000000000000000000000000000000000000\n      dup2\n      mstore\n      0x04\n      add\n      tag_80\n      swap1\n      tag_81\n      jump\t// in\n    tag_80:\n      mload(0x40)\n      dup1\n      swap2\n      sub\n      swap1\n      revert\n    tag_79:\n        /* \"hopium/etf/main/etf-factory.sol\":6676:6677  0 */\n      0x00\n        /* \"hopium/etf/main/etf-factory.sol\":6663:6672  ethAmount */\n      dup2\n        /* \"hopium/etf/main/etf-factory.sol\":6663:6677  ethAmount == 0 */\n      sub\n        /* \"hopium/etf/main/etf-factory.sol\":6659:6702  if (ethAmount == 0) revert ZeroTradeValue() */\n      tag_83\n      jumpi\n        /* \"hopium/etf/main/etf-factory.sol\":6686:6702  ZeroTradeValue() */\n      mload(0x40)\n      0xcca7f00400000000000000000000000000000000000000000000000000000000\n      dup2\n      mstore\n      0x04\n      add\n      mload(0x40)\n      dup1\n      swap2\n      sub\n      swap1\n      revert\n        /* \"hopium/etf/main/etf-factory.sol\":6659:6702  if (ethAmount == 0) revert ZeroTradeValue() */\n    tag_83:\n        /* \"hopium/etf/main/etf-factory.sol\":6713:6728  uint256 wethUsd */\n      0x00\n        /* \"hopium/etf/main/etf-factory.sol\":6731:6749  getUniswapOracle() */\n      tag_84\n        /* \"hopium/etf/main/etf-factory.sol\":6731:6747  getUniswapOracle */\n      tag_85\n        /* \"hopium/etf/main/etf-factory.sol\":6731:6749  getUniswapOracle() */\n      jump\t// in\n    tag_84:\n        /* \"hopium/etf/main/etf-factory.sol\":6731:6765  getUniswapOracle().getWethUsdPrice */\n      0xffffffffffffffffffffffffffffffffffffffff\n      and\n      0x6855e939\n        /* \"hopium/etf/main/etf-factory.sol\":6731:6767  getUniswapOracle().getWethUsdPrice() */\n      mload(0x40)\n      dup2\n      0xffffffff\n      and\n      0xe0\n      shl\n      dup2\n      mstore\n      0x04\n      add\n      0x20\n      mload(0x40)\n      dup1\n      dup4\n      sub\n      dup2\n      dup7\n      gas\n      staticcall\n      iszero\n      dup1\n      iszero\n      tag_87\n      jumpi\n      returndatacopy(0x00, 0x00, returndatasize)\n      revert(0x00, returndatasize)\n    tag_87:\n      pop\n      pop\n      pop\n      pop\n      mload(0x40)\n      returndatasize\n      not(0x1f)\n      0x1f\n      dup3\n      add\n      and\n      dup3\n      add\n      dup1\n      0x40\n      mstore\n      pop\n      dup2\n      add\n      swap1\n      tag_88\n      swap2\n      swap1\n      tag_89\n      jump\t// in\n    tag_88:\n        /* \"hopium/etf/main/etf-factory.sol\":6713:6767  uint256 wethUsd = getUniswapOracle().getWethUsdPrice() */\n      swap1\n      pop\n        /* \"hopium/etf/main/etf-factory.sol\":6800:6801  0 */\n      0x00\n        /* \"hopium/etf/main/etf-factory.sol\":6789:6796  wethUsd */\n      dup2\n        /* \"hopium/etf/main/etf-factory.sol\":6789:6801  wethUsd == 0 */\n      sub\n        /* \"hopium/etf/main/etf-factory.sol\":6785:6828  if (wethUsd == 0) revert ZeroWethUsdPrice() */\n      tag_90\n      jumpi\n        /* \"hopium/etf/main/etf-factory.sol\":6810:6828  ZeroWethUsdPrice() */\n      mload(0x40)\n      0x110ea95100000000000000000000000000000000000000000000000000000000\n      dup2\n      mstore\n      0x04\n      add\n      mload(0x40)\n      dup1\n      swap2\n      sub\n      swap1\n      revert\n        /* \"hopium/etf/main/etf-factory.sol\":6785:6828  if (wethUsd == 0) revert ZeroWethUsdPrice() */\n    tag_90:\n        /* \"hopium/etf/main/etf-factory.sol\":6839:6856  uint256 amountUsd */\n      0x00\n        /* \"hopium/etf/main/etf-factory.sol\":6883:6886  WAD */\n      immutable(\"0x4b4b9efaff899efa2095e6e12f4c7ffa5d130c6cf88a562d7f7bbc11486ed4fb\")\n        /* \"hopium/etf/main/etf-factory.sol\":6872:6879  wethUsd */\n      dup3\n        /* \"hopium/etf/main/etf-factory.sol\":6860:6869  ethAmount */\n      dup5\n        /* \"hopium/etf/main/etf-factory.sol\":6860:6879  ethAmount * wethUsd */\n      tag_91\n      swap2\n      swap1\n      tag_92\n      jump\t// in\n    tag_91:\n        /* \"hopium/etf/main/etf-factory.sol\":6859:6886  (ethAmount * wethUsd) / WAD */\n      tag_93\n      swap2\n      swap1\n      tag_94\n      jump\t// in\n    tag_93:\n        /* \"hopium/etf/main/etf-factory.sol\":6839:6886  uint256 amountUsd = (ethAmount * wethUsd) / WAD */\n      swap1\n      pop\n        /* \"hopium/etf/main/etf-factory.sol\":6930:6939  ethAmount */\n      dup3\n        /* \"hopium/etf/main/etf-factory.sol\":6897:6919  etfIdToTotalVolumeWeth */\n      0x05\n        /* \"hopium/etf/main/etf-factory.sol\":6897:6926  etfIdToTotalVolumeWeth[etfId] */\n      0x00\n        /* \"hopium/etf/main/etf-factory.sol\":6920:6925  etfId */\n      dup7\n        /* \"hopium/etf/main/etf-factory.sol\":6897:6926  etfIdToTotalVolumeWeth[etfId] */\n      dup2\n      mstore\n      0x20\n      add\n      swap1\n      dup2\n      mstore\n      0x20\n      add\n      0x00\n      keccak256\n      0x00\n        /* \"hopium/etf/main/etf-factory.sol\":6897:6939  etfIdToTotalVolumeWeth[etfId] += ethAmount */\n      dup3\n      dup3\n      sload\n      tag_95\n      swap2\n      swap1\n      tag_96\n      jump\t// in\n    tag_95:\n      swap3\n      pop\n      pop\n      dup2\n      swap1\n      sstore\n      pop\n        /* \"hopium/etf/main/etf-factory.sol\":6981:6990  amountUsd */\n      dup1\n        /* \"hopium/etf/main/etf-factory.sol\":6949:6970  etfIdToTotalVolumeUsd */\n      0x06\n        /* \"hopium/etf/main/etf-factory.sol\":6949:6977  etfIdToTotalVolumeUsd[etfId] */\n      0x00\n        /* \"hopium/etf/main/etf-factory.sol\":6971:6976  etfId */\n      dup7\n        /* \"hopium/etf/main/etf-factory.sol\":6949:6977  etfIdToTotalVolumeUsd[etfId] */\n      dup2\n      mstore\n      0x20\n      add\n      swap1\n      dup2\n      mstore\n      0x20\n      add\n      0x00\n      keccak256\n      0x00\n        /* \"hopium/etf/main/etf-factory.sol\":6949:6990  etfIdToTotalVolumeUsd[etfId] += amountUsd */\n      dup3\n      dup3\n      sload\n      tag_97\n      swap2\n      swap1\n      tag_96\n      jump\t// in\n    tag_97:\n      swap3\n      pop\n      pop\n      dup2\n      swap1\n      sstore\n      pop\n        /* \"hopium/etf/main/etf-factory.sol\":6649:6997  {... */\n      pop\n      pop\n        /* \"hopium/etf/main/etf-factory.sol\":6569:6997  function updateEtfVolume(uint256 etfId, uint256 ethAmount) public onlyEtfRouter {... */\n      pop\n      pop\n      jump\t// out\n        /* \"hopium/common/interface/imDirectory.sol\":1272:1408  function fetchFromDirectory(string memory _key) public view returns (address) {... */\n    tag_29:\n        /* \"hopium/common/interface/imDirectory.sol\":1341:1348  address */\n      0x00\n        /* \"hopium/common/interface/imDirectory.sol\":1367:1376  Directory */\n      0x07\n      0x00\n      swap1\n      sload\n      swap1\n      0x0100\n      exp\n      swap1\n      div\n      0xffffffffffffffffffffffffffffffffffffffff\n      and\n        /* \"hopium/common/interface/imDirectory.sol\":1367:1395  Directory.fetchFromDirectory */\n      0xffffffffffffffffffffffffffffffffffffffff\n      and\n      0x27262618\n        /* \"hopium/common/interface/imDirectory.sol\":1396:1400  _key */\n      dup4\n        /* \"hopium/common/interface/imDirectory.sol\":1367:1401  Directory.fetchFromDirectory(_key) */\n      mload(0x40)\n      dup3\n      0xffffffff\n      and\n      0xe0\n      shl\n      dup2\n      mstore\n      0x04\n      add\n      tag_99\n      swap2\n      swap1\n      tag_100\n      jump\t// in\n    tag_99:\n      0x20\n      mload(0x40)\n      dup1\n      dup4\n      sub\n      dup2\n      dup7\n      gas\n      staticcall\n      iszero\n      dup1\n      iszero\n      tag_102\n      jumpi\n      returndatacopy(0x00, 0x00, returndatasize)\n      revert(0x00, returndatasize)\n    tag_102:\n      pop\n      pop\n      pop\n      pop\n      mload(0x40)\n      returndatasize\n      not(0x1f)\n      0x1f\n      dup3\n      add\n      and\n      dup3\n      add\n      dup1\n      0x40\n      mstore\n      pop\n      dup2\n      add\n      swap1\n      tag_103\n      swap2\n      swap1\n      tag_104\n      jump\t// in\n    tag_103:\n        /* \"hopium/common/interface/imDirectory.sol\":1360:1401  return Directory.fetchFromDirectory(_key) */\n      swap1\n      pop\n        /* \"hopium/common/interface/imDirectory.sol\":1272:1408  function fetchFromDirectory(string memory _key) public view returns (address) {... */\n      swap2\n      swap1\n      pop\n      jump\t// out\n        /* \"hopium/etf/main/etf-factory.sol\":7982:8176  function getEtfByIdAndVault(uint256 etfId) external view returns (Etf memory etf, address vaultAddress) {... */\n    tag_34:\n        /* \"hopium/etf/main/etf-factory.sol\":8048:8062  Etf memory etf */\n      tag_105\n      tag_106\n      jump\t// in\n    tag_105:\n        /* \"hopium/etf/main/etf-factory.sol\":8064:8084  address vaultAddress */\n      0x00\n        /* \"hopium/etf/main/etf-factory.sol\":8102:8119  getEtfById(etfId) */\n      tag_108\n        /* \"hopium/etf/main/etf-factory.sol\":8113:8118  etfId */\n      dup4\n        /* \"hopium/etf/main/etf-factory.sol\":8102:8112  getEtfById */\n      tag_64\n        /* \"hopium/etf/main/etf-factory.sol\":8102:8119  getEtfById(etfId) */\n      jump\t// in\n    tag_108:\n        /* \"hopium/etf/main/etf-factory.sol\":8096:8119  etf = getEtfById(etfId) */\n      swap2\n      pop\n        /* \"hopium/etf/main/etf-factory.sol\":8144:8169  getEtfVaultAddress(etfId) */\n      tag_109\n        /* \"hopium/etf/main/etf-factory.sol\":8163:8168  etfId */\n      dup4\n        /* \"hopium/etf/main/etf-factory.sol\":8144:8162  getEtfVaultAddress */\n      tag_39\n        /* \"hopium/etf/main/etf-factory.sol\":8144:8169  getEtfVaultAddress(etfId) */\n      jump\t// in\n    tag_109:\n        /* \"hopium/etf/main/etf-factory.sol\":8129:8169  vaultAddress = getEtfVaultAddress(etfId) */\n      swap1\n      pop\n        /* \"hopium/etf/main/etf-factory.sol\":7982:8176  function getEtfByIdAndVault(uint256 etfId) external view returns (Etf memory etf, address vaultAddress) {... */\n      swap2\n      pop\n      swap2\n      jump\t// out\n        /* \"hopium/etf/main/etf-factory.sol\":7494:7700  function getEtfVaultAddress(uint256 etfId) public view returns (address vaultAddress) {... */\n    tag_39:\n        /* \"hopium/etf/main/etf-factory.sol\":7558:7578  address vaultAddress */\n      0x00\n        /* \"hopium/etf/main/etf-factory.sol\":7605:7621  etfIdToEtfVaults */\n      0x04\n        /* \"hopium/etf/main/etf-factory.sol\":7605:7628  etfIdToEtfVaults[etfId] */\n      0x00\n        /* \"hopium/etf/main/etf-factory.sol\":7622:7627  etfId */\n      dup4\n        /* \"hopium/etf/main/etf-factory.sol\":7605:7628  etfIdToEtfVaults[etfId] */\n      dup2\n      mstore\n      0x20\n      add\n      swap1\n      dup2\n      mstore\n      0x20\n      add\n      0x00\n      keccak256\n      0x00\n      swap1\n      sload\n      swap1\n      0x0100\n      exp\n      swap1\n      div\n      0xffffffffffffffffffffffffffffffffffffffff\n      and\n        /* \"hopium/etf/main/etf-factory.sol\":7590:7628  vaultAddress = etfIdToEtfVaults[etfId] */\n      swap1\n      pop\n        /* \"hopium/etf/main/etf-factory.sol\":7666:7667  0 */\n      0x00\n        /* \"hopium/etf/main/etf-factory.sol\":7642:7668  vaultAddress == address(0) */\n      0xffffffffffffffffffffffffffffffffffffffff\n      and\n        /* \"hopium/etf/main/etf-factory.sol\":7642:7654  vaultAddress */\n      dup2\n        /* \"hopium/etf/main/etf-factory.sol\":7642:7668  vaultAddress == address(0) */\n      0xffffffffffffffffffffffffffffffffffffffff\n      and\n      sub\n        /* \"hopium/etf/main/etf-factory.sol\":7638:7693  if (vaultAddress == address(0)) revert InvalidAddress() */\n      tag_111\n      jumpi\n        /* \"hopium/etf/main/etf-factory.sol\":7677:7693  InvalidAddress() */\n      mload(0x40)\n      0xe6c4247b00000000000000000000000000000000000000000000000000000000\n      dup2\n      mstore\n      0x04\n      add\n      mload(0x40)\n      dup1\n      swap2\n      sub\n      swap1\n      revert\n        /* \"hopium/etf/main/etf-factory.sol\":7638:7693  if (vaultAddress == address(0)) revert InvalidAddress() */\n    tag_111:\n        /* \"hopium/etf/main/etf-factory.sol\":7494:7700  function getEtfVaultAddress(uint256 etfId) public view returns (address vaultAddress) {... */\n      swap2\n      swap1\n      pop\n      jump\t// out\n        /* \"hopium/etf/main/etf-factory.sol\":7706:7976  function getEtfByIdAndAddresses(uint256 etfId) external view returns (Etf memory etf, address tokenAddress, address vaultAddress) {... */\n    tag_43:\n        /* \"hopium/etf/main/etf-factory.sol\":7776:7790  Etf memory etf */\n      tag_112\n      tag_106\n      jump\t// in\n    tag_112:\n        /* \"hopium/etf/main/etf-factory.sol\":7792:7812  address tokenAddress */\n      0x00\n        /* \"hopium/etf/main/etf-factory.sol\":7814:7834  address vaultAddress */\n      0x00\n        /* \"hopium/etf/main/etf-factory.sol\":7852:7869  getEtfById(etfId) */\n      tag_114\n        /* \"hopium/etf/main/etf-factory.sol\":7863:7868  etfId */\n      dup5\n        /* \"hopium/etf/main/etf-factory.sol\":7852:7862  getEtfById */\n      tag_64\n        /* \"hopium/etf/main/etf-factory.sol\":7852:7869  getEtfById(etfId) */\n      jump\t// in\n    tag_114:\n        /* \"hopium/etf/main/etf-factory.sol\":7846:7869  etf = getEtfById(etfId) */\n      swap3\n      pop\n        /* \"hopium/etf/main/etf-factory.sol\":7894:7919  getEtfTokenAddress(etfId) */\n      tag_115\n        /* \"hopium/etf/main/etf-factory.sol\":7913:7918  etfId */\n      dup5\n        /* \"hopium/etf/main/etf-factory.sol\":7894:7912  getEtfTokenAddress */\n      tag_69\n        /* \"hopium/etf/main/etf-factory.sol\":7894:7919  getEtfTokenAddress(etfId) */\n      jump\t// in\n    tag_115:\n        /* \"hopium/etf/main/etf-factory.sol\":7879:7919  tokenAddress = getEtfTokenAddress(etfId) */\n      swap2\n      pop\n        /* \"hopium/etf/main/etf-factory.sol\":7944:7969  getEtfVaultAddress(etfId) */\n      tag_116\n        /* \"hopium/etf/main/etf-factory.sol\":7963:7968  etfId */\n      dup5\n        /* \"hopium/etf/main/etf-factory.sol\":7944:7962  getEtfVaultAddress */\n      tag_39\n        /* \"hopium/etf/main/etf-factory.sol\":7944:7969  getEtfVaultAddress(etfId) */\n      jump\t// in\n    tag_116:\n        /* \"hopium/etf/main/etf-factory.sol\":7929:7969  vaultAddress = getEtfVaultAddress(etfId) */\n      swap1\n      pop\n        /* \"hopium/etf/main/etf-factory.sol\":7706:7976  function getEtfByIdAndAddresses(uint256 etfId) external view returns (Etf memory etf, address tokenAddress, address vaultAddress) {... */\n      swap2\n      swap4\n      swap1\n      swap3\n      pop\n      jump\t// out\n        /* \"hopium/common/interface/imDirectory.sol\":336:363  IDirectory public Directory */\n    tag_47:\n      0x07\n      0x00\n      swap1\n      sload\n      swap1\n      0x0100\n      exp\n      swap1\n      div\n      0xffffffffffffffffffffffffffffffffffffffff\n      and\n      dup2\n      jump\t// out\n        /* \"hopium/common/interface/imDirectory.sol\":1178:1266  function owner() public view returns (address) {... */\n    tag_51:\n        /* \"hopium/common/interface/imDirectory.sol\":1216:1223  address */\n      0x00\n        /* \"hopium/common/interface/imDirectory.sol\":1242:1251  Directory */\n      0x07\n      0x00\n      swap1\n      sload\n      swap1\n      0x0100\n      exp\n      swap1\n      div\n      0xffffffffffffffffffffffffffffffffffffffff\n      and\n        /* \"hopium/common/interface/imDirectory.sol\":1242:1257  Directory.owner */\n      0xffffffffffffffffffffffffffffffffffffffff\n      and\n      0x8da5cb5b\n        /* \"hopium/common/interface/imDirectory.sol\":1242:1259  Directory.owner() */\n      mload(0x40)\n      dup2\n      0xffffffff\n      and\n      0xe0\n      shl\n      dup2\n      mstore\n      0x04\n      add\n      0x20\n      mload(0x40)\n      dup1\n      dup4\n      sub\n      dup2\n      dup7\n      gas\n      staticcall\n      iszero\n      dup1\n      iszero\n      tag_119\n      jumpi\n      returndatacopy(0x00, 0x00, returndatasize)\n      revert(0x00, returndatasize)\n    tag_119:\n      pop\n      pop\n      pop\n      pop\n      mload(0x40)\n      returndatasize\n      not(0x1f)\n      0x1f\n      dup3\n      add\n      and\n      dup3\n      add\n      dup1\n      0x40\n      mstore\n      pop\n      dup2\n      add\n      swap1\n      tag_120\n      swap2\n      swap1\n      tag_104\n      jump\t// in\n    tag_120:\n        /* \"hopium/common/interface/imDirectory.sol\":1235:1259  return Directory.owner() */\n      swap1\n      pop\n        /* \"hopium/common/interface/imDirectory.sol\":1178:1266  function owner() public view returns (address) {... */\n      swap1\n      jump\t// out\n        /* \"hopium/common/interface/imDirectory.sol\":470:583  function changeDirectoryAddress(address _directory) external onlyOwner {... */\n    tag_56:\n        /* \"hopium/common/interface/imDirectory.sol\":1109:1118  Directory */\n      0x07\n      0x00\n      swap1\n      sload\n      swap1\n      0x0100\n      exp\n      swap1\n      div\n      0xffffffffffffffffffffffffffffffffffffffff\n      and\n        /* \"hopium/common/interface/imDirectory.sol\":1109:1124  Directory.owner */\n      0xffffffffffffffffffffffffffffffffffffffff\n      and\n      0x8da5cb5b\n        /* \"hopium/common/interface/imDirectory.sol\":1109:1126  Directory.owner() */\n      mload(0x40)\n      dup2\n      0xffffffff\n      and\n      0xe0\n      shl\n      dup2\n      mstore\n      0x04\n      add\n      0x20\n      mload(0x40)\n      dup1\n      dup4\n      sub\n      dup2\n      dup7\n      gas\n      staticcall\n      iszero\n      dup1\n      iszero\n      tag_123\n      jumpi\n      returndatacopy(0x00, 0x00, returndatasize)\n      revert(0x00, returndatasize)\n    tag_123:\n      pop\n      pop\n      pop\n      pop\n      mload(0x40)\n      returndatasize\n      not(0x1f)\n      0x1f\n      dup3\n      add\n      and\n      dup3\n      add\n      dup1\n      0x40\n      mstore\n      pop\n      dup2\n      add\n      swap1\n      tag_124\n      swap2\n      swap1\n      tag_104\n      jump\t// in\n    tag_124:\n        /* \"hopium/common/interface/imDirectory.sol\":1095:1126  msg.sender == Directory.owner() */\n      0xffffffffffffffffffffffffffffffffffffffff\n      and\n        /* \"hopium/common/interface/imDirectory.sol\":1095:1105  msg.sender */\n      caller\n        /* \"hopium/common/interface/imDirectory.sol\":1095:1126  msg.sender == Directory.owner() */\n      0xffffffffffffffffffffffffffffffffffffffff\n      and\n      eq\n        /* \"hopium/common/interface/imDirectory.sol\":1087:1154  require(msg.sender == Directory.owner(), \"Caller is not the owner\") */\n      tag_125\n      jumpi\n      mload(0x40)\n      0x08c379a000000000000000000000000000000000000000000000000000000000\n      dup2\n      mstore\n      0x04\n      add\n      tag_126\n      swap1\n      tag_127\n      jump\t// in\n    tag_126:\n      mload(0x40)\n      dup1\n      swap2\n      sub\n      swap1\n      revert\n    tag_125:\n        /* \"hopium/common/interface/imDirectory.sol\":551:576  _setDirectory(_directory) */\n      tag_129\n        /* \"hopium/common/interface/imDirectory.sol\":565:575  _directory */\n      dup2\n        /* \"hopium/common/interface/imDirectory.sol\":551:564  _setDirectory */\n      tag_130\n        /* \"hopium/common/interface/imDirectory.sol\":551:576  _setDirectory(_directory) */\n      jump\t// in\n    tag_129:\n        /* \"hopium/common/interface/imDirectory.sol\":470:583  function changeDirectoryAddress(address _directory) external onlyOwner {... */\n      pop\n      jump\t// out\n        /* \"hopium/etf/main/etf-factory.sol\":8182:8383  function getEtfTotalVolume(uint256 etfId) external view returns (uint256 volWeth, uint256 volUsd) {... */\n    tag_59:\n        /* \"hopium/etf/main/etf-factory.sol\":8247:8262  uint256 volWeth */\n      0x00\n        /* \"hopium/etf/main/etf-factory.sol\":8264:8278  uint256 volUsd */\n      0x00\n        /* \"hopium/etf/main/etf-factory.sol\":8300:8322  etfIdToTotalVolumeWeth */\n      0x05\n        /* \"hopium/etf/main/etf-factory.sol\":8300:8329  etfIdToTotalVolumeWeth[etfId] */\n      0x00\n        /* \"hopium/etf/main/etf-factory.sol\":8323:8328  etfId */\n      dup5\n        /* \"hopium/etf/main/etf-factory.sol\":8300:8329  etfIdToTotalVolumeWeth[etfId] */\n      dup2\n      mstore\n      0x20\n      add\n      swap1\n      dup2\n      mstore\n      0x20\n      add\n      0x00\n      keccak256\n      sload\n        /* \"hopium/etf/main/etf-factory.sol\":8290:8329  volWeth = etfIdToTotalVolumeWeth[etfId] */\n      swap2\n      pop\n        /* \"hopium/etf/main/etf-factory.sol\":8348:8369  etfIdToTotalVolumeUsd */\n      0x06\n        /* \"hopium/etf/main/etf-factory.sol\":8348:8376  etfIdToTotalVolumeUsd[etfId] */\n      0x00\n        /* \"hopium/etf/main/etf-factory.sol\":8370:8375  etfId */\n      dup5\n        /* \"hopium/etf/main/etf-factory.sol\":8348:8376  etfIdToTotalVolumeUsd[etfId] */\n      dup2\n      mstore\n      0x20\n      add\n      swap1\n      dup2\n      mstore\n      0x20\n      add\n      0x00\n      keccak256\n      sload\n        /* \"hopium/etf/main/etf-factory.sol\":8339:8376  volUsd = etfIdToTotalVolumeUsd[etfId] */\n      swap1\n      pop\n        /* \"hopium/etf/main/etf-factory.sol\":8182:8383  function getEtfTotalVolume(uint256 etfId) external view returns (uint256 volWeth, uint256 volUsd) {... */\n      swap2\n      pop\n      swap2\n      jump\t// out\n        /* \"hopium/etf/main/etf-factory.sol\":7049:7248  function getEtfById(uint256 etfId) public view returns (Etf memory) {... */\n    tag_64:\n        /* \"hopium/etf/main/etf-factory.sol\":7105:7115  Etf memory */\n      tag_132\n      tag_106\n      jump\t// in\n    tag_132:\n        /* \"hopium/etf/main/etf-factory.sol\":7140:7141  0 */\n      0x00\n        /* \"hopium/etf/main/etf-factory.sol\":7131:7136  etfId */\n      dup3\n        /* \"hopium/etf/main/etf-factory.sol\":7131:7141  etfId == 0 */\n      eq\n        /* \"hopium/etf/main/etf-factory.sol\":7131:7171  etfId == 0 || etfId > createdEtfs.length */\n      dup1\n      tag_134\n      jumpi\n      pop\n        /* \"hopium/etf/main/etf-factory.sol\":7153:7164  createdEtfs */\n      0x00\n        /* \"hopium/etf/main/etf-factory.sol\":7153:7171  createdEtfs.length */\n      dup1\n      sload\n      swap1\n      pop\n        /* \"hopium/etf/main/etf-factory.sol\":7145:7150  etfId */\n      dup3\n        /* \"hopium/etf/main/etf-factory.sol\":7145:7171  etfId > createdEtfs.length */\n      gt\n        /* \"hopium/etf/main/etf-factory.sol\":7131:7171  etfId == 0 || etfId > createdEtfs.length */\n    tag_134:\n        /* \"hopium/etf/main/etf-factory.sol\":7127:7191  if (etfId == 0 || etfId > createdEtfs.length) revert InvalidId() */\n      iszero\n      tag_135\n      jumpi\n        /* \"hopium/etf/main/etf-factory.sol\":7180:7191  InvalidId() */\n      mload(0x40)\n      0xdfa1a40800000000000000000000000000000000000000000000000000000000\n      dup2\n      mstore\n      0x04\n      add\n      mload(0x40)\n      dup1\n      swap2\n      sub\n      swap1\n      revert\n        /* \"hopium/etf/main/etf-factory.sol\":7127:7191  if (etfId == 0 || etfId > createdEtfs.length) revert InvalidId() */\n    tag_135:\n        /* \"hopium/etf/main/etf-factory.sol\":7208:7219  createdEtfs */\n      0x00\n        /* \"hopium/etf/main/etf-factory.sol\":7220:7240  IdIdx.idToIdx(etfId) */\n      tag_136\n        /* \"hopium/etf/main/etf-factory.sol\":7234:7239  etfId */\n      dup4\n        /* \"hopium/etf/main/etf-factory.sol\":7220:7233  IdIdx.idToIdx */\n      tag_137\n        /* \"hopium/etf/main/etf-factory.sol\":7220:7240  IdIdx.idToIdx(etfId) */\n      jump\t// in\n    tag_136:\n        /* \"hopium/etf/main/etf-factory.sol\":7208:7241  createdEtfs[IdIdx.idToIdx(etfId)] */\n      dup2\n      sload\n      dup2\n      lt\n      tag_138\n      jumpi\n      tag_139\n      tag_140\n      jump\t// in\n    tag_139:\n    tag_138:\n      swap1\n      0x00\n      mstore\n      keccak256(0x00, 0x20)\n      swap1\n      0x03\n      mul\n      add\n        /* \"hopium/etf/main/etf-factory.sol\":7201:7241  return createdEtfs[IdIdx.idToIdx(etfId)] */\n      mload(0x40)\n      dup1\n      0x60\n      add\n      0x40\n      mstore\n      swap1\n      dup2\n      0x00\n      dup3\n      add\n      dup1\n      sload\n      tag_142\n      swap1\n      tag_143\n      jump\t// in\n    tag_142:\n      dup1\n      0x1f\n      add\n      0x20\n      dup1\n      swap2\n      div\n      mul\n      0x20\n      add\n      mload(0x40)\n      swap1\n      dup2\n      add\n      0x40\n      mstore\n      dup1\n      swap3\n      swap2\n      swap1\n      dup2\n      dup2\n      mstore\n      0x20\n      add\n      dup3\n      dup1\n      sload\n      tag_144\n      swap1\n      tag_143\n      jump\t// in\n    tag_144:\n      dup1\n      iszero\n      tag_145\n      jumpi\n      dup1\n      0x1f\n      lt\n      tag_146\n      jumpi\n      0x0100\n      dup1\n      dup4\n      sload\n      div\n      mul\n      dup4\n      mstore\n      swap2\n      0x20\n      add\n      swap2\n      jump(tag_145)\n    tag_146:\n      dup3\n      add\n      swap2\n      swap1\n      0x00\n      mstore\n      keccak256(0x00, 0x20)\n      swap1\n    tag_147:\n      dup2\n      sload\n      dup2\n      mstore\n      swap1\n      0x01\n      add\n      swap1\n      0x20\n      add\n      dup1\n      dup4\n      gt\n      tag_147\n      jumpi\n      dup3\n      swap1\n      sub\n      0x1f\n      and\n      dup3\n      add\n      swap2\n    tag_145:\n      pop\n      pop\n      pop\n      pop\n      pop\n      dup2\n      mstore\n      0x20\n      add\n      0x01\n      dup3\n      add\n      dup1\n      sload\n      tag_148\n      swap1\n      tag_143\n      jump\t// in\n    tag_148:\n      dup1\n      0x1f\n      add\n      0x20\n      dup1\n      swap2\n      div\n      mul\n      0x20\n      add\n      mload(0x40)\n      swap1\n      dup2\n      add\n      0x40\n      mstore\n      dup1\n      swap3\n      swap2\n      swap1\n      dup2\n      dup2\n      mstore\n      0x20\n      add\n      dup3\n      dup1\n      sload\n      tag_149\n      swap1\n      tag_143\n      jump\t// in\n    tag_149:\n      dup1\n      iszero\n      tag_150\n      jumpi\n      dup1\n      0x1f\n      lt\n      tag_151\n      jumpi\n      0x0100\n      dup1\n      dup4\n      sload\n      div\n      mul\n      dup4\n      mstore\n      swap2\n      0x20\n      add\n      swap2\n      jump(tag_150)\n    tag_151:\n      dup3\n      add\n      swap2\n      swap1\n      0x00\n      mstore\n      keccak256(0x00, 0x20)\n      swap1\n    tag_152:\n      dup2\n      sload\n      dup2\n      mstore\n      swap1\n      0x01\n      add\n      swap1\n      0x20\n      add\n      dup1\n      dup4\n      gt\n      tag_152\n      jumpi\n      dup3\n      swap1\n      sub\n      0x1f\n      and\n      dup3\n      add\n      swap2\n    tag_150:\n      pop\n      pop\n      pop\n      pop\n      pop\n      dup2\n      mstore\n      0x20\n      add\n      0x02\n      dup3\n      add\n      dup1\n      sload\n      dup1\n      0x20\n      mul\n      0x20\n      add\n      mload(0x40)\n      swap1\n      dup2\n      add\n      0x40\n      mstore\n      dup1\n      swap3\n      swap2\n      swap1\n      dup2\n      dup2\n      mstore\n      0x20\n      add\n      0x00\n      swap1\n    tag_153:\n      dup3\n      dup3\n      lt\n      iszero\n      tag_154\n      jumpi\n      dup4\n      dup3\n      swap1\n      0x00\n      mstore\n      keccak256(0x00, 0x20)\n      add\n      mload(0x40)\n      dup1\n      0x40\n      add\n      0x40\n      mstore\n      swap1\n      dup2\n      0x00\n      dup3\n      add\n      0x00\n      swap1\n      sload\n      swap1\n      0x0100\n      exp\n      swap1\n      div\n      0xffffffffffffffffffffffffffffffffffffffff\n      and\n      0xffffffffffffffffffffffffffffffffffffffff\n      and\n      0xffffffffffffffffffffffffffffffffffffffff\n      and\n      dup2\n      mstore\n      0x20\n      add\n      0x00\n      dup3\n      add\n      0x14\n      swap1\n      sload\n      swap1\n      0x0100\n      exp\n      swap1\n      div\n      0xffff\n      and\n      0xffff\n      and\n      0xffff\n      and\n      dup2\n      mstore\n      pop\n      pop\n      dup2\n      mstore\n      0x20\n      add\n      swap1\n      0x01\n      add\n      swap1\n      jump(tag_153)\n    tag_154:\n      pop\n      pop\n      pop\n      pop\n      dup2\n      mstore\n      pop\n      pop\n      swap1\n      pop\n        /* \"hopium/etf/main/etf-factory.sol\":7049:7248  function getEtfById(uint256 etfId) public view returns (Etf memory) {... */\n      swap2\n      swap1\n      pop\n      jump\t// out\n        /* \"hopium/etf/main/etf-factory.sol\":7282:7488  function getEtfTokenAddress(uint256 etfId) public view returns (address tokenAddress) {... */\n    tag_69:\n        /* \"hopium/etf/main/etf-factory.sol\":7346:7366  address tokenAddress */\n      0x00\n        /* \"hopium/etf/main/etf-factory.sol\":7393:7409  etfIdToEtfTokens */\n      0x03\n        /* \"hopium/etf/main/etf-factory.sol\":7393:7416  etfIdToEtfTokens[etfId] */\n      0x00\n        /* \"hopium/etf/main/etf-factory.sol\":7410:7415  etfId */\n      dup4\n        /* \"hopium/etf/main/etf-factory.sol\":7393:7416  etfIdToEtfTokens[etfId] */\n      dup2\n      mstore\n      0x20\n      add\n      swap1\n      dup2\n      mstore\n      0x20\n      add\n      0x00\n      keccak256\n      0x00\n      swap1\n      sload\n      swap1\n      0x0100\n      exp\n      swap1\n      div\n      0xffffffffffffffffffffffffffffffffffffffff\n      and\n        /* \"hopium/etf/main/etf-factory.sol\":7378:7416  tokenAddress = etfIdToEtfTokens[etfId] */\n      swap1\n      pop\n        /* \"hopium/etf/main/etf-factory.sol\":7454:7455  0 */\n      0x00\n        /* \"hopium/etf/main/etf-factory.sol\":7430:7456  tokenAddress == address(0) */\n      0xffffffffffffffffffffffffffffffffffffffff\n      and\n        /* \"hopium/etf/main/etf-factory.sol\":7430:7442  tokenAddress */\n      dup2\n        /* \"hopium/etf/main/etf-factory.sol\":7430:7456  tokenAddress == address(0) */\n      0xffffffffffffffffffffffffffffffffffffffff\n      and\n      sub\n        /* \"hopium/etf/main/etf-factory.sol\":7426:7481  if (tokenAddress == address(0)) revert InvalidAddress() */\n      tag_157\n      jumpi\n        /* \"hopium/etf/main/etf-factory.sol\":7465:7481  InvalidAddress() */\n      mload(0x40)\n      0xe6c4247b00000000000000000000000000000000000000000000000000000000\n      dup2\n      mstore\n      0x04\n      add\n      mload(0x40)\n      dup1\n      swap2\n      sub\n      swap1\n      revert\n        /* \"hopium/etf/main/etf-factory.sol\":7426:7481  if (tokenAddress == address(0)) revert InvalidAddress() */\n    tag_157:\n        /* \"hopium/etf/main/etf-factory.sol\":7282:7488  function getEtfTokenAddress(uint256 etfId) public view returns (address tokenAddress) {... */\n      swap2\n      swap1\n      pop\n      jump\t// out\n        /* \"hopium/etf/main/etf-factory.sol\":5935:6505  function createEtf(Etf calldata etf) external onlyOwner returns (uint256) {... */\n    tag_74:\n        /* \"hopium/etf/main/etf-factory.sol\":6000:6007  uint256 */\n      0x00\n        /* \"hopium/common/interface/imDirectory.sol\":1109:1118  Directory */\n      0x07\n      0x00\n      swap1\n      sload\n      swap1\n      0x0100\n      exp\n      swap1\n      div\n      0xffffffffffffffffffffffffffffffffffffffff\n      and\n        /* \"hopium/common/interface/imDirectory.sol\":1109:1124  Directory.owner */\n      0xffffffffffffffffffffffffffffffffffffffff\n      and\n      0x8da5cb5b\n        /* \"hopium/common/interface/imDirectory.sol\":1109:1126  Directory.owner() */\n      mload(0x40)\n      dup2\n      0xffffffff\n      and\n      0xe0\n      shl\n      dup2\n      mstore\n      0x04\n      add\n      0x20\n      mload(0x40)\n      dup1\n      dup4\n      sub\n      dup2\n      dup7\n      gas\n      staticcall\n      iszero\n      dup1\n      iszero\n      tag_160\n      jumpi\n      returndatacopy(0x00, 0x00, returndatasize)\n      revert(0x00, returndatasize)\n    tag_160:\n      pop\n      pop\n      pop\n      pop\n      mload(0x40)\n      returndatasize\n      not(0x1f)\n      0x1f\n      dup3\n      add\n      and\n      dup3\n      add\n      dup1\n      0x40\n      mstore\n      pop\n      dup2\n      add\n      swap1\n      tag_161\n      swap2\n      swap1\n      tag_104\n      jump\t// in\n    tag_161:\n        /* \"hopium/common/interface/imDirectory.sol\":1095:1126  msg.sender == Directory.owner() */\n      0xffffffffffffffffffffffffffffffffffffffff\n      and\n        /* \"hopium/common/interface/imDirectory.sol\":1095:1105  msg.sender */\n      caller\n        /* \"hopium/common/interface/imDirectory.sol\":1095:1126  msg.sender == Directory.owner() */\n      0xffffffffffffffffffffffffffffffffffffffff\n      and\n      eq\n        /* \"hopium/common/interface/imDirectory.sol\":1087:1154  require(msg.sender == Directory.owner(), \"Caller is not the owner\") */\n      tag_162\n      jumpi\n      mload(0x40)\n      0x08c379a000000000000000000000000000000000000000000000000000000000\n      dup2\n      mstore\n      0x04\n      add\n      tag_163\n      swap1\n      tag_127\n      jump\t// in\n    tag_163:\n      mload(0x40)\n      dup1\n      swap2\n      sub\n      swap1\n      revert\n    tag_162:\n        /* \"hopium/etf/main/etf-factory.sol\":6040:6053  uint256 etfId */\n      0x00\n        /* \"hopium/etf/main/etf-factory.sol\":6056:6071  _createEtf(etf) */\n      tag_165\n        /* \"hopium/etf/main/etf-factory.sol\":6067:6070  etf */\n      dup4\n        /* \"hopium/etf/main/etf-factory.sol\":6056:6066  _createEtf */\n      tag_166\n        /* \"hopium/etf/main/etf-factory.sol\":6056:6071  _createEtf(etf) */\n      jump\t// in\n    tag_165:\n        /* \"hopium/etf/main/etf-factory.sol\":6040:6071  uint256 etfId = _createEtf(etf) */\n      swap1\n      pop\n        /* \"hopium/etf/main/etf-factory.sol\":6110:6133  address etfTokenAddress */\n      0x00\n        /* \"hopium/etf/main/etf-factory.sol\":6136:6157  getEtfTokenDeployer() */\n      tag_167\n        /* \"hopium/etf/main/etf-factory.sol\":6136:6155  getEtfTokenDeployer */\n      tag_168\n        /* \"hopium/etf/main/etf-factory.sol\":6136:6157  getEtfTokenDeployer() */\n      jump\t// in\n    tag_167:\n        /* \"hopium/etf/main/etf-factory.sol\":6136:6172  getEtfTokenDeployer().deployEtfToken */\n      0xffffffffffffffffffffffffffffffffffffffff\n      and\n      0x78f6c7c4\n        /* \"hopium/etf/main/etf-factory.sol\":6173:6178  etfId */\n      dup4\n        /* \"hopium/etf/main/etf-factory.sol\":6180:6183  etf */\n      dup7\n        /* \"hopium/etf/main/etf-factory.sol\":6180:6188  etf.name */\n      dup1\n      0x00\n      add\n      swap1\n      tag_169\n      swap2\n      swap1\n      tag_170\n      jump\t// in\n    tag_169:\n        /* \"hopium/etf/main/etf-factory.sol\":6190:6193  etf */\n      dup9\n        /* \"hopium/etf/main/etf-factory.sol\":6190:6200  etf.ticker */\n      dup1\n      0x20\n      add\n      swap1\n      tag_171\n      swap2\n      swap1\n      tag_170\n      jump\t// in\n    tag_171:\n        /* \"hopium/etf/main/etf-factory.sol\":6136:6201  getEtfTokenDeployer().deployEtfToken(etfId, etf.name, etf.ticker) */\n      mload(0x40)\n      dup7\n      0xffffffff\n      and\n      0xe0\n      shl\n      dup2\n      mstore\n      0x04\n      add\n      tag_172\n      swap6\n      swap5\n      swap4\n      swap3\n      swap2\n      swap1\n      tag_173\n      jump\t// in\n    tag_172:\n      0x20\n      mload(0x40)\n      dup1\n      dup4\n      sub\n      dup2\n      0x00\n      dup8\n      gas\n      call\n      iszero\n      dup1\n      iszero\n      tag_175\n      jumpi\n      returndatacopy(0x00, 0x00, returndatasize)\n      revert(0x00, returndatasize)\n    tag_175:\n      pop\n      pop\n      pop\n      pop\n      mload(0x40)\n      returndatasize\n      not(0x1f)\n      0x1f\n      dup3\n      add\n      and\n      dup3\n      add\n      dup1\n      0x40\n      mstore\n      pop\n      dup2\n      add\n      swap1\n      tag_176\n      swap2\n      swap1\n      tag_104\n      jump\t// in\n    tag_176:\n        /* \"hopium/etf/main/etf-factory.sol\":6110:6201  address etfTokenAddress = getEtfTokenDeployer().deployEtfToken(etfId, etf.name, etf.ticker) */\n      swap1\n      pop\n        /* \"hopium/etf/main/etf-factory.sol\":6240:6263  address etfVaultAddress */\n      0x00\n        /* \"hopium/etf/main/etf-factory.sol\":6266:6287  getEtfVaultDeployer() */\n      tag_177\n        /* \"hopium/etf/main/etf-factory.sol\":6266:6285  getEtfVaultDeployer */\n      tag_178\n        /* \"hopium/etf/main/etf-factory.sol\":6266:6287  getEtfVaultDeployer() */\n      jump\t// in\n    tag_177:\n        /* \"hopium/etf/main/etf-factory.sol\":6266:6302  getEtfVaultDeployer().deployEtfVault */\n      0xffffffffffffffffffffffffffffffffffffffff\n      and\n      0x6c4bb8bd\n        /* \"hopium/etf/main/etf-factory.sol\":6266:6304  getEtfVaultDeployer().deployEtfVault() */\n      mload(0x40)\n      dup2\n      0xffffffff\n      and\n      0xe0\n      shl\n      dup2\n      mstore\n      0x04\n      add\n      0x20\n      mload(0x40)\n      dup1\n      dup4\n      sub\n      dup2\n      0x00\n      dup8\n      gas\n      call\n      iszero\n      dup1\n      iszero\n      tag_180\n      jumpi\n      returndatacopy(0x00, 0x00, returndatasize)\n      revert(0x00, returndatasize)\n    tag_180:\n      pop\n      pop\n      pop\n      pop\n      mload(0x40)\n      returndatasize\n      not(0x1f)\n      0x1f\n      dup3\n      add\n      and\n      dup3\n      add\n      dup1\n      0x40\n      mstore\n      pop\n      dup2\n      add\n      swap1\n      tag_181\n      swap2\n      swap1\n      tag_104\n      jump\t// in\n    tag_181:\n        /* \"hopium/etf/main/etf-factory.sol\":6240:6304  address etfVaultAddress = getEtfVaultDeployer().deployEtfVault() */\n      swap1\n      pop\n        /* \"hopium/etf/main/etf-factory.sol\":6341:6356  etfTokenAddress */\n      dup2\n        /* \"hopium/etf/main/etf-factory.sol\":6315:6331  etfIdToEtfTokens */\n      0x03\n        /* \"hopium/etf/main/etf-factory.sol\":6315:6338  etfIdToEtfTokens[etfId] */\n      0x00\n        /* \"hopium/etf/main/etf-factory.sol\":6332:6337  etfId */\n      dup6\n        /* \"hopium/etf/main/etf-factory.sol\":6315:6338  etfIdToEtfTokens[etfId] */\n      dup2\n      mstore\n      0x20\n      add\n      swap1\n      dup2\n      mstore\n      0x20\n      add\n      0x00\n      keccak256\n      0x00\n        /* \"hopium/etf/main/etf-factory.sol\":6315:6356  etfIdToEtfTokens[etfId] = etfTokenAddress */\n      0x0100\n      exp\n      dup2\n      sload\n      dup2\n      0xffffffffffffffffffffffffffffffffffffffff\n      mul\n      not\n      and\n      swap1\n      dup4\n      0xffffffffffffffffffffffffffffffffffffffff\n      and\n      mul\n      or\n      swap1\n      sstore\n      pop\n        /* \"hopium/etf/main/etf-factory.sol\":6392:6407  etfVaultAddress */\n      dup1\n        /* \"hopium/etf/main/etf-factory.sol\":6366:6382  etfIdToEtfVaults */\n      0x04\n        /* \"hopium/etf/main/etf-factory.sol\":6366:6389  etfIdToEtfVaults[etfId] */\n      0x00\n        /* \"hopium/etf/main/etf-factory.sol\":6383:6388  etfId */\n      dup6\n        /* \"hopium/etf/main/etf-factory.sol\":6366:6389  etfIdToEtfVaults[etfId] */\n      dup2\n      mstore\n      0x20\n      add\n      swap1\n      dup2\n      mstore\n      0x20\n      add\n      0x00\n      keccak256\n      0x00\n        /* \"hopium/etf/main/etf-factory.sol\":6366:6407  etfIdToEtfVaults[etfId] = etfVaultAddress */\n      0x0100\n      exp\n      dup2\n      sload\n      dup2\n      0xffffffffffffffffffffffffffffffffffffffff\n      mul\n      not\n      and\n      swap1\n      dup4\n      0xffffffffffffffffffffffffffffffffffffffff\n      and\n      mul\n      or\n      swap1\n      sstore\n      pop\n        /* \"hopium/etf/main/etf-factory.sol\":6435:6440  etfId */\n      dup3\n        /* \"hopium/etf/main/etf-factory.sol\":6423:6475  EtfDeployed(etfId, etfTokenAddress, etfVaultAddress) */\n      0x714caab8b078979e833e97982712cd462ab7124c2a27401542011f30e3d47d55\n        /* \"hopium/etf/main/etf-factory.sol\":6442:6457  etfTokenAddress */\n      dup4\n        /* \"hopium/etf/main/etf-factory.sol\":6459:6474  etfVaultAddress */\n      dup4\n        /* \"hopium/etf/main/etf-factory.sol\":6423:6475  EtfDeployed(etfId, etfTokenAddress, etfVaultAddress) */\n      mload(0x40)\n      tag_182\n      swap3\n      swap2\n      swap1\n      tag_183\n      jump\t// in\n    tag_182:\n      mload(0x40)\n      dup1\n      swap2\n      sub\n      swap1\n      log2\n        /* \"hopium/etf/main/etf-factory.sol\":6493:6498  etfId */\n      dup3\n        /* \"hopium/etf/main/etf-factory.sol\":6486:6498  return etfId */\n      swap4\n      pop\n      pop\n      pop\n      pop\n        /* \"hopium/etf/main/etf-factory.sol\":5935:6505  function createEtf(Etf calldata etf) external onlyOwner returns (uint256) {... */\n      swap2\n      swap1\n      pop\n      jump\t// out\n        /* \"hopium/uniswap/interface/imUniswapOracle.sol\":218:369  function getUniswapOracle() internal view virtual returns (IUniswapOracle) {... */\n    tag_85:\n        /* \"hopium/uniswap/interface/imUniswapOracle.sol\":277:291  IUniswapOracle */\n      0x00\n        /* \"hopium/uniswap/interface/imUniswapOracle.sol\":325:361  fetchFromDirectory(\"uniswap-oracle\") */\n      tag_185\n      mload(0x40)\n      dup1\n      0x40\n      add\n      0x40\n      mstore\n      dup1\n      0x0e\n      dup2\n      mstore\n      0x20\n      add\n      0x756e69737761702d6f7261636c65000000000000000000000000000000000000\n      dup2\n      mstore\n      pop\n        /* \"hopium/uniswap/interface/imUniswapOracle.sol\":325:343  fetchFromDirectory */\n      tag_29\n        /* \"hopium/uniswap/interface/imUniswapOracle.sol\":325:361  fetchFromDirectory(\"uniswap-oracle\") */\n      jump\t// in\n    tag_185:\n        /* \"hopium/uniswap/interface/imUniswapOracle.sol\":303:362  return IUniswapOracle(fetchFromDirectory(\"uniswap-oracle\")) */\n      swap1\n      pop\n        /* \"hopium/uniswap/interface/imUniswapOracle.sol\":218:369  function getUniswapOracle() internal view virtual returns (IUniswapOracle) {... */\n      swap1\n      jump\t// out\n        /* \"hopium/common/interface/imDirectory.sol\":589:1050  function _setDirectory(address _directory) internal {... */\n    tag_130:\n        /* \"hopium/common/interface/imDirectory.sol\":681:682  0 */\n      0x00\n        /* \"hopium/common/interface/imDirectory.sol\":659:683  _directory != address(0) */\n      0xffffffffffffffffffffffffffffffffffffffff\n      and\n        /* \"hopium/common/interface/imDirectory.sol\":659:669  _directory */\n      dup2\n        /* \"hopium/common/interface/imDirectory.sol\":659:683  _directory != address(0) */\n      0xffffffffffffffffffffffffffffffffffffffff\n      and\n      sub\n        /* \"hopium/common/interface/imDirectory.sol\":651:720  require(_directory != address(0), \"Directory cannot be zero address\") */\n      tag_187\n      jumpi\n      mload(0x40)\n      0x08c379a000000000000000000000000000000000000000000000000000000000\n      dup2\n      mstore\n      0x04\n      add\n      tag_188\n      swap1\n      tag_189\n      jump\t// in\n    tag_188:\n      mload(0x40)\n      dup1\n      swap2\n      sub\n      swap1\n      revert\n    tag_187:\n        /* \"hopium/common/interface/imDirectory.sol\":763:764  0 */\n      0x00\n        /* \"hopium/common/interface/imDirectory.sol\":738:748  _directory */\n      dup2\n        /* \"hopium/common/interface/imDirectory.sol\":738:760  _directory.code.length */\n      0xffffffffffffffffffffffffffffffffffffffff\n      and\n      extcodesize\n        /* \"hopium/common/interface/imDirectory.sol\":738:764  _directory.code.length > 0 */\n      gt\n        /* \"hopium/common/interface/imDirectory.sol\":730:797  require(_directory.code.length > 0, \"Directory must be a contract\") */\n      tag_190\n      jumpi\n      mload(0x40)\n      0x08c379a000000000000000000000000000000000000000000000000000000000\n      dup2\n      mstore\n      0x04\n      add\n      tag_191\n      swap1\n      tag_192\n      jump\t// in\n    tag_191:\n      mload(0x40)\n      dup1\n      swap2\n      sub\n      swap1\n      revert\n    tag_190:\n        /* \"hopium/common/interface/imDirectory.sol\":861:871  _directory */\n      dup1\n        /* \"hopium/common/interface/imDirectory.sol\":850:878  IDirectory(_directory).owner */\n      0xffffffffffffffffffffffffffffffffffffffff\n      and\n      0x8da5cb5b\n        /* \"hopium/common/interface/imDirectory.sol\":850:880  IDirectory(_directory).owner() */\n      mload(0x40)\n      dup2\n      0xffffffff\n      and\n      0xe0\n      shl\n      dup2\n      mstore\n      0x04\n      add\n      0x20\n      mload(0x40)\n      dup1\n      dup4\n      sub\n      dup2\n      dup7\n      gas\n      staticcall\n      swap3\n      pop\n      pop\n      pop\n      dup1\n      iszero\n      tag_193\n      jumpi\n      pop\n      mload(0x40)\n      returndatasize\n      not(0x1f)\n      0x1f\n      dup3\n      add\n      and\n      dup3\n      add\n      dup1\n      0x40\n      mstore\n      pop\n      dup2\n      add\n      swap1\n      tag_194\n      swap2\n      swap1\n      tag_104\n      jump\t// in\n    tag_194:\n      0x01\n    tag_193:\n        /* \"hopium/common/interface/imDirectory.sol\":846:1044  try IDirectory(_directory).owner() returns (address) {... */\n      tag_195\n      jumpi\n        /* \"hopium/common/interface/imDirectory.sol\":979:1033  revert(\"Directory address does not implement owner()\") */\n      mload(0x40)\n      0x08c379a000000000000000000000000000000000000000000000000000000000\n      dup2\n      mstore\n      0x04\n      add\n      tag_199\n      swap1\n      tag_200\n      jump\t// in\n    tag_199:\n      mload(0x40)\n      dup1\n      swap2\n      sub\n      swap1\n      revert\n        /* \"hopium/common/interface/imDirectory.sol\":846:1044  try IDirectory(_directory).owner() returns (address) {... */\n    tag_195:\n        /* \"hopium/common/interface/imDirectory.sol\":936:946  _directory */\n      dup2\n        /* \"hopium/common/interface/imDirectory.sol\":913:922  Directory */\n      0x07\n      0x00\n        /* \"hopium/common/interface/imDirectory.sol\":913:947  Directory = IDirectory(_directory) */\n      0x0100\n      exp\n      dup2\n      sload\n      dup2\n      0xffffffffffffffffffffffffffffffffffffffff\n      mul\n      not\n      and\n      swap1\n      dup4\n      0xffffffffffffffffffffffffffffffffffffffff\n      and\n      mul\n      or\n      swap1\n      sstore\n      pop\n        /* \"hopium/common/interface/imDirectory.sol\":881:958  returns (address) {... */\n      pop\n        /* \"hopium/common/interface/imDirectory.sol\":589:1050  function _setDirectory(address _directory) internal {... */\n      pop\n      jump\t// out\n        /* \"hopium/common/lib/ididx.sol\":177:268  function idToIdx(uint256 id) internal pure returns (uint256) {... */\n    tag_137:\n        /* \"hopium/common/lib/ididx.sol\":229:236  uint256 */\n      0x00\n        /* \"hopium/common/lib/ididx.sol\":260:261  1 */\n      0x01\n        /* \"hopium/common/lib/ididx.sol\":255:257  id */\n      dup3\n        /* \"hopium/common/lib/ididx.sol\":255:261  id - 1 */\n      tag_203\n      swap2\n      swap1\n      tag_204\n      jump\t// in\n    tag_203:\n        /* \"hopium/common/lib/ididx.sol\":248:261  return id - 1 */\n      swap1\n      pop\n        /* \"hopium/common/lib/ididx.sol\":177:268  function idToIdx(uint256 id) internal pure returns (uint256) {... */\n      swap2\n      swap1\n      pop\n      jump\t// out\n        /* \"hopium/etf/main/etf-factory.sol\":4927:5658  function _createEtf(Etf calldata etf) internal returns (uint256) {... */\n    tag_166:\n        /* \"hopium/etf/main/etf-factory.sol\":4983:4990  uint256 */\n      0x00\n        /* \"hopium/etf/main/etf-factory.sol\":5039:5057  bytes32 tickerHash */\n      0x00\n        /* \"hopium/etf/main/etf-factory.sol\":5060:5087  _validateTicker(etf.ticker) */\n      tag_206\n        /* \"hopium/etf/main/etf-factory.sol\":5076:5079  etf */\n      dup4\n        /* \"hopium/etf/main/etf-factory.sol\":5076:5086  etf.ticker */\n      dup1\n      0x20\n      add\n      swap1\n      tag_207\n      swap2\n      swap1\n      tag_170\n      jump\t// in\n    tag_207:\n        /* \"hopium/etf/main/etf-factory.sol\":5060:5075  _validateTicker */\n      tag_208\n        /* \"hopium/etf/main/etf-factory.sol\":5060:5087  _validateTicker(etf.ticker) */\n      jump\t// in\n    tag_206:\n        /* \"hopium/etf/main/etf-factory.sol\":5039:5087  bytes32 tickerHash = _validateTicker(etf.ticker) */\n      swap1\n      pop\n        /* \"hopium/etf/main/etf-factory.sol\":5160:5181  Asset[] memory sorted */\n      0x00\n        /* \"hopium/etf/main/etf-factory.sol\":5184:5212  _validateAndSort(etf.assets) */\n      tag_209\n        /* \"hopium/etf/main/etf-factory.sol\":5201:5204  etf */\n      dup5\n        /* \"hopium/etf/main/etf-factory.sol\":5201:5211  etf.assets */\n      dup1\n      0x40\n      add\n      swap1\n      tag_210\n      swap2\n      swap1\n      tag_211\n      jump\t// in\n    tag_210:\n        /* \"hopium/etf/main/etf-factory.sol\":5184:5200  _validateAndSort */\n      tag_212\n        /* \"hopium/etf/main/etf-factory.sol\":5184:5212  _validateAndSort(etf.assets) */\n      jump\t// in\n    tag_209:\n        /* \"hopium/etf/main/etf-factory.sol\":5160:5212  Asset[] memory sorted = _validateAndSort(etf.assets) */\n      swap1\n      pop\n        /* \"hopium/etf/main/etf-factory.sol\":5259:5277  bytes32 assetsHash */\n      0x00\n        /* \"hopium/etf/main/etf-factory.sol\":5280:5316  _validateEtfAssetsHashUnique(sorted) */\n      tag_213\n        /* \"hopium/etf/main/etf-factory.sol\":5309:5315  sorted */\n      dup3\n        /* \"hopium/etf/main/etf-factory.sol\":5280:5308  _validateEtfAssetsHashUnique */\n      tag_214\n        /* \"hopium/etf/main/etf-factory.sol\":5280:5316  _validateEtfAssetsHashUnique(sorted) */\n      jump\t// in\n    tag_213:\n        /* \"hopium/etf/main/etf-factory.sol\":5259:5316  bytes32 assetsHash = _validateEtfAssetsHashUnique(sorted) */\n      swap1\n      pop\n        /* \"hopium/etf/main/etf-factory.sol\":5392:5405  uint256 etfId */\n      0x00\n        /* \"hopium/etf/main/etf-factory.sol\":5408:5441  IdIdx.idxToId(createdEtfs.length) */\n      tag_215\n        /* \"hopium/etf/main/etf-factory.sol\":5422:5433  createdEtfs */\n      0x00\n        /* \"hopium/etf/main/etf-factory.sol\":5422:5440  createdEtfs.length */\n      dup1\n      sload\n      swap1\n      pop\n        /* \"hopium/etf/main/etf-factory.sol\":5408:5421  IdIdx.idxToId */\n      tag_216\n        /* \"hopium/etf/main/etf-factory.sol\":5408:5441  IdIdx.idxToId(createdEtfs.length) */\n      jump\t// in\n    tag_215:\n        /* \"hopium/etf/main/etf-factory.sol\":5392:5441  uint256 etfId = IdIdx.idxToId(createdEtfs.length) */\n      swap1\n      pop\n        /* \"hopium/etf/main/etf-factory.sol\":5451:5462  createdEtfs */\n      0x00\n        /* \"hopium/etf/main/etf-factory.sol\":5468:5471  etf */\n      dup7\n        /* \"hopium/etf/main/etf-factory.sol\":5451:5472  createdEtfs.push(etf) */\n      swap1\n      dup1\n      0x01\n      dup2\n      sload\n      add\n      dup1\n      dup3\n      sstore\n      dup1\n      swap2\n      pop\n      pop\n      0x01\n      swap1\n      sub\n      swap1\n      0x00\n      mstore\n      keccak256(0x00, 0x20)\n      swap1\n      0x03\n      mul\n      add\n      0x00\n      swap1\n      swap2\n      swap1\n      swap2\n      swap1\n      swap2\n      pop\n      dup2\n      dup2\n      tag_218\n      swap2\n      swap1\n      tag_219\n      jump\t// in\n    tag_218:\n      pop\n      pop\n        /* \"hopium/etf/main/etf-factory.sol\":5544:5549  etfId */\n      dup1\n        /* \"hopium/etf/main/etf-factory.sol\":5512:5529  etfTickerHashToId */\n      0x01\n        /* \"hopium/etf/main/etf-factory.sol\":5512:5541  etfTickerHashToId[tickerHash] */\n      0x00\n        /* \"hopium/etf/main/etf-factory.sol\":5530:5540  tickerHash */\n      dup7\n        /* \"hopium/etf/main/etf-factory.sol\":5512:5541  etfTickerHashToId[tickerHash] */\n      dup2\n      mstore\n      0x20\n      add\n      swap1\n      dup2\n      mstore\n      0x20\n      add\n      0x00\n      keccak256\n        /* \"hopium/etf/main/etf-factory.sol\":5512:5549  etfTickerHashToId[tickerHash] = etfId */\n      dup2\n      swap1\n      sstore\n      pop\n        /* \"hopium/etf/main/etf-factory.sol\":5591:5596  etfId */\n      dup1\n        /* \"hopium/etf/main/etf-factory.sol\":5559:5576  etfAssetsHashToId */\n      0x02\n        /* \"hopium/etf/main/etf-factory.sol\":5559:5588  etfAssetsHashToId[assetsHash] */\n      0x00\n        /* \"hopium/etf/main/etf-factory.sol\":5577:5587  assetsHash */\n      dup5\n        /* \"hopium/etf/main/etf-factory.sol\":5559:5588  etfAssetsHashToId[assetsHash] */\n      dup2\n      mstore\n      0x20\n      add\n      swap1\n      dup2\n      mstore\n      0x20\n      add\n      0x00\n      keccak256\n        /* \"hopium/etf/main/etf-factory.sol\":5559:5596  etfAssetsHashToId[assetsHash] = etfId */\n      dup2\n      swap1\n      sstore\n      pop\n        /* \"hopium/etf/main/etf-factory.sol\":5623:5628  etfId */\n      dup1\n        /* \"hopium/etf/main/etf-factory.sol\":5612:5629  EtfCreated(etfId) */\n      0x8320d61eb752c02271b492bb71ec93150c4ef1f5b9826a5d7c93b055ec00ac4e\n      mload(0x40)\n      mload(0x40)\n      dup1\n      swap2\n      sub\n      swap1\n      log2\n        /* \"hopium/etf/main/etf-factory.sol\":5646:5651  etfId */\n      dup1\n        /* \"hopium/etf/main/etf-factory.sol\":5639:5651  return etfId */\n      swap5\n      pop\n      pop\n      pop\n      pop\n      pop\n        /* \"hopium/etf/main/etf-factory.sol\":4927:5658  function _createEtf(Etf calldata etf) internal returns (uint256) {... */\n      swap2\n      swap1\n      pop\n      jump\t// out\n        /* \"hopium/etf/interface/imEtfTokenDeployer.sol\":317:481  function getEtfTokenDeployer() internal view virtual returns (IEtfTokenDeployer) {... */\n    tag_168:\n        /* \"hopium/etf/interface/imEtfTokenDeployer.sol\":379:396  IEtfTokenDeployer */\n      0x00\n        /* \"hopium/etf/interface/imEtfTokenDeployer.sol\":433:473  fetchFromDirectory(\"etf-token-deployer\") */\n      tag_221\n      mload(0x40)\n      dup1\n      0x40\n      add\n      0x40\n      mstore\n      dup1\n      0x12\n      dup2\n      mstore\n      0x20\n      add\n      0x6574662d746f6b656e2d6465706c6f7965720000000000000000000000000000\n      dup2\n      mstore\n      pop\n        /* \"hopium/etf/interface/imEtfTokenDeployer.sol\":433:451  fetchFromDirectory */\n      tag_29\n        /* \"hopium/etf/interface/imEtfTokenDeployer.sol\":433:473  fetchFromDirectory(\"etf-token-deployer\") */\n      jump\t// in\n    tag_221:\n        /* \"hopium/etf/interface/imEtfTokenDeployer.sol\":408:474  return IEtfTokenDeployer(fetchFromDirectory(\"etf-token-deployer\")) */\n      swap1\n      pop\n        /* \"hopium/etf/interface/imEtfTokenDeployer.sol\":317:481  function getEtfTokenDeployer() internal view virtual returns (IEtfTokenDeployer) {... */\n      swap1\n      jump\t// out\n        /* \"hopium/etf/interface/imEtfVaultDeployer.sol\":257:421  function getEtfVaultDeployer() internal view virtual returns (IEtfVaultDeployer) {... */\n    tag_178:\n        /* \"hopium/etf/interface/imEtfVaultDeployer.sol\":319:336  IEtfVaultDeployer */\n      0x00\n        /* \"hopium/etf/interface/imEtfVaultDeployer.sol\":373:413  fetchFromDirectory(\"etf-vault-deployer\") */\n      tag_223\n      mload(0x40)\n      dup1\n      0x40\n      add\n      0x40\n      mstore\n      dup1\n      0x12\n      dup2\n      mstore\n      0x20\n      add\n      0x6574662d7661756c742d6465706c6f7965720000000000000000000000000000\n      dup2\n      mstore\n      pop\n        /* \"hopium/etf/interface/imEtfVaultDeployer.sol\":373:391  fetchFromDirectory */\n      tag_29\n        /* \"hopium/etf/interface/imEtfVaultDeployer.sol\":373:413  fetchFromDirectory(\"etf-vault-deployer\") */\n      jump\t// in\n    tag_223:\n        /* \"hopium/etf/interface/imEtfVaultDeployer.sol\":348:414  return IEtfVaultDeployer(fetchFromDirectory(\"etf-vault-deployer\")) */\n      swap1\n      pop\n        /* \"hopium/etf/interface/imEtfVaultDeployer.sol\":257:421  function getEtfVaultDeployer() internal view virtual returns (IEtfVaultDeployer) {... */\n      swap1\n      jump\t// out\n        /* \"hopium/etf/main/etf-factory.sol\":2654:2926  function _validateTicker(string calldata ticker) internal view returns (bytes32 tickerHash) {... */\n    tag_208:\n        /* \"hopium/etf/main/etf-factory.sol\":2726:2744  bytes32 tickerHash */\n      0x00\n        /* \"hopium/etf/main/etf-factory.sol\":2784:2785  0 */\n      0x00\n        /* \"hopium/etf/main/etf-factory.sol\":2766:2772  ticker */\n      dup4\n      dup4\n        /* \"hopium/etf/main/etf-factory.sol\":2760:2780  bytes(ticker).length */\n      swap1\n      pop\n        /* \"hopium/etf/main/etf-factory.sol\":2760:2785  bytes(ticker).length == 0 */\n      sub\n        /* \"hopium/etf/main/etf-factory.sol\":2756:2807  if (bytes(ticker).length == 0) revert EmptyTicker() */\n      tag_225\n      jumpi\n        /* \"hopium/etf/main/etf-factory.sol\":2794:2807  EmptyTicker() */\n      mload(0x40)\n      0x653b1be600000000000000000000000000000000000000000000000000000000\n      dup2\n      mstore\n      0x04\n      add\n      mload(0x40)\n      dup1\n      swap2\n      sub\n      swap1\n      revert\n        /* \"hopium/etf/main/etf-factory.sol\":2756:2807  if (bytes(ticker).length == 0) revert EmptyTicker() */\n    tag_225:\n        /* \"hopium/etf/main/etf-factory.sol\":2830:2848  _tickerKey(ticker) */\n      tag_226\n        /* \"hopium/etf/main/etf-factory.sol\":2841:2847  ticker */\n      dup4\n      dup4\n        /* \"hopium/etf/main/etf-factory.sol\":2830:2840  _tickerKey */\n      tag_227\n        /* \"hopium/etf/main/etf-factory.sol\":2830:2848  _tickerKey(ticker) */\n      jump\t// in\n    tag_226:\n        /* \"hopium/etf/main/etf-factory.sol\":2817:2848  tickerHash = _tickerKey(ticker) */\n      swap1\n      pop\n        /* \"hopium/etf/main/etf-factory.sol\":2895:2896  0 */\n      0x00\n        /* \"hopium/etf/main/etf-factory.sol\":2862:2879  etfTickerHashToId */\n      0x01\n        /* \"hopium/etf/main/etf-factory.sol\":2862:2891  etfTickerHashToId[tickerHash] */\n      0x00\n        /* \"hopium/etf/main/etf-factory.sol\":2880:2890  tickerHash */\n      dup4\n        /* \"hopium/etf/main/etf-factory.sol\":2862:2891  etfTickerHashToId[tickerHash] */\n      dup2\n      mstore\n      0x20\n      add\n      swap1\n      dup2\n      mstore\n      0x20\n      add\n      0x00\n      keccak256\n      sload\n        /* \"hopium/etf/main/etf-factory.sol\":2862:2896  etfTickerHashToId[tickerHash] != 0 */\n      eq\n        /* \"hopium/etf/main/etf-factory.sol\":2858:2919  if (etfTickerHashToId[tickerHash] != 0) revert TickerExists() */\n      tag_228\n      jumpi\n        /* \"hopium/etf/main/etf-factory.sol\":2905:2919  TickerExists() */\n      mload(0x40)\n      0xc498761200000000000000000000000000000000000000000000000000000000\n      dup2\n      mstore\n      0x04\n      add\n      mload(0x40)\n      dup1\n      swap2\n      sub\n      swap1\n      revert\n        /* \"hopium/etf/main/etf-factory.sol\":2858:2919  if (etfTickerHashToId[tickerHash] != 0) revert TickerExists() */\n    tag_228:\n        /* \"hopium/etf/main/etf-factory.sol\":2654:2926  function _validateTicker(string calldata ticker) internal view returns (bytes32 tickerHash) {... */\n      swap3\n      swap2\n      pop\n      pop\n      jump\t// out\n        /* \"hopium/etf/main/etf-factory.sol\":3184:4524  function _validateAndSort(Asset[] calldata assets)... */\n    tag_212:\n        /* \"hopium/etf/main/etf-factory.sol\":3269:3290  Asset[] memory sorted */\n      0x60\n        /* \"hopium/etf/main/etf-factory.sol\":3306:3315  uint256 n */\n      0x00\n        /* \"hopium/etf/main/etf-factory.sol\":3318:3324  assets */\n      dup4\n      dup4\n        /* \"hopium/etf/main/etf-factory.sol\":3318:3331  assets.length */\n      swap1\n      pop\n        /* \"hopium/etf/main/etf-factory.sol\":3306:3331  uint256 n = assets.length */\n      swap1\n      pop\n        /* \"hopium/etf/main/etf-factory.sol\":3350:3351  0 */\n      0x00\n        /* \"hopium/etf/main/etf-factory.sol\":3345:3346  n */\n      dup2\n        /* \"hopium/etf/main/etf-factory.sol\":3345:3351  n == 0 */\n      sub\n        /* \"hopium/etf/main/etf-factory.sol\":3341:3370  if (n == 0) revert NoAssets() */\n      tag_230\n      jumpi\n        /* \"hopium/etf/main/etf-factory.sol\":3360:3370  NoAssets() */\n      mload(0x40)\n      0x5373815f00000000000000000000000000000000000000000000000000000000\n      dup2\n      mstore\n      0x04\n      add\n      mload(0x40)\n      dup1\n      swap2\n      sub\n      swap1\n      revert\n        /* \"hopium/etf/main/etf-factory.sol\":3341:3370  if (n == 0) revert NoAssets() */\n    tag_230:\n        /* \"hopium/etf/main/etf-factory.sol\":3442:3443  n */\n      dup1\n        /* \"hopium/etf/main/etf-factory.sol\":3430:3444  new Asset[](n) */\n      0xffffffffffffffff\n      dup2\n      gt\n      iszero\n      tag_231\n      jumpi\n      tag_232\n      tag_233\n      jump\t// in\n    tag_232:\n    tag_231:\n      mload(0x40)\n      swap1\n      dup1\n      dup3\n      mstore\n      dup1\n      0x20\n      mul\n      0x20\n      add\n      dup3\n      add\n      0x40\n      mstore\n      dup1\n      iszero\n      tag_234\n      jumpi\n      dup2\n      0x20\n      add\n    tag_235:\n      tag_236\n      tag_237\n      jump\t// in\n    tag_236:\n      dup2\n      mstore\n      0x20\n      add\n      swap1\n      0x01\n      swap1\n      sub\n      swap1\n      dup2\n      tag_235\n      jumpi\n      swap1\n      pop\n    tag_234:\n      pop\n        /* \"hopium/etf/main/etf-factory.sol\":3421:3444  sorted = new Asset[](n) */\n      swap2\n      pop\n        /* \"hopium/etf/main/etf-factory.sol\":3459:3468  uint256 i */\n      0x00\n        /* \"hopium/etf/main/etf-factory.sol\":3471:3472  0 */\n      0x00\n        /* \"hopium/etf/main/etf-factory.sol\":3459:3472  uint256 i = 0 */\n      swap1\n      pop\n        /* \"hopium/etf/main/etf-factory.sol\":3454:4064  for (uint256 i = 0; i < n; ) {... */\n    tag_238:\n        /* \"hopium/etf/main/etf-factory.sol\":3478:3479  n */\n      dup2\n        /* \"hopium/etf/main/etf-factory.sol\":3474:3475  i */\n      dup2\n        /* \"hopium/etf/main/etf-factory.sol\":3474:3479  i < n */\n      lt\n        /* \"hopium/etf/main/etf-factory.sol\":3454:4064  for (uint256 i = 0; i < n; ) {... */\n      iszero\n      tag_239\n      jumpi\n        /* \"hopium/etf/main/etf-factory.sol\":3497:3513  Asset calldata a */\n      calldatasize\n        /* \"hopium/etf/main/etf-factory.sol\":3516:3522  assets */\n      dup6\n      dup6\n        /* \"hopium/etf/main/etf-factory.sol\":3523:3524  i */\n      dup4\n        /* \"hopium/etf/main/etf-factory.sol\":3516:3525  assets[i] */\n      dup2\n      dup2\n      lt\n      tag_241\n      jumpi\n      tag_242\n      tag_140\n      jump\t// in\n    tag_242:\n    tag_241:\n      swap1\n      pop\n      0x40\n      mul\n      add\n        /* \"hopium/etf/main/etf-factory.sol\":3497:3525  Asset calldata a = assets[i] */\n      swap1\n      pop\n        /* \"hopium/etf/main/etf-factory.sol\":3539:3552  address token */\n      0x00\n        /* \"hopium/etf/main/etf-factory.sol\":3555:3556  a */\n      dup2\n        /* \"hopium/etf/main/etf-factory.sol\":3555:3569  a.tokenAddress */\n      0x00\n      add\n      0x20\n      dup2\n      add\n      swap1\n      tag_243\n      swap2\n      swap1\n      tag_55\n      jump\t// in\n    tag_243:\n        /* \"hopium/etf/main/etf-factory.sol\":3539:3569  address token = a.tokenAddress */\n      swap1\n      pop\n        /* \"hopium/etf/main/etf-factory.sol\":3583:3592  uint256 w */\n      0x00\n        /* \"hopium/etf/main/etf-factory.sol\":3595:3596  a */\n      dup3\n        /* \"hopium/etf/main/etf-factory.sol\":3595:3607  a.weightBips */\n      0x20\n      add\n      0x20\n      dup2\n      add\n      swap1\n      tag_244\n      swap2\n      swap1\n      tag_245\n      jump\t// in\n    tag_244:\n        /* \"hopium/etf/main/etf-factory.sol\":3583:3607  uint256 w = a.weightBips */\n      0xffff\n      and\n      swap1\n      pop\n        /* \"hopium/etf/main/etf-factory.sol\":3635:3647  WETH_ADDRESS */\n      immutable(\"0xb7020dd003fcd4d96af1507ff4dc7e2c1158f23ad0bacfdf3455869cf9fb4898\")\n        /* \"hopium/etf/main/etf-factory.sol\":3626:3647  token != WETH_ADDRESS */\n      0xffffffffffffffffffffffffffffffffffffffff\n      and\n        /* \"hopium/etf/main/etf-factory.sol\":3626:3631  token */\n      dup3\n        /* \"hopium/etf/main/etf-factory.sol\":3626:3647  token != WETH_ADDRESS */\n      0xffffffffffffffffffffffffffffffffffffffff\n      and\n      eq\n        /* \"hopium/etf/main/etf-factory.sol\":3622:3829  if (token != WETH_ADDRESS) {... */\n      tag_246\n      jumpi\n        /* \"hopium/etf/main/etf-factory.sol\":3667:3683  Pool memory pool */\n      0x00\n        /* \"hopium/etf/main/etf-factory.sol\":3686:3701  getPoolFinder() */\n      tag_247\n        /* \"hopium/etf/main/etf-factory.sol\":3686:3699  getPoolFinder */\n      tag_248\n        /* \"hopium/etf/main/etf-factory.sol\":3686:3701  getPoolFinder() */\n      jump\t// in\n    tag_247:\n        /* \"hopium/etf/main/etf-factory.sol\":3686:3733  getPoolFinder().getBestWethPoolAndUpdateIfStale */\n      0xffffffffffffffffffffffffffffffffffffffff\n      and\n      0x6425f09e\n        /* \"hopium/etf/main/etf-factory.sol\":3734:3739  token */\n      dup5\n        /* \"hopium/etf/main/etf-factory.sol\":3686:3740  getPoolFinder().getBestWethPoolAndUpdateIfStale(token) */\n      mload(0x40)\n      dup3\n      0xffffffff\n      and\n      0xe0\n      shl\n      dup2\n      mstore\n      0x04\n      add\n      tag_249\n      swap2\n      swap1\n      tag_21\n      jump\t// in\n    tag_249:\n      0x80\n      mload(0x40)\n      dup1\n      dup4\n      sub\n      dup2\n      0x00\n      dup8\n      gas\n      call\n      iszero\n      dup1\n      iszero\n      tag_251\n      jumpi\n      returndatacopy(0x00, 0x00, returndatasize)\n      revert(0x00, returndatasize)\n    tag_251:\n      pop\n      pop\n      pop\n      pop\n      mload(0x40)\n      returndatasize\n      not(0x1f)\n      0x1f\n      dup3\n      add\n      and\n      dup3\n      add\n      dup1\n      0x40\n      mstore\n      pop\n      dup2\n      add\n      swap1\n      tag_252\n      swap2\n      swap1\n      tag_253\n      jump\t// in\n    tag_252:\n        /* \"hopium/etf/main/etf-factory.sol\":3667:3740  Pool memory pool = getPoolFinder().getBestWethPoolAndUpdateIfStale(token) */\n      swap1\n      pop\n        /* \"hopium/etf/main/etf-factory.sol\":3790:3791  0 */\n      0x00\n        /* \"hopium/etf/main/etf-factory.sol\":3762:3792  pool.poolAddress == address(0) */\n      0xffffffffffffffffffffffffffffffffffffffff\n      and\n        /* \"hopium/etf/main/etf-factory.sol\":3762:3766  pool */\n      dup2\n        /* \"hopium/etf/main/etf-factory.sol\":3762:3778  pool.poolAddress */\n      0x00\n      add\n      mload\n        /* \"hopium/etf/main/etf-factory.sol\":3762:3792  pool.poolAddress == address(0) */\n      0xffffffffffffffffffffffffffffffffffffffff\n      and\n      sub\n        /* \"hopium/etf/main/etf-factory.sol\":3758:3814  if (pool.poolAddress == address(0)) revert NoPoolFound() */\n      tag_254\n      jumpi\n        /* \"hopium/etf/main/etf-factory.sol\":3801:3814  NoPoolFound() */\n      mload(0x40)\n      0x791c2fed00000000000000000000000000000000000000000000000000000000\n      dup2\n      mstore\n      0x04\n      add\n      mload(0x40)\n      dup1\n      swap2\n      sub\n      swap1\n      revert\n        /* \"hopium/etf/main/etf-factory.sol\":3758:3814  if (pool.poolAddress == address(0)) revert NoPoolFound() */\n    tag_254:\n        /* \"hopium/etf/main/etf-factory.sol\":3649:3829  {... */\n      pop\n        /* \"hopium/etf/main/etf-factory.sol\":3622:3829  if (token != WETH_ADDRESS) {... */\n    tag_246:\n        /* \"hopium/etf/main/etf-factory.sol\":3864:3865  0 */\n      0x00\n        /* \"hopium/etf/main/etf-factory.sol\":3847:3866  token == address(0) */\n      0xffffffffffffffffffffffffffffffffffffffff\n      and\n        /* \"hopium/etf/main/etf-factory.sol\":3847:3852  token */\n      dup3\n        /* \"hopium/etf/main/etf-factory.sol\":3847:3866  token == address(0) */\n      0xffffffffffffffffffffffffffffffffffffffff\n      and\n      sub\n        /* \"hopium/etf/main/etf-factory.sol\":3843:3886  if (token == address(0)) revert ZeroToken() */\n      tag_255\n      jumpi\n        /* \"hopium/etf/main/etf-factory.sol\":3875:3886  ZeroToken() */\n      mload(0x40)\n      0xad1991f500000000000000000000000000000000000000000000000000000000\n      dup2\n      mstore\n      0x04\n      add\n      mload(0x40)\n      dup1\n      swap2\n      sub\n      swap1\n      revert\n        /* \"hopium/etf/main/etf-factory.sol\":3843:3886  if (token == address(0)) revert ZeroToken() */\n    tag_255:\n        /* \"hopium/etf/main/etf-factory.sol\":3909:3910  0 */\n      0x00\n        /* \"hopium/etf/main/etf-factory.sol\":3904:3905  w */\n      dup2\n        /* \"hopium/etf/main/etf-factory.sol\":3904:3910  w == 0 */\n      sub\n        /* \"hopium/etf/main/etf-factory.sol\":3900:3931  if (w == 0) revert ZeroWeight() */\n      tag_256\n      jumpi\n        /* \"hopium/etf/main/etf-factory.sol\":3919:3931  ZeroWeight() */\n      mload(0x40)\n      0x19a2a9bd00000000000000000000000000000000000000000000000000000000\n      dup2\n      mstore\n      0x04\n      add\n      mload(0x40)\n      dup1\n      swap2\n      sub\n      swap1\n      revert\n        /* \"hopium/etf/main/etf-factory.sol\":3900:3931  if (w == 0) revert ZeroWeight() */\n    tag_256:\n        /* \"hopium/common/types/bips.sol\":97:103  10_000 */\n      0x2710\n        /* \"hopium/etf/main/etf-factory.sol\":3949:3950  w */\n      dup2\n        /* \"hopium/etf/main/etf-factory.sol\":3949:3973  w > HUNDRED_PERCENT_BIPS */\n      gt\n        /* \"hopium/etf/main/etf-factory.sol\":3945:3994  if (w > HUNDRED_PERCENT_BIPS) revert OverWeight() */\n      iszero\n      tag_257\n      jumpi\n        /* \"hopium/etf/main/etf-factory.sol\":3982:3994  OverWeight() */\n      mload(0x40)\n      0xc663343d00000000000000000000000000000000000000000000000000000000\n      dup2\n      mstore\n      0x04\n      add\n      mload(0x40)\n      dup1\n      swap2\n      sub\n      swap1\n      revert\n        /* \"hopium/etf/main/etf-factory.sol\":3945:3994  if (w > HUNDRED_PERCENT_BIPS) revert OverWeight() */\n    tag_257:\n        /* \"hopium/etf/main/etf-factory.sol\":4021:4022  a */\n      dup3\n        /* \"hopium/etf/main/etf-factory.sol\":4009:4022  sorted[i] = a */\n      dup1\n      calldatasize\n      sub\n      dup2\n      add\n      swap1\n      tag_258\n      swap2\n      swap1\n      tag_259\n      jump\t// in\n    tag_258:\n        /* \"hopium/etf/main/etf-factory.sol\":4009:4015  sorted */\n      dup7\n        /* \"hopium/etf/main/etf-factory.sol\":4016:4017  i */\n      dup6\n        /* \"hopium/etf/main/etf-factory.sol\":4009:4018  sorted[i] */\n      dup2\n      mload\n      dup2\n      lt\n      tag_260\n      jumpi\n      tag_261\n      tag_140\n      jump\t// in\n    tag_261:\n    tag_260:\n      0x20\n      mul\n      0x20\n      add\n      add\n        /* \"hopium/etf/main/etf-factory.sol\":4009:4022  sorted[i] = a */\n      dup2\n      swap1\n      mstore\n      pop\n        /* \"hopium/etf/main/etf-factory.sol\":4048:4051  ++i */\n      dup4\n      0x01\n      add\n      swap4\n      pop\n        /* \"hopium/etf/main/etf-factory.sol\":3483:4064  {... */\n      pop\n      pop\n      pop\n        /* \"hopium/etf/main/etf-factory.sol\":3454:4064  for (uint256 i = 0; i < n; ) {... */\n      jump(tag_238)\n    tag_239:\n      pop\n        /* \"hopium/etf/main/etf-factory.sol\":4099:4121  _insertionSort(sorted) */\n      tag_262\n        /* \"hopium/etf/main/etf-factory.sol\":4114:4120  sorted */\n      dup3\n        /* \"hopium/etf/main/etf-factory.sol\":4099:4113  _insertionSort */\n      tag_263\n        /* \"hopium/etf/main/etf-factory.sol\":4099:4121  _insertionSort(sorted) */\n      jump\t// in\n    tag_262:\n        /* \"hopium/etf/main/etf-factory.sol\":4187:4198  uint256 sum */\n      0x00\n        /* \"hopium/etf/main/etf-factory.sol\":4213:4222  uint256 i */\n      0x00\n        /* \"hopium/etf/main/etf-factory.sol\":4225:4226  0 */\n      0x00\n        /* \"hopium/etf/main/etf-factory.sol\":4213:4226  uint256 i = 0 */\n      swap1\n      pop\n        /* \"hopium/etf/main/etf-factory.sol\":4208:4456  for (uint256 i = 0; i < n; ) {... */\n    tag_264:\n        /* \"hopium/etf/main/etf-factory.sol\":4232:4233  n */\n      dup3\n        /* \"hopium/etf/main/etf-factory.sol\":4228:4229  i */\n      dup2\n        /* \"hopium/etf/main/etf-factory.sol\":4228:4233  i < n */\n      lt\n        /* \"hopium/etf/main/etf-factory.sol\":4208:4456  for (uint256 i = 0; i < n; ) {... */\n      iszero\n      tag_265\n      jumpi\n        /* \"hopium/etf/main/etf-factory.sol\":4259:4260  0 */\n      0x00\n        /* \"hopium/etf/main/etf-factory.sol\":4255:4256  i */\n      dup2\n        /* \"hopium/etf/main/etf-factory.sol\":4255:4260  i > 0 */\n      gt\n        /* \"hopium/etf/main/etf-factory.sol\":4255:4316  i > 0 && sorted[i - 1].tokenAddress == sorted[i].tokenAddress */\n      dup1\n      iszero\n      tag_267\n      jumpi\n      pop\n        /* \"hopium/etf/main/etf-factory.sol\":4294:4300  sorted */\n      dup4\n        /* \"hopium/etf/main/etf-factory.sol\":4301:4302  i */\n      dup2\n        /* \"hopium/etf/main/etf-factory.sol\":4294:4303  sorted[i] */\n      dup2\n      mload\n      dup2\n      lt\n      tag_268\n      jumpi\n      tag_269\n      tag_140\n      jump\t// in\n    tag_269:\n    tag_268:\n      0x20\n      mul\n      0x20\n      add\n      add\n      mload\n        /* \"hopium/etf/main/etf-factory.sol\":4294:4316  sorted[i].tokenAddress */\n      0x00\n      add\n      mload\n        /* \"hopium/etf/main/etf-factory.sol\":4264:4316  sorted[i - 1].tokenAddress == sorted[i].tokenAddress */\n      0xffffffffffffffffffffffffffffffffffffffff\n      and\n        /* \"hopium/etf/main/etf-factory.sol\":4264:4270  sorted */\n      dup5\n        /* \"hopium/etf/main/etf-factory.sol\":4275:4276  1 */\n      0x01\n        /* \"hopium/etf/main/etf-factory.sol\":4271:4272  i */\n      dup4\n        /* \"hopium/etf/main/etf-factory.sol\":4271:4276  i - 1 */\n      tag_270\n      swap2\n      swap1\n      tag_204\n      jump\t// in\n    tag_270:\n        /* \"hopium/etf/main/etf-factory.sol\":4264:4277  sorted[i - 1] */\n      dup2\n      mload\n      dup2\n      lt\n      tag_271\n      jumpi\n      tag_272\n      tag_140\n      jump\t// in\n    tag_272:\n    tag_271:\n      0x20\n      mul\n      0x20\n      add\n      add\n      mload\n        /* \"hopium/etf/main/etf-factory.sol\":4264:4290  sorted[i - 1].tokenAddress */\n      0x00\n      add\n      mload\n        /* \"hopium/etf/main/etf-factory.sol\":4264:4316  sorted[i - 1].tokenAddress == sorted[i].tokenAddress */\n      0xffffffffffffffffffffffffffffffffffffffff\n      and\n      eq\n        /* \"hopium/etf/main/etf-factory.sol\":4255:4316  i > 0 && sorted[i - 1].tokenAddress == sorted[i].tokenAddress */\n    tag_267:\n        /* \"hopium/etf/main/etf-factory.sol\":4251:4374  if (i > 0 && sorted[i - 1].tokenAddress == sorted[i].tokenAddress) {... */\n      iszero\n      tag_273\n      jumpi\n        /* \"hopium/etf/main/etf-factory.sol\":4343:4359  DuplicateToken() */\n      mload(0x40)\n      0x464e3f6a00000000000000000000000000000000000000000000000000000000\n      dup2\n      mstore\n      0x04\n      add\n      mload(0x40)\n      dup1\n      swap2\n      sub\n      swap1\n      revert\n        /* \"hopium/etf/main/etf-factory.sol\":4251:4374  if (i > 0 && sorted[i - 1].tokenAddress == sorted[i].tokenAddress) {... */\n    tag_273:\n        /* \"hopium/etf/main/etf-factory.sol\":4394:4400  sorted */\n      dup4\n        /* \"hopium/etf/main/etf-factory.sol\":4401:4402  i */\n      dup2\n        /* \"hopium/etf/main/etf-factory.sol\":4394:4403  sorted[i] */\n      dup2\n      mload\n      dup2\n      lt\n      tag_274\n      jumpi\n      tag_275\n      tag_140\n      jump\t// in\n    tag_275:\n    tag_274:\n      0x20\n      mul\n      0x20\n      add\n      add\n      mload\n        /* \"hopium/etf/main/etf-factory.sol\":4394:4414  sorted[i].weightBips */\n      0x20\n      add\n      mload\n        /* \"hopium/etf/main/etf-factory.sol\":4387:4414  sum += sorted[i].weightBips */\n      0xffff\n      and\n      dup3\n      tag_276\n      swap2\n      swap1\n      tag_96\n      jump\t// in\n    tag_276:\n      swap2\n      pop\n        /* \"hopium/etf/main/etf-factory.sol\":4440:4443  ++i */\n      dup1\n      0x01\n      add\n      swap1\n      pop\n        /* \"hopium/etf/main/etf-factory.sol\":4208:4456  for (uint256 i = 0; i < n; ) {... */\n      jump(tag_264)\n    tag_265:\n      pop\n        /* \"hopium/common/types/bips.sol\":97:103  10_000 */\n      0x2710\n        /* \"hopium/etf/main/etf-factory.sol\":4469:4472  sum */\n      dup2\n        /* \"hopium/etf/main/etf-factory.sol\":4469:4496  sum != HUNDRED_PERCENT_BIPS */\n      eq\n        /* \"hopium/etf/main/etf-factory.sol\":4465:4517  if (sum != HUNDRED_PERCENT_BIPS) revert NotHundred() */\n      tag_277\n      jumpi\n        /* \"hopium/etf/main/etf-factory.sol\":4505:4517  NotHundred() */\n      mload(0x40)\n      0xda6957ea00000000000000000000000000000000000000000000000000000000\n      dup2\n      mstore\n      0x04\n      add\n      mload(0x40)\n      dup1\n      swap2\n      sub\n      swap1\n      revert\n        /* \"hopium/etf/main/etf-factory.sol\":4465:4517  if (sum != HUNDRED_PERCENT_BIPS) revert NotHundred() */\n    tag_277:\n        /* \"hopium/etf/main/etf-factory.sol\":3296:4524  {... */\n      pop\n      pop\n        /* \"hopium/etf/main/etf-factory.sol\":3184:4524  function _validateAndSort(Asset[] calldata assets)... */\n      swap3\n      swap2\n      pop\n      pop\n      jump\t// out\n        /* \"hopium/etf/main/etf-factory.sol\":4622:4868  function _validateEtfAssetsHashUnique(Asset[] memory sorted) internal view returns (bytes32 etfAssetsHash) {... */\n    tag_214:\n        /* \"hopium/etf/main/etf-factory.sol\":4706:4727  bytes32 etfAssetsHash */\n      0x00\n        /* \"hopium/etf/main/etf-factory.sol\":4755:4790  _computeEtfAssetsHashSorted(sorted) */\n      tag_279\n        /* \"hopium/etf/main/etf-factory.sol\":4783:4789  sorted */\n      dup3\n        /* \"hopium/etf/main/etf-factory.sol\":4755:4782  _computeEtfAssetsHashSorted */\n      tag_280\n        /* \"hopium/etf/main/etf-factory.sol\":4755:4790  _computeEtfAssetsHashSorted(sorted) */\n      jump\t// in\n    tag_279:\n        /* \"hopium/etf/main/etf-factory.sol\":4739:4790  etfAssetsHash = _computeEtfAssetsHashSorted(sorted) */\n      swap1\n      pop\n        /* \"hopium/etf/main/etf-factory.sol\":4840:4841  0 */\n      0x00\n        /* \"hopium/etf/main/etf-factory.sol\":4804:4821  etfAssetsHashToId */\n      0x02\n        /* \"hopium/etf/main/etf-factory.sol\":4804:4836  etfAssetsHashToId[etfAssetsHash] */\n      0x00\n        /* \"hopium/etf/main/etf-factory.sol\":4822:4835  etfAssetsHash */\n      dup4\n        /* \"hopium/etf/main/etf-factory.sol\":4804:4836  etfAssetsHashToId[etfAssetsHash] */\n      dup2\n      mstore\n      0x20\n      add\n      swap1\n      dup2\n      mstore\n      0x20\n      add\n      0x00\n      keccak256\n      sload\n        /* \"hopium/etf/main/etf-factory.sol\":4804:4841  etfAssetsHashToId[etfAssetsHash] != 0 */\n      eq\n        /* \"hopium/etf/main/etf-factory.sol\":4800:4861  if (etfAssetsHashToId[etfAssetsHash] != 0) revert EtfExists() */\n      tag_281\n      jumpi\n        /* \"hopium/etf/main/etf-factory.sol\":4850:4861  EtfExists() */\n      mload(0x40)\n      0x985be99000000000000000000000000000000000000000000000000000000000\n      dup2\n      mstore\n      0x04\n      add\n      mload(0x40)\n      dup1\n      swap2\n      sub\n      swap1\n      revert\n        /* \"hopium/etf/main/etf-factory.sol\":4800:4861  if (etfAssetsHashToId[etfAssetsHash] != 0) revert EtfExists() */\n    tag_281:\n        /* \"hopium/etf/main/etf-factory.sol\":4622:4868  function _validateEtfAssetsHashUnique(Asset[] memory sorted) internal view returns (bytes32 etfAssetsHash) {... */\n      swap2\n      swap1\n      pop\n      jump\t// out\n        /* \"hopium/common/lib/ididx.sol\":78:171  function idxToId(uint256 idx) internal pure returns (uint256) {... */\n    tag_216:\n        /* \"hopium/common/lib/ididx.sol\":131:138  uint256 */\n      0x00\n        /* \"hopium/common/lib/ididx.sol\":163:164  1 */\n      0x01\n        /* \"hopium/common/lib/ididx.sol\":157:160  idx */\n      dup3\n        /* \"hopium/common/lib/ididx.sol\":157:164  idx + 1 */\n      tag_283\n      swap2\n      swap1\n      tag_96\n      jump\t// in\n    tag_283:\n        /* \"hopium/common/lib/ididx.sol\":150:164  return idx + 1 */\n      swap1\n      pop\n        /* \"hopium/common/lib/ididx.sol\":78:171  function idxToId(uint256 idx) internal pure returns (uint256) {... */\n      swap2\n      swap1\n      pop\n      jump\t// out\n        /* \"hopium/etf/main/etf-factory.sol\":2405:2519  function _tickerKey(string calldata t) internal pure returns (bytes32) {... */\n    tag_227:\n        /* \"hopium/etf/main/etf-factory.sol\":2467:2474  bytes32 */\n      0x00\n        /* \"hopium/etf/main/etf-factory.sol\":2509:2510  t */\n      dup3\n      dup3\n        /* \"hopium/etf/main/etf-factory.sol\":2493:2512  keccak256(bytes(t)) */\n      mload(0x40)\n      tag_285\n      swap3\n      swap2\n      swap1\n      tag_286\n      jump\t// in\n    tag_285:\n      mload(0x40)\n      dup1\n      swap2\n      sub\n      swap1\n      keccak256\n        /* \"hopium/etf/main/etf-factory.sol\":2486:2512  return keccak256(bytes(t)) */\n      swap1\n      pop\n        /* \"hopium/etf/main/etf-factory.sol\":2405:2519  function _tickerKey(string calldata t) internal pure returns (bytes32) {... */\n      swap3\n      swap2\n      pop\n      pop\n      jump\t// out\n        /* \"hopium/uniswap/interface/imPoolFinder.sol\":425:564  function getPoolFinder() internal view virtual returns (IPoolFinder) {... */\n    tag_248:\n        /* \"hopium/uniswap/interface/imPoolFinder.sol\":481:492  IPoolFinder */\n      0x00\n        /* \"hopium/uniswap/interface/imPoolFinder.sol\":523:556  fetchFromDirectory(\"pool-finder\") */\n      tag_288\n      mload(0x40)\n      dup1\n      0x40\n      add\n      0x40\n      mstore\n      dup1\n      0x0b\n      dup2\n      mstore\n      0x20\n      add\n      0x706f6f6c2d66696e646572000000000000000000000000000000000000000000\n      dup2\n      mstore\n      pop\n        /* \"hopium/uniswap/interface/imPoolFinder.sol\":523:541  fetchFromDirectory */\n      tag_29\n        /* \"hopium/uniswap/interface/imPoolFinder.sol\":523:556  fetchFromDirectory(\"pool-finder\") */\n      jump\t// in\n    tag_288:\n        /* \"hopium/uniswap/interface/imPoolFinder.sol\":504:557  return IPoolFinder(fetchFromDirectory(\"pool-finder\")) */\n      swap1\n      pop\n        /* \"hopium/uniswap/interface/imPoolFinder.sol\":425:564  function getPoolFinder() internal view virtual returns (IPoolFinder) {... */\n      swap1\n      jump\t// out\n        /* \"hopium/etf/main/etf-factory.sol\":1367:2037  function _insertionSort(Asset[] memory a) internal pure {... */\n    tag_263:\n        /* \"hopium/etf/main/etf-factory.sol\":1433:1442  uint256 n */\n      0x00\n        /* \"hopium/etf/main/etf-factory.sol\":1445:1446  a */\n      dup2\n        /* \"hopium/etf/main/etf-factory.sol\":1445:1453  a.length */\n      mload\n        /* \"hopium/etf/main/etf-factory.sol\":1433:1453  uint256 n = a.length */\n      swap1\n      pop\n        /* \"hopium/etf/main/etf-factory.sol\":1468:1477  uint256 i */\n      0x00\n        /* \"hopium/etf/main/etf-factory.sol\":1480:1481  1 */\n      0x01\n        /* \"hopium/etf/main/etf-factory.sol\":1468:1481  uint256 i = 1 */\n      swap1\n      pop\n        /* \"hopium/etf/main/etf-factory.sol\":1463:2031  for (uint256 i = 1; i < n; ) {... */\n    tag_290:\n        /* \"hopium/etf/main/etf-factory.sol\":1487:1488  n */\n      dup2\n        /* \"hopium/etf/main/etf-factory.sol\":1483:1484  i */\n      dup2\n        /* \"hopium/etf/main/etf-factory.sol\":1483:1488  i < n */\n      lt\n        /* \"hopium/etf/main/etf-factory.sol\":1463:2031  for (uint256 i = 1; i < n; ) {... */\n      iszero\n      tag_291\n      jumpi\n        /* \"hopium/etf/main/etf-factory.sol\":1506:1522  Asset memory key */\n      0x00\n        /* \"hopium/etf/main/etf-factory.sol\":1525:1526  a */\n      dup4\n        /* \"hopium/etf/main/etf-factory.sol\":1527:1528  i */\n      dup3\n        /* \"hopium/etf/main/etf-factory.sol\":1525:1529  a[i] */\n      dup2\n      mload\n      dup2\n      lt\n      tag_293\n      jumpi\n      tag_294\n      tag_140\n      jump\t// in\n    tag_294:\n    tag_293:\n      0x20\n      mul\n      0x20\n      add\n      add\n      mload\n        /* \"hopium/etf/main/etf-factory.sol\":1506:1529  Asset memory key = a[i] */\n      swap1\n      pop\n        /* \"hopium/etf/main/etf-factory.sol\":1543:1552  uint256 j */\n      0x00\n        /* \"hopium/etf/main/etf-factory.sol\":1555:1556  i */\n      dup3\n        /* \"hopium/etf/main/etf-factory.sol\":1543:1556  uint256 j = i */\n      swap1\n      pop\n        /* \"hopium/etf/main/etf-factory.sol\":1570:1966  while (j > 0) {... */\n    tag_295:\n        /* \"hopium/etf/main/etf-factory.sol\":1581:1582  0 */\n      0x00\n        /* \"hopium/etf/main/etf-factory.sol\":1577:1578  j */\n      dup2\n        /* \"hopium/etf/main/etf-factory.sol\":1577:1582  j > 0 */\n      gt\n        /* \"hopium/etf/main/etf-factory.sol\":1570:1966  while (j > 0) {... */\n      iszero\n      tag_296\n      jumpi\n        /* \"hopium/etf/main/etf-factory.sol\":1602:1619  Asset memory prev */\n      0x00\n        /* \"hopium/etf/main/etf-factory.sol\":1622:1623  a */\n      dup6\n        /* \"hopium/etf/main/etf-factory.sol\":1628:1629  1 */\n      0x01\n        /* \"hopium/etf/main/etf-factory.sol\":1624:1625  j */\n      dup4\n        /* \"hopium/etf/main/etf-factory.sol\":1624:1629  j - 1 */\n      tag_297\n      swap2\n      swap1\n      tag_204\n      jump\t// in\n    tag_297:\n        /* \"hopium/etf/main/etf-factory.sol\":1622:1630  a[j - 1] */\n      dup2\n      mload\n      dup2\n      lt\n      tag_298\n      jumpi\n      tag_299\n      tag_140\n      jump\t// in\n    tag_299:\n    tag_298:\n      0x20\n      mul\n      0x20\n      add\n      add\n      mload\n        /* \"hopium/etf/main/etf-factory.sol\":1602:1630  Asset memory prev = a[j - 1] */\n      swap1\n      pop\n        /* \"hopium/etf/main/etf-factory.sol\":1724:1727  key */\n      dup3\n        /* \"hopium/etf/main/etf-factory.sol\":1724:1740  key.tokenAddress */\n      0x00\n      add\n      mload\n        /* \"hopium/etf/main/etf-factory.sol\":1704:1740  prev.tokenAddress < key.tokenAddress */\n      0xffffffffffffffffffffffffffffffffffffffff\n      and\n        /* \"hopium/etf/main/etf-factory.sol\":1704:1708  prev */\n      dup2\n        /* \"hopium/etf/main/etf-factory.sol\":1704:1721  prev.tokenAddress */\n      0x00\n      add\n      mload\n        /* \"hopium/etf/main/etf-factory.sol\":1704:1740  prev.tokenAddress < key.tokenAddress */\n      0xffffffffffffffffffffffffffffffffffffffff\n      and\n      lt\n        /* \"hopium/etf/main/etf-factory.sol\":1704:1840  prev.tokenAddress < key.tokenAddress || ... */\n      dup1\n      tag_300\n      jumpi\n      pop\n        /* \"hopium/etf/main/etf-factory.sol\":1786:1789  key */\n      dup3\n        /* \"hopium/etf/main/etf-factory.sol\":1786:1802  key.tokenAddress */\n      0x00\n      add\n      mload\n        /* \"hopium/etf/main/etf-factory.sol\":1765:1802  prev.tokenAddress == key.tokenAddress */\n      0xffffffffffffffffffffffffffffffffffffffff\n      and\n        /* \"hopium/etf/main/etf-factory.sol\":1765:1769  prev */\n      dup2\n        /* \"hopium/etf/main/etf-factory.sol\":1765:1782  prev.tokenAddress */\n      0x00\n      add\n      mload\n        /* \"hopium/etf/main/etf-factory.sol\":1765:1802  prev.tokenAddress == key.tokenAddress */\n      0xffffffffffffffffffffffffffffffffffffffff\n      and\n      eq\n        /* \"hopium/etf/main/etf-factory.sol\":1765:1839  prev.tokenAddress == key.tokenAddress && prev.weightBips <= key.weightBips */\n      dup1\n      iszero\n      tag_301\n      jumpi\n      pop\n        /* \"hopium/etf/main/etf-factory.sol\":1825:1828  key */\n      dup3\n        /* \"hopium/etf/main/etf-factory.sol\":1825:1839  key.weightBips */\n      0x20\n      add\n      mload\n        /* \"hopium/etf/main/etf-factory.sol\":1806:1839  prev.weightBips <= key.weightBips */\n      0xffff\n      and\n        /* \"hopium/etf/main/etf-factory.sol\":1806:1810  prev */\n      dup2\n        /* \"hopium/etf/main/etf-factory.sol\":1806:1821  prev.weightBips */\n      0x20\n      add\n      mload\n        /* \"hopium/etf/main/etf-factory.sol\":1806:1839  prev.weightBips <= key.weightBips */\n      0xffff\n      and\n      gt\n      iszero\n        /* \"hopium/etf/main/etf-factory.sol\":1765:1839  prev.tokenAddress == key.tokenAddress && prev.weightBips <= key.weightBips */\n    tag_301:\n        /* \"hopium/etf/main/etf-factory.sol\":1704:1840  prev.tokenAddress < key.tokenAddress || ... */\n    tag_300:\n        /* \"hopium/etf/main/etf-factory.sol\":1700:1888  if (prev.tokenAddress < key.tokenAddress || ... */\n      iszero\n      tag_302\n      jumpi\n        /* \"hopium/etf/main/etf-factory.sol\":1864:1869  break */\n      pop\n      jump(tag_296)\n        /* \"hopium/etf/main/etf-factory.sol\":1700:1888  if (prev.tokenAddress < key.tokenAddress || ... */\n    tag_302:\n        /* \"hopium/etf/main/etf-factory.sol\":1912:1916  prev */\n      dup1\n        /* \"hopium/etf/main/etf-factory.sol\":1905:1906  a */\n      dup7\n        /* \"hopium/etf/main/etf-factory.sol\":1907:1908  j */\n      dup4\n        /* \"hopium/etf/main/etf-factory.sol\":1905:1909  a[j] */\n      dup2\n      mload\n      dup2\n      lt\n      tag_303\n      jumpi\n      tag_304\n      tag_140\n      jump\t// in\n    tag_304:\n    tag_303:\n      0x20\n      mul\n      0x20\n      add\n      add\n        /* \"hopium/etf/main/etf-factory.sol\":1905:1916  a[j] = prev */\n      dup2\n      swap1\n      mstore\n      pop\n        /* \"hopium/etf/main/etf-factory.sol\":1946:1949  --j */\n      dup2\n      0x01\n      swap1\n      sub\n      swap2\n      pop\n        /* \"hopium/etf/main/etf-factory.sol\":1584:1966  {... */\n      pop\n        /* \"hopium/etf/main/etf-factory.sol\":1570:1966  while (j > 0) {... */\n      jump(tag_295)\n    tag_296:\n        /* \"hopium/etf/main/etf-factory.sol\":1986:1989  key */\n      dup2\n        /* \"hopium/etf/main/etf-factory.sol\":1979:1980  a */\n      dup6\n        /* \"hopium/etf/main/etf-factory.sol\":1981:1982  j */\n      dup3\n        /* \"hopium/etf/main/etf-factory.sol\":1979:1983  a[j] */\n      dup2\n      mload\n      dup2\n      lt\n      tag_305\n      jumpi\n      tag_306\n      tag_140\n      jump\t// in\n    tag_306:\n    tag_305:\n      0x20\n      mul\n      0x20\n      add\n      add\n        /* \"hopium/etf/main/etf-factory.sol\":1979:1989  a[j] = key */\n      dup2\n      swap1\n      mstore\n      pop\n        /* \"hopium/etf/main/etf-factory.sol\":2015:2018  ++i */\n      dup3\n      0x01\n      add\n      swap3\n      pop\n        /* \"hopium/etf/main/etf-factory.sol\":1492:2031  {... */\n      pop\n      pop\n        /* \"hopium/etf/main/etf-factory.sol\":1463:2031  for (uint256 i = 1; i < n; ) {... */\n      jump(tag_290)\n    tag_291:\n      pop\n        /* \"hopium/etf/main/etf-factory.sol\":1423:2037  {... */\n      pop\n        /* \"hopium/etf/main/etf-factory.sol\":1367:2037  function _insertionSort(Asset[] memory a) internal pure {... */\n      pop\n      jump\t// out\n        /* \"hopium/etf/main/etf-factory.sol\":2135:2356  function _computeEtfAssetsHashSorted(Asset[] memory sorted) internal pure returns (bytes32) {... */\n    tag_280:\n        /* \"hopium/etf/main/etf-factory.sol\":2218:2225  bytes32 */\n      0x00\n        /* \"hopium/etf/main/etf-factory.sol\":2341:2347  sorted */\n      dup2\n        /* \"hopium/etf/main/etf-factory.sol\":2330:2348  abi.encode(sorted) */\n      add(0x20, mload(0x40))\n      tag_308\n      swap2\n      swap1\n      tag_309\n      jump\t// in\n    tag_308:\n      mload(0x40)\n      0x20\n      dup2\n      dup4\n      sub\n      sub\n      dup2\n      mstore\n      swap1\n      0x40\n      mstore\n        /* \"hopium/etf/main/etf-factory.sol\":2320:2349  keccak256(abi.encode(sorted)) */\n      dup1\n      mload\n      swap1\n      0x20\n      add\n      keccak256\n        /* \"hopium/etf/main/etf-factory.sol\":2313:2349  return keccak256(abi.encode(sorted)) */\n      swap1\n      pop\n        /* \"hopium/etf/main/etf-factory.sol\":2135:2356  function _computeEtfAssetsHashSorted(Asset[] memory sorted) internal pure returns (bytes32) {... */\n      swap2\n      swap1\n      pop\n      jump\t// out\n    tag_106:\n      mload(0x40)\n      dup1\n      0x60\n      add\n      0x40\n      mstore\n      dup1\n      0x60\n      dup2\n      mstore\n      0x20\n      add\n      0x60\n      dup2\n      mstore\n      0x20\n      add\n      0x60\n      dup2\n      mstore\n      pop\n      swap1\n      jump\t// out\n    tag_237:\n      mload(0x40)\n      dup1\n      0x40\n      add\n      0x40\n      mstore\n      dup1\n      and(0xffffffffffffffffffffffffffffffffffffffff, 0x00)\n      dup2\n      mstore\n      0x20\n      add\n      and(0xffff, 0x00)\n      dup2\n      mstore\n      pop\n      swap1\n      jump\t// out\n        /* \"#utility.yul\":7:133   */\n    tag_310:\n        /* \"#utility.yul\":44:51   */\n      0x00\n        /* \"#utility.yul\":84:126   */\n      0xffffffffffffffffffffffffffffffffffffffff\n        /* \"#utility.yul\":77:82   */\n      dup3\n        /* \"#utility.yul\":73:127   */\n      and\n        /* \"#utility.yul\":62:127   */\n      swap1\n      pop\n        /* \"#utility.yul\":7:133   */\n      swap2\n      swap1\n      pop\n      jump\t// out\n        /* \"#utility.yul\":139:235   */\n    tag_311:\n        /* \"#utility.yul\":176:183   */\n      0x00\n        /* \"#utility.yul\":205:229   */\n      tag_442\n        /* \"#utility.yul\":223:228   */\n      dup3\n        /* \"#utility.yul\":205:229   */\n      tag_310\n      jump\t// in\n    tag_442:\n        /* \"#utility.yul\":194:229   */\n      swap1\n      pop\n        /* \"#utility.yul\":139:235   */\n      swap2\n      swap1\n      pop\n      jump\t// out\n        /* \"#utility.yul\":241:359   */\n    tag_312:\n        /* \"#utility.yul\":328:352   */\n      tag_444\n        /* \"#utility.yul\":346:351   */\n      dup2\n        /* \"#utility.yul\":328:352   */\n      tag_311\n      jump\t// in\n    tag_444:\n        /* \"#utility.yul\":323:326   */\n      dup3\n        /* \"#utility.yul\":316:353   */\n      mstore\n        /* \"#utility.yul\":241:359   */\n      pop\n      pop\n      jump\t// out\n        /* \"#utility.yul\":365:587   */\n    tag_21:\n        /* \"#utility.yul\":458:462   */\n      0x00\n        /* \"#utility.yul\":496:498   */\n      0x20\n        /* \"#utility.yul\":485:494   */\n      dup3\n        /* \"#utility.yul\":481:499   */\n      add\n        /* \"#utility.yul\":473:499   */\n      swap1\n      pop\n        /* \"#utility.yul\":509:580   */\n      tag_446\n        /* \"#utility.yul\":577:578   */\n      0x00\n        /* \"#utility.yul\":566:575   */\n      dup4\n        /* \"#utility.yul\":562:579   */\n      add\n        /* \"#utility.yul\":553:559   */\n      dup5\n        /* \"#utility.yul\":509:580   */\n      tag_312\n      jump\t// in\n    tag_446:\n        /* \"#utility.yul\":365:587   */\n      swap3\n      swap2\n      pop\n      pop\n      jump\t// out\n        /* \"#utility.yul\":593:668   */\n    tag_313:\n        /* \"#utility.yul\":626:632   */\n      0x00\n        /* \"#utility.yul\":659:661   */\n      0x40\n        /* \"#utility.yul\":653:662   */\n      mload\n        /* \"#utility.yul\":643:662   */\n      swap1\n      pop\n        /* \"#utility.yul\":593:668   */\n      swap1\n      jump\t// out\n        /* \"#utility.yul\":674:791   */\n    tag_314:\n        /* \"#utility.yul\":783:784   */\n      0x00\n        /* \"#utility.yul\":780:781   */\n      0x00\n        /* \"#utility.yul\":773:785   */\n      revert\n        /* \"#utility.yul\":797:914   */\n    tag_315:\n        /* \"#utility.yul\":906:907   */\n      0x00\n        /* \"#utility.yul\":903:904   */\n      0x00\n        /* \"#utility.yul\":896:908   */\n      revert\n        /* \"#utility.yul\":920:997   */\n    tag_316:\n        /* \"#utility.yul\":957:964   */\n      0x00\n        /* \"#utility.yul\":986:991   */\n      dup2\n        /* \"#utility.yul\":975:991   */\n      swap1\n      pop\n        /* \"#utility.yul\":920:997   */\n      swap2\n      swap1\n      pop\n      jump\t// out\n        /* \"#utility.yul\":1003:1125   */\n    tag_317:\n        /* \"#utility.yul\":1076:1100   */\n      tag_452\n        /* \"#utility.yul\":1094:1099   */\n      dup2\n        /* \"#utility.yul\":1076:1100   */\n      tag_316\n      jump\t// in\n    tag_452:\n        /* \"#utility.yul\":1069:1074   */\n      dup2\n        /* \"#utility.yul\":1066:1101   */\n      eq\n        /* \"#utility.yul\":1056:1119   */\n      tag_453\n      jumpi\n        /* \"#utility.yul\":1115:1116   */\n      0x00\n        /* \"#utility.yul\":1112:1113   */\n      0x00\n        /* \"#utility.yul\":1105:1117   */\n      revert\n        /* \"#utility.yul\":1056:1119   */\n    tag_453:\n        /* \"#utility.yul\":1003:1125   */\n      pop\n      jump\t// out\n        /* \"#utility.yul\":1131:1270   */\n    tag_318:\n        /* \"#utility.yul\":1177:1182   */\n      0x00\n        /* \"#utility.yul\":1215:1221   */\n      dup2\n        /* \"#utility.yul\":1202:1222   */\n      calldataload\n        /* \"#utility.yul\":1193:1222   */\n      swap1\n      pop\n        /* \"#utility.yul\":1231:1264   */\n      tag_455\n        /* \"#utility.yul\":1258:1263   */\n      dup2\n        /* \"#utility.yul\":1231:1264   */\n      tag_317\n      jump\t// in\n    tag_455:\n        /* \"#utility.yul\":1131:1270   */\n      swap3\n      swap2\n      pop\n      pop\n      jump\t// out\n        /* \"#utility.yul\":1276:1750   */\n    tag_24:\n        /* \"#utility.yul\":1344:1350   */\n      0x00\n        /* \"#utility.yul\":1352:1358   */\n      0x00\n        /* \"#utility.yul\":1401:1403   */\n      0x40\n        /* \"#utility.yul\":1389:1398   */\n      dup4\n        /* \"#utility.yul\":1380:1387   */\n      dup6\n        /* \"#utility.yul\":1376:1399   */\n      sub\n        /* \"#utility.yul\":1372:1404   */\n      slt\n        /* \"#utility.yul\":1369:1488   */\n      iszero\n      tag_457\n      jumpi\n        /* \"#utility.yul\":1407:1486   */\n      tag_458\n      tag_314\n      jump\t// in\n    tag_458:\n        /* \"#utility.yul\":1369:1488   */\n    tag_457:\n        /* \"#utility.yul\":1527:1528   */\n      0x00\n        /* \"#utility.yul\":1552:1605   */\n      tag_459\n        /* \"#utility.yul\":1597:1604   */\n      dup6\n        /* \"#utility.yul\":1588:1594   */\n      dup3\n        /* \"#utility.yul\":1577:1586   */\n      dup7\n        /* \"#utility.yul\":1573:1595   */\n      add\n        /* \"#utility.yul\":1552:1605   */\n      tag_318\n      jump\t// in\n    tag_459:\n        /* \"#utility.yul\":1542:1605   */\n      swap3\n      pop\n        /* \"#utility.yul\":1498:1615   */\n      pop\n        /* \"#utility.yul\":1654:1656   */\n      0x20\n        /* \"#utility.yul\":1680:1733   */\n      tag_460\n        /* \"#utility.yul\":1725:1732   */\n      dup6\n        /* \"#utility.yul\":1716:1722   */\n      dup3\n        /* \"#utility.yul\":1705:1714   */\n      dup7\n        /* \"#utility.yul\":1701:1723   */\n      add\n        /* \"#utility.yul\":1680:1733   */\n      tag_318\n      jump\t// in\n    tag_460:\n        /* \"#utility.yul\":1670:1733   */\n      swap2\n      pop\n        /* \"#utility.yul\":1625:1743   */\n      pop\n        /* \"#utility.yul\":1276:1750   */\n      swap3\n      pop\n      swap3\n      swap1\n      pop\n      jump\t// out\n        /* \"#utility.yul\":1756:1873   */\n    tag_319:\n        /* \"#utility.yul\":1865:1866   */\n      0x00\n        /* \"#utility.yul\":1862:1863   */\n      0x00\n        /* \"#utility.yul\":1855:1867   */\n      revert\n        /* \"#utility.yul\":1879:1996   */\n    tag_320:\n        /* \"#utility.yul\":1988:1989   */\n      0x00\n        /* \"#utility.yul\":1985:1986   */\n      0x00\n        /* \"#utility.yul\":1978:1990   */\n      revert\n        /* \"#utility.yul\":2002:2104   */\n    tag_321:\n        /* \"#utility.yul\":2043:2049   */\n      0x00\n        /* \"#utility.yul\":2094:2096   */\n      0x1f\n        /* \"#utility.yul\":2090:2097   */\n      not\n        /* \"#utility.yul\":2085:2087   */\n      0x1f\n        /* \"#utility.yul\":2078:2083   */\n      dup4\n        /* \"#utility.yul\":2074:2088   */\n      add\n        /* \"#utility.yul\":2070:2098   */\n      and\n        /* \"#utility.yul\":2060:2098   */\n      swap1\n      pop\n        /* \"#utility.yul\":2002:2104   */\n      swap2\n      swap1\n      pop\n      jump\t// out\n        /* \"#utility.yul\":2110:2290   */\n    tag_233:\n        /* \"#utility.yul\":2158:2235   */\n      0x4e487b7100000000000000000000000000000000000000000000000000000000\n        /* \"#utility.yul\":2155:2156   */\n      0x00\n        /* \"#utility.yul\":2148:2236   */\n      mstore\n        /* \"#utility.yul\":2255:2259   */\n      0x41\n        /* \"#utility.yul\":2252:2253   */\n      0x04\n        /* \"#utility.yul\":2245:2260   */\n      mstore\n        /* \"#utility.yul\":2279:2283   */\n      0x24\n        /* \"#utility.yul\":2276:2277   */\n      0x00\n        /* \"#utility.yul\":2269:2284   */\n      revert\n        /* \"#utility.yul\":2296:2577   */\n    tag_322:\n        /* \"#utility.yul\":2379:2406   */\n      tag_466\n        /* \"#utility.yul\":2401:2405   */\n      dup3\n        /* \"#utility.yul\":2379:2406   */\n      tag_321\n      jump\t// in\n    tag_466:\n        /* \"#utility.yul\":2371:2377   */\n      dup2\n        /* \"#utility.yul\":2367:2407   */\n      add\n        /* \"#utility.yul\":2509:2515   */\n      dup2\n        /* \"#utility.yul\":2497:2507   */\n      dup2\n        /* \"#utility.yul\":2494:2516   */\n      lt\n        /* \"#utility.yul\":2473:2491   */\n      0xffffffffffffffff\n        /* \"#utility.yul\":2461:2471   */\n      dup3\n        /* \"#utility.yul\":2458:2492   */\n      gt\n        /* \"#utility.yul\":2455:2517   */\n      or\n        /* \"#utility.yul\":2452:2540   */\n      iszero\n      tag_467\n      jumpi\n        /* \"#utility.yul\":2520:2538   */\n      tag_468\n      tag_233\n      jump\t// in\n    tag_468:\n        /* \"#utility.yul\":2452:2540   */\n    tag_467:\n        /* \"#utility.yul\":2560:2570   */\n      dup1\n        /* \"#utility.yul\":2556:2558   */\n      0x40\n        /* \"#utility.yul\":2549:2571   */\n      mstore\n        /* \"#utility.yul\":2339:2577   */\n      pop\n        /* \"#utility.yul\":2296:2577   */\n      pop\n      pop\n      jump\t// out\n        /* \"#utility.yul\":2583:2712   */\n    tag_323:\n        /* \"#utility.yul\":2617:2623   */\n      0x00\n        /* \"#utility.yul\":2644:2664   */\n      tag_470\n      tag_313\n      jump\t// in\n    tag_470:\n        /* \"#utility.yul\":2634:2664   */\n      swap1\n      pop\n        /* \"#utility.yul\":2673:2706   */\n      tag_471\n        /* \"#utility.yul\":2701:2705   */\n      dup3\n        /* \"#utility.yul\":2693:2699   */\n      dup3\n        /* \"#utility.yul\":2673:2706   */\n      tag_322\n      jump\t// in\n    tag_471:\n        /* \"#utility.yul\":2583:2712   */\n      swap2\n      swap1\n      pop\n      jump\t// out\n        /* \"#utility.yul\":2718:3026   */\n    tag_324:\n        /* \"#utility.yul\":2780:2784   */\n      0x00\n        /* \"#utility.yul\":2870:2888   */\n      0xffffffffffffffff\n        /* \"#utility.yul\":2862:2868   */\n      dup3\n        /* \"#utility.yul\":2859:2889   */\n      gt\n        /* \"#utility.yul\":2856:2912   */\n      iszero\n      tag_473\n      jumpi\n        /* \"#utility.yul\":2892:2910   */\n      tag_474\n      tag_233\n      jump\t// in\n    tag_474:\n        /* \"#utility.yul\":2856:2912   */\n    tag_473:\n        /* \"#utility.yul\":2930:2959   */\n      tag_475\n        /* \"#utility.yul\":2952:2958   */\n      dup3\n        /* \"#utility.yul\":2930:2959   */\n      tag_321\n      jump\t// in\n    tag_475:\n        /* \"#utility.yul\":2922:2959   */\n      swap1\n      pop\n        /* \"#utility.yul\":3014:3018   */\n      0x20\n        /* \"#utility.yul\":3008:3012   */\n      dup2\n        /* \"#utility.yul\":3004:3019   */\n      add\n        /* \"#utility.yul\":2996:3019   */\n      swap1\n      pop\n        /* \"#utility.yul\":2718:3026   */\n      swap2\n      swap1\n      pop\n      jump\t// out\n        /* \"#utility.yul\":3032:3180   */\n    tag_325:\n        /* \"#utility.yul\":3130:3136   */\n      dup3\n        /* \"#utility.yul\":3125:3128   */\n      dup2\n        /* \"#utility.yul\":3120:3123   */\n      dup4\n        /* \"#utility.yul\":3107:3137   */\n      calldatacopy\n        /* \"#utility.yul\":3171:3172   */\n      0x00\n        /* \"#utility.yul\":3162:3168   */\n      dup4\n        /* \"#utility.yul\":3157:3160   */\n      dup4\n        /* \"#utility.yul\":3153:3169   */\n      add\n        /* \"#utility.yul\":3146:3173   */\n      mstore\n        /* \"#utility.yul\":3032:3180   */\n      pop\n      pop\n      pop\n      jump\t// out\n        /* \"#utility.yul\":3186:3611   */\n    tag_326:\n        /* \"#utility.yul\":3264:3269   */\n      0x00\n        /* \"#utility.yul\":3289:3355   */\n      tag_478\n        /* \"#utility.yul\":3305:3354   */\n      tag_479\n        /* \"#utility.yul\":3347:3353   */\n      dup5\n        /* \"#utility.yul\":3305:3354   */\n      tag_324\n      jump\t// in\n    tag_479:\n        /* \"#utility.yul\":3289:3355   */\n      tag_323\n      jump\t// in\n    tag_478:\n        /* \"#utility.yul\":3280:3355   */\n      swap1\n      pop\n        /* \"#utility.yul\":3378:3384   */\n      dup3\n        /* \"#utility.yul\":3371:3376   */\n      dup2\n        /* \"#utility.yul\":3364:3385   */\n      mstore\n        /* \"#utility.yul\":3416:3420   */\n      0x20\n        /* \"#utility.yul\":3409:3414   */\n      dup2\n        /* \"#utility.yul\":3405:3421   */\n      add\n        /* \"#utility.yul\":3454:3457   */\n      dup5\n        /* \"#utility.yul\":3445:3451   */\n      dup5\n        /* \"#utility.yul\":3440:3443   */\n      dup5\n        /* \"#utility.yul\":3436:3452   */\n      add\n        /* \"#utility.yul\":3433:3458   */\n      gt\n        /* \"#utility.yul\":3430:3542   */\n      iszero\n      tag_480\n      jumpi\n        /* \"#utility.yul\":3461:3540   */\n      tag_481\n      tag_320\n      jump\t// in\n    tag_481:\n        /* \"#utility.yul\":3430:3542   */\n    tag_480:\n        /* \"#utility.yul\":3551:3605   */\n      tag_482\n        /* \"#utility.yul\":3598:3604   */\n      dup5\n        /* \"#utility.yul\":3593:3596   */\n      dup3\n        /* \"#utility.yul\":3588:3591   */\n      dup6\n        /* \"#utility.yul\":3551:3605   */\n      tag_325\n      jump\t// in\n    tag_482:\n        /* \"#utility.yul\":3270:3611   */\n      pop\n        /* \"#utility.yul\":3186:3611   */\n      swap4\n      swap3\n      pop\n      pop\n      pop\n      jump\t// out\n        /* \"#utility.yul\":3631:3971   */\n    tag_327:\n        /* \"#utility.yul\":3687:3692   */\n      0x00\n        /* \"#utility.yul\":3736:3739   */\n      dup3\n        /* \"#utility.yul\":3729:3733   */\n      0x1f\n        /* \"#utility.yul\":3721:3727   */\n      dup4\n        /* \"#utility.yul\":3717:3734   */\n      add\n        /* \"#utility.yul\":3713:3740   */\n      slt\n        /* \"#utility.yul\":3703:3825   */\n      tag_484\n      jumpi\n        /* \"#utility.yul\":3744:3823   */\n      tag_485\n      tag_319\n      jump\t// in\n    tag_485:\n        /* \"#utility.yul\":3703:3825   */\n    tag_484:\n        /* \"#utility.yul\":3861:3867   */\n      dup2\n        /* \"#utility.yul\":3848:3868   */\n      calldataload\n        /* \"#utility.yul\":3886:3965   */\n      tag_486\n        /* \"#utility.yul\":3961:3964   */\n      dup5\n        /* \"#utility.yul\":3953:3959   */\n      dup3\n        /* \"#utility.yul\":3946:3950   */\n      0x20\n        /* \"#utility.yul\":3938:3944   */\n      dup7\n        /* \"#utility.yul\":3934:3951   */\n      add\n        /* \"#utility.yul\":3886:3965   */\n      tag_326\n      jump\t// in\n    tag_486:\n        /* \"#utility.yul\":3877:3965   */\n      swap2\n      pop\n        /* \"#utility.yul\":3693:3971   */\n      pop\n        /* \"#utility.yul\":3631:3971   */\n      swap3\n      swap2\n      pop\n      pop\n      jump\t// out\n        /* \"#utility.yul\":3977:4486   */\n    tag_28:\n        /* \"#utility.yul\":4046:4052   */\n      0x00\n        /* \"#utility.yul\":4095:4097   */\n      0x20\n        /* \"#utility.yul\":4083:4092   */\n      dup3\n        /* \"#utility.yul\":4074:4081   */\n      dup5\n        /* \"#utility.yul\":4070:4093   */\n      sub\n        /* \"#utility.yul\":4066:4098   */\n      slt\n        /* \"#utility.yul\":4063:4182   */\n      iszero\n      tag_488\n      jumpi\n        /* \"#utility.yul\":4101:4180   */\n      tag_489\n      tag_314\n      jump\t// in\n    tag_489:\n        /* \"#utility.yul\":4063:4182   */\n    tag_488:\n        /* \"#utility.yul\":4249:4250   */\n      0x00\n        /* \"#utility.yul\":4238:4247   */\n      dup3\n        /* \"#utility.yul\":4234:4251   */\n      add\n        /* \"#utility.yul\":4221:4252   */\n      calldataload\n        /* \"#utility.yul\":4279:4297   */\n      0xffffffffffffffff\n        /* \"#utility.yul\":4271:4277   */\n      dup2\n        /* \"#utility.yul\":4268:4298   */\n      gt\n        /* \"#utility.yul\":4265:4382   */\n      iszero\n      tag_490\n      jumpi\n        /* \"#utility.yul\":4301:4380   */\n      tag_491\n      tag_315\n      jump\t// in\n    tag_491:\n        /* \"#utility.yul\":4265:4382   */\n    tag_490:\n        /* \"#utility.yul\":4406:4469   */\n      tag_492\n        /* \"#utility.yul\":4461:4468   */\n      dup5\n        /* \"#utility.yul\":4452:4458   */\n      dup3\n        /* \"#utility.yul\":4441:4450   */\n      dup6\n        /* \"#utility.yul\":4437:4459   */\n      add\n        /* \"#utility.yul\":4406:4469   */\n      tag_327\n      jump\t// in\n    tag_492:\n        /* \"#utility.yul\":4396:4469   */\n      swap2\n      pop\n        /* \"#utility.yul\":4192:4479   */\n      pop\n        /* \"#utility.yul\":3977:4486   */\n      swap3\n      swap2\n      pop\n      pop\n      jump\t// out\n        /* \"#utility.yul\":4492:4821   */\n    tag_33:\n        /* \"#utility.yul\":4551:4557   */\n      0x00\n        /* \"#utility.yul\":4600:4602   */\n      0x20\n        /* \"#utility.yul\":4588:4597   */\n      dup3\n        /* \"#utility.yul\":4579:4586   */\n      dup5\n        /* \"#utility.yul\":4575:4598   */\n      sub\n        /* \"#utility.yul\":4571:4603   */\n      slt\n        /* \"#utility.yul\":4568:4687   */\n      iszero\n      tag_494\n      jumpi\n        /* \"#utility.yul\":4606:4685   */\n      tag_495\n      tag_314\n      jump\t// in\n    tag_495:\n        /* \"#utility.yul\":4568:4687   */\n    tag_494:\n        /* \"#utility.yul\":4726:4727   */\n      0x00\n        /* \"#utility.yul\":4751:4804   */\n      tag_496\n        /* \"#utility.yul\":4796:4803   */\n      dup5\n        /* \"#utility.yul\":4787:4793   */\n      dup3\n        /* \"#utility.yul\":4776:4785   */\n      dup6\n        /* \"#utility.yul\":4772:4794   */\n      add\n        /* \"#utility.yul\":4751:4804   */\n      tag_318\n      jump\t// in\n    tag_496:\n        /* \"#utility.yul\":4741:4804   */\n      swap2\n      pop\n        /* \"#utility.yul\":4697:4814   */\n      pop\n        /* \"#utility.yul\":4492:4821   */\n      swap3\n      swap2\n      pop\n      pop\n      jump\t// out\n        /* \"#utility.yul\":4827:4926   */\n    tag_328:\n        /* \"#utility.yul\":4879:4885   */\n      0x00\n        /* \"#utility.yul\":4913:4918   */\n      dup2\n        /* \"#utility.yul\":4907:4919   */\n      mload\n        /* \"#utility.yul\":4897:4919   */\n      swap1\n      pop\n        /* \"#utility.yul\":4827:4926   */\n      swap2\n      swap1\n      pop\n      jump\t// out\n        /* \"#utility.yul\":4932:5091   */\n    tag_329:\n        /* \"#utility.yul\":5006:5017   */\n      0x00\n        /* \"#utility.yul\":5040:5046   */\n      dup3\n        /* \"#utility.yul\":5035:5038   */\n      dup3\n        /* \"#utility.yul\":5028:5047   */\n      mstore\n        /* \"#utility.yul\":5080:5084   */\n      0x20\n        /* \"#utility.yul\":5075:5078   */\n      dup3\n        /* \"#utility.yul\":5071:5085   */\n      add\n        /* \"#utility.yul\":5056:5085   */\n      swap1\n      pop\n        /* \"#utility.yul\":4932:5091   */\n      swap3\n      swap2\n      pop\n      pop\n      jump\t// out\n        /* \"#utility.yul\":5097:5236   */\n    tag_330:\n        /* \"#utility.yul\":5186:5192   */\n      dup3\n        /* \"#utility.yul\":5181:5184   */\n      dup2\n        /* \"#utility.yul\":5176:5179   */\n      dup4\n        /* \"#utility.yul\":5170:5193   */\n      mcopy\n        /* \"#utility.yul\":5227:5228   */\n      0x00\n        /* \"#utility.yul\":5218:5224   */\n      dup4\n        /* \"#utility.yul\":5213:5216   */\n      dup4\n        /* \"#utility.yul\":5209:5225   */\n      add\n        /* \"#utility.yul\":5202:5229   */\n      mstore\n        /* \"#utility.yul\":5097:5236   */\n      pop\n      pop\n      pop\n      jump\t// out\n        /* \"#utility.yul\":5242:5599   */\n    tag_331:\n        /* \"#utility.yul\":5320:5323   */\n      0x00\n        /* \"#utility.yul\":5348:5387   */\n      tag_501\n        /* \"#utility.yul\":5381:5386   */\n      dup3\n        /* \"#utility.yul\":5348:5387   */\n      tag_328\n      jump\t// in\n    tag_501:\n        /* \"#utility.yul\":5403:5464   */\n      tag_502\n        /* \"#utility.yul\":5457:5463   */\n      dup2\n        /* \"#utility.yul\":5452:5455   */\n      dup6\n        /* \"#utility.yul\":5403:5464   */\n      tag_329\n      jump\t// in\n    tag_502:\n        /* \"#utility.yul\":5396:5464   */\n      swap4\n      pop\n        /* \"#utility.yul\":5473:5538   */\n      tag_503\n        /* \"#utility.yul\":5531:5537   */\n      dup2\n        /* \"#utility.yul\":5526:5529   */\n      dup6\n        /* \"#utility.yul\":5519:5523   */\n      0x20\n        /* \"#utility.yul\":5512:5517   */\n      dup7\n        /* \"#utility.yul\":5508:5524   */\n      add\n        /* \"#utility.yul\":5473:5538   */\n      tag_330\n      jump\t// in\n    tag_503:\n        /* \"#utility.yul\":5563:5592   */\n      tag_504\n        /* \"#utility.yul\":5585:5591   */\n      dup2\n        /* \"#utility.yul\":5563:5592   */\n      tag_321\n      jump\t// in\n    tag_504:\n        /* \"#utility.yul\":5558:5561   */\n      dup5\n        /* \"#utility.yul\":5554:5593   */\n      add\n        /* \"#utility.yul\":5547:5593   */\n      swap2\n      pop\n        /* \"#utility.yul\":5324:5599   */\n      pop\n        /* \"#utility.yul\":5242:5599   */\n      swap3\n      swap2\n      pop\n      pop\n      jump\t// out\n        /* \"#utility.yul\":5605:5742   */\n    tag_332:\n        /* \"#utility.yul\":5695:5701   */\n      0x00\n        /* \"#utility.yul\":5729:5734   */\n      dup2\n        /* \"#utility.yul\":5723:5735   */\n      mload\n        /* \"#utility.yul\":5713:5735   */\n      swap1\n      pop\n        /* \"#utility.yul\":5605:5742   */\n      swap2\n      swap1\n      pop\n      jump\t// out\n        /* \"#utility.yul\":5748:5945   */\n    tag_333:\n        /* \"#utility.yul\":5860:5871   */\n      0x00\n        /* \"#utility.yul\":5894:5900   */\n      dup3\n        /* \"#utility.yul\":5889:5892   */\n      dup3\n        /* \"#utility.yul\":5882:5901   */\n      mstore\n        /* \"#utility.yul\":5934:5938   */\n      0x20\n        /* \"#utility.yul\":5929:5932   */\n      dup3\n        /* \"#utility.yul\":5925:5939   */\n      add\n        /* \"#utility.yul\":5910:5939   */\n      swap1\n      pop\n        /* \"#utility.yul\":5748:5945   */\n      swap3\n      swap2\n      pop\n      pop\n      jump\t// out\n        /* \"#utility.yul\":5951:6106   */\n    tag_334:\n        /* \"#utility.yul\":6041:6045   */\n      0x00\n        /* \"#utility.yul\":6064:6067   */\n      dup2\n        /* \"#utility.yul\":6056:6067   */\n      swap1\n      pop\n        /* \"#utility.yul\":6094:6098   */\n      0x20\n        /* \"#utility.yul\":6089:6092   */\n      dup3\n        /* \"#utility.yul\":6085:6099   */\n      add\n        /* \"#utility.yul\":6077:6099   */\n      swap1\n      pop\n        /* \"#utility.yul\":5951:6106   */\n      swap2\n      swap1\n      pop\n      jump\t// out\n        /* \"#utility.yul\":6112:6220   */\n    tag_335:\n        /* \"#utility.yul\":6189:6213   */\n      tag_509\n        /* \"#utility.yul\":6207:6212   */\n      dup2\n        /* \"#utility.yul\":6189:6213   */\n      tag_311\n      jump\t// in\n    tag_509:\n        /* \"#utility.yul\":6184:6187   */\n      dup3\n        /* \"#utility.yul\":6177:6214   */\n      mstore\n        /* \"#utility.yul\":6112:6220   */\n      pop\n      pop\n      jump\t// out\n        /* \"#utility.yul\":6226:6315   */\n    tag_336:\n        /* \"#utility.yul\":6262:6269   */\n      0x00\n        /* \"#utility.yul\":6302:6308   */\n      0xffff\n        /* \"#utility.yul\":6295:6300   */\n      dup3\n        /* \"#utility.yul\":6291:6309   */\n      and\n        /* \"#utility.yul\":6280:6309   */\n      swap1\n      pop\n        /* \"#utility.yul\":6226:6315   */\n      swap2\n      swap1\n      pop\n      jump\t// out\n        /* \"#utility.yul\":6321:6426   */\n    tag_337:\n        /* \"#utility.yul\":6396:6419   */\n      tag_512\n        /* \"#utility.yul\":6413:6418   */\n      dup2\n        /* \"#utility.yul\":6396:6419   */\n      tag_336\n      jump\t// in\n    tag_512:\n        /* \"#utility.yul\":6391:6394   */\n      dup3\n        /* \"#utility.yul\":6384:6420   */\n      mstore\n        /* \"#utility.yul\":6321:6426   */\n      pop\n      pop\n      jump\t// out\n        /* \"#utility.yul\":6468:6973   */\n    tag_338:\n        /* \"#utility.yul\":6601:6605   */\n      0x40\n        /* \"#utility.yul\":6596:6599   */\n      dup3\n        /* \"#utility.yul\":6592:6606   */\n      add\n        /* \"#utility.yul\":6696:6700   */\n      0x00\n        /* \"#utility.yul\":6689:6694   */\n      dup3\n        /* \"#utility.yul\":6685:6701   */\n      add\n        /* \"#utility.yul\":6679:6702   */\n      mload\n        /* \"#utility.yul\":6715:6778   */\n      tag_514\n        /* \"#utility.yul\":6772:6776   */\n      0x00\n        /* \"#utility.yul\":6767:6770   */\n      dup6\n        /* \"#utility.yul\":6763:6777   */\n      add\n        /* \"#utility.yul\":6749:6761   */\n      dup3\n        /* \"#utility.yul\":6715:6778   */\n      tag_335\n      jump\t// in\n    tag_514:\n        /* \"#utility.yul\":6616:6788   */\n      pop\n        /* \"#utility.yul\":6876:6880   */\n      0x20\n        /* \"#utility.yul\":6869:6874   */\n      dup3\n        /* \"#utility.yul\":6865:6881   */\n      add\n        /* \"#utility.yul\":6859:6882   */\n      mload\n        /* \"#utility.yul\":6895:6956   */\n      tag_515\n        /* \"#utility.yul\":6950:6954   */\n      0x20\n        /* \"#utility.yul\":6945:6948   */\n      dup6\n        /* \"#utility.yul\":6941:6955   */\n      add\n        /* \"#utility.yul\":6927:6939   */\n      dup3\n        /* \"#utility.yul\":6895:6956   */\n      tag_337\n      jump\t// in\n    tag_515:\n        /* \"#utility.yul\":6798:6966   */\n      pop\n        /* \"#utility.yul\":6570:6973   */\n      pop\n        /* \"#utility.yul\":6468:6973   */\n      pop\n      pop\n      jump\t// out\n        /* \"#utility.yul\":6979:7250   */\n    tag_339:\n        /* \"#utility.yul\":7094:7104   */\n      0x00\n        /* \"#utility.yul\":7115:7207   */\n      tag_517\n        /* \"#utility.yul\":7203:7206   */\n      dup4\n        /* \"#utility.yul\":7195:7201   */\n      dup4\n        /* \"#utility.yul\":7115:7207   */\n      tag_338\n      jump\t// in\n    tag_517:\n        /* \"#utility.yul\":7239:7243   */\n      0x40\n        /* \"#utility.yul\":7234:7237   */\n      dup4\n        /* \"#utility.yul\":7230:7244   */\n      add\n        /* \"#utility.yul\":7216:7244   */\n      swap1\n      pop\n        /* \"#utility.yul\":6979:7250   */\n      swap3\n      swap2\n      pop\n      pop\n      jump\t// out\n        /* \"#utility.yul\":7256:7392   */\n    tag_340:\n        /* \"#utility.yul\":7349:7353   */\n      0x00\n        /* \"#utility.yul\":7381:7385   */\n      0x20\n        /* \"#utility.yul\":7376:7379   */\n      dup3\n        /* \"#utility.yul\":7372:7386   */\n      add\n        /* \"#utility.yul\":7364:7386   */\n      swap1\n      pop\n        /* \"#utility.yul\":7256:7392   */\n      swap2\n      swap1\n      pop\n      jump\t// out\n        /* \"#utility.yul\":7438:8334   */\n    tag_341:\n        /* \"#utility.yul\":7593:7596   */\n      0x00\n        /* \"#utility.yul\":7622:7699   */\n      tag_520\n        /* \"#utility.yul\":7693:7698   */\n      dup3\n        /* \"#utility.yul\":7622:7699   */\n      tag_332\n      jump\t// in\n    tag_520:\n        /* \"#utility.yul\":7715:7814   */\n      tag_521\n        /* \"#utility.yul\":7807:7813   */\n      dup2\n        /* \"#utility.yul\":7802:7805   */\n      dup6\n        /* \"#utility.yul\":7715:7814   */\n      tag_333\n      jump\t// in\n    tag_521:\n        /* \"#utility.yul\":7708:7814   */\n      swap4\n      pop\n        /* \"#utility.yul\":7838:7917   */\n      tag_522\n        /* \"#utility.yul\":7911:7916   */\n      dup4\n        /* \"#utility.yul\":7838:7917   */\n      tag_334\n      jump\t// in\n    tag_522:\n        /* \"#utility.yul\":7940:7947   */\n      dup1\n        /* \"#utility.yul\":7971:7972   */\n      0x00\n        /* \"#utility.yul\":7956:8309   */\n    tag_523:\n        /* \"#utility.yul\":7981:7987   */\n      dup4\n        /* \"#utility.yul\":7978:7979   */\n      dup2\n        /* \"#utility.yul\":7975:7988   */\n      lt\n        /* \"#utility.yul\":7956:8309   */\n      iszero\n      tag_525\n      jumpi\n        /* \"#utility.yul\":8057:8063   */\n      dup2\n        /* \"#utility.yul\":8051:8064   */\n      mload\n        /* \"#utility.yul\":8084:8193   */\n      tag_526\n        /* \"#utility.yul\":8189:8192   */\n      dup9\n        /* \"#utility.yul\":8174:8187   */\n      dup3\n        /* \"#utility.yul\":8084:8193   */\n      tag_339\n      jump\t// in\n    tag_526:\n        /* \"#utility.yul\":8077:8193   */\n      swap8\n      pop\n        /* \"#utility.yul\":8216:8299   */\n      tag_527\n        /* \"#utility.yul\":8292:8298   */\n      dup4\n        /* \"#utility.yul\":8216:8299   */\n      tag_340\n      jump\t// in\n    tag_527:\n        /* \"#utility.yul\":8206:8299   */\n      swap3\n      pop\n        /* \"#utility.yul\":8016:8309   */\n      pop\n        /* \"#utility.yul\":8003:8004   */\n      0x01\n        /* \"#utility.yul\":8000:8001   */\n      dup2\n        /* \"#utility.yul\":7996:8005   */\n      add\n        /* \"#utility.yul\":7991:8005   */\n      swap1\n      pop\n        /* \"#utility.yul\":7956:8309   */\n      jump(tag_523)\n    tag_525:\n        /* \"#utility.yul\":7960:7974   */\n      pop\n        /* \"#utility.yul\":8325:8328   */\n      dup6\n        /* \"#utility.yul\":8318:8328   */\n      swap4\n      pop\n        /* \"#utility.yul\":7598:8334   */\n      pop\n      pop\n      pop\n        /* \"#utility.yul\":7438:8334   */\n      swap3\n      swap2\n      pop\n      pop\n      jump\t// out\n        /* \"#utility.yul\":8372:9366   */\n    tag_342:\n        /* \"#utility.yul\":8483:8486   */\n      0x00\n        /* \"#utility.yul\":8519:8523   */\n      0x60\n        /* \"#utility.yul\":8514:8517   */\n      dup4\n        /* \"#utility.yul\":8510:8524   */\n      add\n        /* \"#utility.yul\":8606:8610   */\n      0x00\n        /* \"#utility.yul\":8599:8604   */\n      dup4\n        /* \"#utility.yul\":8595:8611   */\n      add\n        /* \"#utility.yul\":8589:8612   */\n      mload\n        /* \"#utility.yul\":8659:8662   */\n      dup5\n        /* \"#utility.yul\":8653:8657   */\n      dup3\n        /* \"#utility.yul\":8649:8663   */\n      sub\n        /* \"#utility.yul\":8642:8646   */\n      0x00\n        /* \"#utility.yul\":8637:8640   */\n      dup7\n        /* \"#utility.yul\":8633:8647   */\n      add\n        /* \"#utility.yul\":8626:8664   */\n      mstore\n        /* \"#utility.yul\":8685:8758   */\n      tag_529\n        /* \"#utility.yul\":8753:8757   */\n      dup3\n        /* \"#utility.yul\":8739:8751   */\n      dup3\n        /* \"#utility.yul\":8685:8758   */\n      tag_331\n      jump\t// in\n    tag_529:\n        /* \"#utility.yul\":8677:8758   */\n      swap2\n      pop\n        /* \"#utility.yul\":8534:8769   */\n      pop\n        /* \"#utility.yul\":8853:8857   */\n      0x20\n        /* \"#utility.yul\":8846:8851   */\n      dup4\n        /* \"#utility.yul\":8842:8858   */\n      add\n        /* \"#utility.yul\":8836:8859   */\n      mload\n        /* \"#utility.yul\":8906:8909   */\n      dup5\n        /* \"#utility.yul\":8900:8904   */\n      dup3\n        /* \"#utility.yul\":8896:8910   */\n      sub\n        /* \"#utility.yul\":8889:8893   */\n      0x20\n        /* \"#utility.yul\":8884:8887   */\n      dup7\n        /* \"#utility.yul\":8880:8894   */\n      add\n        /* \"#utility.yul\":8873:8911   */\n      mstore\n        /* \"#utility.yul\":8932:9005   */\n      tag_530\n        /* \"#utility.yul\":9000:9004   */\n      dup3\n        /* \"#utility.yul\":8986:8998   */\n      dup3\n        /* \"#utility.yul\":8932:9005   */\n      tag_331\n      jump\t// in\n    tag_530:\n        /* \"#utility.yul\":8924:9005   */\n      swap2\n      pop\n        /* \"#utility.yul\":8779:9016   */\n      pop\n        /* \"#utility.yul\":9100:9104   */\n      0x40\n        /* \"#utility.yul\":9093:9098   */\n      dup4\n        /* \"#utility.yul\":9089:9105   */\n      add\n        /* \"#utility.yul\":9083:9106   */\n      mload\n        /* \"#utility.yul\":9153:9156   */\n      dup5\n        /* \"#utility.yul\":9147:9151   */\n      dup3\n        /* \"#utility.yul\":9143:9157   */\n      sub\n        /* \"#utility.yul\":9136:9140   */\n      0x40\n        /* \"#utility.yul\":9131:9134   */\n      dup7\n        /* \"#utility.yul\":9127:9141   */\n      add\n        /* \"#utility.yul\":9120:9158   */\n      mstore\n        /* \"#utility.yul\":9179:9328   */\n      tag_531\n        /* \"#utility.yul\":9323:9327   */\n      dup3\n        /* \"#utility.yul\":9309:9321   */\n      dup3\n        /* \"#utility.yul\":9179:9328   */\n      tag_341\n      jump\t// in\n    tag_531:\n        /* \"#utility.yul\":9171:9328   */\n      swap2\n      pop\n        /* \"#utility.yul\":9026:9339   */\n      pop\n        /* \"#utility.yul\":9356:9360   */\n      dup1\n        /* \"#utility.yul\":9349:9360   */\n      swap2\n      pop\n        /* \"#utility.yul\":8488:9366   */\n      pop\n        /* \"#utility.yul\":8372:9366   */\n      swap3\n      swap2\n      pop\n      pop\n      jump\t// out\n        /* \"#utility.yul\":9372:9839   */\n    tag_36:\n        /* \"#utility.yul\":9535:9539   */\n      0x00\n        /* \"#utility.yul\":9573:9575   */\n      0x40\n        /* \"#utility.yul\":9562:9571   */\n      dup3\n        /* \"#utility.yul\":9558:9576   */\n      add\n        /* \"#utility.yul\":9550:9576   */\n      swap1\n      pop\n        /* \"#utility.yul\":9622:9631   */\n      dup2\n        /* \"#utility.yul\":9616:9620   */\n      dup2\n        /* \"#utility.yul\":9612:9632   */\n      sub\n        /* \"#utility.yul\":9608:9609   */\n      0x00\n        /* \"#utility.yul\":9597:9606   */\n      dup4\n        /* \"#utility.yul\":9593:9610   */\n      add\n        /* \"#utility.yul\":9586:9633   */\n      mstore\n        /* \"#utility.yul\":9650:9750   */\n      tag_533\n        /* \"#utility.yul\":9745:9749   */\n      dup2\n        /* \"#utility.yul\":9736:9742   */\n      dup6\n        /* \"#utility.yul\":9650:9750   */\n      tag_342\n      jump\t// in\n    tag_533:\n        /* \"#utility.yul\":9642:9750   */\n      swap1\n      pop\n        /* \"#utility.yul\":9760:9832   */\n      tag_534\n        /* \"#utility.yul\":9828:9830   */\n      0x20\n        /* \"#utility.yul\":9817:9826   */\n      dup4\n        /* \"#utility.yul\":9813:9831   */\n      add\n        /* \"#utility.yul\":9804:9810   */\n      dup5\n        /* \"#utility.yul\":9760:9832   */\n      tag_312\n      jump\t// in\n    tag_534:\n        /* \"#utility.yul\":9372:9839   */\n      swap4\n      swap3\n      pop\n      pop\n      pop\n      jump\t// out\n        /* \"#utility.yul\":9845:10422   */\n    tag_45:\n        /* \"#utility.yul\":10036:10040   */\n      0x00\n        /* \"#utility.yul\":10074:10076   */\n      0x60\n        /* \"#utility.yul\":10063:10072   */\n      dup3\n        /* \"#utility.yul\":10059:10077   */\n      add\n        /* \"#utility.yul\":10051:10077   */\n      swap1\n      pop\n        /* \"#utility.yul\":10123:10132   */\n      dup2\n        /* \"#utility.yul\":10117:10121   */\n      dup2\n        /* \"#utility.yul\":10113:10133   */\n      sub\n        /* \"#utility.yul\":10109:10110   */\n      0x00\n        /* \"#utility.yul\":10098:10107   */\n      dup4\n        /* \"#utility.yul\":10094:10111   */\n      add\n        /* \"#utility.yul\":10087:10134   */\n      mstore\n        /* \"#utility.yul\":10151:10251   */\n      tag_536\n        /* \"#utility.yul\":10246:10250   */\n      dup2\n        /* \"#utility.yul\":10237:10243   */\n      dup7\n        /* \"#utility.yul\":10151:10251   */\n      tag_342\n      jump\t// in\n    tag_536:\n        /* \"#utility.yul\":10143:10251   */\n      swap1\n      pop\n        /* \"#utility.yul\":10261:10333   */\n      tag_537\n        /* \"#utility.yul\":10329:10331   */\n      0x20\n        /* \"#utility.yul\":10318:10327   */\n      dup4\n        /* \"#utility.yul\":10314:10332   */\n      add\n        /* \"#utility.yul\":10305:10311   */\n      dup6\n        /* \"#utility.yul\":10261:10333   */\n      tag_312\n      jump\t// in\n    tag_537:\n        /* \"#utility.yul\":10343:10415   */\n      tag_538\n        /* \"#utility.yul\":10411:10413   */\n      0x40\n        /* \"#utility.yul\":10400:10409   */\n      dup4\n        /* \"#utility.yul\":10396:10414   */\n      add\n        /* \"#utility.yul\":10387:10393   */\n      dup5\n        /* \"#utility.yul\":10343:10415   */\n      tag_312\n      jump\t// in\n    tag_538:\n        /* \"#utility.yul\":9845:10422   */\n      swap5\n      swap4\n      pop\n      pop\n      pop\n      pop\n      jump\t// out\n        /* \"#utility.yul\":10428:10488   */\n    tag_343:\n        /* \"#utility.yul\":10456:10459   */\n      0x00\n        /* \"#utility.yul\":10477:10482   */\n      dup2\n        /* \"#utility.yul\":10470:10482   */\n      swap1\n      pop\n        /* \"#utility.yul\":10428:10488   */\n      swap2\n      swap1\n      pop\n      jump\t// out\n        /* \"#utility.yul\":10494:10636   */\n    tag_344:\n        /* \"#utility.yul\":10544:10553   */\n      0x00\n        /* \"#utility.yul\":10577:10630   */\n      tag_541\n        /* \"#utility.yul\":10595:10629   */\n      tag_542\n        /* \"#utility.yul\":10604:10628   */\n      tag_543\n        /* \"#utility.yul\":10622:10627   */\n      dup5\n        /* \"#utility.yul\":10604:10628   */\n      tag_310\n      jump\t// in\n    tag_543:\n        /* \"#utility.yul\":10595:10629   */\n      tag_343\n      jump\t// in\n    tag_542:\n        /* \"#utility.yul\":10577:10630   */\n      tag_310\n      jump\t// in\n    tag_541:\n        /* \"#utility.yul\":10564:10630   */\n      swap1\n      pop\n        /* \"#utility.yul\":10494:10636   */\n      swap2\n      swap1\n      pop\n      jump\t// out\n        /* \"#utility.yul\":10642:10768   */\n    tag_345:\n        /* \"#utility.yul\":10692:10701   */\n      0x00\n        /* \"#utility.yul\":10725:10762   */\n      tag_545\n        /* \"#utility.yul\":10756:10761   */\n      dup3\n        /* \"#utility.yul\":10725:10762   */\n      tag_344\n      jump\t// in\n    tag_545:\n        /* \"#utility.yul\":10712:10762   */\n      swap1\n      pop\n        /* \"#utility.yul\":10642:10768   */\n      swap2\n      swap1\n      pop\n      jump\t// out\n        /* \"#utility.yul\":10774:10917   */\n    tag_346:\n        /* \"#utility.yul\":10841:10850   */\n      0x00\n        /* \"#utility.yul\":10874:10911   */\n      tag_547\n        /* \"#utility.yul\":10905:10910   */\n      dup3\n        /* \"#utility.yul\":10874:10911   */\n      tag_345\n      jump\t// in\n    tag_547:\n        /* \"#utility.yul\":10861:10911   */\n      swap1\n      pop\n        /* \"#utility.yul\":10774:10917   */\n      swap2\n      swap1\n      pop\n      jump\t// out\n        /* \"#utility.yul\":10923:11088   */\n    tag_347:\n        /* \"#utility.yul\":11027:11081   */\n      tag_549\n        /* \"#utility.yul\":11075:11080   */\n      dup2\n        /* \"#utility.yul\":11027:11081   */\n      tag_346\n      jump\t// in\n    tag_549:\n        /* \"#utility.yul\":11022:11025   */\n      dup3\n        /* \"#utility.yul\":11015:11082   */\n      mstore\n        /* \"#utility.yul\":10923:11088   */\n      pop\n      pop\n      jump\t// out\n        /* \"#utility.yul\":11094:11350   */\n    tag_49:\n        /* \"#utility.yul\":11204:11208   */\n      0x00\n        /* \"#utility.yul\":11242:11244   */\n      0x20\n        /* \"#utility.yul\":11231:11240   */\n      dup3\n        /* \"#utility.yul\":11227:11245   */\n      add\n        /* \"#utility.yul\":11219:11245   */\n      swap1\n      pop\n        /* \"#utility.yul\":11255:11343   */\n      tag_551\n        /* \"#utility.yul\":11340:11341   */\n      0x00\n        /* \"#utility.yul\":11329:11338   */\n      dup4\n        /* \"#utility.yul\":11325:11342   */\n      add\n        /* \"#utility.yul\":11316:11322   */\n      dup5\n        /* \"#utility.yul\":11255:11343   */\n      tag_347\n      jump\t// in\n    tag_551:\n        /* \"#utility.yul\":11094:11350   */\n      swap3\n      swap2\n      pop\n      pop\n      jump\t// out\n        /* \"#utility.yul\":11356:11478   */\n    tag_348:\n        /* \"#utility.yul\":11429:11453   */\n      tag_553\n        /* \"#utility.yul\":11447:11452   */\n      dup2\n        /* \"#utility.yul\":11429:11453   */\n      tag_311\n      jump\t// in\n    tag_553:\n        /* \"#utility.yul\":11422:11427   */\n      dup2\n        /* \"#utility.yul\":11419:11454   */\n      eq\n        /* \"#utility.yul\":11409:11472   */\n      tag_554\n      jumpi\n        /* \"#utility.yul\":11468:11469   */\n      0x00\n        /* \"#utility.yul\":11465:11466   */\n      0x00\n        /* \"#utility.yul\":11458:11470   */\n      revert\n        /* \"#utility.yul\":11409:11472   */\n    tag_554:\n        /* \"#utility.yul\":11356:11478   */\n      pop\n      jump\t// out\n        /* \"#utility.yul\":11484:11623   */\n    tag_349:\n        /* \"#utility.yul\":11530:11535   */\n      0x00\n        /* \"#utility.yul\":11568:11574   */\n      dup2\n        /* \"#utility.yul\":11555:11575   */\n      calldataload\n        /* \"#utility.yul\":11546:11575   */\n      swap1\n      pop\n        /* \"#utility.yul\":11584:11617   */\n      tag_556\n        /* \"#utility.yul\":11611:11616   */\n      dup2\n        /* \"#utility.yul\":11584:11617   */\n      tag_348\n      jump\t// in\n    tag_556:\n        /* \"#utility.yul\":11484:11623   */\n      swap3\n      swap2\n      pop\n      pop\n      jump\t// out\n        /* \"#utility.yul\":11629:11958   */\n    tag_55:\n        /* \"#utility.yul\":11688:11694   */\n      0x00\n        /* \"#utility.yul\":11737:11739   */\n      0x20\n        /* \"#utility.yul\":11725:11734   */\n      dup3\n        /* \"#utility.yul\":11716:11723   */\n      dup5\n        /* \"#utility.yul\":11712:11735   */\n      sub\n        /* \"#utility.yul\":11708:11740   */\n      slt\n        /* \"#utility.yul\":11705:11824   */\n      iszero\n      tag_558\n      jumpi\n        /* \"#utility.yul\":11743:11822   */\n      tag_559\n      tag_314\n      jump\t// in\n    tag_559:\n        /* \"#utility.yul\":11705:11824   */\n    tag_558:\n        /* \"#utility.yul\":11863:11864   */\n      0x00\n        /* \"#utility.yul\":11888:11941   */\n      tag_560\n        /* \"#utility.yul\":11933:11940   */\n      dup5\n        /* \"#utility.yul\":11924:11930   */\n      dup3\n        /* \"#utility.yul\":11913:11922   */\n      dup6\n        /* \"#utility.yul\":11909:11931   */\n      add\n        /* \"#utility.yul\":11888:11941   */\n      tag_349\n      jump\t// in\n    tag_560:\n        /* \"#utility.yul\":11878:11941   */\n      swap2\n      pop\n        /* \"#utility.yul\":11834:11951   */\n      pop\n        /* \"#utility.yul\":11629:11958   */\n      swap3\n      swap2\n      pop\n      pop\n      jump\t// out\n        /* \"#utility.yul\":11964:12082   */\n    tag_350:\n        /* \"#utility.yul\":12051:12075   */\n      tag_562\n        /* \"#utility.yul\":12069:12074   */\n      dup2\n        /* \"#utility.yul\":12051:12075   */\n      tag_316\n      jump\t// in\n    tag_562:\n        /* \"#utility.yul\":12046:12049   */\n      dup3\n        /* \"#utility.yul\":12039:12076   */\n      mstore\n        /* \"#utility.yul\":11964:12082   */\n      pop\n      pop\n      jump\t// out\n        /* \"#utility.yul\":12088:12420   */\n    tag_61:\n        /* \"#utility.yul\":12209:12213   */\n      0x00\n        /* \"#utility.yul\":12247:12249   */\n      0x40\n        /* \"#utility.yul\":12236:12245   */\n      dup3\n        /* \"#utility.yul\":12232:12250   */\n      add\n        /* \"#utility.yul\":12224:12250   */\n      swap1\n      pop\n        /* \"#utility.yul\":12260:12331   */\n      tag_564\n        /* \"#utility.yul\":12328:12329   */\n      0x00\n        /* \"#utility.yul\":12317:12326   */\n      dup4\n        /* \"#utility.yul\":12313:12330   */\n      add\n        /* \"#utility.yul\":12304:12310   */\n      dup6\n        /* \"#utility.yul\":12260:12331   */\n      tag_350\n      jump\t// in\n    tag_564:\n        /* \"#utility.yul\":12341:12413   */\n      tag_565\n        /* \"#utility.yul\":12409:12411   */\n      0x20\n        /* \"#utility.yul\":12398:12407   */\n      dup4\n        /* \"#utility.yul\":12394:12412   */\n      add\n        /* \"#utility.yul\":12385:12391   */\n      dup5\n        /* \"#utility.yul\":12341:12413   */\n      tag_350\n      jump\t// in\n    tag_565:\n        /* \"#utility.yul\":12088:12420   */\n      swap4\n      swap3\n      pop\n      pop\n      pop\n      jump\t// out\n        /* \"#utility.yul\":12426:12783   */\n    tag_66:\n        /* \"#utility.yul\":12561:12565   */\n      0x00\n        /* \"#utility.yul\":12599:12601   */\n      0x20\n        /* \"#utility.yul\":12588:12597   */\n      dup3\n        /* \"#utility.yul\":12584:12602   */\n      add\n        /* \"#utility.yul\":12576:12602   */\n      swap1\n      pop\n        /* \"#utility.yul\":12648:12657   */\n      dup2\n        /* \"#utility.yul\":12642:12646   */\n      dup2\n        /* \"#utility.yul\":12638:12658   */\n      sub\n        /* \"#utility.yul\":12634:12635   */\n      0x00\n        /* \"#utility.yul\":12623:12632   */\n      dup4\n        /* \"#utility.yul\":12619:12636   */\n      add\n        /* \"#utility.yul\":12612:12659   */\n      mstore\n        /* \"#utility.yul\":12676:12776   */\n      tag_567\n        /* \"#utility.yul\":12771:12775   */\n      dup2\n        /* \"#utility.yul\":12762:12768   */\n      dup5\n        /* \"#utility.yul\":12676:12776   */\n      tag_342\n      jump\t// in\n    tag_567:\n        /* \"#utility.yul\":12668:12776   */\n      swap1\n      pop\n        /* \"#utility.yul\":12426:12783   */\n      swap3\n      swap2\n      pop\n      pop\n      jump\t// out\n        /* \"#utility.yul\":12789:12906   */\n    tag_351:\n        /* \"#utility.yul\":12898:12899   */\n      0x00\n        /* \"#utility.yul\":12895:12896   */\n      0x00\n        /* \"#utility.yul\":12888:12900   */\n      revert\n        /* \"#utility.yul\":12930:13157   */\n    tag_352:\n        /* \"#utility.yul\":12999:13004   */\n      0x00\n        /* \"#utility.yul\":13040:13042   */\n      0x60\n        /* \"#utility.yul\":13031:13037   */\n      dup3\n        /* \"#utility.yul\":13026:13029   */\n      dup5\n        /* \"#utility.yul\":13022:13038   */\n      sub\n        /* \"#utility.yul\":13018:13043   */\n      slt\n        /* \"#utility.yul\":13015:13127   */\n      iszero\n      tag_570\n      jumpi\n        /* \"#utility.yul\":13046:13125   */\n      tag_571\n      tag_351\n      jump\t// in\n    tag_571:\n        /* \"#utility.yul\":13015:13127   */\n    tag_570:\n        /* \"#utility.yul\":13145:13151   */\n      dup2\n        /* \"#utility.yul\":13136:13151   */\n      swap1\n      pop\n        /* \"#utility.yul\":12930:13157   */\n      swap3\n      swap2\n      pop\n      pop\n      jump\t// out\n        /* \"#utility.yul\":13163:13698   */\n    tag_73:\n        /* \"#utility.yul\":13245:13251   */\n      0x00\n        /* \"#utility.yul\":13294:13296   */\n      0x20\n        /* \"#utility.yul\":13282:13291   */\n      dup3\n        /* \"#utility.yul\":13273:13280   */\n      dup5\n        /* \"#utility.yul\":13269:13292   */\n      sub\n        /* \"#utility.yul\":13265:13297   */\n      slt\n        /* \"#utility.yul\":13262:13381   */\n      iszero\n      tag_573\n      jumpi\n        /* \"#utility.yul\":13300:13379   */\n      tag_574\n      tag_314\n      jump\t// in\n    tag_574:\n        /* \"#utility.yul\":13262:13381   */\n    tag_573:\n        /* \"#utility.yul\":13448:13449   */\n      0x00\n        /* \"#utility.yul\":13437:13446   */\n      dup3\n        /* \"#utility.yul\":13433:13450   */\n      add\n        /* \"#utility.yul\":13420:13451   */\n      calldataload\n        /* \"#utility.yul\":13478:13496   */\n      0xffffffffffffffff\n        /* \"#utility.yul\":13470:13476   */\n      dup2\n        /* \"#utility.yul\":13467:13497   */\n      gt\n        /* \"#utility.yul\":13464:13581   */\n      iszero\n      tag_575\n      jumpi\n        /* \"#utility.yul\":13500:13579   */\n      tag_576\n      tag_315\n      jump\t// in\n    tag_576:\n        /* \"#utility.yul\":13464:13581   */\n    tag_575:\n        /* \"#utility.yul\":13605:13681   */\n      tag_577\n        /* \"#utility.yul\":13673:13680   */\n      dup5\n        /* \"#utility.yul\":13664:13670   */\n      dup3\n        /* \"#utility.yul\":13653:13662   */\n      dup6\n        /* \"#utility.yul\":13649:13671   */\n      add\n        /* \"#utility.yul\":13605:13681   */\n      tag_352\n      jump\t// in\n    tag_577:\n        /* \"#utility.yul\":13595:13681   */\n      swap2\n      pop\n        /* \"#utility.yul\":13391:13691   */\n      pop\n        /* \"#utility.yul\":13163:13698   */\n      swap3\n      swap2\n      pop\n      pop\n      jump\t// out\n        /* \"#utility.yul\":13704:13926   */\n    tag_76:\n        /* \"#utility.yul\":13797:13801   */\n      0x00\n        /* \"#utility.yul\":13835:13837   */\n      0x20\n        /* \"#utility.yul\":13824:13833   */\n      dup3\n        /* \"#utility.yul\":13820:13838   */\n      add\n        /* \"#utility.yul\":13812:13838   */\n      swap1\n      pop\n        /* \"#utility.yul\":13848:13919   */\n      tag_579\n        /* \"#utility.yul\":13916:13917   */\n      0x00\n        /* \"#utility.yul\":13905:13914   */\n      dup4\n        /* \"#utility.yul\":13901:13918   */\n      add\n        /* \"#utility.yul\":13892:13898   */\n      dup5\n        /* \"#utility.yul\":13848:13919   */\n      tag_350\n      jump\t// in\n    tag_579:\n        /* \"#utility.yul\":13704:13926   */\n      swap3\n      swap2\n      pop\n      pop\n      jump\t// out\n        /* \"#utility.yul\":13932:14101   */\n    tag_353:\n        /* \"#utility.yul\":14016:14027   */\n      0x00\n        /* \"#utility.yul\":14050:14056   */\n      dup3\n        /* \"#utility.yul\":14045:14048   */\n      dup3\n        /* \"#utility.yul\":14038:14057   */\n      mstore\n        /* \"#utility.yul\":14090:14094   */\n      0x20\n        /* \"#utility.yul\":14085:14088   */\n      dup3\n        /* \"#utility.yul\":14081:14095   */\n      add\n        /* \"#utility.yul\":14066:14095   */\n      swap1\n      pop\n        /* \"#utility.yul\":13932:14101   */\n      swap3\n      swap2\n      pop\n      pop\n      jump\t// out\n        /* \"#utility.yul\":14107:14285   */\n    tag_354:\n        /* \"#utility.yul\":14247:14277   */\n      0x6d73672e73656e646572206973206e6f742065746620726f7574657200000000\n        /* \"#utility.yul\":14243:14244   */\n      0x00\n        /* \"#utility.yul\":14235:14241   */\n      dup3\n        /* \"#utility.yul\":14231:14245   */\n      add\n        /* \"#utility.yul\":14224:14278   */\n      mstore\n        /* \"#utility.yul\":14107:14285   */\n      pop\n      jump\t// out\n        /* \"#utility.yul\":14291:14657   */\n    tag_355:\n        /* \"#utility.yul\":14433:14436   */\n      0x00\n        /* \"#utility.yul\":14454:14521   */\n      tag_583\n        /* \"#utility.yul\":14518:14520   */\n      0x1c\n        /* \"#utility.yul\":14513:14516   */\n      dup4\n        /* \"#utility.yul\":14454:14521   */\n      tag_353\n      jump\t// in\n    tag_583:\n        /* \"#utility.yul\":14447:14521   */\n      swap2\n      pop\n        /* \"#utility.yul\":14530:14623   */\n      tag_584\n        /* \"#utility.yul\":14619:14622   */\n      dup3\n        /* \"#utility.yul\":14530:14623   */\n      tag_354\n      jump\t// in\n    tag_584:\n        /* \"#utility.yul\":14648:14650   */\n      0x20\n        /* \"#utility.yul\":14643:14646   */\n      dup3\n        /* \"#utility.yul\":14639:14651   */\n      add\n        /* \"#utility.yul\":14632:14651   */\n      swap1\n      pop\n        /* \"#utility.yul\":14291:14657   */\n      swap2\n      swap1\n      pop\n      jump\t// out\n        /* \"#utility.yul\":14663:15082   */\n    tag_81:\n        /* \"#utility.yul\":14829:14833   */\n      0x00\n        /* \"#utility.yul\":14867:14869   */\n      0x20\n        /* \"#utility.yul\":14856:14865   */\n      dup3\n        /* \"#utility.yul\":14852:14870   */\n      add\n        /* \"#utility.yul\":14844:14870   */\n      swap1\n      pop\n        /* \"#utility.yul\":14916:14925   */\n      dup2\n        /* \"#utility.yul\":14910:14914   */\n      dup2\n        /* \"#utility.yul\":14906:14926   */\n      sub\n        /* \"#utility.yul\":14902:14903   */\n      0x00\n        /* \"#utility.yul\":14891:14900   */\n      dup4\n        /* \"#utility.yul\":14887:14904   */\n      add\n        /* \"#utility.yul\":14880:14927   */\n      mstore\n        /* \"#utility.yul\":14944:15075   */\n      tag_586\n        /* \"#utility.yul\":15070:15074   */\n      dup2\n        /* \"#utility.yul\":14944:15075   */\n      tag_355\n      jump\t// in\n    tag_586:\n        /* \"#utility.yul\":14936:15075   */\n      swap1\n      pop\n        /* \"#utility.yul\":14663:15082   */\n      swap2\n      swap1\n      pop\n      jump\t// out\n        /* \"#utility.yul\":15088:15231   */\n    tag_356:\n        /* \"#utility.yul\":15145:15150   */\n      0x00\n        /* \"#utility.yul\":15176:15182   */\n      dup2\n        /* \"#utility.yul\":15170:15183   */\n      mload\n        /* \"#utility.yul\":15161:15183   */\n      swap1\n      pop\n        /* \"#utility.yul\":15192:15225   */\n      tag_588\n        /* \"#utility.yul\":15219:15224   */\n      dup2\n        /* \"#utility.yul\":15192:15225   */\n      tag_317\n      jump\t// in\n    tag_588:\n        /* \"#utility.yul\":15088:15231   */\n      swap3\n      swap2\n      pop\n      pop\n      jump\t// out\n        /* \"#utility.yul\":15237:15588   */\n    tag_89:\n        /* \"#utility.yul\":15307:15313   */\n      0x00\n        /* \"#utility.yul\":15356:15358   */\n      0x20\n        /* \"#utility.yul\":15344:15353   */\n      dup3\n        /* \"#utility.yul\":15335:15342   */\n      dup5\n        /* \"#utility.yul\":15331:15354   */\n      sub\n        /* \"#utility.yul\":15327:15359   */\n      slt\n        /* \"#utility.yul\":15324:15443   */\n      iszero\n      tag_590\n      jumpi\n        /* \"#utility.yul\":15362:15441   */\n      tag_591\n      tag_314\n      jump\t// in\n    tag_591:\n        /* \"#utility.yul\":15324:15443   */\n    tag_590:\n        /* \"#utility.yul\":15482:15483   */\n      0x00\n        /* \"#utility.yul\":15507:15571   */\n      tag_592\n        /* \"#utility.yul\":15563:15570   */\n      dup5\n        /* \"#utility.yul\":15554:15560   */\n      dup3\n        /* \"#utility.yul\":15543:15552   */\n      dup6\n        /* \"#utility.yul\":15539:15561   */\n      add\n        /* \"#utility.yul\":15507:15571   */\n      tag_356\n      jump\t// in\n    tag_592:\n        /* \"#utility.yul\":15497:15571   */\n      swap2\n      pop\n        /* \"#utility.yul\":15453:15581   */\n      pop\n        /* \"#utility.yul\":15237:15588   */\n      swap3\n      swap2\n      pop\n      pop\n      jump\t// out\n        /* \"#utility.yul\":15594:15774   */\n    tag_357:\n        /* \"#utility.yul\":15642:15719   */\n      0x4e487b7100000000000000000000000000000000000000000000000000000000\n        /* \"#utility.yul\":15639:15640   */\n      0x00\n        /* \"#utility.yul\":15632:15720   */\n      mstore\n        /* \"#utility.yul\":15739:15743   */\n      0x11\n        /* \"#utility.yul\":15736:15737   */\n      0x04\n        /* \"#utility.yul\":15729:15744   */\n      mstore\n        /* \"#utility.yul\":15763:15767   */\n      0x24\n        /* \"#utility.yul\":15760:15761   */\n      0x00\n        /* \"#utility.yul\":15753:15768   */\n      revert\n        /* \"#utility.yul\":15780:16190   */\n    tag_92:\n        /* \"#utility.yul\":15820:15827   */\n      0x00\n        /* \"#utility.yul\":15843:15863   */\n      tag_595\n        /* \"#utility.yul\":15861:15862   */\n      dup3\n        /* \"#utility.yul\":15843:15863   */\n      tag_316\n      jump\t// in\n    tag_595:\n        /* \"#utility.yul\":15838:15863   */\n      swap2\n      pop\n        /* \"#utility.yul\":15877:15897   */\n      tag_596\n        /* \"#utility.yul\":15895:15896   */\n      dup4\n        /* \"#utility.yul\":15877:15897   */\n      tag_316\n      jump\t// in\n    tag_596:\n        /* \"#utility.yul\":15872:15897   */\n      swap3\n      pop\n        /* \"#utility.yul\":15932:15933   */\n      dup3\n        /* \"#utility.yul\":15929:15930   */\n      dup3\n        /* \"#utility.yul\":15925:15934   */\n      mul\n        /* \"#utility.yul\":15954:15984   */\n      tag_597\n        /* \"#utility.yul\":15972:15983   */\n      dup2\n        /* \"#utility.yul\":15954:15984   */\n      tag_316\n      jump\t// in\n    tag_597:\n        /* \"#utility.yul\":15943:15984   */\n      swap2\n      pop\n        /* \"#utility.yul\":16133:16134   */\n      dup3\n        /* \"#utility.yul\":16124:16131   */\n      dup3\n        /* \"#utility.yul\":16120:16135   */\n      div\n        /* \"#utility.yul\":16117:16118   */\n      dup5\n        /* \"#utility.yul\":16114:16136   */\n      eq\n        /* \"#utility.yul\":16094:16095   */\n      dup4\n        /* \"#utility.yul\":16087:16096   */\n      iszero\n        /* \"#utility.yul\":16067:16150   */\n      or\n        /* \"#utility.yul\":16044:16183   */\n      tag_598\n      jumpi\n        /* \"#utility.yul\":16163:16181   */\n      tag_599\n      tag_357\n      jump\t// in\n    tag_599:\n        /* \"#utility.yul\":16044:16183   */\n    tag_598:\n        /* \"#utility.yul\":15828:16190   */\n      pop\n        /* \"#utility.yul\":15780:16190   */\n      swap3\n      swap2\n      pop\n      pop\n      jump\t// out\n        /* \"#utility.yul\":16196:16376   */\n    tag_358:\n        /* \"#utility.yul\":16244:16321   */\n      0x4e487b7100000000000000000000000000000000000000000000000000000000\n        /* \"#utility.yul\":16241:16242   */\n      0x00\n        /* \"#utility.yul\":16234:16322   */\n      mstore\n        /* \"#utility.yul\":16341:16345   */\n      0x12\n        /* \"#utility.yul\":16338:16339   */\n      0x04\n        /* \"#utility.yul\":16331:16346   */\n      mstore\n        /* \"#utility.yul\":16365:16369   */\n      0x24\n        /* \"#utility.yul\":16362:16363   */\n      0x00\n        /* \"#utility.yul\":16355:16370   */\n      revert\n        /* \"#utility.yul\":16382:16567   */\n    tag_94:\n        /* \"#utility.yul\":16422:16423   */\n      0x00\n        /* \"#utility.yul\":16439:16459   */\n      tag_602\n        /* \"#utility.yul\":16457:16458   */\n      dup3\n        /* \"#utility.yul\":16439:16459   */\n      tag_316\n      jump\t// in\n    tag_602:\n        /* \"#utility.yul\":16434:16459   */\n      swap2\n      pop\n        /* \"#utility.yul\":16473:16493   */\n      tag_603\n        /* \"#utility.yul\":16491:16492   */\n      dup4\n        /* \"#utility.yul\":16473:16493   */\n      tag_316\n      jump\t// in\n    tag_603:\n        /* \"#utility.yul\":16468:16493   */\n      swap3\n      pop\n        /* \"#utility.yul\":16512:16513   */\n      dup3\n        /* \"#utility.yul\":16502:16537   */\n      tag_604\n      jumpi\n        /* \"#utility.yul\":16517:16535   */\n      tag_605\n      tag_358\n      jump\t// in\n    tag_605:\n        /* \"#utility.yul\":16502:16537   */\n    tag_604:\n        /* \"#utility.yul\":16559:16560   */\n      dup3\n        /* \"#utility.yul\":16556:16557   */\n      dup3\n        /* \"#utility.yul\":16552:16561   */\n      div\n        /* \"#utility.yul\":16547:16561   */\n      swap1\n      pop\n        /* \"#utility.yul\":16382:16567   */\n      swap3\n      swap2\n      pop\n      pop\n      jump\t// out\n        /* \"#utility.yul\":16573:16764   */\n    tag_96:\n        /* \"#utility.yul\":16613:16616   */\n      0x00\n        /* \"#utility.yul\":16632:16652   */\n      tag_607\n        /* \"#utility.yul\":16650:16651   */\n      dup3\n        /* \"#utility.yul\":16632:16652   */\n      tag_316\n      jump\t// in\n    tag_607:\n        /* \"#utility.yul\":16627:16652   */\n      swap2\n      pop\n        /* \"#utility.yul\":16666:16686   */\n      tag_608\n        /* \"#utility.yul\":16684:16685   */\n      dup4\n        /* \"#utility.yul\":16666:16686   */\n      tag_316\n      jump\t// in\n    tag_608:\n        /* \"#utility.yul\":16661:16686   */\n      swap3\n      pop\n        /* \"#utility.yul\":16709:16710   */\n      dup3\n        /* \"#utility.yul\":16706:16707   */\n      dup3\n        /* \"#utility.yul\":16702:16711   */\n      add\n        /* \"#utility.yul\":16695:16711   */\n      swap1\n      pop\n        /* \"#utility.yul\":16730:16733   */\n      dup1\n        /* \"#utility.yul\":16727:16728   */\n      dup3\n        /* \"#utility.yul\":16724:16734   */\n      gt\n        /* \"#utility.yul\":16721:16757   */\n      iszero\n      tag_609\n      jumpi\n        /* \"#utility.yul\":16737:16755   */\n      tag_610\n      tag_357\n      jump\t// in\n    tag_610:\n        /* \"#utility.yul\":16721:16757   */\n    tag_609:\n        /* \"#utility.yul\":16573:16764   */\n      swap3\n      swap2\n      pop\n      pop\n      jump\t// out\n        /* \"#utility.yul\":16770:17147   */\n    tag_359:\n        /* \"#utility.yul\":16858:16861   */\n      0x00\n        /* \"#utility.yul\":16886:16925   */\n      tag_612\n        /* \"#utility.yul\":16919:16924   */\n      dup3\n        /* \"#utility.yul\":16886:16925   */\n      tag_328\n      jump\t// in\n    tag_612:\n        /* \"#utility.yul\":16941:17012   */\n      tag_613\n        /* \"#utility.yul\":17005:17011   */\n      dup2\n        /* \"#utility.yul\":17000:17003   */\n      dup6\n        /* \"#utility.yul\":16941:17012   */\n      tag_353\n      jump\t// in\n    tag_613:\n        /* \"#utility.yul\":16934:17012   */\n      swap4\n      pop\n        /* \"#utility.yul\":17021:17086   */\n      tag_614\n        /* \"#utility.yul\":17079:17085   */\n      dup2\n        /* \"#utility.yul\":17074:17077   */\n      dup6\n        /* \"#utility.yul\":17067:17071   */\n      0x20\n        /* \"#utility.yul\":17060:17065   */\n      dup7\n        /* \"#utility.yul\":17056:17072   */\n      add\n        /* \"#utility.yul\":17021:17086   */\n      tag_330\n      jump\t// in\n    tag_614:\n        /* \"#utility.yul\":17111:17140   */\n      tag_615\n        /* \"#utility.yul\":17133:17139   */\n      dup2\n        /* \"#utility.yul\":17111:17140   */\n      tag_321\n      jump\t// in\n    tag_615:\n        /* \"#utility.yul\":17106:17109   */\n      dup5\n        /* \"#utility.yul\":17102:17141   */\n      add\n        /* \"#utility.yul\":17095:17141   */\n      swap2\n      pop\n        /* \"#utility.yul\":16862:17147   */\n      pop\n        /* \"#utility.yul\":16770:17147   */\n      swap3\n      swap2\n      pop\n      pop\n      jump\t// out\n        /* \"#utility.yul\":17153:17466   */\n    tag_100:\n        /* \"#utility.yul\":17266:17270   */\n      0x00\n        /* \"#utility.yul\":17304:17306   */\n      0x20\n        /* \"#utility.yul\":17293:17302   */\n      dup3\n        /* \"#utility.yul\":17289:17307   */\n      add\n        /* \"#utility.yul\":17281:17307   */\n      swap1\n      pop\n        /* \"#utility.yul\":17353:17362   */\n      dup2\n        /* \"#utility.yul\":17347:17351   */\n      dup2\n        /* \"#utility.yul\":17343:17363   */\n      sub\n        /* \"#utility.yul\":17339:17340   */\n      0x00\n        /* \"#utility.yul\":17328:17337   */\n      dup4\n        /* \"#utility.yul\":17324:17341   */\n      add\n        /* \"#utility.yul\":17317:17364   */\n      mstore\n        /* \"#utility.yul\":17381:17459   */\n      tag_617\n        /* \"#utility.yul\":17454:17458   */\n      dup2\n        /* \"#utility.yul\":17445:17451   */\n      dup5\n        /* \"#utility.yul\":17381:17459   */\n      tag_359\n      jump\t// in\n    tag_617:\n        /* \"#utility.yul\":17373:17459   */\n      swap1\n      pop\n        /* \"#utility.yul\":17153:17466   */\n      swap3\n      swap2\n      pop\n      pop\n      jump\t// out\n        /* \"#utility.yul\":17472:17615   */\n    tag_360:\n        /* \"#utility.yul\":17529:17534   */\n      0x00\n        /* \"#utility.yul\":17560:17566   */\n      dup2\n        /* \"#utility.yul\":17554:17567   */\n      mload\n        /* \"#utility.yul\":17545:17567   */\n      swap1\n      pop\n        /* \"#utility.yul\":17576:17609   */\n      tag_619\n        /* \"#utility.yul\":17603:17608   */\n      dup2\n        /* \"#utility.yul\":17576:17609   */\n      tag_348\n      jump\t// in\n    tag_619:\n        /* \"#utility.yul\":17472:17615   */\n      swap3\n      swap2\n      pop\n      pop\n      jump\t// out\n        /* \"#utility.yul\":17621:17972   */\n    tag_104:\n        /* \"#utility.yul\":17691:17697   */\n      0x00\n        /* \"#utility.yul\":17740:17742   */\n      0x20\n        /* \"#utility.yul\":17728:17737   */\n      dup3\n        /* \"#utility.yul\":17719:17726   */\n      dup5\n        /* \"#utility.yul\":17715:17738   */\n      sub\n        /* \"#utility.yul\":17711:17743   */\n      slt\n        /* \"#utility.yul\":17708:17827   */\n      iszero\n      tag_621\n      jumpi\n        /* \"#utility.yul\":17746:17825   */\n      tag_622\n      tag_314\n      jump\t// in\n    tag_622:\n        /* \"#utility.yul\":17708:17827   */\n    tag_621:\n        /* \"#utility.yul\":17866:17867   */\n      0x00\n        /* \"#utility.yul\":17891:17955   */\n      tag_623\n        /* \"#utility.yul\":17947:17954   */\n      dup5\n        /* \"#utility.yul\":17938:17944   */\n      dup3\n        /* \"#utility.yul\":17927:17936   */\n      dup6\n        /* \"#utility.yul\":17923:17945   */\n      add\n        /* \"#utility.yul\":17891:17955   */\n      tag_360\n      jump\t// in\n    tag_623:\n        /* \"#utility.yul\":17881:17955   */\n      swap2\n      pop\n        /* \"#utility.yul\":17837:17965   */\n      pop\n        /* \"#utility.yul\":17621:17972   */\n      swap3\n      swap2\n      pop\n      pop\n      jump\t// out\n        /* \"#utility.yul\":17978:18151   */\n    tag_361:\n        /* \"#utility.yul\":18118:18143   */\n      0x43616c6c6572206973206e6f7420746865206f776e6572000000000000000000\n        /* \"#utility.yul\":18114:18115   */\n      0x00\n        /* \"#utility.yul\":18106:18112   */\n      dup3\n        /* \"#utility.yul\":18102:18116   */\n      add\n        /* \"#utility.yul\":18095:18144   */\n      mstore\n        /* \"#utility.yul\":17978:18151   */\n      pop\n      jump\t// out\n        /* \"#utility.yul\":18157:18523   */\n    tag_362:\n        /* \"#utility.yul\":18299:18302   */\n      0x00\n        /* \"#utility.yul\":18320:18387   */\n      tag_626\n        /* \"#utility.yul\":18384:18386   */\n      0x17\n        /* \"#utility.yul\":18379:18382   */\n      dup4\n        /* \"#utility.yul\":18320:18387   */\n      tag_353\n      jump\t// in\n    tag_626:\n        /* \"#utility.yul\":18313:18387   */\n      swap2\n      pop\n        /* \"#utility.yul\":18396:18489   */\n      tag_627\n        /* \"#utility.yul\":18485:18488   */\n      dup3\n        /* \"#utility.yul\":18396:18489   */\n      tag_361\n      jump\t// in\n    tag_627:\n        /* \"#utility.yul\":18514:18516   */\n      0x20\n        /* \"#utility.yul\":18509:18512   */\n      dup3\n        /* \"#utility.yul\":18505:18517   */\n      add\n        /* \"#utility.yul\":18498:18517   */\n      swap1\n      pop\n        /* \"#utility.yul\":18157:18523   */\n      swap2\n      swap1\n      pop\n      jump\t// out\n        /* \"#utility.yul\":18529:18948   */\n    tag_127:\n        /* \"#utility.yul\":18695:18699   */\n      0x00\n        /* \"#utility.yul\":18733:18735   */\n      0x20\n        /* \"#utility.yul\":18722:18731   */\n      dup3\n        /* \"#utility.yul\":18718:18736   */\n      add\n        /* \"#utility.yul\":18710:18736   */\n      swap1\n      pop\n        /* \"#utility.yul\":18782:18791   */\n      dup2\n        /* \"#utility.yul\":18776:18780   */\n      dup2\n        /* \"#utility.yul\":18772:18792   */\n      sub\n        /* \"#utility.yul\":18768:18769   */\n      0x00\n        /* \"#utility.yul\":18757:18766   */\n      dup4\n        /* \"#utility.yul\":18753:18770   */\n      add\n        /* \"#utility.yul\":18746:18793   */\n      mstore\n        /* \"#utility.yul\":18810:18941   */\n      tag_629\n        /* \"#utility.yul\":18936:18940   */\n      dup2\n        /* \"#utility.yul\":18810:18941   */\n      tag_362\n      jump\t// in\n    tag_629:\n        /* \"#utility.yul\":18802:18941   */\n      swap1\n      pop\n        /* \"#utility.yul\":18529:18948   */\n      swap2\n      swap1\n      pop\n      jump\t// out\n        /* \"#utility.yul\":18954:19134   */\n    tag_140:\n        /* \"#utility.yul\":19002:19079   */\n      0x4e487b7100000000000000000000000000000000000000000000000000000000\n        /* \"#utility.yul\":18999:19000   */\n      0x00\n        /* \"#utility.yul\":18992:19080   */\n      mstore\n        /* \"#utility.yul\":19099:19103   */\n      0x32\n        /* \"#utility.yul\":19096:19097   */\n      0x04\n        /* \"#utility.yul\":19089:19104   */\n      mstore\n        /* \"#utility.yul\":19123:19127   */\n      0x24\n        /* \"#utility.yul\":19120:19121   */\n      0x00\n        /* \"#utility.yul\":19113:19128   */\n      revert\n        /* \"#utility.yul\":19140:19320   */\n    tag_363:\n        /* \"#utility.yul\":19188:19265   */\n      0x4e487b7100000000000000000000000000000000000000000000000000000000\n        /* \"#utility.yul\":19185:19186   */\n      0x00\n        /* \"#utility.yul\":19178:19266   */\n      mstore\n        /* \"#utility.yul\":19285:19289   */\n      0x22\n        /* \"#utility.yul\":19282:19283   */\n      0x04\n        /* \"#utility.yul\":19275:19290   */\n      mstore\n        /* \"#utility.yul\":19309:19313   */\n      0x24\n        /* \"#utility.yul\":19306:19307   */\n      0x00\n        /* \"#utility.yul\":19299:19314   */\n      revert\n        /* \"#utility.yul\":19326:19646   */\n    tag_143:\n        /* \"#utility.yul\":19370:19376   */\n      0x00\n        /* \"#utility.yul\":19407:19408   */\n      0x02\n        /* \"#utility.yul\":19401:19405   */\n      dup3\n        /* \"#utility.yul\":19397:19409   */\n      div\n        /* \"#utility.yul\":19387:19409   */\n      swap1\n      pop\n        /* \"#utility.yul\":19454:19455   */\n      0x01\n        /* \"#utility.yul\":19448:19452   */\n      dup3\n        /* \"#utility.yul\":19444:19456   */\n      and\n        /* \"#utility.yul\":19475:19493   */\n      dup1\n        /* \"#utility.yul\":19465:19546   */\n      tag_633\n      jumpi\n        /* \"#utility.yul\":19531:19535   */\n      0x7f\n        /* \"#utility.yul\":19523:19529   */\n      dup3\n        /* \"#utility.yul\":19519:19536   */\n      and\n        /* \"#utility.yul\":19509:19536   */\n      swap2\n      pop\n        /* \"#utility.yul\":19465:19546   */\n    tag_633:\n        /* \"#utility.yul\":19593:19595   */\n      0x20\n        /* \"#utility.yul\":19585:19591   */\n      dup3\n        /* \"#utility.yul\":19582:19596   */\n      lt\n        /* \"#utility.yul\":19562:19580   */\n      dup2\n        /* \"#utility.yul\":19559:19597   */\n      sub\n        /* \"#utility.yul\":19556:19640   */\n      tag_634\n      jumpi\n        /* \"#utility.yul\":19612:19630   */\n      tag_635\n      tag_363\n      jump\t// in\n    tag_635:\n        /* \"#utility.yul\":19556:19640   */\n    tag_634:\n        /* \"#utility.yul\":19377:19646   */\n      pop\n        /* \"#utility.yul\":19326:19646   */\n      swap2\n      swap1\n      pop\n      jump\t// out\n        /* \"#utility.yul\":19652:19769   */\n    tag_364:\n        /* \"#utility.yul\":19761:19762   */\n      0x00\n        /* \"#utility.yul\":19758:19759   */\n      0x00\n        /* \"#utility.yul\":19751:19763   */\n      revert\n        /* \"#utility.yul\":19775:19892   */\n    tag_365:\n        /* \"#utility.yul\":19884:19885   */\n      0x00\n        /* \"#utility.yul\":19881:19882   */\n      0x00\n        /* \"#utility.yul\":19874:19886   */\n      revert\n        /* \"#utility.yul\":19898:20015   */\n    tag_366:\n        /* \"#utility.yul\":20007:20008   */\n      0x00\n        /* \"#utility.yul\":20004:20005   */\n      0x00\n        /* \"#utility.yul\":19997:20009   */\n      revert\n        /* \"#utility.yul\":20021:20746   */\n    tag_170:\n        /* \"#utility.yul\":20099:20103   */\n      0x00\n        /* \"#utility.yul\":20105:20111   */\n      0x00\n        /* \"#utility.yul\":20161:20172   */\n      dup4\n        /* \"#utility.yul\":20148:20173   */\n      calldataload\n        /* \"#utility.yul\":20261:20262   */\n      0x01\n        /* \"#utility.yul\":20255:20259   */\n      0x20\n        /* \"#utility.yul\":20251:20263   */\n      sub\n        /* \"#utility.yul\":20240:20248   */\n      dup5\n        /* \"#utility.yul\":20224:20238   */\n      calldatasize\n        /* \"#utility.yul\":20220:20249   */\n      sub\n        /* \"#utility.yul\":20216:20264   */\n      sub\n        /* \"#utility.yul\":20196:20214   */\n      dup2\n        /* \"#utility.yul\":20192:20265   */\n      slt\n        /* \"#utility.yul\":20182:20350   */\n      tag_640\n      jumpi\n        /* \"#utility.yul\":20269:20348   */\n      tag_641\n      tag_364\n      jump\t// in\n    tag_641:\n        /* \"#utility.yul\":20182:20350   */\n    tag_640:\n        /* \"#utility.yul\":20381:20399   */\n      dup1\n        /* \"#utility.yul\":20371:20379   */\n      dup5\n        /* \"#utility.yul\":20367:20400   */\n      add\n        /* \"#utility.yul\":20359:20400   */\n      swap3\n      pop\n        /* \"#utility.yul\":20433:20437   */\n      dup3\n        /* \"#utility.yul\":20420:20438   */\n      calldataload\n        /* \"#utility.yul\":20410:20438   */\n      swap2\n      pop\n        /* \"#utility.yul\":20461:20479   */\n      0xffffffffffffffff\n        /* \"#utility.yul\":20453:20459   */\n      dup3\n        /* \"#utility.yul\":20450:20480   */\n      gt\n        /* \"#utility.yul\":20447:20564   */\n      iszero\n      tag_642\n      jumpi\n        /* \"#utility.yul\":20483:20562   */\n      tag_643\n      tag_365\n      jump\t// in\n    tag_643:\n        /* \"#utility.yul\":20447:20564   */\n    tag_642:\n        /* \"#utility.yul\":20591:20593   */\n      0x20\n        /* \"#utility.yul\":20585:20589   */\n      dup4\n        /* \"#utility.yul\":20581:20594   */\n      add\n        /* \"#utility.yul\":20573:20594   */\n      swap3\n      pop\n        /* \"#utility.yul\":20648:20652   */\n      0x01\n        /* \"#utility.yul\":20640:20646   */\n      dup3\n        /* \"#utility.yul\":20636:20653   */\n      mul\n        /* \"#utility.yul\":20620:20634   */\n      calldatasize\n        /* \"#utility.yul\":20616:20654   */\n      sub\n        /* \"#utility.yul\":20610:20614   */\n      dup4\n        /* \"#utility.yul\":20606:20655   */\n      sgt\n        /* \"#utility.yul\":20603:20739   */\n      iszero\n      tag_644\n      jumpi\n        /* \"#utility.yul\":20658:20737   */\n      tag_645\n      tag_366\n      jump\t// in\n    tag_645:\n        /* \"#utility.yul\":20603:20739   */\n    tag_644:\n        /* \"#utility.yul\":20112:20746   */\n      pop\n        /* \"#utility.yul\":20021:20746   */\n      swap3\n      pop\n      swap3\n      swap1\n      pop\n      jump\t// out\n        /* \"#utility.yul\":20776:21093   */\n    tag_367:\n        /* \"#utility.yul\":20874:20877   */\n      0x00\n        /* \"#utility.yul\":20895:20966   */\n      tag_647\n        /* \"#utility.yul\":20959:20965   */\n      dup4\n        /* \"#utility.yul\":20954:20957   */\n      dup6\n        /* \"#utility.yul\":20895:20966   */\n      tag_353\n      jump\t// in\n    tag_647:\n        /* \"#utility.yul\":20888:20966   */\n      swap4\n      pop\n        /* \"#utility.yul\":20976:21032   */\n      tag_648\n        /* \"#utility.yul\":21025:21031   */\n      dup4\n        /* \"#utility.yul\":21020:21023   */\n      dup6\n        /* \"#utility.yul\":21013:21018   */\n      dup5\n        /* \"#utility.yul\":20976:21032   */\n      tag_325\n      jump\t// in\n    tag_648:\n        /* \"#utility.yul\":21057:21086   */\n      tag_649\n        /* \"#utility.yul\":21079:21085   */\n      dup4\n        /* \"#utility.yul\":21057:21086   */\n      tag_321\n      jump\t// in\n    tag_649:\n        /* \"#utility.yul\":21052:21055   */\n      dup5\n        /* \"#utility.yul\":21048:21087   */\n      add\n        /* \"#utility.yul\":21041:21087   */\n      swap1\n      pop\n        /* \"#utility.yul\":20776:21093   */\n      swap4\n      swap3\n      pop\n      pop\n      pop\n      jump\t// out\n        /* \"#utility.yul\":21099:21763   */\n    tag_173:\n        /* \"#utility.yul\":21308:21312   */\n      0x00\n        /* \"#utility.yul\":21346:21348   */\n      0x60\n        /* \"#utility.yul\":21335:21344   */\n      dup3\n        /* \"#utility.yul\":21331:21349   */\n      add\n        /* \"#utility.yul\":21323:21349   */\n      swap1\n      pop\n        /* \"#utility.yul\":21359:21430   */\n      tag_651\n        /* \"#utility.yul\":21427:21428   */\n      0x00\n        /* \"#utility.yul\":21416:21425   */\n      dup4\n        /* \"#utility.yul\":21412:21429   */\n      add\n        /* \"#utility.yul\":21403:21409   */\n      dup9\n        /* \"#utility.yul\":21359:21430   */\n      tag_350\n      jump\t// in\n    tag_651:\n        /* \"#utility.yul\":21477:21486   */\n      dup2\n        /* \"#utility.yul\":21471:21475   */\n      dup2\n        /* \"#utility.yul\":21467:21487   */\n      sub\n        /* \"#utility.yul\":21462:21464   */\n      0x20\n        /* \"#utility.yul\":21451:21460   */\n      dup4\n        /* \"#utility.yul\":21447:21465   */\n      add\n        /* \"#utility.yul\":21440:21488   */\n      mstore\n        /* \"#utility.yul\":21505:21593   */\n      tag_652\n        /* \"#utility.yul\":21588:21592   */\n      dup2\n        /* \"#utility.yul\":21579:21585   */\n      dup7\n        /* \"#utility.yul\":21571:21577   */\n      dup9\n        /* \"#utility.yul\":21505:21593   */\n      tag_367\n      jump\t// in\n    tag_652:\n        /* \"#utility.yul\":21497:21593   */\n      swap1\n      pop\n        /* \"#utility.yul\":21640:21649   */\n      dup2\n        /* \"#utility.yul\":21634:21638   */\n      dup2\n        /* \"#utility.yul\":21630:21650   */\n      sub\n        /* \"#utility.yul\":21625:21627   */\n      0x40\n        /* \"#utility.yul\":21614:21623   */\n      dup4\n        /* \"#utility.yul\":21610:21628   */\n      add\n        /* \"#utility.yul\":21603:21651   */\n      mstore\n        /* \"#utility.yul\":21668:21756   */\n      tag_653\n        /* \"#utility.yul\":21751:21755   */\n      dup2\n        /* \"#utility.yul\":21742:21748   */\n      dup5\n        /* \"#utility.yul\":21734:21740   */\n      dup7\n        /* \"#utility.yul\":21668:21756   */\n      tag_367\n      jump\t// in\n    tag_653:\n        /* \"#utility.yul\":21660:21756   */\n      swap1\n      pop\n        /* \"#utility.yul\":21099:21763   */\n      swap7\n      swap6\n      pop\n      pop\n      pop\n      pop\n      pop\n      pop\n      jump\t// out\n        /* \"#utility.yul\":21769:22101   */\n    tag_183:\n        /* \"#utility.yul\":21890:21894   */\n      0x00\n        /* \"#utility.yul\":21928:21930   */\n      0x40\n        /* \"#utility.yul\":21917:21926   */\n      dup3\n        /* \"#utility.yul\":21913:21931   */\n      add\n        /* \"#utility.yul\":21905:21931   */\n      swap1\n      pop\n        /* \"#utility.yul\":21941:22012   */\n      tag_655\n        /* \"#utility.yul\":22009:22010   */\n      0x00\n        /* \"#utility.yul\":21998:22007   */\n      dup4\n        /* \"#utility.yul\":21994:22011   */\n      add\n        /* \"#utility.yul\":21985:21991   */\n      dup6\n        /* \"#utility.yul\":21941:22012   */\n      tag_312\n      jump\t// in\n    tag_655:\n        /* \"#utility.yul\":22022:22094   */\n      tag_656\n        /* \"#utility.yul\":22090:22092   */\n      0x20\n        /* \"#utility.yul\":22079:22088   */\n      dup4\n        /* \"#utility.yul\":22075:22093   */\n      add\n        /* \"#utility.yul\":22066:22072   */\n      dup5\n        /* \"#utility.yul\":22022:22094   */\n      tag_312\n      jump\t// in\n    tag_656:\n        /* \"#utility.yul\":21769:22101   */\n      swap4\n      swap3\n      pop\n      pop\n      pop\n      jump\t// out\n        /* \"#utility.yul\":22107:22289   */\n    tag_368:\n        /* \"#utility.yul\":22247:22281   */\n      0x4469726563746f72792063616e6e6f74206265207a65726f2061646472657373\n        /* \"#utility.yul\":22243:22244   */\n      0x00\n        /* \"#utility.yul\":22235:22241   */\n      dup3\n        /* \"#utility.yul\":22231:22245   */\n      add\n        /* \"#utility.yul\":22224:22282   */\n      mstore\n        /* \"#utility.yul\":22107:22289   */\n      pop\n      jump\t// out\n        /* \"#utility.yul\":22295:22661   */\n    tag_369:\n        /* \"#utility.yul\":22437:22440   */\n      0x00\n        /* \"#utility.yul\":22458:22525   */\n      tag_659\n        /* \"#utility.yul\":22522:22524   */\n      0x20\n        /* \"#utility.yul\":22517:22520   */\n      dup4\n        /* \"#utility.yul\":22458:22525   */\n      tag_353\n      jump\t// in\n    tag_659:\n        /* \"#utility.yul\":22451:22525   */\n      swap2\n      pop\n        /* \"#utility.yul\":22534:22627   */\n      tag_660\n        /* \"#utility.yul\":22623:22626   */\n      dup3\n        /* \"#utility.yul\":22534:22627   */\n      tag_368\n      jump\t// in\n    tag_660:\n        /* \"#utility.yul\":22652:22654   */\n      0x20\n        /* \"#utility.yul\":22647:22650   */\n      dup3\n        /* \"#utility.yul\":22643:22655   */\n      add\n        /* \"#utility.yul\":22636:22655   */\n      swap1\n      pop\n        /* \"#utility.yul\":22295:22661   */\n      swap2\n      swap1\n      pop\n      jump\t// out\n        /* \"#utility.yul\":22667:23086   */\n    tag_189:\n        /* \"#utility.yul\":22833:22837   */\n      0x00\n        /* \"#utility.yul\":22871:22873   */\n      0x20\n        /* \"#utility.yul\":22860:22869   */\n      dup3\n        /* \"#utility.yul\":22856:22874   */\n      add\n        /* \"#utility.yul\":22848:22874   */\n      swap1\n      pop\n        /* \"#utility.yul\":22920:22929   */\n      dup2\n        /* \"#utility.yul\":22914:22918   */\n      dup2\n        /* \"#utility.yul\":22910:22930   */\n      sub\n        /* \"#utility.yul\":22906:22907   */\n      0x00\n        /* \"#utility.yul\":22895:22904   */\n      dup4\n        /* \"#utility.yul\":22891:22908   */\n      add\n        /* \"#utility.yul\":22884:22931   */\n      mstore\n        /* \"#utility.yul\":22948:23079   */\n      tag_662\n        /* \"#utility.yul\":23074:23078   */\n      dup2\n        /* \"#utility.yul\":22948:23079   */\n      tag_369\n      jump\t// in\n    tag_662:\n        /* \"#utility.yul\":22940:23079   */\n      swap1\n      pop\n        /* \"#utility.yul\":22667:23086   */\n      swap2\n      swap1\n      pop\n      jump\t// out\n        /* \"#utility.yul\":23092:23270   */\n    tag_370:\n        /* \"#utility.yul\":23232:23262   */\n      0x4469726563746f7279206d757374206265206120636f6e747261637400000000\n        /* \"#utility.yul\":23228:23229   */\n      0x00\n        /* \"#utility.yul\":23220:23226   */\n      dup3\n        /* \"#utility.yul\":23216:23230   */\n      add\n        /* \"#utility.yul\":23209:23263   */\n      mstore\n        /* \"#utility.yul\":23092:23270   */\n      pop\n      jump\t// out\n        /* \"#utility.yul\":23276:23642   */\n    tag_371:\n        /* \"#utility.yul\":23418:23421   */\n      0x00\n        /* \"#utility.yul\":23439:23506   */\n      tag_665\n        /* \"#utility.yul\":23503:23505   */\n      0x1c\n        /* \"#utility.yul\":23498:23501   */\n      dup4\n        /* \"#utility.yul\":23439:23506   */\n      tag_353\n      jump\t// in\n    tag_665:\n        /* \"#utility.yul\":23432:23506   */\n      swap2\n      pop\n        /* \"#utility.yul\":23515:23608   */\n      tag_666\n        /* \"#utility.yul\":23604:23607   */\n      dup3\n        /* \"#utility.yul\":23515:23608   */\n      tag_370\n      jump\t// in\n    tag_666:\n        /* \"#utility.yul\":23633:23635   */\n      0x20\n        /* \"#utility.yul\":23628:23631   */\n      dup3\n        /* \"#utility.yul\":23624:23636   */\n      add\n        /* \"#utility.yul\":23617:23636   */\n      swap1\n      pop\n        /* \"#utility.yul\":23276:23642   */\n      swap2\n      swap1\n      pop\n      jump\t// out\n        /* \"#utility.yul\":23648:24067   */\n    tag_192:\n        /* \"#utility.yul\":23814:23818   */\n      0x00\n        /* \"#utility.yul\":23852:23854   */\n      0x20\n        /* \"#utility.yul\":23841:23850   */\n      dup3\n        /* \"#utility.yul\":23837:23855   */\n      add\n        /* \"#utility.yul\":23829:23855   */\n      swap1\n      pop\n        /* \"#utility.yul\":23901:23910   */\n      dup2\n        /* \"#utility.yul\":23895:23899   */\n      dup2\n        /* \"#utility.yul\":23891:23911   */\n      sub\n        /* \"#utility.yul\":23887:23888   */\n      0x00\n        /* \"#utility.yul\":23876:23885   */\n      dup4\n        /* \"#utility.yul\":23872:23889   */\n      add\n        /* \"#utility.yul\":23865:23912   */\n      mstore\n        /* \"#utility.yul\":23929:24060   */\n      tag_668\n        /* \"#utility.yul\":24055:24059   */\n      dup2\n        /* \"#utility.yul\":23929:24060   */\n      tag_371\n      jump\t// in\n    tag_668:\n        /* \"#utility.yul\":23921:24060   */\n      swap1\n      pop\n        /* \"#utility.yul\":23648:24067   */\n      swap2\n      swap1\n      pop\n      jump\t// out\n        /* \"#utility.yul\":24073:24304   */\n    tag_372:\n        /* \"#utility.yul\":24213:24247   */\n      0x4469726563746f7279206164647265737320646f6573206e6f7420696d706c65\n        /* \"#utility.yul\":24209:24210   */\n      0x00\n        /* \"#utility.yul\":24201:24207   */\n      dup3\n        /* \"#utility.yul\":24197:24211   */\n      add\n        /* \"#utility.yul\":24190:24248   */\n      mstore\n        /* \"#utility.yul\":24282:24296   */\n      0x6d656e74206f776e657228290000000000000000000000000000000000000000\n        /* \"#utility.yul\":24277:24279   */\n      0x20\n        /* \"#utility.yul\":24269:24275   */\n      dup3\n        /* \"#utility.yul\":24265:24280   */\n      add\n        /* \"#utility.yul\":24258:24297   */\n      mstore\n        /* \"#utility.yul\":24073:24304   */\n      pop\n      jump\t// out\n        /* \"#utility.yul\":24310:24676   */\n    tag_373:\n        /* \"#utility.yul\":24452:24455   */\n      0x00\n        /* \"#utility.yul\":24473:24540   */\n      tag_671\n        /* \"#utility.yul\":24537:24539   */\n      0x2c\n        /* \"#utility.yul\":24532:24535   */\n      dup4\n        /* \"#utility.yul\":24473:24540   */\n      tag_353\n      jump\t// in\n    tag_671:\n        /* \"#utility.yul\":24466:24540   */\n      swap2\n      pop\n        /* \"#utility.yul\":24549:24642   */\n      tag_672\n        /* \"#utility.yul\":24638:24641   */\n      dup3\n        /* \"#utility.yul\":24549:24642   */\n      tag_372\n      jump\t// in\n    tag_672:\n        /* \"#utility.yul\":24667:24669   */\n      0x40\n        /* \"#utility.yul\":24662:24665   */\n      dup3\n        /* \"#utility.yul\":24658:24670   */\n      add\n        /* \"#utility.yul\":24651:24670   */\n      swap1\n      pop\n        /* \"#utility.yul\":24310:24676   */\n      swap2\n      swap1\n      pop\n      jump\t// out\n        /* \"#utility.yul\":24682:25101   */\n    tag_200:\n        /* \"#utility.yul\":24848:24852   */\n      0x00\n        /* \"#utility.yul\":24886:24888   */\n      0x20\n        /* \"#utility.yul\":24875:24884   */\n      dup3\n        /* \"#utility.yul\":24871:24889   */\n      add\n        /* \"#utility.yul\":24863:24889   */\n      swap1\n      pop\n        /* \"#utility.yul\":24935:24944   */\n      dup2\n        /* \"#utility.yul\":24929:24933   */\n      dup2\n        /* \"#utility.yul\":24925:24945   */\n      sub\n        /* \"#utility.yul\":24921:24922   */\n      0x00\n        /* \"#utility.yul\":24910:24919   */\n      dup4\n        /* \"#utility.yul\":24906:24923   */\n      add\n        /* \"#utility.yul\":24899:24946   */\n      mstore\n        /* \"#utility.yul\":24963:25094   */\n      tag_674\n        /* \"#utility.yul\":25089:25093   */\n      dup2\n        /* \"#utility.yul\":24963:25094   */\n      tag_373\n      jump\t// in\n    tag_674:\n        /* \"#utility.yul\":24955:25094   */\n      swap1\n      pop\n        /* \"#utility.yul\":24682:25101   */\n      swap2\n      swap1\n      pop\n      jump\t// out\n        /* \"#utility.yul\":25107:25301   */\n    tag_204:\n        /* \"#utility.yul\":25147:25151   */\n      0x00\n        /* \"#utility.yul\":25167:25187   */\n      tag_676\n        /* \"#utility.yul\":25185:25186   */\n      dup3\n        /* \"#utility.yul\":25167:25187   */\n      tag_316\n      jump\t// in\n    tag_676:\n        /* \"#utility.yul\":25162:25187   */\n      swap2\n      pop\n        /* \"#utility.yul\":25201:25221   */\n      tag_677\n        /* \"#utility.yul\":25219:25220   */\n      dup4\n        /* \"#utility.yul\":25201:25221   */\n      tag_316\n      jump\t// in\n    tag_677:\n        /* \"#utility.yul\":25196:25221   */\n      swap3\n      pop\n        /* \"#utility.yul\":25245:25246   */\n      dup3\n        /* \"#utility.yul\":25242:25243   */\n      dup3\n        /* \"#utility.yul\":25238:25247   */\n      sub\n        /* \"#utility.yul\":25230:25247   */\n      swap1\n      pop\n        /* \"#utility.yul\":25269:25270   */\n      dup2\n        /* \"#utility.yul\":25263:25267   */\n      dup2\n        /* \"#utility.yul\":25260:25271   */\n      gt\n        /* \"#utility.yul\":25257:25294   */\n      iszero\n      tag_678\n      jumpi\n        /* \"#utility.yul\":25274:25292   */\n      tag_679\n      tag_357\n      jump\t// in\n    tag_679:\n        /* \"#utility.yul\":25257:25294   */\n    tag_678:\n        /* \"#utility.yul\":25107:25301   */\n      swap3\n      swap2\n      pop\n      pop\n      jump\t// out\n        /* \"#utility.yul\":25307:26072   */\n    tag_211:\n        /* \"#utility.yul\":25425:25429   */\n      0x00\n        /* \"#utility.yul\":25431:25437   */\n      0x00\n        /* \"#utility.yul\":25487:25498   */\n      dup4\n        /* \"#utility.yul\":25474:25499   */\n      calldataload\n        /* \"#utility.yul\":25587:25588   */\n      0x01\n        /* \"#utility.yul\":25581:25585   */\n      0x20\n        /* \"#utility.yul\":25577:25589   */\n      sub\n        /* \"#utility.yul\":25566:25574   */\n      dup5\n        /* \"#utility.yul\":25550:25564   */\n      calldatasize\n        /* \"#utility.yul\":25546:25575   */\n      sub\n        /* \"#utility.yul\":25542:25590   */\n      sub\n        /* \"#utility.yul\":25522:25540   */\n      dup2\n        /* \"#utility.yul\":25518:25591   */\n      slt\n        /* \"#utility.yul\":25508:25676   */\n      tag_681\n      jumpi\n        /* \"#utility.yul\":25595:25674   */\n      tag_682\n      tag_364\n      jump\t// in\n    tag_682:\n        /* \"#utility.yul\":25508:25676   */\n    tag_681:\n        /* \"#utility.yul\":25707:25725   */\n      dup1\n        /* \"#utility.yul\":25697:25705   */\n      dup5\n        /* \"#utility.yul\":25693:25726   */\n      add\n        /* \"#utility.yul\":25685:25726   */\n      swap3\n      pop\n        /* \"#utility.yul\":25759:25763   */\n      dup3\n        /* \"#utility.yul\":25746:25764   */\n      calldataload\n        /* \"#utility.yul\":25736:25764   */\n      swap2\n      pop\n        /* \"#utility.yul\":25787:25805   */\n      0xffffffffffffffff\n        /* \"#utility.yul\":25779:25785   */\n      dup3\n        /* \"#utility.yul\":25776:25806   */\n      gt\n        /* \"#utility.yul\":25773:25890   */\n      iszero\n      tag_683\n      jumpi\n        /* \"#utility.yul\":25809:25888   */\n      tag_684\n      tag_365\n      jump\t// in\n    tag_684:\n        /* \"#utility.yul\":25773:25890   */\n    tag_683:\n        /* \"#utility.yul\":25917:25919   */\n      0x20\n        /* \"#utility.yul\":25911:25915   */\n      dup4\n        /* \"#utility.yul\":25907:25920   */\n      add\n        /* \"#utility.yul\":25899:25920   */\n      swap3\n      pop\n        /* \"#utility.yul\":25974:25978   */\n      0x40\n        /* \"#utility.yul\":25966:25972   */\n      dup3\n        /* \"#utility.yul\":25962:25979   */\n      mul\n        /* \"#utility.yul\":25946:25960   */\n      calldatasize\n        /* \"#utility.yul\":25942:25980   */\n      sub\n        /* \"#utility.yul\":25936:25940   */\n      dup4\n        /* \"#utility.yul\":25932:25981   */\n      sgt\n        /* \"#utility.yul\":25929:26065   */\n      iszero\n      tag_685\n      jumpi\n        /* \"#utility.yul\":25984:26063   */\n      tag_686\n      tag_366\n      jump\t// in\n    tag_686:\n        /* \"#utility.yul\":25929:26065   */\n    tag_685:\n        /* \"#utility.yul\":25438:26072   */\n      pop\n        /* \"#utility.yul\":25307:26072   */\n      swap3\n      pop\n      swap3\n      swap1\n      pop\n      jump\t// out\n        /* \"#utility.yul\":26078:26258   */\n    tag_374:\n        /* \"#utility.yul\":26126:26203   */\n      0x4e487b7100000000000000000000000000000000000000000000000000000000\n        /* \"#utility.yul\":26123:26124   */\n      0x00\n        /* \"#utility.yul\":26116:26204   */\n      mstore\n        /* \"#utility.yul\":26223:26227   */\n      0x00\n        /* \"#utility.yul\":26220:26221   */\n      0x04\n        /* \"#utility.yul\":26213:26228   */\n      mstore\n        /* \"#utility.yul\":26247:26251   */\n      0x24\n        /* \"#utility.yul\":26244:26245   */\n      0x00\n        /* \"#utility.yul\":26237:26252   */\n      revert\n        /* \"#utility.yul\":26264:26361   */\n    tag_375:\n        /* \"#utility.yul\":26323:26329   */\n      0x00\n        /* \"#utility.yul\":26351:26354   */\n      dup3\n        /* \"#utility.yul\":26341:26354   */\n      swap1\n      pop\n        /* \"#utility.yul\":26264:26361   */\n      swap3\n      swap2\n      pop\n      pop\n      jump\t// out\n        /* \"#utility.yul\":26367:26508   */\n    tag_376:\n        /* \"#utility.yul\":26416:26420   */\n      0x00\n        /* \"#utility.yul\":26439:26442   */\n      dup2\n        /* \"#utility.yul\":26431:26442   */\n      swap1\n      pop\n        /* \"#utility.yul\":26462:26465   */\n      dup2\n        /* \"#utility.yul\":26459:26460   */\n      0x00\n        /* \"#utility.yul\":26452:26466   */\n      mstore\n        /* \"#utility.yul\":26496:26500   */\n      0x20\n        /* \"#utility.yul\":26493:26494   */\n      0x00\n        /* \"#utility.yul\":26483:26501   */\n      keccak256\n        /* \"#utility.yul\":26475:26501   */\n      swap1\n      pop\n        /* \"#utility.yul\":26367:26508   */\n      swap2\n      swap1\n      pop\n      jump\t// out\n        /* \"#utility.yul\":26514:26607   */\n    tag_377:\n        /* \"#utility.yul\":26551:26557   */\n      0x00\n        /* \"#utility.yul\":26598:26600   */\n      0x20\n        /* \"#utility.yul\":26593:26595   */\n      0x1f\n        /* \"#utility.yul\":26586:26591   */\n      dup4\n        /* \"#utility.yul\":26582:26596   */\n      add\n        /* \"#utility.yul\":26578:26601   */\n      div\n        /* \"#utility.yul\":26568:26601   */\n      swap1\n      pop\n        /* \"#utility.yul\":26514:26607   */\n      swap2\n      swap1\n      pop\n      jump\t// out\n        /* \"#utility.yul\":26613:26720   */\n    tag_378:\n        /* \"#utility.yul\":26657:26665   */\n      0x00\n        /* \"#utility.yul\":26707:26712   */\n      dup3\n        /* \"#utility.yul\":26701:26705   */\n      dup3\n        /* \"#utility.yul\":26697:26713   */\n      shl\n        /* \"#utility.yul\":26676:26713   */\n      swap1\n      pop\n        /* \"#utility.yul\":26613:26720   */\n      swap3\n      swap2\n      pop\n      pop\n      jump\t// out\n        /* \"#utility.yul\":26726:27119   */\n    tag_379:\n        /* \"#utility.yul\":26795:26801   */\n      0x00\n        /* \"#utility.yul\":26845:26846   */\n      0x08\n        /* \"#utility.yul\":26833:26843   */\n      dup4\n        /* \"#utility.yul\":26829:26847   */\n      mul\n        /* \"#utility.yul\":26868:26965   */\n      tag_693\n        /* \"#utility.yul\":26898:26964   */\n      0xffffffffffffffffffffffffffffffffffffffffffffffffffffffffffffffff\n        /* \"#utility.yul\":26887:26896   */\n      dup3\n        /* \"#utility.yul\":26868:26965   */\n      tag_378\n      jump\t// in\n    tag_693:\n        /* \"#utility.yul\":26986:27025   */\n      tag_694\n        /* \"#utility.yul\":27016:27024   */\n      dup7\n        /* \"#utility.yul\":27005:27014   */\n      dup4\n        /* \"#utility.yul\":26986:27025   */\n      tag_378\n      jump\t// in\n    tag_694:\n        /* \"#utility.yul\":26974:27025   */\n      swap6\n      pop\n        /* \"#utility.yul\":27058:27062   */\n      dup1\n        /* \"#utility.yul\":27054:27063   */\n      not\n        /* \"#utility.yul\":27047:27052   */\n      dup5\n        /* \"#utility.yul\":27043:27064   */\n      and\n        /* \"#utility.yul\":27034:27064   */\n      swap4\n      pop\n        /* \"#utility.yul\":27107:27111   */\n      dup1\n        /* \"#utility.yul\":27097:27105   */\n      dup7\n        /* \"#utility.yul\":27093:27112   */\n      and\n        /* \"#utility.yul\":27086:27091   */\n      dup5\n        /* \"#utility.yul\":27083:27113   */\n      or\n        /* \"#utility.yul\":27073:27113   */\n      swap3\n      pop\n        /* \"#utility.yul\":26802:27119   */\n      pop\n      pop\n        /* \"#utility.yul\":26726:27119   */\n      swap4\n      swap3\n      pop\n      pop\n      pop\n      jump\t// out\n        /* \"#utility.yul\":27125:27267   */\n    tag_380:\n        /* \"#utility.yul\":27175:27184   */\n      0x00\n        /* \"#utility.yul\":27208:27261   */\n      tag_696\n        /* \"#utility.yul\":27226:27260   */\n      tag_697\n        /* \"#utility.yul\":27235:27259   */\n      tag_698\n        /* \"#utility.yul\":27253:27258   */\n      dup5\n        /* \"#utility.yul\":27235:27259   */\n      tag_316\n      jump\t// in\n    tag_698:\n        /* \"#utility.yul\":27226:27260   */\n      tag_343\n      jump\t// in\n    tag_697:\n        /* \"#utility.yul\":27208:27261   */\n      tag_316\n      jump\t// in\n    tag_696:\n        /* \"#utility.yul\":27195:27261   */\n      swap1\n      pop\n        /* \"#utility.yul\":27125:27267   */\n      swap2\n      swap1\n      pop\n      jump\t// out\n        /* \"#utility.yul\":27273:27348   */\n    tag_381:\n        /* \"#utility.yul\":27316:27319   */\n      0x00\n        /* \"#utility.yul\":27337:27342   */\n      dup2\n        /* \"#utility.yul\":27330:27342   */\n      swap1\n      pop\n        /* \"#utility.yul\":27273:27348   */\n      swap2\n      swap1\n      pop\n      jump\t// out\n        /* \"#utility.yul\":27354:27623   */\n    tag_382:\n        /* \"#utility.yul\":27464:27503   */\n      tag_701\n        /* \"#utility.yul\":27495:27502   */\n      dup4\n        /* \"#utility.yul\":27464:27503   */\n      tag_380\n      jump\t// in\n    tag_701:\n        /* \"#utility.yul\":27525:27616   */\n      tag_702\n        /* \"#utility.yul\":27574:27615   */\n      tag_703\n        /* \"#utility.yul\":27598:27614   */\n      dup3\n        /* \"#utility.yul\":27574:27615   */\n      tag_381\n      jump\t// in\n    tag_703:\n        /* \"#utility.yul\":27566:27572   */\n      dup5\n        /* \"#utility.yul\":27559:27563   */\n      dup5\n        /* \"#utility.yul\":27553:27564   */\n      sload\n        /* \"#utility.yul\":27525:27616   */\n      tag_379\n      jump\t// in\n    tag_702:\n        /* \"#utility.yul\":27519:27523   */\n      dup3\n        /* \"#utility.yul\":27512:27617   */\n      sstore\n        /* \"#utility.yul\":27430:27623   */\n      pop\n        /* \"#utility.yul\":27354:27623   */\n      pop\n      pop\n      pop\n      jump\t// out\n        /* \"#utility.yul\":27629:27702   */\n    tag_383:\n        /* \"#utility.yul\":27674:27677   */\n      0x00\n        /* \"#utility.yul\":27695:27696   */\n      0x00\n        /* \"#utility.yul\":27688:27696   */\n      swap1\n      pop\n        /* \"#utility.yul\":27629:27702   */\n      swap1\n      jump\t// out\n        /* \"#utility.yul\":27708:27897   */\n    tag_384:\n        /* \"#utility.yul\":27785:27817   */\n      tag_706\n      tag_383\n      jump\t// in\n    tag_706:\n        /* \"#utility.yul\":27826:27891   */\n      tag_707\n        /* \"#utility.yul\":27884:27890   */\n      dup2\n        /* \"#utility.yul\":27876:27882   */\n      dup5\n        /* \"#utility.yul\":27870:27874   */\n      dup5\n        /* \"#utility.yul\":27826:27891   */\n      tag_382\n      jump\t// in\n    tag_707:\n        /* \"#utility.yul\":27761:27897   */\n      pop\n        /* \"#utility.yul\":27708:27897   */\n      pop\n      pop\n      jump\t// out\n        /* \"#utility.yul\":27903:28089   */\n    tag_385:\n        /* \"#utility.yul\":27963:28083   */\n    tag_709:\n        /* \"#utility.yul\":27980:27983   */\n      dup2\n        /* \"#utility.yul\":27973:27978   */\n      dup2\n        /* \"#utility.yul\":27970:27984   */\n      lt\n        /* \"#utility.yul\":27963:28083   */\n      iszero\n      tag_711\n      jumpi\n        /* \"#utility.yul\":28034:28073   */\n      tag_712\n        /* \"#utility.yul\":28071:28072   */\n      0x00\n        /* \"#utility.yul\":28064:28069   */\n      dup3\n        /* \"#utility.yul\":28034:28073   */\n      tag_384\n      jump\t// in\n    tag_712:\n        /* \"#utility.yul\":28007:28008   */\n      0x01\n        /* \"#utility.yul\":28000:28005   */\n      dup2\n        /* \"#utility.yul\":27996:28009   */\n      add\n        /* \"#utility.yul\":27987:28009   */\n      swap1\n      pop\n        /* \"#utility.yul\":27963:28083   */\n      jump(tag_709)\n    tag_711:\n        /* \"#utility.yul\":27903:28089   */\n      pop\n      pop\n      jump\t// out\n        /* \"#utility.yul\":28095:28638   */\n    tag_386:\n        /* \"#utility.yul\":28196:28198   */\n      0x1f\n        /* \"#utility.yul\":28191:28194   */\n      dup3\n        /* \"#utility.yul\":28188:28199   */\n      gt\n        /* \"#utility.yul\":28185:28631   */\n      iszero\n      tag_714\n      jumpi\n        /* \"#utility.yul\":28230:28268   */\n      tag_715\n        /* \"#utility.yul\":28262:28267   */\n      dup2\n        /* \"#utility.yul\":28230:28268   */\n      tag_376\n      jump\t// in\n    tag_715:\n        /* \"#utility.yul\":28314:28343   */\n      tag_716\n        /* \"#utility.yul\":28332:28342   */\n      dup5\n        /* \"#utility.yul\":28314:28343   */\n      tag_377\n      jump\t// in\n    tag_716:\n        /* \"#utility.yul\":28304:28312   */\n      dup2\n        /* \"#utility.yul\":28300:28344   */\n      add\n        /* \"#utility.yul\":28497:28499   */\n      0x20\n        /* \"#utility.yul\":28485:28495   */\n      dup6\n        /* \"#utility.yul\":28482:28500   */\n      lt\n        /* \"#utility.yul\":28479:28528   */\n      iszero\n      tag_717\n      jumpi\n        /* \"#utility.yul\":28518:28526   */\n      dup2\n        /* \"#utility.yul\":28503:28526   */\n      swap1\n      pop\n        /* \"#utility.yul\":28479:28528   */\n    tag_717:\n        /* \"#utility.yul\":28541:28621   */\n      tag_718\n        /* \"#utility.yul\":28597:28619   */\n      tag_719\n        /* \"#utility.yul\":28615:28618   */\n      dup6\n        /* \"#utility.yul\":28597:28619   */\n      tag_377\n      jump\t// in\n    tag_719:\n        /* \"#utility.yul\":28587:28595   */\n      dup4\n        /* \"#utility.yul\":28583:28620   */\n      add\n        /* \"#utility.yul\":28570:28581   */\n      dup3\n        /* \"#utility.yul\":28541:28621   */\n      tag_385\n      jump\t// in\n    tag_718:\n        /* \"#utility.yul\":28200:28631   */\n      pop\n      pop\n        /* \"#utility.yul\":28185:28631   */\n    tag_714:\n        /* \"#utility.yul\":28095:28638   */\n      pop\n      pop\n      pop\n      jump\t// out\n        /* \"#utility.yul\":28644:28761   */\n    tag_387:\n        /* \"#utility.yul\":28698:28706   */\n      0x00\n        /* \"#utility.yul\":28748:28753   */\n      dup3\n        /* \"#utility.yul\":28742:28746   */\n      dup3\n        /* \"#utility.yul\":28738:28754   */\n      shr\n        /* \"#utility.yul\":28717:28754   */\n      swap1\n      pop\n        /* \"#utility.yul\":28644:28761   */\n      swap3\n      swap2\n      pop\n      pop\n      jump\t// out\n        /* \"#utility.yul\":28767:28936   */\n    tag_388:\n        /* \"#utility.yul\":28811:28817   */\n      0x00\n        /* \"#utility.yul\":28844:28895   */\n      tag_722\n        /* \"#utility.yul\":28892:28893   */\n      0x00\n        /* \"#utility.yul\":28888:28894   */\n      not\n        /* \"#utility.yul\":28880:28885   */\n      dup5\n        /* \"#utility.yul\":28877:28878   */\n      0x08\n        /* \"#utility.yul\":28873:28886   */\n      mul\n        /* \"#utility.yul\":28844:28895   */\n      tag_387\n      jump\t// in\n    tag_722:\n        /* \"#utility.yul\":28840:28896   */\n      not\n        /* \"#utility.yul\":28925:28929   */\n      dup1\n        /* \"#utility.yul\":28919:28923   */\n      dup4\n        /* \"#utility.yul\":28915:28930   */\n      and\n        /* \"#utility.yul\":28905:28930   */\n      swap2\n      pop\n        /* \"#utility.yul\":28818:28936   */\n      pop\n        /* \"#utility.yul\":28767:28936   */\n      swap3\n      swap2\n      pop\n      pop\n      jump\t// out\n        /* \"#utility.yul\":28941:29236   */\n    tag_389:\n        /* \"#utility.yul\":29017:29021   */\n      0x00\n        /* \"#utility.yul\":29163:29192   */\n      tag_724\n        /* \"#utility.yul\":29188:29191   */\n      dup4\n        /* \"#utility.yul\":29182:29186   */\n      dup4\n        /* \"#utility.yul\":29163:29192   */\n      tag_388\n      jump\t// in\n    tag_724:\n        /* \"#utility.yul\":29155:29192   */\n      swap2\n      pop\n        /* \"#utility.yul\":29225:29228   */\n      dup3\n        /* \"#utility.yul\":29222:29223   */\n      0x02\n        /* \"#utility.yul\":29218:29229   */\n      mul\n        /* \"#utility.yul\":29212:29216   */\n      dup3\n        /* \"#utility.yul\":29209:29230   */\n      or\n        /* \"#utility.yul\":29201:29230   */\n      swap1\n      pop\n        /* \"#utility.yul\":28941:29236   */\n      swap3\n      swap2\n      pop\n      pop\n      jump\t// out\n        /* \"#utility.yul\":29241:30644   */\n    tag_390:\n        /* \"#utility.yul\":29365:29409   */\n      tag_726\n        /* \"#utility.yul\":29405:29408   */\n      dup4\n        /* \"#utility.yul\":29400:29403   */\n      dup4\n        /* \"#utility.yul\":29365:29409   */\n      tag_375\n      jump\t// in\n    tag_726:\n        /* \"#utility.yul\":29474:29492   */\n      0xffffffffffffffff\n        /* \"#utility.yul\":29466:29472   */\n      dup2\n        /* \"#utility.yul\":29463:29493   */\n      gt\n        /* \"#utility.yul\":29460:29516   */\n      iszero\n      tag_727\n      jumpi\n        /* \"#utility.yul\":29496:29514   */\n      tag_728\n      tag_233\n      jump\t// in\n    tag_728:\n        /* \"#utility.yul\":29460:29516   */\n    tag_727:\n        /* \"#utility.yul\":29540:29578   */\n      tag_729\n        /* \"#utility.yul\":29572:29576   */\n      dup3\n        /* \"#utility.yul\":29566:29577   */\n      sload\n        /* \"#utility.yul\":29540:29578   */\n      tag_143\n      jump\t// in\n    tag_729:\n        /* \"#utility.yul\":29625:29692   */\n      tag_730\n        /* \"#utility.yul\":29685:29691   */\n      dup3\n        /* \"#utility.yul\":29677:29683   */\n      dup3\n        /* \"#utility.yul\":29671:29675   */\n      dup6\n        /* \"#utility.yul\":29625:29692   */\n      tag_386\n      jump\t// in\n    tag_730:\n        /* \"#utility.yul\":29719:29720   */\n      0x00\n        /* \"#utility.yul\":29748:29750   */\n      0x1f\n        /* \"#utility.yul\":29740:29746   */\n      dup4\n        /* \"#utility.yul\":29737:29751   */\n      gt\n        /* \"#utility.yul\":29765:29766   */\n      0x01\n        /* \"#utility.yul\":29760:30392   */\n      dup2\n      eq\n      tag_732\n      jumpi\n        /* \"#utility.yul\":30436:30437   */\n      0x00\n        /* \"#utility.yul\":30453:30459   */\n      dup5\n        /* \"#utility.yul\":30450:30534   */\n      iszero\n      tag_733\n      jumpi\n        /* \"#utility.yul\":30509:30518   */\n      dup3\n        /* \"#utility.yul\":30504:30507   */\n      dup8\n        /* \"#utility.yul\":30500:30519   */\n      add\n        /* \"#utility.yul\":30487:30520   */\n      calldataload\n        /* \"#utility.yul\":30478:30520   */\n      swap1\n      pop\n        /* \"#utility.yul\":30450:30534   */\n    tag_733:\n        /* \"#utility.yul\":30560:30627   */\n      tag_734\n        /* \"#utility.yul\":30620:30626   */\n      dup6\n        /* \"#utility.yul\":30613:30618   */\n      dup3\n        /* \"#utility.yul\":30560:30627   */\n      tag_389\n      jump\t// in\n    tag_734:\n        /* \"#utility.yul\":30554:30558   */\n      dup7\n        /* \"#utility.yul\":30547:30628   */\n      sstore\n        /* \"#utility.yul\":30409:30638   */\n      pop\n        /* \"#utility.yul\":29730:30638   */\n      jump(tag_731)\n        /* \"#utility.yul\":29760:30392   */\n    tag_732:\n        /* \"#utility.yul\":29812:29816   */\n      0x1f\n        /* \"#utility.yul\":29808:29817   */\n      not\n        /* \"#utility.yul\":29800:29806   */\n      dup5\n        /* \"#utility.yul\":29796:29818   */\n      and\n        /* \"#utility.yul\":29846:29883   */\n      tag_735\n        /* \"#utility.yul\":29878:29882   */\n      dup7\n        /* \"#utility.yul\":29846:29883   */\n      tag_376\n      jump\t// in\n    tag_735:\n        /* \"#utility.yul\":29905:29906   */\n      0x00\n        /* \"#utility.yul\":29919:30134   */\n    tag_736:\n        /* \"#utility.yul\":29933:29940   */\n      dup3\n        /* \"#utility.yul\":29930:29931   */\n      dup2\n        /* \"#utility.yul\":29927:29941   */\n      lt\n        /* \"#utility.yul\":29919:30134   */\n      iszero\n      tag_738\n      jumpi\n        /* \"#utility.yul\":30019:30028   */\n      dup5\n        /* \"#utility.yul\":30014:30017   */\n      dup10\n        /* \"#utility.yul\":30010:30029   */\n      add\n        /* \"#utility.yul\":29997:30030   */\n      calldataload\n        /* \"#utility.yul\":29989:29995   */\n      dup3\n        /* \"#utility.yul\":29982:30031   */\n      sstore\n        /* \"#utility.yul\":30070:30071   */\n      0x01\n        /* \"#utility.yul\":30062:30068   */\n      dup3\n        /* \"#utility.yul\":30058:30072   */\n      add\n        /* \"#utility.yul\":30048:30072   */\n      swap2\n      pop\n        /* \"#utility.yul\":30117:30119   */\n      0x20\n        /* \"#utility.yul\":30106:30115   */\n      dup6\n        /* \"#utility.yul\":30102:30120   */\n      add\n        /* \"#utility.yul\":30089:30120   */\n      swap5\n      pop\n        /* \"#utility.yul\":29956:29960   */\n      0x20\n        /* \"#utility.yul\":29953:29954   */\n      dup2\n        /* \"#utility.yul\":29949:29961   */\n      add\n        /* \"#utility.yul\":29944:29961   */\n      swap1\n      pop\n        /* \"#utility.yul\":29919:30134   */\n      jump(tag_736)\n    tag_738:\n        /* \"#utility.yul\":30162:30168   */\n      dup7\n        /* \"#utility.yul\":30153:30160   */\n      dup4\n        /* \"#utility.yul\":30150:30169   */\n      lt\n        /* \"#utility.yul\":30147:30333   */\n      iszero\n      tag_739\n      jumpi\n        /* \"#utility.yul\":30227:30236   */\n      dup5\n        /* \"#utility.yul\":30222:30225   */\n      dup10\n        /* \"#utility.yul\":30218:30237   */\n      add\n        /* \"#utility.yul\":30205:30238   */\n      calldataload\n        /* \"#utility.yul\":30270:30318   */\n      tag_740\n        /* \"#utility.yul\":30312:30316   */\n      0x1f\n        /* \"#utility.yul\":30304:30310   */\n      dup10\n        /* \"#utility.yul\":30300:30317   */\n      and\n        /* \"#utility.yul\":30289:30298   */\n      dup3\n        /* \"#utility.yul\":30270:30318   */\n      tag_388\n      jump\t// in\n    tag_740:\n        /* \"#utility.yul\":30262:30268   */\n      dup4\n        /* \"#utility.yul\":30255:30319   */\n      sstore\n        /* \"#utility.yul\":30170:30333   */\n      pop\n        /* \"#utility.yul\":30147:30333   */\n    tag_739:\n        /* \"#utility.yul\":30379:30380   */\n      0x01\n        /* \"#utility.yul\":30375:30376   */\n      0x02\n        /* \"#utility.yul\":30367:30373   */\n      dup9\n        /* \"#utility.yul\":30363:30377   */\n      mul\n        /* \"#utility.yul\":30359:30381   */\n      add\n        /* \"#utility.yul\":30353:30357   */\n      dup9\n        /* \"#utility.yul\":30346:30382   */\n      sstore\n        /* \"#utility.yul\":29767:30392   */\n      pop\n      pop\n      pop\n        /* \"#utility.yul\":29730:30638   */\n    tag_731:\n      pop\n        /* \"#utility.yul\":29340:30644   */\n      pop\n      pop\n      pop\n        /* \"#utility.yul\":29241:30644   */\n      pop\n      pop\n      pop\n      jump\t// out\n        /* \"#utility.yul\":30650:30869   */\n    tag_391:\n        /* \"#utility.yul\":30766:30863   */\n      tag_742\n        /* \"#utility.yul\":30855:30862   */\n      dup4\n        /* \"#utility.yul\":30846:30853   */\n      dup4\n        /* \"#utility.yul\":30840:30844   */\n      dup4\n        /* \"#utility.yul\":30766:30863   */\n      tag_390\n      jump\t// in\n    tag_742:\n        /* \"#utility.yul\":30650:30869   */\n      pop\n      pop\n      pop\n      jump\t// out\n        /* \"#utility.yul\":30875:31002   */\n    tag_392:\n        /* \"#utility.yul\":30969:30973   */\n      0x00\n        /* \"#utility.yul\":30992:30995   */\n      dup2\n        /* \"#utility.yul\":30984:30995   */\n      swap1\n      pop\n        /* \"#utility.yul\":30875:31002   */\n      swap2\n      swap1\n      pop\n      jump\t// out\n        /* \"#utility.yul\":31008:31139   */\n    tag_393:\n        /* \"#utility.yul\":31092:31098   */\n      0x00\n        /* \"#utility.yul\":31126:31131   */\n      dup2\n        /* \"#utility.yul\":31120:31132   */\n      sload\n        /* \"#utility.yul\":31110:31132   */\n      swap1\n      pop\n        /* \"#utility.yul\":31008:31139   */\n      swap2\n      swap1\n      pop\n      jump\t// out\n        /* \"#utility.yul\":31145:31368   */\n    tag_394:\n        /* \"#utility.yul\":31246:31250   */\n      0x00\n        /* \"#utility.yul\":31269:31275   */\n      dup2\n        /* \"#utility.yul\":31261:31275   */\n      swap1\n      pop\n        /* \"#utility.yul\":31359:31360   */\n      0x01\n        /* \"#utility.yul\":31354:31355   */\n      dup1\n        /* \"#utility.yul\":31351:31352   */\n      0x01\n        /* \"#utility.yul\":31347:31356   */\n      sub\n        /* \"#utility.yul\":31339:31345   */\n      dup4\n        /* \"#utility.yul\":31335:31357   */\n      add\n        /* \"#utility.yul\":31331:31361   */\n      div\n        /* \"#utility.yul\":31323:31361   */\n      swap1\n      pop\n        /* \"#utility.yul\":31145:31368   */\n      swap2\n      swap1\n      pop\n      jump\t// out\n        /* \"#utility.yul\":31373:31549   */\n    tag_395:\n        /* \"#utility.yul\":31457:31461   */\n      0x00\n        /* \"#utility.yul\":31480:31483   */\n      dup2\n        /* \"#utility.yul\":31472:31483   */\n      swap1\n      pop\n        /* \"#utility.yul\":31503:31506   */\n      dup2\n        /* \"#utility.yul\":31500:31501   */\n      0x00\n        /* \"#utility.yul\":31493:31507   */\n      mstore\n        /* \"#utility.yul\":31537:31541   */\n      0x20\n        /* \"#utility.yul\":31534:31535   */\n      0x00\n        /* \"#utility.yul\":31524:31542   */\n      keccak256\n        /* \"#utility.yul\":31516:31542   */\n      swap1\n      pop\n        /* \"#utility.yul\":31373:31549   */\n      swap2\n      swap1\n      pop\n      jump\t// out\n        /* \"#utility.yul\":31555:31662   */\n    tag_396:\n        /* \"#utility.yul\":31653:31654   */\n      0x00\n        /* \"#utility.yul\":31649:31650   */\n      0x00\n        /* \"#utility.yul\":31643:31647   */\n      dup3\n        /* \"#utility.yul\":31639:31651   */\n      add\n        /* \"#utility.yul\":31632:31655   */\n      sstore\n        /* \"#utility.yul\":31555:31662   */\n      pop\n      jump\t// out\n        /* \"#utility.yul\":31668:31869   */\n    tag_397:\n        /* \"#utility.yul\":31772:31773   */\n      0x00\n        /* \"#utility.yul\":31764:31770   */\n      dup3\n        /* \"#utility.yul\":31761:31774   */\n      eq\n        /* \"#utility.yul\":31751:31798   */\n      tag_749\n      jumpi\n        /* \"#utility.yul\":31778:31796   */\n      tag_750\n      tag_374\n      jump\t// in\n    tag_750:\n        /* \"#utility.yul\":31751:31798   */\n    tag_749:\n        /* \"#utility.yul\":31807:31863   */\n      tag_751\n        /* \"#utility.yul\":31858:31862   */\n      dup2\n        /* \"#utility.yul\":31807:31863   */\n      tag_396\n      jump\t// in\n    tag_751:\n        /* \"#utility.yul\":31668:31869   */\n      pop\n      pop\n      jump\t// out\n        /* \"#utility.yul\":31875:32102   */\n    tag_398:\n        /* \"#utility.yul\":31956:32096   */\n    tag_753:\n        /* \"#utility.yul\":31973:31976   */\n      dup2\n        /* \"#utility.yul\":31966:31971   */\n      dup2\n        /* \"#utility.yul\":31963:31977   */\n      lt\n        /* \"#utility.yul\":31956:32096   */\n      iszero\n      tag_755\n      jumpi\n        /* \"#utility.yul\":32027:32086   */\n      tag_756\n        /* \"#utility.yul\":32084:32085   */\n      0x00\n        /* \"#utility.yul\":32077:32082   */\n      dup3\n        /* \"#utility.yul\":32027:32086   */\n      tag_397\n      jump\t// in\n    tag_756:\n        /* \"#utility.yul\":32000:32001   */\n      0x01\n        /* \"#utility.yul\":31993:31998   */\n      dup2\n        /* \"#utility.yul\":31989:32002   */\n      add\n        /* \"#utility.yul\":31980:32002   */\n      swap1\n      pop\n        /* \"#utility.yul\":31956:32096   */\n      jump(tag_753)\n    tag_755:\n        /* \"#utility.yul\":31875:32102   */\n      pop\n      pop\n      jump\t// out\n        /* \"#utility.yul\":32358:33139   */\n    tag_400:\n        /* \"#utility.yul\":32498:32501   */\n      dup2\n        /* \"#utility.yul\":32486:32496   */\n      dup4\n        /* \"#utility.yul\":32483:32502   */\n      lt\n        /* \"#utility.yul\":32480:33132   */\n      iszero\n      tag_760\n      jumpi\n        /* \"#utility.yul\":32589:32674   */\n      tag_761\n        /* \"#utility.yul\":32670:32673   */\n      dup3\n        /* \"#utility.yul\":32589:32674   */\n      tag_394\n      jump\t// in\n    tag_761:\n        /* \"#utility.yul\":32707:32799   */\n      tag_762\n        /* \"#utility.yul\":32788:32798   */\n      dup5\n        /* \"#utility.yul\":32707:32799   */\n      tag_394\n      jump\t// in\n    tag_762:\n        /* \"#utility.yul\":32834:32907   */\n      tag_763\n        /* \"#utility.yul\":32901:32906   */\n      dup4\n        /* \"#utility.yul\":32834:32907   */\n      tag_395\n      jump\t// in\n    tag_763:\n        /* \"#utility.yul\":32959:32971   */\n      dup2\n        /* \"#utility.yul\":32943:32957   */\n      dup2\n        /* \"#utility.yul\":32939:32972   */\n      add\n        /* \"#utility.yul\":33022:33034   */\n      dup4\n        /* \"#utility.yul\":33006:33020   */\n      dup3\n        /* \"#utility.yul\":33002:33035   */\n      add\n        /* \"#utility.yul\":33049:33122   */\n      tag_764\n        /* \"#utility.yul\":33112:33121   */\n      dup2\n        /* \"#utility.yul\":33099:33110   */\n      dup4\n        /* \"#utility.yul\":33049:33122   */\n      tag_398\n      jump\t// in\n    tag_764:\n        /* \"#utility.yul\":32503:33132   */\n      pop\n      pop\n      pop\n      pop\n      pop\n        /* \"#utility.yul\":32480:33132   */\n    tag_760:\n        /* \"#utility.yul\":32358:33139   */\n      pop\n      pop\n      pop\n      jump\t// out\n        /* \"#utility.yul\":33145:33593   */\n    tag_401:\n        /* \"#utility.yul\":33258:33278   */\n      0x010000000000000000\n        /* \"#utility.yul\":33250:33256   */\n      dup3\n        /* \"#utility.yul\":33247:33279   */\n      gt\n        /* \"#utility.yul\":33244:33322   */\n      iszero\n      tag_766\n      jumpi\n        /* \"#utility.yul\":33294:33312   */\n      tag_767\n      tag_233\n      jump\t// in\n    tag_767:\n        /* \"#utility.yul\":33244:33322   */\n    tag_766:\n        /* \"#utility.yul\":33346:33417   */\n      tag_768\n        /* \"#utility.yul\":33411:33416   */\n      dup2\n        /* \"#utility.yul\":33346:33417   */\n      tag_393\n      jump\t// in\n    tag_768:\n        /* \"#utility.yul\":33469:33475   */\n      dup3\n        /* \"#utility.yul\":33462:33467   */\n      dup3\n        /* \"#utility.yul\":33455:33476   */\n      sstore\n        /* \"#utility.yul\":33486:33586   */\n      tag_769\n        /* \"#utility.yul\":33579:33585   */\n      dup4\n        /* \"#utility.yul\":33571:33577   */\n      dup3\n        /* \"#utility.yul\":33564:33569   */\n      dup5\n        /* \"#utility.yul\":33486:33586   */\n      tag_400\n      jump\t// in\n    tag_769:\n        /* \"#utility.yul\":33234:33593   */\n      pop\n        /* \"#utility.yul\":33145:33593   */\n      pop\n      pop\n      jump\t// out\n        /* \"#utility.yul\":33598:33735   */\n    tag_402:\n        /* \"#utility.yul\":33697:33703   */\n      0x00\n        /* \"#utility.yul\":33725:33728   */\n      dup3\n        /* \"#utility.yul\":33715:33728   */\n      swap1\n      pop\n        /* \"#utility.yul\":33598:33735   */\n      swap3\n      swap2\n      pop\n      pop\n      jump\t// out\n        /* \"#utility.yul\":33741:33927   */\n    tag_403:\n        /* \"#utility.yul\":33786:33797   */\n      0x00\n        /* \"#utility.yul\":33835:33838   */\n      dup2\n        /* \"#utility.yul\":33822:33839   */\n      calldataload\n        /* \"#utility.yul\":33848:33881   */\n      tag_772\n        /* \"#utility.yul\":33875:33880   */\n      dup2\n        /* \"#utility.yul\":33848:33881   */\n      tag_348\n      jump\t// in\n    tag_772:\n        /* \"#utility.yul\":33915:33920   */\n      dup1\n        /* \"#utility.yul\":33891:33920   */\n      swap2\n      pop\n        /* \"#utility.yul\":33798:33927   */\n      pop\n        /* \"#utility.yul\":33741:33927   */\n      swap2\n      swap1\n      pop\n      jump\t// out\n        /* \"#utility.yul\":33933:34025   */\n    tag_404:\n        /* \"#utility.yul\":33965:33973   */\n      0x00\n        /* \"#utility.yul\":34012:34017   */\n      dup2\n        /* \"#utility.yul\":34009:34010   */\n      0x00\n        /* \"#utility.yul\":34005:34018   */\n      shl\n        /* \"#utility.yul\":33984:34018   */\n      swap1\n      pop\n        /* \"#utility.yul\":33933:34025   */\n      swap2\n      swap1\n      pop\n      jump\t// out\n        /* \"#utility.yul\":34031:34297   */\n    tag_405:\n        /* \"#utility.yul\":34089:34095   */\n      0x00\n        /* \"#utility.yul\":34118:34160   */\n      0xffffffffffffffffffffffffffffffffffffffff\n        /* \"#utility.yul\":34181:34203   */\n      tag_775\n        /* \"#utility.yul\":34194:34202   */\n      dup5\n        /* \"#utility.yul\":34181:34203   */\n      tag_404\n      jump\t// in\n    tag_775:\n        /* \"#utility.yul\":34169:34203   */\n      swap4\n      pop\n        /* \"#utility.yul\":34236:34240   */\n      dup1\n        /* \"#utility.yul\":34232:34241   */\n      not\n        /* \"#utility.yul\":34225:34230   */\n      dup4\n        /* \"#utility.yul\":34221:34242   */\n      and\n        /* \"#utility.yul\":34212:34242   */\n      swap3\n      pop\n        /* \"#utility.yul\":34285:34289   */\n      dup1\n        /* \"#utility.yul\":34275:34283   */\n      dup5\n        /* \"#utility.yul\":34271:34290   */\n      and\n        /* \"#utility.yul\":34264:34269   */\n      dup4\n        /* \"#utility.yul\":34261:34291   */\n      or\n        /* \"#utility.yul\":34251:34291   */\n      swap2\n      pop\n        /* \"#utility.yul\":34096:34297   */\n      pop\n        /* \"#utility.yul\":34031:34297   */\n      swap3\n      swap2\n      pop\n      pop\n      jump\t// out\n        /* \"#utility.yul\":34303:34429   */\n    tag_406:\n        /* \"#utility.yul\":34353:34362   */\n      0x00\n        /* \"#utility.yul\":34386:34423   */\n      tag_777\n        /* \"#utility.yul\":34417:34422   */\n      dup3\n        /* \"#utility.yul\":34386:34423   */\n      tag_345\n      jump\t// in\n    tag_777:\n        /* \"#utility.yul\":34373:34423   */\n      swap1\n      pop\n        /* \"#utility.yul\":34303:34429   */\n      swap2\n      swap1\n      pop\n      jump\t// out\n        /* \"#utility.yul\":34435:34510   */\n    tag_407:\n        /* \"#utility.yul\":34478:34481   */\n      0x00\n        /* \"#utility.yul\":34499:34504   */\n      dup2\n        /* \"#utility.yul\":34492:34504   */\n      swap1\n      pop\n        /* \"#utility.yul\":34435:34510   */\n      swap2\n      swap1\n      pop\n      jump\t// out\n        /* \"#utility.yul\":34516:34779   */\n    tag_408:\n        /* \"#utility.yul\":34627:34666   */\n      tag_780\n        /* \"#utility.yul\":34658:34665   */\n      dup3\n        /* \"#utility.yul\":34627:34666   */\n      tag_406\n      jump\t// in\n    tag_780:\n        /* \"#utility.yul\":34688:34772   */\n      tag_781\n        /* \"#utility.yul\":34730:34771   */\n      tag_782\n        /* \"#utility.yul\":34754:34770   */\n      dup3\n        /* \"#utility.yul\":34730:34771   */\n      tag_407\n      jump\t// in\n    tag_782:\n        /* \"#utility.yul\":34723:34727   */\n      dup4\n        /* \"#utility.yul\":34717:34728   */\n      sload\n        /* \"#utility.yul\":34688:34772   */\n      tag_405\n      jump\t// in\n    tag_781:\n        /* \"#utility.yul\":34682:34686   */\n      dup3\n        /* \"#utility.yul\":34675:34773   */\n      sstore\n        /* \"#utility.yul\":34593:34779   */\n      pop\n        /* \"#utility.yul\":34516:34779   */\n      pop\n      pop\n      jump\t// out\n        /* \"#utility.yul\":34785:34905   */\n    tag_409:\n        /* \"#utility.yul\":34857:34880   */\n      tag_784\n        /* \"#utility.yul\":34874:34879   */\n      dup2\n        /* \"#utility.yul\":34857:34880   */\n      tag_336\n      jump\t// in\n    tag_784:\n        /* \"#utility.yul\":34850:34855   */\n      dup2\n        /* \"#utility.yul\":34847:34881   */\n      eq\n        /* \"#utility.yul\":34837:34899   */\n      tag_785\n      jumpi\n        /* \"#utility.yul\":34895:34896   */\n      0x00\n        /* \"#utility.yul\":34892:34893   */\n      0x00\n        /* \"#utility.yul\":34885:34897   */\n      revert\n        /* \"#utility.yul\":34837:34899   */\n    tag_785:\n        /* \"#utility.yul\":34785:34905   */\n      pop\n      jump\t// out\n        /* \"#utility.yul\":34911:35095   */\n    tag_410:\n        /* \"#utility.yul\":34955:34966   */\n      0x00\n        /* \"#utility.yul\":35004:35007   */\n      dup2\n        /* \"#utility.yul\":34991:35008   */\n      calldataload\n        /* \"#utility.yul\":35017:35049   */\n      tag_787\n        /* \"#utility.yul\":35043:35048   */\n      dup2\n        /* \"#utility.yul\":35017:35049   */\n      tag_409\n      jump\t// in\n    tag_787:\n        /* \"#utility.yul\":35083:35088   */\n      dup1\n        /* \"#utility.yul\":35059:35088   */\n      swap2\n      pop\n        /* \"#utility.yul\":34967:35095   */\n      pop\n        /* \"#utility.yul\":34911:35095   */\n      swap2\n      swap1\n      pop\n      jump\t// out\n        /* \"#utility.yul\":35101:35197   */\n    tag_411:\n        /* \"#utility.yul\":35135:35143   */\n      0x00\n        /* \"#utility.yul\":35184:35189   */\n      dup2\n        /* \"#utility.yul\":35179:35182   */\n      0xa0\n        /* \"#utility.yul\":35175:35190   */\n      shl\n        /* \"#utility.yul\":35154:35190   */\n      swap1\n      pop\n        /* \"#utility.yul\":35101:35197   */\n      swap2\n      swap1\n      pop\n      jump\t// out\n        /* \"#utility.yul\":35203:35475   */\n    tag_412:\n        /* \"#utility.yul\":35261:35267   */\n      0x00\n        /* \"#utility.yul\":35290:35336   */\n      0xffff0000000000000000000000000000000000000000\n        /* \"#utility.yul\":35357:35381   */\n      tag_790\n        /* \"#utility.yul\":35372:35380   */\n      dup5\n        /* \"#utility.yul\":35357:35381   */\n      tag_411\n      jump\t// in\n    tag_790:\n        /* \"#utility.yul\":35345:35381   */\n      swap4\n      pop\n        /* \"#utility.yul\":35414:35418   */\n      dup1\n        /* \"#utility.yul\":35410:35419   */\n      not\n        /* \"#utility.yul\":35403:35408   */\n      dup4\n        /* \"#utility.yul\":35399:35420   */\n      and\n        /* \"#utility.yul\":35390:35420   */\n      swap3\n      pop\n        /* \"#utility.yul\":35463:35467   */\n      dup1\n        /* \"#utility.yul\":35453:35461   */\n      dup5\n        /* \"#utility.yul\":35449:35468   */\n      and\n        /* \"#utility.yul\":35442:35447   */\n      dup4\n        /* \"#utility.yul\":35439:35469   */\n      or\n        /* \"#utility.yul\":35429:35469   */\n      swap2\n      pop\n        /* \"#utility.yul\":35268:35475   */\n      pop\n        /* \"#utility.yul\":35203:35475   */\n      swap3\n      swap2\n      pop\n      pop\n      jump\t// out\n        /* \"#utility.yul\":35481:35619   */\n    tag_413:\n        /* \"#utility.yul\":35529:35538   */\n      0x00\n        /* \"#utility.yul\":35562:35613   */\n      tag_792\n        /* \"#utility.yul\":35579:35612   */\n      tag_793\n        /* \"#utility.yul\":35588:35611   */\n      tag_794\n        /* \"#utility.yul\":35605:35610   */\n      dup5\n        /* \"#utility.yul\":35588:35611   */\n      tag_336\n      jump\t// in\n    tag_794:\n        /* \"#utility.yul\":35579:35612   */\n      tag_343\n      jump\t// in\n    tag_793:\n        /* \"#utility.yul\":35562:35613   */\n      tag_336\n      jump\t// in\n    tag_792:\n        /* \"#utility.yul\":35549:35613   */\n      swap1\n      pop\n        /* \"#utility.yul\":35481:35619   */\n      swap2\n      swap1\n      pop\n      jump\t// out\n        /* \"#utility.yul\":35625:35699   */\n    tag_414:\n        /* \"#utility.yul\":35667:35670   */\n      0x00\n        /* \"#utility.yul\":35688:35693   */\n      dup2\n        /* \"#utility.yul\":35681:35693   */\n      swap1\n      pop\n        /* \"#utility.yul\":35625:35699   */\n      swap2\n      swap1\n      pop\n      jump\t// out\n        /* \"#utility.yul\":35705:35964   */\n    tag_415:\n        /* \"#utility.yul\":35815:35852   */\n      tag_797\n        /* \"#utility.yul\":35844:35851   */\n      dup3\n        /* \"#utility.yul\":35815:35852   */\n      tag_413\n      jump\t// in\n    tag_797:\n        /* \"#utility.yul\":35874:35957   */\n      tag_798\n        /* \"#utility.yul\":35916:35956   */\n      tag_799\n        /* \"#utility.yul\":35939:35955   */\n      dup3\n        /* \"#utility.yul\":35916:35956   */\n      tag_414\n      jump\t// in\n    tag_799:\n        /* \"#utility.yul\":35909:35913   */\n      dup4\n        /* \"#utility.yul\":35903:35914   */\n      sload\n        /* \"#utility.yul\":35874:35957   */\n      tag_412\n      jump\t// in\n    tag_798:\n        /* \"#utility.yul\":35868:35872   */\n      dup3\n        /* \"#utility.yul\":35861:35958   */\n      sstore\n        /* \"#utility.yul\":35781:35964   */\n      pop\n        /* \"#utility.yul\":35705:35964   */\n      pop\n      pop\n      jump\t// out\n        /* \"#utility.yul\":35970:36771   */\n    tag_416:\n        /* \"#utility.yul\":36142:36143   */\n      0x00\n        /* \"#utility.yul\":36136:36140   */\n      dup2\n        /* \"#utility.yul\":36132:36144   */\n      add\n        /* \"#utility.yul\":36188:36189   */\n      0x00\n        /* \"#utility.yul\":36181:36186   */\n      dup4\n        /* \"#utility.yul\":36177:36190   */\n      add\n        /* \"#utility.yul\":36238:36250   */\n      dup1\n        /* \"#utility.yul\":36281:36323   */\n      tag_801\n        /* \"#utility.yul\":36309:36322   */\n      dup2\n        /* \"#utility.yul\":36281:36323   */\n      tag_403\n      jump\t// in\n    tag_801:\n        /* \"#utility.yul\":36264:36323   */\n      swap1\n      pop\n        /* \"#utility.yul\":36337:36416   */\n      tag_802\n        /* \"#utility.yul\":36402:36415   */\n      dup2\n        /* \"#utility.yul\":36390:36400   */\n      dup5\n        /* \"#utility.yul\":36337:36416   */\n      tag_408\n      jump\t// in\n    tag_802:\n        /* \"#utility.yul\":36099:36427   */\n      pop\n      pop\n      pop\n        /* \"#utility.yul\":36480:36481   */\n      0x00\n        /* \"#utility.yul\":36474:36478   */\n      dup2\n        /* \"#utility.yul\":36470:36482   */\n      add\n        /* \"#utility.yul\":36526:36528   */\n      0x20\n        /* \"#utility.yul\":36519:36524   */\n      dup4\n        /* \"#utility.yul\":36515:36529   */\n      add\n        /* \"#utility.yul\":36577:36589   */\n      dup1\n        /* \"#utility.yul\":36620:36661   */\n      tag_803\n        /* \"#utility.yul\":36647:36660   */\n      dup2\n        /* \"#utility.yul\":36620:36661   */\n      tag_410\n      jump\t// in\n    tag_803:\n        /* \"#utility.yul\":36603:36661   */\n      swap1\n      pop\n        /* \"#utility.yul\":36675:36753   */\n      tag_804\n        /* \"#utility.yul\":36739:36752   */\n      dup2\n        /* \"#utility.yul\":36727:36737   */\n      dup5\n        /* \"#utility.yul\":36675:36753   */\n      tag_415\n      jump\t// in\n    tag_804:\n        /* \"#utility.yul\":36437:36764   */\n      pop\n      pop\n      pop\n        /* \"#utility.yul\":35970:36771   */\n      pop\n      pop\n      jump\t// out\n        /* \"#utility.yul\":36777:37026   */\n    tag_417:\n        /* \"#utility.yul\":36910:37020   */\n      tag_806\n        /* \"#utility.yul\":37012:37019   */\n      dup3\n        /* \"#utility.yul\":37006:37010   */\n      dup3\n        /* \"#utility.yul\":36910:37020   */\n      tag_416\n      jump\t// in\n    tag_806:\n        /* \"#utility.yul\":36777:37026   */\n      pop\n      pop\n      jump\t// out\n        /* \"#utility.yul\":37032:37963   */\n    tag_418:\n        /* \"#utility.yul\":37228:37314   */\n      tag_808\n        /* \"#utility.yul\":37310:37313   */\n      dup4\n        /* \"#utility.yul\":37303:37308   */\n      dup4\n        /* \"#utility.yul\":37228:37314   */\n      tag_402\n      jump\t// in\n    tag_808:\n        /* \"#utility.yul\":37324:37402   */\n      tag_809\n        /* \"#utility.yul\":37395:37401   */\n      dup2\n        /* \"#utility.yul\":37389:37393   */\n      dup4\n        /* \"#utility.yul\":37324:37402   */\n      tag_401\n      jump\t// in\n    tag_809:\n        /* \"#utility.yul\":37426:37509   */\n      tag_810\n        /* \"#utility.yul\":37503:37508   */\n      dup4\n        /* \"#utility.yul\":37426:37509   */\n      tag_392\n      jump\t// in\n    tag_810:\n        /* \"#utility.yul\":37538:37610   */\n      tag_811\n        /* \"#utility.yul\":37605:37609   */\n      dup4\n        /* \"#utility.yul\":37538:37610   */\n      tag_395\n      jump\t// in\n    tag_811:\n        /* \"#utility.yul\":37635:37636   */\n      0x00\n        /* \"#utility.yul\":37620:37957   */\n    tag_812:\n        /* \"#utility.yul\":37645:37651   */\n      dup4\n        /* \"#utility.yul\":37642:37643   */\n      dup2\n        /* \"#utility.yul\":37639:37652   */\n      lt\n        /* \"#utility.yul\":37620:37957   */\n      iszero\n      tag_814\n      jumpi\n        /* \"#utility.yul\":37717:37723   */\n      dup3\n        /* \"#utility.yul\":37737:37860   */\n      tag_815\n        /* \"#utility.yul\":37848:37859   */\n      dup2\n        /* \"#utility.yul\":37835:37846   */\n      dup5\n        /* \"#utility.yul\":37737:37860   */\n      tag_417\n      jump\t// in\n    tag_815:\n        /* \"#utility.yul\":37896:37898   */\n      0x40\n        /* \"#utility.yul\":37888:37894   */\n      dup5\n        /* \"#utility.yul\":37884:37899   */\n      add\n        /* \"#utility.yul\":37874:37899   */\n      swap4\n      pop\n        /* \"#utility.yul\":37945:37946   */\n      0x01\n        /* \"#utility.yul\":37932:37943   */\n      dup4\n        /* \"#utility.yul\":37928:37947   */\n      add\n        /* \"#utility.yul\":37913:37947   */\n      swap3\n      pop\n        /* \"#utility.yul\":37670:37957   */\n      pop\n        /* \"#utility.yul\":37666:37667   */\n      0x01\n        /* \"#utility.yul\":37663:37664   */\n      dup2\n        /* \"#utility.yul\":37659:37668   */\n      add\n        /* \"#utility.yul\":37654:37668   */\n      swap1\n      pop\n        /* \"#utility.yul\":37620:37957   */\n      jump(tag_812)\n    tag_814:\n        /* \"#utility.yul\":37624:37638   */\n      pop\n        /* \"#utility.yul\":37203:37963   */\n      pop\n      pop\n      pop\n        /* \"#utility.yul\":37032:37963   */\n      pop\n      pop\n      pop\n      jump\t// out\n        /* \"#utility.yul\":37969:38333   */\n    tag_419:\n        /* \"#utility.yul\":38160:38327   */\n      tag_817\n        /* \"#utility.yul\":38319:38326   */\n      dup4\n        /* \"#utility.yul\":38310:38317   */\n      dup4\n        /* \"#utility.yul\":38304:38308   */\n      dup4\n        /* \"#utility.yul\":38160:38327   */\n      tag_418\n      jump\t// in\n    tag_817:\n        /* \"#utility.yul\":37969:38333   */\n      pop\n      pop\n      pop\n      jump\t// out\n        /* \"#utility.yul\":38339:39673   */\n    tag_420:\n        /* \"#utility.yul\":38507:38508   */\n      0x00\n        /* \"#utility.yul\":38501:38505   */\n      dup2\n        /* \"#utility.yul\":38497:38509   */\n      add\n        /* \"#utility.yul\":38553:38554   */\n      0x00\n        /* \"#utility.yul\":38546:38551   */\n      dup4\n        /* \"#utility.yul\":38542:38555   */\n      add\n        /* \"#utility.yul\":38618:38681   */\n      tag_819\n        /* \"#utility.yul\":38668:38680   */\n      dup2\n        /* \"#utility.yul\":38661:38666   */\n      dup6\n        /* \"#utility.yul\":38618:38681   */\n      tag_170\n      jump\t// in\n    tag_819:\n        /* \"#utility.yul\":38695:38808   */\n      tag_820\n        /* \"#utility.yul\":38794:38807   */\n      dup2\n        /* \"#utility.yul\":38779:38792   */\n      dup4\n        /* \"#utility.yul\":38767:38777   */\n      dup7\n        /* \"#utility.yul\":38695:38808   */\n      tag_391\n      jump\t// in\n    tag_820:\n        /* \"#utility.yul\":38464:38819   */\n      pop\n      pop\n      pop\n      pop\n        /* \"#utility.yul\":38872:38873   */\n      0x01\n        /* \"#utility.yul\":38866:38870   */\n      dup2\n        /* \"#utility.yul\":38862:38874   */\n      add\n        /* \"#utility.yul\":38918:38920   */\n      0x20\n        /* \"#utility.yul\":38911:38916   */\n      dup4\n        /* \"#utility.yul\":38907:38921   */\n      add\n        /* \"#utility.yul\":38984:39047   */\n      tag_821\n        /* \"#utility.yul\":39034:39046   */\n      dup2\n        /* \"#utility.yul\":39027:39032   */\n      dup6\n        /* \"#utility.yul\":38984:39047   */\n      tag_170\n      jump\t// in\n    tag_821:\n        /* \"#utility.yul\":39061:39174   */\n      tag_822\n        /* \"#utility.yul\":39160:39173   */\n      dup2\n        /* \"#utility.yul\":39145:39158   */\n      dup4\n        /* \"#utility.yul\":39133:39143   */\n      dup7\n        /* \"#utility.yul\":39061:39174   */\n      tag_391\n      jump\t// in\n    tag_822:\n        /* \"#utility.yul\":38829:39185   */\n      pop\n      pop\n      pop\n      pop\n        /* \"#utility.yul\":39238:39239   */\n      0x02\n        /* \"#utility.yul\":39232:39236   */\n      dup2\n        /* \"#utility.yul\":39228:39240   */\n      add\n        /* \"#utility.yul\":39284:39286   */\n      0x40\n        /* \"#utility.yul\":39277:39282   */\n      dup4\n        /* \"#utility.yul\":39273:39287   */\n      add\n        /* \"#utility.yul\":39350:39453   */\n      tag_823\n        /* \"#utility.yul\":39440:39452   */\n      dup2\n        /* \"#utility.yul\":39433:39438   */\n      dup6\n        /* \"#utility.yul\":39350:39453   */\n      tag_211\n      jump\t// in\n    tag_823:\n        /* \"#utility.yul\":39467:39655   */\n      tag_824\n        /* \"#utility.yul\":39641:39654   */\n      dup2\n        /* \"#utility.yul\":39626:39639   */\n      dup4\n        /* \"#utility.yul\":39614:39624   */\n      dup7\n        /* \"#utility.yul\":39467:39655   */\n      tag_419\n      jump\t// in\n    tag_824:\n        /* \"#utility.yul\":39195:39666   */\n      pop\n      pop\n      pop\n      pop\n        /* \"#utility.yul\":38339:39673   */\n      pop\n      pop\n      jump\t// out\n        /* \"#utility.yul\":39679:39920   */\n    tag_219:\n        /* \"#utility.yul\":39808:39914   */\n      tag_826\n        /* \"#utility.yul\":39906:39913   */\n      dup3\n        /* \"#utility.yul\":39900:39904   */\n      dup3\n        /* \"#utility.yul\":39808:39914   */\n      tag_420\n      jump\t// in\n    tag_826:\n        /* \"#utility.yul\":39679:39920   */\n      pop\n      pop\n      jump\t// out\n        /* \"#utility.yul\":39926:40063   */\n    tag_421:\n        /* \"#utility.yul\":39971:39976   */\n      0x00\n        /* \"#utility.yul\":40009:40015   */\n      dup2\n        /* \"#utility.yul\":39996:40016   */\n      calldataload\n        /* \"#utility.yul\":39987:40016   */\n      swap1\n      pop\n        /* \"#utility.yul\":40025:40057   */\n      tag_828\n        /* \"#utility.yul\":40051:40056   */\n      dup2\n        /* \"#utility.yul\":40025:40057   */\n      tag_409\n      jump\t// in\n    tag_828:\n        /* \"#utility.yul\":39926:40063   */\n      swap3\n      swap2\n      pop\n      pop\n      jump\t// out\n        /* \"#utility.yul\":40069:40396   */\n    tag_245:\n        /* \"#utility.yul\":40127:40133   */\n      0x00\n        /* \"#utility.yul\":40176:40178   */\n      0x20\n        /* \"#utility.yul\":40164:40173   */\n      dup3\n        /* \"#utility.yul\":40155:40162   */\n      dup5\n        /* \"#utility.yul\":40151:40174   */\n      sub\n        /* \"#utility.yul\":40147:40179   */\n      slt\n        /* \"#utility.yul\":40144:40263   */\n      iszero\n      tag_830\n      jumpi\n        /* \"#utility.yul\":40182:40261   */\n      tag_831\n      tag_314\n      jump\t// in\n    tag_831:\n        /* \"#utility.yul\":40144:40263   */\n    tag_830:\n        /* \"#utility.yul\":40302:40303   */\n      0x00\n        /* \"#utility.yul\":40327:40379   */\n      tag_832\n        /* \"#utility.yul\":40371:40378   */\n      dup5\n        /* \"#utility.yul\":40362:40368   */\n      dup3\n        /* \"#utility.yul\":40351:40360   */\n      dup6\n        /* \"#utility.yul\":40347:40369   */\n      add\n        /* \"#utility.yul\":40327:40379   */\n      tag_421\n      jump\t// in\n    tag_832:\n        /* \"#utility.yul\":40317:40379   */\n      swap2\n      pop\n        /* \"#utility.yul\":40273:40389   */\n      pop\n        /* \"#utility.yul\":40069:40396   */\n      swap3\n      swap2\n      pop\n      pop\n      jump\t// out\n        /* \"#utility.yul\":40402:40519   */\n    tag_422:\n        /* \"#utility.yul\":40511:40512   */\n      0x00\n        /* \"#utility.yul\":40508:40509   */\n      0x00\n        /* \"#utility.yul\":40501:40513   */\n      revert\n        /* \"#utility.yul\":40648:40739   */\n    tag_424:\n        /* \"#utility.yul\":40684:40691   */\n      0x00\n        /* \"#utility.yul\":40724:40732   */\n      0xffffff\n        /* \"#utility.yul\":40717:40722   */\n      dup3\n        /* \"#utility.yul\":40713:40733   */\n      and\n        /* \"#utility.yul\":40702:40733   */\n      swap1\n      pop\n        /* \"#utility.yul\":40648:40739   */\n      swap2\n      swap1\n      pop\n      jump\t// out\n        /* \"#utility.yul\":40745:40865   */\n    tag_425:\n        /* \"#utility.yul\":40817:40840   */\n      tag_837\n        /* \"#utility.yul\":40834:40839   */\n      dup2\n        /* \"#utility.yul\":40817:40840   */\n      tag_424\n      jump\t// in\n    tag_837:\n        /* \"#utility.yul\":40810:40815   */\n      dup2\n        /* \"#utility.yul\":40807:40841   */\n      eq\n        /* \"#utility.yul\":40797:40859   */\n      tag_838\n      jumpi\n        /* \"#utility.yul\":40855:40856   */\n      0x00\n        /* \"#utility.yul\":40852:40853   */\n      0x00\n        /* \"#utility.yul\":40845:40857   */\n      revert\n        /* \"#utility.yul\":40797:40859   */\n    tag_838:\n        /* \"#utility.yul\":40745:40865   */\n      pop\n      jump\t// out\n        /* \"#utility.yul\":40871:41012   */\n    tag_426:\n        /* \"#utility.yul\":40927:40932   */\n      0x00\n        /* \"#utility.yul\":40958:40964   */\n      dup2\n        /* \"#utility.yul\":40952:40965   */\n      mload\n        /* \"#utility.yul\":40943:40965   */\n      swap1\n      pop\n        /* \"#utility.yul\":40974:41006   */\n      tag_840\n        /* \"#utility.yul\":41000:41005   */\n      dup2\n        /* \"#utility.yul\":40974:41006   */\n      tag_425\n      jump\t// in\n    tag_840:\n        /* \"#utility.yul\":40871:41012   */\n      swap3\n      swap2\n      pop\n      pop\n      jump\t// out\n        /* \"#utility.yul\":41018:41104   */\n    tag_427:\n        /* \"#utility.yul\":41053:41060   */\n      0x00\n        /* \"#utility.yul\":41093:41097   */\n      0xff\n        /* \"#utility.yul\":41086:41091   */\n      dup3\n        /* \"#utility.yul\":41082:41098   */\n      and\n        /* \"#utility.yul\":41071:41098   */\n      swap1\n      pop\n        /* \"#utility.yul\":41018:41104   */\n      swap2\n      swap1\n      pop\n      jump\t// out\n        /* \"#utility.yul\":41110:41228   */\n    tag_428:\n        /* \"#utility.yul\":41181:41203   */\n      tag_843\n        /* \"#utility.yul\":41197:41202   */\n      dup2\n        /* \"#utility.yul\":41181:41203   */\n      tag_427\n      jump\t// in\n    tag_843:\n        /* \"#utility.yul\":41174:41179   */\n      dup2\n        /* \"#utility.yul\":41171:41204   */\n      eq\n        /* \"#utility.yul\":41161:41222   */\n      tag_844\n      jumpi\n        /* \"#utility.yul\":41218:41219   */\n      0x00\n        /* \"#utility.yul\":41215:41216   */\n      0x00\n        /* \"#utility.yul\":41208:41220   */\n      revert\n        /* \"#utility.yul\":41161:41222   */\n    tag_844:\n        /* \"#utility.yul\":41110:41228   */\n      pop\n      jump\t// out\n        /* \"#utility.yul\":41234:41373   */\n    tag_429:\n        /* \"#utility.yul\":41289:41294   */\n      0x00\n        /* \"#utility.yul\":41320:41326   */\n      dup2\n        /* \"#utility.yul\":41314:41327   */\n      mload\n        /* \"#utility.yul\":41305:41327   */\n      swap1\n      pop\n        /* \"#utility.yul\":41336:41367   */\n      tag_846\n        /* \"#utility.yul\":41361:41366   */\n      dup2\n        /* \"#utility.yul\":41336:41367   */\n      tag_428\n      jump\t// in\n    tag_846:\n        /* \"#utility.yul\":41234:41373   */\n      swap3\n      swap2\n      pop\n      pop\n      jump\t// out\n        /* \"#utility.yul\":41379:41480   */\n    tag_430:\n        /* \"#utility.yul\":41415:41422   */\n      0x00\n        /* \"#utility.yul\":41455:41473   */\n      0xffffffffffffffff\n        /* \"#utility.yul\":41448:41453   */\n      dup3\n        /* \"#utility.yul\":41444:41474   */\n      and\n        /* \"#utility.yul\":41433:41474   */\n      swap1\n      pop\n        /* \"#utility.yul\":41379:41480   */\n      swap2\n      swap1\n      pop\n      jump\t// out\n        /* \"#utility.yul\":41486:41606   */\n    tag_431:\n        /* \"#utility.yul\":41558:41581   */\n      tag_849\n        /* \"#utility.yul\":41575:41580   */\n      dup2\n        /* \"#utility.yul\":41558:41581   */\n      tag_430\n      jump\t// in\n    tag_849:\n        /* \"#utility.yul\":41551:41556   */\n      dup2\n        /* \"#utility.yul\":41548:41582   */\n      eq\n        /* \"#utility.yul\":41538:41600   */\n      tag_850\n      jumpi\n        /* \"#utility.yul\":41596:41597   */\n      0x00\n        /* \"#utility.yul\":41593:41594   */\n      0x00\n        /* \"#utility.yul\":41586:41598   */\n      revert\n        /* \"#utility.yul\":41538:41600   */\n    tag_850:\n        /* \"#utility.yul\":41486:41606   */\n      pop\n      jump\t// out\n        /* \"#utility.yul\":41612:41753   */\n    tag_432:\n        /* \"#utility.yul\":41668:41673   */\n      0x00\n        /* \"#utility.yul\":41699:41705   */\n      dup2\n        /* \"#utility.yul\":41693:41706   */\n      mload\n        /* \"#utility.yul\":41684:41706   */\n      swap1\n      pop\n        /* \"#utility.yul\":41715:41747   */\n      tag_852\n        /* \"#utility.yul\":41741:41746   */\n      dup2\n        /* \"#utility.yul\":41715:41747   */\n      tag_431\n      jump\t// in\n    tag_852:\n        /* \"#utility.yul\":41612:41753   */\n      swap3\n      swap2\n      pop\n      pop\n      jump\t// out\n        /* \"#utility.yul\":41778:42742   */\n    tag_433:\n        /* \"#utility.yul\":41860:41865   */\n      0x00\n        /* \"#utility.yul\":41904:41908   */\n      0x80\n        /* \"#utility.yul\":41892:41901   */\n      dup3\n        /* \"#utility.yul\":41887:41890   */\n      dup5\n        /* \"#utility.yul\":41883:41902   */\n      sub\n        /* \"#utility.yul\":41879:41909   */\n      slt\n        /* \"#utility.yul\":41876:41993   */\n      iszero\n      tag_854\n      jumpi\n        /* \"#utility.yul\":41912:41991   */\n      tag_855\n      tag_422\n      jump\t// in\n    tag_855:\n        /* \"#utility.yul\":41876:41993   */\n    tag_854:\n        /* \"#utility.yul\":42011:42032   */\n      tag_856\n        /* \"#utility.yul\":42027:42031   */\n      0x80\n        /* \"#utility.yul\":42011:42032   */\n      tag_323\n      jump\t// in\n    tag_856:\n        /* \"#utility.yul\":42002:42032   */\n      swap1\n      pop\n        /* \"#utility.yul\":42098:42099   */\n      0x00\n        /* \"#utility.yul\":42138:42198   */\n      tag_857\n        /* \"#utility.yul\":42194:42197   */\n      dup5\n        /* \"#utility.yul\":42185:42191   */\n      dup3\n        /* \"#utility.yul\":42174:42183   */\n      dup6\n        /* \"#utility.yul\":42170:42192   */\n      add\n        /* \"#utility.yul\":42138:42198   */\n      tag_360\n      jump\t// in\n    tag_857:\n        /* \"#utility.yul\":42131:42135   */\n      0x00\n        /* \"#utility.yul\":42124:42129   */\n      dup4\n        /* \"#utility.yul\":42120:42136   */\n      add\n        /* \"#utility.yul\":42113:42199   */\n      mstore\n        /* \"#utility.yul\":42042:42210   */\n      pop\n        /* \"#utility.yul\":42272:42274   */\n      0x20\n        /* \"#utility.yul\":42313:42372   */\n      tag_858\n        /* \"#utility.yul\":42368:42371   */\n      dup5\n        /* \"#utility.yul\":42359:42365   */\n      dup3\n        /* \"#utility.yul\":42348:42357   */\n      dup6\n        /* \"#utility.yul\":42344:42366   */\n      add\n        /* \"#utility.yul\":42313:42372   */\n      tag_426\n      jump\t// in\n    tag_858:\n        /* \"#utility.yul\":42306:42310   */\n      0x20\n        /* \"#utility.yul\":42299:42304   */\n      dup4\n        /* \"#utility.yul\":42295:42311   */\n      add\n        /* \"#utility.yul\":42288:42373   */\n      mstore\n        /* \"#utility.yul\":42220:42384   */\n      pop\n        /* \"#utility.yul\":42447:42449   */\n      0x40\n        /* \"#utility.yul\":42488:42546   */\n      tag_859\n        /* \"#utility.yul\":42542:42545   */\n      dup5\n        /* \"#utility.yul\":42533:42539   */\n      dup3\n        /* \"#utility.yul\":42522:42531   */\n      dup6\n        /* \"#utility.yul\":42518:42540   */\n      add\n        /* \"#utility.yul\":42488:42546   */\n      tag_429\n      jump\t// in\n    tag_859:\n        /* \"#utility.yul\":42481:42485   */\n      0x40\n        /* \"#utility.yul\":42474:42479   */\n      dup4\n        /* \"#utility.yul\":42470:42486   */\n      add\n        /* \"#utility.yul\":42463:42547   */\n      mstore\n        /* \"#utility.yul\":42394:42558   */\n      pop\n        /* \"#utility.yul\":42623:42625   */\n      0x60\n        /* \"#utility.yul\":42664:42723   */\n      tag_860\n        /* \"#utility.yul\":42719:42722   */\n      dup5\n        /* \"#utility.yul\":42710:42716   */\n      dup3\n        /* \"#utility.yul\":42699:42708   */\n      dup6\n        /* \"#utility.yul\":42695:42717   */\n      add\n        /* \"#utility.yul\":42664:42723   */\n      tag_432\n      jump\t// in\n    tag_860:\n        /* \"#utility.yul\":42657:42661   */\n      0x60\n        /* \"#utility.yul\":42650:42655   */\n      dup4\n        /* \"#utility.yul\":42646:42662   */\n      add\n        /* \"#utility.yul\":42639:42724   */\n      mstore\n        /* \"#utility.yul\":42568:42735   */\n      pop\n        /* \"#utility.yul\":41778:42742   */\n      swap3\n      swap2\n      pop\n      pop\n      jump\t// out\n        /* \"#utility.yul\":42748:43144   */\n    tag_253:\n        /* \"#utility.yul\":42840:42846   */\n      0x00\n        /* \"#utility.yul\":42889:42892   */\n      0x80\n        /* \"#utility.yul\":42877:42886   */\n      dup3\n        /* \"#utility.yul\":42868:42875   */\n      dup5\n        /* \"#utility.yul\":42864:42887   */\n      sub\n        /* \"#utility.yul\":42860:42893   */\n      slt\n        /* \"#utility.yul\":42857:42977   */\n      iszero\n      tag_862\n      jumpi\n        /* \"#utility.yul\":42896:42975   */\n      tag_863\n      tag_314\n      jump\t// in\n    tag_863:\n        /* \"#utility.yul\":42857:42977   */\n    tag_862:\n        /* \"#utility.yul\":43016:43017   */\n      0x00\n        /* \"#utility.yul\":43041:43127   */\n      tag_864\n        /* \"#utility.yul\":43119:43126   */\n      dup5\n        /* \"#utility.yul\":43110:43116   */\n      dup3\n        /* \"#utility.yul\":43099:43108   */\n      dup6\n        /* \"#utility.yul\":43095:43117   */\n      add\n        /* \"#utility.yul\":43041:43127   */\n      tag_433\n      jump\t// in\n    tag_864:\n        /* \"#utility.yul\":43031:43127   */\n      swap2\n      pop\n        /* \"#utility.yul\":42987:43137   */\n      pop\n        /* \"#utility.yul\":42748:43144   */\n      swap3\n      swap2\n      pop\n      pop\n      jump\t// out\n        /* \"#utility.yul\":43170:43755   */\n    tag_434:\n        /* \"#utility.yul\":43242:43247   */\n      0x00\n        /* \"#utility.yul\":43286:43290   */\n      0x40\n        /* \"#utility.yul\":43274:43283   */\n      dup3\n        /* \"#utility.yul\":43269:43272   */\n      dup5\n        /* \"#utility.yul\":43265:43284   */\n      sub\n        /* \"#utility.yul\":43261:43291   */\n      slt\n        /* \"#utility.yul\":43258:43375   */\n      iszero\n      tag_866\n      jumpi\n        /* \"#utility.yul\":43294:43373   */\n      tag_867\n      tag_422\n      jump\t// in\n    tag_867:\n        /* \"#utility.yul\":43258:43375   */\n    tag_866:\n        /* \"#utility.yul\":43393:43414   */\n      tag_868\n        /* \"#utility.yul\":43409:43413   */\n      0x40\n        /* \"#utility.yul\":43393:43414   */\n      tag_323\n      jump\t// in\n    tag_868:\n        /* \"#utility.yul\":43384:43414   */\n      swap1\n      pop\n        /* \"#utility.yul\":43481:43482   */\n      0x00\n        /* \"#utility.yul\":43521:43570   */\n      tag_869\n        /* \"#utility.yul\":43566:43569   */\n      dup5\n        /* \"#utility.yul\":43557:43563   */\n      dup3\n        /* \"#utility.yul\":43546:43555   */\n      dup6\n        /* \"#utility.yul\":43542:43564   */\n      add\n        /* \"#utility.yul\":43521:43570   */\n      tag_349\n      jump\t// in\n    tag_869:\n        /* \"#utility.yul\":43514:43518   */\n      0x00\n        /* \"#utility.yul\":43507:43512   */\n      dup4\n        /* \"#utility.yul\":43503:43519   */\n      add\n        /* \"#utility.yul\":43496:43571   */\n      mstore\n        /* \"#utility.yul\":43424:43582   */\n      pop\n        /* \"#utility.yul\":43647:43649   */\n      0x20\n        /* \"#utility.yul\":43688:43736   */\n      tag_870\n        /* \"#utility.yul\":43732:43735   */\n      dup5\n        /* \"#utility.yul\":43723:43729   */\n      dup3\n        /* \"#utility.yul\":43712:43721   */\n      dup6\n        /* \"#utility.yul\":43708:43730   */\n      add\n        /* \"#utility.yul\":43688:43736   */\n      tag_421\n      jump\t// in\n    tag_870:\n        /* \"#utility.yul\":43681:43685   */\n      0x20\n        /* \"#utility.yul\":43674:43679   */\n      dup4\n        /* \"#utility.yul\":43670:43686   */\n      add\n        /* \"#utility.yul\":43663:43737   */\n      mstore\n        /* \"#utility.yul\":43592:43748   */\n      pop\n        /* \"#utility.yul\":43170:43755   */\n      swap3\n      swap2\n      pop\n      pop\n      jump\t// out\n        /* \"#utility.yul\":43761:44136   */\n    tag_259:\n        /* \"#utility.yul\":43843:43849   */\n      0x00\n        /* \"#utility.yul\":43892:43894   */\n      0x40\n        /* \"#utility.yul\":43880:43889   */\n      dup3\n        /* \"#utility.yul\":43871:43878   */\n      dup5\n        /* \"#utility.yul\":43867:43890   */\n      sub\n        /* \"#utility.yul\":43863:43895   */\n      slt\n        /* \"#utility.yul\":43860:43979   */\n      iszero\n      tag_872\n      jumpi\n        /* \"#utility.yul\":43898:43977   */\n      tag_873\n      tag_314\n      jump\t// in\n    tag_873:\n        /* \"#utility.yul\":43860:43979   */\n    tag_872:\n        /* \"#utility.yul\":44018:44019   */\n      0x00\n        /* \"#utility.yul\":44043:44119   */\n      tag_874\n        /* \"#utility.yul\":44111:44118   */\n      dup5\n        /* \"#utility.yul\":44102:44108   */\n      dup3\n        /* \"#utility.yul\":44091:44100   */\n      dup6\n        /* \"#utility.yul\":44087:44109   */\n      add\n        /* \"#utility.yul\":44043:44119   */\n      tag_434\n      jump\t// in\n    tag_874:\n        /* \"#utility.yul\":44033:44119   */\n      swap2\n      pop\n        /* \"#utility.yul\":43989:44129   */\n      pop\n        /* \"#utility.yul\":43761:44136   */\n      swap3\n      swap2\n      pop\n      pop\n      jump\t// out\n        /* \"#utility.yul\":44142:44289   */\n    tag_435:\n        /* \"#utility.yul\":44243:44254   */\n      0x00\n        /* \"#utility.yul\":44280:44283   */\n      dup2\n        /* \"#utility.yul\":44265:44283   */\n      swap1\n      pop\n        /* \"#utility.yul\":44142:44289   */\n      swap3\n      swap2\n      pop\n      pop\n      jump\t// out\n        /* \"#utility.yul\":44317:44644   */\n    tag_436:\n        /* \"#utility.yul\":44431:44434   */\n      0x00\n        /* \"#utility.yul\":44452:44540   */\n      tag_877\n        /* \"#utility.yul\":44533:44539   */\n      dup4\n        /* \"#utility.yul\":44528:44531   */\n      dup6\n        /* \"#utility.yul\":44452:44540   */\n      tag_435\n      jump\t// in\n    tag_877:\n        /* \"#utility.yul\":44445:44540   */\n      swap4\n      pop\n        /* \"#utility.yul\":44550:44606   */\n      tag_878\n        /* \"#utility.yul\":44599:44605   */\n      dup4\n        /* \"#utility.yul\":44594:44597   */\n      dup6\n        /* \"#utility.yul\":44587:44592   */\n      dup5\n        /* \"#utility.yul\":44550:44606   */\n      tag_325\n      jump\t// in\n    tag_878:\n        /* \"#utility.yul\":44631:44637   */\n      dup3\n        /* \"#utility.yul\":44626:44629   */\n      dup5\n        /* \"#utility.yul\":44622:44638   */\n      add\n        /* \"#utility.yul\":44615:44638   */\n      swap1\n      pop\n        /* \"#utility.yul\":44317:44644   */\n      swap4\n      swap3\n      pop\n      pop\n      pop\n      jump\t// out\n        /* \"#utility.yul\":44650:44941   */\n    tag_286:\n        /* \"#utility.yul\":44790:44793   */\n      0x00\n        /* \"#utility.yul\":44812:44915   */\n      tag_880\n        /* \"#utility.yul\":44911:44914   */\n      dup3\n        /* \"#utility.yul\":44902:44908   */\n      dup5\n        /* \"#utility.yul\":44894:44900   */\n      dup7\n        /* \"#utility.yul\":44812:44915   */\n      tag_436\n      jump\t// in\n    tag_880:\n        /* \"#utility.yul\":44805:44915   */\n      swap2\n      pop\n        /* \"#utility.yul\":44932:44935   */\n      dup2\n        /* \"#utility.yul\":44925:44935   */\n      swap1\n      pop\n        /* \"#utility.yul\":44650:44941   */\n      swap4\n      swap3\n      pop\n      pop\n      pop\n      jump\t// out\n        /* \"#utility.yul\":44947:45154   */\n    tag_437:\n        /* \"#utility.yul\":45069:45080   */\n      0x00\n        /* \"#utility.yul\":45103:45109   */\n      dup3\n        /* \"#utility.yul\":45098:45101   */\n      dup3\n        /* \"#utility.yul\":45091:45110   */\n      mstore\n        /* \"#utility.yul\":45143:45147   */\n      0x20\n        /* \"#utility.yul\":45138:45141   */\n      dup3\n        /* \"#utility.yul\":45134:45148   */\n      add\n        /* \"#utility.yul\":45119:45148   */\n      swap1\n      pop\n        /* \"#utility.yul\":44947:45154   */\n      swap3\n      swap2\n      pop\n      pop\n      jump\t// out\n        /* \"#utility.yul\":45200:46116   */\n    tag_438:\n        /* \"#utility.yul\":45365:45368   */\n      0x00\n        /* \"#utility.yul\":45394:45471   */\n      tag_883\n        /* \"#utility.yul\":45465:45470   */\n      dup3\n        /* \"#utility.yul\":45394:45471   */\n      tag_332\n      jump\t// in\n    tag_883:\n        /* \"#utility.yul\":45487:45596   */\n      tag_884\n        /* \"#utility.yul\":45589:45595   */\n      dup2\n        /* \"#utility.yul\":45584:45587   */\n      dup6\n        /* \"#utility.yul\":45487:45596   */\n      tag_437\n      jump\t// in\n    tag_884:\n        /* \"#utility.yul\":45480:45596   */\n      swap4\n      pop\n        /* \"#utility.yul\":45620:45699   */\n      tag_885\n        /* \"#utility.yul\":45693:45698   */\n      dup4\n        /* \"#utility.yul\":45620:45699   */\n      tag_334\n      jump\t// in\n    tag_885:\n        /* \"#utility.yul\":45722:45729   */\n      dup1\n        /* \"#utility.yul\":45753:45754   */\n      0x00\n        /* \"#utility.yul\":45738:46091   */\n    tag_886:\n        /* \"#utility.yul\":45763:45769   */\n      dup4\n        /* \"#utility.yul\":45760:45761   */\n      dup2\n        /* \"#utility.yul\":45757:45770   */\n      lt\n        /* \"#utility.yul\":45738:46091   */\n      iszero\n      tag_888\n      jumpi\n        /* \"#utility.yul\":45839:45845   */\n      dup2\n        /* \"#utility.yul\":45833:45846   */\n      mload\n        /* \"#utility.yul\":45866:45975   */\n      tag_889\n        /* \"#utility.yul\":45971:45974   */\n      dup9\n        /* \"#utility.yul\":45956:45969   */\n      dup3\n        /* \"#utility.yul\":45866:45975   */\n      tag_339\n      jump\t// in\n    tag_889:\n        /* \"#utility.yul\":45859:45975   */\n      swap8\n      pop\n        /* \"#utility.yul\":45998:46081   */\n      tag_890\n        /* \"#utility.yul\":46074:46080   */\n      dup4\n        /* \"#utility.yul\":45998:46081   */\n      tag_340\n      jump\t// in\n    tag_890:\n        /* \"#utility.yul\":45988:46081   */\n      swap3\n      pop\n        /* \"#utility.yul\":45798:46091   */\n      pop\n        /* \"#utility.yul\":45785:45786   */\n      0x01\n        /* \"#utility.yul\":45782:45783   */\n      dup2\n        /* \"#utility.yul\":45778:45787   */\n      add\n        /* \"#utility.yul\":45773:45787   */\n      swap1\n      pop\n        /* \"#utility.yul\":45738:46091   */\n      jump(tag_886)\n    tag_888:\n        /* \"#utility.yul\":45742:45756   */\n      pop\n        /* \"#utility.yul\":46107:46110   */\n      dup6\n        /* \"#utility.yul\":46100:46110   */\n      swap4\n      pop\n        /* \"#utility.yul\":45370:46116   */\n      pop\n      pop\n      pop\n        /* \"#utility.yul\":45200:46116   */\n      swap3\n      swap2\n      pop\n      pop\n      jump\t// out\n        /* \"#utility.yul\":46122:46587   */\n    tag_309:\n        /* \"#utility.yul\":46311:46315   */\n      0x00\n        /* \"#utility.yul\":46349:46351   */\n      0x20\n        /* \"#utility.yul\":46338:46347   */\n      dup3\n        /* \"#utility.yul\":46334:46352   */\n      add\n        /* \"#utility.yul\":46326:46352   */\n      swap1\n      pop\n        /* \"#utility.yul\":46398:46407   */\n      dup2\n        /* \"#utility.yul\":46392:46396   */\n      dup2\n        /* \"#utility.yul\":46388:46408   */\n      sub\n        /* \"#utility.yul\":46384:46385   */\n      0x00\n        /* \"#utility.yul\":46373:46382   */\n      dup4\n        /* \"#utility.yul\":46369:46386   */\n      add\n        /* \"#utility.yul\":46362:46409   */\n      mstore\n        /* \"#utility.yul\":46426:46580   */\n      tag_892\n        /* \"#utility.yul\":46575:46579   */\n      dup2\n        /* \"#utility.yul\":46566:46572   */\n      dup5\n        /* \"#utility.yul\":46426:46580   */\n      tag_438\n      jump\t// in\n    tag_892:\n        /* \"#utility.yul\":46418:46580   */\n      swap1\n      pop\n        /* \"#utility.yul\":46122:46587   */\n      swap3\n      swap2\n      pop\n      pop\n      jump\t// out\n\n    auxdata: 0xa2646970667358221220bbc66d0b8b1912c71c663cb73498e24ef8f7b005ea33b4dca6bd0dc4c580dbfe64736f6c634300081e0033\n}\n",
				"bytecode": {
					"linkReferences": {},
					"object": "60c0604052670de0b6b3a764000060809081525034801561001e575f5ffd5b506040516134833803806134838339818101604052810190610040919061029c565b816100508161008c60201b60201c565b508073ffffffffffffffffffffffffffffffffffffffff1660a08173ffffffffffffffffffffffffffffffffffffffff16815250505050610473565b5f73ffffffffffffffffffffffffffffffffffffffff168173ffffffffffffffffffffffffffffffffffffffff16036100fa576040517f08c379a00000000000000000000000000000000000000000000000000000000081526004016100f190610334565b60405180910390fd5b5f8173ffffffffffffffffffffffffffffffffffffffff163b11610153576040517f08c379a000000000000000000000000000000000000000000000000000000000815260040161014a9061039c565b60405180910390fd5b8073ffffffffffffffffffffffffffffffffffffffff16638da5cb5b6040518163ffffffff1660e01b8152600401602060405180830381865afa9250505080156101bb57506040513d601f19601f820116820180604052508101906101b891906103ba565b60015b6101fa576040517f08c379a00000000000000000000000000000000000000000000000000000000081526004016101f190610455565b60405180910390fd5b8160075f6101000a81548173ffffffffffffffffffffffffffffffffffffffff021916908373ffffffffffffffffffffffffffffffffffffffff1602179055505050565b5f5ffd5b5f73ffffffffffffffffffffffffffffffffffffffff82169050919050565b5f61026b82610242565b9050919050565b61027b81610261565b8114610285575f5ffd5b50565b5f8151905061029681610272565b92915050565b5f5f604083850312156102b2576102b161023e565b5b5f6102bf85828601610288565b92505060206102d085828601610288565b9150509250929050565b5f82825260208201905092915050565b7f4469726563746f72792063616e6e6f74206265207a65726f20616464726573735f82015250565b5f61031e6020836102da565b9150610329826102ea565b602082019050919050565b5f6020820190508181035f83015261034b81610312565b9050919050565b7f4469726563746f7279206d757374206265206120636f6e7472616374000000005f82015250565b5f610386601c836102da565b915061039182610352565b602082019050919050565b5f6020820190508181035f8301526103b38161037a565b9050919050565b5f602082840312156103cf576103ce61023e565b5b5f6103dc84828501610288565b91505092915050565b7f4469726563746f7279206164647265737320646f6573206e6f7420696d706c655f8201527f6d656e74206f776e657228290000000000000000000000000000000000000000602082015250565b5f61043f602c836102da565b915061044a826103e5565b604082019050919050565b5f6020820190508181035f83015261046c81610433565b9050919050565b60805160a051612fe861049b5f395f81816102e901526113d701525f6104a20152612fe85ff3fe608060405234801561000f575f5ffd5b50600436106100cd575f3560e01c8063658a847a1161008a578063c45f060711610064578063c45f060714610226578063ecb0271c14610257578063f2018a1f14610287578063fc0121d4146102b7576100cd565b8063658a847a146101ce5780638da5cb5b146101ec578063ba4c7be11461020a576100cd565b8063040141e5146100d15780631626542c146100ef578063272626181461010b5780633088f0691461013b5780633ee799621461016c578063616686901461019c575b5f5ffd5b6100d96102e7565b6040516100e69190611a6d565b60405180910390f35b61010960048036038101906101049190611aca565b61030b565b005b61012560048036038101906101209190611c44565b61052d565b6040516101329190611a6d565b60405180910390f35b61015560048036038101906101509190611c8b565b6105ce565b604051610163929190611e71565b60405180910390f35b61018660048036038101906101819190611c8b565b6105f2565b6040516101939190611a6d565b60405180910390f35b6101b660048036038101906101b19190611c8b565b610690565b6040516101c593929190611e9f565b60405180910390f35b6101d66106c2565b6040516101e39190611f36565b60405180910390f35b6101f46106e7565b6040516102019190611a6d565b60405180910390f35b610224600480360381019061021f9190611f79565b61077b565b005b610240600480360381019061023b9190611c8b565b610882565b60405161024e929190611fb3565b60405180910390f35b610271600480360381019061026c9190611c8b565b6108b1565b60405161027e9190611fda565b60405180910390f35b6102a1600480360381019061029c9190611c8b565b610b24565b6040516102ae9190611a6d565b60405180910390f35b6102d160048036038101906102cc919061201c565b610bc2565b6040516102de9190612063565b60405180910390f35b7f000000000000000000000000000000000000000000000000000000000000000081565b6103496040518060400160405280600a81526020017f6574662d726f757465720000000000000000000000000000000000000000000081525061052d565b73ffffffffffffffffffffffffffffffffffffffff163373ffffffffffffffffffffffffffffffffffffffff16146103b6576040517f08c379a00000000000000000000000000000000000000000000000000000000081526004016103ad906120d6565b60405180910390fd5b5f81036103ef576040517fcca7f00400000000000000000000000000000000000000000000000000000000815260040160405180910390fd5b5f6103f8610ecb565b73ffffffffffffffffffffffffffffffffffffffff16636855e9396040518163ffffffff1660e01b8152600401602060405180830381865afa158015610440573d5f5f3e3d5ffd5b505050506040513d601f19601f820116820180604052508101906104649190612108565b90505f810361049f576040517f110ea95100000000000000000000000000000000000000000000000000000000815260040160405180910390fd5b5f7f000000000000000000000000000000000000000000000000000000000000000082846104cd9190612160565b6104d791906121ce565b90508260055f8681526020019081526020015f205f8282546104f991906121fe565b925050819055508060065f8681526020019081526020015f205f82825461052091906121fe565b9250508190555050505050565b5f60075f9054906101000a900473ffffffffffffffffffffffffffffffffffffffff1673ffffffffffffffffffffffffffffffffffffffff166327262618836040518263ffffffff1660e01b81526004016105889190612269565b602060405180830381865afa1580156105a3573d5f5f3e3d5ffd5b505050506040513d601f19601f820116820180604052508101906105c7919061229d565b9050919050565b6105d66119db565b5f6105e0836108b1565b91506105eb836105f2565b9050915091565b5f60045f8381526020019081526020015f205f9054906101000a900473ffffffffffffffffffffffffffffffffffffffff1690505f73ffffffffffffffffffffffffffffffffffffffff168173ffffffffffffffffffffffffffffffffffffffff160361068b576040517fe6c4247b00000000000000000000000000000000000000000000000000000000815260040160405180910390fd5b919050565b6106986119db565b5f5f6106a3846108b1565b92506106ae84610b24565b91506106b9846105f2565b90509193909250565b60075f9054906101000a900473ffffffffffffffffffffffffffffffffffffffff1681565b5f60075f9054906101000a900473ffffffffffffffffffffffffffffffffffffffff1673ffffffffffffffffffffffffffffffffffffffff16638da5cb5b6040518163ffffffff1660e01b8152600401602060405180830381865afa158015610752573d5f5f3e3d5ffd5b505050506040513d601f19601f82011682018060405250810190610776919061229d565b905090565b60075f9054906101000a900473ffffffffffffffffffffffffffffffffffffffff1673ffffffffffffffffffffffffffffffffffffffff16638da5cb5b6040518163ffffffff1660e01b8152600401602060405180830381865afa1580156107e5573d5f5f3e3d5ffd5b505050506040513d601f19601f82011682018060405250810190610809919061229d565b73ffffffffffffffffffffffffffffffffffffffff163373ffffffffffffffffffffffffffffffffffffffff1614610876576040517f08c379a000000000000000000000000000000000000000000000000000000000815260040161086d90612312565b60405180910390fd5b61087f81610f0f565b50565b5f5f60055f8481526020019081526020015f2054915060065f8481526020019081526020015f20549050915091565b6108b96119db565b5f8214806108ca57505f8054905082115b15610901576040517fdfa1a40800000000000000000000000000000000000000000000000000000000815260040160405180910390fd5b5f61090b836110c1565b8154811061091c5761091b612330565b5b905f5260205f2090600302016040518060600160405290815f820180546109429061238a565b80601f016020809104026020016040519081016040528092919081815260200182805461096e9061238a565b80156109b95780601f10610990576101008083540402835291602001916109b9565b820191905f5260205f20905b81548152906001019060200180831161099c57829003601f168201915b505050505081526020016001820180546109d29061238a565b80601f01602080910402602001604051908101604052809291908181526020018280546109fe9061238a565b8015610a495780601f10610a2057610100808354040283529160200191610a49565b820191905f5260205f20905b815481529060010190602001808311610a2c57829003601f168201915b5050505050815260200160028201805480602002602001604051908101604052809291908181526020015f905b82821015610b15578382905f5260205f20016040518060400160405290815f82015f9054906101000a900473ffffffffffffffffffffffffffffffffffffffff1673ffffffffffffffffffffffffffffffffffffffff1673ffffffffffffffffffffffffffffffffffffffff1681526020015f820160149054906101000a900461ffff1661ffff1661ffff168152505081526020019060010190610a76565b50505050815250509050919050565b5f60035f8381526020019081526020015f205f9054906101000a900473ffffffffffffffffffffffffffffffffffffffff1690505f73ffffffffffffffffffffffffffffffffffffffff168173ffffffffffffffffffffffffffffffffffffffff1603610bbd576040517fe6c4247b00000000000000000000000000000000000000000000000000000000815260040160405180910390fd5b919050565b5f60075f9054906101000a900473ffffffffffffffffffffffffffffffffffffffff1673ffffffffffffffffffffffffffffffffffffffff16638da5cb5b6040518163ffffffff1660e01b8152600401602060405180830381865afa158015610c2d573d5f5f3e3d5ffd5b505050506040513d601f19601f82011682018060405250810190610c51919061229d565b73ffffffffffffffffffffffffffffffffffffffff163373ffffffffffffffffffffffffffffffffffffffff1614610cbe576040517f08c379a0000000000000000000000000000000000000000000000000000000008152600401610cb590612312565b60405180910390fd5b5f610cc8836110d6565b90505f610cd36111c4565b73ffffffffffffffffffffffffffffffffffffffff166378f6c7c48386805f0190610cfe91906123c6565b888060200190610d0e91906123c6565b6040518663ffffffff1660e01b8152600401610d2e959493929190612454565b6020604051808303815f875af1158015610d4a573d5f5f3e3d5ffd5b505050506040513d601f19601f82011682018060405250810190610d6e919061229d565b90505f610d79611208565b73ffffffffffffffffffffffffffffffffffffffff16636c4bb8bd6040518163ffffffff1660e01b81526004016020604051808303815f875af1158015610dc2573d5f5f3e3d5ffd5b505050506040513d601f19601f82011682018060405250810190610de6919061229d565b90508160035f8581526020019081526020015f205f6101000a81548173ffffffffffffffffffffffffffffffffffffffff021916908373ffffffffffffffffffffffffffffffffffffffff1602179055508060045f8581526020019081526020015f205f6101000a81548173ffffffffffffffffffffffffffffffffffffffff021916908373ffffffffffffffffffffffffffffffffffffffff160217905550827f714caab8b078979e833e97982712cd462ab7124c2a27401542011f30e3d47d558383604051610eb892919061249b565b60405180910390a2829350505050919050565b5f610f0a6040518060400160405280600e81526020017f756e69737761702d6f7261636c6500000000000000000000000000000000000081525061052d565b905090565b5f73ffffffffffffffffffffffffffffffffffffffff168173ffffffffffffffffffffffffffffffffffffffff1603610f7d576040517f08c379a0000000000000000000000000000000000000000000000000000000008152600401610f749061250c565b60405180910390fd5b5f8173ffffffffffffffffffffffffffffffffffffffff163b11610fd6576040517f08c379a0000000000000000000000000000000000000000000000000000000008152600401610fcd90612574565b60405180910390fd5b8073ffffffffffffffffffffffffffffffffffffffff16638da5cb5b6040518163ffffffff1660e01b8152600401602060405180830381865afa92505050801561103e57506040513d601f19601f8201168201806040525081019061103b919061229d565b60015b61107d576040517f08c379a000000000000000000000000000000000000000000000000000000000815260040161107490612602565b60405180910390fd5b8160075f6101000a81548173ffffffffffffffffffffffffffffffffffffffff021916908373ffffffffffffffffffffffffffffffffffffffff1602179055505050565b5f6001826110cf9190612620565b9050919050565b5f5f6110f08380602001906110eb91906123c6565b61124c565b90505f61110b8480604001906111069190612653565b6112e5565b90505f6111178261177a565b90505f6111275f805490506117d5565b90505f86908060018154018082558091505060019003905f5260205f2090600302015f90919091909150818161115d9190612ccc565b50508060015f8681526020019081526020015f20819055508060025f8481526020019081526020015f2081905550807f8320d61eb752c02271b492bb71ec93150c4ef1f5b9826a5d7c93b055ec00ac4e60405160405180910390a280945050505050919050565b5f6112036040518060400160405280601281526020017f6574662d746f6b656e2d6465706c6f796572000000000000000000000000000081525061052d565b905090565b5f6112476040518060400160405280601281526020017f6574662d7661756c742d6465706c6f796572000000000000000000000000000081525061052d565b905090565b5f5f8383905003611289576040517f653b1be600000000000000000000000000000000000000000000000000000000815260040160405180910390fd5b61129383836117ea565b90505f60015f8381526020019081526020015f2054146112df576040517fc498761200000000000000000000000000000000000000000000000000000000815260040160405180910390fd5b92915050565b60605f8383905090505f8103611327576040517f5373815f00000000000000000000000000000000000000000000000000000000815260040160405180910390fd5b8067ffffffffffffffff81111561134157611340611b20565b5b60405190808252806020026020018201604052801561137a57816020015b6113676119fc565b81526020019060019003908161135f5790505b5091505f5f90505b8181101561162c573685858381811061139e5761139d612330565b5b90506040020190505f815f0160208101906113b99190611f79565b90505f8260200160208101906113cf9190612cee565b61ffff1690507f000000000000000000000000000000000000000000000000000000000000000073ffffffffffffffffffffffffffffffffffffffff168273ffffffffffffffffffffffffffffffffffffffff1614611515575f61143161180b565b73ffffffffffffffffffffffffffffffffffffffff16636425f09e846040518263ffffffff1660e01b81526004016114699190611a6d565b6080604051808303815f875af1158015611485573d5f5f3e3d5ffd5b505050506040513d601f19601f820116820180604052508101906114a99190612e3d565b90505f73ffffffffffffffffffffffffffffffffffffffff16815f015173ffffffffffffffffffffffffffffffffffffffff1603611513576040517f791c2fed00000000000000000000000000000000000000000000000000000000815260040160405180910390fd5b505b5f73ffffffffffffffffffffffffffffffffffffffff168273ffffffffffffffffffffffffffffffffffffffff160361157a576040517fad1991f500000000000000000000000000000000000000000000000000000000815260040160405180910390fd5b5f81036115b3576040517f19a2a9bd00000000000000000000000000000000000000000000000000000000815260040160405180910390fd5b6127108111156115ef576040517fc663343d00000000000000000000000000000000000000000000000000000000815260040160405180910390fd5b828036038101906116009190612eb5565b86858151811061161357611612612330565b5b6020026020010181905250836001019350505050611382565b506116368261184f565b5f5f5f90505b82811015611736575f811180156116c4575083818151811061166157611660612330565b5b60200260200101515f015173ffffffffffffffffffffffffffffffffffffffff16846001836116909190612620565b815181106116a1576116a0612330565b5b60200260200101515f015173ffffffffffffffffffffffffffffffffffffffff16145b156116fb576040517f464e3f6a00000000000000000000000000000000000000000000000000000000815260040160405180910390fd5b83818151811061170e5761170d612330565b5b60200260200101516020015161ffff168261172991906121fe565b915080600101905061163c565b506127108114611772576040517fda6957ea00000000000000000000000000000000000000000000000000000000815260040160405180910390fd5b505092915050565b5f611784826119ac565b90505f60025f8381526020019081526020015f2054146117d0576040517f985be99000000000000000000000000000000000000000000000000000000000815260040160405180910390fd5b919050565b5f6001826117e391906121fe565b9050919050565b5f82826040516117fb929190612f0e565b6040518091039020905092915050565b5f61184a6040518060400160405280600b81526020017f706f6f6c2d66696e64657200000000000000000000000000000000000000000081525061052d565b905090565b5f815190505f600190505b818110156119a7575f83828151811061187657611875612330565b5b602002602001015190505f8290505b5f81111561197b575f8560018361189c9190612620565b815181106118ad576118ac612330565b5b60200260200101519050825f015173ffffffffffffffffffffffffffffffffffffffff16815f015173ffffffffffffffffffffffffffffffffffffffff1610806119445750825f015173ffffffffffffffffffffffffffffffffffffffff16815f015173ffffffffffffffffffffffffffffffffffffffff161480156119435750826020015161ffff16816020015161ffff1611155b5b1561194f575061197b565b8086838151811061196357611962612330565b5b60200260200101819052508160019003915050611885565b8185828151811061198f5761198e612330565b5b6020026020010181905250826001019250505061185a565b505050565b5f816040516020016119be9190612f92565b604051602081830303815290604052805190602001209050919050565b60405180606001604052806060815260200160608152602001606081525090565b60405180604001604052805f73ffffffffffffffffffffffffffffffffffffffff1681526020015f61ffff1681525090565b5f73ffffffffffffffffffffffffffffffffffffffff82169050919050565b5f611a5782611a2e565b9050919050565b611a6781611a4d565b82525050565b5f602082019050611a805f830184611a5e565b92915050565b5f604051905090565b5f5ffd5b5f5ffd5b5f819050919050565b611aa981611a97565b8114611ab3575f5ffd5b50565b5f81359050611ac481611aa0565b92915050565b5f5f60408385031215611ae057611adf611a8f565b5b5f611aed85828601611ab6565b9250506020611afe85828601611ab6565b9150509250929050565b5f5ffd5b5f5ffd5b5f601f19601f8301169050919050565b7f4e487b71000000000000000000000000000000000000000000000000000000005f52604160045260245ffd5b611b5682611b10565b810181811067ffffffffffffffff82111715611b7557611b74611b20565b5b80604052505050565b5f611b87611a86565b9050611b938282611b4d565b919050565b5f67ffffffffffffffff821115611bb257611bb1611b20565b5b611bbb82611b10565b9050602081019050919050565b828183375f83830152505050565b5f611be8611be384611b98565b611b7e565b905082815260208101848484011115611c0457611c03611b0c565b5b611c0f848285611bc8565b509392505050565b5f82601f830112611c2b57611c2a611b08565b5b8135611c3b848260208601611bd6565b91505092915050565b5f60208284031215611c5957611c58611a8f565b5b5f82013567ffffffffffffffff811115611c7657611c75611a93565b5b611c8284828501611c17565b91505092915050565b5f60208284031215611ca057611c9f611a8f565b5b5f611cad84828501611ab6565b91505092915050565b5f81519050919050565b5f82825260208201905092915050565b8281835e5f83830152505050565b5f611ce882611cb6565b611cf28185611cc0565b9350611d02818560208601611cd0565b611d0b81611b10565b840191505092915050565b5f81519050919050565b5f82825260208201905092915050565b5f819050602082019050919050565b611d4881611a4d565b82525050565b5f61ffff82169050919050565b611d6481611d4e565b82525050565b604082015f820151611d7e5f850182611d3f565b506020820151611d916020850182611d5b565b50505050565b5f611da28383611d6a565b60408301905092915050565b5f602082019050919050565b5f611dc482611d16565b611dce8185611d20565b9350611dd983611d30565b805f5b83811015611e09578151611df08882611d97565b9750611dfb83611dae565b925050600181019050611ddc565b5085935050505092915050565b5f606083015f8301518482035f860152611e308282611cde565b91505060208301518482036020860152611e4a8282611cde565b91505060408301518482036040860152611e648282611dba565b9150508091505092915050565b5f6040820190508181035f830152611e898185611e16565b9050611e986020830184611a5e565b9392505050565b5f6060820190508181035f830152611eb78186611e16565b9050611ec66020830185611a5e565b611ed36040830184611a5e565b949350505050565b5f819050919050565b5f611efe611ef9611ef484611a2e565b611edb565b611a2e565b9050919050565b5f611f0f82611ee4565b9050919050565b5f611f2082611f05565b9050919050565b611f3081611f16565b82525050565b5f602082019050611f495f830184611f27565b92915050565b611f5881611a4d565b8114611f62575f5ffd5b50565b5f81359050611f7381611f4f565b92915050565b5f60208284031215611f8e57611f8d611a8f565b5b5f611f9b84828501611f65565b91505092915050565b611fad81611a97565b82525050565b5f604082019050611fc65f830185611fa4565b611fd36020830184611fa4565b9392505050565b5f6020820190508181035f830152611ff28184611e16565b905092915050565b5f5ffd5b5f6060828403121561201357612012611ffa565b5b81905092915050565b5f6020828403121561203157612030611a8f565b5b5f82013567ffffffffffffffff81111561204e5761204d611a93565b5b61205a84828501611ffe565b91505092915050565b5f6020820190506120765f830184611fa4565b92915050565b5f82825260208201905092915050565b7f6d73672e73656e646572206973206e6f742065746620726f75746572000000005f82015250565b5f6120c0601c8361207c565b91506120cb8261208c565b602082019050919050565b5f6020820190508181035f8301526120ed816120b4565b9050919050565b5f8151905061210281611aa0565b92915050565b5f6020828403121561211d5761211c611a8f565b5b5f61212a848285016120f4565b91505092915050565b7f4e487b71000000000000000000000000000000000000000000000000000000005f52601160045260245ffd5b5f61216a82611a97565b915061217583611a97565b925082820261218381611a97565b9150828204841483151761219a57612199612133565b5b5092915050565b7f4e487b71000000000000000000000000000000000000000000000000000000005f52601260045260245ffd5b5f6121d882611a97565b91506121e383611a97565b9250826121f3576121f26121a1565b5b828204905092915050565b5f61220882611a97565b915061221383611a97565b925082820190508082111561222b5761222a612133565b5b92915050565b5f61223b82611cb6565b612245818561207c565b9350612255818560208601611cd0565b61225e81611b10565b840191505092915050565b5f6020820190508181035f8301526122818184612231565b905092915050565b5f8151905061229781611f4f565b92915050565b5f602082840312156122b2576122b1611a8f565b5b5f6122bf84828501612289565b91505092915050565b7f43616c6c6572206973206e6f7420746865206f776e65720000000000000000005f82015250565b5f6122fc60178361207c565b9150612307826122c8565b602082019050919050565b5f6020820190508181035f830152612329816122f0565b9050919050565b7f4e487b71000000000000000000000000000000000000000000000000000000005f52603260045260245ffd5b7f4e487b71000000000000000000000000000000000000000000000000000000005f52602260045260245ffd5b5f60028204905060018216806123a157607f821691505b6020821081036123b4576123b361235d565b5b50919050565b5f5ffd5b5f5ffd5b5f5ffd5b5f5f833560016020038436030381126123e2576123e16123ba565b5b80840192508235915067ffffffffffffffff821115612404576124036123be565b5b6020830192506001820236038313156124205761241f6123c2565b5b509250929050565b5f612433838561207c565b9350612440838584611bc8565b61244983611b10565b840190509392505050565b5f6060820190506124675f830188611fa4565b818103602083015261247a818688612428565b9050818103604083015261248f818486612428565b90509695505050505050565b5f6040820190506124ae5f830185611a5e565b6124bb6020830184611a5e565b9392505050565b7f4469726563746f72792063616e6e6f74206265207a65726f20616464726573735f82015250565b5f6124f660208361207c565b9150612501826124c2565b602082019050919050565b5f6020820190508181035f830152612523816124ea565b9050919050565b7f4469726563746f7279206d757374206265206120636f6e7472616374000000005f82015250565b5f61255e601c8361207c565b91506125698261252a565b602082019050919050565b5f6020820190508181035f83015261258b81612552565b9050919050565b7f4469726563746f7279206164647265737320646f6573206e6f7420696d706c655f8201527f6d656e74206f776e657228290000000000000000000000000000000000000000602082015250565b5f6125ec602c8361207c565b91506125f782612592565b604082019050919050565b5f6020820190508181035f830152612619816125e0565b9050919050565b5f61262a82611a97565b915061263583611a97565b925082820390508181111561264d5761264c612133565b5b92915050565b5f5f8335600160200384360303811261266f5761266e6123ba565b5b80840192508235915067ffffffffffffffff821115612691576126906123be565b5b6020830192506040820236038313156126ad576126ac6123c2565b5b509250929050565b7f4e487b71000000000000000000000000000000000000000000000000000000005f525f60045260245ffd5b5f82905092915050565b5f819050815f5260205f209050919050565b5f6020601f8301049050919050565b5f82821b905092915050565b5f600883026127477fffffffffffffffffffffffffffffffffffffffffffffffffffffffffffffffff8261270c565b612751868361270c565b95508019841693508086168417925050509392505050565b5f61278361277e61277984611a97565b611edb565b611a97565b9050919050565b5f819050919050565b61279c83612769565b6127b06127a88261278a565b848454612718565b825550505050565b5f5f905090565b6127c76127b8565b6127d2818484612793565b505050565b5b818110156127f5576127ea5f826127bf565b6001810190506127d8565b5050565b601f82111561283a5761280b816126eb565b612814846126fd565b81016020851015612823578190505b61283761282f856126fd565b8301826127d7565b50505b505050565b5f82821c905092915050565b5f61285a5f198460080261283f565b1980831691505092915050565b5f612872838361284b565b9150826002028217905092915050565b61288c83836126e1565b67ffffffffffffffff8111156128a5576128a4611b20565b5b6128af825461238a565b6128ba8282856127f9565b5f601f8311600181146128e7575f84156128d5578287013590505b6128df8582612867565b865550612946565b601f1984166128f5866126eb565b5f5b8281101561291c578489013582556001820191506020850194506020810190506128f7565b868310156129395784890135612935601f89168261284b565b8355505b6001600288020188555050505b50505050505050565b61295a838383612882565b505050565b5f819050919050565b5f81549050919050565b5f8190506001806001038301049050919050565b5f819050815f5260205f209050919050565b5f5f82015550565b5f82146129b0576129af6126b5565b5b6129b981612998565b5050565b5b818110156129db576129d05f826129a0565b6001810190506129be565b5050565b81831015612a18576129f082612972565b6129f984612972565b612a0283612986565b818101838201612a1281836129bd565b50505050505b505050565b68010000000000000000821115612a3757612a36611b20565b5b612a4081612968565b828255612a4e8382846129df565b505050565b5f82905092915050565b5f8135612a6981611f4f565b80915050919050565b5f815f1b9050919050565b5f73ffffffffffffffffffffffffffffffffffffffff612a9c84612a72565b9350801983169250808416831791505092915050565b5f612abc82611f05565b9050919050565b5f819050919050565b612ad582612ab2565b612ae8612ae182612ac3565b8354612a7d565b8255505050565b612af881611d4e565b8114612b02575f5ffd5b50565b5f8135612b1181612aef565b80915050919050565b5f8160a01b9050919050565b5f75ffff0000000000000000000000000000000000000000612b4784612b1a565b9350801983169250808416831791505092915050565b5f612b77612b72612b6d84611d4e565b611edb565b611d4e565b9050919050565b5f819050919050565b612b9082612b5d565b612ba3612b9c82612b7e565b8354612b26565b8255505050565b5f81015f830180612bba81612a5d565b9050612bc68184612acc565b5050505f81016020830180612bda81612b05565b9050612be68184612b87565b5050505050565b612bf78282612baa565b5050565b612c058383612a53565b612c0f8183612a1d565b612c188361295f565b612c2183612986565b5f5b83811015612c4e5782612c368184612bed565b60408401935060018301925050600181019050612c23565b50505050505050565b612c62838383612bfb565b505050565b5f81015f8301612c7781856123c6565b612c8281838661294f565b505050506001810160208301612c9881856123c6565b612ca381838661294f565b505050506002810160408301612cb98185612653565b612cc4818386612c57565b505050505050565b612cd68282612c67565b5050565b5f81359050612ce881612aef565b92915050565b5f60208284031215612d0357612d02611a8f565b5b5f612d1084828501612cda565b91505092915050565b5f5ffd5b5f62ffffff82169050919050565b612d3481612d1d565b8114612d3e575f5ffd5b50565b5f81519050612d4f81612d2b565b92915050565b5f60ff82169050919050565b612d6a81612d55565b8114612d74575f5ffd5b50565b5f81519050612d8581612d61565b92915050565b5f67ffffffffffffffff82169050919050565b612da781612d8b565b8114612db1575f5ffd5b50565b5f81519050612dc281612d9e565b92915050565b5f60808284031215612ddd57612ddc612d19565b5b612de76080611b7e565b90505f612df684828501612289565b5f830152506020612e0984828501612d41565b6020830152506040612e1d84828501612d77565b6040830152506060612e3184828501612db4565b60608301525092915050565b5f60808284031215612e5257612e51611a8f565b5b5f612e5f84828501612dc8565b91505092915050565b5f60408284031215612e7d57612e7c612d19565b5b612e876040611b7e565b90505f612e9684828501611f65565b5f830152506020612ea984828501612cda565b60208301525092915050565b5f60408284031215612eca57612ec9611a8f565b5b5f612ed784828501612e68565b91505092915050565b5f81905092915050565b5f612ef58385612ee0565b9350612f02838584611bc8565b82840190509392505050565b5f612f1a828486612eea565b91508190509392505050565b5f82825260208201905092915050565b5f612f4082611d16565b612f4a8185612f26565b9350612f5583611d30565b805f5b83811015612f85578151612f6c8882611d97565b9750612f7783611dae565b925050600181019050612f58565b5085935050505092915050565b5f6020820190508181035f830152612faa8184612f36565b90509291505056fea2646970667358221220bbc66d0b8b1912c71c663cb73498e24ef8f7b005ea33b4dca6bd0dc4c580dbfe64736f6c634300081e0033",
					"opcodes": "PUSH1 0xC0 PUSH1 0x40 MSTORE PUSH8 0xDE0B6B3A7640000 PUSH1 0x80 SWAP1 DUP2 MSTORE POP CALLVALUE DUP1 ISZERO PUSH2 0x1E JUMPI PUSH0 PUSH0 REVERT JUMPDEST POP PUSH1 0x40 MLOAD PUSH2 0x3483 CODESIZE SUB DUP1 PUSH2 0x3483 DUP4 CODECOPY DUP2 DUP2 ADD PUSH1 0x40 MSTORE DUP2 ADD SWAP1 PUSH2 0x40 SWAP2 SWAP1 PUSH2 0x29C JUMP JUMPDEST DUP2 PUSH2 0x50 DUP2 PUSH2 0x8C PUSH1 0x20 SHL PUSH1 0x20 SHR JUMP JUMPDEST POP DUP1 PUSH20 0xFFFFFFFFFFFFFFFFFFFFFFFFFFFFFFFFFFFFFFFF AND PUSH1 0xA0 DUP2 PUSH20 0xFFFFFFFFFFFFFFFFFFFFFFFFFFFFFFFFFFFFFFFF AND DUP2 MSTORE POP POP POP POP PUSH2 0x473 JUMP JUMPDEST PUSH0 PUSH20 0xFFFFFFFFFFFFFFFFFFFFFFFFFFFFFFFFFFFFFFFF AND DUP2 PUSH20 0xFFFFFFFFFFFFFFFFFFFFFFFFFFFFFFFFFFFFFFFF AND SUB PUSH2 0xFA JUMPI PUSH1 0x40 MLOAD PUSH32 0x8C379A000000000000000000000000000000000000000000000000000000000 DUP2 MSTORE PUSH1 0x4 ADD PUSH2 0xF1 SWAP1 PUSH2 0x334 JUMP JUMPDEST PUSH1 0x40 MLOAD DUP1 SWAP2 SUB SWAP1 REVERT JUMPDEST PUSH0 DUP2 PUSH20 0xFFFFFFFFFFFFFFFFFFFFFFFFFFFFFFFFFFFFFFFF AND EXTCODESIZE GT PUSH2 0x153 JUMPI PUSH1 0x40 MLOAD PUSH32 0x8C379A000000000000000000000000000000000000000000000000000000000 DUP2 MSTORE PUSH1 0x4 ADD PUSH2 0x14A SWAP1 PUSH2 0x39C JUMP JUMPDEST PUSH1 0x40 MLOAD DUP1 SWAP2 SUB SWAP1 REVERT JUMPDEST DUP1 PUSH20 0xFFFFFFFFFFFFFFFFFFFFFFFFFFFFFFFFFFFFFFFF AND PUSH4 0x8DA5CB5B PUSH1 0x40 MLOAD DUP2 PUSH4 0xFFFFFFFF AND PUSH1 0xE0 SHL DUP2 MSTORE PUSH1 0x4 ADD PUSH1 0x20 PUSH1 0x40 MLOAD DUP1 DUP4 SUB DUP2 DUP7 GAS STATICCALL SWAP3 POP POP POP DUP1 ISZERO PUSH2 0x1BB JUMPI POP PUSH1 0x40 MLOAD RETURNDATASIZE PUSH1 0x1F NOT PUSH1 0x1F DUP3 ADD AND DUP3 ADD DUP1 PUSH1 0x40 MSTORE POP DUP2 ADD SWAP1 PUSH2 0x1B8 SWAP2 SWAP1 PUSH2 0x3BA JUMP JUMPDEST PUSH1 0x1 JUMPDEST PUSH2 0x1FA JUMPI PUSH1 0x40 MLOAD PUSH32 0x8C379A000000000000000000000000000000000000000000000000000000000 DUP2 MSTORE PUSH1 0x4 ADD PUSH2 0x1F1 SWAP1 PUSH2 0x455 JUMP JUMPDEST PUSH1 0x40 MLOAD DUP1 SWAP2 SUB SWAP1 REVERT JUMPDEST DUP2 PUSH1 0x7 PUSH0 PUSH2 0x100 EXP DUP2 SLOAD DUP2 PUSH20 0xFFFFFFFFFFFFFFFFFFFFFFFFFFFFFFFFFFFFFFFF MUL NOT AND SWAP1 DUP4 PUSH20 0xFFFFFFFFFFFFFFFFFFFFFFFFFFFFFFFFFFFFFFFF AND MUL OR SWAP1 SSTORE POP POP POP JUMP JUMPDEST PUSH0 PUSH0 REVERT JUMPDEST PUSH0 PUSH20 0xFFFFFFFFFFFFFFFFFFFFFFFFFFFFFFFFFFFFFFFF DUP3 AND SWAP1 POP SWAP2 SWAP1 POP JUMP JUMPDEST PUSH0 PUSH2 0x26B DUP3 PUSH2 0x242 JUMP JUMPDEST SWAP1 POP SWAP2 SWAP1 POP JUMP JUMPDEST PUSH2 0x27B DUP2 PUSH2 0x261 JUMP JUMPDEST DUP2 EQ PUSH2 0x285 JUMPI PUSH0 PUSH0 REVERT JUMPDEST POP JUMP JUMPDEST PUSH0 DUP2 MLOAD SWAP1 POP PUSH2 0x296 DUP2 PUSH2 0x272 JUMP JUMPDEST SWAP3 SWAP2 POP POP JUMP JUMPDEST PUSH0 PUSH0 PUSH1 0x40 DUP4 DUP6 SUB SLT ISZERO PUSH2 0x2B2 JUMPI PUSH2 0x2B1 PUSH2 0x23E JUMP JUMPDEST JUMPDEST PUSH0 PUSH2 0x2BF DUP6 DUP3 DUP7 ADD PUSH2 0x288 JUMP JUMPDEST SWAP3 POP POP PUSH1 0x20 PUSH2 0x2D0 DUP6 DUP3 DUP7 ADD PUSH2 0x288 JUMP JUMPDEST SWAP2 POP POP SWAP3 POP SWAP3 SWAP1 POP JUMP JUMPDEST PUSH0 DUP3 DUP3 MSTORE PUSH1 0x20 DUP3 ADD SWAP1 POP SWAP3 SWAP2 POP POP JUMP JUMPDEST PUSH32 0x4469726563746F72792063616E6E6F74206265207A65726F2061646472657373 PUSH0 DUP3 ADD MSTORE POP JUMP JUMPDEST PUSH0 PUSH2 0x31E PUSH1 0x20 DUP4 PUSH2 0x2DA JUMP JUMPDEST SWAP2 POP PUSH2 0x329 DUP3 PUSH2 0x2EA JUMP JUMPDEST PUSH1 0x20 DUP3 ADD SWAP1 POP SWAP2 SWAP1 POP JUMP JUMPDEST PUSH0 PUSH1 0x20 DUP3 ADD SWAP1 POP DUP2 DUP2 SUB PUSH0 DUP4 ADD MSTORE PUSH2 0x34B DUP2 PUSH2 0x312 JUMP JUMPDEST SWAP1 POP SWAP2 SWAP1 POP JUMP JUMPDEST PUSH32 0x4469726563746F7279206D757374206265206120636F6E747261637400000000 PUSH0 DUP3 ADD MSTORE POP JUMP JUMPDEST PUSH0 PUSH2 0x386 PUSH1 0x1C DUP4 PUSH2 0x2DA JUMP JUMPDEST SWAP2 POP PUSH2 0x391 DUP3 PUSH2 0x352 JUMP JUMPDEST PUSH1 0x20 DUP3 ADD SWAP1 POP SWAP2 SWAP1 POP JUMP JUMPDEST PUSH0 PUSH1 0x20 DUP3 ADD SWAP1 POP DUP2 DUP2 SUB PUSH0 DUP4 ADD MSTORE PUSH2 0x3B3 DUP2 PUSH2 0x37A JUMP JUMPDEST SWAP1 POP SWAP2 SWAP1 POP JUMP JUMPDEST PUSH0 PUSH1 0x20 DUP3 DUP5 SUB SLT ISZERO PUSH2 0x3CF JUMPI PUSH2 0x3CE PUSH2 0x23E JUMP JUMPDEST JUMPDEST PUSH0 PUSH2 0x3DC DUP5 DUP3 DUP6 ADD PUSH2 0x288 JUMP JUMPDEST SWAP2 POP POP SWAP3 SWAP2 POP POP JUMP JUMPDEST PUSH32 0x4469726563746F7279206164647265737320646F6573206E6F7420696D706C65 PUSH0 DUP3 ADD MSTORE PUSH32 0x6D656E74206F776E657228290000000000000000000000000000000000000000 PUSH1 0x20 DUP3 ADD MSTORE POP JUMP JUMPDEST PUSH0 PUSH2 0x43F PUSH1 0x2C DUP4 PUSH2 0x2DA JUMP JUMPDEST SWAP2 POP PUSH2 0x44A DUP3 PUSH2 0x3E5 JUMP JUMPDEST PUSH1 0x40 DUP3 ADD SWAP1 POP SWAP2 SWAP1 POP JUMP JUMPDEST PUSH0 PUSH1 0x20 DUP3 ADD SWAP1 POP DUP2 DUP2 SUB PUSH0 DUP4 ADD MSTORE PUSH2 0x46C DUP2 PUSH2 0x433 JUMP JUMPDEST SWAP1 POP SWAP2 SWAP1 POP JUMP JUMPDEST PUSH1 0x80 MLOAD PUSH1 0xA0 MLOAD PUSH2 0x2FE8 PUSH2 0x49B PUSH0 CODECOPY PUSH0 DUP2 DUP2 PUSH2 0x2E9 ADD MSTORE PUSH2 0x13D7 ADD MSTORE PUSH0 PUSH2 0x4A2 ADD MSTORE PUSH2 0x2FE8 PUSH0 RETURN INVALID PUSH1 0x80 PUSH1 0x40 MSTORE CALLVALUE DUP1 ISZERO PUSH2 0xF JUMPI PUSH0 PUSH0 REVERT JUMPDEST POP PUSH1 0x4 CALLDATASIZE LT PUSH2 0xCD JUMPI PUSH0 CALLDATALOAD PUSH1 0xE0 SHR DUP1 PUSH4 0x658A847A GT PUSH2 0x8A JUMPI DUP1 PUSH4 0xC45F0607 GT PUSH2 0x64 JUMPI DUP1 PUSH4 0xC45F0607 EQ PUSH2 0x226 JUMPI DUP1 PUSH4 0xECB0271C EQ PUSH2 0x257 JUMPI DUP1 PUSH4 0xF2018A1F EQ PUSH2 0x287 JUMPI DUP1 PUSH4 0xFC0121D4 EQ PUSH2 0x2B7 JUMPI PUSH2 0xCD JUMP JUMPDEST DUP1 PUSH4 0x658A847A EQ PUSH2 0x1CE JUMPI DUP1 PUSH4 0x8DA5CB5B EQ PUSH2 0x1EC JUMPI DUP1 PUSH4 0xBA4C7BE1 EQ PUSH2 0x20A JUMPI PUSH2 0xCD JUMP JUMPDEST DUP1 PUSH4 0x40141E5 EQ PUSH2 0xD1 JUMPI DUP1 PUSH4 0x1626542C EQ PUSH2 0xEF JUMPI DUP1 PUSH4 0x27262618 EQ PUSH2 0x10B JUMPI DUP1 PUSH4 0x3088F069 EQ PUSH2 0x13B JUMPI DUP1 PUSH4 0x3EE79962 EQ PUSH2 0x16C JUMPI DUP1 PUSH4 0x61668690 EQ PUSH2 0x19C JUMPI JUMPDEST PUSH0 PUSH0 REVERT JUMPDEST PUSH2 0xD9 PUSH2 0x2E7 JUMP JUMPDEST PUSH1 0x40 MLOAD PUSH2 0xE6 SWAP2 SWAP1 PUSH2 0x1A6D JUMP JUMPDEST PUSH1 0x40 MLOAD DUP1 SWAP2 SUB SWAP1 RETURN JUMPDEST PUSH2 0x109 PUSH1 0x4 DUP1 CALLDATASIZE SUB DUP2 ADD SWAP1 PUSH2 0x104 SWAP2 SWAP1 PUSH2 0x1ACA JUMP JUMPDEST PUSH2 0x30B JUMP JUMPDEST STOP JUMPDEST PUSH2 0x125 PUSH1 0x4 DUP1 CALLDATASIZE SUB DUP2 ADD SWAP1 PUSH2 0x120 SWAP2 SWAP1 PUSH2 0x1C44 JUMP JUMPDEST PUSH2 0x52D JUMP JUMPDEST PUSH1 0x40 MLOAD PUSH2 0x132 SWAP2 SWAP1 PUSH2 0x1A6D JUMP JUMPDEST PUSH1 0x40 MLOAD DUP1 SWAP2 SUB SWAP1 RETURN JUMPDEST PUSH2 0x155 PUSH1 0x4 DUP1 CALLDATASIZE SUB DUP2 ADD SWAP1 PUSH2 0x150 SWAP2 SWAP1 PUSH2 0x1C8B JUMP JUMPDEST PUSH2 0x5CE JUMP JUMPDEST PUSH1 0x40 MLOAD PUSH2 0x163 SWAP3 SWAP2 SWAP1 PUSH2 0x1E71 JUMP JUMPDEST PUSH1 0x40 MLOAD DUP1 SWAP2 SUB SWAP1 RETURN JUMPDEST PUSH2 0x186 PUSH1 0x4 DUP1 CALLDATASIZE SUB DUP2 ADD SWAP1 PUSH2 0x181 SWAP2 SWAP1 PUSH2 0x1C8B JUMP JUMPDEST PUSH2 0x5F2 JUMP JUMPDEST PUSH1 0x40 MLOAD PUSH2 0x193 SWAP2 SWAP1 PUSH2 0x1A6D JUMP JUMPDEST PUSH1 0x40 MLOAD DUP1 SWAP2 SUB SWAP1 RETURN JUMPDEST PUSH2 0x1B6 PUSH1 0x4 DUP1 CALLDATASIZE SUB DUP2 ADD SWAP1 PUSH2 0x1B1 SWAP2 SWAP1 PUSH2 0x1C8B JUMP JUMPDEST PUSH2 0x690 JUMP JUMPDEST PUSH1 0x40 MLOAD PUSH2 0x1C5 SWAP4 SWAP3 SWAP2 SWAP1 PUSH2 0x1E9F JUMP JUMPDEST PUSH1 0x40 MLOAD DUP1 SWAP2 SUB SWAP1 RETURN JUMPDEST PUSH2 0x1D6 PUSH2 0x6C2 JUMP JUMPDEST PUSH1 0x40 MLOAD PUSH2 0x1E3 SWAP2 SWAP1 PUSH2 0x1F36 JUMP JUMPDEST PUSH1 0x40 MLOAD DUP1 SWAP2 SUB SWAP1 RETURN JUMPDEST PUSH2 0x1F4 PUSH2 0x6E7 JUMP JUMPDEST PUSH1 0x40 MLOAD PUSH2 0x201 SWAP2 SWAP1 PUSH2 0x1A6D JUMP JUMPDEST PUSH1 0x40 MLOAD DUP1 SWAP2 SUB SWAP1 RETURN JUMPDEST PUSH2 0x224 PUSH1 0x4 DUP1 CALLDATASIZE SUB DUP2 ADD SWAP1 PUSH2 0x21F SWAP2 SWAP1 PUSH2 0x1F79 JUMP JUMPDEST PUSH2 0x77B JUMP JUMPDEST STOP JUMPDEST PUSH2 0x240 PUSH1 0x4 DUP1 CALLDATASIZE SUB DUP2 ADD SWAP1 PUSH2 0x23B SWAP2 SWAP1 PUSH2 0x1C8B JUMP JUMPDEST PUSH2 0x882 JUMP JUMPDEST PUSH1 0x40 MLOAD PUSH2 0x24E SWAP3 SWAP2 SWAP1 PUSH2 0x1FB3 JUMP JUMPDEST PUSH1 0x40 MLOAD DUP1 SWAP2 SUB SWAP1 RETURN JUMPDEST PUSH2 0x271 PUSH1 0x4 DUP1 CALLDATASIZE SUB DUP2 ADD SWAP1 PUSH2 0x26C SWAP2 SWAP1 PUSH2 0x1C8B JUMP JUMPDEST PUSH2 0x8B1 JUMP JUMPDEST PUSH1 0x40 MLOAD PUSH2 0x27E SWAP2 SWAP1 PUSH2 0x1FDA JUMP JUMPDEST PUSH1 0x40 MLOAD DUP1 SWAP2 SUB SWAP1 RETURN JUMPDEST PUSH2 0x2A1 PUSH1 0x4 DUP1 CALLDATASIZE SUB DUP2 ADD SWAP1 PUSH2 0x29C SWAP2 SWAP1 PUSH2 0x1C8B JUMP JUMPDEST PUSH2 0xB24 JUMP JUMPDEST PUSH1 0x40 MLOAD PUSH2 0x2AE SWAP2 SWAP1 PUSH2 0x1A6D JUMP JUMPDEST PUSH1 0x40 MLOAD DUP1 SWAP2 SUB SWAP1 RETURN JUMPDEST PUSH2 0x2D1 PUSH1 0x4 DUP1 CALLDATASIZE SUB DUP2 ADD SWAP1 PUSH2 0x2CC SWAP2 SWAP1 PUSH2 0x201C JUMP JUMPDEST PUSH2 0xBC2 JUMP JUMPDEST PUSH1 0x40 MLOAD PUSH2 0x2DE SWAP2 SWAP1 PUSH2 0x2063 JUMP JUMPDEST PUSH1 0x40 MLOAD DUP1 SWAP2 SUB SWAP1 RETURN JUMPDEST PUSH32 0x0 DUP2 JUMP JUMPDEST PUSH2 0x349 PUSH1 0x40 MLOAD DUP1 PUSH1 0x40 ADD PUSH1 0x40 MSTORE DUP1 PUSH1 0xA DUP2 MSTORE PUSH1 0x20 ADD PUSH32 0x6574662D726F7574657200000000000000000000000000000000000000000000 DUP2 MSTORE POP PUSH2 0x52D JUMP JUMPDEST PUSH20 0xFFFFFFFFFFFFFFFFFFFFFFFFFFFFFFFFFFFFFFFF AND CALLER PUSH20 0xFFFFFFFFFFFFFFFFFFFFFFFFFFFFFFFFFFFFFFFF AND EQ PUSH2 0x3B6 JUMPI PUSH1 0x40 MLOAD PUSH32 0x8C379A000000000000000000000000000000000000000000000000000000000 DUP2 MSTORE PUSH1 0x4 ADD PUSH2 0x3AD SWAP1 PUSH2 0x20D6 JUMP JUMPDEST PUSH1 0x40 MLOAD DUP1 SWAP2 SUB SWAP1 REVERT JUMPDEST PUSH0 DUP2 SUB PUSH2 0x3EF JUMPI PUSH1 0x40 MLOAD PUSH32 0xCCA7F00400000000000000000000000000000000000000000000000000000000 DUP2 MSTORE PUSH1 0x4 ADD PUSH1 0x40 MLOAD DUP1 SWAP2 SUB SWAP1 REVERT JUMPDEST PUSH0 PUSH2 0x3F8 PUSH2 0xECB JUMP JUMPDEST PUSH20 0xFFFFFFFFFFFFFFFFFFFFFFFFFFFFFFFFFFFFFFFF AND PUSH4 0x6855E939 PUSH1 0x40 MLOAD DUP2 PUSH4 0xFFFFFFFF AND PUSH1 0xE0 SHL DUP2 MSTORE PUSH1 0x4 ADD PUSH1 0x20 PUSH1 0x40 MLOAD DUP1 DUP4 SUB DUP2 DUP7 GAS STATICCALL ISZERO DUP1 ISZERO PUSH2 0x440 JUMPI RETURNDATASIZE PUSH0 PUSH0 RETURNDATACOPY RETURNDATASIZE PUSH0 REVERT JUMPDEST POP POP POP POP PUSH1 0x40 MLOAD RETURNDATASIZE PUSH1 0x1F NOT PUSH1 0x1F DUP3 ADD AND DUP3 ADD DUP1 PUSH1 0x40 MSTORE POP DUP2 ADD SWAP1 PUSH2 0x464 SWAP2 SWAP1 PUSH2 0x2108 JUMP JUMPDEST SWAP1 POP PUSH0 DUP2 SUB PUSH2 0x49F JUMPI PUSH1 0x40 MLOAD PUSH32 0x110EA95100000000000000000000000000000000000000000000000000000000 DUP2 MSTORE PUSH1 0x4 ADD PUSH1 0x40 MLOAD DUP1 SWAP2 SUB SWAP1 REVERT JUMPDEST PUSH0 PUSH32 0x0 DUP3 DUP5 PUSH2 0x4CD SWAP2 SWAP1 PUSH2 0x2160 JUMP JUMPDEST PUSH2 0x4D7 SWAP2 SWAP1 PUSH2 0x21CE JUMP JUMPDEST SWAP1 POP DUP3 PUSH1 0x5 PUSH0 DUP7 DUP2 MSTORE PUSH1 0x20 ADD SWAP1 DUP2 MSTORE PUSH1 0x20 ADD PUSH0 KECCAK256 PUSH0 DUP3 DUP3 SLOAD PUSH2 0x4F9 SWAP2 SWAP1 PUSH2 0x21FE JUMP JUMPDEST SWAP3 POP POP DUP2 SWAP1 SSTORE POP DUP1 PUSH1 0x6 PUSH0 DUP7 DUP2 MSTORE PUSH1 0x20 ADD SWAP1 DUP2 MSTORE PUSH1 0x20 ADD PUSH0 KECCAK256 PUSH0 DUP3 DUP3 SLOAD PUSH2 0x520 SWAP2 SWAP1 PUSH2 0x21FE JUMP JUMPDEST SWAP3 POP POP DUP2 SWAP1 SSTORE POP POP POP POP POP JUMP JUMPDEST PUSH0 PUSH1 0x7 PUSH0 SWAP1 SLOAD SWAP1 PUSH2 0x100 EXP SWAP1 DIV PUSH20 0xFFFFFFFFFFFFFFFFFFFFFFFFFFFFFFFFFFFFFFFF AND PUSH20 0xFFFFFFFFFFFFFFFFFFFFFFFFFFFFFFFFFFFFFFFF AND PUSH4 0x27262618 DUP4 PUSH1 0x40 MLOAD DUP3 PUSH4 0xFFFFFFFF AND PUSH1 0xE0 SHL DUP2 MSTORE PUSH1 0x4 ADD PUSH2 0x588 SWAP2 SWAP1 PUSH2 0x2269 JUMP JUMPDEST PUSH1 0x20 PUSH1 0x40 MLOAD DUP1 DUP4 SUB DUP2 DUP7 GAS STATICCALL ISZERO DUP1 ISZERO PUSH2 0x5A3 JUMPI RETURNDATASIZE PUSH0 PUSH0 RETURNDATACOPY RETURNDATASIZE PUSH0 REVERT JUMPDEST POP POP POP POP PUSH1 0x40 MLOAD RETURNDATASIZE PUSH1 0x1F NOT PUSH1 0x1F DUP3 ADD AND DUP3 ADD DUP1 PUSH1 0x40 MSTORE POP DUP2 ADD SWAP1 PUSH2 0x5C7 SWAP2 SWAP1 PUSH2 0x229D JUMP JUMPDEST SWAP1 POP SWAP2 SWAP1 POP JUMP JUMPDEST PUSH2 0x5D6 PUSH2 0x19DB JUMP JUMPDEST PUSH0 PUSH2 0x5E0 DUP4 PUSH2 0x8B1 JUMP JUMPDEST SWAP2 POP PUSH2 0x5EB DUP4 PUSH2 0x5F2 JUMP JUMPDEST SWAP1 POP SWAP2 POP SWAP2 JUMP JUMPDEST PUSH0 PUSH1 0x4 PUSH0 DUP4 DUP2 MSTORE PUSH1 0x20 ADD SWAP1 DUP2 MSTORE PUSH1 0x20 ADD PUSH0 KECCAK256 PUSH0 SWAP1 SLOAD SWAP1 PUSH2 0x100 EXP SWAP1 DIV PUSH20 0xFFFFFFFFFFFFFFFFFFFFFFFFFFFFFFFFFFFFFFFF AND SWAP1 POP PUSH0 PUSH20 0xFFFFFFFFFFFFFFFFFFFFFFFFFFFFFFFFFFFFFFFF AND DUP2 PUSH20 0xFFFFFFFFFFFFFFFFFFFFFFFFFFFFFFFFFFFFFFFF AND SUB PUSH2 0x68B JUMPI PUSH1 0x40 MLOAD PUSH32 0xE6C4247B00000000000000000000000000000000000000000000000000000000 DUP2 MSTORE PUSH1 0x4 ADD PUSH1 0x40 MLOAD DUP1 SWAP2 SUB SWAP1 REVERT JUMPDEST SWAP2 SWAP1 POP JUMP JUMPDEST PUSH2 0x698 PUSH2 0x19DB JUMP JUMPDEST PUSH0 PUSH0 PUSH2 0x6A3 DUP5 PUSH2 0x8B1 JUMP JUMPDEST SWAP3 POP PUSH2 0x6AE DUP5 PUSH2 0xB24 JUMP JUMPDEST SWAP2 POP PUSH2 0x6B9 DUP5 PUSH2 0x5F2 JUMP JUMPDEST SWAP1 POP SWAP2 SWAP4 SWAP1 SWAP3 POP JUMP JUMPDEST PUSH1 0x7 PUSH0 SWAP1 SLOAD SWAP1 PUSH2 0x100 EXP SWAP1 DIV PUSH20 0xFFFFFFFFFFFFFFFFFFFFFFFFFFFFFFFFFFFFFFFF AND DUP2 JUMP JUMPDEST PUSH0 PUSH1 0x7 PUSH0 SWAP1 SLOAD SWAP1 PUSH2 0x100 EXP SWAP1 DIV PUSH20 0xFFFFFFFFFFFFFFFFFFFFFFFFFFFFFFFFFFFFFFFF AND PUSH20 0xFFFFFFFFFFFFFFFFFFFFFFFFFFFFFFFFFFFFFFFF AND PUSH4 0x8DA5CB5B PUSH1 0x40 MLOAD DUP2 PUSH4 0xFFFFFFFF AND PUSH1 0xE0 SHL DUP2 MSTORE PUSH1 0x4 ADD PUSH1 0x20 PUSH1 0x40 MLOAD DUP1 DUP4 SUB DUP2 DUP7 GAS STATICCALL ISZERO DUP1 ISZERO PUSH2 0x752 JUMPI RETURNDATASIZE PUSH0 PUSH0 RETURNDATACOPY RETURNDATASIZE PUSH0 REVERT JUMPDEST POP POP POP POP PUSH1 0x40 MLOAD RETURNDATASIZE PUSH1 0x1F NOT PUSH1 0x1F DUP3 ADD AND DUP3 ADD DUP1 PUSH1 0x40 MSTORE POP DUP2 ADD SWAP1 PUSH2 0x776 SWAP2 SWAP1 PUSH2 0x229D JUMP JUMPDEST SWAP1 POP SWAP1 JUMP JUMPDEST PUSH1 0x7 PUSH0 SWAP1 SLOAD SWAP1 PUSH2 0x100 EXP SWAP1 DIV PUSH20 0xFFFFFFFFFFFFFFFFFFFFFFFFFFFFFFFFFFFFFFFF AND PUSH20 0xFFFFFFFFFFFFFFFFFFFFFFFFFFFFFFFFFFFFFFFF AND PUSH4 0x8DA5CB5B PUSH1 0x40 MLOAD DUP2 PUSH4 0xFFFFFFFF AND PUSH1 0xE0 SHL DUP2 MSTORE PUSH1 0x4 ADD PUSH1 0x20 PUSH1 0x40 MLOAD DUP1 DUP4 SUB DUP2 DUP7 GAS STATICCALL ISZERO DUP1 ISZERO PUSH2 0x7E5 JUMPI RETURNDATASIZE PUSH0 PUSH0 RETURNDATACOPY RETURNDATASIZE PUSH0 REVERT JUMPDEST POP POP POP POP PUSH1 0x40 MLOAD RETURNDATASIZE PUSH1 0x1F NOT PUSH1 0x1F DUP3 ADD AND DUP3 ADD DUP1 PUSH1 0x40 MSTORE POP DUP2 ADD SWAP1 PUSH2 0x809 SWAP2 SWAP1 PUSH2 0x229D JUMP JUMPDEST PUSH20 0xFFFFFFFFFFFFFFFFFFFFFFFFFFFFFFFFFFFFFFFF AND CALLER PUSH20 0xFFFFFFFFFFFFFFFFFFFFFFFFFFFFFFFFFFFFFFFF AND EQ PUSH2 0x876 JUMPI PUSH1 0x40 MLOAD PUSH32 0x8C379A000000000000000000000000000000000000000000000000000000000 DUP2 MSTORE PUSH1 0x4 ADD PUSH2 0x86D SWAP1 PUSH2 0x2312 JUMP JUMPDEST PUSH1 0x40 MLOAD DUP1 SWAP2 SUB SWAP1 REVERT JUMPDEST PUSH2 0x87F DUP2 PUSH2 0xF0F JUMP JUMPDEST POP JUMP JUMPDEST PUSH0 PUSH0 PUSH1 0x5 PUSH0 DUP5 DUP2 MSTORE PUSH1 0x20 ADD SWAP1 DUP2 MSTORE PUSH1 0x20 ADD PUSH0 KECCAK256 SLOAD SWAP2 POP PUSH1 0x6 PUSH0 DUP5 DUP2 MSTORE PUSH1 0x20 ADD SWAP1 DUP2 MSTORE PUSH1 0x20 ADD PUSH0 KECCAK256 SLOAD SWAP1 POP SWAP2 POP SWAP2 JUMP JUMPDEST PUSH2 0x8B9 PUSH2 0x19DB JUMP JUMPDEST PUSH0 DUP3 EQ DUP1 PUSH2 0x8CA JUMPI POP PUSH0 DUP1 SLOAD SWAP1 POP DUP3 GT JUMPDEST ISZERO PUSH2 0x901 JUMPI PUSH1 0x40 MLOAD PUSH32 0xDFA1A40800000000000000000000000000000000000000000000000000000000 DUP2 MSTORE PUSH1 0x4 ADD PUSH1 0x40 MLOAD DUP1 SWAP2 SUB SWAP1 REVERT JUMPDEST PUSH0 PUSH2 0x90B DUP4 PUSH2 0x10C1 JUMP JUMPDEST DUP2 SLOAD DUP2 LT PUSH2 0x91C JUMPI PUSH2 0x91B PUSH2 0x2330 JUMP JUMPDEST JUMPDEST SWAP1 PUSH0 MSTORE PUSH1 0x20 PUSH0 KECCAK256 SWAP1 PUSH1 0x3 MUL ADD PUSH1 0x40 MLOAD DUP1 PUSH1 0x60 ADD PUSH1 0x40 MSTORE SWAP1 DUP2 PUSH0 DUP3 ADD DUP1 SLOAD PUSH2 0x942 SWAP1 PUSH2 0x238A JUMP JUMPDEST DUP1 PUSH1 0x1F ADD PUSH1 0x20 DUP1 SWAP2 DIV MUL PUSH1 0x20 ADD PUSH1 0x40 MLOAD SWAP1 DUP2 ADD PUSH1 0x40 MSTORE DUP1 SWAP3 SWAP2 SWAP1 DUP2 DUP2 MSTORE PUSH1 0x20 ADD DUP3 DUP1 SLOAD PUSH2 0x96E SWAP1 PUSH2 0x238A JUMP JUMPDEST DUP1 ISZERO PUSH2 0x9B9 JUMPI DUP1 PUSH1 0x1F LT PUSH2 0x990 JUMPI PUSH2 0x100 DUP1 DUP4 SLOAD DIV MUL DUP4 MSTORE SWAP2 PUSH1 0x20 ADD SWAP2 PUSH2 0x9B9 JUMP JUMPDEST DUP3 ADD SWAP2 SWAP1 PUSH0 MSTORE PUSH1 0x20 PUSH0 KECCAK256 SWAP1 JUMPDEST DUP2 SLOAD DUP2 MSTORE SWAP1 PUSH1 0x1 ADD SWAP1 PUSH1 0x20 ADD DUP1 DUP4 GT PUSH2 0x99C JUMPI DUP3 SWAP1 SUB PUSH1 0x1F AND DUP3 ADD SWAP2 JUMPDEST POP POP POP POP POP DUP2 MSTORE PUSH1 0x20 ADD PUSH1 0x1 DUP3 ADD DUP1 SLOAD PUSH2 0x9D2 SWAP1 PUSH2 0x238A JUMP JUMPDEST DUP1 PUSH1 0x1F ADD PUSH1 0x20 DUP1 SWAP2 DIV MUL PUSH1 0x20 ADD PUSH1 0x40 MLOAD SWAP1 DUP2 ADD PUSH1 0x40 MSTORE DUP1 SWAP3 SWAP2 SWAP1 DUP2 DUP2 MSTORE PUSH1 0x20 ADD DUP3 DUP1 SLOAD PUSH2 0x9FE SWAP1 PUSH2 0x238A JUMP JUMPDEST DUP1 ISZERO PUSH2 0xA49 JUMPI DUP1 PUSH1 0x1F LT PUSH2 0xA20 JUMPI PUSH2 0x100 DUP1 DUP4 SLOAD DIV MUL DUP4 MSTORE SWAP2 PUSH1 0x20 ADD SWAP2 PUSH2 0xA49 JUMP JUMPDEST DUP3 ADD SWAP2 SWAP1 PUSH0 MSTORE PUSH1 0x20 PUSH0 KECCAK256 SWAP1 JUMPDEST DUP2 SLOAD DUP2 MSTORE SWAP1 PUSH1 0x1 ADD SWAP1 PUSH1 0x20 ADD DUP1 DUP4 GT PUSH2 0xA2C JUMPI DUP3 SWAP1 SUB PUSH1 0x1F AND DUP3 ADD SWAP2 JUMPDEST POP POP POP POP POP DUP2 MSTORE PUSH1 0x20 ADD PUSH1 0x2 DUP3 ADD DUP1 SLOAD DUP1 PUSH1 0x20 MUL PUSH1 0x20 ADD PUSH1 0x40 MLOAD SWAP1 DUP2 ADD PUSH1 0x40 MSTORE DUP1 SWAP3 SWAP2 SWAP1 DUP2 DUP2 MSTORE PUSH1 0x20 ADD PUSH0 SWAP1 JUMPDEST DUP3 DUP3 LT ISZERO PUSH2 0xB15 JUMPI DUP4 DUP3 SWAP1 PUSH0 MSTORE PUSH1 0x20 PUSH0 KECCAK256 ADD PUSH1 0x40 MLOAD DUP1 PUSH1 0x40 ADD PUSH1 0x40 MSTORE SWAP1 DUP2 PUSH0 DUP3 ADD PUSH0 SWAP1 SLOAD SWAP1 PUSH2 0x100 EXP SWAP1 DIV PUSH20 0xFFFFFFFFFFFFFFFFFFFFFFFFFFFFFFFFFFFFFFFF AND PUSH20 0xFFFFFFFFFFFFFFFFFFFFFFFFFFFFFFFFFFFFFFFF AND PUSH20 0xFFFFFFFFFFFFFFFFFFFFFFFFFFFFFFFFFFFFFFFF AND DUP2 MSTORE PUSH1 0x20 ADD PUSH0 DUP3 ADD PUSH1 0x14 SWAP1 SLOAD SWAP1 PUSH2 0x100 EXP SWAP1 DIV PUSH2 0xFFFF AND PUSH2 0xFFFF AND PUSH2 0xFFFF AND DUP2 MSTORE POP POP DUP2 MSTORE PUSH1 0x20 ADD SWAP1 PUSH1 0x1 ADD SWAP1 PUSH2 0xA76 JUMP JUMPDEST POP POP POP POP DUP2 MSTORE POP POP SWAP1 POP SWAP2 SWAP1 POP JUMP JUMPDEST PUSH0 PUSH1 0x3 PUSH0 DUP4 DUP2 MSTORE PUSH1 0x20 ADD SWAP1 DUP2 MSTORE PUSH1 0x20 ADD PUSH0 KECCAK256 PUSH0 SWAP1 SLOAD SWAP1 PUSH2 0x100 EXP SWAP1 DIV PUSH20 0xFFFFFFFFFFFFFFFFFFFFFFFFFFFFFFFFFFFFFFFF AND SWAP1 POP PUSH0 PUSH20 0xFFFFFFFFFFFFFFFFFFFFFFFFFFFFFFFFFFFFFFFF AND DUP2 PUSH20 0xFFFFFFFFFFFFFFFFFFFFFFFFFFFFFFFFFFFFFFFF AND SUB PUSH2 0xBBD JUMPI PUSH1 0x40 MLOAD PUSH32 0xE6C4247B00000000000000000000000000000000000000000000000000000000 DUP2 MSTORE PUSH1 0x4 ADD PUSH1 0x40 MLOAD DUP1 SWAP2 SUB SWAP1 REVERT JUMPDEST SWAP2 SWAP1 POP JUMP JUMPDEST PUSH0 PUSH1 0x7 PUSH0 SWAP1 SLOAD SWAP1 PUSH2 0x100 EXP SWAP1 DIV PUSH20 0xFFFFFFFFFFFFFFFFFFFFFFFFFFFFFFFFFFFFFFFF AND PUSH20 0xFFFFFFFFFFFFFFFFFFFFFFFFFFFFFFFFFFFFFFFF AND PUSH4 0x8DA5CB5B PUSH1 0x40 MLOAD DUP2 PUSH4 0xFFFFFFFF AND PUSH1 0xE0 SHL DUP2 MSTORE PUSH1 0x4 ADD PUSH1 0x20 PUSH1 0x40 MLOAD DUP1 DUP4 SUB DUP2 DUP7 GAS STATICCALL ISZERO DUP1 ISZERO PUSH2 0xC2D JUMPI RETURNDATASIZE PUSH0 PUSH0 RETURNDATACOPY RETURNDATASIZE PUSH0 REVERT JUMPDEST POP POP POP POP PUSH1 0x40 MLOAD RETURNDATASIZE PUSH1 0x1F NOT PUSH1 0x1F DUP3 ADD AND DUP3 ADD DUP1 PUSH1 0x40 MSTORE POP DUP2 ADD SWAP1 PUSH2 0xC51 SWAP2 SWAP1 PUSH2 0x229D JUMP JUMPDEST PUSH20 0xFFFFFFFFFFFFFFFFFFFFFFFFFFFFFFFFFFFFFFFF AND CALLER PUSH20 0xFFFFFFFFFFFFFFFFFFFFFFFFFFFFFFFFFFFFFFFF AND EQ PUSH2 0xCBE JUMPI PUSH1 0x40 MLOAD PUSH32 0x8C379A000000000000000000000000000000000000000000000000000000000 DUP2 MSTORE PUSH1 0x4 ADD PUSH2 0xCB5 SWAP1 PUSH2 0x2312 JUMP JUMPDEST PUSH1 0x40 MLOAD DUP1 SWAP2 SUB SWAP1 REVERT JUMPDEST PUSH0 PUSH2 0xCC8 DUP4 PUSH2 0x10D6 JUMP JUMPDEST SWAP1 POP PUSH0 PUSH2 0xCD3 PUSH2 0x11C4 JUMP JUMPDEST PUSH20 0xFFFFFFFFFFFFFFFFFFFFFFFFFFFFFFFFFFFFFFFF AND PUSH4 0x78F6C7C4 DUP4 DUP7 DUP1 PUSH0 ADD SWAP1 PUSH2 0xCFE SWAP2 SWAP1 PUSH2 0x23C6 JUMP JUMPDEST DUP9 DUP1 PUSH1 0x20 ADD SWAP1 PUSH2 0xD0E SWAP2 SWAP1 PUSH2 0x23C6 JUMP JUMPDEST PUSH1 0x40 MLOAD DUP7 PUSH4 0xFFFFFFFF AND PUSH1 0xE0 SHL DUP2 MSTORE PUSH1 0x4 ADD PUSH2 0xD2E SWAP6 SWAP5 SWAP4 SWAP3 SWAP2 SWAP1 PUSH2 0x2454 JUMP JUMPDEST PUSH1 0x20 PUSH1 0x40 MLOAD DUP1 DUP4 SUB DUP2 PUSH0 DUP8 GAS CALL ISZERO DUP1 ISZERO PUSH2 0xD4A JUMPI RETURNDATASIZE PUSH0 PUSH0 RETURNDATACOPY RETURNDATASIZE PUSH0 REVERT JUMPDEST POP POP POP POP PUSH1 0x40 MLOAD RETURNDATASIZE PUSH1 0x1F NOT PUSH1 0x1F DUP3 ADD AND DUP3 ADD DUP1 PUSH1 0x40 MSTORE POP DUP2 ADD SWAP1 PUSH2 0xD6E SWAP2 SWAP1 PUSH2 0x229D JUMP JUMPDEST SWAP1 POP PUSH0 PUSH2 0xD79 PUSH2 0x1208 JUMP JUMPDEST PUSH20 0xFFFFFFFFFFFFFFFFFFFFFFFFFFFFFFFFFFFFFFFF AND PUSH4 0x6C4BB8BD PUSH1 0x40 MLOAD DUP2 PUSH4 0xFFFFFFFF AND PUSH1 0xE0 SHL DUP2 MSTORE PUSH1 0x4 ADD PUSH1 0x20 PUSH1 0x40 MLOAD DUP1 DUP4 SUB DUP2 PUSH0 DUP8 GAS CALL ISZERO DUP1 ISZERO PUSH2 0xDC2 JUMPI RETURNDATASIZE PUSH0 PUSH0 RETURNDATACOPY RETURNDATASIZE PUSH0 REVERT JUMPDEST POP POP POP POP PUSH1 0x40 MLOAD RETURNDATASIZE PUSH1 0x1F NOT PUSH1 0x1F DUP3 ADD AND DUP3 ADD DUP1 PUSH1 0x40 MSTORE POP DUP2 ADD SWAP1 PUSH2 0xDE6 SWAP2 SWAP1 PUSH2 0x229D JUMP JUMPDEST SWAP1 POP DUP2 PUSH1 0x3 PUSH0 DUP6 DUP2 MSTORE PUSH1 0x20 ADD SWAP1 DUP2 MSTORE PUSH1 0x20 ADD PUSH0 KECCAK256 PUSH0 PUSH2 0x100 EXP DUP2 SLOAD DUP2 PUSH20 0xFFFFFFFFFFFFFFFFFFFFFFFFFFFFFFFFFFFFFFFF MUL NOT AND SWAP1 DUP4 PUSH20 0xFFFFFFFFFFFFFFFFFFFFFFFFFFFFFFFFFFFFFFFF AND MUL OR SWAP1 SSTORE POP DUP1 PUSH1 0x4 PUSH0 DUP6 DUP2 MSTORE PUSH1 0x20 ADD SWAP1 DUP2 MSTORE PUSH1 0x20 ADD PUSH0 KECCAK256 PUSH0 PUSH2 0x100 EXP DUP2 SLOAD DUP2 PUSH20 0xFFFFFFFFFFFFFFFFFFFFFFFFFFFFFFFFFFFFFFFF MUL NOT AND SWAP1 DUP4 PUSH20 0xFFFFFFFFFFFFFFFFFFFFFFFFFFFFFFFFFFFFFFFF AND MUL OR SWAP1 SSTORE POP DUP3 PUSH32 0x714CAAB8B078979E833E97982712CD462AB7124C2A27401542011F30E3D47D55 DUP4 DUP4 PUSH1 0x40 MLOAD PUSH2 0xEB8 SWAP3 SWAP2 SWAP1 PUSH2 0x249B JUMP JUMPDEST PUSH1 0x40 MLOAD DUP1 SWAP2 SUB SWAP1 LOG2 DUP3 SWAP4 POP POP POP POP SWAP2 SWAP1 POP JUMP JUMPDEST PUSH0 PUSH2 0xF0A PUSH1 0x40 MLOAD DUP1 PUSH1 0x40 ADD PUSH1 0x40 MSTORE DUP1 PUSH1 0xE DUP2 MSTORE PUSH1 0x20 ADD PUSH32 0x756E69737761702D6F7261636C65000000000000000000000000000000000000 DUP2 MSTORE POP PUSH2 0x52D JUMP JUMPDEST SWAP1 POP SWAP1 JUMP JUMPDEST PUSH0 PUSH20 0xFFFFFFFFFFFFFFFFFFFFFFFFFFFFFFFFFFFFFFFF AND DUP2 PUSH20 0xFFFFFFFFFFFFFFFFFFFFFFFFFFFFFFFFFFFFFFFF AND SUB PUSH2 0xF7D JUMPI PUSH1 0x40 MLOAD PUSH32 0x8C379A000000000000000000000000000000000000000000000000000000000 DUP2 MSTORE PUSH1 0x4 ADD PUSH2 0xF74 SWAP1 PUSH2 0x250C JUMP JUMPDEST PUSH1 0x40 MLOAD DUP1 SWAP2 SUB SWAP1 REVERT JUMPDEST PUSH0 DUP2 PUSH20 0xFFFFFFFFFFFFFFFFFFFFFFFFFFFFFFFFFFFFFFFF AND EXTCODESIZE GT PUSH2 0xFD6 JUMPI PUSH1 0x40 MLOAD PUSH32 0x8C379A000000000000000000000000000000000000000000000000000000000 DUP2 MSTORE PUSH1 0x4 ADD PUSH2 0xFCD SWAP1 PUSH2 0x2574 JUMP JUMPDEST PUSH1 0x40 MLOAD DUP1 SWAP2 SUB SWAP1 REVERT JUMPDEST DUP1 PUSH20 0xFFFFFFFFFFFFFFFFFFFFFFFFFFFFFFFFFFFFFFFF AND PUSH4 0x8DA5CB5B PUSH1 0x40 MLOAD DUP2 PUSH4 0xFFFFFFFF AND PUSH1 0xE0 SHL DUP2 MSTORE PUSH1 0x4 ADD PUSH1 0x20 PUSH1 0x40 MLOAD DUP1 DUP4 SUB DUP2 DUP7 GAS STATICCALL SWAP3 POP POP POP DUP1 ISZERO PUSH2 0x103E JUMPI POP PUSH1 0x40 MLOAD RETURNDATASIZE PUSH1 0x1F NOT PUSH1 0x1F DUP3 ADD AND DUP3 ADD DUP1 PUSH1 0x40 MSTORE POP DUP2 ADD SWAP1 PUSH2 0x103B SWAP2 SWAP1 PUSH2 0x229D JUMP JUMPDEST PUSH1 0x1 JUMPDEST PUSH2 0x107D JUMPI PUSH1 0x40 MLOAD PUSH32 0x8C379A000000000000000000000000000000000000000000000000000000000 DUP2 MSTORE PUSH1 0x4 ADD PUSH2 0x1074 SWAP1 PUSH2 0x2602 JUMP JUMPDEST PUSH1 0x40 MLOAD DUP1 SWAP2 SUB SWAP1 REVERT JUMPDEST DUP2 PUSH1 0x7 PUSH0 PUSH2 0x100 EXP DUP2 SLOAD DUP2 PUSH20 0xFFFFFFFFFFFFFFFFFFFFFFFFFFFFFFFFFFFFFFFF MUL NOT AND SWAP1 DUP4 PUSH20 0xFFFFFFFFFFFFFFFFFFFFFFFFFFFFFFFFFFFFFFFF AND MUL OR SWAP1 SSTORE POP POP POP JUMP JUMPDEST PUSH0 PUSH1 0x1 DUP3 PUSH2 0x10CF SWAP2 SWAP1 PUSH2 0x2620 JUMP JUMPDEST SWAP1 POP SWAP2 SWAP1 POP JUMP JUMPDEST PUSH0 PUSH0 PUSH2 0x10F0 DUP4 DUP1 PUSH1 0x20 ADD SWAP1 PUSH2 0x10EB SWAP2 SWAP1 PUSH2 0x23C6 JUMP JUMPDEST PUSH2 0x124C JUMP JUMPDEST SWAP1 POP PUSH0 PUSH2 0x110B DUP5 DUP1 PUSH1 0x40 ADD SWAP1 PUSH2 0x1106 SWAP2 SWAP1 PUSH2 0x2653 JUMP JUMPDEST PUSH2 0x12E5 JUMP JUMPDEST SWAP1 POP PUSH0 PUSH2 0x1117 DUP3 PUSH2 0x177A JUMP JUMPDEST SWAP1 POP PUSH0 PUSH2 0x1127 PUSH0 DUP1 SLOAD SWAP1 POP PUSH2 0x17D5 JUMP JUMPDEST SWAP1 POP PUSH0 DUP7 SWAP1 DUP1 PUSH1 0x1 DUP2 SLOAD ADD DUP1 DUP3 SSTORE DUP1 SWAP2 POP POP PUSH1 0x1 SWAP1 SUB SWAP1 PUSH0 MSTORE PUSH1 0x20 PUSH0 KECCAK256 SWAP1 PUSH1 0x3 MUL ADD PUSH0 SWAP1 SWAP2 SWAP1 SWAP2 SWAP1 SWAP2 POP DUP2 DUP2 PUSH2 0x115D SWAP2 SWAP1 PUSH2 0x2CCC JUMP JUMPDEST POP POP DUP1 PUSH1 0x1 PUSH0 DUP7 DUP2 MSTORE PUSH1 0x20 ADD SWAP1 DUP2 MSTORE PUSH1 0x20 ADD PUSH0 KECCAK256 DUP2 SWAP1 SSTORE POP DUP1 PUSH1 0x2 PUSH0 DUP5 DUP2 MSTORE PUSH1 0x20 ADD SWAP1 DUP2 MSTORE PUSH1 0x20 ADD PUSH0 KECCAK256 DUP2 SWAP1 SSTORE POP DUP1 PUSH32 0x8320D61EB752C02271B492BB71EC93150C4EF1F5B9826A5D7C93B055EC00AC4E PUSH1 0x40 MLOAD PUSH1 0x40 MLOAD DUP1 SWAP2 SUB SWAP1 LOG2 DUP1 SWAP5 POP POP POP POP POP SWAP2 SWAP1 POP JUMP JUMPDEST PUSH0 PUSH2 0x1203 PUSH1 0x40 MLOAD DUP1 PUSH1 0x40 ADD PUSH1 0x40 MSTORE DUP1 PUSH1 0x12 DUP2 MSTORE PUSH1 0x20 ADD PUSH32 0x6574662D746F6B656E2D6465706C6F7965720000000000000000000000000000 DUP2 MSTORE POP PUSH2 0x52D JUMP JUMPDEST SWAP1 POP SWAP1 JUMP JUMPDEST PUSH0 PUSH2 0x1247 PUSH1 0x40 MLOAD DUP1 PUSH1 0x40 ADD PUSH1 0x40 MSTORE DUP1 PUSH1 0x12 DUP2 MSTORE PUSH1 0x20 ADD PUSH32 0x6574662D7661756C742D6465706C6F7965720000000000000000000000000000 DUP2 MSTORE POP PUSH2 0x52D JUMP JUMPDEST SWAP1 POP SWAP1 JUMP JUMPDEST PUSH0 PUSH0 DUP4 DUP4 SWAP1 POP SUB PUSH2 0x1289 JUMPI PUSH1 0x40 MLOAD PUSH32 0x653B1BE600000000000000000000000000000000000000000000000000000000 DUP2 MSTORE PUSH1 0x4 ADD PUSH1 0x40 MLOAD DUP1 SWAP2 SUB SWAP1 REVERT JUMPDEST PUSH2 0x1293 DUP4 DUP4 PUSH2 0x17EA JUMP JUMPDEST SWAP1 POP PUSH0 PUSH1 0x1 PUSH0 DUP4 DUP2 MSTORE PUSH1 0x20 ADD SWAP1 DUP2 MSTORE PUSH1 0x20 ADD PUSH0 KECCAK256 SLOAD EQ PUSH2 0x12DF JUMPI PUSH1 0x40 MLOAD PUSH32 0xC498761200000000000000000000000000000000000000000000000000000000 DUP2 MSTORE PUSH1 0x4 ADD PUSH1 0x40 MLOAD DUP1 SWAP2 SUB SWAP1 REVERT JUMPDEST SWAP3 SWAP2 POP POP JUMP JUMPDEST PUSH1 0x60 PUSH0 DUP4 DUP4 SWAP1 POP SWAP1 POP PUSH0 DUP2 SUB PUSH2 0x1327 JUMPI PUSH1 0x40 MLOAD PUSH32 0x5373815F00000000000000000000000000000000000000000000000000000000 DUP2 MSTORE PUSH1 0x4 ADD PUSH1 0x40 MLOAD DUP1 SWAP2 SUB SWAP1 REVERT JUMPDEST DUP1 PUSH8 0xFFFFFFFFFFFFFFFF DUP2 GT ISZERO PUSH2 0x1341 JUMPI PUSH2 0x1340 PUSH2 0x1B20 JUMP JUMPDEST JUMPDEST PUSH1 0x40 MLOAD SWAP1 DUP1 DUP3 MSTORE DUP1 PUSH1 0x20 MUL PUSH1 0x20 ADD DUP3 ADD PUSH1 0x40 MSTORE DUP1 ISZERO PUSH2 0x137A JUMPI DUP2 PUSH1 0x20 ADD JUMPDEST PUSH2 0x1367 PUSH2 0x19FC JUMP JUMPDEST DUP2 MSTORE PUSH1 0x20 ADD SWAP1 PUSH1 0x1 SWAP1 SUB SWAP1 DUP2 PUSH2 0x135F JUMPI SWAP1 POP JUMPDEST POP SWAP2 POP PUSH0 PUSH0 SWAP1 POP JUMPDEST DUP2 DUP2 LT ISZERO PUSH2 0x162C JUMPI CALLDATASIZE DUP6 DUP6 DUP4 DUP2 DUP2 LT PUSH2 0x139E JUMPI PUSH2 0x139D PUSH2 0x2330 JUMP JUMPDEST JUMPDEST SWAP1 POP PUSH1 0x40 MUL ADD SWAP1 POP PUSH0 DUP2 PUSH0 ADD PUSH1 0x20 DUP2 ADD SWAP1 PUSH2 0x13B9 SWAP2 SWAP1 PUSH2 0x1F79 JUMP JUMPDEST SWAP1 POP PUSH0 DUP3 PUSH1 0x20 ADD PUSH1 0x20 DUP2 ADD SWAP1 PUSH2 0x13CF SWAP2 SWAP1 PUSH2 0x2CEE JUMP JUMPDEST PUSH2 0xFFFF AND SWAP1 POP PUSH32 0x0 PUSH20 0xFFFFFFFFFFFFFFFFFFFFFFFFFFFFFFFFFFFFFFFF AND DUP3 PUSH20 0xFFFFFFFFFFFFFFFFFFFFFFFFFFFFFFFFFFFFFFFF AND EQ PUSH2 0x1515 JUMPI PUSH0 PUSH2 0x1431 PUSH2 0x180B JUMP JUMPDEST PUSH20 0xFFFFFFFFFFFFFFFFFFFFFFFFFFFFFFFFFFFFFFFF AND PUSH4 0x6425F09E DUP5 PUSH1 0x40 MLOAD DUP3 PUSH4 0xFFFFFFFF AND PUSH1 0xE0 SHL DUP2 MSTORE PUSH1 0x4 ADD PUSH2 0x1469 SWAP2 SWAP1 PUSH2 0x1A6D JUMP JUMPDEST PUSH1 0x80 PUSH1 0x40 MLOAD DUP1 DUP4 SUB DUP2 PUSH0 DUP8 GAS CALL ISZERO DUP1 ISZERO PUSH2 0x1485 JUMPI RETURNDATASIZE PUSH0 PUSH0 RETURNDATACOPY RETURNDATASIZE PUSH0 REVERT JUMPDEST POP POP POP POP PUSH1 0x40 MLOAD RETURNDATASIZE PUSH1 0x1F NOT PUSH1 0x1F DUP3 ADD AND DUP3 ADD DUP1 PUSH1 0x40 MSTORE POP DUP2 ADD SWAP1 PUSH2 0x14A9 SWAP2 SWAP1 PUSH2 0x2E3D JUMP JUMPDEST SWAP1 POP PUSH0 PUSH20 0xFFFFFFFFFFFFFFFFFFFFFFFFFFFFFFFFFFFFFFFF AND DUP2 PUSH0 ADD MLOAD PUSH20 0xFFFFFFFFFFFFFFFFFFFFFFFFFFFFFFFFFFFFFFFF AND SUB PUSH2 0x1513 JUMPI PUSH1 0x40 MLOAD PUSH32 0x791C2FED00000000000000000000000000000000000000000000000000000000 DUP2 MSTORE PUSH1 0x4 ADD PUSH1 0x40 MLOAD DUP1 SWAP2 SUB SWAP1 REVERT JUMPDEST POP JUMPDEST PUSH0 PUSH20 0xFFFFFFFFFFFFFFFFFFFFFFFFFFFFFFFFFFFFFFFF AND DUP3 PUSH20 0xFFFFFFFFFFFFFFFFFFFFFFFFFFFFFFFFFFFFFFFF AND SUB PUSH2 0x157A JUMPI PUSH1 0x40 MLOAD PUSH32 0xAD1991F500000000000000000000000000000000000000000000000000000000 DUP2 MSTORE PUSH1 0x4 ADD PUSH1 0x40 MLOAD DUP1 SWAP2 SUB SWAP1 REVERT JUMPDEST PUSH0 DUP2 SUB PUSH2 0x15B3 JUMPI PUSH1 0x40 MLOAD PUSH32 0x19A2A9BD00000000000000000000000000000000000000000000000000000000 DUP2 MSTORE PUSH1 0x4 ADD PUSH1 0x40 MLOAD DUP1 SWAP2 SUB SWAP1 REVERT JUMPDEST PUSH2 0x2710 DUP2 GT ISZERO PUSH2 0x15EF JUMPI PUSH1 0x40 MLOAD PUSH32 0xC663343D00000000000000000000000000000000000000000000000000000000 DUP2 MSTORE PUSH1 0x4 ADD PUSH1 0x40 MLOAD DUP1 SWAP2 SUB SWAP1 REVERT JUMPDEST DUP3 DUP1 CALLDATASIZE SUB DUP2 ADD SWAP1 PUSH2 0x1600 SWAP2 SWAP1 PUSH2 0x2EB5 JUMP JUMPDEST DUP7 DUP6 DUP2 MLOAD DUP2 LT PUSH2 0x1613 JUMPI PUSH2 0x1612 PUSH2 0x2330 JUMP JUMPDEST JUMPDEST PUSH1 0x20 MUL PUSH1 0x20 ADD ADD DUP2 SWAP1 MSTORE POP DUP4 PUSH1 0x1 ADD SWAP4 POP POP POP POP PUSH2 0x1382 JUMP JUMPDEST POP PUSH2 0x1636 DUP3 PUSH2 0x184F JUMP JUMPDEST PUSH0 PUSH0 PUSH0 SWAP1 POP JUMPDEST DUP3 DUP2 LT ISZERO PUSH2 0x1736 JUMPI PUSH0 DUP2 GT DUP1 ISZERO PUSH2 0x16C4 JUMPI POP DUP4 DUP2 DUP2 MLOAD DUP2 LT PUSH2 0x1661 JUMPI PUSH2 0x1660 PUSH2 0x2330 JUMP JUMPDEST JUMPDEST PUSH1 0x20 MUL PUSH1 0x20 ADD ADD MLOAD PUSH0 ADD MLOAD PUSH20 0xFFFFFFFFFFFFFFFFFFFFFFFFFFFFFFFFFFFFFFFF AND DUP5 PUSH1 0x1 DUP4 PUSH2 0x1690 SWAP2 SWAP1 PUSH2 0x2620 JUMP JUMPDEST DUP2 MLOAD DUP2 LT PUSH2 0x16A1 JUMPI PUSH2 0x16A0 PUSH2 0x2330 JUMP JUMPDEST JUMPDEST PUSH1 0x20 MUL PUSH1 0x20 ADD ADD MLOAD PUSH0 ADD MLOAD PUSH20 0xFFFFFFFFFFFFFFFFFFFFFFFFFFFFFFFFFFFFFFFF AND EQ JUMPDEST ISZERO PUSH2 0x16FB JUMPI PUSH1 0x40 MLOAD PUSH32 0x464E3F6A00000000000000000000000000000000000000000000000000000000 DUP2 MSTORE PUSH1 0x4 ADD PUSH1 0x40 MLOAD DUP1 SWAP2 SUB SWAP1 REVERT JUMPDEST DUP4 DUP2 DUP2 MLOAD DUP2 LT PUSH2 0x170E JUMPI PUSH2 0x170D PUSH2 0x2330 JUMP JUMPDEST JUMPDEST PUSH1 0x20 MUL PUSH1 0x20 ADD ADD MLOAD PUSH1 0x20 ADD MLOAD PUSH2 0xFFFF AND DUP3 PUSH2 0x1729 SWAP2 SWAP1 PUSH2 0x21FE JUMP JUMPDEST SWAP2 POP DUP1 PUSH1 0x1 ADD SWAP1 POP PUSH2 0x163C JUMP JUMPDEST POP PUSH2 0x2710 DUP2 EQ PUSH2 0x1772 JUMPI PUSH1 0x40 MLOAD PUSH32 0xDA6957EA00000000000000000000000000000000000000000000000000000000 DUP2 MSTORE PUSH1 0x4 ADD PUSH1 0x40 MLOAD DUP1 SWAP2 SUB SWAP1 REVERT JUMPDEST POP POP SWAP3 SWAP2 POP POP JUMP JUMPDEST PUSH0 PUSH2 0x1784 DUP3 PUSH2 0x19AC JUMP JUMPDEST SWAP1 POP PUSH0 PUSH1 0x2 PUSH0 DUP4 DUP2 MSTORE PUSH1 0x20 ADD SWAP1 DUP2 MSTORE PUSH1 0x20 ADD PUSH0 KECCAK256 SLOAD EQ PUSH2 0x17D0 JUMPI PUSH1 0x40 MLOAD PUSH32 0x985BE99000000000000000000000000000000000000000000000000000000000 DUP2 MSTORE PUSH1 0x4 ADD PUSH1 0x40 MLOAD DUP1 SWAP2 SUB SWAP1 REVERT JUMPDEST SWAP2 SWAP1 POP JUMP JUMPDEST PUSH0 PUSH1 0x1 DUP3 PUSH2 0x17E3 SWAP2 SWAP1 PUSH2 0x21FE JUMP JUMPDEST SWAP1 POP SWAP2 SWAP1 POP JUMP JUMPDEST PUSH0 DUP3 DUP3 PUSH1 0x40 MLOAD PUSH2 0x17FB SWAP3 SWAP2 SWAP1 PUSH2 0x2F0E JUMP JUMPDEST PUSH1 0x40 MLOAD DUP1 SWAP2 SUB SWAP1 KECCAK256 SWAP1 POP SWAP3 SWAP2 POP POP JUMP JUMPDEST PUSH0 PUSH2 0x184A PUSH1 0x40 MLOAD DUP1 PUSH1 0x40 ADD PUSH1 0x40 MSTORE DUP1 PUSH1 0xB DUP2 MSTORE PUSH1 0x20 ADD PUSH32 0x706F6F6C2D66696E646572000000000000000000000000000000000000000000 DUP2 MSTORE POP PUSH2 0x52D JUMP JUMPDEST SWAP1 POP SWAP1 JUMP JUMPDEST PUSH0 DUP2 MLOAD SWAP1 POP PUSH0 PUSH1 0x1 SWAP1 POP JUMPDEST DUP2 DUP2 LT ISZERO PUSH2 0x19A7 JUMPI PUSH0 DUP4 DUP3 DUP2 MLOAD DUP2 LT PUSH2 0x1876 JUMPI PUSH2 0x1875 PUSH2 0x2330 JUMP JUMPDEST JUMPDEST PUSH1 0x20 MUL PUSH1 0x20 ADD ADD MLOAD SWAP1 POP PUSH0 DUP3 SWAP1 POP JUMPDEST PUSH0 DUP2 GT ISZERO PUSH2 0x197B JUMPI PUSH0 DUP6 PUSH1 0x1 DUP4 PUSH2 0x189C SWAP2 SWAP1 PUSH2 0x2620 JUMP JUMPDEST DUP2 MLOAD DUP2 LT PUSH2 0x18AD JUMPI PUSH2 0x18AC PUSH2 0x2330 JUMP JUMPDEST JUMPDEST PUSH1 0x20 MUL PUSH1 0x20 ADD ADD MLOAD SWAP1 POP DUP3 PUSH0 ADD MLOAD PUSH20 0xFFFFFFFFFFFFFFFFFFFFFFFFFFFFFFFFFFFFFFFF AND DUP2 PUSH0 ADD MLOAD PUSH20 0xFFFFFFFFFFFFFFFFFFFFFFFFFFFFFFFFFFFFFFFF AND LT DUP1 PUSH2 0x1944 JUMPI POP DUP3 PUSH0 ADD MLOAD PUSH20 0xFFFFFFFFFFFFFFFFFFFFFFFFFFFFFFFFFFFFFFFF AND DUP2 PUSH0 ADD MLOAD PUSH20 0xFFFFFFFFFFFFFFFFFFFFFFFFFFFFFFFFFFFFFFFF AND EQ DUP1 ISZERO PUSH2 0x1943 JUMPI POP DUP3 PUSH1 0x20 ADD MLOAD PUSH2 0xFFFF AND DUP2 PUSH1 0x20 ADD MLOAD PUSH2 0xFFFF AND GT ISZERO JUMPDEST JUMPDEST ISZERO PUSH2 0x194F JUMPI POP PUSH2 0x197B JUMP JUMPDEST DUP1 DUP7 DUP4 DUP2 MLOAD DUP2 LT PUSH2 0x1963 JUMPI PUSH2 0x1962 PUSH2 0x2330 JUMP JUMPDEST JUMPDEST PUSH1 0x20 MUL PUSH1 0x20 ADD ADD DUP2 SWAP1 MSTORE POP DUP2 PUSH1 0x1 SWAP1 SUB SWAP2 POP POP PUSH2 0x1885 JUMP JUMPDEST DUP2 DUP6 DUP3 DUP2 MLOAD DUP2 LT PUSH2 0x198F JUMPI PUSH2 0x198E PUSH2 0x2330 JUMP JUMPDEST JUMPDEST PUSH1 0x20 MUL PUSH1 0x20 ADD ADD DUP2 SWAP1 MSTORE POP DUP3 PUSH1 0x1 ADD SWAP3 POP POP POP PUSH2 0x185A JUMP JUMPDEST POP POP POP JUMP JUMPDEST PUSH0 DUP2 PUSH1 0x40 MLOAD PUSH1 0x20 ADD PUSH2 0x19BE SWAP2 SWAP1 PUSH2 0x2F92 JUMP JUMPDEST PUSH1 0x40 MLOAD PUSH1 0x20 DUP2 DUP4 SUB SUB DUP2 MSTORE SWAP1 PUSH1 0x40 MSTORE DUP1 MLOAD SWAP1 PUSH1 0x20 ADD KECCAK256 SWAP1 POP SWAP2 SWAP1 POP JUMP JUMPDEST PUSH1 0x40 MLOAD DUP1 PUSH1 0x60 ADD PUSH1 0x40 MSTORE DUP1 PUSH1 0x60 DUP2 MSTORE PUSH1 0x20 ADD PUSH1 0x60 DUP2 MSTORE PUSH1 0x20 ADD PUSH1 0x60 DUP2 MSTORE POP SWAP1 JUMP JUMPDEST PUSH1 0x40 MLOAD DUP1 PUSH1 0x40 ADD PUSH1 0x40 MSTORE DUP1 PUSH0 PUSH20 0xFFFFFFFFFFFFFFFFFFFFFFFFFFFFFFFFFFFFFFFF AND DUP2 MSTORE PUSH1 0x20 ADD PUSH0 PUSH2 0xFFFF AND DUP2 MSTORE POP SWAP1 JUMP JUMPDEST PUSH0 PUSH20 0xFFFFFFFFFFFFFFFFFFFFFFFFFFFFFFFFFFFFFFFF DUP3 AND SWAP1 POP SWAP2 SWAP1 POP JUMP JUMPDEST PUSH0 PUSH2 0x1A57 DUP3 PUSH2 0x1A2E JUMP JUMPDEST SWAP1 POP SWAP2 SWAP1 POP JUMP JUMPDEST PUSH2 0x1A67 DUP2 PUSH2 0x1A4D JUMP JUMPDEST DUP3 MSTORE POP POP JUMP JUMPDEST PUSH0 PUSH1 0x20 DUP3 ADD SWAP1 POP PUSH2 0x1A80 PUSH0 DUP4 ADD DUP5 PUSH2 0x1A5E JUMP JUMPDEST SWAP3 SWAP2 POP POP JUMP JUMPDEST PUSH0 PUSH1 0x40 MLOAD SWAP1 POP SWAP1 JUMP JUMPDEST PUSH0 PUSH0 REVERT JUMPDEST PUSH0 PUSH0 REVERT JUMPDEST PUSH0 DUP2 SWAP1 POP SWAP2 SWAP1 POP JUMP JUMPDEST PUSH2 0x1AA9 DUP2 PUSH2 0x1A97 JUMP JUMPDEST DUP2 EQ PUSH2 0x1AB3 JUMPI PUSH0 PUSH0 REVERT JUMPDEST POP JUMP JUMPDEST PUSH0 DUP2 CALLDATALOAD SWAP1 POP PUSH2 0x1AC4 DUP2 PUSH2 0x1AA0 JUMP JUMPDEST SWAP3 SWAP2 POP POP JUMP JUMPDEST PUSH0 PUSH0 PUSH1 0x40 DUP4 DUP6 SUB SLT ISZERO PUSH2 0x1AE0 JUMPI PUSH2 0x1ADF PUSH2 0x1A8F JUMP JUMPDEST JUMPDEST PUSH0 PUSH2 0x1AED DUP6 DUP3 DUP7 ADD PUSH2 0x1AB6 JUMP JUMPDEST SWAP3 POP POP PUSH1 0x20 PUSH2 0x1AFE DUP6 DUP3 DUP7 ADD PUSH2 0x1AB6 JUMP JUMPDEST SWAP2 POP POP SWAP3 POP SWAP3 SWAP1 POP JUMP JUMPDEST PUSH0 PUSH0 REVERT JUMPDEST PUSH0 PUSH0 REVERT JUMPDEST PUSH0 PUSH1 0x1F NOT PUSH1 0x1F DUP4 ADD AND SWAP1 POP SWAP2 SWAP1 POP JUMP JUMPDEST PUSH32 0x4E487B7100000000000000000000000000000000000000000000000000000000 PUSH0 MSTORE PUSH1 0x41 PUSH1 0x4 MSTORE PUSH1 0x24 PUSH0 REVERT JUMPDEST PUSH2 0x1B56 DUP3 PUSH2 0x1B10 JUMP JUMPDEST DUP2 ADD DUP2 DUP2 LT PUSH8 0xFFFFFFFFFFFFFFFF DUP3 GT OR ISZERO PUSH2 0x1B75 JUMPI PUSH2 0x1B74 PUSH2 0x1B20 JUMP JUMPDEST JUMPDEST DUP1 PUSH1 0x40 MSTORE POP POP POP JUMP JUMPDEST PUSH0 PUSH2 0x1B87 PUSH2 0x1A86 JUMP JUMPDEST SWAP1 POP PUSH2 0x1B93 DUP3 DUP3 PUSH2 0x1B4D JUMP JUMPDEST SWAP2 SWAP1 POP JUMP JUMPDEST PUSH0 PUSH8 0xFFFFFFFFFFFFFFFF DUP3 GT ISZERO PUSH2 0x1BB2 JUMPI PUSH2 0x1BB1 PUSH2 0x1B20 JUMP JUMPDEST JUMPDEST PUSH2 0x1BBB DUP3 PUSH2 0x1B10 JUMP JUMPDEST SWAP1 POP PUSH1 0x20 DUP2 ADD SWAP1 POP SWAP2 SWAP1 POP JUMP JUMPDEST DUP3 DUP2 DUP4 CALLDATACOPY PUSH0 DUP4 DUP4 ADD MSTORE POP POP POP JUMP JUMPDEST PUSH0 PUSH2 0x1BE8 PUSH2 0x1BE3 DUP5 PUSH2 0x1B98 JUMP JUMPDEST PUSH2 0x1B7E JUMP JUMPDEST SWAP1 POP DUP3 DUP2 MSTORE PUSH1 0x20 DUP2 ADD DUP5 DUP5 DUP5 ADD GT ISZERO PUSH2 0x1C04 JUMPI PUSH2 0x1C03 PUSH2 0x1B0C JUMP JUMPDEST JUMPDEST PUSH2 0x1C0F DUP5 DUP3 DUP6 PUSH2 0x1BC8 JUMP JUMPDEST POP SWAP4 SWAP3 POP POP POP JUMP JUMPDEST PUSH0 DUP3 PUSH1 0x1F DUP4 ADD SLT PUSH2 0x1C2B JUMPI PUSH2 0x1C2A PUSH2 0x1B08 JUMP JUMPDEST JUMPDEST DUP2 CALLDATALOAD PUSH2 0x1C3B DUP5 DUP3 PUSH1 0x20 DUP7 ADD PUSH2 0x1BD6 JUMP JUMPDEST SWAP2 POP POP SWAP3 SWAP2 POP POP JUMP JUMPDEST PUSH0 PUSH1 0x20 DUP3 DUP5 SUB SLT ISZERO PUSH2 0x1C59 JUMPI PUSH2 0x1C58 PUSH2 0x1A8F JUMP JUMPDEST JUMPDEST PUSH0 DUP3 ADD CALLDATALOAD PUSH8 0xFFFFFFFFFFFFFFFF DUP2 GT ISZERO PUSH2 0x1C76 JUMPI PUSH2 0x1C75 PUSH2 0x1A93 JUMP JUMPDEST JUMPDEST PUSH2 0x1C82 DUP5 DUP3 DUP6 ADD PUSH2 0x1C17 JUMP JUMPDEST SWAP2 POP POP SWAP3 SWAP2 POP POP JUMP JUMPDEST PUSH0 PUSH1 0x20 DUP3 DUP5 SUB SLT ISZERO PUSH2 0x1CA0 JUMPI PUSH2 0x1C9F PUSH2 0x1A8F JUMP JUMPDEST JUMPDEST PUSH0 PUSH2 0x1CAD DUP5 DUP3 DUP6 ADD PUSH2 0x1AB6 JUMP JUMPDEST SWAP2 POP POP SWAP3 SWAP2 POP POP JUMP JUMPDEST PUSH0 DUP2 MLOAD SWAP1 POP SWAP2 SWAP1 POP JUMP JUMPDEST PUSH0 DUP3 DUP3 MSTORE PUSH1 0x20 DUP3 ADD SWAP1 POP SWAP3 SWAP2 POP POP JUMP JUMPDEST DUP3 DUP2 DUP4 MCOPY PUSH0 DUP4 DUP4 ADD MSTORE POP POP POP JUMP JUMPDEST PUSH0 PUSH2 0x1CE8 DUP3 PUSH2 0x1CB6 JUMP JUMPDEST PUSH2 0x1CF2 DUP2 DUP6 PUSH2 0x1CC0 JUMP JUMPDEST SWAP4 POP PUSH2 0x1D02 DUP2 DUP6 PUSH1 0x20 DUP7 ADD PUSH2 0x1CD0 JUMP JUMPDEST PUSH2 0x1D0B DUP2 PUSH2 0x1B10 JUMP JUMPDEST DUP5 ADD SWAP2 POP POP SWAP3 SWAP2 POP POP JUMP JUMPDEST PUSH0 DUP2 MLOAD SWAP1 POP SWAP2 SWAP1 POP JUMP JUMPDEST PUSH0 DUP3 DUP3 MSTORE PUSH1 0x20 DUP3 ADD SWAP1 POP SWAP3 SWAP2 POP POP JUMP JUMPDEST PUSH0 DUP2 SWAP1 POP PUSH1 0x20 DUP3 ADD SWAP1 POP SWAP2 SWAP1 POP JUMP JUMPDEST PUSH2 0x1D48 DUP2 PUSH2 0x1A4D JUMP JUMPDEST DUP3 MSTORE POP POP JUMP JUMPDEST PUSH0 PUSH2 0xFFFF DUP3 AND SWAP1 POP SWAP2 SWAP1 POP JUMP JUMPDEST PUSH2 0x1D64 DUP2 PUSH2 0x1D4E JUMP JUMPDEST DUP3 MSTORE POP POP JUMP JUMPDEST PUSH1 0x40 DUP3 ADD PUSH0 DUP3 ADD MLOAD PUSH2 0x1D7E PUSH0 DUP6 ADD DUP3 PUSH2 0x1D3F JUMP JUMPDEST POP PUSH1 0x20 DUP3 ADD MLOAD PUSH2 0x1D91 PUSH1 0x20 DUP6 ADD DUP3 PUSH2 0x1D5B JUMP JUMPDEST POP POP POP POP JUMP JUMPDEST PUSH0 PUSH2 0x1DA2 DUP4 DUP4 PUSH2 0x1D6A JUMP JUMPDEST PUSH1 0x40 DUP4 ADD SWAP1 POP SWAP3 SWAP2 POP POP JUMP JUMPDEST PUSH0 PUSH1 0x20 DUP3 ADD SWAP1 POP SWAP2 SWAP1 POP JUMP JUMPDEST PUSH0 PUSH2 0x1DC4 DUP3 PUSH2 0x1D16 JUMP JUMPDEST PUSH2 0x1DCE DUP2 DUP6 PUSH2 0x1D20 JUMP JUMPDEST SWAP4 POP PUSH2 0x1DD9 DUP4 PUSH2 0x1D30 JUMP JUMPDEST DUP1 PUSH0 JUMPDEST DUP4 DUP2 LT ISZERO PUSH2 0x1E09 JUMPI DUP2 MLOAD PUSH2 0x1DF0 DUP9 DUP3 PUSH2 0x1D97 JUMP JUMPDEST SWAP8 POP PUSH2 0x1DFB DUP4 PUSH2 0x1DAE JUMP JUMPDEST SWAP3 POP POP PUSH1 0x1 DUP2 ADD SWAP1 POP PUSH2 0x1DDC JUMP JUMPDEST POP DUP6 SWAP4 POP POP POP POP SWAP3 SWAP2 POP POP JUMP JUMPDEST PUSH0 PUSH1 0x60 DUP4 ADD PUSH0 DUP4 ADD MLOAD DUP5 DUP3 SUB PUSH0 DUP7 ADD MSTORE PUSH2 0x1E30 DUP3 DUP3 PUSH2 0x1CDE JUMP JUMPDEST SWAP2 POP POP PUSH1 0x20 DUP4 ADD MLOAD DUP5 DUP3 SUB PUSH1 0x20 DUP7 ADD MSTORE PUSH2 0x1E4A DUP3 DUP3 PUSH2 0x1CDE JUMP JUMPDEST SWAP2 POP POP PUSH1 0x40 DUP4 ADD MLOAD DUP5 DUP3 SUB PUSH1 0x40 DUP7 ADD MSTORE PUSH2 0x1E64 DUP3 DUP3 PUSH2 0x1DBA JUMP JUMPDEST SWAP2 POP POP DUP1 SWAP2 POP POP SWAP3 SWAP2 POP POP JUMP JUMPDEST PUSH0 PUSH1 0x40 DUP3 ADD SWAP1 POP DUP2 DUP2 SUB PUSH0 DUP4 ADD MSTORE PUSH2 0x1E89 DUP2 DUP6 PUSH2 0x1E16 JUMP JUMPDEST SWAP1 POP PUSH2 0x1E98 PUSH1 0x20 DUP4 ADD DUP5 PUSH2 0x1A5E JUMP JUMPDEST SWAP4 SWAP3 POP POP POP JUMP JUMPDEST PUSH0 PUSH1 0x60 DUP3 ADD SWAP1 POP DUP2 DUP2 SUB PUSH0 DUP4 ADD MSTORE PUSH2 0x1EB7 DUP2 DUP7 PUSH2 0x1E16 JUMP JUMPDEST SWAP1 POP PUSH2 0x1EC6 PUSH1 0x20 DUP4 ADD DUP6 PUSH2 0x1A5E JUMP JUMPDEST PUSH2 0x1ED3 PUSH1 0x40 DUP4 ADD DUP5 PUSH2 0x1A5E JUMP JUMPDEST SWAP5 SWAP4 POP POP POP POP JUMP JUMPDEST PUSH0 DUP2 SWAP1 POP SWAP2 SWAP1 POP JUMP JUMPDEST PUSH0 PUSH2 0x1EFE PUSH2 0x1EF9 PUSH2 0x1EF4 DUP5 PUSH2 0x1A2E JUMP JUMPDEST PUSH2 0x1EDB JUMP JUMPDEST PUSH2 0x1A2E JUMP JUMPDEST SWAP1 POP SWAP2 SWAP1 POP JUMP JUMPDEST PUSH0 PUSH2 0x1F0F DUP3 PUSH2 0x1EE4 JUMP JUMPDEST SWAP1 POP SWAP2 SWAP1 POP JUMP JUMPDEST PUSH0 PUSH2 0x1F20 DUP3 PUSH2 0x1F05 JUMP JUMPDEST SWAP1 POP SWAP2 SWAP1 POP JUMP JUMPDEST PUSH2 0x1F30 DUP2 PUSH2 0x1F16 JUMP JUMPDEST DUP3 MSTORE POP POP JUMP JUMPDEST PUSH0 PUSH1 0x20 DUP3 ADD SWAP1 POP PUSH2 0x1F49 PUSH0 DUP4 ADD DUP5 PUSH2 0x1F27 JUMP JUMPDEST SWAP3 SWAP2 POP POP JUMP JUMPDEST PUSH2 0x1F58 DUP2 PUSH2 0x1A4D JUMP JUMPDEST DUP2 EQ PUSH2 0x1F62 JUMPI PUSH0 PUSH0 REVERT JUMPDEST POP JUMP JUMPDEST PUSH0 DUP2 CALLDATALOAD SWAP1 POP PUSH2 0x1F73 DUP2 PUSH2 0x1F4F JUMP JUMPDEST SWAP3 SWAP2 POP POP JUMP JUMPDEST PUSH0 PUSH1 0x20 DUP3 DUP5 SUB SLT ISZERO PUSH2 0x1F8E JUMPI PUSH2 0x1F8D PUSH2 0x1A8F JUMP JUMPDEST JUMPDEST PUSH0 PUSH2 0x1F9B DUP5 DUP3 DUP6 ADD PUSH2 0x1F65 JUMP JUMPDEST SWAP2 POP POP SWAP3 SWAP2 POP POP JUMP JUMPDEST PUSH2 0x1FAD DUP2 PUSH2 0x1A97 JUMP JUMPDEST DUP3 MSTORE POP POP JUMP JUMPDEST PUSH0 PUSH1 0x40 DUP3 ADD SWAP1 POP PUSH2 0x1FC6 PUSH0 DUP4 ADD DUP6 PUSH2 0x1FA4 JUMP JUMPDEST PUSH2 0x1FD3 PUSH1 0x20 DUP4 ADD DUP5 PUSH2 0x1FA4 JUMP JUMPDEST SWAP4 SWAP3 POP POP POP JUMP JUMPDEST PUSH0 PUSH1 0x20 DUP3 ADD SWAP1 POP DUP2 DUP2 SUB PUSH0 DUP4 ADD MSTORE PUSH2 0x1FF2 DUP2 DUP5 PUSH2 0x1E16 JUMP JUMPDEST SWAP1 POP SWAP3 SWAP2 POP POP JUMP JUMPDEST PUSH0 PUSH0 REVERT JUMPDEST PUSH0 PUSH1 0x60 DUP3 DUP5 SUB SLT ISZERO PUSH2 0x2013 JUMPI PUSH2 0x2012 PUSH2 0x1FFA JUMP JUMPDEST JUMPDEST DUP2 SWAP1 POP SWAP3 SWAP2 POP POP JUMP JUMPDEST PUSH0 PUSH1 0x20 DUP3 DUP5 SUB SLT ISZERO PUSH2 0x2031 JUMPI PUSH2 0x2030 PUSH2 0x1A8F JUMP JUMPDEST JUMPDEST PUSH0 DUP3 ADD CALLDATALOAD PUSH8 0xFFFFFFFFFFFFFFFF DUP2 GT ISZERO PUSH2 0x204E JUMPI PUSH2 0x204D PUSH2 0x1A93 JUMP JUMPDEST JUMPDEST PUSH2 0x205A DUP5 DUP3 DUP6 ADD PUSH2 0x1FFE JUMP JUMPDEST SWAP2 POP POP SWAP3 SWAP2 POP POP JUMP JUMPDEST PUSH0 PUSH1 0x20 DUP3 ADD SWAP1 POP PUSH2 0x2076 PUSH0 DUP4 ADD DUP5 PUSH2 0x1FA4 JUMP JUMPDEST SWAP3 SWAP2 POP POP JUMP JUMPDEST PUSH0 DUP3 DUP3 MSTORE PUSH1 0x20 DUP3 ADD SWAP1 POP SWAP3 SWAP2 POP POP JUMP JUMPDEST PUSH32 0x6D73672E73656E646572206973206E6F742065746620726F7574657200000000 PUSH0 DUP3 ADD MSTORE POP JUMP JUMPDEST PUSH0 PUSH2 0x20C0 PUSH1 0x1C DUP4 PUSH2 0x207C JUMP JUMPDEST SWAP2 POP PUSH2 0x20CB DUP3 PUSH2 0x208C JUMP JUMPDEST PUSH1 0x20 DUP3 ADD SWAP1 POP SWAP2 SWAP1 POP JUMP JUMPDEST PUSH0 PUSH1 0x20 DUP3 ADD SWAP1 POP DUP2 DUP2 SUB PUSH0 DUP4 ADD MSTORE PUSH2 0x20ED DUP2 PUSH2 0x20B4 JUMP JUMPDEST SWAP1 POP SWAP2 SWAP1 POP JUMP JUMPDEST PUSH0 DUP2 MLOAD SWAP1 POP PUSH2 0x2102 DUP2 PUSH2 0x1AA0 JUMP JUMPDEST SWAP3 SWAP2 POP POP JUMP JUMPDEST PUSH0 PUSH1 0x20 DUP3 DUP5 SUB SLT ISZERO PUSH2 0x211D JUMPI PUSH2 0x211C PUSH2 0x1A8F JUMP JUMPDEST JUMPDEST PUSH0 PUSH2 0x212A DUP5 DUP3 DUP6 ADD PUSH2 0x20F4 JUMP JUMPDEST SWAP2 POP POP SWAP3 SWAP2 POP POP JUMP JUMPDEST PUSH32 0x4E487B7100000000000000000000000000000000000000000000000000000000 PUSH0 MSTORE PUSH1 0x11 PUSH1 0x4 MSTORE PUSH1 0x24 PUSH0 REVERT JUMPDEST PUSH0 PUSH2 0x216A DUP3 PUSH2 0x1A97 JUMP JUMPDEST SWAP2 POP PUSH2 0x2175 DUP4 PUSH2 0x1A97 JUMP JUMPDEST SWAP3 POP DUP3 DUP3 MUL PUSH2 0x2183 DUP2 PUSH2 0x1A97 JUMP JUMPDEST SWAP2 POP DUP3 DUP3 DIV DUP5 EQ DUP4 ISZERO OR PUSH2 0x219A JUMPI PUSH2 0x2199 PUSH2 0x2133 JUMP JUMPDEST JUMPDEST POP SWAP3 SWAP2 POP POP JUMP JUMPDEST PUSH32 0x4E487B7100000000000000000000000000000000000000000000000000000000 PUSH0 MSTORE PUSH1 0x12 PUSH1 0x4 MSTORE PUSH1 0x24 PUSH0 REVERT JUMPDEST PUSH0 PUSH2 0x21D8 DUP3 PUSH2 0x1A97 JUMP JUMPDEST SWAP2 POP PUSH2 0x21E3 DUP4 PUSH2 0x1A97 JUMP JUMPDEST SWAP3 POP DUP3 PUSH2 0x21F3 JUMPI PUSH2 0x21F2 PUSH2 0x21A1 JUMP JUMPDEST JUMPDEST DUP3 DUP3 DIV SWAP1 POP SWAP3 SWAP2 POP POP JUMP JUMPDEST PUSH0 PUSH2 0x2208 DUP3 PUSH2 0x1A97 JUMP JUMPDEST SWAP2 POP PUSH2 0x2213 DUP4 PUSH2 0x1A97 JUMP JUMPDEST SWAP3 POP DUP3 DUP3 ADD SWAP1 POP DUP1 DUP3 GT ISZERO PUSH2 0x222B JUMPI PUSH2 0x222A PUSH2 0x2133 JUMP JUMPDEST JUMPDEST SWAP3 SWAP2 POP POP JUMP JUMPDEST PUSH0 PUSH2 0x223B DUP3 PUSH2 0x1CB6 JUMP JUMPDEST PUSH2 0x2245 DUP2 DUP6 PUSH2 0x207C JUMP JUMPDEST SWAP4 POP PUSH2 0x2255 DUP2 DUP6 PUSH1 0x20 DUP7 ADD PUSH2 0x1CD0 JUMP JUMPDEST PUSH2 0x225E DUP2 PUSH2 0x1B10 JUMP JUMPDEST DUP5 ADD SWAP2 POP POP SWAP3 SWAP2 POP POP JUMP JUMPDEST PUSH0 PUSH1 0x20 DUP3 ADD SWAP1 POP DUP2 DUP2 SUB PUSH0 DUP4 ADD MSTORE PUSH2 0x2281 DUP2 DUP5 PUSH2 0x2231 JUMP JUMPDEST SWAP1 POP SWAP3 SWAP2 POP POP JUMP JUMPDEST PUSH0 DUP2 MLOAD SWAP1 POP PUSH2 0x2297 DUP2 PUSH2 0x1F4F JUMP JUMPDEST SWAP3 SWAP2 POP POP JUMP JUMPDEST PUSH0 PUSH1 0x20 DUP3 DUP5 SUB SLT ISZERO PUSH2 0x22B2 JUMPI PUSH2 0x22B1 PUSH2 0x1A8F JUMP JUMPDEST JUMPDEST PUSH0 PUSH2 0x22BF DUP5 DUP3 DUP6 ADD PUSH2 0x2289 JUMP JUMPDEST SWAP2 POP POP SWAP3 SWAP2 POP POP JUMP JUMPDEST PUSH32 0x43616C6C6572206973206E6F7420746865206F776E6572000000000000000000 PUSH0 DUP3 ADD MSTORE POP JUMP JUMPDEST PUSH0 PUSH2 0x22FC PUSH1 0x17 DUP4 PUSH2 0x207C JUMP JUMPDEST SWAP2 POP PUSH2 0x2307 DUP3 PUSH2 0x22C8 JUMP JUMPDEST PUSH1 0x20 DUP3 ADD SWAP1 POP SWAP2 SWAP1 POP JUMP JUMPDEST PUSH0 PUSH1 0x20 DUP3 ADD SWAP1 POP DUP2 DUP2 SUB PUSH0 DUP4 ADD MSTORE PUSH2 0x2329 DUP2 PUSH2 0x22F0 JUMP JUMPDEST SWAP1 POP SWAP2 SWAP1 POP JUMP JUMPDEST PUSH32 0x4E487B7100000000000000000000000000000000000000000000000000000000 PUSH0 MSTORE PUSH1 0x32 PUSH1 0x4 MSTORE PUSH1 0x24 PUSH0 REVERT JUMPDEST PUSH32 0x4E487B7100000000000000000000000000000000000000000000000000000000 PUSH0 MSTORE PUSH1 0x22 PUSH1 0x4 MSTORE PUSH1 0x24 PUSH0 REVERT JUMPDEST PUSH0 PUSH1 0x2 DUP3 DIV SWAP1 POP PUSH1 0x1 DUP3 AND DUP1 PUSH2 0x23A1 JUMPI PUSH1 0x7F DUP3 AND SWAP2 POP JUMPDEST PUSH1 0x20 DUP3 LT DUP2 SUB PUSH2 0x23B4 JUMPI PUSH2 0x23B3 PUSH2 0x235D JUMP JUMPDEST JUMPDEST POP SWAP2 SWAP1 POP JUMP JUMPDEST PUSH0 PUSH0 REVERT JUMPDEST PUSH0 PUSH0 REVERT JUMPDEST PUSH0 PUSH0 REVERT JUMPDEST PUSH0 PUSH0 DUP4 CALLDATALOAD PUSH1 0x1 PUSH1 0x20 SUB DUP5 CALLDATASIZE SUB SUB DUP2 SLT PUSH2 0x23E2 JUMPI PUSH2 0x23E1 PUSH2 0x23BA JUMP JUMPDEST JUMPDEST DUP1 DUP5 ADD SWAP3 POP DUP3 CALLDATALOAD SWAP2 POP PUSH8 0xFFFFFFFFFFFFFFFF DUP3 GT ISZERO PUSH2 0x2404 JUMPI PUSH2 0x2403 PUSH2 0x23BE JUMP JUMPDEST JUMPDEST PUSH1 0x20 DUP4 ADD SWAP3 POP PUSH1 0x1 DUP3 MUL CALLDATASIZE SUB DUP4 SGT ISZERO PUSH2 0x2420 JUMPI PUSH2 0x241F PUSH2 0x23C2 JUMP JUMPDEST JUMPDEST POP SWAP3 POP SWAP3 SWAP1 POP JUMP JUMPDEST PUSH0 PUSH2 0x2433 DUP4 DUP6 PUSH2 0x207C JUMP JUMPDEST SWAP4 POP PUSH2 0x2440 DUP4 DUP6 DUP5 PUSH2 0x1BC8 JUMP JUMPDEST PUSH2 0x2449 DUP4 PUSH2 0x1B10 JUMP JUMPDEST DUP5 ADD SWAP1 POP SWAP4 SWAP3 POP POP POP JUMP JUMPDEST PUSH0 PUSH1 0x60 DUP3 ADD SWAP1 POP PUSH2 0x2467 PUSH0 DUP4 ADD DUP9 PUSH2 0x1FA4 JUMP JUMPDEST DUP2 DUP2 SUB PUSH1 0x20 DUP4 ADD MSTORE PUSH2 0x247A DUP2 DUP7 DUP9 PUSH2 0x2428 JUMP JUMPDEST SWAP1 POP DUP2 DUP2 SUB PUSH1 0x40 DUP4 ADD MSTORE PUSH2 0x248F DUP2 DUP5 DUP7 PUSH2 0x2428 JUMP JUMPDEST SWAP1 POP SWAP7 SWAP6 POP POP POP POP POP POP JUMP JUMPDEST PUSH0 PUSH1 0x40 DUP3 ADD SWAP1 POP PUSH2 0x24AE PUSH0 DUP4 ADD DUP6 PUSH2 0x1A5E JUMP JUMPDEST PUSH2 0x24BB PUSH1 0x20 DUP4 ADD DUP5 PUSH2 0x1A5E JUMP JUMPDEST SWAP4 SWAP3 POP POP POP JUMP JUMPDEST PUSH32 0x4469726563746F72792063616E6E6F74206265207A65726F2061646472657373 PUSH0 DUP3 ADD MSTORE POP JUMP JUMPDEST PUSH0 PUSH2 0x24F6 PUSH1 0x20 DUP4 PUSH2 0x207C JUMP JUMPDEST SWAP2 POP PUSH2 0x2501 DUP3 PUSH2 0x24C2 JUMP JUMPDEST PUSH1 0x20 DUP3 ADD SWAP1 POP SWAP2 SWAP1 POP JUMP JUMPDEST PUSH0 PUSH1 0x20 DUP3 ADD SWAP1 POP DUP2 DUP2 SUB PUSH0 DUP4 ADD MSTORE PUSH2 0x2523 DUP2 PUSH2 0x24EA JUMP JUMPDEST SWAP1 POP SWAP2 SWAP1 POP JUMP JUMPDEST PUSH32 0x4469726563746F7279206D757374206265206120636F6E747261637400000000 PUSH0 DUP3 ADD MSTORE POP JUMP JUMPDEST PUSH0 PUSH2 0x255E PUSH1 0x1C DUP4 PUSH2 0x207C JUMP JUMPDEST SWAP2 POP PUSH2 0x2569 DUP3 PUSH2 0x252A JUMP JUMPDEST PUSH1 0x20 DUP3 ADD SWAP1 POP SWAP2 SWAP1 POP JUMP JUMPDEST PUSH0 PUSH1 0x20 DUP3 ADD SWAP1 POP DUP2 DUP2 SUB PUSH0 DUP4 ADD MSTORE PUSH2 0x258B DUP2 PUSH2 0x2552 JUMP JUMPDEST SWAP1 POP SWAP2 SWAP1 POP JUMP JUMPDEST PUSH32 0x4469726563746F7279206164647265737320646F6573206E6F7420696D706C65 PUSH0 DUP3 ADD MSTORE PUSH32 0x6D656E74206F776E657228290000000000000000000000000000000000000000 PUSH1 0x20 DUP3 ADD MSTORE POP JUMP JUMPDEST PUSH0 PUSH2 0x25EC PUSH1 0x2C DUP4 PUSH2 0x207C JUMP JUMPDEST SWAP2 POP PUSH2 0x25F7 DUP3 PUSH2 0x2592 JUMP JUMPDEST PUSH1 0x40 DUP3 ADD SWAP1 POP SWAP2 SWAP1 POP JUMP JUMPDEST PUSH0 PUSH1 0x20 DUP3 ADD SWAP1 POP DUP2 DUP2 SUB PUSH0 DUP4 ADD MSTORE PUSH2 0x2619 DUP2 PUSH2 0x25E0 JUMP JUMPDEST SWAP1 POP SWAP2 SWAP1 POP JUMP JUMPDEST PUSH0 PUSH2 0x262A DUP3 PUSH2 0x1A97 JUMP JUMPDEST SWAP2 POP PUSH2 0x2635 DUP4 PUSH2 0x1A97 JUMP JUMPDEST SWAP3 POP DUP3 DUP3 SUB SWAP1 POP DUP2 DUP2 GT ISZERO PUSH2 0x264D JUMPI PUSH2 0x264C PUSH2 0x2133 JUMP JUMPDEST JUMPDEST SWAP3 SWAP2 POP POP JUMP JUMPDEST PUSH0 PUSH0 DUP4 CALLDATALOAD PUSH1 0x1 PUSH1 0x20 SUB DUP5 CALLDATASIZE SUB SUB DUP2 SLT PUSH2 0x266F JUMPI PUSH2 0x266E PUSH2 0x23BA JUMP JUMPDEST JUMPDEST DUP1 DUP5 ADD SWAP3 POP DUP3 CALLDATALOAD SWAP2 POP PUSH8 0xFFFFFFFFFFFFFFFF DUP3 GT ISZERO PUSH2 0x2691 JUMPI PUSH2 0x2690 PUSH2 0x23BE JUMP JUMPDEST JUMPDEST PUSH1 0x20 DUP4 ADD SWAP3 POP PUSH1 0x40 DUP3 MUL CALLDATASIZE SUB DUP4 SGT ISZERO PUSH2 0x26AD JUMPI PUSH2 0x26AC PUSH2 0x23C2 JUMP JUMPDEST JUMPDEST POP SWAP3 POP SWAP3 SWAP1 POP JUMP JUMPDEST PUSH32 0x4E487B7100000000000000000000000000000000000000000000000000000000 PUSH0 MSTORE PUSH0 PUSH1 0x4 MSTORE PUSH1 0x24 PUSH0 REVERT JUMPDEST PUSH0 DUP3 SWAP1 POP SWAP3 SWAP2 POP POP JUMP JUMPDEST PUSH0 DUP2 SWAP1 POP DUP2 PUSH0 MSTORE PUSH1 0x20 PUSH0 KECCAK256 SWAP1 POP SWAP2 SWAP1 POP JUMP JUMPDEST PUSH0 PUSH1 0x20 PUSH1 0x1F DUP4 ADD DIV SWAP1 POP SWAP2 SWAP1 POP JUMP JUMPDEST PUSH0 DUP3 DUP3 SHL SWAP1 POP SWAP3 SWAP2 POP POP JUMP JUMPDEST PUSH0 PUSH1 0x8 DUP4 MUL PUSH2 0x2747 PUSH32 0xFFFFFFFFFFFFFFFFFFFFFFFFFFFFFFFFFFFFFFFFFFFFFFFFFFFFFFFFFFFFFFFF DUP3 PUSH2 0x270C JUMP JUMPDEST PUSH2 0x2751 DUP7 DUP4 PUSH2 0x270C JUMP JUMPDEST SWAP6 POP DUP1 NOT DUP5 AND SWAP4 POP DUP1 DUP7 AND DUP5 OR SWAP3 POP POP POP SWAP4 SWAP3 POP POP POP JUMP JUMPDEST PUSH0 PUSH2 0x2783 PUSH2 0x277E PUSH2 0x2779 DUP5 PUSH2 0x1A97 JUMP JUMPDEST PUSH2 0x1EDB JUMP JUMPDEST PUSH2 0x1A97 JUMP JUMPDEST SWAP1 POP SWAP2 SWAP1 POP JUMP JUMPDEST PUSH0 DUP2 SWAP1 POP SWAP2 SWAP1 POP JUMP JUMPDEST PUSH2 0x279C DUP4 PUSH2 0x2769 JUMP JUMPDEST PUSH2 0x27B0 PUSH2 0x27A8 DUP3 PUSH2 0x278A JUMP JUMPDEST DUP5 DUP5 SLOAD PUSH2 0x2718 JUMP JUMPDEST DUP3 SSTORE POP POP POP POP JUMP JUMPDEST PUSH0 PUSH0 SWAP1 POP SWAP1 JUMP JUMPDEST PUSH2 0x27C7 PUSH2 0x27B8 JUMP JUMPDEST PUSH2 0x27D2 DUP2 DUP5 DUP5 PUSH2 0x2793 JUMP JUMPDEST POP POP POP JUMP JUMPDEST JUMPDEST DUP2 DUP2 LT ISZERO PUSH2 0x27F5 JUMPI PUSH2 0x27EA PUSH0 DUP3 PUSH2 0x27BF JUMP JUMPDEST PUSH1 0x1 DUP2 ADD SWAP1 POP PUSH2 0x27D8 JUMP JUMPDEST POP POP JUMP JUMPDEST PUSH1 0x1F DUP3 GT ISZERO PUSH2 0x283A JUMPI PUSH2 0x280B DUP2 PUSH2 0x26EB JUMP JUMPDEST PUSH2 0x2814 DUP5 PUSH2 0x26FD JUMP JUMPDEST DUP2 ADD PUSH1 0x20 DUP6 LT ISZERO PUSH2 0x2823 JUMPI DUP2 SWAP1 POP JUMPDEST PUSH2 0x2837 PUSH2 0x282F DUP6 PUSH2 0x26FD JUMP JUMPDEST DUP4 ADD DUP3 PUSH2 0x27D7 JUMP JUMPDEST POP POP JUMPDEST POP POP POP JUMP JUMPDEST PUSH0 DUP3 DUP3 SHR SWAP1 POP SWAP3 SWAP2 POP POP JUMP JUMPDEST PUSH0 PUSH2 0x285A PUSH0 NOT DUP5 PUSH1 0x8 MUL PUSH2 0x283F JUMP JUMPDEST NOT DUP1 DUP4 AND SWAP2 POP POP SWAP3 SWAP2 POP POP JUMP JUMPDEST PUSH0 PUSH2 0x2872 DUP4 DUP4 PUSH2 0x284B JUMP JUMPDEST SWAP2 POP DUP3 PUSH1 0x2 MUL DUP3 OR SWAP1 POP SWAP3 SWAP2 POP POP JUMP JUMPDEST PUSH2 0x288C DUP4 DUP4 PUSH2 0x26E1 JUMP JUMPDEST PUSH8 0xFFFFFFFFFFFFFFFF DUP2 GT ISZERO PUSH2 0x28A5 JUMPI PUSH2 0x28A4 PUSH2 0x1B20 JUMP JUMPDEST JUMPDEST PUSH2 0x28AF DUP3 SLOAD PUSH2 0x238A JUMP JUMPDEST PUSH2 0x28BA DUP3 DUP3 DUP6 PUSH2 0x27F9 JUMP JUMPDEST PUSH0 PUSH1 0x1F DUP4 GT PUSH1 0x1 DUP2 EQ PUSH2 0x28E7 JUMPI PUSH0 DUP5 ISZERO PUSH2 0x28D5 JUMPI DUP3 DUP8 ADD CALLDATALOAD SWAP1 POP JUMPDEST PUSH2 0x28DF DUP6 DUP3 PUSH2 0x2867 JUMP JUMPDEST DUP7 SSTORE POP PUSH2 0x2946 JUMP JUMPDEST PUSH1 0x1F NOT DUP5 AND PUSH2 0x28F5 DUP7 PUSH2 0x26EB JUMP JUMPDEST PUSH0 JUMPDEST DUP3 DUP2 LT ISZERO PUSH2 0x291C JUMPI DUP5 DUP10 ADD CALLDATALOAD DUP3 SSTORE PUSH1 0x1 DUP3 ADD SWAP2 POP PUSH1 0x20 DUP6 ADD SWAP5 POP PUSH1 0x20 DUP2 ADD SWAP1 POP PUSH2 0x28F7 JUMP JUMPDEST DUP7 DUP4 LT ISZERO PUSH2 0x2939 JUMPI DUP5 DUP10 ADD CALLDATALOAD PUSH2 0x2935 PUSH1 0x1F DUP10 AND DUP3 PUSH2 0x284B JUMP JUMPDEST DUP4 SSTORE POP JUMPDEST PUSH1 0x1 PUSH1 0x2 DUP9 MUL ADD DUP9 SSTORE POP POP POP JUMPDEST POP POP POP POP POP POP POP JUMP JUMPDEST PUSH2 0x295A DUP4 DUP4 DUP4 PUSH2 0x2882 JUMP JUMPDEST POP POP POP JUMP JUMPDEST PUSH0 DUP2 SWAP1 POP SWAP2 SWAP1 POP JUMP JUMPDEST PUSH0 DUP2 SLOAD SWAP1 POP SWAP2 SWAP1 POP JUMP JUMPDEST PUSH0 DUP2 SWAP1 POP PUSH1 0x1 DUP1 PUSH1 0x1 SUB DUP4 ADD DIV SWAP1 POP SWAP2 SWAP1 POP JUMP JUMPDEST PUSH0 DUP2 SWAP1 POP DUP2 PUSH0 MSTORE PUSH1 0x20 PUSH0 KECCAK256 SWAP1 POP SWAP2 SWAP1 POP JUMP JUMPDEST PUSH0 PUSH0 DUP3 ADD SSTORE POP JUMP JUMPDEST PUSH0 DUP3 EQ PUSH2 0x29B0 JUMPI PUSH2 0x29AF PUSH2 0x26B5 JUMP JUMPDEST JUMPDEST PUSH2 0x29B9 DUP2 PUSH2 0x2998 JUMP JUMPDEST POP POP JUMP JUMPDEST JUMPDEST DUP2 DUP2 LT ISZERO PUSH2 0x29DB JUMPI PUSH2 0x29D0 PUSH0 DUP3 PUSH2 0x29A0 JUMP JUMPDEST PUSH1 0x1 DUP2 ADD SWAP1 POP PUSH2 0x29BE JUMP JUMPDEST POP POP JUMP JUMPDEST DUP2 DUP4 LT ISZERO PUSH2 0x2A18 JUMPI PUSH2 0x29F0 DUP3 PUSH2 0x2972 JUMP JUMPDEST PUSH2 0x29F9 DUP5 PUSH2 0x2972 JUMP JUMPDEST PUSH2 0x2A02 DUP4 PUSH2 0x2986 JUMP JUMPDEST DUP2 DUP2 ADD DUP4 DUP3 ADD PUSH2 0x2A12 DUP2 DUP4 PUSH2 0x29BD JUMP JUMPDEST POP POP POP POP POP JUMPDEST POP POP POP JUMP JUMPDEST PUSH9 0x10000000000000000 DUP3 GT ISZERO PUSH2 0x2A37 JUMPI PUSH2 0x2A36 PUSH2 0x1B20 JUMP JUMPDEST JUMPDEST PUSH2 0x2A40 DUP2 PUSH2 0x2968 JUMP JUMPDEST DUP3 DUP3 SSTORE PUSH2 0x2A4E DUP4 DUP3 DUP5 PUSH2 0x29DF JUMP JUMPDEST POP POP POP JUMP JUMPDEST PUSH0 DUP3 SWAP1 POP SWAP3 SWAP2 POP POP JUMP JUMPDEST PUSH0 DUP2 CALLDATALOAD PUSH2 0x2A69 DUP2 PUSH2 0x1F4F JUMP JUMPDEST DUP1 SWAP2 POP POP SWAP2 SWAP1 POP JUMP JUMPDEST PUSH0 DUP2 PUSH0 SHL SWAP1 POP SWAP2 SWAP1 POP JUMP JUMPDEST PUSH0 PUSH20 0xFFFFFFFFFFFFFFFFFFFFFFFFFFFFFFFFFFFFFFFF PUSH2 0x2A9C DUP5 PUSH2 0x2A72 JUMP JUMPDEST SWAP4 POP DUP1 NOT DUP4 AND SWAP3 POP DUP1 DUP5 AND DUP4 OR SWAP2 POP POP SWAP3 SWAP2 POP POP JUMP JUMPDEST PUSH0 PUSH2 0x2ABC DUP3 PUSH2 0x1F05 JUMP JUMPDEST SWAP1 POP SWAP2 SWAP1 POP JUMP JUMPDEST PUSH0 DUP2 SWAP1 POP SWAP2 SWAP1 POP JUMP JUMPDEST PUSH2 0x2AD5 DUP3 PUSH2 0x2AB2 JUMP JUMPDEST PUSH2 0x2AE8 PUSH2 0x2AE1 DUP3 PUSH2 0x2AC3 JUMP JUMPDEST DUP4 SLOAD PUSH2 0x2A7D JUMP JUMPDEST DUP3 SSTORE POP POP POP JUMP JUMPDEST PUSH2 0x2AF8 DUP2 PUSH2 0x1D4E JUMP JUMPDEST DUP2 EQ PUSH2 0x2B02 JUMPI PUSH0 PUSH0 REVERT JUMPDEST POP JUMP JUMPDEST PUSH0 DUP2 CALLDATALOAD PUSH2 0x2B11 DUP2 PUSH2 0x2AEF JUMP JUMPDEST DUP1 SWAP2 POP POP SWAP2 SWAP1 POP JUMP JUMPDEST PUSH0 DUP2 PUSH1 0xA0 SHL SWAP1 POP SWAP2 SWAP1 POP JUMP JUMPDEST PUSH0 PUSH22 0xFFFF0000000000000000000000000000000000000000 PUSH2 0x2B47 DUP5 PUSH2 0x2B1A JUMP JUMPDEST SWAP4 POP DUP1 NOT DUP4 AND SWAP3 POP DUP1 DUP5 AND DUP4 OR SWAP2 POP POP SWAP3 SWAP2 POP POP JUMP JUMPDEST PUSH0 PUSH2 0x2B77 PUSH2 0x2B72 PUSH2 0x2B6D DUP5 PUSH2 0x1D4E JUMP JUMPDEST PUSH2 0x1EDB JUMP JUMPDEST PUSH2 0x1D4E JUMP JUMPDEST SWAP1 POP SWAP2 SWAP1 POP JUMP JUMPDEST PUSH0 DUP2 SWAP1 POP SWAP2 SWAP1 POP JUMP JUMPDEST PUSH2 0x2B90 DUP3 PUSH2 0x2B5D JUMP JUMPDEST PUSH2 0x2BA3 PUSH2 0x2B9C DUP3 PUSH2 0x2B7E JUMP JUMPDEST DUP4 SLOAD PUSH2 0x2B26 JUMP JUMPDEST DUP3 SSTORE POP POP POP JUMP JUMPDEST PUSH0 DUP2 ADD PUSH0 DUP4 ADD DUP1 PUSH2 0x2BBA DUP2 PUSH2 0x2A5D JUMP JUMPDEST SWAP1 POP PUSH2 0x2BC6 DUP2 DUP5 PUSH2 0x2ACC JUMP JUMPDEST POP POP POP PUSH0 DUP2 ADD PUSH1 0x20 DUP4 ADD DUP1 PUSH2 0x2BDA DUP2 PUSH2 0x2B05 JUMP JUMPDEST SWAP1 POP PUSH2 0x2BE6 DUP2 DUP5 PUSH2 0x2B87 JUMP JUMPDEST POP POP POP POP POP JUMP JUMPDEST PUSH2 0x2BF7 DUP3 DUP3 PUSH2 0x2BAA JUMP JUMPDEST POP POP JUMP JUMPDEST PUSH2 0x2C05 DUP4 DUP4 PUSH2 0x2A53 JUMP JUMPDEST PUSH2 0x2C0F DUP2 DUP4 PUSH2 0x2A1D JUMP JUMPDEST PUSH2 0x2C18 DUP4 PUSH2 0x295F JUMP JUMPDEST PUSH2 0x2C21 DUP4 PUSH2 0x2986 JUMP JUMPDEST PUSH0 JUMPDEST DUP4 DUP2 LT ISZERO PUSH2 0x2C4E JUMPI DUP3 PUSH2 0x2C36 DUP2 DUP5 PUSH2 0x2BED JUMP JUMPDEST PUSH1 0x40 DUP5 ADD SWAP4 POP PUSH1 0x1 DUP4 ADD SWAP3 POP POP PUSH1 0x1 DUP2 ADD SWAP1 POP PUSH2 0x2C23 JUMP JUMPDEST POP POP POP POP POP POP POP JUMP JUMPDEST PUSH2 0x2C62 DUP4 DUP4 DUP4 PUSH2 0x2BFB JUMP JUMPDEST POP POP POP JUMP JUMPDEST PUSH0 DUP2 ADD PUSH0 DUP4 ADD PUSH2 0x2C77 DUP2 DUP6 PUSH2 0x23C6 JUMP JUMPDEST PUSH2 0x2C82 DUP2 DUP4 DUP7 PUSH2 0x294F JUMP JUMPDEST POP POP POP POP PUSH1 0x1 DUP2 ADD PUSH1 0x20 DUP4 ADD PUSH2 0x2C98 DUP2 DUP6 PUSH2 0x23C6 JUMP JUMPDEST PUSH2 0x2CA3 DUP2 DUP4 DUP7 PUSH2 0x294F JUMP JUMPDEST POP POP POP POP PUSH1 0x2 DUP2 ADD PUSH1 0x40 DUP4 ADD PUSH2 0x2CB9 DUP2 DUP6 PUSH2 0x2653 JUMP JUMPDEST PUSH2 0x2CC4 DUP2 DUP4 DUP7 PUSH2 0x2C57 JUMP JUMPDEST POP POP POP POP POP POP JUMP JUMPDEST PUSH2 0x2CD6 DUP3 DUP3 PUSH2 0x2C67 JUMP JUMPDEST POP POP JUMP JUMPDEST PUSH0 DUP2 CALLDATALOAD SWAP1 POP PUSH2 0x2CE8 DUP2 PUSH2 0x2AEF JUMP JUMPDEST SWAP3 SWAP2 POP POP JUMP JUMPDEST PUSH0 PUSH1 0x20 DUP3 DUP5 SUB SLT ISZERO PUSH2 0x2D03 JUMPI PUSH2 0x2D02 PUSH2 0x1A8F JUMP JUMPDEST JUMPDEST PUSH0 PUSH2 0x2D10 DUP5 DUP3 DUP6 ADD PUSH2 0x2CDA JUMP JUMPDEST SWAP2 POP POP SWAP3 SWAP2 POP POP JUMP JUMPDEST PUSH0 PUSH0 REVERT JUMPDEST PUSH0 PUSH3 0xFFFFFF DUP3 AND SWAP1 POP SWAP2 SWAP1 POP JUMP JUMPDEST PUSH2 0x2D34 DUP2 PUSH2 0x2D1D JUMP JUMPDEST DUP2 EQ PUSH2 0x2D3E JUMPI PUSH0 PUSH0 REVERT JUMPDEST POP JUMP JUMPDEST PUSH0 DUP2 MLOAD SWAP1 POP PUSH2 0x2D4F DUP2 PUSH2 0x2D2B JUMP JUMPDEST SWAP3 SWAP2 POP POP JUMP JUMPDEST PUSH0 PUSH1 0xFF DUP3 AND SWAP1 POP SWAP2 SWAP1 POP JUMP JUMPDEST PUSH2 0x2D6A DUP2 PUSH2 0x2D55 JUMP JUMPDEST DUP2 EQ PUSH2 0x2D74 JUMPI PUSH0 PUSH0 REVERT JUMPDEST POP JUMP JUMPDEST PUSH0 DUP2 MLOAD SWAP1 POP PUSH2 0x2D85 DUP2 PUSH2 0x2D61 JUMP JUMPDEST SWAP3 SWAP2 POP POP JUMP JUMPDEST PUSH0 PUSH8 0xFFFFFFFFFFFFFFFF DUP3 AND SWAP1 POP SWAP2 SWAP1 POP JUMP JUMPDEST PUSH2 0x2DA7 DUP2 PUSH2 0x2D8B JUMP JUMPDEST DUP2 EQ PUSH2 0x2DB1 JUMPI PUSH0 PUSH0 REVERT JUMPDEST POP JUMP JUMPDEST PUSH0 DUP2 MLOAD SWAP1 POP PUSH2 0x2DC2 DUP2 PUSH2 0x2D9E JUMP JUMPDEST SWAP3 SWAP2 POP POP JUMP JUMPDEST PUSH0 PUSH1 0x80 DUP3 DUP5 SUB SLT ISZERO PUSH2 0x2DDD JUMPI PUSH2 0x2DDC PUSH2 0x2D19 JUMP JUMPDEST JUMPDEST PUSH2 0x2DE7 PUSH1 0x80 PUSH2 0x1B7E JUMP JUMPDEST SWAP1 POP PUSH0 PUSH2 0x2DF6 DUP5 DUP3 DUP6 ADD PUSH2 0x2289 JUMP JUMPDEST PUSH0 DUP4 ADD MSTORE POP PUSH1 0x20 PUSH2 0x2E09 DUP5 DUP3 DUP6 ADD PUSH2 0x2D41 JUMP JUMPDEST PUSH1 0x20 DUP4 ADD MSTORE POP PUSH1 0x40 PUSH2 0x2E1D DUP5 DUP3 DUP6 ADD PUSH2 0x2D77 JUMP JUMPDEST PUSH1 0x40 DUP4 ADD MSTORE POP PUSH1 0x60 PUSH2 0x2E31 DUP5 DUP3 DUP6 ADD PUSH2 0x2DB4 JUMP JUMPDEST PUSH1 0x60 DUP4 ADD MSTORE POP SWAP3 SWAP2 POP POP JUMP JUMPDEST PUSH0 PUSH1 0x80 DUP3 DUP5 SUB SLT ISZERO PUSH2 0x2E52 JUMPI PUSH2 0x2E51 PUSH2 0x1A8F JUMP JUMPDEST JUMPDEST PUSH0 PUSH2 0x2E5F DUP5 DUP3 DUP6 ADD PUSH2 0x2DC8 JUMP JUMPDEST SWAP2 POP POP SWAP3 SWAP2 POP POP JUMP JUMPDEST PUSH0 PUSH1 0x40 DUP3 DUP5 SUB SLT ISZERO PUSH2 0x2E7D JUMPI PUSH2 0x2E7C PUSH2 0x2D19 JUMP JUMPDEST JUMPDEST PUSH2 0x2E87 PUSH1 0x40 PUSH2 0x1B7E JUMP JUMPDEST SWAP1 POP PUSH0 PUSH2 0x2E96 DUP5 DUP3 DUP6 ADD PUSH2 0x1F65 JUMP JUMPDEST PUSH0 DUP4 ADD MSTORE POP PUSH1 0x20 PUSH2 0x2EA9 DUP5 DUP3 DUP6 ADD PUSH2 0x2CDA JUMP JUMPDEST PUSH1 0x20 DUP4 ADD MSTORE POP SWAP3 SWAP2 POP POP JUMP JUMPDEST PUSH0 PUSH1 0x40 DUP3 DUP5 SUB SLT ISZERO PUSH2 0x2ECA JUMPI PUSH2 0x2EC9 PUSH2 0x1A8F JUMP JUMPDEST JUMPDEST PUSH0 PUSH2 0x2ED7 DUP5 DUP3 DUP6 ADD PUSH2 0x2E68 JUMP JUMPDEST SWAP2 POP POP SWAP3 SWAP2 POP POP JUMP JUMPDEST PUSH0 DUP2 SWAP1 POP SWAP3 SWAP2 POP POP JUMP JUMPDEST PUSH0 PUSH2 0x2EF5 DUP4 DUP6 PUSH2 0x2EE0 JUMP JUMPDEST SWAP4 POP PUSH2 0x2F02 DUP4 DUP6 DUP5 PUSH2 0x1BC8 JUMP JUMPDEST DUP3 DUP5 ADD SWAP1 POP SWAP4 SWAP3 POP POP POP JUMP JUMPDEST PUSH0 PUSH2 0x2F1A DUP3 DUP5 DUP7 PUSH2 0x2EEA JUMP JUMPDEST SWAP2 POP DUP2 SWAP1 POP SWAP4 SWAP3 POP POP POP JUMP JUMPDEST PUSH0 DUP3 DUP3 MSTORE PUSH1 0x20 DUP3 ADD SWAP1 POP SWAP3 SWAP2 POP POP JUMP JUMPDEST PUSH0 PUSH2 0x2F40 DUP3 PUSH2 0x1D16 JUMP JUMPDEST PUSH2 0x2F4A DUP2 DUP6 PUSH2 0x2F26 JUMP JUMPDEST SWAP4 POP PUSH2 0x2F55 DUP4 PUSH2 0x1D30 JUMP JUMPDEST DUP1 PUSH0 JUMPDEST DUP4 DUP2 LT ISZERO PUSH2 0x2F85 JUMPI DUP2 MLOAD PUSH2 0x2F6C DUP9 DUP3 PUSH2 0x1D97 JUMP JUMPDEST SWAP8 POP PUSH2 0x2F77 DUP4 PUSH2 0x1DAE JUMP JUMPDEST SWAP3 POP POP PUSH1 0x1 DUP2 ADD SWAP1 POP PUSH2 0x2F58 JUMP JUMPDEST POP DUP6 SWAP4 POP POP POP POP SWAP3 SWAP2 POP POP JUMP JUMPDEST PUSH0 PUSH1 0x20 DUP3 ADD SWAP1 POP DUP2 DUP2 SUB PUSH0 DUP4 ADD MSTORE PUSH2 0x2FAA DUP2 DUP5 PUSH2 0x2F36 JUMP JUMPDEST SWAP1 POP SWAP3 SWAP2 POP POP JUMP INVALID LOG2 PUSH5 0x6970667358 0x22 SLT KECCAK256 0xBB 0xC6 PUSH14 0xB8B1912C71C663CB73498E24EF8 0xF7 0xB0 SDIV 0xEA CALLER 0xB4 0xDC 0xA6 0xBD 0xD 0xC4 0xC5 DUP1 0xDB INVALID PUSH5 0x736F6C6343 STOP ADDMOD 0x1E STOP CALLER "
				},
				"gasEstimates": {
					"creation": {
						"codeDepositCost": "2452800",
						"executionCost": "infinite",
						"totalCost": "infinite"
					},
					"external": {
						"Directory()": "infinite",
						"WETH_ADDRESS()": "infinite",
						"changeDirectoryAddress(address)": "infinite",
						"createEtf((string,string,(address,uint16)[]))": "infinite",
						"fetchFromDirectory(string)": "infinite",
						"getEtfById(uint256)": "infinite",
						"getEtfByIdAndAddresses(uint256)": "infinite",
						"getEtfByIdAndVault(uint256)": "infinite",
						"getEtfTokenAddress(uint256)": "2952",
						"getEtfTotalVolume(uint256)": "infinite",
						"getEtfVaultAddress(uint256)": "2975",
						"owner()": "infinite",
						"updateEtfVolume(uint256,uint256)": "infinite"
					}
				},
				"methodIdentifiers": {
					"Directory()": "658a847a",
					"WETH_ADDRESS()": "040141e5",
					"changeDirectoryAddress(address)": "ba4c7be1",
					"createEtf((string,string,(address,uint16)[]))": "fc0121d4",
					"fetchFromDirectory(string)": "27262618",
					"getEtfById(uint256)": "ecb0271c",
					"getEtfByIdAndAddresses(uint256)": "61668690",
					"getEtfByIdAndVault(uint256)": "3088f069",
					"getEtfTokenAddress(uint256)": "f2018a1f",
					"getEtfTotalVolume(uint256)": "c45f0607",
					"getEtfVaultAddress(uint256)": "3ee79962",
					"owner()": "8da5cb5b",
					"updateEtfVolume(uint256,uint256)": "1626542c"
				}
			},
			"storageLayout": {
				"storage": [
					{
						"astId": 268,
						"contract": "hopium/etf/main/etf-factory.sol:EtfFactory",
						"label": "createdEtfs",
						"offset": 0,
						"slot": "0",
						"type": "t_array(t_struct(Etf)1067_storage)dyn_storage"
					},
					{
						"astId": 272,
						"contract": "hopium/etf/main/etf-factory.sol:EtfFactory",
						"label": "etfTickerHashToId",
						"offset": 0,
						"slot": "1",
						"type": "t_mapping(t_bytes32,t_uint256)"
					},
					{
						"astId": 276,
						"contract": "hopium/etf/main/etf-factory.sol:EtfFactory",
						"label": "etfAssetsHashToId",
						"offset": 0,
						"slot": "2",
						"type": "t_mapping(t_bytes32,t_uint256)"
					},
					{
						"astId": 280,
						"contract": "hopium/etf/main/etf-factory.sol:EtfFactory",
						"label": "etfIdToEtfTokens",
						"offset": 0,
						"slot": "3",
						"type": "t_mapping(t_uint256,t_address)"
					},
					{
						"astId": 284,
						"contract": "hopium/etf/main/etf-factory.sol:EtfFactory",
						"label": "etfIdToEtfVaults",
						"offset": 0,
						"slot": "4",
						"type": "t_mapping(t_uint256,t_address)"
					},
					{
						"astId": 288,
						"contract": "hopium/etf/main/etf-factory.sol:EtfFactory",
						"label": "etfIdToTotalVolumeWeth",
						"offset": 0,
						"slot": "5",
						"type": "t_mapping(t_uint256,t_uint256)"
					},
					{
						"astId": 292,
						"contract": "hopium/etf/main/etf-factory.sol:EtfFactory",
						"label": "etfIdToTotalVolumeUsd",
						"offset": 0,
						"slot": "6",
						"type": "t_mapping(t_uint256,t_uint256)"
					},
					{
						"astId": 18,
						"contract": "hopium/etf/main/etf-factory.sol:EtfFactory",
						"label": "Directory",
						"offset": 0,
						"slot": "7",
						"type": "t_contract(IDirectory)15"
					}
				],
				"types": {
					"t_address": {
						"encoding": "inplace",
						"label": "address",
						"numberOfBytes": "20"
					},
					"t_array(t_struct(Asset)1058_storage)dyn_storage": {
						"base": "t_struct(Asset)1058_storage",
						"encoding": "dynamic_array",
						"label": "struct Asset[]",
						"numberOfBytes": "32"
					},
					"t_array(t_struct(Etf)1067_storage)dyn_storage": {
						"base": "t_struct(Etf)1067_storage",
						"encoding": "dynamic_array",
						"label": "struct Etf[]",
						"numberOfBytes": "32"
					},
					"t_bytes32": {
						"encoding": "inplace",
						"label": "bytes32",
						"numberOfBytes": "32"
					},
					"t_contract(IDirectory)15": {
						"encoding": "inplace",
						"label": "contract IDirectory",
						"numberOfBytes": "20"
					},
					"t_mapping(t_bytes32,t_uint256)": {
						"encoding": "mapping",
						"key": "t_bytes32",
						"label": "mapping(bytes32 => uint256)",
						"numberOfBytes": "32",
						"value": "t_uint256"
					},
					"t_mapping(t_uint256,t_address)": {
						"encoding": "mapping",
						"key": "t_uint256",
						"label": "mapping(uint256 => address)",
						"numberOfBytes": "32",
						"value": "t_address"
					},
					"t_mapping(t_uint256,t_uint256)": {
						"encoding": "mapping",
						"key": "t_uint256",
						"label": "mapping(uint256 => uint256)",
						"numberOfBytes": "32",
						"value": "t_uint256"
					},
					"t_string_storage": {
						"encoding": "bytes",
						"label": "string",
						"numberOfBytes": "32"
					},
					"t_struct(Asset)1058_storage": {
						"encoding": "inplace",
						"label": "struct Asset",
						"members": [
							{
								"astId": 1055,
								"contract": "hopium/etf/main/etf-factory.sol:EtfFactory",
								"label": "tokenAddress",
								"offset": 0,
								"slot": "0",
								"type": "t_address"
							},
							{
								"astId": 1057,
								"contract": "hopium/etf/main/etf-factory.sol:EtfFactory",
								"label": "weightBips",
								"offset": 20,
								"slot": "0",
								"type": "t_uint16"
							}
						],
						"numberOfBytes": "32"
					},
					"t_struct(Etf)1067_storage": {
						"encoding": "inplace",
						"label": "struct Etf",
						"members": [
							{
								"astId": 1060,
								"contract": "hopium/etf/main/etf-factory.sol:EtfFactory",
								"label": "name",
								"offset": 0,
								"slot": "0",
								"type": "t_string_storage"
							},
							{
								"astId": 1062,
								"contract": "hopium/etf/main/etf-factory.sol:EtfFactory",
								"label": "ticker",
								"offset": 0,
								"slot": "1",
								"type": "t_string_storage"
							},
							{
								"astId": 1066,
								"contract": "hopium/etf/main/etf-factory.sol:EtfFactory",
								"label": "assets",
								"offset": 0,
								"slot": "2",
								"type": "t_array(t_struct(Asset)1058_storage)dyn_storage"
							}
						],
						"numberOfBytes": "96"
					},
					"t_uint16": {
						"encoding": "inplace",
						"label": "uint16",
						"numberOfBytes": "2"
					},
					"t_uint256": {
						"encoding": "inplace",
						"label": "uint256",
						"numberOfBytes": "32"
					}
				}
			},
			"userdoc": {
				"kind": "user",
				"methods": {},
				"version": 1
			}
		}
	}
}