{
	"hopium/etf/main/etf-router.sol": {
		"EtfRouter": {
			"abi": [
				{
					"inputs": [
						{
							"internalType": "address",
							"name": "_directory",
							"type": "address"
						}
					],
					"stateMutability": "nonpayable",
					"type": "constructor"
				},
				{
					"inputs": [],
					"name": "ETHSendFailed",
					"type": "error"
				},
				{
					"inputs": [],
					"name": "InsufficientETH",
					"type": "error"
				},
				{
					"inputs": [],
					"name": "InvalidBips",
					"type": "error"
				},
				{
					"inputs": [],
					"name": "NothingToWithdraw",
					"type": "error"
				},
				{
					"inputs": [],
					"name": "RedeemTooLarge",
					"type": "error"
				},
				{
					"inputs": [],
					"name": "SupplyZero",
					"type": "error"
				},
				{
					"inputs": [],
					"name": "ZeroAmount",
					"type": "error"
				},
				{
					"inputs": [],
					"name": "ZeroIndexPrice",
					"type": "error"
				},
				{
					"inputs": [],
					"name": "ZeroMsgValue",
					"type": "error"
				},
				{
					"inputs": [],
					"name": "ZeroNav",
					"type": "error"
				},
				{
					"inputs": [],
					"name": "ZeroReceiver",
					"type": "error"
				},
				{
					"anonymous": false,
					"inputs": [
						{
							"indexed": false,
							"internalType": "uint256",
							"name": "indexId",
							"type": "uint256"
						},
						{
							"indexed": false,
							"internalType": "address",
							"name": "caller",
							"type": "address"
						},
						{
							"indexed": false,
							"internalType": "address",
							"name": "receiver",
							"type": "address"
						},
						{
							"indexed": false,
							"internalType": "uint256",
							"name": "etfTokenAmount",
							"type": "uint256"
						},
						{
							"indexed": false,
							"internalType": "uint256",
							"name": "ethAmount",
							"type": "uint256"
						}
					],
					"name": "EtfTokensMinted",
					"type": "event"
				},
				{
					"anonymous": false,
					"inputs": [
						{
							"indexed": false,
							"internalType": "uint256",
							"name": "indexId",
							"type": "uint256"
						},
						{
							"indexed": false,
							"internalType": "address",
							"name": "caller",
							"type": "address"
						},
						{
							"indexed": false,
							"internalType": "address",
							"name": "receiver",
							"type": "address"
						},
						{
							"indexed": false,
							"internalType": "uint256",
							"name": "etfTokenAmount",
							"type": "uint256"
						},
						{
							"indexed": false,
							"internalType": "uint256",
							"name": "ethAmount",
							"type": "uint256"
						}
					],
					"name": "EtfTokensRedeemed",
					"type": "event"
				},
				{
					"inputs": [],
					"name": "DEFAULT_SLIPPAGE_BIPS",
					"outputs": [
						{
							"internalType": "uint32",
							"name": "",
							"type": "uint32"
						}
					],
					"stateMutability": "view",
					"type": "function"
				},
				{
					"inputs": [],
					"name": "Directory",
					"outputs": [
						{
							"internalType": "contract IDirectory",
							"name": "",
							"type": "address"
						}
					],
					"stateMutability": "view",
					"type": "function"
				},
				{
					"inputs": [
						{
							"internalType": "uint32",
							"name": "newSlippageBips",
							"type": "uint32"
						}
					],
					"name": "changeDefaultSlippage",
					"outputs": [],
					"stateMutability": "nonpayable",
					"type": "function"
				},
				{
					"inputs": [
						{
							"internalType": "address",
							"name": "_directory",
							"type": "address"
						}
					],
					"name": "changeDirectoryAddress",
					"outputs": [],
					"stateMutability": "nonpayable",
					"type": "function"
				},
				{
					"inputs": [
						{
							"internalType": "uint16",
							"name": "newFee",
							"type": "uint16"
						}
					],
					"name": "changePlatformFee",
					"outputs": [],
					"stateMutability": "nonpayable",
					"type": "function"
				},
				{
					"inputs": [
						{
							"internalType": "string",
							"name": "_key",
							"type": "string"
						}
					],
					"name": "fetchFromDirectory",
					"outputs": [
						{
							"internalType": "address",
							"name": "",
							"type": "address"
						}
					],
					"stateMutability": "view",
					"type": "function"
				},
				{
					"inputs": [],
					"name": "isActive",
					"outputs": [
						{
							"internalType": "bool",
							"name": "",
							"type": "bool"
						}
					],
					"stateMutability": "view",
					"type": "function"
				},
				{
					"inputs": [
						{
							"internalType": "uint256",
							"name": "indexId",
							"type": "uint256"
						},
						{
							"internalType": "address",
							"name": "receiver",
							"type": "address"
						}
					],
					"name": "mintEtfTokens",
					"outputs": [],
					"stateMutability": "payable",
					"type": "function"
				},
				{
					"inputs": [],
					"name": "owner",
					"outputs": [
						{
							"internalType": "address",
							"name": "",
							"type": "address"
						}
					],
					"stateMutability": "view",
					"type": "function"
				},
				{
					"inputs": [],
					"name": "platformFee",
					"outputs": [
						{
							"internalType": "uint16",
							"name": "",
							"type": "uint16"
						}
					],
					"stateMutability": "view",
					"type": "function"
				},
				{
					"inputs": [
						{
							"internalType": "address",
							"name": "tokenAddress",
							"type": "address"
						},
						{
							"internalType": "address",
							"name": "toAddress",
							"type": "address"
						}
					],
					"name": "recoverAsset",
					"outputs": [],
					"stateMutability": "nonpayable",
					"type": "function"
				},
				{
					"inputs": [
						{
							"internalType": "uint256",
							"name": "indexId",
							"type": "uint256"
						},
						{
							"internalType": "uint256",
							"name": "etfTokenAmount",
							"type": "uint256"
						},
						{
							"internalType": "address payable",
							"name": "receiver",
							"type": "address"
						}
					],
					"name": "redeemEtfTokens",
					"outputs": [],
					"stateMutability": "nonpayable",
					"type": "function"
				},
				{
					"inputs": [
						{
							"internalType": "bool",
							"name": "_active",
							"type": "bool"
						}
					],
					"name": "setActive",
					"outputs": [],
					"stateMutability": "nonpayable",
					"type": "function"
				},
				{
					"stateMutability": "payable",
					"type": "receive"
				}
			],
			"devdoc": {
				"kind": "dev",
				"methods": {},
				"version": 1
			},
			"evm": {
				"assembly": "    /* \"hopium/etf/main/etf-router.sol\":6137:9668  contract EtfRouter is ImDirectory, ImIndexFactory, ReentrancyGuard, Helpers, ImActive {... */\n  mstore(0x40, 0x80)\n    /* \"hopium/etf/main/etf-router.sol\":970:972  25 */\n  0x19\n    /* \"hopium/etf/main/etf-router.sol\":942:972  uint16 public platformFee = 25 */\n  0x02\n  exp(0x0100, 0x00)\n  dup2\n  sload\n  dup2\n  0xffff\n  mul\n  not\n  and\n  swap1\n  dup4\n  0xffff\n  and\n  mul\n  or\n  swap1\n  sstore\n  pop\n    /* \"hopium/common/interface/imActive.sol\":179:183  true */\n  0x01\n    /* \"hopium/common/interface/imActive.sol\":156:183  bool public isActive = true */\n  0x02\n  dup1\n  0x0100\n  exp\n  dup2\n  sload\n  dup2\n  0xff\n  mul\n  not\n  and\n  swap1\n  dup4\n  iszero\n  iszero\n  mul\n  or\n  swap1\n  sstore\n  pop\n    /* \"hopium/etf/main/etf-router.sol\":6331:6334  300 */\n  0x012c\n    /* \"hopium/etf/main/etf-router.sol\":6293:6334  uint32 public DEFAULT_SLIPPAGE_BIPS = 300 */\n  0x02\n  exp(0x0100, 0x03)\n  dup2\n  sload\n  dup2\n  0xffffffff\n  mul\n  not\n  and\n  swap1\n  dup4\n  0xffffffff\n  and\n  mul\n  or\n  swap1\n  sstore\n  pop\n    /* \"hopium/etf/main/etf-router.sol\":6229:6287  constructor(address _directory) ImDirectory(_directory) {} */\n  callvalue\n  dup1\n  iszero\n  tag_1\n  jumpi\n  revert(0x00, 0x00)\ntag_1:\n  pop\n  mload(0x40)\n  sub(codesize, bytecodeSize)\n  dup1\n  bytecodeSize\n  dup4\n  codecopy\n  dup2\n  dup2\n  add\n  0x40\n  mstore\n  dup2\n  add\n  swap1\n  tag_2\n  swap2\n  swap1\n  tag_3\n  jump\t// in\ntag_2:\n    /* \"hopium/etf/main/etf-router.sol\":6273:6283  _directory */\n  dup1\n    /* \"hopium/common/interface/imDirectory.sol\":412:437  _setDirectory(_directory) */\n  tag_8\n    /* \"hopium/common/interface/imDirectory.sol\":426:436  _directory */\n  dup2\n    /* \"hopium/common/interface/imDirectory.sol\":412:425  _setDirectory */\n  shl(0x20, tag_9)\n    /* \"hopium/common/interface/imDirectory.sol\":412:437  _setDirectory(_directory) */\n  0x20\n  shr\n  jump\t// in\ntag_8:\n    /* \"hopium/common/interface/imDirectory.sol\":370:464  constructor(address _directory) {... */\n  pop\n    /* \"@openzeppelin/contracts/security/ReentrancyGuard.sol\":1716:1717  1 */\n  0x01\n    /* \"@openzeppelin/contracts/security/ReentrancyGuard.sol\":1821:1828  _status */\n  dup1\n    /* \"@openzeppelin/contracts/security/ReentrancyGuard.sol\":1821:1843  _status = _NOT_ENTERED */\n  dup2\n  swap1\n  sstore\n  pop\n    /* \"hopium/etf/main/etf-router.sol\":6229:6287  constructor(address _directory) ImDirectory(_directory) {} */\n  pop\n    /* \"hopium/etf/main/etf-router.sol\":6137:9668  contract EtfRouter is ImDirectory, ImIndexFactory, ReentrancyGuard, Helpers, ImActive {... */\n  jump(tag_12)\n    /* \"hopium/common/interface/imDirectory.sol\":589:1050  function _setDirectory(address _directory) internal {... */\ntag_9:\n    /* \"hopium/common/interface/imDirectory.sol\":681:682  0 */\n  0x00\n    /* \"hopium/common/interface/imDirectory.sol\":659:683  _directory != address(0) */\n  0xffffffffffffffffffffffffffffffffffffffff\n  and\n    /* \"hopium/common/interface/imDirectory.sol\":659:669  _directory */\n  dup2\n    /* \"hopium/common/interface/imDirectory.sol\":659:683  _directory != address(0) */\n  0xffffffffffffffffffffffffffffffffffffffff\n  and\n  sub\n    /* \"hopium/common/interface/imDirectory.sol\":651:720  require(_directory != address(0), \"Directory cannot be zero address\") */\n  tag_14\n  jumpi\n  mload(0x40)\n  0x08c379a000000000000000000000000000000000000000000000000000000000\n  dup2\n  mstore\n  0x04\n  add\n  tag_15\n  swap1\n  tag_16\n  jump\t// in\ntag_15:\n  mload(0x40)\n  dup1\n  swap2\n  sub\n  swap1\n  revert\ntag_14:\n    /* \"hopium/common/interface/imDirectory.sol\":763:764  0 */\n  0x00\n    /* \"hopium/common/interface/imDirectory.sol\":738:748  _directory */\n  dup2\n    /* \"hopium/common/interface/imDirectory.sol\":738:760  _directory.code.length */\n  0xffffffffffffffffffffffffffffffffffffffff\n  and\n  extcodesize\n    /* \"hopium/common/interface/imDirectory.sol\":738:764  _directory.code.length > 0 */\n  gt\n    /* \"hopium/common/interface/imDirectory.sol\":730:797  require(_directory.code.length > 0, \"Directory must be a contract\") */\n  tag_17\n  jumpi\n  mload(0x40)\n  0x08c379a000000000000000000000000000000000000000000000000000000000\n  dup2\n  mstore\n  0x04\n  add\n  tag_18\n  swap1\n  tag_19\n  jump\t// in\ntag_18:\n  mload(0x40)\n  dup1\n  swap2\n  sub\n  swap1\n  revert\ntag_17:\n    /* \"hopium/common/interface/imDirectory.sol\":861:871  _directory */\n  dup1\n    /* \"hopium/common/interface/imDirectory.sol\":850:878  IDirectory(_directory).owner */\n  0xffffffffffffffffffffffffffffffffffffffff\n  and\n  0x8da5cb5b\n    /* \"hopium/common/interface/imDirectory.sol\":850:880  IDirectory(_directory).owner() */\n  mload(0x40)\n  dup2\n  0xffffffff\n  and\n  0xe0\n  shl\n  dup2\n  mstore\n  0x04\n  add\n  0x20\n  mload(0x40)\n  dup1\n  dup4\n  sub\n  dup2\n  dup7\n  gas\n  staticcall\n  swap3\n  pop\n  pop\n  pop\n  dup1\n  iszero\n  tag_20\n  jumpi\n  pop\n  mload(0x40)\n  returndatasize\n  not(0x1f)\n  0x1f\n  dup3\n  add\n  and\n  dup3\n  add\n  dup1\n  0x40\n  mstore\n  pop\n  dup2\n  add\n  swap1\n  tag_21\n  swap2\n  swap1\n  tag_3\n  jump\t// in\ntag_21:\n  0x01\ntag_20:\n    /* \"hopium/common/interface/imDirectory.sol\":846:1044  try IDirectory(_directory).owner() returns (address) {... */\n  tag_22\n  jumpi\n    /* \"hopium/common/interface/imDirectory.sol\":979:1033  revert(\"Directory address does not implement owner()\") */\n  mload(0x40)\n  0x08c379a000000000000000000000000000000000000000000000000000000000\n  dup2\n  mstore\n  0x04\n  add\n  tag_26\n  swap1\n  tag_27\n  jump\t// in\ntag_26:\n  mload(0x40)\n  dup1\n  swap2\n  sub\n  swap1\n  revert\n    /* \"hopium/common/interface/imDirectory.sol\":846:1044  try IDirectory(_directory).owner() returns (address) {... */\ntag_22:\n    /* \"hopium/common/interface/imDirectory.sol\":936:946  _directory */\n  dup2\n    /* \"hopium/common/interface/imDirectory.sol\":913:922  Directory */\n  0x00\n  0x00\n    /* \"hopium/common/interface/imDirectory.sol\":913:947  Directory = IDirectory(_directory) */\n  0x0100\n  exp\n  dup2\n  sload\n  dup2\n  0xffffffffffffffffffffffffffffffffffffffff\n  mul\n  not\n  and\n  swap1\n  dup4\n  0xffffffffffffffffffffffffffffffffffffffff\n  and\n  mul\n  or\n  swap1\n  sstore\n  pop\n    /* \"hopium/common/interface/imDirectory.sol\":881:958  returns (address) {... */\n  pop\n    /* \"hopium/common/interface/imDirectory.sol\":589:1050  function _setDirectory(address _directory) internal {... */\n  pop\n  jump\t// out\n    /* \"#utility.yul\":88:205   */\ntag_30:\n    /* \"#utility.yul\":197:198   */\n  0x00\n    /* \"#utility.yul\":194:195   */\n  0x00\n    /* \"#utility.yul\":187:199   */\n  revert\n    /* \"#utility.yul\":334:460   */\ntag_32:\n    /* \"#utility.yul\":371:378   */\n  0x00\n    /* \"#utility.yul\":411:453   */\n  0xffffffffffffffffffffffffffffffffffffffff\n    /* \"#utility.yul\":404:409   */\n  dup3\n    /* \"#utility.yul\":400:454   */\n  and\n    /* \"#utility.yul\":389:454   */\n  swap1\n  pop\n    /* \"#utility.yul\":334:460   */\n  swap2\n  swap1\n  pop\n  jump\t// out\n    /* \"#utility.yul\":466:562   */\ntag_33:\n    /* \"#utility.yul\":503:510   */\n  0x00\n    /* \"#utility.yul\":532:556   */\n  tag_49\n    /* \"#utility.yul\":550:555   */\n  dup3\n    /* \"#utility.yul\":532:556   */\n  tag_32\n  jump\t// in\ntag_49:\n    /* \"#utility.yul\":521:556   */\n  swap1\n  pop\n    /* \"#utility.yul\":466:562   */\n  swap2\n  swap1\n  pop\n  jump\t// out\n    /* \"#utility.yul\":568:690   */\ntag_34:\n    /* \"#utility.yul\":641:665   */\n  tag_51\n    /* \"#utility.yul\":659:664   */\n  dup2\n    /* \"#utility.yul\":641:665   */\n  tag_33\n  jump\t// in\ntag_51:\n    /* \"#utility.yul\":634:639   */\n  dup2\n    /* \"#utility.yul\":631:666   */\n  eq\n    /* \"#utility.yul\":621:684   */\n  tag_52\n  jumpi\n    /* \"#utility.yul\":680:681   */\n  0x00\n    /* \"#utility.yul\":677:678   */\n  0x00\n    /* \"#utility.yul\":670:682   */\n  revert\n    /* \"#utility.yul\":621:684   */\ntag_52:\n    /* \"#utility.yul\":568:690   */\n  pop\n  jump\t// out\n    /* \"#utility.yul\":696:839   */\ntag_35:\n    /* \"#utility.yul\":753:758   */\n  0x00\n    /* \"#utility.yul\":784:790   */\n  dup2\n    /* \"#utility.yul\":778:791   */\n  mload\n    /* \"#utility.yul\":769:791   */\n  swap1\n  pop\n    /* \"#utility.yul\":800:833   */\n  tag_54\n    /* \"#utility.yul\":827:832   */\n  dup2\n    /* \"#utility.yul\":800:833   */\n  tag_34\n  jump\t// in\ntag_54:\n    /* \"#utility.yul\":696:839   */\n  swap3\n  swap2\n  pop\n  pop\n  jump\t// out\n    /* \"#utility.yul\":845:1196   */\ntag_3:\n    /* \"#utility.yul\":915:921   */\n  0x00\n    /* \"#utility.yul\":964:966   */\n  0x20\n    /* \"#utility.yul\":952:961   */\n  dup3\n    /* \"#utility.yul\":943:950   */\n  dup5\n    /* \"#utility.yul\":939:962   */\n  sub\n    /* \"#utility.yul\":935:967   */\n  slt\n    /* \"#utility.yul\":932:1051   */\n  iszero\n  tag_56\n  jumpi\n    /* \"#utility.yul\":970:1049   */\n  tag_57\n  tag_30\n  jump\t// in\ntag_57:\n    /* \"#utility.yul\":932:1051   */\ntag_56:\n    /* \"#utility.yul\":1090:1091   */\n  0x00\n    /* \"#utility.yul\":1115:1179   */\n  tag_58\n    /* \"#utility.yul\":1171:1178   */\n  dup5\n    /* \"#utility.yul\":1162:1168   */\n  dup3\n    /* \"#utility.yul\":1151:1160   */\n  dup6\n    /* \"#utility.yul\":1147:1169   */\n  add\n    /* \"#utility.yul\":1115:1179   */\n  tag_35\n  jump\t// in\ntag_58:\n    /* \"#utility.yul\":1105:1179   */\n  swap2\n  pop\n    /* \"#utility.yul\":1061:1189   */\n  pop\n    /* \"#utility.yul\":845:1196   */\n  swap3\n  swap2\n  pop\n  pop\n  jump\t// out\n    /* \"#utility.yul\":1202:1371   */\ntag_36:\n    /* \"#utility.yul\":1286:1297   */\n  0x00\n    /* \"#utility.yul\":1320:1326   */\n  dup3\n    /* \"#utility.yul\":1315:1318   */\n  dup3\n    /* \"#utility.yul\":1308:1327   */\n  mstore\n    /* \"#utility.yul\":1360:1364   */\n  0x20\n    /* \"#utility.yul\":1355:1358   */\n  dup3\n    /* \"#utility.yul\":1351:1365   */\n  add\n    /* \"#utility.yul\":1336:1365   */\n  swap1\n  pop\n    /* \"#utility.yul\":1202:1371   */\n  swap3\n  swap2\n  pop\n  pop\n  jump\t// out\n    /* \"#utility.yul\":1377:1559   */\ntag_37:\n    /* \"#utility.yul\":1517:1551   */\n  0x4469726563746f72792063616e6e6f74206265207a65726f2061646472657373\n    /* \"#utility.yul\":1513:1514   */\n  0x00\n    /* \"#utility.yul\":1505:1511   */\n  dup3\n    /* \"#utility.yul\":1501:1515   */\n  add\n    /* \"#utility.yul\":1494:1552   */\n  mstore\n    /* \"#utility.yul\":1377:1559   */\n  pop\n  jump\t// out\n    /* \"#utility.yul\":1565:1931   */\ntag_38:\n    /* \"#utility.yul\":1707:1710   */\n  0x00\n    /* \"#utility.yul\":1728:1795   */\n  tag_62\n    /* \"#utility.yul\":1792:1794   */\n  0x20\n    /* \"#utility.yul\":1787:1790   */\n  dup4\n    /* \"#utility.yul\":1728:1795   */\n  tag_36\n  jump\t// in\ntag_62:\n    /* \"#utility.yul\":1721:1795   */\n  swap2\n  pop\n    /* \"#utility.yul\":1804:1897   */\n  tag_63\n    /* \"#utility.yul\":1893:1896   */\n  dup3\n    /* \"#utility.yul\":1804:1897   */\n  tag_37\n  jump\t// in\ntag_63:\n    /* \"#utility.yul\":1922:1924   */\n  0x20\n    /* \"#utility.yul\":1917:1920   */\n  dup3\n    /* \"#utility.yul\":1913:1925   */\n  add\n    /* \"#utility.yul\":1906:1925   */\n  swap1\n  pop\n    /* \"#utility.yul\":1565:1931   */\n  swap2\n  swap1\n  pop\n  jump\t// out\n    /* \"#utility.yul\":1937:2356   */\ntag_16:\n    /* \"#utility.yul\":2103:2107   */\n  0x00\n    /* \"#utility.yul\":2141:2143   */\n  0x20\n    /* \"#utility.yul\":2130:2139   */\n  dup3\n    /* \"#utility.yul\":2126:2144   */\n  add\n    /* \"#utility.yul\":2118:2144   */\n  swap1\n  pop\n    /* \"#utility.yul\":2190:2199   */\n  dup2\n    /* \"#utility.yul\":2184:2188   */\n  dup2\n    /* \"#utility.yul\":2180:2200   */\n  sub\n    /* \"#utility.yul\":2176:2177   */\n  0x00\n    /* \"#utility.yul\":2165:2174   */\n  dup4\n    /* \"#utility.yul\":2161:2178   */\n  add\n    /* \"#utility.yul\":2154:2201   */\n  mstore\n    /* \"#utility.yul\":2218:2349   */\n  tag_65\n    /* \"#utility.yul\":2344:2348   */\n  dup2\n    /* \"#utility.yul\":2218:2349   */\n  tag_38\n  jump\t// in\ntag_65:\n    /* \"#utility.yul\":2210:2349   */\n  swap1\n  pop\n    /* \"#utility.yul\":1937:2356   */\n  swap2\n  swap1\n  pop\n  jump\t// out\n    /* \"#utility.yul\":2362:2540   */\ntag_39:\n    /* \"#utility.yul\":2502:2532   */\n  0x4469726563746f7279206d757374206265206120636f6e747261637400000000\n    /* \"#utility.yul\":2498:2499   */\n  0x00\n    /* \"#utility.yul\":2490:2496   */\n  dup3\n    /* \"#utility.yul\":2486:2500   */\n  add\n    /* \"#utility.yul\":2479:2533   */\n  mstore\n    /* \"#utility.yul\":2362:2540   */\n  pop\n  jump\t// out\n    /* \"#utility.yul\":2546:2912   */\ntag_40:\n    /* \"#utility.yul\":2688:2691   */\n  0x00\n    /* \"#utility.yul\":2709:2776   */\n  tag_68\n    /* \"#utility.yul\":2773:2775   */\n  0x1c\n    /* \"#utility.yul\":2768:2771   */\n  dup4\n    /* \"#utility.yul\":2709:2776   */\n  tag_36\n  jump\t// in\ntag_68:\n    /* \"#utility.yul\":2702:2776   */\n  swap2\n  pop\n    /* \"#utility.yul\":2785:2878   */\n  tag_69\n    /* \"#utility.yul\":2874:2877   */\n  dup3\n    /* \"#utility.yul\":2785:2878   */\n  tag_39\n  jump\t// in\ntag_69:\n    /* \"#utility.yul\":2903:2905   */\n  0x20\n    /* \"#utility.yul\":2898:2901   */\n  dup3\n    /* \"#utility.yul\":2894:2906   */\n  add\n    /* \"#utility.yul\":2887:2906   */\n  swap1\n  pop\n    /* \"#utility.yul\":2546:2912   */\n  swap2\n  swap1\n  pop\n  jump\t// out\n    /* \"#utility.yul\":2918:3337   */\ntag_19:\n    /* \"#utility.yul\":3084:3088   */\n  0x00\n    /* \"#utility.yul\":3122:3124   */\n  0x20\n    /* \"#utility.yul\":3111:3120   */\n  dup3\n    /* \"#utility.yul\":3107:3125   */\n  add\n    /* \"#utility.yul\":3099:3125   */\n  swap1\n  pop\n    /* \"#utility.yul\":3171:3180   */\n  dup2\n    /* \"#utility.yul\":3165:3169   */\n  dup2\n    /* \"#utility.yul\":3161:3181   */\n  sub\n    /* \"#utility.yul\":3157:3158   */\n  0x00\n    /* \"#utility.yul\":3146:3155   */\n  dup4\n    /* \"#utility.yul\":3142:3159   */\n  add\n    /* \"#utility.yul\":3135:3182   */\n  mstore\n    /* \"#utility.yul\":3199:3330   */\n  tag_71\n    /* \"#utility.yul\":3325:3329   */\n  dup2\n    /* \"#utility.yul\":3199:3330   */\n  tag_40\n  jump\t// in\ntag_71:\n    /* \"#utility.yul\":3191:3330   */\n  swap1\n  pop\n    /* \"#utility.yul\":2918:3337   */\n  swap2\n  swap1\n  pop\n  jump\t// out\n    /* \"#utility.yul\":3343:3574   */\ntag_41:\n    /* \"#utility.yul\":3483:3517   */\n  0x4469726563746f7279206164647265737320646f6573206e6f7420696d706c65\n    /* \"#utility.yul\":3479:3480   */\n  0x00\n    /* \"#utility.yul\":3471:3477   */\n  dup3\n    /* \"#utility.yul\":3467:3481   */\n  add\n    /* \"#utility.yul\":3460:3518   */\n  mstore\n    /* \"#utility.yul\":3552:3566   */\n  0x6d656e74206f776e657228290000000000000000000000000000000000000000\n    /* \"#utility.yul\":3547:3549   */\n  0x20\n    /* \"#utility.yul\":3539:3545   */\n  dup3\n    /* \"#utility.yul\":3535:3550   */\n  add\n    /* \"#utility.yul\":3528:3567   */\n  mstore\n    /* \"#utility.yul\":3343:3574   */\n  pop\n  jump\t// out\n    /* \"#utility.yul\":3580:3946   */\ntag_42:\n    /* \"#utility.yul\":3722:3725   */\n  0x00\n    /* \"#utility.yul\":3743:3810   */\n  tag_74\n    /* \"#utility.yul\":3807:3809   */\n  0x2c\n    /* \"#utility.yul\":3802:3805   */\n  dup4\n    /* \"#utility.yul\":3743:3810   */\n  tag_36\n  jump\t// in\ntag_74:\n    /* \"#utility.yul\":3736:3810   */\n  swap2\n  pop\n    /* \"#utility.yul\":3819:3912   */\n  tag_75\n    /* \"#utility.yul\":3908:3911   */\n  dup3\n    /* \"#utility.yul\":3819:3912   */\n  tag_41\n  jump\t// in\ntag_75:\n    /* \"#utility.yul\":3937:3939   */\n  0x40\n    /* \"#utility.yul\":3932:3935   */\n  dup3\n    /* \"#utility.yul\":3928:3940   */\n  add\n    /* \"#utility.yul\":3921:3940   */\n  swap1\n  pop\n    /* \"#utility.yul\":3580:3946   */\n  swap2\n  swap1\n  pop\n  jump\t// out\n    /* \"#utility.yul\":3952:4371   */\ntag_27:\n    /* \"#utility.yul\":4118:4122   */\n  0x00\n    /* \"#utility.yul\":4156:4158   */\n  0x20\n    /* \"#utility.yul\":4145:4154   */\n  dup3\n    /* \"#utility.yul\":4141:4159   */\n  add\n    /* \"#utility.yul\":4133:4159   */\n  swap1\n  pop\n    /* \"#utility.yul\":4205:4214   */\n  dup2\n    /* \"#utility.yul\":4199:4203   */\n  dup2\n    /* \"#utility.yul\":4195:4215   */\n  sub\n    /* \"#utility.yul\":4191:4192   */\n  0x00\n    /* \"#utility.yul\":4180:4189   */\n  dup4\n    /* \"#utility.yul\":4176:4193   */\n  add\n    /* \"#utility.yul\":4169:4216   */\n  mstore\n    /* \"#utility.yul\":4233:4364   */\n  tag_77\n    /* \"#utility.yul\":4359:4363   */\n  dup2\n    /* \"#utility.yul\":4233:4364   */\n  tag_42\n  jump\t// in\ntag_77:\n    /* \"#utility.yul\":4225:4364   */\n  swap1\n  pop\n    /* \"#utility.yul\":3952:4371   */\n  swap2\n  swap1\n  pop\n  jump\t// out\n    /* \"hopium/etf/main/etf-router.sol\":6137:9668  contract EtfRouter is ImDirectory, ImIndexFactory, ReentrancyGuard, Helpers, ImActive {... */\ntag_12:\n  dataSize(sub_0)\n  dup1\n  dataOffset(sub_0)\n  0x00\n  codecopy\n  0x00\n  return\nstop\n\nsub_0: assembly {\n        /* \"hopium/etf/main/etf-router.sol\":6137:9668  contract EtfRouter is ImDirectory, ImIndexFactory, ReentrancyGuard, Helpers, ImActive {... */\n      mstore(0x40, 0x80)\n      jumpi(tag_1, lt(calldatasize, 0x04))\n      shr(0xe0, calldataload(0x00))\n      dup1\n      0x658a847a\n      gt\n      tag_16\n      jumpi\n      dup1\n      0xb42c0782\n      gt\n      tag_17\n      jumpi\n      dup1\n      0xb42c0782\n      eq\n      tag_12\n      jumpi\n      dup1\n      0xba4c7be1\n      eq\n      tag_13\n      jumpi\n      dup1\n      0xbb3367bd\n      eq\n      tag_14\n      jumpi\n      dup1\n      0xe220d0de\n      eq\n      tag_15\n      jumpi\n      jump(tag_2)\n    tag_17:\n      dup1\n      0x658a847a\n      eq\n      tag_9\n      jumpi\n      dup1\n      0x8da5cb5b\n      eq\n      tag_10\n      jumpi\n      dup1\n      0xacec338a\n      eq\n      tag_11\n      jumpi\n      jump(tag_2)\n    tag_16:\n      dup1\n      0x0650b0fc\n      eq\n      tag_3\n      jumpi\n      dup1\n      0x09053ac4\n      eq\n      tag_4\n      jumpi\n      dup1\n      0x22f3e2d4\n      eq\n      tag_5\n      jumpi\n      dup1\n      0x25c006f9\n      eq\n      tag_6\n      jumpi\n      dup1\n      0x26232a2e\n      eq\n      tag_7\n      jumpi\n      dup1\n      0x27262618\n      eq\n      tag_8\n      jumpi\n      jump(tag_2)\n    tag_1:\n      jumpi(tag_2, calldatasize)\n      stop\n    tag_2:\n      revert(0x00, 0x00)\n        /* \"hopium/etf/main/etf-router.sol\":6293:6334  uint32 public DEFAULT_SLIPPAGE_BIPS = 300 */\n    tag_3:\n      callvalue\n      dup1\n      iszero\n      tag_20\n      jumpi\n      revert(0x00, 0x00)\n    tag_20:\n      pop\n      tag_21\n      tag_22\n      jump\t// in\n    tag_21:\n      mload(0x40)\n      tag_23\n      swap2\n      swap1\n      tag_24\n      jump\t// in\n    tag_23:\n      mload(0x40)\n      dup1\n      swap2\n      sub\n      swap1\n      return\n        /* \"hopium/etf/main/etf-router.sol\":9481:9631  function recoverAsset(address tokenAddress, address toAddress) public onlyOwner {... */\n    tag_4:\n      callvalue\n      dup1\n      iszero\n      tag_25\n      jumpi\n      revert(0x00, 0x00)\n    tag_25:\n      pop\n      tag_26\n      0x04\n      dup1\n      calldatasize\n      sub\n      dup2\n      add\n      swap1\n      tag_27\n      swap2\n      swap1\n      tag_28\n      jump\t// in\n    tag_27:\n      tag_29\n      jump\t// in\n    tag_26:\n      stop\n        /* \"hopium/common/interface/imActive.sol\":156:183  bool public isActive = true */\n    tag_5:\n      callvalue\n      dup1\n      iszero\n      tag_30\n      jumpi\n      revert(0x00, 0x00)\n    tag_30:\n      pop\n      tag_31\n      tag_32\n      jump\t// in\n    tag_31:\n      mload(0x40)\n      tag_33\n      swap2\n      swap1\n      tag_34\n      jump\t// in\n    tag_33:\n      mload(0x40)\n      dup1\n      swap2\n      sub\n      swap1\n      return\n        /* \"hopium/etf/main/etf-router.sol\":6381:7467  function mintEtfTokens(uint256 indexId, address receiver) external payable nonReentrant onlyActive {... */\n    tag_6:\n      tag_35\n      0x04\n      dup1\n      calldatasize\n      sub\n      dup2\n      add\n      swap1\n      tag_36\n      swap2\n      swap1\n      tag_37\n      jump\t// in\n    tag_36:\n      tag_38\n      jump\t// in\n    tag_35:\n      stop\n        /* \"hopium/etf/main/etf-router.sol\":942:972  uint16 public platformFee = 25 */\n    tag_7:\n      callvalue\n      dup1\n      iszero\n      tag_39\n      jumpi\n      revert(0x00, 0x00)\n    tag_39:\n      pop\n      tag_40\n      tag_41\n      jump\t// in\n    tag_40:\n      mload(0x40)\n      tag_42\n      swap2\n      swap1\n      tag_43\n      jump\t// in\n    tag_42:\n      mload(0x40)\n      dup1\n      swap2\n      sub\n      swap1\n      return\n        /* \"hopium/common/interface/imDirectory.sol\":1272:1408  function fetchFromDirectory(string memory _key) public view returns (address) {... */\n    tag_8:\n      callvalue\n      dup1\n      iszero\n      tag_44\n      jumpi\n      revert(0x00, 0x00)\n    tag_44:\n      pop\n      tag_45\n      0x04\n      dup1\n      calldatasize\n      sub\n      dup2\n      add\n      swap1\n      tag_46\n      swap2\n      swap1\n      tag_47\n      jump\t// in\n    tag_46:\n      tag_48\n      jump\t// in\n    tag_45:\n      mload(0x40)\n      tag_49\n      swap2\n      swap1\n      tag_50\n      jump\t// in\n    tag_49:\n      mload(0x40)\n      dup1\n      swap2\n      sub\n      swap1\n      return\n        /* \"hopium/common/interface/imDirectory.sol\":336:363  IDirectory public Directory */\n    tag_9:\n      callvalue\n      dup1\n      iszero\n      tag_51\n      jumpi\n      revert(0x00, 0x00)\n    tag_51:\n      pop\n      tag_52\n      tag_53\n      jump\t// in\n    tag_52:\n      mload(0x40)\n      tag_54\n      swap2\n      swap1\n      tag_55\n      jump\t// in\n    tag_54:\n      mload(0x40)\n      dup1\n      swap2\n      sub\n      swap1\n      return\n        /* \"hopium/common/interface/imDirectory.sol\":1178:1266  function owner() public view returns (address) {... */\n    tag_10:\n      callvalue\n      dup1\n      iszero\n      tag_56\n      jumpi\n      revert(0x00, 0x00)\n    tag_56:\n      pop\n      tag_57\n      tag_58\n      jump\t// in\n    tag_57:\n      mload(0x40)\n      tag_59\n      swap2\n      swap1\n      tag_50\n      jump\t// in\n    tag_59:\n      mload(0x40)\n      dup1\n      swap2\n      sub\n      swap1\n      return\n        /* \"hopium/common/interface/imActive.sol\":289:374  function setActive(bool _active) public onlyOwner {... */\n    tag_11:\n      callvalue\n      dup1\n      iszero\n      tag_60\n      jumpi\n      revert(0x00, 0x00)\n    tag_60:\n      pop\n      tag_61\n      0x04\n      dup1\n      calldatasize\n      sub\n      dup2\n      add\n      swap1\n      tag_62\n      swap2\n      swap1\n      tag_63\n      jump\t// in\n    tag_62:\n      tag_64\n      jump\t// in\n    tag_61:\n      stop\n        /* \"hopium/etf/main/etf-router.sol\":9092:9264  function changePlatformFee(uint16 newFee) public onlyOwner onlyActive {... */\n    tag_12:\n      callvalue\n      dup1\n      iszero\n      tag_65\n      jumpi\n      revert(0x00, 0x00)\n    tag_65:\n      pop\n      tag_66\n      0x04\n      dup1\n      calldatasize\n      sub\n      dup2\n      add\n      swap1\n      tag_67\n      swap2\n      swap1\n      tag_68\n      jump\t// in\n    tag_67:\n      tag_69\n      jump\t// in\n    tag_66:\n      stop\n        /* \"hopium/common/interface/imDirectory.sol\":470:583  function changeDirectoryAddress(address _directory) external onlyOwner {... */\n    tag_13:\n      callvalue\n      dup1\n      iszero\n      tag_70\n      jumpi\n      revert(0x00, 0x00)\n    tag_70:\n      pop\n      tag_71\n      0x04\n      dup1\n      calldatasize\n      sub\n      dup2\n      add\n      swap1\n      tag_72\n      swap2\n      swap1\n      tag_73\n      jump\t// in\n    tag_72:\n      tag_74\n      jump\t// in\n    tag_71:\n      stop\n        /* \"hopium/etf/main/etf-router.sol\":9271:9475  function changeDefaultSlippage(uint32 newSlippageBips) external onlyOwner {... */\n    tag_14:\n      callvalue\n      dup1\n      iszero\n      tag_75\n      jumpi\n      revert(0x00, 0x00)\n    tag_75:\n      pop\n      tag_76\n      0x04\n      dup1\n      calldatasize\n      sub\n      dup2\n      add\n      swap1\n      tag_77\n      swap2\n      swap1\n      tag_78\n      jump\t// in\n    tag_77:\n      tag_79\n      jump\t// in\n    tag_76:\n      stop\n        /* \"hopium/etf/main/etf-router.sol\":7564:9086  function redeemEtfTokens(uint256 indexId, uint256 etfTokenAmount, address payable receiver) external nonReentrant onlyActive {... */\n    tag_15:\n      callvalue\n      dup1\n      iszero\n      tag_80\n      jumpi\n      revert(0x00, 0x00)\n    tag_80:\n      pop\n      tag_81\n      0x04\n      dup1\n      calldatasize\n      sub\n      dup2\n      add\n      swap1\n      tag_82\n      swap2\n      swap1\n      tag_83\n      jump\t// in\n    tag_82:\n      tag_84\n      jump\t// in\n    tag_81:\n      stop\n        /* \"hopium/etf/main/etf-router.sol\":6293:6334  uint32 public DEFAULT_SLIPPAGE_BIPS = 300 */\n    tag_22:\n      0x02\n      0x03\n      swap1\n      sload\n      swap1\n      0x0100\n      exp\n      swap1\n      div\n      0xffffffff\n      and\n      dup2\n      jump\t// out\n        /* \"hopium/etf/main/etf-router.sol\":9481:9631  function recoverAsset(address tokenAddress, address toAddress) public onlyOwner {... */\n    tag_29:\n        /* \"hopium/common/interface/imDirectory.sol\":1109:1118  Directory */\n      0x00\n      0x00\n      swap1\n      sload\n      swap1\n      0x0100\n      exp\n      swap1\n      div\n      0xffffffffffffffffffffffffffffffffffffffff\n      and\n        /* \"hopium/common/interface/imDirectory.sol\":1109:1124  Directory.owner */\n      0xffffffffffffffffffffffffffffffffffffffff\n      and\n      0x8da5cb5b\n        /* \"hopium/common/interface/imDirectory.sol\":1109:1126  Directory.owner() */\n      mload(0x40)\n      dup2\n      0xffffffff\n      and\n      0xe0\n      shl\n      dup2\n      mstore\n      0x04\n      add\n      0x20\n      mload(0x40)\n      dup1\n      dup4\n      sub\n      dup2\n      dup7\n      gas\n      staticcall\n      iszero\n      dup1\n      iszero\n      tag_87\n      jumpi\n      returndatacopy(0x00, 0x00, returndatasize)\n      revert(0x00, returndatasize)\n    tag_87:\n      pop\n      pop\n      pop\n      pop\n      mload(0x40)\n      returndatasize\n      not(0x1f)\n      0x1f\n      dup3\n      add\n      and\n      dup3\n      add\n      dup1\n      0x40\n      mstore\n      pop\n      dup2\n      add\n      swap1\n      tag_88\n      swap2\n      swap1\n      tag_89\n      jump\t// in\n    tag_88:\n        /* \"hopium/common/interface/imDirectory.sol\":1095:1126  msg.sender == Directory.owner() */\n      0xffffffffffffffffffffffffffffffffffffffff\n      and\n        /* \"hopium/common/interface/imDirectory.sol\":1095:1105  msg.sender */\n      caller\n        /* \"hopium/common/interface/imDirectory.sol\":1095:1126  msg.sender == Directory.owner() */\n      0xffffffffffffffffffffffffffffffffffffffff\n      and\n      eq\n        /* \"hopium/common/interface/imDirectory.sol\":1087:1154  require(msg.sender == Directory.owner(), \"Caller is not the owner\") */\n      tag_90\n      jumpi\n      mload(0x40)\n      0x08c379a000000000000000000000000000000000000000000000000000000000\n      dup2\n      mstore\n      0x04\n      add\n      tag_91\n      swap1\n      tag_92\n      jump\t// in\n    tag_91:\n      mload(0x40)\n      dup1\n      swap2\n      sub\n      swap1\n      revert\n    tag_90:\n        /* \"hopium/etf/main/etf-router.sol\":9571:9624  TransferHelpers.recoverAsset(tokenAddress, toAddress) */\n      tag_94\n        /* \"hopium/etf/main/etf-router.sol\":9600:9612  tokenAddress */\n      dup3\n        /* \"hopium/etf/main/etf-router.sol\":9614:9623  toAddress */\n      dup3\n        /* \"hopium/etf/main/etf-router.sol\":9571:9599  TransferHelpers.recoverAsset */\n      tag_95\n        /* \"hopium/etf/main/etf-router.sol\":9571:9624  TransferHelpers.recoverAsset(tokenAddress, toAddress) */\n      jump\t// in\n    tag_94:\n        /* \"hopium/etf/main/etf-router.sol\":9481:9631  function recoverAsset(address tokenAddress, address toAddress) public onlyOwner {... */\n      pop\n      pop\n      jump\t// out\n        /* \"hopium/common/interface/imActive.sol\":156:183  bool public isActive = true */\n    tag_32:\n      0x02\n      dup1\n      sload\n      swap1\n      0x0100\n      exp\n      swap1\n      div\n      0xff\n      and\n      dup2\n      jump\t// out\n        /* \"hopium/etf/main/etf-router.sol\":6381:7467  function mintEtfTokens(uint256 indexId, address receiver) external payable nonReentrant onlyActive {... */\n    tag_38:\n        /* \"@openzeppelin/contracts/security/ReentrancyGuard.sol\":2261:2282  _nonReentrantBefore() */\n      tag_97\n        /* \"@openzeppelin/contracts/security/ReentrancyGuard.sol\":2261:2280  _nonReentrantBefore */\n      tag_98\n        /* \"@openzeppelin/contracts/security/ReentrancyGuard.sol\":2261:2282  _nonReentrantBefore() */\n      jump\t// in\n    tag_97:\n        /* \"hopium/common/interface/imActive.sol\":230:238  isActive */\n      0x02\n      dup1\n      sload\n      swap1\n      0x0100\n      exp\n      swap1\n      div\n      0xff\n      and\n        /* \"hopium/common/interface/imActive.sol\":222:265  require(isActive, \"Contract is not active\") */\n      tag_100\n      jumpi\n      mload(0x40)\n      0x08c379a000000000000000000000000000000000000000000000000000000000\n      dup2\n      mstore\n      0x04\n      add\n      tag_101\n      swap1\n      tag_102\n      jump\t// in\n    tag_101:\n      mload(0x40)\n      dup1\n      swap2\n      sub\n      swap1\n      revert\n    tag_100:\n        /* \"hopium/etf/main/etf-router.sol\":6507:6508  0 */\n      0x00\n        /* \"hopium/etf/main/etf-router.sol\":6494:6503  msg.value */\n      callvalue\n        /* \"hopium/etf/main/etf-router.sol\":6494:6508  msg.value == 0 */\n      sub\n        /* \"hopium/etf/main/etf-router.sol\":6490:6531  if (msg.value == 0) revert ZeroMsgValue() */\n      tag_104\n      jumpi\n        /* \"hopium/etf/main/etf-router.sol\":6517:6531  ZeroMsgValue() */\n      mload(0x40)\n      0x790c8b3900000000000000000000000000000000000000000000000000000000\n      dup2\n      mstore\n      0x04\n      add\n      mload(0x40)\n      dup1\n      swap2\n      sub\n      swap1\n      revert\n        /* \"hopium/etf/main/etf-router.sol\":6490:6531  if (msg.value == 0) revert ZeroMsgValue() */\n    tag_104:\n        /* \"hopium/etf/main/etf-router.sol\":6565:6566  0 */\n      0x00\n        /* \"hopium/etf/main/etf-router.sol\":6545:6567  receiver == address(0) */\n      0xffffffffffffffffffffffffffffffffffffffff\n      and\n        /* \"hopium/etf/main/etf-router.sol\":6545:6553  receiver */\n      dup2\n        /* \"hopium/etf/main/etf-router.sol\":6545:6567  receiver == address(0) */\n      0xffffffffffffffffffffffffffffffffffffffff\n      and\n      sub\n        /* \"hopium/etf/main/etf-router.sol\":6541:6590  if (receiver == address(0)) revert ZeroReceiver() */\n      tag_105\n      jumpi\n        /* \"hopium/etf/main/etf-router.sol\":6576:6590  ZeroReceiver() */\n      mload(0x40)\n      0x6ba9ecd800000000000000000000000000000000000000000000000000000000\n      dup2\n      mstore\n      0x04\n      add\n      mload(0x40)\n      dup1\n      swap2\n      sub\n      swap1\n      revert\n        /* \"hopium/etf/main/etf-router.sol\":6541:6590  if (receiver == address(0)) revert ZeroReceiver() */\n    tag_105:\n        /* \"hopium/etf/main/etf-router.sol\":6601:6619  Index memory index */\n      0x00\n        /* \"hopium/etf/main/etf-router.sol\":6622:6639  getIndexFactory() */\n      tag_106\n        /* \"hopium/etf/main/etf-router.sol\":6622:6637  getIndexFactory */\n      tag_107\n        /* \"hopium/etf/main/etf-router.sol\":6622:6639  getIndexFactory() */\n      jump\t// in\n    tag_106:\n        /* \"hopium/etf/main/etf-router.sol\":6622:6652  getIndexFactory().getIndexById */\n      0xffffffffffffffffffffffffffffffffffffffff\n      and\n      0x549e122b\n        /* \"hopium/etf/main/etf-router.sol\":6653:6660  indexId */\n      dup5\n        /* \"hopium/etf/main/etf-router.sol\":6622:6661  getIndexFactory().getIndexById(indexId) */\n      mload(0x40)\n      dup3\n      0xffffffff\n      and\n      0xe0\n      shl\n      dup2\n      mstore\n      0x04\n      add\n      tag_108\n      swap2\n      swap1\n      tag_109\n      jump\t// in\n    tag_108:\n      0x00\n      mload(0x40)\n      dup1\n      dup4\n      sub\n      dup2\n      dup7\n      gas\n      staticcall\n      iszero\n      dup1\n      iszero\n      tag_111\n      jumpi\n      returndatacopy(0x00, 0x00, returndatasize)\n      revert(0x00, returndatasize)\n    tag_111:\n      pop\n      pop\n      pop\n      pop\n      mload(0x40)\n      returndatasize\n      0x00\n      dup3\n      returndatacopy\n      returndatasize\n      not(0x1f)\n      0x1f\n      dup3\n      add\n      and\n      dup3\n      add\n      dup1\n      0x40\n      mstore\n      pop\n      dup2\n      add\n      swap1\n      tag_112\n      swap2\n      swap1\n      tag_113\n      jump\t// in\n    tag_112:\n        /* \"hopium/etf/main/etf-router.sol\":6601:6661  Index memory index = getIndexFactory().getIndexById(indexId) */\n      swap1\n      pop\n        /* \"hopium/etf/main/etf-router.sol\":6672:6695  address etfTokenAddress */\n      0x00\n        /* \"hopium/etf/main/etf-router.sol\":6697:6720  address etfVaultAddress */\n      0x00\n        /* \"hopium/etf/main/etf-router.sol\":6724:6754  _resolveTokenAndVault(indexId) */\n      tag_114\n        /* \"hopium/etf/main/etf-router.sol\":6746:6753  indexId */\n      dup6\n        /* \"hopium/etf/main/etf-router.sol\":6724:6745  _resolveTokenAndVault */\n      tag_115\n        /* \"hopium/etf/main/etf-router.sol\":6724:6754  _resolveTokenAndVault(indexId) */\n      jump\t// in\n    tag_114:\n        /* \"hopium/etf/main/etf-router.sol\":6671:6754  (address etfTokenAddress, address etfVaultAddress) = _resolveTokenAndVault(indexId) */\n      swap2\n      pop\n      swap2\n      pop\n        /* \"hopium/etf/main/etf-router.sol\":6803:6820  uint256 ethAmount */\n      0x00\n        /* \"hopium/etf/main/etf-router.sol\":6823:6854  _transferPlatformFee(msg.value) */\n      tag_116\n        /* \"hopium/etf/main/etf-router.sol\":6844:6853  msg.value */\n      callvalue\n        /* \"hopium/etf/main/etf-router.sol\":6823:6843  _transferPlatformFee */\n      tag_117\n        /* \"hopium/etf/main/etf-router.sol\":6823:6854  _transferPlatformFee(msg.value) */\n      jump\t// in\n    tag_116:\n        /* \"hopium/etf/main/etf-router.sol\":6803:6854  uint256 ethAmount = _transferPlatformFee(msg.value) */\n      swap1\n      pop\n        /* \"hopium/etf/main/etf-router.sol\":6939:6961  uint256 etfTokenAmount */\n      0x00\n        /* \"hopium/etf/main/etf-router.sol\":6964:7016  _calcMintAmount(indexId, ethAmount, etfTokenAddress) */\n      tag_118\n        /* \"hopium/etf/main/etf-router.sol\":6980:6987  indexId */\n      dup8\n        /* \"hopium/etf/main/etf-router.sol\":6989:6998  ethAmount */\n      dup4\n        /* \"hopium/etf/main/etf-router.sol\":7000:7015  etfTokenAddress */\n      dup7\n        /* \"hopium/etf/main/etf-router.sol\":6964:6979  _calcMintAmount */\n      tag_119\n        /* \"hopium/etf/main/etf-router.sol\":6964:7016  _calcMintAmount(indexId, ethAmount, etfTokenAddress) */\n      jump\t// in\n    tag_118:\n        /* \"hopium/etf/main/etf-router.sol\":6939:7016  uint256 etfTokenAmount = _calcMintAmount(indexId, ethAmount, etfTokenAddress) */\n      swap1\n      pop\n        /* \"hopium/etf/main/etf-router.sol\":7082:7161  _swapEthToVaultTokens(index, ethAmount, etfVaultAddress, DEFAULT_SLIPPAGE_BIPS) */\n      tag_120\n        /* \"hopium/etf/main/etf-router.sol\":7104:7109  index */\n      dup6\n        /* \"hopium/etf/main/etf-router.sol\":7111:7120  ethAmount */\n      dup4\n        /* \"hopium/etf/main/etf-router.sol\":7122:7137  etfVaultAddress */\n      dup6\n        /* \"hopium/etf/main/etf-router.sol\":7139:7160  DEFAULT_SLIPPAGE_BIPS */\n      0x02\n      0x03\n      swap1\n      sload\n      swap1\n      0x0100\n      exp\n      swap1\n      div\n      0xffffffff\n      and\n        /* \"hopium/etf/main/etf-router.sol\":7082:7103  _swapEthToVaultTokens */\n      tag_121\n        /* \"hopium/etf/main/etf-router.sol\":7082:7161  _swapEthToVaultTokens(index, ethAmount, etfVaultAddress, DEFAULT_SLIPPAGE_BIPS) */\n      jump\t// in\n    tag_120:\n        /* \"hopium/etf/main/etf-router.sol\":7221:7236  etfTokenAddress */\n      dup4\n        /* \"hopium/etf/main/etf-router.sol\":7211:7242  IEtfToken(etfTokenAddress).mint */\n      0xffffffffffffffffffffffffffffffffffffffff\n      and\n      0x40c10f19\n        /* \"hopium/etf/main/etf-router.sol\":7243:7251  receiver */\n      dup8\n        /* \"hopium/etf/main/etf-router.sol\":7253:7267  etfTokenAmount */\n      dup4\n        /* \"hopium/etf/main/etf-router.sol\":7211:7268  IEtfToken(etfTokenAddress).mint(receiver, etfTokenAmount) */\n      mload(0x40)\n      dup4\n      0xffffffff\n      and\n      0xe0\n      shl\n      dup2\n      mstore\n      0x04\n      add\n      tag_122\n      swap3\n      swap2\n      swap1\n      tag_123\n      jump\t// in\n    tag_122:\n      0x00\n      mload(0x40)\n      dup1\n      dup4\n      sub\n      dup2\n      0x00\n      dup8\n      dup1\n      extcodesize\n      iszero\n      dup1\n      iszero\n      tag_124\n      jumpi\n      revert(0x00, 0x00)\n    tag_124:\n      pop\n      gas\n      call\n      iszero\n      dup1\n      iszero\n      tag_126\n      jumpi\n      returndatacopy(0x00, 0x00, returndatasize)\n      revert(0x00, returndatasize)\n    tag_126:\n      pop\n      pop\n      pop\n      pop\n        /* \"hopium/etf/main/etf-router.sol\":7320:7335  getEtfFactory() */\n      tag_127\n        /* \"hopium/etf/main/etf-router.sol\":7320:7333  getEtfFactory */\n      tag_128\n        /* \"hopium/etf/main/etf-router.sol\":7320:7335  getEtfFactory() */\n      jump\t// in\n    tag_127:\n        /* \"hopium/etf/main/etf-router.sol\":7320:7351  getEtfFactory().updateEtfVolume */\n      0xffffffffffffffffffffffffffffffffffffffff\n      and\n      0x1626542c\n        /* \"hopium/etf/main/etf-router.sol\":7352:7359  indexId */\n      dup9\n        /* \"hopium/etf/main/etf-router.sol\":7361:7370  ethAmount */\n      dup5\n        /* \"hopium/etf/main/etf-router.sol\":7320:7371  getEtfFactory().updateEtfVolume(indexId, ethAmount) */\n      mload(0x40)\n      dup4\n      0xffffffff\n      and\n      0xe0\n      shl\n      dup2\n      mstore\n      0x04\n      add\n      tag_129\n      swap3\n      swap2\n      swap1\n      tag_130\n      jump\t// in\n    tag_129:\n      0x00\n      mload(0x40)\n      dup1\n      dup4\n      sub\n      dup2\n      0x00\n      dup8\n      dup1\n      extcodesize\n      iszero\n      dup1\n      iszero\n      tag_131\n      jumpi\n      revert(0x00, 0x00)\n    tag_131:\n      pop\n      gas\n      call\n      iszero\n      dup1\n      iszero\n      tag_133\n      jumpi\n      returndatacopy(0x00, 0x00, returndatasize)\n      revert(0x00, returndatasize)\n    tag_133:\n      pop\n      pop\n      pop\n      pop\n        /* \"hopium/etf/main/etf-router.sol\":7387:7460  EtfTokensMinted(indexId, msg.sender, receiver, etfTokenAmount, ethAmount) */\n      0x25959fc919f5956a2d9c36c2e42ed134f9af2d978ea9d799af08698538ac3a3f\n        /* \"hopium/etf/main/etf-router.sol\":7403:7410  indexId */\n      dup8\n        /* \"hopium/etf/main/etf-router.sol\":7412:7422  msg.sender */\n      caller\n        /* \"hopium/etf/main/etf-router.sol\":7424:7432  receiver */\n      dup9\n        /* \"hopium/etf/main/etf-router.sol\":7434:7448  etfTokenAmount */\n      dup5\n        /* \"hopium/etf/main/etf-router.sol\":7450:7459  ethAmount */\n      dup7\n        /* \"hopium/etf/main/etf-router.sol\":7387:7460  EtfTokensMinted(indexId, msg.sender, receiver, etfTokenAmount, ethAmount) */\n      mload(0x40)\n      tag_134\n      swap6\n      swap5\n      swap4\n      swap3\n      swap2\n      swap1\n      tag_135\n      jump\t// in\n    tag_134:\n      mload(0x40)\n      dup1\n      swap2\n      sub\n      swap1\n      log1\n        /* \"hopium/etf/main/etf-router.sol\":6480:7467  {... */\n      pop\n      pop\n      pop\n      pop\n      pop\n        /* \"@openzeppelin/contracts/security/ReentrancyGuard.sol\":2303:2323  _nonReentrantAfter() */\n      tag_136\n        /* \"@openzeppelin/contracts/security/ReentrancyGuard.sol\":2303:2321  _nonReentrantAfter */\n      tag_137\n        /* \"@openzeppelin/contracts/security/ReentrancyGuard.sol\":2303:2323  _nonReentrantAfter() */\n      jump\t// in\n    tag_136:\n        /* \"hopium/etf/main/etf-router.sol\":6381:7467  function mintEtfTokens(uint256 indexId, address receiver) external payable nonReentrant onlyActive {... */\n      pop\n      pop\n      jump\t// out\n        /* \"hopium/etf/main/etf-router.sol\":942:972  uint16 public platformFee = 25 */\n    tag_41:\n      0x02\n      0x00\n      swap1\n      sload\n      swap1\n      0x0100\n      exp\n      swap1\n      div\n      0xffff\n      and\n      dup2\n      jump\t// out\n        /* \"hopium/common/interface/imDirectory.sol\":1272:1408  function fetchFromDirectory(string memory _key) public view returns (address) {... */\n    tag_48:\n        /* \"hopium/common/interface/imDirectory.sol\":1341:1348  address */\n      0x00\n        /* \"hopium/common/interface/imDirectory.sol\":1367:1376  Directory */\n      0x00\n      0x00\n      swap1\n      sload\n      swap1\n      0x0100\n      exp\n      swap1\n      div\n      0xffffffffffffffffffffffffffffffffffffffff\n      and\n        /* \"hopium/common/interface/imDirectory.sol\":1367:1395  Directory.fetchFromDirectory */\n      0xffffffffffffffffffffffffffffffffffffffff\n      and\n      0x27262618\n        /* \"hopium/common/interface/imDirectory.sol\":1396:1400  _key */\n      dup4\n        /* \"hopium/common/interface/imDirectory.sol\":1367:1401  Directory.fetchFromDirectory(_key) */\n      mload(0x40)\n      dup3\n      0xffffffff\n      and\n      0xe0\n      shl\n      dup2\n      mstore\n      0x04\n      add\n      tag_139\n      swap2\n      swap1\n      tag_140\n      jump\t// in\n    tag_139:\n      0x20\n      mload(0x40)\n      dup1\n      dup4\n      sub\n      dup2\n      dup7\n      gas\n      staticcall\n      iszero\n      dup1\n      iszero\n      tag_142\n      jumpi\n      returndatacopy(0x00, 0x00, returndatasize)\n      revert(0x00, returndatasize)\n    tag_142:\n      pop\n      pop\n      pop\n      pop\n      mload(0x40)\n      returndatasize\n      not(0x1f)\n      0x1f\n      dup3\n      add\n      and\n      dup3\n      add\n      dup1\n      0x40\n      mstore\n      pop\n      dup2\n      add\n      swap1\n      tag_143\n      swap2\n      swap1\n      tag_89\n      jump\t// in\n    tag_143:\n        /* \"hopium/common/interface/imDirectory.sol\":1360:1401  return Directory.fetchFromDirectory(_key) */\n      swap1\n      pop\n        /* \"hopium/common/interface/imDirectory.sol\":1272:1408  function fetchFromDirectory(string memory _key) public view returns (address) {... */\n      swap2\n      swap1\n      pop\n      jump\t// out\n        /* \"hopium/common/interface/imDirectory.sol\":336:363  IDirectory public Directory */\n    tag_53:\n      0x00\n      0x00\n      swap1\n      sload\n      swap1\n      0x0100\n      exp\n      swap1\n      div\n      0xffffffffffffffffffffffffffffffffffffffff\n      and\n      dup2\n      jump\t// out\n        /* \"hopium/common/interface/imDirectory.sol\":1178:1266  function owner() public view returns (address) {... */\n    tag_58:\n        /* \"hopium/common/interface/imDirectory.sol\":1216:1223  address */\n      0x00\n        /* \"hopium/common/interface/imDirectory.sol\":1242:1251  Directory */\n      0x00\n      0x00\n      swap1\n      sload\n      swap1\n      0x0100\n      exp\n      swap1\n      div\n      0xffffffffffffffffffffffffffffffffffffffff\n      and\n        /* \"hopium/common/interface/imDirectory.sol\":1242:1257  Directory.owner */\n      0xffffffffffffffffffffffffffffffffffffffff\n      and\n      0x8da5cb5b\n        /* \"hopium/common/interface/imDirectory.sol\":1242:1259  Directory.owner() */\n      mload(0x40)\n      dup2\n      0xffffffff\n      and\n      0xe0\n      shl\n      dup2\n      mstore\n      0x04\n      add\n      0x20\n      mload(0x40)\n      dup1\n      dup4\n      sub\n      dup2\n      dup7\n      gas\n      staticcall\n      iszero\n      dup1\n      iszero\n      tag_146\n      jumpi\n      returndatacopy(0x00, 0x00, returndatasize)\n      revert(0x00, returndatasize)\n    tag_146:\n      pop\n      pop\n      pop\n      pop\n      mload(0x40)\n      returndatasize\n      not(0x1f)\n      0x1f\n      dup3\n      add\n      and\n      dup3\n      add\n      dup1\n      0x40\n      mstore\n      pop\n      dup2\n      add\n      swap1\n      tag_147\n      swap2\n      swap1\n      tag_89\n      jump\t// in\n    tag_147:\n        /* \"hopium/common/interface/imDirectory.sol\":1235:1259  return Directory.owner() */\n      swap1\n      pop\n        /* \"hopium/common/interface/imDirectory.sol\":1178:1266  function owner() public view returns (address) {... */\n      swap1\n      jump\t// out\n        /* \"hopium/common/interface/imActive.sol\":289:374  function setActive(bool _active) public onlyOwner {... */\n    tag_64:\n        /* \"hopium/common/interface/imDirectory.sol\":1109:1118  Directory */\n      0x00\n      0x00\n      swap1\n      sload\n      swap1\n      0x0100\n      exp\n      swap1\n      div\n      0xffffffffffffffffffffffffffffffffffffffff\n      and\n        /* \"hopium/common/interface/imDirectory.sol\":1109:1124  Directory.owner */\n      0xffffffffffffffffffffffffffffffffffffffff\n      and\n      0x8da5cb5b\n        /* \"hopium/common/interface/imDirectory.sol\":1109:1126  Directory.owner() */\n      mload(0x40)\n      dup2\n      0xffffffff\n      and\n      0xe0\n      shl\n      dup2\n      mstore\n      0x04\n      add\n      0x20\n      mload(0x40)\n      dup1\n      dup4\n      sub\n      dup2\n      dup7\n      gas\n      staticcall\n      iszero\n      dup1\n      iszero\n      tag_150\n      jumpi\n      returndatacopy(0x00, 0x00, returndatasize)\n      revert(0x00, returndatasize)\n    tag_150:\n      pop\n      pop\n      pop\n      pop\n      mload(0x40)\n      returndatasize\n      not(0x1f)\n      0x1f\n      dup3\n      add\n      and\n      dup3\n      add\n      dup1\n      0x40\n      mstore\n      pop\n      dup2\n      add\n      swap1\n      tag_151\n      swap2\n      swap1\n      tag_89\n      jump\t// in\n    tag_151:\n        /* \"hopium/common/interface/imDirectory.sol\":1095:1126  msg.sender == Directory.owner() */\n      0xffffffffffffffffffffffffffffffffffffffff\n      and\n        /* \"hopium/common/interface/imDirectory.sol\":1095:1105  msg.sender */\n      caller\n        /* \"hopium/common/interface/imDirectory.sol\":1095:1126  msg.sender == Directory.owner() */\n      0xffffffffffffffffffffffffffffffffffffffff\n      and\n      eq\n        /* \"hopium/common/interface/imDirectory.sol\":1087:1154  require(msg.sender == Directory.owner(), \"Caller is not the owner\") */\n      tag_152\n      jumpi\n      mload(0x40)\n      0x08c379a000000000000000000000000000000000000000000000000000000000\n      dup2\n      mstore\n      0x04\n      add\n      tag_153\n      swap1\n      tag_92\n      jump\t// in\n    tag_153:\n      mload(0x40)\n      dup1\n      swap2\n      sub\n      swap1\n      revert\n    tag_152:\n        /* \"hopium/common/interface/imActive.sol\":360:367  _active */\n      dup1\n        /* \"hopium/common/interface/imActive.sol\":349:357  isActive */\n      0x02\n      dup1\n        /* \"hopium/common/interface/imActive.sol\":349:367  isActive = _active */\n      0x0100\n      exp\n      dup2\n      sload\n      dup2\n      0xff\n      mul\n      not\n      and\n      swap1\n      dup4\n      iszero\n      iszero\n      mul\n      or\n      swap1\n      sstore\n      pop\n        /* \"hopium/common/interface/imActive.sol\":289:374  function setActive(bool _active) public onlyOwner {... */\n      pop\n      jump\t// out\n        /* \"hopium/etf/main/etf-router.sol\":9092:9264  function changePlatformFee(uint16 newFee) public onlyOwner onlyActive {... */\n    tag_69:\n        /* \"hopium/common/interface/imDirectory.sol\":1109:1118  Directory */\n      0x00\n      0x00\n      swap1\n      sload\n      swap1\n      0x0100\n      exp\n      swap1\n      div\n      0xffffffffffffffffffffffffffffffffffffffff\n      and\n        /* \"hopium/common/interface/imDirectory.sol\":1109:1124  Directory.owner */\n      0xffffffffffffffffffffffffffffffffffffffff\n      and\n      0x8da5cb5b\n        /* \"hopium/common/interface/imDirectory.sol\":1109:1126  Directory.owner() */\n      mload(0x40)\n      dup2\n      0xffffffff\n      and\n      0xe0\n      shl\n      dup2\n      mstore\n      0x04\n      add\n      0x20\n      mload(0x40)\n      dup1\n      dup4\n      sub\n      dup2\n      dup7\n      gas\n      staticcall\n      iszero\n      dup1\n      iszero\n      tag_157\n      jumpi\n      returndatacopy(0x00, 0x00, returndatasize)\n      revert(0x00, returndatasize)\n    tag_157:\n      pop\n      pop\n      pop\n      pop\n      mload(0x40)\n      returndatasize\n      not(0x1f)\n      0x1f\n      dup3\n      add\n      and\n      dup3\n      add\n      dup1\n      0x40\n      mstore\n      pop\n      dup2\n      add\n      swap1\n      tag_158\n      swap2\n      swap1\n      tag_89\n      jump\t// in\n    tag_158:\n        /* \"hopium/common/interface/imDirectory.sol\":1095:1126  msg.sender == Directory.owner() */\n      0xffffffffffffffffffffffffffffffffffffffff\n      and\n        /* \"hopium/common/interface/imDirectory.sol\":1095:1105  msg.sender */\n      caller\n        /* \"hopium/common/interface/imDirectory.sol\":1095:1126  msg.sender == Directory.owner() */\n      0xffffffffffffffffffffffffffffffffffffffff\n      and\n      eq\n        /* \"hopium/common/interface/imDirectory.sol\":1087:1154  require(msg.sender == Directory.owner(), \"Caller is not the owner\") */\n      tag_159\n      jumpi\n      mload(0x40)\n      0x08c379a000000000000000000000000000000000000000000000000000000000\n      dup2\n      mstore\n      0x04\n      add\n      tag_160\n      swap1\n      tag_92\n      jump\t// in\n    tag_160:\n      mload(0x40)\n      dup1\n      swap2\n      sub\n      swap1\n      revert\n    tag_159:\n        /* \"hopium/common/interface/imActive.sol\":230:238  isActive */\n      0x02\n      dup1\n      sload\n      swap1\n      0x0100\n      exp\n      swap1\n      div\n      0xff\n      and\n        /* \"hopium/common/interface/imActive.sol\":222:265  require(isActive, \"Contract is not active\") */\n      tag_162\n      jumpi\n      mload(0x40)\n      0x08c379a000000000000000000000000000000000000000000000000000000000\n      dup2\n      mstore\n      0x04\n      add\n      tag_163\n      swap1\n      tag_102\n      jump\t// in\n    tag_163:\n      mload(0x40)\n      dup1\n      swap2\n      sub\n      swap1\n      revert\n    tag_162:\n        /* \"hopium/common/types/bips.sol\":97:103  10_000 */\n      0x2710\n        /* \"hopium/etf/main/etf-router.sol\":9176:9182  newFee */\n      dup2\n        /* \"hopium/etf/main/etf-router.sol\":9176:9205  newFee > HUNDRED_PERCENT_BIPS */\n      0xffff\n      and\n      gt\n        /* \"hopium/etf/main/etf-router.sol\":9172:9227  if (newFee > HUNDRED_PERCENT_BIPS) revert InvalidBips() */\n      iszero\n      tag_165\n      jumpi\n        /* \"hopium/etf/main/etf-router.sol\":9214:9227  InvalidBips() */\n      mload(0x40)\n      0xdeaa01e600000000000000000000000000000000000000000000000000000000\n      dup2\n      mstore\n      0x04\n      add\n      mload(0x40)\n      dup1\n      swap2\n      sub\n      swap1\n      revert\n        /* \"hopium/etf/main/etf-router.sol\":9172:9227  if (newFee > HUNDRED_PERCENT_BIPS) revert InvalidBips() */\n    tag_165:\n        /* \"hopium/etf/main/etf-router.sol\":9251:9257  newFee */\n      dup1\n        /* \"hopium/etf/main/etf-router.sol\":9237:9248  platformFee */\n      0x02\n      0x00\n        /* \"hopium/etf/main/etf-router.sol\":9237:9257  platformFee = newFee */\n      0x0100\n      exp\n      dup2\n      sload\n      dup2\n      0xffff\n      mul\n      not\n      and\n      swap1\n      dup4\n      0xffff\n      and\n      mul\n      or\n      swap1\n      sstore\n      pop\n        /* \"hopium/etf/main/etf-router.sol\":9092:9264  function changePlatformFee(uint16 newFee) public onlyOwner onlyActive {... */\n      pop\n      jump\t// out\n        /* \"hopium/common/interface/imDirectory.sol\":470:583  function changeDirectoryAddress(address _directory) external onlyOwner {... */\n    tag_74:\n        /* \"hopium/common/interface/imDirectory.sol\":1109:1118  Directory */\n      0x00\n      0x00\n      swap1\n      sload\n      swap1\n      0x0100\n      exp\n      swap1\n      div\n      0xffffffffffffffffffffffffffffffffffffffff\n      and\n        /* \"hopium/common/interface/imDirectory.sol\":1109:1124  Directory.owner */\n      0xffffffffffffffffffffffffffffffffffffffff\n      and\n      0x8da5cb5b\n        /* \"hopium/common/interface/imDirectory.sol\":1109:1126  Directory.owner() */\n      mload(0x40)\n      dup2\n      0xffffffff\n      and\n      0xe0\n      shl\n      dup2\n      mstore\n      0x04\n      add\n      0x20\n      mload(0x40)\n      dup1\n      dup4\n      sub\n      dup2\n      dup7\n      gas\n      staticcall\n      iszero\n      dup1\n      iszero\n      tag_168\n      jumpi\n      returndatacopy(0x00, 0x00, returndatasize)\n      revert(0x00, returndatasize)\n    tag_168:\n      pop\n      pop\n      pop\n      pop\n      mload(0x40)\n      returndatasize\n      not(0x1f)\n      0x1f\n      dup3\n      add\n      and\n      dup3\n      add\n      dup1\n      0x40\n      mstore\n      pop\n      dup2\n      add\n      swap1\n      tag_169\n      swap2\n      swap1\n      tag_89\n      jump\t// in\n    tag_169:\n        /* \"hopium/common/interface/imDirectory.sol\":1095:1126  msg.sender == Directory.owner() */\n      0xffffffffffffffffffffffffffffffffffffffff\n      and\n        /* \"hopium/common/interface/imDirectory.sol\":1095:1105  msg.sender */\n      caller\n        /* \"hopium/common/interface/imDirectory.sol\":1095:1126  msg.sender == Directory.owner() */\n      0xffffffffffffffffffffffffffffffffffffffff\n      and\n      eq\n        /* \"hopium/common/interface/imDirectory.sol\":1087:1154  require(msg.sender == Directory.owner(), \"Caller is not the owner\") */\n      tag_170\n      jumpi\n      mload(0x40)\n      0x08c379a000000000000000000000000000000000000000000000000000000000\n      dup2\n      mstore\n      0x04\n      add\n      tag_171\n      swap1\n      tag_92\n      jump\t// in\n    tag_171:\n      mload(0x40)\n      dup1\n      swap2\n      sub\n      swap1\n      revert\n    tag_170:\n        /* \"hopium/common/interface/imDirectory.sol\":551:576  _setDirectory(_directory) */\n      tag_173\n        /* \"hopium/common/interface/imDirectory.sol\":565:575  _directory */\n      dup2\n        /* \"hopium/common/interface/imDirectory.sol\":551:564  _setDirectory */\n      tag_174\n        /* \"hopium/common/interface/imDirectory.sol\":551:576  _setDirectory(_directory) */\n      jump\t// in\n    tag_173:\n        /* \"hopium/common/interface/imDirectory.sol\":470:583  function changeDirectoryAddress(address _directory) external onlyOwner {... */\n      pop\n      jump\t// out\n        /* \"hopium/etf/main/etf-router.sol\":9271:9475  function changeDefaultSlippage(uint32 newSlippageBips) external onlyOwner {... */\n    tag_79:\n        /* \"hopium/common/interface/imDirectory.sol\":1109:1118  Directory */\n      0x00\n      0x00\n      swap1\n      sload\n      swap1\n      0x0100\n      exp\n      swap1\n      div\n      0xffffffffffffffffffffffffffffffffffffffff\n      and\n        /* \"hopium/common/interface/imDirectory.sol\":1109:1124  Directory.owner */\n      0xffffffffffffffffffffffffffffffffffffffff\n      and\n      0x8da5cb5b\n        /* \"hopium/common/interface/imDirectory.sol\":1109:1126  Directory.owner() */\n      mload(0x40)\n      dup2\n      0xffffffff\n      and\n      0xe0\n      shl\n      dup2\n      mstore\n      0x04\n      add\n      0x20\n      mload(0x40)\n      dup1\n      dup4\n      sub\n      dup2\n      dup7\n      gas\n      staticcall\n      iszero\n      dup1\n      iszero\n      tag_177\n      jumpi\n      returndatacopy(0x00, 0x00, returndatasize)\n      revert(0x00, returndatasize)\n    tag_177:\n      pop\n      pop\n      pop\n      pop\n      mload(0x40)\n      returndatasize\n      not(0x1f)\n      0x1f\n      dup3\n      add\n      and\n      dup3\n      add\n      dup1\n      0x40\n      mstore\n      pop\n      dup2\n      add\n      swap1\n      tag_178\n      swap2\n      swap1\n      tag_89\n      jump\t// in\n    tag_178:\n        /* \"hopium/common/interface/imDirectory.sol\":1095:1126  msg.sender == Directory.owner() */\n      0xffffffffffffffffffffffffffffffffffffffff\n      and\n        /* \"hopium/common/interface/imDirectory.sol\":1095:1105  msg.sender */\n      caller\n        /* \"hopium/common/interface/imDirectory.sol\":1095:1126  msg.sender == Directory.owner() */\n      0xffffffffffffffffffffffffffffffffffffffff\n      and\n      eq\n        /* \"hopium/common/interface/imDirectory.sol\":1087:1154  require(msg.sender == Directory.owner(), \"Caller is not the owner\") */\n      tag_179\n      jumpi\n      mload(0x40)\n      0x08c379a000000000000000000000000000000000000000000000000000000000\n      dup2\n      mstore\n      0x04\n      add\n      tag_180\n      swap1\n      tag_92\n      jump\t// in\n    tag_180:\n      mload(0x40)\n      dup1\n      swap2\n      sub\n      swap1\n      revert\n    tag_179:\n        /* \"hopium/common/types/bips.sol\":97:103  10_000 */\n      0x2710\n        /* \"hopium/etf/main/etf-router.sol\":9359:9374  newSlippageBips */\n      dup2\n        /* \"hopium/etf/main/etf-router.sol\":9359:9397  newSlippageBips > HUNDRED_PERCENT_BIPS */\n      0xffffffff\n      and\n      gt\n        /* \"hopium/etf/main/etf-router.sol\":9355:9419  if (newSlippageBips > HUNDRED_PERCENT_BIPS) revert InvalidBips() */\n      iszero\n      tag_182\n      jumpi\n        /* \"hopium/etf/main/etf-router.sol\":9406:9419  InvalidBips() */\n      mload(0x40)\n      0xdeaa01e600000000000000000000000000000000000000000000000000000000\n      dup2\n      mstore\n      0x04\n      add\n      mload(0x40)\n      dup1\n      swap2\n      sub\n      swap1\n      revert\n        /* \"hopium/etf/main/etf-router.sol\":9355:9419  if (newSlippageBips > HUNDRED_PERCENT_BIPS) revert InvalidBips() */\n    tag_182:\n        /* \"hopium/etf/main/etf-router.sol\":9453:9468  newSlippageBips */\n      dup1\n        /* \"hopium/etf/main/etf-router.sol\":9429:9450  DEFAULT_SLIPPAGE_BIPS */\n      0x02\n      0x03\n        /* \"hopium/etf/main/etf-router.sol\":9429:9468  DEFAULT_SLIPPAGE_BIPS = newSlippageBips */\n      0x0100\n      exp\n      dup2\n      sload\n      dup2\n      0xffffffff\n      mul\n      not\n      and\n      swap1\n      dup4\n      0xffffffff\n      and\n      mul\n      or\n      swap1\n      sstore\n      pop\n        /* \"hopium/etf/main/etf-router.sol\":9271:9475  function changeDefaultSlippage(uint32 newSlippageBips) external onlyOwner {... */\n      pop\n      jump\t// out\n        /* \"hopium/etf/main/etf-router.sol\":7564:9086  function redeemEtfTokens(uint256 indexId, uint256 etfTokenAmount, address payable receiver) external nonReentrant onlyActive {... */\n    tag_84:\n        /* \"@openzeppelin/contracts/security/ReentrancyGuard.sol\":2261:2282  _nonReentrantBefore() */\n      tag_184\n        /* \"@openzeppelin/contracts/security/ReentrancyGuard.sol\":2261:2280  _nonReentrantBefore */\n      tag_98\n        /* \"@openzeppelin/contracts/security/ReentrancyGuard.sol\":2261:2282  _nonReentrantBefore() */\n      jump\t// in\n    tag_184:\n        /* \"hopium/common/interface/imActive.sol\":230:238  isActive */\n      0x02\n      dup1\n      sload\n      swap1\n      0x0100\n      exp\n      swap1\n      div\n      0xff\n      and\n        /* \"hopium/common/interface/imActive.sol\":222:265  require(isActive, \"Contract is not active\") */\n      tag_186\n      jumpi\n      mload(0x40)\n      0x08c379a000000000000000000000000000000000000000000000000000000000\n      dup2\n      mstore\n      0x04\n      add\n      tag_187\n      swap1\n      tag_102\n      jump\t// in\n    tag_187:\n      mload(0x40)\n      dup1\n      swap2\n      sub\n      swap1\n      revert\n    tag_186:\n        /* \"hopium/etf/main/etf-router.sol\":7721:7722  0 */\n      0x00\n        /* \"hopium/etf/main/etf-router.sol\":7703:7717  etfTokenAmount */\n      dup3\n        /* \"hopium/etf/main/etf-router.sol\":7703:7722  etfTokenAmount == 0 */\n      sub\n        /* \"hopium/etf/main/etf-router.sol\":7699:7745  if (etfTokenAmount == 0) revert ZeroMsgValue() */\n      tag_189\n      jumpi\n        /* \"hopium/etf/main/etf-router.sol\":7731:7745  ZeroMsgValue() */\n      mload(0x40)\n      0x790c8b3900000000000000000000000000000000000000000000000000000000\n      dup2\n      mstore\n      0x04\n      add\n      mload(0x40)\n      dup1\n      swap2\n      sub\n      swap1\n      revert\n        /* \"hopium/etf/main/etf-router.sol\":7699:7745  if (etfTokenAmount == 0) revert ZeroMsgValue() */\n    tag_189:\n        /* \"hopium/etf/main/etf-router.sol\":7779:7780  0 */\n      0x00\n        /* \"hopium/etf/main/etf-router.sol\":7759:7781  receiver == address(0) */\n      0xffffffffffffffffffffffffffffffffffffffff\n      and\n        /* \"hopium/etf/main/etf-router.sol\":7759:7767  receiver */\n      dup2\n        /* \"hopium/etf/main/etf-router.sol\":7759:7781  receiver == address(0) */\n      0xffffffffffffffffffffffffffffffffffffffff\n      and\n      sub\n        /* \"hopium/etf/main/etf-router.sol\":7755:7804  if (receiver == address(0)) revert ZeroReceiver() */\n      tag_190\n      jumpi\n        /* \"hopium/etf/main/etf-router.sol\":7790:7804  ZeroReceiver() */\n      mload(0x40)\n      0x6ba9ecd800000000000000000000000000000000000000000000000000000000\n      dup2\n      mstore\n      0x04\n      add\n      mload(0x40)\n      dup1\n      swap2\n      sub\n      swap1\n      revert\n        /* \"hopium/etf/main/etf-router.sol\":7755:7804  if (receiver == address(0)) revert ZeroReceiver() */\n    tag_190:\n        /* \"hopium/etf/main/etf-router.sol\":7815:7833  Index memory index */\n      0x00\n        /* \"hopium/etf/main/etf-router.sol\":7836:7853  getIndexFactory() */\n      tag_191\n        /* \"hopium/etf/main/etf-router.sol\":7836:7851  getIndexFactory */\n      tag_107\n        /* \"hopium/etf/main/etf-router.sol\":7836:7853  getIndexFactory() */\n      jump\t// in\n    tag_191:\n        /* \"hopium/etf/main/etf-router.sol\":7836:7866  getIndexFactory().getIndexById */\n      0xffffffffffffffffffffffffffffffffffffffff\n      and\n      0x549e122b\n        /* \"hopium/etf/main/etf-router.sol\":7867:7874  indexId */\n      dup6\n        /* \"hopium/etf/main/etf-router.sol\":7836:7875  getIndexFactory().getIndexById(indexId) */\n      mload(0x40)\n      dup3\n      0xffffffff\n      and\n      0xe0\n      shl\n      dup2\n      mstore\n      0x04\n      add\n      tag_192\n      swap2\n      swap1\n      tag_109\n      jump\t// in\n    tag_192:\n      0x00\n      mload(0x40)\n      dup1\n      dup4\n      sub\n      dup2\n      dup7\n      gas\n      staticcall\n      iszero\n      dup1\n      iszero\n      tag_194\n      jumpi\n      returndatacopy(0x00, 0x00, returndatasize)\n      revert(0x00, returndatasize)\n    tag_194:\n      pop\n      pop\n      pop\n      pop\n      mload(0x40)\n      returndatasize\n      0x00\n      dup3\n      returndatacopy\n      returndatasize\n      not(0x1f)\n      0x1f\n      dup3\n      add\n      and\n      dup3\n      add\n      dup1\n      0x40\n      mstore\n      pop\n      dup2\n      add\n      swap1\n      tag_195\n      swap2\n      swap1\n      tag_113\n      jump\t// in\n    tag_195:\n        /* \"hopium/etf/main/etf-router.sol\":7815:7875  Index memory index = getIndexFactory().getIndexById(indexId) */\n      swap1\n      pop\n        /* \"hopium/etf/main/etf-router.sol\":7886:7909  address etfTokenAddress */\n      0x00\n        /* \"hopium/etf/main/etf-router.sol\":7911:7934  address etfVaultAddress */\n      0x00\n        /* \"hopium/etf/main/etf-router.sol\":7938:7968  _resolveTokenAndVault(indexId) */\n      tag_196\n        /* \"hopium/etf/main/etf-router.sol\":7960:7967  indexId */\n      dup7\n        /* \"hopium/etf/main/etf-router.sol\":7938:7959  _resolveTokenAndVault */\n      tag_115\n        /* \"hopium/etf/main/etf-router.sol\":7938:7968  _resolveTokenAndVault(indexId) */\n      jump\t// in\n    tag_196:\n        /* \"hopium/etf/main/etf-router.sol\":7885:7968  (address etfTokenAddress, address etfVaultAddress) = _resolveTokenAndVault(indexId) */\n      swap2\n      pop\n      swap2\n      pop\n        /* \"hopium/etf/main/etf-router.sol\":8024:8044  uint256 supplyBefore */\n      0x00\n        /* \"hopium/etf/main/etf-router.sol\":8054:8069  etfTokenAddress */\n      dup3\n        /* \"hopium/etf/main/etf-router.sol\":8047:8082  IERC20(etfTokenAddress).totalSupply */\n      0xffffffffffffffffffffffffffffffffffffffff\n      and\n      0x18160ddd\n        /* \"hopium/etf/main/etf-router.sol\":8047:8084  IERC20(etfTokenAddress).totalSupply() */\n      mload(0x40)\n      dup2\n      0xffffffff\n      and\n      0xe0\n      shl\n      dup2\n      mstore\n      0x04\n      add\n      0x20\n      mload(0x40)\n      dup1\n      dup4\n      sub\n      dup2\n      dup7\n      gas\n      staticcall\n      iszero\n      dup1\n      iszero\n      tag_198\n      jumpi\n      returndatacopy(0x00, 0x00, returndatasize)\n      revert(0x00, returndatasize)\n    tag_198:\n      pop\n      pop\n      pop\n      pop\n      mload(0x40)\n      returndatasize\n      not(0x1f)\n      0x1f\n      dup3\n      add\n      and\n      dup3\n      add\n      dup1\n      0x40\n      mstore\n      pop\n      dup2\n      add\n      swap1\n      tag_199\n      swap2\n      swap1\n      tag_200\n      jump\t// in\n    tag_199:\n        /* \"hopium/etf/main/etf-router.sol\":8024:8084  uint256 supplyBefore = IERC20(etfTokenAddress).totalSupply() */\n      swap1\n      pop\n        /* \"hopium/etf/main/etf-router.sol\":8114:8115  0 */\n      0x00\n        /* \"hopium/etf/main/etf-router.sol\":8098:8110  supplyBefore */\n      dup2\n        /* \"hopium/etf/main/etf-router.sol\":8098:8115  supplyBefore == 0 */\n      sub\n        /* \"hopium/etf/main/etf-router.sol\":8094:8136  if (supplyBefore == 0) revert SupplyZero() */\n      tag_201\n      jumpi\n        /* \"hopium/etf/main/etf-router.sol\":8124:8136  SupplyZero() */\n      mload(0x40)\n      0x9fbba64f00000000000000000000000000000000000000000000000000000000\n      dup2\n      mstore\n      0x04\n      add\n      mload(0x40)\n      dup1\n      swap2\n      sub\n      swap1\n      revert\n        /* \"hopium/etf/main/etf-router.sol\":8094:8136  if (supplyBefore == 0) revert SupplyZero() */\n    tag_201:\n        /* \"hopium/etf/main/etf-router.sol\":8167:8179  supplyBefore */\n      dup1\n        /* \"hopium/etf/main/etf-router.sol\":8150:8164  etfTokenAmount */\n      dup7\n        /* \"hopium/etf/main/etf-router.sol\":8150:8179  etfTokenAmount > supplyBefore */\n      gt\n        /* \"hopium/etf/main/etf-router.sol\":8146:8204  if (etfTokenAmount > supplyBefore) revert RedeemTooLarge() */\n      iszero\n      tag_202\n      jumpi\n        /* \"hopium/etf/main/etf-router.sol\":8188:8204  RedeemTooLarge() */\n      mload(0x40)\n      0xdf69062500000000000000000000000000000000000000000000000000000000\n      dup2\n      mstore\n      0x04\n      add\n      mload(0x40)\n      dup1\n      swap2\n      sub\n      swap1\n      revert\n        /* \"hopium/etf/main/etf-router.sol\":8146:8204  if (etfTokenAmount > supplyBefore) revert RedeemTooLarge() */\n    tag_202:\n        /* \"hopium/etf/main/etf-router.sol\":8261:8276  etfTokenAddress */\n      dup3\n        /* \"hopium/etf/main/etf-router.sol\":8251:8282  IEtfToken(etfTokenAddress).burn */\n      0xffffffffffffffffffffffffffffffffffffffff\n      and\n      0x9dc29fac\n        /* \"hopium/etf/main/etf-router.sol\":8283:8293  msg.sender */\n      caller\n        /* \"hopium/etf/main/etf-router.sol\":8295:8309  etfTokenAmount */\n      dup9\n        /* \"hopium/etf/main/etf-router.sol\":8251:8310  IEtfToken(etfTokenAddress).burn(msg.sender, etfTokenAmount) */\n      mload(0x40)\n      dup4\n      0xffffffff\n      and\n      0xe0\n      shl\n      dup2\n      mstore\n      0x04\n      add\n      tag_203\n      swap3\n      swap2\n      swap1\n      tag_123\n      jump\t// in\n    tag_203:\n      0x00\n      mload(0x40)\n      dup1\n      dup4\n      sub\n      dup2\n      0x00\n      dup8\n      dup1\n      extcodesize\n      iszero\n      dup1\n      iszero\n      tag_204\n      jumpi\n      revert(0x00, 0x00)\n    tag_204:\n      pop\n      gas\n      call\n      iszero\n      dup1\n      iszero\n      tag_206\n      jumpi\n      returndatacopy(0x00, 0x00, returndatasize)\n      revert(0x00, returndatasize)\n    tag_206:\n      pop\n      pop\n      pop\n      pop\n        /* \"hopium/etf/main/etf-router.sol\":8372:8392  uint256 ethBalBefore */\n      0x00\n        /* \"hopium/etf/main/etf-router.sol\":8395:8416  address(this).balance */\n      selfbalance\n        /* \"hopium/etf/main/etf-router.sol\":8372:8416  uint256 ethBalBefore = address(this).balance */\n      swap1\n      pop\n        /* \"hopium/etf/main/etf-router.sol\":8426:8548  _swapVaultTokensToEth(index, etfTokenAmount, supplyBefore, etfVaultAddress, payable(address(this)), DEFAULT_SLIPPAGE_BIPS) */\n      tag_207\n        /* \"hopium/etf/main/etf-router.sol\":8448:8453  index */\n      dup6\n        /* \"hopium/etf/main/etf-router.sol\":8455:8469  etfTokenAmount */\n      dup9\n        /* \"hopium/etf/main/etf-router.sol\":8471:8483  supplyBefore */\n      dup5\n        /* \"hopium/etf/main/etf-router.sol\":8485:8500  etfVaultAddress */\n      dup7\n        /* \"hopium/etf/main/etf-router.sol\":8518:8522  this */\n      address\n        /* \"hopium/etf/main/etf-router.sol\":8526:8547  DEFAULT_SLIPPAGE_BIPS */\n      0x02\n      0x03\n      swap1\n      sload\n      swap1\n      0x0100\n      exp\n      swap1\n      div\n      0xffffffff\n      and\n        /* \"hopium/etf/main/etf-router.sol\":8426:8447  _swapVaultTokensToEth */\n      tag_208\n        /* \"hopium/etf/main/etf-router.sol\":8426:8548  _swapVaultTokensToEth(index, etfTokenAmount, supplyBefore, etfVaultAddress, payable(address(this)), DEFAULT_SLIPPAGE_BIPS) */\n      jump\t// in\n    tag_207:\n        /* \"hopium/etf/main/etf-router.sol\":8558:8577  uint256 ethBalAfter */\n      0x00\n        /* \"hopium/etf/main/etf-router.sol\":8580:8601  address(this).balance */\n      selfbalance\n        /* \"hopium/etf/main/etf-router.sol\":8558:8601  uint256 ethBalAfter = address(this).balance */\n      swap1\n      pop\n        /* \"hopium/etf/main/etf-router.sol\":8612:8628  uint256 deltaBal */\n      0x00\n        /* \"hopium/etf/main/etf-router.sol\":8645:8657  ethBalBefore */\n      dup3\n        /* \"hopium/etf/main/etf-router.sol\":8631:8642  ethBalAfter */\n      dup3\n        /* \"hopium/etf/main/etf-router.sol\":8631:8657  ethBalAfter - ethBalBefore */\n      tag_209\n      swap2\n      swap1\n      tag_210\n      jump\t// in\n    tag_209:\n        /* \"hopium/etf/main/etf-router.sol\":8612:8657  uint256 deltaBal = ethBalAfter - ethBalBefore */\n      swap1\n      pop\n        /* \"hopium/etf/main/etf-router.sol\":8683:8684  0 */\n      0x00\n        /* \"hopium/etf/main/etf-router.sol\":8671:8679  deltaBal */\n      dup2\n        /* \"hopium/etf/main/etf-router.sol\":8671:8684  deltaBal == 0 */\n      sub\n        /* \"hopium/etf/main/etf-router.sol\":8667:8707  if (deltaBal == 0) revert ZeroMsgValue() */\n      tag_211\n      jumpi\n        /* \"hopium/etf/main/etf-router.sol\":8693:8707  ZeroMsgValue() */\n      mload(0x40)\n      0x790c8b3900000000000000000000000000000000000000000000000000000000\n      dup2\n      mstore\n      0x04\n      add\n      mload(0x40)\n      dup1\n      swap2\n      sub\n      swap1\n      revert\n        /* \"hopium/etf/main/etf-router.sol\":8667:8707  if (deltaBal == 0) revert ZeroMsgValue() */\n    tag_211:\n        /* \"hopium/etf/main/etf-router.sol\":8778:8795  uint256 ethAmount */\n      0x00\n        /* \"hopium/etf/main/etf-router.sol\":8798:8828  _transferPlatformFee(deltaBal) */\n      tag_212\n        /* \"hopium/etf/main/etf-router.sol\":8819:8827  deltaBal */\n      dup3\n        /* \"hopium/etf/main/etf-router.sol\":8798:8818  _transferPlatformFee */\n      tag_117\n        /* \"hopium/etf/main/etf-router.sol\":8798:8828  _transferPlatformFee(deltaBal) */\n      jump\t// in\n    tag_212:\n        /* \"hopium/etf/main/etf-router.sol\":8778:8828  uint256 ethAmount = _transferPlatformFee(deltaBal) */\n      swap1\n      pop\n        /* \"hopium/etf/main/etf-router.sol\":8838:8882  TransferHelpers.sendEth(receiver, ethAmount) */\n      tag_213\n        /* \"hopium/etf/main/etf-router.sol\":8862:8870  receiver */\n      dup10\n        /* \"hopium/etf/main/etf-router.sol\":8872:8881  ethAmount */\n      dup3\n        /* \"hopium/etf/main/etf-router.sol\":8838:8861  TransferHelpers.sendEth */\n      tag_214\n        /* \"hopium/etf/main/etf-router.sol\":8838:8882  TransferHelpers.sendEth(receiver, ethAmount) */\n      jump\t// in\n    tag_213:\n        /* \"hopium/etf/main/etf-router.sol\":8937:8952  getEtfFactory() */\n      tag_215\n        /* \"hopium/etf/main/etf-router.sol\":8937:8950  getEtfFactory */\n      tag_128\n        /* \"hopium/etf/main/etf-router.sol\":8937:8952  getEtfFactory() */\n      jump\t// in\n    tag_215:\n        /* \"hopium/etf/main/etf-router.sol\":8937:8968  getEtfFactory().updateEtfVolume */\n      0xffffffffffffffffffffffffffffffffffffffff\n      and\n      0x1626542c\n        /* \"hopium/etf/main/etf-router.sol\":8969:8976  indexId */\n      dup13\n        /* \"hopium/etf/main/etf-router.sol\":8978:8987  ethAmount */\n      dup4\n        /* \"hopium/etf/main/etf-router.sol\":8937:8988  getEtfFactory().updateEtfVolume(indexId, ethAmount) */\n      mload(0x40)\n      dup4\n      0xffffffff\n      and\n      0xe0\n      shl\n      dup2\n      mstore\n      0x04\n      add\n      tag_216\n      swap3\n      swap2\n      swap1\n      tag_130\n      jump\t// in\n    tag_216:\n      0x00\n      mload(0x40)\n      dup1\n      dup4\n      sub\n      dup2\n      0x00\n      dup8\n      dup1\n      extcodesize\n      iszero\n      dup1\n      iszero\n      tag_217\n      jumpi\n      revert(0x00, 0x00)\n    tag_217:\n      pop\n      gas\n      call\n      iszero\n      dup1\n      iszero\n      tag_219\n      jumpi\n      returndatacopy(0x00, 0x00, returndatasize)\n      revert(0x00, returndatasize)\n    tag_219:\n      pop\n      pop\n      pop\n      pop\n        /* \"hopium/etf/main/etf-router.sol\":9004:9079  EtfTokensRedeemed(indexId, msg.sender, receiver, etfTokenAmount, ethAmount) */\n      0x658f1eb57c83d50db011863e074e65f706d0f4a2123171054a851b6ac829394f\n        /* \"hopium/etf/main/etf-router.sol\":9022:9029  indexId */\n      dup12\n        /* \"hopium/etf/main/etf-router.sol\":9031:9041  msg.sender */\n      caller\n        /* \"hopium/etf/main/etf-router.sol\":9043:9051  receiver */\n      dup12\n        /* \"hopium/etf/main/etf-router.sol\":9053:9067  etfTokenAmount */\n      dup14\n        /* \"hopium/etf/main/etf-router.sol\":9069:9078  ethAmount */\n      dup6\n        /* \"hopium/etf/main/etf-router.sol\":9004:9079  EtfTokensRedeemed(indexId, msg.sender, receiver, etfTokenAmount, ethAmount) */\n      mload(0x40)\n      tag_220\n      swap6\n      swap5\n      swap4\n      swap3\n      swap2\n      swap1\n      tag_221\n      jump\t// in\n    tag_220:\n      mload(0x40)\n      dup1\n      swap2\n      sub\n      swap1\n      log1\n        /* \"hopium/etf/main/etf-router.sol\":7689:9086  {... */\n      pop\n      pop\n      pop\n      pop\n      pop\n      pop\n      pop\n      pop\n        /* \"@openzeppelin/contracts/security/ReentrancyGuard.sol\":2303:2323  _nonReentrantAfter() */\n      tag_222\n        /* \"@openzeppelin/contracts/security/ReentrancyGuard.sol\":2303:2321  _nonReentrantAfter */\n      tag_137\n        /* \"@openzeppelin/contracts/security/ReentrancyGuard.sol\":2303:2323  _nonReentrantAfter() */\n      jump\t// in\n    tag_222:\n        /* \"hopium/etf/main/etf-router.sol\":7564:9086  function redeemEtfTokens(uint256 indexId, uint256 etfTokenAmount, address payable receiver) external nonReentrant onlyActive {... */\n      pop\n      pop\n      pop\n      jump\t// out\n        /* \"hopium/common/lib/transfer-helpers.sol\":4062:4162  function recoverAsset(address token, address to) internal {... */\n    tag_95:\n        /* \"hopium/common/lib/transfer-helpers.sol\":4130:4155  sendEthOrToken(token, to) */\n      tag_224\n        /* \"hopium/common/lib/transfer-helpers.sol\":4145:4150  token */\n      dup3\n        /* \"hopium/common/lib/transfer-helpers.sol\":4152:4154  to */\n      dup3\n        /* \"hopium/common/lib/transfer-helpers.sol\":4130:4144  sendEthOrToken */\n      tag_225\n        /* \"hopium/common/lib/transfer-helpers.sol\":4130:4155  sendEthOrToken(token, to) */\n      jump\t// in\n    tag_224:\n        /* \"hopium/common/lib/transfer-helpers.sol\":4062:4162  function recoverAsset(address token, address to) internal {... */\n      pop\n      pop\n      jump\t// out\n        /* \"@openzeppelin/contracts/security/ReentrancyGuard.sol\":2336:2623  function _nonReentrantBefore() private {... */\n    tag_98:\n        /* \"@openzeppelin/contracts/security/ReentrancyGuard.sol\":1759:1760  2 */\n      0x02\n        /* \"@openzeppelin/contracts/security/ReentrancyGuard.sol\":2468:2475  _status */\n      sload(0x01)\n        /* \"@openzeppelin/contracts/security/ReentrancyGuard.sol\":2468:2487  _status != _ENTERED */\n      sub\n        /* \"@openzeppelin/contracts/security/ReentrancyGuard.sol\":2460:2523  require(_status != _ENTERED, \"ReentrancyGuard: reentrant call\") */\n      tag_227\n      jumpi\n      mload(0x40)\n      0x08c379a000000000000000000000000000000000000000000000000000000000\n      dup2\n      mstore\n      0x04\n      add\n      tag_228\n      swap1\n      tag_229\n      jump\t// in\n    tag_228:\n      mload(0x40)\n      dup1\n      swap2\n      sub\n      swap1\n      revert\n    tag_227:\n        /* \"@openzeppelin/contracts/security/ReentrancyGuard.sol\":1759:1760  2 */\n      0x02\n        /* \"@openzeppelin/contracts/security/ReentrancyGuard.sol\":2598:2605  _status */\n      0x01\n        /* \"@openzeppelin/contracts/security/ReentrancyGuard.sol\":2598:2616  _status = _ENTERED */\n      dup2\n      swap1\n      sstore\n      pop\n        /* \"@openzeppelin/contracts/security/ReentrancyGuard.sol\":2336:2623  function _nonReentrantBefore() private {... */\n      jump\t// out\n        /* \"hopium/etf/interface/imIndexFactory.sol\":385:532  function getIndexFactory() internal view virtual returns (IIndexFactory) {... */\n    tag_107:\n        /* \"hopium/etf/interface/imIndexFactory.sol\":443:456  IIndexFactory */\n      0x00\n        /* \"hopium/etf/interface/imIndexFactory.sol\":489:524  fetchFromDirectory(\"index-factory\") */\n      tag_231\n      mload(0x40)\n      dup1\n      0x40\n      add\n      0x40\n      mstore\n      dup1\n      0x0d\n      dup2\n      mstore\n      0x20\n      add\n      0x696e6465782d666163746f727900000000000000000000000000000000000000\n      dup2\n      mstore\n      pop\n        /* \"hopium/etf/interface/imIndexFactory.sol\":489:507  fetchFromDirectory */\n      tag_48\n        /* \"hopium/etf/interface/imIndexFactory.sol\":489:524  fetchFromDirectory(\"index-factory\") */\n      jump\t// in\n    tag_231:\n        /* \"hopium/etf/interface/imIndexFactory.sol\":468:525  return IIndexFactory(fetchFromDirectory(\"index-factory\")) */\n      swap1\n      pop\n        /* \"hopium/etf/interface/imIndexFactory.sol\":385:532  function getIndexFactory() internal view virtual returns (IIndexFactory) {... */\n      swap1\n      jump\t// out\n        /* \"hopium/etf/main/etf-router.sol\":5216:5658  function _resolveTokenAndVault(uint256 indexId) internal view returns (address etfTokenAddress, address etfVaultAddress) {... */\n    tag_115:\n        /* \"hopium/etf/main/etf-router.sol\":5287:5310  address etfTokenAddress */\n      0x00\n        /* \"hopium/etf/main/etf-router.sol\":5312:5335  address etfVaultAddress */\n      0x00\n        /* \"hopium/etf/main/etf-router.sol\":5365:5393  _getEtfTokenAddress(indexId) */\n      tag_233\n        /* \"hopium/etf/main/etf-router.sol\":5385:5392  indexId */\n      dup4\n        /* \"hopium/etf/main/etf-router.sol\":5365:5384  _getEtfTokenAddress */\n      tag_234\n        /* \"hopium/etf/main/etf-router.sol\":5365:5393  _getEtfTokenAddress(indexId) */\n      jump\t// in\n    tag_233:\n        /* \"hopium/etf/main/etf-router.sol\":5347:5393  etfTokenAddress = _getEtfTokenAddress(indexId) */\n      swap2\n      pop\n        /* \"hopium/etf/main/etf-router.sol\":5421:5449  _getEtfVaultAddress(indexId) */\n      tag_235\n        /* \"hopium/etf/main/etf-router.sol\":5441:5448  indexId */\n      dup4\n        /* \"hopium/etf/main/etf-router.sol\":5421:5440  _getEtfVaultAddress */\n      tag_236\n        /* \"hopium/etf/main/etf-router.sol\":5421:5449  _getEtfVaultAddress(indexId) */\n      jump\t// in\n    tag_235:\n        /* \"hopium/etf/main/etf-router.sol\":5403:5449  etfVaultAddress = _getEtfVaultAddress(indexId) */\n      swap1\n      pop\n        /* \"hopium/etf/main/etf-router.sol\":5490:5491  0 */\n      0x00\n        /* \"hopium/etf/main/etf-router.sol\":5463:5492  etfTokenAddress == address(0) */\n      0xffffffffffffffffffffffffffffffffffffffff\n      and\n        /* \"hopium/etf/main/etf-router.sol\":5463:5478  etfTokenAddress */\n      dup3\n        /* \"hopium/etf/main/etf-router.sol\":5463:5492  etfTokenAddress == address(0) */\n      0xffffffffffffffffffffffffffffffffffffffff\n      and\n      sub\n        /* \"hopium/etf/main/etf-router.sol\":5459:5515  if (etfTokenAddress == address(0)) revert ZeroReceiver() */\n      tag_237\n      jumpi\n        /* \"hopium/etf/main/etf-router.sol\":5501:5515  ZeroReceiver() */\n      mload(0x40)\n      0x6ba9ecd800000000000000000000000000000000000000000000000000000000\n      dup2\n      mstore\n      0x04\n      add\n      mload(0x40)\n      dup1\n      swap2\n      sub\n      swap1\n      revert\n        /* \"hopium/etf/main/etf-router.sol\":5459:5515  if (etfTokenAddress == address(0)) revert ZeroReceiver() */\n    tag_237:\n        /* \"hopium/etf/main/etf-router.sol\":5626:5627  0 */\n      0x00\n        /* \"hopium/etf/main/etf-router.sol\":5599:5628  etfVaultAddress == address(0) */\n      0xffffffffffffffffffffffffffffffffffffffff\n      and\n        /* \"hopium/etf/main/etf-router.sol\":5599:5614  etfVaultAddress */\n      dup2\n        /* \"hopium/etf/main/etf-router.sol\":5599:5628  etfVaultAddress == address(0) */\n      0xffffffffffffffffffffffffffffffffffffffff\n      and\n      sub\n        /* \"hopium/etf/main/etf-router.sol\":5595:5651  if (etfVaultAddress == address(0)) revert ZeroReceiver() */\n      tag_238\n      jumpi\n        /* \"hopium/etf/main/etf-router.sol\":5637:5651  ZeroReceiver() */\n      mload(0x40)\n      0x6ba9ecd800000000000000000000000000000000000000000000000000000000\n      dup2\n      mstore\n      0x04\n      add\n      mload(0x40)\n      dup1\n      swap2\n      sub\n      swap1\n      revert\n        /* \"hopium/etf/main/etf-router.sol\":5595:5651  if (etfVaultAddress == address(0)) revert ZeroReceiver() */\n    tag_238:\n        /* \"hopium/etf/main/etf-router.sol\":5216:5658  function _resolveTokenAndVault(uint256 indexId) internal view returns (address etfTokenAddress, address etfVaultAddress) {... */\n      swap2\n      pop\n      swap2\n      jump\t// out\n        /* \"hopium/etf/main/etf-router.sol\":5664:6133  function _transferPlatformFee(uint256 amount) internal returns (uint256 netAmount) {... */\n    tag_117:\n        /* \"hopium/etf/main/etf-router.sol\":5728:5745  uint256 netAmount */\n      0x00\n        /* \"hopium/etf/main/etf-router.sol\":5757:5770  address vault */\n      0x00\n        /* \"hopium/etf/main/etf-router.sol\":5773:5800  fetchFromDirectory(\"vault\") */\n      tag_240\n      mload(0x40)\n      dup1\n      0x40\n      add\n      0x40\n      mstore\n      dup1\n      0x05\n      dup2\n      mstore\n      0x20\n      add\n      0x7661756c74000000000000000000000000000000000000000000000000000000\n      dup2\n      mstore\n      pop\n        /* \"hopium/etf/main/etf-router.sol\":5773:5791  fetchFromDirectory */\n      tag_48\n        /* \"hopium/etf/main/etf-router.sol\":5773:5800  fetchFromDirectory(\"vault\") */\n      jump\t// in\n    tag_240:\n        /* \"hopium/etf/main/etf-router.sol\":5757:5800  address vault = fetchFromDirectory(\"vault\") */\n      swap1\n      pop\n        /* \"hopium/etf/main/etf-router.sol\":5810:5824  uint16 feeBips */\n      0x00\n        /* \"hopium/etf/main/etf-router.sol\":5827:5838  platformFee */\n      0x02\n      0x00\n      swap1\n      sload\n      swap1\n      0x0100\n      exp\n      swap1\n      div\n      0xffff\n      and\n        /* \"hopium/etf/main/etf-router.sol\":5810:5838  uint16 feeBips = platformFee */\n      swap1\n      pop\n        /* \"hopium/etf/main/etf-router.sol\":5870:5871  0 */\n      0x00\n        /* \"hopium/etf/main/etf-router.sol\":5853:5872  vault == address(0) */\n      0xffffffffffffffffffffffffffffffffffffffff\n      and\n        /* \"hopium/etf/main/etf-router.sol\":5853:5858  vault */\n      dup3\n        /* \"hopium/etf/main/etf-router.sol\":5853:5872  vault == address(0) */\n      0xffffffffffffffffffffffffffffffffffffffff\n      and\n      eq\n        /* \"hopium/etf/main/etf-router.sol\":5853:5888  vault == address(0) || feeBips == 0 */\n      dup1\n      tag_241\n      jumpi\n      pop\n        /* \"hopium/etf/main/etf-router.sol\":5887:5888  0 */\n      0x00\n        /* \"hopium/etf/main/etf-router.sol\":5876:5883  feeBips */\n      dup2\n        /* \"hopium/etf/main/etf-router.sol\":5876:5888  feeBips == 0 */\n      0xffff\n      and\n      eq\n        /* \"hopium/etf/main/etf-router.sol\":5853:5888  vault == address(0) || feeBips == 0 */\n    tag_241:\n        /* \"hopium/etf/main/etf-router.sol\":5849:5903  if (vault == address(0) || feeBips == 0) return amount */\n      iszero\n      tag_242\n      jumpi\n        /* \"hopium/etf/main/etf-router.sol\":5897:5903  amount */\n      dup4\n        /* \"hopium/etf/main/etf-router.sol\":5890:5903  return amount */\n      swap3\n      pop\n      pop\n      pop\n      jump(tag_239)\n        /* \"hopium/etf/main/etf-router.sol\":5849:5903  if (vault == address(0) || feeBips == 0) return amount */\n    tag_242:\n        /* \"hopium/etf/main/etf-router.sol\":5914:5925  uint256 fee */\n      0x00\n        /* \"hopium/common/types/bips.sol\":97:103  10_000 */\n      0x2710\n        /* \"hopium/etf/main/etf-router.sol\":5946:5953  feeBips */\n      dup3\n        /* \"hopium/etf/main/etf-router.sol\":5938:5954  uint256(feeBips) */\n      0xffff\n      and\n        /* \"hopium/etf/main/etf-router.sol\":5929:5935  amount */\n      dup7\n        /* \"hopium/etf/main/etf-router.sol\":5929:5954  amount * uint256(feeBips) */\n      tag_243\n      swap2\n      swap1\n      tag_244\n      jump\t// in\n    tag_243:\n        /* \"hopium/etf/main/etf-router.sol\":5928:5987  (amount * uint256(feeBips)) / uint256(HUNDRED_PERCENT_BIPS) */\n      tag_245\n      swap2\n      swap1\n      tag_246\n      jump\t// in\n    tag_245:\n        /* \"hopium/etf/main/etf-router.sol\":5914:5987  uint256 fee = (amount * uint256(feeBips)) / uint256(HUNDRED_PERCENT_BIPS) */\n      swap1\n      pop\n        /* \"hopium/etf/main/etf-router.sol\":6008:6009  0 */\n      0x00\n        /* \"hopium/etf/main/etf-router.sol\":6001:6004  fee */\n      dup2\n        /* \"hopium/etf/main/etf-router.sol\":6001:6009  fee != 0 */\n      eq\n        /* \"hopium/etf/main/etf-router.sol\":5997:6104  if (fee != 0) {... */\n      tag_247\n      jumpi\n        /* \"hopium/etf/main/etf-router.sol\":6025:6060  TransferHelpers.sendEth(vault, fee) */\n      tag_248\n        /* \"hopium/etf/main/etf-router.sol\":6049:6054  vault */\n      dup4\n        /* \"hopium/etf/main/etf-router.sol\":6056:6059  fee */\n      dup3\n        /* \"hopium/etf/main/etf-router.sol\":6025:6048  TransferHelpers.sendEth */\n      tag_214\n        /* \"hopium/etf/main/etf-router.sol\":6025:6060  TransferHelpers.sendEth(vault, fee) */\n      jump\t// in\n    tag_248:\n        /* \"hopium/etf/main/etf-router.sol\":6090:6093  fee */\n      dup1\n        /* \"hopium/etf/main/etf-router.sol\":6081:6087  amount */\n      dup6\n        /* \"hopium/etf/main/etf-router.sol\":6081:6093  amount - fee */\n      tag_249\n      swap2\n      swap1\n      tag_210\n      jump\t// in\n    tag_249:\n        /* \"hopium/etf/main/etf-router.sol\":6074:6093  return amount - fee */\n      swap4\n      pop\n      pop\n      pop\n      pop\n      jump(tag_239)\n        /* \"hopium/etf/main/etf-router.sol\":5997:6104  if (fee != 0) {... */\n    tag_247:\n        /* \"hopium/etf/main/etf-router.sol\":6120:6126  amount */\n      dup5\n        /* \"hopium/etf/main/etf-router.sol\":6113:6126  return amount */\n      swap4\n      pop\n      pop\n      pop\n      pop\n        /* \"hopium/etf/main/etf-router.sol\":5664:6133  function _transferPlatformFee(uint256 amount) internal returns (uint256 netAmount) {... */\n    tag_239:\n      swap2\n      swap1\n      pop\n      jump\t// out\n        /* \"hopium/etf/main/etf-router.sol\":4261:5210  function _calcMintAmount(... */\n    tag_119:\n        /* \"hopium/etf/main/etf-router.sol\":4401:4419  uint256 mintAmount */\n      0x00\n        /* \"hopium/etf/main/etf-router.sol\":4500:4520  uint256 supplyBefore */\n      0x00\n        /* \"hopium/etf/main/etf-router.sol\":4530:4545  etfTokenAddress */\n      dup3\n        /* \"hopium/etf/main/etf-router.sol\":4523:4558  IERC20(etfTokenAddress).totalSupply */\n      0xffffffffffffffffffffffffffffffffffffffff\n      and\n      0x18160ddd\n        /* \"hopium/etf/main/etf-router.sol\":4523:4560  IERC20(etfTokenAddress).totalSupply() */\n      mload(0x40)\n      dup2\n      0xffffffff\n      and\n      0xe0\n      shl\n      dup2\n      mstore\n      0x04\n      add\n      0x20\n      mload(0x40)\n      dup1\n      dup4\n      sub\n      dup2\n      dup7\n      gas\n      staticcall\n      iszero\n      dup1\n      iszero\n      tag_252\n      jumpi\n      returndatacopy(0x00, 0x00, returndatasize)\n      revert(0x00, returndatasize)\n    tag_252:\n      pop\n      pop\n      pop\n      pop\n      mload(0x40)\n      returndatasize\n      not(0x1f)\n      0x1f\n      dup3\n      add\n      and\n      dup3\n      add\n      dup1\n      0x40\n      mstore\n      pop\n      dup2\n      add\n      swap1\n      tag_253\n      swap2\n      swap1\n      tag_200\n      jump\t// in\n    tag_253:\n        /* \"hopium/etf/main/etf-router.sol\":4500:4560  uint256 supplyBefore = IERC20(etfTokenAddress).totalSupply() */\n      swap1\n      pop\n        /* \"hopium/etf/main/etf-router.sol\":4591:4592  0 */\n      0x00\n        /* \"hopium/etf/main/etf-router.sol\":4575:4587  supplyBefore */\n      dup2\n        /* \"hopium/etf/main/etf-router.sol\":4575:4592  supplyBefore == 0 */\n      sub\n        /* \"hopium/etf/main/etf-router.sol\":4571:5204  if (supplyBefore == 0) {... */\n      tag_254\n      jumpi\n        /* \"hopium/etf/main/etf-router.sol\":4681:4698  uint256 priceWeth */\n      0x00\n        /* \"hopium/etf/main/etf-router.sol\":4701:4722  getIndexPriceOracle() */\n      tag_255\n        /* \"hopium/etf/main/etf-router.sol\":4701:4720  getIndexPriceOracle */\n      tag_256\n        /* \"hopium/etf/main/etf-router.sol\":4701:4722  getIndexPriceOracle() */\n      jump\t// in\n    tag_255:\n        /* \"hopium/etf/main/etf-router.sol\":4701:4740  getIndexPriceOracle().getIndexWethPrice */\n      0xffffffffffffffffffffffffffffffffffffffff\n      and\n      0xc9d54fa7\n        /* \"hopium/etf/main/etf-router.sol\":4741:4748  indexId */\n      dup8\n        /* \"hopium/etf/main/etf-router.sol\":4701:4749  getIndexPriceOracle().getIndexWethPrice(indexId) */\n      mload(0x40)\n      dup3\n      0xffffffff\n      and\n      0xe0\n      shl\n      dup2\n      mstore\n      0x04\n      add\n      tag_257\n      swap2\n      swap1\n      tag_109\n      jump\t// in\n    tag_257:\n      0x20\n      mload(0x40)\n      dup1\n      dup4\n      sub\n      dup2\n      dup7\n      gas\n      staticcall\n      iszero\n      dup1\n      iszero\n      tag_259\n      jumpi\n      returndatacopy(0x00, 0x00, returndatasize)\n      revert(0x00, returndatasize)\n    tag_259:\n      pop\n      pop\n      pop\n      pop\n      mload(0x40)\n      returndatasize\n      not(0x1f)\n      0x1f\n      dup3\n      add\n      and\n      dup3\n      add\n      dup1\n      0x40\n      mstore\n      pop\n      dup2\n      add\n      swap1\n      tag_260\n      swap2\n      swap1\n      tag_200\n      jump\t// in\n    tag_260:\n        /* \"hopium/etf/main/etf-router.sol\":4681:4749  uint256 priceWeth = getIndexPriceOracle().getIndexWethPrice(indexId) */\n      swap1\n      pop\n        /* \"hopium/etf/main/etf-router.sol\":4780:4781  0 */\n      0x00\n        /* \"hopium/etf/main/etf-router.sol\":4767:4776  priceWeth */\n      dup2\n        /* \"hopium/etf/main/etf-router.sol\":4767:4781  priceWeth == 0 */\n      sub\n        /* \"hopium/etf/main/etf-router.sol\":4763:4806  if (priceWeth == 0) revert ZeroIndexPrice() */\n      tag_261\n      jumpi\n        /* \"hopium/etf/main/etf-router.sol\":4790:4806  ZeroIndexPrice() */\n      mload(0x40)\n      0x75f308b500000000000000000000000000000000000000000000000000000000\n      dup2\n      mstore\n      0x04\n      add\n      mload(0x40)\n      dup1\n      swap2\n      sub\n      swap1\n      revert\n        /* \"hopium/etf/main/etf-router.sol\":4763:4806  if (priceWeth == 0) revert ZeroIndexPrice() */\n    tag_261:\n        /* \"hopium/etf/main/etf-router.sol\":4899:4908  priceWeth */\n      dup1\n        /* \"hopium/etf/main/etf-router.sol\":681:685  1e18 */\n      0x0de0b6b3a7640000\n        /* \"hopium/etf/main/etf-router.sol\":4879:4889  wethAmount */\n      dup7\n        /* \"hopium/etf/main/etf-router.sol\":4879:4895  wethAmount * WAD */\n      tag_262\n      swap2\n      swap1\n      tag_244\n      jump\t// in\n    tag_262:\n        /* \"hopium/etf/main/etf-router.sol\":4878:4908  (wethAmount * WAD) / priceWeth */\n      tag_263\n      swap2\n      swap1\n      tag_246\n      jump\t// in\n    tag_263:\n        /* \"hopium/etf/main/etf-router.sol\":4865:4908  mintAmount = (wethAmount * WAD) / priceWeth */\n      swap3\n      pop\n        /* \"hopium/etf/main/etf-router.sol\":4594:4919  {... */\n      pop\n        /* \"hopium/etf/main/etf-router.sol\":4571:5204  if (supplyBefore == 0) {... */\n      jump(tag_264)\n    tag_254:\n        /* \"hopium/etf/main/etf-router.sol\":4939:4960  uint256 navWethBefore */\n      0x00\n        /* \"hopium/etf/main/etf-router.sol\":4963:4978  getEtfFactory() */\n      tag_265\n        /* \"hopium/etf/main/etf-router.sol\":4963:4976  getEtfFactory */\n      tag_128\n        /* \"hopium/etf/main/etf-router.sol\":4963:4978  getEtfFactory() */\n      jump\t// in\n    tag_265:\n        /* \"hopium/etf/main/etf-router.sol\":4963:4992  getEtfFactory().getEtfNavWeth */\n      0xffffffffffffffffffffffffffffffffffffffff\n      and\n      0xe4b603b3\n        /* \"hopium/etf/main/etf-router.sol\":4993:5000  indexId */\n      dup8\n        /* \"hopium/etf/main/etf-router.sol\":4963:5001  getEtfFactory().getEtfNavWeth(indexId) */\n      mload(0x40)\n      dup3\n      0xffffffff\n      and\n      0xe0\n      shl\n      dup2\n      mstore\n      0x04\n      add\n      tag_266\n      swap2\n      swap1\n      tag_109\n      jump\t// in\n    tag_266:\n      0x20\n      mload(0x40)\n      dup1\n      dup4\n      sub\n      dup2\n      dup7\n      gas\n      staticcall\n      iszero\n      dup1\n      iszero\n      tag_268\n      jumpi\n      returndatacopy(0x00, 0x00, returndatasize)\n      revert(0x00, returndatasize)\n    tag_268:\n      pop\n      pop\n      pop\n      pop\n      mload(0x40)\n      returndatasize\n      not(0x1f)\n      0x1f\n      dup3\n      add\n      and\n      dup3\n      add\n      dup1\n      0x40\n      mstore\n      pop\n      dup2\n      add\n      swap1\n      tag_269\n      swap2\n      swap1\n      tag_200\n      jump\t// in\n    tag_269:\n        /* \"hopium/etf/main/etf-router.sol\":4939:5001  uint256 navWethBefore = getEtfFactory().getEtfNavWeth(indexId) */\n      swap1\n      pop\n        /* \"hopium/etf/main/etf-router.sol\":5036:5037  0 */\n      0x00\n        /* \"hopium/etf/main/etf-router.sol\":5019:5032  navWethBefore */\n      dup2\n        /* \"hopium/etf/main/etf-router.sol\":5019:5037  navWethBefore == 0 */\n      sub\n        /* \"hopium/etf/main/etf-router.sol\":5015:5055  if (navWethBefore == 0) revert ZeroNav() */\n      tag_270\n      jumpi\n        /* \"hopium/etf/main/etf-router.sol\":5046:5055  ZeroNav() */\n      mload(0x40)\n      0x4178056200000000000000000000000000000000000000000000000000000000\n      dup2\n      mstore\n      0x04\n      add\n      mload(0x40)\n      dup1\n      swap2\n      sub\n      swap1\n      revert\n        /* \"hopium/etf/main/etf-router.sol\":5015:5055  if (navWethBefore == 0) revert ZeroNav() */\n    tag_270:\n        /* \"hopium/etf/main/etf-router.sol\":5180:5193  navWethBefore */\n      dup1\n        /* \"hopium/etf/main/etf-router.sol\":5164:5176  supplyBefore */\n      dup3\n        /* \"hopium/etf/main/etf-router.sol\":5151:5161  wethAmount */\n      dup7\n        /* \"hopium/etf/main/etf-router.sol\":5151:5176  wethAmount * supplyBefore */\n      tag_271\n      swap2\n      swap1\n      tag_244\n      jump\t// in\n    tag_271:\n        /* \"hopium/etf/main/etf-router.sol\":5150:5193  (wethAmount * supplyBefore) / navWethBefore */\n      tag_272\n      swap2\n      swap1\n      tag_246\n      jump\t// in\n    tag_272:\n        /* \"hopium/etf/main/etf-router.sol\":5137:5193  mintAmount = (wethAmount * supplyBefore) / navWethBefore */\n      swap3\n      pop\n        /* \"hopium/etf/main/etf-router.sol\":4925:5204  {... */\n      pop\n        /* \"hopium/etf/main/etf-router.sol\":4571:5204  if (supplyBefore == 0) {... */\n    tag_264:\n        /* \"hopium/etf/main/etf-router.sol\":4421:5210  {... */\n      pop\n        /* \"hopium/etf/main/etf-router.sol\":4261:5210  function _calcMintAmount(... */\n      swap4\n      swap3\n      pop\n      pop\n      pop\n      jump\t// out\n        /* \"hopium/etf/main/etf-router.sol\":1424:2181  function _swapEthToVaultTokens(... */\n    tag_121:\n        /* \"hopium/etf/main/etf-router.sol\":1595:1606  uint256 len */\n      0x00\n        /* \"hopium/etf/main/etf-router.sol\":1609:1614  index */\n      dup5\n        /* \"hopium/etf/main/etf-router.sol\":1609:1623  index.holdings */\n      0x40\n      add\n      mload\n        /* \"hopium/etf/main/etf-router.sol\":1609:1630  index.holdings.length */\n      mload\n        /* \"hopium/etf/main/etf-router.sol\":1595:1630  uint256 len = index.holdings.length */\n      swap1\n      pop\n        /* \"hopium/etf/main/etf-router.sol\":1651:1652  0 */\n      0x00\n        /* \"hopium/etf/main/etf-router.sol\":1644:1647  len */\n      dup2\n        /* \"hopium/etf/main/etf-router.sol\":1644:1652  len == 0 */\n      sub\n        /* \"hopium/etf/main/etf-router.sol\":1640:1661  if (len == 0) return; */\n      tag_274\n      jumpi\n        /* \"hopium/etf/main/etf-router.sol\":1654:1661  return; */\n      pop\n      jump(tag_273)\n        /* \"hopium/etf/main/etf-router.sol\":1640:1661  if (len == 0) return; */\n    tag_274:\n        /* \"hopium/etf/main/etf-router.sol\":1671:1704  MultiTokenOutput[] memory outputs */\n      0x00\n        /* \"hopium/etf/main/etf-router.sol\":1730:1733  len */\n      dup2\n        /* \"hopium/etf/main/etf-router.sol\":1707:1734  new MultiTokenOutput[](len) */\n      0xffffffffffffffff\n      dup2\n      gt\n      iszero\n      tag_275\n      jumpi\n      tag_276\n      tag_277\n      jump\t// in\n    tag_276:\n    tag_275:\n      mload(0x40)\n      swap1\n      dup1\n      dup3\n      mstore\n      dup1\n      0x20\n      mul\n      0x20\n      add\n      dup3\n      add\n      0x40\n      mstore\n      dup1\n      iszero\n      tag_278\n      jumpi\n      dup2\n      0x20\n      add\n    tag_279:\n      tag_280\n      tag_281\n      jump\t// in\n    tag_280:\n      dup2\n      mstore\n      0x20\n      add\n      swap1\n      0x01\n      swap1\n      sub\n      swap1\n      dup2\n      tag_279\n      jumpi\n      swap1\n      pop\n    tag_278:\n      pop\n        /* \"hopium/etf/main/etf-router.sol\":1671:1734  MultiTokenOutput[] memory outputs = new MultiTokenOutput[](len) */\n      swap1\n      pop\n        /* \"hopium/etf/main/etf-router.sol\":1773:1782  uint256 i */\n      0x00\n        /* \"hopium/etf/main/etf-router.sol\":1768:2008  for (uint256 i; i < len; ++i) {... */\n    tag_282:\n        /* \"hopium/etf/main/etf-router.sol\":1788:1791  len */\n      dup3\n        /* \"hopium/etf/main/etf-router.sol\":1784:1785  i */\n      dup2\n        /* \"hopium/etf/main/etf-router.sol\":1784:1791  i < len */\n      lt\n        /* \"hopium/etf/main/etf-router.sol\":1768:2008  for (uint256 i; i < len; ++i) {... */\n      iszero\n      tag_283\n      jumpi\n        /* \"hopium/etf/main/etf-router.sol\":1829:1993  MultiTokenOutput({... */\n      mload(0x40)\n      dup1\n      0x40\n      add\n      0x40\n      mstore\n      dup1\n        /* \"hopium/etf/main/etf-router.sol\":1882:1887  index */\n      dup9\n        /* \"hopium/etf/main/etf-router.sol\":1882:1896  index.holdings */\n      0x40\n      add\n      mload\n        /* \"hopium/etf/main/etf-router.sol\":1897:1898  i */\n      dup4\n        /* \"hopium/etf/main/etf-router.sol\":1882:1899  index.holdings[i] */\n      dup2\n      mload\n      dup2\n      lt\n      tag_285\n      jumpi\n      tag_286\n      tag_287\n      jump\t// in\n    tag_286:\n    tag_285:\n      0x20\n      mul\n      0x20\n      add\n      add\n      mload\n        /* \"hopium/etf/main/etf-router.sol\":1882:1912  index.holdings[i].tokenAddress */\n      0x00\n      add\n      mload\n        /* \"hopium/etf/main/etf-router.sol\":1829:1993  MultiTokenOutput({... */\n      0xffffffffffffffffffffffffffffffffffffffff\n      and\n      dup2\n      mstore\n      0x20\n      add\n        /* \"hopium/etf/main/etf-router.sol\":1946:1951  index */\n      dup9\n        /* \"hopium/etf/main/etf-router.sol\":1946:1960  index.holdings */\n      0x40\n      add\n      mload\n        /* \"hopium/etf/main/etf-router.sol\":1961:1962  i */\n      dup4\n        /* \"hopium/etf/main/etf-router.sol\":1946:1963  index.holdings[i] */\n      dup2\n      mload\n      dup2\n      lt\n      tag_288\n      jumpi\n      tag_289\n      tag_287\n      jump\t// in\n    tag_289:\n    tag_288:\n      0x20\n      mul\n      0x20\n      add\n      add\n      mload\n        /* \"hopium/etf/main/etf-router.sol\":1946:1974  index.holdings[i].weightBips */\n      0x20\n      add\n      mload\n        /* \"hopium/etf/main/etf-router.sol\":1829:1993  MultiTokenOutput({... */\n      0xffff\n      and\n      dup2\n      mstore\n      pop\n        /* \"hopium/etf/main/etf-router.sol\":1816:1823  outputs */\n      dup3\n        /* \"hopium/etf/main/etf-router.sol\":1824:1825  i */\n      dup3\n        /* \"hopium/etf/main/etf-router.sol\":1816:1826  outputs[i] */\n      dup2\n      mload\n      dup2\n      lt\n      tag_290\n      jumpi\n      tag_291\n      tag_287\n      jump\t// in\n    tag_291:\n    tag_290:\n      0x20\n      mul\n      0x20\n      add\n      add\n        /* \"hopium/etf/main/etf-router.sol\":1816:1993  outputs[i] = MultiTokenOutput({... */\n      dup2\n      swap1\n      mstore\n      pop\n        /* \"hopium/etf/main/etf-router.sol\":1793:1796  ++i */\n      dup1\n      0x01\n      add\n      swap1\n      pop\n        /* \"hopium/etf/main/etf-router.sol\":1768:2008  for (uint256 i; i < len; ++i) {... */\n      jump(tag_282)\n    tag_283:\n      pop\n        /* \"hopium/etf/main/etf-router.sol\":2028:2048  getMultiSwapRouter() */\n      tag_292\n        /* \"hopium/etf/main/etf-router.sol\":2028:2046  getMultiSwapRouter */\n      tag_293\n        /* \"hopium/etf/main/etf-router.sol\":2028:2048  getMultiSwapRouter() */\n      jump\t// in\n    tag_292:\n        /* \"hopium/etf/main/etf-router.sol\":2028:2072  getMultiSwapRouter().swapEthToMultipleTokens */\n      0xffffffffffffffffffffffffffffffffffffffff\n      and\n      0x1623306b\n        /* \"hopium/etf/main/etf-router.sol\":2080:2089  ethAmount */\n      dup7\n        /* \"hopium/etf/main/etf-router.sol\":2104:2111  outputs */\n      dup4\n        /* \"hopium/etf/main/etf-router.sol\":2125:2138  receiverVault */\n      dup8\n        /* \"hopium/etf/main/etf-router.sol\":2152:2164  slippageBips */\n      dup8\n        /* \"hopium/etf/main/etf-router.sol\":2028:2174  getMultiSwapRouter().swapEthToMultipleTokens{value: ethAmount}(... */\n      mload(0x40)\n      dup6\n      0xffffffff\n      and\n      0xe0\n      shl\n      dup2\n      mstore\n      0x04\n      add\n      tag_294\n      swap4\n      swap3\n      swap2\n      swap1\n      tag_295\n      jump\t// in\n    tag_294:\n      0x00\n      mload(0x40)\n      dup1\n      dup4\n      sub\n      dup2\n      dup6\n      dup9\n      dup1\n      extcodesize\n      iszero\n      dup1\n      iszero\n      tag_296\n      jumpi\n      revert(0x00, 0x00)\n    tag_296:\n      pop\n      gas\n      call\n      iszero\n      dup1\n      iszero\n      tag_298\n      jumpi\n      returndatacopy(0x00, 0x00, returndatasize)\n      revert(0x00, returndatasize)\n    tag_298:\n      pop\n      pop\n      pop\n      pop\n      pop\n        /* \"hopium/etf/main/etf-router.sol\":1585:2181  {... */\n      pop\n      pop\n        /* \"hopium/etf/main/etf-router.sol\":1424:2181  function _swapEthToVaultTokens(... */\n    tag_273:\n      pop\n      pop\n      pop\n      pop\n      jump\t// out\n        /* \"hopium/etf/interface/imEtfFactory.sol\":344:483  function getEtfFactory() internal view virtual returns (IEtfFactory) {... */\n    tag_128:\n        /* \"hopium/etf/interface/imEtfFactory.sol\":400:411  IEtfFactory */\n      0x00\n        /* \"hopium/etf/interface/imEtfFactory.sol\":442:475  fetchFromDirectory(\"etf-factory\") */\n      tag_300\n      mload(0x40)\n      dup1\n      0x40\n      add\n      0x40\n      mstore\n      dup1\n      0x0b\n      dup2\n      mstore\n      0x20\n      add\n      0x6574662d666163746f7279000000000000000000000000000000000000000000\n      dup2\n      mstore\n      pop\n        /* \"hopium/etf/interface/imEtfFactory.sol\":442:460  fetchFromDirectory */\n      tag_48\n        /* \"hopium/etf/interface/imEtfFactory.sol\":442:475  fetchFromDirectory(\"etf-factory\") */\n      jump\t// in\n    tag_300:\n        /* \"hopium/etf/interface/imEtfFactory.sol\":423:476  return IEtfFactory(fetchFromDirectory(\"etf-factory\")) */\n      swap1\n      pop\n        /* \"hopium/etf/interface/imEtfFactory.sol\":344:483  function getEtfFactory() internal view virtual returns (IEtfFactory) {... */\n      swap1\n      jump\t// out\n        /* \"@openzeppelin/contracts/security/ReentrancyGuard.sol\":2629:2838  function _nonReentrantAfter() private {... */\n    tag_137:\n        /* \"@openzeppelin/contracts/security/ReentrancyGuard.sol\":1716:1717  1 */\n      0x01\n        /* \"@openzeppelin/contracts/security/ReentrancyGuard.sol\":2809:2816  _status */\n      dup1\n        /* \"@openzeppelin/contracts/security/ReentrancyGuard.sol\":2809:2831  _status = _NOT_ENTERED */\n      dup2\n      swap1\n      sstore\n      pop\n        /* \"@openzeppelin/contracts/security/ReentrancyGuard.sol\":2629:2838  function _nonReentrantAfter() private {... */\n      jump\t// out\n        /* \"hopium/common/interface/imDirectory.sol\":589:1050  function _setDirectory(address _directory) internal {... */\n    tag_174:\n        /* \"hopium/common/interface/imDirectory.sol\":681:682  0 */\n      0x00\n        /* \"hopium/common/interface/imDirectory.sol\":659:683  _directory != address(0) */\n      0xffffffffffffffffffffffffffffffffffffffff\n      and\n        /* \"hopium/common/interface/imDirectory.sol\":659:669  _directory */\n      dup2\n        /* \"hopium/common/interface/imDirectory.sol\":659:683  _directory != address(0) */\n      0xffffffffffffffffffffffffffffffffffffffff\n      and\n      sub\n        /* \"hopium/common/interface/imDirectory.sol\":651:720  require(_directory != address(0), \"Directory cannot be zero address\") */\n      tag_303\n      jumpi\n      mload(0x40)\n      0x08c379a000000000000000000000000000000000000000000000000000000000\n      dup2\n      mstore\n      0x04\n      add\n      tag_304\n      swap1\n      tag_305\n      jump\t// in\n    tag_304:\n      mload(0x40)\n      dup1\n      swap2\n      sub\n      swap1\n      revert\n    tag_303:\n        /* \"hopium/common/interface/imDirectory.sol\":763:764  0 */\n      0x00\n        /* \"hopium/common/interface/imDirectory.sol\":738:748  _directory */\n      dup2\n        /* \"hopium/common/interface/imDirectory.sol\":738:760  _directory.code.length */\n      0xffffffffffffffffffffffffffffffffffffffff\n      and\n      extcodesize\n        /* \"hopium/common/interface/imDirectory.sol\":738:764  _directory.code.length > 0 */\n      gt\n        /* \"hopium/common/interface/imDirectory.sol\":730:797  require(_directory.code.length > 0, \"Directory must be a contract\") */\n      tag_306\n      jumpi\n      mload(0x40)\n      0x08c379a000000000000000000000000000000000000000000000000000000000\n      dup2\n      mstore\n      0x04\n      add\n      tag_307\n      swap1\n      tag_308\n      jump\t// in\n    tag_307:\n      mload(0x40)\n      dup1\n      swap2\n      sub\n      swap1\n      revert\n    tag_306:\n        /* \"hopium/common/interface/imDirectory.sol\":861:871  _directory */\n      dup1\n        /* \"hopium/common/interface/imDirectory.sol\":850:878  IDirectory(_directory).owner */\n      0xffffffffffffffffffffffffffffffffffffffff\n      and\n      0x8da5cb5b\n        /* \"hopium/common/interface/imDirectory.sol\":850:880  IDirectory(_directory).owner() */\n      mload(0x40)\n      dup2\n      0xffffffff\n      and\n      0xe0\n      shl\n      dup2\n      mstore\n      0x04\n      add\n      0x20\n      mload(0x40)\n      dup1\n      dup4\n      sub\n      dup2\n      dup7\n      gas\n      staticcall\n      swap3\n      pop\n      pop\n      pop\n      dup1\n      iszero\n      tag_309\n      jumpi\n      pop\n      mload(0x40)\n      returndatasize\n      not(0x1f)\n      0x1f\n      dup3\n      add\n      and\n      dup3\n      add\n      dup1\n      0x40\n      mstore\n      pop\n      dup2\n      add\n      swap1\n      tag_310\n      swap2\n      swap1\n      tag_89\n      jump\t// in\n    tag_310:\n      0x01\n    tag_309:\n        /* \"hopium/common/interface/imDirectory.sol\":846:1044  try IDirectory(_directory).owner() returns (address) {... */\n      tag_311\n      jumpi\n        /* \"hopium/common/interface/imDirectory.sol\":979:1033  revert(\"Directory address does not implement owner()\") */\n      mload(0x40)\n      0x08c379a000000000000000000000000000000000000000000000000000000000\n      dup2\n      mstore\n      0x04\n      add\n      tag_315\n      swap1\n      tag_316\n      jump\t// in\n    tag_315:\n      mload(0x40)\n      dup1\n      swap2\n      sub\n      swap1\n      revert\n        /* \"hopium/common/interface/imDirectory.sol\":846:1044  try IDirectory(_directory).owner() returns (address) {... */\n    tag_311:\n        /* \"hopium/common/interface/imDirectory.sol\":936:946  _directory */\n      dup2\n        /* \"hopium/common/interface/imDirectory.sol\":913:922  Directory */\n      0x00\n      0x00\n        /* \"hopium/common/interface/imDirectory.sol\":913:947  Directory = IDirectory(_directory) */\n      0x0100\n      exp\n      dup2\n      sload\n      dup2\n      0xffffffffffffffffffffffffffffffffffffffff\n      mul\n      not\n      and\n      swap1\n      dup4\n      0xffffffffffffffffffffffffffffffffffffffff\n      and\n      mul\n      or\n      swap1\n      sstore\n      pop\n        /* \"hopium/common/interface/imDirectory.sol\":881:958  returns (address) {... */\n      pop\n        /* \"hopium/common/interface/imDirectory.sol\":589:1050  function _setDirectory(address _directory) internal {... */\n      pop\n      jump\t// out\n        /* \"hopium/etf/main/etf-router.sol\":2303:4129  function _swapVaultTokensToEth(... */\n    tag_208:\n        /* \"hopium/etf/main/etf-router.sol\":2558:2569  uint256 len */\n      0x00\n        /* \"hopium/etf/main/etf-router.sol\":2572:2577  index */\n      dup7\n        /* \"hopium/etf/main/etf-router.sol\":2572:2586  index.holdings */\n      0x40\n      add\n      mload\n        /* \"hopium/etf/main/etf-router.sol\":2572:2593  index.holdings.length */\n      mload\n        /* \"hopium/etf/main/etf-router.sol\":2558:2593  uint256 len = index.holdings.length */\n      swap1\n      pop\n        /* \"hopium/etf/main/etf-router.sol\":2653:2679  uint256[] memory withdraws */\n      0x00\n        /* \"hopium/etf/main/etf-router.sol\":2696:2699  len */\n      dup2\n        /* \"hopium/etf/main/etf-router.sol\":2682:2700  new uint256[](len) */\n      0xffffffffffffffff\n      dup2\n      gt\n      iszero\n      tag_319\n      jumpi\n      tag_320\n      tag_277\n      jump\t// in\n    tag_320:\n    tag_319:\n      mload(0x40)\n      swap1\n      dup1\n      dup3\n      mstore\n      dup1\n      0x20\n      mul\n      0x20\n      add\n      dup3\n      add\n      0x40\n      mstore\n      dup1\n      iszero\n      tag_321\n      jumpi\n      dup2\n      0x20\n      add\n      0x20\n      dup3\n      mul\n      dup1\n      calldatasize\n      dup4\n      calldatacopy\n      dup1\n      dup3\n      add\n      swap2\n      pop\n      pop\n      swap1\n      pop\n    tag_321:\n      pop\n        /* \"hopium/etf/main/etf-router.sol\":2653:2700  uint256[] memory withdraws = new uint256[](len) */\n      swap1\n      pop\n        /* \"hopium/etf/main/etf-router.sol\":2710:2730  uint256 nonZeroCount */\n      0x00\n        /* \"hopium/etf/main/etf-router.sol\":2769:2778  uint256 i */\n      0x00\n        /* \"hopium/etf/main/etf-router.sol\":2764:3095  for (uint256 i; i < len; ++i) {... */\n    tag_322:\n        /* \"hopium/etf/main/etf-router.sol\":2784:2787  len */\n      dup4\n        /* \"hopium/etf/main/etf-router.sol\":2780:2781  i */\n      dup2\n        /* \"hopium/etf/main/etf-router.sol\":2780:2787  i < len */\n      lt\n        /* \"hopium/etf/main/etf-router.sol\":2764:3095  for (uint256 i; i < len; ++i) {... */\n      iszero\n      tag_323\n      jumpi\n        /* \"hopium/etf/main/etf-router.sol\":2812:2821  address t */\n      0x00\n        /* \"hopium/etf/main/etf-router.sol\":2824:2829  index */\n      dup11\n        /* \"hopium/etf/main/etf-router.sol\":2824:2838  index.holdings */\n      0x40\n      add\n      mload\n        /* \"hopium/etf/main/etf-router.sol\":2839:2840  i */\n      dup3\n        /* \"hopium/etf/main/etf-router.sol\":2824:2841  index.holdings[i] */\n      dup2\n      mload\n      dup2\n      lt\n      tag_325\n      jumpi\n      tag_326\n      tag_287\n      jump\t// in\n    tag_326:\n    tag_325:\n      0x20\n      mul\n      0x20\n      add\n      add\n      mload\n        /* \"hopium/etf/main/etf-router.sol\":2824:2854  index.holdings[i].tokenAddress */\n      0x00\n      add\n      mload\n        /* \"hopium/etf/main/etf-router.sol\":2812:2854  address t = index.holdings[i].tokenAddress */\n      swap1\n      pop\n        /* \"hopium/etf/main/etf-router.sol\":2872:2883  uint256 bal */\n      0x00\n        /* \"hopium/etf/main/etf-router.sol\":2893:2894  t */\n      dup2\n        /* \"hopium/etf/main/etf-router.sol\":2886:2905  IERC20(t).balanceOf */\n      0xffffffffffffffffffffffffffffffffffffffff\n      and\n      0x70a08231\n        /* \"hopium/etf/main/etf-router.sol\":2906:2921  etfVaultAddress */\n      dup11\n        /* \"hopium/etf/main/etf-router.sol\":2886:2922  IERC20(t).balanceOf(etfVaultAddress) */\n      mload(0x40)\n      dup3\n      0xffffffff\n      and\n      0xe0\n      shl\n      dup2\n      mstore\n      0x04\n      add\n      tag_327\n      swap2\n      swap1\n      tag_50\n      jump\t// in\n    tag_327:\n      0x20\n      mload(0x40)\n      dup1\n      dup4\n      sub\n      dup2\n      dup7\n      gas\n      staticcall\n      iszero\n      dup1\n      iszero\n      tag_329\n      jumpi\n      returndatacopy(0x00, 0x00, returndatasize)\n      revert(0x00, returndatasize)\n    tag_329:\n      pop\n      pop\n      pop\n      pop\n      mload(0x40)\n      returndatasize\n      not(0x1f)\n      0x1f\n      dup3\n      add\n      and\n      dup3\n      add\n      dup1\n      0x40\n      mstore\n      pop\n      dup2\n      add\n      swap1\n      tag_330\n      swap2\n      swap1\n      tag_200\n      jump\t// in\n    tag_330:\n        /* \"hopium/etf/main/etf-router.sol\":2872:2922  uint256 bal = IERC20(t).balanceOf(etfVaultAddress) */\n      swap1\n      pop\n        /* \"hopium/etf/main/etf-router.sol\":2940:2949  uint256 w */\n      0x00\n        /* \"hopium/etf/main/etf-router.sol\":2977:3002  etfTokenTotalSupplyBefore */\n      dup11\n        /* \"hopium/etf/main/etf-router.sol\":2959:2973  etfTokenAmount */\n      dup13\n        /* \"hopium/etf/main/etf-router.sol\":2953:2956  bal */\n      dup4\n        /* \"hopium/etf/main/etf-router.sol\":2953:2973  bal * etfTokenAmount */\n      mul\n        /* \"hopium/etf/main/etf-router.sol\":2952:3002  (bal * etfTokenAmount) / etfTokenTotalSupplyBefore */\n      dup2\n      tag_331\n      jumpi\n      tag_332\n      tag_333\n      jump\t// in\n    tag_332:\n    tag_331:\n      div\n        /* \"hopium/etf/main/etf-router.sol\":2940:3002  uint256 w = (bal * etfTokenAmount) / etfTokenTotalSupplyBefore */\n      swap1\n      pop\n        /* \"hopium/etf/main/etf-router.sol\":3035:3036  w */\n      dup1\n        /* \"hopium/etf/main/etf-router.sol\":3020:3029  withdraws */\n      dup7\n        /* \"hopium/etf/main/etf-router.sol\":3030:3031  i */\n      dup6\n        /* \"hopium/etf/main/etf-router.sol\":3020:3032  withdraws[i] */\n      dup2\n      mload\n      dup2\n      lt\n      tag_334\n      jumpi\n      tag_335\n      tag_287\n      jump\t// in\n    tag_335:\n    tag_334:\n      0x20\n      mul\n      0x20\n      add\n      add\n        /* \"hopium/etf/main/etf-router.sol\":3020:3036  withdraws[i] = w */\n      dup2\n      dup2\n      mstore\n      pop\n      pop\n        /* \"hopium/etf/main/etf-router.sol\":3063:3064  0 */\n      0x00\n        /* \"hopium/etf/main/etf-router.sol\":3058:3059  w */\n      dup2\n        /* \"hopium/etf/main/etf-router.sol\":3058:3064  w != 0 */\n      eq\n        /* \"hopium/etf/main/etf-router.sol\":3054:3080  if (w != 0) ++nonZeroCount */\n      tag_336\n      jumpi\n        /* \"hopium/etf/main/etf-router.sol\":3066:3080  ++nonZeroCount */\n      dup5\n      0x01\n      add\n      swap5\n      pop\n        /* \"hopium/etf/main/etf-router.sol\":3054:3080  if (w != 0) ++nonZeroCount */\n    tag_336:\n        /* \"hopium/etf/main/etf-router.sol\":2794:3095  {... */\n      pop\n      pop\n      pop\n        /* \"hopium/etf/main/etf-router.sol\":2789:2792  ++i */\n      dup1\n      0x01\n      add\n      swap1\n      pop\n        /* \"hopium/etf/main/etf-router.sol\":2764:3095  for (uint256 i; i < len; ++i) {... */\n      jump(tag_322)\n    tag_323:\n      pop\n        /* \"hopium/etf/main/etf-router.sol\":3134:3135  0 */\n      0x00\n        /* \"hopium/etf/main/etf-router.sol\":3118:3130  nonZeroCount */\n      dup2\n        /* \"hopium/etf/main/etf-router.sol\":3118:3135  nonZeroCount == 0 */\n      sub\n        /* \"hopium/etf/main/etf-router.sol\":3114:3163  if (nonZeroCount == 0) revert NothingToWithdraw() */\n      tag_337\n      jumpi\n        /* \"hopium/etf/main/etf-router.sol\":3144:3163  NothingToWithdraw() */\n      mload(0x40)\n      0xd0d04f6000000000000000000000000000000000000000000000000000000000\n      dup2\n      mstore\n      0x04\n      add\n      mload(0x40)\n      dup1\n      swap2\n      sub\n      swap1\n      revert\n        /* \"hopium/etf/main/etf-router.sol\":3114:3163  if (nonZeroCount == 0) revert NothingToWithdraw() */\n    tag_337:\n        /* \"hopium/etf/main/etf-router.sol\":3254:3286  IMultiSwapRouter multiSwapRouter */\n      0x00\n        /* \"hopium/etf/main/etf-router.sol\":3289:3309  getMultiSwapRouter() */\n      tag_338\n        /* \"hopium/etf/main/etf-router.sol\":3289:3307  getMultiSwapRouter */\n      tag_293\n        /* \"hopium/etf/main/etf-router.sol\":3289:3309  getMultiSwapRouter() */\n      jump\t// in\n    tag_338:\n        /* \"hopium/etf/main/etf-router.sol\":3254:3309  IMultiSwapRouter multiSwapRouter = getMultiSwapRouter() */\n      swap1\n      pop\n        /* \"hopium/etf/main/etf-router.sol\":3319:3337  address routerAddr */\n      0x00\n        /* \"hopium/etf/main/etf-router.sol\":3348:3363  multiSwapRouter */\n      dup2\n        /* \"hopium/etf/main/etf-router.sol\":3319:3364  address routerAddr = address(multiSwapRouter) */\n      swap1\n      pop\n        /* \"hopium/etf/main/etf-router.sol\":3374:3405  MultiTokenInput[] memory inputs */\n      0x00\n        /* \"hopium/etf/main/etf-router.sol\":3430:3442  nonZeroCount */\n      dup4\n        /* \"hopium/etf/main/etf-router.sol\":3408:3443  new MultiTokenInput[](nonZeroCount) */\n      0xffffffffffffffff\n      dup2\n      gt\n      iszero\n      tag_339\n      jumpi\n      tag_340\n      tag_277\n      jump\t// in\n    tag_340:\n    tag_339:\n      mload(0x40)\n      swap1\n      dup1\n      dup3\n      mstore\n      dup1\n      0x20\n      mul\n      0x20\n      add\n      dup3\n      add\n      0x40\n      mstore\n      dup1\n      iszero\n      tag_341\n      jumpi\n      dup2\n      0x20\n      add\n    tag_342:\n      tag_343\n      tag_344\n      jump\t// in\n    tag_343:\n      dup2\n      mstore\n      0x20\n      add\n      swap1\n      0x01\n      swap1\n      sub\n      swap1\n      dup2\n      tag_342\n      jumpi\n      swap1\n      pop\n    tag_341:\n      pop\n        /* \"hopium/etf/main/etf-router.sol\":3374:3443  MultiTokenInput[] memory inputs = new MultiTokenInput[](nonZeroCount) */\n      swap1\n      pop\n        /* \"hopium/etf/main/etf-router.sol\":3453:3462  uint256 k */\n      0x00\n        /* \"hopium/etf/main/etf-router.sol\":3501:3510  uint256 i */\n      0x00\n        /* \"hopium/etf/main/etf-router.sol\":3496:3901  for (uint256 i; i < len; ++i) {... */\n    tag_345:\n        /* \"hopium/etf/main/etf-router.sol\":3516:3519  len */\n      dup8\n        /* \"hopium/etf/main/etf-router.sol\":3512:3513  i */\n      dup2\n        /* \"hopium/etf/main/etf-router.sol\":3512:3519  i < len */\n      lt\n        /* \"hopium/etf/main/etf-router.sol\":3496:3901  for (uint256 i; i < len; ++i) {... */\n      iszero\n      tag_346\n      jumpi\n        /* \"hopium/etf/main/etf-router.sol\":3544:3553  uint256 w */\n      0x00\n        /* \"hopium/etf/main/etf-router.sol\":3556:3565  withdraws */\n      dup8\n        /* \"hopium/etf/main/etf-router.sol\":3566:3567  i */\n      dup3\n        /* \"hopium/etf/main/etf-router.sol\":3556:3568  withdraws[i] */\n      dup2\n      mload\n      dup2\n      lt\n      tag_348\n      jumpi\n      tag_349\n      tag_287\n      jump\t// in\n    tag_349:\n    tag_348:\n      0x20\n      mul\n      0x20\n      add\n      add\n      mload\n        /* \"hopium/etf/main/etf-router.sol\":3544:3568  uint256 w = withdraws[i] */\n      swap1\n      pop\n        /* \"hopium/etf/main/etf-router.sol\":3595:3596  0 */\n      0x00\n        /* \"hopium/etf/main/etf-router.sol\":3590:3591  w */\n      dup2\n        /* \"hopium/etf/main/etf-router.sol\":3590:3596  w == 0 */\n      sub\n        /* \"hopium/etf/main/etf-router.sol\":3586:3606  if (w == 0) continue */\n      tag_350\n      jumpi\n        /* \"hopium/etf/main/etf-router.sol\":3598:3606  continue */\n      pop\n      jump(tag_347)\n        /* \"hopium/etf/main/etf-router.sol\":3586:3606  if (w == 0) continue */\n    tag_350:\n        /* \"hopium/etf/main/etf-router.sol\":3624:3633  address t */\n      0x00\n        /* \"hopium/etf/main/etf-router.sol\":3636:3641  index */\n      dup16\n        /* \"hopium/etf/main/etf-router.sol\":3636:3650  index.holdings */\n      0x40\n      add\n      mload\n        /* \"hopium/etf/main/etf-router.sol\":3651:3652  i */\n      dup4\n        /* \"hopium/etf/main/etf-router.sol\":3636:3653  index.holdings[i] */\n      dup2\n      mload\n      dup2\n      lt\n      tag_351\n      jumpi\n      tag_352\n      tag_287\n      jump\t// in\n    tag_352:\n    tag_351:\n      0x20\n      mul\n      0x20\n      add\n      add\n      mload\n        /* \"hopium/etf/main/etf-router.sol\":3636:3666  index.holdings[i].tokenAddress */\n      0x00\n      add\n      mload\n        /* \"hopium/etf/main/etf-router.sol\":3624:3666  address t = index.holdings[i].tokenAddress */\n      swap1\n      pop\n        /* \"hopium/etf/main/etf-router.sol\":3765:3780  etfVaultAddress */\n      dup13\n        /* \"hopium/etf/main/etf-router.sol\":3755:3788  IEtfVault(etfVaultAddress).redeem */\n      0xffffffffffffffffffffffffffffffffffffffff\n      and\n      0x5c833bfd\n        /* \"hopium/etf/main/etf-router.sol\":3789:3790  t */\n      dup3\n        /* \"hopium/etf/main/etf-router.sol\":3792:3793  w */\n      dup5\n        /* \"hopium/etf/main/etf-router.sol\":3795:3805  routerAddr */\n      dup10\n        /* \"hopium/etf/main/etf-router.sol\":3755:3806  IEtfVault(etfVaultAddress).redeem(t, w, routerAddr) */\n      mload(0x40)\n      dup5\n      0xffffffff\n      and\n      0xe0\n      shl\n      dup2\n      mstore\n      0x04\n      add\n      tag_353\n      swap4\n      swap3\n      swap2\n      swap1\n      tag_354\n      jump\t// in\n    tag_353:\n      0x00\n      mload(0x40)\n      dup1\n      dup4\n      sub\n      dup2\n      0x00\n      dup8\n      dup1\n      extcodesize\n      iszero\n      dup1\n      iszero\n      tag_355\n      jumpi\n      revert(0x00, 0x00)\n    tag_355:\n      pop\n      gas\n      call\n      iszero\n      dup1\n      iszero\n      tag_357\n      jumpi\n      returndatacopy(0x00, 0x00, returndatasize)\n      revert(0x00, returndatasize)\n    tag_357:\n      pop\n      pop\n      pop\n      pop\n        /* \"hopium/etf/main/etf-router.sol\":3839:3886  MultiTokenInput({ tokenAddress: t, amount: w }) */\n      mload(0x40)\n      dup1\n      0x40\n      add\n      0x40\n      mstore\n      dup1\n        /* \"hopium/etf/main/etf-router.sol\":3871:3872  t */\n      dup3\n        /* \"hopium/etf/main/etf-router.sol\":3839:3886  MultiTokenInput({ tokenAddress: t, amount: w }) */\n      0xffffffffffffffffffffffffffffffffffffffff\n      and\n      dup2\n      mstore\n      0x20\n      add\n        /* \"hopium/etf/main/etf-router.sol\":3882:3883  w */\n      dup4\n        /* \"hopium/etf/main/etf-router.sol\":3839:3886  MultiTokenInput({ tokenAddress: t, amount: w }) */\n      dup2\n      mstore\n      pop\n        /* \"hopium/etf/main/etf-router.sol\":3825:3831  inputs */\n      dup6\n        /* \"hopium/etf/main/etf-router.sol\":3832:3835  k++ */\n      dup6\n      dup1\n      0x01\n      add\n      swap7\n      pop\n        /* \"hopium/etf/main/etf-router.sol\":3825:3836  inputs[k++] */\n      dup2\n      mload\n      dup2\n      lt\n      tag_358\n      jumpi\n      tag_359\n      tag_287\n      jump\t// in\n    tag_359:\n    tag_358:\n      0x20\n      mul\n      0x20\n      add\n      add\n        /* \"hopium/etf/main/etf-router.sol\":3825:3886  inputs[k++] = MultiTokenInput({ tokenAddress: t, amount: w }) */\n      dup2\n      swap1\n      mstore\n      pop\n        /* \"hopium/etf/main/etf-router.sol\":3526:3901  {... */\n      pop\n      pop\n        /* \"hopium/etf/main/etf-router.sol\":3496:3901  for (uint256 i; i < len; ++i) {... */\n    tag_347:\n        /* \"hopium/etf/main/etf-router.sol\":3521:3524  ++i */\n      dup1\n      0x01\n      add\n      swap1\n      pop\n        /* \"hopium/etf/main/etf-router.sol\":3496:3901  for (uint256 i; i < len; ++i) {... */\n      jump(tag_345)\n    tag_346:\n      pop\n        /* \"hopium/etf/main/etf-router.sol\":3987:4002  multiSwapRouter */\n      dup4\n        /* \"hopium/etf/main/etf-router.sol\":3987:4026  multiSwapRouter.swapMultipleTokensToEth */\n      0xffffffffffffffffffffffffffffffffffffffff\n      and\n      0x3814bc6e\n        /* \"hopium/etf/main/etf-router.sol\":4040:4046  inputs */\n      dup4\n        /* \"hopium/etf/main/etf-router.sol\":4060:4068  receiver */\n      dup12\n        /* \"hopium/etf/main/etf-router.sol\":4082:4094  slippageBips */\n      dup12\n        /* \"hopium/etf/main/etf-router.sol\":4108:4112  true */\n      0x01\n        /* \"hopium/etf/main/etf-router.sol\":3987:4122  multiSwapRouter.swapMultipleTokensToEth(... */\n      mload(0x40)\n      dup6\n      0xffffffff\n      and\n      0xe0\n      shl\n      dup2\n      mstore\n      0x04\n      add\n      tag_360\n      swap5\n      swap4\n      swap3\n      swap2\n      swap1\n      tag_361\n      jump\t// in\n    tag_360:\n      0x00\n      mload(0x40)\n      dup1\n      dup4\n      sub\n      dup2\n      0x00\n      dup8\n      dup1\n      extcodesize\n      iszero\n      dup1\n      iszero\n      tag_362\n      jumpi\n      revert(0x00, 0x00)\n    tag_362:\n      pop\n      gas\n      call\n      iszero\n      dup1\n      iszero\n      tag_364\n      jumpi\n      returndatacopy(0x00, 0x00, returndatasize)\n      revert(0x00, returndatasize)\n    tag_364:\n      pop\n      pop\n      pop\n      pop\n        /* \"hopium/etf/main/etf-router.sol\":2548:4129  {... */\n      pop\n      pop\n      pop\n      pop\n      pop\n      pop\n      pop\n        /* \"hopium/etf/main/etf-router.sol\":2303:4129  function _swapVaultTokensToEth(... */\n      pop\n      pop\n      pop\n      pop\n      pop\n      pop\n      jump\t// out\n        /* \"hopium/common/lib/transfer-helpers.sol\":1616:1894  function sendEth(address to, uint256 amount) internal {... */\n    tag_214:\n        /* \"hopium/common/lib/transfer-helpers.sol\":1694:1695  0 */\n      0x00\n        /* \"hopium/common/lib/transfer-helpers.sol\":1684:1690  amount */\n      dup2\n        /* \"hopium/common/lib/transfer-helpers.sol\":1684:1695  amount == 0 */\n      sub\n        /* \"hopium/common/lib/transfer-helpers.sol\":1680:1716  if (amount == 0) revert ZeroAmount() */\n      tag_366\n      jumpi\n        /* \"hopium/common/lib/transfer-helpers.sol\":1704:1716  ZeroAmount() */\n      mload(0x40)\n      0x1f2a200500000000000000000000000000000000000000000000000000000000\n      dup2\n      mstore\n      0x04\n      add\n      mload(0x40)\n      dup1\n      swap2\n      sub\n      swap1\n      revert\n        /* \"hopium/common/lib/transfer-helpers.sol\":1680:1716  if (amount == 0) revert ZeroAmount() */\n    tag_366:\n        /* \"hopium/common/lib/transfer-helpers.sol\":1754:1760  amount */\n      dup1\n        /* \"hopium/common/lib/transfer-helpers.sol\":1730:1751  address(this).balance */\n      selfbalance\n        /* \"hopium/common/lib/transfer-helpers.sol\":1730:1760  address(this).balance < amount */\n      lt\n        /* \"hopium/common/lib/transfer-helpers.sol\":1726:1786  if (address(this).balance < amount) revert InsufficientETH() */\n      iszero\n      tag_367\n      jumpi\n        /* \"hopium/common/lib/transfer-helpers.sol\":1769:1786  InsufficientETH() */\n      mload(0x40)\n      0x6a12f10400000000000000000000000000000000000000000000000000000000\n      dup2\n      mstore\n      0x04\n      add\n      mload(0x40)\n      dup1\n      swap2\n      sub\n      swap1\n      revert\n        /* \"hopium/common/lib/transfer-helpers.sol\":1726:1786  if (address(this).balance < amount) revert InsufficientETH() */\n    tag_367:\n        /* \"hopium/common/lib/transfer-helpers.sol\":1798:1805  bool ok */\n      0x00\n        /* \"hopium/common/lib/transfer-helpers.sol\":1819:1821  to */\n      dup3\n        /* \"hopium/common/lib/transfer-helpers.sol\":1811:1827  payable(to).call */\n      0xffffffffffffffffffffffffffffffffffffffff\n      and\n        /* \"hopium/common/lib/transfer-helpers.sol\":1835:1841  amount */\n      dup3\n        /* \"hopium/common/lib/transfer-helpers.sol\":1811:1846  payable(to).call{value: amount}(\"\") */\n      mload(0x40)\n      tag_368\n      swap1\n      tag_369\n      jump\t// in\n    tag_368:\n      0x00\n      mload(0x40)\n      dup1\n      dup4\n      sub\n      dup2\n      dup6\n      dup8\n      gas\n      call\n      swap3\n      pop\n      pop\n      pop\n      returndatasize\n      dup1\n      0x00\n      dup2\n      eq\n      tag_372\n      jumpi\n      mload(0x40)\n      swap2\n      pop\n      and(add(returndatasize, 0x3f), not(0x1f))\n      dup3\n      add\n      0x40\n      mstore\n      returndatasize\n      dup3\n      mstore\n      returndatasize\n      0x00\n      0x20\n      dup5\n      add\n      returndatacopy\n      jump(tag_371)\n    tag_372:\n      0x60\n      swap2\n      pop\n    tag_371:\n      pop\n        /* \"hopium/common/lib/transfer-helpers.sol\":1797:1846  (bool ok, ) = payable(to).call{value: amount}(\"\") */\n      pop\n      swap1\n      pop\n        /* \"hopium/common/lib/transfer-helpers.sol\":1861:1863  ok */\n      dup1\n        /* \"hopium/common/lib/transfer-helpers.sol\":1856:1887  if (!ok) revert ETHSendFailed() */\n      tag_373\n      jumpi\n        /* \"hopium/common/lib/transfer-helpers.sol\":1872:1887  ETHSendFailed() */\n      mload(0x40)\n      0xcef4eed700000000000000000000000000000000000000000000000000000000\n      dup2\n      mstore\n      0x04\n      add\n      mload(0x40)\n      dup1\n      swap2\n      sub\n      swap1\n      revert\n        /* \"hopium/common/lib/transfer-helpers.sol\":1856:1887  if (!ok) revert ETHSendFailed() */\n    tag_373:\n        /* \"hopium/common/lib/transfer-helpers.sol\":1670:1894  {... */\n      pop\n        /* \"hopium/common/lib/transfer-helpers.sol\":1616:1894  function sendEth(address to, uint256 amount) internal {... */\n      pop\n      pop\n      jump\t// out\n        /* \"hopium/common/lib/transfer-helpers.sol\":3758:4056  function sendEthOrToken(address token, address to) internal {... */\n    tag_225:\n        /* \"hopium/common/lib/transfer-helpers.sol\":3849:3850  0 */\n      0x00\n        /* \"hopium/common/lib/transfer-helpers.sol\":3832:3851  token == address(0) */\n      0xffffffffffffffffffffffffffffffffffffffff\n      and\n        /* \"hopium/common/lib/transfer-helpers.sol\":3832:3837  token */\n      dup3\n        /* \"hopium/common/lib/transfer-helpers.sol\":3832:3851  token == address(0) */\n      0xffffffffffffffffffffffffffffffffffffffff\n      and\n      sub\n        /* \"hopium/common/lib/transfer-helpers.sol\":3828:4050  if (token == address(0)) {... */\n      tag_375\n      jumpi\n        /* \"hopium/common/lib/transfer-helpers.sol\":3867:3901  sendEth(to, address(this).balance) */\n      tag_376\n        /* \"hopium/common/lib/transfer-helpers.sol\":3875:3877  to */\n      dup2\n        /* \"hopium/common/lib/transfer-helpers.sol\":3879:3900  address(this).balance */\n      selfbalance\n        /* \"hopium/common/lib/transfer-helpers.sol\":3867:3874  sendEth */\n      tag_214\n        /* \"hopium/common/lib/transfer-helpers.sol\":3867:3901  sendEth(to, address(this).balance) */\n      jump\t// in\n    tag_376:\n        /* \"hopium/common/lib/transfer-helpers.sol\":3828:4050  if (token == address(0)) {... */\n      jump(tag_377)\n    tag_375:\n        /* \"hopium/common/lib/transfer-helpers.sol\":3932:3943  uint256 bal */\n      0x00\n        /* \"hopium/common/lib/transfer-helpers.sol\":3953:3958  token */\n      dup3\n        /* \"hopium/common/lib/transfer-helpers.sol\":3946:3969  IERC20(token).balanceOf */\n      0xffffffffffffffffffffffffffffffffffffffff\n      and\n      0x70a08231\n        /* \"hopium/common/lib/transfer-helpers.sol\":3978:3982  this */\n      address\n        /* \"hopium/common/lib/transfer-helpers.sol\":3946:3984  IERC20(token).balanceOf(address(this)) */\n      mload(0x40)\n      dup3\n      0xffffffff\n      and\n      0xe0\n      shl\n      dup2\n      mstore\n      0x04\n      add\n      tag_378\n      swap2\n      swap1\n      tag_50\n      jump\t// in\n    tag_378:\n      0x20\n      mload(0x40)\n      dup1\n      dup4\n      sub\n      dup2\n      dup7\n      gas\n      staticcall\n      iszero\n      dup1\n      iszero\n      tag_380\n      jumpi\n      returndatacopy(0x00, 0x00, returndatasize)\n      revert(0x00, returndatasize)\n    tag_380:\n      pop\n      pop\n      pop\n      pop\n      mload(0x40)\n      returndatasize\n      not(0x1f)\n      0x1f\n      dup3\n      add\n      and\n      dup3\n      add\n      dup1\n      0x40\n      mstore\n      pop\n      dup2\n      add\n      swap1\n      tag_381\n      swap2\n      swap1\n      tag_200\n      jump\t// in\n    tag_381:\n        /* \"hopium/common/lib/transfer-helpers.sol\":3932:3984  uint256 bal = IERC20(token).balanceOf(address(this)) */\n      swap1\n      pop\n        /* \"hopium/common/lib/transfer-helpers.sol\":4008:4009  0 */\n      0x00\n        /* \"hopium/common/lib/transfer-helpers.sol\":4002:4005  bal */\n      dup2\n        /* \"hopium/common/lib/transfer-helpers.sol\":4002:4009  bal > 0 */\n      gt\n        /* \"hopium/common/lib/transfer-helpers.sol\":3998:4039  if (bal > 0) safeTransfer(token, to, bal) */\n      iszero\n      tag_382\n      jumpi\n        /* \"hopium/common/lib/transfer-helpers.sol\":4011:4039  safeTransfer(token, to, bal) */\n      tag_383\n        /* \"hopium/common/lib/transfer-helpers.sol\":4024:4029  token */\n      dup4\n        /* \"hopium/common/lib/transfer-helpers.sol\":4031:4033  to */\n      dup4\n        /* \"hopium/common/lib/transfer-helpers.sol\":4035:4038  bal */\n      dup4\n        /* \"hopium/common/lib/transfer-helpers.sol\":4011:4023  safeTransfer */\n      tag_384\n        /* \"hopium/common/lib/transfer-helpers.sol\":4011:4039  safeTransfer(token, to, bal) */\n      jump\t// in\n    tag_383:\n        /* \"hopium/common/lib/transfer-helpers.sol\":3998:4039  if (bal > 0) safeTransfer(token, to, bal) */\n    tag_382:\n        /* \"hopium/common/lib/transfer-helpers.sol\":3918:4050  {... */\n      pop\n        /* \"hopium/common/lib/transfer-helpers.sol\":3828:4050  if (token == address(0)) {... */\n    tag_377:\n        /* \"hopium/common/lib/transfer-helpers.sol\":3758:4056  function sendEthOrToken(address token, address to) internal {... */\n      pop\n      pop\n      jump\t// out\n        /* \"hopium/etf/utils/etf-addresses-helpers.sol\":253:404  function _getEtfTokenAddress(uint256 indexId) internal view returns (address) {... */\n    tag_234:\n        /* \"hopium/etf/utils/etf-addresses-helpers.sol\":322:329  address */\n      0x00\n        /* \"hopium/etf/utils/etf-addresses-helpers.sol\":348:369  getEtfTokenDeployer() */\n      tag_386\n        /* \"hopium/etf/utils/etf-addresses-helpers.sol\":348:367  getEtfTokenDeployer */\n      tag_387\n        /* \"hopium/etf/utils/etf-addresses-helpers.sol\":348:369  getEtfTokenDeployer() */\n      jump\t// in\n    tag_386:\n        /* \"hopium/etf/utils/etf-addresses-helpers.sol\":348:388  getEtfTokenDeployer().getEtfTokenAddress */\n      0xffffffffffffffffffffffffffffffffffffffff\n      and\n      0xf2018a1f\n        /* \"hopium/etf/utils/etf-addresses-helpers.sol\":389:396  indexId */\n      dup4\n        /* \"hopium/etf/utils/etf-addresses-helpers.sol\":348:397  getEtfTokenDeployer().getEtfTokenAddress(indexId) */\n      mload(0x40)\n      dup3\n      0xffffffff\n      and\n      0xe0\n      shl\n      dup2\n      mstore\n      0x04\n      add\n      tag_388\n      swap2\n      swap1\n      tag_109\n      jump\t// in\n    tag_388:\n      0x20\n      mload(0x40)\n      dup1\n      dup4\n      sub\n      dup2\n      dup7\n      gas\n      staticcall\n      iszero\n      dup1\n      iszero\n      tag_390\n      jumpi\n      returndatacopy(0x00, 0x00, returndatasize)\n      revert(0x00, returndatasize)\n    tag_390:\n      pop\n      pop\n      pop\n      pop\n      mload(0x40)\n      returndatasize\n      not(0x1f)\n      0x1f\n      dup3\n      add\n      and\n      dup3\n      add\n      dup1\n      0x40\n      mstore\n      pop\n      dup2\n      add\n      swap1\n      tag_391\n      swap2\n      swap1\n      tag_89\n      jump\t// in\n    tag_391:\n        /* \"hopium/etf/utils/etf-addresses-helpers.sol\":341:397  return getEtfTokenDeployer().getEtfTokenAddress(indexId) */\n      swap1\n      pop\n        /* \"hopium/etf/utils/etf-addresses-helpers.sol\":253:404  function _getEtfTokenAddress(uint256 indexId) internal view returns (address) {... */\n      swap2\n      swap1\n      pop\n      jump\t// out\n        /* \"hopium/etf/utils/etf-addresses-helpers.sol\":410:561  function _getEtfVaultAddress(uint256 indexId) internal view returns (address) {... */\n    tag_236:\n        /* \"hopium/etf/utils/etf-addresses-helpers.sol\":479:486  address */\n      0x00\n        /* \"hopium/etf/utils/etf-addresses-helpers.sol\":505:526  getEtfVaultDeployer() */\n      tag_393\n        /* \"hopium/etf/utils/etf-addresses-helpers.sol\":505:524  getEtfVaultDeployer */\n      tag_394\n        /* \"hopium/etf/utils/etf-addresses-helpers.sol\":505:526  getEtfVaultDeployer() */\n      jump\t// in\n    tag_393:\n        /* \"hopium/etf/utils/etf-addresses-helpers.sol\":505:545  getEtfVaultDeployer().getEtfVaultAddress */\n      0xffffffffffffffffffffffffffffffffffffffff\n      and\n      0x3ee79962\n        /* \"hopium/etf/utils/etf-addresses-helpers.sol\":546:553  indexId */\n      dup4\n        /* \"hopium/etf/utils/etf-addresses-helpers.sol\":505:554  getEtfVaultDeployer().getEtfVaultAddress(indexId) */\n      mload(0x40)\n      dup3\n      0xffffffff\n      and\n      0xe0\n      shl\n      dup2\n      mstore\n      0x04\n      add\n      tag_395\n      swap2\n      swap1\n      tag_109\n      jump\t// in\n    tag_395:\n      0x20\n      mload(0x40)\n      dup1\n      dup4\n      sub\n      dup2\n      dup7\n      gas\n      staticcall\n      iszero\n      dup1\n      iszero\n      tag_397\n      jumpi\n      returndatacopy(0x00, 0x00, returndatasize)\n      revert(0x00, returndatasize)\n    tag_397:\n      pop\n      pop\n      pop\n      pop\n      mload(0x40)\n      returndatasize\n      not(0x1f)\n      0x1f\n      dup3\n      add\n      and\n      dup3\n      add\n      dup1\n      0x40\n      mstore\n      pop\n      dup2\n      add\n      swap1\n      tag_398\n      swap2\n      swap1\n      tag_89\n      jump\t// in\n    tag_398:\n        /* \"hopium/etf/utils/etf-addresses-helpers.sol\":498:554  return getEtfVaultDeployer().getEtfVaultAddress(indexId) */\n      swap1\n      pop\n        /* \"hopium/etf/utils/etf-addresses-helpers.sol\":410:561  function _getEtfVaultAddress(uint256 indexId) internal view returns (address) {... */\n      swap2\n      swap1\n      pop\n      jump\t// out\n        /* \"hopium/etf/interface/imIndexPriceOracle.sol\":396:560  function getIndexPriceOracle() internal view virtual returns (IIndexPriceOracle) {... */\n    tag_256:\n        /* \"hopium/etf/interface/imIndexPriceOracle.sol\":458:475  IIndexPriceOracle */\n      0x00\n        /* \"hopium/etf/interface/imIndexPriceOracle.sol\":512:552  fetchFromDirectory(\"index-price-oracle\") */\n      tag_400\n      mload(0x40)\n      dup1\n      0x40\n      add\n      0x40\n      mstore\n      dup1\n      0x12\n      dup2\n      mstore\n      0x20\n      add\n      0x696e6465782d70726963652d6f7261636c650000000000000000000000000000\n      dup2\n      mstore\n      pop\n        /* \"hopium/etf/interface/imIndexPriceOracle.sol\":512:530  fetchFromDirectory */\n      tag_48\n        /* \"hopium/etf/interface/imIndexPriceOracle.sol\":512:552  fetchFromDirectory(\"index-price-oracle\") */\n      jump\t// in\n    tag_400:\n        /* \"hopium/etf/interface/imIndexPriceOracle.sol\":487:553  return IIndexPriceOracle(fetchFromDirectory(\"index-price-oracle\")) */\n      swap1\n      pop\n        /* \"hopium/etf/interface/imIndexPriceOracle.sol\":396:560  function getIndexPriceOracle() internal view virtual returns (IIndexPriceOracle) {... */\n      swap1\n      jump\t// out\n        /* \"hopium/uniswap/interface/imMultiSwapRouter.sol\":609:769  function getMultiSwapRouter() internal view virtual returns (IMultiSwapRouter) {... */\n    tag_293:\n        /* \"hopium/uniswap/interface/imMultiSwapRouter.sol\":670:686  IMultiSwapRouter */\n      0x00\n        /* \"hopium/uniswap/interface/imMultiSwapRouter.sol\":722:761  fetchFromDirectory(\"multi-swap-router\") */\n      tag_402\n      mload(0x40)\n      dup1\n      0x40\n      add\n      0x40\n      mstore\n      dup1\n      0x11\n      dup2\n      mstore\n      0x20\n      add\n      0x6d756c74692d737761702d726f75746572000000000000000000000000000000\n      dup2\n      mstore\n      pop\n        /* \"hopium/uniswap/interface/imMultiSwapRouter.sol\":722:740  fetchFromDirectory */\n      tag_48\n        /* \"hopium/uniswap/interface/imMultiSwapRouter.sol\":722:761  fetchFromDirectory(\"multi-swap-router\") */\n      jump\t// in\n    tag_402:\n        /* \"hopium/uniswap/interface/imMultiSwapRouter.sol\":698:762  return IMultiSwapRouter(fetchFromDirectory(\"multi-swap-router\")) */\n      swap1\n      pop\n        /* \"hopium/uniswap/interface/imMultiSwapRouter.sol\":609:769  function getMultiSwapRouter() internal view virtual returns (IMultiSwapRouter) {... */\n      swap1\n      jump\t// out\n        /* \"hopium/common/lib/transfer-helpers.sol\":493:827  function safeTransfer(... */\n    tag_384:\n        /* \"hopium/common/lib/transfer-helpers.sol\":607:619  bool success */\n      0x00\n        /* \"hopium/common/lib/transfer-helpers.sol\":621:638  bytes memory data */\n      0x00\n        /* \"hopium/common/lib/transfer-helpers.sol\":654:659  token */\n      dup5\n        /* \"hopium/common/lib/transfer-helpers.sol\":654:664  token.call */\n      0xffffffffffffffffffffffffffffffffffffffff\n      and\n        /* \"hopium/common/lib/transfer-helpers.sol\":688:712  IERC20.transfer.selector */\n      shl(0xe0, 0xa9059cbb)\n        /* \"hopium/common/lib/transfer-helpers.sol\":714:716  to */\n      dup6\n        /* \"hopium/common/lib/transfer-helpers.sol\":718:723  value */\n      dup6\n        /* \"hopium/common/lib/transfer-helpers.sol\":665:724  abi.encodeWithSelector(IERC20.transfer.selector, to, value) */\n      add(0x24, mload(0x40))\n      tag_404\n      swap3\n      swap2\n      swap1\n      tag_123\n      jump\t// in\n    tag_404:\n      mload(0x40)\n      0x20\n      dup2\n      dup4\n      sub\n      sub\n      dup2\n      mstore\n      swap1\n      0x40\n      mstore\n      swap1\n      not(0xffffffffffffffffffffffffffffffffffffffffffffffffffffffff)\n      and\n      0x20\n      dup3\n      add\n      dup1\n      mload\n      0xffffffffffffffffffffffffffffffffffffffffffffffffffffffff\n      dup4\n      dup2\n      dup4\n      and\n      or\n      dup4\n      mstore\n      pop\n      pop\n      pop\n      pop\n        /* \"hopium/common/lib/transfer-helpers.sol\":654:725  token.call(abi.encodeWithSelector(IERC20.transfer.selector, to, value)) */\n      mload(0x40)\n      tag_405\n      swap2\n      swap1\n      tag_406\n      jump\t// in\n    tag_405:\n      0x00\n      mload(0x40)\n      dup1\n      dup4\n      sub\n      dup2\n      0x00\n      dup7\n      gas\n      call\n      swap2\n      pop\n      pop\n      returndatasize\n      dup1\n      0x00\n      dup2\n      eq\n      tag_409\n      jumpi\n      mload(0x40)\n      swap2\n      pop\n      and(add(returndatasize, 0x3f), not(0x1f))\n      dup3\n      add\n      0x40\n      mstore\n      returndatasize\n      dup3\n      mstore\n      returndatasize\n      0x00\n      0x20\n      dup5\n      add\n      returndatacopy\n      jump(tag_408)\n    tag_409:\n      0x60\n      swap2\n      pop\n    tag_408:\n      pop\n        /* \"hopium/common/lib/transfer-helpers.sol\":606:725  (bool success, bytes memory data) =... */\n      swap2\n      pop\n      swap2\n      pop\n        /* \"hopium/common/lib/transfer-helpers.sol\":743:750  success */\n      dup2\n        /* \"hopium/common/lib/transfer-helpers.sol\":743:800  success && (data.length == 0 || abi.decode(data, (bool))) */\n      dup1\n      iszero\n      tag_410\n      jumpi\n      pop\n        /* \"hopium/common/lib/transfer-helpers.sol\":770:771  0 */\n      0x00\n        /* \"hopium/common/lib/transfer-helpers.sol\":755:759  data */\n      dup2\n        /* \"hopium/common/lib/transfer-helpers.sol\":755:766  data.length */\n      mload\n        /* \"hopium/common/lib/transfer-helpers.sol\":755:771  data.length == 0 */\n      eq\n        /* \"hopium/common/lib/transfer-helpers.sol\":755:799  data.length == 0 || abi.decode(data, (bool)) */\n      dup1\n      tag_411\n      jumpi\n      pop\n        /* \"hopium/common/lib/transfer-helpers.sol\":786:790  data */\n      dup1\n        /* \"hopium/common/lib/transfer-helpers.sol\":775:799  abi.decode(data, (bool)) */\n      dup1\n      0x20\n      add\n      swap1\n      mload\n      dup2\n      add\n      swap1\n      tag_412\n      swap2\n      swap1\n      tag_413\n      jump\t// in\n    tag_412:\n        /* \"hopium/common/lib/transfer-helpers.sol\":755:799  data.length == 0 || abi.decode(data, (bool)) */\n    tag_411:\n        /* \"hopium/common/lib/transfer-helpers.sol\":743:800  success && (data.length == 0 || abi.decode(data, (bool))) */\n    tag_410:\n        /* \"hopium/common/lib/transfer-helpers.sol\":735:820  require(success && (data.length == 0 || abi.decode(data, (bool))), \"TRANSFER_FAILED\") */\n      tag_414\n      jumpi\n      mload(0x40)\n      0x08c379a000000000000000000000000000000000000000000000000000000000\n      dup2\n      mstore\n      0x04\n      add\n      tag_415\n      swap1\n      tag_416\n      jump\t// in\n    tag_415:\n      mload(0x40)\n      dup1\n      swap2\n      sub\n      swap1\n      revert\n    tag_414:\n        /* \"hopium/common/lib/transfer-helpers.sol\":596:827  {... */\n      pop\n      pop\n        /* \"hopium/common/lib/transfer-helpers.sol\":493:827  function safeTransfer(... */\n      pop\n      pop\n      pop\n      jump\t// out\n        /* \"hopium/etf/interface/imEtfTokenDeployer.sol\":401:565  function getEtfTokenDeployer() internal view virtual returns (IEtfTokenDeployer) {... */\n    tag_387:\n        /* \"hopium/etf/interface/imEtfTokenDeployer.sol\":463:480  IEtfTokenDeployer */\n      0x00\n        /* \"hopium/etf/interface/imEtfTokenDeployer.sol\":517:557  fetchFromDirectory(\"etf-token-deployer\") */\n      tag_418\n      mload(0x40)\n      dup1\n      0x40\n      add\n      0x40\n      mstore\n      dup1\n      0x12\n      dup2\n      mstore\n      0x20\n      add\n      0x6574662d746f6b656e2d6465706c6f7965720000000000000000000000000000\n      dup2\n      mstore\n      pop\n        /* \"hopium/etf/interface/imEtfTokenDeployer.sol\":517:535  fetchFromDirectory */\n      tag_48\n        /* \"hopium/etf/interface/imEtfTokenDeployer.sol\":517:557  fetchFromDirectory(\"etf-token-deployer\") */\n      jump\t// in\n    tag_418:\n        /* \"hopium/etf/interface/imEtfTokenDeployer.sol\":492:558  return IEtfTokenDeployer(fetchFromDirectory(\"etf-token-deployer\")) */\n      swap1\n      pop\n        /* \"hopium/etf/interface/imEtfTokenDeployer.sol\":401:565  function getEtfTokenDeployer() internal view virtual returns (IEtfTokenDeployer) {... */\n      swap1\n      jump\t// out\n        /* \"hopium/etf/interface/imEtfVaultDeployer.sol\":353:517  function getEtfVaultDeployer() internal view virtual returns (IEtfVaultDeployer) {... */\n    tag_394:\n        /* \"hopium/etf/interface/imEtfVaultDeployer.sol\":415:432  IEtfVaultDeployer */\n      0x00\n        /* \"hopium/etf/interface/imEtfVaultDeployer.sol\":469:509  fetchFromDirectory(\"etf-vault-deployer\") */\n      tag_420\n      mload(0x40)\n      dup1\n      0x40\n      add\n      0x40\n      mstore\n      dup1\n      0x12\n      dup2\n      mstore\n      0x20\n      add\n      0x6574662d7661756c742d6465706c6f7965720000000000000000000000000000\n      dup2\n      mstore\n      pop\n        /* \"hopium/etf/interface/imEtfVaultDeployer.sol\":469:487  fetchFromDirectory */\n      tag_48\n        /* \"hopium/etf/interface/imEtfVaultDeployer.sol\":469:509  fetchFromDirectory(\"etf-vault-deployer\") */\n      jump\t// in\n    tag_420:\n        /* \"hopium/etf/interface/imEtfVaultDeployer.sol\":444:510  return IEtfVaultDeployer(fetchFromDirectory(\"etf-vault-deployer\")) */\n      swap1\n      pop\n        /* \"hopium/etf/interface/imEtfVaultDeployer.sol\":353:517  function getEtfVaultDeployer() internal view virtual returns (IEtfVaultDeployer) {... */\n      swap1\n      jump\t// out\n    tag_281:\n      mload(0x40)\n      dup1\n      0x40\n      add\n      0x40\n      mstore\n      dup1\n      and(0xffffffffffffffffffffffffffffffffffffffff, 0x00)\n      dup2\n      mstore\n      0x20\n      add\n      and(0xffff, 0x00)\n      dup2\n      mstore\n      pop\n      swap1\n      jump\t// out\n    tag_344:\n      mload(0x40)\n      dup1\n      0x40\n      add\n      0x40\n      mstore\n      dup1\n      and(0xffffffffffffffffffffffffffffffffffffffff, 0x00)\n      dup2\n      mstore\n      0x20\n      add\n      0x00\n      dup2\n      mstore\n      pop\n      swap1\n      jump\t// out\n        /* \"#utility.yul\":7:100   */\n    tag_421:\n        /* \"#utility.yul\":43:50   */\n      0x00\n        /* \"#utility.yul\":83:93   */\n      0xffffffff\n        /* \"#utility.yul\":76:81   */\n      dup3\n        /* \"#utility.yul\":72:94   */\n      and\n        /* \"#utility.yul\":61:94   */\n      swap1\n      pop\n        /* \"#utility.yul\":7:100   */\n      swap2\n      swap1\n      pop\n      jump\t// out\n        /* \"#utility.yul\":106:221   */\n    tag_422:\n        /* \"#utility.yul\":191:214   */\n      tag_523\n        /* \"#utility.yul\":208:213   */\n      dup2\n        /* \"#utility.yul\":191:214   */\n      tag_421\n      jump\t// in\n    tag_523:\n        /* \"#utility.yul\":186:189   */\n      dup3\n        /* \"#utility.yul\":179:215   */\n      mstore\n        /* \"#utility.yul\":106:221   */\n      pop\n      pop\n      jump\t// out\n        /* \"#utility.yul\":227:445   */\n    tag_24:\n        /* \"#utility.yul\":318:322   */\n      0x00\n        /* \"#utility.yul\":356:358   */\n      0x20\n        /* \"#utility.yul\":345:354   */\n      dup3\n        /* \"#utility.yul\":341:359   */\n      add\n        /* \"#utility.yul\":333:359   */\n      swap1\n      pop\n        /* \"#utility.yul\":369:438   */\n      tag_525\n        /* \"#utility.yul\":435:436   */\n      0x00\n        /* \"#utility.yul\":424:433   */\n      dup4\n        /* \"#utility.yul\":420:437   */\n      add\n        /* \"#utility.yul\":411:417   */\n      dup5\n        /* \"#utility.yul\":369:438   */\n      tag_422\n      jump\t// in\n    tag_525:\n        /* \"#utility.yul\":227:445   */\n      swap3\n      swap2\n      pop\n      pop\n      jump\t// out\n        /* \"#utility.yul\":451:526   */\n    tag_423:\n        /* \"#utility.yul\":484:490   */\n      0x00\n        /* \"#utility.yul\":517:519   */\n      0x40\n        /* \"#utility.yul\":511:520   */\n      mload\n        /* \"#utility.yul\":501:520   */\n      swap1\n      pop\n        /* \"#utility.yul\":451:526   */\n      swap1\n      jump\t// out\n        /* \"#utility.yul\":532:649   */\n    tag_424:\n        /* \"#utility.yul\":641:642   */\n      0x00\n        /* \"#utility.yul\":638:639   */\n      0x00\n        /* \"#utility.yul\":631:643   */\n      revert\n        /* \"#utility.yul\":655:772   */\n    tag_425:\n        /* \"#utility.yul\":764:765   */\n      0x00\n        /* \"#utility.yul\":761:762   */\n      0x00\n        /* \"#utility.yul\":754:766   */\n      revert\n        /* \"#utility.yul\":778:904   */\n    tag_426:\n        /* \"#utility.yul\":815:822   */\n      0x00\n        /* \"#utility.yul\":855:897   */\n      0xffffffffffffffffffffffffffffffffffffffff\n        /* \"#utility.yul\":848:853   */\n      dup3\n        /* \"#utility.yul\":844:898   */\n      and\n        /* \"#utility.yul\":833:898   */\n      swap1\n      pop\n        /* \"#utility.yul\":778:904   */\n      swap2\n      swap1\n      pop\n      jump\t// out\n        /* \"#utility.yul\":910:1006   */\n    tag_427:\n        /* \"#utility.yul\":947:954   */\n      0x00\n        /* \"#utility.yul\":976:1000   */\n      tag_531\n        /* \"#utility.yul\":994:999   */\n      dup3\n        /* \"#utility.yul\":976:1000   */\n      tag_426\n      jump\t// in\n    tag_531:\n        /* \"#utility.yul\":965:1000   */\n      swap1\n      pop\n        /* \"#utility.yul\":910:1006   */\n      swap2\n      swap1\n      pop\n      jump\t// out\n        /* \"#utility.yul\":1012:1134   */\n    tag_428:\n        /* \"#utility.yul\":1085:1109   */\n      tag_533\n        /* \"#utility.yul\":1103:1108   */\n      dup2\n        /* \"#utility.yul\":1085:1109   */\n      tag_427\n      jump\t// in\n    tag_533:\n        /* \"#utility.yul\":1078:1083   */\n      dup2\n        /* \"#utility.yul\":1075:1110   */\n      eq\n        /* \"#utility.yul\":1065:1128   */\n      tag_534\n      jumpi\n        /* \"#utility.yul\":1124:1125   */\n      0x00\n        /* \"#utility.yul\":1121:1122   */\n      0x00\n        /* \"#utility.yul\":1114:1126   */\n      revert\n        /* \"#utility.yul\":1065:1128   */\n    tag_534:\n        /* \"#utility.yul\":1012:1134   */\n      pop\n      jump\t// out\n        /* \"#utility.yul\":1140:1279   */\n    tag_429:\n        /* \"#utility.yul\":1186:1191   */\n      0x00\n        /* \"#utility.yul\":1224:1230   */\n      dup2\n        /* \"#utility.yul\":1211:1231   */\n      calldataload\n        /* \"#utility.yul\":1202:1231   */\n      swap1\n      pop\n        /* \"#utility.yul\":1240:1273   */\n      tag_536\n        /* \"#utility.yul\":1267:1272   */\n      dup2\n        /* \"#utility.yul\":1240:1273   */\n      tag_428\n      jump\t// in\n    tag_536:\n        /* \"#utility.yul\":1140:1279   */\n      swap3\n      swap2\n      pop\n      pop\n      jump\t// out\n        /* \"#utility.yul\":1285:1759   */\n    tag_28:\n        /* \"#utility.yul\":1353:1359   */\n      0x00\n        /* \"#utility.yul\":1361:1367   */\n      0x00\n        /* \"#utility.yul\":1410:1412   */\n      0x40\n        /* \"#utility.yul\":1398:1407   */\n      dup4\n        /* \"#utility.yul\":1389:1396   */\n      dup6\n        /* \"#utility.yul\":1385:1408   */\n      sub\n        /* \"#utility.yul\":1381:1413   */\n      slt\n        /* \"#utility.yul\":1378:1497   */\n      iszero\n      tag_538\n      jumpi\n        /* \"#utility.yul\":1416:1495   */\n      tag_539\n      tag_424\n      jump\t// in\n    tag_539:\n        /* \"#utility.yul\":1378:1497   */\n    tag_538:\n        /* \"#utility.yul\":1536:1537   */\n      0x00\n        /* \"#utility.yul\":1561:1614   */\n      tag_540\n        /* \"#utility.yul\":1606:1613   */\n      dup6\n        /* \"#utility.yul\":1597:1603   */\n      dup3\n        /* \"#utility.yul\":1586:1595   */\n      dup7\n        /* \"#utility.yul\":1582:1604   */\n      add\n        /* \"#utility.yul\":1561:1614   */\n      tag_429\n      jump\t// in\n    tag_540:\n        /* \"#utility.yul\":1551:1614   */\n      swap3\n      pop\n        /* \"#utility.yul\":1507:1624   */\n      pop\n        /* \"#utility.yul\":1663:1665   */\n      0x20\n        /* \"#utility.yul\":1689:1742   */\n      tag_541\n        /* \"#utility.yul\":1734:1741   */\n      dup6\n        /* \"#utility.yul\":1725:1731   */\n      dup3\n        /* \"#utility.yul\":1714:1723   */\n      dup7\n        /* \"#utility.yul\":1710:1732   */\n      add\n        /* \"#utility.yul\":1689:1742   */\n      tag_429\n      jump\t// in\n    tag_541:\n        /* \"#utility.yul\":1679:1742   */\n      swap2\n      pop\n        /* \"#utility.yul\":1634:1752   */\n      pop\n        /* \"#utility.yul\":1285:1759   */\n      swap3\n      pop\n      swap3\n      swap1\n      pop\n      jump\t// out\n        /* \"#utility.yul\":1765:1855   */\n    tag_430:\n        /* \"#utility.yul\":1799:1806   */\n      0x00\n        /* \"#utility.yul\":1842:1847   */\n      dup2\n        /* \"#utility.yul\":1835:1848   */\n      iszero\n        /* \"#utility.yul\":1828:1849   */\n      iszero\n        /* \"#utility.yul\":1817:1849   */\n      swap1\n      pop\n        /* \"#utility.yul\":1765:1855   */\n      swap2\n      swap1\n      pop\n      jump\t// out\n        /* \"#utility.yul\":1861:1970   */\n    tag_431:\n        /* \"#utility.yul\":1942:1963   */\n      tag_544\n        /* \"#utility.yul\":1957:1962   */\n      dup2\n        /* \"#utility.yul\":1942:1963   */\n      tag_430\n      jump\t// in\n    tag_544:\n        /* \"#utility.yul\":1937:1940   */\n      dup3\n        /* \"#utility.yul\":1930:1964   */\n      mstore\n        /* \"#utility.yul\":1861:1970   */\n      pop\n      pop\n      jump\t// out\n        /* \"#utility.yul\":1976:2186   */\n    tag_34:\n        /* \"#utility.yul\":2063:2067   */\n      0x00\n        /* \"#utility.yul\":2101:2103   */\n      0x20\n        /* \"#utility.yul\":2090:2099   */\n      dup3\n        /* \"#utility.yul\":2086:2104   */\n      add\n        /* \"#utility.yul\":2078:2104   */\n      swap1\n      pop\n        /* \"#utility.yul\":2114:2179   */\n      tag_546\n        /* \"#utility.yul\":2176:2177   */\n      0x00\n        /* \"#utility.yul\":2165:2174   */\n      dup4\n        /* \"#utility.yul\":2161:2178   */\n      add\n        /* \"#utility.yul\":2152:2158   */\n      dup5\n        /* \"#utility.yul\":2114:2179   */\n      tag_431\n      jump\t// in\n    tag_546:\n        /* \"#utility.yul\":1976:2186   */\n      swap3\n      swap2\n      pop\n      pop\n      jump\t// out\n        /* \"#utility.yul\":2192:2269   */\n    tag_432:\n        /* \"#utility.yul\":2229:2236   */\n      0x00\n        /* \"#utility.yul\":2258:2263   */\n      dup2\n        /* \"#utility.yul\":2247:2263   */\n      swap1\n      pop\n        /* \"#utility.yul\":2192:2269   */\n      swap2\n      swap1\n      pop\n      jump\t// out\n        /* \"#utility.yul\":2275:2397   */\n    tag_433:\n        /* \"#utility.yul\":2348:2372   */\n      tag_549\n        /* \"#utility.yul\":2366:2371   */\n      dup2\n        /* \"#utility.yul\":2348:2372   */\n      tag_432\n      jump\t// in\n    tag_549:\n        /* \"#utility.yul\":2341:2346   */\n      dup2\n        /* \"#utility.yul\":2338:2373   */\n      eq\n        /* \"#utility.yul\":2328:2391   */\n      tag_550\n      jumpi\n        /* \"#utility.yul\":2387:2388   */\n      0x00\n        /* \"#utility.yul\":2384:2385   */\n      0x00\n        /* \"#utility.yul\":2377:2389   */\n      revert\n        /* \"#utility.yul\":2328:2391   */\n    tag_550:\n        /* \"#utility.yul\":2275:2397   */\n      pop\n      jump\t// out\n        /* \"#utility.yul\":2403:2542   */\n    tag_434:\n        /* \"#utility.yul\":2449:2454   */\n      0x00\n        /* \"#utility.yul\":2487:2493   */\n      dup2\n        /* \"#utility.yul\":2474:2494   */\n      calldataload\n        /* \"#utility.yul\":2465:2494   */\n      swap1\n      pop\n        /* \"#utility.yul\":2503:2536   */\n      tag_552\n        /* \"#utility.yul\":2530:2535   */\n      dup2\n        /* \"#utility.yul\":2503:2536   */\n      tag_433\n      jump\t// in\n    tag_552:\n        /* \"#utility.yul\":2403:2542   */\n      swap3\n      swap2\n      pop\n      pop\n      jump\t// out\n        /* \"#utility.yul\":2548:3022   */\n    tag_37:\n        /* \"#utility.yul\":2616:2622   */\n      0x00\n        /* \"#utility.yul\":2624:2630   */\n      0x00\n        /* \"#utility.yul\":2673:2675   */\n      0x40\n        /* \"#utility.yul\":2661:2670   */\n      dup4\n        /* \"#utility.yul\":2652:2659   */\n      dup6\n        /* \"#utility.yul\":2648:2671   */\n      sub\n        /* \"#utility.yul\":2644:2676   */\n      slt\n        /* \"#utility.yul\":2641:2760   */\n      iszero\n      tag_554\n      jumpi\n        /* \"#utility.yul\":2679:2758   */\n      tag_555\n      tag_424\n      jump\t// in\n    tag_555:\n        /* \"#utility.yul\":2641:2760   */\n    tag_554:\n        /* \"#utility.yul\":2799:2800   */\n      0x00\n        /* \"#utility.yul\":2824:2877   */\n      tag_556\n        /* \"#utility.yul\":2869:2876   */\n      dup6\n        /* \"#utility.yul\":2860:2866   */\n      dup3\n        /* \"#utility.yul\":2849:2858   */\n      dup7\n        /* \"#utility.yul\":2845:2867   */\n      add\n        /* \"#utility.yul\":2824:2877   */\n      tag_434\n      jump\t// in\n    tag_556:\n        /* \"#utility.yul\":2814:2877   */\n      swap3\n      pop\n        /* \"#utility.yul\":2770:2887   */\n      pop\n        /* \"#utility.yul\":2926:2928   */\n      0x20\n        /* \"#utility.yul\":2952:3005   */\n      tag_557\n        /* \"#utility.yul\":2997:3004   */\n      dup6\n        /* \"#utility.yul\":2988:2994   */\n      dup3\n        /* \"#utility.yul\":2977:2986   */\n      dup7\n        /* \"#utility.yul\":2973:2995   */\n      add\n        /* \"#utility.yul\":2952:3005   */\n      tag_429\n      jump\t// in\n    tag_557:\n        /* \"#utility.yul\":2942:3005   */\n      swap2\n      pop\n        /* \"#utility.yul\":2897:3015   */\n      pop\n        /* \"#utility.yul\":2548:3022   */\n      swap3\n      pop\n      swap3\n      swap1\n      pop\n      jump\t// out\n        /* \"#utility.yul\":3028:3117   */\n    tag_435:\n        /* \"#utility.yul\":3064:3071   */\n      0x00\n        /* \"#utility.yul\":3104:3110   */\n      0xffff\n        /* \"#utility.yul\":3097:3102   */\n      dup3\n        /* \"#utility.yul\":3093:3111   */\n      and\n        /* \"#utility.yul\":3082:3111   */\n      swap1\n      pop\n        /* \"#utility.yul\":3028:3117   */\n      swap2\n      swap1\n      pop\n      jump\t// out\n        /* \"#utility.yul\":3123:3238   */\n    tag_436:\n        /* \"#utility.yul\":3208:3231   */\n      tag_560\n        /* \"#utility.yul\":3225:3230   */\n      dup2\n        /* \"#utility.yul\":3208:3231   */\n      tag_435\n      jump\t// in\n    tag_560:\n        /* \"#utility.yul\":3203:3206   */\n      dup3\n        /* \"#utility.yul\":3196:3232   */\n      mstore\n        /* \"#utility.yul\":3123:3238   */\n      pop\n      pop\n      jump\t// out\n        /* \"#utility.yul\":3244:3462   */\n    tag_43:\n        /* \"#utility.yul\":3335:3339   */\n      0x00\n        /* \"#utility.yul\":3373:3375   */\n      0x20\n        /* \"#utility.yul\":3362:3371   */\n      dup3\n        /* \"#utility.yul\":3358:3376   */\n      add\n        /* \"#utility.yul\":3350:3376   */\n      swap1\n      pop\n        /* \"#utility.yul\":3386:3455   */\n      tag_562\n        /* \"#utility.yul\":3452:3453   */\n      0x00\n        /* \"#utility.yul\":3441:3450   */\n      dup4\n        /* \"#utility.yul\":3437:3454   */\n      add\n        /* \"#utility.yul\":3428:3434   */\n      dup5\n        /* \"#utility.yul\":3386:3455   */\n      tag_436\n      jump\t// in\n    tag_562:\n        /* \"#utility.yul\":3244:3462   */\n      swap3\n      swap2\n      pop\n      pop\n      jump\t// out\n        /* \"#utility.yul\":3468:3585   */\n    tag_437:\n        /* \"#utility.yul\":3577:3578   */\n      0x00\n        /* \"#utility.yul\":3574:3575   */\n      0x00\n        /* \"#utility.yul\":3567:3579   */\n      revert\n        /* \"#utility.yul\":3591:3708   */\n    tag_438:\n        /* \"#utility.yul\":3700:3701   */\n      0x00\n        /* \"#utility.yul\":3697:3698   */\n      0x00\n        /* \"#utility.yul\":3690:3702   */\n      revert\n        /* \"#utility.yul\":3714:3816   */\n    tag_439:\n        /* \"#utility.yul\":3755:3761   */\n      0x00\n        /* \"#utility.yul\":3806:3808   */\n      0x1f\n        /* \"#utility.yul\":3802:3809   */\n      not\n        /* \"#utility.yul\":3797:3799   */\n      0x1f\n        /* \"#utility.yul\":3790:3795   */\n      dup4\n        /* \"#utility.yul\":3786:3800   */\n      add\n        /* \"#utility.yul\":3782:3810   */\n      and\n        /* \"#utility.yul\":3772:3810   */\n      swap1\n      pop\n        /* \"#utility.yul\":3714:3816   */\n      swap2\n      swap1\n      pop\n      jump\t// out\n        /* \"#utility.yul\":3822:4002   */\n    tag_277:\n        /* \"#utility.yul\":3870:3947   */\n      0x4e487b7100000000000000000000000000000000000000000000000000000000\n        /* \"#utility.yul\":3867:3868   */\n      0x00\n        /* \"#utility.yul\":3860:3948   */\n      mstore\n        /* \"#utility.yul\":3967:3971   */\n      0x41\n        /* \"#utility.yul\":3964:3965   */\n      0x04\n        /* \"#utility.yul\":3957:3972   */\n      mstore\n        /* \"#utility.yul\":3991:3995   */\n      0x24\n        /* \"#utility.yul\":3988:3989   */\n      0x00\n        /* \"#utility.yul\":3981:3996   */\n      revert\n        /* \"#utility.yul\":4008:4289   */\n    tag_440:\n        /* \"#utility.yul\":4091:4118   */\n      tag_568\n        /* \"#utility.yul\":4113:4117   */\n      dup3\n        /* \"#utility.yul\":4091:4118   */\n      tag_439\n      jump\t// in\n    tag_568:\n        /* \"#utility.yul\":4083:4089   */\n      dup2\n        /* \"#utility.yul\":4079:4119   */\n      add\n        /* \"#utility.yul\":4221:4227   */\n      dup2\n        /* \"#utility.yul\":4209:4219   */\n      dup2\n        /* \"#utility.yul\":4206:4228   */\n      lt\n        /* \"#utility.yul\":4185:4203   */\n      0xffffffffffffffff\n        /* \"#utility.yul\":4173:4183   */\n      dup3\n        /* \"#utility.yul\":4170:4204   */\n      gt\n        /* \"#utility.yul\":4167:4229   */\n      or\n        /* \"#utility.yul\":4164:4252   */\n      iszero\n      tag_569\n      jumpi\n        /* \"#utility.yul\":4232:4250   */\n      tag_570\n      tag_277\n      jump\t// in\n    tag_570:\n        /* \"#utility.yul\":4164:4252   */\n    tag_569:\n        /* \"#utility.yul\":4272:4282   */\n      dup1\n        /* \"#utility.yul\":4268:4270   */\n      0x40\n        /* \"#utility.yul\":4261:4283   */\n      mstore\n        /* \"#utility.yul\":4051:4289   */\n      pop\n        /* \"#utility.yul\":4008:4289   */\n      pop\n      pop\n      jump\t// out\n        /* \"#utility.yul\":4295:4424   */\n    tag_441:\n        /* \"#utility.yul\":4329:4335   */\n      0x00\n        /* \"#utility.yul\":4356:4376   */\n      tag_572\n      tag_423\n      jump\t// in\n    tag_572:\n        /* \"#utility.yul\":4346:4376   */\n      swap1\n      pop\n        /* \"#utility.yul\":4385:4418   */\n      tag_573\n        /* \"#utility.yul\":4413:4417   */\n      dup3\n        /* \"#utility.yul\":4405:4411   */\n      dup3\n        /* \"#utility.yul\":4385:4418   */\n      tag_440\n      jump\t// in\n    tag_573:\n        /* \"#utility.yul\":4295:4424   */\n      swap2\n      swap1\n      pop\n      jump\t// out\n        /* \"#utility.yul\":4430:4738   */\n    tag_442:\n        /* \"#utility.yul\":4492:4496   */\n      0x00\n        /* \"#utility.yul\":4582:4600   */\n      0xffffffffffffffff\n        /* \"#utility.yul\":4574:4580   */\n      dup3\n        /* \"#utility.yul\":4571:4601   */\n      gt\n        /* \"#utility.yul\":4568:4624   */\n      iszero\n      tag_575\n      jumpi\n        /* \"#utility.yul\":4604:4622   */\n      tag_576\n      tag_277\n      jump\t// in\n    tag_576:\n        /* \"#utility.yul\":4568:4624   */\n    tag_575:\n        /* \"#utility.yul\":4642:4671   */\n      tag_577\n        /* \"#utility.yul\":4664:4670   */\n      dup3\n        /* \"#utility.yul\":4642:4671   */\n      tag_439\n      jump\t// in\n    tag_577:\n        /* \"#utility.yul\":4634:4671   */\n      swap1\n      pop\n        /* \"#utility.yul\":4726:4730   */\n      0x20\n        /* \"#utility.yul\":4720:4724   */\n      dup2\n        /* \"#utility.yul\":4716:4731   */\n      add\n        /* \"#utility.yul\":4708:4731   */\n      swap1\n      pop\n        /* \"#utility.yul\":4430:4738   */\n      swap2\n      swap1\n      pop\n      jump\t// out\n        /* \"#utility.yul\":4744:4892   */\n    tag_443:\n        /* \"#utility.yul\":4842:4848   */\n      dup3\n        /* \"#utility.yul\":4837:4840   */\n      dup2\n        /* \"#utility.yul\":4832:4835   */\n      dup4\n        /* \"#utility.yul\":4819:4849   */\n      calldatacopy\n        /* \"#utility.yul\":4883:4884   */\n      0x00\n        /* \"#utility.yul\":4874:4880   */\n      dup4\n        /* \"#utility.yul\":4869:4872   */\n      dup4\n        /* \"#utility.yul\":4865:4881   */\n      add\n        /* \"#utility.yul\":4858:4885   */\n      mstore\n        /* \"#utility.yul\":4744:4892   */\n      pop\n      pop\n      pop\n      jump\t// out\n        /* \"#utility.yul\":4898:5323   */\n    tag_444:\n        /* \"#utility.yul\":4976:4981   */\n      0x00\n        /* \"#utility.yul\":5001:5067   */\n      tag_580\n        /* \"#utility.yul\":5017:5066   */\n      tag_581\n        /* \"#utility.yul\":5059:5065   */\n      dup5\n        /* \"#utility.yul\":5017:5066   */\n      tag_442\n      jump\t// in\n    tag_581:\n        /* \"#utility.yul\":5001:5067   */\n      tag_441\n      jump\t// in\n    tag_580:\n        /* \"#utility.yul\":4992:5067   */\n      swap1\n      pop\n        /* \"#utility.yul\":5090:5096   */\n      dup3\n        /* \"#utility.yul\":5083:5088   */\n      dup2\n        /* \"#utility.yul\":5076:5097   */\n      mstore\n        /* \"#utility.yul\":5128:5132   */\n      0x20\n        /* \"#utility.yul\":5121:5126   */\n      dup2\n        /* \"#utility.yul\":5117:5133   */\n      add\n        /* \"#utility.yul\":5166:5169   */\n      dup5\n        /* \"#utility.yul\":5157:5163   */\n      dup5\n        /* \"#utility.yul\":5152:5155   */\n      dup5\n        /* \"#utility.yul\":5148:5164   */\n      add\n        /* \"#utility.yul\":5145:5170   */\n      gt\n        /* \"#utility.yul\":5142:5254   */\n      iszero\n      tag_582\n      jumpi\n        /* \"#utility.yul\":5173:5252   */\n      tag_583\n      tag_438\n      jump\t// in\n    tag_583:\n        /* \"#utility.yul\":5142:5254   */\n    tag_582:\n        /* \"#utility.yul\":5263:5317   */\n      tag_584\n        /* \"#utility.yul\":5310:5316   */\n      dup5\n        /* \"#utility.yul\":5305:5308   */\n      dup3\n        /* \"#utility.yul\":5300:5303   */\n      dup6\n        /* \"#utility.yul\":5263:5317   */\n      tag_443\n      jump\t// in\n    tag_584:\n        /* \"#utility.yul\":4982:5323   */\n      pop\n        /* \"#utility.yul\":4898:5323   */\n      swap4\n      swap3\n      pop\n      pop\n      pop\n      jump\t// out\n        /* \"#utility.yul\":5343:5683   */\n    tag_445:\n        /* \"#utility.yul\":5399:5404   */\n      0x00\n        /* \"#utility.yul\":5448:5451   */\n      dup3\n        /* \"#utility.yul\":5441:5445   */\n      0x1f\n        /* \"#utility.yul\":5433:5439   */\n      dup4\n        /* \"#utility.yul\":5429:5446   */\n      add\n        /* \"#utility.yul\":5425:5452   */\n      slt\n        /* \"#utility.yul\":5415:5537   */\n      tag_586\n      jumpi\n        /* \"#utility.yul\":5456:5535   */\n      tag_587\n      tag_437\n      jump\t// in\n    tag_587:\n        /* \"#utility.yul\":5415:5537   */\n    tag_586:\n        /* \"#utility.yul\":5573:5579   */\n      dup2\n        /* \"#utility.yul\":5560:5580   */\n      calldataload\n        /* \"#utility.yul\":5598:5677   */\n      tag_588\n        /* \"#utility.yul\":5673:5676   */\n      dup5\n        /* \"#utility.yul\":5665:5671   */\n      dup3\n        /* \"#utility.yul\":5658:5662   */\n      0x20\n        /* \"#utility.yul\":5650:5656   */\n      dup7\n        /* \"#utility.yul\":5646:5663   */\n      add\n        /* \"#utility.yul\":5598:5677   */\n      tag_444\n      jump\t// in\n    tag_588:\n        /* \"#utility.yul\":5589:5677   */\n      swap2\n      pop\n        /* \"#utility.yul\":5405:5683   */\n      pop\n        /* \"#utility.yul\":5343:5683   */\n      swap3\n      swap2\n      pop\n      pop\n      jump\t// out\n        /* \"#utility.yul\":5689:6198   */\n    tag_47:\n        /* \"#utility.yul\":5758:5764   */\n      0x00\n        /* \"#utility.yul\":5807:5809   */\n      0x20\n        /* \"#utility.yul\":5795:5804   */\n      dup3\n        /* \"#utility.yul\":5786:5793   */\n      dup5\n        /* \"#utility.yul\":5782:5805   */\n      sub\n        /* \"#utility.yul\":5778:5810   */\n      slt\n        /* \"#utility.yul\":5775:5894   */\n      iszero\n      tag_590\n      jumpi\n        /* \"#utility.yul\":5813:5892   */\n      tag_591\n      tag_424\n      jump\t// in\n    tag_591:\n        /* \"#utility.yul\":5775:5894   */\n    tag_590:\n        /* \"#utility.yul\":5961:5962   */\n      0x00\n        /* \"#utility.yul\":5950:5959   */\n      dup3\n        /* \"#utility.yul\":5946:5963   */\n      add\n        /* \"#utility.yul\":5933:5964   */\n      calldataload\n        /* \"#utility.yul\":5991:6009   */\n      0xffffffffffffffff\n        /* \"#utility.yul\":5983:5989   */\n      dup2\n        /* \"#utility.yul\":5980:6010   */\n      gt\n        /* \"#utility.yul\":5977:6094   */\n      iszero\n      tag_592\n      jumpi\n        /* \"#utility.yul\":6013:6092   */\n      tag_593\n      tag_425\n      jump\t// in\n    tag_593:\n        /* \"#utility.yul\":5977:6094   */\n    tag_592:\n        /* \"#utility.yul\":6118:6181   */\n      tag_594\n        /* \"#utility.yul\":6173:6180   */\n      dup5\n        /* \"#utility.yul\":6164:6170   */\n      dup3\n        /* \"#utility.yul\":6153:6162   */\n      dup6\n        /* \"#utility.yul\":6149:6171   */\n      add\n        /* \"#utility.yul\":6118:6181   */\n      tag_445\n      jump\t// in\n    tag_594:\n        /* \"#utility.yul\":6108:6181   */\n      swap2\n      pop\n        /* \"#utility.yul\":5904:6191   */\n      pop\n        /* \"#utility.yul\":5689:6198   */\n      swap3\n      swap2\n      pop\n      pop\n      jump\t// out\n        /* \"#utility.yul\":6204:6322   */\n    tag_446:\n        /* \"#utility.yul\":6291:6315   */\n      tag_596\n        /* \"#utility.yul\":6309:6314   */\n      dup2\n        /* \"#utility.yul\":6291:6315   */\n      tag_427\n      jump\t// in\n    tag_596:\n        /* \"#utility.yul\":6286:6289   */\n      dup3\n        /* \"#utility.yul\":6279:6316   */\n      mstore\n        /* \"#utility.yul\":6204:6322   */\n      pop\n      pop\n      jump\t// out\n        /* \"#utility.yul\":6328:6550   */\n    tag_50:\n        /* \"#utility.yul\":6421:6425   */\n      0x00\n        /* \"#utility.yul\":6459:6461   */\n      0x20\n        /* \"#utility.yul\":6448:6457   */\n      dup3\n        /* \"#utility.yul\":6444:6462   */\n      add\n        /* \"#utility.yul\":6436:6462   */\n      swap1\n      pop\n        /* \"#utility.yul\":6472:6543   */\n      tag_598\n        /* \"#utility.yul\":6540:6541   */\n      0x00\n        /* \"#utility.yul\":6529:6538   */\n      dup4\n        /* \"#utility.yul\":6525:6542   */\n      add\n        /* \"#utility.yul\":6516:6522   */\n      dup5\n        /* \"#utility.yul\":6472:6543   */\n      tag_446\n      jump\t// in\n    tag_598:\n        /* \"#utility.yul\":6328:6550   */\n      swap3\n      swap2\n      pop\n      pop\n      jump\t// out\n        /* \"#utility.yul\":6556:6616   */\n    tag_447:\n        /* \"#utility.yul\":6584:6587   */\n      0x00\n        /* \"#utility.yul\":6605:6610   */\n      dup2\n        /* \"#utility.yul\":6598:6610   */\n      swap1\n      pop\n        /* \"#utility.yul\":6556:6616   */\n      swap2\n      swap1\n      pop\n      jump\t// out\n        /* \"#utility.yul\":6622:6764   */\n    tag_448:\n        /* \"#utility.yul\":6672:6681   */\n      0x00\n        /* \"#utility.yul\":6705:6758   */\n      tag_601\n        /* \"#utility.yul\":6723:6757   */\n      tag_602\n        /* \"#utility.yul\":6732:6756   */\n      tag_603\n        /* \"#utility.yul\":6750:6755   */\n      dup5\n        /* \"#utility.yul\":6732:6756   */\n      tag_426\n      jump\t// in\n    tag_603:\n        /* \"#utility.yul\":6723:6757   */\n      tag_447\n      jump\t// in\n    tag_602:\n        /* \"#utility.yul\":6705:6758   */\n      tag_426\n      jump\t// in\n    tag_601:\n        /* \"#utility.yul\":6692:6758   */\n      swap1\n      pop\n        /* \"#utility.yul\":6622:6764   */\n      swap2\n      swap1\n      pop\n      jump\t// out\n        /* \"#utility.yul\":6770:6896   */\n    tag_449:\n        /* \"#utility.yul\":6820:6829   */\n      0x00\n        /* \"#utility.yul\":6853:6890   */\n      tag_605\n        /* \"#utility.yul\":6884:6889   */\n      dup3\n        /* \"#utility.yul\":6853:6890   */\n      tag_448\n      jump\t// in\n    tag_605:\n        /* \"#utility.yul\":6840:6890   */\n      swap1\n      pop\n        /* \"#utility.yul\":6770:6896   */\n      swap2\n      swap1\n      pop\n      jump\t// out\n        /* \"#utility.yul\":6902:7046   */\n    tag_450:\n        /* \"#utility.yul\":6970:6979   */\n      0x00\n        /* \"#utility.yul\":7003:7040   */\n      tag_607\n        /* \"#utility.yul\":7034:7039   */\n      dup3\n        /* \"#utility.yul\":7003:7040   */\n      tag_449\n      jump\t// in\n    tag_607:\n        /* \"#utility.yul\":6990:7040   */\n      swap1\n      pop\n        /* \"#utility.yul\":6902:7046   */\n      swap2\n      swap1\n      pop\n      jump\t// out\n        /* \"#utility.yul\":7052:7219   */\n    tag_451:\n        /* \"#utility.yul\":7157:7212   */\n      tag_609\n        /* \"#utility.yul\":7206:7211   */\n      dup2\n        /* \"#utility.yul\":7157:7212   */\n      tag_450\n      jump\t// in\n    tag_609:\n        /* \"#utility.yul\":7152:7155   */\n      dup3\n        /* \"#utility.yul\":7145:7213   */\n      mstore\n        /* \"#utility.yul\":7052:7219   */\n      pop\n      pop\n      jump\t// out\n        /* \"#utility.yul\":7225:7483   */\n    tag_55:\n        /* \"#utility.yul\":7336:7340   */\n      0x00\n        /* \"#utility.yul\":7374:7376   */\n      0x20\n        /* \"#utility.yul\":7363:7372   */\n      dup3\n        /* \"#utility.yul\":7359:7377   */\n      add\n        /* \"#utility.yul\":7351:7377   */\n      swap1\n      pop\n        /* \"#utility.yul\":7387:7476   */\n      tag_611\n        /* \"#utility.yul\":7473:7474   */\n      0x00\n        /* \"#utility.yul\":7462:7471   */\n      dup4\n        /* \"#utility.yul\":7458:7475   */\n      add\n        /* \"#utility.yul\":7449:7455   */\n      dup5\n        /* \"#utility.yul\":7387:7476   */\n      tag_451\n      jump\t// in\n    tag_611:\n        /* \"#utility.yul\":7225:7483   */\n      swap3\n      swap2\n      pop\n      pop\n      jump\t// out\n        /* \"#utility.yul\":7489:7605   */\n    tag_452:\n        /* \"#utility.yul\":7559:7580   */\n      tag_613\n        /* \"#utility.yul\":7574:7579   */\n      dup2\n        /* \"#utility.yul\":7559:7580   */\n      tag_430\n      jump\t// in\n    tag_613:\n        /* \"#utility.yul\":7552:7557   */\n      dup2\n        /* \"#utility.yul\":7549:7581   */\n      eq\n        /* \"#utility.yul\":7539:7599   */\n      tag_614\n      jumpi\n        /* \"#utility.yul\":7595:7596   */\n      0x00\n        /* \"#utility.yul\":7592:7593   */\n      0x00\n        /* \"#utility.yul\":7585:7597   */\n      revert\n        /* \"#utility.yul\":7539:7599   */\n    tag_614:\n        /* \"#utility.yul\":7489:7605   */\n      pop\n      jump\t// out\n        /* \"#utility.yul\":7611:7744   */\n    tag_453:\n        /* \"#utility.yul\":7654:7659   */\n      0x00\n        /* \"#utility.yul\":7692:7698   */\n      dup2\n        /* \"#utility.yul\":7679:7699   */\n      calldataload\n        /* \"#utility.yul\":7670:7699   */\n      swap1\n      pop\n        /* \"#utility.yul\":7708:7738   */\n      tag_616\n        /* \"#utility.yul\":7732:7737   */\n      dup2\n        /* \"#utility.yul\":7708:7738   */\n      tag_452\n      jump\t// in\n    tag_616:\n        /* \"#utility.yul\":7611:7744   */\n      swap3\n      swap2\n      pop\n      pop\n      jump\t// out\n        /* \"#utility.yul\":7750:8073   */\n    tag_63:\n        /* \"#utility.yul\":7806:7812   */\n      0x00\n        /* \"#utility.yul\":7855:7857   */\n      0x20\n        /* \"#utility.yul\":7843:7852   */\n      dup3\n        /* \"#utility.yul\":7834:7841   */\n      dup5\n        /* \"#utility.yul\":7830:7853   */\n      sub\n        /* \"#utility.yul\":7826:7858   */\n      slt\n        /* \"#utility.yul\":7823:7942   */\n      iszero\n      tag_618\n      jumpi\n        /* \"#utility.yul\":7861:7940   */\n      tag_619\n      tag_424\n      jump\t// in\n    tag_619:\n        /* \"#utility.yul\":7823:7942   */\n    tag_618:\n        /* \"#utility.yul\":7981:7982   */\n      0x00\n        /* \"#utility.yul\":8006:8056   */\n      tag_620\n        /* \"#utility.yul\":8048:8055   */\n      dup5\n        /* \"#utility.yul\":8039:8045   */\n      dup3\n        /* \"#utility.yul\":8028:8037   */\n      dup6\n        /* \"#utility.yul\":8024:8046   */\n      add\n        /* \"#utility.yul\":8006:8056   */\n      tag_453\n      jump\t// in\n    tag_620:\n        /* \"#utility.yul\":7996:8056   */\n      swap2\n      pop\n        /* \"#utility.yul\":7952:8066   */\n      pop\n        /* \"#utility.yul\":7750:8073   */\n      swap3\n      swap2\n      pop\n      pop\n      jump\t// out\n        /* \"#utility.yul\":8079:8199   */\n    tag_454:\n        /* \"#utility.yul\":8151:8174   */\n      tag_622\n        /* \"#utility.yul\":8168:8173   */\n      dup2\n        /* \"#utility.yul\":8151:8174   */\n      tag_435\n      jump\t// in\n    tag_622:\n        /* \"#utility.yul\":8144:8149   */\n      dup2\n        /* \"#utility.yul\":8141:8175   */\n      eq\n        /* \"#utility.yul\":8131:8193   */\n      tag_623\n      jumpi\n        /* \"#utility.yul\":8189:8190   */\n      0x00\n        /* \"#utility.yul\":8186:8187   */\n      0x00\n        /* \"#utility.yul\":8179:8191   */\n      revert\n        /* \"#utility.yul\":8131:8193   */\n    tag_623:\n        /* \"#utility.yul\":8079:8199   */\n      pop\n      jump\t// out\n        /* \"#utility.yul\":8205:8342   */\n    tag_455:\n        /* \"#utility.yul\":8250:8255   */\n      0x00\n        /* \"#utility.yul\":8288:8294   */\n      dup2\n        /* \"#utility.yul\":8275:8295   */\n      calldataload\n        /* \"#utility.yul\":8266:8295   */\n      swap1\n      pop\n        /* \"#utility.yul\":8304:8336   */\n      tag_625\n        /* \"#utility.yul\":8330:8335   */\n      dup2\n        /* \"#utility.yul\":8304:8336   */\n      tag_454\n      jump\t// in\n    tag_625:\n        /* \"#utility.yul\":8205:8342   */\n      swap3\n      swap2\n      pop\n      pop\n      jump\t// out\n        /* \"#utility.yul\":8348:8675   */\n    tag_68:\n        /* \"#utility.yul\":8406:8412   */\n      0x00\n        /* \"#utility.yul\":8455:8457   */\n      0x20\n        /* \"#utility.yul\":8443:8452   */\n      dup3\n        /* \"#utility.yul\":8434:8441   */\n      dup5\n        /* \"#utility.yul\":8430:8453   */\n      sub\n        /* \"#utility.yul\":8426:8458   */\n      slt\n        /* \"#utility.yul\":8423:8542   */\n      iszero\n      tag_627\n      jumpi\n        /* \"#utility.yul\":8461:8540   */\n      tag_628\n      tag_424\n      jump\t// in\n    tag_628:\n        /* \"#utility.yul\":8423:8542   */\n    tag_627:\n        /* \"#utility.yul\":8581:8582   */\n      0x00\n        /* \"#utility.yul\":8606:8658   */\n      tag_629\n        /* \"#utility.yul\":8650:8657   */\n      dup5\n        /* \"#utility.yul\":8641:8647   */\n      dup3\n        /* \"#utility.yul\":8630:8639   */\n      dup6\n        /* \"#utility.yul\":8626:8648   */\n      add\n        /* \"#utility.yul\":8606:8658   */\n      tag_455\n      jump\t// in\n    tag_629:\n        /* \"#utility.yul\":8596:8658   */\n      swap2\n      pop\n        /* \"#utility.yul\":8552:8668   */\n      pop\n        /* \"#utility.yul\":8348:8675   */\n      swap3\n      swap2\n      pop\n      pop\n      jump\t// out\n        /* \"#utility.yul\":8681:9010   */\n    tag_73:\n        /* \"#utility.yul\":8740:8746   */\n      0x00\n        /* \"#utility.yul\":8789:8791   */\n      0x20\n        /* \"#utility.yul\":8777:8786   */\n      dup3\n        /* \"#utility.yul\":8768:8775   */\n      dup5\n        /* \"#utility.yul\":8764:8787   */\n      sub\n        /* \"#utility.yul\":8760:8792   */\n      slt\n        /* \"#utility.yul\":8757:8876   */\n      iszero\n      tag_631\n      jumpi\n        /* \"#utility.yul\":8795:8874   */\n      tag_632\n      tag_424\n      jump\t// in\n    tag_632:\n        /* \"#utility.yul\":8757:8876   */\n    tag_631:\n        /* \"#utility.yul\":8915:8916   */\n      0x00\n        /* \"#utility.yul\":8940:8993   */\n      tag_633\n        /* \"#utility.yul\":8985:8992   */\n      dup5\n        /* \"#utility.yul\":8976:8982   */\n      dup3\n        /* \"#utility.yul\":8965:8974   */\n      dup6\n        /* \"#utility.yul\":8961:8983   */\n      add\n        /* \"#utility.yul\":8940:8993   */\n      tag_429\n      jump\t// in\n    tag_633:\n        /* \"#utility.yul\":8930:8993   */\n      swap2\n      pop\n        /* \"#utility.yul\":8886:9003   */\n      pop\n        /* \"#utility.yul\":8681:9010   */\n      swap3\n      swap2\n      pop\n      pop\n      jump\t// out\n        /* \"#utility.yul\":9016:9136   */\n    tag_456:\n        /* \"#utility.yul\":9088:9111   */\n      tag_635\n        /* \"#utility.yul\":9105:9110   */\n      dup2\n        /* \"#utility.yul\":9088:9111   */\n      tag_421\n      jump\t// in\n    tag_635:\n        /* \"#utility.yul\":9081:9086   */\n      dup2\n        /* \"#utility.yul\":9078:9112   */\n      eq\n        /* \"#utility.yul\":9068:9130   */\n      tag_636\n      jumpi\n        /* \"#utility.yul\":9126:9127   */\n      0x00\n        /* \"#utility.yul\":9123:9124   */\n      0x00\n        /* \"#utility.yul\":9116:9128   */\n      revert\n        /* \"#utility.yul\":9068:9130   */\n    tag_636:\n        /* \"#utility.yul\":9016:9136   */\n      pop\n      jump\t// out\n        /* \"#utility.yul\":9142:9279   */\n    tag_457:\n        /* \"#utility.yul\":9187:9192   */\n      0x00\n        /* \"#utility.yul\":9225:9231   */\n      dup2\n        /* \"#utility.yul\":9212:9232   */\n      calldataload\n        /* \"#utility.yul\":9203:9232   */\n      swap1\n      pop\n        /* \"#utility.yul\":9241:9273   */\n      tag_638\n        /* \"#utility.yul\":9267:9272   */\n      dup2\n        /* \"#utility.yul\":9241:9273   */\n      tag_456\n      jump\t// in\n    tag_638:\n        /* \"#utility.yul\":9142:9279   */\n      swap3\n      swap2\n      pop\n      pop\n      jump\t// out\n        /* \"#utility.yul\":9285:9612   */\n    tag_78:\n        /* \"#utility.yul\":9343:9349   */\n      0x00\n        /* \"#utility.yul\":9392:9394   */\n      0x20\n        /* \"#utility.yul\":9380:9389   */\n      dup3\n        /* \"#utility.yul\":9371:9378   */\n      dup5\n        /* \"#utility.yul\":9367:9390   */\n      sub\n        /* \"#utility.yul\":9363:9395   */\n      slt\n        /* \"#utility.yul\":9360:9479   */\n      iszero\n      tag_640\n      jumpi\n        /* \"#utility.yul\":9398:9477   */\n      tag_641\n      tag_424\n      jump\t// in\n    tag_641:\n        /* \"#utility.yul\":9360:9479   */\n    tag_640:\n        /* \"#utility.yul\":9518:9519   */\n      0x00\n        /* \"#utility.yul\":9543:9595   */\n      tag_642\n        /* \"#utility.yul\":9587:9594   */\n      dup5\n        /* \"#utility.yul\":9578:9584   */\n      dup3\n        /* \"#utility.yul\":9567:9576   */\n      dup6\n        /* \"#utility.yul\":9563:9585   */\n      add\n        /* \"#utility.yul\":9543:9595   */\n      tag_457\n      jump\t// in\n    tag_642:\n        /* \"#utility.yul\":9533:9595   */\n      swap2\n      pop\n        /* \"#utility.yul\":9489:9605   */\n      pop\n        /* \"#utility.yul\":9285:9612   */\n      swap3\n      swap2\n      pop\n      pop\n      jump\t// out\n        /* \"#utility.yul\":9618:9722   */\n    tag_458:\n        /* \"#utility.yul\":9663:9670   */\n      0x00\n        /* \"#utility.yul\":9692:9716   */\n      tag_644\n        /* \"#utility.yul\":9710:9715   */\n      dup3\n        /* \"#utility.yul\":9692:9716   */\n      tag_426\n      jump\t// in\n    tag_644:\n        /* \"#utility.yul\":9681:9716   */\n      swap1\n      pop\n        /* \"#utility.yul\":9618:9722   */\n      swap2\n      swap1\n      pop\n      jump\t// out\n        /* \"#utility.yul\":9728:9866   */\n    tag_459:\n        /* \"#utility.yul\":9809:9841   */\n      tag_646\n        /* \"#utility.yul\":9835:9840   */\n      dup2\n        /* \"#utility.yul\":9809:9841   */\n      tag_458\n      jump\t// in\n    tag_646:\n        /* \"#utility.yul\":9802:9807   */\n      dup2\n        /* \"#utility.yul\":9799:9842   */\n      eq\n        /* \"#utility.yul\":9789:9860   */\n      tag_647\n      jumpi\n        /* \"#utility.yul\":9856:9857   */\n      0x00\n        /* \"#utility.yul\":9853:9854   */\n      0x00\n        /* \"#utility.yul\":9846:9858   */\n      revert\n        /* \"#utility.yul\":9789:9860   */\n    tag_647:\n        /* \"#utility.yul\":9728:9866   */\n      pop\n      jump\t// out\n        /* \"#utility.yul\":9872:10027   */\n    tag_460:\n        /* \"#utility.yul\":9926:9931   */\n      0x00\n        /* \"#utility.yul\":9964:9970   */\n      dup2\n        /* \"#utility.yul\":9951:9971   */\n      calldataload\n        /* \"#utility.yul\":9942:9971   */\n      swap1\n      pop\n        /* \"#utility.yul\":9980:10021   */\n      tag_649\n        /* \"#utility.yul\":10015:10020   */\n      dup2\n        /* \"#utility.yul\":9980:10021   */\n      tag_459\n      jump\t// in\n    tag_649:\n        /* \"#utility.yul\":9872:10027   */\n      swap3\n      swap2\n      pop\n      pop\n      jump\t// out\n        /* \"#utility.yul\":10033:10668   */\n    tag_83:\n        /* \"#utility.yul\":10118:10124   */\n      0x00\n        /* \"#utility.yul\":10126:10132   */\n      0x00\n        /* \"#utility.yul\":10134:10140   */\n      0x00\n        /* \"#utility.yul\":10183:10185   */\n      0x60\n        /* \"#utility.yul\":10171:10180   */\n      dup5\n        /* \"#utility.yul\":10162:10169   */\n      dup7\n        /* \"#utility.yul\":10158:10181   */\n      sub\n        /* \"#utility.yul\":10154:10186   */\n      slt\n        /* \"#utility.yul\":10151:10270   */\n      iszero\n      tag_651\n      jumpi\n        /* \"#utility.yul\":10189:10268   */\n      tag_652\n      tag_424\n      jump\t// in\n    tag_652:\n        /* \"#utility.yul\":10151:10270   */\n    tag_651:\n        /* \"#utility.yul\":10309:10310   */\n      0x00\n        /* \"#utility.yul\":10334:10387   */\n      tag_653\n        /* \"#utility.yul\":10379:10386   */\n      dup7\n        /* \"#utility.yul\":10370:10376   */\n      dup3\n        /* \"#utility.yul\":10359:10368   */\n      dup8\n        /* \"#utility.yul\":10355:10377   */\n      add\n        /* \"#utility.yul\":10334:10387   */\n      tag_434\n      jump\t// in\n    tag_653:\n        /* \"#utility.yul\":10324:10387   */\n      swap4\n      pop\n        /* \"#utility.yul\":10280:10397   */\n      pop\n        /* \"#utility.yul\":10436:10438   */\n      0x20\n        /* \"#utility.yul\":10462:10515   */\n      tag_654\n        /* \"#utility.yul\":10507:10514   */\n      dup7\n        /* \"#utility.yul\":10498:10504   */\n      dup3\n        /* \"#utility.yul\":10487:10496   */\n      dup8\n        /* \"#utility.yul\":10483:10505   */\n      add\n        /* \"#utility.yul\":10462:10515   */\n      tag_434\n      jump\t// in\n    tag_654:\n        /* \"#utility.yul\":10452:10515   */\n      swap3\n      pop\n        /* \"#utility.yul\":10407:10525   */\n      pop\n        /* \"#utility.yul\":10564:10566   */\n      0x40\n        /* \"#utility.yul\":10590:10651   */\n      tag_655\n        /* \"#utility.yul\":10643:10650   */\n      dup7\n        /* \"#utility.yul\":10634:10640   */\n      dup3\n        /* \"#utility.yul\":10623:10632   */\n      dup8\n        /* \"#utility.yul\":10619:10641   */\n      add\n        /* \"#utility.yul\":10590:10651   */\n      tag_460\n      jump\t// in\n    tag_655:\n        /* \"#utility.yul\":10580:10651   */\n      swap2\n      pop\n        /* \"#utility.yul\":10535:10661   */\n      pop\n        /* \"#utility.yul\":10033:10668   */\n      swap3\n      pop\n      swap3\n      pop\n      swap3\n      jump\t// out\n        /* \"#utility.yul\":10674:10817   */\n    tag_461:\n        /* \"#utility.yul\":10731:10736   */\n      0x00\n        /* \"#utility.yul\":10762:10768   */\n      dup2\n        /* \"#utility.yul\":10756:10769   */\n      mload\n        /* \"#utility.yul\":10747:10769   */\n      swap1\n      pop\n        /* \"#utility.yul\":10778:10811   */\n      tag_657\n        /* \"#utility.yul\":10805:10810   */\n      dup2\n        /* \"#utility.yul\":10778:10811   */\n      tag_428\n      jump\t// in\n    tag_657:\n        /* \"#utility.yul\":10674:10817   */\n      swap3\n      swap2\n      pop\n      pop\n      jump\t// out\n        /* \"#utility.yul\":10823:11174   */\n    tag_89:\n        /* \"#utility.yul\":10893:10899   */\n      0x00\n        /* \"#utility.yul\":10942:10944   */\n      0x20\n        /* \"#utility.yul\":10930:10939   */\n      dup3\n        /* \"#utility.yul\":10921:10928   */\n      dup5\n        /* \"#utility.yul\":10917:10940   */\n      sub\n        /* \"#utility.yul\":10913:10945   */\n      slt\n        /* \"#utility.yul\":10910:11029   */\n      iszero\n      tag_659\n      jumpi\n        /* \"#utility.yul\":10948:11027   */\n      tag_660\n      tag_424\n      jump\t// in\n    tag_660:\n        /* \"#utility.yul\":10910:11029   */\n    tag_659:\n        /* \"#utility.yul\":11068:11069   */\n      0x00\n        /* \"#utility.yul\":11093:11157   */\n      tag_661\n        /* \"#utility.yul\":11149:11156   */\n      dup5\n        /* \"#utility.yul\":11140:11146   */\n      dup3\n        /* \"#utility.yul\":11129:11138   */\n      dup6\n        /* \"#utility.yul\":11125:11147   */\n      add\n        /* \"#utility.yul\":11093:11157   */\n      tag_461\n      jump\t// in\n    tag_661:\n        /* \"#utility.yul\":11083:11157   */\n      swap2\n      pop\n        /* \"#utility.yul\":11039:11167   */\n      pop\n        /* \"#utility.yul\":10823:11174   */\n      swap3\n      swap2\n      pop\n      pop\n      jump\t// out\n        /* \"#utility.yul\":11180:11349   */\n    tag_462:\n        /* \"#utility.yul\":11264:11275   */\n      0x00\n        /* \"#utility.yul\":11298:11304   */\n      dup3\n        /* \"#utility.yul\":11293:11296   */\n      dup3\n        /* \"#utility.yul\":11286:11305   */\n      mstore\n        /* \"#utility.yul\":11338:11342   */\n      0x20\n        /* \"#utility.yul\":11333:11336   */\n      dup3\n        /* \"#utility.yul\":11329:11343   */\n      add\n        /* \"#utility.yul\":11314:11343   */\n      swap1\n      pop\n        /* \"#utility.yul\":11180:11349   */\n      swap3\n      swap2\n      pop\n      pop\n      jump\t// out\n        /* \"#utility.yul\":11355:11528   */\n    tag_463:\n        /* \"#utility.yul\":11495:11520   */\n      0x43616c6c6572206973206e6f7420746865206f776e6572000000000000000000\n        /* \"#utility.yul\":11491:11492   */\n      0x00\n        /* \"#utility.yul\":11483:11489   */\n      dup3\n        /* \"#utility.yul\":11479:11493   */\n      add\n        /* \"#utility.yul\":11472:11521   */\n      mstore\n        /* \"#utility.yul\":11355:11528   */\n      pop\n      jump\t// out\n        /* \"#utility.yul\":11534:11900   */\n    tag_464:\n        /* \"#utility.yul\":11676:11679   */\n      0x00\n        /* \"#utility.yul\":11697:11764   */\n      tag_665\n        /* \"#utility.yul\":11761:11763   */\n      0x17\n        /* \"#utility.yul\":11756:11759   */\n      dup4\n        /* \"#utility.yul\":11697:11764   */\n      tag_462\n      jump\t// in\n    tag_665:\n        /* \"#utility.yul\":11690:11764   */\n      swap2\n      pop\n        /* \"#utility.yul\":11773:11866   */\n      tag_666\n        /* \"#utility.yul\":11862:11865   */\n      dup3\n        /* \"#utility.yul\":11773:11866   */\n      tag_463\n      jump\t// in\n    tag_666:\n        /* \"#utility.yul\":11891:11893   */\n      0x20\n        /* \"#utility.yul\":11886:11889   */\n      dup3\n        /* \"#utility.yul\":11882:11894   */\n      add\n        /* \"#utility.yul\":11875:11894   */\n      swap1\n      pop\n        /* \"#utility.yul\":11534:11900   */\n      swap2\n      swap1\n      pop\n      jump\t// out\n        /* \"#utility.yul\":11906:12325   */\n    tag_92:\n        /* \"#utility.yul\":12072:12076   */\n      0x00\n        /* \"#utility.yul\":12110:12112   */\n      0x20\n        /* \"#utility.yul\":12099:12108   */\n      dup3\n        /* \"#utility.yul\":12095:12113   */\n      add\n        /* \"#utility.yul\":12087:12113   */\n      swap1\n      pop\n        /* \"#utility.yul\":12159:12168   */\n      dup2\n        /* \"#utility.yul\":12153:12157   */\n      dup2\n        /* \"#utility.yul\":12149:12169   */\n      sub\n        /* \"#utility.yul\":12145:12146   */\n      0x00\n        /* \"#utility.yul\":12134:12143   */\n      dup4\n        /* \"#utility.yul\":12130:12147   */\n      add\n        /* \"#utility.yul\":12123:12170   */\n      mstore\n        /* \"#utility.yul\":12187:12318   */\n      tag_668\n        /* \"#utility.yul\":12313:12317   */\n      dup2\n        /* \"#utility.yul\":12187:12318   */\n      tag_464\n      jump\t// in\n    tag_668:\n        /* \"#utility.yul\":12179:12318   */\n      swap1\n      pop\n        /* \"#utility.yul\":11906:12325   */\n      swap2\n      swap1\n      pop\n      jump\t// out\n        /* \"#utility.yul\":12331:12503   */\n    tag_465:\n        /* \"#utility.yul\":12471:12495   */\n      0x436f6e7472616374206973206e6f742061637469766500000000000000000000\n        /* \"#utility.yul\":12467:12468   */\n      0x00\n        /* \"#utility.yul\":12459:12465   */\n      dup3\n        /* \"#utility.yul\":12455:12469   */\n      add\n        /* \"#utility.yul\":12448:12496   */\n      mstore\n        /* \"#utility.yul\":12331:12503   */\n      pop\n      jump\t// out\n        /* \"#utility.yul\":12509:12875   */\n    tag_466:\n        /* \"#utility.yul\":12651:12654   */\n      0x00\n        /* \"#utility.yul\":12672:12739   */\n      tag_671\n        /* \"#utility.yul\":12736:12738   */\n      0x16\n        /* \"#utility.yul\":12731:12734   */\n      dup4\n        /* \"#utility.yul\":12672:12739   */\n      tag_462\n      jump\t// in\n    tag_671:\n        /* \"#utility.yul\":12665:12739   */\n      swap2\n      pop\n        /* \"#utility.yul\":12748:12841   */\n      tag_672\n        /* \"#utility.yul\":12837:12840   */\n      dup3\n        /* \"#utility.yul\":12748:12841   */\n      tag_465\n      jump\t// in\n    tag_672:\n        /* \"#utility.yul\":12866:12868   */\n      0x20\n        /* \"#utility.yul\":12861:12864   */\n      dup3\n        /* \"#utility.yul\":12857:12869   */\n      add\n        /* \"#utility.yul\":12850:12869   */\n      swap1\n      pop\n        /* \"#utility.yul\":12509:12875   */\n      swap2\n      swap1\n      pop\n      jump\t// out\n        /* \"#utility.yul\":12881:13300   */\n    tag_102:\n        /* \"#utility.yul\":13047:13051   */\n      0x00\n        /* \"#utility.yul\":13085:13087   */\n      0x20\n        /* \"#utility.yul\":13074:13083   */\n      dup3\n        /* \"#utility.yul\":13070:13088   */\n      add\n        /* \"#utility.yul\":13062:13088   */\n      swap1\n      pop\n        /* \"#utility.yul\":13134:13143   */\n      dup2\n        /* \"#utility.yul\":13128:13132   */\n      dup2\n        /* \"#utility.yul\":13124:13144   */\n      sub\n        /* \"#utility.yul\":13120:13121   */\n      0x00\n        /* \"#utility.yul\":13109:13118   */\n      dup4\n        /* \"#utility.yul\":13105:13122   */\n      add\n        /* \"#utility.yul\":13098:13145   */\n      mstore\n        /* \"#utility.yul\":13162:13293   */\n      tag_674\n        /* \"#utility.yul\":13288:13292   */\n      dup2\n        /* \"#utility.yul\":13162:13293   */\n      tag_466\n      jump\t// in\n    tag_674:\n        /* \"#utility.yul\":13154:13293   */\n      swap1\n      pop\n        /* \"#utility.yul\":12881:13300   */\n      swap2\n      swap1\n      pop\n      jump\t// out\n        /* \"#utility.yul\":13306:13424   */\n    tag_467:\n        /* \"#utility.yul\":13393:13417   */\n      tag_676\n        /* \"#utility.yul\":13411:13416   */\n      dup2\n        /* \"#utility.yul\":13393:13417   */\n      tag_432\n      jump\t// in\n    tag_676:\n        /* \"#utility.yul\":13388:13391   */\n      dup3\n        /* \"#utility.yul\":13381:13418   */\n      mstore\n        /* \"#utility.yul\":13306:13424   */\n      pop\n      pop\n      jump\t// out\n        /* \"#utility.yul\":13430:13652   */\n    tag_109:\n        /* \"#utility.yul\":13523:13527   */\n      0x00\n        /* \"#utility.yul\":13561:13563   */\n      0x20\n        /* \"#utility.yul\":13550:13559   */\n      dup3\n        /* \"#utility.yul\":13546:13564   */\n      add\n        /* \"#utility.yul\":13538:13564   */\n      swap1\n      pop\n        /* \"#utility.yul\":13574:13645   */\n      tag_678\n        /* \"#utility.yul\":13642:13643   */\n      0x00\n        /* \"#utility.yul\":13631:13640   */\n      dup4\n        /* \"#utility.yul\":13627:13644   */\n      add\n        /* \"#utility.yul\":13618:13624   */\n      dup5\n        /* \"#utility.yul\":13574:13645   */\n      tag_467\n      jump\t// in\n    tag_678:\n        /* \"#utility.yul\":13430:13652   */\n      swap3\n      swap2\n      pop\n      pop\n      jump\t// out\n        /* \"#utility.yul\":13658:13775   */\n    tag_468:\n        /* \"#utility.yul\":13767:13768   */\n      0x00\n        /* \"#utility.yul\":13764:13765   */\n      0x00\n        /* \"#utility.yul\":13757:13769   */\n      revert\n        /* \"#utility.yul\":13781:13898   */\n    tag_469:\n        /* \"#utility.yul\":13890:13891   */\n      0x00\n        /* \"#utility.yul\":13887:13888   */\n      0x00\n        /* \"#utility.yul\":13880:13892   */\n      revert\n        /* \"#utility.yul\":13904:14043   */\n    tag_470:\n        /* \"#utility.yul\":13993:13999   */\n      dup3\n        /* \"#utility.yul\":13988:13991   */\n      dup2\n        /* \"#utility.yul\":13983:13986   */\n      dup4\n        /* \"#utility.yul\":13977:14000   */\n      mcopy\n        /* \"#utility.yul\":14034:14035   */\n      0x00\n        /* \"#utility.yul\":14025:14031   */\n      dup4\n        /* \"#utility.yul\":14020:14023   */\n      dup4\n        /* \"#utility.yul\":14016:14032   */\n      add\n        /* \"#utility.yul\":14009:14036   */\n      mstore\n        /* \"#utility.yul\":13904:14043   */\n      pop\n      pop\n      pop\n      jump\t// out\n        /* \"#utility.yul\":14049:14483   */\n    tag_471:\n        /* \"#utility.yul\":14138:14143   */\n      0x00\n        /* \"#utility.yul\":14163:14229   */\n      tag_683\n        /* \"#utility.yul\":14179:14228   */\n      tag_684\n        /* \"#utility.yul\":14221:14227   */\n      dup5\n        /* \"#utility.yul\":14179:14228   */\n      tag_442\n      jump\t// in\n    tag_684:\n        /* \"#utility.yul\":14163:14229   */\n      tag_441\n      jump\t// in\n    tag_683:\n        /* \"#utility.yul\":14154:14229   */\n      swap1\n      pop\n        /* \"#utility.yul\":14252:14258   */\n      dup3\n        /* \"#utility.yul\":14245:14250   */\n      dup2\n        /* \"#utility.yul\":14238:14259   */\n      mstore\n        /* \"#utility.yul\":14290:14294   */\n      0x20\n        /* \"#utility.yul\":14283:14288   */\n      dup2\n        /* \"#utility.yul\":14279:14295   */\n      add\n        /* \"#utility.yul\":14328:14331   */\n      dup5\n        /* \"#utility.yul\":14319:14325   */\n      dup5\n        /* \"#utility.yul\":14314:14317   */\n      dup5\n        /* \"#utility.yul\":14310:14326   */\n      add\n        /* \"#utility.yul\":14307:14332   */\n      gt\n        /* \"#utility.yul\":14304:14416   */\n      iszero\n      tag_685\n      jumpi\n        /* \"#utility.yul\":14335:14414   */\n      tag_686\n      tag_438\n      jump\t// in\n    tag_686:\n        /* \"#utility.yul\":14304:14416   */\n    tag_685:\n        /* \"#utility.yul\":14425:14477   */\n      tag_687\n        /* \"#utility.yul\":14470:14476   */\n      dup5\n        /* \"#utility.yul\":14465:14468   */\n      dup3\n        /* \"#utility.yul\":14460:14463   */\n      dup6\n        /* \"#utility.yul\":14425:14477   */\n      tag_470\n      jump\t// in\n    tag_687:\n        /* \"#utility.yul\":14144:14483   */\n      pop\n        /* \"#utility.yul\":14049:14483   */\n      swap4\n      swap3\n      pop\n      pop\n      pop\n      jump\t// out\n        /* \"#utility.yul\":14503:14858   */\n    tag_472:\n        /* \"#utility.yul\":14570:14575   */\n      0x00\n        /* \"#utility.yul\":14619:14622   */\n      dup3\n        /* \"#utility.yul\":14612:14616   */\n      0x1f\n        /* \"#utility.yul\":14604:14610   */\n      dup4\n        /* \"#utility.yul\":14600:14617   */\n      add\n        /* \"#utility.yul\":14596:14623   */\n      slt\n        /* \"#utility.yul\":14586:14708   */\n      tag_689\n      jumpi\n        /* \"#utility.yul\":14627:14706   */\n      tag_690\n      tag_437\n      jump\t// in\n    tag_690:\n        /* \"#utility.yul\":14586:14708   */\n    tag_689:\n        /* \"#utility.yul\":14737:14743   */\n      dup2\n        /* \"#utility.yul\":14731:14744   */\n      mload\n        /* \"#utility.yul\":14762:14852   */\n      tag_691\n        /* \"#utility.yul\":14848:14851   */\n      dup5\n        /* \"#utility.yul\":14840:14846   */\n      dup3\n        /* \"#utility.yul\":14833:14837   */\n      0x20\n        /* \"#utility.yul\":14825:14831   */\n      dup7\n        /* \"#utility.yul\":14821:14838   */\n      add\n        /* \"#utility.yul\":14762:14852   */\n      tag_471\n      jump\t// in\n    tag_691:\n        /* \"#utility.yul\":14753:14852   */\n      swap2\n      pop\n        /* \"#utility.yul\":14576:14858   */\n      pop\n        /* \"#utility.yul\":14503:14858   */\n      swap3\n      swap2\n      pop\n      pop\n      jump\t// out\n        /* \"#utility.yul\":14864:15200   */\n    tag_473:\n        /* \"#utility.yul\":14966:14970   */\n      0x00\n        /* \"#utility.yul\":15056:15074   */\n      0xffffffffffffffff\n        /* \"#utility.yul\":15048:15054   */\n      dup3\n        /* \"#utility.yul\":15045:15075   */\n      gt\n        /* \"#utility.yul\":15042:15098   */\n      iszero\n      tag_693\n      jumpi\n        /* \"#utility.yul\":15078:15096   */\n      tag_694\n      tag_277\n      jump\t// in\n    tag_694:\n        /* \"#utility.yul\":15042:15098   */\n    tag_693:\n        /* \"#utility.yul\":15128:15132   */\n      0x20\n        /* \"#utility.yul\":15120:15126   */\n      dup3\n        /* \"#utility.yul\":15116:15133   */\n      mul\n        /* \"#utility.yul\":15108:15133   */\n      swap1\n      pop\n        /* \"#utility.yul\":15188:15192   */\n      0x20\n        /* \"#utility.yul\":15182:15186   */\n      dup2\n        /* \"#utility.yul\":15178:15193   */\n      add\n        /* \"#utility.yul\":15170:15193   */\n      swap1\n      pop\n        /* \"#utility.yul\":14864:15200   */\n      swap2\n      swap1\n      pop\n      jump\t// out\n        /* \"#utility.yul\":15206:15323   */\n    tag_474:\n        /* \"#utility.yul\":15315:15316   */\n      0x00\n        /* \"#utility.yul\":15312:15313   */\n      0x00\n        /* \"#utility.yul\":15305:15317   */\n      revert\n        /* \"#utility.yul\":15329:15470   */\n    tag_475:\n        /* \"#utility.yul\":15385:15390   */\n      0x00\n        /* \"#utility.yul\":15416:15422   */\n      dup2\n        /* \"#utility.yul\":15410:15423   */\n      mload\n        /* \"#utility.yul\":15401:15423   */\n      swap1\n      pop\n        /* \"#utility.yul\":15432:15464   */\n      tag_697\n        /* \"#utility.yul\":15458:15463   */\n      dup2\n        /* \"#utility.yul\":15432:15464   */\n      tag_454\n      jump\t// in\n    tag_697:\n        /* \"#utility.yul\":15329:15470   */\n      swap3\n      swap2\n      pop\n      pop\n      jump\t// out\n        /* \"#utility.yul\":15498:16118   */\n    tag_476:\n        /* \"#utility.yul\":15583:15588   */\n      0x00\n        /* \"#utility.yul\":15627:15631   */\n      0x40\n        /* \"#utility.yul\":15615:15624   */\n      dup3\n        /* \"#utility.yul\":15610:15613   */\n      dup5\n        /* \"#utility.yul\":15606:15625   */\n      sub\n        /* \"#utility.yul\":15602:15632   */\n      slt\n        /* \"#utility.yul\":15599:15716   */\n      iszero\n      tag_699\n      jumpi\n        /* \"#utility.yul\":15635:15714   */\n      tag_700\n      tag_468\n      jump\t// in\n    tag_700:\n        /* \"#utility.yul\":15599:15716   */\n    tag_699:\n        /* \"#utility.yul\":15734:15755   */\n      tag_701\n        /* \"#utility.yul\":15750:15754   */\n      0x40\n        /* \"#utility.yul\":15734:15755   */\n      tag_441\n      jump\t// in\n    tag_701:\n        /* \"#utility.yul\":15725:15755   */\n      swap1\n      pop\n        /* \"#utility.yul\":15822:15823   */\n      0x00\n        /* \"#utility.yul\":15862:15922   */\n      tag_702\n        /* \"#utility.yul\":15918:15921   */\n      dup5\n        /* \"#utility.yul\":15909:15915   */\n      dup3\n        /* \"#utility.yul\":15898:15907   */\n      dup6\n        /* \"#utility.yul\":15894:15916   */\n      add\n        /* \"#utility.yul\":15862:15922   */\n      tag_461\n      jump\t// in\n    tag_702:\n        /* \"#utility.yul\":15855:15859   */\n      0x00\n        /* \"#utility.yul\":15848:15853   */\n      dup4\n        /* \"#utility.yul\":15844:15860   */\n      add\n        /* \"#utility.yul\":15837:15923   */\n      mstore\n        /* \"#utility.yul\":15765:15934   */\n      pop\n        /* \"#utility.yul\":15999:16001   */\n      0x20\n        /* \"#utility.yul\":16040:16099   */\n      tag_703\n        /* \"#utility.yul\":16095:16098   */\n      dup5\n        /* \"#utility.yul\":16086:16092   */\n      dup3\n        /* \"#utility.yul\":16075:16084   */\n      dup6\n        /* \"#utility.yul\":16071:16093   */\n      add\n        /* \"#utility.yul\":16040:16099   */\n      tag_475\n      jump\t// in\n    tag_703:\n        /* \"#utility.yul\":16033:16037   */\n      0x20\n        /* \"#utility.yul\":16026:16031   */\n      dup4\n        /* \"#utility.yul\":16022:16038   */\n      add\n        /* \"#utility.yul\":16015:16100   */\n      mstore\n        /* \"#utility.yul\":15944:16111   */\n      pop\n        /* \"#utility.yul\":15498:16118   */\n      swap3\n      swap2\n      pop\n      pop\n      jump\t// out\n        /* \"#utility.yul\":16148:16955   */\n    tag_477:\n        /* \"#utility.yul\":16280:16285   */\n      0x00\n        /* \"#utility.yul\":16305:16411   */\n      tag_705\n        /* \"#utility.yul\":16321:16410   */\n      tag_706\n        /* \"#utility.yul\":16403:16409   */\n      dup5\n        /* \"#utility.yul\":16321:16410   */\n      tag_473\n      jump\t// in\n    tag_706:\n        /* \"#utility.yul\":16305:16411   */\n      tag_441\n      jump\t// in\n    tag_705:\n        /* \"#utility.yul\":16296:16411   */\n      swap1\n      pop\n        /* \"#utility.yul\":16431:16436   */\n      dup1\n        /* \"#utility.yul\":16460:16466   */\n      dup4\n        /* \"#utility.yul\":16453:16458   */\n      dup3\n        /* \"#utility.yul\":16446:16467   */\n      mstore\n        /* \"#utility.yul\":16494:16498   */\n      0x20\n        /* \"#utility.yul\":16487:16492   */\n      dup3\n        /* \"#utility.yul\":16483:16499   */\n      add\n        /* \"#utility.yul\":16476:16499   */\n      swap1\n      pop\n        /* \"#utility.yul\":16547:16551   */\n      0x40\n        /* \"#utility.yul\":16539:16545   */\n      dup5\n        /* \"#utility.yul\":16535:16552   */\n      mul\n        /* \"#utility.yul\":16527:16533   */\n      dup4\n        /* \"#utility.yul\":16523:16553   */\n      add\n        /* \"#utility.yul\":16576:16579   */\n      dup6\n        /* \"#utility.yul\":16568:16574   */\n      dup2\n        /* \"#utility.yul\":16565:16580   */\n      gt\n        /* \"#utility.yul\":16562:16684   */\n      iszero\n      tag_707\n      jumpi\n        /* \"#utility.yul\":16595:16674   */\n      tag_708\n      tag_474\n      jump\t// in\n    tag_708:\n        /* \"#utility.yul\":16562:16684   */\n    tag_707:\n        /* \"#utility.yul\":16710:16716   */\n      dup4\n        /* \"#utility.yul\":16693:16949   */\n    tag_709:\n        /* \"#utility.yul\":16727:16733   */\n      dup2\n        /* \"#utility.yul\":16722:16725   */\n      dup2\n        /* \"#utility.yul\":16719:16734   */\n      lt\n        /* \"#utility.yul\":16693:16949   */\n      iszero\n      tag_711\n      jumpi\n        /* \"#utility.yul\":16802:16805   */\n      dup1\n        /* \"#utility.yul\":16831:16904   */\n      tag_712\n        /* \"#utility.yul\":16900:16903   */\n      dup9\n        /* \"#utility.yul\":16888:16898   */\n      dup3\n        /* \"#utility.yul\":16831:16904   */\n      tag_476\n      jump\t// in\n    tag_712:\n        /* \"#utility.yul\":16826:16829   */\n      dup5\n        /* \"#utility.yul\":16819:16905   */\n      mstore\n        /* \"#utility.yul\":16934:16938   */\n      0x20\n        /* \"#utility.yul\":16929:16932   */\n      dup5\n        /* \"#utility.yul\":16925:16939   */\n      add\n        /* \"#utility.yul\":16918:16939   */\n      swap4\n      pop\n        /* \"#utility.yul\":16769:16949   */\n      pop\n        /* \"#utility.yul\":16753:16757   */\n      0x40\n        /* \"#utility.yul\":16748:16751   */\n      dup2\n        /* \"#utility.yul\":16744:16758   */\n      add\n        /* \"#utility.yul\":16737:16758   */\n      swap1\n      pop\n        /* \"#utility.yul\":16693:16949   */\n      jump(tag_709)\n    tag_711:\n        /* \"#utility.yul\":16697:16718   */\n      pop\n        /* \"#utility.yul\":16286:16955   */\n      pop\n      pop\n        /* \"#utility.yul\":16148:16955   */\n      swap4\n      swap3\n      pop\n      pop\n      pop\n      jump\t// out\n        /* \"#utility.yul\":16985:17420   */\n    tag_478:\n        /* \"#utility.yul\":17092:17097   */\n      0x00\n        /* \"#utility.yul\":17141:17144   */\n      dup3\n        /* \"#utility.yul\":17134:17138   */\n      0x1f\n        /* \"#utility.yul\":17126:17132   */\n      dup4\n        /* \"#utility.yul\":17122:17139   */\n      add\n        /* \"#utility.yul\":17118:17145   */\n      slt\n        /* \"#utility.yul\":17108:17230   */\n      tag_714\n      jumpi\n        /* \"#utility.yul\":17149:17228   */\n      tag_715\n      tag_437\n      jump\t// in\n    tag_715:\n        /* \"#utility.yul\":17108:17230   */\n    tag_714:\n        /* \"#utility.yul\":17259:17265   */\n      dup2\n        /* \"#utility.yul\":17253:17266   */\n      mload\n        /* \"#utility.yul\":17284:17414   */\n      tag_716\n        /* \"#utility.yul\":17410:17413   */\n      dup5\n        /* \"#utility.yul\":17402:17408   */\n      dup3\n        /* \"#utility.yul\":17395:17399   */\n      0x20\n        /* \"#utility.yul\":17387:17393   */\n      dup7\n        /* \"#utility.yul\":17383:17400   */\n      add\n        /* \"#utility.yul\":17284:17414   */\n      tag_477\n      jump\t// in\n    tag_716:\n        /* \"#utility.yul\":17275:17414   */\n      swap2\n      pop\n        /* \"#utility.yul\":17098:17420   */\n      pop\n        /* \"#utility.yul\":16985:17420   */\n      swap3\n      swap2\n      pop\n      pop\n      jump\t// out\n        /* \"#utility.yul\":17446:18758   */\n    tag_479:\n        /* \"#utility.yul\":17529:17534   */\n      0x00\n        /* \"#utility.yul\":17573:17577   */\n      0x60\n        /* \"#utility.yul\":17561:17570   */\n      dup3\n        /* \"#utility.yul\":17556:17559   */\n      dup5\n        /* \"#utility.yul\":17552:17571   */\n      sub\n        /* \"#utility.yul\":17548:17578   */\n      slt\n        /* \"#utility.yul\":17545:17662   */\n      iszero\n      tag_718\n      jumpi\n        /* \"#utility.yul\":17581:17660   */\n      tag_719\n      tag_468\n      jump\t// in\n    tag_719:\n        /* \"#utility.yul\":17545:17662   */\n    tag_718:\n        /* \"#utility.yul\":17680:17701   */\n      tag_720\n        /* \"#utility.yul\":17696:17700   */\n      0x60\n        /* \"#utility.yul\":17680:17701   */\n      tag_441\n      jump\t// in\n    tag_720:\n        /* \"#utility.yul\":17671:17701   */\n      swap1\n      pop\n        /* \"#utility.yul\":17781:17782   */\n      0x00\n        /* \"#utility.yul\":17770:17779   */\n      dup3\n        /* \"#utility.yul\":17766:17783   */\n      add\n        /* \"#utility.yul\":17760:17784   */\n      mload\n        /* \"#utility.yul\":17811:17829   */\n      0xffffffffffffffff\n        /* \"#utility.yul\":17803:17809   */\n      dup2\n        /* \"#utility.yul\":17800:17830   */\n      gt\n        /* \"#utility.yul\":17797:17914   */\n      iszero\n      tag_721\n      jumpi\n        /* \"#utility.yul\":17833:17912   */\n      tag_722\n      tag_469\n      jump\t// in\n    tag_722:\n        /* \"#utility.yul\":17797:17914   */\n    tag_721:\n        /* \"#utility.yul\":17953:18023   */\n      tag_723\n        /* \"#utility.yul\":18019:18022   */\n      dup5\n        /* \"#utility.yul\":18010:18016   */\n      dup3\n        /* \"#utility.yul\":17999:18008   */\n      dup6\n        /* \"#utility.yul\":17995:18017   */\n      add\n        /* \"#utility.yul\":17953:18023   */\n      tag_472\n      jump\t// in\n    tag_723:\n        /* \"#utility.yul\":17946:17950   */\n      0x00\n        /* \"#utility.yul\":17939:17944   */\n      dup4\n        /* \"#utility.yul\":17935:17951   */\n      add\n        /* \"#utility.yul\":17928:18024   */\n      mstore\n        /* \"#utility.yul\":17711:18035   */\n      pop\n        /* \"#utility.yul\":18117:18119   */\n      0x20\n        /* \"#utility.yul\":18106:18115   */\n      dup3\n        /* \"#utility.yul\":18102:18120   */\n      add\n        /* \"#utility.yul\":18096:18121   */\n      mload\n        /* \"#utility.yul\":18148:18166   */\n      0xffffffffffffffff\n        /* \"#utility.yul\":18140:18146   */\n      dup2\n        /* \"#utility.yul\":18137:18167   */\n      gt\n        /* \"#utility.yul\":18134:18251   */\n      iszero\n      tag_724\n      jumpi\n        /* \"#utility.yul\":18170:18249   */\n      tag_725\n      tag_469\n      jump\t// in\n    tag_725:\n        /* \"#utility.yul\":18134:18251   */\n    tag_724:\n        /* \"#utility.yul\":18290:18360   */\n      tag_726\n        /* \"#utility.yul\":18356:18359   */\n      dup5\n        /* \"#utility.yul\":18347:18353   */\n      dup3\n        /* \"#utility.yul\":18336:18345   */\n      dup6\n        /* \"#utility.yul\":18332:18354   */\n      add\n        /* \"#utility.yul\":18290:18360   */\n      tag_472\n      jump\t// in\n    tag_726:\n        /* \"#utility.yul\":18283:18287   */\n      0x20\n        /* \"#utility.yul\":18276:18281   */\n      dup4\n        /* \"#utility.yul\":18272:18288   */\n      add\n        /* \"#utility.yul\":18265:18361   */\n      mstore\n        /* \"#utility.yul\":18045:18372   */\n      pop\n        /* \"#utility.yul\":18456:18458   */\n      0x40\n        /* \"#utility.yul\":18445:18454   */\n      dup3\n        /* \"#utility.yul\":18441:18459   */\n      add\n        /* \"#utility.yul\":18435:18460   */\n      mload\n        /* \"#utility.yul\":18487:18505   */\n      0xffffffffffffffff\n        /* \"#utility.yul\":18479:18485   */\n      dup2\n        /* \"#utility.yul\":18476:18506   */\n      gt\n        /* \"#utility.yul\":18473:18590   */\n      iszero\n      tag_727\n      jumpi\n        /* \"#utility.yul\":18509:18588   */\n      tag_728\n      tag_469\n      jump\t// in\n    tag_728:\n        /* \"#utility.yul\":18473:18590   */\n    tag_727:\n        /* \"#utility.yul\":18629:18739   */\n      tag_729\n        /* \"#utility.yul\":18735:18738   */\n      dup5\n        /* \"#utility.yul\":18726:18732   */\n      dup3\n        /* \"#utility.yul\":18715:18724   */\n      dup6\n        /* \"#utility.yul\":18711:18733   */\n      add\n        /* \"#utility.yul\":18629:18739   */\n      tag_478\n      jump\t// in\n    tag_729:\n        /* \"#utility.yul\":18622:18626   */\n      0x40\n        /* \"#utility.yul\":18615:18620   */\n      dup4\n        /* \"#utility.yul\":18611:18627   */\n      add\n        /* \"#utility.yul\":18604:18740   */\n      mstore\n        /* \"#utility.yul\":18382:18751   */\n      pop\n        /* \"#utility.yul\":17446:18758   */\n      swap3\n      swap2\n      pop\n      pop\n      jump\t// out\n        /* \"#utility.yul\":18764:19314   */\n    tag_113:\n        /* \"#utility.yul\":18857:18863   */\n      0x00\n        /* \"#utility.yul\":18906:18908   */\n      0x20\n        /* \"#utility.yul\":18894:18903   */\n      dup3\n        /* \"#utility.yul\":18885:18892   */\n      dup5\n        /* \"#utility.yul\":18881:18904   */\n      sub\n        /* \"#utility.yul\":18877:18909   */\n      slt\n        /* \"#utility.yul\":18874:18993   */\n      iszero\n      tag_731\n      jumpi\n        /* \"#utility.yul\":18912:18991   */\n      tag_732\n      tag_424\n      jump\t// in\n    tag_732:\n        /* \"#utility.yul\":18874:18993   */\n    tag_731:\n        /* \"#utility.yul\":19053:19054   */\n      0x00\n        /* \"#utility.yul\":19042:19051   */\n      dup3\n        /* \"#utility.yul\":19038:19055   */\n      add\n        /* \"#utility.yul\":19032:19056   */\n      mload\n        /* \"#utility.yul\":19083:19101   */\n      0xffffffffffffffff\n        /* \"#utility.yul\":19075:19081   */\n      dup2\n        /* \"#utility.yul\":19072:19102   */\n      gt\n        /* \"#utility.yul\":19069:19186   */\n      iszero\n      tag_733\n      jumpi\n        /* \"#utility.yul\":19105:19184   */\n      tag_734\n      tag_425\n      jump\t// in\n    tag_734:\n        /* \"#utility.yul\":19069:19186   */\n    tag_733:\n        /* \"#utility.yul\":19210:19297   */\n      tag_735\n        /* \"#utility.yul\":19289:19296   */\n      dup5\n        /* \"#utility.yul\":19280:19286   */\n      dup3\n        /* \"#utility.yul\":19269:19278   */\n      dup6\n        /* \"#utility.yul\":19265:19287   */\n      add\n        /* \"#utility.yul\":19210:19297   */\n      tag_479\n      jump\t// in\n    tag_735:\n        /* \"#utility.yul\":19200:19297   */\n      swap2\n      pop\n        /* \"#utility.yul\":19003:19307   */\n      pop\n        /* \"#utility.yul\":18764:19314   */\n      swap3\n      swap2\n      pop\n      pop\n      jump\t// out\n        /* \"#utility.yul\":19320:19652   */\n    tag_123:\n        /* \"#utility.yul\":19441:19445   */\n      0x00\n        /* \"#utility.yul\":19479:19481   */\n      0x40\n        /* \"#utility.yul\":19468:19477   */\n      dup3\n        /* \"#utility.yul\":19464:19482   */\n      add\n        /* \"#utility.yul\":19456:19482   */\n      swap1\n      pop\n        /* \"#utility.yul\":19492:19563   */\n      tag_737\n        /* \"#utility.yul\":19560:19561   */\n      0x00\n        /* \"#utility.yul\":19549:19558   */\n      dup4\n        /* \"#utility.yul\":19545:19562   */\n      add\n        /* \"#utility.yul\":19536:19542   */\n      dup6\n        /* \"#utility.yul\":19492:19563   */\n      tag_446\n      jump\t// in\n    tag_737:\n        /* \"#utility.yul\":19573:19645   */\n      tag_738\n        /* \"#utility.yul\":19641:19643   */\n      0x20\n        /* \"#utility.yul\":19630:19639   */\n      dup4\n        /* \"#utility.yul\":19626:19644   */\n      add\n        /* \"#utility.yul\":19617:19623   */\n      dup5\n        /* \"#utility.yul\":19573:19645   */\n      tag_467\n      jump\t// in\n    tag_738:\n        /* \"#utility.yul\":19320:19652   */\n      swap4\n      swap3\n      pop\n      pop\n      pop\n      jump\t// out\n        /* \"#utility.yul\":19658:19990   */\n    tag_130:\n        /* \"#utility.yul\":19779:19783   */\n      0x00\n        /* \"#utility.yul\":19817:19819   */\n      0x40\n        /* \"#utility.yul\":19806:19815   */\n      dup3\n        /* \"#utility.yul\":19802:19820   */\n      add\n        /* \"#utility.yul\":19794:19820   */\n      swap1\n      pop\n        /* \"#utility.yul\":19830:19901   */\n      tag_740\n        /* \"#utility.yul\":19898:19899   */\n      0x00\n        /* \"#utility.yul\":19887:19896   */\n      dup4\n        /* \"#utility.yul\":19883:19900   */\n      add\n        /* \"#utility.yul\":19874:19880   */\n      dup6\n        /* \"#utility.yul\":19830:19901   */\n      tag_467\n      jump\t// in\n    tag_740:\n        /* \"#utility.yul\":19911:19983   */\n      tag_741\n        /* \"#utility.yul\":19979:19981   */\n      0x20\n        /* \"#utility.yul\":19968:19977   */\n      dup4\n        /* \"#utility.yul\":19964:19982   */\n      add\n        /* \"#utility.yul\":19955:19961   */\n      dup5\n        /* \"#utility.yul\":19911:19983   */\n      tag_467\n      jump\t// in\n    tag_741:\n        /* \"#utility.yul\":19658:19990   */\n      swap4\n      swap3\n      pop\n      pop\n      pop\n      jump\t// out\n        /* \"#utility.yul\":19996:20660   */\n    tag_135:\n        /* \"#utility.yul\":20201:20205   */\n      0x00\n        /* \"#utility.yul\":20239:20242   */\n      0xa0\n        /* \"#utility.yul\":20228:20237   */\n      dup3\n        /* \"#utility.yul\":20224:20243   */\n      add\n        /* \"#utility.yul\":20216:20243   */\n      swap1\n      pop\n        /* \"#utility.yul\":20253:20324   */\n      tag_743\n        /* \"#utility.yul\":20321:20322   */\n      0x00\n        /* \"#utility.yul\":20310:20319   */\n      dup4\n        /* \"#utility.yul\":20306:20323   */\n      add\n        /* \"#utility.yul\":20297:20303   */\n      dup9\n        /* \"#utility.yul\":20253:20324   */\n      tag_467\n      jump\t// in\n    tag_743:\n        /* \"#utility.yul\":20334:20406   */\n      tag_744\n        /* \"#utility.yul\":20402:20404   */\n      0x20\n        /* \"#utility.yul\":20391:20400   */\n      dup4\n        /* \"#utility.yul\":20387:20405   */\n      add\n        /* \"#utility.yul\":20378:20384   */\n      dup8\n        /* \"#utility.yul\":20334:20406   */\n      tag_446\n      jump\t// in\n    tag_744:\n        /* \"#utility.yul\":20416:20488   */\n      tag_745\n        /* \"#utility.yul\":20484:20486   */\n      0x40\n        /* \"#utility.yul\":20473:20482   */\n      dup4\n        /* \"#utility.yul\":20469:20487   */\n      add\n        /* \"#utility.yul\":20460:20466   */\n      dup7\n        /* \"#utility.yul\":20416:20488   */\n      tag_446\n      jump\t// in\n    tag_745:\n        /* \"#utility.yul\":20498:20570   */\n      tag_746\n        /* \"#utility.yul\":20566:20568   */\n      0x60\n        /* \"#utility.yul\":20555:20564   */\n      dup4\n        /* \"#utility.yul\":20551:20569   */\n      add\n        /* \"#utility.yul\":20542:20548   */\n      dup6\n        /* \"#utility.yul\":20498:20570   */\n      tag_467\n      jump\t// in\n    tag_746:\n        /* \"#utility.yul\":20580:20653   */\n      tag_747\n        /* \"#utility.yul\":20648:20651   */\n      0x80\n        /* \"#utility.yul\":20637:20646   */\n      dup4\n        /* \"#utility.yul\":20633:20652   */\n      add\n        /* \"#utility.yul\":20624:20630   */\n      dup5\n        /* \"#utility.yul\":20580:20653   */\n      tag_467\n      jump\t// in\n    tag_747:\n        /* \"#utility.yul\":19996:20660   */\n      swap7\n      swap6\n      pop\n      pop\n      pop\n      pop\n      pop\n      pop\n      jump\t// out\n        /* \"#utility.yul\":20666:20765   */\n    tag_480:\n        /* \"#utility.yul\":20718:20724   */\n      0x00\n        /* \"#utility.yul\":20752:20757   */\n      dup2\n        /* \"#utility.yul\":20746:20758   */\n      mload\n        /* \"#utility.yul\":20736:20758   */\n      swap1\n      pop\n        /* \"#utility.yul\":20666:20765   */\n      swap2\n      swap1\n      pop\n      jump\t// out\n        /* \"#utility.yul\":20771:21148   */\n    tag_481:\n        /* \"#utility.yul\":20859:20862   */\n      0x00\n        /* \"#utility.yul\":20887:20926   */\n      tag_750\n        /* \"#utility.yul\":20920:20925   */\n      dup3\n        /* \"#utility.yul\":20887:20926   */\n      tag_480\n      jump\t// in\n    tag_750:\n        /* \"#utility.yul\":20942:21013   */\n      tag_751\n        /* \"#utility.yul\":21006:21012   */\n      dup2\n        /* \"#utility.yul\":21001:21004   */\n      dup6\n        /* \"#utility.yul\":20942:21013   */\n      tag_462\n      jump\t// in\n    tag_751:\n        /* \"#utility.yul\":20935:21013   */\n      swap4\n      pop\n        /* \"#utility.yul\":21022:21087   */\n      tag_752\n        /* \"#utility.yul\":21080:21086   */\n      dup2\n        /* \"#utility.yul\":21075:21078   */\n      dup6\n        /* \"#utility.yul\":21068:21072   */\n      0x20\n        /* \"#utility.yul\":21061:21066   */\n      dup7\n        /* \"#utility.yul\":21057:21073   */\n      add\n        /* \"#utility.yul\":21022:21087   */\n      tag_470\n      jump\t// in\n    tag_752:\n        /* \"#utility.yul\":21112:21141   */\n      tag_753\n        /* \"#utility.yul\":21134:21140   */\n      dup2\n        /* \"#utility.yul\":21112:21141   */\n      tag_439\n      jump\t// in\n    tag_753:\n        /* \"#utility.yul\":21107:21110   */\n      dup5\n        /* \"#utility.yul\":21103:21142   */\n      add\n        /* \"#utility.yul\":21096:21142   */\n      swap2\n      pop\n        /* \"#utility.yul\":20863:21148   */\n      pop\n        /* \"#utility.yul\":20771:21148   */\n      swap3\n      swap2\n      pop\n      pop\n      jump\t// out\n        /* \"#utility.yul\":21154:21467   */\n    tag_140:\n        /* \"#utility.yul\":21267:21271   */\n      0x00\n        /* \"#utility.yul\":21305:21307   */\n      0x20\n        /* \"#utility.yul\":21294:21303   */\n      dup3\n        /* \"#utility.yul\":21290:21308   */\n      add\n        /* \"#utility.yul\":21282:21308   */\n      swap1\n      pop\n        /* \"#utility.yul\":21354:21363   */\n      dup2\n        /* \"#utility.yul\":21348:21352   */\n      dup2\n        /* \"#utility.yul\":21344:21364   */\n      sub\n        /* \"#utility.yul\":21340:21341   */\n      0x00\n        /* \"#utility.yul\":21329:21338   */\n      dup4\n        /* \"#utility.yul\":21325:21342   */\n      add\n        /* \"#utility.yul\":21318:21365   */\n      mstore\n        /* \"#utility.yul\":21382:21460   */\n      tag_755\n        /* \"#utility.yul\":21455:21459   */\n      dup2\n        /* \"#utility.yul\":21446:21452   */\n      dup5\n        /* \"#utility.yul\":21382:21460   */\n      tag_481\n      jump\t// in\n    tag_755:\n        /* \"#utility.yul\":21374:21460   */\n      swap1\n      pop\n        /* \"#utility.yul\":21154:21467   */\n      swap3\n      swap2\n      pop\n      pop\n      jump\t// out\n        /* \"#utility.yul\":21473:21616   */\n    tag_482:\n        /* \"#utility.yul\":21530:21535   */\n      0x00\n        /* \"#utility.yul\":21561:21567   */\n      dup2\n        /* \"#utility.yul\":21555:21568   */\n      mload\n        /* \"#utility.yul\":21546:21568   */\n      swap1\n      pop\n        /* \"#utility.yul\":21577:21610   */\n      tag_757\n        /* \"#utility.yul\":21604:21609   */\n      dup2\n        /* \"#utility.yul\":21577:21610   */\n      tag_433\n      jump\t// in\n    tag_757:\n        /* \"#utility.yul\":21473:21616   */\n      swap3\n      swap2\n      pop\n      pop\n      jump\t// out\n        /* \"#utility.yul\":21622:21973   */\n    tag_200:\n        /* \"#utility.yul\":21692:21698   */\n      0x00\n        /* \"#utility.yul\":21741:21743   */\n      0x20\n        /* \"#utility.yul\":21729:21738   */\n      dup3\n        /* \"#utility.yul\":21720:21727   */\n      dup5\n        /* \"#utility.yul\":21716:21739   */\n      sub\n        /* \"#utility.yul\":21712:21744   */\n      slt\n        /* \"#utility.yul\":21709:21828   */\n      iszero\n      tag_759\n      jumpi\n        /* \"#utility.yul\":21747:21826   */\n      tag_760\n      tag_424\n      jump\t// in\n    tag_760:\n        /* \"#utility.yul\":21709:21828   */\n    tag_759:\n        /* \"#utility.yul\":21867:21868   */\n      0x00\n        /* \"#utility.yul\":21892:21956   */\n      tag_761\n        /* \"#utility.yul\":21948:21955   */\n      dup5\n        /* \"#utility.yul\":21939:21945   */\n      dup3\n        /* \"#utility.yul\":21928:21937   */\n      dup6\n        /* \"#utility.yul\":21924:21946   */\n      add\n        /* \"#utility.yul\":21892:21956   */\n      tag_482\n      jump\t// in\n    tag_761:\n        /* \"#utility.yul\":21882:21956   */\n      swap2\n      pop\n        /* \"#utility.yul\":21838:21966   */\n      pop\n        /* \"#utility.yul\":21622:21973   */\n      swap3\n      swap2\n      pop\n      pop\n      jump\t// out\n        /* \"#utility.yul\":21979:22159   */\n    tag_483:\n        /* \"#utility.yul\":22027:22104   */\n      0x4e487b7100000000000000000000000000000000000000000000000000000000\n        /* \"#utility.yul\":22024:22025   */\n      0x00\n        /* \"#utility.yul\":22017:22105   */\n      mstore\n        /* \"#utility.yul\":22124:22128   */\n      0x11\n        /* \"#utility.yul\":22121:22122   */\n      0x04\n        /* \"#utility.yul\":22114:22129   */\n      mstore\n        /* \"#utility.yul\":22148:22152   */\n      0x24\n        /* \"#utility.yul\":22145:22146   */\n      0x00\n        /* \"#utility.yul\":22138:22153   */\n      revert\n        /* \"#utility.yul\":22165:22359   */\n    tag_210:\n        /* \"#utility.yul\":22205:22209   */\n      0x00\n        /* \"#utility.yul\":22225:22245   */\n      tag_764\n        /* \"#utility.yul\":22243:22244   */\n      dup3\n        /* \"#utility.yul\":22225:22245   */\n      tag_432\n      jump\t// in\n    tag_764:\n        /* \"#utility.yul\":22220:22245   */\n      swap2\n      pop\n        /* \"#utility.yul\":22259:22279   */\n      tag_765\n        /* \"#utility.yul\":22277:22278   */\n      dup4\n        /* \"#utility.yul\":22259:22279   */\n      tag_432\n      jump\t// in\n    tag_765:\n        /* \"#utility.yul\":22254:22279   */\n      swap3\n      pop\n        /* \"#utility.yul\":22303:22304   */\n      dup3\n        /* \"#utility.yul\":22300:22301   */\n      dup3\n        /* \"#utility.yul\":22296:22305   */\n      sub\n        /* \"#utility.yul\":22288:22305   */\n      swap1\n      pop\n        /* \"#utility.yul\":22327:22328   */\n      dup2\n        /* \"#utility.yul\":22321:22325   */\n      dup2\n        /* \"#utility.yul\":22318:22329   */\n      gt\n        /* \"#utility.yul\":22315:22352   */\n      iszero\n      tag_766\n      jumpi\n        /* \"#utility.yul\":22332:22350   */\n      tag_767\n      tag_483\n      jump\t// in\n    tag_767:\n        /* \"#utility.yul\":22315:22352   */\n    tag_766:\n        /* \"#utility.yul\":22165:22359   */\n      swap3\n      swap2\n      pop\n      pop\n      jump\t// out\n        /* \"#utility.yul\":22365:22499   */\n    tag_484:\n        /* \"#utility.yul\":22423:22432   */\n      0x00\n        /* \"#utility.yul\":22456:22493   */\n      tag_769\n        /* \"#utility.yul\":22487:22492   */\n      dup3\n        /* \"#utility.yul\":22456:22493   */\n      tag_449\n      jump\t// in\n    tag_769:\n        /* \"#utility.yul\":22443:22493   */\n      swap1\n      pop\n        /* \"#utility.yul\":22365:22499   */\n      swap2\n      swap1\n      pop\n      jump\t// out\n        /* \"#utility.yul\":22505:22652   */\n    tag_485:\n        /* \"#utility.yul\":22600:22645   */\n      tag_771\n        /* \"#utility.yul\":22639:22644   */\n      dup2\n        /* \"#utility.yul\":22600:22645   */\n      tag_484\n      jump\t// in\n    tag_771:\n        /* \"#utility.yul\":22595:22598   */\n      dup3\n        /* \"#utility.yul\":22588:22646   */\n      mstore\n        /* \"#utility.yul\":22505:22652   */\n      pop\n      pop\n      jump\t// out\n        /* \"#utility.yul\":22658:23338   */\n    tag_221:\n        /* \"#utility.yul\":22871:22875   */\n      0x00\n        /* \"#utility.yul\":22909:22912   */\n      0xa0\n        /* \"#utility.yul\":22898:22907   */\n      dup3\n        /* \"#utility.yul\":22894:22913   */\n      add\n        /* \"#utility.yul\":22886:22913   */\n      swap1\n      pop\n        /* \"#utility.yul\":22923:22994   */\n      tag_773\n        /* \"#utility.yul\":22991:22992   */\n      0x00\n        /* \"#utility.yul\":22980:22989   */\n      dup4\n        /* \"#utility.yul\":22976:22993   */\n      add\n        /* \"#utility.yul\":22967:22973   */\n      dup9\n        /* \"#utility.yul\":22923:22994   */\n      tag_467\n      jump\t// in\n    tag_773:\n        /* \"#utility.yul\":23004:23076   */\n      tag_774\n        /* \"#utility.yul\":23072:23074   */\n      0x20\n        /* \"#utility.yul\":23061:23070   */\n      dup4\n        /* \"#utility.yul\":23057:23075   */\n      add\n        /* \"#utility.yul\":23048:23054   */\n      dup8\n        /* \"#utility.yul\":23004:23076   */\n      tag_446\n      jump\t// in\n    tag_774:\n        /* \"#utility.yul\":23086:23166   */\n      tag_775\n        /* \"#utility.yul\":23162:23164   */\n      0x40\n        /* \"#utility.yul\":23151:23160   */\n      dup4\n        /* \"#utility.yul\":23147:23165   */\n      add\n        /* \"#utility.yul\":23138:23144   */\n      dup7\n        /* \"#utility.yul\":23086:23166   */\n      tag_485\n      jump\t// in\n    tag_775:\n        /* \"#utility.yul\":23176:23248   */\n      tag_776\n        /* \"#utility.yul\":23244:23246   */\n      0x60\n        /* \"#utility.yul\":23233:23242   */\n      dup4\n        /* \"#utility.yul\":23229:23247   */\n      add\n        /* \"#utility.yul\":23220:23226   */\n      dup6\n        /* \"#utility.yul\":23176:23248   */\n      tag_467\n      jump\t// in\n    tag_776:\n        /* \"#utility.yul\":23258:23331   */\n      tag_777\n        /* \"#utility.yul\":23326:23329   */\n      0x80\n        /* \"#utility.yul\":23315:23324   */\n      dup4\n        /* \"#utility.yul\":23311:23330   */\n      add\n        /* \"#utility.yul\":23302:23308   */\n      dup5\n        /* \"#utility.yul\":23258:23331   */\n      tag_467\n      jump\t// in\n    tag_777:\n        /* \"#utility.yul\":22658:23338   */\n      swap7\n      swap6\n      pop\n      pop\n      pop\n      pop\n      pop\n      pop\n      jump\t// out\n        /* \"#utility.yul\":23344:23525   */\n    tag_486:\n        /* \"#utility.yul\":23484:23517   */\n      0x5265656e7472616e637947756172643a207265656e7472616e742063616c6c00\n        /* \"#utility.yul\":23480:23481   */\n      0x00\n        /* \"#utility.yul\":23472:23478   */\n      dup3\n        /* \"#utility.yul\":23468:23482   */\n      add\n        /* \"#utility.yul\":23461:23518   */\n      mstore\n        /* \"#utility.yul\":23344:23525   */\n      pop\n      jump\t// out\n        /* \"#utility.yul\":23531:23897   */\n    tag_487:\n        /* \"#utility.yul\":23673:23676   */\n      0x00\n        /* \"#utility.yul\":23694:23761   */\n      tag_780\n        /* \"#utility.yul\":23758:23760   */\n      0x1f\n        /* \"#utility.yul\":23753:23756   */\n      dup4\n        /* \"#utility.yul\":23694:23761   */\n      tag_462\n      jump\t// in\n    tag_780:\n        /* \"#utility.yul\":23687:23761   */\n      swap2\n      pop\n        /* \"#utility.yul\":23770:23863   */\n      tag_781\n        /* \"#utility.yul\":23859:23862   */\n      dup3\n        /* \"#utility.yul\":23770:23863   */\n      tag_486\n      jump\t// in\n    tag_781:\n        /* \"#utility.yul\":23888:23890   */\n      0x20\n        /* \"#utility.yul\":23883:23886   */\n      dup3\n        /* \"#utility.yul\":23879:23891   */\n      add\n        /* \"#utility.yul\":23872:23891   */\n      swap1\n      pop\n        /* \"#utility.yul\":23531:23897   */\n      swap2\n      swap1\n      pop\n      jump\t// out\n        /* \"#utility.yul\":23903:24322   */\n    tag_229:\n        /* \"#utility.yul\":24069:24073   */\n      0x00\n        /* \"#utility.yul\":24107:24109   */\n      0x20\n        /* \"#utility.yul\":24096:24105   */\n      dup3\n        /* \"#utility.yul\":24092:24110   */\n      add\n        /* \"#utility.yul\":24084:24110   */\n      swap1\n      pop\n        /* \"#utility.yul\":24156:24165   */\n      dup2\n        /* \"#utility.yul\":24150:24154   */\n      dup2\n        /* \"#utility.yul\":24146:24166   */\n      sub\n        /* \"#utility.yul\":24142:24143   */\n      0x00\n        /* \"#utility.yul\":24131:24140   */\n      dup4\n        /* \"#utility.yul\":24127:24144   */\n      add\n        /* \"#utility.yul\":24120:24167   */\n      mstore\n        /* \"#utility.yul\":24184:24315   */\n      tag_783\n        /* \"#utility.yul\":24310:24314   */\n      dup2\n        /* \"#utility.yul\":24184:24315   */\n      tag_487\n      jump\t// in\n    tag_783:\n        /* \"#utility.yul\":24176:24315   */\n      swap1\n      pop\n        /* \"#utility.yul\":23903:24322   */\n      swap2\n      swap1\n      pop\n      jump\t// out\n        /* \"#utility.yul\":24328:24738   */\n    tag_244:\n        /* \"#utility.yul\":24368:24375   */\n      0x00\n        /* \"#utility.yul\":24391:24411   */\n      tag_785\n        /* \"#utility.yul\":24409:24410   */\n      dup3\n        /* \"#utility.yul\":24391:24411   */\n      tag_432\n      jump\t// in\n    tag_785:\n        /* \"#utility.yul\":24386:24411   */\n      swap2\n      pop\n        /* \"#utility.yul\":24425:24445   */\n      tag_786\n        /* \"#utility.yul\":24443:24444   */\n      dup4\n        /* \"#utility.yul\":24425:24445   */\n      tag_432\n      jump\t// in\n    tag_786:\n        /* \"#utility.yul\":24420:24445   */\n      swap3\n      pop\n        /* \"#utility.yul\":24480:24481   */\n      dup3\n        /* \"#utility.yul\":24477:24478   */\n      dup3\n        /* \"#utility.yul\":24473:24482   */\n      mul\n        /* \"#utility.yul\":24502:24532   */\n      tag_787\n        /* \"#utility.yul\":24520:24531   */\n      dup2\n        /* \"#utility.yul\":24502:24532   */\n      tag_432\n      jump\t// in\n    tag_787:\n        /* \"#utility.yul\":24491:24532   */\n      swap2\n      pop\n        /* \"#utility.yul\":24681:24682   */\n      dup3\n        /* \"#utility.yul\":24672:24679   */\n      dup3\n        /* \"#utility.yul\":24668:24683   */\n      div\n        /* \"#utility.yul\":24665:24666   */\n      dup5\n        /* \"#utility.yul\":24662:24684   */\n      eq\n        /* \"#utility.yul\":24642:24643   */\n      dup4\n        /* \"#utility.yul\":24635:24644   */\n      iszero\n        /* \"#utility.yul\":24615:24698   */\n      or\n        /* \"#utility.yul\":24592:24731   */\n      tag_788\n      jumpi\n        /* \"#utility.yul\":24711:24729   */\n      tag_789\n      tag_483\n      jump\t// in\n    tag_789:\n        /* \"#utility.yul\":24592:24731   */\n    tag_788:\n        /* \"#utility.yul\":24376:24738   */\n      pop\n        /* \"#utility.yul\":24328:24738   */\n      swap3\n      swap2\n      pop\n      pop\n      jump\t// out\n        /* \"#utility.yul\":24744:24924   */\n    tag_333:\n        /* \"#utility.yul\":24792:24869   */\n      0x4e487b7100000000000000000000000000000000000000000000000000000000\n        /* \"#utility.yul\":24789:24790   */\n      0x00\n        /* \"#utility.yul\":24782:24870   */\n      mstore\n        /* \"#utility.yul\":24889:24893   */\n      0x12\n        /* \"#utility.yul\":24886:24887   */\n      0x04\n        /* \"#utility.yul\":24879:24894   */\n      mstore\n        /* \"#utility.yul\":24913:24917   */\n      0x24\n        /* \"#utility.yul\":24910:24911   */\n      0x00\n        /* \"#utility.yul\":24903:24918   */\n      revert\n        /* \"#utility.yul\":24930:25115   */\n    tag_246:\n        /* \"#utility.yul\":24970:24971   */\n      0x00\n        /* \"#utility.yul\":24987:25007   */\n      tag_792\n        /* \"#utility.yul\":25005:25006   */\n      dup3\n        /* \"#utility.yul\":24987:25007   */\n      tag_432\n      jump\t// in\n    tag_792:\n        /* \"#utility.yul\":24982:25007   */\n      swap2\n      pop\n        /* \"#utility.yul\":25021:25041   */\n      tag_793\n        /* \"#utility.yul\":25039:25040   */\n      dup4\n        /* \"#utility.yul\":25021:25041   */\n      tag_432\n      jump\t// in\n    tag_793:\n        /* \"#utility.yul\":25016:25041   */\n      swap3\n      pop\n        /* \"#utility.yul\":25060:25061   */\n      dup3\n        /* \"#utility.yul\":25050:25085   */\n      tag_794\n      jumpi\n        /* \"#utility.yul\":25065:25083   */\n      tag_795\n      tag_333\n      jump\t// in\n    tag_795:\n        /* \"#utility.yul\":25050:25085   */\n    tag_794:\n        /* \"#utility.yul\":25107:25108   */\n      dup3\n        /* \"#utility.yul\":25104:25105   */\n      dup3\n        /* \"#utility.yul\":25100:25109   */\n      div\n        /* \"#utility.yul\":25095:25109   */\n      swap1\n      pop\n        /* \"#utility.yul\":24930:25115   */\n      swap3\n      swap2\n      pop\n      pop\n      jump\t// out\n        /* \"#utility.yul\":25121:25301   */\n    tag_287:\n        /* \"#utility.yul\":25169:25246   */\n      0x4e487b7100000000000000000000000000000000000000000000000000000000\n        /* \"#utility.yul\":25166:25167   */\n      0x00\n        /* \"#utility.yul\":25159:25247   */\n      mstore\n        /* \"#utility.yul\":25266:25270   */\n      0x32\n        /* \"#utility.yul\":25263:25264   */\n      0x04\n        /* \"#utility.yul\":25256:25271   */\n      mstore\n        /* \"#utility.yul\":25290:25294   */\n      0x24\n        /* \"#utility.yul\":25287:25288   */\n      0x00\n        /* \"#utility.yul\":25280:25295   */\n      revert\n        /* \"#utility.yul\":25307:25455   */\n    tag_488:\n        /* \"#utility.yul\":25408:25414   */\n      0x00\n        /* \"#utility.yul\":25442:25447   */\n      dup2\n        /* \"#utility.yul\":25436:25448   */\n      mload\n        /* \"#utility.yul\":25426:25448   */\n      swap1\n      pop\n        /* \"#utility.yul\":25307:25455   */\n      swap2\n      swap1\n      pop\n      jump\t// out\n        /* \"#utility.yul\":25461:25679   */\n    tag_489:\n        /* \"#utility.yul\":25594:25605   */\n      0x00\n        /* \"#utility.yul\":25628:25634   */\n      dup3\n        /* \"#utility.yul\":25623:25626   */\n      dup3\n        /* \"#utility.yul\":25616:25635   */\n      mstore\n        /* \"#utility.yul\":25668:25672   */\n      0x20\n        /* \"#utility.yul\":25663:25666   */\n      dup3\n        /* \"#utility.yul\":25659:25673   */\n      add\n        /* \"#utility.yul\":25644:25673   */\n      swap1\n      pop\n        /* \"#utility.yul\":25461:25679   */\n      swap3\n      swap2\n      pop\n      pop\n      jump\t// out\n        /* \"#utility.yul\":25685:25851   */\n    tag_490:\n        /* \"#utility.yul\":25786:25790   */\n      0x00\n        /* \"#utility.yul\":25809:25812   */\n      dup2\n        /* \"#utility.yul\":25801:25812   */\n      swap1\n      pop\n        /* \"#utility.yul\":25839:25843   */\n      0x20\n        /* \"#utility.yul\":25834:25837   */\n      dup3\n        /* \"#utility.yul\":25830:25844   */\n      add\n        /* \"#utility.yul\":25822:25844   */\n      swap1\n      pop\n        /* \"#utility.yul\":25685:25851   */\n      swap2\n      swap1\n      pop\n      jump\t// out\n        /* \"#utility.yul\":25857:25965   */\n    tag_491:\n        /* \"#utility.yul\":25934:25958   */\n      tag_801\n        /* \"#utility.yul\":25952:25957   */\n      dup2\n        /* \"#utility.yul\":25934:25958   */\n      tag_427\n      jump\t// in\n    tag_801:\n        /* \"#utility.yul\":25929:25932   */\n      dup3\n        /* \"#utility.yul\":25922:25959   */\n      mstore\n        /* \"#utility.yul\":25857:25965   */\n      pop\n      pop\n      jump\t// out\n        /* \"#utility.yul\":25971:26076   */\n    tag_492:\n        /* \"#utility.yul\":26046:26069   */\n      tag_803\n        /* \"#utility.yul\":26063:26068   */\n      dup2\n        /* \"#utility.yul\":26046:26069   */\n      tag_435\n      jump\t// in\n    tag_803:\n        /* \"#utility.yul\":26041:26044   */\n      dup3\n        /* \"#utility.yul\":26034:26070   */\n      mstore\n        /* \"#utility.yul\":25971:26076   */\n      pop\n      pop\n      jump\t// out\n        /* \"#utility.yul\":26140:26667   */\n    tag_493:\n        /* \"#utility.yul\":26295:26299   */\n      0x40\n        /* \"#utility.yul\":26290:26293   */\n      dup3\n        /* \"#utility.yul\":26286:26300   */\n      add\n        /* \"#utility.yul\":26390:26394   */\n      0x00\n        /* \"#utility.yul\":26383:26388   */\n      dup3\n        /* \"#utility.yul\":26379:26395   */\n      add\n        /* \"#utility.yul\":26373:26396   */\n      mload\n        /* \"#utility.yul\":26409:26472   */\n      tag_805\n        /* \"#utility.yul\":26466:26470   */\n      0x00\n        /* \"#utility.yul\":26461:26464   */\n      dup6\n        /* \"#utility.yul\":26457:26471   */\n      add\n        /* \"#utility.yul\":26443:26455   */\n      dup3\n        /* \"#utility.yul\":26409:26472   */\n      tag_491\n      jump\t// in\n    tag_805:\n        /* \"#utility.yul\":26310:26482   */\n      pop\n        /* \"#utility.yul\":26570:26574   */\n      0x20\n        /* \"#utility.yul\":26563:26568   */\n      dup3\n        /* \"#utility.yul\":26559:26575   */\n      add\n        /* \"#utility.yul\":26553:26576   */\n      mload\n        /* \"#utility.yul\":26589:26650   */\n      tag_806\n        /* \"#utility.yul\":26644:26648   */\n      0x20\n        /* \"#utility.yul\":26639:26642   */\n      dup6\n        /* \"#utility.yul\":26635:26649   */\n      add\n        /* \"#utility.yul\":26621:26633   */\n      dup3\n        /* \"#utility.yul\":26589:26650   */\n      tag_492\n      jump\t// in\n    tag_806:\n        /* \"#utility.yul\":26492:26660   */\n      pop\n        /* \"#utility.yul\":26264:26667   */\n      pop\n        /* \"#utility.yul\":26140:26667   */\n      pop\n      pop\n      jump\t// out\n        /* \"#utility.yul\":26673:26988   */\n    tag_494:\n        /* \"#utility.yul\":26810:26820   */\n      0x00\n        /* \"#utility.yul\":26831:26945   */\n      tag_808\n        /* \"#utility.yul\":26941:26944   */\n      dup4\n        /* \"#utility.yul\":26933:26939   */\n      dup4\n        /* \"#utility.yul\":26831:26945   */\n      tag_493\n      jump\t// in\n    tag_808:\n        /* \"#utility.yul\":26977:26981   */\n      0x40\n        /* \"#utility.yul\":26972:26975   */\n      dup4\n        /* \"#utility.yul\":26968:26982   */\n      add\n        /* \"#utility.yul\":26954:26982   */\n      swap1\n      pop\n        /* \"#utility.yul\":26673:26988   */\n      swap3\n      swap2\n      pop\n      pop\n      jump\t// out\n        /* \"#utility.yul\":26994:27141   */\n    tag_495:\n        /* \"#utility.yul\":27098:27102   */\n      0x00\n        /* \"#utility.yul\":27130:27134   */\n      0x20\n        /* \"#utility.yul\":27125:27128   */\n      dup3\n        /* \"#utility.yul\":27121:27135   */\n      add\n        /* \"#utility.yul\":27113:27135   */\n      swap1\n      pop\n        /* \"#utility.yul\":26994:27141   */\n      swap2\n      swap1\n      pop\n      jump\t// out\n        /* \"#utility.yul\":27209:28213   */\n    tag_496:\n        /* \"#utility.yul\":27396:27399   */\n      0x00\n        /* \"#utility.yul\":27425:27513   */\n      tag_811\n        /* \"#utility.yul\":27507:27512   */\n      dup3\n        /* \"#utility.yul\":27425:27513   */\n      tag_488\n      jump\t// in\n    tag_811:\n        /* \"#utility.yul\":27529:27649   */\n      tag_812\n        /* \"#utility.yul\":27642:27648   */\n      dup2\n        /* \"#utility.yul\":27637:27640   */\n      dup6\n        /* \"#utility.yul\":27529:27649   */\n      tag_489\n      jump\t// in\n    tag_812:\n        /* \"#utility.yul\":27522:27649   */\n      swap4\n      pop\n        /* \"#utility.yul\":27673:27763   */\n      tag_813\n        /* \"#utility.yul\":27757:27762   */\n      dup4\n        /* \"#utility.yul\":27673:27763   */\n      tag_490\n      jump\t// in\n    tag_813:\n        /* \"#utility.yul\":27786:27793   */\n      dup1\n        /* \"#utility.yul\":27817:27818   */\n      0x00\n        /* \"#utility.yul\":27802:28188   */\n    tag_814:\n        /* \"#utility.yul\":27827:27833   */\n      dup4\n        /* \"#utility.yul\":27824:27825   */\n      dup2\n        /* \"#utility.yul\":27821:27834   */\n      lt\n        /* \"#utility.yul\":27802:28188   */\n      iszero\n      tag_816\n      jumpi\n        /* \"#utility.yul\":27903:27909   */\n      dup2\n        /* \"#utility.yul\":27897:27910   */\n      mload\n        /* \"#utility.yul\":27930:28061   */\n      tag_817\n        /* \"#utility.yul\":28057:28060   */\n      dup9\n        /* \"#utility.yul\":28042:28055   */\n      dup3\n        /* \"#utility.yul\":27930:28061   */\n      tag_494\n      jump\t// in\n    tag_817:\n        /* \"#utility.yul\":27923:28061   */\n      swap8\n      pop\n        /* \"#utility.yul\":28084:28178   */\n      tag_818\n        /* \"#utility.yul\":28171:28177   */\n      dup4\n        /* \"#utility.yul\":28084:28178   */\n      tag_495\n      jump\t// in\n    tag_818:\n        /* \"#utility.yul\":28074:28178   */\n      swap3\n      pop\n        /* \"#utility.yul\":27862:28188   */\n      pop\n        /* \"#utility.yul\":27849:27850   */\n      0x01\n        /* \"#utility.yul\":27846:27847   */\n      dup2\n        /* \"#utility.yul\":27842:27851   */\n      add\n        /* \"#utility.yul\":27837:27851   */\n      swap1\n      pop\n        /* \"#utility.yul\":27802:28188   */\n      jump(tag_814)\n    tag_816:\n        /* \"#utility.yul\":27806:27820   */\n      pop\n        /* \"#utility.yul\":28204:28207   */\n      dup6\n        /* \"#utility.yul\":28197:28207   */\n      swap4\n      pop\n        /* \"#utility.yul\":27401:28213   */\n      pop\n      pop\n      pop\n        /* \"#utility.yul\":27209:28213   */\n      swap3\n      swap2\n      pop\n      pop\n      jump\t// out\n        /* \"#utility.yul\":28219:28944   */\n    tag_295:\n        /* \"#utility.yul\":28484:28488   */\n      0x00\n        /* \"#utility.yul\":28522:28524   */\n      0x60\n        /* \"#utility.yul\":28511:28520   */\n      dup3\n        /* \"#utility.yul\":28507:28525   */\n      add\n        /* \"#utility.yul\":28499:28525   */\n      swap1\n      pop\n        /* \"#utility.yul\":28571:28580   */\n      dup2\n        /* \"#utility.yul\":28565:28569   */\n      dup2\n        /* \"#utility.yul\":28561:28581   */\n      sub\n        /* \"#utility.yul\":28557:28558   */\n      0x00\n        /* \"#utility.yul\":28546:28555   */\n      dup4\n        /* \"#utility.yul\":28542:28559   */\n      add\n        /* \"#utility.yul\":28535:28582   */\n      mstore\n        /* \"#utility.yul\":28599:28775   */\n      tag_820\n        /* \"#utility.yul\":28770:28774   */\n      dup2\n        /* \"#utility.yul\":28761:28767   */\n      dup7\n        /* \"#utility.yul\":28599:28775   */\n      tag_496\n      jump\t// in\n    tag_820:\n        /* \"#utility.yul\":28591:28775   */\n      swap1\n      pop\n        /* \"#utility.yul\":28785:28857   */\n      tag_821\n        /* \"#utility.yul\":28853:28855   */\n      0x20\n        /* \"#utility.yul\":28842:28851   */\n      dup4\n        /* \"#utility.yul\":28838:28856   */\n      add\n        /* \"#utility.yul\":28829:28835   */\n      dup6\n        /* \"#utility.yul\":28785:28857   */\n      tag_446\n      jump\t// in\n    tag_821:\n        /* \"#utility.yul\":28867:28937   */\n      tag_822\n        /* \"#utility.yul\":28933:28935   */\n      0x40\n        /* \"#utility.yul\":28922:28931   */\n      dup4\n        /* \"#utility.yul\":28918:28936   */\n      add\n        /* \"#utility.yul\":28909:28915   */\n      dup5\n        /* \"#utility.yul\":28867:28937   */\n      tag_422\n      jump\t// in\n    tag_822:\n        /* \"#utility.yul\":28219:28944   */\n      swap5\n      swap4\n      pop\n      pop\n      pop\n      pop\n      jump\t// out\n        /* \"#utility.yul\":28950:29132   */\n    tag_497:\n        /* \"#utility.yul\":29090:29124   */\n      0x4469726563746f72792063616e6e6f74206265207a65726f2061646472657373\n        /* \"#utility.yul\":29086:29087   */\n      0x00\n        /* \"#utility.yul\":29078:29084   */\n      dup3\n        /* \"#utility.yul\":29074:29088   */\n      add\n        /* \"#utility.yul\":29067:29125   */\n      mstore\n        /* \"#utility.yul\":28950:29132   */\n      pop\n      jump\t// out\n        /* \"#utility.yul\":29138:29504   */\n    tag_498:\n        /* \"#utility.yul\":29280:29283   */\n      0x00\n        /* \"#utility.yul\":29301:29368   */\n      tag_825\n        /* \"#utility.yul\":29365:29367   */\n      0x20\n        /* \"#utility.yul\":29360:29363   */\n      dup4\n        /* \"#utility.yul\":29301:29368   */\n      tag_462\n      jump\t// in\n    tag_825:\n        /* \"#utility.yul\":29294:29368   */\n      swap2\n      pop\n        /* \"#utility.yul\":29377:29470   */\n      tag_826\n        /* \"#utility.yul\":29466:29469   */\n      dup3\n        /* \"#utility.yul\":29377:29470   */\n      tag_497\n      jump\t// in\n    tag_826:\n        /* \"#utility.yul\":29495:29497   */\n      0x20\n        /* \"#utility.yul\":29490:29493   */\n      dup3\n        /* \"#utility.yul\":29486:29498   */\n      add\n        /* \"#utility.yul\":29479:29498   */\n      swap1\n      pop\n        /* \"#utility.yul\":29138:29504   */\n      swap2\n      swap1\n      pop\n      jump\t// out\n        /* \"#utility.yul\":29510:29929   */\n    tag_305:\n        /* \"#utility.yul\":29676:29680   */\n      0x00\n        /* \"#utility.yul\":29714:29716   */\n      0x20\n        /* \"#utility.yul\":29703:29712   */\n      dup3\n        /* \"#utility.yul\":29699:29717   */\n      add\n        /* \"#utility.yul\":29691:29717   */\n      swap1\n      pop\n        /* \"#utility.yul\":29763:29772   */\n      dup2\n        /* \"#utility.yul\":29757:29761   */\n      dup2\n        /* \"#utility.yul\":29753:29773   */\n      sub\n        /* \"#utility.yul\":29749:29750   */\n      0x00\n        /* \"#utility.yul\":29738:29747   */\n      dup4\n        /* \"#utility.yul\":29734:29751   */\n      add\n        /* \"#utility.yul\":29727:29774   */\n      mstore\n        /* \"#utility.yul\":29791:29922   */\n      tag_828\n        /* \"#utility.yul\":29917:29921   */\n      dup2\n        /* \"#utility.yul\":29791:29922   */\n      tag_498\n      jump\t// in\n    tag_828:\n        /* \"#utility.yul\":29783:29922   */\n      swap1\n      pop\n        /* \"#utility.yul\":29510:29929   */\n      swap2\n      swap1\n      pop\n      jump\t// out\n        /* \"#utility.yul\":29935:30113   */\n    tag_499:\n        /* \"#utility.yul\":30075:30105   */\n      0x4469726563746f7279206d757374206265206120636f6e747261637400000000\n        /* \"#utility.yul\":30071:30072   */\n      0x00\n        /* \"#utility.yul\":30063:30069   */\n      dup3\n        /* \"#utility.yul\":30059:30073   */\n      add\n        /* \"#utility.yul\":30052:30106   */\n      mstore\n        /* \"#utility.yul\":29935:30113   */\n      pop\n      jump\t// out\n        /* \"#utility.yul\":30119:30485   */\n    tag_500:\n        /* \"#utility.yul\":30261:30264   */\n      0x00\n        /* \"#utility.yul\":30282:30349   */\n      tag_831\n        /* \"#utility.yul\":30346:30348   */\n      0x1c\n        /* \"#utility.yul\":30341:30344   */\n      dup4\n        /* \"#utility.yul\":30282:30349   */\n      tag_462\n      jump\t// in\n    tag_831:\n        /* \"#utility.yul\":30275:30349   */\n      swap2\n      pop\n        /* \"#utility.yul\":30358:30451   */\n      tag_832\n        /* \"#utility.yul\":30447:30450   */\n      dup3\n        /* \"#utility.yul\":30358:30451   */\n      tag_499\n      jump\t// in\n    tag_832:\n        /* \"#utility.yul\":30476:30478   */\n      0x20\n        /* \"#utility.yul\":30471:30474   */\n      dup3\n        /* \"#utility.yul\":30467:30479   */\n      add\n        /* \"#utility.yul\":30460:30479   */\n      swap1\n      pop\n        /* \"#utility.yul\":30119:30485   */\n      swap2\n      swap1\n      pop\n      jump\t// out\n        /* \"#utility.yul\":30491:30910   */\n    tag_308:\n        /* \"#utility.yul\":30657:30661   */\n      0x00\n        /* \"#utility.yul\":30695:30697   */\n      0x20\n        /* \"#utility.yul\":30684:30693   */\n      dup3\n        /* \"#utility.yul\":30680:30698   */\n      add\n        /* \"#utility.yul\":30672:30698   */\n      swap1\n      pop\n        /* \"#utility.yul\":30744:30753   */\n      dup2\n        /* \"#utility.yul\":30738:30742   */\n      dup2\n        /* \"#utility.yul\":30734:30754   */\n      sub\n        /* \"#utility.yul\":30730:30731   */\n      0x00\n        /* \"#utility.yul\":30719:30728   */\n      dup4\n        /* \"#utility.yul\":30715:30732   */\n      add\n        /* \"#utility.yul\":30708:30755   */\n      mstore\n        /* \"#utility.yul\":30772:30903   */\n      tag_834\n        /* \"#utility.yul\":30898:30902   */\n      dup2\n        /* \"#utility.yul\":30772:30903   */\n      tag_500\n      jump\t// in\n    tag_834:\n        /* \"#utility.yul\":30764:30903   */\n      swap1\n      pop\n        /* \"#utility.yul\":30491:30910   */\n      swap2\n      swap1\n      pop\n      jump\t// out\n        /* \"#utility.yul\":30916:31147   */\n    tag_501:\n        /* \"#utility.yul\":31056:31090   */\n      0x4469726563746f7279206164647265737320646f6573206e6f7420696d706c65\n        /* \"#utility.yul\":31052:31053   */\n      0x00\n        /* \"#utility.yul\":31044:31050   */\n      dup3\n        /* \"#utility.yul\":31040:31054   */\n      add\n        /* \"#utility.yul\":31033:31091   */\n      mstore\n        /* \"#utility.yul\":31125:31139   */\n      0x6d656e74206f776e657228290000000000000000000000000000000000000000\n        /* \"#utility.yul\":31120:31122   */\n      0x20\n        /* \"#utility.yul\":31112:31118   */\n      dup3\n        /* \"#utility.yul\":31108:31123   */\n      add\n        /* \"#utility.yul\":31101:31140   */\n      mstore\n        /* \"#utility.yul\":30916:31147   */\n      pop\n      jump\t// out\n        /* \"#utility.yul\":31153:31519   */\n    tag_502:\n        /* \"#utility.yul\":31295:31298   */\n      0x00\n        /* \"#utility.yul\":31316:31383   */\n      tag_837\n        /* \"#utility.yul\":31380:31382   */\n      0x2c\n        /* \"#utility.yul\":31375:31378   */\n      dup4\n        /* \"#utility.yul\":31316:31383   */\n      tag_462\n      jump\t// in\n    tag_837:\n        /* \"#utility.yul\":31309:31383   */\n      swap2\n      pop\n        /* \"#utility.yul\":31392:31485   */\n      tag_838\n        /* \"#utility.yul\":31481:31484   */\n      dup3\n        /* \"#utility.yul\":31392:31485   */\n      tag_501\n      jump\t// in\n    tag_838:\n        /* \"#utility.yul\":31510:31512   */\n      0x40\n        /* \"#utility.yul\":31505:31508   */\n      dup3\n        /* \"#utility.yul\":31501:31513   */\n      add\n        /* \"#utility.yul\":31494:31513   */\n      swap1\n      pop\n        /* \"#utility.yul\":31153:31519   */\n      swap2\n      swap1\n      pop\n      jump\t// out\n        /* \"#utility.yul\":31525:31944   */\n    tag_316:\n        /* \"#utility.yul\":31691:31695   */\n      0x00\n        /* \"#utility.yul\":31729:31731   */\n      0x20\n        /* \"#utility.yul\":31718:31727   */\n      dup3\n        /* \"#utility.yul\":31714:31732   */\n      add\n        /* \"#utility.yul\":31706:31732   */\n      swap1\n      pop\n        /* \"#utility.yul\":31778:31787   */\n      dup2\n        /* \"#utility.yul\":31772:31776   */\n      dup2\n        /* \"#utility.yul\":31768:31788   */\n      sub\n        /* \"#utility.yul\":31764:31765   */\n      0x00\n        /* \"#utility.yul\":31753:31762   */\n      dup4\n        /* \"#utility.yul\":31749:31766   */\n      add\n        /* \"#utility.yul\":31742:31789   */\n      mstore\n        /* \"#utility.yul\":31806:31937   */\n      tag_840\n        /* \"#utility.yul\":31932:31936   */\n      dup2\n        /* \"#utility.yul\":31806:31937   */\n      tag_502\n      jump\t// in\n    tag_840:\n        /* \"#utility.yul\":31798:31937   */\n      swap1\n      pop\n        /* \"#utility.yul\":31525:31944   */\n      swap2\n      swap1\n      pop\n      jump\t// out\n        /* \"#utility.yul\":31950:32392   */\n    tag_354:\n        /* \"#utility.yul\":32099:32103   */\n      0x00\n        /* \"#utility.yul\":32137:32139   */\n      0x60\n        /* \"#utility.yul\":32126:32135   */\n      dup3\n        /* \"#utility.yul\":32122:32140   */\n      add\n        /* \"#utility.yul\":32114:32140   */\n      swap1\n      pop\n        /* \"#utility.yul\":32150:32221   */\n      tag_842\n        /* \"#utility.yul\":32218:32219   */\n      0x00\n        /* \"#utility.yul\":32207:32216   */\n      dup4\n        /* \"#utility.yul\":32203:32220   */\n      add\n        /* \"#utility.yul\":32194:32200   */\n      dup7\n        /* \"#utility.yul\":32150:32221   */\n      tag_446\n      jump\t// in\n    tag_842:\n        /* \"#utility.yul\":32231:32303   */\n      tag_843\n        /* \"#utility.yul\":32299:32301   */\n      0x20\n        /* \"#utility.yul\":32288:32297   */\n      dup4\n        /* \"#utility.yul\":32284:32302   */\n      add\n        /* \"#utility.yul\":32275:32281   */\n      dup6\n        /* \"#utility.yul\":32231:32303   */\n      tag_467\n      jump\t// in\n    tag_843:\n        /* \"#utility.yul\":32313:32385   */\n      tag_844\n        /* \"#utility.yul\":32381:32383   */\n      0x40\n        /* \"#utility.yul\":32370:32379   */\n      dup4\n        /* \"#utility.yul\":32366:32384   */\n      add\n        /* \"#utility.yul\":32357:32363   */\n      dup5\n        /* \"#utility.yul\":32313:32385   */\n      tag_446\n      jump\t// in\n    tag_844:\n        /* \"#utility.yul\":31950:32392   */\n      swap5\n      swap4\n      pop\n      pop\n      pop\n      pop\n      jump\t// out\n        /* \"#utility.yul\":32398:32545   */\n    tag_503:\n        /* \"#utility.yul\":32498:32504   */\n      0x00\n        /* \"#utility.yul\":32532:32537   */\n      dup2\n        /* \"#utility.yul\":32526:32538   */\n      mload\n        /* \"#utility.yul\":32516:32538   */\n      swap1\n      pop\n        /* \"#utility.yul\":32398:32545   */\n      swap2\n      swap1\n      pop\n      jump\t// out\n        /* \"#utility.yul\":32551:32768   */\n    tag_504:\n        /* \"#utility.yul\":32683:32694   */\n      0x00\n        /* \"#utility.yul\":32717:32723   */\n      dup3\n        /* \"#utility.yul\":32712:32715   */\n      dup3\n        /* \"#utility.yul\":32705:32724   */\n      mstore\n        /* \"#utility.yul\":32757:32761   */\n      0x20\n        /* \"#utility.yul\":32752:32755   */\n      dup3\n        /* \"#utility.yul\":32748:32762   */\n      add\n        /* \"#utility.yul\":32733:32762   */\n      swap1\n      pop\n        /* \"#utility.yul\":32551:32768   */\n      swap3\n      swap2\n      pop\n      pop\n      jump\t// out\n        /* \"#utility.yul\":32774:32939   */\n    tag_505:\n        /* \"#utility.yul\":32874:32878   */\n      0x00\n        /* \"#utility.yul\":32897:32900   */\n      dup2\n        /* \"#utility.yul\":32889:32900   */\n      swap1\n      pop\n        /* \"#utility.yul\":32927:32931   */\n      0x20\n        /* \"#utility.yul\":32922:32925   */\n      dup3\n        /* \"#utility.yul\":32918:32932   */\n      add\n        /* \"#utility.yul\":32910:32932   */\n      swap1\n      pop\n        /* \"#utility.yul\":32774:32939   */\n      swap2\n      swap1\n      pop\n      jump\t// out\n        /* \"#utility.yul\":32945:33053   */\n    tag_506:\n        /* \"#utility.yul\":33022:33046   */\n      tag_849\n        /* \"#utility.yul\":33040:33045   */\n      dup2\n        /* \"#utility.yul\":33022:33046   */\n      tag_432\n      jump\t// in\n    tag_849:\n        /* \"#utility.yul\":33017:33020   */\n      dup3\n        /* \"#utility.yul\":33010:33047   */\n      mstore\n        /* \"#utility.yul\":32945:33053   */\n      pop\n      pop\n      jump\t// out\n        /* \"#utility.yul\":33115:33638   */\n    tag_507:\n        /* \"#utility.yul\":33268:33272   */\n      0x40\n        /* \"#utility.yul\":33263:33266   */\n      dup3\n        /* \"#utility.yul\":33259:33273   */\n      add\n        /* \"#utility.yul\":33363:33367   */\n      0x00\n        /* \"#utility.yul\":33356:33361   */\n      dup3\n        /* \"#utility.yul\":33352:33368   */\n      add\n        /* \"#utility.yul\":33346:33369   */\n      mload\n        /* \"#utility.yul\":33382:33445   */\n      tag_851\n        /* \"#utility.yul\":33439:33443   */\n      0x00\n        /* \"#utility.yul\":33434:33437   */\n      dup6\n        /* \"#utility.yul\":33430:33444   */\n      add\n        /* \"#utility.yul\":33416:33428   */\n      dup3\n        /* \"#utility.yul\":33382:33445   */\n      tag_491\n      jump\t// in\n    tag_851:\n        /* \"#utility.yul\":33283:33455   */\n      pop\n        /* \"#utility.yul\":33539:33543   */\n      0x20\n        /* \"#utility.yul\":33532:33537   */\n      dup3\n        /* \"#utility.yul\":33528:33544   */\n      add\n        /* \"#utility.yul\":33522:33545   */\n      mload\n        /* \"#utility.yul\":33558:33621   */\n      tag_852\n        /* \"#utility.yul\":33615:33619   */\n      0x20\n        /* \"#utility.yul\":33610:33613   */\n      dup6\n        /* \"#utility.yul\":33606:33620   */\n      add\n        /* \"#utility.yul\":33592:33604   */\n      dup3\n        /* \"#utility.yul\":33558:33621   */\n      tag_506\n      jump\t// in\n    tag_852:\n        /* \"#utility.yul\":33465:33631   */\n      pop\n        /* \"#utility.yul\":33237:33638   */\n      pop\n        /* \"#utility.yul\":33115:33638   */\n      pop\n      pop\n      jump\t// out\n        /* \"#utility.yul\":33644:33955   */\n    tag_508:\n        /* \"#utility.yul\":33779:33789   */\n      0x00\n        /* \"#utility.yul\":33800:33912   */\n      tag_854\n        /* \"#utility.yul\":33908:33911   */\n      dup4\n        /* \"#utility.yul\":33900:33906   */\n      dup4\n        /* \"#utility.yul\":33800:33912   */\n      tag_507\n      jump\t// in\n    tag_854:\n        /* \"#utility.yul\":33944:33948   */\n      0x40\n        /* \"#utility.yul\":33939:33942   */\n      dup4\n        /* \"#utility.yul\":33935:33949   */\n      add\n        /* \"#utility.yul\":33921:33949   */\n      swap1\n      pop\n        /* \"#utility.yul\":33644:33955   */\n      swap3\n      swap2\n      pop\n      pop\n      jump\t// out\n        /* \"#utility.yul\":33961:34107   */\n    tag_509:\n        /* \"#utility.yul\":34064:34068   */\n      0x00\n        /* \"#utility.yul\":34096:34100   */\n      0x20\n        /* \"#utility.yul\":34091:34094   */\n      dup3\n        /* \"#utility.yul\":34087:34101   */\n      add\n        /* \"#utility.yul\":34079:34101   */\n      swap1\n      pop\n        /* \"#utility.yul\":33961:34107   */\n      swap2\n      swap1\n      pop\n      jump\t// out\n        /* \"#utility.yul\":34173:35169   */\n    tag_510:\n        /* \"#utility.yul\":34358:34361   */\n      0x00\n        /* \"#utility.yul\":34387:34474   */\n      tag_857\n        /* \"#utility.yul\":34468:34473   */\n      dup3\n        /* \"#utility.yul\":34387:34474   */\n      tag_503\n      jump\t// in\n    tag_857:\n        /* \"#utility.yul\":34490:34609   */\n      tag_858\n        /* \"#utility.yul\":34602:34608   */\n      dup2\n        /* \"#utility.yul\":34597:34600   */\n      dup6\n        /* \"#utility.yul\":34490:34609   */\n      tag_504\n      jump\t// in\n    tag_858:\n        /* \"#utility.yul\":34483:34609   */\n      swap4\n      pop\n        /* \"#utility.yul\":34633:34722   */\n      tag_859\n        /* \"#utility.yul\":34716:34721   */\n      dup4\n        /* \"#utility.yul\":34633:34722   */\n      tag_505\n      jump\t// in\n    tag_859:\n        /* \"#utility.yul\":34745:34752   */\n      dup1\n        /* \"#utility.yul\":34776:34777   */\n      0x00\n        /* \"#utility.yul\":34761:35144   */\n    tag_860:\n        /* \"#utility.yul\":34786:34792   */\n      dup4\n        /* \"#utility.yul\":34783:34784   */\n      dup2\n        /* \"#utility.yul\":34780:34793   */\n      lt\n        /* \"#utility.yul\":34761:35144   */\n      iszero\n      tag_862\n      jumpi\n        /* \"#utility.yul\":34862:34868   */\n      dup2\n        /* \"#utility.yul\":34856:34869   */\n      mload\n        /* \"#utility.yul\":34889:35018   */\n      tag_863\n        /* \"#utility.yul\":35014:35017   */\n      dup9\n        /* \"#utility.yul\":34999:35012   */\n      dup3\n        /* \"#utility.yul\":34889:35018   */\n      tag_508\n      jump\t// in\n    tag_863:\n        /* \"#utility.yul\":34882:35018   */\n      swap8\n      pop\n        /* \"#utility.yul\":35041:35134   */\n      tag_864\n        /* \"#utility.yul\":35127:35133   */\n      dup4\n        /* \"#utility.yul\":35041:35134   */\n      tag_509\n      jump\t// in\n    tag_864:\n        /* \"#utility.yul\":35031:35134   */\n      swap3\n      pop\n        /* \"#utility.yul\":34821:35144   */\n      pop\n        /* \"#utility.yul\":34808:34809   */\n      0x01\n        /* \"#utility.yul\":34805:34806   */\n      dup2\n        /* \"#utility.yul\":34801:34810   */\n      add\n        /* \"#utility.yul\":34796:34810   */\n      swap1\n      pop\n        /* \"#utility.yul\":34761:35144   */\n      jump(tag_860)\n    tag_862:\n        /* \"#utility.yul\":34765:34779   */\n      pop\n        /* \"#utility.yul\":35160:35163   */\n      dup6\n        /* \"#utility.yul\":35153:35163   */\n      swap4\n      pop\n        /* \"#utility.yul\":34363:35169   */\n      pop\n      pop\n      pop\n        /* \"#utility.yul\":34173:35169   */\n      swap3\n      swap2\n      pop\n      pop\n      jump\t// out\n        /* \"#utility.yul\":35175:35317   */\n    tag_511:\n        /* \"#utility.yul\":35278:35310   */\n      tag_866\n        /* \"#utility.yul\":35304:35309   */\n      dup2\n        /* \"#utility.yul\":35278:35310   */\n      tag_458\n      jump\t// in\n    tag_866:\n        /* \"#utility.yul\":35273:35276   */\n      dup3\n        /* \"#utility.yul\":35266:35311   */\n      mstore\n        /* \"#utility.yul\":35175:35317   */\n      pop\n      pop\n      jump\t// out\n        /* \"#utility.yul\":35323:36175   */\n    tag_361:\n        /* \"#utility.yul\":35624:35628   */\n      0x00\n        /* \"#utility.yul\":35662:35665   */\n      0x80\n        /* \"#utility.yul\":35651:35660   */\n      dup3\n        /* \"#utility.yul\":35647:35666   */\n      add\n        /* \"#utility.yul\":35639:35666   */\n      swap1\n      pop\n        /* \"#utility.yul\":35712:35721   */\n      dup2\n        /* \"#utility.yul\":35706:35710   */\n      dup2\n        /* \"#utility.yul\":35702:35722   */\n      sub\n        /* \"#utility.yul\":35698:35699   */\n      0x00\n        /* \"#utility.yul\":35687:35696   */\n      dup4\n        /* \"#utility.yul\":35683:35700   */\n      add\n        /* \"#utility.yul\":35676:35723   */\n      mstore\n        /* \"#utility.yul\":35740:35914   */\n      tag_868\n        /* \"#utility.yul\":35909:35913   */\n      dup2\n        /* \"#utility.yul\":35900:35906   */\n      dup8\n        /* \"#utility.yul\":35740:35914   */\n      tag_510\n      jump\t// in\n    tag_868:\n        /* \"#utility.yul\":35732:35914   */\n      swap1\n      pop\n        /* \"#utility.yul\":35924:36012   */\n      tag_869\n        /* \"#utility.yul\":36008:36010   */\n      0x20\n        /* \"#utility.yul\":35997:36006   */\n      dup4\n        /* \"#utility.yul\":35993:36011   */\n      add\n        /* \"#utility.yul\":35984:35990   */\n      dup7\n        /* \"#utility.yul\":35924:36012   */\n      tag_511\n      jump\t// in\n    tag_869:\n        /* \"#utility.yul\":36022:36092   */\n      tag_870\n        /* \"#utility.yul\":36088:36090   */\n      0x40\n        /* \"#utility.yul\":36077:36086   */\n      dup4\n        /* \"#utility.yul\":36073:36091   */\n      add\n        /* \"#utility.yul\":36064:36070   */\n      dup6\n        /* \"#utility.yul\":36022:36092   */\n      tag_422\n      jump\t// in\n    tag_870:\n        /* \"#utility.yul\":36102:36168   */\n      tag_871\n        /* \"#utility.yul\":36164:36166   */\n      0x60\n        /* \"#utility.yul\":36153:36162   */\n      dup4\n        /* \"#utility.yul\":36149:36167   */\n      add\n        /* \"#utility.yul\":36140:36146   */\n      dup5\n        /* \"#utility.yul\":36102:36168   */\n      tag_431\n      jump\t// in\n    tag_871:\n        /* \"#utility.yul\":35323:36175   */\n      swap6\n      swap5\n      pop\n      pop\n      pop\n      pop\n      pop\n      jump\t// out\n        /* \"#utility.yul\":36181:36328   */\n    tag_512:\n        /* \"#utility.yul\":36282:36293   */\n      0x00\n        /* \"#utility.yul\":36319:36322   */\n      dup2\n        /* \"#utility.yul\":36304:36322   */\n      swap1\n      pop\n        /* \"#utility.yul\":36181:36328   */\n      swap3\n      swap2\n      pop\n      pop\n      jump\t// out\n        /* \"#utility.yul\":36334:36448   */\n    tag_513:\n      pop\n      jump\t// out\n        /* \"#utility.yul\":36454:36852   */\n    tag_514:\n        /* \"#utility.yul\":36613:36616   */\n      0x00\n        /* \"#utility.yul\":36634:36717   */\n      tag_875\n        /* \"#utility.yul\":36715:36716   */\n      0x00\n        /* \"#utility.yul\":36710:36713   */\n      dup4\n        /* \"#utility.yul\":36634:36717   */\n      tag_512\n      jump\t// in\n    tag_875:\n        /* \"#utility.yul\":36627:36717   */\n      swap2\n      pop\n        /* \"#utility.yul\":36726:36819   */\n      tag_876\n        /* \"#utility.yul\":36815:36818   */\n      dup3\n        /* \"#utility.yul\":36726:36819   */\n      tag_513\n      jump\t// in\n    tag_876:\n        /* \"#utility.yul\":36844:36845   */\n      0x00\n        /* \"#utility.yul\":36839:36842   */\n      dup3\n        /* \"#utility.yul\":36835:36846   */\n      add\n        /* \"#utility.yul\":36828:36846   */\n      swap1\n      pop\n        /* \"#utility.yul\":36454:36852   */\n      swap2\n      swap1\n      pop\n      jump\t// out\n        /* \"#utility.yul\":36858:37237   */\n    tag_369:\n        /* \"#utility.yul\":37042:37045   */\n      0x00\n        /* \"#utility.yul\":37064:37211   */\n      tag_878\n        /* \"#utility.yul\":37207:37210   */\n      dup3\n        /* \"#utility.yul\":37064:37211   */\n      tag_514\n      jump\t// in\n    tag_878:\n        /* \"#utility.yul\":37057:37211   */\n      swap2\n      pop\n        /* \"#utility.yul\":37228:37231   */\n      dup2\n        /* \"#utility.yul\":37221:37231   */\n      swap1\n      pop\n        /* \"#utility.yul\":36858:37237   */\n      swap2\n      swap1\n      pop\n      jump\t// out\n        /* \"#utility.yul\":37243:37341   */\n    tag_515:\n        /* \"#utility.yul\":37294:37300   */\n      0x00\n        /* \"#utility.yul\":37328:37333   */\n      dup2\n        /* \"#utility.yul\":37322:37334   */\n      mload\n        /* \"#utility.yul\":37312:37334   */\n      swap1\n      pop\n        /* \"#utility.yul\":37243:37341   */\n      swap2\n      swap1\n      pop\n      jump\t// out\n        /* \"#utility.yul\":37347:37733   */\n    tag_516:\n        /* \"#utility.yul\":37451:37454   */\n      0x00\n        /* \"#utility.yul\":37479:37517   */\n      tag_881\n        /* \"#utility.yul\":37511:37516   */\n      dup3\n        /* \"#utility.yul\":37479:37517   */\n      tag_515\n      jump\t// in\n    tag_881:\n        /* \"#utility.yul\":37533:37621   */\n      tag_882\n        /* \"#utility.yul\":37614:37620   */\n      dup2\n        /* \"#utility.yul\":37609:37612   */\n      dup6\n        /* \"#utility.yul\":37533:37621   */\n      tag_512\n      jump\t// in\n    tag_882:\n        /* \"#utility.yul\":37526:37621   */\n      swap4\n      pop\n        /* \"#utility.yul\":37630:37695   */\n      tag_883\n        /* \"#utility.yul\":37688:37694   */\n      dup2\n        /* \"#utility.yul\":37683:37686   */\n      dup6\n        /* \"#utility.yul\":37676:37680   */\n      0x20\n        /* \"#utility.yul\":37669:37674   */\n      dup7\n        /* \"#utility.yul\":37665:37681   */\n      add\n        /* \"#utility.yul\":37630:37695   */\n      tag_470\n      jump\t// in\n    tag_883:\n        /* \"#utility.yul\":37720:37726   */\n      dup1\n        /* \"#utility.yul\":37715:37718   */\n      dup5\n        /* \"#utility.yul\":37711:37727   */\n      add\n        /* \"#utility.yul\":37704:37727   */\n      swap2\n      pop\n        /* \"#utility.yul\":37455:37733   */\n      pop\n        /* \"#utility.yul\":37347:37733   */\n      swap3\n      swap2\n      pop\n      pop\n      jump\t// out\n        /* \"#utility.yul\":37739:38010   */\n    tag_406:\n        /* \"#utility.yul\":37869:37872   */\n      0x00\n        /* \"#utility.yul\":37891:37984   */\n      tag_885\n        /* \"#utility.yul\":37980:37983   */\n      dup3\n        /* \"#utility.yul\":37971:37977   */\n      dup5\n        /* \"#utility.yul\":37891:37984   */\n      tag_516\n      jump\t// in\n    tag_885:\n        /* \"#utility.yul\":37884:37984   */\n      swap2\n      pop\n        /* \"#utility.yul\":38001:38004   */\n      dup2\n        /* \"#utility.yul\":37994:38004   */\n      swap1\n      pop\n        /* \"#utility.yul\":37739:38010   */\n      swap3\n      swap2\n      pop\n      pop\n      jump\t// out\n        /* \"#utility.yul\":38016:38153   */\n    tag_517:\n        /* \"#utility.yul\":38070:38075   */\n      0x00\n        /* \"#utility.yul\":38101:38107   */\n      dup2\n        /* \"#utility.yul\":38095:38108   */\n      mload\n        /* \"#utility.yul\":38086:38108   */\n      swap1\n      pop\n        /* \"#utility.yul\":38117:38147   */\n      tag_887\n        /* \"#utility.yul\":38141:38146   */\n      dup2\n        /* \"#utility.yul\":38117:38147   */\n      tag_452\n      jump\t// in\n    tag_887:\n        /* \"#utility.yul\":38016:38153   */\n      swap3\n      swap2\n      pop\n      pop\n      jump\t// out\n        /* \"#utility.yul\":38159:38504   */\n    tag_413:\n        /* \"#utility.yul\":38226:38232   */\n      0x00\n        /* \"#utility.yul\":38275:38277   */\n      0x20\n        /* \"#utility.yul\":38263:38272   */\n      dup3\n        /* \"#utility.yul\":38254:38261   */\n      dup5\n        /* \"#utility.yul\":38250:38273   */\n      sub\n        /* \"#utility.yul\":38246:38278   */\n      slt\n        /* \"#utility.yul\":38243:38362   */\n      iszero\n      tag_889\n      jumpi\n        /* \"#utility.yul\":38281:38360   */\n      tag_890\n      tag_424\n      jump\t// in\n    tag_890:\n        /* \"#utility.yul\":38243:38362   */\n    tag_889:\n        /* \"#utility.yul\":38401:38402   */\n      0x00\n        /* \"#utility.yul\":38426:38487   */\n      tag_891\n        /* \"#utility.yul\":38479:38486   */\n      dup5\n        /* \"#utility.yul\":38470:38476   */\n      dup3\n        /* \"#utility.yul\":38459:38468   */\n      dup6\n        /* \"#utility.yul\":38455:38477   */\n      add\n        /* \"#utility.yul\":38426:38487   */\n      tag_517\n      jump\t// in\n    tag_891:\n        /* \"#utility.yul\":38416:38487   */\n      swap2\n      pop\n        /* \"#utility.yul\":38372:38497   */\n      pop\n        /* \"#utility.yul\":38159:38504   */\n      swap3\n      swap2\n      pop\n      pop\n      jump\t// out\n        /* \"#utility.yul\":38510:38675   */\n    tag_518:\n        /* \"#utility.yul\":38650:38667   */\n      0x5452414e534645525f4641494c45440000000000000000000000000000000000\n        /* \"#utility.yul\":38646:38647   */\n      0x00\n        /* \"#utility.yul\":38638:38644   */\n      dup3\n        /* \"#utility.yul\":38634:38648   */\n      add\n        /* \"#utility.yul\":38627:38668   */\n      mstore\n        /* \"#utility.yul\":38510:38675   */\n      pop\n      jump\t// out\n        /* \"#utility.yul\":38681:39047   */\n    tag_519:\n        /* \"#utility.yul\":38823:38826   */\n      0x00\n        /* \"#utility.yul\":38844:38911   */\n      tag_894\n        /* \"#utility.yul\":38908:38910   */\n      0x0f\n        /* \"#utility.yul\":38903:38906   */\n      dup4\n        /* \"#utility.yul\":38844:38911   */\n      tag_462\n      jump\t// in\n    tag_894:\n        /* \"#utility.yul\":38837:38911   */\n      swap2\n      pop\n        /* \"#utility.yul\":38920:39013   */\n      tag_895\n        /* \"#utility.yul\":39009:39012   */\n      dup3\n        /* \"#utility.yul\":38920:39013   */\n      tag_518\n      jump\t// in\n    tag_895:\n        /* \"#utility.yul\":39038:39040   */\n      0x20\n        /* \"#utility.yul\":39033:39036   */\n      dup3\n        /* \"#utility.yul\":39029:39041   */\n      add\n        /* \"#utility.yul\":39022:39041   */\n      swap1\n      pop\n        /* \"#utility.yul\":38681:39047   */\n      swap2\n      swap1\n      pop\n      jump\t// out\n        /* \"#utility.yul\":39053:39472   */\n    tag_416:\n        /* \"#utility.yul\":39219:39223   */\n      0x00\n        /* \"#utility.yul\":39257:39259   */\n      0x20\n        /* \"#utility.yul\":39246:39255   */\n      dup3\n        /* \"#utility.yul\":39242:39260   */\n      add\n        /* \"#utility.yul\":39234:39260   */\n      swap1\n      pop\n        /* \"#utility.yul\":39306:39315   */\n      dup2\n        /* \"#utility.yul\":39300:39304   */\n      dup2\n        /* \"#utility.yul\":39296:39316   */\n      sub\n        /* \"#utility.yul\":39292:39293   */\n      0x00\n        /* \"#utility.yul\":39281:39290   */\n      dup4\n        /* \"#utility.yul\":39277:39294   */\n      add\n        /* \"#utility.yul\":39270:39317   */\n      mstore\n        /* \"#utility.yul\":39334:39465   */\n      tag_897\n        /* \"#utility.yul\":39460:39464   */\n      dup2\n        /* \"#utility.yul\":39334:39465   */\n      tag_519\n      jump\t// in\n    tag_897:\n        /* \"#utility.yul\":39326:39465   */\n      swap1\n      pop\n        /* \"#utility.yul\":39053:39472   */\n      swap2\n      swap1\n      pop\n      jump\t// out\n\n    auxdata: 0xa264697066735822122008bf6b7c199beb389d8f49879c4b7ff0c9c0ba25aa27649e4f0f2ca7d90e8c8c64736f6c634300081e0033\n}\n",
				"bytecode": {
					"linkReferences": {},
					"object": "6080604052601960025f6101000a81548161ffff021916908361ffff16021790555060016002806101000a81548160ff02191690831515021790555061012c600260036101000a81548163ffffffff021916908363ffffffff160217905550348015610069575f5ffd5b506040516139bb3803806139bb833981810160405281019061008b91906102b8565b8061009b816100a960201b60201c565b506001808190555050610451565b5f73ffffffffffffffffffffffffffffffffffffffff168173ffffffffffffffffffffffffffffffffffffffff1603610117576040517f08c379a000000000000000000000000000000000000000000000000000000000815260040161010e9061033d565b60405180910390fd5b5f8173ffffffffffffffffffffffffffffffffffffffff163b11610170576040517f08c379a0000000000000000000000000000000000000000000000000000000008152600401610167906103a5565b60405180910390fd5b8073ffffffffffffffffffffffffffffffffffffffff16638da5cb5b6040518163ffffffff1660e01b8152600401602060405180830381865afa9250505080156101d857506040513d601f19601f820116820180604052508101906101d591906102b8565b60015b610217576040517f08c379a000000000000000000000000000000000000000000000000000000000815260040161020e90610433565b60405180910390fd5b815f5f6101000a81548173ffffffffffffffffffffffffffffffffffffffff021916908373ffffffffffffffffffffffffffffffffffffffff1602179055505050565b5f5ffd5b5f73ffffffffffffffffffffffffffffffffffffffff82169050919050565b5f6102878261025e565b9050919050565b6102978161027d565b81146102a1575f5ffd5b50565b5f815190506102b28161028e565b92915050565b5f602082840312156102cd576102cc61025a565b5b5f6102da848285016102a4565b91505092915050565b5f82825260208201905092915050565b7f4469726563746f72792063616e6e6f74206265207a65726f20616464726573735f82015250565b5f6103276020836102e3565b9150610332826102f3565b602082019050919050565b5f6020820190508181035f8301526103548161031b565b9050919050565b7f4469726563746f7279206d757374206265206120636f6e7472616374000000005f82015250565b5f61038f601c836102e3565b915061039a8261035b565b602082019050919050565b5f6020820190508181035f8301526103bc81610383565b9050919050565b7f4469726563746f7279206164647265737320646f6573206e6f7420696d706c655f8201527f6d656e74206f776e657228290000000000000000000000000000000000000000602082015250565b5f61041d602c836102e3565b9150610428826103c3565b604082019050919050565b5f6020820190508181035f83015261044a81610411565b9050919050565b61355d8061045e5f395ff3fe6080604052600436106100c5575f3560e01c8063658a847a1161007e578063b42c078211610058578063b42c07821461024a578063ba4c7be114610272578063bb3367bd1461029a578063e220d0de146102c2576100cc565b8063658a847a146101ce5780638da5cb5b146101f8578063acec338a14610222576100cc565b80630650b0fc146100d057806309053ac4146100fa57806322f3e2d41461012257806325c006f91461014c57806326232a2e146101685780632726261814610192576100cc565b366100cc57005b5f5ffd5b3480156100db575f5ffd5b506100e46102ea565b6040516100f19190612351565b60405180910390f35b348015610105575f5ffd5b50610120600480360381019061011b91906123d5565b610300565b005b34801561012d575f5ffd5b50610136610408565b604051610143919061242d565b60405180910390f35b61016660048036038101906101619190612479565b610419565b005b348015610173575f5ffd5b5061017c6106ff565b60405161018991906124d3565b60405180910390f35b34801561019d575f5ffd5b506101b860048036038101906101b39190612628565b610712565b6040516101c5919061267e565b60405180910390f35b3480156101d9575f5ffd5b506101e26107b2565b6040516101ef91906126f2565b60405180910390f35b348015610203575f5ffd5b5061020c6107d6565b604051610219919061267e565b60405180910390f35b34801561022d575f5ffd5b5061024860048036038101906102439190612735565b610869565b005b348015610255575f5ffd5b50610270600480360381019061026b919061278a565b61097f565b005b34801561027d575f5ffd5b50610298600480360381019061029391906127b5565b610b25565b005b3480156102a5575f5ffd5b506102c060048036038101906102bb919061280a565b610c2b565b005b3480156102cd575f5ffd5b506102e860048036038101906102e39190612870565b610d8b565b005b600260039054906101000a900463ffffffff1681565b5f5f9054906101000a900473ffffffffffffffffffffffffffffffffffffffff1673ffffffffffffffffffffffffffffffffffffffff16638da5cb5b6040518163ffffffff1660e01b8152600401602060405180830381865afa158015610369573d5f5f3e3d5ffd5b505050506040513d601f19601f8201168201806040525081019061038d91906128d4565b73ffffffffffffffffffffffffffffffffffffffff163373ffffffffffffffffffffffffffffffffffffffff16146103fa576040517f08c379a00000000000000000000000000000000000000000000000000000000081526004016103f190612959565b60405180910390fd5b61040482826111a6565b5050565b60028054906101000a900460ff1681565b6104216111b4565b60028054906101000a900460ff1661046e576040517f08c379a0000000000000000000000000000000000000000000000000000000008152600401610465906129c1565b60405180910390fd5b5f34036104a7576040517f790c8b3900000000000000000000000000000000000000000000000000000000815260040160405180910390fd5b5f73ffffffffffffffffffffffffffffffffffffffff168173ffffffffffffffffffffffffffffffffffffffff160361050c576040517f6ba9ecd800000000000000000000000000000000000000000000000000000000815260040160405180910390fd5b5f610515611203565b73ffffffffffffffffffffffffffffffffffffffff1663549e122b846040518263ffffffff1660e01b815260040161054d91906129ee565b5f60405180830381865afa158015610567573d5f5f3e3d5ffd5b505050506040513d5f823e3d601f19601f8201168201806040525081019061058f9190612c65565b90505f5f61059c85611247565b915091505f6105aa3461132e565b90505f6105b8878386611422565b90506105d8858385600260039054906101000a900463ffffffff1661165a565b8373ffffffffffffffffffffffffffffffffffffffff166340c10f1987836040518363ffffffff1660e01b8152600401610613929190612cac565b5f604051808303815f87803b15801561062a575f5ffd5b505af115801561063c573d5f5f3e3d5ffd5b505050506106486117e9565b73ffffffffffffffffffffffffffffffffffffffff16631626542c88846040518363ffffffff1660e01b8152600401610682929190612cd3565b5f604051808303815f87803b158015610699575f5ffd5b505af11580156106ab573d5f5f3e3d5ffd5b505050507f25959fc919f5956a2d9c36c2e42ed134f9af2d978ea9d799af08698538ac3a3f87338884866040516106e6959493929190612cfa565b60405180910390a150505050506106fb61182d565b5050565b60025f9054906101000a900461ffff1681565b5f5f5f9054906101000a900473ffffffffffffffffffffffffffffffffffffffff1673ffffffffffffffffffffffffffffffffffffffff166327262618836040518263ffffffff1660e01b815260040161076c9190612d8d565b602060405180830381865afa158015610787573d5f5f3e3d5ffd5b505050506040513d601f19601f820116820180604052508101906107ab91906128d4565b9050919050565b5f5f9054906101000a900473ffffffffffffffffffffffffffffffffffffffff1681565b5f5f5f9054906101000a900473ffffffffffffffffffffffffffffffffffffffff1673ffffffffffffffffffffffffffffffffffffffff16638da5cb5b6040518163ffffffff1660e01b8152600401602060405180830381865afa158015610840573d5f5f3e3d5ffd5b505050506040513d601f19601f8201168201806040525081019061086491906128d4565b905090565b5f5f9054906101000a900473ffffffffffffffffffffffffffffffffffffffff1673ffffffffffffffffffffffffffffffffffffffff16638da5cb5b6040518163ffffffff1660e01b8152600401602060405180830381865afa1580156108d2573d5f5f3e3d5ffd5b505050506040513d601f19601f820116820180604052508101906108f691906128d4565b73ffffffffffffffffffffffffffffffffffffffff163373ffffffffffffffffffffffffffffffffffffffff1614610963576040517f08c379a000000000000000000000000000000000000000000000000000000000815260040161095a90612959565b60405180910390fd5b806002806101000a81548160ff02191690831515021790555050565b5f5f9054906101000a900473ffffffffffffffffffffffffffffffffffffffff1673ffffffffffffffffffffffffffffffffffffffff16638da5cb5b6040518163ffffffff1660e01b8152600401602060405180830381865afa1580156109e8573d5f5f3e3d5ffd5b505050506040513d601f19601f82011682018060405250810190610a0c91906128d4565b73ffffffffffffffffffffffffffffffffffffffff163373ffffffffffffffffffffffffffffffffffffffff1614610a79576040517f08c379a0000000000000000000000000000000000000000000000000000000008152600401610a7090612959565b60405180910390fd5b60028054906101000a900460ff16610ac6576040517f08c379a0000000000000000000000000000000000000000000000000000000008152600401610abd906129c1565b60405180910390fd5b6127108161ffff161115610b06576040517fdeaa01e600000000000000000000000000000000000000000000000000000000815260040160405180910390fd5b8060025f6101000a81548161ffff021916908361ffff16021790555050565b5f5f9054906101000a900473ffffffffffffffffffffffffffffffffffffffff1673ffffffffffffffffffffffffffffffffffffffff16638da5cb5b6040518163ffffffff1660e01b8152600401602060405180830381865afa158015610b8e573d5f5f3e3d5ffd5b505050506040513d601f19601f82011682018060405250810190610bb291906128d4565b73ffffffffffffffffffffffffffffffffffffffff163373ffffffffffffffffffffffffffffffffffffffff1614610c1f576040517f08c379a0000000000000000000000000000000000000000000000000000000008152600401610c1690612959565b60405180910390fd5b610c2881611836565b50565b5f5f9054906101000a900473ffffffffffffffffffffffffffffffffffffffff1673ffffffffffffffffffffffffffffffffffffffff16638da5cb5b6040518163ffffffff1660e01b8152600401602060405180830381865afa158015610c94573d5f5f3e3d5ffd5b505050506040513d601f19601f82011682018060405250810190610cb891906128d4565b73ffffffffffffffffffffffffffffffffffffffff163373ffffffffffffffffffffffffffffffffffffffff1614610d25576040517f08c379a0000000000000000000000000000000000000000000000000000000008152600401610d1c90612959565b60405180910390fd5b6127108163ffffffff161115610d67576040517fdeaa01e600000000000000000000000000000000000000000000000000000000815260040160405180910390fd5b80600260036101000a81548163ffffffff021916908363ffffffff16021790555050565b610d936111b4565b60028054906101000a900460ff16610de0576040517f08c379a0000000000000000000000000000000000000000000000000000000008152600401610dd7906129c1565b60405180910390fd5b5f8203610e19576040517f790c8b3900000000000000000000000000000000000000000000000000000000815260040160405180910390fd5b5f73ffffffffffffffffffffffffffffffffffffffff168173ffffffffffffffffffffffffffffffffffffffff1603610e7e576040517f6ba9ecd800000000000000000000000000000000000000000000000000000000815260040160405180910390fd5b5f610e87611203565b73ffffffffffffffffffffffffffffffffffffffff1663549e122b856040518263ffffffff1660e01b8152600401610ebf91906129ee565b5f60405180830381865afa158015610ed9573d5f5f3e3d5ffd5b505050506040513d5f823e3d601f19601f82011682018060405250810190610f019190612c65565b90505f5f610f0e86611247565b915091505f8273ffffffffffffffffffffffffffffffffffffffff166318160ddd6040518163ffffffff1660e01b8152600401602060405180830381865afa158015610f5c573d5f5f3e3d5ffd5b505050506040513d601f19601f82011682018060405250810190610f809190612dc1565b90505f8103610fbb576040517f9fbba64f00000000000000000000000000000000000000000000000000000000815260040160405180910390fd5b80861115610ff5576040517fdf69062500000000000000000000000000000000000000000000000000000000815260040160405180910390fd5b8273ffffffffffffffffffffffffffffffffffffffff16639dc29fac33886040518363ffffffff1660e01b8152600401611030929190612cac565b5f604051808303815f87803b158015611047575f5ffd5b505af1158015611059573d5f5f3e3d5ffd5b505050505f4790506110818588848630600260039054906101000a900463ffffffff166119e7565b5f4790505f82826110929190612e19565b90505f81036110cd576040517f790c8b3900000000000000000000000000000000000000000000000000000000815260040160405180910390fd5b5f6110d78261132e565b90506110e38982611d78565b6110eb6117e9565b73ffffffffffffffffffffffffffffffffffffffff16631626542c8c836040518363ffffffff1660e01b8152600401611125929190612cd3565b5f604051808303815f87803b15801561113c575f5ffd5b505af115801561114e573d5f5f3e3d5ffd5b505050507f658f1eb57c83d50db011863e074e65f706d0f4a2123171054a851b6ac829394f8b338b8d85604051611189959493929190612e6c565b60405180910390a150505050505050506111a161182d565b505050565b6111b08282611e8f565b5050565b6002600154036111f9576040517f08c379a00000000000000000000000000000000000000000000000000000000081526004016111f090612f07565b60405180910390fd5b6002600181905550565b5f6112426040518060400160405280600d81526020017f696e6465782d666163746f727900000000000000000000000000000000000000815250610712565b905090565b5f5f61125283611f66565b915061125d83611fed565b90505f73ffffffffffffffffffffffffffffffffffffffff168273ffffffffffffffffffffffffffffffffffffffff16036112c4576040517f6ba9ecd800000000000000000000000000000000000000000000000000000000815260040160405180910390fd5b5f73ffffffffffffffffffffffffffffffffffffffff168173ffffffffffffffffffffffffffffffffffffffff1603611329576040517f6ba9ecd800000000000000000000000000000000000000000000000000000000815260040160405180910390fd5b915091565b5f5f61136e6040518060400160405280600581526020017f7661756c74000000000000000000000000000000000000000000000000000000815250610712565b90505f60025f9054906101000a900461ffff1690505f73ffffffffffffffffffffffffffffffffffffffff168273ffffffffffffffffffffffffffffffffffffffff1614806113c057505f8161ffff16145b156113cf57839250505061141d565b5f6127108261ffff16866113e39190612f25565b6113ed9190612f93565b90505f8114611416576114008382611d78565b808561140c9190612e19565b935050505061141d565b8493505050505b919050565b5f5f8273ffffffffffffffffffffffffffffffffffffffff166318160ddd6040518163ffffffff1660e01b8152600401602060405180830381865afa15801561146d573d5f5f3e3d5ffd5b505050506040513d601f19601f820116820180604052508101906114919190612dc1565b90505f810361157c575f6114a3612074565b73ffffffffffffffffffffffffffffffffffffffff1663c9d54fa7876040518263ffffffff1660e01b81526004016114db91906129ee565b602060405180830381865afa1580156114f6573d5f5f3e3d5ffd5b505050506040513d601f19601f8201168201806040525081019061151a9190612dc1565b90505f8103611555576040517f75f308b500000000000000000000000000000000000000000000000000000000815260040160405180910390fd5b80670de0b6b3a76400008661156a9190612f25565b6115749190612f93565b925050611652565b5f6115856117e9565b73ffffffffffffffffffffffffffffffffffffffff1663e4b603b3876040518263ffffffff1660e01b81526004016115bd91906129ee565b602060405180830381865afa1580156115d8573d5f5f3e3d5ffd5b505050506040513d601f19601f820116820180604052508101906115fc9190612dc1565b90505f8103611637576040517f4178056200000000000000000000000000000000000000000000000000000000815260040160405180910390fd5b8082866116449190612f25565b61164e9190612f93565b9250505b509392505050565b5f84604001515190505f810361167057506117e3565b5f8167ffffffffffffffff81111561168b5761168a612504565b5b6040519080825280602002602001820160405280156116c457816020015b6116b16122d3565b8152602001906001900390816116a95790505b5090505f5b8281101561176c576040518060400160405280886040015183815181106116f3576116f2612fc3565b5b60200260200101515f015173ffffffffffffffffffffffffffffffffffffffff168152602001886040015183815181106117305761172f612fc3565b5b60200260200101516020015161ffff1681525082828151811061175657611755612fc3565b5b60200260200101819052508060010190506116c9565b506117756120b8565b73ffffffffffffffffffffffffffffffffffffffff16631623306b868387876040518563ffffffff1660e01b81526004016117b2939291906130e3565b5f604051808303818588803b1580156117c9575f5ffd5b505af11580156117db573d5f5f3e3d5ffd5b505050505050505b50505050565b5f6118286040518060400160405280600b81526020017f6574662d666163746f7279000000000000000000000000000000000000000000815250610712565b905090565b60018081905550565b5f73ffffffffffffffffffffffffffffffffffffffff168173ffffffffffffffffffffffffffffffffffffffff16036118a4576040517f08c379a000000000000000000000000000000000000000000000000000000000815260040161189b90613169565b60405180910390fd5b5f8173ffffffffffffffffffffffffffffffffffffffff163b116118fd576040517f08c379a00000000000000000000000000000000000000000000000000000000081526004016118f4906131d1565b60405180910390fd5b8073ffffffffffffffffffffffffffffffffffffffff16638da5cb5b6040518163ffffffff1660e01b8152600401602060405180830381865afa92505050801561196557506040513d601f19601f8201168201806040525081019061196291906128d4565b60015b6119a4576040517f08c379a000000000000000000000000000000000000000000000000000000000815260040161199b9061325f565b60405180910390fd5b815f5f6101000a81548173ffffffffffffffffffffffffffffffffffffffff021916908373ffffffffffffffffffffffffffffffffffffffff1602179055505050565b5f86604001515190505f8167ffffffffffffffff811115611a0b57611a0a612504565b5b604051908082528060200260200182016040528015611a395781602001602082028036833780820191505090505b5090505f5f5b83811015611b39575f8a604001518281518110611a5f57611a5e612fc3565b5b60200260200101515f015190505f8173ffffffffffffffffffffffffffffffffffffffff166370a082318a6040518263ffffffff1660e01b8152600401611aa6919061267e565b602060405180830381865afa158015611ac1573d5f5f3e3d5ffd5b505050506040513d601f19601f82011682018060405250810190611ae59190612dc1565b90505f8a8c830281611afa57611af9612f66565b5b04905080868581518110611b1157611b10612fc3565b5b6020026020010181815250505f8114611b2b578460010194505b505050806001019050611a3f565b505f8103611b73576040517fd0d04f6000000000000000000000000000000000000000000000000000000000815260040160405180910390fd5b5f611b7c6120b8565b90505f8190505f8367ffffffffffffffff811115611b9d57611b9c612504565b5b604051908082528060200260200182016040528015611bd657816020015b611bc3612305565b815260200190600190039081611bbb5790505b5090505f5f5b87811015611cfb575f878281518110611bf857611bf7612fc3565b5b602002602001015190505f8103611c0f5750611cf0565b5f8f604001518381518110611c2757611c26612fc3565b5b60200260200101515f015190508c73ffffffffffffffffffffffffffffffffffffffff16635c833bfd8284896040518463ffffffff1660e01b8152600401611c719392919061327d565b5f604051808303815f87803b158015611c88575f5ffd5b505af1158015611c9a573d5f5f3e3d5ffd5b5050505060405180604001604052808273ffffffffffffffffffffffffffffffffffffffff16815260200183815250858580600101965081518110611ce257611ce1612fc3565b5b602002602001018190525050505b806001019050611bdc565b508373ffffffffffffffffffffffffffffffffffffffff16633814bc6e838b8b60016040518563ffffffff1660e01b8152600401611d3c94939291906133a5565b5f604051808303815f87803b158015611d53575f5ffd5b505af1158015611d65573d5f5f3e3d5ffd5b5050505050505050505050505050505050565b5f8103611db1576040517f1f2a200500000000000000000000000000000000000000000000000000000000815260040160405180910390fd5b80471015611deb576040517f6a12f10400000000000000000000000000000000000000000000000000000000815260040160405180910390fd5b5f8273ffffffffffffffffffffffffffffffffffffffff1682604051611e109061341c565b5f6040518083038185875af1925050503d805f8114611e4a576040519150601f19603f3d011682016040523d82523d5f602084013e611e4f565b606091505b5050905080611e8a576040517fcef4eed700000000000000000000000000000000000000000000000000000000815260040160405180910390fd5b505050565b5f73ffffffffffffffffffffffffffffffffffffffff168273ffffffffffffffffffffffffffffffffffffffff1603611ed157611ecc8147611d78565b611f62565b5f8273ffffffffffffffffffffffffffffffffffffffff166370a08231306040518263ffffffff1660e01b8152600401611f0b919061267e565b602060405180830381865afa158015611f26573d5f5f3e3d5ffd5b505050506040513d601f19601f82011682018060405250810190611f4a9190612dc1565b90505f811115611f6057611f5f8383836120fc565b5b505b5050565b5f611f6f61224b565b73ffffffffffffffffffffffffffffffffffffffff1663f2018a1f836040518263ffffffff1660e01b8152600401611fa791906129ee565b602060405180830381865afa158015611fc2573d5f5f3e3d5ffd5b505050506040513d601f19601f82011682018060405250810190611fe691906128d4565b9050919050565b5f611ff661228f565b73ffffffffffffffffffffffffffffffffffffffff16633ee79962836040518263ffffffff1660e01b815260040161202e91906129ee565b602060405180830381865afa158015612049573d5f5f3e3d5ffd5b505050506040513d601f19601f8201168201806040525081019061206d91906128d4565b9050919050565b5f6120b36040518060400160405280601281526020017f696e6465782d70726963652d6f7261636c650000000000000000000000000000815250610712565b905090565b5f6120f76040518060400160405280601181526020017f6d756c74692d737761702d726f75746572000000000000000000000000000000815250610712565b905090565b5f5f8473ffffffffffffffffffffffffffffffffffffffff1663a9059cbb60e01b8585604051602401612130929190612cac565b604051602081830303815290604052907bffffffffffffffffffffffffffffffffffffffffffffffffffffffff19166020820180517bffffffffffffffffffffffffffffffffffffffffffffffffffffffff838183161783525050505060405161219a919061346a565b5f604051808303815f865af19150503d805f81146121d3576040519150601f19603f3d011682016040523d82523d5f602084013e6121d8565b606091505b509150915081801561220557505f815114806122045750808060200190518101906122039190613494565b5b5b612244576040517f08c379a000000000000000000000000000000000000000000000000000000000815260040161223b90613509565b60405180910390fd5b5050505050565b5f61228a6040518060400160405280601281526020017f6574662d746f6b656e2d6465706c6f7965720000000000000000000000000000815250610712565b905090565b5f6122ce6040518060400160405280601281526020017f6574662d7661756c742d6465706c6f7965720000000000000000000000000000815250610712565b905090565b60405180604001604052805f73ffffffffffffffffffffffffffffffffffffffff1681526020015f61ffff1681525090565b60405180604001604052805f73ffffffffffffffffffffffffffffffffffffffff1681526020015f81525090565b5f63ffffffff82169050919050565b61234b81612333565b82525050565b5f6020820190506123645f830184612342565b92915050565b5f604051905090565b5f5ffd5b5f5ffd5b5f73ffffffffffffffffffffffffffffffffffffffff82169050919050565b5f6123a48261237b565b9050919050565b6123b48161239a565b81146123be575f5ffd5b50565b5f813590506123cf816123ab565b92915050565b5f5f604083850312156123eb576123ea612373565b5b5f6123f8858286016123c1565b9250506020612409858286016123c1565b9150509250929050565b5f8115159050919050565b61242781612413565b82525050565b5f6020820190506124405f83018461241e565b92915050565b5f819050919050565b61245881612446565b8114612462575f5ffd5b50565b5f813590506124738161244f565b92915050565b5f5f6040838503121561248f5761248e612373565b5b5f61249c85828601612465565b92505060206124ad858286016123c1565b9150509250929050565b5f61ffff82169050919050565b6124cd816124b7565b82525050565b5f6020820190506124e65f8301846124c4565b92915050565b5f5ffd5b5f5ffd5b5f601f19601f8301169050919050565b7f4e487b71000000000000000000000000000000000000000000000000000000005f52604160045260245ffd5b61253a826124f4565b810181811067ffffffffffffffff8211171561255957612558612504565b5b80604052505050565b5f61256b61236a565b90506125778282612531565b919050565b5f67ffffffffffffffff82111561259657612595612504565b5b61259f826124f4565b9050602081019050919050565b828183375f83830152505050565b5f6125cc6125c78461257c565b612562565b9050828152602081018484840111156125e8576125e76124f0565b5b6125f38482856125ac565b509392505050565b5f82601f83011261260f5761260e6124ec565b5b813561261f8482602086016125ba565b91505092915050565b5f6020828403121561263d5761263c612373565b5b5f82013567ffffffffffffffff81111561265a57612659612377565b5b612666848285016125fb565b91505092915050565b6126788161239a565b82525050565b5f6020820190506126915f83018461266f565b92915050565b5f819050919050565b5f6126ba6126b56126b08461237b565b612697565b61237b565b9050919050565b5f6126cb826126a0565b9050919050565b5f6126dc826126c1565b9050919050565b6126ec816126d2565b82525050565b5f6020820190506127055f8301846126e3565b92915050565b61271481612413565b811461271e575f5ffd5b50565b5f8135905061272f8161270b565b92915050565b5f6020828403121561274a57612749612373565b5b5f61275784828501612721565b91505092915050565b612769816124b7565b8114612773575f5ffd5b50565b5f8135905061278481612760565b92915050565b5f6020828403121561279f5761279e612373565b5b5f6127ac84828501612776565b91505092915050565b5f602082840312156127ca576127c9612373565b5b5f6127d7848285016123c1565b91505092915050565b6127e981612333565b81146127f3575f5ffd5b50565b5f81359050612804816127e0565b92915050565b5f6020828403121561281f5761281e612373565b5b5f61282c848285016127f6565b91505092915050565b5f61283f8261237b565b9050919050565b61284f81612835565b8114612859575f5ffd5b50565b5f8135905061286a81612846565b92915050565b5f5f5f6060848603121561288757612886612373565b5b5f61289486828701612465565b93505060206128a586828701612465565b92505060406128b68682870161285c565b9150509250925092565b5f815190506128ce816123ab565b92915050565b5f602082840312156128e9576128e8612373565b5b5f6128f6848285016128c0565b91505092915050565b5f82825260208201905092915050565b7f43616c6c6572206973206e6f7420746865206f776e65720000000000000000005f82015250565b5f6129436017836128ff565b915061294e8261290f565b602082019050919050565b5f6020820190508181035f83015261297081612937565b9050919050565b7f436f6e7472616374206973206e6f7420616374697665000000000000000000005f82015250565b5f6129ab6016836128ff565b91506129b682612977565b602082019050919050565b5f6020820190508181035f8301526129d88161299f565b9050919050565b6129e881612446565b82525050565b5f602082019050612a015f8301846129df565b92915050565b5f5ffd5b5f5ffd5b8281835e5f83830152505050565b5f612a2f612a2a8461257c565b612562565b905082815260208101848484011115612a4b57612a4a6124f0565b5b612a56848285612a0f565b509392505050565b5f82601f830112612a7257612a716124ec565b5b8151612a82848260208601612a1d565b91505092915050565b5f67ffffffffffffffff821115612aa557612aa4612504565b5b602082029050602081019050919050565b5f5ffd5b5f81519050612ac881612760565b92915050565b5f60408284031215612ae357612ae2612a07565b5b612aed6040612562565b90505f612afc848285016128c0565b5f830152506020612b0f84828501612aba565b60208301525092915050565b5f612b2d612b2884612a8b565b612562565b90508083825260208201905060408402830185811115612b5057612b4f612ab6565b5b835b81811015612b795780612b658882612ace565b845260208401935050604081019050612b52565b5050509392505050565b5f82601f830112612b9757612b966124ec565b5b8151612ba7848260208601612b1b565b91505092915050565b5f60608284031215612bc557612bc4612a07565b5b612bcf6060612562565b90505f82015167ffffffffffffffff811115612bee57612bed612a0b565b5b612bfa84828501612a5e565b5f83015250602082015167ffffffffffffffff811115612c1d57612c1c612a0b565b5b612c2984828501612a5e565b602083015250604082015167ffffffffffffffff811115612c4d57612c4c612a0b565b5b612c5984828501612b83565b60408301525092915050565b5f60208284031215612c7a57612c79612373565b5b5f82015167ffffffffffffffff811115612c9757612c96612377565b5b612ca384828501612bb0565b91505092915050565b5f604082019050612cbf5f83018561266f565b612ccc60208301846129df565b9392505050565b5f604082019050612ce65f8301856129df565b612cf360208301846129df565b9392505050565b5f60a082019050612d0d5f8301886129df565b612d1a602083018761266f565b612d27604083018661266f565b612d3460608301856129df565b612d4160808301846129df565b9695505050505050565b5f81519050919050565b5f612d5f82612d4b565b612d6981856128ff565b9350612d79818560208601612a0f565b612d82816124f4565b840191505092915050565b5f6020820190508181035f830152612da58184612d55565b905092915050565b5f81519050612dbb8161244f565b92915050565b5f60208284031215612dd657612dd5612373565b5b5f612de384828501612dad565b91505092915050565b7f4e487b71000000000000000000000000000000000000000000000000000000005f52601160045260245ffd5b5f612e2382612446565b9150612e2e83612446565b9250828203905081811115612e4657612e45612dec565b5b92915050565b5f612e56826126c1565b9050919050565b612e6681612e4c565b82525050565b5f60a082019050612e7f5f8301886129df565b612e8c602083018761266f565b612e996040830186612e5d565b612ea660608301856129df565b612eb360808301846129df565b9695505050505050565b7f5265656e7472616e637947756172643a207265656e7472616e742063616c6c005f82015250565b5f612ef1601f836128ff565b9150612efc82612ebd565b602082019050919050565b5f6020820190508181035f830152612f1e81612ee5565b9050919050565b5f612f2f82612446565b9150612f3a83612446565b9250828202612f4881612446565b91508282048414831517612f5f57612f5e612dec565b5b5092915050565b7f4e487b71000000000000000000000000000000000000000000000000000000005f52601260045260245ffd5b5f612f9d82612446565b9150612fa883612446565b925082612fb857612fb7612f66565b5b828204905092915050565b7f4e487b71000000000000000000000000000000000000000000000000000000005f52603260045260245ffd5b5f81519050919050565b5f82825260208201905092915050565b5f819050602082019050919050565b6130228161239a565b82525050565b613031816124b7565b82525050565b604082015f82015161304b5f850182613019565b50602082015161305e6020850182613028565b50505050565b5f61306f8383613037565b60408301905092915050565b5f602082019050919050565b5f61309182612ff0565b61309b8185612ffa565b93506130a68361300a565b805f5b838110156130d65781516130bd8882613064565b97506130c88361307b565b9250506001810190506130a9565b5085935050505092915050565b5f6060820190508181035f8301526130fb8186613087565b905061310a602083018561266f565b6131176040830184612342565b949350505050565b7f4469726563746f72792063616e6e6f74206265207a65726f20616464726573735f82015250565b5f6131536020836128ff565b915061315e8261311f565b602082019050919050565b5f6020820190508181035f83015261318081613147565b9050919050565b7f4469726563746f7279206d757374206265206120636f6e7472616374000000005f82015250565b5f6131bb601c836128ff565b91506131c682613187565b602082019050919050565b5f6020820190508181035f8301526131e8816131af565b9050919050565b7f4469726563746f7279206164647265737320646f6573206e6f7420696d706c655f8201527f6d656e74206f776e657228290000000000000000000000000000000000000000602082015250565b5f613249602c836128ff565b9150613254826131ef565b604082019050919050565b5f6020820190508181035f8301526132768161323d565b9050919050565b5f6060820190506132905f83018661266f565b61329d60208301856129df565b6132aa604083018461266f565b949350505050565b5f81519050919050565b5f82825260208201905092915050565b5f819050602082019050919050565b6132e481612446565b82525050565b604082015f8201516132fe5f850182613019565b50602082015161331160208501826132db565b50505050565b5f61332283836132ea565b60408301905092915050565b5f602082019050919050565b5f613344826132b2565b61334e81856132bc565b9350613359836132cc565b805f5b838110156133895781516133708882613317565b975061337b8361332e565b92505060018101905061335c565b5085935050505092915050565b61339f81612835565b82525050565b5f6080820190508181035f8301526133bd818761333a565b90506133cc6020830186613396565b6133d96040830185612342565b6133e6606083018461241e565b95945050505050565b5f81905092915050565b50565b5f6134075f836133ef565b9150613412826133f9565b5f82019050919050565b5f613426826133fc565b9150819050919050565b5f81519050919050565b5f61344482613430565b61344e81856133ef565b935061345e818560208601612a0f565b80840191505092915050565b5f613475828461343a565b915081905092915050565b5f8151905061348e8161270b565b92915050565b5f602082840312156134a9576134a8612373565b5b5f6134b684828501613480565b91505092915050565b7f5452414e534645525f4641494c454400000000000000000000000000000000005f82015250565b5f6134f3600f836128ff565b91506134fe826134bf565b602082019050919050565b5f6020820190508181035f830152613520816134e7565b905091905056fea264697066735822122008bf6b7c199beb389d8f49879c4b7ff0c9c0ba25aa27649e4f0f2ca7d90e8c8c64736f6c634300081e0033",
					"opcodes": "PUSH1 0x80 PUSH1 0x40 MSTORE PUSH1 0x19 PUSH1 0x2 PUSH0 PUSH2 0x100 EXP DUP2 SLOAD DUP2 PUSH2 0xFFFF MUL NOT AND SWAP1 DUP4 PUSH2 0xFFFF AND MUL OR SWAP1 SSTORE POP PUSH1 0x1 PUSH1 0x2 DUP1 PUSH2 0x100 EXP DUP2 SLOAD DUP2 PUSH1 0xFF MUL NOT AND SWAP1 DUP4 ISZERO ISZERO MUL OR SWAP1 SSTORE POP PUSH2 0x12C PUSH1 0x2 PUSH1 0x3 PUSH2 0x100 EXP DUP2 SLOAD DUP2 PUSH4 0xFFFFFFFF MUL NOT AND SWAP1 DUP4 PUSH4 0xFFFFFFFF AND MUL OR SWAP1 SSTORE POP CALLVALUE DUP1 ISZERO PUSH2 0x69 JUMPI PUSH0 PUSH0 REVERT JUMPDEST POP PUSH1 0x40 MLOAD PUSH2 0x39BB CODESIZE SUB DUP1 PUSH2 0x39BB DUP4 CODECOPY DUP2 DUP2 ADD PUSH1 0x40 MSTORE DUP2 ADD SWAP1 PUSH2 0x8B SWAP2 SWAP1 PUSH2 0x2B8 JUMP JUMPDEST DUP1 PUSH2 0x9B DUP2 PUSH2 0xA9 PUSH1 0x20 SHL PUSH1 0x20 SHR JUMP JUMPDEST POP PUSH1 0x1 DUP1 DUP2 SWAP1 SSTORE POP POP PUSH2 0x451 JUMP JUMPDEST PUSH0 PUSH20 0xFFFFFFFFFFFFFFFFFFFFFFFFFFFFFFFFFFFFFFFF AND DUP2 PUSH20 0xFFFFFFFFFFFFFFFFFFFFFFFFFFFFFFFFFFFFFFFF AND SUB PUSH2 0x117 JUMPI PUSH1 0x40 MLOAD PUSH32 0x8C379A000000000000000000000000000000000000000000000000000000000 DUP2 MSTORE PUSH1 0x4 ADD PUSH2 0x10E SWAP1 PUSH2 0x33D JUMP JUMPDEST PUSH1 0x40 MLOAD DUP1 SWAP2 SUB SWAP1 REVERT JUMPDEST PUSH0 DUP2 PUSH20 0xFFFFFFFFFFFFFFFFFFFFFFFFFFFFFFFFFFFFFFFF AND EXTCODESIZE GT PUSH2 0x170 JUMPI PUSH1 0x40 MLOAD PUSH32 0x8C379A000000000000000000000000000000000000000000000000000000000 DUP2 MSTORE PUSH1 0x4 ADD PUSH2 0x167 SWAP1 PUSH2 0x3A5 JUMP JUMPDEST PUSH1 0x40 MLOAD DUP1 SWAP2 SUB SWAP1 REVERT JUMPDEST DUP1 PUSH20 0xFFFFFFFFFFFFFFFFFFFFFFFFFFFFFFFFFFFFFFFF AND PUSH4 0x8DA5CB5B PUSH1 0x40 MLOAD DUP2 PUSH4 0xFFFFFFFF AND PUSH1 0xE0 SHL DUP2 MSTORE PUSH1 0x4 ADD PUSH1 0x20 PUSH1 0x40 MLOAD DUP1 DUP4 SUB DUP2 DUP7 GAS STATICCALL SWAP3 POP POP POP DUP1 ISZERO PUSH2 0x1D8 JUMPI POP PUSH1 0x40 MLOAD RETURNDATASIZE PUSH1 0x1F NOT PUSH1 0x1F DUP3 ADD AND DUP3 ADD DUP1 PUSH1 0x40 MSTORE POP DUP2 ADD SWAP1 PUSH2 0x1D5 SWAP2 SWAP1 PUSH2 0x2B8 JUMP JUMPDEST PUSH1 0x1 JUMPDEST PUSH2 0x217 JUMPI PUSH1 0x40 MLOAD PUSH32 0x8C379A000000000000000000000000000000000000000000000000000000000 DUP2 MSTORE PUSH1 0x4 ADD PUSH2 0x20E SWAP1 PUSH2 0x433 JUMP JUMPDEST PUSH1 0x40 MLOAD DUP1 SWAP2 SUB SWAP1 REVERT JUMPDEST DUP2 PUSH0 PUSH0 PUSH2 0x100 EXP DUP2 SLOAD DUP2 PUSH20 0xFFFFFFFFFFFFFFFFFFFFFFFFFFFFFFFFFFFFFFFF MUL NOT AND SWAP1 DUP4 PUSH20 0xFFFFFFFFFFFFFFFFFFFFFFFFFFFFFFFFFFFFFFFF AND MUL OR SWAP1 SSTORE POP POP POP JUMP JUMPDEST PUSH0 PUSH0 REVERT JUMPDEST PUSH0 PUSH20 0xFFFFFFFFFFFFFFFFFFFFFFFFFFFFFFFFFFFFFFFF DUP3 AND SWAP1 POP SWAP2 SWAP1 POP JUMP JUMPDEST PUSH0 PUSH2 0x287 DUP3 PUSH2 0x25E JUMP JUMPDEST SWAP1 POP SWAP2 SWAP1 POP JUMP JUMPDEST PUSH2 0x297 DUP2 PUSH2 0x27D JUMP JUMPDEST DUP2 EQ PUSH2 0x2A1 JUMPI PUSH0 PUSH0 REVERT JUMPDEST POP JUMP JUMPDEST PUSH0 DUP2 MLOAD SWAP1 POP PUSH2 0x2B2 DUP2 PUSH2 0x28E JUMP JUMPDEST SWAP3 SWAP2 POP POP JUMP JUMPDEST PUSH0 PUSH1 0x20 DUP3 DUP5 SUB SLT ISZERO PUSH2 0x2CD JUMPI PUSH2 0x2CC PUSH2 0x25A JUMP JUMPDEST JUMPDEST PUSH0 PUSH2 0x2DA DUP5 DUP3 DUP6 ADD PUSH2 0x2A4 JUMP JUMPDEST SWAP2 POP POP SWAP3 SWAP2 POP POP JUMP JUMPDEST PUSH0 DUP3 DUP3 MSTORE PUSH1 0x20 DUP3 ADD SWAP1 POP SWAP3 SWAP2 POP POP JUMP JUMPDEST PUSH32 0x4469726563746F72792063616E6E6F74206265207A65726F2061646472657373 PUSH0 DUP3 ADD MSTORE POP JUMP JUMPDEST PUSH0 PUSH2 0x327 PUSH1 0x20 DUP4 PUSH2 0x2E3 JUMP JUMPDEST SWAP2 POP PUSH2 0x332 DUP3 PUSH2 0x2F3 JUMP JUMPDEST PUSH1 0x20 DUP3 ADD SWAP1 POP SWAP2 SWAP1 POP JUMP JUMPDEST PUSH0 PUSH1 0x20 DUP3 ADD SWAP1 POP DUP2 DUP2 SUB PUSH0 DUP4 ADD MSTORE PUSH2 0x354 DUP2 PUSH2 0x31B JUMP JUMPDEST SWAP1 POP SWAP2 SWAP1 POP JUMP JUMPDEST PUSH32 0x4469726563746F7279206D757374206265206120636F6E747261637400000000 PUSH0 DUP3 ADD MSTORE POP JUMP JUMPDEST PUSH0 PUSH2 0x38F PUSH1 0x1C DUP4 PUSH2 0x2E3 JUMP JUMPDEST SWAP2 POP PUSH2 0x39A DUP3 PUSH2 0x35B JUMP JUMPDEST PUSH1 0x20 DUP3 ADD SWAP1 POP SWAP2 SWAP1 POP JUMP JUMPDEST PUSH0 PUSH1 0x20 DUP3 ADD SWAP1 POP DUP2 DUP2 SUB PUSH0 DUP4 ADD MSTORE PUSH2 0x3BC DUP2 PUSH2 0x383 JUMP JUMPDEST SWAP1 POP SWAP2 SWAP1 POP JUMP JUMPDEST PUSH32 0x4469726563746F7279206164647265737320646F6573206E6F7420696D706C65 PUSH0 DUP3 ADD MSTORE PUSH32 0x6D656E74206F776E657228290000000000000000000000000000000000000000 PUSH1 0x20 DUP3 ADD MSTORE POP JUMP JUMPDEST PUSH0 PUSH2 0x41D PUSH1 0x2C DUP4 PUSH2 0x2E3 JUMP JUMPDEST SWAP2 POP PUSH2 0x428 DUP3 PUSH2 0x3C3 JUMP JUMPDEST PUSH1 0x40 DUP3 ADD SWAP1 POP SWAP2 SWAP1 POP JUMP JUMPDEST PUSH0 PUSH1 0x20 DUP3 ADD SWAP1 POP DUP2 DUP2 SUB PUSH0 DUP4 ADD MSTORE PUSH2 0x44A DUP2 PUSH2 0x411 JUMP JUMPDEST SWAP1 POP SWAP2 SWAP1 POP JUMP JUMPDEST PUSH2 0x355D DUP1 PUSH2 0x45E PUSH0 CODECOPY PUSH0 RETURN INVALID PUSH1 0x80 PUSH1 0x40 MSTORE PUSH1 0x4 CALLDATASIZE LT PUSH2 0xC5 JUMPI PUSH0 CALLDATALOAD PUSH1 0xE0 SHR DUP1 PUSH4 0x658A847A GT PUSH2 0x7E JUMPI DUP1 PUSH4 0xB42C0782 GT PUSH2 0x58 JUMPI DUP1 PUSH4 0xB42C0782 EQ PUSH2 0x24A JUMPI DUP1 PUSH4 0xBA4C7BE1 EQ PUSH2 0x272 JUMPI DUP1 PUSH4 0xBB3367BD EQ PUSH2 0x29A JUMPI DUP1 PUSH4 0xE220D0DE EQ PUSH2 0x2C2 JUMPI PUSH2 0xCC JUMP JUMPDEST DUP1 PUSH4 0x658A847A EQ PUSH2 0x1CE JUMPI DUP1 PUSH4 0x8DA5CB5B EQ PUSH2 0x1F8 JUMPI DUP1 PUSH4 0xACEC338A EQ PUSH2 0x222 JUMPI PUSH2 0xCC JUMP JUMPDEST DUP1 PUSH4 0x650B0FC EQ PUSH2 0xD0 JUMPI DUP1 PUSH4 0x9053AC4 EQ PUSH2 0xFA JUMPI DUP1 PUSH4 0x22F3E2D4 EQ PUSH2 0x122 JUMPI DUP1 PUSH4 0x25C006F9 EQ PUSH2 0x14C JUMPI DUP1 PUSH4 0x26232A2E EQ PUSH2 0x168 JUMPI DUP1 PUSH4 0x27262618 EQ PUSH2 0x192 JUMPI PUSH2 0xCC JUMP JUMPDEST CALLDATASIZE PUSH2 0xCC JUMPI STOP JUMPDEST PUSH0 PUSH0 REVERT JUMPDEST CALLVALUE DUP1 ISZERO PUSH2 0xDB JUMPI PUSH0 PUSH0 REVERT JUMPDEST POP PUSH2 0xE4 PUSH2 0x2EA JUMP JUMPDEST PUSH1 0x40 MLOAD PUSH2 0xF1 SWAP2 SWAP1 PUSH2 0x2351 JUMP JUMPDEST PUSH1 0x40 MLOAD DUP1 SWAP2 SUB SWAP1 RETURN JUMPDEST CALLVALUE DUP1 ISZERO PUSH2 0x105 JUMPI PUSH0 PUSH0 REVERT JUMPDEST POP PUSH2 0x120 PUSH1 0x4 DUP1 CALLDATASIZE SUB DUP2 ADD SWAP1 PUSH2 0x11B SWAP2 SWAP1 PUSH2 0x23D5 JUMP JUMPDEST PUSH2 0x300 JUMP JUMPDEST STOP JUMPDEST CALLVALUE DUP1 ISZERO PUSH2 0x12D JUMPI PUSH0 PUSH0 REVERT JUMPDEST POP PUSH2 0x136 PUSH2 0x408 JUMP JUMPDEST PUSH1 0x40 MLOAD PUSH2 0x143 SWAP2 SWAP1 PUSH2 0x242D JUMP JUMPDEST PUSH1 0x40 MLOAD DUP1 SWAP2 SUB SWAP1 RETURN JUMPDEST PUSH2 0x166 PUSH1 0x4 DUP1 CALLDATASIZE SUB DUP2 ADD SWAP1 PUSH2 0x161 SWAP2 SWAP1 PUSH2 0x2479 JUMP JUMPDEST PUSH2 0x419 JUMP JUMPDEST STOP JUMPDEST CALLVALUE DUP1 ISZERO PUSH2 0x173 JUMPI PUSH0 PUSH0 REVERT JUMPDEST POP PUSH2 0x17C PUSH2 0x6FF JUMP JUMPDEST PUSH1 0x40 MLOAD PUSH2 0x189 SWAP2 SWAP1 PUSH2 0x24D3 JUMP JUMPDEST PUSH1 0x40 MLOAD DUP1 SWAP2 SUB SWAP1 RETURN JUMPDEST CALLVALUE DUP1 ISZERO PUSH2 0x19D JUMPI PUSH0 PUSH0 REVERT JUMPDEST POP PUSH2 0x1B8 PUSH1 0x4 DUP1 CALLDATASIZE SUB DUP2 ADD SWAP1 PUSH2 0x1B3 SWAP2 SWAP1 PUSH2 0x2628 JUMP JUMPDEST PUSH2 0x712 JUMP JUMPDEST PUSH1 0x40 MLOAD PUSH2 0x1C5 SWAP2 SWAP1 PUSH2 0x267E JUMP JUMPDEST PUSH1 0x40 MLOAD DUP1 SWAP2 SUB SWAP1 RETURN JUMPDEST CALLVALUE DUP1 ISZERO PUSH2 0x1D9 JUMPI PUSH0 PUSH0 REVERT JUMPDEST POP PUSH2 0x1E2 PUSH2 0x7B2 JUMP JUMPDEST PUSH1 0x40 MLOAD PUSH2 0x1EF SWAP2 SWAP1 PUSH2 0x26F2 JUMP JUMPDEST PUSH1 0x40 MLOAD DUP1 SWAP2 SUB SWAP1 RETURN JUMPDEST CALLVALUE DUP1 ISZERO PUSH2 0x203 JUMPI PUSH0 PUSH0 REVERT JUMPDEST POP PUSH2 0x20C PUSH2 0x7D6 JUMP JUMPDEST PUSH1 0x40 MLOAD PUSH2 0x219 SWAP2 SWAP1 PUSH2 0x267E JUMP JUMPDEST PUSH1 0x40 MLOAD DUP1 SWAP2 SUB SWAP1 RETURN JUMPDEST CALLVALUE DUP1 ISZERO PUSH2 0x22D JUMPI PUSH0 PUSH0 REVERT JUMPDEST POP PUSH2 0x248 PUSH1 0x4 DUP1 CALLDATASIZE SUB DUP2 ADD SWAP1 PUSH2 0x243 SWAP2 SWAP1 PUSH2 0x2735 JUMP JUMPDEST PUSH2 0x869 JUMP JUMPDEST STOP JUMPDEST CALLVALUE DUP1 ISZERO PUSH2 0x255 JUMPI PUSH0 PUSH0 REVERT JUMPDEST POP PUSH2 0x270 PUSH1 0x4 DUP1 CALLDATASIZE SUB DUP2 ADD SWAP1 PUSH2 0x26B SWAP2 SWAP1 PUSH2 0x278A JUMP JUMPDEST PUSH2 0x97F JUMP JUMPDEST STOP JUMPDEST CALLVALUE DUP1 ISZERO PUSH2 0x27D JUMPI PUSH0 PUSH0 REVERT JUMPDEST POP PUSH2 0x298 PUSH1 0x4 DUP1 CALLDATASIZE SUB DUP2 ADD SWAP1 PUSH2 0x293 SWAP2 SWAP1 PUSH2 0x27B5 JUMP JUMPDEST PUSH2 0xB25 JUMP JUMPDEST STOP JUMPDEST CALLVALUE DUP1 ISZERO PUSH2 0x2A5 JUMPI PUSH0 PUSH0 REVERT JUMPDEST POP PUSH2 0x2C0 PUSH1 0x4 DUP1 CALLDATASIZE SUB DUP2 ADD SWAP1 PUSH2 0x2BB SWAP2 SWAP1 PUSH2 0x280A JUMP JUMPDEST PUSH2 0xC2B JUMP JUMPDEST STOP JUMPDEST CALLVALUE DUP1 ISZERO PUSH2 0x2CD JUMPI PUSH0 PUSH0 REVERT JUMPDEST POP PUSH2 0x2E8 PUSH1 0x4 DUP1 CALLDATASIZE SUB DUP2 ADD SWAP1 PUSH2 0x2E3 SWAP2 SWAP1 PUSH2 0x2870 JUMP JUMPDEST PUSH2 0xD8B JUMP JUMPDEST STOP JUMPDEST PUSH1 0x2 PUSH1 0x3 SWAP1 SLOAD SWAP1 PUSH2 0x100 EXP SWAP1 DIV PUSH4 0xFFFFFFFF AND DUP2 JUMP JUMPDEST PUSH0 PUSH0 SWAP1 SLOAD SWAP1 PUSH2 0x100 EXP SWAP1 DIV PUSH20 0xFFFFFFFFFFFFFFFFFFFFFFFFFFFFFFFFFFFFFFFF AND PUSH20 0xFFFFFFFFFFFFFFFFFFFFFFFFFFFFFFFFFFFFFFFF AND PUSH4 0x8DA5CB5B PUSH1 0x40 MLOAD DUP2 PUSH4 0xFFFFFFFF AND PUSH1 0xE0 SHL DUP2 MSTORE PUSH1 0x4 ADD PUSH1 0x20 PUSH1 0x40 MLOAD DUP1 DUP4 SUB DUP2 DUP7 GAS STATICCALL ISZERO DUP1 ISZERO PUSH2 0x369 JUMPI RETURNDATASIZE PUSH0 PUSH0 RETURNDATACOPY RETURNDATASIZE PUSH0 REVERT JUMPDEST POP POP POP POP PUSH1 0x40 MLOAD RETURNDATASIZE PUSH1 0x1F NOT PUSH1 0x1F DUP3 ADD AND DUP3 ADD DUP1 PUSH1 0x40 MSTORE POP DUP2 ADD SWAP1 PUSH2 0x38D SWAP2 SWAP1 PUSH2 0x28D4 JUMP JUMPDEST PUSH20 0xFFFFFFFFFFFFFFFFFFFFFFFFFFFFFFFFFFFFFFFF AND CALLER PUSH20 0xFFFFFFFFFFFFFFFFFFFFFFFFFFFFFFFFFFFFFFFF AND EQ PUSH2 0x3FA JUMPI PUSH1 0x40 MLOAD PUSH32 0x8C379A000000000000000000000000000000000000000000000000000000000 DUP2 MSTORE PUSH1 0x4 ADD PUSH2 0x3F1 SWAP1 PUSH2 0x2959 JUMP JUMPDEST PUSH1 0x40 MLOAD DUP1 SWAP2 SUB SWAP1 REVERT JUMPDEST PUSH2 0x404 DUP3 DUP3 PUSH2 0x11A6 JUMP JUMPDEST POP POP JUMP JUMPDEST PUSH1 0x2 DUP1 SLOAD SWAP1 PUSH2 0x100 EXP SWAP1 DIV PUSH1 0xFF AND DUP2 JUMP JUMPDEST PUSH2 0x421 PUSH2 0x11B4 JUMP JUMPDEST PUSH1 0x2 DUP1 SLOAD SWAP1 PUSH2 0x100 EXP SWAP1 DIV PUSH1 0xFF AND PUSH2 0x46E JUMPI PUSH1 0x40 MLOAD PUSH32 0x8C379A000000000000000000000000000000000000000000000000000000000 DUP2 MSTORE PUSH1 0x4 ADD PUSH2 0x465 SWAP1 PUSH2 0x29C1 JUMP JUMPDEST PUSH1 0x40 MLOAD DUP1 SWAP2 SUB SWAP1 REVERT JUMPDEST PUSH0 CALLVALUE SUB PUSH2 0x4A7 JUMPI PUSH1 0x40 MLOAD PUSH32 0x790C8B3900000000000000000000000000000000000000000000000000000000 DUP2 MSTORE PUSH1 0x4 ADD PUSH1 0x40 MLOAD DUP1 SWAP2 SUB SWAP1 REVERT JUMPDEST PUSH0 PUSH20 0xFFFFFFFFFFFFFFFFFFFFFFFFFFFFFFFFFFFFFFFF AND DUP2 PUSH20 0xFFFFFFFFFFFFFFFFFFFFFFFFFFFFFFFFFFFFFFFF AND SUB PUSH2 0x50C JUMPI PUSH1 0x40 MLOAD PUSH32 0x6BA9ECD800000000000000000000000000000000000000000000000000000000 DUP2 MSTORE PUSH1 0x4 ADD PUSH1 0x40 MLOAD DUP1 SWAP2 SUB SWAP1 REVERT JUMPDEST PUSH0 PUSH2 0x515 PUSH2 0x1203 JUMP JUMPDEST PUSH20 0xFFFFFFFFFFFFFFFFFFFFFFFFFFFFFFFFFFFFFFFF AND PUSH4 0x549E122B DUP5 PUSH1 0x40 MLOAD DUP3 PUSH4 0xFFFFFFFF AND PUSH1 0xE0 SHL DUP2 MSTORE PUSH1 0x4 ADD PUSH2 0x54D SWAP2 SWAP1 PUSH2 0x29EE JUMP JUMPDEST PUSH0 PUSH1 0x40 MLOAD DUP1 DUP4 SUB DUP2 DUP7 GAS STATICCALL ISZERO DUP1 ISZERO PUSH2 0x567 JUMPI RETURNDATASIZE PUSH0 PUSH0 RETURNDATACOPY RETURNDATASIZE PUSH0 REVERT JUMPDEST POP POP POP POP PUSH1 0x40 MLOAD RETURNDATASIZE PUSH0 DUP3 RETURNDATACOPY RETURNDATASIZE PUSH1 0x1F NOT PUSH1 0x1F DUP3 ADD AND DUP3 ADD DUP1 PUSH1 0x40 MSTORE POP DUP2 ADD SWAP1 PUSH2 0x58F SWAP2 SWAP1 PUSH2 0x2C65 JUMP JUMPDEST SWAP1 POP PUSH0 PUSH0 PUSH2 0x59C DUP6 PUSH2 0x1247 JUMP JUMPDEST SWAP2 POP SWAP2 POP PUSH0 PUSH2 0x5AA CALLVALUE PUSH2 0x132E JUMP JUMPDEST SWAP1 POP PUSH0 PUSH2 0x5B8 DUP8 DUP4 DUP7 PUSH2 0x1422 JUMP JUMPDEST SWAP1 POP PUSH2 0x5D8 DUP6 DUP4 DUP6 PUSH1 0x2 PUSH1 0x3 SWAP1 SLOAD SWAP1 PUSH2 0x100 EXP SWAP1 DIV PUSH4 0xFFFFFFFF AND PUSH2 0x165A JUMP JUMPDEST DUP4 PUSH20 0xFFFFFFFFFFFFFFFFFFFFFFFFFFFFFFFFFFFFFFFF AND PUSH4 0x40C10F19 DUP8 DUP4 PUSH1 0x40 MLOAD DUP4 PUSH4 0xFFFFFFFF AND PUSH1 0xE0 SHL DUP2 MSTORE PUSH1 0x4 ADD PUSH2 0x613 SWAP3 SWAP2 SWAP1 PUSH2 0x2CAC JUMP JUMPDEST PUSH0 PUSH1 0x40 MLOAD DUP1 DUP4 SUB DUP2 PUSH0 DUP8 DUP1 EXTCODESIZE ISZERO DUP1 ISZERO PUSH2 0x62A JUMPI PUSH0 PUSH0 REVERT JUMPDEST POP GAS CALL ISZERO DUP1 ISZERO PUSH2 0x63C JUMPI RETURNDATASIZE PUSH0 PUSH0 RETURNDATACOPY RETURNDATASIZE PUSH0 REVERT JUMPDEST POP POP POP POP PUSH2 0x648 PUSH2 0x17E9 JUMP JUMPDEST PUSH20 0xFFFFFFFFFFFFFFFFFFFFFFFFFFFFFFFFFFFFFFFF AND PUSH4 0x1626542C DUP9 DUP5 PUSH1 0x40 MLOAD DUP4 PUSH4 0xFFFFFFFF AND PUSH1 0xE0 SHL DUP2 MSTORE PUSH1 0x4 ADD PUSH2 0x682 SWAP3 SWAP2 SWAP1 PUSH2 0x2CD3 JUMP JUMPDEST PUSH0 PUSH1 0x40 MLOAD DUP1 DUP4 SUB DUP2 PUSH0 DUP8 DUP1 EXTCODESIZE ISZERO DUP1 ISZERO PUSH2 0x699 JUMPI PUSH0 PUSH0 REVERT JUMPDEST POP GAS CALL ISZERO DUP1 ISZERO PUSH2 0x6AB JUMPI RETURNDATASIZE PUSH0 PUSH0 RETURNDATACOPY RETURNDATASIZE PUSH0 REVERT JUMPDEST POP POP POP POP PUSH32 0x25959FC919F5956A2D9C36C2E42ED134F9AF2D978EA9D799AF08698538AC3A3F DUP8 CALLER DUP9 DUP5 DUP7 PUSH1 0x40 MLOAD PUSH2 0x6E6 SWAP6 SWAP5 SWAP4 SWAP3 SWAP2 SWAP1 PUSH2 0x2CFA JUMP JUMPDEST PUSH1 0x40 MLOAD DUP1 SWAP2 SUB SWAP1 LOG1 POP POP POP POP POP PUSH2 0x6FB PUSH2 0x182D JUMP JUMPDEST POP POP JUMP JUMPDEST PUSH1 0x2 PUSH0 SWAP1 SLOAD SWAP1 PUSH2 0x100 EXP SWAP1 DIV PUSH2 0xFFFF AND DUP2 JUMP JUMPDEST PUSH0 PUSH0 PUSH0 SWAP1 SLOAD SWAP1 PUSH2 0x100 EXP SWAP1 DIV PUSH20 0xFFFFFFFFFFFFFFFFFFFFFFFFFFFFFFFFFFFFFFFF AND PUSH20 0xFFFFFFFFFFFFFFFFFFFFFFFFFFFFFFFFFFFFFFFF AND PUSH4 0x27262618 DUP4 PUSH1 0x40 MLOAD DUP3 PUSH4 0xFFFFFFFF AND PUSH1 0xE0 SHL DUP2 MSTORE PUSH1 0x4 ADD PUSH2 0x76C SWAP2 SWAP1 PUSH2 0x2D8D JUMP JUMPDEST PUSH1 0x20 PUSH1 0x40 MLOAD DUP1 DUP4 SUB DUP2 DUP7 GAS STATICCALL ISZERO DUP1 ISZERO PUSH2 0x787 JUMPI RETURNDATASIZE PUSH0 PUSH0 RETURNDATACOPY RETURNDATASIZE PUSH0 REVERT JUMPDEST POP POP POP POP PUSH1 0x40 MLOAD RETURNDATASIZE PUSH1 0x1F NOT PUSH1 0x1F DUP3 ADD AND DUP3 ADD DUP1 PUSH1 0x40 MSTORE POP DUP2 ADD SWAP1 PUSH2 0x7AB SWAP2 SWAP1 PUSH2 0x28D4 JUMP JUMPDEST SWAP1 POP SWAP2 SWAP1 POP JUMP JUMPDEST PUSH0 PUSH0 SWAP1 SLOAD SWAP1 PUSH2 0x100 EXP SWAP1 DIV PUSH20 0xFFFFFFFFFFFFFFFFFFFFFFFFFFFFFFFFFFFFFFFF AND DUP2 JUMP JUMPDEST PUSH0 PUSH0 PUSH0 SWAP1 SLOAD SWAP1 PUSH2 0x100 EXP SWAP1 DIV PUSH20 0xFFFFFFFFFFFFFFFFFFFFFFFFFFFFFFFFFFFFFFFF AND PUSH20 0xFFFFFFFFFFFFFFFFFFFFFFFFFFFFFFFFFFFFFFFF AND PUSH4 0x8DA5CB5B PUSH1 0x40 MLOAD DUP2 PUSH4 0xFFFFFFFF AND PUSH1 0xE0 SHL DUP2 MSTORE PUSH1 0x4 ADD PUSH1 0x20 PUSH1 0x40 MLOAD DUP1 DUP4 SUB DUP2 DUP7 GAS STATICCALL ISZERO DUP1 ISZERO PUSH2 0x840 JUMPI RETURNDATASIZE PUSH0 PUSH0 RETURNDATACOPY RETURNDATASIZE PUSH0 REVERT JUMPDEST POP POP POP POP PUSH1 0x40 MLOAD RETURNDATASIZE PUSH1 0x1F NOT PUSH1 0x1F DUP3 ADD AND DUP3 ADD DUP1 PUSH1 0x40 MSTORE POP DUP2 ADD SWAP1 PUSH2 0x864 SWAP2 SWAP1 PUSH2 0x28D4 JUMP JUMPDEST SWAP1 POP SWAP1 JUMP JUMPDEST PUSH0 PUSH0 SWAP1 SLOAD SWAP1 PUSH2 0x100 EXP SWAP1 DIV PUSH20 0xFFFFFFFFFFFFFFFFFFFFFFFFFFFFFFFFFFFFFFFF AND PUSH20 0xFFFFFFFFFFFFFFFFFFFFFFFFFFFFFFFFFFFFFFFF AND PUSH4 0x8DA5CB5B PUSH1 0x40 MLOAD DUP2 PUSH4 0xFFFFFFFF AND PUSH1 0xE0 SHL DUP2 MSTORE PUSH1 0x4 ADD PUSH1 0x20 PUSH1 0x40 MLOAD DUP1 DUP4 SUB DUP2 DUP7 GAS STATICCALL ISZERO DUP1 ISZERO PUSH2 0x8D2 JUMPI RETURNDATASIZE PUSH0 PUSH0 RETURNDATACOPY RETURNDATASIZE PUSH0 REVERT JUMPDEST POP POP POP POP PUSH1 0x40 MLOAD RETURNDATASIZE PUSH1 0x1F NOT PUSH1 0x1F DUP3 ADD AND DUP3 ADD DUP1 PUSH1 0x40 MSTORE POP DUP2 ADD SWAP1 PUSH2 0x8F6 SWAP2 SWAP1 PUSH2 0x28D4 JUMP JUMPDEST PUSH20 0xFFFFFFFFFFFFFFFFFFFFFFFFFFFFFFFFFFFFFFFF AND CALLER PUSH20 0xFFFFFFFFFFFFFFFFFFFFFFFFFFFFFFFFFFFFFFFF AND EQ PUSH2 0x963 JUMPI PUSH1 0x40 MLOAD PUSH32 0x8C379A000000000000000000000000000000000000000000000000000000000 DUP2 MSTORE PUSH1 0x4 ADD PUSH2 0x95A SWAP1 PUSH2 0x2959 JUMP JUMPDEST PUSH1 0x40 MLOAD DUP1 SWAP2 SUB SWAP1 REVERT JUMPDEST DUP1 PUSH1 0x2 DUP1 PUSH2 0x100 EXP DUP2 SLOAD DUP2 PUSH1 0xFF MUL NOT AND SWAP1 DUP4 ISZERO ISZERO MUL OR SWAP1 SSTORE POP POP JUMP JUMPDEST PUSH0 PUSH0 SWAP1 SLOAD SWAP1 PUSH2 0x100 EXP SWAP1 DIV PUSH20 0xFFFFFFFFFFFFFFFFFFFFFFFFFFFFFFFFFFFFFFFF AND PUSH20 0xFFFFFFFFFFFFFFFFFFFFFFFFFFFFFFFFFFFFFFFF AND PUSH4 0x8DA5CB5B PUSH1 0x40 MLOAD DUP2 PUSH4 0xFFFFFFFF AND PUSH1 0xE0 SHL DUP2 MSTORE PUSH1 0x4 ADD PUSH1 0x20 PUSH1 0x40 MLOAD DUP1 DUP4 SUB DUP2 DUP7 GAS STATICCALL ISZERO DUP1 ISZERO PUSH2 0x9E8 JUMPI RETURNDATASIZE PUSH0 PUSH0 RETURNDATACOPY RETURNDATASIZE PUSH0 REVERT JUMPDEST POP POP POP POP PUSH1 0x40 MLOAD RETURNDATASIZE PUSH1 0x1F NOT PUSH1 0x1F DUP3 ADD AND DUP3 ADD DUP1 PUSH1 0x40 MSTORE POP DUP2 ADD SWAP1 PUSH2 0xA0C SWAP2 SWAP1 PUSH2 0x28D4 JUMP JUMPDEST PUSH20 0xFFFFFFFFFFFFFFFFFFFFFFFFFFFFFFFFFFFFFFFF AND CALLER PUSH20 0xFFFFFFFFFFFFFFFFFFFFFFFFFFFFFFFFFFFFFFFF AND EQ PUSH2 0xA79 JUMPI PUSH1 0x40 MLOAD PUSH32 0x8C379A000000000000000000000000000000000000000000000000000000000 DUP2 MSTORE PUSH1 0x4 ADD PUSH2 0xA70 SWAP1 PUSH2 0x2959 JUMP JUMPDEST PUSH1 0x40 MLOAD DUP1 SWAP2 SUB SWAP1 REVERT JUMPDEST PUSH1 0x2 DUP1 SLOAD SWAP1 PUSH2 0x100 EXP SWAP1 DIV PUSH1 0xFF AND PUSH2 0xAC6 JUMPI PUSH1 0x40 MLOAD PUSH32 0x8C379A000000000000000000000000000000000000000000000000000000000 DUP2 MSTORE PUSH1 0x4 ADD PUSH2 0xABD SWAP1 PUSH2 0x29C1 JUMP JUMPDEST PUSH1 0x40 MLOAD DUP1 SWAP2 SUB SWAP1 REVERT JUMPDEST PUSH2 0x2710 DUP2 PUSH2 0xFFFF AND GT ISZERO PUSH2 0xB06 JUMPI PUSH1 0x40 MLOAD PUSH32 0xDEAA01E600000000000000000000000000000000000000000000000000000000 DUP2 MSTORE PUSH1 0x4 ADD PUSH1 0x40 MLOAD DUP1 SWAP2 SUB SWAP1 REVERT JUMPDEST DUP1 PUSH1 0x2 PUSH0 PUSH2 0x100 EXP DUP2 SLOAD DUP2 PUSH2 0xFFFF MUL NOT AND SWAP1 DUP4 PUSH2 0xFFFF AND MUL OR SWAP1 SSTORE POP POP JUMP JUMPDEST PUSH0 PUSH0 SWAP1 SLOAD SWAP1 PUSH2 0x100 EXP SWAP1 DIV PUSH20 0xFFFFFFFFFFFFFFFFFFFFFFFFFFFFFFFFFFFFFFFF AND PUSH20 0xFFFFFFFFFFFFFFFFFFFFFFFFFFFFFFFFFFFFFFFF AND PUSH4 0x8DA5CB5B PUSH1 0x40 MLOAD DUP2 PUSH4 0xFFFFFFFF AND PUSH1 0xE0 SHL DUP2 MSTORE PUSH1 0x4 ADD PUSH1 0x20 PUSH1 0x40 MLOAD DUP1 DUP4 SUB DUP2 DUP7 GAS STATICCALL ISZERO DUP1 ISZERO PUSH2 0xB8E JUMPI RETURNDATASIZE PUSH0 PUSH0 RETURNDATACOPY RETURNDATASIZE PUSH0 REVERT JUMPDEST POP POP POP POP PUSH1 0x40 MLOAD RETURNDATASIZE PUSH1 0x1F NOT PUSH1 0x1F DUP3 ADD AND DUP3 ADD DUP1 PUSH1 0x40 MSTORE POP DUP2 ADD SWAP1 PUSH2 0xBB2 SWAP2 SWAP1 PUSH2 0x28D4 JUMP JUMPDEST PUSH20 0xFFFFFFFFFFFFFFFFFFFFFFFFFFFFFFFFFFFFFFFF AND CALLER PUSH20 0xFFFFFFFFFFFFFFFFFFFFFFFFFFFFFFFFFFFFFFFF AND EQ PUSH2 0xC1F JUMPI PUSH1 0x40 MLOAD PUSH32 0x8C379A000000000000000000000000000000000000000000000000000000000 DUP2 MSTORE PUSH1 0x4 ADD PUSH2 0xC16 SWAP1 PUSH2 0x2959 JUMP JUMPDEST PUSH1 0x40 MLOAD DUP1 SWAP2 SUB SWAP1 REVERT JUMPDEST PUSH2 0xC28 DUP2 PUSH2 0x1836 JUMP JUMPDEST POP JUMP JUMPDEST PUSH0 PUSH0 SWAP1 SLOAD SWAP1 PUSH2 0x100 EXP SWAP1 DIV PUSH20 0xFFFFFFFFFFFFFFFFFFFFFFFFFFFFFFFFFFFFFFFF AND PUSH20 0xFFFFFFFFFFFFFFFFFFFFFFFFFFFFFFFFFFFFFFFF AND PUSH4 0x8DA5CB5B PUSH1 0x40 MLOAD DUP2 PUSH4 0xFFFFFFFF AND PUSH1 0xE0 SHL DUP2 MSTORE PUSH1 0x4 ADD PUSH1 0x20 PUSH1 0x40 MLOAD DUP1 DUP4 SUB DUP2 DUP7 GAS STATICCALL ISZERO DUP1 ISZERO PUSH2 0xC94 JUMPI RETURNDATASIZE PUSH0 PUSH0 RETURNDATACOPY RETURNDATASIZE PUSH0 REVERT JUMPDEST POP POP POP POP PUSH1 0x40 MLOAD RETURNDATASIZE PUSH1 0x1F NOT PUSH1 0x1F DUP3 ADD AND DUP3 ADD DUP1 PUSH1 0x40 MSTORE POP DUP2 ADD SWAP1 PUSH2 0xCB8 SWAP2 SWAP1 PUSH2 0x28D4 JUMP JUMPDEST PUSH20 0xFFFFFFFFFFFFFFFFFFFFFFFFFFFFFFFFFFFFFFFF AND CALLER PUSH20 0xFFFFFFFFFFFFFFFFFFFFFFFFFFFFFFFFFFFFFFFF AND EQ PUSH2 0xD25 JUMPI PUSH1 0x40 MLOAD PUSH32 0x8C379A000000000000000000000000000000000000000000000000000000000 DUP2 MSTORE PUSH1 0x4 ADD PUSH2 0xD1C SWAP1 PUSH2 0x2959 JUMP JUMPDEST PUSH1 0x40 MLOAD DUP1 SWAP2 SUB SWAP1 REVERT JUMPDEST PUSH2 0x2710 DUP2 PUSH4 0xFFFFFFFF AND GT ISZERO PUSH2 0xD67 JUMPI PUSH1 0x40 MLOAD PUSH32 0xDEAA01E600000000000000000000000000000000000000000000000000000000 DUP2 MSTORE PUSH1 0x4 ADD PUSH1 0x40 MLOAD DUP1 SWAP2 SUB SWAP1 REVERT JUMPDEST DUP1 PUSH1 0x2 PUSH1 0x3 PUSH2 0x100 EXP DUP2 SLOAD DUP2 PUSH4 0xFFFFFFFF MUL NOT AND SWAP1 DUP4 PUSH4 0xFFFFFFFF AND MUL OR SWAP1 SSTORE POP POP JUMP JUMPDEST PUSH2 0xD93 PUSH2 0x11B4 JUMP JUMPDEST PUSH1 0x2 DUP1 SLOAD SWAP1 PUSH2 0x100 EXP SWAP1 DIV PUSH1 0xFF AND PUSH2 0xDE0 JUMPI PUSH1 0x40 MLOAD PUSH32 0x8C379A000000000000000000000000000000000000000000000000000000000 DUP2 MSTORE PUSH1 0x4 ADD PUSH2 0xDD7 SWAP1 PUSH2 0x29C1 JUMP JUMPDEST PUSH1 0x40 MLOAD DUP1 SWAP2 SUB SWAP1 REVERT JUMPDEST PUSH0 DUP3 SUB PUSH2 0xE19 JUMPI PUSH1 0x40 MLOAD PUSH32 0x790C8B3900000000000000000000000000000000000000000000000000000000 DUP2 MSTORE PUSH1 0x4 ADD PUSH1 0x40 MLOAD DUP1 SWAP2 SUB SWAP1 REVERT JUMPDEST PUSH0 PUSH20 0xFFFFFFFFFFFFFFFFFFFFFFFFFFFFFFFFFFFFFFFF AND DUP2 PUSH20 0xFFFFFFFFFFFFFFFFFFFFFFFFFFFFFFFFFFFFFFFF AND SUB PUSH2 0xE7E JUMPI PUSH1 0x40 MLOAD PUSH32 0x6BA9ECD800000000000000000000000000000000000000000000000000000000 DUP2 MSTORE PUSH1 0x4 ADD PUSH1 0x40 MLOAD DUP1 SWAP2 SUB SWAP1 REVERT JUMPDEST PUSH0 PUSH2 0xE87 PUSH2 0x1203 JUMP JUMPDEST PUSH20 0xFFFFFFFFFFFFFFFFFFFFFFFFFFFFFFFFFFFFFFFF AND PUSH4 0x549E122B DUP6 PUSH1 0x40 MLOAD DUP3 PUSH4 0xFFFFFFFF AND PUSH1 0xE0 SHL DUP2 MSTORE PUSH1 0x4 ADD PUSH2 0xEBF SWAP2 SWAP1 PUSH2 0x29EE JUMP JUMPDEST PUSH0 PUSH1 0x40 MLOAD DUP1 DUP4 SUB DUP2 DUP7 GAS STATICCALL ISZERO DUP1 ISZERO PUSH2 0xED9 JUMPI RETURNDATASIZE PUSH0 PUSH0 RETURNDATACOPY RETURNDATASIZE PUSH0 REVERT JUMPDEST POP POP POP POP PUSH1 0x40 MLOAD RETURNDATASIZE PUSH0 DUP3 RETURNDATACOPY RETURNDATASIZE PUSH1 0x1F NOT PUSH1 0x1F DUP3 ADD AND DUP3 ADD DUP1 PUSH1 0x40 MSTORE POP DUP2 ADD SWAP1 PUSH2 0xF01 SWAP2 SWAP1 PUSH2 0x2C65 JUMP JUMPDEST SWAP1 POP PUSH0 PUSH0 PUSH2 0xF0E DUP7 PUSH2 0x1247 JUMP JUMPDEST SWAP2 POP SWAP2 POP PUSH0 DUP3 PUSH20 0xFFFFFFFFFFFFFFFFFFFFFFFFFFFFFFFFFFFFFFFF AND PUSH4 0x18160DDD PUSH1 0x40 MLOAD DUP2 PUSH4 0xFFFFFFFF AND PUSH1 0xE0 SHL DUP2 MSTORE PUSH1 0x4 ADD PUSH1 0x20 PUSH1 0x40 MLOAD DUP1 DUP4 SUB DUP2 DUP7 GAS STATICCALL ISZERO DUP1 ISZERO PUSH2 0xF5C JUMPI RETURNDATASIZE PUSH0 PUSH0 RETURNDATACOPY RETURNDATASIZE PUSH0 REVERT JUMPDEST POP POP POP POP PUSH1 0x40 MLOAD RETURNDATASIZE PUSH1 0x1F NOT PUSH1 0x1F DUP3 ADD AND DUP3 ADD DUP1 PUSH1 0x40 MSTORE POP DUP2 ADD SWAP1 PUSH2 0xF80 SWAP2 SWAP1 PUSH2 0x2DC1 JUMP JUMPDEST SWAP1 POP PUSH0 DUP2 SUB PUSH2 0xFBB JUMPI PUSH1 0x40 MLOAD PUSH32 0x9FBBA64F00000000000000000000000000000000000000000000000000000000 DUP2 MSTORE PUSH1 0x4 ADD PUSH1 0x40 MLOAD DUP1 SWAP2 SUB SWAP1 REVERT JUMPDEST DUP1 DUP7 GT ISZERO PUSH2 0xFF5 JUMPI PUSH1 0x40 MLOAD PUSH32 0xDF69062500000000000000000000000000000000000000000000000000000000 DUP2 MSTORE PUSH1 0x4 ADD PUSH1 0x40 MLOAD DUP1 SWAP2 SUB SWAP1 REVERT JUMPDEST DUP3 PUSH20 0xFFFFFFFFFFFFFFFFFFFFFFFFFFFFFFFFFFFFFFFF AND PUSH4 0x9DC29FAC CALLER DUP9 PUSH1 0x40 MLOAD DUP4 PUSH4 0xFFFFFFFF AND PUSH1 0xE0 SHL DUP2 MSTORE PUSH1 0x4 ADD PUSH2 0x1030 SWAP3 SWAP2 SWAP1 PUSH2 0x2CAC JUMP JUMPDEST PUSH0 PUSH1 0x40 MLOAD DUP1 DUP4 SUB DUP2 PUSH0 DUP8 DUP1 EXTCODESIZE ISZERO DUP1 ISZERO PUSH2 0x1047 JUMPI PUSH0 PUSH0 REVERT JUMPDEST POP GAS CALL ISZERO DUP1 ISZERO PUSH2 0x1059 JUMPI RETURNDATASIZE PUSH0 PUSH0 RETURNDATACOPY RETURNDATASIZE PUSH0 REVERT JUMPDEST POP POP POP POP PUSH0 SELFBALANCE SWAP1 POP PUSH2 0x1081 DUP6 DUP9 DUP5 DUP7 ADDRESS PUSH1 0x2 PUSH1 0x3 SWAP1 SLOAD SWAP1 PUSH2 0x100 EXP SWAP1 DIV PUSH4 0xFFFFFFFF AND PUSH2 0x19E7 JUMP JUMPDEST PUSH0 SELFBALANCE SWAP1 POP PUSH0 DUP3 DUP3 PUSH2 0x1092 SWAP2 SWAP1 PUSH2 0x2E19 JUMP JUMPDEST SWAP1 POP PUSH0 DUP2 SUB PUSH2 0x10CD JUMPI PUSH1 0x40 MLOAD PUSH32 0x790C8B3900000000000000000000000000000000000000000000000000000000 DUP2 MSTORE PUSH1 0x4 ADD PUSH1 0x40 MLOAD DUP1 SWAP2 SUB SWAP1 REVERT JUMPDEST PUSH0 PUSH2 0x10D7 DUP3 PUSH2 0x132E JUMP JUMPDEST SWAP1 POP PUSH2 0x10E3 DUP10 DUP3 PUSH2 0x1D78 JUMP JUMPDEST PUSH2 0x10EB PUSH2 0x17E9 JUMP JUMPDEST PUSH20 0xFFFFFFFFFFFFFFFFFFFFFFFFFFFFFFFFFFFFFFFF AND PUSH4 0x1626542C DUP13 DUP4 PUSH1 0x40 MLOAD DUP4 PUSH4 0xFFFFFFFF AND PUSH1 0xE0 SHL DUP2 MSTORE PUSH1 0x4 ADD PUSH2 0x1125 SWAP3 SWAP2 SWAP1 PUSH2 0x2CD3 JUMP JUMPDEST PUSH0 PUSH1 0x40 MLOAD DUP1 DUP4 SUB DUP2 PUSH0 DUP8 DUP1 EXTCODESIZE ISZERO DUP1 ISZERO PUSH2 0x113C JUMPI PUSH0 PUSH0 REVERT JUMPDEST POP GAS CALL ISZERO DUP1 ISZERO PUSH2 0x114E JUMPI RETURNDATASIZE PUSH0 PUSH0 RETURNDATACOPY RETURNDATASIZE PUSH0 REVERT JUMPDEST POP POP POP POP PUSH32 0x658F1EB57C83D50DB011863E074E65F706D0F4A2123171054A851B6AC829394F DUP12 CALLER DUP12 DUP14 DUP6 PUSH1 0x40 MLOAD PUSH2 0x1189 SWAP6 SWAP5 SWAP4 SWAP3 SWAP2 SWAP1 PUSH2 0x2E6C JUMP JUMPDEST PUSH1 0x40 MLOAD DUP1 SWAP2 SUB SWAP1 LOG1 POP POP POP POP POP POP POP POP PUSH2 0x11A1 PUSH2 0x182D JUMP JUMPDEST POP POP POP JUMP JUMPDEST PUSH2 0x11B0 DUP3 DUP3 PUSH2 0x1E8F JUMP JUMPDEST POP POP JUMP JUMPDEST PUSH1 0x2 PUSH1 0x1 SLOAD SUB PUSH2 0x11F9 JUMPI PUSH1 0x40 MLOAD PUSH32 0x8C379A000000000000000000000000000000000000000000000000000000000 DUP2 MSTORE PUSH1 0x4 ADD PUSH2 0x11F0 SWAP1 PUSH2 0x2F07 JUMP JUMPDEST PUSH1 0x40 MLOAD DUP1 SWAP2 SUB SWAP1 REVERT JUMPDEST PUSH1 0x2 PUSH1 0x1 DUP2 SWAP1 SSTORE POP JUMP JUMPDEST PUSH0 PUSH2 0x1242 PUSH1 0x40 MLOAD DUP1 PUSH1 0x40 ADD PUSH1 0x40 MSTORE DUP1 PUSH1 0xD DUP2 MSTORE PUSH1 0x20 ADD PUSH32 0x696E6465782D666163746F727900000000000000000000000000000000000000 DUP2 MSTORE POP PUSH2 0x712 JUMP JUMPDEST SWAP1 POP SWAP1 JUMP JUMPDEST PUSH0 PUSH0 PUSH2 0x1252 DUP4 PUSH2 0x1F66 JUMP JUMPDEST SWAP2 POP PUSH2 0x125D DUP4 PUSH2 0x1FED JUMP JUMPDEST SWAP1 POP PUSH0 PUSH20 0xFFFFFFFFFFFFFFFFFFFFFFFFFFFFFFFFFFFFFFFF AND DUP3 PUSH20 0xFFFFFFFFFFFFFFFFFFFFFFFFFFFFFFFFFFFFFFFF AND SUB PUSH2 0x12C4 JUMPI PUSH1 0x40 MLOAD PUSH32 0x6BA9ECD800000000000000000000000000000000000000000000000000000000 DUP2 MSTORE PUSH1 0x4 ADD PUSH1 0x40 MLOAD DUP1 SWAP2 SUB SWAP1 REVERT JUMPDEST PUSH0 PUSH20 0xFFFFFFFFFFFFFFFFFFFFFFFFFFFFFFFFFFFFFFFF AND DUP2 PUSH20 0xFFFFFFFFFFFFFFFFFFFFFFFFFFFFFFFFFFFFFFFF AND SUB PUSH2 0x1329 JUMPI PUSH1 0x40 MLOAD PUSH32 0x6BA9ECD800000000000000000000000000000000000000000000000000000000 DUP2 MSTORE PUSH1 0x4 ADD PUSH1 0x40 MLOAD DUP1 SWAP2 SUB SWAP1 REVERT JUMPDEST SWAP2 POP SWAP2 JUMP JUMPDEST PUSH0 PUSH0 PUSH2 0x136E PUSH1 0x40 MLOAD DUP1 PUSH1 0x40 ADD PUSH1 0x40 MSTORE DUP1 PUSH1 0x5 DUP2 MSTORE PUSH1 0x20 ADD PUSH32 0x7661756C74000000000000000000000000000000000000000000000000000000 DUP2 MSTORE POP PUSH2 0x712 JUMP JUMPDEST SWAP1 POP PUSH0 PUSH1 0x2 PUSH0 SWAP1 SLOAD SWAP1 PUSH2 0x100 EXP SWAP1 DIV PUSH2 0xFFFF AND SWAP1 POP PUSH0 PUSH20 0xFFFFFFFFFFFFFFFFFFFFFFFFFFFFFFFFFFFFFFFF AND DUP3 PUSH20 0xFFFFFFFFFFFFFFFFFFFFFFFFFFFFFFFFFFFFFFFF AND EQ DUP1 PUSH2 0x13C0 JUMPI POP PUSH0 DUP2 PUSH2 0xFFFF AND EQ JUMPDEST ISZERO PUSH2 0x13CF JUMPI DUP4 SWAP3 POP POP POP PUSH2 0x141D JUMP JUMPDEST PUSH0 PUSH2 0x2710 DUP3 PUSH2 0xFFFF AND DUP7 PUSH2 0x13E3 SWAP2 SWAP1 PUSH2 0x2F25 JUMP JUMPDEST PUSH2 0x13ED SWAP2 SWAP1 PUSH2 0x2F93 JUMP JUMPDEST SWAP1 POP PUSH0 DUP2 EQ PUSH2 0x1416 JUMPI PUSH2 0x1400 DUP4 DUP3 PUSH2 0x1D78 JUMP JUMPDEST DUP1 DUP6 PUSH2 0x140C SWAP2 SWAP1 PUSH2 0x2E19 JUMP JUMPDEST SWAP4 POP POP POP POP PUSH2 0x141D JUMP JUMPDEST DUP5 SWAP4 POP POP POP POP JUMPDEST SWAP2 SWAP1 POP JUMP JUMPDEST PUSH0 PUSH0 DUP3 PUSH20 0xFFFFFFFFFFFFFFFFFFFFFFFFFFFFFFFFFFFFFFFF AND PUSH4 0x18160DDD PUSH1 0x40 MLOAD DUP2 PUSH4 0xFFFFFFFF AND PUSH1 0xE0 SHL DUP2 MSTORE PUSH1 0x4 ADD PUSH1 0x20 PUSH1 0x40 MLOAD DUP1 DUP4 SUB DUP2 DUP7 GAS STATICCALL ISZERO DUP1 ISZERO PUSH2 0x146D JUMPI RETURNDATASIZE PUSH0 PUSH0 RETURNDATACOPY RETURNDATASIZE PUSH0 REVERT JUMPDEST POP POP POP POP PUSH1 0x40 MLOAD RETURNDATASIZE PUSH1 0x1F NOT PUSH1 0x1F DUP3 ADD AND DUP3 ADD DUP1 PUSH1 0x40 MSTORE POP DUP2 ADD SWAP1 PUSH2 0x1491 SWAP2 SWAP1 PUSH2 0x2DC1 JUMP JUMPDEST SWAP1 POP PUSH0 DUP2 SUB PUSH2 0x157C JUMPI PUSH0 PUSH2 0x14A3 PUSH2 0x2074 JUMP JUMPDEST PUSH20 0xFFFFFFFFFFFFFFFFFFFFFFFFFFFFFFFFFFFFFFFF AND PUSH4 0xC9D54FA7 DUP8 PUSH1 0x40 MLOAD DUP3 PUSH4 0xFFFFFFFF AND PUSH1 0xE0 SHL DUP2 MSTORE PUSH1 0x4 ADD PUSH2 0x14DB SWAP2 SWAP1 PUSH2 0x29EE JUMP JUMPDEST PUSH1 0x20 PUSH1 0x40 MLOAD DUP1 DUP4 SUB DUP2 DUP7 GAS STATICCALL ISZERO DUP1 ISZERO PUSH2 0x14F6 JUMPI RETURNDATASIZE PUSH0 PUSH0 RETURNDATACOPY RETURNDATASIZE PUSH0 REVERT JUMPDEST POP POP POP POP PUSH1 0x40 MLOAD RETURNDATASIZE PUSH1 0x1F NOT PUSH1 0x1F DUP3 ADD AND DUP3 ADD DUP1 PUSH1 0x40 MSTORE POP DUP2 ADD SWAP1 PUSH2 0x151A SWAP2 SWAP1 PUSH2 0x2DC1 JUMP JUMPDEST SWAP1 POP PUSH0 DUP2 SUB PUSH2 0x1555 JUMPI PUSH1 0x40 MLOAD PUSH32 0x75F308B500000000000000000000000000000000000000000000000000000000 DUP2 MSTORE PUSH1 0x4 ADD PUSH1 0x40 MLOAD DUP1 SWAP2 SUB SWAP1 REVERT JUMPDEST DUP1 PUSH8 0xDE0B6B3A7640000 DUP7 PUSH2 0x156A SWAP2 SWAP1 PUSH2 0x2F25 JUMP JUMPDEST PUSH2 0x1574 SWAP2 SWAP1 PUSH2 0x2F93 JUMP JUMPDEST SWAP3 POP POP PUSH2 0x1652 JUMP JUMPDEST PUSH0 PUSH2 0x1585 PUSH2 0x17E9 JUMP JUMPDEST PUSH20 0xFFFFFFFFFFFFFFFFFFFFFFFFFFFFFFFFFFFFFFFF AND PUSH4 0xE4B603B3 DUP8 PUSH1 0x40 MLOAD DUP3 PUSH4 0xFFFFFFFF AND PUSH1 0xE0 SHL DUP2 MSTORE PUSH1 0x4 ADD PUSH2 0x15BD SWAP2 SWAP1 PUSH2 0x29EE JUMP JUMPDEST PUSH1 0x20 PUSH1 0x40 MLOAD DUP1 DUP4 SUB DUP2 DUP7 GAS STATICCALL ISZERO DUP1 ISZERO PUSH2 0x15D8 JUMPI RETURNDATASIZE PUSH0 PUSH0 RETURNDATACOPY RETURNDATASIZE PUSH0 REVERT JUMPDEST POP POP POP POP PUSH1 0x40 MLOAD RETURNDATASIZE PUSH1 0x1F NOT PUSH1 0x1F DUP3 ADD AND DUP3 ADD DUP1 PUSH1 0x40 MSTORE POP DUP2 ADD SWAP1 PUSH2 0x15FC SWAP2 SWAP1 PUSH2 0x2DC1 JUMP JUMPDEST SWAP1 POP PUSH0 DUP2 SUB PUSH2 0x1637 JUMPI PUSH1 0x40 MLOAD PUSH32 0x4178056200000000000000000000000000000000000000000000000000000000 DUP2 MSTORE PUSH1 0x4 ADD PUSH1 0x40 MLOAD DUP1 SWAP2 SUB SWAP1 REVERT JUMPDEST DUP1 DUP3 DUP7 PUSH2 0x1644 SWAP2 SWAP1 PUSH2 0x2F25 JUMP JUMPDEST PUSH2 0x164E SWAP2 SWAP1 PUSH2 0x2F93 JUMP JUMPDEST SWAP3 POP POP JUMPDEST POP SWAP4 SWAP3 POP POP POP JUMP JUMPDEST PUSH0 DUP5 PUSH1 0x40 ADD MLOAD MLOAD SWAP1 POP PUSH0 DUP2 SUB PUSH2 0x1670 JUMPI POP PUSH2 0x17E3 JUMP JUMPDEST PUSH0 DUP2 PUSH8 0xFFFFFFFFFFFFFFFF DUP2 GT ISZERO PUSH2 0x168B JUMPI PUSH2 0x168A PUSH2 0x2504 JUMP JUMPDEST JUMPDEST PUSH1 0x40 MLOAD SWAP1 DUP1 DUP3 MSTORE DUP1 PUSH1 0x20 MUL PUSH1 0x20 ADD DUP3 ADD PUSH1 0x40 MSTORE DUP1 ISZERO PUSH2 0x16C4 JUMPI DUP2 PUSH1 0x20 ADD JUMPDEST PUSH2 0x16B1 PUSH2 0x22D3 JUMP JUMPDEST DUP2 MSTORE PUSH1 0x20 ADD SWAP1 PUSH1 0x1 SWAP1 SUB SWAP1 DUP2 PUSH2 0x16A9 JUMPI SWAP1 POP JUMPDEST POP SWAP1 POP PUSH0 JUMPDEST DUP3 DUP2 LT ISZERO PUSH2 0x176C JUMPI PUSH1 0x40 MLOAD DUP1 PUSH1 0x40 ADD PUSH1 0x40 MSTORE DUP1 DUP9 PUSH1 0x40 ADD MLOAD DUP4 DUP2 MLOAD DUP2 LT PUSH2 0x16F3 JUMPI PUSH2 0x16F2 PUSH2 0x2FC3 JUMP JUMPDEST JUMPDEST PUSH1 0x20 MUL PUSH1 0x20 ADD ADD MLOAD PUSH0 ADD MLOAD PUSH20 0xFFFFFFFFFFFFFFFFFFFFFFFFFFFFFFFFFFFFFFFF AND DUP2 MSTORE PUSH1 0x20 ADD DUP9 PUSH1 0x40 ADD MLOAD DUP4 DUP2 MLOAD DUP2 LT PUSH2 0x1730 JUMPI PUSH2 0x172F PUSH2 0x2FC3 JUMP JUMPDEST JUMPDEST PUSH1 0x20 MUL PUSH1 0x20 ADD ADD MLOAD PUSH1 0x20 ADD MLOAD PUSH2 0xFFFF AND DUP2 MSTORE POP DUP3 DUP3 DUP2 MLOAD DUP2 LT PUSH2 0x1756 JUMPI PUSH2 0x1755 PUSH2 0x2FC3 JUMP JUMPDEST JUMPDEST PUSH1 0x20 MUL PUSH1 0x20 ADD ADD DUP2 SWAP1 MSTORE POP DUP1 PUSH1 0x1 ADD SWAP1 POP PUSH2 0x16C9 JUMP JUMPDEST POP PUSH2 0x1775 PUSH2 0x20B8 JUMP JUMPDEST PUSH20 0xFFFFFFFFFFFFFFFFFFFFFFFFFFFFFFFFFFFFFFFF AND PUSH4 0x1623306B DUP7 DUP4 DUP8 DUP8 PUSH1 0x40 MLOAD DUP6 PUSH4 0xFFFFFFFF AND PUSH1 0xE0 SHL DUP2 MSTORE PUSH1 0x4 ADD PUSH2 0x17B2 SWAP4 SWAP3 SWAP2 SWAP1 PUSH2 0x30E3 JUMP JUMPDEST PUSH0 PUSH1 0x40 MLOAD DUP1 DUP4 SUB DUP2 DUP6 DUP9 DUP1 EXTCODESIZE ISZERO DUP1 ISZERO PUSH2 0x17C9 JUMPI PUSH0 PUSH0 REVERT JUMPDEST POP GAS CALL ISZERO DUP1 ISZERO PUSH2 0x17DB JUMPI RETURNDATASIZE PUSH0 PUSH0 RETURNDATACOPY RETURNDATASIZE PUSH0 REVERT JUMPDEST POP POP POP POP POP POP POP JUMPDEST POP POP POP POP JUMP JUMPDEST PUSH0 PUSH2 0x1828 PUSH1 0x40 MLOAD DUP1 PUSH1 0x40 ADD PUSH1 0x40 MSTORE DUP1 PUSH1 0xB DUP2 MSTORE PUSH1 0x20 ADD PUSH32 0x6574662D666163746F7279000000000000000000000000000000000000000000 DUP2 MSTORE POP PUSH2 0x712 JUMP JUMPDEST SWAP1 POP SWAP1 JUMP JUMPDEST PUSH1 0x1 DUP1 DUP2 SWAP1 SSTORE POP JUMP JUMPDEST PUSH0 PUSH20 0xFFFFFFFFFFFFFFFFFFFFFFFFFFFFFFFFFFFFFFFF AND DUP2 PUSH20 0xFFFFFFFFFFFFFFFFFFFFFFFFFFFFFFFFFFFFFFFF AND SUB PUSH2 0x18A4 JUMPI PUSH1 0x40 MLOAD PUSH32 0x8C379A000000000000000000000000000000000000000000000000000000000 DUP2 MSTORE PUSH1 0x4 ADD PUSH2 0x189B SWAP1 PUSH2 0x3169 JUMP JUMPDEST PUSH1 0x40 MLOAD DUP1 SWAP2 SUB SWAP1 REVERT JUMPDEST PUSH0 DUP2 PUSH20 0xFFFFFFFFFFFFFFFFFFFFFFFFFFFFFFFFFFFFFFFF AND EXTCODESIZE GT PUSH2 0x18FD JUMPI PUSH1 0x40 MLOAD PUSH32 0x8C379A000000000000000000000000000000000000000000000000000000000 DUP2 MSTORE PUSH1 0x4 ADD PUSH2 0x18F4 SWAP1 PUSH2 0x31D1 JUMP JUMPDEST PUSH1 0x40 MLOAD DUP1 SWAP2 SUB SWAP1 REVERT JUMPDEST DUP1 PUSH20 0xFFFFFFFFFFFFFFFFFFFFFFFFFFFFFFFFFFFFFFFF AND PUSH4 0x8DA5CB5B PUSH1 0x40 MLOAD DUP2 PUSH4 0xFFFFFFFF AND PUSH1 0xE0 SHL DUP2 MSTORE PUSH1 0x4 ADD PUSH1 0x20 PUSH1 0x40 MLOAD DUP1 DUP4 SUB DUP2 DUP7 GAS STATICCALL SWAP3 POP POP POP DUP1 ISZERO PUSH2 0x1965 JUMPI POP PUSH1 0x40 MLOAD RETURNDATASIZE PUSH1 0x1F NOT PUSH1 0x1F DUP3 ADD AND DUP3 ADD DUP1 PUSH1 0x40 MSTORE POP DUP2 ADD SWAP1 PUSH2 0x1962 SWAP2 SWAP1 PUSH2 0x28D4 JUMP JUMPDEST PUSH1 0x1 JUMPDEST PUSH2 0x19A4 JUMPI PUSH1 0x40 MLOAD PUSH32 0x8C379A000000000000000000000000000000000000000000000000000000000 DUP2 MSTORE PUSH1 0x4 ADD PUSH2 0x199B SWAP1 PUSH2 0x325F JUMP JUMPDEST PUSH1 0x40 MLOAD DUP1 SWAP2 SUB SWAP1 REVERT JUMPDEST DUP2 PUSH0 PUSH0 PUSH2 0x100 EXP DUP2 SLOAD DUP2 PUSH20 0xFFFFFFFFFFFFFFFFFFFFFFFFFFFFFFFFFFFFFFFF MUL NOT AND SWAP1 DUP4 PUSH20 0xFFFFFFFFFFFFFFFFFFFFFFFFFFFFFFFFFFFFFFFF AND MUL OR SWAP1 SSTORE POP POP POP JUMP JUMPDEST PUSH0 DUP7 PUSH1 0x40 ADD MLOAD MLOAD SWAP1 POP PUSH0 DUP2 PUSH8 0xFFFFFFFFFFFFFFFF DUP2 GT ISZERO PUSH2 0x1A0B JUMPI PUSH2 0x1A0A PUSH2 0x2504 JUMP JUMPDEST JUMPDEST PUSH1 0x40 MLOAD SWAP1 DUP1 DUP3 MSTORE DUP1 PUSH1 0x20 MUL PUSH1 0x20 ADD DUP3 ADD PUSH1 0x40 MSTORE DUP1 ISZERO PUSH2 0x1A39 JUMPI DUP2 PUSH1 0x20 ADD PUSH1 0x20 DUP3 MUL DUP1 CALLDATASIZE DUP4 CALLDATACOPY DUP1 DUP3 ADD SWAP2 POP POP SWAP1 POP JUMPDEST POP SWAP1 POP PUSH0 PUSH0 JUMPDEST DUP4 DUP2 LT ISZERO PUSH2 0x1B39 JUMPI PUSH0 DUP11 PUSH1 0x40 ADD MLOAD DUP3 DUP2 MLOAD DUP2 LT PUSH2 0x1A5F JUMPI PUSH2 0x1A5E PUSH2 0x2FC3 JUMP JUMPDEST JUMPDEST PUSH1 0x20 MUL PUSH1 0x20 ADD ADD MLOAD PUSH0 ADD MLOAD SWAP1 POP PUSH0 DUP2 PUSH20 0xFFFFFFFFFFFFFFFFFFFFFFFFFFFFFFFFFFFFFFFF AND PUSH4 0x70A08231 DUP11 PUSH1 0x40 MLOAD DUP3 PUSH4 0xFFFFFFFF AND PUSH1 0xE0 SHL DUP2 MSTORE PUSH1 0x4 ADD PUSH2 0x1AA6 SWAP2 SWAP1 PUSH2 0x267E JUMP JUMPDEST PUSH1 0x20 PUSH1 0x40 MLOAD DUP1 DUP4 SUB DUP2 DUP7 GAS STATICCALL ISZERO DUP1 ISZERO PUSH2 0x1AC1 JUMPI RETURNDATASIZE PUSH0 PUSH0 RETURNDATACOPY RETURNDATASIZE PUSH0 REVERT JUMPDEST POP POP POP POP PUSH1 0x40 MLOAD RETURNDATASIZE PUSH1 0x1F NOT PUSH1 0x1F DUP3 ADD AND DUP3 ADD DUP1 PUSH1 0x40 MSTORE POP DUP2 ADD SWAP1 PUSH2 0x1AE5 SWAP2 SWAP1 PUSH2 0x2DC1 JUMP JUMPDEST SWAP1 POP PUSH0 DUP11 DUP13 DUP4 MUL DUP2 PUSH2 0x1AFA JUMPI PUSH2 0x1AF9 PUSH2 0x2F66 JUMP JUMPDEST JUMPDEST DIV SWAP1 POP DUP1 DUP7 DUP6 DUP2 MLOAD DUP2 LT PUSH2 0x1B11 JUMPI PUSH2 0x1B10 PUSH2 0x2FC3 JUMP JUMPDEST JUMPDEST PUSH1 0x20 MUL PUSH1 0x20 ADD ADD DUP2 DUP2 MSTORE POP POP PUSH0 DUP2 EQ PUSH2 0x1B2B JUMPI DUP5 PUSH1 0x1 ADD SWAP5 POP JUMPDEST POP POP POP DUP1 PUSH1 0x1 ADD SWAP1 POP PUSH2 0x1A3F JUMP JUMPDEST POP PUSH0 DUP2 SUB PUSH2 0x1B73 JUMPI PUSH1 0x40 MLOAD PUSH32 0xD0D04F6000000000000000000000000000000000000000000000000000000000 DUP2 MSTORE PUSH1 0x4 ADD PUSH1 0x40 MLOAD DUP1 SWAP2 SUB SWAP1 REVERT JUMPDEST PUSH0 PUSH2 0x1B7C PUSH2 0x20B8 JUMP JUMPDEST SWAP1 POP PUSH0 DUP2 SWAP1 POP PUSH0 DUP4 PUSH8 0xFFFFFFFFFFFFFFFF DUP2 GT ISZERO PUSH2 0x1B9D JUMPI PUSH2 0x1B9C PUSH2 0x2504 JUMP JUMPDEST JUMPDEST PUSH1 0x40 MLOAD SWAP1 DUP1 DUP3 MSTORE DUP1 PUSH1 0x20 MUL PUSH1 0x20 ADD DUP3 ADD PUSH1 0x40 MSTORE DUP1 ISZERO PUSH2 0x1BD6 JUMPI DUP2 PUSH1 0x20 ADD JUMPDEST PUSH2 0x1BC3 PUSH2 0x2305 JUMP JUMPDEST DUP2 MSTORE PUSH1 0x20 ADD SWAP1 PUSH1 0x1 SWAP1 SUB SWAP1 DUP2 PUSH2 0x1BBB JUMPI SWAP1 POP JUMPDEST POP SWAP1 POP PUSH0 PUSH0 JUMPDEST DUP8 DUP2 LT ISZERO PUSH2 0x1CFB JUMPI PUSH0 DUP8 DUP3 DUP2 MLOAD DUP2 LT PUSH2 0x1BF8 JUMPI PUSH2 0x1BF7 PUSH2 0x2FC3 JUMP JUMPDEST JUMPDEST PUSH1 0x20 MUL PUSH1 0x20 ADD ADD MLOAD SWAP1 POP PUSH0 DUP2 SUB PUSH2 0x1C0F JUMPI POP PUSH2 0x1CF0 JUMP JUMPDEST PUSH0 DUP16 PUSH1 0x40 ADD MLOAD DUP4 DUP2 MLOAD DUP2 LT PUSH2 0x1C27 JUMPI PUSH2 0x1C26 PUSH2 0x2FC3 JUMP JUMPDEST JUMPDEST PUSH1 0x20 MUL PUSH1 0x20 ADD ADD MLOAD PUSH0 ADD MLOAD SWAP1 POP DUP13 PUSH20 0xFFFFFFFFFFFFFFFFFFFFFFFFFFFFFFFFFFFFFFFF AND PUSH4 0x5C833BFD DUP3 DUP5 DUP10 PUSH1 0x40 MLOAD DUP5 PUSH4 0xFFFFFFFF AND PUSH1 0xE0 SHL DUP2 MSTORE PUSH1 0x4 ADD PUSH2 0x1C71 SWAP4 SWAP3 SWAP2 SWAP1 PUSH2 0x327D JUMP JUMPDEST PUSH0 PUSH1 0x40 MLOAD DUP1 DUP4 SUB DUP2 PUSH0 DUP8 DUP1 EXTCODESIZE ISZERO DUP1 ISZERO PUSH2 0x1C88 JUMPI PUSH0 PUSH0 REVERT JUMPDEST POP GAS CALL ISZERO DUP1 ISZERO PUSH2 0x1C9A JUMPI RETURNDATASIZE PUSH0 PUSH0 RETURNDATACOPY RETURNDATASIZE PUSH0 REVERT JUMPDEST POP POP POP POP PUSH1 0x40 MLOAD DUP1 PUSH1 0x40 ADD PUSH1 0x40 MSTORE DUP1 DUP3 PUSH20 0xFFFFFFFFFFFFFFFFFFFFFFFFFFFFFFFFFFFFFFFF AND DUP2 MSTORE PUSH1 0x20 ADD DUP4 DUP2 MSTORE POP DUP6 DUP6 DUP1 PUSH1 0x1 ADD SWAP7 POP DUP2 MLOAD DUP2 LT PUSH2 0x1CE2 JUMPI PUSH2 0x1CE1 PUSH2 0x2FC3 JUMP JUMPDEST JUMPDEST PUSH1 0x20 MUL PUSH1 0x20 ADD ADD DUP2 SWAP1 MSTORE POP POP POP JUMPDEST DUP1 PUSH1 0x1 ADD SWAP1 POP PUSH2 0x1BDC JUMP JUMPDEST POP DUP4 PUSH20 0xFFFFFFFFFFFFFFFFFFFFFFFFFFFFFFFFFFFFFFFF AND PUSH4 0x3814BC6E DUP4 DUP12 DUP12 PUSH1 0x1 PUSH1 0x40 MLOAD DUP6 PUSH4 0xFFFFFFFF AND PUSH1 0xE0 SHL DUP2 MSTORE PUSH1 0x4 ADD PUSH2 0x1D3C SWAP5 SWAP4 SWAP3 SWAP2 SWAP1 PUSH2 0x33A5 JUMP JUMPDEST PUSH0 PUSH1 0x40 MLOAD DUP1 DUP4 SUB DUP2 PUSH0 DUP8 DUP1 EXTCODESIZE ISZERO DUP1 ISZERO PUSH2 0x1D53 JUMPI PUSH0 PUSH0 REVERT JUMPDEST POP GAS CALL ISZERO DUP1 ISZERO PUSH2 0x1D65 JUMPI RETURNDATASIZE PUSH0 PUSH0 RETURNDATACOPY RETURNDATASIZE PUSH0 REVERT JUMPDEST POP POP POP POP POP POP POP POP POP POP POP POP POP POP POP POP POP JUMP JUMPDEST PUSH0 DUP2 SUB PUSH2 0x1DB1 JUMPI PUSH1 0x40 MLOAD PUSH32 0x1F2A200500000000000000000000000000000000000000000000000000000000 DUP2 MSTORE PUSH1 0x4 ADD PUSH1 0x40 MLOAD DUP1 SWAP2 SUB SWAP1 REVERT JUMPDEST DUP1 SELFBALANCE LT ISZERO PUSH2 0x1DEB JUMPI PUSH1 0x40 MLOAD PUSH32 0x6A12F10400000000000000000000000000000000000000000000000000000000 DUP2 MSTORE PUSH1 0x4 ADD PUSH1 0x40 MLOAD DUP1 SWAP2 SUB SWAP1 REVERT JUMPDEST PUSH0 DUP3 PUSH20 0xFFFFFFFFFFFFFFFFFFFFFFFFFFFFFFFFFFFFFFFF AND DUP3 PUSH1 0x40 MLOAD PUSH2 0x1E10 SWAP1 PUSH2 0x341C JUMP JUMPDEST PUSH0 PUSH1 0x40 MLOAD DUP1 DUP4 SUB DUP2 DUP6 DUP8 GAS CALL SWAP3 POP POP POP RETURNDATASIZE DUP1 PUSH0 DUP2 EQ PUSH2 0x1E4A JUMPI PUSH1 0x40 MLOAD SWAP2 POP PUSH1 0x1F NOT PUSH1 0x3F RETURNDATASIZE ADD AND DUP3 ADD PUSH1 0x40 MSTORE RETURNDATASIZE DUP3 MSTORE RETURNDATASIZE PUSH0 PUSH1 0x20 DUP5 ADD RETURNDATACOPY PUSH2 0x1E4F JUMP JUMPDEST PUSH1 0x60 SWAP2 POP JUMPDEST POP POP SWAP1 POP DUP1 PUSH2 0x1E8A JUMPI PUSH1 0x40 MLOAD PUSH32 0xCEF4EED700000000000000000000000000000000000000000000000000000000 DUP2 MSTORE PUSH1 0x4 ADD PUSH1 0x40 MLOAD DUP1 SWAP2 SUB SWAP1 REVERT JUMPDEST POP POP POP JUMP JUMPDEST PUSH0 PUSH20 0xFFFFFFFFFFFFFFFFFFFFFFFFFFFFFFFFFFFFFFFF AND DUP3 PUSH20 0xFFFFFFFFFFFFFFFFFFFFFFFFFFFFFFFFFFFFFFFF AND SUB PUSH2 0x1ED1 JUMPI PUSH2 0x1ECC DUP2 SELFBALANCE PUSH2 0x1D78 JUMP JUMPDEST PUSH2 0x1F62 JUMP JUMPDEST PUSH0 DUP3 PUSH20 0xFFFFFFFFFFFFFFFFFFFFFFFFFFFFFFFFFFFFFFFF AND PUSH4 0x70A08231 ADDRESS PUSH1 0x40 MLOAD DUP3 PUSH4 0xFFFFFFFF AND PUSH1 0xE0 SHL DUP2 MSTORE PUSH1 0x4 ADD PUSH2 0x1F0B SWAP2 SWAP1 PUSH2 0x267E JUMP JUMPDEST PUSH1 0x20 PUSH1 0x40 MLOAD DUP1 DUP4 SUB DUP2 DUP7 GAS STATICCALL ISZERO DUP1 ISZERO PUSH2 0x1F26 JUMPI RETURNDATASIZE PUSH0 PUSH0 RETURNDATACOPY RETURNDATASIZE PUSH0 REVERT JUMPDEST POP POP POP POP PUSH1 0x40 MLOAD RETURNDATASIZE PUSH1 0x1F NOT PUSH1 0x1F DUP3 ADD AND DUP3 ADD DUP1 PUSH1 0x40 MSTORE POP DUP2 ADD SWAP1 PUSH2 0x1F4A SWAP2 SWAP1 PUSH2 0x2DC1 JUMP JUMPDEST SWAP1 POP PUSH0 DUP2 GT ISZERO PUSH2 0x1F60 JUMPI PUSH2 0x1F5F DUP4 DUP4 DUP4 PUSH2 0x20FC JUMP JUMPDEST JUMPDEST POP JUMPDEST POP POP JUMP JUMPDEST PUSH0 PUSH2 0x1F6F PUSH2 0x224B JUMP JUMPDEST PUSH20 0xFFFFFFFFFFFFFFFFFFFFFFFFFFFFFFFFFFFFFFFF AND PUSH4 0xF2018A1F DUP4 PUSH1 0x40 MLOAD DUP3 PUSH4 0xFFFFFFFF AND PUSH1 0xE0 SHL DUP2 MSTORE PUSH1 0x4 ADD PUSH2 0x1FA7 SWAP2 SWAP1 PUSH2 0x29EE JUMP JUMPDEST PUSH1 0x20 PUSH1 0x40 MLOAD DUP1 DUP4 SUB DUP2 DUP7 GAS STATICCALL ISZERO DUP1 ISZERO PUSH2 0x1FC2 JUMPI RETURNDATASIZE PUSH0 PUSH0 RETURNDATACOPY RETURNDATASIZE PUSH0 REVERT JUMPDEST POP POP POP POP PUSH1 0x40 MLOAD RETURNDATASIZE PUSH1 0x1F NOT PUSH1 0x1F DUP3 ADD AND DUP3 ADD DUP1 PUSH1 0x40 MSTORE POP DUP2 ADD SWAP1 PUSH2 0x1FE6 SWAP2 SWAP1 PUSH2 0x28D4 JUMP JUMPDEST SWAP1 POP SWAP2 SWAP1 POP JUMP JUMPDEST PUSH0 PUSH2 0x1FF6 PUSH2 0x228F JUMP JUMPDEST PUSH20 0xFFFFFFFFFFFFFFFFFFFFFFFFFFFFFFFFFFFFFFFF AND PUSH4 0x3EE79962 DUP4 PUSH1 0x40 MLOAD DUP3 PUSH4 0xFFFFFFFF AND PUSH1 0xE0 SHL DUP2 MSTORE PUSH1 0x4 ADD PUSH2 0x202E SWAP2 SWAP1 PUSH2 0x29EE JUMP JUMPDEST PUSH1 0x20 PUSH1 0x40 MLOAD DUP1 DUP4 SUB DUP2 DUP7 GAS STATICCALL ISZERO DUP1 ISZERO PUSH2 0x2049 JUMPI RETURNDATASIZE PUSH0 PUSH0 RETURNDATACOPY RETURNDATASIZE PUSH0 REVERT JUMPDEST POP POP POP POP PUSH1 0x40 MLOAD RETURNDATASIZE PUSH1 0x1F NOT PUSH1 0x1F DUP3 ADD AND DUP3 ADD DUP1 PUSH1 0x40 MSTORE POP DUP2 ADD SWAP1 PUSH2 0x206D SWAP2 SWAP1 PUSH2 0x28D4 JUMP JUMPDEST SWAP1 POP SWAP2 SWAP1 POP JUMP JUMPDEST PUSH0 PUSH2 0x20B3 PUSH1 0x40 MLOAD DUP1 PUSH1 0x40 ADD PUSH1 0x40 MSTORE DUP1 PUSH1 0x12 DUP2 MSTORE PUSH1 0x20 ADD PUSH32 0x696E6465782D70726963652D6F7261636C650000000000000000000000000000 DUP2 MSTORE POP PUSH2 0x712 JUMP JUMPDEST SWAP1 POP SWAP1 JUMP JUMPDEST PUSH0 PUSH2 0x20F7 PUSH1 0x40 MLOAD DUP1 PUSH1 0x40 ADD PUSH1 0x40 MSTORE DUP1 PUSH1 0x11 DUP2 MSTORE PUSH1 0x20 ADD PUSH32 0x6D756C74692D737761702D726F75746572000000000000000000000000000000 DUP2 MSTORE POP PUSH2 0x712 JUMP JUMPDEST SWAP1 POP SWAP1 JUMP JUMPDEST PUSH0 PUSH0 DUP5 PUSH20 0xFFFFFFFFFFFFFFFFFFFFFFFFFFFFFFFFFFFFFFFF AND PUSH4 0xA9059CBB PUSH1 0xE0 SHL DUP6 DUP6 PUSH1 0x40 MLOAD PUSH1 0x24 ADD PUSH2 0x2130 SWAP3 SWAP2 SWAP1 PUSH2 0x2CAC JUMP JUMPDEST PUSH1 0x40 MLOAD PUSH1 0x20 DUP2 DUP4 SUB SUB DUP2 MSTORE SWAP1 PUSH1 0x40 MSTORE SWAP1 PUSH28 0xFFFFFFFFFFFFFFFFFFFFFFFFFFFFFFFFFFFFFFFFFFFFFFFFFFFFFFFF NOT AND PUSH1 0x20 DUP3 ADD DUP1 MLOAD PUSH28 0xFFFFFFFFFFFFFFFFFFFFFFFFFFFFFFFFFFFFFFFFFFFFFFFFFFFFFFFF DUP4 DUP2 DUP4 AND OR DUP4 MSTORE POP POP POP POP PUSH1 0x40 MLOAD PUSH2 0x219A SWAP2 SWAP1 PUSH2 0x346A JUMP JUMPDEST PUSH0 PUSH1 0x40 MLOAD DUP1 DUP4 SUB DUP2 PUSH0 DUP7 GAS CALL SWAP2 POP POP RETURNDATASIZE DUP1 PUSH0 DUP2 EQ PUSH2 0x21D3 JUMPI PUSH1 0x40 MLOAD SWAP2 POP PUSH1 0x1F NOT PUSH1 0x3F RETURNDATASIZE ADD AND DUP3 ADD PUSH1 0x40 MSTORE RETURNDATASIZE DUP3 MSTORE RETURNDATASIZE PUSH0 PUSH1 0x20 DUP5 ADD RETURNDATACOPY PUSH2 0x21D8 JUMP JUMPDEST PUSH1 0x60 SWAP2 POP JUMPDEST POP SWAP2 POP SWAP2 POP DUP2 DUP1 ISZERO PUSH2 0x2205 JUMPI POP PUSH0 DUP2 MLOAD EQ DUP1 PUSH2 0x2204 JUMPI POP DUP1 DUP1 PUSH1 0x20 ADD SWAP1 MLOAD DUP2 ADD SWAP1 PUSH2 0x2203 SWAP2 SWAP1 PUSH2 0x3494 JUMP JUMPDEST JUMPDEST JUMPDEST PUSH2 0x2244 JUMPI PUSH1 0x40 MLOAD PUSH32 0x8C379A000000000000000000000000000000000000000000000000000000000 DUP2 MSTORE PUSH1 0x4 ADD PUSH2 0x223B SWAP1 PUSH2 0x3509 JUMP JUMPDEST PUSH1 0x40 MLOAD DUP1 SWAP2 SUB SWAP1 REVERT JUMPDEST POP POP POP POP POP JUMP JUMPDEST PUSH0 PUSH2 0x228A PUSH1 0x40 MLOAD DUP1 PUSH1 0x40 ADD PUSH1 0x40 MSTORE DUP1 PUSH1 0x12 DUP2 MSTORE PUSH1 0x20 ADD PUSH32 0x6574662D746F6B656E2D6465706C6F7965720000000000000000000000000000 DUP2 MSTORE POP PUSH2 0x712 JUMP JUMPDEST SWAP1 POP SWAP1 JUMP JUMPDEST PUSH0 PUSH2 0x22CE PUSH1 0x40 MLOAD DUP1 PUSH1 0x40 ADD PUSH1 0x40 MSTORE DUP1 PUSH1 0x12 DUP2 MSTORE PUSH1 0x20 ADD PUSH32 0x6574662D7661756C742D6465706C6F7965720000000000000000000000000000 DUP2 MSTORE POP PUSH2 0x712 JUMP JUMPDEST SWAP1 POP SWAP1 JUMP JUMPDEST PUSH1 0x40 MLOAD DUP1 PUSH1 0x40 ADD PUSH1 0x40 MSTORE DUP1 PUSH0 PUSH20 0xFFFFFFFFFFFFFFFFFFFFFFFFFFFFFFFFFFFFFFFF AND DUP2 MSTORE PUSH1 0x20 ADD PUSH0 PUSH2 0xFFFF AND DUP2 MSTORE POP SWAP1 JUMP JUMPDEST PUSH1 0x40 MLOAD DUP1 PUSH1 0x40 ADD PUSH1 0x40 MSTORE DUP1 PUSH0 PUSH20 0xFFFFFFFFFFFFFFFFFFFFFFFFFFFFFFFFFFFFFFFF AND DUP2 MSTORE PUSH1 0x20 ADD PUSH0 DUP2 MSTORE POP SWAP1 JUMP JUMPDEST PUSH0 PUSH4 0xFFFFFFFF DUP3 AND SWAP1 POP SWAP2 SWAP1 POP JUMP JUMPDEST PUSH2 0x234B DUP2 PUSH2 0x2333 JUMP JUMPDEST DUP3 MSTORE POP POP JUMP JUMPDEST PUSH0 PUSH1 0x20 DUP3 ADD SWAP1 POP PUSH2 0x2364 PUSH0 DUP4 ADD DUP5 PUSH2 0x2342 JUMP JUMPDEST SWAP3 SWAP2 POP POP JUMP JUMPDEST PUSH0 PUSH1 0x40 MLOAD SWAP1 POP SWAP1 JUMP JUMPDEST PUSH0 PUSH0 REVERT JUMPDEST PUSH0 PUSH0 REVERT JUMPDEST PUSH0 PUSH20 0xFFFFFFFFFFFFFFFFFFFFFFFFFFFFFFFFFFFFFFFF DUP3 AND SWAP1 POP SWAP2 SWAP1 POP JUMP JUMPDEST PUSH0 PUSH2 0x23A4 DUP3 PUSH2 0x237B JUMP JUMPDEST SWAP1 POP SWAP2 SWAP1 POP JUMP JUMPDEST PUSH2 0x23B4 DUP2 PUSH2 0x239A JUMP JUMPDEST DUP2 EQ PUSH2 0x23BE JUMPI PUSH0 PUSH0 REVERT JUMPDEST POP JUMP JUMPDEST PUSH0 DUP2 CALLDATALOAD SWAP1 POP PUSH2 0x23CF DUP2 PUSH2 0x23AB JUMP JUMPDEST SWAP3 SWAP2 POP POP JUMP JUMPDEST PUSH0 PUSH0 PUSH1 0x40 DUP4 DUP6 SUB SLT ISZERO PUSH2 0x23EB JUMPI PUSH2 0x23EA PUSH2 0x2373 JUMP JUMPDEST JUMPDEST PUSH0 PUSH2 0x23F8 DUP6 DUP3 DUP7 ADD PUSH2 0x23C1 JUMP JUMPDEST SWAP3 POP POP PUSH1 0x20 PUSH2 0x2409 DUP6 DUP3 DUP7 ADD PUSH2 0x23C1 JUMP JUMPDEST SWAP2 POP POP SWAP3 POP SWAP3 SWAP1 POP JUMP JUMPDEST PUSH0 DUP2 ISZERO ISZERO SWAP1 POP SWAP2 SWAP1 POP JUMP JUMPDEST PUSH2 0x2427 DUP2 PUSH2 0x2413 JUMP JUMPDEST DUP3 MSTORE POP POP JUMP JUMPDEST PUSH0 PUSH1 0x20 DUP3 ADD SWAP1 POP PUSH2 0x2440 PUSH0 DUP4 ADD DUP5 PUSH2 0x241E JUMP JUMPDEST SWAP3 SWAP2 POP POP JUMP JUMPDEST PUSH0 DUP2 SWAP1 POP SWAP2 SWAP1 POP JUMP JUMPDEST PUSH2 0x2458 DUP2 PUSH2 0x2446 JUMP JUMPDEST DUP2 EQ PUSH2 0x2462 JUMPI PUSH0 PUSH0 REVERT JUMPDEST POP JUMP JUMPDEST PUSH0 DUP2 CALLDATALOAD SWAP1 POP PUSH2 0x2473 DUP2 PUSH2 0x244F JUMP JUMPDEST SWAP3 SWAP2 POP POP JUMP JUMPDEST PUSH0 PUSH0 PUSH1 0x40 DUP4 DUP6 SUB SLT ISZERO PUSH2 0x248F JUMPI PUSH2 0x248E PUSH2 0x2373 JUMP JUMPDEST JUMPDEST PUSH0 PUSH2 0x249C DUP6 DUP3 DUP7 ADD PUSH2 0x2465 JUMP JUMPDEST SWAP3 POP POP PUSH1 0x20 PUSH2 0x24AD DUP6 DUP3 DUP7 ADD PUSH2 0x23C1 JUMP JUMPDEST SWAP2 POP POP SWAP3 POP SWAP3 SWAP1 POP JUMP JUMPDEST PUSH0 PUSH2 0xFFFF DUP3 AND SWAP1 POP SWAP2 SWAP1 POP JUMP JUMPDEST PUSH2 0x24CD DUP2 PUSH2 0x24B7 JUMP JUMPDEST DUP3 MSTORE POP POP JUMP JUMPDEST PUSH0 PUSH1 0x20 DUP3 ADD SWAP1 POP PUSH2 0x24E6 PUSH0 DUP4 ADD DUP5 PUSH2 0x24C4 JUMP JUMPDEST SWAP3 SWAP2 POP POP JUMP JUMPDEST PUSH0 PUSH0 REVERT JUMPDEST PUSH0 PUSH0 REVERT JUMPDEST PUSH0 PUSH1 0x1F NOT PUSH1 0x1F DUP4 ADD AND SWAP1 POP SWAP2 SWAP1 POP JUMP JUMPDEST PUSH32 0x4E487B7100000000000000000000000000000000000000000000000000000000 PUSH0 MSTORE PUSH1 0x41 PUSH1 0x4 MSTORE PUSH1 0x24 PUSH0 REVERT JUMPDEST PUSH2 0x253A DUP3 PUSH2 0x24F4 JUMP JUMPDEST DUP2 ADD DUP2 DUP2 LT PUSH8 0xFFFFFFFFFFFFFFFF DUP3 GT OR ISZERO PUSH2 0x2559 JUMPI PUSH2 0x2558 PUSH2 0x2504 JUMP JUMPDEST JUMPDEST DUP1 PUSH1 0x40 MSTORE POP POP POP JUMP JUMPDEST PUSH0 PUSH2 0x256B PUSH2 0x236A JUMP JUMPDEST SWAP1 POP PUSH2 0x2577 DUP3 DUP3 PUSH2 0x2531 JUMP JUMPDEST SWAP2 SWAP1 POP JUMP JUMPDEST PUSH0 PUSH8 0xFFFFFFFFFFFFFFFF DUP3 GT ISZERO PUSH2 0x2596 JUMPI PUSH2 0x2595 PUSH2 0x2504 JUMP JUMPDEST JUMPDEST PUSH2 0x259F DUP3 PUSH2 0x24F4 JUMP JUMPDEST SWAP1 POP PUSH1 0x20 DUP2 ADD SWAP1 POP SWAP2 SWAP1 POP JUMP JUMPDEST DUP3 DUP2 DUP4 CALLDATACOPY PUSH0 DUP4 DUP4 ADD MSTORE POP POP POP JUMP JUMPDEST PUSH0 PUSH2 0x25CC PUSH2 0x25C7 DUP5 PUSH2 0x257C JUMP JUMPDEST PUSH2 0x2562 JUMP JUMPDEST SWAP1 POP DUP3 DUP2 MSTORE PUSH1 0x20 DUP2 ADD DUP5 DUP5 DUP5 ADD GT ISZERO PUSH2 0x25E8 JUMPI PUSH2 0x25E7 PUSH2 0x24F0 JUMP JUMPDEST JUMPDEST PUSH2 0x25F3 DUP5 DUP3 DUP6 PUSH2 0x25AC JUMP JUMPDEST POP SWAP4 SWAP3 POP POP POP JUMP JUMPDEST PUSH0 DUP3 PUSH1 0x1F DUP4 ADD SLT PUSH2 0x260F JUMPI PUSH2 0x260E PUSH2 0x24EC JUMP JUMPDEST JUMPDEST DUP2 CALLDATALOAD PUSH2 0x261F DUP5 DUP3 PUSH1 0x20 DUP7 ADD PUSH2 0x25BA JUMP JUMPDEST SWAP2 POP POP SWAP3 SWAP2 POP POP JUMP JUMPDEST PUSH0 PUSH1 0x20 DUP3 DUP5 SUB SLT ISZERO PUSH2 0x263D JUMPI PUSH2 0x263C PUSH2 0x2373 JUMP JUMPDEST JUMPDEST PUSH0 DUP3 ADD CALLDATALOAD PUSH8 0xFFFFFFFFFFFFFFFF DUP2 GT ISZERO PUSH2 0x265A JUMPI PUSH2 0x2659 PUSH2 0x2377 JUMP JUMPDEST JUMPDEST PUSH2 0x2666 DUP5 DUP3 DUP6 ADD PUSH2 0x25FB JUMP JUMPDEST SWAP2 POP POP SWAP3 SWAP2 POP POP JUMP JUMPDEST PUSH2 0x2678 DUP2 PUSH2 0x239A JUMP JUMPDEST DUP3 MSTORE POP POP JUMP JUMPDEST PUSH0 PUSH1 0x20 DUP3 ADD SWAP1 POP PUSH2 0x2691 PUSH0 DUP4 ADD DUP5 PUSH2 0x266F JUMP JUMPDEST SWAP3 SWAP2 POP POP JUMP JUMPDEST PUSH0 DUP2 SWAP1 POP SWAP2 SWAP1 POP JUMP JUMPDEST PUSH0 PUSH2 0x26BA PUSH2 0x26B5 PUSH2 0x26B0 DUP5 PUSH2 0x237B JUMP JUMPDEST PUSH2 0x2697 JUMP JUMPDEST PUSH2 0x237B JUMP JUMPDEST SWAP1 POP SWAP2 SWAP1 POP JUMP JUMPDEST PUSH0 PUSH2 0x26CB DUP3 PUSH2 0x26A0 JUMP JUMPDEST SWAP1 POP SWAP2 SWAP1 POP JUMP JUMPDEST PUSH0 PUSH2 0x26DC DUP3 PUSH2 0x26C1 JUMP JUMPDEST SWAP1 POP SWAP2 SWAP1 POP JUMP JUMPDEST PUSH2 0x26EC DUP2 PUSH2 0x26D2 JUMP JUMPDEST DUP3 MSTORE POP POP JUMP JUMPDEST PUSH0 PUSH1 0x20 DUP3 ADD SWAP1 POP PUSH2 0x2705 PUSH0 DUP4 ADD DUP5 PUSH2 0x26E3 JUMP JUMPDEST SWAP3 SWAP2 POP POP JUMP JUMPDEST PUSH2 0x2714 DUP2 PUSH2 0x2413 JUMP JUMPDEST DUP2 EQ PUSH2 0x271E JUMPI PUSH0 PUSH0 REVERT JUMPDEST POP JUMP JUMPDEST PUSH0 DUP2 CALLDATALOAD SWAP1 POP PUSH2 0x272F DUP2 PUSH2 0x270B JUMP JUMPDEST SWAP3 SWAP2 POP POP JUMP JUMPDEST PUSH0 PUSH1 0x20 DUP3 DUP5 SUB SLT ISZERO PUSH2 0x274A JUMPI PUSH2 0x2749 PUSH2 0x2373 JUMP JUMPDEST JUMPDEST PUSH0 PUSH2 0x2757 DUP5 DUP3 DUP6 ADD PUSH2 0x2721 JUMP JUMPDEST SWAP2 POP POP SWAP3 SWAP2 POP POP JUMP JUMPDEST PUSH2 0x2769 DUP2 PUSH2 0x24B7 JUMP JUMPDEST DUP2 EQ PUSH2 0x2773 JUMPI PUSH0 PUSH0 REVERT JUMPDEST POP JUMP JUMPDEST PUSH0 DUP2 CALLDATALOAD SWAP1 POP PUSH2 0x2784 DUP2 PUSH2 0x2760 JUMP JUMPDEST SWAP3 SWAP2 POP POP JUMP JUMPDEST PUSH0 PUSH1 0x20 DUP3 DUP5 SUB SLT ISZERO PUSH2 0x279F JUMPI PUSH2 0x279E PUSH2 0x2373 JUMP JUMPDEST JUMPDEST PUSH0 PUSH2 0x27AC DUP5 DUP3 DUP6 ADD PUSH2 0x2776 JUMP JUMPDEST SWAP2 POP POP SWAP3 SWAP2 POP POP JUMP JUMPDEST PUSH0 PUSH1 0x20 DUP3 DUP5 SUB SLT ISZERO PUSH2 0x27CA JUMPI PUSH2 0x27C9 PUSH2 0x2373 JUMP JUMPDEST JUMPDEST PUSH0 PUSH2 0x27D7 DUP5 DUP3 DUP6 ADD PUSH2 0x23C1 JUMP JUMPDEST SWAP2 POP POP SWAP3 SWAP2 POP POP JUMP JUMPDEST PUSH2 0x27E9 DUP2 PUSH2 0x2333 JUMP JUMPDEST DUP2 EQ PUSH2 0x27F3 JUMPI PUSH0 PUSH0 REVERT JUMPDEST POP JUMP JUMPDEST PUSH0 DUP2 CALLDATALOAD SWAP1 POP PUSH2 0x2804 DUP2 PUSH2 0x27E0 JUMP JUMPDEST SWAP3 SWAP2 POP POP JUMP JUMPDEST PUSH0 PUSH1 0x20 DUP3 DUP5 SUB SLT ISZERO PUSH2 0x281F JUMPI PUSH2 0x281E PUSH2 0x2373 JUMP JUMPDEST JUMPDEST PUSH0 PUSH2 0x282C DUP5 DUP3 DUP6 ADD PUSH2 0x27F6 JUMP JUMPDEST SWAP2 POP POP SWAP3 SWAP2 POP POP JUMP JUMPDEST PUSH0 PUSH2 0x283F DUP3 PUSH2 0x237B JUMP JUMPDEST SWAP1 POP SWAP2 SWAP1 POP JUMP JUMPDEST PUSH2 0x284F DUP2 PUSH2 0x2835 JUMP JUMPDEST DUP2 EQ PUSH2 0x2859 JUMPI PUSH0 PUSH0 REVERT JUMPDEST POP JUMP JUMPDEST PUSH0 DUP2 CALLDATALOAD SWAP1 POP PUSH2 0x286A DUP2 PUSH2 0x2846 JUMP JUMPDEST SWAP3 SWAP2 POP POP JUMP JUMPDEST PUSH0 PUSH0 PUSH0 PUSH1 0x60 DUP5 DUP7 SUB SLT ISZERO PUSH2 0x2887 JUMPI PUSH2 0x2886 PUSH2 0x2373 JUMP JUMPDEST JUMPDEST PUSH0 PUSH2 0x2894 DUP7 DUP3 DUP8 ADD PUSH2 0x2465 JUMP JUMPDEST SWAP4 POP POP PUSH1 0x20 PUSH2 0x28A5 DUP7 DUP3 DUP8 ADD PUSH2 0x2465 JUMP JUMPDEST SWAP3 POP POP PUSH1 0x40 PUSH2 0x28B6 DUP7 DUP3 DUP8 ADD PUSH2 0x285C JUMP JUMPDEST SWAP2 POP POP SWAP3 POP SWAP3 POP SWAP3 JUMP JUMPDEST PUSH0 DUP2 MLOAD SWAP1 POP PUSH2 0x28CE DUP2 PUSH2 0x23AB JUMP JUMPDEST SWAP3 SWAP2 POP POP JUMP JUMPDEST PUSH0 PUSH1 0x20 DUP3 DUP5 SUB SLT ISZERO PUSH2 0x28E9 JUMPI PUSH2 0x28E8 PUSH2 0x2373 JUMP JUMPDEST JUMPDEST PUSH0 PUSH2 0x28F6 DUP5 DUP3 DUP6 ADD PUSH2 0x28C0 JUMP JUMPDEST SWAP2 POP POP SWAP3 SWAP2 POP POP JUMP JUMPDEST PUSH0 DUP3 DUP3 MSTORE PUSH1 0x20 DUP3 ADD SWAP1 POP SWAP3 SWAP2 POP POP JUMP JUMPDEST PUSH32 0x43616C6C6572206973206E6F7420746865206F776E6572000000000000000000 PUSH0 DUP3 ADD MSTORE POP JUMP JUMPDEST PUSH0 PUSH2 0x2943 PUSH1 0x17 DUP4 PUSH2 0x28FF JUMP JUMPDEST SWAP2 POP PUSH2 0x294E DUP3 PUSH2 0x290F JUMP JUMPDEST PUSH1 0x20 DUP3 ADD SWAP1 POP SWAP2 SWAP1 POP JUMP JUMPDEST PUSH0 PUSH1 0x20 DUP3 ADD SWAP1 POP DUP2 DUP2 SUB PUSH0 DUP4 ADD MSTORE PUSH2 0x2970 DUP2 PUSH2 0x2937 JUMP JUMPDEST SWAP1 POP SWAP2 SWAP1 POP JUMP JUMPDEST PUSH32 0x436F6E7472616374206973206E6F742061637469766500000000000000000000 PUSH0 DUP3 ADD MSTORE POP JUMP JUMPDEST PUSH0 PUSH2 0x29AB PUSH1 0x16 DUP4 PUSH2 0x28FF JUMP JUMPDEST SWAP2 POP PUSH2 0x29B6 DUP3 PUSH2 0x2977 JUMP JUMPDEST PUSH1 0x20 DUP3 ADD SWAP1 POP SWAP2 SWAP1 POP JUMP JUMPDEST PUSH0 PUSH1 0x20 DUP3 ADD SWAP1 POP DUP2 DUP2 SUB PUSH0 DUP4 ADD MSTORE PUSH2 0x29D8 DUP2 PUSH2 0x299F JUMP JUMPDEST SWAP1 POP SWAP2 SWAP1 POP JUMP JUMPDEST PUSH2 0x29E8 DUP2 PUSH2 0x2446 JUMP JUMPDEST DUP3 MSTORE POP POP JUMP JUMPDEST PUSH0 PUSH1 0x20 DUP3 ADD SWAP1 POP PUSH2 0x2A01 PUSH0 DUP4 ADD DUP5 PUSH2 0x29DF JUMP JUMPDEST SWAP3 SWAP2 POP POP JUMP JUMPDEST PUSH0 PUSH0 REVERT JUMPDEST PUSH0 PUSH0 REVERT JUMPDEST DUP3 DUP2 DUP4 MCOPY PUSH0 DUP4 DUP4 ADD MSTORE POP POP POP JUMP JUMPDEST PUSH0 PUSH2 0x2A2F PUSH2 0x2A2A DUP5 PUSH2 0x257C JUMP JUMPDEST PUSH2 0x2562 JUMP JUMPDEST SWAP1 POP DUP3 DUP2 MSTORE PUSH1 0x20 DUP2 ADD DUP5 DUP5 DUP5 ADD GT ISZERO PUSH2 0x2A4B JUMPI PUSH2 0x2A4A PUSH2 0x24F0 JUMP JUMPDEST JUMPDEST PUSH2 0x2A56 DUP5 DUP3 DUP6 PUSH2 0x2A0F JUMP JUMPDEST POP SWAP4 SWAP3 POP POP POP JUMP JUMPDEST PUSH0 DUP3 PUSH1 0x1F DUP4 ADD SLT PUSH2 0x2A72 JUMPI PUSH2 0x2A71 PUSH2 0x24EC JUMP JUMPDEST JUMPDEST DUP2 MLOAD PUSH2 0x2A82 DUP5 DUP3 PUSH1 0x20 DUP7 ADD PUSH2 0x2A1D JUMP JUMPDEST SWAP2 POP POP SWAP3 SWAP2 POP POP JUMP JUMPDEST PUSH0 PUSH8 0xFFFFFFFFFFFFFFFF DUP3 GT ISZERO PUSH2 0x2AA5 JUMPI PUSH2 0x2AA4 PUSH2 0x2504 JUMP JUMPDEST JUMPDEST PUSH1 0x20 DUP3 MUL SWAP1 POP PUSH1 0x20 DUP2 ADD SWAP1 POP SWAP2 SWAP1 POP JUMP JUMPDEST PUSH0 PUSH0 REVERT JUMPDEST PUSH0 DUP2 MLOAD SWAP1 POP PUSH2 0x2AC8 DUP2 PUSH2 0x2760 JUMP JUMPDEST SWAP3 SWAP2 POP POP JUMP JUMPDEST PUSH0 PUSH1 0x40 DUP3 DUP5 SUB SLT ISZERO PUSH2 0x2AE3 JUMPI PUSH2 0x2AE2 PUSH2 0x2A07 JUMP JUMPDEST JUMPDEST PUSH2 0x2AED PUSH1 0x40 PUSH2 0x2562 JUMP JUMPDEST SWAP1 POP PUSH0 PUSH2 0x2AFC DUP5 DUP3 DUP6 ADD PUSH2 0x28C0 JUMP JUMPDEST PUSH0 DUP4 ADD MSTORE POP PUSH1 0x20 PUSH2 0x2B0F DUP5 DUP3 DUP6 ADD PUSH2 0x2ABA JUMP JUMPDEST PUSH1 0x20 DUP4 ADD MSTORE POP SWAP3 SWAP2 POP POP JUMP JUMPDEST PUSH0 PUSH2 0x2B2D PUSH2 0x2B28 DUP5 PUSH2 0x2A8B JUMP JUMPDEST PUSH2 0x2562 JUMP JUMPDEST SWAP1 POP DUP1 DUP4 DUP3 MSTORE PUSH1 0x20 DUP3 ADD SWAP1 POP PUSH1 0x40 DUP5 MUL DUP4 ADD DUP6 DUP2 GT ISZERO PUSH2 0x2B50 JUMPI PUSH2 0x2B4F PUSH2 0x2AB6 JUMP JUMPDEST JUMPDEST DUP4 JUMPDEST DUP2 DUP2 LT ISZERO PUSH2 0x2B79 JUMPI DUP1 PUSH2 0x2B65 DUP9 DUP3 PUSH2 0x2ACE JUMP JUMPDEST DUP5 MSTORE PUSH1 0x20 DUP5 ADD SWAP4 POP POP PUSH1 0x40 DUP2 ADD SWAP1 POP PUSH2 0x2B52 JUMP JUMPDEST POP POP POP SWAP4 SWAP3 POP POP POP JUMP JUMPDEST PUSH0 DUP3 PUSH1 0x1F DUP4 ADD SLT PUSH2 0x2B97 JUMPI PUSH2 0x2B96 PUSH2 0x24EC JUMP JUMPDEST JUMPDEST DUP2 MLOAD PUSH2 0x2BA7 DUP5 DUP3 PUSH1 0x20 DUP7 ADD PUSH2 0x2B1B JUMP JUMPDEST SWAP2 POP POP SWAP3 SWAP2 POP POP JUMP JUMPDEST PUSH0 PUSH1 0x60 DUP3 DUP5 SUB SLT ISZERO PUSH2 0x2BC5 JUMPI PUSH2 0x2BC4 PUSH2 0x2A07 JUMP JUMPDEST JUMPDEST PUSH2 0x2BCF PUSH1 0x60 PUSH2 0x2562 JUMP JUMPDEST SWAP1 POP PUSH0 DUP3 ADD MLOAD PUSH8 0xFFFFFFFFFFFFFFFF DUP2 GT ISZERO PUSH2 0x2BEE JUMPI PUSH2 0x2BED PUSH2 0x2A0B JUMP JUMPDEST JUMPDEST PUSH2 0x2BFA DUP5 DUP3 DUP6 ADD PUSH2 0x2A5E JUMP JUMPDEST PUSH0 DUP4 ADD MSTORE POP PUSH1 0x20 DUP3 ADD MLOAD PUSH8 0xFFFFFFFFFFFFFFFF DUP2 GT ISZERO PUSH2 0x2C1D JUMPI PUSH2 0x2C1C PUSH2 0x2A0B JUMP JUMPDEST JUMPDEST PUSH2 0x2C29 DUP5 DUP3 DUP6 ADD PUSH2 0x2A5E JUMP JUMPDEST PUSH1 0x20 DUP4 ADD MSTORE POP PUSH1 0x40 DUP3 ADD MLOAD PUSH8 0xFFFFFFFFFFFFFFFF DUP2 GT ISZERO PUSH2 0x2C4D JUMPI PUSH2 0x2C4C PUSH2 0x2A0B JUMP JUMPDEST JUMPDEST PUSH2 0x2C59 DUP5 DUP3 DUP6 ADD PUSH2 0x2B83 JUMP JUMPDEST PUSH1 0x40 DUP4 ADD MSTORE POP SWAP3 SWAP2 POP POP JUMP JUMPDEST PUSH0 PUSH1 0x20 DUP3 DUP5 SUB SLT ISZERO PUSH2 0x2C7A JUMPI PUSH2 0x2C79 PUSH2 0x2373 JUMP JUMPDEST JUMPDEST PUSH0 DUP3 ADD MLOAD PUSH8 0xFFFFFFFFFFFFFFFF DUP2 GT ISZERO PUSH2 0x2C97 JUMPI PUSH2 0x2C96 PUSH2 0x2377 JUMP JUMPDEST JUMPDEST PUSH2 0x2CA3 DUP5 DUP3 DUP6 ADD PUSH2 0x2BB0 JUMP JUMPDEST SWAP2 POP POP SWAP3 SWAP2 POP POP JUMP JUMPDEST PUSH0 PUSH1 0x40 DUP3 ADD SWAP1 POP PUSH2 0x2CBF PUSH0 DUP4 ADD DUP6 PUSH2 0x266F JUMP JUMPDEST PUSH2 0x2CCC PUSH1 0x20 DUP4 ADD DUP5 PUSH2 0x29DF JUMP JUMPDEST SWAP4 SWAP3 POP POP POP JUMP JUMPDEST PUSH0 PUSH1 0x40 DUP3 ADD SWAP1 POP PUSH2 0x2CE6 PUSH0 DUP4 ADD DUP6 PUSH2 0x29DF JUMP JUMPDEST PUSH2 0x2CF3 PUSH1 0x20 DUP4 ADD DUP5 PUSH2 0x29DF JUMP JUMPDEST SWAP4 SWAP3 POP POP POP JUMP JUMPDEST PUSH0 PUSH1 0xA0 DUP3 ADD SWAP1 POP PUSH2 0x2D0D PUSH0 DUP4 ADD DUP9 PUSH2 0x29DF JUMP JUMPDEST PUSH2 0x2D1A PUSH1 0x20 DUP4 ADD DUP8 PUSH2 0x266F JUMP JUMPDEST PUSH2 0x2D27 PUSH1 0x40 DUP4 ADD DUP7 PUSH2 0x266F JUMP JUMPDEST PUSH2 0x2D34 PUSH1 0x60 DUP4 ADD DUP6 PUSH2 0x29DF JUMP JUMPDEST PUSH2 0x2D41 PUSH1 0x80 DUP4 ADD DUP5 PUSH2 0x29DF JUMP JUMPDEST SWAP7 SWAP6 POP POP POP POP POP POP JUMP JUMPDEST PUSH0 DUP2 MLOAD SWAP1 POP SWAP2 SWAP1 POP JUMP JUMPDEST PUSH0 PUSH2 0x2D5F DUP3 PUSH2 0x2D4B JUMP JUMPDEST PUSH2 0x2D69 DUP2 DUP6 PUSH2 0x28FF JUMP JUMPDEST SWAP4 POP PUSH2 0x2D79 DUP2 DUP6 PUSH1 0x20 DUP7 ADD PUSH2 0x2A0F JUMP JUMPDEST PUSH2 0x2D82 DUP2 PUSH2 0x24F4 JUMP JUMPDEST DUP5 ADD SWAP2 POP POP SWAP3 SWAP2 POP POP JUMP JUMPDEST PUSH0 PUSH1 0x20 DUP3 ADD SWAP1 POP DUP2 DUP2 SUB PUSH0 DUP4 ADD MSTORE PUSH2 0x2DA5 DUP2 DUP5 PUSH2 0x2D55 JUMP JUMPDEST SWAP1 POP SWAP3 SWAP2 POP POP JUMP JUMPDEST PUSH0 DUP2 MLOAD SWAP1 POP PUSH2 0x2DBB DUP2 PUSH2 0x244F JUMP JUMPDEST SWAP3 SWAP2 POP POP JUMP JUMPDEST PUSH0 PUSH1 0x20 DUP3 DUP5 SUB SLT ISZERO PUSH2 0x2DD6 JUMPI PUSH2 0x2DD5 PUSH2 0x2373 JUMP JUMPDEST JUMPDEST PUSH0 PUSH2 0x2DE3 DUP5 DUP3 DUP6 ADD PUSH2 0x2DAD JUMP JUMPDEST SWAP2 POP POP SWAP3 SWAP2 POP POP JUMP JUMPDEST PUSH32 0x4E487B7100000000000000000000000000000000000000000000000000000000 PUSH0 MSTORE PUSH1 0x11 PUSH1 0x4 MSTORE PUSH1 0x24 PUSH0 REVERT JUMPDEST PUSH0 PUSH2 0x2E23 DUP3 PUSH2 0x2446 JUMP JUMPDEST SWAP2 POP PUSH2 0x2E2E DUP4 PUSH2 0x2446 JUMP JUMPDEST SWAP3 POP DUP3 DUP3 SUB SWAP1 POP DUP2 DUP2 GT ISZERO PUSH2 0x2E46 JUMPI PUSH2 0x2E45 PUSH2 0x2DEC JUMP JUMPDEST JUMPDEST SWAP3 SWAP2 POP POP JUMP JUMPDEST PUSH0 PUSH2 0x2E56 DUP3 PUSH2 0x26C1 JUMP JUMPDEST SWAP1 POP SWAP2 SWAP1 POP JUMP JUMPDEST PUSH2 0x2E66 DUP2 PUSH2 0x2E4C JUMP JUMPDEST DUP3 MSTORE POP POP JUMP JUMPDEST PUSH0 PUSH1 0xA0 DUP3 ADD SWAP1 POP PUSH2 0x2E7F PUSH0 DUP4 ADD DUP9 PUSH2 0x29DF JUMP JUMPDEST PUSH2 0x2E8C PUSH1 0x20 DUP4 ADD DUP8 PUSH2 0x266F JUMP JUMPDEST PUSH2 0x2E99 PUSH1 0x40 DUP4 ADD DUP7 PUSH2 0x2E5D JUMP JUMPDEST PUSH2 0x2EA6 PUSH1 0x60 DUP4 ADD DUP6 PUSH2 0x29DF JUMP JUMPDEST PUSH2 0x2EB3 PUSH1 0x80 DUP4 ADD DUP5 PUSH2 0x29DF JUMP JUMPDEST SWAP7 SWAP6 POP POP POP POP POP POP JUMP JUMPDEST PUSH32 0x5265656E7472616E637947756172643A207265656E7472616E742063616C6C00 PUSH0 DUP3 ADD MSTORE POP JUMP JUMPDEST PUSH0 PUSH2 0x2EF1 PUSH1 0x1F DUP4 PUSH2 0x28FF JUMP JUMPDEST SWAP2 POP PUSH2 0x2EFC DUP3 PUSH2 0x2EBD JUMP JUMPDEST PUSH1 0x20 DUP3 ADD SWAP1 POP SWAP2 SWAP1 POP JUMP JUMPDEST PUSH0 PUSH1 0x20 DUP3 ADD SWAP1 POP DUP2 DUP2 SUB PUSH0 DUP4 ADD MSTORE PUSH2 0x2F1E DUP2 PUSH2 0x2EE5 JUMP JUMPDEST SWAP1 POP SWAP2 SWAP1 POP JUMP JUMPDEST PUSH0 PUSH2 0x2F2F DUP3 PUSH2 0x2446 JUMP JUMPDEST SWAP2 POP PUSH2 0x2F3A DUP4 PUSH2 0x2446 JUMP JUMPDEST SWAP3 POP DUP3 DUP3 MUL PUSH2 0x2F48 DUP2 PUSH2 0x2446 JUMP JUMPDEST SWAP2 POP DUP3 DUP3 DIV DUP5 EQ DUP4 ISZERO OR PUSH2 0x2F5F JUMPI PUSH2 0x2F5E PUSH2 0x2DEC JUMP JUMPDEST JUMPDEST POP SWAP3 SWAP2 POP POP JUMP JUMPDEST PUSH32 0x4E487B7100000000000000000000000000000000000000000000000000000000 PUSH0 MSTORE PUSH1 0x12 PUSH1 0x4 MSTORE PUSH1 0x24 PUSH0 REVERT JUMPDEST PUSH0 PUSH2 0x2F9D DUP3 PUSH2 0x2446 JUMP JUMPDEST SWAP2 POP PUSH2 0x2FA8 DUP4 PUSH2 0x2446 JUMP JUMPDEST SWAP3 POP DUP3 PUSH2 0x2FB8 JUMPI PUSH2 0x2FB7 PUSH2 0x2F66 JUMP JUMPDEST JUMPDEST DUP3 DUP3 DIV SWAP1 POP SWAP3 SWAP2 POP POP JUMP JUMPDEST PUSH32 0x4E487B7100000000000000000000000000000000000000000000000000000000 PUSH0 MSTORE PUSH1 0x32 PUSH1 0x4 MSTORE PUSH1 0x24 PUSH0 REVERT JUMPDEST PUSH0 DUP2 MLOAD SWAP1 POP SWAP2 SWAP1 POP JUMP JUMPDEST PUSH0 DUP3 DUP3 MSTORE PUSH1 0x20 DUP3 ADD SWAP1 POP SWAP3 SWAP2 POP POP JUMP JUMPDEST PUSH0 DUP2 SWAP1 POP PUSH1 0x20 DUP3 ADD SWAP1 POP SWAP2 SWAP1 POP JUMP JUMPDEST PUSH2 0x3022 DUP2 PUSH2 0x239A JUMP JUMPDEST DUP3 MSTORE POP POP JUMP JUMPDEST PUSH2 0x3031 DUP2 PUSH2 0x24B7 JUMP JUMPDEST DUP3 MSTORE POP POP JUMP JUMPDEST PUSH1 0x40 DUP3 ADD PUSH0 DUP3 ADD MLOAD PUSH2 0x304B PUSH0 DUP6 ADD DUP3 PUSH2 0x3019 JUMP JUMPDEST POP PUSH1 0x20 DUP3 ADD MLOAD PUSH2 0x305E PUSH1 0x20 DUP6 ADD DUP3 PUSH2 0x3028 JUMP JUMPDEST POP POP POP POP JUMP JUMPDEST PUSH0 PUSH2 0x306F DUP4 DUP4 PUSH2 0x3037 JUMP JUMPDEST PUSH1 0x40 DUP4 ADD SWAP1 POP SWAP3 SWAP2 POP POP JUMP JUMPDEST PUSH0 PUSH1 0x20 DUP3 ADD SWAP1 POP SWAP2 SWAP1 POP JUMP JUMPDEST PUSH0 PUSH2 0x3091 DUP3 PUSH2 0x2FF0 JUMP JUMPDEST PUSH2 0x309B DUP2 DUP6 PUSH2 0x2FFA JUMP JUMPDEST SWAP4 POP PUSH2 0x30A6 DUP4 PUSH2 0x300A JUMP JUMPDEST DUP1 PUSH0 JUMPDEST DUP4 DUP2 LT ISZERO PUSH2 0x30D6 JUMPI DUP2 MLOAD PUSH2 0x30BD DUP9 DUP3 PUSH2 0x3064 JUMP JUMPDEST SWAP8 POP PUSH2 0x30C8 DUP4 PUSH2 0x307B JUMP JUMPDEST SWAP3 POP POP PUSH1 0x1 DUP2 ADD SWAP1 POP PUSH2 0x30A9 JUMP JUMPDEST POP DUP6 SWAP4 POP POP POP POP SWAP3 SWAP2 POP POP JUMP JUMPDEST PUSH0 PUSH1 0x60 DUP3 ADD SWAP1 POP DUP2 DUP2 SUB PUSH0 DUP4 ADD MSTORE PUSH2 0x30FB DUP2 DUP7 PUSH2 0x3087 JUMP JUMPDEST SWAP1 POP PUSH2 0x310A PUSH1 0x20 DUP4 ADD DUP6 PUSH2 0x266F JUMP JUMPDEST PUSH2 0x3117 PUSH1 0x40 DUP4 ADD DUP5 PUSH2 0x2342 JUMP JUMPDEST SWAP5 SWAP4 POP POP POP POP JUMP JUMPDEST PUSH32 0x4469726563746F72792063616E6E6F74206265207A65726F2061646472657373 PUSH0 DUP3 ADD MSTORE POP JUMP JUMPDEST PUSH0 PUSH2 0x3153 PUSH1 0x20 DUP4 PUSH2 0x28FF JUMP JUMPDEST SWAP2 POP PUSH2 0x315E DUP3 PUSH2 0x311F JUMP JUMPDEST PUSH1 0x20 DUP3 ADD SWAP1 POP SWAP2 SWAP1 POP JUMP JUMPDEST PUSH0 PUSH1 0x20 DUP3 ADD SWAP1 POP DUP2 DUP2 SUB PUSH0 DUP4 ADD MSTORE PUSH2 0x3180 DUP2 PUSH2 0x3147 JUMP JUMPDEST SWAP1 POP SWAP2 SWAP1 POP JUMP JUMPDEST PUSH32 0x4469726563746F7279206D757374206265206120636F6E747261637400000000 PUSH0 DUP3 ADD MSTORE POP JUMP JUMPDEST PUSH0 PUSH2 0x31BB PUSH1 0x1C DUP4 PUSH2 0x28FF JUMP JUMPDEST SWAP2 POP PUSH2 0x31C6 DUP3 PUSH2 0x3187 JUMP JUMPDEST PUSH1 0x20 DUP3 ADD SWAP1 POP SWAP2 SWAP1 POP JUMP JUMPDEST PUSH0 PUSH1 0x20 DUP3 ADD SWAP1 POP DUP2 DUP2 SUB PUSH0 DUP4 ADD MSTORE PUSH2 0x31E8 DUP2 PUSH2 0x31AF JUMP JUMPDEST SWAP1 POP SWAP2 SWAP1 POP JUMP JUMPDEST PUSH32 0x4469726563746F7279206164647265737320646F6573206E6F7420696D706C65 PUSH0 DUP3 ADD MSTORE PUSH32 0x6D656E74206F776E657228290000000000000000000000000000000000000000 PUSH1 0x20 DUP3 ADD MSTORE POP JUMP JUMPDEST PUSH0 PUSH2 0x3249 PUSH1 0x2C DUP4 PUSH2 0x28FF JUMP JUMPDEST SWAP2 POP PUSH2 0x3254 DUP3 PUSH2 0x31EF JUMP JUMPDEST PUSH1 0x40 DUP3 ADD SWAP1 POP SWAP2 SWAP1 POP JUMP JUMPDEST PUSH0 PUSH1 0x20 DUP3 ADD SWAP1 POP DUP2 DUP2 SUB PUSH0 DUP4 ADD MSTORE PUSH2 0x3276 DUP2 PUSH2 0x323D JUMP JUMPDEST SWAP1 POP SWAP2 SWAP1 POP JUMP JUMPDEST PUSH0 PUSH1 0x60 DUP3 ADD SWAP1 POP PUSH2 0x3290 PUSH0 DUP4 ADD DUP7 PUSH2 0x266F JUMP JUMPDEST PUSH2 0x329D PUSH1 0x20 DUP4 ADD DUP6 PUSH2 0x29DF JUMP JUMPDEST PUSH2 0x32AA PUSH1 0x40 DUP4 ADD DUP5 PUSH2 0x266F JUMP JUMPDEST SWAP5 SWAP4 POP POP POP POP JUMP JUMPDEST PUSH0 DUP2 MLOAD SWAP1 POP SWAP2 SWAP1 POP JUMP JUMPDEST PUSH0 DUP3 DUP3 MSTORE PUSH1 0x20 DUP3 ADD SWAP1 POP SWAP3 SWAP2 POP POP JUMP JUMPDEST PUSH0 DUP2 SWAP1 POP PUSH1 0x20 DUP3 ADD SWAP1 POP SWAP2 SWAP1 POP JUMP JUMPDEST PUSH2 0x32E4 DUP2 PUSH2 0x2446 JUMP JUMPDEST DUP3 MSTORE POP POP JUMP JUMPDEST PUSH1 0x40 DUP3 ADD PUSH0 DUP3 ADD MLOAD PUSH2 0x32FE PUSH0 DUP6 ADD DUP3 PUSH2 0x3019 JUMP JUMPDEST POP PUSH1 0x20 DUP3 ADD MLOAD PUSH2 0x3311 PUSH1 0x20 DUP6 ADD DUP3 PUSH2 0x32DB JUMP JUMPDEST POP POP POP POP JUMP JUMPDEST PUSH0 PUSH2 0x3322 DUP4 DUP4 PUSH2 0x32EA JUMP JUMPDEST PUSH1 0x40 DUP4 ADD SWAP1 POP SWAP3 SWAP2 POP POP JUMP JUMPDEST PUSH0 PUSH1 0x20 DUP3 ADD SWAP1 POP SWAP2 SWAP1 POP JUMP JUMPDEST PUSH0 PUSH2 0x3344 DUP3 PUSH2 0x32B2 JUMP JUMPDEST PUSH2 0x334E DUP2 DUP6 PUSH2 0x32BC JUMP JUMPDEST SWAP4 POP PUSH2 0x3359 DUP4 PUSH2 0x32CC JUMP JUMPDEST DUP1 PUSH0 JUMPDEST DUP4 DUP2 LT ISZERO PUSH2 0x3389 JUMPI DUP2 MLOAD PUSH2 0x3370 DUP9 DUP3 PUSH2 0x3317 JUMP JUMPDEST SWAP8 POP PUSH2 0x337B DUP4 PUSH2 0x332E JUMP JUMPDEST SWAP3 POP POP PUSH1 0x1 DUP2 ADD SWAP1 POP PUSH2 0x335C JUMP JUMPDEST POP DUP6 SWAP4 POP POP POP POP SWAP3 SWAP2 POP POP JUMP JUMPDEST PUSH2 0x339F DUP2 PUSH2 0x2835 JUMP JUMPDEST DUP3 MSTORE POP POP JUMP JUMPDEST PUSH0 PUSH1 0x80 DUP3 ADD SWAP1 POP DUP2 DUP2 SUB PUSH0 DUP4 ADD MSTORE PUSH2 0x33BD DUP2 DUP8 PUSH2 0x333A JUMP JUMPDEST SWAP1 POP PUSH2 0x33CC PUSH1 0x20 DUP4 ADD DUP7 PUSH2 0x3396 JUMP JUMPDEST PUSH2 0x33D9 PUSH1 0x40 DUP4 ADD DUP6 PUSH2 0x2342 JUMP JUMPDEST PUSH2 0x33E6 PUSH1 0x60 DUP4 ADD DUP5 PUSH2 0x241E JUMP JUMPDEST SWAP6 SWAP5 POP POP POP POP POP JUMP JUMPDEST PUSH0 DUP2 SWAP1 POP SWAP3 SWAP2 POP POP JUMP JUMPDEST POP JUMP JUMPDEST PUSH0 PUSH2 0x3407 PUSH0 DUP4 PUSH2 0x33EF JUMP JUMPDEST SWAP2 POP PUSH2 0x3412 DUP3 PUSH2 0x33F9 JUMP JUMPDEST PUSH0 DUP3 ADD SWAP1 POP SWAP2 SWAP1 POP JUMP JUMPDEST PUSH0 PUSH2 0x3426 DUP3 PUSH2 0x33FC JUMP JUMPDEST SWAP2 POP DUP2 SWAP1 POP SWAP2 SWAP1 POP JUMP JUMPDEST PUSH0 DUP2 MLOAD SWAP1 POP SWAP2 SWAP1 POP JUMP JUMPDEST PUSH0 PUSH2 0x3444 DUP3 PUSH2 0x3430 JUMP JUMPDEST PUSH2 0x344E DUP2 DUP6 PUSH2 0x33EF JUMP JUMPDEST SWAP4 POP PUSH2 0x345E DUP2 DUP6 PUSH1 0x20 DUP7 ADD PUSH2 0x2A0F JUMP JUMPDEST DUP1 DUP5 ADD SWAP2 POP POP SWAP3 SWAP2 POP POP JUMP JUMPDEST PUSH0 PUSH2 0x3475 DUP3 DUP5 PUSH2 0x343A JUMP JUMPDEST SWAP2 POP DUP2 SWAP1 POP SWAP3 SWAP2 POP POP JUMP JUMPDEST PUSH0 DUP2 MLOAD SWAP1 POP PUSH2 0x348E DUP2 PUSH2 0x270B JUMP JUMPDEST SWAP3 SWAP2 POP POP JUMP JUMPDEST PUSH0 PUSH1 0x20 DUP3 DUP5 SUB SLT ISZERO PUSH2 0x34A9 JUMPI PUSH2 0x34A8 PUSH2 0x2373 JUMP JUMPDEST JUMPDEST PUSH0 PUSH2 0x34B6 DUP5 DUP3 DUP6 ADD PUSH2 0x3480 JUMP JUMPDEST SWAP2 POP POP SWAP3 SWAP2 POP POP JUMP JUMPDEST PUSH32 0x5452414E534645525F4641494C45440000000000000000000000000000000000 PUSH0 DUP3 ADD MSTORE POP JUMP JUMPDEST PUSH0 PUSH2 0x34F3 PUSH1 0xF DUP4 PUSH2 0x28FF JUMP JUMPDEST SWAP2 POP PUSH2 0x34FE DUP3 PUSH2 0x34BF JUMP JUMPDEST PUSH1 0x20 DUP3 ADD SWAP1 POP SWAP2 SWAP1 POP JUMP JUMPDEST PUSH0 PUSH1 0x20 DUP3 ADD SWAP1 POP DUP2 DUP2 SUB PUSH0 DUP4 ADD MSTORE PUSH2 0x3520 DUP2 PUSH2 0x34E7 JUMP JUMPDEST SWAP1 POP SWAP2 SWAP1 POP JUMP INVALID LOG2 PUSH5 0x6970667358 0x22 SLT KECCAK256 ADDMOD 0xBF PUSH12 0x7C199BEB389D8F49879C4B7F CREATE 0xC9 0xC0 0xBA 0x25 0xAA 0x27 PUSH5 0x9E4F0F2CA7 0xD9 0xE DUP13 DUP13 PUSH5 0x736F6C6343 STOP ADDMOD 0x1E STOP CALLER "
				},
				"gasEstimates": {
					"creation": {
						"codeDepositCost": "2732200",
						"executionCost": "infinite",
						"totalCost": "infinite"
					},
					"external": {
						"DEFAULT_SLIPPAGE_BIPS()": "2518",
						"Directory()": "infinite",
						"changeDefaultSlippage(uint32)": "infinite",
						"changeDirectoryAddress(address)": "infinite",
						"changePlatformFee(uint16)": "infinite",
						"fetchFromDirectory(string)": "infinite",
						"isActive()": "2559",
						"mintEtfTokens(uint256,address)": "infinite",
						"owner()": "infinite",
						"platformFee()": "2555",
						"recoverAsset(address,address)": "infinite",
						"redeemEtfTokens(uint256,uint256,address)": "infinite",
						"setActive(bool)": "infinite"
					}
				},
				"methodIdentifiers": {
					"DEFAULT_SLIPPAGE_BIPS()": "0650b0fc",
					"Directory()": "658a847a",
					"changeDefaultSlippage(uint32)": "bb3367bd",
					"changeDirectoryAddress(address)": "ba4c7be1",
					"changePlatformFee(uint16)": "b42c0782",
					"fetchFromDirectory(string)": "27262618",
					"isActive()": "22f3e2d4",
					"mintEtfTokens(uint256,address)": "25c006f9",
					"owner()": "8da5cb5b",
					"platformFee()": "26232a2e",
					"recoverAsset(address,address)": "09053ac4",
					"redeemEtfTokens(uint256,uint256,address)": "e220d0de",
					"setActive(bool)": "acec338a"
				}
			},
			"storageLayout": {
				"storage": [
					{
						"astId": 180,
						"contract": "hopium/etf/main/etf-router.sol:EtfRouter",
						"label": "Directory",
						"offset": 0,
						"slot": "0",
						"type": "t_contract(IDirectory)177"
					},
					{
						"astId": 10,
						"contract": "hopium/etf/main/etf-router.sol:EtfRouter",
						"label": "_status",
						"offset": 0,
						"slot": "1",
						"type": "t_uint256"
					},
					{
						"astId": 1033,
						"contract": "hopium/etf/main/etf-router.sol:EtfRouter",
						"label": "platformFee",
						"offset": 0,
						"slot": "2",
						"type": "t_uint16"
					},
					{
						"astId": 139,
						"contract": "hopium/etf/main/etf-router.sol:EtfRouter",
						"label": "isActive",
						"offset": 2,
						"slot": "2",
						"type": "t_bool"
					},
					{
						"astId": 1534,
						"contract": "hopium/etf/main/etf-router.sol:EtfRouter",
						"label": "DEFAULT_SLIPPAGE_BIPS",
						"offset": 3,
						"slot": "2",
						"type": "t_uint32"
					}
				],
				"types": {
					"t_bool": {
						"encoding": "inplace",
						"label": "bool",
						"numberOfBytes": "1"
					},
					"t_contract(IDirectory)177": {
						"encoding": "inplace",
						"label": "contract IDirectory",
						"numberOfBytes": "20"
					},
					"t_uint16": {
						"encoding": "inplace",
						"label": "uint16",
						"numberOfBytes": "2"
					},
					"t_uint256": {
						"encoding": "inplace",
						"label": "uint256",
						"numberOfBytes": "32"
					},
					"t_uint32": {
						"encoding": "inplace",
						"label": "uint32",
						"numberOfBytes": "4"
					}
				}
			},
			"userdoc": {
				"kind": "user",
				"methods": {},
				"version": 1
			}
		}
	}
}