{
	"hopium/etf/main/index-factory.sol": {
		"IndexFactory": {
			"abi": [
				{
					"inputs": [
						{
							"internalType": "address",
							"name": "_directory",
							"type": "address"
						}
					],
					"stateMutability": "nonpayable",
					"type": "constructor"
				},
				{
					"anonymous": false,
					"inputs": [
						{
							"indexed": true,
							"internalType": "uint256",
							"name": "indexId",
							"type": "uint256"
						},
						{
							"components": [
								{
									"internalType": "string",
									"name": "name",
									"type": "string"
								},
								{
									"internalType": "string",
									"name": "ticker",
									"type": "string"
								},
								{
									"components": [
										{
											"internalType": "address",
											"name": "tokenAddress",
											"type": "address"
										},
										{
											"internalType": "uint16",
											"name": "weightBips",
											"type": "uint16"
										}
									],
									"internalType": "struct Holding[]",
									"name": "holdings",
									"type": "tuple[]"
								}
							],
							"indexed": false,
							"internalType": "struct Index",
							"name": "index",
							"type": "tuple"
						}
					],
					"name": "IndexCreated",
					"type": "event"
				},
				{
					"inputs": [],
					"name": "Directory",
					"outputs": [
						{
							"internalType": "contract IDirectory",
							"name": "",
							"type": "address"
						}
					],
					"stateMutability": "view",
					"type": "function"
				},
				{
					"inputs": [
						{
							"internalType": "address",
							"name": "_directory",
							"type": "address"
						}
					],
					"name": "changeDirectoryAddress",
					"outputs": [],
					"stateMutability": "nonpayable",
					"type": "function"
				},
				{
					"inputs": [
						{
							"components": [
								{
									"internalType": "string",
									"name": "name",
									"type": "string"
								},
								{
									"internalType": "string",
									"name": "ticker",
									"type": "string"
								},
								{
									"components": [
										{
											"internalType": "address",
											"name": "tokenAddress",
											"type": "address"
										},
										{
											"internalType": "uint16",
											"name": "weightBips",
											"type": "uint16"
										}
									],
									"internalType": "struct Holding[]",
									"name": "holdings",
									"type": "tuple[]"
								}
							],
							"internalType": "struct Index",
							"name": "index",
							"type": "tuple"
						}
					],
					"name": "createIndex",
					"outputs": [
						{
							"internalType": "uint256",
							"name": "",
							"type": "uint256"
						}
					],
					"stateMutability": "nonpayable",
					"type": "function"
				},
				{
					"inputs": [
						{
							"internalType": "string",
							"name": "_key",
							"type": "string"
						}
					],
					"name": "fetchFromDirectory",
					"outputs": [
						{
							"internalType": "address",
							"name": "",
							"type": "address"
						}
					],
					"stateMutability": "view",
					"type": "function"
				},
				{
					"inputs": [
						{
							"internalType": "uint256",
							"name": "indexId",
							"type": "uint256"
						}
					],
					"name": "getIndexById",
					"outputs": [
						{
							"components": [
								{
									"internalType": "string",
									"name": "name",
									"type": "string"
								},
								{
									"internalType": "string",
									"name": "ticker",
									"type": "string"
								},
								{
									"components": [
										{
											"internalType": "address",
											"name": "tokenAddress",
											"type": "address"
										},
										{
											"internalType": "uint16",
											"name": "weightBips",
											"type": "uint16"
										}
									],
									"internalType": "struct Holding[]",
									"name": "holdings",
									"type": "tuple[]"
								}
							],
							"internalType": "struct Index",
							"name": "",
							"type": "tuple"
						}
					],
					"stateMutability": "view",
					"type": "function"
				},
				{
					"inputs": [
						{
							"internalType": "string",
							"name": "ticker",
							"type": "string"
						}
					],
					"name": "getIndexByTicker",
					"outputs": [
						{
							"components": [
								{
									"internalType": "string",
									"name": "name",
									"type": "string"
								},
								{
									"internalType": "string",
									"name": "ticker",
									"type": "string"
								},
								{
									"components": [
										{
											"internalType": "address",
											"name": "tokenAddress",
											"type": "address"
										},
										{
											"internalType": "uint16",
											"name": "weightBips",
											"type": "uint16"
										}
									],
									"internalType": "struct Holding[]",
									"name": "holdings",
									"type": "tuple[]"
								}
							],
							"internalType": "struct Index",
							"name": "",
							"type": "tuple"
						}
					],
					"stateMutability": "view",
					"type": "function"
				},
				{
					"inputs": [],
					"name": "isActive",
					"outputs": [
						{
							"internalType": "bool",
							"name": "",
							"type": "bool"
						}
					],
					"stateMutability": "view",
					"type": "function"
				},
				{
					"inputs": [],
					"name": "owner",
					"outputs": [
						{
							"internalType": "address",
							"name": "",
							"type": "address"
						}
					],
					"stateMutability": "view",
					"type": "function"
				},
				{
					"inputs": [
						{
							"internalType": "bool",
							"name": "_active",
							"type": "bool"
						}
					],
					"name": "setActive",
					"outputs": [],
					"stateMutability": "nonpayable",
					"type": "function"
				},
				{
					"inputs": [],
					"name": "totalIndexes",
					"outputs": [
						{
							"internalType": "uint256",
							"name": "",
							"type": "uint256"
						}
					],
					"stateMutability": "view",
					"type": "function"
				}
			],
			"devdoc": {
				"kind": "dev",
				"methods": {},
				"version": 1
			},
			"evm": {
				"assembly": "    /* \"hopium/etf/main/index-factory.sol\":3626:5065  contract IndexFactory is ImDirectory, ValidationHelpers, ImEtfFactory, ImActive {... */\n  mstore(0x40, 0x80)\n    /* \"hopium/etf/main/index-factory.sol\":3712:3770  constructor(address _directory) ImDirectory(_directory) {} */\n  callvalue\n  dup1\n  iszero\n  tag_1\n  jumpi\n  revert(0x00, 0x00)\ntag_1:\n  pop\n  mload(0x40)\n  sub(codesize, bytecodeSize)\n  dup1\n  bytecodeSize\n  dup4\n  codecopy\n  dup2\n  dup2\n  add\n  0x40\n  mstore\n  dup2\n  add\n  swap1\n  tag_2\n  swap2\n  swap1\n  tag_3\n  jump\t// in\ntag_2:\n    /* \"hopium/etf/main/index-factory.sol\":3756:3766  _directory */\n  dup1\n    /* \"hopium/common/interface/imDirectory.sol\":412:437  _setDirectory(_directory) */\n  tag_7\n    /* \"hopium/common/interface/imDirectory.sol\":426:436  _directory */\n  dup2\n    /* \"hopium/common/interface/imDirectory.sol\":412:425  _setDirectory */\n  shl(0x20, tag_8)\n    /* \"hopium/common/interface/imDirectory.sol\":412:437  _setDirectory(_directory) */\n  0x20\n  shr\n  jump\t// in\ntag_7:\n    /* \"hopium/common/interface/imDirectory.sol\":370:464  constructor(address _directory) {... */\n  pop\n    /* \"hopium/etf/main/index-factory.sol\":3712:3770  constructor(address _directory) ImDirectory(_directory) {} */\n  pop\n    /* \"hopium/etf/main/index-factory.sol\":3626:5065  contract IndexFactory is ImDirectory, ValidationHelpers, ImEtfFactory, ImActive {... */\n  jump(tag_10)\n    /* \"hopium/common/interface/imDirectory.sol\":589:1050  function _setDirectory(address _directory) internal {... */\ntag_8:\n    /* \"hopium/common/interface/imDirectory.sol\":681:682  0 */\n  0x00\n    /* \"hopium/common/interface/imDirectory.sol\":659:683  _directory != address(0) */\n  0xffffffffffffffffffffffffffffffffffffffff\n  and\n    /* \"hopium/common/interface/imDirectory.sol\":659:669  _directory */\n  dup2\n    /* \"hopium/common/interface/imDirectory.sol\":659:683  _directory != address(0) */\n  0xffffffffffffffffffffffffffffffffffffffff\n  and\n  sub\n    /* \"hopium/common/interface/imDirectory.sol\":651:720  require(_directory != address(0), \"Directory cannot be zero address\") */\n  tag_12\n  jumpi\n  mload(0x40)\n  0x08c379a000000000000000000000000000000000000000000000000000000000\n  dup2\n  mstore\n  0x04\n  add\n  tag_13\n  swap1\n  tag_14\n  jump\t// in\ntag_13:\n  mload(0x40)\n  dup1\n  swap2\n  sub\n  swap1\n  revert\ntag_12:\n    /* \"hopium/common/interface/imDirectory.sol\":763:764  0 */\n  0x00\n    /* \"hopium/common/interface/imDirectory.sol\":738:748  _directory */\n  dup2\n    /* \"hopium/common/interface/imDirectory.sol\":738:760  _directory.code.length */\n  0xffffffffffffffffffffffffffffffffffffffff\n  and\n  extcodesize\n    /* \"hopium/common/interface/imDirectory.sol\":738:764  _directory.code.length > 0 */\n  gt\n    /* \"hopium/common/interface/imDirectory.sol\":730:797  require(_directory.code.length > 0, \"Directory must be a contract\") */\n  tag_15\n  jumpi\n  mload(0x40)\n  0x08c379a000000000000000000000000000000000000000000000000000000000\n  dup2\n  mstore\n  0x04\n  add\n  tag_16\n  swap1\n  tag_17\n  jump\t// in\ntag_16:\n  mload(0x40)\n  dup1\n  swap2\n  sub\n  swap1\n  revert\ntag_15:\n    /* \"hopium/common/interface/imDirectory.sol\":861:871  _directory */\n  dup1\n    /* \"hopium/common/interface/imDirectory.sol\":850:878  IDirectory(_directory).owner */\n  0xffffffffffffffffffffffffffffffffffffffff\n  and\n  0x8da5cb5b\n    /* \"hopium/common/interface/imDirectory.sol\":850:880  IDirectory(_directory).owner() */\n  mload(0x40)\n  dup2\n  0xffffffff\n  and\n  0xe0\n  shl\n  dup2\n  mstore\n  0x04\n  add\n  0x20\n  mload(0x40)\n  dup1\n  dup4\n  sub\n  dup2\n  dup7\n  gas\n  staticcall\n  swap3\n  pop\n  pop\n  pop\n  dup1\n  iszero\n  tag_18\n  jumpi\n  pop\n  mload(0x40)\n  returndatasize\n  not(0x1f)\n  0x1f\n  dup3\n  add\n  and\n  dup3\n  add\n  dup1\n  0x40\n  mstore\n  pop\n  dup2\n  add\n  swap1\n  tag_19\n  swap2\n  swap1\n  tag_3\n  jump\t// in\ntag_19:\n  0x01\ntag_18:\n    /* \"hopium/common/interface/imDirectory.sol\":846:1044  try IDirectory(_directory).owner() returns (address) {... */\n  tag_20\n  jumpi\n    /* \"hopium/common/interface/imDirectory.sol\":979:1033  revert(\"Directory address does not implement owner()\") */\n  mload(0x40)\n  0x08c379a000000000000000000000000000000000000000000000000000000000\n  dup2\n  mstore\n  0x04\n  add\n  tag_24\n  swap1\n  tag_25\n  jump\t// in\ntag_24:\n  mload(0x40)\n  dup1\n  swap2\n  sub\n  swap1\n  revert\n    /* \"hopium/common/interface/imDirectory.sol\":846:1044  try IDirectory(_directory).owner() returns (address) {... */\ntag_20:\n    /* \"hopium/common/interface/imDirectory.sol\":936:946  _directory */\n  dup2\n    /* \"hopium/common/interface/imDirectory.sol\":913:922  Directory */\n  0x03\n  0x00\n    /* \"hopium/common/interface/imDirectory.sol\":913:947  Directory = IDirectory(_directory) */\n  0x0100\n  exp\n  dup2\n  sload\n  dup2\n  0xffffffffffffffffffffffffffffffffffffffff\n  mul\n  not\n  and\n  swap1\n  dup4\n  0xffffffffffffffffffffffffffffffffffffffff\n  and\n  mul\n  or\n  swap1\n  sstore\n  pop\n    /* \"hopium/common/interface/imDirectory.sol\":881:958  returns (address) {... */\n  pop\n    /* \"hopium/common/interface/imDirectory.sol\":589:1050  function _setDirectory(address _directory) internal {... */\n  pop\n  jump\t// out\n    /* \"#utility.yul\":88:205   */\ntag_28:\n    /* \"#utility.yul\":197:198   */\n  0x00\n    /* \"#utility.yul\":194:195   */\n  0x00\n    /* \"#utility.yul\":187:199   */\n  revert\n    /* \"#utility.yul\":334:460   */\ntag_30:\n    /* \"#utility.yul\":371:378   */\n  0x00\n    /* \"#utility.yul\":411:453   */\n  0xffffffffffffffffffffffffffffffffffffffff\n    /* \"#utility.yul\":404:409   */\n  dup3\n    /* \"#utility.yul\":400:454   */\n  and\n    /* \"#utility.yul\":389:454   */\n  swap1\n  pop\n    /* \"#utility.yul\":334:460   */\n  swap2\n  swap1\n  pop\n  jump\t// out\n    /* \"#utility.yul\":466:562   */\ntag_31:\n    /* \"#utility.yul\":503:510   */\n  0x00\n    /* \"#utility.yul\":532:556   */\n  tag_47\n    /* \"#utility.yul\":550:555   */\n  dup3\n    /* \"#utility.yul\":532:556   */\n  tag_30\n  jump\t// in\ntag_47:\n    /* \"#utility.yul\":521:556   */\n  swap1\n  pop\n    /* \"#utility.yul\":466:562   */\n  swap2\n  swap1\n  pop\n  jump\t// out\n    /* \"#utility.yul\":568:690   */\ntag_32:\n    /* \"#utility.yul\":641:665   */\n  tag_49\n    /* \"#utility.yul\":659:664   */\n  dup2\n    /* \"#utility.yul\":641:665   */\n  tag_31\n  jump\t// in\ntag_49:\n    /* \"#utility.yul\":634:639   */\n  dup2\n    /* \"#utility.yul\":631:666   */\n  eq\n    /* \"#utility.yul\":621:684   */\n  tag_50\n  jumpi\n    /* \"#utility.yul\":680:681   */\n  0x00\n    /* \"#utility.yul\":677:678   */\n  0x00\n    /* \"#utility.yul\":670:682   */\n  revert\n    /* \"#utility.yul\":621:684   */\ntag_50:\n    /* \"#utility.yul\":568:690   */\n  pop\n  jump\t// out\n    /* \"#utility.yul\":696:839   */\ntag_33:\n    /* \"#utility.yul\":753:758   */\n  0x00\n    /* \"#utility.yul\":784:790   */\n  dup2\n    /* \"#utility.yul\":778:791   */\n  mload\n    /* \"#utility.yul\":769:791   */\n  swap1\n  pop\n    /* \"#utility.yul\":800:833   */\n  tag_52\n    /* \"#utility.yul\":827:832   */\n  dup2\n    /* \"#utility.yul\":800:833   */\n  tag_32\n  jump\t// in\ntag_52:\n    /* \"#utility.yul\":696:839   */\n  swap3\n  swap2\n  pop\n  pop\n  jump\t// out\n    /* \"#utility.yul\":845:1196   */\ntag_3:\n    /* \"#utility.yul\":915:921   */\n  0x00\n    /* \"#utility.yul\":964:966   */\n  0x20\n    /* \"#utility.yul\":952:961   */\n  dup3\n    /* \"#utility.yul\":943:950   */\n  dup5\n    /* \"#utility.yul\":939:962   */\n  sub\n    /* \"#utility.yul\":935:967   */\n  slt\n    /* \"#utility.yul\":932:1051   */\n  iszero\n  tag_54\n  jumpi\n    /* \"#utility.yul\":970:1049   */\n  tag_55\n  tag_28\n  jump\t// in\ntag_55:\n    /* \"#utility.yul\":932:1051   */\ntag_54:\n    /* \"#utility.yul\":1090:1091   */\n  0x00\n    /* \"#utility.yul\":1115:1179   */\n  tag_56\n    /* \"#utility.yul\":1171:1178   */\n  dup5\n    /* \"#utility.yul\":1162:1168   */\n  dup3\n    /* \"#utility.yul\":1151:1160   */\n  dup6\n    /* \"#utility.yul\":1147:1169   */\n  add\n    /* \"#utility.yul\":1115:1179   */\n  tag_33\n  jump\t// in\ntag_56:\n    /* \"#utility.yul\":1105:1179   */\n  swap2\n  pop\n    /* \"#utility.yul\":1061:1189   */\n  pop\n    /* \"#utility.yul\":845:1196   */\n  swap3\n  swap2\n  pop\n  pop\n  jump\t// out\n    /* \"#utility.yul\":1202:1371   */\ntag_34:\n    /* \"#utility.yul\":1286:1297   */\n  0x00\n    /* \"#utility.yul\":1320:1326   */\n  dup3\n    /* \"#utility.yul\":1315:1318   */\n  dup3\n    /* \"#utility.yul\":1308:1327   */\n  mstore\n    /* \"#utility.yul\":1360:1364   */\n  0x20\n    /* \"#utility.yul\":1355:1358   */\n  dup3\n    /* \"#utility.yul\":1351:1365   */\n  add\n    /* \"#utility.yul\":1336:1365   */\n  swap1\n  pop\n    /* \"#utility.yul\":1202:1371   */\n  swap3\n  swap2\n  pop\n  pop\n  jump\t// out\n    /* \"#utility.yul\":1377:1559   */\ntag_35:\n    /* \"#utility.yul\":1517:1551   */\n  0x4469726563746f72792063616e6e6f74206265207a65726f2061646472657373\n    /* \"#utility.yul\":1513:1514   */\n  0x00\n    /* \"#utility.yul\":1505:1511   */\n  dup3\n    /* \"#utility.yul\":1501:1515   */\n  add\n    /* \"#utility.yul\":1494:1552   */\n  mstore\n    /* \"#utility.yul\":1377:1559   */\n  pop\n  jump\t// out\n    /* \"#utility.yul\":1565:1931   */\ntag_36:\n    /* \"#utility.yul\":1707:1710   */\n  0x00\n    /* \"#utility.yul\":1728:1795   */\n  tag_60\n    /* \"#utility.yul\":1792:1794   */\n  0x20\n    /* \"#utility.yul\":1787:1790   */\n  dup4\n    /* \"#utility.yul\":1728:1795   */\n  tag_34\n  jump\t// in\ntag_60:\n    /* \"#utility.yul\":1721:1795   */\n  swap2\n  pop\n    /* \"#utility.yul\":1804:1897   */\n  tag_61\n    /* \"#utility.yul\":1893:1896   */\n  dup3\n    /* \"#utility.yul\":1804:1897   */\n  tag_35\n  jump\t// in\ntag_61:\n    /* \"#utility.yul\":1922:1924   */\n  0x20\n    /* \"#utility.yul\":1917:1920   */\n  dup3\n    /* \"#utility.yul\":1913:1925   */\n  add\n    /* \"#utility.yul\":1906:1925   */\n  swap1\n  pop\n    /* \"#utility.yul\":1565:1931   */\n  swap2\n  swap1\n  pop\n  jump\t// out\n    /* \"#utility.yul\":1937:2356   */\ntag_14:\n    /* \"#utility.yul\":2103:2107   */\n  0x00\n    /* \"#utility.yul\":2141:2143   */\n  0x20\n    /* \"#utility.yul\":2130:2139   */\n  dup3\n    /* \"#utility.yul\":2126:2144   */\n  add\n    /* \"#utility.yul\":2118:2144   */\n  swap1\n  pop\n    /* \"#utility.yul\":2190:2199   */\n  dup2\n    /* \"#utility.yul\":2184:2188   */\n  dup2\n    /* \"#utility.yul\":2180:2200   */\n  sub\n    /* \"#utility.yul\":2176:2177   */\n  0x00\n    /* \"#utility.yul\":2165:2174   */\n  dup4\n    /* \"#utility.yul\":2161:2178   */\n  add\n    /* \"#utility.yul\":2154:2201   */\n  mstore\n    /* \"#utility.yul\":2218:2349   */\n  tag_63\n    /* \"#utility.yul\":2344:2348   */\n  dup2\n    /* \"#utility.yul\":2218:2349   */\n  tag_36\n  jump\t// in\ntag_63:\n    /* \"#utility.yul\":2210:2349   */\n  swap1\n  pop\n    /* \"#utility.yul\":1937:2356   */\n  swap2\n  swap1\n  pop\n  jump\t// out\n    /* \"#utility.yul\":2362:2540   */\ntag_37:\n    /* \"#utility.yul\":2502:2532   */\n  0x4469726563746f7279206d757374206265206120636f6e747261637400000000\n    /* \"#utility.yul\":2498:2499   */\n  0x00\n    /* \"#utility.yul\":2490:2496   */\n  dup3\n    /* \"#utility.yul\":2486:2500   */\n  add\n    /* \"#utility.yul\":2479:2533   */\n  mstore\n    /* \"#utility.yul\":2362:2540   */\n  pop\n  jump\t// out\n    /* \"#utility.yul\":2546:2912   */\ntag_38:\n    /* \"#utility.yul\":2688:2691   */\n  0x00\n    /* \"#utility.yul\":2709:2776   */\n  tag_66\n    /* \"#utility.yul\":2773:2775   */\n  0x1c\n    /* \"#utility.yul\":2768:2771   */\n  dup4\n    /* \"#utility.yul\":2709:2776   */\n  tag_34\n  jump\t// in\ntag_66:\n    /* \"#utility.yul\":2702:2776   */\n  swap2\n  pop\n    /* \"#utility.yul\":2785:2878   */\n  tag_67\n    /* \"#utility.yul\":2874:2877   */\n  dup3\n    /* \"#utility.yul\":2785:2878   */\n  tag_37\n  jump\t// in\ntag_67:\n    /* \"#utility.yul\":2903:2905   */\n  0x20\n    /* \"#utility.yul\":2898:2901   */\n  dup3\n    /* \"#utility.yul\":2894:2906   */\n  add\n    /* \"#utility.yul\":2887:2906   */\n  swap1\n  pop\n    /* \"#utility.yul\":2546:2912   */\n  swap2\n  swap1\n  pop\n  jump\t// out\n    /* \"#utility.yul\":2918:3337   */\ntag_17:\n    /* \"#utility.yul\":3084:3088   */\n  0x00\n    /* \"#utility.yul\":3122:3124   */\n  0x20\n    /* \"#utility.yul\":3111:3120   */\n  dup3\n    /* \"#utility.yul\":3107:3125   */\n  add\n    /* \"#utility.yul\":3099:3125   */\n  swap1\n  pop\n    /* \"#utility.yul\":3171:3180   */\n  dup2\n    /* \"#utility.yul\":3165:3169   */\n  dup2\n    /* \"#utility.yul\":3161:3181   */\n  sub\n    /* \"#utility.yul\":3157:3158   */\n  0x00\n    /* \"#utility.yul\":3146:3155   */\n  dup4\n    /* \"#utility.yul\":3142:3159   */\n  add\n    /* \"#utility.yul\":3135:3182   */\n  mstore\n    /* \"#utility.yul\":3199:3330   */\n  tag_69\n    /* \"#utility.yul\":3325:3329   */\n  dup2\n    /* \"#utility.yul\":3199:3330   */\n  tag_38\n  jump\t// in\ntag_69:\n    /* \"#utility.yul\":3191:3330   */\n  swap1\n  pop\n    /* \"#utility.yul\":2918:3337   */\n  swap2\n  swap1\n  pop\n  jump\t// out\n    /* \"#utility.yul\":3343:3574   */\ntag_39:\n    /* \"#utility.yul\":3483:3517   */\n  0x4469726563746f7279206164647265737320646f6573206e6f7420696d706c65\n    /* \"#utility.yul\":3479:3480   */\n  0x00\n    /* \"#utility.yul\":3471:3477   */\n  dup3\n    /* \"#utility.yul\":3467:3481   */\n  add\n    /* \"#utility.yul\":3460:3518   */\n  mstore\n    /* \"#utility.yul\":3552:3566   */\n  0x6d656e74206f776e657228290000000000000000000000000000000000000000\n    /* \"#utility.yul\":3547:3549   */\n  0x20\n    /* \"#utility.yul\":3539:3545   */\n  dup3\n    /* \"#utility.yul\":3535:3550   */\n  add\n    /* \"#utility.yul\":3528:3567   */\n  mstore\n    /* \"#utility.yul\":3343:3574   */\n  pop\n  jump\t// out\n    /* \"#utility.yul\":3580:3946   */\ntag_40:\n    /* \"#utility.yul\":3722:3725   */\n  0x00\n    /* \"#utility.yul\":3743:3810   */\n  tag_72\n    /* \"#utility.yul\":3807:3809   */\n  0x2c\n    /* \"#utility.yul\":3802:3805   */\n  dup4\n    /* \"#utility.yul\":3743:3810   */\n  tag_34\n  jump\t// in\ntag_72:\n    /* \"#utility.yul\":3736:3810   */\n  swap2\n  pop\n    /* \"#utility.yul\":3819:3912   */\n  tag_73\n    /* \"#utility.yul\":3908:3911   */\n  dup3\n    /* \"#utility.yul\":3819:3912   */\n  tag_39\n  jump\t// in\ntag_73:\n    /* \"#utility.yul\":3937:3939   */\n  0x40\n    /* \"#utility.yul\":3932:3935   */\n  dup3\n    /* \"#utility.yul\":3928:3940   */\n  add\n    /* \"#utility.yul\":3921:3940   */\n  swap1\n  pop\n    /* \"#utility.yul\":3580:3946   */\n  swap2\n  swap1\n  pop\n  jump\t// out\n    /* \"#utility.yul\":3952:4371   */\ntag_25:\n    /* \"#utility.yul\":4118:4122   */\n  0x00\n    /* \"#utility.yul\":4156:4158   */\n  0x20\n    /* \"#utility.yul\":4145:4154   */\n  dup3\n    /* \"#utility.yul\":4141:4159   */\n  add\n    /* \"#utility.yul\":4133:4159   */\n  swap1\n  pop\n    /* \"#utility.yul\":4205:4214   */\n  dup2\n    /* \"#utility.yul\":4199:4203   */\n  dup2\n    /* \"#utility.yul\":4195:4215   */\n  sub\n    /* \"#utility.yul\":4191:4192   */\n  0x00\n    /* \"#utility.yul\":4180:4189   */\n  dup4\n    /* \"#utility.yul\":4176:4193   */\n  add\n    /* \"#utility.yul\":4169:4216   */\n  mstore\n    /* \"#utility.yul\":4233:4364   */\n  tag_75\n    /* \"#utility.yul\":4359:4363   */\n  dup2\n    /* \"#utility.yul\":4233:4364   */\n  tag_40\n  jump\t// in\ntag_75:\n    /* \"#utility.yul\":4225:4364   */\n  swap1\n  pop\n    /* \"#utility.yul\":3952:4371   */\n  swap2\n  swap1\n  pop\n  jump\t// out\n    /* \"hopium/etf/main/index-factory.sol\":3626:5065  contract IndexFactory is ImDirectory, ValidationHelpers, ImEtfFactory, ImActive {... */\ntag_10:\n  dataSize(sub_0)\n  dup1\n  dataOffset(sub_0)\n  0x00\n  codecopy\n  0x00\n  return\nstop\n\nsub_0: assembly {\n        /* \"hopium/etf/main/index-factory.sol\":3626:5065  contract IndexFactory is ImDirectory, ValidationHelpers, ImEtfFactory, ImActive {... */\n      mstore(0x40, 0x80)\n      callvalue\n      dup1\n      iszero\n      tag_1\n      jumpi\n      revert(0x00, 0x00)\n    tag_1:\n      pop\n      jumpi(tag_2, lt(calldatasize, 0x04))\n      shr(0xe0, calldataload(0x00))\n      dup1\n      0x658a847a\n      gt\n      tag_13\n      jumpi\n      dup1\n      0x658a847a\n      eq\n      tag_8\n      jumpi\n      dup1\n      0x8da5cb5b\n      eq\n      tag_9\n      jumpi\n      dup1\n      0xab73314d\n      eq\n      tag_10\n      jumpi\n      dup1\n      0xacec338a\n      eq\n      tag_11\n      jumpi\n      dup1\n      0xba4c7be1\n      eq\n      tag_12\n      jumpi\n      jump(tag_2)\n    tag_13:\n      dup1\n      0x22f3e2d4\n      eq\n      tag_3\n      jumpi\n      dup1\n      0x27262618\n      eq\n      tag_4\n      jumpi\n      dup1\n      0x2ff910ce\n      eq\n      tag_5\n      jumpi\n      dup1\n      0x428d9a93\n      eq\n      tag_6\n      jumpi\n      dup1\n      0x549e122b\n      eq\n      tag_7\n      jumpi\n    tag_2:\n      revert(0x00, 0x00)\n        /* \"hopium/common/interface/imActive.sol\":156:176  bool public isActive */\n    tag_3:\n      tag_14\n      tag_15\n      jump\t// in\n    tag_14:\n      mload(0x40)\n      tag_16\n      swap2\n      swap1\n      tag_17\n      jump\t// in\n    tag_16:\n      mload(0x40)\n      dup1\n      swap2\n      sub\n      swap1\n      return\n        /* \"hopium/common/interface/imDirectory.sol\":1272:1408  function fetchFromDirectory(string memory _key) public view returns (address) {... */\n    tag_4:\n      tag_18\n      0x04\n      dup1\n      calldatasize\n      sub\n      dup2\n      add\n      swap1\n      tag_19\n      swap2\n      swap1\n      tag_20\n      jump\t// in\n    tag_19:\n      tag_21\n      jump\t// in\n    tag_18:\n      mload(0x40)\n      tag_22\n      swap2\n      swap1\n      tag_23\n      jump\t// in\n    tag_22:\n      mload(0x40)\n      dup1\n      swap2\n      sub\n      swap1\n      return\n        /* \"hopium/etf/main/index-factory.sol\":4505:4604  function totalIndexes() public view returns (uint256) {... */\n    tag_5:\n      tag_24\n      tag_25\n      jump\t// in\n    tag_24:\n      mload(0x40)\n      tag_26\n      swap2\n      swap1\n      tag_27\n      jump\t// in\n    tag_26:\n      mload(0x40)\n      dup1\n      swap2\n      sub\n      swap1\n      return\n        /* \"hopium/etf/main/index-factory.sol\":3862:4477  function createIndex(Index calldata index) public onlyEtfFactory onlyActive returns (uint256) {... */\n    tag_6:\n      tag_28\n      0x04\n      dup1\n      calldatasize\n      sub\n      dup2\n      add\n      swap1\n      tag_29\n      swap2\n      swap1\n      tag_30\n      jump\t// in\n    tag_29:\n      tag_31\n      jump\t// in\n    tag_28:\n      mload(0x40)\n      tag_32\n      swap2\n      swap1\n      tag_27\n      jump\t// in\n    tag_32:\n      mload(0x40)\n      dup1\n      swap2\n      sub\n      swap1\n      return\n        /* \"hopium/etf/main/index-factory.sol\":4610:4827  function getIndexById(uint256 indexId) public view returns (Index memory) {... */\n    tag_7:\n      tag_33\n      0x04\n      dup1\n      calldatasize\n      sub\n      dup2\n      add\n      swap1\n      tag_34\n      swap2\n      swap1\n      tag_35\n      jump\t// in\n    tag_34:\n      tag_36\n      jump\t// in\n    tag_33:\n      mload(0x40)\n      tag_37\n      swap2\n      swap1\n      tag_38\n      jump\t// in\n    tag_37:\n      mload(0x40)\n      dup1\n      swap2\n      sub\n      swap1\n      return\n        /* \"hopium/common/interface/imDirectory.sol\":336:363  IDirectory public Directory */\n    tag_8:\n      tag_39\n      tag_40\n      jump\t// in\n    tag_39:\n      mload(0x40)\n      tag_41\n      swap2\n      swap1\n      tag_42\n      jump\t// in\n    tag_41:\n      mload(0x40)\n      dup1\n      swap2\n      sub\n      swap1\n      return\n        /* \"hopium/common/interface/imDirectory.sol\":1178:1266  function owner() public view returns (address) {... */\n    tag_9:\n      tag_43\n      tag_44\n      jump\t// in\n    tag_43:\n      mload(0x40)\n      tag_45\n      swap2\n      swap1\n      tag_23\n      jump\t// in\n    tag_45:\n      mload(0x40)\n      dup1\n      swap2\n      sub\n      swap1\n      return\n        /* \"hopium/etf/main/index-factory.sol\":4833:5063  function getIndexByTicker(string calldata ticker) public view returns (Index memory) {... */\n    tag_10:\n      tag_46\n      0x04\n      dup1\n      calldatasize\n      sub\n      dup2\n      add\n      swap1\n      tag_47\n      swap2\n      swap1\n      tag_48\n      jump\t// in\n    tag_47:\n      tag_49\n      jump\t// in\n    tag_46:\n      mload(0x40)\n      tag_50\n      swap2\n      swap1\n      tag_38\n      jump\t// in\n    tag_50:\n      mload(0x40)\n      dup1\n      swap2\n      sub\n      swap1\n      return\n        /* \"hopium/common/interface/imActive.sol\":282:367  function setActive(bool _active) public onlyOwner {... */\n    tag_11:\n      tag_51\n      0x04\n      dup1\n      calldatasize\n      sub\n      dup2\n      add\n      swap1\n      tag_52\n      swap2\n      swap1\n      tag_53\n      jump\t// in\n    tag_52:\n      tag_54\n      jump\t// in\n    tag_51:\n      stop\n        /* \"hopium/common/interface/imDirectory.sol\":470:583  function changeDirectoryAddress(address _directory) external onlyOwner {... */\n    tag_12:\n      tag_55\n      0x04\n      dup1\n      calldatasize\n      sub\n      dup2\n      add\n      swap1\n      tag_56\n      swap2\n      swap1\n      tag_57\n      jump\t// in\n    tag_56:\n      tag_58\n      jump\t// in\n    tag_55:\n      stop\n        /* \"hopium/common/interface/imActive.sol\":156:176  bool public isActive */\n    tag_15:\n      0x03\n      0x14\n      swap1\n      sload\n      swap1\n      0x0100\n      exp\n      swap1\n      div\n      0xff\n      and\n      dup2\n      jump\t// out\n        /* \"hopium/common/interface/imDirectory.sol\":1272:1408  function fetchFromDirectory(string memory _key) public view returns (address) {... */\n    tag_21:\n        /* \"hopium/common/interface/imDirectory.sol\":1341:1348  address */\n      0x00\n        /* \"hopium/common/interface/imDirectory.sol\":1367:1376  Directory */\n      0x03\n      0x00\n      swap1\n      sload\n      swap1\n      0x0100\n      exp\n      swap1\n      div\n      0xffffffffffffffffffffffffffffffffffffffff\n      and\n        /* \"hopium/common/interface/imDirectory.sol\":1367:1395  Directory.fetchFromDirectory */\n      0xffffffffffffffffffffffffffffffffffffffff\n      and\n      0x27262618\n        /* \"hopium/common/interface/imDirectory.sol\":1396:1400  _key */\n      dup4\n        /* \"hopium/common/interface/imDirectory.sol\":1367:1401  Directory.fetchFromDirectory(_key) */\n      mload(0x40)\n      dup3\n      0xffffffff\n      and\n      0xe0\n      shl\n      dup2\n      mstore\n      0x04\n      add\n      tag_60\n      swap2\n      swap1\n      tag_61\n      jump\t// in\n    tag_60:\n      0x20\n      mload(0x40)\n      dup1\n      dup4\n      sub\n      dup2\n      dup7\n      gas\n      staticcall\n      iszero\n      dup1\n      iszero\n      tag_63\n      jumpi\n      returndatacopy(0x00, 0x00, returndatasize)\n      revert(0x00, returndatasize)\n    tag_63:\n      pop\n      pop\n      pop\n      pop\n      mload(0x40)\n      returndatasize\n      not(0x1f)\n      0x1f\n      dup3\n      add\n      and\n      dup3\n      add\n      dup1\n      0x40\n      mstore\n      pop\n      dup2\n      add\n      swap1\n      tag_64\n      swap2\n      swap1\n      tag_65\n      jump\t// in\n    tag_64:\n        /* \"hopium/common/interface/imDirectory.sol\":1360:1401  return Directory.fetchFromDirectory(_key) */\n      swap1\n      pop\n        /* \"hopium/common/interface/imDirectory.sol\":1272:1408  function fetchFromDirectory(string memory _key) public view returns (address) {... */\n      swap2\n      swap1\n      pop\n      jump\t// out\n        /* \"hopium/etf/main/index-factory.sol\":4505:4604  function totalIndexes() public view returns (uint256) {... */\n    tag_25:\n        /* \"hopium/etf/main/index-factory.sol\":4550:4557  uint256 */\n      0x00\n        /* \"hopium/etf/main/index-factory.sol\":4576:4590  createdIndexes */\n      0x00\n        /* \"hopium/etf/main/index-factory.sol\":4576:4597  createdIndexes.length */\n      dup1\n      sload\n      swap1\n      pop\n        /* \"hopium/etf/main/index-factory.sol\":4569:4597  return createdIndexes.length */\n      swap1\n      pop\n        /* \"hopium/etf/main/index-factory.sol\":4505:4604  function totalIndexes() public view returns (uint256) {... */\n      swap1\n      jump\t// out\n        /* \"hopium/etf/main/index-factory.sol\":3862:4477  function createIndex(Index calldata index) public onlyEtfFactory onlyActive returns (uint256) {... */\n    tag_31:\n        /* \"hopium/etf/main/index-factory.sol\":3947:3954  uint256 */\n      0x00\n        /* \"hopium/etf/interface/imEtfFactory.sol\":636:669  fetchFromDirectory(\"etf-factory\") */\n      tag_68\n      mload(0x40)\n      dup1\n      0x40\n      add\n      0x40\n      mstore\n      dup1\n      0x0b\n      dup2\n      mstore\n      0x20\n      add\n      0x6574662d666163746f7279000000000000000000000000000000000000000000\n      dup2\n      mstore\n      pop\n        /* \"hopium/etf/interface/imEtfFactory.sol\":636:654  fetchFromDirectory */\n      tag_21\n        /* \"hopium/etf/interface/imEtfFactory.sol\":636:669  fetchFromDirectory(\"etf-factory\") */\n      jump\t// in\n    tag_68:\n        /* \"hopium/etf/interface/imEtfFactory.sol\":622:669  msg.sender == fetchFromDirectory(\"etf-factory\") */\n      0xffffffffffffffffffffffffffffffffffffffff\n      and\n        /* \"hopium/etf/interface/imEtfFactory.sol\":622:632  msg.sender */\n      caller\n        /* \"hopium/etf/interface/imEtfFactory.sol\":622:669  msg.sender == fetchFromDirectory(\"etf-factory\") */\n      0xffffffffffffffffffffffffffffffffffffffff\n      and\n      eq\n        /* \"hopium/etf/interface/imEtfFactory.sol\":614:703  require(msg.sender == fetchFromDirectory(\"etf-factory\"), \"msg.sender is not etf factory\") */\n      tag_69\n      jumpi\n      mload(0x40)\n      0x08c379a000000000000000000000000000000000000000000000000000000000\n      dup2\n      mstore\n      0x04\n      add\n      tag_70\n      swap1\n      tag_71\n      jump\t// in\n    tag_70:\n      mload(0x40)\n      dup1\n      swap2\n      sub\n      swap1\n      revert\n    tag_69:\n        /* \"hopium/common/interface/imActive.sol\":223:231  isActive */\n      0x03\n      0x14\n      swap1\n      sload\n      swap1\n      0x0100\n      exp\n      swap1\n      div\n      0xff\n      and\n        /* \"hopium/common/interface/imActive.sol\":215:258  require(isActive, \"Contract is not active\") */\n      tag_73\n      jumpi\n      mload(0x40)\n      0x08c379a000000000000000000000000000000000000000000000000000000000\n      dup2\n      mstore\n      0x04\n      add\n      tag_74\n      swap1\n      tag_75\n      jump\t// in\n    tag_74:\n      mload(0x40)\n      dup1\n      swap2\n      sub\n      swap1\n      revert\n    tag_73:\n        /* \"hopium/etf/main/index-factory.sol\":3966:3995  _validateTicker(index.ticker) */\n      tag_77\n        /* \"hopium/etf/main/index-factory.sol\":3982:3987  index */\n      dup3\n        /* \"hopium/etf/main/index-factory.sol\":3982:3994  index.ticker */\n      dup1\n      0x20\n      add\n      swap1\n      tag_78\n      swap2\n      swap1\n      tag_79\n      jump\t// in\n    tag_78:\n        /* \"hopium/etf/main/index-factory.sol\":3966:3981  _validateTicker */\n      tag_80\n        /* \"hopium/etf/main/index-factory.sol\":3966:3995  _validateTicker(index.ticker) */\n      jump\t// in\n    tag_77:\n        /* \"hopium/etf/main/index-factory.sol\":4005:4038  _validateHoldings(index.holdings) */\n      tag_81\n        /* \"hopium/etf/main/index-factory.sol\":4023:4028  index */\n      dup3\n        /* \"hopium/etf/main/index-factory.sol\":4023:4037  index.holdings */\n      dup1\n      0x40\n      add\n      swap1\n      tag_82\n      swap2\n      swap1\n      tag_83\n      jump\t// in\n    tag_82:\n        /* \"hopium/etf/main/index-factory.sol\":4005:4022  _validateHoldings */\n      tag_84\n        /* \"hopium/etf/main/index-factory.sol\":4005:4038  _validateHoldings(index.holdings) */\n      jump\t// in\n    tag_81:\n        /* \"hopium/etf/main/index-factory.sol\":4048:4065  bytes32 indexHash */\n      0x00\n        /* \"hopium/etf/main/index-factory.sol\":4068:4102  _validateIndexHash(index.holdings) */\n      tag_85\n        /* \"hopium/etf/main/index-factory.sol\":4087:4092  index */\n      dup4\n        /* \"hopium/etf/main/index-factory.sol\":4087:4101  index.holdings */\n      dup1\n      0x40\n      add\n      swap1\n      tag_86\n      swap2\n      swap1\n      tag_83\n      jump\t// in\n    tag_86:\n        /* \"hopium/etf/main/index-factory.sol\":4068:4086  _validateIndexHash */\n      tag_87\n        /* \"hopium/etf/main/index-factory.sol\":4068:4102  _validateIndexHash(index.holdings) */\n      jump\t// in\n    tag_85:\n        /* \"hopium/etf/main/index-factory.sol\":4048:4102  bytes32 indexHash = _validateIndexHash(index.holdings) */\n      swap1\n      pop\n        /* \"hopium/etf/main/index-factory.sol\":4178:4196  uint256 newIndexId */\n      0x00\n        /* \"hopium/etf/main/index-factory.sol\":4199:4230  _idxToId(createdIndexes.length) */\n      tag_88\n        /* \"hopium/etf/main/index-factory.sol\":4208:4222  createdIndexes */\n      0x00\n        /* \"hopium/etf/main/index-factory.sol\":4208:4229  createdIndexes.length */\n      dup1\n      sload\n      swap1\n      pop\n        /* \"hopium/etf/main/index-factory.sol\":4199:4207  _idxToId */\n      tag_89\n        /* \"hopium/etf/main/index-factory.sol\":4199:4230  _idxToId(createdIndexes.length) */\n      jump\t// in\n    tag_88:\n        /* \"hopium/etf/main/index-factory.sol\":4178:4230  uint256 newIndexId = _idxToId(createdIndexes.length) */\n      swap1\n      pop\n        /* \"hopium/etf/main/index-factory.sol\":4240:4254  createdIndexes */\n      0x00\n        /* \"hopium/etf/main/index-factory.sol\":4260:4265  index */\n      dup5\n        /* \"hopium/etf/main/index-factory.sol\":4240:4266  createdIndexes.push(index) */\n      swap1\n      dup1\n      0x01\n      dup2\n      sload\n      add\n      dup1\n      dup3\n      sstore\n      dup1\n      swap2\n      pop\n      pop\n      0x01\n      swap1\n      sub\n      swap1\n      0x00\n      mstore\n      keccak256(0x00, 0x20)\n      swap1\n      0x03\n      mul\n      add\n      0x00\n      swap1\n      swap2\n      swap1\n      swap2\n      swap1\n      swap2\n      pop\n      dup2\n      dup2\n      tag_91\n      swap2\n      swap1\n      tag_92\n      jump\t// in\n    tag_91:\n      pop\n      pop\n        /* \"hopium/etf/main/index-factory.sol\":4338:4348  newIndexId */\n      dup1\n        /* \"hopium/etf/main/index-factory.sol\":4306:4321  indexTickerToId */\n      0x01\n        /* \"hopium/etf/main/index-factory.sol\":4322:4327  index */\n      dup6\n        /* \"hopium/etf/main/index-factory.sol\":4322:4334  index.ticker */\n      dup1\n      0x20\n      add\n      swap1\n      tag_93\n      swap2\n      swap1\n      tag_79\n      jump\t// in\n    tag_93:\n        /* \"hopium/etf/main/index-factory.sol\":4306:4335  indexTickerToId[index.ticker] */\n      mload(0x40)\n      tag_94\n      swap3\n      swap2\n      swap1\n      tag_95\n      jump\t// in\n    tag_94:\n      swap1\n      dup2\n      mstore\n      0x20\n      add\n      mload(0x40)\n      dup1\n      swap2\n      sub\n      swap1\n      keccak256\n        /* \"hopium/etf/main/index-factory.sol\":4306:4348  indexTickerToId[index.ticker] = newIndexId */\n      dup2\n      swap1\n      sstore\n      pop\n        /* \"hopium/etf/main/index-factory.sol\":4385:4395  newIndexId */\n      dup1\n        /* \"hopium/etf/main/index-factory.sol\":4358:4371  indexHashToId */\n      0x02\n        /* \"hopium/etf/main/index-factory.sol\":4358:4382  indexHashToId[indexHash] */\n      0x00\n        /* \"hopium/etf/main/index-factory.sol\":4372:4381  indexHash */\n      dup5\n        /* \"hopium/etf/main/index-factory.sol\":4358:4382  indexHashToId[indexHash] */\n      dup2\n      mstore\n      0x20\n      add\n      swap1\n      dup2\n      mstore\n      0x20\n      add\n      0x00\n      keccak256\n        /* \"hopium/etf/main/index-factory.sol\":4358:4395  indexHashToId[indexHash] = newIndexId */\n      dup2\n      swap1\n      sstore\n      pop\n        /* \"hopium/etf/main/index-factory.sol\":4424:4434  newIndexId */\n      dup1\n        /* \"hopium/etf/main/index-factory.sol\":4411:4442  IndexCreated(newIndexId, index) */\n      0xd6ed4a1ac1542b666750aad7222525e09a69cb032e35d999fd8c661223fc7cb6\n        /* \"hopium/etf/main/index-factory.sol\":4436:4441  index */\n      dup6\n        /* \"hopium/etf/main/index-factory.sol\":4411:4442  IndexCreated(newIndexId, index) */\n      mload(0x40)\n      tag_96\n      swap2\n      swap1\n      tag_97\n      jump\t// in\n    tag_96:\n      mload(0x40)\n      dup1\n      swap2\n      sub\n      swap1\n      log2\n        /* \"hopium/etf/main/index-factory.sol\":4460:4470  newIndexId */\n      dup1\n        /* \"hopium/etf/main/index-factory.sol\":4453:4470  return newIndexId */\n      swap3\n      pop\n      pop\n      pop\n        /* \"hopium/etf/main/index-factory.sol\":3862:4477  function createIndex(Index calldata index) public onlyEtfFactory onlyActive returns (uint256) {... */\n      swap2\n      swap1\n      pop\n      jump\t// out\n        /* \"hopium/etf/main/index-factory.sol\":4610:4827  function getIndexById(uint256 indexId) public view returns (Index memory) {... */\n    tag_36:\n        /* \"hopium/etf/main/index-factory.sol\":4670:4682  Index memory */\n      tag_98\n      tag_99\n      jump\t// in\n    tag_98:\n        /* \"hopium/etf/main/index-factory.sol\":4712:4713  0 */\n      0x00\n        /* \"hopium/etf/main/index-factory.sol\":4702:4709  indexId */\n      dup3\n        /* \"hopium/etf/main/index-factory.sol\":4702:4713  indexId > 0 */\n      gt\n        /* \"hopium/etf/main/index-factory.sol\":4702:4749  indexId > 0 && indexId <= createdIndexes.length */\n      dup1\n      iszero\n      tag_101\n      jumpi\n      pop\n        /* \"hopium/etf/main/index-factory.sol\":4728:4742  createdIndexes */\n      0x00\n        /* \"hopium/etf/main/index-factory.sol\":4728:4749  createdIndexes.length */\n      dup1\n      sload\n      swap1\n      pop\n        /* \"hopium/etf/main/index-factory.sol\":4717:4724  indexId */\n      dup3\n        /* \"hopium/etf/main/index-factory.sol\":4717:4749  indexId <= createdIndexes.length */\n      gt\n      iszero\n        /* \"hopium/etf/main/index-factory.sol\":4702:4749  indexId > 0 && indexId <= createdIndexes.length */\n    tag_101:\n        /* \"hopium/etf/main/index-factory.sol\":4694:4770  require(indexId > 0 && indexId <= createdIndexes.length, \"Invalid index id\") */\n      tag_102\n      jumpi\n      mload(0x40)\n      0x08c379a000000000000000000000000000000000000000000000000000000000\n      dup2\n      mstore\n      0x04\n      add\n      tag_103\n      swap1\n      tag_104\n      jump\t// in\n    tag_103:\n      mload(0x40)\n      dup1\n      swap2\n      sub\n      swap1\n      revert\n    tag_102:\n        /* \"hopium/etf/main/index-factory.sol\":4787:4801  createdIndexes */\n      0x00\n        /* \"hopium/etf/main/index-factory.sol\":4802:4819  _idToIdx(indexId) */\n      tag_105\n        /* \"hopium/etf/main/index-factory.sol\":4811:4818  indexId */\n      dup4\n        /* \"hopium/etf/main/index-factory.sol\":4802:4810  _idToIdx */\n      tag_106\n        /* \"hopium/etf/main/index-factory.sol\":4802:4819  _idToIdx(indexId) */\n      jump\t// in\n    tag_105:\n        /* \"hopium/etf/main/index-factory.sol\":4787:4820  createdIndexes[_idToIdx(indexId)] */\n      dup2\n      sload\n      dup2\n      lt\n      tag_107\n      jumpi\n      tag_108\n      tag_109\n      jump\t// in\n    tag_108:\n    tag_107:\n      swap1\n      0x00\n      mstore\n      keccak256(0x00, 0x20)\n      swap1\n      0x03\n      mul\n      add\n        /* \"hopium/etf/main/index-factory.sol\":4780:4820  return createdIndexes[_idToIdx(indexId)] */\n      mload(0x40)\n      dup1\n      0x60\n      add\n      0x40\n      mstore\n      swap1\n      dup2\n      0x00\n      dup3\n      add\n      dup1\n      sload\n      tag_111\n      swap1\n      tag_112\n      jump\t// in\n    tag_111:\n      dup1\n      0x1f\n      add\n      0x20\n      dup1\n      swap2\n      div\n      mul\n      0x20\n      add\n      mload(0x40)\n      swap1\n      dup2\n      add\n      0x40\n      mstore\n      dup1\n      swap3\n      swap2\n      swap1\n      dup2\n      dup2\n      mstore\n      0x20\n      add\n      dup3\n      dup1\n      sload\n      tag_113\n      swap1\n      tag_112\n      jump\t// in\n    tag_113:\n      dup1\n      iszero\n      tag_114\n      jumpi\n      dup1\n      0x1f\n      lt\n      tag_115\n      jumpi\n      0x0100\n      dup1\n      dup4\n      sload\n      div\n      mul\n      dup4\n      mstore\n      swap2\n      0x20\n      add\n      swap2\n      jump(tag_114)\n    tag_115:\n      dup3\n      add\n      swap2\n      swap1\n      0x00\n      mstore\n      keccak256(0x00, 0x20)\n      swap1\n    tag_116:\n      dup2\n      sload\n      dup2\n      mstore\n      swap1\n      0x01\n      add\n      swap1\n      0x20\n      add\n      dup1\n      dup4\n      gt\n      tag_116\n      jumpi\n      dup3\n      swap1\n      sub\n      0x1f\n      and\n      dup3\n      add\n      swap2\n    tag_114:\n      pop\n      pop\n      pop\n      pop\n      pop\n      dup2\n      mstore\n      0x20\n      add\n      0x01\n      dup3\n      add\n      dup1\n      sload\n      tag_117\n      swap1\n      tag_112\n      jump\t// in\n    tag_117:\n      dup1\n      0x1f\n      add\n      0x20\n      dup1\n      swap2\n      div\n      mul\n      0x20\n      add\n      mload(0x40)\n      swap1\n      dup2\n      add\n      0x40\n      mstore\n      dup1\n      swap3\n      swap2\n      swap1\n      dup2\n      dup2\n      mstore\n      0x20\n      add\n      dup3\n      dup1\n      sload\n      tag_118\n      swap1\n      tag_112\n      jump\t// in\n    tag_118:\n      dup1\n      iszero\n      tag_119\n      jumpi\n      dup1\n      0x1f\n      lt\n      tag_120\n      jumpi\n      0x0100\n      dup1\n      dup4\n      sload\n      div\n      mul\n      dup4\n      mstore\n      swap2\n      0x20\n      add\n      swap2\n      jump(tag_119)\n    tag_120:\n      dup3\n      add\n      swap2\n      swap1\n      0x00\n      mstore\n      keccak256(0x00, 0x20)\n      swap1\n    tag_121:\n      dup2\n      sload\n      dup2\n      mstore\n      swap1\n      0x01\n      add\n      swap1\n      0x20\n      add\n      dup1\n      dup4\n      gt\n      tag_121\n      jumpi\n      dup3\n      swap1\n      sub\n      0x1f\n      and\n      dup3\n      add\n      swap2\n    tag_119:\n      pop\n      pop\n      pop\n      pop\n      pop\n      dup2\n      mstore\n      0x20\n      add\n      0x02\n      dup3\n      add\n      dup1\n      sload\n      dup1\n      0x20\n      mul\n      0x20\n      add\n      mload(0x40)\n      swap1\n      dup2\n      add\n      0x40\n      mstore\n      dup1\n      swap3\n      swap2\n      swap1\n      dup2\n      dup2\n      mstore\n      0x20\n      add\n      0x00\n      swap1\n    tag_122:\n      dup3\n      dup3\n      lt\n      iszero\n      tag_123\n      jumpi\n      dup4\n      dup3\n      swap1\n      0x00\n      mstore\n      keccak256(0x00, 0x20)\n      add\n      mload(0x40)\n      dup1\n      0x40\n      add\n      0x40\n      mstore\n      swap1\n      dup2\n      0x00\n      dup3\n      add\n      0x00\n      swap1\n      sload\n      swap1\n      0x0100\n      exp\n      swap1\n      div\n      0xffffffffffffffffffffffffffffffffffffffff\n      and\n      0xffffffffffffffffffffffffffffffffffffffff\n      and\n      0xffffffffffffffffffffffffffffffffffffffff\n      and\n      dup2\n      mstore\n      0x20\n      add\n      0x00\n      dup3\n      add\n      0x14\n      swap1\n      sload\n      swap1\n      0x0100\n      exp\n      swap1\n      div\n      0xffff\n      and\n      0xffff\n      and\n      0xffff\n      and\n      dup2\n      mstore\n      pop\n      pop\n      dup2\n      mstore\n      0x20\n      add\n      swap1\n      0x01\n      add\n      swap1\n      jump(tag_122)\n    tag_123:\n      pop\n      pop\n      pop\n      pop\n      dup2\n      mstore\n      pop\n      pop\n      swap1\n      pop\n        /* \"hopium/etf/main/index-factory.sol\":4610:4827  function getIndexById(uint256 indexId) public view returns (Index memory) {... */\n      swap2\n      swap1\n      pop\n      jump\t// out\n        /* \"hopium/common/interface/imDirectory.sol\":336:363  IDirectory public Directory */\n    tag_40:\n      0x03\n      0x00\n      swap1\n      sload\n      swap1\n      0x0100\n      exp\n      swap1\n      div\n      0xffffffffffffffffffffffffffffffffffffffff\n      and\n      dup2\n      jump\t// out\n        /* \"hopium/common/interface/imDirectory.sol\":1178:1266  function owner() public view returns (address) {... */\n    tag_44:\n        /* \"hopium/common/interface/imDirectory.sol\":1216:1223  address */\n      0x00\n        /* \"hopium/common/interface/imDirectory.sol\":1242:1251  Directory */\n      0x03\n      0x00\n      swap1\n      sload\n      swap1\n      0x0100\n      exp\n      swap1\n      div\n      0xffffffffffffffffffffffffffffffffffffffff\n      and\n        /* \"hopium/common/interface/imDirectory.sol\":1242:1257  Directory.owner */\n      0xffffffffffffffffffffffffffffffffffffffff\n      and\n      0x8da5cb5b\n        /* \"hopium/common/interface/imDirectory.sol\":1242:1259  Directory.owner() */\n      mload(0x40)\n      dup2\n      0xffffffff\n      and\n      0xe0\n      shl\n      dup2\n      mstore\n      0x04\n      add\n      0x20\n      mload(0x40)\n      dup1\n      dup4\n      sub\n      dup2\n      dup7\n      gas\n      staticcall\n      iszero\n      dup1\n      iszero\n      tag_127\n      jumpi\n      returndatacopy(0x00, 0x00, returndatasize)\n      revert(0x00, returndatasize)\n    tag_127:\n      pop\n      pop\n      pop\n      pop\n      mload(0x40)\n      returndatasize\n      not(0x1f)\n      0x1f\n      dup3\n      add\n      and\n      dup3\n      add\n      dup1\n      0x40\n      mstore\n      pop\n      dup2\n      add\n      swap1\n      tag_128\n      swap2\n      swap1\n      tag_65\n      jump\t// in\n    tag_128:\n        /* \"hopium/common/interface/imDirectory.sol\":1235:1259  return Directory.owner() */\n      swap1\n      pop\n        /* \"hopium/common/interface/imDirectory.sol\":1178:1266  function owner() public view returns (address) {... */\n      swap1\n      jump\t// out\n        /* \"hopium/etf/main/index-factory.sol\":4833:5063  function getIndexByTicker(string calldata ticker) public view returns (Index memory) {... */\n    tag_49:\n        /* \"hopium/etf/main/index-factory.sol\":4904:4916  Index memory */\n      tag_129\n      tag_99\n      jump\t// in\n    tag_129:\n        /* \"hopium/etf/main/index-factory.sol\":4928:4943  uint256 indexId */\n      0x00\n        /* \"hopium/etf/main/index-factory.sol\":4946:4961  indexTickerToId */\n      0x01\n        /* \"hopium/etf/main/index-factory.sol\":4962:4968  ticker */\n      dup5\n      dup5\n        /* \"hopium/etf/main/index-factory.sol\":4946:4969  indexTickerToId[ticker] */\n      mload(0x40)\n      tag_131\n      swap3\n      swap2\n      swap1\n      tag_95\n      jump\t// in\n    tag_131:\n      swap1\n      dup2\n      mstore\n      0x20\n      add\n      mload(0x40)\n      dup1\n      swap2\n      sub\n      swap1\n      keccak256\n      sload\n        /* \"hopium/etf/main/index-factory.sol\":4928:4969  uint256 indexId = indexTickerToId[ticker] */\n      swap1\n      pop\n        /* \"hopium/etf/main/index-factory.sol\":4998:4999  0 */\n      0x00\n        /* \"hopium/etf/main/index-factory.sol\":4987:4994  indexId */\n      dup2\n        /* \"hopium/etf/main/index-factory.sol\":4987:4999  indexId != 0 */\n      sub\n        /* \"hopium/etf/main/index-factory.sol\":4979:5018  require(indexId != 0, \"Unknown ticker\") */\n      tag_132\n      jumpi\n      mload(0x40)\n      0x08c379a000000000000000000000000000000000000000000000000000000000\n      dup2\n      mstore\n      0x04\n      add\n      tag_133\n      swap1\n      tag_134\n      jump\t// in\n    tag_133:\n      mload(0x40)\n      dup1\n      swap2\n      sub\n      swap1\n      revert\n    tag_132:\n        /* \"hopium/etf/main/index-factory.sol\":5035:5056  getIndexById(indexId) */\n      tag_135\n        /* \"hopium/etf/main/index-factory.sol\":5048:5055  indexId */\n      dup2\n        /* \"hopium/etf/main/index-factory.sol\":5035:5047  getIndexById */\n      tag_36\n        /* \"hopium/etf/main/index-factory.sol\":5035:5056  getIndexById(indexId) */\n      jump\t// in\n    tag_135:\n        /* \"hopium/etf/main/index-factory.sol\":5028:5056  return getIndexById(indexId) */\n      swap2\n      pop\n      pop\n        /* \"hopium/etf/main/index-factory.sol\":4833:5063  function getIndexByTicker(string calldata ticker) public view returns (Index memory) {... */\n      swap3\n      swap2\n      pop\n      pop\n      jump\t// out\n        /* \"hopium/common/interface/imActive.sol\":282:367  function setActive(bool _active) public onlyOwner {... */\n    tag_54:\n        /* \"hopium/common/interface/imDirectory.sol\":1109:1118  Directory */\n      0x03\n      0x00\n      swap1\n      sload\n      swap1\n      0x0100\n      exp\n      swap1\n      div\n      0xffffffffffffffffffffffffffffffffffffffff\n      and\n        /* \"hopium/common/interface/imDirectory.sol\":1109:1124  Directory.owner */\n      0xffffffffffffffffffffffffffffffffffffffff\n      and\n      0x8da5cb5b\n        /* \"hopium/common/interface/imDirectory.sol\":1109:1126  Directory.owner() */\n      mload(0x40)\n      dup2\n      0xffffffff\n      and\n      0xe0\n      shl\n      dup2\n      mstore\n      0x04\n      add\n      0x20\n      mload(0x40)\n      dup1\n      dup4\n      sub\n      dup2\n      dup7\n      gas\n      staticcall\n      iszero\n      dup1\n      iszero\n      tag_138\n      jumpi\n      returndatacopy(0x00, 0x00, returndatasize)\n      revert(0x00, returndatasize)\n    tag_138:\n      pop\n      pop\n      pop\n      pop\n      mload(0x40)\n      returndatasize\n      not(0x1f)\n      0x1f\n      dup3\n      add\n      and\n      dup3\n      add\n      dup1\n      0x40\n      mstore\n      pop\n      dup2\n      add\n      swap1\n      tag_139\n      swap2\n      swap1\n      tag_65\n      jump\t// in\n    tag_139:\n        /* \"hopium/common/interface/imDirectory.sol\":1095:1126  msg.sender == Directory.owner() */\n      0xffffffffffffffffffffffffffffffffffffffff\n      and\n        /* \"hopium/common/interface/imDirectory.sol\":1095:1105  msg.sender */\n      caller\n        /* \"hopium/common/interface/imDirectory.sol\":1095:1126  msg.sender == Directory.owner() */\n      0xffffffffffffffffffffffffffffffffffffffff\n      and\n      eq\n        /* \"hopium/common/interface/imDirectory.sol\":1087:1154  require(msg.sender == Directory.owner(), \"Caller is not the owner\") */\n      tag_140\n      jumpi\n      mload(0x40)\n      0x08c379a000000000000000000000000000000000000000000000000000000000\n      dup2\n      mstore\n      0x04\n      add\n      tag_141\n      swap1\n      tag_142\n      jump\t// in\n    tag_141:\n      mload(0x40)\n      dup1\n      swap2\n      sub\n      swap1\n      revert\n    tag_140:\n        /* \"hopium/common/interface/imActive.sol\":353:360  _active */\n      dup1\n        /* \"hopium/common/interface/imActive.sol\":342:350  isActive */\n      0x03\n      0x14\n        /* \"hopium/common/interface/imActive.sol\":342:360  isActive = _active */\n      0x0100\n      exp\n      dup2\n      sload\n      dup2\n      0xff\n      mul\n      not\n      and\n      swap1\n      dup4\n      iszero\n      iszero\n      mul\n      or\n      swap1\n      sstore\n      pop\n        /* \"hopium/common/interface/imActive.sol\":282:367  function setActive(bool _active) public onlyOwner {... */\n      pop\n      jump\t// out\n        /* \"hopium/common/interface/imDirectory.sol\":470:583  function changeDirectoryAddress(address _directory) external onlyOwner {... */\n    tag_58:\n        /* \"hopium/common/interface/imDirectory.sol\":1109:1118  Directory */\n      0x03\n      0x00\n      swap1\n      sload\n      swap1\n      0x0100\n      exp\n      swap1\n      div\n      0xffffffffffffffffffffffffffffffffffffffff\n      and\n        /* \"hopium/common/interface/imDirectory.sol\":1109:1124  Directory.owner */\n      0xffffffffffffffffffffffffffffffffffffffff\n      and\n      0x8da5cb5b\n        /* \"hopium/common/interface/imDirectory.sol\":1109:1126  Directory.owner() */\n      mload(0x40)\n      dup2\n      0xffffffff\n      and\n      0xe0\n      shl\n      dup2\n      mstore\n      0x04\n      add\n      0x20\n      mload(0x40)\n      dup1\n      dup4\n      sub\n      dup2\n      dup7\n      gas\n      staticcall\n      iszero\n      dup1\n      iszero\n      tag_146\n      jumpi\n      returndatacopy(0x00, 0x00, returndatasize)\n      revert(0x00, returndatasize)\n    tag_146:\n      pop\n      pop\n      pop\n      pop\n      mload(0x40)\n      returndatasize\n      not(0x1f)\n      0x1f\n      dup3\n      add\n      and\n      dup3\n      add\n      dup1\n      0x40\n      mstore\n      pop\n      dup2\n      add\n      swap1\n      tag_147\n      swap2\n      swap1\n      tag_65\n      jump\t// in\n    tag_147:\n        /* \"hopium/common/interface/imDirectory.sol\":1095:1126  msg.sender == Directory.owner() */\n      0xffffffffffffffffffffffffffffffffffffffff\n      and\n        /* \"hopium/common/interface/imDirectory.sol\":1095:1105  msg.sender */\n      caller\n        /* \"hopium/common/interface/imDirectory.sol\":1095:1126  msg.sender == Directory.owner() */\n      0xffffffffffffffffffffffffffffffffffffffff\n      and\n      eq\n        /* \"hopium/common/interface/imDirectory.sol\":1087:1154  require(msg.sender == Directory.owner(), \"Caller is not the owner\") */\n      tag_148\n      jumpi\n      mload(0x40)\n      0x08c379a000000000000000000000000000000000000000000000000000000000\n      dup2\n      mstore\n      0x04\n      add\n      tag_149\n      swap1\n      tag_142\n      jump\t// in\n    tag_149:\n      mload(0x40)\n      dup1\n      swap2\n      sub\n      swap1\n      revert\n    tag_148:\n        /* \"hopium/common/interface/imDirectory.sol\":551:576  _setDirectory(_directory) */\n      tag_151\n        /* \"hopium/common/interface/imDirectory.sol\":565:575  _directory */\n      dup2\n        /* \"hopium/common/interface/imDirectory.sol\":551:564  _setDirectory */\n      tag_152\n        /* \"hopium/common/interface/imDirectory.sol\":551:576  _setDirectory(_directory) */\n      jump\t// in\n    tag_151:\n        /* \"hopium/common/interface/imDirectory.sol\":470:583  function changeDirectoryAddress(address _directory) external onlyOwner {... */\n      pop\n      jump\t// out\n        /* \"hopium/etf/main/index-factory.sol\":2207:2409  function _validateTicker(string calldata ticker) internal view {... */\n    tag_80:\n        /* \"hopium/etf/main/index-factory.sol\":2312:2313  0 */\n      0x00\n        /* \"hopium/etf/main/index-factory.sol\":2294:2300  ticker */\n      dup3\n      dup3\n        /* \"hopium/etf/main/index-factory.sol\":2288:2308  bytes(ticker).length */\n      swap1\n      pop\n        /* \"hopium/etf/main/index-factory.sol\":2288:2313  bytes(ticker).length != 0 */\n      sub\n        /* \"hopium/etf/main/index-factory.sol\":2280:2330  require(bytes(ticker).length != 0, \"Empty ticker\") */\n      tag_154\n      jumpi\n      mload(0x40)\n      0x08c379a000000000000000000000000000000000000000000000000000000000\n      dup2\n      mstore\n      0x04\n      add\n      tag_155\n      swap1\n      tag_156\n      jump\t// in\n    tag_155:\n      mload(0x40)\n      dup1\n      swap2\n      sub\n      swap1\n      revert\n    tag_154:\n        /* \"hopium/etf/main/index-factory.sol\":2375:2376  0 */\n      0x00\n        /* \"hopium/etf/main/index-factory.sol\":2348:2363  indexTickerToId */\n      0x01\n        /* \"hopium/etf/main/index-factory.sol\":2364:2370  ticker */\n      dup4\n      dup4\n        /* \"hopium/etf/main/index-factory.sol\":2348:2371  indexTickerToId[ticker] */\n      mload(0x40)\n      tag_157\n      swap3\n      swap2\n      swap1\n      tag_95\n      jump\t// in\n    tag_157:\n      swap1\n      dup2\n      mstore\n      0x20\n      add\n      mload(0x40)\n      dup1\n      swap2\n      sub\n      swap1\n      keccak256\n      sload\n        /* \"hopium/etf/main/index-factory.sol\":2348:2376  indexTickerToId[ticker] == 0 */\n      eq\n        /* \"hopium/etf/main/index-factory.sol\":2340:2402  require(indexTickerToId[ticker] == 0, \"Ticker already exists\") */\n      tag_158\n      jumpi\n      mload(0x40)\n      0x08c379a000000000000000000000000000000000000000000000000000000000\n      dup2\n      mstore\n      0x04\n      add\n      tag_159\n      swap1\n      tag_160\n      jump\t// in\n    tag_159:\n      mload(0x40)\n      dup1\n      swap2\n      sub\n      swap1\n      revert\n    tag_158:\n        /* \"hopium/etf/main/index-factory.sol\":2207:2409  function _validateTicker(string calldata ticker) internal view {... */\n      pop\n      pop\n      jump\t// out\n        /* \"hopium/etf/main/index-factory.sol\":2490:3262  function _validateHoldings(Holding[] calldata holdings) internal pure {... */\n    tag_84:\n        /* \"hopium/etf/main/index-factory.sol\":2570:2579  uint256 n */\n      0x00\n        /* \"hopium/etf/main/index-factory.sol\":2582:2590  holdings */\n      dup3\n      dup3\n        /* \"hopium/etf/main/index-factory.sol\":2582:2597  holdings.length */\n      swap1\n      pop\n        /* \"hopium/etf/main/index-factory.sol\":2570:2597  uint256 n = holdings.length */\n      swap1\n      pop\n        /* \"hopium/etf/main/index-factory.sol\":2619:2620  0 */\n      0x00\n        /* \"hopium/etf/main/index-factory.sol\":2615:2616  n */\n      dup2\n        /* \"hopium/etf/main/index-factory.sol\":2615:2620  n > 0 */\n      gt\n        /* \"hopium/etf/main/index-factory.sol\":2607:2636  require(n > 0, \"No holdings\") */\n      tag_162\n      jumpi\n      mload(0x40)\n      0x08c379a000000000000000000000000000000000000000000000000000000000\n      dup2\n      mstore\n      0x04\n      add\n      tag_163\n      swap1\n      tag_164\n      jump\t// in\n    tag_163:\n      mload(0x40)\n      dup1\n      swap2\n      sub\n      swap1\n      revert\n    tag_162:\n        /* \"hopium/etf/main/index-factory.sol\":2647:2662  uint256 sumBips */\n      0x00\n        /* \"hopium/etf/main/index-factory.sol\":2678:2687  uint256 i */\n      0x00\n        /* \"hopium/etf/main/index-factory.sol\":2690:2691  0 */\n      0x00\n        /* \"hopium/etf/main/index-factory.sol\":2678:2691  uint256 i = 0 */\n      swap1\n      pop\n        /* \"hopium/etf/main/index-factory.sol\":2673:3177  for (uint256 i = 0; i < n; i++) {... */\n    tag_165:\n        /* \"hopium/etf/main/index-factory.sol\":2697:2698  n */\n      dup3\n        /* \"hopium/etf/main/index-factory.sol\":2693:2694  i */\n      dup2\n        /* \"hopium/etf/main/index-factory.sol\":2693:2698  i < n */\n      lt\n        /* \"hopium/etf/main/index-factory.sol\":2673:3177  for (uint256 i = 0; i < n; i++) {... */\n      iszero\n      tag_166\n      jumpi\n        /* \"hopium/etf/main/index-factory.sol\":2719:2733  address tokenA */\n      0x00\n        /* \"hopium/etf/main/index-factory.sol\":2736:2744  holdings */\n      dup6\n      dup6\n        /* \"hopium/etf/main/index-factory.sol\":2745:2746  i */\n      dup4\n        /* \"hopium/etf/main/index-factory.sol\":2736:2747  holdings[i] */\n      dup2\n      dup2\n      lt\n      tag_168\n      jumpi\n      tag_169\n      tag_109\n      jump\t// in\n    tag_169:\n    tag_168:\n      swap1\n      pop\n      0x40\n      mul\n      add\n        /* \"hopium/etf/main/index-factory.sol\":2736:2760  holdings[i].tokenAddress */\n      0x00\n      add\n      0x20\n      dup2\n      add\n      swap1\n      tag_170\n      swap2\n      swap1\n      tag_57\n      jump\t// in\n    tag_170:\n        /* \"hopium/etf/main/index-factory.sol\":2719:2760  address tokenA = holdings[i].tokenAddress */\n      swap1\n      pop\n        /* \"hopium/etf/main/index-factory.sol\":2800:2801  0 */\n      0x00\n        /* \"hopium/etf/main/index-factory.sol\":2782:2802  tokenA != address(0) */\n      0xffffffffffffffffffffffffffffffffffffffff\n      and\n        /* \"hopium/etf/main/index-factory.sol\":2782:2788  tokenA */\n      dup2\n        /* \"hopium/etf/main/index-factory.sol\":2782:2802  tokenA != address(0) */\n      0xffffffffffffffffffffffffffffffffffffffff\n      and\n      sub\n        /* \"hopium/etf/main/index-factory.sol\":2774:2825  require(tokenA != address(0), \"Zero token address\") */\n      tag_171\n      jumpi\n      mload(0x40)\n      0x08c379a000000000000000000000000000000000000000000000000000000000\n      dup2\n      mstore\n      0x04\n      add\n      tag_172\n      swap1\n      tag_173\n      jump\t// in\n    tag_172:\n      mload(0x40)\n      dup1\n      swap2\n      sub\n      swap1\n      revert\n    tag_171:\n        /* \"hopium/etf/main/index-factory.sol\":2840:2849  uint256 w */\n      0x00\n        /* \"hopium/etf/main/index-factory.sol\":2852:2860  holdings */\n      dup7\n      dup7\n        /* \"hopium/etf/main/index-factory.sol\":2861:2862  i */\n      dup5\n        /* \"hopium/etf/main/index-factory.sol\":2852:2863  holdings[i] */\n      dup2\n      dup2\n      lt\n      tag_174\n      jumpi\n      tag_175\n      tag_109\n      jump\t// in\n    tag_175:\n    tag_174:\n      swap1\n      pop\n      0x40\n      mul\n      add\n        /* \"hopium/etf/main/index-factory.sol\":2852:2874  holdings[i].weightBips */\n      0x20\n      add\n      0x20\n      dup2\n      add\n      swap1\n      tag_176\n      swap2\n      swap1\n      tag_177\n      jump\t// in\n    tag_176:\n        /* \"hopium/etf/main/index-factory.sol\":2840:2874  uint256 w = holdings[i].weightBips */\n      0xffff\n      and\n      swap1\n      pop\n        /* \"hopium/etf/main/index-factory.sol\":2900:2901  0 */\n      0x00\n        /* \"hopium/etf/main/index-factory.sol\":2896:2897  w */\n      dup2\n        /* \"hopium/etf/main/index-factory.sol\":2896:2901  w > 0 */\n      gt\n        /* \"hopium/etf/main/index-factory.sol\":2888:2917  require(w > 0, \"Zero weight\") */\n      tag_178\n      jumpi\n      mload(0x40)\n      0x08c379a000000000000000000000000000000000000000000000000000000000\n      dup2\n      mstore\n      0x04\n      add\n      tag_179\n      swap1\n      tag_180\n      jump\t// in\n    tag_179:\n      mload(0x40)\n      dup1\n      swap2\n      sub\n      swap1\n      revert\n    tag_178:\n        /* \"hopium/common/storage/bips.sol\":97:103  10_000 */\n      0x2710\n        /* \"hopium/etf/main/index-factory.sol\":2939:2940  w */\n      dup2\n        /* \"hopium/etf/main/index-factory.sol\":2939:2964  w <= HUNDRED_PERCENT_BIPS */\n      gt\n      iszero\n        /* \"hopium/etf/main/index-factory.sol\":2931:2982  require(w <= HUNDRED_PERCENT_BIPS, \"Weight > 100%\") */\n      tag_181\n      jumpi\n      mload(0x40)\n      0x08c379a000000000000000000000000000000000000000000000000000000000\n      dup2\n      mstore\n      0x04\n      add\n      tag_182\n      swap1\n      tag_183\n      jump\t// in\n    tag_182:\n      mload(0x40)\n      dup1\n      swap2\n      sub\n      swap1\n      revert\n    tag_181:\n        /* \"hopium/etf/main/index-factory.sol\":3008:3009  w */\n      dup1\n        /* \"hopium/etf/main/index-factory.sol\":2997:3009  sumBips += w */\n      dup5\n      tag_184\n      swap2\n      swap1\n      tag_185\n      jump\t// in\n    tag_184:\n      swap4\n      pop\n        /* \"hopium/etf/main/index-factory.sol\":3029:3038  uint256 j */\n      0x00\n        /* \"hopium/etf/main/index-factory.sol\":3045:3046  1 */\n      0x01\n        /* \"hopium/etf/main/index-factory.sol\":3041:3042  i */\n      dup5\n        /* \"hopium/etf/main/index-factory.sol\":3041:3046  i + 1 */\n      tag_189\n      swap2\n      swap1\n      tag_185\n      jump\t// in\n    tag_189:\n        /* \"hopium/etf/main/index-factory.sol\":3029:3046  uint256 j = i + 1 */\n      swap1\n      pop\n        /* \"hopium/etf/main/index-factory.sol\":3024:3167  for (uint256 j = i + 1; j < n; j++) {... */\n    tag_186:\n        /* \"hopium/etf/main/index-factory.sol\":3052:3053  n */\n      dup6\n        /* \"hopium/etf/main/index-factory.sol\":3048:3049  j */\n      dup2\n        /* \"hopium/etf/main/index-factory.sol\":3048:3053  j < n */\n      lt\n        /* \"hopium/etf/main/index-factory.sol\":3024:3167  for (uint256 j = i + 1; j < n; j++) {... */\n      iszero\n      tag_187\n      jumpi\n        /* \"hopium/etf/main/index-factory.sol\":3096:3104  holdings */\n      dup8\n      dup8\n        /* \"hopium/etf/main/index-factory.sol\":3105:3106  j */\n      dup3\n        /* \"hopium/etf/main/index-factory.sol\":3096:3107  holdings[j] */\n      dup2\n      dup2\n      lt\n      tag_190\n      jumpi\n      tag_191\n      tag_109\n      jump\t// in\n    tag_191:\n    tag_190:\n      swap1\n      pop\n      0x40\n      mul\n      add\n        /* \"hopium/etf/main/index-factory.sol\":3096:3120  holdings[j].tokenAddress */\n      0x00\n      add\n      0x20\n      dup2\n      add\n      swap1\n      tag_192\n      swap2\n      swap1\n      tag_57\n      jump\t// in\n    tag_192:\n        /* \"hopium/etf/main/index-factory.sol\":3086:3120  tokenA != holdings[j].tokenAddress */\n      0xffffffffffffffffffffffffffffffffffffffff\n      and\n        /* \"hopium/etf/main/index-factory.sol\":3086:3092  tokenA */\n      dup4\n        /* \"hopium/etf/main/index-factory.sol\":3086:3120  tokenA != holdings[j].tokenAddress */\n      0xffffffffffffffffffffffffffffffffffffffff\n      and\n      sub\n        /* \"hopium/etf/main/index-factory.sol\":3078:3152  require(tokenA != holdings[j].tokenAddress, \"Duplicate token in holdings\") */\n      tag_193\n      jumpi\n      mload(0x40)\n      0x08c379a000000000000000000000000000000000000000000000000000000000\n      dup2\n      mstore\n      0x04\n      add\n      tag_194\n      swap1\n      tag_195\n      jump\t// in\n    tag_194:\n      mload(0x40)\n      dup1\n      swap2\n      sub\n      swap1\n      revert\n    tag_193:\n        /* \"hopium/etf/main/index-factory.sol\":3055:3058  j++ */\n      dup1\n      dup1\n      0x01\n      add\n      swap2\n      pop\n      pop\n        /* \"hopium/etf/main/index-factory.sol\":3024:3167  for (uint256 j = i + 1; j < n; j++) {... */\n      jump(tag_186)\n    tag_187:\n      pop\n        /* \"hopium/etf/main/index-factory.sol\":2705:3177  {... */\n      pop\n      pop\n        /* \"hopium/etf/main/index-factory.sol\":2700:2703  i++ */\n      dup1\n      dup1\n      0x01\n      add\n      swap2\n      pop\n      pop\n        /* \"hopium/etf/main/index-factory.sol\":2673:3177  for (uint256 i = 0; i < n; i++) {... */\n      jump(tag_165)\n    tag_166:\n      pop\n        /* \"hopium/common/storage/bips.sol\":97:103  10_000 */\n      0x2710\n        /* \"hopium/etf/main/index-factory.sol\":3195:3202  sumBips */\n      dup2\n        /* \"hopium/etf/main/index-factory.sol\":3195:3226  sumBips == HUNDRED_PERCENT_BIPS */\n      eq\n        /* \"hopium/etf/main/index-factory.sol\":3187:3255  require(sumBips == HUNDRED_PERCENT_BIPS, \"Weights must sum to 100%\") */\n      tag_196\n      jumpi\n      mload(0x40)\n      0x08c379a000000000000000000000000000000000000000000000000000000000\n      dup2\n      mstore\n      0x04\n      add\n      tag_197\n      swap1\n      tag_198\n      jump\t// in\n    tag_197:\n      mload(0x40)\n      dup1\n      swap2\n      sub\n      swap1\n      revert\n    tag_196:\n        /* \"hopium/etf/main/index-factory.sol\":2560:3262  {... */\n      pop\n      pop\n        /* \"hopium/etf/main/index-factory.sol\":2490:3262  function _validateHoldings(Holding[] calldata holdings) internal pure {... */\n      pop\n      pop\n      jump\t// out\n        /* \"hopium/etf/main/index-factory.sol\":3348:3622  function _validateIndexHash(Holding[] calldata holdings)... */\n    tag_87:\n        /* \"hopium/etf/main/index-factory.sol\":3452:3469  bytes32 indexHash */\n      0x00\n        /* \"hopium/etf/main/index-factory.sol\":3497:3524  _computeIndexHash(holdings) */\n      tag_200\n        /* \"hopium/etf/main/index-factory.sol\":3515:3523  holdings */\n      dup4\n      dup4\n        /* \"hopium/etf/main/index-factory.sol\":3497:3514  _computeIndexHash */\n      tag_201\n        /* \"hopium/etf/main/index-factory.sol\":3497:3524  _computeIndexHash(holdings) */\n      jump\t// in\n    tag_200:\n        /* \"hopium/etf/main/index-factory.sol\":3485:3524  indexHash = _computeIndexHash(holdings) */\n      swap1\n      pop\n        /* \"hopium/etf/main/index-factory.sol\":3570:3571  0 */\n      0x00\n        /* \"hopium/etf/main/index-factory.sol\":3542:3555  indexHashToId */\n      0x02\n        /* \"hopium/etf/main/index-factory.sol\":3542:3566  indexHashToId[indexHash] */\n      0x00\n        /* \"hopium/etf/main/index-factory.sol\":3556:3565  indexHash */\n      dup4\n        /* \"hopium/etf/main/index-factory.sol\":3542:3566  indexHashToId[indexHash] */\n      dup2\n      mstore\n      0x20\n      add\n      swap1\n      dup2\n      mstore\n      0x20\n      add\n      0x00\n      keccak256\n      sload\n        /* \"hopium/etf/main/index-factory.sol\":3542:3571  indexHashToId[indexHash] == 0 */\n      eq\n        /* \"hopium/etf/main/index-factory.sol\":3534:3615  require(indexHashToId[indexHash] == 0, \"Index with same token-weight set exists\") */\n      tag_202\n      jumpi\n      mload(0x40)\n      0x08c379a000000000000000000000000000000000000000000000000000000000\n      dup2\n      mstore\n      0x04\n      add\n      tag_203\n      swap1\n      tag_204\n      jump\t// in\n    tag_203:\n      mload(0x40)\n      dup1\n      swap2\n      sub\n      swap1\n      revert\n    tag_202:\n        /* \"hopium/etf/main/index-factory.sol\":3348:3622  function _validateIndexHash(Holding[] calldata holdings)... */\n      swap3\n      swap2\n      pop\n      pop\n      jump\t// out\n        /* \"hopium/common/utils/id-idx.sol\":93:187  function _idxToId(uint256 idx) internal pure returns (uint256) {... */\n    tag_89:\n        /* \"hopium/common/utils/id-idx.sol\":147:154  uint256 */\n      0x00\n        /* \"hopium/common/utils/id-idx.sol\":179:180  1 */\n      0x01\n        /* \"hopium/common/utils/id-idx.sol\":173:176  idx */\n      dup3\n        /* \"hopium/common/utils/id-idx.sol\":173:180  idx + 1 */\n      tag_206\n      swap2\n      swap1\n      tag_185\n      jump\t// in\n    tag_206:\n        /* \"hopium/common/utils/id-idx.sol\":166:180  return idx + 1 */\n      swap1\n      pop\n        /* \"hopium/common/utils/id-idx.sol\":93:187  function _idxToId(uint256 idx) internal pure returns (uint256) {... */\n      swap2\n      swap1\n      pop\n      jump\t// out\n        /* \"hopium/common/utils/id-idx.sol\":193:285  function _idToIdx(uint256 id) internal pure returns (uint256) {... */\n    tag_106:\n        /* \"hopium/common/utils/id-idx.sol\":246:253  uint256 */\n      0x00\n        /* \"hopium/common/utils/id-idx.sol\":277:278  1 */\n      0x01\n        /* \"hopium/common/utils/id-idx.sol\":272:274  id */\n      dup3\n        /* \"hopium/common/utils/id-idx.sol\":272:278  id - 1 */\n      tag_208\n      swap2\n      swap1\n      tag_209\n      jump\t// in\n    tag_208:\n        /* \"hopium/common/utils/id-idx.sol\":265:278  return id - 1 */\n      swap1\n      pop\n        /* \"hopium/common/utils/id-idx.sol\":193:285  function _idToIdx(uint256 id) internal pure returns (uint256) {... */\n      swap2\n      swap1\n      pop\n      jump\t// out\n        /* \"hopium/common/interface/imDirectory.sol\":589:1050  function _setDirectory(address _directory) internal {... */\n    tag_152:\n        /* \"hopium/common/interface/imDirectory.sol\":681:682  0 */\n      0x00\n        /* \"hopium/common/interface/imDirectory.sol\":659:683  _directory != address(0) */\n      0xffffffffffffffffffffffffffffffffffffffff\n      and\n        /* \"hopium/common/interface/imDirectory.sol\":659:669  _directory */\n      dup2\n        /* \"hopium/common/interface/imDirectory.sol\":659:683  _directory != address(0) */\n      0xffffffffffffffffffffffffffffffffffffffff\n      and\n      sub\n        /* \"hopium/common/interface/imDirectory.sol\":651:720  require(_directory != address(0), \"Directory cannot be zero address\") */\n      tag_211\n      jumpi\n      mload(0x40)\n      0x08c379a000000000000000000000000000000000000000000000000000000000\n      dup2\n      mstore\n      0x04\n      add\n      tag_212\n      swap1\n      tag_213\n      jump\t// in\n    tag_212:\n      mload(0x40)\n      dup1\n      swap2\n      sub\n      swap1\n      revert\n    tag_211:\n        /* \"hopium/common/interface/imDirectory.sol\":763:764  0 */\n      0x00\n        /* \"hopium/common/interface/imDirectory.sol\":738:748  _directory */\n      dup2\n        /* \"hopium/common/interface/imDirectory.sol\":738:760  _directory.code.length */\n      0xffffffffffffffffffffffffffffffffffffffff\n      and\n      extcodesize\n        /* \"hopium/common/interface/imDirectory.sol\":738:764  _directory.code.length > 0 */\n      gt\n        /* \"hopium/common/interface/imDirectory.sol\":730:797  require(_directory.code.length > 0, \"Directory must be a contract\") */\n      tag_214\n      jumpi\n      mload(0x40)\n      0x08c379a000000000000000000000000000000000000000000000000000000000\n      dup2\n      mstore\n      0x04\n      add\n      tag_215\n      swap1\n      tag_216\n      jump\t// in\n    tag_215:\n      mload(0x40)\n      dup1\n      swap2\n      sub\n      swap1\n      revert\n    tag_214:\n        /* \"hopium/common/interface/imDirectory.sol\":861:871  _directory */\n      dup1\n        /* \"hopium/common/interface/imDirectory.sol\":850:878  IDirectory(_directory).owner */\n      0xffffffffffffffffffffffffffffffffffffffff\n      and\n      0x8da5cb5b\n        /* \"hopium/common/interface/imDirectory.sol\":850:880  IDirectory(_directory).owner() */\n      mload(0x40)\n      dup2\n      0xffffffff\n      and\n      0xe0\n      shl\n      dup2\n      mstore\n      0x04\n      add\n      0x20\n      mload(0x40)\n      dup1\n      dup4\n      sub\n      dup2\n      dup7\n      gas\n      staticcall\n      swap3\n      pop\n      pop\n      pop\n      dup1\n      iszero\n      tag_217\n      jumpi\n      pop\n      mload(0x40)\n      returndatasize\n      not(0x1f)\n      0x1f\n      dup3\n      add\n      and\n      dup3\n      add\n      dup1\n      0x40\n      mstore\n      pop\n      dup2\n      add\n      swap1\n      tag_218\n      swap2\n      swap1\n      tag_65\n      jump\t// in\n    tag_218:\n      0x01\n    tag_217:\n        /* \"hopium/common/interface/imDirectory.sol\":846:1044  try IDirectory(_directory).owner() returns (address) {... */\n      tag_219\n      jumpi\n        /* \"hopium/common/interface/imDirectory.sol\":979:1033  revert(\"Directory address does not implement owner()\") */\n      mload(0x40)\n      0x08c379a000000000000000000000000000000000000000000000000000000000\n      dup2\n      mstore\n      0x04\n      add\n      tag_223\n      swap1\n      tag_224\n      jump\t// in\n    tag_223:\n      mload(0x40)\n      dup1\n      swap2\n      sub\n      swap1\n      revert\n        /* \"hopium/common/interface/imDirectory.sol\":846:1044  try IDirectory(_directory).owner() returns (address) {... */\n    tag_219:\n        /* \"hopium/common/interface/imDirectory.sol\":936:946  _directory */\n      dup2\n        /* \"hopium/common/interface/imDirectory.sol\":913:922  Directory */\n      0x03\n      0x00\n        /* \"hopium/common/interface/imDirectory.sol\":913:947  Directory = IDirectory(_directory) */\n      0x0100\n      exp\n      dup2\n      sload\n      dup2\n      0xffffffffffffffffffffffffffffffffffffffff\n      mul\n      not\n      and\n      swap1\n      dup4\n      0xffffffffffffffffffffffffffffffffffffffff\n      and\n      mul\n      or\n      swap1\n      sstore\n      pop\n        /* \"hopium/common/interface/imDirectory.sol\":881:958  returns (address) {... */\n      pop\n        /* \"hopium/common/interface/imDirectory.sol\":589:1050  function _setDirectory(address _directory) internal {... */\n      pop\n      jump\t// out\n        /* \"hopium/etf/main/index-factory.sol\":1492:2083  function _computeIndexHash(Holding[] calldata holdings)... */\n    tag_201:\n        /* \"hopium/etf/main/index-factory.sol\":1595:1602  bytes32 */\n      0x00\n        /* \"hopium/etf/main/index-factory.sol\":1618:1627  uint256 n */\n      0x00\n        /* \"hopium/etf/main/index-factory.sol\":1630:1638  holdings */\n      dup4\n      dup4\n        /* \"hopium/etf/main/index-factory.sol\":1630:1645  holdings.length */\n      swap1\n      pop\n        /* \"hopium/etf/main/index-factory.sol\":1618:1645  uint256 n = holdings.length */\n      swap1\n      pop\n        /* \"hopium/etf/main/index-factory.sol\":1655:1673  Holding[] memory h */\n      0x00\n        /* \"hopium/etf/main/index-factory.sol\":1690:1691  n */\n      dup2\n        /* \"hopium/etf/main/index-factory.sol\":1676:1692  new Holding[](n) */\n      0xffffffffffffffff\n      dup2\n      gt\n      iszero\n      tag_227\n      jumpi\n      tag_228\n      tag_229\n      jump\t// in\n    tag_228:\n    tag_227:\n      mload(0x40)\n      swap1\n      dup1\n      dup3\n      mstore\n      dup1\n      0x20\n      mul\n      0x20\n      add\n      dup3\n      add\n      0x40\n      mstore\n      dup1\n      iszero\n      tag_230\n      jumpi\n      dup2\n      0x20\n      add\n    tag_231:\n      tag_232\n      tag_233\n      jump\t// in\n    tag_232:\n      dup2\n      mstore\n      0x20\n      add\n      swap1\n      0x01\n      swap1\n      sub\n      swap1\n      dup2\n      tag_231\n      jumpi\n      swap1\n      pop\n    tag_230:\n      pop\n        /* \"hopium/etf/main/index-factory.sol\":1655:1692  Holding[] memory h = new Holding[](n) */\n      swap1\n      pop\n        /* \"hopium/etf/main/index-factory.sol\":1707:1716  uint256 i */\n      0x00\n        /* \"hopium/etf/main/index-factory.sol\":1719:1720  0 */\n      0x00\n        /* \"hopium/etf/main/index-factory.sol\":1707:1720  uint256 i = 0 */\n      swap1\n      pop\n        /* \"hopium/etf/main/index-factory.sol\":1702:1752  for (uint256 i = 0; i < n; i++) h[i] = holdings[i] */\n    tag_234:\n        /* \"hopium/etf/main/index-factory.sol\":1726:1727  n */\n      dup3\n        /* \"hopium/etf/main/index-factory.sol\":1722:1723  i */\n      dup2\n        /* \"hopium/etf/main/index-factory.sol\":1722:1727  i < n */\n      lt\n        /* \"hopium/etf/main/index-factory.sol\":1702:1752  for (uint256 i = 0; i < n; i++) h[i] = holdings[i] */\n      iszero\n      tag_235\n      jumpi\n        /* \"hopium/etf/main/index-factory.sol\":1741:1749  holdings */\n      dup6\n      dup6\n        /* \"hopium/etf/main/index-factory.sol\":1750:1751  i */\n      dup3\n        /* \"hopium/etf/main/index-factory.sol\":1741:1752  holdings[i] */\n      dup2\n      dup2\n      lt\n      tag_237\n      jumpi\n      tag_238\n      tag_109\n      jump\t// in\n    tag_238:\n    tag_237:\n      swap1\n      pop\n      0x40\n      mul\n      add\n        /* \"hopium/etf/main/index-factory.sol\":1734:1752  h[i] = holdings[i] */\n      dup1\n      calldatasize\n      sub\n      dup2\n      add\n      swap1\n      tag_239\n      swap2\n      swap1\n      tag_240\n      jump\t// in\n    tag_239:\n        /* \"hopium/etf/main/index-factory.sol\":1734:1735  h */\n      dup3\n        /* \"hopium/etf/main/index-factory.sol\":1736:1737  i */\n      dup3\n        /* \"hopium/etf/main/index-factory.sol\":1734:1738  h[i] */\n      dup2\n      mload\n      dup2\n      lt\n      tag_241\n      jumpi\n      tag_242\n      tag_109\n      jump\t// in\n    tag_242:\n    tag_241:\n      0x20\n      mul\n      0x20\n      add\n      add\n        /* \"hopium/etf/main/index-factory.sol\":1734:1752  h[i] = holdings[i] */\n      dup2\n      swap1\n      mstore\n      pop\n        /* \"hopium/etf/main/index-factory.sol\":1729:1732  i++ */\n      dup1\n      dup1\n      0x01\n      add\n      swap2\n      pop\n      pop\n        /* \"hopium/etf/main/index-factory.sol\":1702:1752  for (uint256 i = 0; i < n; i++) h[i] = holdings[i] */\n      jump(tag_234)\n    tag_235:\n      pop\n        /* \"hopium/etf/main/index-factory.sol\":1763:1779  _sortHoldings(h) */\n      tag_243\n        /* \"hopium/etf/main/index-factory.sol\":1777:1778  h */\n      dup2\n        /* \"hopium/etf/main/index-factory.sol\":1763:1776  _sortHoldings */\n      tag_244\n        /* \"hopium/etf/main/index-factory.sol\":1763:1779  _sortHoldings(h) */\n      jump\t// in\n    tag_243:\n        /* \"hopium/etf/main/index-factory.sol\":1790:1813  address[] memory tokens */\n      0x00\n        /* \"hopium/etf/main/index-factory.sol\":1830:1831  n */\n      dup3\n        /* \"hopium/etf/main/index-factory.sol\":1816:1832  new address[](n) */\n      0xffffffffffffffff\n      dup2\n      gt\n      iszero\n      tag_245\n      jumpi\n      tag_246\n      tag_229\n      jump\t// in\n    tag_246:\n    tag_245:\n      mload(0x40)\n      swap1\n      dup1\n      dup3\n      mstore\n      dup1\n      0x20\n      mul\n      0x20\n      add\n      dup3\n      add\n      0x40\n      mstore\n      dup1\n      iszero\n      tag_247\n      jumpi\n      dup2\n      0x20\n      add\n      0x20\n      dup3\n      mul\n      dup1\n      calldatasize\n      dup4\n      calldatacopy\n      dup1\n      dup3\n      add\n      swap2\n      pop\n      pop\n      swap1\n      pop\n    tag_247:\n      pop\n        /* \"hopium/etf/main/index-factory.sol\":1790:1832  address[] memory tokens = new address[](n) */\n      swap1\n      pop\n        /* \"hopium/etf/main/index-factory.sol\":1842:1865  uint16[] memory weights */\n      0x00\n        /* \"hopium/etf/main/index-factory.sol\":1881:1882  n */\n      dup4\n        /* \"hopium/etf/main/index-factory.sol\":1868:1883  new uint16[](n) */\n      0xffffffffffffffff\n      dup2\n      gt\n      iszero\n      tag_248\n      jumpi\n      tag_249\n      tag_229\n      jump\t// in\n    tag_249:\n    tag_248:\n      mload(0x40)\n      swap1\n      dup1\n      dup3\n      mstore\n      dup1\n      0x20\n      mul\n      0x20\n      add\n      dup3\n      add\n      0x40\n      mstore\n      dup1\n      iszero\n      tag_250\n      jumpi\n      dup2\n      0x20\n      add\n      0x20\n      dup3\n      mul\n      dup1\n      calldatasize\n      dup4\n      calldatacopy\n      dup1\n      dup3\n      add\n      swap2\n      pop\n      pop\n      swap1\n      pop\n    tag_250:\n      pop\n        /* \"hopium/etf/main/index-factory.sol\":1842:1883  uint16[] memory weights = new uint16[](n) */\n      swap1\n      pop\n        /* \"hopium/etf/main/index-factory.sol\":1898:1907  uint256 i */\n      0x00\n        /* \"hopium/etf/main/index-factory.sol\":1910:1911  0 */\n      0x00\n        /* \"hopium/etf/main/index-factory.sol\":1898:1911  uint256 i = 0 */\n      swap1\n      pop\n        /* \"hopium/etf/main/index-factory.sol\":1893:2021  for (uint256 i = 0; i < n; i++) {... */\n    tag_251:\n        /* \"hopium/etf/main/index-factory.sol\":1917:1918  n */\n      dup5\n        /* \"hopium/etf/main/index-factory.sol\":1913:1914  i */\n      dup2\n        /* \"hopium/etf/main/index-factory.sol\":1913:1918  i < n */\n      lt\n        /* \"hopium/etf/main/index-factory.sol\":1893:2021  for (uint256 i = 0; i < n; i++) {... */\n      iszero\n      tag_252\n      jumpi\n        /* \"hopium/etf/main/index-factory.sol\":1951:1952  h */\n      dup4\n        /* \"hopium/etf/main/index-factory.sol\":1953:1954  i */\n      dup2\n        /* \"hopium/etf/main/index-factory.sol\":1951:1955  h[i] */\n      dup2\n      mload\n      dup2\n      lt\n      tag_254\n      jumpi\n      tag_255\n      tag_109\n      jump\t// in\n    tag_255:\n    tag_254:\n      0x20\n      mul\n      0x20\n      add\n      add\n      mload\n        /* \"hopium/etf/main/index-factory.sol\":1951:1968  h[i].tokenAddress */\n      0x00\n      add\n      mload\n        /* \"hopium/etf/main/index-factory.sol\":1939:1945  tokens */\n      dup4\n        /* \"hopium/etf/main/index-factory.sol\":1946:1947  i */\n      dup3\n        /* \"hopium/etf/main/index-factory.sol\":1939:1948  tokens[i] */\n      dup2\n      mload\n      dup2\n      lt\n      tag_256\n      jumpi\n      tag_257\n      tag_109\n      jump\t// in\n    tag_257:\n    tag_256:\n      0x20\n      mul\n      0x20\n      add\n      add\n        /* \"hopium/etf/main/index-factory.sol\":1939:1968  tokens[i] = h[i].tokenAddress */\n      swap1\n      0xffffffffffffffffffffffffffffffffffffffff\n      and\n      swap1\n      dup2\n      0xffffffffffffffffffffffffffffffffffffffff\n      and\n      dup2\n      mstore\n      pop\n      pop\n        /* \"hopium/etf/main/index-factory.sol\":1995:1996  h */\n      dup4\n        /* \"hopium/etf/main/index-factory.sol\":1997:1998  i */\n      dup2\n        /* \"hopium/etf/main/index-factory.sol\":1995:1999  h[i] */\n      dup2\n      mload\n      dup2\n      lt\n      tag_258\n      jumpi\n      tag_259\n      tag_109\n      jump\t// in\n    tag_259:\n    tag_258:\n      0x20\n      mul\n      0x20\n      add\n      add\n      mload\n        /* \"hopium/etf/main/index-factory.sol\":1995:2010  h[i].weightBips */\n      0x20\n      add\n      mload\n        /* \"hopium/etf/main/index-factory.sol\":1982:1989  weights */\n      dup3\n        /* \"hopium/etf/main/index-factory.sol\":1990:1991  i */\n      dup3\n        /* \"hopium/etf/main/index-factory.sol\":1982:1992  weights[i] */\n      dup2\n      mload\n      dup2\n      lt\n      tag_260\n      jumpi\n      tag_261\n      tag_109\n      jump\t// in\n    tag_261:\n    tag_260:\n      0x20\n      mul\n      0x20\n      add\n      add\n        /* \"hopium/etf/main/index-factory.sol\":1982:2010  weights[i] = h[i].weightBips */\n      swap1\n      0xffff\n      and\n      swap1\n      dup2\n      0xffff\n      and\n      dup2\n      mstore\n      pop\n      pop\n        /* \"hopium/etf/main/index-factory.sol\":1920:1923  i++ */\n      dup1\n      dup1\n      0x01\n      add\n      swap2\n      pop\n      pop\n        /* \"hopium/etf/main/index-factory.sol\":1893:2021  for (uint256 i = 0; i < n; i++) {... */\n      jump(tag_251)\n    tag_252:\n      pop\n        /* \"hopium/etf/main/index-factory.sol\":2059:2065  tokens */\n      dup2\n        /* \"hopium/etf/main/index-factory.sol\":2067:2074  weights */\n      dup2\n        /* \"hopium/etf/main/index-factory.sol\":2048:2075  abi.encode(tokens, weights) */\n      add(0x20, mload(0x40))\n      tag_262\n      swap3\n      swap2\n      swap1\n      tag_263\n      jump\t// in\n    tag_262:\n      mload(0x40)\n      0x20\n      dup2\n      dup4\n      sub\n      sub\n      dup2\n      mstore\n      swap1\n      0x40\n      mstore\n        /* \"hopium/etf/main/index-factory.sol\":2038:2076  keccak256(abi.encode(tokens, weights)) */\n      dup1\n      mload\n      swap1\n      0x20\n      add\n      keccak256\n        /* \"hopium/etf/main/index-factory.sol\":2031:2076  return keccak256(abi.encode(tokens, weights)) */\n      swap5\n      pop\n      pop\n      pop\n      pop\n      pop\n        /* \"hopium/etf/main/index-factory.sol\":1492:2083  function _computeIndexHash(Holding[] calldata holdings)... */\n      swap3\n      swap2\n      pop\n      pop\n      jump\t// out\n        /* \"hopium/etf/main/index-factory.sol\":695:1408  function _sortHoldings(Holding[] memory h) internal pure {... */\n    tag_244:\n        /* \"hopium/etf/main/index-factory.sol\":762:771  uint256 n */\n      0x00\n        /* \"hopium/etf/main/index-factory.sol\":774:775  h */\n      dup2\n        /* \"hopium/etf/main/index-factory.sol\":774:782  h.length */\n      mload\n        /* \"hopium/etf/main/index-factory.sol\":762:782  uint256 n = h.length */\n      swap1\n      pop\n        /* \"hopium/etf/main/index-factory.sol\":797:806  uint256 i */\n      0x00\n        /* \"hopium/etf/main/index-factory.sol\":809:810  0 */\n      0x00\n        /* \"hopium/etf/main/index-factory.sol\":797:810  uint256 i = 0 */\n      swap1\n      pop\n        /* \"hopium/etf/main/index-factory.sol\":792:1402  for (uint256 i = 0; i < n; i++) {... */\n    tag_265:\n        /* \"hopium/etf/main/index-factory.sol\":816:817  n */\n      dup2\n        /* \"hopium/etf/main/index-factory.sol\":812:813  i */\n      dup2\n        /* \"hopium/etf/main/index-factory.sol\":812:817  i < n */\n      lt\n        /* \"hopium/etf/main/index-factory.sol\":792:1402  for (uint256 i = 0; i < n; i++) {... */\n      iszero\n      tag_266\n      jumpi\n        /* \"hopium/etf/main/index-factory.sol\":838:854  uint256 minIndex */\n      0x00\n        /* \"hopium/etf/main/index-factory.sol\":857:858  i */\n      dup2\n        /* \"hopium/etf/main/index-factory.sol\":838:858  uint256 minIndex = i */\n      swap1\n      pop\n        /* \"hopium/etf/main/index-factory.sol\":877:886  uint256 j */\n      0x00\n        /* \"hopium/etf/main/index-factory.sol\":893:894  1 */\n      0x01\n        /* \"hopium/etf/main/index-factory.sol\":889:890  i */\n      dup4\n        /* \"hopium/etf/main/index-factory.sol\":889:894  i + 1 */\n      tag_271\n      swap2\n      swap1\n      tag_185\n      jump\t// in\n    tag_271:\n        /* \"hopium/etf/main/index-factory.sol\":877:894  uint256 j = i + 1 */\n      swap1\n      pop\n        /* \"hopium/etf/main/index-factory.sol\":872:1286  for (uint256 j = i + 1; j < n; j++) {... */\n    tag_268:\n        /* \"hopium/etf/main/index-factory.sol\":900:901  n */\n      dup4\n        /* \"hopium/etf/main/index-factory.sol\":896:897  j */\n      dup2\n        /* \"hopium/etf/main/index-factory.sol\":896:901  j < n */\n      lt\n        /* \"hopium/etf/main/index-factory.sol\":872:1286  for (uint256 j = i + 1; j < n; j++) {... */\n      iszero\n      tag_269\n      jumpi\n        /* \"hopium/etf/main/index-factory.sol\":989:990  h */\n      dup5\n        /* \"hopium/etf/main/index-factory.sol\":991:999  minIndex */\n      dup3\n        /* \"hopium/etf/main/index-factory.sol\":989:1000  h[minIndex] */\n      dup2\n      mload\n      dup2\n      lt\n      tag_272\n      jumpi\n      tag_273\n      tag_109\n      jump\t// in\n    tag_273:\n    tag_272:\n      0x20\n      mul\n      0x20\n      add\n      add\n      mload\n        /* \"hopium/etf/main/index-factory.sol\":989:1013  h[minIndex].tokenAddress */\n      0x00\n      add\n      mload\n        /* \"hopium/etf/main/index-factory.sol\":952:1014  uint160(h[j].tokenAddress) < uint160(h[minIndex].tokenAddress) */\n      0xffffffffffffffffffffffffffffffffffffffff\n      and\n        /* \"hopium/etf/main/index-factory.sol\":960:961  h */\n      dup6\n        /* \"hopium/etf/main/index-factory.sol\":962:963  j */\n      dup3\n        /* \"hopium/etf/main/index-factory.sol\":960:964  h[j] */\n      dup2\n      mload\n      dup2\n      lt\n      tag_274\n      jumpi\n      tag_275\n      tag_109\n      jump\t// in\n    tag_275:\n    tag_274:\n      0x20\n      mul\n      0x20\n      add\n      add\n      mload\n        /* \"hopium/etf/main/index-factory.sol\":960:977  h[j].tokenAddress */\n      0x00\n      add\n      mload\n        /* \"hopium/etf/main/index-factory.sol\":952:1014  uint160(h[j].tokenAddress) < uint160(h[minIndex].tokenAddress) */\n      0xffffffffffffffffffffffffffffffffffffffff\n      and\n      lt\n        /* \"hopium/etf/main/index-factory.sol\":951:1200  (uint160(h[j].tokenAddress) < uint160(h[minIndex].tokenAddress)) ||... */\n      dup1\n      tag_276\n      jumpi\n      pop\n        /* \"hopium/etf/main/index-factory.sol\":1086:1087  h */\n      dup5\n        /* \"hopium/etf/main/index-factory.sol\":1088:1096  minIndex */\n      dup3\n        /* \"hopium/etf/main/index-factory.sol\":1086:1097  h[minIndex] */\n      dup2\n      mload\n      dup2\n      lt\n      tag_277\n      jumpi\n      tag_278\n      tag_109\n      jump\t// in\n    tag_278:\n    tag_277:\n      0x20\n      mul\n      0x20\n      add\n      add\n      mload\n        /* \"hopium/etf/main/index-factory.sol\":1086:1110  h[minIndex].tokenAddress */\n      0x00\n      add\n      mload\n        /* \"hopium/etf/main/index-factory.sol\":1065:1110  h[j].tokenAddress == h[minIndex].tokenAddress */\n      0xffffffffffffffffffffffffffffffffffffffff\n      and\n        /* \"hopium/etf/main/index-factory.sol\":1065:1066  h */\n      dup6\n        /* \"hopium/etf/main/index-factory.sol\":1067:1068  j */\n      dup3\n        /* \"hopium/etf/main/index-factory.sol\":1065:1069  h[j] */\n      dup2\n      mload\n      dup2\n      lt\n      tag_279\n      jumpi\n      tag_280\n      tag_109\n      jump\t// in\n    tag_280:\n    tag_279:\n      0x20\n      mul\n      0x20\n      add\n      add\n      mload\n        /* \"hopium/etf/main/index-factory.sol\":1065:1082  h[j].tokenAddress */\n      0x00\n      add\n      mload\n        /* \"hopium/etf/main/index-factory.sol\":1065:1110  h[j].tokenAddress == h[minIndex].tokenAddress */\n      0xffffffffffffffffffffffffffffffffffffffff\n      and\n      eq\n        /* \"hopium/etf/main/index-factory.sol\":1065:1178  h[j].tokenAddress == h[minIndex].tokenAddress &&... */\n      dup1\n      iszero\n      tag_281\n      jumpi\n      pop\n        /* \"hopium/etf/main/index-factory.sol\":1156:1157  h */\n      dup5\n        /* \"hopium/etf/main/index-factory.sol\":1158:1166  minIndex */\n      dup3\n        /* \"hopium/etf/main/index-factory.sol\":1156:1167  h[minIndex] */\n      dup2\n      mload\n      dup2\n      lt\n      tag_282\n      jumpi\n      tag_283\n      tag_109\n      jump\t// in\n    tag_283:\n    tag_282:\n      0x20\n      mul\n      0x20\n      add\n      add\n      mload\n        /* \"hopium/etf/main/index-factory.sol\":1156:1178  h[minIndex].weightBips */\n      0x20\n      add\n      mload\n        /* \"hopium/etf/main/index-factory.sol\":1138:1178  h[j].weightBips < h[minIndex].weightBips */\n      0xffff\n      and\n        /* \"hopium/etf/main/index-factory.sol\":1138:1139  h */\n      dup6\n        /* \"hopium/etf/main/index-factory.sol\":1140:1141  j */\n      dup3\n        /* \"hopium/etf/main/index-factory.sol\":1138:1142  h[j] */\n      dup2\n      mload\n      dup2\n      lt\n      tag_284\n      jumpi\n      tag_285\n      tag_109\n      jump\t// in\n    tag_285:\n    tag_284:\n      0x20\n      mul\n      0x20\n      add\n      add\n      mload\n        /* \"hopium/etf/main/index-factory.sol\":1138:1153  h[j].weightBips */\n      0x20\n      add\n      mload\n        /* \"hopium/etf/main/index-factory.sol\":1138:1178  h[j].weightBips < h[minIndex].weightBips */\n      0xffff\n      and\n      lt\n        /* \"hopium/etf/main/index-factory.sol\":1065:1178  h[j].tokenAddress == h[minIndex].tokenAddress &&... */\n    tag_281:\n        /* \"hopium/etf/main/index-factory.sol\":951:1200  (uint160(h[j].tokenAddress) < uint160(h[minIndex].tokenAddress)) ||... */\n    tag_276:\n        /* \"hopium/etf/main/index-factory.sol\":926:1272  if (... */\n      iszero\n      tag_286\n      jumpi\n        /* \"hopium/etf/main/index-factory.sol\":1252:1253  j */\n      dup1\n        /* \"hopium/etf/main/index-factory.sol\":1241:1253  minIndex = j */\n      swap2\n      pop\n        /* \"hopium/etf/main/index-factory.sol\":926:1272  if (... */\n    tag_286:\n        /* \"hopium/etf/main/index-factory.sol\":903:906  j++ */\n      dup1\n      dup1\n      0x01\n      add\n      swap2\n      pop\n      pop\n        /* \"hopium/etf/main/index-factory.sol\":872:1286  for (uint256 j = i + 1; j < n; j++) {... */\n      jump(tag_268)\n    tag_269:\n      pop\n        /* \"hopium/etf/main/index-factory.sol\":1315:1316  i */\n      dup2\n        /* \"hopium/etf/main/index-factory.sol\":1303:1311  minIndex */\n      dup2\n        /* \"hopium/etf/main/index-factory.sol\":1303:1316  minIndex != i */\n      eq\n        /* \"hopium/etf/main/index-factory.sol\":1299:1392  if (minIndex != i) {... */\n      tag_287\n      jumpi\n        /* \"hopium/etf/main/index-factory.sol\":1359:1360  h */\n      dup4\n        /* \"hopium/etf/main/index-factory.sol\":1361:1369  minIndex */\n      dup2\n        /* \"hopium/etf/main/index-factory.sol\":1359:1370  h[minIndex] */\n      dup2\n      mload\n      dup2\n      lt\n      tag_288\n      jumpi\n      tag_289\n      tag_109\n      jump\t// in\n    tag_289:\n    tag_288:\n      0x20\n      mul\n      0x20\n      add\n      add\n      mload\n        /* \"hopium/etf/main/index-factory.sol\":1372:1373  h */\n      dup5\n        /* \"hopium/etf/main/index-factory.sol\":1374:1375  i */\n      dup4\n        /* \"hopium/etf/main/index-factory.sol\":1372:1376  h[i] */\n      dup2\n      mload\n      dup2\n      lt\n      tag_290\n      jumpi\n      tag_291\n      tag_109\n      jump\t// in\n    tag_291:\n    tag_290:\n      0x20\n      mul\n      0x20\n      add\n      add\n      mload\n        /* \"hopium/etf/main/index-factory.sol\":1337:1338  h */\n      dup6\n        /* \"hopium/etf/main/index-factory.sol\":1339:1340  i */\n      dup5\n        /* \"hopium/etf/main/index-factory.sol\":1337:1341  h[i] */\n      dup2\n      mload\n      dup2\n      lt\n      tag_292\n      jumpi\n      tag_293\n      tag_109\n      jump\t// in\n    tag_293:\n    tag_292:\n      0x20\n      mul\n      0x20\n      add\n      add\n        /* \"hopium/etf/main/index-factory.sol\":1343:1344  h */\n      dup7\n        /* \"hopium/etf/main/index-factory.sol\":1345:1353  minIndex */\n      dup5\n        /* \"hopium/etf/main/index-factory.sol\":1343:1354  h[minIndex] */\n      dup2\n      mload\n      dup2\n      lt\n      tag_294\n      jumpi\n      tag_295\n      tag_109\n      jump\t// in\n    tag_295:\n    tag_294:\n      0x20\n      mul\n      0x20\n      add\n      add\n        /* \"hopium/etf/main/index-factory.sol\":1336:1377  (h[i], h[minIndex]) = (h[minIndex], h[i]) */\n      dup3\n      swap1\n      mstore\n      dup3\n      swap1\n      mstore\n      pop\n      pop\n        /* \"hopium/etf/main/index-factory.sol\":1299:1392  if (minIndex != i) {... */\n    tag_287:\n        /* \"hopium/etf/main/index-factory.sol\":824:1402  {... */\n      pop\n        /* \"hopium/etf/main/index-factory.sol\":819:822  i++ */\n      dup1\n      dup1\n      0x01\n      add\n      swap2\n      pop\n      pop\n        /* \"hopium/etf/main/index-factory.sol\":792:1402  for (uint256 i = 0; i < n; i++) {... */\n      jump(tag_265)\n    tag_266:\n      pop\n        /* \"hopium/etf/main/index-factory.sol\":752:1408  {... */\n      pop\n        /* \"hopium/etf/main/index-factory.sol\":695:1408  function _sortHoldings(Holding[] memory h) internal pure {... */\n      pop\n      jump\t// out\n    tag_99:\n      mload(0x40)\n      dup1\n      0x60\n      add\n      0x40\n      mstore\n      dup1\n      0x60\n      dup2\n      mstore\n      0x20\n      add\n      0x60\n      dup2\n      mstore\n      0x20\n      add\n      0x60\n      dup2\n      mstore\n      pop\n      swap1\n      jump\t// out\n    tag_233:\n      mload(0x40)\n      dup1\n      0x40\n      add\n      0x40\n      mstore\n      dup1\n      and(0xffffffffffffffffffffffffffffffffffffffff, 0x00)\n      dup2\n      mstore\n      0x20\n      add\n      and(0xffff, 0x00)\n      dup2\n      mstore\n      pop\n      swap1\n      jump\t// out\n        /* \"#utility.yul\":7:97   */\n    tag_296:\n        /* \"#utility.yul\":41:48   */\n      0x00\n        /* \"#utility.yul\":84:89   */\n      dup2\n        /* \"#utility.yul\":77:90   */\n      iszero\n        /* \"#utility.yul\":70:91   */\n      iszero\n        /* \"#utility.yul\":59:91   */\n      swap1\n      pop\n        /* \"#utility.yul\":7:97   */\n      swap2\n      swap1\n      pop\n      jump\t// out\n        /* \"#utility.yul\":103:212   */\n    tag_297:\n        /* \"#utility.yul\":184:205   */\n      tag_471\n        /* \"#utility.yul\":199:204   */\n      dup2\n        /* \"#utility.yul\":184:205   */\n      tag_296\n      jump\t// in\n    tag_471:\n        /* \"#utility.yul\":179:182   */\n      dup3\n        /* \"#utility.yul\":172:206   */\n      mstore\n        /* \"#utility.yul\":103:212   */\n      pop\n      pop\n      jump\t// out\n        /* \"#utility.yul\":218:428   */\n    tag_17:\n        /* \"#utility.yul\":305:309   */\n      0x00\n        /* \"#utility.yul\":343:345   */\n      0x20\n        /* \"#utility.yul\":332:341   */\n      dup3\n        /* \"#utility.yul\":328:346   */\n      add\n        /* \"#utility.yul\":320:346   */\n      swap1\n      pop\n        /* \"#utility.yul\":356:421   */\n      tag_473\n        /* \"#utility.yul\":418:419   */\n      0x00\n        /* \"#utility.yul\":407:416   */\n      dup4\n        /* \"#utility.yul\":403:420   */\n      add\n        /* \"#utility.yul\":394:400   */\n      dup5\n        /* \"#utility.yul\":356:421   */\n      tag_297\n      jump\t// in\n    tag_473:\n        /* \"#utility.yul\":218:428   */\n      swap3\n      swap2\n      pop\n      pop\n      jump\t// out\n        /* \"#utility.yul\":434:509   */\n    tag_298:\n        /* \"#utility.yul\":467:473   */\n      0x00\n        /* \"#utility.yul\":500:502   */\n      0x40\n        /* \"#utility.yul\":494:503   */\n      mload\n        /* \"#utility.yul\":484:503   */\n      swap1\n      pop\n        /* \"#utility.yul\":434:509   */\n      swap1\n      jump\t// out\n        /* \"#utility.yul\":515:632   */\n    tag_299:\n        /* \"#utility.yul\":624:625   */\n      0x00\n        /* \"#utility.yul\":621:622   */\n      0x00\n        /* \"#utility.yul\":614:626   */\n      revert\n        /* \"#utility.yul\":638:755   */\n    tag_300:\n        /* \"#utility.yul\":747:748   */\n      0x00\n        /* \"#utility.yul\":744:745   */\n      0x00\n        /* \"#utility.yul\":737:749   */\n      revert\n        /* \"#utility.yul\":761:878   */\n    tag_301:\n        /* \"#utility.yul\":870:871   */\n      0x00\n        /* \"#utility.yul\":867:868   */\n      0x00\n        /* \"#utility.yul\":860:872   */\n      revert\n        /* \"#utility.yul\":884:1001   */\n    tag_302:\n        /* \"#utility.yul\":993:994   */\n      0x00\n        /* \"#utility.yul\":990:991   */\n      0x00\n        /* \"#utility.yul\":983:995   */\n      revert\n        /* \"#utility.yul\":1007:1109   */\n    tag_303:\n        /* \"#utility.yul\":1048:1054   */\n      0x00\n        /* \"#utility.yul\":1099:1101   */\n      0x1f\n        /* \"#utility.yul\":1095:1102   */\n      not\n        /* \"#utility.yul\":1090:1092   */\n      0x1f\n        /* \"#utility.yul\":1083:1088   */\n      dup4\n        /* \"#utility.yul\":1079:1093   */\n      add\n        /* \"#utility.yul\":1075:1103   */\n      and\n        /* \"#utility.yul\":1065:1103   */\n      swap1\n      pop\n        /* \"#utility.yul\":1007:1109   */\n      swap2\n      swap1\n      pop\n      jump\t// out\n        /* \"#utility.yul\":1115:1295   */\n    tag_229:\n        /* \"#utility.yul\":1163:1240   */\n      0x4e487b7100000000000000000000000000000000000000000000000000000000\n        /* \"#utility.yul\":1160:1161   */\n      0x00\n        /* \"#utility.yul\":1153:1241   */\n      mstore\n        /* \"#utility.yul\":1260:1264   */\n      0x41\n        /* \"#utility.yul\":1257:1258   */\n      0x04\n        /* \"#utility.yul\":1250:1265   */\n      mstore\n        /* \"#utility.yul\":1284:1288   */\n      0x24\n        /* \"#utility.yul\":1281:1282   */\n      0x00\n        /* \"#utility.yul\":1274:1289   */\n      revert\n        /* \"#utility.yul\":1301:1582   */\n    tag_304:\n        /* \"#utility.yul\":1384:1411   */\n      tag_482\n        /* \"#utility.yul\":1406:1410   */\n      dup3\n        /* \"#utility.yul\":1384:1411   */\n      tag_303\n      jump\t// in\n    tag_482:\n        /* \"#utility.yul\":1376:1382   */\n      dup2\n        /* \"#utility.yul\":1372:1412   */\n      add\n        /* \"#utility.yul\":1514:1520   */\n      dup2\n        /* \"#utility.yul\":1502:1512   */\n      dup2\n        /* \"#utility.yul\":1499:1521   */\n      lt\n        /* \"#utility.yul\":1478:1496   */\n      0xffffffffffffffff\n        /* \"#utility.yul\":1466:1476   */\n      dup3\n        /* \"#utility.yul\":1463:1497   */\n      gt\n        /* \"#utility.yul\":1460:1522   */\n      or\n        /* \"#utility.yul\":1457:1545   */\n      iszero\n      tag_483\n      jumpi\n        /* \"#utility.yul\":1525:1543   */\n      tag_484\n      tag_229\n      jump\t// in\n    tag_484:\n        /* \"#utility.yul\":1457:1545   */\n    tag_483:\n        /* \"#utility.yul\":1565:1575   */\n      dup1\n        /* \"#utility.yul\":1561:1563   */\n      0x40\n        /* \"#utility.yul\":1554:1576   */\n      mstore\n        /* \"#utility.yul\":1344:1582   */\n      pop\n        /* \"#utility.yul\":1301:1582   */\n      pop\n      pop\n      jump\t// out\n        /* \"#utility.yul\":1588:1717   */\n    tag_305:\n        /* \"#utility.yul\":1622:1628   */\n      0x00\n        /* \"#utility.yul\":1649:1669   */\n      tag_486\n      tag_298\n      jump\t// in\n    tag_486:\n        /* \"#utility.yul\":1639:1669   */\n      swap1\n      pop\n        /* \"#utility.yul\":1678:1711   */\n      tag_487\n        /* \"#utility.yul\":1706:1710   */\n      dup3\n        /* \"#utility.yul\":1698:1704   */\n      dup3\n        /* \"#utility.yul\":1678:1711   */\n      tag_304\n      jump\t// in\n    tag_487:\n        /* \"#utility.yul\":1588:1717   */\n      swap2\n      swap1\n      pop\n      jump\t// out\n        /* \"#utility.yul\":1723:2031   */\n    tag_306:\n        /* \"#utility.yul\":1785:1789   */\n      0x00\n        /* \"#utility.yul\":1875:1893   */\n      0xffffffffffffffff\n        /* \"#utility.yul\":1867:1873   */\n      dup3\n        /* \"#utility.yul\":1864:1894   */\n      gt\n        /* \"#utility.yul\":1861:1917   */\n      iszero\n      tag_489\n      jumpi\n        /* \"#utility.yul\":1897:1915   */\n      tag_490\n      tag_229\n      jump\t// in\n    tag_490:\n        /* \"#utility.yul\":1861:1917   */\n    tag_489:\n        /* \"#utility.yul\":1935:1964   */\n      tag_491\n        /* \"#utility.yul\":1957:1963   */\n      dup3\n        /* \"#utility.yul\":1935:1964   */\n      tag_303\n      jump\t// in\n    tag_491:\n        /* \"#utility.yul\":1927:1964   */\n      swap1\n      pop\n        /* \"#utility.yul\":2019:2023   */\n      0x20\n        /* \"#utility.yul\":2013:2017   */\n      dup2\n        /* \"#utility.yul\":2009:2024   */\n      add\n        /* \"#utility.yul\":2001:2024   */\n      swap1\n      pop\n        /* \"#utility.yul\":1723:2031   */\n      swap2\n      swap1\n      pop\n      jump\t// out\n        /* \"#utility.yul\":2037:2185   */\n    tag_307:\n        /* \"#utility.yul\":2135:2141   */\n      dup3\n        /* \"#utility.yul\":2130:2133   */\n      dup2\n        /* \"#utility.yul\":2125:2128   */\n      dup4\n        /* \"#utility.yul\":2112:2142   */\n      calldatacopy\n        /* \"#utility.yul\":2176:2177   */\n      0x00\n        /* \"#utility.yul\":2167:2173   */\n      dup4\n        /* \"#utility.yul\":2162:2165   */\n      dup4\n        /* \"#utility.yul\":2158:2174   */\n      add\n        /* \"#utility.yul\":2151:2178   */\n      mstore\n        /* \"#utility.yul\":2037:2185   */\n      pop\n      pop\n      pop\n      jump\t// out\n        /* \"#utility.yul\":2191:2616   */\n    tag_308:\n        /* \"#utility.yul\":2269:2274   */\n      0x00\n        /* \"#utility.yul\":2294:2360   */\n      tag_494\n        /* \"#utility.yul\":2310:2359   */\n      tag_495\n        /* \"#utility.yul\":2352:2358   */\n      dup5\n        /* \"#utility.yul\":2310:2359   */\n      tag_306\n      jump\t// in\n    tag_495:\n        /* \"#utility.yul\":2294:2360   */\n      tag_305\n      jump\t// in\n    tag_494:\n        /* \"#utility.yul\":2285:2360   */\n      swap1\n      pop\n        /* \"#utility.yul\":2383:2389   */\n      dup3\n        /* \"#utility.yul\":2376:2381   */\n      dup2\n        /* \"#utility.yul\":2369:2390   */\n      mstore\n        /* \"#utility.yul\":2421:2425   */\n      0x20\n        /* \"#utility.yul\":2414:2419   */\n      dup2\n        /* \"#utility.yul\":2410:2426   */\n      add\n        /* \"#utility.yul\":2459:2462   */\n      dup5\n        /* \"#utility.yul\":2450:2456   */\n      dup5\n        /* \"#utility.yul\":2445:2448   */\n      dup5\n        /* \"#utility.yul\":2441:2457   */\n      add\n        /* \"#utility.yul\":2438:2463   */\n      gt\n        /* \"#utility.yul\":2435:2547   */\n      iszero\n      tag_496\n      jumpi\n        /* \"#utility.yul\":2466:2545   */\n      tag_497\n      tag_302\n      jump\t// in\n    tag_497:\n        /* \"#utility.yul\":2435:2547   */\n    tag_496:\n        /* \"#utility.yul\":2556:2610   */\n      tag_498\n        /* \"#utility.yul\":2603:2609   */\n      dup5\n        /* \"#utility.yul\":2598:2601   */\n      dup3\n        /* \"#utility.yul\":2593:2596   */\n      dup6\n        /* \"#utility.yul\":2556:2610   */\n      tag_307\n      jump\t// in\n    tag_498:\n        /* \"#utility.yul\":2275:2616   */\n      pop\n        /* \"#utility.yul\":2191:2616   */\n      swap4\n      swap3\n      pop\n      pop\n      pop\n      jump\t// out\n        /* \"#utility.yul\":2636:2976   */\n    tag_309:\n        /* \"#utility.yul\":2692:2697   */\n      0x00\n        /* \"#utility.yul\":2741:2744   */\n      dup3\n        /* \"#utility.yul\":2734:2738   */\n      0x1f\n        /* \"#utility.yul\":2726:2732   */\n      dup4\n        /* \"#utility.yul\":2722:2739   */\n      add\n        /* \"#utility.yul\":2718:2745   */\n      slt\n        /* \"#utility.yul\":2708:2830   */\n      tag_500\n      jumpi\n        /* \"#utility.yul\":2749:2828   */\n      tag_501\n      tag_301\n      jump\t// in\n    tag_501:\n        /* \"#utility.yul\":2708:2830   */\n    tag_500:\n        /* \"#utility.yul\":2866:2872   */\n      dup2\n        /* \"#utility.yul\":2853:2873   */\n      calldataload\n        /* \"#utility.yul\":2891:2970   */\n      tag_502\n        /* \"#utility.yul\":2966:2969   */\n      dup5\n        /* \"#utility.yul\":2958:2964   */\n      dup3\n        /* \"#utility.yul\":2951:2955   */\n      0x20\n        /* \"#utility.yul\":2943:2949   */\n      dup7\n        /* \"#utility.yul\":2939:2956   */\n      add\n        /* \"#utility.yul\":2891:2970   */\n      tag_308\n      jump\t// in\n    tag_502:\n        /* \"#utility.yul\":2882:2970   */\n      swap2\n      pop\n        /* \"#utility.yul\":2698:2976   */\n      pop\n        /* \"#utility.yul\":2636:2976   */\n      swap3\n      swap2\n      pop\n      pop\n      jump\t// out\n        /* \"#utility.yul\":2982:3491   */\n    tag_20:\n        /* \"#utility.yul\":3051:3057   */\n      0x00\n        /* \"#utility.yul\":3100:3102   */\n      0x20\n        /* \"#utility.yul\":3088:3097   */\n      dup3\n        /* \"#utility.yul\":3079:3086   */\n      dup5\n        /* \"#utility.yul\":3075:3098   */\n      sub\n        /* \"#utility.yul\":3071:3103   */\n      slt\n        /* \"#utility.yul\":3068:3187   */\n      iszero\n      tag_504\n      jumpi\n        /* \"#utility.yul\":3106:3185   */\n      tag_505\n      tag_299\n      jump\t// in\n    tag_505:\n        /* \"#utility.yul\":3068:3187   */\n    tag_504:\n        /* \"#utility.yul\":3254:3255   */\n      0x00\n        /* \"#utility.yul\":3243:3252   */\n      dup3\n        /* \"#utility.yul\":3239:3256   */\n      add\n        /* \"#utility.yul\":3226:3257   */\n      calldataload\n        /* \"#utility.yul\":3284:3302   */\n      0xffffffffffffffff\n        /* \"#utility.yul\":3276:3282   */\n      dup2\n        /* \"#utility.yul\":3273:3303   */\n      gt\n        /* \"#utility.yul\":3270:3387   */\n      iszero\n      tag_506\n      jumpi\n        /* \"#utility.yul\":3306:3385   */\n      tag_507\n      tag_300\n      jump\t// in\n    tag_507:\n        /* \"#utility.yul\":3270:3387   */\n    tag_506:\n        /* \"#utility.yul\":3411:3474   */\n      tag_508\n        /* \"#utility.yul\":3466:3473   */\n      dup5\n        /* \"#utility.yul\":3457:3463   */\n      dup3\n        /* \"#utility.yul\":3446:3455   */\n      dup6\n        /* \"#utility.yul\":3442:3464   */\n      add\n        /* \"#utility.yul\":3411:3474   */\n      tag_309\n      jump\t// in\n    tag_508:\n        /* \"#utility.yul\":3401:3474   */\n      swap2\n      pop\n        /* \"#utility.yul\":3197:3484   */\n      pop\n        /* \"#utility.yul\":2982:3491   */\n      swap3\n      swap2\n      pop\n      pop\n      jump\t// out\n        /* \"#utility.yul\":3497:3623   */\n    tag_310:\n        /* \"#utility.yul\":3534:3541   */\n      0x00\n        /* \"#utility.yul\":3574:3616   */\n      0xffffffffffffffffffffffffffffffffffffffff\n        /* \"#utility.yul\":3567:3572   */\n      dup3\n        /* \"#utility.yul\":3563:3617   */\n      and\n        /* \"#utility.yul\":3552:3617   */\n      swap1\n      pop\n        /* \"#utility.yul\":3497:3623   */\n      swap2\n      swap1\n      pop\n      jump\t// out\n        /* \"#utility.yul\":3629:3725   */\n    tag_311:\n        /* \"#utility.yul\":3666:3673   */\n      0x00\n        /* \"#utility.yul\":3695:3719   */\n      tag_511\n        /* \"#utility.yul\":3713:3718   */\n      dup3\n        /* \"#utility.yul\":3695:3719   */\n      tag_310\n      jump\t// in\n    tag_511:\n        /* \"#utility.yul\":3684:3719   */\n      swap1\n      pop\n        /* \"#utility.yul\":3629:3725   */\n      swap2\n      swap1\n      pop\n      jump\t// out\n        /* \"#utility.yul\":3731:3849   */\n    tag_312:\n        /* \"#utility.yul\":3818:3842   */\n      tag_513\n        /* \"#utility.yul\":3836:3841   */\n      dup2\n        /* \"#utility.yul\":3818:3842   */\n      tag_311\n      jump\t// in\n    tag_513:\n        /* \"#utility.yul\":3813:3816   */\n      dup3\n        /* \"#utility.yul\":3806:3843   */\n      mstore\n        /* \"#utility.yul\":3731:3849   */\n      pop\n      pop\n      jump\t// out\n        /* \"#utility.yul\":3855:4077   */\n    tag_23:\n        /* \"#utility.yul\":3948:3952   */\n      0x00\n        /* \"#utility.yul\":3986:3988   */\n      0x20\n        /* \"#utility.yul\":3975:3984   */\n      dup3\n        /* \"#utility.yul\":3971:3989   */\n      add\n        /* \"#utility.yul\":3963:3989   */\n      swap1\n      pop\n        /* \"#utility.yul\":3999:4070   */\n      tag_515\n        /* \"#utility.yul\":4067:4068   */\n      0x00\n        /* \"#utility.yul\":4056:4065   */\n      dup4\n        /* \"#utility.yul\":4052:4069   */\n      add\n        /* \"#utility.yul\":4043:4049   */\n      dup5\n        /* \"#utility.yul\":3999:4070   */\n      tag_312\n      jump\t// in\n    tag_515:\n        /* \"#utility.yul\":3855:4077   */\n      swap3\n      swap2\n      pop\n      pop\n      jump\t// out\n        /* \"#utility.yul\":4083:4160   */\n    tag_313:\n        /* \"#utility.yul\":4120:4127   */\n      0x00\n        /* \"#utility.yul\":4149:4154   */\n      dup2\n        /* \"#utility.yul\":4138:4154   */\n      swap1\n      pop\n        /* \"#utility.yul\":4083:4160   */\n      swap2\n      swap1\n      pop\n      jump\t// out\n        /* \"#utility.yul\":4166:4284   */\n    tag_314:\n        /* \"#utility.yul\":4253:4277   */\n      tag_518\n        /* \"#utility.yul\":4271:4276   */\n      dup2\n        /* \"#utility.yul\":4253:4277   */\n      tag_313\n      jump\t// in\n    tag_518:\n        /* \"#utility.yul\":4248:4251   */\n      dup3\n        /* \"#utility.yul\":4241:4278   */\n      mstore\n        /* \"#utility.yul\":4166:4284   */\n      pop\n      pop\n      jump\t// out\n        /* \"#utility.yul\":4290:4512   */\n    tag_27:\n        /* \"#utility.yul\":4383:4387   */\n      0x00\n        /* \"#utility.yul\":4421:4423   */\n      0x20\n        /* \"#utility.yul\":4410:4419   */\n      dup3\n        /* \"#utility.yul\":4406:4424   */\n      add\n        /* \"#utility.yul\":4398:4424   */\n      swap1\n      pop\n        /* \"#utility.yul\":4434:4505   */\n      tag_520\n        /* \"#utility.yul\":4502:4503   */\n      0x00\n        /* \"#utility.yul\":4491:4500   */\n      dup4\n        /* \"#utility.yul\":4487:4504   */\n      add\n        /* \"#utility.yul\":4478:4484   */\n      dup5\n        /* \"#utility.yul\":4434:4505   */\n      tag_314\n      jump\t// in\n    tag_520:\n        /* \"#utility.yul\":4290:4512   */\n      swap3\n      swap2\n      pop\n      pop\n      jump\t// out\n        /* \"#utility.yul\":4518:4635   */\n    tag_315:\n        /* \"#utility.yul\":4627:4628   */\n      0x00\n        /* \"#utility.yul\":4624:4625   */\n      0x00\n        /* \"#utility.yul\":4617:4629   */\n      revert\n        /* \"#utility.yul\":4661:4889   */\n    tag_316:\n        /* \"#utility.yul\":4731:4736   */\n      0x00\n        /* \"#utility.yul\":4772:4774   */\n      0x60\n        /* \"#utility.yul\":4763:4769   */\n      dup3\n        /* \"#utility.yul\":4758:4761   */\n      dup5\n        /* \"#utility.yul\":4754:4770   */\n      sub\n        /* \"#utility.yul\":4750:4775   */\n      slt\n        /* \"#utility.yul\":4747:4859   */\n      iszero\n      tag_523\n      jumpi\n        /* \"#utility.yul\":4778:4857   */\n      tag_524\n      tag_315\n      jump\t// in\n    tag_524:\n        /* \"#utility.yul\":4747:4859   */\n    tag_523:\n        /* \"#utility.yul\":4877:4883   */\n      dup2\n        /* \"#utility.yul\":4868:4883   */\n      swap1\n      pop\n        /* \"#utility.yul\":4661:4889   */\n      swap3\n      swap2\n      pop\n      pop\n      jump\t// out\n        /* \"#utility.yul\":4895:5432   */\n    tag_30:\n        /* \"#utility.yul\":4978:4984   */\n      0x00\n        /* \"#utility.yul\":5027:5029   */\n      0x20\n        /* \"#utility.yul\":5015:5024   */\n      dup3\n        /* \"#utility.yul\":5006:5013   */\n      dup5\n        /* \"#utility.yul\":5002:5025   */\n      sub\n        /* \"#utility.yul\":4998:5030   */\n      slt\n        /* \"#utility.yul\":4995:5114   */\n      iszero\n      tag_526\n      jumpi\n        /* \"#utility.yul\":5033:5112   */\n      tag_527\n      tag_299\n      jump\t// in\n    tag_527:\n        /* \"#utility.yul\":4995:5114   */\n    tag_526:\n        /* \"#utility.yul\":5181:5182   */\n      0x00\n        /* \"#utility.yul\":5170:5179   */\n      dup3\n        /* \"#utility.yul\":5166:5183   */\n      add\n        /* \"#utility.yul\":5153:5184   */\n      calldataload\n        /* \"#utility.yul\":5211:5229   */\n      0xffffffffffffffff\n        /* \"#utility.yul\":5203:5209   */\n      dup2\n        /* \"#utility.yul\":5200:5230   */\n      gt\n        /* \"#utility.yul\":5197:5314   */\n      iszero\n      tag_528\n      jumpi\n        /* \"#utility.yul\":5233:5312   */\n      tag_529\n      tag_300\n      jump\t// in\n    tag_529:\n        /* \"#utility.yul\":5197:5314   */\n    tag_528:\n        /* \"#utility.yul\":5338:5415   */\n      tag_530\n        /* \"#utility.yul\":5407:5414   */\n      dup5\n        /* \"#utility.yul\":5398:5404   */\n      dup3\n        /* \"#utility.yul\":5387:5396   */\n      dup6\n        /* \"#utility.yul\":5383:5405   */\n      add\n        /* \"#utility.yul\":5338:5415   */\n      tag_316\n      jump\t// in\n    tag_530:\n        /* \"#utility.yul\":5328:5415   */\n      swap2\n      pop\n        /* \"#utility.yul\":5124:5425   */\n      pop\n        /* \"#utility.yul\":4895:5432   */\n      swap3\n      swap2\n      pop\n      pop\n      jump\t// out\n        /* \"#utility.yul\":5438:5560   */\n    tag_317:\n        /* \"#utility.yul\":5511:5535   */\n      tag_532\n        /* \"#utility.yul\":5529:5534   */\n      dup2\n        /* \"#utility.yul\":5511:5535   */\n      tag_313\n      jump\t// in\n    tag_532:\n        /* \"#utility.yul\":5504:5509   */\n      dup2\n        /* \"#utility.yul\":5501:5536   */\n      eq\n        /* \"#utility.yul\":5491:5554   */\n      tag_533\n      jumpi\n        /* \"#utility.yul\":5550:5551   */\n      0x00\n        /* \"#utility.yul\":5547:5548   */\n      0x00\n        /* \"#utility.yul\":5540:5552   */\n      revert\n        /* \"#utility.yul\":5491:5554   */\n    tag_533:\n        /* \"#utility.yul\":5438:5560   */\n      pop\n      jump\t// out\n        /* \"#utility.yul\":5566:5705   */\n    tag_318:\n        /* \"#utility.yul\":5612:5617   */\n      0x00\n        /* \"#utility.yul\":5650:5656   */\n      dup2\n        /* \"#utility.yul\":5637:5657   */\n      calldataload\n        /* \"#utility.yul\":5628:5657   */\n      swap1\n      pop\n        /* \"#utility.yul\":5666:5699   */\n      tag_535\n        /* \"#utility.yul\":5693:5698   */\n      dup2\n        /* \"#utility.yul\":5666:5699   */\n      tag_317\n      jump\t// in\n    tag_535:\n        /* \"#utility.yul\":5566:5705   */\n      swap3\n      swap2\n      pop\n      pop\n      jump\t// out\n        /* \"#utility.yul\":5711:6040   */\n    tag_35:\n        /* \"#utility.yul\":5770:5776   */\n      0x00\n        /* \"#utility.yul\":5819:5821   */\n      0x20\n        /* \"#utility.yul\":5807:5816   */\n      dup3\n        /* \"#utility.yul\":5798:5805   */\n      dup5\n        /* \"#utility.yul\":5794:5817   */\n      sub\n        /* \"#utility.yul\":5790:5822   */\n      slt\n        /* \"#utility.yul\":5787:5906   */\n      iszero\n      tag_537\n      jumpi\n        /* \"#utility.yul\":5825:5904   */\n      tag_538\n      tag_299\n      jump\t// in\n    tag_538:\n        /* \"#utility.yul\":5787:5906   */\n    tag_537:\n        /* \"#utility.yul\":5945:5946   */\n      0x00\n        /* \"#utility.yul\":5970:6023   */\n      tag_539\n        /* \"#utility.yul\":6015:6022   */\n      dup5\n        /* \"#utility.yul\":6006:6012   */\n      dup3\n        /* \"#utility.yul\":5995:6004   */\n      dup6\n        /* \"#utility.yul\":5991:6013   */\n      add\n        /* \"#utility.yul\":5970:6023   */\n      tag_318\n      jump\t// in\n    tag_539:\n        /* \"#utility.yul\":5960:6023   */\n      swap2\n      pop\n        /* \"#utility.yul\":5916:6033   */\n      pop\n        /* \"#utility.yul\":5711:6040   */\n      swap3\n      swap2\n      pop\n      pop\n      jump\t// out\n        /* \"#utility.yul\":6046:6145   */\n    tag_319:\n        /* \"#utility.yul\":6098:6104   */\n      0x00\n        /* \"#utility.yul\":6132:6137   */\n      dup2\n        /* \"#utility.yul\":6126:6138   */\n      mload\n        /* \"#utility.yul\":6116:6138   */\n      swap1\n      pop\n        /* \"#utility.yul\":6046:6145   */\n      swap2\n      swap1\n      pop\n      jump\t// out\n        /* \"#utility.yul\":6151:6310   */\n    tag_320:\n        /* \"#utility.yul\":6225:6236   */\n      0x00\n        /* \"#utility.yul\":6259:6265   */\n      dup3\n        /* \"#utility.yul\":6254:6257   */\n      dup3\n        /* \"#utility.yul\":6247:6266   */\n      mstore\n        /* \"#utility.yul\":6299:6303   */\n      0x20\n        /* \"#utility.yul\":6294:6297   */\n      dup3\n        /* \"#utility.yul\":6290:6304   */\n      add\n        /* \"#utility.yul\":6275:6304   */\n      swap1\n      pop\n        /* \"#utility.yul\":6151:6310   */\n      swap3\n      swap2\n      pop\n      pop\n      jump\t// out\n        /* \"#utility.yul\":6316:6455   */\n    tag_321:\n        /* \"#utility.yul\":6405:6411   */\n      dup3\n        /* \"#utility.yul\":6400:6403   */\n      dup2\n        /* \"#utility.yul\":6395:6398   */\n      dup4\n        /* \"#utility.yul\":6389:6412   */\n      mcopy\n        /* \"#utility.yul\":6446:6447   */\n      0x00\n        /* \"#utility.yul\":6437:6443   */\n      dup4\n        /* \"#utility.yul\":6432:6435   */\n      dup4\n        /* \"#utility.yul\":6428:6444   */\n      add\n        /* \"#utility.yul\":6421:6448   */\n      mstore\n        /* \"#utility.yul\":6316:6455   */\n      pop\n      pop\n      pop\n      jump\t// out\n        /* \"#utility.yul\":6461:6818   */\n    tag_322:\n        /* \"#utility.yul\":6539:6542   */\n      0x00\n        /* \"#utility.yul\":6567:6606   */\n      tag_544\n        /* \"#utility.yul\":6600:6605   */\n      dup3\n        /* \"#utility.yul\":6567:6606   */\n      tag_319\n      jump\t// in\n    tag_544:\n        /* \"#utility.yul\":6622:6683   */\n      tag_545\n        /* \"#utility.yul\":6676:6682   */\n      dup2\n        /* \"#utility.yul\":6671:6674   */\n      dup6\n        /* \"#utility.yul\":6622:6683   */\n      tag_320\n      jump\t// in\n    tag_545:\n        /* \"#utility.yul\":6615:6683   */\n      swap4\n      pop\n        /* \"#utility.yul\":6692:6757   */\n      tag_546\n        /* \"#utility.yul\":6750:6756   */\n      dup2\n        /* \"#utility.yul\":6745:6748   */\n      dup6\n        /* \"#utility.yul\":6738:6742   */\n      0x20\n        /* \"#utility.yul\":6731:6736   */\n      dup7\n        /* \"#utility.yul\":6727:6743   */\n      add\n        /* \"#utility.yul\":6692:6757   */\n      tag_321\n      jump\t// in\n    tag_546:\n        /* \"#utility.yul\":6782:6811   */\n      tag_547\n        /* \"#utility.yul\":6804:6810   */\n      dup2\n        /* \"#utility.yul\":6782:6811   */\n      tag_303\n      jump\t// in\n    tag_547:\n        /* \"#utility.yul\":6777:6780   */\n      dup5\n        /* \"#utility.yul\":6773:6812   */\n      add\n        /* \"#utility.yul\":6766:6812   */\n      swap2\n      pop\n        /* \"#utility.yul\":6543:6818   */\n      pop\n        /* \"#utility.yul\":6461:6818   */\n      swap3\n      swap2\n      pop\n      pop\n      jump\t// out\n        /* \"#utility.yul\":6824:6962   */\n    tag_323:\n        /* \"#utility.yul\":6915:6921   */\n      0x00\n        /* \"#utility.yul\":6949:6954   */\n      dup2\n        /* \"#utility.yul\":6943:6955   */\n      mload\n        /* \"#utility.yul\":6933:6955   */\n      swap1\n      pop\n        /* \"#utility.yul\":6824:6962   */\n      swap2\n      swap1\n      pop\n      jump\t// out\n        /* \"#utility.yul\":6968:7166   */\n    tag_324:\n        /* \"#utility.yul\":7081:7092   */\n      0x00\n        /* \"#utility.yul\":7115:7121   */\n      dup3\n        /* \"#utility.yul\":7110:7113   */\n      dup3\n        /* \"#utility.yul\":7103:7122   */\n      mstore\n        /* \"#utility.yul\":7155:7159   */\n      0x20\n        /* \"#utility.yul\":7150:7153   */\n      dup3\n        /* \"#utility.yul\":7146:7160   */\n      add\n        /* \"#utility.yul\":7131:7160   */\n      swap1\n      pop\n        /* \"#utility.yul\":6968:7166   */\n      swap3\n      swap2\n      pop\n      pop\n      jump\t// out\n        /* \"#utility.yul\":7172:7328   */\n    tag_325:\n        /* \"#utility.yul\":7263:7267   */\n      0x00\n        /* \"#utility.yul\":7286:7289   */\n      dup2\n        /* \"#utility.yul\":7278:7289   */\n      swap1\n      pop\n        /* \"#utility.yul\":7316:7320   */\n      0x20\n        /* \"#utility.yul\":7311:7314   */\n      dup3\n        /* \"#utility.yul\":7307:7321   */\n      add\n        /* \"#utility.yul\":7299:7321   */\n      swap1\n      pop\n        /* \"#utility.yul\":7172:7328   */\n      swap2\n      swap1\n      pop\n      jump\t// out\n        /* \"#utility.yul\":7334:7442   */\n    tag_326:\n        /* \"#utility.yul\":7411:7435   */\n      tag_552\n        /* \"#utility.yul\":7429:7434   */\n      dup2\n        /* \"#utility.yul\":7411:7435   */\n      tag_311\n      jump\t// in\n    tag_552:\n        /* \"#utility.yul\":7406:7409   */\n      dup3\n        /* \"#utility.yul\":7399:7436   */\n      mstore\n        /* \"#utility.yul\":7334:7442   */\n      pop\n      pop\n      jump\t// out\n        /* \"#utility.yul\":7448:7537   */\n    tag_327:\n        /* \"#utility.yul\":7484:7491   */\n      0x00\n        /* \"#utility.yul\":7524:7530   */\n      0xffff\n        /* \"#utility.yul\":7517:7522   */\n      dup3\n        /* \"#utility.yul\":7513:7531   */\n      and\n        /* \"#utility.yul\":7502:7531   */\n      swap1\n      pop\n        /* \"#utility.yul\":7448:7537   */\n      swap2\n      swap1\n      pop\n      jump\t// out\n        /* \"#utility.yul\":7543:7648   */\n    tag_328:\n        /* \"#utility.yul\":7618:7641   */\n      tag_555\n        /* \"#utility.yul\":7635:7640   */\n      dup2\n        /* \"#utility.yul\":7618:7641   */\n      tag_327\n      jump\t// in\n    tag_555:\n        /* \"#utility.yul\":7613:7616   */\n      dup3\n        /* \"#utility.yul\":7606:7642   */\n      mstore\n        /* \"#utility.yul\":7543:7648   */\n      pop\n      pop\n      jump\t// out\n        /* \"#utility.yul\":7694:8201   */\n    tag_329:\n        /* \"#utility.yul\":7829:7833   */\n      0x40\n        /* \"#utility.yul\":7824:7827   */\n      dup3\n        /* \"#utility.yul\":7820:7834   */\n      add\n        /* \"#utility.yul\":7924:7928   */\n      0x00\n        /* \"#utility.yul\":7917:7922   */\n      dup3\n        /* \"#utility.yul\":7913:7929   */\n      add\n        /* \"#utility.yul\":7907:7930   */\n      mload\n        /* \"#utility.yul\":7943:8006   */\n      tag_557\n        /* \"#utility.yul\":8000:8004   */\n      0x00\n        /* \"#utility.yul\":7995:7998   */\n      dup6\n        /* \"#utility.yul\":7991:8005   */\n      add\n        /* \"#utility.yul\":7977:7989   */\n      dup3\n        /* \"#utility.yul\":7943:8006   */\n      tag_326\n      jump\t// in\n    tag_557:\n        /* \"#utility.yul\":7844:8016   */\n      pop\n        /* \"#utility.yul\":8104:8108   */\n      0x20\n        /* \"#utility.yul\":8097:8102   */\n      dup3\n        /* \"#utility.yul\":8093:8109   */\n      add\n        /* \"#utility.yul\":8087:8110   */\n      mload\n        /* \"#utility.yul\":8123:8184   */\n      tag_558\n        /* \"#utility.yul\":8178:8182   */\n      0x20\n        /* \"#utility.yul\":8173:8176   */\n      dup6\n        /* \"#utility.yul\":8169:8183   */\n      add\n        /* \"#utility.yul\":8155:8167   */\n      dup3\n        /* \"#utility.yul\":8123:8184   */\n      tag_328\n      jump\t// in\n    tag_558:\n        /* \"#utility.yul\":8026:8194   */\n      pop\n        /* \"#utility.yul\":7798:8201   */\n      pop\n        /* \"#utility.yul\":7694:8201   */\n      pop\n      pop\n      jump\t// out\n        /* \"#utility.yul\":8207:8482   */\n    tag_330:\n        /* \"#utility.yul\":8324:8334   */\n      0x00\n        /* \"#utility.yul\":8345:8439   */\n      tag_560\n        /* \"#utility.yul\":8435:8438   */\n      dup4\n        /* \"#utility.yul\":8427:8433   */\n      dup4\n        /* \"#utility.yul\":8345:8439   */\n      tag_329\n      jump\t// in\n    tag_560:\n        /* \"#utility.yul\":8471:8475   */\n      0x40\n        /* \"#utility.yul\":8466:8469   */\n      dup4\n        /* \"#utility.yul\":8462:8476   */\n      add\n        /* \"#utility.yul\":8448:8476   */\n      swap1\n      pop\n        /* \"#utility.yul\":8207:8482   */\n      swap3\n      swap2\n      pop\n      pop\n      jump\t// out\n        /* \"#utility.yul\":8488:8625   */\n    tag_331:\n        /* \"#utility.yul\":8582:8586   */\n      0x00\n        /* \"#utility.yul\":8614:8618   */\n      0x20\n        /* \"#utility.yul\":8609:8612   */\n      dup3\n        /* \"#utility.yul\":8605:8619   */\n      add\n        /* \"#utility.yul\":8597:8619   */\n      swap1\n      pop\n        /* \"#utility.yul\":8488:8625   */\n      swap2\n      swap1\n      pop\n      jump\t// out\n        /* \"#utility.yul\":8675:9579   */\n    tag_332:\n        /* \"#utility.yul\":8832:8835   */\n      0x00\n        /* \"#utility.yul\":8861:8939   */\n      tag_563\n        /* \"#utility.yul\":8933:8938   */\n      dup3\n        /* \"#utility.yul\":8861:8939   */\n      tag_323\n      jump\t// in\n    tag_563:\n        /* \"#utility.yul\":8955:9055   */\n      tag_564\n        /* \"#utility.yul\":9048:9054   */\n      dup2\n        /* \"#utility.yul\":9043:9046   */\n      dup6\n        /* \"#utility.yul\":8955:9055   */\n      tag_324\n      jump\t// in\n    tag_564:\n        /* \"#utility.yul\":8948:9055   */\n      swap4\n      pop\n        /* \"#utility.yul\":9079:9159   */\n      tag_565\n        /* \"#utility.yul\":9153:9158   */\n      dup4\n        /* \"#utility.yul\":9079:9159   */\n      tag_325\n      jump\t// in\n    tag_565:\n        /* \"#utility.yul\":9182:9189   */\n      dup1\n        /* \"#utility.yul\":9213:9214   */\n      0x00\n        /* \"#utility.yul\":9198:9554   */\n    tag_566:\n        /* \"#utility.yul\":9223:9229   */\n      dup4\n        /* \"#utility.yul\":9220:9221   */\n      dup2\n        /* \"#utility.yul\":9217:9230   */\n      lt\n        /* \"#utility.yul\":9198:9554   */\n      iszero\n      tag_568\n      jumpi\n        /* \"#utility.yul\":9299:9305   */\n      dup2\n        /* \"#utility.yul\":9293:9306   */\n      mload\n        /* \"#utility.yul\":9326:9437   */\n      tag_569\n        /* \"#utility.yul\":9433:9436   */\n      dup9\n        /* \"#utility.yul\":9418:9431   */\n      dup3\n        /* \"#utility.yul\":9326:9437   */\n      tag_330\n      jump\t// in\n    tag_569:\n        /* \"#utility.yul\":9319:9437   */\n      swap8\n      pop\n        /* \"#utility.yul\":9460:9544   */\n      tag_570\n        /* \"#utility.yul\":9537:9543   */\n      dup4\n        /* \"#utility.yul\":9460:9544   */\n      tag_331\n      jump\t// in\n    tag_570:\n        /* \"#utility.yul\":9450:9544   */\n      swap3\n      pop\n        /* \"#utility.yul\":9258:9554   */\n      pop\n        /* \"#utility.yul\":9245:9246   */\n      0x01\n        /* \"#utility.yul\":9242:9243   */\n      dup2\n        /* \"#utility.yul\":9238:9247   */\n      add\n        /* \"#utility.yul\":9233:9247   */\n      swap1\n      pop\n        /* \"#utility.yul\":9198:9554   */\n      jump(tag_566)\n    tag_568:\n        /* \"#utility.yul\":9202:9216   */\n      pop\n        /* \"#utility.yul\":9570:9573   */\n      dup6\n        /* \"#utility.yul\":9563:9573   */\n      swap4\n      pop\n        /* \"#utility.yul\":8837:9579   */\n      pop\n      pop\n      pop\n        /* \"#utility.yul\":8675:9579   */\n      swap3\n      swap2\n      pop\n      pop\n      jump\t// out\n        /* \"#utility.yul\":9621:10621   */\n    tag_333:\n        /* \"#utility.yul\":9734:9737   */\n      0x00\n        /* \"#utility.yul\":9770:9774   */\n      0x60\n        /* \"#utility.yul\":9765:9768   */\n      dup4\n        /* \"#utility.yul\":9761:9775   */\n      add\n        /* \"#utility.yul\":9857:9861   */\n      0x00\n        /* \"#utility.yul\":9850:9855   */\n      dup4\n        /* \"#utility.yul\":9846:9862   */\n      add\n        /* \"#utility.yul\":9840:9863   */\n      mload\n        /* \"#utility.yul\":9910:9913   */\n      dup5\n        /* \"#utility.yul\":9904:9908   */\n      dup3\n        /* \"#utility.yul\":9900:9914   */\n      sub\n        /* \"#utility.yul\":9893:9897   */\n      0x00\n        /* \"#utility.yul\":9888:9891   */\n      dup7\n        /* \"#utility.yul\":9884:9898   */\n      add\n        /* \"#utility.yul\":9877:9915   */\n      mstore\n        /* \"#utility.yul\":9936:10009   */\n      tag_572\n        /* \"#utility.yul\":10004:10008   */\n      dup3\n        /* \"#utility.yul\":9990:10002   */\n      dup3\n        /* \"#utility.yul\":9936:10009   */\n      tag_322\n      jump\t// in\n    tag_572:\n        /* \"#utility.yul\":9928:10009   */\n      swap2\n      pop\n        /* \"#utility.yul\":9785:10020   */\n      pop\n        /* \"#utility.yul\":10104:10108   */\n      0x20\n        /* \"#utility.yul\":10097:10102   */\n      dup4\n        /* \"#utility.yul\":10093:10109   */\n      add\n        /* \"#utility.yul\":10087:10110   */\n      mload\n        /* \"#utility.yul\":10157:10160   */\n      dup5\n        /* \"#utility.yul\":10151:10155   */\n      dup3\n        /* \"#utility.yul\":10147:10161   */\n      sub\n        /* \"#utility.yul\":10140:10144   */\n      0x20\n        /* \"#utility.yul\":10135:10138   */\n      dup7\n        /* \"#utility.yul\":10131:10145   */\n      add\n        /* \"#utility.yul\":10124:10162   */\n      mstore\n        /* \"#utility.yul\":10183:10256   */\n      tag_573\n        /* \"#utility.yul\":10251:10255   */\n      dup3\n        /* \"#utility.yul\":10237:10249   */\n      dup3\n        /* \"#utility.yul\":10183:10256   */\n      tag_322\n      jump\t// in\n    tag_573:\n        /* \"#utility.yul\":10175:10256   */\n      swap2\n      pop\n        /* \"#utility.yul\":10030:10267   */\n      pop\n        /* \"#utility.yul\":10353:10357   */\n      0x40\n        /* \"#utility.yul\":10346:10351   */\n      dup4\n        /* \"#utility.yul\":10342:10358   */\n      add\n        /* \"#utility.yul\":10336:10359   */\n      mload\n        /* \"#utility.yul\":10406:10409   */\n      dup5\n        /* \"#utility.yul\":10400:10404   */\n      dup3\n        /* \"#utility.yul\":10396:10410   */\n      sub\n        /* \"#utility.yul\":10389:10393   */\n      0x40\n        /* \"#utility.yul\":10384:10387   */\n      dup7\n        /* \"#utility.yul\":10380:10394   */\n      add\n        /* \"#utility.yul\":10373:10411   */\n      mstore\n        /* \"#utility.yul\":10432:10583   */\n      tag_574\n        /* \"#utility.yul\":10578:10582   */\n      dup3\n        /* \"#utility.yul\":10564:10576   */\n      dup3\n        /* \"#utility.yul\":10432:10583   */\n      tag_332\n      jump\t// in\n    tag_574:\n        /* \"#utility.yul\":10424:10583   */\n      swap2\n      pop\n        /* \"#utility.yul\":10277:10594   */\n      pop\n        /* \"#utility.yul\":10611:10615   */\n      dup1\n        /* \"#utility.yul\":10604:10615   */\n      swap2\n      pop\n        /* \"#utility.yul\":9739:10621   */\n      pop\n        /* \"#utility.yul\":9621:10621   */\n      swap3\n      swap2\n      pop\n      pop\n      jump\t// out\n        /* \"#utility.yul\":10627:10988   */\n    tag_38:\n        /* \"#utility.yul\":10764:10768   */\n      0x00\n        /* \"#utility.yul\":10802:10804   */\n      0x20\n        /* \"#utility.yul\":10791:10800   */\n      dup3\n        /* \"#utility.yul\":10787:10805   */\n      add\n        /* \"#utility.yul\":10779:10805   */\n      swap1\n      pop\n        /* \"#utility.yul\":10851:10860   */\n      dup2\n        /* \"#utility.yul\":10845:10849   */\n      dup2\n        /* \"#utility.yul\":10841:10861   */\n      sub\n        /* \"#utility.yul\":10837:10838   */\n      0x00\n        /* \"#utility.yul\":10826:10835   */\n      dup4\n        /* \"#utility.yul\":10822:10839   */\n      add\n        /* \"#utility.yul\":10815:10862   */\n      mstore\n        /* \"#utility.yul\":10879:10981   */\n      tag_576\n        /* \"#utility.yul\":10976:10980   */\n      dup2\n        /* \"#utility.yul\":10967:10973   */\n      dup5\n        /* \"#utility.yul\":10879:10981   */\n      tag_333\n      jump\t// in\n    tag_576:\n        /* \"#utility.yul\":10871:10981   */\n      swap1\n      pop\n        /* \"#utility.yul\":10627:10988   */\n      swap3\n      swap2\n      pop\n      pop\n      jump\t// out\n        /* \"#utility.yul\":10994:11054   */\n    tag_334:\n        /* \"#utility.yul\":11022:11025   */\n      0x00\n        /* \"#utility.yul\":11043:11048   */\n      dup2\n        /* \"#utility.yul\":11036:11048   */\n      swap1\n      pop\n        /* \"#utility.yul\":10994:11054   */\n      swap2\n      swap1\n      pop\n      jump\t// out\n        /* \"#utility.yul\":11060:11202   */\n    tag_335:\n        /* \"#utility.yul\":11110:11119   */\n      0x00\n        /* \"#utility.yul\":11143:11196   */\n      tag_579\n        /* \"#utility.yul\":11161:11195   */\n      tag_580\n        /* \"#utility.yul\":11170:11194   */\n      tag_581\n        /* \"#utility.yul\":11188:11193   */\n      dup5\n        /* \"#utility.yul\":11170:11194   */\n      tag_310\n      jump\t// in\n    tag_581:\n        /* \"#utility.yul\":11161:11195   */\n      tag_334\n      jump\t// in\n    tag_580:\n        /* \"#utility.yul\":11143:11196   */\n      tag_310\n      jump\t// in\n    tag_579:\n        /* \"#utility.yul\":11130:11196   */\n      swap1\n      pop\n        /* \"#utility.yul\":11060:11202   */\n      swap2\n      swap1\n      pop\n      jump\t// out\n        /* \"#utility.yul\":11208:11334   */\n    tag_336:\n        /* \"#utility.yul\":11258:11267   */\n      0x00\n        /* \"#utility.yul\":11291:11328   */\n      tag_583\n        /* \"#utility.yul\":11322:11327   */\n      dup3\n        /* \"#utility.yul\":11291:11328   */\n      tag_335\n      jump\t// in\n    tag_583:\n        /* \"#utility.yul\":11278:11328   */\n      swap1\n      pop\n        /* \"#utility.yul\":11208:11334   */\n      swap2\n      swap1\n      pop\n      jump\t// out\n        /* \"#utility.yul\":11340:11483   */\n    tag_337:\n        /* \"#utility.yul\":11407:11416   */\n      0x00\n        /* \"#utility.yul\":11440:11477   */\n      tag_585\n        /* \"#utility.yul\":11471:11476   */\n      dup3\n        /* \"#utility.yul\":11440:11477   */\n      tag_336\n      jump\t// in\n    tag_585:\n        /* \"#utility.yul\":11427:11477   */\n      swap1\n      pop\n        /* \"#utility.yul\":11340:11483   */\n      swap2\n      swap1\n      pop\n      jump\t// out\n        /* \"#utility.yul\":11489:11654   */\n    tag_338:\n        /* \"#utility.yul\":11593:11647   */\n      tag_587\n        /* \"#utility.yul\":11641:11646   */\n      dup2\n        /* \"#utility.yul\":11593:11647   */\n      tag_337\n      jump\t// in\n    tag_587:\n        /* \"#utility.yul\":11588:11591   */\n      dup3\n        /* \"#utility.yul\":11581:11648   */\n      mstore\n        /* \"#utility.yul\":11489:11654   */\n      pop\n      pop\n      jump\t// out\n        /* \"#utility.yul\":11660:11916   */\n    tag_42:\n        /* \"#utility.yul\":11770:11774   */\n      0x00\n        /* \"#utility.yul\":11808:11810   */\n      0x20\n        /* \"#utility.yul\":11797:11806   */\n      dup3\n        /* \"#utility.yul\":11793:11811   */\n      add\n        /* \"#utility.yul\":11785:11811   */\n      swap1\n      pop\n        /* \"#utility.yul\":11821:11909   */\n      tag_589\n        /* \"#utility.yul\":11906:11907   */\n      0x00\n        /* \"#utility.yul\":11895:11904   */\n      dup4\n        /* \"#utility.yul\":11891:11908   */\n      add\n        /* \"#utility.yul\":11882:11888   */\n      dup5\n        /* \"#utility.yul\":11821:11909   */\n      tag_338\n      jump\t// in\n    tag_589:\n        /* \"#utility.yul\":11660:11916   */\n      swap3\n      swap2\n      pop\n      pop\n      jump\t// out\n        /* \"#utility.yul\":11922:12039   */\n    tag_339:\n        /* \"#utility.yul\":12031:12032   */\n      0x00\n        /* \"#utility.yul\":12028:12029   */\n      0x00\n        /* \"#utility.yul\":12021:12033   */\n      revert\n        /* \"#utility.yul\":12045:12162   */\n    tag_340:\n        /* \"#utility.yul\":12154:12155   */\n      0x00\n        /* \"#utility.yul\":12151:12152   */\n      0x00\n        /* \"#utility.yul\":12144:12156   */\n      revert\n        /* \"#utility.yul\":12182:12735   */\n    tag_341:\n        /* \"#utility.yul\":12240:12248   */\n      0x00\n        /* \"#utility.yul\":12250:12256   */\n      0x00\n        /* \"#utility.yul\":12300:12303   */\n      dup4\n        /* \"#utility.yul\":12293:12297   */\n      0x1f\n        /* \"#utility.yul\":12285:12291   */\n      dup5\n        /* \"#utility.yul\":12281:12298   */\n      add\n        /* \"#utility.yul\":12277:12304   */\n      slt\n        /* \"#utility.yul\":12267:12389   */\n      tag_593\n      jumpi\n        /* \"#utility.yul\":12308:12387   */\n      tag_594\n      tag_301\n      jump\t// in\n    tag_594:\n        /* \"#utility.yul\":12267:12389   */\n    tag_593:\n        /* \"#utility.yul\":12421:12427   */\n      dup3\n        /* \"#utility.yul\":12408:12428   */\n      calldataload\n        /* \"#utility.yul\":12398:12428   */\n      swap1\n      pop\n        /* \"#utility.yul\":12451:12469   */\n      0xffffffffffffffff\n        /* \"#utility.yul\":12443:12449   */\n      dup2\n        /* \"#utility.yul\":12440:12470   */\n      gt\n        /* \"#utility.yul\":12437:12554   */\n      iszero\n      tag_595\n      jumpi\n        /* \"#utility.yul\":12473:12552   */\n      tag_596\n      tag_339\n      jump\t// in\n    tag_596:\n        /* \"#utility.yul\":12437:12554   */\n    tag_595:\n        /* \"#utility.yul\":12587:12591   */\n      0x20\n        /* \"#utility.yul\":12579:12585   */\n      dup4\n        /* \"#utility.yul\":12575:12592   */\n      add\n        /* \"#utility.yul\":12563:12592   */\n      swap2\n      pop\n        /* \"#utility.yul\":12641:12644   */\n      dup4\n        /* \"#utility.yul\":12633:12637   */\n      0x01\n        /* \"#utility.yul\":12625:12631   */\n      dup3\n        /* \"#utility.yul\":12621:12638   */\n      mul\n        /* \"#utility.yul\":12611:12619   */\n      dup4\n        /* \"#utility.yul\":12607:12639   */\n      add\n        /* \"#utility.yul\":12604:12645   */\n      gt\n        /* \"#utility.yul\":12601:12729   */\n      iszero\n      tag_597\n      jumpi\n        /* \"#utility.yul\":12648:12727   */\n      tag_598\n      tag_340\n      jump\t// in\n    tag_598:\n        /* \"#utility.yul\":12601:12729   */\n    tag_597:\n        /* \"#utility.yul\":12182:12735   */\n      swap3\n      pop\n      swap3\n      swap1\n      pop\n      jump\t// out\n        /* \"#utility.yul\":12741:13270   */\n    tag_48:\n        /* \"#utility.yul\":12812:12818   */\n      0x00\n        /* \"#utility.yul\":12820:12826   */\n      0x00\n        /* \"#utility.yul\":12869:12871   */\n      0x20\n        /* \"#utility.yul\":12857:12866   */\n      dup4\n        /* \"#utility.yul\":12848:12855   */\n      dup6\n        /* \"#utility.yul\":12844:12867   */\n      sub\n        /* \"#utility.yul\":12840:12872   */\n      slt\n        /* \"#utility.yul\":12837:12956   */\n      iszero\n      tag_600\n      jumpi\n        /* \"#utility.yul\":12875:12954   */\n      tag_601\n      tag_299\n      jump\t// in\n    tag_601:\n        /* \"#utility.yul\":12837:12956   */\n    tag_600:\n        /* \"#utility.yul\":13023:13024   */\n      0x00\n        /* \"#utility.yul\":13012:13021   */\n      dup4\n        /* \"#utility.yul\":13008:13025   */\n      add\n        /* \"#utility.yul\":12995:13026   */\n      calldataload\n        /* \"#utility.yul\":13053:13071   */\n      0xffffffffffffffff\n        /* \"#utility.yul\":13045:13051   */\n      dup2\n        /* \"#utility.yul\":13042:13072   */\n      gt\n        /* \"#utility.yul\":13039:13156   */\n      iszero\n      tag_602\n      jumpi\n        /* \"#utility.yul\":13075:13154   */\n      tag_603\n      tag_300\n      jump\t// in\n    tag_603:\n        /* \"#utility.yul\":13039:13156   */\n    tag_602:\n        /* \"#utility.yul\":13188:13253   */\n      tag_604\n        /* \"#utility.yul\":13245:13252   */\n      dup6\n        /* \"#utility.yul\":13236:13242   */\n      dup3\n        /* \"#utility.yul\":13225:13234   */\n      dup7\n        /* \"#utility.yul\":13221:13243   */\n      add\n        /* \"#utility.yul\":13188:13253   */\n      tag_341\n      jump\t// in\n    tag_604:\n        /* \"#utility.yul\":13170:13253   */\n      swap3\n      pop\n      swap3\n      pop\n        /* \"#utility.yul\":12966:13263   */\n      pop\n        /* \"#utility.yul\":12741:13270   */\n      swap3\n      pop\n      swap3\n      swap1\n      pop\n      jump\t// out\n        /* \"#utility.yul\":13276:13392   */\n    tag_342:\n        /* \"#utility.yul\":13346:13367   */\n      tag_606\n        /* \"#utility.yul\":13361:13366   */\n      dup2\n        /* \"#utility.yul\":13346:13367   */\n      tag_296\n      jump\t// in\n    tag_606:\n        /* \"#utility.yul\":13339:13344   */\n      dup2\n        /* \"#utility.yul\":13336:13368   */\n      eq\n        /* \"#utility.yul\":13326:13386   */\n      tag_607\n      jumpi\n        /* \"#utility.yul\":13382:13383   */\n      0x00\n        /* \"#utility.yul\":13379:13380   */\n      0x00\n        /* \"#utility.yul\":13372:13384   */\n      revert\n        /* \"#utility.yul\":13326:13386   */\n    tag_607:\n        /* \"#utility.yul\":13276:13392   */\n      pop\n      jump\t// out\n        /* \"#utility.yul\":13398:13531   */\n    tag_343:\n        /* \"#utility.yul\":13441:13446   */\n      0x00\n        /* \"#utility.yul\":13479:13485   */\n      dup2\n        /* \"#utility.yul\":13466:13486   */\n      calldataload\n        /* \"#utility.yul\":13457:13486   */\n      swap1\n      pop\n        /* \"#utility.yul\":13495:13525   */\n      tag_609\n        /* \"#utility.yul\":13519:13524   */\n      dup2\n        /* \"#utility.yul\":13495:13525   */\n      tag_342\n      jump\t// in\n    tag_609:\n        /* \"#utility.yul\":13398:13531   */\n      swap3\n      swap2\n      pop\n      pop\n      jump\t// out\n        /* \"#utility.yul\":13537:13860   */\n    tag_53:\n        /* \"#utility.yul\":13593:13599   */\n      0x00\n        /* \"#utility.yul\":13642:13644   */\n      0x20\n        /* \"#utility.yul\":13630:13639   */\n      dup3\n        /* \"#utility.yul\":13621:13628   */\n      dup5\n        /* \"#utility.yul\":13617:13640   */\n      sub\n        /* \"#utility.yul\":13613:13645   */\n      slt\n        /* \"#utility.yul\":13610:13729   */\n      iszero\n      tag_611\n      jumpi\n        /* \"#utility.yul\":13648:13727   */\n      tag_612\n      tag_299\n      jump\t// in\n    tag_612:\n        /* \"#utility.yul\":13610:13729   */\n    tag_611:\n        /* \"#utility.yul\":13768:13769   */\n      0x00\n        /* \"#utility.yul\":13793:13843   */\n      tag_613\n        /* \"#utility.yul\":13835:13842   */\n      dup5\n        /* \"#utility.yul\":13826:13832   */\n      dup3\n        /* \"#utility.yul\":13815:13824   */\n      dup6\n        /* \"#utility.yul\":13811:13833   */\n      add\n        /* \"#utility.yul\":13793:13843   */\n      tag_343\n      jump\t// in\n    tag_613:\n        /* \"#utility.yul\":13783:13843   */\n      swap2\n      pop\n        /* \"#utility.yul\":13739:13853   */\n      pop\n        /* \"#utility.yul\":13537:13860   */\n      swap3\n      swap2\n      pop\n      pop\n      jump\t// out\n        /* \"#utility.yul\":13866:13988   */\n    tag_344:\n        /* \"#utility.yul\":13939:13963   */\n      tag_615\n        /* \"#utility.yul\":13957:13962   */\n      dup2\n        /* \"#utility.yul\":13939:13963   */\n      tag_311\n      jump\t// in\n    tag_615:\n        /* \"#utility.yul\":13932:13937   */\n      dup2\n        /* \"#utility.yul\":13929:13964   */\n      eq\n        /* \"#utility.yul\":13919:13982   */\n      tag_616\n      jumpi\n        /* \"#utility.yul\":13978:13979   */\n      0x00\n        /* \"#utility.yul\":13975:13976   */\n      0x00\n        /* \"#utility.yul\":13968:13980   */\n      revert\n        /* \"#utility.yul\":13919:13982   */\n    tag_616:\n        /* \"#utility.yul\":13866:13988   */\n      pop\n      jump\t// out\n        /* \"#utility.yul\":13994:14133   */\n    tag_345:\n        /* \"#utility.yul\":14040:14045   */\n      0x00\n        /* \"#utility.yul\":14078:14084   */\n      dup2\n        /* \"#utility.yul\":14065:14085   */\n      calldataload\n        /* \"#utility.yul\":14056:14085   */\n      swap1\n      pop\n        /* \"#utility.yul\":14094:14127   */\n      tag_618\n        /* \"#utility.yul\":14121:14126   */\n      dup2\n        /* \"#utility.yul\":14094:14127   */\n      tag_344\n      jump\t// in\n    tag_618:\n        /* \"#utility.yul\":13994:14133   */\n      swap3\n      swap2\n      pop\n      pop\n      jump\t// out\n        /* \"#utility.yul\":14139:14468   */\n    tag_57:\n        /* \"#utility.yul\":14198:14204   */\n      0x00\n        /* \"#utility.yul\":14247:14249   */\n      0x20\n        /* \"#utility.yul\":14235:14244   */\n      dup3\n        /* \"#utility.yul\":14226:14233   */\n      dup5\n        /* \"#utility.yul\":14222:14245   */\n      sub\n        /* \"#utility.yul\":14218:14250   */\n      slt\n        /* \"#utility.yul\":14215:14334   */\n      iszero\n      tag_620\n      jumpi\n        /* \"#utility.yul\":14253:14332   */\n      tag_621\n      tag_299\n      jump\t// in\n    tag_621:\n        /* \"#utility.yul\":14215:14334   */\n    tag_620:\n        /* \"#utility.yul\":14373:14374   */\n      0x00\n        /* \"#utility.yul\":14398:14451   */\n      tag_622\n        /* \"#utility.yul\":14443:14450   */\n      dup5\n        /* \"#utility.yul\":14434:14440   */\n      dup3\n        /* \"#utility.yul\":14423:14432   */\n      dup6\n        /* \"#utility.yul\":14419:14441   */\n      add\n        /* \"#utility.yul\":14398:14451   */\n      tag_345\n      jump\t// in\n    tag_622:\n        /* \"#utility.yul\":14388:14451   */\n      swap2\n      pop\n        /* \"#utility.yul\":14344:14461   */\n      pop\n        /* \"#utility.yul\":14139:14468   */\n      swap3\n      swap2\n      pop\n      pop\n      jump\t// out\n        /* \"#utility.yul\":14474:14643   */\n    tag_346:\n        /* \"#utility.yul\":14558:14569   */\n      0x00\n        /* \"#utility.yul\":14592:14598   */\n      dup3\n        /* \"#utility.yul\":14587:14590   */\n      dup3\n        /* \"#utility.yul\":14580:14599   */\n      mstore\n        /* \"#utility.yul\":14632:14636   */\n      0x20\n        /* \"#utility.yul\":14627:14630   */\n      dup3\n        /* \"#utility.yul\":14623:14637   */\n      add\n        /* \"#utility.yul\":14608:14637   */\n      swap1\n      pop\n        /* \"#utility.yul\":14474:14643   */\n      swap3\n      swap2\n      pop\n      pop\n      jump\t// out\n        /* \"#utility.yul\":14649:15026   */\n    tag_347:\n        /* \"#utility.yul\":14737:14740   */\n      0x00\n        /* \"#utility.yul\":14765:14804   */\n      tag_625\n        /* \"#utility.yul\":14798:14803   */\n      dup3\n        /* \"#utility.yul\":14765:14804   */\n      tag_319\n      jump\t// in\n    tag_625:\n        /* \"#utility.yul\":14820:14891   */\n      tag_626\n        /* \"#utility.yul\":14884:14890   */\n      dup2\n        /* \"#utility.yul\":14879:14882   */\n      dup6\n        /* \"#utility.yul\":14820:14891   */\n      tag_346\n      jump\t// in\n    tag_626:\n        /* \"#utility.yul\":14813:14891   */\n      swap4\n      pop\n        /* \"#utility.yul\":14900:14965   */\n      tag_627\n        /* \"#utility.yul\":14958:14964   */\n      dup2\n        /* \"#utility.yul\":14953:14956   */\n      dup6\n        /* \"#utility.yul\":14946:14950   */\n      0x20\n        /* \"#utility.yul\":14939:14944   */\n      dup7\n        /* \"#utility.yul\":14935:14951   */\n      add\n        /* \"#utility.yul\":14900:14965   */\n      tag_321\n      jump\t// in\n    tag_627:\n        /* \"#utility.yul\":14990:15019   */\n      tag_628\n        /* \"#utility.yul\":15012:15018   */\n      dup2\n        /* \"#utility.yul\":14990:15019   */\n      tag_303\n      jump\t// in\n    tag_628:\n        /* \"#utility.yul\":14985:14988   */\n      dup5\n        /* \"#utility.yul\":14981:15020   */\n      add\n        /* \"#utility.yul\":14974:15020   */\n      swap2\n      pop\n        /* \"#utility.yul\":14741:15026   */\n      pop\n        /* \"#utility.yul\":14649:15026   */\n      swap3\n      swap2\n      pop\n      pop\n      jump\t// out\n        /* \"#utility.yul\":15032:15345   */\n    tag_61:\n        /* \"#utility.yul\":15145:15149   */\n      0x00\n        /* \"#utility.yul\":15183:15185   */\n      0x20\n        /* \"#utility.yul\":15172:15181   */\n      dup3\n        /* \"#utility.yul\":15168:15186   */\n      add\n        /* \"#utility.yul\":15160:15186   */\n      swap1\n      pop\n        /* \"#utility.yul\":15232:15241   */\n      dup2\n        /* \"#utility.yul\":15226:15230   */\n      dup2\n        /* \"#utility.yul\":15222:15242   */\n      sub\n        /* \"#utility.yul\":15218:15219   */\n      0x00\n        /* \"#utility.yul\":15207:15216   */\n      dup4\n        /* \"#utility.yul\":15203:15220   */\n      add\n        /* \"#utility.yul\":15196:15243   */\n      mstore\n        /* \"#utility.yul\":15260:15338   */\n      tag_630\n        /* \"#utility.yul\":15333:15337   */\n      dup2\n        /* \"#utility.yul\":15324:15330   */\n      dup5\n        /* \"#utility.yul\":15260:15338   */\n      tag_347\n      jump\t// in\n    tag_630:\n        /* \"#utility.yul\":15252:15338   */\n      swap1\n      pop\n        /* \"#utility.yul\":15032:15345   */\n      swap3\n      swap2\n      pop\n      pop\n      jump\t// out\n        /* \"#utility.yul\":15351:15494   */\n    tag_348:\n        /* \"#utility.yul\":15408:15413   */\n      0x00\n        /* \"#utility.yul\":15439:15445   */\n      dup2\n        /* \"#utility.yul\":15433:15446   */\n      mload\n        /* \"#utility.yul\":15424:15446   */\n      swap1\n      pop\n        /* \"#utility.yul\":15455:15488   */\n      tag_632\n        /* \"#utility.yul\":15482:15487   */\n      dup2\n        /* \"#utility.yul\":15455:15488   */\n      tag_344\n      jump\t// in\n    tag_632:\n        /* \"#utility.yul\":15351:15494   */\n      swap3\n      swap2\n      pop\n      pop\n      jump\t// out\n        /* \"#utility.yul\":15500:15851   */\n    tag_65:\n        /* \"#utility.yul\":15570:15576   */\n      0x00\n        /* \"#utility.yul\":15619:15621   */\n      0x20\n        /* \"#utility.yul\":15607:15616   */\n      dup3\n        /* \"#utility.yul\":15598:15605   */\n      dup5\n        /* \"#utility.yul\":15594:15617   */\n      sub\n        /* \"#utility.yul\":15590:15622   */\n      slt\n        /* \"#utility.yul\":15587:15706   */\n      iszero\n      tag_634\n      jumpi\n        /* \"#utility.yul\":15625:15704   */\n      tag_635\n      tag_299\n      jump\t// in\n    tag_635:\n        /* \"#utility.yul\":15587:15706   */\n    tag_634:\n        /* \"#utility.yul\":15745:15746   */\n      0x00\n        /* \"#utility.yul\":15770:15834   */\n      tag_636\n        /* \"#utility.yul\":15826:15833   */\n      dup5\n        /* \"#utility.yul\":15817:15823   */\n      dup3\n        /* \"#utility.yul\":15806:15815   */\n      dup6\n        /* \"#utility.yul\":15802:15824   */\n      add\n        /* \"#utility.yul\":15770:15834   */\n      tag_348\n      jump\t// in\n    tag_636:\n        /* \"#utility.yul\":15760:15834   */\n      swap2\n      pop\n        /* \"#utility.yul\":15716:15844   */\n      pop\n        /* \"#utility.yul\":15500:15851   */\n      swap3\n      swap2\n      pop\n      pop\n      jump\t// out\n        /* \"#utility.yul\":15857:16036   */\n    tag_349:\n        /* \"#utility.yul\":15997:16028   */\n      0x6d73672e73656e646572206973206e6f742065746620666163746f7279000000\n        /* \"#utility.yul\":15993:15994   */\n      0x00\n        /* \"#utility.yul\":15985:15991   */\n      dup3\n        /* \"#utility.yul\":15981:15995   */\n      add\n        /* \"#utility.yul\":15974:16029   */\n      mstore\n        /* \"#utility.yul\":15857:16036   */\n      pop\n      jump\t// out\n        /* \"#utility.yul\":16042:16408   */\n    tag_350:\n        /* \"#utility.yul\":16184:16187   */\n      0x00\n        /* \"#utility.yul\":16205:16272   */\n      tag_639\n        /* \"#utility.yul\":16269:16271   */\n      0x1d\n        /* \"#utility.yul\":16264:16267   */\n      dup4\n        /* \"#utility.yul\":16205:16272   */\n      tag_346\n      jump\t// in\n    tag_639:\n        /* \"#utility.yul\":16198:16272   */\n      swap2\n      pop\n        /* \"#utility.yul\":16281:16374   */\n      tag_640\n        /* \"#utility.yul\":16370:16373   */\n      dup3\n        /* \"#utility.yul\":16281:16374   */\n      tag_349\n      jump\t// in\n    tag_640:\n        /* \"#utility.yul\":16399:16401   */\n      0x20\n        /* \"#utility.yul\":16394:16397   */\n      dup3\n        /* \"#utility.yul\":16390:16402   */\n      add\n        /* \"#utility.yul\":16383:16402   */\n      swap1\n      pop\n        /* \"#utility.yul\":16042:16408   */\n      swap2\n      swap1\n      pop\n      jump\t// out\n        /* \"#utility.yul\":16414:16833   */\n    tag_71:\n        /* \"#utility.yul\":16580:16584   */\n      0x00\n        /* \"#utility.yul\":16618:16620   */\n      0x20\n        /* \"#utility.yul\":16607:16616   */\n      dup3\n        /* \"#utility.yul\":16603:16621   */\n      add\n        /* \"#utility.yul\":16595:16621   */\n      swap1\n      pop\n        /* \"#utility.yul\":16667:16676   */\n      dup2\n        /* \"#utility.yul\":16661:16665   */\n      dup2\n        /* \"#utility.yul\":16657:16677   */\n      sub\n        /* \"#utility.yul\":16653:16654   */\n      0x00\n        /* \"#utility.yul\":16642:16651   */\n      dup4\n        /* \"#utility.yul\":16638:16655   */\n      add\n        /* \"#utility.yul\":16631:16678   */\n      mstore\n        /* \"#utility.yul\":16695:16826   */\n      tag_642\n        /* \"#utility.yul\":16821:16825   */\n      dup2\n        /* \"#utility.yul\":16695:16826   */\n      tag_350\n      jump\t// in\n    tag_642:\n        /* \"#utility.yul\":16687:16826   */\n      swap1\n      pop\n        /* \"#utility.yul\":16414:16833   */\n      swap2\n      swap1\n      pop\n      jump\t// out\n        /* \"#utility.yul\":16839:17011   */\n    tag_351:\n        /* \"#utility.yul\":16979:17003   */\n      0x436f6e7472616374206973206e6f742061637469766500000000000000000000\n        /* \"#utility.yul\":16975:16976   */\n      0x00\n        /* \"#utility.yul\":16967:16973   */\n      dup3\n        /* \"#utility.yul\":16963:16977   */\n      add\n        /* \"#utility.yul\":16956:17004   */\n      mstore\n        /* \"#utility.yul\":16839:17011   */\n      pop\n      jump\t// out\n        /* \"#utility.yul\":17017:17383   */\n    tag_352:\n        /* \"#utility.yul\":17159:17162   */\n      0x00\n        /* \"#utility.yul\":17180:17247   */\n      tag_645\n        /* \"#utility.yul\":17244:17246   */\n      0x16\n        /* \"#utility.yul\":17239:17242   */\n      dup4\n        /* \"#utility.yul\":17180:17247   */\n      tag_346\n      jump\t// in\n    tag_645:\n        /* \"#utility.yul\":17173:17247   */\n      swap2\n      pop\n        /* \"#utility.yul\":17256:17349   */\n      tag_646\n        /* \"#utility.yul\":17345:17348   */\n      dup3\n        /* \"#utility.yul\":17256:17349   */\n      tag_351\n      jump\t// in\n    tag_646:\n        /* \"#utility.yul\":17374:17376   */\n      0x20\n        /* \"#utility.yul\":17369:17372   */\n      dup3\n        /* \"#utility.yul\":17365:17377   */\n      add\n        /* \"#utility.yul\":17358:17377   */\n      swap1\n      pop\n        /* \"#utility.yul\":17017:17383   */\n      swap2\n      swap1\n      pop\n      jump\t// out\n        /* \"#utility.yul\":17389:17808   */\n    tag_75:\n        /* \"#utility.yul\":17555:17559   */\n      0x00\n        /* \"#utility.yul\":17593:17595   */\n      0x20\n        /* \"#utility.yul\":17582:17591   */\n      dup3\n        /* \"#utility.yul\":17578:17596   */\n      add\n        /* \"#utility.yul\":17570:17596   */\n      swap1\n      pop\n        /* \"#utility.yul\":17642:17651   */\n      dup2\n        /* \"#utility.yul\":17636:17640   */\n      dup2\n        /* \"#utility.yul\":17632:17652   */\n      sub\n        /* \"#utility.yul\":17628:17629   */\n      0x00\n        /* \"#utility.yul\":17617:17626   */\n      dup4\n        /* \"#utility.yul\":17613:17630   */\n      add\n        /* \"#utility.yul\":17606:17653   */\n      mstore\n        /* \"#utility.yul\":17670:17801   */\n      tag_648\n        /* \"#utility.yul\":17796:17800   */\n      dup2\n        /* \"#utility.yul\":17670:17801   */\n      tag_352\n      jump\t// in\n    tag_648:\n        /* \"#utility.yul\":17662:17801   */\n      swap1\n      pop\n        /* \"#utility.yul\":17389:17808   */\n      swap2\n      swap1\n      pop\n      jump\t// out\n        /* \"#utility.yul\":17814:17931   */\n    tag_353:\n        /* \"#utility.yul\":17923:17924   */\n      0x00\n        /* \"#utility.yul\":17920:17921   */\n      0x00\n        /* \"#utility.yul\":17913:17925   */\n      revert\n        /* \"#utility.yul\":17937:18054   */\n    tag_354:\n        /* \"#utility.yul\":18046:18047   */\n      0x00\n        /* \"#utility.yul\":18043:18044   */\n      0x00\n        /* \"#utility.yul\":18036:18048   */\n      revert\n        /* \"#utility.yul\":18060:18177   */\n    tag_355:\n        /* \"#utility.yul\":18169:18170   */\n      0x00\n        /* \"#utility.yul\":18166:18167   */\n      0x00\n        /* \"#utility.yul\":18159:18171   */\n      revert\n        /* \"#utility.yul\":18183:18908   */\n    tag_79:\n        /* \"#utility.yul\":18261:18265   */\n      0x00\n        /* \"#utility.yul\":18267:18273   */\n      0x00\n        /* \"#utility.yul\":18323:18334   */\n      dup4\n        /* \"#utility.yul\":18310:18335   */\n      calldataload\n        /* \"#utility.yul\":18423:18424   */\n      0x01\n        /* \"#utility.yul\":18417:18421   */\n      0x20\n        /* \"#utility.yul\":18413:18425   */\n      sub\n        /* \"#utility.yul\":18402:18410   */\n      dup5\n        /* \"#utility.yul\":18386:18400   */\n      calldatasize\n        /* \"#utility.yul\":18382:18411   */\n      sub\n        /* \"#utility.yul\":18378:18426   */\n      sub\n        /* \"#utility.yul\":18358:18376   */\n      dup2\n        /* \"#utility.yul\":18354:18427   */\n      slt\n        /* \"#utility.yul\":18344:18512   */\n      tag_653\n      jumpi\n        /* \"#utility.yul\":18431:18510   */\n      tag_654\n      tag_353\n      jump\t// in\n    tag_654:\n        /* \"#utility.yul\":18344:18512   */\n    tag_653:\n        /* \"#utility.yul\":18543:18561   */\n      dup1\n        /* \"#utility.yul\":18533:18541   */\n      dup5\n        /* \"#utility.yul\":18529:18562   */\n      add\n        /* \"#utility.yul\":18521:18562   */\n      swap3\n      pop\n        /* \"#utility.yul\":18595:18599   */\n      dup3\n        /* \"#utility.yul\":18582:18600   */\n      calldataload\n        /* \"#utility.yul\":18572:18600   */\n      swap2\n      pop\n        /* \"#utility.yul\":18623:18641   */\n      0xffffffffffffffff\n        /* \"#utility.yul\":18615:18621   */\n      dup3\n        /* \"#utility.yul\":18612:18642   */\n      gt\n        /* \"#utility.yul\":18609:18726   */\n      iszero\n      tag_655\n      jumpi\n        /* \"#utility.yul\":18645:18724   */\n      tag_656\n      tag_354\n      jump\t// in\n    tag_656:\n        /* \"#utility.yul\":18609:18726   */\n    tag_655:\n        /* \"#utility.yul\":18753:18755   */\n      0x20\n        /* \"#utility.yul\":18747:18751   */\n      dup4\n        /* \"#utility.yul\":18743:18756   */\n      add\n        /* \"#utility.yul\":18735:18756   */\n      swap3\n      pop\n        /* \"#utility.yul\":18810:18814   */\n      0x01\n        /* \"#utility.yul\":18802:18808   */\n      dup3\n        /* \"#utility.yul\":18798:18815   */\n      mul\n        /* \"#utility.yul\":18782:18796   */\n      calldatasize\n        /* \"#utility.yul\":18778:18816   */\n      sub\n        /* \"#utility.yul\":18772:18776   */\n      dup4\n        /* \"#utility.yul\":18768:18817   */\n      sgt\n        /* \"#utility.yul\":18765:18901   */\n      iszero\n      tag_657\n      jumpi\n        /* \"#utility.yul\":18820:18899   */\n      tag_658\n      tag_355\n      jump\t// in\n    tag_658:\n        /* \"#utility.yul\":18765:18901   */\n    tag_657:\n        /* \"#utility.yul\":18274:18908   */\n      pop\n        /* \"#utility.yul\":18183:18908   */\n      swap3\n      pop\n      swap3\n      swap1\n      pop\n      jump\t// out\n        /* \"#utility.yul\":18914:19680   */\n    tag_83:\n        /* \"#utility.yul\":19033:19037   */\n      0x00\n        /* \"#utility.yul\":19039:19045   */\n      0x00\n        /* \"#utility.yul\":19095:19106   */\n      dup4\n        /* \"#utility.yul\":19082:19107   */\n      calldataload\n        /* \"#utility.yul\":19195:19196   */\n      0x01\n        /* \"#utility.yul\":19189:19193   */\n      0x20\n        /* \"#utility.yul\":19185:19197   */\n      sub\n        /* \"#utility.yul\":19174:19182   */\n      dup5\n        /* \"#utility.yul\":19158:19172   */\n      calldatasize\n        /* \"#utility.yul\":19154:19183   */\n      sub\n        /* \"#utility.yul\":19150:19198   */\n      sub\n        /* \"#utility.yul\":19130:19148   */\n      dup2\n        /* \"#utility.yul\":19126:19199   */\n      slt\n        /* \"#utility.yul\":19116:19284   */\n      tag_660\n      jumpi\n        /* \"#utility.yul\":19203:19282   */\n      tag_661\n      tag_353\n      jump\t// in\n    tag_661:\n        /* \"#utility.yul\":19116:19284   */\n    tag_660:\n        /* \"#utility.yul\":19315:19333   */\n      dup1\n        /* \"#utility.yul\":19305:19313   */\n      dup5\n        /* \"#utility.yul\":19301:19334   */\n      add\n        /* \"#utility.yul\":19293:19334   */\n      swap3\n      pop\n        /* \"#utility.yul\":19367:19371   */\n      dup3\n        /* \"#utility.yul\":19354:19372   */\n      calldataload\n        /* \"#utility.yul\":19344:19372   */\n      swap2\n      pop\n        /* \"#utility.yul\":19395:19413   */\n      0xffffffffffffffff\n        /* \"#utility.yul\":19387:19393   */\n      dup3\n        /* \"#utility.yul\":19384:19414   */\n      gt\n        /* \"#utility.yul\":19381:19498   */\n      iszero\n      tag_662\n      jumpi\n        /* \"#utility.yul\":19417:19496   */\n      tag_663\n      tag_354\n      jump\t// in\n    tag_663:\n        /* \"#utility.yul\":19381:19498   */\n    tag_662:\n        /* \"#utility.yul\":19525:19527   */\n      0x20\n        /* \"#utility.yul\":19519:19523   */\n      dup4\n        /* \"#utility.yul\":19515:19528   */\n      add\n        /* \"#utility.yul\":19507:19528   */\n      swap3\n      pop\n        /* \"#utility.yul\":19582:19586   */\n      0x40\n        /* \"#utility.yul\":19574:19580   */\n      dup3\n        /* \"#utility.yul\":19570:19587   */\n      mul\n        /* \"#utility.yul\":19554:19568   */\n      calldatasize\n        /* \"#utility.yul\":19550:19588   */\n      sub\n        /* \"#utility.yul\":19544:19548   */\n      dup4\n        /* \"#utility.yul\":19540:19589   */\n      sgt\n        /* \"#utility.yul\":19537:19673   */\n      iszero\n      tag_664\n      jumpi\n        /* \"#utility.yul\":19592:19671   */\n      tag_665\n      tag_355\n      jump\t// in\n    tag_665:\n        /* \"#utility.yul\":19537:19673   */\n    tag_664:\n        /* \"#utility.yul\":19046:19680   */\n      pop\n        /* \"#utility.yul\":18914:19680   */\n      swap3\n      pop\n      swap3\n      swap1\n      pop\n      jump\t// out\n        /* \"#utility.yul\":19686:19866   */\n    tag_356:\n        /* \"#utility.yul\":19734:19811   */\n      0x4e487b7100000000000000000000000000000000000000000000000000000000\n        /* \"#utility.yul\":19731:19732   */\n      0x00\n        /* \"#utility.yul\":19724:19812   */\n      mstore\n        /* \"#utility.yul\":19831:19835   */\n      0x00\n        /* \"#utility.yul\":19828:19829   */\n      0x04\n        /* \"#utility.yul\":19821:19836   */\n      mstore\n        /* \"#utility.yul\":19855:19859   */\n      0x24\n        /* \"#utility.yul\":19852:19853   */\n      0x00\n        /* \"#utility.yul\":19845:19860   */\n      revert\n        /* \"#utility.yul\":19872:19969   */\n    tag_357:\n        /* \"#utility.yul\":19931:19937   */\n      0x00\n        /* \"#utility.yul\":19959:19962   */\n      dup3\n        /* \"#utility.yul\":19949:19962   */\n      swap1\n      pop\n        /* \"#utility.yul\":19872:19969   */\n      swap3\n      swap2\n      pop\n      pop\n      jump\t// out\n        /* \"#utility.yul\":19975:20155   */\n    tag_358:\n        /* \"#utility.yul\":20023:20100   */\n      0x4e487b7100000000000000000000000000000000000000000000000000000000\n        /* \"#utility.yul\":20020:20021   */\n      0x00\n        /* \"#utility.yul\":20013:20101   */\n      mstore\n        /* \"#utility.yul\":20120:20124   */\n      0x22\n        /* \"#utility.yul\":20117:20118   */\n      0x04\n        /* \"#utility.yul\":20110:20125   */\n      mstore\n        /* \"#utility.yul\":20144:20148   */\n      0x24\n        /* \"#utility.yul\":20141:20142   */\n      0x00\n        /* \"#utility.yul\":20134:20149   */\n      revert\n        /* \"#utility.yul\":20161:20481   */\n    tag_112:\n        /* \"#utility.yul\":20205:20211   */\n      0x00\n        /* \"#utility.yul\":20242:20243   */\n      0x02\n        /* \"#utility.yul\":20236:20240   */\n      dup3\n        /* \"#utility.yul\":20232:20244   */\n      div\n        /* \"#utility.yul\":20222:20244   */\n      swap1\n      pop\n        /* \"#utility.yul\":20289:20290   */\n      0x01\n        /* \"#utility.yul\":20283:20287   */\n      dup3\n        /* \"#utility.yul\":20279:20291   */\n      and\n        /* \"#utility.yul\":20310:20328   */\n      dup1\n        /* \"#utility.yul\":20300:20381   */\n      tag_670\n      jumpi\n        /* \"#utility.yul\":20366:20370   */\n      0x7f\n        /* \"#utility.yul\":20358:20364   */\n      dup3\n        /* \"#utility.yul\":20354:20371   */\n      and\n        /* \"#utility.yul\":20344:20371   */\n      swap2\n      pop\n        /* \"#utility.yul\":20300:20381   */\n    tag_670:\n        /* \"#utility.yul\":20428:20430   */\n      0x20\n        /* \"#utility.yul\":20420:20426   */\n      dup3\n        /* \"#utility.yul\":20417:20431   */\n      lt\n        /* \"#utility.yul\":20397:20415   */\n      dup2\n        /* \"#utility.yul\":20394:20432   */\n      sub\n        /* \"#utility.yul\":20391:20475   */\n      tag_671\n      jumpi\n        /* \"#utility.yul\":20447:20465   */\n      tag_672\n      tag_358\n      jump\t// in\n    tag_672:\n        /* \"#utility.yul\":20391:20475   */\n    tag_671:\n        /* \"#utility.yul\":20212:20481   */\n      pop\n        /* \"#utility.yul\":20161:20481   */\n      swap2\n      swap1\n      pop\n      jump\t// out\n        /* \"#utility.yul\":20487:20628   */\n    tag_359:\n        /* \"#utility.yul\":20536:20540   */\n      0x00\n        /* \"#utility.yul\":20559:20562   */\n      dup2\n        /* \"#utility.yul\":20551:20562   */\n      swap1\n      pop\n        /* \"#utility.yul\":20582:20585   */\n      dup2\n        /* \"#utility.yul\":20579:20580   */\n      0x00\n        /* \"#utility.yul\":20572:20586   */\n      mstore\n        /* \"#utility.yul\":20616:20620   */\n      0x20\n        /* \"#utility.yul\":20613:20614   */\n      0x00\n        /* \"#utility.yul\":20603:20621   */\n      keccak256\n        /* \"#utility.yul\":20595:20621   */\n      swap1\n      pop\n        /* \"#utility.yul\":20487:20628   */\n      swap2\n      swap1\n      pop\n      jump\t// out\n        /* \"#utility.yul\":20634:20727   */\n    tag_360:\n        /* \"#utility.yul\":20671:20677   */\n      0x00\n        /* \"#utility.yul\":20718:20720   */\n      0x20\n        /* \"#utility.yul\":20713:20715   */\n      0x1f\n        /* \"#utility.yul\":20706:20711   */\n      dup4\n        /* \"#utility.yul\":20702:20716   */\n      add\n        /* \"#utility.yul\":20698:20721   */\n      div\n        /* \"#utility.yul\":20688:20721   */\n      swap1\n      pop\n        /* \"#utility.yul\":20634:20727   */\n      swap2\n      swap1\n      pop\n      jump\t// out\n        /* \"#utility.yul\":20733:20840   */\n    tag_361:\n        /* \"#utility.yul\":20777:20785   */\n      0x00\n        /* \"#utility.yul\":20827:20832   */\n      dup3\n        /* \"#utility.yul\":20821:20825   */\n      dup3\n        /* \"#utility.yul\":20817:20833   */\n      shl\n        /* \"#utility.yul\":20796:20833   */\n      swap1\n      pop\n        /* \"#utility.yul\":20733:20840   */\n      swap3\n      swap2\n      pop\n      pop\n      jump\t// out\n        /* \"#utility.yul\":20846:21239   */\n    tag_362:\n        /* \"#utility.yul\":20915:20921   */\n      0x00\n        /* \"#utility.yul\":20965:20966   */\n      0x08\n        /* \"#utility.yul\":20953:20963   */\n      dup4\n        /* \"#utility.yul\":20949:20967   */\n      mul\n        /* \"#utility.yul\":20988:21085   */\n      tag_677\n        /* \"#utility.yul\":21018:21084   */\n      0xffffffffffffffffffffffffffffffffffffffffffffffffffffffffffffffff\n        /* \"#utility.yul\":21007:21016   */\n      dup3\n        /* \"#utility.yul\":20988:21085   */\n      tag_361\n      jump\t// in\n    tag_677:\n        /* \"#utility.yul\":21106:21145   */\n      tag_678\n        /* \"#utility.yul\":21136:21144   */\n      dup7\n        /* \"#utility.yul\":21125:21134   */\n      dup4\n        /* \"#utility.yul\":21106:21145   */\n      tag_361\n      jump\t// in\n    tag_678:\n        /* \"#utility.yul\":21094:21145   */\n      swap6\n      pop\n        /* \"#utility.yul\":21178:21182   */\n      dup1\n        /* \"#utility.yul\":21174:21183   */\n      not\n        /* \"#utility.yul\":21167:21172   */\n      dup5\n        /* \"#utility.yul\":21163:21184   */\n      and\n        /* \"#utility.yul\":21154:21184   */\n      swap4\n      pop\n        /* \"#utility.yul\":21227:21231   */\n      dup1\n        /* \"#utility.yul\":21217:21225   */\n      dup7\n        /* \"#utility.yul\":21213:21232   */\n      and\n        /* \"#utility.yul\":21206:21211   */\n      dup5\n        /* \"#utility.yul\":21203:21233   */\n      or\n        /* \"#utility.yul\":21193:21233   */\n      swap3\n      pop\n        /* \"#utility.yul\":20922:21239   */\n      pop\n      pop\n        /* \"#utility.yul\":20846:21239   */\n      swap4\n      swap3\n      pop\n      pop\n      pop\n      jump\t// out\n        /* \"#utility.yul\":21245:21387   */\n    tag_363:\n        /* \"#utility.yul\":21295:21304   */\n      0x00\n        /* \"#utility.yul\":21328:21381   */\n      tag_680\n        /* \"#utility.yul\":21346:21380   */\n      tag_681\n        /* \"#utility.yul\":21355:21379   */\n      tag_682\n        /* \"#utility.yul\":21373:21378   */\n      dup5\n        /* \"#utility.yul\":21355:21379   */\n      tag_313\n      jump\t// in\n    tag_682:\n        /* \"#utility.yul\":21346:21380   */\n      tag_334\n      jump\t// in\n    tag_681:\n        /* \"#utility.yul\":21328:21381   */\n      tag_313\n      jump\t// in\n    tag_680:\n        /* \"#utility.yul\":21315:21381   */\n      swap1\n      pop\n        /* \"#utility.yul\":21245:21387   */\n      swap2\n      swap1\n      pop\n      jump\t// out\n        /* \"#utility.yul\":21393:21468   */\n    tag_364:\n        /* \"#utility.yul\":21436:21439   */\n      0x00\n        /* \"#utility.yul\":21457:21462   */\n      dup2\n        /* \"#utility.yul\":21450:21462   */\n      swap1\n      pop\n        /* \"#utility.yul\":21393:21468   */\n      swap2\n      swap1\n      pop\n      jump\t// out\n        /* \"#utility.yul\":21474:21743   */\n    tag_365:\n        /* \"#utility.yul\":21584:21623   */\n      tag_685\n        /* \"#utility.yul\":21615:21622   */\n      dup4\n        /* \"#utility.yul\":21584:21623   */\n      tag_363\n      jump\t// in\n    tag_685:\n        /* \"#utility.yul\":21645:21736   */\n      tag_686\n        /* \"#utility.yul\":21694:21735   */\n      tag_687\n        /* \"#utility.yul\":21718:21734   */\n      dup3\n        /* \"#utility.yul\":21694:21735   */\n      tag_364\n      jump\t// in\n    tag_687:\n        /* \"#utility.yul\":21686:21692   */\n      dup5\n        /* \"#utility.yul\":21679:21683   */\n      dup5\n        /* \"#utility.yul\":21673:21684   */\n      sload\n        /* \"#utility.yul\":21645:21736   */\n      tag_362\n      jump\t// in\n    tag_686:\n        /* \"#utility.yul\":21639:21643   */\n      dup3\n        /* \"#utility.yul\":21632:21737   */\n      sstore\n        /* \"#utility.yul\":21550:21743   */\n      pop\n        /* \"#utility.yul\":21474:21743   */\n      pop\n      pop\n      pop\n      jump\t// out\n        /* \"#utility.yul\":21749:21822   */\n    tag_366:\n        /* \"#utility.yul\":21794:21797   */\n      0x00\n        /* \"#utility.yul\":21815:21816   */\n      0x00\n        /* \"#utility.yul\":21808:21816   */\n      swap1\n      pop\n        /* \"#utility.yul\":21749:21822   */\n      swap1\n      jump\t// out\n        /* \"#utility.yul\":21828:22017   */\n    tag_367:\n        /* \"#utility.yul\":21905:21937   */\n      tag_690\n      tag_366\n      jump\t// in\n    tag_690:\n        /* \"#utility.yul\":21946:22011   */\n      tag_691\n        /* \"#utility.yul\":22004:22010   */\n      dup2\n        /* \"#utility.yul\":21996:22002   */\n      dup5\n        /* \"#utility.yul\":21990:21994   */\n      dup5\n        /* \"#utility.yul\":21946:22011   */\n      tag_365\n      jump\t// in\n    tag_691:\n        /* \"#utility.yul\":21881:22017   */\n      pop\n        /* \"#utility.yul\":21828:22017   */\n      pop\n      pop\n      jump\t// out\n        /* \"#utility.yul\":22023:22209   */\n    tag_368:\n        /* \"#utility.yul\":22083:22203   */\n    tag_693:\n        /* \"#utility.yul\":22100:22103   */\n      dup2\n        /* \"#utility.yul\":22093:22098   */\n      dup2\n        /* \"#utility.yul\":22090:22104   */\n      lt\n        /* \"#utility.yul\":22083:22203   */\n      iszero\n      tag_695\n      jumpi\n        /* \"#utility.yul\":22154:22193   */\n      tag_696\n        /* \"#utility.yul\":22191:22192   */\n      0x00\n        /* \"#utility.yul\":22184:22189   */\n      dup3\n        /* \"#utility.yul\":22154:22193   */\n      tag_367\n      jump\t// in\n    tag_696:\n        /* \"#utility.yul\":22127:22128   */\n      0x01\n        /* \"#utility.yul\":22120:22125   */\n      dup2\n        /* \"#utility.yul\":22116:22129   */\n      add\n        /* \"#utility.yul\":22107:22129   */\n      swap1\n      pop\n        /* \"#utility.yul\":22083:22203   */\n      jump(tag_693)\n    tag_695:\n        /* \"#utility.yul\":22023:22209   */\n      pop\n      pop\n      jump\t// out\n        /* \"#utility.yul\":22215:22758   */\n    tag_369:\n        /* \"#utility.yul\":22316:22318   */\n      0x1f\n        /* \"#utility.yul\":22311:22314   */\n      dup3\n        /* \"#utility.yul\":22308:22319   */\n      gt\n        /* \"#utility.yul\":22305:22751   */\n      iszero\n      tag_698\n      jumpi\n        /* \"#utility.yul\":22350:22388   */\n      tag_699\n        /* \"#utility.yul\":22382:22387   */\n      dup2\n        /* \"#utility.yul\":22350:22388   */\n      tag_359\n      jump\t// in\n    tag_699:\n        /* \"#utility.yul\":22434:22463   */\n      tag_700\n        /* \"#utility.yul\":22452:22462   */\n      dup5\n        /* \"#utility.yul\":22434:22463   */\n      tag_360\n      jump\t// in\n    tag_700:\n        /* \"#utility.yul\":22424:22432   */\n      dup2\n        /* \"#utility.yul\":22420:22464   */\n      add\n        /* \"#utility.yul\":22617:22619   */\n      0x20\n        /* \"#utility.yul\":22605:22615   */\n      dup6\n        /* \"#utility.yul\":22602:22620   */\n      lt\n        /* \"#utility.yul\":22599:22648   */\n      iszero\n      tag_701\n      jumpi\n        /* \"#utility.yul\":22638:22646   */\n      dup2\n        /* \"#utility.yul\":22623:22646   */\n      swap1\n      pop\n        /* \"#utility.yul\":22599:22648   */\n    tag_701:\n        /* \"#utility.yul\":22661:22741   */\n      tag_702\n        /* \"#utility.yul\":22717:22739   */\n      tag_703\n        /* \"#utility.yul\":22735:22738   */\n      dup6\n        /* \"#utility.yul\":22717:22739   */\n      tag_360\n      jump\t// in\n    tag_703:\n        /* \"#utility.yul\":22707:22715   */\n      dup4\n        /* \"#utility.yul\":22703:22740   */\n      add\n        /* \"#utility.yul\":22690:22701   */\n      dup3\n        /* \"#utility.yul\":22661:22741   */\n      tag_368\n      jump\t// in\n    tag_702:\n        /* \"#utility.yul\":22320:22751   */\n      pop\n      pop\n        /* \"#utility.yul\":22305:22751   */\n    tag_698:\n        /* \"#utility.yul\":22215:22758   */\n      pop\n      pop\n      pop\n      jump\t// out\n        /* \"#utility.yul\":22764:22881   */\n    tag_370:\n        /* \"#utility.yul\":22818:22826   */\n      0x00\n        /* \"#utility.yul\":22868:22873   */\n      dup3\n        /* \"#utility.yul\":22862:22866   */\n      dup3\n        /* \"#utility.yul\":22858:22874   */\n      shr\n        /* \"#utility.yul\":22837:22874   */\n      swap1\n      pop\n        /* \"#utility.yul\":22764:22881   */\n      swap3\n      swap2\n      pop\n      pop\n      jump\t// out\n        /* \"#utility.yul\":22887:23056   */\n    tag_371:\n        /* \"#utility.yul\":22931:22937   */\n      0x00\n        /* \"#utility.yul\":22964:23015   */\n      tag_706\n        /* \"#utility.yul\":23012:23013   */\n      0x00\n        /* \"#utility.yul\":23008:23014   */\n      not\n        /* \"#utility.yul\":23000:23005   */\n      dup5\n        /* \"#utility.yul\":22997:22998   */\n      0x08\n        /* \"#utility.yul\":22993:23006   */\n      mul\n        /* \"#utility.yul\":22964:23015   */\n      tag_370\n      jump\t// in\n    tag_706:\n        /* \"#utility.yul\":22960:23016   */\n      not\n        /* \"#utility.yul\":23045:23049   */\n      dup1\n        /* \"#utility.yul\":23039:23043   */\n      dup4\n        /* \"#utility.yul\":23035:23050   */\n      and\n        /* \"#utility.yul\":23025:23050   */\n      swap2\n      pop\n        /* \"#utility.yul\":22938:23056   */\n      pop\n        /* \"#utility.yul\":22887:23056   */\n      swap3\n      swap2\n      pop\n      pop\n      jump\t// out\n        /* \"#utility.yul\":23061:23356   */\n    tag_372:\n        /* \"#utility.yul\":23137:23141   */\n      0x00\n        /* \"#utility.yul\":23283:23312   */\n      tag_708\n        /* \"#utility.yul\":23308:23311   */\n      dup4\n        /* \"#utility.yul\":23302:23306   */\n      dup4\n        /* \"#utility.yul\":23283:23312   */\n      tag_371\n      jump\t// in\n    tag_708:\n        /* \"#utility.yul\":23275:23312   */\n      swap2\n      pop\n        /* \"#utility.yul\":23345:23348   */\n      dup3\n        /* \"#utility.yul\":23342:23343   */\n      0x02\n        /* \"#utility.yul\":23338:23349   */\n      mul\n        /* \"#utility.yul\":23332:23336   */\n      dup3\n        /* \"#utility.yul\":23329:23350   */\n      or\n        /* \"#utility.yul\":23321:23350   */\n      swap1\n      pop\n        /* \"#utility.yul\":23061:23356   */\n      swap3\n      swap2\n      pop\n      pop\n      jump\t// out\n        /* \"#utility.yul\":23361:24764   */\n    tag_373:\n        /* \"#utility.yul\":23485:23529   */\n      tag_710\n        /* \"#utility.yul\":23525:23528   */\n      dup4\n        /* \"#utility.yul\":23520:23523   */\n      dup4\n        /* \"#utility.yul\":23485:23529   */\n      tag_357\n      jump\t// in\n    tag_710:\n        /* \"#utility.yul\":23594:23612   */\n      0xffffffffffffffff\n        /* \"#utility.yul\":23586:23592   */\n      dup2\n        /* \"#utility.yul\":23583:23613   */\n      gt\n        /* \"#utility.yul\":23580:23636   */\n      iszero\n      tag_711\n      jumpi\n        /* \"#utility.yul\":23616:23634   */\n      tag_712\n      tag_229\n      jump\t// in\n    tag_712:\n        /* \"#utility.yul\":23580:23636   */\n    tag_711:\n        /* \"#utility.yul\":23660:23698   */\n      tag_713\n        /* \"#utility.yul\":23692:23696   */\n      dup3\n        /* \"#utility.yul\":23686:23697   */\n      sload\n        /* \"#utility.yul\":23660:23698   */\n      tag_112\n      jump\t// in\n    tag_713:\n        /* \"#utility.yul\":23745:23812   */\n      tag_714\n        /* \"#utility.yul\":23805:23811   */\n      dup3\n        /* \"#utility.yul\":23797:23803   */\n      dup3\n        /* \"#utility.yul\":23791:23795   */\n      dup6\n        /* \"#utility.yul\":23745:23812   */\n      tag_369\n      jump\t// in\n    tag_714:\n        /* \"#utility.yul\":23839:23840   */\n      0x00\n        /* \"#utility.yul\":23868:23870   */\n      0x1f\n        /* \"#utility.yul\":23860:23866   */\n      dup4\n        /* \"#utility.yul\":23857:23871   */\n      gt\n        /* \"#utility.yul\":23885:23886   */\n      0x01\n        /* \"#utility.yul\":23880:24512   */\n      dup2\n      eq\n      tag_716\n      jumpi\n        /* \"#utility.yul\":24556:24557   */\n      0x00\n        /* \"#utility.yul\":24573:24579   */\n      dup5\n        /* \"#utility.yul\":24570:24654   */\n      iszero\n      tag_717\n      jumpi\n        /* \"#utility.yul\":24629:24638   */\n      dup3\n        /* \"#utility.yul\":24624:24627   */\n      dup8\n        /* \"#utility.yul\":24620:24639   */\n      add\n        /* \"#utility.yul\":24607:24640   */\n      calldataload\n        /* \"#utility.yul\":24598:24640   */\n      swap1\n      pop\n        /* \"#utility.yul\":24570:24654   */\n    tag_717:\n        /* \"#utility.yul\":24680:24747   */\n      tag_718\n        /* \"#utility.yul\":24740:24746   */\n      dup6\n        /* \"#utility.yul\":24733:24738   */\n      dup3\n        /* \"#utility.yul\":24680:24747   */\n      tag_372\n      jump\t// in\n    tag_718:\n        /* \"#utility.yul\":24674:24678   */\n      dup7\n        /* \"#utility.yul\":24667:24748   */\n      sstore\n        /* \"#utility.yul\":24529:24758   */\n      pop\n        /* \"#utility.yul\":23850:24758   */\n      jump(tag_715)\n        /* \"#utility.yul\":23880:24512   */\n    tag_716:\n        /* \"#utility.yul\":23932:23936   */\n      0x1f\n        /* \"#utility.yul\":23928:23937   */\n      not\n        /* \"#utility.yul\":23920:23926   */\n      dup5\n        /* \"#utility.yul\":23916:23938   */\n      and\n        /* \"#utility.yul\":23966:24003   */\n      tag_719\n        /* \"#utility.yul\":23998:24002   */\n      dup7\n        /* \"#utility.yul\":23966:24003   */\n      tag_359\n      jump\t// in\n    tag_719:\n        /* \"#utility.yul\":24025:24026   */\n      0x00\n        /* \"#utility.yul\":24039:24254   */\n    tag_720:\n        /* \"#utility.yul\":24053:24060   */\n      dup3\n        /* \"#utility.yul\":24050:24051   */\n      dup2\n        /* \"#utility.yul\":24047:24061   */\n      lt\n        /* \"#utility.yul\":24039:24254   */\n      iszero\n      tag_722\n      jumpi\n        /* \"#utility.yul\":24139:24148   */\n      dup5\n        /* \"#utility.yul\":24134:24137   */\n      dup10\n        /* \"#utility.yul\":24130:24149   */\n      add\n        /* \"#utility.yul\":24117:24150   */\n      calldataload\n        /* \"#utility.yul\":24109:24115   */\n      dup3\n        /* \"#utility.yul\":24102:24151   */\n      sstore\n        /* \"#utility.yul\":24190:24191   */\n      0x01\n        /* \"#utility.yul\":24182:24188   */\n      dup3\n        /* \"#utility.yul\":24178:24192   */\n      add\n        /* \"#utility.yul\":24168:24192   */\n      swap2\n      pop\n        /* \"#utility.yul\":24237:24239   */\n      0x20\n        /* \"#utility.yul\":24226:24235   */\n      dup6\n        /* \"#utility.yul\":24222:24240   */\n      add\n        /* \"#utility.yul\":24209:24240   */\n      swap5\n      pop\n        /* \"#utility.yul\":24076:24080   */\n      0x20\n        /* \"#utility.yul\":24073:24074   */\n      dup2\n        /* \"#utility.yul\":24069:24081   */\n      add\n        /* \"#utility.yul\":24064:24081   */\n      swap1\n      pop\n        /* \"#utility.yul\":24039:24254   */\n      jump(tag_720)\n    tag_722:\n        /* \"#utility.yul\":24282:24288   */\n      dup7\n        /* \"#utility.yul\":24273:24280   */\n      dup4\n        /* \"#utility.yul\":24270:24289   */\n      lt\n        /* \"#utility.yul\":24267:24453   */\n      iszero\n      tag_723\n      jumpi\n        /* \"#utility.yul\":24347:24356   */\n      dup5\n        /* \"#utility.yul\":24342:24345   */\n      dup10\n        /* \"#utility.yul\":24338:24357   */\n      add\n        /* \"#utility.yul\":24325:24358   */\n      calldataload\n        /* \"#utility.yul\":24390:24438   */\n      tag_724\n        /* \"#utility.yul\":24432:24436   */\n      0x1f\n        /* \"#utility.yul\":24424:24430   */\n      dup10\n        /* \"#utility.yul\":24420:24437   */\n      and\n        /* \"#utility.yul\":24409:24418   */\n      dup3\n        /* \"#utility.yul\":24390:24438   */\n      tag_371\n      jump\t// in\n    tag_724:\n        /* \"#utility.yul\":24382:24388   */\n      dup4\n        /* \"#utility.yul\":24375:24439   */\n      sstore\n        /* \"#utility.yul\":24290:24453   */\n      pop\n        /* \"#utility.yul\":24267:24453   */\n    tag_723:\n        /* \"#utility.yul\":24499:24500   */\n      0x01\n        /* \"#utility.yul\":24495:24496   */\n      0x02\n        /* \"#utility.yul\":24487:24493   */\n      dup9\n        /* \"#utility.yul\":24483:24497   */\n      mul\n        /* \"#utility.yul\":24479:24501   */\n      add\n        /* \"#utility.yul\":24473:24477   */\n      dup9\n        /* \"#utility.yul\":24466:24502   */\n      sstore\n        /* \"#utility.yul\":23887:24512   */\n      pop\n      pop\n      pop\n        /* \"#utility.yul\":23850:24758   */\n    tag_715:\n      pop\n        /* \"#utility.yul\":23460:24764   */\n      pop\n      pop\n      pop\n        /* \"#utility.yul\":23361:24764   */\n      pop\n      pop\n      pop\n      jump\t// out\n        /* \"#utility.yul\":24770:24989   */\n    tag_374:\n        /* \"#utility.yul\":24886:24983   */\n      tag_726\n        /* \"#utility.yul\":24975:24982   */\n      dup4\n        /* \"#utility.yul\":24966:24973   */\n      dup4\n        /* \"#utility.yul\":24960:24964   */\n      dup4\n        /* \"#utility.yul\":24886:24983   */\n      tag_373\n      jump\t// in\n    tag_726:\n        /* \"#utility.yul\":24770:24989   */\n      pop\n      pop\n      pop\n      jump\t// out\n        /* \"#utility.yul\":24995:25123   */\n    tag_375:\n        /* \"#utility.yul\":25090:25094   */\n      0x00\n        /* \"#utility.yul\":25113:25116   */\n      dup2\n        /* \"#utility.yul\":25105:25116   */\n      swap1\n      pop\n        /* \"#utility.yul\":24995:25123   */\n      swap2\n      swap1\n      pop\n      jump\t// out\n        /* \"#utility.yul\":25129:25261   */\n    tag_376:\n        /* \"#utility.yul\":25214:25220   */\n      0x00\n        /* \"#utility.yul\":25248:25253   */\n      dup2\n        /* \"#utility.yul\":25242:25254   */\n      sload\n        /* \"#utility.yul\":25232:25254   */\n      swap1\n      pop\n        /* \"#utility.yul\":25129:25261   */\n      swap2\n      swap1\n      pop\n      jump\t// out\n        /* \"#utility.yul\":25267:25447   */\n    tag_377:\n        /* \"#utility.yul\":25315:25392   */\n      0x4e487b7100000000000000000000000000000000000000000000000000000000\n        /* \"#utility.yul\":25312:25313   */\n      0x00\n        /* \"#utility.yul\":25305:25393   */\n      mstore\n        /* \"#utility.yul\":25412:25416   */\n      0x11\n        /* \"#utility.yul\":25409:25410   */\n      0x04\n        /* \"#utility.yul\":25402:25417   */\n      mstore\n        /* \"#utility.yul\":25436:25440   */\n      0x24\n        /* \"#utility.yul\":25433:25434   */\n      0x00\n        /* \"#utility.yul\":25426:25441   */\n      revert\n        /* \"#utility.yul\":25869:26093   */\n    tag_379:\n        /* \"#utility.yul\":25971:25975   */\n      0x00\n        /* \"#utility.yul\":25994:26000   */\n      dup2\n        /* \"#utility.yul\":25986:26000   */\n      swap1\n      pop\n        /* \"#utility.yul\":26084:26085   */\n      0x01\n        /* \"#utility.yul\":26079:26080   */\n      dup1\n        /* \"#utility.yul\":26076:26077   */\n      0x01\n        /* \"#utility.yul\":26072:26081   */\n      sub\n        /* \"#utility.yul\":26064:26070   */\n      dup4\n        /* \"#utility.yul\":26060:26082   */\n      add\n        /* \"#utility.yul\":26056:26086   */\n      div\n        /* \"#utility.yul\":26048:26086   */\n      swap1\n      pop\n        /* \"#utility.yul\":25869:26093   */\n      swap2\n      swap1\n      pop\n      jump\t// out\n        /* \"#utility.yul\":26098:26275   */\n    tag_380:\n        /* \"#utility.yul\":26183:26187   */\n      0x00\n        /* \"#utility.yul\":26206:26209   */\n      dup2\n        /* \"#utility.yul\":26198:26209   */\n      swap1\n      pop\n        /* \"#utility.yul\":26229:26232   */\n      dup2\n        /* \"#utility.yul\":26226:26227   */\n      0x00\n        /* \"#utility.yul\":26219:26233   */\n      mstore\n        /* \"#utility.yul\":26263:26267   */\n      0x20\n        /* \"#utility.yul\":26260:26261   */\n      0x00\n        /* \"#utility.yul\":26250:26268   */\n      keccak256\n        /* \"#utility.yul\":26242:26268   */\n      swap1\n      pop\n        /* \"#utility.yul\":26098:26275   */\n      swap2\n      swap1\n      pop\n      jump\t// out\n        /* \"#utility.yul\":26281:26389   */\n    tag_381:\n        /* \"#utility.yul\":26380:26381   */\n      0x00\n        /* \"#utility.yul\":26376:26377   */\n      0x00\n        /* \"#utility.yul\":26370:26374   */\n      dup3\n        /* \"#utility.yul\":26366:26378   */\n      add\n        /* \"#utility.yul\":26359:26382   */\n      sstore\n        /* \"#utility.yul\":26281:26389   */\n      pop\n      jump\t// out\n        /* \"#utility.yul\":26395:26598   */\n    tag_382:\n        /* \"#utility.yul\":26500:26501   */\n      0x00\n        /* \"#utility.yul\":26492:26498   */\n      dup3\n        /* \"#utility.yul\":26489:26502   */\n      eq\n        /* \"#utility.yul\":26479:26526   */\n      tag_740\n      jumpi\n        /* \"#utility.yul\":26506:26524   */\n      tag_741\n      tag_356\n      jump\t// in\n    tag_741:\n        /* \"#utility.yul\":26479:26526   */\n    tag_740:\n        /* \"#utility.yul\":26535:26592   */\n      tag_742\n        /* \"#utility.yul\":26587:26591   */\n      dup2\n        /* \"#utility.yul\":26535:26592   */\n      tag_381\n      jump\t// in\n    tag_742:\n        /* \"#utility.yul\":26395:26598   */\n      pop\n      pop\n      jump\t// out\n        /* \"#utility.yul\":26604:26833   */\n    tag_383:\n        /* \"#utility.yul\":26686:26827   */\n    tag_744:\n        /* \"#utility.yul\":26703:26706   */\n      dup2\n        /* \"#utility.yul\":26696:26701   */\n      dup2\n        /* \"#utility.yul\":26693:26707   */\n      lt\n        /* \"#utility.yul\":26686:26827   */\n      iszero\n      tag_746\n      jumpi\n        /* \"#utility.yul\":26757:26817   */\n      tag_747\n        /* \"#utility.yul\":26815:26816   */\n      0x00\n        /* \"#utility.yul\":26808:26813   */\n      dup3\n        /* \"#utility.yul\":26757:26817   */\n      tag_382\n      jump\t// in\n    tag_747:\n        /* \"#utility.yul\":26730:26731   */\n      0x01\n        /* \"#utility.yul\":26723:26728   */\n      dup2\n        /* \"#utility.yul\":26719:26732   */\n      add\n        /* \"#utility.yul\":26710:26732   */\n      swap1\n      pop\n        /* \"#utility.yul\":26686:26827   */\n      jump(tag_744)\n    tag_746:\n        /* \"#utility.yul\":26604:26833   */\n      pop\n      pop\n      jump\t// out\n        /* \"#utility.yul\":27089:27875   */\n    tag_385:\n        /* \"#utility.yul\":27230:27233   */\n      dup2\n        /* \"#utility.yul\":27218:27228   */\n      dup4\n        /* \"#utility.yul\":27215:27234   */\n      lt\n        /* \"#utility.yul\":27212:27868   */\n      iszero\n      tag_751\n      jumpi\n        /* \"#utility.yul\":27321:27407   */\n      tag_752\n        /* \"#utility.yul\":27403:27406   */\n      dup3\n        /* \"#utility.yul\":27321:27407   */\n      tag_379\n      jump\t// in\n    tag_752:\n        /* \"#utility.yul\":27440:27533   */\n      tag_753\n        /* \"#utility.yul\":27522:27532   */\n      dup5\n        /* \"#utility.yul\":27440:27533   */\n      tag_379\n      jump\t// in\n    tag_753:\n        /* \"#utility.yul\":27568:27642   */\n      tag_754\n        /* \"#utility.yul\":27636:27641   */\n      dup4\n        /* \"#utility.yul\":27568:27642   */\n      tag_380\n      jump\t// in\n    tag_754:\n        /* \"#utility.yul\":27694:27706   */\n      dup2\n        /* \"#utility.yul\":27678:27692   */\n      dup2\n        /* \"#utility.yul\":27674:27707   */\n      add\n        /* \"#utility.yul\":27757:27769   */\n      dup4\n        /* \"#utility.yul\":27741:27755   */\n      dup3\n        /* \"#utility.yul\":27737:27770   */\n      add\n        /* \"#utility.yul\":27784:27858   */\n      tag_755\n        /* \"#utility.yul\":27848:27857   */\n      dup2\n        /* \"#utility.yul\":27835:27846   */\n      dup4\n        /* \"#utility.yul\":27784:27858   */\n      tag_383\n      jump\t// in\n    tag_755:\n        /* \"#utility.yul\":27235:27868   */\n      pop\n      pop\n      pop\n      pop\n      pop\n        /* \"#utility.yul\":27212:27868   */\n    tag_751:\n        /* \"#utility.yul\":27089:27875   */\n      pop\n      pop\n      pop\n      jump\t// out\n        /* \"#utility.yul\":27881:28332   */\n    tag_386:\n        /* \"#utility.yul\":27995:28015   */\n      0x010000000000000000\n        /* \"#utility.yul\":27987:27993   */\n      dup3\n        /* \"#utility.yul\":27984:28016   */\n      gt\n        /* \"#utility.yul\":27981:28059   */\n      iszero\n      tag_757\n      jumpi\n        /* \"#utility.yul\":28031:28049   */\n      tag_758\n      tag_229\n      jump\t// in\n    tag_758:\n        /* \"#utility.yul\":27981:28059   */\n    tag_757:\n        /* \"#utility.yul\":28083:28155   */\n      tag_759\n        /* \"#utility.yul\":28149:28154   */\n      dup2\n        /* \"#utility.yul\":28083:28155   */\n      tag_376\n      jump\t// in\n    tag_759:\n        /* \"#utility.yul\":28207:28213   */\n      dup3\n        /* \"#utility.yul\":28200:28205   */\n      dup3\n        /* \"#utility.yul\":28193:28214   */\n      sstore\n        /* \"#utility.yul\":28224:28325   */\n      tag_760\n        /* \"#utility.yul\":28318:28324   */\n      dup4\n        /* \"#utility.yul\":28310:28316   */\n      dup3\n        /* \"#utility.yul\":28303:28308   */\n      dup5\n        /* \"#utility.yul\":28224:28325   */\n      tag_385\n      jump\t// in\n    tag_760:\n        /* \"#utility.yul\":27971:28332   */\n      pop\n        /* \"#utility.yul\":27881:28332   */\n      pop\n      pop\n      jump\t// out\n        /* \"#utility.yul\":28337:28475   */\n    tag_387:\n        /* \"#utility.yul\":28437:28443   */\n      0x00\n        /* \"#utility.yul\":28465:28468   */\n      dup3\n        /* \"#utility.yul\":28455:28468   */\n      swap1\n      pop\n        /* \"#utility.yul\":28337:28475   */\n      swap3\n      swap2\n      pop\n      pop\n      jump\t// out\n        /* \"#utility.yul\":28481:28667   */\n    tag_388:\n        /* \"#utility.yul\":28526:28537   */\n      0x00\n        /* \"#utility.yul\":28575:28578   */\n      dup2\n        /* \"#utility.yul\":28562:28579   */\n      calldataload\n        /* \"#utility.yul\":28588:28621   */\n      tag_763\n        /* \"#utility.yul\":28615:28620   */\n      dup2\n        /* \"#utility.yul\":28588:28621   */\n      tag_344\n      jump\t// in\n    tag_763:\n        /* \"#utility.yul\":28655:28660   */\n      dup1\n        /* \"#utility.yul\":28631:28660   */\n      swap2\n      pop\n        /* \"#utility.yul\":28538:28667   */\n      pop\n        /* \"#utility.yul\":28481:28667   */\n      swap2\n      swap1\n      pop\n      jump\t// out\n        /* \"#utility.yul\":28673:28765   */\n    tag_389:\n        /* \"#utility.yul\":28705:28713   */\n      0x00\n        /* \"#utility.yul\":28752:28757   */\n      dup2\n        /* \"#utility.yul\":28749:28750   */\n      0x00\n        /* \"#utility.yul\":28745:28758   */\n      shl\n        /* \"#utility.yul\":28724:28758   */\n      swap1\n      pop\n        /* \"#utility.yul\":28673:28765   */\n      swap2\n      swap1\n      pop\n      jump\t// out\n        /* \"#utility.yul\":28771:29037   */\n    tag_390:\n        /* \"#utility.yul\":28829:28835   */\n      0x00\n        /* \"#utility.yul\":28858:28900   */\n      0xffffffffffffffffffffffffffffffffffffffff\n        /* \"#utility.yul\":28921:28943   */\n      tag_766\n        /* \"#utility.yul\":28934:28942   */\n      dup5\n        /* \"#utility.yul\":28921:28943   */\n      tag_389\n      jump\t// in\n    tag_766:\n        /* \"#utility.yul\":28909:28943   */\n      swap4\n      pop\n        /* \"#utility.yul\":28976:28980   */\n      dup1\n        /* \"#utility.yul\":28972:28981   */\n      not\n        /* \"#utility.yul\":28965:28970   */\n      dup4\n        /* \"#utility.yul\":28961:28982   */\n      and\n        /* \"#utility.yul\":28952:28982   */\n      swap3\n      pop\n        /* \"#utility.yul\":29025:29029   */\n      dup1\n        /* \"#utility.yul\":29015:29023   */\n      dup5\n        /* \"#utility.yul\":29011:29030   */\n      and\n        /* \"#utility.yul\":29004:29009   */\n      dup4\n        /* \"#utility.yul\":29001:29031   */\n      or\n        /* \"#utility.yul\":28991:29031   */\n      swap2\n      pop\n        /* \"#utility.yul\":28836:29037   */\n      pop\n        /* \"#utility.yul\":28771:29037   */\n      swap3\n      swap2\n      pop\n      pop\n      jump\t// out\n        /* \"#utility.yul\":29043:29169   */\n    tag_391:\n        /* \"#utility.yul\":29093:29102   */\n      0x00\n        /* \"#utility.yul\":29126:29163   */\n      tag_768\n        /* \"#utility.yul\":29157:29162   */\n      dup3\n        /* \"#utility.yul\":29126:29163   */\n      tag_336\n      jump\t// in\n    tag_768:\n        /* \"#utility.yul\":29113:29163   */\n      swap1\n      pop\n        /* \"#utility.yul\":29043:29169   */\n      swap2\n      swap1\n      pop\n      jump\t// out\n        /* \"#utility.yul\":29175:29250   */\n    tag_392:\n        /* \"#utility.yul\":29218:29221   */\n      0x00\n        /* \"#utility.yul\":29239:29244   */\n      dup2\n        /* \"#utility.yul\":29232:29244   */\n      swap1\n      pop\n        /* \"#utility.yul\":29175:29250   */\n      swap2\n      swap1\n      pop\n      jump\t// out\n        /* \"#utility.yul\":29256:29519   */\n    tag_393:\n        /* \"#utility.yul\":29367:29406   */\n      tag_771\n        /* \"#utility.yul\":29398:29405   */\n      dup3\n        /* \"#utility.yul\":29367:29406   */\n      tag_391\n      jump\t// in\n    tag_771:\n        /* \"#utility.yul\":29428:29512   */\n      tag_772\n        /* \"#utility.yul\":29470:29511   */\n      tag_773\n        /* \"#utility.yul\":29494:29510   */\n      dup3\n        /* \"#utility.yul\":29470:29511   */\n      tag_392\n      jump\t// in\n    tag_773:\n        /* \"#utility.yul\":29463:29467   */\n      dup4\n        /* \"#utility.yul\":29457:29468   */\n      sload\n        /* \"#utility.yul\":29428:29512   */\n      tag_390\n      jump\t// in\n    tag_772:\n        /* \"#utility.yul\":29422:29426   */\n      dup3\n        /* \"#utility.yul\":29415:29513   */\n      sstore\n        /* \"#utility.yul\":29333:29519   */\n      pop\n        /* \"#utility.yul\":29256:29519   */\n      pop\n      pop\n      jump\t// out\n        /* \"#utility.yul\":29525:29645   */\n    tag_394:\n        /* \"#utility.yul\":29597:29620   */\n      tag_775\n        /* \"#utility.yul\":29614:29619   */\n      dup2\n        /* \"#utility.yul\":29597:29620   */\n      tag_327\n      jump\t// in\n    tag_775:\n        /* \"#utility.yul\":29590:29595   */\n      dup2\n        /* \"#utility.yul\":29587:29621   */\n      eq\n        /* \"#utility.yul\":29577:29639   */\n      tag_776\n      jumpi\n        /* \"#utility.yul\":29635:29636   */\n      0x00\n        /* \"#utility.yul\":29632:29633   */\n      0x00\n        /* \"#utility.yul\":29625:29637   */\n      revert\n        /* \"#utility.yul\":29577:29639   */\n    tag_776:\n        /* \"#utility.yul\":29525:29645   */\n      pop\n      jump\t// out\n        /* \"#utility.yul\":29651:29835   */\n    tag_395:\n        /* \"#utility.yul\":29695:29706   */\n      0x00\n        /* \"#utility.yul\":29744:29747   */\n      dup2\n        /* \"#utility.yul\":29731:29748   */\n      calldataload\n        /* \"#utility.yul\":29757:29789   */\n      tag_778\n        /* \"#utility.yul\":29783:29788   */\n      dup2\n        /* \"#utility.yul\":29757:29789   */\n      tag_394\n      jump\t// in\n    tag_778:\n        /* \"#utility.yul\":29823:29828   */\n      dup1\n        /* \"#utility.yul\":29799:29828   */\n      swap2\n      pop\n        /* \"#utility.yul\":29707:29835   */\n      pop\n        /* \"#utility.yul\":29651:29835   */\n      swap2\n      swap1\n      pop\n      jump\t// out\n        /* \"#utility.yul\":29841:29937   */\n    tag_396:\n        /* \"#utility.yul\":29875:29883   */\n      0x00\n        /* \"#utility.yul\":29924:29929   */\n      dup2\n        /* \"#utility.yul\":29919:29922   */\n      0xa0\n        /* \"#utility.yul\":29915:29930   */\n      shl\n        /* \"#utility.yul\":29894:29930   */\n      swap1\n      pop\n        /* \"#utility.yul\":29841:29937   */\n      swap2\n      swap1\n      pop\n      jump\t// out\n        /* \"#utility.yul\":29943:30215   */\n    tag_397:\n        /* \"#utility.yul\":30001:30007   */\n      0x00\n        /* \"#utility.yul\":30030:30076   */\n      0xffff0000000000000000000000000000000000000000\n        /* \"#utility.yul\":30097:30121   */\n      tag_781\n        /* \"#utility.yul\":30112:30120   */\n      dup5\n        /* \"#utility.yul\":30097:30121   */\n      tag_396\n      jump\t// in\n    tag_781:\n        /* \"#utility.yul\":30085:30121   */\n      swap4\n      pop\n        /* \"#utility.yul\":30154:30158   */\n      dup1\n        /* \"#utility.yul\":30150:30159   */\n      not\n        /* \"#utility.yul\":30143:30148   */\n      dup4\n        /* \"#utility.yul\":30139:30160   */\n      and\n        /* \"#utility.yul\":30130:30160   */\n      swap3\n      pop\n        /* \"#utility.yul\":30203:30207   */\n      dup1\n        /* \"#utility.yul\":30193:30201   */\n      dup5\n        /* \"#utility.yul\":30189:30208   */\n      and\n        /* \"#utility.yul\":30182:30187   */\n      dup4\n        /* \"#utility.yul\":30179:30209   */\n      or\n        /* \"#utility.yul\":30169:30209   */\n      swap2\n      pop\n        /* \"#utility.yul\":30008:30215   */\n      pop\n        /* \"#utility.yul\":29943:30215   */\n      swap3\n      swap2\n      pop\n      pop\n      jump\t// out\n        /* \"#utility.yul\":30221:30359   */\n    tag_398:\n        /* \"#utility.yul\":30269:30278   */\n      0x00\n        /* \"#utility.yul\":30302:30353   */\n      tag_783\n        /* \"#utility.yul\":30319:30352   */\n      tag_784\n        /* \"#utility.yul\":30328:30351   */\n      tag_785\n        /* \"#utility.yul\":30345:30350   */\n      dup5\n        /* \"#utility.yul\":30328:30351   */\n      tag_327\n      jump\t// in\n    tag_785:\n        /* \"#utility.yul\":30319:30352   */\n      tag_334\n      jump\t// in\n    tag_784:\n        /* \"#utility.yul\":30302:30353   */\n      tag_327\n      jump\t// in\n    tag_783:\n        /* \"#utility.yul\":30289:30353   */\n      swap1\n      pop\n        /* \"#utility.yul\":30221:30359   */\n      swap2\n      swap1\n      pop\n      jump\t// out\n        /* \"#utility.yul\":30365:30439   */\n    tag_399:\n        /* \"#utility.yul\":30407:30410   */\n      0x00\n        /* \"#utility.yul\":30428:30433   */\n      dup2\n        /* \"#utility.yul\":30421:30433   */\n      swap1\n      pop\n        /* \"#utility.yul\":30365:30439   */\n      swap2\n      swap1\n      pop\n      jump\t// out\n        /* \"#utility.yul\":30445:30704   */\n    tag_400:\n        /* \"#utility.yul\":30555:30592   */\n      tag_788\n        /* \"#utility.yul\":30584:30591   */\n      dup3\n        /* \"#utility.yul\":30555:30592   */\n      tag_398\n      jump\t// in\n    tag_788:\n        /* \"#utility.yul\":30614:30697   */\n      tag_789\n        /* \"#utility.yul\":30656:30696   */\n      tag_790\n        /* \"#utility.yul\":30679:30695   */\n      dup3\n        /* \"#utility.yul\":30656:30696   */\n      tag_399\n      jump\t// in\n    tag_790:\n        /* \"#utility.yul\":30649:30653   */\n      dup4\n        /* \"#utility.yul\":30643:30654   */\n      sload\n        /* \"#utility.yul\":30614:30697   */\n      tag_397\n      jump\t// in\n    tag_789:\n        /* \"#utility.yul\":30608:30612   */\n      dup3\n        /* \"#utility.yul\":30601:30698   */\n      sstore\n        /* \"#utility.yul\":30521:30704   */\n      pop\n        /* \"#utility.yul\":30445:30704   */\n      pop\n      pop\n      jump\t// out\n        /* \"#utility.yul\":30710:31513   */\n    tag_401:\n        /* \"#utility.yul\":30884:30885   */\n      0x00\n        /* \"#utility.yul\":30878:30882   */\n      dup2\n        /* \"#utility.yul\":30874:30886   */\n      add\n        /* \"#utility.yul\":30930:30931   */\n      0x00\n        /* \"#utility.yul\":30923:30928   */\n      dup4\n        /* \"#utility.yul\":30919:30932   */\n      add\n        /* \"#utility.yul\":30980:30992   */\n      dup1\n        /* \"#utility.yul\":31023:31065   */\n      tag_792\n        /* \"#utility.yul\":31051:31064   */\n      dup2\n        /* \"#utility.yul\":31023:31065   */\n      tag_388\n      jump\t// in\n    tag_792:\n        /* \"#utility.yul\":31006:31065   */\n      swap1\n      pop\n        /* \"#utility.yul\":31079:31158   */\n      tag_793\n        /* \"#utility.yul\":31144:31157   */\n      dup2\n        /* \"#utility.yul\":31132:31142   */\n      dup5\n        /* \"#utility.yul\":31079:31158   */\n      tag_393\n      jump\t// in\n    tag_793:\n        /* \"#utility.yul\":30841:31169   */\n      pop\n      pop\n      pop\n        /* \"#utility.yul\":31222:31223   */\n      0x00\n        /* \"#utility.yul\":31216:31220   */\n      dup2\n        /* \"#utility.yul\":31212:31224   */\n      add\n        /* \"#utility.yul\":31268:31270   */\n      0x20\n        /* \"#utility.yul\":31261:31266   */\n      dup4\n        /* \"#utility.yul\":31257:31271   */\n      add\n        /* \"#utility.yul\":31319:31331   */\n      dup1\n        /* \"#utility.yul\":31362:31403   */\n      tag_794\n        /* \"#utility.yul\":31389:31402   */\n      dup2\n        /* \"#utility.yul\":31362:31403   */\n      tag_395\n      jump\t// in\n    tag_794:\n        /* \"#utility.yul\":31345:31403   */\n      swap1\n      pop\n        /* \"#utility.yul\":31417:31495   */\n      tag_795\n        /* \"#utility.yul\":31481:31494   */\n      dup2\n        /* \"#utility.yul\":31469:31479   */\n      dup5\n        /* \"#utility.yul\":31417:31495   */\n      tag_400\n      jump\t// in\n    tag_795:\n        /* \"#utility.yul\":31179:31506   */\n      pop\n      pop\n      pop\n        /* \"#utility.yul\":30710:31513   */\n      pop\n      pop\n      jump\t// out\n        /* \"#utility.yul\":31519:31772   */\n    tag_402:\n        /* \"#utility.yul\":31654:31766   */\n      tag_797\n        /* \"#utility.yul\":31758:31765   */\n      dup3\n        /* \"#utility.yul\":31752:31756   */\n      dup3\n        /* \"#utility.yul\":31654:31766   */\n      tag_401\n      jump\t// in\n    tag_797:\n        /* \"#utility.yul\":31519:31772   */\n      pop\n      pop\n      jump\t// out\n        /* \"#utility.yul\":31778:32717   */\n    tag_403:\n        /* \"#utility.yul\":31976:32063   */\n      tag_799\n        /* \"#utility.yul\":32059:32062   */\n      dup4\n        /* \"#utility.yul\":32052:32057   */\n      dup4\n        /* \"#utility.yul\":31976:32063   */\n      tag_387\n      jump\t// in\n    tag_799:\n        /* \"#utility.yul\":32073:32152   */\n      tag_800\n        /* \"#utility.yul\":32145:32151   */\n      dup2\n        /* \"#utility.yul\":32139:32143   */\n      dup4\n        /* \"#utility.yul\":32073:32152   */\n      tag_386\n      jump\t// in\n    tag_800:\n        /* \"#utility.yul\":32176:32260   */\n      tag_801\n        /* \"#utility.yul\":32254:32259   */\n      dup4\n        /* \"#utility.yul\":32176:32260   */\n      tag_375\n      jump\t// in\n    tag_801:\n        /* \"#utility.yul\":32289:32362   */\n      tag_802\n        /* \"#utility.yul\":32357:32361   */\n      dup4\n        /* \"#utility.yul\":32289:32362   */\n      tag_380\n      jump\t// in\n    tag_802:\n        /* \"#utility.yul\":32387:32388   */\n      0x00\n        /* \"#utility.yul\":32372:32711   */\n    tag_803:\n        /* \"#utility.yul\":32397:32403   */\n      dup4\n        /* \"#utility.yul\":32394:32395   */\n      dup2\n        /* \"#utility.yul\":32391:32404   */\n      lt\n        /* \"#utility.yul\":32372:32711   */\n      iszero\n      tag_805\n      jumpi\n        /* \"#utility.yul\":32469:32475   */\n      dup3\n        /* \"#utility.yul\":32489:32614   */\n      tag_806\n        /* \"#utility.yul\":32602:32613   */\n      dup2\n        /* \"#utility.yul\":32589:32600   */\n      dup5\n        /* \"#utility.yul\":32489:32614   */\n      tag_402\n      jump\t// in\n    tag_806:\n        /* \"#utility.yul\":32650:32652   */\n      0x40\n        /* \"#utility.yul\":32642:32648   */\n      dup5\n        /* \"#utility.yul\":32638:32653   */\n      add\n        /* \"#utility.yul\":32628:32653   */\n      swap4\n      pop\n        /* \"#utility.yul\":32699:32700   */\n      0x01\n        /* \"#utility.yul\":32686:32697   */\n      dup4\n        /* \"#utility.yul\":32682:32701   */\n      add\n        /* \"#utility.yul\":32667:32701   */\n      swap3\n      pop\n        /* \"#utility.yul\":32422:32711   */\n      pop\n        /* \"#utility.yul\":32418:32419   */\n      0x01\n        /* \"#utility.yul\":32415:32416   */\n      dup2\n        /* \"#utility.yul\":32411:32420   */\n      add\n        /* \"#utility.yul\":32406:32420   */\n      swap1\n      pop\n        /* \"#utility.yul\":32372:32711   */\n      jump(tag_803)\n    tag_805:\n        /* \"#utility.yul\":32376:32390   */\n      pop\n        /* \"#utility.yul\":31951:32717   */\n      pop\n      pop\n      pop\n        /* \"#utility.yul\":31778:32717   */\n      pop\n      pop\n      pop\n      jump\t// out\n        /* \"#utility.yul\":32723:33091   */\n    tag_404:\n        /* \"#utility.yul\":32916:33085   */\n      tag_808\n        /* \"#utility.yul\":33077:33084   */\n      dup4\n        /* \"#utility.yul\":33068:33075   */\n      dup4\n        /* \"#utility.yul\":33062:33066   */\n      dup4\n        /* \"#utility.yul\":32916:33085   */\n      tag_403\n      jump\t// in\n    tag_808:\n        /* \"#utility.yul\":32723:33091   */\n      pop\n      pop\n      pop\n      jump\t// out\n        /* \"#utility.yul\":33097:34436   */\n    tag_405:\n        /* \"#utility.yul\":33267:33268   */\n      0x00\n        /* \"#utility.yul\":33261:33265   */\n      dup2\n        /* \"#utility.yul\":33257:33269   */\n      add\n        /* \"#utility.yul\":33313:33314   */\n      0x00\n        /* \"#utility.yul\":33306:33311   */\n      dup4\n        /* \"#utility.yul\":33302:33315   */\n      add\n        /* \"#utility.yul\":33378:33441   */\n      tag_810\n        /* \"#utility.yul\":33428:33440   */\n      dup2\n        /* \"#utility.yul\":33421:33426   */\n      dup6\n        /* \"#utility.yul\":33378:33441   */\n      tag_79\n      jump\t// in\n    tag_810:\n        /* \"#utility.yul\":33455:33568   */\n      tag_811\n        /* \"#utility.yul\":33554:33567   */\n      dup2\n        /* \"#utility.yul\":33539:33552   */\n      dup4\n        /* \"#utility.yul\":33527:33537   */\n      dup7\n        /* \"#utility.yul\":33455:33568   */\n      tag_374\n      jump\t// in\n    tag_811:\n        /* \"#utility.yul\":33224:33579   */\n      pop\n      pop\n      pop\n      pop\n        /* \"#utility.yul\":33632:33633   */\n      0x01\n        /* \"#utility.yul\":33626:33630   */\n      dup2\n        /* \"#utility.yul\":33622:33634   */\n      add\n        /* \"#utility.yul\":33678:33680   */\n      0x20\n        /* \"#utility.yul\":33671:33676   */\n      dup4\n        /* \"#utility.yul\":33667:33681   */\n      add\n        /* \"#utility.yul\":33744:33807   */\n      tag_812\n        /* \"#utility.yul\":33794:33806   */\n      dup2\n        /* \"#utility.yul\":33787:33792   */\n      dup6\n        /* \"#utility.yul\":33744:33807   */\n      tag_79\n      jump\t// in\n    tag_812:\n        /* \"#utility.yul\":33821:33934   */\n      tag_813\n        /* \"#utility.yul\":33920:33933   */\n      dup2\n        /* \"#utility.yul\":33905:33918   */\n      dup4\n        /* \"#utility.yul\":33893:33903   */\n      dup7\n        /* \"#utility.yul\":33821:33934   */\n      tag_374\n      jump\t// in\n    tag_813:\n        /* \"#utility.yul\":33589:33945   */\n      pop\n      pop\n      pop\n      pop\n        /* \"#utility.yul\":33998:33999   */\n      0x02\n        /* \"#utility.yul\":33992:33996   */\n      dup2\n        /* \"#utility.yul\":33988:34000   */\n      add\n        /* \"#utility.yul\":34044:34046   */\n      0x40\n        /* \"#utility.yul\":34037:34042   */\n      dup4\n        /* \"#utility.yul\":34033:34047   */\n      add\n        /* \"#utility.yul\":34110:34214   */\n      tag_814\n        /* \"#utility.yul\":34201:34213   */\n      dup2\n        /* \"#utility.yul\":34194:34199   */\n      dup6\n        /* \"#utility.yul\":34110:34214   */\n      tag_83\n      jump\t// in\n    tag_814:\n        /* \"#utility.yul\":34228:34418   */\n      tag_815\n        /* \"#utility.yul\":34404:34417   */\n      dup2\n        /* \"#utility.yul\":34389:34402   */\n      dup4\n        /* \"#utility.yul\":34377:34387   */\n      dup7\n        /* \"#utility.yul\":34228:34418   */\n      tag_404\n      jump\t// in\n    tag_815:\n        /* \"#utility.yul\":33955:34429   */\n      pop\n      pop\n      pop\n      pop\n        /* \"#utility.yul\":33097:34436   */\n      pop\n      pop\n      jump\t// out\n        /* \"#utility.yul\":34442:34687   */\n    tag_92:\n        /* \"#utility.yul\":34573:34681   */\n      tag_817\n        /* \"#utility.yul\":34673:34680   */\n      dup3\n        /* \"#utility.yul\":34667:34671   */\n      dup3\n        /* \"#utility.yul\":34573:34681   */\n      tag_405\n      jump\t// in\n    tag_817:\n        /* \"#utility.yul\":34442:34687   */\n      pop\n      pop\n      jump\t// out\n        /* \"#utility.yul\":34693:34841   */\n    tag_406:\n        /* \"#utility.yul\":34795:34806   */\n      0x00\n        /* \"#utility.yul\":34832:34835   */\n      dup2\n        /* \"#utility.yul\":34817:34835   */\n      swap1\n      pop\n        /* \"#utility.yul\":34693:34841   */\n      swap3\n      swap2\n      pop\n      pop\n      jump\t// out\n        /* \"#utility.yul\":34871:35201   */\n    tag_407:\n        /* \"#utility.yul\":34987:34990   */\n      0x00\n        /* \"#utility.yul\":35008:35097   */\n      tag_820\n        /* \"#utility.yul\":35090:35096   */\n      dup4\n        /* \"#utility.yul\":35085:35088   */\n      dup6\n        /* \"#utility.yul\":35008:35097   */\n      tag_406\n      jump\t// in\n    tag_820:\n        /* \"#utility.yul\":35001:35097   */\n      swap4\n      pop\n        /* \"#utility.yul\":35107:35163   */\n      tag_821\n        /* \"#utility.yul\":35156:35162   */\n      dup4\n        /* \"#utility.yul\":35151:35154   */\n      dup6\n        /* \"#utility.yul\":35144:35149   */\n      dup5\n        /* \"#utility.yul\":35107:35163   */\n      tag_307\n      jump\t// in\n    tag_821:\n        /* \"#utility.yul\":35188:35194   */\n      dup3\n        /* \"#utility.yul\":35183:35186   */\n      dup5\n        /* \"#utility.yul\":35179:35195   */\n      add\n        /* \"#utility.yul\":35172:35195   */\n      swap1\n      pop\n        /* \"#utility.yul\":34871:35201   */\n      swap4\n      swap3\n      pop\n      pop\n      pop\n      jump\t// out\n        /* \"#utility.yul\":35207:35502   */\n    tag_95:\n        /* \"#utility.yul\":35349:35352   */\n      0x00\n        /* \"#utility.yul\":35371:35476   */\n      tag_823\n        /* \"#utility.yul\":35472:35475   */\n      dup3\n        /* \"#utility.yul\":35463:35469   */\n      dup5\n        /* \"#utility.yul\":35455:35461   */\n      dup7\n        /* \"#utility.yul\":35371:35476   */\n      tag_407\n      jump\t// in\n    tag_823:\n        /* \"#utility.yul\":35364:35476   */\n      swap2\n      pop\n        /* \"#utility.yul\":35493:35496   */\n      dup2\n        /* \"#utility.yul\":35486:35496   */\n      swap1\n      pop\n        /* \"#utility.yul\":35207:35502   */\n      swap4\n      swap3\n      pop\n      pop\n      pop\n      jump\t// out\n        /* \"#utility.yul\":35508:35625   */\n    tag_408:\n        /* \"#utility.yul\":35617:35618   */\n      0x00\n        /* \"#utility.yul\":35614:35615   */\n      0x00\n        /* \"#utility.yul\":35607:35619   */\n      revert\n        /* \"#utility.yul\":35631:35748   */\n    tag_409:\n        /* \"#utility.yul\":35740:35741   */\n      0x00\n        /* \"#utility.yul\":35737:35738   */\n      0x00\n        /* \"#utility.yul\":35730:35742   */\n      revert\n        /* \"#utility.yul\":35754:35871   */\n    tag_410:\n        /* \"#utility.yul\":35863:35864   */\n      0x00\n        /* \"#utility.yul\":35860:35861   */\n      0x00\n        /* \"#utility.yul\":35853:35865   */\n      revert\n        /* \"#utility.yul\":35877:36589   */\n    tag_411:\n        /* \"#utility.yul\":35942:35947   */\n      0x00\n        /* \"#utility.yul\":35949:35955   */\n      0x00\n        /* \"#utility.yul\":36005:36008   */\n      dup4\n        /* \"#utility.yul\":35992:36009   */\n      calldataload\n        /* \"#utility.yul\":36097:36098   */\n      0x01\n        /* \"#utility.yul\":36091:36095   */\n      0x20\n        /* \"#utility.yul\":36087:36099   */\n      sub\n        /* \"#utility.yul\":36076:36084   */\n      dup5\n        /* \"#utility.yul\":36060:36074   */\n      calldatasize\n        /* \"#utility.yul\":36056:36085   */\n      sub\n        /* \"#utility.yul\":36052:36100   */\n      sub\n        /* \"#utility.yul\":36032:36050   */\n      dup2\n        /* \"#utility.yul\":36028:36101   */\n      slt\n        /* \"#utility.yul\":36018:36186   */\n      tag_828\n      jumpi\n        /* \"#utility.yul\":36105:36184   */\n      tag_829\n      tag_410\n      jump\t// in\n    tag_829:\n        /* \"#utility.yul\":36018:36186   */\n    tag_828:\n        /* \"#utility.yul\":36228:36236   */\n      dup4\n        /* \"#utility.yul\":36208:36226   */\n      dup2\n        /* \"#utility.yul\":36204:36237   */\n      add\n        /* \"#utility.yul\":36195:36237   */\n      swap3\n      pop\n        /* \"#utility.yul\":36270:36275   */\n      dup3\n        /* \"#utility.yul\":36257:36276   */\n      calldataload\n        /* \"#utility.yul\":36247:36276   */\n      swap2\n      pop\n        /* \"#utility.yul\":36305:36309   */\n      0x20\n        /* \"#utility.yul\":36298:36303   */\n      dup4\n        /* \"#utility.yul\":36294:36310   */\n      add\n        /* \"#utility.yul\":36285:36310   */\n      swap3\n      pop\n        /* \"#utility.yul\":36333:36351   */\n      0xffffffffffffffff\n        /* \"#utility.yul\":36325:36331   */\n      dup3\n        /* \"#utility.yul\":36322:36352   */\n      gt\n        /* \"#utility.yul\":36319:36436   */\n      iszero\n      tag_830\n      jumpi\n        /* \"#utility.yul\":36355:36434   */\n      tag_831\n      tag_408\n      jump\t// in\n    tag_831:\n        /* \"#utility.yul\":36319:36436   */\n    tag_830:\n        /* \"#utility.yul\":36491:36495   */\n      0x01\n        /* \"#utility.yul\":36483:36489   */\n      dup3\n        /* \"#utility.yul\":36479:36496   */\n      mul\n        /* \"#utility.yul\":36463:36477   */\n      calldatasize\n        /* \"#utility.yul\":36459:36497   */\n      sub\n        /* \"#utility.yul\":36452:36457   */\n      dup4\n        /* \"#utility.yul\":36448:36498   */\n      sgt\n        /* \"#utility.yul\":36445:36582   */\n      iszero\n      tag_832\n      jumpi\n        /* \"#utility.yul\":36501:36580   */\n      tag_833\n      tag_409\n      jump\t// in\n    tag_833:\n        /* \"#utility.yul\":36445:36582   */\n    tag_832:\n        /* \"#utility.yul\":35956:36589   */\n      pop\n        /* \"#utility.yul\":35877:36589   */\n      swap3\n      pop\n      swap3\n      swap1\n      pop\n      jump\t// out\n        /* \"#utility.yul\":36619:36916   */\n    tag_412:\n        /* \"#utility.yul\":36707:36710   */\n      0x00\n        /* \"#utility.yul\":36728:36789   */\n      tag_835\n        /* \"#utility.yul\":36782:36788   */\n      dup4\n        /* \"#utility.yul\":36777:36780   */\n      dup6\n        /* \"#utility.yul\":36728:36789   */\n      tag_320\n      jump\t// in\n    tag_835:\n        /* \"#utility.yul\":36721:36789   */\n      swap4\n      pop\n        /* \"#utility.yul\":36799:36855   */\n      tag_836\n        /* \"#utility.yul\":36848:36854   */\n      dup4\n        /* \"#utility.yul\":36843:36846   */\n      dup6\n        /* \"#utility.yul\":36836:36841   */\n      dup5\n        /* \"#utility.yul\":36799:36855   */\n      tag_307\n      jump\t// in\n    tag_836:\n        /* \"#utility.yul\":36880:36909   */\n      tag_837\n        /* \"#utility.yul\":36902:36908   */\n      dup4\n        /* \"#utility.yul\":36880:36909   */\n      tag_303\n      jump\t// in\n    tag_837:\n        /* \"#utility.yul\":36875:36878   */\n      dup5\n        /* \"#utility.yul\":36871:36910   */\n      add\n        /* \"#utility.yul\":36864:36910   */\n      swap1\n      pop\n        /* \"#utility.yul\":36619:36916   */\n      swap4\n      swap3\n      pop\n      pop\n      pop\n      jump\t// out\n        /* \"#utility.yul\":36922:37675   */\n    tag_413:\n        /* \"#utility.yul\":37028:37033   */\n      0x00\n        /* \"#utility.yul\":37035:37041   */\n      0x00\n        /* \"#utility.yul\":37091:37094   */\n      dup4\n        /* \"#utility.yul\":37078:37095   */\n      calldataload\n        /* \"#utility.yul\":37183:37184   */\n      0x01\n        /* \"#utility.yul\":37177:37181   */\n      0x20\n        /* \"#utility.yul\":37173:37185   */\n      sub\n        /* \"#utility.yul\":37162:37170   */\n      dup5\n        /* \"#utility.yul\":37146:37160   */\n      calldatasize\n        /* \"#utility.yul\":37142:37171   */\n      sub\n        /* \"#utility.yul\":37138:37186   */\n      sub\n        /* \"#utility.yul\":37118:37136   */\n      dup2\n        /* \"#utility.yul\":37114:37187   */\n      slt\n        /* \"#utility.yul\":37104:37272   */\n      tag_839\n      jumpi\n        /* \"#utility.yul\":37191:37270   */\n      tag_840\n      tag_410\n      jump\t// in\n    tag_840:\n        /* \"#utility.yul\":37104:37272   */\n    tag_839:\n        /* \"#utility.yul\":37314:37322   */\n      dup4\n        /* \"#utility.yul\":37294:37312   */\n      dup2\n        /* \"#utility.yul\":37290:37323   */\n      add\n        /* \"#utility.yul\":37281:37323   */\n      swap3\n      pop\n        /* \"#utility.yul\":37356:37361   */\n      dup3\n        /* \"#utility.yul\":37343:37362   */\n      calldataload\n        /* \"#utility.yul\":37333:37362   */\n      swap2\n      pop\n        /* \"#utility.yul\":37391:37395   */\n      0x20\n        /* \"#utility.yul\":37384:37389   */\n      dup4\n        /* \"#utility.yul\":37380:37396   */\n      add\n        /* \"#utility.yul\":37371:37396   */\n      swap3\n      pop\n        /* \"#utility.yul\":37419:37437   */\n      0xffffffffffffffff\n        /* \"#utility.yul\":37411:37417   */\n      dup3\n        /* \"#utility.yul\":37408:37438   */\n      gt\n        /* \"#utility.yul\":37405:37522   */\n      iszero\n      tag_841\n      jumpi\n        /* \"#utility.yul\":37441:37520   */\n      tag_842\n      tag_408\n      jump\t// in\n    tag_842:\n        /* \"#utility.yul\":37405:37522   */\n    tag_841:\n        /* \"#utility.yul\":37577:37581   */\n      0x40\n        /* \"#utility.yul\":37569:37575   */\n      dup3\n        /* \"#utility.yul\":37565:37582   */\n      mul\n        /* \"#utility.yul\":37549:37563   */\n      calldatasize\n        /* \"#utility.yul\":37545:37583   */\n      sub\n        /* \"#utility.yul\":37538:37543   */\n      dup4\n        /* \"#utility.yul\":37534:37584   */\n      sgt\n        /* \"#utility.yul\":37531:37668   */\n      iszero\n      tag_843\n      jumpi\n        /* \"#utility.yul\":37587:37666   */\n      tag_844\n      tag_409\n      jump\t// in\n    tag_844:\n        /* \"#utility.yul\":37531:37668   */\n    tag_843:\n        /* \"#utility.yul\":37042:37675   */\n      pop\n        /* \"#utility.yul\":36922:37675   */\n      swap3\n      pop\n      swap3\n      swap1\n      pop\n      jump\t// out\n        /* \"#utility.yul\":37681:37803   */\n    tag_414:\n        /* \"#utility.yul\":37733:37738   */\n      0x00\n        /* \"#utility.yul\":37758:37797   */\n      tag_846\n        /* \"#utility.yul\":37793:37795   */\n      0x20\n        /* \"#utility.yul\":37788:37791   */\n      dup5\n        /* \"#utility.yul\":37784:37796   */\n      add\n        /* \"#utility.yul\":37779:37782   */\n      dup5\n        /* \"#utility.yul\":37758:37797   */\n      tag_345\n      jump\t// in\n    tag_846:\n        /* \"#utility.yul\":37749:37797   */\n      swap1\n      pop\n        /* \"#utility.yul\":37681:37803   */\n      swap3\n      swap2\n      pop\n      pop\n      jump\t// out\n        /* \"#utility.yul\":37809:37946   */\n    tag_415:\n        /* \"#utility.yul\":37854:37859   */\n      0x00\n        /* \"#utility.yul\":37892:37898   */\n      dup2\n        /* \"#utility.yul\":37879:37899   */\n      calldataload\n        /* \"#utility.yul\":37870:37899   */\n      swap1\n      pop\n        /* \"#utility.yul\":37908:37940   */\n      tag_848\n        /* \"#utility.yul\":37934:37939   */\n      dup2\n        /* \"#utility.yul\":37908:37940   */\n      tag_394\n      jump\t// in\n    tag_848:\n        /* \"#utility.yul\":37809:37946   */\n      swap3\n      swap2\n      pop\n      pop\n      jump\t// out\n        /* \"#utility.yul\":37952:38072   */\n    tag_416:\n        /* \"#utility.yul\":38003:38008   */\n      0x00\n        /* \"#utility.yul\":38028:38066   */\n      tag_850\n        /* \"#utility.yul\":38062:38064   */\n      0x20\n        /* \"#utility.yul\":38057:38060   */\n      dup5\n        /* \"#utility.yul\":38053:38065   */\n      add\n        /* \"#utility.yul\":38048:38051   */\n      dup5\n        /* \"#utility.yul\":38028:38066   */\n      tag_415\n      jump\t// in\n    tag_850:\n        /* \"#utility.yul\":38019:38066   */\n      swap1\n      pop\n        /* \"#utility.yul\":37952:38072   */\n      swap3\n      swap2\n      pop\n      pop\n      jump\t// out\n        /* \"#utility.yul\":38118:38680   */\n    tag_417:\n        /* \"#utility.yul\":38255:38259   */\n      0x40\n        /* \"#utility.yul\":38250:38253   */\n      dup3\n        /* \"#utility.yul\":38246:38260   */\n      add\n        /* \"#utility.yul\":38333:38383   */\n      tag_852\n        /* \"#utility.yul\":38377:38381   */\n      0x00\n        /* \"#utility.yul\":38370:38375   */\n      dup4\n        /* \"#utility.yul\":38366:38382   */\n      add\n        /* \"#utility.yul\":38359:38364   */\n      dup4\n        /* \"#utility.yul\":38333:38383   */\n      tag_414\n      jump\t// in\n    tag_852:\n        /* \"#utility.yul\":38396:38459   */\n      tag_853\n        /* \"#utility.yul\":38453:38457   */\n      0x00\n        /* \"#utility.yul\":38448:38451   */\n      dup6\n        /* \"#utility.yul\":38444:38458   */\n      add\n        /* \"#utility.yul\":38430:38442   */\n      dup3\n        /* \"#utility.yul\":38396:38459   */\n      tag_326\n      jump\t// in\n    tag_853:\n        /* \"#utility.yul\":38270:38469   */\n      pop\n        /* \"#utility.yul\":38540:38589   */\n      tag_854\n        /* \"#utility.yul\":38583:38587   */\n      0x20\n        /* \"#utility.yul\":38576:38581   */\n      dup4\n        /* \"#utility.yul\":38572:38588   */\n      add\n        /* \"#utility.yul\":38565:38570   */\n      dup4\n        /* \"#utility.yul\":38540:38589   */\n      tag_416\n      jump\t// in\n    tag_854:\n        /* \"#utility.yul\":38602:38663   */\n      tag_855\n        /* \"#utility.yul\":38657:38661   */\n      0x20\n        /* \"#utility.yul\":38652:38655   */\n      dup6\n        /* \"#utility.yul\":38648:38662   */\n      add\n        /* \"#utility.yul\":38634:38646   */\n      dup3\n        /* \"#utility.yul\":38602:38663   */\n      tag_328\n      jump\t// in\n    tag_855:\n        /* \"#utility.yul\":38479:38673   */\n      pop\n        /* \"#utility.yul\":38224:38680   */\n      pop\n        /* \"#utility.yul\":38118:38680   */\n      pop\n      pop\n      jump\t// out\n        /* \"#utility.yul\":38686:38965   */\n    tag_418:\n        /* \"#utility.yul\":38805:38815   */\n      0x00\n        /* \"#utility.yul\":38826:38922   */\n      tag_857\n        /* \"#utility.yul\":38918:38921   */\n      dup4\n        /* \"#utility.yul\":38910:38916   */\n      dup4\n        /* \"#utility.yul\":38826:38922   */\n      tag_417\n      jump\t// in\n    tag_857:\n        /* \"#utility.yul\":38954:38958   */\n      0x40\n        /* \"#utility.yul\":38949:38952   */\n      dup4\n        /* \"#utility.yul\":38945:38959   */\n      add\n        /* \"#utility.yul\":38931:38959   */\n      swap1\n      pop\n        /* \"#utility.yul\":38686:38965   */\n      swap3\n      swap2\n      pop\n      pop\n      jump\t// out\n        /* \"#utility.yul\":38971:39083   */\n    tag_419:\n        /* \"#utility.yul\":39049:39054   */\n      0x00\n        /* \"#utility.yul\":39074:39077   */\n      dup3\n        /* \"#utility.yul\":39065:39077   */\n      swap1\n      pop\n        /* \"#utility.yul\":38971:39083   */\n      swap3\n      swap2\n      pop\n      pop\n      jump\t// out\n        /* \"#utility.yul\":39089:39230   */\n    tag_420:\n        /* \"#utility.yul\":39187:39191   */\n      0x00\n        /* \"#utility.yul\":39219:39223   */\n      0x40\n        /* \"#utility.yul\":39214:39217   */\n      dup3\n        /* \"#utility.yul\":39210:39224   */\n      add\n        /* \"#utility.yul\":39202:39224   */\n      swap1\n      pop\n        /* \"#utility.yul\":39089:39230   */\n      swap2\n      swap1\n      pop\n      jump\t// out\n        /* \"#utility.yul\":39280:40161   */\n    tag_421:\n        /* \"#utility.yul\":39449:39452   */\n      0x00\n        /* \"#utility.yul\":39472:39572   */\n      tag_861\n        /* \"#utility.yul\":39565:39571   */\n      dup4\n        /* \"#utility.yul\":39560:39563   */\n      dup6\n        /* \"#utility.yul\":39472:39572   */\n      tag_324\n      jump\t// in\n    tag_861:\n        /* \"#utility.yul\":39465:39572   */\n      swap4\n      pop\n        /* \"#utility.yul\":39596:39680   */\n      tag_862\n        /* \"#utility.yul\":39674:39679   */\n      dup3\n        /* \"#utility.yul\":39596:39680   */\n      tag_375\n      jump\t// in\n    tag_862:\n        /* \"#utility.yul\":39703:39710   */\n      dup1\n        /* \"#utility.yul\":39734:39735   */\n      0x00\n        /* \"#utility.yul\":39719:40136   */\n    tag_863:\n        /* \"#utility.yul\":39744:39750   */\n      dup6\n        /* \"#utility.yul\":39741:39742   */\n      dup2\n        /* \"#utility.yul\":39738:39751   */\n      lt\n        /* \"#utility.yul\":39719:40136   */\n      iszero\n      tag_865\n      jumpi\n        /* \"#utility.yul\":39814:39882   */\n      tag_866\n        /* \"#utility.yul\":39875:39881   */\n      dup3\n        /* \"#utility.yul\":39866:39873   */\n      dup5\n        /* \"#utility.yul\":39814:39882   */\n      tag_419\n      jump\t// in\n    tag_866:\n        /* \"#utility.yul\":39902:40015   */\n      tag_867\n        /* \"#utility.yul\":40011:40014   */\n      dup9\n        /* \"#utility.yul\":39996:40009   */\n      dup3\n        /* \"#utility.yul\":39902:40015   */\n      tag_418\n      jump\t// in\n    tag_867:\n        /* \"#utility.yul\":39895:40015   */\n      swap8\n      pop\n        /* \"#utility.yul\":40038:40126   */\n      tag_868\n        /* \"#utility.yul\":40119:40125   */\n      dup4\n        /* \"#utility.yul\":40038:40126   */\n      tag_420\n      jump\t// in\n    tag_868:\n        /* \"#utility.yul\":40028:40126   */\n      swap3\n      pop\n        /* \"#utility.yul\":39779:40136   */\n      pop\n        /* \"#utility.yul\":39766:39767   */\n      0x01\n        /* \"#utility.yul\":39763:39764   */\n      dup2\n        /* \"#utility.yul\":39759:39768   */\n      add\n        /* \"#utility.yul\":39754:39768   */\n      swap1\n      pop\n        /* \"#utility.yul\":39719:40136   */\n      jump(tag_863)\n    tag_865:\n        /* \"#utility.yul\":39723:39737   */\n      pop\n        /* \"#utility.yul\":40152:40155   */\n      dup6\n        /* \"#utility.yul\":40145:40155   */\n      swap3\n      pop\n        /* \"#utility.yul\":39454:40161   */\n      pop\n      pop\n        /* \"#utility.yul\":39280:40161   */\n      swap4\n      swap3\n      pop\n      pop\n      pop\n      jump\t// out\n        /* \"#utility.yul\":40203:41455   */\n    tag_422:\n        /* \"#utility.yul\":40318:40321   */\n      0x00\n        /* \"#utility.yul\":40354:40358   */\n      0x60\n        /* \"#utility.yul\":40349:40352   */\n      dup4\n        /* \"#utility.yul\":40345:40359   */\n      add\n        /* \"#utility.yul\":40438:40500   */\n      tag_870\n        /* \"#utility.yul\":40494:40498   */\n      0x00\n        /* \"#utility.yul\":40487:40492   */\n      dup5\n        /* \"#utility.yul\":40483:40499   */\n      add\n        /* \"#utility.yul\":40476:40481   */\n      dup5\n        /* \"#utility.yul\":40438:40500   */\n      tag_411\n      jump\t// in\n    tag_870:\n        /* \"#utility.yul\":40547:40550   */\n      dup6\n        /* \"#utility.yul\":40541:40545   */\n      dup4\n        /* \"#utility.yul\":40537:40551   */\n      sub\n        /* \"#utility.yul\":40530:40534   */\n      0x00\n        /* \"#utility.yul\":40525:40528   */\n      dup8\n        /* \"#utility.yul\":40521:40535   */\n      add\n        /* \"#utility.yul\":40514:40552   */\n      mstore\n        /* \"#utility.yul\":40573:40662   */\n      tag_871\n        /* \"#utility.yul\":40657:40661   */\n      dup4\n        /* \"#utility.yul\":40643:40655   */\n      dup3\n        /* \"#utility.yul\":40629:40641   */\n      dup5\n        /* \"#utility.yul\":40573:40662   */\n      tag_412\n      jump\t// in\n    tag_871:\n        /* \"#utility.yul\":40565:40662   */\n      swap3\n      pop\n        /* \"#utility.yul\":40369:40673   */\n      pop\n      pop\n        /* \"#utility.yul\":40754:40816   */\n      tag_872\n        /* \"#utility.yul\":40810:40814   */\n      0x20\n        /* \"#utility.yul\":40803:40808   */\n      dup5\n        /* \"#utility.yul\":40799:40815   */\n      add\n        /* \"#utility.yul\":40792:40797   */\n      dup5\n        /* \"#utility.yul\":40754:40816   */\n      tag_411\n      jump\t// in\n    tag_872:\n        /* \"#utility.yul\":40863:40866   */\n      dup6\n        /* \"#utility.yul\":40857:40861   */\n      dup4\n        /* \"#utility.yul\":40853:40867   */\n      sub\n        /* \"#utility.yul\":40846:40850   */\n      0x20\n        /* \"#utility.yul\":40841:40844   */\n      dup8\n        /* \"#utility.yul\":40837:40851   */\n      add\n        /* \"#utility.yul\":40830:40868   */\n      mstore\n        /* \"#utility.yul\":40889:40978   */\n      tag_873\n        /* \"#utility.yul\":40973:40977   */\n      dup4\n        /* \"#utility.yul\":40959:40971   */\n      dup3\n        /* \"#utility.yul\":40945:40957   */\n      dup5\n        /* \"#utility.yul\":40889:40978   */\n      tag_412\n      jump\t// in\n    tag_873:\n        /* \"#utility.yul\":40881:40978   */\n      swap3\n      pop\n        /* \"#utility.yul\":40683:40989   */\n      pop\n      pop\n        /* \"#utility.yul\":41072:41175   */\n      tag_874\n        /* \"#utility.yul\":41169:41173   */\n      0x40\n        /* \"#utility.yul\":41162:41167   */\n      dup5\n        /* \"#utility.yul\":41158:41174   */\n      add\n        /* \"#utility.yul\":41151:41156   */\n      dup5\n        /* \"#utility.yul\":41072:41175   */\n      tag_413\n      jump\t// in\n    tag_874:\n        /* \"#utility.yul\":41222:41225   */\n      dup6\n        /* \"#utility.yul\":41216:41220   */\n      dup4\n        /* \"#utility.yul\":41212:41226   */\n      sub\n        /* \"#utility.yul\":41205:41209   */\n      0x40\n        /* \"#utility.yul\":41200:41203   */\n      dup8\n        /* \"#utility.yul\":41196:41210   */\n      add\n        /* \"#utility.yul\":41189:41227   */\n      mstore\n        /* \"#utility.yul\":41248:41417   */\n      tag_875\n        /* \"#utility.yul\":41412:41416   */\n      dup4\n        /* \"#utility.yul\":41398:41410   */\n      dup3\n        /* \"#utility.yul\":41384:41396   */\n      dup5\n        /* \"#utility.yul\":41248:41417   */\n      tag_421\n      jump\t// in\n    tag_875:\n        /* \"#utility.yul\":41240:41417   */\n      swap3\n      pop\n        /* \"#utility.yul\":40999:41428   */\n      pop\n      pop\n        /* \"#utility.yul\":41445:41449   */\n      dup1\n        /* \"#utility.yul\":41438:41449   */\n      swap2\n      pop\n        /* \"#utility.yul\":40323:41455   */\n      pop\n        /* \"#utility.yul\":40203:41455   */\n      swap3\n      swap2\n      pop\n      pop\n      jump\t// out\n        /* \"#utility.yul\":41461:41826   */\n    tag_97:\n        /* \"#utility.yul\":41600:41604   */\n      0x00\n        /* \"#utility.yul\":41638:41640   */\n      0x20\n        /* \"#utility.yul\":41627:41636   */\n      dup3\n        /* \"#utility.yul\":41623:41641   */\n      add\n        /* \"#utility.yul\":41615:41641   */\n      swap1\n      pop\n        /* \"#utility.yul\":41687:41696   */\n      dup2\n        /* \"#utility.yul\":41681:41685   */\n      dup2\n        /* \"#utility.yul\":41677:41697   */\n      sub\n        /* \"#utility.yul\":41673:41674   */\n      0x00\n        /* \"#utility.yul\":41662:41671   */\n      dup4\n        /* \"#utility.yul\":41658:41675   */\n      add\n        /* \"#utility.yul\":41651:41698   */\n      mstore\n        /* \"#utility.yul\":41715:41819   */\n      tag_877\n        /* \"#utility.yul\":41814:41818   */\n      dup2\n        /* \"#utility.yul\":41805:41811   */\n      dup5\n        /* \"#utility.yul\":41715:41819   */\n      tag_422\n      jump\t// in\n    tag_877:\n        /* \"#utility.yul\":41707:41819   */\n      swap1\n      pop\n        /* \"#utility.yul\":41461:41826   */\n      swap3\n      swap2\n      pop\n      pop\n      jump\t// out\n        /* \"#utility.yul\":41832:41998   */\n    tag_423:\n        /* \"#utility.yul\":41972:41990   */\n      0x496e76616c696420696e64657820696400000000000000000000000000000000\n        /* \"#utility.yul\":41968:41969   */\n      0x00\n        /* \"#utility.yul\":41960:41966   */\n      dup3\n        /* \"#utility.yul\":41956:41970   */\n      add\n        /* \"#utility.yul\":41949:41991   */\n      mstore\n        /* \"#utility.yul\":41832:41998   */\n      pop\n      jump\t// out\n        /* \"#utility.yul\":42004:42370   */\n    tag_424:\n        /* \"#utility.yul\":42146:42149   */\n      0x00\n        /* \"#utility.yul\":42167:42234   */\n      tag_880\n        /* \"#utility.yul\":42231:42233   */\n      0x10\n        /* \"#utility.yul\":42226:42229   */\n      dup4\n        /* \"#utility.yul\":42167:42234   */\n      tag_346\n      jump\t// in\n    tag_880:\n        /* \"#utility.yul\":42160:42234   */\n      swap2\n      pop\n        /* \"#utility.yul\":42243:42336   */\n      tag_881\n        /* \"#utility.yul\":42332:42335   */\n      dup3\n        /* \"#utility.yul\":42243:42336   */\n      tag_423\n      jump\t// in\n    tag_881:\n        /* \"#utility.yul\":42361:42363   */\n      0x20\n        /* \"#utility.yul\":42356:42359   */\n      dup3\n        /* \"#utility.yul\":42352:42364   */\n      add\n        /* \"#utility.yul\":42345:42364   */\n      swap1\n      pop\n        /* \"#utility.yul\":42004:42370   */\n      swap2\n      swap1\n      pop\n      jump\t// out\n        /* \"#utility.yul\":42376:42795   */\n    tag_104:\n        /* \"#utility.yul\":42542:42546   */\n      0x00\n        /* \"#utility.yul\":42580:42582   */\n      0x20\n        /* \"#utility.yul\":42569:42578   */\n      dup3\n        /* \"#utility.yul\":42565:42583   */\n      add\n        /* \"#utility.yul\":42557:42583   */\n      swap1\n      pop\n        /* \"#utility.yul\":42629:42638   */\n      dup2\n        /* \"#utility.yul\":42623:42627   */\n      dup2\n        /* \"#utility.yul\":42619:42639   */\n      sub\n        /* \"#utility.yul\":42615:42616   */\n      0x00\n        /* \"#utility.yul\":42604:42613   */\n      dup4\n        /* \"#utility.yul\":42600:42617   */\n      add\n        /* \"#utility.yul\":42593:42640   */\n      mstore\n        /* \"#utility.yul\":42657:42788   */\n      tag_883\n        /* \"#utility.yul\":42783:42787   */\n      dup2\n        /* \"#utility.yul\":42657:42788   */\n      tag_424\n      jump\t// in\n    tag_883:\n        /* \"#utility.yul\":42649:42788   */\n      swap1\n      pop\n        /* \"#utility.yul\":42376:42795   */\n      swap2\n      swap1\n      pop\n      jump\t// out\n        /* \"#utility.yul\":42801:42981   */\n    tag_109:\n        /* \"#utility.yul\":42849:42926   */\n      0x4e487b7100000000000000000000000000000000000000000000000000000000\n        /* \"#utility.yul\":42846:42847   */\n      0x00\n        /* \"#utility.yul\":42839:42927   */\n      mstore\n        /* \"#utility.yul\":42946:42950   */\n      0x32\n        /* \"#utility.yul\":42943:42944   */\n      0x04\n        /* \"#utility.yul\":42936:42951   */\n      mstore\n        /* \"#utility.yul\":42970:42974   */\n      0x24\n        /* \"#utility.yul\":42967:42968   */\n      0x00\n        /* \"#utility.yul\":42960:42975   */\n      revert\n        /* \"#utility.yul\":42987:43151   */\n    tag_425:\n        /* \"#utility.yul\":43127:43143   */\n      0x556e6b6e6f776e207469636b6572000000000000000000000000000000000000\n        /* \"#utility.yul\":43123:43124   */\n      0x00\n        /* \"#utility.yul\":43115:43121   */\n      dup3\n        /* \"#utility.yul\":43111:43125   */\n      add\n        /* \"#utility.yul\":43104:43144   */\n      mstore\n        /* \"#utility.yul\":42987:43151   */\n      pop\n      jump\t// out\n        /* \"#utility.yul\":43157:43523   */\n    tag_426:\n        /* \"#utility.yul\":43299:43302   */\n      0x00\n        /* \"#utility.yul\":43320:43387   */\n      tag_887\n        /* \"#utility.yul\":43384:43386   */\n      0x0e\n        /* \"#utility.yul\":43379:43382   */\n      dup4\n        /* \"#utility.yul\":43320:43387   */\n      tag_346\n      jump\t// in\n    tag_887:\n        /* \"#utility.yul\":43313:43387   */\n      swap2\n      pop\n        /* \"#utility.yul\":43396:43489   */\n      tag_888\n        /* \"#utility.yul\":43485:43488   */\n      dup3\n        /* \"#utility.yul\":43396:43489   */\n      tag_425\n      jump\t// in\n    tag_888:\n        /* \"#utility.yul\":43514:43516   */\n      0x20\n        /* \"#utility.yul\":43509:43512   */\n      dup3\n        /* \"#utility.yul\":43505:43517   */\n      add\n        /* \"#utility.yul\":43498:43517   */\n      swap1\n      pop\n        /* \"#utility.yul\":43157:43523   */\n      swap2\n      swap1\n      pop\n      jump\t// out\n        /* \"#utility.yul\":43529:43948   */\n    tag_134:\n        /* \"#utility.yul\":43695:43699   */\n      0x00\n        /* \"#utility.yul\":43733:43735   */\n      0x20\n        /* \"#utility.yul\":43722:43731   */\n      dup3\n        /* \"#utility.yul\":43718:43736   */\n      add\n        /* \"#utility.yul\":43710:43736   */\n      swap1\n      pop\n        /* \"#utility.yul\":43782:43791   */\n      dup2\n        /* \"#utility.yul\":43776:43780   */\n      dup2\n        /* \"#utility.yul\":43772:43792   */\n      sub\n        /* \"#utility.yul\":43768:43769   */\n      0x00\n        /* \"#utility.yul\":43757:43766   */\n      dup4\n        /* \"#utility.yul\":43753:43770   */\n      add\n        /* \"#utility.yul\":43746:43793   */\n      mstore\n        /* \"#utility.yul\":43810:43941   */\n      tag_890\n        /* \"#utility.yul\":43936:43940   */\n      dup2\n        /* \"#utility.yul\":43810:43941   */\n      tag_426\n      jump\t// in\n    tag_890:\n        /* \"#utility.yul\":43802:43941   */\n      swap1\n      pop\n        /* \"#utility.yul\":43529:43948   */\n      swap2\n      swap1\n      pop\n      jump\t// out\n        /* \"#utility.yul\":43954:44127   */\n    tag_427:\n        /* \"#utility.yul\":44094:44119   */\n      0x43616c6c6572206973206e6f7420746865206f776e6572000000000000000000\n        /* \"#utility.yul\":44090:44091   */\n      0x00\n        /* \"#utility.yul\":44082:44088   */\n      dup3\n        /* \"#utility.yul\":44078:44092   */\n      add\n        /* \"#utility.yul\":44071:44120   */\n      mstore\n        /* \"#utility.yul\":43954:44127   */\n      pop\n      jump\t// out\n        /* \"#utility.yul\":44133:44499   */\n    tag_428:\n        /* \"#utility.yul\":44275:44278   */\n      0x00\n        /* \"#utility.yul\":44296:44363   */\n      tag_893\n        /* \"#utility.yul\":44360:44362   */\n      0x17\n        /* \"#utility.yul\":44355:44358   */\n      dup4\n        /* \"#utility.yul\":44296:44363   */\n      tag_346\n      jump\t// in\n    tag_893:\n        /* \"#utility.yul\":44289:44363   */\n      swap2\n      pop\n        /* \"#utility.yul\":44372:44465   */\n      tag_894\n        /* \"#utility.yul\":44461:44464   */\n      dup3\n        /* \"#utility.yul\":44372:44465   */\n      tag_427\n      jump\t// in\n    tag_894:\n        /* \"#utility.yul\":44490:44492   */\n      0x20\n        /* \"#utility.yul\":44485:44488   */\n      dup3\n        /* \"#utility.yul\":44481:44493   */\n      add\n        /* \"#utility.yul\":44474:44493   */\n      swap1\n      pop\n        /* \"#utility.yul\":44133:44499   */\n      swap2\n      swap1\n      pop\n      jump\t// out\n        /* \"#utility.yul\":44505:44924   */\n    tag_142:\n        /* \"#utility.yul\":44671:44675   */\n      0x00\n        /* \"#utility.yul\":44709:44711   */\n      0x20\n        /* \"#utility.yul\":44698:44707   */\n      dup3\n        /* \"#utility.yul\":44694:44712   */\n      add\n        /* \"#utility.yul\":44686:44712   */\n      swap1\n      pop\n        /* \"#utility.yul\":44758:44767   */\n      dup2\n        /* \"#utility.yul\":44752:44756   */\n      dup2\n        /* \"#utility.yul\":44748:44768   */\n      sub\n        /* \"#utility.yul\":44744:44745   */\n      0x00\n        /* \"#utility.yul\":44733:44742   */\n      dup4\n        /* \"#utility.yul\":44729:44746   */\n      add\n        /* \"#utility.yul\":44722:44769   */\n      mstore\n        /* \"#utility.yul\":44786:44917   */\n      tag_896\n        /* \"#utility.yul\":44912:44916   */\n      dup2\n        /* \"#utility.yul\":44786:44917   */\n      tag_428\n      jump\t// in\n    tag_896:\n        /* \"#utility.yul\":44778:44917   */\n      swap1\n      pop\n        /* \"#utility.yul\":44505:44924   */\n      swap2\n      swap1\n      pop\n      jump\t// out\n        /* \"#utility.yul\":44930:45092   */\n    tag_429:\n        /* \"#utility.yul\":45070:45084   */\n      0x456d707479207469636b65720000000000000000000000000000000000000000\n        /* \"#utility.yul\":45066:45067   */\n      0x00\n        /* \"#utility.yul\":45058:45064   */\n      dup3\n        /* \"#utility.yul\":45054:45068   */\n      add\n        /* \"#utility.yul\":45047:45085   */\n      mstore\n        /* \"#utility.yul\":44930:45092   */\n      pop\n      jump\t// out\n        /* \"#utility.yul\":45098:45464   */\n    tag_430:\n        /* \"#utility.yul\":45240:45243   */\n      0x00\n        /* \"#utility.yul\":45261:45328   */\n      tag_899\n        /* \"#utility.yul\":45325:45327   */\n      0x0c\n        /* \"#utility.yul\":45320:45323   */\n      dup4\n        /* \"#utility.yul\":45261:45328   */\n      tag_346\n      jump\t// in\n    tag_899:\n        /* \"#utility.yul\":45254:45328   */\n      swap2\n      pop\n        /* \"#utility.yul\":45337:45430   */\n      tag_900\n        /* \"#utility.yul\":45426:45429   */\n      dup3\n        /* \"#utility.yul\":45337:45430   */\n      tag_429\n      jump\t// in\n    tag_900:\n        /* \"#utility.yul\":45455:45457   */\n      0x20\n        /* \"#utility.yul\":45450:45453   */\n      dup3\n        /* \"#utility.yul\":45446:45458   */\n      add\n        /* \"#utility.yul\":45439:45458   */\n      swap1\n      pop\n        /* \"#utility.yul\":45098:45464   */\n      swap2\n      swap1\n      pop\n      jump\t// out\n        /* \"#utility.yul\":45470:45889   */\n    tag_156:\n        /* \"#utility.yul\":45636:45640   */\n      0x00\n        /* \"#utility.yul\":45674:45676   */\n      0x20\n        /* \"#utility.yul\":45663:45672   */\n      dup3\n        /* \"#utility.yul\":45659:45677   */\n      add\n        /* \"#utility.yul\":45651:45677   */\n      swap1\n      pop\n        /* \"#utility.yul\":45723:45732   */\n      dup2\n        /* \"#utility.yul\":45717:45721   */\n      dup2\n        /* \"#utility.yul\":45713:45733   */\n      sub\n        /* \"#utility.yul\":45709:45710   */\n      0x00\n        /* \"#utility.yul\":45698:45707   */\n      dup4\n        /* \"#utility.yul\":45694:45711   */\n      add\n        /* \"#utility.yul\":45687:45734   */\n      mstore\n        /* \"#utility.yul\":45751:45882   */\n      tag_902\n        /* \"#utility.yul\":45877:45881   */\n      dup2\n        /* \"#utility.yul\":45751:45882   */\n      tag_430\n      jump\t// in\n    tag_902:\n        /* \"#utility.yul\":45743:45882   */\n      swap1\n      pop\n        /* \"#utility.yul\":45470:45889   */\n      swap2\n      swap1\n      pop\n      jump\t// out\n        /* \"#utility.yul\":45895:46066   */\n    tag_431:\n        /* \"#utility.yul\":46035:46058   */\n      0x5469636b657220616c7265616479206578697374730000000000000000000000\n        /* \"#utility.yul\":46031:46032   */\n      0x00\n        /* \"#utility.yul\":46023:46029   */\n      dup3\n        /* \"#utility.yul\":46019:46033   */\n      add\n        /* \"#utility.yul\":46012:46059   */\n      mstore\n        /* \"#utility.yul\":45895:46066   */\n      pop\n      jump\t// out\n        /* \"#utility.yul\":46072:46438   */\n    tag_432:\n        /* \"#utility.yul\":46214:46217   */\n      0x00\n        /* \"#utility.yul\":46235:46302   */\n      tag_905\n        /* \"#utility.yul\":46299:46301   */\n      0x15\n        /* \"#utility.yul\":46294:46297   */\n      dup4\n        /* \"#utility.yul\":46235:46302   */\n      tag_346\n      jump\t// in\n    tag_905:\n        /* \"#utility.yul\":46228:46302   */\n      swap2\n      pop\n        /* \"#utility.yul\":46311:46404   */\n      tag_906\n        /* \"#utility.yul\":46400:46403   */\n      dup3\n        /* \"#utility.yul\":46311:46404   */\n      tag_431\n      jump\t// in\n    tag_906:\n        /* \"#utility.yul\":46429:46431   */\n      0x20\n        /* \"#utility.yul\":46424:46427   */\n      dup3\n        /* \"#utility.yul\":46420:46432   */\n      add\n        /* \"#utility.yul\":46413:46432   */\n      swap1\n      pop\n        /* \"#utility.yul\":46072:46438   */\n      swap2\n      swap1\n      pop\n      jump\t// out\n        /* \"#utility.yul\":46444:46863   */\n    tag_160:\n        /* \"#utility.yul\":46610:46614   */\n      0x00\n        /* \"#utility.yul\":46648:46650   */\n      0x20\n        /* \"#utility.yul\":46637:46646   */\n      dup3\n        /* \"#utility.yul\":46633:46651   */\n      add\n        /* \"#utility.yul\":46625:46651   */\n      swap1\n      pop\n        /* \"#utility.yul\":46697:46706   */\n      dup2\n        /* \"#utility.yul\":46691:46695   */\n      dup2\n        /* \"#utility.yul\":46687:46707   */\n      sub\n        /* \"#utility.yul\":46683:46684   */\n      0x00\n        /* \"#utility.yul\":46672:46681   */\n      dup4\n        /* \"#utility.yul\":46668:46685   */\n      add\n        /* \"#utility.yul\":46661:46708   */\n      mstore\n        /* \"#utility.yul\":46725:46856   */\n      tag_908\n        /* \"#utility.yul\":46851:46855   */\n      dup2\n        /* \"#utility.yul\":46725:46856   */\n      tag_432\n      jump\t// in\n    tag_908:\n        /* \"#utility.yul\":46717:46856   */\n      swap1\n      pop\n        /* \"#utility.yul\":46444:46863   */\n      swap2\n      swap1\n      pop\n      jump\t// out\n        /* \"#utility.yul\":46869:47030   */\n    tag_433:\n        /* \"#utility.yul\":47009:47022   */\n      0x4e6f20686f6c64696e6773000000000000000000000000000000000000000000\n        /* \"#utility.yul\":47005:47006   */\n      0x00\n        /* \"#utility.yul\":46997:47003   */\n      dup3\n        /* \"#utility.yul\":46993:47007   */\n      add\n        /* \"#utility.yul\":46986:47023   */\n      mstore\n        /* \"#utility.yul\":46869:47030   */\n      pop\n      jump\t// out\n        /* \"#utility.yul\":47036:47402   */\n    tag_434:\n        /* \"#utility.yul\":47178:47181   */\n      0x00\n        /* \"#utility.yul\":47199:47266   */\n      tag_911\n        /* \"#utility.yul\":47263:47265   */\n      0x0b\n        /* \"#utility.yul\":47258:47261   */\n      dup4\n        /* \"#utility.yul\":47199:47266   */\n      tag_346\n      jump\t// in\n    tag_911:\n        /* \"#utility.yul\":47192:47266   */\n      swap2\n      pop\n        /* \"#utility.yul\":47275:47368   */\n      tag_912\n        /* \"#utility.yul\":47364:47367   */\n      dup3\n        /* \"#utility.yul\":47275:47368   */\n      tag_433\n      jump\t// in\n    tag_912:\n        /* \"#utility.yul\":47393:47395   */\n      0x20\n        /* \"#utility.yul\":47388:47391   */\n      dup3\n        /* \"#utility.yul\":47384:47396   */\n      add\n        /* \"#utility.yul\":47377:47396   */\n      swap1\n      pop\n        /* \"#utility.yul\":47036:47402   */\n      swap2\n      swap1\n      pop\n      jump\t// out\n        /* \"#utility.yul\":47408:47827   */\n    tag_164:\n        /* \"#utility.yul\":47574:47578   */\n      0x00\n        /* \"#utility.yul\":47612:47614   */\n      0x20\n        /* \"#utility.yul\":47601:47610   */\n      dup3\n        /* \"#utility.yul\":47597:47615   */\n      add\n        /* \"#utility.yul\":47589:47615   */\n      swap1\n      pop\n        /* \"#utility.yul\":47661:47670   */\n      dup2\n        /* \"#utility.yul\":47655:47659   */\n      dup2\n        /* \"#utility.yul\":47651:47671   */\n      sub\n        /* \"#utility.yul\":47647:47648   */\n      0x00\n        /* \"#utility.yul\":47636:47645   */\n      dup4\n        /* \"#utility.yul\":47632:47649   */\n      add\n        /* \"#utility.yul\":47625:47672   */\n      mstore\n        /* \"#utility.yul\":47689:47820   */\n      tag_914\n        /* \"#utility.yul\":47815:47819   */\n      dup2\n        /* \"#utility.yul\":47689:47820   */\n      tag_434\n      jump\t// in\n    tag_914:\n        /* \"#utility.yul\":47681:47820   */\n      swap1\n      pop\n        /* \"#utility.yul\":47408:47827   */\n      swap2\n      swap1\n      pop\n      jump\t// out\n        /* \"#utility.yul\":47833:48001   */\n    tag_435:\n        /* \"#utility.yul\":47973:47993   */\n      0x5a65726f20746f6b656e20616464726573730000000000000000000000000000\n        /* \"#utility.yul\":47969:47970   */\n      0x00\n        /* \"#utility.yul\":47961:47967   */\n      dup3\n        /* \"#utility.yul\":47957:47971   */\n      add\n        /* \"#utility.yul\":47950:47994   */\n      mstore\n        /* \"#utility.yul\":47833:48001   */\n      pop\n      jump\t// out\n        /* \"#utility.yul\":48007:48373   */\n    tag_436:\n        /* \"#utility.yul\":48149:48152   */\n      0x00\n        /* \"#utility.yul\":48170:48237   */\n      tag_917\n        /* \"#utility.yul\":48234:48236   */\n      0x12\n        /* \"#utility.yul\":48229:48232   */\n      dup4\n        /* \"#utility.yul\":48170:48237   */\n      tag_346\n      jump\t// in\n    tag_917:\n        /* \"#utility.yul\":48163:48237   */\n      swap2\n      pop\n        /* \"#utility.yul\":48246:48339   */\n      tag_918\n        /* \"#utility.yul\":48335:48338   */\n      dup3\n        /* \"#utility.yul\":48246:48339   */\n      tag_435\n      jump\t// in\n    tag_918:\n        /* \"#utility.yul\":48364:48366   */\n      0x20\n        /* \"#utility.yul\":48359:48362   */\n      dup3\n        /* \"#utility.yul\":48355:48367   */\n      add\n        /* \"#utility.yul\":48348:48367   */\n      swap1\n      pop\n        /* \"#utility.yul\":48007:48373   */\n      swap2\n      swap1\n      pop\n      jump\t// out\n        /* \"#utility.yul\":48379:48798   */\n    tag_173:\n        /* \"#utility.yul\":48545:48549   */\n      0x00\n        /* \"#utility.yul\":48583:48585   */\n      0x20\n        /* \"#utility.yul\":48572:48581   */\n      dup3\n        /* \"#utility.yul\":48568:48586   */\n      add\n        /* \"#utility.yul\":48560:48586   */\n      swap1\n      pop\n        /* \"#utility.yul\":48632:48641   */\n      dup2\n        /* \"#utility.yul\":48626:48630   */\n      dup2\n        /* \"#utility.yul\":48622:48642   */\n      sub\n        /* \"#utility.yul\":48618:48619   */\n      0x00\n        /* \"#utility.yul\":48607:48616   */\n      dup4\n        /* \"#utility.yul\":48603:48620   */\n      add\n        /* \"#utility.yul\":48596:48643   */\n      mstore\n        /* \"#utility.yul\":48660:48791   */\n      tag_920\n        /* \"#utility.yul\":48786:48790   */\n      dup2\n        /* \"#utility.yul\":48660:48791   */\n      tag_436\n      jump\t// in\n    tag_920:\n        /* \"#utility.yul\":48652:48791   */\n      swap1\n      pop\n        /* \"#utility.yul\":48379:48798   */\n      swap2\n      swap1\n      pop\n      jump\t// out\n        /* \"#utility.yul\":48804:49131   */\n    tag_177:\n        /* \"#utility.yul\":48862:48868   */\n      0x00\n        /* \"#utility.yul\":48911:48913   */\n      0x20\n        /* \"#utility.yul\":48899:48908   */\n      dup3\n        /* \"#utility.yul\":48890:48897   */\n      dup5\n        /* \"#utility.yul\":48886:48909   */\n      sub\n        /* \"#utility.yul\":48882:48914   */\n      slt\n        /* \"#utility.yul\":48879:48998   */\n      iszero\n      tag_922\n      jumpi\n        /* \"#utility.yul\":48917:48996   */\n      tag_923\n      tag_299\n      jump\t// in\n    tag_923:\n        /* \"#utility.yul\":48879:48998   */\n    tag_922:\n        /* \"#utility.yul\":49037:49038   */\n      0x00\n        /* \"#utility.yul\":49062:49114   */\n      tag_924\n        /* \"#utility.yul\":49106:49113   */\n      dup5\n        /* \"#utility.yul\":49097:49103   */\n      dup3\n        /* \"#utility.yul\":49086:49095   */\n      dup6\n        /* \"#utility.yul\":49082:49104   */\n      add\n        /* \"#utility.yul\":49062:49114   */\n      tag_415\n      jump\t// in\n    tag_924:\n        /* \"#utility.yul\":49052:49114   */\n      swap2\n      pop\n        /* \"#utility.yul\":49008:49124   */\n      pop\n        /* \"#utility.yul\":48804:49131   */\n      swap3\n      swap2\n      pop\n      pop\n      jump\t// out\n        /* \"#utility.yul\":49137:49298   */\n    tag_437:\n        /* \"#utility.yul\":49277:49290   */\n      0x5a65726f20776569676874000000000000000000000000000000000000000000\n        /* \"#utility.yul\":49273:49274   */\n      0x00\n        /* \"#utility.yul\":49265:49271   */\n      dup3\n        /* \"#utility.yul\":49261:49275   */\n      add\n        /* \"#utility.yul\":49254:49291   */\n      mstore\n        /* \"#utility.yul\":49137:49298   */\n      pop\n      jump\t// out\n        /* \"#utility.yul\":49304:49670   */\n    tag_438:\n        /* \"#utility.yul\":49446:49449   */\n      0x00\n        /* \"#utility.yul\":49467:49534   */\n      tag_927\n        /* \"#utility.yul\":49531:49533   */\n      0x0b\n        /* \"#utility.yul\":49526:49529   */\n      dup4\n        /* \"#utility.yul\":49467:49534   */\n      tag_346\n      jump\t// in\n    tag_927:\n        /* \"#utility.yul\":49460:49534   */\n      swap2\n      pop\n        /* \"#utility.yul\":49543:49636   */\n      tag_928\n        /* \"#utility.yul\":49632:49635   */\n      dup3\n        /* \"#utility.yul\":49543:49636   */\n      tag_437\n      jump\t// in\n    tag_928:\n        /* \"#utility.yul\":49661:49663   */\n      0x20\n        /* \"#utility.yul\":49656:49659   */\n      dup3\n        /* \"#utility.yul\":49652:49664   */\n      add\n        /* \"#utility.yul\":49645:49664   */\n      swap1\n      pop\n        /* \"#utility.yul\":49304:49670   */\n      swap2\n      swap1\n      pop\n      jump\t// out\n        /* \"#utility.yul\":49676:50095   */\n    tag_180:\n        /* \"#utility.yul\":49842:49846   */\n      0x00\n        /* \"#utility.yul\":49880:49882   */\n      0x20\n        /* \"#utility.yul\":49869:49878   */\n      dup3\n        /* \"#utility.yul\":49865:49883   */\n      add\n        /* \"#utility.yul\":49857:49883   */\n      swap1\n      pop\n        /* \"#utility.yul\":49929:49938   */\n      dup2\n        /* \"#utility.yul\":49923:49927   */\n      dup2\n        /* \"#utility.yul\":49919:49939   */\n      sub\n        /* \"#utility.yul\":49915:49916   */\n      0x00\n        /* \"#utility.yul\":49904:49913   */\n      dup4\n        /* \"#utility.yul\":49900:49917   */\n      add\n        /* \"#utility.yul\":49893:49940   */\n      mstore\n        /* \"#utility.yul\":49957:50088   */\n      tag_930\n        /* \"#utility.yul\":50083:50087   */\n      dup2\n        /* \"#utility.yul\":49957:50088   */\n      tag_438\n      jump\t// in\n    tag_930:\n        /* \"#utility.yul\":49949:50088   */\n      swap1\n      pop\n        /* \"#utility.yul\":49676:50095   */\n      swap2\n      swap1\n      pop\n      jump\t// out\n        /* \"#utility.yul\":50101:50264   */\n    tag_439:\n        /* \"#utility.yul\":50241:50256   */\n      0x576569676874203e203130302500000000000000000000000000000000000000\n        /* \"#utility.yul\":50237:50238   */\n      0x00\n        /* \"#utility.yul\":50229:50235   */\n      dup3\n        /* \"#utility.yul\":50225:50239   */\n      add\n        /* \"#utility.yul\":50218:50257   */\n      mstore\n        /* \"#utility.yul\":50101:50264   */\n      pop\n      jump\t// out\n        /* \"#utility.yul\":50270:50636   */\n    tag_440:\n        /* \"#utility.yul\":50412:50415   */\n      0x00\n        /* \"#utility.yul\":50433:50500   */\n      tag_933\n        /* \"#utility.yul\":50497:50499   */\n      0x0d\n        /* \"#utility.yul\":50492:50495   */\n      dup4\n        /* \"#utility.yul\":50433:50500   */\n      tag_346\n      jump\t// in\n    tag_933:\n        /* \"#utility.yul\":50426:50500   */\n      swap2\n      pop\n        /* \"#utility.yul\":50509:50602   */\n      tag_934\n        /* \"#utility.yul\":50598:50601   */\n      dup3\n        /* \"#utility.yul\":50509:50602   */\n      tag_439\n      jump\t// in\n    tag_934:\n        /* \"#utility.yul\":50627:50629   */\n      0x20\n        /* \"#utility.yul\":50622:50625   */\n      dup3\n        /* \"#utility.yul\":50618:50630   */\n      add\n        /* \"#utility.yul\":50611:50630   */\n      swap1\n      pop\n        /* \"#utility.yul\":50270:50636   */\n      swap2\n      swap1\n      pop\n      jump\t// out\n        /* \"#utility.yul\":50642:51061   */\n    tag_183:\n        /* \"#utility.yul\":50808:50812   */\n      0x00\n        /* \"#utility.yul\":50846:50848   */\n      0x20\n        /* \"#utility.yul\":50835:50844   */\n      dup3\n        /* \"#utility.yul\":50831:50849   */\n      add\n        /* \"#utility.yul\":50823:50849   */\n      swap1\n      pop\n        /* \"#utility.yul\":50895:50904   */\n      dup2\n        /* \"#utility.yul\":50889:50893   */\n      dup2\n        /* \"#utility.yul\":50885:50905   */\n      sub\n        /* \"#utility.yul\":50881:50882   */\n      0x00\n        /* \"#utility.yul\":50870:50879   */\n      dup4\n        /* \"#utility.yul\":50866:50883   */\n      add\n        /* \"#utility.yul\":50859:50906   */\n      mstore\n        /* \"#utility.yul\":50923:51054   */\n      tag_936\n        /* \"#utility.yul\":51049:51053   */\n      dup2\n        /* \"#utility.yul\":50923:51054   */\n      tag_440\n      jump\t// in\n    tag_936:\n        /* \"#utility.yul\":50915:51054   */\n      swap1\n      pop\n        /* \"#utility.yul\":50642:51061   */\n      swap2\n      swap1\n      pop\n      jump\t// out\n        /* \"#utility.yul\":51067:51258   */\n    tag_185:\n        /* \"#utility.yul\":51107:51110   */\n      0x00\n        /* \"#utility.yul\":51126:51146   */\n      tag_938\n        /* \"#utility.yul\":51144:51145   */\n      dup3\n        /* \"#utility.yul\":51126:51146   */\n      tag_313\n      jump\t// in\n    tag_938:\n        /* \"#utility.yul\":51121:51146   */\n      swap2\n      pop\n        /* \"#utility.yul\":51160:51180   */\n      tag_939\n        /* \"#utility.yul\":51178:51179   */\n      dup4\n        /* \"#utility.yul\":51160:51180   */\n      tag_313\n      jump\t// in\n    tag_939:\n        /* \"#utility.yul\":51155:51180   */\n      swap3\n      pop\n        /* \"#utility.yul\":51203:51204   */\n      dup3\n        /* \"#utility.yul\":51200:51201   */\n      dup3\n        /* \"#utility.yul\":51196:51205   */\n      add\n        /* \"#utility.yul\":51189:51205   */\n      swap1\n      pop\n        /* \"#utility.yul\":51224:51227   */\n      dup1\n        /* \"#utility.yul\":51221:51222   */\n      dup3\n        /* \"#utility.yul\":51218:51228   */\n      gt\n        /* \"#utility.yul\":51215:51251   */\n      iszero\n      tag_940\n      jumpi\n        /* \"#utility.yul\":51231:51249   */\n      tag_941\n      tag_377\n      jump\t// in\n    tag_941:\n        /* \"#utility.yul\":51215:51251   */\n    tag_940:\n        /* \"#utility.yul\":51067:51258   */\n      swap3\n      swap2\n      pop\n      pop\n      jump\t// out\n        /* \"#utility.yul\":51264:51441   */\n    tag_441:\n        /* \"#utility.yul\":51404:51433   */\n      0x4475706c696361746520746f6b656e20696e20686f6c64696e67730000000000\n        /* \"#utility.yul\":51400:51401   */\n      0x00\n        /* \"#utility.yul\":51392:51398   */\n      dup3\n        /* \"#utility.yul\":51388:51402   */\n      add\n        /* \"#utility.yul\":51381:51434   */\n      mstore\n        /* \"#utility.yul\":51264:51441   */\n      pop\n      jump\t// out\n        /* \"#utility.yul\":51447:51813   */\n    tag_442:\n        /* \"#utility.yul\":51589:51592   */\n      0x00\n        /* \"#utility.yul\":51610:51677   */\n      tag_944\n        /* \"#utility.yul\":51674:51676   */\n      0x1b\n        /* \"#utility.yul\":51669:51672   */\n      dup4\n        /* \"#utility.yul\":51610:51677   */\n      tag_346\n      jump\t// in\n    tag_944:\n        /* \"#utility.yul\":51603:51677   */\n      swap2\n      pop\n        /* \"#utility.yul\":51686:51779   */\n      tag_945\n        /* \"#utility.yul\":51775:51778   */\n      dup3\n        /* \"#utility.yul\":51686:51779   */\n      tag_441\n      jump\t// in\n    tag_945:\n        /* \"#utility.yul\":51804:51806   */\n      0x20\n        /* \"#utility.yul\":51799:51802   */\n      dup3\n        /* \"#utility.yul\":51795:51807   */\n      add\n        /* \"#utility.yul\":51788:51807   */\n      swap1\n      pop\n        /* \"#utility.yul\":51447:51813   */\n      swap2\n      swap1\n      pop\n      jump\t// out\n        /* \"#utility.yul\":51819:52238   */\n    tag_195:\n        /* \"#utility.yul\":51985:51989   */\n      0x00\n        /* \"#utility.yul\":52023:52025   */\n      0x20\n        /* \"#utility.yul\":52012:52021   */\n      dup3\n        /* \"#utility.yul\":52008:52026   */\n      add\n        /* \"#utility.yul\":52000:52026   */\n      swap1\n      pop\n        /* \"#utility.yul\":52072:52081   */\n      dup2\n        /* \"#utility.yul\":52066:52070   */\n      dup2\n        /* \"#utility.yul\":52062:52082   */\n      sub\n        /* \"#utility.yul\":52058:52059   */\n      0x00\n        /* \"#utility.yul\":52047:52056   */\n      dup4\n        /* \"#utility.yul\":52043:52060   */\n      add\n        /* \"#utility.yul\":52036:52083   */\n      mstore\n        /* \"#utility.yul\":52100:52231   */\n      tag_947\n        /* \"#utility.yul\":52226:52230   */\n      dup2\n        /* \"#utility.yul\":52100:52231   */\n      tag_442\n      jump\t// in\n    tag_947:\n        /* \"#utility.yul\":52092:52231   */\n      swap1\n      pop\n        /* \"#utility.yul\":51819:52238   */\n      swap2\n      swap1\n      pop\n      jump\t// out\n        /* \"#utility.yul\":52244:52418   */\n    tag_443:\n        /* \"#utility.yul\":52384:52410   */\n      0x57656967687473206d7573742073756d20746f20313030250000000000000000\n        /* \"#utility.yul\":52380:52381   */\n      0x00\n        /* \"#utility.yul\":52372:52378   */\n      dup3\n        /* \"#utility.yul\":52368:52382   */\n      add\n        /* \"#utility.yul\":52361:52411   */\n      mstore\n        /* \"#utility.yul\":52244:52418   */\n      pop\n      jump\t// out\n        /* \"#utility.yul\":52424:52790   */\n    tag_444:\n        /* \"#utility.yul\":52566:52569   */\n      0x00\n        /* \"#utility.yul\":52587:52654   */\n      tag_950\n        /* \"#utility.yul\":52651:52653   */\n      0x18\n        /* \"#utility.yul\":52646:52649   */\n      dup4\n        /* \"#utility.yul\":52587:52654   */\n      tag_346\n      jump\t// in\n    tag_950:\n        /* \"#utility.yul\":52580:52654   */\n      swap2\n      pop\n        /* \"#utility.yul\":52663:52756   */\n      tag_951\n        /* \"#utility.yul\":52752:52755   */\n      dup3\n        /* \"#utility.yul\":52663:52756   */\n      tag_443\n      jump\t// in\n    tag_951:\n        /* \"#utility.yul\":52781:52783   */\n      0x20\n        /* \"#utility.yul\":52776:52779   */\n      dup3\n        /* \"#utility.yul\":52772:52784   */\n      add\n        /* \"#utility.yul\":52765:52784   */\n      swap1\n      pop\n        /* \"#utility.yul\":52424:52790   */\n      swap2\n      swap1\n      pop\n      jump\t// out\n        /* \"#utility.yul\":52796:53215   */\n    tag_198:\n        /* \"#utility.yul\":52962:52966   */\n      0x00\n        /* \"#utility.yul\":53000:53002   */\n      0x20\n        /* \"#utility.yul\":52989:52998   */\n      dup3\n        /* \"#utility.yul\":52985:53003   */\n      add\n        /* \"#utility.yul\":52977:53003   */\n      swap1\n      pop\n        /* \"#utility.yul\":53049:53058   */\n      dup2\n        /* \"#utility.yul\":53043:53047   */\n      dup2\n        /* \"#utility.yul\":53039:53059   */\n      sub\n        /* \"#utility.yul\":53035:53036   */\n      0x00\n        /* \"#utility.yul\":53024:53033   */\n      dup4\n        /* \"#utility.yul\":53020:53037   */\n      add\n        /* \"#utility.yul\":53013:53060   */\n      mstore\n        /* \"#utility.yul\":53077:53208   */\n      tag_953\n        /* \"#utility.yul\":53203:53207   */\n      dup2\n        /* \"#utility.yul\":53077:53208   */\n      tag_444\n      jump\t// in\n    tag_953:\n        /* \"#utility.yul\":53069:53208   */\n      swap1\n      pop\n        /* \"#utility.yul\":52796:53215   */\n      swap2\n      swap1\n      pop\n      jump\t// out\n        /* \"#utility.yul\":53221:53447   */\n    tag_445:\n        /* \"#utility.yul\":53361:53395   */\n      0x496e64657820776974682073616d6520746f6b656e2d77656967687420736574\n        /* \"#utility.yul\":53357:53358   */\n      0x00\n        /* \"#utility.yul\":53349:53355   */\n      dup3\n        /* \"#utility.yul\":53345:53359   */\n      add\n        /* \"#utility.yul\":53338:53396   */\n      mstore\n        /* \"#utility.yul\":53430:53439   */\n      0x2065786973747300000000000000000000000000000000000000000000000000\n        /* \"#utility.yul\":53425:53427   */\n      0x20\n        /* \"#utility.yul\":53417:53423   */\n      dup3\n        /* \"#utility.yul\":53413:53428   */\n      add\n        /* \"#utility.yul\":53406:53440   */\n      mstore\n        /* \"#utility.yul\":53221:53447   */\n      pop\n      jump\t// out\n        /* \"#utility.yul\":53453:53819   */\n    tag_446:\n        /* \"#utility.yul\":53595:53598   */\n      0x00\n        /* \"#utility.yul\":53616:53683   */\n      tag_956\n        /* \"#utility.yul\":53680:53682   */\n      0x27\n        /* \"#utility.yul\":53675:53678   */\n      dup4\n        /* \"#utility.yul\":53616:53683   */\n      tag_346\n      jump\t// in\n    tag_956:\n        /* \"#utility.yul\":53609:53683   */\n      swap2\n      pop\n        /* \"#utility.yul\":53692:53785   */\n      tag_957\n        /* \"#utility.yul\":53781:53784   */\n      dup3\n        /* \"#utility.yul\":53692:53785   */\n      tag_445\n      jump\t// in\n    tag_957:\n        /* \"#utility.yul\":53810:53812   */\n      0x40\n        /* \"#utility.yul\":53805:53808   */\n      dup3\n        /* \"#utility.yul\":53801:53813   */\n      add\n        /* \"#utility.yul\":53794:53813   */\n      swap1\n      pop\n        /* \"#utility.yul\":53453:53819   */\n      swap2\n      swap1\n      pop\n      jump\t// out\n        /* \"#utility.yul\":53825:54244   */\n    tag_204:\n        /* \"#utility.yul\":53991:53995   */\n      0x00\n        /* \"#utility.yul\":54029:54031   */\n      0x20\n        /* \"#utility.yul\":54018:54027   */\n      dup3\n        /* \"#utility.yul\":54014:54032   */\n      add\n        /* \"#utility.yul\":54006:54032   */\n      swap1\n      pop\n        /* \"#utility.yul\":54078:54087   */\n      dup2\n        /* \"#utility.yul\":54072:54076   */\n      dup2\n        /* \"#utility.yul\":54068:54088   */\n      sub\n        /* \"#utility.yul\":54064:54065   */\n      0x00\n        /* \"#utility.yul\":54053:54062   */\n      dup4\n        /* \"#utility.yul\":54049:54066   */\n      add\n        /* \"#utility.yul\":54042:54089   */\n      mstore\n        /* \"#utility.yul\":54106:54237   */\n      tag_959\n        /* \"#utility.yul\":54232:54236   */\n      dup2\n        /* \"#utility.yul\":54106:54237   */\n      tag_446\n      jump\t// in\n    tag_959:\n        /* \"#utility.yul\":54098:54237   */\n      swap1\n      pop\n        /* \"#utility.yul\":53825:54244   */\n      swap2\n      swap1\n      pop\n      jump\t// out\n        /* \"#utility.yul\":54250:54444   */\n    tag_209:\n        /* \"#utility.yul\":54290:54294   */\n      0x00\n        /* \"#utility.yul\":54310:54330   */\n      tag_961\n        /* \"#utility.yul\":54328:54329   */\n      dup3\n        /* \"#utility.yul\":54310:54330   */\n      tag_313\n      jump\t// in\n    tag_961:\n        /* \"#utility.yul\":54305:54330   */\n      swap2\n      pop\n        /* \"#utility.yul\":54344:54364   */\n      tag_962\n        /* \"#utility.yul\":54362:54363   */\n      dup4\n        /* \"#utility.yul\":54344:54364   */\n      tag_313\n      jump\t// in\n    tag_962:\n        /* \"#utility.yul\":54339:54364   */\n      swap3\n      pop\n        /* \"#utility.yul\":54388:54389   */\n      dup3\n        /* \"#utility.yul\":54385:54386   */\n      dup3\n        /* \"#utility.yul\":54381:54390   */\n      sub\n        /* \"#utility.yul\":54373:54390   */\n      swap1\n      pop\n        /* \"#utility.yul\":54412:54413   */\n      dup2\n        /* \"#utility.yul\":54406:54410   */\n      dup2\n        /* \"#utility.yul\":54403:54414   */\n      gt\n        /* \"#utility.yul\":54400:54437   */\n      iszero\n      tag_963\n      jumpi\n        /* \"#utility.yul\":54417:54435   */\n      tag_964\n      tag_377\n      jump\t// in\n    tag_964:\n        /* \"#utility.yul\":54400:54437   */\n    tag_963:\n        /* \"#utility.yul\":54250:54444   */\n      swap3\n      swap2\n      pop\n      pop\n      jump\t// out\n        /* \"#utility.yul\":54450:54632   */\n    tag_447:\n        /* \"#utility.yul\":54590:54624   */\n      0x4469726563746f72792063616e6e6f74206265207a65726f2061646472657373\n        /* \"#utility.yul\":54586:54587   */\n      0x00\n        /* \"#utility.yul\":54578:54584   */\n      dup3\n        /* \"#utility.yul\":54574:54588   */\n      add\n        /* \"#utility.yul\":54567:54625   */\n      mstore\n        /* \"#utility.yul\":54450:54632   */\n      pop\n      jump\t// out\n        /* \"#utility.yul\":54638:55004   */\n    tag_448:\n        /* \"#utility.yul\":54780:54783   */\n      0x00\n        /* \"#utility.yul\":54801:54868   */\n      tag_967\n        /* \"#utility.yul\":54865:54867   */\n      0x20\n        /* \"#utility.yul\":54860:54863   */\n      dup4\n        /* \"#utility.yul\":54801:54868   */\n      tag_346\n      jump\t// in\n    tag_967:\n        /* \"#utility.yul\":54794:54868   */\n      swap2\n      pop\n        /* \"#utility.yul\":54877:54970   */\n      tag_968\n        /* \"#utility.yul\":54966:54969   */\n      dup3\n        /* \"#utility.yul\":54877:54970   */\n      tag_447\n      jump\t// in\n    tag_968:\n        /* \"#utility.yul\":54995:54997   */\n      0x20\n        /* \"#utility.yul\":54990:54993   */\n      dup3\n        /* \"#utility.yul\":54986:54998   */\n      add\n        /* \"#utility.yul\":54979:54998   */\n      swap1\n      pop\n        /* \"#utility.yul\":54638:55004   */\n      swap2\n      swap1\n      pop\n      jump\t// out\n        /* \"#utility.yul\":55010:55429   */\n    tag_213:\n        /* \"#utility.yul\":55176:55180   */\n      0x00\n        /* \"#utility.yul\":55214:55216   */\n      0x20\n        /* \"#utility.yul\":55203:55212   */\n      dup3\n        /* \"#utility.yul\":55199:55217   */\n      add\n        /* \"#utility.yul\":55191:55217   */\n      swap1\n      pop\n        /* \"#utility.yul\":55263:55272   */\n      dup2\n        /* \"#utility.yul\":55257:55261   */\n      dup2\n        /* \"#utility.yul\":55253:55273   */\n      sub\n        /* \"#utility.yul\":55249:55250   */\n      0x00\n        /* \"#utility.yul\":55238:55247   */\n      dup4\n        /* \"#utility.yul\":55234:55251   */\n      add\n        /* \"#utility.yul\":55227:55274   */\n      mstore\n        /* \"#utility.yul\":55291:55422   */\n      tag_970\n        /* \"#utility.yul\":55417:55421   */\n      dup2\n        /* \"#utility.yul\":55291:55422   */\n      tag_448\n      jump\t// in\n    tag_970:\n        /* \"#utility.yul\":55283:55422   */\n      swap1\n      pop\n        /* \"#utility.yul\":55010:55429   */\n      swap2\n      swap1\n      pop\n      jump\t// out\n        /* \"#utility.yul\":55435:55613   */\n    tag_449:\n        /* \"#utility.yul\":55575:55605   */\n      0x4469726563746f7279206d757374206265206120636f6e747261637400000000\n        /* \"#utility.yul\":55571:55572   */\n      0x00\n        /* \"#utility.yul\":55563:55569   */\n      dup3\n        /* \"#utility.yul\":55559:55573   */\n      add\n        /* \"#utility.yul\":55552:55606   */\n      mstore\n        /* \"#utility.yul\":55435:55613   */\n      pop\n      jump\t// out\n        /* \"#utility.yul\":55619:55985   */\n    tag_450:\n        /* \"#utility.yul\":55761:55764   */\n      0x00\n        /* \"#utility.yul\":55782:55849   */\n      tag_973\n        /* \"#utility.yul\":55846:55848   */\n      0x1c\n        /* \"#utility.yul\":55841:55844   */\n      dup4\n        /* \"#utility.yul\":55782:55849   */\n      tag_346\n      jump\t// in\n    tag_973:\n        /* \"#utility.yul\":55775:55849   */\n      swap2\n      pop\n        /* \"#utility.yul\":55858:55951   */\n      tag_974\n        /* \"#utility.yul\":55947:55950   */\n      dup3\n        /* \"#utility.yul\":55858:55951   */\n      tag_449\n      jump\t// in\n    tag_974:\n        /* \"#utility.yul\":55976:55978   */\n      0x20\n        /* \"#utility.yul\":55971:55974   */\n      dup3\n        /* \"#utility.yul\":55967:55979   */\n      add\n        /* \"#utility.yul\":55960:55979   */\n      swap1\n      pop\n        /* \"#utility.yul\":55619:55985   */\n      swap2\n      swap1\n      pop\n      jump\t// out\n        /* \"#utility.yul\":55991:56410   */\n    tag_216:\n        /* \"#utility.yul\":56157:56161   */\n      0x00\n        /* \"#utility.yul\":56195:56197   */\n      0x20\n        /* \"#utility.yul\":56184:56193   */\n      dup3\n        /* \"#utility.yul\":56180:56198   */\n      add\n        /* \"#utility.yul\":56172:56198   */\n      swap1\n      pop\n        /* \"#utility.yul\":56244:56253   */\n      dup2\n        /* \"#utility.yul\":56238:56242   */\n      dup2\n        /* \"#utility.yul\":56234:56254   */\n      sub\n        /* \"#utility.yul\":56230:56231   */\n      0x00\n        /* \"#utility.yul\":56219:56228   */\n      dup4\n        /* \"#utility.yul\":56215:56232   */\n      add\n        /* \"#utility.yul\":56208:56255   */\n      mstore\n        /* \"#utility.yul\":56272:56403   */\n      tag_976\n        /* \"#utility.yul\":56398:56402   */\n      dup2\n        /* \"#utility.yul\":56272:56403   */\n      tag_450\n      jump\t// in\n    tag_976:\n        /* \"#utility.yul\":56264:56403   */\n      swap1\n      pop\n        /* \"#utility.yul\":55991:56410   */\n      swap2\n      swap1\n      pop\n      jump\t// out\n        /* \"#utility.yul\":56416:56647   */\n    tag_451:\n        /* \"#utility.yul\":56556:56590   */\n      0x4469726563746f7279206164647265737320646f6573206e6f7420696d706c65\n        /* \"#utility.yul\":56552:56553   */\n      0x00\n        /* \"#utility.yul\":56544:56550   */\n      dup3\n        /* \"#utility.yul\":56540:56554   */\n      add\n        /* \"#utility.yul\":56533:56591   */\n      mstore\n        /* \"#utility.yul\":56625:56639   */\n      0x6d656e74206f776e657228290000000000000000000000000000000000000000\n        /* \"#utility.yul\":56620:56622   */\n      0x20\n        /* \"#utility.yul\":56612:56618   */\n      dup3\n        /* \"#utility.yul\":56608:56623   */\n      add\n        /* \"#utility.yul\":56601:56640   */\n      mstore\n        /* \"#utility.yul\":56416:56647   */\n      pop\n      jump\t// out\n        /* \"#utility.yul\":56653:57019   */\n    tag_452:\n        /* \"#utility.yul\":56795:56798   */\n      0x00\n        /* \"#utility.yul\":56816:56883   */\n      tag_979\n        /* \"#utility.yul\":56880:56882   */\n      0x2c\n        /* \"#utility.yul\":56875:56878   */\n      dup4\n        /* \"#utility.yul\":56816:56883   */\n      tag_346\n      jump\t// in\n    tag_979:\n        /* \"#utility.yul\":56809:56883   */\n      swap2\n      pop\n        /* \"#utility.yul\":56892:56985   */\n      tag_980\n        /* \"#utility.yul\":56981:56984   */\n      dup3\n        /* \"#utility.yul\":56892:56985   */\n      tag_451\n      jump\t// in\n    tag_980:\n        /* \"#utility.yul\":57010:57012   */\n      0x40\n        /* \"#utility.yul\":57005:57008   */\n      dup3\n        /* \"#utility.yul\":57001:57013   */\n      add\n        /* \"#utility.yul\":56994:57013   */\n      swap1\n      pop\n        /* \"#utility.yul\":56653:57019   */\n      swap2\n      swap1\n      pop\n      jump\t// out\n        /* \"#utility.yul\":57025:57444   */\n    tag_224:\n        /* \"#utility.yul\":57191:57195   */\n      0x00\n        /* \"#utility.yul\":57229:57231   */\n      0x20\n        /* \"#utility.yul\":57218:57227   */\n      dup3\n        /* \"#utility.yul\":57214:57232   */\n      add\n        /* \"#utility.yul\":57206:57232   */\n      swap1\n      pop\n        /* \"#utility.yul\":57278:57287   */\n      dup2\n        /* \"#utility.yul\":57272:57276   */\n      dup2\n        /* \"#utility.yul\":57268:57288   */\n      sub\n        /* \"#utility.yul\":57264:57265   */\n      0x00\n        /* \"#utility.yul\":57253:57262   */\n      dup4\n        /* \"#utility.yul\":57249:57266   */\n      add\n        /* \"#utility.yul\":57242:57289   */\n      mstore\n        /* \"#utility.yul\":57306:57437   */\n      tag_982\n        /* \"#utility.yul\":57432:57436   */\n      dup2\n        /* \"#utility.yul\":57306:57437   */\n      tag_452\n      jump\t// in\n    tag_982:\n        /* \"#utility.yul\":57298:57437   */\n      swap1\n      pop\n        /* \"#utility.yul\":57025:57444   */\n      swap2\n      swap1\n      pop\n      jump\t// out\n        /* \"#utility.yul\":57450:57567   */\n    tag_453:\n        /* \"#utility.yul\":57559:57560   */\n      0x00\n        /* \"#utility.yul\":57556:57557   */\n      0x00\n        /* \"#utility.yul\":57549:57561   */\n      revert\n        /* \"#utility.yul\":57718:58304   */\n    tag_455:\n        /* \"#utility.yul\":57791:57796   */\n      0x00\n        /* \"#utility.yul\":57835:57839   */\n      0x40\n        /* \"#utility.yul\":57823:57832   */\n      dup3\n        /* \"#utility.yul\":57818:57821   */\n      dup5\n        /* \"#utility.yul\":57814:57833   */\n      sub\n        /* \"#utility.yul\":57810:57840   */\n      slt\n        /* \"#utility.yul\":57807:57924   */\n      iszero\n      tag_986\n      jumpi\n        /* \"#utility.yul\":57843:57922   */\n      tag_987\n      tag_453\n      jump\t// in\n    tag_987:\n        /* \"#utility.yul\":57807:57924   */\n    tag_986:\n        /* \"#utility.yul\":57942:57963   */\n      tag_988\n        /* \"#utility.yul\":57958:57962   */\n      0x40\n        /* \"#utility.yul\":57942:57963   */\n      tag_305\n      jump\t// in\n    tag_988:\n        /* \"#utility.yul\":57933:57963   */\n      swap1\n      pop\n        /* \"#utility.yul\":58030:58031   */\n      0x00\n        /* \"#utility.yul\":58070:58119   */\n      tag_989\n        /* \"#utility.yul\":58115:58118   */\n      dup5\n        /* \"#utility.yul\":58106:58112   */\n      dup3\n        /* \"#utility.yul\":58095:58104   */\n      dup6\n        /* \"#utility.yul\":58091:58113   */\n      add\n        /* \"#utility.yul\":58070:58119   */\n      tag_345\n      jump\t// in\n    tag_989:\n        /* \"#utility.yul\":58063:58067   */\n      0x00\n        /* \"#utility.yul\":58056:58061   */\n      dup4\n        /* \"#utility.yul\":58052:58068   */\n      add\n        /* \"#utility.yul\":58045:58120   */\n      mstore\n        /* \"#utility.yul\":57973:58131   */\n      pop\n        /* \"#utility.yul\":58196:58198   */\n      0x20\n        /* \"#utility.yul\":58237:58285   */\n      tag_990\n        /* \"#utility.yul\":58281:58284   */\n      dup5\n        /* \"#utility.yul\":58272:58278   */\n      dup3\n        /* \"#utility.yul\":58261:58270   */\n      dup6\n        /* \"#utility.yul\":58257:58279   */\n      add\n        /* \"#utility.yul\":58237:58285   */\n      tag_415\n      jump\t// in\n    tag_990:\n        /* \"#utility.yul\":58230:58234   */\n      0x20\n        /* \"#utility.yul\":58223:58228   */\n      dup4\n        /* \"#utility.yul\":58219:58235   */\n      add\n        /* \"#utility.yul\":58212:58286   */\n      mstore\n        /* \"#utility.yul\":58141:58297   */\n      pop\n        /* \"#utility.yul\":57718:58304   */\n      swap3\n      swap2\n      pop\n      pop\n      jump\t// out\n        /* \"#utility.yul\":58310:58687   */\n    tag_240:\n        /* \"#utility.yul\":58393:58399   */\n      0x00\n        /* \"#utility.yul\":58442:58444   */\n      0x40\n        /* \"#utility.yul\":58430:58439   */\n      dup3\n        /* \"#utility.yul\":58421:58428   */\n      dup5\n        /* \"#utility.yul\":58417:58440   */\n      sub\n        /* \"#utility.yul\":58413:58445   */\n      slt\n        /* \"#utility.yul\":58410:58529   */\n      iszero\n      tag_992\n      jumpi\n        /* \"#utility.yul\":58448:58527   */\n      tag_993\n      tag_299\n      jump\t// in\n    tag_993:\n        /* \"#utility.yul\":58410:58529   */\n    tag_992:\n        /* \"#utility.yul\":58568:58569   */\n      0x00\n        /* \"#utility.yul\":58593:58670   */\n      tag_994\n        /* \"#utility.yul\":58662:58669   */\n      dup5\n        /* \"#utility.yul\":58653:58659   */\n      dup3\n        /* \"#utility.yul\":58642:58651   */\n      dup6\n        /* \"#utility.yul\":58638:58660   */\n      add\n        /* \"#utility.yul\":58593:58670   */\n      tag_455\n      jump\t// in\n    tag_994:\n        /* \"#utility.yul\":58583:58670   */\n      swap2\n      pop\n        /* \"#utility.yul\":58539:58680   */\n      pop\n        /* \"#utility.yul\":58310:58687   */\n      swap3\n      swap2\n      pop\n      pop\n      jump\t// out\n        /* \"#utility.yul\":58693:58807   */\n    tag_456:\n        /* \"#utility.yul\":58760:58766   */\n      0x00\n        /* \"#utility.yul\":58794:58799   */\n      dup2\n        /* \"#utility.yul\":58788:58800   */\n      mload\n        /* \"#utility.yul\":58778:58800   */\n      swap1\n      pop\n        /* \"#utility.yul\":58693:58807   */\n      swap2\n      swap1\n      pop\n      jump\t// out\n        /* \"#utility.yul\":58813:58997   */\n    tag_457:\n        /* \"#utility.yul\":58912:58923   */\n      0x00\n        /* \"#utility.yul\":58946:58952   */\n      dup3\n        /* \"#utility.yul\":58941:58944   */\n      dup3\n        /* \"#utility.yul\":58934:58953   */\n      mstore\n        /* \"#utility.yul\":58986:58990   */\n      0x20\n        /* \"#utility.yul\":58981:58984   */\n      dup3\n        /* \"#utility.yul\":58977:58991   */\n      add\n        /* \"#utility.yul\":58962:58991   */\n      swap1\n      pop\n        /* \"#utility.yul\":58813:58997   */\n      swap3\n      swap2\n      pop\n      pop\n      jump\t// out\n        /* \"#utility.yul\":59003:59135   */\n    tag_458:\n        /* \"#utility.yul\":59070:59074   */\n      0x00\n        /* \"#utility.yul\":59093:59096   */\n      dup2\n        /* \"#utility.yul\":59085:59096   */\n      swap1\n      pop\n        /* \"#utility.yul\":59123:59127   */\n      0x20\n        /* \"#utility.yul\":59118:59121   */\n      dup3\n        /* \"#utility.yul\":59114:59128   */\n      add\n        /* \"#utility.yul\":59106:59128   */\n      swap1\n      pop\n        /* \"#utility.yul\":59003:59135   */\n      swap2\n      swap1\n      pop\n      jump\t// out\n        /* \"#utility.yul\":59141:59320   */\n    tag_459:\n        /* \"#utility.yul\":59210:59220   */\n      0x00\n        /* \"#utility.yul\":59231:59277   */\n      tag_999\n        /* \"#utility.yul\":59273:59276   */\n      dup4\n        /* \"#utility.yul\":59265:59271   */\n      dup4\n        /* \"#utility.yul\":59231:59277   */\n      tag_326\n      jump\t// in\n    tag_999:\n        /* \"#utility.yul\":59309:59313   */\n      0x20\n        /* \"#utility.yul\":59304:59307   */\n      dup4\n        /* \"#utility.yul\":59300:59314   */\n      add\n        /* \"#utility.yul\":59286:59314   */\n      swap1\n      pop\n        /* \"#utility.yul\":59141:59320   */\n      swap3\n      swap2\n      pop\n      pop\n      jump\t// out\n        /* \"#utility.yul\":59326:59439   */\n    tag_460:\n        /* \"#utility.yul\":59396:59400   */\n      0x00\n        /* \"#utility.yul\":59428:59432   */\n      0x20\n        /* \"#utility.yul\":59423:59426   */\n      dup3\n        /* \"#utility.yul\":59419:59433   */\n      add\n        /* \"#utility.yul\":59411:59433   */\n      swap1\n      pop\n        /* \"#utility.yul\":59326:59439   */\n      swap2\n      swap1\n      pop\n      jump\t// out\n        /* \"#utility.yul\":59475:60207   */\n    tag_461:\n        /* \"#utility.yul\":59594:59597   */\n      0x00\n        /* \"#utility.yul\":59623:59677   */\n      tag_1002\n        /* \"#utility.yul\":59671:59676   */\n      dup3\n        /* \"#utility.yul\":59623:59677   */\n      tag_456\n      jump\t// in\n    tag_1002:\n        /* \"#utility.yul\":59693:59779   */\n      tag_1003\n        /* \"#utility.yul\":59772:59778   */\n      dup2\n        /* \"#utility.yul\":59767:59770   */\n      dup6\n        /* \"#utility.yul\":59693:59779   */\n      tag_457\n      jump\t// in\n    tag_1003:\n        /* \"#utility.yul\":59686:59779   */\n      swap4\n      pop\n        /* \"#utility.yul\":59803:59859   */\n      tag_1004\n        /* \"#utility.yul\":59853:59858   */\n      dup4\n        /* \"#utility.yul\":59803:59859   */\n      tag_458\n      jump\t// in\n    tag_1004:\n        /* \"#utility.yul\":59882:59889   */\n      dup1\n        /* \"#utility.yul\":59913:59914   */\n      0x00\n        /* \"#utility.yul\":59898:60182   */\n    tag_1005:\n        /* \"#utility.yul\":59923:59929   */\n      dup4\n        /* \"#utility.yul\":59920:59921   */\n      dup2\n        /* \"#utility.yul\":59917:59930   */\n      lt\n        /* \"#utility.yul\":59898:60182   */\n      iszero\n      tag_1007\n      jumpi\n        /* \"#utility.yul\":59999:60005   */\n      dup2\n        /* \"#utility.yul\":59993:60006   */\n      mload\n        /* \"#utility.yul\":60026:60089   */\n      tag_1008\n        /* \"#utility.yul\":60085:60088   */\n      dup9\n        /* \"#utility.yul\":60070:60083   */\n      dup3\n        /* \"#utility.yul\":60026:60089   */\n      tag_459\n      jump\t// in\n    tag_1008:\n        /* \"#utility.yul\":60019:60089   */\n      swap8\n      pop\n        /* \"#utility.yul\":60112:60172   */\n      tag_1009\n        /* \"#utility.yul\":60165:60171   */\n      dup4\n        /* \"#utility.yul\":60112:60172   */\n      tag_460\n      jump\t// in\n    tag_1009:\n        /* \"#utility.yul\":60102:60172   */\n      swap3\n      pop\n        /* \"#utility.yul\":59958:60182   */\n      pop\n        /* \"#utility.yul\":59945:59946   */\n      0x01\n        /* \"#utility.yul\":59942:59943   */\n      dup2\n        /* \"#utility.yul\":59938:59947   */\n      add\n        /* \"#utility.yul\":59933:59947   */\n      swap1\n      pop\n        /* \"#utility.yul\":59898:60182   */\n      jump(tag_1005)\n    tag_1007:\n        /* \"#utility.yul\":59902:59916   */\n      pop\n        /* \"#utility.yul\":60198:60201   */\n      dup6\n        /* \"#utility.yul\":60191:60201   */\n      swap4\n      pop\n        /* \"#utility.yul\":59599:60207   */\n      pop\n      pop\n      pop\n        /* \"#utility.yul\":59475:60207   */\n      swap3\n      swap2\n      pop\n      pop\n      jump\t// out\n        /* \"#utility.yul\":60213:60326   */\n    tag_462:\n        /* \"#utility.yul\":60279:60285   */\n      0x00\n        /* \"#utility.yul\":60313:60318   */\n      dup2\n        /* \"#utility.yul\":60307:60319   */\n      mload\n        /* \"#utility.yul\":60297:60319   */\n      swap1\n      pop\n        /* \"#utility.yul\":60213:60326   */\n      swap2\n      swap1\n      pop\n      jump\t// out\n        /* \"#utility.yul\":60332:60515   */\n    tag_463:\n        /* \"#utility.yul\":60430:60441   */\n      0x00\n        /* \"#utility.yul\":60464:60470   */\n      dup3\n        /* \"#utility.yul\":60459:60462   */\n      dup3\n        /* \"#utility.yul\":60452:60471   */\n      mstore\n        /* \"#utility.yul\":60504:60508   */\n      0x20\n        /* \"#utility.yul\":60499:60502   */\n      dup3\n        /* \"#utility.yul\":60495:60509   */\n      add\n        /* \"#utility.yul\":60480:60509   */\n      swap1\n      pop\n        /* \"#utility.yul\":60332:60515   */\n      swap3\n      swap2\n      pop\n      pop\n      jump\t// out\n        /* \"#utility.yul\":60521:60652   */\n    tag_464:\n        /* \"#utility.yul\":60587:60591   */\n      0x00\n        /* \"#utility.yul\":60610:60613   */\n      dup2\n        /* \"#utility.yul\":60602:60613   */\n      swap1\n      pop\n        /* \"#utility.yul\":60640:60644   */\n      0x20\n        /* \"#utility.yul\":60635:60638   */\n      dup3\n        /* \"#utility.yul\":60631:60645   */\n      add\n        /* \"#utility.yul\":60623:60645   */\n      swap1\n      pop\n        /* \"#utility.yul\":60521:60652   */\n      swap2\n      swap1\n      pop\n      jump\t// out\n        /* \"#utility.yul\":60658:60833   */\n    tag_465:\n        /* \"#utility.yul\":60725:60735   */\n      0x00\n        /* \"#utility.yul\":60746:60790   */\n      tag_1014\n        /* \"#utility.yul\":60786:60789   */\n      dup4\n        /* \"#utility.yul\":60778:60784   */\n      dup4\n        /* \"#utility.yul\":60746:60790   */\n      tag_328\n      jump\t// in\n    tag_1014:\n        /* \"#utility.yul\":60822:60826   */\n      0x20\n        /* \"#utility.yul\":60817:60820   */\n      dup4\n        /* \"#utility.yul\":60813:60827   */\n      add\n        /* \"#utility.yul\":60799:60827   */\n      swap1\n      pop\n        /* \"#utility.yul\":60658:60833   */\n      swap3\n      swap2\n      pop\n      pop\n      jump\t// out\n        /* \"#utility.yul\":60839:60951   */\n    tag_466:\n        /* \"#utility.yul\":60908:60912   */\n      0x00\n        /* \"#utility.yul\":60940:60944   */\n      0x20\n        /* \"#utility.yul\":60935:60938   */\n      dup3\n        /* \"#utility.yul\":60931:60945   */\n      add\n        /* \"#utility.yul\":60923:60945   */\n      swap1\n      pop\n        /* \"#utility.yul\":60839:60951   */\n      swap2\n      swap1\n      pop\n      jump\t// out\n        /* \"#utility.yul\":60985:61709   */\n    tag_467:\n        /* \"#utility.yul\":61102:61105   */\n      0x00\n        /* \"#utility.yul\":61131:61184   */\n      tag_1017\n        /* \"#utility.yul\":61178:61183   */\n      dup3\n        /* \"#utility.yul\":61131:61184   */\n      tag_462\n      jump\t// in\n    tag_1017:\n        /* \"#utility.yul\":61200:61285   */\n      tag_1018\n        /* \"#utility.yul\":61278:61284   */\n      dup2\n        /* \"#utility.yul\":61273:61276   */\n      dup6\n        /* \"#utility.yul\":61200:61285   */\n      tag_463\n      jump\t// in\n    tag_1018:\n        /* \"#utility.yul\":61193:61285   */\n      swap4\n      pop\n        /* \"#utility.yul\":61309:61364   */\n      tag_1019\n        /* \"#utility.yul\":61358:61363   */\n      dup4\n        /* \"#utility.yul\":61309:61364   */\n      tag_464\n      jump\t// in\n    tag_1019:\n        /* \"#utility.yul\":61387:61394   */\n      dup1\n        /* \"#utility.yul\":61418:61419   */\n      0x00\n        /* \"#utility.yul\":61403:61684   */\n    tag_1020:\n        /* \"#utility.yul\":61428:61434   */\n      dup4\n        /* \"#utility.yul\":61425:61426   */\n      dup2\n        /* \"#utility.yul\":61422:61435   */\n      lt\n        /* \"#utility.yul\":61403:61684   */\n      iszero\n      tag_1022\n      jumpi\n        /* \"#utility.yul\":61504:61510   */\n      dup2\n        /* \"#utility.yul\":61498:61511   */\n      mload\n        /* \"#utility.yul\":61531:61592   */\n      tag_1023\n        /* \"#utility.yul\":61588:61591   */\n      dup9\n        /* \"#utility.yul\":61573:61586   */\n      dup3\n        /* \"#utility.yul\":61531:61592   */\n      tag_465\n      jump\t// in\n    tag_1023:\n        /* \"#utility.yul\":61524:61592   */\n      swap8\n      pop\n        /* \"#utility.yul\":61615:61674   */\n      tag_1024\n        /* \"#utility.yul\":61667:61673   */\n      dup4\n        /* \"#utility.yul\":61615:61674   */\n      tag_466\n      jump\t// in\n    tag_1024:\n        /* \"#utility.yul\":61605:61674   */\n      swap3\n      pop\n        /* \"#utility.yul\":61463:61684   */\n      pop\n        /* \"#utility.yul\":61450:61451   */\n      0x01\n        /* \"#utility.yul\":61447:61448   */\n      dup2\n        /* \"#utility.yul\":61443:61452   */\n      add\n        /* \"#utility.yul\":61438:61452   */\n      swap1\n      pop\n        /* \"#utility.yul\":61403:61684   */\n      jump(tag_1020)\n    tag_1022:\n        /* \"#utility.yul\":61407:61421   */\n      pop\n        /* \"#utility.yul\":61700:61703   */\n      dup6\n        /* \"#utility.yul\":61693:61703   */\n      swap4\n      pop\n        /* \"#utility.yul\":61107:61709   */\n      pop\n      pop\n      pop\n        /* \"#utility.yul\":60985:61709   */\n      swap3\n      swap2\n      pop\n      pop\n      jump\t// out\n        /* \"#utility.yul\":61715:62345   */\n    tag_263:\n        /* \"#utility.yul\":61934:61938   */\n      0x00\n        /* \"#utility.yul\":61972:61974   */\n      0x40\n        /* \"#utility.yul\":61961:61970   */\n      dup3\n        /* \"#utility.yul\":61957:61975   */\n      add\n        /* \"#utility.yul\":61949:61975   */\n      swap1\n      pop\n        /* \"#utility.yul\":62021:62030   */\n      dup2\n        /* \"#utility.yul\":62015:62019   */\n      dup2\n        /* \"#utility.yul\":62011:62031   */\n      sub\n        /* \"#utility.yul\":62007:62008   */\n      0x00\n        /* \"#utility.yul\":61996:62005   */\n      dup4\n        /* \"#utility.yul\":61992:62009   */\n      add\n        /* \"#utility.yul\":61985:62032   */\n      mstore\n        /* \"#utility.yul\":62049:62157   */\n      tag_1026\n        /* \"#utility.yul\":62152:62156   */\n      dup2\n        /* \"#utility.yul\":62143:62149   */\n      dup6\n        /* \"#utility.yul\":62049:62157   */\n      tag_461\n      jump\t// in\n    tag_1026:\n        /* \"#utility.yul\":62041:62157   */\n      swap1\n      pop\n        /* \"#utility.yul\":62204:62213   */\n      dup2\n        /* \"#utility.yul\":62198:62202   */\n      dup2\n        /* \"#utility.yul\":62194:62214   */\n      sub\n        /* \"#utility.yul\":62189:62191   */\n      0x20\n        /* \"#utility.yul\":62178:62187   */\n      dup4\n        /* \"#utility.yul\":62174:62192   */\n      add\n        /* \"#utility.yul\":62167:62215   */\n      mstore\n        /* \"#utility.yul\":62232:62338   */\n      tag_1027\n        /* \"#utility.yul\":62333:62337   */\n      dup2\n        /* \"#utility.yul\":62324:62330   */\n      dup5\n        /* \"#utility.yul\":62232:62338   */\n      tag_467\n      jump\t// in\n    tag_1027:\n        /* \"#utility.yul\":62224:62338   */\n      swap1\n      pop\n        /* \"#utility.yul\":61715:62345   */\n      swap4\n      swap3\n      pop\n      pop\n      pop\n      jump\t// out\n\n    auxdata: 0xa26469706673582212200b25bfb234e1a8611ef5f5b3dc63e9fe3ff3e430b4389592d4795447d78c5f4364736f6c634300081e0033\n}\n",
				"bytecode": {
					"linkReferences": {},
					"object": "608060405234801561000f575f5ffd5b5060405161350838038061350883398181016040528101906100319190610258565b806100418161004860201b60201c565b50506103f1565b5f73ffffffffffffffffffffffffffffffffffffffff168173ffffffffffffffffffffffffffffffffffffffff16036100b6576040517f08c379a00000000000000000000000000000000000000000000000000000000081526004016100ad906102dd565b60405180910390fd5b5f8173ffffffffffffffffffffffffffffffffffffffff163b1161010f576040517f08c379a000000000000000000000000000000000000000000000000000000000815260040161010690610345565b60405180910390fd5b8073ffffffffffffffffffffffffffffffffffffffff16638da5cb5b6040518163ffffffff1660e01b8152600401602060405180830381865afa92505050801561017757506040513d601f19601f820116820180604052508101906101749190610258565b60015b6101b6576040517f08c379a00000000000000000000000000000000000000000000000000000000081526004016101ad906103d3565b60405180910390fd5b8160035f6101000a81548173ffffffffffffffffffffffffffffffffffffffff021916908373ffffffffffffffffffffffffffffffffffffffff1602179055505050565b5f5ffd5b5f73ffffffffffffffffffffffffffffffffffffffff82169050919050565b5f610227826101fe565b9050919050565b6102378161021d565b8114610241575f5ffd5b50565b5f815190506102528161022e565b92915050565b5f6020828403121561026d5761026c6101fa565b5b5f61027a84828501610244565b91505092915050565b5f82825260208201905092915050565b7f4469726563746f72792063616e6e6f74206265207a65726f20616464726573735f82015250565b5f6102c7602083610283565b91506102d282610293565b602082019050919050565b5f6020820190508181035f8301526102f4816102bb565b9050919050565b7f4469726563746f7279206d757374206265206120636f6e7472616374000000005f82015250565b5f61032f601c83610283565b915061033a826102fb565b602082019050919050565b5f6020820190508181035f83015261035c81610323565b9050919050565b7f4469726563746f7279206164647265737320646f6573206e6f7420696d706c655f8201527f6d656e74206f776e657228290000000000000000000000000000000000000000602082015250565b5f6103bd602c83610283565b91506103c882610363565b604082019050919050565b5f6020820190508181035f8301526103ea816103b1565b9050919050565b61310a806103fe5f395ff3fe608060405234801561000f575f5ffd5b506004361061009c575f3560e01c8063658a847a11610064578063658a847a1461016c5780638da5cb5b1461018a578063ab73314d146101a8578063acec338a146101d8578063ba4c7be1146101f45761009c565b806322f3e2d4146100a057806327262618146100be5780632ff910ce146100ee578063428d9a931461010c578063549e122b1461013c575b5f5ffd5b6100a8610210565b6040516100b59190611546565b60405180910390f35b6100d860048036038101906100d391906116ac565b610223565b6040516100e59190611732565b60405180910390f35b6100f66102c4565b6040516101039190611763565b60405180910390f35b6101266004803603810190610121919061179e565b6102cf565b6040516101339190611763565b60405180910390f35b6101566004803603810190610151919061180f565b6104e6565b60405161016391906119f5565b60405180910390f35b610174610763565b6040516101819190611a70565b60405180910390f35b610192610788565b60405161019f9190611732565b60405180910390f35b6101c260048036038101906101bd9190611ae6565b61081c565b6040516101cf91906119f5565b60405180910390f35b6101f260048036038101906101ed9190611b5b565b61089c565b005b61020e60048036038101906102099190611bb0565b6109b4565b005b600360149054906101000a900460ff1681565b5f60035f9054906101000a900473ffffffffffffffffffffffffffffffffffffffff1673ffffffffffffffffffffffffffffffffffffffff166327262618836040518263ffffffff1660e01b815260040161027e9190611c23565b602060405180830381865afa158015610299573d5f5f3e3d5ffd5b505050506040513d601f19601f820116820180604052508101906102bd9190611c57565b9050919050565b5f5f80549050905090565b5f61030e6040518060400160405280600b81526020017f6574662d666163746f7279000000000000000000000000000000000000000000815250610223565b73ffffffffffffffffffffffffffffffffffffffff163373ffffffffffffffffffffffffffffffffffffffff161461037b576040517f08c379a000000000000000000000000000000000000000000000000000000000815260040161037290611ccc565b60405180910390fd5b600360149054906101000a900460ff166103ca576040517f08c379a00000000000000000000000000000000000000000000000000000000081526004016103c190611d34565b60405180910390fd5b6103e28280602001906103dd9190611d5e565b610abb565b6103fa8280604001906103f59190611dc0565b610b66565b5f61041383806040019061040e9190611dc0565b610e37565b90505f6104235f80549050610e9d565b90505f84908060018154018082558091505060019003905f5260205f2090600302015f90919091909150818161045991906124c3565b505080600185806020019061046e9190611d5e565b60405161047c9291906124ff565b9081526020016040518091039020819055508060025f8481526020019081526020015f2081905550807fd6ed4a1ac1542b666750aad7222525e09a69cb032e35d999fd8c661223fc7cb6856040516104d49190612791565b60405180910390a28092505050919050565b6104ee6114d9565b5f8211801561050157505f805490508211155b610540576040517f08c379a0000000000000000000000000000000000000000000000000000000008152600401610537906127fb565b60405180910390fd5b5f61054a83610eb2565b8154811061055b5761055a612819565b5b905f5260205f2090600302016040518060600160405290815f8201805461058190611e85565b80601f01602080910402602001604051908101604052809291908181526020018280546105ad90611e85565b80156105f85780601f106105cf576101008083540402835291602001916105f8565b820191905f5260205f20905b8154815290600101906020018083116105db57829003601f168201915b5050505050815260200160018201805461061190611e85565b80601f016020809104026020016040519081016040528092919081815260200182805461063d90611e85565b80156106885780601f1061065f57610100808354040283529160200191610688565b820191905f5260205f20905b81548152906001019060200180831161066b57829003601f168201915b5050505050815260200160028201805480602002602001604051908101604052809291908181526020015f905b82821015610754578382905f5260205f20016040518060400160405290815f82015f9054906101000a900473ffffffffffffffffffffffffffffffffffffffff1673ffffffffffffffffffffffffffffffffffffffff1673ffffffffffffffffffffffffffffffffffffffff1681526020015f820160149054906101000a900461ffff1661ffff1661ffff1681525050815260200190600101906106b5565b50505050815250509050919050565b60035f9054906101000a900473ffffffffffffffffffffffffffffffffffffffff1681565b5f60035f9054906101000a900473ffffffffffffffffffffffffffffffffffffffff1673ffffffffffffffffffffffffffffffffffffffff16638da5cb5b6040518163ffffffff1660e01b8152600401602060405180830381865afa1580156107f3573d5f5f3e3d5ffd5b505050506040513d601f19601f820116820180604052508101906108179190611c57565b905090565b6108246114d9565b5f600184846040516108379291906124ff565b90815260200160405180910390205490505f810361088a576040517f08c379a000000000000000000000000000000000000000000000000000000000815260040161088190612890565b60405180910390fd5b610893816104e6565b91505092915050565b60035f9054906101000a900473ffffffffffffffffffffffffffffffffffffffff1673ffffffffffffffffffffffffffffffffffffffff16638da5cb5b6040518163ffffffff1660e01b8152600401602060405180830381865afa158015610906573d5f5f3e3d5ffd5b505050506040513d601f19601f8201168201806040525081019061092a9190611c57565b73ffffffffffffffffffffffffffffffffffffffff163373ffffffffffffffffffffffffffffffffffffffff1614610997576040517f08c379a000000000000000000000000000000000000000000000000000000000815260040161098e906128f8565b60405180910390fd5b80600360146101000a81548160ff02191690831515021790555050565b60035f9054906101000a900473ffffffffffffffffffffffffffffffffffffffff1673ffffffffffffffffffffffffffffffffffffffff16638da5cb5b6040518163ffffffff1660e01b8152600401602060405180830381865afa158015610a1e573d5f5f3e3d5ffd5b505050506040513d601f19601f82011682018060405250810190610a429190611c57565b73ffffffffffffffffffffffffffffffffffffffff163373ffffffffffffffffffffffffffffffffffffffff1614610aaf576040517f08c379a0000000000000000000000000000000000000000000000000000000008152600401610aa6906128f8565b60405180910390fd5b610ab881610ec7565b50565b5f8282905003610b00576040517f08c379a0000000000000000000000000000000000000000000000000000000008152600401610af790612960565b60405180910390fd5b5f60018383604051610b139291906124ff565b90815260200160405180910390205414610b62576040517f08c379a0000000000000000000000000000000000000000000000000000000008152600401610b59906129c8565b60405180910390fd5b5050565b5f8282905090505f8111610baf576040517f08c379a0000000000000000000000000000000000000000000000000000000008152600401610ba690612a30565b60405180910390fd5b5f5f5f90505b82811015610dec575f858583818110610bd157610bd0612819565b5b9050604002015f016020810190610be89190611bb0565b90505f73ffffffffffffffffffffffffffffffffffffffff168173ffffffffffffffffffffffffffffffffffffffff1603610c58576040517f08c379a0000000000000000000000000000000000000000000000000000000008152600401610c4f90612a98565b60405180910390fd5b5f868684818110610c6c57610c6b612819565b5b9050604002016020016020810190610c849190612ab6565b61ffff1690505f8111610ccc576040517f08c379a0000000000000000000000000000000000000000000000000000000008152600401610cc390612b2b565b60405180910390fd5b612710811115610d11576040517f08c379a0000000000000000000000000000000000000000000000000000000008152600401610d0890612b93565b60405180910390fd5b8084610d1d9190612bb1565b93505f600184610d2d9190612bb1565b90505b85811015610ddc57878782818110610d4b57610d4a612819565b5b9050604002015f016020810190610d629190611bb0565b73ffffffffffffffffffffffffffffffffffffffff168373ffffffffffffffffffffffffffffffffffffffff1603610dcf576040517f08c379a0000000000000000000000000000000000000000000000000000000008152600401610dc690612c2e565b60405180910390fd5b8080600101915050610d30565b5050508080600101915050610bb5565b506127108114610e31576040517f08c379a0000000000000000000000000000000000000000000000000000000008152600401610e2890612c96565b60405180910390fd5b50505050565b5f610e428383611079565b90505f60025f8381526020019081526020015f205414610e97576040517f08c379a0000000000000000000000000000000000000000000000000000000008152600401610e8e90612d24565b60405180910390fd5b92915050565b5f600182610eab9190612bb1565b9050919050565b5f600182610ec09190612d42565b9050919050565b5f73ffffffffffffffffffffffffffffffffffffffff168173ffffffffffffffffffffffffffffffffffffffff1603610f35576040517f08c379a0000000000000000000000000000000000000000000000000000000008152600401610f2c90612dbf565b60405180910390fd5b5f8173ffffffffffffffffffffffffffffffffffffffff163b11610f8e576040517f08c379a0000000000000000000000000000000000000000000000000000000008152600401610f8590612e27565b60405180910390fd5b8073ffffffffffffffffffffffffffffffffffffffff16638da5cb5b6040518163ffffffff1660e01b8152600401602060405180830381865afa925050508015610ff657506040513d601f19601f82011682018060405250810190610ff39190611c57565b60015b611035576040517f08c379a000000000000000000000000000000000000000000000000000000000815260040161102c90612eb5565b60405180910390fd5b8160035f6101000a81548173ffffffffffffffffffffffffffffffffffffffff021916908373ffffffffffffffffffffffffffffffffffffffff1602179055505050565b5f5f8383905090505f8167ffffffffffffffff81111561109c5761109b611588565b5b6040519080825280602002602001820160405280156110d557816020015b6110c26114fa565b8152602001906001900390816110ba5790505b5090505f5f90505b82811015611139578585828181106110f8576110f7612819565b5b90506040020180360381019061110e9190612f24565b82828151811061112157611120612819565b5b602002602001018190525080806001019150506110dd565b50611143816112de565b5f8267ffffffffffffffff81111561115e5761115d611588565b5b60405190808252806020026020018201604052801561118c5781602001602082028036833780820191505090505b5090505f8367ffffffffffffffff8111156111aa576111a9611588565b5b6040519080825280602002602001820160405280156111d85781602001602082028036833780820191505090505b5090505f5f90505b848110156112a8578381815181106111fb576111fa612819565b5b60200260200101515f015183828151811061121957611218612819565b5b602002602001019073ffffffffffffffffffffffffffffffffffffffff16908173ffffffffffffffffffffffffffffffffffffffff168152505083818151811061126657611265612819565b5b60200260200101516020015182828151811061128557611284612819565b5b602002602001019061ffff16908161ffff168152505080806001019150506111e0565b5081816040516020016112bc92919061309f565b6040516020818303038152906040528051906020012094505050505092915050565b5f815190505f5f90505b818110156114d4575f8190505f6001836113029190612bb1565b90505b8381101561144b578482815181106113205761131f612819565b5b60200260200101515f015173ffffffffffffffffffffffffffffffffffffffff1685828151811061135457611353612819565b5b60200260200101515f015173ffffffffffffffffffffffffffffffffffffffff161080611435575084828151811061138f5761138e612819565b5b60200260200101515f015173ffffffffffffffffffffffffffffffffffffffff168582815181106113c3576113c2612819565b5b60200260200101515f015173ffffffffffffffffffffffffffffffffffffffff1614801561143457508482815181106113ff576113fe612819565b5b60200260200101516020015161ffff1685828151811061142257611421612819565b5b60200260200101516020015161ffff16105b5b1561143e578091505b8080600101915050611305565b508181146114c65783818151811061146657611465612819565b5b602002602001015184838151811061148157611480612819565b5b602002602001015185848151811061149c5761149b612819565b5b602002602001018684815181106114b6576114b5612819565b5b6020026020010182905282905250505b5080806001019150506112e8565b505050565b60405180606001604052806060815260200160608152602001606081525090565b60405180604001604052805f73ffffffffffffffffffffffffffffffffffffffff1681526020015f61ffff1681525090565b5f8115159050919050565b6115408161152c565b82525050565b5f6020820190506115595f830184611537565b92915050565b5f604051905090565b5f5ffd5b5f5ffd5b5f5ffd5b5f5ffd5b5f601f19601f8301169050919050565b7f4e487b71000000000000000000000000000000000000000000000000000000005f52604160045260245ffd5b6115be82611578565b810181811067ffffffffffffffff821117156115dd576115dc611588565b5b80604052505050565b5f6115ef61155f565b90506115fb82826115b5565b919050565b5f67ffffffffffffffff82111561161a57611619611588565b5b61162382611578565b9050602081019050919050565b828183375f83830152505050565b5f61165061164b84611600565b6115e6565b90508281526020810184848401111561166c5761166b611574565b5b611677848285611630565b509392505050565b5f82601f83011261169357611692611570565b5b81356116a384826020860161163e565b91505092915050565b5f602082840312156116c1576116c0611568565b5b5f82013567ffffffffffffffff8111156116de576116dd61156c565b5b6116ea8482850161167f565b91505092915050565b5f73ffffffffffffffffffffffffffffffffffffffff82169050919050565b5f61171c826116f3565b9050919050565b61172c81611712565b82525050565b5f6020820190506117455f830184611723565b92915050565b5f819050919050565b61175d8161174b565b82525050565b5f6020820190506117765f830184611754565b92915050565b5f5ffd5b5f606082840312156117955761179461177c565b5b81905092915050565b5f602082840312156117b3576117b2611568565b5b5f82013567ffffffffffffffff8111156117d0576117cf61156c565b5b6117dc84828501611780565b91505092915050565b6117ee8161174b565b81146117f8575f5ffd5b50565b5f81359050611809816117e5565b92915050565b5f6020828403121561182457611823611568565b5b5f611831848285016117fb565b91505092915050565b5f81519050919050565b5f82825260208201905092915050565b8281835e5f83830152505050565b5f61186c8261183a565b6118768185611844565b9350611886818560208601611854565b61188f81611578565b840191505092915050565b5f81519050919050565b5f82825260208201905092915050565b5f819050602082019050919050565b6118cc81611712565b82525050565b5f61ffff82169050919050565b6118e8816118d2565b82525050565b604082015f8201516119025f8501826118c3565b50602082015161191560208501826118df565b50505050565b5f61192683836118ee565b60408301905092915050565b5f602082019050919050565b5f6119488261189a565b61195281856118a4565b935061195d836118b4565b805f5b8381101561198d578151611974888261191b565b975061197f83611932565b925050600181019050611960565b5085935050505092915050565b5f606083015f8301518482035f8601526119b48282611862565b915050602083015184820360208601526119ce8282611862565b915050604083015184820360408601526119e8828261193e565b9150508091505092915050565b5f6020820190508181035f830152611a0d818461199a565b905092915050565b5f819050919050565b5f611a38611a33611a2e846116f3565b611a15565b6116f3565b9050919050565b5f611a4982611a1e565b9050919050565b5f611a5a82611a3f565b9050919050565b611a6a81611a50565b82525050565b5f602082019050611a835f830184611a61565b92915050565b5f5ffd5b5f5ffd5b5f5f83601f840112611aa657611aa5611570565b5b8235905067ffffffffffffffff811115611ac357611ac2611a89565b5b602083019150836001820283011115611adf57611ade611a8d565b5b9250929050565b5f5f60208385031215611afc57611afb611568565b5b5f83013567ffffffffffffffff811115611b1957611b1861156c565b5b611b2585828601611a91565b92509250509250929050565b611b3a8161152c565b8114611b44575f5ffd5b50565b5f81359050611b5581611b31565b92915050565b5f60208284031215611b7057611b6f611568565b5b5f611b7d84828501611b47565b91505092915050565b611b8f81611712565b8114611b99575f5ffd5b50565b5f81359050611baa81611b86565b92915050565b5f60208284031215611bc557611bc4611568565b5b5f611bd284828501611b9c565b91505092915050565b5f82825260208201905092915050565b5f611bf58261183a565b611bff8185611bdb565b9350611c0f818560208601611854565b611c1881611578565b840191505092915050565b5f6020820190508181035f830152611c3b8184611beb565b905092915050565b5f81519050611c5181611b86565b92915050565b5f60208284031215611c6c57611c6b611568565b5b5f611c7984828501611c43565b91505092915050565b7f6d73672e73656e646572206973206e6f742065746620666163746f72790000005f82015250565b5f611cb6601d83611bdb565b9150611cc182611c82565b602082019050919050565b5f6020820190508181035f830152611ce381611caa565b9050919050565b7f436f6e7472616374206973206e6f7420616374697665000000000000000000005f82015250565b5f611d1e601683611bdb565b9150611d2982611cea565b602082019050919050565b5f6020820190508181035f830152611d4b81611d12565b9050919050565b5f5ffd5b5f5ffd5b5f5ffd5b5f5f83356001602003843603038112611d7a57611d79611d52565b5b80840192508235915067ffffffffffffffff821115611d9c57611d9b611d56565b5b602083019250600182023603831315611db857611db7611d5a565b5b509250929050565b5f5f83356001602003843603038112611ddc57611ddb611d52565b5b80840192508235915067ffffffffffffffff821115611dfe57611dfd611d56565b5b602083019250604082023603831315611e1a57611e19611d5a565b5b509250929050565b7f4e487b71000000000000000000000000000000000000000000000000000000005f525f60045260245ffd5b5f82905092915050565b7f4e487b71000000000000000000000000000000000000000000000000000000005f52602260045260245ffd5b5f6002820490506001821680611e9c57607f821691505b602082108103611eaf57611eae611e58565b5b50919050565b5f819050815f5260205f209050919050565b5f6020601f8301049050919050565b5f82821b905092915050565b5f60088302611f117fffffffffffffffffffffffffffffffffffffffffffffffffffffffffffffffff82611ed6565b611f1b8683611ed6565b95508019841693508086168417925050509392505050565b5f611f4d611f48611f438461174b565b611a15565b61174b565b9050919050565b5f819050919050565b611f6683611f33565b611f7a611f7282611f54565b848454611ee2565b825550505050565b5f5f905090565b611f91611f82565b611f9c818484611f5d565b505050565b5b81811015611fbf57611fb45f82611f89565b600181019050611fa2565b5050565b601f82111561200457611fd581611eb5565b611fde84611ec7565b81016020851015611fed578190505b612001611ff985611ec7565b830182611fa1565b50505b505050565b5f82821c905092915050565b5f6120245f1984600802612009565b1980831691505092915050565b5f61203c8383612015565b9150826002028217905092915050565b6120568383611e4e565b67ffffffffffffffff81111561206f5761206e611588565b5b6120798254611e85565b612084828285611fc3565b5f601f8311600181146120b1575f841561209f578287013590505b6120a98582612031565b865550612110565b601f1984166120bf86611eb5565b5f5b828110156120e6578489013582556001820191506020850194506020810190506120c1565b8683101561210357848901356120ff601f891682612015565b8355505b6001600288020188555050505b50505050505050565b61212483838361204c565b505050565b5f819050919050565b5f81549050919050565b7f4e487b71000000000000000000000000000000000000000000000000000000005f52601160045260245ffd5b5f8190506001806001038301049050919050565b5f819050815f5260205f209050919050565b5f5f82015550565b5f82146121a7576121a6611e22565b5b6121b08161218f565b5050565b5b818110156121d2576121c75f82612197565b6001810190506121b5565b5050565b8183101561220f576121e782612169565b6121f084612169565b6121f98361217d565b81810183820161220981836121b4565b50505050505b505050565b6801000000000000000082111561222e5761222d611588565b5b61223781612132565b8282556122458382846121d6565b505050565b5f82905092915050565b5f813561226081611b86565b80915050919050565b5f815f1b9050919050565b5f73ffffffffffffffffffffffffffffffffffffffff61229384612269565b9350801983169250808416831791505092915050565b5f6122b382611a3f565b9050919050565b5f819050919050565b6122cc826122a9565b6122df6122d8826122ba565b8354612274565b8255505050565b6122ef816118d2565b81146122f9575f5ffd5b50565b5f8135612308816122e6565b80915050919050565b5f8160a01b9050919050565b5f75ffff000000000000000000000000000000000000000061233e84612311565b9350801983169250808416831791505092915050565b5f61236e612369612364846118d2565b611a15565b6118d2565b9050919050565b5f819050919050565b61238782612354565b61239a61239382612375565b835461231d565b8255505050565b5f81015f8301806123b181612254565b90506123bd81846122c3565b5050505f810160208301806123d1816122fc565b90506123dd818461237e565b5050505050565b6123ee82826123a1565b5050565b6123fc838361224a565b6124068183612214565b61240f83612129565b6124188361217d565b5f5b83811015612445578261242d81846123e4565b6040840193506001830192505060018101905061241a565b50505050505050565b6124598383836123f2565b505050565b5f81015f830161246e8185611d5e565b612479818386612119565b50505050600181016020830161248f8185611d5e565b61249a818386612119565b5050505060028101604083016124b08185611dc0565b6124bb81838661244e565b505050505050565b6124cd828261245e565b5050565b5f81905092915050565b5f6124e683856124d1565b93506124f3838584611630565b82840190509392505050565b5f61250b8284866124db565b91508190509392505050565b5f5ffd5b5f5ffd5b5f5ffd5b5f5f8335600160200384360303811261253f5761253e61251f565b5b83810192508235915060208301925067ffffffffffffffff82111561256757612566612517565b5b60018202360383131561257d5761257c61251b565b5b509250929050565b5f6125908385611844565b935061259d838584611630565b6125a683611578565b840190509392505050565b5f5f833560016020038436030381126125cd576125cc61251f565b5b83810192508235915060208301925067ffffffffffffffff8211156125f5576125f4612517565b5b60408202360383131561260b5761260a61251b565b5b509250929050565b5f6126216020840184611b9c565b905092915050565b5f81359050612637816122e6565b92915050565b5f61264b6020840184612629565b905092915050565b604082016126635f830183612613565b61266f5f8501826118c3565b5061267d602083018361263d565b61268a60208501826118df565b50505050565b5f61269b8383612653565b60408301905092915050565b5f82905092915050565b5f604082019050919050565b5f6126c883856118a4565b93506126d382612129565b805f5b8581101561270b576126e882846126a7565b6126f28882612690565b97506126fd836126b1565b9250506001810190506126d6565b5085925050509392505050565b5f606083016127295f840184612523565b8583035f87015261273b838284612585565b9250505061274c6020840184612523565b858303602087015261275f838284612585565b9250505061277060408401846125b1565b85830360408701526127838382846126bd565b925050508091505092915050565b5f6020820190508181035f8301526127a98184612718565b905092915050565b7f496e76616c696420696e646578206964000000000000000000000000000000005f82015250565b5f6127e5601083611bdb565b91506127f0826127b1565b602082019050919050565b5f6020820190508181035f830152612812816127d9565b9050919050565b7f4e487b71000000000000000000000000000000000000000000000000000000005f52603260045260245ffd5b7f556e6b6e6f776e207469636b65720000000000000000000000000000000000005f82015250565b5f61287a600e83611bdb565b915061288582612846565b602082019050919050565b5f6020820190508181035f8301526128a78161286e565b9050919050565b7f43616c6c6572206973206e6f7420746865206f776e65720000000000000000005f82015250565b5f6128e2601783611bdb565b91506128ed826128ae565b602082019050919050565b5f6020820190508181035f83015261290f816128d6565b9050919050565b7f456d707479207469636b657200000000000000000000000000000000000000005f82015250565b5f61294a600c83611bdb565b915061295582612916565b602082019050919050565b5f6020820190508181035f8301526129778161293e565b9050919050565b7f5469636b657220616c72656164792065786973747300000000000000000000005f82015250565b5f6129b2601583611bdb565b91506129bd8261297e565b602082019050919050565b5f6020820190508181035f8301526129df816129a6565b9050919050565b7f4e6f20686f6c64696e67730000000000000000000000000000000000000000005f82015250565b5f612a1a600b83611bdb565b9150612a25826129e6565b602082019050919050565b5f6020820190508181035f830152612a4781612a0e565b9050919050565b7f5a65726f20746f6b656e206164647265737300000000000000000000000000005f82015250565b5f612a82601283611bdb565b9150612a8d82612a4e565b602082019050919050565b5f6020820190508181035f830152612aaf81612a76565b9050919050565b5f60208284031215612acb57612aca611568565b5b5f612ad884828501612629565b91505092915050565b7f5a65726f207765696768740000000000000000000000000000000000000000005f82015250565b5f612b15600b83611bdb565b9150612b2082612ae1565b602082019050919050565b5f6020820190508181035f830152612b4281612b09565b9050919050565b7f576569676874203e2031303025000000000000000000000000000000000000005f82015250565b5f612b7d600d83611bdb565b9150612b8882612b49565b602082019050919050565b5f6020820190508181035f830152612baa81612b71565b9050919050565b5f612bbb8261174b565b9150612bc68361174b565b9250828201905080821115612bde57612bdd61213c565b5b92915050565b7f4475706c696361746520746f6b656e20696e20686f6c64696e677300000000005f82015250565b5f612c18601b83611bdb565b9150612c2382612be4565b602082019050919050565b5f6020820190508181035f830152612c4581612c0c565b9050919050565b7f57656967687473206d7573742073756d20746f203130302500000000000000005f82015250565b5f612c80601883611bdb565b9150612c8b82612c4c565b602082019050919050565b5f6020820190508181035f830152612cad81612c74565b9050919050565b7f496e64657820776974682073616d6520746f6b656e2d776569676874207365745f8201527f2065786973747300000000000000000000000000000000000000000000000000602082015250565b5f612d0e602783611bdb565b9150612d1982612cb4565b604082019050919050565b5f6020820190508181035f830152612d3b81612d02565b9050919050565b5f612d4c8261174b565b9150612d578361174b565b9250828203905081811115612d6f57612d6e61213c565b5b92915050565b7f4469726563746f72792063616e6e6f74206265207a65726f20616464726573735f82015250565b5f612da9602083611bdb565b9150612db482612d75565b602082019050919050565b5f6020820190508181035f830152612dd681612d9d565b9050919050565b7f4469726563746f7279206d757374206265206120636f6e7472616374000000005f82015250565b5f612e11601c83611bdb565b9150612e1c82612ddd565b602082019050919050565b5f6020820190508181035f830152612e3e81612e05565b9050919050565b7f4469726563746f7279206164647265737320646f6573206e6f7420696d706c655f8201527f6d656e74206f776e657228290000000000000000000000000000000000000000602082015250565b5f612e9f602c83611bdb565b9150612eaa82612e45565b604082019050919050565b5f6020820190508181035f830152612ecc81612e93565b9050919050565b5f5ffd5b5f60408284031215612eec57612eeb612ed3565b5b612ef660406115e6565b90505f612f0584828501611b9c565b5f830152506020612f1884828501612629565b60208301525092915050565b5f60408284031215612f3957612f38611568565b5b5f612f4684828501612ed7565b91505092915050565b5f81519050919050565b5f82825260208201905092915050565b5f819050602082019050919050565b5f612f8383836118c3565b60208301905092915050565b5f602082019050919050565b5f612fa582612f4f565b612faf8185612f59565b9350612fba83612f69565b805f5b83811015612fea578151612fd18882612f78565b9750612fdc83612f8f565b925050600181019050612fbd565b5085935050505092915050565b5f81519050919050565b5f82825260208201905092915050565b5f819050602082019050919050565b5f61302b83836118df565b60208301905092915050565b5f602082019050919050565b5f61304d82612ff7565b6130578185613001565b935061306283613011565b805f5b838110156130925781516130798882613020565b975061308483613037565b925050600181019050613065565b5085935050505092915050565b5f6040820190508181035f8301526130b78185612f9b565b905081810360208301526130cb8184613043565b9050939250505056fea26469706673582212200b25bfb234e1a8611ef5f5b3dc63e9fe3ff3e430b4389592d4795447d78c5f4364736f6c634300081e0033",
					"opcodes": "PUSH1 0x80 PUSH1 0x40 MSTORE CALLVALUE DUP1 ISZERO PUSH2 0xF JUMPI PUSH0 PUSH0 REVERT JUMPDEST POP PUSH1 0x40 MLOAD PUSH2 0x3508 CODESIZE SUB DUP1 PUSH2 0x3508 DUP4 CODECOPY DUP2 DUP2 ADD PUSH1 0x40 MSTORE DUP2 ADD SWAP1 PUSH2 0x31 SWAP2 SWAP1 PUSH2 0x258 JUMP JUMPDEST DUP1 PUSH2 0x41 DUP2 PUSH2 0x48 PUSH1 0x20 SHL PUSH1 0x20 SHR JUMP JUMPDEST POP POP PUSH2 0x3F1 JUMP JUMPDEST PUSH0 PUSH20 0xFFFFFFFFFFFFFFFFFFFFFFFFFFFFFFFFFFFFFFFF AND DUP2 PUSH20 0xFFFFFFFFFFFFFFFFFFFFFFFFFFFFFFFFFFFFFFFF AND SUB PUSH2 0xB6 JUMPI PUSH1 0x40 MLOAD PUSH32 0x8C379A000000000000000000000000000000000000000000000000000000000 DUP2 MSTORE PUSH1 0x4 ADD PUSH2 0xAD SWAP1 PUSH2 0x2DD JUMP JUMPDEST PUSH1 0x40 MLOAD DUP1 SWAP2 SUB SWAP1 REVERT JUMPDEST PUSH0 DUP2 PUSH20 0xFFFFFFFFFFFFFFFFFFFFFFFFFFFFFFFFFFFFFFFF AND EXTCODESIZE GT PUSH2 0x10F JUMPI PUSH1 0x40 MLOAD PUSH32 0x8C379A000000000000000000000000000000000000000000000000000000000 DUP2 MSTORE PUSH1 0x4 ADD PUSH2 0x106 SWAP1 PUSH2 0x345 JUMP JUMPDEST PUSH1 0x40 MLOAD DUP1 SWAP2 SUB SWAP1 REVERT JUMPDEST DUP1 PUSH20 0xFFFFFFFFFFFFFFFFFFFFFFFFFFFFFFFFFFFFFFFF AND PUSH4 0x8DA5CB5B PUSH1 0x40 MLOAD DUP2 PUSH4 0xFFFFFFFF AND PUSH1 0xE0 SHL DUP2 MSTORE PUSH1 0x4 ADD PUSH1 0x20 PUSH1 0x40 MLOAD DUP1 DUP4 SUB DUP2 DUP7 GAS STATICCALL SWAP3 POP POP POP DUP1 ISZERO PUSH2 0x177 JUMPI POP PUSH1 0x40 MLOAD RETURNDATASIZE PUSH1 0x1F NOT PUSH1 0x1F DUP3 ADD AND DUP3 ADD DUP1 PUSH1 0x40 MSTORE POP DUP2 ADD SWAP1 PUSH2 0x174 SWAP2 SWAP1 PUSH2 0x258 JUMP JUMPDEST PUSH1 0x1 JUMPDEST PUSH2 0x1B6 JUMPI PUSH1 0x40 MLOAD PUSH32 0x8C379A000000000000000000000000000000000000000000000000000000000 DUP2 MSTORE PUSH1 0x4 ADD PUSH2 0x1AD SWAP1 PUSH2 0x3D3 JUMP JUMPDEST PUSH1 0x40 MLOAD DUP1 SWAP2 SUB SWAP1 REVERT JUMPDEST DUP2 PUSH1 0x3 PUSH0 PUSH2 0x100 EXP DUP2 SLOAD DUP2 PUSH20 0xFFFFFFFFFFFFFFFFFFFFFFFFFFFFFFFFFFFFFFFF MUL NOT AND SWAP1 DUP4 PUSH20 0xFFFFFFFFFFFFFFFFFFFFFFFFFFFFFFFFFFFFFFFF AND MUL OR SWAP1 SSTORE POP POP POP JUMP JUMPDEST PUSH0 PUSH0 REVERT JUMPDEST PUSH0 PUSH20 0xFFFFFFFFFFFFFFFFFFFFFFFFFFFFFFFFFFFFFFFF DUP3 AND SWAP1 POP SWAP2 SWAP1 POP JUMP JUMPDEST PUSH0 PUSH2 0x227 DUP3 PUSH2 0x1FE JUMP JUMPDEST SWAP1 POP SWAP2 SWAP1 POP JUMP JUMPDEST PUSH2 0x237 DUP2 PUSH2 0x21D JUMP JUMPDEST DUP2 EQ PUSH2 0x241 JUMPI PUSH0 PUSH0 REVERT JUMPDEST POP JUMP JUMPDEST PUSH0 DUP2 MLOAD SWAP1 POP PUSH2 0x252 DUP2 PUSH2 0x22E JUMP JUMPDEST SWAP3 SWAP2 POP POP JUMP JUMPDEST PUSH0 PUSH1 0x20 DUP3 DUP5 SUB SLT ISZERO PUSH2 0x26D JUMPI PUSH2 0x26C PUSH2 0x1FA JUMP JUMPDEST JUMPDEST PUSH0 PUSH2 0x27A DUP5 DUP3 DUP6 ADD PUSH2 0x244 JUMP JUMPDEST SWAP2 POP POP SWAP3 SWAP2 POP POP JUMP JUMPDEST PUSH0 DUP3 DUP3 MSTORE PUSH1 0x20 DUP3 ADD SWAP1 POP SWAP3 SWAP2 POP POP JUMP JUMPDEST PUSH32 0x4469726563746F72792063616E6E6F74206265207A65726F2061646472657373 PUSH0 DUP3 ADD MSTORE POP JUMP JUMPDEST PUSH0 PUSH2 0x2C7 PUSH1 0x20 DUP4 PUSH2 0x283 JUMP JUMPDEST SWAP2 POP PUSH2 0x2D2 DUP3 PUSH2 0x293 JUMP JUMPDEST PUSH1 0x20 DUP3 ADD SWAP1 POP SWAP2 SWAP1 POP JUMP JUMPDEST PUSH0 PUSH1 0x20 DUP3 ADD SWAP1 POP DUP2 DUP2 SUB PUSH0 DUP4 ADD MSTORE PUSH2 0x2F4 DUP2 PUSH2 0x2BB JUMP JUMPDEST SWAP1 POP SWAP2 SWAP1 POP JUMP JUMPDEST PUSH32 0x4469726563746F7279206D757374206265206120636F6E747261637400000000 PUSH0 DUP3 ADD MSTORE POP JUMP JUMPDEST PUSH0 PUSH2 0x32F PUSH1 0x1C DUP4 PUSH2 0x283 JUMP JUMPDEST SWAP2 POP PUSH2 0x33A DUP3 PUSH2 0x2FB JUMP JUMPDEST PUSH1 0x20 DUP3 ADD SWAP1 POP SWAP2 SWAP1 POP JUMP JUMPDEST PUSH0 PUSH1 0x20 DUP3 ADD SWAP1 POP DUP2 DUP2 SUB PUSH0 DUP4 ADD MSTORE PUSH2 0x35C DUP2 PUSH2 0x323 JUMP JUMPDEST SWAP1 POP SWAP2 SWAP1 POP JUMP JUMPDEST PUSH32 0x4469726563746F7279206164647265737320646F6573206E6F7420696D706C65 PUSH0 DUP3 ADD MSTORE PUSH32 0x6D656E74206F776E657228290000000000000000000000000000000000000000 PUSH1 0x20 DUP3 ADD MSTORE POP JUMP JUMPDEST PUSH0 PUSH2 0x3BD PUSH1 0x2C DUP4 PUSH2 0x283 JUMP JUMPDEST SWAP2 POP PUSH2 0x3C8 DUP3 PUSH2 0x363 JUMP JUMPDEST PUSH1 0x40 DUP3 ADD SWAP1 POP SWAP2 SWAP1 POP JUMP JUMPDEST PUSH0 PUSH1 0x20 DUP3 ADD SWAP1 POP DUP2 DUP2 SUB PUSH0 DUP4 ADD MSTORE PUSH2 0x3EA DUP2 PUSH2 0x3B1 JUMP JUMPDEST SWAP1 POP SWAP2 SWAP1 POP JUMP JUMPDEST PUSH2 0x310A DUP1 PUSH2 0x3FE PUSH0 CODECOPY PUSH0 RETURN INVALID PUSH1 0x80 PUSH1 0x40 MSTORE CALLVALUE DUP1 ISZERO PUSH2 0xF JUMPI PUSH0 PUSH0 REVERT JUMPDEST POP PUSH1 0x4 CALLDATASIZE LT PUSH2 0x9C JUMPI PUSH0 CALLDATALOAD PUSH1 0xE0 SHR DUP1 PUSH4 0x658A847A GT PUSH2 0x64 JUMPI DUP1 PUSH4 0x658A847A EQ PUSH2 0x16C JUMPI DUP1 PUSH4 0x8DA5CB5B EQ PUSH2 0x18A JUMPI DUP1 PUSH4 0xAB73314D EQ PUSH2 0x1A8 JUMPI DUP1 PUSH4 0xACEC338A EQ PUSH2 0x1D8 JUMPI DUP1 PUSH4 0xBA4C7BE1 EQ PUSH2 0x1F4 JUMPI PUSH2 0x9C JUMP JUMPDEST DUP1 PUSH4 0x22F3E2D4 EQ PUSH2 0xA0 JUMPI DUP1 PUSH4 0x27262618 EQ PUSH2 0xBE JUMPI DUP1 PUSH4 0x2FF910CE EQ PUSH2 0xEE JUMPI DUP1 PUSH4 0x428D9A93 EQ PUSH2 0x10C JUMPI DUP1 PUSH4 0x549E122B EQ PUSH2 0x13C JUMPI JUMPDEST PUSH0 PUSH0 REVERT JUMPDEST PUSH2 0xA8 PUSH2 0x210 JUMP JUMPDEST PUSH1 0x40 MLOAD PUSH2 0xB5 SWAP2 SWAP1 PUSH2 0x1546 JUMP JUMPDEST PUSH1 0x40 MLOAD DUP1 SWAP2 SUB SWAP1 RETURN JUMPDEST PUSH2 0xD8 PUSH1 0x4 DUP1 CALLDATASIZE SUB DUP2 ADD SWAP1 PUSH2 0xD3 SWAP2 SWAP1 PUSH2 0x16AC JUMP JUMPDEST PUSH2 0x223 JUMP JUMPDEST PUSH1 0x40 MLOAD PUSH2 0xE5 SWAP2 SWAP1 PUSH2 0x1732 JUMP JUMPDEST PUSH1 0x40 MLOAD DUP1 SWAP2 SUB SWAP1 RETURN JUMPDEST PUSH2 0xF6 PUSH2 0x2C4 JUMP JUMPDEST PUSH1 0x40 MLOAD PUSH2 0x103 SWAP2 SWAP1 PUSH2 0x1763 JUMP JUMPDEST PUSH1 0x40 MLOAD DUP1 SWAP2 SUB SWAP1 RETURN JUMPDEST PUSH2 0x126 PUSH1 0x4 DUP1 CALLDATASIZE SUB DUP2 ADD SWAP1 PUSH2 0x121 SWAP2 SWAP1 PUSH2 0x179E JUMP JUMPDEST PUSH2 0x2CF JUMP JUMPDEST PUSH1 0x40 MLOAD PUSH2 0x133 SWAP2 SWAP1 PUSH2 0x1763 JUMP JUMPDEST PUSH1 0x40 MLOAD DUP1 SWAP2 SUB SWAP1 RETURN JUMPDEST PUSH2 0x156 PUSH1 0x4 DUP1 CALLDATASIZE SUB DUP2 ADD SWAP1 PUSH2 0x151 SWAP2 SWAP1 PUSH2 0x180F JUMP JUMPDEST PUSH2 0x4E6 JUMP JUMPDEST PUSH1 0x40 MLOAD PUSH2 0x163 SWAP2 SWAP1 PUSH2 0x19F5 JUMP JUMPDEST PUSH1 0x40 MLOAD DUP1 SWAP2 SUB SWAP1 RETURN JUMPDEST PUSH2 0x174 PUSH2 0x763 JUMP JUMPDEST PUSH1 0x40 MLOAD PUSH2 0x181 SWAP2 SWAP1 PUSH2 0x1A70 JUMP JUMPDEST PUSH1 0x40 MLOAD DUP1 SWAP2 SUB SWAP1 RETURN JUMPDEST PUSH2 0x192 PUSH2 0x788 JUMP JUMPDEST PUSH1 0x40 MLOAD PUSH2 0x19F SWAP2 SWAP1 PUSH2 0x1732 JUMP JUMPDEST PUSH1 0x40 MLOAD DUP1 SWAP2 SUB SWAP1 RETURN JUMPDEST PUSH2 0x1C2 PUSH1 0x4 DUP1 CALLDATASIZE SUB DUP2 ADD SWAP1 PUSH2 0x1BD SWAP2 SWAP1 PUSH2 0x1AE6 JUMP JUMPDEST PUSH2 0x81C JUMP JUMPDEST PUSH1 0x40 MLOAD PUSH2 0x1CF SWAP2 SWAP1 PUSH2 0x19F5 JUMP JUMPDEST PUSH1 0x40 MLOAD DUP1 SWAP2 SUB SWAP1 RETURN JUMPDEST PUSH2 0x1F2 PUSH1 0x4 DUP1 CALLDATASIZE SUB DUP2 ADD SWAP1 PUSH2 0x1ED SWAP2 SWAP1 PUSH2 0x1B5B JUMP JUMPDEST PUSH2 0x89C JUMP JUMPDEST STOP JUMPDEST PUSH2 0x20E PUSH1 0x4 DUP1 CALLDATASIZE SUB DUP2 ADD SWAP1 PUSH2 0x209 SWAP2 SWAP1 PUSH2 0x1BB0 JUMP JUMPDEST PUSH2 0x9B4 JUMP JUMPDEST STOP JUMPDEST PUSH1 0x3 PUSH1 0x14 SWAP1 SLOAD SWAP1 PUSH2 0x100 EXP SWAP1 DIV PUSH1 0xFF AND DUP2 JUMP JUMPDEST PUSH0 PUSH1 0x3 PUSH0 SWAP1 SLOAD SWAP1 PUSH2 0x100 EXP SWAP1 DIV PUSH20 0xFFFFFFFFFFFFFFFFFFFFFFFFFFFFFFFFFFFFFFFF AND PUSH20 0xFFFFFFFFFFFFFFFFFFFFFFFFFFFFFFFFFFFFFFFF AND PUSH4 0x27262618 DUP4 PUSH1 0x40 MLOAD DUP3 PUSH4 0xFFFFFFFF AND PUSH1 0xE0 SHL DUP2 MSTORE PUSH1 0x4 ADD PUSH2 0x27E SWAP2 SWAP1 PUSH2 0x1C23 JUMP JUMPDEST PUSH1 0x20 PUSH1 0x40 MLOAD DUP1 DUP4 SUB DUP2 DUP7 GAS STATICCALL ISZERO DUP1 ISZERO PUSH2 0x299 JUMPI RETURNDATASIZE PUSH0 PUSH0 RETURNDATACOPY RETURNDATASIZE PUSH0 REVERT JUMPDEST POP POP POP POP PUSH1 0x40 MLOAD RETURNDATASIZE PUSH1 0x1F NOT PUSH1 0x1F DUP3 ADD AND DUP3 ADD DUP1 PUSH1 0x40 MSTORE POP DUP2 ADD SWAP1 PUSH2 0x2BD SWAP2 SWAP1 PUSH2 0x1C57 JUMP JUMPDEST SWAP1 POP SWAP2 SWAP1 POP JUMP JUMPDEST PUSH0 PUSH0 DUP1 SLOAD SWAP1 POP SWAP1 POP SWAP1 JUMP JUMPDEST PUSH0 PUSH2 0x30E PUSH1 0x40 MLOAD DUP1 PUSH1 0x40 ADD PUSH1 0x40 MSTORE DUP1 PUSH1 0xB DUP2 MSTORE PUSH1 0x20 ADD PUSH32 0x6574662D666163746F7279000000000000000000000000000000000000000000 DUP2 MSTORE POP PUSH2 0x223 JUMP JUMPDEST PUSH20 0xFFFFFFFFFFFFFFFFFFFFFFFFFFFFFFFFFFFFFFFF AND CALLER PUSH20 0xFFFFFFFFFFFFFFFFFFFFFFFFFFFFFFFFFFFFFFFF AND EQ PUSH2 0x37B JUMPI PUSH1 0x40 MLOAD PUSH32 0x8C379A000000000000000000000000000000000000000000000000000000000 DUP2 MSTORE PUSH1 0x4 ADD PUSH2 0x372 SWAP1 PUSH2 0x1CCC JUMP JUMPDEST PUSH1 0x40 MLOAD DUP1 SWAP2 SUB SWAP1 REVERT JUMPDEST PUSH1 0x3 PUSH1 0x14 SWAP1 SLOAD SWAP1 PUSH2 0x100 EXP SWAP1 DIV PUSH1 0xFF AND PUSH2 0x3CA JUMPI PUSH1 0x40 MLOAD PUSH32 0x8C379A000000000000000000000000000000000000000000000000000000000 DUP2 MSTORE PUSH1 0x4 ADD PUSH2 0x3C1 SWAP1 PUSH2 0x1D34 JUMP JUMPDEST PUSH1 0x40 MLOAD DUP1 SWAP2 SUB SWAP1 REVERT JUMPDEST PUSH2 0x3E2 DUP3 DUP1 PUSH1 0x20 ADD SWAP1 PUSH2 0x3DD SWAP2 SWAP1 PUSH2 0x1D5E JUMP JUMPDEST PUSH2 0xABB JUMP JUMPDEST PUSH2 0x3FA DUP3 DUP1 PUSH1 0x40 ADD SWAP1 PUSH2 0x3F5 SWAP2 SWAP1 PUSH2 0x1DC0 JUMP JUMPDEST PUSH2 0xB66 JUMP JUMPDEST PUSH0 PUSH2 0x413 DUP4 DUP1 PUSH1 0x40 ADD SWAP1 PUSH2 0x40E SWAP2 SWAP1 PUSH2 0x1DC0 JUMP JUMPDEST PUSH2 0xE37 JUMP JUMPDEST SWAP1 POP PUSH0 PUSH2 0x423 PUSH0 DUP1 SLOAD SWAP1 POP PUSH2 0xE9D JUMP JUMPDEST SWAP1 POP PUSH0 DUP5 SWAP1 DUP1 PUSH1 0x1 DUP2 SLOAD ADD DUP1 DUP3 SSTORE DUP1 SWAP2 POP POP PUSH1 0x1 SWAP1 SUB SWAP1 PUSH0 MSTORE PUSH1 0x20 PUSH0 KECCAK256 SWAP1 PUSH1 0x3 MUL ADD PUSH0 SWAP1 SWAP2 SWAP1 SWAP2 SWAP1 SWAP2 POP DUP2 DUP2 PUSH2 0x459 SWAP2 SWAP1 PUSH2 0x24C3 JUMP JUMPDEST POP POP DUP1 PUSH1 0x1 DUP6 DUP1 PUSH1 0x20 ADD SWAP1 PUSH2 0x46E SWAP2 SWAP1 PUSH2 0x1D5E JUMP JUMPDEST PUSH1 0x40 MLOAD PUSH2 0x47C SWAP3 SWAP2 SWAP1 PUSH2 0x24FF JUMP JUMPDEST SWAP1 DUP2 MSTORE PUSH1 0x20 ADD PUSH1 0x40 MLOAD DUP1 SWAP2 SUB SWAP1 KECCAK256 DUP2 SWAP1 SSTORE POP DUP1 PUSH1 0x2 PUSH0 DUP5 DUP2 MSTORE PUSH1 0x20 ADD SWAP1 DUP2 MSTORE PUSH1 0x20 ADD PUSH0 KECCAK256 DUP2 SWAP1 SSTORE POP DUP1 PUSH32 0xD6ED4A1AC1542B666750AAD7222525E09A69CB032E35D999FD8C661223FC7CB6 DUP6 PUSH1 0x40 MLOAD PUSH2 0x4D4 SWAP2 SWAP1 PUSH2 0x2791 JUMP JUMPDEST PUSH1 0x40 MLOAD DUP1 SWAP2 SUB SWAP1 LOG2 DUP1 SWAP3 POP POP POP SWAP2 SWAP1 POP JUMP JUMPDEST PUSH2 0x4EE PUSH2 0x14D9 JUMP JUMPDEST PUSH0 DUP3 GT DUP1 ISZERO PUSH2 0x501 JUMPI POP PUSH0 DUP1 SLOAD SWAP1 POP DUP3 GT ISZERO JUMPDEST PUSH2 0x540 JUMPI PUSH1 0x40 MLOAD PUSH32 0x8C379A000000000000000000000000000000000000000000000000000000000 DUP2 MSTORE PUSH1 0x4 ADD PUSH2 0x537 SWAP1 PUSH2 0x27FB JUMP JUMPDEST PUSH1 0x40 MLOAD DUP1 SWAP2 SUB SWAP1 REVERT JUMPDEST PUSH0 PUSH2 0x54A DUP4 PUSH2 0xEB2 JUMP JUMPDEST DUP2 SLOAD DUP2 LT PUSH2 0x55B JUMPI PUSH2 0x55A PUSH2 0x2819 JUMP JUMPDEST JUMPDEST SWAP1 PUSH0 MSTORE PUSH1 0x20 PUSH0 KECCAK256 SWAP1 PUSH1 0x3 MUL ADD PUSH1 0x40 MLOAD DUP1 PUSH1 0x60 ADD PUSH1 0x40 MSTORE SWAP1 DUP2 PUSH0 DUP3 ADD DUP1 SLOAD PUSH2 0x581 SWAP1 PUSH2 0x1E85 JUMP JUMPDEST DUP1 PUSH1 0x1F ADD PUSH1 0x20 DUP1 SWAP2 DIV MUL PUSH1 0x20 ADD PUSH1 0x40 MLOAD SWAP1 DUP2 ADD PUSH1 0x40 MSTORE DUP1 SWAP3 SWAP2 SWAP1 DUP2 DUP2 MSTORE PUSH1 0x20 ADD DUP3 DUP1 SLOAD PUSH2 0x5AD SWAP1 PUSH2 0x1E85 JUMP JUMPDEST DUP1 ISZERO PUSH2 0x5F8 JUMPI DUP1 PUSH1 0x1F LT PUSH2 0x5CF JUMPI PUSH2 0x100 DUP1 DUP4 SLOAD DIV MUL DUP4 MSTORE SWAP2 PUSH1 0x20 ADD SWAP2 PUSH2 0x5F8 JUMP JUMPDEST DUP3 ADD SWAP2 SWAP1 PUSH0 MSTORE PUSH1 0x20 PUSH0 KECCAK256 SWAP1 JUMPDEST DUP2 SLOAD DUP2 MSTORE SWAP1 PUSH1 0x1 ADD SWAP1 PUSH1 0x20 ADD DUP1 DUP4 GT PUSH2 0x5DB JUMPI DUP3 SWAP1 SUB PUSH1 0x1F AND DUP3 ADD SWAP2 JUMPDEST POP POP POP POP POP DUP2 MSTORE PUSH1 0x20 ADD PUSH1 0x1 DUP3 ADD DUP1 SLOAD PUSH2 0x611 SWAP1 PUSH2 0x1E85 JUMP JUMPDEST DUP1 PUSH1 0x1F ADD PUSH1 0x20 DUP1 SWAP2 DIV MUL PUSH1 0x20 ADD PUSH1 0x40 MLOAD SWAP1 DUP2 ADD PUSH1 0x40 MSTORE DUP1 SWAP3 SWAP2 SWAP1 DUP2 DUP2 MSTORE PUSH1 0x20 ADD DUP3 DUP1 SLOAD PUSH2 0x63D SWAP1 PUSH2 0x1E85 JUMP JUMPDEST DUP1 ISZERO PUSH2 0x688 JUMPI DUP1 PUSH1 0x1F LT PUSH2 0x65F JUMPI PUSH2 0x100 DUP1 DUP4 SLOAD DIV MUL DUP4 MSTORE SWAP2 PUSH1 0x20 ADD SWAP2 PUSH2 0x688 JUMP JUMPDEST DUP3 ADD SWAP2 SWAP1 PUSH0 MSTORE PUSH1 0x20 PUSH0 KECCAK256 SWAP1 JUMPDEST DUP2 SLOAD DUP2 MSTORE SWAP1 PUSH1 0x1 ADD SWAP1 PUSH1 0x20 ADD DUP1 DUP4 GT PUSH2 0x66B JUMPI DUP3 SWAP1 SUB PUSH1 0x1F AND DUP3 ADD SWAP2 JUMPDEST POP POP POP POP POP DUP2 MSTORE PUSH1 0x20 ADD PUSH1 0x2 DUP3 ADD DUP1 SLOAD DUP1 PUSH1 0x20 MUL PUSH1 0x20 ADD PUSH1 0x40 MLOAD SWAP1 DUP2 ADD PUSH1 0x40 MSTORE DUP1 SWAP3 SWAP2 SWAP1 DUP2 DUP2 MSTORE PUSH1 0x20 ADD PUSH0 SWAP1 JUMPDEST DUP3 DUP3 LT ISZERO PUSH2 0x754 JUMPI DUP4 DUP3 SWAP1 PUSH0 MSTORE PUSH1 0x20 PUSH0 KECCAK256 ADD PUSH1 0x40 MLOAD DUP1 PUSH1 0x40 ADD PUSH1 0x40 MSTORE SWAP1 DUP2 PUSH0 DUP3 ADD PUSH0 SWAP1 SLOAD SWAP1 PUSH2 0x100 EXP SWAP1 DIV PUSH20 0xFFFFFFFFFFFFFFFFFFFFFFFFFFFFFFFFFFFFFFFF AND PUSH20 0xFFFFFFFFFFFFFFFFFFFFFFFFFFFFFFFFFFFFFFFF AND PUSH20 0xFFFFFFFFFFFFFFFFFFFFFFFFFFFFFFFFFFFFFFFF AND DUP2 MSTORE PUSH1 0x20 ADD PUSH0 DUP3 ADD PUSH1 0x14 SWAP1 SLOAD SWAP1 PUSH2 0x100 EXP SWAP1 DIV PUSH2 0xFFFF AND PUSH2 0xFFFF AND PUSH2 0xFFFF AND DUP2 MSTORE POP POP DUP2 MSTORE PUSH1 0x20 ADD SWAP1 PUSH1 0x1 ADD SWAP1 PUSH2 0x6B5 JUMP JUMPDEST POP POP POP POP DUP2 MSTORE POP POP SWAP1 POP SWAP2 SWAP1 POP JUMP JUMPDEST PUSH1 0x3 PUSH0 SWAP1 SLOAD SWAP1 PUSH2 0x100 EXP SWAP1 DIV PUSH20 0xFFFFFFFFFFFFFFFFFFFFFFFFFFFFFFFFFFFFFFFF AND DUP2 JUMP JUMPDEST PUSH0 PUSH1 0x3 PUSH0 SWAP1 SLOAD SWAP1 PUSH2 0x100 EXP SWAP1 DIV PUSH20 0xFFFFFFFFFFFFFFFFFFFFFFFFFFFFFFFFFFFFFFFF AND PUSH20 0xFFFFFFFFFFFFFFFFFFFFFFFFFFFFFFFFFFFFFFFF AND PUSH4 0x8DA5CB5B PUSH1 0x40 MLOAD DUP2 PUSH4 0xFFFFFFFF AND PUSH1 0xE0 SHL DUP2 MSTORE PUSH1 0x4 ADD PUSH1 0x20 PUSH1 0x40 MLOAD DUP1 DUP4 SUB DUP2 DUP7 GAS STATICCALL ISZERO DUP1 ISZERO PUSH2 0x7F3 JUMPI RETURNDATASIZE PUSH0 PUSH0 RETURNDATACOPY RETURNDATASIZE PUSH0 REVERT JUMPDEST POP POP POP POP PUSH1 0x40 MLOAD RETURNDATASIZE PUSH1 0x1F NOT PUSH1 0x1F DUP3 ADD AND DUP3 ADD DUP1 PUSH1 0x40 MSTORE POP DUP2 ADD SWAP1 PUSH2 0x817 SWAP2 SWAP1 PUSH2 0x1C57 JUMP JUMPDEST SWAP1 POP SWAP1 JUMP JUMPDEST PUSH2 0x824 PUSH2 0x14D9 JUMP JUMPDEST PUSH0 PUSH1 0x1 DUP5 DUP5 PUSH1 0x40 MLOAD PUSH2 0x837 SWAP3 SWAP2 SWAP1 PUSH2 0x24FF JUMP JUMPDEST SWAP1 DUP2 MSTORE PUSH1 0x20 ADD PUSH1 0x40 MLOAD DUP1 SWAP2 SUB SWAP1 KECCAK256 SLOAD SWAP1 POP PUSH0 DUP2 SUB PUSH2 0x88A JUMPI PUSH1 0x40 MLOAD PUSH32 0x8C379A000000000000000000000000000000000000000000000000000000000 DUP2 MSTORE PUSH1 0x4 ADD PUSH2 0x881 SWAP1 PUSH2 0x2890 JUMP JUMPDEST PUSH1 0x40 MLOAD DUP1 SWAP2 SUB SWAP1 REVERT JUMPDEST PUSH2 0x893 DUP2 PUSH2 0x4E6 JUMP JUMPDEST SWAP2 POP POP SWAP3 SWAP2 POP POP JUMP JUMPDEST PUSH1 0x3 PUSH0 SWAP1 SLOAD SWAP1 PUSH2 0x100 EXP SWAP1 DIV PUSH20 0xFFFFFFFFFFFFFFFFFFFFFFFFFFFFFFFFFFFFFFFF AND PUSH20 0xFFFFFFFFFFFFFFFFFFFFFFFFFFFFFFFFFFFFFFFF AND PUSH4 0x8DA5CB5B PUSH1 0x40 MLOAD DUP2 PUSH4 0xFFFFFFFF AND PUSH1 0xE0 SHL DUP2 MSTORE PUSH1 0x4 ADD PUSH1 0x20 PUSH1 0x40 MLOAD DUP1 DUP4 SUB DUP2 DUP7 GAS STATICCALL ISZERO DUP1 ISZERO PUSH2 0x906 JUMPI RETURNDATASIZE PUSH0 PUSH0 RETURNDATACOPY RETURNDATASIZE PUSH0 REVERT JUMPDEST POP POP POP POP PUSH1 0x40 MLOAD RETURNDATASIZE PUSH1 0x1F NOT PUSH1 0x1F DUP3 ADD AND DUP3 ADD DUP1 PUSH1 0x40 MSTORE POP DUP2 ADD SWAP1 PUSH2 0x92A SWAP2 SWAP1 PUSH2 0x1C57 JUMP JUMPDEST PUSH20 0xFFFFFFFFFFFFFFFFFFFFFFFFFFFFFFFFFFFFFFFF AND CALLER PUSH20 0xFFFFFFFFFFFFFFFFFFFFFFFFFFFFFFFFFFFFFFFF AND EQ PUSH2 0x997 JUMPI PUSH1 0x40 MLOAD PUSH32 0x8C379A000000000000000000000000000000000000000000000000000000000 DUP2 MSTORE PUSH1 0x4 ADD PUSH2 0x98E SWAP1 PUSH2 0x28F8 JUMP JUMPDEST PUSH1 0x40 MLOAD DUP1 SWAP2 SUB SWAP1 REVERT JUMPDEST DUP1 PUSH1 0x3 PUSH1 0x14 PUSH2 0x100 EXP DUP2 SLOAD DUP2 PUSH1 0xFF MUL NOT AND SWAP1 DUP4 ISZERO ISZERO MUL OR SWAP1 SSTORE POP POP JUMP JUMPDEST PUSH1 0x3 PUSH0 SWAP1 SLOAD SWAP1 PUSH2 0x100 EXP SWAP1 DIV PUSH20 0xFFFFFFFFFFFFFFFFFFFFFFFFFFFFFFFFFFFFFFFF AND PUSH20 0xFFFFFFFFFFFFFFFFFFFFFFFFFFFFFFFFFFFFFFFF AND PUSH4 0x8DA5CB5B PUSH1 0x40 MLOAD DUP2 PUSH4 0xFFFFFFFF AND PUSH1 0xE0 SHL DUP2 MSTORE PUSH1 0x4 ADD PUSH1 0x20 PUSH1 0x40 MLOAD DUP1 DUP4 SUB DUP2 DUP7 GAS STATICCALL ISZERO DUP1 ISZERO PUSH2 0xA1E JUMPI RETURNDATASIZE PUSH0 PUSH0 RETURNDATACOPY RETURNDATASIZE PUSH0 REVERT JUMPDEST POP POP POP POP PUSH1 0x40 MLOAD RETURNDATASIZE PUSH1 0x1F NOT PUSH1 0x1F DUP3 ADD AND DUP3 ADD DUP1 PUSH1 0x40 MSTORE POP DUP2 ADD SWAP1 PUSH2 0xA42 SWAP2 SWAP1 PUSH2 0x1C57 JUMP JUMPDEST PUSH20 0xFFFFFFFFFFFFFFFFFFFFFFFFFFFFFFFFFFFFFFFF AND CALLER PUSH20 0xFFFFFFFFFFFFFFFFFFFFFFFFFFFFFFFFFFFFFFFF AND EQ PUSH2 0xAAF JUMPI PUSH1 0x40 MLOAD PUSH32 0x8C379A000000000000000000000000000000000000000000000000000000000 DUP2 MSTORE PUSH1 0x4 ADD PUSH2 0xAA6 SWAP1 PUSH2 0x28F8 JUMP JUMPDEST PUSH1 0x40 MLOAD DUP1 SWAP2 SUB SWAP1 REVERT JUMPDEST PUSH2 0xAB8 DUP2 PUSH2 0xEC7 JUMP JUMPDEST POP JUMP JUMPDEST PUSH0 DUP3 DUP3 SWAP1 POP SUB PUSH2 0xB00 JUMPI PUSH1 0x40 MLOAD PUSH32 0x8C379A000000000000000000000000000000000000000000000000000000000 DUP2 MSTORE PUSH1 0x4 ADD PUSH2 0xAF7 SWAP1 PUSH2 0x2960 JUMP JUMPDEST PUSH1 0x40 MLOAD DUP1 SWAP2 SUB SWAP1 REVERT JUMPDEST PUSH0 PUSH1 0x1 DUP4 DUP4 PUSH1 0x40 MLOAD PUSH2 0xB13 SWAP3 SWAP2 SWAP1 PUSH2 0x24FF JUMP JUMPDEST SWAP1 DUP2 MSTORE PUSH1 0x20 ADD PUSH1 0x40 MLOAD DUP1 SWAP2 SUB SWAP1 KECCAK256 SLOAD EQ PUSH2 0xB62 JUMPI PUSH1 0x40 MLOAD PUSH32 0x8C379A000000000000000000000000000000000000000000000000000000000 DUP2 MSTORE PUSH1 0x4 ADD PUSH2 0xB59 SWAP1 PUSH2 0x29C8 JUMP JUMPDEST PUSH1 0x40 MLOAD DUP1 SWAP2 SUB SWAP1 REVERT JUMPDEST POP POP JUMP JUMPDEST PUSH0 DUP3 DUP3 SWAP1 POP SWAP1 POP PUSH0 DUP2 GT PUSH2 0xBAF JUMPI PUSH1 0x40 MLOAD PUSH32 0x8C379A000000000000000000000000000000000000000000000000000000000 DUP2 MSTORE PUSH1 0x4 ADD PUSH2 0xBA6 SWAP1 PUSH2 0x2A30 JUMP JUMPDEST PUSH1 0x40 MLOAD DUP1 SWAP2 SUB SWAP1 REVERT JUMPDEST PUSH0 PUSH0 PUSH0 SWAP1 POP JUMPDEST DUP3 DUP2 LT ISZERO PUSH2 0xDEC JUMPI PUSH0 DUP6 DUP6 DUP4 DUP2 DUP2 LT PUSH2 0xBD1 JUMPI PUSH2 0xBD0 PUSH2 0x2819 JUMP JUMPDEST JUMPDEST SWAP1 POP PUSH1 0x40 MUL ADD PUSH0 ADD PUSH1 0x20 DUP2 ADD SWAP1 PUSH2 0xBE8 SWAP2 SWAP1 PUSH2 0x1BB0 JUMP JUMPDEST SWAP1 POP PUSH0 PUSH20 0xFFFFFFFFFFFFFFFFFFFFFFFFFFFFFFFFFFFFFFFF AND DUP2 PUSH20 0xFFFFFFFFFFFFFFFFFFFFFFFFFFFFFFFFFFFFFFFF AND SUB PUSH2 0xC58 JUMPI PUSH1 0x40 MLOAD PUSH32 0x8C379A000000000000000000000000000000000000000000000000000000000 DUP2 MSTORE PUSH1 0x4 ADD PUSH2 0xC4F SWAP1 PUSH2 0x2A98 JUMP JUMPDEST PUSH1 0x40 MLOAD DUP1 SWAP2 SUB SWAP1 REVERT JUMPDEST PUSH0 DUP7 DUP7 DUP5 DUP2 DUP2 LT PUSH2 0xC6C JUMPI PUSH2 0xC6B PUSH2 0x2819 JUMP JUMPDEST JUMPDEST SWAP1 POP PUSH1 0x40 MUL ADD PUSH1 0x20 ADD PUSH1 0x20 DUP2 ADD SWAP1 PUSH2 0xC84 SWAP2 SWAP1 PUSH2 0x2AB6 JUMP JUMPDEST PUSH2 0xFFFF AND SWAP1 POP PUSH0 DUP2 GT PUSH2 0xCCC JUMPI PUSH1 0x40 MLOAD PUSH32 0x8C379A000000000000000000000000000000000000000000000000000000000 DUP2 MSTORE PUSH1 0x4 ADD PUSH2 0xCC3 SWAP1 PUSH2 0x2B2B JUMP JUMPDEST PUSH1 0x40 MLOAD DUP1 SWAP2 SUB SWAP1 REVERT JUMPDEST PUSH2 0x2710 DUP2 GT ISZERO PUSH2 0xD11 JUMPI PUSH1 0x40 MLOAD PUSH32 0x8C379A000000000000000000000000000000000000000000000000000000000 DUP2 MSTORE PUSH1 0x4 ADD PUSH2 0xD08 SWAP1 PUSH2 0x2B93 JUMP JUMPDEST PUSH1 0x40 MLOAD DUP1 SWAP2 SUB SWAP1 REVERT JUMPDEST DUP1 DUP5 PUSH2 0xD1D SWAP2 SWAP1 PUSH2 0x2BB1 JUMP JUMPDEST SWAP4 POP PUSH0 PUSH1 0x1 DUP5 PUSH2 0xD2D SWAP2 SWAP1 PUSH2 0x2BB1 JUMP JUMPDEST SWAP1 POP JUMPDEST DUP6 DUP2 LT ISZERO PUSH2 0xDDC JUMPI DUP8 DUP8 DUP3 DUP2 DUP2 LT PUSH2 0xD4B JUMPI PUSH2 0xD4A PUSH2 0x2819 JUMP JUMPDEST JUMPDEST SWAP1 POP PUSH1 0x40 MUL ADD PUSH0 ADD PUSH1 0x20 DUP2 ADD SWAP1 PUSH2 0xD62 SWAP2 SWAP1 PUSH2 0x1BB0 JUMP JUMPDEST PUSH20 0xFFFFFFFFFFFFFFFFFFFFFFFFFFFFFFFFFFFFFFFF AND DUP4 PUSH20 0xFFFFFFFFFFFFFFFFFFFFFFFFFFFFFFFFFFFFFFFF AND SUB PUSH2 0xDCF JUMPI PUSH1 0x40 MLOAD PUSH32 0x8C379A000000000000000000000000000000000000000000000000000000000 DUP2 MSTORE PUSH1 0x4 ADD PUSH2 0xDC6 SWAP1 PUSH2 0x2C2E JUMP JUMPDEST PUSH1 0x40 MLOAD DUP1 SWAP2 SUB SWAP1 REVERT JUMPDEST DUP1 DUP1 PUSH1 0x1 ADD SWAP2 POP POP PUSH2 0xD30 JUMP JUMPDEST POP POP POP DUP1 DUP1 PUSH1 0x1 ADD SWAP2 POP POP PUSH2 0xBB5 JUMP JUMPDEST POP PUSH2 0x2710 DUP2 EQ PUSH2 0xE31 JUMPI PUSH1 0x40 MLOAD PUSH32 0x8C379A000000000000000000000000000000000000000000000000000000000 DUP2 MSTORE PUSH1 0x4 ADD PUSH2 0xE28 SWAP1 PUSH2 0x2C96 JUMP JUMPDEST PUSH1 0x40 MLOAD DUP1 SWAP2 SUB SWAP1 REVERT JUMPDEST POP POP POP POP JUMP JUMPDEST PUSH0 PUSH2 0xE42 DUP4 DUP4 PUSH2 0x1079 JUMP JUMPDEST SWAP1 POP PUSH0 PUSH1 0x2 PUSH0 DUP4 DUP2 MSTORE PUSH1 0x20 ADD SWAP1 DUP2 MSTORE PUSH1 0x20 ADD PUSH0 KECCAK256 SLOAD EQ PUSH2 0xE97 JUMPI PUSH1 0x40 MLOAD PUSH32 0x8C379A000000000000000000000000000000000000000000000000000000000 DUP2 MSTORE PUSH1 0x4 ADD PUSH2 0xE8E SWAP1 PUSH2 0x2D24 JUMP JUMPDEST PUSH1 0x40 MLOAD DUP1 SWAP2 SUB SWAP1 REVERT JUMPDEST SWAP3 SWAP2 POP POP JUMP JUMPDEST PUSH0 PUSH1 0x1 DUP3 PUSH2 0xEAB SWAP2 SWAP1 PUSH2 0x2BB1 JUMP JUMPDEST SWAP1 POP SWAP2 SWAP1 POP JUMP JUMPDEST PUSH0 PUSH1 0x1 DUP3 PUSH2 0xEC0 SWAP2 SWAP1 PUSH2 0x2D42 JUMP JUMPDEST SWAP1 POP SWAP2 SWAP1 POP JUMP JUMPDEST PUSH0 PUSH20 0xFFFFFFFFFFFFFFFFFFFFFFFFFFFFFFFFFFFFFFFF AND DUP2 PUSH20 0xFFFFFFFFFFFFFFFFFFFFFFFFFFFFFFFFFFFFFFFF AND SUB PUSH2 0xF35 JUMPI PUSH1 0x40 MLOAD PUSH32 0x8C379A000000000000000000000000000000000000000000000000000000000 DUP2 MSTORE PUSH1 0x4 ADD PUSH2 0xF2C SWAP1 PUSH2 0x2DBF JUMP JUMPDEST PUSH1 0x40 MLOAD DUP1 SWAP2 SUB SWAP1 REVERT JUMPDEST PUSH0 DUP2 PUSH20 0xFFFFFFFFFFFFFFFFFFFFFFFFFFFFFFFFFFFFFFFF AND EXTCODESIZE GT PUSH2 0xF8E JUMPI PUSH1 0x40 MLOAD PUSH32 0x8C379A000000000000000000000000000000000000000000000000000000000 DUP2 MSTORE PUSH1 0x4 ADD PUSH2 0xF85 SWAP1 PUSH2 0x2E27 JUMP JUMPDEST PUSH1 0x40 MLOAD DUP1 SWAP2 SUB SWAP1 REVERT JUMPDEST DUP1 PUSH20 0xFFFFFFFFFFFFFFFFFFFFFFFFFFFFFFFFFFFFFFFF AND PUSH4 0x8DA5CB5B PUSH1 0x40 MLOAD DUP2 PUSH4 0xFFFFFFFF AND PUSH1 0xE0 SHL DUP2 MSTORE PUSH1 0x4 ADD PUSH1 0x20 PUSH1 0x40 MLOAD DUP1 DUP4 SUB DUP2 DUP7 GAS STATICCALL SWAP3 POP POP POP DUP1 ISZERO PUSH2 0xFF6 JUMPI POP PUSH1 0x40 MLOAD RETURNDATASIZE PUSH1 0x1F NOT PUSH1 0x1F DUP3 ADD AND DUP3 ADD DUP1 PUSH1 0x40 MSTORE POP DUP2 ADD SWAP1 PUSH2 0xFF3 SWAP2 SWAP1 PUSH2 0x1C57 JUMP JUMPDEST PUSH1 0x1 JUMPDEST PUSH2 0x1035 JUMPI PUSH1 0x40 MLOAD PUSH32 0x8C379A000000000000000000000000000000000000000000000000000000000 DUP2 MSTORE PUSH1 0x4 ADD PUSH2 0x102C SWAP1 PUSH2 0x2EB5 JUMP JUMPDEST PUSH1 0x40 MLOAD DUP1 SWAP2 SUB SWAP1 REVERT JUMPDEST DUP2 PUSH1 0x3 PUSH0 PUSH2 0x100 EXP DUP2 SLOAD DUP2 PUSH20 0xFFFFFFFFFFFFFFFFFFFFFFFFFFFFFFFFFFFFFFFF MUL NOT AND SWAP1 DUP4 PUSH20 0xFFFFFFFFFFFFFFFFFFFFFFFFFFFFFFFFFFFFFFFF AND MUL OR SWAP1 SSTORE POP POP POP JUMP JUMPDEST PUSH0 PUSH0 DUP4 DUP4 SWAP1 POP SWAP1 POP PUSH0 DUP2 PUSH8 0xFFFFFFFFFFFFFFFF DUP2 GT ISZERO PUSH2 0x109C JUMPI PUSH2 0x109B PUSH2 0x1588 JUMP JUMPDEST JUMPDEST PUSH1 0x40 MLOAD SWAP1 DUP1 DUP3 MSTORE DUP1 PUSH1 0x20 MUL PUSH1 0x20 ADD DUP3 ADD PUSH1 0x40 MSTORE DUP1 ISZERO PUSH2 0x10D5 JUMPI DUP2 PUSH1 0x20 ADD JUMPDEST PUSH2 0x10C2 PUSH2 0x14FA JUMP JUMPDEST DUP2 MSTORE PUSH1 0x20 ADD SWAP1 PUSH1 0x1 SWAP1 SUB SWAP1 DUP2 PUSH2 0x10BA JUMPI SWAP1 POP JUMPDEST POP SWAP1 POP PUSH0 PUSH0 SWAP1 POP JUMPDEST DUP3 DUP2 LT ISZERO PUSH2 0x1139 JUMPI DUP6 DUP6 DUP3 DUP2 DUP2 LT PUSH2 0x10F8 JUMPI PUSH2 0x10F7 PUSH2 0x2819 JUMP JUMPDEST JUMPDEST SWAP1 POP PUSH1 0x40 MUL ADD DUP1 CALLDATASIZE SUB DUP2 ADD SWAP1 PUSH2 0x110E SWAP2 SWAP1 PUSH2 0x2F24 JUMP JUMPDEST DUP3 DUP3 DUP2 MLOAD DUP2 LT PUSH2 0x1121 JUMPI PUSH2 0x1120 PUSH2 0x2819 JUMP JUMPDEST JUMPDEST PUSH1 0x20 MUL PUSH1 0x20 ADD ADD DUP2 SWAP1 MSTORE POP DUP1 DUP1 PUSH1 0x1 ADD SWAP2 POP POP PUSH2 0x10DD JUMP JUMPDEST POP PUSH2 0x1143 DUP2 PUSH2 0x12DE JUMP JUMPDEST PUSH0 DUP3 PUSH8 0xFFFFFFFFFFFFFFFF DUP2 GT ISZERO PUSH2 0x115E JUMPI PUSH2 0x115D PUSH2 0x1588 JUMP JUMPDEST JUMPDEST PUSH1 0x40 MLOAD SWAP1 DUP1 DUP3 MSTORE DUP1 PUSH1 0x20 MUL PUSH1 0x20 ADD DUP3 ADD PUSH1 0x40 MSTORE DUP1 ISZERO PUSH2 0x118C JUMPI DUP2 PUSH1 0x20 ADD PUSH1 0x20 DUP3 MUL DUP1 CALLDATASIZE DUP4 CALLDATACOPY DUP1 DUP3 ADD SWAP2 POP POP SWAP1 POP JUMPDEST POP SWAP1 POP PUSH0 DUP4 PUSH8 0xFFFFFFFFFFFFFFFF DUP2 GT ISZERO PUSH2 0x11AA JUMPI PUSH2 0x11A9 PUSH2 0x1588 JUMP JUMPDEST JUMPDEST PUSH1 0x40 MLOAD SWAP1 DUP1 DUP3 MSTORE DUP1 PUSH1 0x20 MUL PUSH1 0x20 ADD DUP3 ADD PUSH1 0x40 MSTORE DUP1 ISZERO PUSH2 0x11D8 JUMPI DUP2 PUSH1 0x20 ADD PUSH1 0x20 DUP3 MUL DUP1 CALLDATASIZE DUP4 CALLDATACOPY DUP1 DUP3 ADD SWAP2 POP POP SWAP1 POP JUMPDEST POP SWAP1 POP PUSH0 PUSH0 SWAP1 POP JUMPDEST DUP5 DUP2 LT ISZERO PUSH2 0x12A8 JUMPI DUP4 DUP2 DUP2 MLOAD DUP2 LT PUSH2 0x11FB JUMPI PUSH2 0x11FA PUSH2 0x2819 JUMP JUMPDEST JUMPDEST PUSH1 0x20 MUL PUSH1 0x20 ADD ADD MLOAD PUSH0 ADD MLOAD DUP4 DUP3 DUP2 MLOAD DUP2 LT PUSH2 0x1219 JUMPI PUSH2 0x1218 PUSH2 0x2819 JUMP JUMPDEST JUMPDEST PUSH1 0x20 MUL PUSH1 0x20 ADD ADD SWAP1 PUSH20 0xFFFFFFFFFFFFFFFFFFFFFFFFFFFFFFFFFFFFFFFF AND SWAP1 DUP2 PUSH20 0xFFFFFFFFFFFFFFFFFFFFFFFFFFFFFFFFFFFFFFFF AND DUP2 MSTORE POP POP DUP4 DUP2 DUP2 MLOAD DUP2 LT PUSH2 0x1266 JUMPI PUSH2 0x1265 PUSH2 0x2819 JUMP JUMPDEST JUMPDEST PUSH1 0x20 MUL PUSH1 0x20 ADD ADD MLOAD PUSH1 0x20 ADD MLOAD DUP3 DUP3 DUP2 MLOAD DUP2 LT PUSH2 0x1285 JUMPI PUSH2 0x1284 PUSH2 0x2819 JUMP JUMPDEST JUMPDEST PUSH1 0x20 MUL PUSH1 0x20 ADD ADD SWAP1 PUSH2 0xFFFF AND SWAP1 DUP2 PUSH2 0xFFFF AND DUP2 MSTORE POP POP DUP1 DUP1 PUSH1 0x1 ADD SWAP2 POP POP PUSH2 0x11E0 JUMP JUMPDEST POP DUP2 DUP2 PUSH1 0x40 MLOAD PUSH1 0x20 ADD PUSH2 0x12BC SWAP3 SWAP2 SWAP1 PUSH2 0x309F JUMP JUMPDEST PUSH1 0x40 MLOAD PUSH1 0x20 DUP2 DUP4 SUB SUB DUP2 MSTORE SWAP1 PUSH1 0x40 MSTORE DUP1 MLOAD SWAP1 PUSH1 0x20 ADD KECCAK256 SWAP5 POP POP POP POP POP SWAP3 SWAP2 POP POP JUMP JUMPDEST PUSH0 DUP2 MLOAD SWAP1 POP PUSH0 PUSH0 SWAP1 POP JUMPDEST DUP2 DUP2 LT ISZERO PUSH2 0x14D4 JUMPI PUSH0 DUP2 SWAP1 POP PUSH0 PUSH1 0x1 DUP4 PUSH2 0x1302 SWAP2 SWAP1 PUSH2 0x2BB1 JUMP JUMPDEST SWAP1 POP JUMPDEST DUP4 DUP2 LT ISZERO PUSH2 0x144B JUMPI DUP5 DUP3 DUP2 MLOAD DUP2 LT PUSH2 0x1320 JUMPI PUSH2 0x131F PUSH2 0x2819 JUMP JUMPDEST JUMPDEST PUSH1 0x20 MUL PUSH1 0x20 ADD ADD MLOAD PUSH0 ADD MLOAD PUSH20 0xFFFFFFFFFFFFFFFFFFFFFFFFFFFFFFFFFFFFFFFF AND DUP6 DUP3 DUP2 MLOAD DUP2 LT PUSH2 0x1354 JUMPI PUSH2 0x1353 PUSH2 0x2819 JUMP JUMPDEST JUMPDEST PUSH1 0x20 MUL PUSH1 0x20 ADD ADD MLOAD PUSH0 ADD MLOAD PUSH20 0xFFFFFFFFFFFFFFFFFFFFFFFFFFFFFFFFFFFFFFFF AND LT DUP1 PUSH2 0x1435 JUMPI POP DUP5 DUP3 DUP2 MLOAD DUP2 LT PUSH2 0x138F JUMPI PUSH2 0x138E PUSH2 0x2819 JUMP JUMPDEST JUMPDEST PUSH1 0x20 MUL PUSH1 0x20 ADD ADD MLOAD PUSH0 ADD MLOAD PUSH20 0xFFFFFFFFFFFFFFFFFFFFFFFFFFFFFFFFFFFFFFFF AND DUP6 DUP3 DUP2 MLOAD DUP2 LT PUSH2 0x13C3 JUMPI PUSH2 0x13C2 PUSH2 0x2819 JUMP JUMPDEST JUMPDEST PUSH1 0x20 MUL PUSH1 0x20 ADD ADD MLOAD PUSH0 ADD MLOAD PUSH20 0xFFFFFFFFFFFFFFFFFFFFFFFFFFFFFFFFFFFFFFFF AND EQ DUP1 ISZERO PUSH2 0x1434 JUMPI POP DUP5 DUP3 DUP2 MLOAD DUP2 LT PUSH2 0x13FF JUMPI PUSH2 0x13FE PUSH2 0x2819 JUMP JUMPDEST JUMPDEST PUSH1 0x20 MUL PUSH1 0x20 ADD ADD MLOAD PUSH1 0x20 ADD MLOAD PUSH2 0xFFFF AND DUP6 DUP3 DUP2 MLOAD DUP2 LT PUSH2 0x1422 JUMPI PUSH2 0x1421 PUSH2 0x2819 JUMP JUMPDEST JUMPDEST PUSH1 0x20 MUL PUSH1 0x20 ADD ADD MLOAD PUSH1 0x20 ADD MLOAD PUSH2 0xFFFF AND LT JUMPDEST JUMPDEST ISZERO PUSH2 0x143E JUMPI DUP1 SWAP2 POP JUMPDEST DUP1 DUP1 PUSH1 0x1 ADD SWAP2 POP POP PUSH2 0x1305 JUMP JUMPDEST POP DUP2 DUP2 EQ PUSH2 0x14C6 JUMPI DUP4 DUP2 DUP2 MLOAD DUP2 LT PUSH2 0x1466 JUMPI PUSH2 0x1465 PUSH2 0x2819 JUMP JUMPDEST JUMPDEST PUSH1 0x20 MUL PUSH1 0x20 ADD ADD MLOAD DUP5 DUP4 DUP2 MLOAD DUP2 LT PUSH2 0x1481 JUMPI PUSH2 0x1480 PUSH2 0x2819 JUMP JUMPDEST JUMPDEST PUSH1 0x20 MUL PUSH1 0x20 ADD ADD MLOAD DUP6 DUP5 DUP2 MLOAD DUP2 LT PUSH2 0x149C JUMPI PUSH2 0x149B PUSH2 0x2819 JUMP JUMPDEST JUMPDEST PUSH1 0x20 MUL PUSH1 0x20 ADD ADD DUP7 DUP5 DUP2 MLOAD DUP2 LT PUSH2 0x14B6 JUMPI PUSH2 0x14B5 PUSH2 0x2819 JUMP JUMPDEST JUMPDEST PUSH1 0x20 MUL PUSH1 0x20 ADD ADD DUP3 SWAP1 MSTORE DUP3 SWAP1 MSTORE POP POP JUMPDEST POP DUP1 DUP1 PUSH1 0x1 ADD SWAP2 POP POP PUSH2 0x12E8 JUMP JUMPDEST POP POP POP JUMP JUMPDEST PUSH1 0x40 MLOAD DUP1 PUSH1 0x60 ADD PUSH1 0x40 MSTORE DUP1 PUSH1 0x60 DUP2 MSTORE PUSH1 0x20 ADD PUSH1 0x60 DUP2 MSTORE PUSH1 0x20 ADD PUSH1 0x60 DUP2 MSTORE POP SWAP1 JUMP JUMPDEST PUSH1 0x40 MLOAD DUP1 PUSH1 0x40 ADD PUSH1 0x40 MSTORE DUP1 PUSH0 PUSH20 0xFFFFFFFFFFFFFFFFFFFFFFFFFFFFFFFFFFFFFFFF AND DUP2 MSTORE PUSH1 0x20 ADD PUSH0 PUSH2 0xFFFF AND DUP2 MSTORE POP SWAP1 JUMP JUMPDEST PUSH0 DUP2 ISZERO ISZERO SWAP1 POP SWAP2 SWAP1 POP JUMP JUMPDEST PUSH2 0x1540 DUP2 PUSH2 0x152C JUMP JUMPDEST DUP3 MSTORE POP POP JUMP JUMPDEST PUSH0 PUSH1 0x20 DUP3 ADD SWAP1 POP PUSH2 0x1559 PUSH0 DUP4 ADD DUP5 PUSH2 0x1537 JUMP JUMPDEST SWAP3 SWAP2 POP POP JUMP JUMPDEST PUSH0 PUSH1 0x40 MLOAD SWAP1 POP SWAP1 JUMP JUMPDEST PUSH0 PUSH0 REVERT JUMPDEST PUSH0 PUSH0 REVERT JUMPDEST PUSH0 PUSH0 REVERT JUMPDEST PUSH0 PUSH0 REVERT JUMPDEST PUSH0 PUSH1 0x1F NOT PUSH1 0x1F DUP4 ADD AND SWAP1 POP SWAP2 SWAP1 POP JUMP JUMPDEST PUSH32 0x4E487B7100000000000000000000000000000000000000000000000000000000 PUSH0 MSTORE PUSH1 0x41 PUSH1 0x4 MSTORE PUSH1 0x24 PUSH0 REVERT JUMPDEST PUSH2 0x15BE DUP3 PUSH2 0x1578 JUMP JUMPDEST DUP2 ADD DUP2 DUP2 LT PUSH8 0xFFFFFFFFFFFFFFFF DUP3 GT OR ISZERO PUSH2 0x15DD JUMPI PUSH2 0x15DC PUSH2 0x1588 JUMP JUMPDEST JUMPDEST DUP1 PUSH1 0x40 MSTORE POP POP POP JUMP JUMPDEST PUSH0 PUSH2 0x15EF PUSH2 0x155F JUMP JUMPDEST SWAP1 POP PUSH2 0x15FB DUP3 DUP3 PUSH2 0x15B5 JUMP JUMPDEST SWAP2 SWAP1 POP JUMP JUMPDEST PUSH0 PUSH8 0xFFFFFFFFFFFFFFFF DUP3 GT ISZERO PUSH2 0x161A JUMPI PUSH2 0x1619 PUSH2 0x1588 JUMP JUMPDEST JUMPDEST PUSH2 0x1623 DUP3 PUSH2 0x1578 JUMP JUMPDEST SWAP1 POP PUSH1 0x20 DUP2 ADD SWAP1 POP SWAP2 SWAP1 POP JUMP JUMPDEST DUP3 DUP2 DUP4 CALLDATACOPY PUSH0 DUP4 DUP4 ADD MSTORE POP POP POP JUMP JUMPDEST PUSH0 PUSH2 0x1650 PUSH2 0x164B DUP5 PUSH2 0x1600 JUMP JUMPDEST PUSH2 0x15E6 JUMP JUMPDEST SWAP1 POP DUP3 DUP2 MSTORE PUSH1 0x20 DUP2 ADD DUP5 DUP5 DUP5 ADD GT ISZERO PUSH2 0x166C JUMPI PUSH2 0x166B PUSH2 0x1574 JUMP JUMPDEST JUMPDEST PUSH2 0x1677 DUP5 DUP3 DUP6 PUSH2 0x1630 JUMP JUMPDEST POP SWAP4 SWAP3 POP POP POP JUMP JUMPDEST PUSH0 DUP3 PUSH1 0x1F DUP4 ADD SLT PUSH2 0x1693 JUMPI PUSH2 0x1692 PUSH2 0x1570 JUMP JUMPDEST JUMPDEST DUP2 CALLDATALOAD PUSH2 0x16A3 DUP5 DUP3 PUSH1 0x20 DUP7 ADD PUSH2 0x163E JUMP JUMPDEST SWAP2 POP POP SWAP3 SWAP2 POP POP JUMP JUMPDEST PUSH0 PUSH1 0x20 DUP3 DUP5 SUB SLT ISZERO PUSH2 0x16C1 JUMPI PUSH2 0x16C0 PUSH2 0x1568 JUMP JUMPDEST JUMPDEST PUSH0 DUP3 ADD CALLDATALOAD PUSH8 0xFFFFFFFFFFFFFFFF DUP2 GT ISZERO PUSH2 0x16DE JUMPI PUSH2 0x16DD PUSH2 0x156C JUMP JUMPDEST JUMPDEST PUSH2 0x16EA DUP5 DUP3 DUP6 ADD PUSH2 0x167F JUMP JUMPDEST SWAP2 POP POP SWAP3 SWAP2 POP POP JUMP JUMPDEST PUSH0 PUSH20 0xFFFFFFFFFFFFFFFFFFFFFFFFFFFFFFFFFFFFFFFF DUP3 AND SWAP1 POP SWAP2 SWAP1 POP JUMP JUMPDEST PUSH0 PUSH2 0x171C DUP3 PUSH2 0x16F3 JUMP JUMPDEST SWAP1 POP SWAP2 SWAP1 POP JUMP JUMPDEST PUSH2 0x172C DUP2 PUSH2 0x1712 JUMP JUMPDEST DUP3 MSTORE POP POP JUMP JUMPDEST PUSH0 PUSH1 0x20 DUP3 ADD SWAP1 POP PUSH2 0x1745 PUSH0 DUP4 ADD DUP5 PUSH2 0x1723 JUMP JUMPDEST SWAP3 SWAP2 POP POP JUMP JUMPDEST PUSH0 DUP2 SWAP1 POP SWAP2 SWAP1 POP JUMP JUMPDEST PUSH2 0x175D DUP2 PUSH2 0x174B JUMP JUMPDEST DUP3 MSTORE POP POP JUMP JUMPDEST PUSH0 PUSH1 0x20 DUP3 ADD SWAP1 POP PUSH2 0x1776 PUSH0 DUP4 ADD DUP5 PUSH2 0x1754 JUMP JUMPDEST SWAP3 SWAP2 POP POP JUMP JUMPDEST PUSH0 PUSH0 REVERT JUMPDEST PUSH0 PUSH1 0x60 DUP3 DUP5 SUB SLT ISZERO PUSH2 0x1795 JUMPI PUSH2 0x1794 PUSH2 0x177C JUMP JUMPDEST JUMPDEST DUP2 SWAP1 POP SWAP3 SWAP2 POP POP JUMP JUMPDEST PUSH0 PUSH1 0x20 DUP3 DUP5 SUB SLT ISZERO PUSH2 0x17B3 JUMPI PUSH2 0x17B2 PUSH2 0x1568 JUMP JUMPDEST JUMPDEST PUSH0 DUP3 ADD CALLDATALOAD PUSH8 0xFFFFFFFFFFFFFFFF DUP2 GT ISZERO PUSH2 0x17D0 JUMPI PUSH2 0x17CF PUSH2 0x156C JUMP JUMPDEST JUMPDEST PUSH2 0x17DC DUP5 DUP3 DUP6 ADD PUSH2 0x1780 JUMP JUMPDEST SWAP2 POP POP SWAP3 SWAP2 POP POP JUMP JUMPDEST PUSH2 0x17EE DUP2 PUSH2 0x174B JUMP JUMPDEST DUP2 EQ PUSH2 0x17F8 JUMPI PUSH0 PUSH0 REVERT JUMPDEST POP JUMP JUMPDEST PUSH0 DUP2 CALLDATALOAD SWAP1 POP PUSH2 0x1809 DUP2 PUSH2 0x17E5 JUMP JUMPDEST SWAP3 SWAP2 POP POP JUMP JUMPDEST PUSH0 PUSH1 0x20 DUP3 DUP5 SUB SLT ISZERO PUSH2 0x1824 JUMPI PUSH2 0x1823 PUSH2 0x1568 JUMP JUMPDEST JUMPDEST PUSH0 PUSH2 0x1831 DUP5 DUP3 DUP6 ADD PUSH2 0x17FB JUMP JUMPDEST SWAP2 POP POP SWAP3 SWAP2 POP POP JUMP JUMPDEST PUSH0 DUP2 MLOAD SWAP1 POP SWAP2 SWAP1 POP JUMP JUMPDEST PUSH0 DUP3 DUP3 MSTORE PUSH1 0x20 DUP3 ADD SWAP1 POP SWAP3 SWAP2 POP POP JUMP JUMPDEST DUP3 DUP2 DUP4 MCOPY PUSH0 DUP4 DUP4 ADD MSTORE POP POP POP JUMP JUMPDEST PUSH0 PUSH2 0x186C DUP3 PUSH2 0x183A JUMP JUMPDEST PUSH2 0x1876 DUP2 DUP6 PUSH2 0x1844 JUMP JUMPDEST SWAP4 POP PUSH2 0x1886 DUP2 DUP6 PUSH1 0x20 DUP7 ADD PUSH2 0x1854 JUMP JUMPDEST PUSH2 0x188F DUP2 PUSH2 0x1578 JUMP JUMPDEST DUP5 ADD SWAP2 POP POP SWAP3 SWAP2 POP POP JUMP JUMPDEST PUSH0 DUP2 MLOAD SWAP1 POP SWAP2 SWAP1 POP JUMP JUMPDEST PUSH0 DUP3 DUP3 MSTORE PUSH1 0x20 DUP3 ADD SWAP1 POP SWAP3 SWAP2 POP POP JUMP JUMPDEST PUSH0 DUP2 SWAP1 POP PUSH1 0x20 DUP3 ADD SWAP1 POP SWAP2 SWAP1 POP JUMP JUMPDEST PUSH2 0x18CC DUP2 PUSH2 0x1712 JUMP JUMPDEST DUP3 MSTORE POP POP JUMP JUMPDEST PUSH0 PUSH2 0xFFFF DUP3 AND SWAP1 POP SWAP2 SWAP1 POP JUMP JUMPDEST PUSH2 0x18E8 DUP2 PUSH2 0x18D2 JUMP JUMPDEST DUP3 MSTORE POP POP JUMP JUMPDEST PUSH1 0x40 DUP3 ADD PUSH0 DUP3 ADD MLOAD PUSH2 0x1902 PUSH0 DUP6 ADD DUP3 PUSH2 0x18C3 JUMP JUMPDEST POP PUSH1 0x20 DUP3 ADD MLOAD PUSH2 0x1915 PUSH1 0x20 DUP6 ADD DUP3 PUSH2 0x18DF JUMP JUMPDEST POP POP POP POP JUMP JUMPDEST PUSH0 PUSH2 0x1926 DUP4 DUP4 PUSH2 0x18EE JUMP JUMPDEST PUSH1 0x40 DUP4 ADD SWAP1 POP SWAP3 SWAP2 POP POP JUMP JUMPDEST PUSH0 PUSH1 0x20 DUP3 ADD SWAP1 POP SWAP2 SWAP1 POP JUMP JUMPDEST PUSH0 PUSH2 0x1948 DUP3 PUSH2 0x189A JUMP JUMPDEST PUSH2 0x1952 DUP2 DUP6 PUSH2 0x18A4 JUMP JUMPDEST SWAP4 POP PUSH2 0x195D DUP4 PUSH2 0x18B4 JUMP JUMPDEST DUP1 PUSH0 JUMPDEST DUP4 DUP2 LT ISZERO PUSH2 0x198D JUMPI DUP2 MLOAD PUSH2 0x1974 DUP9 DUP3 PUSH2 0x191B JUMP JUMPDEST SWAP8 POP PUSH2 0x197F DUP4 PUSH2 0x1932 JUMP JUMPDEST SWAP3 POP POP PUSH1 0x1 DUP2 ADD SWAP1 POP PUSH2 0x1960 JUMP JUMPDEST POP DUP6 SWAP4 POP POP POP POP SWAP3 SWAP2 POP POP JUMP JUMPDEST PUSH0 PUSH1 0x60 DUP4 ADD PUSH0 DUP4 ADD MLOAD DUP5 DUP3 SUB PUSH0 DUP7 ADD MSTORE PUSH2 0x19B4 DUP3 DUP3 PUSH2 0x1862 JUMP JUMPDEST SWAP2 POP POP PUSH1 0x20 DUP4 ADD MLOAD DUP5 DUP3 SUB PUSH1 0x20 DUP7 ADD MSTORE PUSH2 0x19CE DUP3 DUP3 PUSH2 0x1862 JUMP JUMPDEST SWAP2 POP POP PUSH1 0x40 DUP4 ADD MLOAD DUP5 DUP3 SUB PUSH1 0x40 DUP7 ADD MSTORE PUSH2 0x19E8 DUP3 DUP3 PUSH2 0x193E JUMP JUMPDEST SWAP2 POP POP DUP1 SWAP2 POP POP SWAP3 SWAP2 POP POP JUMP JUMPDEST PUSH0 PUSH1 0x20 DUP3 ADD SWAP1 POP DUP2 DUP2 SUB PUSH0 DUP4 ADD MSTORE PUSH2 0x1A0D DUP2 DUP5 PUSH2 0x199A JUMP JUMPDEST SWAP1 POP SWAP3 SWAP2 POP POP JUMP JUMPDEST PUSH0 DUP2 SWAP1 POP SWAP2 SWAP1 POP JUMP JUMPDEST PUSH0 PUSH2 0x1A38 PUSH2 0x1A33 PUSH2 0x1A2E DUP5 PUSH2 0x16F3 JUMP JUMPDEST PUSH2 0x1A15 JUMP JUMPDEST PUSH2 0x16F3 JUMP JUMPDEST SWAP1 POP SWAP2 SWAP1 POP JUMP JUMPDEST PUSH0 PUSH2 0x1A49 DUP3 PUSH2 0x1A1E JUMP JUMPDEST SWAP1 POP SWAP2 SWAP1 POP JUMP JUMPDEST PUSH0 PUSH2 0x1A5A DUP3 PUSH2 0x1A3F JUMP JUMPDEST SWAP1 POP SWAP2 SWAP1 POP JUMP JUMPDEST PUSH2 0x1A6A DUP2 PUSH2 0x1A50 JUMP JUMPDEST DUP3 MSTORE POP POP JUMP JUMPDEST PUSH0 PUSH1 0x20 DUP3 ADD SWAP1 POP PUSH2 0x1A83 PUSH0 DUP4 ADD DUP5 PUSH2 0x1A61 JUMP JUMPDEST SWAP3 SWAP2 POP POP JUMP JUMPDEST PUSH0 PUSH0 REVERT JUMPDEST PUSH0 PUSH0 REVERT JUMPDEST PUSH0 PUSH0 DUP4 PUSH1 0x1F DUP5 ADD SLT PUSH2 0x1AA6 JUMPI PUSH2 0x1AA5 PUSH2 0x1570 JUMP JUMPDEST JUMPDEST DUP3 CALLDATALOAD SWAP1 POP PUSH8 0xFFFFFFFFFFFFFFFF DUP2 GT ISZERO PUSH2 0x1AC3 JUMPI PUSH2 0x1AC2 PUSH2 0x1A89 JUMP JUMPDEST JUMPDEST PUSH1 0x20 DUP4 ADD SWAP2 POP DUP4 PUSH1 0x1 DUP3 MUL DUP4 ADD GT ISZERO PUSH2 0x1ADF JUMPI PUSH2 0x1ADE PUSH2 0x1A8D JUMP JUMPDEST JUMPDEST SWAP3 POP SWAP3 SWAP1 POP JUMP JUMPDEST PUSH0 PUSH0 PUSH1 0x20 DUP4 DUP6 SUB SLT ISZERO PUSH2 0x1AFC JUMPI PUSH2 0x1AFB PUSH2 0x1568 JUMP JUMPDEST JUMPDEST PUSH0 DUP4 ADD CALLDATALOAD PUSH8 0xFFFFFFFFFFFFFFFF DUP2 GT ISZERO PUSH2 0x1B19 JUMPI PUSH2 0x1B18 PUSH2 0x156C JUMP JUMPDEST JUMPDEST PUSH2 0x1B25 DUP6 DUP3 DUP7 ADD PUSH2 0x1A91 JUMP JUMPDEST SWAP3 POP SWAP3 POP POP SWAP3 POP SWAP3 SWAP1 POP JUMP JUMPDEST PUSH2 0x1B3A DUP2 PUSH2 0x152C JUMP JUMPDEST DUP2 EQ PUSH2 0x1B44 JUMPI PUSH0 PUSH0 REVERT JUMPDEST POP JUMP JUMPDEST PUSH0 DUP2 CALLDATALOAD SWAP1 POP PUSH2 0x1B55 DUP2 PUSH2 0x1B31 JUMP JUMPDEST SWAP3 SWAP2 POP POP JUMP JUMPDEST PUSH0 PUSH1 0x20 DUP3 DUP5 SUB SLT ISZERO PUSH2 0x1B70 JUMPI PUSH2 0x1B6F PUSH2 0x1568 JUMP JUMPDEST JUMPDEST PUSH0 PUSH2 0x1B7D DUP5 DUP3 DUP6 ADD PUSH2 0x1B47 JUMP JUMPDEST SWAP2 POP POP SWAP3 SWAP2 POP POP JUMP JUMPDEST PUSH2 0x1B8F DUP2 PUSH2 0x1712 JUMP JUMPDEST DUP2 EQ PUSH2 0x1B99 JUMPI PUSH0 PUSH0 REVERT JUMPDEST POP JUMP JUMPDEST PUSH0 DUP2 CALLDATALOAD SWAP1 POP PUSH2 0x1BAA DUP2 PUSH2 0x1B86 JUMP JUMPDEST SWAP3 SWAP2 POP POP JUMP JUMPDEST PUSH0 PUSH1 0x20 DUP3 DUP5 SUB SLT ISZERO PUSH2 0x1BC5 JUMPI PUSH2 0x1BC4 PUSH2 0x1568 JUMP JUMPDEST JUMPDEST PUSH0 PUSH2 0x1BD2 DUP5 DUP3 DUP6 ADD PUSH2 0x1B9C JUMP JUMPDEST SWAP2 POP POP SWAP3 SWAP2 POP POP JUMP JUMPDEST PUSH0 DUP3 DUP3 MSTORE PUSH1 0x20 DUP3 ADD SWAP1 POP SWAP3 SWAP2 POP POP JUMP JUMPDEST PUSH0 PUSH2 0x1BF5 DUP3 PUSH2 0x183A JUMP JUMPDEST PUSH2 0x1BFF DUP2 DUP6 PUSH2 0x1BDB JUMP JUMPDEST SWAP4 POP PUSH2 0x1C0F DUP2 DUP6 PUSH1 0x20 DUP7 ADD PUSH2 0x1854 JUMP JUMPDEST PUSH2 0x1C18 DUP2 PUSH2 0x1578 JUMP JUMPDEST DUP5 ADD SWAP2 POP POP SWAP3 SWAP2 POP POP JUMP JUMPDEST PUSH0 PUSH1 0x20 DUP3 ADD SWAP1 POP DUP2 DUP2 SUB PUSH0 DUP4 ADD MSTORE PUSH2 0x1C3B DUP2 DUP5 PUSH2 0x1BEB JUMP JUMPDEST SWAP1 POP SWAP3 SWAP2 POP POP JUMP JUMPDEST PUSH0 DUP2 MLOAD SWAP1 POP PUSH2 0x1C51 DUP2 PUSH2 0x1B86 JUMP JUMPDEST SWAP3 SWAP2 POP POP JUMP JUMPDEST PUSH0 PUSH1 0x20 DUP3 DUP5 SUB SLT ISZERO PUSH2 0x1C6C JUMPI PUSH2 0x1C6B PUSH2 0x1568 JUMP JUMPDEST JUMPDEST PUSH0 PUSH2 0x1C79 DUP5 DUP3 DUP6 ADD PUSH2 0x1C43 JUMP JUMPDEST SWAP2 POP POP SWAP3 SWAP2 POP POP JUMP JUMPDEST PUSH32 0x6D73672E73656E646572206973206E6F742065746620666163746F7279000000 PUSH0 DUP3 ADD MSTORE POP JUMP JUMPDEST PUSH0 PUSH2 0x1CB6 PUSH1 0x1D DUP4 PUSH2 0x1BDB JUMP JUMPDEST SWAP2 POP PUSH2 0x1CC1 DUP3 PUSH2 0x1C82 JUMP JUMPDEST PUSH1 0x20 DUP3 ADD SWAP1 POP SWAP2 SWAP1 POP JUMP JUMPDEST PUSH0 PUSH1 0x20 DUP3 ADD SWAP1 POP DUP2 DUP2 SUB PUSH0 DUP4 ADD MSTORE PUSH2 0x1CE3 DUP2 PUSH2 0x1CAA JUMP JUMPDEST SWAP1 POP SWAP2 SWAP1 POP JUMP JUMPDEST PUSH32 0x436F6E7472616374206973206E6F742061637469766500000000000000000000 PUSH0 DUP3 ADD MSTORE POP JUMP JUMPDEST PUSH0 PUSH2 0x1D1E PUSH1 0x16 DUP4 PUSH2 0x1BDB JUMP JUMPDEST SWAP2 POP PUSH2 0x1D29 DUP3 PUSH2 0x1CEA JUMP JUMPDEST PUSH1 0x20 DUP3 ADD SWAP1 POP SWAP2 SWAP1 POP JUMP JUMPDEST PUSH0 PUSH1 0x20 DUP3 ADD SWAP1 POP DUP2 DUP2 SUB PUSH0 DUP4 ADD MSTORE PUSH2 0x1D4B DUP2 PUSH2 0x1D12 JUMP JUMPDEST SWAP1 POP SWAP2 SWAP1 POP JUMP JUMPDEST PUSH0 PUSH0 REVERT JUMPDEST PUSH0 PUSH0 REVERT JUMPDEST PUSH0 PUSH0 REVERT JUMPDEST PUSH0 PUSH0 DUP4 CALLDATALOAD PUSH1 0x1 PUSH1 0x20 SUB DUP5 CALLDATASIZE SUB SUB DUP2 SLT PUSH2 0x1D7A JUMPI PUSH2 0x1D79 PUSH2 0x1D52 JUMP JUMPDEST JUMPDEST DUP1 DUP5 ADD SWAP3 POP DUP3 CALLDATALOAD SWAP2 POP PUSH8 0xFFFFFFFFFFFFFFFF DUP3 GT ISZERO PUSH2 0x1D9C JUMPI PUSH2 0x1D9B PUSH2 0x1D56 JUMP JUMPDEST JUMPDEST PUSH1 0x20 DUP4 ADD SWAP3 POP PUSH1 0x1 DUP3 MUL CALLDATASIZE SUB DUP4 SGT ISZERO PUSH2 0x1DB8 JUMPI PUSH2 0x1DB7 PUSH2 0x1D5A JUMP JUMPDEST JUMPDEST POP SWAP3 POP SWAP3 SWAP1 POP JUMP JUMPDEST PUSH0 PUSH0 DUP4 CALLDATALOAD PUSH1 0x1 PUSH1 0x20 SUB DUP5 CALLDATASIZE SUB SUB DUP2 SLT PUSH2 0x1DDC JUMPI PUSH2 0x1DDB PUSH2 0x1D52 JUMP JUMPDEST JUMPDEST DUP1 DUP5 ADD SWAP3 POP DUP3 CALLDATALOAD SWAP2 POP PUSH8 0xFFFFFFFFFFFFFFFF DUP3 GT ISZERO PUSH2 0x1DFE JUMPI PUSH2 0x1DFD PUSH2 0x1D56 JUMP JUMPDEST JUMPDEST PUSH1 0x20 DUP4 ADD SWAP3 POP PUSH1 0x40 DUP3 MUL CALLDATASIZE SUB DUP4 SGT ISZERO PUSH2 0x1E1A JUMPI PUSH2 0x1E19 PUSH2 0x1D5A JUMP JUMPDEST JUMPDEST POP SWAP3 POP SWAP3 SWAP1 POP JUMP JUMPDEST PUSH32 0x4E487B7100000000000000000000000000000000000000000000000000000000 PUSH0 MSTORE PUSH0 PUSH1 0x4 MSTORE PUSH1 0x24 PUSH0 REVERT JUMPDEST PUSH0 DUP3 SWAP1 POP SWAP3 SWAP2 POP POP JUMP JUMPDEST PUSH32 0x4E487B7100000000000000000000000000000000000000000000000000000000 PUSH0 MSTORE PUSH1 0x22 PUSH1 0x4 MSTORE PUSH1 0x24 PUSH0 REVERT JUMPDEST PUSH0 PUSH1 0x2 DUP3 DIV SWAP1 POP PUSH1 0x1 DUP3 AND DUP1 PUSH2 0x1E9C JUMPI PUSH1 0x7F DUP3 AND SWAP2 POP JUMPDEST PUSH1 0x20 DUP3 LT DUP2 SUB PUSH2 0x1EAF JUMPI PUSH2 0x1EAE PUSH2 0x1E58 JUMP JUMPDEST JUMPDEST POP SWAP2 SWAP1 POP JUMP JUMPDEST PUSH0 DUP2 SWAP1 POP DUP2 PUSH0 MSTORE PUSH1 0x20 PUSH0 KECCAK256 SWAP1 POP SWAP2 SWAP1 POP JUMP JUMPDEST PUSH0 PUSH1 0x20 PUSH1 0x1F DUP4 ADD DIV SWAP1 POP SWAP2 SWAP1 POP JUMP JUMPDEST PUSH0 DUP3 DUP3 SHL SWAP1 POP SWAP3 SWAP2 POP POP JUMP JUMPDEST PUSH0 PUSH1 0x8 DUP4 MUL PUSH2 0x1F11 PUSH32 0xFFFFFFFFFFFFFFFFFFFFFFFFFFFFFFFFFFFFFFFFFFFFFFFFFFFFFFFFFFFFFFFF DUP3 PUSH2 0x1ED6 JUMP JUMPDEST PUSH2 0x1F1B DUP7 DUP4 PUSH2 0x1ED6 JUMP JUMPDEST SWAP6 POP DUP1 NOT DUP5 AND SWAP4 POP DUP1 DUP7 AND DUP5 OR SWAP3 POP POP POP SWAP4 SWAP3 POP POP POP JUMP JUMPDEST PUSH0 PUSH2 0x1F4D PUSH2 0x1F48 PUSH2 0x1F43 DUP5 PUSH2 0x174B JUMP JUMPDEST PUSH2 0x1A15 JUMP JUMPDEST PUSH2 0x174B JUMP JUMPDEST SWAP1 POP SWAP2 SWAP1 POP JUMP JUMPDEST PUSH0 DUP2 SWAP1 POP SWAP2 SWAP1 POP JUMP JUMPDEST PUSH2 0x1F66 DUP4 PUSH2 0x1F33 JUMP JUMPDEST PUSH2 0x1F7A PUSH2 0x1F72 DUP3 PUSH2 0x1F54 JUMP JUMPDEST DUP5 DUP5 SLOAD PUSH2 0x1EE2 JUMP JUMPDEST DUP3 SSTORE POP POP POP POP JUMP JUMPDEST PUSH0 PUSH0 SWAP1 POP SWAP1 JUMP JUMPDEST PUSH2 0x1F91 PUSH2 0x1F82 JUMP JUMPDEST PUSH2 0x1F9C DUP2 DUP5 DUP5 PUSH2 0x1F5D JUMP JUMPDEST POP POP POP JUMP JUMPDEST JUMPDEST DUP2 DUP2 LT ISZERO PUSH2 0x1FBF JUMPI PUSH2 0x1FB4 PUSH0 DUP3 PUSH2 0x1F89 JUMP JUMPDEST PUSH1 0x1 DUP2 ADD SWAP1 POP PUSH2 0x1FA2 JUMP JUMPDEST POP POP JUMP JUMPDEST PUSH1 0x1F DUP3 GT ISZERO PUSH2 0x2004 JUMPI PUSH2 0x1FD5 DUP2 PUSH2 0x1EB5 JUMP JUMPDEST PUSH2 0x1FDE DUP5 PUSH2 0x1EC7 JUMP JUMPDEST DUP2 ADD PUSH1 0x20 DUP6 LT ISZERO PUSH2 0x1FED JUMPI DUP2 SWAP1 POP JUMPDEST PUSH2 0x2001 PUSH2 0x1FF9 DUP6 PUSH2 0x1EC7 JUMP JUMPDEST DUP4 ADD DUP3 PUSH2 0x1FA1 JUMP JUMPDEST POP POP JUMPDEST POP POP POP JUMP JUMPDEST PUSH0 DUP3 DUP3 SHR SWAP1 POP SWAP3 SWAP2 POP POP JUMP JUMPDEST PUSH0 PUSH2 0x2024 PUSH0 NOT DUP5 PUSH1 0x8 MUL PUSH2 0x2009 JUMP JUMPDEST NOT DUP1 DUP4 AND SWAP2 POP POP SWAP3 SWAP2 POP POP JUMP JUMPDEST PUSH0 PUSH2 0x203C DUP4 DUP4 PUSH2 0x2015 JUMP JUMPDEST SWAP2 POP DUP3 PUSH1 0x2 MUL DUP3 OR SWAP1 POP SWAP3 SWAP2 POP POP JUMP JUMPDEST PUSH2 0x2056 DUP4 DUP4 PUSH2 0x1E4E JUMP JUMPDEST PUSH8 0xFFFFFFFFFFFFFFFF DUP2 GT ISZERO PUSH2 0x206F JUMPI PUSH2 0x206E PUSH2 0x1588 JUMP JUMPDEST JUMPDEST PUSH2 0x2079 DUP3 SLOAD PUSH2 0x1E85 JUMP JUMPDEST PUSH2 0x2084 DUP3 DUP3 DUP6 PUSH2 0x1FC3 JUMP JUMPDEST PUSH0 PUSH1 0x1F DUP4 GT PUSH1 0x1 DUP2 EQ PUSH2 0x20B1 JUMPI PUSH0 DUP5 ISZERO PUSH2 0x209F JUMPI DUP3 DUP8 ADD CALLDATALOAD SWAP1 POP JUMPDEST PUSH2 0x20A9 DUP6 DUP3 PUSH2 0x2031 JUMP JUMPDEST DUP7 SSTORE POP PUSH2 0x2110 JUMP JUMPDEST PUSH1 0x1F NOT DUP5 AND PUSH2 0x20BF DUP7 PUSH2 0x1EB5 JUMP JUMPDEST PUSH0 JUMPDEST DUP3 DUP2 LT ISZERO PUSH2 0x20E6 JUMPI DUP5 DUP10 ADD CALLDATALOAD DUP3 SSTORE PUSH1 0x1 DUP3 ADD SWAP2 POP PUSH1 0x20 DUP6 ADD SWAP5 POP PUSH1 0x20 DUP2 ADD SWAP1 POP PUSH2 0x20C1 JUMP JUMPDEST DUP7 DUP4 LT ISZERO PUSH2 0x2103 JUMPI DUP5 DUP10 ADD CALLDATALOAD PUSH2 0x20FF PUSH1 0x1F DUP10 AND DUP3 PUSH2 0x2015 JUMP JUMPDEST DUP4 SSTORE POP JUMPDEST PUSH1 0x1 PUSH1 0x2 DUP9 MUL ADD DUP9 SSTORE POP POP POP JUMPDEST POP POP POP POP POP POP POP JUMP JUMPDEST PUSH2 0x2124 DUP4 DUP4 DUP4 PUSH2 0x204C JUMP JUMPDEST POP POP POP JUMP JUMPDEST PUSH0 DUP2 SWAP1 POP SWAP2 SWAP1 POP JUMP JUMPDEST PUSH0 DUP2 SLOAD SWAP1 POP SWAP2 SWAP1 POP JUMP JUMPDEST PUSH32 0x4E487B7100000000000000000000000000000000000000000000000000000000 PUSH0 MSTORE PUSH1 0x11 PUSH1 0x4 MSTORE PUSH1 0x24 PUSH0 REVERT JUMPDEST PUSH0 DUP2 SWAP1 POP PUSH1 0x1 DUP1 PUSH1 0x1 SUB DUP4 ADD DIV SWAP1 POP SWAP2 SWAP1 POP JUMP JUMPDEST PUSH0 DUP2 SWAP1 POP DUP2 PUSH0 MSTORE PUSH1 0x20 PUSH0 KECCAK256 SWAP1 POP SWAP2 SWAP1 POP JUMP JUMPDEST PUSH0 PUSH0 DUP3 ADD SSTORE POP JUMP JUMPDEST PUSH0 DUP3 EQ PUSH2 0x21A7 JUMPI PUSH2 0x21A6 PUSH2 0x1E22 JUMP JUMPDEST JUMPDEST PUSH2 0x21B0 DUP2 PUSH2 0x218F JUMP JUMPDEST POP POP JUMP JUMPDEST JUMPDEST DUP2 DUP2 LT ISZERO PUSH2 0x21D2 JUMPI PUSH2 0x21C7 PUSH0 DUP3 PUSH2 0x2197 JUMP JUMPDEST PUSH1 0x1 DUP2 ADD SWAP1 POP PUSH2 0x21B5 JUMP JUMPDEST POP POP JUMP JUMPDEST DUP2 DUP4 LT ISZERO PUSH2 0x220F JUMPI PUSH2 0x21E7 DUP3 PUSH2 0x2169 JUMP JUMPDEST PUSH2 0x21F0 DUP5 PUSH2 0x2169 JUMP JUMPDEST PUSH2 0x21F9 DUP4 PUSH2 0x217D JUMP JUMPDEST DUP2 DUP2 ADD DUP4 DUP3 ADD PUSH2 0x2209 DUP2 DUP4 PUSH2 0x21B4 JUMP JUMPDEST POP POP POP POP POP JUMPDEST POP POP POP JUMP JUMPDEST PUSH9 0x10000000000000000 DUP3 GT ISZERO PUSH2 0x222E JUMPI PUSH2 0x222D PUSH2 0x1588 JUMP JUMPDEST JUMPDEST PUSH2 0x2237 DUP2 PUSH2 0x2132 JUMP JUMPDEST DUP3 DUP3 SSTORE PUSH2 0x2245 DUP4 DUP3 DUP5 PUSH2 0x21D6 JUMP JUMPDEST POP POP POP JUMP JUMPDEST PUSH0 DUP3 SWAP1 POP SWAP3 SWAP2 POP POP JUMP JUMPDEST PUSH0 DUP2 CALLDATALOAD PUSH2 0x2260 DUP2 PUSH2 0x1B86 JUMP JUMPDEST DUP1 SWAP2 POP POP SWAP2 SWAP1 POP JUMP JUMPDEST PUSH0 DUP2 PUSH0 SHL SWAP1 POP SWAP2 SWAP1 POP JUMP JUMPDEST PUSH0 PUSH20 0xFFFFFFFFFFFFFFFFFFFFFFFFFFFFFFFFFFFFFFFF PUSH2 0x2293 DUP5 PUSH2 0x2269 JUMP JUMPDEST SWAP4 POP DUP1 NOT DUP4 AND SWAP3 POP DUP1 DUP5 AND DUP4 OR SWAP2 POP POP SWAP3 SWAP2 POP POP JUMP JUMPDEST PUSH0 PUSH2 0x22B3 DUP3 PUSH2 0x1A3F JUMP JUMPDEST SWAP1 POP SWAP2 SWAP1 POP JUMP JUMPDEST PUSH0 DUP2 SWAP1 POP SWAP2 SWAP1 POP JUMP JUMPDEST PUSH2 0x22CC DUP3 PUSH2 0x22A9 JUMP JUMPDEST PUSH2 0x22DF PUSH2 0x22D8 DUP3 PUSH2 0x22BA JUMP JUMPDEST DUP4 SLOAD PUSH2 0x2274 JUMP JUMPDEST DUP3 SSTORE POP POP POP JUMP JUMPDEST PUSH2 0x22EF DUP2 PUSH2 0x18D2 JUMP JUMPDEST DUP2 EQ PUSH2 0x22F9 JUMPI PUSH0 PUSH0 REVERT JUMPDEST POP JUMP JUMPDEST PUSH0 DUP2 CALLDATALOAD PUSH2 0x2308 DUP2 PUSH2 0x22E6 JUMP JUMPDEST DUP1 SWAP2 POP POP SWAP2 SWAP1 POP JUMP JUMPDEST PUSH0 DUP2 PUSH1 0xA0 SHL SWAP1 POP SWAP2 SWAP1 POP JUMP JUMPDEST PUSH0 PUSH22 0xFFFF0000000000000000000000000000000000000000 PUSH2 0x233E DUP5 PUSH2 0x2311 JUMP JUMPDEST SWAP4 POP DUP1 NOT DUP4 AND SWAP3 POP DUP1 DUP5 AND DUP4 OR SWAP2 POP POP SWAP3 SWAP2 POP POP JUMP JUMPDEST PUSH0 PUSH2 0x236E PUSH2 0x2369 PUSH2 0x2364 DUP5 PUSH2 0x18D2 JUMP JUMPDEST PUSH2 0x1A15 JUMP JUMPDEST PUSH2 0x18D2 JUMP JUMPDEST SWAP1 POP SWAP2 SWAP1 POP JUMP JUMPDEST PUSH0 DUP2 SWAP1 POP SWAP2 SWAP1 POP JUMP JUMPDEST PUSH2 0x2387 DUP3 PUSH2 0x2354 JUMP JUMPDEST PUSH2 0x239A PUSH2 0x2393 DUP3 PUSH2 0x2375 JUMP JUMPDEST DUP4 SLOAD PUSH2 0x231D JUMP JUMPDEST DUP3 SSTORE POP POP POP JUMP JUMPDEST PUSH0 DUP2 ADD PUSH0 DUP4 ADD DUP1 PUSH2 0x23B1 DUP2 PUSH2 0x2254 JUMP JUMPDEST SWAP1 POP PUSH2 0x23BD DUP2 DUP5 PUSH2 0x22C3 JUMP JUMPDEST POP POP POP PUSH0 DUP2 ADD PUSH1 0x20 DUP4 ADD DUP1 PUSH2 0x23D1 DUP2 PUSH2 0x22FC JUMP JUMPDEST SWAP1 POP PUSH2 0x23DD DUP2 DUP5 PUSH2 0x237E JUMP JUMPDEST POP POP POP POP POP JUMP JUMPDEST PUSH2 0x23EE DUP3 DUP3 PUSH2 0x23A1 JUMP JUMPDEST POP POP JUMP JUMPDEST PUSH2 0x23FC DUP4 DUP4 PUSH2 0x224A JUMP JUMPDEST PUSH2 0x2406 DUP2 DUP4 PUSH2 0x2214 JUMP JUMPDEST PUSH2 0x240F DUP4 PUSH2 0x2129 JUMP JUMPDEST PUSH2 0x2418 DUP4 PUSH2 0x217D JUMP JUMPDEST PUSH0 JUMPDEST DUP4 DUP2 LT ISZERO PUSH2 0x2445 JUMPI DUP3 PUSH2 0x242D DUP2 DUP5 PUSH2 0x23E4 JUMP JUMPDEST PUSH1 0x40 DUP5 ADD SWAP4 POP PUSH1 0x1 DUP4 ADD SWAP3 POP POP PUSH1 0x1 DUP2 ADD SWAP1 POP PUSH2 0x241A JUMP JUMPDEST POP POP POP POP POP POP POP JUMP JUMPDEST PUSH2 0x2459 DUP4 DUP4 DUP4 PUSH2 0x23F2 JUMP JUMPDEST POP POP POP JUMP JUMPDEST PUSH0 DUP2 ADD PUSH0 DUP4 ADD PUSH2 0x246E DUP2 DUP6 PUSH2 0x1D5E JUMP JUMPDEST PUSH2 0x2479 DUP2 DUP4 DUP7 PUSH2 0x2119 JUMP JUMPDEST POP POP POP POP PUSH1 0x1 DUP2 ADD PUSH1 0x20 DUP4 ADD PUSH2 0x248F DUP2 DUP6 PUSH2 0x1D5E JUMP JUMPDEST PUSH2 0x249A DUP2 DUP4 DUP7 PUSH2 0x2119 JUMP JUMPDEST POP POP POP POP PUSH1 0x2 DUP2 ADD PUSH1 0x40 DUP4 ADD PUSH2 0x24B0 DUP2 DUP6 PUSH2 0x1DC0 JUMP JUMPDEST PUSH2 0x24BB DUP2 DUP4 DUP7 PUSH2 0x244E JUMP JUMPDEST POP POP POP POP POP POP JUMP JUMPDEST PUSH2 0x24CD DUP3 DUP3 PUSH2 0x245E JUMP JUMPDEST POP POP JUMP JUMPDEST PUSH0 DUP2 SWAP1 POP SWAP3 SWAP2 POP POP JUMP JUMPDEST PUSH0 PUSH2 0x24E6 DUP4 DUP6 PUSH2 0x24D1 JUMP JUMPDEST SWAP4 POP PUSH2 0x24F3 DUP4 DUP6 DUP5 PUSH2 0x1630 JUMP JUMPDEST DUP3 DUP5 ADD SWAP1 POP SWAP4 SWAP3 POP POP POP JUMP JUMPDEST PUSH0 PUSH2 0x250B DUP3 DUP5 DUP7 PUSH2 0x24DB JUMP JUMPDEST SWAP2 POP DUP2 SWAP1 POP SWAP4 SWAP3 POP POP POP JUMP JUMPDEST PUSH0 PUSH0 REVERT JUMPDEST PUSH0 PUSH0 REVERT JUMPDEST PUSH0 PUSH0 REVERT JUMPDEST PUSH0 PUSH0 DUP4 CALLDATALOAD PUSH1 0x1 PUSH1 0x20 SUB DUP5 CALLDATASIZE SUB SUB DUP2 SLT PUSH2 0x253F JUMPI PUSH2 0x253E PUSH2 0x251F JUMP JUMPDEST JUMPDEST DUP4 DUP2 ADD SWAP3 POP DUP3 CALLDATALOAD SWAP2 POP PUSH1 0x20 DUP4 ADD SWAP3 POP PUSH8 0xFFFFFFFFFFFFFFFF DUP3 GT ISZERO PUSH2 0x2567 JUMPI PUSH2 0x2566 PUSH2 0x2517 JUMP JUMPDEST JUMPDEST PUSH1 0x1 DUP3 MUL CALLDATASIZE SUB DUP4 SGT ISZERO PUSH2 0x257D JUMPI PUSH2 0x257C PUSH2 0x251B JUMP JUMPDEST JUMPDEST POP SWAP3 POP SWAP3 SWAP1 POP JUMP JUMPDEST PUSH0 PUSH2 0x2590 DUP4 DUP6 PUSH2 0x1844 JUMP JUMPDEST SWAP4 POP PUSH2 0x259D DUP4 DUP6 DUP5 PUSH2 0x1630 JUMP JUMPDEST PUSH2 0x25A6 DUP4 PUSH2 0x1578 JUMP JUMPDEST DUP5 ADD SWAP1 POP SWAP4 SWAP3 POP POP POP JUMP JUMPDEST PUSH0 PUSH0 DUP4 CALLDATALOAD PUSH1 0x1 PUSH1 0x20 SUB DUP5 CALLDATASIZE SUB SUB DUP2 SLT PUSH2 0x25CD JUMPI PUSH2 0x25CC PUSH2 0x251F JUMP JUMPDEST JUMPDEST DUP4 DUP2 ADD SWAP3 POP DUP3 CALLDATALOAD SWAP2 POP PUSH1 0x20 DUP4 ADD SWAP3 POP PUSH8 0xFFFFFFFFFFFFFFFF DUP3 GT ISZERO PUSH2 0x25F5 JUMPI PUSH2 0x25F4 PUSH2 0x2517 JUMP JUMPDEST JUMPDEST PUSH1 0x40 DUP3 MUL CALLDATASIZE SUB DUP4 SGT ISZERO PUSH2 0x260B JUMPI PUSH2 0x260A PUSH2 0x251B JUMP JUMPDEST JUMPDEST POP SWAP3 POP SWAP3 SWAP1 POP JUMP JUMPDEST PUSH0 PUSH2 0x2621 PUSH1 0x20 DUP5 ADD DUP5 PUSH2 0x1B9C JUMP JUMPDEST SWAP1 POP SWAP3 SWAP2 POP POP JUMP JUMPDEST PUSH0 DUP2 CALLDATALOAD SWAP1 POP PUSH2 0x2637 DUP2 PUSH2 0x22E6 JUMP JUMPDEST SWAP3 SWAP2 POP POP JUMP JUMPDEST PUSH0 PUSH2 0x264B PUSH1 0x20 DUP5 ADD DUP5 PUSH2 0x2629 JUMP JUMPDEST SWAP1 POP SWAP3 SWAP2 POP POP JUMP JUMPDEST PUSH1 0x40 DUP3 ADD PUSH2 0x2663 PUSH0 DUP4 ADD DUP4 PUSH2 0x2613 JUMP JUMPDEST PUSH2 0x266F PUSH0 DUP6 ADD DUP3 PUSH2 0x18C3 JUMP JUMPDEST POP PUSH2 0x267D PUSH1 0x20 DUP4 ADD DUP4 PUSH2 0x263D JUMP JUMPDEST PUSH2 0x268A PUSH1 0x20 DUP6 ADD DUP3 PUSH2 0x18DF JUMP JUMPDEST POP POP POP POP JUMP JUMPDEST PUSH0 PUSH2 0x269B DUP4 DUP4 PUSH2 0x2653 JUMP JUMPDEST PUSH1 0x40 DUP4 ADD SWAP1 POP SWAP3 SWAP2 POP POP JUMP JUMPDEST PUSH0 DUP3 SWAP1 POP SWAP3 SWAP2 POP POP JUMP JUMPDEST PUSH0 PUSH1 0x40 DUP3 ADD SWAP1 POP SWAP2 SWAP1 POP JUMP JUMPDEST PUSH0 PUSH2 0x26C8 DUP4 DUP6 PUSH2 0x18A4 JUMP JUMPDEST SWAP4 POP PUSH2 0x26D3 DUP3 PUSH2 0x2129 JUMP JUMPDEST DUP1 PUSH0 JUMPDEST DUP6 DUP2 LT ISZERO PUSH2 0x270B JUMPI PUSH2 0x26E8 DUP3 DUP5 PUSH2 0x26A7 JUMP JUMPDEST PUSH2 0x26F2 DUP9 DUP3 PUSH2 0x2690 JUMP JUMPDEST SWAP8 POP PUSH2 0x26FD DUP4 PUSH2 0x26B1 JUMP JUMPDEST SWAP3 POP POP PUSH1 0x1 DUP2 ADD SWAP1 POP PUSH2 0x26D6 JUMP JUMPDEST POP DUP6 SWAP3 POP POP POP SWAP4 SWAP3 POP POP POP JUMP JUMPDEST PUSH0 PUSH1 0x60 DUP4 ADD PUSH2 0x2729 PUSH0 DUP5 ADD DUP5 PUSH2 0x2523 JUMP JUMPDEST DUP6 DUP4 SUB PUSH0 DUP8 ADD MSTORE PUSH2 0x273B DUP4 DUP3 DUP5 PUSH2 0x2585 JUMP JUMPDEST SWAP3 POP POP POP PUSH2 0x274C PUSH1 0x20 DUP5 ADD DUP5 PUSH2 0x2523 JUMP JUMPDEST DUP6 DUP4 SUB PUSH1 0x20 DUP8 ADD MSTORE PUSH2 0x275F DUP4 DUP3 DUP5 PUSH2 0x2585 JUMP JUMPDEST SWAP3 POP POP POP PUSH2 0x2770 PUSH1 0x40 DUP5 ADD DUP5 PUSH2 0x25B1 JUMP JUMPDEST DUP6 DUP4 SUB PUSH1 0x40 DUP8 ADD MSTORE PUSH2 0x2783 DUP4 DUP3 DUP5 PUSH2 0x26BD JUMP JUMPDEST SWAP3 POP POP POP DUP1 SWAP2 POP POP SWAP3 SWAP2 POP POP JUMP JUMPDEST PUSH0 PUSH1 0x20 DUP3 ADD SWAP1 POP DUP2 DUP2 SUB PUSH0 DUP4 ADD MSTORE PUSH2 0x27A9 DUP2 DUP5 PUSH2 0x2718 JUMP JUMPDEST SWAP1 POP SWAP3 SWAP2 POP POP JUMP JUMPDEST PUSH32 0x496E76616C696420696E64657820696400000000000000000000000000000000 PUSH0 DUP3 ADD MSTORE POP JUMP JUMPDEST PUSH0 PUSH2 0x27E5 PUSH1 0x10 DUP4 PUSH2 0x1BDB JUMP JUMPDEST SWAP2 POP PUSH2 0x27F0 DUP3 PUSH2 0x27B1 JUMP JUMPDEST PUSH1 0x20 DUP3 ADD SWAP1 POP SWAP2 SWAP1 POP JUMP JUMPDEST PUSH0 PUSH1 0x20 DUP3 ADD SWAP1 POP DUP2 DUP2 SUB PUSH0 DUP4 ADD MSTORE PUSH2 0x2812 DUP2 PUSH2 0x27D9 JUMP JUMPDEST SWAP1 POP SWAP2 SWAP1 POP JUMP JUMPDEST PUSH32 0x4E487B7100000000000000000000000000000000000000000000000000000000 PUSH0 MSTORE PUSH1 0x32 PUSH1 0x4 MSTORE PUSH1 0x24 PUSH0 REVERT JUMPDEST PUSH32 0x556E6B6E6F776E207469636B6572000000000000000000000000000000000000 PUSH0 DUP3 ADD MSTORE POP JUMP JUMPDEST PUSH0 PUSH2 0x287A PUSH1 0xE DUP4 PUSH2 0x1BDB JUMP JUMPDEST SWAP2 POP PUSH2 0x2885 DUP3 PUSH2 0x2846 JUMP JUMPDEST PUSH1 0x20 DUP3 ADD SWAP1 POP SWAP2 SWAP1 POP JUMP JUMPDEST PUSH0 PUSH1 0x20 DUP3 ADD SWAP1 POP DUP2 DUP2 SUB PUSH0 DUP4 ADD MSTORE PUSH2 0x28A7 DUP2 PUSH2 0x286E JUMP JUMPDEST SWAP1 POP SWAP2 SWAP1 POP JUMP JUMPDEST PUSH32 0x43616C6C6572206973206E6F7420746865206F776E6572000000000000000000 PUSH0 DUP3 ADD MSTORE POP JUMP JUMPDEST PUSH0 PUSH2 0x28E2 PUSH1 0x17 DUP4 PUSH2 0x1BDB JUMP JUMPDEST SWAP2 POP PUSH2 0x28ED DUP3 PUSH2 0x28AE JUMP JUMPDEST PUSH1 0x20 DUP3 ADD SWAP1 POP SWAP2 SWAP1 POP JUMP JUMPDEST PUSH0 PUSH1 0x20 DUP3 ADD SWAP1 POP DUP2 DUP2 SUB PUSH0 DUP4 ADD MSTORE PUSH2 0x290F DUP2 PUSH2 0x28D6 JUMP JUMPDEST SWAP1 POP SWAP2 SWAP1 POP JUMP JUMPDEST PUSH32 0x456D707479207469636B65720000000000000000000000000000000000000000 PUSH0 DUP3 ADD MSTORE POP JUMP JUMPDEST PUSH0 PUSH2 0x294A PUSH1 0xC DUP4 PUSH2 0x1BDB JUMP JUMPDEST SWAP2 POP PUSH2 0x2955 DUP3 PUSH2 0x2916 JUMP JUMPDEST PUSH1 0x20 DUP3 ADD SWAP1 POP SWAP2 SWAP1 POP JUMP JUMPDEST PUSH0 PUSH1 0x20 DUP3 ADD SWAP1 POP DUP2 DUP2 SUB PUSH0 DUP4 ADD MSTORE PUSH2 0x2977 DUP2 PUSH2 0x293E JUMP JUMPDEST SWAP1 POP SWAP2 SWAP1 POP JUMP JUMPDEST PUSH32 0x5469636B657220616C7265616479206578697374730000000000000000000000 PUSH0 DUP3 ADD MSTORE POP JUMP JUMPDEST PUSH0 PUSH2 0x29B2 PUSH1 0x15 DUP4 PUSH2 0x1BDB JUMP JUMPDEST SWAP2 POP PUSH2 0x29BD DUP3 PUSH2 0x297E JUMP JUMPDEST PUSH1 0x20 DUP3 ADD SWAP1 POP SWAP2 SWAP1 POP JUMP JUMPDEST PUSH0 PUSH1 0x20 DUP3 ADD SWAP1 POP DUP2 DUP2 SUB PUSH0 DUP4 ADD MSTORE PUSH2 0x29DF DUP2 PUSH2 0x29A6 JUMP JUMPDEST SWAP1 POP SWAP2 SWAP1 POP JUMP JUMPDEST PUSH32 0x4E6F20686F6C64696E6773000000000000000000000000000000000000000000 PUSH0 DUP3 ADD MSTORE POP JUMP JUMPDEST PUSH0 PUSH2 0x2A1A PUSH1 0xB DUP4 PUSH2 0x1BDB JUMP JUMPDEST SWAP2 POP PUSH2 0x2A25 DUP3 PUSH2 0x29E6 JUMP JUMPDEST PUSH1 0x20 DUP3 ADD SWAP1 POP SWAP2 SWAP1 POP JUMP JUMPDEST PUSH0 PUSH1 0x20 DUP3 ADD SWAP1 POP DUP2 DUP2 SUB PUSH0 DUP4 ADD MSTORE PUSH2 0x2A47 DUP2 PUSH2 0x2A0E JUMP JUMPDEST SWAP1 POP SWAP2 SWAP1 POP JUMP JUMPDEST PUSH32 0x5A65726F20746F6B656E20616464726573730000000000000000000000000000 PUSH0 DUP3 ADD MSTORE POP JUMP JUMPDEST PUSH0 PUSH2 0x2A82 PUSH1 0x12 DUP4 PUSH2 0x1BDB JUMP JUMPDEST SWAP2 POP PUSH2 0x2A8D DUP3 PUSH2 0x2A4E JUMP JUMPDEST PUSH1 0x20 DUP3 ADD SWAP1 POP SWAP2 SWAP1 POP JUMP JUMPDEST PUSH0 PUSH1 0x20 DUP3 ADD SWAP1 POP DUP2 DUP2 SUB PUSH0 DUP4 ADD MSTORE PUSH2 0x2AAF DUP2 PUSH2 0x2A76 JUMP JUMPDEST SWAP1 POP SWAP2 SWAP1 POP JUMP JUMPDEST PUSH0 PUSH1 0x20 DUP3 DUP5 SUB SLT ISZERO PUSH2 0x2ACB JUMPI PUSH2 0x2ACA PUSH2 0x1568 JUMP JUMPDEST JUMPDEST PUSH0 PUSH2 0x2AD8 DUP5 DUP3 DUP6 ADD PUSH2 0x2629 JUMP JUMPDEST SWAP2 POP POP SWAP3 SWAP2 POP POP JUMP JUMPDEST PUSH32 0x5A65726F20776569676874000000000000000000000000000000000000000000 PUSH0 DUP3 ADD MSTORE POP JUMP JUMPDEST PUSH0 PUSH2 0x2B15 PUSH1 0xB DUP4 PUSH2 0x1BDB JUMP JUMPDEST SWAP2 POP PUSH2 0x2B20 DUP3 PUSH2 0x2AE1 JUMP JUMPDEST PUSH1 0x20 DUP3 ADD SWAP1 POP SWAP2 SWAP1 POP JUMP JUMPDEST PUSH0 PUSH1 0x20 DUP3 ADD SWAP1 POP DUP2 DUP2 SUB PUSH0 DUP4 ADD MSTORE PUSH2 0x2B42 DUP2 PUSH2 0x2B09 JUMP JUMPDEST SWAP1 POP SWAP2 SWAP1 POP JUMP JUMPDEST PUSH32 0x576569676874203E203130302500000000000000000000000000000000000000 PUSH0 DUP3 ADD MSTORE POP JUMP JUMPDEST PUSH0 PUSH2 0x2B7D PUSH1 0xD DUP4 PUSH2 0x1BDB JUMP JUMPDEST SWAP2 POP PUSH2 0x2B88 DUP3 PUSH2 0x2B49 JUMP JUMPDEST PUSH1 0x20 DUP3 ADD SWAP1 POP SWAP2 SWAP1 POP JUMP JUMPDEST PUSH0 PUSH1 0x20 DUP3 ADD SWAP1 POP DUP2 DUP2 SUB PUSH0 DUP4 ADD MSTORE PUSH2 0x2BAA DUP2 PUSH2 0x2B71 JUMP JUMPDEST SWAP1 POP SWAP2 SWAP1 POP JUMP JUMPDEST PUSH0 PUSH2 0x2BBB DUP3 PUSH2 0x174B JUMP JUMPDEST SWAP2 POP PUSH2 0x2BC6 DUP4 PUSH2 0x174B JUMP JUMPDEST SWAP3 POP DUP3 DUP3 ADD SWAP1 POP DUP1 DUP3 GT ISZERO PUSH2 0x2BDE JUMPI PUSH2 0x2BDD PUSH2 0x213C JUMP JUMPDEST JUMPDEST SWAP3 SWAP2 POP POP JUMP JUMPDEST PUSH32 0x4475706C696361746520746F6B656E20696E20686F6C64696E67730000000000 PUSH0 DUP3 ADD MSTORE POP JUMP JUMPDEST PUSH0 PUSH2 0x2C18 PUSH1 0x1B DUP4 PUSH2 0x1BDB JUMP JUMPDEST SWAP2 POP PUSH2 0x2C23 DUP3 PUSH2 0x2BE4 JUMP JUMPDEST PUSH1 0x20 DUP3 ADD SWAP1 POP SWAP2 SWAP1 POP JUMP JUMPDEST PUSH0 PUSH1 0x20 DUP3 ADD SWAP1 POP DUP2 DUP2 SUB PUSH0 DUP4 ADD MSTORE PUSH2 0x2C45 DUP2 PUSH2 0x2C0C JUMP JUMPDEST SWAP1 POP SWAP2 SWAP1 POP JUMP JUMPDEST PUSH32 0x57656967687473206D7573742073756D20746F20313030250000000000000000 PUSH0 DUP3 ADD MSTORE POP JUMP JUMPDEST PUSH0 PUSH2 0x2C80 PUSH1 0x18 DUP4 PUSH2 0x1BDB JUMP JUMPDEST SWAP2 POP PUSH2 0x2C8B DUP3 PUSH2 0x2C4C JUMP JUMPDEST PUSH1 0x20 DUP3 ADD SWAP1 POP SWAP2 SWAP1 POP JUMP JUMPDEST PUSH0 PUSH1 0x20 DUP3 ADD SWAP1 POP DUP2 DUP2 SUB PUSH0 DUP4 ADD MSTORE PUSH2 0x2CAD DUP2 PUSH2 0x2C74 JUMP JUMPDEST SWAP1 POP SWAP2 SWAP1 POP JUMP JUMPDEST PUSH32 0x496E64657820776974682073616D6520746F6B656E2D77656967687420736574 PUSH0 DUP3 ADD MSTORE PUSH32 0x2065786973747300000000000000000000000000000000000000000000000000 PUSH1 0x20 DUP3 ADD MSTORE POP JUMP JUMPDEST PUSH0 PUSH2 0x2D0E PUSH1 0x27 DUP4 PUSH2 0x1BDB JUMP JUMPDEST SWAP2 POP PUSH2 0x2D19 DUP3 PUSH2 0x2CB4 JUMP JUMPDEST PUSH1 0x40 DUP3 ADD SWAP1 POP SWAP2 SWAP1 POP JUMP JUMPDEST PUSH0 PUSH1 0x20 DUP3 ADD SWAP1 POP DUP2 DUP2 SUB PUSH0 DUP4 ADD MSTORE PUSH2 0x2D3B DUP2 PUSH2 0x2D02 JUMP JUMPDEST SWAP1 POP SWAP2 SWAP1 POP JUMP JUMPDEST PUSH0 PUSH2 0x2D4C DUP3 PUSH2 0x174B JUMP JUMPDEST SWAP2 POP PUSH2 0x2D57 DUP4 PUSH2 0x174B JUMP JUMPDEST SWAP3 POP DUP3 DUP3 SUB SWAP1 POP DUP2 DUP2 GT ISZERO PUSH2 0x2D6F JUMPI PUSH2 0x2D6E PUSH2 0x213C JUMP JUMPDEST JUMPDEST SWAP3 SWAP2 POP POP JUMP JUMPDEST PUSH32 0x4469726563746F72792063616E6E6F74206265207A65726F2061646472657373 PUSH0 DUP3 ADD MSTORE POP JUMP JUMPDEST PUSH0 PUSH2 0x2DA9 PUSH1 0x20 DUP4 PUSH2 0x1BDB JUMP JUMPDEST SWAP2 POP PUSH2 0x2DB4 DUP3 PUSH2 0x2D75 JUMP JUMPDEST PUSH1 0x20 DUP3 ADD SWAP1 POP SWAP2 SWAP1 POP JUMP JUMPDEST PUSH0 PUSH1 0x20 DUP3 ADD SWAP1 POP DUP2 DUP2 SUB PUSH0 DUP4 ADD MSTORE PUSH2 0x2DD6 DUP2 PUSH2 0x2D9D JUMP JUMPDEST SWAP1 POP SWAP2 SWAP1 POP JUMP JUMPDEST PUSH32 0x4469726563746F7279206D757374206265206120636F6E747261637400000000 PUSH0 DUP3 ADD MSTORE POP JUMP JUMPDEST PUSH0 PUSH2 0x2E11 PUSH1 0x1C DUP4 PUSH2 0x1BDB JUMP JUMPDEST SWAP2 POP PUSH2 0x2E1C DUP3 PUSH2 0x2DDD JUMP JUMPDEST PUSH1 0x20 DUP3 ADD SWAP1 POP SWAP2 SWAP1 POP JUMP JUMPDEST PUSH0 PUSH1 0x20 DUP3 ADD SWAP1 POP DUP2 DUP2 SUB PUSH0 DUP4 ADD MSTORE PUSH2 0x2E3E DUP2 PUSH2 0x2E05 JUMP JUMPDEST SWAP1 POP SWAP2 SWAP1 POP JUMP JUMPDEST PUSH32 0x4469726563746F7279206164647265737320646F6573206E6F7420696D706C65 PUSH0 DUP3 ADD MSTORE PUSH32 0x6D656E74206F776E657228290000000000000000000000000000000000000000 PUSH1 0x20 DUP3 ADD MSTORE POP JUMP JUMPDEST PUSH0 PUSH2 0x2E9F PUSH1 0x2C DUP4 PUSH2 0x1BDB JUMP JUMPDEST SWAP2 POP PUSH2 0x2EAA DUP3 PUSH2 0x2E45 JUMP JUMPDEST PUSH1 0x40 DUP3 ADD SWAP1 POP SWAP2 SWAP1 POP JUMP JUMPDEST PUSH0 PUSH1 0x20 DUP3 ADD SWAP1 POP DUP2 DUP2 SUB PUSH0 DUP4 ADD MSTORE PUSH2 0x2ECC DUP2 PUSH2 0x2E93 JUMP JUMPDEST SWAP1 POP SWAP2 SWAP1 POP JUMP JUMPDEST PUSH0 PUSH0 REVERT JUMPDEST PUSH0 PUSH1 0x40 DUP3 DUP5 SUB SLT ISZERO PUSH2 0x2EEC JUMPI PUSH2 0x2EEB PUSH2 0x2ED3 JUMP JUMPDEST JUMPDEST PUSH2 0x2EF6 PUSH1 0x40 PUSH2 0x15E6 JUMP JUMPDEST SWAP1 POP PUSH0 PUSH2 0x2F05 DUP5 DUP3 DUP6 ADD PUSH2 0x1B9C JUMP JUMPDEST PUSH0 DUP4 ADD MSTORE POP PUSH1 0x20 PUSH2 0x2F18 DUP5 DUP3 DUP6 ADD PUSH2 0x2629 JUMP JUMPDEST PUSH1 0x20 DUP4 ADD MSTORE POP SWAP3 SWAP2 POP POP JUMP JUMPDEST PUSH0 PUSH1 0x40 DUP3 DUP5 SUB SLT ISZERO PUSH2 0x2F39 JUMPI PUSH2 0x2F38 PUSH2 0x1568 JUMP JUMPDEST JUMPDEST PUSH0 PUSH2 0x2F46 DUP5 DUP3 DUP6 ADD PUSH2 0x2ED7 JUMP JUMPDEST SWAP2 POP POP SWAP3 SWAP2 POP POP JUMP JUMPDEST PUSH0 DUP2 MLOAD SWAP1 POP SWAP2 SWAP1 POP JUMP JUMPDEST PUSH0 DUP3 DUP3 MSTORE PUSH1 0x20 DUP3 ADD SWAP1 POP SWAP3 SWAP2 POP POP JUMP JUMPDEST PUSH0 DUP2 SWAP1 POP PUSH1 0x20 DUP3 ADD SWAP1 POP SWAP2 SWAP1 POP JUMP JUMPDEST PUSH0 PUSH2 0x2F83 DUP4 DUP4 PUSH2 0x18C3 JUMP JUMPDEST PUSH1 0x20 DUP4 ADD SWAP1 POP SWAP3 SWAP2 POP POP JUMP JUMPDEST PUSH0 PUSH1 0x20 DUP3 ADD SWAP1 POP SWAP2 SWAP1 POP JUMP JUMPDEST PUSH0 PUSH2 0x2FA5 DUP3 PUSH2 0x2F4F JUMP JUMPDEST PUSH2 0x2FAF DUP2 DUP6 PUSH2 0x2F59 JUMP JUMPDEST SWAP4 POP PUSH2 0x2FBA DUP4 PUSH2 0x2F69 JUMP JUMPDEST DUP1 PUSH0 JUMPDEST DUP4 DUP2 LT ISZERO PUSH2 0x2FEA JUMPI DUP2 MLOAD PUSH2 0x2FD1 DUP9 DUP3 PUSH2 0x2F78 JUMP JUMPDEST SWAP8 POP PUSH2 0x2FDC DUP4 PUSH2 0x2F8F JUMP JUMPDEST SWAP3 POP POP PUSH1 0x1 DUP2 ADD SWAP1 POP PUSH2 0x2FBD JUMP JUMPDEST POP DUP6 SWAP4 POP POP POP POP SWAP3 SWAP2 POP POP JUMP JUMPDEST PUSH0 DUP2 MLOAD SWAP1 POP SWAP2 SWAP1 POP JUMP JUMPDEST PUSH0 DUP3 DUP3 MSTORE PUSH1 0x20 DUP3 ADD SWAP1 POP SWAP3 SWAP2 POP POP JUMP JUMPDEST PUSH0 DUP2 SWAP1 POP PUSH1 0x20 DUP3 ADD SWAP1 POP SWAP2 SWAP1 POP JUMP JUMPDEST PUSH0 PUSH2 0x302B DUP4 DUP4 PUSH2 0x18DF JUMP JUMPDEST PUSH1 0x20 DUP4 ADD SWAP1 POP SWAP3 SWAP2 POP POP JUMP JUMPDEST PUSH0 PUSH1 0x20 DUP3 ADD SWAP1 POP SWAP2 SWAP1 POP JUMP JUMPDEST PUSH0 PUSH2 0x304D DUP3 PUSH2 0x2FF7 JUMP JUMPDEST PUSH2 0x3057 DUP2 DUP6 PUSH2 0x3001 JUMP JUMPDEST SWAP4 POP PUSH2 0x3062 DUP4 PUSH2 0x3011 JUMP JUMPDEST DUP1 PUSH0 JUMPDEST DUP4 DUP2 LT ISZERO PUSH2 0x3092 JUMPI DUP2 MLOAD PUSH2 0x3079 DUP9 DUP3 PUSH2 0x3020 JUMP JUMPDEST SWAP8 POP PUSH2 0x3084 DUP4 PUSH2 0x3037 JUMP JUMPDEST SWAP3 POP POP PUSH1 0x1 DUP2 ADD SWAP1 POP PUSH2 0x3065 JUMP JUMPDEST POP DUP6 SWAP4 POP POP POP POP SWAP3 SWAP2 POP POP JUMP JUMPDEST PUSH0 PUSH1 0x40 DUP3 ADD SWAP1 POP DUP2 DUP2 SUB PUSH0 DUP4 ADD MSTORE PUSH2 0x30B7 DUP2 DUP6 PUSH2 0x2F9B JUMP JUMPDEST SWAP1 POP DUP2 DUP2 SUB PUSH1 0x20 DUP4 ADD MSTORE PUSH2 0x30CB DUP2 DUP5 PUSH2 0x3043 JUMP JUMPDEST SWAP1 POP SWAP4 SWAP3 POP POP POP JUMP INVALID LOG2 PUSH5 0x6970667358 0x22 SLT KECCAK256 SIGNEXTEND 0x25 0xBF 0xB2 CALLVALUE RJUMPI 0xA861 0x1E CREATE2 CREATE2 0xB3 0xDC PUSH4 0xE9FE3FF3 RETF ADDRESS 0xB4 CODESIZE SWAP6 SWAP3 0xD4 PUSH26 0x5447D78C5F4364736F6C634300081E0033000000000000000000 "
				},
				"gasEstimates": {
					"creation": {
						"codeDepositCost": "2510800",
						"executionCost": "infinite",
						"totalCost": "infinite"
					},
					"external": {
						"Directory()": "infinite",
						"changeDirectoryAddress(address)": "infinite",
						"createIndex((string,string,(address,uint16)[]))": "infinite",
						"fetchFromDirectory(string)": "infinite",
						"getIndexById(uint256)": "infinite",
						"getIndexByTicker(string)": "infinite",
						"isActive()": "2518",
						"owner()": "infinite",
						"setActive(bool)": "infinite",
						"totalIndexes()": "2484"
					}
				},
				"methodIdentifiers": {
					"Directory()": "658a847a",
					"changeDirectoryAddress(address)": "ba4c7be1",
					"createIndex((string,string,(address,uint16)[]))": "428d9a93",
					"fetchFromDirectory(string)": "27262618",
					"getIndexById(uint256)": "549e122b",
					"getIndexByTicker(string)": "ab73314d",
					"isActive()": "22f3e2d4",
					"owner()": "8da5cb5b",
					"setActive(bool)": "acec338a",
					"totalIndexes()": "2ff910ce"
				}
			},
			"storageLayout": {
				"storage": [
					{
						"astId": 254,
						"contract": "hopium/etf/main/index-factory.sol:IndexFactory",
						"label": "createdIndexes",
						"offset": 0,
						"slot": "0",
						"type": "t_array(t_struct(Index)818_storage)dyn_storage"
					},
					{
						"astId": 258,
						"contract": "hopium/etf/main/index-factory.sol:IndexFactory",
						"label": "indexTickerToId",
						"offset": 0,
						"slot": "1",
						"type": "t_mapping(t_string_memory_ptr,t_uint256)"
					},
					{
						"astId": 262,
						"contract": "hopium/etf/main/index-factory.sol:IndexFactory",
						"label": "indexHashToId",
						"offset": 0,
						"slot": "2",
						"type": "t_mapping(t_bytes32,t_uint256)"
					},
					{
						"astId": 47,
						"contract": "hopium/etf/main/index-factory.sol:IndexFactory",
						"label": "Directory",
						"offset": 0,
						"slot": "3",
						"type": "t_contract(IDirectory)44"
					},
					{
						"astId": 6,
						"contract": "hopium/etf/main/index-factory.sol:IndexFactory",
						"label": "isActive",
						"offset": 20,
						"slot": "3",
						"type": "t_bool"
					}
				],
				"types": {
					"t_address": {
						"encoding": "inplace",
						"label": "address",
						"numberOfBytes": "20"
					},
					"t_array(t_struct(Holding)809_storage)dyn_storage": {
						"base": "t_struct(Holding)809_storage",
						"encoding": "dynamic_array",
						"label": "struct Holding[]",
						"numberOfBytes": "32"
					},
					"t_array(t_struct(Index)818_storage)dyn_storage": {
						"base": "t_struct(Index)818_storage",
						"encoding": "dynamic_array",
						"label": "struct Index[]",
						"numberOfBytes": "32"
					},
					"t_bool": {
						"encoding": "inplace",
						"label": "bool",
						"numberOfBytes": "1"
					},
					"t_bytes32": {
						"encoding": "inplace",
						"label": "bytes32",
						"numberOfBytes": "32"
					},
					"t_contract(IDirectory)44": {
						"encoding": "inplace",
						"label": "contract IDirectory",
						"numberOfBytes": "20"
					},
					"t_mapping(t_bytes32,t_uint256)": {
						"encoding": "mapping",
						"key": "t_bytes32",
						"label": "mapping(bytes32 => uint256)",
						"numberOfBytes": "32",
						"value": "t_uint256"
					},
					"t_mapping(t_string_memory_ptr,t_uint256)": {
						"encoding": "mapping",
						"key": "t_string_memory_ptr",
						"label": "mapping(string => uint256)",
						"numberOfBytes": "32",
						"value": "t_uint256"
					},
					"t_string_memory_ptr": {
						"encoding": "bytes",
						"label": "string",
						"numberOfBytes": "32"
					},
					"t_string_storage": {
						"encoding": "bytes",
						"label": "string",
						"numberOfBytes": "32"
					},
					"t_struct(Holding)809_storage": {
						"encoding": "inplace",
						"label": "struct Holding",
						"members": [
							{
								"astId": 806,
								"contract": "hopium/etf/main/index-factory.sol:IndexFactory",
								"label": "tokenAddress",
								"offset": 0,
								"slot": "0",
								"type": "t_address"
							},
							{
								"astId": 808,
								"contract": "hopium/etf/main/index-factory.sol:IndexFactory",
								"label": "weightBips",
								"offset": 20,
								"slot": "0",
								"type": "t_uint16"
							}
						],
						"numberOfBytes": "32"
					},
					"t_struct(Index)818_storage": {
						"encoding": "inplace",
						"label": "struct Index",
						"members": [
							{
								"astId": 811,
								"contract": "hopium/etf/main/index-factory.sol:IndexFactory",
								"label": "name",
								"offset": 0,
								"slot": "0",
								"type": "t_string_storage"
							},
							{
								"astId": 813,
								"contract": "hopium/etf/main/index-factory.sol:IndexFactory",
								"label": "ticker",
								"offset": 0,
								"slot": "1",
								"type": "t_string_storage"
							},
							{
								"astId": 817,
								"contract": "hopium/etf/main/index-factory.sol:IndexFactory",
								"label": "holdings",
								"offset": 0,
								"slot": "2",
								"type": "t_array(t_struct(Holding)809_storage)dyn_storage"
							}
						],
						"numberOfBytes": "96"
					},
					"t_uint16": {
						"encoding": "inplace",
						"label": "uint16",
						"numberOfBytes": "2"
					},
					"t_uint256": {
						"encoding": "inplace",
						"label": "uint256",
						"numberOfBytes": "32"
					}
				}
			},
			"userdoc": {
				"kind": "user",
				"methods": {},
				"version": 1
			}
		}
	}
}