{
	"hopium/standalone/main/price-oracle.sol": {
		"PriceOracle": {
			"abi": [
				{
					"inputs": [
						{
							"internalType": "address",
							"name": "_wethAddress",
							"type": "address"
						},
						{
							"internalType": "address",
							"name": "_wethUsdPairAddress",
							"type": "address"
						},
						{
							"internalType": "address",
							"name": "_uniswapV2FactoryAddress",
							"type": "address"
						}
					],
					"stateMutability": "nonpayable",
					"type": "constructor"
				},
				{
					"inputs": [],
					"name": "UNISWAP_V2_FACTORY_ADDRESS",
					"outputs": [
						{
							"internalType": "address",
							"name": "",
							"type": "address"
						}
					],
					"stateMutability": "view",
					"type": "function"
				},
				{
					"inputs": [],
					"name": "WETH_ADDRESS",
					"outputs": [
						{
							"internalType": "address",
							"name": "",
							"type": "address"
						}
					],
					"stateMutability": "view",
					"type": "function"
				},
				{
					"inputs": [],
					"name": "WETH_USD_PAIR_ADDRESS",
					"outputs": [
						{
							"internalType": "address",
							"name": "",
							"type": "address"
						}
					],
					"stateMutability": "view",
					"type": "function"
				},
				{
					"inputs": [
						{
							"internalType": "address",
							"name": "tokenAddress",
							"type": "address"
						}
					],
					"name": "getTokenUsdPrice",
					"outputs": [
						{
							"internalType": "uint256",
							"name": "price18",
							"type": "uint256"
						}
					],
					"stateMutability": "view",
					"type": "function"
				},
				{
					"inputs": [
						{
							"internalType": "address",
							"name": "tokenAddress",
							"type": "address"
						}
					],
					"name": "getTokenWethPrice",
					"outputs": [
						{
							"internalType": "uint256",
							"name": "price18",
							"type": "uint256"
						}
					],
					"stateMutability": "view",
					"type": "function"
				},
				{
					"inputs": [],
					"name": "getWethUsdPrice",
					"outputs": [
						{
							"internalType": "uint256",
							"name": "price18",
							"type": "uint256"
						}
					],
					"stateMutability": "view",
					"type": "function"
				}
			],
			"devdoc": {
				"kind": "dev",
				"methods": {},
				"version": 1
			},
			"evm": {
				"assembly": "    /* \"hopium/standalone/main/price-oracle.sol\":2875:4628  contract PriceOracle is Helpers {... */\n  mstore(0x40, 0x80)\n    /* \"hopium/standalone/main/price-oracle.sol\":2913:3170  constructor(address _wethAddress, address _wethUsdPairAddress, address _uniswapV2FactoryAddress) {... */\n  callvalue\n  dup1\n  iszero\n  tag_1\n  jumpi\n  revert(0x00, 0x00)\ntag_1:\n  pop\n  mload(0x40)\n  sub(codesize, bytecodeSize)\n  dup1\n  bytecodeSize\n  dup4\n  codecopy\n  dup2\n  dup2\n  add\n  0x40\n  mstore\n  dup2\n  add\n  swap1\n  tag_2\n  swap2\n  swap1\n  tag_3\n  jump\t// in\ntag_2:\n    /* \"hopium/standalone/main/price-oracle.sol\":3035:3047  _wethAddress */\n  dup3\n    /* \"hopium/standalone/main/price-oracle.sol\":3020:3032  WETH_ADDRESS */\n  0x00\n  0x00\n    /* \"hopium/standalone/main/price-oracle.sol\":3020:3047  WETH_ADDRESS = _wethAddress */\n  0x0100\n  exp\n  dup2\n  sload\n  dup2\n  0xffffffffffffffffffffffffffffffffffffffff\n  mul\n  not\n  and\n  swap1\n  dup4\n  0xffffffffffffffffffffffffffffffffffffffff\n  and\n  mul\n  or\n  swap1\n  sstore\n  pop\n    /* \"hopium/standalone/main/price-oracle.sol\":3081:3100  _wethUsdPairAddress */\n  dup2\n    /* \"hopium/standalone/main/price-oracle.sol\":3057:3078  WETH_USD_PAIR_ADDRESS */\n  0x01\n  0x00\n    /* \"hopium/standalone/main/price-oracle.sol\":3057:3100  WETH_USD_PAIR_ADDRESS = _wethUsdPairAddress */\n  0x0100\n  exp\n  dup2\n  sload\n  dup2\n  0xffffffffffffffffffffffffffffffffffffffff\n  mul\n  not\n  and\n  swap1\n  dup4\n  0xffffffffffffffffffffffffffffffffffffffff\n  and\n  mul\n  or\n  swap1\n  sstore\n  pop\n    /* \"hopium/standalone/main/price-oracle.sol\":3139:3163  _uniswapV2FactoryAddress */\n  dup1\n    /* \"hopium/standalone/main/price-oracle.sol\":3110:3136  UNISWAP_V2_FACTORY_ADDRESS */\n  0x02\n  0x00\n    /* \"hopium/standalone/main/price-oracle.sol\":3110:3163  UNISWAP_V2_FACTORY_ADDRESS = _uniswapV2FactoryAddress */\n  0x0100\n  exp\n  dup2\n  sload\n  dup2\n  0xffffffffffffffffffffffffffffffffffffffff\n  mul\n  not\n  and\n  swap1\n  dup4\n  0xffffffffffffffffffffffffffffffffffffffff\n  and\n  mul\n  or\n  swap1\n  sstore\n  pop\n    /* \"hopium/standalone/main/price-oracle.sol\":2913:3170  constructor(address _wethAddress, address _wethUsdPairAddress, address _uniswapV2FactoryAddress) {... */\n  pop\n  pop\n  pop\n    /* \"hopium/standalone/main/price-oracle.sol\":2875:4628  contract PriceOracle is Helpers {... */\n  jump(tag_6)\n    /* \"#utility.yul\":88:205   */\ntag_8:\n    /* \"#utility.yul\":197:198   */\n  0x00\n    /* \"#utility.yul\":194:195   */\n  0x00\n    /* \"#utility.yul\":187:199   */\n  revert\n    /* \"#utility.yul\":334:460   */\ntag_10:\n    /* \"#utility.yul\":371:378   */\n  0x00\n    /* \"#utility.yul\":411:453   */\n  0xffffffffffffffffffffffffffffffffffffffff\n    /* \"#utility.yul\":404:409   */\n  dup3\n    /* \"#utility.yul\":400:454   */\n  and\n    /* \"#utility.yul\":389:454   */\n  swap1\n  pop\n    /* \"#utility.yul\":334:460   */\n  swap2\n  swap1\n  pop\n  jump\t// out\n    /* \"#utility.yul\":466:562   */\ntag_11:\n    /* \"#utility.yul\":503:510   */\n  0x00\n    /* \"#utility.yul\":532:556   */\n  tag_20\n    /* \"#utility.yul\":550:555   */\n  dup3\n    /* \"#utility.yul\":532:556   */\n  tag_10\n  jump\t// in\ntag_20:\n    /* \"#utility.yul\":521:556   */\n  swap1\n  pop\n    /* \"#utility.yul\":466:562   */\n  swap2\n  swap1\n  pop\n  jump\t// out\n    /* \"#utility.yul\":568:690   */\ntag_12:\n    /* \"#utility.yul\":641:665   */\n  tag_22\n    /* \"#utility.yul\":659:664   */\n  dup2\n    /* \"#utility.yul\":641:665   */\n  tag_11\n  jump\t// in\ntag_22:\n    /* \"#utility.yul\":634:639   */\n  dup2\n    /* \"#utility.yul\":631:666   */\n  eq\n    /* \"#utility.yul\":621:684   */\n  tag_23\n  jumpi\n    /* \"#utility.yul\":680:681   */\n  0x00\n    /* \"#utility.yul\":677:678   */\n  0x00\n    /* \"#utility.yul\":670:682   */\n  revert\n    /* \"#utility.yul\":621:684   */\ntag_23:\n    /* \"#utility.yul\":568:690   */\n  pop\n  jump\t// out\n    /* \"#utility.yul\":696:839   */\ntag_13:\n    /* \"#utility.yul\":753:758   */\n  0x00\n    /* \"#utility.yul\":784:790   */\n  dup2\n    /* \"#utility.yul\":778:791   */\n  mload\n    /* \"#utility.yul\":769:791   */\n  swap1\n  pop\n    /* \"#utility.yul\":800:833   */\n  tag_25\n    /* \"#utility.yul\":827:832   */\n  dup2\n    /* \"#utility.yul\":800:833   */\n  tag_12\n  jump\t// in\ntag_25:\n    /* \"#utility.yul\":696:839   */\n  swap3\n  swap2\n  pop\n  pop\n  jump\t// out\n    /* \"#utility.yul\":845:1508   */\ntag_3:\n    /* \"#utility.yul\":933:939   */\n  0x00\n    /* \"#utility.yul\":941:947   */\n  0x00\n    /* \"#utility.yul\":949:955   */\n  0x00\n    /* \"#utility.yul\":998:1000   */\n  0x60\n    /* \"#utility.yul\":986:995   */\n  dup5\n    /* \"#utility.yul\":977:984   */\n  dup7\n    /* \"#utility.yul\":973:996   */\n  sub\n    /* \"#utility.yul\":969:1001   */\n  slt\n    /* \"#utility.yul\":966:1085   */\n  iszero\n  tag_27\n  jumpi\n    /* \"#utility.yul\":1004:1083   */\n  tag_28\n  tag_8\n  jump\t// in\ntag_28:\n    /* \"#utility.yul\":966:1085   */\ntag_27:\n    /* \"#utility.yul\":1124:1125   */\n  0x00\n    /* \"#utility.yul\":1149:1213   */\n  tag_29\n    /* \"#utility.yul\":1205:1212   */\n  dup7\n    /* \"#utility.yul\":1196:1202   */\n  dup3\n    /* \"#utility.yul\":1185:1194   */\n  dup8\n    /* \"#utility.yul\":1181:1203   */\n  add\n    /* \"#utility.yul\":1149:1213   */\n  tag_13\n  jump\t// in\ntag_29:\n    /* \"#utility.yul\":1139:1213   */\n  swap4\n  pop\n    /* \"#utility.yul\":1095:1223   */\n  pop\n    /* \"#utility.yul\":1262:1264   */\n  0x20\n    /* \"#utility.yul\":1288:1352   */\n  tag_30\n    /* \"#utility.yul\":1344:1351   */\n  dup7\n    /* \"#utility.yul\":1335:1341   */\n  dup3\n    /* \"#utility.yul\":1324:1333   */\n  dup8\n    /* \"#utility.yul\":1320:1342   */\n  add\n    /* \"#utility.yul\":1288:1352   */\n  tag_13\n  jump\t// in\ntag_30:\n    /* \"#utility.yul\":1278:1352   */\n  swap3\n  pop\n    /* \"#utility.yul\":1233:1362   */\n  pop\n    /* \"#utility.yul\":1401:1403   */\n  0x40\n    /* \"#utility.yul\":1427:1491   */\n  tag_31\n    /* \"#utility.yul\":1483:1490   */\n  dup7\n    /* \"#utility.yul\":1474:1480   */\n  dup3\n    /* \"#utility.yul\":1463:1472   */\n  dup8\n    /* \"#utility.yul\":1459:1481   */\n  add\n    /* \"#utility.yul\":1427:1491   */\n  tag_13\n  jump\t// in\ntag_31:\n    /* \"#utility.yul\":1417:1491   */\n  swap2\n  pop\n    /* \"#utility.yul\":1372:1501   */\n  pop\n    /* \"#utility.yul\":845:1508   */\n  swap3\n  pop\n  swap3\n  pop\n  swap3\n  jump\t// out\n    /* \"hopium/standalone/main/price-oracle.sol\":2875:4628  contract PriceOracle is Helpers {... */\ntag_6:\n  dataSize(sub_0)\n  dup1\n  dataOffset(sub_0)\n  0x00\n  codecopy\n  0x00\n  return\nstop\n\nsub_0: assembly {\n        /* \"hopium/standalone/main/price-oracle.sol\":2875:4628  contract PriceOracle is Helpers {... */\n      mstore(0x40, 0x80)\n      callvalue\n      dup1\n      iszero\n      tag_1\n      jumpi\n      revert(0x00, 0x00)\n    tag_1:\n      pop\n      jumpi(tag_2, lt(calldatasize, 0x04))\n      shr(0xe0, calldataload(0x00))\n      dup1\n      0x593bcf\n      eq\n      tag_3\n      jumpi\n      dup1\n      0x040141e5\n      eq\n      tag_4\n      jumpi\n      dup1\n      0x0b017603\n      eq\n      tag_5\n      jumpi\n      dup1\n      0x6855e939\n      eq\n      tag_6\n      jumpi\n      dup1\n      0x7b49b49d\n      eq\n      tag_7\n      jumpi\n      dup1\n      0x884ec7a9\n      eq\n      tag_8\n      jumpi\n    tag_2:\n      revert(0x00, 0x00)\n        /* \"hopium/standalone/main/price-oracle.sol\":3812:4169  function getTokenUsdPrice(address tokenAddress) public view returns (uint256 price18) {... */\n    tag_3:\n      tag_9\n      0x04\n      dup1\n      calldatasize\n      sub\n      dup2\n      add\n      swap1\n      tag_10\n      swap2\n      swap1\n      tag_11\n      jump\t// in\n    tag_10:\n      tag_12\n      jump\t// in\n    tag_9:\n      mload(0x40)\n      tag_13\n      swap2\n      swap1\n      tag_14\n      jump\t// in\n    tag_13:\n      mload(0x40)\n      dup1\n      swap2\n      sub\n      swap1\n      return\n        /* \"hopium/standalone/main/price-oracle.sol\":601:628  address public WETH_ADDRESS */\n    tag_4:\n      tag_15\n      tag_16\n      jump\t// in\n    tag_15:\n      mload(0x40)\n      tag_17\n      swap2\n      swap1\n      tag_18\n      jump\t// in\n    tag_17:\n      mload(0x40)\n      dup1\n      swap2\n      sub\n      swap1\n      return\n        /* \"hopium/standalone/main/price-oracle.sol\":634:670  address public WETH_USD_PAIR_ADDRESS */\n    tag_5:\n      tag_19\n      tag_20\n      jump\t// in\n    tag_19:\n      mload(0x40)\n      tag_21\n      swap2\n      swap1\n      tag_18\n      jump\t// in\n    tag_21:\n      mload(0x40)\n      dup1\n      swap2\n      sub\n      swap1\n      return\n        /* \"hopium/standalone/main/price-oracle.sol\":4260:4625  function getWethUsdPrice() public view returns (uint256 price18) {... */\n    tag_6:\n      tag_22\n      tag_23\n      jump\t// in\n    tag_22:\n      mload(0x40)\n      tag_24\n      swap2\n      swap1\n      tag_14\n      jump\t// in\n    tag_24:\n      mload(0x40)\n      dup1\n      swap2\n      sub\n      swap1\n      return\n        /* \"hopium/standalone/main/price-oracle.sol\":3289:3744  function getTokenWethPrice(address tokenAddress) public view returns (uint256 price18) {... */\n    tag_7:\n      tag_25\n      0x04\n      dup1\n      calldatasize\n      sub\n      dup2\n      add\n      swap1\n      tag_26\n      swap2\n      swap1\n      tag_11\n      jump\t// in\n    tag_26:\n      tag_27\n      jump\t// in\n    tag_25:\n      mload(0x40)\n      tag_28\n      swap2\n      swap1\n      tag_14\n      jump\t// in\n    tag_28:\n      mload(0x40)\n      dup1\n      swap2\n      sub\n      swap1\n      return\n        /* \"hopium/standalone/main/price-oracle.sol\":676:717  address public UNISWAP_V2_FACTORY_ADDRESS */\n    tag_8:\n      tag_29\n      tag_30\n      jump\t// in\n    tag_29:\n      mload(0x40)\n      tag_31\n      swap2\n      swap1\n      tag_18\n      jump\t// in\n    tag_31:\n      mload(0x40)\n      dup1\n      swap2\n      sub\n      swap1\n      return\n        /* \"hopium/standalone/main/price-oracle.sol\":3812:4169  function getTokenUsdPrice(address tokenAddress) public view returns (uint256 price18) {... */\n    tag_12:\n        /* \"hopium/standalone/main/price-oracle.sol\":3881:3896  uint256 price18 */\n      0x00\n        /* \"hopium/standalone/main/price-oracle.sol\":3908:3925  uint256 tokenWeth */\n      0x00\n        /* \"hopium/standalone/main/price-oracle.sol\":3928:3959  getTokenWethPrice(tokenAddress) */\n      tag_33\n        /* \"hopium/standalone/main/price-oracle.sol\":3946:3958  tokenAddress */\n      dup4\n        /* \"hopium/standalone/main/price-oracle.sol\":3928:3945  getTokenWethPrice */\n      tag_27\n        /* \"hopium/standalone/main/price-oracle.sol\":3928:3959  getTokenWethPrice(tokenAddress) */\n      jump\t// in\n    tag_33:\n        /* \"hopium/standalone/main/price-oracle.sol\":3908:3959  uint256 tokenWeth = getTokenWethPrice(tokenAddress) */\n      swap1\n      pop\n        /* \"hopium/standalone/main/price-oracle.sol\":3989:4004  uint256 wethUsd */\n      0x00\n        /* \"hopium/standalone/main/price-oracle.sol\":4009:4026  getWethUsdPrice() */\n      tag_34\n        /* \"hopium/standalone/main/price-oracle.sol\":4009:4024  getWethUsdPrice */\n      tag_23\n        /* \"hopium/standalone/main/price-oracle.sol\":4009:4026  getWethUsdPrice() */\n      jump\t// in\n    tag_34:\n        /* \"hopium/standalone/main/price-oracle.sol\":3989:4026  uint256 wethUsd   = getWethUsdPrice() */\n      swap1\n      pop\n        /* \"hopium/standalone/main/price-oracle.sol\":4158:4162  1e18 */\n      0x0de0b6b3a7640000\n        /* \"hopium/standalone/main/price-oracle.sol\":4147:4154  wethUsd */\n      dup2\n        /* \"hopium/standalone/main/price-oracle.sol\":4135:4144  tokenWeth */\n      dup4\n        /* \"hopium/standalone/main/price-oracle.sol\":4135:4154  tokenWeth * wethUsd */\n      tag_35\n      swap2\n      swap1\n      tag_36\n      jump\t// in\n    tag_35:\n        /* \"hopium/standalone/main/price-oracle.sol\":4134:4162  (tokenWeth * wethUsd) / 1e18 */\n      tag_37\n      swap2\n      swap1\n      tag_38\n      jump\t// in\n    tag_37:\n        /* \"hopium/standalone/main/price-oracle.sol\":4124:4162  price18 = (tokenWeth * wethUsd) / 1e18 */\n      swap3\n      pop\n        /* \"hopium/standalone/main/price-oracle.sol\":3898:4169  {... */\n      pop\n      pop\n        /* \"hopium/standalone/main/price-oracle.sol\":3812:4169  function getTokenUsdPrice(address tokenAddress) public view returns (uint256 price18) {... */\n      swap2\n      swap1\n      pop\n      jump\t// out\n        /* \"hopium/standalone/main/price-oracle.sol\":601:628  address public WETH_ADDRESS */\n    tag_16:\n      0x00\n      0x00\n      swap1\n      sload\n      swap1\n      0x0100\n      exp\n      swap1\n      div\n      0xffffffffffffffffffffffffffffffffffffffff\n      and\n      dup2\n      jump\t// out\n        /* \"hopium/standalone/main/price-oracle.sol\":634:670  address public WETH_USD_PAIR_ADDRESS */\n    tag_20:\n      0x01\n      0x00\n      swap1\n      sload\n      swap1\n      0x0100\n      exp\n      swap1\n      div\n      0xffffffffffffffffffffffffffffffffffffffff\n      and\n      dup2\n      jump\t// out\n        /* \"hopium/standalone/main/price-oracle.sol\":4260:4625  function getWethUsdPrice() public view returns (uint256 price18) {... */\n    tag_23:\n        /* \"hopium/standalone/main/price-oracle.sol\":4308:4323  uint256 price18 */\n      0x00\n        /* \"hopium/standalone/main/price-oracle.sol\":4349:4368  uint256 reserveWeth */\n      0x00\n        /* \"hopium/standalone/main/price-oracle.sol\":4382:4392  uint8 decW */\n      0x00\n        /* \"hopium/standalone/main/price-oracle.sol\":4406:4424  uint256 reserveUsd */\n      0x00\n        /* \"hopium/standalone/main/price-oracle.sol\":4438:4448  uint8 decU */\n      0x00\n        /* \"hopium/standalone/main/price-oracle.sol\":4463:4519  _getOrderedReserves(WETH_USD_PAIR_ADDRESS, WETH_ADDRESS) */\n      tag_40\n        /* \"hopium/standalone/main/price-oracle.sol\":4483:4504  WETH_USD_PAIR_ADDRESS */\n      0x01\n      0x00\n      swap1\n      sload\n      swap1\n      0x0100\n      exp\n      swap1\n      div\n      0xffffffffffffffffffffffffffffffffffffffff\n      and\n        /* \"hopium/standalone/main/price-oracle.sol\":4506:4518  WETH_ADDRESS */\n      0x00\n      0x00\n      swap1\n      sload\n      swap1\n      0x0100\n      exp\n      swap1\n      div\n      0xffffffffffffffffffffffffffffffffffffffff\n      and\n        /* \"hopium/standalone/main/price-oracle.sol\":4463:4482  _getOrderedReserves */\n      tag_41\n        /* \"hopium/standalone/main/price-oracle.sol\":4463:4519  _getOrderedReserves(WETH_USD_PAIR_ADDRESS, WETH_ADDRESS) */\n      jump\t// in\n    tag_40:\n        /* \"hopium/standalone/main/price-oracle.sol\":4335:4519  (... */\n      pop\n      swap4\n      pop\n      swap4\n      pop\n      swap4\n      pop\n      swap4\n      pop\n        /* \"hopium/standalone/main/price-oracle.sol\":4566:4618  _computePrice18(reserveUsd, decU, reserveWeth, decW) */\n      tag_42\n        /* \"hopium/standalone/main/price-oracle.sol\":4582:4592  reserveUsd */\n      dup3\n        /* \"hopium/standalone/main/price-oracle.sol\":4594:4598  decU */\n      dup3\n        /* \"hopium/standalone/main/price-oracle.sol\":4600:4611  reserveWeth */\n      dup7\n        /* \"hopium/standalone/main/price-oracle.sol\":4613:4617  decW */\n      dup7\n        /* \"hopium/standalone/main/price-oracle.sol\":4566:4581  _computePrice18 */\n      tag_43\n        /* \"hopium/standalone/main/price-oracle.sol\":4566:4618  _computePrice18(reserveUsd, decU, reserveWeth, decW) */\n      jump\t// in\n    tag_42:\n        /* \"hopium/standalone/main/price-oracle.sol\":4556:4618  price18 = _computePrice18(reserveUsd, decU, reserveWeth, decW) */\n      swap5\n      pop\n        /* \"hopium/standalone/main/price-oracle.sol\":4325:4625  {... */\n      pop\n      pop\n      pop\n      pop\n        /* \"hopium/standalone/main/price-oracle.sol\":4260:4625  function getWethUsdPrice() public view returns (uint256 price18) {... */\n      swap1\n      jump\t// out\n        /* \"hopium/standalone/main/price-oracle.sol\":3289:3744  function getTokenWethPrice(address tokenAddress) public view returns (uint256 price18) {... */\n    tag_27:\n        /* \"hopium/standalone/main/price-oracle.sol\":3359:3374  uint256 price18 */\n      0x00\n        /* \"hopium/standalone/main/price-oracle.sol\":3386:3405  address pairAddress */\n      0x00\n        /* \"hopium/standalone/main/price-oracle.sol\":3408:3448  _getTokenToWethPairAddress(tokenAddress) */\n      tag_45\n        /* \"hopium/standalone/main/price-oracle.sol\":3435:3447  tokenAddress */\n      dup4\n        /* \"hopium/standalone/main/price-oracle.sol\":3408:3434  _getTokenToWethPairAddress */\n      tag_46\n        /* \"hopium/standalone/main/price-oracle.sol\":3408:3448  _getTokenToWethPairAddress(tokenAddress) */\n      jump\t// in\n    tag_45:\n        /* \"hopium/standalone/main/price-oracle.sol\":3386:3448  address pairAddress = _getTokenToWethPairAddress(tokenAddress) */\n      swap1\n      pop\n        /* \"hopium/standalone/main/price-oracle.sol\":3472:3491  uint256 reserveWeth */\n      0x00\n        /* \"hopium/standalone/main/price-oracle.sol\":3505:3515  uint8 decW */\n      0x00\n        /* \"hopium/standalone/main/price-oracle.sol\":3529:3549  uint256 reserveQuote */\n      0x00\n        /* \"hopium/standalone/main/price-oracle.sol\":3563:3573  uint8 decQ */\n      0x00\n        /* \"hopium/standalone/main/price-oracle.sol\":3588:3634  _getOrderedReserves(pairAddress, WETH_ADDRESS) */\n      tag_47\n        /* \"hopium/standalone/main/price-oracle.sol\":3608:3619  pairAddress */\n      dup6\n        /* \"hopium/standalone/main/price-oracle.sol\":3621:3633  WETH_ADDRESS */\n      0x00\n      0x00\n      swap1\n      sload\n      swap1\n      0x0100\n      exp\n      swap1\n      div\n      0xffffffffffffffffffffffffffffffffffffffff\n      and\n        /* \"hopium/standalone/main/price-oracle.sol\":3588:3607  _getOrderedReserves */\n      tag_41\n        /* \"hopium/standalone/main/price-oracle.sol\":3588:3634  _getOrderedReserves(pairAddress, WETH_ADDRESS) */\n      jump\t// in\n    tag_47:\n        /* \"hopium/standalone/main/price-oracle.sol\":3458:3634  (... */\n      pop\n      swap4\n      pop\n      swap4\n      pop\n      swap4\n      pop\n      swap4\n      pop\n        /* \"hopium/standalone/main/price-oracle.sol\":3683:3737  _computePrice18(reserveWeth, decW, reserveQuote, decQ) */\n      tag_48\n        /* \"hopium/standalone/main/price-oracle.sol\":3699:3710  reserveWeth */\n      dup5\n        /* \"hopium/standalone/main/price-oracle.sol\":3712:3716  decW */\n      dup5\n        /* \"hopium/standalone/main/price-oracle.sol\":3718:3730  reserveQuote */\n      dup5\n        /* \"hopium/standalone/main/price-oracle.sol\":3732:3736  decQ */\n      dup5\n        /* \"hopium/standalone/main/price-oracle.sol\":3683:3698  _computePrice18 */\n      tag_43\n        /* \"hopium/standalone/main/price-oracle.sol\":3683:3737  _computePrice18(reserveWeth, decW, reserveQuote, decQ) */\n      jump\t// in\n    tag_48:\n        /* \"hopium/standalone/main/price-oracle.sol\":3673:3737  price18 = _computePrice18(reserveWeth, decW, reserveQuote, decQ) */\n      swap6\n      pop\n        /* \"hopium/standalone/main/price-oracle.sol\":3376:3744  {... */\n      pop\n      pop\n      pop\n      pop\n      pop\n        /* \"hopium/standalone/main/price-oracle.sol\":3289:3744  function getTokenWethPrice(address tokenAddress) public view returns (uint256 price18) {... */\n      swap2\n      swap1\n      pop\n      jump\t// out\n        /* \"hopium/standalone/main/price-oracle.sol\":676:717  address public UNISWAP_V2_FACTORY_ADDRESS */\n    tag_30:\n      0x02\n      0x00\n      swap1\n      sload\n      swap1\n      0x0100\n      exp\n      swap1\n      div\n      0xffffffffffffffffffffffffffffffffffffffff\n      and\n      dup2\n      jump\t// out\n        /* \"hopium/standalone/main/price-oracle.sol\":868:1991  function _getOrderedReserves(address pairAddress, address baseToken)... */\n    tag_41:\n        /* \"hopium/standalone/main/price-oracle.sol\":997:1016  uint256 reserveBase */\n      0x00\n        /* \"hopium/standalone/main/price-oracle.sol\":1030:1043  uint8 decBase */\n      0x00\n        /* \"hopium/standalone/main/price-oracle.sol\":1057:1077  uint256 reserveQuote */\n      0x00\n        /* \"hopium/standalone/main/price-oracle.sol\":1091:1105  uint8 decQuote */\n      0x00\n        /* \"hopium/standalone/main/price-oracle.sol\":1119:1137  address quoteToken */\n      0x00\n        /* \"hopium/standalone/main/price-oracle.sol\":1162:1181  IUniswapV2Pair pair */\n      0x00\n        /* \"hopium/standalone/main/price-oracle.sol\":1199:1210  pairAddress */\n      dup8\n        /* \"hopium/standalone/main/price-oracle.sol\":1162:1211  IUniswapV2Pair pair = IUniswapV2Pair(pairAddress) */\n      swap1\n      pop\n        /* \"hopium/standalone/main/price-oracle.sol\":1222:1232  uint112 r0 */\n      0x00\n        /* \"hopium/standalone/main/price-oracle.sol\":1234:1244  uint112 r1 */\n      0x00\n        /* \"hopium/standalone/main/price-oracle.sol\":1250:1254  pair */\n      dup3\n        /* \"hopium/standalone/main/price-oracle.sol\":1250:1266  pair.getReserves */\n      0xffffffffffffffffffffffffffffffffffffffff\n      and\n      0x0902f1ac\n        /* \"hopium/standalone/main/price-oracle.sol\":1250:1268  pair.getReserves() */\n      mload(0x40)\n      dup2\n      0xffffffff\n      and\n      0xe0\n      shl\n      dup2\n      mstore\n      0x04\n      add\n      0x60\n      mload(0x40)\n      dup1\n      dup4\n      sub\n      dup2\n      dup7\n      gas\n      staticcall\n      iszero\n      dup1\n      iszero\n      tag_51\n      jumpi\n      returndatacopy(0x00, 0x00, returndatasize)\n      revert(0x00, returndatasize)\n    tag_51:\n      pop\n      pop\n      pop\n      pop\n      mload(0x40)\n      returndatasize\n      not(0x1f)\n      0x1f\n      dup3\n      add\n      and\n      dup3\n      add\n      dup1\n      0x40\n      mstore\n      pop\n      dup2\n      add\n      swap1\n      tag_52\n      swap2\n      swap1\n      tag_53\n      jump\t// in\n    tag_52:\n        /* \"hopium/standalone/main/price-oracle.sol\":1221:1268  (uint112 r0, uint112 r1, ) = pair.getReserves() */\n      pop\n      swap2\n      pop\n      swap2\n      pop\n        /* \"hopium/standalone/main/price-oracle.sol\":1278:1288  address t0 */\n      0x00\n        /* \"hopium/standalone/main/price-oracle.sol\":1291:1295  pair */\n      dup4\n        /* \"hopium/standalone/main/price-oracle.sol\":1291:1302  pair.token0 */\n      0xffffffffffffffffffffffffffffffffffffffff\n      and\n      0x0dfe1681\n        /* \"hopium/standalone/main/price-oracle.sol\":1291:1304  pair.token0() */\n      mload(0x40)\n      dup2\n      0xffffffff\n      and\n      0xe0\n      shl\n      dup2\n      mstore\n      0x04\n      add\n      0x20\n      mload(0x40)\n      dup1\n      dup4\n      sub\n      dup2\n      dup7\n      gas\n      staticcall\n      iszero\n      dup1\n      iszero\n      tag_55\n      jumpi\n      returndatacopy(0x00, 0x00, returndatasize)\n      revert(0x00, returndatasize)\n    tag_55:\n      pop\n      pop\n      pop\n      pop\n      mload(0x40)\n      returndatasize\n      not(0x1f)\n      0x1f\n      dup3\n      add\n      and\n      dup3\n      add\n      dup1\n      0x40\n      mstore\n      pop\n      dup2\n      add\n      swap1\n      tag_56\n      swap2\n      swap1\n      tag_57\n      jump\t// in\n    tag_56:\n        /* \"hopium/standalone/main/price-oracle.sol\":1278:1304  address t0 = pair.token0() */\n      swap1\n      pop\n        /* \"hopium/standalone/main/price-oracle.sol\":1314:1324  address t1 */\n      0x00\n        /* \"hopium/standalone/main/price-oracle.sol\":1327:1331  pair */\n      dup5\n        /* \"hopium/standalone/main/price-oracle.sol\":1327:1338  pair.token1 */\n      0xffffffffffffffffffffffffffffffffffffffff\n      and\n      0xd21220a7\n        /* \"hopium/standalone/main/price-oracle.sol\":1327:1340  pair.token1() */\n      mload(0x40)\n      dup2\n      0xffffffff\n      and\n      0xe0\n      shl\n      dup2\n      mstore\n      0x04\n      add\n      0x20\n      mload(0x40)\n      dup1\n      dup4\n      sub\n      dup2\n      dup7\n      gas\n      staticcall\n      iszero\n      dup1\n      iszero\n      tag_59\n      jumpi\n      returndatacopy(0x00, 0x00, returndatasize)\n      revert(0x00, returndatasize)\n    tag_59:\n      pop\n      pop\n      pop\n      pop\n      mload(0x40)\n      returndatasize\n      not(0x1f)\n      0x1f\n      dup3\n      add\n      and\n      dup3\n      add\n      dup1\n      0x40\n      mstore\n      pop\n      dup2\n      add\n      swap1\n      tag_60\n      swap2\n      swap1\n      tag_57\n      jump\t// in\n    tag_60:\n        /* \"hopium/standalone/main/price-oracle.sol\":1314:1340  address t1 = pair.token1() */\n      swap1\n      pop\n        /* \"hopium/standalone/main/price-oracle.sol\":1351:1368  bool baseIsToken0 */\n      0x00\n        /* \"hopium/standalone/main/price-oracle.sol\":1388:1397  baseToken */\n      dup12\n        /* \"hopium/standalone/main/price-oracle.sol\":1382:1397  t0 == baseToken */\n      0xffffffffffffffffffffffffffffffffffffffff\n      and\n        /* \"hopium/standalone/main/price-oracle.sol\":1382:1384  t0 */\n      dup4\n        /* \"hopium/standalone/main/price-oracle.sol\":1382:1397  t0 == baseToken */\n      0xffffffffffffffffffffffffffffffffffffffff\n      and\n      sub\n        /* \"hopium/standalone/main/price-oracle.sol\":1378:1588  if (t0 == baseToken) {... */\n      tag_61\n      jumpi\n        /* \"hopium/standalone/main/price-oracle.sol\":1428:1432  true */\n      0x01\n        /* \"hopium/standalone/main/price-oracle.sol\":1413:1432  baseIsToken0 = true */\n      swap1\n      pop\n        /* \"hopium/standalone/main/price-oracle.sol\":1378:1588  if (t0 == baseToken) {... */\n      jump(tag_62)\n    tag_61:\n        /* \"hopium/standalone/main/price-oracle.sol\":1459:1468  baseToken */\n      dup12\n        /* \"hopium/standalone/main/price-oracle.sol\":1453:1468  t1 == baseToken */\n      0xffffffffffffffffffffffffffffffffffffffff\n      and\n        /* \"hopium/standalone/main/price-oracle.sol\":1453:1455  t1 */\n      dup3\n        /* \"hopium/standalone/main/price-oracle.sol\":1453:1468  t1 == baseToken */\n      0xffffffffffffffffffffffffffffffffffffffff\n      and\n      sub\n        /* \"hopium/standalone/main/price-oracle.sol\":1449:1588  if (t1 == baseToken) {... */\n      tag_63\n      jumpi\n        /* \"hopium/standalone/main/price-oracle.sol\":1499:1504  false */\n      0x00\n        /* \"hopium/standalone/main/price-oracle.sol\":1484:1504  baseIsToken0 = false */\n      swap1\n      pop\n        /* \"hopium/standalone/main/price-oracle.sol\":1449:1588  if (t1 == baseToken) {... */\n      jump(tag_64)\n    tag_63:\n        /* \"hopium/standalone/main/price-oracle.sol\":1535:1577  revert(\"Pair does not contain base token\") */\n      mload(0x40)\n      0x08c379a000000000000000000000000000000000000000000000000000000000\n      dup2\n      mstore\n      0x04\n      add\n      tag_65\n      swap1\n      tag_66\n      jump\t// in\n    tag_65:\n      mload(0x40)\n      dup1\n      swap2\n      sub\n      swap1\n      revert\n        /* \"hopium/standalone/main/price-oracle.sol\":1449:1588  if (t1 == baseToken) {... */\n    tag_64:\n        /* \"hopium/standalone/main/price-oracle.sol\":1378:1588  if (t0 == baseToken) {... */\n    tag_62:\n        /* \"hopium/standalone/main/price-oracle.sol\":1613:1625  baseIsToken0 */\n      dup1\n        /* \"hopium/standalone/main/price-oracle.sol\":1613:1653  baseIsToken0 ? uint256(r0) : uint256(r1) */\n      tag_67\n      jumpi\n        /* \"hopium/standalone/main/price-oracle.sol\":1650:1652  r1 */\n      dup4\n        /* \"hopium/standalone/main/price-oracle.sol\":1642:1653  uint256(r1) */\n      0xffffffffffffffffffffffffffff\n      and\n        /* \"hopium/standalone/main/price-oracle.sol\":1613:1653  baseIsToken0 ? uint256(r0) : uint256(r1) */\n      jump(tag_68)\n    tag_67:\n        /* \"hopium/standalone/main/price-oracle.sol\":1636:1638  r0 */\n      dup5\n        /* \"hopium/standalone/main/price-oracle.sol\":1628:1639  uint256(r0) */\n      0xffffffffffffffffffffffffffff\n      and\n        /* \"hopium/standalone/main/price-oracle.sol\":1613:1653  baseIsToken0 ? uint256(r0) : uint256(r1) */\n    tag_68:\n        /* \"hopium/standalone/main/price-oracle.sol\":1598:1653  reserveBase  = baseIsToken0 ? uint256(r0) : uint256(r1) */\n      swap11\n      pop\n        /* \"hopium/standalone/main/price-oracle.sol\":1678:1690  baseIsToken0 */\n      dup1\n        /* \"hopium/standalone/main/price-oracle.sol\":1678:1718  baseIsToken0 ? uint256(r1) : uint256(r0) */\n      tag_69\n      jumpi\n        /* \"hopium/standalone/main/price-oracle.sol\":1715:1717  r0 */\n      dup5\n        /* \"hopium/standalone/main/price-oracle.sol\":1707:1718  uint256(r0) */\n      0xffffffffffffffffffffffffffff\n      and\n        /* \"hopium/standalone/main/price-oracle.sol\":1678:1718  baseIsToken0 ? uint256(r1) : uint256(r0) */\n      jump(tag_70)\n    tag_69:\n        /* \"hopium/standalone/main/price-oracle.sol\":1701:1703  r1 */\n      dup4\n        /* \"hopium/standalone/main/price-oracle.sol\":1693:1704  uint256(r1) */\n      0xffffffffffffffffffffffffffff\n      and\n        /* \"hopium/standalone/main/price-oracle.sol\":1678:1718  baseIsToken0 ? uint256(r1) : uint256(r0) */\n    tag_70:\n        /* \"hopium/standalone/main/price-oracle.sol\":1663:1718  reserveQuote = baseIsToken0 ? uint256(r1) : uint256(r0) */\n      swap9\n      pop\n        /* \"hopium/standalone/main/price-oracle.sol\":1743:1755  baseIsToken0 */\n      dup1\n        /* \"hopium/standalone/main/price-oracle.sol\":1743:1765  baseIsToken0 ? t1 : t0 */\n      tag_71\n      jumpi\n        /* \"hopium/standalone/main/price-oracle.sol\":1763:1765  t0 */\n      dup3\n        /* \"hopium/standalone/main/price-oracle.sol\":1743:1765  baseIsToken0 ? t1 : t0 */\n      jump(tag_72)\n    tag_71:\n        /* \"hopium/standalone/main/price-oracle.sol\":1758:1760  t1 */\n      dup2\n        /* \"hopium/standalone/main/price-oracle.sol\":1743:1765  baseIsToken0 ? t1 : t0 */\n    tag_72:\n        /* \"hopium/standalone/main/price-oracle.sol\":1728:1765  quoteToken   = baseIsToken0 ? t1 : t0 */\n      swap7\n      pop\n        /* \"hopium/standalone/main/price-oracle.sol\":1905:1914  baseToken */\n      dup12\n        /* \"hopium/standalone/main/price-oracle.sol\":1890:1924  IERC20Metadata(baseToken).decimals */\n      0xffffffffffffffffffffffffffffffffffffffff\n      and\n      0x313ce567\n        /* \"hopium/standalone/main/price-oracle.sol\":1890:1926  IERC20Metadata(baseToken).decimals() */\n      mload(0x40)\n      dup2\n      0xffffffff\n      and\n      0xe0\n      shl\n      dup2\n      mstore\n      0x04\n      add\n      0x20\n      mload(0x40)\n      dup1\n      dup4\n      sub\n      dup2\n      dup7\n      gas\n      staticcall\n      iszero\n      dup1\n      iszero\n      tag_74\n      jumpi\n      returndatacopy(0x00, 0x00, returndatasize)\n      revert(0x00, returndatasize)\n    tag_74:\n      pop\n      pop\n      pop\n      pop\n      mload(0x40)\n      returndatasize\n      not(0x1f)\n      0x1f\n      dup3\n      add\n      and\n      dup3\n      add\n      dup1\n      0x40\n      mstore\n      pop\n      dup2\n      add\n      swap1\n      tag_75\n      swap2\n      swap1\n      tag_76\n      jump\t// in\n    tag_75:\n        /* \"hopium/standalone/main/price-oracle.sol\":1879:1926  decBase  = IERC20Metadata(baseToken).decimals() */\n      swap10\n      pop\n        /* \"hopium/standalone/main/price-oracle.sol\":1962:1972  quoteToken */\n      dup7\n        /* \"hopium/standalone/main/price-oracle.sol\":1947:1982  IERC20Metadata(quoteToken).decimals */\n      0xffffffffffffffffffffffffffffffffffffffff\n      and\n      0x313ce567\n        /* \"hopium/standalone/main/price-oracle.sol\":1947:1984  IERC20Metadata(quoteToken).decimals() */\n      mload(0x40)\n      dup2\n      0xffffffff\n      and\n      0xe0\n      shl\n      dup2\n      mstore\n      0x04\n      add\n      0x20\n      mload(0x40)\n      dup1\n      dup4\n      sub\n      dup2\n      dup7\n      gas\n      staticcall\n      iszero\n      dup1\n      iszero\n      tag_78\n      jumpi\n      returndatacopy(0x00, 0x00, returndatasize)\n      revert(0x00, returndatasize)\n    tag_78:\n      pop\n      pop\n      pop\n      pop\n      mload(0x40)\n      returndatasize\n      not(0x1f)\n      0x1f\n      dup3\n      add\n      and\n      dup3\n      add\n      dup1\n      0x40\n      mstore\n      pop\n      dup2\n      add\n      swap1\n      tag_79\n      swap2\n      swap1\n      tag_76\n      jump\t// in\n    tag_79:\n        /* \"hopium/standalone/main/price-oracle.sol\":1936:1984  decQuote = IERC20Metadata(quoteToken).decimals() */\n      swap8\n      pop\n        /* \"hopium/standalone/main/price-oracle.sol\":1152:1991  {... */\n      pop\n      pop\n      pop\n      pop\n      pop\n      pop\n        /* \"hopium/standalone/main/price-oracle.sol\":868:1991  function _getOrderedReserves(address pairAddress, address baseToken)... */\n      swap3\n      swap6\n      pop\n      swap3\n      swap6\n      swap1\n      swap4\n      pop\n      jump\t// out\n        /* \"hopium/standalone/main/price-oracle.sol\":2134:2542  function _computePrice18(... */\n    tag_43:\n        /* \"hopium/standalone/main/price-oracle.sol\":2280:2295  uint256 price18 */\n      0x00\n        /* \"hopium/standalone/main/price-oracle.sol\":2307:2318  uint256 num */\n      0x00\n        /* \"hopium/standalone/main/price-oracle.sol\":2332:2336  1e18 */\n      0x0de0b6b3a7640000\n        /* \"hopium/standalone/main/price-oracle.sol\":2321:2329  reserveA */\n      dup7\n        /* \"hopium/standalone/main/price-oracle.sol\":2321:2336  reserveA * 1e18 */\n      tag_81\n      swap2\n      swap1\n      tag_36\n      jump\t// in\n    tag_81:\n        /* \"hopium/standalone/main/price-oracle.sol\":2307:2336  uint256 num = reserveA * 1e18 */\n      swap1\n      pop\n        /* \"hopium/standalone/main/price-oracle.sol\":2357:2361  decA */\n      dup5\n        /* \"hopium/standalone/main/price-oracle.sol\":2350:2361  decB > decA */\n      0xff\n      and\n        /* \"hopium/standalone/main/price-oracle.sol\":2350:2354  decB */\n      dup4\n        /* \"hopium/standalone/main/price-oracle.sol\":2350:2361  decB > decA */\n      0xff\n      and\n      gt\n        /* \"hopium/standalone/main/price-oracle.sol\":2346:2502  if (decB > decA) {... */\n      iszero\n      tag_82\n      jumpi\n        /* \"hopium/standalone/main/price-oracle.sol\":2405:2409  decA */\n      dup5\n        /* \"hopium/standalone/main/price-oracle.sol\":2398:2402  decB */\n      dup4\n        /* \"hopium/standalone/main/price-oracle.sol\":2398:2409  decB - decA */\n      tag_83\n      swap2\n      swap1\n      tag_84\n      jump\t// in\n    tag_83:\n        /* \"hopium/standalone/main/price-oracle.sol\":2390:2410  uint256(decB - decA) */\n      0xff\n      and\n        /* \"hopium/standalone/main/price-oracle.sol\":2384:2386  10 */\n      0x0a\n        /* \"hopium/standalone/main/price-oracle.sol\":2384:2410  10 ** uint256(decB - decA) */\n      tag_85\n      swap2\n      swap1\n      tag_86\n      jump\t// in\n    tag_85:\n        /* \"hopium/standalone/main/price-oracle.sol\":2377:2410  num *= 10 ** uint256(decB - decA) */\n      dup2\n      tag_87\n      swap2\n      swap1\n      tag_36\n      jump\t// in\n    tag_87:\n      swap1\n      pop\n        /* \"hopium/standalone/main/price-oracle.sol\":2346:2502  if (decB > decA) {... */\n      jump(tag_88)\n    tag_82:\n        /* \"hopium/standalone/main/price-oracle.sol\":2438:2442  decB */\n      dup3\n        /* \"hopium/standalone/main/price-oracle.sol\":2431:2442  decA > decB */\n      0xff\n      and\n        /* \"hopium/standalone/main/price-oracle.sol\":2431:2435  decA */\n      dup6\n        /* \"hopium/standalone/main/price-oracle.sol\":2431:2442  decA > decB */\n      0xff\n      and\n      gt\n        /* \"hopium/standalone/main/price-oracle.sol\":2427:2502  if (decA > decB) {... */\n      iszero\n      tag_89\n      jumpi\n        /* \"hopium/standalone/main/price-oracle.sol\":2486:2490  decB */\n      dup3\n        /* \"hopium/standalone/main/price-oracle.sol\":2479:2483  decA */\n      dup6\n        /* \"hopium/standalone/main/price-oracle.sol\":2479:2490  decA - decB */\n      tag_90\n      swap2\n      swap1\n      tag_84\n      jump\t// in\n    tag_90:\n        /* \"hopium/standalone/main/price-oracle.sol\":2471:2491  uint256(decA - decB) */\n      0xff\n      and\n        /* \"hopium/standalone/main/price-oracle.sol\":2465:2467  10 */\n      0x0a\n        /* \"hopium/standalone/main/price-oracle.sol\":2465:2491  10 ** uint256(decA - decB) */\n      tag_91\n      swap2\n      swap1\n      tag_86\n      jump\t// in\n    tag_91:\n        /* \"hopium/standalone/main/price-oracle.sol\":2458:2491  num /= 10 ** uint256(decA - decB) */\n      dup2\n      tag_92\n      swap2\n      swap1\n      tag_38\n      jump\t// in\n    tag_92:\n      swap1\n      pop\n        /* \"hopium/standalone/main/price-oracle.sol\":2427:2502  if (decA > decB) {... */\n    tag_89:\n        /* \"hopium/standalone/main/price-oracle.sol\":2346:2502  if (decB > decA) {... */\n    tag_88:\n        /* \"hopium/standalone/main/price-oracle.sol\":2527:2535  reserveB */\n      dup4\n        /* \"hopium/standalone/main/price-oracle.sol\":2521:2524  num */\n      dup2\n        /* \"hopium/standalone/main/price-oracle.sol\":2521:2535  num / reserveB */\n      tag_93\n      swap2\n      swap1\n      tag_38\n      jump\t// in\n    tag_93:\n        /* \"hopium/standalone/main/price-oracle.sol\":2511:2535  price18 = num / reserveB */\n      swap2\n      pop\n        /* \"hopium/standalone/main/price-oracle.sol\":2297:2542  {... */\n      pop\n        /* \"hopium/standalone/main/price-oracle.sol\":2134:2542  function _computePrice18(... */\n      swap5\n      swap4\n      pop\n      pop\n      pop\n      pop\n      jump\t// out\n        /* \"hopium/standalone/main/price-oracle.sol\":2548:2871  function _getTokenToWethPairAddress(address tokenAddress) internal view returns (address) {... */\n    tag_46:\n        /* \"hopium/standalone/main/price-oracle.sol\":2629:2636  address */\n      0x00\n        /* \"hopium/standalone/main/price-oracle.sol\":2648:2667  address pairAddress */\n      0x00\n        /* \"hopium/standalone/main/price-oracle.sol\":2688:2714  UNISWAP_V2_FACTORY_ADDRESS */\n      0x02\n      0x00\n      swap1\n      sload\n      swap1\n      0x0100\n      exp\n      swap1\n      div\n      0xffffffffffffffffffffffffffffffffffffffff\n      and\n        /* \"hopium/standalone/main/price-oracle.sol\":2670:2723  IUniswapV2Factory(UNISWAP_V2_FACTORY_ADDRESS).getPair */\n      0xffffffffffffffffffffffffffffffffffffffff\n      and\n      0xe6a43905\n        /* \"hopium/standalone/main/price-oracle.sol\":2724:2736  tokenAddress */\n      dup5\n        /* \"hopium/standalone/main/price-oracle.sol\":2738:2750  WETH_ADDRESS */\n      0x00\n      0x00\n      swap1\n      sload\n      swap1\n      0x0100\n      exp\n      swap1\n      div\n      0xffffffffffffffffffffffffffffffffffffffff\n      and\n        /* \"hopium/standalone/main/price-oracle.sol\":2670:2751  IUniswapV2Factory(UNISWAP_V2_FACTORY_ADDRESS).getPair(tokenAddress, WETH_ADDRESS) */\n      mload(0x40)\n      dup4\n      0xffffffff\n      and\n      0xe0\n      shl\n      dup2\n      mstore\n      0x04\n      add\n      tag_95\n      swap3\n      swap2\n      swap1\n      tag_96\n      jump\t// in\n    tag_95:\n      0x20\n      mload(0x40)\n      dup1\n      dup4\n      sub\n      dup2\n      dup7\n      gas\n      staticcall\n      iszero\n      dup1\n      iszero\n      tag_98\n      jumpi\n      returndatacopy(0x00, 0x00, returndatasize)\n      revert(0x00, returndatasize)\n    tag_98:\n      pop\n      pop\n      pop\n      pop\n      mload(0x40)\n      returndatasize\n      not(0x1f)\n      0x1f\n      dup3\n      add\n      and\n      dup3\n      add\n      dup1\n      0x40\n      mstore\n      pop\n      dup2\n      add\n      swap1\n      tag_99\n      swap2\n      swap1\n      tag_57\n      jump\t// in\n    tag_99:\n        /* \"hopium/standalone/main/price-oracle.sol\":2648:2751  address pairAddress = IUniswapV2Factory(UNISWAP_V2_FACTORY_ADDRESS).getPair(tokenAddress, WETH_ADDRESS) */\n      swap1\n      pop\n        /* \"hopium/standalone/main/price-oracle.sol\":2793:2794  0 */\n      0x00\n        /* \"hopium/standalone/main/price-oracle.sol\":2770:2795  pairAddress != address(0) */\n      0xffffffffffffffffffffffffffffffffffffffff\n      and\n        /* \"hopium/standalone/main/price-oracle.sol\":2770:2781  pairAddress */\n      dup2\n        /* \"hopium/standalone/main/price-oracle.sol\":2770:2795  pairAddress != address(0) */\n      0xffffffffffffffffffffffffffffffffffffffff\n      and\n      sub\n        /* \"hopium/standalone/main/price-oracle.sol\":2761:2835  require (pairAddress != address(0), \"UniswapV2Pair: pair does not exist\" ) */\n      tag_100\n      jumpi\n      mload(0x40)\n      0x08c379a000000000000000000000000000000000000000000000000000000000\n      dup2\n      mstore\n      0x04\n      add\n      tag_101\n      swap1\n      tag_102\n      jump\t// in\n    tag_101:\n      mload(0x40)\n      dup1\n      swap2\n      sub\n      swap1\n      revert\n    tag_100:\n        /* \"hopium/standalone/main/price-oracle.sol\":2853:2864  pairAddress */\n      dup1\n        /* \"hopium/standalone/main/price-oracle.sol\":2846:2864  return pairAddress */\n      swap2\n      pop\n      pop\n        /* \"hopium/standalone/main/price-oracle.sol\":2548:2871  function _getTokenToWethPairAddress(address tokenAddress) internal view returns (address) {... */\n      swap2\n      swap1\n      pop\n      jump\t// out\n        /* \"#utility.yul\":88:205   */\n    tag_104:\n        /* \"#utility.yul\":197:198   */\n      0x00\n        /* \"#utility.yul\":194:195   */\n      0x00\n        /* \"#utility.yul\":187:199   */\n      revert\n        /* \"#utility.yul\":334:460   */\n    tag_106:\n        /* \"#utility.yul\":371:378   */\n      0x00\n        /* \"#utility.yul\":411:453   */\n      0xffffffffffffffffffffffffffffffffffffffff\n        /* \"#utility.yul\":404:409   */\n      dup3\n        /* \"#utility.yul\":400:454   */\n      and\n        /* \"#utility.yul\":389:454   */\n      swap1\n      pop\n        /* \"#utility.yul\":334:460   */\n      swap2\n      swap1\n      pop\n      jump\t// out\n        /* \"#utility.yul\":466:562   */\n    tag_107:\n        /* \"#utility.yul\":503:510   */\n      0x00\n        /* \"#utility.yul\":532:556   */\n      tag_139\n        /* \"#utility.yul\":550:555   */\n      dup3\n        /* \"#utility.yul\":532:556   */\n      tag_106\n      jump\t// in\n    tag_139:\n        /* \"#utility.yul\":521:556   */\n      swap1\n      pop\n        /* \"#utility.yul\":466:562   */\n      swap2\n      swap1\n      pop\n      jump\t// out\n        /* \"#utility.yul\":568:690   */\n    tag_108:\n        /* \"#utility.yul\":641:665   */\n      tag_141\n        /* \"#utility.yul\":659:664   */\n      dup2\n        /* \"#utility.yul\":641:665   */\n      tag_107\n      jump\t// in\n    tag_141:\n        /* \"#utility.yul\":634:639   */\n      dup2\n        /* \"#utility.yul\":631:666   */\n      eq\n        /* \"#utility.yul\":621:684   */\n      tag_142\n      jumpi\n        /* \"#utility.yul\":680:681   */\n      0x00\n        /* \"#utility.yul\":677:678   */\n      0x00\n        /* \"#utility.yul\":670:682   */\n      revert\n        /* \"#utility.yul\":621:684   */\n    tag_142:\n        /* \"#utility.yul\":568:690   */\n      pop\n      jump\t// out\n        /* \"#utility.yul\":696:835   */\n    tag_109:\n        /* \"#utility.yul\":742:747   */\n      0x00\n        /* \"#utility.yul\":780:786   */\n      dup2\n        /* \"#utility.yul\":767:787   */\n      calldataload\n        /* \"#utility.yul\":758:787   */\n      swap1\n      pop\n        /* \"#utility.yul\":796:829   */\n      tag_144\n        /* \"#utility.yul\":823:828   */\n      dup2\n        /* \"#utility.yul\":796:829   */\n      tag_108\n      jump\t// in\n    tag_144:\n        /* \"#utility.yul\":696:835   */\n      swap3\n      swap2\n      pop\n      pop\n      jump\t// out\n        /* \"#utility.yul\":841:1170   */\n    tag_11:\n        /* \"#utility.yul\":900:906   */\n      0x00\n        /* \"#utility.yul\":949:951   */\n      0x20\n        /* \"#utility.yul\":937:946   */\n      dup3\n        /* \"#utility.yul\":928:935   */\n      dup5\n        /* \"#utility.yul\":924:947   */\n      sub\n        /* \"#utility.yul\":920:952   */\n      slt\n        /* \"#utility.yul\":917:1036   */\n      iszero\n      tag_146\n      jumpi\n        /* \"#utility.yul\":955:1034   */\n      tag_147\n      tag_104\n      jump\t// in\n    tag_147:\n        /* \"#utility.yul\":917:1036   */\n    tag_146:\n        /* \"#utility.yul\":1075:1076   */\n      0x00\n        /* \"#utility.yul\":1100:1153   */\n      tag_148\n        /* \"#utility.yul\":1145:1152   */\n      dup5\n        /* \"#utility.yul\":1136:1142   */\n      dup3\n        /* \"#utility.yul\":1125:1134   */\n      dup6\n        /* \"#utility.yul\":1121:1143   */\n      add\n        /* \"#utility.yul\":1100:1153   */\n      tag_109\n      jump\t// in\n    tag_148:\n        /* \"#utility.yul\":1090:1153   */\n      swap2\n      pop\n        /* \"#utility.yul\":1046:1163   */\n      pop\n        /* \"#utility.yul\":841:1170   */\n      swap3\n      swap2\n      pop\n      pop\n      jump\t// out\n        /* \"#utility.yul\":1176:1253   */\n    tag_110:\n        /* \"#utility.yul\":1213:1220   */\n      0x00\n        /* \"#utility.yul\":1242:1247   */\n      dup2\n        /* \"#utility.yul\":1231:1247   */\n      swap1\n      pop\n        /* \"#utility.yul\":1176:1253   */\n      swap2\n      swap1\n      pop\n      jump\t// out\n        /* \"#utility.yul\":1259:1377   */\n    tag_111:\n        /* \"#utility.yul\":1346:1370   */\n      tag_151\n        /* \"#utility.yul\":1364:1369   */\n      dup2\n        /* \"#utility.yul\":1346:1370   */\n      tag_110\n      jump\t// in\n    tag_151:\n        /* \"#utility.yul\":1341:1344   */\n      dup3\n        /* \"#utility.yul\":1334:1371   */\n      mstore\n        /* \"#utility.yul\":1259:1377   */\n      pop\n      pop\n      jump\t// out\n        /* \"#utility.yul\":1383:1605   */\n    tag_14:\n        /* \"#utility.yul\":1476:1480   */\n      0x00\n        /* \"#utility.yul\":1514:1516   */\n      0x20\n        /* \"#utility.yul\":1503:1512   */\n      dup3\n        /* \"#utility.yul\":1499:1517   */\n      add\n        /* \"#utility.yul\":1491:1517   */\n      swap1\n      pop\n        /* \"#utility.yul\":1527:1598   */\n      tag_153\n        /* \"#utility.yul\":1595:1596   */\n      0x00\n        /* \"#utility.yul\":1584:1593   */\n      dup4\n        /* \"#utility.yul\":1580:1597   */\n      add\n        /* \"#utility.yul\":1571:1577   */\n      dup5\n        /* \"#utility.yul\":1527:1598   */\n      tag_111\n      jump\t// in\n    tag_153:\n        /* \"#utility.yul\":1383:1605   */\n      swap3\n      swap2\n      pop\n      pop\n      jump\t// out\n        /* \"#utility.yul\":1611:1729   */\n    tag_112:\n        /* \"#utility.yul\":1698:1722   */\n      tag_155\n        /* \"#utility.yul\":1716:1721   */\n      dup2\n        /* \"#utility.yul\":1698:1722   */\n      tag_107\n      jump\t// in\n    tag_155:\n        /* \"#utility.yul\":1693:1696   */\n      dup3\n        /* \"#utility.yul\":1686:1723   */\n      mstore\n        /* \"#utility.yul\":1611:1729   */\n      pop\n      pop\n      jump\t// out\n        /* \"#utility.yul\":1735:1957   */\n    tag_18:\n        /* \"#utility.yul\":1828:1832   */\n      0x00\n        /* \"#utility.yul\":1866:1868   */\n      0x20\n        /* \"#utility.yul\":1855:1864   */\n      dup3\n        /* \"#utility.yul\":1851:1869   */\n      add\n        /* \"#utility.yul\":1843:1869   */\n      swap1\n      pop\n        /* \"#utility.yul\":1879:1950   */\n      tag_157\n        /* \"#utility.yul\":1947:1948   */\n      0x00\n        /* \"#utility.yul\":1936:1945   */\n      dup4\n        /* \"#utility.yul\":1932:1949   */\n      add\n        /* \"#utility.yul\":1923:1929   */\n      dup5\n        /* \"#utility.yul\":1879:1950   */\n      tag_112\n      jump\t// in\n    tag_157:\n        /* \"#utility.yul\":1735:1957   */\n      swap3\n      swap2\n      pop\n      pop\n      jump\t// out\n        /* \"#utility.yul\":1963:2143   */\n    tag_113:\n        /* \"#utility.yul\":2011:2088   */\n      0x4e487b7100000000000000000000000000000000000000000000000000000000\n        /* \"#utility.yul\":2008:2009   */\n      0x00\n        /* \"#utility.yul\":2001:2089   */\n      mstore\n        /* \"#utility.yul\":2108:2112   */\n      0x11\n        /* \"#utility.yul\":2105:2106   */\n      0x04\n        /* \"#utility.yul\":2098:2113   */\n      mstore\n        /* \"#utility.yul\":2132:2136   */\n      0x24\n        /* \"#utility.yul\":2129:2130   */\n      0x00\n        /* \"#utility.yul\":2122:2137   */\n      revert\n        /* \"#utility.yul\":2149:2559   */\n    tag_36:\n        /* \"#utility.yul\":2189:2196   */\n      0x00\n        /* \"#utility.yul\":2212:2232   */\n      tag_160\n        /* \"#utility.yul\":2230:2231   */\n      dup3\n        /* \"#utility.yul\":2212:2232   */\n      tag_110\n      jump\t// in\n    tag_160:\n        /* \"#utility.yul\":2207:2232   */\n      swap2\n      pop\n        /* \"#utility.yul\":2246:2266   */\n      tag_161\n        /* \"#utility.yul\":2264:2265   */\n      dup4\n        /* \"#utility.yul\":2246:2266   */\n      tag_110\n      jump\t// in\n    tag_161:\n        /* \"#utility.yul\":2241:2266   */\n      swap3\n      pop\n        /* \"#utility.yul\":2301:2302   */\n      dup3\n        /* \"#utility.yul\":2298:2299   */\n      dup3\n        /* \"#utility.yul\":2294:2303   */\n      mul\n        /* \"#utility.yul\":2323:2353   */\n      tag_162\n        /* \"#utility.yul\":2341:2352   */\n      dup2\n        /* \"#utility.yul\":2323:2353   */\n      tag_110\n      jump\t// in\n    tag_162:\n        /* \"#utility.yul\":2312:2353   */\n      swap2\n      pop\n        /* \"#utility.yul\":2502:2503   */\n      dup3\n        /* \"#utility.yul\":2493:2500   */\n      dup3\n        /* \"#utility.yul\":2489:2504   */\n      div\n        /* \"#utility.yul\":2486:2487   */\n      dup5\n        /* \"#utility.yul\":2483:2505   */\n      eq\n        /* \"#utility.yul\":2463:2464   */\n      dup4\n        /* \"#utility.yul\":2456:2465   */\n      iszero\n        /* \"#utility.yul\":2436:2519   */\n      or\n        /* \"#utility.yul\":2413:2552   */\n      tag_163\n      jumpi\n        /* \"#utility.yul\":2532:2550   */\n      tag_164\n      tag_113\n      jump\t// in\n    tag_164:\n        /* \"#utility.yul\":2413:2552   */\n    tag_163:\n        /* \"#utility.yul\":2197:2559   */\n      pop\n        /* \"#utility.yul\":2149:2559   */\n      swap3\n      swap2\n      pop\n      pop\n      jump\t// out\n        /* \"#utility.yul\":2565:2745   */\n    tag_114:\n        /* \"#utility.yul\":2613:2690   */\n      0x4e487b7100000000000000000000000000000000000000000000000000000000\n        /* \"#utility.yul\":2610:2611   */\n      0x00\n        /* \"#utility.yul\":2603:2691   */\n      mstore\n        /* \"#utility.yul\":2710:2714   */\n      0x12\n        /* \"#utility.yul\":2707:2708   */\n      0x04\n        /* \"#utility.yul\":2700:2715   */\n      mstore\n        /* \"#utility.yul\":2734:2738   */\n      0x24\n        /* \"#utility.yul\":2731:2732   */\n      0x00\n        /* \"#utility.yul\":2724:2739   */\n      revert\n        /* \"#utility.yul\":2751:2936   */\n    tag_38:\n        /* \"#utility.yul\":2791:2792   */\n      0x00\n        /* \"#utility.yul\":2808:2828   */\n      tag_167\n        /* \"#utility.yul\":2826:2827   */\n      dup3\n        /* \"#utility.yul\":2808:2828   */\n      tag_110\n      jump\t// in\n    tag_167:\n        /* \"#utility.yul\":2803:2828   */\n      swap2\n      pop\n        /* \"#utility.yul\":2842:2862   */\n      tag_168\n        /* \"#utility.yul\":2860:2861   */\n      dup4\n        /* \"#utility.yul\":2842:2862   */\n      tag_110\n      jump\t// in\n    tag_168:\n        /* \"#utility.yul\":2837:2862   */\n      swap3\n      pop\n        /* \"#utility.yul\":2881:2882   */\n      dup3\n        /* \"#utility.yul\":2871:2906   */\n      tag_169\n      jumpi\n        /* \"#utility.yul\":2886:2904   */\n      tag_170\n      tag_114\n      jump\t// in\n    tag_170:\n        /* \"#utility.yul\":2871:2906   */\n    tag_169:\n        /* \"#utility.yul\":2928:2929   */\n      dup3\n        /* \"#utility.yul\":2925:2926   */\n      dup3\n        /* \"#utility.yul\":2921:2930   */\n      div\n        /* \"#utility.yul\":2916:2930   */\n      swap1\n      pop\n        /* \"#utility.yul\":2751:2936   */\n      swap3\n      swap2\n      pop\n      pop\n      jump\t// out\n        /* \"#utility.yul\":2942:3056   */\n    tag_115:\n        /* \"#utility.yul\":2979:2986   */\n      0x00\n        /* \"#utility.yul\":3019:3049   */\n      0xffffffffffffffffffffffffffff\n        /* \"#utility.yul\":3012:3017   */\n      dup3\n        /* \"#utility.yul\":3008:3050   */\n      and\n        /* \"#utility.yul\":2997:3050   */\n      swap1\n      pop\n        /* \"#utility.yul\":2942:3056   */\n      swap2\n      swap1\n      pop\n      jump\t// out\n        /* \"#utility.yul\":3062:3184   */\n    tag_116:\n        /* \"#utility.yul\":3135:3159   */\n      tag_173\n        /* \"#utility.yul\":3153:3158   */\n      dup2\n        /* \"#utility.yul\":3135:3159   */\n      tag_115\n      jump\t// in\n    tag_173:\n        /* \"#utility.yul\":3128:3133   */\n      dup2\n        /* \"#utility.yul\":3125:3160   */\n      eq\n        /* \"#utility.yul\":3115:3178   */\n      tag_174\n      jumpi\n        /* \"#utility.yul\":3174:3175   */\n      0x00\n        /* \"#utility.yul\":3171:3172   */\n      0x00\n        /* \"#utility.yul\":3164:3176   */\n      revert\n        /* \"#utility.yul\":3115:3178   */\n    tag_174:\n        /* \"#utility.yul\":3062:3184   */\n      pop\n      jump\t// out\n        /* \"#utility.yul\":3190:3333   */\n    tag_117:\n        /* \"#utility.yul\":3247:3252   */\n      0x00\n        /* \"#utility.yul\":3278:3284   */\n      dup2\n        /* \"#utility.yul\":3272:3285   */\n      mload\n        /* \"#utility.yul\":3263:3285   */\n      swap1\n      pop\n        /* \"#utility.yul\":3294:3327   */\n      tag_176\n        /* \"#utility.yul\":3321:3326   */\n      dup2\n        /* \"#utility.yul\":3294:3327   */\n      tag_116\n      jump\t// in\n    tag_176:\n        /* \"#utility.yul\":3190:3333   */\n      swap3\n      swap2\n      pop\n      pop\n      jump\t// out\n        /* \"#utility.yul\":3339:3432   */\n    tag_118:\n        /* \"#utility.yul\":3375:3382   */\n      0x00\n        /* \"#utility.yul\":3415:3425   */\n      0xffffffff\n        /* \"#utility.yul\":3408:3413   */\n      dup3\n        /* \"#utility.yul\":3404:3426   */\n      and\n        /* \"#utility.yul\":3393:3426   */\n      swap1\n      pop\n        /* \"#utility.yul\":3339:3432   */\n      swap2\n      swap1\n      pop\n      jump\t// out\n        /* \"#utility.yul\":3438:3558   */\n    tag_119:\n        /* \"#utility.yul\":3510:3533   */\n      tag_179\n        /* \"#utility.yul\":3527:3532   */\n      dup2\n        /* \"#utility.yul\":3510:3533   */\n      tag_118\n      jump\t// in\n    tag_179:\n        /* \"#utility.yul\":3503:3508   */\n      dup2\n        /* \"#utility.yul\":3500:3534   */\n      eq\n        /* \"#utility.yul\":3490:3552   */\n      tag_180\n      jumpi\n        /* \"#utility.yul\":3548:3549   */\n      0x00\n        /* \"#utility.yul\":3545:3546   */\n      0x00\n        /* \"#utility.yul\":3538:3550   */\n      revert\n        /* \"#utility.yul\":3490:3552   */\n    tag_180:\n        /* \"#utility.yul\":3438:3558   */\n      pop\n      jump\t// out\n        /* \"#utility.yul\":3564:3705   */\n    tag_120:\n        /* \"#utility.yul\":3620:3625   */\n      0x00\n        /* \"#utility.yul\":3651:3657   */\n      dup2\n        /* \"#utility.yul\":3645:3658   */\n      mload\n        /* \"#utility.yul\":3636:3658   */\n      swap1\n      pop\n        /* \"#utility.yul\":3667:3699   */\n      tag_182\n        /* \"#utility.yul\":3693:3698   */\n      dup2\n        /* \"#utility.yul\":3667:3699   */\n      tag_119\n      jump\t// in\n    tag_182:\n        /* \"#utility.yul\":3564:3705   */\n      swap3\n      swap2\n      pop\n      pop\n      jump\t// out\n        /* \"#utility.yul\":3711:4372   */\n    tag_53:\n        /* \"#utility.yul\":3798:3804   */\n      0x00\n        /* \"#utility.yul\":3806:3812   */\n      0x00\n        /* \"#utility.yul\":3814:3820   */\n      0x00\n        /* \"#utility.yul\":3863:3865   */\n      0x60\n        /* \"#utility.yul\":3851:3860   */\n      dup5\n        /* \"#utility.yul\":3842:3849   */\n      dup7\n        /* \"#utility.yul\":3838:3861   */\n      sub\n        /* \"#utility.yul\":3834:3866   */\n      slt\n        /* \"#utility.yul\":3831:3950   */\n      iszero\n      tag_184\n      jumpi\n        /* \"#utility.yul\":3869:3948   */\n      tag_185\n      tag_104\n      jump\t// in\n    tag_185:\n        /* \"#utility.yul\":3831:3950   */\n    tag_184:\n        /* \"#utility.yul\":3989:3990   */\n      0x00\n        /* \"#utility.yul\":4014:4078   */\n      tag_186\n        /* \"#utility.yul\":4070:4077   */\n      dup7\n        /* \"#utility.yul\":4061:4067   */\n      dup3\n        /* \"#utility.yul\":4050:4059   */\n      dup8\n        /* \"#utility.yul\":4046:4068   */\n      add\n        /* \"#utility.yul\":4014:4078   */\n      tag_117\n      jump\t// in\n    tag_186:\n        /* \"#utility.yul\":4004:4078   */\n      swap4\n      pop\n        /* \"#utility.yul\":3960:4088   */\n      pop\n        /* \"#utility.yul\":4127:4129   */\n      0x20\n        /* \"#utility.yul\":4153:4217   */\n      tag_187\n        /* \"#utility.yul\":4209:4216   */\n      dup7\n        /* \"#utility.yul\":4200:4206   */\n      dup3\n        /* \"#utility.yul\":4189:4198   */\n      dup8\n        /* \"#utility.yul\":4185:4207   */\n      add\n        /* \"#utility.yul\":4153:4217   */\n      tag_117\n      jump\t// in\n    tag_187:\n        /* \"#utility.yul\":4143:4217   */\n      swap3\n      pop\n        /* \"#utility.yul\":4098:4227   */\n      pop\n        /* \"#utility.yul\":4266:4268   */\n      0x40\n        /* \"#utility.yul\":4292:4355   */\n      tag_188\n        /* \"#utility.yul\":4347:4354   */\n      dup7\n        /* \"#utility.yul\":4338:4344   */\n      dup3\n        /* \"#utility.yul\":4327:4336   */\n      dup8\n        /* \"#utility.yul\":4323:4345   */\n      add\n        /* \"#utility.yul\":4292:4355   */\n      tag_120\n      jump\t// in\n    tag_188:\n        /* \"#utility.yul\":4282:4355   */\n      swap2\n      pop\n        /* \"#utility.yul\":4237:4365   */\n      pop\n        /* \"#utility.yul\":3711:4372   */\n      swap3\n      pop\n      swap3\n      pop\n      swap3\n      jump\t// out\n        /* \"#utility.yul\":4378:4521   */\n    tag_121:\n        /* \"#utility.yul\":4435:4440   */\n      0x00\n        /* \"#utility.yul\":4466:4472   */\n      dup2\n        /* \"#utility.yul\":4460:4473   */\n      mload\n        /* \"#utility.yul\":4451:4473   */\n      swap1\n      pop\n        /* \"#utility.yul\":4482:4515   */\n      tag_190\n        /* \"#utility.yul\":4509:4514   */\n      dup2\n        /* \"#utility.yul\":4482:4515   */\n      tag_108\n      jump\t// in\n    tag_190:\n        /* \"#utility.yul\":4378:4521   */\n      swap3\n      swap2\n      pop\n      pop\n      jump\t// out\n        /* \"#utility.yul\":4527:4878   */\n    tag_57:\n        /* \"#utility.yul\":4597:4603   */\n      0x00\n        /* \"#utility.yul\":4646:4648   */\n      0x20\n        /* \"#utility.yul\":4634:4643   */\n      dup3\n        /* \"#utility.yul\":4625:4632   */\n      dup5\n        /* \"#utility.yul\":4621:4644   */\n      sub\n        /* \"#utility.yul\":4617:4649   */\n      slt\n        /* \"#utility.yul\":4614:4733   */\n      iszero\n      tag_192\n      jumpi\n        /* \"#utility.yul\":4652:4731   */\n      tag_193\n      tag_104\n      jump\t// in\n    tag_193:\n        /* \"#utility.yul\":4614:4733   */\n    tag_192:\n        /* \"#utility.yul\":4772:4773   */\n      0x00\n        /* \"#utility.yul\":4797:4861   */\n      tag_194\n        /* \"#utility.yul\":4853:4860   */\n      dup5\n        /* \"#utility.yul\":4844:4850   */\n      dup3\n        /* \"#utility.yul\":4833:4842   */\n      dup6\n        /* \"#utility.yul\":4829:4851   */\n      add\n        /* \"#utility.yul\":4797:4861   */\n      tag_121\n      jump\t// in\n    tag_194:\n        /* \"#utility.yul\":4787:4861   */\n      swap2\n      pop\n        /* \"#utility.yul\":4743:4871   */\n      pop\n        /* \"#utility.yul\":4527:4878   */\n      swap3\n      swap2\n      pop\n      pop\n      jump\t// out\n        /* \"#utility.yul\":4884:5053   */\n    tag_122:\n        /* \"#utility.yul\":4968:4979   */\n      0x00\n        /* \"#utility.yul\":5002:5008   */\n      dup3\n        /* \"#utility.yul\":4997:5000   */\n      dup3\n        /* \"#utility.yul\":4990:5009   */\n      mstore\n        /* \"#utility.yul\":5042:5046   */\n      0x20\n        /* \"#utility.yul\":5037:5040   */\n      dup3\n        /* \"#utility.yul\":5033:5047   */\n      add\n        /* \"#utility.yul\":5018:5047   */\n      swap1\n      pop\n        /* \"#utility.yul\":4884:5053   */\n      swap3\n      swap2\n      pop\n      pop\n      jump\t// out\n        /* \"#utility.yul\":5059:5241   */\n    tag_123:\n        /* \"#utility.yul\":5199:5233   */\n      0x5061697220646f6573206e6f7420636f6e7461696e206261736520746f6b656e\n        /* \"#utility.yul\":5195:5196   */\n      0x00\n        /* \"#utility.yul\":5187:5193   */\n      dup3\n        /* \"#utility.yul\":5183:5197   */\n      add\n        /* \"#utility.yul\":5176:5234   */\n      mstore\n        /* \"#utility.yul\":5059:5241   */\n      pop\n      jump\t// out\n        /* \"#utility.yul\":5247:5613   */\n    tag_124:\n        /* \"#utility.yul\":5389:5392   */\n      0x00\n        /* \"#utility.yul\":5410:5477   */\n      tag_198\n        /* \"#utility.yul\":5474:5476   */\n      0x20\n        /* \"#utility.yul\":5469:5472   */\n      dup4\n        /* \"#utility.yul\":5410:5477   */\n      tag_122\n      jump\t// in\n    tag_198:\n        /* \"#utility.yul\":5403:5477   */\n      swap2\n      pop\n        /* \"#utility.yul\":5486:5579   */\n      tag_199\n        /* \"#utility.yul\":5575:5578   */\n      dup3\n        /* \"#utility.yul\":5486:5579   */\n      tag_123\n      jump\t// in\n    tag_199:\n        /* \"#utility.yul\":5604:5606   */\n      0x20\n        /* \"#utility.yul\":5599:5602   */\n      dup3\n        /* \"#utility.yul\":5595:5607   */\n      add\n        /* \"#utility.yul\":5588:5607   */\n      swap1\n      pop\n        /* \"#utility.yul\":5247:5613   */\n      swap2\n      swap1\n      pop\n      jump\t// out\n        /* \"#utility.yul\":5619:6038   */\n    tag_66:\n        /* \"#utility.yul\":5785:5789   */\n      0x00\n        /* \"#utility.yul\":5823:5825   */\n      0x20\n        /* \"#utility.yul\":5812:5821   */\n      dup3\n        /* \"#utility.yul\":5808:5826   */\n      add\n        /* \"#utility.yul\":5800:5826   */\n      swap1\n      pop\n        /* \"#utility.yul\":5872:5881   */\n      dup2\n        /* \"#utility.yul\":5866:5870   */\n      dup2\n        /* \"#utility.yul\":5862:5882   */\n      sub\n        /* \"#utility.yul\":5858:5859   */\n      0x00\n        /* \"#utility.yul\":5847:5856   */\n      dup4\n        /* \"#utility.yul\":5843:5860   */\n      add\n        /* \"#utility.yul\":5836:5883   */\n      mstore\n        /* \"#utility.yul\":5900:6031   */\n      tag_201\n        /* \"#utility.yul\":6026:6030   */\n      dup2\n        /* \"#utility.yul\":5900:6031   */\n      tag_124\n      jump\t// in\n    tag_201:\n        /* \"#utility.yul\":5892:6031   */\n      swap1\n      pop\n        /* \"#utility.yul\":5619:6038   */\n      swap2\n      swap1\n      pop\n      jump\t// out\n        /* \"#utility.yul\":6044:6130   */\n    tag_125:\n        /* \"#utility.yul\":6079:6086   */\n      0x00\n        /* \"#utility.yul\":6119:6123   */\n      0xff\n        /* \"#utility.yul\":6112:6117   */\n      dup3\n        /* \"#utility.yul\":6108:6124   */\n      and\n        /* \"#utility.yul\":6097:6124   */\n      swap1\n      pop\n        /* \"#utility.yul\":6044:6130   */\n      swap2\n      swap1\n      pop\n      jump\t// out\n        /* \"#utility.yul\":6136:6254   */\n    tag_126:\n        /* \"#utility.yul\":6207:6229   */\n      tag_204\n        /* \"#utility.yul\":6223:6228   */\n      dup2\n        /* \"#utility.yul\":6207:6229   */\n      tag_125\n      jump\t// in\n    tag_204:\n        /* \"#utility.yul\":6200:6205   */\n      dup2\n        /* \"#utility.yul\":6197:6230   */\n      eq\n        /* \"#utility.yul\":6187:6248   */\n      tag_205\n      jumpi\n        /* \"#utility.yul\":6244:6245   */\n      0x00\n        /* \"#utility.yul\":6241:6242   */\n      0x00\n        /* \"#utility.yul\":6234:6246   */\n      revert\n        /* \"#utility.yul\":6187:6248   */\n    tag_205:\n        /* \"#utility.yul\":6136:6254   */\n      pop\n      jump\t// out\n        /* \"#utility.yul\":6260:6399   */\n    tag_127:\n        /* \"#utility.yul\":6315:6320   */\n      0x00\n        /* \"#utility.yul\":6346:6352   */\n      dup2\n        /* \"#utility.yul\":6340:6353   */\n      mload\n        /* \"#utility.yul\":6331:6353   */\n      swap1\n      pop\n        /* \"#utility.yul\":6362:6393   */\n      tag_207\n        /* \"#utility.yul\":6387:6392   */\n      dup2\n        /* \"#utility.yul\":6362:6393   */\n      tag_126\n      jump\t// in\n    tag_207:\n        /* \"#utility.yul\":6260:6399   */\n      swap3\n      swap2\n      pop\n      pop\n      jump\t// out\n        /* \"#utility.yul\":6405:6752   */\n    tag_76:\n        /* \"#utility.yul\":6473:6479   */\n      0x00\n        /* \"#utility.yul\":6522:6524   */\n      0x20\n        /* \"#utility.yul\":6510:6519   */\n      dup3\n        /* \"#utility.yul\":6501:6508   */\n      dup5\n        /* \"#utility.yul\":6497:6520   */\n      sub\n        /* \"#utility.yul\":6493:6525   */\n      slt\n        /* \"#utility.yul\":6490:6609   */\n      iszero\n      tag_209\n      jumpi\n        /* \"#utility.yul\":6528:6607   */\n      tag_210\n      tag_104\n      jump\t// in\n    tag_210:\n        /* \"#utility.yul\":6490:6609   */\n    tag_209:\n        /* \"#utility.yul\":6648:6649   */\n      0x00\n        /* \"#utility.yul\":6673:6735   */\n      tag_211\n        /* \"#utility.yul\":6727:6734   */\n      dup5\n        /* \"#utility.yul\":6718:6724   */\n      dup3\n        /* \"#utility.yul\":6707:6716   */\n      dup6\n        /* \"#utility.yul\":6703:6725   */\n      add\n        /* \"#utility.yul\":6673:6735   */\n      tag_127\n      jump\t// in\n    tag_211:\n        /* \"#utility.yul\":6663:6735   */\n      swap2\n      pop\n        /* \"#utility.yul\":6619:6745   */\n      pop\n        /* \"#utility.yul\":6405:6752   */\n      swap3\n      swap2\n      pop\n      pop\n      jump\t// out\n        /* \"#utility.yul\":6758:6949   */\n    tag_84:\n        /* \"#utility.yul\":6796:6800   */\n      0x00\n        /* \"#utility.yul\":6816:6834   */\n      tag_213\n        /* \"#utility.yul\":6832:6833   */\n      dup3\n        /* \"#utility.yul\":6816:6834   */\n      tag_125\n      jump\t// in\n    tag_213:\n        /* \"#utility.yul\":6811:6834   */\n      swap2\n      pop\n        /* \"#utility.yul\":6848:6866   */\n      tag_214\n        /* \"#utility.yul\":6864:6865   */\n      dup4\n        /* \"#utility.yul\":6848:6866   */\n      tag_125\n      jump\t// in\n    tag_214:\n        /* \"#utility.yul\":6843:6866   */\n      swap3\n      pop\n        /* \"#utility.yul\":6890:6891   */\n      dup3\n        /* \"#utility.yul\":6887:6888   */\n      dup3\n        /* \"#utility.yul\":6883:6892   */\n      sub\n        /* \"#utility.yul\":6875:6892   */\n      swap1\n      pop\n        /* \"#utility.yul\":6914:6918   */\n      0xff\n        /* \"#utility.yul\":6908:6912   */\n      dup2\n        /* \"#utility.yul\":6905:6919   */\n      gt\n        /* \"#utility.yul\":6902:6942   */\n      iszero\n      tag_215\n      jumpi\n        /* \"#utility.yul\":6922:6940   */\n      tag_216\n      tag_113\n      jump\t// in\n    tag_216:\n        /* \"#utility.yul\":6902:6942   */\n    tag_215:\n        /* \"#utility.yul\":6758:6949   */\n      swap3\n      swap2\n      pop\n      pop\n      jump\t// out\n        /* \"#utility.yul\":6955:7057   */\n    tag_128:\n        /* \"#utility.yul\":6997:7005   */\n      0x00\n        /* \"#utility.yul\":7044:7049   */\n      dup2\n        /* \"#utility.yul\":7041:7042   */\n      0x01\n        /* \"#utility.yul\":7037:7050   */\n      shr\n        /* \"#utility.yul\":7016:7050   */\n      swap1\n      pop\n        /* \"#utility.yul\":6955:7057   */\n      swap2\n      swap1\n      pop\n      jump\t// out\n        /* \"#utility.yul\":7063:7911   */\n    tag_129:\n        /* \"#utility.yul\":7124:7129   */\n      0x00\n        /* \"#utility.yul\":7131:7135   */\n      0x00\n        /* \"#utility.yul\":7155:7161   */\n      dup3\n        /* \"#utility.yul\":7146:7161   */\n      swap2\n      pop\n        /* \"#utility.yul\":7179:7184   */\n      dup4\n        /* \"#utility.yul\":7170:7184   */\n      swap1\n      pop\n        /* \"#utility.yul\":7193:7905   */\n    tag_219:\n        /* \"#utility.yul\":7214:7215   */\n      0x01\n        /* \"#utility.yul\":7204:7212   */\n      dup6\n        /* \"#utility.yul\":7201:7216   */\n      gt\n        /* \"#utility.yul\":7193:7905   */\n      iszero\n      tag_221\n      jumpi\n        /* \"#utility.yul\":7309:7313   */\n      dup1\n        /* \"#utility.yul\":7304:7307   */\n      dup7\n        /* \"#utility.yul\":7300:7314   */\n      div\n        /* \"#utility.yul\":7294:7298   */\n      dup2\n        /* \"#utility.yul\":7291:7315   */\n      gt\n        /* \"#utility.yul\":7288:7338   */\n      iszero\n      tag_222\n      jumpi\n        /* \"#utility.yul\":7318:7336   */\n      tag_223\n      tag_113\n      jump\t// in\n    tag_223:\n        /* \"#utility.yul\":7288:7338   */\n    tag_222:\n        /* \"#utility.yul\":7368:7369   */\n      0x01\n        /* \"#utility.yul\":7358:7366   */\n      dup6\n        /* \"#utility.yul\":7354:7370   */\n      and\n        /* \"#utility.yul\":7351:7802   */\n      iszero\n      tag_224\n      jumpi\n        /* \"#utility.yul\":7783:7787   */\n      dup1\n        /* \"#utility.yul\":7776:7781   */\n      dup3\n        /* \"#utility.yul\":7772:7788   */\n      mul\n        /* \"#utility.yul\":7763:7788   */\n      swap2\n      pop\n        /* \"#utility.yul\":7351:7802   */\n    tag_224:\n        /* \"#utility.yul\":7833:7837   */\n      dup1\n        /* \"#utility.yul\":7827:7831   */\n      dup2\n        /* \"#utility.yul\":7823:7838   */\n      mul\n        /* \"#utility.yul\":7815:7838   */\n      swap1\n      pop\n        /* \"#utility.yul\":7863:7895   */\n      tag_225\n        /* \"#utility.yul\":7886:7894   */\n      dup6\n        /* \"#utility.yul\":7863:7895   */\n      tag_128\n      jump\t// in\n    tag_225:\n        /* \"#utility.yul\":7851:7895   */\n      swap5\n      pop\n        /* \"#utility.yul\":7193:7905   */\n      jump(tag_219)\n    tag_221:\n        /* \"#utility.yul\":7063:7911   */\n      swap5\n      pop\n      swap5\n      swap3\n      pop\n      pop\n      pop\n      jump\t// out\n        /* \"#utility.yul\":7917:8990   */\n    tag_130:\n        /* \"#utility.yul\":7971:7976   */\n      0x00\n        /* \"#utility.yul\":8162:8170   */\n      dup3\n        /* \"#utility.yul\":8152:8192   */\n      tag_227\n      jumpi\n        /* \"#utility.yul\":8183:8184   */\n      0x01\n        /* \"#utility.yul\":8174:8184   */\n      swap1\n      pop\n        /* \"#utility.yul\":8185:8190   */\n      jump(tag_226)\n        /* \"#utility.yul\":8152:8192   */\n    tag_227:\n        /* \"#utility.yul\":8211:8215   */\n      dup2\n        /* \"#utility.yul\":8201:8237   */\n      tag_228\n      jumpi\n        /* \"#utility.yul\":8228:8229   */\n      0x00\n        /* \"#utility.yul\":8219:8229   */\n      swap1\n      pop\n        /* \"#utility.yul\":8230:8235   */\n      jump(tag_226)\n        /* \"#utility.yul\":8201:8237   */\n    tag_228:\n        /* \"#utility.yul\":8297:8301   */\n      dup2\n        /* \"#utility.yul\":8345:8346   */\n      0x01\n        /* \"#utility.yul\":8340:8367   */\n      dup2\n      eq\n      tag_230\n      jumpi\n        /* \"#utility.yul\":8381:8382   */\n      0x02\n        /* \"#utility.yul\":8376:8567   */\n      dup2\n      eq\n      tag_231\n      jumpi\n        /* \"#utility.yul\":8290:8567   */\n      jump(tag_229)\n        /* \"#utility.yul\":8340:8367   */\n    tag_230:\n        /* \"#utility.yul\":8358:8359   */\n      0x01\n        /* \"#utility.yul\":8349:8359   */\n      swap2\n      pop\n        /* \"#utility.yul\":8360:8365   */\n      pop\n      jump(tag_226)\n        /* \"#utility.yul\":8376:8567   */\n    tag_231:\n        /* \"#utility.yul\":8421:8424   */\n      0xff\n        /* \"#utility.yul\":8411:8419   */\n      dup5\n        /* \"#utility.yul\":8408:8425   */\n      gt\n        /* \"#utility.yul\":8405:8448   */\n      iszero\n      tag_232\n      jumpi\n        /* \"#utility.yul\":8428:8446   */\n      tag_233\n      tag_113\n      jump\t// in\n    tag_233:\n        /* \"#utility.yul\":8405:8448   */\n    tag_232:\n        /* \"#utility.yul\":8477:8485   */\n      dup4\n        /* \"#utility.yul\":8474:8475   */\n      0x02\n        /* \"#utility.yul\":8470:8486   */\n      exp\n        /* \"#utility.yul\":8461:8486   */\n      swap2\n      pop\n        /* \"#utility.yul\":8512:8515   */\n      dup5\n        /* \"#utility.yul\":8505:8510   */\n      dup3\n        /* \"#utility.yul\":8502:8516   */\n      gt\n        /* \"#utility.yul\":8499:8539   */\n      iszero\n      tag_234\n      jumpi\n        /* \"#utility.yul\":8519:8537   */\n      tag_235\n      tag_113\n      jump\t// in\n    tag_235:\n        /* \"#utility.yul\":8499:8539   */\n    tag_234:\n        /* \"#utility.yul\":8552:8557   */\n      pop\n      jump(tag_226)\n        /* \"#utility.yul\":8290:8567   */\n    tag_229:\n      pop\n        /* \"#utility.yul\":8676:8678   */\n      0x20\n        /* \"#utility.yul\":8666:8674   */\n      dup4\n        /* \"#utility.yul\":8663:8679   */\n      lt\n        /* \"#utility.yul\":8657:8660   */\n      0x0133\n        /* \"#utility.yul\":8651:8655   */\n      dup4\n        /* \"#utility.yul\":8648:8661   */\n      lt\n        /* \"#utility.yul\":8644:8680   */\n      and\n        /* \"#utility.yul\":8626:8628   */\n      0x4e\n        /* \"#utility.yul\":8616:8624   */\n      dup5\n        /* \"#utility.yul\":8613:8629   */\n      lt\n        /* \"#utility.yul\":8608:8610   */\n      0x0b\n        /* \"#utility.yul\":8602:8606   */\n      dup5\n        /* \"#utility.yul\":8599:8611   */\n      lt\n        /* \"#utility.yul\":8595:8630   */\n      and\n        /* \"#utility.yul\":8579:8690   */\n      or\n        /* \"#utility.yul\":8576:8822   */\n      iszero\n      tag_236\n      jumpi\n        /* \"#utility.yul\":8732:8740   */\n      dup3\n        /* \"#utility.yul\":8726:8730   */\n      dup3\n        /* \"#utility.yul\":8722:8741   */\n      exp\n        /* \"#utility.yul\":8713:8741   */\n      swap1\n      pop\n        /* \"#utility.yul\":8767:8770   */\n      dup4\n        /* \"#utility.yul\":8760:8765   */\n      dup2\n        /* \"#utility.yul\":8757:8771   */\n      gt\n        /* \"#utility.yul\":8754:8794   */\n      iszero\n      tag_237\n      jumpi\n        /* \"#utility.yul\":8774:8792   */\n      tag_238\n      tag_113\n      jump\t// in\n    tag_238:\n        /* \"#utility.yul\":8754:8794   */\n    tag_237:\n        /* \"#utility.yul\":8807:8812   */\n      jump(tag_226)\n        /* \"#utility.yul\":8576:8822   */\n    tag_236:\n        /* \"#utility.yul\":8847:8889   */\n      tag_239\n        /* \"#utility.yul\":8885:8888   */\n      dup5\n        /* \"#utility.yul\":8875:8883   */\n      dup5\n        /* \"#utility.yul\":8869:8873   */\n      dup5\n        /* \"#utility.yul\":8866:8867   */\n      0x01\n        /* \"#utility.yul\":8847:8889   */\n      tag_129\n      jump\t// in\n    tag_239:\n        /* \"#utility.yul\":8832:8889   */\n      swap3\n      pop\n      swap1\n      pop\n        /* \"#utility.yul\":8921:8925   */\n      dup2\n        /* \"#utility.yul\":8916:8919   */\n      dup5\n        /* \"#utility.yul\":8912:8926   */\n      div\n        /* \"#utility.yul\":8905:8910   */\n      dup2\n        /* \"#utility.yul\":8902:8927   */\n      gt\n        /* \"#utility.yul\":8899:8950   */\n      iszero\n      tag_240\n      jumpi\n        /* \"#utility.yul\":8930:8948   */\n      tag_241\n      tag_113\n      jump\t// in\n    tag_241:\n        /* \"#utility.yul\":8899:8950   */\n    tag_240:\n        /* \"#utility.yul\":8979:8983   */\n      dup2\n        /* \"#utility.yul\":8972:8977   */\n      dup2\n        /* \"#utility.yul\":8968:8984   */\n      mul\n        /* \"#utility.yul\":8959:8984   */\n      swap1\n      pop\n        /* \"#utility.yul\":7917:8990   */\n    tag_226:\n      swap4\n      swap3\n      pop\n      pop\n      pop\n      jump\t// out\n        /* \"#utility.yul\":8996:9281   */\n    tag_86:\n        /* \"#utility.yul\":9056:9061   */\n      0x00\n        /* \"#utility.yul\":9080:9103   */\n      tag_243\n        /* \"#utility.yul\":9098:9102   */\n      dup3\n        /* \"#utility.yul\":9080:9103   */\n      tag_110\n      jump\t// in\n    tag_243:\n        /* \"#utility.yul\":9072:9103   */\n      swap2\n      pop\n        /* \"#utility.yul\":9124:9151   */\n      tag_244\n        /* \"#utility.yul\":9142:9150   */\n      dup4\n        /* \"#utility.yul\":9124:9151   */\n      tag_110\n      jump\t// in\n    tag_244:\n        /* \"#utility.yul\":9112:9151   */\n      swap3\n      pop\n        /* \"#utility.yul\":9170:9274   */\n      tag_245\n        /* \"#utility.yul\":9207:9273   */\n      0xffffffffffffffffffffffffffffffffffffffffffffffffffffffffffffffff\n        /* \"#utility.yul\":9197:9205   */\n      dup5\n        /* \"#utility.yul\":9191:9195   */\n      dup5\n        /* \"#utility.yul\":9170:9274   */\n      tag_130\n      jump\t// in\n    tag_245:\n        /* \"#utility.yul\":9161:9274   */\n      swap1\n      pop\n        /* \"#utility.yul\":8996:9281   */\n      swap3\n      swap2\n      pop\n      pop\n      jump\t// out\n        /* \"#utility.yul\":9287:9619   */\n    tag_96:\n        /* \"#utility.yul\":9408:9412   */\n      0x00\n        /* \"#utility.yul\":9446:9448   */\n      0x40\n        /* \"#utility.yul\":9435:9444   */\n      dup3\n        /* \"#utility.yul\":9431:9449   */\n      add\n        /* \"#utility.yul\":9423:9449   */\n      swap1\n      pop\n        /* \"#utility.yul\":9459:9530   */\n      tag_247\n        /* \"#utility.yul\":9527:9528   */\n      0x00\n        /* \"#utility.yul\":9516:9525   */\n      dup4\n        /* \"#utility.yul\":9512:9529   */\n      add\n        /* \"#utility.yul\":9503:9509   */\n      dup6\n        /* \"#utility.yul\":9459:9530   */\n      tag_112\n      jump\t// in\n    tag_247:\n        /* \"#utility.yul\":9540:9612   */\n      tag_248\n        /* \"#utility.yul\":9608:9610   */\n      0x20\n        /* \"#utility.yul\":9597:9606   */\n      dup4\n        /* \"#utility.yul\":9593:9611   */\n      add\n        /* \"#utility.yul\":9584:9590   */\n      dup5\n        /* \"#utility.yul\":9540:9612   */\n      tag_112\n      jump\t// in\n    tag_248:\n        /* \"#utility.yul\":9287:9619   */\n      swap4\n      swap3\n      pop\n      pop\n      pop\n      jump\t// out\n        /* \"#utility.yul\":9625:9846   */\n    tag_131:\n        /* \"#utility.yul\":9765:9799   */\n      0x556e69737761705632506169723a207061697220646f6573206e6f7420657869\n        /* \"#utility.yul\":9761:9762   */\n      0x00\n        /* \"#utility.yul\":9753:9759   */\n      dup3\n        /* \"#utility.yul\":9749:9763   */\n      add\n        /* \"#utility.yul\":9742:9800   */\n      mstore\n        /* \"#utility.yul\":9834:9838   */\n      0x7374000000000000000000000000000000000000000000000000000000000000\n        /* \"#utility.yul\":9829:9831   */\n      0x20\n        /* \"#utility.yul\":9821:9827   */\n      dup3\n        /* \"#utility.yul\":9817:9832   */\n      add\n        /* \"#utility.yul\":9810:9839   */\n      mstore\n        /* \"#utility.yul\":9625:9846   */\n      pop\n      jump\t// out\n        /* \"#utility.yul\":9852:10218   */\n    tag_132:\n        /* \"#utility.yul\":9994:9997   */\n      0x00\n        /* \"#utility.yul\":10015:10082   */\n      tag_251\n        /* \"#utility.yul\":10079:10081   */\n      0x22\n        /* \"#utility.yul\":10074:10077   */\n      dup4\n        /* \"#utility.yul\":10015:10082   */\n      tag_122\n      jump\t// in\n    tag_251:\n        /* \"#utility.yul\":10008:10082   */\n      swap2\n      pop\n        /* \"#utility.yul\":10091:10184   */\n      tag_252\n        /* \"#utility.yul\":10180:10183   */\n      dup3\n        /* \"#utility.yul\":10091:10184   */\n      tag_131\n      jump\t// in\n    tag_252:\n        /* \"#utility.yul\":10209:10211   */\n      0x40\n        /* \"#utility.yul\":10204:10207   */\n      dup3\n        /* \"#utility.yul\":10200:10212   */\n      add\n        /* \"#utility.yul\":10193:10212   */\n      swap1\n      pop\n        /* \"#utility.yul\":9852:10218   */\n      swap2\n      swap1\n      pop\n      jump\t// out\n        /* \"#utility.yul\":10224:10643   */\n    tag_102:\n        /* \"#utility.yul\":10390:10394   */\n      0x00\n        /* \"#utility.yul\":10428:10430   */\n      0x20\n        /* \"#utility.yul\":10417:10426   */\n      dup3\n        /* \"#utility.yul\":10413:10431   */\n      add\n        /* \"#utility.yul\":10405:10431   */\n      swap1\n      pop\n        /* \"#utility.yul\":10477:10486   */\n      dup2\n        /* \"#utility.yul\":10471:10475   */\n      dup2\n        /* \"#utility.yul\":10467:10487   */\n      sub\n        /* \"#utility.yul\":10463:10464   */\n      0x00\n        /* \"#utility.yul\":10452:10461   */\n      dup4\n        /* \"#utility.yul\":10448:10465   */\n      add\n        /* \"#utility.yul\":10441:10488   */\n      mstore\n        /* \"#utility.yul\":10505:10636   */\n      tag_254\n        /* \"#utility.yul\":10631:10635   */\n      dup2\n        /* \"#utility.yul\":10505:10636   */\n      tag_132\n      jump\t// in\n    tag_254:\n        /* \"#utility.yul\":10497:10636   */\n      swap1\n      pop\n        /* \"#utility.yul\":10224:10643   */\n      swap2\n      swap1\n      pop\n      jump\t// out\n\n    auxdata: 0xa26469706673582212203a8ed0d1e9f1d50abc7b0d68f40858a16e69869c8fcdac0ec68f4064b09397a564736f6c634300081e0033\n}\n",
				"bytecode": {
					"linkReferences": {},
					"object": "608060405234801561000f575f5ffd5b50604051610fd3380380610fd383398181016040528101906100319190610156565b825f5f6101000a81548173ffffffffffffffffffffffffffffffffffffffff021916908373ffffffffffffffffffffffffffffffffffffffff1602179055508160015f6101000a81548173ffffffffffffffffffffffffffffffffffffffff021916908373ffffffffffffffffffffffffffffffffffffffff1602179055508060025f6101000a81548173ffffffffffffffffffffffffffffffffffffffff021916908373ffffffffffffffffffffffffffffffffffffffff1602179055505050506101a6565b5f5ffd5b5f73ffffffffffffffffffffffffffffffffffffffff82169050919050565b5f610125826100fc565b9050919050565b6101358161011b565b811461013f575f5ffd5b50565b5f815190506101508161012c565b92915050565b5f5f5f6060848603121561016d5761016c6100f8565b5b5f61017a86828701610142565b935050602061018b86828701610142565b925050604061019c86828701610142565b9150509250925092565b610e20806101b35f395ff3fe608060405234801561000f575f5ffd5b506004361061005f575f3560e01c8062593bcf14610063578063040141e5146100935780630b017603146100b15780636855e939146100cf5780637b49b49d146100ed578063884ec7a91461011d575b5f5ffd5b61007d60048036038101906100789190610855565b61013b565b60405161008a9190610898565b60405180910390f35b61009b61017b565b6040516100a891906108c0565b60405180910390f35b6100b961019f565b6040516100c691906108c0565b60405180910390f35b6100d76101c4565b6040516100e49190610898565b60405180910390f35b61010760048036038101906101029190610855565b610232565b6040516101149190610898565b60405180910390f35b61012561028e565b60405161013291906108c0565b60405180910390f35b5f5f61014683610232565b90505f6101516101c4565b9050670de0b6b3a764000081836101689190610906565b6101729190610974565b92505050919050565b5f5f9054906101000a900473ffffffffffffffffffffffffffffffffffffffff1681565b60015f9054906101000a900473ffffffffffffffffffffffffffffffffffffffff1681565b5f5f5f5f5f61021460015f9054906101000a900473ffffffffffffffffffffffffffffffffffffffff165f5f9054906101000a900473ffffffffffffffffffffffffffffffffffffffff166102b3565b5093509350935093506102298282868661061f565b94505050505090565b5f5f61023d836106c1565b90505f5f5f5f61026d855f5f9054906101000a900473ffffffffffffffffffffffffffffffffffffffff166102b3565b5093509350935093506102828484848461061f565b95505050505050919050565b60025f9054906101000a900473ffffffffffffffffffffffffffffffffffffffff1681565b5f5f5f5f5f5f8790505f5f8273ffffffffffffffffffffffffffffffffffffffff16630902f1ac6040518163ffffffff1660e01b8152600401606060405180830381865afa158015610307573d5f5f3e3d5ffd5b505050506040513d601f19601f8201168201806040525081019061032b9190610a20565b50915091505f8373ffffffffffffffffffffffffffffffffffffffff16630dfe16816040518163ffffffff1660e01b8152600401602060405180830381865afa15801561037a573d5f5f3e3d5ffd5b505050506040513d601f19601f8201168201806040525081019061039e9190610a84565b90505f8473ffffffffffffffffffffffffffffffffffffffff1663d21220a76040518163ffffffff1660e01b8152600401602060405180830381865afa1580156103ea573d5f5f3e3d5ffd5b505050506040513d601f19601f8201168201806040525081019061040e9190610a84565b90505f8b73ffffffffffffffffffffffffffffffffffffffff168373ffffffffffffffffffffffffffffffffffffffff160361044d57600190506104c4565b8b73ffffffffffffffffffffffffffffffffffffffff168273ffffffffffffffffffffffffffffffffffffffff1603610488575f90506104c3565b6040517f08c379a00000000000000000000000000000000000000000000000000000000081526004016104ba90610b09565b60405180910390fd5b5b806104df57836dffffffffffffffffffffffffffff166104f1565b846dffffffffffffffffffffffffffff165b9a508061050e57846dffffffffffffffffffffffffffff16610520565b836dffffffffffffffffffffffffffff165b98508061052d578261052f565b815b96508b73ffffffffffffffffffffffffffffffffffffffff1663313ce5676040518163ffffffff1660e01b8152600401602060405180830381865afa15801561057a573d5f5f3e3d5ffd5b505050506040513d601f19601f8201168201806040525081019061059e9190610b5d565b99508673ffffffffffffffffffffffffffffffffffffffff1663313ce5676040518163ffffffff1660e01b8152600401602060405180830381865afa1580156105e9573d5f5f3e3d5ffd5b505050506040513d601f19601f8201168201806040525081019061060d9190610b5d565b97505050505050509295509295909350565b5f5f670de0b6b3a7640000866106359190610906565b90508460ff168360ff1611156106725784836106519190610b88565b60ff16600a6106609190610ceb565b8161066b9190610906565b90506106aa565b8260ff168560ff1611156106a957828561068c9190610b88565b60ff16600a61069b9190610ceb565b816106a69190610974565b90505b5b83816106b69190610974565b915050949350505050565b5f5f60025f9054906101000a900473ffffffffffffffffffffffffffffffffffffffff1673ffffffffffffffffffffffffffffffffffffffff1663e6a43905845f5f9054906101000a900473ffffffffffffffffffffffffffffffffffffffff166040518363ffffffff1660e01b815260040161073f929190610d35565b602060405180830381865afa15801561075a573d5f5f3e3d5ffd5b505050506040513d601f19601f8201168201806040525081019061077e9190610a84565b90505f73ffffffffffffffffffffffffffffffffffffffff168173ffffffffffffffffffffffffffffffffffffffff16036107ee576040517f08c379a00000000000000000000000000000000000000000000000000000000081526004016107e590610dcc565b60405180910390fd5b80915050919050565b5f5ffd5b5f73ffffffffffffffffffffffffffffffffffffffff82169050919050565b5f610824826107fb565b9050919050565b6108348161081a565b811461083e575f5ffd5b50565b5f8135905061084f8161082b565b92915050565b5f6020828403121561086a576108696107f7565b5b5f61087784828501610841565b91505092915050565b5f819050919050565b61089281610880565b82525050565b5f6020820190506108ab5f830184610889565b92915050565b6108ba8161081a565b82525050565b5f6020820190506108d35f8301846108b1565b92915050565b7f4e487b71000000000000000000000000000000000000000000000000000000005f52601160045260245ffd5b5f61091082610880565b915061091b83610880565b925082820261092981610880565b915082820484148315176109405761093f6108d9565b5b5092915050565b7f4e487b71000000000000000000000000000000000000000000000000000000005f52601260045260245ffd5b5f61097e82610880565b915061098983610880565b92508261099957610998610947565b5b828204905092915050565b5f6dffffffffffffffffffffffffffff82169050919050565b6109c6816109a4565b81146109d0575f5ffd5b50565b5f815190506109e1816109bd565b92915050565b5f63ffffffff82169050919050565b6109ff816109e7565b8114610a09575f5ffd5b50565b5f81519050610a1a816109f6565b92915050565b5f5f5f60608486031215610a3757610a366107f7565b5b5f610a44868287016109d3565b9350506020610a55868287016109d3565b9250506040610a6686828701610a0c565b9150509250925092565b5f81519050610a7e8161082b565b92915050565b5f60208284031215610a9957610a986107f7565b5b5f610aa684828501610a70565b91505092915050565b5f82825260208201905092915050565b7f5061697220646f6573206e6f7420636f6e7461696e206261736520746f6b656e5f82015250565b5f610af3602083610aaf565b9150610afe82610abf565b602082019050919050565b5f6020820190508181035f830152610b2081610ae7565b9050919050565b5f60ff82169050919050565b610b3c81610b27565b8114610b46575f5ffd5b50565b5f81519050610b5781610b33565b92915050565b5f60208284031215610b7257610b716107f7565b5b5f610b7f84828501610b49565b91505092915050565b5f610b9282610b27565b9150610b9d83610b27565b9250828203905060ff811115610bb657610bb56108d9565b5b92915050565b5f8160011c9050919050565b5f5f8291508390505b6001851115610c1157808604811115610bed57610bec6108d9565b5b6001851615610bfc5780820291505b8081029050610c0a85610bbc565b9450610bd1565b94509492505050565b5f82610c295760019050610ce4565b81610c36575f9050610ce4565b8160018114610c4c5760028114610c5657610c85565b6001915050610ce4565b60ff841115610c6857610c676108d9565b5b8360020a915084821115610c7f57610c7e6108d9565b5b50610ce4565b5060208310610133831016604e8410600b8410161715610cba5782820a905083811115610cb557610cb46108d9565b5b610ce4565b610cc78484846001610bc8565b92509050818404811115610cde57610cdd6108d9565b5b81810290505b9392505050565b5f610cf582610880565b9150610d0083610880565b9250610d2d7fffffffffffffffffffffffffffffffffffffffffffffffffffffffffffffffff8484610c1a565b905092915050565b5f604082019050610d485f8301856108b1565b610d5560208301846108b1565b9392505050565b7f556e69737761705632506169723a207061697220646f6573206e6f74206578695f8201527f7374000000000000000000000000000000000000000000000000000000000000602082015250565b5f610db6602283610aaf565b9150610dc182610d5c565b604082019050919050565b5f6020820190508181035f830152610de381610daa565b905091905056fea26469706673582212203a8ed0d1e9f1d50abc7b0d68f40858a16e69869c8fcdac0ec68f4064b09397a564736f6c634300081e0033",
					"opcodes": "PUSH1 0x80 PUSH1 0x40 MSTORE CALLVALUE DUP1 ISZERO PUSH2 0xF JUMPI PUSH0 PUSH0 REVERT JUMPDEST POP PUSH1 0x40 MLOAD PUSH2 0xFD3 CODESIZE SUB DUP1 PUSH2 0xFD3 DUP4 CODECOPY DUP2 DUP2 ADD PUSH1 0x40 MSTORE DUP2 ADD SWAP1 PUSH2 0x31 SWAP2 SWAP1 PUSH2 0x156 JUMP JUMPDEST DUP3 PUSH0 PUSH0 PUSH2 0x100 EXP DUP2 SLOAD DUP2 PUSH20 0xFFFFFFFFFFFFFFFFFFFFFFFFFFFFFFFFFFFFFFFF MUL NOT AND SWAP1 DUP4 PUSH20 0xFFFFFFFFFFFFFFFFFFFFFFFFFFFFFFFFFFFFFFFF AND MUL OR SWAP1 SSTORE POP DUP2 PUSH1 0x1 PUSH0 PUSH2 0x100 EXP DUP2 SLOAD DUP2 PUSH20 0xFFFFFFFFFFFFFFFFFFFFFFFFFFFFFFFFFFFFFFFF MUL NOT AND SWAP1 DUP4 PUSH20 0xFFFFFFFFFFFFFFFFFFFFFFFFFFFFFFFFFFFFFFFF AND MUL OR SWAP1 SSTORE POP DUP1 PUSH1 0x2 PUSH0 PUSH2 0x100 EXP DUP2 SLOAD DUP2 PUSH20 0xFFFFFFFFFFFFFFFFFFFFFFFFFFFFFFFFFFFFFFFF MUL NOT AND SWAP1 DUP4 PUSH20 0xFFFFFFFFFFFFFFFFFFFFFFFFFFFFFFFFFFFFFFFF AND MUL OR SWAP1 SSTORE POP POP POP POP PUSH2 0x1A6 JUMP JUMPDEST PUSH0 PUSH0 REVERT JUMPDEST PUSH0 PUSH20 0xFFFFFFFFFFFFFFFFFFFFFFFFFFFFFFFFFFFFFFFF DUP3 AND SWAP1 POP SWAP2 SWAP1 POP JUMP JUMPDEST PUSH0 PUSH2 0x125 DUP3 PUSH2 0xFC JUMP JUMPDEST SWAP1 POP SWAP2 SWAP1 POP JUMP JUMPDEST PUSH2 0x135 DUP2 PUSH2 0x11B JUMP JUMPDEST DUP2 EQ PUSH2 0x13F JUMPI PUSH0 PUSH0 REVERT JUMPDEST POP JUMP JUMPDEST PUSH0 DUP2 MLOAD SWAP1 POP PUSH2 0x150 DUP2 PUSH2 0x12C JUMP JUMPDEST SWAP3 SWAP2 POP POP JUMP JUMPDEST PUSH0 PUSH0 PUSH0 PUSH1 0x60 DUP5 DUP7 SUB SLT ISZERO PUSH2 0x16D JUMPI PUSH2 0x16C PUSH2 0xF8 JUMP JUMPDEST JUMPDEST PUSH0 PUSH2 0x17A DUP7 DUP3 DUP8 ADD PUSH2 0x142 JUMP JUMPDEST SWAP4 POP POP PUSH1 0x20 PUSH2 0x18B DUP7 DUP3 DUP8 ADD PUSH2 0x142 JUMP JUMPDEST SWAP3 POP POP PUSH1 0x40 PUSH2 0x19C DUP7 DUP3 DUP8 ADD PUSH2 0x142 JUMP JUMPDEST SWAP2 POP POP SWAP3 POP SWAP3 POP SWAP3 JUMP JUMPDEST PUSH2 0xE20 DUP1 PUSH2 0x1B3 PUSH0 CODECOPY PUSH0 RETURN INVALID PUSH1 0x80 PUSH1 0x40 MSTORE CALLVALUE DUP1 ISZERO PUSH2 0xF JUMPI PUSH0 PUSH0 REVERT JUMPDEST POP PUSH1 0x4 CALLDATASIZE LT PUSH2 0x5F JUMPI PUSH0 CALLDATALOAD PUSH1 0xE0 SHR DUP1 PUSH3 0x593BCF EQ PUSH2 0x63 JUMPI DUP1 PUSH4 0x40141E5 EQ PUSH2 0x93 JUMPI DUP1 PUSH4 0xB017603 EQ PUSH2 0xB1 JUMPI DUP1 PUSH4 0x6855E939 EQ PUSH2 0xCF JUMPI DUP1 PUSH4 0x7B49B49D EQ PUSH2 0xED JUMPI DUP1 PUSH4 0x884EC7A9 EQ PUSH2 0x11D JUMPI JUMPDEST PUSH0 PUSH0 REVERT JUMPDEST PUSH2 0x7D PUSH1 0x4 DUP1 CALLDATASIZE SUB DUP2 ADD SWAP1 PUSH2 0x78 SWAP2 SWAP1 PUSH2 0x855 JUMP JUMPDEST PUSH2 0x13B JUMP JUMPDEST PUSH1 0x40 MLOAD PUSH2 0x8A SWAP2 SWAP1 PUSH2 0x898 JUMP JUMPDEST PUSH1 0x40 MLOAD DUP1 SWAP2 SUB SWAP1 RETURN JUMPDEST PUSH2 0x9B PUSH2 0x17B JUMP JUMPDEST PUSH1 0x40 MLOAD PUSH2 0xA8 SWAP2 SWAP1 PUSH2 0x8C0 JUMP JUMPDEST PUSH1 0x40 MLOAD DUP1 SWAP2 SUB SWAP1 RETURN JUMPDEST PUSH2 0xB9 PUSH2 0x19F JUMP JUMPDEST PUSH1 0x40 MLOAD PUSH2 0xC6 SWAP2 SWAP1 PUSH2 0x8C0 JUMP JUMPDEST PUSH1 0x40 MLOAD DUP1 SWAP2 SUB SWAP1 RETURN JUMPDEST PUSH2 0xD7 PUSH2 0x1C4 JUMP JUMPDEST PUSH1 0x40 MLOAD PUSH2 0xE4 SWAP2 SWAP1 PUSH2 0x898 JUMP JUMPDEST PUSH1 0x40 MLOAD DUP1 SWAP2 SUB SWAP1 RETURN JUMPDEST PUSH2 0x107 PUSH1 0x4 DUP1 CALLDATASIZE SUB DUP2 ADD SWAP1 PUSH2 0x102 SWAP2 SWAP1 PUSH2 0x855 JUMP JUMPDEST PUSH2 0x232 JUMP JUMPDEST PUSH1 0x40 MLOAD PUSH2 0x114 SWAP2 SWAP1 PUSH2 0x898 JUMP JUMPDEST PUSH1 0x40 MLOAD DUP1 SWAP2 SUB SWAP1 RETURN JUMPDEST PUSH2 0x125 PUSH2 0x28E JUMP JUMPDEST PUSH1 0x40 MLOAD PUSH2 0x132 SWAP2 SWAP1 PUSH2 0x8C0 JUMP JUMPDEST PUSH1 0x40 MLOAD DUP1 SWAP2 SUB SWAP1 RETURN JUMPDEST PUSH0 PUSH0 PUSH2 0x146 DUP4 PUSH2 0x232 JUMP JUMPDEST SWAP1 POP PUSH0 PUSH2 0x151 PUSH2 0x1C4 JUMP JUMPDEST SWAP1 POP PUSH8 0xDE0B6B3A7640000 DUP2 DUP4 PUSH2 0x168 SWAP2 SWAP1 PUSH2 0x906 JUMP JUMPDEST PUSH2 0x172 SWAP2 SWAP1 PUSH2 0x974 JUMP JUMPDEST SWAP3 POP POP POP SWAP2 SWAP1 POP JUMP JUMPDEST PUSH0 PUSH0 SWAP1 SLOAD SWAP1 PUSH2 0x100 EXP SWAP1 DIV PUSH20 0xFFFFFFFFFFFFFFFFFFFFFFFFFFFFFFFFFFFFFFFF AND DUP2 JUMP JUMPDEST PUSH1 0x1 PUSH0 SWAP1 SLOAD SWAP1 PUSH2 0x100 EXP SWAP1 DIV PUSH20 0xFFFFFFFFFFFFFFFFFFFFFFFFFFFFFFFFFFFFFFFF AND DUP2 JUMP JUMPDEST PUSH0 PUSH0 PUSH0 PUSH0 PUSH0 PUSH2 0x214 PUSH1 0x1 PUSH0 SWAP1 SLOAD SWAP1 PUSH2 0x100 EXP SWAP1 DIV PUSH20 0xFFFFFFFFFFFFFFFFFFFFFFFFFFFFFFFFFFFFFFFF AND PUSH0 PUSH0 SWAP1 SLOAD SWAP1 PUSH2 0x100 EXP SWAP1 DIV PUSH20 0xFFFFFFFFFFFFFFFFFFFFFFFFFFFFFFFFFFFFFFFF AND PUSH2 0x2B3 JUMP JUMPDEST POP SWAP4 POP SWAP4 POP SWAP4 POP SWAP4 POP PUSH2 0x229 DUP3 DUP3 DUP7 DUP7 PUSH2 0x61F JUMP JUMPDEST SWAP5 POP POP POP POP POP SWAP1 JUMP JUMPDEST PUSH0 PUSH0 PUSH2 0x23D DUP4 PUSH2 0x6C1 JUMP JUMPDEST SWAP1 POP PUSH0 PUSH0 PUSH0 PUSH0 PUSH2 0x26D DUP6 PUSH0 PUSH0 SWAP1 SLOAD SWAP1 PUSH2 0x100 EXP SWAP1 DIV PUSH20 0xFFFFFFFFFFFFFFFFFFFFFFFFFFFFFFFFFFFFFFFF AND PUSH2 0x2B3 JUMP JUMPDEST POP SWAP4 POP SWAP4 POP SWAP4 POP SWAP4 POP PUSH2 0x282 DUP5 DUP5 DUP5 DUP5 PUSH2 0x61F JUMP JUMPDEST SWAP6 POP POP POP POP POP POP SWAP2 SWAP1 POP JUMP JUMPDEST PUSH1 0x2 PUSH0 SWAP1 SLOAD SWAP1 PUSH2 0x100 EXP SWAP1 DIV PUSH20 0xFFFFFFFFFFFFFFFFFFFFFFFFFFFFFFFFFFFFFFFF AND DUP2 JUMP JUMPDEST PUSH0 PUSH0 PUSH0 PUSH0 PUSH0 PUSH0 DUP8 SWAP1 POP PUSH0 PUSH0 DUP3 PUSH20 0xFFFFFFFFFFFFFFFFFFFFFFFFFFFFFFFFFFFFFFFF AND PUSH4 0x902F1AC PUSH1 0x40 MLOAD DUP2 PUSH4 0xFFFFFFFF AND PUSH1 0xE0 SHL DUP2 MSTORE PUSH1 0x4 ADD PUSH1 0x60 PUSH1 0x40 MLOAD DUP1 DUP4 SUB DUP2 DUP7 GAS STATICCALL ISZERO DUP1 ISZERO PUSH2 0x307 JUMPI RETURNDATASIZE PUSH0 PUSH0 RETURNDATACOPY RETURNDATASIZE PUSH0 REVERT JUMPDEST POP POP POP POP PUSH1 0x40 MLOAD RETURNDATASIZE PUSH1 0x1F NOT PUSH1 0x1F DUP3 ADD AND DUP3 ADD DUP1 PUSH1 0x40 MSTORE POP DUP2 ADD SWAP1 PUSH2 0x32B SWAP2 SWAP1 PUSH2 0xA20 JUMP JUMPDEST POP SWAP2 POP SWAP2 POP PUSH0 DUP4 PUSH20 0xFFFFFFFFFFFFFFFFFFFFFFFFFFFFFFFFFFFFFFFF AND PUSH4 0xDFE1681 PUSH1 0x40 MLOAD DUP2 PUSH4 0xFFFFFFFF AND PUSH1 0xE0 SHL DUP2 MSTORE PUSH1 0x4 ADD PUSH1 0x20 PUSH1 0x40 MLOAD DUP1 DUP4 SUB DUP2 DUP7 GAS STATICCALL ISZERO DUP1 ISZERO PUSH2 0x37A JUMPI RETURNDATASIZE PUSH0 PUSH0 RETURNDATACOPY RETURNDATASIZE PUSH0 REVERT JUMPDEST POP POP POP POP PUSH1 0x40 MLOAD RETURNDATASIZE PUSH1 0x1F NOT PUSH1 0x1F DUP3 ADD AND DUP3 ADD DUP1 PUSH1 0x40 MSTORE POP DUP2 ADD SWAP1 PUSH2 0x39E SWAP2 SWAP1 PUSH2 0xA84 JUMP JUMPDEST SWAP1 POP PUSH0 DUP5 PUSH20 0xFFFFFFFFFFFFFFFFFFFFFFFFFFFFFFFFFFFFFFFF AND PUSH4 0xD21220A7 PUSH1 0x40 MLOAD DUP2 PUSH4 0xFFFFFFFF AND PUSH1 0xE0 SHL DUP2 MSTORE PUSH1 0x4 ADD PUSH1 0x20 PUSH1 0x40 MLOAD DUP1 DUP4 SUB DUP2 DUP7 GAS STATICCALL ISZERO DUP1 ISZERO PUSH2 0x3EA JUMPI RETURNDATASIZE PUSH0 PUSH0 RETURNDATACOPY RETURNDATASIZE PUSH0 REVERT JUMPDEST POP POP POP POP PUSH1 0x40 MLOAD RETURNDATASIZE PUSH1 0x1F NOT PUSH1 0x1F DUP3 ADD AND DUP3 ADD DUP1 PUSH1 0x40 MSTORE POP DUP2 ADD SWAP1 PUSH2 0x40E SWAP2 SWAP1 PUSH2 0xA84 JUMP JUMPDEST SWAP1 POP PUSH0 DUP12 PUSH20 0xFFFFFFFFFFFFFFFFFFFFFFFFFFFFFFFFFFFFFFFF AND DUP4 PUSH20 0xFFFFFFFFFFFFFFFFFFFFFFFFFFFFFFFFFFFFFFFF AND SUB PUSH2 0x44D JUMPI PUSH1 0x1 SWAP1 POP PUSH2 0x4C4 JUMP JUMPDEST DUP12 PUSH20 0xFFFFFFFFFFFFFFFFFFFFFFFFFFFFFFFFFFFFFFFF AND DUP3 PUSH20 0xFFFFFFFFFFFFFFFFFFFFFFFFFFFFFFFFFFFFFFFF AND SUB PUSH2 0x488 JUMPI PUSH0 SWAP1 POP PUSH2 0x4C3 JUMP JUMPDEST PUSH1 0x40 MLOAD PUSH32 0x8C379A000000000000000000000000000000000000000000000000000000000 DUP2 MSTORE PUSH1 0x4 ADD PUSH2 0x4BA SWAP1 PUSH2 0xB09 JUMP JUMPDEST PUSH1 0x40 MLOAD DUP1 SWAP2 SUB SWAP1 REVERT JUMPDEST JUMPDEST DUP1 PUSH2 0x4DF JUMPI DUP4 PUSH14 0xFFFFFFFFFFFFFFFFFFFFFFFFFFFF AND PUSH2 0x4F1 JUMP JUMPDEST DUP5 PUSH14 0xFFFFFFFFFFFFFFFFFFFFFFFFFFFF AND JUMPDEST SWAP11 POP DUP1 PUSH2 0x50E JUMPI DUP5 PUSH14 0xFFFFFFFFFFFFFFFFFFFFFFFFFFFF AND PUSH2 0x520 JUMP JUMPDEST DUP4 PUSH14 0xFFFFFFFFFFFFFFFFFFFFFFFFFFFF AND JUMPDEST SWAP9 POP DUP1 PUSH2 0x52D JUMPI DUP3 PUSH2 0x52F JUMP JUMPDEST DUP2 JUMPDEST SWAP7 POP DUP12 PUSH20 0xFFFFFFFFFFFFFFFFFFFFFFFFFFFFFFFFFFFFFFFF AND PUSH4 0x313CE567 PUSH1 0x40 MLOAD DUP2 PUSH4 0xFFFFFFFF AND PUSH1 0xE0 SHL DUP2 MSTORE PUSH1 0x4 ADD PUSH1 0x20 PUSH1 0x40 MLOAD DUP1 DUP4 SUB DUP2 DUP7 GAS STATICCALL ISZERO DUP1 ISZERO PUSH2 0x57A JUMPI RETURNDATASIZE PUSH0 PUSH0 RETURNDATACOPY RETURNDATASIZE PUSH0 REVERT JUMPDEST POP POP POP POP PUSH1 0x40 MLOAD RETURNDATASIZE PUSH1 0x1F NOT PUSH1 0x1F DUP3 ADD AND DUP3 ADD DUP1 PUSH1 0x40 MSTORE POP DUP2 ADD SWAP1 PUSH2 0x59E SWAP2 SWAP1 PUSH2 0xB5D JUMP JUMPDEST SWAP10 POP DUP7 PUSH20 0xFFFFFFFFFFFFFFFFFFFFFFFFFFFFFFFFFFFFFFFF AND PUSH4 0x313CE567 PUSH1 0x40 MLOAD DUP2 PUSH4 0xFFFFFFFF AND PUSH1 0xE0 SHL DUP2 MSTORE PUSH1 0x4 ADD PUSH1 0x20 PUSH1 0x40 MLOAD DUP1 DUP4 SUB DUP2 DUP7 GAS STATICCALL ISZERO DUP1 ISZERO PUSH2 0x5E9 JUMPI RETURNDATASIZE PUSH0 PUSH0 RETURNDATACOPY RETURNDATASIZE PUSH0 REVERT JUMPDEST POP POP POP POP PUSH1 0x40 MLOAD RETURNDATASIZE PUSH1 0x1F NOT PUSH1 0x1F DUP3 ADD AND DUP3 ADD DUP1 PUSH1 0x40 MSTORE POP DUP2 ADD SWAP1 PUSH2 0x60D SWAP2 SWAP1 PUSH2 0xB5D JUMP JUMPDEST SWAP8 POP POP POP POP POP POP POP SWAP3 SWAP6 POP SWAP3 SWAP6 SWAP1 SWAP4 POP JUMP JUMPDEST PUSH0 PUSH0 PUSH8 0xDE0B6B3A7640000 DUP7 PUSH2 0x635 SWAP2 SWAP1 PUSH2 0x906 JUMP JUMPDEST SWAP1 POP DUP5 PUSH1 0xFF AND DUP4 PUSH1 0xFF AND GT ISZERO PUSH2 0x672 JUMPI DUP5 DUP4 PUSH2 0x651 SWAP2 SWAP1 PUSH2 0xB88 JUMP JUMPDEST PUSH1 0xFF AND PUSH1 0xA PUSH2 0x660 SWAP2 SWAP1 PUSH2 0xCEB JUMP JUMPDEST DUP2 PUSH2 0x66B SWAP2 SWAP1 PUSH2 0x906 JUMP JUMPDEST SWAP1 POP PUSH2 0x6AA JUMP JUMPDEST DUP3 PUSH1 0xFF AND DUP6 PUSH1 0xFF AND GT ISZERO PUSH2 0x6A9 JUMPI DUP3 DUP6 PUSH2 0x68C SWAP2 SWAP1 PUSH2 0xB88 JUMP JUMPDEST PUSH1 0xFF AND PUSH1 0xA PUSH2 0x69B SWAP2 SWAP1 PUSH2 0xCEB JUMP JUMPDEST DUP2 PUSH2 0x6A6 SWAP2 SWAP1 PUSH2 0x974 JUMP JUMPDEST SWAP1 POP JUMPDEST JUMPDEST DUP4 DUP2 PUSH2 0x6B6 SWAP2 SWAP1 PUSH2 0x974 JUMP JUMPDEST SWAP2 POP POP SWAP5 SWAP4 POP POP POP POP JUMP JUMPDEST PUSH0 PUSH0 PUSH1 0x2 PUSH0 SWAP1 SLOAD SWAP1 PUSH2 0x100 EXP SWAP1 DIV PUSH20 0xFFFFFFFFFFFFFFFFFFFFFFFFFFFFFFFFFFFFFFFF AND PUSH20 0xFFFFFFFFFFFFFFFFFFFFFFFFFFFFFFFFFFFFFFFF AND PUSH4 0xE6A43905 DUP5 PUSH0 PUSH0 SWAP1 SLOAD SWAP1 PUSH2 0x100 EXP SWAP1 DIV PUSH20 0xFFFFFFFFFFFFFFFFFFFFFFFFFFFFFFFFFFFFFFFF AND PUSH1 0x40 MLOAD DUP4 PUSH4 0xFFFFFFFF AND PUSH1 0xE0 SHL DUP2 MSTORE PUSH1 0x4 ADD PUSH2 0x73F SWAP3 SWAP2 SWAP1 PUSH2 0xD35 JUMP JUMPDEST PUSH1 0x20 PUSH1 0x40 MLOAD DUP1 DUP4 SUB DUP2 DUP7 GAS STATICCALL ISZERO DUP1 ISZERO PUSH2 0x75A JUMPI RETURNDATASIZE PUSH0 PUSH0 RETURNDATACOPY RETURNDATASIZE PUSH0 REVERT JUMPDEST POP POP POP POP PUSH1 0x40 MLOAD RETURNDATASIZE PUSH1 0x1F NOT PUSH1 0x1F DUP3 ADD AND DUP3 ADD DUP1 PUSH1 0x40 MSTORE POP DUP2 ADD SWAP1 PUSH2 0x77E SWAP2 SWAP1 PUSH2 0xA84 JUMP JUMPDEST SWAP1 POP PUSH0 PUSH20 0xFFFFFFFFFFFFFFFFFFFFFFFFFFFFFFFFFFFFFFFF AND DUP2 PUSH20 0xFFFFFFFFFFFFFFFFFFFFFFFFFFFFFFFFFFFFFFFF AND SUB PUSH2 0x7EE JUMPI PUSH1 0x40 MLOAD PUSH32 0x8C379A000000000000000000000000000000000000000000000000000000000 DUP2 MSTORE PUSH1 0x4 ADD PUSH2 0x7E5 SWAP1 PUSH2 0xDCC JUMP JUMPDEST PUSH1 0x40 MLOAD DUP1 SWAP2 SUB SWAP1 REVERT JUMPDEST DUP1 SWAP2 POP POP SWAP2 SWAP1 POP JUMP JUMPDEST PUSH0 PUSH0 REVERT JUMPDEST PUSH0 PUSH20 0xFFFFFFFFFFFFFFFFFFFFFFFFFFFFFFFFFFFFFFFF DUP3 AND SWAP1 POP SWAP2 SWAP1 POP JUMP JUMPDEST PUSH0 PUSH2 0x824 DUP3 PUSH2 0x7FB JUMP JUMPDEST SWAP1 POP SWAP2 SWAP1 POP JUMP JUMPDEST PUSH2 0x834 DUP2 PUSH2 0x81A JUMP JUMPDEST DUP2 EQ PUSH2 0x83E JUMPI PUSH0 PUSH0 REVERT JUMPDEST POP JUMP JUMPDEST PUSH0 DUP2 CALLDATALOAD SWAP1 POP PUSH2 0x84F DUP2 PUSH2 0x82B JUMP JUMPDEST SWAP3 SWAP2 POP POP JUMP JUMPDEST PUSH0 PUSH1 0x20 DUP3 DUP5 SUB SLT ISZERO PUSH2 0x86A JUMPI PUSH2 0x869 PUSH2 0x7F7 JUMP JUMPDEST JUMPDEST PUSH0 PUSH2 0x877 DUP5 DUP3 DUP6 ADD PUSH2 0x841 JUMP JUMPDEST SWAP2 POP POP SWAP3 SWAP2 POP POP JUMP JUMPDEST PUSH0 DUP2 SWAP1 POP SWAP2 SWAP1 POP JUMP JUMPDEST PUSH2 0x892 DUP2 PUSH2 0x880 JUMP JUMPDEST DUP3 MSTORE POP POP JUMP JUMPDEST PUSH0 PUSH1 0x20 DUP3 ADD SWAP1 POP PUSH2 0x8AB PUSH0 DUP4 ADD DUP5 PUSH2 0x889 JUMP JUMPDEST SWAP3 SWAP2 POP POP JUMP JUMPDEST PUSH2 0x8BA DUP2 PUSH2 0x81A JUMP JUMPDEST DUP3 MSTORE POP POP JUMP JUMPDEST PUSH0 PUSH1 0x20 DUP3 ADD SWAP1 POP PUSH2 0x8D3 PUSH0 DUP4 ADD DUP5 PUSH2 0x8B1 JUMP JUMPDEST SWAP3 SWAP2 POP POP JUMP JUMPDEST PUSH32 0x4E487B7100000000000000000000000000000000000000000000000000000000 PUSH0 MSTORE PUSH1 0x11 PUSH1 0x4 MSTORE PUSH1 0x24 PUSH0 REVERT JUMPDEST PUSH0 PUSH2 0x910 DUP3 PUSH2 0x880 JUMP JUMPDEST SWAP2 POP PUSH2 0x91B DUP4 PUSH2 0x880 JUMP JUMPDEST SWAP3 POP DUP3 DUP3 MUL PUSH2 0x929 DUP2 PUSH2 0x880 JUMP JUMPDEST SWAP2 POP DUP3 DUP3 DIV DUP5 EQ DUP4 ISZERO OR PUSH2 0x940 JUMPI PUSH2 0x93F PUSH2 0x8D9 JUMP JUMPDEST JUMPDEST POP SWAP3 SWAP2 POP POP JUMP JUMPDEST PUSH32 0x4E487B7100000000000000000000000000000000000000000000000000000000 PUSH0 MSTORE PUSH1 0x12 PUSH1 0x4 MSTORE PUSH1 0x24 PUSH0 REVERT JUMPDEST PUSH0 PUSH2 0x97E DUP3 PUSH2 0x880 JUMP JUMPDEST SWAP2 POP PUSH2 0x989 DUP4 PUSH2 0x880 JUMP JUMPDEST SWAP3 POP DUP3 PUSH2 0x999 JUMPI PUSH2 0x998 PUSH2 0x947 JUMP JUMPDEST JUMPDEST DUP3 DUP3 DIV SWAP1 POP SWAP3 SWAP2 POP POP JUMP JUMPDEST PUSH0 PUSH14 0xFFFFFFFFFFFFFFFFFFFFFFFFFFFF DUP3 AND SWAP1 POP SWAP2 SWAP1 POP JUMP JUMPDEST PUSH2 0x9C6 DUP2 PUSH2 0x9A4 JUMP JUMPDEST DUP2 EQ PUSH2 0x9D0 JUMPI PUSH0 PUSH0 REVERT JUMPDEST POP JUMP JUMPDEST PUSH0 DUP2 MLOAD SWAP1 POP PUSH2 0x9E1 DUP2 PUSH2 0x9BD JUMP JUMPDEST SWAP3 SWAP2 POP POP JUMP JUMPDEST PUSH0 PUSH4 0xFFFFFFFF DUP3 AND SWAP1 POP SWAP2 SWAP1 POP JUMP JUMPDEST PUSH2 0x9FF DUP2 PUSH2 0x9E7 JUMP JUMPDEST DUP2 EQ PUSH2 0xA09 JUMPI PUSH0 PUSH0 REVERT JUMPDEST POP JUMP JUMPDEST PUSH0 DUP2 MLOAD SWAP1 POP PUSH2 0xA1A DUP2 PUSH2 0x9F6 JUMP JUMPDEST SWAP3 SWAP2 POP POP JUMP JUMPDEST PUSH0 PUSH0 PUSH0 PUSH1 0x60 DUP5 DUP7 SUB SLT ISZERO PUSH2 0xA37 JUMPI PUSH2 0xA36 PUSH2 0x7F7 JUMP JUMPDEST JUMPDEST PUSH0 PUSH2 0xA44 DUP7 DUP3 DUP8 ADD PUSH2 0x9D3 JUMP JUMPDEST SWAP4 POP POP PUSH1 0x20 PUSH2 0xA55 DUP7 DUP3 DUP8 ADD PUSH2 0x9D3 JUMP JUMPDEST SWAP3 POP POP PUSH1 0x40 PUSH2 0xA66 DUP7 DUP3 DUP8 ADD PUSH2 0xA0C JUMP JUMPDEST SWAP2 POP POP SWAP3 POP SWAP3 POP SWAP3 JUMP JUMPDEST PUSH0 DUP2 MLOAD SWAP1 POP PUSH2 0xA7E DUP2 PUSH2 0x82B JUMP JUMPDEST SWAP3 SWAP2 POP POP JUMP JUMPDEST PUSH0 PUSH1 0x20 DUP3 DUP5 SUB SLT ISZERO PUSH2 0xA99 JUMPI PUSH2 0xA98 PUSH2 0x7F7 JUMP JUMPDEST JUMPDEST PUSH0 PUSH2 0xAA6 DUP5 DUP3 DUP6 ADD PUSH2 0xA70 JUMP JUMPDEST SWAP2 POP POP SWAP3 SWAP2 POP POP JUMP JUMPDEST PUSH0 DUP3 DUP3 MSTORE PUSH1 0x20 DUP3 ADD SWAP1 POP SWAP3 SWAP2 POP POP JUMP JUMPDEST PUSH32 0x5061697220646F6573206E6F7420636F6E7461696E206261736520746F6B656E PUSH0 DUP3 ADD MSTORE POP JUMP JUMPDEST PUSH0 PUSH2 0xAF3 PUSH1 0x20 DUP4 PUSH2 0xAAF JUMP JUMPDEST SWAP2 POP PUSH2 0xAFE DUP3 PUSH2 0xABF JUMP JUMPDEST PUSH1 0x20 DUP3 ADD SWAP1 POP SWAP2 SWAP1 POP JUMP JUMPDEST PUSH0 PUSH1 0x20 DUP3 ADD SWAP1 POP DUP2 DUP2 SUB PUSH0 DUP4 ADD MSTORE PUSH2 0xB20 DUP2 PUSH2 0xAE7 JUMP JUMPDEST SWAP1 POP SWAP2 SWAP1 POP JUMP JUMPDEST PUSH0 PUSH1 0xFF DUP3 AND SWAP1 POP SWAP2 SWAP1 POP JUMP JUMPDEST PUSH2 0xB3C DUP2 PUSH2 0xB27 JUMP JUMPDEST DUP2 EQ PUSH2 0xB46 JUMPI PUSH0 PUSH0 REVERT JUMPDEST POP JUMP JUMPDEST PUSH0 DUP2 MLOAD SWAP1 POP PUSH2 0xB57 DUP2 PUSH2 0xB33 JUMP JUMPDEST SWAP3 SWAP2 POP POP JUMP JUMPDEST PUSH0 PUSH1 0x20 DUP3 DUP5 SUB SLT ISZERO PUSH2 0xB72 JUMPI PUSH2 0xB71 PUSH2 0x7F7 JUMP JUMPDEST JUMPDEST PUSH0 PUSH2 0xB7F DUP5 DUP3 DUP6 ADD PUSH2 0xB49 JUMP JUMPDEST SWAP2 POP POP SWAP3 SWAP2 POP POP JUMP JUMPDEST PUSH0 PUSH2 0xB92 DUP3 PUSH2 0xB27 JUMP JUMPDEST SWAP2 POP PUSH2 0xB9D DUP4 PUSH2 0xB27 JUMP JUMPDEST SWAP3 POP DUP3 DUP3 SUB SWAP1 POP PUSH1 0xFF DUP2 GT ISZERO PUSH2 0xBB6 JUMPI PUSH2 0xBB5 PUSH2 0x8D9 JUMP JUMPDEST JUMPDEST SWAP3 SWAP2 POP POP JUMP JUMPDEST PUSH0 DUP2 PUSH1 0x1 SHR SWAP1 POP SWAP2 SWAP1 POP JUMP JUMPDEST PUSH0 PUSH0 DUP3 SWAP2 POP DUP4 SWAP1 POP JUMPDEST PUSH1 0x1 DUP6 GT ISZERO PUSH2 0xC11 JUMPI DUP1 DUP7 DIV DUP2 GT ISZERO PUSH2 0xBED JUMPI PUSH2 0xBEC PUSH2 0x8D9 JUMP JUMPDEST JUMPDEST PUSH1 0x1 DUP6 AND ISZERO PUSH2 0xBFC JUMPI DUP1 DUP3 MUL SWAP2 POP JUMPDEST DUP1 DUP2 MUL SWAP1 POP PUSH2 0xC0A DUP6 PUSH2 0xBBC JUMP JUMPDEST SWAP5 POP PUSH2 0xBD1 JUMP JUMPDEST SWAP5 POP SWAP5 SWAP3 POP POP POP JUMP JUMPDEST PUSH0 DUP3 PUSH2 0xC29 JUMPI PUSH1 0x1 SWAP1 POP PUSH2 0xCE4 JUMP JUMPDEST DUP2 PUSH2 0xC36 JUMPI PUSH0 SWAP1 POP PUSH2 0xCE4 JUMP JUMPDEST DUP2 PUSH1 0x1 DUP2 EQ PUSH2 0xC4C JUMPI PUSH1 0x2 DUP2 EQ PUSH2 0xC56 JUMPI PUSH2 0xC85 JUMP JUMPDEST PUSH1 0x1 SWAP2 POP POP PUSH2 0xCE4 JUMP JUMPDEST PUSH1 0xFF DUP5 GT ISZERO PUSH2 0xC68 JUMPI PUSH2 0xC67 PUSH2 0x8D9 JUMP JUMPDEST JUMPDEST DUP4 PUSH1 0x2 EXP SWAP2 POP DUP5 DUP3 GT ISZERO PUSH2 0xC7F JUMPI PUSH2 0xC7E PUSH2 0x8D9 JUMP JUMPDEST JUMPDEST POP PUSH2 0xCE4 JUMP JUMPDEST POP PUSH1 0x20 DUP4 LT PUSH2 0x133 DUP4 LT AND PUSH1 0x4E DUP5 LT PUSH1 0xB DUP5 LT AND OR ISZERO PUSH2 0xCBA JUMPI DUP3 DUP3 EXP SWAP1 POP DUP4 DUP2 GT ISZERO PUSH2 0xCB5 JUMPI PUSH2 0xCB4 PUSH2 0x8D9 JUMP JUMPDEST JUMPDEST PUSH2 0xCE4 JUMP JUMPDEST PUSH2 0xCC7 DUP5 DUP5 DUP5 PUSH1 0x1 PUSH2 0xBC8 JUMP JUMPDEST SWAP3 POP SWAP1 POP DUP2 DUP5 DIV DUP2 GT ISZERO PUSH2 0xCDE JUMPI PUSH2 0xCDD PUSH2 0x8D9 JUMP JUMPDEST JUMPDEST DUP2 DUP2 MUL SWAP1 POP JUMPDEST SWAP4 SWAP3 POP POP POP JUMP JUMPDEST PUSH0 PUSH2 0xCF5 DUP3 PUSH2 0x880 JUMP JUMPDEST SWAP2 POP PUSH2 0xD00 DUP4 PUSH2 0x880 JUMP JUMPDEST SWAP3 POP PUSH2 0xD2D PUSH32 0xFFFFFFFFFFFFFFFFFFFFFFFFFFFFFFFFFFFFFFFFFFFFFFFFFFFFFFFFFFFFFFFF DUP5 DUP5 PUSH2 0xC1A JUMP JUMPDEST SWAP1 POP SWAP3 SWAP2 POP POP JUMP JUMPDEST PUSH0 PUSH1 0x40 DUP3 ADD SWAP1 POP PUSH2 0xD48 PUSH0 DUP4 ADD DUP6 PUSH2 0x8B1 JUMP JUMPDEST PUSH2 0xD55 PUSH1 0x20 DUP4 ADD DUP5 PUSH2 0x8B1 JUMP JUMPDEST SWAP4 SWAP3 POP POP POP JUMP JUMPDEST PUSH32 0x556E69737761705632506169723A207061697220646F6573206E6F7420657869 PUSH0 DUP3 ADD MSTORE PUSH32 0x7374000000000000000000000000000000000000000000000000000000000000 PUSH1 0x20 DUP3 ADD MSTORE POP JUMP JUMPDEST PUSH0 PUSH2 0xDB6 PUSH1 0x22 DUP4 PUSH2 0xAAF JUMP JUMPDEST SWAP2 POP PUSH2 0xDC1 DUP3 PUSH2 0xD5C JUMP JUMPDEST PUSH1 0x40 DUP3 ADD SWAP1 POP SWAP2 SWAP1 POP JUMP JUMPDEST PUSH0 PUSH1 0x20 DUP3 ADD SWAP1 POP DUP2 DUP2 SUB PUSH0 DUP4 ADD MSTORE PUSH2 0xDE3 DUP2 PUSH2 0xDAA JUMP JUMPDEST SWAP1 POP SWAP2 SWAP1 POP JUMP INVALID LOG2 PUSH5 0x6970667358 0x22 SLT KECCAK256 GASPRICE DUP15 0xD0 DATALOADN 0xE9F1 0xD5 EXP 0xBC PUSH28 0xD68F40858A16E69869C8FCDAC0EC68F4064B09397A564736F6C6343 STOP ADDMOD 0x1E STOP CALLER "
				},
				"gasEstimates": {
					"creation": {
						"codeDepositCost": "723200",
						"executionCost": "infinite",
						"totalCost": "infinite"
					},
					"external": {
						"UNISWAP_V2_FACTORY_ADDRESS()": "2596",
						"WETH_ADDRESS()": "2507",
						"WETH_USD_PAIR_ADDRESS()": "2530",
						"getTokenUsdPrice(address)": "infinite",
						"getTokenWethPrice(address)": "infinite",
						"getWethUsdPrice()": "infinite"
					}
				},
				"methodIdentifiers": {
					"UNISWAP_V2_FACTORY_ADDRESS()": "884ec7a9",
					"WETH_ADDRESS()": "040141e5",
					"WETH_USD_PAIR_ADDRESS()": "0b017603",
					"getTokenUsdPrice(address)": "00593bcf",
					"getTokenWethPrice(address)": "7b49b49d",
					"getWethUsdPrice()": "6855e939"
				}
			},
			"storageLayout": {
				"storage": [
					{
						"astId": 139,
						"contract": "hopium/standalone/main/price-oracle.sol:PriceOracle",
						"label": "WETH_ADDRESS",
						"offset": 0,
						"slot": "0",
						"type": "t_address"
					},
					{
						"astId": 141,
						"contract": "hopium/standalone/main/price-oracle.sol:PriceOracle",
						"label": "WETH_USD_PAIR_ADDRESS",
						"offset": 0,
						"slot": "1",
						"type": "t_address"
					},
					{
						"astId": 143,
						"contract": "hopium/standalone/main/price-oracle.sol:PriceOracle",
						"label": "UNISWAP_V2_FACTORY_ADDRESS",
						"offset": 0,
						"slot": "2",
						"type": "t_address"
					}
				],
				"types": {
					"t_address": {
						"encoding": "inplace",
						"label": "address",
						"numberOfBytes": "20"
					}
				}
			},
			"userdoc": {
				"kind": "user",
				"methods": {
					"getTokenUsdPrice(address)": {
						"notice": "Returns USD price of 1 TOKEN (scaled to 1e18)"
					},
					"getTokenWethPrice(address)": {
						"notice": "Returns WETH per 1 QUOTE (scaled 1e18) for an arbitrary WETH-QUOTE pair."
					},
					"getWethUsdPrice()": {
						"notice": "Returns USD per 1 WETH (scaled 1e18) using the stored WETH/USD pair."
					}
				},
				"version": 1
			}
		}
	}
}