{
	"hopium/etf/main/etf-vault.sol": {
		"EtfVault": {
			"abi": [
				{
					"inputs": [
						{
							"internalType": "address",
							"name": "_directory",
							"type": "address"
						}
					],
					"stateMutability": "nonpayable",
					"type": "constructor"
				},
				{
					"inputs": [],
					"name": "AlreadyInitialized",
					"type": "error"
				},
				{
					"inputs": [],
					"name": "EthSendFailed",
					"type": "error"
				},
				{
					"inputs": [],
					"name": "ZeroAmount",
					"type": "error"
				},
				{
					"inputs": [],
					"name": "Directory",
					"outputs": [
						{
							"internalType": "contract IDirectory",
							"name": "",
							"type": "address"
						}
					],
					"stateMutability": "view",
					"type": "function"
				},
				{
					"inputs": [
						{
							"internalType": "address",
							"name": "_directory",
							"type": "address"
						}
					],
					"name": "changeDirectoryAddress",
					"outputs": [],
					"stateMutability": "nonpayable",
					"type": "function"
				},
				{
					"inputs": [
						{
							"internalType": "string",
							"name": "_key",
							"type": "string"
						}
					],
					"name": "fetchFromDirectory",
					"outputs": [
						{
							"internalType": "address",
							"name": "",
							"type": "address"
						}
					],
					"stateMutability": "view",
					"type": "function"
				},
				{
					"inputs": [
						{
							"internalType": "address",
							"name": "_directory",
							"type": "address"
						}
					],
					"name": "initialize",
					"outputs": [],
					"stateMutability": "nonpayable",
					"type": "function"
				},
				{
					"inputs": [],
					"name": "owner",
					"outputs": [
						{
							"internalType": "address",
							"name": "",
							"type": "address"
						}
					],
					"stateMutability": "view",
					"type": "function"
				},
				{
					"inputs": [
						{
							"internalType": "address",
							"name": "tokenAddress",
							"type": "address"
						},
						{
							"internalType": "address",
							"name": "toAddress",
							"type": "address"
						}
					],
					"name": "recoverAsset",
					"outputs": [],
					"stateMutability": "nonpayable",
					"type": "function"
				},
				{
					"inputs": [
						{
							"internalType": "address",
							"name": "tokenAddress",
							"type": "address"
						},
						{
							"internalType": "uint256",
							"name": "amount",
							"type": "uint256"
						},
						{
							"internalType": "address",
							"name": "receiver",
							"type": "address"
						}
					],
					"name": "redeem",
					"outputs": [],
					"stateMutability": "nonpayable",
					"type": "function"
				},
				{
					"stateMutability": "payable",
					"type": "receive"
				}
			],
			"devdoc": {
				"details": "Assumes ImEtfRouter -> ImDirectory for access control & Directory wiring.",
				"kind": "dev",
				"methods": {
					"constructor": {
						"details": "You can pass an existing Directory here; clones still call initialize()."
					}
				},
				"version": 1
			},
			"evm": {
				"assembly": "    /* \"hopium/etf/main/etf-vault.sol\":1427:2551  contract EtfVault is ImEtfRouter, TransferHelpers {... */\n  mstore(0x40, 0x80)\n    /* \"hopium/etf/main/etf-vault.sol\":1668:1726  constructor(address _directory) ImDirectory(_directory) {} */\n  callvalue\n  dup1\n  iszero\n  tag_1\n  jumpi\n  revert(0x00, 0x00)\ntag_1:\n  pop\n  mload(0x40)\n  sub(codesize, bytecodeSize)\n  dup1\n  bytecodeSize\n  dup4\n  codecopy\n  dup2\n  dup2\n  add\n  0x40\n  mstore\n  dup2\n  add\n  swap1\n  tag_2\n  swap2\n  swap1\n  tag_3\n  jump\t// in\ntag_2:\n    /* \"hopium/etf/main/etf-vault.sol\":1712:1722  _directory */\n  dup1\n    /* \"hopium/common/interface/imDirectory.sol\":412:437  _setDirectory(_directory) */\n  tag_7\n    /* \"hopium/common/interface/imDirectory.sol\":426:436  _directory */\n  dup2\n    /* \"hopium/common/interface/imDirectory.sol\":412:425  _setDirectory */\n  shl(0x20, tag_8)\n    /* \"hopium/common/interface/imDirectory.sol\":412:437  _setDirectory(_directory) */\n  0x20\n  shr\n  jump\t// in\ntag_7:\n    /* \"hopium/common/interface/imDirectory.sol\":370:464  constructor(address _directory) {... */\n  pop\n    /* \"hopium/etf/main/etf-vault.sol\":1668:1726  constructor(address _directory) ImDirectory(_directory) {} */\n  pop\n    /* \"hopium/etf/main/etf-vault.sol\":1427:2551  contract EtfVault is ImEtfRouter, TransferHelpers {... */\n  jump(tag_10)\n    /* \"hopium/common/interface/imDirectory.sol\":589:1050  function _setDirectory(address _directory) internal {... */\ntag_8:\n    /* \"hopium/common/interface/imDirectory.sol\":681:682  0 */\n  0x00\n    /* \"hopium/common/interface/imDirectory.sol\":659:683  _directory != address(0) */\n  0xffffffffffffffffffffffffffffffffffffffff\n  and\n    /* \"hopium/common/interface/imDirectory.sol\":659:669  _directory */\n  dup2\n    /* \"hopium/common/interface/imDirectory.sol\":659:683  _directory != address(0) */\n  0xffffffffffffffffffffffffffffffffffffffff\n  and\n  sub\n    /* \"hopium/common/interface/imDirectory.sol\":651:720  require(_directory != address(0), \"Directory cannot be zero address\") */\n  tag_12\n  jumpi\n  mload(0x40)\n  0x08c379a000000000000000000000000000000000000000000000000000000000\n  dup2\n  mstore\n  0x04\n  add\n  tag_13\n  swap1\n  tag_14\n  jump\t// in\ntag_13:\n  mload(0x40)\n  dup1\n  swap2\n  sub\n  swap1\n  revert\ntag_12:\n    /* \"hopium/common/interface/imDirectory.sol\":763:764  0 */\n  0x00\n    /* \"hopium/common/interface/imDirectory.sol\":738:748  _directory */\n  dup2\n    /* \"hopium/common/interface/imDirectory.sol\":738:760  _directory.code.length */\n  0xffffffffffffffffffffffffffffffffffffffff\n  and\n  extcodesize\n    /* \"hopium/common/interface/imDirectory.sol\":738:764  _directory.code.length > 0 */\n  gt\n    /* \"hopium/common/interface/imDirectory.sol\":730:797  require(_directory.code.length > 0, \"Directory must be a contract\") */\n  tag_15\n  jumpi\n  mload(0x40)\n  0x08c379a000000000000000000000000000000000000000000000000000000000\n  dup2\n  mstore\n  0x04\n  add\n  tag_16\n  swap1\n  tag_17\n  jump\t// in\ntag_16:\n  mload(0x40)\n  dup1\n  swap2\n  sub\n  swap1\n  revert\ntag_15:\n    /* \"hopium/common/interface/imDirectory.sol\":861:871  _directory */\n  dup1\n    /* \"hopium/common/interface/imDirectory.sol\":850:878  IDirectory(_directory).owner */\n  0xffffffffffffffffffffffffffffffffffffffff\n  and\n  0x8da5cb5b\n    /* \"hopium/common/interface/imDirectory.sol\":850:880  IDirectory(_directory).owner() */\n  mload(0x40)\n  dup2\n  0xffffffff\n  and\n  0xe0\n  shl\n  dup2\n  mstore\n  0x04\n  add\n  0x20\n  mload(0x40)\n  dup1\n  dup4\n  sub\n  dup2\n  dup7\n  gas\n  staticcall\n  swap3\n  pop\n  pop\n  pop\n  dup1\n  iszero\n  tag_18\n  jumpi\n  pop\n  mload(0x40)\n  returndatasize\n  not(0x1f)\n  0x1f\n  dup3\n  add\n  and\n  dup3\n  add\n  dup1\n  0x40\n  mstore\n  pop\n  dup2\n  add\n  swap1\n  tag_19\n  swap2\n  swap1\n  tag_3\n  jump\t// in\ntag_19:\n  0x01\ntag_18:\n    /* \"hopium/common/interface/imDirectory.sol\":846:1044  try IDirectory(_directory).owner() returns (address) {... */\n  tag_20\n  jumpi\n    /* \"hopium/common/interface/imDirectory.sol\":979:1033  revert(\"Directory address does not implement owner()\") */\n  mload(0x40)\n  0x08c379a000000000000000000000000000000000000000000000000000000000\n  dup2\n  mstore\n  0x04\n  add\n  tag_24\n  swap1\n  tag_25\n  jump\t// in\ntag_24:\n  mload(0x40)\n  dup1\n  swap2\n  sub\n  swap1\n  revert\n    /* \"hopium/common/interface/imDirectory.sol\":846:1044  try IDirectory(_directory).owner() returns (address) {... */\ntag_20:\n    /* \"hopium/common/interface/imDirectory.sol\":936:946  _directory */\n  dup2\n    /* \"hopium/common/interface/imDirectory.sol\":913:922  Directory */\n  0x00\n  0x00\n    /* \"hopium/common/interface/imDirectory.sol\":913:947  Directory = IDirectory(_directory) */\n  0x0100\n  exp\n  dup2\n  sload\n  dup2\n  0xffffffffffffffffffffffffffffffffffffffff\n  mul\n  not\n  and\n  swap1\n  dup4\n  0xffffffffffffffffffffffffffffffffffffffff\n  and\n  mul\n  or\n  swap1\n  sstore\n  pop\n    /* \"hopium/common/interface/imDirectory.sol\":881:958  returns (address) {... */\n  pop\n    /* \"hopium/common/interface/imDirectory.sol\":589:1050  function _setDirectory(address _directory) internal {... */\n  pop\n  jump\t// out\n    /* \"#utility.yul\":88:205   */\ntag_28:\n    /* \"#utility.yul\":197:198   */\n  0x00\n    /* \"#utility.yul\":194:195   */\n  0x00\n    /* \"#utility.yul\":187:199   */\n  revert\n    /* \"#utility.yul\":334:460   */\ntag_30:\n    /* \"#utility.yul\":371:378   */\n  0x00\n    /* \"#utility.yul\":411:453   */\n  0xffffffffffffffffffffffffffffffffffffffff\n    /* \"#utility.yul\":404:409   */\n  dup3\n    /* \"#utility.yul\":400:454   */\n  and\n    /* \"#utility.yul\":389:454   */\n  swap1\n  pop\n    /* \"#utility.yul\":334:460   */\n  swap2\n  swap1\n  pop\n  jump\t// out\n    /* \"#utility.yul\":466:562   */\ntag_31:\n    /* \"#utility.yul\":503:510   */\n  0x00\n    /* \"#utility.yul\":532:556   */\n  tag_47\n    /* \"#utility.yul\":550:555   */\n  dup3\n    /* \"#utility.yul\":532:556   */\n  tag_30\n  jump\t// in\ntag_47:\n    /* \"#utility.yul\":521:556   */\n  swap1\n  pop\n    /* \"#utility.yul\":466:562   */\n  swap2\n  swap1\n  pop\n  jump\t// out\n    /* \"#utility.yul\":568:690   */\ntag_32:\n    /* \"#utility.yul\":641:665   */\n  tag_49\n    /* \"#utility.yul\":659:664   */\n  dup2\n    /* \"#utility.yul\":641:665   */\n  tag_31\n  jump\t// in\ntag_49:\n    /* \"#utility.yul\":634:639   */\n  dup2\n    /* \"#utility.yul\":631:666   */\n  eq\n    /* \"#utility.yul\":621:684   */\n  tag_50\n  jumpi\n    /* \"#utility.yul\":680:681   */\n  0x00\n    /* \"#utility.yul\":677:678   */\n  0x00\n    /* \"#utility.yul\":670:682   */\n  revert\n    /* \"#utility.yul\":621:684   */\ntag_50:\n    /* \"#utility.yul\":568:690   */\n  pop\n  jump\t// out\n    /* \"#utility.yul\":696:839   */\ntag_33:\n    /* \"#utility.yul\":753:758   */\n  0x00\n    /* \"#utility.yul\":784:790   */\n  dup2\n    /* \"#utility.yul\":778:791   */\n  mload\n    /* \"#utility.yul\":769:791   */\n  swap1\n  pop\n    /* \"#utility.yul\":800:833   */\n  tag_52\n    /* \"#utility.yul\":827:832   */\n  dup2\n    /* \"#utility.yul\":800:833   */\n  tag_32\n  jump\t// in\ntag_52:\n    /* \"#utility.yul\":696:839   */\n  swap3\n  swap2\n  pop\n  pop\n  jump\t// out\n    /* \"#utility.yul\":845:1196   */\ntag_3:\n    /* \"#utility.yul\":915:921   */\n  0x00\n    /* \"#utility.yul\":964:966   */\n  0x20\n    /* \"#utility.yul\":952:961   */\n  dup3\n    /* \"#utility.yul\":943:950   */\n  dup5\n    /* \"#utility.yul\":939:962   */\n  sub\n    /* \"#utility.yul\":935:967   */\n  slt\n    /* \"#utility.yul\":932:1051   */\n  iszero\n  tag_54\n  jumpi\n    /* \"#utility.yul\":970:1049   */\n  tag_55\n  tag_28\n  jump\t// in\ntag_55:\n    /* \"#utility.yul\":932:1051   */\ntag_54:\n    /* \"#utility.yul\":1090:1091   */\n  0x00\n    /* \"#utility.yul\":1115:1179   */\n  tag_56\n    /* \"#utility.yul\":1171:1178   */\n  dup5\n    /* \"#utility.yul\":1162:1168   */\n  dup3\n    /* \"#utility.yul\":1151:1160   */\n  dup6\n    /* \"#utility.yul\":1147:1169   */\n  add\n    /* \"#utility.yul\":1115:1179   */\n  tag_33\n  jump\t// in\ntag_56:\n    /* \"#utility.yul\":1105:1179   */\n  swap2\n  pop\n    /* \"#utility.yul\":1061:1189   */\n  pop\n    /* \"#utility.yul\":845:1196   */\n  swap3\n  swap2\n  pop\n  pop\n  jump\t// out\n    /* \"#utility.yul\":1202:1371   */\ntag_34:\n    /* \"#utility.yul\":1286:1297   */\n  0x00\n    /* \"#utility.yul\":1320:1326   */\n  dup3\n    /* \"#utility.yul\":1315:1318   */\n  dup3\n    /* \"#utility.yul\":1308:1327   */\n  mstore\n    /* \"#utility.yul\":1360:1364   */\n  0x20\n    /* \"#utility.yul\":1355:1358   */\n  dup3\n    /* \"#utility.yul\":1351:1365   */\n  add\n    /* \"#utility.yul\":1336:1365   */\n  swap1\n  pop\n    /* \"#utility.yul\":1202:1371   */\n  swap3\n  swap2\n  pop\n  pop\n  jump\t// out\n    /* \"#utility.yul\":1377:1559   */\ntag_35:\n    /* \"#utility.yul\":1517:1551   */\n  0x4469726563746f72792063616e6e6f74206265207a65726f2061646472657373\n    /* \"#utility.yul\":1513:1514   */\n  0x00\n    /* \"#utility.yul\":1505:1511   */\n  dup3\n    /* \"#utility.yul\":1501:1515   */\n  add\n    /* \"#utility.yul\":1494:1552   */\n  mstore\n    /* \"#utility.yul\":1377:1559   */\n  pop\n  jump\t// out\n    /* \"#utility.yul\":1565:1931   */\ntag_36:\n    /* \"#utility.yul\":1707:1710   */\n  0x00\n    /* \"#utility.yul\":1728:1795   */\n  tag_60\n    /* \"#utility.yul\":1792:1794   */\n  0x20\n    /* \"#utility.yul\":1787:1790   */\n  dup4\n    /* \"#utility.yul\":1728:1795   */\n  tag_34\n  jump\t// in\ntag_60:\n    /* \"#utility.yul\":1721:1795   */\n  swap2\n  pop\n    /* \"#utility.yul\":1804:1897   */\n  tag_61\n    /* \"#utility.yul\":1893:1896   */\n  dup3\n    /* \"#utility.yul\":1804:1897   */\n  tag_35\n  jump\t// in\ntag_61:\n    /* \"#utility.yul\":1922:1924   */\n  0x20\n    /* \"#utility.yul\":1917:1920   */\n  dup3\n    /* \"#utility.yul\":1913:1925   */\n  add\n    /* \"#utility.yul\":1906:1925   */\n  swap1\n  pop\n    /* \"#utility.yul\":1565:1931   */\n  swap2\n  swap1\n  pop\n  jump\t// out\n    /* \"#utility.yul\":1937:2356   */\ntag_14:\n    /* \"#utility.yul\":2103:2107   */\n  0x00\n    /* \"#utility.yul\":2141:2143   */\n  0x20\n    /* \"#utility.yul\":2130:2139   */\n  dup3\n    /* \"#utility.yul\":2126:2144   */\n  add\n    /* \"#utility.yul\":2118:2144   */\n  swap1\n  pop\n    /* \"#utility.yul\":2190:2199   */\n  dup2\n    /* \"#utility.yul\":2184:2188   */\n  dup2\n    /* \"#utility.yul\":2180:2200   */\n  sub\n    /* \"#utility.yul\":2176:2177   */\n  0x00\n    /* \"#utility.yul\":2165:2174   */\n  dup4\n    /* \"#utility.yul\":2161:2178   */\n  add\n    /* \"#utility.yul\":2154:2201   */\n  mstore\n    /* \"#utility.yul\":2218:2349   */\n  tag_63\n    /* \"#utility.yul\":2344:2348   */\n  dup2\n    /* \"#utility.yul\":2218:2349   */\n  tag_36\n  jump\t// in\ntag_63:\n    /* \"#utility.yul\":2210:2349   */\n  swap1\n  pop\n    /* \"#utility.yul\":1937:2356   */\n  swap2\n  swap1\n  pop\n  jump\t// out\n    /* \"#utility.yul\":2362:2540   */\ntag_37:\n    /* \"#utility.yul\":2502:2532   */\n  0x4469726563746f7279206d757374206265206120636f6e747261637400000000\n    /* \"#utility.yul\":2498:2499   */\n  0x00\n    /* \"#utility.yul\":2490:2496   */\n  dup3\n    /* \"#utility.yul\":2486:2500   */\n  add\n    /* \"#utility.yul\":2479:2533   */\n  mstore\n    /* \"#utility.yul\":2362:2540   */\n  pop\n  jump\t// out\n    /* \"#utility.yul\":2546:2912   */\ntag_38:\n    /* \"#utility.yul\":2688:2691   */\n  0x00\n    /* \"#utility.yul\":2709:2776   */\n  tag_66\n    /* \"#utility.yul\":2773:2775   */\n  0x1c\n    /* \"#utility.yul\":2768:2771   */\n  dup4\n    /* \"#utility.yul\":2709:2776   */\n  tag_34\n  jump\t// in\ntag_66:\n    /* \"#utility.yul\":2702:2776   */\n  swap2\n  pop\n    /* \"#utility.yul\":2785:2878   */\n  tag_67\n    /* \"#utility.yul\":2874:2877   */\n  dup3\n    /* \"#utility.yul\":2785:2878   */\n  tag_37\n  jump\t// in\ntag_67:\n    /* \"#utility.yul\":2903:2905   */\n  0x20\n    /* \"#utility.yul\":2898:2901   */\n  dup3\n    /* \"#utility.yul\":2894:2906   */\n  add\n    /* \"#utility.yul\":2887:2906   */\n  swap1\n  pop\n    /* \"#utility.yul\":2546:2912   */\n  swap2\n  swap1\n  pop\n  jump\t// out\n    /* \"#utility.yul\":2918:3337   */\ntag_17:\n    /* \"#utility.yul\":3084:3088   */\n  0x00\n    /* \"#utility.yul\":3122:3124   */\n  0x20\n    /* \"#utility.yul\":3111:3120   */\n  dup3\n    /* \"#utility.yul\":3107:3125   */\n  add\n    /* \"#utility.yul\":3099:3125   */\n  swap1\n  pop\n    /* \"#utility.yul\":3171:3180   */\n  dup2\n    /* \"#utility.yul\":3165:3169   */\n  dup2\n    /* \"#utility.yul\":3161:3181   */\n  sub\n    /* \"#utility.yul\":3157:3158   */\n  0x00\n    /* \"#utility.yul\":3146:3155   */\n  dup4\n    /* \"#utility.yul\":3142:3159   */\n  add\n    /* \"#utility.yul\":3135:3182   */\n  mstore\n    /* \"#utility.yul\":3199:3330   */\n  tag_69\n    /* \"#utility.yul\":3325:3329   */\n  dup2\n    /* \"#utility.yul\":3199:3330   */\n  tag_38\n  jump\t// in\ntag_69:\n    /* \"#utility.yul\":3191:3330   */\n  swap1\n  pop\n    /* \"#utility.yul\":2918:3337   */\n  swap2\n  swap1\n  pop\n  jump\t// out\n    /* \"#utility.yul\":3343:3574   */\ntag_39:\n    /* \"#utility.yul\":3483:3517   */\n  0x4469726563746f7279206164647265737320646f6573206e6f7420696d706c65\n    /* \"#utility.yul\":3479:3480   */\n  0x00\n    /* \"#utility.yul\":3471:3477   */\n  dup3\n    /* \"#utility.yul\":3467:3481   */\n  add\n    /* \"#utility.yul\":3460:3518   */\n  mstore\n    /* \"#utility.yul\":3552:3566   */\n  0x6d656e74206f776e657228290000000000000000000000000000000000000000\n    /* \"#utility.yul\":3547:3549   */\n  0x20\n    /* \"#utility.yul\":3539:3545   */\n  dup3\n    /* \"#utility.yul\":3535:3550   */\n  add\n    /* \"#utility.yul\":3528:3567   */\n  mstore\n    /* \"#utility.yul\":3343:3574   */\n  pop\n  jump\t// out\n    /* \"#utility.yul\":3580:3946   */\ntag_40:\n    /* \"#utility.yul\":3722:3725   */\n  0x00\n    /* \"#utility.yul\":3743:3810   */\n  tag_72\n    /* \"#utility.yul\":3807:3809   */\n  0x2c\n    /* \"#utility.yul\":3802:3805   */\n  dup4\n    /* \"#utility.yul\":3743:3810   */\n  tag_34\n  jump\t// in\ntag_72:\n    /* \"#utility.yul\":3736:3810   */\n  swap2\n  pop\n    /* \"#utility.yul\":3819:3912   */\n  tag_73\n    /* \"#utility.yul\":3908:3911   */\n  dup3\n    /* \"#utility.yul\":3819:3912   */\n  tag_39\n  jump\t// in\ntag_73:\n    /* \"#utility.yul\":3937:3939   */\n  0x40\n    /* \"#utility.yul\":3932:3935   */\n  dup3\n    /* \"#utility.yul\":3928:3940   */\n  add\n    /* \"#utility.yul\":3921:3940   */\n  swap1\n  pop\n    /* \"#utility.yul\":3580:3946   */\n  swap2\n  swap1\n  pop\n  jump\t// out\n    /* \"#utility.yul\":3952:4371   */\ntag_25:\n    /* \"#utility.yul\":4118:4122   */\n  0x00\n    /* \"#utility.yul\":4156:4158   */\n  0x20\n    /* \"#utility.yul\":4145:4154   */\n  dup3\n    /* \"#utility.yul\":4141:4159   */\n  add\n    /* \"#utility.yul\":4133:4159   */\n  swap1\n  pop\n    /* \"#utility.yul\":4205:4214   */\n  dup2\n    /* \"#utility.yul\":4199:4203   */\n  dup2\n    /* \"#utility.yul\":4195:4215   */\n  sub\n    /* \"#utility.yul\":4191:4192   */\n  0x00\n    /* \"#utility.yul\":4180:4189   */\n  dup4\n    /* \"#utility.yul\":4176:4193   */\n  add\n    /* \"#utility.yul\":4169:4216   */\n  mstore\n    /* \"#utility.yul\":4233:4364   */\n  tag_75\n    /* \"#utility.yul\":4359:4363   */\n  dup2\n    /* \"#utility.yul\":4233:4364   */\n  tag_40\n  jump\t// in\ntag_75:\n    /* \"#utility.yul\":4225:4364   */\n  swap1\n  pop\n    /* \"#utility.yul\":3952:4371   */\n  swap2\n  swap1\n  pop\n  jump\t// out\n    /* \"hopium/etf/main/etf-vault.sol\":1427:2551  contract EtfVault is ImEtfRouter, TransferHelpers {... */\ntag_10:\n  dataSize(sub_0)\n  dup1\n  dataOffset(sub_0)\n  0x00\n  codecopy\n  0x00\n  return\nstop\n\nsub_0: assembly {\n        /* \"hopium/etf/main/etf-vault.sol\":1427:2551  contract EtfVault is ImEtfRouter, TransferHelpers {... */\n      mstore(0x40, 0x80)\n      jumpi(tag_1, lt(calldatasize, 0x04))\n      shr(0xe0, calldataload(0x00))\n      dup1\n      0x658a847a\n      gt\n      tag_10\n      jumpi\n      dup1\n      0x658a847a\n      eq\n      tag_6\n      jumpi\n      dup1\n      0x8da5cb5b\n      eq\n      tag_7\n      jumpi\n      dup1\n      0xba4c7be1\n      eq\n      tag_8\n      jumpi\n      dup1\n      0xc4d66de8\n      eq\n      tag_9\n      jumpi\n      jump(tag_2)\n    tag_10:\n      dup1\n      0x09053ac4\n      eq\n      tag_3\n      jumpi\n      dup1\n      0x27262618\n      eq\n      tag_4\n      jumpi\n      dup1\n      0x5c833bfd\n      eq\n      tag_5\n      jumpi\n      jump(tag_2)\n    tag_1:\n      jumpi(tag_2, calldatasize)\n      stop\n    tag_2:\n      revert(0x00, 0x00)\n        /* \"hopium/etf/main/etf-vault.sol\":2377:2514  function recoverAsset(address tokenAddress, address toAddress) external onlyOwner {... */\n    tag_3:\n      callvalue\n      dup1\n      iszero\n      tag_13\n      jumpi\n      revert(0x00, 0x00)\n    tag_13:\n      pop\n      tag_14\n      0x04\n      dup1\n      calldatasize\n      sub\n      dup2\n      add\n      swap1\n      tag_15\n      swap2\n      swap1\n      tag_16\n      jump\t// in\n    tag_15:\n      tag_17\n      jump\t// in\n    tag_14:\n      stop\n        /* \"hopium/common/interface/imDirectory.sol\":1272:1408  function fetchFromDirectory(string memory _key) public view returns (address) {... */\n    tag_4:\n      callvalue\n      dup1\n      iszero\n      tag_18\n      jumpi\n      revert(0x00, 0x00)\n    tag_18:\n      pop\n      tag_19\n      0x04\n      dup1\n      calldatasize\n      sub\n      dup2\n      add\n      swap1\n      tag_20\n      swap2\n      swap1\n      tag_21\n      jump\t// in\n    tag_20:\n      tag_22\n      jump\t// in\n    tag_19:\n      mload(0x40)\n      tag_23\n      swap2\n      swap1\n      tag_24\n      jump\t// in\n    tag_23:\n      mload(0x40)\n      dup1\n      swap2\n      sub\n      swap1\n      return\n        /* \"hopium/etf/main/etf-vault.sol\":2147:2301  function redeem(address tokenAddress, uint256 amount, address receiver) external onlyEtfRouter {... */\n    tag_5:\n      callvalue\n      dup1\n      iszero\n      tag_25\n      jumpi\n      revert(0x00, 0x00)\n    tag_25:\n      pop\n      tag_26\n      0x04\n      dup1\n      calldatasize\n      sub\n      dup2\n      add\n      swap1\n      tag_27\n      swap2\n      swap1\n      tag_28\n      jump\t// in\n    tag_27:\n      tag_29\n      jump\t// in\n    tag_26:\n      stop\n        /* \"hopium/common/interface/imDirectory.sol\":336:363  IDirectory public Directory */\n    tag_6:\n      callvalue\n      dup1\n      iszero\n      tag_30\n      jumpi\n      revert(0x00, 0x00)\n    tag_30:\n      pop\n      tag_31\n      tag_32\n      jump\t// in\n    tag_31:\n      mload(0x40)\n      tag_33\n      swap2\n      swap1\n      tag_34\n      jump\t// in\n    tag_33:\n      mload(0x40)\n      dup1\n      swap2\n      sub\n      swap1\n      return\n        /* \"hopium/common/interface/imDirectory.sol\":1178:1266  function owner() public view returns (address) {... */\n    tag_7:\n      callvalue\n      dup1\n      iszero\n      tag_35\n      jumpi\n      revert(0x00, 0x00)\n    tag_35:\n      pop\n      tag_36\n      tag_37\n      jump\t// in\n    tag_36:\n      mload(0x40)\n      tag_38\n      swap2\n      swap1\n      tag_24\n      jump\t// in\n    tag_38:\n      mload(0x40)\n      dup1\n      swap2\n      sub\n      swap1\n      return\n        /* \"hopium/common/interface/imDirectory.sol\":470:583  function changeDirectoryAddress(address _directory) external onlyOwner {... */\n    tag_8:\n      callvalue\n      dup1\n      iszero\n      tag_39\n      jumpi\n      revert(0x00, 0x00)\n    tag_39:\n      pop\n      tag_40\n      0x04\n      dup1\n      calldatasize\n      sub\n      dup2\n      add\n      swap1\n      tag_41\n      swap2\n      swap1\n      tag_42\n      jump\t// in\n    tag_41:\n      tag_43\n      jump\t// in\n    tag_40:\n      stop\n        /* \"hopium/etf/main/etf-vault.sol\":1849:2060  function initialize(address _directory) external {... */\n    tag_9:\n      callvalue\n      dup1\n      iszero\n      tag_44\n      jumpi\n      revert(0x00, 0x00)\n    tag_44:\n      pop\n      tag_45\n      0x04\n      dup1\n      calldatasize\n      sub\n      dup2\n      add\n      swap1\n      tag_46\n      swap2\n      swap1\n      tag_42\n      jump\t// in\n    tag_46:\n      tag_47\n      jump\t// in\n    tag_45:\n      stop\n        /* \"hopium/etf/main/etf-vault.sol\":2377:2514  function recoverAsset(address tokenAddress, address toAddress) external onlyOwner {... */\n    tag_17:\n        /* \"hopium/common/interface/imDirectory.sol\":1109:1118  Directory */\n      0x00\n      0x00\n      swap1\n      sload\n      swap1\n      0x0100\n      exp\n      swap1\n      div\n      0xffffffffffffffffffffffffffffffffffffffff\n      and\n        /* \"hopium/common/interface/imDirectory.sol\":1109:1124  Directory.owner */\n      0xffffffffffffffffffffffffffffffffffffffff\n      and\n      0x8da5cb5b\n        /* \"hopium/common/interface/imDirectory.sol\":1109:1126  Directory.owner() */\n      mload(0x40)\n      dup2\n      0xffffffff\n      and\n      0xe0\n      shl\n      dup2\n      mstore\n      0x04\n      add\n      0x20\n      mload(0x40)\n      dup1\n      dup4\n      sub\n      dup2\n      dup7\n      gas\n      staticcall\n      iszero\n      dup1\n      iszero\n      tag_50\n      jumpi\n      returndatacopy(0x00, 0x00, returndatasize)\n      revert(0x00, returndatasize)\n    tag_50:\n      pop\n      pop\n      pop\n      pop\n      mload(0x40)\n      returndatasize\n      not(0x1f)\n      0x1f\n      dup3\n      add\n      and\n      dup3\n      add\n      dup1\n      0x40\n      mstore\n      pop\n      dup2\n      add\n      swap1\n      tag_51\n      swap2\n      swap1\n      tag_52\n      jump\t// in\n    tag_51:\n        /* \"hopium/common/interface/imDirectory.sol\":1095:1126  msg.sender == Directory.owner() */\n      0xffffffffffffffffffffffffffffffffffffffff\n      and\n        /* \"hopium/common/interface/imDirectory.sol\":1095:1105  msg.sender */\n      caller\n        /* \"hopium/common/interface/imDirectory.sol\":1095:1126  msg.sender == Directory.owner() */\n      0xffffffffffffffffffffffffffffffffffffffff\n      and\n      eq\n        /* \"hopium/common/interface/imDirectory.sol\":1087:1154  require(msg.sender == Directory.owner(), \"Caller is not the owner\") */\n      tag_53\n      jumpi\n      mload(0x40)\n      0x08c379a000000000000000000000000000000000000000000000000000000000\n      dup2\n      mstore\n      0x04\n      add\n      tag_54\n      swap1\n      tag_55\n      jump\t// in\n    tag_54:\n      mload(0x40)\n      dup1\n      swap2\n      sub\n      swap1\n      revert\n    tag_53:\n        /* \"hopium/etf/main/etf-vault.sol\":2469:2507  _recoverAsset(tokenAddress, toAddress) */\n      tag_57\n        /* \"hopium/etf/main/etf-vault.sol\":2483:2495  tokenAddress */\n      dup3\n        /* \"hopium/etf/main/etf-vault.sol\":2497:2506  toAddress */\n      dup3\n        /* \"hopium/etf/main/etf-vault.sol\":2469:2482  _recoverAsset */\n      tag_58\n        /* \"hopium/etf/main/etf-vault.sol\":2469:2507  _recoverAsset(tokenAddress, toAddress) */\n      jump\t// in\n    tag_57:\n        /* \"hopium/etf/main/etf-vault.sol\":2377:2514  function recoverAsset(address tokenAddress, address toAddress) external onlyOwner {... */\n      pop\n      pop\n      jump\t// out\n        /* \"hopium/common/interface/imDirectory.sol\":1272:1408  function fetchFromDirectory(string memory _key) public view returns (address) {... */\n    tag_22:\n        /* \"hopium/common/interface/imDirectory.sol\":1341:1348  address */\n      0x00\n        /* \"hopium/common/interface/imDirectory.sol\":1367:1376  Directory */\n      0x00\n      0x00\n      swap1\n      sload\n      swap1\n      0x0100\n      exp\n      swap1\n      div\n      0xffffffffffffffffffffffffffffffffffffffff\n      and\n        /* \"hopium/common/interface/imDirectory.sol\":1367:1395  Directory.fetchFromDirectory */\n      0xffffffffffffffffffffffffffffffffffffffff\n      and\n      0x27262618\n        /* \"hopium/common/interface/imDirectory.sol\":1396:1400  _key */\n      dup4\n        /* \"hopium/common/interface/imDirectory.sol\":1367:1401  Directory.fetchFromDirectory(_key) */\n      mload(0x40)\n      dup3\n      0xffffffff\n      and\n      0xe0\n      shl\n      dup2\n      mstore\n      0x04\n      add\n      tag_60\n      swap2\n      swap1\n      tag_61\n      jump\t// in\n    tag_60:\n      0x20\n      mload(0x40)\n      dup1\n      dup4\n      sub\n      dup2\n      dup7\n      gas\n      staticcall\n      iszero\n      dup1\n      iszero\n      tag_63\n      jumpi\n      returndatacopy(0x00, 0x00, returndatasize)\n      revert(0x00, returndatasize)\n    tag_63:\n      pop\n      pop\n      pop\n      pop\n      mload(0x40)\n      returndatasize\n      not(0x1f)\n      0x1f\n      dup3\n      add\n      and\n      dup3\n      add\n      dup1\n      0x40\n      mstore\n      pop\n      dup2\n      add\n      swap1\n      tag_64\n      swap2\n      swap1\n      tag_52\n      jump\t// in\n    tag_64:\n        /* \"hopium/common/interface/imDirectory.sol\":1360:1401  return Directory.fetchFromDirectory(_key) */\n      swap1\n      pop\n        /* \"hopium/common/interface/imDirectory.sol\":1272:1408  function fetchFromDirectory(string memory _key) public view returns (address) {... */\n      swap2\n      swap1\n      pop\n      jump\t// out\n        /* \"hopium/etf/main/etf-vault.sol\":2147:2301  function redeem(address tokenAddress, uint256 amount, address receiver) external onlyEtfRouter {... */\n    tag_29:\n        /* \"hopium/etf/interface/imEtfRouter.sol\":462:494  fetchFromDirectory(\"etf-router\") */\n      tag_66\n      mload(0x40)\n      dup1\n      0x40\n      add\n      0x40\n      mstore\n      dup1\n      0x0a\n      dup2\n      mstore\n      0x20\n      add\n      0x6574662d726f7574657200000000000000000000000000000000000000000000\n      dup2\n      mstore\n      pop\n        /* \"hopium/etf/interface/imEtfRouter.sol\":462:480  fetchFromDirectory */\n      tag_22\n        /* \"hopium/etf/interface/imEtfRouter.sol\":462:494  fetchFromDirectory(\"etf-router\") */\n      jump\t// in\n    tag_66:\n        /* \"hopium/etf/interface/imEtfRouter.sol\":448:494  msg.sender == fetchFromDirectory(\"etf-router\") */\n      0xffffffffffffffffffffffffffffffffffffffff\n      and\n        /* \"hopium/etf/interface/imEtfRouter.sol\":448:458  msg.sender */\n      caller\n        /* \"hopium/etf/interface/imEtfRouter.sol\":448:494  msg.sender == fetchFromDirectory(\"etf-router\") */\n      0xffffffffffffffffffffffffffffffffffffffff\n      and\n      eq\n        /* \"hopium/etf/interface/imEtfRouter.sol\":440:527  require(msg.sender == fetchFromDirectory(\"etf-router\"), \"msg.sender is not etf router\") */\n      tag_67\n      jumpi\n      mload(0x40)\n      0x08c379a000000000000000000000000000000000000000000000000000000000\n      dup2\n      mstore\n      0x04\n      add\n      tag_68\n      swap1\n      tag_69\n      jump\t// in\n    tag_68:\n      mload(0x40)\n      dup1\n      swap2\n      sub\n      swap1\n      revert\n    tag_67:\n        /* \"hopium/etf/main/etf-vault.sol\":2252:2294  _sendToken(tokenAddress, receiver, amount) */\n      tag_71\n        /* \"hopium/etf/main/etf-vault.sol\":2263:2275  tokenAddress */\n      dup4\n        /* \"hopium/etf/main/etf-vault.sol\":2277:2285  receiver */\n      dup3\n        /* \"hopium/etf/main/etf-vault.sol\":2287:2293  amount */\n      dup5\n        /* \"hopium/etf/main/etf-vault.sol\":2252:2262  _sendToken */\n      tag_72\n        /* \"hopium/etf/main/etf-vault.sol\":2252:2294  _sendToken(tokenAddress, receiver, amount) */\n      jump\t// in\n    tag_71:\n        /* \"hopium/etf/main/etf-vault.sol\":2147:2301  function redeem(address tokenAddress, uint256 amount, address receiver) external onlyEtfRouter {... */\n      pop\n      pop\n      pop\n      jump\t// out\n        /* \"hopium/common/interface/imDirectory.sol\":336:363  IDirectory public Directory */\n    tag_32:\n      0x00\n      0x00\n      swap1\n      sload\n      swap1\n      0x0100\n      exp\n      swap1\n      div\n      0xffffffffffffffffffffffffffffffffffffffff\n      and\n      dup2\n      jump\t// out\n        /* \"hopium/common/interface/imDirectory.sol\":1178:1266  function owner() public view returns (address) {... */\n    tag_37:\n        /* \"hopium/common/interface/imDirectory.sol\":1216:1223  address */\n      0x00\n        /* \"hopium/common/interface/imDirectory.sol\":1242:1251  Directory */\n      0x00\n      0x00\n      swap1\n      sload\n      swap1\n      0x0100\n      exp\n      swap1\n      div\n      0xffffffffffffffffffffffffffffffffffffffff\n      and\n        /* \"hopium/common/interface/imDirectory.sol\":1242:1257  Directory.owner */\n      0xffffffffffffffffffffffffffffffffffffffff\n      and\n      0x8da5cb5b\n        /* \"hopium/common/interface/imDirectory.sol\":1242:1259  Directory.owner() */\n      mload(0x40)\n      dup2\n      0xffffffff\n      and\n      0xe0\n      shl\n      dup2\n      mstore\n      0x04\n      add\n      0x20\n      mload(0x40)\n      dup1\n      dup4\n      sub\n      dup2\n      dup7\n      gas\n      staticcall\n      iszero\n      dup1\n      iszero\n      tag_75\n      jumpi\n      returndatacopy(0x00, 0x00, returndatasize)\n      revert(0x00, returndatasize)\n    tag_75:\n      pop\n      pop\n      pop\n      pop\n      mload(0x40)\n      returndatasize\n      not(0x1f)\n      0x1f\n      dup3\n      add\n      and\n      dup3\n      add\n      dup1\n      0x40\n      mstore\n      pop\n      dup2\n      add\n      swap1\n      tag_76\n      swap2\n      swap1\n      tag_52\n      jump\t// in\n    tag_76:\n        /* \"hopium/common/interface/imDirectory.sol\":1235:1259  return Directory.owner() */\n      swap1\n      pop\n        /* \"hopium/common/interface/imDirectory.sol\":1178:1266  function owner() public view returns (address) {... */\n      swap1\n      jump\t// out\n        /* \"hopium/common/interface/imDirectory.sol\":470:583  function changeDirectoryAddress(address _directory) external onlyOwner {... */\n    tag_43:\n        /* \"hopium/common/interface/imDirectory.sol\":1109:1118  Directory */\n      0x00\n      0x00\n      swap1\n      sload\n      swap1\n      0x0100\n      exp\n      swap1\n      div\n      0xffffffffffffffffffffffffffffffffffffffff\n      and\n        /* \"hopium/common/interface/imDirectory.sol\":1109:1124  Directory.owner */\n      0xffffffffffffffffffffffffffffffffffffffff\n      and\n      0x8da5cb5b\n        /* \"hopium/common/interface/imDirectory.sol\":1109:1126  Directory.owner() */\n      mload(0x40)\n      dup2\n      0xffffffff\n      and\n      0xe0\n      shl\n      dup2\n      mstore\n      0x04\n      add\n      0x20\n      mload(0x40)\n      dup1\n      dup4\n      sub\n      dup2\n      dup7\n      gas\n      staticcall\n      iszero\n      dup1\n      iszero\n      tag_79\n      jumpi\n      returndatacopy(0x00, 0x00, returndatasize)\n      revert(0x00, returndatasize)\n    tag_79:\n      pop\n      pop\n      pop\n      pop\n      mload(0x40)\n      returndatasize\n      not(0x1f)\n      0x1f\n      dup3\n      add\n      and\n      dup3\n      add\n      dup1\n      0x40\n      mstore\n      pop\n      dup2\n      add\n      swap1\n      tag_80\n      swap2\n      swap1\n      tag_52\n      jump\t// in\n    tag_80:\n        /* \"hopium/common/interface/imDirectory.sol\":1095:1126  msg.sender == Directory.owner() */\n      0xffffffffffffffffffffffffffffffffffffffff\n      and\n        /* \"hopium/common/interface/imDirectory.sol\":1095:1105  msg.sender */\n      caller\n        /* \"hopium/common/interface/imDirectory.sol\":1095:1126  msg.sender == Directory.owner() */\n      0xffffffffffffffffffffffffffffffffffffffff\n      and\n      eq\n        /* \"hopium/common/interface/imDirectory.sol\":1087:1154  require(msg.sender == Directory.owner(), \"Caller is not the owner\") */\n      tag_81\n      jumpi\n      mload(0x40)\n      0x08c379a000000000000000000000000000000000000000000000000000000000\n      dup2\n      mstore\n      0x04\n      add\n      tag_82\n      swap1\n      tag_55\n      jump\t// in\n    tag_82:\n      mload(0x40)\n      dup1\n      swap2\n      sub\n      swap1\n      revert\n    tag_81:\n        /* \"hopium/common/interface/imDirectory.sol\":551:576  _setDirectory(_directory) */\n      tag_84\n        /* \"hopium/common/interface/imDirectory.sol\":565:575  _directory */\n      dup2\n        /* \"hopium/common/interface/imDirectory.sol\":551:564  _setDirectory */\n      tag_85\n        /* \"hopium/common/interface/imDirectory.sol\":551:576  _setDirectory(_directory) */\n      jump\t// in\n    tag_84:\n        /* \"hopium/common/interface/imDirectory.sol\":470:583  function changeDirectoryAddress(address _directory) external onlyOwner {... */\n      pop\n      jump\t// out\n        /* \"hopium/etf/main/etf-vault.sol\":1849:2060  function initialize(address _directory) external {... */\n    tag_47:\n        /* \"hopium/etf/main/etf-vault.sol\":1913:1925  _initialized */\n      0x00\n      0x14\n      swap1\n      sload\n      swap1\n      0x0100\n      exp\n      swap1\n      div\n      0xff\n      and\n        /* \"hopium/etf/main/etf-vault.sol\":1909:1954  if (_initialized) revert AlreadyInitialized() */\n      iszero\n      tag_87\n      jumpi\n        /* \"hopium/etf/main/etf-vault.sol\":1934:1954  AlreadyInitialized() */\n      mload(0x40)\n      0x0dc149f000000000000000000000000000000000000000000000000000000000\n      dup2\n      mstore\n      0x04\n      add\n      mload(0x40)\n      dup1\n      swap2\n      sub\n      swap1\n      revert\n        /* \"hopium/etf/main/etf-vault.sol\":1909:1954  if (_initialized) revert AlreadyInitialized() */\n    tag_87:\n        /* \"hopium/etf/main/etf-vault.sol\":1979:1983  true */\n      0x01\n        /* \"hopium/etf/main/etf-vault.sol\":1964:1976  _initialized */\n      0x00\n      0x14\n        /* \"hopium/etf/main/etf-vault.sol\":1964:1983  _initialized = true */\n      0x0100\n      exp\n      dup2\n      sload\n      dup2\n      0xff\n      mul\n      not\n      and\n      swap1\n      dup4\n      iszero\n      iszero\n      mul\n      or\n      swap1\n      sstore\n      pop\n        /* \"hopium/etf/main/etf-vault.sol\":1994:2019  _setDirectory(_directory) */\n      tag_88\n        /* \"hopium/etf/main/etf-vault.sol\":2008:2018  _directory */\n      dup2\n        /* \"hopium/etf/main/etf-vault.sol\":1994:2007  _setDirectory */\n      tag_85\n        /* \"hopium/etf/main/etf-vault.sol\":1994:2019  _setDirectory(_directory) */\n      jump\t// in\n    tag_88:\n        /* \"hopium/etf/main/etf-vault.sol\":1849:2060  function initialize(address _directory) external {... */\n      pop\n      jump\t// out\n        /* \"hopium/etf/main/etf-vault.sol\":1133:1263  function _recoverAsset(address tokenAddress, address toAddress) internal {... */\n    tag_58:\n        /* \"hopium/etf/main/etf-vault.sol\":1216:1256  _sendEthOrToken(tokenAddress, toAddress) */\n      tag_90\n        /* \"hopium/etf/main/etf-vault.sol\":1232:1244  tokenAddress */\n      dup3\n        /* \"hopium/etf/main/etf-vault.sol\":1246:1255  toAddress */\n      dup3\n        /* \"hopium/etf/main/etf-vault.sol\":1216:1231  _sendEthOrToken */\n      tag_91\n        /* \"hopium/etf/main/etf-vault.sol\":1216:1256  _sendEthOrToken(tokenAddress, toAddress) */\n      jump\t// in\n    tag_90:\n        /* \"hopium/etf/main/etf-vault.sol\":1133:1263  function _recoverAsset(address tokenAddress, address toAddress) internal {... */\n      pop\n      pop\n      jump\t// out\n        /* \"hopium/etf/main/etf-vault.sol\":621:818  function _sendToken(address tokenAddress, address toAddress, uint256 amount) internal {... */\n    tag_72:\n        /* \"hopium/etf/main/etf-vault.sol\":731:732  0 */\n      0x00\n        /* \"hopium/etf/main/etf-vault.sol\":721:727  amount */\n      dup2\n        /* \"hopium/etf/main/etf-vault.sol\":721:732  amount == 0 */\n      sub\n        /* \"hopium/etf/main/etf-vault.sol\":717:753  if (amount == 0) revert ZeroAmount() */\n      tag_93\n      jumpi\n        /* \"hopium/etf/main/etf-vault.sol\":741:753  ZeroAmount() */\n      mload(0x40)\n      0x1f2a200500000000000000000000000000000000000000000000000000000000\n      dup2\n      mstore\n      0x04\n      add\n      mload(0x40)\n      dup1\n      swap2\n      sub\n      swap1\n      revert\n        /* \"hopium/etf/main/etf-vault.sol\":717:753  if (amount == 0) revert ZeroAmount() */\n    tag_93:\n        /* \"hopium/etf/main/etf-vault.sol\":770:782  tokenAddress */\n      dup3\n        /* \"hopium/etf/main/etf-vault.sol\":763:792  IERC20(tokenAddress).transfer */\n      0xffffffffffffffffffffffffffffffffffffffff\n      and\n      0xa9059cbb\n        /* \"hopium/etf/main/etf-vault.sol\":793:802  toAddress */\n      dup4\n        /* \"hopium/etf/main/etf-vault.sol\":804:810  amount */\n      dup4\n        /* \"hopium/etf/main/etf-vault.sol\":763:811  IERC20(tokenAddress).transfer(toAddress, amount) */\n      mload(0x40)\n      dup4\n      0xffffffff\n      and\n      0xe0\n      shl\n      dup2\n      mstore\n      0x04\n      add\n      tag_94\n      swap3\n      swap2\n      swap1\n      tag_95\n      jump\t// in\n    tag_94:\n      0x20\n      mload(0x40)\n      dup1\n      dup4\n      sub\n      dup2\n      0x00\n      dup8\n      gas\n      call\n      iszero\n      dup1\n      iszero\n      tag_97\n      jumpi\n      returndatacopy(0x00, 0x00, returndatasize)\n      revert(0x00, returndatasize)\n    tag_97:\n      pop\n      pop\n      pop\n      pop\n      mload(0x40)\n      returndatasize\n      not(0x1f)\n      0x1f\n      dup3\n      add\n      and\n      dup3\n      add\n      dup1\n      0x40\n      mstore\n      pop\n      dup2\n      add\n      swap1\n      tag_98\n      swap2\n      swap1\n      tag_99\n      jump\t// in\n    tag_98:\n      pop\n        /* \"hopium/etf/main/etf-vault.sol\":621:818  function _sendToken(address tokenAddress, address toAddress, uint256 amount) internal {... */\n      pop\n      pop\n      pop\n      jump\t// out\n        /* \"hopium/common/interface/imDirectory.sol\":589:1050  function _setDirectory(address _directory) internal {... */\n    tag_85:\n        /* \"hopium/common/interface/imDirectory.sol\":681:682  0 */\n      0x00\n        /* \"hopium/common/interface/imDirectory.sol\":659:683  _directory != address(0) */\n      0xffffffffffffffffffffffffffffffffffffffff\n      and\n        /* \"hopium/common/interface/imDirectory.sol\":659:669  _directory */\n      dup2\n        /* \"hopium/common/interface/imDirectory.sol\":659:683  _directory != address(0) */\n      0xffffffffffffffffffffffffffffffffffffffff\n      and\n      sub\n        /* \"hopium/common/interface/imDirectory.sol\":651:720  require(_directory != address(0), \"Directory cannot be zero address\") */\n      tag_101\n      jumpi\n      mload(0x40)\n      0x08c379a000000000000000000000000000000000000000000000000000000000\n      dup2\n      mstore\n      0x04\n      add\n      tag_102\n      swap1\n      tag_103\n      jump\t// in\n    tag_102:\n      mload(0x40)\n      dup1\n      swap2\n      sub\n      swap1\n      revert\n    tag_101:\n        /* \"hopium/common/interface/imDirectory.sol\":763:764  0 */\n      0x00\n        /* \"hopium/common/interface/imDirectory.sol\":738:748  _directory */\n      dup2\n        /* \"hopium/common/interface/imDirectory.sol\":738:760  _directory.code.length */\n      0xffffffffffffffffffffffffffffffffffffffff\n      and\n      extcodesize\n        /* \"hopium/common/interface/imDirectory.sol\":738:764  _directory.code.length > 0 */\n      gt\n        /* \"hopium/common/interface/imDirectory.sol\":730:797  require(_directory.code.length > 0, \"Directory must be a contract\") */\n      tag_104\n      jumpi\n      mload(0x40)\n      0x08c379a000000000000000000000000000000000000000000000000000000000\n      dup2\n      mstore\n      0x04\n      add\n      tag_105\n      swap1\n      tag_106\n      jump\t// in\n    tag_105:\n      mload(0x40)\n      dup1\n      swap2\n      sub\n      swap1\n      revert\n    tag_104:\n        /* \"hopium/common/interface/imDirectory.sol\":861:871  _directory */\n      dup1\n        /* \"hopium/common/interface/imDirectory.sol\":850:878  IDirectory(_directory).owner */\n      0xffffffffffffffffffffffffffffffffffffffff\n      and\n      0x8da5cb5b\n        /* \"hopium/common/interface/imDirectory.sol\":850:880  IDirectory(_directory).owner() */\n      mload(0x40)\n      dup2\n      0xffffffff\n      and\n      0xe0\n      shl\n      dup2\n      mstore\n      0x04\n      add\n      0x20\n      mload(0x40)\n      dup1\n      dup4\n      sub\n      dup2\n      dup7\n      gas\n      staticcall\n      swap3\n      pop\n      pop\n      pop\n      dup1\n      iszero\n      tag_107\n      jumpi\n      pop\n      mload(0x40)\n      returndatasize\n      not(0x1f)\n      0x1f\n      dup3\n      add\n      and\n      dup3\n      add\n      dup1\n      0x40\n      mstore\n      pop\n      dup2\n      add\n      swap1\n      tag_108\n      swap2\n      swap1\n      tag_52\n      jump\t// in\n    tag_108:\n      0x01\n    tag_107:\n        /* \"hopium/common/interface/imDirectory.sol\":846:1044  try IDirectory(_directory).owner() returns (address) {... */\n      tag_109\n      jumpi\n        /* \"hopium/common/interface/imDirectory.sol\":979:1033  revert(\"Directory address does not implement owner()\") */\n      mload(0x40)\n      0x08c379a000000000000000000000000000000000000000000000000000000000\n      dup2\n      mstore\n      0x04\n      add\n      tag_113\n      swap1\n      tag_114\n      jump\t// in\n    tag_113:\n      mload(0x40)\n      dup1\n      swap2\n      sub\n      swap1\n      revert\n        /* \"hopium/common/interface/imDirectory.sol\":846:1044  try IDirectory(_directory).owner() returns (address) {... */\n    tag_109:\n        /* \"hopium/common/interface/imDirectory.sol\":936:946  _directory */\n      dup2\n        /* \"hopium/common/interface/imDirectory.sol\":913:922  Directory */\n      0x00\n      0x00\n        /* \"hopium/common/interface/imDirectory.sol\":913:947  Directory = IDirectory(_directory) */\n      0x0100\n      exp\n      dup2\n      sload\n      dup2\n      0xffffffffffffffffffffffffffffffffffffffff\n      mul\n      not\n      and\n      swap1\n      dup4\n      0xffffffffffffffffffffffffffffffffffffffff\n      and\n      mul\n      or\n      swap1\n      sstore\n      pop\n        /* \"hopium/common/interface/imDirectory.sol\":881:958  returns (address) {... */\n      pop\n        /* \"hopium/common/interface/imDirectory.sol\":589:1050  function _setDirectory(address _directory) internal {... */\n      pop\n      jump\t// out\n        /* \"hopium/etf/main/etf-vault.sol\":824:1127  function _sendEthOrToken(address tokenAddress, address toAddress) internal {... */\n    tag_91:\n        /* \"hopium/etf/main/etf-vault.sol\":937:938  0 */\n      0x00\n        /* \"hopium/etf/main/etf-vault.sol\":913:939  tokenAddress == address(0) */\n      0xffffffffffffffffffffffffffffffffffffffff\n      and\n        /* \"hopium/etf/main/etf-vault.sol\":913:925  tokenAddress */\n      dup3\n        /* \"hopium/etf/main/etf-vault.sol\":913:939  tokenAddress == address(0) */\n      0xffffffffffffffffffffffffffffffffffffffff\n      and\n      sub\n        /* \"hopium/etf/main/etf-vault.sol\":909:1121  if (tokenAddress == address(0)) {... */\n      tag_117\n      jumpi\n        /* \"hopium/etf/main/etf-vault.sol\":955:997  _sendEth(toAddress, address(this).balance) */\n      tag_118\n        /* \"hopium/etf/main/etf-vault.sol\":964:973  toAddress */\n      dup2\n        /* \"hopium/etf/main/etf-vault.sol\":975:996  address(this).balance */\n      selfbalance\n        /* \"hopium/etf/main/etf-vault.sol\":955:963  _sendEth */\n      tag_119\n        /* \"hopium/etf/main/etf-vault.sol\":955:997  _sendEth(toAddress, address(this).balance) */\n      jump\t// in\n    tag_118:\n        /* \"hopium/etf/main/etf-vault.sol\":909:1121  if (tokenAddress == address(0)) {... */\n      jump(tag_120)\n    tag_117:\n        /* \"hopium/etf/main/etf-vault.sol\":1028:1110  _sendToken(tokenAddress, toAddress, IERC20(tokenAddress).balanceOf(address(this))) */\n      tag_121\n        /* \"hopium/etf/main/etf-vault.sol\":1039:1051  tokenAddress */\n      dup3\n        /* \"hopium/etf/main/etf-vault.sol\":1053:1062  toAddress */\n      dup3\n        /* \"hopium/etf/main/etf-vault.sol\":1071:1083  tokenAddress */\n      dup5\n        /* \"hopium/etf/main/etf-vault.sol\":1064:1094  IERC20(tokenAddress).balanceOf */\n      0xffffffffffffffffffffffffffffffffffffffff\n      and\n      0x70a08231\n        /* \"hopium/etf/main/etf-vault.sol\":1103:1107  this */\n      address\n        /* \"hopium/etf/main/etf-vault.sol\":1064:1109  IERC20(tokenAddress).balanceOf(address(this)) */\n      mload(0x40)\n      dup3\n      0xffffffff\n      and\n      0xe0\n      shl\n      dup2\n      mstore\n      0x04\n      add\n      tag_122\n      swap2\n      swap1\n      tag_24\n      jump\t// in\n    tag_122:\n      0x20\n      mload(0x40)\n      dup1\n      dup4\n      sub\n      dup2\n      dup7\n      gas\n      staticcall\n      iszero\n      dup1\n      iszero\n      tag_124\n      jumpi\n      returndatacopy(0x00, 0x00, returndatasize)\n      revert(0x00, returndatasize)\n    tag_124:\n      pop\n      pop\n      pop\n      pop\n      mload(0x40)\n      returndatasize\n      not(0x1f)\n      0x1f\n      dup3\n      add\n      and\n      dup3\n      add\n      dup1\n      0x40\n      mstore\n      pop\n      dup2\n      add\n      swap1\n      tag_125\n      swap2\n      swap1\n      tag_126\n      jump\t// in\n    tag_125:\n        /* \"hopium/etf/main/etf-vault.sol\":1028:1038  _sendToken */\n      tag_72\n        /* \"hopium/etf/main/etf-vault.sol\":1028:1110  _sendToken(tokenAddress, toAddress, IERC20(tokenAddress).balanceOf(address(this))) */\n      jump\t// in\n    tag_121:\n        /* \"hopium/etf/main/etf-vault.sol\":909:1121  if (tokenAddress == address(0)) {... */\n    tag_120:\n        /* \"hopium/etf/main/etf-vault.sol\":824:1127  function _sendEthOrToken(address tokenAddress, address toAddress) internal {... */\n      pop\n      pop\n      jump\t// out\n        /* \"hopium/etf/main/etf-vault.sol\":407:615  function _sendEth(address to, uint256 amount) internal {... */\n    tag_119:\n        /* \"hopium/etf/main/etf-vault.sol\":486:487  0 */\n      0x00\n        /* \"hopium/etf/main/etf-vault.sol\":476:482  amount */\n      dup2\n        /* \"hopium/etf/main/etf-vault.sol\":476:487  amount == 0 */\n      sub\n        /* \"hopium/etf/main/etf-vault.sol\":472:508  if (amount == 0) revert ZeroAmount() */\n      tag_128\n      jumpi\n        /* \"hopium/etf/main/etf-vault.sol\":496:508  ZeroAmount() */\n      mload(0x40)\n      0x1f2a200500000000000000000000000000000000000000000000000000000000\n      dup2\n      mstore\n      0x04\n      add\n      mload(0x40)\n      dup1\n      swap2\n      sub\n      swap1\n      revert\n        /* \"hopium/etf/main/etf-vault.sol\":472:508  if (amount == 0) revert ZeroAmount() */\n    tag_128:\n        /* \"hopium/etf/main/etf-vault.sol\":519:526  bool ok */\n      0x00\n        /* \"hopium/etf/main/etf-vault.sol\":540:542  to */\n      dup3\n        /* \"hopium/etf/main/etf-vault.sol\":532:548  payable(to).call */\n      0xffffffffffffffffffffffffffffffffffffffff\n      and\n        /* \"hopium/etf/main/etf-vault.sol\":556:562  amount */\n      dup3\n        /* \"hopium/etf/main/etf-vault.sol\":532:567  payable(to).call{value: amount}(\"\") */\n      mload(0x40)\n      tag_129\n      swap1\n      tag_130\n      jump\t// in\n    tag_129:\n      0x00\n      mload(0x40)\n      dup1\n      dup4\n      sub\n      dup2\n      dup6\n      dup8\n      gas\n      call\n      swap3\n      pop\n      pop\n      pop\n      returndatasize\n      dup1\n      0x00\n      dup2\n      eq\n      tag_133\n      jumpi\n      mload(0x40)\n      swap2\n      pop\n      and(add(returndatasize, 0x3f), not(0x1f))\n      dup3\n      add\n      0x40\n      mstore\n      returndatasize\n      dup3\n      mstore\n      returndatasize\n      0x00\n      0x20\n      dup5\n      add\n      returndatacopy\n      jump(tag_132)\n    tag_133:\n      0x60\n      swap2\n      pop\n    tag_132:\n      pop\n        /* \"hopium/etf/main/etf-vault.sol\":518:567  (bool ok, ) = payable(to).call{value: amount}(\"\") */\n      pop\n      swap1\n      pop\n        /* \"hopium/etf/main/etf-vault.sol\":582:584  ok */\n      dup1\n        /* \"hopium/etf/main/etf-vault.sol\":577:608  if (!ok) revert EthSendFailed() */\n      tag_134\n      jumpi\n        /* \"hopium/etf/main/etf-vault.sol\":593:608  EthSendFailed() */\n      mload(0x40)\n      0x98248e6400000000000000000000000000000000000000000000000000000000\n      dup2\n      mstore\n      0x04\n      add\n      mload(0x40)\n      dup1\n      swap2\n      sub\n      swap1\n      revert\n        /* \"hopium/etf/main/etf-vault.sol\":577:608  if (!ok) revert EthSendFailed() */\n    tag_134:\n        /* \"hopium/etf/main/etf-vault.sol\":462:615  {... */\n      pop\n        /* \"hopium/etf/main/etf-vault.sol\":407:615  function _sendEth(address to, uint256 amount) internal {... */\n      pop\n      pop\n      jump\t// out\n        /* \"#utility.yul\":7:82   */\n    tag_135:\n        /* \"#utility.yul\":40:46   */\n      0x00\n        /* \"#utility.yul\":73:75   */\n      0x40\n        /* \"#utility.yul\":67:76   */\n      mload\n        /* \"#utility.yul\":57:76   */\n      swap1\n      pop\n        /* \"#utility.yul\":7:82   */\n      swap1\n      jump\t// out\n        /* \"#utility.yul\":88:205   */\n    tag_136:\n        /* \"#utility.yul\":197:198   */\n      0x00\n        /* \"#utility.yul\":194:195   */\n      0x00\n        /* \"#utility.yul\":187:199   */\n      revert\n        /* \"#utility.yul\":211:328   */\n    tag_137:\n        /* \"#utility.yul\":320:321   */\n      0x00\n        /* \"#utility.yul\":317:318   */\n      0x00\n        /* \"#utility.yul\":310:322   */\n      revert\n        /* \"#utility.yul\":334:460   */\n    tag_138:\n        /* \"#utility.yul\":371:378   */\n      0x00\n        /* \"#utility.yul\":411:453   */\n      0xffffffffffffffffffffffffffffffffffffffff\n        /* \"#utility.yul\":404:409   */\n      dup3\n        /* \"#utility.yul\":400:454   */\n      and\n        /* \"#utility.yul\":389:454   */\n      swap1\n      pop\n        /* \"#utility.yul\":334:460   */\n      swap2\n      swap1\n      pop\n      jump\t// out\n        /* \"#utility.yul\":466:562   */\n    tag_139:\n        /* \"#utility.yul\":503:510   */\n      0x00\n        /* \"#utility.yul\":532:556   */\n      tag_190\n        /* \"#utility.yul\":550:555   */\n      dup3\n        /* \"#utility.yul\":532:556   */\n      tag_138\n      jump\t// in\n    tag_190:\n        /* \"#utility.yul\":521:556   */\n      swap1\n      pop\n        /* \"#utility.yul\":466:562   */\n      swap2\n      swap1\n      pop\n      jump\t// out\n        /* \"#utility.yul\":568:690   */\n    tag_140:\n        /* \"#utility.yul\":641:665   */\n      tag_192\n        /* \"#utility.yul\":659:664   */\n      dup2\n        /* \"#utility.yul\":641:665   */\n      tag_139\n      jump\t// in\n    tag_192:\n        /* \"#utility.yul\":634:639   */\n      dup2\n        /* \"#utility.yul\":631:666   */\n      eq\n        /* \"#utility.yul\":621:684   */\n      tag_193\n      jumpi\n        /* \"#utility.yul\":680:681   */\n      0x00\n        /* \"#utility.yul\":677:678   */\n      0x00\n        /* \"#utility.yul\":670:682   */\n      revert\n        /* \"#utility.yul\":621:684   */\n    tag_193:\n        /* \"#utility.yul\":568:690   */\n      pop\n      jump\t// out\n        /* \"#utility.yul\":696:835   */\n    tag_141:\n        /* \"#utility.yul\":742:747   */\n      0x00\n        /* \"#utility.yul\":780:786   */\n      dup2\n        /* \"#utility.yul\":767:787   */\n      calldataload\n        /* \"#utility.yul\":758:787   */\n      swap1\n      pop\n        /* \"#utility.yul\":796:829   */\n      tag_195\n        /* \"#utility.yul\":823:828   */\n      dup2\n        /* \"#utility.yul\":796:829   */\n      tag_140\n      jump\t// in\n    tag_195:\n        /* \"#utility.yul\":696:835   */\n      swap3\n      swap2\n      pop\n      pop\n      jump\t// out\n        /* \"#utility.yul\":841:1315   */\n    tag_16:\n        /* \"#utility.yul\":909:915   */\n      0x00\n        /* \"#utility.yul\":917:923   */\n      0x00\n        /* \"#utility.yul\":966:968   */\n      0x40\n        /* \"#utility.yul\":954:963   */\n      dup4\n        /* \"#utility.yul\":945:952   */\n      dup6\n        /* \"#utility.yul\":941:964   */\n      sub\n        /* \"#utility.yul\":937:969   */\n      slt\n        /* \"#utility.yul\":934:1053   */\n      iszero\n      tag_197\n      jumpi\n        /* \"#utility.yul\":972:1051   */\n      tag_198\n      tag_136\n      jump\t// in\n    tag_198:\n        /* \"#utility.yul\":934:1053   */\n    tag_197:\n        /* \"#utility.yul\":1092:1093   */\n      0x00\n        /* \"#utility.yul\":1117:1170   */\n      tag_199\n        /* \"#utility.yul\":1162:1169   */\n      dup6\n        /* \"#utility.yul\":1153:1159   */\n      dup3\n        /* \"#utility.yul\":1142:1151   */\n      dup7\n        /* \"#utility.yul\":1138:1160   */\n      add\n        /* \"#utility.yul\":1117:1170   */\n      tag_141\n      jump\t// in\n    tag_199:\n        /* \"#utility.yul\":1107:1170   */\n      swap3\n      pop\n        /* \"#utility.yul\":1063:1180   */\n      pop\n        /* \"#utility.yul\":1219:1221   */\n      0x20\n        /* \"#utility.yul\":1245:1298   */\n      tag_200\n        /* \"#utility.yul\":1290:1297   */\n      dup6\n        /* \"#utility.yul\":1281:1287   */\n      dup3\n        /* \"#utility.yul\":1270:1279   */\n      dup7\n        /* \"#utility.yul\":1266:1288   */\n      add\n        /* \"#utility.yul\":1245:1298   */\n      tag_141\n      jump\t// in\n    tag_200:\n        /* \"#utility.yul\":1235:1298   */\n      swap2\n      pop\n        /* \"#utility.yul\":1190:1308   */\n      pop\n        /* \"#utility.yul\":841:1315   */\n      swap3\n      pop\n      swap3\n      swap1\n      pop\n      jump\t// out\n        /* \"#utility.yul\":1321:1438   */\n    tag_142:\n        /* \"#utility.yul\":1430:1431   */\n      0x00\n        /* \"#utility.yul\":1427:1428   */\n      0x00\n        /* \"#utility.yul\":1420:1432   */\n      revert\n        /* \"#utility.yul\":1444:1561   */\n    tag_143:\n        /* \"#utility.yul\":1553:1554   */\n      0x00\n        /* \"#utility.yul\":1550:1551   */\n      0x00\n        /* \"#utility.yul\":1543:1555   */\n      revert\n        /* \"#utility.yul\":1567:1669   */\n    tag_144:\n        /* \"#utility.yul\":1608:1614   */\n      0x00\n        /* \"#utility.yul\":1659:1661   */\n      0x1f\n        /* \"#utility.yul\":1655:1662   */\n      not\n        /* \"#utility.yul\":1650:1652   */\n      0x1f\n        /* \"#utility.yul\":1643:1648   */\n      dup4\n        /* \"#utility.yul\":1639:1653   */\n      add\n        /* \"#utility.yul\":1635:1663   */\n      and\n        /* \"#utility.yul\":1625:1663   */\n      swap1\n      pop\n        /* \"#utility.yul\":1567:1669   */\n      swap2\n      swap1\n      pop\n      jump\t// out\n        /* \"#utility.yul\":1675:1855   */\n    tag_145:\n        /* \"#utility.yul\":1723:1800   */\n      0x4e487b7100000000000000000000000000000000000000000000000000000000\n        /* \"#utility.yul\":1720:1721   */\n      0x00\n        /* \"#utility.yul\":1713:1801   */\n      mstore\n        /* \"#utility.yul\":1820:1824   */\n      0x41\n        /* \"#utility.yul\":1817:1818   */\n      0x04\n        /* \"#utility.yul\":1810:1825   */\n      mstore\n        /* \"#utility.yul\":1844:1848   */\n      0x24\n        /* \"#utility.yul\":1841:1842   */\n      0x00\n        /* \"#utility.yul\":1834:1849   */\n      revert\n        /* \"#utility.yul\":1861:2142   */\n    tag_146:\n        /* \"#utility.yul\":1944:1971   */\n      tag_206\n        /* \"#utility.yul\":1966:1970   */\n      dup3\n        /* \"#utility.yul\":1944:1971   */\n      tag_144\n      jump\t// in\n    tag_206:\n        /* \"#utility.yul\":1936:1942   */\n      dup2\n        /* \"#utility.yul\":1932:1972   */\n      add\n        /* \"#utility.yul\":2074:2080   */\n      dup2\n        /* \"#utility.yul\":2062:2072   */\n      dup2\n        /* \"#utility.yul\":2059:2081   */\n      lt\n        /* \"#utility.yul\":2038:2056   */\n      0xffffffffffffffff\n        /* \"#utility.yul\":2026:2036   */\n      dup3\n        /* \"#utility.yul\":2023:2057   */\n      gt\n        /* \"#utility.yul\":2020:2082   */\n      or\n        /* \"#utility.yul\":2017:2105   */\n      iszero\n      tag_207\n      jumpi\n        /* \"#utility.yul\":2085:2103   */\n      tag_208\n      tag_145\n      jump\t// in\n    tag_208:\n        /* \"#utility.yul\":2017:2105   */\n    tag_207:\n        /* \"#utility.yul\":2125:2135   */\n      dup1\n        /* \"#utility.yul\":2121:2123   */\n      0x40\n        /* \"#utility.yul\":2114:2136   */\n      mstore\n        /* \"#utility.yul\":1904:2142   */\n      pop\n        /* \"#utility.yul\":1861:2142   */\n      pop\n      pop\n      jump\t// out\n        /* \"#utility.yul\":2148:2277   */\n    tag_147:\n        /* \"#utility.yul\":2182:2188   */\n      0x00\n        /* \"#utility.yul\":2209:2229   */\n      tag_210\n      tag_135\n      jump\t// in\n    tag_210:\n        /* \"#utility.yul\":2199:2229   */\n      swap1\n      pop\n        /* \"#utility.yul\":2238:2271   */\n      tag_211\n        /* \"#utility.yul\":2266:2270   */\n      dup3\n        /* \"#utility.yul\":2258:2264   */\n      dup3\n        /* \"#utility.yul\":2238:2271   */\n      tag_146\n      jump\t// in\n    tag_211:\n        /* \"#utility.yul\":2148:2277   */\n      swap2\n      swap1\n      pop\n      jump\t// out\n        /* \"#utility.yul\":2283:2591   */\n    tag_148:\n        /* \"#utility.yul\":2345:2349   */\n      0x00\n        /* \"#utility.yul\":2435:2453   */\n      0xffffffffffffffff\n        /* \"#utility.yul\":2427:2433   */\n      dup3\n        /* \"#utility.yul\":2424:2454   */\n      gt\n        /* \"#utility.yul\":2421:2477   */\n      iszero\n      tag_213\n      jumpi\n        /* \"#utility.yul\":2457:2475   */\n      tag_214\n      tag_145\n      jump\t// in\n    tag_214:\n        /* \"#utility.yul\":2421:2477   */\n    tag_213:\n        /* \"#utility.yul\":2495:2524   */\n      tag_215\n        /* \"#utility.yul\":2517:2523   */\n      dup3\n        /* \"#utility.yul\":2495:2524   */\n      tag_144\n      jump\t// in\n    tag_215:\n        /* \"#utility.yul\":2487:2524   */\n      swap1\n      pop\n        /* \"#utility.yul\":2579:2583   */\n      0x20\n        /* \"#utility.yul\":2573:2577   */\n      dup2\n        /* \"#utility.yul\":2569:2584   */\n      add\n        /* \"#utility.yul\":2561:2584   */\n      swap1\n      pop\n        /* \"#utility.yul\":2283:2591   */\n      swap2\n      swap1\n      pop\n      jump\t// out\n        /* \"#utility.yul\":2597:2745   */\n    tag_149:\n        /* \"#utility.yul\":2695:2701   */\n      dup3\n        /* \"#utility.yul\":2690:2693   */\n      dup2\n        /* \"#utility.yul\":2685:2688   */\n      dup4\n        /* \"#utility.yul\":2672:2702   */\n      calldatacopy\n        /* \"#utility.yul\":2736:2737   */\n      0x00\n        /* \"#utility.yul\":2727:2733   */\n      dup4\n        /* \"#utility.yul\":2722:2725   */\n      dup4\n        /* \"#utility.yul\":2718:2734   */\n      add\n        /* \"#utility.yul\":2711:2738   */\n      mstore\n        /* \"#utility.yul\":2597:2745   */\n      pop\n      pop\n      pop\n      jump\t// out\n        /* \"#utility.yul\":2751:3176   */\n    tag_150:\n        /* \"#utility.yul\":2829:2834   */\n      0x00\n        /* \"#utility.yul\":2854:2920   */\n      tag_218\n        /* \"#utility.yul\":2870:2919   */\n      tag_219\n        /* \"#utility.yul\":2912:2918   */\n      dup5\n        /* \"#utility.yul\":2870:2919   */\n      tag_148\n      jump\t// in\n    tag_219:\n        /* \"#utility.yul\":2854:2920   */\n      tag_147\n      jump\t// in\n    tag_218:\n        /* \"#utility.yul\":2845:2920   */\n      swap1\n      pop\n        /* \"#utility.yul\":2943:2949   */\n      dup3\n        /* \"#utility.yul\":2936:2941   */\n      dup2\n        /* \"#utility.yul\":2929:2950   */\n      mstore\n        /* \"#utility.yul\":2981:2985   */\n      0x20\n        /* \"#utility.yul\":2974:2979   */\n      dup2\n        /* \"#utility.yul\":2970:2986   */\n      add\n        /* \"#utility.yul\":3019:3022   */\n      dup5\n        /* \"#utility.yul\":3010:3016   */\n      dup5\n        /* \"#utility.yul\":3005:3008   */\n      dup5\n        /* \"#utility.yul\":3001:3017   */\n      add\n        /* \"#utility.yul\":2998:3023   */\n      gt\n        /* \"#utility.yul\":2995:3107   */\n      iszero\n      tag_220\n      jumpi\n        /* \"#utility.yul\":3026:3105   */\n      tag_221\n      tag_143\n      jump\t// in\n    tag_221:\n        /* \"#utility.yul\":2995:3107   */\n    tag_220:\n        /* \"#utility.yul\":3116:3170   */\n      tag_222\n        /* \"#utility.yul\":3163:3169   */\n      dup5\n        /* \"#utility.yul\":3158:3161   */\n      dup3\n        /* \"#utility.yul\":3153:3156   */\n      dup6\n        /* \"#utility.yul\":3116:3170   */\n      tag_149\n      jump\t// in\n    tag_222:\n        /* \"#utility.yul\":2835:3176   */\n      pop\n        /* \"#utility.yul\":2751:3176   */\n      swap4\n      swap3\n      pop\n      pop\n      pop\n      jump\t// out\n        /* \"#utility.yul\":3196:3536   */\n    tag_151:\n        /* \"#utility.yul\":3252:3257   */\n      0x00\n        /* \"#utility.yul\":3301:3304   */\n      dup3\n        /* \"#utility.yul\":3294:3298   */\n      0x1f\n        /* \"#utility.yul\":3286:3292   */\n      dup4\n        /* \"#utility.yul\":3282:3299   */\n      add\n        /* \"#utility.yul\":3278:3305   */\n      slt\n        /* \"#utility.yul\":3268:3390   */\n      tag_224\n      jumpi\n        /* \"#utility.yul\":3309:3388   */\n      tag_225\n      tag_142\n      jump\t// in\n    tag_225:\n        /* \"#utility.yul\":3268:3390   */\n    tag_224:\n        /* \"#utility.yul\":3426:3432   */\n      dup2\n        /* \"#utility.yul\":3413:3433   */\n      calldataload\n        /* \"#utility.yul\":3451:3530   */\n      tag_226\n        /* \"#utility.yul\":3526:3529   */\n      dup5\n        /* \"#utility.yul\":3518:3524   */\n      dup3\n        /* \"#utility.yul\":3511:3515   */\n      0x20\n        /* \"#utility.yul\":3503:3509   */\n      dup7\n        /* \"#utility.yul\":3499:3516   */\n      add\n        /* \"#utility.yul\":3451:3530   */\n      tag_150\n      jump\t// in\n    tag_226:\n        /* \"#utility.yul\":3442:3530   */\n      swap2\n      pop\n        /* \"#utility.yul\":3258:3536   */\n      pop\n        /* \"#utility.yul\":3196:3536   */\n      swap3\n      swap2\n      pop\n      pop\n      jump\t// out\n        /* \"#utility.yul\":3542:4051   */\n    tag_21:\n        /* \"#utility.yul\":3611:3617   */\n      0x00\n        /* \"#utility.yul\":3660:3662   */\n      0x20\n        /* \"#utility.yul\":3648:3657   */\n      dup3\n        /* \"#utility.yul\":3639:3646   */\n      dup5\n        /* \"#utility.yul\":3635:3658   */\n      sub\n        /* \"#utility.yul\":3631:3663   */\n      slt\n        /* \"#utility.yul\":3628:3747   */\n      iszero\n      tag_228\n      jumpi\n        /* \"#utility.yul\":3666:3745   */\n      tag_229\n      tag_136\n      jump\t// in\n    tag_229:\n        /* \"#utility.yul\":3628:3747   */\n    tag_228:\n        /* \"#utility.yul\":3814:3815   */\n      0x00\n        /* \"#utility.yul\":3803:3812   */\n      dup3\n        /* \"#utility.yul\":3799:3816   */\n      add\n        /* \"#utility.yul\":3786:3817   */\n      calldataload\n        /* \"#utility.yul\":3844:3862   */\n      0xffffffffffffffff\n        /* \"#utility.yul\":3836:3842   */\n      dup2\n        /* \"#utility.yul\":3833:3863   */\n      gt\n        /* \"#utility.yul\":3830:3947   */\n      iszero\n      tag_230\n      jumpi\n        /* \"#utility.yul\":3866:3945   */\n      tag_231\n      tag_137\n      jump\t// in\n    tag_231:\n        /* \"#utility.yul\":3830:3947   */\n    tag_230:\n        /* \"#utility.yul\":3971:4034   */\n      tag_232\n        /* \"#utility.yul\":4026:4033   */\n      dup5\n        /* \"#utility.yul\":4017:4023   */\n      dup3\n        /* \"#utility.yul\":4006:4015   */\n      dup6\n        /* \"#utility.yul\":4002:4024   */\n      add\n        /* \"#utility.yul\":3971:4034   */\n      tag_151\n      jump\t// in\n    tag_232:\n        /* \"#utility.yul\":3961:4034   */\n      swap2\n      pop\n        /* \"#utility.yul\":3757:4044   */\n      pop\n        /* \"#utility.yul\":3542:4051   */\n      swap3\n      swap2\n      pop\n      pop\n      jump\t// out\n        /* \"#utility.yul\":4057:4175   */\n    tag_152:\n        /* \"#utility.yul\":4144:4168   */\n      tag_234\n        /* \"#utility.yul\":4162:4167   */\n      dup2\n        /* \"#utility.yul\":4144:4168   */\n      tag_139\n      jump\t// in\n    tag_234:\n        /* \"#utility.yul\":4139:4142   */\n      dup3\n        /* \"#utility.yul\":4132:4169   */\n      mstore\n        /* \"#utility.yul\":4057:4175   */\n      pop\n      pop\n      jump\t// out\n        /* \"#utility.yul\":4181:4403   */\n    tag_24:\n        /* \"#utility.yul\":4274:4278   */\n      0x00\n        /* \"#utility.yul\":4312:4314   */\n      0x20\n        /* \"#utility.yul\":4301:4310   */\n      dup3\n        /* \"#utility.yul\":4297:4315   */\n      add\n        /* \"#utility.yul\":4289:4315   */\n      swap1\n      pop\n        /* \"#utility.yul\":4325:4396   */\n      tag_236\n        /* \"#utility.yul\":4393:4394   */\n      0x00\n        /* \"#utility.yul\":4382:4391   */\n      dup4\n        /* \"#utility.yul\":4378:4395   */\n      add\n        /* \"#utility.yul\":4369:4375   */\n      dup5\n        /* \"#utility.yul\":4325:4396   */\n      tag_152\n      jump\t// in\n    tag_236:\n        /* \"#utility.yul\":4181:4403   */\n      swap3\n      swap2\n      pop\n      pop\n      jump\t// out\n        /* \"#utility.yul\":4409:4486   */\n    tag_153:\n        /* \"#utility.yul\":4446:4453   */\n      0x00\n        /* \"#utility.yul\":4475:4480   */\n      dup2\n        /* \"#utility.yul\":4464:4480   */\n      swap1\n      pop\n        /* \"#utility.yul\":4409:4486   */\n      swap2\n      swap1\n      pop\n      jump\t// out\n        /* \"#utility.yul\":4492:4614   */\n    tag_154:\n        /* \"#utility.yul\":4565:4589   */\n      tag_239\n        /* \"#utility.yul\":4583:4588   */\n      dup2\n        /* \"#utility.yul\":4565:4589   */\n      tag_153\n      jump\t// in\n    tag_239:\n        /* \"#utility.yul\":4558:4563   */\n      dup2\n        /* \"#utility.yul\":4555:4590   */\n      eq\n        /* \"#utility.yul\":4545:4608   */\n      tag_240\n      jumpi\n        /* \"#utility.yul\":4604:4605   */\n      0x00\n        /* \"#utility.yul\":4601:4602   */\n      0x00\n        /* \"#utility.yul\":4594:4606   */\n      revert\n        /* \"#utility.yul\":4545:4608   */\n    tag_240:\n        /* \"#utility.yul\":4492:4614   */\n      pop\n      jump\t// out\n        /* \"#utility.yul\":4620:4759   */\n    tag_155:\n        /* \"#utility.yul\":4666:4671   */\n      0x00\n        /* \"#utility.yul\":4704:4710   */\n      dup2\n        /* \"#utility.yul\":4691:4711   */\n      calldataload\n        /* \"#utility.yul\":4682:4711   */\n      swap1\n      pop\n        /* \"#utility.yul\":4720:4753   */\n      tag_242\n        /* \"#utility.yul\":4747:4752   */\n      dup2\n        /* \"#utility.yul\":4720:4753   */\n      tag_154\n      jump\t// in\n    tag_242:\n        /* \"#utility.yul\":4620:4759   */\n      swap3\n      swap2\n      pop\n      pop\n      jump\t// out\n        /* \"#utility.yul\":4765:5384   */\n    tag_28:\n        /* \"#utility.yul\":4842:4848   */\n      0x00\n        /* \"#utility.yul\":4850:4856   */\n      0x00\n        /* \"#utility.yul\":4858:4864   */\n      0x00\n        /* \"#utility.yul\":4907:4909   */\n      0x60\n        /* \"#utility.yul\":4895:4904   */\n      dup5\n        /* \"#utility.yul\":4886:4893   */\n      dup7\n        /* \"#utility.yul\":4882:4905   */\n      sub\n        /* \"#utility.yul\":4878:4910   */\n      slt\n        /* \"#utility.yul\":4875:4994   */\n      iszero\n      tag_244\n      jumpi\n        /* \"#utility.yul\":4913:4992   */\n      tag_245\n      tag_136\n      jump\t// in\n    tag_245:\n        /* \"#utility.yul\":4875:4994   */\n    tag_244:\n        /* \"#utility.yul\":5033:5034   */\n      0x00\n        /* \"#utility.yul\":5058:5111   */\n      tag_246\n        /* \"#utility.yul\":5103:5110   */\n      dup7\n        /* \"#utility.yul\":5094:5100   */\n      dup3\n        /* \"#utility.yul\":5083:5092   */\n      dup8\n        /* \"#utility.yul\":5079:5101   */\n      add\n        /* \"#utility.yul\":5058:5111   */\n      tag_141\n      jump\t// in\n    tag_246:\n        /* \"#utility.yul\":5048:5111   */\n      swap4\n      pop\n        /* \"#utility.yul\":5004:5121   */\n      pop\n        /* \"#utility.yul\":5160:5162   */\n      0x20\n        /* \"#utility.yul\":5186:5239   */\n      tag_247\n        /* \"#utility.yul\":5231:5238   */\n      dup7\n        /* \"#utility.yul\":5222:5228   */\n      dup3\n        /* \"#utility.yul\":5211:5220   */\n      dup8\n        /* \"#utility.yul\":5207:5229   */\n      add\n        /* \"#utility.yul\":5186:5239   */\n      tag_155\n      jump\t// in\n    tag_247:\n        /* \"#utility.yul\":5176:5239   */\n      swap3\n      pop\n        /* \"#utility.yul\":5131:5249   */\n      pop\n        /* \"#utility.yul\":5288:5290   */\n      0x40\n        /* \"#utility.yul\":5314:5367   */\n      tag_248\n        /* \"#utility.yul\":5359:5366   */\n      dup7\n        /* \"#utility.yul\":5350:5356   */\n      dup3\n        /* \"#utility.yul\":5339:5348   */\n      dup8\n        /* \"#utility.yul\":5335:5357   */\n      add\n        /* \"#utility.yul\":5314:5367   */\n      tag_141\n      jump\t// in\n    tag_248:\n        /* \"#utility.yul\":5304:5367   */\n      swap2\n      pop\n        /* \"#utility.yul\":5259:5377   */\n      pop\n        /* \"#utility.yul\":4765:5384   */\n      swap3\n      pop\n      swap3\n      pop\n      swap3\n      jump\t// out\n        /* \"#utility.yul\":5390:5450   */\n    tag_156:\n        /* \"#utility.yul\":5418:5421   */\n      0x00\n        /* \"#utility.yul\":5439:5444   */\n      dup2\n        /* \"#utility.yul\":5432:5444   */\n      swap1\n      pop\n        /* \"#utility.yul\":5390:5450   */\n      swap2\n      swap1\n      pop\n      jump\t// out\n        /* \"#utility.yul\":5456:5598   */\n    tag_157:\n        /* \"#utility.yul\":5506:5515   */\n      0x00\n        /* \"#utility.yul\":5539:5592   */\n      tag_251\n        /* \"#utility.yul\":5557:5591   */\n      tag_252\n        /* \"#utility.yul\":5566:5590   */\n      tag_253\n        /* \"#utility.yul\":5584:5589   */\n      dup5\n        /* \"#utility.yul\":5566:5590   */\n      tag_138\n      jump\t// in\n    tag_253:\n        /* \"#utility.yul\":5557:5591   */\n      tag_156\n      jump\t// in\n    tag_252:\n        /* \"#utility.yul\":5539:5592   */\n      tag_138\n      jump\t// in\n    tag_251:\n        /* \"#utility.yul\":5526:5592   */\n      swap1\n      pop\n        /* \"#utility.yul\":5456:5598   */\n      swap2\n      swap1\n      pop\n      jump\t// out\n        /* \"#utility.yul\":5604:5730   */\n    tag_158:\n        /* \"#utility.yul\":5654:5663   */\n      0x00\n        /* \"#utility.yul\":5687:5724   */\n      tag_255\n        /* \"#utility.yul\":5718:5723   */\n      dup3\n        /* \"#utility.yul\":5687:5724   */\n      tag_157\n      jump\t// in\n    tag_255:\n        /* \"#utility.yul\":5674:5724   */\n      swap1\n      pop\n        /* \"#utility.yul\":5604:5730   */\n      swap2\n      swap1\n      pop\n      jump\t// out\n        /* \"#utility.yul\":5736:5879   */\n    tag_159:\n        /* \"#utility.yul\":5803:5812   */\n      0x00\n        /* \"#utility.yul\":5836:5873   */\n      tag_257\n        /* \"#utility.yul\":5867:5872   */\n      dup3\n        /* \"#utility.yul\":5836:5873   */\n      tag_158\n      jump\t// in\n    tag_257:\n        /* \"#utility.yul\":5823:5873   */\n      swap1\n      pop\n        /* \"#utility.yul\":5736:5879   */\n      swap2\n      swap1\n      pop\n      jump\t// out\n        /* \"#utility.yul\":5885:6050   */\n    tag_160:\n        /* \"#utility.yul\":5989:6043   */\n      tag_259\n        /* \"#utility.yul\":6037:6042   */\n      dup2\n        /* \"#utility.yul\":5989:6043   */\n      tag_159\n      jump\t// in\n    tag_259:\n        /* \"#utility.yul\":5984:5987   */\n      dup3\n        /* \"#utility.yul\":5977:6044   */\n      mstore\n        /* \"#utility.yul\":5885:6050   */\n      pop\n      pop\n      jump\t// out\n        /* \"#utility.yul\":6056:6312   */\n    tag_34:\n        /* \"#utility.yul\":6166:6170   */\n      0x00\n        /* \"#utility.yul\":6204:6206   */\n      0x20\n        /* \"#utility.yul\":6193:6202   */\n      dup3\n        /* \"#utility.yul\":6189:6207   */\n      add\n        /* \"#utility.yul\":6181:6207   */\n      swap1\n      pop\n        /* \"#utility.yul\":6217:6305   */\n      tag_261\n        /* \"#utility.yul\":6302:6303   */\n      0x00\n        /* \"#utility.yul\":6291:6300   */\n      dup4\n        /* \"#utility.yul\":6287:6304   */\n      add\n        /* \"#utility.yul\":6278:6284   */\n      dup5\n        /* \"#utility.yul\":6217:6305   */\n      tag_160\n      jump\t// in\n    tag_261:\n        /* \"#utility.yul\":6056:6312   */\n      swap3\n      swap2\n      pop\n      pop\n      jump\t// out\n        /* \"#utility.yul\":6318:6647   */\n    tag_42:\n        /* \"#utility.yul\":6377:6383   */\n      0x00\n        /* \"#utility.yul\":6426:6428   */\n      0x20\n        /* \"#utility.yul\":6414:6423   */\n      dup3\n        /* \"#utility.yul\":6405:6412   */\n      dup5\n        /* \"#utility.yul\":6401:6424   */\n      sub\n        /* \"#utility.yul\":6397:6429   */\n      slt\n        /* \"#utility.yul\":6394:6513   */\n      iszero\n      tag_263\n      jumpi\n        /* \"#utility.yul\":6432:6511   */\n      tag_264\n      tag_136\n      jump\t// in\n    tag_264:\n        /* \"#utility.yul\":6394:6513   */\n    tag_263:\n        /* \"#utility.yul\":6552:6553   */\n      0x00\n        /* \"#utility.yul\":6577:6630   */\n      tag_265\n        /* \"#utility.yul\":6622:6629   */\n      dup5\n        /* \"#utility.yul\":6613:6619   */\n      dup3\n        /* \"#utility.yul\":6602:6611   */\n      dup6\n        /* \"#utility.yul\":6598:6620   */\n      add\n        /* \"#utility.yul\":6577:6630   */\n      tag_141\n      jump\t// in\n    tag_265:\n        /* \"#utility.yul\":6567:6630   */\n      swap2\n      pop\n        /* \"#utility.yul\":6523:6640   */\n      pop\n        /* \"#utility.yul\":6318:6647   */\n      swap3\n      swap2\n      pop\n      pop\n      jump\t// out\n        /* \"#utility.yul\":6653:6796   */\n    tag_161:\n        /* \"#utility.yul\":6710:6715   */\n      0x00\n        /* \"#utility.yul\":6741:6747   */\n      dup2\n        /* \"#utility.yul\":6735:6748   */\n      mload\n        /* \"#utility.yul\":6726:6748   */\n      swap1\n      pop\n        /* \"#utility.yul\":6757:6790   */\n      tag_267\n        /* \"#utility.yul\":6784:6789   */\n      dup2\n        /* \"#utility.yul\":6757:6790   */\n      tag_140\n      jump\t// in\n    tag_267:\n        /* \"#utility.yul\":6653:6796   */\n      swap3\n      swap2\n      pop\n      pop\n      jump\t// out\n        /* \"#utility.yul\":6802:7153   */\n    tag_52:\n        /* \"#utility.yul\":6872:6878   */\n      0x00\n        /* \"#utility.yul\":6921:6923   */\n      0x20\n        /* \"#utility.yul\":6909:6918   */\n      dup3\n        /* \"#utility.yul\":6900:6907   */\n      dup5\n        /* \"#utility.yul\":6896:6919   */\n      sub\n        /* \"#utility.yul\":6892:6924   */\n      slt\n        /* \"#utility.yul\":6889:7008   */\n      iszero\n      tag_269\n      jumpi\n        /* \"#utility.yul\":6927:7006   */\n      tag_270\n      tag_136\n      jump\t// in\n    tag_270:\n        /* \"#utility.yul\":6889:7008   */\n    tag_269:\n        /* \"#utility.yul\":7047:7048   */\n      0x00\n        /* \"#utility.yul\":7072:7136   */\n      tag_271\n        /* \"#utility.yul\":7128:7135   */\n      dup5\n        /* \"#utility.yul\":7119:7125   */\n      dup3\n        /* \"#utility.yul\":7108:7117   */\n      dup6\n        /* \"#utility.yul\":7104:7126   */\n      add\n        /* \"#utility.yul\":7072:7136   */\n      tag_161\n      jump\t// in\n    tag_271:\n        /* \"#utility.yul\":7062:7136   */\n      swap2\n      pop\n        /* \"#utility.yul\":7018:7146   */\n      pop\n        /* \"#utility.yul\":6802:7153   */\n      swap3\n      swap2\n      pop\n      pop\n      jump\t// out\n        /* \"#utility.yul\":7159:7328   */\n    tag_162:\n        /* \"#utility.yul\":7243:7254   */\n      0x00\n        /* \"#utility.yul\":7277:7283   */\n      dup3\n        /* \"#utility.yul\":7272:7275   */\n      dup3\n        /* \"#utility.yul\":7265:7284   */\n      mstore\n        /* \"#utility.yul\":7317:7321   */\n      0x20\n        /* \"#utility.yul\":7312:7315   */\n      dup3\n        /* \"#utility.yul\":7308:7322   */\n      add\n        /* \"#utility.yul\":7293:7322   */\n      swap1\n      pop\n        /* \"#utility.yul\":7159:7328   */\n      swap3\n      swap2\n      pop\n      pop\n      jump\t// out\n        /* \"#utility.yul\":7334:7507   */\n    tag_163:\n        /* \"#utility.yul\":7474:7499   */\n      0x43616c6c6572206973206e6f7420746865206f776e6572000000000000000000\n        /* \"#utility.yul\":7470:7471   */\n      0x00\n        /* \"#utility.yul\":7462:7468   */\n      dup3\n        /* \"#utility.yul\":7458:7472   */\n      add\n        /* \"#utility.yul\":7451:7500   */\n      mstore\n        /* \"#utility.yul\":7334:7507   */\n      pop\n      jump\t// out\n        /* \"#utility.yul\":7513:7879   */\n    tag_164:\n        /* \"#utility.yul\":7655:7658   */\n      0x00\n        /* \"#utility.yul\":7676:7743   */\n      tag_275\n        /* \"#utility.yul\":7740:7742   */\n      0x17\n        /* \"#utility.yul\":7735:7738   */\n      dup4\n        /* \"#utility.yul\":7676:7743   */\n      tag_162\n      jump\t// in\n    tag_275:\n        /* \"#utility.yul\":7669:7743   */\n      swap2\n      pop\n        /* \"#utility.yul\":7752:7845   */\n      tag_276\n        /* \"#utility.yul\":7841:7844   */\n      dup3\n        /* \"#utility.yul\":7752:7845   */\n      tag_163\n      jump\t// in\n    tag_276:\n        /* \"#utility.yul\":7870:7872   */\n      0x20\n        /* \"#utility.yul\":7865:7868   */\n      dup3\n        /* \"#utility.yul\":7861:7873   */\n      add\n        /* \"#utility.yul\":7854:7873   */\n      swap1\n      pop\n        /* \"#utility.yul\":7513:7879   */\n      swap2\n      swap1\n      pop\n      jump\t// out\n        /* \"#utility.yul\":7885:8304   */\n    tag_55:\n        /* \"#utility.yul\":8051:8055   */\n      0x00\n        /* \"#utility.yul\":8089:8091   */\n      0x20\n        /* \"#utility.yul\":8078:8087   */\n      dup3\n        /* \"#utility.yul\":8074:8092   */\n      add\n        /* \"#utility.yul\":8066:8092   */\n      swap1\n      pop\n        /* \"#utility.yul\":8138:8147   */\n      dup2\n        /* \"#utility.yul\":8132:8136   */\n      dup2\n        /* \"#utility.yul\":8128:8148   */\n      sub\n        /* \"#utility.yul\":8124:8125   */\n      0x00\n        /* \"#utility.yul\":8113:8122   */\n      dup4\n        /* \"#utility.yul\":8109:8126   */\n      add\n        /* \"#utility.yul\":8102:8149   */\n      mstore\n        /* \"#utility.yul\":8166:8297   */\n      tag_278\n        /* \"#utility.yul\":8292:8296   */\n      dup2\n        /* \"#utility.yul\":8166:8297   */\n      tag_164\n      jump\t// in\n    tag_278:\n        /* \"#utility.yul\":8158:8297   */\n      swap1\n      pop\n        /* \"#utility.yul\":7885:8304   */\n      swap2\n      swap1\n      pop\n      jump\t// out\n        /* \"#utility.yul\":8310:8409   */\n    tag_165:\n        /* \"#utility.yul\":8362:8368   */\n      0x00\n        /* \"#utility.yul\":8396:8401   */\n      dup2\n        /* \"#utility.yul\":8390:8402   */\n      mload\n        /* \"#utility.yul\":8380:8402   */\n      swap1\n      pop\n        /* \"#utility.yul\":8310:8409   */\n      swap2\n      swap1\n      pop\n      jump\t// out\n        /* \"#utility.yul\":8415:8554   */\n    tag_166:\n        /* \"#utility.yul\":8504:8510   */\n      dup3\n        /* \"#utility.yul\":8499:8502   */\n      dup2\n        /* \"#utility.yul\":8494:8497   */\n      dup4\n        /* \"#utility.yul\":8488:8511   */\n      mcopy\n        /* \"#utility.yul\":8545:8546   */\n      0x00\n        /* \"#utility.yul\":8536:8542   */\n      dup4\n        /* \"#utility.yul\":8531:8534   */\n      dup4\n        /* \"#utility.yul\":8527:8543   */\n      add\n        /* \"#utility.yul\":8520:8547   */\n      mstore\n        /* \"#utility.yul\":8415:8554   */\n      pop\n      pop\n      pop\n      jump\t// out\n        /* \"#utility.yul\":8560:8937   */\n    tag_167:\n        /* \"#utility.yul\":8648:8651   */\n      0x00\n        /* \"#utility.yul\":8676:8715   */\n      tag_282\n        /* \"#utility.yul\":8709:8714   */\n      dup3\n        /* \"#utility.yul\":8676:8715   */\n      tag_165\n      jump\t// in\n    tag_282:\n        /* \"#utility.yul\":8731:8802   */\n      tag_283\n        /* \"#utility.yul\":8795:8801   */\n      dup2\n        /* \"#utility.yul\":8790:8793   */\n      dup6\n        /* \"#utility.yul\":8731:8802   */\n      tag_162\n      jump\t// in\n    tag_283:\n        /* \"#utility.yul\":8724:8802   */\n      swap4\n      pop\n        /* \"#utility.yul\":8811:8876   */\n      tag_284\n        /* \"#utility.yul\":8869:8875   */\n      dup2\n        /* \"#utility.yul\":8864:8867   */\n      dup6\n        /* \"#utility.yul\":8857:8861   */\n      0x20\n        /* \"#utility.yul\":8850:8855   */\n      dup7\n        /* \"#utility.yul\":8846:8862   */\n      add\n        /* \"#utility.yul\":8811:8876   */\n      tag_166\n      jump\t// in\n    tag_284:\n        /* \"#utility.yul\":8901:8930   */\n      tag_285\n        /* \"#utility.yul\":8923:8929   */\n      dup2\n        /* \"#utility.yul\":8901:8930   */\n      tag_144\n      jump\t// in\n    tag_285:\n        /* \"#utility.yul\":8896:8899   */\n      dup5\n        /* \"#utility.yul\":8892:8931   */\n      add\n        /* \"#utility.yul\":8885:8931   */\n      swap2\n      pop\n        /* \"#utility.yul\":8652:8937   */\n      pop\n        /* \"#utility.yul\":8560:8937   */\n      swap3\n      swap2\n      pop\n      pop\n      jump\t// out\n        /* \"#utility.yul\":8943:9256   */\n    tag_61:\n        /* \"#utility.yul\":9056:9060   */\n      0x00\n        /* \"#utility.yul\":9094:9096   */\n      0x20\n        /* \"#utility.yul\":9083:9092   */\n      dup3\n        /* \"#utility.yul\":9079:9097   */\n      add\n        /* \"#utility.yul\":9071:9097   */\n      swap1\n      pop\n        /* \"#utility.yul\":9143:9152   */\n      dup2\n        /* \"#utility.yul\":9137:9141   */\n      dup2\n        /* \"#utility.yul\":9133:9153   */\n      sub\n        /* \"#utility.yul\":9129:9130   */\n      0x00\n        /* \"#utility.yul\":9118:9127   */\n      dup4\n        /* \"#utility.yul\":9114:9131   */\n      add\n        /* \"#utility.yul\":9107:9154   */\n      mstore\n        /* \"#utility.yul\":9171:9249   */\n      tag_287\n        /* \"#utility.yul\":9244:9248   */\n      dup2\n        /* \"#utility.yul\":9235:9241   */\n      dup5\n        /* \"#utility.yul\":9171:9249   */\n      tag_167\n      jump\t// in\n    tag_287:\n        /* \"#utility.yul\":9163:9249   */\n      swap1\n      pop\n        /* \"#utility.yul\":8943:9256   */\n      swap3\n      swap2\n      pop\n      pop\n      jump\t// out\n        /* \"#utility.yul\":9262:9440   */\n    tag_168:\n        /* \"#utility.yul\":9402:9432   */\n      0x6d73672e73656e646572206973206e6f742065746620726f7574657200000000\n        /* \"#utility.yul\":9398:9399   */\n      0x00\n        /* \"#utility.yul\":9390:9396   */\n      dup3\n        /* \"#utility.yul\":9386:9400   */\n      add\n        /* \"#utility.yul\":9379:9433   */\n      mstore\n        /* \"#utility.yul\":9262:9440   */\n      pop\n      jump\t// out\n        /* \"#utility.yul\":9446:9812   */\n    tag_169:\n        /* \"#utility.yul\":9588:9591   */\n      0x00\n        /* \"#utility.yul\":9609:9676   */\n      tag_290\n        /* \"#utility.yul\":9673:9675   */\n      0x1c\n        /* \"#utility.yul\":9668:9671   */\n      dup4\n        /* \"#utility.yul\":9609:9676   */\n      tag_162\n      jump\t// in\n    tag_290:\n        /* \"#utility.yul\":9602:9676   */\n      swap2\n      pop\n        /* \"#utility.yul\":9685:9778   */\n      tag_291\n        /* \"#utility.yul\":9774:9777   */\n      dup3\n        /* \"#utility.yul\":9685:9778   */\n      tag_168\n      jump\t// in\n    tag_291:\n        /* \"#utility.yul\":9803:9805   */\n      0x20\n        /* \"#utility.yul\":9798:9801   */\n      dup3\n        /* \"#utility.yul\":9794:9806   */\n      add\n        /* \"#utility.yul\":9787:9806   */\n      swap1\n      pop\n        /* \"#utility.yul\":9446:9812   */\n      swap2\n      swap1\n      pop\n      jump\t// out\n        /* \"#utility.yul\":9818:10237   */\n    tag_69:\n        /* \"#utility.yul\":9984:9988   */\n      0x00\n        /* \"#utility.yul\":10022:10024   */\n      0x20\n        /* \"#utility.yul\":10011:10020   */\n      dup3\n        /* \"#utility.yul\":10007:10025   */\n      add\n        /* \"#utility.yul\":9999:10025   */\n      swap1\n      pop\n        /* \"#utility.yul\":10071:10080   */\n      dup2\n        /* \"#utility.yul\":10065:10069   */\n      dup2\n        /* \"#utility.yul\":10061:10081   */\n      sub\n        /* \"#utility.yul\":10057:10058   */\n      0x00\n        /* \"#utility.yul\":10046:10055   */\n      dup4\n        /* \"#utility.yul\":10042:10059   */\n      add\n        /* \"#utility.yul\":10035:10082   */\n      mstore\n        /* \"#utility.yul\":10099:10230   */\n      tag_293\n        /* \"#utility.yul\":10225:10229   */\n      dup2\n        /* \"#utility.yul\":10099:10230   */\n      tag_169\n      jump\t// in\n    tag_293:\n        /* \"#utility.yul\":10091:10230   */\n      swap1\n      pop\n        /* \"#utility.yul\":9818:10237   */\n      swap2\n      swap1\n      pop\n      jump\t// out\n        /* \"#utility.yul\":10243:10361   */\n    tag_170:\n        /* \"#utility.yul\":10330:10354   */\n      tag_295\n        /* \"#utility.yul\":10348:10353   */\n      dup2\n        /* \"#utility.yul\":10330:10354   */\n      tag_153\n      jump\t// in\n    tag_295:\n        /* \"#utility.yul\":10325:10328   */\n      dup3\n        /* \"#utility.yul\":10318:10355   */\n      mstore\n        /* \"#utility.yul\":10243:10361   */\n      pop\n      pop\n      jump\t// out\n        /* \"#utility.yul\":10367:10699   */\n    tag_95:\n        /* \"#utility.yul\":10488:10492   */\n      0x00\n        /* \"#utility.yul\":10526:10528   */\n      0x40\n        /* \"#utility.yul\":10515:10524   */\n      dup3\n        /* \"#utility.yul\":10511:10529   */\n      add\n        /* \"#utility.yul\":10503:10529   */\n      swap1\n      pop\n        /* \"#utility.yul\":10539:10610   */\n      tag_297\n        /* \"#utility.yul\":10607:10608   */\n      0x00\n        /* \"#utility.yul\":10596:10605   */\n      dup4\n        /* \"#utility.yul\":10592:10609   */\n      add\n        /* \"#utility.yul\":10583:10589   */\n      dup6\n        /* \"#utility.yul\":10539:10610   */\n      tag_152\n      jump\t// in\n    tag_297:\n        /* \"#utility.yul\":10620:10692   */\n      tag_298\n        /* \"#utility.yul\":10688:10690   */\n      0x20\n        /* \"#utility.yul\":10677:10686   */\n      dup4\n        /* \"#utility.yul\":10673:10691   */\n      add\n        /* \"#utility.yul\":10664:10670   */\n      dup5\n        /* \"#utility.yul\":10620:10692   */\n      tag_170\n      jump\t// in\n    tag_298:\n        /* \"#utility.yul\":10367:10699   */\n      swap4\n      swap3\n      pop\n      pop\n      pop\n      jump\t// out\n        /* \"#utility.yul\":10705:10795   */\n    tag_171:\n        /* \"#utility.yul\":10739:10746   */\n      0x00\n        /* \"#utility.yul\":10782:10787   */\n      dup2\n        /* \"#utility.yul\":10775:10788   */\n      iszero\n        /* \"#utility.yul\":10768:10789   */\n      iszero\n        /* \"#utility.yul\":10757:10789   */\n      swap1\n      pop\n        /* \"#utility.yul\":10705:10795   */\n      swap2\n      swap1\n      pop\n      jump\t// out\n        /* \"#utility.yul\":10801:10917   */\n    tag_172:\n        /* \"#utility.yul\":10871:10892   */\n      tag_301\n        /* \"#utility.yul\":10886:10891   */\n      dup2\n        /* \"#utility.yul\":10871:10892   */\n      tag_171\n      jump\t// in\n    tag_301:\n        /* \"#utility.yul\":10864:10869   */\n      dup2\n        /* \"#utility.yul\":10861:10893   */\n      eq\n        /* \"#utility.yul\":10851:10911   */\n      tag_302\n      jumpi\n        /* \"#utility.yul\":10907:10908   */\n      0x00\n        /* \"#utility.yul\":10904:10905   */\n      0x00\n        /* \"#utility.yul\":10897:10909   */\n      revert\n        /* \"#utility.yul\":10851:10911   */\n    tag_302:\n        /* \"#utility.yul\":10801:10917   */\n      pop\n      jump\t// out\n        /* \"#utility.yul\":10923:11060   */\n    tag_173:\n        /* \"#utility.yul\":10977:10982   */\n      0x00\n        /* \"#utility.yul\":11008:11014   */\n      dup2\n        /* \"#utility.yul\":11002:11015   */\n      mload\n        /* \"#utility.yul\":10993:11015   */\n      swap1\n      pop\n        /* \"#utility.yul\":11024:11054   */\n      tag_304\n        /* \"#utility.yul\":11048:11053   */\n      dup2\n        /* \"#utility.yul\":11024:11054   */\n      tag_172\n      jump\t// in\n    tag_304:\n        /* \"#utility.yul\":10923:11060   */\n      swap3\n      swap2\n      pop\n      pop\n      jump\t// out\n        /* \"#utility.yul\":11066:11411   */\n    tag_99:\n        /* \"#utility.yul\":11133:11139   */\n      0x00\n        /* \"#utility.yul\":11182:11184   */\n      0x20\n        /* \"#utility.yul\":11170:11179   */\n      dup3\n        /* \"#utility.yul\":11161:11168   */\n      dup5\n        /* \"#utility.yul\":11157:11180   */\n      sub\n        /* \"#utility.yul\":11153:11185   */\n      slt\n        /* \"#utility.yul\":11150:11269   */\n      iszero\n      tag_306\n      jumpi\n        /* \"#utility.yul\":11188:11267   */\n      tag_307\n      tag_136\n      jump\t// in\n    tag_307:\n        /* \"#utility.yul\":11150:11269   */\n    tag_306:\n        /* \"#utility.yul\":11308:11309   */\n      0x00\n        /* \"#utility.yul\":11333:11394   */\n      tag_308\n        /* \"#utility.yul\":11386:11393   */\n      dup5\n        /* \"#utility.yul\":11377:11383   */\n      dup3\n        /* \"#utility.yul\":11366:11375   */\n      dup6\n        /* \"#utility.yul\":11362:11384   */\n      add\n        /* \"#utility.yul\":11333:11394   */\n      tag_173\n      jump\t// in\n    tag_308:\n        /* \"#utility.yul\":11323:11394   */\n      swap2\n      pop\n        /* \"#utility.yul\":11279:11404   */\n      pop\n        /* \"#utility.yul\":11066:11411   */\n      swap3\n      swap2\n      pop\n      pop\n      jump\t// out\n        /* \"#utility.yul\":11417:11599   */\n    tag_174:\n        /* \"#utility.yul\":11557:11591   */\n      0x4469726563746f72792063616e6e6f74206265207a65726f2061646472657373\n        /* \"#utility.yul\":11553:11554   */\n      0x00\n        /* \"#utility.yul\":11545:11551   */\n      dup3\n        /* \"#utility.yul\":11541:11555   */\n      add\n        /* \"#utility.yul\":11534:11592   */\n      mstore\n        /* \"#utility.yul\":11417:11599   */\n      pop\n      jump\t// out\n        /* \"#utility.yul\":11605:11971   */\n    tag_175:\n        /* \"#utility.yul\":11747:11750   */\n      0x00\n        /* \"#utility.yul\":11768:11835   */\n      tag_311\n        /* \"#utility.yul\":11832:11834   */\n      0x20\n        /* \"#utility.yul\":11827:11830   */\n      dup4\n        /* \"#utility.yul\":11768:11835   */\n      tag_162\n      jump\t// in\n    tag_311:\n        /* \"#utility.yul\":11761:11835   */\n      swap2\n      pop\n        /* \"#utility.yul\":11844:11937   */\n      tag_312\n        /* \"#utility.yul\":11933:11936   */\n      dup3\n        /* \"#utility.yul\":11844:11937   */\n      tag_174\n      jump\t// in\n    tag_312:\n        /* \"#utility.yul\":11962:11964   */\n      0x20\n        /* \"#utility.yul\":11957:11960   */\n      dup3\n        /* \"#utility.yul\":11953:11965   */\n      add\n        /* \"#utility.yul\":11946:11965   */\n      swap1\n      pop\n        /* \"#utility.yul\":11605:11971   */\n      swap2\n      swap1\n      pop\n      jump\t// out\n        /* \"#utility.yul\":11977:12396   */\n    tag_103:\n        /* \"#utility.yul\":12143:12147   */\n      0x00\n        /* \"#utility.yul\":12181:12183   */\n      0x20\n        /* \"#utility.yul\":12170:12179   */\n      dup3\n        /* \"#utility.yul\":12166:12184   */\n      add\n        /* \"#utility.yul\":12158:12184   */\n      swap1\n      pop\n        /* \"#utility.yul\":12230:12239   */\n      dup2\n        /* \"#utility.yul\":12224:12228   */\n      dup2\n        /* \"#utility.yul\":12220:12240   */\n      sub\n        /* \"#utility.yul\":12216:12217   */\n      0x00\n        /* \"#utility.yul\":12205:12214   */\n      dup4\n        /* \"#utility.yul\":12201:12218   */\n      add\n        /* \"#utility.yul\":12194:12241   */\n      mstore\n        /* \"#utility.yul\":12258:12389   */\n      tag_314\n        /* \"#utility.yul\":12384:12388   */\n      dup2\n        /* \"#utility.yul\":12258:12389   */\n      tag_175\n      jump\t// in\n    tag_314:\n        /* \"#utility.yul\":12250:12389   */\n      swap1\n      pop\n        /* \"#utility.yul\":11977:12396   */\n      swap2\n      swap1\n      pop\n      jump\t// out\n        /* \"#utility.yul\":12402:12580   */\n    tag_176:\n        /* \"#utility.yul\":12542:12572   */\n      0x4469726563746f7279206d757374206265206120636f6e747261637400000000\n        /* \"#utility.yul\":12538:12539   */\n      0x00\n        /* \"#utility.yul\":12530:12536   */\n      dup3\n        /* \"#utility.yul\":12526:12540   */\n      add\n        /* \"#utility.yul\":12519:12573   */\n      mstore\n        /* \"#utility.yul\":12402:12580   */\n      pop\n      jump\t// out\n        /* \"#utility.yul\":12586:12952   */\n    tag_177:\n        /* \"#utility.yul\":12728:12731   */\n      0x00\n        /* \"#utility.yul\":12749:12816   */\n      tag_317\n        /* \"#utility.yul\":12813:12815   */\n      0x1c\n        /* \"#utility.yul\":12808:12811   */\n      dup4\n        /* \"#utility.yul\":12749:12816   */\n      tag_162\n      jump\t// in\n    tag_317:\n        /* \"#utility.yul\":12742:12816   */\n      swap2\n      pop\n        /* \"#utility.yul\":12825:12918   */\n      tag_318\n        /* \"#utility.yul\":12914:12917   */\n      dup3\n        /* \"#utility.yul\":12825:12918   */\n      tag_176\n      jump\t// in\n    tag_318:\n        /* \"#utility.yul\":12943:12945   */\n      0x20\n        /* \"#utility.yul\":12938:12941   */\n      dup3\n        /* \"#utility.yul\":12934:12946   */\n      add\n        /* \"#utility.yul\":12927:12946   */\n      swap1\n      pop\n        /* \"#utility.yul\":12586:12952   */\n      swap2\n      swap1\n      pop\n      jump\t// out\n        /* \"#utility.yul\":12958:13377   */\n    tag_106:\n        /* \"#utility.yul\":13124:13128   */\n      0x00\n        /* \"#utility.yul\":13162:13164   */\n      0x20\n        /* \"#utility.yul\":13151:13160   */\n      dup3\n        /* \"#utility.yul\":13147:13165   */\n      add\n        /* \"#utility.yul\":13139:13165   */\n      swap1\n      pop\n        /* \"#utility.yul\":13211:13220   */\n      dup2\n        /* \"#utility.yul\":13205:13209   */\n      dup2\n        /* \"#utility.yul\":13201:13221   */\n      sub\n        /* \"#utility.yul\":13197:13198   */\n      0x00\n        /* \"#utility.yul\":13186:13195   */\n      dup4\n        /* \"#utility.yul\":13182:13199   */\n      add\n        /* \"#utility.yul\":13175:13222   */\n      mstore\n        /* \"#utility.yul\":13239:13370   */\n      tag_320\n        /* \"#utility.yul\":13365:13369   */\n      dup2\n        /* \"#utility.yul\":13239:13370   */\n      tag_177\n      jump\t// in\n    tag_320:\n        /* \"#utility.yul\":13231:13370   */\n      swap1\n      pop\n        /* \"#utility.yul\":12958:13377   */\n      swap2\n      swap1\n      pop\n      jump\t// out\n        /* \"#utility.yul\":13383:13614   */\n    tag_178:\n        /* \"#utility.yul\":13523:13557   */\n      0x4469726563746f7279206164647265737320646f6573206e6f7420696d706c65\n        /* \"#utility.yul\":13519:13520   */\n      0x00\n        /* \"#utility.yul\":13511:13517   */\n      dup3\n        /* \"#utility.yul\":13507:13521   */\n      add\n        /* \"#utility.yul\":13500:13558   */\n      mstore\n        /* \"#utility.yul\":13592:13606   */\n      0x6d656e74206f776e657228290000000000000000000000000000000000000000\n        /* \"#utility.yul\":13587:13589   */\n      0x20\n        /* \"#utility.yul\":13579:13585   */\n      dup3\n        /* \"#utility.yul\":13575:13590   */\n      add\n        /* \"#utility.yul\":13568:13607   */\n      mstore\n        /* \"#utility.yul\":13383:13614   */\n      pop\n      jump\t// out\n        /* \"#utility.yul\":13620:13986   */\n    tag_179:\n        /* \"#utility.yul\":13762:13765   */\n      0x00\n        /* \"#utility.yul\":13783:13850   */\n      tag_323\n        /* \"#utility.yul\":13847:13849   */\n      0x2c\n        /* \"#utility.yul\":13842:13845   */\n      dup4\n        /* \"#utility.yul\":13783:13850   */\n      tag_162\n      jump\t// in\n    tag_323:\n        /* \"#utility.yul\":13776:13850   */\n      swap2\n      pop\n        /* \"#utility.yul\":13859:13952   */\n      tag_324\n        /* \"#utility.yul\":13948:13951   */\n      dup3\n        /* \"#utility.yul\":13859:13952   */\n      tag_178\n      jump\t// in\n    tag_324:\n        /* \"#utility.yul\":13977:13979   */\n      0x40\n        /* \"#utility.yul\":13972:13975   */\n      dup3\n        /* \"#utility.yul\":13968:13980   */\n      add\n        /* \"#utility.yul\":13961:13980   */\n      swap1\n      pop\n        /* \"#utility.yul\":13620:13986   */\n      swap2\n      swap1\n      pop\n      jump\t// out\n        /* \"#utility.yul\":13992:14411   */\n    tag_114:\n        /* \"#utility.yul\":14158:14162   */\n      0x00\n        /* \"#utility.yul\":14196:14198   */\n      0x20\n        /* \"#utility.yul\":14185:14194   */\n      dup3\n        /* \"#utility.yul\":14181:14199   */\n      add\n        /* \"#utility.yul\":14173:14199   */\n      swap1\n      pop\n        /* \"#utility.yul\":14245:14254   */\n      dup2\n        /* \"#utility.yul\":14239:14243   */\n      dup2\n        /* \"#utility.yul\":14235:14255   */\n      sub\n        /* \"#utility.yul\":14231:14232   */\n      0x00\n        /* \"#utility.yul\":14220:14229   */\n      dup4\n        /* \"#utility.yul\":14216:14233   */\n      add\n        /* \"#utility.yul\":14209:14256   */\n      mstore\n        /* \"#utility.yul\":14273:14404   */\n      tag_326\n        /* \"#utility.yul\":14399:14403   */\n      dup2\n        /* \"#utility.yul\":14273:14404   */\n      tag_179\n      jump\t// in\n    tag_326:\n        /* \"#utility.yul\":14265:14404   */\n      swap1\n      pop\n        /* \"#utility.yul\":13992:14411   */\n      swap2\n      swap1\n      pop\n      jump\t// out\n        /* \"#utility.yul\":14417:14560   */\n    tag_180:\n        /* \"#utility.yul\":14474:14479   */\n      0x00\n        /* \"#utility.yul\":14505:14511   */\n      dup2\n        /* \"#utility.yul\":14499:14512   */\n      mload\n        /* \"#utility.yul\":14490:14512   */\n      swap1\n      pop\n        /* \"#utility.yul\":14521:14554   */\n      tag_328\n        /* \"#utility.yul\":14548:14553   */\n      dup2\n        /* \"#utility.yul\":14521:14554   */\n      tag_154\n      jump\t// in\n    tag_328:\n        /* \"#utility.yul\":14417:14560   */\n      swap3\n      swap2\n      pop\n      pop\n      jump\t// out\n        /* \"#utility.yul\":14566:14917   */\n    tag_126:\n        /* \"#utility.yul\":14636:14642   */\n      0x00\n        /* \"#utility.yul\":14685:14687   */\n      0x20\n        /* \"#utility.yul\":14673:14682   */\n      dup3\n        /* \"#utility.yul\":14664:14671   */\n      dup5\n        /* \"#utility.yul\":14660:14683   */\n      sub\n        /* \"#utility.yul\":14656:14688   */\n      slt\n        /* \"#utility.yul\":14653:14772   */\n      iszero\n      tag_330\n      jumpi\n        /* \"#utility.yul\":14691:14770   */\n      tag_331\n      tag_136\n      jump\t// in\n    tag_331:\n        /* \"#utility.yul\":14653:14772   */\n    tag_330:\n        /* \"#utility.yul\":14811:14812   */\n      0x00\n        /* \"#utility.yul\":14836:14900   */\n      tag_332\n        /* \"#utility.yul\":14892:14899   */\n      dup5\n        /* \"#utility.yul\":14883:14889   */\n      dup3\n        /* \"#utility.yul\":14872:14881   */\n      dup6\n        /* \"#utility.yul\":14868:14890   */\n      add\n        /* \"#utility.yul\":14836:14900   */\n      tag_180\n      jump\t// in\n    tag_332:\n        /* \"#utility.yul\":14826:14900   */\n      swap2\n      pop\n        /* \"#utility.yul\":14782:14910   */\n      pop\n        /* \"#utility.yul\":14566:14917   */\n      swap3\n      swap2\n      pop\n      pop\n      jump\t// out\n        /* \"#utility.yul\":14923:15070   */\n    tag_181:\n        /* \"#utility.yul\":15024:15035   */\n      0x00\n        /* \"#utility.yul\":15061:15064   */\n      dup2\n        /* \"#utility.yul\":15046:15064   */\n      swap1\n      pop\n        /* \"#utility.yul\":14923:15070   */\n      swap3\n      swap2\n      pop\n      pop\n      jump\t// out\n        /* \"#utility.yul\":15076:15190   */\n    tag_182:\n      pop\n      jump\t// out\n        /* \"#utility.yul\":15196:15594   */\n    tag_183:\n        /* \"#utility.yul\":15355:15358   */\n      0x00\n        /* \"#utility.yul\":15376:15459   */\n      tag_336\n        /* \"#utility.yul\":15457:15458   */\n      0x00\n        /* \"#utility.yul\":15452:15455   */\n      dup4\n        /* \"#utility.yul\":15376:15459   */\n      tag_181\n      jump\t// in\n    tag_336:\n        /* \"#utility.yul\":15369:15459   */\n      swap2\n      pop\n        /* \"#utility.yul\":15468:15561   */\n      tag_337\n        /* \"#utility.yul\":15557:15560   */\n      dup3\n        /* \"#utility.yul\":15468:15561   */\n      tag_182\n      jump\t// in\n    tag_337:\n        /* \"#utility.yul\":15586:15587   */\n      0x00\n        /* \"#utility.yul\":15581:15584   */\n      dup3\n        /* \"#utility.yul\":15577:15588   */\n      add\n        /* \"#utility.yul\":15570:15588   */\n      swap1\n      pop\n        /* \"#utility.yul\":15196:15594   */\n      swap2\n      swap1\n      pop\n      jump\t// out\n        /* \"#utility.yul\":15600:15979   */\n    tag_130:\n        /* \"#utility.yul\":15784:15787   */\n      0x00\n        /* \"#utility.yul\":15806:15953   */\n      tag_339\n        /* \"#utility.yul\":15949:15952   */\n      dup3\n        /* \"#utility.yul\":15806:15953   */\n      tag_183\n      jump\t// in\n    tag_339:\n        /* \"#utility.yul\":15799:15953   */\n      swap2\n      pop\n        /* \"#utility.yul\":15970:15973   */\n      dup2\n        /* \"#utility.yul\":15963:15973   */\n      swap1\n      pop\n        /* \"#utility.yul\":15600:15979   */\n      swap2\n      swap1\n      pop\n      jump\t// out\n\n    auxdata: 0xa2646970667358221220631b9742ac992dd887dee1380682e5686fe8310bd9b982b03ecb6631051fc5ff64736f6c634300081e0033\n}\n",
				"bytecode": {
					"linkReferences": {},
					"object": "608060405234801561000f575f5ffd5b5060405161160538038061160583398181016040528101906100319190610257565b806100418161004860201b60201c565b50506103f0565b5f73ffffffffffffffffffffffffffffffffffffffff168173ffffffffffffffffffffffffffffffffffffffff16036100b6576040517f08c379a00000000000000000000000000000000000000000000000000000000081526004016100ad906102dc565b60405180910390fd5b5f8173ffffffffffffffffffffffffffffffffffffffff163b1161010f576040517f08c379a000000000000000000000000000000000000000000000000000000000815260040161010690610344565b60405180910390fd5b8073ffffffffffffffffffffffffffffffffffffffff16638da5cb5b6040518163ffffffff1660e01b8152600401602060405180830381865afa92505050801561017757506040513d601f19601f820116820180604052508101906101749190610257565b60015b6101b6576040517f08c379a00000000000000000000000000000000000000000000000000000000081526004016101ad906103d2565b60405180910390fd5b815f5f6101000a81548173ffffffffffffffffffffffffffffffffffffffff021916908373ffffffffffffffffffffffffffffffffffffffff1602179055505050565b5f5ffd5b5f73ffffffffffffffffffffffffffffffffffffffff82169050919050565b5f610226826101fd565b9050919050565b6102368161021c565b8114610240575f5ffd5b50565b5f815190506102518161022d565b92915050565b5f6020828403121561026c5761026b6101f9565b5b5f61027984828501610243565b91505092915050565b5f82825260208201905092915050565b7f4469726563746f72792063616e6e6f74206265207a65726f20616464726573735f82015250565b5f6102c6602083610282565b91506102d182610292565b602082019050919050565b5f6020820190508181035f8301526102f3816102ba565b9050919050565b7f4469726563746f7279206d757374206265206120636f6e7472616374000000005f82015250565b5f61032e601c83610282565b9150610339826102fa565b602082019050919050565b5f6020820190508181035f83015261035b81610322565b9050919050565b7f4469726563746f7279206164647265737320646f6573206e6f7420696d706c655f8201527f6d656e74206f776e657228290000000000000000000000000000000000000000602082015250565b5f6103bc602c83610282565b91506103c782610362565b604082019050919050565b5f6020820190508181035f8301526103e9816103b0565b9050919050565b611208806103fd5f395ff3fe608060405260043610610073575f3560e01c8063658a847a1161004d578063658a847a1461010a5780638da5cb5b14610134578063ba4c7be11461015e578063c4d66de8146101865761007a565b806309053ac41461007e57806327262618146100a65780635c833bfd146100e25761007a565b3661007a57005b5f5ffd5b348015610089575f5ffd5b506100a4600480360381019061009f9190610ac4565b6101ae565b005b3480156100b1575f5ffd5b506100cc60048036038101906100c79190610c3e565b6102b6565b6040516100d99190610c94565b60405180910390f35b3480156100ed575f5ffd5b5061010860048036038101906101039190610ce0565b610356565b005b348015610115575f5ffd5b5061011e610411565b60405161012b9190610d8b565b60405180910390f35b34801561013f575f5ffd5b50610148610435565b6040516101559190610c94565b60405180910390f35b348015610169575f5ffd5b50610184600480360381019061017f9190610da4565b6104c8565b005b348015610191575f5ffd5b506101ac60048036038101906101a79190610da4565b6105ce565b005b5f5f9054906101000a900473ffffffffffffffffffffffffffffffffffffffff1673ffffffffffffffffffffffffffffffffffffffff16638da5cb5b6040518163ffffffff1660e01b8152600401602060405180830381865afa158015610217573d5f5f3e3d5ffd5b505050506040513d601f19601f8201168201806040525081019061023b9190610de3565b73ffffffffffffffffffffffffffffffffffffffff163373ffffffffffffffffffffffffffffffffffffffff16146102a8576040517f08c379a000000000000000000000000000000000000000000000000000000000815260040161029f90610e68565b60405180910390fd5b6102b2828261063a565b5050565b5f5f5f9054906101000a900473ffffffffffffffffffffffffffffffffffffffff1673ffffffffffffffffffffffffffffffffffffffff166327262618836040518263ffffffff1660e01b81526004016103109190610ed6565b602060405180830381865afa15801561032b573d5f5f3e3d5ffd5b505050506040513d601f19601f8201168201806040525081019061034f9190610de3565b9050919050565b6103946040518060400160405280600a81526020017f6574662d726f75746572000000000000000000000000000000000000000000008152506102b6565b73ffffffffffffffffffffffffffffffffffffffff163373ffffffffffffffffffffffffffffffffffffffff1614610401576040517f08c379a00000000000000000000000000000000000000000000000000000000081526004016103f890610f40565b60405180910390fd5b61040c838284610648565b505050565b5f5f9054906101000a900473ffffffffffffffffffffffffffffffffffffffff1681565b5f5f5f9054906101000a900473ffffffffffffffffffffffffffffffffffffffff1673ffffffffffffffffffffffffffffffffffffffff16638da5cb5b6040518163ffffffff1660e01b8152600401602060405180830381865afa15801561049f573d5f5f3e3d5ffd5b505050506040513d601f19601f820116820180604052508101906104c39190610de3565b905090565b5f5f9054906101000a900473ffffffffffffffffffffffffffffffffffffffff1673ffffffffffffffffffffffffffffffffffffffff16638da5cb5b6040518163ffffffff1660e01b8152600401602060405180830381865afa158015610531573d5f5f3e3d5ffd5b505050506040513d601f19601f820116820180604052508101906105559190610de3565b73ffffffffffffffffffffffffffffffffffffffff163373ffffffffffffffffffffffffffffffffffffffff16146105c2576040517f08c379a00000000000000000000000000000000000000000000000000000000081526004016105b990610e68565b60405180910390fd5b6105cb81610702565b50565b5f60149054906101000a900460ff1615610614576040517f0dc149f000000000000000000000000000000000000000000000000000000000815260040160405180910390fd5b60015f60146101000a81548160ff02191690831515021790555061063781610702565b50565b61064482826108b3565b5050565b5f8103610681576040517f1f2a200500000000000000000000000000000000000000000000000000000000815260040160405180910390fd5b8273ffffffffffffffffffffffffffffffffffffffff1663a9059cbb83836040518363ffffffff1660e01b81526004016106bc929190610f6d565b6020604051808303815f875af11580156106d8573d5f5f3e3d5ffd5b505050506040513d601f19601f820116820180604052508101906106fc9190610fc9565b50505050565b5f73ffffffffffffffffffffffffffffffffffffffff168173ffffffffffffffffffffffffffffffffffffffff1603610770576040517f08c379a00000000000000000000000000000000000000000000000000000000081526004016107679061103e565b60405180910390fd5b5f8173ffffffffffffffffffffffffffffffffffffffff163b116107c9576040517f08c379a00000000000000000000000000000000000000000000000000000000081526004016107c0906110a6565b60405180910390fd5b8073ffffffffffffffffffffffffffffffffffffffff16638da5cb5b6040518163ffffffff1660e01b8152600401602060405180830381865afa92505050801561083157506040513d601f19601f8201168201806040525081019061082e9190610de3565b60015b610870576040517f08c379a000000000000000000000000000000000000000000000000000000000815260040161086790611134565b60405180910390fd5b815f5f6101000a81548173ffffffffffffffffffffffffffffffffffffffff021916908373ffffffffffffffffffffffffffffffffffffffff1602179055505050565b5f73ffffffffffffffffffffffffffffffffffffffff168273ffffffffffffffffffffffffffffffffffffffff16036108f5576108f0814761097c565b610978565b61097782828473ffffffffffffffffffffffffffffffffffffffff166370a08231306040518263ffffffff1660e01b81526004016109339190610c94565b602060405180830381865afa15801561094e573d5f5f3e3d5ffd5b505050506040513d601f19601f820116820180604052508101906109729190611166565b610648565b5b5050565b5f81036109b5576040517f1f2a200500000000000000000000000000000000000000000000000000000000815260040160405180910390fd5b5f8273ffffffffffffffffffffffffffffffffffffffff16826040516109da906111be565b5f6040518083038185875af1925050503d805f8114610a14576040519150601f19603f3d011682016040523d82523d5f602084013e610a19565b606091505b5050905080610a54576040517f98248e6400000000000000000000000000000000000000000000000000000000815260040160405180910390fd5b505050565b5f604051905090565b5f5ffd5b5f5ffd5b5f73ffffffffffffffffffffffffffffffffffffffff82169050919050565b5f610a9382610a6a565b9050919050565b610aa381610a89565b8114610aad575f5ffd5b50565b5f81359050610abe81610a9a565b92915050565b5f5f60408385031215610ada57610ad9610a62565b5b5f610ae785828601610ab0565b9250506020610af885828601610ab0565b9150509250929050565b5f5ffd5b5f5ffd5b5f601f19601f8301169050919050565b7f4e487b71000000000000000000000000000000000000000000000000000000005f52604160045260245ffd5b610b5082610b0a565b810181811067ffffffffffffffff82111715610b6f57610b6e610b1a565b5b80604052505050565b5f610b81610a59565b9050610b8d8282610b47565b919050565b5f67ffffffffffffffff821115610bac57610bab610b1a565b5b610bb582610b0a565b9050602081019050919050565b828183375f83830152505050565b5f610be2610bdd84610b92565b610b78565b905082815260208101848484011115610bfe57610bfd610b06565b5b610c09848285610bc2565b509392505050565b5f82601f830112610c2557610c24610b02565b5b8135610c35848260208601610bd0565b91505092915050565b5f60208284031215610c5357610c52610a62565b5b5f82013567ffffffffffffffff811115610c7057610c6f610a66565b5b610c7c84828501610c11565b91505092915050565b610c8e81610a89565b82525050565b5f602082019050610ca75f830184610c85565b92915050565b5f819050919050565b610cbf81610cad565b8114610cc9575f5ffd5b50565b5f81359050610cda81610cb6565b92915050565b5f5f5f60608486031215610cf757610cf6610a62565b5b5f610d0486828701610ab0565b9350506020610d1586828701610ccc565b9250506040610d2686828701610ab0565b9150509250925092565b5f819050919050565b5f610d53610d4e610d4984610a6a565b610d30565b610a6a565b9050919050565b5f610d6482610d39565b9050919050565b5f610d7582610d5a565b9050919050565b610d8581610d6b565b82525050565b5f602082019050610d9e5f830184610d7c565b92915050565b5f60208284031215610db957610db8610a62565b5b5f610dc684828501610ab0565b91505092915050565b5f81519050610ddd81610a9a565b92915050565b5f60208284031215610df857610df7610a62565b5b5f610e0584828501610dcf565b91505092915050565b5f82825260208201905092915050565b7f43616c6c6572206973206e6f7420746865206f776e65720000000000000000005f82015250565b5f610e52601783610e0e565b9150610e5d82610e1e565b602082019050919050565b5f6020820190508181035f830152610e7f81610e46565b9050919050565b5f81519050919050565b8281835e5f83830152505050565b5f610ea882610e86565b610eb28185610e0e565b9350610ec2818560208601610e90565b610ecb81610b0a565b840191505092915050565b5f6020820190508181035f830152610eee8184610e9e565b905092915050565b7f6d73672e73656e646572206973206e6f742065746620726f75746572000000005f82015250565b5f610f2a601c83610e0e565b9150610f3582610ef6565b602082019050919050565b5f6020820190508181035f830152610f5781610f1e565b9050919050565b610f6781610cad565b82525050565b5f604082019050610f805f830185610c85565b610f8d6020830184610f5e565b9392505050565b5f8115159050919050565b610fa881610f94565b8114610fb2575f5ffd5b50565b5f81519050610fc381610f9f565b92915050565b5f60208284031215610fde57610fdd610a62565b5b5f610feb84828501610fb5565b91505092915050565b7f4469726563746f72792063616e6e6f74206265207a65726f20616464726573735f82015250565b5f611028602083610e0e565b915061103382610ff4565b602082019050919050565b5f6020820190508181035f8301526110558161101c565b9050919050565b7f4469726563746f7279206d757374206265206120636f6e7472616374000000005f82015250565b5f611090601c83610e0e565b915061109b8261105c565b602082019050919050565b5f6020820190508181035f8301526110bd81611084565b9050919050565b7f4469726563746f7279206164647265737320646f6573206e6f7420696d706c655f8201527f6d656e74206f776e657228290000000000000000000000000000000000000000602082015250565b5f61111e602c83610e0e565b9150611129826110c4565b604082019050919050565b5f6020820190508181035f83015261114b81611112565b9050919050565b5f8151905061116081610cb6565b92915050565b5f6020828403121561117b5761117a610a62565b5b5f61118884828501611152565b91505092915050565b5f81905092915050565b50565b5f6111a95f83611191565b91506111b48261119b565b5f82019050919050565b5f6111c88261119e565b915081905091905056fea2646970667358221220631b9742ac992dd887dee1380682e5686fe8310bd9b982b03ecb6631051fc5ff64736f6c634300081e0033",
					"opcodes": "PUSH1 0x80 PUSH1 0x40 MSTORE CALLVALUE DUP1 ISZERO PUSH2 0xF JUMPI PUSH0 PUSH0 REVERT JUMPDEST POP PUSH1 0x40 MLOAD PUSH2 0x1605 CODESIZE SUB DUP1 PUSH2 0x1605 DUP4 CODECOPY DUP2 DUP2 ADD PUSH1 0x40 MSTORE DUP2 ADD SWAP1 PUSH2 0x31 SWAP2 SWAP1 PUSH2 0x257 JUMP JUMPDEST DUP1 PUSH2 0x41 DUP2 PUSH2 0x48 PUSH1 0x20 SHL PUSH1 0x20 SHR JUMP JUMPDEST POP POP PUSH2 0x3F0 JUMP JUMPDEST PUSH0 PUSH20 0xFFFFFFFFFFFFFFFFFFFFFFFFFFFFFFFFFFFFFFFF AND DUP2 PUSH20 0xFFFFFFFFFFFFFFFFFFFFFFFFFFFFFFFFFFFFFFFF AND SUB PUSH2 0xB6 JUMPI PUSH1 0x40 MLOAD PUSH32 0x8C379A000000000000000000000000000000000000000000000000000000000 DUP2 MSTORE PUSH1 0x4 ADD PUSH2 0xAD SWAP1 PUSH2 0x2DC JUMP JUMPDEST PUSH1 0x40 MLOAD DUP1 SWAP2 SUB SWAP1 REVERT JUMPDEST PUSH0 DUP2 PUSH20 0xFFFFFFFFFFFFFFFFFFFFFFFFFFFFFFFFFFFFFFFF AND EXTCODESIZE GT PUSH2 0x10F JUMPI PUSH1 0x40 MLOAD PUSH32 0x8C379A000000000000000000000000000000000000000000000000000000000 DUP2 MSTORE PUSH1 0x4 ADD PUSH2 0x106 SWAP1 PUSH2 0x344 JUMP JUMPDEST PUSH1 0x40 MLOAD DUP1 SWAP2 SUB SWAP1 REVERT JUMPDEST DUP1 PUSH20 0xFFFFFFFFFFFFFFFFFFFFFFFFFFFFFFFFFFFFFFFF AND PUSH4 0x8DA5CB5B PUSH1 0x40 MLOAD DUP2 PUSH4 0xFFFFFFFF AND PUSH1 0xE0 SHL DUP2 MSTORE PUSH1 0x4 ADD PUSH1 0x20 PUSH1 0x40 MLOAD DUP1 DUP4 SUB DUP2 DUP7 GAS STATICCALL SWAP3 POP POP POP DUP1 ISZERO PUSH2 0x177 JUMPI POP PUSH1 0x40 MLOAD RETURNDATASIZE PUSH1 0x1F NOT PUSH1 0x1F DUP3 ADD AND DUP3 ADD DUP1 PUSH1 0x40 MSTORE POP DUP2 ADD SWAP1 PUSH2 0x174 SWAP2 SWAP1 PUSH2 0x257 JUMP JUMPDEST PUSH1 0x1 JUMPDEST PUSH2 0x1B6 JUMPI PUSH1 0x40 MLOAD PUSH32 0x8C379A000000000000000000000000000000000000000000000000000000000 DUP2 MSTORE PUSH1 0x4 ADD PUSH2 0x1AD SWAP1 PUSH2 0x3D2 JUMP JUMPDEST PUSH1 0x40 MLOAD DUP1 SWAP2 SUB SWAP1 REVERT JUMPDEST DUP2 PUSH0 PUSH0 PUSH2 0x100 EXP DUP2 SLOAD DUP2 PUSH20 0xFFFFFFFFFFFFFFFFFFFFFFFFFFFFFFFFFFFFFFFF MUL NOT AND SWAP1 DUP4 PUSH20 0xFFFFFFFFFFFFFFFFFFFFFFFFFFFFFFFFFFFFFFFF AND MUL OR SWAP1 SSTORE POP POP POP JUMP JUMPDEST PUSH0 PUSH0 REVERT JUMPDEST PUSH0 PUSH20 0xFFFFFFFFFFFFFFFFFFFFFFFFFFFFFFFFFFFFFFFF DUP3 AND SWAP1 POP SWAP2 SWAP1 POP JUMP JUMPDEST PUSH0 PUSH2 0x226 DUP3 PUSH2 0x1FD JUMP JUMPDEST SWAP1 POP SWAP2 SWAP1 POP JUMP JUMPDEST PUSH2 0x236 DUP2 PUSH2 0x21C JUMP JUMPDEST DUP2 EQ PUSH2 0x240 JUMPI PUSH0 PUSH0 REVERT JUMPDEST POP JUMP JUMPDEST PUSH0 DUP2 MLOAD SWAP1 POP PUSH2 0x251 DUP2 PUSH2 0x22D JUMP JUMPDEST SWAP3 SWAP2 POP POP JUMP JUMPDEST PUSH0 PUSH1 0x20 DUP3 DUP5 SUB SLT ISZERO PUSH2 0x26C JUMPI PUSH2 0x26B PUSH2 0x1F9 JUMP JUMPDEST JUMPDEST PUSH0 PUSH2 0x279 DUP5 DUP3 DUP6 ADD PUSH2 0x243 JUMP JUMPDEST SWAP2 POP POP SWAP3 SWAP2 POP POP JUMP JUMPDEST PUSH0 DUP3 DUP3 MSTORE PUSH1 0x20 DUP3 ADD SWAP1 POP SWAP3 SWAP2 POP POP JUMP JUMPDEST PUSH32 0x4469726563746F72792063616E6E6F74206265207A65726F2061646472657373 PUSH0 DUP3 ADD MSTORE POP JUMP JUMPDEST PUSH0 PUSH2 0x2C6 PUSH1 0x20 DUP4 PUSH2 0x282 JUMP JUMPDEST SWAP2 POP PUSH2 0x2D1 DUP3 PUSH2 0x292 JUMP JUMPDEST PUSH1 0x20 DUP3 ADD SWAP1 POP SWAP2 SWAP1 POP JUMP JUMPDEST PUSH0 PUSH1 0x20 DUP3 ADD SWAP1 POP DUP2 DUP2 SUB PUSH0 DUP4 ADD MSTORE PUSH2 0x2F3 DUP2 PUSH2 0x2BA JUMP JUMPDEST SWAP1 POP SWAP2 SWAP1 POP JUMP JUMPDEST PUSH32 0x4469726563746F7279206D757374206265206120636F6E747261637400000000 PUSH0 DUP3 ADD MSTORE POP JUMP JUMPDEST PUSH0 PUSH2 0x32E PUSH1 0x1C DUP4 PUSH2 0x282 JUMP JUMPDEST SWAP2 POP PUSH2 0x339 DUP3 PUSH2 0x2FA JUMP JUMPDEST PUSH1 0x20 DUP3 ADD SWAP1 POP SWAP2 SWAP1 POP JUMP JUMPDEST PUSH0 PUSH1 0x20 DUP3 ADD SWAP1 POP DUP2 DUP2 SUB PUSH0 DUP4 ADD MSTORE PUSH2 0x35B DUP2 PUSH2 0x322 JUMP JUMPDEST SWAP1 POP SWAP2 SWAP1 POP JUMP JUMPDEST PUSH32 0x4469726563746F7279206164647265737320646F6573206E6F7420696D706C65 PUSH0 DUP3 ADD MSTORE PUSH32 0x6D656E74206F776E657228290000000000000000000000000000000000000000 PUSH1 0x20 DUP3 ADD MSTORE POP JUMP JUMPDEST PUSH0 PUSH2 0x3BC PUSH1 0x2C DUP4 PUSH2 0x282 JUMP JUMPDEST SWAP2 POP PUSH2 0x3C7 DUP3 PUSH2 0x362 JUMP JUMPDEST PUSH1 0x40 DUP3 ADD SWAP1 POP SWAP2 SWAP1 POP JUMP JUMPDEST PUSH0 PUSH1 0x20 DUP3 ADD SWAP1 POP DUP2 DUP2 SUB PUSH0 DUP4 ADD MSTORE PUSH2 0x3E9 DUP2 PUSH2 0x3B0 JUMP JUMPDEST SWAP1 POP SWAP2 SWAP1 POP JUMP JUMPDEST PUSH2 0x1208 DUP1 PUSH2 0x3FD PUSH0 CODECOPY PUSH0 RETURN INVALID PUSH1 0x80 PUSH1 0x40 MSTORE PUSH1 0x4 CALLDATASIZE LT PUSH2 0x73 JUMPI PUSH0 CALLDATALOAD PUSH1 0xE0 SHR DUP1 PUSH4 0x658A847A GT PUSH2 0x4D JUMPI DUP1 PUSH4 0x658A847A EQ PUSH2 0x10A JUMPI DUP1 PUSH4 0x8DA5CB5B EQ PUSH2 0x134 JUMPI DUP1 PUSH4 0xBA4C7BE1 EQ PUSH2 0x15E JUMPI DUP1 PUSH4 0xC4D66DE8 EQ PUSH2 0x186 JUMPI PUSH2 0x7A JUMP JUMPDEST DUP1 PUSH4 0x9053AC4 EQ PUSH2 0x7E JUMPI DUP1 PUSH4 0x27262618 EQ PUSH2 0xA6 JUMPI DUP1 PUSH4 0x5C833BFD EQ PUSH2 0xE2 JUMPI PUSH2 0x7A JUMP JUMPDEST CALLDATASIZE PUSH2 0x7A JUMPI STOP JUMPDEST PUSH0 PUSH0 REVERT JUMPDEST CALLVALUE DUP1 ISZERO PUSH2 0x89 JUMPI PUSH0 PUSH0 REVERT JUMPDEST POP PUSH2 0xA4 PUSH1 0x4 DUP1 CALLDATASIZE SUB DUP2 ADD SWAP1 PUSH2 0x9F SWAP2 SWAP1 PUSH2 0xAC4 JUMP JUMPDEST PUSH2 0x1AE JUMP JUMPDEST STOP JUMPDEST CALLVALUE DUP1 ISZERO PUSH2 0xB1 JUMPI PUSH0 PUSH0 REVERT JUMPDEST POP PUSH2 0xCC PUSH1 0x4 DUP1 CALLDATASIZE SUB DUP2 ADD SWAP1 PUSH2 0xC7 SWAP2 SWAP1 PUSH2 0xC3E JUMP JUMPDEST PUSH2 0x2B6 JUMP JUMPDEST PUSH1 0x40 MLOAD PUSH2 0xD9 SWAP2 SWAP1 PUSH2 0xC94 JUMP JUMPDEST PUSH1 0x40 MLOAD DUP1 SWAP2 SUB SWAP1 RETURN JUMPDEST CALLVALUE DUP1 ISZERO PUSH2 0xED JUMPI PUSH0 PUSH0 REVERT JUMPDEST POP PUSH2 0x108 PUSH1 0x4 DUP1 CALLDATASIZE SUB DUP2 ADD SWAP1 PUSH2 0x103 SWAP2 SWAP1 PUSH2 0xCE0 JUMP JUMPDEST PUSH2 0x356 JUMP JUMPDEST STOP JUMPDEST CALLVALUE DUP1 ISZERO PUSH2 0x115 JUMPI PUSH0 PUSH0 REVERT JUMPDEST POP PUSH2 0x11E PUSH2 0x411 JUMP JUMPDEST PUSH1 0x40 MLOAD PUSH2 0x12B SWAP2 SWAP1 PUSH2 0xD8B JUMP JUMPDEST PUSH1 0x40 MLOAD DUP1 SWAP2 SUB SWAP1 RETURN JUMPDEST CALLVALUE DUP1 ISZERO PUSH2 0x13F JUMPI PUSH0 PUSH0 REVERT JUMPDEST POP PUSH2 0x148 PUSH2 0x435 JUMP JUMPDEST PUSH1 0x40 MLOAD PUSH2 0x155 SWAP2 SWAP1 PUSH2 0xC94 JUMP JUMPDEST PUSH1 0x40 MLOAD DUP1 SWAP2 SUB SWAP1 RETURN JUMPDEST CALLVALUE DUP1 ISZERO PUSH2 0x169 JUMPI PUSH0 PUSH0 REVERT JUMPDEST POP PUSH2 0x184 PUSH1 0x4 DUP1 CALLDATASIZE SUB DUP2 ADD SWAP1 PUSH2 0x17F SWAP2 SWAP1 PUSH2 0xDA4 JUMP JUMPDEST PUSH2 0x4C8 JUMP JUMPDEST STOP JUMPDEST CALLVALUE DUP1 ISZERO PUSH2 0x191 JUMPI PUSH0 PUSH0 REVERT JUMPDEST POP PUSH2 0x1AC PUSH1 0x4 DUP1 CALLDATASIZE SUB DUP2 ADD SWAP1 PUSH2 0x1A7 SWAP2 SWAP1 PUSH2 0xDA4 JUMP JUMPDEST PUSH2 0x5CE JUMP JUMPDEST STOP JUMPDEST PUSH0 PUSH0 SWAP1 SLOAD SWAP1 PUSH2 0x100 EXP SWAP1 DIV PUSH20 0xFFFFFFFFFFFFFFFFFFFFFFFFFFFFFFFFFFFFFFFF AND PUSH20 0xFFFFFFFFFFFFFFFFFFFFFFFFFFFFFFFFFFFFFFFF AND PUSH4 0x8DA5CB5B PUSH1 0x40 MLOAD DUP2 PUSH4 0xFFFFFFFF AND PUSH1 0xE0 SHL DUP2 MSTORE PUSH1 0x4 ADD PUSH1 0x20 PUSH1 0x40 MLOAD DUP1 DUP4 SUB DUP2 DUP7 GAS STATICCALL ISZERO DUP1 ISZERO PUSH2 0x217 JUMPI RETURNDATASIZE PUSH0 PUSH0 RETURNDATACOPY RETURNDATASIZE PUSH0 REVERT JUMPDEST POP POP POP POP PUSH1 0x40 MLOAD RETURNDATASIZE PUSH1 0x1F NOT PUSH1 0x1F DUP3 ADD AND DUP3 ADD DUP1 PUSH1 0x40 MSTORE POP DUP2 ADD SWAP1 PUSH2 0x23B SWAP2 SWAP1 PUSH2 0xDE3 JUMP JUMPDEST PUSH20 0xFFFFFFFFFFFFFFFFFFFFFFFFFFFFFFFFFFFFFFFF AND CALLER PUSH20 0xFFFFFFFFFFFFFFFFFFFFFFFFFFFFFFFFFFFFFFFF AND EQ PUSH2 0x2A8 JUMPI PUSH1 0x40 MLOAD PUSH32 0x8C379A000000000000000000000000000000000000000000000000000000000 DUP2 MSTORE PUSH1 0x4 ADD PUSH2 0x29F SWAP1 PUSH2 0xE68 JUMP JUMPDEST PUSH1 0x40 MLOAD DUP1 SWAP2 SUB SWAP1 REVERT JUMPDEST PUSH2 0x2B2 DUP3 DUP3 PUSH2 0x63A JUMP JUMPDEST POP POP JUMP JUMPDEST PUSH0 PUSH0 PUSH0 SWAP1 SLOAD SWAP1 PUSH2 0x100 EXP SWAP1 DIV PUSH20 0xFFFFFFFFFFFFFFFFFFFFFFFFFFFFFFFFFFFFFFFF AND PUSH20 0xFFFFFFFFFFFFFFFFFFFFFFFFFFFFFFFFFFFFFFFF AND PUSH4 0x27262618 DUP4 PUSH1 0x40 MLOAD DUP3 PUSH4 0xFFFFFFFF AND PUSH1 0xE0 SHL DUP2 MSTORE PUSH1 0x4 ADD PUSH2 0x310 SWAP2 SWAP1 PUSH2 0xED6 JUMP JUMPDEST PUSH1 0x20 PUSH1 0x40 MLOAD DUP1 DUP4 SUB DUP2 DUP7 GAS STATICCALL ISZERO DUP1 ISZERO PUSH2 0x32B JUMPI RETURNDATASIZE PUSH0 PUSH0 RETURNDATACOPY RETURNDATASIZE PUSH0 REVERT JUMPDEST POP POP POP POP PUSH1 0x40 MLOAD RETURNDATASIZE PUSH1 0x1F NOT PUSH1 0x1F DUP3 ADD AND DUP3 ADD DUP1 PUSH1 0x40 MSTORE POP DUP2 ADD SWAP1 PUSH2 0x34F SWAP2 SWAP1 PUSH2 0xDE3 JUMP JUMPDEST SWAP1 POP SWAP2 SWAP1 POP JUMP JUMPDEST PUSH2 0x394 PUSH1 0x40 MLOAD DUP1 PUSH1 0x40 ADD PUSH1 0x40 MSTORE DUP1 PUSH1 0xA DUP2 MSTORE PUSH1 0x20 ADD PUSH32 0x6574662D726F7574657200000000000000000000000000000000000000000000 DUP2 MSTORE POP PUSH2 0x2B6 JUMP JUMPDEST PUSH20 0xFFFFFFFFFFFFFFFFFFFFFFFFFFFFFFFFFFFFFFFF AND CALLER PUSH20 0xFFFFFFFFFFFFFFFFFFFFFFFFFFFFFFFFFFFFFFFF AND EQ PUSH2 0x401 JUMPI PUSH1 0x40 MLOAD PUSH32 0x8C379A000000000000000000000000000000000000000000000000000000000 DUP2 MSTORE PUSH1 0x4 ADD PUSH2 0x3F8 SWAP1 PUSH2 0xF40 JUMP JUMPDEST PUSH1 0x40 MLOAD DUP1 SWAP2 SUB SWAP1 REVERT JUMPDEST PUSH2 0x40C DUP4 DUP3 DUP5 PUSH2 0x648 JUMP JUMPDEST POP POP POP JUMP JUMPDEST PUSH0 PUSH0 SWAP1 SLOAD SWAP1 PUSH2 0x100 EXP SWAP1 DIV PUSH20 0xFFFFFFFFFFFFFFFFFFFFFFFFFFFFFFFFFFFFFFFF AND DUP2 JUMP JUMPDEST PUSH0 PUSH0 PUSH0 SWAP1 SLOAD SWAP1 PUSH2 0x100 EXP SWAP1 DIV PUSH20 0xFFFFFFFFFFFFFFFFFFFFFFFFFFFFFFFFFFFFFFFF AND PUSH20 0xFFFFFFFFFFFFFFFFFFFFFFFFFFFFFFFFFFFFFFFF AND PUSH4 0x8DA5CB5B PUSH1 0x40 MLOAD DUP2 PUSH4 0xFFFFFFFF AND PUSH1 0xE0 SHL DUP2 MSTORE PUSH1 0x4 ADD PUSH1 0x20 PUSH1 0x40 MLOAD DUP1 DUP4 SUB DUP2 DUP7 GAS STATICCALL ISZERO DUP1 ISZERO PUSH2 0x49F JUMPI RETURNDATASIZE PUSH0 PUSH0 RETURNDATACOPY RETURNDATASIZE PUSH0 REVERT JUMPDEST POP POP POP POP PUSH1 0x40 MLOAD RETURNDATASIZE PUSH1 0x1F NOT PUSH1 0x1F DUP3 ADD AND DUP3 ADD DUP1 PUSH1 0x40 MSTORE POP DUP2 ADD SWAP1 PUSH2 0x4C3 SWAP2 SWAP1 PUSH2 0xDE3 JUMP JUMPDEST SWAP1 POP SWAP1 JUMP JUMPDEST PUSH0 PUSH0 SWAP1 SLOAD SWAP1 PUSH2 0x100 EXP SWAP1 DIV PUSH20 0xFFFFFFFFFFFFFFFFFFFFFFFFFFFFFFFFFFFFFFFF AND PUSH20 0xFFFFFFFFFFFFFFFFFFFFFFFFFFFFFFFFFFFFFFFF AND PUSH4 0x8DA5CB5B PUSH1 0x40 MLOAD DUP2 PUSH4 0xFFFFFFFF AND PUSH1 0xE0 SHL DUP2 MSTORE PUSH1 0x4 ADD PUSH1 0x20 PUSH1 0x40 MLOAD DUP1 DUP4 SUB DUP2 DUP7 GAS STATICCALL ISZERO DUP1 ISZERO PUSH2 0x531 JUMPI RETURNDATASIZE PUSH0 PUSH0 RETURNDATACOPY RETURNDATASIZE PUSH0 REVERT JUMPDEST POP POP POP POP PUSH1 0x40 MLOAD RETURNDATASIZE PUSH1 0x1F NOT PUSH1 0x1F DUP3 ADD AND DUP3 ADD DUP1 PUSH1 0x40 MSTORE POP DUP2 ADD SWAP1 PUSH2 0x555 SWAP2 SWAP1 PUSH2 0xDE3 JUMP JUMPDEST PUSH20 0xFFFFFFFFFFFFFFFFFFFFFFFFFFFFFFFFFFFFFFFF AND CALLER PUSH20 0xFFFFFFFFFFFFFFFFFFFFFFFFFFFFFFFFFFFFFFFF AND EQ PUSH2 0x5C2 JUMPI PUSH1 0x40 MLOAD PUSH32 0x8C379A000000000000000000000000000000000000000000000000000000000 DUP2 MSTORE PUSH1 0x4 ADD PUSH2 0x5B9 SWAP1 PUSH2 0xE68 JUMP JUMPDEST PUSH1 0x40 MLOAD DUP1 SWAP2 SUB SWAP1 REVERT JUMPDEST PUSH2 0x5CB DUP2 PUSH2 0x702 JUMP JUMPDEST POP JUMP JUMPDEST PUSH0 PUSH1 0x14 SWAP1 SLOAD SWAP1 PUSH2 0x100 EXP SWAP1 DIV PUSH1 0xFF AND ISZERO PUSH2 0x614 JUMPI PUSH1 0x40 MLOAD PUSH32 0xDC149F000000000000000000000000000000000000000000000000000000000 DUP2 MSTORE PUSH1 0x4 ADD PUSH1 0x40 MLOAD DUP1 SWAP2 SUB SWAP1 REVERT JUMPDEST PUSH1 0x1 PUSH0 PUSH1 0x14 PUSH2 0x100 EXP DUP2 SLOAD DUP2 PUSH1 0xFF MUL NOT AND SWAP1 DUP4 ISZERO ISZERO MUL OR SWAP1 SSTORE POP PUSH2 0x637 DUP2 PUSH2 0x702 JUMP JUMPDEST POP JUMP JUMPDEST PUSH2 0x644 DUP3 DUP3 PUSH2 0x8B3 JUMP JUMPDEST POP POP JUMP JUMPDEST PUSH0 DUP2 SUB PUSH2 0x681 JUMPI PUSH1 0x40 MLOAD PUSH32 0x1F2A200500000000000000000000000000000000000000000000000000000000 DUP2 MSTORE PUSH1 0x4 ADD PUSH1 0x40 MLOAD DUP1 SWAP2 SUB SWAP1 REVERT JUMPDEST DUP3 PUSH20 0xFFFFFFFFFFFFFFFFFFFFFFFFFFFFFFFFFFFFFFFF AND PUSH4 0xA9059CBB DUP4 DUP4 PUSH1 0x40 MLOAD DUP4 PUSH4 0xFFFFFFFF AND PUSH1 0xE0 SHL DUP2 MSTORE PUSH1 0x4 ADD PUSH2 0x6BC SWAP3 SWAP2 SWAP1 PUSH2 0xF6D JUMP JUMPDEST PUSH1 0x20 PUSH1 0x40 MLOAD DUP1 DUP4 SUB DUP2 PUSH0 DUP8 GAS CALL ISZERO DUP1 ISZERO PUSH2 0x6D8 JUMPI RETURNDATASIZE PUSH0 PUSH0 RETURNDATACOPY RETURNDATASIZE PUSH0 REVERT JUMPDEST POP POP POP POP PUSH1 0x40 MLOAD RETURNDATASIZE PUSH1 0x1F NOT PUSH1 0x1F DUP3 ADD AND DUP3 ADD DUP1 PUSH1 0x40 MSTORE POP DUP2 ADD SWAP1 PUSH2 0x6FC SWAP2 SWAP1 PUSH2 0xFC9 JUMP JUMPDEST POP POP POP POP JUMP JUMPDEST PUSH0 PUSH20 0xFFFFFFFFFFFFFFFFFFFFFFFFFFFFFFFFFFFFFFFF AND DUP2 PUSH20 0xFFFFFFFFFFFFFFFFFFFFFFFFFFFFFFFFFFFFFFFF AND SUB PUSH2 0x770 JUMPI PUSH1 0x40 MLOAD PUSH32 0x8C379A000000000000000000000000000000000000000000000000000000000 DUP2 MSTORE PUSH1 0x4 ADD PUSH2 0x767 SWAP1 PUSH2 0x103E JUMP JUMPDEST PUSH1 0x40 MLOAD DUP1 SWAP2 SUB SWAP1 REVERT JUMPDEST PUSH0 DUP2 PUSH20 0xFFFFFFFFFFFFFFFFFFFFFFFFFFFFFFFFFFFFFFFF AND EXTCODESIZE GT PUSH2 0x7C9 JUMPI PUSH1 0x40 MLOAD PUSH32 0x8C379A000000000000000000000000000000000000000000000000000000000 DUP2 MSTORE PUSH1 0x4 ADD PUSH2 0x7C0 SWAP1 PUSH2 0x10A6 JUMP JUMPDEST PUSH1 0x40 MLOAD DUP1 SWAP2 SUB SWAP1 REVERT JUMPDEST DUP1 PUSH20 0xFFFFFFFFFFFFFFFFFFFFFFFFFFFFFFFFFFFFFFFF AND PUSH4 0x8DA5CB5B PUSH1 0x40 MLOAD DUP2 PUSH4 0xFFFFFFFF AND PUSH1 0xE0 SHL DUP2 MSTORE PUSH1 0x4 ADD PUSH1 0x20 PUSH1 0x40 MLOAD DUP1 DUP4 SUB DUP2 DUP7 GAS STATICCALL SWAP3 POP POP POP DUP1 ISZERO PUSH2 0x831 JUMPI POP PUSH1 0x40 MLOAD RETURNDATASIZE PUSH1 0x1F NOT PUSH1 0x1F DUP3 ADD AND DUP3 ADD DUP1 PUSH1 0x40 MSTORE POP DUP2 ADD SWAP1 PUSH2 0x82E SWAP2 SWAP1 PUSH2 0xDE3 JUMP JUMPDEST PUSH1 0x1 JUMPDEST PUSH2 0x870 JUMPI PUSH1 0x40 MLOAD PUSH32 0x8C379A000000000000000000000000000000000000000000000000000000000 DUP2 MSTORE PUSH1 0x4 ADD PUSH2 0x867 SWAP1 PUSH2 0x1134 JUMP JUMPDEST PUSH1 0x40 MLOAD DUP1 SWAP2 SUB SWAP1 REVERT JUMPDEST DUP2 PUSH0 PUSH0 PUSH2 0x100 EXP DUP2 SLOAD DUP2 PUSH20 0xFFFFFFFFFFFFFFFFFFFFFFFFFFFFFFFFFFFFFFFF MUL NOT AND SWAP1 DUP4 PUSH20 0xFFFFFFFFFFFFFFFFFFFFFFFFFFFFFFFFFFFFFFFF AND MUL OR SWAP1 SSTORE POP POP POP JUMP JUMPDEST PUSH0 PUSH20 0xFFFFFFFFFFFFFFFFFFFFFFFFFFFFFFFFFFFFFFFF AND DUP3 PUSH20 0xFFFFFFFFFFFFFFFFFFFFFFFFFFFFFFFFFFFFFFFF AND SUB PUSH2 0x8F5 JUMPI PUSH2 0x8F0 DUP2 SELFBALANCE PUSH2 0x97C JUMP JUMPDEST PUSH2 0x978 JUMP JUMPDEST PUSH2 0x977 DUP3 DUP3 DUP5 PUSH20 0xFFFFFFFFFFFFFFFFFFFFFFFFFFFFFFFFFFFFFFFF AND PUSH4 0x70A08231 ADDRESS PUSH1 0x40 MLOAD DUP3 PUSH4 0xFFFFFFFF AND PUSH1 0xE0 SHL DUP2 MSTORE PUSH1 0x4 ADD PUSH2 0x933 SWAP2 SWAP1 PUSH2 0xC94 JUMP JUMPDEST PUSH1 0x20 PUSH1 0x40 MLOAD DUP1 DUP4 SUB DUP2 DUP7 GAS STATICCALL ISZERO DUP1 ISZERO PUSH2 0x94E JUMPI RETURNDATASIZE PUSH0 PUSH0 RETURNDATACOPY RETURNDATASIZE PUSH0 REVERT JUMPDEST POP POP POP POP PUSH1 0x40 MLOAD RETURNDATASIZE PUSH1 0x1F NOT PUSH1 0x1F DUP3 ADD AND DUP3 ADD DUP1 PUSH1 0x40 MSTORE POP DUP2 ADD SWAP1 PUSH2 0x972 SWAP2 SWAP1 PUSH2 0x1166 JUMP JUMPDEST PUSH2 0x648 JUMP JUMPDEST JUMPDEST POP POP JUMP JUMPDEST PUSH0 DUP2 SUB PUSH2 0x9B5 JUMPI PUSH1 0x40 MLOAD PUSH32 0x1F2A200500000000000000000000000000000000000000000000000000000000 DUP2 MSTORE PUSH1 0x4 ADD PUSH1 0x40 MLOAD DUP1 SWAP2 SUB SWAP1 REVERT JUMPDEST PUSH0 DUP3 PUSH20 0xFFFFFFFFFFFFFFFFFFFFFFFFFFFFFFFFFFFFFFFF AND DUP3 PUSH1 0x40 MLOAD PUSH2 0x9DA SWAP1 PUSH2 0x11BE JUMP JUMPDEST PUSH0 PUSH1 0x40 MLOAD DUP1 DUP4 SUB DUP2 DUP6 DUP8 GAS CALL SWAP3 POP POP POP RETURNDATASIZE DUP1 PUSH0 DUP2 EQ PUSH2 0xA14 JUMPI PUSH1 0x40 MLOAD SWAP2 POP PUSH1 0x1F NOT PUSH1 0x3F RETURNDATASIZE ADD AND DUP3 ADD PUSH1 0x40 MSTORE RETURNDATASIZE DUP3 MSTORE RETURNDATASIZE PUSH0 PUSH1 0x20 DUP5 ADD RETURNDATACOPY PUSH2 0xA19 JUMP JUMPDEST PUSH1 0x60 SWAP2 POP JUMPDEST POP POP SWAP1 POP DUP1 PUSH2 0xA54 JUMPI PUSH1 0x40 MLOAD PUSH32 0x98248E6400000000000000000000000000000000000000000000000000000000 DUP2 MSTORE PUSH1 0x4 ADD PUSH1 0x40 MLOAD DUP1 SWAP2 SUB SWAP1 REVERT JUMPDEST POP POP POP JUMP JUMPDEST PUSH0 PUSH1 0x40 MLOAD SWAP1 POP SWAP1 JUMP JUMPDEST PUSH0 PUSH0 REVERT JUMPDEST PUSH0 PUSH0 REVERT JUMPDEST PUSH0 PUSH20 0xFFFFFFFFFFFFFFFFFFFFFFFFFFFFFFFFFFFFFFFF DUP3 AND SWAP1 POP SWAP2 SWAP1 POP JUMP JUMPDEST PUSH0 PUSH2 0xA93 DUP3 PUSH2 0xA6A JUMP JUMPDEST SWAP1 POP SWAP2 SWAP1 POP JUMP JUMPDEST PUSH2 0xAA3 DUP2 PUSH2 0xA89 JUMP JUMPDEST DUP2 EQ PUSH2 0xAAD JUMPI PUSH0 PUSH0 REVERT JUMPDEST POP JUMP JUMPDEST PUSH0 DUP2 CALLDATALOAD SWAP1 POP PUSH2 0xABE DUP2 PUSH2 0xA9A JUMP JUMPDEST SWAP3 SWAP2 POP POP JUMP JUMPDEST PUSH0 PUSH0 PUSH1 0x40 DUP4 DUP6 SUB SLT ISZERO PUSH2 0xADA JUMPI PUSH2 0xAD9 PUSH2 0xA62 JUMP JUMPDEST JUMPDEST PUSH0 PUSH2 0xAE7 DUP6 DUP3 DUP7 ADD PUSH2 0xAB0 JUMP JUMPDEST SWAP3 POP POP PUSH1 0x20 PUSH2 0xAF8 DUP6 DUP3 DUP7 ADD PUSH2 0xAB0 JUMP JUMPDEST SWAP2 POP POP SWAP3 POP SWAP3 SWAP1 POP JUMP JUMPDEST PUSH0 PUSH0 REVERT JUMPDEST PUSH0 PUSH0 REVERT JUMPDEST PUSH0 PUSH1 0x1F NOT PUSH1 0x1F DUP4 ADD AND SWAP1 POP SWAP2 SWAP1 POP JUMP JUMPDEST PUSH32 0x4E487B7100000000000000000000000000000000000000000000000000000000 PUSH0 MSTORE PUSH1 0x41 PUSH1 0x4 MSTORE PUSH1 0x24 PUSH0 REVERT JUMPDEST PUSH2 0xB50 DUP3 PUSH2 0xB0A JUMP JUMPDEST DUP2 ADD DUP2 DUP2 LT PUSH8 0xFFFFFFFFFFFFFFFF DUP3 GT OR ISZERO PUSH2 0xB6F JUMPI PUSH2 0xB6E PUSH2 0xB1A JUMP JUMPDEST JUMPDEST DUP1 PUSH1 0x40 MSTORE POP POP POP JUMP JUMPDEST PUSH0 PUSH2 0xB81 PUSH2 0xA59 JUMP JUMPDEST SWAP1 POP PUSH2 0xB8D DUP3 DUP3 PUSH2 0xB47 JUMP JUMPDEST SWAP2 SWAP1 POP JUMP JUMPDEST PUSH0 PUSH8 0xFFFFFFFFFFFFFFFF DUP3 GT ISZERO PUSH2 0xBAC JUMPI PUSH2 0xBAB PUSH2 0xB1A JUMP JUMPDEST JUMPDEST PUSH2 0xBB5 DUP3 PUSH2 0xB0A JUMP JUMPDEST SWAP1 POP PUSH1 0x20 DUP2 ADD SWAP1 POP SWAP2 SWAP1 POP JUMP JUMPDEST DUP3 DUP2 DUP4 CALLDATACOPY PUSH0 DUP4 DUP4 ADD MSTORE POP POP POP JUMP JUMPDEST PUSH0 PUSH2 0xBE2 PUSH2 0xBDD DUP5 PUSH2 0xB92 JUMP JUMPDEST PUSH2 0xB78 JUMP JUMPDEST SWAP1 POP DUP3 DUP2 MSTORE PUSH1 0x20 DUP2 ADD DUP5 DUP5 DUP5 ADD GT ISZERO PUSH2 0xBFE JUMPI PUSH2 0xBFD PUSH2 0xB06 JUMP JUMPDEST JUMPDEST PUSH2 0xC09 DUP5 DUP3 DUP6 PUSH2 0xBC2 JUMP JUMPDEST POP SWAP4 SWAP3 POP POP POP JUMP JUMPDEST PUSH0 DUP3 PUSH1 0x1F DUP4 ADD SLT PUSH2 0xC25 JUMPI PUSH2 0xC24 PUSH2 0xB02 JUMP JUMPDEST JUMPDEST DUP2 CALLDATALOAD PUSH2 0xC35 DUP5 DUP3 PUSH1 0x20 DUP7 ADD PUSH2 0xBD0 JUMP JUMPDEST SWAP2 POP POP SWAP3 SWAP2 POP POP JUMP JUMPDEST PUSH0 PUSH1 0x20 DUP3 DUP5 SUB SLT ISZERO PUSH2 0xC53 JUMPI PUSH2 0xC52 PUSH2 0xA62 JUMP JUMPDEST JUMPDEST PUSH0 DUP3 ADD CALLDATALOAD PUSH8 0xFFFFFFFFFFFFFFFF DUP2 GT ISZERO PUSH2 0xC70 JUMPI PUSH2 0xC6F PUSH2 0xA66 JUMP JUMPDEST JUMPDEST PUSH2 0xC7C DUP5 DUP3 DUP6 ADD PUSH2 0xC11 JUMP JUMPDEST SWAP2 POP POP SWAP3 SWAP2 POP POP JUMP JUMPDEST PUSH2 0xC8E DUP2 PUSH2 0xA89 JUMP JUMPDEST DUP3 MSTORE POP POP JUMP JUMPDEST PUSH0 PUSH1 0x20 DUP3 ADD SWAP1 POP PUSH2 0xCA7 PUSH0 DUP4 ADD DUP5 PUSH2 0xC85 JUMP JUMPDEST SWAP3 SWAP2 POP POP JUMP JUMPDEST PUSH0 DUP2 SWAP1 POP SWAP2 SWAP1 POP JUMP JUMPDEST PUSH2 0xCBF DUP2 PUSH2 0xCAD JUMP JUMPDEST DUP2 EQ PUSH2 0xCC9 JUMPI PUSH0 PUSH0 REVERT JUMPDEST POP JUMP JUMPDEST PUSH0 DUP2 CALLDATALOAD SWAP1 POP PUSH2 0xCDA DUP2 PUSH2 0xCB6 JUMP JUMPDEST SWAP3 SWAP2 POP POP JUMP JUMPDEST PUSH0 PUSH0 PUSH0 PUSH1 0x60 DUP5 DUP7 SUB SLT ISZERO PUSH2 0xCF7 JUMPI PUSH2 0xCF6 PUSH2 0xA62 JUMP JUMPDEST JUMPDEST PUSH0 PUSH2 0xD04 DUP7 DUP3 DUP8 ADD PUSH2 0xAB0 JUMP JUMPDEST SWAP4 POP POP PUSH1 0x20 PUSH2 0xD15 DUP7 DUP3 DUP8 ADD PUSH2 0xCCC JUMP JUMPDEST SWAP3 POP POP PUSH1 0x40 PUSH2 0xD26 DUP7 DUP3 DUP8 ADD PUSH2 0xAB0 JUMP JUMPDEST SWAP2 POP POP SWAP3 POP SWAP3 POP SWAP3 JUMP JUMPDEST PUSH0 DUP2 SWAP1 POP SWAP2 SWAP1 POP JUMP JUMPDEST PUSH0 PUSH2 0xD53 PUSH2 0xD4E PUSH2 0xD49 DUP5 PUSH2 0xA6A JUMP JUMPDEST PUSH2 0xD30 JUMP JUMPDEST PUSH2 0xA6A JUMP JUMPDEST SWAP1 POP SWAP2 SWAP1 POP JUMP JUMPDEST PUSH0 PUSH2 0xD64 DUP3 PUSH2 0xD39 JUMP JUMPDEST SWAP1 POP SWAP2 SWAP1 POP JUMP JUMPDEST PUSH0 PUSH2 0xD75 DUP3 PUSH2 0xD5A JUMP JUMPDEST SWAP1 POP SWAP2 SWAP1 POP JUMP JUMPDEST PUSH2 0xD85 DUP2 PUSH2 0xD6B JUMP JUMPDEST DUP3 MSTORE POP POP JUMP JUMPDEST PUSH0 PUSH1 0x20 DUP3 ADD SWAP1 POP PUSH2 0xD9E PUSH0 DUP4 ADD DUP5 PUSH2 0xD7C JUMP JUMPDEST SWAP3 SWAP2 POP POP JUMP JUMPDEST PUSH0 PUSH1 0x20 DUP3 DUP5 SUB SLT ISZERO PUSH2 0xDB9 JUMPI PUSH2 0xDB8 PUSH2 0xA62 JUMP JUMPDEST JUMPDEST PUSH0 PUSH2 0xDC6 DUP5 DUP3 DUP6 ADD PUSH2 0xAB0 JUMP JUMPDEST SWAP2 POP POP SWAP3 SWAP2 POP POP JUMP JUMPDEST PUSH0 DUP2 MLOAD SWAP1 POP PUSH2 0xDDD DUP2 PUSH2 0xA9A JUMP JUMPDEST SWAP3 SWAP2 POP POP JUMP JUMPDEST PUSH0 PUSH1 0x20 DUP3 DUP5 SUB SLT ISZERO PUSH2 0xDF8 JUMPI PUSH2 0xDF7 PUSH2 0xA62 JUMP JUMPDEST JUMPDEST PUSH0 PUSH2 0xE05 DUP5 DUP3 DUP6 ADD PUSH2 0xDCF JUMP JUMPDEST SWAP2 POP POP SWAP3 SWAP2 POP POP JUMP JUMPDEST PUSH0 DUP3 DUP3 MSTORE PUSH1 0x20 DUP3 ADD SWAP1 POP SWAP3 SWAP2 POP POP JUMP JUMPDEST PUSH32 0x43616C6C6572206973206E6F7420746865206F776E6572000000000000000000 PUSH0 DUP3 ADD MSTORE POP JUMP JUMPDEST PUSH0 PUSH2 0xE52 PUSH1 0x17 DUP4 PUSH2 0xE0E JUMP JUMPDEST SWAP2 POP PUSH2 0xE5D DUP3 PUSH2 0xE1E JUMP JUMPDEST PUSH1 0x20 DUP3 ADD SWAP1 POP SWAP2 SWAP1 POP JUMP JUMPDEST PUSH0 PUSH1 0x20 DUP3 ADD SWAP1 POP DUP2 DUP2 SUB PUSH0 DUP4 ADD MSTORE PUSH2 0xE7F DUP2 PUSH2 0xE46 JUMP JUMPDEST SWAP1 POP SWAP2 SWAP1 POP JUMP JUMPDEST PUSH0 DUP2 MLOAD SWAP1 POP SWAP2 SWAP1 POP JUMP JUMPDEST DUP3 DUP2 DUP4 MCOPY PUSH0 DUP4 DUP4 ADD MSTORE POP POP POP JUMP JUMPDEST PUSH0 PUSH2 0xEA8 DUP3 PUSH2 0xE86 JUMP JUMPDEST PUSH2 0xEB2 DUP2 DUP6 PUSH2 0xE0E JUMP JUMPDEST SWAP4 POP PUSH2 0xEC2 DUP2 DUP6 PUSH1 0x20 DUP7 ADD PUSH2 0xE90 JUMP JUMPDEST PUSH2 0xECB DUP2 PUSH2 0xB0A JUMP JUMPDEST DUP5 ADD SWAP2 POP POP SWAP3 SWAP2 POP POP JUMP JUMPDEST PUSH0 PUSH1 0x20 DUP3 ADD SWAP1 POP DUP2 DUP2 SUB PUSH0 DUP4 ADD MSTORE PUSH2 0xEEE DUP2 DUP5 PUSH2 0xE9E JUMP JUMPDEST SWAP1 POP SWAP3 SWAP2 POP POP JUMP JUMPDEST PUSH32 0x6D73672E73656E646572206973206E6F742065746620726F7574657200000000 PUSH0 DUP3 ADD MSTORE POP JUMP JUMPDEST PUSH0 PUSH2 0xF2A PUSH1 0x1C DUP4 PUSH2 0xE0E JUMP JUMPDEST SWAP2 POP PUSH2 0xF35 DUP3 PUSH2 0xEF6 JUMP JUMPDEST PUSH1 0x20 DUP3 ADD SWAP1 POP SWAP2 SWAP1 POP JUMP JUMPDEST PUSH0 PUSH1 0x20 DUP3 ADD SWAP1 POP DUP2 DUP2 SUB PUSH0 DUP4 ADD MSTORE PUSH2 0xF57 DUP2 PUSH2 0xF1E JUMP JUMPDEST SWAP1 POP SWAP2 SWAP1 POP JUMP JUMPDEST PUSH2 0xF67 DUP2 PUSH2 0xCAD JUMP JUMPDEST DUP3 MSTORE POP POP JUMP JUMPDEST PUSH0 PUSH1 0x40 DUP3 ADD SWAP1 POP PUSH2 0xF80 PUSH0 DUP4 ADD DUP6 PUSH2 0xC85 JUMP JUMPDEST PUSH2 0xF8D PUSH1 0x20 DUP4 ADD DUP5 PUSH2 0xF5E JUMP JUMPDEST SWAP4 SWAP3 POP POP POP JUMP JUMPDEST PUSH0 DUP2 ISZERO ISZERO SWAP1 POP SWAP2 SWAP1 POP JUMP JUMPDEST PUSH2 0xFA8 DUP2 PUSH2 0xF94 JUMP JUMPDEST DUP2 EQ PUSH2 0xFB2 JUMPI PUSH0 PUSH0 REVERT JUMPDEST POP JUMP JUMPDEST PUSH0 DUP2 MLOAD SWAP1 POP PUSH2 0xFC3 DUP2 PUSH2 0xF9F JUMP JUMPDEST SWAP3 SWAP2 POP POP JUMP JUMPDEST PUSH0 PUSH1 0x20 DUP3 DUP5 SUB SLT ISZERO PUSH2 0xFDE JUMPI PUSH2 0xFDD PUSH2 0xA62 JUMP JUMPDEST JUMPDEST PUSH0 PUSH2 0xFEB DUP5 DUP3 DUP6 ADD PUSH2 0xFB5 JUMP JUMPDEST SWAP2 POP POP SWAP3 SWAP2 POP POP JUMP JUMPDEST PUSH32 0x4469726563746F72792063616E6E6F74206265207A65726F2061646472657373 PUSH0 DUP3 ADD MSTORE POP JUMP JUMPDEST PUSH0 PUSH2 0x1028 PUSH1 0x20 DUP4 PUSH2 0xE0E JUMP JUMPDEST SWAP2 POP PUSH2 0x1033 DUP3 PUSH2 0xFF4 JUMP JUMPDEST PUSH1 0x20 DUP3 ADD SWAP1 POP SWAP2 SWAP1 POP JUMP JUMPDEST PUSH0 PUSH1 0x20 DUP3 ADD SWAP1 POP DUP2 DUP2 SUB PUSH0 DUP4 ADD MSTORE PUSH2 0x1055 DUP2 PUSH2 0x101C JUMP JUMPDEST SWAP1 POP SWAP2 SWAP1 POP JUMP JUMPDEST PUSH32 0x4469726563746F7279206D757374206265206120636F6E747261637400000000 PUSH0 DUP3 ADD MSTORE POP JUMP JUMPDEST PUSH0 PUSH2 0x1090 PUSH1 0x1C DUP4 PUSH2 0xE0E JUMP JUMPDEST SWAP2 POP PUSH2 0x109B DUP3 PUSH2 0x105C JUMP JUMPDEST PUSH1 0x20 DUP3 ADD SWAP1 POP SWAP2 SWAP1 POP JUMP JUMPDEST PUSH0 PUSH1 0x20 DUP3 ADD SWAP1 POP DUP2 DUP2 SUB PUSH0 DUP4 ADD MSTORE PUSH2 0x10BD DUP2 PUSH2 0x1084 JUMP JUMPDEST SWAP1 POP SWAP2 SWAP1 POP JUMP JUMPDEST PUSH32 0x4469726563746F7279206164647265737320646F6573206E6F7420696D706C65 PUSH0 DUP3 ADD MSTORE PUSH32 0x6D656E74206F776E657228290000000000000000000000000000000000000000 PUSH1 0x20 DUP3 ADD MSTORE POP JUMP JUMPDEST PUSH0 PUSH2 0x111E PUSH1 0x2C DUP4 PUSH2 0xE0E JUMP JUMPDEST SWAP2 POP PUSH2 0x1129 DUP3 PUSH2 0x10C4 JUMP JUMPDEST PUSH1 0x40 DUP3 ADD SWAP1 POP SWAP2 SWAP1 POP JUMP JUMPDEST PUSH0 PUSH1 0x20 DUP3 ADD SWAP1 POP DUP2 DUP2 SUB PUSH0 DUP4 ADD MSTORE PUSH2 0x114B DUP2 PUSH2 0x1112 JUMP JUMPDEST SWAP1 POP SWAP2 SWAP1 POP JUMP JUMPDEST PUSH0 DUP2 MLOAD SWAP1 POP PUSH2 0x1160 DUP2 PUSH2 0xCB6 JUMP JUMPDEST SWAP3 SWAP2 POP POP JUMP JUMPDEST PUSH0 PUSH1 0x20 DUP3 DUP5 SUB SLT ISZERO PUSH2 0x117B JUMPI PUSH2 0x117A PUSH2 0xA62 JUMP JUMPDEST JUMPDEST PUSH0 PUSH2 0x1188 DUP5 DUP3 DUP6 ADD PUSH2 0x1152 JUMP JUMPDEST SWAP2 POP POP SWAP3 SWAP2 POP POP JUMP JUMPDEST PUSH0 DUP2 SWAP1 POP SWAP3 SWAP2 POP POP JUMP JUMPDEST POP JUMP JUMPDEST PUSH0 PUSH2 0x11A9 PUSH0 DUP4 PUSH2 0x1191 JUMP JUMPDEST SWAP2 POP PUSH2 0x11B4 DUP3 PUSH2 0x119B JUMP JUMPDEST PUSH0 DUP3 ADD SWAP1 POP SWAP2 SWAP1 POP JUMP JUMPDEST PUSH0 PUSH2 0x11C8 DUP3 PUSH2 0x119E JUMP JUMPDEST SWAP2 POP DUP2 SWAP1 POP SWAP2 SWAP1 POP JUMP INVALID LOG2 PUSH5 0x6970667358 0x22 SLT KECCAK256 PUSH4 0x1B9742AC SWAP10 0x2D 0xD8 DUP8 0xDE RJUMPI 0x3806 DUP3 JUMPF 0x686F 0xE8 BALANCE SIGNEXTEND 0xD9 0xB9 DUP3 0xB0 RETURNDATACOPY 0xCB PUSH7 0x31051FC5FF6473 PUSH16 0x6C634300081E00330000000000000000 "
				},
				"gasEstimates": {
					"creation": {
						"codeDepositCost": "923200",
						"executionCost": "infinite",
						"totalCost": "infinite"
					},
					"external": {
						"Directory()": "infinite",
						"changeDirectoryAddress(address)": "infinite",
						"fetchFromDirectory(string)": "infinite",
						"initialize(address)": "infinite",
						"owner()": "infinite",
						"recoverAsset(address,address)": "infinite",
						"redeem(address,uint256,address)": "infinite"
					}
				},
				"methodIdentifiers": {
					"Directory()": "658a847a",
					"changeDirectoryAddress(address)": "ba4c7be1",
					"fetchFromDirectory(string)": "27262618",
					"initialize(address)": "c4d66de8",
					"owner()": "8da5cb5b",
					"recoverAsset(address,address)": "09053ac4",
					"redeem(address,uint256,address)": "5c833bfd"
				}
			},
			"storageLayout": {
				"storage": [
					{
						"astId": 18,
						"contract": "hopium/etf/main/etf-vault.sol:EtfVault",
						"label": "Directory",
						"offset": 0,
						"slot": "0",
						"type": "t_contract(IDirectory)15"
					},
					{
						"astId": 311,
						"contract": "hopium/etf/main/etf-vault.sol:EtfVault",
						"label": "_initialized",
						"offset": 20,
						"slot": "0",
						"type": "t_bool"
					}
				],
				"types": {
					"t_bool": {
						"encoding": "inplace",
						"label": "bool",
						"numberOfBytes": "1"
					},
					"t_contract(IDirectory)15": {
						"encoding": "inplace",
						"label": "contract IDirectory",
						"numberOfBytes": "20"
					}
				}
			},
			"userdoc": {
				"kind": "user",
				"methods": {
					"constructor": {
						"notice": "Constructor runs once for the implementation only."
					},
					"initialize(address)": {
						"notice": "One-time initializer for clones (constructors don't run for proxies)"
					},
					"recoverAsset(address,address)": {
						"notice": "Owner (Directory.owner()) can recover stuck ETH/ERC20"
					},
					"redeem(address,uint256,address)": {
						"notice": "Redeem underlying tokens to receiver; callable only by EtfRouter"
					}
				},
				"notice": "Etf Vault implementation (logic). Clones delegatecall into this.",
				"version": 1
			}
		}
	}
}