{
	"hopium/etf/main/index-price-oracle.sol": {
		"IndexPriceOracle": {
			"abi": [
				{
					"inputs": [
						{
							"internalType": "address",
							"name": "_directory",
							"type": "address"
						}
					],
					"stateMutability": "nonpayable",
					"type": "constructor"
				},
				{
					"inputs": [],
					"name": "Directory",
					"outputs": [
						{
							"internalType": "contract IDirectory",
							"name": "",
							"type": "address"
						}
					],
					"stateMutability": "view",
					"type": "function"
				},
				{
					"inputs": [
						{
							"internalType": "address",
							"name": "_directory",
							"type": "address"
						}
					],
					"name": "changeDirectoryAddress",
					"outputs": [],
					"stateMutability": "nonpayable",
					"type": "function"
				},
				{
					"inputs": [
						{
							"internalType": "string",
							"name": "_key",
							"type": "string"
						}
					],
					"name": "fetchFromDirectory",
					"outputs": [
						{
							"internalType": "address",
							"name": "",
							"type": "address"
						}
					],
					"stateMutability": "view",
					"type": "function"
				},
				{
					"inputs": [
						{
							"internalType": "uint256",
							"name": "indexId",
							"type": "uint256"
						}
					],
					"name": "getIndexUsdPrice",
					"outputs": [
						{
							"internalType": "uint256",
							"name": "",
							"type": "uint256"
						}
					],
					"stateMutability": "view",
					"type": "function"
				},
				{
					"inputs": [
						{
							"internalType": "uint256",
							"name": "indexId",
							"type": "uint256"
						}
					],
					"name": "getIndexWethPrice",
					"outputs": [
						{
							"internalType": "uint256",
							"name": "",
							"type": "uint256"
						}
					],
					"stateMutability": "view",
					"type": "function"
				},
				{
					"inputs": [],
					"name": "owner",
					"outputs": [
						{
							"internalType": "address",
							"name": "",
							"type": "address"
						}
					],
					"stateMutability": "view",
					"type": "function"
				}
			],
			"devdoc": {
				"kind": "dev",
				"methods": {},
				"version": 1
			},
			"evm": {
				"assembly": "    /* \"hopium/etf/main/index-price-oracle.sol\":1173:1873  contract IndexPriceOracle is ImDirectory, ImIndexFactory, ImPriceOracle, Helpers {... */\n  mstore(0x40, 0x80)\n    /* \"hopium/etf/main/index-price-oracle.sol\":1260:1318  constructor(address _directory) ImDirectory(_directory) {} */\n  callvalue\n  dup1\n  iszero\n  tag_1\n  jumpi\n  revert(0x00, 0x00)\ntag_1:\n  pop\n  mload(0x40)\n  sub(codesize, bytecodeSize)\n  dup1\n  bytecodeSize\n  dup4\n  codecopy\n  dup2\n  dup2\n  add\n  0x40\n  mstore\n  dup2\n  add\n  swap1\n  tag_2\n  swap2\n  swap1\n  tag_3\n  jump\t// in\ntag_2:\n    /* \"hopium/etf/main/index-price-oracle.sol\":1304:1314  _directory */\n  dup1\n    /* \"hopium/common/interface/imDirectory.sol\":412:437  _setDirectory(_directory) */\n  tag_7\n    /* \"hopium/common/interface/imDirectory.sol\":426:436  _directory */\n  dup2\n    /* \"hopium/common/interface/imDirectory.sol\":412:425  _setDirectory */\n  shl(0x20, tag_8)\n    /* \"hopium/common/interface/imDirectory.sol\":412:437  _setDirectory(_directory) */\n  0x20\n  shr\n  jump\t// in\ntag_7:\n    /* \"hopium/common/interface/imDirectory.sol\":370:464  constructor(address _directory) {... */\n  pop\n    /* \"hopium/etf/main/index-price-oracle.sol\":1260:1318  constructor(address _directory) ImDirectory(_directory) {} */\n  pop\n    /* \"hopium/etf/main/index-price-oracle.sol\":1173:1873  contract IndexPriceOracle is ImDirectory, ImIndexFactory, ImPriceOracle, Helpers {... */\n  jump(tag_10)\n    /* \"hopium/common/interface/imDirectory.sol\":589:1050  function _setDirectory(address _directory) internal {... */\ntag_8:\n    /* \"hopium/common/interface/imDirectory.sol\":681:682  0 */\n  0x00\n    /* \"hopium/common/interface/imDirectory.sol\":659:683  _directory != address(0) */\n  0xffffffffffffffffffffffffffffffffffffffff\n  and\n    /* \"hopium/common/interface/imDirectory.sol\":659:669  _directory */\n  dup2\n    /* \"hopium/common/interface/imDirectory.sol\":659:683  _directory != address(0) */\n  0xffffffffffffffffffffffffffffffffffffffff\n  and\n  sub\n    /* \"hopium/common/interface/imDirectory.sol\":651:720  require(_directory != address(0), \"Directory cannot be zero address\") */\n  tag_12\n  jumpi\n  mload(0x40)\n  0x08c379a000000000000000000000000000000000000000000000000000000000\n  dup2\n  mstore\n  0x04\n  add\n  tag_13\n  swap1\n  tag_14\n  jump\t// in\ntag_13:\n  mload(0x40)\n  dup1\n  swap2\n  sub\n  swap1\n  revert\ntag_12:\n    /* \"hopium/common/interface/imDirectory.sol\":763:764  0 */\n  0x00\n    /* \"hopium/common/interface/imDirectory.sol\":738:748  _directory */\n  dup2\n    /* \"hopium/common/interface/imDirectory.sol\":738:760  _directory.code.length */\n  0xffffffffffffffffffffffffffffffffffffffff\n  and\n  extcodesize\n    /* \"hopium/common/interface/imDirectory.sol\":738:764  _directory.code.length > 0 */\n  gt\n    /* \"hopium/common/interface/imDirectory.sol\":730:797  require(_directory.code.length > 0, \"Directory must be a contract\") */\n  tag_15\n  jumpi\n  mload(0x40)\n  0x08c379a000000000000000000000000000000000000000000000000000000000\n  dup2\n  mstore\n  0x04\n  add\n  tag_16\n  swap1\n  tag_17\n  jump\t// in\ntag_16:\n  mload(0x40)\n  dup1\n  swap2\n  sub\n  swap1\n  revert\ntag_15:\n    /* \"hopium/common/interface/imDirectory.sol\":861:871  _directory */\n  dup1\n    /* \"hopium/common/interface/imDirectory.sol\":850:878  IDirectory(_directory).owner */\n  0xffffffffffffffffffffffffffffffffffffffff\n  and\n  0x8da5cb5b\n    /* \"hopium/common/interface/imDirectory.sol\":850:880  IDirectory(_directory).owner() */\n  mload(0x40)\n  dup2\n  0xffffffff\n  and\n  0xe0\n  shl\n  dup2\n  mstore\n  0x04\n  add\n  0x20\n  mload(0x40)\n  dup1\n  dup4\n  sub\n  dup2\n  dup7\n  gas\n  staticcall\n  swap3\n  pop\n  pop\n  pop\n  dup1\n  iszero\n  tag_18\n  jumpi\n  pop\n  mload(0x40)\n  returndatasize\n  not(0x1f)\n  0x1f\n  dup3\n  add\n  and\n  dup3\n  add\n  dup1\n  0x40\n  mstore\n  pop\n  dup2\n  add\n  swap1\n  tag_19\n  swap2\n  swap1\n  tag_3\n  jump\t// in\ntag_19:\n  0x01\ntag_18:\n    /* \"hopium/common/interface/imDirectory.sol\":846:1044  try IDirectory(_directory).owner() returns (address) {... */\n  tag_20\n  jumpi\n    /* \"hopium/common/interface/imDirectory.sol\":979:1033  revert(\"Directory address does not implement owner()\") */\n  mload(0x40)\n  0x08c379a000000000000000000000000000000000000000000000000000000000\n  dup2\n  mstore\n  0x04\n  add\n  tag_24\n  swap1\n  tag_25\n  jump\t// in\ntag_24:\n  mload(0x40)\n  dup1\n  swap2\n  sub\n  swap1\n  revert\n    /* \"hopium/common/interface/imDirectory.sol\":846:1044  try IDirectory(_directory).owner() returns (address) {... */\ntag_20:\n    /* \"hopium/common/interface/imDirectory.sol\":936:946  _directory */\n  dup2\n    /* \"hopium/common/interface/imDirectory.sol\":913:922  Directory */\n  0x00\n  0x00\n    /* \"hopium/common/interface/imDirectory.sol\":913:947  Directory = IDirectory(_directory) */\n  0x0100\n  exp\n  dup2\n  sload\n  dup2\n  0xffffffffffffffffffffffffffffffffffffffff\n  mul\n  not\n  and\n  swap1\n  dup4\n  0xffffffffffffffffffffffffffffffffffffffff\n  and\n  mul\n  or\n  swap1\n  sstore\n  pop\n    /* \"hopium/common/interface/imDirectory.sol\":881:958  returns (address) {... */\n  pop\n    /* \"hopium/common/interface/imDirectory.sol\":589:1050  function _setDirectory(address _directory) internal {... */\n  pop\n  jump\t// out\n    /* \"#utility.yul\":88:205   */\ntag_28:\n    /* \"#utility.yul\":197:198   */\n  0x00\n    /* \"#utility.yul\":194:195   */\n  0x00\n    /* \"#utility.yul\":187:199   */\n  revert\n    /* \"#utility.yul\":334:460   */\ntag_30:\n    /* \"#utility.yul\":371:378   */\n  0x00\n    /* \"#utility.yul\":411:453   */\n  0xffffffffffffffffffffffffffffffffffffffff\n    /* \"#utility.yul\":404:409   */\n  dup3\n    /* \"#utility.yul\":400:454   */\n  and\n    /* \"#utility.yul\":389:454   */\n  swap1\n  pop\n    /* \"#utility.yul\":334:460   */\n  swap2\n  swap1\n  pop\n  jump\t// out\n    /* \"#utility.yul\":466:562   */\ntag_31:\n    /* \"#utility.yul\":503:510   */\n  0x00\n    /* \"#utility.yul\":532:556   */\n  tag_47\n    /* \"#utility.yul\":550:555   */\n  dup3\n    /* \"#utility.yul\":532:556   */\n  tag_30\n  jump\t// in\ntag_47:\n    /* \"#utility.yul\":521:556   */\n  swap1\n  pop\n    /* \"#utility.yul\":466:562   */\n  swap2\n  swap1\n  pop\n  jump\t// out\n    /* \"#utility.yul\":568:690   */\ntag_32:\n    /* \"#utility.yul\":641:665   */\n  tag_49\n    /* \"#utility.yul\":659:664   */\n  dup2\n    /* \"#utility.yul\":641:665   */\n  tag_31\n  jump\t// in\ntag_49:\n    /* \"#utility.yul\":634:639   */\n  dup2\n    /* \"#utility.yul\":631:666   */\n  eq\n    /* \"#utility.yul\":621:684   */\n  tag_50\n  jumpi\n    /* \"#utility.yul\":680:681   */\n  0x00\n    /* \"#utility.yul\":677:678   */\n  0x00\n    /* \"#utility.yul\":670:682   */\n  revert\n    /* \"#utility.yul\":621:684   */\ntag_50:\n    /* \"#utility.yul\":568:690   */\n  pop\n  jump\t// out\n    /* \"#utility.yul\":696:839   */\ntag_33:\n    /* \"#utility.yul\":753:758   */\n  0x00\n    /* \"#utility.yul\":784:790   */\n  dup2\n    /* \"#utility.yul\":778:791   */\n  mload\n    /* \"#utility.yul\":769:791   */\n  swap1\n  pop\n    /* \"#utility.yul\":800:833   */\n  tag_52\n    /* \"#utility.yul\":827:832   */\n  dup2\n    /* \"#utility.yul\":800:833   */\n  tag_32\n  jump\t// in\ntag_52:\n    /* \"#utility.yul\":696:839   */\n  swap3\n  swap2\n  pop\n  pop\n  jump\t// out\n    /* \"#utility.yul\":845:1196   */\ntag_3:\n    /* \"#utility.yul\":915:921   */\n  0x00\n    /* \"#utility.yul\":964:966   */\n  0x20\n    /* \"#utility.yul\":952:961   */\n  dup3\n    /* \"#utility.yul\":943:950   */\n  dup5\n    /* \"#utility.yul\":939:962   */\n  sub\n    /* \"#utility.yul\":935:967   */\n  slt\n    /* \"#utility.yul\":932:1051   */\n  iszero\n  tag_54\n  jumpi\n    /* \"#utility.yul\":970:1049   */\n  tag_55\n  tag_28\n  jump\t// in\ntag_55:\n    /* \"#utility.yul\":932:1051   */\ntag_54:\n    /* \"#utility.yul\":1090:1091   */\n  0x00\n    /* \"#utility.yul\":1115:1179   */\n  tag_56\n    /* \"#utility.yul\":1171:1178   */\n  dup5\n    /* \"#utility.yul\":1162:1168   */\n  dup3\n    /* \"#utility.yul\":1151:1160   */\n  dup6\n    /* \"#utility.yul\":1147:1169   */\n  add\n    /* \"#utility.yul\":1115:1179   */\n  tag_33\n  jump\t// in\ntag_56:\n    /* \"#utility.yul\":1105:1179   */\n  swap2\n  pop\n    /* \"#utility.yul\":1061:1189   */\n  pop\n    /* \"#utility.yul\":845:1196   */\n  swap3\n  swap2\n  pop\n  pop\n  jump\t// out\n    /* \"#utility.yul\":1202:1371   */\ntag_34:\n    /* \"#utility.yul\":1286:1297   */\n  0x00\n    /* \"#utility.yul\":1320:1326   */\n  dup3\n    /* \"#utility.yul\":1315:1318   */\n  dup3\n    /* \"#utility.yul\":1308:1327   */\n  mstore\n    /* \"#utility.yul\":1360:1364   */\n  0x20\n    /* \"#utility.yul\":1355:1358   */\n  dup3\n    /* \"#utility.yul\":1351:1365   */\n  add\n    /* \"#utility.yul\":1336:1365   */\n  swap1\n  pop\n    /* \"#utility.yul\":1202:1371   */\n  swap3\n  swap2\n  pop\n  pop\n  jump\t// out\n    /* \"#utility.yul\":1377:1559   */\ntag_35:\n    /* \"#utility.yul\":1517:1551   */\n  0x4469726563746f72792063616e6e6f74206265207a65726f2061646472657373\n    /* \"#utility.yul\":1513:1514   */\n  0x00\n    /* \"#utility.yul\":1505:1511   */\n  dup3\n    /* \"#utility.yul\":1501:1515   */\n  add\n    /* \"#utility.yul\":1494:1552   */\n  mstore\n    /* \"#utility.yul\":1377:1559   */\n  pop\n  jump\t// out\n    /* \"#utility.yul\":1565:1931   */\ntag_36:\n    /* \"#utility.yul\":1707:1710   */\n  0x00\n    /* \"#utility.yul\":1728:1795   */\n  tag_60\n    /* \"#utility.yul\":1792:1794   */\n  0x20\n    /* \"#utility.yul\":1787:1790   */\n  dup4\n    /* \"#utility.yul\":1728:1795   */\n  tag_34\n  jump\t// in\ntag_60:\n    /* \"#utility.yul\":1721:1795   */\n  swap2\n  pop\n    /* \"#utility.yul\":1804:1897   */\n  tag_61\n    /* \"#utility.yul\":1893:1896   */\n  dup3\n    /* \"#utility.yul\":1804:1897   */\n  tag_35\n  jump\t// in\ntag_61:\n    /* \"#utility.yul\":1922:1924   */\n  0x20\n    /* \"#utility.yul\":1917:1920   */\n  dup3\n    /* \"#utility.yul\":1913:1925   */\n  add\n    /* \"#utility.yul\":1906:1925   */\n  swap1\n  pop\n    /* \"#utility.yul\":1565:1931   */\n  swap2\n  swap1\n  pop\n  jump\t// out\n    /* \"#utility.yul\":1937:2356   */\ntag_14:\n    /* \"#utility.yul\":2103:2107   */\n  0x00\n    /* \"#utility.yul\":2141:2143   */\n  0x20\n    /* \"#utility.yul\":2130:2139   */\n  dup3\n    /* \"#utility.yul\":2126:2144   */\n  add\n    /* \"#utility.yul\":2118:2144   */\n  swap1\n  pop\n    /* \"#utility.yul\":2190:2199   */\n  dup2\n    /* \"#utility.yul\":2184:2188   */\n  dup2\n    /* \"#utility.yul\":2180:2200   */\n  sub\n    /* \"#utility.yul\":2176:2177   */\n  0x00\n    /* \"#utility.yul\":2165:2174   */\n  dup4\n    /* \"#utility.yul\":2161:2178   */\n  add\n    /* \"#utility.yul\":2154:2201   */\n  mstore\n    /* \"#utility.yul\":2218:2349   */\n  tag_63\n    /* \"#utility.yul\":2344:2348   */\n  dup2\n    /* \"#utility.yul\":2218:2349   */\n  tag_36\n  jump\t// in\ntag_63:\n    /* \"#utility.yul\":2210:2349   */\n  swap1\n  pop\n    /* \"#utility.yul\":1937:2356   */\n  swap2\n  swap1\n  pop\n  jump\t// out\n    /* \"#utility.yul\":2362:2540   */\ntag_37:\n    /* \"#utility.yul\":2502:2532   */\n  0x4469726563746f7279206d757374206265206120636f6e747261637400000000\n    /* \"#utility.yul\":2498:2499   */\n  0x00\n    /* \"#utility.yul\":2490:2496   */\n  dup3\n    /* \"#utility.yul\":2486:2500   */\n  add\n    /* \"#utility.yul\":2479:2533   */\n  mstore\n    /* \"#utility.yul\":2362:2540   */\n  pop\n  jump\t// out\n    /* \"#utility.yul\":2546:2912   */\ntag_38:\n    /* \"#utility.yul\":2688:2691   */\n  0x00\n    /* \"#utility.yul\":2709:2776   */\n  tag_66\n    /* \"#utility.yul\":2773:2775   */\n  0x1c\n    /* \"#utility.yul\":2768:2771   */\n  dup4\n    /* \"#utility.yul\":2709:2776   */\n  tag_34\n  jump\t// in\ntag_66:\n    /* \"#utility.yul\":2702:2776   */\n  swap2\n  pop\n    /* \"#utility.yul\":2785:2878   */\n  tag_67\n    /* \"#utility.yul\":2874:2877   */\n  dup3\n    /* \"#utility.yul\":2785:2878   */\n  tag_37\n  jump\t// in\ntag_67:\n    /* \"#utility.yul\":2903:2905   */\n  0x20\n    /* \"#utility.yul\":2898:2901   */\n  dup3\n    /* \"#utility.yul\":2894:2906   */\n  add\n    /* \"#utility.yul\":2887:2906   */\n  swap1\n  pop\n    /* \"#utility.yul\":2546:2912   */\n  swap2\n  swap1\n  pop\n  jump\t// out\n    /* \"#utility.yul\":2918:3337   */\ntag_17:\n    /* \"#utility.yul\":3084:3088   */\n  0x00\n    /* \"#utility.yul\":3122:3124   */\n  0x20\n    /* \"#utility.yul\":3111:3120   */\n  dup3\n    /* \"#utility.yul\":3107:3125   */\n  add\n    /* \"#utility.yul\":3099:3125   */\n  swap1\n  pop\n    /* \"#utility.yul\":3171:3180   */\n  dup2\n    /* \"#utility.yul\":3165:3169   */\n  dup2\n    /* \"#utility.yul\":3161:3181   */\n  sub\n    /* \"#utility.yul\":3157:3158   */\n  0x00\n    /* \"#utility.yul\":3146:3155   */\n  dup4\n    /* \"#utility.yul\":3142:3159   */\n  add\n    /* \"#utility.yul\":3135:3182   */\n  mstore\n    /* \"#utility.yul\":3199:3330   */\n  tag_69\n    /* \"#utility.yul\":3325:3329   */\n  dup2\n    /* \"#utility.yul\":3199:3330   */\n  tag_38\n  jump\t// in\ntag_69:\n    /* \"#utility.yul\":3191:3330   */\n  swap1\n  pop\n    /* \"#utility.yul\":2918:3337   */\n  swap2\n  swap1\n  pop\n  jump\t// out\n    /* \"#utility.yul\":3343:3574   */\ntag_39:\n    /* \"#utility.yul\":3483:3517   */\n  0x4469726563746f7279206164647265737320646f6573206e6f7420696d706c65\n    /* \"#utility.yul\":3479:3480   */\n  0x00\n    /* \"#utility.yul\":3471:3477   */\n  dup3\n    /* \"#utility.yul\":3467:3481   */\n  add\n    /* \"#utility.yul\":3460:3518   */\n  mstore\n    /* \"#utility.yul\":3552:3566   */\n  0x6d656e74206f776e657228290000000000000000000000000000000000000000\n    /* \"#utility.yul\":3547:3549   */\n  0x20\n    /* \"#utility.yul\":3539:3545   */\n  dup3\n    /* \"#utility.yul\":3535:3550   */\n  add\n    /* \"#utility.yul\":3528:3567   */\n  mstore\n    /* \"#utility.yul\":3343:3574   */\n  pop\n  jump\t// out\n    /* \"#utility.yul\":3580:3946   */\ntag_40:\n    /* \"#utility.yul\":3722:3725   */\n  0x00\n    /* \"#utility.yul\":3743:3810   */\n  tag_72\n    /* \"#utility.yul\":3807:3809   */\n  0x2c\n    /* \"#utility.yul\":3802:3805   */\n  dup4\n    /* \"#utility.yul\":3743:3810   */\n  tag_34\n  jump\t// in\ntag_72:\n    /* \"#utility.yul\":3736:3810   */\n  swap2\n  pop\n    /* \"#utility.yul\":3819:3912   */\n  tag_73\n    /* \"#utility.yul\":3908:3911   */\n  dup3\n    /* \"#utility.yul\":3819:3912   */\n  tag_39\n  jump\t// in\ntag_73:\n    /* \"#utility.yul\":3937:3939   */\n  0x40\n    /* \"#utility.yul\":3932:3935   */\n  dup3\n    /* \"#utility.yul\":3928:3940   */\n  add\n    /* \"#utility.yul\":3921:3940   */\n  swap1\n  pop\n    /* \"#utility.yul\":3580:3946   */\n  swap2\n  swap1\n  pop\n  jump\t// out\n    /* \"#utility.yul\":3952:4371   */\ntag_25:\n    /* \"#utility.yul\":4118:4122   */\n  0x00\n    /* \"#utility.yul\":4156:4158   */\n  0x20\n    /* \"#utility.yul\":4145:4154   */\n  dup3\n    /* \"#utility.yul\":4141:4159   */\n  add\n    /* \"#utility.yul\":4133:4159   */\n  swap1\n  pop\n    /* \"#utility.yul\":4205:4214   */\n  dup2\n    /* \"#utility.yul\":4199:4203   */\n  dup2\n    /* \"#utility.yul\":4195:4215   */\n  sub\n    /* \"#utility.yul\":4191:4192   */\n  0x00\n    /* \"#utility.yul\":4180:4189   */\n  dup4\n    /* \"#utility.yul\":4176:4193   */\n  add\n    /* \"#utility.yul\":4169:4216   */\n  mstore\n    /* \"#utility.yul\":4233:4364   */\n  tag_75\n    /* \"#utility.yul\":4359:4363   */\n  dup2\n    /* \"#utility.yul\":4233:4364   */\n  tag_40\n  jump\t// in\ntag_75:\n    /* \"#utility.yul\":4225:4364   */\n  swap1\n  pop\n    /* \"#utility.yul\":3952:4371   */\n  swap2\n  swap1\n  pop\n  jump\t// out\n    /* \"hopium/etf/main/index-price-oracle.sol\":1173:1873  contract IndexPriceOracle is ImDirectory, ImIndexFactory, ImPriceOracle, Helpers {... */\ntag_10:\n  dataSize(sub_0)\n  dup1\n  dataOffset(sub_0)\n  0x00\n  codecopy\n  0x00\n  return\nstop\n\nsub_0: assembly {\n        /* \"hopium/etf/main/index-price-oracle.sol\":1173:1873  contract IndexPriceOracle is ImDirectory, ImIndexFactory, ImPriceOracle, Helpers {... */\n      mstore(0x40, 0x80)\n      callvalue\n      dup1\n      iszero\n      tag_1\n      jumpi\n      revert(0x00, 0x00)\n    tag_1:\n      pop\n      jumpi(tag_2, lt(calldatasize, 0x04))\n      shr(0xe0, calldataload(0x00))\n      dup1\n      0x27262618\n      eq\n      tag_3\n      jumpi\n      dup1\n      0x3ecb8b75\n      eq\n      tag_4\n      jumpi\n      dup1\n      0x658a847a\n      eq\n      tag_5\n      jumpi\n      dup1\n      0x8da5cb5b\n      eq\n      tag_6\n      jumpi\n      dup1\n      0xba4c7be1\n      eq\n      tag_7\n      jumpi\n      dup1\n      0xc9d54fa7\n      eq\n      tag_8\n      jumpi\n    tag_2:\n      revert(0x00, 0x00)\n        /* \"hopium/common/interface/imDirectory.sol\":1272:1408  function fetchFromDirectory(string memory _key) public view returns (address) {... */\n    tag_3:\n      tag_9\n      0x04\n      dup1\n      calldatasize\n      sub\n      dup2\n      add\n      swap1\n      tag_10\n      swap2\n      swap1\n      tag_11\n      jump\t// in\n    tag_10:\n      tag_12\n      jump\t// in\n    tag_9:\n      mload(0x40)\n      tag_13\n      swap2\n      swap1\n      tag_14\n      jump\t// in\n    tag_13:\n      mload(0x40)\n      dup1\n      swap2\n      sub\n      swap1\n      return\n        /* \"hopium/etf/main/index-price-oracle.sol\":1613:1871  function getIndexUsdPrice(uint256 indexId) external view returns (uint256) {... */\n    tag_4:\n      tag_15\n      0x04\n      dup1\n      calldatasize\n      sub\n      dup2\n      add\n      swap1\n      tag_16\n      swap2\n      swap1\n      tag_17\n      jump\t// in\n    tag_16:\n      tag_18\n      jump\t// in\n    tag_15:\n      mload(0x40)\n      tag_19\n      swap2\n      swap1\n      tag_20\n      jump\t// in\n    tag_19:\n      mload(0x40)\n      dup1\n      swap2\n      sub\n      swap1\n      return\n        /* \"hopium/common/interface/imDirectory.sol\":336:363  IDirectory public Directory */\n    tag_5:\n      tag_21\n      tag_22\n      jump\t// in\n    tag_21:\n      mload(0x40)\n      tag_23\n      swap2\n      swap1\n      tag_24\n      jump\t// in\n    tag_23:\n      mload(0x40)\n      dup1\n      swap2\n      sub\n      swap1\n      return\n        /* \"hopium/common/interface/imDirectory.sol\":1178:1266  function owner() public view returns (address) {... */\n    tag_6:\n      tag_25\n      tag_26\n      jump\t// in\n    tag_25:\n      mload(0x40)\n      tag_27\n      swap2\n      swap1\n      tag_14\n      jump\t// in\n    tag_27:\n      mload(0x40)\n      dup1\n      swap2\n      sub\n      swap1\n      return\n        /* \"hopium/common/interface/imDirectory.sol\":470:583  function changeDirectoryAddress(address _directory) external onlyOwner {... */\n    tag_7:\n      tag_28\n      0x04\n      dup1\n      calldatasize\n      sub\n      dup2\n      add\n      swap1\n      tag_29\n      swap2\n      swap1\n      tag_30\n      jump\t// in\n    tag_29:\n      tag_31\n      jump\t// in\n    tag_28:\n      stop\n        /* \"hopium/etf/main/index-price-oracle.sol\":1347:1607  function getIndexWethPrice(uint256 indexId) external view returns (uint256) {... */\n    tag_8:\n      tag_32\n      0x04\n      dup1\n      calldatasize\n      sub\n      dup2\n      add\n      swap1\n      tag_33\n      swap2\n      swap1\n      tag_17\n      jump\t// in\n    tag_33:\n      tag_34\n      jump\t// in\n    tag_32:\n      mload(0x40)\n      tag_35\n      swap2\n      swap1\n      tag_20\n      jump\t// in\n    tag_35:\n      mload(0x40)\n      dup1\n      swap2\n      sub\n      swap1\n      return\n        /* \"hopium/common/interface/imDirectory.sol\":1272:1408  function fetchFromDirectory(string memory _key) public view returns (address) {... */\n    tag_12:\n        /* \"hopium/common/interface/imDirectory.sol\":1341:1348  address */\n      0x00\n        /* \"hopium/common/interface/imDirectory.sol\":1367:1376  Directory */\n      0x00\n      0x00\n      swap1\n      sload\n      swap1\n      0x0100\n      exp\n      swap1\n      div\n      0xffffffffffffffffffffffffffffffffffffffff\n      and\n        /* \"hopium/common/interface/imDirectory.sol\":1367:1395  Directory.fetchFromDirectory */\n      0xffffffffffffffffffffffffffffffffffffffff\n      and\n      0x27262618\n        /* \"hopium/common/interface/imDirectory.sol\":1396:1400  _key */\n      dup4\n        /* \"hopium/common/interface/imDirectory.sol\":1367:1401  Directory.fetchFromDirectory(_key) */\n      mload(0x40)\n      dup3\n      0xffffffff\n      and\n      0xe0\n      shl\n      dup2\n      mstore\n      0x04\n      add\n      tag_37\n      swap2\n      swap1\n      tag_38\n      jump\t// in\n    tag_37:\n      0x20\n      mload(0x40)\n      dup1\n      dup4\n      sub\n      dup2\n      dup7\n      gas\n      staticcall\n      iszero\n      dup1\n      iszero\n      tag_40\n      jumpi\n      returndatacopy(0x00, 0x00, returndatasize)\n      revert(0x00, returndatasize)\n    tag_40:\n      pop\n      pop\n      pop\n      pop\n      mload(0x40)\n      returndatasize\n      not(0x1f)\n      0x1f\n      dup3\n      add\n      and\n      dup3\n      add\n      dup1\n      0x40\n      mstore\n      pop\n      dup2\n      add\n      swap1\n      tag_41\n      swap2\n      swap1\n      tag_42\n      jump\t// in\n    tag_41:\n        /* \"hopium/common/interface/imDirectory.sol\":1360:1401  return Directory.fetchFromDirectory(_key) */\n      swap1\n      pop\n        /* \"hopium/common/interface/imDirectory.sol\":1272:1408  function fetchFromDirectory(string memory _key) public view returns (address) {... */\n      swap2\n      swap1\n      pop\n      jump\t// out\n        /* \"hopium/etf/main/index-price-oracle.sol\":1613:1871  function getIndexUsdPrice(uint256 indexId) external view returns (uint256) {... */\n    tag_18:\n        /* \"hopium/etf/main/index-price-oracle.sol\":1679:1686  uint256 */\n      0x00\n        /* \"hopium/etf/main/index-price-oracle.sol\":1698:1716  Index memory index */\n      0x00\n        /* \"hopium/etf/main/index-price-oracle.sol\":1719:1736  getIndexFactory() */\n      tag_44\n        /* \"hopium/etf/main/index-price-oracle.sol\":1719:1734  getIndexFactory */\n      tag_45\n        /* \"hopium/etf/main/index-price-oracle.sol\":1719:1736  getIndexFactory() */\n      jump\t// in\n    tag_44:\n        /* \"hopium/etf/main/index-price-oracle.sol\":1719:1749  getIndexFactory().getIndexById */\n      0xffffffffffffffffffffffffffffffffffffffff\n      and\n      0x549e122b\n        /* \"hopium/etf/main/index-price-oracle.sol\":1750:1757  indexId */\n      dup5\n        /* \"hopium/etf/main/index-price-oracle.sol\":1719:1758  getIndexFactory().getIndexById(indexId) */\n      mload(0x40)\n      dup3\n      0xffffffff\n      and\n      0xe0\n      shl\n      dup2\n      mstore\n      0x04\n      add\n      tag_46\n      swap2\n      swap1\n      tag_20\n      jump\t// in\n    tag_46:\n      0x00\n      mload(0x40)\n      dup1\n      dup4\n      sub\n      dup2\n      dup7\n      gas\n      staticcall\n      iszero\n      dup1\n      iszero\n      tag_48\n      jumpi\n      returndatacopy(0x00, 0x00, returndatasize)\n      revert(0x00, returndatasize)\n    tag_48:\n      pop\n      pop\n      pop\n      pop\n      mload(0x40)\n      returndatasize\n      0x00\n      dup3\n      returndatacopy\n      returndatasize\n      not(0x1f)\n      0x1f\n      dup3\n      add\n      and\n      dup3\n      add\n      dup1\n      0x40\n      mstore\n      pop\n      dup2\n      add\n      swap1\n      tag_49\n      swap2\n      swap1\n      tag_50\n      jump\t// in\n    tag_49:\n        /* \"hopium/etf/main/index-price-oracle.sol\":1698:1758  Index memory index = getIndexFactory().getIndexById(indexId) */\n      swap1\n      pop\n        /* \"hopium/etf/main/index-price-oracle.sol\":1768:1782  IPriceOracle o */\n      0x00\n        /* \"hopium/etf/main/index-price-oracle.sol\":1785:1801  getPriceOracle() */\n      tag_51\n        /* \"hopium/etf/main/index-price-oracle.sol\":1785:1799  getPriceOracle */\n      tag_52\n        /* \"hopium/etf/main/index-price-oracle.sol\":1785:1801  getPriceOracle() */\n      jump\t// in\n    tag_51:\n        /* \"hopium/etf/main/index-price-oracle.sol\":1768:1801  IPriceOracle o = getPriceOracle() */\n      swap1\n      pop\n        /* \"hopium/etf/main/index-price-oracle.sol\":1818:1864  _weightedIndexPrice(index, o.getTokenUsdPrice) */\n      tag_53\n        /* \"hopium/etf/main/index-price-oracle.sol\":1838:1843  index */\n      dup3\n        /* \"hopium/etf/main/index-price-oracle.sol\":1845:1846  o */\n      dup3\n        /* \"hopium/etf/main/index-price-oracle.sol\":1845:1863  o.getTokenUsdPrice */\n      0xffffffffffffffffffffffffffffffffffffffff\n      and\n      0x593bcf\n        /* \"hopium/etf/main/index-price-oracle.sol\":1818:1837  _weightedIndexPrice */\n      tag_54\n        /* \"hopium/etf/main/index-price-oracle.sol\":1818:1864  _weightedIndexPrice(index, o.getTokenUsdPrice) */\n      jump\t// in\n    tag_53:\n        /* \"hopium/etf/main/index-price-oracle.sol\":1811:1864  return _weightedIndexPrice(index, o.getTokenUsdPrice) */\n      swap3\n      pop\n      pop\n      pop\n        /* \"hopium/etf/main/index-price-oracle.sol\":1613:1871  function getIndexUsdPrice(uint256 indexId) external view returns (uint256) {... */\n      swap2\n      swap1\n      pop\n      jump\t// out\n        /* \"hopium/common/interface/imDirectory.sol\":336:363  IDirectory public Directory */\n    tag_22:\n      0x00\n      0x00\n      swap1\n      sload\n      swap1\n      0x0100\n      exp\n      swap1\n      div\n      0xffffffffffffffffffffffffffffffffffffffff\n      and\n      dup2\n      jump\t// out\n        /* \"hopium/common/interface/imDirectory.sol\":1178:1266  function owner() public view returns (address) {... */\n    tag_26:\n        /* \"hopium/common/interface/imDirectory.sol\":1216:1223  address */\n      0x00\n        /* \"hopium/common/interface/imDirectory.sol\":1242:1251  Directory */\n      0x00\n      0x00\n      swap1\n      sload\n      swap1\n      0x0100\n      exp\n      swap1\n      div\n      0xffffffffffffffffffffffffffffffffffffffff\n      and\n        /* \"hopium/common/interface/imDirectory.sol\":1242:1257  Directory.owner */\n      0xffffffffffffffffffffffffffffffffffffffff\n      and\n      0x8da5cb5b\n        /* \"hopium/common/interface/imDirectory.sol\":1242:1259  Directory.owner() */\n      mload(0x40)\n      dup2\n      0xffffffff\n      and\n      0xe0\n      shl\n      dup2\n      mstore\n      0x04\n      add\n      0x20\n      mload(0x40)\n      dup1\n      dup4\n      sub\n      dup2\n      dup7\n      gas\n      staticcall\n      iszero\n      dup1\n      iszero\n      tag_57\n      jumpi\n      returndatacopy(0x00, 0x00, returndatasize)\n      revert(0x00, returndatasize)\n    tag_57:\n      pop\n      pop\n      pop\n      pop\n      mload(0x40)\n      returndatasize\n      not(0x1f)\n      0x1f\n      dup3\n      add\n      and\n      dup3\n      add\n      dup1\n      0x40\n      mstore\n      pop\n      dup2\n      add\n      swap1\n      tag_58\n      swap2\n      swap1\n      tag_42\n      jump\t// in\n    tag_58:\n        /* \"hopium/common/interface/imDirectory.sol\":1235:1259  return Directory.owner() */\n      swap1\n      pop\n        /* \"hopium/common/interface/imDirectory.sol\":1178:1266  function owner() public view returns (address) {... */\n      swap1\n      jump\t// out\n        /* \"hopium/common/interface/imDirectory.sol\":470:583  function changeDirectoryAddress(address _directory) external onlyOwner {... */\n    tag_31:\n        /* \"hopium/common/interface/imDirectory.sol\":1109:1118  Directory */\n      0x00\n      0x00\n      swap1\n      sload\n      swap1\n      0x0100\n      exp\n      swap1\n      div\n      0xffffffffffffffffffffffffffffffffffffffff\n      and\n        /* \"hopium/common/interface/imDirectory.sol\":1109:1124  Directory.owner */\n      0xffffffffffffffffffffffffffffffffffffffff\n      and\n      0x8da5cb5b\n        /* \"hopium/common/interface/imDirectory.sol\":1109:1126  Directory.owner() */\n      mload(0x40)\n      dup2\n      0xffffffff\n      and\n      0xe0\n      shl\n      dup2\n      mstore\n      0x04\n      add\n      0x20\n      mload(0x40)\n      dup1\n      dup4\n      sub\n      dup2\n      dup7\n      gas\n      staticcall\n      iszero\n      dup1\n      iszero\n      tag_61\n      jumpi\n      returndatacopy(0x00, 0x00, returndatasize)\n      revert(0x00, returndatasize)\n    tag_61:\n      pop\n      pop\n      pop\n      pop\n      mload(0x40)\n      returndatasize\n      not(0x1f)\n      0x1f\n      dup3\n      add\n      and\n      dup3\n      add\n      dup1\n      0x40\n      mstore\n      pop\n      dup2\n      add\n      swap1\n      tag_62\n      swap2\n      swap1\n      tag_42\n      jump\t// in\n    tag_62:\n        /* \"hopium/common/interface/imDirectory.sol\":1095:1126  msg.sender == Directory.owner() */\n      0xffffffffffffffffffffffffffffffffffffffff\n      and\n        /* \"hopium/common/interface/imDirectory.sol\":1095:1105  msg.sender */\n      caller\n        /* \"hopium/common/interface/imDirectory.sol\":1095:1126  msg.sender == Directory.owner() */\n      0xffffffffffffffffffffffffffffffffffffffff\n      and\n      eq\n        /* \"hopium/common/interface/imDirectory.sol\":1087:1154  require(msg.sender == Directory.owner(), \"Caller is not the owner\") */\n      tag_63\n      jumpi\n      mload(0x40)\n      0x08c379a000000000000000000000000000000000000000000000000000000000\n      dup2\n      mstore\n      0x04\n      add\n      tag_64\n      swap1\n      tag_65\n      jump\t// in\n    tag_64:\n      mload(0x40)\n      dup1\n      swap2\n      sub\n      swap1\n      revert\n    tag_63:\n        /* \"hopium/common/interface/imDirectory.sol\":551:576  _setDirectory(_directory) */\n      tag_67\n        /* \"hopium/common/interface/imDirectory.sol\":565:575  _directory */\n      dup2\n        /* \"hopium/common/interface/imDirectory.sol\":551:564  _setDirectory */\n      tag_68\n        /* \"hopium/common/interface/imDirectory.sol\":551:576  _setDirectory(_directory) */\n      jump\t// in\n    tag_67:\n        /* \"hopium/common/interface/imDirectory.sol\":470:583  function changeDirectoryAddress(address _directory) external onlyOwner {... */\n      pop\n      jump\t// out\n        /* \"hopium/etf/main/index-price-oracle.sol\":1347:1607  function getIndexWethPrice(uint256 indexId) external view returns (uint256) {... */\n    tag_34:\n        /* \"hopium/etf/main/index-price-oracle.sol\":1414:1421  uint256 */\n      0x00\n        /* \"hopium/etf/main/index-price-oracle.sol\":1433:1451  Index memory index */\n      0x00\n        /* \"hopium/etf/main/index-price-oracle.sol\":1454:1471  getIndexFactory() */\n      tag_70\n        /* \"hopium/etf/main/index-price-oracle.sol\":1454:1469  getIndexFactory */\n      tag_45\n        /* \"hopium/etf/main/index-price-oracle.sol\":1454:1471  getIndexFactory() */\n      jump\t// in\n    tag_70:\n        /* \"hopium/etf/main/index-price-oracle.sol\":1454:1484  getIndexFactory().getIndexById */\n      0xffffffffffffffffffffffffffffffffffffffff\n      and\n      0x549e122b\n        /* \"hopium/etf/main/index-price-oracle.sol\":1485:1492  indexId */\n      dup5\n        /* \"hopium/etf/main/index-price-oracle.sol\":1454:1493  getIndexFactory().getIndexById(indexId) */\n      mload(0x40)\n      dup3\n      0xffffffff\n      and\n      0xe0\n      shl\n      dup2\n      mstore\n      0x04\n      add\n      tag_71\n      swap2\n      swap1\n      tag_20\n      jump\t// in\n    tag_71:\n      0x00\n      mload(0x40)\n      dup1\n      dup4\n      sub\n      dup2\n      dup7\n      gas\n      staticcall\n      iszero\n      dup1\n      iszero\n      tag_73\n      jumpi\n      returndatacopy(0x00, 0x00, returndatasize)\n      revert(0x00, returndatasize)\n    tag_73:\n      pop\n      pop\n      pop\n      pop\n      mload(0x40)\n      returndatasize\n      0x00\n      dup3\n      returndatacopy\n      returndatasize\n      not(0x1f)\n      0x1f\n      dup3\n      add\n      and\n      dup3\n      add\n      dup1\n      0x40\n      mstore\n      pop\n      dup2\n      add\n      swap1\n      tag_74\n      swap2\n      swap1\n      tag_50\n      jump\t// in\n    tag_74:\n        /* \"hopium/etf/main/index-price-oracle.sol\":1433:1493  Index memory index = getIndexFactory().getIndexById(indexId) */\n      swap1\n      pop\n        /* \"hopium/etf/main/index-price-oracle.sol\":1503:1517  IPriceOracle o */\n      0x00\n        /* \"hopium/etf/main/index-price-oracle.sol\":1520:1536  getPriceOracle() */\n      tag_75\n        /* \"hopium/etf/main/index-price-oracle.sol\":1520:1534  getPriceOracle */\n      tag_52\n        /* \"hopium/etf/main/index-price-oracle.sol\":1520:1536  getPriceOracle() */\n      jump\t// in\n    tag_75:\n        /* \"hopium/etf/main/index-price-oracle.sol\":1503:1536  IPriceOracle o = getPriceOracle() */\n      swap1\n      pop\n        /* \"hopium/etf/main/index-price-oracle.sol\":1553:1600  _weightedIndexPrice(index, o.getTokenWethPrice) */\n      tag_76\n        /* \"hopium/etf/main/index-price-oracle.sol\":1573:1578  index */\n      dup3\n        /* \"hopium/etf/main/index-price-oracle.sol\":1580:1581  o */\n      dup3\n        /* \"hopium/etf/main/index-price-oracle.sol\":1580:1599  o.getTokenWethPrice */\n      0xffffffffffffffffffffffffffffffffffffffff\n      and\n      0x7b49b49d\n        /* \"hopium/etf/main/index-price-oracle.sol\":1553:1572  _weightedIndexPrice */\n      tag_54\n        /* \"hopium/etf/main/index-price-oracle.sol\":1553:1600  _weightedIndexPrice(index, o.getTokenWethPrice) */\n      jump\t// in\n    tag_76:\n        /* \"hopium/etf/main/index-price-oracle.sol\":1546:1600  return _weightedIndexPrice(index, o.getTokenWethPrice) */\n      swap3\n      pop\n      pop\n      pop\n        /* \"hopium/etf/main/index-price-oracle.sol\":1347:1607  function getIndexWethPrice(uint256 indexId) external view returns (uint256) {... */\n      swap2\n      swap1\n      pop\n      jump\t// out\n        /* \"hopium/etf/interface/imIndexFactory.sol\":387:534  function getIndexFactory() internal view virtual returns (IIndexFactory) {... */\n    tag_45:\n        /* \"hopium/etf/interface/imIndexFactory.sol\":445:458  IIndexFactory */\n      0x00\n        /* \"hopium/etf/interface/imIndexFactory.sol\":491:526  fetchFromDirectory(\"index-factory\") */\n      tag_78\n      mload(0x40)\n      dup1\n      0x40\n      add\n      0x40\n      mstore\n      dup1\n      0x0d\n      dup2\n      mstore\n      0x20\n      add\n      0x696e6465782d666163746f727900000000000000000000000000000000000000\n      dup2\n      mstore\n      pop\n        /* \"hopium/etf/interface/imIndexFactory.sol\":491:509  fetchFromDirectory */\n      tag_12\n        /* \"hopium/etf/interface/imIndexFactory.sol\":491:526  fetchFromDirectory(\"index-factory\") */\n      jump\t// in\n    tag_78:\n        /* \"hopium/etf/interface/imIndexFactory.sol\":470:527  return IIndexFactory(fetchFromDirectory(\"index-factory\")) */\n      swap1\n      pop\n        /* \"hopium/etf/interface/imIndexFactory.sol\":387:534  function getIndexFactory() internal view virtual returns (IIndexFactory) {... */\n      swap1\n      jump\t// out\n        /* \"hopium/standalone/interface/imPriceOracle.sol\":256:399  function getPriceOracle() internal view virtual returns (IPriceOracle) {... */\n    tag_52:\n        /* \"hopium/standalone/interface/imPriceOracle.sol\":313:325  IPriceOracle */\n      0x00\n        /* \"hopium/standalone/interface/imPriceOracle.sol\":357:391  fetchFromDirectory(\"price-oracle\") */\n      tag_80\n      mload(0x40)\n      dup1\n      0x40\n      add\n      0x40\n      mstore\n      dup1\n      0x0c\n      dup2\n      mstore\n      0x20\n      add\n      0x70726963652d6f7261636c650000000000000000000000000000000000000000\n      dup2\n      mstore\n      pop\n        /* \"hopium/standalone/interface/imPriceOracle.sol\":357:375  fetchFromDirectory */\n      tag_12\n        /* \"hopium/standalone/interface/imPriceOracle.sol\":357:391  fetchFromDirectory(\"price-oracle\") */\n      jump\t// in\n    tag_80:\n        /* \"hopium/standalone/interface/imPriceOracle.sol\":337:392  return IPriceOracle(fetchFromDirectory(\"price-oracle\")) */\n      swap1\n      pop\n        /* \"hopium/standalone/interface/imPriceOracle.sol\":256:399  function getPriceOracle() internal view virtual returns (IPriceOracle) {... */\n      swap1\n      jump\t// out\n        /* \"hopium/etf/main/index-price-oracle.sol\":609:1169  function _weightedIndexPrice(... */\n    tag_54:\n        /* \"hopium/etf/main/index-price-oracle.sol\":762:769  uint256 */\n      0x00\n        /* \"hopium/etf/main/index-price-oracle.sol\":781:790  uint256 n */\n      0x00\n        /* \"hopium/etf/main/index-price-oracle.sol\":793:798  index */\n      dup5\n        /* \"hopium/etf/main/index-price-oracle.sol\":793:807  index.holdings */\n      0x40\n      add\n      mload\n        /* \"hopium/etf/main/index-price-oracle.sol\":793:814  index.holdings.length */\n      mload\n        /* \"hopium/etf/main/index-price-oracle.sol\":781:814  uint256 n = index.holdings.length */\n      swap1\n      pop\n        /* \"hopium/etf/main/index-price-oracle.sol\":824:843  uint256 weightedSum */\n      0x00\n        /* \"hopium/etf/main/index-price-oracle.sol\":886:895  uint256 i */\n      0x00\n        /* \"hopium/etf/main/index-price-oracle.sol\":898:899  0 */\n      0x00\n        /* \"hopium/etf/main/index-price-oracle.sol\":886:899  uint256 i = 0 */\n      swap1\n      pop\n        /* \"hopium/etf/main/index-price-oracle.sol\":881:1092  for (uint256 i = 0; i < n; i++) {... */\n    tag_82:\n        /* \"hopium/etf/main/index-price-oracle.sol\":905:906  n */\n      dup3\n        /* \"hopium/etf/main/index-price-oracle.sol\":901:902  i */\n      dup2\n        /* \"hopium/etf/main/index-price-oracle.sol\":901:906  i < n */\n      lt\n        /* \"hopium/etf/main/index-price-oracle.sol\":881:1092  for (uint256 i = 0; i < n; i++) {... */\n      iszero\n      tag_83\n      jumpi\n        /* \"hopium/etf/main/index-price-oracle.sol\":927:943  Holding memory h */\n      0x00\n        /* \"hopium/etf/main/index-price-oracle.sol\":946:951  index */\n      dup8\n        /* \"hopium/etf/main/index-price-oracle.sol\":946:960  index.holdings */\n      0x40\n      add\n      mload\n        /* \"hopium/etf/main/index-price-oracle.sol\":961:962  i */\n      dup3\n        /* \"hopium/etf/main/index-price-oracle.sol\":946:963  index.holdings[i] */\n      dup2\n      mload\n      dup2\n      lt\n      tag_85\n      jumpi\n      tag_86\n      tag_87\n      jump\t// in\n    tag_86:\n    tag_85:\n      0x20\n      mul\n      0x20\n      add\n      add\n      mload\n        /* \"hopium/etf/main/index-price-oracle.sol\":927:963  Holding memory h = index.holdings[i] */\n      swap1\n      pop\n        /* \"hopium/etf/main/index-price-oracle.sol\":977:986  uint256 p */\n      0x00\n        /* \"hopium/etf/main/index-price-oracle.sol\":989:996  priceFn */\n      dup8\n      dup8\n        /* \"hopium/etf/main/index-price-oracle.sol\":997:998  h */\n      dup4\n        /* \"hopium/etf/main/index-price-oracle.sol\":997:1011  h.tokenAddress */\n      0x00\n      add\n      mload\n        /* \"hopium/etf/main/index-price-oracle.sol\":989:1012  priceFn(h.tokenAddress) */\n      mload(0x40)\n      dup3\n      0xffffffff\n      and\n      0xe0\n      shl\n      dup2\n      mstore\n      0x04\n      add\n      tag_88\n      swap2\n      swap1\n      tag_14\n      jump\t// in\n    tag_88:\n      0x20\n      mload(0x40)\n      dup1\n      dup4\n      sub\n      dup2\n      dup7\n      gas\n      staticcall\n      iszero\n      dup1\n      iszero\n      tag_90\n      jumpi\n      returndatacopy(0x00, 0x00, returndatasize)\n      revert(0x00, returndatasize)\n    tag_90:\n      pop\n      pop\n      pop\n      pop\n      mload(0x40)\n      returndatasize\n      not(0x1f)\n      0x1f\n      dup3\n      add\n      and\n      dup3\n      add\n      dup1\n      0x40\n      mstore\n      pop\n      dup2\n      add\n      swap1\n      tag_91\n      swap2\n      swap1\n      tag_92\n      jump\t// in\n    tag_91:\n        /* \"hopium/etf/main/index-price-oracle.sol\":977:1012  uint256 p = priceFn(h.tokenAddress) */\n      swap1\n      pop\n        /* \"hopium/etf/main/index-price-oracle.sol\":1068:1069  h */\n      dup2\n        /* \"hopium/etf/main/index-price-oracle.sol\":1068:1080  h.weightBips */\n      0x20\n      add\n      mload\n        /* \"hopium/etf/main/index-price-oracle.sol\":1060:1081  uint256(h.weightBips) */\n      0xffff\n      and\n        /* \"hopium/etf/main/index-price-oracle.sol\":1056:1057  p */\n      dup2\n        /* \"hopium/etf/main/index-price-oracle.sol\":1056:1081  p * uint256(h.weightBips) */\n      tag_93\n      swap2\n      swap1\n      tag_94\n      jump\t// in\n    tag_93:\n        /* \"hopium/etf/main/index-price-oracle.sol\":1041:1081  weightedSum += p * uint256(h.weightBips) */\n      dup5\n      tag_95\n      swap2\n      swap1\n      tag_96\n      jump\t// in\n    tag_95:\n      swap4\n      pop\n        /* \"hopium/etf/main/index-price-oracle.sol\":913:1092  {... */\n      pop\n      pop\n        /* \"hopium/etf/main/index-price-oracle.sol\":908:911  i++ */\n      dup1\n      dup1\n      0x01\n      add\n      swap2\n      pop\n      pop\n        /* \"hopium/etf/main/index-price-oracle.sol\":881:1092  for (uint256 i = 0; i < n; i++) {... */\n      jump(tag_82)\n    tag_83:\n      pop\n        /* \"hopium/common/storage/bips.sol\":97:103  10_000 */\n      0x2710\n        /* \"hopium/etf/main/index-price-oracle.sol\":1109:1120  weightedSum */\n      dup2\n        /* \"hopium/etf/main/index-price-oracle.sol\":1109:1143  weightedSum / HUNDRED_PERCENT_BIPS */\n      tag_97\n      swap2\n      swap1\n      tag_98\n      jump\t// in\n    tag_97:\n        /* \"hopium/etf/main/index-price-oracle.sol\":1102:1143  return weightedSum / HUNDRED_PERCENT_BIPS */\n      swap3\n      pop\n      pop\n      pop\n        /* \"hopium/etf/main/index-price-oracle.sol\":609:1169  function _weightedIndexPrice(... */\n      swap4\n      swap3\n      pop\n      pop\n      pop\n      jump\t// out\n        /* \"hopium/common/interface/imDirectory.sol\":589:1050  function _setDirectory(address _directory) internal {... */\n    tag_68:\n        /* \"hopium/common/interface/imDirectory.sol\":681:682  0 */\n      0x00\n        /* \"hopium/common/interface/imDirectory.sol\":659:683  _directory != address(0) */\n      0xffffffffffffffffffffffffffffffffffffffff\n      and\n        /* \"hopium/common/interface/imDirectory.sol\":659:669  _directory */\n      dup2\n        /* \"hopium/common/interface/imDirectory.sol\":659:683  _directory != address(0) */\n      0xffffffffffffffffffffffffffffffffffffffff\n      and\n      sub\n        /* \"hopium/common/interface/imDirectory.sol\":651:720  require(_directory != address(0), \"Directory cannot be zero address\") */\n      tag_100\n      jumpi\n      mload(0x40)\n      0x08c379a000000000000000000000000000000000000000000000000000000000\n      dup2\n      mstore\n      0x04\n      add\n      tag_101\n      swap1\n      tag_102\n      jump\t// in\n    tag_101:\n      mload(0x40)\n      dup1\n      swap2\n      sub\n      swap1\n      revert\n    tag_100:\n        /* \"hopium/common/interface/imDirectory.sol\":763:764  0 */\n      0x00\n        /* \"hopium/common/interface/imDirectory.sol\":738:748  _directory */\n      dup2\n        /* \"hopium/common/interface/imDirectory.sol\":738:760  _directory.code.length */\n      0xffffffffffffffffffffffffffffffffffffffff\n      and\n      extcodesize\n        /* \"hopium/common/interface/imDirectory.sol\":738:764  _directory.code.length > 0 */\n      gt\n        /* \"hopium/common/interface/imDirectory.sol\":730:797  require(_directory.code.length > 0, \"Directory must be a contract\") */\n      tag_103\n      jumpi\n      mload(0x40)\n      0x08c379a000000000000000000000000000000000000000000000000000000000\n      dup2\n      mstore\n      0x04\n      add\n      tag_104\n      swap1\n      tag_105\n      jump\t// in\n    tag_104:\n      mload(0x40)\n      dup1\n      swap2\n      sub\n      swap1\n      revert\n    tag_103:\n        /* \"hopium/common/interface/imDirectory.sol\":861:871  _directory */\n      dup1\n        /* \"hopium/common/interface/imDirectory.sol\":850:878  IDirectory(_directory).owner */\n      0xffffffffffffffffffffffffffffffffffffffff\n      and\n      0x8da5cb5b\n        /* \"hopium/common/interface/imDirectory.sol\":850:880  IDirectory(_directory).owner() */\n      mload(0x40)\n      dup2\n      0xffffffff\n      and\n      0xe0\n      shl\n      dup2\n      mstore\n      0x04\n      add\n      0x20\n      mload(0x40)\n      dup1\n      dup4\n      sub\n      dup2\n      dup7\n      gas\n      staticcall\n      swap3\n      pop\n      pop\n      pop\n      dup1\n      iszero\n      tag_106\n      jumpi\n      pop\n      mload(0x40)\n      returndatasize\n      not(0x1f)\n      0x1f\n      dup3\n      add\n      and\n      dup3\n      add\n      dup1\n      0x40\n      mstore\n      pop\n      dup2\n      add\n      swap1\n      tag_107\n      swap2\n      swap1\n      tag_42\n      jump\t// in\n    tag_107:\n      0x01\n    tag_106:\n        /* \"hopium/common/interface/imDirectory.sol\":846:1044  try IDirectory(_directory).owner() returns (address) {... */\n      tag_108\n      jumpi\n        /* \"hopium/common/interface/imDirectory.sol\":979:1033  revert(\"Directory address does not implement owner()\") */\n      mload(0x40)\n      0x08c379a000000000000000000000000000000000000000000000000000000000\n      dup2\n      mstore\n      0x04\n      add\n      tag_112\n      swap1\n      tag_113\n      jump\t// in\n    tag_112:\n      mload(0x40)\n      dup1\n      swap2\n      sub\n      swap1\n      revert\n        /* \"hopium/common/interface/imDirectory.sol\":846:1044  try IDirectory(_directory).owner() returns (address) {... */\n    tag_108:\n        /* \"hopium/common/interface/imDirectory.sol\":936:946  _directory */\n      dup2\n        /* \"hopium/common/interface/imDirectory.sol\":913:922  Directory */\n      0x00\n      0x00\n        /* \"hopium/common/interface/imDirectory.sol\":913:947  Directory = IDirectory(_directory) */\n      0x0100\n      exp\n      dup2\n      sload\n      dup2\n      0xffffffffffffffffffffffffffffffffffffffff\n      mul\n      not\n      and\n      swap1\n      dup4\n      0xffffffffffffffffffffffffffffffffffffffff\n      and\n      mul\n      or\n      swap1\n      sstore\n      pop\n        /* \"hopium/common/interface/imDirectory.sol\":881:958  returns (address) {... */\n      pop\n        /* \"hopium/common/interface/imDirectory.sol\":589:1050  function _setDirectory(address _directory) internal {... */\n      pop\n      jump\t// out\n        /* \"#utility.yul\":7:82   */\n    tag_115:\n        /* \"#utility.yul\":40:46   */\n      0x00\n        /* \"#utility.yul\":73:75   */\n      0x40\n        /* \"#utility.yul\":67:76   */\n      mload\n        /* \"#utility.yul\":57:76   */\n      swap1\n      pop\n        /* \"#utility.yul\":7:82   */\n      swap1\n      jump\t// out\n        /* \"#utility.yul\":88:205   */\n    tag_116:\n        /* \"#utility.yul\":197:198   */\n      0x00\n        /* \"#utility.yul\":194:195   */\n      0x00\n        /* \"#utility.yul\":187:199   */\n      revert\n        /* \"#utility.yul\":211:328   */\n    tag_117:\n        /* \"#utility.yul\":320:321   */\n      0x00\n        /* \"#utility.yul\":317:318   */\n      0x00\n        /* \"#utility.yul\":310:322   */\n      revert\n        /* \"#utility.yul\":334:451   */\n    tag_118:\n        /* \"#utility.yul\":443:444   */\n      0x00\n        /* \"#utility.yul\":440:441   */\n      0x00\n        /* \"#utility.yul\":433:445   */\n      revert\n        /* \"#utility.yul\":457:574   */\n    tag_119:\n        /* \"#utility.yul\":566:567   */\n      0x00\n        /* \"#utility.yul\":563:564   */\n      0x00\n        /* \"#utility.yul\":556:568   */\n      revert\n        /* \"#utility.yul\":580:682   */\n    tag_120:\n        /* \"#utility.yul\":621:627   */\n      0x00\n        /* \"#utility.yul\":672:674   */\n      0x1f\n        /* \"#utility.yul\":668:675   */\n      not\n        /* \"#utility.yul\":663:665   */\n      0x1f\n        /* \"#utility.yul\":656:661   */\n      dup4\n        /* \"#utility.yul\":652:666   */\n      add\n        /* \"#utility.yul\":648:676   */\n      and\n        /* \"#utility.yul\":638:676   */\n      swap1\n      pop\n        /* \"#utility.yul\":580:682   */\n      swap2\n      swap1\n      pop\n      jump\t// out\n        /* \"#utility.yul\":688:868   */\n    tag_121:\n        /* \"#utility.yul\":736:813   */\n      0x4e487b7100000000000000000000000000000000000000000000000000000000\n        /* \"#utility.yul\":733:734   */\n      0x00\n        /* \"#utility.yul\":726:814   */\n      mstore\n        /* \"#utility.yul\":833:837   */\n      0x41\n        /* \"#utility.yul\":830:831   */\n      0x04\n        /* \"#utility.yul\":823:838   */\n      mstore\n        /* \"#utility.yul\":857:861   */\n      0x24\n        /* \"#utility.yul\":854:855   */\n      0x00\n        /* \"#utility.yul\":847:862   */\n      revert\n        /* \"#utility.yul\":874:1155   */\n    tag_122:\n        /* \"#utility.yul\":957:984   */\n      tag_180\n        /* \"#utility.yul\":979:983   */\n      dup3\n        /* \"#utility.yul\":957:984   */\n      tag_120\n      jump\t// in\n    tag_180:\n        /* \"#utility.yul\":949:955   */\n      dup2\n        /* \"#utility.yul\":945:985   */\n      add\n        /* \"#utility.yul\":1087:1093   */\n      dup2\n        /* \"#utility.yul\":1075:1085   */\n      dup2\n        /* \"#utility.yul\":1072:1094   */\n      lt\n        /* \"#utility.yul\":1051:1069   */\n      0xffffffffffffffff\n        /* \"#utility.yul\":1039:1049   */\n      dup3\n        /* \"#utility.yul\":1036:1070   */\n      gt\n        /* \"#utility.yul\":1033:1095   */\n      or\n        /* \"#utility.yul\":1030:1118   */\n      iszero\n      tag_181\n      jumpi\n        /* \"#utility.yul\":1098:1116   */\n      tag_182\n      tag_121\n      jump\t// in\n    tag_182:\n        /* \"#utility.yul\":1030:1118   */\n    tag_181:\n        /* \"#utility.yul\":1138:1148   */\n      dup1\n        /* \"#utility.yul\":1134:1136   */\n      0x40\n        /* \"#utility.yul\":1127:1149   */\n      mstore\n        /* \"#utility.yul\":917:1155   */\n      pop\n        /* \"#utility.yul\":874:1155   */\n      pop\n      pop\n      jump\t// out\n        /* \"#utility.yul\":1161:1290   */\n    tag_123:\n        /* \"#utility.yul\":1195:1201   */\n      0x00\n        /* \"#utility.yul\":1222:1242   */\n      tag_184\n      tag_115\n      jump\t// in\n    tag_184:\n        /* \"#utility.yul\":1212:1242   */\n      swap1\n      pop\n        /* \"#utility.yul\":1251:1284   */\n      tag_185\n        /* \"#utility.yul\":1279:1283   */\n      dup3\n        /* \"#utility.yul\":1271:1277   */\n      dup3\n        /* \"#utility.yul\":1251:1284   */\n      tag_122\n      jump\t// in\n    tag_185:\n        /* \"#utility.yul\":1161:1290   */\n      swap2\n      swap1\n      pop\n      jump\t// out\n        /* \"#utility.yul\":1296:1604   */\n    tag_124:\n        /* \"#utility.yul\":1358:1362   */\n      0x00\n        /* \"#utility.yul\":1448:1466   */\n      0xffffffffffffffff\n        /* \"#utility.yul\":1440:1446   */\n      dup3\n        /* \"#utility.yul\":1437:1467   */\n      gt\n        /* \"#utility.yul\":1434:1490   */\n      iszero\n      tag_187\n      jumpi\n        /* \"#utility.yul\":1470:1488   */\n      tag_188\n      tag_121\n      jump\t// in\n    tag_188:\n        /* \"#utility.yul\":1434:1490   */\n    tag_187:\n        /* \"#utility.yul\":1508:1537   */\n      tag_189\n        /* \"#utility.yul\":1530:1536   */\n      dup3\n        /* \"#utility.yul\":1508:1537   */\n      tag_120\n      jump\t// in\n    tag_189:\n        /* \"#utility.yul\":1500:1537   */\n      swap1\n      pop\n        /* \"#utility.yul\":1592:1596   */\n      0x20\n        /* \"#utility.yul\":1586:1590   */\n      dup2\n        /* \"#utility.yul\":1582:1597   */\n      add\n        /* \"#utility.yul\":1574:1597   */\n      swap1\n      pop\n        /* \"#utility.yul\":1296:1604   */\n      swap2\n      swap1\n      pop\n      jump\t// out\n        /* \"#utility.yul\":1610:1758   */\n    tag_125:\n        /* \"#utility.yul\":1708:1714   */\n      dup3\n        /* \"#utility.yul\":1703:1706   */\n      dup2\n        /* \"#utility.yul\":1698:1701   */\n      dup4\n        /* \"#utility.yul\":1685:1715   */\n      calldatacopy\n        /* \"#utility.yul\":1749:1750   */\n      0x00\n        /* \"#utility.yul\":1740:1746   */\n      dup4\n        /* \"#utility.yul\":1735:1738   */\n      dup4\n        /* \"#utility.yul\":1731:1747   */\n      add\n        /* \"#utility.yul\":1724:1751   */\n      mstore\n        /* \"#utility.yul\":1610:1758   */\n      pop\n      pop\n      pop\n      jump\t// out\n        /* \"#utility.yul\":1764:2189   */\n    tag_126:\n        /* \"#utility.yul\":1842:1847   */\n      0x00\n        /* \"#utility.yul\":1867:1933   */\n      tag_192\n        /* \"#utility.yul\":1883:1932   */\n      tag_193\n        /* \"#utility.yul\":1925:1931   */\n      dup5\n        /* \"#utility.yul\":1883:1932   */\n      tag_124\n      jump\t// in\n    tag_193:\n        /* \"#utility.yul\":1867:1933   */\n      tag_123\n      jump\t// in\n    tag_192:\n        /* \"#utility.yul\":1858:1933   */\n      swap1\n      pop\n        /* \"#utility.yul\":1956:1962   */\n      dup3\n        /* \"#utility.yul\":1949:1954   */\n      dup2\n        /* \"#utility.yul\":1942:1963   */\n      mstore\n        /* \"#utility.yul\":1994:1998   */\n      0x20\n        /* \"#utility.yul\":1987:1992   */\n      dup2\n        /* \"#utility.yul\":1983:1999   */\n      add\n        /* \"#utility.yul\":2032:2035   */\n      dup5\n        /* \"#utility.yul\":2023:2029   */\n      dup5\n        /* \"#utility.yul\":2018:2021   */\n      dup5\n        /* \"#utility.yul\":2014:2030   */\n      add\n        /* \"#utility.yul\":2011:2036   */\n      gt\n        /* \"#utility.yul\":2008:2120   */\n      iszero\n      tag_194\n      jumpi\n        /* \"#utility.yul\":2039:2118   */\n      tag_195\n      tag_119\n      jump\t// in\n    tag_195:\n        /* \"#utility.yul\":2008:2120   */\n    tag_194:\n        /* \"#utility.yul\":2129:2183   */\n      tag_196\n        /* \"#utility.yul\":2176:2182   */\n      dup5\n        /* \"#utility.yul\":2171:2174   */\n      dup3\n        /* \"#utility.yul\":2166:2169   */\n      dup6\n        /* \"#utility.yul\":2129:2183   */\n      tag_125\n      jump\t// in\n    tag_196:\n        /* \"#utility.yul\":1848:2189   */\n      pop\n        /* \"#utility.yul\":1764:2189   */\n      swap4\n      swap3\n      pop\n      pop\n      pop\n      jump\t// out\n        /* \"#utility.yul\":2209:2549   */\n    tag_127:\n        /* \"#utility.yul\":2265:2270   */\n      0x00\n        /* \"#utility.yul\":2314:2317   */\n      dup3\n        /* \"#utility.yul\":2307:2311   */\n      0x1f\n        /* \"#utility.yul\":2299:2305   */\n      dup4\n        /* \"#utility.yul\":2295:2312   */\n      add\n        /* \"#utility.yul\":2291:2318   */\n      slt\n        /* \"#utility.yul\":2281:2403   */\n      tag_198\n      jumpi\n        /* \"#utility.yul\":2322:2401   */\n      tag_199\n      tag_118\n      jump\t// in\n    tag_199:\n        /* \"#utility.yul\":2281:2403   */\n    tag_198:\n        /* \"#utility.yul\":2439:2445   */\n      dup2\n        /* \"#utility.yul\":2426:2446   */\n      calldataload\n        /* \"#utility.yul\":2464:2543   */\n      tag_200\n        /* \"#utility.yul\":2539:2542   */\n      dup5\n        /* \"#utility.yul\":2531:2537   */\n      dup3\n        /* \"#utility.yul\":2524:2528   */\n      0x20\n        /* \"#utility.yul\":2516:2522   */\n      dup7\n        /* \"#utility.yul\":2512:2529   */\n      add\n        /* \"#utility.yul\":2464:2543   */\n      tag_126\n      jump\t// in\n    tag_200:\n        /* \"#utility.yul\":2455:2543   */\n      swap2\n      pop\n        /* \"#utility.yul\":2271:2549   */\n      pop\n        /* \"#utility.yul\":2209:2549   */\n      swap3\n      swap2\n      pop\n      pop\n      jump\t// out\n        /* \"#utility.yul\":2555:3064   */\n    tag_11:\n        /* \"#utility.yul\":2624:2630   */\n      0x00\n        /* \"#utility.yul\":2673:2675   */\n      0x20\n        /* \"#utility.yul\":2661:2670   */\n      dup3\n        /* \"#utility.yul\":2652:2659   */\n      dup5\n        /* \"#utility.yul\":2648:2671   */\n      sub\n        /* \"#utility.yul\":2644:2676   */\n      slt\n        /* \"#utility.yul\":2641:2760   */\n      iszero\n      tag_202\n      jumpi\n        /* \"#utility.yul\":2679:2758   */\n      tag_203\n      tag_116\n      jump\t// in\n    tag_203:\n        /* \"#utility.yul\":2641:2760   */\n    tag_202:\n        /* \"#utility.yul\":2827:2828   */\n      0x00\n        /* \"#utility.yul\":2816:2825   */\n      dup3\n        /* \"#utility.yul\":2812:2829   */\n      add\n        /* \"#utility.yul\":2799:2830   */\n      calldataload\n        /* \"#utility.yul\":2857:2875   */\n      0xffffffffffffffff\n        /* \"#utility.yul\":2849:2855   */\n      dup2\n        /* \"#utility.yul\":2846:2876   */\n      gt\n        /* \"#utility.yul\":2843:2960   */\n      iszero\n      tag_204\n      jumpi\n        /* \"#utility.yul\":2879:2958   */\n      tag_205\n      tag_117\n      jump\t// in\n    tag_205:\n        /* \"#utility.yul\":2843:2960   */\n    tag_204:\n        /* \"#utility.yul\":2984:3047   */\n      tag_206\n        /* \"#utility.yul\":3039:3046   */\n      dup5\n        /* \"#utility.yul\":3030:3036   */\n      dup3\n        /* \"#utility.yul\":3019:3028   */\n      dup6\n        /* \"#utility.yul\":3015:3037   */\n      add\n        /* \"#utility.yul\":2984:3047   */\n      tag_127\n      jump\t// in\n    tag_206:\n        /* \"#utility.yul\":2974:3047   */\n      swap2\n      pop\n        /* \"#utility.yul\":2770:3057   */\n      pop\n        /* \"#utility.yul\":2555:3064   */\n      swap3\n      swap2\n      pop\n      pop\n      jump\t// out\n        /* \"#utility.yul\":3070:3196   */\n    tag_128:\n        /* \"#utility.yul\":3107:3114   */\n      0x00\n        /* \"#utility.yul\":3147:3189   */\n      0xffffffffffffffffffffffffffffffffffffffff\n        /* \"#utility.yul\":3140:3145   */\n      dup3\n        /* \"#utility.yul\":3136:3190   */\n      and\n        /* \"#utility.yul\":3125:3190   */\n      swap1\n      pop\n        /* \"#utility.yul\":3070:3196   */\n      swap2\n      swap1\n      pop\n      jump\t// out\n        /* \"#utility.yul\":3202:3298   */\n    tag_129:\n        /* \"#utility.yul\":3239:3246   */\n      0x00\n        /* \"#utility.yul\":3268:3292   */\n      tag_209\n        /* \"#utility.yul\":3286:3291   */\n      dup3\n        /* \"#utility.yul\":3268:3292   */\n      tag_128\n      jump\t// in\n    tag_209:\n        /* \"#utility.yul\":3257:3292   */\n      swap1\n      pop\n        /* \"#utility.yul\":3202:3298   */\n      swap2\n      swap1\n      pop\n      jump\t// out\n        /* \"#utility.yul\":3304:3422   */\n    tag_130:\n        /* \"#utility.yul\":3391:3415   */\n      tag_211\n        /* \"#utility.yul\":3409:3414   */\n      dup2\n        /* \"#utility.yul\":3391:3415   */\n      tag_129\n      jump\t// in\n    tag_211:\n        /* \"#utility.yul\":3386:3389   */\n      dup3\n        /* \"#utility.yul\":3379:3416   */\n      mstore\n        /* \"#utility.yul\":3304:3422   */\n      pop\n      pop\n      jump\t// out\n        /* \"#utility.yul\":3428:3650   */\n    tag_14:\n        /* \"#utility.yul\":3521:3525   */\n      0x00\n        /* \"#utility.yul\":3559:3561   */\n      0x20\n        /* \"#utility.yul\":3548:3557   */\n      dup3\n        /* \"#utility.yul\":3544:3562   */\n      add\n        /* \"#utility.yul\":3536:3562   */\n      swap1\n      pop\n        /* \"#utility.yul\":3572:3643   */\n      tag_213\n        /* \"#utility.yul\":3640:3641   */\n      0x00\n        /* \"#utility.yul\":3629:3638   */\n      dup4\n        /* \"#utility.yul\":3625:3642   */\n      add\n        /* \"#utility.yul\":3616:3622   */\n      dup5\n        /* \"#utility.yul\":3572:3643   */\n      tag_130\n      jump\t// in\n    tag_213:\n        /* \"#utility.yul\":3428:3650   */\n      swap3\n      swap2\n      pop\n      pop\n      jump\t// out\n        /* \"#utility.yul\":3656:3733   */\n    tag_131:\n        /* \"#utility.yul\":3693:3700   */\n      0x00\n        /* \"#utility.yul\":3722:3727   */\n      dup2\n        /* \"#utility.yul\":3711:3727   */\n      swap1\n      pop\n        /* \"#utility.yul\":3656:3733   */\n      swap2\n      swap1\n      pop\n      jump\t// out\n        /* \"#utility.yul\":3739:3861   */\n    tag_132:\n        /* \"#utility.yul\":3812:3836   */\n      tag_216\n        /* \"#utility.yul\":3830:3835   */\n      dup2\n        /* \"#utility.yul\":3812:3836   */\n      tag_131\n      jump\t// in\n    tag_216:\n        /* \"#utility.yul\":3805:3810   */\n      dup2\n        /* \"#utility.yul\":3802:3837   */\n      eq\n        /* \"#utility.yul\":3792:3855   */\n      tag_217\n      jumpi\n        /* \"#utility.yul\":3851:3852   */\n      0x00\n        /* \"#utility.yul\":3848:3849   */\n      0x00\n        /* \"#utility.yul\":3841:3853   */\n      revert\n        /* \"#utility.yul\":3792:3855   */\n    tag_217:\n        /* \"#utility.yul\":3739:3861   */\n      pop\n      jump\t// out\n        /* \"#utility.yul\":3867:4006   */\n    tag_133:\n        /* \"#utility.yul\":3913:3918   */\n      0x00\n        /* \"#utility.yul\":3951:3957   */\n      dup2\n        /* \"#utility.yul\":3938:3958   */\n      calldataload\n        /* \"#utility.yul\":3929:3958   */\n      swap1\n      pop\n        /* \"#utility.yul\":3967:4000   */\n      tag_219\n        /* \"#utility.yul\":3994:3999   */\n      dup2\n        /* \"#utility.yul\":3967:4000   */\n      tag_132\n      jump\t// in\n    tag_219:\n        /* \"#utility.yul\":3867:4006   */\n      swap3\n      swap2\n      pop\n      pop\n      jump\t// out\n        /* \"#utility.yul\":4012:4341   */\n    tag_17:\n        /* \"#utility.yul\":4071:4077   */\n      0x00\n        /* \"#utility.yul\":4120:4122   */\n      0x20\n        /* \"#utility.yul\":4108:4117   */\n      dup3\n        /* \"#utility.yul\":4099:4106   */\n      dup5\n        /* \"#utility.yul\":4095:4118   */\n      sub\n        /* \"#utility.yul\":4091:4123   */\n      slt\n        /* \"#utility.yul\":4088:4207   */\n      iszero\n      tag_221\n      jumpi\n        /* \"#utility.yul\":4126:4205   */\n      tag_222\n      tag_116\n      jump\t// in\n    tag_222:\n        /* \"#utility.yul\":4088:4207   */\n    tag_221:\n        /* \"#utility.yul\":4246:4247   */\n      0x00\n        /* \"#utility.yul\":4271:4324   */\n      tag_223\n        /* \"#utility.yul\":4316:4323   */\n      dup5\n        /* \"#utility.yul\":4307:4313   */\n      dup3\n        /* \"#utility.yul\":4296:4305   */\n      dup6\n        /* \"#utility.yul\":4292:4314   */\n      add\n        /* \"#utility.yul\":4271:4324   */\n      tag_133\n      jump\t// in\n    tag_223:\n        /* \"#utility.yul\":4261:4324   */\n      swap2\n      pop\n        /* \"#utility.yul\":4217:4334   */\n      pop\n        /* \"#utility.yul\":4012:4341   */\n      swap3\n      swap2\n      pop\n      pop\n      jump\t// out\n        /* \"#utility.yul\":4347:4465   */\n    tag_134:\n        /* \"#utility.yul\":4434:4458   */\n      tag_225\n        /* \"#utility.yul\":4452:4457   */\n      dup2\n        /* \"#utility.yul\":4434:4458   */\n      tag_131\n      jump\t// in\n    tag_225:\n        /* \"#utility.yul\":4429:4432   */\n      dup3\n        /* \"#utility.yul\":4422:4459   */\n      mstore\n        /* \"#utility.yul\":4347:4465   */\n      pop\n      pop\n      jump\t// out\n        /* \"#utility.yul\":4471:4693   */\n    tag_20:\n        /* \"#utility.yul\":4564:4568   */\n      0x00\n        /* \"#utility.yul\":4602:4604   */\n      0x20\n        /* \"#utility.yul\":4591:4600   */\n      dup3\n        /* \"#utility.yul\":4587:4605   */\n      add\n        /* \"#utility.yul\":4579:4605   */\n      swap1\n      pop\n        /* \"#utility.yul\":4615:4686   */\n      tag_227\n        /* \"#utility.yul\":4683:4684   */\n      0x00\n        /* \"#utility.yul\":4672:4681   */\n      dup4\n        /* \"#utility.yul\":4668:4685   */\n      add\n        /* \"#utility.yul\":4659:4665   */\n      dup5\n        /* \"#utility.yul\":4615:4686   */\n      tag_134\n      jump\t// in\n    tag_227:\n        /* \"#utility.yul\":4471:4693   */\n      swap3\n      swap2\n      pop\n      pop\n      jump\t// out\n        /* \"#utility.yul\":4699:4759   */\n    tag_135:\n        /* \"#utility.yul\":4727:4730   */\n      0x00\n        /* \"#utility.yul\":4748:4753   */\n      dup2\n        /* \"#utility.yul\":4741:4753   */\n      swap1\n      pop\n        /* \"#utility.yul\":4699:4759   */\n      swap2\n      swap1\n      pop\n      jump\t// out\n        /* \"#utility.yul\":4765:4907   */\n    tag_136:\n        /* \"#utility.yul\":4815:4824   */\n      0x00\n        /* \"#utility.yul\":4848:4901   */\n      tag_230\n        /* \"#utility.yul\":4866:4900   */\n      tag_231\n        /* \"#utility.yul\":4875:4899   */\n      tag_232\n        /* \"#utility.yul\":4893:4898   */\n      dup5\n        /* \"#utility.yul\":4875:4899   */\n      tag_128\n      jump\t// in\n    tag_232:\n        /* \"#utility.yul\":4866:4900   */\n      tag_135\n      jump\t// in\n    tag_231:\n        /* \"#utility.yul\":4848:4901   */\n      tag_128\n      jump\t// in\n    tag_230:\n        /* \"#utility.yul\":4835:4901   */\n      swap1\n      pop\n        /* \"#utility.yul\":4765:4907   */\n      swap2\n      swap1\n      pop\n      jump\t// out\n        /* \"#utility.yul\":4913:5039   */\n    tag_137:\n        /* \"#utility.yul\":4963:4972   */\n      0x00\n        /* \"#utility.yul\":4996:5033   */\n      tag_234\n        /* \"#utility.yul\":5027:5032   */\n      dup3\n        /* \"#utility.yul\":4996:5033   */\n      tag_136\n      jump\t// in\n    tag_234:\n        /* \"#utility.yul\":4983:5033   */\n      swap1\n      pop\n        /* \"#utility.yul\":4913:5039   */\n      swap2\n      swap1\n      pop\n      jump\t// out\n        /* \"#utility.yul\":5045:5188   */\n    tag_138:\n        /* \"#utility.yul\":5112:5121   */\n      0x00\n        /* \"#utility.yul\":5145:5182   */\n      tag_236\n        /* \"#utility.yul\":5176:5181   */\n      dup3\n        /* \"#utility.yul\":5145:5182   */\n      tag_137\n      jump\t// in\n    tag_236:\n        /* \"#utility.yul\":5132:5182   */\n      swap1\n      pop\n        /* \"#utility.yul\":5045:5188   */\n      swap2\n      swap1\n      pop\n      jump\t// out\n        /* \"#utility.yul\":5194:5359   */\n    tag_139:\n        /* \"#utility.yul\":5298:5352   */\n      tag_238\n        /* \"#utility.yul\":5346:5351   */\n      dup2\n        /* \"#utility.yul\":5298:5352   */\n      tag_138\n      jump\t// in\n    tag_238:\n        /* \"#utility.yul\":5293:5296   */\n      dup3\n        /* \"#utility.yul\":5286:5353   */\n      mstore\n        /* \"#utility.yul\":5194:5359   */\n      pop\n      pop\n      jump\t// out\n        /* \"#utility.yul\":5365:5621   */\n    tag_24:\n        /* \"#utility.yul\":5475:5479   */\n      0x00\n        /* \"#utility.yul\":5513:5515   */\n      0x20\n        /* \"#utility.yul\":5502:5511   */\n      dup3\n        /* \"#utility.yul\":5498:5516   */\n      add\n        /* \"#utility.yul\":5490:5516   */\n      swap1\n      pop\n        /* \"#utility.yul\":5526:5614   */\n      tag_240\n        /* \"#utility.yul\":5611:5612   */\n      0x00\n        /* \"#utility.yul\":5600:5609   */\n      dup4\n        /* \"#utility.yul\":5596:5613   */\n      add\n        /* \"#utility.yul\":5587:5593   */\n      dup5\n        /* \"#utility.yul\":5526:5614   */\n      tag_139\n      jump\t// in\n    tag_240:\n        /* \"#utility.yul\":5365:5621   */\n      swap3\n      swap2\n      pop\n      pop\n      jump\t// out\n        /* \"#utility.yul\":5627:5749   */\n    tag_140:\n        /* \"#utility.yul\":5700:5724   */\n      tag_242\n        /* \"#utility.yul\":5718:5723   */\n      dup2\n        /* \"#utility.yul\":5700:5724   */\n      tag_129\n      jump\t// in\n    tag_242:\n        /* \"#utility.yul\":5693:5698   */\n      dup2\n        /* \"#utility.yul\":5690:5725   */\n      eq\n        /* \"#utility.yul\":5680:5743   */\n      tag_243\n      jumpi\n        /* \"#utility.yul\":5739:5740   */\n      0x00\n        /* \"#utility.yul\":5736:5737   */\n      0x00\n        /* \"#utility.yul\":5729:5741   */\n      revert\n        /* \"#utility.yul\":5680:5743   */\n    tag_243:\n        /* \"#utility.yul\":5627:5749   */\n      pop\n      jump\t// out\n        /* \"#utility.yul\":5755:5894   */\n    tag_141:\n        /* \"#utility.yul\":5801:5806   */\n      0x00\n        /* \"#utility.yul\":5839:5845   */\n      dup2\n        /* \"#utility.yul\":5826:5846   */\n      calldataload\n        /* \"#utility.yul\":5817:5846   */\n      swap1\n      pop\n        /* \"#utility.yul\":5855:5888   */\n      tag_245\n        /* \"#utility.yul\":5882:5887   */\n      dup2\n        /* \"#utility.yul\":5855:5888   */\n      tag_140\n      jump\t// in\n    tag_245:\n        /* \"#utility.yul\":5755:5894   */\n      swap3\n      swap2\n      pop\n      pop\n      jump\t// out\n        /* \"#utility.yul\":5900:6229   */\n    tag_30:\n        /* \"#utility.yul\":5959:5965   */\n      0x00\n        /* \"#utility.yul\":6008:6010   */\n      0x20\n        /* \"#utility.yul\":5996:6005   */\n      dup3\n        /* \"#utility.yul\":5987:5994   */\n      dup5\n        /* \"#utility.yul\":5983:6006   */\n      sub\n        /* \"#utility.yul\":5979:6011   */\n      slt\n        /* \"#utility.yul\":5976:6095   */\n      iszero\n      tag_247\n      jumpi\n        /* \"#utility.yul\":6014:6093   */\n      tag_248\n      tag_116\n      jump\t// in\n    tag_248:\n        /* \"#utility.yul\":5976:6095   */\n    tag_247:\n        /* \"#utility.yul\":6134:6135   */\n      0x00\n        /* \"#utility.yul\":6159:6212   */\n      tag_249\n        /* \"#utility.yul\":6204:6211   */\n      dup5\n        /* \"#utility.yul\":6195:6201   */\n      dup3\n        /* \"#utility.yul\":6184:6193   */\n      dup6\n        /* \"#utility.yul\":6180:6202   */\n      add\n        /* \"#utility.yul\":6159:6212   */\n      tag_141\n      jump\t// in\n    tag_249:\n        /* \"#utility.yul\":6149:6212   */\n      swap2\n      pop\n        /* \"#utility.yul\":6105:6222   */\n      pop\n        /* \"#utility.yul\":5900:6229   */\n      swap3\n      swap2\n      pop\n      pop\n      jump\t// out\n        /* \"#utility.yul\":6235:6334   */\n    tag_142:\n        /* \"#utility.yul\":6287:6293   */\n      0x00\n        /* \"#utility.yul\":6321:6326   */\n      dup2\n        /* \"#utility.yul\":6315:6327   */\n      mload\n        /* \"#utility.yul\":6305:6327   */\n      swap1\n      pop\n        /* \"#utility.yul\":6235:6334   */\n      swap2\n      swap1\n      pop\n      jump\t// out\n        /* \"#utility.yul\":6340:6509   */\n    tag_143:\n        /* \"#utility.yul\":6424:6435   */\n      0x00\n        /* \"#utility.yul\":6458:6464   */\n      dup3\n        /* \"#utility.yul\":6453:6456   */\n      dup3\n        /* \"#utility.yul\":6446:6465   */\n      mstore\n        /* \"#utility.yul\":6498:6502   */\n      0x20\n        /* \"#utility.yul\":6493:6496   */\n      dup3\n        /* \"#utility.yul\":6489:6503   */\n      add\n        /* \"#utility.yul\":6474:6503   */\n      swap1\n      pop\n        /* \"#utility.yul\":6340:6509   */\n      swap3\n      swap2\n      pop\n      pop\n      jump\t// out\n        /* \"#utility.yul\":6515:6654   */\n    tag_144:\n        /* \"#utility.yul\":6604:6610   */\n      dup3\n        /* \"#utility.yul\":6599:6602   */\n      dup2\n        /* \"#utility.yul\":6594:6597   */\n      dup4\n        /* \"#utility.yul\":6588:6611   */\n      mcopy\n        /* \"#utility.yul\":6645:6646   */\n      0x00\n        /* \"#utility.yul\":6636:6642   */\n      dup4\n        /* \"#utility.yul\":6631:6634   */\n      dup4\n        /* \"#utility.yul\":6627:6643   */\n      add\n        /* \"#utility.yul\":6620:6647   */\n      mstore\n        /* \"#utility.yul\":6515:6654   */\n      pop\n      pop\n      pop\n      jump\t// out\n        /* \"#utility.yul\":6660:7037   */\n    tag_145:\n        /* \"#utility.yul\":6748:6751   */\n      0x00\n        /* \"#utility.yul\":6776:6815   */\n      tag_254\n        /* \"#utility.yul\":6809:6814   */\n      dup3\n        /* \"#utility.yul\":6776:6815   */\n      tag_142\n      jump\t// in\n    tag_254:\n        /* \"#utility.yul\":6831:6902   */\n      tag_255\n        /* \"#utility.yul\":6895:6901   */\n      dup2\n        /* \"#utility.yul\":6890:6893   */\n      dup6\n        /* \"#utility.yul\":6831:6902   */\n      tag_143\n      jump\t// in\n    tag_255:\n        /* \"#utility.yul\":6824:6902   */\n      swap4\n      pop\n        /* \"#utility.yul\":6911:6976   */\n      tag_256\n        /* \"#utility.yul\":6969:6975   */\n      dup2\n        /* \"#utility.yul\":6964:6967   */\n      dup6\n        /* \"#utility.yul\":6957:6961   */\n      0x20\n        /* \"#utility.yul\":6950:6955   */\n      dup7\n        /* \"#utility.yul\":6946:6962   */\n      add\n        /* \"#utility.yul\":6911:6976   */\n      tag_144\n      jump\t// in\n    tag_256:\n        /* \"#utility.yul\":7001:7030   */\n      tag_257\n        /* \"#utility.yul\":7023:7029   */\n      dup2\n        /* \"#utility.yul\":7001:7030   */\n      tag_120\n      jump\t// in\n    tag_257:\n        /* \"#utility.yul\":6996:6999   */\n      dup5\n        /* \"#utility.yul\":6992:7031   */\n      add\n        /* \"#utility.yul\":6985:7031   */\n      swap2\n      pop\n        /* \"#utility.yul\":6752:7037   */\n      pop\n        /* \"#utility.yul\":6660:7037   */\n      swap3\n      swap2\n      pop\n      pop\n      jump\t// out\n        /* \"#utility.yul\":7043:7356   */\n    tag_38:\n        /* \"#utility.yul\":7156:7160   */\n      0x00\n        /* \"#utility.yul\":7194:7196   */\n      0x20\n        /* \"#utility.yul\":7183:7192   */\n      dup3\n        /* \"#utility.yul\":7179:7197   */\n      add\n        /* \"#utility.yul\":7171:7197   */\n      swap1\n      pop\n        /* \"#utility.yul\":7243:7252   */\n      dup2\n        /* \"#utility.yul\":7237:7241   */\n      dup2\n        /* \"#utility.yul\":7233:7253   */\n      sub\n        /* \"#utility.yul\":7229:7230   */\n      0x00\n        /* \"#utility.yul\":7218:7227   */\n      dup4\n        /* \"#utility.yul\":7214:7231   */\n      add\n        /* \"#utility.yul\":7207:7254   */\n      mstore\n        /* \"#utility.yul\":7271:7349   */\n      tag_259\n        /* \"#utility.yul\":7344:7348   */\n      dup2\n        /* \"#utility.yul\":7335:7341   */\n      dup5\n        /* \"#utility.yul\":7271:7349   */\n      tag_145\n      jump\t// in\n    tag_259:\n        /* \"#utility.yul\":7263:7349   */\n      swap1\n      pop\n        /* \"#utility.yul\":7043:7356   */\n      swap3\n      swap2\n      pop\n      pop\n      jump\t// out\n        /* \"#utility.yul\":7362:7505   */\n    tag_146:\n        /* \"#utility.yul\":7419:7424   */\n      0x00\n        /* \"#utility.yul\":7450:7456   */\n      dup2\n        /* \"#utility.yul\":7444:7457   */\n      mload\n        /* \"#utility.yul\":7435:7457   */\n      swap1\n      pop\n        /* \"#utility.yul\":7466:7499   */\n      tag_261\n        /* \"#utility.yul\":7493:7498   */\n      dup2\n        /* \"#utility.yul\":7466:7499   */\n      tag_140\n      jump\t// in\n    tag_261:\n        /* \"#utility.yul\":7362:7505   */\n      swap3\n      swap2\n      pop\n      pop\n      jump\t// out\n        /* \"#utility.yul\":7511:7862   */\n    tag_42:\n        /* \"#utility.yul\":7581:7587   */\n      0x00\n        /* \"#utility.yul\":7630:7632   */\n      0x20\n        /* \"#utility.yul\":7618:7627   */\n      dup3\n        /* \"#utility.yul\":7609:7616   */\n      dup5\n        /* \"#utility.yul\":7605:7628   */\n      sub\n        /* \"#utility.yul\":7601:7633   */\n      slt\n        /* \"#utility.yul\":7598:7717   */\n      iszero\n      tag_263\n      jumpi\n        /* \"#utility.yul\":7636:7715   */\n      tag_264\n      tag_116\n      jump\t// in\n    tag_264:\n        /* \"#utility.yul\":7598:7717   */\n    tag_263:\n        /* \"#utility.yul\":7756:7757   */\n      0x00\n        /* \"#utility.yul\":7781:7845   */\n      tag_265\n        /* \"#utility.yul\":7837:7844   */\n      dup5\n        /* \"#utility.yul\":7828:7834   */\n      dup3\n        /* \"#utility.yul\":7817:7826   */\n      dup6\n        /* \"#utility.yul\":7813:7835   */\n      add\n        /* \"#utility.yul\":7781:7845   */\n      tag_146\n      jump\t// in\n    tag_265:\n        /* \"#utility.yul\":7771:7845   */\n      swap2\n      pop\n        /* \"#utility.yul\":7727:7855   */\n      pop\n        /* \"#utility.yul\":7511:7862   */\n      swap3\n      swap2\n      pop\n      pop\n      jump\t// out\n        /* \"#utility.yul\":7868:7985   */\n    tag_147:\n        /* \"#utility.yul\":7977:7978   */\n      0x00\n        /* \"#utility.yul\":7974:7975   */\n      0x00\n        /* \"#utility.yul\":7967:7979   */\n      revert\n        /* \"#utility.yul\":7991:8108   */\n    tag_148:\n        /* \"#utility.yul\":8100:8101   */\n      0x00\n        /* \"#utility.yul\":8097:8098   */\n      0x00\n        /* \"#utility.yul\":8090:8102   */\n      revert\n        /* \"#utility.yul\":8114:8548   */\n    tag_149:\n        /* \"#utility.yul\":8203:8208   */\n      0x00\n        /* \"#utility.yul\":8228:8294   */\n      tag_269\n        /* \"#utility.yul\":8244:8293   */\n      tag_270\n        /* \"#utility.yul\":8286:8292   */\n      dup5\n        /* \"#utility.yul\":8244:8293   */\n      tag_124\n      jump\t// in\n    tag_270:\n        /* \"#utility.yul\":8228:8294   */\n      tag_123\n      jump\t// in\n    tag_269:\n        /* \"#utility.yul\":8219:8294   */\n      swap1\n      pop\n        /* \"#utility.yul\":8317:8323   */\n      dup3\n        /* \"#utility.yul\":8310:8315   */\n      dup2\n        /* \"#utility.yul\":8303:8324   */\n      mstore\n        /* \"#utility.yul\":8355:8359   */\n      0x20\n        /* \"#utility.yul\":8348:8353   */\n      dup2\n        /* \"#utility.yul\":8344:8360   */\n      add\n        /* \"#utility.yul\":8393:8396   */\n      dup5\n        /* \"#utility.yul\":8384:8390   */\n      dup5\n        /* \"#utility.yul\":8379:8382   */\n      dup5\n        /* \"#utility.yul\":8375:8391   */\n      add\n        /* \"#utility.yul\":8372:8397   */\n      gt\n        /* \"#utility.yul\":8369:8481   */\n      iszero\n      tag_271\n      jumpi\n        /* \"#utility.yul\":8400:8479   */\n      tag_272\n      tag_119\n      jump\t// in\n    tag_272:\n        /* \"#utility.yul\":8369:8481   */\n    tag_271:\n        /* \"#utility.yul\":8490:8542   */\n      tag_273\n        /* \"#utility.yul\":8535:8541   */\n      dup5\n        /* \"#utility.yul\":8530:8533   */\n      dup3\n        /* \"#utility.yul\":8525:8528   */\n      dup6\n        /* \"#utility.yul\":8490:8542   */\n      tag_144\n      jump\t// in\n    tag_273:\n        /* \"#utility.yul\":8209:8548   */\n      pop\n        /* \"#utility.yul\":8114:8548   */\n      swap4\n      swap3\n      pop\n      pop\n      pop\n      jump\t// out\n        /* \"#utility.yul\":8568:8923   */\n    tag_150:\n        /* \"#utility.yul\":8635:8640   */\n      0x00\n        /* \"#utility.yul\":8684:8687   */\n      dup3\n        /* \"#utility.yul\":8677:8681   */\n      0x1f\n        /* \"#utility.yul\":8669:8675   */\n      dup4\n        /* \"#utility.yul\":8665:8682   */\n      add\n        /* \"#utility.yul\":8661:8688   */\n      slt\n        /* \"#utility.yul\":8651:8773   */\n      tag_275\n      jumpi\n        /* \"#utility.yul\":8692:8771   */\n      tag_276\n      tag_118\n      jump\t// in\n    tag_276:\n        /* \"#utility.yul\":8651:8773   */\n    tag_275:\n        /* \"#utility.yul\":8802:8808   */\n      dup2\n        /* \"#utility.yul\":8796:8809   */\n      mload\n        /* \"#utility.yul\":8827:8917   */\n      tag_277\n        /* \"#utility.yul\":8913:8916   */\n      dup5\n        /* \"#utility.yul\":8905:8911   */\n      dup3\n        /* \"#utility.yul\":8898:8902   */\n      0x20\n        /* \"#utility.yul\":8890:8896   */\n      dup7\n        /* \"#utility.yul\":8886:8903   */\n      add\n        /* \"#utility.yul\":8827:8917   */\n      tag_149\n      jump\t// in\n    tag_277:\n        /* \"#utility.yul\":8818:8917   */\n      swap2\n      pop\n        /* \"#utility.yul\":8641:8923   */\n      pop\n        /* \"#utility.yul\":8568:8923   */\n      swap3\n      swap2\n      pop\n      pop\n      jump\t// out\n        /* \"#utility.yul\":8929:9264   */\n    tag_151:\n        /* \"#utility.yul\":9030:9034   */\n      0x00\n        /* \"#utility.yul\":9120:9138   */\n      0xffffffffffffffff\n        /* \"#utility.yul\":9112:9118   */\n      dup3\n        /* \"#utility.yul\":9109:9139   */\n      gt\n        /* \"#utility.yul\":9106:9162   */\n      iszero\n      tag_279\n      jumpi\n        /* \"#utility.yul\":9142:9160   */\n      tag_280\n      tag_121\n      jump\t// in\n    tag_280:\n        /* \"#utility.yul\":9106:9162   */\n    tag_279:\n        /* \"#utility.yul\":9192:9196   */\n      0x20\n        /* \"#utility.yul\":9184:9190   */\n      dup3\n        /* \"#utility.yul\":9180:9197   */\n      mul\n        /* \"#utility.yul\":9172:9197   */\n      swap1\n      pop\n        /* \"#utility.yul\":9252:9256   */\n      0x20\n        /* \"#utility.yul\":9246:9250   */\n      dup2\n        /* \"#utility.yul\":9242:9257   */\n      add\n        /* \"#utility.yul\":9234:9257   */\n      swap1\n      pop\n        /* \"#utility.yul\":8929:9264   */\n      swap2\n      swap1\n      pop\n      jump\t// out\n        /* \"#utility.yul\":9270:9387   */\n    tag_152:\n        /* \"#utility.yul\":9379:9380   */\n      0x00\n        /* \"#utility.yul\":9376:9377   */\n      0x00\n        /* \"#utility.yul\":9369:9381   */\n      revert\n        /* \"#utility.yul\":9393:9482   */\n    tag_153:\n        /* \"#utility.yul\":9429:9436   */\n      0x00\n        /* \"#utility.yul\":9469:9475   */\n      0xffff\n        /* \"#utility.yul\":9462:9467   */\n      dup3\n        /* \"#utility.yul\":9458:9476   */\n      and\n        /* \"#utility.yul\":9447:9476   */\n      swap1\n      pop\n        /* \"#utility.yul\":9393:9482   */\n      swap2\n      swap1\n      pop\n      jump\t// out\n        /* \"#utility.yul\":9488:9608   */\n    tag_154:\n        /* \"#utility.yul\":9560:9583   */\n      tag_284\n        /* \"#utility.yul\":9577:9582   */\n      dup2\n        /* \"#utility.yul\":9560:9583   */\n      tag_153\n      jump\t// in\n    tag_284:\n        /* \"#utility.yul\":9553:9558   */\n      dup2\n        /* \"#utility.yul\":9550:9584   */\n      eq\n        /* \"#utility.yul\":9540:9602   */\n      tag_285\n      jumpi\n        /* \"#utility.yul\":9598:9599   */\n      0x00\n        /* \"#utility.yul\":9595:9596   */\n      0x00\n        /* \"#utility.yul\":9588:9600   */\n      revert\n        /* \"#utility.yul\":9540:9602   */\n    tag_285:\n        /* \"#utility.yul\":9488:9608   */\n      pop\n      jump\t// out\n        /* \"#utility.yul\":9614:9755   */\n    tag_155:\n        /* \"#utility.yul\":9670:9675   */\n      0x00\n        /* \"#utility.yul\":9701:9707   */\n      dup2\n        /* \"#utility.yul\":9695:9708   */\n      mload\n        /* \"#utility.yul\":9686:9708   */\n      swap1\n      pop\n        /* \"#utility.yul\":9717:9749   */\n      tag_287\n        /* \"#utility.yul\":9743:9748   */\n      dup2\n        /* \"#utility.yul\":9717:9749   */\n      tag_154\n      jump\t// in\n    tag_287:\n        /* \"#utility.yul\":9614:9755   */\n      swap3\n      swap2\n      pop\n      pop\n      jump\t// out\n        /* \"#utility.yul\":9783:10402   */\n    tag_156:\n        /* \"#utility.yul\":9867:9872   */\n      0x00\n        /* \"#utility.yul\":9911:9915   */\n      0x40\n        /* \"#utility.yul\":9899:9908   */\n      dup3\n        /* \"#utility.yul\":9894:9897   */\n      dup5\n        /* \"#utility.yul\":9890:9909   */\n      sub\n        /* \"#utility.yul\":9886:9916   */\n      slt\n        /* \"#utility.yul\":9883:10000   */\n      iszero\n      tag_289\n      jumpi\n        /* \"#utility.yul\":9919:9998   */\n      tag_290\n      tag_147\n      jump\t// in\n    tag_290:\n        /* \"#utility.yul\":9883:10000   */\n    tag_289:\n        /* \"#utility.yul\":10018:10039   */\n      tag_291\n        /* \"#utility.yul\":10034:10038   */\n      0x40\n        /* \"#utility.yul\":10018:10039   */\n      tag_123\n      jump\t// in\n    tag_291:\n        /* \"#utility.yul\":10009:10039   */\n      swap1\n      pop\n        /* \"#utility.yul\":10106:10107   */\n      0x00\n        /* \"#utility.yul\":10146:10206   */\n      tag_292\n        /* \"#utility.yul\":10202:10205   */\n      dup5\n        /* \"#utility.yul\":10193:10199   */\n      dup3\n        /* \"#utility.yul\":10182:10191   */\n      dup6\n        /* \"#utility.yul\":10178:10200   */\n      add\n        /* \"#utility.yul\":10146:10206   */\n      tag_146\n      jump\t// in\n    tag_292:\n        /* \"#utility.yul\":10139:10143   */\n      0x00\n        /* \"#utility.yul\":10132:10137   */\n      dup4\n        /* \"#utility.yul\":10128:10144   */\n      add\n        /* \"#utility.yul\":10121:10207   */\n      mstore\n        /* \"#utility.yul\":10049:10218   */\n      pop\n        /* \"#utility.yul\":10283:10285   */\n      0x20\n        /* \"#utility.yul\":10324:10383   */\n      tag_293\n        /* \"#utility.yul\":10379:10382   */\n      dup5\n        /* \"#utility.yul\":10370:10376   */\n      dup3\n        /* \"#utility.yul\":10359:10368   */\n      dup6\n        /* \"#utility.yul\":10355:10377   */\n      add\n        /* \"#utility.yul\":10324:10383   */\n      tag_155\n      jump\t// in\n    tag_293:\n        /* \"#utility.yul\":10317:10321   */\n      0x20\n        /* \"#utility.yul\":10310:10315   */\n      dup4\n        /* \"#utility.yul\":10306:10322   */\n      add\n        /* \"#utility.yul\":10299:10384   */\n      mstore\n        /* \"#utility.yul\":10228:10395   */\n      pop\n        /* \"#utility.yul\":9783:10402   */\n      swap3\n      swap2\n      pop\n      pop\n      jump\t// out\n        /* \"#utility.yul\":10432:11236   */\n    tag_157:\n        /* \"#utility.yul\":10563:10568   */\n      0x00\n        /* \"#utility.yul\":10588:10693   */\n      tag_295\n        /* \"#utility.yul\":10604:10692   */\n      tag_296\n        /* \"#utility.yul\":10685:10691   */\n      dup5\n        /* \"#utility.yul\":10604:10692   */\n      tag_151\n      jump\t// in\n    tag_296:\n        /* \"#utility.yul\":10588:10693   */\n      tag_123\n      jump\t// in\n    tag_295:\n        /* \"#utility.yul\":10579:10693   */\n      swap1\n      pop\n        /* \"#utility.yul\":10713:10718   */\n      dup1\n        /* \"#utility.yul\":10742:10748   */\n      dup4\n        /* \"#utility.yul\":10735:10740   */\n      dup3\n        /* \"#utility.yul\":10728:10749   */\n      mstore\n        /* \"#utility.yul\":10776:10780   */\n      0x20\n        /* \"#utility.yul\":10769:10774   */\n      dup3\n        /* \"#utility.yul\":10765:10781   */\n      add\n        /* \"#utility.yul\":10758:10781   */\n      swap1\n      pop\n        /* \"#utility.yul\":10829:10833   */\n      0x40\n        /* \"#utility.yul\":10821:10827   */\n      dup5\n        /* \"#utility.yul\":10817:10834   */\n      mul\n        /* \"#utility.yul\":10809:10815   */\n      dup4\n        /* \"#utility.yul\":10805:10835   */\n      add\n        /* \"#utility.yul\":10858:10861   */\n      dup6\n        /* \"#utility.yul\":10850:10856   */\n      dup2\n        /* \"#utility.yul\":10847:10862   */\n      gt\n        /* \"#utility.yul\":10844:10966   */\n      iszero\n      tag_297\n      jumpi\n        /* \"#utility.yul\":10877:10956   */\n      tag_298\n      tag_152\n      jump\t// in\n    tag_298:\n        /* \"#utility.yul\":10844:10966   */\n    tag_297:\n        /* \"#utility.yul\":10992:10998   */\n      dup4\n        /* \"#utility.yul\":10975:11230   */\n    tag_299:\n        /* \"#utility.yul\":11009:11015   */\n      dup2\n        /* \"#utility.yul\":11004:11007   */\n      dup2\n        /* \"#utility.yul\":11001:11016   */\n      lt\n        /* \"#utility.yul\":10975:11230   */\n      iszero\n      tag_301\n      jumpi\n        /* \"#utility.yul\":11084:11087   */\n      dup1\n        /* \"#utility.yul\":11113:11185   */\n      tag_302\n        /* \"#utility.yul\":11181:11184   */\n      dup9\n        /* \"#utility.yul\":11169:11179   */\n      dup3\n        /* \"#utility.yul\":11113:11185   */\n      tag_156\n      jump\t// in\n    tag_302:\n        /* \"#utility.yul\":11108:11111   */\n      dup5\n        /* \"#utility.yul\":11101:11186   */\n      mstore\n        /* \"#utility.yul\":11215:11219   */\n      0x20\n        /* \"#utility.yul\":11210:11213   */\n      dup5\n        /* \"#utility.yul\":11206:11220   */\n      add\n        /* \"#utility.yul\":11199:11220   */\n      swap4\n      pop\n        /* \"#utility.yul\":11051:11230   */\n      pop\n        /* \"#utility.yul\":11035:11039   */\n      0x40\n        /* \"#utility.yul\":11030:11033   */\n      dup2\n        /* \"#utility.yul\":11026:11040   */\n      add\n        /* \"#utility.yul\":11019:11040   */\n      swap1\n      pop\n        /* \"#utility.yul\":10975:11230   */\n      jump(tag_299)\n    tag_301:\n        /* \"#utility.yul\":10979:11000   */\n      pop\n        /* \"#utility.yul\":10569:11236   */\n      pop\n      pop\n        /* \"#utility.yul\":10432:11236   */\n      swap4\n      swap3\n      pop\n      pop\n      pop\n      jump\t// out\n        /* \"#utility.yul\":11266:11699   */\n    tag_158:\n        /* \"#utility.yul\":11372:11377   */\n      0x00\n        /* \"#utility.yul\":11421:11424   */\n      dup3\n        /* \"#utility.yul\":11414:11418   */\n      0x1f\n        /* \"#utility.yul\":11406:11412   */\n      dup4\n        /* \"#utility.yul\":11402:11419   */\n      add\n        /* \"#utility.yul\":11398:11425   */\n      slt\n        /* \"#utility.yul\":11388:11510   */\n      tag_304\n      jumpi\n        /* \"#utility.yul\":11429:11508   */\n      tag_305\n      tag_118\n      jump\t// in\n    tag_305:\n        /* \"#utility.yul\":11388:11510   */\n    tag_304:\n        /* \"#utility.yul\":11539:11545   */\n      dup2\n        /* \"#utility.yul\":11533:11546   */\n      mload\n        /* \"#utility.yul\":11564:11693   */\n      tag_306\n        /* \"#utility.yul\":11689:11692   */\n      dup5\n        /* \"#utility.yul\":11681:11687   */\n      dup3\n        /* \"#utility.yul\":11674:11678   */\n      0x20\n        /* \"#utility.yul\":11666:11672   */\n      dup7\n        /* \"#utility.yul\":11662:11679   */\n      add\n        /* \"#utility.yul\":11564:11693   */\n      tag_157\n      jump\t// in\n    tag_306:\n        /* \"#utility.yul\":11555:11693   */\n      swap2\n      pop\n        /* \"#utility.yul\":11378:11699   */\n      pop\n        /* \"#utility.yul\":11266:11699   */\n      swap3\n      swap2\n      pop\n      pop\n      jump\t// out\n        /* \"#utility.yul\":11725:13035   */\n    tag_159:\n        /* \"#utility.yul\":11807:11812   */\n      0x00\n        /* \"#utility.yul\":11851:11855   */\n      0x60\n        /* \"#utility.yul\":11839:11848   */\n      dup3\n        /* \"#utility.yul\":11834:11837   */\n      dup5\n        /* \"#utility.yul\":11830:11849   */\n      sub\n        /* \"#utility.yul\":11826:11856   */\n      slt\n        /* \"#utility.yul\":11823:11940   */\n      iszero\n      tag_308\n      jumpi\n        /* \"#utility.yul\":11859:11938   */\n      tag_309\n      tag_147\n      jump\t// in\n    tag_309:\n        /* \"#utility.yul\":11823:11940   */\n    tag_308:\n        /* \"#utility.yul\":11958:11979   */\n      tag_310\n        /* \"#utility.yul\":11974:11978   */\n      0x60\n        /* \"#utility.yul\":11958:11979   */\n      tag_123\n      jump\t// in\n    tag_310:\n        /* \"#utility.yul\":11949:11979   */\n      swap1\n      pop\n        /* \"#utility.yul\":12059:12060   */\n      0x00\n        /* \"#utility.yul\":12048:12057   */\n      dup3\n        /* \"#utility.yul\":12044:12061   */\n      add\n        /* \"#utility.yul\":12038:12062   */\n      mload\n        /* \"#utility.yul\":12089:12107   */\n      0xffffffffffffffff\n        /* \"#utility.yul\":12081:12087   */\n      dup2\n        /* \"#utility.yul\":12078:12108   */\n      gt\n        /* \"#utility.yul\":12075:12192   */\n      iszero\n      tag_311\n      jumpi\n        /* \"#utility.yul\":12111:12190   */\n      tag_312\n      tag_148\n      jump\t// in\n    tag_312:\n        /* \"#utility.yul\":12075:12192   */\n    tag_311:\n        /* \"#utility.yul\":12231:12301   */\n      tag_313\n        /* \"#utility.yul\":12297:12300   */\n      dup5\n        /* \"#utility.yul\":12288:12294   */\n      dup3\n        /* \"#utility.yul\":12277:12286   */\n      dup6\n        /* \"#utility.yul\":12273:12295   */\n      add\n        /* \"#utility.yul\":12231:12301   */\n      tag_150\n      jump\t// in\n    tag_313:\n        /* \"#utility.yul\":12224:12228   */\n      0x00\n        /* \"#utility.yul\":12217:12222   */\n      dup4\n        /* \"#utility.yul\":12213:12229   */\n      add\n        /* \"#utility.yul\":12206:12302   */\n      mstore\n        /* \"#utility.yul\":11989:12313   */\n      pop\n        /* \"#utility.yul\":12395:12397   */\n      0x20\n        /* \"#utility.yul\":12384:12393   */\n      dup3\n        /* \"#utility.yul\":12380:12398   */\n      add\n        /* \"#utility.yul\":12374:12399   */\n      mload\n        /* \"#utility.yul\":12426:12444   */\n      0xffffffffffffffff\n        /* \"#utility.yul\":12418:12424   */\n      dup2\n        /* \"#utility.yul\":12415:12445   */\n      gt\n        /* \"#utility.yul\":12412:12529   */\n      iszero\n      tag_314\n      jumpi\n        /* \"#utility.yul\":12448:12527   */\n      tag_315\n      tag_148\n      jump\t// in\n    tag_315:\n        /* \"#utility.yul\":12412:12529   */\n    tag_314:\n        /* \"#utility.yul\":12568:12638   */\n      tag_316\n        /* \"#utility.yul\":12634:12637   */\n      dup5\n        /* \"#utility.yul\":12625:12631   */\n      dup3\n        /* \"#utility.yul\":12614:12623   */\n      dup6\n        /* \"#utility.yul\":12610:12632   */\n      add\n        /* \"#utility.yul\":12568:12638   */\n      tag_150\n      jump\t// in\n    tag_316:\n        /* \"#utility.yul\":12561:12565   */\n      0x20\n        /* \"#utility.yul\":12554:12559   */\n      dup4\n        /* \"#utility.yul\":12550:12566   */\n      add\n        /* \"#utility.yul\":12543:12639   */\n      mstore\n        /* \"#utility.yul\":12323:12650   */\n      pop\n        /* \"#utility.yul\":12734:12736   */\n      0x40\n        /* \"#utility.yul\":12723:12732   */\n      dup3\n        /* \"#utility.yul\":12719:12737   */\n      add\n        /* \"#utility.yul\":12713:12738   */\n      mload\n        /* \"#utility.yul\":12765:12783   */\n      0xffffffffffffffff\n        /* \"#utility.yul\":12757:12763   */\n      dup2\n        /* \"#utility.yul\":12754:12784   */\n      gt\n        /* \"#utility.yul\":12751:12868   */\n      iszero\n      tag_317\n      jumpi\n        /* \"#utility.yul\":12787:12866   */\n      tag_318\n      tag_148\n      jump\t// in\n    tag_318:\n        /* \"#utility.yul\":12751:12868   */\n    tag_317:\n        /* \"#utility.yul\":12907:13016   */\n      tag_319\n        /* \"#utility.yul\":13012:13015   */\n      dup5\n        /* \"#utility.yul\":13003:13009   */\n      dup3\n        /* \"#utility.yul\":12992:13001   */\n      dup6\n        /* \"#utility.yul\":12988:13010   */\n      add\n        /* \"#utility.yul\":12907:13016   */\n      tag_158\n      jump\t// in\n    tag_319:\n        /* \"#utility.yul\":12900:12904   */\n      0x40\n        /* \"#utility.yul\":12893:12898   */\n      dup4\n        /* \"#utility.yul\":12889:12905   */\n      add\n        /* \"#utility.yul\":12882:13017   */\n      mstore\n        /* \"#utility.yul\":12660:13028   */\n      pop\n        /* \"#utility.yul\":11725:13035   */\n      swap3\n      swap2\n      pop\n      pop\n      jump\t// out\n        /* \"#utility.yul\":13041:13589   */\n    tag_50:\n        /* \"#utility.yul\":13133:13139   */\n      0x00\n        /* \"#utility.yul\":13182:13184   */\n      0x20\n        /* \"#utility.yul\":13170:13179   */\n      dup3\n        /* \"#utility.yul\":13161:13168   */\n      dup5\n        /* \"#utility.yul\":13157:13180   */\n      sub\n        /* \"#utility.yul\":13153:13185   */\n      slt\n        /* \"#utility.yul\":13150:13269   */\n      iszero\n      tag_321\n      jumpi\n        /* \"#utility.yul\":13188:13267   */\n      tag_322\n      tag_116\n      jump\t// in\n    tag_322:\n        /* \"#utility.yul\":13150:13269   */\n    tag_321:\n        /* \"#utility.yul\":13329:13330   */\n      0x00\n        /* \"#utility.yul\":13318:13327   */\n      dup3\n        /* \"#utility.yul\":13314:13331   */\n      add\n        /* \"#utility.yul\":13308:13332   */\n      mload\n        /* \"#utility.yul\":13359:13377   */\n      0xffffffffffffffff\n        /* \"#utility.yul\":13351:13357   */\n      dup2\n        /* \"#utility.yul\":13348:13378   */\n      gt\n        /* \"#utility.yul\":13345:13462   */\n      iszero\n      tag_323\n      jumpi\n        /* \"#utility.yul\":13381:13460   */\n      tag_324\n      tag_117\n      jump\t// in\n    tag_324:\n        /* \"#utility.yul\":13345:13462   */\n    tag_323:\n        /* \"#utility.yul\":13486:13572   */\n      tag_325\n        /* \"#utility.yul\":13564:13571   */\n      dup5\n        /* \"#utility.yul\":13555:13561   */\n      dup3\n        /* \"#utility.yul\":13544:13553   */\n      dup6\n        /* \"#utility.yul\":13540:13562   */\n      add\n        /* \"#utility.yul\":13486:13572   */\n      tag_159\n      jump\t// in\n    tag_325:\n        /* \"#utility.yul\":13476:13572   */\n      swap2\n      pop\n        /* \"#utility.yul\":13279:13582   */\n      pop\n        /* \"#utility.yul\":13041:13589   */\n      swap3\n      swap2\n      pop\n      pop\n      jump\t// out\n        /* \"#utility.yul\":13595:13768   */\n    tag_160:\n        /* \"#utility.yul\":13735:13760   */\n      0x43616c6c6572206973206e6f7420746865206f776e6572000000000000000000\n        /* \"#utility.yul\":13731:13732   */\n      0x00\n        /* \"#utility.yul\":13723:13729   */\n      dup3\n        /* \"#utility.yul\":13719:13733   */\n      add\n        /* \"#utility.yul\":13712:13761   */\n      mstore\n        /* \"#utility.yul\":13595:13768   */\n      pop\n      jump\t// out\n        /* \"#utility.yul\":13774:14140   */\n    tag_161:\n        /* \"#utility.yul\":13916:13919   */\n      0x00\n        /* \"#utility.yul\":13937:14004   */\n      tag_328\n        /* \"#utility.yul\":14001:14003   */\n      0x17\n        /* \"#utility.yul\":13996:13999   */\n      dup4\n        /* \"#utility.yul\":13937:14004   */\n      tag_143\n      jump\t// in\n    tag_328:\n        /* \"#utility.yul\":13930:14004   */\n      swap2\n      pop\n        /* \"#utility.yul\":14013:14106   */\n      tag_329\n        /* \"#utility.yul\":14102:14105   */\n      dup3\n        /* \"#utility.yul\":14013:14106   */\n      tag_160\n      jump\t// in\n    tag_329:\n        /* \"#utility.yul\":14131:14133   */\n      0x20\n        /* \"#utility.yul\":14126:14129   */\n      dup3\n        /* \"#utility.yul\":14122:14134   */\n      add\n        /* \"#utility.yul\":14115:14134   */\n      swap1\n      pop\n        /* \"#utility.yul\":13774:14140   */\n      swap2\n      swap1\n      pop\n      jump\t// out\n        /* \"#utility.yul\":14146:14565   */\n    tag_65:\n        /* \"#utility.yul\":14312:14316   */\n      0x00\n        /* \"#utility.yul\":14350:14352   */\n      0x20\n        /* \"#utility.yul\":14339:14348   */\n      dup3\n        /* \"#utility.yul\":14335:14353   */\n      add\n        /* \"#utility.yul\":14327:14353   */\n      swap1\n      pop\n        /* \"#utility.yul\":14399:14408   */\n      dup2\n        /* \"#utility.yul\":14393:14397   */\n      dup2\n        /* \"#utility.yul\":14389:14409   */\n      sub\n        /* \"#utility.yul\":14385:14386   */\n      0x00\n        /* \"#utility.yul\":14374:14383   */\n      dup4\n        /* \"#utility.yul\":14370:14387   */\n      add\n        /* \"#utility.yul\":14363:14410   */\n      mstore\n        /* \"#utility.yul\":14427:14558   */\n      tag_331\n        /* \"#utility.yul\":14553:14557   */\n      dup2\n        /* \"#utility.yul\":14427:14558   */\n      tag_161\n      jump\t// in\n    tag_331:\n        /* \"#utility.yul\":14419:14558   */\n      swap1\n      pop\n        /* \"#utility.yul\":14146:14565   */\n      swap2\n      swap1\n      pop\n      jump\t// out\n        /* \"#utility.yul\":14571:14751   */\n    tag_87:\n        /* \"#utility.yul\":14619:14696   */\n      0x4e487b7100000000000000000000000000000000000000000000000000000000\n        /* \"#utility.yul\":14616:14617   */\n      0x00\n        /* \"#utility.yul\":14609:14697   */\n      mstore\n        /* \"#utility.yul\":14716:14720   */\n      0x32\n        /* \"#utility.yul\":14713:14714   */\n      0x04\n        /* \"#utility.yul\":14706:14721   */\n      mstore\n        /* \"#utility.yul\":14740:14744   */\n      0x24\n        /* \"#utility.yul\":14737:14738   */\n      0x00\n        /* \"#utility.yul\":14730:14745   */\n      revert\n        /* \"#utility.yul\":14757:14900   */\n    tag_162:\n        /* \"#utility.yul\":14814:14819   */\n      0x00\n        /* \"#utility.yul\":14845:14851   */\n      dup2\n        /* \"#utility.yul\":14839:14852   */\n      mload\n        /* \"#utility.yul\":14830:14852   */\n      swap1\n      pop\n        /* \"#utility.yul\":14861:14894   */\n      tag_334\n        /* \"#utility.yul\":14888:14893   */\n      dup2\n        /* \"#utility.yul\":14861:14894   */\n      tag_132\n      jump\t// in\n    tag_334:\n        /* \"#utility.yul\":14757:14900   */\n      swap3\n      swap2\n      pop\n      pop\n      jump\t// out\n        /* \"#utility.yul\":14906:15257   */\n    tag_92:\n        /* \"#utility.yul\":14976:14982   */\n      0x00\n        /* \"#utility.yul\":15025:15027   */\n      0x20\n        /* \"#utility.yul\":15013:15022   */\n      dup3\n        /* \"#utility.yul\":15004:15011   */\n      dup5\n        /* \"#utility.yul\":15000:15023   */\n      sub\n        /* \"#utility.yul\":14996:15028   */\n      slt\n        /* \"#utility.yul\":14993:15112   */\n      iszero\n      tag_336\n      jumpi\n        /* \"#utility.yul\":15031:15110   */\n      tag_337\n      tag_116\n      jump\t// in\n    tag_337:\n        /* \"#utility.yul\":14993:15112   */\n    tag_336:\n        /* \"#utility.yul\":15151:15152   */\n      0x00\n        /* \"#utility.yul\":15176:15240   */\n      tag_338\n        /* \"#utility.yul\":15232:15239   */\n      dup5\n        /* \"#utility.yul\":15223:15229   */\n      dup3\n        /* \"#utility.yul\":15212:15221   */\n      dup6\n        /* \"#utility.yul\":15208:15230   */\n      add\n        /* \"#utility.yul\":15176:15240   */\n      tag_162\n      jump\t// in\n    tag_338:\n        /* \"#utility.yul\":15166:15240   */\n      swap2\n      pop\n        /* \"#utility.yul\":15122:15250   */\n      pop\n        /* \"#utility.yul\":14906:15257   */\n      swap3\n      swap2\n      pop\n      pop\n      jump\t// out\n        /* \"#utility.yul\":15263:15443   */\n    tag_163:\n        /* \"#utility.yul\":15311:15388   */\n      0x4e487b7100000000000000000000000000000000000000000000000000000000\n        /* \"#utility.yul\":15308:15309   */\n      0x00\n        /* \"#utility.yul\":15301:15389   */\n      mstore\n        /* \"#utility.yul\":15408:15412   */\n      0x11\n        /* \"#utility.yul\":15405:15406   */\n      0x04\n        /* \"#utility.yul\":15398:15413   */\n      mstore\n        /* \"#utility.yul\":15432:15436   */\n      0x24\n        /* \"#utility.yul\":15429:15430   */\n      0x00\n        /* \"#utility.yul\":15422:15437   */\n      revert\n        /* \"#utility.yul\":15449:15859   */\n    tag_94:\n        /* \"#utility.yul\":15489:15496   */\n      0x00\n        /* \"#utility.yul\":15512:15532   */\n      tag_341\n        /* \"#utility.yul\":15530:15531   */\n      dup3\n        /* \"#utility.yul\":15512:15532   */\n      tag_131\n      jump\t// in\n    tag_341:\n        /* \"#utility.yul\":15507:15532   */\n      swap2\n      pop\n        /* \"#utility.yul\":15546:15566   */\n      tag_342\n        /* \"#utility.yul\":15564:15565   */\n      dup4\n        /* \"#utility.yul\":15546:15566   */\n      tag_131\n      jump\t// in\n    tag_342:\n        /* \"#utility.yul\":15541:15566   */\n      swap3\n      pop\n        /* \"#utility.yul\":15601:15602   */\n      dup3\n        /* \"#utility.yul\":15598:15599   */\n      dup3\n        /* \"#utility.yul\":15594:15603   */\n      mul\n        /* \"#utility.yul\":15623:15653   */\n      tag_343\n        /* \"#utility.yul\":15641:15652   */\n      dup2\n        /* \"#utility.yul\":15623:15653   */\n      tag_131\n      jump\t// in\n    tag_343:\n        /* \"#utility.yul\":15612:15653   */\n      swap2\n      pop\n        /* \"#utility.yul\":15802:15803   */\n      dup3\n        /* \"#utility.yul\":15793:15800   */\n      dup3\n        /* \"#utility.yul\":15789:15804   */\n      div\n        /* \"#utility.yul\":15786:15787   */\n      dup5\n        /* \"#utility.yul\":15783:15805   */\n      eq\n        /* \"#utility.yul\":15763:15764   */\n      dup4\n        /* \"#utility.yul\":15756:15765   */\n      iszero\n        /* \"#utility.yul\":15736:15819   */\n      or\n        /* \"#utility.yul\":15713:15852   */\n      tag_344\n      jumpi\n        /* \"#utility.yul\":15832:15850   */\n      tag_345\n      tag_163\n      jump\t// in\n    tag_345:\n        /* \"#utility.yul\":15713:15852   */\n    tag_344:\n        /* \"#utility.yul\":15497:15859   */\n      pop\n        /* \"#utility.yul\":15449:15859   */\n      swap3\n      swap2\n      pop\n      pop\n      jump\t// out\n        /* \"#utility.yul\":15865:16056   */\n    tag_96:\n        /* \"#utility.yul\":15905:15908   */\n      0x00\n        /* \"#utility.yul\":15924:15944   */\n      tag_347\n        /* \"#utility.yul\":15942:15943   */\n      dup3\n        /* \"#utility.yul\":15924:15944   */\n      tag_131\n      jump\t// in\n    tag_347:\n        /* \"#utility.yul\":15919:15944   */\n      swap2\n      pop\n        /* \"#utility.yul\":15958:15978   */\n      tag_348\n        /* \"#utility.yul\":15976:15977   */\n      dup4\n        /* \"#utility.yul\":15958:15978   */\n      tag_131\n      jump\t// in\n    tag_348:\n        /* \"#utility.yul\":15953:15978   */\n      swap3\n      pop\n        /* \"#utility.yul\":16001:16002   */\n      dup3\n        /* \"#utility.yul\":15998:15999   */\n      dup3\n        /* \"#utility.yul\":15994:16003   */\n      add\n        /* \"#utility.yul\":15987:16003   */\n      swap1\n      pop\n        /* \"#utility.yul\":16022:16025   */\n      dup1\n        /* \"#utility.yul\":16019:16020   */\n      dup3\n        /* \"#utility.yul\":16016:16026   */\n      gt\n        /* \"#utility.yul\":16013:16049   */\n      iszero\n      tag_349\n      jumpi\n        /* \"#utility.yul\":16029:16047   */\n      tag_350\n      tag_163\n      jump\t// in\n    tag_350:\n        /* \"#utility.yul\":16013:16049   */\n    tag_349:\n        /* \"#utility.yul\":15865:16056   */\n      swap3\n      swap2\n      pop\n      pop\n      jump\t// out\n        /* \"#utility.yul\":16062:16242   */\n    tag_164:\n        /* \"#utility.yul\":16110:16187   */\n      0x4e487b7100000000000000000000000000000000000000000000000000000000\n        /* \"#utility.yul\":16107:16108   */\n      0x00\n        /* \"#utility.yul\":16100:16188   */\n      mstore\n        /* \"#utility.yul\":16207:16211   */\n      0x12\n        /* \"#utility.yul\":16204:16205   */\n      0x04\n        /* \"#utility.yul\":16197:16212   */\n      mstore\n        /* \"#utility.yul\":16231:16235   */\n      0x24\n        /* \"#utility.yul\":16228:16229   */\n      0x00\n        /* \"#utility.yul\":16221:16236   */\n      revert\n        /* \"#utility.yul\":16248:16433   */\n    tag_98:\n        /* \"#utility.yul\":16288:16289   */\n      0x00\n        /* \"#utility.yul\":16305:16325   */\n      tag_353\n        /* \"#utility.yul\":16323:16324   */\n      dup3\n        /* \"#utility.yul\":16305:16325   */\n      tag_131\n      jump\t// in\n    tag_353:\n        /* \"#utility.yul\":16300:16325   */\n      swap2\n      pop\n        /* \"#utility.yul\":16339:16359   */\n      tag_354\n        /* \"#utility.yul\":16357:16358   */\n      dup4\n        /* \"#utility.yul\":16339:16359   */\n      tag_131\n      jump\t// in\n    tag_354:\n        /* \"#utility.yul\":16334:16359   */\n      swap3\n      pop\n        /* \"#utility.yul\":16378:16379   */\n      dup3\n        /* \"#utility.yul\":16368:16403   */\n      tag_355\n      jumpi\n        /* \"#utility.yul\":16383:16401   */\n      tag_356\n      tag_164\n      jump\t// in\n    tag_356:\n        /* \"#utility.yul\":16368:16403   */\n    tag_355:\n        /* \"#utility.yul\":16425:16426   */\n      dup3\n        /* \"#utility.yul\":16422:16423   */\n      dup3\n        /* \"#utility.yul\":16418:16427   */\n      div\n        /* \"#utility.yul\":16413:16427   */\n      swap1\n      pop\n        /* \"#utility.yul\":16248:16433   */\n      swap3\n      swap2\n      pop\n      pop\n      jump\t// out\n        /* \"#utility.yul\":16439:16621   */\n    tag_165:\n        /* \"#utility.yul\":16579:16613   */\n      0x4469726563746f72792063616e6e6f74206265207a65726f2061646472657373\n        /* \"#utility.yul\":16575:16576   */\n      0x00\n        /* \"#utility.yul\":16567:16573   */\n      dup3\n        /* \"#utility.yul\":16563:16577   */\n      add\n        /* \"#utility.yul\":16556:16614   */\n      mstore\n        /* \"#utility.yul\":16439:16621   */\n      pop\n      jump\t// out\n        /* \"#utility.yul\":16627:16993   */\n    tag_166:\n        /* \"#utility.yul\":16769:16772   */\n      0x00\n        /* \"#utility.yul\":16790:16857   */\n      tag_359\n        /* \"#utility.yul\":16854:16856   */\n      0x20\n        /* \"#utility.yul\":16849:16852   */\n      dup4\n        /* \"#utility.yul\":16790:16857   */\n      tag_143\n      jump\t// in\n    tag_359:\n        /* \"#utility.yul\":16783:16857   */\n      swap2\n      pop\n        /* \"#utility.yul\":16866:16959   */\n      tag_360\n        /* \"#utility.yul\":16955:16958   */\n      dup3\n        /* \"#utility.yul\":16866:16959   */\n      tag_165\n      jump\t// in\n    tag_360:\n        /* \"#utility.yul\":16984:16986   */\n      0x20\n        /* \"#utility.yul\":16979:16982   */\n      dup3\n        /* \"#utility.yul\":16975:16987   */\n      add\n        /* \"#utility.yul\":16968:16987   */\n      swap1\n      pop\n        /* \"#utility.yul\":16627:16993   */\n      swap2\n      swap1\n      pop\n      jump\t// out\n        /* \"#utility.yul\":16999:17418   */\n    tag_102:\n        /* \"#utility.yul\":17165:17169   */\n      0x00\n        /* \"#utility.yul\":17203:17205   */\n      0x20\n        /* \"#utility.yul\":17192:17201   */\n      dup3\n        /* \"#utility.yul\":17188:17206   */\n      add\n        /* \"#utility.yul\":17180:17206   */\n      swap1\n      pop\n        /* \"#utility.yul\":17252:17261   */\n      dup2\n        /* \"#utility.yul\":17246:17250   */\n      dup2\n        /* \"#utility.yul\":17242:17262   */\n      sub\n        /* \"#utility.yul\":17238:17239   */\n      0x00\n        /* \"#utility.yul\":17227:17236   */\n      dup4\n        /* \"#utility.yul\":17223:17240   */\n      add\n        /* \"#utility.yul\":17216:17263   */\n      mstore\n        /* \"#utility.yul\":17280:17411   */\n      tag_362\n        /* \"#utility.yul\":17406:17410   */\n      dup2\n        /* \"#utility.yul\":17280:17411   */\n      tag_166\n      jump\t// in\n    tag_362:\n        /* \"#utility.yul\":17272:17411   */\n      swap1\n      pop\n        /* \"#utility.yul\":16999:17418   */\n      swap2\n      swap1\n      pop\n      jump\t// out\n        /* \"#utility.yul\":17424:17602   */\n    tag_167:\n        /* \"#utility.yul\":17564:17594   */\n      0x4469726563746f7279206d757374206265206120636f6e747261637400000000\n        /* \"#utility.yul\":17560:17561   */\n      0x00\n        /* \"#utility.yul\":17552:17558   */\n      dup3\n        /* \"#utility.yul\":17548:17562   */\n      add\n        /* \"#utility.yul\":17541:17595   */\n      mstore\n        /* \"#utility.yul\":17424:17602   */\n      pop\n      jump\t// out\n        /* \"#utility.yul\":17608:17974   */\n    tag_168:\n        /* \"#utility.yul\":17750:17753   */\n      0x00\n        /* \"#utility.yul\":17771:17838   */\n      tag_365\n        /* \"#utility.yul\":17835:17837   */\n      0x1c\n        /* \"#utility.yul\":17830:17833   */\n      dup4\n        /* \"#utility.yul\":17771:17838   */\n      tag_143\n      jump\t// in\n    tag_365:\n        /* \"#utility.yul\":17764:17838   */\n      swap2\n      pop\n        /* \"#utility.yul\":17847:17940   */\n      tag_366\n        /* \"#utility.yul\":17936:17939   */\n      dup3\n        /* \"#utility.yul\":17847:17940   */\n      tag_167\n      jump\t// in\n    tag_366:\n        /* \"#utility.yul\":17965:17967   */\n      0x20\n        /* \"#utility.yul\":17960:17963   */\n      dup3\n        /* \"#utility.yul\":17956:17968   */\n      add\n        /* \"#utility.yul\":17949:17968   */\n      swap1\n      pop\n        /* \"#utility.yul\":17608:17974   */\n      swap2\n      swap1\n      pop\n      jump\t// out\n        /* \"#utility.yul\":17980:18399   */\n    tag_105:\n        /* \"#utility.yul\":18146:18150   */\n      0x00\n        /* \"#utility.yul\":18184:18186   */\n      0x20\n        /* \"#utility.yul\":18173:18182   */\n      dup3\n        /* \"#utility.yul\":18169:18187   */\n      add\n        /* \"#utility.yul\":18161:18187   */\n      swap1\n      pop\n        /* \"#utility.yul\":18233:18242   */\n      dup2\n        /* \"#utility.yul\":18227:18231   */\n      dup2\n        /* \"#utility.yul\":18223:18243   */\n      sub\n        /* \"#utility.yul\":18219:18220   */\n      0x00\n        /* \"#utility.yul\":18208:18217   */\n      dup4\n        /* \"#utility.yul\":18204:18221   */\n      add\n        /* \"#utility.yul\":18197:18244   */\n      mstore\n        /* \"#utility.yul\":18261:18392   */\n      tag_368\n        /* \"#utility.yul\":18387:18391   */\n      dup2\n        /* \"#utility.yul\":18261:18392   */\n      tag_168\n      jump\t// in\n    tag_368:\n        /* \"#utility.yul\":18253:18392   */\n      swap1\n      pop\n        /* \"#utility.yul\":17980:18399   */\n      swap2\n      swap1\n      pop\n      jump\t// out\n        /* \"#utility.yul\":18405:18636   */\n    tag_169:\n        /* \"#utility.yul\":18545:18579   */\n      0x4469726563746f7279206164647265737320646f6573206e6f7420696d706c65\n        /* \"#utility.yul\":18541:18542   */\n      0x00\n        /* \"#utility.yul\":18533:18539   */\n      dup3\n        /* \"#utility.yul\":18529:18543   */\n      add\n        /* \"#utility.yul\":18522:18580   */\n      mstore\n        /* \"#utility.yul\":18614:18628   */\n      0x6d656e74206f776e657228290000000000000000000000000000000000000000\n        /* \"#utility.yul\":18609:18611   */\n      0x20\n        /* \"#utility.yul\":18601:18607   */\n      dup3\n        /* \"#utility.yul\":18597:18612   */\n      add\n        /* \"#utility.yul\":18590:18629   */\n      mstore\n        /* \"#utility.yul\":18405:18636   */\n      pop\n      jump\t// out\n        /* \"#utility.yul\":18642:19008   */\n    tag_170:\n        /* \"#utility.yul\":18784:18787   */\n      0x00\n        /* \"#utility.yul\":18805:18872   */\n      tag_371\n        /* \"#utility.yul\":18869:18871   */\n      0x2c\n        /* \"#utility.yul\":18864:18867   */\n      dup4\n        /* \"#utility.yul\":18805:18872   */\n      tag_143\n      jump\t// in\n    tag_371:\n        /* \"#utility.yul\":18798:18872   */\n      swap2\n      pop\n        /* \"#utility.yul\":18881:18974   */\n      tag_372\n        /* \"#utility.yul\":18970:18973   */\n      dup3\n        /* \"#utility.yul\":18881:18974   */\n      tag_169\n      jump\t// in\n    tag_372:\n        /* \"#utility.yul\":18999:19001   */\n      0x40\n        /* \"#utility.yul\":18994:18997   */\n      dup3\n        /* \"#utility.yul\":18990:19002   */\n      add\n        /* \"#utility.yul\":18983:19002   */\n      swap1\n      pop\n        /* \"#utility.yul\":18642:19008   */\n      swap2\n      swap1\n      pop\n      jump\t// out\n        /* \"#utility.yul\":19014:19433   */\n    tag_113:\n        /* \"#utility.yul\":19180:19184   */\n      0x00\n        /* \"#utility.yul\":19218:19220   */\n      0x20\n        /* \"#utility.yul\":19207:19216   */\n      dup3\n        /* \"#utility.yul\":19203:19221   */\n      add\n        /* \"#utility.yul\":19195:19221   */\n      swap1\n      pop\n        /* \"#utility.yul\":19267:19276   */\n      dup2\n        /* \"#utility.yul\":19261:19265   */\n      dup2\n        /* \"#utility.yul\":19257:19277   */\n      sub\n        /* \"#utility.yul\":19253:19254   */\n      0x00\n        /* \"#utility.yul\":19242:19251   */\n      dup4\n        /* \"#utility.yul\":19238:19255   */\n      add\n        /* \"#utility.yul\":19231:19278   */\n      mstore\n        /* \"#utility.yul\":19295:19426   */\n      tag_374\n        /* \"#utility.yul\":19421:19425   */\n      dup2\n        /* \"#utility.yul\":19295:19426   */\n      tag_170\n      jump\t// in\n    tag_374:\n        /* \"#utility.yul\":19287:19426   */\n      swap1\n      pop\n        /* \"#utility.yul\":19014:19433   */\n      swap2\n      swap1\n      pop\n      jump\t// out\n\n    auxdata: 0xa2646970667358221220bc6d64a1e8bc6a42a5a304cadb7e8b6dd788625d0b4493c86bca670c0b9450c464736f6c634300081e0033\n}\n",
				"bytecode": {
					"linkReferences": {},
					"object": "608060405234801561000f575f5ffd5b5060405161165e38038061165e83398181016040528101906100319190610257565b806100418161004860201b60201c565b50506103f0565b5f73ffffffffffffffffffffffffffffffffffffffff168173ffffffffffffffffffffffffffffffffffffffff16036100b6576040517f08c379a00000000000000000000000000000000000000000000000000000000081526004016100ad906102dc565b60405180910390fd5b5f8173ffffffffffffffffffffffffffffffffffffffff163b1161010f576040517f08c379a000000000000000000000000000000000000000000000000000000000815260040161010690610344565b60405180910390fd5b8073ffffffffffffffffffffffffffffffffffffffff16638da5cb5b6040518163ffffffff1660e01b8152600401602060405180830381865afa92505050801561017757506040513d601f19601f820116820180604052508101906101749190610257565b60015b6101b6576040517f08c379a00000000000000000000000000000000000000000000000000000000081526004016101ad906103d2565b60405180910390fd5b815f5f6101000a81548173ffffffffffffffffffffffffffffffffffffffff021916908373ffffffffffffffffffffffffffffffffffffffff1602179055505050565b5f5ffd5b5f73ffffffffffffffffffffffffffffffffffffffff82169050919050565b5f610226826101fd565b9050919050565b6102368161021c565b8114610240575f5ffd5b50565b5f815190506102518161022d565b92915050565b5f6020828403121561026c5761026b6101f9565b5b5f61027984828501610243565b91505092915050565b5f82825260208201905092915050565b7f4469726563746f72792063616e6e6f74206265207a65726f20616464726573735f82015250565b5f6102c6602083610282565b91506102d182610292565b602082019050919050565b5f6020820190508181035f8301526102f3816102ba565b9050919050565b7f4469726563746f7279206d757374206265206120636f6e7472616374000000005f82015250565b5f61032e601c83610282565b9150610339826102fa565b602082019050919050565b5f6020820190508181035f83015261035b81610322565b9050919050565b7f4469726563746f7279206164647265737320646f6573206e6f7420696d706c655f8201527f6d656e74206f776e657228290000000000000000000000000000000000000000602082015250565b5f6103bc602c83610282565b91506103c782610362565b604082019050919050565b5f6020820190508181035f8301526103e9816103b0565b9050919050565b611261806103fd5f395ff3fe608060405234801561000f575f5ffd5b5060043610610060575f3560e01c806327262618146100645780633ecb8b7514610094578063658a847a146100c45780638da5cb5b146100e2578063ba4c7be114610100578063c9d54fa71461011c575b5f5ffd5b61007e60048036038101906100799190610994565b61014c565b60405161008b9190610a1a565b60405180910390f35b6100ae60048036038101906100a99190610a66565b6101ec565b6040516100bb9190610aa0565b60405180910390f35b6100cc6102aa565b6040516100d99190610b14565b60405180910390f35b6100ea6102ce565b6040516100f79190610a1a565b60405180910390f35b61011a60048036038101906101159190610b57565b610361565b005b61013660048036038101906101319190610a66565b610467565b6040516101439190610aa0565b60405180910390f35b5f5f5f9054906101000a900473ffffffffffffffffffffffffffffffffffffffff1673ffffffffffffffffffffffffffffffffffffffff166327262618836040518263ffffffff1660e01b81526004016101a69190610be2565b602060405180830381865afa1580156101c1573d5f5f3e3d5ffd5b505050506040513d601f19601f820116820180604052508101906101e59190610c16565b9050919050565b5f5f6101f6610526565b73ffffffffffffffffffffffffffffffffffffffff1663549e122b846040518263ffffffff1660e01b815260040161022e9190610aa0565b5f60405180830381865afa158015610248573d5f5f3e3d5ffd5b505050506040513d5f823e3d601f19601f820116820180604052508101906102709190610eb4565b90505f61027b61056a565b90506102a1828273ffffffffffffffffffffffffffffffffffffffff1662593bcf6105ae565b92505050919050565b5f5f9054906101000a900473ffffffffffffffffffffffffffffffffffffffff1681565b5f5f5f9054906101000a900473ffffffffffffffffffffffffffffffffffffffff1673ffffffffffffffffffffffffffffffffffffffff16638da5cb5b6040518163ffffffff1660e01b8152600401602060405180830381865afa158015610338573d5f5f3e3d5ffd5b505050506040513d601f19601f8201168201806040525081019061035c9190610c16565b905090565b5f5f9054906101000a900473ffffffffffffffffffffffffffffffffffffffff1673ffffffffffffffffffffffffffffffffffffffff16638da5cb5b6040518163ffffffff1660e01b8152600401602060405180830381865afa1580156103ca573d5f5f3e3d5ffd5b505050506040513d601f19601f820116820180604052508101906103ee9190610c16565b73ffffffffffffffffffffffffffffffffffffffff163373ffffffffffffffffffffffffffffffffffffffff161461045b576040517f08c379a000000000000000000000000000000000000000000000000000000000815260040161045290610f45565b60405180910390fd5b61046481610696565b50565b5f5f610471610526565b73ffffffffffffffffffffffffffffffffffffffff1663549e122b846040518263ffffffff1660e01b81526004016104a99190610aa0565b5f60405180830381865afa1580156104c3573d5f5f3e3d5ffd5b505050506040513d5f823e3d601f19601f820116820180604052508101906104eb9190610eb4565b90505f6104f661056a565b905061051d828273ffffffffffffffffffffffffffffffffffffffff16637b49b49d6105ae565b92505050919050565b5f6105656040518060400160405280600d81526020017f696e6465782d666163746f72790000000000000000000000000000000000000081525061014c565b905090565b5f6105a96040518060400160405280600c81526020017f70726963652d6f7261636c65000000000000000000000000000000000000000081525061014c565b905090565b5f5f84604001515190505f5f5f90505b8281101561067c575f876040015182815181106105de576105dd610f63565b5b602002602001015190505f8787835f01516040518263ffffffff1660e01b815260040161060b9190610a1a565b602060405180830381865afa158015610626573d5f5f3e3d5ffd5b505050506040513d601f19601f8201168201806040525081019061064a9190610fa4565b9050816020015161ffff16816106609190610ffc565b8461066b919061103d565b9350505080806001019150506105be565b506127108161068b919061109d565b925050509392505050565b5f73ffffffffffffffffffffffffffffffffffffffff168173ffffffffffffffffffffffffffffffffffffffff1603610704576040517f08c379a00000000000000000000000000000000000000000000000000000000081526004016106fb90611117565b60405180910390fd5b5f8173ffffffffffffffffffffffffffffffffffffffff163b1161075d576040517f08c379a00000000000000000000000000000000000000000000000000000000081526004016107549061117f565b60405180910390fd5b8073ffffffffffffffffffffffffffffffffffffffff16638da5cb5b6040518163ffffffff1660e01b8152600401602060405180830381865afa9250505080156107c557506040513d601f19601f820116820180604052508101906107c29190610c16565b60015b610804576040517f08c379a00000000000000000000000000000000000000000000000000000000081526004016107fb9061120d565b60405180910390fd5b815f5f6101000a81548173ffffffffffffffffffffffffffffffffffffffff021916908373ffffffffffffffffffffffffffffffffffffffff1602179055505050565b5f604051905090565b5f5ffd5b5f5ffd5b5f5ffd5b5f5ffd5b5f601f19601f8301169050919050565b7f4e487b71000000000000000000000000000000000000000000000000000000005f52604160045260245ffd5b6108a682610860565b810181811067ffffffffffffffff821117156108c5576108c4610870565b5b80604052505050565b5f6108d7610847565b90506108e3828261089d565b919050565b5f67ffffffffffffffff82111561090257610901610870565b5b61090b82610860565b9050602081019050919050565b828183375f83830152505050565b5f610938610933846108e8565b6108ce565b9050828152602081018484840111156109545761095361085c565b5b61095f848285610918565b509392505050565b5f82601f83011261097b5761097a610858565b5b813561098b848260208601610926565b91505092915050565b5f602082840312156109a9576109a8610850565b5b5f82013567ffffffffffffffff8111156109c6576109c5610854565b5b6109d284828501610967565b91505092915050565b5f73ffffffffffffffffffffffffffffffffffffffff82169050919050565b5f610a04826109db565b9050919050565b610a14816109fa565b82525050565b5f602082019050610a2d5f830184610a0b565b92915050565b5f819050919050565b610a4581610a33565b8114610a4f575f5ffd5b50565b5f81359050610a6081610a3c565b92915050565b5f60208284031215610a7b57610a7a610850565b5b5f610a8884828501610a52565b91505092915050565b610a9a81610a33565b82525050565b5f602082019050610ab35f830184610a91565b92915050565b5f819050919050565b5f610adc610ad7610ad2846109db565b610ab9565b6109db565b9050919050565b5f610aed82610ac2565b9050919050565b5f610afe82610ae3565b9050919050565b610b0e81610af4565b82525050565b5f602082019050610b275f830184610b05565b92915050565b610b36816109fa565b8114610b40575f5ffd5b50565b5f81359050610b5181610b2d565b92915050565b5f60208284031215610b6c57610b6b610850565b5b5f610b7984828501610b43565b91505092915050565b5f81519050919050565b5f82825260208201905092915050565b8281835e5f83830152505050565b5f610bb482610b82565b610bbe8185610b8c565b9350610bce818560208601610b9c565b610bd781610860565b840191505092915050565b5f6020820190508181035f830152610bfa8184610baa565b905092915050565b5f81519050610c1081610b2d565b92915050565b5f60208284031215610c2b57610c2a610850565b5b5f610c3884828501610c02565b91505092915050565b5f5ffd5b5f5ffd5b5f610c5b610c56846108e8565b6108ce565b905082815260208101848484011115610c7757610c7661085c565b5b610c82848285610b9c565b509392505050565b5f82601f830112610c9e57610c9d610858565b5b8151610cae848260208601610c49565b91505092915050565b5f67ffffffffffffffff821115610cd157610cd0610870565b5b602082029050602081019050919050565b5f5ffd5b5f61ffff82169050919050565b610cfc81610ce6565b8114610d06575f5ffd5b50565b5f81519050610d1781610cf3565b92915050565b5f60408284031215610d3257610d31610c41565b5b610d3c60406108ce565b90505f610d4b84828501610c02565b5f830152506020610d5e84828501610d09565b60208301525092915050565b5f610d7c610d7784610cb7565b6108ce565b90508083825260208201905060408402830185811115610d9f57610d9e610ce2565b5b835b81811015610dc85780610db48882610d1d565b845260208401935050604081019050610da1565b5050509392505050565b5f82601f830112610de657610de5610858565b5b8151610df6848260208601610d6a565b91505092915050565b5f60608284031215610e1457610e13610c41565b5b610e1e60606108ce565b90505f82015167ffffffffffffffff811115610e3d57610e3c610c45565b5b610e4984828501610c8a565b5f83015250602082015167ffffffffffffffff811115610e6c57610e6b610c45565b5b610e7884828501610c8a565b602083015250604082015167ffffffffffffffff811115610e9c57610e9b610c45565b5b610ea884828501610dd2565b60408301525092915050565b5f60208284031215610ec957610ec8610850565b5b5f82015167ffffffffffffffff811115610ee657610ee5610854565b5b610ef284828501610dff565b91505092915050565b7f43616c6c6572206973206e6f7420746865206f776e65720000000000000000005f82015250565b5f610f2f601783610b8c565b9150610f3a82610efb565b602082019050919050565b5f6020820190508181035f830152610f5c81610f23565b9050919050565b7f4e487b71000000000000000000000000000000000000000000000000000000005f52603260045260245ffd5b5f81519050610f9e81610a3c565b92915050565b5f60208284031215610fb957610fb8610850565b5b5f610fc684828501610f90565b91505092915050565b7f4e487b71000000000000000000000000000000000000000000000000000000005f52601160045260245ffd5b5f61100682610a33565b915061101183610a33565b925082820261101f81610a33565b9150828204841483151761103657611035610fcf565b5b5092915050565b5f61104782610a33565b915061105283610a33565b925082820190508082111561106a57611069610fcf565b5b92915050565b7f4e487b71000000000000000000000000000000000000000000000000000000005f52601260045260245ffd5b5f6110a782610a33565b91506110b283610a33565b9250826110c2576110c1611070565b5b828204905092915050565b7f4469726563746f72792063616e6e6f74206265207a65726f20616464726573735f82015250565b5f611101602083610b8c565b915061110c826110cd565b602082019050919050565b5f6020820190508181035f83015261112e816110f5565b9050919050565b7f4469726563746f7279206d757374206265206120636f6e7472616374000000005f82015250565b5f611169601c83610b8c565b915061117482611135565b602082019050919050565b5f6020820190508181035f8301526111968161115d565b9050919050565b7f4469726563746f7279206164647265737320646f6573206e6f7420696d706c655f8201527f6d656e74206f776e657228290000000000000000000000000000000000000000602082015250565b5f6111f7602c83610b8c565b91506112028261119d565b604082019050919050565b5f6020820190508181035f830152611224816111eb565b905091905056fea2646970667358221220bc6d64a1e8bc6a42a5a304cadb7e8b6dd788625d0b4493c86bca670c0b9450c464736f6c634300081e0033",
					"opcodes": "PUSH1 0x80 PUSH1 0x40 MSTORE CALLVALUE DUP1 ISZERO PUSH2 0xF JUMPI PUSH0 PUSH0 REVERT JUMPDEST POP PUSH1 0x40 MLOAD PUSH2 0x165E CODESIZE SUB DUP1 PUSH2 0x165E DUP4 CODECOPY DUP2 DUP2 ADD PUSH1 0x40 MSTORE DUP2 ADD SWAP1 PUSH2 0x31 SWAP2 SWAP1 PUSH2 0x257 JUMP JUMPDEST DUP1 PUSH2 0x41 DUP2 PUSH2 0x48 PUSH1 0x20 SHL PUSH1 0x20 SHR JUMP JUMPDEST POP POP PUSH2 0x3F0 JUMP JUMPDEST PUSH0 PUSH20 0xFFFFFFFFFFFFFFFFFFFFFFFFFFFFFFFFFFFFFFFF AND DUP2 PUSH20 0xFFFFFFFFFFFFFFFFFFFFFFFFFFFFFFFFFFFFFFFF AND SUB PUSH2 0xB6 JUMPI PUSH1 0x40 MLOAD PUSH32 0x8C379A000000000000000000000000000000000000000000000000000000000 DUP2 MSTORE PUSH1 0x4 ADD PUSH2 0xAD SWAP1 PUSH2 0x2DC JUMP JUMPDEST PUSH1 0x40 MLOAD DUP1 SWAP2 SUB SWAP1 REVERT JUMPDEST PUSH0 DUP2 PUSH20 0xFFFFFFFFFFFFFFFFFFFFFFFFFFFFFFFFFFFFFFFF AND EXTCODESIZE GT PUSH2 0x10F JUMPI PUSH1 0x40 MLOAD PUSH32 0x8C379A000000000000000000000000000000000000000000000000000000000 DUP2 MSTORE PUSH1 0x4 ADD PUSH2 0x106 SWAP1 PUSH2 0x344 JUMP JUMPDEST PUSH1 0x40 MLOAD DUP1 SWAP2 SUB SWAP1 REVERT JUMPDEST DUP1 PUSH20 0xFFFFFFFFFFFFFFFFFFFFFFFFFFFFFFFFFFFFFFFF AND PUSH4 0x8DA5CB5B PUSH1 0x40 MLOAD DUP2 PUSH4 0xFFFFFFFF AND PUSH1 0xE0 SHL DUP2 MSTORE PUSH1 0x4 ADD PUSH1 0x20 PUSH1 0x40 MLOAD DUP1 DUP4 SUB DUP2 DUP7 GAS STATICCALL SWAP3 POP POP POP DUP1 ISZERO PUSH2 0x177 JUMPI POP PUSH1 0x40 MLOAD RETURNDATASIZE PUSH1 0x1F NOT PUSH1 0x1F DUP3 ADD AND DUP3 ADD DUP1 PUSH1 0x40 MSTORE POP DUP2 ADD SWAP1 PUSH2 0x174 SWAP2 SWAP1 PUSH2 0x257 JUMP JUMPDEST PUSH1 0x1 JUMPDEST PUSH2 0x1B6 JUMPI PUSH1 0x40 MLOAD PUSH32 0x8C379A000000000000000000000000000000000000000000000000000000000 DUP2 MSTORE PUSH1 0x4 ADD PUSH2 0x1AD SWAP1 PUSH2 0x3D2 JUMP JUMPDEST PUSH1 0x40 MLOAD DUP1 SWAP2 SUB SWAP1 REVERT JUMPDEST DUP2 PUSH0 PUSH0 PUSH2 0x100 EXP DUP2 SLOAD DUP2 PUSH20 0xFFFFFFFFFFFFFFFFFFFFFFFFFFFFFFFFFFFFFFFF MUL NOT AND SWAP1 DUP4 PUSH20 0xFFFFFFFFFFFFFFFFFFFFFFFFFFFFFFFFFFFFFFFF AND MUL OR SWAP1 SSTORE POP POP POP JUMP JUMPDEST PUSH0 PUSH0 REVERT JUMPDEST PUSH0 PUSH20 0xFFFFFFFFFFFFFFFFFFFFFFFFFFFFFFFFFFFFFFFF DUP3 AND SWAP1 POP SWAP2 SWAP1 POP JUMP JUMPDEST PUSH0 PUSH2 0x226 DUP3 PUSH2 0x1FD JUMP JUMPDEST SWAP1 POP SWAP2 SWAP1 POP JUMP JUMPDEST PUSH2 0x236 DUP2 PUSH2 0x21C JUMP JUMPDEST DUP2 EQ PUSH2 0x240 JUMPI PUSH0 PUSH0 REVERT JUMPDEST POP JUMP JUMPDEST PUSH0 DUP2 MLOAD SWAP1 POP PUSH2 0x251 DUP2 PUSH2 0x22D JUMP JUMPDEST SWAP3 SWAP2 POP POP JUMP JUMPDEST PUSH0 PUSH1 0x20 DUP3 DUP5 SUB SLT ISZERO PUSH2 0x26C JUMPI PUSH2 0x26B PUSH2 0x1F9 JUMP JUMPDEST JUMPDEST PUSH0 PUSH2 0x279 DUP5 DUP3 DUP6 ADD PUSH2 0x243 JUMP JUMPDEST SWAP2 POP POP SWAP3 SWAP2 POP POP JUMP JUMPDEST PUSH0 DUP3 DUP3 MSTORE PUSH1 0x20 DUP3 ADD SWAP1 POP SWAP3 SWAP2 POP POP JUMP JUMPDEST PUSH32 0x4469726563746F72792063616E6E6F74206265207A65726F2061646472657373 PUSH0 DUP3 ADD MSTORE POP JUMP JUMPDEST PUSH0 PUSH2 0x2C6 PUSH1 0x20 DUP4 PUSH2 0x282 JUMP JUMPDEST SWAP2 POP PUSH2 0x2D1 DUP3 PUSH2 0x292 JUMP JUMPDEST PUSH1 0x20 DUP3 ADD SWAP1 POP SWAP2 SWAP1 POP JUMP JUMPDEST PUSH0 PUSH1 0x20 DUP3 ADD SWAP1 POP DUP2 DUP2 SUB PUSH0 DUP4 ADD MSTORE PUSH2 0x2F3 DUP2 PUSH2 0x2BA JUMP JUMPDEST SWAP1 POP SWAP2 SWAP1 POP JUMP JUMPDEST PUSH32 0x4469726563746F7279206D757374206265206120636F6E747261637400000000 PUSH0 DUP3 ADD MSTORE POP JUMP JUMPDEST PUSH0 PUSH2 0x32E PUSH1 0x1C DUP4 PUSH2 0x282 JUMP JUMPDEST SWAP2 POP PUSH2 0x339 DUP3 PUSH2 0x2FA JUMP JUMPDEST PUSH1 0x20 DUP3 ADD SWAP1 POP SWAP2 SWAP1 POP JUMP JUMPDEST PUSH0 PUSH1 0x20 DUP3 ADD SWAP1 POP DUP2 DUP2 SUB PUSH0 DUP4 ADD MSTORE PUSH2 0x35B DUP2 PUSH2 0x322 JUMP JUMPDEST SWAP1 POP SWAP2 SWAP1 POP JUMP JUMPDEST PUSH32 0x4469726563746F7279206164647265737320646F6573206E6F7420696D706C65 PUSH0 DUP3 ADD MSTORE PUSH32 0x6D656E74206F776E657228290000000000000000000000000000000000000000 PUSH1 0x20 DUP3 ADD MSTORE POP JUMP JUMPDEST PUSH0 PUSH2 0x3BC PUSH1 0x2C DUP4 PUSH2 0x282 JUMP JUMPDEST SWAP2 POP PUSH2 0x3C7 DUP3 PUSH2 0x362 JUMP JUMPDEST PUSH1 0x40 DUP3 ADD SWAP1 POP SWAP2 SWAP1 POP JUMP JUMPDEST PUSH0 PUSH1 0x20 DUP3 ADD SWAP1 POP DUP2 DUP2 SUB PUSH0 DUP4 ADD MSTORE PUSH2 0x3E9 DUP2 PUSH2 0x3B0 JUMP JUMPDEST SWAP1 POP SWAP2 SWAP1 POP JUMP JUMPDEST PUSH2 0x1261 DUP1 PUSH2 0x3FD PUSH0 CODECOPY PUSH0 RETURN INVALID PUSH1 0x80 PUSH1 0x40 MSTORE CALLVALUE DUP1 ISZERO PUSH2 0xF JUMPI PUSH0 PUSH0 REVERT JUMPDEST POP PUSH1 0x4 CALLDATASIZE LT PUSH2 0x60 JUMPI PUSH0 CALLDATALOAD PUSH1 0xE0 SHR DUP1 PUSH4 0x27262618 EQ PUSH2 0x64 JUMPI DUP1 PUSH4 0x3ECB8B75 EQ PUSH2 0x94 JUMPI DUP1 PUSH4 0x658A847A EQ PUSH2 0xC4 JUMPI DUP1 PUSH4 0x8DA5CB5B EQ PUSH2 0xE2 JUMPI DUP1 PUSH4 0xBA4C7BE1 EQ PUSH2 0x100 JUMPI DUP1 PUSH4 0xC9D54FA7 EQ PUSH2 0x11C JUMPI JUMPDEST PUSH0 PUSH0 REVERT JUMPDEST PUSH2 0x7E PUSH1 0x4 DUP1 CALLDATASIZE SUB DUP2 ADD SWAP1 PUSH2 0x79 SWAP2 SWAP1 PUSH2 0x994 JUMP JUMPDEST PUSH2 0x14C JUMP JUMPDEST PUSH1 0x40 MLOAD PUSH2 0x8B SWAP2 SWAP1 PUSH2 0xA1A JUMP JUMPDEST PUSH1 0x40 MLOAD DUP1 SWAP2 SUB SWAP1 RETURN JUMPDEST PUSH2 0xAE PUSH1 0x4 DUP1 CALLDATASIZE SUB DUP2 ADD SWAP1 PUSH2 0xA9 SWAP2 SWAP1 PUSH2 0xA66 JUMP JUMPDEST PUSH2 0x1EC JUMP JUMPDEST PUSH1 0x40 MLOAD PUSH2 0xBB SWAP2 SWAP1 PUSH2 0xAA0 JUMP JUMPDEST PUSH1 0x40 MLOAD DUP1 SWAP2 SUB SWAP1 RETURN JUMPDEST PUSH2 0xCC PUSH2 0x2AA JUMP JUMPDEST PUSH1 0x40 MLOAD PUSH2 0xD9 SWAP2 SWAP1 PUSH2 0xB14 JUMP JUMPDEST PUSH1 0x40 MLOAD DUP1 SWAP2 SUB SWAP1 RETURN JUMPDEST PUSH2 0xEA PUSH2 0x2CE JUMP JUMPDEST PUSH1 0x40 MLOAD PUSH2 0xF7 SWAP2 SWAP1 PUSH2 0xA1A JUMP JUMPDEST PUSH1 0x40 MLOAD DUP1 SWAP2 SUB SWAP1 RETURN JUMPDEST PUSH2 0x11A PUSH1 0x4 DUP1 CALLDATASIZE SUB DUP2 ADD SWAP1 PUSH2 0x115 SWAP2 SWAP1 PUSH2 0xB57 JUMP JUMPDEST PUSH2 0x361 JUMP JUMPDEST STOP JUMPDEST PUSH2 0x136 PUSH1 0x4 DUP1 CALLDATASIZE SUB DUP2 ADD SWAP1 PUSH2 0x131 SWAP2 SWAP1 PUSH2 0xA66 JUMP JUMPDEST PUSH2 0x467 JUMP JUMPDEST PUSH1 0x40 MLOAD PUSH2 0x143 SWAP2 SWAP1 PUSH2 0xAA0 JUMP JUMPDEST PUSH1 0x40 MLOAD DUP1 SWAP2 SUB SWAP1 RETURN JUMPDEST PUSH0 PUSH0 PUSH0 SWAP1 SLOAD SWAP1 PUSH2 0x100 EXP SWAP1 DIV PUSH20 0xFFFFFFFFFFFFFFFFFFFFFFFFFFFFFFFFFFFFFFFF AND PUSH20 0xFFFFFFFFFFFFFFFFFFFFFFFFFFFFFFFFFFFFFFFF AND PUSH4 0x27262618 DUP4 PUSH1 0x40 MLOAD DUP3 PUSH4 0xFFFFFFFF AND PUSH1 0xE0 SHL DUP2 MSTORE PUSH1 0x4 ADD PUSH2 0x1A6 SWAP2 SWAP1 PUSH2 0xBE2 JUMP JUMPDEST PUSH1 0x20 PUSH1 0x40 MLOAD DUP1 DUP4 SUB DUP2 DUP7 GAS STATICCALL ISZERO DUP1 ISZERO PUSH2 0x1C1 JUMPI RETURNDATASIZE PUSH0 PUSH0 RETURNDATACOPY RETURNDATASIZE PUSH0 REVERT JUMPDEST POP POP POP POP PUSH1 0x40 MLOAD RETURNDATASIZE PUSH1 0x1F NOT PUSH1 0x1F DUP3 ADD AND DUP3 ADD DUP1 PUSH1 0x40 MSTORE POP DUP2 ADD SWAP1 PUSH2 0x1E5 SWAP2 SWAP1 PUSH2 0xC16 JUMP JUMPDEST SWAP1 POP SWAP2 SWAP1 POP JUMP JUMPDEST PUSH0 PUSH0 PUSH2 0x1F6 PUSH2 0x526 JUMP JUMPDEST PUSH20 0xFFFFFFFFFFFFFFFFFFFFFFFFFFFFFFFFFFFFFFFF AND PUSH4 0x549E122B DUP5 PUSH1 0x40 MLOAD DUP3 PUSH4 0xFFFFFFFF AND PUSH1 0xE0 SHL DUP2 MSTORE PUSH1 0x4 ADD PUSH2 0x22E SWAP2 SWAP1 PUSH2 0xAA0 JUMP JUMPDEST PUSH0 PUSH1 0x40 MLOAD DUP1 DUP4 SUB DUP2 DUP7 GAS STATICCALL ISZERO DUP1 ISZERO PUSH2 0x248 JUMPI RETURNDATASIZE PUSH0 PUSH0 RETURNDATACOPY RETURNDATASIZE PUSH0 REVERT JUMPDEST POP POP POP POP PUSH1 0x40 MLOAD RETURNDATASIZE PUSH0 DUP3 RETURNDATACOPY RETURNDATASIZE PUSH1 0x1F NOT PUSH1 0x1F DUP3 ADD AND DUP3 ADD DUP1 PUSH1 0x40 MSTORE POP DUP2 ADD SWAP1 PUSH2 0x270 SWAP2 SWAP1 PUSH2 0xEB4 JUMP JUMPDEST SWAP1 POP PUSH0 PUSH2 0x27B PUSH2 0x56A JUMP JUMPDEST SWAP1 POP PUSH2 0x2A1 DUP3 DUP3 PUSH20 0xFFFFFFFFFFFFFFFFFFFFFFFFFFFFFFFFFFFFFFFF AND PUSH3 0x593BCF PUSH2 0x5AE JUMP JUMPDEST SWAP3 POP POP POP SWAP2 SWAP1 POP JUMP JUMPDEST PUSH0 PUSH0 SWAP1 SLOAD SWAP1 PUSH2 0x100 EXP SWAP1 DIV PUSH20 0xFFFFFFFFFFFFFFFFFFFFFFFFFFFFFFFFFFFFFFFF AND DUP2 JUMP JUMPDEST PUSH0 PUSH0 PUSH0 SWAP1 SLOAD SWAP1 PUSH2 0x100 EXP SWAP1 DIV PUSH20 0xFFFFFFFFFFFFFFFFFFFFFFFFFFFFFFFFFFFFFFFF AND PUSH20 0xFFFFFFFFFFFFFFFFFFFFFFFFFFFFFFFFFFFFFFFF AND PUSH4 0x8DA5CB5B PUSH1 0x40 MLOAD DUP2 PUSH4 0xFFFFFFFF AND PUSH1 0xE0 SHL DUP2 MSTORE PUSH1 0x4 ADD PUSH1 0x20 PUSH1 0x40 MLOAD DUP1 DUP4 SUB DUP2 DUP7 GAS STATICCALL ISZERO DUP1 ISZERO PUSH2 0x338 JUMPI RETURNDATASIZE PUSH0 PUSH0 RETURNDATACOPY RETURNDATASIZE PUSH0 REVERT JUMPDEST POP POP POP POP PUSH1 0x40 MLOAD RETURNDATASIZE PUSH1 0x1F NOT PUSH1 0x1F DUP3 ADD AND DUP3 ADD DUP1 PUSH1 0x40 MSTORE POP DUP2 ADD SWAP1 PUSH2 0x35C SWAP2 SWAP1 PUSH2 0xC16 JUMP JUMPDEST SWAP1 POP SWAP1 JUMP JUMPDEST PUSH0 PUSH0 SWAP1 SLOAD SWAP1 PUSH2 0x100 EXP SWAP1 DIV PUSH20 0xFFFFFFFFFFFFFFFFFFFFFFFFFFFFFFFFFFFFFFFF AND PUSH20 0xFFFFFFFFFFFFFFFFFFFFFFFFFFFFFFFFFFFFFFFF AND PUSH4 0x8DA5CB5B PUSH1 0x40 MLOAD DUP2 PUSH4 0xFFFFFFFF AND PUSH1 0xE0 SHL DUP2 MSTORE PUSH1 0x4 ADD PUSH1 0x20 PUSH1 0x40 MLOAD DUP1 DUP4 SUB DUP2 DUP7 GAS STATICCALL ISZERO DUP1 ISZERO PUSH2 0x3CA JUMPI RETURNDATASIZE PUSH0 PUSH0 RETURNDATACOPY RETURNDATASIZE PUSH0 REVERT JUMPDEST POP POP POP POP PUSH1 0x40 MLOAD RETURNDATASIZE PUSH1 0x1F NOT PUSH1 0x1F DUP3 ADD AND DUP3 ADD DUP1 PUSH1 0x40 MSTORE POP DUP2 ADD SWAP1 PUSH2 0x3EE SWAP2 SWAP1 PUSH2 0xC16 JUMP JUMPDEST PUSH20 0xFFFFFFFFFFFFFFFFFFFFFFFFFFFFFFFFFFFFFFFF AND CALLER PUSH20 0xFFFFFFFFFFFFFFFFFFFFFFFFFFFFFFFFFFFFFFFF AND EQ PUSH2 0x45B JUMPI PUSH1 0x40 MLOAD PUSH32 0x8C379A000000000000000000000000000000000000000000000000000000000 DUP2 MSTORE PUSH1 0x4 ADD PUSH2 0x452 SWAP1 PUSH2 0xF45 JUMP JUMPDEST PUSH1 0x40 MLOAD DUP1 SWAP2 SUB SWAP1 REVERT JUMPDEST PUSH2 0x464 DUP2 PUSH2 0x696 JUMP JUMPDEST POP JUMP JUMPDEST PUSH0 PUSH0 PUSH2 0x471 PUSH2 0x526 JUMP JUMPDEST PUSH20 0xFFFFFFFFFFFFFFFFFFFFFFFFFFFFFFFFFFFFFFFF AND PUSH4 0x549E122B DUP5 PUSH1 0x40 MLOAD DUP3 PUSH4 0xFFFFFFFF AND PUSH1 0xE0 SHL DUP2 MSTORE PUSH1 0x4 ADD PUSH2 0x4A9 SWAP2 SWAP1 PUSH2 0xAA0 JUMP JUMPDEST PUSH0 PUSH1 0x40 MLOAD DUP1 DUP4 SUB DUP2 DUP7 GAS STATICCALL ISZERO DUP1 ISZERO PUSH2 0x4C3 JUMPI RETURNDATASIZE PUSH0 PUSH0 RETURNDATACOPY RETURNDATASIZE PUSH0 REVERT JUMPDEST POP POP POP POP PUSH1 0x40 MLOAD RETURNDATASIZE PUSH0 DUP3 RETURNDATACOPY RETURNDATASIZE PUSH1 0x1F NOT PUSH1 0x1F DUP3 ADD AND DUP3 ADD DUP1 PUSH1 0x40 MSTORE POP DUP2 ADD SWAP1 PUSH2 0x4EB SWAP2 SWAP1 PUSH2 0xEB4 JUMP JUMPDEST SWAP1 POP PUSH0 PUSH2 0x4F6 PUSH2 0x56A JUMP JUMPDEST SWAP1 POP PUSH2 0x51D DUP3 DUP3 PUSH20 0xFFFFFFFFFFFFFFFFFFFFFFFFFFFFFFFFFFFFFFFF AND PUSH4 0x7B49B49D PUSH2 0x5AE JUMP JUMPDEST SWAP3 POP POP POP SWAP2 SWAP1 POP JUMP JUMPDEST PUSH0 PUSH2 0x565 PUSH1 0x40 MLOAD DUP1 PUSH1 0x40 ADD PUSH1 0x40 MSTORE DUP1 PUSH1 0xD DUP2 MSTORE PUSH1 0x20 ADD PUSH32 0x696E6465782D666163746F727900000000000000000000000000000000000000 DUP2 MSTORE POP PUSH2 0x14C JUMP JUMPDEST SWAP1 POP SWAP1 JUMP JUMPDEST PUSH0 PUSH2 0x5A9 PUSH1 0x40 MLOAD DUP1 PUSH1 0x40 ADD PUSH1 0x40 MSTORE DUP1 PUSH1 0xC DUP2 MSTORE PUSH1 0x20 ADD PUSH32 0x70726963652D6F7261636C650000000000000000000000000000000000000000 DUP2 MSTORE POP PUSH2 0x14C JUMP JUMPDEST SWAP1 POP SWAP1 JUMP JUMPDEST PUSH0 PUSH0 DUP5 PUSH1 0x40 ADD MLOAD MLOAD SWAP1 POP PUSH0 PUSH0 PUSH0 SWAP1 POP JUMPDEST DUP3 DUP2 LT ISZERO PUSH2 0x67C JUMPI PUSH0 DUP8 PUSH1 0x40 ADD MLOAD DUP3 DUP2 MLOAD DUP2 LT PUSH2 0x5DE JUMPI PUSH2 0x5DD PUSH2 0xF63 JUMP JUMPDEST JUMPDEST PUSH1 0x20 MUL PUSH1 0x20 ADD ADD MLOAD SWAP1 POP PUSH0 DUP8 DUP8 DUP4 PUSH0 ADD MLOAD PUSH1 0x40 MLOAD DUP3 PUSH4 0xFFFFFFFF AND PUSH1 0xE0 SHL DUP2 MSTORE PUSH1 0x4 ADD PUSH2 0x60B SWAP2 SWAP1 PUSH2 0xA1A JUMP JUMPDEST PUSH1 0x20 PUSH1 0x40 MLOAD DUP1 DUP4 SUB DUP2 DUP7 GAS STATICCALL ISZERO DUP1 ISZERO PUSH2 0x626 JUMPI RETURNDATASIZE PUSH0 PUSH0 RETURNDATACOPY RETURNDATASIZE PUSH0 REVERT JUMPDEST POP POP POP POP PUSH1 0x40 MLOAD RETURNDATASIZE PUSH1 0x1F NOT PUSH1 0x1F DUP3 ADD AND DUP3 ADD DUP1 PUSH1 0x40 MSTORE POP DUP2 ADD SWAP1 PUSH2 0x64A SWAP2 SWAP1 PUSH2 0xFA4 JUMP JUMPDEST SWAP1 POP DUP2 PUSH1 0x20 ADD MLOAD PUSH2 0xFFFF AND DUP2 PUSH2 0x660 SWAP2 SWAP1 PUSH2 0xFFC JUMP JUMPDEST DUP5 PUSH2 0x66B SWAP2 SWAP1 PUSH2 0x103D JUMP JUMPDEST SWAP4 POP POP POP DUP1 DUP1 PUSH1 0x1 ADD SWAP2 POP POP PUSH2 0x5BE JUMP JUMPDEST POP PUSH2 0x2710 DUP2 PUSH2 0x68B SWAP2 SWAP1 PUSH2 0x109D JUMP JUMPDEST SWAP3 POP POP POP SWAP4 SWAP3 POP POP POP JUMP JUMPDEST PUSH0 PUSH20 0xFFFFFFFFFFFFFFFFFFFFFFFFFFFFFFFFFFFFFFFF AND DUP2 PUSH20 0xFFFFFFFFFFFFFFFFFFFFFFFFFFFFFFFFFFFFFFFF AND SUB PUSH2 0x704 JUMPI PUSH1 0x40 MLOAD PUSH32 0x8C379A000000000000000000000000000000000000000000000000000000000 DUP2 MSTORE PUSH1 0x4 ADD PUSH2 0x6FB SWAP1 PUSH2 0x1117 JUMP JUMPDEST PUSH1 0x40 MLOAD DUP1 SWAP2 SUB SWAP1 REVERT JUMPDEST PUSH0 DUP2 PUSH20 0xFFFFFFFFFFFFFFFFFFFFFFFFFFFFFFFFFFFFFFFF AND EXTCODESIZE GT PUSH2 0x75D JUMPI PUSH1 0x40 MLOAD PUSH32 0x8C379A000000000000000000000000000000000000000000000000000000000 DUP2 MSTORE PUSH1 0x4 ADD PUSH2 0x754 SWAP1 PUSH2 0x117F JUMP JUMPDEST PUSH1 0x40 MLOAD DUP1 SWAP2 SUB SWAP1 REVERT JUMPDEST DUP1 PUSH20 0xFFFFFFFFFFFFFFFFFFFFFFFFFFFFFFFFFFFFFFFF AND PUSH4 0x8DA5CB5B PUSH1 0x40 MLOAD DUP2 PUSH4 0xFFFFFFFF AND PUSH1 0xE0 SHL DUP2 MSTORE PUSH1 0x4 ADD PUSH1 0x20 PUSH1 0x40 MLOAD DUP1 DUP4 SUB DUP2 DUP7 GAS STATICCALL SWAP3 POP POP POP DUP1 ISZERO PUSH2 0x7C5 JUMPI POP PUSH1 0x40 MLOAD RETURNDATASIZE PUSH1 0x1F NOT PUSH1 0x1F DUP3 ADD AND DUP3 ADD DUP1 PUSH1 0x40 MSTORE POP DUP2 ADD SWAP1 PUSH2 0x7C2 SWAP2 SWAP1 PUSH2 0xC16 JUMP JUMPDEST PUSH1 0x1 JUMPDEST PUSH2 0x804 JUMPI PUSH1 0x40 MLOAD PUSH32 0x8C379A000000000000000000000000000000000000000000000000000000000 DUP2 MSTORE PUSH1 0x4 ADD PUSH2 0x7FB SWAP1 PUSH2 0x120D JUMP JUMPDEST PUSH1 0x40 MLOAD DUP1 SWAP2 SUB SWAP1 REVERT JUMPDEST DUP2 PUSH0 PUSH0 PUSH2 0x100 EXP DUP2 SLOAD DUP2 PUSH20 0xFFFFFFFFFFFFFFFFFFFFFFFFFFFFFFFFFFFFFFFF MUL NOT AND SWAP1 DUP4 PUSH20 0xFFFFFFFFFFFFFFFFFFFFFFFFFFFFFFFFFFFFFFFF AND MUL OR SWAP1 SSTORE POP POP POP JUMP JUMPDEST PUSH0 PUSH1 0x40 MLOAD SWAP1 POP SWAP1 JUMP JUMPDEST PUSH0 PUSH0 REVERT JUMPDEST PUSH0 PUSH0 REVERT JUMPDEST PUSH0 PUSH0 REVERT JUMPDEST PUSH0 PUSH0 REVERT JUMPDEST PUSH0 PUSH1 0x1F NOT PUSH1 0x1F DUP4 ADD AND SWAP1 POP SWAP2 SWAP1 POP JUMP JUMPDEST PUSH32 0x4E487B7100000000000000000000000000000000000000000000000000000000 PUSH0 MSTORE PUSH1 0x41 PUSH1 0x4 MSTORE PUSH1 0x24 PUSH0 REVERT JUMPDEST PUSH2 0x8A6 DUP3 PUSH2 0x860 JUMP JUMPDEST DUP2 ADD DUP2 DUP2 LT PUSH8 0xFFFFFFFFFFFFFFFF DUP3 GT OR ISZERO PUSH2 0x8C5 JUMPI PUSH2 0x8C4 PUSH2 0x870 JUMP JUMPDEST JUMPDEST DUP1 PUSH1 0x40 MSTORE POP POP POP JUMP JUMPDEST PUSH0 PUSH2 0x8D7 PUSH2 0x847 JUMP JUMPDEST SWAP1 POP PUSH2 0x8E3 DUP3 DUP3 PUSH2 0x89D JUMP JUMPDEST SWAP2 SWAP1 POP JUMP JUMPDEST PUSH0 PUSH8 0xFFFFFFFFFFFFFFFF DUP3 GT ISZERO PUSH2 0x902 JUMPI PUSH2 0x901 PUSH2 0x870 JUMP JUMPDEST JUMPDEST PUSH2 0x90B DUP3 PUSH2 0x860 JUMP JUMPDEST SWAP1 POP PUSH1 0x20 DUP2 ADD SWAP1 POP SWAP2 SWAP1 POP JUMP JUMPDEST DUP3 DUP2 DUP4 CALLDATACOPY PUSH0 DUP4 DUP4 ADD MSTORE POP POP POP JUMP JUMPDEST PUSH0 PUSH2 0x938 PUSH2 0x933 DUP5 PUSH2 0x8E8 JUMP JUMPDEST PUSH2 0x8CE JUMP JUMPDEST SWAP1 POP DUP3 DUP2 MSTORE PUSH1 0x20 DUP2 ADD DUP5 DUP5 DUP5 ADD GT ISZERO PUSH2 0x954 JUMPI PUSH2 0x953 PUSH2 0x85C JUMP JUMPDEST JUMPDEST PUSH2 0x95F DUP5 DUP3 DUP6 PUSH2 0x918 JUMP JUMPDEST POP SWAP4 SWAP3 POP POP POP JUMP JUMPDEST PUSH0 DUP3 PUSH1 0x1F DUP4 ADD SLT PUSH2 0x97B JUMPI PUSH2 0x97A PUSH2 0x858 JUMP JUMPDEST JUMPDEST DUP2 CALLDATALOAD PUSH2 0x98B DUP5 DUP3 PUSH1 0x20 DUP7 ADD PUSH2 0x926 JUMP JUMPDEST SWAP2 POP POP SWAP3 SWAP2 POP POP JUMP JUMPDEST PUSH0 PUSH1 0x20 DUP3 DUP5 SUB SLT ISZERO PUSH2 0x9A9 JUMPI PUSH2 0x9A8 PUSH2 0x850 JUMP JUMPDEST JUMPDEST PUSH0 DUP3 ADD CALLDATALOAD PUSH8 0xFFFFFFFFFFFFFFFF DUP2 GT ISZERO PUSH2 0x9C6 JUMPI PUSH2 0x9C5 PUSH2 0x854 JUMP JUMPDEST JUMPDEST PUSH2 0x9D2 DUP5 DUP3 DUP6 ADD PUSH2 0x967 JUMP JUMPDEST SWAP2 POP POP SWAP3 SWAP2 POP POP JUMP JUMPDEST PUSH0 PUSH20 0xFFFFFFFFFFFFFFFFFFFFFFFFFFFFFFFFFFFFFFFF DUP3 AND SWAP1 POP SWAP2 SWAP1 POP JUMP JUMPDEST PUSH0 PUSH2 0xA04 DUP3 PUSH2 0x9DB JUMP JUMPDEST SWAP1 POP SWAP2 SWAP1 POP JUMP JUMPDEST PUSH2 0xA14 DUP2 PUSH2 0x9FA JUMP JUMPDEST DUP3 MSTORE POP POP JUMP JUMPDEST PUSH0 PUSH1 0x20 DUP3 ADD SWAP1 POP PUSH2 0xA2D PUSH0 DUP4 ADD DUP5 PUSH2 0xA0B JUMP JUMPDEST SWAP3 SWAP2 POP POP JUMP JUMPDEST PUSH0 DUP2 SWAP1 POP SWAP2 SWAP1 POP JUMP JUMPDEST PUSH2 0xA45 DUP2 PUSH2 0xA33 JUMP JUMPDEST DUP2 EQ PUSH2 0xA4F JUMPI PUSH0 PUSH0 REVERT JUMPDEST POP JUMP JUMPDEST PUSH0 DUP2 CALLDATALOAD SWAP1 POP PUSH2 0xA60 DUP2 PUSH2 0xA3C JUMP JUMPDEST SWAP3 SWAP2 POP POP JUMP JUMPDEST PUSH0 PUSH1 0x20 DUP3 DUP5 SUB SLT ISZERO PUSH2 0xA7B JUMPI PUSH2 0xA7A PUSH2 0x850 JUMP JUMPDEST JUMPDEST PUSH0 PUSH2 0xA88 DUP5 DUP3 DUP6 ADD PUSH2 0xA52 JUMP JUMPDEST SWAP2 POP POP SWAP3 SWAP2 POP POP JUMP JUMPDEST PUSH2 0xA9A DUP2 PUSH2 0xA33 JUMP JUMPDEST DUP3 MSTORE POP POP JUMP JUMPDEST PUSH0 PUSH1 0x20 DUP3 ADD SWAP1 POP PUSH2 0xAB3 PUSH0 DUP4 ADD DUP5 PUSH2 0xA91 JUMP JUMPDEST SWAP3 SWAP2 POP POP JUMP JUMPDEST PUSH0 DUP2 SWAP1 POP SWAP2 SWAP1 POP JUMP JUMPDEST PUSH0 PUSH2 0xADC PUSH2 0xAD7 PUSH2 0xAD2 DUP5 PUSH2 0x9DB JUMP JUMPDEST PUSH2 0xAB9 JUMP JUMPDEST PUSH2 0x9DB JUMP JUMPDEST SWAP1 POP SWAP2 SWAP1 POP JUMP JUMPDEST PUSH0 PUSH2 0xAED DUP3 PUSH2 0xAC2 JUMP JUMPDEST SWAP1 POP SWAP2 SWAP1 POP JUMP JUMPDEST PUSH0 PUSH2 0xAFE DUP3 PUSH2 0xAE3 JUMP JUMPDEST SWAP1 POP SWAP2 SWAP1 POP JUMP JUMPDEST PUSH2 0xB0E DUP2 PUSH2 0xAF4 JUMP JUMPDEST DUP3 MSTORE POP POP JUMP JUMPDEST PUSH0 PUSH1 0x20 DUP3 ADD SWAP1 POP PUSH2 0xB27 PUSH0 DUP4 ADD DUP5 PUSH2 0xB05 JUMP JUMPDEST SWAP3 SWAP2 POP POP JUMP JUMPDEST PUSH2 0xB36 DUP2 PUSH2 0x9FA JUMP JUMPDEST DUP2 EQ PUSH2 0xB40 JUMPI PUSH0 PUSH0 REVERT JUMPDEST POP JUMP JUMPDEST PUSH0 DUP2 CALLDATALOAD SWAP1 POP PUSH2 0xB51 DUP2 PUSH2 0xB2D JUMP JUMPDEST SWAP3 SWAP2 POP POP JUMP JUMPDEST PUSH0 PUSH1 0x20 DUP3 DUP5 SUB SLT ISZERO PUSH2 0xB6C JUMPI PUSH2 0xB6B PUSH2 0x850 JUMP JUMPDEST JUMPDEST PUSH0 PUSH2 0xB79 DUP5 DUP3 DUP6 ADD PUSH2 0xB43 JUMP JUMPDEST SWAP2 POP POP SWAP3 SWAP2 POP POP JUMP JUMPDEST PUSH0 DUP2 MLOAD SWAP1 POP SWAP2 SWAP1 POP JUMP JUMPDEST PUSH0 DUP3 DUP3 MSTORE PUSH1 0x20 DUP3 ADD SWAP1 POP SWAP3 SWAP2 POP POP JUMP JUMPDEST DUP3 DUP2 DUP4 MCOPY PUSH0 DUP4 DUP4 ADD MSTORE POP POP POP JUMP JUMPDEST PUSH0 PUSH2 0xBB4 DUP3 PUSH2 0xB82 JUMP JUMPDEST PUSH2 0xBBE DUP2 DUP6 PUSH2 0xB8C JUMP JUMPDEST SWAP4 POP PUSH2 0xBCE DUP2 DUP6 PUSH1 0x20 DUP7 ADD PUSH2 0xB9C JUMP JUMPDEST PUSH2 0xBD7 DUP2 PUSH2 0x860 JUMP JUMPDEST DUP5 ADD SWAP2 POP POP SWAP3 SWAP2 POP POP JUMP JUMPDEST PUSH0 PUSH1 0x20 DUP3 ADD SWAP1 POP DUP2 DUP2 SUB PUSH0 DUP4 ADD MSTORE PUSH2 0xBFA DUP2 DUP5 PUSH2 0xBAA JUMP JUMPDEST SWAP1 POP SWAP3 SWAP2 POP POP JUMP JUMPDEST PUSH0 DUP2 MLOAD SWAP1 POP PUSH2 0xC10 DUP2 PUSH2 0xB2D JUMP JUMPDEST SWAP3 SWAP2 POP POP JUMP JUMPDEST PUSH0 PUSH1 0x20 DUP3 DUP5 SUB SLT ISZERO PUSH2 0xC2B JUMPI PUSH2 0xC2A PUSH2 0x850 JUMP JUMPDEST JUMPDEST PUSH0 PUSH2 0xC38 DUP5 DUP3 DUP6 ADD PUSH2 0xC02 JUMP JUMPDEST SWAP2 POP POP SWAP3 SWAP2 POP POP JUMP JUMPDEST PUSH0 PUSH0 REVERT JUMPDEST PUSH0 PUSH0 REVERT JUMPDEST PUSH0 PUSH2 0xC5B PUSH2 0xC56 DUP5 PUSH2 0x8E8 JUMP JUMPDEST PUSH2 0x8CE JUMP JUMPDEST SWAP1 POP DUP3 DUP2 MSTORE PUSH1 0x20 DUP2 ADD DUP5 DUP5 DUP5 ADD GT ISZERO PUSH2 0xC77 JUMPI PUSH2 0xC76 PUSH2 0x85C JUMP JUMPDEST JUMPDEST PUSH2 0xC82 DUP5 DUP3 DUP6 PUSH2 0xB9C JUMP JUMPDEST POP SWAP4 SWAP3 POP POP POP JUMP JUMPDEST PUSH0 DUP3 PUSH1 0x1F DUP4 ADD SLT PUSH2 0xC9E JUMPI PUSH2 0xC9D PUSH2 0x858 JUMP JUMPDEST JUMPDEST DUP2 MLOAD PUSH2 0xCAE DUP5 DUP3 PUSH1 0x20 DUP7 ADD PUSH2 0xC49 JUMP JUMPDEST SWAP2 POP POP SWAP3 SWAP2 POP POP JUMP JUMPDEST PUSH0 PUSH8 0xFFFFFFFFFFFFFFFF DUP3 GT ISZERO PUSH2 0xCD1 JUMPI PUSH2 0xCD0 PUSH2 0x870 JUMP JUMPDEST JUMPDEST PUSH1 0x20 DUP3 MUL SWAP1 POP PUSH1 0x20 DUP2 ADD SWAP1 POP SWAP2 SWAP1 POP JUMP JUMPDEST PUSH0 PUSH0 REVERT JUMPDEST PUSH0 PUSH2 0xFFFF DUP3 AND SWAP1 POP SWAP2 SWAP1 POP JUMP JUMPDEST PUSH2 0xCFC DUP2 PUSH2 0xCE6 JUMP JUMPDEST DUP2 EQ PUSH2 0xD06 JUMPI PUSH0 PUSH0 REVERT JUMPDEST POP JUMP JUMPDEST PUSH0 DUP2 MLOAD SWAP1 POP PUSH2 0xD17 DUP2 PUSH2 0xCF3 JUMP JUMPDEST SWAP3 SWAP2 POP POP JUMP JUMPDEST PUSH0 PUSH1 0x40 DUP3 DUP5 SUB SLT ISZERO PUSH2 0xD32 JUMPI PUSH2 0xD31 PUSH2 0xC41 JUMP JUMPDEST JUMPDEST PUSH2 0xD3C PUSH1 0x40 PUSH2 0x8CE JUMP JUMPDEST SWAP1 POP PUSH0 PUSH2 0xD4B DUP5 DUP3 DUP6 ADD PUSH2 0xC02 JUMP JUMPDEST PUSH0 DUP4 ADD MSTORE POP PUSH1 0x20 PUSH2 0xD5E DUP5 DUP3 DUP6 ADD PUSH2 0xD09 JUMP JUMPDEST PUSH1 0x20 DUP4 ADD MSTORE POP SWAP3 SWAP2 POP POP JUMP JUMPDEST PUSH0 PUSH2 0xD7C PUSH2 0xD77 DUP5 PUSH2 0xCB7 JUMP JUMPDEST PUSH2 0x8CE JUMP JUMPDEST SWAP1 POP DUP1 DUP4 DUP3 MSTORE PUSH1 0x20 DUP3 ADD SWAP1 POP PUSH1 0x40 DUP5 MUL DUP4 ADD DUP6 DUP2 GT ISZERO PUSH2 0xD9F JUMPI PUSH2 0xD9E PUSH2 0xCE2 JUMP JUMPDEST JUMPDEST DUP4 JUMPDEST DUP2 DUP2 LT ISZERO PUSH2 0xDC8 JUMPI DUP1 PUSH2 0xDB4 DUP9 DUP3 PUSH2 0xD1D JUMP JUMPDEST DUP5 MSTORE PUSH1 0x20 DUP5 ADD SWAP4 POP POP PUSH1 0x40 DUP2 ADD SWAP1 POP PUSH2 0xDA1 JUMP JUMPDEST POP POP POP SWAP4 SWAP3 POP POP POP JUMP JUMPDEST PUSH0 DUP3 PUSH1 0x1F DUP4 ADD SLT PUSH2 0xDE6 JUMPI PUSH2 0xDE5 PUSH2 0x858 JUMP JUMPDEST JUMPDEST DUP2 MLOAD PUSH2 0xDF6 DUP5 DUP3 PUSH1 0x20 DUP7 ADD PUSH2 0xD6A JUMP JUMPDEST SWAP2 POP POP SWAP3 SWAP2 POP POP JUMP JUMPDEST PUSH0 PUSH1 0x60 DUP3 DUP5 SUB SLT ISZERO PUSH2 0xE14 JUMPI PUSH2 0xE13 PUSH2 0xC41 JUMP JUMPDEST JUMPDEST PUSH2 0xE1E PUSH1 0x60 PUSH2 0x8CE JUMP JUMPDEST SWAP1 POP PUSH0 DUP3 ADD MLOAD PUSH8 0xFFFFFFFFFFFFFFFF DUP2 GT ISZERO PUSH2 0xE3D JUMPI PUSH2 0xE3C PUSH2 0xC45 JUMP JUMPDEST JUMPDEST PUSH2 0xE49 DUP5 DUP3 DUP6 ADD PUSH2 0xC8A JUMP JUMPDEST PUSH0 DUP4 ADD MSTORE POP PUSH1 0x20 DUP3 ADD MLOAD PUSH8 0xFFFFFFFFFFFFFFFF DUP2 GT ISZERO PUSH2 0xE6C JUMPI PUSH2 0xE6B PUSH2 0xC45 JUMP JUMPDEST JUMPDEST PUSH2 0xE78 DUP5 DUP3 DUP6 ADD PUSH2 0xC8A JUMP JUMPDEST PUSH1 0x20 DUP4 ADD MSTORE POP PUSH1 0x40 DUP3 ADD MLOAD PUSH8 0xFFFFFFFFFFFFFFFF DUP2 GT ISZERO PUSH2 0xE9C JUMPI PUSH2 0xE9B PUSH2 0xC45 JUMP JUMPDEST JUMPDEST PUSH2 0xEA8 DUP5 DUP3 DUP6 ADD PUSH2 0xDD2 JUMP JUMPDEST PUSH1 0x40 DUP4 ADD MSTORE POP SWAP3 SWAP2 POP POP JUMP JUMPDEST PUSH0 PUSH1 0x20 DUP3 DUP5 SUB SLT ISZERO PUSH2 0xEC9 JUMPI PUSH2 0xEC8 PUSH2 0x850 JUMP JUMPDEST JUMPDEST PUSH0 DUP3 ADD MLOAD PUSH8 0xFFFFFFFFFFFFFFFF DUP2 GT ISZERO PUSH2 0xEE6 JUMPI PUSH2 0xEE5 PUSH2 0x854 JUMP JUMPDEST JUMPDEST PUSH2 0xEF2 DUP5 DUP3 DUP6 ADD PUSH2 0xDFF JUMP JUMPDEST SWAP2 POP POP SWAP3 SWAP2 POP POP JUMP JUMPDEST PUSH32 0x43616C6C6572206973206E6F7420746865206F776E6572000000000000000000 PUSH0 DUP3 ADD MSTORE POP JUMP JUMPDEST PUSH0 PUSH2 0xF2F PUSH1 0x17 DUP4 PUSH2 0xB8C JUMP JUMPDEST SWAP2 POP PUSH2 0xF3A DUP3 PUSH2 0xEFB JUMP JUMPDEST PUSH1 0x20 DUP3 ADD SWAP1 POP SWAP2 SWAP1 POP JUMP JUMPDEST PUSH0 PUSH1 0x20 DUP3 ADD SWAP1 POP DUP2 DUP2 SUB PUSH0 DUP4 ADD MSTORE PUSH2 0xF5C DUP2 PUSH2 0xF23 JUMP JUMPDEST SWAP1 POP SWAP2 SWAP1 POP JUMP JUMPDEST PUSH32 0x4E487B7100000000000000000000000000000000000000000000000000000000 PUSH0 MSTORE PUSH1 0x32 PUSH1 0x4 MSTORE PUSH1 0x24 PUSH0 REVERT JUMPDEST PUSH0 DUP2 MLOAD SWAP1 POP PUSH2 0xF9E DUP2 PUSH2 0xA3C JUMP JUMPDEST SWAP3 SWAP2 POP POP JUMP JUMPDEST PUSH0 PUSH1 0x20 DUP3 DUP5 SUB SLT ISZERO PUSH2 0xFB9 JUMPI PUSH2 0xFB8 PUSH2 0x850 JUMP JUMPDEST JUMPDEST PUSH0 PUSH2 0xFC6 DUP5 DUP3 DUP6 ADD PUSH2 0xF90 JUMP JUMPDEST SWAP2 POP POP SWAP3 SWAP2 POP POP JUMP JUMPDEST PUSH32 0x4E487B7100000000000000000000000000000000000000000000000000000000 PUSH0 MSTORE PUSH1 0x11 PUSH1 0x4 MSTORE PUSH1 0x24 PUSH0 REVERT JUMPDEST PUSH0 PUSH2 0x1006 DUP3 PUSH2 0xA33 JUMP JUMPDEST SWAP2 POP PUSH2 0x1011 DUP4 PUSH2 0xA33 JUMP JUMPDEST SWAP3 POP DUP3 DUP3 MUL PUSH2 0x101F DUP2 PUSH2 0xA33 JUMP JUMPDEST SWAP2 POP DUP3 DUP3 DIV DUP5 EQ DUP4 ISZERO OR PUSH2 0x1036 JUMPI PUSH2 0x1035 PUSH2 0xFCF JUMP JUMPDEST JUMPDEST POP SWAP3 SWAP2 POP POP JUMP JUMPDEST PUSH0 PUSH2 0x1047 DUP3 PUSH2 0xA33 JUMP JUMPDEST SWAP2 POP PUSH2 0x1052 DUP4 PUSH2 0xA33 JUMP JUMPDEST SWAP3 POP DUP3 DUP3 ADD SWAP1 POP DUP1 DUP3 GT ISZERO PUSH2 0x106A JUMPI PUSH2 0x1069 PUSH2 0xFCF JUMP JUMPDEST JUMPDEST SWAP3 SWAP2 POP POP JUMP JUMPDEST PUSH32 0x4E487B7100000000000000000000000000000000000000000000000000000000 PUSH0 MSTORE PUSH1 0x12 PUSH1 0x4 MSTORE PUSH1 0x24 PUSH0 REVERT JUMPDEST PUSH0 PUSH2 0x10A7 DUP3 PUSH2 0xA33 JUMP JUMPDEST SWAP2 POP PUSH2 0x10B2 DUP4 PUSH2 0xA33 JUMP JUMPDEST SWAP3 POP DUP3 PUSH2 0x10C2 JUMPI PUSH2 0x10C1 PUSH2 0x1070 JUMP JUMPDEST JUMPDEST DUP3 DUP3 DIV SWAP1 POP SWAP3 SWAP2 POP POP JUMP JUMPDEST PUSH32 0x4469726563746F72792063616E6E6F74206265207A65726F2061646472657373 PUSH0 DUP3 ADD MSTORE POP JUMP JUMPDEST PUSH0 PUSH2 0x1101 PUSH1 0x20 DUP4 PUSH2 0xB8C JUMP JUMPDEST SWAP2 POP PUSH2 0x110C DUP3 PUSH2 0x10CD JUMP JUMPDEST PUSH1 0x20 DUP3 ADD SWAP1 POP SWAP2 SWAP1 POP JUMP JUMPDEST PUSH0 PUSH1 0x20 DUP3 ADD SWAP1 POP DUP2 DUP2 SUB PUSH0 DUP4 ADD MSTORE PUSH2 0x112E DUP2 PUSH2 0x10F5 JUMP JUMPDEST SWAP1 POP SWAP2 SWAP1 POP JUMP JUMPDEST PUSH32 0x4469726563746F7279206D757374206265206120636F6E747261637400000000 PUSH0 DUP3 ADD MSTORE POP JUMP JUMPDEST PUSH0 PUSH2 0x1169 PUSH1 0x1C DUP4 PUSH2 0xB8C JUMP JUMPDEST SWAP2 POP PUSH2 0x1174 DUP3 PUSH2 0x1135 JUMP JUMPDEST PUSH1 0x20 DUP3 ADD SWAP1 POP SWAP2 SWAP1 POP JUMP JUMPDEST PUSH0 PUSH1 0x20 DUP3 ADD SWAP1 POP DUP2 DUP2 SUB PUSH0 DUP4 ADD MSTORE PUSH2 0x1196 DUP2 PUSH2 0x115D JUMP JUMPDEST SWAP1 POP SWAP2 SWAP1 POP JUMP JUMPDEST PUSH32 0x4469726563746F7279206164647265737320646F6573206E6F7420696D706C65 PUSH0 DUP3 ADD MSTORE PUSH32 0x6D656E74206F776E657228290000000000000000000000000000000000000000 PUSH1 0x20 DUP3 ADD MSTORE POP JUMP JUMPDEST PUSH0 PUSH2 0x11F7 PUSH1 0x2C DUP4 PUSH2 0xB8C JUMP JUMPDEST SWAP2 POP PUSH2 0x1202 DUP3 PUSH2 0x119D JUMP JUMPDEST PUSH1 0x40 DUP3 ADD SWAP1 POP SWAP2 SWAP1 POP JUMP JUMPDEST PUSH0 PUSH1 0x20 DUP3 ADD SWAP1 POP DUP2 DUP2 SUB PUSH0 DUP4 ADD MSTORE PUSH2 0x1224 DUP2 PUSH2 0x11EB JUMP JUMPDEST SWAP1 POP SWAP2 SWAP1 POP JUMP INVALID LOG2 PUSH5 0x6970667358 0x22 SLT KECCAK256 0xBC PUSH14 0x64A1E8BC6A42A5A304CADB7E8B6D 0xD7 DUP9 PUSH3 0x5D0B44 SWAP4 0xC8 PUSH12 0xCA670C0B9450C464736F6C63 NUMBER STOP ADDMOD 0x1E STOP CALLER "
				},
				"gasEstimates": {
					"creation": {
						"codeDepositCost": "941000",
						"executionCost": "infinite",
						"totalCost": "infinite"
					},
					"external": {
						"Directory()": "infinite",
						"changeDirectoryAddress(address)": "infinite",
						"fetchFromDirectory(string)": "infinite",
						"getIndexUsdPrice(uint256)": "infinite",
						"getIndexWethPrice(uint256)": "infinite",
						"owner()": "infinite"
					}
				},
				"methodIdentifiers": {
					"Directory()": "658a847a",
					"changeDirectoryAddress(address)": "ba4c7be1",
					"fetchFromDirectory(string)": "27262618",
					"getIndexUsdPrice(uint256)": "3ecb8b75",
					"getIndexWethPrice(uint256)": "c9d54fa7",
					"owner()": "8da5cb5b"
				}
			},
			"storageLayout": {
				"storage": [
					{
						"astId": 18,
						"contract": "hopium/etf/main/index-price-oracle.sol:IndexPriceOracle",
						"label": "Directory",
						"offset": 0,
						"slot": "0",
						"type": "t_contract(IDirectory)15"
					}
				],
				"types": {
					"t_contract(IDirectory)15": {
						"encoding": "inplace",
						"label": "contract IDirectory",
						"numberOfBytes": "20"
					}
				}
			},
			"userdoc": {
				"kind": "user",
				"methods": {},
				"version": 1
			}
		}
	}
}