{
	"hopium/etf/main/etf-router.sol": {
		"EtfRouter": {
			"abi": [
				{
					"inputs": [
						{
							"internalType": "address",
							"name": "_directory",
							"type": "address"
						}
					],
					"stateMutability": "nonpayable",
					"type": "constructor"
				},
				{
					"anonymous": false,
					"inputs": [
						{
							"indexed": false,
							"internalType": "uint256",
							"name": "indexId",
							"type": "uint256"
						},
						{
							"indexed": false,
							"internalType": "address",
							"name": "caller",
							"type": "address"
						},
						{
							"indexed": false,
							"internalType": "address",
							"name": "receiver",
							"type": "address"
						},
						{
							"indexed": false,
							"internalType": "uint256",
							"name": "tokenAmount",
							"type": "uint256"
						},
						{
							"indexed": false,
							"internalType": "uint256",
							"name": "ethAmount",
							"type": "uint256"
						}
					],
					"name": "Buy",
					"type": "event"
				},
				{
					"anonymous": false,
					"inputs": [
						{
							"indexed": false,
							"internalType": "uint256",
							"name": "indexId",
							"type": "uint256"
						},
						{
							"indexed": false,
							"internalType": "address",
							"name": "caller",
							"type": "address"
						},
						{
							"indexed": false,
							"internalType": "address",
							"name": "receiver",
							"type": "address"
						},
						{
							"indexed": false,
							"internalType": "uint256",
							"name": "tokenAmount",
							"type": "uint256"
						},
						{
							"indexed": false,
							"internalType": "uint256",
							"name": "ethAmount",
							"type": "uint256"
						}
					],
					"name": "Sell",
					"type": "event"
				},
				{
					"inputs": [],
					"name": "Directory",
					"outputs": [
						{
							"internalType": "contract IDirectory",
							"name": "",
							"type": "address"
						}
					],
					"stateMutability": "view",
					"type": "function"
				},
				{
					"inputs": [
						{
							"internalType": "uint256",
							"name": "indexId",
							"type": "uint256"
						},
						{
							"internalType": "address",
							"name": "receiver",
							"type": "address"
						},
						{
							"internalType": "uint256",
							"name": "slippageBips",
							"type": "uint256"
						},
						{
							"internalType": "uint256",
							"name": "deadlineInSec",
							"type": "uint256"
						}
					],
					"name": "buy",
					"outputs": [],
					"stateMutability": "payable",
					"type": "function"
				},
				{
					"inputs": [
						{
							"internalType": "address",
							"name": "_directory",
							"type": "address"
						}
					],
					"name": "changeDirectoryAddress",
					"outputs": [],
					"stateMutability": "nonpayable",
					"type": "function"
				},
				{
					"inputs": [
						{
							"internalType": "string",
							"name": "_key",
							"type": "string"
						}
					],
					"name": "fetchFromDirectory",
					"outputs": [
						{
							"internalType": "address",
							"name": "",
							"type": "address"
						}
					],
					"stateMutability": "view",
					"type": "function"
				},
				{
					"inputs": [],
					"name": "owner",
					"outputs": [
						{
							"internalType": "address",
							"name": "",
							"type": "address"
						}
					],
					"stateMutability": "view",
					"type": "function"
				},
				{
					"inputs": [
						{
							"internalType": "uint256",
							"name": "indexId",
							"type": "uint256"
						},
						{
							"internalType": "uint256",
							"name": "sellTokenAmount",
							"type": "uint256"
						},
						{
							"internalType": "address payable",
							"name": "receiver",
							"type": "address"
						},
						{
							"internalType": "uint256",
							"name": "slippageBips",
							"type": "uint256"
						},
						{
							"internalType": "uint256",
							"name": "deadlineInSec",
							"type": "uint256"
						}
					],
					"name": "sell",
					"outputs": [],
					"stateMutability": "nonpayable",
					"type": "function"
				}
			],
			"devdoc": {
				"kind": "dev",
				"methods": {},
				"version": 1
			},
			"evm": {
				"assembly": "    /* \"hopium/etf/main/etf-router.sol\":5376:7990  contract EtfRouter is ImDirectory, ImIndexFactory, ReentrancyGuard, Helpers  {... */\n  mstore(0x40, 0x80)\n    /* \"hopium/etf/main/etf-router.sol\":5459:5517  constructor(address _directory) ImDirectory(_directory) {} */\n  callvalue\n  dup1\n  iszero\n  tag_1\n  jumpi\n  revert(0x00, 0x00)\ntag_1:\n  pop\n  mload(0x40)\n  sub(codesize, bytecodeSize)\n  dup1\n  bytecodeSize\n  dup4\n  codecopy\n  dup2\n  dup2\n  add\n  0x40\n  mstore\n  dup2\n  add\n  swap1\n  tag_2\n  swap2\n  swap1\n  tag_3\n  jump\t// in\ntag_2:\n    /* \"hopium/etf/main/etf-router.sol\":5503:5513  _directory */\n  dup1\n    /* \"hopium/common/interface/imDirectory.sol\":412:437  _setDirectory(_directory) */\n  tag_8\n    /* \"hopium/common/interface/imDirectory.sol\":426:436  _directory */\n  dup2\n    /* \"hopium/common/interface/imDirectory.sol\":412:425  _setDirectory */\n  shl(0x20, tag_9)\n    /* \"hopium/common/interface/imDirectory.sol\":412:437  _setDirectory(_directory) */\n  0x20\n  shr\n  jump\t// in\ntag_8:\n    /* \"hopium/common/interface/imDirectory.sol\":370:464  constructor(address _directory) {... */\n  pop\n    /* \"@openzeppelin/contracts/security/ReentrancyGuard.sol\":1716:1717  1 */\n  0x01\n    /* \"@openzeppelin/contracts/security/ReentrancyGuard.sol\":1821:1828  _status */\n  dup1\n    /* \"@openzeppelin/contracts/security/ReentrancyGuard.sol\":1821:1843  _status = _NOT_ENTERED */\n  dup2\n  swap1\n  sstore\n  pop\n    /* \"hopium/etf/main/etf-router.sol\":5459:5517  constructor(address _directory) ImDirectory(_directory) {} */\n  pop\n    /* \"hopium/etf/main/etf-router.sol\":5376:7990  contract EtfRouter is ImDirectory, ImIndexFactory, ReentrancyGuard, Helpers  {... */\n  jump(tag_12)\n    /* \"hopium/common/interface/imDirectory.sol\":589:1050  function _setDirectory(address _directory) internal {... */\ntag_9:\n    /* \"hopium/common/interface/imDirectory.sol\":681:682  0 */\n  0x00\n    /* \"hopium/common/interface/imDirectory.sol\":659:683  _directory != address(0) */\n  0xffffffffffffffffffffffffffffffffffffffff\n  and\n    /* \"hopium/common/interface/imDirectory.sol\":659:669  _directory */\n  dup2\n    /* \"hopium/common/interface/imDirectory.sol\":659:683  _directory != address(0) */\n  0xffffffffffffffffffffffffffffffffffffffff\n  and\n  sub\n    /* \"hopium/common/interface/imDirectory.sol\":651:720  require(_directory != address(0), \"Directory cannot be zero address\") */\n  tag_14\n  jumpi\n  mload(0x40)\n  0x08c379a000000000000000000000000000000000000000000000000000000000\n  dup2\n  mstore\n  0x04\n  add\n  tag_15\n  swap1\n  tag_16\n  jump\t// in\ntag_15:\n  mload(0x40)\n  dup1\n  swap2\n  sub\n  swap1\n  revert\ntag_14:\n    /* \"hopium/common/interface/imDirectory.sol\":763:764  0 */\n  0x00\n    /* \"hopium/common/interface/imDirectory.sol\":738:748  _directory */\n  dup2\n    /* \"hopium/common/interface/imDirectory.sol\":738:760  _directory.code.length */\n  0xffffffffffffffffffffffffffffffffffffffff\n  and\n  extcodesize\n    /* \"hopium/common/interface/imDirectory.sol\":738:764  _directory.code.length > 0 */\n  gt\n    /* \"hopium/common/interface/imDirectory.sol\":730:797  require(_directory.code.length > 0, \"Directory must be a contract\") */\n  tag_17\n  jumpi\n  mload(0x40)\n  0x08c379a000000000000000000000000000000000000000000000000000000000\n  dup2\n  mstore\n  0x04\n  add\n  tag_18\n  swap1\n  tag_19\n  jump\t// in\ntag_18:\n  mload(0x40)\n  dup1\n  swap2\n  sub\n  swap1\n  revert\ntag_17:\n    /* \"hopium/common/interface/imDirectory.sol\":861:871  _directory */\n  dup1\n    /* \"hopium/common/interface/imDirectory.sol\":850:878  IDirectory(_directory).owner */\n  0xffffffffffffffffffffffffffffffffffffffff\n  and\n  0x8da5cb5b\n    /* \"hopium/common/interface/imDirectory.sol\":850:880  IDirectory(_directory).owner() */\n  mload(0x40)\n  dup2\n  0xffffffff\n  and\n  0xe0\n  shl\n  dup2\n  mstore\n  0x04\n  add\n  0x20\n  mload(0x40)\n  dup1\n  dup4\n  sub\n  dup2\n  dup7\n  gas\n  staticcall\n  swap3\n  pop\n  pop\n  pop\n  dup1\n  iszero\n  tag_20\n  jumpi\n  pop\n  mload(0x40)\n  returndatasize\n  not(0x1f)\n  0x1f\n  dup3\n  add\n  and\n  dup3\n  add\n  dup1\n  0x40\n  mstore\n  pop\n  dup2\n  add\n  swap1\n  tag_21\n  swap2\n  swap1\n  tag_3\n  jump\t// in\ntag_21:\n  0x01\ntag_20:\n    /* \"hopium/common/interface/imDirectory.sol\":846:1044  try IDirectory(_directory).owner() returns (address) {... */\n  tag_22\n  jumpi\n    /* \"hopium/common/interface/imDirectory.sol\":979:1033  revert(\"Directory address does not implement owner()\") */\n  mload(0x40)\n  0x08c379a000000000000000000000000000000000000000000000000000000000\n  dup2\n  mstore\n  0x04\n  add\n  tag_26\n  swap1\n  tag_27\n  jump\t// in\ntag_26:\n  mload(0x40)\n  dup1\n  swap2\n  sub\n  swap1\n  revert\n    /* \"hopium/common/interface/imDirectory.sol\":846:1044  try IDirectory(_directory).owner() returns (address) {... */\ntag_22:\n    /* \"hopium/common/interface/imDirectory.sol\":936:946  _directory */\n  dup2\n    /* \"hopium/common/interface/imDirectory.sol\":913:922  Directory */\n  0x00\n  0x00\n    /* \"hopium/common/interface/imDirectory.sol\":913:947  Directory = IDirectory(_directory) */\n  0x0100\n  exp\n  dup2\n  sload\n  dup2\n  0xffffffffffffffffffffffffffffffffffffffff\n  mul\n  not\n  and\n  swap1\n  dup4\n  0xffffffffffffffffffffffffffffffffffffffff\n  and\n  mul\n  or\n  swap1\n  sstore\n  pop\n    /* \"hopium/common/interface/imDirectory.sol\":881:958  returns (address) {... */\n  pop\n    /* \"hopium/common/interface/imDirectory.sol\":589:1050  function _setDirectory(address _directory) internal {... */\n  pop\n  jump\t// out\n    /* \"#utility.yul\":88:205   */\ntag_30:\n    /* \"#utility.yul\":197:198   */\n  0x00\n    /* \"#utility.yul\":194:195   */\n  0x00\n    /* \"#utility.yul\":187:199   */\n  revert\n    /* \"#utility.yul\":334:460   */\ntag_32:\n    /* \"#utility.yul\":371:378   */\n  0x00\n    /* \"#utility.yul\":411:453   */\n  0xffffffffffffffffffffffffffffffffffffffff\n    /* \"#utility.yul\":404:409   */\n  dup3\n    /* \"#utility.yul\":400:454   */\n  and\n    /* \"#utility.yul\":389:454   */\n  swap1\n  pop\n    /* \"#utility.yul\":334:460   */\n  swap2\n  swap1\n  pop\n  jump\t// out\n    /* \"#utility.yul\":466:562   */\ntag_33:\n    /* \"#utility.yul\":503:510   */\n  0x00\n    /* \"#utility.yul\":532:556   */\n  tag_49\n    /* \"#utility.yul\":550:555   */\n  dup3\n    /* \"#utility.yul\":532:556   */\n  tag_32\n  jump\t// in\ntag_49:\n    /* \"#utility.yul\":521:556   */\n  swap1\n  pop\n    /* \"#utility.yul\":466:562   */\n  swap2\n  swap1\n  pop\n  jump\t// out\n    /* \"#utility.yul\":568:690   */\ntag_34:\n    /* \"#utility.yul\":641:665   */\n  tag_51\n    /* \"#utility.yul\":659:664   */\n  dup2\n    /* \"#utility.yul\":641:665   */\n  tag_33\n  jump\t// in\ntag_51:\n    /* \"#utility.yul\":634:639   */\n  dup2\n    /* \"#utility.yul\":631:666   */\n  eq\n    /* \"#utility.yul\":621:684   */\n  tag_52\n  jumpi\n    /* \"#utility.yul\":680:681   */\n  0x00\n    /* \"#utility.yul\":677:678   */\n  0x00\n    /* \"#utility.yul\":670:682   */\n  revert\n    /* \"#utility.yul\":621:684   */\ntag_52:\n    /* \"#utility.yul\":568:690   */\n  pop\n  jump\t// out\n    /* \"#utility.yul\":696:839   */\ntag_35:\n    /* \"#utility.yul\":753:758   */\n  0x00\n    /* \"#utility.yul\":784:790   */\n  dup2\n    /* \"#utility.yul\":778:791   */\n  mload\n    /* \"#utility.yul\":769:791   */\n  swap1\n  pop\n    /* \"#utility.yul\":800:833   */\n  tag_54\n    /* \"#utility.yul\":827:832   */\n  dup2\n    /* \"#utility.yul\":800:833   */\n  tag_34\n  jump\t// in\ntag_54:\n    /* \"#utility.yul\":696:839   */\n  swap3\n  swap2\n  pop\n  pop\n  jump\t// out\n    /* \"#utility.yul\":845:1196   */\ntag_3:\n    /* \"#utility.yul\":915:921   */\n  0x00\n    /* \"#utility.yul\":964:966   */\n  0x20\n    /* \"#utility.yul\":952:961   */\n  dup3\n    /* \"#utility.yul\":943:950   */\n  dup5\n    /* \"#utility.yul\":939:962   */\n  sub\n    /* \"#utility.yul\":935:967   */\n  slt\n    /* \"#utility.yul\":932:1051   */\n  iszero\n  tag_56\n  jumpi\n    /* \"#utility.yul\":970:1049   */\n  tag_57\n  tag_30\n  jump\t// in\ntag_57:\n    /* \"#utility.yul\":932:1051   */\ntag_56:\n    /* \"#utility.yul\":1090:1091   */\n  0x00\n    /* \"#utility.yul\":1115:1179   */\n  tag_58\n    /* \"#utility.yul\":1171:1178   */\n  dup5\n    /* \"#utility.yul\":1162:1168   */\n  dup3\n    /* \"#utility.yul\":1151:1160   */\n  dup6\n    /* \"#utility.yul\":1147:1169   */\n  add\n    /* \"#utility.yul\":1115:1179   */\n  tag_35\n  jump\t// in\ntag_58:\n    /* \"#utility.yul\":1105:1179   */\n  swap2\n  pop\n    /* \"#utility.yul\":1061:1189   */\n  pop\n    /* \"#utility.yul\":845:1196   */\n  swap3\n  swap2\n  pop\n  pop\n  jump\t// out\n    /* \"#utility.yul\":1202:1371   */\ntag_36:\n    /* \"#utility.yul\":1286:1297   */\n  0x00\n    /* \"#utility.yul\":1320:1326   */\n  dup3\n    /* \"#utility.yul\":1315:1318   */\n  dup3\n    /* \"#utility.yul\":1308:1327   */\n  mstore\n    /* \"#utility.yul\":1360:1364   */\n  0x20\n    /* \"#utility.yul\":1355:1358   */\n  dup3\n    /* \"#utility.yul\":1351:1365   */\n  add\n    /* \"#utility.yul\":1336:1365   */\n  swap1\n  pop\n    /* \"#utility.yul\":1202:1371   */\n  swap3\n  swap2\n  pop\n  pop\n  jump\t// out\n    /* \"#utility.yul\":1377:1559   */\ntag_37:\n    /* \"#utility.yul\":1517:1551   */\n  0x4469726563746f72792063616e6e6f74206265207a65726f2061646472657373\n    /* \"#utility.yul\":1513:1514   */\n  0x00\n    /* \"#utility.yul\":1505:1511   */\n  dup3\n    /* \"#utility.yul\":1501:1515   */\n  add\n    /* \"#utility.yul\":1494:1552   */\n  mstore\n    /* \"#utility.yul\":1377:1559   */\n  pop\n  jump\t// out\n    /* \"#utility.yul\":1565:1931   */\ntag_38:\n    /* \"#utility.yul\":1707:1710   */\n  0x00\n    /* \"#utility.yul\":1728:1795   */\n  tag_62\n    /* \"#utility.yul\":1792:1794   */\n  0x20\n    /* \"#utility.yul\":1787:1790   */\n  dup4\n    /* \"#utility.yul\":1728:1795   */\n  tag_36\n  jump\t// in\ntag_62:\n    /* \"#utility.yul\":1721:1795   */\n  swap2\n  pop\n    /* \"#utility.yul\":1804:1897   */\n  tag_63\n    /* \"#utility.yul\":1893:1896   */\n  dup3\n    /* \"#utility.yul\":1804:1897   */\n  tag_37\n  jump\t// in\ntag_63:\n    /* \"#utility.yul\":1922:1924   */\n  0x20\n    /* \"#utility.yul\":1917:1920   */\n  dup3\n    /* \"#utility.yul\":1913:1925   */\n  add\n    /* \"#utility.yul\":1906:1925   */\n  swap1\n  pop\n    /* \"#utility.yul\":1565:1931   */\n  swap2\n  swap1\n  pop\n  jump\t// out\n    /* \"#utility.yul\":1937:2356   */\ntag_16:\n    /* \"#utility.yul\":2103:2107   */\n  0x00\n    /* \"#utility.yul\":2141:2143   */\n  0x20\n    /* \"#utility.yul\":2130:2139   */\n  dup3\n    /* \"#utility.yul\":2126:2144   */\n  add\n    /* \"#utility.yul\":2118:2144   */\n  swap1\n  pop\n    /* \"#utility.yul\":2190:2199   */\n  dup2\n    /* \"#utility.yul\":2184:2188   */\n  dup2\n    /* \"#utility.yul\":2180:2200   */\n  sub\n    /* \"#utility.yul\":2176:2177   */\n  0x00\n    /* \"#utility.yul\":2165:2174   */\n  dup4\n    /* \"#utility.yul\":2161:2178   */\n  add\n    /* \"#utility.yul\":2154:2201   */\n  mstore\n    /* \"#utility.yul\":2218:2349   */\n  tag_65\n    /* \"#utility.yul\":2344:2348   */\n  dup2\n    /* \"#utility.yul\":2218:2349   */\n  tag_38\n  jump\t// in\ntag_65:\n    /* \"#utility.yul\":2210:2349   */\n  swap1\n  pop\n    /* \"#utility.yul\":1937:2356   */\n  swap2\n  swap1\n  pop\n  jump\t// out\n    /* \"#utility.yul\":2362:2540   */\ntag_39:\n    /* \"#utility.yul\":2502:2532   */\n  0x4469726563746f7279206d757374206265206120636f6e747261637400000000\n    /* \"#utility.yul\":2498:2499   */\n  0x00\n    /* \"#utility.yul\":2490:2496   */\n  dup3\n    /* \"#utility.yul\":2486:2500   */\n  add\n    /* \"#utility.yul\":2479:2533   */\n  mstore\n    /* \"#utility.yul\":2362:2540   */\n  pop\n  jump\t// out\n    /* \"#utility.yul\":2546:2912   */\ntag_40:\n    /* \"#utility.yul\":2688:2691   */\n  0x00\n    /* \"#utility.yul\":2709:2776   */\n  tag_68\n    /* \"#utility.yul\":2773:2775   */\n  0x1c\n    /* \"#utility.yul\":2768:2771   */\n  dup4\n    /* \"#utility.yul\":2709:2776   */\n  tag_36\n  jump\t// in\ntag_68:\n    /* \"#utility.yul\":2702:2776   */\n  swap2\n  pop\n    /* \"#utility.yul\":2785:2878   */\n  tag_69\n    /* \"#utility.yul\":2874:2877   */\n  dup3\n    /* \"#utility.yul\":2785:2878   */\n  tag_39\n  jump\t// in\ntag_69:\n    /* \"#utility.yul\":2903:2905   */\n  0x20\n    /* \"#utility.yul\":2898:2901   */\n  dup3\n    /* \"#utility.yul\":2894:2906   */\n  add\n    /* \"#utility.yul\":2887:2906   */\n  swap1\n  pop\n    /* \"#utility.yul\":2546:2912   */\n  swap2\n  swap1\n  pop\n  jump\t// out\n    /* \"#utility.yul\":2918:3337   */\ntag_19:\n    /* \"#utility.yul\":3084:3088   */\n  0x00\n    /* \"#utility.yul\":3122:3124   */\n  0x20\n    /* \"#utility.yul\":3111:3120   */\n  dup3\n    /* \"#utility.yul\":3107:3125   */\n  add\n    /* \"#utility.yul\":3099:3125   */\n  swap1\n  pop\n    /* \"#utility.yul\":3171:3180   */\n  dup2\n    /* \"#utility.yul\":3165:3169   */\n  dup2\n    /* \"#utility.yul\":3161:3181   */\n  sub\n    /* \"#utility.yul\":3157:3158   */\n  0x00\n    /* \"#utility.yul\":3146:3155   */\n  dup4\n    /* \"#utility.yul\":3142:3159   */\n  add\n    /* \"#utility.yul\":3135:3182   */\n  mstore\n    /* \"#utility.yul\":3199:3330   */\n  tag_71\n    /* \"#utility.yul\":3325:3329   */\n  dup2\n    /* \"#utility.yul\":3199:3330   */\n  tag_40\n  jump\t// in\ntag_71:\n    /* \"#utility.yul\":3191:3330   */\n  swap1\n  pop\n    /* \"#utility.yul\":2918:3337   */\n  swap2\n  swap1\n  pop\n  jump\t// out\n    /* \"#utility.yul\":3343:3574   */\ntag_41:\n    /* \"#utility.yul\":3483:3517   */\n  0x4469726563746f7279206164647265737320646f6573206e6f7420696d706c65\n    /* \"#utility.yul\":3479:3480   */\n  0x00\n    /* \"#utility.yul\":3471:3477   */\n  dup3\n    /* \"#utility.yul\":3467:3481   */\n  add\n    /* \"#utility.yul\":3460:3518   */\n  mstore\n    /* \"#utility.yul\":3552:3566   */\n  0x6d656e74206f776e657228290000000000000000000000000000000000000000\n    /* \"#utility.yul\":3547:3549   */\n  0x20\n    /* \"#utility.yul\":3539:3545   */\n  dup3\n    /* \"#utility.yul\":3535:3550   */\n  add\n    /* \"#utility.yul\":3528:3567   */\n  mstore\n    /* \"#utility.yul\":3343:3574   */\n  pop\n  jump\t// out\n    /* \"#utility.yul\":3580:3946   */\ntag_42:\n    /* \"#utility.yul\":3722:3725   */\n  0x00\n    /* \"#utility.yul\":3743:3810   */\n  tag_74\n    /* \"#utility.yul\":3807:3809   */\n  0x2c\n    /* \"#utility.yul\":3802:3805   */\n  dup4\n    /* \"#utility.yul\":3743:3810   */\n  tag_36\n  jump\t// in\ntag_74:\n    /* \"#utility.yul\":3736:3810   */\n  swap2\n  pop\n    /* \"#utility.yul\":3819:3912   */\n  tag_75\n    /* \"#utility.yul\":3908:3911   */\n  dup3\n    /* \"#utility.yul\":3819:3912   */\n  tag_41\n  jump\t// in\ntag_75:\n    /* \"#utility.yul\":3937:3939   */\n  0x40\n    /* \"#utility.yul\":3932:3935   */\n  dup3\n    /* \"#utility.yul\":3928:3940   */\n  add\n    /* \"#utility.yul\":3921:3940   */\n  swap1\n  pop\n    /* \"#utility.yul\":3580:3946   */\n  swap2\n  swap1\n  pop\n  jump\t// out\n    /* \"#utility.yul\":3952:4371   */\ntag_27:\n    /* \"#utility.yul\":4118:4122   */\n  0x00\n    /* \"#utility.yul\":4156:4158   */\n  0x20\n    /* \"#utility.yul\":4145:4154   */\n  dup3\n    /* \"#utility.yul\":4141:4159   */\n  add\n    /* \"#utility.yul\":4133:4159   */\n  swap1\n  pop\n    /* \"#utility.yul\":4205:4214   */\n  dup2\n    /* \"#utility.yul\":4199:4203   */\n  dup2\n    /* \"#utility.yul\":4195:4215   */\n  sub\n    /* \"#utility.yul\":4191:4192   */\n  0x00\n    /* \"#utility.yul\":4180:4189   */\n  dup4\n    /* \"#utility.yul\":4176:4193   */\n  add\n    /* \"#utility.yul\":4169:4216   */\n  mstore\n    /* \"#utility.yul\":4233:4364   */\n  tag_77\n    /* \"#utility.yul\":4359:4363   */\n  dup2\n    /* \"#utility.yul\":4233:4364   */\n  tag_42\n  jump\t// in\ntag_77:\n    /* \"#utility.yul\":4225:4364   */\n  swap1\n  pop\n    /* \"#utility.yul\":3952:4371   */\n  swap2\n  swap1\n  pop\n  jump\t// out\n    /* \"hopium/etf/main/etf-router.sol\":5376:7990  contract EtfRouter is ImDirectory, ImIndexFactory, ReentrancyGuard, Helpers  {... */\ntag_12:\n  dataSize(sub_0)\n  dup1\n  dataOffset(sub_0)\n  0x00\n  codecopy\n  0x00\n  return\nstop\n\nsub_0: assembly {\n        /* \"hopium/etf/main/etf-router.sol\":5376:7990  contract EtfRouter is ImDirectory, ImIndexFactory, ReentrancyGuard, Helpers  {... */\n      mstore(0x40, 0x80)\n      jumpi(tag_1, lt(calldatasize, 0x04))\n      shr(0xe0, calldataload(0x00))\n      dup1\n      0x16274921\n      eq\n      tag_2\n      jumpi\n      dup1\n      0x27262618\n      eq\n      tag_3\n      jumpi\n      dup1\n      0x658a847a\n      eq\n      tag_4\n      jumpi\n      dup1\n      0x706910ff\n      eq\n      tag_5\n      jumpi\n      dup1\n      0x8da5cb5b\n      eq\n      tag_6\n      jumpi\n      dup1\n      0xba4c7be1\n      eq\n      tag_7\n      jumpi\n    tag_1:\n      revert(0x00, 0x00)\n        /* \"hopium/etf/main/etf-router.sol\":6592:7988  function sell(uint256 indexId, uint256 sellTokenAmount, address payable receiver, uint256 slippageBips, uint256 deadlineInSec) external nonReentrant {... */\n    tag_2:\n      callvalue\n      dup1\n      iszero\n      tag_8\n      jumpi\n      revert(0x00, 0x00)\n    tag_8:\n      pop\n      tag_9\n      0x04\n      dup1\n      calldatasize\n      sub\n      dup2\n      add\n      swap1\n      tag_10\n      swap2\n      swap1\n      tag_11\n      jump\t// in\n    tag_10:\n      tag_12\n      jump\t// in\n    tag_9:\n      stop\n        /* \"hopium/common/interface/imDirectory.sol\":1272:1408  function fetchFromDirectory(string memory _key) public view returns (address) {... */\n    tag_3:\n      callvalue\n      dup1\n      iszero\n      tag_13\n      jumpi\n      revert(0x00, 0x00)\n    tag_13:\n      pop\n      tag_14\n      0x04\n      dup1\n      calldatasize\n      sub\n      dup2\n      add\n      swap1\n      tag_15\n      swap2\n      swap1\n      tag_16\n      jump\t// in\n    tag_15:\n      tag_17\n      jump\t// in\n    tag_14:\n      mload(0x40)\n      tag_18\n      swap2\n      swap1\n      tag_19\n      jump\t// in\n    tag_18:\n      mload(0x40)\n      dup1\n      swap2\n      sub\n      swap1\n      return\n        /* \"hopium/common/interface/imDirectory.sol\":336:363  IDirectory public Directory */\n    tag_4:\n      callvalue\n      dup1\n      iszero\n      tag_20\n      jumpi\n      revert(0x00, 0x00)\n    tag_20:\n      pop\n      tag_21\n      tag_22\n      jump\t// in\n    tag_21:\n      mload(0x40)\n      tag_23\n      swap2\n      swap1\n      tag_24\n      jump\t// in\n    tag_23:\n      mload(0x40)\n      dup1\n      swap2\n      sub\n      swap1\n      return\n        /* \"hopium/etf/main/etf-router.sol\":5737:6586  function buy(uint256 indexId, address receiver, uint256 slippageBips, uint256 deadlineInSec) external payable nonReentrant  {... */\n    tag_5:\n      tag_25\n      0x04\n      dup1\n      calldatasize\n      sub\n      dup2\n      add\n      swap1\n      tag_26\n      swap2\n      swap1\n      tag_27\n      jump\t// in\n    tag_26:\n      tag_28\n      jump\t// in\n    tag_25:\n      stop\n        /* \"hopium/common/interface/imDirectory.sol\":1178:1266  function owner() public view returns (address) {... */\n    tag_6:\n      callvalue\n      dup1\n      iszero\n      tag_29\n      jumpi\n      revert(0x00, 0x00)\n    tag_29:\n      pop\n      tag_30\n      tag_31\n      jump\t// in\n    tag_30:\n      mload(0x40)\n      tag_32\n      swap2\n      swap1\n      tag_19\n      jump\t// in\n    tag_32:\n      mload(0x40)\n      dup1\n      swap2\n      sub\n      swap1\n      return\n        /* \"hopium/common/interface/imDirectory.sol\":470:583  function changeDirectoryAddress(address _directory) external onlyOwner {... */\n    tag_7:\n      callvalue\n      dup1\n      iszero\n      tag_33\n      jumpi\n      revert(0x00, 0x00)\n    tag_33:\n      pop\n      tag_34\n      0x04\n      dup1\n      calldatasize\n      sub\n      dup2\n      add\n      swap1\n      tag_35\n      swap2\n      swap1\n      tag_36\n      jump\t// in\n    tag_35:\n      tag_37\n      jump\t// in\n    tag_34:\n      stop\n        /* \"hopium/etf/main/etf-router.sol\":6592:7988  function sell(uint256 indexId, uint256 sellTokenAmount, address payable receiver, uint256 slippageBips, uint256 deadlineInSec) external nonReentrant {... */\n    tag_12:\n        /* \"@openzeppelin/contracts/security/ReentrancyGuard.sol\":2261:2282  _nonReentrantBefore() */\n      tag_39\n        /* \"@openzeppelin/contracts/security/ReentrancyGuard.sol\":2261:2280  _nonReentrantBefore */\n      tag_40\n        /* \"@openzeppelin/contracts/security/ReentrancyGuard.sol\":2261:2282  _nonReentrantBefore() */\n      jump\t// in\n    tag_39:\n        /* \"hopium/etf/main/etf-router.sol\":6777:6778  0 */\n      0x00\n        /* \"hopium/etf/main/etf-router.sol\":6759:6774  sellTokenAmount */\n      dup5\n        /* \"hopium/etf/main/etf-router.sol\":6759:6778  sellTokenAmount > 0 */\n      gt\n        /* \"hopium/etf/main/etf-router.sol\":6751:6827  require(sellTokenAmount > 0, \"EtfRouter: tokens to sell should not be zero\") */\n      tag_42\n      jumpi\n      mload(0x40)\n      0x08c379a000000000000000000000000000000000000000000000000000000000\n      dup2\n      mstore\n      0x04\n      add\n      tag_43\n      swap1\n      tag_44\n      jump\t// in\n    tag_43:\n      mload(0x40)\n      dup1\n      swap2\n      sub\n      swap1\n      revert\n    tag_42:\n        /* \"hopium/etf/main/etf-router.sol\":6865:6866  0 */\n      0x00\n        /* \"hopium/etf/main/etf-router.sol\":6845:6867  receiver != address(0) */\n      0xffffffffffffffffffffffffffffffffffffffff\n      and\n        /* \"hopium/etf/main/etf-router.sol\":6845:6853  receiver */\n      dup4\n        /* \"hopium/etf/main/etf-router.sol\":6845:6867  receiver != address(0) */\n      0xffffffffffffffffffffffffffffffffffffffff\n      and\n      sub\n        /* \"hopium/etf/main/etf-router.sol\":6837:6918  require(receiver != address(0), \"EtfRouter: receiver should not be zero address\") */\n      tag_45\n      jumpi\n      mload(0x40)\n      0x08c379a000000000000000000000000000000000000000000000000000000000\n      dup2\n      mstore\n      0x04\n      add\n      tag_46\n      swap1\n      tag_47\n      jump\t// in\n    tag_46:\n      mload(0x40)\n      dup1\n      swap2\n      sub\n      swap1\n      revert\n    tag_45:\n        /* \"hopium/etf/main/etf-router.sol\":6929:6947  Index memory index */\n      0x00\n        /* \"hopium/etf/main/etf-router.sol\":6950:6967  getIndexFactory() */\n      tag_48\n        /* \"hopium/etf/main/etf-router.sol\":6950:6965  getIndexFactory */\n      tag_49\n        /* \"hopium/etf/main/etf-router.sol\":6950:6967  getIndexFactory() */\n      jump\t// in\n    tag_48:\n        /* \"hopium/etf/main/etf-router.sol\":6950:6980  getIndexFactory().getIndexById */\n      0xffffffffffffffffffffffffffffffffffffffff\n      and\n      0x549e122b\n        /* \"hopium/etf/main/etf-router.sol\":6981:6988  indexId */\n      dup8\n        /* \"hopium/etf/main/etf-router.sol\":6950:6989  getIndexFactory().getIndexById(indexId) */\n      mload(0x40)\n      dup3\n      0xffffffff\n      and\n      0xe0\n      shl\n      dup2\n      mstore\n      0x04\n      add\n      tag_50\n      swap2\n      swap1\n      tag_51\n      jump\t// in\n    tag_50:\n      0x00\n      mload(0x40)\n      dup1\n      dup4\n      sub\n      dup2\n      dup7\n      gas\n      staticcall\n      iszero\n      dup1\n      iszero\n      tag_53\n      jumpi\n      returndatacopy(0x00, 0x00, returndatasize)\n      revert(0x00, returndatasize)\n    tag_53:\n      pop\n      pop\n      pop\n      pop\n      mload(0x40)\n      returndatasize\n      0x00\n      dup3\n      returndatacopy\n      returndatasize\n      not(0x1f)\n      0x1f\n      dup3\n      add\n      and\n      dup3\n      add\n      dup1\n      0x40\n      mstore\n      pop\n      dup2\n      add\n      swap1\n      tag_54\n      swap2\n      swap1\n      tag_55\n      jump\t// in\n    tag_54:\n        /* \"hopium/etf/main/etf-router.sol\":6929:6989  Index memory index = getIndexFactory().getIndexById(indexId) */\n      swap1\n      pop\n        /* \"hopium/etf/main/etf-router.sol\":7000:7023  address etfTokenAddress */\n      0x00\n        /* \"hopium/etf/main/etf-router.sol\":7025:7048  address etfVaultAddress */\n      0x00\n        /* \"hopium/etf/main/etf-router.sol\":7052:7082  _resolveTokenAndVault(indexId) */\n      tag_56\n        /* \"hopium/etf/main/etf-router.sol\":7074:7081  indexId */\n      dup9\n        /* \"hopium/etf/main/etf-router.sol\":7052:7073  _resolveTokenAndVault */\n      tag_57\n        /* \"hopium/etf/main/etf-router.sol\":7052:7082  _resolveTokenAndVault(indexId) */\n      jump\t// in\n    tag_56:\n        /* \"hopium/etf/main/etf-router.sol\":6999:7082  (address etfTokenAddress, address etfVaultAddress) = _resolveTokenAndVault(indexId) */\n      swap2\n      pop\n      swap2\n      pop\n        /* \"hopium/etf/main/etf-router.sol\":7138:7163  uint256 totalSupplyBefore */\n      0x00\n        /* \"hopium/etf/main/etf-router.sol\":7173:7188  etfTokenAddress */\n      dup3\n        /* \"hopium/etf/main/etf-router.sol\":7166:7201  IERC20(etfTokenAddress).totalSupply */\n      0xffffffffffffffffffffffffffffffffffffffff\n      and\n      0x18160ddd\n        /* \"hopium/etf/main/etf-router.sol\":7166:7203  IERC20(etfTokenAddress).totalSupply() */\n      mload(0x40)\n      dup2\n      0xffffffff\n      and\n      0xe0\n      shl\n      dup2\n      mstore\n      0x04\n      add\n      0x20\n      mload(0x40)\n      dup1\n      dup4\n      sub\n      dup2\n      dup7\n      gas\n      staticcall\n      iszero\n      dup1\n      iszero\n      tag_59\n      jumpi\n      returndatacopy(0x00, 0x00, returndatasize)\n      revert(0x00, returndatasize)\n    tag_59:\n      pop\n      pop\n      pop\n      pop\n      mload(0x40)\n      returndatasize\n      not(0x1f)\n      0x1f\n      dup3\n      add\n      and\n      dup3\n      add\n      dup1\n      0x40\n      mstore\n      pop\n      dup2\n      add\n      swap1\n      tag_60\n      swap2\n      swap1\n      tag_61\n      jump\t// in\n    tag_60:\n        /* \"hopium/etf/main/etf-router.sol\":7138:7203  uint256 totalSupplyBefore = IERC20(etfTokenAddress).totalSupply() */\n      swap1\n      pop\n        /* \"hopium/etf/main/etf-router.sol\":7241:7242  0 */\n      0x00\n        /* \"hopium/etf/main/etf-router.sol\":7221:7238  totalSupplyBefore */\n      dup2\n        /* \"hopium/etf/main/etf-router.sol\":7221:7242  totalSupplyBefore > 0 */\n      gt\n        /* \"hopium/etf/main/etf-router.sol\":7213:7278  require(totalSupplyBefore > 0, \"EtfRouter: token supply is zero\") */\n      tag_62\n      jumpi\n      mload(0x40)\n      0x08c379a000000000000000000000000000000000000000000000000000000000\n      dup2\n      mstore\n      0x04\n      add\n      tag_63\n      swap1\n      tag_64\n      jump\t// in\n    tag_63:\n      mload(0x40)\n      dup1\n      swap2\n      sub\n      swap1\n      revert\n    tag_62:\n        /* \"hopium/etf/main/etf-router.sol\":7315:7332  totalSupplyBefore */\n      dup1\n        /* \"hopium/etf/main/etf-router.sol\":7296:7311  sellTokenAmount */\n      dup9\n        /* \"hopium/etf/main/etf-router.sol\":7296:7332  sellTokenAmount <= totalSupplyBefore */\n      gt\n      iszero\n        /* \"hopium/etf/main/etf-router.sol\":7288:7392  require(sellTokenAmount <= totalSupplyBefore, \"EtfRouter: sellTokenAmount is greater than total supply\") */\n      tag_65\n      jumpi\n      mload(0x40)\n      0x08c379a000000000000000000000000000000000000000000000000000000000\n      dup2\n      mstore\n      0x04\n      add\n      tag_66\n      swap1\n      tag_67\n      jump\t// in\n    tag_66:\n      mload(0x40)\n      dup1\n      swap2\n      sub\n      swap1\n      revert\n    tag_65:\n        /* \"hopium/etf/main/etf-router.sol\":7449:7464  etfTokenAddress */\n      dup3\n        /* \"hopium/etf/main/etf-router.sol\":7439:7470  IEtfToken(etfTokenAddress).burn */\n      0xffffffffffffffffffffffffffffffffffffffff\n      and\n      0x9dc29fac\n        /* \"hopium/etf/main/etf-router.sol\":7471:7481  msg.sender */\n      caller\n        /* \"hopium/etf/main/etf-router.sol\":7483:7498  sellTokenAmount */\n      dup11\n        /* \"hopium/etf/main/etf-router.sol\":7439:7499  IEtfToken(etfTokenAddress).burn(msg.sender, sellTokenAmount) */\n      mload(0x40)\n      dup4\n      0xffffffff\n      and\n      0xe0\n      shl\n      dup2\n      mstore\n      0x04\n      add\n      tag_68\n      swap3\n      swap2\n      swap1\n      tag_69\n      jump\t// in\n    tag_68:\n      0x00\n      mload(0x40)\n      dup1\n      dup4\n      sub\n      dup2\n      0x00\n      dup8\n      dup1\n      extcodesize\n      iszero\n      dup1\n      iszero\n      tag_70\n      jumpi\n      revert(0x00, 0x00)\n    tag_70:\n      pop\n      gas\n      call\n      iszero\n      dup1\n      iszero\n      tag_72\n      jumpi\n      returndatacopy(0x00, 0x00, returndatasize)\n      revert(0x00, returndatasize)\n    tag_72:\n      pop\n      pop\n      pop\n      pop\n        /* \"hopium/etf/main/etf-router.sol\":7567:7595  uint256 receiverEthBalBefore */\n      0x00\n        /* \"hopium/etf/main/etf-router.sol\":7606:7614  receiver */\n      dup8\n        /* \"hopium/etf/main/etf-router.sol\":7598:7623  address(receiver).balance */\n      0xffffffffffffffffffffffffffffffffffffffff\n      and\n      balance\n        /* \"hopium/etf/main/etf-router.sol\":7567:7623  uint256 receiverEthBalBefore = address(receiver).balance */\n      swap1\n      pop\n        /* \"hopium/etf/main/etf-router.sol\":7633:7748  _executeSellSwap(index, sellTokenAmount, totalSupplyBefore, etfVaultAddress, receiver, slippageBips, deadlineInSec) */\n      tag_73\n        /* \"hopium/etf/main/etf-router.sol\":7650:7655  index */\n      dup6\n        /* \"hopium/etf/main/etf-router.sol\":7657:7672  sellTokenAmount */\n      dup11\n        /* \"hopium/etf/main/etf-router.sol\":7674:7691  totalSupplyBefore */\n      dup5\n        /* \"hopium/etf/main/etf-router.sol\":7693:7708  etfVaultAddress */\n      dup7\n        /* \"hopium/etf/main/etf-router.sol\":7710:7718  receiver */\n      dup13\n        /* \"hopium/etf/main/etf-router.sol\":7720:7732  slippageBips */\n      dup13\n        /* \"hopium/etf/main/etf-router.sol\":7734:7747  deadlineInSec */\n      dup13\n        /* \"hopium/etf/main/etf-router.sol\":7633:7649  _executeSellSwap */\n      tag_74\n        /* \"hopium/etf/main/etf-router.sol\":7633:7748  _executeSellSwap(index, sellTokenAmount, totalSupplyBefore, etfVaultAddress, receiver, slippageBips, deadlineInSec) */\n      jump\t// in\n    tag_73:\n        /* \"hopium/etf/main/etf-router.sol\":7758:7785  uint256 receiverEthBalAfter */\n      0x00\n        /* \"hopium/etf/main/etf-router.sol\":7796:7804  receiver */\n      dup9\n        /* \"hopium/etf/main/etf-router.sol\":7788:7813  address(receiver).balance */\n      0xffffffffffffffffffffffffffffffffffffffff\n      and\n      balance\n        /* \"hopium/etf/main/etf-router.sol\":7758:7813  uint256 receiverEthBalAfter = address(receiver).balance */\n      swap1\n      pop\n        /* \"hopium/etf/main/etf-router.sol\":7824:7849  uint256 receivedEthAmount */\n      0x00\n        /* \"hopium/etf/main/etf-router.sol\":7874:7894  receiverEthBalBefore */\n      dup3\n        /* \"hopium/etf/main/etf-router.sol\":7852:7871  receiverEthBalAfter */\n      dup3\n        /* \"hopium/etf/main/etf-router.sol\":7852:7894  receiverEthBalAfter - receiverEthBalBefore */\n      tag_75\n      swap2\n      swap1\n      tag_76\n      jump\t// in\n    tag_75:\n        /* \"hopium/etf/main/etf-router.sol\":7824:7894  uint256 receivedEthAmount = receiverEthBalAfter - receiverEthBalBefore */\n      swap1\n      pop\n        /* \"hopium/etf/main/etf-router.sol\":7910:7981  Sell(indexId, msg.sender, receiver, sellTokenAmount, receivedEthAmount) */\n      0x04642da3c4a621c7d8cd33d4709199a744bf8c879474df32af78b084896a79de\n        /* \"hopium/etf/main/etf-router.sol\":7915:7922  indexId */\n      dup13\n        /* \"hopium/etf/main/etf-router.sol\":7924:7934  msg.sender */\n      caller\n        /* \"hopium/etf/main/etf-router.sol\":7936:7944  receiver */\n      dup13\n        /* \"hopium/etf/main/etf-router.sol\":7946:7961  sellTokenAmount */\n      dup15\n        /* \"hopium/etf/main/etf-router.sol\":7963:7980  receivedEthAmount */\n      dup6\n        /* \"hopium/etf/main/etf-router.sol\":7910:7981  Sell(indexId, msg.sender, receiver, sellTokenAmount, receivedEthAmount) */\n      mload(0x40)\n      tag_77\n      swap6\n      swap5\n      swap4\n      swap3\n      swap2\n      swap1\n      tag_78\n      jump\t// in\n    tag_77:\n      mload(0x40)\n      dup1\n      swap2\n      sub\n      swap1\n      log1\n        /* \"hopium/etf/main/etf-router.sol\":6741:7988  {... */\n      pop\n      pop\n      pop\n      pop\n      pop\n      pop\n      pop\n        /* \"@openzeppelin/contracts/security/ReentrancyGuard.sol\":2303:2323  _nonReentrantAfter() */\n      tag_79\n        /* \"@openzeppelin/contracts/security/ReentrancyGuard.sol\":2303:2321  _nonReentrantAfter */\n      tag_80\n        /* \"@openzeppelin/contracts/security/ReentrancyGuard.sol\":2303:2323  _nonReentrantAfter() */\n      jump\t// in\n    tag_79:\n        /* \"hopium/etf/main/etf-router.sol\":6592:7988  function sell(uint256 indexId, uint256 sellTokenAmount, address payable receiver, uint256 slippageBips, uint256 deadlineInSec) external nonReentrant {... */\n      pop\n      pop\n      pop\n      pop\n      pop\n      jump\t// out\n        /* \"hopium/common/interface/imDirectory.sol\":1272:1408  function fetchFromDirectory(string memory _key) public view returns (address) {... */\n    tag_17:\n        /* \"hopium/common/interface/imDirectory.sol\":1341:1348  address */\n      0x00\n        /* \"hopium/common/interface/imDirectory.sol\":1367:1376  Directory */\n      0x00\n      0x00\n      swap1\n      sload\n      swap1\n      0x0100\n      exp\n      swap1\n      div\n      0xffffffffffffffffffffffffffffffffffffffff\n      and\n        /* \"hopium/common/interface/imDirectory.sol\":1367:1395  Directory.fetchFromDirectory */\n      0xffffffffffffffffffffffffffffffffffffffff\n      and\n      0x27262618\n        /* \"hopium/common/interface/imDirectory.sol\":1396:1400  _key */\n      dup4\n        /* \"hopium/common/interface/imDirectory.sol\":1367:1401  Directory.fetchFromDirectory(_key) */\n      mload(0x40)\n      dup3\n      0xffffffff\n      and\n      0xe0\n      shl\n      dup2\n      mstore\n      0x04\n      add\n      tag_82\n      swap2\n      swap1\n      tag_83\n      jump\t// in\n    tag_82:\n      0x20\n      mload(0x40)\n      dup1\n      dup4\n      sub\n      dup2\n      dup7\n      gas\n      staticcall\n      iszero\n      dup1\n      iszero\n      tag_85\n      jumpi\n      returndatacopy(0x00, 0x00, returndatasize)\n      revert(0x00, returndatasize)\n    tag_85:\n      pop\n      pop\n      pop\n      pop\n      mload(0x40)\n      returndatasize\n      not(0x1f)\n      0x1f\n      dup3\n      add\n      and\n      dup3\n      add\n      dup1\n      0x40\n      mstore\n      pop\n      dup2\n      add\n      swap1\n      tag_86\n      swap2\n      swap1\n      tag_87\n      jump\t// in\n    tag_86:\n        /* \"hopium/common/interface/imDirectory.sol\":1360:1401  return Directory.fetchFromDirectory(_key) */\n      swap1\n      pop\n        /* \"hopium/common/interface/imDirectory.sol\":1272:1408  function fetchFromDirectory(string memory _key) public view returns (address) {... */\n      swap2\n      swap1\n      pop\n      jump\t// out\n        /* \"hopium/common/interface/imDirectory.sol\":336:363  IDirectory public Directory */\n    tag_22:\n      0x00\n      0x00\n      swap1\n      sload\n      swap1\n      0x0100\n      exp\n      swap1\n      div\n      0xffffffffffffffffffffffffffffffffffffffff\n      and\n      dup2\n      jump\t// out\n        /* \"hopium/etf/main/etf-router.sol\":5737:6586  function buy(uint256 indexId, address receiver, uint256 slippageBips, uint256 deadlineInSec) external payable nonReentrant  {... */\n    tag_28:\n        /* \"@openzeppelin/contracts/security/ReentrancyGuard.sol\":2261:2282  _nonReentrantBefore() */\n      tag_89\n        /* \"@openzeppelin/contracts/security/ReentrancyGuard.sol\":2261:2280  _nonReentrantBefore */\n      tag_40\n        /* \"@openzeppelin/contracts/security/ReentrancyGuard.sol\":2261:2282  _nonReentrantBefore() */\n      jump\t// in\n    tag_89:\n        /* \"hopium/etf/main/etf-router.sol\":5891:5892  0 */\n      0x00\n        /* \"hopium/etf/main/etf-router.sol\":5879:5888  msg.value */\n      callvalue\n        /* \"hopium/etf/main/etf-router.sol\":5879:5892  msg.value > 0 */\n      gt\n        /* \"hopium/etf/main/etf-router.sol\":5871:5932  require(msg.value > 0, \"EtfRouter: Msg value cannot be zero\") */\n      tag_91\n      jumpi\n      mload(0x40)\n      0x08c379a000000000000000000000000000000000000000000000000000000000\n      dup2\n      mstore\n      0x04\n      add\n      tag_92\n      swap1\n      tag_93\n      jump\t// in\n    tag_92:\n      mload(0x40)\n      dup1\n      swap2\n      sub\n      swap1\n      revert\n    tag_91:\n        /* \"hopium/etf/main/etf-router.sol\":5970:5971  0 */\n      0x00\n        /* \"hopium/etf/main/etf-router.sol\":5950:5972  receiver != address(0) */\n      0xffffffffffffffffffffffffffffffffffffffff\n      and\n        /* \"hopium/etf/main/etf-router.sol\":5950:5958  receiver */\n      dup4\n        /* \"hopium/etf/main/etf-router.sol\":5950:5972  receiver != address(0) */\n      0xffffffffffffffffffffffffffffffffffffffff\n      and\n      sub\n        /* \"hopium/etf/main/etf-router.sol\":5942:6019  require(receiver != address(0), \"EtfRouter: Receiver cannot be zero address\") */\n      tag_94\n      jumpi\n      mload(0x40)\n      0x08c379a000000000000000000000000000000000000000000000000000000000\n      dup2\n      mstore\n      0x04\n      add\n      tag_95\n      swap1\n      tag_96\n      jump\t// in\n    tag_95:\n      mload(0x40)\n      dup1\n      swap2\n      sub\n      swap1\n      revert\n    tag_94:\n        /* \"hopium/etf/main/etf-router.sol\":6030:6048  Index memory index */\n      0x00\n        /* \"hopium/etf/main/etf-router.sol\":6051:6068  getIndexFactory() */\n      tag_97\n        /* \"hopium/etf/main/etf-router.sol\":6051:6066  getIndexFactory */\n      tag_49\n        /* \"hopium/etf/main/etf-router.sol\":6051:6068  getIndexFactory() */\n      jump\t// in\n    tag_97:\n        /* \"hopium/etf/main/etf-router.sol\":6051:6081  getIndexFactory().getIndexById */\n      0xffffffffffffffffffffffffffffffffffffffff\n      and\n      0x549e122b\n        /* \"hopium/etf/main/etf-router.sol\":6082:6089  indexId */\n      dup7\n        /* \"hopium/etf/main/etf-router.sol\":6051:6090  getIndexFactory().getIndexById(indexId) */\n      mload(0x40)\n      dup3\n      0xffffffff\n      and\n      0xe0\n      shl\n      dup2\n      mstore\n      0x04\n      add\n      tag_98\n      swap2\n      swap1\n      tag_51\n      jump\t// in\n    tag_98:\n      0x00\n      mload(0x40)\n      dup1\n      dup4\n      sub\n      dup2\n      dup7\n      gas\n      staticcall\n      iszero\n      dup1\n      iszero\n      tag_100\n      jumpi\n      returndatacopy(0x00, 0x00, returndatasize)\n      revert(0x00, returndatasize)\n    tag_100:\n      pop\n      pop\n      pop\n      pop\n      mload(0x40)\n      returndatasize\n      0x00\n      dup3\n      returndatacopy\n      returndatasize\n      not(0x1f)\n      0x1f\n      dup3\n      add\n      and\n      dup3\n      add\n      dup1\n      0x40\n      mstore\n      pop\n      dup2\n      add\n      swap1\n      tag_101\n      swap2\n      swap1\n      tag_55\n      jump\t// in\n    tag_101:\n        /* \"hopium/etf/main/etf-router.sol\":6030:6090  Index memory index = getIndexFactory().getIndexById(indexId) */\n      swap1\n      pop\n        /* \"hopium/etf/main/etf-router.sol\":6101:6124  address etfTokenAddress */\n      0x00\n        /* \"hopium/etf/main/etf-router.sol\":6126:6149  address etfVaultAddress */\n      0x00\n        /* \"hopium/etf/main/etf-router.sol\":6153:6183  _resolveTokenAndVault(indexId) */\n      tag_102\n        /* \"hopium/etf/main/etf-router.sol\":6175:6182  indexId */\n      dup8\n        /* \"hopium/etf/main/etf-router.sol\":6153:6174  _resolveTokenAndVault */\n      tag_57\n        /* \"hopium/etf/main/etf-router.sol\":6153:6183  _resolveTokenAndVault(indexId) */\n      jump\t// in\n    tag_102:\n        /* \"hopium/etf/main/etf-router.sol\":6100:6183  (address etfTokenAddress, address etfVaultAddress) = _resolveTokenAndVault(indexId) */\n      swap2\n      pop\n      swap2\n      pop\n        /* \"hopium/etf/main/etf-router.sol\":6194:6215  uint256 buyWethAmount */\n      0x00\n        /* \"hopium/etf/main/etf-router.sol\":6218:6227  msg.value */\n      callvalue\n        /* \"hopium/etf/main/etf-router.sol\":6194:6227  uint256 buyWethAmount = msg.value */\n      swap1\n      pop\n        /* \"hopium/etf/main/etf-router.sol\":6287:6370  _executeBuySwap(index, buyWethAmount, etfVaultAddress, slippageBips, deadlineInSec) */\n      tag_103\n        /* \"hopium/etf/main/etf-router.sol\":6303:6308  index */\n      dup5\n        /* \"hopium/etf/main/etf-router.sol\":6310:6323  buyWethAmount */\n      dup3\n        /* \"hopium/etf/main/etf-router.sol\":6325:6340  etfVaultAddress */\n      dup5\n        /* \"hopium/etf/main/etf-router.sol\":6342:6354  slippageBips */\n      dup10\n        /* \"hopium/etf/main/etf-router.sol\":6356:6369  deadlineInSec */\n      dup10\n        /* \"hopium/etf/main/etf-router.sol\":6287:6302  _executeBuySwap */\n      tag_104\n        /* \"hopium/etf/main/etf-router.sol\":6287:6370  _executeBuySwap(index, buyWethAmount, etfVaultAddress, slippageBips, deadlineInSec) */\n      jump\t// in\n    tag_103:\n        /* \"hopium/etf/main/etf-router.sol\":6420:6438  uint256 mintAmount */\n      0x00\n        /* \"hopium/etf/main/etf-router.sol\":6441:6506  _mintEtfTokens(indexId, buyWethAmount, etfTokenAddress, receiver) */\n      tag_105\n        /* \"hopium/etf/main/etf-router.sol\":6456:6463  indexId */\n      dup10\n        /* \"hopium/etf/main/etf-router.sol\":6465:6478  buyWethAmount */\n      dup4\n        /* \"hopium/etf/main/etf-router.sol\":6480:6495  etfTokenAddress */\n      dup7\n        /* \"hopium/etf/main/etf-router.sol\":6497:6505  receiver */\n      dup12\n        /* \"hopium/etf/main/etf-router.sol\":6441:6455  _mintEtfTokens */\n      tag_106\n        /* \"hopium/etf/main/etf-router.sol\":6441:6506  _mintEtfTokens(indexId, buyWethAmount, etfTokenAddress, receiver) */\n      jump\t// in\n    tag_105:\n        /* \"hopium/etf/main/etf-router.sol\":6420:6506  uint256 mintAmount = _mintEtfTokens(indexId, buyWethAmount, etfTokenAddress, receiver) */\n      swap1\n      pop\n        /* \"hopium/etf/main/etf-router.sol\":6522:6579  Buy(indexId, msg.sender, receiver, mintAmount, msg.value) */\n      0x5b3fa64172584174917e1b3a206fe9c25d3120cf366b3d05ad5b6183a15cf789\n        /* \"hopium/etf/main/etf-router.sol\":6526:6533  indexId */\n      dup10\n        /* \"hopium/etf/main/etf-router.sol\":6535:6545  msg.sender */\n      caller\n        /* \"hopium/etf/main/etf-router.sol\":6547:6555  receiver */\n      dup11\n        /* \"hopium/etf/main/etf-router.sol\":6557:6567  mintAmount */\n      dup5\n        /* \"hopium/etf/main/etf-router.sol\":6569:6578  msg.value */\n      callvalue\n        /* \"hopium/etf/main/etf-router.sol\":6522:6579  Buy(indexId, msg.sender, receiver, mintAmount, msg.value) */\n      mload(0x40)\n      tag_107\n      swap6\n      swap5\n      swap4\n      swap3\n      swap2\n      swap1\n      tag_108\n      jump\t// in\n    tag_107:\n      mload(0x40)\n      dup1\n      swap2\n      sub\n      swap1\n      log1\n        /* \"hopium/etf/main/etf-router.sol\":5861:6586  {... */\n      pop\n      pop\n      pop\n      pop\n      pop\n        /* \"@openzeppelin/contracts/security/ReentrancyGuard.sol\":2303:2323  _nonReentrantAfter() */\n      tag_109\n        /* \"@openzeppelin/contracts/security/ReentrancyGuard.sol\":2303:2321  _nonReentrantAfter */\n      tag_80\n        /* \"@openzeppelin/contracts/security/ReentrancyGuard.sol\":2303:2323  _nonReentrantAfter() */\n      jump\t// in\n    tag_109:\n        /* \"hopium/etf/main/etf-router.sol\":5737:6586  function buy(uint256 indexId, address receiver, uint256 slippageBips, uint256 deadlineInSec) external payable nonReentrant  {... */\n      pop\n      pop\n      pop\n      pop\n      jump\t// out\n        /* \"hopium/common/interface/imDirectory.sol\":1178:1266  function owner() public view returns (address) {... */\n    tag_31:\n        /* \"hopium/common/interface/imDirectory.sol\":1216:1223  address */\n      0x00\n        /* \"hopium/common/interface/imDirectory.sol\":1242:1251  Directory */\n      0x00\n      0x00\n      swap1\n      sload\n      swap1\n      0x0100\n      exp\n      swap1\n      div\n      0xffffffffffffffffffffffffffffffffffffffff\n      and\n        /* \"hopium/common/interface/imDirectory.sol\":1242:1257  Directory.owner */\n      0xffffffffffffffffffffffffffffffffffffffff\n      and\n      0x8da5cb5b\n        /* \"hopium/common/interface/imDirectory.sol\":1242:1259  Directory.owner() */\n      mload(0x40)\n      dup2\n      0xffffffff\n      and\n      0xe0\n      shl\n      dup2\n      mstore\n      0x04\n      add\n      0x20\n      mload(0x40)\n      dup1\n      dup4\n      sub\n      dup2\n      dup7\n      gas\n      staticcall\n      iszero\n      dup1\n      iszero\n      tag_112\n      jumpi\n      returndatacopy(0x00, 0x00, returndatasize)\n      revert(0x00, returndatasize)\n    tag_112:\n      pop\n      pop\n      pop\n      pop\n      mload(0x40)\n      returndatasize\n      not(0x1f)\n      0x1f\n      dup3\n      add\n      and\n      dup3\n      add\n      dup1\n      0x40\n      mstore\n      pop\n      dup2\n      add\n      swap1\n      tag_113\n      swap2\n      swap1\n      tag_87\n      jump\t// in\n    tag_113:\n        /* \"hopium/common/interface/imDirectory.sol\":1235:1259  return Directory.owner() */\n      swap1\n      pop\n        /* \"hopium/common/interface/imDirectory.sol\":1178:1266  function owner() public view returns (address) {... */\n      swap1\n      jump\t// out\n        /* \"hopium/common/interface/imDirectory.sol\":470:583  function changeDirectoryAddress(address _directory) external onlyOwner {... */\n    tag_37:\n        /* \"hopium/common/interface/imDirectory.sol\":1109:1118  Directory */\n      0x00\n      0x00\n      swap1\n      sload\n      swap1\n      0x0100\n      exp\n      swap1\n      div\n      0xffffffffffffffffffffffffffffffffffffffff\n      and\n        /* \"hopium/common/interface/imDirectory.sol\":1109:1124  Directory.owner */\n      0xffffffffffffffffffffffffffffffffffffffff\n      and\n      0x8da5cb5b\n        /* \"hopium/common/interface/imDirectory.sol\":1109:1126  Directory.owner() */\n      mload(0x40)\n      dup2\n      0xffffffff\n      and\n      0xe0\n      shl\n      dup2\n      mstore\n      0x04\n      add\n      0x20\n      mload(0x40)\n      dup1\n      dup4\n      sub\n      dup2\n      dup7\n      gas\n      staticcall\n      iszero\n      dup1\n      iszero\n      tag_116\n      jumpi\n      returndatacopy(0x00, 0x00, returndatasize)\n      revert(0x00, returndatasize)\n    tag_116:\n      pop\n      pop\n      pop\n      pop\n      mload(0x40)\n      returndatasize\n      not(0x1f)\n      0x1f\n      dup3\n      add\n      and\n      dup3\n      add\n      dup1\n      0x40\n      mstore\n      pop\n      dup2\n      add\n      swap1\n      tag_117\n      swap2\n      swap1\n      tag_87\n      jump\t// in\n    tag_117:\n        /* \"hopium/common/interface/imDirectory.sol\":1095:1126  msg.sender == Directory.owner() */\n      0xffffffffffffffffffffffffffffffffffffffff\n      and\n        /* \"hopium/common/interface/imDirectory.sol\":1095:1105  msg.sender */\n      caller\n        /* \"hopium/common/interface/imDirectory.sol\":1095:1126  msg.sender == Directory.owner() */\n      0xffffffffffffffffffffffffffffffffffffffff\n      and\n      eq\n        /* \"hopium/common/interface/imDirectory.sol\":1087:1154  require(msg.sender == Directory.owner(), \"Caller is not the owner\") */\n      tag_118\n      jumpi\n      mload(0x40)\n      0x08c379a000000000000000000000000000000000000000000000000000000000\n      dup2\n      mstore\n      0x04\n      add\n      tag_119\n      swap1\n      tag_120\n      jump\t// in\n    tag_119:\n      mload(0x40)\n      dup1\n      swap2\n      sub\n      swap1\n      revert\n    tag_118:\n        /* \"hopium/common/interface/imDirectory.sol\":551:576  _setDirectory(_directory) */\n      tag_122\n        /* \"hopium/common/interface/imDirectory.sol\":565:575  _directory */\n      dup2\n        /* \"hopium/common/interface/imDirectory.sol\":551:564  _setDirectory */\n      tag_123\n        /* \"hopium/common/interface/imDirectory.sol\":551:576  _setDirectory(_directory) */\n      jump\t// in\n    tag_122:\n        /* \"hopium/common/interface/imDirectory.sol\":470:583  function changeDirectoryAddress(address _directory) external onlyOwner {... */\n      pop\n      jump\t// out\n        /* \"@openzeppelin/contracts/security/ReentrancyGuard.sol\":2336:2623  function _nonReentrantBefore() private {... */\n    tag_40:\n        /* \"@openzeppelin/contracts/security/ReentrancyGuard.sol\":1759:1760  2 */\n      0x02\n        /* \"@openzeppelin/contracts/security/ReentrancyGuard.sol\":2468:2475  _status */\n      sload(0x01)\n        /* \"@openzeppelin/contracts/security/ReentrancyGuard.sol\":2468:2487  _status != _ENTERED */\n      sub\n        /* \"@openzeppelin/contracts/security/ReentrancyGuard.sol\":2460:2523  require(_status != _ENTERED, \"ReentrancyGuard: reentrant call\") */\n      tag_125\n      jumpi\n      mload(0x40)\n      0x08c379a000000000000000000000000000000000000000000000000000000000\n      dup2\n      mstore\n      0x04\n      add\n      tag_126\n      swap1\n      tag_127\n      jump\t// in\n    tag_126:\n      mload(0x40)\n      dup1\n      swap2\n      sub\n      swap1\n      revert\n    tag_125:\n        /* \"@openzeppelin/contracts/security/ReentrancyGuard.sol\":1759:1760  2 */\n      0x02\n        /* \"@openzeppelin/contracts/security/ReentrancyGuard.sol\":2598:2605  _status */\n      0x01\n        /* \"@openzeppelin/contracts/security/ReentrancyGuard.sol\":2598:2616  _status = _ENTERED */\n      dup2\n      swap1\n      sstore\n      pop\n        /* \"@openzeppelin/contracts/security/ReentrancyGuard.sol\":2336:2623  function _nonReentrantBefore() private {... */\n      jump\t// out\n        /* \"hopium/etf/interface/imIndexFactory.sol\":387:534  function getIndexFactory() internal view virtual returns (IIndexFactory) {... */\n    tag_49:\n        /* \"hopium/etf/interface/imIndexFactory.sol\":445:458  IIndexFactory */\n      0x00\n        /* \"hopium/etf/interface/imIndexFactory.sol\":491:526  fetchFromDirectory(\"index-factory\") */\n      tag_129\n      mload(0x40)\n      dup1\n      0x40\n      add\n      0x40\n      mstore\n      dup1\n      0x0d\n      dup2\n      mstore\n      0x20\n      add\n      0x696e6465782d666163746f727900000000000000000000000000000000000000\n      dup2\n      mstore\n      pop\n        /* \"hopium/etf/interface/imIndexFactory.sol\":491:509  fetchFromDirectory */\n      tag_17\n        /* \"hopium/etf/interface/imIndexFactory.sol\":491:526  fetchFromDirectory(\"index-factory\") */\n      jump\t// in\n    tag_129:\n        /* \"hopium/etf/interface/imIndexFactory.sol\":470:527  return IIndexFactory(fetchFromDirectory(\"index-factory\")) */\n      swap1\n      pop\n        /* \"hopium/etf/interface/imIndexFactory.sol\":387:534  function getIndexFactory() internal view virtual returns (IIndexFactory) {... */\n      swap1\n      jump\t// out\n        /* \"hopium/etf/main/etf-router.sol\":4884:5372  function _resolveTokenAndVault(uint256 indexId) internal view returns (address, address) {... */\n    tag_57:\n        /* \"hopium/etf/main/etf-router.sol\":4955:4962  address */\n      0x00\n        /* \"hopium/etf/main/etf-router.sol\":4964:4971  address */\n      0x00\n        /* \"hopium/etf/main/etf-router.sol\":4983:5006  address etfTokenAddress */\n      0x00\n        /* \"hopium/etf/main/etf-router.sol\":5009:5024  getEtfFactory() */\n      tag_131\n        /* \"hopium/etf/main/etf-router.sol\":5009:5022  getEtfFactory */\n      tag_132\n        /* \"hopium/etf/main/etf-router.sol\":5009:5024  getEtfFactory() */\n      jump\t// in\n    tag_131:\n        /* \"hopium/etf/main/etf-router.sol\":5009:5043  getEtfFactory().getEtfTokenAddress */\n      0xffffffffffffffffffffffffffffffffffffffff\n      and\n      0xf2018a1f\n        /* \"hopium/etf/main/etf-router.sol\":5044:5051  indexId */\n      dup6\n        /* \"hopium/etf/main/etf-router.sol\":5009:5052  getEtfFactory().getEtfTokenAddress(indexId) */\n      mload(0x40)\n      dup3\n      0xffffffff\n      and\n      0xe0\n      shl\n      dup2\n      mstore\n      0x04\n      add\n      tag_133\n      swap2\n      swap1\n      tag_51\n      jump\t// in\n    tag_133:\n      0x20\n      mload(0x40)\n      dup1\n      dup4\n      sub\n      dup2\n      dup7\n      gas\n      staticcall\n      iszero\n      dup1\n      iszero\n      tag_135\n      jumpi\n      returndatacopy(0x00, 0x00, returndatasize)\n      revert(0x00, returndatasize)\n    tag_135:\n      pop\n      pop\n      pop\n      pop\n      mload(0x40)\n      returndatasize\n      not(0x1f)\n      0x1f\n      dup3\n      add\n      and\n      dup3\n      add\n      dup1\n      0x40\n      mstore\n      pop\n      dup2\n      add\n      swap1\n      tag_136\n      swap2\n      swap1\n      tag_87\n      jump\t// in\n    tag_136:\n        /* \"hopium/etf/main/etf-router.sol\":4983:5052  address etfTokenAddress = getEtfFactory().getEtfTokenAddress(indexId) */\n      swap1\n      pop\n        /* \"hopium/etf/main/etf-router.sol\":5062:5085  address etfVaultAddress */\n      0x00\n        /* \"hopium/etf/main/etf-router.sol\":5088:5103  getEtfFactory() */\n      tag_137\n        /* \"hopium/etf/main/etf-router.sol\":5088:5101  getEtfFactory */\n      tag_132\n        /* \"hopium/etf/main/etf-router.sol\":5088:5103  getEtfFactory() */\n      jump\t// in\n    tag_137:\n        /* \"hopium/etf/main/etf-router.sol\":5088:5122  getEtfFactory().getEtfVaultAddress */\n      0xffffffffffffffffffffffffffffffffffffffff\n      and\n      0x3ee79962\n        /* \"hopium/etf/main/etf-router.sol\":5123:5130  indexId */\n      dup7\n        /* \"hopium/etf/main/etf-router.sol\":5088:5131  getEtfFactory().getEtfVaultAddress(indexId) */\n      mload(0x40)\n      dup3\n      0xffffffff\n      and\n      0xe0\n      shl\n      dup2\n      mstore\n      0x04\n      add\n      tag_138\n      swap2\n      swap1\n      tag_51\n      jump\t// in\n    tag_138:\n      0x20\n      mload(0x40)\n      dup1\n      dup4\n      sub\n      dup2\n      dup7\n      gas\n      staticcall\n      iszero\n      dup1\n      iszero\n      tag_140\n      jumpi\n      returndatacopy(0x00, 0x00, returndatasize)\n      revert(0x00, returndatasize)\n    tag_140:\n      pop\n      pop\n      pop\n      pop\n      mload(0x40)\n      returndatasize\n      not(0x1f)\n      0x1f\n      dup3\n      add\n      and\n      dup3\n      add\n      dup1\n      0x40\n      mstore\n      pop\n      dup2\n      add\n      swap1\n      tag_141\n      swap2\n      swap1\n      tag_87\n      jump\t// in\n    tag_141:\n        /* \"hopium/etf/main/etf-router.sol\":5062:5131  address etfVaultAddress = getEtfFactory().getEtfVaultAddress(indexId) */\n      swap1\n      pop\n        /* \"hopium/etf/main/etf-router.sol\":5176:5177  0 */\n      0x00\n        /* \"hopium/etf/main/etf-router.sol\":5149:5178  etfTokenAddress != address(0) */\n      0xffffffffffffffffffffffffffffffffffffffff\n      and\n        /* \"hopium/etf/main/etf-router.sol\":5149:5164  etfTokenAddress */\n      dup3\n        /* \"hopium/etf/main/etf-router.sol\":5149:5178  etfTokenAddress != address(0) */\n      0xffffffffffffffffffffffffffffffffffffffff\n      and\n      sub\n        /* \"hopium/etf/main/etf-router.sol\":5141:5222  require(etfTokenAddress != address(0), \"EtfRouter: etfTokenAddress not deployed\") */\n      tag_142\n      jumpi\n      mload(0x40)\n      0x08c379a000000000000000000000000000000000000000000000000000000000\n      dup2\n      mstore\n      0x04\n      add\n      tag_143\n      swap1\n      tag_144\n      jump\t// in\n    tag_143:\n      mload(0x40)\n      dup1\n      swap2\n      sub\n      swap1\n      revert\n    tag_142:\n        /* \"hopium/etf/main/etf-router.sol\":5267:5268  0 */\n      0x00\n        /* \"hopium/etf/main/etf-router.sol\":5240:5269  etfVaultAddress != address(0) */\n      0xffffffffffffffffffffffffffffffffffffffff\n      and\n        /* \"hopium/etf/main/etf-router.sol\":5240:5255  etfVaultAddress */\n      dup2\n        /* \"hopium/etf/main/etf-router.sol\":5240:5269  etfVaultAddress != address(0) */\n      0xffffffffffffffffffffffffffffffffffffffff\n      and\n      sub\n        /* \"hopium/etf/main/etf-router.sol\":5232:5313  require(etfVaultAddress != address(0), \"EtfRouter: etfVaultAddress not deployed\") */\n      tag_145\n      jumpi\n      mload(0x40)\n      0x08c379a000000000000000000000000000000000000000000000000000000000\n      dup2\n      mstore\n      0x04\n      add\n      tag_146\n      swap1\n      tag_147\n      jump\t// in\n    tag_146:\n      mload(0x40)\n      dup1\n      swap2\n      sub\n      swap1\n      revert\n    tag_145:\n        /* \"hopium/etf/main/etf-router.sol\":5332:5347  etfTokenAddress */\n      dup2\n        /* \"hopium/etf/main/etf-router.sol\":5349:5364  etfVaultAddress */\n      dup2\n        /* \"hopium/etf/main/etf-router.sol\":5324:5365  return (etfTokenAddress, etfVaultAddress) */\n      swap4\n      pop\n      swap4\n      pop\n      pop\n      pop\n        /* \"hopium/etf/main/etf-router.sol\":4884:5372  function _resolveTokenAndVault(uint256 indexId) internal view returns (address, address) {... */\n      swap2\n      pop\n      swap2\n      jump\t// out\n        /* \"hopium/etf/main/etf-router.sol\":2018:3930  function _executeSellSwap(Index memory index, uint256 sellTokenAmount, uint256 tokenTotalSupplyBefore, address etfVaultAddress, address receiver, uint256 slippageBips, uint256 deadlineInSec) internal {... */\n    tag_74:\n        /* \"hopium/etf/main/etf-router.sol\":2283:2303  uint256 nonZeroCount */\n      0x00\n        /* \"hopium/etf/main/etf-router.sol\":2306:2307  0 */\n      0x00\n        /* \"hopium/etf/main/etf-router.sol\":2283:2307  uint256 nonZeroCount = 0 */\n      swap1\n      pop\n        /* \"hopium/etf/main/etf-router.sol\":2322:2331  uint256 i */\n      0x00\n        /* \"hopium/etf/main/etf-router.sol\":2334:2335  0 */\n      0x00\n        /* \"hopium/etf/main/etf-router.sol\":2322:2335  uint256 i = 0 */\n      swap1\n      pop\n        /* \"hopium/etf/main/etf-router.sol\":2317:2647  for (uint256 i = 0; i < index.holdings.length; i++) {... */\n    tag_149:\n        /* \"hopium/etf/main/etf-router.sol\":2341:2346  index */\n      dup9\n        /* \"hopium/etf/main/etf-router.sol\":2341:2355  index.holdings */\n      0x40\n      add\n      mload\n        /* \"hopium/etf/main/etf-router.sol\":2341:2362  index.holdings.length */\n      mload\n        /* \"hopium/etf/main/etf-router.sol\":2337:2338  i */\n      dup2\n        /* \"hopium/etf/main/etf-router.sol\":2337:2362  i < index.holdings.length */\n      lt\n        /* \"hopium/etf/main/etf-router.sol\":2317:2647  for (uint256 i = 0; i < index.holdings.length; i++) {... */\n      iszero\n      tag_150\n      jumpi\n        /* \"hopium/etf/main/etf-router.sol\":2383:2396  address token */\n      0x00\n        /* \"hopium/etf/main/etf-router.sol\":2399:2404  index */\n      dup10\n        /* \"hopium/etf/main/etf-router.sol\":2399:2413  index.holdings */\n      0x40\n      add\n      mload\n        /* \"hopium/etf/main/etf-router.sol\":2414:2415  i */\n      dup3\n        /* \"hopium/etf/main/etf-router.sol\":2399:2416  index.holdings[i] */\n      dup2\n      mload\n      dup2\n      lt\n      tag_152\n      jumpi\n      tag_153\n      tag_154\n      jump\t// in\n    tag_153:\n    tag_152:\n      0x20\n      mul\n      0x20\n      add\n      add\n      mload\n        /* \"hopium/etf/main/etf-router.sol\":2399:2429  index.holdings[i].tokenAddress */\n      0x00\n      add\n      mload\n        /* \"hopium/etf/main/etf-router.sol\":2383:2429  address token = index.holdings[i].tokenAddress */\n      swap1\n      pop\n        /* \"hopium/etf/main/etf-router.sol\":2443:2454  uint256 bal */\n      0x00\n        /* \"hopium/etf/main/etf-router.sol\":2464:2469  token */\n      dup2\n        /* \"hopium/etf/main/etf-router.sol\":2457:2480  IERC20(token).balanceOf */\n      0xffffffffffffffffffffffffffffffffffffffff\n      and\n      0x70a08231\n        /* \"hopium/etf/main/etf-router.sol\":2481:2496  etfVaultAddress */\n      dup10\n        /* \"hopium/etf/main/etf-router.sol\":2457:2497  IERC20(token).balanceOf(etfVaultAddress) */\n      mload(0x40)\n      dup3\n      0xffffffff\n      and\n      0xe0\n      shl\n      dup2\n      mstore\n      0x04\n      add\n      tag_155\n      swap2\n      swap1\n      tag_19\n      jump\t// in\n    tag_155:\n      0x20\n      mload(0x40)\n      dup1\n      dup4\n      sub\n      dup2\n      dup7\n      gas\n      staticcall\n      iszero\n      dup1\n      iszero\n      tag_157\n      jumpi\n      returndatacopy(0x00, 0x00, returndatasize)\n      revert(0x00, returndatasize)\n    tag_157:\n      pop\n      pop\n      pop\n      pop\n      mload(0x40)\n      returndatasize\n      not(0x1f)\n      0x1f\n      dup3\n      add\n      and\n      dup3\n      add\n      dup1\n      0x40\n      mstore\n      pop\n      dup2\n      add\n      swap1\n      tag_158\n      swap2\n      swap1\n      tag_61\n      jump\t// in\n    tag_158:\n        /* \"hopium/etf/main/etf-router.sol\":2443:2497  uint256 bal = IERC20(token).balanceOf(etfVaultAddress) */\n      swap1\n      pop\n        /* \"hopium/etf/main/etf-router.sol\":2511:2533  uint256 withdrawAmount */\n      0x00\n        /* \"hopium/etf/main/etf-router.sol\":2562:2584  tokenTotalSupplyBefore */\n      dup10\n        /* \"hopium/etf/main/etf-router.sol\":2543:2558  sellTokenAmount */\n      dup12\n        /* \"hopium/etf/main/etf-router.sol\":2537:2540  bal */\n      dup4\n        /* \"hopium/etf/main/etf-router.sol\":2537:2558  bal * sellTokenAmount */\n      tag_159\n      swap2\n      swap1\n      tag_160\n      jump\t// in\n    tag_159:\n        /* \"hopium/etf/main/etf-router.sol\":2536:2584  (bal * sellTokenAmount) / tokenTotalSupplyBefore */\n      tag_161\n      swap2\n      swap1\n      tag_162\n      jump\t// in\n    tag_161:\n        /* \"hopium/etf/main/etf-router.sol\":2511:2584  uint256 withdrawAmount = (bal * sellTokenAmount) / tokenTotalSupplyBefore */\n      swap1\n      pop\n        /* \"hopium/etf/main/etf-router.sol\":2619:2620  0 */\n      0x00\n        /* \"hopium/etf/main/etf-router.sol\":2602:2616  withdrawAmount */\n      dup2\n        /* \"hopium/etf/main/etf-router.sol\":2602:2620  withdrawAmount > 0 */\n      gt\n        /* \"hopium/etf/main/etf-router.sol\":2598:2636  if (withdrawAmount > 0) nonZeroCount++ */\n      iszero\n      tag_163\n      jumpi\n        /* \"hopium/etf/main/etf-router.sol\":2622:2636  nonZeroCount++ */\n      dup5\n      dup1\n      tag_164\n      swap1\n      tag_165\n      jump\t// in\n    tag_164:\n      swap6\n      pop\n      pop\n        /* \"hopium/etf/main/etf-router.sol\":2598:2636  if (withdrawAmount > 0) nonZeroCount++ */\n    tag_163:\n        /* \"hopium/etf/main/etf-router.sol\":2369:2647  {... */\n      pop\n      pop\n      pop\n        /* \"hopium/etf/main/etf-router.sol\":2364:2367  i++ */\n      dup1\n      dup1\n      0x01\n      add\n      swap2\n      pop\n      pop\n        /* \"hopium/etf/main/etf-router.sol\":2317:2647  for (uint256 i = 0; i < index.holdings.length; i++) {... */\n      jump(tag_149)\n    tag_150:\n      pop\n        /* \"hopium/etf/main/etf-router.sol\":2680:2681  0 */\n      0x00\n        /* \"hopium/etf/main/etf-router.sol\":2665:2677  nonZeroCount */\n      dup2\n        /* \"hopium/etf/main/etf-router.sol\":2665:2681  nonZeroCount > 0 */\n      gt\n        /* \"hopium/etf/main/etf-router.sol\":2657:2716  require(nonZeroCount > 0, \"EtfRouter: nothing to withdraw\") */\n      tag_166\n      jumpi\n      mload(0x40)\n      0x08c379a000000000000000000000000000000000000000000000000000000000\n      dup2\n      mstore\n      0x04\n      add\n      tag_167\n      swap1\n      tag_168\n      jump\t// in\n    tag_167:\n      mload(0x40)\n      dup1\n      swap2\n      sub\n      swap1\n      revert\n    tag_166:\n        /* \"hopium/etf/main/etf-router.sol\":2777:2807  SwapOrderInput[] memory inputs */\n      0x00\n        /* \"hopium/etf/main/etf-router.sol\":2831:2843  nonZeroCount */\n      dup2\n        /* \"hopium/etf/main/etf-router.sol\":2810:2844  new SwapOrderInput[](nonZeroCount) */\n      0xffffffffffffffff\n      dup2\n      gt\n      iszero\n      tag_169\n      jumpi\n      tag_170\n      tag_171\n      jump\t// in\n    tag_170:\n    tag_169:\n      mload(0x40)\n      swap1\n      dup1\n      dup3\n      mstore\n      dup1\n      0x20\n      mul\n      0x20\n      add\n      dup3\n      add\n      0x40\n      mstore\n      dup1\n      iszero\n      tag_172\n      jumpi\n      dup2\n      0x20\n      add\n    tag_173:\n      tag_174\n      tag_175\n      jump\t// in\n    tag_174:\n      dup2\n      mstore\n      0x20\n      add\n      swap1\n      0x01\n      swap1\n      sub\n      swap1\n      dup2\n      tag_173\n      jumpi\n      swap1\n      pop\n    tag_172:\n      pop\n        /* \"hopium/etf/main/etf-router.sol\":2777:2844  SwapOrderInput[] memory inputs = new SwapOrderInput[](nonZeroCount) */\n      swap1\n      pop\n        /* \"hopium/etf/main/etf-router.sol\":2854:2863  uint256 k */\n      0x00\n        /* \"hopium/etf/main/etf-router.sol\":2866:2867  0 */\n      0x00\n        /* \"hopium/etf/main/etf-router.sol\":2854:2867  uint256 k = 0 */\n      swap1\n      pop\n        /* \"hopium/etf/main/etf-router.sol\":2883:2892  uint256 i */\n      0x00\n        /* \"hopium/etf/main/etf-router.sol\":2895:2896  0 */\n      0x00\n        /* \"hopium/etf/main/etf-router.sol\":2883:2896  uint256 i = 0 */\n      swap1\n      pop\n        /* \"hopium/etf/main/etf-router.sol\":2878:3635  for (uint256 i = 0; i < index.holdings.length; i++) {... */\n    tag_176:\n        /* \"hopium/etf/main/etf-router.sol\":2902:2907  index */\n      dup11\n        /* \"hopium/etf/main/etf-router.sol\":2902:2916  index.holdings */\n      0x40\n      add\n      mload\n        /* \"hopium/etf/main/etf-router.sol\":2902:2923  index.holdings.length */\n      mload\n        /* \"hopium/etf/main/etf-router.sol\":2898:2899  i */\n      dup2\n        /* \"hopium/etf/main/etf-router.sol\":2898:2923  i < index.holdings.length */\n      lt\n        /* \"hopium/etf/main/etf-router.sol\":2878:3635  for (uint256 i = 0; i < index.holdings.length; i++) {... */\n      iszero\n      tag_177\n      jumpi\n        /* \"hopium/etf/main/etf-router.sol\":2944:2964  address tokenAddress */\n      0x00\n        /* \"hopium/etf/main/etf-router.sol\":2967:2972  index */\n      dup12\n        /* \"hopium/etf/main/etf-router.sol\":2967:2981  index.holdings */\n      0x40\n      add\n      mload\n        /* \"hopium/etf/main/etf-router.sol\":2982:2983  i */\n      dup3\n        /* \"hopium/etf/main/etf-router.sol\":2967:2984  index.holdings[i] */\n      dup2\n      mload\n      dup2\n      lt\n      tag_179\n      jumpi\n      tag_180\n      tag_154\n      jump\t// in\n    tag_180:\n    tag_179:\n      0x20\n      mul\n      0x20\n      add\n      add\n      mload\n        /* \"hopium/etf/main/etf-router.sol\":2967:2997  index.holdings[i].tokenAddress */\n      0x00\n      add\n      mload\n        /* \"hopium/etf/main/etf-router.sol\":2944:2997  address tokenAddress = index.holdings[i].tokenAddress */\n      swap1\n      pop\n        /* \"hopium/etf/main/etf-router.sol\":3011:3022  uint256 bal */\n      0x00\n        /* \"hopium/etf/main/etf-router.sol\":3032:3044  tokenAddress */\n      dup2\n        /* \"hopium/etf/main/etf-router.sol\":3025:3055  IERC20(tokenAddress).balanceOf */\n      0xffffffffffffffffffffffffffffffffffffffff\n      and\n      0x70a08231\n        /* \"hopium/etf/main/etf-router.sol\":3056:3071  etfVaultAddress */\n      dup12\n        /* \"hopium/etf/main/etf-router.sol\":3025:3072  IERC20(tokenAddress).balanceOf(etfVaultAddress) */\n      mload(0x40)\n      dup3\n      0xffffffff\n      and\n      0xe0\n      shl\n      dup2\n      mstore\n      0x04\n      add\n      tag_181\n      swap2\n      swap1\n      tag_19\n      jump\t// in\n    tag_181:\n      0x20\n      mload(0x40)\n      dup1\n      dup4\n      sub\n      dup2\n      dup7\n      gas\n      staticcall\n      iszero\n      dup1\n      iszero\n      tag_183\n      jumpi\n      returndatacopy(0x00, 0x00, returndatasize)\n      revert(0x00, returndatasize)\n    tag_183:\n      pop\n      pop\n      pop\n      pop\n      mload(0x40)\n      returndatasize\n      not(0x1f)\n      0x1f\n      dup3\n      add\n      and\n      dup3\n      add\n      dup1\n      0x40\n      mstore\n      pop\n      dup2\n      add\n      swap1\n      tag_184\n      swap2\n      swap1\n      tag_61\n      jump\t// in\n    tag_184:\n        /* \"hopium/etf/main/etf-router.sol\":3011:3072  uint256 bal = IERC20(tokenAddress).balanceOf(etfVaultAddress) */\n      swap1\n      pop\n        /* \"hopium/etf/main/etf-router.sol\":3097:3098  0 */\n      0x00\n        /* \"hopium/etf/main/etf-router.sol\":3090:3093  bal */\n      dup2\n        /* \"hopium/etf/main/etf-router.sol\":3090:3098  bal == 0 */\n      sub\n        /* \"hopium/etf/main/etf-router.sol\":3086:3108  if (bal == 0) continue */\n      tag_185\n      jumpi\n        /* \"hopium/etf/main/etf-router.sol\":3100:3108  continue */\n      pop\n      pop\n      jump(tag_178)\n        /* \"hopium/etf/main/etf-router.sol\":3086:3108  if (bal == 0) continue */\n    tag_185:\n        /* \"hopium/etf/main/etf-router.sol\":3123:3145  uint256 withdrawAmount */\n      0x00\n        /* \"hopium/etf/main/etf-router.sol\":3174:3196  tokenTotalSupplyBefore */\n      dup12\n        /* \"hopium/etf/main/etf-router.sol\":3155:3170  sellTokenAmount */\n      dup14\n        /* \"hopium/etf/main/etf-router.sol\":3149:3152  bal */\n      dup4\n        /* \"hopium/etf/main/etf-router.sol\":3149:3170  bal * sellTokenAmount */\n      tag_186\n      swap2\n      swap1\n      tag_160\n      jump\t// in\n    tag_186:\n        /* \"hopium/etf/main/etf-router.sol\":3148:3196  (bal * sellTokenAmount) / tokenTotalSupplyBefore */\n      tag_187\n      swap2\n      swap1\n      tag_162\n      jump\t// in\n    tag_187:\n        /* \"hopium/etf/main/etf-router.sol\":3123:3196  uint256 withdrawAmount = (bal * sellTokenAmount) / tokenTotalSupplyBefore */\n      swap1\n      pop\n        /* \"hopium/etf/main/etf-router.sol\":3232:3233  0 */\n      0x00\n        /* \"hopium/etf/main/etf-router.sol\":3214:3228  withdrawAmount */\n      dup2\n        /* \"hopium/etf/main/etf-router.sol\":3214:3233  withdrawAmount == 0 */\n      sub\n        /* \"hopium/etf/main/etf-router.sol\":3210:3243  if (withdrawAmount == 0) continue */\n      tag_188\n      jumpi\n        /* \"hopium/etf/main/etf-router.sol\":3235:3243  continue */\n      pop\n      pop\n      pop\n      jump(tag_178)\n        /* \"hopium/etf/main/etf-router.sol\":3210:3243  if (withdrawAmount == 0) continue */\n    tag_188:\n        /* \"hopium/etf/main/etf-router.sol\":3317:3332  etfVaultAddress */\n      dup11\n        /* \"hopium/etf/main/etf-router.sol\":3307:3347  IEtfVault(etfVaultAddress).withdrawToken */\n      0xffffffffffffffffffffffffffffffffffffffff\n      and\n      0x3ccdbb28\n        /* \"hopium/etf/main/etf-router.sol\":3348:3360  tokenAddress */\n      dup5\n        /* \"hopium/etf/main/etf-router.sol\":3362:3376  withdrawAmount */\n      dup4\n        /* \"hopium/etf/main/etf-router.sol\":3386:3390  this */\n      address\n        /* \"hopium/etf/main/etf-router.sol\":3307:3392  IEtfVault(etfVaultAddress).withdrawToken(tokenAddress, withdrawAmount, address(this)) */\n      mload(0x40)\n      dup5\n      0xffffffff\n      and\n      0xe0\n      shl\n      dup2\n      mstore\n      0x04\n      add\n      tag_189\n      swap4\n      swap3\n      swap2\n      swap1\n      tag_190\n      jump\t// in\n    tag_189:\n      0x00\n      mload(0x40)\n      dup1\n      dup4\n      sub\n      dup2\n      0x00\n      dup8\n      dup1\n      extcodesize\n      iszero\n      dup1\n      iszero\n      tag_191\n      jumpi\n      revert(0x00, 0x00)\n    tag_191:\n      pop\n      gas\n      call\n      iszero\n      dup1\n      iszero\n      tag_193\n      jumpi\n      returndatacopy(0x00, 0x00, returndatasize)\n      revert(0x00, returndatasize)\n    tag_193:\n      pop\n      pop\n      pop\n      pop\n        /* \"hopium/etf/main/etf-router.sol\":3445:3525  _approveMaxIfNeeded(tokenAddress, address(getMultiSwapRouter()), withdrawAmount) */\n      tag_194\n        /* \"hopium/etf/main/etf-router.sol\":3465:3477  tokenAddress */\n      dup4\n        /* \"hopium/etf/main/etf-router.sol\":3487:3507  getMultiSwapRouter() */\n      tag_195\n        /* \"hopium/etf/main/etf-router.sol\":3487:3505  getMultiSwapRouter */\n      tag_196\n        /* \"hopium/etf/main/etf-router.sol\":3487:3507  getMultiSwapRouter() */\n      jump\t// in\n    tag_195:\n        /* \"hopium/etf/main/etf-router.sol\":3510:3524  withdrawAmount */\n      dup4\n        /* \"hopium/etf/main/etf-router.sol\":3445:3464  _approveMaxIfNeeded */\n      tag_197\n        /* \"hopium/etf/main/etf-router.sol\":3445:3525  _approveMaxIfNeeded(tokenAddress, address(getMultiSwapRouter()), withdrawAmount) */\n      jump\t// in\n    tag_194:\n        /* \"hopium/etf/main/etf-router.sol\":3554:3624  SwapOrderInput({ tokenAddress: tokenAddress, amount: withdrawAmount }) */\n      mload(0x40)\n      dup1\n      0x40\n      add\n      0x40\n      mstore\n      dup1\n        /* \"hopium/etf/main/etf-router.sol\":3585:3597  tokenAddress */\n      dup5\n        /* \"hopium/etf/main/etf-router.sol\":3554:3624  SwapOrderInput({ tokenAddress: tokenAddress, amount: withdrawAmount }) */\n      0xffffffffffffffffffffffffffffffffffffffff\n      and\n      dup2\n      mstore\n      0x20\n      add\n        /* \"hopium/etf/main/etf-router.sol\":3607:3621  withdrawAmount */\n      dup3\n        /* \"hopium/etf/main/etf-router.sol\":3554:3624  SwapOrderInput({ tokenAddress: tokenAddress, amount: withdrawAmount }) */\n      dup2\n      mstore\n      pop\n        /* \"hopium/etf/main/etf-router.sol\":3540:3546  inputs */\n      dup7\n        /* \"hopium/etf/main/etf-router.sol\":3547:3550  k++ */\n      dup7\n      dup1\n      tag_198\n      swap1\n      tag_165\n      jump\t// in\n    tag_198:\n      swap8\n      pop\n        /* \"hopium/etf/main/etf-router.sol\":3540:3551  inputs[k++] */\n      dup2\n      mload\n      dup2\n      lt\n      tag_199\n      jumpi\n      tag_200\n      tag_154\n      jump\t// in\n    tag_200:\n    tag_199:\n      0x20\n      mul\n      0x20\n      add\n      add\n        /* \"hopium/etf/main/etf-router.sol\":3540:3624  inputs[k++] = SwapOrderInput({ tokenAddress: tokenAddress, amount: withdrawAmount }) */\n      dup2\n      swap1\n      mstore\n      pop\n        /* \"hopium/etf/main/etf-router.sol\":2930:3635  {... */\n      pop\n      pop\n      pop\n        /* \"hopium/etf/main/etf-router.sol\":2878:3635  for (uint256 i = 0; i < index.holdings.length; i++) {... */\n    tag_178:\n        /* \"hopium/etf/main/etf-router.sol\":2925:2928  i++ */\n      dup1\n      dup1\n      0x01\n      add\n      swap2\n      pop\n      pop\n        /* \"hopium/etf/main/etf-router.sol\":2878:3635  for (uint256 i = 0; i < index.holdings.length; i++) {... */\n      jump(tag_176)\n    tag_177:\n      pop\n        /* \"hopium/etf/main/etf-router.sol\":3645:3677  SwapOrderOutput[] memory outputs */\n      0x00\n        /* \"hopium/etf/main/etf-router.sol\":3702:3703  1 */\n      0x01\n        /* \"hopium/etf/main/etf-router.sol\":3680:3704  new SwapOrderOutput[](1) */\n      0xffffffffffffffff\n      dup2\n      gt\n      iszero\n      tag_201\n      jumpi\n      tag_202\n      tag_171\n      jump\t// in\n    tag_202:\n    tag_201:\n      mload(0x40)\n      swap1\n      dup1\n      dup3\n      mstore\n      dup1\n      0x20\n      mul\n      0x20\n      add\n      dup3\n      add\n      0x40\n      mstore\n      dup1\n      iszero\n      tag_203\n      jumpi\n      dup2\n      0x20\n      add\n    tag_204:\n      tag_205\n      tag_206\n      jump\t// in\n    tag_205:\n      dup2\n      mstore\n      0x20\n      add\n      swap1\n      0x01\n      swap1\n      sub\n      swap1\n      dup2\n      tag_204\n      jumpi\n      swap1\n      pop\n    tag_203:\n      pop\n        /* \"hopium/etf/main/etf-router.sol\":3645:3704  SwapOrderOutput[] memory outputs = new SwapOrderOutput[](1) */\n      swap1\n      pop\n        /* \"hopium/etf/main/etf-router.sol\":3727:3814  SwapOrderOutput({ tokenAddress: address(0), weightBips: uint16(HUNDRED_PERCENT_BIPS) }) */\n      mload(0x40)\n      dup1\n      0x40\n      add\n      0x40\n      mstore\n      dup1\n        /* \"hopium/etf/main/etf-router.sol\":3767:3768  0 */\n      0x00\n        /* \"hopium/etf/main/etf-router.sol\":3727:3814  SwapOrderOutput({ tokenAddress: address(0), weightBips: uint16(HUNDRED_PERCENT_BIPS) }) */\n      0xffffffffffffffffffffffffffffffffffffffff\n      and\n      dup2\n      mstore\n      0x20\n      add\n        /* \"hopium/common/storage/bips.sol\":97:103  10_000 */\n      0x2710\n        /* \"hopium/etf/main/etf-router.sol\":3727:3814  SwapOrderOutput({ tokenAddress: address(0), weightBips: uint16(HUNDRED_PERCENT_BIPS) }) */\n      0xffff\n      and\n      dup2\n      mstore\n      pop\n        /* \"hopium/etf/main/etf-router.sol\":3714:3721  outputs */\n      dup2\n        /* \"hopium/etf/main/etf-router.sol\":3722:3723  0 */\n      0x00\n        /* \"hopium/etf/main/etf-router.sol\":3714:3724  outputs[0] */\n      dup2\n      mload\n      dup2\n      lt\n      tag_207\n      jumpi\n      tag_208\n      tag_154\n      jump\t// in\n    tag_208:\n    tag_207:\n      0x20\n      mul\n      0x20\n      add\n      add\n        /* \"hopium/etf/main/etf-router.sol\":3714:3814  outputs[0] = SwapOrderOutput({ tokenAddress: address(0), weightBips: uint16(HUNDRED_PERCENT_BIPS) }) */\n      dup2\n      swap1\n      mstore\n      pop\n        /* \"hopium/etf/main/etf-router.sol\":3825:3845  getMultiSwapRouter() */\n      tag_209\n        /* \"hopium/etf/main/etf-router.sol\":3825:3843  getMultiSwapRouter */\n      tag_196\n        /* \"hopium/etf/main/etf-router.sol\":3825:3845  getMultiSwapRouter() */\n      jump\t// in\n    tag_209:\n        /* \"hopium/etf/main/etf-router.sol\":3825:3850  getMultiSwapRouter().swap */\n      0xffffffffffffffffffffffffffffffffffffffff\n      and\n      0x192b5887\n        /* \"hopium/etf/main/etf-router.sol\":3851:3857  inputs */\n      dup5\n        /* \"hopium/etf/main/etf-router.sol\":3859:3866  outputs */\n      dup4\n        /* \"hopium/etf/main/etf-router.sol\":3868:3876  receiver */\n      dup11\n        /* \"hopium/etf/main/etf-router.sol\":3878:3890  slippageBips */\n      dup11\n        /* \"hopium/etf/main/etf-router.sol\":3892:3905  deadlineInSec */\n      dup11\n        /* \"hopium/etf/main/etf-router.sol\":3907:3922  _zeroSwapFees() */\n      tag_210\n        /* \"hopium/etf/main/etf-router.sol\":3907:3920  _zeroSwapFees */\n      tag_211\n        /* \"hopium/etf/main/etf-router.sol\":3907:3922  _zeroSwapFees() */\n      jump\t// in\n    tag_210:\n        /* \"hopium/etf/main/etf-router.sol\":3825:3923  getMultiSwapRouter().swap(inputs, outputs, receiver, slippageBips, deadlineInSec, _zeroSwapFees()) */\n      mload(0x40)\n      dup8\n      0xffffffff\n      and\n      0xe0\n      shl\n      dup2\n      mstore\n      0x04\n      add\n      tag_212\n      swap7\n      swap6\n      swap5\n      swap4\n      swap3\n      swap2\n      swap1\n      tag_213\n      jump\t// in\n    tag_212:\n      0x00\n      mload(0x40)\n      dup1\n      dup4\n      sub\n      dup2\n      0x00\n      dup8\n      dup1\n      extcodesize\n      iszero\n      dup1\n      iszero\n      tag_214\n      jumpi\n      revert(0x00, 0x00)\n    tag_214:\n      pop\n      gas\n      call\n      iszero\n      dup1\n      iszero\n      tag_216\n      jumpi\n      returndatacopy(0x00, 0x00, returndatasize)\n      revert(0x00, returndatasize)\n    tag_216:\n      pop\n      pop\n      pop\n      pop\n        /* \"hopium/etf/main/etf-router.sol\":2218:3930  {... */\n      pop\n      pop\n      pop\n      pop\n        /* \"hopium/etf/main/etf-router.sol\":2018:3930  function _executeSellSwap(Index memory index, uint256 sellTokenAmount, uint256 tokenTotalSupplyBefore, address etfVaultAddress, address receiver, uint256 slippageBips, uint256 deadlineInSec) internal {... */\n      pop\n      pop\n      pop\n      pop\n      pop\n      pop\n      pop\n      jump\t// out\n        /* \"@openzeppelin/contracts/security/ReentrancyGuard.sol\":2629:2838  function _nonReentrantAfter() private {... */\n    tag_80:\n        /* \"@openzeppelin/contracts/security/ReentrancyGuard.sol\":1716:1717  1 */\n      0x01\n        /* \"@openzeppelin/contracts/security/ReentrancyGuard.sol\":2809:2816  _status */\n      dup1\n        /* \"@openzeppelin/contracts/security/ReentrancyGuard.sol\":2809:2831  _status = _NOT_ENTERED */\n      dup2\n      swap1\n      sstore\n      pop\n        /* \"@openzeppelin/contracts/security/ReentrancyGuard.sol\":2629:2838  function _nonReentrantAfter() private {... */\n      jump\t// out\n        /* \"hopium/etf/main/etf-router.sol\":1234:2012  function _executeBuySwap(Index memory index, uint256 wethAmount, address etfVaultAddress, uint256 slippageBips, uint256 deadlineInSec) internal {... */\n    tag_104:\n        /* \"hopium/etf/main/etf-router.sol\":1388:1418  SwapOrderInput[] memory inputs */\n      0x00\n        /* \"hopium/etf/main/etf-router.sol\":1442:1443  1 */\n      0x01\n        /* \"hopium/etf/main/etf-router.sol\":1421:1444  new SwapOrderInput[](1) */\n      0xffffffffffffffff\n      dup2\n      gt\n      iszero\n      tag_219\n      jumpi\n      tag_220\n      tag_171\n      jump\t// in\n    tag_220:\n    tag_219:\n      mload(0x40)\n      swap1\n      dup1\n      dup3\n      mstore\n      dup1\n      0x20\n      mul\n      0x20\n      add\n      dup3\n      add\n      0x40\n      mstore\n      dup1\n      iszero\n      tag_221\n      jumpi\n      dup2\n      0x20\n      add\n    tag_222:\n      tag_223\n      tag_175\n      jump\t// in\n    tag_223:\n      dup2\n      mstore\n      0x20\n      add\n      swap1\n      0x01\n      swap1\n      sub\n      swap1\n      dup2\n      tag_222\n      jumpi\n      swap1\n      pop\n    tag_221:\n      pop\n        /* \"hopium/etf/main/etf-router.sol\":1388:1444  SwapOrderInput[] memory inputs = new SwapOrderInput[](1) */\n      swap1\n      pop\n        /* \"hopium/etf/main/etf-router.sol\":1466:1530  SwapOrderInput({ tokenAddress: address(0), amount: wethAmount }) */\n      mload(0x40)\n      dup1\n      0x40\n      add\n      0x40\n      mstore\n      dup1\n        /* \"hopium/etf/main/etf-router.sol\":1505:1506  0 */\n      0x00\n        /* \"hopium/etf/main/etf-router.sol\":1466:1530  SwapOrderInput({ tokenAddress: address(0), amount: wethAmount }) */\n      0xffffffffffffffffffffffffffffffffffffffff\n      and\n      dup2\n      mstore\n      0x20\n      add\n        /* \"hopium/etf/main/etf-router.sol\":1517:1527  wethAmount */\n      dup7\n        /* \"hopium/etf/main/etf-router.sol\":1466:1530  SwapOrderInput({ tokenAddress: address(0), amount: wethAmount }) */\n      dup2\n      mstore\n      pop\n        /* \"hopium/etf/main/etf-router.sol\":1454:1460  inputs */\n      dup2\n        /* \"hopium/etf/main/etf-router.sol\":1461:1462  0 */\n      0x00\n        /* \"hopium/etf/main/etf-router.sol\":1454:1463  inputs[0] */\n      dup2\n      mload\n      dup2\n      lt\n      tag_224\n      jumpi\n      tag_225\n      tag_154\n      jump\t// in\n    tag_225:\n    tag_224:\n      0x20\n      mul\n      0x20\n      add\n      add\n        /* \"hopium/etf/main/etf-router.sol\":1454:1530  inputs[0] = SwapOrderInput({ tokenAddress: address(0), amount: wethAmount }) */\n      dup2\n      swap1\n      mstore\n      pop\n        /* \"hopium/etf/main/etf-router.sol\":1541:1573  SwapOrderOutput[] memory outputs */\n      0x00\n        /* \"hopium/etf/main/etf-router.sol\":1598:1603  index */\n      dup7\n        /* \"hopium/etf/main/etf-router.sol\":1598:1612  index.holdings */\n      0x40\n      add\n      mload\n        /* \"hopium/etf/main/etf-router.sol\":1598:1619  index.holdings.length */\n      mload\n        /* \"hopium/etf/main/etf-router.sol\":1576:1620  new SwapOrderOutput[](index.holdings.length) */\n      0xffffffffffffffff\n      dup2\n      gt\n      iszero\n      tag_226\n      jumpi\n      tag_227\n      tag_171\n      jump\t// in\n    tag_227:\n    tag_226:\n      mload(0x40)\n      swap1\n      dup1\n      dup3\n      mstore\n      dup1\n      0x20\n      mul\n      0x20\n      add\n      dup3\n      add\n      0x40\n      mstore\n      dup1\n      iszero\n      tag_228\n      jumpi\n      dup2\n      0x20\n      add\n    tag_229:\n      tag_230\n      tag_206\n      jump\t// in\n    tag_230:\n      dup2\n      mstore\n      0x20\n      add\n      swap1\n      0x01\n      swap1\n      sub\n      swap1\n      dup2\n      tag_229\n      jumpi\n      swap1\n      pop\n    tag_228:\n      pop\n        /* \"hopium/etf/main/etf-router.sol\":1541:1620  SwapOrderOutput[] memory outputs = new SwapOrderOutput[](index.holdings.length) */\n      swap1\n      pop\n        /* \"hopium/etf/main/etf-router.sol\":1635:1644  uint256 i */\n      0x00\n        /* \"hopium/etf/main/etf-router.sol\":1647:1648  0 */\n      0x00\n        /* \"hopium/etf/main/etf-router.sol\":1635:1648  uint256 i = 0 */\n      swap1\n      pop\n        /* \"hopium/etf/main/etf-router.sol\":1630:1871  for (uint256 i = 0; i < index.holdings.length; i++) {... */\n    tag_231:\n        /* \"hopium/etf/main/etf-router.sol\":1654:1659  index */\n      dup8\n        /* \"hopium/etf/main/etf-router.sol\":1654:1668  index.holdings */\n      0x40\n      add\n      mload\n        /* \"hopium/etf/main/etf-router.sol\":1654:1675  index.holdings.length */\n      mload\n        /* \"hopium/etf/main/etf-router.sol\":1650:1651  i */\n      dup2\n        /* \"hopium/etf/main/etf-router.sol\":1650:1675  i < index.holdings.length */\n      lt\n        /* \"hopium/etf/main/etf-router.sol\":1630:1871  for (uint256 i = 0; i < index.holdings.length; i++) {... */\n      iszero\n      tag_232\n      jumpi\n        /* \"hopium/etf/main/etf-router.sol\":1709:1860  SwapOrderOutput({... */\n      mload(0x40)\n      dup1\n      0x40\n      add\n      0x40\n      mstore\n      dup1\n        /* \"hopium/etf/main/etf-router.sol\":1757:1762  index */\n      dup10\n        /* \"hopium/etf/main/etf-router.sol\":1757:1771  index.holdings */\n      0x40\n      add\n      mload\n        /* \"hopium/etf/main/etf-router.sol\":1772:1773  i */\n      dup4\n        /* \"hopium/etf/main/etf-router.sol\":1757:1774  index.holdings[i] */\n      dup2\n      mload\n      dup2\n      lt\n      tag_234\n      jumpi\n      tag_235\n      tag_154\n      jump\t// in\n    tag_235:\n    tag_234:\n      0x20\n      mul\n      0x20\n      add\n      add\n      mload\n        /* \"hopium/etf/main/etf-router.sol\":1757:1787  index.holdings[i].tokenAddress */\n      0x00\n      add\n      mload\n        /* \"hopium/etf/main/etf-router.sol\":1709:1860  SwapOrderOutput({... */\n      0xffffffffffffffffffffffffffffffffffffffff\n      and\n      dup2\n      mstore\n      0x20\n      add\n        /* \"hopium/etf/main/etf-router.sol\":1817:1822  index */\n      dup10\n        /* \"hopium/etf/main/etf-router.sol\":1817:1831  index.holdings */\n      0x40\n      add\n      mload\n        /* \"hopium/etf/main/etf-router.sol\":1832:1833  i */\n      dup4\n        /* \"hopium/etf/main/etf-router.sol\":1817:1834  index.holdings[i] */\n      dup2\n      mload\n      dup2\n      lt\n      tag_236\n      jumpi\n      tag_237\n      tag_154\n      jump\t// in\n    tag_237:\n    tag_236:\n      0x20\n      mul\n      0x20\n      add\n      add\n      mload\n        /* \"hopium/etf/main/etf-router.sol\":1817:1845  index.holdings[i].weightBips */\n      0x20\n      add\n      mload\n        /* \"hopium/etf/main/etf-router.sol\":1709:1860  SwapOrderOutput({... */\n      0xffff\n      and\n      dup2\n      mstore\n      pop\n        /* \"hopium/etf/main/etf-router.sol\":1696:1703  outputs */\n      dup3\n        /* \"hopium/etf/main/etf-router.sol\":1704:1705  i */\n      dup3\n        /* \"hopium/etf/main/etf-router.sol\":1696:1706  outputs[i] */\n      dup2\n      mload\n      dup2\n      lt\n      tag_238\n      jumpi\n      tag_239\n      tag_154\n      jump\t// in\n    tag_239:\n    tag_238:\n      0x20\n      mul\n      0x20\n      add\n      add\n        /* \"hopium/etf/main/etf-router.sol\":1696:1860  outputs[i] = SwapOrderOutput({... */\n      dup2\n      swap1\n      mstore\n      pop\n        /* \"hopium/etf/main/etf-router.sol\":1677:1680  i++ */\n      dup1\n      dup1\n      0x01\n      add\n      swap2\n      pop\n      pop\n        /* \"hopium/etf/main/etf-router.sol\":1630:1871  for (uint256 i = 0; i < index.holdings.length; i++) {... */\n      jump(tag_231)\n    tag_232:\n      pop\n        /* \"hopium/etf/main/etf-router.sol\":1881:1901  getMultiSwapRouter() */\n      tag_240\n        /* \"hopium/etf/main/etf-router.sol\":1881:1899  getMultiSwapRouter */\n      tag_196\n        /* \"hopium/etf/main/etf-router.sol\":1881:1901  getMultiSwapRouter() */\n      jump\t// in\n    tag_240:\n        /* \"hopium/etf/main/etf-router.sol\":1881:1906  getMultiSwapRouter().swap */\n      0xffffffffffffffffffffffffffffffffffffffff\n      and\n      0x192b5887\n        /* \"hopium/etf/main/etf-router.sol\":1914:1924  wethAmount */\n      dup8\n        /* \"hopium/etf/main/etf-router.sol\":1926:1932  inputs */\n      dup5\n        /* \"hopium/etf/main/etf-router.sol\":1934:1941  outputs */\n      dup5\n        /* \"hopium/etf/main/etf-router.sol\":1943:1958  etfVaultAddress */\n      dup10\n        /* \"hopium/etf/main/etf-router.sol\":1960:1972  slippageBips */\n      dup10\n        /* \"hopium/etf/main/etf-router.sol\":1974:1987  deadlineInSec */\n      dup10\n        /* \"hopium/etf/main/etf-router.sol\":1989:2004  _zeroSwapFees() */\n      tag_241\n        /* \"hopium/etf/main/etf-router.sol\":1989:2002  _zeroSwapFees */\n      tag_211\n        /* \"hopium/etf/main/etf-router.sol\":1989:2004  _zeroSwapFees() */\n      jump\t// in\n    tag_241:\n        /* \"hopium/etf/main/etf-router.sol\":1881:2005  getMultiSwapRouter().swap{value: wethAmount}(inputs, outputs, etfVaultAddress, slippageBips, deadlineInSec, _zeroSwapFees()) */\n      mload(0x40)\n      dup9\n      0xffffffff\n      and\n      0xe0\n      shl\n      dup2\n      mstore\n      0x04\n      add\n      tag_242\n      swap7\n      swap6\n      swap5\n      swap4\n      swap3\n      swap2\n      swap1\n      tag_213\n      jump\t// in\n    tag_242:\n      0x00\n      mload(0x40)\n      dup1\n      dup4\n      sub\n      dup2\n      dup6\n      dup9\n      dup1\n      extcodesize\n      iszero\n      dup1\n      iszero\n      tag_243\n      jumpi\n      revert(0x00, 0x00)\n    tag_243:\n      pop\n      gas\n      call\n      iszero\n      dup1\n      iszero\n      tag_245\n      jumpi\n      returndatacopy(0x00, 0x00, returndatasize)\n      revert(0x00, returndatasize)\n    tag_245:\n      pop\n      pop\n      pop\n      pop\n      pop\n        /* \"hopium/etf/main/etf-router.sol\":1378:2012  {... */\n      pop\n      pop\n        /* \"hopium/etf/main/etf-router.sol\":1234:2012  function _executeBuySwap(Index memory index, uint256 wethAmount, address etfVaultAddress, uint256 slippageBips, uint256 deadlineInSec) internal {... */\n      pop\n      pop\n      pop\n      pop\n      pop\n      jump\t// out\n        /* \"hopium/etf/main/etf-router.sol\":3936:4878  function _mintEtfTokens(uint256 indexId, uint256 wethAmount, address etfTokenAddress, address receiver) internal returns (uint256) {... */\n    tag_106:\n        /* \"hopium/etf/main/etf-router.sol\":4058:4065  uint256 */\n      0x00\n        /* \"hopium/etf/main/etf-router.sol\":4078:4100  uint256 etfTokenSupply */\n      0x00\n        /* \"hopium/etf/main/etf-router.sol\":4110:4125  etfTokenAddress */\n      dup4\n        /* \"hopium/etf/main/etf-router.sol\":4103:4138  IERC20(etfTokenAddress).totalSupply */\n      0xffffffffffffffffffffffffffffffffffffffff\n      and\n      0x18160ddd\n        /* \"hopium/etf/main/etf-router.sol\":4103:4140  IERC20(etfTokenAddress).totalSupply() */\n      mload(0x40)\n      dup2\n      0xffffffff\n      and\n      0xe0\n      shl\n      dup2\n      mstore\n      0x04\n      add\n      0x20\n      mload(0x40)\n      dup1\n      dup4\n      sub\n      dup2\n      dup7\n      gas\n      staticcall\n      iszero\n      dup1\n      iszero\n      tag_248\n      jumpi\n      returndatacopy(0x00, 0x00, returndatasize)\n      revert(0x00, returndatasize)\n    tag_248:\n      pop\n      pop\n      pop\n      pop\n      mload(0x40)\n      returndatasize\n      not(0x1f)\n      0x1f\n      dup3\n      add\n      and\n      dup3\n      add\n      dup1\n      0x40\n      mstore\n      pop\n      dup2\n      add\n      swap1\n      tag_249\n      swap2\n      swap1\n      tag_61\n      jump\t// in\n    tag_249:\n        /* \"hopium/etf/main/etf-router.sol\":4078:4140  uint256 etfTokenSupply = IERC20(etfTokenAddress).totalSupply() */\n      swap1\n      pop\n        /* \"hopium/etf/main/etf-router.sol\":4150:4171  uint256 navWethBefore */\n      0x00\n        /* \"hopium/etf/main/etf-router.sol\":4174:4189  getEtfFactory() */\n      tag_250\n        /* \"hopium/etf/main/etf-router.sol\":4174:4187  getEtfFactory */\n      tag_132\n        /* \"hopium/etf/main/etf-router.sol\":4174:4189  getEtfFactory() */\n      jump\t// in\n    tag_250:\n        /* \"hopium/etf/main/etf-router.sol\":4174:4203  getEtfFactory().getEtfNavWeth */\n      0xffffffffffffffffffffffffffffffffffffffff\n      and\n      0xe4b603b3\n        /* \"hopium/etf/main/etf-router.sol\":4204:4211  indexId */\n      dup9\n        /* \"hopium/etf/main/etf-router.sol\":4174:4212  getEtfFactory().getEtfNavWeth(indexId) */\n      mload(0x40)\n      dup3\n      0xffffffff\n      and\n      0xe0\n      shl\n      dup2\n      mstore\n      0x04\n      add\n      tag_251\n      swap2\n      swap1\n      tag_51\n      jump\t// in\n    tag_251:\n      0x20\n      mload(0x40)\n      dup1\n      dup4\n      sub\n      dup2\n      dup7\n      gas\n      staticcall\n      iszero\n      dup1\n      iszero\n      tag_253\n      jumpi\n      returndatacopy(0x00, 0x00, returndatasize)\n      revert(0x00, returndatasize)\n    tag_253:\n      pop\n      pop\n      pop\n      pop\n      mload(0x40)\n      returndatasize\n      not(0x1f)\n      0x1f\n      dup3\n      add\n      and\n      dup3\n      add\n      dup1\n      0x40\n      mstore\n      pop\n      dup2\n      add\n      swap1\n      tag_254\n      swap2\n      swap1\n      tag_61\n      jump\t// in\n    tag_254:\n        /* \"hopium/etf/main/etf-router.sol\":4150:4212  uint256 navWethBefore = getEtfFactory().getEtfNavWeth(indexId) */\n      swap1\n      pop\n        /* \"hopium/etf/main/etf-router.sol\":4223:4241  uint256 mintAmount */\n      0x00\n        /* \"hopium/etf/main/etf-router.sol\":4311:4312  0 */\n      0x00\n        /* \"hopium/etf/main/etf-router.sol\":4293:4307  etfTokenSupply */\n      dup4\n        /* \"hopium/etf/main/etf-router.sol\":4293:4312  etfTokenSupply == 0 */\n      sub\n        /* \"hopium/etf/main/etf-router.sol\":4289:4780  if (etfTokenSupply == 0) {... */\n      tag_255\n      jumpi\n        /* \"hopium/etf/main/etf-router.sol\":4368:4377  uint256 p */\n      0x00\n        /* \"hopium/etf/main/etf-router.sol\":4380:4401  getIndexPriceOracle() */\n      tag_256\n        /* \"hopium/etf/main/etf-router.sol\":4380:4399  getIndexPriceOracle */\n      tag_257\n        /* \"hopium/etf/main/etf-router.sol\":4380:4401  getIndexPriceOracle() */\n      jump\t// in\n    tag_256:\n        /* \"hopium/etf/main/etf-router.sol\":4380:4419  getIndexPriceOracle().getIndexWethPrice */\n      0xffffffffffffffffffffffffffffffffffffffff\n      and\n      0xc9d54fa7\n        /* \"hopium/etf/main/etf-router.sol\":4420:4427  indexId */\n      dup11\n        /* \"hopium/etf/main/etf-router.sol\":4380:4428  getIndexPriceOracle().getIndexWethPrice(indexId) */\n      mload(0x40)\n      dup3\n      0xffffffff\n      and\n      0xe0\n      shl\n      dup2\n      mstore\n      0x04\n      add\n      tag_258\n      swap2\n      swap1\n      tag_51\n      jump\t// in\n    tag_258:\n      0x20\n      mload(0x40)\n      dup1\n      dup4\n      sub\n      dup2\n      dup7\n      gas\n      staticcall\n      iszero\n      dup1\n      iszero\n      tag_260\n      jumpi\n      returndatacopy(0x00, 0x00, returndatasize)\n      revert(0x00, returndatasize)\n    tag_260:\n      pop\n      pop\n      pop\n      pop\n      mload(0x40)\n      returndatasize\n      not(0x1f)\n      0x1f\n      dup3\n      add\n      and\n      dup3\n      add\n      dup1\n      0x40\n      mstore\n      pop\n      dup2\n      add\n      swap1\n      tag_261\n      swap2\n      swap1\n      tag_61\n      jump\t// in\n    tag_261:\n        /* \"hopium/etf/main/etf-router.sol\":4368:4428  uint256 p = getIndexPriceOracle().getIndexWethPrice(indexId) */\n      swap1\n      pop\n        /* \"hopium/etf/main/etf-router.sol\":4477:4478  0 */\n      0x00\n        /* \"hopium/etf/main/etf-router.sol\":4473:4474  p */\n      dup2\n        /* \"hopium/etf/main/etf-router.sol\":4473:4478  p > 0 */\n      gt\n        /* \"hopium/etf/main/etf-router.sol\":4465:4513  require(p > 0, \"EtfRouter: index price is zero\") */\n      tag_262\n      jumpi\n      mload(0x40)\n      0x08c379a000000000000000000000000000000000000000000000000000000000\n      dup2\n      mstore\n      0x04\n      add\n      tag_263\n      swap1\n      tag_264\n      jump\t// in\n    tag_263:\n      mload(0x40)\n      dup1\n      swap2\n      sub\n      swap1\n      revert\n    tag_262:\n        /* \"hopium/etf/main/etf-router.sol\":4562:4563  p */\n      dup1\n        /* \"hopium/etf/main/etf-router.sol\":4554:4558  1e18 */\n      0x0de0b6b3a7640000\n        /* \"hopium/etf/main/etf-router.sol\":4541:4551  wethAmount */\n      dup10\n        /* \"hopium/etf/main/etf-router.sol\":4541:4558  wethAmount * 1e18 */\n      tag_265\n      swap2\n      swap1\n      tag_160\n      jump\t// in\n    tag_265:\n        /* \"hopium/etf/main/etf-router.sol\":4540:4563  (wethAmount * 1e18) / p */\n      tag_266\n      swap2\n      swap1\n      tag_162\n      jump\t// in\n    tag_266:\n        /* \"hopium/etf/main/etf-router.sol\":4527:4563  mintAmount = (wethAmount * 1e18) / p */\n      swap2\n      pop\n        /* \"hopium/etf/main/etf-router.sol\":4314:4574  {... */\n      pop\n        /* \"hopium/etf/main/etf-router.sol\":4289:4780  if (etfTokenSupply == 0) {... */\n      jump(tag_267)\n    tag_255:\n        /* \"hopium/etf/main/etf-router.sol\":4669:4670  0 */\n      0x00\n        /* \"hopium/etf/main/etf-router.sol\":4653:4666  navWethBefore */\n      dup3\n        /* \"hopium/etf/main/etf-router.sol\":4653:4670  navWethBefore > 0 */\n      gt\n        /* \"hopium/etf/main/etf-router.sol\":4645:4697  require(navWethBefore > 0, \"EtfRouter: NAV is zero\") */\n      tag_268\n      jumpi\n      mload(0x40)\n      0x08c379a000000000000000000000000000000000000000000000000000000000\n      dup2\n      mstore\n      0x04\n      add\n      tag_269\n      swap1\n      tag_270\n      jump\t// in\n    tag_269:\n      mload(0x40)\n      dup1\n      swap2\n      sub\n      swap1\n      revert\n    tag_268:\n        /* \"hopium/etf/main/etf-router.sol\":4756:4769  navWethBefore */\n      dup2\n        /* \"hopium/etf/main/etf-router.sol\":4738:4752  etfTokenSupply */\n      dup4\n        /* \"hopium/etf/main/etf-router.sol\":4725:4735  wethAmount */\n      dup9\n        /* \"hopium/etf/main/etf-router.sol\":4725:4752  wethAmount * etfTokenSupply */\n      tag_271\n      swap2\n      swap1\n      tag_160\n      jump\t// in\n    tag_271:\n        /* \"hopium/etf/main/etf-router.sol\":4724:4769  (wethAmount * etfTokenSupply) / navWethBefore */\n      tag_272\n      swap2\n      swap1\n      tag_162\n      jump\t// in\n    tag_272:\n        /* \"hopium/etf/main/etf-router.sol\":4711:4769  mintAmount = (wethAmount * etfTokenSupply) / navWethBefore */\n      swap1\n      pop\n        /* \"hopium/etf/main/etf-router.sol\":4289:4780  if (etfTokenSupply == 0) {... */\n    tag_267:\n        /* \"hopium/etf/main/etf-router.sol\":4800:4815  etfTokenAddress */\n      dup6\n        /* \"hopium/etf/main/etf-router.sol\":4790:4821  IEtfToken(etfTokenAddress).mint */\n      0xffffffffffffffffffffffffffffffffffffffff\n      and\n      0x40c10f19\n        /* \"hopium/etf/main/etf-router.sol\":4822:4830  receiver */\n      dup7\n        /* \"hopium/etf/main/etf-router.sol\":4832:4842  mintAmount */\n      dup4\n        /* \"hopium/etf/main/etf-router.sol\":4790:4843  IEtfToken(etfTokenAddress).mint(receiver, mintAmount) */\n      mload(0x40)\n      dup4\n      0xffffffff\n      and\n      0xe0\n      shl\n      dup2\n      mstore\n      0x04\n      add\n      tag_273\n      swap3\n      swap2\n      swap1\n      tag_69\n      jump\t// in\n    tag_273:\n      0x00\n      mload(0x40)\n      dup1\n      dup4\n      sub\n      dup2\n      0x00\n      dup8\n      dup1\n      extcodesize\n      iszero\n      dup1\n      iszero\n      tag_274\n      jumpi\n      revert(0x00, 0x00)\n    tag_274:\n      pop\n      gas\n      call\n      iszero\n      dup1\n      iszero\n      tag_276\n      jumpi\n      returndatacopy(0x00, 0x00, returndatasize)\n      revert(0x00, returndatasize)\n    tag_276:\n      pop\n      pop\n      pop\n      pop\n        /* \"hopium/etf/main/etf-router.sol\":4861:4871  mintAmount */\n      dup1\n        /* \"hopium/etf/main/etf-router.sol\":4854:4871  return mintAmount */\n      swap4\n      pop\n      pop\n      pop\n      pop\n        /* \"hopium/etf/main/etf-router.sol\":3936:4878  function _mintEtfTokens(uint256 indexId, uint256 wethAmount, address etfTokenAddress, address receiver) internal returns (uint256) {... */\n      swap5\n      swap4\n      pop\n      pop\n      pop\n      pop\n      jump\t// out\n        /* \"hopium/common/interface/imDirectory.sol\":589:1050  function _setDirectory(address _directory) internal {... */\n    tag_123:\n        /* \"hopium/common/interface/imDirectory.sol\":681:682  0 */\n      0x00\n        /* \"hopium/common/interface/imDirectory.sol\":659:683  _directory != address(0) */\n      0xffffffffffffffffffffffffffffffffffffffff\n      and\n        /* \"hopium/common/interface/imDirectory.sol\":659:669  _directory */\n      dup2\n        /* \"hopium/common/interface/imDirectory.sol\":659:683  _directory != address(0) */\n      0xffffffffffffffffffffffffffffffffffffffff\n      and\n      sub\n        /* \"hopium/common/interface/imDirectory.sol\":651:720  require(_directory != address(0), \"Directory cannot be zero address\") */\n      tag_278\n      jumpi\n      mload(0x40)\n      0x08c379a000000000000000000000000000000000000000000000000000000000\n      dup2\n      mstore\n      0x04\n      add\n      tag_279\n      swap1\n      tag_280\n      jump\t// in\n    tag_279:\n      mload(0x40)\n      dup1\n      swap2\n      sub\n      swap1\n      revert\n    tag_278:\n        /* \"hopium/common/interface/imDirectory.sol\":763:764  0 */\n      0x00\n        /* \"hopium/common/interface/imDirectory.sol\":738:748  _directory */\n      dup2\n        /* \"hopium/common/interface/imDirectory.sol\":738:760  _directory.code.length */\n      0xffffffffffffffffffffffffffffffffffffffff\n      and\n      extcodesize\n        /* \"hopium/common/interface/imDirectory.sol\":738:764  _directory.code.length > 0 */\n      gt\n        /* \"hopium/common/interface/imDirectory.sol\":730:797  require(_directory.code.length > 0, \"Directory must be a contract\") */\n      tag_281\n      jumpi\n      mload(0x40)\n      0x08c379a000000000000000000000000000000000000000000000000000000000\n      dup2\n      mstore\n      0x04\n      add\n      tag_282\n      swap1\n      tag_283\n      jump\t// in\n    tag_282:\n      mload(0x40)\n      dup1\n      swap2\n      sub\n      swap1\n      revert\n    tag_281:\n        /* \"hopium/common/interface/imDirectory.sol\":861:871  _directory */\n      dup1\n        /* \"hopium/common/interface/imDirectory.sol\":850:878  IDirectory(_directory).owner */\n      0xffffffffffffffffffffffffffffffffffffffff\n      and\n      0x8da5cb5b\n        /* \"hopium/common/interface/imDirectory.sol\":850:880  IDirectory(_directory).owner() */\n      mload(0x40)\n      dup2\n      0xffffffff\n      and\n      0xe0\n      shl\n      dup2\n      mstore\n      0x04\n      add\n      0x20\n      mload(0x40)\n      dup1\n      dup4\n      sub\n      dup2\n      dup7\n      gas\n      staticcall\n      swap3\n      pop\n      pop\n      pop\n      dup1\n      iszero\n      tag_284\n      jumpi\n      pop\n      mload(0x40)\n      returndatasize\n      not(0x1f)\n      0x1f\n      dup3\n      add\n      and\n      dup3\n      add\n      dup1\n      0x40\n      mstore\n      pop\n      dup2\n      add\n      swap1\n      tag_285\n      swap2\n      swap1\n      tag_87\n      jump\t// in\n    tag_285:\n      0x01\n    tag_284:\n        /* \"hopium/common/interface/imDirectory.sol\":846:1044  try IDirectory(_directory).owner() returns (address) {... */\n      tag_286\n      jumpi\n        /* \"hopium/common/interface/imDirectory.sol\":979:1033  revert(\"Directory address does not implement owner()\") */\n      mload(0x40)\n      0x08c379a000000000000000000000000000000000000000000000000000000000\n      dup2\n      mstore\n      0x04\n      add\n      tag_290\n      swap1\n      tag_291\n      jump\t// in\n    tag_290:\n      mload(0x40)\n      dup1\n      swap2\n      sub\n      swap1\n      revert\n        /* \"hopium/common/interface/imDirectory.sol\":846:1044  try IDirectory(_directory).owner() returns (address) {... */\n    tag_286:\n        /* \"hopium/common/interface/imDirectory.sol\":936:946  _directory */\n      dup2\n        /* \"hopium/common/interface/imDirectory.sol\":913:922  Directory */\n      0x00\n      0x00\n        /* \"hopium/common/interface/imDirectory.sol\":913:947  Directory = IDirectory(_directory) */\n      0x0100\n      exp\n      dup2\n      sload\n      dup2\n      0xffffffffffffffffffffffffffffffffffffffff\n      mul\n      not\n      and\n      swap1\n      dup4\n      0xffffffffffffffffffffffffffffffffffffffff\n      and\n      mul\n      or\n      swap1\n      sstore\n      pop\n        /* \"hopium/common/interface/imDirectory.sol\":881:958  returns (address) {... */\n      pop\n        /* \"hopium/common/interface/imDirectory.sol\":589:1050  function _setDirectory(address _directory) internal {... */\n      pop\n      jump\t// out\n        /* \"hopium/etf/interface/imEtfFactory.sol\":433:572  function getEtfFactory() internal view virtual returns (IEtfFactory) {... */\n    tag_132:\n        /* \"hopium/etf/interface/imEtfFactory.sol\":489:500  IEtfFactory */\n      0x00\n        /* \"hopium/etf/interface/imEtfFactory.sol\":531:564  fetchFromDirectory(\"etf-factory\") */\n      tag_294\n      mload(0x40)\n      dup1\n      0x40\n      add\n      0x40\n      mstore\n      dup1\n      0x0b\n      dup2\n      mstore\n      0x20\n      add\n      0x6574662d666163746f7279000000000000000000000000000000000000000000\n      dup2\n      mstore\n      pop\n        /* \"hopium/etf/interface/imEtfFactory.sol\":531:549  fetchFromDirectory */\n      tag_17\n        /* \"hopium/etf/interface/imEtfFactory.sol\":531:564  fetchFromDirectory(\"etf-factory\") */\n      jump\t// in\n    tag_294:\n        /* \"hopium/etf/interface/imEtfFactory.sol\":512:565  return IEtfFactory(fetchFromDirectory(\"etf-factory\")) */\n      swap1\n      pop\n        /* \"hopium/etf/interface/imEtfFactory.sol\":433:572  function getEtfFactory() internal view virtual returns (IEtfFactory) {... */\n      swap1\n      jump\t// out\n        /* \"hopium/standalone/interface/imMultiSwapRouter.sol\":225:384  function getMultiSwapRouter() internal view virtual returns (IMultiSwapRouter) {... */\n    tag_196:\n        /* \"hopium/standalone/interface/imMultiSwapRouter.sol\":286:302  IMultiSwapRouter */\n      0x00\n        /* \"hopium/standalone/interface/imMultiSwapRouter.sol\":338:376  fetchFromDirectory(\"multiswap-router\") */\n      tag_296\n      mload(0x40)\n      dup1\n      0x40\n      add\n      0x40\n      mstore\n      dup1\n      0x10\n      dup2\n      mstore\n      0x20\n      add\n      0x6d756c7469737761702d726f7574657200000000000000000000000000000000\n      dup2\n      mstore\n      pop\n        /* \"hopium/standalone/interface/imMultiSwapRouter.sol\":338:356  fetchFromDirectory */\n      tag_17\n        /* \"hopium/standalone/interface/imMultiSwapRouter.sol\":338:376  fetchFromDirectory(\"multiswap-router\") */\n      jump\t// in\n    tag_296:\n        /* \"hopium/standalone/interface/imMultiSwapRouter.sol\":314:377  return IMultiSwapRouter(fetchFromDirectory(\"multiswap-router\")) */\n      swap1\n      pop\n        /* \"hopium/standalone/interface/imMultiSwapRouter.sol\":225:384  function getMultiSwapRouter() internal view virtual returns (IMultiSwapRouter) {... */\n      swap1\n      jump\t// out\n        /* \"hopium/etf/main/etf-router.sol\":611:1009  function _approveMaxIfNeeded(address tokenAddress, address spender, uint256 amount) internal {... */\n    tag_197:\n        /* \"hopium/etf/main/etf-router.sol\":714:726  IERC20 token */\n      0x00\n        /* \"hopium/etf/main/etf-router.sol\":736:748  tokenAddress */\n      dup4\n        /* \"hopium/etf/main/etf-router.sol\":714:749  IERC20 token = IERC20(tokenAddress) */\n      swap1\n      pop\n        /* \"hopium/etf/main/etf-router.sol\":759:774  uint256 current */\n      0x00\n        /* \"hopium/etf/main/etf-router.sol\":777:782  token */\n      dup2\n        /* \"hopium/etf/main/etf-router.sol\":777:792  token.allowance */\n      0xffffffffffffffffffffffffffffffffffffffff\n      and\n      0xdd62ed3e\n        /* \"hopium/etf/main/etf-router.sol\":801:805  this */\n      address\n        /* \"hopium/etf/main/etf-router.sol\":808:815  spender */\n      dup7\n        /* \"hopium/etf/main/etf-router.sol\":777:816  token.allowance(address(this), spender) */\n      mload(0x40)\n      dup4\n      0xffffffff\n      and\n      0xe0\n      shl\n      dup2\n      mstore\n      0x04\n      add\n      tag_298\n      swap3\n      swap2\n      swap1\n      tag_299\n      jump\t// in\n    tag_298:\n      0x20\n      mload(0x40)\n      dup1\n      dup4\n      sub\n      dup2\n      dup7\n      gas\n      staticcall\n      iszero\n      dup1\n      iszero\n      tag_301\n      jumpi\n      returndatacopy(0x00, 0x00, returndatasize)\n      revert(0x00, returndatasize)\n    tag_301:\n      pop\n      pop\n      pop\n      pop\n      mload(0x40)\n      returndatasize\n      not(0x1f)\n      0x1f\n      dup3\n      add\n      and\n      dup3\n      add\n      dup1\n      0x40\n      mstore\n      pop\n      dup2\n      add\n      swap1\n      tag_302\n      swap2\n      swap1\n      tag_61\n      jump\t// in\n    tag_302:\n        /* \"hopium/etf/main/etf-router.sol\":759:816  uint256 current = token.allowance(address(this), spender) */\n      swap1\n      pop\n        /* \"hopium/etf/main/etf-router.sol\":840:846  amount */\n      dup3\n        /* \"hopium/etf/main/etf-router.sol\":830:837  current */\n      dup2\n        /* \"hopium/etf/main/etf-router.sol\":830:846  current < amount */\n      lt\n        /* \"hopium/etf/main/etf-router.sol\":826:1003  if (current < amount) {... */\n      iszero\n      tag_303\n      jumpi\n        /* \"hopium/etf/main/etf-router.sol\":877:878  0 */\n      0x00\n        /* \"hopium/etf/main/etf-router.sol\":866:873  current */\n      dup2\n        /* \"hopium/etf/main/etf-router.sol\":866:878  current != 0 */\n      eq\n        /* \"hopium/etf/main/etf-router.sol\":862:938  if (current != 0) {... */\n      tag_304\n      jumpi\n        /* \"hopium/etf/main/etf-router.sol\":898:903  token */\n      dup2\n        /* \"hopium/etf/main/etf-router.sol\":898:911  token.approve */\n      0xffffffffffffffffffffffffffffffffffffffff\n      and\n      0x095ea7b3\n        /* \"hopium/etf/main/etf-router.sol\":912:919  spender */\n      dup6\n        /* \"hopium/etf/main/etf-router.sol\":921:922  0 */\n      0x00\n        /* \"hopium/etf/main/etf-router.sol\":898:923  token.approve(spender, 0) */\n      mload(0x40)\n      dup4\n      0xffffffff\n      and\n      0xe0\n      shl\n      dup2\n      mstore\n      0x04\n      add\n      tag_305\n      swap3\n      swap2\n      swap1\n      tag_306\n      jump\t// in\n    tag_305:\n      0x20\n      mload(0x40)\n      dup1\n      dup4\n      sub\n      dup2\n      0x00\n      dup8\n      gas\n      call\n      iszero\n      dup1\n      iszero\n      tag_308\n      jumpi\n      returndatacopy(0x00, 0x00, returndatasize)\n      revert(0x00, returndatasize)\n    tag_308:\n      pop\n      pop\n      pop\n      pop\n      mload(0x40)\n      returndatasize\n      not(0x1f)\n      0x1f\n      dup3\n      add\n      and\n      dup3\n      add\n      dup1\n      0x40\n      mstore\n      pop\n      dup2\n      add\n      swap1\n      tag_309\n      swap2\n      swap1\n      tag_310\n      jump\t// in\n    tag_309:\n      pop\n        /* \"hopium/etf/main/etf-router.sol\":862:938  if (current != 0) {... */\n    tag_304:\n        /* \"hopium/etf/main/etf-router.sol\":951:956  token */\n      dup2\n        /* \"hopium/etf/main/etf-router.sol\":951:964  token.approve */\n      0xffffffffffffffffffffffffffffffffffffffff\n      and\n      0x095ea7b3\n        /* \"hopium/etf/main/etf-router.sol\":965:972  spender */\n      dup6\n        /* \"hopium/etf/main/etf-router.sol\":974:991  type(uint256).max */\n      0xffffffffffffffffffffffffffffffffffffffffffffffffffffffffffffffff\n        /* \"hopium/etf/main/etf-router.sol\":951:992  token.approve(spender, type(uint256).max) */\n      mload(0x40)\n      dup4\n      0xffffffff\n      and\n      0xe0\n      shl\n      dup2\n      mstore\n      0x04\n      add\n      tag_311\n      swap3\n      swap2\n      swap1\n      tag_69\n      jump\t// in\n    tag_311:\n      0x20\n      mload(0x40)\n      dup1\n      dup4\n      sub\n      dup2\n      0x00\n      dup8\n      gas\n      call\n      iszero\n      dup1\n      iszero\n      tag_313\n      jumpi\n      returndatacopy(0x00, 0x00, returndatasize)\n      revert(0x00, returndatasize)\n    tag_313:\n      pop\n      pop\n      pop\n      pop\n      mload(0x40)\n      returndatasize\n      not(0x1f)\n      0x1f\n      dup3\n      add\n      and\n      dup3\n      add\n      dup1\n      0x40\n      mstore\n      pop\n      dup2\n      add\n      swap1\n      tag_314\n      swap2\n      swap1\n      tag_310\n      jump\t// in\n    tag_314:\n      pop\n        /* \"hopium/etf/main/etf-router.sol\":826:1003  if (current < amount) {... */\n    tag_303:\n        /* \"hopium/etf/main/etf-router.sol\":704:1009  {... */\n      pop\n      pop\n        /* \"hopium/etf/main/etf-router.sol\":611:1009  function _approveMaxIfNeeded(address tokenAddress, address spender, uint256 amount) internal {... */\n      pop\n      pop\n      pop\n      jump\t// out\n        /* \"hopium/etf/main/etf-router.sol\":1122:1228  function _zeroSwapFees() internal pure returns (SwapFee[] memory) {... */\n    tag_211:\n        /* \"hopium/etf/main/etf-router.sol\":1170:1186  SwapFee[] memory */\n      0x60\n        /* \"hopium/etf/main/etf-router.sol\":1219:1220  0 */\n      0x00\n        /* \"hopium/etf/main/etf-router.sol\":1205:1221  new SwapFee[](0) */\n      0xffffffffffffffff\n      dup2\n      gt\n      iszero\n      tag_316\n      jumpi\n      tag_317\n      tag_171\n      jump\t// in\n    tag_317:\n    tag_316:\n      mload(0x40)\n      swap1\n      dup1\n      dup3\n      mstore\n      dup1\n      0x20\n      mul\n      0x20\n      add\n      dup3\n      add\n      0x40\n      mstore\n      dup1\n      iszero\n      tag_318\n      jumpi\n      dup2\n      0x20\n      add\n    tag_319:\n      tag_320\n      tag_321\n      jump\t// in\n    tag_320:\n      dup2\n      mstore\n      0x20\n      add\n      swap1\n      0x01\n      swap1\n      sub\n      swap1\n      dup2\n      tag_319\n      jumpi\n      swap1\n      pop\n    tag_318:\n      pop\n        /* \"hopium/etf/main/etf-router.sol\":1198:1221  return new SwapFee[](0) */\n      swap1\n      pop\n        /* \"hopium/etf/main/etf-router.sol\":1122:1228  function _zeroSwapFees() internal pure returns (SwapFee[] memory) {... */\n      swap1\n      jump\t// out\n        /* \"hopium/etf/interface/imIndexPriceOracle.sol\":398:562  function getIndexPriceOracle() internal view virtual returns (IIndexPriceOracle) {... */\n    tag_257:\n        /* \"hopium/etf/interface/imIndexPriceOracle.sol\":460:477  IIndexPriceOracle */\n      0x00\n        /* \"hopium/etf/interface/imIndexPriceOracle.sol\":514:554  fetchFromDirectory(\"index-price-oracle\") */\n      tag_323\n      mload(0x40)\n      dup1\n      0x40\n      add\n      0x40\n      mstore\n      dup1\n      0x12\n      dup2\n      mstore\n      0x20\n      add\n      0x696e6465782d70726963652d6f7261636c650000000000000000000000000000\n      dup2\n      mstore\n      pop\n        /* \"hopium/etf/interface/imIndexPriceOracle.sol\":514:532  fetchFromDirectory */\n      tag_17\n        /* \"hopium/etf/interface/imIndexPriceOracle.sol\":514:554  fetchFromDirectory(\"index-price-oracle\") */\n      jump\t// in\n    tag_323:\n        /* \"hopium/etf/interface/imIndexPriceOracle.sol\":489:555  return IIndexPriceOracle(fetchFromDirectory(\"index-price-oracle\")) */\n      swap1\n      pop\n        /* \"hopium/etf/interface/imIndexPriceOracle.sol\":398:562  function getIndexPriceOracle() internal view virtual returns (IIndexPriceOracle) {... */\n      swap1\n      jump\t// out\n    tag_175:\n      mload(0x40)\n      dup1\n      0x40\n      add\n      0x40\n      mstore\n      dup1\n      and(0xffffffffffffffffffffffffffffffffffffffff, 0x00)\n      dup2\n      mstore\n      0x20\n      add\n      0x00\n      dup2\n      mstore\n      pop\n      swap1\n      jump\t// out\n    tag_206:\n      mload(0x40)\n      dup1\n      0x40\n      add\n      0x40\n      mstore\n      dup1\n      and(0xffffffffffffffffffffffffffffffffffffffff, 0x00)\n      dup2\n      mstore\n      0x20\n      add\n      and(0xffff, 0x00)\n      dup2\n      mstore\n      pop\n      swap1\n      jump\t// out\n    tag_321:\n      mload(0x40)\n      dup1\n      0x40\n      add\n      0x40\n      mstore\n      dup1\n      and(0xffffffffffffffffffffffffffffffffffffffff, 0x00)\n      dup2\n      mstore\n      0x20\n      add\n      and(0xffff, 0x00)\n      dup2\n      mstore\n      pop\n      swap1\n      jump\t// out\n        /* \"#utility.yul\":7:82   */\n    tag_324:\n        /* \"#utility.yul\":40:46   */\n      0x00\n        /* \"#utility.yul\":73:75   */\n      0x40\n        /* \"#utility.yul\":67:76   */\n      mload\n        /* \"#utility.yul\":57:76   */\n      swap1\n      pop\n        /* \"#utility.yul\":7:82   */\n      swap1\n      jump\t// out\n        /* \"#utility.yul\":88:205   */\n    tag_325:\n        /* \"#utility.yul\":197:198   */\n      0x00\n        /* \"#utility.yul\":194:195   */\n      0x00\n        /* \"#utility.yul\":187:199   */\n      revert\n        /* \"#utility.yul\":211:328   */\n    tag_326:\n        /* \"#utility.yul\":320:321   */\n      0x00\n        /* \"#utility.yul\":317:318   */\n      0x00\n        /* \"#utility.yul\":310:322   */\n      revert\n        /* \"#utility.yul\":334:411   */\n    tag_327:\n        /* \"#utility.yul\":371:378   */\n      0x00\n        /* \"#utility.yul\":400:405   */\n      dup2\n        /* \"#utility.yul\":389:405   */\n      swap1\n      pop\n        /* \"#utility.yul\":334:411   */\n      swap2\n      swap1\n      pop\n      jump\t// out\n        /* \"#utility.yul\":417:539   */\n    tag_328:\n        /* \"#utility.yul\":490:514   */\n      tag_444\n        /* \"#utility.yul\":508:513   */\n      dup2\n        /* \"#utility.yul\":490:514   */\n      tag_327\n      jump\t// in\n    tag_444:\n        /* \"#utility.yul\":483:488   */\n      dup2\n        /* \"#utility.yul\":480:515   */\n      eq\n        /* \"#utility.yul\":470:533   */\n      tag_445\n      jumpi\n        /* \"#utility.yul\":529:530   */\n      0x00\n        /* \"#utility.yul\":526:527   */\n      0x00\n        /* \"#utility.yul\":519:531   */\n      revert\n        /* \"#utility.yul\":470:533   */\n    tag_445:\n        /* \"#utility.yul\":417:539   */\n      pop\n      jump\t// out\n        /* \"#utility.yul\":545:684   */\n    tag_329:\n        /* \"#utility.yul\":591:596   */\n      0x00\n        /* \"#utility.yul\":629:635   */\n      dup2\n        /* \"#utility.yul\":616:636   */\n      calldataload\n        /* \"#utility.yul\":607:636   */\n      swap1\n      pop\n        /* \"#utility.yul\":645:678   */\n      tag_447\n        /* \"#utility.yul\":672:677   */\n      dup2\n        /* \"#utility.yul\":645:678   */\n      tag_328\n      jump\t// in\n    tag_447:\n        /* \"#utility.yul\":545:684   */\n      swap3\n      swap2\n      pop\n      pop\n      jump\t// out\n        /* \"#utility.yul\":690:816   */\n    tag_330:\n        /* \"#utility.yul\":727:734   */\n      0x00\n        /* \"#utility.yul\":767:809   */\n      0xffffffffffffffffffffffffffffffffffffffff\n        /* \"#utility.yul\":760:765   */\n      dup3\n        /* \"#utility.yul\":756:810   */\n      and\n        /* \"#utility.yul\":745:810   */\n      swap1\n      pop\n        /* \"#utility.yul\":690:816   */\n      swap2\n      swap1\n      pop\n      jump\t// out\n        /* \"#utility.yul\":822:926   */\n    tag_331:\n        /* \"#utility.yul\":867:874   */\n      0x00\n        /* \"#utility.yul\":896:920   */\n      tag_450\n        /* \"#utility.yul\":914:919   */\n      dup3\n        /* \"#utility.yul\":896:920   */\n      tag_330\n      jump\t// in\n    tag_450:\n        /* \"#utility.yul\":885:920   */\n      swap1\n      pop\n        /* \"#utility.yul\":822:926   */\n      swap2\n      swap1\n      pop\n      jump\t// out\n        /* \"#utility.yul\":932:1070   */\n    tag_332:\n        /* \"#utility.yul\":1013:1045   */\n      tag_452\n        /* \"#utility.yul\":1039:1044   */\n      dup2\n        /* \"#utility.yul\":1013:1045   */\n      tag_331\n      jump\t// in\n    tag_452:\n        /* \"#utility.yul\":1006:1011   */\n      dup2\n        /* \"#utility.yul\":1003:1046   */\n      eq\n        /* \"#utility.yul\":993:1064   */\n      tag_453\n      jumpi\n        /* \"#utility.yul\":1060:1061   */\n      0x00\n        /* \"#utility.yul\":1057:1058   */\n      0x00\n        /* \"#utility.yul\":1050:1062   */\n      revert\n        /* \"#utility.yul\":993:1064   */\n    tag_453:\n        /* \"#utility.yul\":932:1070   */\n      pop\n      jump\t// out\n        /* \"#utility.yul\":1076:1231   */\n    tag_333:\n        /* \"#utility.yul\":1130:1135   */\n      0x00\n        /* \"#utility.yul\":1168:1174   */\n      dup2\n        /* \"#utility.yul\":1155:1175   */\n      calldataload\n        /* \"#utility.yul\":1146:1175   */\n      swap1\n      pop\n        /* \"#utility.yul\":1184:1225   */\n      tag_455\n        /* \"#utility.yul\":1219:1224   */\n      dup2\n        /* \"#utility.yul\":1184:1225   */\n      tag_332\n      jump\t// in\n    tag_455:\n        /* \"#utility.yul\":1076:1231   */\n      swap3\n      swap2\n      pop\n      pop\n      jump\t// out\n        /* \"#utility.yul\":1237:2164   */\n    tag_11:\n        /* \"#utility.yul\":1340:1346   */\n      0x00\n        /* \"#utility.yul\":1348:1354   */\n      0x00\n        /* \"#utility.yul\":1356:1362   */\n      0x00\n        /* \"#utility.yul\":1364:1370   */\n      0x00\n        /* \"#utility.yul\":1372:1378   */\n      0x00\n        /* \"#utility.yul\":1421:1424   */\n      0xa0\n        /* \"#utility.yul\":1409:1418   */\n      dup7\n        /* \"#utility.yul\":1400:1407   */\n      dup9\n        /* \"#utility.yul\":1396:1419   */\n      sub\n        /* \"#utility.yul\":1392:1425   */\n      slt\n        /* \"#utility.yul\":1389:1509   */\n      iszero\n      tag_457\n      jumpi\n        /* \"#utility.yul\":1428:1507   */\n      tag_458\n      tag_325\n      jump\t// in\n    tag_458:\n        /* \"#utility.yul\":1389:1509   */\n    tag_457:\n        /* \"#utility.yul\":1548:1549   */\n      0x00\n        /* \"#utility.yul\":1573:1626   */\n      tag_459\n        /* \"#utility.yul\":1618:1625   */\n      dup9\n        /* \"#utility.yul\":1609:1615   */\n      dup3\n        /* \"#utility.yul\":1598:1607   */\n      dup10\n        /* \"#utility.yul\":1594:1616   */\n      add\n        /* \"#utility.yul\":1573:1626   */\n      tag_329\n      jump\t// in\n    tag_459:\n        /* \"#utility.yul\":1563:1626   */\n      swap6\n      pop\n        /* \"#utility.yul\":1519:1636   */\n      pop\n        /* \"#utility.yul\":1675:1677   */\n      0x20\n        /* \"#utility.yul\":1701:1754   */\n      tag_460\n        /* \"#utility.yul\":1746:1753   */\n      dup9\n        /* \"#utility.yul\":1737:1743   */\n      dup3\n        /* \"#utility.yul\":1726:1735   */\n      dup10\n        /* \"#utility.yul\":1722:1744   */\n      add\n        /* \"#utility.yul\":1701:1754   */\n      tag_329\n      jump\t// in\n    tag_460:\n        /* \"#utility.yul\":1691:1754   */\n      swap5\n      pop\n        /* \"#utility.yul\":1646:1764   */\n      pop\n        /* \"#utility.yul\":1803:1805   */\n      0x40\n        /* \"#utility.yul\":1829:1890   */\n      tag_461\n        /* \"#utility.yul\":1882:1889   */\n      dup9\n        /* \"#utility.yul\":1873:1879   */\n      dup3\n        /* \"#utility.yul\":1862:1871   */\n      dup10\n        /* \"#utility.yul\":1858:1880   */\n      add\n        /* \"#utility.yul\":1829:1890   */\n      tag_333\n      jump\t// in\n    tag_461:\n        /* \"#utility.yul\":1819:1890   */\n      swap4\n      pop\n        /* \"#utility.yul\":1774:1900   */\n      pop\n        /* \"#utility.yul\":1939:1941   */\n      0x60\n        /* \"#utility.yul\":1965:2018   */\n      tag_462\n        /* \"#utility.yul\":2010:2017   */\n      dup9\n        /* \"#utility.yul\":2001:2007   */\n      dup3\n        /* \"#utility.yul\":1990:1999   */\n      dup10\n        /* \"#utility.yul\":1986:2008   */\n      add\n        /* \"#utility.yul\":1965:2018   */\n      tag_329\n      jump\t// in\n    tag_462:\n        /* \"#utility.yul\":1955:2018   */\n      swap3\n      pop\n        /* \"#utility.yul\":1910:2028   */\n      pop\n        /* \"#utility.yul\":2067:2070   */\n      0x80\n        /* \"#utility.yul\":2094:2147   */\n      tag_463\n        /* \"#utility.yul\":2139:2146   */\n      dup9\n        /* \"#utility.yul\":2130:2136   */\n      dup3\n        /* \"#utility.yul\":2119:2128   */\n      dup10\n        /* \"#utility.yul\":2115:2137   */\n      add\n        /* \"#utility.yul\":2094:2147   */\n      tag_329\n      jump\t// in\n    tag_463:\n        /* \"#utility.yul\":2084:2147   */\n      swap2\n      pop\n        /* \"#utility.yul\":2038:2157   */\n      pop\n        /* \"#utility.yul\":1237:2164   */\n      swap3\n      swap6\n      pop\n      swap3\n      swap6\n      swap1\n      swap4\n      pop\n      jump\t// out\n        /* \"#utility.yul\":2170:2287   */\n    tag_334:\n        /* \"#utility.yul\":2279:2280   */\n      0x00\n        /* \"#utility.yul\":2276:2277   */\n      0x00\n        /* \"#utility.yul\":2269:2281   */\n      revert\n        /* \"#utility.yul\":2293:2410   */\n    tag_335:\n        /* \"#utility.yul\":2402:2403   */\n      0x00\n        /* \"#utility.yul\":2399:2400   */\n      0x00\n        /* \"#utility.yul\":2392:2404   */\n      revert\n        /* \"#utility.yul\":2416:2518   */\n    tag_336:\n        /* \"#utility.yul\":2457:2463   */\n      0x00\n        /* \"#utility.yul\":2508:2510   */\n      0x1f\n        /* \"#utility.yul\":2504:2511   */\n      not\n        /* \"#utility.yul\":2499:2501   */\n      0x1f\n        /* \"#utility.yul\":2492:2497   */\n      dup4\n        /* \"#utility.yul\":2488:2502   */\n      add\n        /* \"#utility.yul\":2484:2512   */\n      and\n        /* \"#utility.yul\":2474:2512   */\n      swap1\n      pop\n        /* \"#utility.yul\":2416:2518   */\n      swap2\n      swap1\n      pop\n      jump\t// out\n        /* \"#utility.yul\":2524:2704   */\n    tag_171:\n        /* \"#utility.yul\":2572:2649   */\n      0x4e487b7100000000000000000000000000000000000000000000000000000000\n        /* \"#utility.yul\":2569:2570   */\n      0x00\n        /* \"#utility.yul\":2562:2650   */\n      mstore\n        /* \"#utility.yul\":2669:2673   */\n      0x41\n        /* \"#utility.yul\":2666:2667   */\n      0x04\n        /* \"#utility.yul\":2659:2674   */\n      mstore\n        /* \"#utility.yul\":2693:2697   */\n      0x24\n        /* \"#utility.yul\":2690:2691   */\n      0x00\n        /* \"#utility.yul\":2683:2698   */\n      revert\n        /* \"#utility.yul\":2710:2991   */\n    tag_337:\n        /* \"#utility.yul\":2793:2820   */\n      tag_469\n        /* \"#utility.yul\":2815:2819   */\n      dup3\n        /* \"#utility.yul\":2793:2820   */\n      tag_336\n      jump\t// in\n    tag_469:\n        /* \"#utility.yul\":2785:2791   */\n      dup2\n        /* \"#utility.yul\":2781:2821   */\n      add\n        /* \"#utility.yul\":2923:2929   */\n      dup2\n        /* \"#utility.yul\":2911:2921   */\n      dup2\n        /* \"#utility.yul\":2908:2930   */\n      lt\n        /* \"#utility.yul\":2887:2905   */\n      0xffffffffffffffff\n        /* \"#utility.yul\":2875:2885   */\n      dup3\n        /* \"#utility.yul\":2872:2906   */\n      gt\n        /* \"#utility.yul\":2869:2931   */\n      or\n        /* \"#utility.yul\":2866:2954   */\n      iszero\n      tag_470\n      jumpi\n        /* \"#utility.yul\":2934:2952   */\n      tag_471\n      tag_171\n      jump\t// in\n    tag_471:\n        /* \"#utility.yul\":2866:2954   */\n    tag_470:\n        /* \"#utility.yul\":2974:2984   */\n      dup1\n        /* \"#utility.yul\":2970:2972   */\n      0x40\n        /* \"#utility.yul\":2963:2985   */\n      mstore\n        /* \"#utility.yul\":2753:2991   */\n      pop\n        /* \"#utility.yul\":2710:2991   */\n      pop\n      pop\n      jump\t// out\n        /* \"#utility.yul\":2997:3126   */\n    tag_338:\n        /* \"#utility.yul\":3031:3037   */\n      0x00\n        /* \"#utility.yul\":3058:3078   */\n      tag_473\n      tag_324\n      jump\t// in\n    tag_473:\n        /* \"#utility.yul\":3048:3078   */\n      swap1\n      pop\n        /* \"#utility.yul\":3087:3120   */\n      tag_474\n        /* \"#utility.yul\":3115:3119   */\n      dup3\n        /* \"#utility.yul\":3107:3113   */\n      dup3\n        /* \"#utility.yul\":3087:3120   */\n      tag_337\n      jump\t// in\n    tag_474:\n        /* \"#utility.yul\":2997:3126   */\n      swap2\n      swap1\n      pop\n      jump\t// out\n        /* \"#utility.yul\":3132:3440   */\n    tag_339:\n        /* \"#utility.yul\":3194:3198   */\n      0x00\n        /* \"#utility.yul\":3284:3302   */\n      0xffffffffffffffff\n        /* \"#utility.yul\":3276:3282   */\n      dup3\n        /* \"#utility.yul\":3273:3303   */\n      gt\n        /* \"#utility.yul\":3270:3326   */\n      iszero\n      tag_476\n      jumpi\n        /* \"#utility.yul\":3306:3324   */\n      tag_477\n      tag_171\n      jump\t// in\n    tag_477:\n        /* \"#utility.yul\":3270:3326   */\n    tag_476:\n        /* \"#utility.yul\":3344:3373   */\n      tag_478\n        /* \"#utility.yul\":3366:3372   */\n      dup3\n        /* \"#utility.yul\":3344:3373   */\n      tag_336\n      jump\t// in\n    tag_478:\n        /* \"#utility.yul\":3336:3373   */\n      swap1\n      pop\n        /* \"#utility.yul\":3428:3432   */\n      0x20\n        /* \"#utility.yul\":3422:3426   */\n      dup2\n        /* \"#utility.yul\":3418:3433   */\n      add\n        /* \"#utility.yul\":3410:3433   */\n      swap1\n      pop\n        /* \"#utility.yul\":3132:3440   */\n      swap2\n      swap1\n      pop\n      jump\t// out\n        /* \"#utility.yul\":3446:3594   */\n    tag_340:\n        /* \"#utility.yul\":3544:3550   */\n      dup3\n        /* \"#utility.yul\":3539:3542   */\n      dup2\n        /* \"#utility.yul\":3534:3537   */\n      dup4\n        /* \"#utility.yul\":3521:3551   */\n      calldatacopy\n        /* \"#utility.yul\":3585:3586   */\n      0x00\n        /* \"#utility.yul\":3576:3582   */\n      dup4\n        /* \"#utility.yul\":3571:3574   */\n      dup4\n        /* \"#utility.yul\":3567:3583   */\n      add\n        /* \"#utility.yul\":3560:3587   */\n      mstore\n        /* \"#utility.yul\":3446:3594   */\n      pop\n      pop\n      pop\n      jump\t// out\n        /* \"#utility.yul\":3600:4025   */\n    tag_341:\n        /* \"#utility.yul\":3678:3683   */\n      0x00\n        /* \"#utility.yul\":3703:3769   */\n      tag_481\n        /* \"#utility.yul\":3719:3768   */\n      tag_482\n        /* \"#utility.yul\":3761:3767   */\n      dup5\n        /* \"#utility.yul\":3719:3768   */\n      tag_339\n      jump\t// in\n    tag_482:\n        /* \"#utility.yul\":3703:3769   */\n      tag_338\n      jump\t// in\n    tag_481:\n        /* \"#utility.yul\":3694:3769   */\n      swap1\n      pop\n        /* \"#utility.yul\":3792:3798   */\n      dup3\n        /* \"#utility.yul\":3785:3790   */\n      dup2\n        /* \"#utility.yul\":3778:3799   */\n      mstore\n        /* \"#utility.yul\":3830:3834   */\n      0x20\n        /* \"#utility.yul\":3823:3828   */\n      dup2\n        /* \"#utility.yul\":3819:3835   */\n      add\n        /* \"#utility.yul\":3868:3871   */\n      dup5\n        /* \"#utility.yul\":3859:3865   */\n      dup5\n        /* \"#utility.yul\":3854:3857   */\n      dup5\n        /* \"#utility.yul\":3850:3866   */\n      add\n        /* \"#utility.yul\":3847:3872   */\n      gt\n        /* \"#utility.yul\":3844:3956   */\n      iszero\n      tag_483\n      jumpi\n        /* \"#utility.yul\":3875:3954   */\n      tag_484\n      tag_335\n      jump\t// in\n    tag_484:\n        /* \"#utility.yul\":3844:3956   */\n    tag_483:\n        /* \"#utility.yul\":3965:4019   */\n      tag_485\n        /* \"#utility.yul\":4012:4018   */\n      dup5\n        /* \"#utility.yul\":4007:4010   */\n      dup3\n        /* \"#utility.yul\":4002:4005   */\n      dup6\n        /* \"#utility.yul\":3965:4019   */\n      tag_340\n      jump\t// in\n    tag_485:\n        /* \"#utility.yul\":3684:4025   */\n      pop\n        /* \"#utility.yul\":3600:4025   */\n      swap4\n      swap3\n      pop\n      pop\n      pop\n      jump\t// out\n        /* \"#utility.yul\":4045:4385   */\n    tag_342:\n        /* \"#utility.yul\":4101:4106   */\n      0x00\n        /* \"#utility.yul\":4150:4153   */\n      dup3\n        /* \"#utility.yul\":4143:4147   */\n      0x1f\n        /* \"#utility.yul\":4135:4141   */\n      dup4\n        /* \"#utility.yul\":4131:4148   */\n      add\n        /* \"#utility.yul\":4127:4154   */\n      slt\n        /* \"#utility.yul\":4117:4239   */\n      tag_487\n      jumpi\n        /* \"#utility.yul\":4158:4237   */\n      tag_488\n      tag_334\n      jump\t// in\n    tag_488:\n        /* \"#utility.yul\":4117:4239   */\n    tag_487:\n        /* \"#utility.yul\":4275:4281   */\n      dup2\n        /* \"#utility.yul\":4262:4282   */\n      calldataload\n        /* \"#utility.yul\":4300:4379   */\n      tag_489\n        /* \"#utility.yul\":4375:4378   */\n      dup5\n        /* \"#utility.yul\":4367:4373   */\n      dup3\n        /* \"#utility.yul\":4360:4364   */\n      0x20\n        /* \"#utility.yul\":4352:4358   */\n      dup7\n        /* \"#utility.yul\":4348:4365   */\n      add\n        /* \"#utility.yul\":4300:4379   */\n      tag_341\n      jump\t// in\n    tag_489:\n        /* \"#utility.yul\":4291:4379   */\n      swap2\n      pop\n        /* \"#utility.yul\":4107:4385   */\n      pop\n        /* \"#utility.yul\":4045:4385   */\n      swap3\n      swap2\n      pop\n      pop\n      jump\t// out\n        /* \"#utility.yul\":4391:4900   */\n    tag_16:\n        /* \"#utility.yul\":4460:4466   */\n      0x00\n        /* \"#utility.yul\":4509:4511   */\n      0x20\n        /* \"#utility.yul\":4497:4506   */\n      dup3\n        /* \"#utility.yul\":4488:4495   */\n      dup5\n        /* \"#utility.yul\":4484:4507   */\n      sub\n        /* \"#utility.yul\":4480:4512   */\n      slt\n        /* \"#utility.yul\":4477:4596   */\n      iszero\n      tag_491\n      jumpi\n        /* \"#utility.yul\":4515:4594   */\n      tag_492\n      tag_325\n      jump\t// in\n    tag_492:\n        /* \"#utility.yul\":4477:4596   */\n    tag_491:\n        /* \"#utility.yul\":4663:4664   */\n      0x00\n        /* \"#utility.yul\":4652:4661   */\n      dup3\n        /* \"#utility.yul\":4648:4665   */\n      add\n        /* \"#utility.yul\":4635:4666   */\n      calldataload\n        /* \"#utility.yul\":4693:4711   */\n      0xffffffffffffffff\n        /* \"#utility.yul\":4685:4691   */\n      dup2\n        /* \"#utility.yul\":4682:4712   */\n      gt\n        /* \"#utility.yul\":4679:4796   */\n      iszero\n      tag_493\n      jumpi\n        /* \"#utility.yul\":4715:4794   */\n      tag_494\n      tag_326\n      jump\t// in\n    tag_494:\n        /* \"#utility.yul\":4679:4796   */\n    tag_493:\n        /* \"#utility.yul\":4820:4883   */\n      tag_495\n        /* \"#utility.yul\":4875:4882   */\n      dup5\n        /* \"#utility.yul\":4866:4872   */\n      dup3\n        /* \"#utility.yul\":4855:4864   */\n      dup6\n        /* \"#utility.yul\":4851:4873   */\n      add\n        /* \"#utility.yul\":4820:4883   */\n      tag_342\n      jump\t// in\n    tag_495:\n        /* \"#utility.yul\":4810:4883   */\n      swap2\n      pop\n        /* \"#utility.yul\":4606:4893   */\n      pop\n        /* \"#utility.yul\":4391:4900   */\n      swap3\n      swap2\n      pop\n      pop\n      jump\t// out\n        /* \"#utility.yul\":4906:5002   */\n    tag_343:\n        /* \"#utility.yul\":4943:4950   */\n      0x00\n        /* \"#utility.yul\":4972:4996   */\n      tag_497\n        /* \"#utility.yul\":4990:4995   */\n      dup3\n        /* \"#utility.yul\":4972:4996   */\n      tag_330\n      jump\t// in\n    tag_497:\n        /* \"#utility.yul\":4961:4996   */\n      swap1\n      pop\n        /* \"#utility.yul\":4906:5002   */\n      swap2\n      swap1\n      pop\n      jump\t// out\n        /* \"#utility.yul\":5008:5126   */\n    tag_344:\n        /* \"#utility.yul\":5095:5119   */\n      tag_499\n        /* \"#utility.yul\":5113:5118   */\n      dup2\n        /* \"#utility.yul\":5095:5119   */\n      tag_343\n      jump\t// in\n    tag_499:\n        /* \"#utility.yul\":5090:5093   */\n      dup3\n        /* \"#utility.yul\":5083:5120   */\n      mstore\n        /* \"#utility.yul\":5008:5126   */\n      pop\n      pop\n      jump\t// out\n        /* \"#utility.yul\":5132:5354   */\n    tag_19:\n        /* \"#utility.yul\":5225:5229   */\n      0x00\n        /* \"#utility.yul\":5263:5265   */\n      0x20\n        /* \"#utility.yul\":5252:5261   */\n      dup3\n        /* \"#utility.yul\":5248:5266   */\n      add\n        /* \"#utility.yul\":5240:5266   */\n      swap1\n      pop\n        /* \"#utility.yul\":5276:5347   */\n      tag_501\n        /* \"#utility.yul\":5344:5345   */\n      0x00\n        /* \"#utility.yul\":5333:5342   */\n      dup4\n        /* \"#utility.yul\":5329:5346   */\n      add\n        /* \"#utility.yul\":5320:5326   */\n      dup5\n        /* \"#utility.yul\":5276:5347   */\n      tag_344\n      jump\t// in\n    tag_501:\n        /* \"#utility.yul\":5132:5354   */\n      swap3\n      swap2\n      pop\n      pop\n      jump\t// out\n        /* \"#utility.yul\":5360:5420   */\n    tag_345:\n        /* \"#utility.yul\":5388:5391   */\n      0x00\n        /* \"#utility.yul\":5409:5414   */\n      dup2\n        /* \"#utility.yul\":5402:5414   */\n      swap1\n      pop\n        /* \"#utility.yul\":5360:5420   */\n      swap2\n      swap1\n      pop\n      jump\t// out\n        /* \"#utility.yul\":5426:5568   */\n    tag_346:\n        /* \"#utility.yul\":5476:5485   */\n      0x00\n        /* \"#utility.yul\":5509:5562   */\n      tag_504\n        /* \"#utility.yul\":5527:5561   */\n      tag_505\n        /* \"#utility.yul\":5536:5560   */\n      tag_506\n        /* \"#utility.yul\":5554:5559   */\n      dup5\n        /* \"#utility.yul\":5536:5560   */\n      tag_330\n      jump\t// in\n    tag_506:\n        /* \"#utility.yul\":5527:5561   */\n      tag_345\n      jump\t// in\n    tag_505:\n        /* \"#utility.yul\":5509:5562   */\n      tag_330\n      jump\t// in\n    tag_504:\n        /* \"#utility.yul\":5496:5562   */\n      swap1\n      pop\n        /* \"#utility.yul\":5426:5568   */\n      swap2\n      swap1\n      pop\n      jump\t// out\n        /* \"#utility.yul\":5574:5700   */\n    tag_347:\n        /* \"#utility.yul\":5624:5633   */\n      0x00\n        /* \"#utility.yul\":5657:5694   */\n      tag_508\n        /* \"#utility.yul\":5688:5693   */\n      dup3\n        /* \"#utility.yul\":5657:5694   */\n      tag_346\n      jump\t// in\n    tag_508:\n        /* \"#utility.yul\":5644:5694   */\n      swap1\n      pop\n        /* \"#utility.yul\":5574:5700   */\n      swap2\n      swap1\n      pop\n      jump\t// out\n        /* \"#utility.yul\":5706:5850   */\n    tag_348:\n        /* \"#utility.yul\":5774:5783   */\n      0x00\n        /* \"#utility.yul\":5807:5844   */\n      tag_510\n        /* \"#utility.yul\":5838:5843   */\n      dup3\n        /* \"#utility.yul\":5807:5844   */\n      tag_347\n      jump\t// in\n    tag_510:\n        /* \"#utility.yul\":5794:5844   */\n      swap1\n      pop\n        /* \"#utility.yul\":5706:5850   */\n      swap2\n      swap1\n      pop\n      jump\t// out\n        /* \"#utility.yul\":5856:6023   */\n    tag_349:\n        /* \"#utility.yul\":5961:6016   */\n      tag_512\n        /* \"#utility.yul\":6010:6015   */\n      dup2\n        /* \"#utility.yul\":5961:6016   */\n      tag_348\n      jump\t// in\n    tag_512:\n        /* \"#utility.yul\":5956:5959   */\n      dup3\n        /* \"#utility.yul\":5949:6017   */\n      mstore\n        /* \"#utility.yul\":5856:6023   */\n      pop\n      pop\n      jump\t// out\n        /* \"#utility.yul\":6029:6287   */\n    tag_24:\n        /* \"#utility.yul\":6140:6144   */\n      0x00\n        /* \"#utility.yul\":6178:6180   */\n      0x20\n        /* \"#utility.yul\":6167:6176   */\n      dup3\n        /* \"#utility.yul\":6163:6181   */\n      add\n        /* \"#utility.yul\":6155:6181   */\n      swap1\n      pop\n        /* \"#utility.yul\":6191:6280   */\n      tag_514\n        /* \"#utility.yul\":6277:6278   */\n      0x00\n        /* \"#utility.yul\":6266:6275   */\n      dup4\n        /* \"#utility.yul\":6262:6279   */\n      add\n        /* \"#utility.yul\":6253:6259   */\n      dup5\n        /* \"#utility.yul\":6191:6280   */\n      tag_349\n      jump\t// in\n    tag_514:\n        /* \"#utility.yul\":6029:6287   */\n      swap3\n      swap2\n      pop\n      pop\n      jump\t// out\n        /* \"#utility.yul\":6293:6415   */\n    tag_350:\n        /* \"#utility.yul\":6366:6390   */\n      tag_516\n        /* \"#utility.yul\":6384:6389   */\n      dup2\n        /* \"#utility.yul\":6366:6390   */\n      tag_343\n      jump\t// in\n    tag_516:\n        /* \"#utility.yul\":6359:6364   */\n      dup2\n        /* \"#utility.yul\":6356:6391   */\n      eq\n        /* \"#utility.yul\":6346:6409   */\n      tag_517\n      jumpi\n        /* \"#utility.yul\":6405:6406   */\n      0x00\n        /* \"#utility.yul\":6402:6403   */\n      0x00\n        /* \"#utility.yul\":6395:6407   */\n      revert\n        /* \"#utility.yul\":6346:6409   */\n    tag_517:\n        /* \"#utility.yul\":6293:6415   */\n      pop\n      jump\t// out\n        /* \"#utility.yul\":6421:6560   */\n    tag_351:\n        /* \"#utility.yul\":6467:6472   */\n      0x00\n        /* \"#utility.yul\":6505:6511   */\n      dup2\n        /* \"#utility.yul\":6492:6512   */\n      calldataload\n        /* \"#utility.yul\":6483:6512   */\n      swap1\n      pop\n        /* \"#utility.yul\":6521:6554   */\n      tag_519\n        /* \"#utility.yul\":6548:6553   */\n      dup2\n        /* \"#utility.yul\":6521:6554   */\n      tag_350\n      jump\t// in\n    tag_519:\n        /* \"#utility.yul\":6421:6560   */\n      swap3\n      swap2\n      pop\n      pop\n      jump\t// out\n        /* \"#utility.yul\":6566:7331   */\n    tag_27:\n        /* \"#utility.yul\":6652:6658   */\n      0x00\n        /* \"#utility.yul\":6660:6666   */\n      0x00\n        /* \"#utility.yul\":6668:6674   */\n      0x00\n        /* \"#utility.yul\":6676:6682   */\n      0x00\n        /* \"#utility.yul\":6725:6728   */\n      0x80\n        /* \"#utility.yul\":6713:6722   */\n      dup6\n        /* \"#utility.yul\":6704:6711   */\n      dup8\n        /* \"#utility.yul\":6700:6723   */\n      sub\n        /* \"#utility.yul\":6696:6729   */\n      slt\n        /* \"#utility.yul\":6693:6813   */\n      iszero\n      tag_521\n      jumpi\n        /* \"#utility.yul\":6732:6811   */\n      tag_522\n      tag_325\n      jump\t// in\n    tag_522:\n        /* \"#utility.yul\":6693:6813   */\n    tag_521:\n        /* \"#utility.yul\":6852:6853   */\n      0x00\n        /* \"#utility.yul\":6877:6930   */\n      tag_523\n        /* \"#utility.yul\":6922:6929   */\n      dup8\n        /* \"#utility.yul\":6913:6919   */\n      dup3\n        /* \"#utility.yul\":6902:6911   */\n      dup9\n        /* \"#utility.yul\":6898:6920   */\n      add\n        /* \"#utility.yul\":6877:6930   */\n      tag_329\n      jump\t// in\n    tag_523:\n        /* \"#utility.yul\":6867:6930   */\n      swap5\n      pop\n        /* \"#utility.yul\":6823:6940   */\n      pop\n        /* \"#utility.yul\":6979:6981   */\n      0x20\n        /* \"#utility.yul\":7005:7058   */\n      tag_524\n        /* \"#utility.yul\":7050:7057   */\n      dup8\n        /* \"#utility.yul\":7041:7047   */\n      dup3\n        /* \"#utility.yul\":7030:7039   */\n      dup9\n        /* \"#utility.yul\":7026:7048   */\n      add\n        /* \"#utility.yul\":7005:7058   */\n      tag_351\n      jump\t// in\n    tag_524:\n        /* \"#utility.yul\":6995:7058   */\n      swap4\n      pop\n        /* \"#utility.yul\":6950:7068   */\n      pop\n        /* \"#utility.yul\":7107:7109   */\n      0x40\n        /* \"#utility.yul\":7133:7186   */\n      tag_525\n        /* \"#utility.yul\":7178:7185   */\n      dup8\n        /* \"#utility.yul\":7169:7175   */\n      dup3\n        /* \"#utility.yul\":7158:7167   */\n      dup9\n        /* \"#utility.yul\":7154:7176   */\n      add\n        /* \"#utility.yul\":7133:7186   */\n      tag_329\n      jump\t// in\n    tag_525:\n        /* \"#utility.yul\":7123:7186   */\n      swap3\n      pop\n        /* \"#utility.yul\":7078:7196   */\n      pop\n        /* \"#utility.yul\":7235:7237   */\n      0x60\n        /* \"#utility.yul\":7261:7314   */\n      tag_526\n        /* \"#utility.yul\":7306:7313   */\n      dup8\n        /* \"#utility.yul\":7297:7303   */\n      dup3\n        /* \"#utility.yul\":7286:7295   */\n      dup9\n        /* \"#utility.yul\":7282:7304   */\n      add\n        /* \"#utility.yul\":7261:7314   */\n      tag_329\n      jump\t// in\n    tag_526:\n        /* \"#utility.yul\":7251:7314   */\n      swap2\n      pop\n        /* \"#utility.yul\":7206:7324   */\n      pop\n        /* \"#utility.yul\":6566:7331   */\n      swap3\n      swap6\n      swap2\n      swap5\n      pop\n      swap3\n      pop\n      jump\t// out\n        /* \"#utility.yul\":7337:7666   */\n    tag_36:\n        /* \"#utility.yul\":7396:7402   */\n      0x00\n        /* \"#utility.yul\":7445:7447   */\n      0x20\n        /* \"#utility.yul\":7433:7442   */\n      dup3\n        /* \"#utility.yul\":7424:7431   */\n      dup5\n        /* \"#utility.yul\":7420:7443   */\n      sub\n        /* \"#utility.yul\":7416:7448   */\n      slt\n        /* \"#utility.yul\":7413:7532   */\n      iszero\n      tag_528\n      jumpi\n        /* \"#utility.yul\":7451:7530   */\n      tag_529\n      tag_325\n      jump\t// in\n    tag_529:\n        /* \"#utility.yul\":7413:7532   */\n    tag_528:\n        /* \"#utility.yul\":7571:7572   */\n      0x00\n        /* \"#utility.yul\":7596:7649   */\n      tag_530\n        /* \"#utility.yul\":7641:7648   */\n      dup5\n        /* \"#utility.yul\":7632:7638   */\n      dup3\n        /* \"#utility.yul\":7621:7630   */\n      dup6\n        /* \"#utility.yul\":7617:7639   */\n      add\n        /* \"#utility.yul\":7596:7649   */\n      tag_351\n      jump\t// in\n    tag_530:\n        /* \"#utility.yul\":7586:7649   */\n      swap2\n      pop\n        /* \"#utility.yul\":7542:7659   */\n      pop\n        /* \"#utility.yul\":7337:7666   */\n      swap3\n      swap2\n      pop\n      pop\n      jump\t// out\n        /* \"#utility.yul\":7672:7841   */\n    tag_352:\n        /* \"#utility.yul\":7756:7767   */\n      0x00\n        /* \"#utility.yul\":7790:7796   */\n      dup3\n        /* \"#utility.yul\":7785:7788   */\n      dup3\n        /* \"#utility.yul\":7778:7797   */\n      mstore\n        /* \"#utility.yul\":7830:7834   */\n      0x20\n        /* \"#utility.yul\":7825:7828   */\n      dup3\n        /* \"#utility.yul\":7821:7835   */\n      add\n        /* \"#utility.yul\":7806:7835   */\n      swap1\n      pop\n        /* \"#utility.yul\":7672:7841   */\n      swap3\n      swap2\n      pop\n      pop\n      jump\t// out\n        /* \"#utility.yul\":7847:8078   */\n    tag_353:\n        /* \"#utility.yul\":7987:8021   */\n      0x457466526f757465723a20746f6b656e7320746f2073656c6c2073686f756c64\n        /* \"#utility.yul\":7983:7984   */\n      0x00\n        /* \"#utility.yul\":7975:7981   */\n      dup3\n        /* \"#utility.yul\":7971:7985   */\n      add\n        /* \"#utility.yul\":7964:8022   */\n      mstore\n        /* \"#utility.yul\":8056:8070   */\n      0x206e6f74206265207a65726f0000000000000000000000000000000000000000\n        /* \"#utility.yul\":8051:8053   */\n      0x20\n        /* \"#utility.yul\":8043:8049   */\n      dup3\n        /* \"#utility.yul\":8039:8054   */\n      add\n        /* \"#utility.yul\":8032:8071   */\n      mstore\n        /* \"#utility.yul\":7847:8078   */\n      pop\n      jump\t// out\n        /* \"#utility.yul\":8084:8450   */\n    tag_354:\n        /* \"#utility.yul\":8226:8229   */\n      0x00\n        /* \"#utility.yul\":8247:8314   */\n      tag_534\n        /* \"#utility.yul\":8311:8313   */\n      0x2c\n        /* \"#utility.yul\":8306:8309   */\n      dup4\n        /* \"#utility.yul\":8247:8314   */\n      tag_352\n      jump\t// in\n    tag_534:\n        /* \"#utility.yul\":8240:8314   */\n      swap2\n      pop\n        /* \"#utility.yul\":8323:8416   */\n      tag_535\n        /* \"#utility.yul\":8412:8415   */\n      dup3\n        /* \"#utility.yul\":8323:8416   */\n      tag_353\n      jump\t// in\n    tag_535:\n        /* \"#utility.yul\":8441:8443   */\n      0x40\n        /* \"#utility.yul\":8436:8439   */\n      dup3\n        /* \"#utility.yul\":8432:8444   */\n      add\n        /* \"#utility.yul\":8425:8444   */\n      swap1\n      pop\n        /* \"#utility.yul\":8084:8450   */\n      swap2\n      swap1\n      pop\n      jump\t// out\n        /* \"#utility.yul\":8456:8875   */\n    tag_44:\n        /* \"#utility.yul\":8622:8626   */\n      0x00\n        /* \"#utility.yul\":8660:8662   */\n      0x20\n        /* \"#utility.yul\":8649:8658   */\n      dup3\n        /* \"#utility.yul\":8645:8663   */\n      add\n        /* \"#utility.yul\":8637:8663   */\n      swap1\n      pop\n        /* \"#utility.yul\":8709:8718   */\n      dup2\n        /* \"#utility.yul\":8703:8707   */\n      dup2\n        /* \"#utility.yul\":8699:8719   */\n      sub\n        /* \"#utility.yul\":8695:8696   */\n      0x00\n        /* \"#utility.yul\":8684:8693   */\n      dup4\n        /* \"#utility.yul\":8680:8697   */\n      add\n        /* \"#utility.yul\":8673:8720   */\n      mstore\n        /* \"#utility.yul\":8737:8868   */\n      tag_537\n        /* \"#utility.yul\":8863:8867   */\n      dup2\n        /* \"#utility.yul\":8737:8868   */\n      tag_354\n      jump\t// in\n    tag_537:\n        /* \"#utility.yul\":8729:8868   */\n      swap1\n      pop\n        /* \"#utility.yul\":8456:8875   */\n      swap2\n      swap1\n      pop\n      jump\t// out\n        /* \"#utility.yul\":8881:9114   */\n    tag_355:\n        /* \"#utility.yul\":9021:9055   */\n      0x457466526f757465723a2072656365697665722073686f756c64206e6f742062\n        /* \"#utility.yul\":9017:9018   */\n      0x00\n        /* \"#utility.yul\":9009:9015   */\n      dup3\n        /* \"#utility.yul\":9005:9019   */\n      add\n        /* \"#utility.yul\":8998:9056   */\n      mstore\n        /* \"#utility.yul\":9090:9106   */\n      0x65207a65726f2061646472657373000000000000000000000000000000000000\n        /* \"#utility.yul\":9085:9087   */\n      0x20\n        /* \"#utility.yul\":9077:9083   */\n      dup3\n        /* \"#utility.yul\":9073:9088   */\n      add\n        /* \"#utility.yul\":9066:9107   */\n      mstore\n        /* \"#utility.yul\":8881:9114   */\n      pop\n      jump\t// out\n        /* \"#utility.yul\":9120:9486   */\n    tag_356:\n        /* \"#utility.yul\":9262:9265   */\n      0x00\n        /* \"#utility.yul\":9283:9350   */\n      tag_540\n        /* \"#utility.yul\":9347:9349   */\n      0x2e\n        /* \"#utility.yul\":9342:9345   */\n      dup4\n        /* \"#utility.yul\":9283:9350   */\n      tag_352\n      jump\t// in\n    tag_540:\n        /* \"#utility.yul\":9276:9350   */\n      swap2\n      pop\n        /* \"#utility.yul\":9359:9452   */\n      tag_541\n        /* \"#utility.yul\":9448:9451   */\n      dup3\n        /* \"#utility.yul\":9359:9452   */\n      tag_355\n      jump\t// in\n    tag_541:\n        /* \"#utility.yul\":9477:9479   */\n      0x40\n        /* \"#utility.yul\":9472:9475   */\n      dup3\n        /* \"#utility.yul\":9468:9480   */\n      add\n        /* \"#utility.yul\":9461:9480   */\n      swap1\n      pop\n        /* \"#utility.yul\":9120:9486   */\n      swap2\n      swap1\n      pop\n      jump\t// out\n        /* \"#utility.yul\":9492:9911   */\n    tag_47:\n        /* \"#utility.yul\":9658:9662   */\n      0x00\n        /* \"#utility.yul\":9696:9698   */\n      0x20\n        /* \"#utility.yul\":9685:9694   */\n      dup3\n        /* \"#utility.yul\":9681:9699   */\n      add\n        /* \"#utility.yul\":9673:9699   */\n      swap1\n      pop\n        /* \"#utility.yul\":9745:9754   */\n      dup2\n        /* \"#utility.yul\":9739:9743   */\n      dup2\n        /* \"#utility.yul\":9735:9755   */\n      sub\n        /* \"#utility.yul\":9731:9732   */\n      0x00\n        /* \"#utility.yul\":9720:9729   */\n      dup4\n        /* \"#utility.yul\":9716:9733   */\n      add\n        /* \"#utility.yul\":9709:9756   */\n      mstore\n        /* \"#utility.yul\":9773:9904   */\n      tag_543\n        /* \"#utility.yul\":9899:9903   */\n      dup2\n        /* \"#utility.yul\":9773:9904   */\n      tag_356\n      jump\t// in\n    tag_543:\n        /* \"#utility.yul\":9765:9904   */\n      swap1\n      pop\n        /* \"#utility.yul\":9492:9911   */\n      swap2\n      swap1\n      pop\n      jump\t// out\n        /* \"#utility.yul\":9917:10035   */\n    tag_357:\n        /* \"#utility.yul\":10004:10028   */\n      tag_545\n        /* \"#utility.yul\":10022:10027   */\n      dup2\n        /* \"#utility.yul\":10004:10028   */\n      tag_327\n      jump\t// in\n    tag_545:\n        /* \"#utility.yul\":9999:10002   */\n      dup3\n        /* \"#utility.yul\":9992:10029   */\n      mstore\n        /* \"#utility.yul\":9917:10035   */\n      pop\n      pop\n      jump\t// out\n        /* \"#utility.yul\":10041:10263   */\n    tag_51:\n        /* \"#utility.yul\":10134:10138   */\n      0x00\n        /* \"#utility.yul\":10172:10174   */\n      0x20\n        /* \"#utility.yul\":10161:10170   */\n      dup3\n        /* \"#utility.yul\":10157:10175   */\n      add\n        /* \"#utility.yul\":10149:10175   */\n      swap1\n      pop\n        /* \"#utility.yul\":10185:10256   */\n      tag_547\n        /* \"#utility.yul\":10253:10254   */\n      0x00\n        /* \"#utility.yul\":10242:10251   */\n      dup4\n        /* \"#utility.yul\":10238:10255   */\n      add\n        /* \"#utility.yul\":10229:10235   */\n      dup5\n        /* \"#utility.yul\":10185:10256   */\n      tag_357\n      jump\t// in\n    tag_547:\n        /* \"#utility.yul\":10041:10263   */\n      swap3\n      swap2\n      pop\n      pop\n      jump\t// out\n        /* \"#utility.yul\":10269:10386   */\n    tag_358:\n        /* \"#utility.yul\":10378:10379   */\n      0x00\n        /* \"#utility.yul\":10375:10376   */\n      0x00\n        /* \"#utility.yul\":10368:10380   */\n      revert\n        /* \"#utility.yul\":10392:10509   */\n    tag_359:\n        /* \"#utility.yul\":10501:10502   */\n      0x00\n        /* \"#utility.yul\":10498:10499   */\n      0x00\n        /* \"#utility.yul\":10491:10503   */\n      revert\n        /* \"#utility.yul\":10515:10654   */\n    tag_360:\n        /* \"#utility.yul\":10604:10610   */\n      dup3\n        /* \"#utility.yul\":10599:10602   */\n      dup2\n        /* \"#utility.yul\":10594:10597   */\n      dup4\n        /* \"#utility.yul\":10588:10611   */\n      mcopy\n        /* \"#utility.yul\":10645:10646   */\n      0x00\n        /* \"#utility.yul\":10636:10642   */\n      dup4\n        /* \"#utility.yul\":10631:10634   */\n      dup4\n        /* \"#utility.yul\":10627:10643   */\n      add\n        /* \"#utility.yul\":10620:10647   */\n      mstore\n        /* \"#utility.yul\":10515:10654   */\n      pop\n      pop\n      pop\n      jump\t// out\n        /* \"#utility.yul\":10660:11094   */\n    tag_361:\n        /* \"#utility.yul\":10749:10754   */\n      0x00\n        /* \"#utility.yul\":10774:10840   */\n      tag_552\n        /* \"#utility.yul\":10790:10839   */\n      tag_553\n        /* \"#utility.yul\":10832:10838   */\n      dup5\n        /* \"#utility.yul\":10790:10839   */\n      tag_339\n      jump\t// in\n    tag_553:\n        /* \"#utility.yul\":10774:10840   */\n      tag_338\n      jump\t// in\n    tag_552:\n        /* \"#utility.yul\":10765:10840   */\n      swap1\n      pop\n        /* \"#utility.yul\":10863:10869   */\n      dup3\n        /* \"#utility.yul\":10856:10861   */\n      dup2\n        /* \"#utility.yul\":10849:10870   */\n      mstore\n        /* \"#utility.yul\":10901:10905   */\n      0x20\n        /* \"#utility.yul\":10894:10899   */\n      dup2\n        /* \"#utility.yul\":10890:10906   */\n      add\n        /* \"#utility.yul\":10939:10942   */\n      dup5\n        /* \"#utility.yul\":10930:10936   */\n      dup5\n        /* \"#utility.yul\":10925:10928   */\n      dup5\n        /* \"#utility.yul\":10921:10937   */\n      add\n        /* \"#utility.yul\":10918:10943   */\n      gt\n        /* \"#utility.yul\":10915:11027   */\n      iszero\n      tag_554\n      jumpi\n        /* \"#utility.yul\":10946:11025   */\n      tag_555\n      tag_335\n      jump\t// in\n    tag_555:\n        /* \"#utility.yul\":10915:11027   */\n    tag_554:\n        /* \"#utility.yul\":11036:11088   */\n      tag_556\n        /* \"#utility.yul\":11081:11087   */\n      dup5\n        /* \"#utility.yul\":11076:11079   */\n      dup3\n        /* \"#utility.yul\":11071:11074   */\n      dup6\n        /* \"#utility.yul\":11036:11088   */\n      tag_360\n      jump\t// in\n    tag_556:\n        /* \"#utility.yul\":10755:11094   */\n      pop\n        /* \"#utility.yul\":10660:11094   */\n      swap4\n      swap3\n      pop\n      pop\n      pop\n      jump\t// out\n        /* \"#utility.yul\":11114:11469   */\n    tag_362:\n        /* \"#utility.yul\":11181:11186   */\n      0x00\n        /* \"#utility.yul\":11230:11233   */\n      dup3\n        /* \"#utility.yul\":11223:11227   */\n      0x1f\n        /* \"#utility.yul\":11215:11221   */\n      dup4\n        /* \"#utility.yul\":11211:11228   */\n      add\n        /* \"#utility.yul\":11207:11234   */\n      slt\n        /* \"#utility.yul\":11197:11319   */\n      tag_558\n      jumpi\n        /* \"#utility.yul\":11238:11317   */\n      tag_559\n      tag_334\n      jump\t// in\n    tag_559:\n        /* \"#utility.yul\":11197:11319   */\n    tag_558:\n        /* \"#utility.yul\":11348:11354   */\n      dup2\n        /* \"#utility.yul\":11342:11355   */\n      mload\n        /* \"#utility.yul\":11373:11463   */\n      tag_560\n        /* \"#utility.yul\":11459:11462   */\n      dup5\n        /* \"#utility.yul\":11451:11457   */\n      dup3\n        /* \"#utility.yul\":11444:11448   */\n      0x20\n        /* \"#utility.yul\":11436:11442   */\n      dup7\n        /* \"#utility.yul\":11432:11449   */\n      add\n        /* \"#utility.yul\":11373:11463   */\n      tag_361\n      jump\t// in\n    tag_560:\n        /* \"#utility.yul\":11364:11463   */\n      swap2\n      pop\n        /* \"#utility.yul\":11187:11469   */\n      pop\n        /* \"#utility.yul\":11114:11469   */\n      swap3\n      swap2\n      pop\n      pop\n      jump\t// out\n        /* \"#utility.yul\":11475:11811   */\n    tag_363:\n        /* \"#utility.yul\":11577:11581   */\n      0x00\n        /* \"#utility.yul\":11667:11685   */\n      0xffffffffffffffff\n        /* \"#utility.yul\":11659:11665   */\n      dup3\n        /* \"#utility.yul\":11656:11686   */\n      gt\n        /* \"#utility.yul\":11653:11709   */\n      iszero\n      tag_562\n      jumpi\n        /* \"#utility.yul\":11689:11707   */\n      tag_563\n      tag_171\n      jump\t// in\n    tag_563:\n        /* \"#utility.yul\":11653:11709   */\n    tag_562:\n        /* \"#utility.yul\":11739:11743   */\n      0x20\n        /* \"#utility.yul\":11731:11737   */\n      dup3\n        /* \"#utility.yul\":11727:11744   */\n      mul\n        /* \"#utility.yul\":11719:11744   */\n      swap1\n      pop\n        /* \"#utility.yul\":11799:11803   */\n      0x20\n        /* \"#utility.yul\":11793:11797   */\n      dup2\n        /* \"#utility.yul\":11789:11804   */\n      add\n        /* \"#utility.yul\":11781:11804   */\n      swap1\n      pop\n        /* \"#utility.yul\":11475:11811   */\n      swap2\n      swap1\n      pop\n      jump\t// out\n        /* \"#utility.yul\":11817:11934   */\n    tag_364:\n        /* \"#utility.yul\":11926:11927   */\n      0x00\n        /* \"#utility.yul\":11923:11924   */\n      0x00\n        /* \"#utility.yul\":11916:11928   */\n      revert\n        /* \"#utility.yul\":11940:12083   */\n    tag_365:\n        /* \"#utility.yul\":11997:12002   */\n      0x00\n        /* \"#utility.yul\":12028:12034   */\n      dup2\n        /* \"#utility.yul\":12022:12035   */\n      mload\n        /* \"#utility.yul\":12013:12035   */\n      swap1\n      pop\n        /* \"#utility.yul\":12044:12077   */\n      tag_566\n        /* \"#utility.yul\":12071:12076   */\n      dup2\n        /* \"#utility.yul\":12044:12077   */\n      tag_350\n      jump\t// in\n    tag_566:\n        /* \"#utility.yul\":11940:12083   */\n      swap3\n      swap2\n      pop\n      pop\n      jump\t// out\n        /* \"#utility.yul\":12089:12178   */\n    tag_366:\n        /* \"#utility.yul\":12125:12132   */\n      0x00\n        /* \"#utility.yul\":12165:12171   */\n      0xffff\n        /* \"#utility.yul\":12158:12163   */\n      dup3\n        /* \"#utility.yul\":12154:12172   */\n      and\n        /* \"#utility.yul\":12143:12172   */\n      swap1\n      pop\n        /* \"#utility.yul\":12089:12178   */\n      swap2\n      swap1\n      pop\n      jump\t// out\n        /* \"#utility.yul\":12184:12304   */\n    tag_367:\n        /* \"#utility.yul\":12256:12279   */\n      tag_569\n        /* \"#utility.yul\":12273:12278   */\n      dup2\n        /* \"#utility.yul\":12256:12279   */\n      tag_366\n      jump\t// in\n    tag_569:\n        /* \"#utility.yul\":12249:12254   */\n      dup2\n        /* \"#utility.yul\":12246:12280   */\n      eq\n        /* \"#utility.yul\":12236:12298   */\n      tag_570\n      jumpi\n        /* \"#utility.yul\":12294:12295   */\n      0x00\n        /* \"#utility.yul\":12291:12292   */\n      0x00\n        /* \"#utility.yul\":12284:12296   */\n      revert\n        /* \"#utility.yul\":12236:12298   */\n    tag_570:\n        /* \"#utility.yul\":12184:12304   */\n      pop\n      jump\t// out\n        /* \"#utility.yul\":12310:12451   */\n    tag_368:\n        /* \"#utility.yul\":12366:12371   */\n      0x00\n        /* \"#utility.yul\":12397:12403   */\n      dup2\n        /* \"#utility.yul\":12391:12404   */\n      mload\n        /* \"#utility.yul\":12382:12404   */\n      swap1\n      pop\n        /* \"#utility.yul\":12413:12445   */\n      tag_572\n        /* \"#utility.yul\":12439:12444   */\n      dup2\n        /* \"#utility.yul\":12413:12445   */\n      tag_367\n      jump\t// in\n    tag_572:\n        /* \"#utility.yul\":12310:12451   */\n      swap3\n      swap2\n      pop\n      pop\n      jump\t// out\n        /* \"#utility.yul\":12479:13099   */\n    tag_369:\n        /* \"#utility.yul\":12564:12569   */\n      0x00\n        /* \"#utility.yul\":12608:12612   */\n      0x40\n        /* \"#utility.yul\":12596:12605   */\n      dup3\n        /* \"#utility.yul\":12591:12594   */\n      dup5\n        /* \"#utility.yul\":12587:12606   */\n      sub\n        /* \"#utility.yul\":12583:12613   */\n      slt\n        /* \"#utility.yul\":12580:12697   */\n      iszero\n      tag_574\n      jumpi\n        /* \"#utility.yul\":12616:12695   */\n      tag_575\n      tag_358\n      jump\t// in\n    tag_575:\n        /* \"#utility.yul\":12580:12697   */\n    tag_574:\n        /* \"#utility.yul\":12715:12736   */\n      tag_576\n        /* \"#utility.yul\":12731:12735   */\n      0x40\n        /* \"#utility.yul\":12715:12736   */\n      tag_338\n      jump\t// in\n    tag_576:\n        /* \"#utility.yul\":12706:12736   */\n      swap1\n      pop\n        /* \"#utility.yul\":12803:12804   */\n      0x00\n        /* \"#utility.yul\":12843:12903   */\n      tag_577\n        /* \"#utility.yul\":12899:12902   */\n      dup5\n        /* \"#utility.yul\":12890:12896   */\n      dup3\n        /* \"#utility.yul\":12879:12888   */\n      dup6\n        /* \"#utility.yul\":12875:12897   */\n      add\n        /* \"#utility.yul\":12843:12903   */\n      tag_365\n      jump\t// in\n    tag_577:\n        /* \"#utility.yul\":12836:12840   */\n      0x00\n        /* \"#utility.yul\":12829:12834   */\n      dup4\n        /* \"#utility.yul\":12825:12841   */\n      add\n        /* \"#utility.yul\":12818:12904   */\n      mstore\n        /* \"#utility.yul\":12746:12915   */\n      pop\n        /* \"#utility.yul\":12980:12982   */\n      0x20\n        /* \"#utility.yul\":13021:13080   */\n      tag_578\n        /* \"#utility.yul\":13076:13079   */\n      dup5\n        /* \"#utility.yul\":13067:13073   */\n      dup3\n        /* \"#utility.yul\":13056:13065   */\n      dup6\n        /* \"#utility.yul\":13052:13074   */\n      add\n        /* \"#utility.yul\":13021:13080   */\n      tag_368\n      jump\t// in\n    tag_578:\n        /* \"#utility.yul\":13014:13018   */\n      0x20\n        /* \"#utility.yul\":13007:13012   */\n      dup4\n        /* \"#utility.yul\":13003:13019   */\n      add\n        /* \"#utility.yul\":12996:13081   */\n      mstore\n        /* \"#utility.yul\":12925:13092   */\n      pop\n        /* \"#utility.yul\":12479:13099   */\n      swap3\n      swap2\n      pop\n      pop\n      jump\t// out\n        /* \"#utility.yul\":13129:13936   */\n    tag_370:\n        /* \"#utility.yul\":13261:13266   */\n      0x00\n        /* \"#utility.yul\":13286:13392   */\n      tag_580\n        /* \"#utility.yul\":13302:13391   */\n      tag_581\n        /* \"#utility.yul\":13384:13390   */\n      dup5\n        /* \"#utility.yul\":13302:13391   */\n      tag_363\n      jump\t// in\n    tag_581:\n        /* \"#utility.yul\":13286:13392   */\n      tag_338\n      jump\t// in\n    tag_580:\n        /* \"#utility.yul\":13277:13392   */\n      swap1\n      pop\n        /* \"#utility.yul\":13412:13417   */\n      dup1\n        /* \"#utility.yul\":13441:13447   */\n      dup4\n        /* \"#utility.yul\":13434:13439   */\n      dup3\n        /* \"#utility.yul\":13427:13448   */\n      mstore\n        /* \"#utility.yul\":13475:13479   */\n      0x20\n        /* \"#utility.yul\":13468:13473   */\n      dup3\n        /* \"#utility.yul\":13464:13480   */\n      add\n        /* \"#utility.yul\":13457:13480   */\n      swap1\n      pop\n        /* \"#utility.yul\":13528:13532   */\n      0x40\n        /* \"#utility.yul\":13520:13526   */\n      dup5\n        /* \"#utility.yul\":13516:13533   */\n      mul\n        /* \"#utility.yul\":13508:13514   */\n      dup4\n        /* \"#utility.yul\":13504:13534   */\n      add\n        /* \"#utility.yul\":13557:13560   */\n      dup6\n        /* \"#utility.yul\":13549:13555   */\n      dup2\n        /* \"#utility.yul\":13546:13561   */\n      gt\n        /* \"#utility.yul\":13543:13665   */\n      iszero\n      tag_582\n      jumpi\n        /* \"#utility.yul\":13576:13655   */\n      tag_583\n      tag_364\n      jump\t// in\n    tag_583:\n        /* \"#utility.yul\":13543:13665   */\n    tag_582:\n        /* \"#utility.yul\":13691:13697   */\n      dup4\n        /* \"#utility.yul\":13674:13930   */\n    tag_584:\n        /* \"#utility.yul\":13708:13714   */\n      dup2\n        /* \"#utility.yul\":13703:13706   */\n      dup2\n        /* \"#utility.yul\":13700:13715   */\n      lt\n        /* \"#utility.yul\":13674:13930   */\n      iszero\n      tag_586\n      jumpi\n        /* \"#utility.yul\":13783:13786   */\n      dup1\n        /* \"#utility.yul\":13812:13885   */\n      tag_587\n        /* \"#utility.yul\":13881:13884   */\n      dup9\n        /* \"#utility.yul\":13869:13879   */\n      dup3\n        /* \"#utility.yul\":13812:13885   */\n      tag_369\n      jump\t// in\n    tag_587:\n        /* \"#utility.yul\":13807:13810   */\n      dup5\n        /* \"#utility.yul\":13800:13886   */\n      mstore\n        /* \"#utility.yul\":13915:13919   */\n      0x20\n        /* \"#utility.yul\":13910:13913   */\n      dup5\n        /* \"#utility.yul\":13906:13920   */\n      add\n        /* \"#utility.yul\":13899:13920   */\n      swap4\n      pop\n        /* \"#utility.yul\":13750:13930   */\n      pop\n        /* \"#utility.yul\":13734:13738   */\n      0x40\n        /* \"#utility.yul\":13729:13732   */\n      dup2\n        /* \"#utility.yul\":13725:13739   */\n      add\n        /* \"#utility.yul\":13718:13739   */\n      swap1\n      pop\n        /* \"#utility.yul\":13674:13930   */\n      jump(tag_584)\n    tag_586:\n        /* \"#utility.yul\":13678:13699   */\n      pop\n        /* \"#utility.yul\":13267:13936   */\n      pop\n      pop\n        /* \"#utility.yul\":13129:13936   */\n      swap4\n      swap3\n      pop\n      pop\n      pop\n      jump\t// out\n        /* \"#utility.yul\":13966:14401   */\n    tag_371:\n        /* \"#utility.yul\":14073:14078   */\n      0x00\n        /* \"#utility.yul\":14122:14125   */\n      dup3\n        /* \"#utility.yul\":14115:14119   */\n      0x1f\n        /* \"#utility.yul\":14107:14113   */\n      dup4\n        /* \"#utility.yul\":14103:14120   */\n      add\n        /* \"#utility.yul\":14099:14126   */\n      slt\n        /* \"#utility.yul\":14089:14211   */\n      tag_589\n      jumpi\n        /* \"#utility.yul\":14130:14209   */\n      tag_590\n      tag_334\n      jump\t// in\n    tag_590:\n        /* \"#utility.yul\":14089:14211   */\n    tag_589:\n        /* \"#utility.yul\":14240:14246   */\n      dup2\n        /* \"#utility.yul\":14234:14247   */\n      mload\n        /* \"#utility.yul\":14265:14395   */\n      tag_591\n        /* \"#utility.yul\":14391:14394   */\n      dup5\n        /* \"#utility.yul\":14383:14389   */\n      dup3\n        /* \"#utility.yul\":14376:14380   */\n      0x20\n        /* \"#utility.yul\":14368:14374   */\n      dup7\n        /* \"#utility.yul\":14364:14381   */\n      add\n        /* \"#utility.yul\":14265:14395   */\n      tag_370\n      jump\t// in\n    tag_591:\n        /* \"#utility.yul\":14256:14395   */\n      swap2\n      pop\n        /* \"#utility.yul\":14079:14401   */\n      pop\n        /* \"#utility.yul\":13966:14401   */\n      swap3\n      swap2\n      pop\n      pop\n      jump\t// out\n        /* \"#utility.yul\":14427:15739   */\n    tag_372:\n        /* \"#utility.yul\":14510:14515   */\n      0x00\n        /* \"#utility.yul\":14554:14558   */\n      0x60\n        /* \"#utility.yul\":14542:14551   */\n      dup3\n        /* \"#utility.yul\":14537:14540   */\n      dup5\n        /* \"#utility.yul\":14533:14552   */\n      sub\n        /* \"#utility.yul\":14529:14559   */\n      slt\n        /* \"#utility.yul\":14526:14643   */\n      iszero\n      tag_593\n      jumpi\n        /* \"#utility.yul\":14562:14641   */\n      tag_594\n      tag_358\n      jump\t// in\n    tag_594:\n        /* \"#utility.yul\":14526:14643   */\n    tag_593:\n        /* \"#utility.yul\":14661:14682   */\n      tag_595\n        /* \"#utility.yul\":14677:14681   */\n      0x60\n        /* \"#utility.yul\":14661:14682   */\n      tag_338\n      jump\t// in\n    tag_595:\n        /* \"#utility.yul\":14652:14682   */\n      swap1\n      pop\n        /* \"#utility.yul\":14762:14763   */\n      0x00\n        /* \"#utility.yul\":14751:14760   */\n      dup3\n        /* \"#utility.yul\":14747:14764   */\n      add\n        /* \"#utility.yul\":14741:14765   */\n      mload\n        /* \"#utility.yul\":14792:14810   */\n      0xffffffffffffffff\n        /* \"#utility.yul\":14784:14790   */\n      dup2\n        /* \"#utility.yul\":14781:14811   */\n      gt\n        /* \"#utility.yul\":14778:14895   */\n      iszero\n      tag_596\n      jumpi\n        /* \"#utility.yul\":14814:14893   */\n      tag_597\n      tag_359\n      jump\t// in\n    tag_597:\n        /* \"#utility.yul\":14778:14895   */\n    tag_596:\n        /* \"#utility.yul\":14934:15004   */\n      tag_598\n        /* \"#utility.yul\":15000:15003   */\n      dup5\n        /* \"#utility.yul\":14991:14997   */\n      dup3\n        /* \"#utility.yul\":14980:14989   */\n      dup6\n        /* \"#utility.yul\":14976:14998   */\n      add\n        /* \"#utility.yul\":14934:15004   */\n      tag_362\n      jump\t// in\n    tag_598:\n        /* \"#utility.yul\":14927:14931   */\n      0x00\n        /* \"#utility.yul\":14920:14925   */\n      dup4\n        /* \"#utility.yul\":14916:14932   */\n      add\n        /* \"#utility.yul\":14909:15005   */\n      mstore\n        /* \"#utility.yul\":14692:15016   */\n      pop\n        /* \"#utility.yul\":15098:15100   */\n      0x20\n        /* \"#utility.yul\":15087:15096   */\n      dup3\n        /* \"#utility.yul\":15083:15101   */\n      add\n        /* \"#utility.yul\":15077:15102   */\n      mload\n        /* \"#utility.yul\":15129:15147   */\n      0xffffffffffffffff\n        /* \"#utility.yul\":15121:15127   */\n      dup2\n        /* \"#utility.yul\":15118:15148   */\n      gt\n        /* \"#utility.yul\":15115:15232   */\n      iszero\n      tag_599\n      jumpi\n        /* \"#utility.yul\":15151:15230   */\n      tag_600\n      tag_359\n      jump\t// in\n    tag_600:\n        /* \"#utility.yul\":15115:15232   */\n    tag_599:\n        /* \"#utility.yul\":15271:15341   */\n      tag_601\n        /* \"#utility.yul\":15337:15340   */\n      dup5\n        /* \"#utility.yul\":15328:15334   */\n      dup3\n        /* \"#utility.yul\":15317:15326   */\n      dup6\n        /* \"#utility.yul\":15313:15335   */\n      add\n        /* \"#utility.yul\":15271:15341   */\n      tag_362\n      jump\t// in\n    tag_601:\n        /* \"#utility.yul\":15264:15268   */\n      0x20\n        /* \"#utility.yul\":15257:15262   */\n      dup4\n        /* \"#utility.yul\":15253:15269   */\n      add\n        /* \"#utility.yul\":15246:15342   */\n      mstore\n        /* \"#utility.yul\":15026:15353   */\n      pop\n        /* \"#utility.yul\":15437:15439   */\n      0x40\n        /* \"#utility.yul\":15426:15435   */\n      dup3\n        /* \"#utility.yul\":15422:15440   */\n      add\n        /* \"#utility.yul\":15416:15441   */\n      mload\n        /* \"#utility.yul\":15468:15486   */\n      0xffffffffffffffff\n        /* \"#utility.yul\":15460:15466   */\n      dup2\n        /* \"#utility.yul\":15457:15487   */\n      gt\n        /* \"#utility.yul\":15454:15571   */\n      iszero\n      tag_602\n      jumpi\n        /* \"#utility.yul\":15490:15569   */\n      tag_603\n      tag_359\n      jump\t// in\n    tag_603:\n        /* \"#utility.yul\":15454:15571   */\n    tag_602:\n        /* \"#utility.yul\":15610:15720   */\n      tag_604\n        /* \"#utility.yul\":15716:15719   */\n      dup5\n        /* \"#utility.yul\":15707:15713   */\n      dup3\n        /* \"#utility.yul\":15696:15705   */\n      dup6\n        /* \"#utility.yul\":15692:15714   */\n      add\n        /* \"#utility.yul\":15610:15720   */\n      tag_371\n      jump\t// in\n    tag_604:\n        /* \"#utility.yul\":15603:15607   */\n      0x40\n        /* \"#utility.yul\":15596:15601   */\n      dup4\n        /* \"#utility.yul\":15592:15608   */\n      add\n        /* \"#utility.yul\":15585:15721   */\n      mstore\n        /* \"#utility.yul\":15363:15732   */\n      pop\n        /* \"#utility.yul\":14427:15739   */\n      swap3\n      swap2\n      pop\n      pop\n      jump\t// out\n        /* \"#utility.yul\":15745:16295   */\n    tag_55:\n        /* \"#utility.yul\":15838:15844   */\n      0x00\n        /* \"#utility.yul\":15887:15889   */\n      0x20\n        /* \"#utility.yul\":15875:15884   */\n      dup3\n        /* \"#utility.yul\":15866:15873   */\n      dup5\n        /* \"#utility.yul\":15862:15885   */\n      sub\n        /* \"#utility.yul\":15858:15890   */\n      slt\n        /* \"#utility.yul\":15855:15974   */\n      iszero\n      tag_606\n      jumpi\n        /* \"#utility.yul\":15893:15972   */\n      tag_607\n      tag_325\n      jump\t// in\n    tag_607:\n        /* \"#utility.yul\":15855:15974   */\n    tag_606:\n        /* \"#utility.yul\":16034:16035   */\n      0x00\n        /* \"#utility.yul\":16023:16032   */\n      dup3\n        /* \"#utility.yul\":16019:16036   */\n      add\n        /* \"#utility.yul\":16013:16037   */\n      mload\n        /* \"#utility.yul\":16064:16082   */\n      0xffffffffffffffff\n        /* \"#utility.yul\":16056:16062   */\n      dup2\n        /* \"#utility.yul\":16053:16083   */\n      gt\n        /* \"#utility.yul\":16050:16167   */\n      iszero\n      tag_608\n      jumpi\n        /* \"#utility.yul\":16086:16165   */\n      tag_609\n      tag_326\n      jump\t// in\n    tag_609:\n        /* \"#utility.yul\":16050:16167   */\n    tag_608:\n        /* \"#utility.yul\":16191:16278   */\n      tag_610\n        /* \"#utility.yul\":16270:16277   */\n      dup5\n        /* \"#utility.yul\":16261:16267   */\n      dup3\n        /* \"#utility.yul\":16250:16259   */\n      dup6\n        /* \"#utility.yul\":16246:16268   */\n      add\n        /* \"#utility.yul\":16191:16278   */\n      tag_372\n      jump\t// in\n    tag_610:\n        /* \"#utility.yul\":16181:16278   */\n      swap2\n      pop\n        /* \"#utility.yul\":15984:16288   */\n      pop\n        /* \"#utility.yul\":15745:16295   */\n      swap3\n      swap2\n      pop\n      pop\n      jump\t// out\n        /* \"#utility.yul\":16301:16444   */\n    tag_373:\n        /* \"#utility.yul\":16358:16363   */\n      0x00\n        /* \"#utility.yul\":16389:16395   */\n      dup2\n        /* \"#utility.yul\":16383:16396   */\n      mload\n        /* \"#utility.yul\":16374:16396   */\n      swap1\n      pop\n        /* \"#utility.yul\":16405:16438   */\n      tag_612\n        /* \"#utility.yul\":16432:16437   */\n      dup2\n        /* \"#utility.yul\":16405:16438   */\n      tag_328\n      jump\t// in\n    tag_612:\n        /* \"#utility.yul\":16301:16444   */\n      swap3\n      swap2\n      pop\n      pop\n      jump\t// out\n        /* \"#utility.yul\":16450:16801   */\n    tag_61:\n        /* \"#utility.yul\":16520:16526   */\n      0x00\n        /* \"#utility.yul\":16569:16571   */\n      0x20\n        /* \"#utility.yul\":16557:16566   */\n      dup3\n        /* \"#utility.yul\":16548:16555   */\n      dup5\n        /* \"#utility.yul\":16544:16567   */\n      sub\n        /* \"#utility.yul\":16540:16572   */\n      slt\n        /* \"#utility.yul\":16537:16656   */\n      iszero\n      tag_614\n      jumpi\n        /* \"#utility.yul\":16575:16654   */\n      tag_615\n      tag_325\n      jump\t// in\n    tag_615:\n        /* \"#utility.yul\":16537:16656   */\n    tag_614:\n        /* \"#utility.yul\":16695:16696   */\n      0x00\n        /* \"#utility.yul\":16720:16784   */\n      tag_616\n        /* \"#utility.yul\":16776:16783   */\n      dup5\n        /* \"#utility.yul\":16767:16773   */\n      dup3\n        /* \"#utility.yul\":16756:16765   */\n      dup6\n        /* \"#utility.yul\":16752:16774   */\n      add\n        /* \"#utility.yul\":16720:16784   */\n      tag_373\n      jump\t// in\n    tag_616:\n        /* \"#utility.yul\":16710:16784   */\n      swap2\n      pop\n        /* \"#utility.yul\":16666:16794   */\n      pop\n        /* \"#utility.yul\":16450:16801   */\n      swap3\n      swap2\n      pop\n      pop\n      jump\t// out\n        /* \"#utility.yul\":16807:16988   */\n    tag_374:\n        /* \"#utility.yul\":16947:16980   */\n      0x457466526f757465723a20746f6b656e20737570706c79206973207a65726f00\n        /* \"#utility.yul\":16943:16944   */\n      0x00\n        /* \"#utility.yul\":16935:16941   */\n      dup3\n        /* \"#utility.yul\":16931:16945   */\n      add\n        /* \"#utility.yul\":16924:16981   */\n      mstore\n        /* \"#utility.yul\":16807:16988   */\n      pop\n      jump\t// out\n        /* \"#utility.yul\":16994:17360   */\n    tag_375:\n        /* \"#utility.yul\":17136:17139   */\n      0x00\n        /* \"#utility.yul\":17157:17224   */\n      tag_619\n        /* \"#utility.yul\":17221:17223   */\n      0x1f\n        /* \"#utility.yul\":17216:17219   */\n      dup4\n        /* \"#utility.yul\":17157:17224   */\n      tag_352\n      jump\t// in\n    tag_619:\n        /* \"#utility.yul\":17150:17224   */\n      swap2\n      pop\n        /* \"#utility.yul\":17233:17326   */\n      tag_620\n        /* \"#utility.yul\":17322:17325   */\n      dup3\n        /* \"#utility.yul\":17233:17326   */\n      tag_374\n      jump\t// in\n    tag_620:\n        /* \"#utility.yul\":17351:17353   */\n      0x20\n        /* \"#utility.yul\":17346:17349   */\n      dup3\n        /* \"#utility.yul\":17342:17354   */\n      add\n        /* \"#utility.yul\":17335:17354   */\n      swap1\n      pop\n        /* \"#utility.yul\":16994:17360   */\n      swap2\n      swap1\n      pop\n      jump\t// out\n        /* \"#utility.yul\":17366:17785   */\n    tag_64:\n        /* \"#utility.yul\":17532:17536   */\n      0x00\n        /* \"#utility.yul\":17570:17572   */\n      0x20\n        /* \"#utility.yul\":17559:17568   */\n      dup3\n        /* \"#utility.yul\":17555:17573   */\n      add\n        /* \"#utility.yul\":17547:17573   */\n      swap1\n      pop\n        /* \"#utility.yul\":17619:17628   */\n      dup2\n        /* \"#utility.yul\":17613:17617   */\n      dup2\n        /* \"#utility.yul\":17609:17629   */\n      sub\n        /* \"#utility.yul\":17605:17606   */\n      0x00\n        /* \"#utility.yul\":17594:17603   */\n      dup4\n        /* \"#utility.yul\":17590:17607   */\n      add\n        /* \"#utility.yul\":17583:17630   */\n      mstore\n        /* \"#utility.yul\":17647:17778   */\n      tag_622\n        /* \"#utility.yul\":17773:17777   */\n      dup2\n        /* \"#utility.yul\":17647:17778   */\n      tag_375\n      jump\t// in\n    tag_622:\n        /* \"#utility.yul\":17639:17778   */\n      swap1\n      pop\n        /* \"#utility.yul\":17366:17785   */\n      swap2\n      swap1\n      pop\n      jump\t// out\n        /* \"#utility.yul\":17791:18033   */\n    tag_376:\n        /* \"#utility.yul\":17931:17965   */\n      0x457466526f757465723a2073656c6c546f6b656e416d6f756e74206973206772\n        /* \"#utility.yul\":17927:17928   */\n      0x00\n        /* \"#utility.yul\":17919:17925   */\n      dup3\n        /* \"#utility.yul\":17915:17929   */\n      add\n        /* \"#utility.yul\":17908:17966   */\n      mstore\n        /* \"#utility.yul\":18000:18025   */\n      0x6561746572207468616e20746f74616c20737570706c79000000000000000000\n        /* \"#utility.yul\":17995:17997   */\n      0x20\n        /* \"#utility.yul\":17987:17993   */\n      dup3\n        /* \"#utility.yul\":17983:17998   */\n      add\n        /* \"#utility.yul\":17976:18026   */\n      mstore\n        /* \"#utility.yul\":17791:18033   */\n      pop\n      jump\t// out\n        /* \"#utility.yul\":18039:18405   */\n    tag_377:\n        /* \"#utility.yul\":18181:18184   */\n      0x00\n        /* \"#utility.yul\":18202:18269   */\n      tag_625\n        /* \"#utility.yul\":18266:18268   */\n      0x37\n        /* \"#utility.yul\":18261:18264   */\n      dup4\n        /* \"#utility.yul\":18202:18269   */\n      tag_352\n      jump\t// in\n    tag_625:\n        /* \"#utility.yul\":18195:18269   */\n      swap2\n      pop\n        /* \"#utility.yul\":18278:18371   */\n      tag_626\n        /* \"#utility.yul\":18367:18370   */\n      dup3\n        /* \"#utility.yul\":18278:18371   */\n      tag_376\n      jump\t// in\n    tag_626:\n        /* \"#utility.yul\":18396:18398   */\n      0x40\n        /* \"#utility.yul\":18391:18394   */\n      dup3\n        /* \"#utility.yul\":18387:18399   */\n      add\n        /* \"#utility.yul\":18380:18399   */\n      swap1\n      pop\n        /* \"#utility.yul\":18039:18405   */\n      swap2\n      swap1\n      pop\n      jump\t// out\n        /* \"#utility.yul\":18411:18830   */\n    tag_67:\n        /* \"#utility.yul\":18577:18581   */\n      0x00\n        /* \"#utility.yul\":18615:18617   */\n      0x20\n        /* \"#utility.yul\":18604:18613   */\n      dup3\n        /* \"#utility.yul\":18600:18618   */\n      add\n        /* \"#utility.yul\":18592:18618   */\n      swap1\n      pop\n        /* \"#utility.yul\":18664:18673   */\n      dup2\n        /* \"#utility.yul\":18658:18662   */\n      dup2\n        /* \"#utility.yul\":18654:18674   */\n      sub\n        /* \"#utility.yul\":18650:18651   */\n      0x00\n        /* \"#utility.yul\":18639:18648   */\n      dup4\n        /* \"#utility.yul\":18635:18652   */\n      add\n        /* \"#utility.yul\":18628:18675   */\n      mstore\n        /* \"#utility.yul\":18692:18823   */\n      tag_628\n        /* \"#utility.yul\":18818:18822   */\n      dup2\n        /* \"#utility.yul\":18692:18823   */\n      tag_377\n      jump\t// in\n    tag_628:\n        /* \"#utility.yul\":18684:18823   */\n      swap1\n      pop\n        /* \"#utility.yul\":18411:18830   */\n      swap2\n      swap1\n      pop\n      jump\t// out\n        /* \"#utility.yul\":18836:19168   */\n    tag_69:\n        /* \"#utility.yul\":18957:18961   */\n      0x00\n        /* \"#utility.yul\":18995:18997   */\n      0x40\n        /* \"#utility.yul\":18984:18993   */\n      dup3\n        /* \"#utility.yul\":18980:18998   */\n      add\n        /* \"#utility.yul\":18972:18998   */\n      swap1\n      pop\n        /* \"#utility.yul\":19008:19079   */\n      tag_630\n        /* \"#utility.yul\":19076:19077   */\n      0x00\n        /* \"#utility.yul\":19065:19074   */\n      dup4\n        /* \"#utility.yul\":19061:19078   */\n      add\n        /* \"#utility.yul\":19052:19058   */\n      dup6\n        /* \"#utility.yul\":19008:19079   */\n      tag_344\n      jump\t// in\n    tag_630:\n        /* \"#utility.yul\":19089:19161   */\n      tag_631\n        /* \"#utility.yul\":19157:19159   */\n      0x20\n        /* \"#utility.yul\":19146:19155   */\n      dup4\n        /* \"#utility.yul\":19142:19160   */\n      add\n        /* \"#utility.yul\":19133:19139   */\n      dup5\n        /* \"#utility.yul\":19089:19161   */\n      tag_357\n      jump\t// in\n    tag_631:\n        /* \"#utility.yul\":18836:19168   */\n      swap4\n      swap3\n      pop\n      pop\n      pop\n      jump\t// out\n        /* \"#utility.yul\":19174:19354   */\n    tag_378:\n        /* \"#utility.yul\":19222:19299   */\n      0x4e487b7100000000000000000000000000000000000000000000000000000000\n        /* \"#utility.yul\":19219:19220   */\n      0x00\n        /* \"#utility.yul\":19212:19300   */\n      mstore\n        /* \"#utility.yul\":19319:19323   */\n      0x11\n        /* \"#utility.yul\":19316:19317   */\n      0x04\n        /* \"#utility.yul\":19309:19324   */\n      mstore\n        /* \"#utility.yul\":19343:19347   */\n      0x24\n        /* \"#utility.yul\":19340:19341   */\n      0x00\n        /* \"#utility.yul\":19333:19348   */\n      revert\n        /* \"#utility.yul\":19360:19554   */\n    tag_76:\n        /* \"#utility.yul\":19400:19404   */\n      0x00\n        /* \"#utility.yul\":19420:19440   */\n      tag_634\n        /* \"#utility.yul\":19438:19439   */\n      dup3\n        /* \"#utility.yul\":19420:19440   */\n      tag_327\n      jump\t// in\n    tag_634:\n        /* \"#utility.yul\":19415:19440   */\n      swap2\n      pop\n        /* \"#utility.yul\":19454:19474   */\n      tag_635\n        /* \"#utility.yul\":19472:19473   */\n      dup4\n        /* \"#utility.yul\":19454:19474   */\n      tag_327\n      jump\t// in\n    tag_635:\n        /* \"#utility.yul\":19449:19474   */\n      swap3\n      pop\n        /* \"#utility.yul\":19498:19499   */\n      dup3\n        /* \"#utility.yul\":19495:19496   */\n      dup3\n        /* \"#utility.yul\":19491:19500   */\n      sub\n        /* \"#utility.yul\":19483:19500   */\n      swap1\n      pop\n        /* \"#utility.yul\":19522:19523   */\n      dup2\n        /* \"#utility.yul\":19516:19520   */\n      dup2\n        /* \"#utility.yul\":19513:19524   */\n      gt\n        /* \"#utility.yul\":19510:19547   */\n      iszero\n      tag_636\n      jumpi\n        /* \"#utility.yul\":19527:19545   */\n      tag_637\n      tag_378\n      jump\t// in\n    tag_637:\n        /* \"#utility.yul\":19510:19547   */\n    tag_636:\n        /* \"#utility.yul\":19360:19554   */\n      swap3\n      swap2\n      pop\n      pop\n      jump\t// out\n        /* \"#utility.yul\":19560:19694   */\n    tag_379:\n        /* \"#utility.yul\":19618:19627   */\n      0x00\n        /* \"#utility.yul\":19651:19688   */\n      tag_639\n        /* \"#utility.yul\":19682:19687   */\n      dup3\n        /* \"#utility.yul\":19651:19688   */\n      tag_347\n      jump\t// in\n    tag_639:\n        /* \"#utility.yul\":19638:19688   */\n      swap1\n      pop\n        /* \"#utility.yul\":19560:19694   */\n      swap2\n      swap1\n      pop\n      jump\t// out\n        /* \"#utility.yul\":19700:19847   */\n    tag_380:\n        /* \"#utility.yul\":19795:19840   */\n      tag_641\n        /* \"#utility.yul\":19834:19839   */\n      dup2\n        /* \"#utility.yul\":19795:19840   */\n      tag_379\n      jump\t// in\n    tag_641:\n        /* \"#utility.yul\":19790:19793   */\n      dup3\n        /* \"#utility.yul\":19783:19841   */\n      mstore\n        /* \"#utility.yul\":19700:19847   */\n      pop\n      pop\n      jump\t// out\n        /* \"#utility.yul\":19853:20533   */\n    tag_78:\n        /* \"#utility.yul\":20066:20070   */\n      0x00\n        /* \"#utility.yul\":20104:20107   */\n      0xa0\n        /* \"#utility.yul\":20093:20102   */\n      dup3\n        /* \"#utility.yul\":20089:20108   */\n      add\n        /* \"#utility.yul\":20081:20108   */\n      swap1\n      pop\n        /* \"#utility.yul\":20118:20189   */\n      tag_643\n        /* \"#utility.yul\":20186:20187   */\n      0x00\n        /* \"#utility.yul\":20175:20184   */\n      dup4\n        /* \"#utility.yul\":20171:20188   */\n      add\n        /* \"#utility.yul\":20162:20168   */\n      dup9\n        /* \"#utility.yul\":20118:20189   */\n      tag_357\n      jump\t// in\n    tag_643:\n        /* \"#utility.yul\":20199:20271   */\n      tag_644\n        /* \"#utility.yul\":20267:20269   */\n      0x20\n        /* \"#utility.yul\":20256:20265   */\n      dup4\n        /* \"#utility.yul\":20252:20270   */\n      add\n        /* \"#utility.yul\":20243:20249   */\n      dup8\n        /* \"#utility.yul\":20199:20271   */\n      tag_344\n      jump\t// in\n    tag_644:\n        /* \"#utility.yul\":20281:20361   */\n      tag_645\n        /* \"#utility.yul\":20357:20359   */\n      0x40\n        /* \"#utility.yul\":20346:20355   */\n      dup4\n        /* \"#utility.yul\":20342:20360   */\n      add\n        /* \"#utility.yul\":20333:20339   */\n      dup7\n        /* \"#utility.yul\":20281:20361   */\n      tag_380\n      jump\t// in\n    tag_645:\n        /* \"#utility.yul\":20371:20443   */\n      tag_646\n        /* \"#utility.yul\":20439:20441   */\n      0x60\n        /* \"#utility.yul\":20428:20437   */\n      dup4\n        /* \"#utility.yul\":20424:20442   */\n      add\n        /* \"#utility.yul\":20415:20421   */\n      dup6\n        /* \"#utility.yul\":20371:20443   */\n      tag_357\n      jump\t// in\n    tag_646:\n        /* \"#utility.yul\":20453:20526   */\n      tag_647\n        /* \"#utility.yul\":20521:20524   */\n      0x80\n        /* \"#utility.yul\":20510:20519   */\n      dup4\n        /* \"#utility.yul\":20506:20525   */\n      add\n        /* \"#utility.yul\":20497:20503   */\n      dup5\n        /* \"#utility.yul\":20453:20526   */\n      tag_357\n      jump\t// in\n    tag_647:\n        /* \"#utility.yul\":19853:20533   */\n      swap7\n      swap6\n      pop\n      pop\n      pop\n      pop\n      pop\n      pop\n      jump\t// out\n        /* \"#utility.yul\":20539:20638   */\n    tag_381:\n        /* \"#utility.yul\":20591:20597   */\n      0x00\n        /* \"#utility.yul\":20625:20630   */\n      dup2\n        /* \"#utility.yul\":20619:20631   */\n      mload\n        /* \"#utility.yul\":20609:20631   */\n      swap1\n      pop\n        /* \"#utility.yul\":20539:20638   */\n      swap2\n      swap1\n      pop\n      jump\t// out\n        /* \"#utility.yul\":20644:21021   */\n    tag_382:\n        /* \"#utility.yul\":20732:20735   */\n      0x00\n        /* \"#utility.yul\":20760:20799   */\n      tag_650\n        /* \"#utility.yul\":20793:20798   */\n      dup3\n        /* \"#utility.yul\":20760:20799   */\n      tag_381\n      jump\t// in\n    tag_650:\n        /* \"#utility.yul\":20815:20886   */\n      tag_651\n        /* \"#utility.yul\":20879:20885   */\n      dup2\n        /* \"#utility.yul\":20874:20877   */\n      dup6\n        /* \"#utility.yul\":20815:20886   */\n      tag_352\n      jump\t// in\n    tag_651:\n        /* \"#utility.yul\":20808:20886   */\n      swap4\n      pop\n        /* \"#utility.yul\":20895:20960   */\n      tag_652\n        /* \"#utility.yul\":20953:20959   */\n      dup2\n        /* \"#utility.yul\":20948:20951   */\n      dup6\n        /* \"#utility.yul\":20941:20945   */\n      0x20\n        /* \"#utility.yul\":20934:20939   */\n      dup7\n        /* \"#utility.yul\":20930:20946   */\n      add\n        /* \"#utility.yul\":20895:20960   */\n      tag_360\n      jump\t// in\n    tag_652:\n        /* \"#utility.yul\":20985:21014   */\n      tag_653\n        /* \"#utility.yul\":21007:21013   */\n      dup2\n        /* \"#utility.yul\":20985:21014   */\n      tag_336\n      jump\t// in\n    tag_653:\n        /* \"#utility.yul\":20980:20983   */\n      dup5\n        /* \"#utility.yul\":20976:21015   */\n      add\n        /* \"#utility.yul\":20969:21015   */\n      swap2\n      pop\n        /* \"#utility.yul\":20736:21021   */\n      pop\n        /* \"#utility.yul\":20644:21021   */\n      swap3\n      swap2\n      pop\n      pop\n      jump\t// out\n        /* \"#utility.yul\":21027:21340   */\n    tag_83:\n        /* \"#utility.yul\":21140:21144   */\n      0x00\n        /* \"#utility.yul\":21178:21180   */\n      0x20\n        /* \"#utility.yul\":21167:21176   */\n      dup3\n        /* \"#utility.yul\":21163:21181   */\n      add\n        /* \"#utility.yul\":21155:21181   */\n      swap1\n      pop\n        /* \"#utility.yul\":21227:21236   */\n      dup2\n        /* \"#utility.yul\":21221:21225   */\n      dup2\n        /* \"#utility.yul\":21217:21237   */\n      sub\n        /* \"#utility.yul\":21213:21214   */\n      0x00\n        /* \"#utility.yul\":21202:21211   */\n      dup4\n        /* \"#utility.yul\":21198:21215   */\n      add\n        /* \"#utility.yul\":21191:21238   */\n      mstore\n        /* \"#utility.yul\":21255:21333   */\n      tag_655\n        /* \"#utility.yul\":21328:21332   */\n      dup2\n        /* \"#utility.yul\":21319:21325   */\n      dup5\n        /* \"#utility.yul\":21255:21333   */\n      tag_382\n      jump\t// in\n    tag_655:\n        /* \"#utility.yul\":21247:21333   */\n      swap1\n      pop\n        /* \"#utility.yul\":21027:21340   */\n      swap3\n      swap2\n      pop\n      pop\n      jump\t// out\n        /* \"#utility.yul\":21346:21697   */\n    tag_87:\n        /* \"#utility.yul\":21416:21422   */\n      0x00\n        /* \"#utility.yul\":21465:21467   */\n      0x20\n        /* \"#utility.yul\":21453:21462   */\n      dup3\n        /* \"#utility.yul\":21444:21451   */\n      dup5\n        /* \"#utility.yul\":21440:21463   */\n      sub\n        /* \"#utility.yul\":21436:21468   */\n      slt\n        /* \"#utility.yul\":21433:21552   */\n      iszero\n      tag_657\n      jumpi\n        /* \"#utility.yul\":21471:21550   */\n      tag_658\n      tag_325\n      jump\t// in\n    tag_658:\n        /* \"#utility.yul\":21433:21552   */\n    tag_657:\n        /* \"#utility.yul\":21591:21592   */\n      0x00\n        /* \"#utility.yul\":21616:21680   */\n      tag_659\n        /* \"#utility.yul\":21672:21679   */\n      dup5\n        /* \"#utility.yul\":21663:21669   */\n      dup3\n        /* \"#utility.yul\":21652:21661   */\n      dup6\n        /* \"#utility.yul\":21648:21670   */\n      add\n        /* \"#utility.yul\":21616:21680   */\n      tag_365\n      jump\t// in\n    tag_659:\n        /* \"#utility.yul\":21606:21680   */\n      swap2\n      pop\n        /* \"#utility.yul\":21562:21690   */\n      pop\n        /* \"#utility.yul\":21346:21697   */\n      swap3\n      swap2\n      pop\n      pop\n      jump\t// out\n        /* \"#utility.yul\":21703:21925   */\n    tag_383:\n        /* \"#utility.yul\":21843:21877   */\n      0x457466526f757465723a204d73672076616c75652063616e6e6f74206265207a\n        /* \"#utility.yul\":21839:21840   */\n      0x00\n        /* \"#utility.yul\":21831:21837   */\n      dup3\n        /* \"#utility.yul\":21827:21841   */\n      add\n        /* \"#utility.yul\":21820:21878   */\n      mstore\n        /* \"#utility.yul\":21912:21917   */\n      0x65726f0000000000000000000000000000000000000000000000000000000000\n        /* \"#utility.yul\":21907:21909   */\n      0x20\n        /* \"#utility.yul\":21899:21905   */\n      dup3\n        /* \"#utility.yul\":21895:21910   */\n      add\n        /* \"#utility.yul\":21888:21918   */\n      mstore\n        /* \"#utility.yul\":21703:21925   */\n      pop\n      jump\t// out\n        /* \"#utility.yul\":21931:22297   */\n    tag_384:\n        /* \"#utility.yul\":22073:22076   */\n      0x00\n        /* \"#utility.yul\":22094:22161   */\n      tag_662\n        /* \"#utility.yul\":22158:22160   */\n      0x23\n        /* \"#utility.yul\":22153:22156   */\n      dup4\n        /* \"#utility.yul\":22094:22161   */\n      tag_352\n      jump\t// in\n    tag_662:\n        /* \"#utility.yul\":22087:22161   */\n      swap2\n      pop\n        /* \"#utility.yul\":22170:22263   */\n      tag_663\n        /* \"#utility.yul\":22259:22262   */\n      dup3\n        /* \"#utility.yul\":22170:22263   */\n      tag_383\n      jump\t// in\n    tag_663:\n        /* \"#utility.yul\":22288:22290   */\n      0x40\n        /* \"#utility.yul\":22283:22286   */\n      dup3\n        /* \"#utility.yul\":22279:22291   */\n      add\n        /* \"#utility.yul\":22272:22291   */\n      swap1\n      pop\n        /* \"#utility.yul\":21931:22297   */\n      swap2\n      swap1\n      pop\n      jump\t// out\n        /* \"#utility.yul\":22303:22722   */\n    tag_93:\n        /* \"#utility.yul\":22469:22473   */\n      0x00\n        /* \"#utility.yul\":22507:22509   */\n      0x20\n        /* \"#utility.yul\":22496:22505   */\n      dup3\n        /* \"#utility.yul\":22492:22510   */\n      add\n        /* \"#utility.yul\":22484:22510   */\n      swap1\n      pop\n        /* \"#utility.yul\":22556:22565   */\n      dup2\n        /* \"#utility.yul\":22550:22554   */\n      dup2\n        /* \"#utility.yul\":22546:22566   */\n      sub\n        /* \"#utility.yul\":22542:22543   */\n      0x00\n        /* \"#utility.yul\":22531:22540   */\n      dup4\n        /* \"#utility.yul\":22527:22544   */\n      add\n        /* \"#utility.yul\":22520:22567   */\n      mstore\n        /* \"#utility.yul\":22584:22715   */\n      tag_665\n        /* \"#utility.yul\":22710:22714   */\n      dup2\n        /* \"#utility.yul\":22584:22715   */\n      tag_384\n      jump\t// in\n    tag_665:\n        /* \"#utility.yul\":22576:22715   */\n      swap1\n      pop\n        /* \"#utility.yul\":22303:22722   */\n      swap2\n      swap1\n      pop\n      jump\t// out\n        /* \"#utility.yul\":22728:22957   */\n    tag_385:\n        /* \"#utility.yul\":22868:22902   */\n      0x457466526f757465723a2052656365697665722063616e6e6f74206265207a65\n        /* \"#utility.yul\":22864:22865   */\n      0x00\n        /* \"#utility.yul\":22856:22862   */\n      dup3\n        /* \"#utility.yul\":22852:22866   */\n      add\n        /* \"#utility.yul\":22845:22903   */\n      mstore\n        /* \"#utility.yul\":22937:22949   */\n      0x726f206164647265737300000000000000000000000000000000000000000000\n        /* \"#utility.yul\":22932:22934   */\n      0x20\n        /* \"#utility.yul\":22924:22930   */\n      dup3\n        /* \"#utility.yul\":22920:22935   */\n      add\n        /* \"#utility.yul\":22913:22950   */\n      mstore\n        /* \"#utility.yul\":22728:22957   */\n      pop\n      jump\t// out\n        /* \"#utility.yul\":22963:23329   */\n    tag_386:\n        /* \"#utility.yul\":23105:23108   */\n      0x00\n        /* \"#utility.yul\":23126:23193   */\n      tag_668\n        /* \"#utility.yul\":23190:23192   */\n      0x2a\n        /* \"#utility.yul\":23185:23188   */\n      dup4\n        /* \"#utility.yul\":23126:23193   */\n      tag_352\n      jump\t// in\n    tag_668:\n        /* \"#utility.yul\":23119:23193   */\n      swap2\n      pop\n        /* \"#utility.yul\":23202:23295   */\n      tag_669\n        /* \"#utility.yul\":23291:23294   */\n      dup3\n        /* \"#utility.yul\":23202:23295   */\n      tag_385\n      jump\t// in\n    tag_669:\n        /* \"#utility.yul\":23320:23322   */\n      0x40\n        /* \"#utility.yul\":23315:23318   */\n      dup3\n        /* \"#utility.yul\":23311:23323   */\n      add\n        /* \"#utility.yul\":23304:23323   */\n      swap1\n      pop\n        /* \"#utility.yul\":22963:23329   */\n      swap2\n      swap1\n      pop\n      jump\t// out\n        /* \"#utility.yul\":23335:23754   */\n    tag_96:\n        /* \"#utility.yul\":23501:23505   */\n      0x00\n        /* \"#utility.yul\":23539:23541   */\n      0x20\n        /* \"#utility.yul\":23528:23537   */\n      dup3\n        /* \"#utility.yul\":23524:23542   */\n      add\n        /* \"#utility.yul\":23516:23542   */\n      swap1\n      pop\n        /* \"#utility.yul\":23588:23597   */\n      dup2\n        /* \"#utility.yul\":23582:23586   */\n      dup2\n        /* \"#utility.yul\":23578:23598   */\n      sub\n        /* \"#utility.yul\":23574:23575   */\n      0x00\n        /* \"#utility.yul\":23563:23572   */\n      dup4\n        /* \"#utility.yul\":23559:23576   */\n      add\n        /* \"#utility.yul\":23552:23599   */\n      mstore\n        /* \"#utility.yul\":23616:23747   */\n      tag_671\n        /* \"#utility.yul\":23742:23746   */\n      dup2\n        /* \"#utility.yul\":23616:23747   */\n      tag_386\n      jump\t// in\n    tag_671:\n        /* \"#utility.yul\":23608:23747   */\n      swap1\n      pop\n        /* \"#utility.yul\":23335:23754   */\n      swap2\n      swap1\n      pop\n      jump\t// out\n        /* \"#utility.yul\":23760:24424   */\n    tag_108:\n        /* \"#utility.yul\":23965:23969   */\n      0x00\n        /* \"#utility.yul\":24003:24006   */\n      0xa0\n        /* \"#utility.yul\":23992:24001   */\n      dup3\n        /* \"#utility.yul\":23988:24007   */\n      add\n        /* \"#utility.yul\":23980:24007   */\n      swap1\n      pop\n        /* \"#utility.yul\":24017:24088   */\n      tag_673\n        /* \"#utility.yul\":24085:24086   */\n      0x00\n        /* \"#utility.yul\":24074:24083   */\n      dup4\n        /* \"#utility.yul\":24070:24087   */\n      add\n        /* \"#utility.yul\":24061:24067   */\n      dup9\n        /* \"#utility.yul\":24017:24088   */\n      tag_357\n      jump\t// in\n    tag_673:\n        /* \"#utility.yul\":24098:24170   */\n      tag_674\n        /* \"#utility.yul\":24166:24168   */\n      0x20\n        /* \"#utility.yul\":24155:24164   */\n      dup4\n        /* \"#utility.yul\":24151:24169   */\n      add\n        /* \"#utility.yul\":24142:24148   */\n      dup8\n        /* \"#utility.yul\":24098:24170   */\n      tag_344\n      jump\t// in\n    tag_674:\n        /* \"#utility.yul\":24180:24252   */\n      tag_675\n        /* \"#utility.yul\":24248:24250   */\n      0x40\n        /* \"#utility.yul\":24237:24246   */\n      dup4\n        /* \"#utility.yul\":24233:24251   */\n      add\n        /* \"#utility.yul\":24224:24230   */\n      dup7\n        /* \"#utility.yul\":24180:24252   */\n      tag_344\n      jump\t// in\n    tag_675:\n        /* \"#utility.yul\":24262:24334   */\n      tag_676\n        /* \"#utility.yul\":24330:24332   */\n      0x60\n        /* \"#utility.yul\":24319:24328   */\n      dup4\n        /* \"#utility.yul\":24315:24333   */\n      add\n        /* \"#utility.yul\":24306:24312   */\n      dup6\n        /* \"#utility.yul\":24262:24334   */\n      tag_357\n      jump\t// in\n    tag_676:\n        /* \"#utility.yul\":24344:24417   */\n      tag_677\n        /* \"#utility.yul\":24412:24415   */\n      0x80\n        /* \"#utility.yul\":24401:24410   */\n      dup4\n        /* \"#utility.yul\":24397:24416   */\n      add\n        /* \"#utility.yul\":24388:24394   */\n      dup5\n        /* \"#utility.yul\":24344:24417   */\n      tag_357\n      jump\t// in\n    tag_677:\n        /* \"#utility.yul\":23760:24424   */\n      swap7\n      swap6\n      pop\n      pop\n      pop\n      pop\n      pop\n      pop\n      jump\t// out\n        /* \"#utility.yul\":24430:24603   */\n    tag_387:\n        /* \"#utility.yul\":24570:24595   */\n      0x43616c6c6572206973206e6f7420746865206f776e6572000000000000000000\n        /* \"#utility.yul\":24566:24567   */\n      0x00\n        /* \"#utility.yul\":24558:24564   */\n      dup3\n        /* \"#utility.yul\":24554:24568   */\n      add\n        /* \"#utility.yul\":24547:24596   */\n      mstore\n        /* \"#utility.yul\":24430:24603   */\n      pop\n      jump\t// out\n        /* \"#utility.yul\":24609:24975   */\n    tag_388:\n        /* \"#utility.yul\":24751:24754   */\n      0x00\n        /* \"#utility.yul\":24772:24839   */\n      tag_680\n        /* \"#utility.yul\":24836:24838   */\n      0x17\n        /* \"#utility.yul\":24831:24834   */\n      dup4\n        /* \"#utility.yul\":24772:24839   */\n      tag_352\n      jump\t// in\n    tag_680:\n        /* \"#utility.yul\":24765:24839   */\n      swap2\n      pop\n        /* \"#utility.yul\":24848:24941   */\n      tag_681\n        /* \"#utility.yul\":24937:24940   */\n      dup3\n        /* \"#utility.yul\":24848:24941   */\n      tag_387\n      jump\t// in\n    tag_681:\n        /* \"#utility.yul\":24966:24968   */\n      0x20\n        /* \"#utility.yul\":24961:24964   */\n      dup3\n        /* \"#utility.yul\":24957:24969   */\n      add\n        /* \"#utility.yul\":24950:24969   */\n      swap1\n      pop\n        /* \"#utility.yul\":24609:24975   */\n      swap2\n      swap1\n      pop\n      jump\t// out\n        /* \"#utility.yul\":24981:25400   */\n    tag_120:\n        /* \"#utility.yul\":25147:25151   */\n      0x00\n        /* \"#utility.yul\":25185:25187   */\n      0x20\n        /* \"#utility.yul\":25174:25183   */\n      dup3\n        /* \"#utility.yul\":25170:25188   */\n      add\n        /* \"#utility.yul\":25162:25188   */\n      swap1\n      pop\n        /* \"#utility.yul\":25234:25243   */\n      dup2\n        /* \"#utility.yul\":25228:25232   */\n      dup2\n        /* \"#utility.yul\":25224:25244   */\n      sub\n        /* \"#utility.yul\":25220:25221   */\n      0x00\n        /* \"#utility.yul\":25209:25218   */\n      dup4\n        /* \"#utility.yul\":25205:25222   */\n      add\n        /* \"#utility.yul\":25198:25245   */\n      mstore\n        /* \"#utility.yul\":25262:25393   */\n      tag_683\n        /* \"#utility.yul\":25388:25392   */\n      dup2\n        /* \"#utility.yul\":25262:25393   */\n      tag_388\n      jump\t// in\n    tag_683:\n        /* \"#utility.yul\":25254:25393   */\n      swap1\n      pop\n        /* \"#utility.yul\":24981:25400   */\n      swap2\n      swap1\n      pop\n      jump\t// out\n        /* \"#utility.yul\":25406:25587   */\n    tag_389:\n        /* \"#utility.yul\":25546:25579   */\n      0x5265656e7472616e637947756172643a207265656e7472616e742063616c6c00\n        /* \"#utility.yul\":25542:25543   */\n      0x00\n        /* \"#utility.yul\":25534:25540   */\n      dup3\n        /* \"#utility.yul\":25530:25544   */\n      add\n        /* \"#utility.yul\":25523:25580   */\n      mstore\n        /* \"#utility.yul\":25406:25587   */\n      pop\n      jump\t// out\n        /* \"#utility.yul\":25593:25959   */\n    tag_390:\n        /* \"#utility.yul\":25735:25738   */\n      0x00\n        /* \"#utility.yul\":25756:25823   */\n      tag_686\n        /* \"#utility.yul\":25820:25822   */\n      0x1f\n        /* \"#utility.yul\":25815:25818   */\n      dup4\n        /* \"#utility.yul\":25756:25823   */\n      tag_352\n      jump\t// in\n    tag_686:\n        /* \"#utility.yul\":25749:25823   */\n      swap2\n      pop\n        /* \"#utility.yul\":25832:25925   */\n      tag_687\n        /* \"#utility.yul\":25921:25924   */\n      dup3\n        /* \"#utility.yul\":25832:25925   */\n      tag_389\n      jump\t// in\n    tag_687:\n        /* \"#utility.yul\":25950:25952   */\n      0x20\n        /* \"#utility.yul\":25945:25948   */\n      dup3\n        /* \"#utility.yul\":25941:25953   */\n      add\n        /* \"#utility.yul\":25934:25953   */\n      swap1\n      pop\n        /* \"#utility.yul\":25593:25959   */\n      swap2\n      swap1\n      pop\n      jump\t// out\n        /* \"#utility.yul\":25965:26384   */\n    tag_127:\n        /* \"#utility.yul\":26131:26135   */\n      0x00\n        /* \"#utility.yul\":26169:26171   */\n      0x20\n        /* \"#utility.yul\":26158:26167   */\n      dup3\n        /* \"#utility.yul\":26154:26172   */\n      add\n        /* \"#utility.yul\":26146:26172   */\n      swap1\n      pop\n        /* \"#utility.yul\":26218:26227   */\n      dup2\n        /* \"#utility.yul\":26212:26216   */\n      dup2\n        /* \"#utility.yul\":26208:26228   */\n      sub\n        /* \"#utility.yul\":26204:26205   */\n      0x00\n        /* \"#utility.yul\":26193:26202   */\n      dup4\n        /* \"#utility.yul\":26189:26206   */\n      add\n        /* \"#utility.yul\":26182:26229   */\n      mstore\n        /* \"#utility.yul\":26246:26377   */\n      tag_689\n        /* \"#utility.yul\":26372:26376   */\n      dup2\n        /* \"#utility.yul\":26246:26377   */\n      tag_390\n      jump\t// in\n    tag_689:\n        /* \"#utility.yul\":26238:26377   */\n      swap1\n      pop\n        /* \"#utility.yul\":25965:26384   */\n      swap2\n      swap1\n      pop\n      jump\t// out\n        /* \"#utility.yul\":26390:26616   */\n    tag_391:\n        /* \"#utility.yul\":26530:26564   */\n      0x457466526f757465723a20657466546f6b656e41646472657373206e6f742064\n        /* \"#utility.yul\":26526:26527   */\n      0x00\n        /* \"#utility.yul\":26518:26524   */\n      dup3\n        /* \"#utility.yul\":26514:26528   */\n      add\n        /* \"#utility.yul\":26507:26565   */\n      mstore\n        /* \"#utility.yul\":26599:26608   */\n      0x65706c6f79656400000000000000000000000000000000000000000000000000\n        /* \"#utility.yul\":26594:26596   */\n      0x20\n        /* \"#utility.yul\":26586:26592   */\n      dup3\n        /* \"#utility.yul\":26582:26597   */\n      add\n        /* \"#utility.yul\":26575:26609   */\n      mstore\n        /* \"#utility.yul\":26390:26616   */\n      pop\n      jump\t// out\n        /* \"#utility.yul\":26622:26988   */\n    tag_392:\n        /* \"#utility.yul\":26764:26767   */\n      0x00\n        /* \"#utility.yul\":26785:26852   */\n      tag_692\n        /* \"#utility.yul\":26849:26851   */\n      0x27\n        /* \"#utility.yul\":26844:26847   */\n      dup4\n        /* \"#utility.yul\":26785:26852   */\n      tag_352\n      jump\t// in\n    tag_692:\n        /* \"#utility.yul\":26778:26852   */\n      swap2\n      pop\n        /* \"#utility.yul\":26861:26954   */\n      tag_693\n        /* \"#utility.yul\":26950:26953   */\n      dup3\n        /* \"#utility.yul\":26861:26954   */\n      tag_391\n      jump\t// in\n    tag_693:\n        /* \"#utility.yul\":26979:26981   */\n      0x40\n        /* \"#utility.yul\":26974:26977   */\n      dup3\n        /* \"#utility.yul\":26970:26982   */\n      add\n        /* \"#utility.yul\":26963:26982   */\n      swap1\n      pop\n        /* \"#utility.yul\":26622:26988   */\n      swap2\n      swap1\n      pop\n      jump\t// out\n        /* \"#utility.yul\":26994:27413   */\n    tag_144:\n        /* \"#utility.yul\":27160:27164   */\n      0x00\n        /* \"#utility.yul\":27198:27200   */\n      0x20\n        /* \"#utility.yul\":27187:27196   */\n      dup3\n        /* \"#utility.yul\":27183:27201   */\n      add\n        /* \"#utility.yul\":27175:27201   */\n      swap1\n      pop\n        /* \"#utility.yul\":27247:27256   */\n      dup2\n        /* \"#utility.yul\":27241:27245   */\n      dup2\n        /* \"#utility.yul\":27237:27257   */\n      sub\n        /* \"#utility.yul\":27233:27234   */\n      0x00\n        /* \"#utility.yul\":27222:27231   */\n      dup4\n        /* \"#utility.yul\":27218:27235   */\n      add\n        /* \"#utility.yul\":27211:27258   */\n      mstore\n        /* \"#utility.yul\":27275:27406   */\n      tag_695\n        /* \"#utility.yul\":27401:27405   */\n      dup2\n        /* \"#utility.yul\":27275:27406   */\n      tag_392\n      jump\t// in\n    tag_695:\n        /* \"#utility.yul\":27267:27406   */\n      swap1\n      pop\n        /* \"#utility.yul\":26994:27413   */\n      swap2\n      swap1\n      pop\n      jump\t// out\n        /* \"#utility.yul\":27419:27645   */\n    tag_393:\n        /* \"#utility.yul\":27559:27593   */\n      0x457466526f757465723a206574665661756c7441646472657373206e6f742064\n        /* \"#utility.yul\":27555:27556   */\n      0x00\n        /* \"#utility.yul\":27547:27553   */\n      dup3\n        /* \"#utility.yul\":27543:27557   */\n      add\n        /* \"#utility.yul\":27536:27594   */\n      mstore\n        /* \"#utility.yul\":27628:27637   */\n      0x65706c6f79656400000000000000000000000000000000000000000000000000\n        /* \"#utility.yul\":27623:27625   */\n      0x20\n        /* \"#utility.yul\":27615:27621   */\n      dup3\n        /* \"#utility.yul\":27611:27626   */\n      add\n        /* \"#utility.yul\":27604:27638   */\n      mstore\n        /* \"#utility.yul\":27419:27645   */\n      pop\n      jump\t// out\n        /* \"#utility.yul\":27651:28017   */\n    tag_394:\n        /* \"#utility.yul\":27793:27796   */\n      0x00\n        /* \"#utility.yul\":27814:27881   */\n      tag_698\n        /* \"#utility.yul\":27878:27880   */\n      0x27\n        /* \"#utility.yul\":27873:27876   */\n      dup4\n        /* \"#utility.yul\":27814:27881   */\n      tag_352\n      jump\t// in\n    tag_698:\n        /* \"#utility.yul\":27807:27881   */\n      swap2\n      pop\n        /* \"#utility.yul\":27890:27983   */\n      tag_699\n        /* \"#utility.yul\":27979:27982   */\n      dup3\n        /* \"#utility.yul\":27890:27983   */\n      tag_393\n      jump\t// in\n    tag_699:\n        /* \"#utility.yul\":28008:28010   */\n      0x40\n        /* \"#utility.yul\":28003:28006   */\n      dup3\n        /* \"#utility.yul\":27999:28011   */\n      add\n        /* \"#utility.yul\":27992:28011   */\n      swap1\n      pop\n        /* \"#utility.yul\":27651:28017   */\n      swap2\n      swap1\n      pop\n      jump\t// out\n        /* \"#utility.yul\":28023:28442   */\n    tag_147:\n        /* \"#utility.yul\":28189:28193   */\n      0x00\n        /* \"#utility.yul\":28227:28229   */\n      0x20\n        /* \"#utility.yul\":28216:28225   */\n      dup3\n        /* \"#utility.yul\":28212:28230   */\n      add\n        /* \"#utility.yul\":28204:28230   */\n      swap1\n      pop\n        /* \"#utility.yul\":28276:28285   */\n      dup2\n        /* \"#utility.yul\":28270:28274   */\n      dup2\n        /* \"#utility.yul\":28266:28286   */\n      sub\n        /* \"#utility.yul\":28262:28263   */\n      0x00\n        /* \"#utility.yul\":28251:28260   */\n      dup4\n        /* \"#utility.yul\":28247:28264   */\n      add\n        /* \"#utility.yul\":28240:28287   */\n      mstore\n        /* \"#utility.yul\":28304:28435   */\n      tag_701\n        /* \"#utility.yul\":28430:28434   */\n      dup2\n        /* \"#utility.yul\":28304:28435   */\n      tag_394\n      jump\t// in\n    tag_701:\n        /* \"#utility.yul\":28296:28435   */\n      swap1\n      pop\n        /* \"#utility.yul\":28023:28442   */\n      swap2\n      swap1\n      pop\n      jump\t// out\n        /* \"#utility.yul\":28448:28628   */\n    tag_154:\n        /* \"#utility.yul\":28496:28573   */\n      0x4e487b7100000000000000000000000000000000000000000000000000000000\n        /* \"#utility.yul\":28493:28494   */\n      0x00\n        /* \"#utility.yul\":28486:28574   */\n      mstore\n        /* \"#utility.yul\":28593:28597   */\n      0x32\n        /* \"#utility.yul\":28590:28591   */\n      0x04\n        /* \"#utility.yul\":28583:28598   */\n      mstore\n        /* \"#utility.yul\":28617:28621   */\n      0x24\n        /* \"#utility.yul\":28614:28615   */\n      0x00\n        /* \"#utility.yul\":28607:28622   */\n      revert\n        /* \"#utility.yul\":28634:29044   */\n    tag_160:\n        /* \"#utility.yul\":28674:28681   */\n      0x00\n        /* \"#utility.yul\":28697:28717   */\n      tag_704\n        /* \"#utility.yul\":28715:28716   */\n      dup3\n        /* \"#utility.yul\":28697:28717   */\n      tag_327\n      jump\t// in\n    tag_704:\n        /* \"#utility.yul\":28692:28717   */\n      swap2\n      pop\n        /* \"#utility.yul\":28731:28751   */\n      tag_705\n        /* \"#utility.yul\":28749:28750   */\n      dup4\n        /* \"#utility.yul\":28731:28751   */\n      tag_327\n      jump\t// in\n    tag_705:\n        /* \"#utility.yul\":28726:28751   */\n      swap3\n      pop\n        /* \"#utility.yul\":28786:28787   */\n      dup3\n        /* \"#utility.yul\":28783:28784   */\n      dup3\n        /* \"#utility.yul\":28779:28788   */\n      mul\n        /* \"#utility.yul\":28808:28838   */\n      tag_706\n        /* \"#utility.yul\":28826:28837   */\n      dup2\n        /* \"#utility.yul\":28808:28838   */\n      tag_327\n      jump\t// in\n    tag_706:\n        /* \"#utility.yul\":28797:28838   */\n      swap2\n      pop\n        /* \"#utility.yul\":28987:28988   */\n      dup3\n        /* \"#utility.yul\":28978:28985   */\n      dup3\n        /* \"#utility.yul\":28974:28989   */\n      div\n        /* \"#utility.yul\":28971:28972   */\n      dup5\n        /* \"#utility.yul\":28968:28990   */\n      eq\n        /* \"#utility.yul\":28948:28949   */\n      dup4\n        /* \"#utility.yul\":28941:28950   */\n      iszero\n        /* \"#utility.yul\":28921:29004   */\n      or\n        /* \"#utility.yul\":28898:29037   */\n      tag_707\n      jumpi\n        /* \"#utility.yul\":29017:29035   */\n      tag_708\n      tag_378\n      jump\t// in\n    tag_708:\n        /* \"#utility.yul\":28898:29037   */\n    tag_707:\n        /* \"#utility.yul\":28682:29044   */\n      pop\n        /* \"#utility.yul\":28634:29044   */\n      swap3\n      swap2\n      pop\n      pop\n      jump\t// out\n        /* \"#utility.yul\":29050:29230   */\n    tag_395:\n        /* \"#utility.yul\":29098:29175   */\n      0x4e487b7100000000000000000000000000000000000000000000000000000000\n        /* \"#utility.yul\":29095:29096   */\n      0x00\n        /* \"#utility.yul\":29088:29176   */\n      mstore\n        /* \"#utility.yul\":29195:29199   */\n      0x12\n        /* \"#utility.yul\":29192:29193   */\n      0x04\n        /* \"#utility.yul\":29185:29200   */\n      mstore\n        /* \"#utility.yul\":29219:29223   */\n      0x24\n        /* \"#utility.yul\":29216:29217   */\n      0x00\n        /* \"#utility.yul\":29209:29224   */\n      revert\n        /* \"#utility.yul\":29236:29421   */\n    tag_162:\n        /* \"#utility.yul\":29276:29277   */\n      0x00\n        /* \"#utility.yul\":29293:29313   */\n      tag_711\n        /* \"#utility.yul\":29311:29312   */\n      dup3\n        /* \"#utility.yul\":29293:29313   */\n      tag_327\n      jump\t// in\n    tag_711:\n        /* \"#utility.yul\":29288:29313   */\n      swap2\n      pop\n        /* \"#utility.yul\":29327:29347   */\n      tag_712\n        /* \"#utility.yul\":29345:29346   */\n      dup4\n        /* \"#utility.yul\":29327:29347   */\n      tag_327\n      jump\t// in\n    tag_712:\n        /* \"#utility.yul\":29322:29347   */\n      swap3\n      pop\n        /* \"#utility.yul\":29366:29367   */\n      dup3\n        /* \"#utility.yul\":29356:29391   */\n      tag_713\n      jumpi\n        /* \"#utility.yul\":29371:29389   */\n      tag_714\n      tag_395\n      jump\t// in\n    tag_714:\n        /* \"#utility.yul\":29356:29391   */\n    tag_713:\n        /* \"#utility.yul\":29413:29414   */\n      dup3\n        /* \"#utility.yul\":29410:29411   */\n      dup3\n        /* \"#utility.yul\":29406:29415   */\n      div\n        /* \"#utility.yul\":29401:29415   */\n      swap1\n      pop\n        /* \"#utility.yul\":29236:29421   */\n      swap3\n      swap2\n      pop\n      pop\n      jump\t// out\n        /* \"#utility.yul\":29427:29660   */\n    tag_165:\n        /* \"#utility.yul\":29466:29469   */\n      0x00\n        /* \"#utility.yul\":29489:29513   */\n      tag_716\n        /* \"#utility.yul\":29507:29512   */\n      dup3\n        /* \"#utility.yul\":29489:29513   */\n      tag_327\n      jump\t// in\n    tag_716:\n        /* \"#utility.yul\":29480:29513   */\n      swap2\n      pop\n        /* \"#utility.yul\":29535:29601   */\n      0xffffffffffffffffffffffffffffffffffffffffffffffffffffffffffffffff\n        /* \"#utility.yul\":29528:29533   */\n      dup3\n        /* \"#utility.yul\":29525:29602   */\n      sub\n        /* \"#utility.yul\":29522:29625   */\n      tag_717\n      jumpi\n        /* \"#utility.yul\":29605:29623   */\n      tag_718\n      tag_378\n      jump\t// in\n    tag_718:\n        /* \"#utility.yul\":29522:29625   */\n    tag_717:\n        /* \"#utility.yul\":29652:29653   */\n      0x01\n        /* \"#utility.yul\":29645:29650   */\n      dup3\n        /* \"#utility.yul\":29641:29654   */\n      add\n        /* \"#utility.yul\":29634:29654   */\n      swap1\n      pop\n        /* \"#utility.yul\":29427:29660   */\n      swap2\n      swap1\n      pop\n      jump\t// out\n        /* \"#utility.yul\":29666:29846   */\n    tag_396:\n        /* \"#utility.yul\":29806:29838   */\n      0x457466526f757465723a206e6f7468696e6720746f2077697468647261770000\n        /* \"#utility.yul\":29802:29803   */\n      0x00\n        /* \"#utility.yul\":29794:29800   */\n      dup3\n        /* \"#utility.yul\":29790:29804   */\n      add\n        /* \"#utility.yul\":29783:29839   */\n      mstore\n        /* \"#utility.yul\":29666:29846   */\n      pop\n      jump\t// out\n        /* \"#utility.yul\":29852:30218   */\n    tag_397:\n        /* \"#utility.yul\":29994:29997   */\n      0x00\n        /* \"#utility.yul\":30015:30082   */\n      tag_721\n        /* \"#utility.yul\":30079:30081   */\n      0x1e\n        /* \"#utility.yul\":30074:30077   */\n      dup4\n        /* \"#utility.yul\":30015:30082   */\n      tag_352\n      jump\t// in\n    tag_721:\n        /* \"#utility.yul\":30008:30082   */\n      swap2\n      pop\n        /* \"#utility.yul\":30091:30184   */\n      tag_722\n        /* \"#utility.yul\":30180:30183   */\n      dup3\n        /* \"#utility.yul\":30091:30184   */\n      tag_396\n      jump\t// in\n    tag_722:\n        /* \"#utility.yul\":30209:30211   */\n      0x20\n        /* \"#utility.yul\":30204:30207   */\n      dup3\n        /* \"#utility.yul\":30200:30212   */\n      add\n        /* \"#utility.yul\":30193:30212   */\n      swap1\n      pop\n        /* \"#utility.yul\":29852:30218   */\n      swap2\n      swap1\n      pop\n      jump\t// out\n        /* \"#utility.yul\":30224:30643   */\n    tag_168:\n        /* \"#utility.yul\":30390:30394   */\n      0x00\n        /* \"#utility.yul\":30428:30430   */\n      0x20\n        /* \"#utility.yul\":30417:30426   */\n      dup3\n        /* \"#utility.yul\":30413:30431   */\n      add\n        /* \"#utility.yul\":30405:30431   */\n      swap1\n      pop\n        /* \"#utility.yul\":30477:30486   */\n      dup2\n        /* \"#utility.yul\":30471:30475   */\n      dup2\n        /* \"#utility.yul\":30467:30487   */\n      sub\n        /* \"#utility.yul\":30463:30464   */\n      0x00\n        /* \"#utility.yul\":30452:30461   */\n      dup4\n        /* \"#utility.yul\":30448:30465   */\n      add\n        /* \"#utility.yul\":30441:30488   */\n      mstore\n        /* \"#utility.yul\":30505:30636   */\n      tag_724\n        /* \"#utility.yul\":30631:30635   */\n      dup2\n        /* \"#utility.yul\":30505:30636   */\n      tag_397\n      jump\t// in\n    tag_724:\n        /* \"#utility.yul\":30497:30636   */\n      swap1\n      pop\n        /* \"#utility.yul\":30224:30643   */\n      swap2\n      swap1\n      pop\n      jump\t// out\n        /* \"#utility.yul\":30649:31091   */\n    tag_190:\n        /* \"#utility.yul\":30798:30802   */\n      0x00\n        /* \"#utility.yul\":30836:30838   */\n      0x60\n        /* \"#utility.yul\":30825:30834   */\n      dup3\n        /* \"#utility.yul\":30821:30839   */\n      add\n        /* \"#utility.yul\":30813:30839   */\n      swap1\n      pop\n        /* \"#utility.yul\":30849:30920   */\n      tag_726\n        /* \"#utility.yul\":30917:30918   */\n      0x00\n        /* \"#utility.yul\":30906:30915   */\n      dup4\n        /* \"#utility.yul\":30902:30919   */\n      add\n        /* \"#utility.yul\":30893:30899   */\n      dup7\n        /* \"#utility.yul\":30849:30920   */\n      tag_344\n      jump\t// in\n    tag_726:\n        /* \"#utility.yul\":30930:31002   */\n      tag_727\n        /* \"#utility.yul\":30998:31000   */\n      0x20\n        /* \"#utility.yul\":30987:30996   */\n      dup4\n        /* \"#utility.yul\":30983:31001   */\n      add\n        /* \"#utility.yul\":30974:30980   */\n      dup6\n        /* \"#utility.yul\":30930:31002   */\n      tag_357\n      jump\t// in\n    tag_727:\n        /* \"#utility.yul\":31012:31084   */\n      tag_728\n        /* \"#utility.yul\":31080:31082   */\n      0x40\n        /* \"#utility.yul\":31069:31078   */\n      dup4\n        /* \"#utility.yul\":31065:31083   */\n      add\n        /* \"#utility.yul\":31056:31062   */\n      dup5\n        /* \"#utility.yul\":31012:31084   */\n      tag_344\n      jump\t// in\n    tag_728:\n        /* \"#utility.yul\":30649:31091   */\n      swap5\n      swap4\n      pop\n      pop\n      pop\n      pop\n      jump\t// out\n        /* \"#utility.yul\":31097:31243   */\n    tag_398:\n        /* \"#utility.yul\":31196:31202   */\n      0x00\n        /* \"#utility.yul\":31230:31235   */\n      dup2\n        /* \"#utility.yul\":31224:31236   */\n      mload\n        /* \"#utility.yul\":31214:31236   */\n      swap1\n      pop\n        /* \"#utility.yul\":31097:31243   */\n      swap2\n      swap1\n      pop\n      jump\t// out\n        /* \"#utility.yul\":31249:31465   */\n    tag_399:\n        /* \"#utility.yul\":31380:31391   */\n      0x00\n        /* \"#utility.yul\":31414:31420   */\n      dup3\n        /* \"#utility.yul\":31409:31412   */\n      dup3\n        /* \"#utility.yul\":31402:31421   */\n      mstore\n        /* \"#utility.yul\":31454:31458   */\n      0x20\n        /* \"#utility.yul\":31449:31452   */\n      dup3\n        /* \"#utility.yul\":31445:31459   */\n      add\n        /* \"#utility.yul\":31430:31459   */\n      swap1\n      pop\n        /* \"#utility.yul\":31249:31465   */\n      swap3\n      swap2\n      pop\n      pop\n      jump\t// out\n        /* \"#utility.yul\":31471:31635   */\n    tag_400:\n        /* \"#utility.yul\":31570:31574   */\n      0x00\n        /* \"#utility.yul\":31593:31596   */\n      dup2\n        /* \"#utility.yul\":31585:31596   */\n      swap1\n      pop\n        /* \"#utility.yul\":31623:31627   */\n      0x20\n        /* \"#utility.yul\":31618:31621   */\n      dup3\n        /* \"#utility.yul\":31614:31628   */\n      add\n        /* \"#utility.yul\":31606:31628   */\n      swap1\n      pop\n        /* \"#utility.yul\":31471:31635   */\n      swap2\n      swap1\n      pop\n      jump\t// out\n        /* \"#utility.yul\":31641:31749   */\n    tag_401:\n        /* \"#utility.yul\":31718:31742   */\n      tag_733\n        /* \"#utility.yul\":31736:31741   */\n      dup2\n        /* \"#utility.yul\":31718:31742   */\n      tag_343\n      jump\t// in\n    tag_733:\n        /* \"#utility.yul\":31713:31716   */\n      dup3\n        /* \"#utility.yul\":31706:31743   */\n      mstore\n        /* \"#utility.yul\":31641:31749   */\n      pop\n      pop\n      jump\t// out\n        /* \"#utility.yul\":31755:31863   */\n    tag_402:\n        /* \"#utility.yul\":31832:31856   */\n      tag_735\n        /* \"#utility.yul\":31850:31855   */\n      dup2\n        /* \"#utility.yul\":31832:31856   */\n      tag_327\n      jump\t// in\n    tag_735:\n        /* \"#utility.yul\":31827:31830   */\n      dup3\n        /* \"#utility.yul\":31820:31857   */\n      mstore\n        /* \"#utility.yul\":31755:31863   */\n      pop\n      pop\n      jump\t// out\n        /* \"#utility.yul\":31923:32444   */\n    tag_403:\n        /* \"#utility.yul\":32074:32078   */\n      0x40\n        /* \"#utility.yul\":32069:32072   */\n      dup3\n        /* \"#utility.yul\":32065:32079   */\n      add\n        /* \"#utility.yul\":32169:32173   */\n      0x00\n        /* \"#utility.yul\":32162:32167   */\n      dup3\n        /* \"#utility.yul\":32158:32174   */\n      add\n        /* \"#utility.yul\":32152:32175   */\n      mload\n        /* \"#utility.yul\":32188:32251   */\n      tag_737\n        /* \"#utility.yul\":32245:32249   */\n      0x00\n        /* \"#utility.yul\":32240:32243   */\n      dup6\n        /* \"#utility.yul\":32236:32250   */\n      add\n        /* \"#utility.yul\":32222:32234   */\n      dup3\n        /* \"#utility.yul\":32188:32251   */\n      tag_401\n      jump\t// in\n    tag_737:\n        /* \"#utility.yul\":32089:32261   */\n      pop\n        /* \"#utility.yul\":32345:32349   */\n      0x20\n        /* \"#utility.yul\":32338:32343   */\n      dup3\n        /* \"#utility.yul\":32334:32350   */\n      add\n        /* \"#utility.yul\":32328:32351   */\n      mload\n        /* \"#utility.yul\":32364:32427   */\n      tag_738\n        /* \"#utility.yul\":32421:32425   */\n      0x20\n        /* \"#utility.yul\":32416:32419   */\n      dup6\n        /* \"#utility.yul\":32412:32426   */\n      add\n        /* \"#utility.yul\":32398:32410   */\n      dup3\n        /* \"#utility.yul\":32364:32427   */\n      tag_402\n      jump\t// in\n    tag_738:\n        /* \"#utility.yul\":32271:32437   */\n      pop\n        /* \"#utility.yul\":32043:32444   */\n      pop\n        /* \"#utility.yul\":31923:32444   */\n      pop\n      pop\n      jump\t// out\n        /* \"#utility.yul\":32450:32757   */\n    tag_404:\n        /* \"#utility.yul\":32583:32593   */\n      0x00\n        /* \"#utility.yul\":32604:32714   */\n      tag_740\n        /* \"#utility.yul\":32710:32713   */\n      dup4\n        /* \"#utility.yul\":32702:32708   */\n      dup4\n        /* \"#utility.yul\":32604:32714   */\n      tag_403\n      jump\t// in\n    tag_740:\n        /* \"#utility.yul\":32746:32750   */\n      0x40\n        /* \"#utility.yul\":32741:32744   */\n      dup4\n        /* \"#utility.yul\":32737:32751   */\n      add\n        /* \"#utility.yul\":32723:32751   */\n      swap1\n      pop\n        /* \"#utility.yul\":32450:32757   */\n      swap3\n      swap2\n      pop\n      pop\n      jump\t// out\n        /* \"#utility.yul\":32763:32908   */\n    tag_405:\n        /* \"#utility.yul\":32865:32869   */\n      0x00\n        /* \"#utility.yul\":32897:32901   */\n      0x20\n        /* \"#utility.yul\":32892:32895   */\n      dup3\n        /* \"#utility.yul\":32888:32902   */\n      add\n        /* \"#utility.yul\":32880:32902   */\n      swap1\n      pop\n        /* \"#utility.yul\":32763:32908   */\n      swap2\n      swap1\n      pop\n      jump\t// out\n        /* \"#utility.yul\":32972:33960   */\n    tag_406:\n        /* \"#utility.yul\":33155:33158   */\n      0x00\n        /* \"#utility.yul\":33184:33270   */\n      tag_743\n        /* \"#utility.yul\":33264:33269   */\n      dup3\n        /* \"#utility.yul\":33184:33270   */\n      tag_398\n      jump\t// in\n    tag_743:\n        /* \"#utility.yul\":33286:33404   */\n      tag_744\n        /* \"#utility.yul\":33397:33403   */\n      dup2\n        /* \"#utility.yul\":33392:33395   */\n      dup6\n        /* \"#utility.yul\":33286:33404   */\n      tag_399\n      jump\t// in\n    tag_744:\n        /* \"#utility.yul\":33279:33404   */\n      swap4\n      pop\n        /* \"#utility.yul\":33428:33516   */\n      tag_745\n        /* \"#utility.yul\":33510:33515   */\n      dup4\n        /* \"#utility.yul\":33428:33516   */\n      tag_400\n      jump\t// in\n    tag_745:\n        /* \"#utility.yul\":33539:33546   */\n      dup1\n        /* \"#utility.yul\":33570:33571   */\n      0x00\n        /* \"#utility.yul\":33555:33935   */\n    tag_746:\n        /* \"#utility.yul\":33580:33586   */\n      dup4\n        /* \"#utility.yul\":33577:33578   */\n      dup2\n        /* \"#utility.yul\":33574:33587   */\n      lt\n        /* \"#utility.yul\":33555:33935   */\n      iszero\n      tag_748\n      jumpi\n        /* \"#utility.yul\":33656:33662   */\n      dup2\n        /* \"#utility.yul\":33650:33663   */\n      mload\n        /* \"#utility.yul\":33683:33810   */\n      tag_749\n        /* \"#utility.yul\":33806:33809   */\n      dup9\n        /* \"#utility.yul\":33791:33804   */\n      dup3\n        /* \"#utility.yul\":33683:33810   */\n      tag_404\n      jump\t// in\n    tag_749:\n        /* \"#utility.yul\":33676:33810   */\n      swap8\n      pop\n        /* \"#utility.yul\":33833:33925   */\n      tag_750\n        /* \"#utility.yul\":33918:33924   */\n      dup4\n        /* \"#utility.yul\":33833:33925   */\n      tag_405\n      jump\t// in\n    tag_750:\n        /* \"#utility.yul\":33823:33925   */\n      swap3\n      pop\n        /* \"#utility.yul\":33615:33935   */\n      pop\n        /* \"#utility.yul\":33602:33603   */\n      0x01\n        /* \"#utility.yul\":33599:33600   */\n      dup2\n        /* \"#utility.yul\":33595:33604   */\n      add\n        /* \"#utility.yul\":33590:33604   */\n      swap1\n      pop\n        /* \"#utility.yul\":33555:33935   */\n      jump(tag_746)\n    tag_748:\n        /* \"#utility.yul\":33559:33573   */\n      pop\n        /* \"#utility.yul\":33951:33954   */\n      dup6\n        /* \"#utility.yul\":33944:33954   */\n      swap4\n      pop\n        /* \"#utility.yul\":33160:33960   */\n      pop\n      pop\n      pop\n        /* \"#utility.yul\":32972:33960   */\n      swap3\n      swap2\n      pop\n      pop\n      jump\t// out\n        /* \"#utility.yul\":33966:34113   */\n    tag_407:\n        /* \"#utility.yul\":34066:34072   */\n      0x00\n        /* \"#utility.yul\":34100:34105   */\n      dup2\n        /* \"#utility.yul\":34094:34106   */\n      mload\n        /* \"#utility.yul\":34084:34106   */\n      swap1\n      pop\n        /* \"#utility.yul\":33966:34113   */\n      swap2\n      swap1\n      pop\n      jump\t// out\n        /* \"#utility.yul\":34119:34336   */\n    tag_408:\n        /* \"#utility.yul\":34251:34262   */\n      0x00\n        /* \"#utility.yul\":34285:34291   */\n      dup3\n        /* \"#utility.yul\":34280:34283   */\n      dup3\n        /* \"#utility.yul\":34273:34292   */\n      mstore\n        /* \"#utility.yul\":34325:34329   */\n      0x20\n        /* \"#utility.yul\":34320:34323   */\n      dup3\n        /* \"#utility.yul\":34316:34330   */\n      add\n        /* \"#utility.yul\":34301:34330   */\n      swap1\n      pop\n        /* \"#utility.yul\":34119:34336   */\n      swap3\n      swap2\n      pop\n      pop\n      jump\t// out\n        /* \"#utility.yul\":34342:34507   */\n    tag_409:\n        /* \"#utility.yul\":34442:34446   */\n      0x00\n        /* \"#utility.yul\":34465:34468   */\n      dup2\n        /* \"#utility.yul\":34457:34468   */\n      swap1\n      pop\n        /* \"#utility.yul\":34495:34499   */\n      0x20\n        /* \"#utility.yul\":34490:34493   */\n      dup3\n        /* \"#utility.yul\":34486:34500   */\n      add\n        /* \"#utility.yul\":34478:34500   */\n      swap1\n      pop\n        /* \"#utility.yul\":34342:34507   */\n      swap2\n      swap1\n      pop\n      jump\t// out\n        /* \"#utility.yul\":34513:34618   */\n    tag_410:\n        /* \"#utility.yul\":34588:34611   */\n      tag_755\n        /* \"#utility.yul\":34605:34610   */\n      dup2\n        /* \"#utility.yul\":34588:34611   */\n      tag_366\n      jump\t// in\n    tag_755:\n        /* \"#utility.yul\":34583:34586   */\n      dup3\n        /* \"#utility.yul\":34576:34612   */\n      mstore\n        /* \"#utility.yul\":34513:34618   */\n      pop\n      pop\n      jump\t// out\n        /* \"#utility.yul\":34680:35205   */\n    tag_411:\n        /* \"#utility.yul\":34833:34837   */\n      0x40\n        /* \"#utility.yul\":34828:34831   */\n      dup3\n        /* \"#utility.yul\":34824:34838   */\n      add\n        /* \"#utility.yul\":34928:34932   */\n      0x00\n        /* \"#utility.yul\":34921:34926   */\n      dup3\n        /* \"#utility.yul\":34917:34933   */\n      add\n        /* \"#utility.yul\":34911:34934   */\n      mload\n        /* \"#utility.yul\":34947:35010   */\n      tag_757\n        /* \"#utility.yul\":35004:35008   */\n      0x00\n        /* \"#utility.yul\":34999:35002   */\n      dup6\n        /* \"#utility.yul\":34995:35009   */\n      add\n        /* \"#utility.yul\":34981:34993   */\n      dup3\n        /* \"#utility.yul\":34947:35010   */\n      tag_401\n      jump\t// in\n    tag_757:\n        /* \"#utility.yul\":34848:35020   */\n      pop\n        /* \"#utility.yul\":35108:35112   */\n      0x20\n        /* \"#utility.yul\":35101:35106   */\n      dup3\n        /* \"#utility.yul\":35097:35113   */\n      add\n        /* \"#utility.yul\":35091:35114   */\n      mload\n        /* \"#utility.yul\":35127:35188   */\n      tag_758\n        /* \"#utility.yul\":35182:35186   */\n      0x20\n        /* \"#utility.yul\":35177:35180   */\n      dup6\n        /* \"#utility.yul\":35173:35187   */\n      add\n        /* \"#utility.yul\":35159:35171   */\n      dup3\n        /* \"#utility.yul\":35127:35188   */\n      tag_410\n      jump\t// in\n    tag_758:\n        /* \"#utility.yul\":35030:35198   */\n      pop\n        /* \"#utility.yul\":34802:35205   */\n      pop\n        /* \"#utility.yul\":34680:35205   */\n      pop\n      pop\n      jump\t// out\n        /* \"#utility.yul\":35211:35522   */\n    tag_412:\n        /* \"#utility.yul\":35346:35356   */\n      0x00\n        /* \"#utility.yul\":35367:35479   */\n      tag_760\n        /* \"#utility.yul\":35475:35478   */\n      dup4\n        /* \"#utility.yul\":35467:35473   */\n      dup4\n        /* \"#utility.yul\":35367:35479   */\n      tag_411\n      jump\t// in\n    tag_760:\n        /* \"#utility.yul\":35511:35515   */\n      0x40\n        /* \"#utility.yul\":35506:35509   */\n      dup4\n        /* \"#utility.yul\":35502:35516   */\n      add\n        /* \"#utility.yul\":35488:35516   */\n      swap1\n      pop\n        /* \"#utility.yul\":35211:35522   */\n      swap3\n      swap2\n      pop\n      pop\n      jump\t// out\n        /* \"#utility.yul\":35528:35674   */\n    tag_413:\n        /* \"#utility.yul\":35631:35635   */\n      0x00\n        /* \"#utility.yul\":35663:35667   */\n      0x20\n        /* \"#utility.yul\":35658:35661   */\n      dup3\n        /* \"#utility.yul\":35654:35668   */\n      add\n        /* \"#utility.yul\":35646:35668   */\n      swap1\n      pop\n        /* \"#utility.yul\":35528:35674   */\n      swap2\n      swap1\n      pop\n      jump\t// out\n        /* \"#utility.yul\":35740:36736   */\n    tag_414:\n        /* \"#utility.yul\":35925:35928   */\n      0x00\n        /* \"#utility.yul\":35954:36041   */\n      tag_763\n        /* \"#utility.yul\":36035:36040   */\n      dup3\n        /* \"#utility.yul\":35954:36041   */\n      tag_407\n      jump\t// in\n    tag_763:\n        /* \"#utility.yul\":36057:36176   */\n      tag_764\n        /* \"#utility.yul\":36169:36175   */\n      dup2\n        /* \"#utility.yul\":36164:36167   */\n      dup6\n        /* \"#utility.yul\":36057:36176   */\n      tag_408\n      jump\t// in\n    tag_764:\n        /* \"#utility.yul\":36050:36176   */\n      swap4\n      pop\n        /* \"#utility.yul\":36200:36289   */\n      tag_765\n        /* \"#utility.yul\":36283:36288   */\n      dup4\n        /* \"#utility.yul\":36200:36289   */\n      tag_409\n      jump\t// in\n    tag_765:\n        /* \"#utility.yul\":36312:36319   */\n      dup1\n        /* \"#utility.yul\":36343:36344   */\n      0x00\n        /* \"#utility.yul\":36328:36711   */\n    tag_766:\n        /* \"#utility.yul\":36353:36359   */\n      dup4\n        /* \"#utility.yul\":36350:36351   */\n      dup2\n        /* \"#utility.yul\":36347:36360   */\n      lt\n        /* \"#utility.yul\":36328:36711   */\n      iszero\n      tag_768\n      jumpi\n        /* \"#utility.yul\":36429:36435   */\n      dup2\n        /* \"#utility.yul\":36423:36436   */\n      mload\n        /* \"#utility.yul\":36456:36585   */\n      tag_769\n        /* \"#utility.yul\":36581:36584   */\n      dup9\n        /* \"#utility.yul\":36566:36579   */\n      dup3\n        /* \"#utility.yul\":36456:36585   */\n      tag_412\n      jump\t// in\n    tag_769:\n        /* \"#utility.yul\":36449:36585   */\n      swap8\n      pop\n        /* \"#utility.yul\":36608:36701   */\n      tag_770\n        /* \"#utility.yul\":36694:36700   */\n      dup4\n        /* \"#utility.yul\":36608:36701   */\n      tag_413\n      jump\t// in\n    tag_770:\n        /* \"#utility.yul\":36598:36701   */\n      swap3\n      pop\n        /* \"#utility.yul\":36388:36711   */\n      pop\n        /* \"#utility.yul\":36375:36376   */\n      0x01\n        /* \"#utility.yul\":36372:36373   */\n      dup2\n        /* \"#utility.yul\":36368:36377   */\n      add\n        /* \"#utility.yul\":36363:36377   */\n      swap1\n      pop\n        /* \"#utility.yul\":36328:36711   */\n      jump(tag_766)\n    tag_768:\n        /* \"#utility.yul\":36332:36346   */\n      pop\n        /* \"#utility.yul\":36727:36730   */\n      dup6\n        /* \"#utility.yul\":36720:36730   */\n      swap4\n      pop\n        /* \"#utility.yul\":35930:36736   */\n      pop\n      pop\n      pop\n        /* \"#utility.yul\":35740:36736   */\n      swap3\n      swap2\n      pop\n      pop\n      jump\t// out\n        /* \"#utility.yul\":36742:36881   */\n    tag_415:\n        /* \"#utility.yul\":36834:36840   */\n      0x00\n        /* \"#utility.yul\":36868:36873   */\n      dup2\n        /* \"#utility.yul\":36862:36874   */\n      mload\n        /* \"#utility.yul\":36852:36874   */\n      swap1\n      pop\n        /* \"#utility.yul\":36742:36881   */\n      swap2\n      swap1\n      pop\n      jump\t// out\n        /* \"#utility.yul\":36887:37096   */\n    tag_416:\n        /* \"#utility.yul\":37011:37022   */\n      0x00\n        /* \"#utility.yul\":37045:37051   */\n      dup3\n        /* \"#utility.yul\":37040:37043   */\n      dup3\n        /* \"#utility.yul\":37033:37052   */\n      mstore\n        /* \"#utility.yul\":37085:37089   */\n      0x20\n        /* \"#utility.yul\":37080:37083   */\n      dup3\n        /* \"#utility.yul\":37076:37090   */\n      add\n        /* \"#utility.yul\":37061:37090   */\n      swap1\n      pop\n        /* \"#utility.yul\":36887:37096   */\n      swap3\n      swap2\n      pop\n      pop\n      jump\t// out\n        /* \"#utility.yul\":37102:37259   */\n    tag_417:\n        /* \"#utility.yul\":37194:37198   */\n      0x00\n        /* \"#utility.yul\":37217:37220   */\n      dup2\n        /* \"#utility.yul\":37209:37220   */\n      swap1\n      pop\n        /* \"#utility.yul\":37247:37251   */\n      0x20\n        /* \"#utility.yul\":37242:37245   */\n      dup3\n        /* \"#utility.yul\":37238:37252   */\n      add\n        /* \"#utility.yul\":37230:37252   */\n      swap1\n      pop\n        /* \"#utility.yul\":37102:37259   */\n      swap2\n      swap1\n      pop\n      jump\t// out\n        /* \"#utility.yul\":37305:37809   */\n    tag_418:\n        /* \"#utility.yul\":37442:37446   */\n      0x40\n        /* \"#utility.yul\":37437:37440   */\n      dup3\n        /* \"#utility.yul\":37433:37447   */\n      add\n        /* \"#utility.yul\":37535:37539   */\n      0x00\n        /* \"#utility.yul\":37528:37533   */\n      dup3\n        /* \"#utility.yul\":37524:37540   */\n      add\n        /* \"#utility.yul\":37518:37541   */\n      mload\n        /* \"#utility.yul\":37554:37617   */\n      tag_775\n        /* \"#utility.yul\":37611:37615   */\n      0x00\n        /* \"#utility.yul\":37606:37609   */\n      dup6\n        /* \"#utility.yul\":37602:37616   */\n      add\n        /* \"#utility.yul\":37588:37600   */\n      dup3\n        /* \"#utility.yul\":37554:37617   */\n      tag_401\n      jump\t// in\n    tag_775:\n        /* \"#utility.yul\":37457:37627   */\n      pop\n        /* \"#utility.yul\":37712:37716   */\n      0x20\n        /* \"#utility.yul\":37705:37710   */\n      dup3\n        /* \"#utility.yul\":37701:37717   */\n      add\n        /* \"#utility.yul\":37695:37718   */\n      mload\n        /* \"#utility.yul\":37731:37792   */\n      tag_776\n        /* \"#utility.yul\":37786:37790   */\n      0x20\n        /* \"#utility.yul\":37781:37784   */\n      dup6\n        /* \"#utility.yul\":37777:37791   */\n      add\n        /* \"#utility.yul\":37763:37775   */\n      dup3\n        /* \"#utility.yul\":37731:37792   */\n      tag_410\n      jump\t// in\n    tag_776:\n        /* \"#utility.yul\":37637:37802   */\n      pop\n        /* \"#utility.yul\":37411:37809   */\n      pop\n        /* \"#utility.yul\":37305:37809   */\n      pop\n      pop\n      jump\t// out\n        /* \"#utility.yul\":37815:38094   */\n    tag_419:\n        /* \"#utility.yul\":37934:37944   */\n      0x00\n        /* \"#utility.yul\":37955:38051   */\n      tag_778\n        /* \"#utility.yul\":38047:38050   */\n      dup4\n        /* \"#utility.yul\":38039:38045   */\n      dup4\n        /* \"#utility.yul\":37955:38051   */\n      tag_418\n      jump\t// in\n    tag_778:\n        /* \"#utility.yul\":38083:38087   */\n      0x40\n        /* \"#utility.yul\":38078:38081   */\n      dup4\n        /* \"#utility.yul\":38074:38088   */\n      add\n        /* \"#utility.yul\":38060:38088   */\n      swap1\n      pop\n        /* \"#utility.yul\":37815:38094   */\n      swap3\n      swap2\n      pop\n      pop\n      jump\t// out\n        /* \"#utility.yul\":38100:38238   */\n    tag_420:\n        /* \"#utility.yul\":38195:38199   */\n      0x00\n        /* \"#utility.yul\":38227:38231   */\n      0x20\n        /* \"#utility.yul\":38222:38225   */\n      dup3\n        /* \"#utility.yul\":38218:38232   */\n      add\n        /* \"#utility.yul\":38210:38232   */\n      swap1\n      pop\n        /* \"#utility.yul\":38100:38238   */\n      swap2\n      swap1\n      pop\n      jump\t// out\n        /* \"#utility.yul\":38288:39220   */\n    tag_421:\n        /* \"#utility.yul\":38457:38460   */\n      0x00\n        /* \"#utility.yul\":38486:38565   */\n      tag_781\n        /* \"#utility.yul\":38559:38564   */\n      dup3\n        /* \"#utility.yul\":38486:38565   */\n      tag_415\n      jump\t// in\n    tag_781:\n        /* \"#utility.yul\":38581:38692   */\n      tag_782\n        /* \"#utility.yul\":38685:38691   */\n      dup2\n        /* \"#utility.yul\":38680:38683   */\n      dup6\n        /* \"#utility.yul\":38581:38692   */\n      tag_416\n      jump\t// in\n    tag_782:\n        /* \"#utility.yul\":38574:38692   */\n      swap4\n      pop\n        /* \"#utility.yul\":38716:38797   */\n      tag_783\n        /* \"#utility.yul\":38791:38796   */\n      dup4\n        /* \"#utility.yul\":38716:38797   */\n      tag_417\n      jump\t// in\n    tag_783:\n        /* \"#utility.yul\":38820:38827   */\n      dup1\n        /* \"#utility.yul\":38851:38852   */\n      0x00\n        /* \"#utility.yul\":38836:39195   */\n    tag_784:\n        /* \"#utility.yul\":38861:38867   */\n      dup4\n        /* \"#utility.yul\":38858:38859   */\n      dup2\n        /* \"#utility.yul\":38855:38868   */\n      lt\n        /* \"#utility.yul\":38836:39195   */\n      iszero\n      tag_786\n      jumpi\n        /* \"#utility.yul\":38937:38943   */\n      dup2\n        /* \"#utility.yul\":38931:38944   */\n      mload\n        /* \"#utility.yul\":38964:39077   */\n      tag_787\n        /* \"#utility.yul\":39073:39076   */\n      dup9\n        /* \"#utility.yul\":39058:39071   */\n      dup3\n        /* \"#utility.yul\":38964:39077   */\n      tag_419\n      jump\t// in\n    tag_787:\n        /* \"#utility.yul\":38957:39077   */\n      swap8\n      pop\n        /* \"#utility.yul\":39100:39185   */\n      tag_788\n        /* \"#utility.yul\":39178:39184   */\n      dup4\n        /* \"#utility.yul\":39100:39185   */\n      tag_420\n      jump\t// in\n    tag_788:\n        /* \"#utility.yul\":39090:39185   */\n      swap3\n      pop\n        /* \"#utility.yul\":38896:39195   */\n      pop\n        /* \"#utility.yul\":38883:38884   */\n      0x01\n        /* \"#utility.yul\":38880:38881   */\n      dup2\n        /* \"#utility.yul\":38876:38885   */\n      add\n        /* \"#utility.yul\":38871:38885   */\n      swap1\n      pop\n        /* \"#utility.yul\":38836:39195   */\n      jump(tag_784)\n    tag_786:\n        /* \"#utility.yul\":38840:38854   */\n      pop\n        /* \"#utility.yul\":39211:39214   */\n      dup6\n        /* \"#utility.yul\":39204:39214   */\n      swap4\n      pop\n        /* \"#utility.yul\":38462:39220   */\n      pop\n      pop\n      pop\n        /* \"#utility.yul\":38288:39220   */\n      swap3\n      swap2\n      pop\n      pop\n      jump\t// out\n        /* \"#utility.yul\":39226:40814   */\n    tag_213:\n        /* \"#utility.yul\":39789:39793   */\n      0x00\n        /* \"#utility.yul\":39827:39830   */\n      0xc0\n        /* \"#utility.yul\":39816:39825   */\n      dup3\n        /* \"#utility.yul\":39812:39831   */\n      add\n        /* \"#utility.yul\":39804:39831   */\n      swap1\n      pop\n        /* \"#utility.yul\":39877:39886   */\n      dup2\n        /* \"#utility.yul\":39871:39875   */\n      dup2\n        /* \"#utility.yul\":39867:39887   */\n      sub\n        /* \"#utility.yul\":39863:39864   */\n      0x00\n        /* \"#utility.yul\":39852:39861   */\n      dup4\n        /* \"#utility.yul\":39848:39865   */\n      add\n        /* \"#utility.yul\":39841:39888   */\n      mstore\n        /* \"#utility.yul\":39905:40077   */\n      tag_790\n        /* \"#utility.yul\":40072:40076   */\n      dup2\n        /* \"#utility.yul\":40063:40069   */\n      dup10\n        /* \"#utility.yul\":39905:40077   */\n      tag_406\n      jump\t// in\n    tag_790:\n        /* \"#utility.yul\":39897:40077   */\n      swap1\n      pop\n        /* \"#utility.yul\":40124:40133   */\n      dup2\n        /* \"#utility.yul\":40118:40122   */\n      dup2\n        /* \"#utility.yul\":40114:40134   */\n      sub\n        /* \"#utility.yul\":40109:40111   */\n      0x20\n        /* \"#utility.yul\":40098:40107   */\n      dup4\n        /* \"#utility.yul\":40094:40112   */\n      add\n        /* \"#utility.yul\":40087:40135   */\n      mstore\n        /* \"#utility.yul\":40152:40326   */\n      tag_791\n        /* \"#utility.yul\":40321:40325   */\n      dup2\n        /* \"#utility.yul\":40312:40318   */\n      dup9\n        /* \"#utility.yul\":40152:40326   */\n      tag_414\n      jump\t// in\n    tag_791:\n        /* \"#utility.yul\":40144:40326   */\n      swap1\n      pop\n        /* \"#utility.yul\":40336:40408   */\n      tag_792\n        /* \"#utility.yul\":40404:40406   */\n      0x40\n        /* \"#utility.yul\":40393:40402   */\n      dup4\n        /* \"#utility.yul\":40389:40407   */\n      add\n        /* \"#utility.yul\":40380:40386   */\n      dup8\n        /* \"#utility.yul\":40336:40408   */\n      tag_344\n      jump\t// in\n    tag_792:\n        /* \"#utility.yul\":40418:40490   */\n      tag_793\n        /* \"#utility.yul\":40486:40488   */\n      0x60\n        /* \"#utility.yul\":40475:40484   */\n      dup4\n        /* \"#utility.yul\":40471:40489   */\n      add\n        /* \"#utility.yul\":40462:40468   */\n      dup7\n        /* \"#utility.yul\":40418:40490   */\n      tag_357\n      jump\t// in\n    tag_793:\n        /* \"#utility.yul\":40500:40573   */\n      tag_794\n        /* \"#utility.yul\":40568:40571   */\n      0x80\n        /* \"#utility.yul\":40557:40566   */\n      dup4\n        /* \"#utility.yul\":40553:40572   */\n      add\n        /* \"#utility.yul\":40544:40550   */\n      dup6\n        /* \"#utility.yul\":40500:40573   */\n      tag_357\n      jump\t// in\n    tag_794:\n        /* \"#utility.yul\":40621:40630   */\n      dup2\n        /* \"#utility.yul\":40615:40619   */\n      dup2\n        /* \"#utility.yul\":40611:40631   */\n      sub\n        /* \"#utility.yul\":40605:40608   */\n      0xa0\n        /* \"#utility.yul\":40594:40603   */\n      dup4\n        /* \"#utility.yul\":40590:40609   */\n      add\n        /* \"#utility.yul\":40583:40632   */\n      mstore\n        /* \"#utility.yul\":40649:40807   */\n      tag_795\n        /* \"#utility.yul\":40802:40806   */\n      dup2\n        /* \"#utility.yul\":40793:40799   */\n      dup5\n        /* \"#utility.yul\":40649:40807   */\n      tag_421\n      jump\t// in\n    tag_795:\n        /* \"#utility.yul\":40641:40807   */\n      swap1\n      pop\n        /* \"#utility.yul\":39226:40814   */\n      swap8\n      swap7\n      pop\n      pop\n      pop\n      pop\n      pop\n      pop\n      pop\n      jump\t// out\n        /* \"#utility.yul\":40820:41000   */\n    tag_422:\n        /* \"#utility.yul\":40960:40992   */\n      0x457466526f757465723a20696e646578207072696365206973207a65726f0000\n        /* \"#utility.yul\":40956:40957   */\n      0x00\n        /* \"#utility.yul\":40948:40954   */\n      dup3\n        /* \"#utility.yul\":40944:40958   */\n      add\n        /* \"#utility.yul\":40937:40993   */\n      mstore\n        /* \"#utility.yul\":40820:41000   */\n      pop\n      jump\t// out\n        /* \"#utility.yul\":41006:41372   */\n    tag_423:\n        /* \"#utility.yul\":41148:41151   */\n      0x00\n        /* \"#utility.yul\":41169:41236   */\n      tag_798\n        /* \"#utility.yul\":41233:41235   */\n      0x1e\n        /* \"#utility.yul\":41228:41231   */\n      dup4\n        /* \"#utility.yul\":41169:41236   */\n      tag_352\n      jump\t// in\n    tag_798:\n        /* \"#utility.yul\":41162:41236   */\n      swap2\n      pop\n        /* \"#utility.yul\":41245:41338   */\n      tag_799\n        /* \"#utility.yul\":41334:41337   */\n      dup3\n        /* \"#utility.yul\":41245:41338   */\n      tag_422\n      jump\t// in\n    tag_799:\n        /* \"#utility.yul\":41363:41365   */\n      0x20\n        /* \"#utility.yul\":41358:41361   */\n      dup3\n        /* \"#utility.yul\":41354:41366   */\n      add\n        /* \"#utility.yul\":41347:41366   */\n      swap1\n      pop\n        /* \"#utility.yul\":41006:41372   */\n      swap2\n      swap1\n      pop\n      jump\t// out\n        /* \"#utility.yul\":41378:41797   */\n    tag_264:\n        /* \"#utility.yul\":41544:41548   */\n      0x00\n        /* \"#utility.yul\":41582:41584   */\n      0x20\n        /* \"#utility.yul\":41571:41580   */\n      dup3\n        /* \"#utility.yul\":41567:41585   */\n      add\n        /* \"#utility.yul\":41559:41585   */\n      swap1\n      pop\n        /* \"#utility.yul\":41631:41640   */\n      dup2\n        /* \"#utility.yul\":41625:41629   */\n      dup2\n        /* \"#utility.yul\":41621:41641   */\n      sub\n        /* \"#utility.yul\":41617:41618   */\n      0x00\n        /* \"#utility.yul\":41606:41615   */\n      dup4\n        /* \"#utility.yul\":41602:41619   */\n      add\n        /* \"#utility.yul\":41595:41642   */\n      mstore\n        /* \"#utility.yul\":41659:41790   */\n      tag_801\n        /* \"#utility.yul\":41785:41789   */\n      dup2\n        /* \"#utility.yul\":41659:41790   */\n      tag_423\n      jump\t// in\n    tag_801:\n        /* \"#utility.yul\":41651:41790   */\n      swap1\n      pop\n        /* \"#utility.yul\":41378:41797   */\n      swap2\n      swap1\n      pop\n      jump\t// out\n        /* \"#utility.yul\":41803:41975   */\n    tag_424:\n        /* \"#utility.yul\":41943:41967   */\n      0x457466526f757465723a204e4156206973207a65726f00000000000000000000\n        /* \"#utility.yul\":41939:41940   */\n      0x00\n        /* \"#utility.yul\":41931:41937   */\n      dup3\n        /* \"#utility.yul\":41927:41941   */\n      add\n        /* \"#utility.yul\":41920:41968   */\n      mstore\n        /* \"#utility.yul\":41803:41975   */\n      pop\n      jump\t// out\n        /* \"#utility.yul\":41981:42347   */\n    tag_425:\n        /* \"#utility.yul\":42123:42126   */\n      0x00\n        /* \"#utility.yul\":42144:42211   */\n      tag_804\n        /* \"#utility.yul\":42208:42210   */\n      0x16\n        /* \"#utility.yul\":42203:42206   */\n      dup4\n        /* \"#utility.yul\":42144:42211   */\n      tag_352\n      jump\t// in\n    tag_804:\n        /* \"#utility.yul\":42137:42211   */\n      swap2\n      pop\n        /* \"#utility.yul\":42220:42313   */\n      tag_805\n        /* \"#utility.yul\":42309:42312   */\n      dup3\n        /* \"#utility.yul\":42220:42313   */\n      tag_424\n      jump\t// in\n    tag_805:\n        /* \"#utility.yul\":42338:42340   */\n      0x20\n        /* \"#utility.yul\":42333:42336   */\n      dup3\n        /* \"#utility.yul\":42329:42341   */\n      add\n        /* \"#utility.yul\":42322:42341   */\n      swap1\n      pop\n        /* \"#utility.yul\":41981:42347   */\n      swap2\n      swap1\n      pop\n      jump\t// out\n        /* \"#utility.yul\":42353:42772   */\n    tag_270:\n        /* \"#utility.yul\":42519:42523   */\n      0x00\n        /* \"#utility.yul\":42557:42559   */\n      0x20\n        /* \"#utility.yul\":42546:42555   */\n      dup3\n        /* \"#utility.yul\":42542:42560   */\n      add\n        /* \"#utility.yul\":42534:42560   */\n      swap1\n      pop\n        /* \"#utility.yul\":42606:42615   */\n      dup2\n        /* \"#utility.yul\":42600:42604   */\n      dup2\n        /* \"#utility.yul\":42596:42616   */\n      sub\n        /* \"#utility.yul\":42592:42593   */\n      0x00\n        /* \"#utility.yul\":42581:42590   */\n      dup4\n        /* \"#utility.yul\":42577:42594   */\n      add\n        /* \"#utility.yul\":42570:42617   */\n      mstore\n        /* \"#utility.yul\":42634:42765   */\n      tag_807\n        /* \"#utility.yul\":42760:42764   */\n      dup2\n        /* \"#utility.yul\":42634:42765   */\n      tag_425\n      jump\t// in\n    tag_807:\n        /* \"#utility.yul\":42626:42765   */\n      swap1\n      pop\n        /* \"#utility.yul\":42353:42772   */\n      swap2\n      swap1\n      pop\n      jump\t// out\n        /* \"#utility.yul\":42778:42960   */\n    tag_426:\n        /* \"#utility.yul\":42918:42952   */\n      0x4469726563746f72792063616e6e6f74206265207a65726f2061646472657373\n        /* \"#utility.yul\":42914:42915   */\n      0x00\n        /* \"#utility.yul\":42906:42912   */\n      dup3\n        /* \"#utility.yul\":42902:42916   */\n      add\n        /* \"#utility.yul\":42895:42953   */\n      mstore\n        /* \"#utility.yul\":42778:42960   */\n      pop\n      jump\t// out\n        /* \"#utility.yul\":42966:43332   */\n    tag_427:\n        /* \"#utility.yul\":43108:43111   */\n      0x00\n        /* \"#utility.yul\":43129:43196   */\n      tag_810\n        /* \"#utility.yul\":43193:43195   */\n      0x20\n        /* \"#utility.yul\":43188:43191   */\n      dup4\n        /* \"#utility.yul\":43129:43196   */\n      tag_352\n      jump\t// in\n    tag_810:\n        /* \"#utility.yul\":43122:43196   */\n      swap2\n      pop\n        /* \"#utility.yul\":43205:43298   */\n      tag_811\n        /* \"#utility.yul\":43294:43297   */\n      dup3\n        /* \"#utility.yul\":43205:43298   */\n      tag_426\n      jump\t// in\n    tag_811:\n        /* \"#utility.yul\":43323:43325   */\n      0x20\n        /* \"#utility.yul\":43318:43321   */\n      dup3\n        /* \"#utility.yul\":43314:43326   */\n      add\n        /* \"#utility.yul\":43307:43326   */\n      swap1\n      pop\n        /* \"#utility.yul\":42966:43332   */\n      swap2\n      swap1\n      pop\n      jump\t// out\n        /* \"#utility.yul\":43338:43757   */\n    tag_280:\n        /* \"#utility.yul\":43504:43508   */\n      0x00\n        /* \"#utility.yul\":43542:43544   */\n      0x20\n        /* \"#utility.yul\":43531:43540   */\n      dup3\n        /* \"#utility.yul\":43527:43545   */\n      add\n        /* \"#utility.yul\":43519:43545   */\n      swap1\n      pop\n        /* \"#utility.yul\":43591:43600   */\n      dup2\n        /* \"#utility.yul\":43585:43589   */\n      dup2\n        /* \"#utility.yul\":43581:43601   */\n      sub\n        /* \"#utility.yul\":43577:43578   */\n      0x00\n        /* \"#utility.yul\":43566:43575   */\n      dup4\n        /* \"#utility.yul\":43562:43579   */\n      add\n        /* \"#utility.yul\":43555:43602   */\n      mstore\n        /* \"#utility.yul\":43619:43750   */\n      tag_813\n        /* \"#utility.yul\":43745:43749   */\n      dup2\n        /* \"#utility.yul\":43619:43750   */\n      tag_427\n      jump\t// in\n    tag_813:\n        /* \"#utility.yul\":43611:43750   */\n      swap1\n      pop\n        /* \"#utility.yul\":43338:43757   */\n      swap2\n      swap1\n      pop\n      jump\t// out\n        /* \"#utility.yul\":43763:43941   */\n    tag_428:\n        /* \"#utility.yul\":43903:43933   */\n      0x4469726563746f7279206d757374206265206120636f6e747261637400000000\n        /* \"#utility.yul\":43899:43900   */\n      0x00\n        /* \"#utility.yul\":43891:43897   */\n      dup3\n        /* \"#utility.yul\":43887:43901   */\n      add\n        /* \"#utility.yul\":43880:43934   */\n      mstore\n        /* \"#utility.yul\":43763:43941   */\n      pop\n      jump\t// out\n        /* \"#utility.yul\":43947:44313   */\n    tag_429:\n        /* \"#utility.yul\":44089:44092   */\n      0x00\n        /* \"#utility.yul\":44110:44177   */\n      tag_816\n        /* \"#utility.yul\":44174:44176   */\n      0x1c\n        /* \"#utility.yul\":44169:44172   */\n      dup4\n        /* \"#utility.yul\":44110:44177   */\n      tag_352\n      jump\t// in\n    tag_816:\n        /* \"#utility.yul\":44103:44177   */\n      swap2\n      pop\n        /* \"#utility.yul\":44186:44279   */\n      tag_817\n        /* \"#utility.yul\":44275:44278   */\n      dup3\n        /* \"#utility.yul\":44186:44279   */\n      tag_428\n      jump\t// in\n    tag_817:\n        /* \"#utility.yul\":44304:44306   */\n      0x20\n        /* \"#utility.yul\":44299:44302   */\n      dup3\n        /* \"#utility.yul\":44295:44307   */\n      add\n        /* \"#utility.yul\":44288:44307   */\n      swap1\n      pop\n        /* \"#utility.yul\":43947:44313   */\n      swap2\n      swap1\n      pop\n      jump\t// out\n        /* \"#utility.yul\":44319:44738   */\n    tag_283:\n        /* \"#utility.yul\":44485:44489   */\n      0x00\n        /* \"#utility.yul\":44523:44525   */\n      0x20\n        /* \"#utility.yul\":44512:44521   */\n      dup3\n        /* \"#utility.yul\":44508:44526   */\n      add\n        /* \"#utility.yul\":44500:44526   */\n      swap1\n      pop\n        /* \"#utility.yul\":44572:44581   */\n      dup2\n        /* \"#utility.yul\":44566:44570   */\n      dup2\n        /* \"#utility.yul\":44562:44582   */\n      sub\n        /* \"#utility.yul\":44558:44559   */\n      0x00\n        /* \"#utility.yul\":44547:44556   */\n      dup4\n        /* \"#utility.yul\":44543:44560   */\n      add\n        /* \"#utility.yul\":44536:44583   */\n      mstore\n        /* \"#utility.yul\":44600:44731   */\n      tag_819\n        /* \"#utility.yul\":44726:44730   */\n      dup2\n        /* \"#utility.yul\":44600:44731   */\n      tag_429\n      jump\t// in\n    tag_819:\n        /* \"#utility.yul\":44592:44731   */\n      swap1\n      pop\n        /* \"#utility.yul\":44319:44738   */\n      swap2\n      swap1\n      pop\n      jump\t// out\n        /* \"#utility.yul\":44744:44975   */\n    tag_430:\n        /* \"#utility.yul\":44884:44918   */\n      0x4469726563746f7279206164647265737320646f6573206e6f7420696d706c65\n        /* \"#utility.yul\":44880:44881   */\n      0x00\n        /* \"#utility.yul\":44872:44878   */\n      dup3\n        /* \"#utility.yul\":44868:44882   */\n      add\n        /* \"#utility.yul\":44861:44919   */\n      mstore\n        /* \"#utility.yul\":44953:44967   */\n      0x6d656e74206f776e657228290000000000000000000000000000000000000000\n        /* \"#utility.yul\":44948:44950   */\n      0x20\n        /* \"#utility.yul\":44940:44946   */\n      dup3\n        /* \"#utility.yul\":44936:44951   */\n      add\n        /* \"#utility.yul\":44929:44968   */\n      mstore\n        /* \"#utility.yul\":44744:44975   */\n      pop\n      jump\t// out\n        /* \"#utility.yul\":44981:45347   */\n    tag_431:\n        /* \"#utility.yul\":45123:45126   */\n      0x00\n        /* \"#utility.yul\":45144:45211   */\n      tag_822\n        /* \"#utility.yul\":45208:45210   */\n      0x2c\n        /* \"#utility.yul\":45203:45206   */\n      dup4\n        /* \"#utility.yul\":45144:45211   */\n      tag_352\n      jump\t// in\n    tag_822:\n        /* \"#utility.yul\":45137:45211   */\n      swap2\n      pop\n        /* \"#utility.yul\":45220:45313   */\n      tag_823\n        /* \"#utility.yul\":45309:45312   */\n      dup3\n        /* \"#utility.yul\":45220:45313   */\n      tag_430\n      jump\t// in\n    tag_823:\n        /* \"#utility.yul\":45338:45340   */\n      0x40\n        /* \"#utility.yul\":45333:45336   */\n      dup3\n        /* \"#utility.yul\":45329:45341   */\n      add\n        /* \"#utility.yul\":45322:45341   */\n      swap1\n      pop\n        /* \"#utility.yul\":44981:45347   */\n      swap2\n      swap1\n      pop\n      jump\t// out\n        /* \"#utility.yul\":45353:45772   */\n    tag_291:\n        /* \"#utility.yul\":45519:45523   */\n      0x00\n        /* \"#utility.yul\":45557:45559   */\n      0x20\n        /* \"#utility.yul\":45546:45555   */\n      dup3\n        /* \"#utility.yul\":45542:45560   */\n      add\n        /* \"#utility.yul\":45534:45560   */\n      swap1\n      pop\n        /* \"#utility.yul\":45606:45615   */\n      dup2\n        /* \"#utility.yul\":45600:45604   */\n      dup2\n        /* \"#utility.yul\":45596:45616   */\n      sub\n        /* \"#utility.yul\":45592:45593   */\n      0x00\n        /* \"#utility.yul\":45581:45590   */\n      dup4\n        /* \"#utility.yul\":45577:45594   */\n      add\n        /* \"#utility.yul\":45570:45617   */\n      mstore\n        /* \"#utility.yul\":45634:45765   */\n      tag_825\n        /* \"#utility.yul\":45760:45764   */\n      dup2\n        /* \"#utility.yul\":45634:45765   */\n      tag_431\n      jump\t// in\n    tag_825:\n        /* \"#utility.yul\":45626:45765   */\n      swap1\n      pop\n        /* \"#utility.yul\":45353:45772   */\n      swap2\n      swap1\n      pop\n      jump\t// out\n        /* \"#utility.yul\":45778:46110   */\n    tag_299:\n        /* \"#utility.yul\":45899:45903   */\n      0x00\n        /* \"#utility.yul\":45937:45939   */\n      0x40\n        /* \"#utility.yul\":45926:45935   */\n      dup3\n        /* \"#utility.yul\":45922:45940   */\n      add\n        /* \"#utility.yul\":45914:45940   */\n      swap1\n      pop\n        /* \"#utility.yul\":45950:46021   */\n      tag_827\n        /* \"#utility.yul\":46018:46019   */\n      0x00\n        /* \"#utility.yul\":46007:46016   */\n      dup4\n        /* \"#utility.yul\":46003:46020   */\n      add\n        /* \"#utility.yul\":45994:46000   */\n      dup6\n        /* \"#utility.yul\":45950:46021   */\n      tag_344\n      jump\t// in\n    tag_827:\n        /* \"#utility.yul\":46031:46103   */\n      tag_828\n        /* \"#utility.yul\":46099:46101   */\n      0x20\n        /* \"#utility.yul\":46088:46097   */\n      dup4\n        /* \"#utility.yul\":46084:46102   */\n      add\n        /* \"#utility.yul\":46075:46081   */\n      dup5\n        /* \"#utility.yul\":46031:46103   */\n      tag_344\n      jump\t// in\n    tag_828:\n        /* \"#utility.yul\":45778:46110   */\n      swap4\n      swap3\n      pop\n      pop\n      pop\n      jump\t// out\n        /* \"#utility.yul\":46116:46201   */\n    tag_432:\n        /* \"#utility.yul\":46161:46168   */\n      0x00\n        /* \"#utility.yul\":46190:46195   */\n      dup2\n        /* \"#utility.yul\":46179:46195   */\n      swap1\n      pop\n        /* \"#utility.yul\":46116:46201   */\n      swap2\n      swap1\n      pop\n      jump\t// out\n        /* \"#utility.yul\":46207:46365   */\n    tag_433:\n        /* \"#utility.yul\":46265:46274   */\n      0x00\n        /* \"#utility.yul\":46298:46359   */\n      tag_831\n        /* \"#utility.yul\":46316:46358   */\n      tag_832\n        /* \"#utility.yul\":46325:46357   */\n      tag_833\n        /* \"#utility.yul\":46351:46356   */\n      dup5\n        /* \"#utility.yul\":46325:46357   */\n      tag_432\n      jump\t// in\n    tag_833:\n        /* \"#utility.yul\":46316:46358   */\n      tag_345\n      jump\t// in\n    tag_832:\n        /* \"#utility.yul\":46298:46359   */\n      tag_327\n      jump\t// in\n    tag_831:\n        /* \"#utility.yul\":46285:46359   */\n      swap1\n      pop\n        /* \"#utility.yul\":46207:46365   */\n      swap2\n      swap1\n      pop\n      jump\t// out\n        /* \"#utility.yul\":46371:46518   */\n    tag_434:\n        /* \"#utility.yul\":46466:46511   */\n      tag_835\n        /* \"#utility.yul\":46505:46510   */\n      dup2\n        /* \"#utility.yul\":46466:46511   */\n      tag_433\n      jump\t// in\n    tag_835:\n        /* \"#utility.yul\":46461:46464   */\n      dup3\n        /* \"#utility.yul\":46454:46512   */\n      mstore\n        /* \"#utility.yul\":46371:46518   */\n      pop\n      pop\n      jump\t// out\n        /* \"#utility.yul\":46524:46872   */\n    tag_306:\n        /* \"#utility.yul\":46653:46657   */\n      0x00\n        /* \"#utility.yul\":46691:46693   */\n      0x40\n        /* \"#utility.yul\":46680:46689   */\n      dup3\n        /* \"#utility.yul\":46676:46694   */\n      add\n        /* \"#utility.yul\":46668:46694   */\n      swap1\n      pop\n        /* \"#utility.yul\":46704:46775   */\n      tag_837\n        /* \"#utility.yul\":46772:46773   */\n      0x00\n        /* \"#utility.yul\":46761:46770   */\n      dup4\n        /* \"#utility.yul\":46757:46774   */\n      add\n        /* \"#utility.yul\":46748:46754   */\n      dup6\n        /* \"#utility.yul\":46704:46775   */\n      tag_344\n      jump\t// in\n    tag_837:\n        /* \"#utility.yul\":46785:46865   */\n      tag_838\n        /* \"#utility.yul\":46861:46863   */\n      0x20\n        /* \"#utility.yul\":46850:46859   */\n      dup4\n        /* \"#utility.yul\":46846:46864   */\n      add\n        /* \"#utility.yul\":46837:46843   */\n      dup5\n        /* \"#utility.yul\":46785:46865   */\n      tag_434\n      jump\t// in\n    tag_838:\n        /* \"#utility.yul\":46524:46872   */\n      swap4\n      swap3\n      pop\n      pop\n      pop\n      jump\t// out\n        /* \"#utility.yul\":46878:46968   */\n    tag_435:\n        /* \"#utility.yul\":46912:46919   */\n      0x00\n        /* \"#utility.yul\":46955:46960   */\n      dup2\n        /* \"#utility.yul\":46948:46961   */\n      iszero\n        /* \"#utility.yul\":46941:46962   */\n      iszero\n        /* \"#utility.yul\":46930:46962   */\n      swap1\n      pop\n        /* \"#utility.yul\":46878:46968   */\n      swap2\n      swap1\n      pop\n      jump\t// out\n        /* \"#utility.yul\":46974:47090   */\n    tag_436:\n        /* \"#utility.yul\":47044:47065   */\n      tag_841\n        /* \"#utility.yul\":47059:47064   */\n      dup2\n        /* \"#utility.yul\":47044:47065   */\n      tag_435\n      jump\t// in\n    tag_841:\n        /* \"#utility.yul\":47037:47042   */\n      dup2\n        /* \"#utility.yul\":47034:47066   */\n      eq\n        /* \"#utility.yul\":47024:47084   */\n      tag_842\n      jumpi\n        /* \"#utility.yul\":47080:47081   */\n      0x00\n        /* \"#utility.yul\":47077:47078   */\n      0x00\n        /* \"#utility.yul\":47070:47082   */\n      revert\n        /* \"#utility.yul\":47024:47084   */\n    tag_842:\n        /* \"#utility.yul\":46974:47090   */\n      pop\n      jump\t// out\n        /* \"#utility.yul\":47096:47233   */\n    tag_437:\n        /* \"#utility.yul\":47150:47155   */\n      0x00\n        /* \"#utility.yul\":47181:47187   */\n      dup2\n        /* \"#utility.yul\":47175:47188   */\n      mload\n        /* \"#utility.yul\":47166:47188   */\n      swap1\n      pop\n        /* \"#utility.yul\":47197:47227   */\n      tag_844\n        /* \"#utility.yul\":47221:47226   */\n      dup2\n        /* \"#utility.yul\":47197:47227   */\n      tag_436\n      jump\t// in\n    tag_844:\n        /* \"#utility.yul\":47096:47233   */\n      swap3\n      swap2\n      pop\n      pop\n      jump\t// out\n        /* \"#utility.yul\":47239:47584   */\n    tag_310:\n        /* \"#utility.yul\":47306:47312   */\n      0x00\n        /* \"#utility.yul\":47355:47357   */\n      0x20\n        /* \"#utility.yul\":47343:47352   */\n      dup3\n        /* \"#utility.yul\":47334:47341   */\n      dup5\n        /* \"#utility.yul\":47330:47353   */\n      sub\n        /* \"#utility.yul\":47326:47358   */\n      slt\n        /* \"#utility.yul\":47323:47442   */\n      iszero\n      tag_846\n      jumpi\n        /* \"#utility.yul\":47361:47440   */\n      tag_847\n      tag_325\n      jump\t// in\n    tag_847:\n        /* \"#utility.yul\":47323:47442   */\n    tag_846:\n        /* \"#utility.yul\":47481:47482   */\n      0x00\n        /* \"#utility.yul\":47506:47567   */\n      tag_848\n        /* \"#utility.yul\":47559:47566   */\n      dup5\n        /* \"#utility.yul\":47550:47556   */\n      dup3\n        /* \"#utility.yul\":47539:47548   */\n      dup6\n        /* \"#utility.yul\":47535:47557   */\n      add\n        /* \"#utility.yul\":47506:47567   */\n      tag_437\n      jump\t// in\n    tag_848:\n        /* \"#utility.yul\":47496:47567   */\n      swap2\n      pop\n        /* \"#utility.yul\":47452:47577   */\n      pop\n        /* \"#utility.yul\":47239:47584   */\n      swap3\n      swap2\n      pop\n      pop\n      jump\t// out\n\n    auxdata: 0xa2646970667358221220097cf149e5fa7e2597ed35cd9e1e7bc928a225ffad5b862ea95d883a52ffd6a764736f6c634300081e0033\n}\n",
				"bytecode": {
					"linkReferences": {},
					"object": "608060405234801561000f575f5ffd5b506040516134473803806134478339818101604052810190610031919061025e565b806100418161004f60201b60201c565b5060018081905550506103f7565b5f73ffffffffffffffffffffffffffffffffffffffff168173ffffffffffffffffffffffffffffffffffffffff16036100bd576040517f08c379a00000000000000000000000000000000000000000000000000000000081526004016100b4906102e3565b60405180910390fd5b5f8173ffffffffffffffffffffffffffffffffffffffff163b11610116576040517f08c379a000000000000000000000000000000000000000000000000000000000815260040161010d9061034b565b60405180910390fd5b8073ffffffffffffffffffffffffffffffffffffffff16638da5cb5b6040518163ffffffff1660e01b8152600401602060405180830381865afa92505050801561017e57506040513d601f19601f8201168201806040525081019061017b919061025e565b60015b6101bd576040517f08c379a00000000000000000000000000000000000000000000000000000000081526004016101b4906103d9565b60405180910390fd5b815f5f6101000a81548173ffffffffffffffffffffffffffffffffffffffff021916908373ffffffffffffffffffffffffffffffffffffffff1602179055505050565b5f5ffd5b5f73ffffffffffffffffffffffffffffffffffffffff82169050919050565b5f61022d82610204565b9050919050565b61023d81610223565b8114610247575f5ffd5b50565b5f8151905061025881610234565b92915050565b5f6020828403121561027357610272610200565b5b5f6102808482850161024a565b91505092915050565b5f82825260208201905092915050565b7f4469726563746f72792063616e6e6f74206265207a65726f20616464726573735f82015250565b5f6102cd602083610289565b91506102d882610299565b602082019050919050565b5f6020820190508181035f8301526102fa816102c1565b9050919050565b7f4469726563746f7279206d757374206265206120636f6e7472616374000000005f82015250565b5f610335601c83610289565b915061034082610301565b602082019050919050565b5f6020820190508181035f83015261036281610329565b9050919050565b7f4469726563746f7279206164647265737320646f6573206e6f7420696d706c655f8201527f6d656e74206f776e657228290000000000000000000000000000000000000000602082015250565b5f6103c3602c83610289565b91506103ce82610369565b604082019050919050565b5f6020820190508181035f8301526103f0816103b7565b9050919050565b613043806104045f395ff3fe608060405260043610610054575f3560e01c806316274921146100585780632726261814610080578063658a847a146100bc578063706910ff146100e65780638da5cb5b14610102578063ba4c7be11461012c575b5f5ffd5b348015610063575f5ffd5b5061007e60048036038101906100799190611a86565b610154565b005b34801561008b575f5ffd5b506100a660048036038101906100a19190611c39565b6104a6565b6040516100b39190611ca0565b60405180910390f35b3480156100c7575f5ffd5b506100d0610546565b6040516100dd9190611d14565b60405180910390f35b61010060048036038101906100fb9190611d57565b61056a565b005b34801561010d575f5ffd5b50610116610728565b6040516101239190611ca0565b60405180910390f35b348015610137575f5ffd5b50610152600480360381019061014d9190611dbb565b6107bb565b005b61015c6108c1565b5f841161019e576040517f08c379a000000000000000000000000000000000000000000000000000000000815260040161019590611e66565b60405180910390fd5b5f73ffffffffffffffffffffffffffffffffffffffff168373ffffffffffffffffffffffffffffffffffffffff160361020c576040517f08c379a000000000000000000000000000000000000000000000000000000000815260040161020390611ef4565b60405180910390fd5b5f610215610910565b73ffffffffffffffffffffffffffffffffffffffff1663549e122b876040518263ffffffff1660e01b815260040161024d9190611f21565b5f60405180830381865afa158015610267573d5f5f3e3d5ffd5b505050506040513d5f823e3d601f19601f8201168201806040525081019061028f91906121cf565b90505f5f61029c88610954565b915091505f8273ffffffffffffffffffffffffffffffffffffffff166318160ddd6040518163ffffffff1660e01b8152600401602060405180830381865afa1580156102ea573d5f5f3e3d5ffd5b505050506040513d601f19601f8201168201806040525081019061030e919061222a565b90505f8111610352576040517f08c379a00000000000000000000000000000000000000000000000000000000081526004016103499061229f565b60405180910390fd5b80881115610395576040517f08c379a000000000000000000000000000000000000000000000000000000000815260040161038c9061232d565b60405180910390fd5b8273ffffffffffffffffffffffffffffffffffffffff16639dc29fac338a6040518363ffffffff1660e01b81526004016103d092919061234b565b5f604051808303815f87803b1580156103e7575f5ffd5b505af11580156103f9573d5f5f3e3d5ffd5b505050505f8773ffffffffffffffffffffffffffffffffffffffff16319050610427858a84868c8c8c610b43565b5f8873ffffffffffffffffffffffffffffffffffffffff163190505f828261044f919061239f565b90507f04642da3c4a621c7d8cd33d4709199a744bf8c879474df32af78b084896a79de8c338c8e856040516104889594939291906123f2565b60405180910390a15050505050505061049f610fd6565b5050505050565b5f5f5f9054906101000a900473ffffffffffffffffffffffffffffffffffffffff1673ffffffffffffffffffffffffffffffffffffffff166327262618836040518263ffffffff1660e01b81526004016105009190612485565b602060405180830381865afa15801561051b573d5f5f3e3d5ffd5b505050506040513d601f19601f8201168201806040525081019061053f91906124a5565b9050919050565b5f5f9054906101000a900473ffffffffffffffffffffffffffffffffffffffff1681565b6105726108c1565b5f34116105b4576040517f08c379a00000000000000000000000000000000000000000000000000000000081526004016105ab90612540565b60405180910390fd5b5f73ffffffffffffffffffffffffffffffffffffffff168373ffffffffffffffffffffffffffffffffffffffff1603610622576040517f08c379a0000000000000000000000000000000000000000000000000000000008152600401610619906125ce565b60405180910390fd5b5f61062b610910565b73ffffffffffffffffffffffffffffffffffffffff1663549e122b866040518263ffffffff1660e01b81526004016106639190611f21565b5f60405180830381865afa15801561067d573d5f5f3e3d5ffd5b505050506040513d5f823e3d601f19601f820116820180604052508101906106a591906121cf565b90505f5f6106b287610954565b915091505f3490506106c78482848989610fdf565b5f6106d48983868b611215565b90507f5b3fa64172584174917e1b3a206fe9c25d3120cf366b3d05ad5b6183a15cf78989338a843460405161070d9594939291906125ec565b60405180910390a15050505050610722610fd6565b50505050565b5f5f5f9054906101000a900473ffffffffffffffffffffffffffffffffffffffff1673ffffffffffffffffffffffffffffffffffffffff16638da5cb5b6040518163ffffffff1660e01b8152600401602060405180830381865afa158015610792573d5f5f3e3d5ffd5b505050506040513d601f19601f820116820180604052508101906107b691906124a5565b905090565b5f5f9054906101000a900473ffffffffffffffffffffffffffffffffffffffff1673ffffffffffffffffffffffffffffffffffffffff16638da5cb5b6040518163ffffffff1660e01b8152600401602060405180830381865afa158015610824573d5f5f3e3d5ffd5b505050506040513d601f19601f8201168201806040525081019061084891906124a5565b73ffffffffffffffffffffffffffffffffffffffff163373ffffffffffffffffffffffffffffffffffffffff16146108b5576040517f08c379a00000000000000000000000000000000000000000000000000000000081526004016108ac90612687565b60405180910390fd5b6108be816114cd565b50565b600260015403610906576040517f08c379a00000000000000000000000000000000000000000000000000000000081526004016108fd906126ef565b60405180910390fd5b6002600181905550565b5f61094f6040518060400160405280600d81526020017f696e6465782d666163746f7279000000000000000000000000000000000000008152506104a6565b905090565b5f5f5f61095f61167e565b73ffffffffffffffffffffffffffffffffffffffff1663f2018a1f856040518263ffffffff1660e01b81526004016109979190611f21565b602060405180830381865afa1580156109b2573d5f5f3e3d5ffd5b505050506040513d601f19601f820116820180604052508101906109d691906124a5565b90505f6109e161167e565b73ffffffffffffffffffffffffffffffffffffffff16633ee79962866040518263ffffffff1660e01b8152600401610a199190611f21565b602060405180830381865afa158015610a34573d5f5f3e3d5ffd5b505050506040513d601f19601f82011682018060405250810190610a5891906124a5565b90505f73ffffffffffffffffffffffffffffffffffffffff168273ffffffffffffffffffffffffffffffffffffffff1603610ac8576040517f08c379a0000000000000000000000000000000000000000000000000000000008152600401610abf9061277d565b60405180910390fd5b5f73ffffffffffffffffffffffffffffffffffffffff168173ffffffffffffffffffffffffffffffffffffffff1603610b36576040517f08c379a0000000000000000000000000000000000000000000000000000000008152600401610b2d9061280b565b60405180910390fd5b8181935093505050915091565b5f5f90505f5f90505b886040015151811015610c3a575f89604001518281518110610b7157610b70612829565b5b60200260200101515f015190505f8173ffffffffffffffffffffffffffffffffffffffff166370a08231896040518263ffffffff1660e01b8152600401610bb89190611ca0565b602060405180830381865afa158015610bd3573d5f5f3e3d5ffd5b505050506040513d601f19601f82011682018060405250810190610bf7919061222a565b90505f898b83610c079190612856565b610c1191906128c4565b90505f811115610c2a578480610c26906128f4565b9550505b5050508080600101915050610b4c565b505f8111610c7d576040517f08c379a0000000000000000000000000000000000000000000000000000000008152600401610c7490612985565b60405180910390fd5b5f8167ffffffffffffffff811115610c9857610c97611b15565b5b604051908082528060200260200182016040528015610cd157816020015b610cbe611956565b815260200190600190039081610cb65790505b5090505f5f90505f5f90505b8a6040015151811015610ea3575f8b604001518281518110610d0257610d01612829565b5b60200260200101515f015190505f8173ffffffffffffffffffffffffffffffffffffffff166370a082318b6040518263ffffffff1660e01b8152600401610d499190611ca0565b602060405180830381865afa158015610d64573d5f5f3e3d5ffd5b505050506040513d601f19601f82011682018060405250810190610d88919061222a565b90505f8103610d98575050610e96565b5f8b8d83610da69190612856565b610db091906128c4565b90505f8103610dc157505050610e96565b8a73ffffffffffffffffffffffffffffffffffffffff16633ccdbb288483306040518463ffffffff1660e01b8152600401610dfe939291906129a3565b5f604051808303815f87803b158015610e15575f5ffd5b505af1158015610e27573d5f5f3e3d5ffd5b50505050610e3d83610e376116c2565b83611706565b60405180604001604052808473ffffffffffffffffffffffffffffffffffffffff16815260200182815250868680610e74906128f4565b975081518110610e8757610e86612829565b5b60200260200101819052505050505b8080600101915050610cdd565b505f600167ffffffffffffffff811115610ec057610ebf611b15565b5b604051908082528060200260200182016040528015610ef957816020015b610ee6611984565b815260200190600190039081610ede5790505b50905060405180604001604052805f73ffffffffffffffffffffffffffffffffffffffff16815260200161271061ffff16815250815f81518110610f4057610f3f612829565b5b6020026020010181905250610f536116c2565b73ffffffffffffffffffffffffffffffffffffffff1663192b588784838a8a8a610f7b6118b7565b6040518763ffffffff1660e01b8152600401610f9c96959493929190612c84565b5f604051808303815f87803b158015610fb3575f5ffd5b505af1158015610fc5573d5f5f3e3d5ffd5b505050505050505050505050505050565b60018081905550565b5f600167ffffffffffffffff811115610ffb57610ffa611b15565b5b60405190808252806020026020018201604052801561103457816020015b611021611956565b8152602001906001900390816110195790505b50905060405180604001604052805f73ffffffffffffffffffffffffffffffffffffffff16815260200186815250815f8151811061107557611074612829565b5b60200260200101819052505f86604001515167ffffffffffffffff8111156110a05761109f611b15565b5b6040519080825280602002602001820160405280156110d957816020015b6110c6611984565b8152602001906001900390816110be5790505b5090505f5f90505b87604001515181101561118b576040518060400160405280896040015183815181106111105761110f612829565b5b60200260200101515f015173ffffffffffffffffffffffffffffffffffffffff1681526020018960400151838151811061114d5761114c612829565b5b60200260200101516020015161ffff1681525082828151811061117357611172612829565b5b602002602001018190525080806001019150506110e1565b506111946116c2565b73ffffffffffffffffffffffffffffffffffffffff1663192b58878784848989896111bd6118b7565b6040518863ffffffff1660e01b81526004016111de96959493929190612c84565b5f604051808303818588803b1580156111f5575f5ffd5b505af1158015611207573d5f5f3e3d5ffd5b505050505050505050505050565b5f5f8373ffffffffffffffffffffffffffffffffffffffff166318160ddd6040518163ffffffff1660e01b8152600401602060405180830381865afa158015611260573d5f5f3e3d5ffd5b505050506040513d601f19601f82011682018060405250810190611284919061222a565b90505f61128f61167e565b73ffffffffffffffffffffffffffffffffffffffff1663e4b603b3886040518263ffffffff1660e01b81526004016112c79190611f21565b602060405180830381865afa1580156112e2573d5f5f3e3d5ffd5b505050506040513d601f19601f82011682018060405250810190611306919061222a565b90505f5f83036113fb575f611319611912565b73ffffffffffffffffffffffffffffffffffffffff1663c9d54fa78a6040518263ffffffff1660e01b81526004016113519190611f21565b602060405180830381865afa15801561136c573d5f5f3e3d5ffd5b505050506040513d601f19601f82011682018060405250810190611390919061222a565b90505f81116113d4576040517f08c379a00000000000000000000000000000000000000000000000000000000081526004016113cb90612d42565b60405180910390fd5b80670de0b6b3a7640000896113e99190612856565b6113f391906128c4565b915050611457565b5f821161143d576040517f08c379a000000000000000000000000000000000000000000000000000000000815260040161143490612daa565b60405180910390fd5b81838861144a9190612856565b61145491906128c4565b90505b8573ffffffffffffffffffffffffffffffffffffffff166340c10f1986836040518363ffffffff1660e01b815260040161149292919061234b565b5f604051808303815f87803b1580156114a9575f5ffd5b505af11580156114bb573d5f5f3e3d5ffd5b50505050809350505050949350505050565b5f73ffffffffffffffffffffffffffffffffffffffff168173ffffffffffffffffffffffffffffffffffffffff160361153b576040517f08c379a000000000000000000000000000000000000000000000000000000000815260040161153290612e12565b60405180910390fd5b5f8173ffffffffffffffffffffffffffffffffffffffff163b11611594576040517f08c379a000000000000000000000000000000000000000000000000000000000815260040161158b90612e7a565b60405180910390fd5b8073ffffffffffffffffffffffffffffffffffffffff16638da5cb5b6040518163ffffffff1660e01b8152600401602060405180830381865afa9250505080156115fc57506040513d601f19601f820116820180604052508101906115f991906124a5565b60015b61163b576040517f08c379a000000000000000000000000000000000000000000000000000000000815260040161163290612f08565b60405180910390fd5b815f5f6101000a81548173ffffffffffffffffffffffffffffffffffffffff021916908373ffffffffffffffffffffffffffffffffffffffff1602179055505050565b5f6116bd6040518060400160405280600b81526020017f6574662d666163746f72790000000000000000000000000000000000000000008152506104a6565b905090565b5f6117016040518060400160405280601081526020017f6d756c7469737761702d726f75746572000000000000000000000000000000008152506104a6565b905090565b5f8390505f8173ffffffffffffffffffffffffffffffffffffffff1663dd62ed3e30866040518363ffffffff1660e01b8152600401611746929190612f26565b602060405180830381865afa158015611761573d5f5f3e3d5ffd5b505050506040513d601f19601f82011682018060405250810190611785919061222a565b9050828110156118b0575f8114611813578173ffffffffffffffffffffffffffffffffffffffff1663095ea7b3855f6040518363ffffffff1660e01b81526004016117d1929190612f86565b6020604051808303815f875af11580156117ed573d5f5f3e3d5ffd5b505050506040513d601f19601f820116820180604052508101906118119190612fe2565b505b8173ffffffffffffffffffffffffffffffffffffffff1663095ea7b3857fffffffffffffffffffffffffffffffffffffffffffffffffffffffffffffffff6040518363ffffffff1660e01b815260040161186e92919061234b565b6020604051808303815f875af115801561188a573d5f5f3e3d5ffd5b505050506040513d601f19601f820116820180604052508101906118ae9190612fe2565b505b5050505050565b60605f67ffffffffffffffff8111156118d3576118d2611b15565b5b60405190808252806020026020018201604052801561190c57816020015b6118f96119b6565b8152602001906001900390816118f15790505b50905090565b5f6119516040518060400160405280601281526020017f696e6465782d70726963652d6f7261636c6500000000000000000000000000008152506104a6565b905090565b60405180604001604052805f73ffffffffffffffffffffffffffffffffffffffff1681526020015f81525090565b60405180604001604052805f73ffffffffffffffffffffffffffffffffffffffff1681526020015f61ffff1681525090565b60405180604001604052805f73ffffffffffffffffffffffffffffffffffffffff1681526020015f61ffff1681525090565b5f604051905090565b5f5ffd5b5f5ffd5b5f819050919050565b611a0b816119f9565b8114611a15575f5ffd5b50565b5f81359050611a2681611a02565b92915050565b5f73ffffffffffffffffffffffffffffffffffffffff82169050919050565b5f611a5582611a2c565b9050919050565b611a6581611a4b565b8114611a6f575f5ffd5b50565b5f81359050611a8081611a5c565b92915050565b5f5f5f5f5f60a08688031215611a9f57611a9e6119f1565b5b5f611aac88828901611a18565b9550506020611abd88828901611a18565b9450506040611ace88828901611a72565b9350506060611adf88828901611a18565b9250506080611af088828901611a18565b9150509295509295909350565b5f5ffd5b5f5ffd5b5f601f19601f8301169050919050565b7f4e487b71000000000000000000000000000000000000000000000000000000005f52604160045260245ffd5b611b4b82611b05565b810181811067ffffffffffffffff82111715611b6a57611b69611b15565b5b80604052505050565b5f611b7c6119e8565b9050611b888282611b42565b919050565b5f67ffffffffffffffff821115611ba757611ba6611b15565b5b611bb082611b05565b9050602081019050919050565b828183375f83830152505050565b5f611bdd611bd884611b8d565b611b73565b905082815260208101848484011115611bf957611bf8611b01565b5b611c04848285611bbd565b509392505050565b5f82601f830112611c2057611c1f611afd565b5b8135611c30848260208601611bcb565b91505092915050565b5f60208284031215611c4e57611c4d6119f1565b5b5f82013567ffffffffffffffff811115611c6b57611c6a6119f5565b5b611c7784828501611c0c565b91505092915050565b5f611c8a82611a2c565b9050919050565b611c9a81611c80565b82525050565b5f602082019050611cb35f830184611c91565b92915050565b5f819050919050565b5f611cdc611cd7611cd284611a2c565b611cb9565b611a2c565b9050919050565b5f611ced82611cc2565b9050919050565b5f611cfe82611ce3565b9050919050565b611d0e81611cf4565b82525050565b5f602082019050611d275f830184611d05565b92915050565b611d3681611c80565b8114611d40575f5ffd5b50565b5f81359050611d5181611d2d565b92915050565b5f5f5f5f60808587031215611d6f57611d6e6119f1565b5b5f611d7c87828801611a18565b9450506020611d8d87828801611d43565b9350506040611d9e87828801611a18565b9250506060611daf87828801611a18565b91505092959194509250565b5f60208284031215611dd057611dcf6119f1565b5b5f611ddd84828501611d43565b91505092915050565b5f82825260208201905092915050565b7f457466526f757465723a20746f6b656e7320746f2073656c6c2073686f756c645f8201527f206e6f74206265207a65726f0000000000000000000000000000000000000000602082015250565b5f611e50602c83611de6565b9150611e5b82611df6565b604082019050919050565b5f6020820190508181035f830152611e7d81611e44565b9050919050565b7f457466526f757465723a2072656365697665722073686f756c64206e6f7420625f8201527f65207a65726f2061646472657373000000000000000000000000000000000000602082015250565b5f611ede602e83611de6565b9150611ee982611e84565b604082019050919050565b5f6020820190508181035f830152611f0b81611ed2565b9050919050565b611f1b816119f9565b82525050565b5f602082019050611f345f830184611f12565b92915050565b5f5ffd5b5f5ffd5b8281835e5f83830152505050565b5f611f62611f5d84611b8d565b611b73565b905082815260208101848484011115611f7e57611f7d611b01565b5b611f89848285611f42565b509392505050565b5f82601f830112611fa557611fa4611afd565b5b8151611fb5848260208601611f50565b91505092915050565b5f67ffffffffffffffff821115611fd857611fd7611b15565b5b602082029050602081019050919050565b5f5ffd5b5f81519050611ffb81611d2d565b92915050565b5f61ffff82169050919050565b61201781612001565b8114612021575f5ffd5b50565b5f815190506120328161200e565b92915050565b5f6040828403121561204d5761204c611f3a565b5b6120576040611b73565b90505f61206684828501611fed565b5f83015250602061207984828501612024565b60208301525092915050565b5f61209761209284611fbe565b611b73565b905080838252602082019050604084028301858111156120ba576120b9611fe9565b5b835b818110156120e357806120cf8882612038565b8452602084019350506040810190506120bc565b5050509392505050565b5f82601f83011261210157612100611afd565b5b8151612111848260208601612085565b91505092915050565b5f6060828403121561212f5761212e611f3a565b5b6121396060611b73565b90505f82015167ffffffffffffffff81111561215857612157611f3e565b5b61216484828501611f91565b5f83015250602082015167ffffffffffffffff81111561218757612186611f3e565b5b61219384828501611f91565b602083015250604082015167ffffffffffffffff8111156121b7576121b6611f3e565b5b6121c3848285016120ed565b60408301525092915050565b5f602082840312156121e4576121e36119f1565b5b5f82015167ffffffffffffffff811115612201576122006119f5565b5b61220d8482850161211a565b91505092915050565b5f8151905061222481611a02565b92915050565b5f6020828403121561223f5761223e6119f1565b5b5f61224c84828501612216565b91505092915050565b7f457466526f757465723a20746f6b656e20737570706c79206973207a65726f005f82015250565b5f612289601f83611de6565b915061229482612255565b602082019050919050565b5f6020820190508181035f8301526122b68161227d565b9050919050565b7f457466526f757465723a2073656c6c546f6b656e416d6f756e742069732067725f8201527f6561746572207468616e20746f74616c20737570706c79000000000000000000602082015250565b5f612317603783611de6565b9150612322826122bd565b604082019050919050565b5f6020820190508181035f8301526123448161230b565b9050919050565b5f60408201905061235e5f830185611c91565b61236b6020830184611f12565b9392505050565b7f4e487b71000000000000000000000000000000000000000000000000000000005f52601160045260245ffd5b5f6123a9826119f9565b91506123b4836119f9565b92508282039050818111156123cc576123cb612372565b5b92915050565b5f6123dc82611ce3565b9050919050565b6123ec816123d2565b82525050565b5f60a0820190506124055f830188611f12565b6124126020830187611c91565b61241f60408301866123e3565b61242c6060830185611f12565b6124396080830184611f12565b9695505050505050565b5f81519050919050565b5f61245782612443565b6124618185611de6565b9350612471818560208601611f42565b61247a81611b05565b840191505092915050565b5f6020820190508181035f83015261249d818461244d565b905092915050565b5f602082840312156124ba576124b96119f1565b5b5f6124c784828501611fed565b91505092915050565b7f457466526f757465723a204d73672076616c75652063616e6e6f74206265207a5f8201527f65726f0000000000000000000000000000000000000000000000000000000000602082015250565b5f61252a602383611de6565b9150612535826124d0565b604082019050919050565b5f6020820190508181035f8301526125578161251e565b9050919050565b7f457466526f757465723a2052656365697665722063616e6e6f74206265207a655f8201527f726f206164647265737300000000000000000000000000000000000000000000602082015250565b5f6125b8602a83611de6565b91506125c38261255e565b604082019050919050565b5f6020820190508181035f8301526125e5816125ac565b9050919050565b5f60a0820190506125ff5f830188611f12565b61260c6020830187611c91565b6126196040830186611c91565b6126266060830185611f12565b6126336080830184611f12565b9695505050505050565b7f43616c6c6572206973206e6f7420746865206f776e65720000000000000000005f82015250565b5f612671601783611de6565b915061267c8261263d565b602082019050919050565b5f6020820190508181035f83015261269e81612665565b9050919050565b7f5265656e7472616e637947756172643a207265656e7472616e742063616c6c005f82015250565b5f6126d9601f83611de6565b91506126e4826126a5565b602082019050919050565b5f6020820190508181035f830152612706816126cd565b9050919050565b7f457466526f757465723a20657466546f6b656e41646472657373206e6f7420645f8201527f65706c6f79656400000000000000000000000000000000000000000000000000602082015250565b5f612767602783611de6565b91506127728261270d565b604082019050919050565b5f6020820190508181035f8301526127948161275b565b9050919050565b7f457466526f757465723a206574665661756c7441646472657373206e6f7420645f8201527f65706c6f79656400000000000000000000000000000000000000000000000000602082015250565b5f6127f5602783611de6565b91506128008261279b565b604082019050919050565b5f6020820190508181035f830152612822816127e9565b9050919050565b7f4e487b71000000000000000000000000000000000000000000000000000000005f52603260045260245ffd5b5f612860826119f9565b915061286b836119f9565b9250828202612879816119f9565b915082820484148315176128905761288f612372565b5b5092915050565b7f4e487b71000000000000000000000000000000000000000000000000000000005f52601260045260245ffd5b5f6128ce826119f9565b91506128d9836119f9565b9250826128e9576128e8612897565b5b828204905092915050565b5f6128fe826119f9565b91507fffffffffffffffffffffffffffffffffffffffffffffffffffffffffffffffff82036129305761292f612372565b5b600182019050919050565b7f457466526f757465723a206e6f7468696e6720746f20776974686472617700005f82015250565b5f61296f601e83611de6565b915061297a8261293b565b602082019050919050565b5f6020820190508181035f83015261299c81612963565b9050919050565b5f6060820190506129b65f830186611c91565b6129c36020830185611f12565b6129d06040830184611c91565b949350505050565b5f81519050919050565b5f82825260208201905092915050565b5f819050602082019050919050565b612a0a81611c80565b82525050565b612a19816119f9565b82525050565b604082015f820151612a335f850182612a01565b506020820151612a466020850182612a10565b50505050565b5f612a578383612a1f565b60408301905092915050565b5f602082019050919050565b5f612a79826129d8565b612a8381856129e2565b9350612a8e836129f2565b805f5b83811015612abe578151612aa58882612a4c565b9750612ab083612a63565b925050600181019050612a91565b5085935050505092915050565b5f81519050919050565b5f82825260208201905092915050565b5f819050602082019050919050565b612afd81612001565b82525050565b604082015f820151612b175f850182612a01565b506020820151612b2a6020850182612af4565b50505050565b5f612b3b8383612b03565b60408301905092915050565b5f602082019050919050565b5f612b5d82612acb565b612b678185612ad5565b9350612b7283612ae5565b805f5b83811015612ba2578151612b898882612b30565b9750612b9483612b47565b925050600181019050612b75565b5085935050505092915050565b5f81519050919050565b5f82825260208201905092915050565b5f819050602082019050919050565b604082015f820151612bec5f850182612a01565b506020820151612bff6020850182612af4565b50505050565b5f612c108383612bd8565b60408301905092915050565b5f602082019050919050565b5f612c3282612baf565b612c3c8185612bb9565b9350612c4783612bc9565b805f5b83811015612c77578151612c5e8882612c05565b9750612c6983612c1c565b925050600181019050612c4a565b5085935050505092915050565b5f60c0820190508181035f830152612c9c8189612a6f565b90508181036020830152612cb08188612b53565b9050612cbf6040830187611c91565b612ccc6060830186611f12565b612cd96080830185611f12565b81810360a0830152612ceb8184612c28565b9050979650505050505050565b7f457466526f757465723a20696e646578207072696365206973207a65726f00005f82015250565b5f612d2c601e83611de6565b9150612d3782612cf8565b602082019050919050565b5f6020820190508181035f830152612d5981612d20565b9050919050565b7f457466526f757465723a204e4156206973207a65726f000000000000000000005f82015250565b5f612d94601683611de6565b9150612d9f82612d60565b602082019050919050565b5f6020820190508181035f830152612dc181612d88565b9050919050565b7f4469726563746f72792063616e6e6f74206265207a65726f20616464726573735f82015250565b5f612dfc602083611de6565b9150612e0782612dc8565b602082019050919050565b5f6020820190508181035f830152612e2981612df0565b9050919050565b7f4469726563746f7279206d757374206265206120636f6e7472616374000000005f82015250565b5f612e64601c83611de6565b9150612e6f82612e30565b602082019050919050565b5f6020820190508181035f830152612e9181612e58565b9050919050565b7f4469726563746f7279206164647265737320646f6573206e6f7420696d706c655f8201527f6d656e74206f776e657228290000000000000000000000000000000000000000602082015250565b5f612ef2602c83611de6565b9150612efd82612e98565b604082019050919050565b5f6020820190508181035f830152612f1f81612ee6565b9050919050565b5f604082019050612f395f830185611c91565b612f466020830184611c91565b9392505050565b5f819050919050565b5f612f70612f6b612f6684612f4d565b611cb9565b6119f9565b9050919050565b612f8081612f56565b82525050565b5f604082019050612f995f830185611c91565b612fa66020830184612f77565b9392505050565b5f8115159050919050565b612fc181612fad565b8114612fcb575f5ffd5b50565b5f81519050612fdc81612fb8565b92915050565b5f60208284031215612ff757612ff66119f1565b5b5f61300484828501612fce565b9150509291505056fea2646970667358221220097cf149e5fa7e2597ed35cd9e1e7bc928a225ffad5b862ea95d883a52ffd6a764736f6c634300081e0033",
					"opcodes": "PUSH1 0x80 PUSH1 0x40 MSTORE CALLVALUE DUP1 ISZERO PUSH2 0xF JUMPI PUSH0 PUSH0 REVERT JUMPDEST POP PUSH1 0x40 MLOAD PUSH2 0x3447 CODESIZE SUB DUP1 PUSH2 0x3447 DUP4 CODECOPY DUP2 DUP2 ADD PUSH1 0x40 MSTORE DUP2 ADD SWAP1 PUSH2 0x31 SWAP2 SWAP1 PUSH2 0x25E JUMP JUMPDEST DUP1 PUSH2 0x41 DUP2 PUSH2 0x4F PUSH1 0x20 SHL PUSH1 0x20 SHR JUMP JUMPDEST POP PUSH1 0x1 DUP1 DUP2 SWAP1 SSTORE POP POP PUSH2 0x3F7 JUMP JUMPDEST PUSH0 PUSH20 0xFFFFFFFFFFFFFFFFFFFFFFFFFFFFFFFFFFFFFFFF AND DUP2 PUSH20 0xFFFFFFFFFFFFFFFFFFFFFFFFFFFFFFFFFFFFFFFF AND SUB PUSH2 0xBD JUMPI PUSH1 0x40 MLOAD PUSH32 0x8C379A000000000000000000000000000000000000000000000000000000000 DUP2 MSTORE PUSH1 0x4 ADD PUSH2 0xB4 SWAP1 PUSH2 0x2E3 JUMP JUMPDEST PUSH1 0x40 MLOAD DUP1 SWAP2 SUB SWAP1 REVERT JUMPDEST PUSH0 DUP2 PUSH20 0xFFFFFFFFFFFFFFFFFFFFFFFFFFFFFFFFFFFFFFFF AND EXTCODESIZE GT PUSH2 0x116 JUMPI PUSH1 0x40 MLOAD PUSH32 0x8C379A000000000000000000000000000000000000000000000000000000000 DUP2 MSTORE PUSH1 0x4 ADD PUSH2 0x10D SWAP1 PUSH2 0x34B JUMP JUMPDEST PUSH1 0x40 MLOAD DUP1 SWAP2 SUB SWAP1 REVERT JUMPDEST DUP1 PUSH20 0xFFFFFFFFFFFFFFFFFFFFFFFFFFFFFFFFFFFFFFFF AND PUSH4 0x8DA5CB5B PUSH1 0x40 MLOAD DUP2 PUSH4 0xFFFFFFFF AND PUSH1 0xE0 SHL DUP2 MSTORE PUSH1 0x4 ADD PUSH1 0x20 PUSH1 0x40 MLOAD DUP1 DUP4 SUB DUP2 DUP7 GAS STATICCALL SWAP3 POP POP POP DUP1 ISZERO PUSH2 0x17E JUMPI POP PUSH1 0x40 MLOAD RETURNDATASIZE PUSH1 0x1F NOT PUSH1 0x1F DUP3 ADD AND DUP3 ADD DUP1 PUSH1 0x40 MSTORE POP DUP2 ADD SWAP1 PUSH2 0x17B SWAP2 SWAP1 PUSH2 0x25E JUMP JUMPDEST PUSH1 0x1 JUMPDEST PUSH2 0x1BD JUMPI PUSH1 0x40 MLOAD PUSH32 0x8C379A000000000000000000000000000000000000000000000000000000000 DUP2 MSTORE PUSH1 0x4 ADD PUSH2 0x1B4 SWAP1 PUSH2 0x3D9 JUMP JUMPDEST PUSH1 0x40 MLOAD DUP1 SWAP2 SUB SWAP1 REVERT JUMPDEST DUP2 PUSH0 PUSH0 PUSH2 0x100 EXP DUP2 SLOAD DUP2 PUSH20 0xFFFFFFFFFFFFFFFFFFFFFFFFFFFFFFFFFFFFFFFF MUL NOT AND SWAP1 DUP4 PUSH20 0xFFFFFFFFFFFFFFFFFFFFFFFFFFFFFFFFFFFFFFFF AND MUL OR SWAP1 SSTORE POP POP POP JUMP JUMPDEST PUSH0 PUSH0 REVERT JUMPDEST PUSH0 PUSH20 0xFFFFFFFFFFFFFFFFFFFFFFFFFFFFFFFFFFFFFFFF DUP3 AND SWAP1 POP SWAP2 SWAP1 POP JUMP JUMPDEST PUSH0 PUSH2 0x22D DUP3 PUSH2 0x204 JUMP JUMPDEST SWAP1 POP SWAP2 SWAP1 POP JUMP JUMPDEST PUSH2 0x23D DUP2 PUSH2 0x223 JUMP JUMPDEST DUP2 EQ PUSH2 0x247 JUMPI PUSH0 PUSH0 REVERT JUMPDEST POP JUMP JUMPDEST PUSH0 DUP2 MLOAD SWAP1 POP PUSH2 0x258 DUP2 PUSH2 0x234 JUMP JUMPDEST SWAP3 SWAP2 POP POP JUMP JUMPDEST PUSH0 PUSH1 0x20 DUP3 DUP5 SUB SLT ISZERO PUSH2 0x273 JUMPI PUSH2 0x272 PUSH2 0x200 JUMP JUMPDEST JUMPDEST PUSH0 PUSH2 0x280 DUP5 DUP3 DUP6 ADD PUSH2 0x24A JUMP JUMPDEST SWAP2 POP POP SWAP3 SWAP2 POP POP JUMP JUMPDEST PUSH0 DUP3 DUP3 MSTORE PUSH1 0x20 DUP3 ADD SWAP1 POP SWAP3 SWAP2 POP POP JUMP JUMPDEST PUSH32 0x4469726563746F72792063616E6E6F74206265207A65726F2061646472657373 PUSH0 DUP3 ADD MSTORE POP JUMP JUMPDEST PUSH0 PUSH2 0x2CD PUSH1 0x20 DUP4 PUSH2 0x289 JUMP JUMPDEST SWAP2 POP PUSH2 0x2D8 DUP3 PUSH2 0x299 JUMP JUMPDEST PUSH1 0x20 DUP3 ADD SWAP1 POP SWAP2 SWAP1 POP JUMP JUMPDEST PUSH0 PUSH1 0x20 DUP3 ADD SWAP1 POP DUP2 DUP2 SUB PUSH0 DUP4 ADD MSTORE PUSH2 0x2FA DUP2 PUSH2 0x2C1 JUMP JUMPDEST SWAP1 POP SWAP2 SWAP1 POP JUMP JUMPDEST PUSH32 0x4469726563746F7279206D757374206265206120636F6E747261637400000000 PUSH0 DUP3 ADD MSTORE POP JUMP JUMPDEST PUSH0 PUSH2 0x335 PUSH1 0x1C DUP4 PUSH2 0x289 JUMP JUMPDEST SWAP2 POP PUSH2 0x340 DUP3 PUSH2 0x301 JUMP JUMPDEST PUSH1 0x20 DUP3 ADD SWAP1 POP SWAP2 SWAP1 POP JUMP JUMPDEST PUSH0 PUSH1 0x20 DUP3 ADD SWAP1 POP DUP2 DUP2 SUB PUSH0 DUP4 ADD MSTORE PUSH2 0x362 DUP2 PUSH2 0x329 JUMP JUMPDEST SWAP1 POP SWAP2 SWAP1 POP JUMP JUMPDEST PUSH32 0x4469726563746F7279206164647265737320646F6573206E6F7420696D706C65 PUSH0 DUP3 ADD MSTORE PUSH32 0x6D656E74206F776E657228290000000000000000000000000000000000000000 PUSH1 0x20 DUP3 ADD MSTORE POP JUMP JUMPDEST PUSH0 PUSH2 0x3C3 PUSH1 0x2C DUP4 PUSH2 0x289 JUMP JUMPDEST SWAP2 POP PUSH2 0x3CE DUP3 PUSH2 0x369 JUMP JUMPDEST PUSH1 0x40 DUP3 ADD SWAP1 POP SWAP2 SWAP1 POP JUMP JUMPDEST PUSH0 PUSH1 0x20 DUP3 ADD SWAP1 POP DUP2 DUP2 SUB PUSH0 DUP4 ADD MSTORE PUSH2 0x3F0 DUP2 PUSH2 0x3B7 JUMP JUMPDEST SWAP1 POP SWAP2 SWAP1 POP JUMP JUMPDEST PUSH2 0x3043 DUP1 PUSH2 0x404 PUSH0 CODECOPY PUSH0 RETURN INVALID PUSH1 0x80 PUSH1 0x40 MSTORE PUSH1 0x4 CALLDATASIZE LT PUSH2 0x54 JUMPI PUSH0 CALLDATALOAD PUSH1 0xE0 SHR DUP1 PUSH4 0x16274921 EQ PUSH2 0x58 JUMPI DUP1 PUSH4 0x27262618 EQ PUSH2 0x80 JUMPI DUP1 PUSH4 0x658A847A EQ PUSH2 0xBC JUMPI DUP1 PUSH4 0x706910FF EQ PUSH2 0xE6 JUMPI DUP1 PUSH4 0x8DA5CB5B EQ PUSH2 0x102 JUMPI DUP1 PUSH4 0xBA4C7BE1 EQ PUSH2 0x12C JUMPI JUMPDEST PUSH0 PUSH0 REVERT JUMPDEST CALLVALUE DUP1 ISZERO PUSH2 0x63 JUMPI PUSH0 PUSH0 REVERT JUMPDEST POP PUSH2 0x7E PUSH1 0x4 DUP1 CALLDATASIZE SUB DUP2 ADD SWAP1 PUSH2 0x79 SWAP2 SWAP1 PUSH2 0x1A86 JUMP JUMPDEST PUSH2 0x154 JUMP JUMPDEST STOP JUMPDEST CALLVALUE DUP1 ISZERO PUSH2 0x8B JUMPI PUSH0 PUSH0 REVERT JUMPDEST POP PUSH2 0xA6 PUSH1 0x4 DUP1 CALLDATASIZE SUB DUP2 ADD SWAP1 PUSH2 0xA1 SWAP2 SWAP1 PUSH2 0x1C39 JUMP JUMPDEST PUSH2 0x4A6 JUMP JUMPDEST PUSH1 0x40 MLOAD PUSH2 0xB3 SWAP2 SWAP1 PUSH2 0x1CA0 JUMP JUMPDEST PUSH1 0x40 MLOAD DUP1 SWAP2 SUB SWAP1 RETURN JUMPDEST CALLVALUE DUP1 ISZERO PUSH2 0xC7 JUMPI PUSH0 PUSH0 REVERT JUMPDEST POP PUSH2 0xD0 PUSH2 0x546 JUMP JUMPDEST PUSH1 0x40 MLOAD PUSH2 0xDD SWAP2 SWAP1 PUSH2 0x1D14 JUMP JUMPDEST PUSH1 0x40 MLOAD DUP1 SWAP2 SUB SWAP1 RETURN JUMPDEST PUSH2 0x100 PUSH1 0x4 DUP1 CALLDATASIZE SUB DUP2 ADD SWAP1 PUSH2 0xFB SWAP2 SWAP1 PUSH2 0x1D57 JUMP JUMPDEST PUSH2 0x56A JUMP JUMPDEST STOP JUMPDEST CALLVALUE DUP1 ISZERO PUSH2 0x10D JUMPI PUSH0 PUSH0 REVERT JUMPDEST POP PUSH2 0x116 PUSH2 0x728 JUMP JUMPDEST PUSH1 0x40 MLOAD PUSH2 0x123 SWAP2 SWAP1 PUSH2 0x1CA0 JUMP JUMPDEST PUSH1 0x40 MLOAD DUP1 SWAP2 SUB SWAP1 RETURN JUMPDEST CALLVALUE DUP1 ISZERO PUSH2 0x137 JUMPI PUSH0 PUSH0 REVERT JUMPDEST POP PUSH2 0x152 PUSH1 0x4 DUP1 CALLDATASIZE SUB DUP2 ADD SWAP1 PUSH2 0x14D SWAP2 SWAP1 PUSH2 0x1DBB JUMP JUMPDEST PUSH2 0x7BB JUMP JUMPDEST STOP JUMPDEST PUSH2 0x15C PUSH2 0x8C1 JUMP JUMPDEST PUSH0 DUP5 GT PUSH2 0x19E JUMPI PUSH1 0x40 MLOAD PUSH32 0x8C379A000000000000000000000000000000000000000000000000000000000 DUP2 MSTORE PUSH1 0x4 ADD PUSH2 0x195 SWAP1 PUSH2 0x1E66 JUMP JUMPDEST PUSH1 0x40 MLOAD DUP1 SWAP2 SUB SWAP1 REVERT JUMPDEST PUSH0 PUSH20 0xFFFFFFFFFFFFFFFFFFFFFFFFFFFFFFFFFFFFFFFF AND DUP4 PUSH20 0xFFFFFFFFFFFFFFFFFFFFFFFFFFFFFFFFFFFFFFFF AND SUB PUSH2 0x20C JUMPI PUSH1 0x40 MLOAD PUSH32 0x8C379A000000000000000000000000000000000000000000000000000000000 DUP2 MSTORE PUSH1 0x4 ADD PUSH2 0x203 SWAP1 PUSH2 0x1EF4 JUMP JUMPDEST PUSH1 0x40 MLOAD DUP1 SWAP2 SUB SWAP1 REVERT JUMPDEST PUSH0 PUSH2 0x215 PUSH2 0x910 JUMP JUMPDEST PUSH20 0xFFFFFFFFFFFFFFFFFFFFFFFFFFFFFFFFFFFFFFFF AND PUSH4 0x549E122B DUP8 PUSH1 0x40 MLOAD DUP3 PUSH4 0xFFFFFFFF AND PUSH1 0xE0 SHL DUP2 MSTORE PUSH1 0x4 ADD PUSH2 0x24D SWAP2 SWAP1 PUSH2 0x1F21 JUMP JUMPDEST PUSH0 PUSH1 0x40 MLOAD DUP1 DUP4 SUB DUP2 DUP7 GAS STATICCALL ISZERO DUP1 ISZERO PUSH2 0x267 JUMPI RETURNDATASIZE PUSH0 PUSH0 RETURNDATACOPY RETURNDATASIZE PUSH0 REVERT JUMPDEST POP POP POP POP PUSH1 0x40 MLOAD RETURNDATASIZE PUSH0 DUP3 RETURNDATACOPY RETURNDATASIZE PUSH1 0x1F NOT PUSH1 0x1F DUP3 ADD AND DUP3 ADD DUP1 PUSH1 0x40 MSTORE POP DUP2 ADD SWAP1 PUSH2 0x28F SWAP2 SWAP1 PUSH2 0x21CF JUMP JUMPDEST SWAP1 POP PUSH0 PUSH0 PUSH2 0x29C DUP9 PUSH2 0x954 JUMP JUMPDEST SWAP2 POP SWAP2 POP PUSH0 DUP3 PUSH20 0xFFFFFFFFFFFFFFFFFFFFFFFFFFFFFFFFFFFFFFFF AND PUSH4 0x18160DDD PUSH1 0x40 MLOAD DUP2 PUSH4 0xFFFFFFFF AND PUSH1 0xE0 SHL DUP2 MSTORE PUSH1 0x4 ADD PUSH1 0x20 PUSH1 0x40 MLOAD DUP1 DUP4 SUB DUP2 DUP7 GAS STATICCALL ISZERO DUP1 ISZERO PUSH2 0x2EA JUMPI RETURNDATASIZE PUSH0 PUSH0 RETURNDATACOPY RETURNDATASIZE PUSH0 REVERT JUMPDEST POP POP POP POP PUSH1 0x40 MLOAD RETURNDATASIZE PUSH1 0x1F NOT PUSH1 0x1F DUP3 ADD AND DUP3 ADD DUP1 PUSH1 0x40 MSTORE POP DUP2 ADD SWAP1 PUSH2 0x30E SWAP2 SWAP1 PUSH2 0x222A JUMP JUMPDEST SWAP1 POP PUSH0 DUP2 GT PUSH2 0x352 JUMPI PUSH1 0x40 MLOAD PUSH32 0x8C379A000000000000000000000000000000000000000000000000000000000 DUP2 MSTORE PUSH1 0x4 ADD PUSH2 0x349 SWAP1 PUSH2 0x229F JUMP JUMPDEST PUSH1 0x40 MLOAD DUP1 SWAP2 SUB SWAP1 REVERT JUMPDEST DUP1 DUP9 GT ISZERO PUSH2 0x395 JUMPI PUSH1 0x40 MLOAD PUSH32 0x8C379A000000000000000000000000000000000000000000000000000000000 DUP2 MSTORE PUSH1 0x4 ADD PUSH2 0x38C SWAP1 PUSH2 0x232D JUMP JUMPDEST PUSH1 0x40 MLOAD DUP1 SWAP2 SUB SWAP1 REVERT JUMPDEST DUP3 PUSH20 0xFFFFFFFFFFFFFFFFFFFFFFFFFFFFFFFFFFFFFFFF AND PUSH4 0x9DC29FAC CALLER DUP11 PUSH1 0x40 MLOAD DUP4 PUSH4 0xFFFFFFFF AND PUSH1 0xE0 SHL DUP2 MSTORE PUSH1 0x4 ADD PUSH2 0x3D0 SWAP3 SWAP2 SWAP1 PUSH2 0x234B JUMP JUMPDEST PUSH0 PUSH1 0x40 MLOAD DUP1 DUP4 SUB DUP2 PUSH0 DUP8 DUP1 EXTCODESIZE ISZERO DUP1 ISZERO PUSH2 0x3E7 JUMPI PUSH0 PUSH0 REVERT JUMPDEST POP GAS CALL ISZERO DUP1 ISZERO PUSH2 0x3F9 JUMPI RETURNDATASIZE PUSH0 PUSH0 RETURNDATACOPY RETURNDATASIZE PUSH0 REVERT JUMPDEST POP POP POP POP PUSH0 DUP8 PUSH20 0xFFFFFFFFFFFFFFFFFFFFFFFFFFFFFFFFFFFFFFFF AND BALANCE SWAP1 POP PUSH2 0x427 DUP6 DUP11 DUP5 DUP7 DUP13 DUP13 DUP13 PUSH2 0xB43 JUMP JUMPDEST PUSH0 DUP9 PUSH20 0xFFFFFFFFFFFFFFFFFFFFFFFFFFFFFFFFFFFFFFFF AND BALANCE SWAP1 POP PUSH0 DUP3 DUP3 PUSH2 0x44F SWAP2 SWAP1 PUSH2 0x239F JUMP JUMPDEST SWAP1 POP PUSH32 0x4642DA3C4A621C7D8CD33D4709199A744BF8C879474DF32AF78B084896A79DE DUP13 CALLER DUP13 DUP15 DUP6 PUSH1 0x40 MLOAD PUSH2 0x488 SWAP6 SWAP5 SWAP4 SWAP3 SWAP2 SWAP1 PUSH2 0x23F2 JUMP JUMPDEST PUSH1 0x40 MLOAD DUP1 SWAP2 SUB SWAP1 LOG1 POP POP POP POP POP POP POP PUSH2 0x49F PUSH2 0xFD6 JUMP JUMPDEST POP POP POP POP POP JUMP JUMPDEST PUSH0 PUSH0 PUSH0 SWAP1 SLOAD SWAP1 PUSH2 0x100 EXP SWAP1 DIV PUSH20 0xFFFFFFFFFFFFFFFFFFFFFFFFFFFFFFFFFFFFFFFF AND PUSH20 0xFFFFFFFFFFFFFFFFFFFFFFFFFFFFFFFFFFFFFFFF AND PUSH4 0x27262618 DUP4 PUSH1 0x40 MLOAD DUP3 PUSH4 0xFFFFFFFF AND PUSH1 0xE0 SHL DUP2 MSTORE PUSH1 0x4 ADD PUSH2 0x500 SWAP2 SWAP1 PUSH2 0x2485 JUMP JUMPDEST PUSH1 0x20 PUSH1 0x40 MLOAD DUP1 DUP4 SUB DUP2 DUP7 GAS STATICCALL ISZERO DUP1 ISZERO PUSH2 0x51B JUMPI RETURNDATASIZE PUSH0 PUSH0 RETURNDATACOPY RETURNDATASIZE PUSH0 REVERT JUMPDEST POP POP POP POP PUSH1 0x40 MLOAD RETURNDATASIZE PUSH1 0x1F NOT PUSH1 0x1F DUP3 ADD AND DUP3 ADD DUP1 PUSH1 0x40 MSTORE POP DUP2 ADD SWAP1 PUSH2 0x53F SWAP2 SWAP1 PUSH2 0x24A5 JUMP JUMPDEST SWAP1 POP SWAP2 SWAP1 POP JUMP JUMPDEST PUSH0 PUSH0 SWAP1 SLOAD SWAP1 PUSH2 0x100 EXP SWAP1 DIV PUSH20 0xFFFFFFFFFFFFFFFFFFFFFFFFFFFFFFFFFFFFFFFF AND DUP2 JUMP JUMPDEST PUSH2 0x572 PUSH2 0x8C1 JUMP JUMPDEST PUSH0 CALLVALUE GT PUSH2 0x5B4 JUMPI PUSH1 0x40 MLOAD PUSH32 0x8C379A000000000000000000000000000000000000000000000000000000000 DUP2 MSTORE PUSH1 0x4 ADD PUSH2 0x5AB SWAP1 PUSH2 0x2540 JUMP JUMPDEST PUSH1 0x40 MLOAD DUP1 SWAP2 SUB SWAP1 REVERT JUMPDEST PUSH0 PUSH20 0xFFFFFFFFFFFFFFFFFFFFFFFFFFFFFFFFFFFFFFFF AND DUP4 PUSH20 0xFFFFFFFFFFFFFFFFFFFFFFFFFFFFFFFFFFFFFFFF AND SUB PUSH2 0x622 JUMPI PUSH1 0x40 MLOAD PUSH32 0x8C379A000000000000000000000000000000000000000000000000000000000 DUP2 MSTORE PUSH1 0x4 ADD PUSH2 0x619 SWAP1 PUSH2 0x25CE JUMP JUMPDEST PUSH1 0x40 MLOAD DUP1 SWAP2 SUB SWAP1 REVERT JUMPDEST PUSH0 PUSH2 0x62B PUSH2 0x910 JUMP JUMPDEST PUSH20 0xFFFFFFFFFFFFFFFFFFFFFFFFFFFFFFFFFFFFFFFF AND PUSH4 0x549E122B DUP7 PUSH1 0x40 MLOAD DUP3 PUSH4 0xFFFFFFFF AND PUSH1 0xE0 SHL DUP2 MSTORE PUSH1 0x4 ADD PUSH2 0x663 SWAP2 SWAP1 PUSH2 0x1F21 JUMP JUMPDEST PUSH0 PUSH1 0x40 MLOAD DUP1 DUP4 SUB DUP2 DUP7 GAS STATICCALL ISZERO DUP1 ISZERO PUSH2 0x67D JUMPI RETURNDATASIZE PUSH0 PUSH0 RETURNDATACOPY RETURNDATASIZE PUSH0 REVERT JUMPDEST POP POP POP POP PUSH1 0x40 MLOAD RETURNDATASIZE PUSH0 DUP3 RETURNDATACOPY RETURNDATASIZE PUSH1 0x1F NOT PUSH1 0x1F DUP3 ADD AND DUP3 ADD DUP1 PUSH1 0x40 MSTORE POP DUP2 ADD SWAP1 PUSH2 0x6A5 SWAP2 SWAP1 PUSH2 0x21CF JUMP JUMPDEST SWAP1 POP PUSH0 PUSH0 PUSH2 0x6B2 DUP8 PUSH2 0x954 JUMP JUMPDEST SWAP2 POP SWAP2 POP PUSH0 CALLVALUE SWAP1 POP PUSH2 0x6C7 DUP5 DUP3 DUP5 DUP10 DUP10 PUSH2 0xFDF JUMP JUMPDEST PUSH0 PUSH2 0x6D4 DUP10 DUP4 DUP7 DUP12 PUSH2 0x1215 JUMP JUMPDEST SWAP1 POP PUSH32 0x5B3FA64172584174917E1B3A206FE9C25D3120CF366B3D05AD5B6183A15CF789 DUP10 CALLER DUP11 DUP5 CALLVALUE PUSH1 0x40 MLOAD PUSH2 0x70D SWAP6 SWAP5 SWAP4 SWAP3 SWAP2 SWAP1 PUSH2 0x25EC JUMP JUMPDEST PUSH1 0x40 MLOAD DUP1 SWAP2 SUB SWAP1 LOG1 POP POP POP POP POP PUSH2 0x722 PUSH2 0xFD6 JUMP JUMPDEST POP POP POP POP JUMP JUMPDEST PUSH0 PUSH0 PUSH0 SWAP1 SLOAD SWAP1 PUSH2 0x100 EXP SWAP1 DIV PUSH20 0xFFFFFFFFFFFFFFFFFFFFFFFFFFFFFFFFFFFFFFFF AND PUSH20 0xFFFFFFFFFFFFFFFFFFFFFFFFFFFFFFFFFFFFFFFF AND PUSH4 0x8DA5CB5B PUSH1 0x40 MLOAD DUP2 PUSH4 0xFFFFFFFF AND PUSH1 0xE0 SHL DUP2 MSTORE PUSH1 0x4 ADD PUSH1 0x20 PUSH1 0x40 MLOAD DUP1 DUP4 SUB DUP2 DUP7 GAS STATICCALL ISZERO DUP1 ISZERO PUSH2 0x792 JUMPI RETURNDATASIZE PUSH0 PUSH0 RETURNDATACOPY RETURNDATASIZE PUSH0 REVERT JUMPDEST POP POP POP POP PUSH1 0x40 MLOAD RETURNDATASIZE PUSH1 0x1F NOT PUSH1 0x1F DUP3 ADD AND DUP3 ADD DUP1 PUSH1 0x40 MSTORE POP DUP2 ADD SWAP1 PUSH2 0x7B6 SWAP2 SWAP1 PUSH2 0x24A5 JUMP JUMPDEST SWAP1 POP SWAP1 JUMP JUMPDEST PUSH0 PUSH0 SWAP1 SLOAD SWAP1 PUSH2 0x100 EXP SWAP1 DIV PUSH20 0xFFFFFFFFFFFFFFFFFFFFFFFFFFFFFFFFFFFFFFFF AND PUSH20 0xFFFFFFFFFFFFFFFFFFFFFFFFFFFFFFFFFFFFFFFF AND PUSH4 0x8DA5CB5B PUSH1 0x40 MLOAD DUP2 PUSH4 0xFFFFFFFF AND PUSH1 0xE0 SHL DUP2 MSTORE PUSH1 0x4 ADD PUSH1 0x20 PUSH1 0x40 MLOAD DUP1 DUP4 SUB DUP2 DUP7 GAS STATICCALL ISZERO DUP1 ISZERO PUSH2 0x824 JUMPI RETURNDATASIZE PUSH0 PUSH0 RETURNDATACOPY RETURNDATASIZE PUSH0 REVERT JUMPDEST POP POP POP POP PUSH1 0x40 MLOAD RETURNDATASIZE PUSH1 0x1F NOT PUSH1 0x1F DUP3 ADD AND DUP3 ADD DUP1 PUSH1 0x40 MSTORE POP DUP2 ADD SWAP1 PUSH2 0x848 SWAP2 SWAP1 PUSH2 0x24A5 JUMP JUMPDEST PUSH20 0xFFFFFFFFFFFFFFFFFFFFFFFFFFFFFFFFFFFFFFFF AND CALLER PUSH20 0xFFFFFFFFFFFFFFFFFFFFFFFFFFFFFFFFFFFFFFFF AND EQ PUSH2 0x8B5 JUMPI PUSH1 0x40 MLOAD PUSH32 0x8C379A000000000000000000000000000000000000000000000000000000000 DUP2 MSTORE PUSH1 0x4 ADD PUSH2 0x8AC SWAP1 PUSH2 0x2687 JUMP JUMPDEST PUSH1 0x40 MLOAD DUP1 SWAP2 SUB SWAP1 REVERT JUMPDEST PUSH2 0x8BE DUP2 PUSH2 0x14CD JUMP JUMPDEST POP JUMP JUMPDEST PUSH1 0x2 PUSH1 0x1 SLOAD SUB PUSH2 0x906 JUMPI PUSH1 0x40 MLOAD PUSH32 0x8C379A000000000000000000000000000000000000000000000000000000000 DUP2 MSTORE PUSH1 0x4 ADD PUSH2 0x8FD SWAP1 PUSH2 0x26EF JUMP JUMPDEST PUSH1 0x40 MLOAD DUP1 SWAP2 SUB SWAP1 REVERT JUMPDEST PUSH1 0x2 PUSH1 0x1 DUP2 SWAP1 SSTORE POP JUMP JUMPDEST PUSH0 PUSH2 0x94F PUSH1 0x40 MLOAD DUP1 PUSH1 0x40 ADD PUSH1 0x40 MSTORE DUP1 PUSH1 0xD DUP2 MSTORE PUSH1 0x20 ADD PUSH32 0x696E6465782D666163746F727900000000000000000000000000000000000000 DUP2 MSTORE POP PUSH2 0x4A6 JUMP JUMPDEST SWAP1 POP SWAP1 JUMP JUMPDEST PUSH0 PUSH0 PUSH0 PUSH2 0x95F PUSH2 0x167E JUMP JUMPDEST PUSH20 0xFFFFFFFFFFFFFFFFFFFFFFFFFFFFFFFFFFFFFFFF AND PUSH4 0xF2018A1F DUP6 PUSH1 0x40 MLOAD DUP3 PUSH4 0xFFFFFFFF AND PUSH1 0xE0 SHL DUP2 MSTORE PUSH1 0x4 ADD PUSH2 0x997 SWAP2 SWAP1 PUSH2 0x1F21 JUMP JUMPDEST PUSH1 0x20 PUSH1 0x40 MLOAD DUP1 DUP4 SUB DUP2 DUP7 GAS STATICCALL ISZERO DUP1 ISZERO PUSH2 0x9B2 JUMPI RETURNDATASIZE PUSH0 PUSH0 RETURNDATACOPY RETURNDATASIZE PUSH0 REVERT JUMPDEST POP POP POP POP PUSH1 0x40 MLOAD RETURNDATASIZE PUSH1 0x1F NOT PUSH1 0x1F DUP3 ADD AND DUP3 ADD DUP1 PUSH1 0x40 MSTORE POP DUP2 ADD SWAP1 PUSH2 0x9D6 SWAP2 SWAP1 PUSH2 0x24A5 JUMP JUMPDEST SWAP1 POP PUSH0 PUSH2 0x9E1 PUSH2 0x167E JUMP JUMPDEST PUSH20 0xFFFFFFFFFFFFFFFFFFFFFFFFFFFFFFFFFFFFFFFF AND PUSH4 0x3EE79962 DUP7 PUSH1 0x40 MLOAD DUP3 PUSH4 0xFFFFFFFF AND PUSH1 0xE0 SHL DUP2 MSTORE PUSH1 0x4 ADD PUSH2 0xA19 SWAP2 SWAP1 PUSH2 0x1F21 JUMP JUMPDEST PUSH1 0x20 PUSH1 0x40 MLOAD DUP1 DUP4 SUB DUP2 DUP7 GAS STATICCALL ISZERO DUP1 ISZERO PUSH2 0xA34 JUMPI RETURNDATASIZE PUSH0 PUSH0 RETURNDATACOPY RETURNDATASIZE PUSH0 REVERT JUMPDEST POP POP POP POP PUSH1 0x40 MLOAD RETURNDATASIZE PUSH1 0x1F NOT PUSH1 0x1F DUP3 ADD AND DUP3 ADD DUP1 PUSH1 0x40 MSTORE POP DUP2 ADD SWAP1 PUSH2 0xA58 SWAP2 SWAP1 PUSH2 0x24A5 JUMP JUMPDEST SWAP1 POP PUSH0 PUSH20 0xFFFFFFFFFFFFFFFFFFFFFFFFFFFFFFFFFFFFFFFF AND DUP3 PUSH20 0xFFFFFFFFFFFFFFFFFFFFFFFFFFFFFFFFFFFFFFFF AND SUB PUSH2 0xAC8 JUMPI PUSH1 0x40 MLOAD PUSH32 0x8C379A000000000000000000000000000000000000000000000000000000000 DUP2 MSTORE PUSH1 0x4 ADD PUSH2 0xABF SWAP1 PUSH2 0x277D JUMP JUMPDEST PUSH1 0x40 MLOAD DUP1 SWAP2 SUB SWAP1 REVERT JUMPDEST PUSH0 PUSH20 0xFFFFFFFFFFFFFFFFFFFFFFFFFFFFFFFFFFFFFFFF AND DUP2 PUSH20 0xFFFFFFFFFFFFFFFFFFFFFFFFFFFFFFFFFFFFFFFF AND SUB PUSH2 0xB36 JUMPI PUSH1 0x40 MLOAD PUSH32 0x8C379A000000000000000000000000000000000000000000000000000000000 DUP2 MSTORE PUSH1 0x4 ADD PUSH2 0xB2D SWAP1 PUSH2 0x280B JUMP JUMPDEST PUSH1 0x40 MLOAD DUP1 SWAP2 SUB SWAP1 REVERT JUMPDEST DUP2 DUP2 SWAP4 POP SWAP4 POP POP POP SWAP2 POP SWAP2 JUMP JUMPDEST PUSH0 PUSH0 SWAP1 POP PUSH0 PUSH0 SWAP1 POP JUMPDEST DUP9 PUSH1 0x40 ADD MLOAD MLOAD DUP2 LT ISZERO PUSH2 0xC3A JUMPI PUSH0 DUP10 PUSH1 0x40 ADD MLOAD DUP3 DUP2 MLOAD DUP2 LT PUSH2 0xB71 JUMPI PUSH2 0xB70 PUSH2 0x2829 JUMP JUMPDEST JUMPDEST PUSH1 0x20 MUL PUSH1 0x20 ADD ADD MLOAD PUSH0 ADD MLOAD SWAP1 POP PUSH0 DUP2 PUSH20 0xFFFFFFFFFFFFFFFFFFFFFFFFFFFFFFFFFFFFFFFF AND PUSH4 0x70A08231 DUP10 PUSH1 0x40 MLOAD DUP3 PUSH4 0xFFFFFFFF AND PUSH1 0xE0 SHL DUP2 MSTORE PUSH1 0x4 ADD PUSH2 0xBB8 SWAP2 SWAP1 PUSH2 0x1CA0 JUMP JUMPDEST PUSH1 0x20 PUSH1 0x40 MLOAD DUP1 DUP4 SUB DUP2 DUP7 GAS STATICCALL ISZERO DUP1 ISZERO PUSH2 0xBD3 JUMPI RETURNDATASIZE PUSH0 PUSH0 RETURNDATACOPY RETURNDATASIZE PUSH0 REVERT JUMPDEST POP POP POP POP PUSH1 0x40 MLOAD RETURNDATASIZE PUSH1 0x1F NOT PUSH1 0x1F DUP3 ADD AND DUP3 ADD DUP1 PUSH1 0x40 MSTORE POP DUP2 ADD SWAP1 PUSH2 0xBF7 SWAP2 SWAP1 PUSH2 0x222A JUMP JUMPDEST SWAP1 POP PUSH0 DUP10 DUP12 DUP4 PUSH2 0xC07 SWAP2 SWAP1 PUSH2 0x2856 JUMP JUMPDEST PUSH2 0xC11 SWAP2 SWAP1 PUSH2 0x28C4 JUMP JUMPDEST SWAP1 POP PUSH0 DUP2 GT ISZERO PUSH2 0xC2A JUMPI DUP5 DUP1 PUSH2 0xC26 SWAP1 PUSH2 0x28F4 JUMP JUMPDEST SWAP6 POP POP JUMPDEST POP POP POP DUP1 DUP1 PUSH1 0x1 ADD SWAP2 POP POP PUSH2 0xB4C JUMP JUMPDEST POP PUSH0 DUP2 GT PUSH2 0xC7D JUMPI PUSH1 0x40 MLOAD PUSH32 0x8C379A000000000000000000000000000000000000000000000000000000000 DUP2 MSTORE PUSH1 0x4 ADD PUSH2 0xC74 SWAP1 PUSH2 0x2985 JUMP JUMPDEST PUSH1 0x40 MLOAD DUP1 SWAP2 SUB SWAP1 REVERT JUMPDEST PUSH0 DUP2 PUSH8 0xFFFFFFFFFFFFFFFF DUP2 GT ISZERO PUSH2 0xC98 JUMPI PUSH2 0xC97 PUSH2 0x1B15 JUMP JUMPDEST JUMPDEST PUSH1 0x40 MLOAD SWAP1 DUP1 DUP3 MSTORE DUP1 PUSH1 0x20 MUL PUSH1 0x20 ADD DUP3 ADD PUSH1 0x40 MSTORE DUP1 ISZERO PUSH2 0xCD1 JUMPI DUP2 PUSH1 0x20 ADD JUMPDEST PUSH2 0xCBE PUSH2 0x1956 JUMP JUMPDEST DUP2 MSTORE PUSH1 0x20 ADD SWAP1 PUSH1 0x1 SWAP1 SUB SWAP1 DUP2 PUSH2 0xCB6 JUMPI SWAP1 POP JUMPDEST POP SWAP1 POP PUSH0 PUSH0 SWAP1 POP PUSH0 PUSH0 SWAP1 POP JUMPDEST DUP11 PUSH1 0x40 ADD MLOAD MLOAD DUP2 LT ISZERO PUSH2 0xEA3 JUMPI PUSH0 DUP12 PUSH1 0x40 ADD MLOAD DUP3 DUP2 MLOAD DUP2 LT PUSH2 0xD02 JUMPI PUSH2 0xD01 PUSH2 0x2829 JUMP JUMPDEST JUMPDEST PUSH1 0x20 MUL PUSH1 0x20 ADD ADD MLOAD PUSH0 ADD MLOAD SWAP1 POP PUSH0 DUP2 PUSH20 0xFFFFFFFFFFFFFFFFFFFFFFFFFFFFFFFFFFFFFFFF AND PUSH4 0x70A08231 DUP12 PUSH1 0x40 MLOAD DUP3 PUSH4 0xFFFFFFFF AND PUSH1 0xE0 SHL DUP2 MSTORE PUSH1 0x4 ADD PUSH2 0xD49 SWAP2 SWAP1 PUSH2 0x1CA0 JUMP JUMPDEST PUSH1 0x20 PUSH1 0x40 MLOAD DUP1 DUP4 SUB DUP2 DUP7 GAS STATICCALL ISZERO DUP1 ISZERO PUSH2 0xD64 JUMPI RETURNDATASIZE PUSH0 PUSH0 RETURNDATACOPY RETURNDATASIZE PUSH0 REVERT JUMPDEST POP POP POP POP PUSH1 0x40 MLOAD RETURNDATASIZE PUSH1 0x1F NOT PUSH1 0x1F DUP3 ADD AND DUP3 ADD DUP1 PUSH1 0x40 MSTORE POP DUP2 ADD SWAP1 PUSH2 0xD88 SWAP2 SWAP1 PUSH2 0x222A JUMP JUMPDEST SWAP1 POP PUSH0 DUP2 SUB PUSH2 0xD98 JUMPI POP POP PUSH2 0xE96 JUMP JUMPDEST PUSH0 DUP12 DUP14 DUP4 PUSH2 0xDA6 SWAP2 SWAP1 PUSH2 0x2856 JUMP JUMPDEST PUSH2 0xDB0 SWAP2 SWAP1 PUSH2 0x28C4 JUMP JUMPDEST SWAP1 POP PUSH0 DUP2 SUB PUSH2 0xDC1 JUMPI POP POP POP PUSH2 0xE96 JUMP JUMPDEST DUP11 PUSH20 0xFFFFFFFFFFFFFFFFFFFFFFFFFFFFFFFFFFFFFFFF AND PUSH4 0x3CCDBB28 DUP5 DUP4 ADDRESS PUSH1 0x40 MLOAD DUP5 PUSH4 0xFFFFFFFF AND PUSH1 0xE0 SHL DUP2 MSTORE PUSH1 0x4 ADD PUSH2 0xDFE SWAP4 SWAP3 SWAP2 SWAP1 PUSH2 0x29A3 JUMP JUMPDEST PUSH0 PUSH1 0x40 MLOAD DUP1 DUP4 SUB DUP2 PUSH0 DUP8 DUP1 EXTCODESIZE ISZERO DUP1 ISZERO PUSH2 0xE15 JUMPI PUSH0 PUSH0 REVERT JUMPDEST POP GAS CALL ISZERO DUP1 ISZERO PUSH2 0xE27 JUMPI RETURNDATASIZE PUSH0 PUSH0 RETURNDATACOPY RETURNDATASIZE PUSH0 REVERT JUMPDEST POP POP POP POP PUSH2 0xE3D DUP4 PUSH2 0xE37 PUSH2 0x16C2 JUMP JUMPDEST DUP4 PUSH2 0x1706 JUMP JUMPDEST PUSH1 0x40 MLOAD DUP1 PUSH1 0x40 ADD PUSH1 0x40 MSTORE DUP1 DUP5 PUSH20 0xFFFFFFFFFFFFFFFFFFFFFFFFFFFFFFFFFFFFFFFF AND DUP2 MSTORE PUSH1 0x20 ADD DUP3 DUP2 MSTORE POP DUP7 DUP7 DUP1 PUSH2 0xE74 SWAP1 PUSH2 0x28F4 JUMP JUMPDEST SWAP8 POP DUP2 MLOAD DUP2 LT PUSH2 0xE87 JUMPI PUSH2 0xE86 PUSH2 0x2829 JUMP JUMPDEST JUMPDEST PUSH1 0x20 MUL PUSH1 0x20 ADD ADD DUP2 SWAP1 MSTORE POP POP POP POP JUMPDEST DUP1 DUP1 PUSH1 0x1 ADD SWAP2 POP POP PUSH2 0xCDD JUMP JUMPDEST POP PUSH0 PUSH1 0x1 PUSH8 0xFFFFFFFFFFFFFFFF DUP2 GT ISZERO PUSH2 0xEC0 JUMPI PUSH2 0xEBF PUSH2 0x1B15 JUMP JUMPDEST JUMPDEST PUSH1 0x40 MLOAD SWAP1 DUP1 DUP3 MSTORE DUP1 PUSH1 0x20 MUL PUSH1 0x20 ADD DUP3 ADD PUSH1 0x40 MSTORE DUP1 ISZERO PUSH2 0xEF9 JUMPI DUP2 PUSH1 0x20 ADD JUMPDEST PUSH2 0xEE6 PUSH2 0x1984 JUMP JUMPDEST DUP2 MSTORE PUSH1 0x20 ADD SWAP1 PUSH1 0x1 SWAP1 SUB SWAP1 DUP2 PUSH2 0xEDE JUMPI SWAP1 POP JUMPDEST POP SWAP1 POP PUSH1 0x40 MLOAD DUP1 PUSH1 0x40 ADD PUSH1 0x40 MSTORE DUP1 PUSH0 PUSH20 0xFFFFFFFFFFFFFFFFFFFFFFFFFFFFFFFFFFFFFFFF AND DUP2 MSTORE PUSH1 0x20 ADD PUSH2 0x2710 PUSH2 0xFFFF AND DUP2 MSTORE POP DUP2 PUSH0 DUP2 MLOAD DUP2 LT PUSH2 0xF40 JUMPI PUSH2 0xF3F PUSH2 0x2829 JUMP JUMPDEST JUMPDEST PUSH1 0x20 MUL PUSH1 0x20 ADD ADD DUP2 SWAP1 MSTORE POP PUSH2 0xF53 PUSH2 0x16C2 JUMP JUMPDEST PUSH20 0xFFFFFFFFFFFFFFFFFFFFFFFFFFFFFFFFFFFFFFFF AND PUSH4 0x192B5887 DUP5 DUP4 DUP11 DUP11 DUP11 PUSH2 0xF7B PUSH2 0x18B7 JUMP JUMPDEST PUSH1 0x40 MLOAD DUP8 PUSH4 0xFFFFFFFF AND PUSH1 0xE0 SHL DUP2 MSTORE PUSH1 0x4 ADD PUSH2 0xF9C SWAP7 SWAP6 SWAP5 SWAP4 SWAP3 SWAP2 SWAP1 PUSH2 0x2C84 JUMP JUMPDEST PUSH0 PUSH1 0x40 MLOAD DUP1 DUP4 SUB DUP2 PUSH0 DUP8 DUP1 EXTCODESIZE ISZERO DUP1 ISZERO PUSH2 0xFB3 JUMPI PUSH0 PUSH0 REVERT JUMPDEST POP GAS CALL ISZERO DUP1 ISZERO PUSH2 0xFC5 JUMPI RETURNDATASIZE PUSH0 PUSH0 RETURNDATACOPY RETURNDATASIZE PUSH0 REVERT JUMPDEST POP POP POP POP POP POP POP POP POP POP POP POP POP POP POP JUMP JUMPDEST PUSH1 0x1 DUP1 DUP2 SWAP1 SSTORE POP JUMP JUMPDEST PUSH0 PUSH1 0x1 PUSH8 0xFFFFFFFFFFFFFFFF DUP2 GT ISZERO PUSH2 0xFFB JUMPI PUSH2 0xFFA PUSH2 0x1B15 JUMP JUMPDEST JUMPDEST PUSH1 0x40 MLOAD SWAP1 DUP1 DUP3 MSTORE DUP1 PUSH1 0x20 MUL PUSH1 0x20 ADD DUP3 ADD PUSH1 0x40 MSTORE DUP1 ISZERO PUSH2 0x1034 JUMPI DUP2 PUSH1 0x20 ADD JUMPDEST PUSH2 0x1021 PUSH2 0x1956 JUMP JUMPDEST DUP2 MSTORE PUSH1 0x20 ADD SWAP1 PUSH1 0x1 SWAP1 SUB SWAP1 DUP2 PUSH2 0x1019 JUMPI SWAP1 POP JUMPDEST POP SWAP1 POP PUSH1 0x40 MLOAD DUP1 PUSH1 0x40 ADD PUSH1 0x40 MSTORE DUP1 PUSH0 PUSH20 0xFFFFFFFFFFFFFFFFFFFFFFFFFFFFFFFFFFFFFFFF AND DUP2 MSTORE PUSH1 0x20 ADD DUP7 DUP2 MSTORE POP DUP2 PUSH0 DUP2 MLOAD DUP2 LT PUSH2 0x1075 JUMPI PUSH2 0x1074 PUSH2 0x2829 JUMP JUMPDEST JUMPDEST PUSH1 0x20 MUL PUSH1 0x20 ADD ADD DUP2 SWAP1 MSTORE POP PUSH0 DUP7 PUSH1 0x40 ADD MLOAD MLOAD PUSH8 0xFFFFFFFFFFFFFFFF DUP2 GT ISZERO PUSH2 0x10A0 JUMPI PUSH2 0x109F PUSH2 0x1B15 JUMP JUMPDEST JUMPDEST PUSH1 0x40 MLOAD SWAP1 DUP1 DUP3 MSTORE DUP1 PUSH1 0x20 MUL PUSH1 0x20 ADD DUP3 ADD PUSH1 0x40 MSTORE DUP1 ISZERO PUSH2 0x10D9 JUMPI DUP2 PUSH1 0x20 ADD JUMPDEST PUSH2 0x10C6 PUSH2 0x1984 JUMP JUMPDEST DUP2 MSTORE PUSH1 0x20 ADD SWAP1 PUSH1 0x1 SWAP1 SUB SWAP1 DUP2 PUSH2 0x10BE JUMPI SWAP1 POP JUMPDEST POP SWAP1 POP PUSH0 PUSH0 SWAP1 POP JUMPDEST DUP8 PUSH1 0x40 ADD MLOAD MLOAD DUP2 LT ISZERO PUSH2 0x118B JUMPI PUSH1 0x40 MLOAD DUP1 PUSH1 0x40 ADD PUSH1 0x40 MSTORE DUP1 DUP10 PUSH1 0x40 ADD MLOAD DUP4 DUP2 MLOAD DUP2 LT PUSH2 0x1110 JUMPI PUSH2 0x110F PUSH2 0x2829 JUMP JUMPDEST JUMPDEST PUSH1 0x20 MUL PUSH1 0x20 ADD ADD MLOAD PUSH0 ADD MLOAD PUSH20 0xFFFFFFFFFFFFFFFFFFFFFFFFFFFFFFFFFFFFFFFF AND DUP2 MSTORE PUSH1 0x20 ADD DUP10 PUSH1 0x40 ADD MLOAD DUP4 DUP2 MLOAD DUP2 LT PUSH2 0x114D JUMPI PUSH2 0x114C PUSH2 0x2829 JUMP JUMPDEST JUMPDEST PUSH1 0x20 MUL PUSH1 0x20 ADD ADD MLOAD PUSH1 0x20 ADD MLOAD PUSH2 0xFFFF AND DUP2 MSTORE POP DUP3 DUP3 DUP2 MLOAD DUP2 LT PUSH2 0x1173 JUMPI PUSH2 0x1172 PUSH2 0x2829 JUMP JUMPDEST JUMPDEST PUSH1 0x20 MUL PUSH1 0x20 ADD ADD DUP2 SWAP1 MSTORE POP DUP1 DUP1 PUSH1 0x1 ADD SWAP2 POP POP PUSH2 0x10E1 JUMP JUMPDEST POP PUSH2 0x1194 PUSH2 0x16C2 JUMP JUMPDEST PUSH20 0xFFFFFFFFFFFFFFFFFFFFFFFFFFFFFFFFFFFFFFFF AND PUSH4 0x192B5887 DUP8 DUP5 DUP5 DUP10 DUP10 DUP10 PUSH2 0x11BD PUSH2 0x18B7 JUMP JUMPDEST PUSH1 0x40 MLOAD DUP9 PUSH4 0xFFFFFFFF AND PUSH1 0xE0 SHL DUP2 MSTORE PUSH1 0x4 ADD PUSH2 0x11DE SWAP7 SWAP6 SWAP5 SWAP4 SWAP3 SWAP2 SWAP1 PUSH2 0x2C84 JUMP JUMPDEST PUSH0 PUSH1 0x40 MLOAD DUP1 DUP4 SUB DUP2 DUP6 DUP9 DUP1 EXTCODESIZE ISZERO DUP1 ISZERO PUSH2 0x11F5 JUMPI PUSH0 PUSH0 REVERT JUMPDEST POP GAS CALL ISZERO DUP1 ISZERO PUSH2 0x1207 JUMPI RETURNDATASIZE PUSH0 PUSH0 RETURNDATACOPY RETURNDATASIZE PUSH0 REVERT JUMPDEST POP POP POP POP POP POP POP POP POP POP POP POP JUMP JUMPDEST PUSH0 PUSH0 DUP4 PUSH20 0xFFFFFFFFFFFFFFFFFFFFFFFFFFFFFFFFFFFFFFFF AND PUSH4 0x18160DDD PUSH1 0x40 MLOAD DUP2 PUSH4 0xFFFFFFFF AND PUSH1 0xE0 SHL DUP2 MSTORE PUSH1 0x4 ADD PUSH1 0x20 PUSH1 0x40 MLOAD DUP1 DUP4 SUB DUP2 DUP7 GAS STATICCALL ISZERO DUP1 ISZERO PUSH2 0x1260 JUMPI RETURNDATASIZE PUSH0 PUSH0 RETURNDATACOPY RETURNDATASIZE PUSH0 REVERT JUMPDEST POP POP POP POP PUSH1 0x40 MLOAD RETURNDATASIZE PUSH1 0x1F NOT PUSH1 0x1F DUP3 ADD AND DUP3 ADD DUP1 PUSH1 0x40 MSTORE POP DUP2 ADD SWAP1 PUSH2 0x1284 SWAP2 SWAP1 PUSH2 0x222A JUMP JUMPDEST SWAP1 POP PUSH0 PUSH2 0x128F PUSH2 0x167E JUMP JUMPDEST PUSH20 0xFFFFFFFFFFFFFFFFFFFFFFFFFFFFFFFFFFFFFFFF AND PUSH4 0xE4B603B3 DUP9 PUSH1 0x40 MLOAD DUP3 PUSH4 0xFFFFFFFF AND PUSH1 0xE0 SHL DUP2 MSTORE PUSH1 0x4 ADD PUSH2 0x12C7 SWAP2 SWAP1 PUSH2 0x1F21 JUMP JUMPDEST PUSH1 0x20 PUSH1 0x40 MLOAD DUP1 DUP4 SUB DUP2 DUP7 GAS STATICCALL ISZERO DUP1 ISZERO PUSH2 0x12E2 JUMPI RETURNDATASIZE PUSH0 PUSH0 RETURNDATACOPY RETURNDATASIZE PUSH0 REVERT JUMPDEST POP POP POP POP PUSH1 0x40 MLOAD RETURNDATASIZE PUSH1 0x1F NOT PUSH1 0x1F DUP3 ADD AND DUP3 ADD DUP1 PUSH1 0x40 MSTORE POP DUP2 ADD SWAP1 PUSH2 0x1306 SWAP2 SWAP1 PUSH2 0x222A JUMP JUMPDEST SWAP1 POP PUSH0 PUSH0 DUP4 SUB PUSH2 0x13FB JUMPI PUSH0 PUSH2 0x1319 PUSH2 0x1912 JUMP JUMPDEST PUSH20 0xFFFFFFFFFFFFFFFFFFFFFFFFFFFFFFFFFFFFFFFF AND PUSH4 0xC9D54FA7 DUP11 PUSH1 0x40 MLOAD DUP3 PUSH4 0xFFFFFFFF AND PUSH1 0xE0 SHL DUP2 MSTORE PUSH1 0x4 ADD PUSH2 0x1351 SWAP2 SWAP1 PUSH2 0x1F21 JUMP JUMPDEST PUSH1 0x20 PUSH1 0x40 MLOAD DUP1 DUP4 SUB DUP2 DUP7 GAS STATICCALL ISZERO DUP1 ISZERO PUSH2 0x136C JUMPI RETURNDATASIZE PUSH0 PUSH0 RETURNDATACOPY RETURNDATASIZE PUSH0 REVERT JUMPDEST POP POP POP POP PUSH1 0x40 MLOAD RETURNDATASIZE PUSH1 0x1F NOT PUSH1 0x1F DUP3 ADD AND DUP3 ADD DUP1 PUSH1 0x40 MSTORE POP DUP2 ADD SWAP1 PUSH2 0x1390 SWAP2 SWAP1 PUSH2 0x222A JUMP JUMPDEST SWAP1 POP PUSH0 DUP2 GT PUSH2 0x13D4 JUMPI PUSH1 0x40 MLOAD PUSH32 0x8C379A000000000000000000000000000000000000000000000000000000000 DUP2 MSTORE PUSH1 0x4 ADD PUSH2 0x13CB SWAP1 PUSH2 0x2D42 JUMP JUMPDEST PUSH1 0x40 MLOAD DUP1 SWAP2 SUB SWAP1 REVERT JUMPDEST DUP1 PUSH8 0xDE0B6B3A7640000 DUP10 PUSH2 0x13E9 SWAP2 SWAP1 PUSH2 0x2856 JUMP JUMPDEST PUSH2 0x13F3 SWAP2 SWAP1 PUSH2 0x28C4 JUMP JUMPDEST SWAP2 POP POP PUSH2 0x1457 JUMP JUMPDEST PUSH0 DUP3 GT PUSH2 0x143D JUMPI PUSH1 0x40 MLOAD PUSH32 0x8C379A000000000000000000000000000000000000000000000000000000000 DUP2 MSTORE PUSH1 0x4 ADD PUSH2 0x1434 SWAP1 PUSH2 0x2DAA JUMP JUMPDEST PUSH1 0x40 MLOAD DUP1 SWAP2 SUB SWAP1 REVERT JUMPDEST DUP2 DUP4 DUP9 PUSH2 0x144A SWAP2 SWAP1 PUSH2 0x2856 JUMP JUMPDEST PUSH2 0x1454 SWAP2 SWAP1 PUSH2 0x28C4 JUMP JUMPDEST SWAP1 POP JUMPDEST DUP6 PUSH20 0xFFFFFFFFFFFFFFFFFFFFFFFFFFFFFFFFFFFFFFFF AND PUSH4 0x40C10F19 DUP7 DUP4 PUSH1 0x40 MLOAD DUP4 PUSH4 0xFFFFFFFF AND PUSH1 0xE0 SHL DUP2 MSTORE PUSH1 0x4 ADD PUSH2 0x1492 SWAP3 SWAP2 SWAP1 PUSH2 0x234B JUMP JUMPDEST PUSH0 PUSH1 0x40 MLOAD DUP1 DUP4 SUB DUP2 PUSH0 DUP8 DUP1 EXTCODESIZE ISZERO DUP1 ISZERO PUSH2 0x14A9 JUMPI PUSH0 PUSH0 REVERT JUMPDEST POP GAS CALL ISZERO DUP1 ISZERO PUSH2 0x14BB JUMPI RETURNDATASIZE PUSH0 PUSH0 RETURNDATACOPY RETURNDATASIZE PUSH0 REVERT JUMPDEST POP POP POP POP DUP1 SWAP4 POP POP POP POP SWAP5 SWAP4 POP POP POP POP JUMP JUMPDEST PUSH0 PUSH20 0xFFFFFFFFFFFFFFFFFFFFFFFFFFFFFFFFFFFFFFFF AND DUP2 PUSH20 0xFFFFFFFFFFFFFFFFFFFFFFFFFFFFFFFFFFFFFFFF AND SUB PUSH2 0x153B JUMPI PUSH1 0x40 MLOAD PUSH32 0x8C379A000000000000000000000000000000000000000000000000000000000 DUP2 MSTORE PUSH1 0x4 ADD PUSH2 0x1532 SWAP1 PUSH2 0x2E12 JUMP JUMPDEST PUSH1 0x40 MLOAD DUP1 SWAP2 SUB SWAP1 REVERT JUMPDEST PUSH0 DUP2 PUSH20 0xFFFFFFFFFFFFFFFFFFFFFFFFFFFFFFFFFFFFFFFF AND EXTCODESIZE GT PUSH2 0x1594 JUMPI PUSH1 0x40 MLOAD PUSH32 0x8C379A000000000000000000000000000000000000000000000000000000000 DUP2 MSTORE PUSH1 0x4 ADD PUSH2 0x158B SWAP1 PUSH2 0x2E7A JUMP JUMPDEST PUSH1 0x40 MLOAD DUP1 SWAP2 SUB SWAP1 REVERT JUMPDEST DUP1 PUSH20 0xFFFFFFFFFFFFFFFFFFFFFFFFFFFFFFFFFFFFFFFF AND PUSH4 0x8DA5CB5B PUSH1 0x40 MLOAD DUP2 PUSH4 0xFFFFFFFF AND PUSH1 0xE0 SHL DUP2 MSTORE PUSH1 0x4 ADD PUSH1 0x20 PUSH1 0x40 MLOAD DUP1 DUP4 SUB DUP2 DUP7 GAS STATICCALL SWAP3 POP POP POP DUP1 ISZERO PUSH2 0x15FC JUMPI POP PUSH1 0x40 MLOAD RETURNDATASIZE PUSH1 0x1F NOT PUSH1 0x1F DUP3 ADD AND DUP3 ADD DUP1 PUSH1 0x40 MSTORE POP DUP2 ADD SWAP1 PUSH2 0x15F9 SWAP2 SWAP1 PUSH2 0x24A5 JUMP JUMPDEST PUSH1 0x1 JUMPDEST PUSH2 0x163B JUMPI PUSH1 0x40 MLOAD PUSH32 0x8C379A000000000000000000000000000000000000000000000000000000000 DUP2 MSTORE PUSH1 0x4 ADD PUSH2 0x1632 SWAP1 PUSH2 0x2F08 JUMP JUMPDEST PUSH1 0x40 MLOAD DUP1 SWAP2 SUB SWAP1 REVERT JUMPDEST DUP2 PUSH0 PUSH0 PUSH2 0x100 EXP DUP2 SLOAD DUP2 PUSH20 0xFFFFFFFFFFFFFFFFFFFFFFFFFFFFFFFFFFFFFFFF MUL NOT AND SWAP1 DUP4 PUSH20 0xFFFFFFFFFFFFFFFFFFFFFFFFFFFFFFFFFFFFFFFF AND MUL OR SWAP1 SSTORE POP POP POP JUMP JUMPDEST PUSH0 PUSH2 0x16BD PUSH1 0x40 MLOAD DUP1 PUSH1 0x40 ADD PUSH1 0x40 MSTORE DUP1 PUSH1 0xB DUP2 MSTORE PUSH1 0x20 ADD PUSH32 0x6574662D666163746F7279000000000000000000000000000000000000000000 DUP2 MSTORE POP PUSH2 0x4A6 JUMP JUMPDEST SWAP1 POP SWAP1 JUMP JUMPDEST PUSH0 PUSH2 0x1701 PUSH1 0x40 MLOAD DUP1 PUSH1 0x40 ADD PUSH1 0x40 MSTORE DUP1 PUSH1 0x10 DUP2 MSTORE PUSH1 0x20 ADD PUSH32 0x6D756C7469737761702D726F7574657200000000000000000000000000000000 DUP2 MSTORE POP PUSH2 0x4A6 JUMP JUMPDEST SWAP1 POP SWAP1 JUMP JUMPDEST PUSH0 DUP4 SWAP1 POP PUSH0 DUP2 PUSH20 0xFFFFFFFFFFFFFFFFFFFFFFFFFFFFFFFFFFFFFFFF AND PUSH4 0xDD62ED3E ADDRESS DUP7 PUSH1 0x40 MLOAD DUP4 PUSH4 0xFFFFFFFF AND PUSH1 0xE0 SHL DUP2 MSTORE PUSH1 0x4 ADD PUSH2 0x1746 SWAP3 SWAP2 SWAP1 PUSH2 0x2F26 JUMP JUMPDEST PUSH1 0x20 PUSH1 0x40 MLOAD DUP1 DUP4 SUB DUP2 DUP7 GAS STATICCALL ISZERO DUP1 ISZERO PUSH2 0x1761 JUMPI RETURNDATASIZE PUSH0 PUSH0 RETURNDATACOPY RETURNDATASIZE PUSH0 REVERT JUMPDEST POP POP POP POP PUSH1 0x40 MLOAD RETURNDATASIZE PUSH1 0x1F NOT PUSH1 0x1F DUP3 ADD AND DUP3 ADD DUP1 PUSH1 0x40 MSTORE POP DUP2 ADD SWAP1 PUSH2 0x1785 SWAP2 SWAP1 PUSH2 0x222A JUMP JUMPDEST SWAP1 POP DUP3 DUP2 LT ISZERO PUSH2 0x18B0 JUMPI PUSH0 DUP2 EQ PUSH2 0x1813 JUMPI DUP2 PUSH20 0xFFFFFFFFFFFFFFFFFFFFFFFFFFFFFFFFFFFFFFFF AND PUSH4 0x95EA7B3 DUP6 PUSH0 PUSH1 0x40 MLOAD DUP4 PUSH4 0xFFFFFFFF AND PUSH1 0xE0 SHL DUP2 MSTORE PUSH1 0x4 ADD PUSH2 0x17D1 SWAP3 SWAP2 SWAP1 PUSH2 0x2F86 JUMP JUMPDEST PUSH1 0x20 PUSH1 0x40 MLOAD DUP1 DUP4 SUB DUP2 PUSH0 DUP8 GAS CALL ISZERO DUP1 ISZERO PUSH2 0x17ED JUMPI RETURNDATASIZE PUSH0 PUSH0 RETURNDATACOPY RETURNDATASIZE PUSH0 REVERT JUMPDEST POP POP POP POP PUSH1 0x40 MLOAD RETURNDATASIZE PUSH1 0x1F NOT PUSH1 0x1F DUP3 ADD AND DUP3 ADD DUP1 PUSH1 0x40 MSTORE POP DUP2 ADD SWAP1 PUSH2 0x1811 SWAP2 SWAP1 PUSH2 0x2FE2 JUMP JUMPDEST POP JUMPDEST DUP2 PUSH20 0xFFFFFFFFFFFFFFFFFFFFFFFFFFFFFFFFFFFFFFFF AND PUSH4 0x95EA7B3 DUP6 PUSH32 0xFFFFFFFFFFFFFFFFFFFFFFFFFFFFFFFFFFFFFFFFFFFFFFFFFFFFFFFFFFFFFFFF PUSH1 0x40 MLOAD DUP4 PUSH4 0xFFFFFFFF AND PUSH1 0xE0 SHL DUP2 MSTORE PUSH1 0x4 ADD PUSH2 0x186E SWAP3 SWAP2 SWAP1 PUSH2 0x234B JUMP JUMPDEST PUSH1 0x20 PUSH1 0x40 MLOAD DUP1 DUP4 SUB DUP2 PUSH0 DUP8 GAS CALL ISZERO DUP1 ISZERO PUSH2 0x188A JUMPI RETURNDATASIZE PUSH0 PUSH0 RETURNDATACOPY RETURNDATASIZE PUSH0 REVERT JUMPDEST POP POP POP POP PUSH1 0x40 MLOAD RETURNDATASIZE PUSH1 0x1F NOT PUSH1 0x1F DUP3 ADD AND DUP3 ADD DUP1 PUSH1 0x40 MSTORE POP DUP2 ADD SWAP1 PUSH2 0x18AE SWAP2 SWAP1 PUSH2 0x2FE2 JUMP JUMPDEST POP JUMPDEST POP POP POP POP POP JUMP JUMPDEST PUSH1 0x60 PUSH0 PUSH8 0xFFFFFFFFFFFFFFFF DUP2 GT ISZERO PUSH2 0x18D3 JUMPI PUSH2 0x18D2 PUSH2 0x1B15 JUMP JUMPDEST JUMPDEST PUSH1 0x40 MLOAD SWAP1 DUP1 DUP3 MSTORE DUP1 PUSH1 0x20 MUL PUSH1 0x20 ADD DUP3 ADD PUSH1 0x40 MSTORE DUP1 ISZERO PUSH2 0x190C JUMPI DUP2 PUSH1 0x20 ADD JUMPDEST PUSH2 0x18F9 PUSH2 0x19B6 JUMP JUMPDEST DUP2 MSTORE PUSH1 0x20 ADD SWAP1 PUSH1 0x1 SWAP1 SUB SWAP1 DUP2 PUSH2 0x18F1 JUMPI SWAP1 POP JUMPDEST POP SWAP1 POP SWAP1 JUMP JUMPDEST PUSH0 PUSH2 0x1951 PUSH1 0x40 MLOAD DUP1 PUSH1 0x40 ADD PUSH1 0x40 MSTORE DUP1 PUSH1 0x12 DUP2 MSTORE PUSH1 0x20 ADD PUSH32 0x696E6465782D70726963652D6F7261636C650000000000000000000000000000 DUP2 MSTORE POP PUSH2 0x4A6 JUMP JUMPDEST SWAP1 POP SWAP1 JUMP JUMPDEST PUSH1 0x40 MLOAD DUP1 PUSH1 0x40 ADD PUSH1 0x40 MSTORE DUP1 PUSH0 PUSH20 0xFFFFFFFFFFFFFFFFFFFFFFFFFFFFFFFFFFFFFFFF AND DUP2 MSTORE PUSH1 0x20 ADD PUSH0 DUP2 MSTORE POP SWAP1 JUMP JUMPDEST PUSH1 0x40 MLOAD DUP1 PUSH1 0x40 ADD PUSH1 0x40 MSTORE DUP1 PUSH0 PUSH20 0xFFFFFFFFFFFFFFFFFFFFFFFFFFFFFFFFFFFFFFFF AND DUP2 MSTORE PUSH1 0x20 ADD PUSH0 PUSH2 0xFFFF AND DUP2 MSTORE POP SWAP1 JUMP JUMPDEST PUSH1 0x40 MLOAD DUP1 PUSH1 0x40 ADD PUSH1 0x40 MSTORE DUP1 PUSH0 PUSH20 0xFFFFFFFFFFFFFFFFFFFFFFFFFFFFFFFFFFFFFFFF AND DUP2 MSTORE PUSH1 0x20 ADD PUSH0 PUSH2 0xFFFF AND DUP2 MSTORE POP SWAP1 JUMP JUMPDEST PUSH0 PUSH1 0x40 MLOAD SWAP1 POP SWAP1 JUMP JUMPDEST PUSH0 PUSH0 REVERT JUMPDEST PUSH0 PUSH0 REVERT JUMPDEST PUSH0 DUP2 SWAP1 POP SWAP2 SWAP1 POP JUMP JUMPDEST PUSH2 0x1A0B DUP2 PUSH2 0x19F9 JUMP JUMPDEST DUP2 EQ PUSH2 0x1A15 JUMPI PUSH0 PUSH0 REVERT JUMPDEST POP JUMP JUMPDEST PUSH0 DUP2 CALLDATALOAD SWAP1 POP PUSH2 0x1A26 DUP2 PUSH2 0x1A02 JUMP JUMPDEST SWAP3 SWAP2 POP POP JUMP JUMPDEST PUSH0 PUSH20 0xFFFFFFFFFFFFFFFFFFFFFFFFFFFFFFFFFFFFFFFF DUP3 AND SWAP1 POP SWAP2 SWAP1 POP JUMP JUMPDEST PUSH0 PUSH2 0x1A55 DUP3 PUSH2 0x1A2C JUMP JUMPDEST SWAP1 POP SWAP2 SWAP1 POP JUMP JUMPDEST PUSH2 0x1A65 DUP2 PUSH2 0x1A4B JUMP JUMPDEST DUP2 EQ PUSH2 0x1A6F JUMPI PUSH0 PUSH0 REVERT JUMPDEST POP JUMP JUMPDEST PUSH0 DUP2 CALLDATALOAD SWAP1 POP PUSH2 0x1A80 DUP2 PUSH2 0x1A5C JUMP JUMPDEST SWAP3 SWAP2 POP POP JUMP JUMPDEST PUSH0 PUSH0 PUSH0 PUSH0 PUSH0 PUSH1 0xA0 DUP7 DUP9 SUB SLT ISZERO PUSH2 0x1A9F JUMPI PUSH2 0x1A9E PUSH2 0x19F1 JUMP JUMPDEST JUMPDEST PUSH0 PUSH2 0x1AAC DUP9 DUP3 DUP10 ADD PUSH2 0x1A18 JUMP JUMPDEST SWAP6 POP POP PUSH1 0x20 PUSH2 0x1ABD DUP9 DUP3 DUP10 ADD PUSH2 0x1A18 JUMP JUMPDEST SWAP5 POP POP PUSH1 0x40 PUSH2 0x1ACE DUP9 DUP3 DUP10 ADD PUSH2 0x1A72 JUMP JUMPDEST SWAP4 POP POP PUSH1 0x60 PUSH2 0x1ADF DUP9 DUP3 DUP10 ADD PUSH2 0x1A18 JUMP JUMPDEST SWAP3 POP POP PUSH1 0x80 PUSH2 0x1AF0 DUP9 DUP3 DUP10 ADD PUSH2 0x1A18 JUMP JUMPDEST SWAP2 POP POP SWAP3 SWAP6 POP SWAP3 SWAP6 SWAP1 SWAP4 POP JUMP JUMPDEST PUSH0 PUSH0 REVERT JUMPDEST PUSH0 PUSH0 REVERT JUMPDEST PUSH0 PUSH1 0x1F NOT PUSH1 0x1F DUP4 ADD AND SWAP1 POP SWAP2 SWAP1 POP JUMP JUMPDEST PUSH32 0x4E487B7100000000000000000000000000000000000000000000000000000000 PUSH0 MSTORE PUSH1 0x41 PUSH1 0x4 MSTORE PUSH1 0x24 PUSH0 REVERT JUMPDEST PUSH2 0x1B4B DUP3 PUSH2 0x1B05 JUMP JUMPDEST DUP2 ADD DUP2 DUP2 LT PUSH8 0xFFFFFFFFFFFFFFFF DUP3 GT OR ISZERO PUSH2 0x1B6A JUMPI PUSH2 0x1B69 PUSH2 0x1B15 JUMP JUMPDEST JUMPDEST DUP1 PUSH1 0x40 MSTORE POP POP POP JUMP JUMPDEST PUSH0 PUSH2 0x1B7C PUSH2 0x19E8 JUMP JUMPDEST SWAP1 POP PUSH2 0x1B88 DUP3 DUP3 PUSH2 0x1B42 JUMP JUMPDEST SWAP2 SWAP1 POP JUMP JUMPDEST PUSH0 PUSH8 0xFFFFFFFFFFFFFFFF DUP3 GT ISZERO PUSH2 0x1BA7 JUMPI PUSH2 0x1BA6 PUSH2 0x1B15 JUMP JUMPDEST JUMPDEST PUSH2 0x1BB0 DUP3 PUSH2 0x1B05 JUMP JUMPDEST SWAP1 POP PUSH1 0x20 DUP2 ADD SWAP1 POP SWAP2 SWAP1 POP JUMP JUMPDEST DUP3 DUP2 DUP4 CALLDATACOPY PUSH0 DUP4 DUP4 ADD MSTORE POP POP POP JUMP JUMPDEST PUSH0 PUSH2 0x1BDD PUSH2 0x1BD8 DUP5 PUSH2 0x1B8D JUMP JUMPDEST PUSH2 0x1B73 JUMP JUMPDEST SWAP1 POP DUP3 DUP2 MSTORE PUSH1 0x20 DUP2 ADD DUP5 DUP5 DUP5 ADD GT ISZERO PUSH2 0x1BF9 JUMPI PUSH2 0x1BF8 PUSH2 0x1B01 JUMP JUMPDEST JUMPDEST PUSH2 0x1C04 DUP5 DUP3 DUP6 PUSH2 0x1BBD JUMP JUMPDEST POP SWAP4 SWAP3 POP POP POP JUMP JUMPDEST PUSH0 DUP3 PUSH1 0x1F DUP4 ADD SLT PUSH2 0x1C20 JUMPI PUSH2 0x1C1F PUSH2 0x1AFD JUMP JUMPDEST JUMPDEST DUP2 CALLDATALOAD PUSH2 0x1C30 DUP5 DUP3 PUSH1 0x20 DUP7 ADD PUSH2 0x1BCB JUMP JUMPDEST SWAP2 POP POP SWAP3 SWAP2 POP POP JUMP JUMPDEST PUSH0 PUSH1 0x20 DUP3 DUP5 SUB SLT ISZERO PUSH2 0x1C4E JUMPI PUSH2 0x1C4D PUSH2 0x19F1 JUMP JUMPDEST JUMPDEST PUSH0 DUP3 ADD CALLDATALOAD PUSH8 0xFFFFFFFFFFFFFFFF DUP2 GT ISZERO PUSH2 0x1C6B JUMPI PUSH2 0x1C6A PUSH2 0x19F5 JUMP JUMPDEST JUMPDEST PUSH2 0x1C77 DUP5 DUP3 DUP6 ADD PUSH2 0x1C0C JUMP JUMPDEST SWAP2 POP POP SWAP3 SWAP2 POP POP JUMP JUMPDEST PUSH0 PUSH2 0x1C8A DUP3 PUSH2 0x1A2C JUMP JUMPDEST SWAP1 POP SWAP2 SWAP1 POP JUMP JUMPDEST PUSH2 0x1C9A DUP2 PUSH2 0x1C80 JUMP JUMPDEST DUP3 MSTORE POP POP JUMP JUMPDEST PUSH0 PUSH1 0x20 DUP3 ADD SWAP1 POP PUSH2 0x1CB3 PUSH0 DUP4 ADD DUP5 PUSH2 0x1C91 JUMP JUMPDEST SWAP3 SWAP2 POP POP JUMP JUMPDEST PUSH0 DUP2 SWAP1 POP SWAP2 SWAP1 POP JUMP JUMPDEST PUSH0 PUSH2 0x1CDC PUSH2 0x1CD7 PUSH2 0x1CD2 DUP5 PUSH2 0x1A2C JUMP JUMPDEST PUSH2 0x1CB9 JUMP JUMPDEST PUSH2 0x1A2C JUMP JUMPDEST SWAP1 POP SWAP2 SWAP1 POP JUMP JUMPDEST PUSH0 PUSH2 0x1CED DUP3 PUSH2 0x1CC2 JUMP JUMPDEST SWAP1 POP SWAP2 SWAP1 POP JUMP JUMPDEST PUSH0 PUSH2 0x1CFE DUP3 PUSH2 0x1CE3 JUMP JUMPDEST SWAP1 POP SWAP2 SWAP1 POP JUMP JUMPDEST PUSH2 0x1D0E DUP2 PUSH2 0x1CF4 JUMP JUMPDEST DUP3 MSTORE POP POP JUMP JUMPDEST PUSH0 PUSH1 0x20 DUP3 ADD SWAP1 POP PUSH2 0x1D27 PUSH0 DUP4 ADD DUP5 PUSH2 0x1D05 JUMP JUMPDEST SWAP3 SWAP2 POP POP JUMP JUMPDEST PUSH2 0x1D36 DUP2 PUSH2 0x1C80 JUMP JUMPDEST DUP2 EQ PUSH2 0x1D40 JUMPI PUSH0 PUSH0 REVERT JUMPDEST POP JUMP JUMPDEST PUSH0 DUP2 CALLDATALOAD SWAP1 POP PUSH2 0x1D51 DUP2 PUSH2 0x1D2D JUMP JUMPDEST SWAP3 SWAP2 POP POP JUMP JUMPDEST PUSH0 PUSH0 PUSH0 PUSH0 PUSH1 0x80 DUP6 DUP8 SUB SLT ISZERO PUSH2 0x1D6F JUMPI PUSH2 0x1D6E PUSH2 0x19F1 JUMP JUMPDEST JUMPDEST PUSH0 PUSH2 0x1D7C DUP8 DUP3 DUP9 ADD PUSH2 0x1A18 JUMP JUMPDEST SWAP5 POP POP PUSH1 0x20 PUSH2 0x1D8D DUP8 DUP3 DUP9 ADD PUSH2 0x1D43 JUMP JUMPDEST SWAP4 POP POP PUSH1 0x40 PUSH2 0x1D9E DUP8 DUP3 DUP9 ADD PUSH2 0x1A18 JUMP JUMPDEST SWAP3 POP POP PUSH1 0x60 PUSH2 0x1DAF DUP8 DUP3 DUP9 ADD PUSH2 0x1A18 JUMP JUMPDEST SWAP2 POP POP SWAP3 SWAP6 SWAP2 SWAP5 POP SWAP3 POP JUMP JUMPDEST PUSH0 PUSH1 0x20 DUP3 DUP5 SUB SLT ISZERO PUSH2 0x1DD0 JUMPI PUSH2 0x1DCF PUSH2 0x19F1 JUMP JUMPDEST JUMPDEST PUSH0 PUSH2 0x1DDD DUP5 DUP3 DUP6 ADD PUSH2 0x1D43 JUMP JUMPDEST SWAP2 POP POP SWAP3 SWAP2 POP POP JUMP JUMPDEST PUSH0 DUP3 DUP3 MSTORE PUSH1 0x20 DUP3 ADD SWAP1 POP SWAP3 SWAP2 POP POP JUMP JUMPDEST PUSH32 0x457466526F757465723A20746F6B656E7320746F2073656C6C2073686F756C64 PUSH0 DUP3 ADD MSTORE PUSH32 0x206E6F74206265207A65726F0000000000000000000000000000000000000000 PUSH1 0x20 DUP3 ADD MSTORE POP JUMP JUMPDEST PUSH0 PUSH2 0x1E50 PUSH1 0x2C DUP4 PUSH2 0x1DE6 JUMP JUMPDEST SWAP2 POP PUSH2 0x1E5B DUP3 PUSH2 0x1DF6 JUMP JUMPDEST PUSH1 0x40 DUP3 ADD SWAP1 POP SWAP2 SWAP1 POP JUMP JUMPDEST PUSH0 PUSH1 0x20 DUP3 ADD SWAP1 POP DUP2 DUP2 SUB PUSH0 DUP4 ADD MSTORE PUSH2 0x1E7D DUP2 PUSH2 0x1E44 JUMP JUMPDEST SWAP1 POP SWAP2 SWAP1 POP JUMP JUMPDEST PUSH32 0x457466526F757465723A2072656365697665722073686F756C64206E6F742062 PUSH0 DUP3 ADD MSTORE PUSH32 0x65207A65726F2061646472657373000000000000000000000000000000000000 PUSH1 0x20 DUP3 ADD MSTORE POP JUMP JUMPDEST PUSH0 PUSH2 0x1EDE PUSH1 0x2E DUP4 PUSH2 0x1DE6 JUMP JUMPDEST SWAP2 POP PUSH2 0x1EE9 DUP3 PUSH2 0x1E84 JUMP JUMPDEST PUSH1 0x40 DUP3 ADD SWAP1 POP SWAP2 SWAP1 POP JUMP JUMPDEST PUSH0 PUSH1 0x20 DUP3 ADD SWAP1 POP DUP2 DUP2 SUB PUSH0 DUP4 ADD MSTORE PUSH2 0x1F0B DUP2 PUSH2 0x1ED2 JUMP JUMPDEST SWAP1 POP SWAP2 SWAP1 POP JUMP JUMPDEST PUSH2 0x1F1B DUP2 PUSH2 0x19F9 JUMP JUMPDEST DUP3 MSTORE POP POP JUMP JUMPDEST PUSH0 PUSH1 0x20 DUP3 ADD SWAP1 POP PUSH2 0x1F34 PUSH0 DUP4 ADD DUP5 PUSH2 0x1F12 JUMP JUMPDEST SWAP3 SWAP2 POP POP JUMP JUMPDEST PUSH0 PUSH0 REVERT JUMPDEST PUSH0 PUSH0 REVERT JUMPDEST DUP3 DUP2 DUP4 MCOPY PUSH0 DUP4 DUP4 ADD MSTORE POP POP POP JUMP JUMPDEST PUSH0 PUSH2 0x1F62 PUSH2 0x1F5D DUP5 PUSH2 0x1B8D JUMP JUMPDEST PUSH2 0x1B73 JUMP JUMPDEST SWAP1 POP DUP3 DUP2 MSTORE PUSH1 0x20 DUP2 ADD DUP5 DUP5 DUP5 ADD GT ISZERO PUSH2 0x1F7E JUMPI PUSH2 0x1F7D PUSH2 0x1B01 JUMP JUMPDEST JUMPDEST PUSH2 0x1F89 DUP5 DUP3 DUP6 PUSH2 0x1F42 JUMP JUMPDEST POP SWAP4 SWAP3 POP POP POP JUMP JUMPDEST PUSH0 DUP3 PUSH1 0x1F DUP4 ADD SLT PUSH2 0x1FA5 JUMPI PUSH2 0x1FA4 PUSH2 0x1AFD JUMP JUMPDEST JUMPDEST DUP2 MLOAD PUSH2 0x1FB5 DUP5 DUP3 PUSH1 0x20 DUP7 ADD PUSH2 0x1F50 JUMP JUMPDEST SWAP2 POP POP SWAP3 SWAP2 POP POP JUMP JUMPDEST PUSH0 PUSH8 0xFFFFFFFFFFFFFFFF DUP3 GT ISZERO PUSH2 0x1FD8 JUMPI PUSH2 0x1FD7 PUSH2 0x1B15 JUMP JUMPDEST JUMPDEST PUSH1 0x20 DUP3 MUL SWAP1 POP PUSH1 0x20 DUP2 ADD SWAP1 POP SWAP2 SWAP1 POP JUMP JUMPDEST PUSH0 PUSH0 REVERT JUMPDEST PUSH0 DUP2 MLOAD SWAP1 POP PUSH2 0x1FFB DUP2 PUSH2 0x1D2D JUMP JUMPDEST SWAP3 SWAP2 POP POP JUMP JUMPDEST PUSH0 PUSH2 0xFFFF DUP3 AND SWAP1 POP SWAP2 SWAP1 POP JUMP JUMPDEST PUSH2 0x2017 DUP2 PUSH2 0x2001 JUMP JUMPDEST DUP2 EQ PUSH2 0x2021 JUMPI PUSH0 PUSH0 REVERT JUMPDEST POP JUMP JUMPDEST PUSH0 DUP2 MLOAD SWAP1 POP PUSH2 0x2032 DUP2 PUSH2 0x200E JUMP JUMPDEST SWAP3 SWAP2 POP POP JUMP JUMPDEST PUSH0 PUSH1 0x40 DUP3 DUP5 SUB SLT ISZERO PUSH2 0x204D JUMPI PUSH2 0x204C PUSH2 0x1F3A JUMP JUMPDEST JUMPDEST PUSH2 0x2057 PUSH1 0x40 PUSH2 0x1B73 JUMP JUMPDEST SWAP1 POP PUSH0 PUSH2 0x2066 DUP5 DUP3 DUP6 ADD PUSH2 0x1FED JUMP JUMPDEST PUSH0 DUP4 ADD MSTORE POP PUSH1 0x20 PUSH2 0x2079 DUP5 DUP3 DUP6 ADD PUSH2 0x2024 JUMP JUMPDEST PUSH1 0x20 DUP4 ADD MSTORE POP SWAP3 SWAP2 POP POP JUMP JUMPDEST PUSH0 PUSH2 0x2097 PUSH2 0x2092 DUP5 PUSH2 0x1FBE JUMP JUMPDEST PUSH2 0x1B73 JUMP JUMPDEST SWAP1 POP DUP1 DUP4 DUP3 MSTORE PUSH1 0x20 DUP3 ADD SWAP1 POP PUSH1 0x40 DUP5 MUL DUP4 ADD DUP6 DUP2 GT ISZERO PUSH2 0x20BA JUMPI PUSH2 0x20B9 PUSH2 0x1FE9 JUMP JUMPDEST JUMPDEST DUP4 JUMPDEST DUP2 DUP2 LT ISZERO PUSH2 0x20E3 JUMPI DUP1 PUSH2 0x20CF DUP9 DUP3 PUSH2 0x2038 JUMP JUMPDEST DUP5 MSTORE PUSH1 0x20 DUP5 ADD SWAP4 POP POP PUSH1 0x40 DUP2 ADD SWAP1 POP PUSH2 0x20BC JUMP JUMPDEST POP POP POP SWAP4 SWAP3 POP POP POP JUMP JUMPDEST PUSH0 DUP3 PUSH1 0x1F DUP4 ADD SLT PUSH2 0x2101 JUMPI PUSH2 0x2100 PUSH2 0x1AFD JUMP JUMPDEST JUMPDEST DUP2 MLOAD PUSH2 0x2111 DUP5 DUP3 PUSH1 0x20 DUP7 ADD PUSH2 0x2085 JUMP JUMPDEST SWAP2 POP POP SWAP3 SWAP2 POP POP JUMP JUMPDEST PUSH0 PUSH1 0x60 DUP3 DUP5 SUB SLT ISZERO PUSH2 0x212F JUMPI PUSH2 0x212E PUSH2 0x1F3A JUMP JUMPDEST JUMPDEST PUSH2 0x2139 PUSH1 0x60 PUSH2 0x1B73 JUMP JUMPDEST SWAP1 POP PUSH0 DUP3 ADD MLOAD PUSH8 0xFFFFFFFFFFFFFFFF DUP2 GT ISZERO PUSH2 0x2158 JUMPI PUSH2 0x2157 PUSH2 0x1F3E JUMP JUMPDEST JUMPDEST PUSH2 0x2164 DUP5 DUP3 DUP6 ADD PUSH2 0x1F91 JUMP JUMPDEST PUSH0 DUP4 ADD MSTORE POP PUSH1 0x20 DUP3 ADD MLOAD PUSH8 0xFFFFFFFFFFFFFFFF DUP2 GT ISZERO PUSH2 0x2187 JUMPI PUSH2 0x2186 PUSH2 0x1F3E JUMP JUMPDEST JUMPDEST PUSH2 0x2193 DUP5 DUP3 DUP6 ADD PUSH2 0x1F91 JUMP JUMPDEST PUSH1 0x20 DUP4 ADD MSTORE POP PUSH1 0x40 DUP3 ADD MLOAD PUSH8 0xFFFFFFFFFFFFFFFF DUP2 GT ISZERO PUSH2 0x21B7 JUMPI PUSH2 0x21B6 PUSH2 0x1F3E JUMP JUMPDEST JUMPDEST PUSH2 0x21C3 DUP5 DUP3 DUP6 ADD PUSH2 0x20ED JUMP JUMPDEST PUSH1 0x40 DUP4 ADD MSTORE POP SWAP3 SWAP2 POP POP JUMP JUMPDEST PUSH0 PUSH1 0x20 DUP3 DUP5 SUB SLT ISZERO PUSH2 0x21E4 JUMPI PUSH2 0x21E3 PUSH2 0x19F1 JUMP JUMPDEST JUMPDEST PUSH0 DUP3 ADD MLOAD PUSH8 0xFFFFFFFFFFFFFFFF DUP2 GT ISZERO PUSH2 0x2201 JUMPI PUSH2 0x2200 PUSH2 0x19F5 JUMP JUMPDEST JUMPDEST PUSH2 0x220D DUP5 DUP3 DUP6 ADD PUSH2 0x211A JUMP JUMPDEST SWAP2 POP POP SWAP3 SWAP2 POP POP JUMP JUMPDEST PUSH0 DUP2 MLOAD SWAP1 POP PUSH2 0x2224 DUP2 PUSH2 0x1A02 JUMP JUMPDEST SWAP3 SWAP2 POP POP JUMP JUMPDEST PUSH0 PUSH1 0x20 DUP3 DUP5 SUB SLT ISZERO PUSH2 0x223F JUMPI PUSH2 0x223E PUSH2 0x19F1 JUMP JUMPDEST JUMPDEST PUSH0 PUSH2 0x224C DUP5 DUP3 DUP6 ADD PUSH2 0x2216 JUMP JUMPDEST SWAP2 POP POP SWAP3 SWAP2 POP POP JUMP JUMPDEST PUSH32 0x457466526F757465723A20746F6B656E20737570706C79206973207A65726F00 PUSH0 DUP3 ADD MSTORE POP JUMP JUMPDEST PUSH0 PUSH2 0x2289 PUSH1 0x1F DUP4 PUSH2 0x1DE6 JUMP JUMPDEST SWAP2 POP PUSH2 0x2294 DUP3 PUSH2 0x2255 JUMP JUMPDEST PUSH1 0x20 DUP3 ADD SWAP1 POP SWAP2 SWAP1 POP JUMP JUMPDEST PUSH0 PUSH1 0x20 DUP3 ADD SWAP1 POP DUP2 DUP2 SUB PUSH0 DUP4 ADD MSTORE PUSH2 0x22B6 DUP2 PUSH2 0x227D JUMP JUMPDEST SWAP1 POP SWAP2 SWAP1 POP JUMP JUMPDEST PUSH32 0x457466526F757465723A2073656C6C546F6B656E416D6F756E74206973206772 PUSH0 DUP3 ADD MSTORE PUSH32 0x6561746572207468616E20746F74616C20737570706C79000000000000000000 PUSH1 0x20 DUP3 ADD MSTORE POP JUMP JUMPDEST PUSH0 PUSH2 0x2317 PUSH1 0x37 DUP4 PUSH2 0x1DE6 JUMP JUMPDEST SWAP2 POP PUSH2 0x2322 DUP3 PUSH2 0x22BD JUMP JUMPDEST PUSH1 0x40 DUP3 ADD SWAP1 POP SWAP2 SWAP1 POP JUMP JUMPDEST PUSH0 PUSH1 0x20 DUP3 ADD SWAP1 POP DUP2 DUP2 SUB PUSH0 DUP4 ADD MSTORE PUSH2 0x2344 DUP2 PUSH2 0x230B JUMP JUMPDEST SWAP1 POP SWAP2 SWAP1 POP JUMP JUMPDEST PUSH0 PUSH1 0x40 DUP3 ADD SWAP1 POP PUSH2 0x235E PUSH0 DUP4 ADD DUP6 PUSH2 0x1C91 JUMP JUMPDEST PUSH2 0x236B PUSH1 0x20 DUP4 ADD DUP5 PUSH2 0x1F12 JUMP JUMPDEST SWAP4 SWAP3 POP POP POP JUMP JUMPDEST PUSH32 0x4E487B7100000000000000000000000000000000000000000000000000000000 PUSH0 MSTORE PUSH1 0x11 PUSH1 0x4 MSTORE PUSH1 0x24 PUSH0 REVERT JUMPDEST PUSH0 PUSH2 0x23A9 DUP3 PUSH2 0x19F9 JUMP JUMPDEST SWAP2 POP PUSH2 0x23B4 DUP4 PUSH2 0x19F9 JUMP JUMPDEST SWAP3 POP DUP3 DUP3 SUB SWAP1 POP DUP2 DUP2 GT ISZERO PUSH2 0x23CC JUMPI PUSH2 0x23CB PUSH2 0x2372 JUMP JUMPDEST JUMPDEST SWAP3 SWAP2 POP POP JUMP JUMPDEST PUSH0 PUSH2 0x23DC DUP3 PUSH2 0x1CE3 JUMP JUMPDEST SWAP1 POP SWAP2 SWAP1 POP JUMP JUMPDEST PUSH2 0x23EC DUP2 PUSH2 0x23D2 JUMP JUMPDEST DUP3 MSTORE POP POP JUMP JUMPDEST PUSH0 PUSH1 0xA0 DUP3 ADD SWAP1 POP PUSH2 0x2405 PUSH0 DUP4 ADD DUP9 PUSH2 0x1F12 JUMP JUMPDEST PUSH2 0x2412 PUSH1 0x20 DUP4 ADD DUP8 PUSH2 0x1C91 JUMP JUMPDEST PUSH2 0x241F PUSH1 0x40 DUP4 ADD DUP7 PUSH2 0x23E3 JUMP JUMPDEST PUSH2 0x242C PUSH1 0x60 DUP4 ADD DUP6 PUSH2 0x1F12 JUMP JUMPDEST PUSH2 0x2439 PUSH1 0x80 DUP4 ADD DUP5 PUSH2 0x1F12 JUMP JUMPDEST SWAP7 SWAP6 POP POP POP POP POP POP JUMP JUMPDEST PUSH0 DUP2 MLOAD SWAP1 POP SWAP2 SWAP1 POP JUMP JUMPDEST PUSH0 PUSH2 0x2457 DUP3 PUSH2 0x2443 JUMP JUMPDEST PUSH2 0x2461 DUP2 DUP6 PUSH2 0x1DE6 JUMP JUMPDEST SWAP4 POP PUSH2 0x2471 DUP2 DUP6 PUSH1 0x20 DUP7 ADD PUSH2 0x1F42 JUMP JUMPDEST PUSH2 0x247A DUP2 PUSH2 0x1B05 JUMP JUMPDEST DUP5 ADD SWAP2 POP POP SWAP3 SWAP2 POP POP JUMP JUMPDEST PUSH0 PUSH1 0x20 DUP3 ADD SWAP1 POP DUP2 DUP2 SUB PUSH0 DUP4 ADD MSTORE PUSH2 0x249D DUP2 DUP5 PUSH2 0x244D JUMP JUMPDEST SWAP1 POP SWAP3 SWAP2 POP POP JUMP JUMPDEST PUSH0 PUSH1 0x20 DUP3 DUP5 SUB SLT ISZERO PUSH2 0x24BA JUMPI PUSH2 0x24B9 PUSH2 0x19F1 JUMP JUMPDEST JUMPDEST PUSH0 PUSH2 0x24C7 DUP5 DUP3 DUP6 ADD PUSH2 0x1FED JUMP JUMPDEST SWAP2 POP POP SWAP3 SWAP2 POP POP JUMP JUMPDEST PUSH32 0x457466526F757465723A204D73672076616C75652063616E6E6F74206265207A PUSH0 DUP3 ADD MSTORE PUSH32 0x65726F0000000000000000000000000000000000000000000000000000000000 PUSH1 0x20 DUP3 ADD MSTORE POP JUMP JUMPDEST PUSH0 PUSH2 0x252A PUSH1 0x23 DUP4 PUSH2 0x1DE6 JUMP JUMPDEST SWAP2 POP PUSH2 0x2535 DUP3 PUSH2 0x24D0 JUMP JUMPDEST PUSH1 0x40 DUP3 ADD SWAP1 POP SWAP2 SWAP1 POP JUMP JUMPDEST PUSH0 PUSH1 0x20 DUP3 ADD SWAP1 POP DUP2 DUP2 SUB PUSH0 DUP4 ADD MSTORE PUSH2 0x2557 DUP2 PUSH2 0x251E JUMP JUMPDEST SWAP1 POP SWAP2 SWAP1 POP JUMP JUMPDEST PUSH32 0x457466526F757465723A2052656365697665722063616E6E6F74206265207A65 PUSH0 DUP3 ADD MSTORE PUSH32 0x726F206164647265737300000000000000000000000000000000000000000000 PUSH1 0x20 DUP3 ADD MSTORE POP JUMP JUMPDEST PUSH0 PUSH2 0x25B8 PUSH1 0x2A DUP4 PUSH2 0x1DE6 JUMP JUMPDEST SWAP2 POP PUSH2 0x25C3 DUP3 PUSH2 0x255E JUMP JUMPDEST PUSH1 0x40 DUP3 ADD SWAP1 POP SWAP2 SWAP1 POP JUMP JUMPDEST PUSH0 PUSH1 0x20 DUP3 ADD SWAP1 POP DUP2 DUP2 SUB PUSH0 DUP4 ADD MSTORE PUSH2 0x25E5 DUP2 PUSH2 0x25AC JUMP JUMPDEST SWAP1 POP SWAP2 SWAP1 POP JUMP JUMPDEST PUSH0 PUSH1 0xA0 DUP3 ADD SWAP1 POP PUSH2 0x25FF PUSH0 DUP4 ADD DUP9 PUSH2 0x1F12 JUMP JUMPDEST PUSH2 0x260C PUSH1 0x20 DUP4 ADD DUP8 PUSH2 0x1C91 JUMP JUMPDEST PUSH2 0x2619 PUSH1 0x40 DUP4 ADD DUP7 PUSH2 0x1C91 JUMP JUMPDEST PUSH2 0x2626 PUSH1 0x60 DUP4 ADD DUP6 PUSH2 0x1F12 JUMP JUMPDEST PUSH2 0x2633 PUSH1 0x80 DUP4 ADD DUP5 PUSH2 0x1F12 JUMP JUMPDEST SWAP7 SWAP6 POP POP POP POP POP POP JUMP JUMPDEST PUSH32 0x43616C6C6572206973206E6F7420746865206F776E6572000000000000000000 PUSH0 DUP3 ADD MSTORE POP JUMP JUMPDEST PUSH0 PUSH2 0x2671 PUSH1 0x17 DUP4 PUSH2 0x1DE6 JUMP JUMPDEST SWAP2 POP PUSH2 0x267C DUP3 PUSH2 0x263D JUMP JUMPDEST PUSH1 0x20 DUP3 ADD SWAP1 POP SWAP2 SWAP1 POP JUMP JUMPDEST PUSH0 PUSH1 0x20 DUP3 ADD SWAP1 POP DUP2 DUP2 SUB PUSH0 DUP4 ADD MSTORE PUSH2 0x269E DUP2 PUSH2 0x2665 JUMP JUMPDEST SWAP1 POP SWAP2 SWAP1 POP JUMP JUMPDEST PUSH32 0x5265656E7472616E637947756172643A207265656E7472616E742063616C6C00 PUSH0 DUP3 ADD MSTORE POP JUMP JUMPDEST PUSH0 PUSH2 0x26D9 PUSH1 0x1F DUP4 PUSH2 0x1DE6 JUMP JUMPDEST SWAP2 POP PUSH2 0x26E4 DUP3 PUSH2 0x26A5 JUMP JUMPDEST PUSH1 0x20 DUP3 ADD SWAP1 POP SWAP2 SWAP1 POP JUMP JUMPDEST PUSH0 PUSH1 0x20 DUP3 ADD SWAP1 POP DUP2 DUP2 SUB PUSH0 DUP4 ADD MSTORE PUSH2 0x2706 DUP2 PUSH2 0x26CD JUMP JUMPDEST SWAP1 POP SWAP2 SWAP1 POP JUMP JUMPDEST PUSH32 0x457466526F757465723A20657466546F6B656E41646472657373206E6F742064 PUSH0 DUP3 ADD MSTORE PUSH32 0x65706C6F79656400000000000000000000000000000000000000000000000000 PUSH1 0x20 DUP3 ADD MSTORE POP JUMP JUMPDEST PUSH0 PUSH2 0x2767 PUSH1 0x27 DUP4 PUSH2 0x1DE6 JUMP JUMPDEST SWAP2 POP PUSH2 0x2772 DUP3 PUSH2 0x270D JUMP JUMPDEST PUSH1 0x40 DUP3 ADD SWAP1 POP SWAP2 SWAP1 POP JUMP JUMPDEST PUSH0 PUSH1 0x20 DUP3 ADD SWAP1 POP DUP2 DUP2 SUB PUSH0 DUP4 ADD MSTORE PUSH2 0x2794 DUP2 PUSH2 0x275B JUMP JUMPDEST SWAP1 POP SWAP2 SWAP1 POP JUMP JUMPDEST PUSH32 0x457466526F757465723A206574665661756C7441646472657373206E6F742064 PUSH0 DUP3 ADD MSTORE PUSH32 0x65706C6F79656400000000000000000000000000000000000000000000000000 PUSH1 0x20 DUP3 ADD MSTORE POP JUMP JUMPDEST PUSH0 PUSH2 0x27F5 PUSH1 0x27 DUP4 PUSH2 0x1DE6 JUMP JUMPDEST SWAP2 POP PUSH2 0x2800 DUP3 PUSH2 0x279B JUMP JUMPDEST PUSH1 0x40 DUP3 ADD SWAP1 POP SWAP2 SWAP1 POP JUMP JUMPDEST PUSH0 PUSH1 0x20 DUP3 ADD SWAP1 POP DUP2 DUP2 SUB PUSH0 DUP4 ADD MSTORE PUSH2 0x2822 DUP2 PUSH2 0x27E9 JUMP JUMPDEST SWAP1 POP SWAP2 SWAP1 POP JUMP JUMPDEST PUSH32 0x4E487B7100000000000000000000000000000000000000000000000000000000 PUSH0 MSTORE PUSH1 0x32 PUSH1 0x4 MSTORE PUSH1 0x24 PUSH0 REVERT JUMPDEST PUSH0 PUSH2 0x2860 DUP3 PUSH2 0x19F9 JUMP JUMPDEST SWAP2 POP PUSH2 0x286B DUP4 PUSH2 0x19F9 JUMP JUMPDEST SWAP3 POP DUP3 DUP3 MUL PUSH2 0x2879 DUP2 PUSH2 0x19F9 JUMP JUMPDEST SWAP2 POP DUP3 DUP3 DIV DUP5 EQ DUP4 ISZERO OR PUSH2 0x2890 JUMPI PUSH2 0x288F PUSH2 0x2372 JUMP JUMPDEST JUMPDEST POP SWAP3 SWAP2 POP POP JUMP JUMPDEST PUSH32 0x4E487B7100000000000000000000000000000000000000000000000000000000 PUSH0 MSTORE PUSH1 0x12 PUSH1 0x4 MSTORE PUSH1 0x24 PUSH0 REVERT JUMPDEST PUSH0 PUSH2 0x28CE DUP3 PUSH2 0x19F9 JUMP JUMPDEST SWAP2 POP PUSH2 0x28D9 DUP4 PUSH2 0x19F9 JUMP JUMPDEST SWAP3 POP DUP3 PUSH2 0x28E9 JUMPI PUSH2 0x28E8 PUSH2 0x2897 JUMP JUMPDEST JUMPDEST DUP3 DUP3 DIV SWAP1 POP SWAP3 SWAP2 POP POP JUMP JUMPDEST PUSH0 PUSH2 0x28FE DUP3 PUSH2 0x19F9 JUMP JUMPDEST SWAP2 POP PUSH32 0xFFFFFFFFFFFFFFFFFFFFFFFFFFFFFFFFFFFFFFFFFFFFFFFFFFFFFFFFFFFFFFFF DUP3 SUB PUSH2 0x2930 JUMPI PUSH2 0x292F PUSH2 0x2372 JUMP JUMPDEST JUMPDEST PUSH1 0x1 DUP3 ADD SWAP1 POP SWAP2 SWAP1 POP JUMP JUMPDEST PUSH32 0x457466526F757465723A206E6F7468696E6720746F2077697468647261770000 PUSH0 DUP3 ADD MSTORE POP JUMP JUMPDEST PUSH0 PUSH2 0x296F PUSH1 0x1E DUP4 PUSH2 0x1DE6 JUMP JUMPDEST SWAP2 POP PUSH2 0x297A DUP3 PUSH2 0x293B JUMP JUMPDEST PUSH1 0x20 DUP3 ADD SWAP1 POP SWAP2 SWAP1 POP JUMP JUMPDEST PUSH0 PUSH1 0x20 DUP3 ADD SWAP1 POP DUP2 DUP2 SUB PUSH0 DUP4 ADD MSTORE PUSH2 0x299C DUP2 PUSH2 0x2963 JUMP JUMPDEST SWAP1 POP SWAP2 SWAP1 POP JUMP JUMPDEST PUSH0 PUSH1 0x60 DUP3 ADD SWAP1 POP PUSH2 0x29B6 PUSH0 DUP4 ADD DUP7 PUSH2 0x1C91 JUMP JUMPDEST PUSH2 0x29C3 PUSH1 0x20 DUP4 ADD DUP6 PUSH2 0x1F12 JUMP JUMPDEST PUSH2 0x29D0 PUSH1 0x40 DUP4 ADD DUP5 PUSH2 0x1C91 JUMP JUMPDEST SWAP5 SWAP4 POP POP POP POP JUMP JUMPDEST PUSH0 DUP2 MLOAD SWAP1 POP SWAP2 SWAP1 POP JUMP JUMPDEST PUSH0 DUP3 DUP3 MSTORE PUSH1 0x20 DUP3 ADD SWAP1 POP SWAP3 SWAP2 POP POP JUMP JUMPDEST PUSH0 DUP2 SWAP1 POP PUSH1 0x20 DUP3 ADD SWAP1 POP SWAP2 SWAP1 POP JUMP JUMPDEST PUSH2 0x2A0A DUP2 PUSH2 0x1C80 JUMP JUMPDEST DUP3 MSTORE POP POP JUMP JUMPDEST PUSH2 0x2A19 DUP2 PUSH2 0x19F9 JUMP JUMPDEST DUP3 MSTORE POP POP JUMP JUMPDEST PUSH1 0x40 DUP3 ADD PUSH0 DUP3 ADD MLOAD PUSH2 0x2A33 PUSH0 DUP6 ADD DUP3 PUSH2 0x2A01 JUMP JUMPDEST POP PUSH1 0x20 DUP3 ADD MLOAD PUSH2 0x2A46 PUSH1 0x20 DUP6 ADD DUP3 PUSH2 0x2A10 JUMP JUMPDEST POP POP POP POP JUMP JUMPDEST PUSH0 PUSH2 0x2A57 DUP4 DUP4 PUSH2 0x2A1F JUMP JUMPDEST PUSH1 0x40 DUP4 ADD SWAP1 POP SWAP3 SWAP2 POP POP JUMP JUMPDEST PUSH0 PUSH1 0x20 DUP3 ADD SWAP1 POP SWAP2 SWAP1 POP JUMP JUMPDEST PUSH0 PUSH2 0x2A79 DUP3 PUSH2 0x29D8 JUMP JUMPDEST PUSH2 0x2A83 DUP2 DUP6 PUSH2 0x29E2 JUMP JUMPDEST SWAP4 POP PUSH2 0x2A8E DUP4 PUSH2 0x29F2 JUMP JUMPDEST DUP1 PUSH0 JUMPDEST DUP4 DUP2 LT ISZERO PUSH2 0x2ABE JUMPI DUP2 MLOAD PUSH2 0x2AA5 DUP9 DUP3 PUSH2 0x2A4C JUMP JUMPDEST SWAP8 POP PUSH2 0x2AB0 DUP4 PUSH2 0x2A63 JUMP JUMPDEST SWAP3 POP POP PUSH1 0x1 DUP2 ADD SWAP1 POP PUSH2 0x2A91 JUMP JUMPDEST POP DUP6 SWAP4 POP POP POP POP SWAP3 SWAP2 POP POP JUMP JUMPDEST PUSH0 DUP2 MLOAD SWAP1 POP SWAP2 SWAP1 POP JUMP JUMPDEST PUSH0 DUP3 DUP3 MSTORE PUSH1 0x20 DUP3 ADD SWAP1 POP SWAP3 SWAP2 POP POP JUMP JUMPDEST PUSH0 DUP2 SWAP1 POP PUSH1 0x20 DUP3 ADD SWAP1 POP SWAP2 SWAP1 POP JUMP JUMPDEST PUSH2 0x2AFD DUP2 PUSH2 0x2001 JUMP JUMPDEST DUP3 MSTORE POP POP JUMP JUMPDEST PUSH1 0x40 DUP3 ADD PUSH0 DUP3 ADD MLOAD PUSH2 0x2B17 PUSH0 DUP6 ADD DUP3 PUSH2 0x2A01 JUMP JUMPDEST POP PUSH1 0x20 DUP3 ADD MLOAD PUSH2 0x2B2A PUSH1 0x20 DUP6 ADD DUP3 PUSH2 0x2AF4 JUMP JUMPDEST POP POP POP POP JUMP JUMPDEST PUSH0 PUSH2 0x2B3B DUP4 DUP4 PUSH2 0x2B03 JUMP JUMPDEST PUSH1 0x40 DUP4 ADD SWAP1 POP SWAP3 SWAP2 POP POP JUMP JUMPDEST PUSH0 PUSH1 0x20 DUP3 ADD SWAP1 POP SWAP2 SWAP1 POP JUMP JUMPDEST PUSH0 PUSH2 0x2B5D DUP3 PUSH2 0x2ACB JUMP JUMPDEST PUSH2 0x2B67 DUP2 DUP6 PUSH2 0x2AD5 JUMP JUMPDEST SWAP4 POP PUSH2 0x2B72 DUP4 PUSH2 0x2AE5 JUMP JUMPDEST DUP1 PUSH0 JUMPDEST DUP4 DUP2 LT ISZERO PUSH2 0x2BA2 JUMPI DUP2 MLOAD PUSH2 0x2B89 DUP9 DUP3 PUSH2 0x2B30 JUMP JUMPDEST SWAP8 POP PUSH2 0x2B94 DUP4 PUSH2 0x2B47 JUMP JUMPDEST SWAP3 POP POP PUSH1 0x1 DUP2 ADD SWAP1 POP PUSH2 0x2B75 JUMP JUMPDEST POP DUP6 SWAP4 POP POP POP POP SWAP3 SWAP2 POP POP JUMP JUMPDEST PUSH0 DUP2 MLOAD SWAP1 POP SWAP2 SWAP1 POP JUMP JUMPDEST PUSH0 DUP3 DUP3 MSTORE PUSH1 0x20 DUP3 ADD SWAP1 POP SWAP3 SWAP2 POP POP JUMP JUMPDEST PUSH0 DUP2 SWAP1 POP PUSH1 0x20 DUP3 ADD SWAP1 POP SWAP2 SWAP1 POP JUMP JUMPDEST PUSH1 0x40 DUP3 ADD PUSH0 DUP3 ADD MLOAD PUSH2 0x2BEC PUSH0 DUP6 ADD DUP3 PUSH2 0x2A01 JUMP JUMPDEST POP PUSH1 0x20 DUP3 ADD MLOAD PUSH2 0x2BFF PUSH1 0x20 DUP6 ADD DUP3 PUSH2 0x2AF4 JUMP JUMPDEST POP POP POP POP JUMP JUMPDEST PUSH0 PUSH2 0x2C10 DUP4 DUP4 PUSH2 0x2BD8 JUMP JUMPDEST PUSH1 0x40 DUP4 ADD SWAP1 POP SWAP3 SWAP2 POP POP JUMP JUMPDEST PUSH0 PUSH1 0x20 DUP3 ADD SWAP1 POP SWAP2 SWAP1 POP JUMP JUMPDEST PUSH0 PUSH2 0x2C32 DUP3 PUSH2 0x2BAF JUMP JUMPDEST PUSH2 0x2C3C DUP2 DUP6 PUSH2 0x2BB9 JUMP JUMPDEST SWAP4 POP PUSH2 0x2C47 DUP4 PUSH2 0x2BC9 JUMP JUMPDEST DUP1 PUSH0 JUMPDEST DUP4 DUP2 LT ISZERO PUSH2 0x2C77 JUMPI DUP2 MLOAD PUSH2 0x2C5E DUP9 DUP3 PUSH2 0x2C05 JUMP JUMPDEST SWAP8 POP PUSH2 0x2C69 DUP4 PUSH2 0x2C1C JUMP JUMPDEST SWAP3 POP POP PUSH1 0x1 DUP2 ADD SWAP1 POP PUSH2 0x2C4A JUMP JUMPDEST POP DUP6 SWAP4 POP POP POP POP SWAP3 SWAP2 POP POP JUMP JUMPDEST PUSH0 PUSH1 0xC0 DUP3 ADD SWAP1 POP DUP2 DUP2 SUB PUSH0 DUP4 ADD MSTORE PUSH2 0x2C9C DUP2 DUP10 PUSH2 0x2A6F JUMP JUMPDEST SWAP1 POP DUP2 DUP2 SUB PUSH1 0x20 DUP4 ADD MSTORE PUSH2 0x2CB0 DUP2 DUP9 PUSH2 0x2B53 JUMP JUMPDEST SWAP1 POP PUSH2 0x2CBF PUSH1 0x40 DUP4 ADD DUP8 PUSH2 0x1C91 JUMP JUMPDEST PUSH2 0x2CCC PUSH1 0x60 DUP4 ADD DUP7 PUSH2 0x1F12 JUMP JUMPDEST PUSH2 0x2CD9 PUSH1 0x80 DUP4 ADD DUP6 PUSH2 0x1F12 JUMP JUMPDEST DUP2 DUP2 SUB PUSH1 0xA0 DUP4 ADD MSTORE PUSH2 0x2CEB DUP2 DUP5 PUSH2 0x2C28 JUMP JUMPDEST SWAP1 POP SWAP8 SWAP7 POP POP POP POP POP POP POP JUMP JUMPDEST PUSH32 0x457466526F757465723A20696E646578207072696365206973207A65726F0000 PUSH0 DUP3 ADD MSTORE POP JUMP JUMPDEST PUSH0 PUSH2 0x2D2C PUSH1 0x1E DUP4 PUSH2 0x1DE6 JUMP JUMPDEST SWAP2 POP PUSH2 0x2D37 DUP3 PUSH2 0x2CF8 JUMP JUMPDEST PUSH1 0x20 DUP3 ADD SWAP1 POP SWAP2 SWAP1 POP JUMP JUMPDEST PUSH0 PUSH1 0x20 DUP3 ADD SWAP1 POP DUP2 DUP2 SUB PUSH0 DUP4 ADD MSTORE PUSH2 0x2D59 DUP2 PUSH2 0x2D20 JUMP JUMPDEST SWAP1 POP SWAP2 SWAP1 POP JUMP JUMPDEST PUSH32 0x457466526F757465723A204E4156206973207A65726F00000000000000000000 PUSH0 DUP3 ADD MSTORE POP JUMP JUMPDEST PUSH0 PUSH2 0x2D94 PUSH1 0x16 DUP4 PUSH2 0x1DE6 JUMP JUMPDEST SWAP2 POP PUSH2 0x2D9F DUP3 PUSH2 0x2D60 JUMP JUMPDEST PUSH1 0x20 DUP3 ADD SWAP1 POP SWAP2 SWAP1 POP JUMP JUMPDEST PUSH0 PUSH1 0x20 DUP3 ADD SWAP1 POP DUP2 DUP2 SUB PUSH0 DUP4 ADD MSTORE PUSH2 0x2DC1 DUP2 PUSH2 0x2D88 JUMP JUMPDEST SWAP1 POP SWAP2 SWAP1 POP JUMP JUMPDEST PUSH32 0x4469726563746F72792063616E6E6F74206265207A65726F2061646472657373 PUSH0 DUP3 ADD MSTORE POP JUMP JUMPDEST PUSH0 PUSH2 0x2DFC PUSH1 0x20 DUP4 PUSH2 0x1DE6 JUMP JUMPDEST SWAP2 POP PUSH2 0x2E07 DUP3 PUSH2 0x2DC8 JUMP JUMPDEST PUSH1 0x20 DUP3 ADD SWAP1 POP SWAP2 SWAP1 POP JUMP JUMPDEST PUSH0 PUSH1 0x20 DUP3 ADD SWAP1 POP DUP2 DUP2 SUB PUSH0 DUP4 ADD MSTORE PUSH2 0x2E29 DUP2 PUSH2 0x2DF0 JUMP JUMPDEST SWAP1 POP SWAP2 SWAP1 POP JUMP JUMPDEST PUSH32 0x4469726563746F7279206D757374206265206120636F6E747261637400000000 PUSH0 DUP3 ADD MSTORE POP JUMP JUMPDEST PUSH0 PUSH2 0x2E64 PUSH1 0x1C DUP4 PUSH2 0x1DE6 JUMP JUMPDEST SWAP2 POP PUSH2 0x2E6F DUP3 PUSH2 0x2E30 JUMP JUMPDEST PUSH1 0x20 DUP3 ADD SWAP1 POP SWAP2 SWAP1 POP JUMP JUMPDEST PUSH0 PUSH1 0x20 DUP3 ADD SWAP1 POP DUP2 DUP2 SUB PUSH0 DUP4 ADD MSTORE PUSH2 0x2E91 DUP2 PUSH2 0x2E58 JUMP JUMPDEST SWAP1 POP SWAP2 SWAP1 POP JUMP JUMPDEST PUSH32 0x4469726563746F7279206164647265737320646F6573206E6F7420696D706C65 PUSH0 DUP3 ADD MSTORE PUSH32 0x6D656E74206F776E657228290000000000000000000000000000000000000000 PUSH1 0x20 DUP3 ADD MSTORE POP JUMP JUMPDEST PUSH0 PUSH2 0x2EF2 PUSH1 0x2C DUP4 PUSH2 0x1DE6 JUMP JUMPDEST SWAP2 POP PUSH2 0x2EFD DUP3 PUSH2 0x2E98 JUMP JUMPDEST PUSH1 0x40 DUP3 ADD SWAP1 POP SWAP2 SWAP1 POP JUMP JUMPDEST PUSH0 PUSH1 0x20 DUP3 ADD SWAP1 POP DUP2 DUP2 SUB PUSH0 DUP4 ADD MSTORE PUSH2 0x2F1F DUP2 PUSH2 0x2EE6 JUMP JUMPDEST SWAP1 POP SWAP2 SWAP1 POP JUMP JUMPDEST PUSH0 PUSH1 0x40 DUP3 ADD SWAP1 POP PUSH2 0x2F39 PUSH0 DUP4 ADD DUP6 PUSH2 0x1C91 JUMP JUMPDEST PUSH2 0x2F46 PUSH1 0x20 DUP4 ADD DUP5 PUSH2 0x1C91 JUMP JUMPDEST SWAP4 SWAP3 POP POP POP JUMP JUMPDEST PUSH0 DUP2 SWAP1 POP SWAP2 SWAP1 POP JUMP JUMPDEST PUSH0 PUSH2 0x2F70 PUSH2 0x2F6B PUSH2 0x2F66 DUP5 PUSH2 0x2F4D JUMP JUMPDEST PUSH2 0x1CB9 JUMP JUMPDEST PUSH2 0x19F9 JUMP JUMPDEST SWAP1 POP SWAP2 SWAP1 POP JUMP JUMPDEST PUSH2 0x2F80 DUP2 PUSH2 0x2F56 JUMP JUMPDEST DUP3 MSTORE POP POP JUMP JUMPDEST PUSH0 PUSH1 0x40 DUP3 ADD SWAP1 POP PUSH2 0x2F99 PUSH0 DUP4 ADD DUP6 PUSH2 0x1C91 JUMP JUMPDEST PUSH2 0x2FA6 PUSH1 0x20 DUP4 ADD DUP5 PUSH2 0x2F77 JUMP JUMPDEST SWAP4 SWAP3 POP POP POP JUMP JUMPDEST PUSH0 DUP2 ISZERO ISZERO SWAP1 POP SWAP2 SWAP1 POP JUMP JUMPDEST PUSH2 0x2FC1 DUP2 PUSH2 0x2FAD JUMP JUMPDEST DUP2 EQ PUSH2 0x2FCB JUMPI PUSH0 PUSH0 REVERT JUMPDEST POP JUMP JUMPDEST PUSH0 DUP2 MLOAD SWAP1 POP PUSH2 0x2FDC DUP2 PUSH2 0x2FB8 JUMP JUMPDEST SWAP3 SWAP2 POP POP JUMP JUMPDEST PUSH0 PUSH1 0x20 DUP3 DUP5 SUB SLT ISZERO PUSH2 0x2FF7 JUMPI PUSH2 0x2FF6 PUSH2 0x19F1 JUMP JUMPDEST JUMPDEST PUSH0 PUSH2 0x3004 DUP5 DUP3 DUP6 ADD PUSH2 0x2FCE JUMP JUMPDEST SWAP2 POP POP SWAP3 SWAP2 POP POP JUMP INVALID LOG2 PUSH5 0x6970667358 0x22 SLT KECCAK256 MULMOD PUSH29 0xF149E5FA7E2597ED35CD9E1E7BC928A225FFAD5B862EA95D883A52FFD6 0xA7 PUSH5 0x736F6C6343 STOP ADDMOD 0x1E STOP CALLER "
				},
				"gasEstimates": {
					"creation": {
						"codeDepositCost": "2471000",
						"executionCost": "infinite",
						"totalCost": "infinite"
					},
					"external": {
						"Directory()": "infinite",
						"buy(uint256,address,uint256,uint256)": "infinite",
						"changeDirectoryAddress(address)": "infinite",
						"fetchFromDirectory(string)": "infinite",
						"owner()": "infinite",
						"sell(uint256,uint256,address,uint256,uint256)": "infinite"
					}
				},
				"methodIdentifiers": {
					"Directory()": "658a847a",
					"buy(uint256,address,uint256,uint256)": "706910ff",
					"changeDirectoryAddress(address)": "ba4c7be1",
					"fetchFromDirectory(string)": "27262618",
					"owner()": "8da5cb5b",
					"sell(uint256,uint256,address,uint256,uint256)": "16274921"
				}
			},
			"storageLayout": {
				"storage": [
					{
						"astId": 161,
						"contract": "hopium/etf/main/etf-router.sol:EtfRouter",
						"label": "Directory",
						"offset": 0,
						"slot": "0",
						"type": "t_contract(IDirectory)158"
					},
					{
						"astId": 10,
						"contract": "hopium/etf/main/etf-router.sol:EtfRouter",
						"label": "_status",
						"offset": 0,
						"slot": "1",
						"type": "t_uint256"
					}
				],
				"types": {
					"t_contract(IDirectory)158": {
						"encoding": "inplace",
						"label": "contract IDirectory",
						"numberOfBytes": "20"
					},
					"t_uint256": {
						"encoding": "inplace",
						"label": "uint256",
						"numberOfBytes": "32"
					}
				}
			},
			"userdoc": {
				"kind": "user",
				"methods": {},
				"version": 1
			}
		}
	}
}