{
	"hopium/common/directory.sol": {
		"Directory": {
			"abi": [
				{
					"inputs": [],
					"stateMutability": "nonpayable",
					"type": "constructor"
				},
				{
					"inputs": [
						{
							"internalType": "address",
							"name": "owner",
							"type": "address"
						}
					],
					"name": "OwnableInvalidOwner",
					"type": "error"
				},
				{
					"inputs": [
						{
							"internalType": "address",
							"name": "account",
							"type": "address"
						}
					],
					"name": "OwnableUnauthorizedAccount",
					"type": "error"
				},
				{
					"anonymous": false,
					"inputs": [
						{
							"indexed": true,
							"internalType": "address",
							"name": "previousOwner",
							"type": "address"
						},
						{
							"indexed": true,
							"internalType": "address",
							"name": "newOwner",
							"type": "address"
						}
					],
					"name": "OwnershipTransferred",
					"type": "event"
				},
				{
					"inputs": [
						{
							"internalType": "string",
							"name": "_key",
							"type": "string"
						}
					],
					"name": "fetchFromDirectory",
					"outputs": [
						{
							"internalType": "address",
							"name": "",
							"type": "address"
						}
					],
					"stateMutability": "view",
					"type": "function"
				},
				{
					"inputs": [],
					"name": "owner",
					"outputs": [
						{
							"internalType": "address",
							"name": "",
							"type": "address"
						}
					],
					"stateMutability": "view",
					"type": "function"
				},
				{
					"inputs": [],
					"name": "renounceOwnership",
					"outputs": [],
					"stateMutability": "nonpayable",
					"type": "function"
				},
				{
					"inputs": [
						{
							"internalType": "address",
							"name": "newOwner",
							"type": "address"
						}
					],
					"name": "transferOwnership",
					"outputs": [],
					"stateMutability": "nonpayable",
					"type": "function"
				},
				{
					"inputs": [
						{
							"components": [
								{
									"internalType": "string",
									"name": "key",
									"type": "string"
								},
								{
									"internalType": "address",
									"name": "value",
									"type": "address"
								}
							],
							"internalType": "struct Directory.KeyValue[]",
							"name": "_keyValue",
							"type": "tuple[]"
						}
					],
					"name": "updateDirectory",
					"outputs": [],
					"stateMutability": "nonpayable",
					"type": "function"
				}
			],
			"devdoc": {
				"errors": {
					"OwnableInvalidOwner(address)": [
						{
							"details": "The owner is not a valid owner account. (eg. `address(0)`)"
						}
					],
					"OwnableUnauthorizedAccount(address)": [
						{
							"details": "The caller account is not authorized to perform an operation."
						}
					]
				},
				"kind": "dev",
				"methods": {
					"owner()": {
						"details": "Returns the address of the current owner."
					},
					"renounceOwnership()": {
						"details": "Leaves the contract without owner. It will not be possible to call `onlyOwner` functions. Can only be called by the current owner. NOTE: Renouncing ownership will leave the contract without an owner, thereby disabling any functionality that is only available to the owner."
					},
					"transferOwnership(address)": {
						"details": "Transfers ownership of the contract to a new account (`newOwner`). Can only be called by the current owner."
					}
				},
				"version": 1
			},
			"evm": {
				"assembly": "    /* \"hopium/common/directory.sol\":111:640  contract Directory is Ownable {... */\n  mstore(0x40, 0x80)\n    /* \"hopium/common/directory.sol\":147:183  constructor() Ownable(msg.sender) {} */\n  callvalue\n  dup1\n  iszero\n  tag_1\n  jumpi\n  revert(0x00, 0x00)\ntag_1:\n  pop\n    /* \"hopium/common/directory.sol\":169:179  msg.sender */\n  caller\n    /* \"@openzeppelin/contracts/access/Ownable.sol\":1297:1298  0 */\n  0x00\n    /* \"@openzeppelin/contracts/access/Ownable.sol\":1273:1299  initialOwner == address(0) */\n  0xffffffffffffffffffffffffffffffffffffffff\n  and\n    /* \"@openzeppelin/contracts/access/Ownable.sol\":1273:1285  initialOwner */\n  dup2\n    /* \"@openzeppelin/contracts/access/Ownable.sol\":1273:1299  initialOwner == address(0) */\n  0xffffffffffffffffffffffffffffffffffffffff\n  and\n  sub\n    /* \"@openzeppelin/contracts/access/Ownable.sol\":1269:1364  if (initialOwner == address(0)) {... */\n  tag_5\n  jumpi\n    /* \"@openzeppelin/contracts/access/Ownable.sol\":1350:1351  0 */\n  0x00\n    /* \"@openzeppelin/contracts/access/Ownable.sol\":1322:1353  OwnableInvalidOwner(address(0)) */\n  mload(0x40)\n  0x1e4fbdf700000000000000000000000000000000000000000000000000000000\n  dup2\n  mstore\n  0x04\n  add\n  tag_6\n  swap2\n  swap1\n  tag_7\n  jump\t// in\ntag_6:\n  mload(0x40)\n  dup1\n  swap2\n  sub\n  swap1\n  revert\n    /* \"@openzeppelin/contracts/access/Ownable.sol\":1269:1364  if (initialOwner == address(0)) {... */\ntag_5:\n    /* \"@openzeppelin/contracts/access/Ownable.sol\":1373:1405  _transferOwnership(initialOwner) */\n  tag_8\n    /* \"@openzeppelin/contracts/access/Ownable.sol\":1392:1404  initialOwner */\n  dup2\n    /* \"@openzeppelin/contracts/access/Ownable.sol\":1373:1391  _transferOwnership */\n  shl(0x20, tag_9)\n    /* \"@openzeppelin/contracts/access/Ownable.sol\":1373:1405  _transferOwnership(initialOwner) */\n  0x20\n  shr\n  jump\t// in\ntag_8:\n    /* \"@openzeppelin/contracts/access/Ownable.sol\":1225:1412  constructor(address initialOwner) {... */\n  pop\n    /* \"hopium/common/directory.sol\":111:640  contract Directory is Ownable {... */\n  jump(tag_11)\n    /* \"@openzeppelin/contracts/access/Ownable.sol\":2912:3099  function _transferOwnership(address newOwner) internal virtual {... */\ntag_9:\n    /* \"@openzeppelin/contracts/access/Ownable.sol\":2985:3001  address oldOwner */\n  0x00\n    /* \"@openzeppelin/contracts/access/Ownable.sol\":3004:3010  _owner */\n  0x00\n  0x00\n  swap1\n  sload\n  swap1\n  0x0100\n  exp\n  swap1\n  div\n  0xffffffffffffffffffffffffffffffffffffffff\n  and\n    /* \"@openzeppelin/contracts/access/Ownable.sol\":2985:3010  address oldOwner = _owner */\n  swap1\n  pop\n    /* \"@openzeppelin/contracts/access/Ownable.sol\":3029:3037  newOwner */\n  dup2\n    /* \"@openzeppelin/contracts/access/Ownable.sol\":3020:3026  _owner */\n  0x00\n  0x00\n    /* \"@openzeppelin/contracts/access/Ownable.sol\":3020:3037  _owner = newOwner */\n  0x0100\n  exp\n  dup2\n  sload\n  dup2\n  0xffffffffffffffffffffffffffffffffffffffff\n  mul\n  not\n  and\n  swap1\n  dup4\n  0xffffffffffffffffffffffffffffffffffffffff\n  and\n  mul\n  or\n  swap1\n  sstore\n  pop\n    /* \"@openzeppelin/contracts/access/Ownable.sol\":3083:3091  newOwner */\n  dup2\n    /* \"@openzeppelin/contracts/access/Ownable.sol\":3052:3092  OwnershipTransferred(oldOwner, newOwner) */\n  0xffffffffffffffffffffffffffffffffffffffff\n  and\n    /* \"@openzeppelin/contracts/access/Ownable.sol\":3073:3081  oldOwner */\n  dup2\n    /* \"@openzeppelin/contracts/access/Ownable.sol\":3052:3092  OwnershipTransferred(oldOwner, newOwner) */\n  0xffffffffffffffffffffffffffffffffffffffff\n  and\n  0x8be0079c531659141344cd1fd0a4f28419497f9722a3daafe3b4186f6b6457e0\n  mload(0x40)\n  mload(0x40)\n  dup1\n  swap2\n  sub\n  swap1\n  log3\n    /* \"@openzeppelin/contracts/access/Ownable.sol\":2975:3099  {... */\n  pop\n    /* \"@openzeppelin/contracts/access/Ownable.sol\":2912:3099  function _transferOwnership(address newOwner) internal virtual {... */\n  pop\n  jump\t// out\n    /* \"#utility.yul\":7:133   */\ntag_13:\n    /* \"#utility.yul\":44:51   */\n  0x00\n    /* \"#utility.yul\":84:126   */\n  0xffffffffffffffffffffffffffffffffffffffff\n    /* \"#utility.yul\":77:82   */\n  dup3\n    /* \"#utility.yul\":73:127   */\n  and\n    /* \"#utility.yul\":62:127   */\n  swap1\n  pop\n    /* \"#utility.yul\":7:133   */\n  swap2\n  swap1\n  pop\n  jump\t// out\n    /* \"#utility.yul\":139:235   */\ntag_14:\n    /* \"#utility.yul\":176:183   */\n  0x00\n    /* \"#utility.yul\":205:229   */\n  tag_19\n    /* \"#utility.yul\":223:228   */\n  dup3\n    /* \"#utility.yul\":205:229   */\n  tag_13\n  jump\t// in\ntag_19:\n    /* \"#utility.yul\":194:229   */\n  swap1\n  pop\n    /* \"#utility.yul\":139:235   */\n  swap2\n  swap1\n  pop\n  jump\t// out\n    /* \"#utility.yul\":241:359   */\ntag_15:\n    /* \"#utility.yul\":328:352   */\n  tag_21\n    /* \"#utility.yul\":346:351   */\n  dup2\n    /* \"#utility.yul\":328:352   */\n  tag_14\n  jump\t// in\ntag_21:\n    /* \"#utility.yul\":323:326   */\n  dup3\n    /* \"#utility.yul\":316:353   */\n  mstore\n    /* \"#utility.yul\":241:359   */\n  pop\n  pop\n  jump\t// out\n    /* \"#utility.yul\":365:587   */\ntag_7:\n    /* \"#utility.yul\":458:462   */\n  0x00\n    /* \"#utility.yul\":496:498   */\n  0x20\n    /* \"#utility.yul\":485:494   */\n  dup3\n    /* \"#utility.yul\":481:499   */\n  add\n    /* \"#utility.yul\":473:499   */\n  swap1\n  pop\n    /* \"#utility.yul\":509:580   */\n  tag_23\n    /* \"#utility.yul\":577:578   */\n  0x00\n    /* \"#utility.yul\":566:575   */\n  dup4\n    /* \"#utility.yul\":562:579   */\n  add\n    /* \"#utility.yul\":553:559   */\n  dup5\n    /* \"#utility.yul\":509:580   */\n  tag_15\n  jump\t// in\ntag_23:\n    /* \"#utility.yul\":365:587   */\n  swap3\n  swap2\n  pop\n  pop\n  jump\t// out\n    /* \"hopium/common/directory.sol\":111:640  contract Directory is Ownable {... */\ntag_11:\n  dataSize(sub_0)\n  dup1\n  dataOffset(sub_0)\n  0x00\n  codecopy\n  0x00\n  return\nstop\n\nsub_0: assembly {\n        /* \"hopium/common/directory.sol\":111:640  contract Directory is Ownable {... */\n      mstore(0x40, 0x80)\n      callvalue\n      dup1\n      iszero\n      tag_1\n      jumpi\n      revert(0x00, 0x00)\n    tag_1:\n      pop\n      jumpi(tag_2, lt(calldatasize, 0x04))\n      shr(0xe0, calldataload(0x00))\n      dup1\n      0x27262618\n      eq\n      tag_3\n      jumpi\n      dup1\n      0x333bbc2a\n      eq\n      tag_4\n      jumpi\n      dup1\n      0x715018a6\n      eq\n      tag_5\n      jumpi\n      dup1\n      0x8da5cb5b\n      eq\n      tag_6\n      jumpi\n      dup1\n      0xf2fde38b\n      eq\n      tag_7\n      jumpi\n    tag_2:\n      revert(0x00, 0x00)\n        /* \"hopium/common/directory.sol\":521:638  function fetchFromDirectory(string memory _key) public view returns (address) {... */\n    tag_3:\n      tag_8\n      0x04\n      dup1\n      calldatasize\n      sub\n      dup2\n      add\n      swap1\n      tag_9\n      swap2\n      swap1\n      tag_10\n      jump\t// in\n    tag_9:\n      tag_11\n      jump\t// in\n    tag_8:\n      mload(0x40)\n      tag_12\n      swap2\n      swap1\n      tag_13\n      jump\t// in\n    tag_12:\n      mload(0x40)\n      dup1\n      swap2\n      sub\n      swap1\n      return\n        /* \"hopium/common/directory.sol\":304:515  function updateDirectory(KeyValue[] memory _keyValue) public onlyOwner {... */\n    tag_4:\n      tag_14\n      0x04\n      dup1\n      calldatasize\n      sub\n      dup2\n      add\n      swap1\n      tag_15\n      swap2\n      swap1\n      tag_16\n      jump\t// in\n    tag_15:\n      tag_17\n      jump\t// in\n    tag_14:\n      stop\n        /* \"@openzeppelin/contracts/access/Ownable.sol\":2293:2394  function renounceOwnership() public virtual onlyOwner {... */\n    tag_5:\n      tag_18\n      tag_19\n      jump\t// in\n    tag_18:\n      stop\n        /* \"@openzeppelin/contracts/access/Ownable.sol\":1638:1723  function owner() public view virtual returns (address) {... */\n    tag_6:\n      tag_20\n      tag_21\n      jump\t// in\n    tag_20:\n      mload(0x40)\n      tag_22\n      swap2\n      swap1\n      tag_13\n      jump\t// in\n    tag_22:\n      mload(0x40)\n      dup1\n      swap2\n      sub\n      swap1\n      return\n        /* \"@openzeppelin/contracts/access/Ownable.sol\":2543:2758  function transferOwnership(address newOwner) public virtual onlyOwner {... */\n    tag_7:\n      tag_23\n      0x04\n      dup1\n      calldatasize\n      sub\n      dup2\n      add\n      swap1\n      tag_24\n      swap2\n      swap1\n      tag_25\n      jump\t// in\n    tag_24:\n      tag_26\n      jump\t// in\n    tag_23:\n      stop\n        /* \"hopium/common/directory.sol\":521:638  function fetchFromDirectory(string memory _key) public view returns (address) {... */\n    tag_11:\n        /* \"hopium/common/directory.sol\":590:597  address */\n      0x00\n        /* \"hopium/common/directory.sol\":616:625  directory */\n      0x01\n        /* \"hopium/common/directory.sol\":626:630  _key */\n      dup3\n        /* \"hopium/common/directory.sol\":616:631  directory[_key] */\n      mload(0x40)\n      tag_28\n      swap2\n      swap1\n      tag_29\n      jump\t// in\n    tag_28:\n      swap1\n      dup2\n      mstore\n      0x20\n      add\n      mload(0x40)\n      dup1\n      swap2\n      sub\n      swap1\n      keccak256\n      0x00\n      swap1\n      sload\n      swap1\n      0x0100\n      exp\n      swap1\n      div\n      0xffffffffffffffffffffffffffffffffffffffff\n      and\n        /* \"hopium/common/directory.sol\":609:631  return directory[_key] */\n      swap1\n      pop\n        /* \"hopium/common/directory.sol\":521:638  function fetchFromDirectory(string memory _key) public view returns (address) {... */\n      swap2\n      swap1\n      pop\n      jump\t// out\n        /* \"hopium/common/directory.sol\":304:515  function updateDirectory(KeyValue[] memory _keyValue) public onlyOwner {... */\n    tag_17:\n        /* \"@openzeppelin/contracts/access/Ownable.sol\":1531:1544  _checkOwner() */\n      tag_31\n        /* \"@openzeppelin/contracts/access/Ownable.sol\":1531:1542  _checkOwner */\n      tag_32\n        /* \"@openzeppelin/contracts/access/Ownable.sol\":1531:1544  _checkOwner() */\n      jump\t// in\n    tag_31:\n        /* \"hopium/common/directory.sol\":390:399  uint256 i */\n      0x00\n        /* \"hopium/common/directory.sol\":402:403  0 */\n      0x00\n        /* \"hopium/common/directory.sol\":390:403  uint256 i = 0 */\n      swap1\n      pop\n        /* \"hopium/common/directory.sol\":385:509  for (uint256 i = 0; i < _keyValue.length; i++) {... */\n    tag_34:\n        /* \"hopium/common/directory.sol\":409:418  _keyValue */\n      dup2\n        /* \"hopium/common/directory.sol\":409:425  _keyValue.length */\n      mload\n        /* \"hopium/common/directory.sol\":405:406  i */\n      dup2\n        /* \"hopium/common/directory.sol\":405:425  i < _keyValue.length */\n      lt\n        /* \"hopium/common/directory.sol\":385:509  for (uint256 i = 0; i < _keyValue.length; i++) {... */\n      iszero\n      tag_35\n      jumpi\n        /* \"hopium/common/directory.sol\":480:489  _keyValue */\n      dup2\n        /* \"hopium/common/directory.sol\":490:491  i */\n      dup2\n        /* \"hopium/common/directory.sol\":480:492  _keyValue[i] */\n      dup2\n      mload\n      dup2\n      lt\n      tag_37\n      jumpi\n      tag_38\n      tag_39\n      jump\t// in\n    tag_38:\n    tag_37:\n      0x20\n      mul\n      0x20\n      add\n      add\n      mload\n        /* \"hopium/common/directory.sol\":480:498  _keyValue[i].value */\n      0x20\n      add\n      mload\n        /* \"hopium/common/directory.sol\":450:459  directory */\n      0x01\n        /* \"hopium/common/directory.sol\":460:469  _keyValue */\n      dup4\n        /* \"hopium/common/directory.sol\":470:471  i */\n      dup4\n        /* \"hopium/common/directory.sol\":460:472  _keyValue[i] */\n      dup2\n      mload\n      dup2\n      lt\n      tag_40\n      jumpi\n      tag_41\n      tag_39\n      jump\t// in\n    tag_41:\n    tag_40:\n      0x20\n      mul\n      0x20\n      add\n      add\n      mload\n        /* \"hopium/common/directory.sol\":460:476  _keyValue[i].key */\n      0x00\n      add\n      mload\n        /* \"hopium/common/directory.sol\":450:477  directory[_keyValue[i].key] */\n      mload(0x40)\n      tag_42\n      swap2\n      swap1\n      tag_29\n      jump\t// in\n    tag_42:\n      swap1\n      dup2\n      mstore\n      0x20\n      add\n      mload(0x40)\n      dup1\n      swap2\n      sub\n      swap1\n      keccak256\n      0x00\n        /* \"hopium/common/directory.sol\":450:498  directory[_keyValue[i].key] = _keyValue[i].value */\n      0x0100\n      exp\n      dup2\n      sload\n      dup2\n      0xffffffffffffffffffffffffffffffffffffffff\n      mul\n      not\n      and\n      swap1\n      dup4\n      0xffffffffffffffffffffffffffffffffffffffff\n      and\n      mul\n      or\n      swap1\n      sstore\n      pop\n        /* \"hopium/common/directory.sol\":427:430  i++ */\n      dup1\n      dup1\n      0x01\n      add\n      swap2\n      pop\n      pop\n        /* \"hopium/common/directory.sol\":385:509  for (uint256 i = 0; i < _keyValue.length; i++) {... */\n      jump(tag_34)\n    tag_35:\n      pop\n        /* \"hopium/common/directory.sol\":304:515  function updateDirectory(KeyValue[] memory _keyValue) public onlyOwner {... */\n      pop\n      jump\t// out\n        /* \"@openzeppelin/contracts/access/Ownable.sol\":2293:2394  function renounceOwnership() public virtual onlyOwner {... */\n    tag_19:\n        /* \"@openzeppelin/contracts/access/Ownable.sol\":1531:1544  _checkOwner() */\n      tag_44\n        /* \"@openzeppelin/contracts/access/Ownable.sol\":1531:1542  _checkOwner */\n      tag_32\n        /* \"@openzeppelin/contracts/access/Ownable.sol\":1531:1544  _checkOwner() */\n      jump\t// in\n    tag_44:\n        /* \"@openzeppelin/contracts/access/Ownable.sol\":2357:2387  _transferOwnership(address(0)) */\n      tag_46\n        /* \"@openzeppelin/contracts/access/Ownable.sol\":2384:2385  0 */\n      0x00\n        /* \"@openzeppelin/contracts/access/Ownable.sol\":2357:2375  _transferOwnership */\n      tag_47\n        /* \"@openzeppelin/contracts/access/Ownable.sol\":2357:2387  _transferOwnership(address(0)) */\n      jump\t// in\n    tag_46:\n        /* \"@openzeppelin/contracts/access/Ownable.sol\":2293:2394  function renounceOwnership() public virtual onlyOwner {... */\n      jump\t// out\n        /* \"@openzeppelin/contracts/access/Ownable.sol\":1638:1723  function owner() public view virtual returns (address) {... */\n    tag_21:\n        /* \"@openzeppelin/contracts/access/Ownable.sol\":1684:1691  address */\n      0x00\n        /* \"@openzeppelin/contracts/access/Ownable.sol\":1710:1716  _owner */\n      0x00\n      0x00\n      swap1\n      sload\n      swap1\n      0x0100\n      exp\n      swap1\n      div\n      0xffffffffffffffffffffffffffffffffffffffff\n      and\n        /* \"@openzeppelin/contracts/access/Ownable.sol\":1703:1716  return _owner */\n      swap1\n      pop\n        /* \"@openzeppelin/contracts/access/Ownable.sol\":1638:1723  function owner() public view virtual returns (address) {... */\n      swap1\n      jump\t// out\n        /* \"@openzeppelin/contracts/access/Ownable.sol\":2543:2758  function transferOwnership(address newOwner) public virtual onlyOwner {... */\n    tag_26:\n        /* \"@openzeppelin/contracts/access/Ownable.sol\":1531:1544  _checkOwner() */\n      tag_50\n        /* \"@openzeppelin/contracts/access/Ownable.sol\":1531:1542  _checkOwner */\n      tag_32\n        /* \"@openzeppelin/contracts/access/Ownable.sol\":1531:1544  _checkOwner() */\n      jump\t// in\n    tag_50:\n        /* \"@openzeppelin/contracts/access/Ownable.sol\":2647:2648  0 */\n      0x00\n        /* \"@openzeppelin/contracts/access/Ownable.sol\":2627:2649  newOwner == address(0) */\n      0xffffffffffffffffffffffffffffffffffffffff\n      and\n        /* \"@openzeppelin/contracts/access/Ownable.sol\":2627:2635  newOwner */\n      dup2\n        /* \"@openzeppelin/contracts/access/Ownable.sol\":2627:2649  newOwner == address(0) */\n      0xffffffffffffffffffffffffffffffffffffffff\n      and\n      sub\n        /* \"@openzeppelin/contracts/access/Ownable.sol\":2623:2714  if (newOwner == address(0)) {... */\n      tag_52\n      jumpi\n        /* \"@openzeppelin/contracts/access/Ownable.sol\":2700:2701  0 */\n      0x00\n        /* \"@openzeppelin/contracts/access/Ownable.sol\":2672:2703  OwnableInvalidOwner(address(0)) */\n      mload(0x40)\n      0x1e4fbdf700000000000000000000000000000000000000000000000000000000\n      dup2\n      mstore\n      0x04\n      add\n      tag_53\n      swap2\n      swap1\n      tag_13\n      jump\t// in\n    tag_53:\n      mload(0x40)\n      dup1\n      swap2\n      sub\n      swap1\n      revert\n        /* \"@openzeppelin/contracts/access/Ownable.sol\":2623:2714  if (newOwner == address(0)) {... */\n    tag_52:\n        /* \"@openzeppelin/contracts/access/Ownable.sol\":2723:2751  _transferOwnership(newOwner) */\n      tag_54\n        /* \"@openzeppelin/contracts/access/Ownable.sol\":2742:2750  newOwner */\n      dup2\n        /* \"@openzeppelin/contracts/access/Ownable.sol\":2723:2741  _transferOwnership */\n      tag_47\n        /* \"@openzeppelin/contracts/access/Ownable.sol\":2723:2751  _transferOwnership(newOwner) */\n      jump\t// in\n    tag_54:\n        /* \"@openzeppelin/contracts/access/Ownable.sol\":2543:2758  function transferOwnership(address newOwner) public virtual onlyOwner {... */\n      pop\n      jump\t// out\n        /* \"@openzeppelin/contracts/access/Ownable.sol\":1796:1958  function _checkOwner() internal view virtual {... */\n    tag_32:\n        /* \"@openzeppelin/contracts/access/Ownable.sol\":1866:1878  _msgSender() */\n      tag_56\n        /* \"@openzeppelin/contracts/access/Ownable.sol\":1866:1876  _msgSender */\n      tag_57\n        /* \"@openzeppelin/contracts/access/Ownable.sol\":1866:1878  _msgSender() */\n      jump\t// in\n    tag_56:\n        /* \"@openzeppelin/contracts/access/Ownable.sol\":1855:1878  owner() != _msgSender() */\n      0xffffffffffffffffffffffffffffffffffffffff\n      and\n        /* \"@openzeppelin/contracts/access/Ownable.sol\":1855:1862  owner() */\n      tag_58\n        /* \"@openzeppelin/contracts/access/Ownable.sol\":1855:1860  owner */\n      tag_21\n        /* \"@openzeppelin/contracts/access/Ownable.sol\":1855:1862  owner() */\n      jump\t// in\n    tag_58:\n        /* \"@openzeppelin/contracts/access/Ownable.sol\":1855:1878  owner() != _msgSender() */\n      0xffffffffffffffffffffffffffffffffffffffff\n      and\n      eq\n        /* \"@openzeppelin/contracts/access/Ownable.sol\":1851:1952  if (owner() != _msgSender()) {... */\n      tag_59\n      jumpi\n        /* \"@openzeppelin/contracts/access/Ownable.sol\":1928:1940  _msgSender() */\n      tag_60\n        /* \"@openzeppelin/contracts/access/Ownable.sol\":1928:1938  _msgSender */\n      tag_57\n        /* \"@openzeppelin/contracts/access/Ownable.sol\":1928:1940  _msgSender() */\n      jump\t// in\n    tag_60:\n        /* \"@openzeppelin/contracts/access/Ownable.sol\":1901:1941  OwnableUnauthorizedAccount(_msgSender()) */\n      mload(0x40)\n      0x118cdaa700000000000000000000000000000000000000000000000000000000\n      dup2\n      mstore\n      0x04\n      add\n      tag_61\n      swap2\n      swap1\n      tag_13\n      jump\t// in\n    tag_61:\n      mload(0x40)\n      dup1\n      swap2\n      sub\n      swap1\n      revert\n        /* \"@openzeppelin/contracts/access/Ownable.sol\":1851:1952  if (owner() != _msgSender()) {... */\n    tag_59:\n        /* \"@openzeppelin/contracts/access/Ownable.sol\":1796:1958  function _checkOwner() internal view virtual {... */\n      jump\t// out\n        /* \"@openzeppelin/contracts/access/Ownable.sol\":2912:3099  function _transferOwnership(address newOwner) internal virtual {... */\n    tag_47:\n        /* \"@openzeppelin/contracts/access/Ownable.sol\":2985:3001  address oldOwner */\n      0x00\n        /* \"@openzeppelin/contracts/access/Ownable.sol\":3004:3010  _owner */\n      0x00\n      0x00\n      swap1\n      sload\n      swap1\n      0x0100\n      exp\n      swap1\n      div\n      0xffffffffffffffffffffffffffffffffffffffff\n      and\n        /* \"@openzeppelin/contracts/access/Ownable.sol\":2985:3010  address oldOwner = _owner */\n      swap1\n      pop\n        /* \"@openzeppelin/contracts/access/Ownable.sol\":3029:3037  newOwner */\n      dup2\n        /* \"@openzeppelin/contracts/access/Ownable.sol\":3020:3026  _owner */\n      0x00\n      0x00\n        /* \"@openzeppelin/contracts/access/Ownable.sol\":3020:3037  _owner = newOwner */\n      0x0100\n      exp\n      dup2\n      sload\n      dup2\n      0xffffffffffffffffffffffffffffffffffffffff\n      mul\n      not\n      and\n      swap1\n      dup4\n      0xffffffffffffffffffffffffffffffffffffffff\n      and\n      mul\n      or\n      swap1\n      sstore\n      pop\n        /* \"@openzeppelin/contracts/access/Ownable.sol\":3083:3091  newOwner */\n      dup2\n        /* \"@openzeppelin/contracts/access/Ownable.sol\":3052:3092  OwnershipTransferred(oldOwner, newOwner) */\n      0xffffffffffffffffffffffffffffffffffffffff\n      and\n        /* \"@openzeppelin/contracts/access/Ownable.sol\":3073:3081  oldOwner */\n      dup2\n        /* \"@openzeppelin/contracts/access/Ownable.sol\":3052:3092  OwnershipTransferred(oldOwner, newOwner) */\n      0xffffffffffffffffffffffffffffffffffffffff\n      and\n      0x8be0079c531659141344cd1fd0a4f28419497f9722a3daafe3b4186f6b6457e0\n      mload(0x40)\n      mload(0x40)\n      dup1\n      swap2\n      sub\n      swap1\n      log3\n        /* \"@openzeppelin/contracts/access/Ownable.sol\":2975:3099  {... */\n      pop\n        /* \"@openzeppelin/contracts/access/Ownable.sol\":2912:3099  function _transferOwnership(address newOwner) internal virtual {... */\n      pop\n      jump\t// out\n        /* \"@openzeppelin/contracts/utils/Context.sol\":656:752  function _msgSender() internal view virtual returns (address) {... */\n    tag_57:\n        /* \"@openzeppelin/contracts/utils/Context.sol\":709:716  address */\n      0x00\n        /* \"@openzeppelin/contracts/utils/Context.sol\":735:745  msg.sender */\n      caller\n        /* \"@openzeppelin/contracts/utils/Context.sol\":728:745  return msg.sender */\n      swap1\n      pop\n        /* \"@openzeppelin/contracts/utils/Context.sol\":656:752  function _msgSender() internal view virtual returns (address) {... */\n      swap1\n      jump\t// out\n        /* \"#utility.yul\":7:82   */\n    tag_64:\n        /* \"#utility.yul\":40:46   */\n      0x00\n        /* \"#utility.yul\":73:75   */\n      0x40\n        /* \"#utility.yul\":67:76   */\n      mload\n        /* \"#utility.yul\":57:76   */\n      swap1\n      pop\n        /* \"#utility.yul\":7:82   */\n      swap1\n      jump\t// out\n        /* \"#utility.yul\":88:205   */\n    tag_65:\n        /* \"#utility.yul\":197:198   */\n      0x00\n        /* \"#utility.yul\":194:195   */\n      0x00\n        /* \"#utility.yul\":187:199   */\n      revert\n        /* \"#utility.yul\":211:328   */\n    tag_66:\n        /* \"#utility.yul\":320:321   */\n      0x00\n        /* \"#utility.yul\":317:318   */\n      0x00\n        /* \"#utility.yul\":310:322   */\n      revert\n        /* \"#utility.yul\":334:451   */\n    tag_67:\n        /* \"#utility.yul\":443:444   */\n      0x00\n        /* \"#utility.yul\":440:441   */\n      0x00\n        /* \"#utility.yul\":433:445   */\n      revert\n        /* \"#utility.yul\":457:574   */\n    tag_68:\n        /* \"#utility.yul\":566:567   */\n      0x00\n        /* \"#utility.yul\":563:564   */\n      0x00\n        /* \"#utility.yul\":556:568   */\n      revert\n        /* \"#utility.yul\":580:682   */\n    tag_69:\n        /* \"#utility.yul\":621:627   */\n      0x00\n        /* \"#utility.yul\":672:674   */\n      0x1f\n        /* \"#utility.yul\":668:675   */\n      not\n        /* \"#utility.yul\":663:665   */\n      0x1f\n        /* \"#utility.yul\":656:661   */\n      dup4\n        /* \"#utility.yul\":652:666   */\n      add\n        /* \"#utility.yul\":648:676   */\n      and\n        /* \"#utility.yul\":638:676   */\n      swap1\n      pop\n        /* \"#utility.yul\":580:682   */\n      swap2\n      swap1\n      pop\n      jump\t// out\n        /* \"#utility.yul\":688:868   */\n    tag_70:\n        /* \"#utility.yul\":736:813   */\n      0x4e487b7100000000000000000000000000000000000000000000000000000000\n        /* \"#utility.yul\":733:734   */\n      0x00\n        /* \"#utility.yul\":726:814   */\n      mstore\n        /* \"#utility.yul\":833:837   */\n      0x41\n        /* \"#utility.yul\":830:831   */\n      0x04\n        /* \"#utility.yul\":823:838   */\n      mstore\n        /* \"#utility.yul\":857:861   */\n      0x24\n        /* \"#utility.yul\":854:855   */\n      0x00\n        /* \"#utility.yul\":847:862   */\n      revert\n        /* \"#utility.yul\":874:1155   */\n    tag_71:\n        /* \"#utility.yul\":957:984   */\n      tag_102\n        /* \"#utility.yul\":979:983   */\n      dup3\n        /* \"#utility.yul\":957:984   */\n      tag_69\n      jump\t// in\n    tag_102:\n        /* \"#utility.yul\":949:955   */\n      dup2\n        /* \"#utility.yul\":945:985   */\n      add\n        /* \"#utility.yul\":1087:1093   */\n      dup2\n        /* \"#utility.yul\":1075:1085   */\n      dup2\n        /* \"#utility.yul\":1072:1094   */\n      lt\n        /* \"#utility.yul\":1051:1069   */\n      0xffffffffffffffff\n        /* \"#utility.yul\":1039:1049   */\n      dup3\n        /* \"#utility.yul\":1036:1070   */\n      gt\n        /* \"#utility.yul\":1033:1095   */\n      or\n        /* \"#utility.yul\":1030:1118   */\n      iszero\n      tag_103\n      jumpi\n        /* \"#utility.yul\":1098:1116   */\n      tag_104\n      tag_70\n      jump\t// in\n    tag_104:\n        /* \"#utility.yul\":1030:1118   */\n    tag_103:\n        /* \"#utility.yul\":1138:1148   */\n      dup1\n        /* \"#utility.yul\":1134:1136   */\n      0x40\n        /* \"#utility.yul\":1127:1149   */\n      mstore\n        /* \"#utility.yul\":917:1155   */\n      pop\n        /* \"#utility.yul\":874:1155   */\n      pop\n      pop\n      jump\t// out\n        /* \"#utility.yul\":1161:1290   */\n    tag_72:\n        /* \"#utility.yul\":1195:1201   */\n      0x00\n        /* \"#utility.yul\":1222:1242   */\n      tag_106\n      tag_64\n      jump\t// in\n    tag_106:\n        /* \"#utility.yul\":1212:1242   */\n      swap1\n      pop\n        /* \"#utility.yul\":1251:1284   */\n      tag_107\n        /* \"#utility.yul\":1279:1283   */\n      dup3\n        /* \"#utility.yul\":1271:1277   */\n      dup3\n        /* \"#utility.yul\":1251:1284   */\n      tag_71\n      jump\t// in\n    tag_107:\n        /* \"#utility.yul\":1161:1290   */\n      swap2\n      swap1\n      pop\n      jump\t// out\n        /* \"#utility.yul\":1296:1604   */\n    tag_73:\n        /* \"#utility.yul\":1358:1362   */\n      0x00\n        /* \"#utility.yul\":1448:1466   */\n      0xffffffffffffffff\n        /* \"#utility.yul\":1440:1446   */\n      dup3\n        /* \"#utility.yul\":1437:1467   */\n      gt\n        /* \"#utility.yul\":1434:1490   */\n      iszero\n      tag_109\n      jumpi\n        /* \"#utility.yul\":1470:1488   */\n      tag_110\n      tag_70\n      jump\t// in\n    tag_110:\n        /* \"#utility.yul\":1434:1490   */\n    tag_109:\n        /* \"#utility.yul\":1508:1537   */\n      tag_111\n        /* \"#utility.yul\":1530:1536   */\n      dup3\n        /* \"#utility.yul\":1508:1537   */\n      tag_69\n      jump\t// in\n    tag_111:\n        /* \"#utility.yul\":1500:1537   */\n      swap1\n      pop\n        /* \"#utility.yul\":1592:1596   */\n      0x20\n        /* \"#utility.yul\":1586:1590   */\n      dup2\n        /* \"#utility.yul\":1582:1597   */\n      add\n        /* \"#utility.yul\":1574:1597   */\n      swap1\n      pop\n        /* \"#utility.yul\":1296:1604   */\n      swap2\n      swap1\n      pop\n      jump\t// out\n        /* \"#utility.yul\":1610:1758   */\n    tag_74:\n        /* \"#utility.yul\":1708:1714   */\n      dup3\n        /* \"#utility.yul\":1703:1706   */\n      dup2\n        /* \"#utility.yul\":1698:1701   */\n      dup4\n        /* \"#utility.yul\":1685:1715   */\n      calldatacopy\n        /* \"#utility.yul\":1749:1750   */\n      0x00\n        /* \"#utility.yul\":1740:1746   */\n      dup4\n        /* \"#utility.yul\":1735:1738   */\n      dup4\n        /* \"#utility.yul\":1731:1747   */\n      add\n        /* \"#utility.yul\":1724:1751   */\n      mstore\n        /* \"#utility.yul\":1610:1758   */\n      pop\n      pop\n      pop\n      jump\t// out\n        /* \"#utility.yul\":1764:2189   */\n    tag_75:\n        /* \"#utility.yul\":1842:1847   */\n      0x00\n        /* \"#utility.yul\":1867:1933   */\n      tag_114\n        /* \"#utility.yul\":1883:1932   */\n      tag_115\n        /* \"#utility.yul\":1925:1931   */\n      dup5\n        /* \"#utility.yul\":1883:1932   */\n      tag_73\n      jump\t// in\n    tag_115:\n        /* \"#utility.yul\":1867:1933   */\n      tag_72\n      jump\t// in\n    tag_114:\n        /* \"#utility.yul\":1858:1933   */\n      swap1\n      pop\n        /* \"#utility.yul\":1956:1962   */\n      dup3\n        /* \"#utility.yul\":1949:1954   */\n      dup2\n        /* \"#utility.yul\":1942:1963   */\n      mstore\n        /* \"#utility.yul\":1994:1998   */\n      0x20\n        /* \"#utility.yul\":1987:1992   */\n      dup2\n        /* \"#utility.yul\":1983:1999   */\n      add\n        /* \"#utility.yul\":2032:2035   */\n      dup5\n        /* \"#utility.yul\":2023:2029   */\n      dup5\n        /* \"#utility.yul\":2018:2021   */\n      dup5\n        /* \"#utility.yul\":2014:2030   */\n      add\n        /* \"#utility.yul\":2011:2036   */\n      gt\n        /* \"#utility.yul\":2008:2120   */\n      iszero\n      tag_116\n      jumpi\n        /* \"#utility.yul\":2039:2118   */\n      tag_117\n      tag_68\n      jump\t// in\n    tag_117:\n        /* \"#utility.yul\":2008:2120   */\n    tag_116:\n        /* \"#utility.yul\":2129:2183   */\n      tag_118\n        /* \"#utility.yul\":2176:2182   */\n      dup5\n        /* \"#utility.yul\":2171:2174   */\n      dup3\n        /* \"#utility.yul\":2166:2169   */\n      dup6\n        /* \"#utility.yul\":2129:2183   */\n      tag_74\n      jump\t// in\n    tag_118:\n        /* \"#utility.yul\":1848:2189   */\n      pop\n        /* \"#utility.yul\":1764:2189   */\n      swap4\n      swap3\n      pop\n      pop\n      pop\n      jump\t// out\n        /* \"#utility.yul\":2209:2549   */\n    tag_76:\n        /* \"#utility.yul\":2265:2270   */\n      0x00\n        /* \"#utility.yul\":2314:2317   */\n      dup3\n        /* \"#utility.yul\":2307:2311   */\n      0x1f\n        /* \"#utility.yul\":2299:2305   */\n      dup4\n        /* \"#utility.yul\":2295:2312   */\n      add\n        /* \"#utility.yul\":2291:2318   */\n      slt\n        /* \"#utility.yul\":2281:2403   */\n      tag_120\n      jumpi\n        /* \"#utility.yul\":2322:2401   */\n      tag_121\n      tag_67\n      jump\t// in\n    tag_121:\n        /* \"#utility.yul\":2281:2403   */\n    tag_120:\n        /* \"#utility.yul\":2439:2445   */\n      dup2\n        /* \"#utility.yul\":2426:2446   */\n      calldataload\n        /* \"#utility.yul\":2464:2543   */\n      tag_122\n        /* \"#utility.yul\":2539:2542   */\n      dup5\n        /* \"#utility.yul\":2531:2537   */\n      dup3\n        /* \"#utility.yul\":2524:2528   */\n      0x20\n        /* \"#utility.yul\":2516:2522   */\n      dup7\n        /* \"#utility.yul\":2512:2529   */\n      add\n        /* \"#utility.yul\":2464:2543   */\n      tag_75\n      jump\t// in\n    tag_122:\n        /* \"#utility.yul\":2455:2543   */\n      swap2\n      pop\n        /* \"#utility.yul\":2271:2549   */\n      pop\n        /* \"#utility.yul\":2209:2549   */\n      swap3\n      swap2\n      pop\n      pop\n      jump\t// out\n        /* \"#utility.yul\":2555:3064   */\n    tag_10:\n        /* \"#utility.yul\":2624:2630   */\n      0x00\n        /* \"#utility.yul\":2673:2675   */\n      0x20\n        /* \"#utility.yul\":2661:2670   */\n      dup3\n        /* \"#utility.yul\":2652:2659   */\n      dup5\n        /* \"#utility.yul\":2648:2671   */\n      sub\n        /* \"#utility.yul\":2644:2676   */\n      slt\n        /* \"#utility.yul\":2641:2760   */\n      iszero\n      tag_124\n      jumpi\n        /* \"#utility.yul\":2679:2758   */\n      tag_125\n      tag_65\n      jump\t// in\n    tag_125:\n        /* \"#utility.yul\":2641:2760   */\n    tag_124:\n        /* \"#utility.yul\":2827:2828   */\n      0x00\n        /* \"#utility.yul\":2816:2825   */\n      dup3\n        /* \"#utility.yul\":2812:2829   */\n      add\n        /* \"#utility.yul\":2799:2830   */\n      calldataload\n        /* \"#utility.yul\":2857:2875   */\n      0xffffffffffffffff\n        /* \"#utility.yul\":2849:2855   */\n      dup2\n        /* \"#utility.yul\":2846:2876   */\n      gt\n        /* \"#utility.yul\":2843:2960   */\n      iszero\n      tag_126\n      jumpi\n        /* \"#utility.yul\":2879:2958   */\n      tag_127\n      tag_66\n      jump\t// in\n    tag_127:\n        /* \"#utility.yul\":2843:2960   */\n    tag_126:\n        /* \"#utility.yul\":2984:3047   */\n      tag_128\n        /* \"#utility.yul\":3039:3046   */\n      dup5\n        /* \"#utility.yul\":3030:3036   */\n      dup3\n        /* \"#utility.yul\":3019:3028   */\n      dup6\n        /* \"#utility.yul\":3015:3037   */\n      add\n        /* \"#utility.yul\":2984:3047   */\n      tag_76\n      jump\t// in\n    tag_128:\n        /* \"#utility.yul\":2974:3047   */\n      swap2\n      pop\n        /* \"#utility.yul\":2770:3057   */\n      pop\n        /* \"#utility.yul\":2555:3064   */\n      swap3\n      swap2\n      pop\n      pop\n      jump\t// out\n        /* \"#utility.yul\":3070:3196   */\n    tag_77:\n        /* \"#utility.yul\":3107:3114   */\n      0x00\n        /* \"#utility.yul\":3147:3189   */\n      0xffffffffffffffffffffffffffffffffffffffff\n        /* \"#utility.yul\":3140:3145   */\n      dup3\n        /* \"#utility.yul\":3136:3190   */\n      and\n        /* \"#utility.yul\":3125:3190   */\n      swap1\n      pop\n        /* \"#utility.yul\":3070:3196   */\n      swap2\n      swap1\n      pop\n      jump\t// out\n        /* \"#utility.yul\":3202:3298   */\n    tag_78:\n        /* \"#utility.yul\":3239:3246   */\n      0x00\n        /* \"#utility.yul\":3268:3292   */\n      tag_131\n        /* \"#utility.yul\":3286:3291   */\n      dup3\n        /* \"#utility.yul\":3268:3292   */\n      tag_77\n      jump\t// in\n    tag_131:\n        /* \"#utility.yul\":3257:3292   */\n      swap1\n      pop\n        /* \"#utility.yul\":3202:3298   */\n      swap2\n      swap1\n      pop\n      jump\t// out\n        /* \"#utility.yul\":3304:3422   */\n    tag_79:\n        /* \"#utility.yul\":3391:3415   */\n      tag_133\n        /* \"#utility.yul\":3409:3414   */\n      dup2\n        /* \"#utility.yul\":3391:3415   */\n      tag_78\n      jump\t// in\n    tag_133:\n        /* \"#utility.yul\":3386:3389   */\n      dup3\n        /* \"#utility.yul\":3379:3416   */\n      mstore\n        /* \"#utility.yul\":3304:3422   */\n      pop\n      pop\n      jump\t// out\n        /* \"#utility.yul\":3428:3650   */\n    tag_13:\n        /* \"#utility.yul\":3521:3525   */\n      0x00\n        /* \"#utility.yul\":3559:3561   */\n      0x20\n        /* \"#utility.yul\":3548:3557   */\n      dup3\n        /* \"#utility.yul\":3544:3562   */\n      add\n        /* \"#utility.yul\":3536:3562   */\n      swap1\n      pop\n        /* \"#utility.yul\":3572:3643   */\n      tag_135\n        /* \"#utility.yul\":3640:3641   */\n      0x00\n        /* \"#utility.yul\":3629:3638   */\n      dup4\n        /* \"#utility.yul\":3625:3642   */\n      add\n        /* \"#utility.yul\":3616:3622   */\n      dup5\n        /* \"#utility.yul\":3572:3643   */\n      tag_79\n      jump\t// in\n    tag_135:\n        /* \"#utility.yul\":3428:3650   */\n      swap3\n      swap2\n      pop\n      pop\n      jump\t// out\n        /* \"#utility.yul\":3656:3992   */\n    tag_80:\n        /* \"#utility.yul\":3758:3762   */\n      0x00\n        /* \"#utility.yul\":3848:3866   */\n      0xffffffffffffffff\n        /* \"#utility.yul\":3840:3846   */\n      dup3\n        /* \"#utility.yul\":3837:3867   */\n      gt\n        /* \"#utility.yul\":3834:3890   */\n      iszero\n      tag_137\n      jumpi\n        /* \"#utility.yul\":3870:3888   */\n      tag_138\n      tag_70\n      jump\t// in\n    tag_138:\n        /* \"#utility.yul\":3834:3890   */\n    tag_137:\n        /* \"#utility.yul\":3920:3924   */\n      0x20\n        /* \"#utility.yul\":3912:3918   */\n      dup3\n        /* \"#utility.yul\":3908:3925   */\n      mul\n        /* \"#utility.yul\":3900:3925   */\n      swap1\n      pop\n        /* \"#utility.yul\":3980:3984   */\n      0x20\n        /* \"#utility.yul\":3974:3978   */\n      dup2\n        /* \"#utility.yul\":3970:3985   */\n      add\n        /* \"#utility.yul\":3962:3985   */\n      swap1\n      pop\n        /* \"#utility.yul\":3656:3992   */\n      swap2\n      swap1\n      pop\n      jump\t// out\n        /* \"#utility.yul\":3998:4115   */\n    tag_81:\n        /* \"#utility.yul\":4107:4108   */\n      0x00\n        /* \"#utility.yul\":4104:4105   */\n      0x00\n        /* \"#utility.yul\":4097:4109   */\n      revert\n        /* \"#utility.yul\":4121:4238   */\n    tag_82:\n        /* \"#utility.yul\":4230:4231   */\n      0x00\n        /* \"#utility.yul\":4227:4228   */\n      0x00\n        /* \"#utility.yul\":4220:4232   */\n      revert\n        /* \"#utility.yul\":4244:4361   */\n    tag_83:\n        /* \"#utility.yul\":4353:4354   */\n      0x00\n        /* \"#utility.yul\":4350:4351   */\n      0x00\n        /* \"#utility.yul\":4343:4355   */\n      revert\n        /* \"#utility.yul\":4367:4489   */\n    tag_84:\n        /* \"#utility.yul\":4440:4464   */\n      tag_143\n        /* \"#utility.yul\":4458:4463   */\n      dup2\n        /* \"#utility.yul\":4440:4464   */\n      tag_78\n      jump\t// in\n    tag_143:\n        /* \"#utility.yul\":4433:4438   */\n      dup2\n        /* \"#utility.yul\":4430:4465   */\n      eq\n        /* \"#utility.yul\":4420:4483   */\n      tag_144\n      jumpi\n        /* \"#utility.yul\":4479:4480   */\n      0x00\n        /* \"#utility.yul\":4476:4477   */\n      0x00\n        /* \"#utility.yul\":4469:4481   */\n      revert\n        /* \"#utility.yul\":4420:4483   */\n    tag_144:\n        /* \"#utility.yul\":4367:4489   */\n      pop\n      jump\t// out\n        /* \"#utility.yul\":4495:4634   */\n    tag_85:\n        /* \"#utility.yul\":4541:4546   */\n      0x00\n        /* \"#utility.yul\":4579:4585   */\n      dup2\n        /* \"#utility.yul\":4566:4586   */\n      calldataload\n        /* \"#utility.yul\":4557:4586   */\n      swap1\n      pop\n        /* \"#utility.yul\":4595:4628   */\n      tag_146\n        /* \"#utility.yul\":4622:4627   */\n      dup2\n        /* \"#utility.yul\":4595:4628   */\n      tag_84\n      jump\t// in\n    tag_146:\n        /* \"#utility.yul\":4495:4634   */\n      swap3\n      swap2\n      pop\n      pop\n      jump\t// out\n        /* \"#utility.yul\":4673:5417   */\n    tag_86:\n        /* \"#utility.yul\":4747:4752   */\n      0x00\n        /* \"#utility.yul\":4791:4795   */\n      0x40\n        /* \"#utility.yul\":4779:4788   */\n      dup3\n        /* \"#utility.yul\":4774:4777   */\n      dup5\n        /* \"#utility.yul\":4770:4789   */\n      sub\n        /* \"#utility.yul\":4766:4796   */\n      slt\n        /* \"#utility.yul\":4763:4880   */\n      iszero\n      tag_148\n      jumpi\n        /* \"#utility.yul\":4799:4878   */\n      tag_149\n      tag_82\n      jump\t// in\n    tag_149:\n        /* \"#utility.yul\":4763:4880   */\n    tag_148:\n        /* \"#utility.yul\":4898:4919   */\n      tag_150\n        /* \"#utility.yul\":4914:4918   */\n      0x40\n        /* \"#utility.yul\":4898:4919   */\n      tag_72\n      jump\t// in\n    tag_150:\n        /* \"#utility.yul\":4889:4919   */\n      swap1\n      pop\n        /* \"#utility.yul\":5005:5006   */\n      0x00\n        /* \"#utility.yul\":4994:5003   */\n      dup3\n        /* \"#utility.yul\":4990:5007   */\n      add\n        /* \"#utility.yul\":4977:5008   */\n      calldataload\n        /* \"#utility.yul\":5035:5053   */\n      0xffffffffffffffff\n        /* \"#utility.yul\":5027:5033   */\n      dup2\n        /* \"#utility.yul\":5024:5054   */\n      gt\n        /* \"#utility.yul\":5021:5138   */\n      iszero\n      tag_151\n      jumpi\n        /* \"#utility.yul\":5057:5136   */\n      tag_152\n      tag_83\n      jump\t// in\n    tag_152:\n        /* \"#utility.yul\":5021:5138   */\n    tag_151:\n        /* \"#utility.yul\":5177:5236   */\n      tag_153\n        /* \"#utility.yul\":5232:5235   */\n      dup5\n        /* \"#utility.yul\":5223:5229   */\n      dup3\n        /* \"#utility.yul\":5212:5221   */\n      dup6\n        /* \"#utility.yul\":5208:5230   */\n      add\n        /* \"#utility.yul\":5177:5236   */\n      tag_76\n      jump\t// in\n    tag_153:\n        /* \"#utility.yul\":5170:5174   */\n      0x00\n        /* \"#utility.yul\":5163:5168   */\n      dup4\n        /* \"#utility.yul\":5159:5175   */\n      add\n        /* \"#utility.yul\":5152:5237   */\n      mstore\n        /* \"#utility.yul\":4929:5248   */\n      pop\n        /* \"#utility.yul\":5308:5310   */\n      0x20\n        /* \"#utility.yul\":5349:5398   */\n      tag_154\n        /* \"#utility.yul\":5394:5397   */\n      dup5\n        /* \"#utility.yul\":5385:5391   */\n      dup3\n        /* \"#utility.yul\":5374:5383   */\n      dup6\n        /* \"#utility.yul\":5370:5392   */\n      add\n        /* \"#utility.yul\":5349:5398   */\n      tag_85\n      jump\t// in\n    tag_154:\n        /* \"#utility.yul\":5342:5346   */\n      0x20\n        /* \"#utility.yul\":5335:5340   */\n      dup4\n        /* \"#utility.yul\":5331:5347   */\n      add\n        /* \"#utility.yul\":5324:5399   */\n      mstore\n        /* \"#utility.yul\":5258:5410   */\n      pop\n        /* \"#utility.yul\":4673:5417   */\n      swap3\n      swap2\n      pop\n      pop\n      jump\t// out\n        /* \"#utility.yul\":5458:6448   */\n    tag_87:\n        /* \"#utility.yul\":5579:5584   */\n      0x00\n        /* \"#utility.yul\":5604:5710   */\n      tag_156\n        /* \"#utility.yul\":5620:5709   */\n      tag_157\n        /* \"#utility.yul\":5702:5708   */\n      dup5\n        /* \"#utility.yul\":5620:5709   */\n      tag_80\n      jump\t// in\n    tag_157:\n        /* \"#utility.yul\":5604:5710   */\n      tag_72\n      jump\t// in\n    tag_156:\n        /* \"#utility.yul\":5595:5710   */\n      swap1\n      pop\n        /* \"#utility.yul\":5730:5735   */\n      dup1\n        /* \"#utility.yul\":5759:5765   */\n      dup4\n        /* \"#utility.yul\":5752:5757   */\n      dup3\n        /* \"#utility.yul\":5745:5766   */\n      mstore\n        /* \"#utility.yul\":5793:5797   */\n      0x20\n        /* \"#utility.yul\":5786:5791   */\n      dup3\n        /* \"#utility.yul\":5782:5798   */\n      add\n        /* \"#utility.yul\":5775:5798   */\n      swap1\n      pop\n        /* \"#utility.yul\":5846:5850   */\n      0x20\n        /* \"#utility.yul\":5838:5844   */\n      dup5\n        /* \"#utility.yul\":5834:5851   */\n      mul\n        /* \"#utility.yul\":5826:5832   */\n      dup4\n        /* \"#utility.yul\":5822:5852   */\n      add\n        /* \"#utility.yul\":5875:5878   */\n      dup6\n        /* \"#utility.yul\":5867:5873   */\n      dup2\n        /* \"#utility.yul\":5864:5879   */\n      gt\n        /* \"#utility.yul\":5861:5983   */\n      iszero\n      tag_158\n      jumpi\n        /* \"#utility.yul\":5894:5973   */\n      tag_159\n      tag_81\n      jump\t// in\n    tag_159:\n        /* \"#utility.yul\":5861:5983   */\n    tag_158:\n        /* \"#utility.yul\":6009:6015   */\n      dup4\n        /* \"#utility.yul\":5992:6442   */\n    tag_160:\n        /* \"#utility.yul\":6026:6032   */\n      dup2\n        /* \"#utility.yul\":6021:6024   */\n      dup2\n        /* \"#utility.yul\":6018:6033   */\n      lt\n        /* \"#utility.yul\":5992:6442   */\n      iszero\n      tag_162\n      jumpi\n        /* \"#utility.yul\":6115:6118   */\n      dup1\n        /* \"#utility.yul\":6102:6119   */\n      calldataload\n        /* \"#utility.yul\":6151:6169   */\n      0xffffffffffffffff\n        /* \"#utility.yul\":6138:6149   */\n      dup2\n        /* \"#utility.yul\":6135:6170   */\n      gt\n        /* \"#utility.yul\":6132:6254   */\n      iszero\n      tag_163\n      jumpi\n        /* \"#utility.yul\":6173:6252   */\n      tag_164\n      tag_67\n      jump\t// in\n    tag_164:\n        /* \"#utility.yul\":6132:6254   */\n    tag_163:\n        /* \"#utility.yul\":6297:6308   */\n      dup1\n        /* \"#utility.yul\":6289:6295   */\n      dup7\n        /* \"#utility.yul\":6285:6309   */\n      add\n        /* \"#utility.yul\":6335:6397   */\n      tag_165\n        /* \"#utility.yul\":6393:6396   */\n      dup10\n        /* \"#utility.yul\":6381:6391   */\n      dup3\n        /* \"#utility.yul\":6335:6397   */\n      tag_86\n      jump\t// in\n    tag_165:\n        /* \"#utility.yul\":6330:6333   */\n      dup6\n        /* \"#utility.yul\":6323:6398   */\n      mstore\n        /* \"#utility.yul\":6427:6431   */\n      0x20\n        /* \"#utility.yul\":6422:6425   */\n      dup6\n        /* \"#utility.yul\":6418:6432   */\n      add\n        /* \"#utility.yul\":6411:6432   */\n      swap5\n      pop\n        /* \"#utility.yul\":6068:6442   */\n      pop\n      pop\n        /* \"#utility.yul\":6052:6056   */\n      0x20\n        /* \"#utility.yul\":6047:6050   */\n      dup2\n        /* \"#utility.yul\":6043:6057   */\n      add\n        /* \"#utility.yul\":6036:6057   */\n      swap1\n      pop\n        /* \"#utility.yul\":5992:6442   */\n      jump(tag_160)\n    tag_162:\n        /* \"#utility.yul\":5996:6017   */\n      pop\n        /* \"#utility.yul\":5585:6448   */\n      pop\n      pop\n        /* \"#utility.yul\":5458:6448   */\n      swap4\n      swap3\n      pop\n      pop\n      pop\n      jump\t// out\n        /* \"#utility.yul\":6489:6909   */\n    tag_88:\n        /* \"#utility.yul\":6585:6590   */\n      0x00\n        /* \"#utility.yul\":6634:6637   */\n      dup3\n        /* \"#utility.yul\":6627:6631   */\n      0x1f\n        /* \"#utility.yul\":6619:6625   */\n      dup4\n        /* \"#utility.yul\":6615:6632   */\n      add\n        /* \"#utility.yul\":6611:6638   */\n      slt\n        /* \"#utility.yul\":6601:6723   */\n      tag_167\n      jumpi\n        /* \"#utility.yul\":6642:6721   */\n      tag_168\n      tag_67\n      jump\t// in\n    tag_168:\n        /* \"#utility.yul\":6601:6723   */\n    tag_167:\n        /* \"#utility.yul\":6759:6765   */\n      dup2\n        /* \"#utility.yul\":6746:6766   */\n      calldataload\n        /* \"#utility.yul\":6784:6903   */\n      tag_169\n        /* \"#utility.yul\":6899:6902   */\n      dup5\n        /* \"#utility.yul\":6891:6897   */\n      dup3\n        /* \"#utility.yul\":6884:6888   */\n      0x20\n        /* \"#utility.yul\":6876:6882   */\n      dup7\n        /* \"#utility.yul\":6872:6889   */\n      add\n        /* \"#utility.yul\":6784:6903   */\n      tag_87\n      jump\t// in\n    tag_169:\n        /* \"#utility.yul\":6775:6903   */\n      swap2\n      pop\n        /* \"#utility.yul\":6591:6909   */\n      pop\n        /* \"#utility.yul\":6489:6909   */\n      swap3\n      swap2\n      pop\n      pop\n      jump\t// out\n        /* \"#utility.yul\":6915:7504   */\n    tag_16:\n        /* \"#utility.yul\":7024:7030   */\n      0x00\n        /* \"#utility.yul\":7073:7075   */\n      0x20\n        /* \"#utility.yul\":7061:7070   */\n      dup3\n        /* \"#utility.yul\":7052:7059   */\n      dup5\n        /* \"#utility.yul\":7048:7071   */\n      sub\n        /* \"#utility.yul\":7044:7076   */\n      slt\n        /* \"#utility.yul\":7041:7160   */\n      iszero\n      tag_171\n      jumpi\n        /* \"#utility.yul\":7079:7158   */\n      tag_172\n      tag_65\n      jump\t// in\n    tag_172:\n        /* \"#utility.yul\":7041:7160   */\n    tag_171:\n        /* \"#utility.yul\":7227:7228   */\n      0x00\n        /* \"#utility.yul\":7216:7225   */\n      dup3\n        /* \"#utility.yul\":7212:7229   */\n      add\n        /* \"#utility.yul\":7199:7230   */\n      calldataload\n        /* \"#utility.yul\":7257:7275   */\n      0xffffffffffffffff\n        /* \"#utility.yul\":7249:7255   */\n      dup2\n        /* \"#utility.yul\":7246:7276   */\n      gt\n        /* \"#utility.yul\":7243:7360   */\n      iszero\n      tag_173\n      jumpi\n        /* \"#utility.yul\":7279:7358   */\n      tag_174\n      tag_66\n      jump\t// in\n    tag_174:\n        /* \"#utility.yul\":7243:7360   */\n    tag_173:\n        /* \"#utility.yul\":7384:7487   */\n      tag_175\n        /* \"#utility.yul\":7479:7486   */\n      dup5\n        /* \"#utility.yul\":7470:7476   */\n      dup3\n        /* \"#utility.yul\":7459:7468   */\n      dup6\n        /* \"#utility.yul\":7455:7477   */\n      add\n        /* \"#utility.yul\":7384:7487   */\n      tag_88\n      jump\t// in\n    tag_175:\n        /* \"#utility.yul\":7374:7487   */\n      swap2\n      pop\n        /* \"#utility.yul\":7170:7497   */\n      pop\n        /* \"#utility.yul\":6915:7504   */\n      swap3\n      swap2\n      pop\n      pop\n      jump\t// out\n        /* \"#utility.yul\":7510:7839   */\n    tag_25:\n        /* \"#utility.yul\":7569:7575   */\n      0x00\n        /* \"#utility.yul\":7618:7620   */\n      0x20\n        /* \"#utility.yul\":7606:7615   */\n      dup3\n        /* \"#utility.yul\":7597:7604   */\n      dup5\n        /* \"#utility.yul\":7593:7616   */\n      sub\n        /* \"#utility.yul\":7589:7621   */\n      slt\n        /* \"#utility.yul\":7586:7705   */\n      iszero\n      tag_177\n      jumpi\n        /* \"#utility.yul\":7624:7703   */\n      tag_178\n      tag_65\n      jump\t// in\n    tag_178:\n        /* \"#utility.yul\":7586:7705   */\n    tag_177:\n        /* \"#utility.yul\":7744:7745   */\n      0x00\n        /* \"#utility.yul\":7769:7822   */\n      tag_179\n        /* \"#utility.yul\":7814:7821   */\n      dup5\n        /* \"#utility.yul\":7805:7811   */\n      dup3\n        /* \"#utility.yul\":7794:7803   */\n      dup6\n        /* \"#utility.yul\":7790:7812   */\n      add\n        /* \"#utility.yul\":7769:7822   */\n      tag_85\n      jump\t// in\n    tag_179:\n        /* \"#utility.yul\":7759:7822   */\n      swap2\n      pop\n        /* \"#utility.yul\":7715:7832   */\n      pop\n        /* \"#utility.yul\":7510:7839   */\n      swap3\n      swap2\n      pop\n      pop\n      jump\t// out\n        /* \"#utility.yul\":7845:7944   */\n    tag_89:\n        /* \"#utility.yul\":7897:7903   */\n      0x00\n        /* \"#utility.yul\":7931:7936   */\n      dup2\n        /* \"#utility.yul\":7925:7937   */\n      mload\n        /* \"#utility.yul\":7915:7937   */\n      swap1\n      pop\n        /* \"#utility.yul\":7845:7944   */\n      swap2\n      swap1\n      pop\n      jump\t// out\n        /* \"#utility.yul\":7950:8098   */\n    tag_90:\n        /* \"#utility.yul\":8052:8063   */\n      0x00\n        /* \"#utility.yul\":8089:8092   */\n      dup2\n        /* \"#utility.yul\":8074:8092   */\n      swap1\n      pop\n        /* \"#utility.yul\":7950:8098   */\n      swap3\n      swap2\n      pop\n      pop\n      jump\t// out\n        /* \"#utility.yul\":8104:8243   */\n    tag_91:\n        /* \"#utility.yul\":8193:8199   */\n      dup3\n        /* \"#utility.yul\":8188:8191   */\n      dup2\n        /* \"#utility.yul\":8183:8186   */\n      dup4\n        /* \"#utility.yul\":8177:8200   */\n      mcopy\n        /* \"#utility.yul\":8234:8235   */\n      0x00\n        /* \"#utility.yul\":8225:8231   */\n      dup4\n        /* \"#utility.yul\":8220:8223   */\n      dup4\n        /* \"#utility.yul\":8216:8232   */\n      add\n        /* \"#utility.yul\":8209:8236   */\n      mstore\n        /* \"#utility.yul\":8104:8243   */\n      pop\n      pop\n      pop\n      jump\t// out\n        /* \"#utility.yul\":8249:8639   */\n    tag_92:\n        /* \"#utility.yul\":8355:8358   */\n      0x00\n        /* \"#utility.yul\":8383:8422   */\n      tag_184\n        /* \"#utility.yul\":8416:8421   */\n      dup3\n        /* \"#utility.yul\":8383:8422   */\n      tag_89\n      jump\t// in\n    tag_184:\n        /* \"#utility.yul\":8438:8527   */\n      tag_185\n        /* \"#utility.yul\":8520:8526   */\n      dup2\n        /* \"#utility.yul\":8515:8518   */\n      dup6\n        /* \"#utility.yul\":8438:8527   */\n      tag_90\n      jump\t// in\n    tag_185:\n        /* \"#utility.yul\":8431:8527   */\n      swap4\n      pop\n        /* \"#utility.yul\":8536:8601   */\n      tag_186\n        /* \"#utility.yul\":8594:8600   */\n      dup2\n        /* \"#utility.yul\":8589:8592   */\n      dup6\n        /* \"#utility.yul\":8582:8586   */\n      0x20\n        /* \"#utility.yul\":8575:8580   */\n      dup7\n        /* \"#utility.yul\":8571:8587   */\n      add\n        /* \"#utility.yul\":8536:8601   */\n      tag_91\n      jump\t// in\n    tag_186:\n        /* \"#utility.yul\":8626:8632   */\n      dup1\n        /* \"#utility.yul\":8621:8624   */\n      dup5\n        /* \"#utility.yul\":8617:8633   */\n      add\n        /* \"#utility.yul\":8610:8633   */\n      swap2\n      pop\n        /* \"#utility.yul\":8359:8639   */\n      pop\n        /* \"#utility.yul\":8249:8639   */\n      swap3\n      swap2\n      pop\n      pop\n      jump\t// out\n        /* \"#utility.yul\":8645:8920   */\n    tag_29:\n        /* \"#utility.yul\":8777:8780   */\n      0x00\n        /* \"#utility.yul\":8799:8894   */\n      tag_188\n        /* \"#utility.yul\":8890:8893   */\n      dup3\n        /* \"#utility.yul\":8881:8887   */\n      dup5\n        /* \"#utility.yul\":8799:8894   */\n      tag_92\n      jump\t// in\n    tag_188:\n        /* \"#utility.yul\":8792:8894   */\n      swap2\n      pop\n        /* \"#utility.yul\":8911:8914   */\n      dup2\n        /* \"#utility.yul\":8904:8914   */\n      swap1\n      pop\n        /* \"#utility.yul\":8645:8920   */\n      swap3\n      swap2\n      pop\n      pop\n      jump\t// out\n        /* \"#utility.yul\":8926:9106   */\n    tag_39:\n        /* \"#utility.yul\":8974:9051   */\n      0x4e487b7100000000000000000000000000000000000000000000000000000000\n        /* \"#utility.yul\":8971:8972   */\n      0x00\n        /* \"#utility.yul\":8964:9052   */\n      mstore\n        /* \"#utility.yul\":9071:9075   */\n      0x32\n        /* \"#utility.yul\":9068:9069   */\n      0x04\n        /* \"#utility.yul\":9061:9076   */\n      mstore\n        /* \"#utility.yul\":9095:9099   */\n      0x24\n        /* \"#utility.yul\":9092:9093   */\n      0x00\n        /* \"#utility.yul\":9085:9100   */\n      revert\n\n    auxdata: 0xa2646970667358221220f540e2fc2aec0adf4f324126e5d792adea32c6f4eeb5e3ce50a9a8ab541f447564736f6c634300081e0033\n}\n",
				"bytecode": {
					"linkReferences": {},
					"object": "608060405234801561000f575f5ffd5b50335f73ffffffffffffffffffffffffffffffffffffffff168173ffffffffffffffffffffffffffffffffffffffff1603610081575f6040517f1e4fbdf70000000000000000000000000000000000000000000000000000000081526004016100789190610196565b60405180910390fd5b6100908161009660201b60201c565b506101af565b5f5f5f9054906101000a900473ffffffffffffffffffffffffffffffffffffffff169050815f5f6101000a81548173ffffffffffffffffffffffffffffffffffffffff021916908373ffffffffffffffffffffffffffffffffffffffff1602179055508173ffffffffffffffffffffffffffffffffffffffff168173ffffffffffffffffffffffffffffffffffffffff167f8be0079c531659141344cd1fd0a4f28419497f9722a3daafe3b4186f6b6457e060405160405180910390a35050565b5f73ffffffffffffffffffffffffffffffffffffffff82169050919050565b5f61018082610157565b9050919050565b61019081610176565b82525050565b5f6020820190506101a95f830184610187565b92915050565b6108a0806101bc5f395ff3fe608060405234801561000f575f5ffd5b5060043610610055575f3560e01c80632726261814610059578063333bbc2a14610089578063715018a6146100a55780638da5cb5b146100af578063f2fde38b146100cd575b5f5ffd5b610073600480360381019061006e9190610547565b6100e9565b60405161008091906105cd565b60405180910390f35b6100a3600480360381019061009e9190610763565b61012f565b005b6100ad6101ed565b005b6100b7610200565b6040516100c491906105cd565b60405180910390f35b6100e760048036038101906100e291906107aa565b610227565b005b5f6001826040516100fa9190610827565b90815260200160405180910390205f9054906101000a900473ffffffffffffffffffffffffffffffffffffffff169050919050565b6101376102ab565b5f5f90505b81518110156101e9578181815181106101585761015761083d565b5b60200260200101516020015160018383815181106101795761017861083d565b5b60200260200101515f01516040516101919190610827565b90815260200160405180910390205f6101000a81548173ffffffffffffffffffffffffffffffffffffffff021916908373ffffffffffffffffffffffffffffffffffffffff160217905550808060010191505061013c565b5050565b6101f56102ab565b6101fe5f610332565b565b5f5f5f9054906101000a900473ffffffffffffffffffffffffffffffffffffffff16905090565b61022f6102ab565b5f73ffffffffffffffffffffffffffffffffffffffff168173ffffffffffffffffffffffffffffffffffffffff160361029f575f6040517f1e4fbdf700000000000000000000000000000000000000000000000000000000815260040161029691906105cd565b60405180910390fd5b6102a881610332565b50565b6102b36103f3565b73ffffffffffffffffffffffffffffffffffffffff166102d1610200565b73ffffffffffffffffffffffffffffffffffffffff1614610330576102f46103f3565b6040517f118cdaa700000000000000000000000000000000000000000000000000000000815260040161032791906105cd565b60405180910390fd5b565b5f5f5f9054906101000a900473ffffffffffffffffffffffffffffffffffffffff169050815f5f6101000a81548173ffffffffffffffffffffffffffffffffffffffff021916908373ffffffffffffffffffffffffffffffffffffffff1602179055508173ffffffffffffffffffffffffffffffffffffffff168173ffffffffffffffffffffffffffffffffffffffff167f8be0079c531659141344cd1fd0a4f28419497f9722a3daafe3b4186f6b6457e060405160405180910390a35050565b5f33905090565b5f604051905090565b5f5ffd5b5f5ffd5b5f5ffd5b5f5ffd5b5f601f19601f8301169050919050565b7f4e487b71000000000000000000000000000000000000000000000000000000005f52604160045260245ffd5b61045982610413565b810181811067ffffffffffffffff8211171561047857610477610423565b5b80604052505050565b5f61048a6103fa565b90506104968282610450565b919050565b5f67ffffffffffffffff8211156104b5576104b4610423565b5b6104be82610413565b9050602081019050919050565b828183375f83830152505050565b5f6104eb6104e68461049b565b610481565b9050828152602081018484840111156105075761050661040f565b5b6105128482856104cb565b509392505050565b5f82601f83011261052e5761052d61040b565b5b813561053e8482602086016104d9565b91505092915050565b5f6020828403121561055c5761055b610403565b5b5f82013567ffffffffffffffff81111561057957610578610407565b5b6105858482850161051a565b91505092915050565b5f73ffffffffffffffffffffffffffffffffffffffff82169050919050565b5f6105b78261058e565b9050919050565b6105c7816105ad565b82525050565b5f6020820190506105e05f8301846105be565b92915050565b5f67ffffffffffffffff821115610600576105ff610423565b5b602082029050602081019050919050565b5f5ffd5b5f5ffd5b5f5ffd5b610626816105ad565b8114610630575f5ffd5b50565b5f813590506106418161061d565b92915050565b5f6040828403121561065c5761065b610615565b5b6106666040610481565b90505f82013567ffffffffffffffff81111561068557610684610619565b5b6106918482850161051a565b5f8301525060206106a484828501610633565b60208301525092915050565b5f6106c26106bd846105e6565b610481565b905080838252602082019050602084028301858111156106e5576106e4610611565b5b835b8181101561072c57803567ffffffffffffffff81111561070a5761070961040b565b5b8086016107178982610647565b855260208501945050506020810190506106e7565b5050509392505050565b5f82601f83011261074a5761074961040b565b5b813561075a8482602086016106b0565b91505092915050565b5f6020828403121561077857610777610403565b5b5f82013567ffffffffffffffff81111561079557610794610407565b5b6107a184828501610736565b91505092915050565b5f602082840312156107bf576107be610403565b5b5f6107cc84828501610633565b91505092915050565b5f81519050919050565b5f81905092915050565b8281835e5f83830152505050565b5f610801826107d5565b61080b81856107df565b935061081b8185602086016107e9565b80840191505092915050565b5f61083282846107f7565b915081905092915050565b7f4e487b71000000000000000000000000000000000000000000000000000000005f52603260045260245ffdfea2646970667358221220f540e2fc2aec0adf4f324126e5d792adea32c6f4eeb5e3ce50a9a8ab541f447564736f6c634300081e0033",
					"opcodes": "PUSH1 0x80 PUSH1 0x40 MSTORE CALLVALUE DUP1 ISZERO PUSH2 0xF JUMPI PUSH0 PUSH0 REVERT JUMPDEST POP CALLER PUSH0 PUSH20 0xFFFFFFFFFFFFFFFFFFFFFFFFFFFFFFFFFFFFFFFF AND DUP2 PUSH20 0xFFFFFFFFFFFFFFFFFFFFFFFFFFFFFFFFFFFFFFFF AND SUB PUSH2 0x81 JUMPI PUSH0 PUSH1 0x40 MLOAD PUSH32 0x1E4FBDF700000000000000000000000000000000000000000000000000000000 DUP2 MSTORE PUSH1 0x4 ADD PUSH2 0x78 SWAP2 SWAP1 PUSH2 0x196 JUMP JUMPDEST PUSH1 0x40 MLOAD DUP1 SWAP2 SUB SWAP1 REVERT JUMPDEST PUSH2 0x90 DUP2 PUSH2 0x96 PUSH1 0x20 SHL PUSH1 0x20 SHR JUMP JUMPDEST POP PUSH2 0x1AF JUMP JUMPDEST PUSH0 PUSH0 PUSH0 SWAP1 SLOAD SWAP1 PUSH2 0x100 EXP SWAP1 DIV PUSH20 0xFFFFFFFFFFFFFFFFFFFFFFFFFFFFFFFFFFFFFFFF AND SWAP1 POP DUP2 PUSH0 PUSH0 PUSH2 0x100 EXP DUP2 SLOAD DUP2 PUSH20 0xFFFFFFFFFFFFFFFFFFFFFFFFFFFFFFFFFFFFFFFF MUL NOT AND SWAP1 DUP4 PUSH20 0xFFFFFFFFFFFFFFFFFFFFFFFFFFFFFFFFFFFFFFFF AND MUL OR SWAP1 SSTORE POP DUP2 PUSH20 0xFFFFFFFFFFFFFFFFFFFFFFFFFFFFFFFFFFFFFFFF AND DUP2 PUSH20 0xFFFFFFFFFFFFFFFFFFFFFFFFFFFFFFFFFFFFFFFF AND PUSH32 0x8BE0079C531659141344CD1FD0A4F28419497F9722A3DAAFE3B4186F6B6457E0 PUSH1 0x40 MLOAD PUSH1 0x40 MLOAD DUP1 SWAP2 SUB SWAP1 LOG3 POP POP JUMP JUMPDEST PUSH0 PUSH20 0xFFFFFFFFFFFFFFFFFFFFFFFFFFFFFFFFFFFFFFFF DUP3 AND SWAP1 POP SWAP2 SWAP1 POP JUMP JUMPDEST PUSH0 PUSH2 0x180 DUP3 PUSH2 0x157 JUMP JUMPDEST SWAP1 POP SWAP2 SWAP1 POP JUMP JUMPDEST PUSH2 0x190 DUP2 PUSH2 0x176 JUMP JUMPDEST DUP3 MSTORE POP POP JUMP JUMPDEST PUSH0 PUSH1 0x20 DUP3 ADD SWAP1 POP PUSH2 0x1A9 PUSH0 DUP4 ADD DUP5 PUSH2 0x187 JUMP JUMPDEST SWAP3 SWAP2 POP POP JUMP JUMPDEST PUSH2 0x8A0 DUP1 PUSH2 0x1BC PUSH0 CODECOPY PUSH0 RETURN INVALID PUSH1 0x80 PUSH1 0x40 MSTORE CALLVALUE DUP1 ISZERO PUSH2 0xF JUMPI PUSH0 PUSH0 REVERT JUMPDEST POP PUSH1 0x4 CALLDATASIZE LT PUSH2 0x55 JUMPI PUSH0 CALLDATALOAD PUSH1 0xE0 SHR DUP1 PUSH4 0x27262618 EQ PUSH2 0x59 JUMPI DUP1 PUSH4 0x333BBC2A EQ PUSH2 0x89 JUMPI DUP1 PUSH4 0x715018A6 EQ PUSH2 0xA5 JUMPI DUP1 PUSH4 0x8DA5CB5B EQ PUSH2 0xAF JUMPI DUP1 PUSH4 0xF2FDE38B EQ PUSH2 0xCD JUMPI JUMPDEST PUSH0 PUSH0 REVERT JUMPDEST PUSH2 0x73 PUSH1 0x4 DUP1 CALLDATASIZE SUB DUP2 ADD SWAP1 PUSH2 0x6E SWAP2 SWAP1 PUSH2 0x547 JUMP JUMPDEST PUSH2 0xE9 JUMP JUMPDEST PUSH1 0x40 MLOAD PUSH2 0x80 SWAP2 SWAP1 PUSH2 0x5CD JUMP JUMPDEST PUSH1 0x40 MLOAD DUP1 SWAP2 SUB SWAP1 RETURN JUMPDEST PUSH2 0xA3 PUSH1 0x4 DUP1 CALLDATASIZE SUB DUP2 ADD SWAP1 PUSH2 0x9E SWAP2 SWAP1 PUSH2 0x763 JUMP JUMPDEST PUSH2 0x12F JUMP JUMPDEST STOP JUMPDEST PUSH2 0xAD PUSH2 0x1ED JUMP JUMPDEST STOP JUMPDEST PUSH2 0xB7 PUSH2 0x200 JUMP JUMPDEST PUSH1 0x40 MLOAD PUSH2 0xC4 SWAP2 SWAP1 PUSH2 0x5CD JUMP JUMPDEST PUSH1 0x40 MLOAD DUP1 SWAP2 SUB SWAP1 RETURN JUMPDEST PUSH2 0xE7 PUSH1 0x4 DUP1 CALLDATASIZE SUB DUP2 ADD SWAP1 PUSH2 0xE2 SWAP2 SWAP1 PUSH2 0x7AA JUMP JUMPDEST PUSH2 0x227 JUMP JUMPDEST STOP JUMPDEST PUSH0 PUSH1 0x1 DUP3 PUSH1 0x40 MLOAD PUSH2 0xFA SWAP2 SWAP1 PUSH2 0x827 JUMP JUMPDEST SWAP1 DUP2 MSTORE PUSH1 0x20 ADD PUSH1 0x40 MLOAD DUP1 SWAP2 SUB SWAP1 KECCAK256 PUSH0 SWAP1 SLOAD SWAP1 PUSH2 0x100 EXP SWAP1 DIV PUSH20 0xFFFFFFFFFFFFFFFFFFFFFFFFFFFFFFFFFFFFFFFF AND SWAP1 POP SWAP2 SWAP1 POP JUMP JUMPDEST PUSH2 0x137 PUSH2 0x2AB JUMP JUMPDEST PUSH0 PUSH0 SWAP1 POP JUMPDEST DUP2 MLOAD DUP2 LT ISZERO PUSH2 0x1E9 JUMPI DUP2 DUP2 DUP2 MLOAD DUP2 LT PUSH2 0x158 JUMPI PUSH2 0x157 PUSH2 0x83D JUMP JUMPDEST JUMPDEST PUSH1 0x20 MUL PUSH1 0x20 ADD ADD MLOAD PUSH1 0x20 ADD MLOAD PUSH1 0x1 DUP4 DUP4 DUP2 MLOAD DUP2 LT PUSH2 0x179 JUMPI PUSH2 0x178 PUSH2 0x83D JUMP JUMPDEST JUMPDEST PUSH1 0x20 MUL PUSH1 0x20 ADD ADD MLOAD PUSH0 ADD MLOAD PUSH1 0x40 MLOAD PUSH2 0x191 SWAP2 SWAP1 PUSH2 0x827 JUMP JUMPDEST SWAP1 DUP2 MSTORE PUSH1 0x20 ADD PUSH1 0x40 MLOAD DUP1 SWAP2 SUB SWAP1 KECCAK256 PUSH0 PUSH2 0x100 EXP DUP2 SLOAD DUP2 PUSH20 0xFFFFFFFFFFFFFFFFFFFFFFFFFFFFFFFFFFFFFFFF MUL NOT AND SWAP1 DUP4 PUSH20 0xFFFFFFFFFFFFFFFFFFFFFFFFFFFFFFFFFFFFFFFF AND MUL OR SWAP1 SSTORE POP DUP1 DUP1 PUSH1 0x1 ADD SWAP2 POP POP PUSH2 0x13C JUMP JUMPDEST POP POP JUMP JUMPDEST PUSH2 0x1F5 PUSH2 0x2AB JUMP JUMPDEST PUSH2 0x1FE PUSH0 PUSH2 0x332 JUMP JUMPDEST JUMP JUMPDEST PUSH0 PUSH0 PUSH0 SWAP1 SLOAD SWAP1 PUSH2 0x100 EXP SWAP1 DIV PUSH20 0xFFFFFFFFFFFFFFFFFFFFFFFFFFFFFFFFFFFFFFFF AND SWAP1 POP SWAP1 JUMP JUMPDEST PUSH2 0x22F PUSH2 0x2AB JUMP JUMPDEST PUSH0 PUSH20 0xFFFFFFFFFFFFFFFFFFFFFFFFFFFFFFFFFFFFFFFF AND DUP2 PUSH20 0xFFFFFFFFFFFFFFFFFFFFFFFFFFFFFFFFFFFFFFFF AND SUB PUSH2 0x29F JUMPI PUSH0 PUSH1 0x40 MLOAD PUSH32 0x1E4FBDF700000000000000000000000000000000000000000000000000000000 DUP2 MSTORE PUSH1 0x4 ADD PUSH2 0x296 SWAP2 SWAP1 PUSH2 0x5CD JUMP JUMPDEST PUSH1 0x40 MLOAD DUP1 SWAP2 SUB SWAP1 REVERT JUMPDEST PUSH2 0x2A8 DUP2 PUSH2 0x332 JUMP JUMPDEST POP JUMP JUMPDEST PUSH2 0x2B3 PUSH2 0x3F3 JUMP JUMPDEST PUSH20 0xFFFFFFFFFFFFFFFFFFFFFFFFFFFFFFFFFFFFFFFF AND PUSH2 0x2D1 PUSH2 0x200 JUMP JUMPDEST PUSH20 0xFFFFFFFFFFFFFFFFFFFFFFFFFFFFFFFFFFFFFFFF AND EQ PUSH2 0x330 JUMPI PUSH2 0x2F4 PUSH2 0x3F3 JUMP JUMPDEST PUSH1 0x40 MLOAD PUSH32 0x118CDAA700000000000000000000000000000000000000000000000000000000 DUP2 MSTORE PUSH1 0x4 ADD PUSH2 0x327 SWAP2 SWAP1 PUSH2 0x5CD JUMP JUMPDEST PUSH1 0x40 MLOAD DUP1 SWAP2 SUB SWAP1 REVERT JUMPDEST JUMP JUMPDEST PUSH0 PUSH0 PUSH0 SWAP1 SLOAD SWAP1 PUSH2 0x100 EXP SWAP1 DIV PUSH20 0xFFFFFFFFFFFFFFFFFFFFFFFFFFFFFFFFFFFFFFFF AND SWAP1 POP DUP2 PUSH0 PUSH0 PUSH2 0x100 EXP DUP2 SLOAD DUP2 PUSH20 0xFFFFFFFFFFFFFFFFFFFFFFFFFFFFFFFFFFFFFFFF MUL NOT AND SWAP1 DUP4 PUSH20 0xFFFFFFFFFFFFFFFFFFFFFFFFFFFFFFFFFFFFFFFF AND MUL OR SWAP1 SSTORE POP DUP2 PUSH20 0xFFFFFFFFFFFFFFFFFFFFFFFFFFFFFFFFFFFFFFFF AND DUP2 PUSH20 0xFFFFFFFFFFFFFFFFFFFFFFFFFFFFFFFFFFFFFFFF AND PUSH32 0x8BE0079C531659141344CD1FD0A4F28419497F9722A3DAAFE3B4186F6B6457E0 PUSH1 0x40 MLOAD PUSH1 0x40 MLOAD DUP1 SWAP2 SUB SWAP1 LOG3 POP POP JUMP JUMPDEST PUSH0 CALLER SWAP1 POP SWAP1 JUMP JUMPDEST PUSH0 PUSH1 0x40 MLOAD SWAP1 POP SWAP1 JUMP JUMPDEST PUSH0 PUSH0 REVERT JUMPDEST PUSH0 PUSH0 REVERT JUMPDEST PUSH0 PUSH0 REVERT JUMPDEST PUSH0 PUSH0 REVERT JUMPDEST PUSH0 PUSH1 0x1F NOT PUSH1 0x1F DUP4 ADD AND SWAP1 POP SWAP2 SWAP1 POP JUMP JUMPDEST PUSH32 0x4E487B7100000000000000000000000000000000000000000000000000000000 PUSH0 MSTORE PUSH1 0x41 PUSH1 0x4 MSTORE PUSH1 0x24 PUSH0 REVERT JUMPDEST PUSH2 0x459 DUP3 PUSH2 0x413 JUMP JUMPDEST DUP2 ADD DUP2 DUP2 LT PUSH8 0xFFFFFFFFFFFFFFFF DUP3 GT OR ISZERO PUSH2 0x478 JUMPI PUSH2 0x477 PUSH2 0x423 JUMP JUMPDEST JUMPDEST DUP1 PUSH1 0x40 MSTORE POP POP POP JUMP JUMPDEST PUSH0 PUSH2 0x48A PUSH2 0x3FA JUMP JUMPDEST SWAP1 POP PUSH2 0x496 DUP3 DUP3 PUSH2 0x450 JUMP JUMPDEST SWAP2 SWAP1 POP JUMP JUMPDEST PUSH0 PUSH8 0xFFFFFFFFFFFFFFFF DUP3 GT ISZERO PUSH2 0x4B5 JUMPI PUSH2 0x4B4 PUSH2 0x423 JUMP JUMPDEST JUMPDEST PUSH2 0x4BE DUP3 PUSH2 0x413 JUMP JUMPDEST SWAP1 POP PUSH1 0x20 DUP2 ADD SWAP1 POP SWAP2 SWAP1 POP JUMP JUMPDEST DUP3 DUP2 DUP4 CALLDATACOPY PUSH0 DUP4 DUP4 ADD MSTORE POP POP POP JUMP JUMPDEST PUSH0 PUSH2 0x4EB PUSH2 0x4E6 DUP5 PUSH2 0x49B JUMP JUMPDEST PUSH2 0x481 JUMP JUMPDEST SWAP1 POP DUP3 DUP2 MSTORE PUSH1 0x20 DUP2 ADD DUP5 DUP5 DUP5 ADD GT ISZERO PUSH2 0x507 JUMPI PUSH2 0x506 PUSH2 0x40F JUMP JUMPDEST JUMPDEST PUSH2 0x512 DUP5 DUP3 DUP6 PUSH2 0x4CB JUMP JUMPDEST POP SWAP4 SWAP3 POP POP POP JUMP JUMPDEST PUSH0 DUP3 PUSH1 0x1F DUP4 ADD SLT PUSH2 0x52E JUMPI PUSH2 0x52D PUSH2 0x40B JUMP JUMPDEST JUMPDEST DUP2 CALLDATALOAD PUSH2 0x53E DUP5 DUP3 PUSH1 0x20 DUP7 ADD PUSH2 0x4D9 JUMP JUMPDEST SWAP2 POP POP SWAP3 SWAP2 POP POP JUMP JUMPDEST PUSH0 PUSH1 0x20 DUP3 DUP5 SUB SLT ISZERO PUSH2 0x55C JUMPI PUSH2 0x55B PUSH2 0x403 JUMP JUMPDEST JUMPDEST PUSH0 DUP3 ADD CALLDATALOAD PUSH8 0xFFFFFFFFFFFFFFFF DUP2 GT ISZERO PUSH2 0x579 JUMPI PUSH2 0x578 PUSH2 0x407 JUMP JUMPDEST JUMPDEST PUSH2 0x585 DUP5 DUP3 DUP6 ADD PUSH2 0x51A JUMP JUMPDEST SWAP2 POP POP SWAP3 SWAP2 POP POP JUMP JUMPDEST PUSH0 PUSH20 0xFFFFFFFFFFFFFFFFFFFFFFFFFFFFFFFFFFFFFFFF DUP3 AND SWAP1 POP SWAP2 SWAP1 POP JUMP JUMPDEST PUSH0 PUSH2 0x5B7 DUP3 PUSH2 0x58E JUMP JUMPDEST SWAP1 POP SWAP2 SWAP1 POP JUMP JUMPDEST PUSH2 0x5C7 DUP2 PUSH2 0x5AD JUMP JUMPDEST DUP3 MSTORE POP POP JUMP JUMPDEST PUSH0 PUSH1 0x20 DUP3 ADD SWAP1 POP PUSH2 0x5E0 PUSH0 DUP4 ADD DUP5 PUSH2 0x5BE JUMP JUMPDEST SWAP3 SWAP2 POP POP JUMP JUMPDEST PUSH0 PUSH8 0xFFFFFFFFFFFFFFFF DUP3 GT ISZERO PUSH2 0x600 JUMPI PUSH2 0x5FF PUSH2 0x423 JUMP JUMPDEST JUMPDEST PUSH1 0x20 DUP3 MUL SWAP1 POP PUSH1 0x20 DUP2 ADD SWAP1 POP SWAP2 SWAP1 POP JUMP JUMPDEST PUSH0 PUSH0 REVERT JUMPDEST PUSH0 PUSH0 REVERT JUMPDEST PUSH0 PUSH0 REVERT JUMPDEST PUSH2 0x626 DUP2 PUSH2 0x5AD JUMP JUMPDEST DUP2 EQ PUSH2 0x630 JUMPI PUSH0 PUSH0 REVERT JUMPDEST POP JUMP JUMPDEST PUSH0 DUP2 CALLDATALOAD SWAP1 POP PUSH2 0x641 DUP2 PUSH2 0x61D JUMP JUMPDEST SWAP3 SWAP2 POP POP JUMP JUMPDEST PUSH0 PUSH1 0x40 DUP3 DUP5 SUB SLT ISZERO PUSH2 0x65C JUMPI PUSH2 0x65B PUSH2 0x615 JUMP JUMPDEST JUMPDEST PUSH2 0x666 PUSH1 0x40 PUSH2 0x481 JUMP JUMPDEST SWAP1 POP PUSH0 DUP3 ADD CALLDATALOAD PUSH8 0xFFFFFFFFFFFFFFFF DUP2 GT ISZERO PUSH2 0x685 JUMPI PUSH2 0x684 PUSH2 0x619 JUMP JUMPDEST JUMPDEST PUSH2 0x691 DUP5 DUP3 DUP6 ADD PUSH2 0x51A JUMP JUMPDEST PUSH0 DUP4 ADD MSTORE POP PUSH1 0x20 PUSH2 0x6A4 DUP5 DUP3 DUP6 ADD PUSH2 0x633 JUMP JUMPDEST PUSH1 0x20 DUP4 ADD MSTORE POP SWAP3 SWAP2 POP POP JUMP JUMPDEST PUSH0 PUSH2 0x6C2 PUSH2 0x6BD DUP5 PUSH2 0x5E6 JUMP JUMPDEST PUSH2 0x481 JUMP JUMPDEST SWAP1 POP DUP1 DUP4 DUP3 MSTORE PUSH1 0x20 DUP3 ADD SWAP1 POP PUSH1 0x20 DUP5 MUL DUP4 ADD DUP6 DUP2 GT ISZERO PUSH2 0x6E5 JUMPI PUSH2 0x6E4 PUSH2 0x611 JUMP JUMPDEST JUMPDEST DUP4 JUMPDEST DUP2 DUP2 LT ISZERO PUSH2 0x72C JUMPI DUP1 CALLDATALOAD PUSH8 0xFFFFFFFFFFFFFFFF DUP2 GT ISZERO PUSH2 0x70A JUMPI PUSH2 0x709 PUSH2 0x40B JUMP JUMPDEST JUMPDEST DUP1 DUP7 ADD PUSH2 0x717 DUP10 DUP3 PUSH2 0x647 JUMP JUMPDEST DUP6 MSTORE PUSH1 0x20 DUP6 ADD SWAP5 POP POP POP PUSH1 0x20 DUP2 ADD SWAP1 POP PUSH2 0x6E7 JUMP JUMPDEST POP POP POP SWAP4 SWAP3 POP POP POP JUMP JUMPDEST PUSH0 DUP3 PUSH1 0x1F DUP4 ADD SLT PUSH2 0x74A JUMPI PUSH2 0x749 PUSH2 0x40B JUMP JUMPDEST JUMPDEST DUP2 CALLDATALOAD PUSH2 0x75A DUP5 DUP3 PUSH1 0x20 DUP7 ADD PUSH2 0x6B0 JUMP JUMPDEST SWAP2 POP POP SWAP3 SWAP2 POP POP JUMP JUMPDEST PUSH0 PUSH1 0x20 DUP3 DUP5 SUB SLT ISZERO PUSH2 0x778 JUMPI PUSH2 0x777 PUSH2 0x403 JUMP JUMPDEST JUMPDEST PUSH0 DUP3 ADD CALLDATALOAD PUSH8 0xFFFFFFFFFFFFFFFF DUP2 GT ISZERO PUSH2 0x795 JUMPI PUSH2 0x794 PUSH2 0x407 JUMP JUMPDEST JUMPDEST PUSH2 0x7A1 DUP5 DUP3 DUP6 ADD PUSH2 0x736 JUMP JUMPDEST SWAP2 POP POP SWAP3 SWAP2 POP POP JUMP JUMPDEST PUSH0 PUSH1 0x20 DUP3 DUP5 SUB SLT ISZERO PUSH2 0x7BF JUMPI PUSH2 0x7BE PUSH2 0x403 JUMP JUMPDEST JUMPDEST PUSH0 PUSH2 0x7CC DUP5 DUP3 DUP6 ADD PUSH2 0x633 JUMP JUMPDEST SWAP2 POP POP SWAP3 SWAP2 POP POP JUMP JUMPDEST PUSH0 DUP2 MLOAD SWAP1 POP SWAP2 SWAP1 POP JUMP JUMPDEST PUSH0 DUP2 SWAP1 POP SWAP3 SWAP2 POP POP JUMP JUMPDEST DUP3 DUP2 DUP4 MCOPY PUSH0 DUP4 DUP4 ADD MSTORE POP POP POP JUMP JUMPDEST PUSH0 PUSH2 0x801 DUP3 PUSH2 0x7D5 JUMP JUMPDEST PUSH2 0x80B DUP2 DUP6 PUSH2 0x7DF JUMP JUMPDEST SWAP4 POP PUSH2 0x81B DUP2 DUP6 PUSH1 0x20 DUP7 ADD PUSH2 0x7E9 JUMP JUMPDEST DUP1 DUP5 ADD SWAP2 POP POP SWAP3 SWAP2 POP POP JUMP JUMPDEST PUSH0 PUSH2 0x832 DUP3 DUP5 PUSH2 0x7F7 JUMP JUMPDEST SWAP2 POP DUP2 SWAP1 POP SWAP3 SWAP2 POP POP JUMP JUMPDEST PUSH32 0x4E487B7100000000000000000000000000000000000000000000000000000000 PUSH0 MSTORE PUSH1 0x32 PUSH1 0x4 MSTORE PUSH1 0x24 PUSH0 REVERT INVALID LOG2 PUSH5 0x6970667358 0x22 SLT KECCAK256 CREATE2 BLOCKHASH 0xE2 0xFC 0x2A EOFCREATE 0xA 0xDF 0x4F ORIGIN COINBASE 0x26 JUMPF 0xD792 0xAD 0xEA ORIGIN 0xC6 DELEGATECALL RETURNCONTRACT 0xB5 CALLF 0xCE50 0xA9 0xA8 0xAB SLOAD 0x1F PREVRANDAO PUSH22 0x64736F6C634300081E00330000000000000000000000 "
				},
				"gasEstimates": {
					"creation": {
						"codeDepositCost": "441600",
						"executionCost": "infinite",
						"totalCost": "infinite"
					},
					"external": {
						"fetchFromDirectory(string)": "infinite",
						"owner()": "2558",
						"renounceOwnership()": "infinite",
						"transferOwnership(address)": "infinite",
						"updateDirectory((string,address)[])": "infinite"
					}
				},
				"methodIdentifiers": {
					"fetchFromDirectory(string)": "27262618",
					"owner()": "8da5cb5b",
					"renounceOwnership()": "715018a6",
					"transferOwnership(address)": "f2fde38b",
					"updateDirectory((string,address)[])": "333bbc2a"
				}
			},
			"storageLayout": {
				"storage": [
					{
						"astId": 8,
						"contract": "hopium/common/directory.sol:Directory",
						"label": "_owner",
						"offset": 0,
						"slot": "0",
						"type": "t_address"
					},
					{
						"astId": 194,
						"contract": "hopium/common/directory.sol:Directory",
						"label": "directory",
						"offset": 0,
						"slot": "1",
						"type": "t_mapping(t_string_memory_ptr,t_address)"
					}
				],
				"types": {
					"t_address": {
						"encoding": "inplace",
						"label": "address",
						"numberOfBytes": "20"
					},
					"t_mapping(t_string_memory_ptr,t_address)": {
						"encoding": "mapping",
						"key": "t_string_memory_ptr",
						"label": "mapping(string => address)",
						"numberOfBytes": "32",
						"value": "t_address"
					},
					"t_string_memory_ptr": {
						"encoding": "bytes",
						"label": "string",
						"numberOfBytes": "32"
					}
				}
			},
			"userdoc": {
				"kind": "user",
				"methods": {},
				"version": 1
			}
		}
	}
}