{
	"hopium/etf/main/etf-oracle.sol": {
		"EtfOracle": {
			"abi": [
				{
					"inputs": [
						{
							"internalType": "address",
							"name": "_directory",
							"type": "address"
						}
					],
					"stateMutability": "nonpayable",
					"type": "constructor"
				},
				{
					"inputs": [],
					"name": "Directory",
					"outputs": [
						{
							"internalType": "contract IDirectory",
							"name": "",
							"type": "address"
						}
					],
					"stateMutability": "view",
					"type": "function"
				},
				{
					"inputs": [
						{
							"internalType": "address",
							"name": "_directory",
							"type": "address"
						}
					],
					"name": "changeDirectoryAddress",
					"outputs": [],
					"stateMutability": "nonpayable",
					"type": "function"
				},
				{
					"inputs": [
						{
							"internalType": "string",
							"name": "_key",
							"type": "string"
						}
					],
					"name": "fetchFromDirectory",
					"outputs": [
						{
							"internalType": "address",
							"name": "",
							"type": "address"
						}
					],
					"stateMutability": "view",
					"type": "function"
				},
				{
					"inputs": [
						{
							"internalType": "uint256",
							"name": "etfId",
							"type": "uint256"
						}
					],
					"name": "getEtfUsdPrice",
					"outputs": [
						{
							"internalType": "uint256",
							"name": "",
							"type": "uint256"
						}
					],
					"stateMutability": "view",
					"type": "function"
				},
				{
					"inputs": [
						{
							"internalType": "uint256",
							"name": "etfId",
							"type": "uint256"
						}
					],
					"name": "getEtfWethPrice",
					"outputs": [
						{
							"internalType": "uint256",
							"name": "",
							"type": "uint256"
						}
					],
					"stateMutability": "view",
					"type": "function"
				},
				{
					"inputs": [
						{
							"internalType": "uint256",
							"name": "etfId",
							"type": "uint256"
						}
					],
					"name": "getStats",
					"outputs": [
						{
							"components": [
								{
									"components": [
										{
											"internalType": "uint256",
											"name": "eth18",
											"type": "uint256"
										},
										{
											"internalType": "uint256",
											"name": "usd18",
											"type": "uint256"
										}
									],
									"internalType": "struct EtfStats.EthUsd",
									"name": "price",
									"type": "tuple"
								},
								{
									"components": [
										{
											"internalType": "uint256",
											"name": "eth18",
											"type": "uint256"
										},
										{
											"internalType": "uint256",
											"name": "usd18",
											"type": "uint256"
										}
									],
									"internalType": "struct EtfStats.EthUsd",
									"name": "volume",
									"type": "tuple"
								},
								{
									"components": [
										{
											"internalType": "uint256",
											"name": "eth18",
											"type": "uint256"
										},
										{
											"internalType": "uint256",
											"name": "usd18",
											"type": "uint256"
										}
									],
									"internalType": "struct EtfStats.EthUsd",
									"name": "tvl",
									"type": "tuple"
								},
								{
									"internalType": "uint256",
									"name": "assetsLiquidityUsd",
									"type": "uint256"
								},
								{
									"internalType": "uint256",
									"name": "assetsMcapUsd",
									"type": "uint256"
								}
							],
							"internalType": "struct EtfStats.Stats",
							"name": "s",
							"type": "tuple"
						}
					],
					"stateMutability": "view",
					"type": "function"
				},
				{
					"inputs": [],
					"name": "owner",
					"outputs": [
						{
							"internalType": "address",
							"name": "",
							"type": "address"
						}
					],
					"stateMutability": "view",
					"type": "function"
				},
				{
					"inputs": [
						{
							"internalType": "uint256",
							"name": "etfId",
							"type": "uint256"
						}
					],
					"name": "snapshotVault",
					"outputs": [
						{
							"components": [
								{
									"internalType": "address",
									"name": "tokenAddress",
									"type": "address"
								},
								{
									"internalType": "uint8",
									"name": "tokenDecimals",
									"type": "uint8"
								},
								{
									"internalType": "uint16",
									"name": "currentWeight",
									"type": "uint16"
								},
								{
									"internalType": "uint256",
									"name": "tokenRawBalance",
									"type": "uint256"
								},
								{
									"internalType": "uint256",
									"name": "tokenPriceWeth18",
									"type": "uint256"
								},
								{
									"internalType": "uint256",
									"name": "tokenValueWeth18",
									"type": "uint256"
								}
							],
							"internalType": "struct Snapshot[]",
							"name": "s",
							"type": "tuple[]"
						},
						{
							"internalType": "uint256",
							"name": "etfTvlWeth",
							"type": "uint256"
						}
					],
					"stateMutability": "view",
					"type": "function"
				},
				{
					"inputs": [
						{
							"components": [
								{
									"internalType": "string",
									"name": "name",
									"type": "string"
								},
								{
									"internalType": "string",
									"name": "ticker",
									"type": "string"
								},
								{
									"components": [
										{
											"internalType": "address",
											"name": "tokenAddress",
											"type": "address"
										},
										{
											"internalType": "uint16",
											"name": "weightBips",
											"type": "uint16"
										}
									],
									"internalType": "struct Asset[]",
									"name": "assets",
									"type": "tuple[]"
								}
							],
							"internalType": "struct Etf",
							"name": "etf",
							"type": "tuple"
						},
						{
							"internalType": "address",
							"name": "vaultAddress",
							"type": "address"
						}
					],
					"name": "snapshotVaultUnchecked",
					"outputs": [
						{
							"components": [
								{
									"internalType": "address",
									"name": "tokenAddress",
									"type": "address"
								},
								{
									"internalType": "uint8",
									"name": "tokenDecimals",
									"type": "uint8"
								},
								{
									"internalType": "uint16",
									"name": "currentWeight",
									"type": "uint16"
								},
								{
									"internalType": "uint256",
									"name": "tokenRawBalance",
									"type": "uint256"
								},
								{
									"internalType": "uint256",
									"name": "tokenPriceWeth18",
									"type": "uint256"
								},
								{
									"internalType": "uint256",
									"name": "tokenValueWeth18",
									"type": "uint256"
								}
							],
							"internalType": "struct Snapshot[]",
							"name": "s",
							"type": "tuple[]"
						},
						{
							"internalType": "uint256",
							"name": "etfTvlWeth",
							"type": "uint256"
						}
					],
					"stateMutability": "view",
					"type": "function"
				},
				{
					"inputs": [
						{
							"internalType": "uint256",
							"name": "etfId",
							"type": "uint256"
						}
					],
					"name": "snapshotVaultWithUsd",
					"outputs": [
						{
							"components": [
								{
									"internalType": "address",
									"name": "tokenAddress",
									"type": "address"
								},
								{
									"internalType": "uint8",
									"name": "tokenDecimals",
									"type": "uint8"
								},
								{
									"internalType": "uint16",
									"name": "currentWeight",
									"type": "uint16"
								},
								{
									"internalType": "uint256",
									"name": "tokenRawBalance",
									"type": "uint256"
								},
								{
									"internalType": "uint256",
									"name": "tokenPriceWeth18",
									"type": "uint256"
								},
								{
									"internalType": "uint256",
									"name": "tokenPriceUsd18",
									"type": "uint256"
								},
								{
									"internalType": "uint256",
									"name": "tokenValueWeth18",
									"type": "uint256"
								},
								{
									"internalType": "uint256",
									"name": "tokenValueUsd18",
									"type": "uint256"
								}
							],
							"internalType": "struct SnapshotWithUsd[]",
							"name": "s",
							"type": "tuple[]"
						},
						{
							"internalType": "uint256",
							"name": "etfTvlWeth",
							"type": "uint256"
						},
						{
							"internalType": "uint256",
							"name": "etfTvlUsd",
							"type": "uint256"
						}
					],
					"stateMutability": "view",
					"type": "function"
				}
			],
			"devdoc": {
				"kind": "dev",
				"methods": {
					"getEtfUsdPrice(uint256)": {
						"details": "Uses the internal _convertWethToUsd helper for conversion."
					}
				},
				"version": 1
			},
			"evm": {
				"assembly": "    /* \"hopium/etf/main/etf-oracle.sol\":10012:11835  contract EtfOracle is ImDirectory, PriceHelpers, EtfStats {... */\n  mstore(0x40, 0x80)\n    /* \"hopium/etf/main/etf-oracle.sol\":10077:10135  constructor(address _directory) ImDirectory(_directory) {} */\n  callvalue\n  dup1\n  iszero\n  tag_1\n  jumpi\n  revert(0x00, 0x00)\ntag_1:\n  pop\n  mload(0x40)\n  sub(codesize, bytecodeSize)\n  dup1\n  bytecodeSize\n  dup4\n  codecopy\n  dup2\n  dup2\n  add\n  0x40\n  mstore\n  dup2\n  add\n  swap1\n  tag_2\n  swap2\n  swap1\n  tag_3\n  jump\t// in\ntag_2:\n    /* \"hopium/etf/main/etf-oracle.sol\":10121:10131  _directory */\n  dup1\n    /* \"hopium/common/interface/imDirectory.sol\":412:437  _setDirectory(_directory) */\n  tag_7\n    /* \"hopium/common/interface/imDirectory.sol\":426:436  _directory */\n  dup2\n    /* \"hopium/common/interface/imDirectory.sol\":412:425  _setDirectory */\n  shl(0x20, tag_8)\n    /* \"hopium/common/interface/imDirectory.sol\":412:437  _setDirectory(_directory) */\n  0x20\n  shr\n  jump\t// in\ntag_7:\n    /* \"hopium/common/interface/imDirectory.sol\":370:464  constructor(address _directory) {... */\n  pop\n    /* \"hopium/etf/main/etf-oracle.sol\":10077:10135  constructor(address _directory) ImDirectory(_directory) {} */\n  pop\n    /* \"hopium/etf/main/etf-oracle.sol\":10012:11835  contract EtfOracle is ImDirectory, PriceHelpers, EtfStats {... */\n  jump(tag_10)\n    /* \"hopium/common/interface/imDirectory.sol\":589:1050  function _setDirectory(address _directory) internal {... */\ntag_8:\n    /* \"hopium/common/interface/imDirectory.sol\":681:682  0 */\n  0x00\n    /* \"hopium/common/interface/imDirectory.sol\":659:683  _directory != address(0) */\n  0xffffffffffffffffffffffffffffffffffffffff\n  and\n    /* \"hopium/common/interface/imDirectory.sol\":659:669  _directory */\n  dup2\n    /* \"hopium/common/interface/imDirectory.sol\":659:683  _directory != address(0) */\n  0xffffffffffffffffffffffffffffffffffffffff\n  and\n  sub\n    /* \"hopium/common/interface/imDirectory.sol\":651:720  require(_directory != address(0), \"Directory cannot be zero address\") */\n  tag_12\n  jumpi\n  mload(0x40)\n  0x08c379a000000000000000000000000000000000000000000000000000000000\n  dup2\n  mstore\n  0x04\n  add\n  tag_13\n  swap1\n  tag_14\n  jump\t// in\ntag_13:\n  mload(0x40)\n  dup1\n  swap2\n  sub\n  swap1\n  revert\ntag_12:\n    /* \"hopium/common/interface/imDirectory.sol\":763:764  0 */\n  0x00\n    /* \"hopium/common/interface/imDirectory.sol\":738:748  _directory */\n  dup2\n    /* \"hopium/common/interface/imDirectory.sol\":738:760  _directory.code.length */\n  0xffffffffffffffffffffffffffffffffffffffff\n  and\n  extcodesize\n    /* \"hopium/common/interface/imDirectory.sol\":738:764  _directory.code.length > 0 */\n  gt\n    /* \"hopium/common/interface/imDirectory.sol\":730:797  require(_directory.code.length > 0, \"Directory must be a contract\") */\n  tag_15\n  jumpi\n  mload(0x40)\n  0x08c379a000000000000000000000000000000000000000000000000000000000\n  dup2\n  mstore\n  0x04\n  add\n  tag_16\n  swap1\n  tag_17\n  jump\t// in\ntag_16:\n  mload(0x40)\n  dup1\n  swap2\n  sub\n  swap1\n  revert\ntag_15:\n    /* \"hopium/common/interface/imDirectory.sol\":861:871  _directory */\n  dup1\n    /* \"hopium/common/interface/imDirectory.sol\":850:878  IDirectory(_directory).owner */\n  0xffffffffffffffffffffffffffffffffffffffff\n  and\n  0x8da5cb5b\n    /* \"hopium/common/interface/imDirectory.sol\":850:880  IDirectory(_directory).owner() */\n  mload(0x40)\n  dup2\n  0xffffffff\n  and\n  0xe0\n  shl\n  dup2\n  mstore\n  0x04\n  add\n  0x20\n  mload(0x40)\n  dup1\n  dup4\n  sub\n  dup2\n  dup7\n  gas\n  staticcall\n  swap3\n  pop\n  pop\n  pop\n  dup1\n  iszero\n  tag_18\n  jumpi\n  pop\n  mload(0x40)\n  returndatasize\n  not(0x1f)\n  0x1f\n  dup3\n  add\n  and\n  dup3\n  add\n  dup1\n  0x40\n  mstore\n  pop\n  dup2\n  add\n  swap1\n  tag_19\n  swap2\n  swap1\n  tag_3\n  jump\t// in\ntag_19:\n  0x01\ntag_18:\n    /* \"hopium/common/interface/imDirectory.sol\":846:1044  try IDirectory(_directory).owner() returns (address) {... */\n  tag_20\n  jumpi\n    /* \"hopium/common/interface/imDirectory.sol\":979:1033  revert(\"Directory address does not implement owner()\") */\n  mload(0x40)\n  0x08c379a000000000000000000000000000000000000000000000000000000000\n  dup2\n  mstore\n  0x04\n  add\n  tag_24\n  swap1\n  tag_25\n  jump\t// in\ntag_24:\n  mload(0x40)\n  dup1\n  swap2\n  sub\n  swap1\n  revert\n    /* \"hopium/common/interface/imDirectory.sol\":846:1044  try IDirectory(_directory).owner() returns (address) {... */\ntag_20:\n    /* \"hopium/common/interface/imDirectory.sol\":936:946  _directory */\n  dup2\n    /* \"hopium/common/interface/imDirectory.sol\":913:922  Directory */\n  0x00\n  0x00\n    /* \"hopium/common/interface/imDirectory.sol\":913:947  Directory = IDirectory(_directory) */\n  0x0100\n  exp\n  dup2\n  sload\n  dup2\n  0xffffffffffffffffffffffffffffffffffffffff\n  mul\n  not\n  and\n  swap1\n  dup4\n  0xffffffffffffffffffffffffffffffffffffffff\n  and\n  mul\n  or\n  swap1\n  sstore\n  pop\n    /* \"hopium/common/interface/imDirectory.sol\":881:958  returns (address) {... */\n  pop\n    /* \"hopium/common/interface/imDirectory.sol\":589:1050  function _setDirectory(address _directory) internal {... */\n  pop\n  jump\t// out\n    /* \"#utility.yul\":88:205   */\ntag_28:\n    /* \"#utility.yul\":197:198   */\n  0x00\n    /* \"#utility.yul\":194:195   */\n  0x00\n    /* \"#utility.yul\":187:199   */\n  revert\n    /* \"#utility.yul\":334:460   */\ntag_30:\n    /* \"#utility.yul\":371:378   */\n  0x00\n    /* \"#utility.yul\":411:453   */\n  0xffffffffffffffffffffffffffffffffffffffff\n    /* \"#utility.yul\":404:409   */\n  dup3\n    /* \"#utility.yul\":400:454   */\n  and\n    /* \"#utility.yul\":389:454   */\n  swap1\n  pop\n    /* \"#utility.yul\":334:460   */\n  swap2\n  swap1\n  pop\n  jump\t// out\n    /* \"#utility.yul\":466:562   */\ntag_31:\n    /* \"#utility.yul\":503:510   */\n  0x00\n    /* \"#utility.yul\":532:556   */\n  tag_47\n    /* \"#utility.yul\":550:555   */\n  dup3\n    /* \"#utility.yul\":532:556   */\n  tag_30\n  jump\t// in\ntag_47:\n    /* \"#utility.yul\":521:556   */\n  swap1\n  pop\n    /* \"#utility.yul\":466:562   */\n  swap2\n  swap1\n  pop\n  jump\t// out\n    /* \"#utility.yul\":568:690   */\ntag_32:\n    /* \"#utility.yul\":641:665   */\n  tag_49\n    /* \"#utility.yul\":659:664   */\n  dup2\n    /* \"#utility.yul\":641:665   */\n  tag_31\n  jump\t// in\ntag_49:\n    /* \"#utility.yul\":634:639   */\n  dup2\n    /* \"#utility.yul\":631:666   */\n  eq\n    /* \"#utility.yul\":621:684   */\n  tag_50\n  jumpi\n    /* \"#utility.yul\":680:681   */\n  0x00\n    /* \"#utility.yul\":677:678   */\n  0x00\n    /* \"#utility.yul\":670:682   */\n  revert\n    /* \"#utility.yul\":621:684   */\ntag_50:\n    /* \"#utility.yul\":568:690   */\n  pop\n  jump\t// out\n    /* \"#utility.yul\":696:839   */\ntag_33:\n    /* \"#utility.yul\":753:758   */\n  0x00\n    /* \"#utility.yul\":784:790   */\n  dup2\n    /* \"#utility.yul\":778:791   */\n  mload\n    /* \"#utility.yul\":769:791   */\n  swap1\n  pop\n    /* \"#utility.yul\":800:833   */\n  tag_52\n    /* \"#utility.yul\":827:832   */\n  dup2\n    /* \"#utility.yul\":800:833   */\n  tag_32\n  jump\t// in\ntag_52:\n    /* \"#utility.yul\":696:839   */\n  swap3\n  swap2\n  pop\n  pop\n  jump\t// out\n    /* \"#utility.yul\":845:1196   */\ntag_3:\n    /* \"#utility.yul\":915:921   */\n  0x00\n    /* \"#utility.yul\":964:966   */\n  0x20\n    /* \"#utility.yul\":952:961   */\n  dup3\n    /* \"#utility.yul\":943:950   */\n  dup5\n    /* \"#utility.yul\":939:962   */\n  sub\n    /* \"#utility.yul\":935:967   */\n  slt\n    /* \"#utility.yul\":932:1051   */\n  iszero\n  tag_54\n  jumpi\n    /* \"#utility.yul\":970:1049   */\n  tag_55\n  tag_28\n  jump\t// in\ntag_55:\n    /* \"#utility.yul\":932:1051   */\ntag_54:\n    /* \"#utility.yul\":1090:1091   */\n  0x00\n    /* \"#utility.yul\":1115:1179   */\n  tag_56\n    /* \"#utility.yul\":1171:1178   */\n  dup5\n    /* \"#utility.yul\":1162:1168   */\n  dup3\n    /* \"#utility.yul\":1151:1160   */\n  dup6\n    /* \"#utility.yul\":1147:1169   */\n  add\n    /* \"#utility.yul\":1115:1179   */\n  tag_33\n  jump\t// in\ntag_56:\n    /* \"#utility.yul\":1105:1179   */\n  swap2\n  pop\n    /* \"#utility.yul\":1061:1189   */\n  pop\n    /* \"#utility.yul\":845:1196   */\n  swap3\n  swap2\n  pop\n  pop\n  jump\t// out\n    /* \"#utility.yul\":1202:1371   */\ntag_34:\n    /* \"#utility.yul\":1286:1297   */\n  0x00\n    /* \"#utility.yul\":1320:1326   */\n  dup3\n    /* \"#utility.yul\":1315:1318   */\n  dup3\n    /* \"#utility.yul\":1308:1327   */\n  mstore\n    /* \"#utility.yul\":1360:1364   */\n  0x20\n    /* \"#utility.yul\":1355:1358   */\n  dup3\n    /* \"#utility.yul\":1351:1365   */\n  add\n    /* \"#utility.yul\":1336:1365   */\n  swap1\n  pop\n    /* \"#utility.yul\":1202:1371   */\n  swap3\n  swap2\n  pop\n  pop\n  jump\t// out\n    /* \"#utility.yul\":1377:1559   */\ntag_35:\n    /* \"#utility.yul\":1517:1551   */\n  0x4469726563746f72792063616e6e6f74206265207a65726f2061646472657373\n    /* \"#utility.yul\":1513:1514   */\n  0x00\n    /* \"#utility.yul\":1505:1511   */\n  dup3\n    /* \"#utility.yul\":1501:1515   */\n  add\n    /* \"#utility.yul\":1494:1552   */\n  mstore\n    /* \"#utility.yul\":1377:1559   */\n  pop\n  jump\t// out\n    /* \"#utility.yul\":1565:1931   */\ntag_36:\n    /* \"#utility.yul\":1707:1710   */\n  0x00\n    /* \"#utility.yul\":1728:1795   */\n  tag_60\n    /* \"#utility.yul\":1792:1794   */\n  0x20\n    /* \"#utility.yul\":1787:1790   */\n  dup4\n    /* \"#utility.yul\":1728:1795   */\n  tag_34\n  jump\t// in\ntag_60:\n    /* \"#utility.yul\":1721:1795   */\n  swap2\n  pop\n    /* \"#utility.yul\":1804:1897   */\n  tag_61\n    /* \"#utility.yul\":1893:1896   */\n  dup3\n    /* \"#utility.yul\":1804:1897   */\n  tag_35\n  jump\t// in\ntag_61:\n    /* \"#utility.yul\":1922:1924   */\n  0x20\n    /* \"#utility.yul\":1917:1920   */\n  dup3\n    /* \"#utility.yul\":1913:1925   */\n  add\n    /* \"#utility.yul\":1906:1925   */\n  swap1\n  pop\n    /* \"#utility.yul\":1565:1931   */\n  swap2\n  swap1\n  pop\n  jump\t// out\n    /* \"#utility.yul\":1937:2356   */\ntag_14:\n    /* \"#utility.yul\":2103:2107   */\n  0x00\n    /* \"#utility.yul\":2141:2143   */\n  0x20\n    /* \"#utility.yul\":2130:2139   */\n  dup3\n    /* \"#utility.yul\":2126:2144   */\n  add\n    /* \"#utility.yul\":2118:2144   */\n  swap1\n  pop\n    /* \"#utility.yul\":2190:2199   */\n  dup2\n    /* \"#utility.yul\":2184:2188   */\n  dup2\n    /* \"#utility.yul\":2180:2200   */\n  sub\n    /* \"#utility.yul\":2176:2177   */\n  0x00\n    /* \"#utility.yul\":2165:2174   */\n  dup4\n    /* \"#utility.yul\":2161:2178   */\n  add\n    /* \"#utility.yul\":2154:2201   */\n  mstore\n    /* \"#utility.yul\":2218:2349   */\n  tag_63\n    /* \"#utility.yul\":2344:2348   */\n  dup2\n    /* \"#utility.yul\":2218:2349   */\n  tag_36\n  jump\t// in\ntag_63:\n    /* \"#utility.yul\":2210:2349   */\n  swap1\n  pop\n    /* \"#utility.yul\":1937:2356   */\n  swap2\n  swap1\n  pop\n  jump\t// out\n    /* \"#utility.yul\":2362:2540   */\ntag_37:\n    /* \"#utility.yul\":2502:2532   */\n  0x4469726563746f7279206d757374206265206120636f6e747261637400000000\n    /* \"#utility.yul\":2498:2499   */\n  0x00\n    /* \"#utility.yul\":2490:2496   */\n  dup3\n    /* \"#utility.yul\":2486:2500   */\n  add\n    /* \"#utility.yul\":2479:2533   */\n  mstore\n    /* \"#utility.yul\":2362:2540   */\n  pop\n  jump\t// out\n    /* \"#utility.yul\":2546:2912   */\ntag_38:\n    /* \"#utility.yul\":2688:2691   */\n  0x00\n    /* \"#utility.yul\":2709:2776   */\n  tag_66\n    /* \"#utility.yul\":2773:2775   */\n  0x1c\n    /* \"#utility.yul\":2768:2771   */\n  dup4\n    /* \"#utility.yul\":2709:2776   */\n  tag_34\n  jump\t// in\ntag_66:\n    /* \"#utility.yul\":2702:2776   */\n  swap2\n  pop\n    /* \"#utility.yul\":2785:2878   */\n  tag_67\n    /* \"#utility.yul\":2874:2877   */\n  dup3\n    /* \"#utility.yul\":2785:2878   */\n  tag_37\n  jump\t// in\ntag_67:\n    /* \"#utility.yul\":2903:2905   */\n  0x20\n    /* \"#utility.yul\":2898:2901   */\n  dup3\n    /* \"#utility.yul\":2894:2906   */\n  add\n    /* \"#utility.yul\":2887:2906   */\n  swap1\n  pop\n    /* \"#utility.yul\":2546:2912   */\n  swap2\n  swap1\n  pop\n  jump\t// out\n    /* \"#utility.yul\":2918:3337   */\ntag_17:\n    /* \"#utility.yul\":3084:3088   */\n  0x00\n    /* \"#utility.yul\":3122:3124   */\n  0x20\n    /* \"#utility.yul\":3111:3120   */\n  dup3\n    /* \"#utility.yul\":3107:3125   */\n  add\n    /* \"#utility.yul\":3099:3125   */\n  swap1\n  pop\n    /* \"#utility.yul\":3171:3180   */\n  dup2\n    /* \"#utility.yul\":3165:3169   */\n  dup2\n    /* \"#utility.yul\":3161:3181   */\n  sub\n    /* \"#utility.yul\":3157:3158   */\n  0x00\n    /* \"#utility.yul\":3146:3155   */\n  dup4\n    /* \"#utility.yul\":3142:3159   */\n  add\n    /* \"#utility.yul\":3135:3182   */\n  mstore\n    /* \"#utility.yul\":3199:3330   */\n  tag_69\n    /* \"#utility.yul\":3325:3329   */\n  dup2\n    /* \"#utility.yul\":3199:3330   */\n  tag_38\n  jump\t// in\ntag_69:\n    /* \"#utility.yul\":3191:3330   */\n  swap1\n  pop\n    /* \"#utility.yul\":2918:3337   */\n  swap2\n  swap1\n  pop\n  jump\t// out\n    /* \"#utility.yul\":3343:3574   */\ntag_39:\n    /* \"#utility.yul\":3483:3517   */\n  0x4469726563746f7279206164647265737320646f6573206e6f7420696d706c65\n    /* \"#utility.yul\":3479:3480   */\n  0x00\n    /* \"#utility.yul\":3471:3477   */\n  dup3\n    /* \"#utility.yul\":3467:3481   */\n  add\n    /* \"#utility.yul\":3460:3518   */\n  mstore\n    /* \"#utility.yul\":3552:3566   */\n  0x6d656e74206f776e657228290000000000000000000000000000000000000000\n    /* \"#utility.yul\":3547:3549   */\n  0x20\n    /* \"#utility.yul\":3539:3545   */\n  dup3\n    /* \"#utility.yul\":3535:3550   */\n  add\n    /* \"#utility.yul\":3528:3567   */\n  mstore\n    /* \"#utility.yul\":3343:3574   */\n  pop\n  jump\t// out\n    /* \"#utility.yul\":3580:3946   */\ntag_40:\n    /* \"#utility.yul\":3722:3725   */\n  0x00\n    /* \"#utility.yul\":3743:3810   */\n  tag_72\n    /* \"#utility.yul\":3807:3809   */\n  0x2c\n    /* \"#utility.yul\":3802:3805   */\n  dup4\n    /* \"#utility.yul\":3743:3810   */\n  tag_34\n  jump\t// in\ntag_72:\n    /* \"#utility.yul\":3736:3810   */\n  swap2\n  pop\n    /* \"#utility.yul\":3819:3912   */\n  tag_73\n    /* \"#utility.yul\":3908:3911   */\n  dup3\n    /* \"#utility.yul\":3819:3912   */\n  tag_39\n  jump\t// in\ntag_73:\n    /* \"#utility.yul\":3937:3939   */\n  0x40\n    /* \"#utility.yul\":3932:3935   */\n  dup3\n    /* \"#utility.yul\":3928:3940   */\n  add\n    /* \"#utility.yul\":3921:3940   */\n  swap1\n  pop\n    /* \"#utility.yul\":3580:3946   */\n  swap2\n  swap1\n  pop\n  jump\t// out\n    /* \"#utility.yul\":3952:4371   */\ntag_25:\n    /* \"#utility.yul\":4118:4122   */\n  0x00\n    /* \"#utility.yul\":4156:4158   */\n  0x20\n    /* \"#utility.yul\":4145:4154   */\n  dup3\n    /* \"#utility.yul\":4141:4159   */\n  add\n    /* \"#utility.yul\":4133:4159   */\n  swap1\n  pop\n    /* \"#utility.yul\":4205:4214   */\n  dup2\n    /* \"#utility.yul\":4199:4203   */\n  dup2\n    /* \"#utility.yul\":4195:4215   */\n  sub\n    /* \"#utility.yul\":4191:4192   */\n  0x00\n    /* \"#utility.yul\":4180:4189   */\n  dup4\n    /* \"#utility.yul\":4176:4193   */\n  add\n    /* \"#utility.yul\":4169:4216   */\n  mstore\n    /* \"#utility.yul\":4233:4364   */\n  tag_75\n    /* \"#utility.yul\":4359:4363   */\n  dup2\n    /* \"#utility.yul\":4233:4364   */\n  tag_40\n  jump\t// in\ntag_75:\n    /* \"#utility.yul\":4225:4364   */\n  swap1\n  pop\n    /* \"#utility.yul\":3952:4371   */\n  swap2\n  swap1\n  pop\n  jump\t// out\n    /* \"hopium/etf/main/etf-oracle.sol\":10012:11835  contract EtfOracle is ImDirectory, PriceHelpers, EtfStats {... */\ntag_10:\n  dataSize(sub_0)\n  dup1\n  dataOffset(sub_0)\n  0x00\n  codecopy\n  0x00\n  return\nstop\n\nsub_0: assembly {\n        /* \"hopium/etf/main/etf-oracle.sol\":10012:11835  contract EtfOracle is ImDirectory, PriceHelpers, EtfStats {... */\n      mstore(0x40, 0x80)\n      callvalue\n      dup1\n      iszero\n      tag_1\n      jumpi\n      revert(0x00, 0x00)\n    tag_1:\n      pop\n      jumpi(tag_2, lt(calldatasize, 0x04))\n      shr(0xe0, calldataload(0x00))\n      dup1\n      0x812efc8e\n      gt\n      tag_13\n      jumpi\n      dup1\n      0x812efc8e\n      eq\n      tag_8\n      jumpi\n      dup1\n      0x8da5cb5b\n      eq\n      tag_9\n      jumpi\n      dup1\n      0xba4c7be1\n      eq\n      tag_10\n      jumpi\n      dup1\n      0xcd8d334f\n      eq\n      tag_11\n      jumpi\n      dup1\n      0xee0d96c5\n      eq\n      tag_12\n      jumpi\n      jump(tag_2)\n    tag_13:\n      dup1\n      0x0705a3e8\n      eq\n      tag_3\n      jumpi\n      dup1\n      0x13290a89\n      eq\n      tag_4\n      jumpi\n      dup1\n      0x27262618\n      eq\n      tag_5\n      jumpi\n      dup1\n      0x658a847a\n      eq\n      tag_6\n      jumpi\n      dup1\n      0x7b303965\n      eq\n      tag_7\n      jumpi\n    tag_2:\n      revert(0x00, 0x00)\n        /* \"hopium/etf/main/etf-oracle.sol\":10564:10861  function getEtfUsdPrice(uint256 etfId) external view returns (uint256) {... */\n    tag_3:\n      tag_14\n      0x04\n      dup1\n      calldatasize\n      sub\n      dup2\n      add\n      swap1\n      tag_15\n      swap2\n      swap1\n      tag_16\n      jump\t// in\n    tag_15:\n      tag_17\n      jump\t// in\n    tag_14:\n      mload(0x40)\n      tag_18\n      swap2\n      swap1\n      tag_19\n      jump\t// in\n    tag_18:\n      mload(0x40)\n      dup1\n      swap2\n      sub\n      swap1\n      return\n        /* \"hopium/etf/main/etf-oracle.sol\":10867:11118  function snapshotVault(uint256 etfId) external view returns (Snapshot[] memory s, uint256 etfTvlWeth) {... */\n    tag_4:\n      tag_20\n      0x04\n      dup1\n      calldatasize\n      sub\n      dup2\n      add\n      swap1\n      tag_21\n      swap2\n      swap1\n      tag_16\n      jump\t// in\n    tag_21:\n      tag_22\n      jump\t// in\n    tag_20:\n      mload(0x40)\n      tag_23\n      swap3\n      swap2\n      swap1\n      tag_24\n      jump\t// in\n    tag_23:\n      mload(0x40)\n      dup1\n      swap2\n      sub\n      swap1\n      return\n        /* \"hopium/common/interface/imDirectory.sol\":1272:1408  function fetchFromDirectory(string memory _key) public view returns (address) {... */\n    tag_5:\n      tag_25\n      0x04\n      dup1\n      calldatasize\n      sub\n      dup2\n      add\n      swap1\n      tag_26\n      swap2\n      swap1\n      tag_27\n      jump\t// in\n    tag_26:\n      tag_28\n      jump\t// in\n    tag_25:\n      mload(0x40)\n      tag_29\n      swap2\n      swap1\n      tag_30\n      jump\t// in\n    tag_29:\n      mload(0x40)\n      dup1\n      swap2\n      sub\n      swap1\n      return\n        /* \"hopium/common/interface/imDirectory.sol\":336:363  IDirectory public Directory */\n    tag_6:\n      tag_31\n      tag_32\n      jump\t// in\n    tag_31:\n      mload(0x40)\n      tag_33\n      swap2\n      swap1\n      tag_34\n      jump\t// in\n    tag_33:\n      mload(0x40)\n      dup1\n      swap2\n      sub\n      swap1\n      return\n        /* \"hopium/etf/main/etf-oracle.sol\":11618:11833  function getStats(uint256 etfId) external view returns (Stats memory s) {... */\n    tag_7:\n      tag_35\n      0x04\n      dup1\n      calldatasize\n      sub\n      dup2\n      add\n      swap1\n      tag_36\n      swap2\n      swap1\n      tag_16\n      jump\t// in\n    tag_36:\n      tag_37\n      jump\t// in\n    tag_35:\n      mload(0x40)\n      tag_38\n      swap2\n      swap1\n      tag_39\n      jump\t// in\n    tag_38:\n      mload(0x40)\n      dup1\n      swap2\n      sub\n      swap1\n      return\n        /* \"hopium/etf/main/etf-oracle.sol\":10199:10429  function getEtfWethPrice(uint256 etfId) external view returns (uint256) {... */\n    tag_8:\n      tag_40\n      0x04\n      dup1\n      calldatasize\n      sub\n      dup2\n      add\n      swap1\n      tag_41\n      swap2\n      swap1\n      tag_16\n      jump\t// in\n    tag_41:\n      tag_42\n      jump\t// in\n    tag_40:\n      mload(0x40)\n      tag_43\n      swap2\n      swap1\n      tag_19\n      jump\t// in\n    tag_43:\n      mload(0x40)\n      dup1\n      swap2\n      sub\n      swap1\n      return\n        /* \"hopium/common/interface/imDirectory.sol\":1178:1266  function owner() public view returns (address) {... */\n    tag_9:\n      tag_44\n      tag_45\n      jump\t// in\n    tag_44:\n      mload(0x40)\n      tag_46\n      swap2\n      swap1\n      tag_30\n      jump\t// in\n    tag_46:\n      mload(0x40)\n      dup1\n      swap2\n      sub\n      swap1\n      return\n        /* \"hopium/common/interface/imDirectory.sol\":470:583  function changeDirectoryAddress(address _directory) external onlyOwner {... */\n    tag_10:\n      tag_47\n      0x04\n      dup1\n      calldatasize\n      sub\n      dup2\n      add\n      swap1\n      tag_48\n      swap2\n      swap1\n      tag_49\n      jump\t// in\n    tag_48:\n      tag_50\n      jump\t// in\n    tag_47:\n      stop\n        /* \"hopium/etf/main/etf-oracle.sol\":11321:11612  function snapshotVaultWithUsd(uint256 etfId) external view returns (SnapshotWithUsd[] memory s, uint256 etfTvlWeth, uint256 etfTvlUsd) {... */\n    tag_11:\n      tag_51\n      0x04\n      dup1\n      calldatasize\n      sub\n      dup2\n      add\n      swap1\n      tag_52\n      swap2\n      swap1\n      tag_16\n      jump\t// in\n    tag_52:\n      tag_53\n      jump\t// in\n    tag_51:\n      mload(0x40)\n      tag_54\n      swap4\n      swap3\n      swap2\n      swap1\n      tag_55\n      jump\t// in\n    tag_54:\n      mload(0x40)\n      dup1\n      swap2\n      sub\n      swap1\n      return\n        /* \"hopium/etf/main/etf-oracle.sol\":11124:11315  function snapshotVaultUnchecked(Etf memory etf, address vaultAddress) external view returns (Snapshot[] memory s, uint256 etfTvlWeth) {... */\n    tag_12:\n      tag_56\n      0x04\n      dup1\n      calldatasize\n      sub\n      dup2\n      add\n      swap1\n      tag_57\n      swap2\n      swap1\n      tag_58\n      jump\t// in\n    tag_57:\n      tag_59\n      jump\t// in\n    tag_56:\n      mload(0x40)\n      tag_60\n      swap3\n      swap2\n      swap1\n      tag_24\n      jump\t// in\n    tag_60:\n      mload(0x40)\n      dup1\n      swap2\n      sub\n      swap1\n      return\n        /* \"hopium/etf/main/etf-oracle.sol\":10564:10861  function getEtfUsdPrice(uint256 etfId) external view returns (uint256) {... */\n    tag_17:\n        /* \"hopium/etf/main/etf-oracle.sol\":10626:10633  uint256 */\n      0x00\n        /* \"hopium/etf/main/etf-oracle.sol\":10646:10660  Etf memory etf */\n      0x00\n        /* \"hopium/etf/main/etf-oracle.sol\":10662:10682  address vaultAddress */\n      0x00\n        /* \"hopium/etf/main/etf-oracle.sol\":10686:10701  getEtfFactory() */\n      tag_62\n        /* \"hopium/etf/main/etf-oracle.sol\":10686:10699  getEtfFactory */\n      tag_63\n        /* \"hopium/etf/main/etf-oracle.sol\":10686:10701  getEtfFactory() */\n      jump\t// in\n    tag_62:\n        /* \"hopium/etf/main/etf-oracle.sol\":10686:10720  getEtfFactory().getEtfByIdAndVault */\n      0xffffffffffffffffffffffffffffffffffffffff\n      and\n      0x3088f069\n        /* \"hopium/etf/main/etf-oracle.sol\":10721:10726  etfId */\n      dup6\n        /* \"hopium/etf/main/etf-oracle.sol\":10686:10727  getEtfFactory().getEtfByIdAndVault(etfId) */\n      mload(0x40)\n      dup3\n      0xffffffff\n      and\n      0xe0\n      shl\n      dup2\n      mstore\n      0x04\n      add\n      tag_64\n      swap2\n      swap1\n      tag_19\n      jump\t// in\n    tag_64:\n      0x00\n      mload(0x40)\n      dup1\n      dup4\n      sub\n      dup2\n      dup7\n      gas\n      staticcall\n      iszero\n      dup1\n      iszero\n      tag_66\n      jumpi\n      returndatacopy(0x00, 0x00, returndatasize)\n      revert(0x00, returndatasize)\n    tag_66:\n      pop\n      pop\n      pop\n      pop\n      mload(0x40)\n      returndatasize\n      0x00\n      dup3\n      returndatacopy\n      returndatasize\n      not(0x1f)\n      0x1f\n      dup3\n      add\n      and\n      dup3\n      add\n      dup1\n      0x40\n      mstore\n      pop\n      dup2\n      add\n      swap1\n      tag_67\n      swap2\n      swap1\n      tag_68\n      jump\t// in\n    tag_67:\n        /* \"hopium/etf/main/etf-oracle.sol\":10645:10727  (Etf memory etf, address vaultAddress) = getEtfFactory().getEtfByIdAndVault(etfId) */\n      swap2\n      pop\n      swap2\n      pop\n        /* \"hopium/etf/main/etf-oracle.sol\":10737:10759  uint256 etfWethPrice18 */\n      0x00\n        /* \"hopium/etf/main/etf-oracle.sol\":10762:10804  _getEtfWethPrice(etfId, etf, vaultAddress) */\n      tag_69\n        /* \"hopium/etf/main/etf-oracle.sol\":10779:10784  etfId */\n      dup6\n        /* \"hopium/etf/main/etf-oracle.sol\":10786:10789  etf */\n      dup5\n        /* \"hopium/etf/main/etf-oracle.sol\":10791:10803  vaultAddress */\n      dup5\n        /* \"hopium/etf/main/etf-oracle.sol\":10762:10778  _getEtfWethPrice */\n      tag_70\n        /* \"hopium/etf/main/etf-oracle.sol\":10762:10804  _getEtfWethPrice(etfId, etf, vaultAddress) */\n      jump\t// in\n    tag_69:\n        /* \"hopium/etf/main/etf-oracle.sol\":10737:10804  uint256 etfWethPrice18 = _getEtfWethPrice(etfId, etf, vaultAddress) */\n      swap1\n      pop\n        /* \"hopium/etf/main/etf-oracle.sol\":10821:10854  _convertWethToUsd(etfWethPrice18) */\n      tag_71\n        /* \"hopium/etf/main/etf-oracle.sol\":10839:10853  etfWethPrice18 */\n      dup2\n        /* \"hopium/etf/main/etf-oracle.sol\":10821:10838  _convertWethToUsd */\n      tag_72\n        /* \"hopium/etf/main/etf-oracle.sol\":10821:10854  _convertWethToUsd(etfWethPrice18) */\n      jump\t// in\n    tag_71:\n        /* \"hopium/etf/main/etf-oracle.sol\":10814:10854  return _convertWethToUsd(etfWethPrice18) */\n      swap4\n      pop\n      pop\n      pop\n      pop\n        /* \"hopium/etf/main/etf-oracle.sol\":10564:10861  function getEtfUsdPrice(uint256 etfId) external view returns (uint256) {... */\n      swap2\n      swap1\n      pop\n      jump\t// out\n        /* \"hopium/etf/main/etf-oracle.sol\":10867:11118  function snapshotVault(uint256 etfId) external view returns (Snapshot[] memory s, uint256 etfTvlWeth) {... */\n    tag_22:\n        /* \"hopium/etf/main/etf-oracle.sol\":10928:10947  Snapshot[] memory s */\n      0x60\n        /* \"hopium/etf/main/etf-oracle.sol\":10949:10967  uint256 etfTvlWeth */\n      0x00\n        /* \"hopium/etf/main/etf-oracle.sol\":10980:10994  Etf memory etf */\n      0x00\n        /* \"hopium/etf/main/etf-oracle.sol\":10996:11016  address vaultAddress */\n      0x00\n        /* \"hopium/etf/main/etf-oracle.sol\":11020:11035  getEtfFactory() */\n      tag_74\n        /* \"hopium/etf/main/etf-oracle.sol\":11020:11033  getEtfFactory */\n      tag_63\n        /* \"hopium/etf/main/etf-oracle.sol\":11020:11035  getEtfFactory() */\n      jump\t// in\n    tag_74:\n        /* \"hopium/etf/main/etf-oracle.sol\":11020:11054  getEtfFactory().getEtfByIdAndVault */\n      0xffffffffffffffffffffffffffffffffffffffff\n      and\n      0x3088f069\n        /* \"hopium/etf/main/etf-oracle.sol\":11055:11060  etfId */\n      dup7\n        /* \"hopium/etf/main/etf-oracle.sol\":11020:11061  getEtfFactory().getEtfByIdAndVault(etfId) */\n      mload(0x40)\n      dup3\n      0xffffffff\n      and\n      0xe0\n      shl\n      dup2\n      mstore\n      0x04\n      add\n      tag_75\n      swap2\n      swap1\n      tag_19\n      jump\t// in\n    tag_75:\n      0x00\n      mload(0x40)\n      dup1\n      dup4\n      sub\n      dup2\n      dup7\n      gas\n      staticcall\n      iszero\n      dup1\n      iszero\n      tag_77\n      jumpi\n      returndatacopy(0x00, 0x00, returndatasize)\n      revert(0x00, returndatasize)\n    tag_77:\n      pop\n      pop\n      pop\n      pop\n      mload(0x40)\n      returndatasize\n      0x00\n      dup3\n      returndatacopy\n      returndatasize\n      not(0x1f)\n      0x1f\n      dup3\n      add\n      and\n      dup3\n      add\n      dup1\n      0x40\n      mstore\n      pop\n      dup2\n      add\n      swap1\n      tag_78\n      swap2\n      swap1\n      tag_68\n      jump\t// in\n    tag_78:\n        /* \"hopium/etf/main/etf-oracle.sol\":10979:11061  (Etf memory etf, address vaultAddress) = getEtfFactory().getEtfByIdAndVault(etfId) */\n      swap2\n      pop\n      swap2\n      pop\n        /* \"hopium/etf/main/etf-oracle.sol\":11078:11111  _snapshotVault(etf, vaultAddress) */\n      tag_79\n        /* \"hopium/etf/main/etf-oracle.sol\":11093:11096  etf */\n      dup3\n        /* \"hopium/etf/main/etf-oracle.sol\":11098:11110  vaultAddress */\n      dup3\n        /* \"hopium/etf/main/etf-oracle.sol\":11078:11092  _snapshotVault */\n      tag_80\n        /* \"hopium/etf/main/etf-oracle.sol\":11078:11111  _snapshotVault(etf, vaultAddress) */\n      jump\t// in\n    tag_79:\n        /* \"hopium/etf/main/etf-oracle.sol\":11071:11111  return _snapshotVault(etf, vaultAddress) */\n      swap4\n      pop\n      swap4\n      pop\n      pop\n      pop\n        /* \"hopium/etf/main/etf-oracle.sol\":10867:11118  function snapshotVault(uint256 etfId) external view returns (Snapshot[] memory s, uint256 etfTvlWeth) {... */\n      swap2\n      pop\n      swap2\n      jump\t// out\n        /* \"hopium/common/interface/imDirectory.sol\":1272:1408  function fetchFromDirectory(string memory _key) public view returns (address) {... */\n    tag_28:\n        /* \"hopium/common/interface/imDirectory.sol\":1341:1348  address */\n      0x00\n        /* \"hopium/common/interface/imDirectory.sol\":1367:1376  Directory */\n      0x00\n      0x00\n      swap1\n      sload\n      swap1\n      0x0100\n      exp\n      swap1\n      div\n      0xffffffffffffffffffffffffffffffffffffffff\n      and\n        /* \"hopium/common/interface/imDirectory.sol\":1367:1395  Directory.fetchFromDirectory */\n      0xffffffffffffffffffffffffffffffffffffffff\n      and\n      0x27262618\n        /* \"hopium/common/interface/imDirectory.sol\":1396:1400  _key */\n      dup4\n        /* \"hopium/common/interface/imDirectory.sol\":1367:1401  Directory.fetchFromDirectory(_key) */\n      mload(0x40)\n      dup3\n      0xffffffff\n      and\n      0xe0\n      shl\n      dup2\n      mstore\n      0x04\n      add\n      tag_82\n      swap2\n      swap1\n      tag_83\n      jump\t// in\n    tag_82:\n      0x20\n      mload(0x40)\n      dup1\n      dup4\n      sub\n      dup2\n      dup7\n      gas\n      staticcall\n      iszero\n      dup1\n      iszero\n      tag_85\n      jumpi\n      returndatacopy(0x00, 0x00, returndatasize)\n      revert(0x00, returndatasize)\n    tag_85:\n      pop\n      pop\n      pop\n      pop\n      mload(0x40)\n      returndatasize\n      not(0x1f)\n      0x1f\n      dup3\n      add\n      and\n      dup3\n      add\n      dup1\n      0x40\n      mstore\n      pop\n      dup2\n      add\n      swap1\n      tag_86\n      swap2\n      swap1\n      tag_87\n      jump\t// in\n    tag_86:\n        /* \"hopium/common/interface/imDirectory.sol\":1360:1401  return Directory.fetchFromDirectory(_key) */\n      swap1\n      pop\n        /* \"hopium/common/interface/imDirectory.sol\":1272:1408  function fetchFromDirectory(string memory _key) public view returns (address) {... */\n      swap2\n      swap1\n      pop\n      jump\t// out\n        /* \"hopium/common/interface/imDirectory.sol\":336:363  IDirectory public Directory */\n    tag_32:\n      0x00\n      0x00\n      swap1\n      sload\n      swap1\n      0x0100\n      exp\n      swap1\n      div\n      0xffffffffffffffffffffffffffffffffffffffff\n      and\n      dup2\n      jump\t// out\n        /* \"hopium/etf/main/etf-oracle.sol\":11618:11833  function getStats(uint256 etfId) external view returns (Stats memory s) {... */\n    tag_37:\n        /* \"hopium/etf/main/etf-oracle.sol\":11674:11688  Stats memory s */\n      tag_88\n      tag_89\n      jump\t// in\n    tag_88:\n        /* \"hopium/etf/main/etf-oracle.sol\":11701:11715  Etf memory etf */\n      0x00\n        /* \"hopium/etf/main/etf-oracle.sol\":11717:11733  address etfVault */\n      0x00\n        /* \"hopium/etf/main/etf-oracle.sol\":11737:11752  getEtfFactory() */\n      tag_91\n        /* \"hopium/etf/main/etf-oracle.sol\":11737:11750  getEtfFactory */\n      tag_63\n        /* \"hopium/etf/main/etf-oracle.sol\":11737:11752  getEtfFactory() */\n      jump\t// in\n    tag_91:\n        /* \"hopium/etf/main/etf-oracle.sol\":11737:11771  getEtfFactory().getEtfByIdAndVault */\n      0xffffffffffffffffffffffffffffffffffffffff\n      and\n      0x3088f069\n        /* \"hopium/etf/main/etf-oracle.sol\":11772:11777  etfId */\n      dup6\n        /* \"hopium/etf/main/etf-oracle.sol\":11737:11778  getEtfFactory().getEtfByIdAndVault(etfId) */\n      mload(0x40)\n      dup3\n      0xffffffff\n      and\n      0xe0\n      shl\n      dup2\n      mstore\n      0x04\n      add\n      tag_92\n      swap2\n      swap1\n      tag_19\n      jump\t// in\n    tag_92:\n      0x00\n      mload(0x40)\n      dup1\n      dup4\n      sub\n      dup2\n      dup7\n      gas\n      staticcall\n      iszero\n      dup1\n      iszero\n      tag_94\n      jumpi\n      returndatacopy(0x00, 0x00, returndatasize)\n      revert(0x00, returndatasize)\n    tag_94:\n      pop\n      pop\n      pop\n      pop\n      mload(0x40)\n      returndatasize\n      0x00\n      dup3\n      returndatacopy\n      returndatasize\n      not(0x1f)\n      0x1f\n      dup3\n      add\n      and\n      dup3\n      add\n      dup1\n      0x40\n      mstore\n      pop\n      dup2\n      add\n      swap1\n      tag_95\n      swap2\n      swap1\n      tag_68\n      jump\t// in\n    tag_95:\n        /* \"hopium/etf/main/etf-oracle.sol\":11700:11778  (Etf memory etf, address etfVault) = getEtfFactory().getEtfByIdAndVault(etfId) */\n      swap2\n      pop\n      swap2\n      pop\n        /* \"hopium/etf/main/etf-oracle.sol\":11795:11826  _getStats(etfId, etf, etfVault) */\n      tag_96\n        /* \"hopium/etf/main/etf-oracle.sol\":11805:11810  etfId */\n      dup5\n        /* \"hopium/etf/main/etf-oracle.sol\":11812:11815  etf */\n      dup4\n        /* \"hopium/etf/main/etf-oracle.sol\":11817:11825  etfVault */\n      dup4\n        /* \"hopium/etf/main/etf-oracle.sol\":11795:11804  _getStats */\n      tag_97\n        /* \"hopium/etf/main/etf-oracle.sol\":11795:11826  _getStats(etfId, etf, etfVault) */\n      jump\t// in\n    tag_96:\n        /* \"hopium/etf/main/etf-oracle.sol\":11788:11826  return _getStats(etfId, etf, etfVault) */\n      swap3\n      pop\n      pop\n      pop\n        /* \"hopium/etf/main/etf-oracle.sol\":11618:11833  function getStats(uint256 etfId) external view returns (Stats memory s) {... */\n      swap2\n      swap1\n      pop\n      jump\t// out\n        /* \"hopium/etf/main/etf-oracle.sol\":10199:10429  function getEtfWethPrice(uint256 etfId) external view returns (uint256) {... */\n    tag_42:\n        /* \"hopium/etf/main/etf-oracle.sol\":10262:10269  uint256 */\n      0x00\n        /* \"hopium/etf/main/etf-oracle.sol\":10282:10296  Etf memory etf */\n      0x00\n        /* \"hopium/etf/main/etf-oracle.sol\":10298:10318  address vaultAddress */\n      0x00\n        /* \"hopium/etf/main/etf-oracle.sol\":10322:10337  getEtfFactory() */\n      tag_99\n        /* \"hopium/etf/main/etf-oracle.sol\":10322:10335  getEtfFactory */\n      tag_63\n        /* \"hopium/etf/main/etf-oracle.sol\":10322:10337  getEtfFactory() */\n      jump\t// in\n    tag_99:\n        /* \"hopium/etf/main/etf-oracle.sol\":10322:10356  getEtfFactory().getEtfByIdAndVault */\n      0xffffffffffffffffffffffffffffffffffffffff\n      and\n      0x3088f069\n        /* \"hopium/etf/main/etf-oracle.sol\":10357:10362  etfId */\n      dup6\n        /* \"hopium/etf/main/etf-oracle.sol\":10322:10363  getEtfFactory().getEtfByIdAndVault(etfId) */\n      mload(0x40)\n      dup3\n      0xffffffff\n      and\n      0xe0\n      shl\n      dup2\n      mstore\n      0x04\n      add\n      tag_100\n      swap2\n      swap1\n      tag_19\n      jump\t// in\n    tag_100:\n      0x00\n      mload(0x40)\n      dup1\n      dup4\n      sub\n      dup2\n      dup7\n      gas\n      staticcall\n      iszero\n      dup1\n      iszero\n      tag_102\n      jumpi\n      returndatacopy(0x00, 0x00, returndatasize)\n      revert(0x00, returndatasize)\n    tag_102:\n      pop\n      pop\n      pop\n      pop\n      mload(0x40)\n      returndatasize\n      0x00\n      dup3\n      returndatacopy\n      returndatasize\n      not(0x1f)\n      0x1f\n      dup3\n      add\n      and\n      dup3\n      add\n      dup1\n      0x40\n      mstore\n      pop\n      dup2\n      add\n      swap1\n      tag_103\n      swap2\n      swap1\n      tag_68\n      jump\t// in\n    tag_103:\n        /* \"hopium/etf/main/etf-oracle.sol\":10281:10363  (Etf memory etf, address vaultAddress) = getEtfFactory().getEtfByIdAndVault(etfId) */\n      swap2\n      pop\n      swap2\n      pop\n        /* \"hopium/etf/main/etf-oracle.sol\":10380:10422  _getEtfWethPrice(etfId, etf, vaultAddress) */\n      tag_104\n        /* \"hopium/etf/main/etf-oracle.sol\":10397:10402  etfId */\n      dup5\n        /* \"hopium/etf/main/etf-oracle.sol\":10404:10407  etf */\n      dup4\n        /* \"hopium/etf/main/etf-oracle.sol\":10409:10421  vaultAddress */\n      dup4\n        /* \"hopium/etf/main/etf-oracle.sol\":10380:10396  _getEtfWethPrice */\n      tag_70\n        /* \"hopium/etf/main/etf-oracle.sol\":10380:10422  _getEtfWethPrice(etfId, etf, vaultAddress) */\n      jump\t// in\n    tag_104:\n        /* \"hopium/etf/main/etf-oracle.sol\":10373:10422  return _getEtfWethPrice(etfId, etf, vaultAddress) */\n      swap3\n      pop\n      pop\n      pop\n        /* \"hopium/etf/main/etf-oracle.sol\":10199:10429  function getEtfWethPrice(uint256 etfId) external view returns (uint256) {... */\n      swap2\n      swap1\n      pop\n      jump\t// out\n        /* \"hopium/common/interface/imDirectory.sol\":1178:1266  function owner() public view returns (address) {... */\n    tag_45:\n        /* \"hopium/common/interface/imDirectory.sol\":1216:1223  address */\n      0x00\n        /* \"hopium/common/interface/imDirectory.sol\":1242:1251  Directory */\n      0x00\n      0x00\n      swap1\n      sload\n      swap1\n      0x0100\n      exp\n      swap1\n      div\n      0xffffffffffffffffffffffffffffffffffffffff\n      and\n        /* \"hopium/common/interface/imDirectory.sol\":1242:1257  Directory.owner */\n      0xffffffffffffffffffffffffffffffffffffffff\n      and\n      0x8da5cb5b\n        /* \"hopium/common/interface/imDirectory.sol\":1242:1259  Directory.owner() */\n      mload(0x40)\n      dup2\n      0xffffffff\n      and\n      0xe0\n      shl\n      dup2\n      mstore\n      0x04\n      add\n      0x20\n      mload(0x40)\n      dup1\n      dup4\n      sub\n      dup2\n      dup7\n      gas\n      staticcall\n      iszero\n      dup1\n      iszero\n      tag_107\n      jumpi\n      returndatacopy(0x00, 0x00, returndatasize)\n      revert(0x00, returndatasize)\n    tag_107:\n      pop\n      pop\n      pop\n      pop\n      mload(0x40)\n      returndatasize\n      not(0x1f)\n      0x1f\n      dup3\n      add\n      and\n      dup3\n      add\n      dup1\n      0x40\n      mstore\n      pop\n      dup2\n      add\n      swap1\n      tag_108\n      swap2\n      swap1\n      tag_87\n      jump\t// in\n    tag_108:\n        /* \"hopium/common/interface/imDirectory.sol\":1235:1259  return Directory.owner() */\n      swap1\n      pop\n        /* \"hopium/common/interface/imDirectory.sol\":1178:1266  function owner() public view returns (address) {... */\n      swap1\n      jump\t// out\n        /* \"hopium/common/interface/imDirectory.sol\":470:583  function changeDirectoryAddress(address _directory) external onlyOwner {... */\n    tag_50:\n        /* \"hopium/common/interface/imDirectory.sol\":1109:1118  Directory */\n      0x00\n      0x00\n      swap1\n      sload\n      swap1\n      0x0100\n      exp\n      swap1\n      div\n      0xffffffffffffffffffffffffffffffffffffffff\n      and\n        /* \"hopium/common/interface/imDirectory.sol\":1109:1124  Directory.owner */\n      0xffffffffffffffffffffffffffffffffffffffff\n      and\n      0x8da5cb5b\n        /* \"hopium/common/interface/imDirectory.sol\":1109:1126  Directory.owner() */\n      mload(0x40)\n      dup2\n      0xffffffff\n      and\n      0xe0\n      shl\n      dup2\n      mstore\n      0x04\n      add\n      0x20\n      mload(0x40)\n      dup1\n      dup4\n      sub\n      dup2\n      dup7\n      gas\n      staticcall\n      iszero\n      dup1\n      iszero\n      tag_111\n      jumpi\n      returndatacopy(0x00, 0x00, returndatasize)\n      revert(0x00, returndatasize)\n    tag_111:\n      pop\n      pop\n      pop\n      pop\n      mload(0x40)\n      returndatasize\n      not(0x1f)\n      0x1f\n      dup3\n      add\n      and\n      dup3\n      add\n      dup1\n      0x40\n      mstore\n      pop\n      dup2\n      add\n      swap1\n      tag_112\n      swap2\n      swap1\n      tag_87\n      jump\t// in\n    tag_112:\n        /* \"hopium/common/interface/imDirectory.sol\":1095:1126  msg.sender == Directory.owner() */\n      0xffffffffffffffffffffffffffffffffffffffff\n      and\n        /* \"hopium/common/interface/imDirectory.sol\":1095:1105  msg.sender */\n      caller\n        /* \"hopium/common/interface/imDirectory.sol\":1095:1126  msg.sender == Directory.owner() */\n      0xffffffffffffffffffffffffffffffffffffffff\n      and\n      eq\n        /* \"hopium/common/interface/imDirectory.sol\":1087:1154  require(msg.sender == Directory.owner(), \"Caller is not the owner\") */\n      tag_113\n      jumpi\n      mload(0x40)\n      0x08c379a000000000000000000000000000000000000000000000000000000000\n      dup2\n      mstore\n      0x04\n      add\n      tag_114\n      swap1\n      tag_115\n      jump\t// in\n    tag_114:\n      mload(0x40)\n      dup1\n      swap2\n      sub\n      swap1\n      revert\n    tag_113:\n        /* \"hopium/common/interface/imDirectory.sol\":551:576  _setDirectory(_directory) */\n      tag_117\n        /* \"hopium/common/interface/imDirectory.sol\":565:575  _directory */\n      dup2\n        /* \"hopium/common/interface/imDirectory.sol\":551:564  _setDirectory */\n      tag_118\n        /* \"hopium/common/interface/imDirectory.sol\":551:576  _setDirectory(_directory) */\n      jump\t// in\n    tag_117:\n        /* \"hopium/common/interface/imDirectory.sol\":470:583  function changeDirectoryAddress(address _directory) external onlyOwner {... */\n      pop\n      jump\t// out\n        /* \"hopium/etf/main/etf-oracle.sol\":11321:11612  function snapshotVaultWithUsd(uint256 etfId) external view returns (SnapshotWithUsd[] memory s, uint256 etfTvlWeth, uint256 etfTvlUsd) {... */\n    tag_53:\n        /* \"hopium/etf/main/etf-oracle.sol\":11389:11415  SnapshotWithUsd[] memory s */\n      0x60\n        /* \"hopium/etf/main/etf-oracle.sol\":11417:11435  uint256 etfTvlWeth */\n      0x00\n        /* \"hopium/etf/main/etf-oracle.sol\":11437:11454  uint256 etfTvlUsd */\n      0x00\n        /* \"hopium/etf/main/etf-oracle.sol\":11467:11481  Etf memory etf */\n      0x00\n        /* \"hopium/etf/main/etf-oracle.sol\":11483:11503  address vaultAddress */\n      0x00\n        /* \"hopium/etf/main/etf-oracle.sol\":11507:11522  getEtfFactory() */\n      tag_120\n        /* \"hopium/etf/main/etf-oracle.sol\":11507:11520  getEtfFactory */\n      tag_63\n        /* \"hopium/etf/main/etf-oracle.sol\":11507:11522  getEtfFactory() */\n      jump\t// in\n    tag_120:\n        /* \"hopium/etf/main/etf-oracle.sol\":11507:11541  getEtfFactory().getEtfByIdAndVault */\n      0xffffffffffffffffffffffffffffffffffffffff\n      and\n      0x3088f069\n        /* \"hopium/etf/main/etf-oracle.sol\":11542:11547  etfId */\n      dup8\n        /* \"hopium/etf/main/etf-oracle.sol\":11507:11548  getEtfFactory().getEtfByIdAndVault(etfId) */\n      mload(0x40)\n      dup3\n      0xffffffff\n      and\n      0xe0\n      shl\n      dup2\n      mstore\n      0x04\n      add\n      tag_121\n      swap2\n      swap1\n      tag_19\n      jump\t// in\n    tag_121:\n      0x00\n      mload(0x40)\n      dup1\n      dup4\n      sub\n      dup2\n      dup7\n      gas\n      staticcall\n      iszero\n      dup1\n      iszero\n      tag_123\n      jumpi\n      returndatacopy(0x00, 0x00, returndatasize)\n      revert(0x00, returndatasize)\n    tag_123:\n      pop\n      pop\n      pop\n      pop\n      mload(0x40)\n      returndatasize\n      0x00\n      dup3\n      returndatacopy\n      returndatasize\n      not(0x1f)\n      0x1f\n      dup3\n      add\n      and\n      dup3\n      add\n      dup1\n      0x40\n      mstore\n      pop\n      dup2\n      add\n      swap1\n      tag_124\n      swap2\n      swap1\n      tag_68\n      jump\t// in\n    tag_124:\n        /* \"hopium/etf/main/etf-oracle.sol\":11466:11548  (Etf memory etf, address vaultAddress) = getEtfFactory().getEtfByIdAndVault(etfId) */\n      swap2\n      pop\n      swap2\n      pop\n        /* \"hopium/etf/main/etf-oracle.sol\":11565:11605  _snapshotVaultWithUsd(etf, vaultAddress) */\n      tag_125\n        /* \"hopium/etf/main/etf-oracle.sol\":11587:11590  etf */\n      dup3\n        /* \"hopium/etf/main/etf-oracle.sol\":11592:11604  vaultAddress */\n      dup3\n        /* \"hopium/etf/main/etf-oracle.sol\":11565:11586  _snapshotVaultWithUsd */\n      tag_126\n        /* \"hopium/etf/main/etf-oracle.sol\":11565:11605  _snapshotVaultWithUsd(etf, vaultAddress) */\n      jump\t// in\n    tag_125:\n        /* \"hopium/etf/main/etf-oracle.sol\":11558:11605  return _snapshotVaultWithUsd(etf, vaultAddress) */\n      swap5\n      pop\n      swap5\n      pop\n      swap5\n      pop\n      pop\n      pop\n        /* \"hopium/etf/main/etf-oracle.sol\":11321:11612  function snapshotVaultWithUsd(uint256 etfId) external view returns (SnapshotWithUsd[] memory s, uint256 etfTvlWeth, uint256 etfTvlUsd) {... */\n      swap2\n      swap4\n      swap1\n      swap3\n      pop\n      jump\t// out\n        /* \"hopium/etf/main/etf-oracle.sol\":11124:11315  function snapshotVaultUnchecked(Etf memory etf, address vaultAddress) external view returns (Snapshot[] memory s, uint256 etfTvlWeth) {... */\n    tag_59:\n        /* \"hopium/etf/main/etf-oracle.sol\":11217:11236  Snapshot[] memory s */\n      0x60\n        /* \"hopium/etf/main/etf-oracle.sol\":11238:11256  uint256 etfTvlWeth */\n      0x00\n        /* \"hopium/etf/main/etf-oracle.sol\":11275:11308  _snapshotVault(etf, vaultAddress) */\n      tag_128\n        /* \"hopium/etf/main/etf-oracle.sol\":11290:11293  etf */\n      dup5\n        /* \"hopium/etf/main/etf-oracle.sol\":11295:11307  vaultAddress */\n      dup5\n        /* \"hopium/etf/main/etf-oracle.sol\":11275:11289  _snapshotVault */\n      tag_80\n        /* \"hopium/etf/main/etf-oracle.sol\":11275:11308  _snapshotVault(etf, vaultAddress) */\n      jump\t// in\n    tag_128:\n        /* \"hopium/etf/main/etf-oracle.sol\":11268:11308  return _snapshotVault(etf, vaultAddress) */\n      swap2\n      pop\n      swap2\n      pop\n        /* \"hopium/etf/main/etf-oracle.sol\":11124:11315  function snapshotVaultUnchecked(Etf memory etf, address vaultAddress) external view returns (Snapshot[] memory s, uint256 etfTvlWeth) {... */\n      swap3\n      pop\n      swap3\n      swap1\n      pop\n      jump\t// out\n        /* \"hopium/etf/interface/imEtfFactory.sol\":915:1054  function getEtfFactory() internal view virtual returns (IEtfFactory) {... */\n    tag_63:\n        /* \"hopium/etf/interface/imEtfFactory.sol\":971:982  IEtfFactory */\n      0x00\n        /* \"hopium/etf/interface/imEtfFactory.sol\":1013:1046  fetchFromDirectory(\"etf-factory\") */\n      tag_130\n      mload(0x40)\n      dup1\n      0x40\n      add\n      0x40\n      mstore\n      dup1\n      0x0b\n      dup2\n      mstore\n      0x20\n      add\n      0x6574662d666163746f7279000000000000000000000000000000000000000000\n      dup2\n      mstore\n      pop\n        /* \"hopium/etf/interface/imEtfFactory.sol\":1013:1031  fetchFromDirectory */\n      tag_28\n        /* \"hopium/etf/interface/imEtfFactory.sol\":1013:1046  fetchFromDirectory(\"etf-factory\") */\n      jump\t// in\n    tag_130:\n        /* \"hopium/etf/interface/imEtfFactory.sol\":994:1047  return IEtfFactory(fetchFromDirectory(\"etf-factory\")) */\n      swap1\n      pop\n        /* \"hopium/etf/interface/imEtfFactory.sol\":915:1054  function getEtfFactory() internal view virtual returns (IEtfFactory) {... */\n      swap1\n      jump\t// out\n        /* \"hopium/etf/main/etf-oracle.sol\":5803:6728  function _getEtfWethPrice(uint256 etfId, Etf memory etf, address etfVault) internal view returns (uint256) {... */\n    tag_70:\n        /* \"hopium/etf/main/etf-oracle.sol\":5901:5908  uint256 */\n      0x00\n        /* \"hopium/etf/main/etf-oracle.sol\":5949:5965  address etfToken */\n      0x00\n        /* \"hopium/etf/main/etf-oracle.sol\":5968:5983  getEtfFactory() */\n      tag_132\n        /* \"hopium/etf/main/etf-oracle.sol\":5968:5981  getEtfFactory */\n      tag_63\n        /* \"hopium/etf/main/etf-oracle.sol\":5968:5983  getEtfFactory() */\n      jump\t// in\n    tag_132:\n        /* \"hopium/etf/main/etf-oracle.sol\":5968:6002  getEtfFactory().getEtfTokenAddress */\n      0xffffffffffffffffffffffffffffffffffffffff\n      and\n      0xf2018a1f\n        /* \"hopium/etf/main/etf-oracle.sol\":6003:6008  etfId */\n      dup7\n        /* \"hopium/etf/main/etf-oracle.sol\":5968:6009  getEtfFactory().getEtfTokenAddress(etfId) */\n      mload(0x40)\n      dup3\n      0xffffffff\n      and\n      0xe0\n      shl\n      dup2\n      mstore\n      0x04\n      add\n      tag_133\n      swap2\n      swap1\n      tag_19\n      jump\t// in\n    tag_133:\n      0x20\n      mload(0x40)\n      dup1\n      dup4\n      sub\n      dup2\n      dup7\n      gas\n      staticcall\n      iszero\n      dup1\n      iszero\n      tag_135\n      jumpi\n      returndatacopy(0x00, 0x00, returndatasize)\n      revert(0x00, returndatasize)\n    tag_135:\n      pop\n      pop\n      pop\n      pop\n      mload(0x40)\n      returndatasize\n      not(0x1f)\n      0x1f\n      dup3\n      add\n      and\n      dup3\n      add\n      dup1\n      0x40\n      mstore\n      pop\n      dup2\n      add\n      swap1\n      tag_136\n      swap2\n      swap1\n      tag_87\n      jump\t// in\n    tag_136:\n        /* \"hopium/etf/main/etf-oracle.sol\":5949:6009  address etfToken = getEtfFactory().getEtfTokenAddress(etfId) */\n      swap1\n      pop\n        /* \"hopium/etf/main/etf-oracle.sol\":6059:6076  uint256 rawSupply */\n      0x00\n        /* \"hopium/etf/main/etf-oracle.sol\":6086:6094  etfToken */\n      dup2\n        /* \"hopium/etf/main/etf-oracle.sol\":6079:6107  IERC20(etfToken).totalSupply */\n      0xffffffffffffffffffffffffffffffffffffffff\n      and\n      0x18160ddd\n        /* \"hopium/etf/main/etf-oracle.sol\":6079:6109  IERC20(etfToken).totalSupply() */\n      mload(0x40)\n      dup2\n      0xffffffff\n      and\n      0xe0\n      shl\n      dup2\n      mstore\n      0x04\n      add\n      0x20\n      mload(0x40)\n      dup1\n      dup4\n      sub\n      dup2\n      dup7\n      gas\n      staticcall\n      iszero\n      dup1\n      iszero\n      tag_138\n      jumpi\n      returndatacopy(0x00, 0x00, returndatasize)\n      revert(0x00, returndatasize)\n    tag_138:\n      pop\n      pop\n      pop\n      pop\n      mload(0x40)\n      returndatasize\n      not(0x1f)\n      0x1f\n      dup3\n      add\n      and\n      dup3\n      add\n      dup1\n      0x40\n      mstore\n      pop\n      dup2\n      add\n      swap1\n      tag_139\n      swap2\n      swap1\n      tag_140\n      jump\t// in\n    tag_139:\n        /* \"hopium/etf/main/etf-oracle.sol\":6059:6109  uint256 rawSupply = IERC20(etfToken).totalSupply() */\n      swap1\n      pop\n        /* \"hopium/etf/main/etf-oracle.sol\":6119:6133  uint8   etfDec */\n      0x00\n        /* \"hopium/etf/main/etf-oracle.sol\":6153:6161  etfToken */\n      dup3\n        /* \"hopium/etf/main/etf-oracle.sol\":6138:6171  IERC20Metadata(etfToken).decimals */\n      0xffffffffffffffffffffffffffffffffffffffff\n      and\n      0x313ce567\n        /* \"hopium/etf/main/etf-oracle.sol\":6138:6173  IERC20Metadata(etfToken).decimals() */\n      mload(0x40)\n      dup2\n      0xffffffff\n      and\n      0xe0\n      shl\n      dup2\n      mstore\n      0x04\n      add\n      0x20\n      mload(0x40)\n      dup1\n      dup4\n      sub\n      dup2\n      dup7\n      gas\n      staticcall\n      iszero\n      dup1\n      iszero\n      tag_142\n      jumpi\n      returndatacopy(0x00, 0x00, returndatasize)\n      revert(0x00, returndatasize)\n    tag_142:\n      pop\n      pop\n      pop\n      pop\n      mload(0x40)\n      returndatasize\n      not(0x1f)\n      0x1f\n      dup3\n      add\n      and\n      dup3\n      add\n      dup1\n      0x40\n      mstore\n      pop\n      dup2\n      add\n      swap1\n      tag_143\n      swap2\n      swap1\n      tag_144\n      jump\t// in\n    tag_143:\n        /* \"hopium/etf/main/etf-oracle.sol\":6119:6173  uint8   etfDec   = IERC20Metadata(etfToken).decimals() */\n      swap1\n      pop\n        /* \"hopium/etf/main/etf-oracle.sol\":6200:6201  0 */\n      0x00\n        /* \"hopium/etf/main/etf-oracle.sol\":6187:6196  rawSupply */\n      dup3\n        /* \"hopium/etf/main/etf-oracle.sol\":6187:6201  rawSupply == 0 */\n      sub\n        /* \"hopium/etf/main/etf-oracle.sol\":6183:6308  if (rawSupply == 0) {... */\n      tag_145\n      jumpi\n        /* \"hopium/etf/main/etf-oracle.sol\":6273:6297  _getEtfInitialPrice(etf) */\n      tag_146\n        /* \"hopium/etf/main/etf-oracle.sol\":6293:6296  etf */\n      dup7\n        /* \"hopium/etf/main/etf-oracle.sol\":6273:6292  _getEtfInitialPrice */\n      tag_147\n        /* \"hopium/etf/main/etf-oracle.sol\":6273:6297  _getEtfInitialPrice(etf) */\n      jump\t// in\n    tag_146:\n        /* \"hopium/etf/main/etf-oracle.sol\":6266:6297  return _getEtfInitialPrice(etf) */\n      swap4\n      pop\n      pop\n      pop\n      pop\n      jump(tag_131)\n        /* \"hopium/etf/main/etf-oracle.sol\":6183:6308  if (rawSupply == 0) {... */\n    tag_145:\n        /* \"hopium/etf/main/etf-oracle.sol\":6317:6338  uint256 supplyWhole18 */\n      0x00\n        /* \"hopium/etf/main/etf-oracle.sol\":6341:6372  _scaleTo1e18(rawSupply, etfDec) */\n      tag_148\n        /* \"hopium/etf/main/etf-oracle.sol\":6354:6363  rawSupply */\n      dup4\n        /* \"hopium/etf/main/etf-oracle.sol\":6365:6371  etfDec */\n      dup4\n        /* \"hopium/etf/main/etf-oracle.sol\":6341:6353  _scaleTo1e18 */\n      tag_149\n        /* \"hopium/etf/main/etf-oracle.sol\":6341:6372  _scaleTo1e18(rawSupply, etfDec) */\n      jump\t// in\n    tag_148:\n        /* \"hopium/etf/main/etf-oracle.sol\":6317:6372  uint256 supplyWhole18 = _scaleTo1e18(rawSupply, etfDec) */\n      swap1\n      pop\n        /* \"hopium/etf/main/etf-oracle.sol\":6437:6438  0 */\n      0x00\n        /* \"hopium/etf/main/etf-oracle.sol\":6420:6433  supplyWhole18 */\n      dup2\n        /* \"hopium/etf/main/etf-oracle.sol\":6420:6438  supplyWhole18 == 0 */\n      sub\n        /* \"hopium/etf/main/etf-oracle.sol\":6416:6448  if (supplyWhole18 == 0) return 0 */\n      tag_150\n      jumpi\n        /* \"hopium/etf/main/etf-oracle.sol\":6447:6448  0 */\n      0x00\n        /* \"hopium/etf/main/etf-oracle.sol\":6440:6448  return 0 */\n      swap5\n      pop\n      pop\n      pop\n      pop\n      pop\n      jump(tag_131)\n        /* \"hopium/etf/main/etf-oracle.sol\":6416:6448  if (supplyWhole18 == 0) return 0 */\n    tag_150:\n        /* \"hopium/etf/main/etf-oracle.sol\":6511:6535  uint256 totalWethValue18 */\n      0x00\n        /* \"hopium/etf/main/etf-oracle.sol\":6538:6567  _getEtfTvlWeth(etf, etfVault) */\n      tag_151\n        /* \"hopium/etf/main/etf-oracle.sol\":6553:6556  etf */\n      dup9\n        /* \"hopium/etf/main/etf-oracle.sol\":6558:6566  etfVault */\n      dup9\n        /* \"hopium/etf/main/etf-oracle.sol\":6538:6552  _getEtfTvlWeth */\n      tag_152\n        /* \"hopium/etf/main/etf-oracle.sol\":6538:6567  _getEtfTvlWeth(etf, etfVault) */\n      jump\t// in\n    tag_151:\n        /* \"hopium/etf/main/etf-oracle.sol\":6511:6567  uint256 totalWethValue18 = _getEtfTvlWeth(etf, etfVault) */\n      swap1\n      pop\n        /* \"hopium/etf/main/etf-oracle.sol\":6668:6721  FullMath.mulDiv(totalWethValue18, WAD, supplyWhole18) */\n      tag_153\n        /* \"hopium/etf/main/etf-oracle.sol\":6684:6700  totalWethValue18 */\n      dup2\n        /* \"hopium/etf/main/etf-oracle.sol\":494:498  1e18 */\n      0x0de0b6b3a7640000\n        /* \"hopium/etf/main/etf-oracle.sol\":6707:6720  supplyWhole18 */\n      dup5\n        /* \"hopium/etf/main/etf-oracle.sol\":6668:6683  FullMath.mulDiv */\n      tag_154\n        /* \"hopium/etf/main/etf-oracle.sol\":6668:6721  FullMath.mulDiv(totalWethValue18, WAD, supplyWhole18) */\n      jump\t// in\n    tag_153:\n        /* \"hopium/etf/main/etf-oracle.sol\":6661:6721  return FullMath.mulDiv(totalWethValue18, WAD, supplyWhole18) */\n      swap6\n      pop\n      pop\n      pop\n      pop\n      pop\n      pop\n        /* \"hopium/etf/main/etf-oracle.sol\":5803:6728  function _getEtfWethPrice(uint256 etfId, Etf memory etf, address etfVault) internal view returns (uint256) {... */\n    tag_131:\n      swap4\n      swap3\n      pop\n      pop\n      pop\n      jump\t// out\n        /* \"hopium/etf/main/etf-oracle.sol\":1486:1867  function _convertWethToUsd(uint256 wethAmount18) internal view returns (uint256 usdAmount18) {... */\n    tag_72:\n        /* \"hopium/etf/main/etf-oracle.sol\":1558:1577  uint256 usdAmount18 */\n      0x00\n        /* \"hopium/etf/main/etf-oracle.sol\":1609:1610  0 */\n      0x00\n        /* \"hopium/etf/main/etf-oracle.sol\":1593:1605  wethAmount18 */\n      dup3\n        /* \"hopium/etf/main/etf-oracle.sol\":1593:1610  wethAmount18 == 0 */\n      sub\n        /* \"hopium/etf/main/etf-oracle.sol\":1589:1620  if (wethAmount18 == 0) return 0 */\n      tag_156\n      jumpi\n        /* \"hopium/etf/main/etf-oracle.sol\":1619:1620  0 */\n      0x00\n        /* \"hopium/etf/main/etf-oracle.sol\":1612:1620  return 0 */\n      swap1\n      pop\n      jump(tag_155)\n        /* \"hopium/etf/main/etf-oracle.sol\":1589:1620  if (wethAmount18 == 0) return 0 */\n    tag_156:\n        /* \"hopium/etf/main/etf-oracle.sol\":1630:1652  uint256 wethUsdPrice18 */\n      0x00\n        /* \"hopium/etf/main/etf-oracle.sol\":1655:1673  getUniswapOracle() */\n      tag_157\n        /* \"hopium/etf/main/etf-oracle.sol\":1655:1671  getUniswapOracle */\n      tag_158\n        /* \"hopium/etf/main/etf-oracle.sol\":1655:1673  getUniswapOracle() */\n      jump\t// in\n    tag_157:\n        /* \"hopium/etf/main/etf-oracle.sol\":1655:1689  getUniswapOracle().getWethUsdPrice */\n      0xffffffffffffffffffffffffffffffffffffffff\n      and\n      0x6855e939\n        /* \"hopium/etf/main/etf-oracle.sol\":1655:1691  getUniswapOracle().getWethUsdPrice() */\n      mload(0x40)\n      dup2\n      0xffffffff\n      and\n      0xe0\n      shl\n      dup2\n      mstore\n      0x04\n      add\n      0x20\n      mload(0x40)\n      dup1\n      dup4\n      sub\n      dup2\n      dup7\n      gas\n      staticcall\n      iszero\n      dup1\n      iszero\n      tag_160\n      jumpi\n      returndatacopy(0x00, 0x00, returndatasize)\n      revert(0x00, returndatasize)\n    tag_160:\n      pop\n      pop\n      pop\n      pop\n      mload(0x40)\n      returndatasize\n      not(0x1f)\n      0x1f\n      dup3\n      add\n      and\n      dup3\n      add\n      dup1\n      0x40\n      mstore\n      pop\n      dup2\n      add\n      swap1\n      tag_161\n      swap2\n      swap1\n      tag_140\n      jump\t// in\n    tag_161:\n        /* \"hopium/etf/main/etf-oracle.sol\":1630:1691  uint256 wethUsdPrice18 = getUniswapOracle().getWethUsdPrice() */\n      swap1\n      pop\n        /* \"hopium/etf/main/etf-oracle.sol\":1747:1748  0 */\n      0x00\n        /* \"hopium/etf/main/etf-oracle.sol\":1729:1743  wethUsdPrice18 */\n      dup2\n        /* \"hopium/etf/main/etf-oracle.sol\":1729:1748  wethUsdPrice18 == 0 */\n      sub\n        /* \"hopium/etf/main/etf-oracle.sol\":1725:1758  if (wethUsdPrice18 == 0) return 0 */\n      tag_162\n      jumpi\n        /* \"hopium/etf/main/etf-oracle.sol\":1757:1758  0 */\n      0x00\n        /* \"hopium/etf/main/etf-oracle.sol\":1750:1758  return 0 */\n      swap2\n      pop\n      pop\n      jump(tag_155)\n        /* \"hopium/etf/main/etf-oracle.sol\":1725:1758  if (wethUsdPrice18 == 0) return 0 */\n    tag_162:\n        /* \"hopium/etf/main/etf-oracle.sol\":1810:1860  FullMath.mulDiv(wethAmount18, wethUsdPrice18, WAD) */\n      tag_163\n        /* \"hopium/etf/main/etf-oracle.sol\":1826:1838  wethAmount18 */\n      dup4\n        /* \"hopium/etf/main/etf-oracle.sol\":1840:1854  wethUsdPrice18 */\n      dup3\n        /* \"hopium/etf/main/etf-oracle.sol\":494:498  1e18 */\n      0x0de0b6b3a7640000\n        /* \"hopium/etf/main/etf-oracle.sol\":1810:1825  FullMath.mulDiv */\n      tag_154\n        /* \"hopium/etf/main/etf-oracle.sol\":1810:1860  FullMath.mulDiv(wethAmount18, wethUsdPrice18, WAD) */\n      jump\t// in\n    tag_163:\n        /* \"hopium/etf/main/etf-oracle.sol\":1803:1860  return FullMath.mulDiv(wethAmount18, wethUsdPrice18, WAD) */\n      swap2\n      pop\n      pop\n        /* \"hopium/etf/main/etf-oracle.sol\":1486:1867  function _convertWethToUsd(uint256 wethAmount18) internal view returns (uint256 usdAmount18) {... */\n    tag_155:\n      swap2\n      swap1\n      pop\n      jump\t// out\n        /* \"hopium/etf/main/etf-oracle.sol\":1936:3510  function _snapshotVault(Etf memory etf, address etfVault)... */\n    tag_80:\n        /* \"hopium/etf/main/etf-oracle.sol\":2041:2060  Snapshot[] memory s */\n      0x60\n        /* \"hopium/etf/main/etf-oracle.sol\":2062:2080  uint256 etfTvlWeth */\n      0x00\n        /* \"hopium/etf/main/etf-oracle.sol\":2096:2105  uint256 n */\n      0x00\n        /* \"hopium/etf/main/etf-oracle.sol\":2108:2111  etf */\n      dup5\n        /* \"hopium/etf/main/etf-oracle.sol\":2108:2118  etf.assets */\n      0x40\n      add\n      mload\n        /* \"hopium/etf/main/etf-oracle.sol\":2108:2125  etf.assets.length */\n      mload\n        /* \"hopium/etf/main/etf-oracle.sol\":2096:2125  uint256 n = etf.assets.length */\n      swap1\n      pop\n        /* \"hopium/etf/main/etf-oracle.sol\":2154:2155  n */\n      dup1\n        /* \"hopium/etf/main/etf-oracle.sol\":2139:2156  new Snapshot[](n) */\n      0xffffffffffffffff\n      dup2\n      gt\n      iszero\n      tag_165\n      jumpi\n      tag_166\n      tag_167\n      jump\t// in\n    tag_166:\n    tag_165:\n      mload(0x40)\n      swap1\n      dup1\n      dup3\n      mstore\n      dup1\n      0x20\n      mul\n      0x20\n      add\n      dup3\n      add\n      0x40\n      mstore\n      dup1\n      iszero\n      tag_168\n      jumpi\n      dup2\n      0x20\n      add\n    tag_169:\n      tag_170\n      tag_171\n      jump\t// in\n    tag_170:\n      dup2\n      mstore\n      0x20\n      add\n      swap1\n      0x01\n      swap1\n      sub\n      swap1\n      dup2\n      tag_169\n      jumpi\n      swap1\n      pop\n    tag_168:\n      pop\n        /* \"hopium/etf/main/etf-oracle.sol\":2135:2156  s = new Snapshot[](n) */\n      swap3\n      pop\n        /* \"hopium/etf/main/etf-oracle.sol\":2167:2188  IUniswapOracle oracle */\n      0x00\n        /* \"hopium/etf/main/etf-oracle.sol\":2191:2209  getUniswapOracle() */\n      tag_172\n        /* \"hopium/etf/main/etf-oracle.sol\":2191:2207  getUniswapOracle */\n      tag_158\n        /* \"hopium/etf/main/etf-oracle.sol\":2191:2209  getUniswapOracle() */\n      jump\t// in\n    tag_172:\n        /* \"hopium/etf/main/etf-oracle.sol\":2167:2209  IUniswapOracle oracle = getUniswapOracle() */\n      swap1\n      pop\n        /* \"hopium/etf/main/etf-oracle.sol\":2310:2319  uint256 i */\n      0x00\n        /* \"hopium/etf/main/etf-oracle.sol\":2322:2323  0 */\n      0x00\n        /* \"hopium/etf/main/etf-oracle.sol\":2310:2323  uint256 i = 0 */\n      swap1\n      pop\n        /* \"hopium/etf/main/etf-oracle.sol\":2305:3124  for (uint256 i = 0; i < n; ++i) {... */\n    tag_173:\n        /* \"hopium/etf/main/etf-oracle.sol\":2329:2330  n */\n      dup3\n        /* \"hopium/etf/main/etf-oracle.sol\":2325:2326  i */\n      dup2\n        /* \"hopium/etf/main/etf-oracle.sol\":2325:2330  i < n */\n      lt\n        /* \"hopium/etf/main/etf-oracle.sol\":2305:3124  for (uint256 i = 0; i < n; ++i) {... */\n      iszero\n      tag_174\n      jumpi\n        /* \"hopium/etf/main/etf-oracle.sol\":2355:2364  address t */\n      0x00\n        /* \"hopium/etf/main/etf-oracle.sol\":2367:2370  etf */\n      dup8\n        /* \"hopium/etf/main/etf-oracle.sol\":2367:2377  etf.assets */\n      0x40\n      add\n      mload\n        /* \"hopium/etf/main/etf-oracle.sol\":2378:2379  i */\n      dup3\n        /* \"hopium/etf/main/etf-oracle.sol\":2367:2380  etf.assets[i] */\n      dup2\n      mload\n      dup2\n      lt\n      tag_176\n      jumpi\n      tag_177\n      tag_178\n      jump\t// in\n    tag_177:\n    tag_176:\n      0x20\n      mul\n      0x20\n      add\n      add\n      mload\n        /* \"hopium/etf/main/etf-oracle.sol\":2367:2393  etf.assets[i].tokenAddress */\n      0x00\n      add\n      mload\n        /* \"hopium/etf/main/etf-oracle.sol\":2355:2393  address t = etf.assets[i].tokenAddress */\n      swap1\n      pop\n        /* \"hopium/etf/main/etf-oracle.sol\":2411:2420  uint8   d */\n      0x00\n        /* \"hopium/etf/main/etf-oracle.sol\":2438:2439  t */\n      dup2\n        /* \"hopium/etf/main/etf-oracle.sol\":2423:2449  IERC20Metadata(t).decimals */\n      0xffffffffffffffffffffffffffffffffffffffff\n      and\n      0x313ce567\n        /* \"hopium/etf/main/etf-oracle.sol\":2423:2451  IERC20Metadata(t).decimals() */\n      mload(0x40)\n      dup2\n      0xffffffff\n      and\n      0xe0\n      shl\n      dup2\n      mstore\n      0x04\n      add\n      0x20\n      mload(0x40)\n      dup1\n      dup4\n      sub\n      dup2\n      dup7\n      gas\n      staticcall\n      iszero\n      dup1\n      iszero\n      tag_180\n      jumpi\n      returndatacopy(0x00, 0x00, returndatasize)\n      revert(0x00, returndatasize)\n    tag_180:\n      pop\n      pop\n      pop\n      pop\n      mload(0x40)\n      returndatasize\n      not(0x1f)\n      0x1f\n      dup3\n      add\n      and\n      dup3\n      add\n      dup1\n      0x40\n      mstore\n      pop\n      dup2\n      add\n      swap1\n      tag_181\n      swap2\n      swap1\n      tag_144\n      jump\t// in\n    tag_181:\n        /* \"hopium/etf/main/etf-oracle.sol\":2411:2451  uint8   d = IERC20Metadata(t).decimals() */\n      swap1\n      pop\n        /* \"hopium/etf/main/etf-oracle.sol\":2469:2480  uint256 bal */\n      0x00\n        /* \"hopium/etf/main/etf-oracle.sol\":2490:2491  t */\n      dup3\n        /* \"hopium/etf/main/etf-oracle.sol\":2483:2502  IERC20(t).balanceOf */\n      0xffffffffffffffffffffffffffffffffffffffff\n      and\n      0x70a08231\n        /* \"hopium/etf/main/etf-oracle.sol\":2503:2511  etfVault */\n      dup11\n        /* \"hopium/etf/main/etf-oracle.sol\":2483:2512  IERC20(t).balanceOf(etfVault) */\n      mload(0x40)\n      dup3\n      0xffffffff\n      and\n      0xe0\n      shl\n      dup2\n      mstore\n      0x04\n      add\n      tag_182\n      swap2\n      swap1\n      tag_30\n      jump\t// in\n    tag_182:\n      0x20\n      mload(0x40)\n      dup1\n      dup4\n      sub\n      dup2\n      dup7\n      gas\n      staticcall\n      iszero\n      dup1\n      iszero\n      tag_184\n      jumpi\n      returndatacopy(0x00, 0x00, returndatasize)\n      revert(0x00, returndatasize)\n    tag_184:\n      pop\n      pop\n      pop\n      pop\n      mload(0x40)\n      returndatasize\n      not(0x1f)\n      0x1f\n      dup3\n      add\n      and\n      dup3\n      add\n      dup1\n      0x40\n      mstore\n      pop\n      dup2\n      add\n      swap1\n      tag_185\n      swap2\n      swap1\n      tag_140\n      jump\t// in\n    tag_185:\n        /* \"hopium/etf/main/etf-oracle.sol\":2469:2512  uint256 bal = IERC20(t).balanceOf(etfVault) */\n      swap1\n      pop\n        /* \"hopium/etf/main/etf-oracle.sol\":2530:2539  uint256 p */\n      0x00\n        /* \"hopium/etf/main/etf-oracle.sol\":2544:2550  oracle */\n      dup6\n        /* \"hopium/etf/main/etf-oracle.sol\":2544:2568  oracle.getTokenWethPrice */\n      0xffffffffffffffffffffffffffffffffffffffff\n      and\n      0x7b49b49d\n        /* \"hopium/etf/main/etf-oracle.sol\":2569:2570  t */\n      dup6\n        /* \"hopium/etf/main/etf-oracle.sol\":2544:2571  oracle.getTokenWethPrice(t) */\n      mload(0x40)\n      dup3\n      0xffffffff\n      and\n      0xe0\n      shl\n      dup2\n      mstore\n      0x04\n      add\n      tag_186\n      swap2\n      swap1\n      tag_30\n      jump\t// in\n    tag_186:\n      0x20\n      mload(0x40)\n      dup1\n      dup4\n      sub\n      dup2\n      dup7\n      gas\n      staticcall\n      iszero\n      dup1\n      iszero\n      tag_188\n      jumpi\n      returndatacopy(0x00, 0x00, returndatasize)\n      revert(0x00, returndatasize)\n    tag_188:\n      pop\n      pop\n      pop\n      pop\n      mload(0x40)\n      returndatasize\n      not(0x1f)\n      0x1f\n      dup3\n      add\n      and\n      dup3\n      add\n      dup1\n      0x40\n      mstore\n      pop\n      dup2\n      add\n      swap1\n      tag_189\n      swap2\n      swap1\n      tag_140\n      jump\t// in\n    tag_189:\n        /* \"hopium/etf/main/etf-oracle.sol\":2530:2571  uint256 p   = oracle.getTokenWethPrice(t) */\n      swap1\n      pop\n        /* \"hopium/etf/main/etf-oracle.sol\":2675:2684  uint256 v */\n      0x00\n        /* \"hopium/etf/main/etf-oracle.sol\":2695:2696  0 */\n      0x00\n        /* \"hopium/etf/main/etf-oracle.sol\":2688:2691  bal */\n      dup4\n        /* \"hopium/etf/main/etf-oracle.sol\":2688:2696  bal == 0 */\n      eq\n        /* \"hopium/etf/main/etf-oracle.sol\":2688:2706  bal == 0 || p == 0 */\n      dup1\n      tag_190\n      jumpi\n      pop\n        /* \"hopium/etf/main/etf-oracle.sol\":2705:2706  0 */\n      0x00\n        /* \"hopium/etf/main/etf-oracle.sol\":2700:2701  p */\n      dup3\n        /* \"hopium/etf/main/etf-oracle.sol\":2700:2706  p == 0 */\n      eq\n        /* \"hopium/etf/main/etf-oracle.sol\":2688:2706  bal == 0 || p == 0 */\n    tag_190:\n        /* \"hopium/etf/main/etf-oracle.sol\":2687:2746  (bal == 0 || p == 0) ? 0 : FullMath.mulDiv(bal, p, 10 ** d) */\n      tag_191\n      jumpi\n        /* \"hopium/etf/main/etf-oracle.sol\":2714:2746  FullMath.mulDiv(bal, p, 10 ** d) */\n      tag_192\n        /* \"hopium/etf/main/etf-oracle.sol\":2730:2733  bal */\n      dup4\n        /* \"hopium/etf/main/etf-oracle.sol\":2735:2736  p */\n      dup4\n        /* \"hopium/etf/main/etf-oracle.sol\":2744:2745  d */\n      dup7\n        /* \"hopium/etf/main/etf-oracle.sol\":2738:2745  10 ** d */\n      0xff\n      and\n        /* \"hopium/etf/main/etf-oracle.sol\":2738:2740  10 */\n      0x0a\n        /* \"hopium/etf/main/etf-oracle.sol\":2738:2745  10 ** d */\n      exp\n        /* \"hopium/etf/main/etf-oracle.sol\":2714:2729  FullMath.mulDiv */\n      tag_154\n        /* \"hopium/etf/main/etf-oracle.sol\":2714:2746  FullMath.mulDiv(bal, p, 10 ** d) */\n      jump\t// in\n    tag_192:\n        /* \"hopium/etf/main/etf-oracle.sol\":2687:2746  (bal == 0 || p == 0) ? 0 : FullMath.mulDiv(bal, p, 10 ** d) */\n      jump(tag_193)\n    tag_191:\n        /* \"hopium/etf/main/etf-oracle.sol\":2710:2711  0 */\n      0x00\n        /* \"hopium/etf/main/etf-oracle.sol\":2687:2746  (bal == 0 || p == 0) ? 0 : FullMath.mulDiv(bal, p, 10 ** d) */\n    tag_193:\n        /* \"hopium/etf/main/etf-oracle.sol\":2675:2746  uint256 v = (bal == 0 || p == 0) ? 0 : FullMath.mulDiv(bal, p, 10 ** d) */\n      swap1\n      pop\n        /* \"hopium/etf/main/etf-oracle.sol\":2772:3075  Snapshot({... */\n      mload(0x40)\n      dup1\n      0xc0\n      add\n      0x40\n      mstore\n      dup1\n        /* \"hopium/etf/main/etf-oracle.sol\":2821:2822  t */\n      dup7\n        /* \"hopium/etf/main/etf-oracle.sol\":2772:3075  Snapshot({... */\n      0xffffffffffffffffffffffffffffffffffffffff\n      and\n      dup2\n      mstore\n      0x20\n      add\n        /* \"hopium/etf/main/etf-oracle.sol\":2862:2863  d */\n      dup6\n        /* \"hopium/etf/main/etf-oracle.sol\":2772:3075  Snapshot({... */\n      0xff\n      and\n      dup2\n      mstore\n      0x20\n      add\n        /* \"hopium/etf/main/etf-oracle.sol\":2903:2904  0 */\n      0x00\n        /* \"hopium/etf/main/etf-oracle.sol\":2772:3075  Snapshot({... */\n      0xffff\n      and\n      dup2\n      mstore\n      0x20\n      add\n        /* \"hopium/etf/main/etf-oracle.sol\":2971:2974  bal */\n      dup5\n        /* \"hopium/etf/main/etf-oracle.sol\":2772:3075  Snapshot({... */\n      dup2\n      mstore\n      0x20\n      add\n        /* \"hopium/etf/main/etf-oracle.sol\":3014:3015  p */\n      dup4\n        /* \"hopium/etf/main/etf-oracle.sol\":2772:3075  Snapshot({... */\n      dup2\n      mstore\n      0x20\n      add\n        /* \"hopium/etf/main/etf-oracle.sol\":3055:3056  v */\n      dup3\n        /* \"hopium/etf/main/etf-oracle.sol\":2772:3075  Snapshot({... */\n      dup2\n      mstore\n      pop\n        /* \"hopium/etf/main/etf-oracle.sol\":2765:2766  s */\n      dup11\n        /* \"hopium/etf/main/etf-oracle.sol\":2767:2768  i */\n      dup8\n        /* \"hopium/etf/main/etf-oracle.sol\":2765:2769  s[i] */\n      dup2\n      mload\n      dup2\n      lt\n      tag_194\n      jumpi\n      tag_195\n      tag_178\n      jump\t// in\n    tag_195:\n    tag_194:\n      0x20\n      mul\n      0x20\n      add\n      add\n        /* \"hopium/etf/main/etf-oracle.sol\":2765:3075  s[i] = Snapshot({... */\n      dup2\n      swap1\n      mstore\n      pop\n        /* \"hopium/etf/main/etf-oracle.sol\":3108:3109  v */\n      dup1\n        /* \"hopium/etf/main/etf-oracle.sol\":3094:3109  etfTvlWeth += v */\n      dup10\n      add\n      swap9\n      pop\n        /* \"hopium/etf/main/etf-oracle.sol\":2337:3124  {... */\n      pop\n      pop\n      pop\n      pop\n      pop\n        /* \"hopium/etf/main/etf-oracle.sol\":2332:2335  ++i */\n      dup1\n      0x01\n      add\n      swap1\n      pop\n        /* \"hopium/etf/main/etf-oracle.sol\":2305:3124  for (uint256 i = 0; i < n; ++i) {... */\n      jump(tag_173)\n    tag_174:\n      pop\n        /* \"hopium/etf/main/etf-oracle.sol\":3228:3229  0 */\n      0x00\n        /* \"hopium/etf/main/etf-oracle.sol\":3215:3225  etfTvlWeth */\n      dup4\n        /* \"hopium/etf/main/etf-oracle.sol\":3215:3229  etfTvlWeth > 0 */\n      gt\n        /* \"hopium/etf/main/etf-oracle.sol\":3211:3504  if (etfTvlWeth > 0) {... */\n      iszero\n      tag_196\n      jumpi\n        /* \"hopium/etf/main/etf-oracle.sol\":3278:3287  uint256 i */\n      0x00\n        /* \"hopium/etf/main/etf-oracle.sol\":3290:3291  0 */\n      0x00\n        /* \"hopium/etf/main/etf-oracle.sol\":3278:3291  uint256 i = 0 */\n      swap1\n      pop\n        /* \"hopium/etf/main/etf-oracle.sol\":3273:3480  for (uint256 i = 0; i < n; ++i) {... */\n    tag_197:\n        /* \"hopium/etf/main/etf-oracle.sol\":3297:3298  n */\n      dup3\n        /* \"hopium/etf/main/etf-oracle.sol\":3293:3294  i */\n      dup2\n        /* \"hopium/etf/main/etf-oracle.sol\":3293:3298  i < n */\n      lt\n        /* \"hopium/etf/main/etf-oracle.sol\":3273:3480  for (uint256 i = 0; i < n; ++i) {... */\n      iszero\n      tag_198\n      jumpi\n        /* \"hopium/etf/main/etf-oracle.sol\":3429:3439  etfTvlWeth */\n      dup4\n        /* \"hopium/common/types/bips.sol\":97:103  10_000 */\n      0x2710\n        /* \"hopium/etf/main/etf-oracle.sol\":3381:3382  s */\n      dup7\n        /* \"hopium/etf/main/etf-oracle.sol\":3383:3384  i */\n      dup4\n        /* \"hopium/etf/main/etf-oracle.sol\":3381:3385  s[i] */\n      dup2\n      mload\n      dup2\n      lt\n      tag_200\n      jumpi\n      tag_201\n      tag_178\n      jump\t// in\n    tag_201:\n    tag_200:\n      0x20\n      mul\n      0x20\n      add\n      add\n      mload\n        /* \"hopium/etf/main/etf-oracle.sol\":3381:3402  s[i].tokenValueWeth18 */\n      0xa0\n      add\n      mload\n        /* \"hopium/etf/main/etf-oracle.sol\":3381:3425  s[i].tokenValueWeth18 * HUNDRED_PERCENT_BIPS */\n      mul\n        /* \"hopium/etf/main/etf-oracle.sol\":3380:3439  (s[i].tokenValueWeth18 * HUNDRED_PERCENT_BIPS) / etfTvlWeth */\n      dup2\n      tag_202\n      jumpi\n      tag_203\n      tag_204\n      jump\t// in\n    tag_203:\n    tag_202:\n      div\n        /* \"hopium/etf/main/etf-oracle.sol\":3327:3328  s */\n      dup6\n        /* \"hopium/etf/main/etf-oracle.sol\":3329:3330  i */\n      dup3\n        /* \"hopium/etf/main/etf-oracle.sol\":3327:3331  s[i] */\n      dup2\n      mload\n      dup2\n      lt\n      tag_205\n      jumpi\n      tag_206\n      tag_178\n      jump\t// in\n    tag_206:\n    tag_205:\n      0x20\n      mul\n      0x20\n      add\n      add\n      mload\n        /* \"hopium/etf/main/etf-oracle.sol\":3327:3345  s[i].currentWeight */\n      0x40\n      add\n        /* \"hopium/etf/main/etf-oracle.sol\":3327:3461  s[i].currentWeight = uint16(... */\n      swap1\n      0xffff\n      and\n      swap1\n      dup2\n      0xffff\n      and\n      dup2\n      mstore\n      pop\n      pop\n        /* \"hopium/etf/main/etf-oracle.sol\":3300:3303  ++i */\n      dup1\n      0x01\n      add\n      swap1\n      pop\n        /* \"hopium/etf/main/etf-oracle.sol\":3273:3480  for (uint256 i = 0; i < n; ++i) {... */\n      jump(tag_197)\n    tag_198:\n      pop\n        /* \"hopium/etf/main/etf-oracle.sol\":3211:3504  if (etfTvlWeth > 0) {... */\n    tag_196:\n        /* \"hopium/etf/main/etf-oracle.sol\":2086:3510  {... */\n      pop\n      pop\n        /* \"hopium/etf/main/etf-oracle.sol\":1936:3510  function _snapshotVault(Etf memory etf, address etfVault)... */\n      swap3\n      pop\n      swap3\n      swap1\n      pop\n      jump\t// out\n        /* \"hopium/etf/main/etf-oracle.sol\":9012:10007  function _getStats(uint256 etfId, Etf memory etf, address etfVault) internal view returns (Stats memory s) {... */\n    tag_97:\n        /* \"hopium/etf/main/etf-oracle.sol\":9103:9117  Stats memory s */\n      tag_207\n      tag_89\n      jump\t// in\n    tag_207:\n        /* \"hopium/etf/main/etf-oracle.sol\":9129:9148  IUniswapOracle uniO */\n      0x00\n        /* \"hopium/etf/main/etf-oracle.sol\":9151:9169  getUniswapOracle() */\n      tag_209\n        /* \"hopium/etf/main/etf-oracle.sol\":9151:9167  getUniswapOracle */\n      tag_158\n        /* \"hopium/etf/main/etf-oracle.sol\":9151:9169  getUniswapOracle() */\n      jump\t// in\n    tag_209:\n        /* \"hopium/etf/main/etf-oracle.sol\":9129:9169  IUniswapOracle uniO = getUniswapOracle() */\n      swap1\n      pop\n        /* \"hopium/etf/main/etf-oracle.sol\":9212:9230  uint256 priceEth18 */\n      0x00\n        /* \"hopium/etf/main/etf-oracle.sol\":9233:9271  _getEtfWethPrice(etfId, etf, etfVault) */\n      tag_210\n        /* \"hopium/etf/main/etf-oracle.sol\":9250:9255  etfId */\n      dup7\n        /* \"hopium/etf/main/etf-oracle.sol\":9257:9260  etf */\n      dup7\n        /* \"hopium/etf/main/etf-oracle.sol\":9262:9270  etfVault */\n      dup7\n        /* \"hopium/etf/main/etf-oracle.sol\":9233:9249  _getEtfWethPrice */\n      tag_70\n        /* \"hopium/etf/main/etf-oracle.sol\":9233:9271  _getEtfWethPrice(etfId, etf, etfVault) */\n      jump\t// in\n    tag_210:\n        /* \"hopium/etf/main/etf-oracle.sol\":9212:9271  uint256 priceEth18 = _getEtfWethPrice(etfId, etf, etfVault) */\n      swap1\n      pop\n        /* \"hopium/etf/main/etf-oracle.sol\":9281:9299  uint256 priceUsd18 */\n      0x00\n        /* \"hopium/etf/main/etf-oracle.sol\":9302:9331  _convertWethToUsd(priceEth18) */\n      tag_211\n        /* \"hopium/etf/main/etf-oracle.sol\":9320:9330  priceEth18 */\n      dup3\n        /* \"hopium/etf/main/etf-oracle.sol\":9302:9319  _convertWethToUsd */\n      tag_72\n        /* \"hopium/etf/main/etf-oracle.sol\":9302:9331  _convertWethToUsd(priceEth18) */\n      jump\t// in\n    tag_211:\n        /* \"hopium/etf/main/etf-oracle.sol\":9281:9331  uint256 priceUsd18 = _convertWethToUsd(priceEth18) */\n      swap1\n      pop\n        /* \"hopium/etf/main/etf-oracle.sol\":9351:9399  EthUsd({ eth18: priceEth18, usd18: priceUsd18 }) */\n      mload(0x40)\n      dup1\n      0x40\n      add\n      0x40\n      mstore\n      dup1\n        /* \"hopium/etf/main/etf-oracle.sol\":9367:9377  priceEth18 */\n      dup4\n        /* \"hopium/etf/main/etf-oracle.sol\":9351:9399  EthUsd({ eth18: priceEth18, usd18: priceUsd18 }) */\n      dup2\n      mstore\n      0x20\n      add\n        /* \"hopium/etf/main/etf-oracle.sol\":9386:9396  priceUsd18 */\n      dup3\n        /* \"hopium/etf/main/etf-oracle.sol\":9351:9399  EthUsd({ eth18: priceEth18, usd18: priceUsd18 }) */\n      dup2\n      mstore\n      pop\n        /* \"hopium/etf/main/etf-oracle.sol\":9341:9342  s */\n      dup5\n        /* \"hopium/etf/main/etf-oracle.sol\":9341:9348  s.price */\n      0x00\n      add\n        /* \"hopium/etf/main/etf-oracle.sol\":9341:9399  s.price = EthUsd({ eth18: priceEth18, usd18: priceUsd18 }) */\n      dup2\n      swap1\n      mstore\n      pop\n        /* \"hopium/etf/main/etf-oracle.sol\":9447:9464  uint256 volWeth18 */\n      0x00\n        /* \"hopium/etf/main/etf-oracle.sol\":9466:9482  uint256 volUsd18 */\n      0x00\n        /* \"hopium/etf/main/etf-oracle.sol\":9486:9501  getEtfFactory() */\n      tag_212\n        /* \"hopium/etf/main/etf-oracle.sol\":9486:9499  getEtfFactory */\n      tag_63\n        /* \"hopium/etf/main/etf-oracle.sol\":9486:9501  getEtfFactory() */\n      jump\t// in\n    tag_212:\n        /* \"hopium/etf/main/etf-oracle.sol\":9486:9519  getEtfFactory().getEtfTotalVolume */\n      0xffffffffffffffffffffffffffffffffffffffff\n      and\n      0xc45f0607\n        /* \"hopium/etf/main/etf-oracle.sol\":9520:9525  etfId */\n      dup11\n        /* \"hopium/etf/main/etf-oracle.sol\":9486:9526  getEtfFactory().getEtfTotalVolume(etfId) */\n      mload(0x40)\n      dup3\n      0xffffffff\n      and\n      0xe0\n      shl\n      dup2\n      mstore\n      0x04\n      add\n      tag_213\n      swap2\n      swap1\n      tag_19\n      jump\t// in\n    tag_213:\n      0x40\n      dup1\n      mload\n      dup1\n      dup4\n      sub\n      dup2\n      dup7\n      gas\n      staticcall\n      iszero\n      dup1\n      iszero\n      tag_215\n      jumpi\n      returndatacopy(0x00, 0x00, returndatasize)\n      revert(0x00, returndatasize)\n    tag_215:\n      pop\n      pop\n      pop\n      pop\n      mload(0x40)\n      returndatasize\n      not(0x1f)\n      0x1f\n      dup3\n      add\n      and\n      dup3\n      add\n      dup1\n      0x40\n      mstore\n      pop\n      dup2\n      add\n      swap1\n      tag_216\n      swap2\n      swap1\n      tag_217\n      jump\t// in\n    tag_216:\n        /* \"hopium/etf/main/etf-oracle.sol\":9446:9526  (uint256 volWeth18, uint256 volUsd18) = getEtfFactory().getEtfTotalVolume(etfId) */\n      swap2\n      pop\n      swap2\n      pop\n        /* \"hopium/etf/main/etf-oracle.sol\":9547:9592  EthUsd({ eth18: volWeth18, usd18: volUsd18 }) */\n      mload(0x40)\n      dup1\n      0x40\n      add\n      0x40\n      mstore\n      dup1\n        /* \"hopium/etf/main/etf-oracle.sol\":9563:9572  volWeth18 */\n      dup4\n        /* \"hopium/etf/main/etf-oracle.sol\":9547:9592  EthUsd({ eth18: volWeth18, usd18: volUsd18 }) */\n      dup2\n      mstore\n      0x20\n      add\n        /* \"hopium/etf/main/etf-oracle.sol\":9581:9589  volUsd18 */\n      dup3\n        /* \"hopium/etf/main/etf-oracle.sol\":9547:9592  EthUsd({ eth18: volWeth18, usd18: volUsd18 }) */\n      dup2\n      mstore\n      pop\n        /* \"hopium/etf/main/etf-oracle.sol\":9536:9537  s */\n      dup7\n        /* \"hopium/etf/main/etf-oracle.sol\":9536:9544  s.volume */\n      0x20\n      add\n        /* \"hopium/etf/main/etf-oracle.sol\":9536:9592  s.volume = EthUsd({ eth18: volWeth18, usd18: volUsd18 }) */\n      dup2\n      swap1\n      mstore\n      pop\n        /* \"hopium/etf/main/etf-oracle.sol\":9638:9654  uint256 tvlEth18 */\n      0x00\n        /* \"hopium/etf/main/etf-oracle.sol\":9657:9686  _getEtfTvlWeth(etf, etfVault) */\n      tag_218\n        /* \"hopium/etf/main/etf-oracle.sol\":9672:9675  etf */\n      dup10\n        /* \"hopium/etf/main/etf-oracle.sol\":9677:9685  etfVault */\n      dup10\n        /* \"hopium/etf/main/etf-oracle.sol\":9657:9671  _getEtfTvlWeth */\n      tag_152\n        /* \"hopium/etf/main/etf-oracle.sol\":9657:9686  _getEtfTvlWeth(etf, etfVault) */\n      jump\t// in\n    tag_218:\n        /* \"hopium/etf/main/etf-oracle.sol\":9638:9686  uint256 tvlEth18 = _getEtfTvlWeth(etf, etfVault) */\n      swap1\n      pop\n        /* \"hopium/etf/main/etf-oracle.sol\":9696:9712  uint256 tvlUsd18 */\n      0x00\n        /* \"hopium/etf/main/etf-oracle.sol\":9715:9742  _convertWethToUsd(tvlEth18) */\n      tag_219\n        /* \"hopium/etf/main/etf-oracle.sol\":9733:9741  tvlEth18 */\n      dup3\n        /* \"hopium/etf/main/etf-oracle.sol\":9715:9732  _convertWethToUsd */\n      tag_72\n        /* \"hopium/etf/main/etf-oracle.sol\":9715:9742  _convertWethToUsd(tvlEth18) */\n      jump\t// in\n    tag_219:\n        /* \"hopium/etf/main/etf-oracle.sol\":9696:9742  uint256 tvlUsd18 = _convertWethToUsd(tvlEth18) */\n      swap1\n      pop\n        /* \"hopium/etf/main/etf-oracle.sol\":9760:9804  EthUsd({ eth18: tvlEth18, usd18: tvlUsd18 }) */\n      mload(0x40)\n      dup1\n      0x40\n      add\n      0x40\n      mstore\n      dup1\n        /* \"hopium/etf/main/etf-oracle.sol\":9776:9784  tvlEth18 */\n      dup4\n        /* \"hopium/etf/main/etf-oracle.sol\":9760:9804  EthUsd({ eth18: tvlEth18, usd18: tvlUsd18 }) */\n      dup2\n      mstore\n      0x20\n      add\n        /* \"hopium/etf/main/etf-oracle.sol\":9793:9801  tvlUsd18 */\n      dup3\n        /* \"hopium/etf/main/etf-oracle.sol\":9760:9804  EthUsd({ eth18: tvlEth18, usd18: tvlUsd18 }) */\n      dup2\n      mstore\n      pop\n        /* \"hopium/etf/main/etf-oracle.sol\":9752:9753  s */\n      dup9\n        /* \"hopium/etf/main/etf-oracle.sol\":9752:9757  s.tvl */\n      0x40\n      add\n        /* \"hopium/etf/main/etf-oracle.sol\":9752:9804  s.tvl = EthUsd({ eth18: tvlEth18, usd18: tvlUsd18 }) */\n      dup2\n      swap1\n      mstore\n      pop\n        /* \"hopium/etf/main/etf-oracle.sol\":9879:9923  _sumPerAsset(etf, uniO.getTokenLiquidityUsd) */\n      tag_220\n        /* \"hopium/etf/main/etf-oracle.sol\":9892:9895  etf */\n      dup11\n        /* \"hopium/etf/main/etf-oracle.sol\":9897:9901  uniO */\n      dup9\n        /* \"hopium/etf/main/etf-oracle.sol\":9897:9922  uniO.getTokenLiquidityUsd */\n      0xffffffffffffffffffffffffffffffffffffffff\n      and\n      0x57b6c133\n        /* \"hopium/etf/main/etf-oracle.sol\":9879:9891  _sumPerAsset */\n      tag_221\n        /* \"hopium/etf/main/etf-oracle.sol\":9879:9923  _sumPerAsset(etf, uniO.getTokenLiquidityUsd) */\n      jump\t// in\n    tag_220:\n        /* \"hopium/etf/main/etf-oracle.sol\":9856:9857  s */\n      dup9\n        /* \"hopium/etf/main/etf-oracle.sol\":9856:9876  s.assetsLiquidityUsd */\n      0x60\n      add\n        /* \"hopium/etf/main/etf-oracle.sol\":9856:9923  s.assetsLiquidityUsd = _sumPerAsset(etf, uniO.getTokenLiquidityUsd) */\n      dup2\n      dup2\n      mstore\n      pop\n      pop\n        /* \"hopium/etf/main/etf-oracle.sol\":9956:10000  _sumPerAsset(etf, uniO.getTokenLiquidityUsd) */\n      tag_222\n        /* \"hopium/etf/main/etf-oracle.sol\":9969:9972  etf */\n      dup11\n        /* \"hopium/etf/main/etf-oracle.sol\":9974:9978  uniO */\n      dup9\n        /* \"hopium/etf/main/etf-oracle.sol\":9974:9999  uniO.getTokenLiquidityUsd */\n      0xffffffffffffffffffffffffffffffffffffffff\n      and\n      0x57b6c133\n        /* \"hopium/etf/main/etf-oracle.sol\":9956:9968  _sumPerAsset */\n      tag_221\n        /* \"hopium/etf/main/etf-oracle.sol\":9956:10000  _sumPerAsset(etf, uniO.getTokenLiquidityUsd) */\n      jump\t// in\n    tag_222:\n        /* \"hopium/etf/main/etf-oracle.sol\":9933:9934  s */\n      dup9\n        /* \"hopium/etf/main/etf-oracle.sol\":9933:9948  s.assetsMcapUsd */\n      0x80\n      add\n        /* \"hopium/etf/main/etf-oracle.sol\":9933:10000  s.assetsMcapUsd      = _sumPerAsset(etf, uniO.getTokenLiquidityUsd) */\n      dup2\n      dup2\n      mstore\n      pop\n      pop\n        /* \"hopium/etf/main/etf-oracle.sol\":9119:10007  {... */\n      pop\n      pop\n      pop\n      pop\n      pop\n      pop\n      pop\n        /* \"hopium/etf/main/etf-oracle.sol\":9012:10007  function _getStats(uint256 etfId, Etf memory etf, address etfVault) internal view returns (Stats memory s) {... */\n      swap4\n      swap3\n      pop\n      pop\n      pop\n      jump\t// out\n        /* \"hopium/common/interface/imDirectory.sol\":589:1050  function _setDirectory(address _directory) internal {... */\n    tag_118:\n        /* \"hopium/common/interface/imDirectory.sol\":681:682  0 */\n      0x00\n        /* \"hopium/common/interface/imDirectory.sol\":659:683  _directory != address(0) */\n      0xffffffffffffffffffffffffffffffffffffffff\n      and\n        /* \"hopium/common/interface/imDirectory.sol\":659:669  _directory */\n      dup2\n        /* \"hopium/common/interface/imDirectory.sol\":659:683  _directory != address(0) */\n      0xffffffffffffffffffffffffffffffffffffffff\n      and\n      sub\n        /* \"hopium/common/interface/imDirectory.sol\":651:720  require(_directory != address(0), \"Directory cannot be zero address\") */\n      tag_224\n      jumpi\n      mload(0x40)\n      0x08c379a000000000000000000000000000000000000000000000000000000000\n      dup2\n      mstore\n      0x04\n      add\n      tag_225\n      swap1\n      tag_226\n      jump\t// in\n    tag_225:\n      mload(0x40)\n      dup1\n      swap2\n      sub\n      swap1\n      revert\n    tag_224:\n        /* \"hopium/common/interface/imDirectory.sol\":763:764  0 */\n      0x00\n        /* \"hopium/common/interface/imDirectory.sol\":738:748  _directory */\n      dup2\n        /* \"hopium/common/interface/imDirectory.sol\":738:760  _directory.code.length */\n      0xffffffffffffffffffffffffffffffffffffffff\n      and\n      extcodesize\n        /* \"hopium/common/interface/imDirectory.sol\":738:764  _directory.code.length > 0 */\n      gt\n        /* \"hopium/common/interface/imDirectory.sol\":730:797  require(_directory.code.length > 0, \"Directory must be a contract\") */\n      tag_227\n      jumpi\n      mload(0x40)\n      0x08c379a000000000000000000000000000000000000000000000000000000000\n      dup2\n      mstore\n      0x04\n      add\n      tag_228\n      swap1\n      tag_229\n      jump\t// in\n    tag_228:\n      mload(0x40)\n      dup1\n      swap2\n      sub\n      swap1\n      revert\n    tag_227:\n        /* \"hopium/common/interface/imDirectory.sol\":861:871  _directory */\n      dup1\n        /* \"hopium/common/interface/imDirectory.sol\":850:878  IDirectory(_directory).owner */\n      0xffffffffffffffffffffffffffffffffffffffff\n      and\n      0x8da5cb5b\n        /* \"hopium/common/interface/imDirectory.sol\":850:880  IDirectory(_directory).owner() */\n      mload(0x40)\n      dup2\n      0xffffffff\n      and\n      0xe0\n      shl\n      dup2\n      mstore\n      0x04\n      add\n      0x20\n      mload(0x40)\n      dup1\n      dup4\n      sub\n      dup2\n      dup7\n      gas\n      staticcall\n      swap3\n      pop\n      pop\n      pop\n      dup1\n      iszero\n      tag_230\n      jumpi\n      pop\n      mload(0x40)\n      returndatasize\n      not(0x1f)\n      0x1f\n      dup3\n      add\n      and\n      dup3\n      add\n      dup1\n      0x40\n      mstore\n      pop\n      dup2\n      add\n      swap1\n      tag_231\n      swap2\n      swap1\n      tag_87\n      jump\t// in\n    tag_231:\n      0x01\n    tag_230:\n        /* \"hopium/common/interface/imDirectory.sol\":846:1044  try IDirectory(_directory).owner() returns (address) {... */\n      tag_232\n      jumpi\n        /* \"hopium/common/interface/imDirectory.sol\":979:1033  revert(\"Directory address does not implement owner()\") */\n      mload(0x40)\n      0x08c379a000000000000000000000000000000000000000000000000000000000\n      dup2\n      mstore\n      0x04\n      add\n      tag_236\n      swap1\n      tag_237\n      jump\t// in\n    tag_236:\n      mload(0x40)\n      dup1\n      swap2\n      sub\n      swap1\n      revert\n        /* \"hopium/common/interface/imDirectory.sol\":846:1044  try IDirectory(_directory).owner() returns (address) {... */\n    tag_232:\n        /* \"hopium/common/interface/imDirectory.sol\":936:946  _directory */\n      dup2\n        /* \"hopium/common/interface/imDirectory.sol\":913:922  Directory */\n      0x00\n      0x00\n        /* \"hopium/common/interface/imDirectory.sol\":913:947  Directory = IDirectory(_directory) */\n      0x0100\n      exp\n      dup2\n      sload\n      dup2\n      0xffffffffffffffffffffffffffffffffffffffff\n      mul\n      not\n      and\n      swap1\n      dup4\n      0xffffffffffffffffffffffffffffffffffffffff\n      and\n      mul\n      or\n      swap1\n      sstore\n      pop\n        /* \"hopium/common/interface/imDirectory.sol\":881:958  returns (address) {... */\n      pop\n        /* \"hopium/common/interface/imDirectory.sol\":589:1050  function _setDirectory(address _directory) internal {... */\n      pop\n      jump\t// out\n        /* \"hopium/etf/main/etf-oracle.sol\":3618:4741  function _snapshotVaultWithUsd(Etf memory etf, address etfVault)... */\n    tag_126:\n        /* \"hopium/etf/main/etf-oracle.sol\":3730:3756  SnapshotWithUsd[] memory s */\n      0x60\n        /* \"hopium/etf/main/etf-oracle.sol\":3758:3776  uint256 etfTvlWeth */\n      0x00\n        /* \"hopium/etf/main/etf-oracle.sol\":3778:3795  uint256 etfTvlUsd */\n      0x00\n        /* \"hopium/etf/main/etf-oracle.sol\":3812:3834  Snapshot[] memory snap */\n      0x00\n        /* \"hopium/etf/main/etf-oracle.sol\":3836:3851  uint256 tvlWeth */\n      0x00\n        /* \"hopium/etf/main/etf-oracle.sol\":3855:3884  _snapshotVault(etf, etfVault) */\n      tag_240\n        /* \"hopium/etf/main/etf-oracle.sol\":3870:3873  etf */\n      dup8\n        /* \"hopium/etf/main/etf-oracle.sol\":3875:3883  etfVault */\n      dup8\n        /* \"hopium/etf/main/etf-oracle.sol\":3855:3869  _snapshotVault */\n      tag_80\n        /* \"hopium/etf/main/etf-oracle.sol\":3855:3884  _snapshotVault(etf, etfVault) */\n      jump\t// in\n    tag_240:\n        /* \"hopium/etf/main/etf-oracle.sol\":3811:3884  (Snapshot[] memory snap, uint256 tvlWeth) = _snapshotVault(etf, etfVault) */\n      swap2\n      pop\n      swap2\n      pop\n        /* \"hopium/etf/main/etf-oracle.sol\":3908:3915  tvlWeth */\n      dup1\n        /* \"hopium/etf/main/etf-oracle.sol\":3895:3915  etfTvlWeth = tvlWeth */\n      swap4\n      pop\n        /* \"hopium/etf/main/etf-oracle.sol\":3938:3964  _convertWethToUsd(tvlWeth) */\n      tag_241\n        /* \"hopium/etf/main/etf-oracle.sol\":3956:3963  tvlWeth */\n      dup2\n        /* \"hopium/etf/main/etf-oracle.sol\":3938:3955  _convertWethToUsd */\n      tag_72\n        /* \"hopium/etf/main/etf-oracle.sol\":3938:3964  _convertWethToUsd(tvlWeth) */\n      jump\t// in\n    tag_241:\n        /* \"hopium/etf/main/etf-oracle.sol\":3925:3964  etfTvlUsd  = _convertWethToUsd(tvlWeth) */\n      swap3\n      pop\n        /* \"hopium/etf/main/etf-oracle.sol\":3975:3984  uint256 n */\n      0x00\n        /* \"hopium/etf/main/etf-oracle.sol\":3987:3991  snap */\n      dup3\n        /* \"hopium/etf/main/etf-oracle.sol\":3987:3998  snap.length */\n      mload\n        /* \"hopium/etf/main/etf-oracle.sol\":3975:3998  uint256 n = snap.length */\n      swap1\n      pop\n        /* \"hopium/etf/main/etf-oracle.sol\":4034:4035  n */\n      dup1\n        /* \"hopium/etf/main/etf-oracle.sol\":4012:4036  new SnapshotWithUsd[](n) */\n      0xffffffffffffffff\n      dup2\n      gt\n      iszero\n      tag_242\n      jumpi\n      tag_243\n      tag_167\n      jump\t// in\n    tag_243:\n    tag_242:\n      mload(0x40)\n      swap1\n      dup1\n      dup3\n      mstore\n      dup1\n      0x20\n      mul\n      0x20\n      add\n      dup3\n      add\n      0x40\n      mstore\n      dup1\n      iszero\n      tag_244\n      jumpi\n      dup2\n      0x20\n      add\n    tag_245:\n      tag_246\n      tag_247\n      jump\t// in\n    tag_246:\n      dup2\n      mstore\n      0x20\n      add\n      swap1\n      0x01\n      swap1\n      sub\n      swap1\n      dup2\n      tag_245\n      jumpi\n      swap1\n      pop\n    tag_244:\n      pop\n        /* \"hopium/etf/main/etf-oracle.sol\":4008:4036  s = new SnapshotWithUsd[](n) */\n      swap6\n      pop\n        /* \"hopium/etf/main/etf-oracle.sol\":4076:4085  uint256 i */\n      0x00\n        /* \"hopium/etf/main/etf-oracle.sol\":4088:4089  0 */\n      0x00\n        /* \"hopium/etf/main/etf-oracle.sol\":4076:4089  uint256 i = 0 */\n      swap1\n      pop\n        /* \"hopium/etf/main/etf-oracle.sol\":4071:4725  for (uint256 i = 0; i < n; ++i) {... */\n    tag_248:\n        /* \"hopium/etf/main/etf-oracle.sol\":4095:4096  n */\n      dup2\n        /* \"hopium/etf/main/etf-oracle.sol\":4091:4092  i */\n      dup2\n        /* \"hopium/etf/main/etf-oracle.sol\":4091:4096  i < n */\n      lt\n        /* \"hopium/etf/main/etf-oracle.sol\":4071:4725  for (uint256 i = 0; i < n; ++i) {... */\n      iszero\n      tag_249\n      jumpi\n        /* \"hopium/etf/main/etf-oracle.sol\":4128:4710  SnapshotWithUsd({... */\n      mload(0x40)\n      dup1\n      0x0100\n      add\n      0x40\n      mstore\n      dup1\n        /* \"hopium/etf/main/etf-oracle.sol\":4185:4189  snap */\n      dup6\n        /* \"hopium/etf/main/etf-oracle.sol\":4190:4191  i */\n      dup4\n        /* \"hopium/etf/main/etf-oracle.sol\":4185:4192  snap[i] */\n      dup2\n      mload\n      dup2\n      lt\n      tag_251\n      jumpi\n      tag_252\n      tag_178\n      jump\t// in\n    tag_252:\n    tag_251:\n      0x20\n      mul\n      0x20\n      add\n      add\n      mload\n        /* \"hopium/etf/main/etf-oracle.sol\":4185:4205  snap[i].tokenAddress */\n      0x00\n      add\n      mload\n        /* \"hopium/etf/main/etf-oracle.sol\":4128:4710  SnapshotWithUsd({... */\n      0xffffffffffffffffffffffffffffffffffffffff\n      and\n      dup2\n      mstore\n      0x20\n      add\n        /* \"hopium/etf/main/etf-oracle.sol\":4246:4250  snap */\n      dup6\n        /* \"hopium/etf/main/etf-oracle.sol\":4251:4252  i */\n      dup4\n        /* \"hopium/etf/main/etf-oracle.sol\":4246:4253  snap[i] */\n      dup2\n      mload\n      dup2\n      lt\n      tag_253\n      jumpi\n      tag_254\n      tag_178\n      jump\t// in\n    tag_254:\n    tag_253:\n      0x20\n      mul\n      0x20\n      add\n      add\n      mload\n        /* \"hopium/etf/main/etf-oracle.sol\":4246:4267  snap[i].tokenDecimals */\n      0x20\n      add\n      mload\n        /* \"hopium/etf/main/etf-oracle.sol\":4128:4710  SnapshotWithUsd({... */\n      0xff\n      and\n      dup2\n      mstore\n      0x20\n      add\n        /* \"hopium/etf/main/etf-oracle.sol\":4308:4312  snap */\n      dup6\n        /* \"hopium/etf/main/etf-oracle.sol\":4313:4314  i */\n      dup4\n        /* \"hopium/etf/main/etf-oracle.sol\":4308:4315  snap[i] */\n      dup2\n      mload\n      dup2\n      lt\n      tag_255\n      jumpi\n      tag_256\n      tag_178\n      jump\t// in\n    tag_256:\n    tag_255:\n      0x20\n      mul\n      0x20\n      add\n      add\n      mload\n        /* \"hopium/etf/main/etf-oracle.sol\":4308:4329  snap[i].currentWeight */\n      0x40\n      add\n      mload\n        /* \"hopium/etf/main/etf-oracle.sol\":4128:4710  SnapshotWithUsd({... */\n      0xffff\n      and\n      dup2\n      mstore\n      0x20\n      add\n        /* \"hopium/etf/main/etf-oracle.sol\":4370:4374  snap */\n      dup6\n        /* \"hopium/etf/main/etf-oracle.sol\":4375:4376  i */\n      dup4\n        /* \"hopium/etf/main/etf-oracle.sol\":4370:4377  snap[i] */\n      dup2\n      mload\n      dup2\n      lt\n      tag_257\n      jumpi\n      tag_258\n      tag_178\n      jump\t// in\n    tag_258:\n    tag_257:\n      0x20\n      mul\n      0x20\n      add\n      add\n      mload\n        /* \"hopium/etf/main/etf-oracle.sol\":4370:4393  snap[i].tokenRawBalance */\n      0x60\n      add\n      mload\n        /* \"hopium/etf/main/etf-oracle.sol\":4128:4710  SnapshotWithUsd({... */\n      dup2\n      mstore\n      0x20\n      add\n        /* \"hopium/etf/main/etf-oracle.sol\":4434:4438  snap */\n      dup6\n        /* \"hopium/etf/main/etf-oracle.sol\":4439:4440  i */\n      dup4\n        /* \"hopium/etf/main/etf-oracle.sol\":4434:4441  snap[i] */\n      dup2\n      mload\n      dup2\n      lt\n      tag_259\n      jumpi\n      tag_260\n      tag_178\n      jump\t// in\n    tag_260:\n    tag_259:\n      0x20\n      mul\n      0x20\n      add\n      add\n      mload\n        /* \"hopium/etf/main/etf-oracle.sol\":4434:4458  snap[i].tokenPriceWeth18 */\n      0x80\n      add\n      mload\n        /* \"hopium/etf/main/etf-oracle.sol\":4128:4710  SnapshotWithUsd({... */\n      dup2\n      mstore\n      0x20\n      add\n        /* \"hopium/etf/main/etf-oracle.sol\":4499:4542  _convertWethToUsd(snap[i].tokenPriceWeth18) */\n      tag_261\n        /* \"hopium/etf/main/etf-oracle.sol\":4517:4521  snap */\n      dup7\n        /* \"hopium/etf/main/etf-oracle.sol\":4522:4523  i */\n      dup5\n        /* \"hopium/etf/main/etf-oracle.sol\":4517:4524  snap[i] */\n      dup2\n      mload\n      dup2\n      lt\n      tag_262\n      jumpi\n      tag_263\n      tag_178\n      jump\t// in\n    tag_263:\n    tag_262:\n      0x20\n      mul\n      0x20\n      add\n      add\n      mload\n        /* \"hopium/etf/main/etf-oracle.sol\":4517:4541  snap[i].tokenPriceWeth18 */\n      0x80\n      add\n      mload\n        /* \"hopium/etf/main/etf-oracle.sol\":4499:4516  _convertWethToUsd */\n      tag_72\n        /* \"hopium/etf/main/etf-oracle.sol\":4499:4542  _convertWethToUsd(snap[i].tokenPriceWeth18) */\n      jump\t// in\n    tag_261:\n        /* \"hopium/etf/main/etf-oracle.sol\":4128:4710  SnapshotWithUsd({... */\n      dup2\n      mstore\n      0x20\n      add\n        /* \"hopium/etf/main/etf-oracle.sol\":4583:4587  snap */\n      dup6\n        /* \"hopium/etf/main/etf-oracle.sol\":4588:4589  i */\n      dup4\n        /* \"hopium/etf/main/etf-oracle.sol\":4583:4590  snap[i] */\n      dup2\n      mload\n      dup2\n      lt\n      tag_264\n      jumpi\n      tag_265\n      tag_178\n      jump\t// in\n    tag_265:\n    tag_264:\n      0x20\n      mul\n      0x20\n      add\n      add\n      mload\n        /* \"hopium/etf/main/etf-oracle.sol\":4583:4607  snap[i].tokenValueWeth18 */\n      0xa0\n      add\n      mload\n        /* \"hopium/etf/main/etf-oracle.sol\":4128:4710  SnapshotWithUsd({... */\n      dup2\n      mstore\n      0x20\n      add\n        /* \"hopium/etf/main/etf-oracle.sol\":4648:4691  _convertWethToUsd(snap[i].tokenValueWeth18) */\n      tag_266\n        /* \"hopium/etf/main/etf-oracle.sol\":4666:4670  snap */\n      dup7\n        /* \"hopium/etf/main/etf-oracle.sol\":4671:4672  i */\n      dup5\n        /* \"hopium/etf/main/etf-oracle.sol\":4666:4673  snap[i] */\n      dup2\n      mload\n      dup2\n      lt\n      tag_267\n      jumpi\n      tag_268\n      tag_178\n      jump\t// in\n    tag_268:\n    tag_267:\n      0x20\n      mul\n      0x20\n      add\n      add\n      mload\n        /* \"hopium/etf/main/etf-oracle.sol\":4666:4690  snap[i].tokenValueWeth18 */\n      0xa0\n      add\n      mload\n        /* \"hopium/etf/main/etf-oracle.sol\":4648:4665  _convertWethToUsd */\n      tag_72\n        /* \"hopium/etf/main/etf-oracle.sol\":4648:4691  _convertWethToUsd(snap[i].tokenValueWeth18) */\n      jump\t// in\n    tag_266:\n        /* \"hopium/etf/main/etf-oracle.sol\":4128:4710  SnapshotWithUsd({... */\n      dup2\n      mstore\n      pop\n        /* \"hopium/etf/main/etf-oracle.sol\":4121:4122  s */\n      dup8\n        /* \"hopium/etf/main/etf-oracle.sol\":4123:4124  i */\n      dup3\n        /* \"hopium/etf/main/etf-oracle.sol\":4121:4125  s[i] */\n      dup2\n      mload\n      dup2\n      lt\n      tag_269\n      jumpi\n      tag_270\n      tag_178\n      jump\t// in\n    tag_270:\n    tag_269:\n      0x20\n      mul\n      0x20\n      add\n      add\n        /* \"hopium/etf/main/etf-oracle.sol\":4121:4710  s[i] = SnapshotWithUsd({... */\n      dup2\n      swap1\n      mstore\n      pop\n        /* \"hopium/etf/main/etf-oracle.sol\":4098:4101  ++i */\n      dup1\n      0x01\n      add\n      swap1\n      pop\n        /* \"hopium/etf/main/etf-oracle.sol\":4071:4725  for (uint256 i = 0; i < n; ++i) {... */\n      jump(tag_248)\n    tag_249:\n      pop\n        /* \"hopium/etf/main/etf-oracle.sol\":3801:4741  {... */\n      pop\n      pop\n      pop\n        /* \"hopium/etf/main/etf-oracle.sol\":3618:4741  function _snapshotVaultWithUsd(Etf memory etf, address etfVault)... */\n      swap3\n      pop\n      swap3\n      pop\n      swap3\n      jump\t// out\n        /* \"hopium/etf/main/etf-oracle.sol\":4860:5592  function _getEtfInitialPrice(Etf memory etf) internal view returns (uint256 priceWeth18) {... */\n    tag_147:\n        /* \"hopium/etf/main/etf-oracle.sol\":4928:4947  uint256 priceWeth18 */\n      0x00\n        /* \"hopium/etf/main/etf-oracle.sol\":4959:4970  uint256 sum */\n      0x00\n        /* \"hopium/etf/main/etf-oracle.sol\":4997:5018  IUniswapOracle oracle */\n      0x00\n        /* \"hopium/etf/main/etf-oracle.sol\":5021:5039  getUniswapOracle() */\n      tag_272\n        /* \"hopium/etf/main/etf-oracle.sol\":5021:5037  getUniswapOracle */\n      tag_158\n        /* \"hopium/etf/main/etf-oracle.sol\":5021:5039  getUniswapOracle() */\n      jump\t// in\n    tag_272:\n        /* \"hopium/etf/main/etf-oracle.sol\":4997:5039  IUniswapOracle oracle = getUniswapOracle() */\n      swap1\n      pop\n        /* \"hopium/etf/main/etf-oracle.sol\":5079:5088  uint256 i */\n      0x00\n        /* \"hopium/etf/main/etf-oracle.sol\":5091:5092  0 */\n      0x00\n        /* \"hopium/etf/main/etf-oracle.sol\":5079:5092  uint256 i = 0 */\n      swap1\n      pop\n        /* \"hopium/etf/main/etf-oracle.sol\":5074:5468  for (uint256 i = 0; i < etf.assets.length; ++i) {... */\n    tag_273:\n        /* \"hopium/etf/main/etf-oracle.sol\":5098:5101  etf */\n      dup5\n        /* \"hopium/etf/main/etf-oracle.sol\":5098:5108  etf.assets */\n      0x40\n      add\n      mload\n        /* \"hopium/etf/main/etf-oracle.sol\":5098:5115  etf.assets.length */\n      mload\n        /* \"hopium/etf/main/etf-oracle.sol\":5094:5095  i */\n      dup2\n        /* \"hopium/etf/main/etf-oracle.sol\":5094:5115  i < etf.assets.length */\n      lt\n        /* \"hopium/etf/main/etf-oracle.sol\":5074:5468  for (uint256 i = 0; i < etf.assets.length; ++i) {... */\n      iszero\n      tag_274\n      jumpi\n        /* \"hopium/etf/main/etf-oracle.sol\":5140:5153  address token */\n      0x00\n        /* \"hopium/etf/main/etf-oracle.sol\":5156:5159  etf */\n      dup6\n        /* \"hopium/etf/main/etf-oracle.sol\":5156:5166  etf.assets */\n      0x40\n      add\n      mload\n        /* \"hopium/etf/main/etf-oracle.sol\":5167:5168  i */\n      dup3\n        /* \"hopium/etf/main/etf-oracle.sol\":5156:5169  etf.assets[i] */\n      dup2\n      mload\n      dup2\n      lt\n      tag_276\n      jumpi\n      tag_277\n      tag_178\n      jump\t// in\n    tag_277:\n    tag_276:\n      0x20\n      mul\n      0x20\n      add\n      add\n      mload\n        /* \"hopium/etf/main/etf-oracle.sol\":5156:5182  etf.assets[i].tokenAddress */\n      0x00\n      add\n      mload\n        /* \"hopium/etf/main/etf-oracle.sol\":5140:5182  address token = etf.assets[i].tokenAddress */\n      swap1\n      pop\n        /* \"hopium/etf/main/etf-oracle.sol\":5200:5213  uint16  wBips */\n      0x00\n        /* \"hopium/etf/main/etf-oracle.sol\":5216:5219  etf */\n      dup7\n        /* \"hopium/etf/main/etf-oracle.sol\":5216:5226  etf.assets */\n      0x40\n      add\n      mload\n        /* \"hopium/etf/main/etf-oracle.sol\":5227:5228  i */\n      dup4\n        /* \"hopium/etf/main/etf-oracle.sol\":5216:5229  etf.assets[i] */\n      dup2\n      mload\n      dup2\n      lt\n      tag_278\n      jumpi\n      tag_279\n      tag_178\n      jump\t// in\n    tag_279:\n    tag_278:\n      0x20\n      mul\n      0x20\n      add\n      add\n      mload\n        /* \"hopium/etf/main/etf-oracle.sol\":5216:5240  etf.assets[i].weightBips */\n      0x20\n      add\n      mload\n        /* \"hopium/etf/main/etf-oracle.sol\":5200:5240  uint16  wBips = etf.assets[i].weightBips */\n      swap1\n      pop\n        /* \"hopium/etf/main/etf-oracle.sol\":5314:5323  uint256 p */\n      0x00\n        /* \"hopium/etf/main/etf-oracle.sol\":5326:5332  oracle */\n      dup5\n        /* \"hopium/etf/main/etf-oracle.sol\":5326:5350  oracle.getTokenWethPrice */\n      0xffffffffffffffffffffffffffffffffffffffff\n      and\n      0x7b49b49d\n        /* \"hopium/etf/main/etf-oracle.sol\":5351:5356  token */\n      dup5\n        /* \"hopium/etf/main/etf-oracle.sol\":5326:5357  oracle.getTokenWethPrice(token) */\n      mload(0x40)\n      dup3\n      0xffffffff\n      and\n      0xe0\n      shl\n      dup2\n      mstore\n      0x04\n      add\n      tag_280\n      swap2\n      swap1\n      tag_30\n      jump\t// in\n    tag_280:\n      0x20\n      mload(0x40)\n      dup1\n      dup4\n      sub\n      dup2\n      dup7\n      gas\n      staticcall\n      iszero\n      dup1\n      iszero\n      tag_282\n      jumpi\n      returndatacopy(0x00, 0x00, returndatasize)\n      revert(0x00, returndatasize)\n    tag_282:\n      pop\n      pop\n      pop\n      pop\n      mload(0x40)\n      returndatasize\n      not(0x1f)\n      0x1f\n      dup3\n      add\n      and\n      dup3\n      add\n      dup1\n      0x40\n      mstore\n      pop\n      dup2\n      add\n      swap1\n      tag_283\n      swap2\n      swap1\n      tag_140\n      jump\t// in\n    tag_283:\n        /* \"hopium/etf/main/etf-oracle.sol\":5314:5357  uint256 p = oracle.getTokenWethPrice(token) */\n      swap1\n      pop\n        /* \"hopium/etf/main/etf-oracle.sol\":5384:5385  0 */\n      0x00\n        /* \"hopium/etf/main/etf-oracle.sol\":5379:5380  p */\n      dup2\n        /* \"hopium/etf/main/etf-oracle.sol\":5379:5385  p == 0 */\n      eq\n        /* \"hopium/etf/main/etf-oracle.sol\":5379:5399  p == 0 || wBips == 0 */\n      dup1\n      tag_284\n      jumpi\n      pop\n        /* \"hopium/etf/main/etf-oracle.sol\":5398:5399  0 */\n      0x00\n        /* \"hopium/etf/main/etf-oracle.sol\":5389:5394  wBips */\n      dup3\n        /* \"hopium/etf/main/etf-oracle.sol\":5389:5399  wBips == 0 */\n      0xffff\n      and\n      eq\n        /* \"hopium/etf/main/etf-oracle.sol\":5379:5399  p == 0 || wBips == 0 */\n    tag_284:\n        /* \"hopium/etf/main/etf-oracle.sol\":5375:5409  if (p == 0 || wBips == 0) continue */\n      iszero\n      tag_285\n      jumpi\n        /* \"hopium/etf/main/etf-oracle.sol\":5401:5409  continue */\n      pop\n      pop\n      pop\n      jump(tag_275)\n        /* \"hopium/etf/main/etf-oracle.sol\":5375:5409  if (p == 0 || wBips == 0) continue */\n    tag_285:\n        /* \"hopium/etf/main/etf-oracle.sol\":5452:5453  p */\n      dup1\n        /* \"hopium/etf/main/etf-oracle.sol\":5443:5448  wBips */\n      dup3\n        /* \"hopium/etf/main/etf-oracle.sol\":5435:5449  uint256(wBips) */\n      0xffff\n      and\n        /* \"hopium/etf/main/etf-oracle.sol\":5435:5453  uint256(wBips) * p */\n      mul\n        /* \"hopium/etf/main/etf-oracle.sol\":5428:5453  sum += uint256(wBips) * p */\n      dup7\n      add\n      swap6\n      pop\n        /* \"hopium/etf/main/etf-oracle.sol\":5122:5468  {... */\n      pop\n      pop\n      pop\n        /* \"hopium/etf/main/etf-oracle.sol\":5074:5468  for (uint256 i = 0; i < etf.assets.length; ++i) {... */\n    tag_275:\n        /* \"hopium/etf/main/etf-oracle.sol\":5117:5120  ++i */\n      dup1\n      0x01\n      add\n      swap1\n      pop\n        /* \"hopium/etf/main/etf-oracle.sol\":5074:5468  for (uint256 i = 0; i < etf.assets.length; ++i) {... */\n      jump(tag_273)\n    tag_274:\n      pop\n        /* \"hopium/common/types/bips.sol\":97:103  10_000 */\n      0x2710\n        /* \"hopium/etf/main/etf-oracle.sol\":5559:5562  sum */\n      dup3\n        /* \"hopium/etf/main/etf-oracle.sol\":5559:5585  sum / HUNDRED_PERCENT_BIPS */\n      tag_286\n      swap2\n      swap1\n      tag_287\n      jump\t// in\n    tag_286:\n        /* \"hopium/etf/main/etf-oracle.sol\":5552:5585  return sum / HUNDRED_PERCENT_BIPS */\n      swap3\n      pop\n      pop\n      pop\n        /* \"hopium/etf/main/etf-oracle.sol\":4860:5592  function _getEtfInitialPrice(Etf memory etf) internal view returns (uint256 priceWeth18) {... */\n      swap2\n      swap1\n      pop\n      jump\t// out\n        /* \"hopium/etf/main/etf-oracle.sol\":917:1328  function _scaleTo1e18(uint256 amount, uint8 decimals) internal pure returns (uint256) {... */\n    tag_149:\n        /* \"hopium/etf/main/etf-oracle.sol\":994:1001  uint256 */\n      0x00\n        /* \"hopium/etf/main/etf-oracle.sol\":1029:1031  18 */\n      0x12\n        /* \"hopium/etf/main/etf-oracle.sol\":1017:1025  decimals */\n      dup3\n        /* \"hopium/etf/main/etf-oracle.sol\":1017:1031  decimals == 18 */\n      0xff\n      and\n      sub\n        /* \"hopium/etf/main/etf-oracle.sol\":1013:1046  if (decimals == 18) return amount */\n      tag_289\n      jumpi\n        /* \"hopium/etf/main/etf-oracle.sol\":1040:1046  amount */\n      dup3\n        /* \"hopium/etf/main/etf-oracle.sol\":1033:1046  return amount */\n      swap1\n      pop\n      jump(tag_288)\n        /* \"hopium/etf/main/etf-oracle.sol\":1013:1046  if (decimals == 18) return amount */\n    tag_289:\n        /* \"hopium/etf/main/etf-oracle.sol\":1071:1073  18 */\n      0x12\n        /* \"hopium/etf/main/etf-oracle.sol\":1060:1068  decimals */\n      dup3\n        /* \"hopium/etf/main/etf-oracle.sol\":1060:1073  decimals < 18 */\n      0xff\n      and\n      lt\n        /* \"hopium/etf/main/etf-oracle.sol\":1056:1322  if (decimals < 18) {... */\n      iszero\n      tag_290\n      jumpi\n        /* \"hopium/etf/main/etf-oracle.sol\":1134:1180  FullMath.mulDiv(amount, WAD, _pow10(decimals)) */\n      tag_291\n        /* \"hopium/etf/main/etf-oracle.sol\":1150:1156  amount */\n      dup4\n        /* \"hopium/etf/main/etf-oracle.sol\":494:498  1e18 */\n      0x0de0b6b3a7640000\n        /* \"hopium/etf/main/etf-oracle.sol\":1163:1179  _pow10(decimals) */\n      tag_292\n        /* \"hopium/etf/main/etf-oracle.sol\":1170:1178  decimals */\n      dup6\n        /* \"hopium/etf/main/etf-oracle.sol\":1163:1169  _pow10 */\n      tag_293\n        /* \"hopium/etf/main/etf-oracle.sol\":1163:1179  _pow10(decimals) */\n      jump\t// in\n    tag_292:\n        /* \"hopium/etf/main/etf-oracle.sol\":1134:1149  FullMath.mulDiv */\n      tag_154\n        /* \"hopium/etf/main/etf-oracle.sol\":1134:1180  FullMath.mulDiv(amount, WAD, _pow10(decimals)) */\n      jump\t// in\n    tag_291:\n        /* \"hopium/etf/main/etf-oracle.sol\":1127:1180  return FullMath.mulDiv(amount, WAD, _pow10(decimals)) */\n      swap1\n      pop\n      jump(tag_288)\n        /* \"hopium/etf/main/etf-oracle.sol\":1056:1322  if (decimals < 18) {... */\n    tag_290:\n        /* \"hopium/etf/main/etf-oracle.sol\":1290:1311  _pow10(decimals - 18) */\n      tag_295\n        /* \"hopium/etf/main/etf-oracle.sol\":1308:1310  18 */\n      0x12\n        /* \"hopium/etf/main/etf-oracle.sol\":1297:1305  decimals */\n      dup4\n        /* \"hopium/etf/main/etf-oracle.sol\":1297:1310  decimals - 18 */\n      tag_296\n      swap2\n      swap1\n      tag_297\n      jump\t// in\n    tag_296:\n        /* \"hopium/etf/main/etf-oracle.sol\":1290:1296  _pow10 */\n      tag_293\n        /* \"hopium/etf/main/etf-oracle.sol\":1290:1311  _pow10(decimals - 18) */\n      jump\t// in\n    tag_295:\n        /* \"hopium/etf/main/etf-oracle.sol\":1281:1287  amount */\n      dup4\n        /* \"hopium/etf/main/etf-oracle.sol\":1281:1311  amount / _pow10(decimals - 18) */\n      tag_298\n      swap2\n      swap1\n      tag_287\n      jump\t// in\n    tag_298:\n        /* \"hopium/etf/main/etf-oracle.sol\":1274:1311  return amount / _pow10(decimals - 18) */\n      swap1\n      pop\n        /* \"hopium/etf/main/etf-oracle.sol\":917:1328  function _scaleTo1e18(uint256 amount, uint8 decimals) internal pure returns (uint256) {... */\n    tag_288:\n      swap3\n      swap2\n      pop\n      pop\n      jump\t// out\n        /* \"hopium/etf/main/etf-oracle.sol\":6803:7735  function _getEtfTvlWeth(Etf memory etf, address etfVault) internal view returns (uint256 totalWethValue18) {... */\n    tag_152:\n        /* \"hopium/etf/main/etf-oracle.sol\":6884:6908  uint256 totalWethValue18 */\n      0x00\n        /* \"hopium/etf/main/etf-oracle.sol\":6920:6941  IUniswapOracle oracle */\n      0x00\n        /* \"hopium/etf/main/etf-oracle.sol\":6944:6962  getUniswapOracle() */\n      tag_300\n        /* \"hopium/etf/main/etf-oracle.sol\":6944:6960  getUniswapOracle */\n      tag_158\n        /* \"hopium/etf/main/etf-oracle.sol\":6944:6962  getUniswapOracle() */\n      jump\t// in\n    tag_300:\n        /* \"hopium/etf/main/etf-oracle.sol\":6920:6962  IUniswapOracle oracle = getUniswapOracle() */\n      swap1\n      pop\n        /* \"hopium/etf/main/etf-oracle.sol\":7058:7067  uint256 i */\n      0x00\n        /* \"hopium/etf/main/etf-oracle.sol\":7070:7071  0 */\n      0x00\n        /* \"hopium/etf/main/etf-oracle.sol\":7058:7071  uint256 i = 0 */\n      swap1\n      pop\n        /* \"hopium/etf/main/etf-oracle.sol\":7053:7719  for (uint256 i = 0; i < etf.assets.length; ++i) {... */\n    tag_301:\n        /* \"hopium/etf/main/etf-oracle.sol\":7077:7080  etf */\n      dup5\n        /* \"hopium/etf/main/etf-oracle.sol\":7077:7087  etf.assets */\n      0x40\n      add\n      mload\n        /* \"hopium/etf/main/etf-oracle.sol\":7077:7094  etf.assets.length */\n      mload\n        /* \"hopium/etf/main/etf-oracle.sol\":7073:7074  i */\n      dup2\n        /* \"hopium/etf/main/etf-oracle.sol\":7073:7094  i < etf.assets.length */\n      lt\n        /* \"hopium/etf/main/etf-oracle.sol\":7053:7719  for (uint256 i = 0; i < etf.assets.length; ++i) {... */\n      iszero\n      tag_302\n      jumpi\n        /* \"hopium/etf/main/etf-oracle.sol\":7119:7132  address token */\n      0x00\n        /* \"hopium/etf/main/etf-oracle.sol\":7135:7138  etf */\n      dup6\n        /* \"hopium/etf/main/etf-oracle.sol\":7135:7145  etf.assets */\n      0x40\n      add\n      mload\n        /* \"hopium/etf/main/etf-oracle.sol\":7146:7147  i */\n      dup3\n        /* \"hopium/etf/main/etf-oracle.sol\":7135:7148  etf.assets[i] */\n      dup2\n      mload\n      dup2\n      lt\n      tag_304\n      jumpi\n      tag_305\n      tag_178\n      jump\t// in\n    tag_305:\n    tag_304:\n      0x20\n      mul\n      0x20\n      add\n      add\n      mload\n        /* \"hopium/etf/main/etf-oracle.sol\":7135:7161  etf.assets[i].tokenAddress */\n      0x00\n      add\n      mload\n        /* \"hopium/etf/main/etf-oracle.sol\":7119:7161  address token = etf.assets[i].tokenAddress */\n      swap1\n      pop\n        /* \"hopium/etf/main/etf-oracle.sol\":7180:7191  uint256 bal */\n      0x00\n        /* \"hopium/etf/main/etf-oracle.sol\":7201:7206  token */\n      dup2\n        /* \"hopium/etf/main/etf-oracle.sol\":7194:7217  IERC20(token).balanceOf */\n      0xffffffffffffffffffffffffffffffffffffffff\n      and\n      0x70a08231\n        /* \"hopium/etf/main/etf-oracle.sol\":7218:7226  etfVault */\n      dup8\n        /* \"hopium/etf/main/etf-oracle.sol\":7194:7227  IERC20(token).balanceOf(etfVault) */\n      mload(0x40)\n      dup3\n      0xffffffff\n      and\n      0xe0\n      shl\n      dup2\n      mstore\n      0x04\n      add\n      tag_306\n      swap2\n      swap1\n      tag_30\n      jump\t// in\n    tag_306:\n      0x20\n      mload(0x40)\n      dup1\n      dup4\n      sub\n      dup2\n      dup7\n      gas\n      staticcall\n      iszero\n      dup1\n      iszero\n      tag_308\n      jumpi\n      returndatacopy(0x00, 0x00, returndatasize)\n      revert(0x00, returndatasize)\n    tag_308:\n      pop\n      pop\n      pop\n      pop\n      mload(0x40)\n      returndatasize\n      not(0x1f)\n      0x1f\n      dup3\n      add\n      and\n      dup3\n      add\n      dup1\n      0x40\n      mstore\n      pop\n      dup2\n      add\n      swap1\n      tag_309\n      swap2\n      swap1\n      tag_140\n      jump\t// in\n    tag_309:\n        /* \"hopium/etf/main/etf-oracle.sol\":7180:7227  uint256 bal = IERC20(token).balanceOf(etfVault) */\n      swap1\n      pop\n        /* \"hopium/etf/main/etf-oracle.sol\":7269:7270  0 */\n      0x00\n        /* \"hopium/etf/main/etf-oracle.sol\":7262:7265  bal */\n      dup2\n        /* \"hopium/etf/main/etf-oracle.sol\":7262:7270  bal == 0 */\n      sub\n        /* \"hopium/etf/main/etf-oracle.sol\":7258:7280  if (bal == 0) continue */\n      tag_310\n      jumpi\n        /* \"hopium/etf/main/etf-oracle.sol\":7272:7280  continue */\n      pop\n      pop\n      jump(tag_303)\n        /* \"hopium/etf/main/etf-oracle.sol\":7258:7280  if (bal == 0) continue */\n    tag_310:\n        /* \"hopium/etf/main/etf-oracle.sol\":7348:7370  uint256 wethPerToken18 */\n      0x00\n        /* \"hopium/etf/main/etf-oracle.sol\":7373:7379  oracle */\n      dup5\n        /* \"hopium/etf/main/etf-oracle.sol\":7373:7397  oracle.getTokenWethPrice */\n      0xffffffffffffffffffffffffffffffffffffffff\n      and\n      0x7b49b49d\n        /* \"hopium/etf/main/etf-oracle.sol\":7398:7403  token */\n      dup5\n        /* \"hopium/etf/main/etf-oracle.sol\":7373:7404  oracle.getTokenWethPrice(token) */\n      mload(0x40)\n      dup3\n      0xffffffff\n      and\n      0xe0\n      shl\n      dup2\n      mstore\n      0x04\n      add\n      tag_311\n      swap2\n      swap1\n      tag_30\n      jump\t// in\n    tag_311:\n      0x20\n      mload(0x40)\n      dup1\n      dup4\n      sub\n      dup2\n      dup7\n      gas\n      staticcall\n      iszero\n      dup1\n      iszero\n      tag_313\n      jumpi\n      returndatacopy(0x00, 0x00, returndatasize)\n      revert(0x00, returndatasize)\n    tag_313:\n      pop\n      pop\n      pop\n      pop\n      mload(0x40)\n      returndatasize\n      not(0x1f)\n      0x1f\n      dup3\n      add\n      and\n      dup3\n      add\n      dup1\n      0x40\n      mstore\n      pop\n      dup2\n      add\n      swap1\n      tag_314\n      swap2\n      swap1\n      tag_140\n      jump\t// in\n    tag_314:\n        /* \"hopium/etf/main/etf-oracle.sol\":7348:7404  uint256 wethPerToken18 = oracle.getTokenWethPrice(token) */\n      swap1\n      pop\n        /* \"hopium/etf/main/etf-oracle.sol\":7444:7445  0 */\n      0x00\n        /* \"hopium/etf/main/etf-oracle.sol\":7426:7440  wethPerToken18 */\n      dup2\n        /* \"hopium/etf/main/etf-oracle.sol\":7426:7445  wethPerToken18 == 0 */\n      sub\n        /* \"hopium/etf/main/etf-oracle.sol\":7422:7455  if (wethPerToken18 == 0) continue */\n      tag_315\n      jumpi\n        /* \"hopium/etf/main/etf-oracle.sol\":7447:7455  continue */\n      pop\n      pop\n      pop\n      jump(tag_303)\n        /* \"hopium/etf/main/etf-oracle.sol\":7422:7455  if (wethPerToken18 == 0) continue */\n    tag_315:\n        /* \"hopium/etf/main/etf-oracle.sol\":7533:7542  uint8 dec */\n      0x00\n        /* \"hopium/etf/main/etf-oracle.sol\":7560:7565  token */\n      dup4\n        /* \"hopium/etf/main/etf-oracle.sol\":7545:7575  IERC20Metadata(token).decimals */\n      0xffffffffffffffffffffffffffffffffffffffff\n      and\n      0x313ce567\n        /* \"hopium/etf/main/etf-oracle.sol\":7545:7577  IERC20Metadata(token).decimals() */\n      mload(0x40)\n      dup2\n      0xffffffff\n      and\n      0xe0\n      shl\n      dup2\n      mstore\n      0x04\n      add\n      0x20\n      mload(0x40)\n      dup1\n      dup4\n      sub\n      dup2\n      dup7\n      gas\n      staticcall\n      iszero\n      dup1\n      iszero\n      tag_317\n      jumpi\n      returndatacopy(0x00, 0x00, returndatasize)\n      revert(0x00, returndatasize)\n    tag_317:\n      pop\n      pop\n      pop\n      pop\n      mload(0x40)\n      returndatasize\n      not(0x1f)\n      0x1f\n      dup3\n      add\n      and\n      dup3\n      add\n      dup1\n      0x40\n      mstore\n      pop\n      dup2\n      add\n      swap1\n      tag_318\n      swap2\n      swap1\n      tag_144\n      jump\t// in\n    tag_318:\n        /* \"hopium/etf/main/etf-oracle.sol\":7533:7577  uint8 dec = IERC20Metadata(token).decimals() */\n      swap1\n      pop\n        /* \"hopium/etf/main/etf-oracle.sol\":7595:7608  uint256 denom */\n      0x00\n        /* \"hopium/etf/main/etf-oracle.sol\":7611:7622  _pow10(dec) */\n      tag_319\n        /* \"hopium/etf/main/etf-oracle.sol\":7618:7621  dec */\n      dup3\n        /* \"hopium/etf/main/etf-oracle.sol\":7611:7617  _pow10 */\n      tag_293\n        /* \"hopium/etf/main/etf-oracle.sol\":7611:7622  _pow10(dec) */\n      jump\t// in\n    tag_319:\n        /* \"hopium/etf/main/etf-oracle.sol\":7595:7622  uint256 denom = _pow10(dec) */\n      swap1\n      pop\n        /* \"hopium/etf/main/etf-oracle.sol\":7661:7704  FullMath.mulDiv(bal, wethPerToken18, denom) */\n      tag_320\n        /* \"hopium/etf/main/etf-oracle.sol\":7677:7680  bal */\n      dup5\n        /* \"hopium/etf/main/etf-oracle.sol\":7682:7696  wethPerToken18 */\n      dup5\n        /* \"hopium/etf/main/etf-oracle.sol\":7698:7703  denom */\n      dup4\n        /* \"hopium/etf/main/etf-oracle.sol\":7661:7676  FullMath.mulDiv */\n      tag_154\n        /* \"hopium/etf/main/etf-oracle.sol\":7661:7704  FullMath.mulDiv(bal, wethPerToken18, denom) */\n      jump\t// in\n    tag_320:\n        /* \"hopium/etf/main/etf-oracle.sol\":7641:7704  totalWethValue18 += FullMath.mulDiv(bal, wethPerToken18, denom) */\n      dup9\n      add\n      swap8\n      pop\n        /* \"hopium/etf/main/etf-oracle.sol\":7101:7719  {... */\n      pop\n      pop\n      pop\n      pop\n      pop\n        /* \"hopium/etf/main/etf-oracle.sol\":7053:7719  for (uint256 i = 0; i < etf.assets.length; ++i) {... */\n    tag_303:\n        /* \"hopium/etf/main/etf-oracle.sol\":7096:7099  ++i */\n      dup1\n      0x01\n      add\n      swap1\n      pop\n        /* \"hopium/etf/main/etf-oracle.sol\":7053:7719  for (uint256 i = 0; i < etf.assets.length; ++i) {... */\n      jump(tag_301)\n    tag_302:\n      pop\n        /* \"hopium/etf/main/etf-oracle.sol\":6910:7735  {... */\n      pop\n        /* \"hopium/etf/main/etf-oracle.sol\":6803:7735  function _getEtfTvlWeth(Etf memory etf, address etfVault) internal view returns (uint256 totalWethValue18) {... */\n      swap3\n      swap2\n      pop\n      pop\n      jump\t// out\n        /* \"hopium/common/lib/full-math.sol\":285:2708  function mulDiv(... */\n    tag_154:\n        /* \"hopium/common/lib/full-math.sol\":397:411  uint256 result */\n      0x00\n        /* \"hopium/common/lib/full-math.sol\":501:514  uint256 prod0 */\n      0x00\n        /* \"hopium/common/lib/full-math.sol\":558:571  uint256 prod1 */\n      0x00\n        /* \"hopium/common/lib/full-math.sol\":668:669  0 */\n      0x00\n        /* \"hopium/common/lib/full-math.sol\":664:670  not(0) */\n      not\n        /* \"hopium/common/lib/full-math.sol\":661:662  b */\n      dup6\n        /* \"hopium/common/lib/full-math.sol\":658:659  a */\n      dup8\n        /* \"hopium/common/lib/full-math.sol\":651:671  mulmod(a, b, not(0)) */\n      mulmod\n        /* \"hopium/common/lib/full-math.sol\":704:705  b */\n      dup6\n        /* \"hopium/common/lib/full-math.sol\":701:702  a */\n      dup8\n        /* \"hopium/common/lib/full-math.sol\":697:706  mul(a, b) */\n      mul\n        /* \"hopium/common/lib/full-math.sol\":688:706  prod0 := mul(a, b) */\n      swap3\n      pop\n        /* \"hopium/common/lib/full-math.sol\":759:764  prod0 */\n      dup3\n        /* \"hopium/common/lib/full-math.sol\":755:757  mm */\n      dup2\n        /* \"hopium/common/lib/full-math.sol\":752:765  lt(mm, prod0) */\n      lt\n        /* \"hopium/common/lib/full-math.sol\":744:749  prod0 */\n      dup4\n        /* \"hopium/common/lib/full-math.sol\":740:742  mm */\n      dup3\n        /* \"hopium/common/lib/full-math.sol\":736:750  sub(mm, prod0) */\n      sub\n        /* \"hopium/common/lib/full-math.sol\":732:766  sub(sub(mm, prod0), lt(mm, prod0)) */\n      sub\n        /* \"hopium/common/lib/full-math.sol\":723:766  prod1 := sub(sub(mm, prod0), lt(mm, prod0)) */\n      swap2\n      pop\n        /* \"hopium/common/lib/full-math.sol\":623:780  {... */\n      pop\n        /* \"hopium/common/lib/full-math.sol\":854:855  0 */\n      0x00\n        /* \"hopium/common/lib/full-math.sol\":845:850  prod1 */\n      dup2\n        /* \"hopium/common/lib/full-math.sol\":845:855  prod1 == 0 */\n      sub\n        /* \"hopium/common/lib/full-math.sol\":841:883  if (prod1 == 0) return prod0 / denominator */\n      tag_322\n      jumpi\n        /* \"hopium/common/lib/full-math.sol\":872:883  denominator */\n      dup4\n        /* \"hopium/common/lib/full-math.sol\":864:869  prod0 */\n      dup3\n        /* \"hopium/common/lib/full-math.sol\":864:883  prod0 / denominator */\n      dup2\n      tag_323\n      jumpi\n      tag_324\n      tag_204\n      jump\t// in\n    tag_324:\n    tag_323:\n      div\n        /* \"hopium/common/lib/full-math.sol\":857:883  return prod0 / denominator */\n      swap3\n      pop\n      pop\n      pop\n      jump(tag_321)\n        /* \"hopium/common/lib/full-math.sol\":841:883  if (prod1 == 0) return prod0 / denominator */\n    tag_322:\n        /* \"hopium/common/lib/full-math.sol\":920:925  prod1 */\n      dup1\n        /* \"hopium/common/lib/full-math.sol\":906:917  denominator */\n      dup5\n        /* \"hopium/common/lib/full-math.sol\":906:925  denominator > prod1 */\n      gt\n        /* \"hopium/common/lib/full-math.sol\":898:945  require(denominator > prod1, \"mulDiv overflow\") */\n      tag_325\n      jumpi\n      mload(0x40)\n      0x08c379a000000000000000000000000000000000000000000000000000000000\n      dup2\n      mstore\n      0x04\n      add\n      tag_326\n      swap1\n      tag_327\n      jump\t// in\n    tag_326:\n      mload(0x40)\n      dup1\n      swap2\n      sub\n      swap1\n      revert\n    tag_325:\n        /* \"hopium/common/lib/full-math.sol\":1138:1155  uint256 remainder */\n      0x00\n        /* \"hopium/common/lib/full-math.sol\":1222:1233  denominator */\n      dup5\n        /* \"hopium/common/lib/full-math.sol\":1219:1220  b */\n      dup7\n        /* \"hopium/common/lib/full-math.sol\":1216:1217  a */\n      dup9\n        /* \"hopium/common/lib/full-math.sol\":1209:1234  mulmod(a, b, denominator) */\n      mulmod\n        /* \"hopium/common/lib/full-math.sol\":1196:1234  remainder := mulmod(a, b, denominator) */\n      swap1\n      pop\n        /* \"hopium/common/lib/full-math.sol\":1285:1290  prod0 */\n      dup3\n        /* \"hopium/common/lib/full-math.sol\":1274:1283  remainder */\n      dup2\n        /* \"hopium/common/lib/full-math.sol\":1271:1291  gt(remainder, prod0) */\n      gt\n        /* \"hopium/common/lib/full-math.sol\":1264:1269  prod1 */\n      dup3\n        /* \"hopium/common/lib/full-math.sol\":1260:1292  sub(prod1, gt(remainder, prod0)) */\n      sub\n        /* \"hopium/common/lib/full-math.sol\":1251:1292  prod1 := sub(prod1, gt(remainder, prod0)) */\n      swap2\n      pop\n        /* \"hopium/common/lib/full-math.sol\":1329:1338  remainder */\n      dup1\n        /* \"hopium/common/lib/full-math.sol\":1322:1327  prod0 */\n      dup4\n        /* \"hopium/common/lib/full-math.sol\":1318:1339  sub(prod0, remainder) */\n      sub\n        /* \"hopium/common/lib/full-math.sol\":1309:1339  prod0 := sub(prod0, remainder) */\n      swap3\n      pop\n        /* \"hopium/common/lib/full-math.sol\":1543:1555  uint256 twos */\n      0x00\n        /* \"hopium/common/lib/full-math.sol\":1588:1589  1 */\n      0x01\n        /* \"hopium/common/lib/full-math.sol\":1574:1585  denominator */\n      dup7\n        /* \"hopium/common/lib/full-math.sol\":1573:1585  ~denominator */\n      not\n        /* \"hopium/common/lib/full-math.sol\":1573:1589  ~denominator + 1 */\n      add\n        /* \"hopium/common/lib/full-math.sol\":1558:1569  denominator */\n      dup7\n        /* \"hopium/common/lib/full-math.sol\":1558:1590  denominator & (~denominator + 1) */\n      and\n        /* \"hopium/common/lib/full-math.sol\":1543:1590  uint256 twos = denominator & (~denominator + 1) */\n      swap1\n      pop\n        /* \"hopium/common/lib/full-math.sol\":1663:1667  twos */\n      dup1\n        /* \"hopium/common/lib/full-math.sol\":1650:1661  denominator */\n      dup7\n        /* \"hopium/common/lib/full-math.sol\":1646:1668  div(denominator, twos) */\n      div\n        /* \"hopium/common/lib/full-math.sol\":1631:1668  denominator := div(denominator, twos) */\n      swap6\n      pop\n        /* \"hopium/common/lib/full-math.sol\":1705:1709  twos */\n      dup1\n        /* \"hopium/common/lib/full-math.sol\":1698:1703  prod0 */\n      dup5\n        /* \"hopium/common/lib/full-math.sol\":1694:1710  div(prod0, twos) */\n      div\n        /* \"hopium/common/lib/full-math.sol\":1685:1710  prod0 := div(prod0, twos) */\n      swap4\n      pop\n        /* \"hopium/common/lib/full-math.sol\":1764:1765  1 */\n      0x01\n        /* \"hopium/common/lib/full-math.sol\":1757:1761  twos */\n      dup2\n        /* \"hopium/common/lib/full-math.sol\":1750:1754  twos */\n      dup3\n        /* \"hopium/common/lib/full-math.sol\":1747:1748  0 */\n      0x00\n        /* \"hopium/common/lib/full-math.sol\":1743:1755  sub(0, twos) */\n      sub\n        /* \"hopium/common/lib/full-math.sol\":1739:1762  div(sub(0, twos), twos) */\n      div\n        /* \"hopium/common/lib/full-math.sol\":1735:1766  add(div(sub(0, twos), twos), 1) */\n      add\n        /* \"hopium/common/lib/full-math.sol\":1727:1766  twos := add(div(sub(0, twos), twos), 1) */\n      swap1\n      pop\n        /* \"hopium/common/lib/full-math.sol\":1856:1860  twos */\n      dup1\n        /* \"hopium/common/lib/full-math.sol\":1848:1853  prod1 */\n      dup4\n        /* \"hopium/common/lib/full-math.sol\":1848:1860  prod1 * twos */\n      mul\n        /* \"hopium/common/lib/full-math.sol\":1839:1860  prod0 |= prod1 * twos */\n      dup5\n      or\n      swap4\n      pop\n        /* \"hopium/common/lib/full-math.sol\":2064:2075  uint256 inv */\n      0x00\n        /* \"hopium/common/lib/full-math.sol\":2098:2099  2 */\n      0x02\n        /* \"hopium/common/lib/full-math.sol\":2083:2094  denominator */\n      dup8\n        /* \"hopium/common/lib/full-math.sol\":2079:2080  3 */\n      0x03\n        /* \"hopium/common/lib/full-math.sol\":2079:2094  3 * denominator */\n      mul\n        /* \"hopium/common/lib/full-math.sol\":2078:2099  (3 * denominator) ^ 2 */\n      xor\n        /* \"hopium/common/lib/full-math.sol\":2064:2099  uint256 inv = (3 * denominator) ^ 2 */\n      swap1\n      pop\n        /* \"hopium/common/lib/full-math.sol\":2138:2141  inv */\n      dup1\n        /* \"hopium/common/lib/full-math.sol\":2124:2135  denominator */\n      dup8\n        /* \"hopium/common/lib/full-math.sol\":2124:2141  denominator * inv */\n      mul\n        /* \"hopium/common/lib/full-math.sol\":2120:2121  2 */\n      0x02\n        /* \"hopium/common/lib/full-math.sol\":2120:2141  2 - denominator * inv */\n      sub\n        /* \"hopium/common/lib/full-math.sol\":2113:2141  inv *= 2 - denominator * inv */\n      dup2\n      mul\n      swap1\n      pop\n        /* \"hopium/common/lib/full-math.sol\":2200:2203  inv */\n      dup1\n        /* \"hopium/common/lib/full-math.sol\":2186:2197  denominator */\n      dup8\n        /* \"hopium/common/lib/full-math.sol\":2186:2203  denominator * inv */\n      mul\n        /* \"hopium/common/lib/full-math.sol\":2182:2183  2 */\n      0x02\n        /* \"hopium/common/lib/full-math.sol\":2182:2203  2 - denominator * inv */\n      sub\n        /* \"hopium/common/lib/full-math.sol\":2175:2203  inv *= 2 - denominator * inv */\n      dup2\n      mul\n      swap1\n      pop\n        /* \"hopium/common/lib/full-math.sol\":2256:2259  inv */\n      dup1\n        /* \"hopium/common/lib/full-math.sol\":2242:2253  denominator */\n      dup8\n        /* \"hopium/common/lib/full-math.sol\":2242:2259  denominator * inv */\n      mul\n        /* \"hopium/common/lib/full-math.sol\":2238:2239  2 */\n      0x02\n        /* \"hopium/common/lib/full-math.sol\":2238:2259  2 - denominator * inv */\n      sub\n        /* \"hopium/common/lib/full-math.sol\":2231:2259  inv *= 2 - denominator * inv */\n      dup2\n      mul\n      swap1\n      pop\n        /* \"hopium/common/lib/full-math.sol\":2311:2314  inv */\n      dup1\n        /* \"hopium/common/lib/full-math.sol\":2297:2308  denominator */\n      dup8\n        /* \"hopium/common/lib/full-math.sol\":2297:2314  denominator * inv */\n      mul\n        /* \"hopium/common/lib/full-math.sol\":2293:2294  2 */\n      0x02\n        /* \"hopium/common/lib/full-math.sol\":2293:2314  2 - denominator * inv */\n      sub\n        /* \"hopium/common/lib/full-math.sol\":2286:2314  inv *= 2 - denominator * inv */\n      dup2\n      mul\n      swap1\n      pop\n        /* \"hopium/common/lib/full-math.sol\":2368:2371  inv */\n      dup1\n        /* \"hopium/common/lib/full-math.sol\":2354:2365  denominator */\n      dup8\n        /* \"hopium/common/lib/full-math.sol\":2354:2371  denominator * inv */\n      mul\n        /* \"hopium/common/lib/full-math.sol\":2350:2351  2 */\n      0x02\n        /* \"hopium/common/lib/full-math.sol\":2350:2371  2 - denominator * inv */\n      sub\n        /* \"hopium/common/lib/full-math.sol\":2343:2371  inv *= 2 - denominator * inv */\n      dup2\n      mul\n      swap1\n      pop\n        /* \"hopium/common/lib/full-math.sol\":2426:2429  inv */\n      dup1\n        /* \"hopium/common/lib/full-math.sol\":2412:2423  denominator */\n      dup8\n        /* \"hopium/common/lib/full-math.sol\":2412:2429  denominator * inv */\n      mul\n        /* \"hopium/common/lib/full-math.sol\":2408:2409  2 */\n      0x02\n        /* \"hopium/common/lib/full-math.sol\":2408:2429  2 - denominator * inv */\n      sub\n        /* \"hopium/common/lib/full-math.sol\":2401:2429  inv *= 2 - denominator * inv */\n      dup2\n      mul\n      swap1\n      pop\n        /* \"hopium/common/lib/full-math.sol\":2661:2664  inv */\n      dup1\n        /* \"hopium/common/lib/full-math.sol\":2653:2658  prod0 */\n      dup6\n        /* \"hopium/common/lib/full-math.sol\":2653:2664  prod0 * inv */\n      mul\n        /* \"hopium/common/lib/full-math.sol\":2644:2664  result = prod0 * inv */\n      swap6\n      pop\n        /* \"hopium/common/lib/full-math.sol\":2678:2691  return result */\n      pop\n      pop\n      pop\n      pop\n      pop\n        /* \"hopium/common/lib/full-math.sol\":285:2708  function mulDiv(... */\n    tag_321:\n      swap4\n      swap3\n      pop\n      pop\n      pop\n      jump\t// out\n        /* \"hopium/uniswap/interface/imUniswapOracle.sol\":218:369  function getUniswapOracle() internal view virtual returns (IUniswapOracle) {... */\n    tag_158:\n        /* \"hopium/uniswap/interface/imUniswapOracle.sol\":277:291  IUniswapOracle */\n      0x00\n        /* \"hopium/uniswap/interface/imUniswapOracle.sol\":325:361  fetchFromDirectory(\"uniswap-oracle\") */\n      tag_329\n      mload(0x40)\n      dup1\n      0x40\n      add\n      0x40\n      mstore\n      dup1\n      0x0e\n      dup2\n      mstore\n      0x20\n      add\n      0x756e69737761702d6f7261636c65000000000000000000000000000000000000\n      dup2\n      mstore\n      pop\n        /* \"hopium/uniswap/interface/imUniswapOracle.sol\":325:343  fetchFromDirectory */\n      tag_28\n        /* \"hopium/uniswap/interface/imUniswapOracle.sol\":325:361  fetchFromDirectory(\"uniswap-oracle\") */\n      jump\t// in\n    tag_329:\n        /* \"hopium/uniswap/interface/imUniswapOracle.sol\":303:362  return IUniswapOracle(fetchFromDirectory(\"uniswap-oracle\")) */\n      swap1\n      pop\n        /* \"hopium/uniswap/interface/imUniswapOracle.sol\":218:369  function getUniswapOracle() internal view virtual returns (IUniswapOracle) {... */\n      swap1\n      jump\t// out\n        /* \"hopium/etf/main/etf-oracle.sol\":8512:8966  function _sumPerAsset(Etf memory etf, function (address) external view returns (uint256) fn) internal view returns (uint256 sum) {... */\n    tag_221:\n        /* \"hopium/etf/main/etf-oracle.sol\":8628:8639  uint256 sum */\n      0x00\n        /* \"hopium/etf/main/etf-oracle.sol\":8680:8689  uint256 i */\n      0x00\n        /* \"hopium/etf/main/etf-oracle.sol\":8692:8693  0 */\n      0x00\n        /* \"hopium/etf/main/etf-oracle.sol\":8680:8693  uint256 i = 0 */\n      swap1\n      pop\n        /* \"hopium/etf/main/etf-oracle.sol\":8675:8950  for (uint256 i = 0; i < etf.assets.length; ++i) {... */\n    tag_331:\n        /* \"hopium/etf/main/etf-oracle.sol\":8699:8702  etf */\n      dup5\n        /* \"hopium/etf/main/etf-oracle.sol\":8699:8709  etf.assets */\n      0x40\n      add\n      mload\n        /* \"hopium/etf/main/etf-oracle.sol\":8699:8716  etf.assets.length */\n      mload\n        /* \"hopium/etf/main/etf-oracle.sol\":8695:8696  i */\n      dup2\n        /* \"hopium/etf/main/etf-oracle.sol\":8695:8716  i < etf.assets.length */\n      lt\n        /* \"hopium/etf/main/etf-oracle.sol\":8675:8950  for (uint256 i = 0; i < etf.assets.length; ++i) {... */\n      iszero\n      tag_332\n      jumpi\n        /* \"hopium/etf/main/etf-oracle.sol\":8741:8754  address token */\n      0x00\n        /* \"hopium/etf/main/etf-oracle.sol\":8757:8760  etf */\n      dup6\n        /* \"hopium/etf/main/etf-oracle.sol\":8757:8767  etf.assets */\n      0x40\n      add\n      mload\n        /* \"hopium/etf/main/etf-oracle.sol\":8768:8769  i */\n      dup3\n        /* \"hopium/etf/main/etf-oracle.sol\":8757:8770  etf.assets[i] */\n      dup2\n      mload\n      dup2\n      lt\n      tag_334\n      jumpi\n      tag_335\n      tag_178\n      jump\t// in\n    tag_335:\n    tag_334:\n      0x20\n      mul\n      0x20\n      add\n      add\n      mload\n        /* \"hopium/etf/main/etf-oracle.sol\":8757:8783  etf.assets[i].tokenAddress */\n      0x00\n      add\n      mload\n        /* \"hopium/etf/main/etf-oracle.sol\":8741:8783  address token = etf.assets[i].tokenAddress */\n      swap1\n      pop\n        /* \"hopium/etf/main/etf-oracle.sol\":8805:8807  fn */\n      dup5\n      dup5\n        /* \"hopium/etf/main/etf-oracle.sol\":8808:8813  token */\n      dup3\n        /* \"hopium/etf/main/etf-oracle.sol\":8805:8814  fn(token) */\n      mload(0x40)\n      dup3\n      0xffffffff\n      and\n      0xe0\n      shl\n      dup2\n      mstore\n      0x04\n      add\n      tag_336\n      swap2\n      swap1\n      tag_30\n      jump\t// in\n    tag_336:\n      0x20\n      mload(0x40)\n      dup1\n      dup4\n      sub\n      dup2\n      dup7\n      gas\n      staticcall\n      swap3\n      pop\n      pop\n      pop\n      dup1\n      iszero\n      tag_337\n      jumpi\n      pop\n      mload(0x40)\n      returndatasize\n      not(0x1f)\n      0x1f\n      dup3\n      add\n      and\n      dup3\n      add\n      dup1\n      0x40\n      mstore\n      pop\n      dup2\n      add\n      swap1\n      tag_338\n      swap2\n      swap1\n      tag_140\n      jump\t// in\n    tag_338:\n      0x01\n    tag_337:\n        /* \"hopium/etf/main/etf-oracle.sol\":8801:8936  try fn(token) returns (uint256 value) {... */\n      iszero\n      tag_343\n      jumpi\n        /* \"hopium/etf/main/etf-oracle.sol\":8868:8873  value */\n      dup1\n        /* \"hopium/etf/main/etf-oracle.sol\":8861:8873  sum += value */\n      dup5\n      add\n      swap4\n      pop\n        /* \"hopium/etf/main/etf-oracle.sol\":8815:8892  returns (uint256 value) {... */\n      pop\n        /* \"hopium/etf/main/etf-oracle.sol\":8801:8936  try fn(token) returns (uint256 value) {... */\n    tag_343:\n        /* \"hopium/etf/main/etf-oracle.sol\":8723:8950  {... */\n      pop\n        /* \"hopium/etf/main/etf-oracle.sol\":8718:8721  ++i */\n      dup1\n      0x01\n      add\n      swap1\n      pop\n        /* \"hopium/etf/main/etf-oracle.sol\":8675:8950  for (uint256 i = 0; i < etf.assets.length; ++i) {... */\n      jump(tag_331)\n    tag_332:\n      pop\n        /* \"hopium/etf/main/etf-oracle.sol\":8512:8966  function _sumPerAsset(Etf memory etf, function (address) external view returns (uint256) fn) internal view returns (uint256 sum) {... */\n      swap4\n      swap3\n      pop\n      pop\n      pop\n      jump\t// out\n        /* \"hopium/etf/main/etf-oracle.sol\":627:834  function _pow10(uint8 exp) internal pure returns (uint256) {... */\n    tag_293:\n        /* \"hopium/etf/main/etf-oracle.sol\":677:684  uint256 */\n      0x00\n        /* \"hopium/etf/main/etf-oracle.sol\":711:713  77 */\n      0x4d\n        /* \"hopium/etf/main/etf-oracle.sol\":704:707  exp */\n      dup3\n        /* \"hopium/etf/main/etf-oracle.sol\":704:713  exp <= 77 */\n      0xff\n      and\n      gt\n      iszero\n        /* \"hopium/etf/main/etf-oracle.sol\":696:732  require(exp <= 77, \"pow10 overflow\") */\n      tag_345\n      jumpi\n      mload(0x40)\n      0x08c379a000000000000000000000000000000000000000000000000000000000\n      dup2\n      mstore\n      0x04\n      add\n      tag_346\n      swap1\n      tag_347\n      jump\t// in\n    tag_346:\n      mload(0x40)\n      dup1\n      swap2\n      sub\n      swap1\n      revert\n    tag_345:\n        /* \"hopium/etf/main/etf-oracle.sol\":821:824  exp */\n      dup2\n        /* \"hopium/etf/main/etf-oracle.sol\":813:825  uint256(exp) */\n      0xff\n      and\n        /* \"hopium/etf/main/etf-oracle.sol\":807:809  10 */\n      0x0a\n        /* \"hopium/etf/main/etf-oracle.sol\":807:825  10 ** uint256(exp) */\n      exp\n        /* \"hopium/etf/main/etf-oracle.sol\":800:825  return 10 ** uint256(exp) */\n      swap1\n      pop\n        /* \"hopium/etf/main/etf-oracle.sol\":627:834  function _pow10(uint8 exp) internal pure returns (uint256) {... */\n      swap2\n      swap1\n      pop\n      jump\t// out\n    tag_89:\n      mload(0x40)\n      dup1\n      0xa0\n      add\n      0x40\n      mstore\n      dup1\n      tag_348\n      tag_349\n      jump\t// in\n    tag_348:\n      dup2\n      mstore\n      0x20\n      add\n      tag_350\n      tag_349\n      jump\t// in\n    tag_350:\n      dup2\n      mstore\n      0x20\n      add\n      tag_351\n      tag_349\n      jump\t// in\n    tag_351:\n      dup2\n      mstore\n      0x20\n      add\n      0x00\n      dup2\n      mstore\n      0x20\n      add\n      0x00\n      dup2\n      mstore\n      pop\n      swap1\n      jump\t// out\n    tag_171:\n      mload(0x40)\n      dup1\n      0xc0\n      add\n      0x40\n      mstore\n      dup1\n      and(0xffffffffffffffffffffffffffffffffffffffff, 0x00)\n      dup2\n      mstore\n      0x20\n      add\n      and(0xff, 0x00)\n      dup2\n      mstore\n      0x20\n      add\n      and(0xffff, 0x00)\n      dup2\n      mstore\n      0x20\n      add\n      0x00\n      dup2\n      mstore\n      0x20\n      add\n      0x00\n      dup2\n      mstore\n      0x20\n      add\n      0x00\n      dup2\n      mstore\n      pop\n      swap1\n      jump\t// out\n    tag_247:\n      mload(0x40)\n      dup1\n      0x0100\n      add\n      0x40\n      mstore\n      dup1\n      and(0xffffffffffffffffffffffffffffffffffffffff, 0x00)\n      dup2\n      mstore\n      0x20\n      add\n      and(0xff, 0x00)\n      dup2\n      mstore\n      0x20\n      add\n      and(0xffff, 0x00)\n      dup2\n      mstore\n      0x20\n      add\n      0x00\n      dup2\n      mstore\n      0x20\n      add\n      0x00\n      dup2\n      mstore\n      0x20\n      add\n      0x00\n      dup2\n      mstore\n      0x20\n      add\n      0x00\n      dup2\n      mstore\n      0x20\n      add\n      0x00\n      dup2\n      mstore\n      pop\n      swap1\n      jump\t// out\n    tag_349:\n      mload(0x40)\n      dup1\n      0x40\n      add\n      0x40\n      mstore\n      dup1\n      0x00\n      dup2\n      mstore\n      0x20\n      add\n      0x00\n      dup2\n      mstore\n      pop\n      swap1\n      jump\t// out\n        /* \"#utility.yul\":7:82   */\n    tag_352:\n        /* \"#utility.yul\":40:46   */\n      0x00\n        /* \"#utility.yul\":73:75   */\n      0x40\n        /* \"#utility.yul\":67:76   */\n      mload\n        /* \"#utility.yul\":57:76   */\n      swap1\n      pop\n        /* \"#utility.yul\":7:82   */\n      swap1\n      jump\t// out\n        /* \"#utility.yul\":88:205   */\n    tag_353:\n        /* \"#utility.yul\":197:198   */\n      0x00\n        /* \"#utility.yul\":194:195   */\n      0x00\n        /* \"#utility.yul\":187:199   */\n      revert\n        /* \"#utility.yul\":211:328   */\n    tag_354:\n        /* \"#utility.yul\":320:321   */\n      0x00\n        /* \"#utility.yul\":317:318   */\n      0x00\n        /* \"#utility.yul\":310:322   */\n      revert\n        /* \"#utility.yul\":334:411   */\n    tag_355:\n        /* \"#utility.yul\":371:378   */\n      0x00\n        /* \"#utility.yul\":400:405   */\n      dup2\n        /* \"#utility.yul\":389:405   */\n      swap1\n      pop\n        /* \"#utility.yul\":334:411   */\n      swap2\n      swap1\n      pop\n      jump\t// out\n        /* \"#utility.yul\":417:539   */\n    tag_356:\n        /* \"#utility.yul\":490:514   */\n      tag_444\n        /* \"#utility.yul\":508:513   */\n      dup2\n        /* \"#utility.yul\":490:514   */\n      tag_355\n      jump\t// in\n    tag_444:\n        /* \"#utility.yul\":483:488   */\n      dup2\n        /* \"#utility.yul\":480:515   */\n      eq\n        /* \"#utility.yul\":470:533   */\n      tag_445\n      jumpi\n        /* \"#utility.yul\":529:530   */\n      0x00\n        /* \"#utility.yul\":526:527   */\n      0x00\n        /* \"#utility.yul\":519:531   */\n      revert\n        /* \"#utility.yul\":470:533   */\n    tag_445:\n        /* \"#utility.yul\":417:539   */\n      pop\n      jump\t// out\n        /* \"#utility.yul\":545:684   */\n    tag_357:\n        /* \"#utility.yul\":591:596   */\n      0x00\n        /* \"#utility.yul\":629:635   */\n      dup2\n        /* \"#utility.yul\":616:636   */\n      calldataload\n        /* \"#utility.yul\":607:636   */\n      swap1\n      pop\n        /* \"#utility.yul\":645:678   */\n      tag_447\n        /* \"#utility.yul\":672:677   */\n      dup2\n        /* \"#utility.yul\":645:678   */\n      tag_356\n      jump\t// in\n    tag_447:\n        /* \"#utility.yul\":545:684   */\n      swap3\n      swap2\n      pop\n      pop\n      jump\t// out\n        /* \"#utility.yul\":690:1019   */\n    tag_16:\n        /* \"#utility.yul\":749:755   */\n      0x00\n        /* \"#utility.yul\":798:800   */\n      0x20\n        /* \"#utility.yul\":786:795   */\n      dup3\n        /* \"#utility.yul\":777:784   */\n      dup5\n        /* \"#utility.yul\":773:796   */\n      sub\n        /* \"#utility.yul\":769:801   */\n      slt\n        /* \"#utility.yul\":766:885   */\n      iszero\n      tag_449\n      jumpi\n        /* \"#utility.yul\":804:883   */\n      tag_450\n      tag_353\n      jump\t// in\n    tag_450:\n        /* \"#utility.yul\":766:885   */\n    tag_449:\n        /* \"#utility.yul\":924:925   */\n      0x00\n        /* \"#utility.yul\":949:1002   */\n      tag_451\n        /* \"#utility.yul\":994:1001   */\n      dup5\n        /* \"#utility.yul\":985:991   */\n      dup3\n        /* \"#utility.yul\":974:983   */\n      dup6\n        /* \"#utility.yul\":970:992   */\n      add\n        /* \"#utility.yul\":949:1002   */\n      tag_357\n      jump\t// in\n    tag_451:\n        /* \"#utility.yul\":939:1002   */\n      swap2\n      pop\n        /* \"#utility.yul\":895:1012   */\n      pop\n        /* \"#utility.yul\":690:1019   */\n      swap3\n      swap2\n      pop\n      pop\n      jump\t// out\n        /* \"#utility.yul\":1025:1143   */\n    tag_358:\n        /* \"#utility.yul\":1112:1136   */\n      tag_453\n        /* \"#utility.yul\":1130:1135   */\n      dup2\n        /* \"#utility.yul\":1112:1136   */\n      tag_355\n      jump\t// in\n    tag_453:\n        /* \"#utility.yul\":1107:1110   */\n      dup3\n        /* \"#utility.yul\":1100:1137   */\n      mstore\n        /* \"#utility.yul\":1025:1143   */\n      pop\n      pop\n      jump\t// out\n        /* \"#utility.yul\":1149:1371   */\n    tag_19:\n        /* \"#utility.yul\":1242:1246   */\n      0x00\n        /* \"#utility.yul\":1280:1282   */\n      0x20\n        /* \"#utility.yul\":1269:1278   */\n      dup3\n        /* \"#utility.yul\":1265:1283   */\n      add\n        /* \"#utility.yul\":1257:1283   */\n      swap1\n      pop\n        /* \"#utility.yul\":1293:1364   */\n      tag_455\n        /* \"#utility.yul\":1361:1362   */\n      0x00\n        /* \"#utility.yul\":1350:1359   */\n      dup4\n        /* \"#utility.yul\":1346:1363   */\n      add\n        /* \"#utility.yul\":1337:1343   */\n      dup5\n        /* \"#utility.yul\":1293:1364   */\n      tag_358\n      jump\t// in\n    tag_455:\n        /* \"#utility.yul\":1149:1371   */\n      swap3\n      swap2\n      pop\n      pop\n      jump\t// out\n        /* \"#utility.yul\":1377:1516   */\n    tag_359:\n        /* \"#utility.yul\":1469:1475   */\n      0x00\n        /* \"#utility.yul\":1503:1508   */\n      dup2\n        /* \"#utility.yul\":1497:1509   */\n      mload\n        /* \"#utility.yul\":1487:1509   */\n      swap1\n      pop\n        /* \"#utility.yul\":1377:1516   */\n      swap2\n      swap1\n      pop\n      jump\t// out\n        /* \"#utility.yul\":1522:1731   */\n    tag_360:\n        /* \"#utility.yul\":1646:1657   */\n      0x00\n        /* \"#utility.yul\":1680:1686   */\n      dup3\n        /* \"#utility.yul\":1675:1678   */\n      dup3\n        /* \"#utility.yul\":1668:1687   */\n      mstore\n        /* \"#utility.yul\":1720:1724   */\n      0x20\n        /* \"#utility.yul\":1715:1718   */\n      dup3\n        /* \"#utility.yul\":1711:1725   */\n      add\n        /* \"#utility.yul\":1696:1725   */\n      swap1\n      pop\n        /* \"#utility.yul\":1522:1731   */\n      swap3\n      swap2\n      pop\n      pop\n      jump\t// out\n        /* \"#utility.yul\":1737:1894   */\n    tag_361:\n        /* \"#utility.yul\":1829:1833   */\n      0x00\n        /* \"#utility.yul\":1852:1855   */\n      dup2\n        /* \"#utility.yul\":1844:1855   */\n      swap1\n      pop\n        /* \"#utility.yul\":1882:1886   */\n      0x20\n        /* \"#utility.yul\":1877:1880   */\n      dup3\n        /* \"#utility.yul\":1873:1887   */\n      add\n        /* \"#utility.yul\":1865:1887   */\n      swap1\n      pop\n        /* \"#utility.yul\":1737:1894   */\n      swap2\n      swap1\n      pop\n      jump\t// out\n        /* \"#utility.yul\":1900:2026   */\n    tag_362:\n        /* \"#utility.yul\":1937:1944   */\n      0x00\n        /* \"#utility.yul\":1977:2019   */\n      0xffffffffffffffffffffffffffffffffffffffff\n        /* \"#utility.yul\":1970:1975   */\n      dup3\n        /* \"#utility.yul\":1966:2020   */\n      and\n        /* \"#utility.yul\":1955:2020   */\n      swap1\n      pop\n        /* \"#utility.yul\":1900:2026   */\n      swap2\n      swap1\n      pop\n      jump\t// out\n        /* \"#utility.yul\":2032:2128   */\n    tag_363:\n        /* \"#utility.yul\":2069:2076   */\n      0x00\n        /* \"#utility.yul\":2098:2122   */\n      tag_461\n        /* \"#utility.yul\":2116:2121   */\n      dup3\n        /* \"#utility.yul\":2098:2122   */\n      tag_362\n      jump\t// in\n    tag_461:\n        /* \"#utility.yul\":2087:2122   */\n      swap1\n      pop\n        /* \"#utility.yul\":2032:2128   */\n      swap2\n      swap1\n      pop\n      jump\t// out\n        /* \"#utility.yul\":2134:2242   */\n    tag_364:\n        /* \"#utility.yul\":2211:2235   */\n      tag_463\n        /* \"#utility.yul\":2229:2234   */\n      dup2\n        /* \"#utility.yul\":2211:2235   */\n      tag_363\n      jump\t// in\n    tag_463:\n        /* \"#utility.yul\":2206:2209   */\n      dup3\n        /* \"#utility.yul\":2199:2236   */\n      mstore\n        /* \"#utility.yul\":2134:2242   */\n      pop\n      pop\n      jump\t// out\n        /* \"#utility.yul\":2248:2334   */\n    tag_365:\n        /* \"#utility.yul\":2283:2290   */\n      0x00\n        /* \"#utility.yul\":2323:2327   */\n      0xff\n        /* \"#utility.yul\":2316:2321   */\n      dup3\n        /* \"#utility.yul\":2312:2328   */\n      and\n        /* \"#utility.yul\":2301:2328   */\n      swap1\n      pop\n        /* \"#utility.yul\":2248:2334   */\n      swap2\n      swap1\n      pop\n      jump\t// out\n        /* \"#utility.yul\":2340:2442   */\n    tag_366:\n        /* \"#utility.yul\":2413:2435   */\n      tag_466\n        /* \"#utility.yul\":2429:2434   */\n      dup2\n        /* \"#utility.yul\":2413:2435   */\n      tag_365\n      jump\t// in\n    tag_466:\n        /* \"#utility.yul\":2408:2411   */\n      dup3\n        /* \"#utility.yul\":2401:2436   */\n      mstore\n        /* \"#utility.yul\":2340:2442   */\n      pop\n      pop\n      jump\t// out\n        /* \"#utility.yul\":2448:2537   */\n    tag_367:\n        /* \"#utility.yul\":2484:2491   */\n      0x00\n        /* \"#utility.yul\":2524:2530   */\n      0xffff\n        /* \"#utility.yul\":2517:2522   */\n      dup3\n        /* \"#utility.yul\":2513:2531   */\n      and\n        /* \"#utility.yul\":2502:2531   */\n      swap1\n      pop\n        /* \"#utility.yul\":2448:2537   */\n      swap2\n      swap1\n      pop\n      jump\t// out\n        /* \"#utility.yul\":2543:2648   */\n    tag_368:\n        /* \"#utility.yul\":2618:2641   */\n      tag_469\n        /* \"#utility.yul\":2635:2640   */\n      dup2\n        /* \"#utility.yul\":2618:2641   */\n      tag_367\n      jump\t// in\n    tag_469:\n        /* \"#utility.yul\":2613:2616   */\n      dup3\n        /* \"#utility.yul\":2606:2642   */\n      mstore\n        /* \"#utility.yul\":2543:2648   */\n      pop\n      pop\n      jump\t// out\n        /* \"#utility.yul\":2654:2762   */\n    tag_369:\n        /* \"#utility.yul\":2731:2755   */\n      tag_471\n        /* \"#utility.yul\":2749:2754   */\n      dup2\n        /* \"#utility.yul\":2731:2755   */\n      tag_355\n      jump\t// in\n    tag_471:\n        /* \"#utility.yul\":2726:2729   */\n      dup3\n        /* \"#utility.yul\":2719:2756   */\n      mstore\n        /* \"#utility.yul\":2654:2762   */\n      pop\n      pop\n      jump\t// out\n        /* \"#utility.yul\":2810:4058   */\n    tag_370:\n        /* \"#utility.yul\":2947:2951   */\n      0xc0\n        /* \"#utility.yul\":2942:2945   */\n      dup3\n        /* \"#utility.yul\":2938:2952   */\n      add\n        /* \"#utility.yul\":3042:3046   */\n      0x00\n        /* \"#utility.yul\":3035:3040   */\n      dup3\n        /* \"#utility.yul\":3031:3047   */\n      add\n        /* \"#utility.yul\":3025:3048   */\n      mload\n        /* \"#utility.yul\":3061:3124   */\n      tag_473\n        /* \"#utility.yul\":3118:3122   */\n      0x00\n        /* \"#utility.yul\":3113:3116   */\n      dup6\n        /* \"#utility.yul\":3109:3123   */\n      add\n        /* \"#utility.yul\":3095:3107   */\n      dup3\n        /* \"#utility.yul\":3061:3124   */\n      tag_364\n      jump\t// in\n    tag_473:\n        /* \"#utility.yul\":2962:3134   */\n      pop\n        /* \"#utility.yul\":3225:3229   */\n      0x20\n        /* \"#utility.yul\":3218:3223   */\n      dup3\n        /* \"#utility.yul\":3214:3230   */\n      add\n        /* \"#utility.yul\":3208:3231   */\n      mload\n        /* \"#utility.yul\":3244:3303   */\n      tag_474\n        /* \"#utility.yul\":3297:3301   */\n      0x20\n        /* \"#utility.yul\":3292:3295   */\n      dup6\n        /* \"#utility.yul\":3288:3302   */\n      add\n        /* \"#utility.yul\":3274:3286   */\n      dup3\n        /* \"#utility.yul\":3244:3303   */\n      tag_366\n      jump\t// in\n    tag_474:\n        /* \"#utility.yul\":3144:3313   */\n      pop\n        /* \"#utility.yul\":3404:3408   */\n      0x40\n        /* \"#utility.yul\":3397:3402   */\n      dup3\n        /* \"#utility.yul\":3393:3409   */\n      add\n        /* \"#utility.yul\":3387:3410   */\n      mload\n        /* \"#utility.yul\":3423:3484   */\n      tag_475\n        /* \"#utility.yul\":3478:3482   */\n      0x40\n        /* \"#utility.yul\":3473:3476   */\n      dup6\n        /* \"#utility.yul\":3469:3483   */\n      add\n        /* \"#utility.yul\":3455:3467   */\n      dup3\n        /* \"#utility.yul\":3423:3484   */\n      tag_368\n      jump\t// in\n    tag_475:\n        /* \"#utility.yul\":3323:3494   */\n      pop\n        /* \"#utility.yul\":3587:3591   */\n      0x60\n        /* \"#utility.yul\":3580:3585   */\n      dup3\n        /* \"#utility.yul\":3576:3592   */\n      add\n        /* \"#utility.yul\":3570:3593   */\n      mload\n        /* \"#utility.yul\":3606:3669   */\n      tag_476\n        /* \"#utility.yul\":3663:3667   */\n      0x60\n        /* \"#utility.yul\":3658:3661   */\n      dup6\n        /* \"#utility.yul\":3654:3668   */\n      add\n        /* \"#utility.yul\":3640:3652   */\n      dup3\n        /* \"#utility.yul\":3606:3669   */\n      tag_369\n      jump\t// in\n    tag_476:\n        /* \"#utility.yul\":3504:3679   */\n      pop\n        /* \"#utility.yul\":3773:3777   */\n      0x80\n        /* \"#utility.yul\":3766:3771   */\n      dup3\n        /* \"#utility.yul\":3762:3778   */\n      add\n        /* \"#utility.yul\":3756:3779   */\n      mload\n        /* \"#utility.yul\":3792:3855   */\n      tag_477\n        /* \"#utility.yul\":3849:3853   */\n      0x80\n        /* \"#utility.yul\":3844:3847   */\n      dup6\n        /* \"#utility.yul\":3840:3854   */\n      add\n        /* \"#utility.yul\":3826:3838   */\n      dup3\n        /* \"#utility.yul\":3792:3855   */\n      tag_369\n      jump\t// in\n    tag_477:\n        /* \"#utility.yul\":3689:3865   */\n      pop\n        /* \"#utility.yul\":3959:3963   */\n      0xa0\n        /* \"#utility.yul\":3952:3957   */\n      dup3\n        /* \"#utility.yul\":3948:3964   */\n      add\n        /* \"#utility.yul\":3942:3965   */\n      mload\n        /* \"#utility.yul\":3978:4041   */\n      tag_478\n        /* \"#utility.yul\":4035:4039   */\n      0xa0\n        /* \"#utility.yul\":4030:4033   */\n      dup6\n        /* \"#utility.yul\":4026:4040   */\n      add\n        /* \"#utility.yul\":4012:4024   */\n      dup3\n        /* \"#utility.yul\":3978:4041   */\n      tag_369\n      jump\t// in\n    tag_478:\n        /* \"#utility.yul\":3875:4051   */\n      pop\n        /* \"#utility.yul\":2916:4058   */\n      pop\n        /* \"#utility.yul\":2810:4058   */\n      pop\n      pop\n      jump\t// out\n        /* \"#utility.yul\":4064:4343   */\n    tag_371:\n        /* \"#utility.yul\":4183:4193   */\n      0x00\n        /* \"#utility.yul\":4204:4300   */\n      tag_480\n        /* \"#utility.yul\":4296:4299   */\n      dup4\n        /* \"#utility.yul\":4288:4294   */\n      dup4\n        /* \"#utility.yul\":4204:4300   */\n      tag_370\n      jump\t// in\n    tag_480:\n        /* \"#utility.yul\":4332:4336   */\n      0xc0\n        /* \"#utility.yul\":4327:4330   */\n      dup4\n        /* \"#utility.yul\":4323:4337   */\n      add\n        /* \"#utility.yul\":4309:4337   */\n      swap1\n      pop\n        /* \"#utility.yul\":4064:4343   */\n      swap3\n      swap2\n      pop\n      pop\n      jump\t// out\n        /* \"#utility.yul\":4349:4487   */\n    tag_372:\n        /* \"#utility.yul\":4444:4448   */\n      0x00\n        /* \"#utility.yul\":4476:4480   */\n      0x20\n        /* \"#utility.yul\":4471:4474   */\n      dup3\n        /* \"#utility.yul\":4467:4481   */\n      add\n        /* \"#utility.yul\":4459:4481   */\n      swap1\n      pop\n        /* \"#utility.yul\":4349:4487   */\n      swap2\n      swap1\n      pop\n      jump\t// out\n        /* \"#utility.yul\":4539:5471   */\n    tag_373:\n        /* \"#utility.yul\":4708:4711   */\n      0x00\n        /* \"#utility.yul\":4737:4816   */\n      tag_483\n        /* \"#utility.yul\":4810:4815   */\n      dup3\n        /* \"#utility.yul\":4737:4816   */\n      tag_359\n      jump\t// in\n    tag_483:\n        /* \"#utility.yul\":4832:4943   */\n      tag_484\n        /* \"#utility.yul\":4936:4942   */\n      dup2\n        /* \"#utility.yul\":4931:4934   */\n      dup6\n        /* \"#utility.yul\":4832:4943   */\n      tag_360\n      jump\t// in\n    tag_484:\n        /* \"#utility.yul\":4825:4943   */\n      swap4\n      pop\n        /* \"#utility.yul\":4967:5048   */\n      tag_485\n        /* \"#utility.yul\":5042:5047   */\n      dup4\n        /* \"#utility.yul\":4967:5048   */\n      tag_361\n      jump\t// in\n    tag_485:\n        /* \"#utility.yul\":5071:5078   */\n      dup1\n        /* \"#utility.yul\":5102:5103   */\n      0x00\n        /* \"#utility.yul\":5087:5446   */\n    tag_486:\n        /* \"#utility.yul\":5112:5118   */\n      dup4\n        /* \"#utility.yul\":5109:5110   */\n      dup2\n        /* \"#utility.yul\":5106:5119   */\n      lt\n        /* \"#utility.yul\":5087:5446   */\n      iszero\n      tag_488\n      jumpi\n        /* \"#utility.yul\":5188:5194   */\n      dup2\n        /* \"#utility.yul\":5182:5195   */\n      mload\n        /* \"#utility.yul\":5215:5328   */\n      tag_489\n        /* \"#utility.yul\":5324:5327   */\n      dup9\n        /* \"#utility.yul\":5309:5322   */\n      dup3\n        /* \"#utility.yul\":5215:5328   */\n      tag_371\n      jump\t// in\n    tag_489:\n        /* \"#utility.yul\":5208:5328   */\n      swap8\n      pop\n        /* \"#utility.yul\":5351:5436   */\n      tag_490\n        /* \"#utility.yul\":5429:5435   */\n      dup4\n        /* \"#utility.yul\":5351:5436   */\n      tag_372\n      jump\t// in\n    tag_490:\n        /* \"#utility.yul\":5341:5436   */\n      swap3\n      pop\n        /* \"#utility.yul\":5147:5446   */\n      pop\n        /* \"#utility.yul\":5134:5135   */\n      0x01\n        /* \"#utility.yul\":5131:5132   */\n      dup2\n        /* \"#utility.yul\":5127:5136   */\n      add\n        /* \"#utility.yul\":5122:5136   */\n      swap1\n      pop\n        /* \"#utility.yul\":5087:5446   */\n      jump(tag_486)\n    tag_488:\n        /* \"#utility.yul\":5091:5105   */\n      pop\n        /* \"#utility.yul\":5462:5465   */\n      dup6\n        /* \"#utility.yul\":5455:5465   */\n      swap4\n      pop\n        /* \"#utility.yul\":4713:5471   */\n      pop\n      pop\n      pop\n        /* \"#utility.yul\":4539:5471   */\n      swap3\n      swap2\n      pop\n      pop\n      jump\t// out\n        /* \"#utility.yul\":5477:6060   */\n    tag_24:\n        /* \"#utility.yul\":5698:5702   */\n      0x00\n        /* \"#utility.yul\":5736:5738   */\n      0x40\n        /* \"#utility.yul\":5725:5734   */\n      dup3\n        /* \"#utility.yul\":5721:5739   */\n      add\n        /* \"#utility.yul\":5713:5739   */\n      swap1\n      pop\n        /* \"#utility.yul\":5785:5794   */\n      dup2\n        /* \"#utility.yul\":5779:5783   */\n      dup2\n        /* \"#utility.yul\":5775:5795   */\n      sub\n        /* \"#utility.yul\":5771:5772   */\n      0x00\n        /* \"#utility.yul\":5760:5769   */\n      dup4\n        /* \"#utility.yul\":5756:5773   */\n      add\n        /* \"#utility.yul\":5749:5796   */\n      mstore\n        /* \"#utility.yul\":5813:5971   */\n      tag_492\n        /* \"#utility.yul\":5966:5970   */\n      dup2\n        /* \"#utility.yul\":5957:5963   */\n      dup6\n        /* \"#utility.yul\":5813:5971   */\n      tag_373\n      jump\t// in\n    tag_492:\n        /* \"#utility.yul\":5805:5971   */\n      swap1\n      pop\n        /* \"#utility.yul\":5981:6053   */\n      tag_493\n        /* \"#utility.yul\":6049:6051   */\n      0x20\n        /* \"#utility.yul\":6038:6047   */\n      dup4\n        /* \"#utility.yul\":6034:6052   */\n      add\n        /* \"#utility.yul\":6025:6031   */\n      dup5\n        /* \"#utility.yul\":5981:6053   */\n      tag_358\n      jump\t// in\n    tag_493:\n        /* \"#utility.yul\":5477:6060   */\n      swap4\n      swap3\n      pop\n      pop\n      pop\n      jump\t// out\n        /* \"#utility.yul\":6066:6183   */\n    tag_374:\n        /* \"#utility.yul\":6175:6176   */\n      0x00\n        /* \"#utility.yul\":6172:6173   */\n      0x00\n        /* \"#utility.yul\":6165:6177   */\n      revert\n        /* \"#utility.yul\":6189:6306   */\n    tag_375:\n        /* \"#utility.yul\":6298:6299   */\n      0x00\n        /* \"#utility.yul\":6295:6296   */\n      0x00\n        /* \"#utility.yul\":6288:6300   */\n      revert\n        /* \"#utility.yul\":6312:6414   */\n    tag_376:\n        /* \"#utility.yul\":6353:6359   */\n      0x00\n        /* \"#utility.yul\":6404:6406   */\n      0x1f\n        /* \"#utility.yul\":6400:6407   */\n      not\n        /* \"#utility.yul\":6395:6397   */\n      0x1f\n        /* \"#utility.yul\":6388:6393   */\n      dup4\n        /* \"#utility.yul\":6384:6398   */\n      add\n        /* \"#utility.yul\":6380:6408   */\n      and\n        /* \"#utility.yul\":6370:6408   */\n      swap1\n      pop\n        /* \"#utility.yul\":6312:6414   */\n      swap2\n      swap1\n      pop\n      jump\t// out\n        /* \"#utility.yul\":6420:6600   */\n    tag_167:\n        /* \"#utility.yul\":6468:6545   */\n      0x4e487b7100000000000000000000000000000000000000000000000000000000\n        /* \"#utility.yul\":6465:6466   */\n      0x00\n        /* \"#utility.yul\":6458:6546   */\n      mstore\n        /* \"#utility.yul\":6565:6569   */\n      0x41\n        /* \"#utility.yul\":6562:6563   */\n      0x04\n        /* \"#utility.yul\":6555:6570   */\n      mstore\n        /* \"#utility.yul\":6589:6593   */\n      0x24\n        /* \"#utility.yul\":6586:6587   */\n      0x00\n        /* \"#utility.yul\":6579:6594   */\n      revert\n        /* \"#utility.yul\":6606:6887   */\n    tag_377:\n        /* \"#utility.yul\":6689:6716   */\n      tag_499\n        /* \"#utility.yul\":6711:6715   */\n      dup3\n        /* \"#utility.yul\":6689:6716   */\n      tag_376\n      jump\t// in\n    tag_499:\n        /* \"#utility.yul\":6681:6687   */\n      dup2\n        /* \"#utility.yul\":6677:6717   */\n      add\n        /* \"#utility.yul\":6819:6825   */\n      dup2\n        /* \"#utility.yul\":6807:6817   */\n      dup2\n        /* \"#utility.yul\":6804:6826   */\n      lt\n        /* \"#utility.yul\":6783:6801   */\n      0xffffffffffffffff\n        /* \"#utility.yul\":6771:6781   */\n      dup3\n        /* \"#utility.yul\":6768:6802   */\n      gt\n        /* \"#utility.yul\":6765:6827   */\n      or\n        /* \"#utility.yul\":6762:6850   */\n      iszero\n      tag_500\n      jumpi\n        /* \"#utility.yul\":6830:6848   */\n      tag_501\n      tag_167\n      jump\t// in\n    tag_501:\n        /* \"#utility.yul\":6762:6850   */\n    tag_500:\n        /* \"#utility.yul\":6870:6880   */\n      dup1\n        /* \"#utility.yul\":6866:6868   */\n      0x40\n        /* \"#utility.yul\":6859:6881   */\n      mstore\n        /* \"#utility.yul\":6649:6887   */\n      pop\n        /* \"#utility.yul\":6606:6887   */\n      pop\n      pop\n      jump\t// out\n        /* \"#utility.yul\":6893:7022   */\n    tag_378:\n        /* \"#utility.yul\":6927:6933   */\n      0x00\n        /* \"#utility.yul\":6954:6974   */\n      tag_503\n      tag_352\n      jump\t// in\n    tag_503:\n        /* \"#utility.yul\":6944:6974   */\n      swap1\n      pop\n        /* \"#utility.yul\":6983:7016   */\n      tag_504\n        /* \"#utility.yul\":7011:7015   */\n      dup3\n        /* \"#utility.yul\":7003:7009   */\n      dup3\n        /* \"#utility.yul\":6983:7016   */\n      tag_377\n      jump\t// in\n    tag_504:\n        /* \"#utility.yul\":6893:7022   */\n      swap2\n      swap1\n      pop\n      jump\t// out\n        /* \"#utility.yul\":7028:7336   */\n    tag_379:\n        /* \"#utility.yul\":7090:7094   */\n      0x00\n        /* \"#utility.yul\":7180:7198   */\n      0xffffffffffffffff\n        /* \"#utility.yul\":7172:7178   */\n      dup3\n        /* \"#utility.yul\":7169:7199   */\n      gt\n        /* \"#utility.yul\":7166:7222   */\n      iszero\n      tag_506\n      jumpi\n        /* \"#utility.yul\":7202:7220   */\n      tag_507\n      tag_167\n      jump\t// in\n    tag_507:\n        /* \"#utility.yul\":7166:7222   */\n    tag_506:\n        /* \"#utility.yul\":7240:7269   */\n      tag_508\n        /* \"#utility.yul\":7262:7268   */\n      dup3\n        /* \"#utility.yul\":7240:7269   */\n      tag_376\n      jump\t// in\n    tag_508:\n        /* \"#utility.yul\":7232:7269   */\n      swap1\n      pop\n        /* \"#utility.yul\":7324:7328   */\n      0x20\n        /* \"#utility.yul\":7318:7322   */\n      dup2\n        /* \"#utility.yul\":7314:7329   */\n      add\n        /* \"#utility.yul\":7306:7329   */\n      swap1\n      pop\n        /* \"#utility.yul\":7028:7336   */\n      swap2\n      swap1\n      pop\n      jump\t// out\n        /* \"#utility.yul\":7342:7490   */\n    tag_380:\n        /* \"#utility.yul\":7440:7446   */\n      dup3\n        /* \"#utility.yul\":7435:7438   */\n      dup2\n        /* \"#utility.yul\":7430:7433   */\n      dup4\n        /* \"#utility.yul\":7417:7447   */\n      calldatacopy\n        /* \"#utility.yul\":7481:7482   */\n      0x00\n        /* \"#utility.yul\":7472:7478   */\n      dup4\n        /* \"#utility.yul\":7467:7470   */\n      dup4\n        /* \"#utility.yul\":7463:7479   */\n      add\n        /* \"#utility.yul\":7456:7483   */\n      mstore\n        /* \"#utility.yul\":7342:7490   */\n      pop\n      pop\n      pop\n      jump\t// out\n        /* \"#utility.yul\":7496:7921   */\n    tag_381:\n        /* \"#utility.yul\":7574:7579   */\n      0x00\n        /* \"#utility.yul\":7599:7665   */\n      tag_511\n        /* \"#utility.yul\":7615:7664   */\n      tag_512\n        /* \"#utility.yul\":7657:7663   */\n      dup5\n        /* \"#utility.yul\":7615:7664   */\n      tag_379\n      jump\t// in\n    tag_512:\n        /* \"#utility.yul\":7599:7665   */\n      tag_378\n      jump\t// in\n    tag_511:\n        /* \"#utility.yul\":7590:7665   */\n      swap1\n      pop\n        /* \"#utility.yul\":7688:7694   */\n      dup3\n        /* \"#utility.yul\":7681:7686   */\n      dup2\n        /* \"#utility.yul\":7674:7695   */\n      mstore\n        /* \"#utility.yul\":7726:7730   */\n      0x20\n        /* \"#utility.yul\":7719:7724   */\n      dup2\n        /* \"#utility.yul\":7715:7731   */\n      add\n        /* \"#utility.yul\":7764:7767   */\n      dup5\n        /* \"#utility.yul\":7755:7761   */\n      dup5\n        /* \"#utility.yul\":7750:7753   */\n      dup5\n        /* \"#utility.yul\":7746:7762   */\n      add\n        /* \"#utility.yul\":7743:7768   */\n      gt\n        /* \"#utility.yul\":7740:7852   */\n      iszero\n      tag_513\n      jumpi\n        /* \"#utility.yul\":7771:7850   */\n      tag_514\n      tag_375\n      jump\t// in\n    tag_514:\n        /* \"#utility.yul\":7740:7852   */\n    tag_513:\n        /* \"#utility.yul\":7861:7915   */\n      tag_515\n        /* \"#utility.yul\":7908:7914   */\n      dup5\n        /* \"#utility.yul\":7903:7906   */\n      dup3\n        /* \"#utility.yul\":7898:7901   */\n      dup6\n        /* \"#utility.yul\":7861:7915   */\n      tag_380\n      jump\t// in\n    tag_515:\n        /* \"#utility.yul\":7580:7921   */\n      pop\n        /* \"#utility.yul\":7496:7921   */\n      swap4\n      swap3\n      pop\n      pop\n      pop\n      jump\t// out\n        /* \"#utility.yul\":7941:8281   */\n    tag_382:\n        /* \"#utility.yul\":7997:8002   */\n      0x00\n        /* \"#utility.yul\":8046:8049   */\n      dup3\n        /* \"#utility.yul\":8039:8043   */\n      0x1f\n        /* \"#utility.yul\":8031:8037   */\n      dup4\n        /* \"#utility.yul\":8027:8044   */\n      add\n        /* \"#utility.yul\":8023:8050   */\n      slt\n        /* \"#utility.yul\":8013:8135   */\n      tag_517\n      jumpi\n        /* \"#utility.yul\":8054:8133   */\n      tag_518\n      tag_374\n      jump\t// in\n    tag_518:\n        /* \"#utility.yul\":8013:8135   */\n    tag_517:\n        /* \"#utility.yul\":8171:8177   */\n      dup2\n        /* \"#utility.yul\":8158:8178   */\n      calldataload\n        /* \"#utility.yul\":8196:8275   */\n      tag_519\n        /* \"#utility.yul\":8271:8274   */\n      dup5\n        /* \"#utility.yul\":8263:8269   */\n      dup3\n        /* \"#utility.yul\":8256:8260   */\n      0x20\n        /* \"#utility.yul\":8248:8254   */\n      dup7\n        /* \"#utility.yul\":8244:8261   */\n      add\n        /* \"#utility.yul\":8196:8275   */\n      tag_381\n      jump\t// in\n    tag_519:\n        /* \"#utility.yul\":8187:8275   */\n      swap2\n      pop\n        /* \"#utility.yul\":8003:8281   */\n      pop\n        /* \"#utility.yul\":7941:8281   */\n      swap3\n      swap2\n      pop\n      pop\n      jump\t// out\n        /* \"#utility.yul\":8287:8796   */\n    tag_27:\n        /* \"#utility.yul\":8356:8362   */\n      0x00\n        /* \"#utility.yul\":8405:8407   */\n      0x20\n        /* \"#utility.yul\":8393:8402   */\n      dup3\n        /* \"#utility.yul\":8384:8391   */\n      dup5\n        /* \"#utility.yul\":8380:8403   */\n      sub\n        /* \"#utility.yul\":8376:8408   */\n      slt\n        /* \"#utility.yul\":8373:8492   */\n      iszero\n      tag_521\n      jumpi\n        /* \"#utility.yul\":8411:8490   */\n      tag_522\n      tag_353\n      jump\t// in\n    tag_522:\n        /* \"#utility.yul\":8373:8492   */\n    tag_521:\n        /* \"#utility.yul\":8559:8560   */\n      0x00\n        /* \"#utility.yul\":8548:8557   */\n      dup3\n        /* \"#utility.yul\":8544:8561   */\n      add\n        /* \"#utility.yul\":8531:8562   */\n      calldataload\n        /* \"#utility.yul\":8589:8607   */\n      0xffffffffffffffff\n        /* \"#utility.yul\":8581:8587   */\n      dup2\n        /* \"#utility.yul\":8578:8608   */\n      gt\n        /* \"#utility.yul\":8575:8692   */\n      iszero\n      tag_523\n      jumpi\n        /* \"#utility.yul\":8611:8690   */\n      tag_524\n      tag_354\n      jump\t// in\n    tag_524:\n        /* \"#utility.yul\":8575:8692   */\n    tag_523:\n        /* \"#utility.yul\":8716:8779   */\n      tag_525\n        /* \"#utility.yul\":8771:8778   */\n      dup5\n        /* \"#utility.yul\":8762:8768   */\n      dup3\n        /* \"#utility.yul\":8751:8760   */\n      dup6\n        /* \"#utility.yul\":8747:8769   */\n      add\n        /* \"#utility.yul\":8716:8779   */\n      tag_382\n      jump\t// in\n    tag_525:\n        /* \"#utility.yul\":8706:8779   */\n      swap2\n      pop\n        /* \"#utility.yul\":8502:8789   */\n      pop\n        /* \"#utility.yul\":8287:8796   */\n      swap3\n      swap2\n      pop\n      pop\n      jump\t// out\n        /* \"#utility.yul\":8802:8920   */\n    tag_383:\n        /* \"#utility.yul\":8889:8913   */\n      tag_527\n        /* \"#utility.yul\":8907:8912   */\n      dup2\n        /* \"#utility.yul\":8889:8913   */\n      tag_363\n      jump\t// in\n    tag_527:\n        /* \"#utility.yul\":8884:8887   */\n      dup3\n        /* \"#utility.yul\":8877:8914   */\n      mstore\n        /* \"#utility.yul\":8802:8920   */\n      pop\n      pop\n      jump\t// out\n        /* \"#utility.yul\":8926:9148   */\n    tag_30:\n        /* \"#utility.yul\":9019:9023   */\n      0x00\n        /* \"#utility.yul\":9057:9059   */\n      0x20\n        /* \"#utility.yul\":9046:9055   */\n      dup3\n        /* \"#utility.yul\":9042:9060   */\n      add\n        /* \"#utility.yul\":9034:9060   */\n      swap1\n      pop\n        /* \"#utility.yul\":9070:9141   */\n      tag_529\n        /* \"#utility.yul\":9138:9139   */\n      0x00\n        /* \"#utility.yul\":9127:9136   */\n      dup4\n        /* \"#utility.yul\":9123:9140   */\n      add\n        /* \"#utility.yul\":9114:9120   */\n      dup5\n        /* \"#utility.yul\":9070:9141   */\n      tag_383\n      jump\t// in\n    tag_529:\n        /* \"#utility.yul\":8926:9148   */\n      swap3\n      swap2\n      pop\n      pop\n      jump\t// out\n        /* \"#utility.yul\":9154:9214   */\n    tag_384:\n        /* \"#utility.yul\":9182:9185   */\n      0x00\n        /* \"#utility.yul\":9203:9208   */\n      dup2\n        /* \"#utility.yul\":9196:9208   */\n      swap1\n      pop\n        /* \"#utility.yul\":9154:9214   */\n      swap2\n      swap1\n      pop\n      jump\t// out\n        /* \"#utility.yul\":9220:9362   */\n    tag_385:\n        /* \"#utility.yul\":9270:9279   */\n      0x00\n        /* \"#utility.yul\":9303:9356   */\n      tag_532\n        /* \"#utility.yul\":9321:9355   */\n      tag_533\n        /* \"#utility.yul\":9330:9354   */\n      tag_534\n        /* \"#utility.yul\":9348:9353   */\n      dup5\n        /* \"#utility.yul\":9330:9354   */\n      tag_362\n      jump\t// in\n    tag_534:\n        /* \"#utility.yul\":9321:9355   */\n      tag_384\n      jump\t// in\n    tag_533:\n        /* \"#utility.yul\":9303:9356   */\n      tag_362\n      jump\t// in\n    tag_532:\n        /* \"#utility.yul\":9290:9356   */\n      swap1\n      pop\n        /* \"#utility.yul\":9220:9362   */\n      swap2\n      swap1\n      pop\n      jump\t// out\n        /* \"#utility.yul\":9368:9494   */\n    tag_386:\n        /* \"#utility.yul\":9418:9427   */\n      0x00\n        /* \"#utility.yul\":9451:9488   */\n      tag_536\n        /* \"#utility.yul\":9482:9487   */\n      dup3\n        /* \"#utility.yul\":9451:9488   */\n      tag_385\n      jump\t// in\n    tag_536:\n        /* \"#utility.yul\":9438:9488   */\n      swap1\n      pop\n        /* \"#utility.yul\":9368:9494   */\n      swap2\n      swap1\n      pop\n      jump\t// out\n        /* \"#utility.yul\":9500:9643   */\n    tag_387:\n        /* \"#utility.yul\":9567:9576   */\n      0x00\n        /* \"#utility.yul\":9600:9637   */\n      tag_538\n        /* \"#utility.yul\":9631:9636   */\n      dup3\n        /* \"#utility.yul\":9600:9637   */\n      tag_386\n      jump\t// in\n    tag_538:\n        /* \"#utility.yul\":9587:9637   */\n      swap1\n      pop\n        /* \"#utility.yul\":9500:9643   */\n      swap2\n      swap1\n      pop\n      jump\t// out\n        /* \"#utility.yul\":9649:9814   */\n    tag_388:\n        /* \"#utility.yul\":9753:9807   */\n      tag_540\n        /* \"#utility.yul\":9801:9806   */\n      dup2\n        /* \"#utility.yul\":9753:9807   */\n      tag_387\n      jump\t// in\n    tag_540:\n        /* \"#utility.yul\":9748:9751   */\n      dup3\n        /* \"#utility.yul\":9741:9808   */\n      mstore\n        /* \"#utility.yul\":9649:9814   */\n      pop\n      pop\n      jump\t// out\n        /* \"#utility.yul\":9820:10076   */\n    tag_34:\n        /* \"#utility.yul\":9930:9934   */\n      0x00\n        /* \"#utility.yul\":9968:9970   */\n      0x20\n        /* \"#utility.yul\":9957:9966   */\n      dup3\n        /* \"#utility.yul\":9953:9971   */\n      add\n        /* \"#utility.yul\":9945:9971   */\n      swap1\n      pop\n        /* \"#utility.yul\":9981:10069   */\n      tag_542\n        /* \"#utility.yul\":10066:10067   */\n      0x00\n        /* \"#utility.yul\":10055:10064   */\n      dup4\n        /* \"#utility.yul\":10051:10068   */\n      add\n        /* \"#utility.yul\":10042:10048   */\n      dup5\n        /* \"#utility.yul\":9981:10069   */\n      tag_388\n      jump\t// in\n    tag_542:\n        /* \"#utility.yul\":9820:10076   */\n      swap3\n      swap2\n      pop\n      pop\n      jump\t// out\n        /* \"#utility.yul\":10138:10635   */\n    tag_389:\n        /* \"#utility.yul\":10273:10277   */\n      0x40\n        /* \"#utility.yul\":10268:10271   */\n      dup3\n        /* \"#utility.yul\":10264:10278   */\n      add\n        /* \"#utility.yul\":10361:10365   */\n      0x00\n        /* \"#utility.yul\":10354:10359   */\n      dup3\n        /* \"#utility.yul\":10350:10366   */\n      add\n        /* \"#utility.yul\":10344:10367   */\n      mload\n        /* \"#utility.yul\":10380:10443   */\n      tag_544\n        /* \"#utility.yul\":10437:10441   */\n      0x00\n        /* \"#utility.yul\":10432:10435   */\n      dup6\n        /* \"#utility.yul\":10428:10442   */\n      add\n        /* \"#utility.yul\":10414:10426   */\n      dup3\n        /* \"#utility.yul\":10380:10443   */\n      tag_369\n      jump\t// in\n    tag_544:\n        /* \"#utility.yul\":10288:10453   */\n      pop\n        /* \"#utility.yul\":10536:10540   */\n      0x20\n        /* \"#utility.yul\":10529:10534   */\n      dup3\n        /* \"#utility.yul\":10525:10541   */\n      add\n        /* \"#utility.yul\":10519:10542   */\n      mload\n        /* \"#utility.yul\":10555:10618   */\n      tag_545\n        /* \"#utility.yul\":10612:10616   */\n      0x20\n        /* \"#utility.yul\":10607:10610   */\n      dup6\n        /* \"#utility.yul\":10603:10617   */\n      add\n        /* \"#utility.yul\":10589:10601   */\n      dup3\n        /* \"#utility.yul\":10555:10618   */\n      tag_369\n      jump\t// in\n    tag_545:\n        /* \"#utility.yul\":10463:10628   */\n      pop\n        /* \"#utility.yul\":10242:10635   */\n      pop\n        /* \"#utility.yul\":10138:10635   */\n      pop\n      pop\n      jump\t// out\n        /* \"#utility.yul\":10695:11891   */\n    tag_390:\n        /* \"#utility.yul\":10838:10844   */\n      0x0100\n        /* \"#utility.yul\":10833:10836   */\n      dup3\n        /* \"#utility.yul\":10829:10845   */\n      add\n        /* \"#utility.yul\":10928:10932   */\n      0x00\n        /* \"#utility.yul\":10921:10926   */\n      dup3\n        /* \"#utility.yul\":10917:10933   */\n      add\n        /* \"#utility.yul\":10911:10934   */\n      mload\n        /* \"#utility.yul\":10947:11058   */\n      tag_547\n        /* \"#utility.yul\":11052:11056   */\n      0x00\n        /* \"#utility.yul\":11047:11050   */\n      dup6\n        /* \"#utility.yul\":11043:11057   */\n      add\n        /* \"#utility.yul\":11029:11041   */\n      dup3\n        /* \"#utility.yul\":10947:11058   */\n      tag_389\n      jump\t// in\n    tag_547:\n        /* \"#utility.yul\":10855:11068   */\n      pop\n        /* \"#utility.yul\":11152:11156   */\n      0x20\n        /* \"#utility.yul\":11145:11150   */\n      dup3\n        /* \"#utility.yul\":11141:11157   */\n      add\n        /* \"#utility.yul\":11135:11158   */\n      mload\n        /* \"#utility.yul\":11171:11282   */\n      tag_548\n        /* \"#utility.yul\":11276:11280   */\n      0x40\n        /* \"#utility.yul\":11271:11274   */\n      dup6\n        /* \"#utility.yul\":11267:11281   */\n      add\n        /* \"#utility.yul\":11253:11265   */\n      dup3\n        /* \"#utility.yul\":11171:11282   */\n      tag_389\n      jump\t// in\n    tag_548:\n        /* \"#utility.yul\":11078:11292   */\n      pop\n        /* \"#utility.yul\":11373:11377   */\n      0x40\n        /* \"#utility.yul\":11366:11371   */\n      dup3\n        /* \"#utility.yul\":11362:11378   */\n      add\n        /* \"#utility.yul\":11356:11379   */\n      mload\n        /* \"#utility.yul\":11392:11503   */\n      tag_549\n        /* \"#utility.yul\":11497:11501   */\n      0x80\n        /* \"#utility.yul\":11492:11495   */\n      dup6\n        /* \"#utility.yul\":11488:11502   */\n      add\n        /* \"#utility.yul\":11474:11486   */\n      dup3\n        /* \"#utility.yul\":11392:11503   */\n      tag_389\n      jump\t// in\n    tag_549:\n        /* \"#utility.yul\":11302:11513   */\n      pop\n        /* \"#utility.yul\":11609:11613   */\n      0x60\n        /* \"#utility.yul\":11602:11607   */\n      dup3\n        /* \"#utility.yul\":11598:11614   */\n      add\n        /* \"#utility.yul\":11592:11615   */\n      mload\n        /* \"#utility.yul\":11628:11691   */\n      tag_550\n        /* \"#utility.yul\":11685:11689   */\n      0xc0\n        /* \"#utility.yul\":11680:11683   */\n      dup6\n        /* \"#utility.yul\":11676:11690   */\n      add\n        /* \"#utility.yul\":11662:11674   */\n      dup3\n        /* \"#utility.yul\":11628:11691   */\n      tag_369\n      jump\t// in\n    tag_550:\n        /* \"#utility.yul\":11523:11701   */\n      pop\n        /* \"#utility.yul\":11792:11796   */\n      0x80\n        /* \"#utility.yul\":11785:11790   */\n      dup3\n        /* \"#utility.yul\":11781:11797   */\n      add\n        /* \"#utility.yul\":11775:11798   */\n      mload\n        /* \"#utility.yul\":11811:11874   */\n      tag_551\n        /* \"#utility.yul\":11868:11872   */\n      0xe0\n        /* \"#utility.yul\":11863:11866   */\n      dup6\n        /* \"#utility.yul\":11859:11873   */\n      add\n        /* \"#utility.yul\":11845:11857   */\n      dup3\n        /* \"#utility.yul\":11811:11874   */\n      tag_369\n      jump\t// in\n    tag_551:\n        /* \"#utility.yul\":11711:11884   */\n      pop\n        /* \"#utility.yul\":10807:11891   */\n      pop\n        /* \"#utility.yul\":10695:11891   */\n      pop\n      pop\n      jump\t// out\n        /* \"#utility.yul\":11897:12212   */\n    tag_39:\n        /* \"#utility.yul\":12036:12040   */\n      0x00\n        /* \"#utility.yul\":12074:12077   */\n      0x0100\n        /* \"#utility.yul\":12063:12072   */\n      dup3\n        /* \"#utility.yul\":12059:12078   */\n      add\n        /* \"#utility.yul\":12051:12078   */\n      swap1\n      pop\n        /* \"#utility.yul\":12088:12205   */\n      tag_553\n        /* \"#utility.yul\":12202:12203   */\n      0x00\n        /* \"#utility.yul\":12191:12200   */\n      dup4\n        /* \"#utility.yul\":12187:12204   */\n      add\n        /* \"#utility.yul\":12178:12184   */\n      dup5\n        /* \"#utility.yul\":12088:12205   */\n      tag_390\n      jump\t// in\n    tag_553:\n        /* \"#utility.yul\":11897:12212   */\n      swap3\n      swap2\n      pop\n      pop\n      jump\t// out\n        /* \"#utility.yul\":12218:12340   */\n    tag_391:\n        /* \"#utility.yul\":12291:12315   */\n      tag_555\n        /* \"#utility.yul\":12309:12314   */\n      dup2\n        /* \"#utility.yul\":12291:12315   */\n      tag_363\n      jump\t// in\n    tag_555:\n        /* \"#utility.yul\":12284:12289   */\n      dup2\n        /* \"#utility.yul\":12281:12316   */\n      eq\n        /* \"#utility.yul\":12271:12334   */\n      tag_556\n      jumpi\n        /* \"#utility.yul\":12330:12331   */\n      0x00\n        /* \"#utility.yul\":12327:12328   */\n      0x00\n        /* \"#utility.yul\":12320:12332   */\n      revert\n        /* \"#utility.yul\":12271:12334   */\n    tag_556:\n        /* \"#utility.yul\":12218:12340   */\n      pop\n      jump\t// out\n        /* \"#utility.yul\":12346:12485   */\n    tag_392:\n        /* \"#utility.yul\":12392:12397   */\n      0x00\n        /* \"#utility.yul\":12430:12436   */\n      dup2\n        /* \"#utility.yul\":12417:12437   */\n      calldataload\n        /* \"#utility.yul\":12408:12437   */\n      swap1\n      pop\n        /* \"#utility.yul\":12446:12479   */\n      tag_558\n        /* \"#utility.yul\":12473:12478   */\n      dup2\n        /* \"#utility.yul\":12446:12479   */\n      tag_391\n      jump\t// in\n    tag_558:\n        /* \"#utility.yul\":12346:12485   */\n      swap3\n      swap2\n      pop\n      pop\n      jump\t// out\n        /* \"#utility.yul\":12491:12820   */\n    tag_49:\n        /* \"#utility.yul\":12550:12556   */\n      0x00\n        /* \"#utility.yul\":12599:12601   */\n      0x20\n        /* \"#utility.yul\":12587:12596   */\n      dup3\n        /* \"#utility.yul\":12578:12585   */\n      dup5\n        /* \"#utility.yul\":12574:12597   */\n      sub\n        /* \"#utility.yul\":12570:12602   */\n      slt\n        /* \"#utility.yul\":12567:12686   */\n      iszero\n      tag_560\n      jumpi\n        /* \"#utility.yul\":12605:12684   */\n      tag_561\n      tag_353\n      jump\t// in\n    tag_561:\n        /* \"#utility.yul\":12567:12686   */\n    tag_560:\n        /* \"#utility.yul\":12725:12726   */\n      0x00\n        /* \"#utility.yul\":12750:12803   */\n      tag_562\n        /* \"#utility.yul\":12795:12802   */\n      dup5\n        /* \"#utility.yul\":12786:12792   */\n      dup3\n        /* \"#utility.yul\":12775:12784   */\n      dup6\n        /* \"#utility.yul\":12771:12793   */\n      add\n        /* \"#utility.yul\":12750:12803   */\n      tag_392\n      jump\t// in\n    tag_562:\n        /* \"#utility.yul\":12740:12803   */\n      swap2\n      pop\n        /* \"#utility.yul\":12696:12813   */\n      pop\n        /* \"#utility.yul\":12491:12820   */\n      swap3\n      swap2\n      pop\n      pop\n      jump\t// out\n        /* \"#utility.yul\":12826:12972   */\n    tag_393:\n        /* \"#utility.yul\":12925:12931   */\n      0x00\n        /* \"#utility.yul\":12959:12964   */\n      dup2\n        /* \"#utility.yul\":12953:12965   */\n      mload\n        /* \"#utility.yul\":12943:12965   */\n      swap1\n      pop\n        /* \"#utility.yul\":12826:12972   */\n      swap2\n      swap1\n      pop\n      jump\t// out\n        /* \"#utility.yul\":12978:13194   */\n    tag_394:\n        /* \"#utility.yul\":13109:13120   */\n      0x00\n        /* \"#utility.yul\":13143:13149   */\n      dup3\n        /* \"#utility.yul\":13138:13141   */\n      dup3\n        /* \"#utility.yul\":13131:13150   */\n      mstore\n        /* \"#utility.yul\":13183:13187   */\n      0x20\n        /* \"#utility.yul\":13178:13181   */\n      dup3\n        /* \"#utility.yul\":13174:13188   */\n      add\n        /* \"#utility.yul\":13159:13188   */\n      swap1\n      pop\n        /* \"#utility.yul\":12978:13194   */\n      swap3\n      swap2\n      pop\n      pop\n      jump\t// out\n        /* \"#utility.yul\":13200:13364   */\n    tag_395:\n        /* \"#utility.yul\":13299:13303   */\n      0x00\n        /* \"#utility.yul\":13322:13325   */\n      dup2\n        /* \"#utility.yul\":13314:13325   */\n      swap1\n      pop\n        /* \"#utility.yul\":13352:13356   */\n      0x20\n        /* \"#utility.yul\":13347:13350   */\n      dup3\n        /* \"#utility.yul\":13343:13357   */\n      add\n        /* \"#utility.yul\":13335:13357   */\n      swap1\n      pop\n        /* \"#utility.yul\":13200:13364   */\n      swap2\n      swap1\n      pop\n      jump\t// out\n        /* \"#utility.yul\":13426:15060   */\n    tag_396:\n        /* \"#utility.yul\":13577:13583   */\n      0x0100\n        /* \"#utility.yul\":13572:13575   */\n      dup3\n        /* \"#utility.yul\":13568:13584   */\n      add\n        /* \"#utility.yul\":13674:13678   */\n      0x00\n        /* \"#utility.yul\":13667:13672   */\n      dup3\n        /* \"#utility.yul\":13663:13679   */\n      add\n        /* \"#utility.yul\":13657:13680   */\n      mload\n        /* \"#utility.yul\":13693:13756   */\n      tag_567\n        /* \"#utility.yul\":13750:13754   */\n      0x00\n        /* \"#utility.yul\":13745:13748   */\n      dup6\n        /* \"#utility.yul\":13741:13755   */\n      add\n        /* \"#utility.yul\":13727:13739   */\n      dup3\n        /* \"#utility.yul\":13693:13756   */\n      tag_364\n      jump\t// in\n    tag_567:\n        /* \"#utility.yul\":13594:13766   */\n      pop\n        /* \"#utility.yul\":13857:13861   */\n      0x20\n        /* \"#utility.yul\":13850:13855   */\n      dup3\n        /* \"#utility.yul\":13846:13862   */\n      add\n        /* \"#utility.yul\":13840:13863   */\n      mload\n        /* \"#utility.yul\":13876:13935   */\n      tag_568\n        /* \"#utility.yul\":13929:13933   */\n      0x20\n        /* \"#utility.yul\":13924:13927   */\n      dup6\n        /* \"#utility.yul\":13920:13934   */\n      add\n        /* \"#utility.yul\":13906:13918   */\n      dup3\n        /* \"#utility.yul\":13876:13935   */\n      tag_366\n      jump\t// in\n    tag_568:\n        /* \"#utility.yul\":13776:13945   */\n      pop\n        /* \"#utility.yul\":14036:14040   */\n      0x40\n        /* \"#utility.yul\":14029:14034   */\n      dup3\n        /* \"#utility.yul\":14025:14041   */\n      add\n        /* \"#utility.yul\":14019:14042   */\n      mload\n        /* \"#utility.yul\":14055:14116   */\n      tag_569\n        /* \"#utility.yul\":14110:14114   */\n      0x40\n        /* \"#utility.yul\":14105:14108   */\n      dup6\n        /* \"#utility.yul\":14101:14115   */\n      add\n        /* \"#utility.yul\":14087:14099   */\n      dup3\n        /* \"#utility.yul\":14055:14116   */\n      tag_368\n      jump\t// in\n    tag_569:\n        /* \"#utility.yul\":13955:14126   */\n      pop\n        /* \"#utility.yul\":14219:14223   */\n      0x60\n        /* \"#utility.yul\":14212:14217   */\n      dup3\n        /* \"#utility.yul\":14208:14224   */\n      add\n        /* \"#utility.yul\":14202:14225   */\n      mload\n        /* \"#utility.yul\":14238:14301   */\n      tag_570\n        /* \"#utility.yul\":14295:14299   */\n      0x60\n        /* \"#utility.yul\":14290:14293   */\n      dup6\n        /* \"#utility.yul\":14286:14300   */\n      add\n        /* \"#utility.yul\":14272:14284   */\n      dup3\n        /* \"#utility.yul\":14238:14301   */\n      tag_369\n      jump\t// in\n    tag_570:\n        /* \"#utility.yul\":14136:14311   */\n      pop\n        /* \"#utility.yul\":14405:14409   */\n      0x80\n        /* \"#utility.yul\":14398:14403   */\n      dup3\n        /* \"#utility.yul\":14394:14410   */\n      add\n        /* \"#utility.yul\":14388:14411   */\n      mload\n        /* \"#utility.yul\":14424:14487   */\n      tag_571\n        /* \"#utility.yul\":14481:14485   */\n      0x80\n        /* \"#utility.yul\":14476:14479   */\n      dup6\n        /* \"#utility.yul\":14472:14486   */\n      add\n        /* \"#utility.yul\":14458:14470   */\n      dup3\n        /* \"#utility.yul\":14424:14487   */\n      tag_369\n      jump\t// in\n    tag_571:\n        /* \"#utility.yul\":14321:14497   */\n      pop\n        /* \"#utility.yul\":14590:14594   */\n      0xa0\n        /* \"#utility.yul\":14583:14588   */\n      dup3\n        /* \"#utility.yul\":14579:14595   */\n      add\n        /* \"#utility.yul\":14573:14596   */\n      mload\n        /* \"#utility.yul\":14609:14672   */\n      tag_572\n        /* \"#utility.yul\":14666:14670   */\n      0xa0\n        /* \"#utility.yul\":14661:14664   */\n      dup6\n        /* \"#utility.yul\":14657:14671   */\n      add\n        /* \"#utility.yul\":14643:14655   */\n      dup3\n        /* \"#utility.yul\":14609:14672   */\n      tag_369\n      jump\t// in\n    tag_572:\n        /* \"#utility.yul\":14507:14682   */\n      pop\n        /* \"#utility.yul\":14776:14780   */\n      0xc0\n        /* \"#utility.yul\":14769:14774   */\n      dup3\n        /* \"#utility.yul\":14765:14781   */\n      add\n        /* \"#utility.yul\":14759:14782   */\n      mload\n        /* \"#utility.yul\":14795:14858   */\n      tag_573\n        /* \"#utility.yul\":14852:14856   */\n      0xc0\n        /* \"#utility.yul\":14847:14850   */\n      dup6\n        /* \"#utility.yul\":14843:14857   */\n      add\n        /* \"#utility.yul\":14829:14841   */\n      dup3\n        /* \"#utility.yul\":14795:14858   */\n      tag_369\n      jump\t// in\n    tag_573:\n        /* \"#utility.yul\":14692:14868   */\n      pop\n        /* \"#utility.yul\":14961:14965   */\n      0xe0\n        /* \"#utility.yul\":14954:14959   */\n      dup3\n        /* \"#utility.yul\":14950:14966   */\n      add\n        /* \"#utility.yul\":14944:14967   */\n      mload\n        /* \"#utility.yul\":14980:15043   */\n      tag_574\n        /* \"#utility.yul\":15037:15041   */\n      0xe0\n        /* \"#utility.yul\":15032:15035   */\n      dup6\n        /* \"#utility.yul\":15028:15042   */\n      add\n        /* \"#utility.yul\":15014:15026   */\n      dup3\n        /* \"#utility.yul\":14980:15043   */\n      tag_369\n      jump\t// in\n    tag_574:\n        /* \"#utility.yul\":14878:15053   */\n      pop\n        /* \"#utility.yul\":13546:15060   */\n      pop\n        /* \"#utility.yul\":13426:15060   */\n      pop\n      pop\n      jump\t// out\n        /* \"#utility.yul\":15066:15375   */\n    tag_397:\n        /* \"#utility.yul\":15199:15209   */\n      0x00\n        /* \"#utility.yul\":15220:15330   */\n      tag_576\n        /* \"#utility.yul\":15326:15329   */\n      dup4\n        /* \"#utility.yul\":15318:15324   */\n      dup4\n        /* \"#utility.yul\":15220:15330   */\n      tag_396\n      jump\t// in\n    tag_576:\n        /* \"#utility.yul\":15362:15368   */\n      0x0100\n        /* \"#utility.yul\":15357:15360   */\n      dup4\n        /* \"#utility.yul\":15353:15369   */\n      add\n        /* \"#utility.yul\":15339:15369   */\n      swap1\n      pop\n        /* \"#utility.yul\":15066:15375   */\n      swap3\n      swap2\n      pop\n      pop\n      jump\t// out\n        /* \"#utility.yul\":15381:15526   */\n    tag_398:\n        /* \"#utility.yul\":15483:15487   */\n      0x00\n        /* \"#utility.yul\":15515:15519   */\n      0x20\n        /* \"#utility.yul\":15510:15513   */\n      dup3\n        /* \"#utility.yul\":15506:15520   */\n      add\n        /* \"#utility.yul\":15498:15520   */\n      swap1\n      pop\n        /* \"#utility.yul\":15381:15526   */\n      swap2\n      swap1\n      pop\n      jump\t// out\n        /* \"#utility.yul\":15592:16580   */\n    tag_399:\n        /* \"#utility.yul\":15775:15778   */\n      0x00\n        /* \"#utility.yul\":15804:15890   */\n      tag_579\n        /* \"#utility.yul\":15884:15889   */\n      dup3\n        /* \"#utility.yul\":15804:15890   */\n      tag_393\n      jump\t// in\n    tag_579:\n        /* \"#utility.yul\":15906:16024   */\n      tag_580\n        /* \"#utility.yul\":16017:16023   */\n      dup2\n        /* \"#utility.yul\":16012:16015   */\n      dup6\n        /* \"#utility.yul\":15906:16024   */\n      tag_394\n      jump\t// in\n    tag_580:\n        /* \"#utility.yul\":15899:16024   */\n      swap4\n      pop\n        /* \"#utility.yul\":16048:16136   */\n      tag_581\n        /* \"#utility.yul\":16130:16135   */\n      dup4\n        /* \"#utility.yul\":16048:16136   */\n      tag_395\n      jump\t// in\n    tag_581:\n        /* \"#utility.yul\":16159:16166   */\n      dup1\n        /* \"#utility.yul\":16190:16191   */\n      0x00\n        /* \"#utility.yul\":16175:16555   */\n    tag_582:\n        /* \"#utility.yul\":16200:16206   */\n      dup4\n        /* \"#utility.yul\":16197:16198   */\n      dup2\n        /* \"#utility.yul\":16194:16207   */\n      lt\n        /* \"#utility.yul\":16175:16555   */\n      iszero\n      tag_584\n      jumpi\n        /* \"#utility.yul\":16276:16282   */\n      dup2\n        /* \"#utility.yul\":16270:16283   */\n      mload\n        /* \"#utility.yul\":16303:16430   */\n      tag_585\n        /* \"#utility.yul\":16426:16429   */\n      dup9\n        /* \"#utility.yul\":16411:16424   */\n      dup3\n        /* \"#utility.yul\":16303:16430   */\n      tag_397\n      jump\t// in\n    tag_585:\n        /* \"#utility.yul\":16296:16430   */\n      swap8\n      pop\n        /* \"#utility.yul\":16453:16545   */\n      tag_586\n        /* \"#utility.yul\":16538:16544   */\n      dup4\n        /* \"#utility.yul\":16453:16545   */\n      tag_398\n      jump\t// in\n    tag_586:\n        /* \"#utility.yul\":16443:16545   */\n      swap3\n      pop\n        /* \"#utility.yul\":16235:16555   */\n      pop\n        /* \"#utility.yul\":16222:16223   */\n      0x01\n        /* \"#utility.yul\":16219:16220   */\n      dup2\n        /* \"#utility.yul\":16215:16224   */\n      add\n        /* \"#utility.yul\":16210:16224   */\n      swap1\n      pop\n        /* \"#utility.yul\":16175:16555   */\n      jump(tag_582)\n    tag_584:\n        /* \"#utility.yul\":16179:16193   */\n      pop\n        /* \"#utility.yul\":16571:16574   */\n      dup6\n        /* \"#utility.yul\":16564:16574   */\n      swap4\n      pop\n        /* \"#utility.yul\":15780:16580   */\n      pop\n      pop\n      pop\n        /* \"#utility.yul\":15592:16580   */\n      swap3\n      swap2\n      pop\n      pop\n      jump\t// out\n        /* \"#utility.yul\":16586:17307   */\n    tag_55:\n        /* \"#utility.yul\":16849:16853   */\n      0x00\n        /* \"#utility.yul\":16887:16889   */\n      0x60\n        /* \"#utility.yul\":16876:16885   */\n      dup3\n        /* \"#utility.yul\":16872:16890   */\n      add\n        /* \"#utility.yul\":16864:16890   */\n      swap1\n      pop\n        /* \"#utility.yul\":16936:16945   */\n      dup2\n        /* \"#utility.yul\":16930:16934   */\n      dup2\n        /* \"#utility.yul\":16926:16946   */\n      sub\n        /* \"#utility.yul\":16922:16923   */\n      0x00\n        /* \"#utility.yul\":16911:16920   */\n      dup4\n        /* \"#utility.yul\":16907:16924   */\n      add\n        /* \"#utility.yul\":16900:16947   */\n      mstore\n        /* \"#utility.yul\":16964:17136   */\n      tag_588\n        /* \"#utility.yul\":17131:17135   */\n      dup2\n        /* \"#utility.yul\":17122:17128   */\n      dup7\n        /* \"#utility.yul\":16964:17136   */\n      tag_399\n      jump\t// in\n    tag_588:\n        /* \"#utility.yul\":16956:17136   */\n      swap1\n      pop\n        /* \"#utility.yul\":17146:17218   */\n      tag_589\n        /* \"#utility.yul\":17214:17216   */\n      0x20\n        /* \"#utility.yul\":17203:17212   */\n      dup4\n        /* \"#utility.yul\":17199:17217   */\n      add\n        /* \"#utility.yul\":17190:17196   */\n      dup6\n        /* \"#utility.yul\":17146:17218   */\n      tag_358\n      jump\t// in\n    tag_589:\n        /* \"#utility.yul\":17228:17300   */\n      tag_590\n        /* \"#utility.yul\":17296:17298   */\n      0x40\n        /* \"#utility.yul\":17285:17294   */\n      dup4\n        /* \"#utility.yul\":17281:17299   */\n      add\n        /* \"#utility.yul\":17272:17278   */\n      dup5\n        /* \"#utility.yul\":17228:17300   */\n      tag_358\n      jump\t// in\n    tag_590:\n        /* \"#utility.yul\":16586:17307   */\n      swap5\n      swap4\n      pop\n      pop\n      pop\n      pop\n      jump\t// out\n        /* \"#utility.yul\":17313:17430   */\n    tag_400:\n        /* \"#utility.yul\":17422:17423   */\n      0x00\n        /* \"#utility.yul\":17419:17420   */\n      0x00\n        /* \"#utility.yul\":17412:17424   */\n      revert\n        /* \"#utility.yul\":17436:17553   */\n    tag_401:\n        /* \"#utility.yul\":17545:17546   */\n      0x00\n        /* \"#utility.yul\":17542:17543   */\n      0x00\n        /* \"#utility.yul\":17535:17547   */\n      revert\n        /* \"#utility.yul\":17559:17893   */\n    tag_402:\n        /* \"#utility.yul\":17659:17663   */\n      0x00\n        /* \"#utility.yul\":17749:17767   */\n      0xffffffffffffffff\n        /* \"#utility.yul\":17741:17747   */\n      dup3\n        /* \"#utility.yul\":17738:17768   */\n      gt\n        /* \"#utility.yul\":17735:17791   */\n      iszero\n      tag_594\n      jumpi\n        /* \"#utility.yul\":17771:17789   */\n      tag_595\n      tag_167\n      jump\t// in\n    tag_595:\n        /* \"#utility.yul\":17735:17791   */\n    tag_594:\n        /* \"#utility.yul\":17821:17825   */\n      0x20\n        /* \"#utility.yul\":17813:17819   */\n      dup3\n        /* \"#utility.yul\":17809:17826   */\n      mul\n        /* \"#utility.yul\":17801:17826   */\n      swap1\n      pop\n        /* \"#utility.yul\":17881:17885   */\n      0x20\n        /* \"#utility.yul\":17875:17879   */\n      dup2\n        /* \"#utility.yul\":17871:17886   */\n      add\n        /* \"#utility.yul\":17863:17886   */\n      swap1\n      pop\n        /* \"#utility.yul\":17559:17893   */\n      swap2\n      swap1\n      pop\n      jump\t// out\n        /* \"#utility.yul\":17899:18016   */\n    tag_403:\n        /* \"#utility.yul\":18008:18009   */\n      0x00\n        /* \"#utility.yul\":18005:18006   */\n      0x00\n        /* \"#utility.yul\":17998:18010   */\n      revert\n        /* \"#utility.yul\":18022:18142   */\n    tag_404:\n        /* \"#utility.yul\":18094:18117   */\n      tag_598\n        /* \"#utility.yul\":18111:18116   */\n      dup2\n        /* \"#utility.yul\":18094:18117   */\n      tag_367\n      jump\t// in\n    tag_598:\n        /* \"#utility.yul\":18087:18092   */\n      dup2\n        /* \"#utility.yul\":18084:18118   */\n      eq\n        /* \"#utility.yul\":18074:18136   */\n      tag_599\n      jumpi\n        /* \"#utility.yul\":18132:18133   */\n      0x00\n        /* \"#utility.yul\":18129:18130   */\n      0x00\n        /* \"#utility.yul\":18122:18134   */\n      revert\n        /* \"#utility.yul\":18074:18136   */\n    tag_599:\n        /* \"#utility.yul\":18022:18142   */\n      pop\n      jump\t// out\n        /* \"#utility.yul\":18148:18285   */\n    tag_405:\n        /* \"#utility.yul\":18193:18198   */\n      0x00\n        /* \"#utility.yul\":18231:18237   */\n      dup2\n        /* \"#utility.yul\":18218:18238   */\n      calldataload\n        /* \"#utility.yul\":18209:18238   */\n      swap1\n      pop\n        /* \"#utility.yul\":18247:18279   */\n      tag_601\n        /* \"#utility.yul\":18273:18278   */\n      dup2\n        /* \"#utility.yul\":18247:18279   */\n      tag_404\n      jump\t// in\n    tag_601:\n        /* \"#utility.yul\":18148:18285   */\n      swap3\n      swap2\n      pop\n      pop\n      jump\t// out\n        /* \"#utility.yul\":18311:18896   */\n    tag_406:\n        /* \"#utility.yul\":18383:18388   */\n      0x00\n        /* \"#utility.yul\":18427:18431   */\n      0x40\n        /* \"#utility.yul\":18415:18424   */\n      dup3\n        /* \"#utility.yul\":18410:18413   */\n      dup5\n        /* \"#utility.yul\":18406:18425   */\n      sub\n        /* \"#utility.yul\":18402:18432   */\n      slt\n        /* \"#utility.yul\":18399:18516   */\n      iszero\n      tag_603\n      jumpi\n        /* \"#utility.yul\":18435:18514   */\n      tag_604\n      tag_400\n      jump\t// in\n    tag_604:\n        /* \"#utility.yul\":18399:18516   */\n    tag_603:\n        /* \"#utility.yul\":18534:18555   */\n      tag_605\n        /* \"#utility.yul\":18550:18554   */\n      0x40\n        /* \"#utility.yul\":18534:18555   */\n      tag_378\n      jump\t// in\n    tag_605:\n        /* \"#utility.yul\":18525:18555   */\n      swap1\n      pop\n        /* \"#utility.yul\":18622:18623   */\n      0x00\n        /* \"#utility.yul\":18662:18711   */\n      tag_606\n        /* \"#utility.yul\":18707:18710   */\n      dup5\n        /* \"#utility.yul\":18698:18704   */\n      dup3\n        /* \"#utility.yul\":18687:18696   */\n      dup6\n        /* \"#utility.yul\":18683:18705   */\n      add\n        /* \"#utility.yul\":18662:18711   */\n      tag_392\n      jump\t// in\n    tag_606:\n        /* \"#utility.yul\":18655:18659   */\n      0x00\n        /* \"#utility.yul\":18648:18653   */\n      dup4\n        /* \"#utility.yul\":18644:18660   */\n      add\n        /* \"#utility.yul\":18637:18712   */\n      mstore\n        /* \"#utility.yul\":18565:18723   */\n      pop\n        /* \"#utility.yul\":18788:18790   */\n      0x20\n        /* \"#utility.yul\":18829:18877   */\n      tag_607\n        /* \"#utility.yul\":18873:18876   */\n      dup5\n        /* \"#utility.yul\":18864:18870   */\n      dup3\n        /* \"#utility.yul\":18853:18862   */\n      dup6\n        /* \"#utility.yul\":18849:18871   */\n      add\n        /* \"#utility.yul\":18829:18877   */\n      tag_405\n      jump\t// in\n    tag_607:\n        /* \"#utility.yul\":18822:18826   */\n      0x20\n        /* \"#utility.yul\":18815:18820   */\n      dup4\n        /* \"#utility.yul\":18811:18827   */\n      add\n        /* \"#utility.yul\":18804:18878   */\n      mstore\n        /* \"#utility.yul\":18733:18889   */\n      pop\n        /* \"#utility.yul\":18311:18896   */\n      swap3\n      swap2\n      pop\n      pop\n      jump\t// out\n        /* \"#utility.yul\":18924:19703   */\n    tag_407:\n        /* \"#utility.yul\":19043:19048   */\n      0x00\n        /* \"#utility.yul\":19068:19172   */\n      tag_609\n        /* \"#utility.yul\":19084:19171   */\n      tag_610\n        /* \"#utility.yul\":19164:19170   */\n      dup5\n        /* \"#utility.yul\":19084:19171   */\n      tag_402\n      jump\t// in\n    tag_610:\n        /* \"#utility.yul\":19068:19172   */\n      tag_378\n      jump\t// in\n    tag_609:\n        /* \"#utility.yul\":19059:19172   */\n      swap1\n      pop\n        /* \"#utility.yul\":19192:19197   */\n      dup1\n        /* \"#utility.yul\":19221:19227   */\n      dup4\n        /* \"#utility.yul\":19214:19219   */\n      dup3\n        /* \"#utility.yul\":19207:19228   */\n      mstore\n        /* \"#utility.yul\":19255:19259   */\n      0x20\n        /* \"#utility.yul\":19248:19253   */\n      dup3\n        /* \"#utility.yul\":19244:19260   */\n      add\n        /* \"#utility.yul\":19237:19260   */\n      swap1\n      pop\n        /* \"#utility.yul\":19308:19312   */\n      0x40\n        /* \"#utility.yul\":19300:19306   */\n      dup5\n        /* \"#utility.yul\":19296:19313   */\n      mul\n        /* \"#utility.yul\":19288:19294   */\n      dup4\n        /* \"#utility.yul\":19284:19314   */\n      add\n        /* \"#utility.yul\":19337:19340   */\n      dup6\n        /* \"#utility.yul\":19329:19335   */\n      dup2\n        /* \"#utility.yul\":19326:19341   */\n      gt\n        /* \"#utility.yul\":19323:19445   */\n      iszero\n      tag_611\n      jumpi\n        /* \"#utility.yul\":19356:19435   */\n      tag_612\n      tag_403\n      jump\t// in\n    tag_612:\n        /* \"#utility.yul\":19323:19445   */\n    tag_611:\n        /* \"#utility.yul\":19471:19477   */\n      dup4\n        /* \"#utility.yul\":19454:19697   */\n    tag_613:\n        /* \"#utility.yul\":19488:19494   */\n      dup2\n        /* \"#utility.yul\":19483:19486   */\n      dup2\n        /* \"#utility.yul\":19480:19495   */\n      lt\n        /* \"#utility.yul\":19454:19697   */\n      iszero\n      tag_615\n      jumpi\n        /* \"#utility.yul\":19563:19566   */\n      dup1\n        /* \"#utility.yul\":19592:19652   */\n      tag_616\n        /* \"#utility.yul\":19648:19651   */\n      dup9\n        /* \"#utility.yul\":19636:19646   */\n      dup3\n        /* \"#utility.yul\":19592:19652   */\n      tag_406\n      jump\t// in\n    tag_616:\n        /* \"#utility.yul\":19587:19590   */\n      dup5\n        /* \"#utility.yul\":19580:19653   */\n      mstore\n        /* \"#utility.yul\":19682:19686   */\n      0x20\n        /* \"#utility.yul\":19677:19680   */\n      dup5\n        /* \"#utility.yul\":19673:19687   */\n      add\n        /* \"#utility.yul\":19666:19687   */\n      swap4\n      pop\n        /* \"#utility.yul\":19530:19697   */\n      pop\n        /* \"#utility.yul\":19514:19518   */\n      0x40\n        /* \"#utility.yul\":19509:19512   */\n      dup2\n        /* \"#utility.yul\":19505:19519   */\n      add\n        /* \"#utility.yul\":19498:19519   */\n      swap1\n      pop\n        /* \"#utility.yul\":19454:19697   */\n      jump(tag_613)\n    tag_615:\n        /* \"#utility.yul\":19458:19479   */\n      pop\n        /* \"#utility.yul\":19049:19703   */\n      pop\n      pop\n        /* \"#utility.yul\":18924:19703   */\n      swap4\n      swap3\n      pop\n      pop\n      pop\n      jump\t// out\n        /* \"#utility.yul\":19731:20147   */\n    tag_408:\n        /* \"#utility.yul\":19825:19830   */\n      0x00\n        /* \"#utility.yul\":19874:19877   */\n      dup3\n        /* \"#utility.yul\":19867:19871   */\n      0x1f\n        /* \"#utility.yul\":19859:19865   */\n      dup4\n        /* \"#utility.yul\":19855:19872   */\n      add\n        /* \"#utility.yul\":19851:19878   */\n      slt\n        /* \"#utility.yul\":19841:19963   */\n      tag_618\n      jumpi\n        /* \"#utility.yul\":19882:19961   */\n      tag_619\n      tag_374\n      jump\t// in\n    tag_619:\n        /* \"#utility.yul\":19841:19963   */\n    tag_618:\n        /* \"#utility.yul\":19999:20005   */\n      dup2\n        /* \"#utility.yul\":19986:20006   */\n      calldataload\n        /* \"#utility.yul\":20024:20141   */\n      tag_620\n        /* \"#utility.yul\":20137:20140   */\n      dup5\n        /* \"#utility.yul\":20129:20135   */\n      dup3\n        /* \"#utility.yul\":20122:20126   */\n      0x20\n        /* \"#utility.yul\":20114:20120   */\n      dup7\n        /* \"#utility.yul\":20110:20127   */\n      add\n        /* \"#utility.yul\":20024:20141   */\n      tag_407\n      jump\t// in\n    tag_620:\n        /* \"#utility.yul\":20015:20141   */\n      swap2\n      pop\n        /* \"#utility.yul\":19831:20147   */\n      pop\n        /* \"#utility.yul\":19731:20147   */\n      swap3\n      swap2\n      pop\n      pop\n      jump\t// out\n        /* \"#utility.yul\":20171:21454   */\n    tag_409:\n        /* \"#utility.yul\":20241:20246   */\n      0x00\n        /* \"#utility.yul\":20285:20289   */\n      0x60\n        /* \"#utility.yul\":20273:20282   */\n      dup3\n        /* \"#utility.yul\":20268:20271   */\n      dup5\n        /* \"#utility.yul\":20264:20283   */\n      sub\n        /* \"#utility.yul\":20260:20290   */\n      slt\n        /* \"#utility.yul\":20257:20374   */\n      iszero\n      tag_622\n      jumpi\n        /* \"#utility.yul\":20293:20372   */\n      tag_623\n      tag_400\n      jump\t// in\n    tag_623:\n        /* \"#utility.yul\":20257:20374   */\n    tag_622:\n        /* \"#utility.yul\":20392:20413   */\n      tag_624\n        /* \"#utility.yul\":20408:20412   */\n      0x60\n        /* \"#utility.yul\":20392:20413   */\n      tag_378\n      jump\t// in\n    tag_624:\n        /* \"#utility.yul\":20383:20413   */\n      swap1\n      pop\n        /* \"#utility.yul\":20500:20501   */\n      0x00\n        /* \"#utility.yul\":20489:20498   */\n      dup3\n        /* \"#utility.yul\":20485:20502   */\n      add\n        /* \"#utility.yul\":20472:20503   */\n      calldataload\n        /* \"#utility.yul\":20530:20548   */\n      0xffffffffffffffff\n        /* \"#utility.yul\":20522:20528   */\n      dup2\n        /* \"#utility.yul\":20519:20549   */\n      gt\n        /* \"#utility.yul\":20516:20633   */\n      iszero\n      tag_625\n      jumpi\n        /* \"#utility.yul\":20552:20631   */\n      tag_626\n      tag_401\n      jump\t// in\n    tag_626:\n        /* \"#utility.yul\":20516:20633   */\n    tag_625:\n        /* \"#utility.yul\":20672:20731   */\n      tag_627\n        /* \"#utility.yul\":20727:20730   */\n      dup5\n        /* \"#utility.yul\":20718:20724   */\n      dup3\n        /* \"#utility.yul\":20707:20716   */\n      dup6\n        /* \"#utility.yul\":20703:20725   */\n      add\n        /* \"#utility.yul\":20672:20731   */\n      tag_382\n      jump\t// in\n    tag_627:\n        /* \"#utility.yul\":20665:20669   */\n      0x00\n        /* \"#utility.yul\":20658:20663   */\n      dup4\n        /* \"#utility.yul\":20654:20670   */\n      add\n        /* \"#utility.yul\":20647:20732   */\n      mstore\n        /* \"#utility.yul\":20423:20743   */\n      pop\n        /* \"#utility.yul\":20832:20834   */\n      0x20\n        /* \"#utility.yul\":20821:20830   */\n      dup3\n        /* \"#utility.yul\":20817:20835   */\n      add\n        /* \"#utility.yul\":20804:20836   */\n      calldataload\n        /* \"#utility.yul\":20863:20881   */\n      0xffffffffffffffff\n        /* \"#utility.yul\":20855:20861   */\n      dup2\n        /* \"#utility.yul\":20852:20882   */\n      gt\n        /* \"#utility.yul\":20849:20966   */\n      iszero\n      tag_628\n      jumpi\n        /* \"#utility.yul\":20885:20964   */\n      tag_629\n      tag_401\n      jump\t// in\n    tag_629:\n        /* \"#utility.yul\":20849:20966   */\n    tag_628:\n        /* \"#utility.yul\":21005:21064   */\n      tag_630\n        /* \"#utility.yul\":21060:21063   */\n      dup5\n        /* \"#utility.yul\":21051:21057   */\n      dup3\n        /* \"#utility.yul\":21040:21049   */\n      dup6\n        /* \"#utility.yul\":21036:21058   */\n      add\n        /* \"#utility.yul\":21005:21064   */\n      tag_382\n      jump\t// in\n    tag_630:\n        /* \"#utility.yul\":20998:21002   */\n      0x20\n        /* \"#utility.yul\":20991:20996   */\n      dup4\n        /* \"#utility.yul\":20987:21003   */\n      add\n        /* \"#utility.yul\":20980:21065   */\n      mstore\n        /* \"#utility.yul\":20753:21076   */\n      pop\n        /* \"#utility.yul\":21165:21167   */\n      0x40\n        /* \"#utility.yul\":21154:21163   */\n      dup3\n        /* \"#utility.yul\":21150:21168   */\n      add\n        /* \"#utility.yul\":21137:21169   */\n      calldataload\n        /* \"#utility.yul\":21196:21214   */\n      0xffffffffffffffff\n        /* \"#utility.yul\":21188:21194   */\n      dup2\n        /* \"#utility.yul\":21185:21215   */\n      gt\n        /* \"#utility.yul\":21182:21299   */\n      iszero\n      tag_631\n      jumpi\n        /* \"#utility.yul\":21218:21297   */\n      tag_632\n      tag_401\n      jump\t// in\n    tag_632:\n        /* \"#utility.yul\":21182:21299   */\n    tag_631:\n        /* \"#utility.yul\":21338:21435   */\n      tag_633\n        /* \"#utility.yul\":21431:21434   */\n      dup5\n        /* \"#utility.yul\":21422:21428   */\n      dup3\n        /* \"#utility.yul\":21411:21420   */\n      dup6\n        /* \"#utility.yul\":21407:21429   */\n      add\n        /* \"#utility.yul\":21338:21435   */\n      tag_408\n      jump\t// in\n    tag_633:\n        /* \"#utility.yul\":21331:21335   */\n      0x40\n        /* \"#utility.yul\":21324:21329   */\n      dup4\n        /* \"#utility.yul\":21320:21336   */\n      add\n        /* \"#utility.yul\":21313:21436   */\n      mstore\n        /* \"#utility.yul\":21086:21447   */\n      pop\n        /* \"#utility.yul\":20171:21454   */\n      swap3\n      swap2\n      pop\n      pop\n      jump\t// out\n        /* \"#utility.yul\":21460:22136   */\n    tag_58:\n        /* \"#utility.yul\":21549:21555   */\n      0x00\n        /* \"#utility.yul\":21557:21563   */\n      0x00\n        /* \"#utility.yul\":21606:21608   */\n      0x40\n        /* \"#utility.yul\":21594:21603   */\n      dup4\n        /* \"#utility.yul\":21585:21592   */\n      dup6\n        /* \"#utility.yul\":21581:21604   */\n      sub\n        /* \"#utility.yul\":21577:21609   */\n      slt\n        /* \"#utility.yul\":21574:21693   */\n      iszero\n      tag_635\n      jumpi\n        /* \"#utility.yul\":21612:21691   */\n      tag_636\n      tag_353\n      jump\t// in\n    tag_636:\n        /* \"#utility.yul\":21574:21693   */\n    tag_635:\n        /* \"#utility.yul\":21760:21761   */\n      0x00\n        /* \"#utility.yul\":21749:21758   */\n      dup4\n        /* \"#utility.yul\":21745:21762   */\n      add\n        /* \"#utility.yul\":21732:21763   */\n      calldataload\n        /* \"#utility.yul\":21790:21808   */\n      0xffffffffffffffff\n        /* \"#utility.yul\":21782:21788   */\n      dup2\n        /* \"#utility.yul\":21779:21809   */\n      gt\n        /* \"#utility.yul\":21776:21893   */\n      iszero\n      tag_637\n      jumpi\n        /* \"#utility.yul\":21812:21891   */\n      tag_638\n      tag_354\n      jump\t// in\n    tag_638:\n        /* \"#utility.yul\":21776:21893   */\n    tag_637:\n        /* \"#utility.yul\":21917:21991   */\n      tag_639\n        /* \"#utility.yul\":21983:21990   */\n      dup6\n        /* \"#utility.yul\":21974:21980   */\n      dup3\n        /* \"#utility.yul\":21963:21972   */\n      dup7\n        /* \"#utility.yul\":21959:21981   */\n      add\n        /* \"#utility.yul\":21917:21991   */\n      tag_409\n      jump\t// in\n    tag_639:\n        /* \"#utility.yul\":21907:21991   */\n      swap3\n      pop\n        /* \"#utility.yul\":21703:22001   */\n      pop\n        /* \"#utility.yul\":22040:22042   */\n      0x20\n        /* \"#utility.yul\":22066:22119   */\n      tag_640\n        /* \"#utility.yul\":22111:22118   */\n      dup6\n        /* \"#utility.yul\":22102:22108   */\n      dup3\n        /* \"#utility.yul\":22091:22100   */\n      dup7\n        /* \"#utility.yul\":22087:22109   */\n      add\n        /* \"#utility.yul\":22066:22119   */\n      tag_392\n      jump\t// in\n    tag_640:\n        /* \"#utility.yul\":22056:22119   */\n      swap2\n      pop\n        /* \"#utility.yul\":22011:22129   */\n      pop\n        /* \"#utility.yul\":21460:22136   */\n      swap3\n      pop\n      swap3\n      swap1\n      pop\n      jump\t// out\n        /* \"#utility.yul\":22142:22281   */\n    tag_410:\n        /* \"#utility.yul\":22231:22237   */\n      dup3\n        /* \"#utility.yul\":22226:22229   */\n      dup2\n        /* \"#utility.yul\":22221:22224   */\n      dup4\n        /* \"#utility.yul\":22215:22238   */\n      mcopy\n        /* \"#utility.yul\":22272:22273   */\n      0x00\n        /* \"#utility.yul\":22263:22269   */\n      dup4\n        /* \"#utility.yul\":22258:22261   */\n      dup4\n        /* \"#utility.yul\":22254:22270   */\n      add\n        /* \"#utility.yul\":22247:22274   */\n      mstore\n        /* \"#utility.yul\":22142:22281   */\n      pop\n      pop\n      pop\n      jump\t// out\n        /* \"#utility.yul\":22287:22721   */\n    tag_411:\n        /* \"#utility.yul\":22376:22381   */\n      0x00\n        /* \"#utility.yul\":22401:22467   */\n      tag_643\n        /* \"#utility.yul\":22417:22466   */\n      tag_644\n        /* \"#utility.yul\":22459:22465   */\n      dup5\n        /* \"#utility.yul\":22417:22466   */\n      tag_379\n      jump\t// in\n    tag_644:\n        /* \"#utility.yul\":22401:22467   */\n      tag_378\n      jump\t// in\n    tag_643:\n        /* \"#utility.yul\":22392:22467   */\n      swap1\n      pop\n        /* \"#utility.yul\":22490:22496   */\n      dup3\n        /* \"#utility.yul\":22483:22488   */\n      dup2\n        /* \"#utility.yul\":22476:22497   */\n      mstore\n        /* \"#utility.yul\":22528:22532   */\n      0x20\n        /* \"#utility.yul\":22521:22526   */\n      dup2\n        /* \"#utility.yul\":22517:22533   */\n      add\n        /* \"#utility.yul\":22566:22569   */\n      dup5\n        /* \"#utility.yul\":22557:22563   */\n      dup5\n        /* \"#utility.yul\":22552:22555   */\n      dup5\n        /* \"#utility.yul\":22548:22564   */\n      add\n        /* \"#utility.yul\":22545:22570   */\n      gt\n        /* \"#utility.yul\":22542:22654   */\n      iszero\n      tag_645\n      jumpi\n        /* \"#utility.yul\":22573:22652   */\n      tag_646\n      tag_375\n      jump\t// in\n    tag_646:\n        /* \"#utility.yul\":22542:22654   */\n    tag_645:\n        /* \"#utility.yul\":22663:22715   */\n      tag_647\n        /* \"#utility.yul\":22708:22714   */\n      dup5\n        /* \"#utility.yul\":22703:22706   */\n      dup3\n        /* \"#utility.yul\":22698:22701   */\n      dup6\n        /* \"#utility.yul\":22663:22715   */\n      tag_410\n      jump\t// in\n    tag_647:\n        /* \"#utility.yul\":22382:22721   */\n      pop\n        /* \"#utility.yul\":22287:22721   */\n      swap4\n      swap3\n      pop\n      pop\n      pop\n      jump\t// out\n        /* \"#utility.yul\":22741:23096   */\n    tag_412:\n        /* \"#utility.yul\":22808:22813   */\n      0x00\n        /* \"#utility.yul\":22857:22860   */\n      dup3\n        /* \"#utility.yul\":22850:22854   */\n      0x1f\n        /* \"#utility.yul\":22842:22848   */\n      dup4\n        /* \"#utility.yul\":22838:22855   */\n      add\n        /* \"#utility.yul\":22834:22861   */\n      slt\n        /* \"#utility.yul\":22824:22946   */\n      tag_649\n      jumpi\n        /* \"#utility.yul\":22865:22944   */\n      tag_650\n      tag_374\n      jump\t// in\n    tag_650:\n        /* \"#utility.yul\":22824:22946   */\n    tag_649:\n        /* \"#utility.yul\":22975:22981   */\n      dup2\n        /* \"#utility.yul\":22969:22982   */\n      mload\n        /* \"#utility.yul\":23000:23090   */\n      tag_651\n        /* \"#utility.yul\":23086:23089   */\n      dup5\n        /* \"#utility.yul\":23078:23084   */\n      dup3\n        /* \"#utility.yul\":23071:23075   */\n      0x20\n        /* \"#utility.yul\":23063:23069   */\n      dup7\n        /* \"#utility.yul\":23059:23076   */\n      add\n        /* \"#utility.yul\":23000:23090   */\n      tag_411\n      jump\t// in\n    tag_651:\n        /* \"#utility.yul\":22991:23090   */\n      swap2\n      pop\n        /* \"#utility.yul\":22814:23096   */\n      pop\n        /* \"#utility.yul\":22741:23096   */\n      swap3\n      swap2\n      pop\n      pop\n      jump\t// out\n        /* \"#utility.yul\":23102:23245   */\n    tag_413:\n        /* \"#utility.yul\":23159:23164   */\n      0x00\n        /* \"#utility.yul\":23190:23196   */\n      dup2\n        /* \"#utility.yul\":23184:23197   */\n      mload\n        /* \"#utility.yul\":23175:23197   */\n      swap1\n      pop\n        /* \"#utility.yul\":23206:23239   */\n      tag_653\n        /* \"#utility.yul\":23233:23238   */\n      dup2\n        /* \"#utility.yul\":23206:23239   */\n      tag_391\n      jump\t// in\n    tag_653:\n        /* \"#utility.yul\":23102:23245   */\n      swap3\n      swap2\n      pop\n      pop\n      jump\t// out\n        /* \"#utility.yul\":23251:23392   */\n    tag_414:\n        /* \"#utility.yul\":23307:23312   */\n      0x00\n        /* \"#utility.yul\":23338:23344   */\n      dup2\n        /* \"#utility.yul\":23332:23345   */\n      mload\n        /* \"#utility.yul\":23323:23345   */\n      swap1\n      pop\n        /* \"#utility.yul\":23354:23386   */\n      tag_655\n        /* \"#utility.yul\":23380:23385   */\n      dup2\n        /* \"#utility.yul\":23354:23386   */\n      tag_404\n      jump\t// in\n    tag_655:\n        /* \"#utility.yul\":23251:23392   */\n      swap3\n      swap2\n      pop\n      pop\n      jump\t// out\n        /* \"#utility.yul\":23418:24036   */\n    tag_415:\n        /* \"#utility.yul\":23501:23506   */\n      0x00\n        /* \"#utility.yul\":23545:23549   */\n      0x40\n        /* \"#utility.yul\":23533:23542   */\n      dup3\n        /* \"#utility.yul\":23528:23531   */\n      dup5\n        /* \"#utility.yul\":23524:23543   */\n      sub\n        /* \"#utility.yul\":23520:23550   */\n      slt\n        /* \"#utility.yul\":23517:23634   */\n      iszero\n      tag_657\n      jumpi\n        /* \"#utility.yul\":23553:23632   */\n      tag_658\n      tag_400\n      jump\t// in\n    tag_658:\n        /* \"#utility.yul\":23517:23634   */\n    tag_657:\n        /* \"#utility.yul\":23652:23673   */\n      tag_659\n        /* \"#utility.yul\":23668:23672   */\n      0x40\n        /* \"#utility.yul\":23652:23673   */\n      tag_378\n      jump\t// in\n    tag_659:\n        /* \"#utility.yul\":23643:23673   */\n      swap1\n      pop\n        /* \"#utility.yul\":23740:23741   */\n      0x00\n        /* \"#utility.yul\":23780:23840   */\n      tag_660\n        /* \"#utility.yul\":23836:23839   */\n      dup5\n        /* \"#utility.yul\":23827:23833   */\n      dup3\n        /* \"#utility.yul\":23816:23825   */\n      dup6\n        /* \"#utility.yul\":23812:23834   */\n      add\n        /* \"#utility.yul\":23780:23840   */\n      tag_413\n      jump\t// in\n    tag_660:\n        /* \"#utility.yul\":23773:23777   */\n      0x00\n        /* \"#utility.yul\":23766:23771   */\n      dup4\n        /* \"#utility.yul\":23762:23778   */\n      add\n        /* \"#utility.yul\":23755:23841   */\n      mstore\n        /* \"#utility.yul\":23683:23852   */\n      pop\n        /* \"#utility.yul\":23917:23919   */\n      0x20\n        /* \"#utility.yul\":23958:24017   */\n      tag_661\n        /* \"#utility.yul\":24013:24016   */\n      dup5\n        /* \"#utility.yul\":24004:24010   */\n      dup3\n        /* \"#utility.yul\":23993:24002   */\n      dup6\n        /* \"#utility.yul\":23989:24011   */\n      add\n        /* \"#utility.yul\":23958:24017   */\n      tag_414\n      jump\t// in\n    tag_661:\n        /* \"#utility.yul\":23951:23955   */\n      0x20\n        /* \"#utility.yul\":23944:23949   */\n      dup4\n        /* \"#utility.yul\":23940:23956   */\n      add\n        /* \"#utility.yul\":23933:24018   */\n      mstore\n        /* \"#utility.yul\":23862:24029   */\n      pop\n        /* \"#utility.yul\":23418:24036   */\n      swap3\n      swap2\n      pop\n      pop\n      jump\t// out\n        /* \"#utility.yul\":24064:24865   */\n    tag_416:\n        /* \"#utility.yul\":24194:24199   */\n      0x00\n        /* \"#utility.yul\":24219:24323   */\n      tag_663\n        /* \"#utility.yul\":24235:24322   */\n      tag_664\n        /* \"#utility.yul\":24315:24321   */\n      dup5\n        /* \"#utility.yul\":24235:24322   */\n      tag_402\n      jump\t// in\n    tag_664:\n        /* \"#utility.yul\":24219:24323   */\n      tag_378\n      jump\t// in\n    tag_663:\n        /* \"#utility.yul\":24210:24323   */\n      swap1\n      pop\n        /* \"#utility.yul\":24343:24348   */\n      dup1\n        /* \"#utility.yul\":24372:24378   */\n      dup4\n        /* \"#utility.yul\":24365:24370   */\n      dup3\n        /* \"#utility.yul\":24358:24379   */\n      mstore\n        /* \"#utility.yul\":24406:24410   */\n      0x20\n        /* \"#utility.yul\":24399:24404   */\n      dup3\n        /* \"#utility.yul\":24395:24411   */\n      add\n        /* \"#utility.yul\":24388:24411   */\n      swap1\n      pop\n        /* \"#utility.yul\":24459:24463   */\n      0x40\n        /* \"#utility.yul\":24451:24457   */\n      dup5\n        /* \"#utility.yul\":24447:24464   */\n      mul\n        /* \"#utility.yul\":24439:24445   */\n      dup4\n        /* \"#utility.yul\":24435:24465   */\n      add\n        /* \"#utility.yul\":24488:24491   */\n      dup6\n        /* \"#utility.yul\":24480:24486   */\n      dup2\n        /* \"#utility.yul\":24477:24492   */\n      gt\n        /* \"#utility.yul\":24474:24596   */\n      iszero\n      tag_665\n      jumpi\n        /* \"#utility.yul\":24507:24586   */\n      tag_666\n      tag_403\n      jump\t// in\n    tag_666:\n        /* \"#utility.yul\":24474:24596   */\n    tag_665:\n        /* \"#utility.yul\":24622:24628   */\n      dup4\n        /* \"#utility.yul\":24605:24859   */\n    tag_667:\n        /* \"#utility.yul\":24639:24645   */\n      dup2\n        /* \"#utility.yul\":24634:24637   */\n      dup2\n        /* \"#utility.yul\":24631:24646   */\n      lt\n        /* \"#utility.yul\":24605:24859   */\n      iszero\n      tag_669\n      jumpi\n        /* \"#utility.yul\":24714:24717   */\n      dup1\n        /* \"#utility.yul\":24743:24814   */\n      tag_670\n        /* \"#utility.yul\":24810:24813   */\n      dup9\n        /* \"#utility.yul\":24798:24808   */\n      dup3\n        /* \"#utility.yul\":24743:24814   */\n      tag_415\n      jump\t// in\n    tag_670:\n        /* \"#utility.yul\":24738:24741   */\n      dup5\n        /* \"#utility.yul\":24731:24815   */\n      mstore\n        /* \"#utility.yul\":24844:24848   */\n      0x20\n        /* \"#utility.yul\":24839:24842   */\n      dup5\n        /* \"#utility.yul\":24835:24849   */\n      add\n        /* \"#utility.yul\":24828:24849   */\n      swap4\n      pop\n        /* \"#utility.yul\":24681:24859   */\n      pop\n        /* \"#utility.yul\":24665:24669   */\n      0x40\n        /* \"#utility.yul\":24660:24663   */\n      dup2\n        /* \"#utility.yul\":24656:24670   */\n      add\n        /* \"#utility.yul\":24649:24670   */\n      swap1\n      pop\n        /* \"#utility.yul\":24605:24859   */\n      jump(tag_667)\n    tag_669:\n        /* \"#utility.yul\":24609:24630   */\n      pop\n        /* \"#utility.yul\":24200:24865   */\n      pop\n      pop\n        /* \"#utility.yul\":24064:24865   */\n      swap4\n      swap3\n      pop\n      pop\n      pop\n      jump\t// out\n        /* \"#utility.yul\":24893:25324   */\n    tag_417:\n        /* \"#utility.yul\":24998:25003   */\n      0x00\n        /* \"#utility.yul\":25047:25050   */\n      dup3\n        /* \"#utility.yul\":25040:25044   */\n      0x1f\n        /* \"#utility.yul\":25032:25038   */\n      dup4\n        /* \"#utility.yul\":25028:25045   */\n      add\n        /* \"#utility.yul\":25024:25051   */\n      slt\n        /* \"#utility.yul\":25014:25136   */\n      tag_672\n      jumpi\n        /* \"#utility.yul\":25055:25134   */\n      tag_673\n      tag_374\n      jump\t// in\n    tag_673:\n        /* \"#utility.yul\":25014:25136   */\n    tag_672:\n        /* \"#utility.yul\":25165:25171   */\n      dup2\n        /* \"#utility.yul\":25159:25172   */\n      mload\n        /* \"#utility.yul\":25190:25318   */\n      tag_674\n        /* \"#utility.yul\":25314:25317   */\n      dup5\n        /* \"#utility.yul\":25306:25312   */\n      dup3\n        /* \"#utility.yul\":25299:25303   */\n      0x20\n        /* \"#utility.yul\":25291:25297   */\n      dup7\n        /* \"#utility.yul\":25287:25304   */\n      add\n        /* \"#utility.yul\":25190:25318   */\n      tag_416\n      jump\t// in\n    tag_674:\n        /* \"#utility.yul\":25181:25318   */\n      swap2\n      pop\n        /* \"#utility.yul\":25004:25324   */\n      pop\n        /* \"#utility.yul\":24893:25324   */\n      swap3\n      swap2\n      pop\n      pop\n      jump\t// out\n        /* \"#utility.yul\":25348:26654   */\n    tag_418:\n        /* \"#utility.yul\":25429:25434   */\n      0x00\n        /* \"#utility.yul\":25473:25477   */\n      0x60\n        /* \"#utility.yul\":25461:25470   */\n      dup3\n        /* \"#utility.yul\":25456:25459   */\n      dup5\n        /* \"#utility.yul\":25452:25471   */\n      sub\n        /* \"#utility.yul\":25448:25478   */\n      slt\n        /* \"#utility.yul\":25445:25562   */\n      iszero\n      tag_676\n      jumpi\n        /* \"#utility.yul\":25481:25560   */\n      tag_677\n      tag_400\n      jump\t// in\n    tag_677:\n        /* \"#utility.yul\":25445:25562   */\n    tag_676:\n        /* \"#utility.yul\":25580:25601   */\n      tag_678\n        /* \"#utility.yul\":25596:25600   */\n      0x60\n        /* \"#utility.yul\":25580:25601   */\n      tag_378\n      jump\t// in\n    tag_678:\n        /* \"#utility.yul\":25571:25601   */\n      swap1\n      pop\n        /* \"#utility.yul\":25681:25682   */\n      0x00\n        /* \"#utility.yul\":25670:25679   */\n      dup3\n        /* \"#utility.yul\":25666:25683   */\n      add\n        /* \"#utility.yul\":25660:25684   */\n      mload\n        /* \"#utility.yul\":25711:25729   */\n      0xffffffffffffffff\n        /* \"#utility.yul\":25703:25709   */\n      dup2\n        /* \"#utility.yul\":25700:25730   */\n      gt\n        /* \"#utility.yul\":25697:25814   */\n      iszero\n      tag_679\n      jumpi\n        /* \"#utility.yul\":25733:25812   */\n      tag_680\n      tag_401\n      jump\t// in\n    tag_680:\n        /* \"#utility.yul\":25697:25814   */\n    tag_679:\n        /* \"#utility.yul\":25853:25923   */\n      tag_681\n        /* \"#utility.yul\":25919:25922   */\n      dup5\n        /* \"#utility.yul\":25910:25916   */\n      dup3\n        /* \"#utility.yul\":25899:25908   */\n      dup6\n        /* \"#utility.yul\":25895:25917   */\n      add\n        /* \"#utility.yul\":25853:25923   */\n      tag_412\n      jump\t// in\n    tag_681:\n        /* \"#utility.yul\":25846:25850   */\n      0x00\n        /* \"#utility.yul\":25839:25844   */\n      dup4\n        /* \"#utility.yul\":25835:25851   */\n      add\n        /* \"#utility.yul\":25828:25924   */\n      mstore\n        /* \"#utility.yul\":25611:25935   */\n      pop\n        /* \"#utility.yul\":26017:26019   */\n      0x20\n        /* \"#utility.yul\":26006:26015   */\n      dup3\n        /* \"#utility.yul\":26002:26020   */\n      add\n        /* \"#utility.yul\":25996:26021   */\n      mload\n        /* \"#utility.yul\":26048:26066   */\n      0xffffffffffffffff\n        /* \"#utility.yul\":26040:26046   */\n      dup2\n        /* \"#utility.yul\":26037:26067   */\n      gt\n        /* \"#utility.yul\":26034:26151   */\n      iszero\n      tag_682\n      jumpi\n        /* \"#utility.yul\":26070:26149   */\n      tag_683\n      tag_401\n      jump\t// in\n    tag_683:\n        /* \"#utility.yul\":26034:26151   */\n    tag_682:\n        /* \"#utility.yul\":26190:26260   */\n      tag_684\n        /* \"#utility.yul\":26256:26259   */\n      dup5\n        /* \"#utility.yul\":26247:26253   */\n      dup3\n        /* \"#utility.yul\":26236:26245   */\n      dup6\n        /* \"#utility.yul\":26232:26254   */\n      add\n        /* \"#utility.yul\":26190:26260   */\n      tag_412\n      jump\t// in\n    tag_684:\n        /* \"#utility.yul\":26183:26187   */\n      0x20\n        /* \"#utility.yul\":26176:26181   */\n      dup4\n        /* \"#utility.yul\":26172:26188   */\n      add\n        /* \"#utility.yul\":26165:26261   */\n      mstore\n        /* \"#utility.yul\":25945:26272   */\n      pop\n        /* \"#utility.yul\":26354:26356   */\n      0x40\n        /* \"#utility.yul\":26343:26352   */\n      dup3\n        /* \"#utility.yul\":26339:26357   */\n      add\n        /* \"#utility.yul\":26333:26358   */\n      mload\n        /* \"#utility.yul\":26385:26403   */\n      0xffffffffffffffff\n        /* \"#utility.yul\":26377:26383   */\n      dup2\n        /* \"#utility.yul\":26374:26404   */\n      gt\n        /* \"#utility.yul\":26371:26488   */\n      iszero\n      tag_685\n      jumpi\n        /* \"#utility.yul\":26407:26486   */\n      tag_686\n      tag_401\n      jump\t// in\n    tag_686:\n        /* \"#utility.yul\":26371:26488   */\n    tag_685:\n        /* \"#utility.yul\":26527:26635   */\n      tag_687\n        /* \"#utility.yul\":26631:26634   */\n      dup5\n        /* \"#utility.yul\":26622:26628   */\n      dup3\n        /* \"#utility.yul\":26611:26620   */\n      dup6\n        /* \"#utility.yul\":26607:26629   */\n      add\n        /* \"#utility.yul\":26527:26635   */\n      tag_417\n      jump\t// in\n    tag_687:\n        /* \"#utility.yul\":26520:26524   */\n      0x40\n        /* \"#utility.yul\":26513:26518   */\n      dup4\n        /* \"#utility.yul\":26509:26525   */\n      add\n        /* \"#utility.yul\":26502:26636   */\n      mstore\n        /* \"#utility.yul\":26282:26647   */\n      pop\n        /* \"#utility.yul\":25348:26654   */\n      swap3\n      swap2\n      pop\n      pop\n      jump\t// out\n        /* \"#utility.yul\":26660:27362   */\n    tag_68:\n        /* \"#utility.yul\":26760:26766   */\n      0x00\n        /* \"#utility.yul\":26768:26774   */\n      0x00\n        /* \"#utility.yul\":26817:26819   */\n      0x40\n        /* \"#utility.yul\":26805:26814   */\n      dup4\n        /* \"#utility.yul\":26796:26803   */\n      dup6\n        /* \"#utility.yul\":26792:26815   */\n      sub\n        /* \"#utility.yul\":26788:26820   */\n      slt\n        /* \"#utility.yul\":26785:26904   */\n      iszero\n      tag_689\n      jumpi\n        /* \"#utility.yul\":26823:26902   */\n      tag_690\n      tag_353\n      jump\t// in\n    tag_690:\n        /* \"#utility.yul\":26785:26904   */\n    tag_689:\n        /* \"#utility.yul\":26964:26965   */\n      0x00\n        /* \"#utility.yul\":26953:26962   */\n      dup4\n        /* \"#utility.yul\":26949:26966   */\n      add\n        /* \"#utility.yul\":26943:26967   */\n      mload\n        /* \"#utility.yul\":26994:27012   */\n      0xffffffffffffffff\n        /* \"#utility.yul\":26986:26992   */\n      dup2\n        /* \"#utility.yul\":26983:27013   */\n      gt\n        /* \"#utility.yul\":26980:27097   */\n      iszero\n      tag_691\n      jumpi\n        /* \"#utility.yul\":27016:27095   */\n      tag_692\n      tag_354\n      jump\t// in\n    tag_692:\n        /* \"#utility.yul\":26980:27097   */\n    tag_691:\n        /* \"#utility.yul\":27121:27206   */\n      tag_693\n        /* \"#utility.yul\":27198:27205   */\n      dup6\n        /* \"#utility.yul\":27189:27195   */\n      dup3\n        /* \"#utility.yul\":27178:27187   */\n      dup7\n        /* \"#utility.yul\":27174:27196   */\n      add\n        /* \"#utility.yul\":27121:27206   */\n      tag_418\n      jump\t// in\n    tag_693:\n        /* \"#utility.yul\":27111:27206   */\n      swap3\n      pop\n        /* \"#utility.yul\":26914:27216   */\n      pop\n        /* \"#utility.yul\":27255:27257   */\n      0x20\n        /* \"#utility.yul\":27281:27345   */\n      tag_694\n        /* \"#utility.yul\":27337:27344   */\n      dup6\n        /* \"#utility.yul\":27328:27334   */\n      dup3\n        /* \"#utility.yul\":27317:27326   */\n      dup7\n        /* \"#utility.yul\":27313:27335   */\n      add\n        /* \"#utility.yul\":27281:27345   */\n      tag_413\n      jump\t// in\n    tag_694:\n        /* \"#utility.yul\":27271:27345   */\n      swap2\n      pop\n        /* \"#utility.yul\":27226:27355   */\n      pop\n        /* \"#utility.yul\":26660:27362   */\n      swap3\n      pop\n      swap3\n      swap1\n      pop\n      jump\t// out\n        /* \"#utility.yul\":27368:27467   */\n    tag_419:\n        /* \"#utility.yul\":27420:27426   */\n      0x00\n        /* \"#utility.yul\":27454:27459   */\n      dup2\n        /* \"#utility.yul\":27448:27460   */\n      mload\n        /* \"#utility.yul\":27438:27460   */\n      swap1\n      pop\n        /* \"#utility.yul\":27368:27467   */\n      swap2\n      swap1\n      pop\n      jump\t// out\n        /* \"#utility.yul\":27473:27642   */\n    tag_420:\n        /* \"#utility.yul\":27557:27568   */\n      0x00\n        /* \"#utility.yul\":27591:27597   */\n      dup3\n        /* \"#utility.yul\":27586:27589   */\n      dup3\n        /* \"#utility.yul\":27579:27598   */\n      mstore\n        /* \"#utility.yul\":27631:27635   */\n      0x20\n        /* \"#utility.yul\":27626:27629   */\n      dup3\n        /* \"#utility.yul\":27622:27636   */\n      add\n        /* \"#utility.yul\":27607:27636   */\n      swap1\n      pop\n        /* \"#utility.yul\":27473:27642   */\n      swap3\n      swap2\n      pop\n      pop\n      jump\t// out\n        /* \"#utility.yul\":27648:28025   */\n    tag_421:\n        /* \"#utility.yul\":27736:27739   */\n      0x00\n        /* \"#utility.yul\":27764:27803   */\n      tag_698\n        /* \"#utility.yul\":27797:27802   */\n      dup3\n        /* \"#utility.yul\":27764:27803   */\n      tag_419\n      jump\t// in\n    tag_698:\n        /* \"#utility.yul\":27819:27890   */\n      tag_699\n        /* \"#utility.yul\":27883:27889   */\n      dup2\n        /* \"#utility.yul\":27878:27881   */\n      dup6\n        /* \"#utility.yul\":27819:27890   */\n      tag_420\n      jump\t// in\n    tag_699:\n        /* \"#utility.yul\":27812:27890   */\n      swap4\n      pop\n        /* \"#utility.yul\":27899:27964   */\n      tag_700\n        /* \"#utility.yul\":27957:27963   */\n      dup2\n        /* \"#utility.yul\":27952:27955   */\n      dup6\n        /* \"#utility.yul\":27945:27949   */\n      0x20\n        /* \"#utility.yul\":27938:27943   */\n      dup7\n        /* \"#utility.yul\":27934:27950   */\n      add\n        /* \"#utility.yul\":27899:27964   */\n      tag_410\n      jump\t// in\n    tag_700:\n        /* \"#utility.yul\":27989:28018   */\n      tag_701\n        /* \"#utility.yul\":28011:28017   */\n      dup2\n        /* \"#utility.yul\":27989:28018   */\n      tag_376\n      jump\t// in\n    tag_701:\n        /* \"#utility.yul\":27984:27987   */\n      dup5\n        /* \"#utility.yul\":27980:28019   */\n      add\n        /* \"#utility.yul\":27973:28019   */\n      swap2\n      pop\n        /* \"#utility.yul\":27740:28025   */\n      pop\n        /* \"#utility.yul\":27648:28025   */\n      swap3\n      swap2\n      pop\n      pop\n      jump\t// out\n        /* \"#utility.yul\":28031:28344   */\n    tag_83:\n        /* \"#utility.yul\":28144:28148   */\n      0x00\n        /* \"#utility.yul\":28182:28184   */\n      0x20\n        /* \"#utility.yul\":28171:28180   */\n      dup3\n        /* \"#utility.yul\":28167:28185   */\n      add\n        /* \"#utility.yul\":28159:28185   */\n      swap1\n      pop\n        /* \"#utility.yul\":28231:28240   */\n      dup2\n        /* \"#utility.yul\":28225:28229   */\n      dup2\n        /* \"#utility.yul\":28221:28241   */\n      sub\n        /* \"#utility.yul\":28217:28218   */\n      0x00\n        /* \"#utility.yul\":28206:28215   */\n      dup4\n        /* \"#utility.yul\":28202:28219   */\n      add\n        /* \"#utility.yul\":28195:28242   */\n      mstore\n        /* \"#utility.yul\":28259:28337   */\n      tag_703\n        /* \"#utility.yul\":28332:28336   */\n      dup2\n        /* \"#utility.yul\":28323:28329   */\n      dup5\n        /* \"#utility.yul\":28259:28337   */\n      tag_421\n      jump\t// in\n    tag_703:\n        /* \"#utility.yul\":28251:28337   */\n      swap1\n      pop\n        /* \"#utility.yul\":28031:28344   */\n      swap3\n      swap2\n      pop\n      pop\n      jump\t// out\n        /* \"#utility.yul\":28350:28701   */\n    tag_87:\n        /* \"#utility.yul\":28420:28426   */\n      0x00\n        /* \"#utility.yul\":28469:28471   */\n      0x20\n        /* \"#utility.yul\":28457:28466   */\n      dup3\n        /* \"#utility.yul\":28448:28455   */\n      dup5\n        /* \"#utility.yul\":28444:28467   */\n      sub\n        /* \"#utility.yul\":28440:28472   */\n      slt\n        /* \"#utility.yul\":28437:28556   */\n      iszero\n      tag_705\n      jumpi\n        /* \"#utility.yul\":28475:28554   */\n      tag_706\n      tag_353\n      jump\t// in\n    tag_706:\n        /* \"#utility.yul\":28437:28556   */\n    tag_705:\n        /* \"#utility.yul\":28595:28596   */\n      0x00\n        /* \"#utility.yul\":28620:28684   */\n      tag_707\n        /* \"#utility.yul\":28676:28683   */\n      dup5\n        /* \"#utility.yul\":28667:28673   */\n      dup3\n        /* \"#utility.yul\":28656:28665   */\n      dup6\n        /* \"#utility.yul\":28652:28674   */\n      add\n        /* \"#utility.yul\":28620:28684   */\n      tag_413\n      jump\t// in\n    tag_707:\n        /* \"#utility.yul\":28610:28684   */\n      swap2\n      pop\n        /* \"#utility.yul\":28566:28694   */\n      pop\n        /* \"#utility.yul\":28350:28701   */\n      swap3\n      swap2\n      pop\n      pop\n      jump\t// out\n        /* \"#utility.yul\":28707:28880   */\n    tag_422:\n        /* \"#utility.yul\":28847:28872   */\n      0x43616c6c6572206973206e6f7420746865206f776e6572000000000000000000\n        /* \"#utility.yul\":28843:28844   */\n      0x00\n        /* \"#utility.yul\":28835:28841   */\n      dup3\n        /* \"#utility.yul\":28831:28845   */\n      add\n        /* \"#utility.yul\":28824:28873   */\n      mstore\n        /* \"#utility.yul\":28707:28880   */\n      pop\n      jump\t// out\n        /* \"#utility.yul\":28886:29252   */\n    tag_423:\n        /* \"#utility.yul\":29028:29031   */\n      0x00\n        /* \"#utility.yul\":29049:29116   */\n      tag_710\n        /* \"#utility.yul\":29113:29115   */\n      0x17\n        /* \"#utility.yul\":29108:29111   */\n      dup4\n        /* \"#utility.yul\":29049:29116   */\n      tag_420\n      jump\t// in\n    tag_710:\n        /* \"#utility.yul\":29042:29116   */\n      swap2\n      pop\n        /* \"#utility.yul\":29125:29218   */\n      tag_711\n        /* \"#utility.yul\":29214:29217   */\n      dup3\n        /* \"#utility.yul\":29125:29218   */\n      tag_422\n      jump\t// in\n    tag_711:\n        /* \"#utility.yul\":29243:29245   */\n      0x20\n        /* \"#utility.yul\":29238:29241   */\n      dup3\n        /* \"#utility.yul\":29234:29246   */\n      add\n        /* \"#utility.yul\":29227:29246   */\n      swap1\n      pop\n        /* \"#utility.yul\":28886:29252   */\n      swap2\n      swap1\n      pop\n      jump\t// out\n        /* \"#utility.yul\":29258:29677   */\n    tag_115:\n        /* \"#utility.yul\":29424:29428   */\n      0x00\n        /* \"#utility.yul\":29462:29464   */\n      0x20\n        /* \"#utility.yul\":29451:29460   */\n      dup3\n        /* \"#utility.yul\":29447:29465   */\n      add\n        /* \"#utility.yul\":29439:29465   */\n      swap1\n      pop\n        /* \"#utility.yul\":29511:29520   */\n      dup2\n        /* \"#utility.yul\":29505:29509   */\n      dup2\n        /* \"#utility.yul\":29501:29521   */\n      sub\n        /* \"#utility.yul\":29497:29498   */\n      0x00\n        /* \"#utility.yul\":29486:29495   */\n      dup4\n        /* \"#utility.yul\":29482:29499   */\n      add\n        /* \"#utility.yul\":29475:29522   */\n      mstore\n        /* \"#utility.yul\":29539:29670   */\n      tag_713\n        /* \"#utility.yul\":29665:29669   */\n      dup2\n        /* \"#utility.yul\":29539:29670   */\n      tag_423\n      jump\t// in\n    tag_713:\n        /* \"#utility.yul\":29531:29670   */\n      swap1\n      pop\n        /* \"#utility.yul\":29258:29677   */\n      swap2\n      swap1\n      pop\n      jump\t// out\n        /* \"#utility.yul\":29683:29826   */\n    tag_424:\n        /* \"#utility.yul\":29740:29745   */\n      0x00\n        /* \"#utility.yul\":29771:29777   */\n      dup2\n        /* \"#utility.yul\":29765:29778   */\n      mload\n        /* \"#utility.yul\":29756:29778   */\n      swap1\n      pop\n        /* \"#utility.yul\":29787:29820   */\n      tag_715\n        /* \"#utility.yul\":29814:29819   */\n      dup2\n        /* \"#utility.yul\":29787:29820   */\n      tag_356\n      jump\t// in\n    tag_715:\n        /* \"#utility.yul\":29683:29826   */\n      swap3\n      swap2\n      pop\n      pop\n      jump\t// out\n        /* \"#utility.yul\":29832:30183   */\n    tag_140:\n        /* \"#utility.yul\":29902:29908   */\n      0x00\n        /* \"#utility.yul\":29951:29953   */\n      0x20\n        /* \"#utility.yul\":29939:29948   */\n      dup3\n        /* \"#utility.yul\":29930:29937   */\n      dup5\n        /* \"#utility.yul\":29926:29949   */\n      sub\n        /* \"#utility.yul\":29922:29954   */\n      slt\n        /* \"#utility.yul\":29919:30038   */\n      iszero\n      tag_717\n      jumpi\n        /* \"#utility.yul\":29957:30036   */\n      tag_718\n      tag_353\n      jump\t// in\n    tag_718:\n        /* \"#utility.yul\":29919:30038   */\n    tag_717:\n        /* \"#utility.yul\":30077:30078   */\n      0x00\n        /* \"#utility.yul\":30102:30166   */\n      tag_719\n        /* \"#utility.yul\":30158:30165   */\n      dup5\n        /* \"#utility.yul\":30149:30155   */\n      dup3\n        /* \"#utility.yul\":30138:30147   */\n      dup6\n        /* \"#utility.yul\":30134:30156   */\n      add\n        /* \"#utility.yul\":30102:30166   */\n      tag_424\n      jump\t// in\n    tag_719:\n        /* \"#utility.yul\":30092:30166   */\n      swap2\n      pop\n        /* \"#utility.yul\":30048:30176   */\n      pop\n        /* \"#utility.yul\":29832:30183   */\n      swap3\n      swap2\n      pop\n      pop\n      jump\t// out\n        /* \"#utility.yul\":30189:30307   */\n    tag_425:\n        /* \"#utility.yul\":30260:30282   */\n      tag_721\n        /* \"#utility.yul\":30276:30281   */\n      dup2\n        /* \"#utility.yul\":30260:30282   */\n      tag_365\n      jump\t// in\n    tag_721:\n        /* \"#utility.yul\":30253:30258   */\n      dup2\n        /* \"#utility.yul\":30250:30283   */\n      eq\n        /* \"#utility.yul\":30240:30301   */\n      tag_722\n      jumpi\n        /* \"#utility.yul\":30297:30298   */\n      0x00\n        /* \"#utility.yul\":30294:30295   */\n      0x00\n        /* \"#utility.yul\":30287:30299   */\n      revert\n        /* \"#utility.yul\":30240:30301   */\n    tag_722:\n        /* \"#utility.yul\":30189:30307   */\n      pop\n      jump\t// out\n        /* \"#utility.yul\":30313:30452   */\n    tag_426:\n        /* \"#utility.yul\":30368:30373   */\n      0x00\n        /* \"#utility.yul\":30399:30405   */\n      dup2\n        /* \"#utility.yul\":30393:30406   */\n      mload\n        /* \"#utility.yul\":30384:30406   */\n      swap1\n      pop\n        /* \"#utility.yul\":30415:30446   */\n      tag_724\n        /* \"#utility.yul\":30440:30445   */\n      dup2\n        /* \"#utility.yul\":30415:30446   */\n      tag_425\n      jump\t// in\n    tag_724:\n        /* \"#utility.yul\":30313:30452   */\n      swap3\n      swap2\n      pop\n      pop\n      jump\t// out\n        /* \"#utility.yul\":30458:30805   */\n    tag_144:\n        /* \"#utility.yul\":30526:30532   */\n      0x00\n        /* \"#utility.yul\":30575:30577   */\n      0x20\n        /* \"#utility.yul\":30563:30572   */\n      dup3\n        /* \"#utility.yul\":30554:30561   */\n      dup5\n        /* \"#utility.yul\":30550:30573   */\n      sub\n        /* \"#utility.yul\":30546:30578   */\n      slt\n        /* \"#utility.yul\":30543:30662   */\n      iszero\n      tag_726\n      jumpi\n        /* \"#utility.yul\":30581:30660   */\n      tag_727\n      tag_353\n      jump\t// in\n    tag_727:\n        /* \"#utility.yul\":30543:30662   */\n    tag_726:\n        /* \"#utility.yul\":30701:30702   */\n      0x00\n        /* \"#utility.yul\":30726:30788   */\n      tag_728\n        /* \"#utility.yul\":30780:30787   */\n      dup5\n        /* \"#utility.yul\":30771:30777   */\n      dup3\n        /* \"#utility.yul\":30760:30769   */\n      dup6\n        /* \"#utility.yul\":30756:30778   */\n      add\n        /* \"#utility.yul\":30726:30788   */\n      tag_426\n      jump\t// in\n    tag_728:\n        /* \"#utility.yul\":30716:30788   */\n      swap2\n      pop\n        /* \"#utility.yul\":30672:30798   */\n      pop\n        /* \"#utility.yul\":30458:30805   */\n      swap3\n      swap2\n      pop\n      pop\n      jump\t// out\n        /* \"#utility.yul\":30811:30991   */\n    tag_178:\n        /* \"#utility.yul\":30859:30936   */\n      0x4e487b7100000000000000000000000000000000000000000000000000000000\n        /* \"#utility.yul\":30856:30857   */\n      0x00\n        /* \"#utility.yul\":30849:30937   */\n      mstore\n        /* \"#utility.yul\":30956:30960   */\n      0x32\n        /* \"#utility.yul\":30953:30954   */\n      0x04\n        /* \"#utility.yul\":30946:30961   */\n      mstore\n        /* \"#utility.yul\":30980:30984   */\n      0x24\n        /* \"#utility.yul\":30977:30978   */\n      0x00\n        /* \"#utility.yul\":30970:30985   */\n      revert\n        /* \"#utility.yul\":30997:31177   */\n    tag_204:\n        /* \"#utility.yul\":31045:31122   */\n      0x4e487b7100000000000000000000000000000000000000000000000000000000\n        /* \"#utility.yul\":31042:31043   */\n      0x00\n        /* \"#utility.yul\":31035:31123   */\n      mstore\n        /* \"#utility.yul\":31142:31146   */\n      0x12\n        /* \"#utility.yul\":31139:31140   */\n      0x04\n        /* \"#utility.yul\":31132:31147   */\n      mstore\n        /* \"#utility.yul\":31166:31170   */\n      0x24\n        /* \"#utility.yul\":31163:31164   */\n      0x00\n        /* \"#utility.yul\":31156:31171   */\n      revert\n        /* \"#utility.yul\":31183:31690   */\n    tag_217:\n        /* \"#utility.yul\":31262:31268   */\n      0x00\n        /* \"#utility.yul\":31270:31276   */\n      0x00\n        /* \"#utility.yul\":31319:31321   */\n      0x40\n        /* \"#utility.yul\":31307:31316   */\n      dup4\n        /* \"#utility.yul\":31298:31305   */\n      dup6\n        /* \"#utility.yul\":31294:31317   */\n      sub\n        /* \"#utility.yul\":31290:31322   */\n      slt\n        /* \"#utility.yul\":31287:31406   */\n      iszero\n      tag_732\n      jumpi\n        /* \"#utility.yul\":31325:31404   */\n      tag_733\n      tag_353\n      jump\t// in\n    tag_733:\n        /* \"#utility.yul\":31287:31406   */\n    tag_732:\n        /* \"#utility.yul\":31445:31446   */\n      0x00\n        /* \"#utility.yul\":31470:31534   */\n      tag_734\n        /* \"#utility.yul\":31526:31533   */\n      dup6\n        /* \"#utility.yul\":31517:31523   */\n      dup3\n        /* \"#utility.yul\":31506:31515   */\n      dup7\n        /* \"#utility.yul\":31502:31524   */\n      add\n        /* \"#utility.yul\":31470:31534   */\n      tag_424\n      jump\t// in\n    tag_734:\n        /* \"#utility.yul\":31460:31534   */\n      swap3\n      pop\n        /* \"#utility.yul\":31416:31544   */\n      pop\n        /* \"#utility.yul\":31583:31585   */\n      0x20\n        /* \"#utility.yul\":31609:31673   */\n      tag_735\n        /* \"#utility.yul\":31665:31672   */\n      dup6\n        /* \"#utility.yul\":31656:31662   */\n      dup3\n        /* \"#utility.yul\":31645:31654   */\n      dup7\n        /* \"#utility.yul\":31641:31663   */\n      add\n        /* \"#utility.yul\":31609:31673   */\n      tag_424\n      jump\t// in\n    tag_735:\n        /* \"#utility.yul\":31599:31673   */\n      swap2\n      pop\n        /* \"#utility.yul\":31554:31683   */\n      pop\n        /* \"#utility.yul\":31183:31690   */\n      swap3\n      pop\n      swap3\n      swap1\n      pop\n      jump\t// out\n        /* \"#utility.yul\":31696:31878   */\n    tag_427:\n        /* \"#utility.yul\":31836:31870   */\n      0x4469726563746f72792063616e6e6f74206265207a65726f2061646472657373\n        /* \"#utility.yul\":31832:31833   */\n      0x00\n        /* \"#utility.yul\":31824:31830   */\n      dup3\n        /* \"#utility.yul\":31820:31834   */\n      add\n        /* \"#utility.yul\":31813:31871   */\n      mstore\n        /* \"#utility.yul\":31696:31878   */\n      pop\n      jump\t// out\n        /* \"#utility.yul\":31884:32250   */\n    tag_428:\n        /* \"#utility.yul\":32026:32029   */\n      0x00\n        /* \"#utility.yul\":32047:32114   */\n      tag_738\n        /* \"#utility.yul\":32111:32113   */\n      0x20\n        /* \"#utility.yul\":32106:32109   */\n      dup4\n        /* \"#utility.yul\":32047:32114   */\n      tag_420\n      jump\t// in\n    tag_738:\n        /* \"#utility.yul\":32040:32114   */\n      swap2\n      pop\n        /* \"#utility.yul\":32123:32216   */\n      tag_739\n        /* \"#utility.yul\":32212:32215   */\n      dup3\n        /* \"#utility.yul\":32123:32216   */\n      tag_427\n      jump\t// in\n    tag_739:\n        /* \"#utility.yul\":32241:32243   */\n      0x20\n        /* \"#utility.yul\":32236:32239   */\n      dup3\n        /* \"#utility.yul\":32232:32244   */\n      add\n        /* \"#utility.yul\":32225:32244   */\n      swap1\n      pop\n        /* \"#utility.yul\":31884:32250   */\n      swap2\n      swap1\n      pop\n      jump\t// out\n        /* \"#utility.yul\":32256:32675   */\n    tag_226:\n        /* \"#utility.yul\":32422:32426   */\n      0x00\n        /* \"#utility.yul\":32460:32462   */\n      0x20\n        /* \"#utility.yul\":32449:32458   */\n      dup3\n        /* \"#utility.yul\":32445:32463   */\n      add\n        /* \"#utility.yul\":32437:32463   */\n      swap1\n      pop\n        /* \"#utility.yul\":32509:32518   */\n      dup2\n        /* \"#utility.yul\":32503:32507   */\n      dup2\n        /* \"#utility.yul\":32499:32519   */\n      sub\n        /* \"#utility.yul\":32495:32496   */\n      0x00\n        /* \"#utility.yul\":32484:32493   */\n      dup4\n        /* \"#utility.yul\":32480:32497   */\n      add\n        /* \"#utility.yul\":32473:32520   */\n      mstore\n        /* \"#utility.yul\":32537:32668   */\n      tag_741\n        /* \"#utility.yul\":32663:32667   */\n      dup2\n        /* \"#utility.yul\":32537:32668   */\n      tag_428\n      jump\t// in\n    tag_741:\n        /* \"#utility.yul\":32529:32668   */\n      swap1\n      pop\n        /* \"#utility.yul\":32256:32675   */\n      swap2\n      swap1\n      pop\n      jump\t// out\n        /* \"#utility.yul\":32681:32859   */\n    tag_429:\n        /* \"#utility.yul\":32821:32851   */\n      0x4469726563746f7279206d757374206265206120636f6e747261637400000000\n        /* \"#utility.yul\":32817:32818   */\n      0x00\n        /* \"#utility.yul\":32809:32815   */\n      dup3\n        /* \"#utility.yul\":32805:32819   */\n      add\n        /* \"#utility.yul\":32798:32852   */\n      mstore\n        /* \"#utility.yul\":32681:32859   */\n      pop\n      jump\t// out\n        /* \"#utility.yul\":32865:33231   */\n    tag_430:\n        /* \"#utility.yul\":33007:33010   */\n      0x00\n        /* \"#utility.yul\":33028:33095   */\n      tag_744\n        /* \"#utility.yul\":33092:33094   */\n      0x1c\n        /* \"#utility.yul\":33087:33090   */\n      dup4\n        /* \"#utility.yul\":33028:33095   */\n      tag_420\n      jump\t// in\n    tag_744:\n        /* \"#utility.yul\":33021:33095   */\n      swap2\n      pop\n        /* \"#utility.yul\":33104:33197   */\n      tag_745\n        /* \"#utility.yul\":33193:33196   */\n      dup3\n        /* \"#utility.yul\":33104:33197   */\n      tag_429\n      jump\t// in\n    tag_745:\n        /* \"#utility.yul\":33222:33224   */\n      0x20\n        /* \"#utility.yul\":33217:33220   */\n      dup3\n        /* \"#utility.yul\":33213:33225   */\n      add\n        /* \"#utility.yul\":33206:33225   */\n      swap1\n      pop\n        /* \"#utility.yul\":32865:33231   */\n      swap2\n      swap1\n      pop\n      jump\t// out\n        /* \"#utility.yul\":33237:33656   */\n    tag_229:\n        /* \"#utility.yul\":33403:33407   */\n      0x00\n        /* \"#utility.yul\":33441:33443   */\n      0x20\n        /* \"#utility.yul\":33430:33439   */\n      dup3\n        /* \"#utility.yul\":33426:33444   */\n      add\n        /* \"#utility.yul\":33418:33444   */\n      swap1\n      pop\n        /* \"#utility.yul\":33490:33499   */\n      dup2\n        /* \"#utility.yul\":33484:33488   */\n      dup2\n        /* \"#utility.yul\":33480:33500   */\n      sub\n        /* \"#utility.yul\":33476:33477   */\n      0x00\n        /* \"#utility.yul\":33465:33474   */\n      dup4\n        /* \"#utility.yul\":33461:33478   */\n      add\n        /* \"#utility.yul\":33454:33501   */\n      mstore\n        /* \"#utility.yul\":33518:33649   */\n      tag_747\n        /* \"#utility.yul\":33644:33648   */\n      dup2\n        /* \"#utility.yul\":33518:33649   */\n      tag_430\n      jump\t// in\n    tag_747:\n        /* \"#utility.yul\":33510:33649   */\n      swap1\n      pop\n        /* \"#utility.yul\":33237:33656   */\n      swap2\n      swap1\n      pop\n      jump\t// out\n        /* \"#utility.yul\":33662:33893   */\n    tag_431:\n        /* \"#utility.yul\":33802:33836   */\n      0x4469726563746f7279206164647265737320646f6573206e6f7420696d706c65\n        /* \"#utility.yul\":33798:33799   */\n      0x00\n        /* \"#utility.yul\":33790:33796   */\n      dup3\n        /* \"#utility.yul\":33786:33800   */\n      add\n        /* \"#utility.yul\":33779:33837   */\n      mstore\n        /* \"#utility.yul\":33871:33885   */\n      0x6d656e74206f776e657228290000000000000000000000000000000000000000\n        /* \"#utility.yul\":33866:33868   */\n      0x20\n        /* \"#utility.yul\":33858:33864   */\n      dup3\n        /* \"#utility.yul\":33854:33869   */\n      add\n        /* \"#utility.yul\":33847:33886   */\n      mstore\n        /* \"#utility.yul\":33662:33893   */\n      pop\n      jump\t// out\n        /* \"#utility.yul\":33899:34265   */\n    tag_432:\n        /* \"#utility.yul\":34041:34044   */\n      0x00\n        /* \"#utility.yul\":34062:34129   */\n      tag_750\n        /* \"#utility.yul\":34126:34128   */\n      0x2c\n        /* \"#utility.yul\":34121:34124   */\n      dup4\n        /* \"#utility.yul\":34062:34129   */\n      tag_420\n      jump\t// in\n    tag_750:\n        /* \"#utility.yul\":34055:34129   */\n      swap2\n      pop\n        /* \"#utility.yul\":34138:34231   */\n      tag_751\n        /* \"#utility.yul\":34227:34230   */\n      dup3\n        /* \"#utility.yul\":34138:34231   */\n      tag_431\n      jump\t// in\n    tag_751:\n        /* \"#utility.yul\":34256:34258   */\n      0x40\n        /* \"#utility.yul\":34251:34254   */\n      dup3\n        /* \"#utility.yul\":34247:34259   */\n      add\n        /* \"#utility.yul\":34240:34259   */\n      swap1\n      pop\n        /* \"#utility.yul\":33899:34265   */\n      swap2\n      swap1\n      pop\n      jump\t// out\n        /* \"#utility.yul\":34271:34690   */\n    tag_237:\n        /* \"#utility.yul\":34437:34441   */\n      0x00\n        /* \"#utility.yul\":34475:34477   */\n      0x20\n        /* \"#utility.yul\":34464:34473   */\n      dup3\n        /* \"#utility.yul\":34460:34478   */\n      add\n        /* \"#utility.yul\":34452:34478   */\n      swap1\n      pop\n        /* \"#utility.yul\":34524:34533   */\n      dup2\n        /* \"#utility.yul\":34518:34522   */\n      dup2\n        /* \"#utility.yul\":34514:34534   */\n      sub\n        /* \"#utility.yul\":34510:34511   */\n      0x00\n        /* \"#utility.yul\":34499:34508   */\n      dup4\n        /* \"#utility.yul\":34495:34512   */\n      add\n        /* \"#utility.yul\":34488:34535   */\n      mstore\n        /* \"#utility.yul\":34552:34683   */\n      tag_753\n        /* \"#utility.yul\":34678:34682   */\n      dup2\n        /* \"#utility.yul\":34552:34683   */\n      tag_432\n      jump\t// in\n    tag_753:\n        /* \"#utility.yul\":34544:34683   */\n      swap1\n      pop\n        /* \"#utility.yul\":34271:34690   */\n      swap2\n      swap1\n      pop\n      jump\t// out\n        /* \"#utility.yul\":34696:34876   */\n    tag_433:\n        /* \"#utility.yul\":34744:34821   */\n      0x4e487b7100000000000000000000000000000000000000000000000000000000\n        /* \"#utility.yul\":34741:34742   */\n      0x00\n        /* \"#utility.yul\":34734:34822   */\n      mstore\n        /* \"#utility.yul\":34841:34845   */\n      0x11\n        /* \"#utility.yul\":34838:34839   */\n      0x04\n        /* \"#utility.yul\":34831:34846   */\n      mstore\n        /* \"#utility.yul\":34865:34869   */\n      0x24\n        /* \"#utility.yul\":34862:34863   */\n      0x00\n        /* \"#utility.yul\":34855:34870   */\n      revert\n        /* \"#utility.yul\":34882:35067   */\n    tag_287:\n        /* \"#utility.yul\":34922:34923   */\n      0x00\n        /* \"#utility.yul\":34939:34959   */\n      tag_756\n        /* \"#utility.yul\":34957:34958   */\n      dup3\n        /* \"#utility.yul\":34939:34959   */\n      tag_355\n      jump\t// in\n    tag_756:\n        /* \"#utility.yul\":34934:34959   */\n      swap2\n      pop\n        /* \"#utility.yul\":34973:34993   */\n      tag_757\n        /* \"#utility.yul\":34991:34992   */\n      dup4\n        /* \"#utility.yul\":34973:34993   */\n      tag_355\n      jump\t// in\n    tag_757:\n        /* \"#utility.yul\":34968:34993   */\n      swap3\n      pop\n        /* \"#utility.yul\":35012:35013   */\n      dup3\n        /* \"#utility.yul\":35002:35037   */\n      tag_758\n      jumpi\n        /* \"#utility.yul\":35017:35035   */\n      tag_759\n      tag_204\n      jump\t// in\n    tag_759:\n        /* \"#utility.yul\":35002:35037   */\n    tag_758:\n        /* \"#utility.yul\":35059:35060   */\n      dup3\n        /* \"#utility.yul\":35056:35057   */\n      dup3\n        /* \"#utility.yul\":35052:35061   */\n      div\n        /* \"#utility.yul\":35047:35061   */\n      swap1\n      pop\n        /* \"#utility.yul\":34882:35067   */\n      swap3\n      swap2\n      pop\n      pop\n      jump\t// out\n        /* \"#utility.yul\":35073:35264   */\n    tag_297:\n        /* \"#utility.yul\":35111:35115   */\n      0x00\n        /* \"#utility.yul\":35131:35149   */\n      tag_761\n        /* \"#utility.yul\":35147:35148   */\n      dup3\n        /* \"#utility.yul\":35131:35149   */\n      tag_365\n      jump\t// in\n    tag_761:\n        /* \"#utility.yul\":35126:35149   */\n      swap2\n      pop\n        /* \"#utility.yul\":35163:35181   */\n      tag_762\n        /* \"#utility.yul\":35179:35180   */\n      dup4\n        /* \"#utility.yul\":35163:35181   */\n      tag_365\n      jump\t// in\n    tag_762:\n        /* \"#utility.yul\":35158:35181   */\n      swap3\n      pop\n        /* \"#utility.yul\":35205:35206   */\n      dup3\n        /* \"#utility.yul\":35202:35203   */\n      dup3\n        /* \"#utility.yul\":35198:35207   */\n      sub\n        /* \"#utility.yul\":35190:35207   */\n      swap1\n      pop\n        /* \"#utility.yul\":35229:35233   */\n      0xff\n        /* \"#utility.yul\":35223:35227   */\n      dup2\n        /* \"#utility.yul\":35220:35234   */\n      gt\n        /* \"#utility.yul\":35217:35257   */\n      iszero\n      tag_763\n      jumpi\n        /* \"#utility.yul\":35237:35255   */\n      tag_764\n      tag_433\n      jump\t// in\n    tag_764:\n        /* \"#utility.yul\":35217:35257   */\n    tag_763:\n        /* \"#utility.yul\":35073:35264   */\n      swap3\n      swap2\n      pop\n      pop\n      jump\t// out\n        /* \"#utility.yul\":35270:35435   */\n    tag_434:\n        /* \"#utility.yul\":35410:35427   */\n      0x6d756c446976206f766572666c6f770000000000000000000000000000000000\n        /* \"#utility.yul\":35406:35407   */\n      0x00\n        /* \"#utility.yul\":35398:35404   */\n      dup3\n        /* \"#utility.yul\":35394:35408   */\n      add\n        /* \"#utility.yul\":35387:35428   */\n      mstore\n        /* \"#utility.yul\":35270:35435   */\n      pop\n      jump\t// out\n        /* \"#utility.yul\":35441:35807   */\n    tag_435:\n        /* \"#utility.yul\":35583:35586   */\n      0x00\n        /* \"#utility.yul\":35604:35671   */\n      tag_767\n        /* \"#utility.yul\":35668:35670   */\n      0x0f\n        /* \"#utility.yul\":35663:35666   */\n      dup4\n        /* \"#utility.yul\":35604:35671   */\n      tag_420\n      jump\t// in\n    tag_767:\n        /* \"#utility.yul\":35597:35671   */\n      swap2\n      pop\n        /* \"#utility.yul\":35680:35773   */\n      tag_768\n        /* \"#utility.yul\":35769:35772   */\n      dup3\n        /* \"#utility.yul\":35680:35773   */\n      tag_434\n      jump\t// in\n    tag_768:\n        /* \"#utility.yul\":35798:35800   */\n      0x20\n        /* \"#utility.yul\":35793:35796   */\n      dup3\n        /* \"#utility.yul\":35789:35801   */\n      add\n        /* \"#utility.yul\":35782:35801   */\n      swap1\n      pop\n        /* \"#utility.yul\":35441:35807   */\n      swap2\n      swap1\n      pop\n      jump\t// out\n        /* \"#utility.yul\":35813:36232   */\n    tag_327:\n        /* \"#utility.yul\":35979:35983   */\n      0x00\n        /* \"#utility.yul\":36017:36019   */\n      0x20\n        /* \"#utility.yul\":36006:36015   */\n      dup3\n        /* \"#utility.yul\":36002:36020   */\n      add\n        /* \"#utility.yul\":35994:36020   */\n      swap1\n      pop\n        /* \"#utility.yul\":36066:36075   */\n      dup2\n        /* \"#utility.yul\":36060:36064   */\n      dup2\n        /* \"#utility.yul\":36056:36076   */\n      sub\n        /* \"#utility.yul\":36052:36053   */\n      0x00\n        /* \"#utility.yul\":36041:36050   */\n      dup4\n        /* \"#utility.yul\":36037:36054   */\n      add\n        /* \"#utility.yul\":36030:36077   */\n      mstore\n        /* \"#utility.yul\":36094:36225   */\n      tag_770\n        /* \"#utility.yul\":36220:36224   */\n      dup2\n        /* \"#utility.yul\":36094:36225   */\n      tag_435\n      jump\t// in\n    tag_770:\n        /* \"#utility.yul\":36086:36225   */\n      swap1\n      pop\n        /* \"#utility.yul\":35813:36232   */\n      swap2\n      swap1\n      pop\n      jump\t// out\n        /* \"#utility.yul\":36238:36402   */\n    tag_436:\n        /* \"#utility.yul\":36378:36394   */\n      0x706f773130206f766572666c6f77000000000000000000000000000000000000\n        /* \"#utility.yul\":36374:36375   */\n      0x00\n        /* \"#utility.yul\":36366:36372   */\n      dup3\n        /* \"#utility.yul\":36362:36376   */\n      add\n        /* \"#utility.yul\":36355:36395   */\n      mstore\n        /* \"#utility.yul\":36238:36402   */\n      pop\n      jump\t// out\n        /* \"#utility.yul\":36408:36774   */\n    tag_437:\n        /* \"#utility.yul\":36550:36553   */\n      0x00\n        /* \"#utility.yul\":36571:36638   */\n      tag_773\n        /* \"#utility.yul\":36635:36637   */\n      0x0e\n        /* \"#utility.yul\":36630:36633   */\n      dup4\n        /* \"#utility.yul\":36571:36638   */\n      tag_420\n      jump\t// in\n    tag_773:\n        /* \"#utility.yul\":36564:36638   */\n      swap2\n      pop\n        /* \"#utility.yul\":36647:36740   */\n      tag_774\n        /* \"#utility.yul\":36736:36739   */\n      dup3\n        /* \"#utility.yul\":36647:36740   */\n      tag_436\n      jump\t// in\n    tag_774:\n        /* \"#utility.yul\":36765:36767   */\n      0x20\n        /* \"#utility.yul\":36760:36763   */\n      dup3\n        /* \"#utility.yul\":36756:36768   */\n      add\n        /* \"#utility.yul\":36749:36768   */\n      swap1\n      pop\n        /* \"#utility.yul\":36408:36774   */\n      swap2\n      swap1\n      pop\n      jump\t// out\n        /* \"#utility.yul\":36780:37199   */\n    tag_347:\n        /* \"#utility.yul\":36946:36950   */\n      0x00\n        /* \"#utility.yul\":36984:36986   */\n      0x20\n        /* \"#utility.yul\":36973:36982   */\n      dup3\n        /* \"#utility.yul\":36969:36987   */\n      add\n        /* \"#utility.yul\":36961:36987   */\n      swap1\n      pop\n        /* \"#utility.yul\":37033:37042   */\n      dup2\n        /* \"#utility.yul\":37027:37031   */\n      dup2\n        /* \"#utility.yul\":37023:37043   */\n      sub\n        /* \"#utility.yul\":37019:37020   */\n      0x00\n        /* \"#utility.yul\":37008:37017   */\n      dup4\n        /* \"#utility.yul\":37004:37021   */\n      add\n        /* \"#utility.yul\":36997:37044   */\n      mstore\n        /* \"#utility.yul\":37061:37192   */\n      tag_776\n        /* \"#utility.yul\":37187:37191   */\n      dup2\n        /* \"#utility.yul\":37061:37192   */\n      tag_437\n      jump\t// in\n    tag_776:\n        /* \"#utility.yul\":37053:37192   */\n      swap1\n      pop\n        /* \"#utility.yul\":36780:37199   */\n      swap2\n      swap1\n      pop\n      jump\t// out\n\n    auxdata: 0xa2646970667358221220b1c16ce0a8388ebcb47b593470584f80a7053e6e9bff4df7cf6a9235aebe5db064736f6c634300081e0033\n}\n",
				"bytecode": {
					"linkReferences": {},
					"object": "608060405234801561000f575f5ffd5b50604051612f46380380612f4683398181016040528101906100319190610257565b806100418161004860201b60201c565b50506103f0565b5f73ffffffffffffffffffffffffffffffffffffffff168173ffffffffffffffffffffffffffffffffffffffff16036100b6576040517f08c379a00000000000000000000000000000000000000000000000000000000081526004016100ad906102dc565b60405180910390fd5b5f8173ffffffffffffffffffffffffffffffffffffffff163b1161010f576040517f08c379a000000000000000000000000000000000000000000000000000000000815260040161010690610344565b60405180910390fd5b8073ffffffffffffffffffffffffffffffffffffffff16638da5cb5b6040518163ffffffff1660e01b8152600401602060405180830381865afa92505050801561017757506040513d601f19601f820116820180604052508101906101749190610257565b60015b6101b6576040517f08c379a00000000000000000000000000000000000000000000000000000000081526004016101ad906103d2565b60405180910390fd5b815f5f6101000a81548173ffffffffffffffffffffffffffffffffffffffff021916908373ffffffffffffffffffffffffffffffffffffffff1602179055505050565b5f5ffd5b5f73ffffffffffffffffffffffffffffffffffffffff82169050919050565b5f610226826101fd565b9050919050565b6102368161021c565b8114610240575f5ffd5b50565b5f815190506102518161022d565b92915050565b5f6020828403121561026c5761026b6101f9565b5b5f61027984828501610243565b91505092915050565b5f82825260208201905092915050565b7f4469726563746f72792063616e6e6f74206265207a65726f20616464726573735f82015250565b5f6102c6602083610282565b91506102d182610292565b602082019050919050565b5f6020820190508181035f8301526102f3816102ba565b9050919050565b7f4469726563746f7279206d757374206265206120636f6e7472616374000000005f82015250565b5f61032e601c83610282565b9150610339826102fa565b602082019050919050565b5f6020820190508181035f83015261035b81610322565b9050919050565b7f4469726563746f7279206164647265737320646f6573206e6f7420696d706c655f8201527f6d656e74206f776e657228290000000000000000000000000000000000000000602082015250565b5f6103bc602c83610282565b91506103c782610362565b604082019050919050565b5f6020820190508181035f8301526103e9816103b0565b9050919050565b612b49806103fd5f395ff3fe608060405234801561000f575f5ffd5b506004361061009c575f3560e01c8063812efc8e11610064578063812efc8e1461017f5780638da5cb5b146101af578063ba4c7be1146101cd578063cd8d334f146101e9578063ee0d96c51461021b5761009c565b80630705a3e8146100a057806313290a89146100d05780632726261814610101578063658a847a146101315780637b3039651461014f575b5f5ffd5b6100ba60048036038101906100b59190611a6e565b61024c565b6040516100c79190611aa8565b60405180910390f35b6100ea60048036038101906100e59190611a6e565b6102f6565b6040516100f8929190611c67565b60405180910390f35b61011b60048036038101906101169190611dd1565b610396565b6040516101289190611e27565b60405180910390f35b610139610436565b6040516101469190611e9b565b60405180910390f35b61016960048036038101906101649190611a6e565b61045a565b6040516101769190611f48565b60405180910390f35b61019960048036038101906101949190611a6e565b6104fe565b6040516101a69190611aa8565b60405180910390f35b6101b761059b565b6040516101c49190611e27565b60405180910390f35b6101e760048036038101906101e29190611f8c565b61062e565b005b61020360048036038101906101fe9190611a6e565b610734565b60405161021293929190612100565b60405180910390f35b61023560048036038101906102309190612334565b6107d9565b604051610243929190611c67565b60405180910390f35b5f5f5f6102576107f1565b73ffffffffffffffffffffffffffffffffffffffff16633088f069856040518263ffffffff1660e01b815260040161028f9190611aa8565b5f60405180830381865afa1580156102a9573d5f5f3e3d5ffd5b505050506040513d5f823e3d601f19601f820116820180604052508101906102d191906125c9565b915091505f6102e1858484610835565b90506102ec81610a01565b9350505050919050565b60605f5f5f6103036107f1565b73ffffffffffffffffffffffffffffffffffffffff16633088f069866040518263ffffffff1660e01b815260040161033b9190611aa8565b5f60405180830381865afa158015610355573d5f5f3e3d5ffd5b505050506040513d5f823e3d601f19601f8201168201806040525081019061037d91906125c9565b9150915061038b8282610ab4565b935093505050915091565b5f5f5f9054906101000a900473ffffffffffffffffffffffffffffffffffffffff1673ffffffffffffffffffffffffffffffffffffffff166327262618836040518263ffffffff1660e01b81526004016103f09190612675565b602060405180830381865afa15801561040b573d5f5f3e3d5ffd5b505050506040513d601f19601f8201168201806040525081019061042f9190612695565b9050919050565b5f5f9054906101000a900473ffffffffffffffffffffffffffffffffffffffff1681565b61046261192c565b5f5f61046c6107f1565b73ffffffffffffffffffffffffffffffffffffffff16633088f069856040518263ffffffff1660e01b81526004016104a49190611aa8565b5f60405180830381865afa1580156104be573d5f5f3e3d5ffd5b505050506040513d5f823e3d601f19601f820116820180604052508101906104e691906125c9565b915091506104f5848383610dee565b92505050919050565b5f5f5f6105096107f1565b73ffffffffffffffffffffffffffffffffffffffff16633088f069856040518263ffffffff1660e01b81526004016105419190611aa8565b5f60405180830381865afa15801561055b573d5f5f3e3d5ffd5b505050506040513d5f823e3d601f19601f8201168201806040525081019061058391906125c9565b91509150610592848383610835565b92505050919050565b5f5f5f9054906101000a900473ffffffffffffffffffffffffffffffffffffffff1673ffffffffffffffffffffffffffffffffffffffff16638da5cb5b6040518163ffffffff1660e01b8152600401602060405180830381865afa158015610605573d5f5f3e3d5ffd5b505050506040513d601f19601f820116820180604052508101906106299190612695565b905090565b5f5f9054906101000a900473ffffffffffffffffffffffffffffffffffffffff1673ffffffffffffffffffffffffffffffffffffffff16638da5cb5b6040518163ffffffff1660e01b8152600401602060405180830381865afa158015610697573d5f5f3e3d5ffd5b505050506040513d601f19601f820116820180604052508101906106bb9190612695565b73ffffffffffffffffffffffffffffffffffffffff163373ffffffffffffffffffffffffffffffffffffffff1614610728576040517f08c379a000000000000000000000000000000000000000000000000000000000815260040161071f9061270a565b60405180910390fd5b61073181610f78565b50565b60605f5f5f5f6107426107f1565b73ffffffffffffffffffffffffffffffffffffffff16633088f069876040518263ffffffff1660e01b815260040161077a9190611aa8565b5f60405180830381865afa158015610794573d5f5f3e3d5ffd5b505050506040513d5f823e3d601f19601f820116820180604052508101906107bc91906125c9565b915091506107ca8282611129565b94509450945050509193909250565b60605f6107e68484610ab4565b915091509250929050565b5f6108306040518060400160405280600b81526020017f6574662d666163746f7279000000000000000000000000000000000000000000815250610396565b905090565b5f5f61083f6107f1565b73ffffffffffffffffffffffffffffffffffffffff1663f2018a1f866040518263ffffffff1660e01b81526004016108779190611aa8565b602060405180830381865afa158015610892573d5f5f3e3d5ffd5b505050506040513d601f19601f820116820180604052508101906108b69190612695565b90505f8173ffffffffffffffffffffffffffffffffffffffff166318160ddd6040518163ffffffff1660e01b8152600401602060405180830381865afa158015610902573d5f5f3e3d5ffd5b505050506040513d601f19601f82011682018060405250810190610926919061273c565b90505f8273ffffffffffffffffffffffffffffffffffffffff1663313ce5676040518163ffffffff1660e01b8152600401602060405180830381865afa158015610972573d5f5f3e3d5ffd5b505050506040513d601f19601f820116820180604052508101906109969190612791565b90505f82036109b2576109a88661133d565b93505050506109fa565b5f6109bd8383611472565b90505f81036109d2575f9450505050506109fa565b5f6109dd88886114dd565b90506109f281670de0b6b3a7640000846116d7565b955050505050505b9392505050565b5f5f8203610a11575f9050610aaf565b5f610a1a6117e1565b73ffffffffffffffffffffffffffffffffffffffff16636855e9396040518163ffffffff1660e01b8152600401602060405180830381865afa158015610a62573d5f5f3e3d5ffd5b505050506040513d601f19601f82011682018060405250810190610a86919061273c565b90505f8103610a98575f915050610aaf565b610aab8382670de0b6b3a76400006116d7565b9150505b919050565b60605f5f84604001515190508067ffffffffffffffff811115610ada57610ad9611cad565b5b604051908082528060200260200182016040528015610b1357816020015b610b0061196b565b815260200190600190039081610af85790505b5092505f610b1f6117e1565b90505f5f90505b82811015610d62575f87604001518281518110610b4657610b456127bc565b5b60200260200101515f015190505f8173ffffffffffffffffffffffffffffffffffffffff1663313ce5676040518163ffffffff1660e01b8152600401602060405180830381865afa158015610b9d573d5f5f3e3d5ffd5b505050506040513d601f19601f82011682018060405250810190610bc19190612791565b90505f8273ffffffffffffffffffffffffffffffffffffffff166370a082318a6040518263ffffffff1660e01b8152600401610bfd9190611e27565b602060405180830381865afa158015610c18573d5f5f3e3d5ffd5b505050506040513d601f19601f82011682018060405250810190610c3c919061273c565b90505f8573ffffffffffffffffffffffffffffffffffffffff16637b49b49d856040518263ffffffff1660e01b8152600401610c789190611e27565b602060405180830381865afa158015610c93573d5f5f3e3d5ffd5b505050506040513d601f19601f82011682018060405250810190610cb7919061273c565b90505f5f831480610cc757505f82145b610ce157610cdc83838660ff16600a0a6116d7565b610ce3565b5f5b90506040518060c001604052808673ffffffffffffffffffffffffffffffffffffffff1681526020018560ff1681526020015f61ffff168152602001848152602001838152602001828152508a8781518110610d4257610d416127bc565b5b602002602001018190525080890198505050505050806001019050610b26565b505f831115610de5575f5f90505b82811015610de35783612710868381518110610d8f57610d8e6127bc565b5b602002602001015160a001510281610daa57610da96127e9565b5b04858281518110610dbe57610dbd6127bc565b5b60200260200101516040019061ffff16908161ffff1681525050806001019050610d70565b505b50509250929050565b610df661192c565b5f610dff6117e1565b90505f610e0d868686610835565b90505f610e1982610a01565b9050604051806040016040528083815260200182815250845f01819052505f5f610e416107f1565b73ffffffffffffffffffffffffffffffffffffffff1663c45f06078a6040518263ffffffff1660e01b8152600401610e799190611aa8565b6040805180830381865afa158015610e93573d5f5f3e3d5ffd5b505050506040513d601f19601f82011682018060405250810190610eb79190612816565b9150915060405180604001604052808381526020018281525086602001819052505f610ee389896114dd565b90505f610eef82610a01565b90506040518060400160405280838152602001828152508860400181905250610f338a8873ffffffffffffffffffffffffffffffffffffffff166357b6c133611825565b886060018181525050610f618a8873ffffffffffffffffffffffffffffffffffffffff166357b6c133611825565b886080018181525050505050505050509392505050565b5f73ffffffffffffffffffffffffffffffffffffffff168173ffffffffffffffffffffffffffffffffffffffff1603610fe6576040517f08c379a0000000000000000000000000000000000000000000000000000000008152600401610fdd9061289e565b60405180910390fd5b5f8173ffffffffffffffffffffffffffffffffffffffff163b1161103f576040517f08c379a000000000000000000000000000000000000000000000000000000000815260040161103690612906565b60405180910390fd5b8073ffffffffffffffffffffffffffffffffffffffff16638da5cb5b6040518163ffffffff1660e01b8152600401602060405180830381865afa9250505080156110a757506040513d601f19601f820116820180604052508101906110a49190612695565b60015b6110e6576040517f08c379a00000000000000000000000000000000000000000000000000000000081526004016110dd90612994565b60405180910390fd5b815f5f6101000a81548173ffffffffffffffffffffffffffffffffffffffff021916908373ffffffffffffffffffffffffffffffffffffffff1602179055505050565b60605f5f5f5f6111398787610ab4565b9150915080935061114981610a01565b92505f825190508067ffffffffffffffff81111561116a57611169611cad565b5b6040519080825280602002602001820160405280156111a357816020015b6111906119b8565b8152602001906001900390816111885790505b5095505f5f90505b81811015611332576040518061010001604052808583815181106111d2576111d16127bc565b5b60200260200101515f015173ffffffffffffffffffffffffffffffffffffffff16815260200185838151811061120b5761120a6127bc565b5b60200260200101516020015160ff168152602001858381518110611232576112316127bc565b5b60200260200101516040015161ffff16815260200185838151811061125a576112596127bc565b5b602002602001015160600151815260200185838151811061127e5761127d6127bc565b5b60200260200101516080015181526020016112b68684815181106112a5576112a46127bc565b5b602002602001015160800151610a01565b81526020018583815181106112ce576112cd6127bc565b5b602002602001015160a0015181526020016113068684815181106112f5576112f46127bc565b5b602002602001015160a00151610a01565b81525087828151811061131c5761131b6127bc565b5b60200260200101819052508060010190506111ab565b505050509250925092565b5f5f5f6113486117e1565b90505f5f90505b84604001515181101561145a575f85604001518281518110611374576113736127bc565b5b60200260200101515f015190505f86604001518381518110611399576113986127bc565b5b60200260200101516020015190505f8473ffffffffffffffffffffffffffffffffffffffff16637b49b49d846040518263ffffffff1660e01b81526004016113e19190611e27565b602060405180830381865afa1580156113fc573d5f5f3e3d5ffd5b505050506040513d601f19601f82011682018060405250810190611420919061273c565b90505f81148061143357505f8261ffff16145b156114405750505061144f565b808261ffff1602860195505050505b80600101905061134f565b506127108261146991906129df565b92505050919050565b5f60128260ff1603611486578290506114d7565b60128260ff1610156114b4576114ad83670de0b6b3a76400006114a8856118d6565b6116d7565b90506114d7565b6114c96012836114c49190612a0f565b6118d6565b836114d491906129df565b90505b92915050565b5f5f6114e76117e1565b90505f5f90505b8460400151518110156116cf575f85604001518281518110611513576115126127bc565b5b60200260200101515f015190505f8173ffffffffffffffffffffffffffffffffffffffff166370a08231876040518263ffffffff1660e01b815260040161155a9190611e27565b602060405180830381865afa158015611575573d5f5f3e3d5ffd5b505050506040513d601f19601f82011682018060405250810190611599919061273c565b90505f81036115a95750506116c4565b5f8473ffffffffffffffffffffffffffffffffffffffff16637b49b49d846040518263ffffffff1660e01b81526004016115e39190611e27565b602060405180830381865afa1580156115fe573d5f5f3e3d5ffd5b505050506040513d601f19601f82011682018060405250810190611622919061273c565b90505f8103611633575050506116c4565b5f8373ffffffffffffffffffffffffffffffffffffffff1663313ce5676040518163ffffffff1660e01b8152600401602060405180830381865afa15801561167d573d5f5f3e3d5ffd5b505050506040513d601f19601f820116820180604052508101906116a19190612791565b90505f6116ad826118d6565b90506116ba8484836116d7565b8801975050505050505b8060010190506114ee565b505092915050565b5f5f5f5f198587098587029250828110838203039150505f810361170f57838281611705576117046127e9565b5b04925050506117da565b808411611751576040517f08c379a000000000000000000000000000000000000000000000000000000000815260040161174890612a8d565b60405180910390fd5b5f8486880990508281118203915080830392505f60018619018616905080860495508084049350600181825f0304019050808302841793505f600287600302189050808702600203810290508087026002038102905080870260020381029050808702600203810290508087026002038102905080870260020381029050808502955050505050505b9392505050565b5f6118206040518060400160405280600e81526020017f756e69737761702d6f7261636c65000000000000000000000000000000000000815250610396565b905090565b5f5f5f90505b8460400151518110156118ce575f856040015182815181106118505761184f6127bc565b5b60200260200101515f015190508484826040518263ffffffff1660e01b815260040161187c9190611e27565b602060405180830381865afa9250505080156118b657506040513d601f19601f820116820180604052508101906118b3919061273c565b60015b156118c2578084019350505b5080600101905061182b565b509392505050565b5f604d8260ff16111561191e576040517f08c379a000000000000000000000000000000000000000000000000000000000815260040161191590612af5565b60405180910390fd5b8160ff16600a0a9050919050565b6040518060a0016040528061193f611a12565b815260200161194c611a12565b8152602001611959611a12565b81526020015f81526020015f81525090565b6040518060c001604052805f73ffffffffffffffffffffffffffffffffffffffff1681526020015f60ff1681526020015f61ffff1681526020015f81526020015f81526020015f81525090565b6040518061010001604052805f73ffffffffffffffffffffffffffffffffffffffff1681526020015f60ff1681526020015f61ffff1681526020015f81526020015f81526020015f81526020015f81526020015f81525090565b60405180604001604052805f81526020015f81525090565b5f604051905090565b5f5ffd5b5f5ffd5b5f819050919050565b611a4d81611a3b565b8114611a57575f5ffd5b50565b5f81359050611a6881611a44565b92915050565b5f60208284031215611a8357611a82611a33565b5b5f611a9084828501611a5a565b91505092915050565b611aa281611a3b565b82525050565b5f602082019050611abb5f830184611a99565b92915050565b5f81519050919050565b5f82825260208201905092915050565b5f819050602082019050919050565b5f73ffffffffffffffffffffffffffffffffffffffff82169050919050565b5f611b1382611aea565b9050919050565b611b2381611b09565b82525050565b5f60ff82169050919050565b611b3e81611b29565b82525050565b5f61ffff82169050919050565b611b5a81611b44565b82525050565b611b6981611a3b565b82525050565b60c082015f820151611b835f850182611b1a565b506020820151611b966020850182611b35565b506040820151611ba96040850182611b51565b506060820151611bbc6060850182611b60565b506080820151611bcf6080850182611b60565b5060a0820151611be260a0850182611b60565b50505050565b5f611bf38383611b6f565b60c08301905092915050565b5f602082019050919050565b5f611c1582611ac1565b611c1f8185611acb565b9350611c2a83611adb565b805f5b83811015611c5a578151611c418882611be8565b9750611c4c83611bff565b925050600181019050611c2d565b5085935050505092915050565b5f6040820190508181035f830152611c7f8185611c0b565b9050611c8e6020830184611a99565b9392505050565b5f5ffd5b5f5ffd5b5f601f19601f8301169050919050565b7f4e487b71000000000000000000000000000000000000000000000000000000005f52604160045260245ffd5b611ce382611c9d565b810181811067ffffffffffffffff82111715611d0257611d01611cad565b5b80604052505050565b5f611d14611a2a565b9050611d208282611cda565b919050565b5f67ffffffffffffffff821115611d3f57611d3e611cad565b5b611d4882611c9d565b9050602081019050919050565b828183375f83830152505050565b5f611d75611d7084611d25565b611d0b565b905082815260208101848484011115611d9157611d90611c99565b5b611d9c848285611d55565b509392505050565b5f82601f830112611db857611db7611c95565b5b8135611dc8848260208601611d63565b91505092915050565b5f60208284031215611de657611de5611a33565b5b5f82013567ffffffffffffffff811115611e0357611e02611a37565b5b611e0f84828501611da4565b91505092915050565b611e2181611b09565b82525050565b5f602082019050611e3a5f830184611e18565b92915050565b5f819050919050565b5f611e63611e5e611e5984611aea565b611e40565b611aea565b9050919050565b5f611e7482611e49565b9050919050565b5f611e8582611e6a565b9050919050565b611e9581611e7b565b82525050565b5f602082019050611eae5f830184611e8c565b92915050565b604082015f820151611ec85f850182611b60565b506020820151611edb6020850182611b60565b50505050565b61010082015f820151611ef65f850182611eb4565b506020820151611f096040850182611eb4565b506040820151611f1c6080850182611eb4565b506060820151611f2f60c0850182611b60565b506080820151611f4260e0850182611b60565b50505050565b5f61010082019050611f5c5f830184611ee1565b92915050565b611f6b81611b09565b8114611f75575f5ffd5b50565b5f81359050611f8681611f62565b92915050565b5f60208284031215611fa157611fa0611a33565b5b5f611fae84828501611f78565b91505092915050565b5f81519050919050565b5f82825260208201905092915050565b5f819050602082019050919050565b61010082015f820151611ff55f850182611b1a565b5060208201516120086020850182611b35565b50604082015161201b6040850182611b51565b50606082015161202e6060850182611b60565b5060808201516120416080850182611b60565b5060a082015161205460a0850182611b60565b5060c082015161206760c0850182611b60565b5060e082015161207a60e0850182611b60565b50505050565b5f61208b8383611fe0565b6101008301905092915050565b5f602082019050919050565b5f6120ae82611fb7565b6120b88185611fc1565b93506120c383611fd1565b805f5b838110156120f35781516120da8882612080565b97506120e583612098565b9250506001810190506120c6565b5085935050505092915050565b5f6060820190508181035f83015261211881866120a4565b90506121276020830185611a99565b6121346040830184611a99565b949350505050565b5f5ffd5b5f5ffd5b5f67ffffffffffffffff82111561215e5761215d611cad565b5b602082029050602081019050919050565b5f5ffd5b61217c81611b44565b8114612186575f5ffd5b50565b5f8135905061219781612173565b92915050565b5f604082840312156121b2576121b161213c565b5b6121bc6040611d0b565b90505f6121cb84828501611f78565b5f8301525060206121de84828501612189565b60208301525092915050565b5f6121fc6121f784612144565b611d0b565b9050808382526020820190506040840283018581111561221f5761221e61216f565b5b835b818110156122485780612234888261219d565b845260208401935050604081019050612221565b5050509392505050565b5f82601f83011261226657612265611c95565b5b81356122768482602086016121ea565b91505092915050565b5f606082840312156122945761229361213c565b5b61229e6060611d0b565b90505f82013567ffffffffffffffff8111156122bd576122bc612140565b5b6122c984828501611da4565b5f83015250602082013567ffffffffffffffff8111156122ec576122eb612140565b5b6122f884828501611da4565b602083015250604082013567ffffffffffffffff81111561231c5761231b612140565b5b61232884828501612252565b60408301525092915050565b5f5f6040838503121561234a57612349611a33565b5b5f83013567ffffffffffffffff81111561236757612366611a37565b5b6123738582860161227f565b925050602061238485828601611f78565b9150509250929050565b8281835e5f83830152505050565b5f6123ae6123a984611d25565b611d0b565b9050828152602081018484840111156123ca576123c9611c99565b5b6123d584828561238e565b509392505050565b5f82601f8301126123f1576123f0611c95565b5b815161240184826020860161239c565b91505092915050565b5f8151905061241881611f62565b92915050565b5f8151905061242c81612173565b92915050565b5f604082840312156124475761244661213c565b5b6124516040611d0b565b90505f6124608482850161240a565b5f8301525060206124738482850161241e565b60208301525092915050565b5f61249161248c84612144565b611d0b565b905080838252602082019050604084028301858111156124b4576124b361216f565b5b835b818110156124dd57806124c98882612432565b8452602084019350506040810190506124b6565b5050509392505050565b5f82601f8301126124fb576124fa611c95565b5b815161250b84826020860161247f565b91505092915050565b5f606082840312156125295761252861213c565b5b6125336060611d0b565b90505f82015167ffffffffffffffff81111561255257612551612140565b5b61255e848285016123dd565b5f83015250602082015167ffffffffffffffff81111561258157612580612140565b5b61258d848285016123dd565b602083015250604082015167ffffffffffffffff8111156125b1576125b0612140565b5b6125bd848285016124e7565b60408301525092915050565b5f5f604083850312156125df576125de611a33565b5b5f83015167ffffffffffffffff8111156125fc576125fb611a37565b5b61260885828601612514565b92505060206126198582860161240a565b9150509250929050565b5f81519050919050565b5f82825260208201905092915050565b5f61264782612623565b612651818561262d565b935061266181856020860161238e565b61266a81611c9d565b840191505092915050565b5f6020820190508181035f83015261268d818461263d565b905092915050565b5f602082840312156126aa576126a9611a33565b5b5f6126b78482850161240a565b91505092915050565b7f43616c6c6572206973206e6f7420746865206f776e65720000000000000000005f82015250565b5f6126f460178361262d565b91506126ff826126c0565b602082019050919050565b5f6020820190508181035f830152612721816126e8565b9050919050565b5f8151905061273681611a44565b92915050565b5f6020828403121561275157612750611a33565b5b5f61275e84828501612728565b91505092915050565b61277081611b29565b811461277a575f5ffd5b50565b5f8151905061278b81612767565b92915050565b5f602082840312156127a6576127a5611a33565b5b5f6127b38482850161277d565b91505092915050565b7f4e487b71000000000000000000000000000000000000000000000000000000005f52603260045260245ffd5b7f4e487b71000000000000000000000000000000000000000000000000000000005f52601260045260245ffd5b5f5f6040838503121561282c5761282b611a33565b5b5f61283985828601612728565b925050602061284a85828601612728565b9150509250929050565b7f4469726563746f72792063616e6e6f74206265207a65726f20616464726573735f82015250565b5f61288860208361262d565b915061289382612854565b602082019050919050565b5f6020820190508181035f8301526128b58161287c565b9050919050565b7f4469726563746f7279206d757374206265206120636f6e7472616374000000005f82015250565b5f6128f0601c8361262d565b91506128fb826128bc565b602082019050919050565b5f6020820190508181035f83015261291d816128e4565b9050919050565b7f4469726563746f7279206164647265737320646f6573206e6f7420696d706c655f8201527f6d656e74206f776e657228290000000000000000000000000000000000000000602082015250565b5f61297e602c8361262d565b915061298982612924565b604082019050919050565b5f6020820190508181035f8301526129ab81612972565b9050919050565b7f4e487b71000000000000000000000000000000000000000000000000000000005f52601160045260245ffd5b5f6129e982611a3b565b91506129f483611a3b565b925082612a0457612a036127e9565b5b828204905092915050565b5f612a1982611b29565b9150612a2483611b29565b9250828203905060ff811115612a3d57612a3c6129b2565b5b92915050565b7f6d756c446976206f766572666c6f7700000000000000000000000000000000005f82015250565b5f612a77600f8361262d565b9150612a8282612a43565b602082019050919050565b5f6020820190508181035f830152612aa481612a6b565b9050919050565b7f706f773130206f766572666c6f770000000000000000000000000000000000005f82015250565b5f612adf600e8361262d565b9150612aea82612aab565b602082019050919050565b5f6020820190508181035f830152612b0c81612ad3565b905091905056fea2646970667358221220b1c16ce0a8388ebcb47b593470584f80a7053e6e9bff4df7cf6a9235aebe5db064736f6c634300081e0033",
					"opcodes": "PUSH1 0x80 PUSH1 0x40 MSTORE CALLVALUE DUP1 ISZERO PUSH2 0xF JUMPI PUSH0 PUSH0 REVERT JUMPDEST POP PUSH1 0x40 MLOAD PUSH2 0x2F46 CODESIZE SUB DUP1 PUSH2 0x2F46 DUP4 CODECOPY DUP2 DUP2 ADD PUSH1 0x40 MSTORE DUP2 ADD SWAP1 PUSH2 0x31 SWAP2 SWAP1 PUSH2 0x257 JUMP JUMPDEST DUP1 PUSH2 0x41 DUP2 PUSH2 0x48 PUSH1 0x20 SHL PUSH1 0x20 SHR JUMP JUMPDEST POP POP PUSH2 0x3F0 JUMP JUMPDEST PUSH0 PUSH20 0xFFFFFFFFFFFFFFFFFFFFFFFFFFFFFFFFFFFFFFFF AND DUP2 PUSH20 0xFFFFFFFFFFFFFFFFFFFFFFFFFFFFFFFFFFFFFFFF AND SUB PUSH2 0xB6 JUMPI PUSH1 0x40 MLOAD PUSH32 0x8C379A000000000000000000000000000000000000000000000000000000000 DUP2 MSTORE PUSH1 0x4 ADD PUSH2 0xAD SWAP1 PUSH2 0x2DC JUMP JUMPDEST PUSH1 0x40 MLOAD DUP1 SWAP2 SUB SWAP1 REVERT JUMPDEST PUSH0 DUP2 PUSH20 0xFFFFFFFFFFFFFFFFFFFFFFFFFFFFFFFFFFFFFFFF AND EXTCODESIZE GT PUSH2 0x10F JUMPI PUSH1 0x40 MLOAD PUSH32 0x8C379A000000000000000000000000000000000000000000000000000000000 DUP2 MSTORE PUSH1 0x4 ADD PUSH2 0x106 SWAP1 PUSH2 0x344 JUMP JUMPDEST PUSH1 0x40 MLOAD DUP1 SWAP2 SUB SWAP1 REVERT JUMPDEST DUP1 PUSH20 0xFFFFFFFFFFFFFFFFFFFFFFFFFFFFFFFFFFFFFFFF AND PUSH4 0x8DA5CB5B PUSH1 0x40 MLOAD DUP2 PUSH4 0xFFFFFFFF AND PUSH1 0xE0 SHL DUP2 MSTORE PUSH1 0x4 ADD PUSH1 0x20 PUSH1 0x40 MLOAD DUP1 DUP4 SUB DUP2 DUP7 GAS STATICCALL SWAP3 POP POP POP DUP1 ISZERO PUSH2 0x177 JUMPI POP PUSH1 0x40 MLOAD RETURNDATASIZE PUSH1 0x1F NOT PUSH1 0x1F DUP3 ADD AND DUP3 ADD DUP1 PUSH1 0x40 MSTORE POP DUP2 ADD SWAP1 PUSH2 0x174 SWAP2 SWAP1 PUSH2 0x257 JUMP JUMPDEST PUSH1 0x1 JUMPDEST PUSH2 0x1B6 JUMPI PUSH1 0x40 MLOAD PUSH32 0x8C379A000000000000000000000000000000000000000000000000000000000 DUP2 MSTORE PUSH1 0x4 ADD PUSH2 0x1AD SWAP1 PUSH2 0x3D2 JUMP JUMPDEST PUSH1 0x40 MLOAD DUP1 SWAP2 SUB SWAP1 REVERT JUMPDEST DUP2 PUSH0 PUSH0 PUSH2 0x100 EXP DUP2 SLOAD DUP2 PUSH20 0xFFFFFFFFFFFFFFFFFFFFFFFFFFFFFFFFFFFFFFFF MUL NOT AND SWAP1 DUP4 PUSH20 0xFFFFFFFFFFFFFFFFFFFFFFFFFFFFFFFFFFFFFFFF AND MUL OR SWAP1 SSTORE POP POP POP JUMP JUMPDEST PUSH0 PUSH0 REVERT JUMPDEST PUSH0 PUSH20 0xFFFFFFFFFFFFFFFFFFFFFFFFFFFFFFFFFFFFFFFF DUP3 AND SWAP1 POP SWAP2 SWAP1 POP JUMP JUMPDEST PUSH0 PUSH2 0x226 DUP3 PUSH2 0x1FD JUMP JUMPDEST SWAP1 POP SWAP2 SWAP1 POP JUMP JUMPDEST PUSH2 0x236 DUP2 PUSH2 0x21C JUMP JUMPDEST DUP2 EQ PUSH2 0x240 JUMPI PUSH0 PUSH0 REVERT JUMPDEST POP JUMP JUMPDEST PUSH0 DUP2 MLOAD SWAP1 POP PUSH2 0x251 DUP2 PUSH2 0x22D JUMP JUMPDEST SWAP3 SWAP2 POP POP JUMP JUMPDEST PUSH0 PUSH1 0x20 DUP3 DUP5 SUB SLT ISZERO PUSH2 0x26C JUMPI PUSH2 0x26B PUSH2 0x1F9 JUMP JUMPDEST JUMPDEST PUSH0 PUSH2 0x279 DUP5 DUP3 DUP6 ADD PUSH2 0x243 JUMP JUMPDEST SWAP2 POP POP SWAP3 SWAP2 POP POP JUMP JUMPDEST PUSH0 DUP3 DUP3 MSTORE PUSH1 0x20 DUP3 ADD SWAP1 POP SWAP3 SWAP2 POP POP JUMP JUMPDEST PUSH32 0x4469726563746F72792063616E6E6F74206265207A65726F2061646472657373 PUSH0 DUP3 ADD MSTORE POP JUMP JUMPDEST PUSH0 PUSH2 0x2C6 PUSH1 0x20 DUP4 PUSH2 0x282 JUMP JUMPDEST SWAP2 POP PUSH2 0x2D1 DUP3 PUSH2 0x292 JUMP JUMPDEST PUSH1 0x20 DUP3 ADD SWAP1 POP SWAP2 SWAP1 POP JUMP JUMPDEST PUSH0 PUSH1 0x20 DUP3 ADD SWAP1 POP DUP2 DUP2 SUB PUSH0 DUP4 ADD MSTORE PUSH2 0x2F3 DUP2 PUSH2 0x2BA JUMP JUMPDEST SWAP1 POP SWAP2 SWAP1 POP JUMP JUMPDEST PUSH32 0x4469726563746F7279206D757374206265206120636F6E747261637400000000 PUSH0 DUP3 ADD MSTORE POP JUMP JUMPDEST PUSH0 PUSH2 0x32E PUSH1 0x1C DUP4 PUSH2 0x282 JUMP JUMPDEST SWAP2 POP PUSH2 0x339 DUP3 PUSH2 0x2FA JUMP JUMPDEST PUSH1 0x20 DUP3 ADD SWAP1 POP SWAP2 SWAP1 POP JUMP JUMPDEST PUSH0 PUSH1 0x20 DUP3 ADD SWAP1 POP DUP2 DUP2 SUB PUSH0 DUP4 ADD MSTORE PUSH2 0x35B DUP2 PUSH2 0x322 JUMP JUMPDEST SWAP1 POP SWAP2 SWAP1 POP JUMP JUMPDEST PUSH32 0x4469726563746F7279206164647265737320646F6573206E6F7420696D706C65 PUSH0 DUP3 ADD MSTORE PUSH32 0x6D656E74206F776E657228290000000000000000000000000000000000000000 PUSH1 0x20 DUP3 ADD MSTORE POP JUMP JUMPDEST PUSH0 PUSH2 0x3BC PUSH1 0x2C DUP4 PUSH2 0x282 JUMP JUMPDEST SWAP2 POP PUSH2 0x3C7 DUP3 PUSH2 0x362 JUMP JUMPDEST PUSH1 0x40 DUP3 ADD SWAP1 POP SWAP2 SWAP1 POP JUMP JUMPDEST PUSH0 PUSH1 0x20 DUP3 ADD SWAP1 POP DUP2 DUP2 SUB PUSH0 DUP4 ADD MSTORE PUSH2 0x3E9 DUP2 PUSH2 0x3B0 JUMP JUMPDEST SWAP1 POP SWAP2 SWAP1 POP JUMP JUMPDEST PUSH2 0x2B49 DUP1 PUSH2 0x3FD PUSH0 CODECOPY PUSH0 RETURN INVALID PUSH1 0x80 PUSH1 0x40 MSTORE CALLVALUE DUP1 ISZERO PUSH2 0xF JUMPI PUSH0 PUSH0 REVERT JUMPDEST POP PUSH1 0x4 CALLDATASIZE LT PUSH2 0x9C JUMPI PUSH0 CALLDATALOAD PUSH1 0xE0 SHR DUP1 PUSH4 0x812EFC8E GT PUSH2 0x64 JUMPI DUP1 PUSH4 0x812EFC8E EQ PUSH2 0x17F JUMPI DUP1 PUSH4 0x8DA5CB5B EQ PUSH2 0x1AF JUMPI DUP1 PUSH4 0xBA4C7BE1 EQ PUSH2 0x1CD JUMPI DUP1 PUSH4 0xCD8D334F EQ PUSH2 0x1E9 JUMPI DUP1 PUSH4 0xEE0D96C5 EQ PUSH2 0x21B JUMPI PUSH2 0x9C JUMP JUMPDEST DUP1 PUSH4 0x705A3E8 EQ PUSH2 0xA0 JUMPI DUP1 PUSH4 0x13290A89 EQ PUSH2 0xD0 JUMPI DUP1 PUSH4 0x27262618 EQ PUSH2 0x101 JUMPI DUP1 PUSH4 0x658A847A EQ PUSH2 0x131 JUMPI DUP1 PUSH4 0x7B303965 EQ PUSH2 0x14F JUMPI JUMPDEST PUSH0 PUSH0 REVERT JUMPDEST PUSH2 0xBA PUSH1 0x4 DUP1 CALLDATASIZE SUB DUP2 ADD SWAP1 PUSH2 0xB5 SWAP2 SWAP1 PUSH2 0x1A6E JUMP JUMPDEST PUSH2 0x24C JUMP JUMPDEST PUSH1 0x40 MLOAD PUSH2 0xC7 SWAP2 SWAP1 PUSH2 0x1AA8 JUMP JUMPDEST PUSH1 0x40 MLOAD DUP1 SWAP2 SUB SWAP1 RETURN JUMPDEST PUSH2 0xEA PUSH1 0x4 DUP1 CALLDATASIZE SUB DUP2 ADD SWAP1 PUSH2 0xE5 SWAP2 SWAP1 PUSH2 0x1A6E JUMP JUMPDEST PUSH2 0x2F6 JUMP JUMPDEST PUSH1 0x40 MLOAD PUSH2 0xF8 SWAP3 SWAP2 SWAP1 PUSH2 0x1C67 JUMP JUMPDEST PUSH1 0x40 MLOAD DUP1 SWAP2 SUB SWAP1 RETURN JUMPDEST PUSH2 0x11B PUSH1 0x4 DUP1 CALLDATASIZE SUB DUP2 ADD SWAP1 PUSH2 0x116 SWAP2 SWAP1 PUSH2 0x1DD1 JUMP JUMPDEST PUSH2 0x396 JUMP JUMPDEST PUSH1 0x40 MLOAD PUSH2 0x128 SWAP2 SWAP1 PUSH2 0x1E27 JUMP JUMPDEST PUSH1 0x40 MLOAD DUP1 SWAP2 SUB SWAP1 RETURN JUMPDEST PUSH2 0x139 PUSH2 0x436 JUMP JUMPDEST PUSH1 0x40 MLOAD PUSH2 0x146 SWAP2 SWAP1 PUSH2 0x1E9B JUMP JUMPDEST PUSH1 0x40 MLOAD DUP1 SWAP2 SUB SWAP1 RETURN JUMPDEST PUSH2 0x169 PUSH1 0x4 DUP1 CALLDATASIZE SUB DUP2 ADD SWAP1 PUSH2 0x164 SWAP2 SWAP1 PUSH2 0x1A6E JUMP JUMPDEST PUSH2 0x45A JUMP JUMPDEST PUSH1 0x40 MLOAD PUSH2 0x176 SWAP2 SWAP1 PUSH2 0x1F48 JUMP JUMPDEST PUSH1 0x40 MLOAD DUP1 SWAP2 SUB SWAP1 RETURN JUMPDEST PUSH2 0x199 PUSH1 0x4 DUP1 CALLDATASIZE SUB DUP2 ADD SWAP1 PUSH2 0x194 SWAP2 SWAP1 PUSH2 0x1A6E JUMP JUMPDEST PUSH2 0x4FE JUMP JUMPDEST PUSH1 0x40 MLOAD PUSH2 0x1A6 SWAP2 SWAP1 PUSH2 0x1AA8 JUMP JUMPDEST PUSH1 0x40 MLOAD DUP1 SWAP2 SUB SWAP1 RETURN JUMPDEST PUSH2 0x1B7 PUSH2 0x59B JUMP JUMPDEST PUSH1 0x40 MLOAD PUSH2 0x1C4 SWAP2 SWAP1 PUSH2 0x1E27 JUMP JUMPDEST PUSH1 0x40 MLOAD DUP1 SWAP2 SUB SWAP1 RETURN JUMPDEST PUSH2 0x1E7 PUSH1 0x4 DUP1 CALLDATASIZE SUB DUP2 ADD SWAP1 PUSH2 0x1E2 SWAP2 SWAP1 PUSH2 0x1F8C JUMP JUMPDEST PUSH2 0x62E JUMP JUMPDEST STOP JUMPDEST PUSH2 0x203 PUSH1 0x4 DUP1 CALLDATASIZE SUB DUP2 ADD SWAP1 PUSH2 0x1FE SWAP2 SWAP1 PUSH2 0x1A6E JUMP JUMPDEST PUSH2 0x734 JUMP JUMPDEST PUSH1 0x40 MLOAD PUSH2 0x212 SWAP4 SWAP3 SWAP2 SWAP1 PUSH2 0x2100 JUMP JUMPDEST PUSH1 0x40 MLOAD DUP1 SWAP2 SUB SWAP1 RETURN JUMPDEST PUSH2 0x235 PUSH1 0x4 DUP1 CALLDATASIZE SUB DUP2 ADD SWAP1 PUSH2 0x230 SWAP2 SWAP1 PUSH2 0x2334 JUMP JUMPDEST PUSH2 0x7D9 JUMP JUMPDEST PUSH1 0x40 MLOAD PUSH2 0x243 SWAP3 SWAP2 SWAP1 PUSH2 0x1C67 JUMP JUMPDEST PUSH1 0x40 MLOAD DUP1 SWAP2 SUB SWAP1 RETURN JUMPDEST PUSH0 PUSH0 PUSH0 PUSH2 0x257 PUSH2 0x7F1 JUMP JUMPDEST PUSH20 0xFFFFFFFFFFFFFFFFFFFFFFFFFFFFFFFFFFFFFFFF AND PUSH4 0x3088F069 DUP6 PUSH1 0x40 MLOAD DUP3 PUSH4 0xFFFFFFFF AND PUSH1 0xE0 SHL DUP2 MSTORE PUSH1 0x4 ADD PUSH2 0x28F SWAP2 SWAP1 PUSH2 0x1AA8 JUMP JUMPDEST PUSH0 PUSH1 0x40 MLOAD DUP1 DUP4 SUB DUP2 DUP7 GAS STATICCALL ISZERO DUP1 ISZERO PUSH2 0x2A9 JUMPI RETURNDATASIZE PUSH0 PUSH0 RETURNDATACOPY RETURNDATASIZE PUSH0 REVERT JUMPDEST POP POP POP POP PUSH1 0x40 MLOAD RETURNDATASIZE PUSH0 DUP3 RETURNDATACOPY RETURNDATASIZE PUSH1 0x1F NOT PUSH1 0x1F DUP3 ADD AND DUP3 ADD DUP1 PUSH1 0x40 MSTORE POP DUP2 ADD SWAP1 PUSH2 0x2D1 SWAP2 SWAP1 PUSH2 0x25C9 JUMP JUMPDEST SWAP2 POP SWAP2 POP PUSH0 PUSH2 0x2E1 DUP6 DUP5 DUP5 PUSH2 0x835 JUMP JUMPDEST SWAP1 POP PUSH2 0x2EC DUP2 PUSH2 0xA01 JUMP JUMPDEST SWAP4 POP POP POP POP SWAP2 SWAP1 POP JUMP JUMPDEST PUSH1 0x60 PUSH0 PUSH0 PUSH0 PUSH2 0x303 PUSH2 0x7F1 JUMP JUMPDEST PUSH20 0xFFFFFFFFFFFFFFFFFFFFFFFFFFFFFFFFFFFFFFFF AND PUSH4 0x3088F069 DUP7 PUSH1 0x40 MLOAD DUP3 PUSH4 0xFFFFFFFF AND PUSH1 0xE0 SHL DUP2 MSTORE PUSH1 0x4 ADD PUSH2 0x33B SWAP2 SWAP1 PUSH2 0x1AA8 JUMP JUMPDEST PUSH0 PUSH1 0x40 MLOAD DUP1 DUP4 SUB DUP2 DUP7 GAS STATICCALL ISZERO DUP1 ISZERO PUSH2 0x355 JUMPI RETURNDATASIZE PUSH0 PUSH0 RETURNDATACOPY RETURNDATASIZE PUSH0 REVERT JUMPDEST POP POP POP POP PUSH1 0x40 MLOAD RETURNDATASIZE PUSH0 DUP3 RETURNDATACOPY RETURNDATASIZE PUSH1 0x1F NOT PUSH1 0x1F DUP3 ADD AND DUP3 ADD DUP1 PUSH1 0x40 MSTORE POP DUP2 ADD SWAP1 PUSH2 0x37D SWAP2 SWAP1 PUSH2 0x25C9 JUMP JUMPDEST SWAP2 POP SWAP2 POP PUSH2 0x38B DUP3 DUP3 PUSH2 0xAB4 JUMP JUMPDEST SWAP4 POP SWAP4 POP POP POP SWAP2 POP SWAP2 JUMP JUMPDEST PUSH0 PUSH0 PUSH0 SWAP1 SLOAD SWAP1 PUSH2 0x100 EXP SWAP1 DIV PUSH20 0xFFFFFFFFFFFFFFFFFFFFFFFFFFFFFFFFFFFFFFFF AND PUSH20 0xFFFFFFFFFFFFFFFFFFFFFFFFFFFFFFFFFFFFFFFF AND PUSH4 0x27262618 DUP4 PUSH1 0x40 MLOAD DUP3 PUSH4 0xFFFFFFFF AND PUSH1 0xE0 SHL DUP2 MSTORE PUSH1 0x4 ADD PUSH2 0x3F0 SWAP2 SWAP1 PUSH2 0x2675 JUMP JUMPDEST PUSH1 0x20 PUSH1 0x40 MLOAD DUP1 DUP4 SUB DUP2 DUP7 GAS STATICCALL ISZERO DUP1 ISZERO PUSH2 0x40B JUMPI RETURNDATASIZE PUSH0 PUSH0 RETURNDATACOPY RETURNDATASIZE PUSH0 REVERT JUMPDEST POP POP POP POP PUSH1 0x40 MLOAD RETURNDATASIZE PUSH1 0x1F NOT PUSH1 0x1F DUP3 ADD AND DUP3 ADD DUP1 PUSH1 0x40 MSTORE POP DUP2 ADD SWAP1 PUSH2 0x42F SWAP2 SWAP1 PUSH2 0x2695 JUMP JUMPDEST SWAP1 POP SWAP2 SWAP1 POP JUMP JUMPDEST PUSH0 PUSH0 SWAP1 SLOAD SWAP1 PUSH2 0x100 EXP SWAP1 DIV PUSH20 0xFFFFFFFFFFFFFFFFFFFFFFFFFFFFFFFFFFFFFFFF AND DUP2 JUMP JUMPDEST PUSH2 0x462 PUSH2 0x192C JUMP JUMPDEST PUSH0 PUSH0 PUSH2 0x46C PUSH2 0x7F1 JUMP JUMPDEST PUSH20 0xFFFFFFFFFFFFFFFFFFFFFFFFFFFFFFFFFFFFFFFF AND PUSH4 0x3088F069 DUP6 PUSH1 0x40 MLOAD DUP3 PUSH4 0xFFFFFFFF AND PUSH1 0xE0 SHL DUP2 MSTORE PUSH1 0x4 ADD PUSH2 0x4A4 SWAP2 SWAP1 PUSH2 0x1AA8 JUMP JUMPDEST PUSH0 PUSH1 0x40 MLOAD DUP1 DUP4 SUB DUP2 DUP7 GAS STATICCALL ISZERO DUP1 ISZERO PUSH2 0x4BE JUMPI RETURNDATASIZE PUSH0 PUSH0 RETURNDATACOPY RETURNDATASIZE PUSH0 REVERT JUMPDEST POP POP POP POP PUSH1 0x40 MLOAD RETURNDATASIZE PUSH0 DUP3 RETURNDATACOPY RETURNDATASIZE PUSH1 0x1F NOT PUSH1 0x1F DUP3 ADD AND DUP3 ADD DUP1 PUSH1 0x40 MSTORE POP DUP2 ADD SWAP1 PUSH2 0x4E6 SWAP2 SWAP1 PUSH2 0x25C9 JUMP JUMPDEST SWAP2 POP SWAP2 POP PUSH2 0x4F5 DUP5 DUP4 DUP4 PUSH2 0xDEE JUMP JUMPDEST SWAP3 POP POP POP SWAP2 SWAP1 POP JUMP JUMPDEST PUSH0 PUSH0 PUSH0 PUSH2 0x509 PUSH2 0x7F1 JUMP JUMPDEST PUSH20 0xFFFFFFFFFFFFFFFFFFFFFFFFFFFFFFFFFFFFFFFF AND PUSH4 0x3088F069 DUP6 PUSH1 0x40 MLOAD DUP3 PUSH4 0xFFFFFFFF AND PUSH1 0xE0 SHL DUP2 MSTORE PUSH1 0x4 ADD PUSH2 0x541 SWAP2 SWAP1 PUSH2 0x1AA8 JUMP JUMPDEST PUSH0 PUSH1 0x40 MLOAD DUP1 DUP4 SUB DUP2 DUP7 GAS STATICCALL ISZERO DUP1 ISZERO PUSH2 0x55B JUMPI RETURNDATASIZE PUSH0 PUSH0 RETURNDATACOPY RETURNDATASIZE PUSH0 REVERT JUMPDEST POP POP POP POP PUSH1 0x40 MLOAD RETURNDATASIZE PUSH0 DUP3 RETURNDATACOPY RETURNDATASIZE PUSH1 0x1F NOT PUSH1 0x1F DUP3 ADD AND DUP3 ADD DUP1 PUSH1 0x40 MSTORE POP DUP2 ADD SWAP1 PUSH2 0x583 SWAP2 SWAP1 PUSH2 0x25C9 JUMP JUMPDEST SWAP2 POP SWAP2 POP PUSH2 0x592 DUP5 DUP4 DUP4 PUSH2 0x835 JUMP JUMPDEST SWAP3 POP POP POP SWAP2 SWAP1 POP JUMP JUMPDEST PUSH0 PUSH0 PUSH0 SWAP1 SLOAD SWAP1 PUSH2 0x100 EXP SWAP1 DIV PUSH20 0xFFFFFFFFFFFFFFFFFFFFFFFFFFFFFFFFFFFFFFFF AND PUSH20 0xFFFFFFFFFFFFFFFFFFFFFFFFFFFFFFFFFFFFFFFF AND PUSH4 0x8DA5CB5B PUSH1 0x40 MLOAD DUP2 PUSH4 0xFFFFFFFF AND PUSH1 0xE0 SHL DUP2 MSTORE PUSH1 0x4 ADD PUSH1 0x20 PUSH1 0x40 MLOAD DUP1 DUP4 SUB DUP2 DUP7 GAS STATICCALL ISZERO DUP1 ISZERO PUSH2 0x605 JUMPI RETURNDATASIZE PUSH0 PUSH0 RETURNDATACOPY RETURNDATASIZE PUSH0 REVERT JUMPDEST POP POP POP POP PUSH1 0x40 MLOAD RETURNDATASIZE PUSH1 0x1F NOT PUSH1 0x1F DUP3 ADD AND DUP3 ADD DUP1 PUSH1 0x40 MSTORE POP DUP2 ADD SWAP1 PUSH2 0x629 SWAP2 SWAP1 PUSH2 0x2695 JUMP JUMPDEST SWAP1 POP SWAP1 JUMP JUMPDEST PUSH0 PUSH0 SWAP1 SLOAD SWAP1 PUSH2 0x100 EXP SWAP1 DIV PUSH20 0xFFFFFFFFFFFFFFFFFFFFFFFFFFFFFFFFFFFFFFFF AND PUSH20 0xFFFFFFFFFFFFFFFFFFFFFFFFFFFFFFFFFFFFFFFF AND PUSH4 0x8DA5CB5B PUSH1 0x40 MLOAD DUP2 PUSH4 0xFFFFFFFF AND PUSH1 0xE0 SHL DUP2 MSTORE PUSH1 0x4 ADD PUSH1 0x20 PUSH1 0x40 MLOAD DUP1 DUP4 SUB DUP2 DUP7 GAS STATICCALL ISZERO DUP1 ISZERO PUSH2 0x697 JUMPI RETURNDATASIZE PUSH0 PUSH0 RETURNDATACOPY RETURNDATASIZE PUSH0 REVERT JUMPDEST POP POP POP POP PUSH1 0x40 MLOAD RETURNDATASIZE PUSH1 0x1F NOT PUSH1 0x1F DUP3 ADD AND DUP3 ADD DUP1 PUSH1 0x40 MSTORE POP DUP2 ADD SWAP1 PUSH2 0x6BB SWAP2 SWAP1 PUSH2 0x2695 JUMP JUMPDEST PUSH20 0xFFFFFFFFFFFFFFFFFFFFFFFFFFFFFFFFFFFFFFFF AND CALLER PUSH20 0xFFFFFFFFFFFFFFFFFFFFFFFFFFFFFFFFFFFFFFFF AND EQ PUSH2 0x728 JUMPI PUSH1 0x40 MLOAD PUSH32 0x8C379A000000000000000000000000000000000000000000000000000000000 DUP2 MSTORE PUSH1 0x4 ADD PUSH2 0x71F SWAP1 PUSH2 0x270A JUMP JUMPDEST PUSH1 0x40 MLOAD DUP1 SWAP2 SUB SWAP1 REVERT JUMPDEST PUSH2 0x731 DUP2 PUSH2 0xF78 JUMP JUMPDEST POP JUMP JUMPDEST PUSH1 0x60 PUSH0 PUSH0 PUSH0 PUSH0 PUSH2 0x742 PUSH2 0x7F1 JUMP JUMPDEST PUSH20 0xFFFFFFFFFFFFFFFFFFFFFFFFFFFFFFFFFFFFFFFF AND PUSH4 0x3088F069 DUP8 PUSH1 0x40 MLOAD DUP3 PUSH4 0xFFFFFFFF AND PUSH1 0xE0 SHL DUP2 MSTORE PUSH1 0x4 ADD PUSH2 0x77A SWAP2 SWAP1 PUSH2 0x1AA8 JUMP JUMPDEST PUSH0 PUSH1 0x40 MLOAD DUP1 DUP4 SUB DUP2 DUP7 GAS STATICCALL ISZERO DUP1 ISZERO PUSH2 0x794 JUMPI RETURNDATASIZE PUSH0 PUSH0 RETURNDATACOPY RETURNDATASIZE PUSH0 REVERT JUMPDEST POP POP POP POP PUSH1 0x40 MLOAD RETURNDATASIZE PUSH0 DUP3 RETURNDATACOPY RETURNDATASIZE PUSH1 0x1F NOT PUSH1 0x1F DUP3 ADD AND DUP3 ADD DUP1 PUSH1 0x40 MSTORE POP DUP2 ADD SWAP1 PUSH2 0x7BC SWAP2 SWAP1 PUSH2 0x25C9 JUMP JUMPDEST SWAP2 POP SWAP2 POP PUSH2 0x7CA DUP3 DUP3 PUSH2 0x1129 JUMP JUMPDEST SWAP5 POP SWAP5 POP SWAP5 POP POP POP SWAP2 SWAP4 SWAP1 SWAP3 POP JUMP JUMPDEST PUSH1 0x60 PUSH0 PUSH2 0x7E6 DUP5 DUP5 PUSH2 0xAB4 JUMP JUMPDEST SWAP2 POP SWAP2 POP SWAP3 POP SWAP3 SWAP1 POP JUMP JUMPDEST PUSH0 PUSH2 0x830 PUSH1 0x40 MLOAD DUP1 PUSH1 0x40 ADD PUSH1 0x40 MSTORE DUP1 PUSH1 0xB DUP2 MSTORE PUSH1 0x20 ADD PUSH32 0x6574662D666163746F7279000000000000000000000000000000000000000000 DUP2 MSTORE POP PUSH2 0x396 JUMP JUMPDEST SWAP1 POP SWAP1 JUMP JUMPDEST PUSH0 PUSH0 PUSH2 0x83F PUSH2 0x7F1 JUMP JUMPDEST PUSH20 0xFFFFFFFFFFFFFFFFFFFFFFFFFFFFFFFFFFFFFFFF AND PUSH4 0xF2018A1F DUP7 PUSH1 0x40 MLOAD DUP3 PUSH4 0xFFFFFFFF AND PUSH1 0xE0 SHL DUP2 MSTORE PUSH1 0x4 ADD PUSH2 0x877 SWAP2 SWAP1 PUSH2 0x1AA8 JUMP JUMPDEST PUSH1 0x20 PUSH1 0x40 MLOAD DUP1 DUP4 SUB DUP2 DUP7 GAS STATICCALL ISZERO DUP1 ISZERO PUSH2 0x892 JUMPI RETURNDATASIZE PUSH0 PUSH0 RETURNDATACOPY RETURNDATASIZE PUSH0 REVERT JUMPDEST POP POP POP POP PUSH1 0x40 MLOAD RETURNDATASIZE PUSH1 0x1F NOT PUSH1 0x1F DUP3 ADD AND DUP3 ADD DUP1 PUSH1 0x40 MSTORE POP DUP2 ADD SWAP1 PUSH2 0x8B6 SWAP2 SWAP1 PUSH2 0x2695 JUMP JUMPDEST SWAP1 POP PUSH0 DUP2 PUSH20 0xFFFFFFFFFFFFFFFFFFFFFFFFFFFFFFFFFFFFFFFF AND PUSH4 0x18160DDD PUSH1 0x40 MLOAD DUP2 PUSH4 0xFFFFFFFF AND PUSH1 0xE0 SHL DUP2 MSTORE PUSH1 0x4 ADD PUSH1 0x20 PUSH1 0x40 MLOAD DUP1 DUP4 SUB DUP2 DUP7 GAS STATICCALL ISZERO DUP1 ISZERO PUSH2 0x902 JUMPI RETURNDATASIZE PUSH0 PUSH0 RETURNDATACOPY RETURNDATASIZE PUSH0 REVERT JUMPDEST POP POP POP POP PUSH1 0x40 MLOAD RETURNDATASIZE PUSH1 0x1F NOT PUSH1 0x1F DUP3 ADD AND DUP3 ADD DUP1 PUSH1 0x40 MSTORE POP DUP2 ADD SWAP1 PUSH2 0x926 SWAP2 SWAP1 PUSH2 0x273C JUMP JUMPDEST SWAP1 POP PUSH0 DUP3 PUSH20 0xFFFFFFFFFFFFFFFFFFFFFFFFFFFFFFFFFFFFFFFF AND PUSH4 0x313CE567 PUSH1 0x40 MLOAD DUP2 PUSH4 0xFFFFFFFF AND PUSH1 0xE0 SHL DUP2 MSTORE PUSH1 0x4 ADD PUSH1 0x20 PUSH1 0x40 MLOAD DUP1 DUP4 SUB DUP2 DUP7 GAS STATICCALL ISZERO DUP1 ISZERO PUSH2 0x972 JUMPI RETURNDATASIZE PUSH0 PUSH0 RETURNDATACOPY RETURNDATASIZE PUSH0 REVERT JUMPDEST POP POP POP POP PUSH1 0x40 MLOAD RETURNDATASIZE PUSH1 0x1F NOT PUSH1 0x1F DUP3 ADD AND DUP3 ADD DUP1 PUSH1 0x40 MSTORE POP DUP2 ADD SWAP1 PUSH2 0x996 SWAP2 SWAP1 PUSH2 0x2791 JUMP JUMPDEST SWAP1 POP PUSH0 DUP3 SUB PUSH2 0x9B2 JUMPI PUSH2 0x9A8 DUP7 PUSH2 0x133D JUMP JUMPDEST SWAP4 POP POP POP POP PUSH2 0x9FA JUMP JUMPDEST PUSH0 PUSH2 0x9BD DUP4 DUP4 PUSH2 0x1472 JUMP JUMPDEST SWAP1 POP PUSH0 DUP2 SUB PUSH2 0x9D2 JUMPI PUSH0 SWAP5 POP POP POP POP POP PUSH2 0x9FA JUMP JUMPDEST PUSH0 PUSH2 0x9DD DUP9 DUP9 PUSH2 0x14DD JUMP JUMPDEST SWAP1 POP PUSH2 0x9F2 DUP2 PUSH8 0xDE0B6B3A7640000 DUP5 PUSH2 0x16D7 JUMP JUMPDEST SWAP6 POP POP POP POP POP POP JUMPDEST SWAP4 SWAP3 POP POP POP JUMP JUMPDEST PUSH0 PUSH0 DUP3 SUB PUSH2 0xA11 JUMPI PUSH0 SWAP1 POP PUSH2 0xAAF JUMP JUMPDEST PUSH0 PUSH2 0xA1A PUSH2 0x17E1 JUMP JUMPDEST PUSH20 0xFFFFFFFFFFFFFFFFFFFFFFFFFFFFFFFFFFFFFFFF AND PUSH4 0x6855E939 PUSH1 0x40 MLOAD DUP2 PUSH4 0xFFFFFFFF AND PUSH1 0xE0 SHL DUP2 MSTORE PUSH1 0x4 ADD PUSH1 0x20 PUSH1 0x40 MLOAD DUP1 DUP4 SUB DUP2 DUP7 GAS STATICCALL ISZERO DUP1 ISZERO PUSH2 0xA62 JUMPI RETURNDATASIZE PUSH0 PUSH0 RETURNDATACOPY RETURNDATASIZE PUSH0 REVERT JUMPDEST POP POP POP POP PUSH1 0x40 MLOAD RETURNDATASIZE PUSH1 0x1F NOT PUSH1 0x1F DUP3 ADD AND DUP3 ADD DUP1 PUSH1 0x40 MSTORE POP DUP2 ADD SWAP1 PUSH2 0xA86 SWAP2 SWAP1 PUSH2 0x273C JUMP JUMPDEST SWAP1 POP PUSH0 DUP2 SUB PUSH2 0xA98 JUMPI PUSH0 SWAP2 POP POP PUSH2 0xAAF JUMP JUMPDEST PUSH2 0xAAB DUP4 DUP3 PUSH8 0xDE0B6B3A7640000 PUSH2 0x16D7 JUMP JUMPDEST SWAP2 POP POP JUMPDEST SWAP2 SWAP1 POP JUMP JUMPDEST PUSH1 0x60 PUSH0 PUSH0 DUP5 PUSH1 0x40 ADD MLOAD MLOAD SWAP1 POP DUP1 PUSH8 0xFFFFFFFFFFFFFFFF DUP2 GT ISZERO PUSH2 0xADA JUMPI PUSH2 0xAD9 PUSH2 0x1CAD JUMP JUMPDEST JUMPDEST PUSH1 0x40 MLOAD SWAP1 DUP1 DUP3 MSTORE DUP1 PUSH1 0x20 MUL PUSH1 0x20 ADD DUP3 ADD PUSH1 0x40 MSTORE DUP1 ISZERO PUSH2 0xB13 JUMPI DUP2 PUSH1 0x20 ADD JUMPDEST PUSH2 0xB00 PUSH2 0x196B JUMP JUMPDEST DUP2 MSTORE PUSH1 0x20 ADD SWAP1 PUSH1 0x1 SWAP1 SUB SWAP1 DUP2 PUSH2 0xAF8 JUMPI SWAP1 POP JUMPDEST POP SWAP3 POP PUSH0 PUSH2 0xB1F PUSH2 0x17E1 JUMP JUMPDEST SWAP1 POP PUSH0 PUSH0 SWAP1 POP JUMPDEST DUP3 DUP2 LT ISZERO PUSH2 0xD62 JUMPI PUSH0 DUP8 PUSH1 0x40 ADD MLOAD DUP3 DUP2 MLOAD DUP2 LT PUSH2 0xB46 JUMPI PUSH2 0xB45 PUSH2 0x27BC JUMP JUMPDEST JUMPDEST PUSH1 0x20 MUL PUSH1 0x20 ADD ADD MLOAD PUSH0 ADD MLOAD SWAP1 POP PUSH0 DUP2 PUSH20 0xFFFFFFFFFFFFFFFFFFFFFFFFFFFFFFFFFFFFFFFF AND PUSH4 0x313CE567 PUSH1 0x40 MLOAD DUP2 PUSH4 0xFFFFFFFF AND PUSH1 0xE0 SHL DUP2 MSTORE PUSH1 0x4 ADD PUSH1 0x20 PUSH1 0x40 MLOAD DUP1 DUP4 SUB DUP2 DUP7 GAS STATICCALL ISZERO DUP1 ISZERO PUSH2 0xB9D JUMPI RETURNDATASIZE PUSH0 PUSH0 RETURNDATACOPY RETURNDATASIZE PUSH0 REVERT JUMPDEST POP POP POP POP PUSH1 0x40 MLOAD RETURNDATASIZE PUSH1 0x1F NOT PUSH1 0x1F DUP3 ADD AND DUP3 ADD DUP1 PUSH1 0x40 MSTORE POP DUP2 ADD SWAP1 PUSH2 0xBC1 SWAP2 SWAP1 PUSH2 0x2791 JUMP JUMPDEST SWAP1 POP PUSH0 DUP3 PUSH20 0xFFFFFFFFFFFFFFFFFFFFFFFFFFFFFFFFFFFFFFFF AND PUSH4 0x70A08231 DUP11 PUSH1 0x40 MLOAD DUP3 PUSH4 0xFFFFFFFF AND PUSH1 0xE0 SHL DUP2 MSTORE PUSH1 0x4 ADD PUSH2 0xBFD SWAP2 SWAP1 PUSH2 0x1E27 JUMP JUMPDEST PUSH1 0x20 PUSH1 0x40 MLOAD DUP1 DUP4 SUB DUP2 DUP7 GAS STATICCALL ISZERO DUP1 ISZERO PUSH2 0xC18 JUMPI RETURNDATASIZE PUSH0 PUSH0 RETURNDATACOPY RETURNDATASIZE PUSH0 REVERT JUMPDEST POP POP POP POP PUSH1 0x40 MLOAD RETURNDATASIZE PUSH1 0x1F NOT PUSH1 0x1F DUP3 ADD AND DUP3 ADD DUP1 PUSH1 0x40 MSTORE POP DUP2 ADD SWAP1 PUSH2 0xC3C SWAP2 SWAP1 PUSH2 0x273C JUMP JUMPDEST SWAP1 POP PUSH0 DUP6 PUSH20 0xFFFFFFFFFFFFFFFFFFFFFFFFFFFFFFFFFFFFFFFF AND PUSH4 0x7B49B49D DUP6 PUSH1 0x40 MLOAD DUP3 PUSH4 0xFFFFFFFF AND PUSH1 0xE0 SHL DUP2 MSTORE PUSH1 0x4 ADD PUSH2 0xC78 SWAP2 SWAP1 PUSH2 0x1E27 JUMP JUMPDEST PUSH1 0x20 PUSH1 0x40 MLOAD DUP1 DUP4 SUB DUP2 DUP7 GAS STATICCALL ISZERO DUP1 ISZERO PUSH2 0xC93 JUMPI RETURNDATASIZE PUSH0 PUSH0 RETURNDATACOPY RETURNDATASIZE PUSH0 REVERT JUMPDEST POP POP POP POP PUSH1 0x40 MLOAD RETURNDATASIZE PUSH1 0x1F NOT PUSH1 0x1F DUP3 ADD AND DUP3 ADD DUP1 PUSH1 0x40 MSTORE POP DUP2 ADD SWAP1 PUSH2 0xCB7 SWAP2 SWAP1 PUSH2 0x273C JUMP JUMPDEST SWAP1 POP PUSH0 PUSH0 DUP4 EQ DUP1 PUSH2 0xCC7 JUMPI POP PUSH0 DUP3 EQ JUMPDEST PUSH2 0xCE1 JUMPI PUSH2 0xCDC DUP4 DUP4 DUP7 PUSH1 0xFF AND PUSH1 0xA EXP PUSH2 0x16D7 JUMP JUMPDEST PUSH2 0xCE3 JUMP JUMPDEST PUSH0 JUMPDEST SWAP1 POP PUSH1 0x40 MLOAD DUP1 PUSH1 0xC0 ADD PUSH1 0x40 MSTORE DUP1 DUP7 PUSH20 0xFFFFFFFFFFFFFFFFFFFFFFFFFFFFFFFFFFFFFFFF AND DUP2 MSTORE PUSH1 0x20 ADD DUP6 PUSH1 0xFF AND DUP2 MSTORE PUSH1 0x20 ADD PUSH0 PUSH2 0xFFFF AND DUP2 MSTORE PUSH1 0x20 ADD DUP5 DUP2 MSTORE PUSH1 0x20 ADD DUP4 DUP2 MSTORE PUSH1 0x20 ADD DUP3 DUP2 MSTORE POP DUP11 DUP8 DUP2 MLOAD DUP2 LT PUSH2 0xD42 JUMPI PUSH2 0xD41 PUSH2 0x27BC JUMP JUMPDEST JUMPDEST PUSH1 0x20 MUL PUSH1 0x20 ADD ADD DUP2 SWAP1 MSTORE POP DUP1 DUP10 ADD SWAP9 POP POP POP POP POP POP DUP1 PUSH1 0x1 ADD SWAP1 POP PUSH2 0xB26 JUMP JUMPDEST POP PUSH0 DUP4 GT ISZERO PUSH2 0xDE5 JUMPI PUSH0 PUSH0 SWAP1 POP JUMPDEST DUP3 DUP2 LT ISZERO PUSH2 0xDE3 JUMPI DUP4 PUSH2 0x2710 DUP7 DUP4 DUP2 MLOAD DUP2 LT PUSH2 0xD8F JUMPI PUSH2 0xD8E PUSH2 0x27BC JUMP JUMPDEST JUMPDEST PUSH1 0x20 MUL PUSH1 0x20 ADD ADD MLOAD PUSH1 0xA0 ADD MLOAD MUL DUP2 PUSH2 0xDAA JUMPI PUSH2 0xDA9 PUSH2 0x27E9 JUMP JUMPDEST JUMPDEST DIV DUP6 DUP3 DUP2 MLOAD DUP2 LT PUSH2 0xDBE JUMPI PUSH2 0xDBD PUSH2 0x27BC JUMP JUMPDEST JUMPDEST PUSH1 0x20 MUL PUSH1 0x20 ADD ADD MLOAD PUSH1 0x40 ADD SWAP1 PUSH2 0xFFFF AND SWAP1 DUP2 PUSH2 0xFFFF AND DUP2 MSTORE POP POP DUP1 PUSH1 0x1 ADD SWAP1 POP PUSH2 0xD70 JUMP JUMPDEST POP JUMPDEST POP POP SWAP3 POP SWAP3 SWAP1 POP JUMP JUMPDEST PUSH2 0xDF6 PUSH2 0x192C JUMP JUMPDEST PUSH0 PUSH2 0xDFF PUSH2 0x17E1 JUMP JUMPDEST SWAP1 POP PUSH0 PUSH2 0xE0D DUP7 DUP7 DUP7 PUSH2 0x835 JUMP JUMPDEST SWAP1 POP PUSH0 PUSH2 0xE19 DUP3 PUSH2 0xA01 JUMP JUMPDEST SWAP1 POP PUSH1 0x40 MLOAD DUP1 PUSH1 0x40 ADD PUSH1 0x40 MSTORE DUP1 DUP4 DUP2 MSTORE PUSH1 0x20 ADD DUP3 DUP2 MSTORE POP DUP5 PUSH0 ADD DUP2 SWAP1 MSTORE POP PUSH0 PUSH0 PUSH2 0xE41 PUSH2 0x7F1 JUMP JUMPDEST PUSH20 0xFFFFFFFFFFFFFFFFFFFFFFFFFFFFFFFFFFFFFFFF AND PUSH4 0xC45F0607 DUP11 PUSH1 0x40 MLOAD DUP3 PUSH4 0xFFFFFFFF AND PUSH1 0xE0 SHL DUP2 MSTORE PUSH1 0x4 ADD PUSH2 0xE79 SWAP2 SWAP1 PUSH2 0x1AA8 JUMP JUMPDEST PUSH1 0x40 DUP1 MLOAD DUP1 DUP4 SUB DUP2 DUP7 GAS STATICCALL ISZERO DUP1 ISZERO PUSH2 0xE93 JUMPI RETURNDATASIZE PUSH0 PUSH0 RETURNDATACOPY RETURNDATASIZE PUSH0 REVERT JUMPDEST POP POP POP POP PUSH1 0x40 MLOAD RETURNDATASIZE PUSH1 0x1F NOT PUSH1 0x1F DUP3 ADD AND DUP3 ADD DUP1 PUSH1 0x40 MSTORE POP DUP2 ADD SWAP1 PUSH2 0xEB7 SWAP2 SWAP1 PUSH2 0x2816 JUMP JUMPDEST SWAP2 POP SWAP2 POP PUSH1 0x40 MLOAD DUP1 PUSH1 0x40 ADD PUSH1 0x40 MSTORE DUP1 DUP4 DUP2 MSTORE PUSH1 0x20 ADD DUP3 DUP2 MSTORE POP DUP7 PUSH1 0x20 ADD DUP2 SWAP1 MSTORE POP PUSH0 PUSH2 0xEE3 DUP10 DUP10 PUSH2 0x14DD JUMP JUMPDEST SWAP1 POP PUSH0 PUSH2 0xEEF DUP3 PUSH2 0xA01 JUMP JUMPDEST SWAP1 POP PUSH1 0x40 MLOAD DUP1 PUSH1 0x40 ADD PUSH1 0x40 MSTORE DUP1 DUP4 DUP2 MSTORE PUSH1 0x20 ADD DUP3 DUP2 MSTORE POP DUP9 PUSH1 0x40 ADD DUP2 SWAP1 MSTORE POP PUSH2 0xF33 DUP11 DUP9 PUSH20 0xFFFFFFFFFFFFFFFFFFFFFFFFFFFFFFFFFFFFFFFF AND PUSH4 0x57B6C133 PUSH2 0x1825 JUMP JUMPDEST DUP9 PUSH1 0x60 ADD DUP2 DUP2 MSTORE POP POP PUSH2 0xF61 DUP11 DUP9 PUSH20 0xFFFFFFFFFFFFFFFFFFFFFFFFFFFFFFFFFFFFFFFF AND PUSH4 0x57B6C133 PUSH2 0x1825 JUMP JUMPDEST DUP9 PUSH1 0x80 ADD DUP2 DUP2 MSTORE POP POP POP POP POP POP POP POP POP SWAP4 SWAP3 POP POP POP JUMP JUMPDEST PUSH0 PUSH20 0xFFFFFFFFFFFFFFFFFFFFFFFFFFFFFFFFFFFFFFFF AND DUP2 PUSH20 0xFFFFFFFFFFFFFFFFFFFFFFFFFFFFFFFFFFFFFFFF AND SUB PUSH2 0xFE6 JUMPI PUSH1 0x40 MLOAD PUSH32 0x8C379A000000000000000000000000000000000000000000000000000000000 DUP2 MSTORE PUSH1 0x4 ADD PUSH2 0xFDD SWAP1 PUSH2 0x289E JUMP JUMPDEST PUSH1 0x40 MLOAD DUP1 SWAP2 SUB SWAP1 REVERT JUMPDEST PUSH0 DUP2 PUSH20 0xFFFFFFFFFFFFFFFFFFFFFFFFFFFFFFFFFFFFFFFF AND EXTCODESIZE GT PUSH2 0x103F JUMPI PUSH1 0x40 MLOAD PUSH32 0x8C379A000000000000000000000000000000000000000000000000000000000 DUP2 MSTORE PUSH1 0x4 ADD PUSH2 0x1036 SWAP1 PUSH2 0x2906 JUMP JUMPDEST PUSH1 0x40 MLOAD DUP1 SWAP2 SUB SWAP1 REVERT JUMPDEST DUP1 PUSH20 0xFFFFFFFFFFFFFFFFFFFFFFFFFFFFFFFFFFFFFFFF AND PUSH4 0x8DA5CB5B PUSH1 0x40 MLOAD DUP2 PUSH4 0xFFFFFFFF AND PUSH1 0xE0 SHL DUP2 MSTORE PUSH1 0x4 ADD PUSH1 0x20 PUSH1 0x40 MLOAD DUP1 DUP4 SUB DUP2 DUP7 GAS STATICCALL SWAP3 POP POP POP DUP1 ISZERO PUSH2 0x10A7 JUMPI POP PUSH1 0x40 MLOAD RETURNDATASIZE PUSH1 0x1F NOT PUSH1 0x1F DUP3 ADD AND DUP3 ADD DUP1 PUSH1 0x40 MSTORE POP DUP2 ADD SWAP1 PUSH2 0x10A4 SWAP2 SWAP1 PUSH2 0x2695 JUMP JUMPDEST PUSH1 0x1 JUMPDEST PUSH2 0x10E6 JUMPI PUSH1 0x40 MLOAD PUSH32 0x8C379A000000000000000000000000000000000000000000000000000000000 DUP2 MSTORE PUSH1 0x4 ADD PUSH2 0x10DD SWAP1 PUSH2 0x2994 JUMP JUMPDEST PUSH1 0x40 MLOAD DUP1 SWAP2 SUB SWAP1 REVERT JUMPDEST DUP2 PUSH0 PUSH0 PUSH2 0x100 EXP DUP2 SLOAD DUP2 PUSH20 0xFFFFFFFFFFFFFFFFFFFFFFFFFFFFFFFFFFFFFFFF MUL NOT AND SWAP1 DUP4 PUSH20 0xFFFFFFFFFFFFFFFFFFFFFFFFFFFFFFFFFFFFFFFF AND MUL OR SWAP1 SSTORE POP POP POP JUMP JUMPDEST PUSH1 0x60 PUSH0 PUSH0 PUSH0 PUSH0 PUSH2 0x1139 DUP8 DUP8 PUSH2 0xAB4 JUMP JUMPDEST SWAP2 POP SWAP2 POP DUP1 SWAP4 POP PUSH2 0x1149 DUP2 PUSH2 0xA01 JUMP JUMPDEST SWAP3 POP PUSH0 DUP3 MLOAD SWAP1 POP DUP1 PUSH8 0xFFFFFFFFFFFFFFFF DUP2 GT ISZERO PUSH2 0x116A JUMPI PUSH2 0x1169 PUSH2 0x1CAD JUMP JUMPDEST JUMPDEST PUSH1 0x40 MLOAD SWAP1 DUP1 DUP3 MSTORE DUP1 PUSH1 0x20 MUL PUSH1 0x20 ADD DUP3 ADD PUSH1 0x40 MSTORE DUP1 ISZERO PUSH2 0x11A3 JUMPI DUP2 PUSH1 0x20 ADD JUMPDEST PUSH2 0x1190 PUSH2 0x19B8 JUMP JUMPDEST DUP2 MSTORE PUSH1 0x20 ADD SWAP1 PUSH1 0x1 SWAP1 SUB SWAP1 DUP2 PUSH2 0x1188 JUMPI SWAP1 POP JUMPDEST POP SWAP6 POP PUSH0 PUSH0 SWAP1 POP JUMPDEST DUP2 DUP2 LT ISZERO PUSH2 0x1332 JUMPI PUSH1 0x40 MLOAD DUP1 PUSH2 0x100 ADD PUSH1 0x40 MSTORE DUP1 DUP6 DUP4 DUP2 MLOAD DUP2 LT PUSH2 0x11D2 JUMPI PUSH2 0x11D1 PUSH2 0x27BC JUMP JUMPDEST JUMPDEST PUSH1 0x20 MUL PUSH1 0x20 ADD ADD MLOAD PUSH0 ADD MLOAD PUSH20 0xFFFFFFFFFFFFFFFFFFFFFFFFFFFFFFFFFFFFFFFF AND DUP2 MSTORE PUSH1 0x20 ADD DUP6 DUP4 DUP2 MLOAD DUP2 LT PUSH2 0x120B JUMPI PUSH2 0x120A PUSH2 0x27BC JUMP JUMPDEST JUMPDEST PUSH1 0x20 MUL PUSH1 0x20 ADD ADD MLOAD PUSH1 0x20 ADD MLOAD PUSH1 0xFF AND DUP2 MSTORE PUSH1 0x20 ADD DUP6 DUP4 DUP2 MLOAD DUP2 LT PUSH2 0x1232 JUMPI PUSH2 0x1231 PUSH2 0x27BC JUMP JUMPDEST JUMPDEST PUSH1 0x20 MUL PUSH1 0x20 ADD ADD MLOAD PUSH1 0x40 ADD MLOAD PUSH2 0xFFFF AND DUP2 MSTORE PUSH1 0x20 ADD DUP6 DUP4 DUP2 MLOAD DUP2 LT PUSH2 0x125A JUMPI PUSH2 0x1259 PUSH2 0x27BC JUMP JUMPDEST JUMPDEST PUSH1 0x20 MUL PUSH1 0x20 ADD ADD MLOAD PUSH1 0x60 ADD MLOAD DUP2 MSTORE PUSH1 0x20 ADD DUP6 DUP4 DUP2 MLOAD DUP2 LT PUSH2 0x127E JUMPI PUSH2 0x127D PUSH2 0x27BC JUMP JUMPDEST JUMPDEST PUSH1 0x20 MUL PUSH1 0x20 ADD ADD MLOAD PUSH1 0x80 ADD MLOAD DUP2 MSTORE PUSH1 0x20 ADD PUSH2 0x12B6 DUP7 DUP5 DUP2 MLOAD DUP2 LT PUSH2 0x12A5 JUMPI PUSH2 0x12A4 PUSH2 0x27BC JUMP JUMPDEST JUMPDEST PUSH1 0x20 MUL PUSH1 0x20 ADD ADD MLOAD PUSH1 0x80 ADD MLOAD PUSH2 0xA01 JUMP JUMPDEST DUP2 MSTORE PUSH1 0x20 ADD DUP6 DUP4 DUP2 MLOAD DUP2 LT PUSH2 0x12CE JUMPI PUSH2 0x12CD PUSH2 0x27BC JUMP JUMPDEST JUMPDEST PUSH1 0x20 MUL PUSH1 0x20 ADD ADD MLOAD PUSH1 0xA0 ADD MLOAD DUP2 MSTORE PUSH1 0x20 ADD PUSH2 0x1306 DUP7 DUP5 DUP2 MLOAD DUP2 LT PUSH2 0x12F5 JUMPI PUSH2 0x12F4 PUSH2 0x27BC JUMP JUMPDEST JUMPDEST PUSH1 0x20 MUL PUSH1 0x20 ADD ADD MLOAD PUSH1 0xA0 ADD MLOAD PUSH2 0xA01 JUMP JUMPDEST DUP2 MSTORE POP DUP8 DUP3 DUP2 MLOAD DUP2 LT PUSH2 0x131C JUMPI PUSH2 0x131B PUSH2 0x27BC JUMP JUMPDEST JUMPDEST PUSH1 0x20 MUL PUSH1 0x20 ADD ADD DUP2 SWAP1 MSTORE POP DUP1 PUSH1 0x1 ADD SWAP1 POP PUSH2 0x11AB JUMP JUMPDEST POP POP POP POP SWAP3 POP SWAP3 POP SWAP3 JUMP JUMPDEST PUSH0 PUSH0 PUSH0 PUSH2 0x1348 PUSH2 0x17E1 JUMP JUMPDEST SWAP1 POP PUSH0 PUSH0 SWAP1 POP JUMPDEST DUP5 PUSH1 0x40 ADD MLOAD MLOAD DUP2 LT ISZERO PUSH2 0x145A JUMPI PUSH0 DUP6 PUSH1 0x40 ADD MLOAD DUP3 DUP2 MLOAD DUP2 LT PUSH2 0x1374 JUMPI PUSH2 0x1373 PUSH2 0x27BC JUMP JUMPDEST JUMPDEST PUSH1 0x20 MUL PUSH1 0x20 ADD ADD MLOAD PUSH0 ADD MLOAD SWAP1 POP PUSH0 DUP7 PUSH1 0x40 ADD MLOAD DUP4 DUP2 MLOAD DUP2 LT PUSH2 0x1399 JUMPI PUSH2 0x1398 PUSH2 0x27BC JUMP JUMPDEST JUMPDEST PUSH1 0x20 MUL PUSH1 0x20 ADD ADD MLOAD PUSH1 0x20 ADD MLOAD SWAP1 POP PUSH0 DUP5 PUSH20 0xFFFFFFFFFFFFFFFFFFFFFFFFFFFFFFFFFFFFFFFF AND PUSH4 0x7B49B49D DUP5 PUSH1 0x40 MLOAD DUP3 PUSH4 0xFFFFFFFF AND PUSH1 0xE0 SHL DUP2 MSTORE PUSH1 0x4 ADD PUSH2 0x13E1 SWAP2 SWAP1 PUSH2 0x1E27 JUMP JUMPDEST PUSH1 0x20 PUSH1 0x40 MLOAD DUP1 DUP4 SUB DUP2 DUP7 GAS STATICCALL ISZERO DUP1 ISZERO PUSH2 0x13FC JUMPI RETURNDATASIZE PUSH0 PUSH0 RETURNDATACOPY RETURNDATASIZE PUSH0 REVERT JUMPDEST POP POP POP POP PUSH1 0x40 MLOAD RETURNDATASIZE PUSH1 0x1F NOT PUSH1 0x1F DUP3 ADD AND DUP3 ADD DUP1 PUSH1 0x40 MSTORE POP DUP2 ADD SWAP1 PUSH2 0x1420 SWAP2 SWAP1 PUSH2 0x273C JUMP JUMPDEST SWAP1 POP PUSH0 DUP2 EQ DUP1 PUSH2 0x1433 JUMPI POP PUSH0 DUP3 PUSH2 0xFFFF AND EQ JUMPDEST ISZERO PUSH2 0x1440 JUMPI POP POP POP PUSH2 0x144F JUMP JUMPDEST DUP1 DUP3 PUSH2 0xFFFF AND MUL DUP7 ADD SWAP6 POP POP POP POP JUMPDEST DUP1 PUSH1 0x1 ADD SWAP1 POP PUSH2 0x134F JUMP JUMPDEST POP PUSH2 0x2710 DUP3 PUSH2 0x1469 SWAP2 SWAP1 PUSH2 0x29DF JUMP JUMPDEST SWAP3 POP POP POP SWAP2 SWAP1 POP JUMP JUMPDEST PUSH0 PUSH1 0x12 DUP3 PUSH1 0xFF AND SUB PUSH2 0x1486 JUMPI DUP3 SWAP1 POP PUSH2 0x14D7 JUMP JUMPDEST PUSH1 0x12 DUP3 PUSH1 0xFF AND LT ISZERO PUSH2 0x14B4 JUMPI PUSH2 0x14AD DUP4 PUSH8 0xDE0B6B3A7640000 PUSH2 0x14A8 DUP6 PUSH2 0x18D6 JUMP JUMPDEST PUSH2 0x16D7 JUMP JUMPDEST SWAP1 POP PUSH2 0x14D7 JUMP JUMPDEST PUSH2 0x14C9 PUSH1 0x12 DUP4 PUSH2 0x14C4 SWAP2 SWAP1 PUSH2 0x2A0F JUMP JUMPDEST PUSH2 0x18D6 JUMP JUMPDEST DUP4 PUSH2 0x14D4 SWAP2 SWAP1 PUSH2 0x29DF JUMP JUMPDEST SWAP1 POP JUMPDEST SWAP3 SWAP2 POP POP JUMP JUMPDEST PUSH0 PUSH0 PUSH2 0x14E7 PUSH2 0x17E1 JUMP JUMPDEST SWAP1 POP PUSH0 PUSH0 SWAP1 POP JUMPDEST DUP5 PUSH1 0x40 ADD MLOAD MLOAD DUP2 LT ISZERO PUSH2 0x16CF JUMPI PUSH0 DUP6 PUSH1 0x40 ADD MLOAD DUP3 DUP2 MLOAD DUP2 LT PUSH2 0x1513 JUMPI PUSH2 0x1512 PUSH2 0x27BC JUMP JUMPDEST JUMPDEST PUSH1 0x20 MUL PUSH1 0x20 ADD ADD MLOAD PUSH0 ADD MLOAD SWAP1 POP PUSH0 DUP2 PUSH20 0xFFFFFFFFFFFFFFFFFFFFFFFFFFFFFFFFFFFFFFFF AND PUSH4 0x70A08231 DUP8 PUSH1 0x40 MLOAD DUP3 PUSH4 0xFFFFFFFF AND PUSH1 0xE0 SHL DUP2 MSTORE PUSH1 0x4 ADD PUSH2 0x155A SWAP2 SWAP1 PUSH2 0x1E27 JUMP JUMPDEST PUSH1 0x20 PUSH1 0x40 MLOAD DUP1 DUP4 SUB DUP2 DUP7 GAS STATICCALL ISZERO DUP1 ISZERO PUSH2 0x1575 JUMPI RETURNDATASIZE PUSH0 PUSH0 RETURNDATACOPY RETURNDATASIZE PUSH0 REVERT JUMPDEST POP POP POP POP PUSH1 0x40 MLOAD RETURNDATASIZE PUSH1 0x1F NOT PUSH1 0x1F DUP3 ADD AND DUP3 ADD DUP1 PUSH1 0x40 MSTORE POP DUP2 ADD SWAP1 PUSH2 0x1599 SWAP2 SWAP1 PUSH2 0x273C JUMP JUMPDEST SWAP1 POP PUSH0 DUP2 SUB PUSH2 0x15A9 JUMPI POP POP PUSH2 0x16C4 JUMP JUMPDEST PUSH0 DUP5 PUSH20 0xFFFFFFFFFFFFFFFFFFFFFFFFFFFFFFFFFFFFFFFF AND PUSH4 0x7B49B49D DUP5 PUSH1 0x40 MLOAD DUP3 PUSH4 0xFFFFFFFF AND PUSH1 0xE0 SHL DUP2 MSTORE PUSH1 0x4 ADD PUSH2 0x15E3 SWAP2 SWAP1 PUSH2 0x1E27 JUMP JUMPDEST PUSH1 0x20 PUSH1 0x40 MLOAD DUP1 DUP4 SUB DUP2 DUP7 GAS STATICCALL ISZERO DUP1 ISZERO PUSH2 0x15FE JUMPI RETURNDATASIZE PUSH0 PUSH0 RETURNDATACOPY RETURNDATASIZE PUSH0 REVERT JUMPDEST POP POP POP POP PUSH1 0x40 MLOAD RETURNDATASIZE PUSH1 0x1F NOT PUSH1 0x1F DUP3 ADD AND DUP3 ADD DUP1 PUSH1 0x40 MSTORE POP DUP2 ADD SWAP1 PUSH2 0x1622 SWAP2 SWAP1 PUSH2 0x273C JUMP JUMPDEST SWAP1 POP PUSH0 DUP2 SUB PUSH2 0x1633 JUMPI POP POP POP PUSH2 0x16C4 JUMP JUMPDEST PUSH0 DUP4 PUSH20 0xFFFFFFFFFFFFFFFFFFFFFFFFFFFFFFFFFFFFFFFF AND PUSH4 0x313CE567 PUSH1 0x40 MLOAD DUP2 PUSH4 0xFFFFFFFF AND PUSH1 0xE0 SHL DUP2 MSTORE PUSH1 0x4 ADD PUSH1 0x20 PUSH1 0x40 MLOAD DUP1 DUP4 SUB DUP2 DUP7 GAS STATICCALL ISZERO DUP1 ISZERO PUSH2 0x167D JUMPI RETURNDATASIZE PUSH0 PUSH0 RETURNDATACOPY RETURNDATASIZE PUSH0 REVERT JUMPDEST POP POP POP POP PUSH1 0x40 MLOAD RETURNDATASIZE PUSH1 0x1F NOT PUSH1 0x1F DUP3 ADD AND DUP3 ADD DUP1 PUSH1 0x40 MSTORE POP DUP2 ADD SWAP1 PUSH2 0x16A1 SWAP2 SWAP1 PUSH2 0x2791 JUMP JUMPDEST SWAP1 POP PUSH0 PUSH2 0x16AD DUP3 PUSH2 0x18D6 JUMP JUMPDEST SWAP1 POP PUSH2 0x16BA DUP5 DUP5 DUP4 PUSH2 0x16D7 JUMP JUMPDEST DUP9 ADD SWAP8 POP POP POP POP POP POP JUMPDEST DUP1 PUSH1 0x1 ADD SWAP1 POP PUSH2 0x14EE JUMP JUMPDEST POP POP SWAP3 SWAP2 POP POP JUMP JUMPDEST PUSH0 PUSH0 PUSH0 PUSH0 NOT DUP6 DUP8 MULMOD DUP6 DUP8 MUL SWAP3 POP DUP3 DUP2 LT DUP4 DUP3 SUB SUB SWAP2 POP POP PUSH0 DUP2 SUB PUSH2 0x170F JUMPI DUP4 DUP3 DUP2 PUSH2 0x1705 JUMPI PUSH2 0x1704 PUSH2 0x27E9 JUMP JUMPDEST JUMPDEST DIV SWAP3 POP POP POP PUSH2 0x17DA JUMP JUMPDEST DUP1 DUP5 GT PUSH2 0x1751 JUMPI PUSH1 0x40 MLOAD PUSH32 0x8C379A000000000000000000000000000000000000000000000000000000000 DUP2 MSTORE PUSH1 0x4 ADD PUSH2 0x1748 SWAP1 PUSH2 0x2A8D JUMP JUMPDEST PUSH1 0x40 MLOAD DUP1 SWAP2 SUB SWAP1 REVERT JUMPDEST PUSH0 DUP5 DUP7 DUP9 MULMOD SWAP1 POP DUP3 DUP2 GT DUP3 SUB SWAP2 POP DUP1 DUP4 SUB SWAP3 POP PUSH0 PUSH1 0x1 DUP7 NOT ADD DUP7 AND SWAP1 POP DUP1 DUP7 DIV SWAP6 POP DUP1 DUP5 DIV SWAP4 POP PUSH1 0x1 DUP2 DUP3 PUSH0 SUB DIV ADD SWAP1 POP DUP1 DUP4 MUL DUP5 OR SWAP4 POP PUSH0 PUSH1 0x2 DUP8 PUSH1 0x3 MUL XOR SWAP1 POP DUP1 DUP8 MUL PUSH1 0x2 SUB DUP2 MUL SWAP1 POP DUP1 DUP8 MUL PUSH1 0x2 SUB DUP2 MUL SWAP1 POP DUP1 DUP8 MUL PUSH1 0x2 SUB DUP2 MUL SWAP1 POP DUP1 DUP8 MUL PUSH1 0x2 SUB DUP2 MUL SWAP1 POP DUP1 DUP8 MUL PUSH1 0x2 SUB DUP2 MUL SWAP1 POP DUP1 DUP8 MUL PUSH1 0x2 SUB DUP2 MUL SWAP1 POP DUP1 DUP6 MUL SWAP6 POP POP POP POP POP POP JUMPDEST SWAP4 SWAP3 POP POP POP JUMP JUMPDEST PUSH0 PUSH2 0x1820 PUSH1 0x40 MLOAD DUP1 PUSH1 0x40 ADD PUSH1 0x40 MSTORE DUP1 PUSH1 0xE DUP2 MSTORE PUSH1 0x20 ADD PUSH32 0x756E69737761702D6F7261636C65000000000000000000000000000000000000 DUP2 MSTORE POP PUSH2 0x396 JUMP JUMPDEST SWAP1 POP SWAP1 JUMP JUMPDEST PUSH0 PUSH0 PUSH0 SWAP1 POP JUMPDEST DUP5 PUSH1 0x40 ADD MLOAD MLOAD DUP2 LT ISZERO PUSH2 0x18CE JUMPI PUSH0 DUP6 PUSH1 0x40 ADD MLOAD DUP3 DUP2 MLOAD DUP2 LT PUSH2 0x1850 JUMPI PUSH2 0x184F PUSH2 0x27BC JUMP JUMPDEST JUMPDEST PUSH1 0x20 MUL PUSH1 0x20 ADD ADD MLOAD PUSH0 ADD MLOAD SWAP1 POP DUP5 DUP5 DUP3 PUSH1 0x40 MLOAD DUP3 PUSH4 0xFFFFFFFF AND PUSH1 0xE0 SHL DUP2 MSTORE PUSH1 0x4 ADD PUSH2 0x187C SWAP2 SWAP1 PUSH2 0x1E27 JUMP JUMPDEST PUSH1 0x20 PUSH1 0x40 MLOAD DUP1 DUP4 SUB DUP2 DUP7 GAS STATICCALL SWAP3 POP POP POP DUP1 ISZERO PUSH2 0x18B6 JUMPI POP PUSH1 0x40 MLOAD RETURNDATASIZE PUSH1 0x1F NOT PUSH1 0x1F DUP3 ADD AND DUP3 ADD DUP1 PUSH1 0x40 MSTORE POP DUP2 ADD SWAP1 PUSH2 0x18B3 SWAP2 SWAP1 PUSH2 0x273C JUMP JUMPDEST PUSH1 0x1 JUMPDEST ISZERO PUSH2 0x18C2 JUMPI DUP1 DUP5 ADD SWAP4 POP POP JUMPDEST POP DUP1 PUSH1 0x1 ADD SWAP1 POP PUSH2 0x182B JUMP JUMPDEST POP SWAP4 SWAP3 POP POP POP JUMP JUMPDEST PUSH0 PUSH1 0x4D DUP3 PUSH1 0xFF AND GT ISZERO PUSH2 0x191E JUMPI PUSH1 0x40 MLOAD PUSH32 0x8C379A000000000000000000000000000000000000000000000000000000000 DUP2 MSTORE PUSH1 0x4 ADD PUSH2 0x1915 SWAP1 PUSH2 0x2AF5 JUMP JUMPDEST PUSH1 0x40 MLOAD DUP1 SWAP2 SUB SWAP1 REVERT JUMPDEST DUP2 PUSH1 0xFF AND PUSH1 0xA EXP SWAP1 POP SWAP2 SWAP1 POP JUMP JUMPDEST PUSH1 0x40 MLOAD DUP1 PUSH1 0xA0 ADD PUSH1 0x40 MSTORE DUP1 PUSH2 0x193F PUSH2 0x1A12 JUMP JUMPDEST DUP2 MSTORE PUSH1 0x20 ADD PUSH2 0x194C PUSH2 0x1A12 JUMP JUMPDEST DUP2 MSTORE PUSH1 0x20 ADD PUSH2 0x1959 PUSH2 0x1A12 JUMP JUMPDEST DUP2 MSTORE PUSH1 0x20 ADD PUSH0 DUP2 MSTORE PUSH1 0x20 ADD PUSH0 DUP2 MSTORE POP SWAP1 JUMP JUMPDEST PUSH1 0x40 MLOAD DUP1 PUSH1 0xC0 ADD PUSH1 0x40 MSTORE DUP1 PUSH0 PUSH20 0xFFFFFFFFFFFFFFFFFFFFFFFFFFFFFFFFFFFFFFFF AND DUP2 MSTORE PUSH1 0x20 ADD PUSH0 PUSH1 0xFF AND DUP2 MSTORE PUSH1 0x20 ADD PUSH0 PUSH2 0xFFFF AND DUP2 MSTORE PUSH1 0x20 ADD PUSH0 DUP2 MSTORE PUSH1 0x20 ADD PUSH0 DUP2 MSTORE PUSH1 0x20 ADD PUSH0 DUP2 MSTORE POP SWAP1 JUMP JUMPDEST PUSH1 0x40 MLOAD DUP1 PUSH2 0x100 ADD PUSH1 0x40 MSTORE DUP1 PUSH0 PUSH20 0xFFFFFFFFFFFFFFFFFFFFFFFFFFFFFFFFFFFFFFFF AND DUP2 MSTORE PUSH1 0x20 ADD PUSH0 PUSH1 0xFF AND DUP2 MSTORE PUSH1 0x20 ADD PUSH0 PUSH2 0xFFFF AND DUP2 MSTORE PUSH1 0x20 ADD PUSH0 DUP2 MSTORE PUSH1 0x20 ADD PUSH0 DUP2 MSTORE PUSH1 0x20 ADD PUSH0 DUP2 MSTORE PUSH1 0x20 ADD PUSH0 DUP2 MSTORE PUSH1 0x20 ADD PUSH0 DUP2 MSTORE POP SWAP1 JUMP JUMPDEST PUSH1 0x40 MLOAD DUP1 PUSH1 0x40 ADD PUSH1 0x40 MSTORE DUP1 PUSH0 DUP2 MSTORE PUSH1 0x20 ADD PUSH0 DUP2 MSTORE POP SWAP1 JUMP JUMPDEST PUSH0 PUSH1 0x40 MLOAD SWAP1 POP SWAP1 JUMP JUMPDEST PUSH0 PUSH0 REVERT JUMPDEST PUSH0 PUSH0 REVERT JUMPDEST PUSH0 DUP2 SWAP1 POP SWAP2 SWAP1 POP JUMP JUMPDEST PUSH2 0x1A4D DUP2 PUSH2 0x1A3B JUMP JUMPDEST DUP2 EQ PUSH2 0x1A57 JUMPI PUSH0 PUSH0 REVERT JUMPDEST POP JUMP JUMPDEST PUSH0 DUP2 CALLDATALOAD SWAP1 POP PUSH2 0x1A68 DUP2 PUSH2 0x1A44 JUMP JUMPDEST SWAP3 SWAP2 POP POP JUMP JUMPDEST PUSH0 PUSH1 0x20 DUP3 DUP5 SUB SLT ISZERO PUSH2 0x1A83 JUMPI PUSH2 0x1A82 PUSH2 0x1A33 JUMP JUMPDEST JUMPDEST PUSH0 PUSH2 0x1A90 DUP5 DUP3 DUP6 ADD PUSH2 0x1A5A JUMP JUMPDEST SWAP2 POP POP SWAP3 SWAP2 POP POP JUMP JUMPDEST PUSH2 0x1AA2 DUP2 PUSH2 0x1A3B JUMP JUMPDEST DUP3 MSTORE POP POP JUMP JUMPDEST PUSH0 PUSH1 0x20 DUP3 ADD SWAP1 POP PUSH2 0x1ABB PUSH0 DUP4 ADD DUP5 PUSH2 0x1A99 JUMP JUMPDEST SWAP3 SWAP2 POP POP JUMP JUMPDEST PUSH0 DUP2 MLOAD SWAP1 POP SWAP2 SWAP1 POP JUMP JUMPDEST PUSH0 DUP3 DUP3 MSTORE PUSH1 0x20 DUP3 ADD SWAP1 POP SWAP3 SWAP2 POP POP JUMP JUMPDEST PUSH0 DUP2 SWAP1 POP PUSH1 0x20 DUP3 ADD SWAP1 POP SWAP2 SWAP1 POP JUMP JUMPDEST PUSH0 PUSH20 0xFFFFFFFFFFFFFFFFFFFFFFFFFFFFFFFFFFFFFFFF DUP3 AND SWAP1 POP SWAP2 SWAP1 POP JUMP JUMPDEST PUSH0 PUSH2 0x1B13 DUP3 PUSH2 0x1AEA JUMP JUMPDEST SWAP1 POP SWAP2 SWAP1 POP JUMP JUMPDEST PUSH2 0x1B23 DUP2 PUSH2 0x1B09 JUMP JUMPDEST DUP3 MSTORE POP POP JUMP JUMPDEST PUSH0 PUSH1 0xFF DUP3 AND SWAP1 POP SWAP2 SWAP1 POP JUMP JUMPDEST PUSH2 0x1B3E DUP2 PUSH2 0x1B29 JUMP JUMPDEST DUP3 MSTORE POP POP JUMP JUMPDEST PUSH0 PUSH2 0xFFFF DUP3 AND SWAP1 POP SWAP2 SWAP1 POP JUMP JUMPDEST PUSH2 0x1B5A DUP2 PUSH2 0x1B44 JUMP JUMPDEST DUP3 MSTORE POP POP JUMP JUMPDEST PUSH2 0x1B69 DUP2 PUSH2 0x1A3B JUMP JUMPDEST DUP3 MSTORE POP POP JUMP JUMPDEST PUSH1 0xC0 DUP3 ADD PUSH0 DUP3 ADD MLOAD PUSH2 0x1B83 PUSH0 DUP6 ADD DUP3 PUSH2 0x1B1A JUMP JUMPDEST POP PUSH1 0x20 DUP3 ADD MLOAD PUSH2 0x1B96 PUSH1 0x20 DUP6 ADD DUP3 PUSH2 0x1B35 JUMP JUMPDEST POP PUSH1 0x40 DUP3 ADD MLOAD PUSH2 0x1BA9 PUSH1 0x40 DUP6 ADD DUP3 PUSH2 0x1B51 JUMP JUMPDEST POP PUSH1 0x60 DUP3 ADD MLOAD PUSH2 0x1BBC PUSH1 0x60 DUP6 ADD DUP3 PUSH2 0x1B60 JUMP JUMPDEST POP PUSH1 0x80 DUP3 ADD MLOAD PUSH2 0x1BCF PUSH1 0x80 DUP6 ADD DUP3 PUSH2 0x1B60 JUMP JUMPDEST POP PUSH1 0xA0 DUP3 ADD MLOAD PUSH2 0x1BE2 PUSH1 0xA0 DUP6 ADD DUP3 PUSH2 0x1B60 JUMP JUMPDEST POP POP POP POP JUMP JUMPDEST PUSH0 PUSH2 0x1BF3 DUP4 DUP4 PUSH2 0x1B6F JUMP JUMPDEST PUSH1 0xC0 DUP4 ADD SWAP1 POP SWAP3 SWAP2 POP POP JUMP JUMPDEST PUSH0 PUSH1 0x20 DUP3 ADD SWAP1 POP SWAP2 SWAP1 POP JUMP JUMPDEST PUSH0 PUSH2 0x1C15 DUP3 PUSH2 0x1AC1 JUMP JUMPDEST PUSH2 0x1C1F DUP2 DUP6 PUSH2 0x1ACB JUMP JUMPDEST SWAP4 POP PUSH2 0x1C2A DUP4 PUSH2 0x1ADB JUMP JUMPDEST DUP1 PUSH0 JUMPDEST DUP4 DUP2 LT ISZERO PUSH2 0x1C5A JUMPI DUP2 MLOAD PUSH2 0x1C41 DUP9 DUP3 PUSH2 0x1BE8 JUMP JUMPDEST SWAP8 POP PUSH2 0x1C4C DUP4 PUSH2 0x1BFF JUMP JUMPDEST SWAP3 POP POP PUSH1 0x1 DUP2 ADD SWAP1 POP PUSH2 0x1C2D JUMP JUMPDEST POP DUP6 SWAP4 POP POP POP POP SWAP3 SWAP2 POP POP JUMP JUMPDEST PUSH0 PUSH1 0x40 DUP3 ADD SWAP1 POP DUP2 DUP2 SUB PUSH0 DUP4 ADD MSTORE PUSH2 0x1C7F DUP2 DUP6 PUSH2 0x1C0B JUMP JUMPDEST SWAP1 POP PUSH2 0x1C8E PUSH1 0x20 DUP4 ADD DUP5 PUSH2 0x1A99 JUMP JUMPDEST SWAP4 SWAP3 POP POP POP JUMP JUMPDEST PUSH0 PUSH0 REVERT JUMPDEST PUSH0 PUSH0 REVERT JUMPDEST PUSH0 PUSH1 0x1F NOT PUSH1 0x1F DUP4 ADD AND SWAP1 POP SWAP2 SWAP1 POP JUMP JUMPDEST PUSH32 0x4E487B7100000000000000000000000000000000000000000000000000000000 PUSH0 MSTORE PUSH1 0x41 PUSH1 0x4 MSTORE PUSH1 0x24 PUSH0 REVERT JUMPDEST PUSH2 0x1CE3 DUP3 PUSH2 0x1C9D JUMP JUMPDEST DUP2 ADD DUP2 DUP2 LT PUSH8 0xFFFFFFFFFFFFFFFF DUP3 GT OR ISZERO PUSH2 0x1D02 JUMPI PUSH2 0x1D01 PUSH2 0x1CAD JUMP JUMPDEST JUMPDEST DUP1 PUSH1 0x40 MSTORE POP POP POP JUMP JUMPDEST PUSH0 PUSH2 0x1D14 PUSH2 0x1A2A JUMP JUMPDEST SWAP1 POP PUSH2 0x1D20 DUP3 DUP3 PUSH2 0x1CDA JUMP JUMPDEST SWAP2 SWAP1 POP JUMP JUMPDEST PUSH0 PUSH8 0xFFFFFFFFFFFFFFFF DUP3 GT ISZERO PUSH2 0x1D3F JUMPI PUSH2 0x1D3E PUSH2 0x1CAD JUMP JUMPDEST JUMPDEST PUSH2 0x1D48 DUP3 PUSH2 0x1C9D JUMP JUMPDEST SWAP1 POP PUSH1 0x20 DUP2 ADD SWAP1 POP SWAP2 SWAP1 POP JUMP JUMPDEST DUP3 DUP2 DUP4 CALLDATACOPY PUSH0 DUP4 DUP4 ADD MSTORE POP POP POP JUMP JUMPDEST PUSH0 PUSH2 0x1D75 PUSH2 0x1D70 DUP5 PUSH2 0x1D25 JUMP JUMPDEST PUSH2 0x1D0B JUMP JUMPDEST SWAP1 POP DUP3 DUP2 MSTORE PUSH1 0x20 DUP2 ADD DUP5 DUP5 DUP5 ADD GT ISZERO PUSH2 0x1D91 JUMPI PUSH2 0x1D90 PUSH2 0x1C99 JUMP JUMPDEST JUMPDEST PUSH2 0x1D9C DUP5 DUP3 DUP6 PUSH2 0x1D55 JUMP JUMPDEST POP SWAP4 SWAP3 POP POP POP JUMP JUMPDEST PUSH0 DUP3 PUSH1 0x1F DUP4 ADD SLT PUSH2 0x1DB8 JUMPI PUSH2 0x1DB7 PUSH2 0x1C95 JUMP JUMPDEST JUMPDEST DUP2 CALLDATALOAD PUSH2 0x1DC8 DUP5 DUP3 PUSH1 0x20 DUP7 ADD PUSH2 0x1D63 JUMP JUMPDEST SWAP2 POP POP SWAP3 SWAP2 POP POP JUMP JUMPDEST PUSH0 PUSH1 0x20 DUP3 DUP5 SUB SLT ISZERO PUSH2 0x1DE6 JUMPI PUSH2 0x1DE5 PUSH2 0x1A33 JUMP JUMPDEST JUMPDEST PUSH0 DUP3 ADD CALLDATALOAD PUSH8 0xFFFFFFFFFFFFFFFF DUP2 GT ISZERO PUSH2 0x1E03 JUMPI PUSH2 0x1E02 PUSH2 0x1A37 JUMP JUMPDEST JUMPDEST PUSH2 0x1E0F DUP5 DUP3 DUP6 ADD PUSH2 0x1DA4 JUMP JUMPDEST SWAP2 POP POP SWAP3 SWAP2 POP POP JUMP JUMPDEST PUSH2 0x1E21 DUP2 PUSH2 0x1B09 JUMP JUMPDEST DUP3 MSTORE POP POP JUMP JUMPDEST PUSH0 PUSH1 0x20 DUP3 ADD SWAP1 POP PUSH2 0x1E3A PUSH0 DUP4 ADD DUP5 PUSH2 0x1E18 JUMP JUMPDEST SWAP3 SWAP2 POP POP JUMP JUMPDEST PUSH0 DUP2 SWAP1 POP SWAP2 SWAP1 POP JUMP JUMPDEST PUSH0 PUSH2 0x1E63 PUSH2 0x1E5E PUSH2 0x1E59 DUP5 PUSH2 0x1AEA JUMP JUMPDEST PUSH2 0x1E40 JUMP JUMPDEST PUSH2 0x1AEA JUMP JUMPDEST SWAP1 POP SWAP2 SWAP1 POP JUMP JUMPDEST PUSH0 PUSH2 0x1E74 DUP3 PUSH2 0x1E49 JUMP JUMPDEST SWAP1 POP SWAP2 SWAP1 POP JUMP JUMPDEST PUSH0 PUSH2 0x1E85 DUP3 PUSH2 0x1E6A JUMP JUMPDEST SWAP1 POP SWAP2 SWAP1 POP JUMP JUMPDEST PUSH2 0x1E95 DUP2 PUSH2 0x1E7B JUMP JUMPDEST DUP3 MSTORE POP POP JUMP JUMPDEST PUSH0 PUSH1 0x20 DUP3 ADD SWAP1 POP PUSH2 0x1EAE PUSH0 DUP4 ADD DUP5 PUSH2 0x1E8C JUMP JUMPDEST SWAP3 SWAP2 POP POP JUMP JUMPDEST PUSH1 0x40 DUP3 ADD PUSH0 DUP3 ADD MLOAD PUSH2 0x1EC8 PUSH0 DUP6 ADD DUP3 PUSH2 0x1B60 JUMP JUMPDEST POP PUSH1 0x20 DUP3 ADD MLOAD PUSH2 0x1EDB PUSH1 0x20 DUP6 ADD DUP3 PUSH2 0x1B60 JUMP JUMPDEST POP POP POP POP JUMP JUMPDEST PUSH2 0x100 DUP3 ADD PUSH0 DUP3 ADD MLOAD PUSH2 0x1EF6 PUSH0 DUP6 ADD DUP3 PUSH2 0x1EB4 JUMP JUMPDEST POP PUSH1 0x20 DUP3 ADD MLOAD PUSH2 0x1F09 PUSH1 0x40 DUP6 ADD DUP3 PUSH2 0x1EB4 JUMP JUMPDEST POP PUSH1 0x40 DUP3 ADD MLOAD PUSH2 0x1F1C PUSH1 0x80 DUP6 ADD DUP3 PUSH2 0x1EB4 JUMP JUMPDEST POP PUSH1 0x60 DUP3 ADD MLOAD PUSH2 0x1F2F PUSH1 0xC0 DUP6 ADD DUP3 PUSH2 0x1B60 JUMP JUMPDEST POP PUSH1 0x80 DUP3 ADD MLOAD PUSH2 0x1F42 PUSH1 0xE0 DUP6 ADD DUP3 PUSH2 0x1B60 JUMP JUMPDEST POP POP POP POP JUMP JUMPDEST PUSH0 PUSH2 0x100 DUP3 ADD SWAP1 POP PUSH2 0x1F5C PUSH0 DUP4 ADD DUP5 PUSH2 0x1EE1 JUMP JUMPDEST SWAP3 SWAP2 POP POP JUMP JUMPDEST PUSH2 0x1F6B DUP2 PUSH2 0x1B09 JUMP JUMPDEST DUP2 EQ PUSH2 0x1F75 JUMPI PUSH0 PUSH0 REVERT JUMPDEST POP JUMP JUMPDEST PUSH0 DUP2 CALLDATALOAD SWAP1 POP PUSH2 0x1F86 DUP2 PUSH2 0x1F62 JUMP JUMPDEST SWAP3 SWAP2 POP POP JUMP JUMPDEST PUSH0 PUSH1 0x20 DUP3 DUP5 SUB SLT ISZERO PUSH2 0x1FA1 JUMPI PUSH2 0x1FA0 PUSH2 0x1A33 JUMP JUMPDEST JUMPDEST PUSH0 PUSH2 0x1FAE DUP5 DUP3 DUP6 ADD PUSH2 0x1F78 JUMP JUMPDEST SWAP2 POP POP SWAP3 SWAP2 POP POP JUMP JUMPDEST PUSH0 DUP2 MLOAD SWAP1 POP SWAP2 SWAP1 POP JUMP JUMPDEST PUSH0 DUP3 DUP3 MSTORE PUSH1 0x20 DUP3 ADD SWAP1 POP SWAP3 SWAP2 POP POP JUMP JUMPDEST PUSH0 DUP2 SWAP1 POP PUSH1 0x20 DUP3 ADD SWAP1 POP SWAP2 SWAP1 POP JUMP JUMPDEST PUSH2 0x100 DUP3 ADD PUSH0 DUP3 ADD MLOAD PUSH2 0x1FF5 PUSH0 DUP6 ADD DUP3 PUSH2 0x1B1A JUMP JUMPDEST POP PUSH1 0x20 DUP3 ADD MLOAD PUSH2 0x2008 PUSH1 0x20 DUP6 ADD DUP3 PUSH2 0x1B35 JUMP JUMPDEST POP PUSH1 0x40 DUP3 ADD MLOAD PUSH2 0x201B PUSH1 0x40 DUP6 ADD DUP3 PUSH2 0x1B51 JUMP JUMPDEST POP PUSH1 0x60 DUP3 ADD MLOAD PUSH2 0x202E PUSH1 0x60 DUP6 ADD DUP3 PUSH2 0x1B60 JUMP JUMPDEST POP PUSH1 0x80 DUP3 ADD MLOAD PUSH2 0x2041 PUSH1 0x80 DUP6 ADD DUP3 PUSH2 0x1B60 JUMP JUMPDEST POP PUSH1 0xA0 DUP3 ADD MLOAD PUSH2 0x2054 PUSH1 0xA0 DUP6 ADD DUP3 PUSH2 0x1B60 JUMP JUMPDEST POP PUSH1 0xC0 DUP3 ADD MLOAD PUSH2 0x2067 PUSH1 0xC0 DUP6 ADD DUP3 PUSH2 0x1B60 JUMP JUMPDEST POP PUSH1 0xE0 DUP3 ADD MLOAD PUSH2 0x207A PUSH1 0xE0 DUP6 ADD DUP3 PUSH2 0x1B60 JUMP JUMPDEST POP POP POP POP JUMP JUMPDEST PUSH0 PUSH2 0x208B DUP4 DUP4 PUSH2 0x1FE0 JUMP JUMPDEST PUSH2 0x100 DUP4 ADD SWAP1 POP SWAP3 SWAP2 POP POP JUMP JUMPDEST PUSH0 PUSH1 0x20 DUP3 ADD SWAP1 POP SWAP2 SWAP1 POP JUMP JUMPDEST PUSH0 PUSH2 0x20AE DUP3 PUSH2 0x1FB7 JUMP JUMPDEST PUSH2 0x20B8 DUP2 DUP6 PUSH2 0x1FC1 JUMP JUMPDEST SWAP4 POP PUSH2 0x20C3 DUP4 PUSH2 0x1FD1 JUMP JUMPDEST DUP1 PUSH0 JUMPDEST DUP4 DUP2 LT ISZERO PUSH2 0x20F3 JUMPI DUP2 MLOAD PUSH2 0x20DA DUP9 DUP3 PUSH2 0x2080 JUMP JUMPDEST SWAP8 POP PUSH2 0x20E5 DUP4 PUSH2 0x2098 JUMP JUMPDEST SWAP3 POP POP PUSH1 0x1 DUP2 ADD SWAP1 POP PUSH2 0x20C6 JUMP JUMPDEST POP DUP6 SWAP4 POP POP POP POP SWAP3 SWAP2 POP POP JUMP JUMPDEST PUSH0 PUSH1 0x60 DUP3 ADD SWAP1 POP DUP2 DUP2 SUB PUSH0 DUP4 ADD MSTORE PUSH2 0x2118 DUP2 DUP7 PUSH2 0x20A4 JUMP JUMPDEST SWAP1 POP PUSH2 0x2127 PUSH1 0x20 DUP4 ADD DUP6 PUSH2 0x1A99 JUMP JUMPDEST PUSH2 0x2134 PUSH1 0x40 DUP4 ADD DUP5 PUSH2 0x1A99 JUMP JUMPDEST SWAP5 SWAP4 POP POP POP POP JUMP JUMPDEST PUSH0 PUSH0 REVERT JUMPDEST PUSH0 PUSH0 REVERT JUMPDEST PUSH0 PUSH8 0xFFFFFFFFFFFFFFFF DUP3 GT ISZERO PUSH2 0x215E JUMPI PUSH2 0x215D PUSH2 0x1CAD JUMP JUMPDEST JUMPDEST PUSH1 0x20 DUP3 MUL SWAP1 POP PUSH1 0x20 DUP2 ADD SWAP1 POP SWAP2 SWAP1 POP JUMP JUMPDEST PUSH0 PUSH0 REVERT JUMPDEST PUSH2 0x217C DUP2 PUSH2 0x1B44 JUMP JUMPDEST DUP2 EQ PUSH2 0x2186 JUMPI PUSH0 PUSH0 REVERT JUMPDEST POP JUMP JUMPDEST PUSH0 DUP2 CALLDATALOAD SWAP1 POP PUSH2 0x2197 DUP2 PUSH2 0x2173 JUMP JUMPDEST SWAP3 SWAP2 POP POP JUMP JUMPDEST PUSH0 PUSH1 0x40 DUP3 DUP5 SUB SLT ISZERO PUSH2 0x21B2 JUMPI PUSH2 0x21B1 PUSH2 0x213C JUMP JUMPDEST JUMPDEST PUSH2 0x21BC PUSH1 0x40 PUSH2 0x1D0B JUMP JUMPDEST SWAP1 POP PUSH0 PUSH2 0x21CB DUP5 DUP3 DUP6 ADD PUSH2 0x1F78 JUMP JUMPDEST PUSH0 DUP4 ADD MSTORE POP PUSH1 0x20 PUSH2 0x21DE DUP5 DUP3 DUP6 ADD PUSH2 0x2189 JUMP JUMPDEST PUSH1 0x20 DUP4 ADD MSTORE POP SWAP3 SWAP2 POP POP JUMP JUMPDEST PUSH0 PUSH2 0x21FC PUSH2 0x21F7 DUP5 PUSH2 0x2144 JUMP JUMPDEST PUSH2 0x1D0B JUMP JUMPDEST SWAP1 POP DUP1 DUP4 DUP3 MSTORE PUSH1 0x20 DUP3 ADD SWAP1 POP PUSH1 0x40 DUP5 MUL DUP4 ADD DUP6 DUP2 GT ISZERO PUSH2 0x221F JUMPI PUSH2 0x221E PUSH2 0x216F JUMP JUMPDEST JUMPDEST DUP4 JUMPDEST DUP2 DUP2 LT ISZERO PUSH2 0x2248 JUMPI DUP1 PUSH2 0x2234 DUP9 DUP3 PUSH2 0x219D JUMP JUMPDEST DUP5 MSTORE PUSH1 0x20 DUP5 ADD SWAP4 POP POP PUSH1 0x40 DUP2 ADD SWAP1 POP PUSH2 0x2221 JUMP JUMPDEST POP POP POP SWAP4 SWAP3 POP POP POP JUMP JUMPDEST PUSH0 DUP3 PUSH1 0x1F DUP4 ADD SLT PUSH2 0x2266 JUMPI PUSH2 0x2265 PUSH2 0x1C95 JUMP JUMPDEST JUMPDEST DUP2 CALLDATALOAD PUSH2 0x2276 DUP5 DUP3 PUSH1 0x20 DUP7 ADD PUSH2 0x21EA JUMP JUMPDEST SWAP2 POP POP SWAP3 SWAP2 POP POP JUMP JUMPDEST PUSH0 PUSH1 0x60 DUP3 DUP5 SUB SLT ISZERO PUSH2 0x2294 JUMPI PUSH2 0x2293 PUSH2 0x213C JUMP JUMPDEST JUMPDEST PUSH2 0x229E PUSH1 0x60 PUSH2 0x1D0B JUMP JUMPDEST SWAP1 POP PUSH0 DUP3 ADD CALLDATALOAD PUSH8 0xFFFFFFFFFFFFFFFF DUP2 GT ISZERO PUSH2 0x22BD JUMPI PUSH2 0x22BC PUSH2 0x2140 JUMP JUMPDEST JUMPDEST PUSH2 0x22C9 DUP5 DUP3 DUP6 ADD PUSH2 0x1DA4 JUMP JUMPDEST PUSH0 DUP4 ADD MSTORE POP PUSH1 0x20 DUP3 ADD CALLDATALOAD PUSH8 0xFFFFFFFFFFFFFFFF DUP2 GT ISZERO PUSH2 0x22EC JUMPI PUSH2 0x22EB PUSH2 0x2140 JUMP JUMPDEST JUMPDEST PUSH2 0x22F8 DUP5 DUP3 DUP6 ADD PUSH2 0x1DA4 JUMP JUMPDEST PUSH1 0x20 DUP4 ADD MSTORE POP PUSH1 0x40 DUP3 ADD CALLDATALOAD PUSH8 0xFFFFFFFFFFFFFFFF DUP2 GT ISZERO PUSH2 0x231C JUMPI PUSH2 0x231B PUSH2 0x2140 JUMP JUMPDEST JUMPDEST PUSH2 0x2328 DUP5 DUP3 DUP6 ADD PUSH2 0x2252 JUMP JUMPDEST PUSH1 0x40 DUP4 ADD MSTORE POP SWAP3 SWAP2 POP POP JUMP JUMPDEST PUSH0 PUSH0 PUSH1 0x40 DUP4 DUP6 SUB SLT ISZERO PUSH2 0x234A JUMPI PUSH2 0x2349 PUSH2 0x1A33 JUMP JUMPDEST JUMPDEST PUSH0 DUP4 ADD CALLDATALOAD PUSH8 0xFFFFFFFFFFFFFFFF DUP2 GT ISZERO PUSH2 0x2367 JUMPI PUSH2 0x2366 PUSH2 0x1A37 JUMP JUMPDEST JUMPDEST PUSH2 0x2373 DUP6 DUP3 DUP7 ADD PUSH2 0x227F JUMP JUMPDEST SWAP3 POP POP PUSH1 0x20 PUSH2 0x2384 DUP6 DUP3 DUP7 ADD PUSH2 0x1F78 JUMP JUMPDEST SWAP2 POP POP SWAP3 POP SWAP3 SWAP1 POP JUMP JUMPDEST DUP3 DUP2 DUP4 MCOPY PUSH0 DUP4 DUP4 ADD MSTORE POP POP POP JUMP JUMPDEST PUSH0 PUSH2 0x23AE PUSH2 0x23A9 DUP5 PUSH2 0x1D25 JUMP JUMPDEST PUSH2 0x1D0B JUMP JUMPDEST SWAP1 POP DUP3 DUP2 MSTORE PUSH1 0x20 DUP2 ADD DUP5 DUP5 DUP5 ADD GT ISZERO PUSH2 0x23CA JUMPI PUSH2 0x23C9 PUSH2 0x1C99 JUMP JUMPDEST JUMPDEST PUSH2 0x23D5 DUP5 DUP3 DUP6 PUSH2 0x238E JUMP JUMPDEST POP SWAP4 SWAP3 POP POP POP JUMP JUMPDEST PUSH0 DUP3 PUSH1 0x1F DUP4 ADD SLT PUSH2 0x23F1 JUMPI PUSH2 0x23F0 PUSH2 0x1C95 JUMP JUMPDEST JUMPDEST DUP2 MLOAD PUSH2 0x2401 DUP5 DUP3 PUSH1 0x20 DUP7 ADD PUSH2 0x239C JUMP JUMPDEST SWAP2 POP POP SWAP3 SWAP2 POP POP JUMP JUMPDEST PUSH0 DUP2 MLOAD SWAP1 POP PUSH2 0x2418 DUP2 PUSH2 0x1F62 JUMP JUMPDEST SWAP3 SWAP2 POP POP JUMP JUMPDEST PUSH0 DUP2 MLOAD SWAP1 POP PUSH2 0x242C DUP2 PUSH2 0x2173 JUMP JUMPDEST SWAP3 SWAP2 POP POP JUMP JUMPDEST PUSH0 PUSH1 0x40 DUP3 DUP5 SUB SLT ISZERO PUSH2 0x2447 JUMPI PUSH2 0x2446 PUSH2 0x213C JUMP JUMPDEST JUMPDEST PUSH2 0x2451 PUSH1 0x40 PUSH2 0x1D0B JUMP JUMPDEST SWAP1 POP PUSH0 PUSH2 0x2460 DUP5 DUP3 DUP6 ADD PUSH2 0x240A JUMP JUMPDEST PUSH0 DUP4 ADD MSTORE POP PUSH1 0x20 PUSH2 0x2473 DUP5 DUP3 DUP6 ADD PUSH2 0x241E JUMP JUMPDEST PUSH1 0x20 DUP4 ADD MSTORE POP SWAP3 SWAP2 POP POP JUMP JUMPDEST PUSH0 PUSH2 0x2491 PUSH2 0x248C DUP5 PUSH2 0x2144 JUMP JUMPDEST PUSH2 0x1D0B JUMP JUMPDEST SWAP1 POP DUP1 DUP4 DUP3 MSTORE PUSH1 0x20 DUP3 ADD SWAP1 POP PUSH1 0x40 DUP5 MUL DUP4 ADD DUP6 DUP2 GT ISZERO PUSH2 0x24B4 JUMPI PUSH2 0x24B3 PUSH2 0x216F JUMP JUMPDEST JUMPDEST DUP4 JUMPDEST DUP2 DUP2 LT ISZERO PUSH2 0x24DD JUMPI DUP1 PUSH2 0x24C9 DUP9 DUP3 PUSH2 0x2432 JUMP JUMPDEST DUP5 MSTORE PUSH1 0x20 DUP5 ADD SWAP4 POP POP PUSH1 0x40 DUP2 ADD SWAP1 POP PUSH2 0x24B6 JUMP JUMPDEST POP POP POP SWAP4 SWAP3 POP POP POP JUMP JUMPDEST PUSH0 DUP3 PUSH1 0x1F DUP4 ADD SLT PUSH2 0x24FB JUMPI PUSH2 0x24FA PUSH2 0x1C95 JUMP JUMPDEST JUMPDEST DUP2 MLOAD PUSH2 0x250B DUP5 DUP3 PUSH1 0x20 DUP7 ADD PUSH2 0x247F JUMP JUMPDEST SWAP2 POP POP SWAP3 SWAP2 POP POP JUMP JUMPDEST PUSH0 PUSH1 0x60 DUP3 DUP5 SUB SLT ISZERO PUSH2 0x2529 JUMPI PUSH2 0x2528 PUSH2 0x213C JUMP JUMPDEST JUMPDEST PUSH2 0x2533 PUSH1 0x60 PUSH2 0x1D0B JUMP JUMPDEST SWAP1 POP PUSH0 DUP3 ADD MLOAD PUSH8 0xFFFFFFFFFFFFFFFF DUP2 GT ISZERO PUSH2 0x2552 JUMPI PUSH2 0x2551 PUSH2 0x2140 JUMP JUMPDEST JUMPDEST PUSH2 0x255E DUP5 DUP3 DUP6 ADD PUSH2 0x23DD JUMP JUMPDEST PUSH0 DUP4 ADD MSTORE POP PUSH1 0x20 DUP3 ADD MLOAD PUSH8 0xFFFFFFFFFFFFFFFF DUP2 GT ISZERO PUSH2 0x2581 JUMPI PUSH2 0x2580 PUSH2 0x2140 JUMP JUMPDEST JUMPDEST PUSH2 0x258D DUP5 DUP3 DUP6 ADD PUSH2 0x23DD JUMP JUMPDEST PUSH1 0x20 DUP4 ADD MSTORE POP PUSH1 0x40 DUP3 ADD MLOAD PUSH8 0xFFFFFFFFFFFFFFFF DUP2 GT ISZERO PUSH2 0x25B1 JUMPI PUSH2 0x25B0 PUSH2 0x2140 JUMP JUMPDEST JUMPDEST PUSH2 0x25BD DUP5 DUP3 DUP6 ADD PUSH2 0x24E7 JUMP JUMPDEST PUSH1 0x40 DUP4 ADD MSTORE POP SWAP3 SWAP2 POP POP JUMP JUMPDEST PUSH0 PUSH0 PUSH1 0x40 DUP4 DUP6 SUB SLT ISZERO PUSH2 0x25DF JUMPI PUSH2 0x25DE PUSH2 0x1A33 JUMP JUMPDEST JUMPDEST PUSH0 DUP4 ADD MLOAD PUSH8 0xFFFFFFFFFFFFFFFF DUP2 GT ISZERO PUSH2 0x25FC JUMPI PUSH2 0x25FB PUSH2 0x1A37 JUMP JUMPDEST JUMPDEST PUSH2 0x2608 DUP6 DUP3 DUP7 ADD PUSH2 0x2514 JUMP JUMPDEST SWAP3 POP POP PUSH1 0x20 PUSH2 0x2619 DUP6 DUP3 DUP7 ADD PUSH2 0x240A JUMP JUMPDEST SWAP2 POP POP SWAP3 POP SWAP3 SWAP1 POP JUMP JUMPDEST PUSH0 DUP2 MLOAD SWAP1 POP SWAP2 SWAP1 POP JUMP JUMPDEST PUSH0 DUP3 DUP3 MSTORE PUSH1 0x20 DUP3 ADD SWAP1 POP SWAP3 SWAP2 POP POP JUMP JUMPDEST PUSH0 PUSH2 0x2647 DUP3 PUSH2 0x2623 JUMP JUMPDEST PUSH2 0x2651 DUP2 DUP6 PUSH2 0x262D JUMP JUMPDEST SWAP4 POP PUSH2 0x2661 DUP2 DUP6 PUSH1 0x20 DUP7 ADD PUSH2 0x238E JUMP JUMPDEST PUSH2 0x266A DUP2 PUSH2 0x1C9D JUMP JUMPDEST DUP5 ADD SWAP2 POP POP SWAP3 SWAP2 POP POP JUMP JUMPDEST PUSH0 PUSH1 0x20 DUP3 ADD SWAP1 POP DUP2 DUP2 SUB PUSH0 DUP4 ADD MSTORE PUSH2 0x268D DUP2 DUP5 PUSH2 0x263D JUMP JUMPDEST SWAP1 POP SWAP3 SWAP2 POP POP JUMP JUMPDEST PUSH0 PUSH1 0x20 DUP3 DUP5 SUB SLT ISZERO PUSH2 0x26AA JUMPI PUSH2 0x26A9 PUSH2 0x1A33 JUMP JUMPDEST JUMPDEST PUSH0 PUSH2 0x26B7 DUP5 DUP3 DUP6 ADD PUSH2 0x240A JUMP JUMPDEST SWAP2 POP POP SWAP3 SWAP2 POP POP JUMP JUMPDEST PUSH32 0x43616C6C6572206973206E6F7420746865206F776E6572000000000000000000 PUSH0 DUP3 ADD MSTORE POP JUMP JUMPDEST PUSH0 PUSH2 0x26F4 PUSH1 0x17 DUP4 PUSH2 0x262D JUMP JUMPDEST SWAP2 POP PUSH2 0x26FF DUP3 PUSH2 0x26C0 JUMP JUMPDEST PUSH1 0x20 DUP3 ADD SWAP1 POP SWAP2 SWAP1 POP JUMP JUMPDEST PUSH0 PUSH1 0x20 DUP3 ADD SWAP1 POP DUP2 DUP2 SUB PUSH0 DUP4 ADD MSTORE PUSH2 0x2721 DUP2 PUSH2 0x26E8 JUMP JUMPDEST SWAP1 POP SWAP2 SWAP1 POP JUMP JUMPDEST PUSH0 DUP2 MLOAD SWAP1 POP PUSH2 0x2736 DUP2 PUSH2 0x1A44 JUMP JUMPDEST SWAP3 SWAP2 POP POP JUMP JUMPDEST PUSH0 PUSH1 0x20 DUP3 DUP5 SUB SLT ISZERO PUSH2 0x2751 JUMPI PUSH2 0x2750 PUSH2 0x1A33 JUMP JUMPDEST JUMPDEST PUSH0 PUSH2 0x275E DUP5 DUP3 DUP6 ADD PUSH2 0x2728 JUMP JUMPDEST SWAP2 POP POP SWAP3 SWAP2 POP POP JUMP JUMPDEST PUSH2 0x2770 DUP2 PUSH2 0x1B29 JUMP JUMPDEST DUP2 EQ PUSH2 0x277A JUMPI PUSH0 PUSH0 REVERT JUMPDEST POP JUMP JUMPDEST PUSH0 DUP2 MLOAD SWAP1 POP PUSH2 0x278B DUP2 PUSH2 0x2767 JUMP JUMPDEST SWAP3 SWAP2 POP POP JUMP JUMPDEST PUSH0 PUSH1 0x20 DUP3 DUP5 SUB SLT ISZERO PUSH2 0x27A6 JUMPI PUSH2 0x27A5 PUSH2 0x1A33 JUMP JUMPDEST JUMPDEST PUSH0 PUSH2 0x27B3 DUP5 DUP3 DUP6 ADD PUSH2 0x277D JUMP JUMPDEST SWAP2 POP POP SWAP3 SWAP2 POP POP JUMP JUMPDEST PUSH32 0x4E487B7100000000000000000000000000000000000000000000000000000000 PUSH0 MSTORE PUSH1 0x32 PUSH1 0x4 MSTORE PUSH1 0x24 PUSH0 REVERT JUMPDEST PUSH32 0x4E487B7100000000000000000000000000000000000000000000000000000000 PUSH0 MSTORE PUSH1 0x12 PUSH1 0x4 MSTORE PUSH1 0x24 PUSH0 REVERT JUMPDEST PUSH0 PUSH0 PUSH1 0x40 DUP4 DUP6 SUB SLT ISZERO PUSH2 0x282C JUMPI PUSH2 0x282B PUSH2 0x1A33 JUMP JUMPDEST JUMPDEST PUSH0 PUSH2 0x2839 DUP6 DUP3 DUP7 ADD PUSH2 0x2728 JUMP JUMPDEST SWAP3 POP POP PUSH1 0x20 PUSH2 0x284A DUP6 DUP3 DUP7 ADD PUSH2 0x2728 JUMP JUMPDEST SWAP2 POP POP SWAP3 POP SWAP3 SWAP1 POP JUMP JUMPDEST PUSH32 0x4469726563746F72792063616E6E6F74206265207A65726F2061646472657373 PUSH0 DUP3 ADD MSTORE POP JUMP JUMPDEST PUSH0 PUSH2 0x2888 PUSH1 0x20 DUP4 PUSH2 0x262D JUMP JUMPDEST SWAP2 POP PUSH2 0x2893 DUP3 PUSH2 0x2854 JUMP JUMPDEST PUSH1 0x20 DUP3 ADD SWAP1 POP SWAP2 SWAP1 POP JUMP JUMPDEST PUSH0 PUSH1 0x20 DUP3 ADD SWAP1 POP DUP2 DUP2 SUB PUSH0 DUP4 ADD MSTORE PUSH2 0x28B5 DUP2 PUSH2 0x287C JUMP JUMPDEST SWAP1 POP SWAP2 SWAP1 POP JUMP JUMPDEST PUSH32 0x4469726563746F7279206D757374206265206120636F6E747261637400000000 PUSH0 DUP3 ADD MSTORE POP JUMP JUMPDEST PUSH0 PUSH2 0x28F0 PUSH1 0x1C DUP4 PUSH2 0x262D JUMP JUMPDEST SWAP2 POP PUSH2 0x28FB DUP3 PUSH2 0x28BC JUMP JUMPDEST PUSH1 0x20 DUP3 ADD SWAP1 POP SWAP2 SWAP1 POP JUMP JUMPDEST PUSH0 PUSH1 0x20 DUP3 ADD SWAP1 POP DUP2 DUP2 SUB PUSH0 DUP4 ADD MSTORE PUSH2 0x291D DUP2 PUSH2 0x28E4 JUMP JUMPDEST SWAP1 POP SWAP2 SWAP1 POP JUMP JUMPDEST PUSH32 0x4469726563746F7279206164647265737320646F6573206E6F7420696D706C65 PUSH0 DUP3 ADD MSTORE PUSH32 0x6D656E74206F776E657228290000000000000000000000000000000000000000 PUSH1 0x20 DUP3 ADD MSTORE POP JUMP JUMPDEST PUSH0 PUSH2 0x297E PUSH1 0x2C DUP4 PUSH2 0x262D JUMP JUMPDEST SWAP2 POP PUSH2 0x2989 DUP3 PUSH2 0x2924 JUMP JUMPDEST PUSH1 0x40 DUP3 ADD SWAP1 POP SWAP2 SWAP1 POP JUMP JUMPDEST PUSH0 PUSH1 0x20 DUP3 ADD SWAP1 POP DUP2 DUP2 SUB PUSH0 DUP4 ADD MSTORE PUSH2 0x29AB DUP2 PUSH2 0x2972 JUMP JUMPDEST SWAP1 POP SWAP2 SWAP1 POP JUMP JUMPDEST PUSH32 0x4E487B7100000000000000000000000000000000000000000000000000000000 PUSH0 MSTORE PUSH1 0x11 PUSH1 0x4 MSTORE PUSH1 0x24 PUSH0 REVERT JUMPDEST PUSH0 PUSH2 0x29E9 DUP3 PUSH2 0x1A3B JUMP JUMPDEST SWAP2 POP PUSH2 0x29F4 DUP4 PUSH2 0x1A3B JUMP JUMPDEST SWAP3 POP DUP3 PUSH2 0x2A04 JUMPI PUSH2 0x2A03 PUSH2 0x27E9 JUMP JUMPDEST JUMPDEST DUP3 DUP3 DIV SWAP1 POP SWAP3 SWAP2 POP POP JUMP JUMPDEST PUSH0 PUSH2 0x2A19 DUP3 PUSH2 0x1B29 JUMP JUMPDEST SWAP2 POP PUSH2 0x2A24 DUP4 PUSH2 0x1B29 JUMP JUMPDEST SWAP3 POP DUP3 DUP3 SUB SWAP1 POP PUSH1 0xFF DUP2 GT ISZERO PUSH2 0x2A3D JUMPI PUSH2 0x2A3C PUSH2 0x29B2 JUMP JUMPDEST JUMPDEST SWAP3 SWAP2 POP POP JUMP JUMPDEST PUSH32 0x6D756C446976206F766572666C6F770000000000000000000000000000000000 PUSH0 DUP3 ADD MSTORE POP JUMP JUMPDEST PUSH0 PUSH2 0x2A77 PUSH1 0xF DUP4 PUSH2 0x262D JUMP JUMPDEST SWAP2 POP PUSH2 0x2A82 DUP3 PUSH2 0x2A43 JUMP JUMPDEST PUSH1 0x20 DUP3 ADD SWAP1 POP SWAP2 SWAP1 POP JUMP JUMPDEST PUSH0 PUSH1 0x20 DUP3 ADD SWAP1 POP DUP2 DUP2 SUB PUSH0 DUP4 ADD MSTORE PUSH2 0x2AA4 DUP2 PUSH2 0x2A6B JUMP JUMPDEST SWAP1 POP SWAP2 SWAP1 POP JUMP JUMPDEST PUSH32 0x706F773130206F766572666C6F77000000000000000000000000000000000000 PUSH0 DUP3 ADD MSTORE POP JUMP JUMPDEST PUSH0 PUSH2 0x2ADF PUSH1 0xE DUP4 PUSH2 0x262D JUMP JUMPDEST SWAP2 POP PUSH2 0x2AEA DUP3 PUSH2 0x2AAB JUMP JUMPDEST PUSH1 0x20 DUP3 ADD SWAP1 POP SWAP2 SWAP1 POP JUMP JUMPDEST PUSH0 PUSH1 0x20 DUP3 ADD SWAP1 POP DUP2 DUP2 SUB PUSH0 DUP4 ADD MSTORE PUSH2 0x2B0C DUP2 PUSH2 0x2AD3 JUMP JUMPDEST SWAP1 POP SWAP2 SWAP1 POP JUMP INVALID LOG2 PUSH5 0x6970667358 0x22 SLT KECCAK256 0xB1 0xC1 PUSH13 0xE0A8388EBCB47B593470584F80 0xA7 SDIV RETURNDATACOPY PUSH15 0x9BFF4DF7CF6A9235AEBE5DB064736F PUSH13 0x634300081E0033000000000000 "
				},
				"gasEstimates": {
					"creation": {
						"codeDepositCost": "2216200",
						"executionCost": "infinite",
						"totalCost": "infinite"
					},
					"external": {
						"Directory()": "infinite",
						"changeDirectoryAddress(address)": "infinite",
						"fetchFromDirectory(string)": "infinite",
						"getEtfUsdPrice(uint256)": "infinite",
						"getEtfWethPrice(uint256)": "infinite",
						"getStats(uint256)": "infinite",
						"owner()": "infinite",
						"snapshotVault(uint256)": "infinite",
						"snapshotVaultUnchecked((string,string,(address,uint16)[]),address)": "infinite",
						"snapshotVaultWithUsd(uint256)": "infinite"
					}
				},
				"methodIdentifiers": {
					"Directory()": "658a847a",
					"changeDirectoryAddress(address)": "ba4c7be1",
					"fetchFromDirectory(string)": "27262618",
					"getEtfUsdPrice(uint256)": "0705a3e8",
					"getEtfWethPrice(uint256)": "812efc8e",
					"getStats(uint256)": "7b303965",
					"owner()": "8da5cb5b",
					"snapshotVault(uint256)": "13290a89",
					"snapshotVaultUnchecked((string,string,(address,uint16)[]),address)": "ee0d96c5",
					"snapshotVaultWithUsd(uint256)": "cd8d334f"
				}
			},
			"storageLayout": {
				"storage": [
					{
						"astId": 82,
						"contract": "hopium/etf/main/etf-oracle.sol:EtfOracle",
						"label": "Directory",
						"offset": 0,
						"slot": "0",
						"type": "t_contract(IDirectory)79"
					}
				],
				"types": {
					"t_contract(IDirectory)79": {
						"encoding": "inplace",
						"label": "contract IDirectory",
						"numberOfBytes": "20"
					}
				}
			},
			"userdoc": {
				"kind": "user",
				"methods": {
					"getEtfUsdPrice(uint256)": {
						"notice": "Current NAV per ETF token in USD (1e18)."
					},
					"getEtfWethPrice(uint256)": {
						"notice": "Current NAV per ETF token in WETH (1e18)."
					}
				},
				"version": 1
			}
		}
	}
}