{
	"hopium/uniswap/main/pool-finder.sol": {
		"PoolFinder": {
			"abi": [
				{
					"inputs": [
						{
							"internalType": "address",
							"name": "_directory",
							"type": "address"
						},
						{
							"internalType": "address",
							"name": "_wethAddress",
							"type": "address"
						},
						{
							"internalType": "address",
							"name": "_v2Factory",
							"type": "address"
						},
						{
							"internalType": "address",
							"name": "_v3Factory",
							"type": "address"
						}
					],
					"stateMutability": "nonpayable",
					"type": "constructor"
				},
				{
					"inputs": [],
					"name": "TokenIsWETH",
					"type": "error"
				},
				{
					"inputs": [],
					"name": "ZeroAddress",
					"type": "error"
				},
				{
					"inputs": [],
					"name": "Directory",
					"outputs": [
						{
							"internalType": "contract IDirectory",
							"name": "",
							"type": "address"
						}
					],
					"stateMutability": "view",
					"type": "function"
				},
				{
					"inputs": [
						{
							"internalType": "address",
							"name": "_directory",
							"type": "address"
						}
					],
					"name": "changeDirectoryAddress",
					"outputs": [],
					"stateMutability": "nonpayable",
					"type": "function"
				},
				{
					"inputs": [
						{
							"internalType": "string",
							"name": "_key",
							"type": "string"
						}
					],
					"name": "fetchFromDirectory",
					"outputs": [
						{
							"internalType": "address",
							"name": "",
							"type": "address"
						}
					],
					"stateMutability": "view",
					"type": "function"
				},
				{
					"inputs": [
						{
							"internalType": "address",
							"name": "tokenAddress",
							"type": "address"
						}
					],
					"name": "findBestWethPool",
					"outputs": [
						{
							"components": [
								{
									"internalType": "address",
									"name": "poolAddress",
									"type": "address"
								},
								{
									"internalType": "uint24",
									"name": "poolFee",
									"type": "uint24"
								},
								{
									"internalType": "uint8",
									"name": "isV3Pool",
									"type": "uint8"
								},
								{
									"internalType": "uint64",
									"name": "lastCached",
									"type": "uint64"
								}
							],
							"internalType": "struct Pool",
							"name": "pool",
							"type": "tuple"
						}
					],
					"stateMutability": "view",
					"type": "function"
				},
				{
					"inputs": [
						{
							"internalType": "address",
							"name": "tokenAddress",
							"type": "address"
						}
					],
					"name": "getBestWethPool",
					"outputs": [
						{
							"components": [
								{
									"internalType": "address",
									"name": "poolAddress",
									"type": "address"
								},
								{
									"internalType": "uint24",
									"name": "poolFee",
									"type": "uint24"
								},
								{
									"internalType": "uint8",
									"name": "isV3Pool",
									"type": "uint8"
								},
								{
									"internalType": "uint64",
									"name": "lastCached",
									"type": "uint64"
								}
							],
							"internalType": "struct Pool",
							"name": "pool",
							"type": "tuple"
						}
					],
					"stateMutability": "view",
					"type": "function"
				},
				{
					"inputs": [
						{
							"internalType": "address",
							"name": "tokenAddress",
							"type": "address"
						}
					],
					"name": "getBestWethPoolAndUpdateIfStale",
					"outputs": [
						{
							"components": [
								{
									"internalType": "address",
									"name": "poolAddress",
									"type": "address"
								},
								{
									"internalType": "uint24",
									"name": "poolFee",
									"type": "uint24"
								},
								{
									"internalType": "uint8",
									"name": "isV3Pool",
									"type": "uint8"
								},
								{
									"internalType": "uint64",
									"name": "lastCached",
									"type": "uint64"
								}
							],
							"internalType": "struct Pool",
							"name": "out",
							"type": "tuple"
						}
					],
					"stateMutability": "nonpayable",
					"type": "function"
				},
				{
					"inputs": [],
					"name": "owner",
					"outputs": [
						{
							"internalType": "address",
							"name": "",
							"type": "address"
						}
					],
					"stateMutability": "view",
					"type": "function"
				},
				{
					"inputs": [
						{
							"internalType": "uint256",
							"name": "newStaleTime",
							"type": "uint256"
						}
					],
					"name": "setStaleTimePoolCache",
					"outputs": [],
					"stateMutability": "nonpayable",
					"type": "function"
				},
				{
					"inputs": [],
					"name": "staleTime",
					"outputs": [
						{
							"internalType": "uint256",
							"name": "",
							"type": "uint256"
						}
					],
					"stateMutability": "view",
					"type": "function"
				},
				{
					"inputs": [],
					"name": "v2Factory",
					"outputs": [
						{
							"internalType": "contract IUniswapV2Factory",
							"name": "",
							"type": "address"
						}
					],
					"stateMutability": "view",
					"type": "function"
				},
				{
					"inputs": [],
					"name": "v3Factory",
					"outputs": [
						{
							"internalType": "contract IUniswapV3Factory",
							"name": "",
							"type": "address"
						}
					],
					"stateMutability": "view",
					"type": "function"
				},
				{
					"inputs": [],
					"name": "wethAddress",
					"outputs": [
						{
							"internalType": "address",
							"name": "",
							"type": "address"
						}
					],
					"stateMutability": "view",
					"type": "function"
				}
			],
			"devdoc": {
				"kind": "dev",
				"methods": {},
				"version": 1
			},
			"evm": {
				"assembly": "    /* \"hopium/uniswap/main/pool-finder.sol\":771:4734  contract PoolFinder is ImDirectory {... */\n  mstore(0x40, 0xe0)\n    /* \"hopium/uniswap/main/pool-finder.sol\":1781:1788  6 hours */\n  0x5460\n    /* \"hopium/uniswap/main/pool-finder.sol\":1754:1788  uint256 public staleTime = 6 hours */\n  0x02\n  sstore\n    /* \"hopium/uniswap/main/pool-finder.sol\":955:1472  constructor(... */\n  callvalue\n  dup1\n  iszero\n  tag_1\n  jumpi\n  revert(0x00, 0x00)\ntag_1:\n  pop\n  mload(0x40)\n  sub(codesize, bytecodeSize)\n  dup1\n  bytecodeSize\n  dup4\n  codecopy\n  dup2\n  dup2\n  add\n  0x40\n  mstore\n  dup2\n  add\n  swap1\n  tag_2\n  swap2\n  swap1\n  tag_3\n  jump\t// in\ntag_2:\n    /* \"hopium/uniswap/main/pool-finder.sol\":1103:1113  _directory */\n  dup4\n    /* \"hopium/common/interface/imDirectory.sol\":412:437  _setDirectory(_directory) */\n  tag_7\n    /* \"hopium/common/interface/imDirectory.sol\":426:436  _directory */\n  dup2\n    /* \"hopium/common/interface/imDirectory.sol\":412:425  _setDirectory */\n  shl(0x20, tag_8)\n    /* \"hopium/common/interface/imDirectory.sol\":412:437  _setDirectory(_directory) */\n  0x20\n  shr\n  jump\t// in\ntag_7:\n    /* \"hopium/common/interface/imDirectory.sol\":370:464  constructor(address _directory) {... */\n  pop\n    /* \"hopium/uniswap/main/pool-finder.sol\":1157:1158  0 */\n  0x00\n    /* \"hopium/uniswap/main/pool-finder.sol\":1133:1159  _wethAddress == address(0) */\n  0xffffffffffffffffffffffffffffffffffffffff\n  and\n    /* \"hopium/uniswap/main/pool-finder.sol\":1133:1145  _wethAddress */\n  dup4\n    /* \"hopium/uniswap/main/pool-finder.sol\":1133:1159  _wethAddress == address(0) */\n  0xffffffffffffffffffffffffffffffffffffffff\n  and\n  sub\n    /* \"hopium/uniswap/main/pool-finder.sol\":1129:1181  if (_wethAddress == address(0)) revert ZeroAddress() */\n  tag_10\n  jumpi\n    /* \"hopium/uniswap/main/pool-finder.sol\":1168:1181  ZeroAddress() */\n  mload(0x40)\n  0xd92e233d00000000000000000000000000000000000000000000000000000000\n  dup2\n  mstore\n  0x04\n  add\n  mload(0x40)\n  dup1\n  swap2\n  sub\n  swap1\n  revert\n    /* \"hopium/uniswap/main/pool-finder.sol\":1129:1181  if (_wethAddress == address(0)) revert ZeroAddress() */\ntag_10:\n    /* \"hopium/uniswap/main/pool-finder.sol\":1222:1223  0 */\n  0x00\n    /* \"hopium/uniswap/main/pool-finder.sol\":1199:1224  _v2Factory  == address(0) */\n  0xffffffffffffffffffffffffffffffffffffffff\n  and\n    /* \"hopium/uniswap/main/pool-finder.sol\":1199:1209  _v2Factory */\n  dup3\n    /* \"hopium/uniswap/main/pool-finder.sol\":1199:1224  _v2Factory  == address(0) */\n  0xffffffffffffffffffffffffffffffffffffffff\n  and\n  sub\n    /* \"hopium/uniswap/main/pool-finder.sol\":1195:1246  if (_v2Factory  == address(0)) revert ZeroAddress() */\n  tag_11\n  jumpi\n    /* \"hopium/uniswap/main/pool-finder.sol\":1233:1246  ZeroAddress() */\n  mload(0x40)\n  0xd92e233d00000000000000000000000000000000000000000000000000000000\n  dup2\n  mstore\n  0x04\n  add\n  mload(0x40)\n  dup1\n  swap2\n  sub\n  swap1\n  revert\n    /* \"hopium/uniswap/main/pool-finder.sol\":1195:1246  if (_v2Factory  == address(0)) revert ZeroAddress() */\ntag_11:\n    /* \"hopium/uniswap/main/pool-finder.sol\":1286:1287  0 */\n  0x00\n    /* \"hopium/uniswap/main/pool-finder.sol\":1264:1288  _v3Factory == address(0) */\n  0xffffffffffffffffffffffffffffffffffffffff\n  and\n    /* \"hopium/uniswap/main/pool-finder.sol\":1264:1274  _v3Factory */\n  dup2\n    /* \"hopium/uniswap/main/pool-finder.sol\":1264:1288  _v3Factory == address(0) */\n  0xffffffffffffffffffffffffffffffffffffffff\n  and\n  sub\n    /* \"hopium/uniswap/main/pool-finder.sol\":1260:1310  if (_v3Factory == address(0)) revert ZeroAddress() */\n  tag_12\n  jumpi\n    /* \"hopium/uniswap/main/pool-finder.sol\":1297:1310  ZeroAddress() */\n  mload(0x40)\n  0xd92e233d00000000000000000000000000000000000000000000000000000000\n  dup2\n  mstore\n  0x04\n  add\n  mload(0x40)\n  dup1\n  swap2\n  sub\n  swap1\n  revert\n    /* \"hopium/uniswap/main/pool-finder.sol\":1260:1310  if (_v3Factory == address(0)) revert ZeroAddress() */\ntag_12:\n    /* \"hopium/uniswap/main/pool-finder.sol\":1339:1351  _wethAddress */\n  dup3\n    /* \"hopium/uniswap/main/pool-finder.sol\":1325:1351  wethAddress = _wethAddress */\n  0xffffffffffffffffffffffffffffffffffffffff\n  and\n  0x80\n  dup2\n  0xffffffffffffffffffffffffffffffffffffffff\n  and\n  dup2\n  mstore\n  pop\n  pop\n    /* \"hopium/uniswap/main/pool-finder.sol\":1395:1405  _v2Factory */\n  dup2\n    /* \"hopium/uniswap/main/pool-finder.sol\":1365:1406  v2Factory = IUniswapV2Factory(_v2Factory) */\n  0xffffffffffffffffffffffffffffffffffffffff\n  and\n  0xa0\n  dup2\n  0xffffffffffffffffffffffffffffffffffffffff\n  and\n  dup2\n  mstore\n  pop\n  pop\n    /* \"hopium/uniswap/main/pool-finder.sol\":1450:1460  _v3Factory */\n  dup1\n    /* \"hopium/uniswap/main/pool-finder.sol\":1420:1461  v3Factory = IUniswapV3Factory(_v3Factory) */\n  0xffffffffffffffffffffffffffffffffffffffff\n  and\n  0xc0\n  dup2\n  0xffffffffffffffffffffffffffffffffffffffff\n  and\n  dup2\n  mstore\n  pop\n  pop\n    /* \"hopium/uniswap/main/pool-finder.sol\":955:1472  constructor(... */\n  pop\n  pop\n  pop\n  pop\n    /* \"hopium/uniswap/main/pool-finder.sol\":771:4734  contract PoolFinder is ImDirectory {... */\n  jump(tag_13)\n    /* \"hopium/common/interface/imDirectory.sol\":589:1050  function _setDirectory(address _directory) internal {... */\ntag_8:\n    /* \"hopium/common/interface/imDirectory.sol\":681:682  0 */\n  0x00\n    /* \"hopium/common/interface/imDirectory.sol\":659:683  _directory != address(0) */\n  0xffffffffffffffffffffffffffffffffffffffff\n  and\n    /* \"hopium/common/interface/imDirectory.sol\":659:669  _directory */\n  dup2\n    /* \"hopium/common/interface/imDirectory.sol\":659:683  _directory != address(0) */\n  0xffffffffffffffffffffffffffffffffffffffff\n  and\n  sub\n    /* \"hopium/common/interface/imDirectory.sol\":651:720  require(_directory != address(0), \"Directory cannot be zero address\") */\n  tag_15\n  jumpi\n  mload(0x40)\n  0x08c379a000000000000000000000000000000000000000000000000000000000\n  dup2\n  mstore\n  0x04\n  add\n  tag_16\n  swap1\n  tag_17\n  jump\t// in\ntag_16:\n  mload(0x40)\n  dup1\n  swap2\n  sub\n  swap1\n  revert\ntag_15:\n    /* \"hopium/common/interface/imDirectory.sol\":763:764  0 */\n  0x00\n    /* \"hopium/common/interface/imDirectory.sol\":738:748  _directory */\n  dup2\n    /* \"hopium/common/interface/imDirectory.sol\":738:760  _directory.code.length */\n  0xffffffffffffffffffffffffffffffffffffffff\n  and\n  extcodesize\n    /* \"hopium/common/interface/imDirectory.sol\":738:764  _directory.code.length > 0 */\n  gt\n    /* \"hopium/common/interface/imDirectory.sol\":730:797  require(_directory.code.length > 0, \"Directory must be a contract\") */\n  tag_18\n  jumpi\n  mload(0x40)\n  0x08c379a000000000000000000000000000000000000000000000000000000000\n  dup2\n  mstore\n  0x04\n  add\n  tag_19\n  swap1\n  tag_20\n  jump\t// in\ntag_19:\n  mload(0x40)\n  dup1\n  swap2\n  sub\n  swap1\n  revert\ntag_18:\n    /* \"hopium/common/interface/imDirectory.sol\":861:871  _directory */\n  dup1\n    /* \"hopium/common/interface/imDirectory.sol\":850:878  IDirectory(_directory).owner */\n  0xffffffffffffffffffffffffffffffffffffffff\n  and\n  0x8da5cb5b\n    /* \"hopium/common/interface/imDirectory.sol\":850:880  IDirectory(_directory).owner() */\n  mload(0x40)\n  dup2\n  0xffffffff\n  and\n  0xe0\n  shl\n  dup2\n  mstore\n  0x04\n  add\n  0x20\n  mload(0x40)\n  dup1\n  dup4\n  sub\n  dup2\n  dup7\n  gas\n  staticcall\n  swap3\n  pop\n  pop\n  pop\n  dup1\n  iszero\n  tag_21\n  jumpi\n  pop\n  mload(0x40)\n  returndatasize\n  not(0x1f)\n  0x1f\n  dup3\n  add\n  and\n  dup3\n  add\n  dup1\n  0x40\n  mstore\n  pop\n  dup2\n  add\n  swap1\n  tag_22\n  swap2\n  swap1\n  tag_23\n  jump\t// in\ntag_22:\n  0x01\ntag_21:\n    /* \"hopium/common/interface/imDirectory.sol\":846:1044  try IDirectory(_directory).owner() returns (address) {... */\n  tag_24\n  jumpi\n    /* \"hopium/common/interface/imDirectory.sol\":979:1033  revert(\"Directory address does not implement owner()\") */\n  mload(0x40)\n  0x08c379a000000000000000000000000000000000000000000000000000000000\n  dup2\n  mstore\n  0x04\n  add\n  tag_28\n  swap1\n  tag_29\n  jump\t// in\ntag_28:\n  mload(0x40)\n  dup1\n  swap2\n  sub\n  swap1\n  revert\n    /* \"hopium/common/interface/imDirectory.sol\":846:1044  try IDirectory(_directory).owner() returns (address) {... */\ntag_24:\n    /* \"hopium/common/interface/imDirectory.sol\":936:946  _directory */\n  dup2\n    /* \"hopium/common/interface/imDirectory.sol\":913:922  Directory */\n  0x00\n  0x00\n    /* \"hopium/common/interface/imDirectory.sol\":913:947  Directory = IDirectory(_directory) */\n  0x0100\n  exp\n  dup2\n  sload\n  dup2\n  0xffffffffffffffffffffffffffffffffffffffff\n  mul\n  not\n  and\n  swap1\n  dup4\n  0xffffffffffffffffffffffffffffffffffffffff\n  and\n  mul\n  or\n  swap1\n  sstore\n  pop\n    /* \"hopium/common/interface/imDirectory.sol\":881:958  returns (address) {... */\n  pop\n    /* \"hopium/common/interface/imDirectory.sol\":589:1050  function _setDirectory(address _directory) internal {... */\n  pop\n  jump\t// out\n    /* \"#utility.yul\":88:205   */\ntag_32:\n    /* \"#utility.yul\":197:198   */\n  0x00\n    /* \"#utility.yul\":194:195   */\n  0x00\n    /* \"#utility.yul\":187:199   */\n  revert\n    /* \"#utility.yul\":334:460   */\ntag_34:\n    /* \"#utility.yul\":371:378   */\n  0x00\n    /* \"#utility.yul\":411:453   */\n  0xffffffffffffffffffffffffffffffffffffffff\n    /* \"#utility.yul\":404:409   */\n  dup3\n    /* \"#utility.yul\":400:454   */\n  and\n    /* \"#utility.yul\":389:454   */\n  swap1\n  pop\n    /* \"#utility.yul\":334:460   */\n  swap2\n  swap1\n  pop\n  jump\t// out\n    /* \"#utility.yul\":466:562   */\ntag_35:\n    /* \"#utility.yul\":503:510   */\n  0x00\n    /* \"#utility.yul\":532:556   */\n  tag_51\n    /* \"#utility.yul\":550:555   */\n  dup3\n    /* \"#utility.yul\":532:556   */\n  tag_34\n  jump\t// in\ntag_51:\n    /* \"#utility.yul\":521:556   */\n  swap1\n  pop\n    /* \"#utility.yul\":466:562   */\n  swap2\n  swap1\n  pop\n  jump\t// out\n    /* \"#utility.yul\":568:690   */\ntag_36:\n    /* \"#utility.yul\":641:665   */\n  tag_53\n    /* \"#utility.yul\":659:664   */\n  dup2\n    /* \"#utility.yul\":641:665   */\n  tag_35\n  jump\t// in\ntag_53:\n    /* \"#utility.yul\":634:639   */\n  dup2\n    /* \"#utility.yul\":631:666   */\n  eq\n    /* \"#utility.yul\":621:684   */\n  tag_54\n  jumpi\n    /* \"#utility.yul\":680:681   */\n  0x00\n    /* \"#utility.yul\":677:678   */\n  0x00\n    /* \"#utility.yul\":670:682   */\n  revert\n    /* \"#utility.yul\":621:684   */\ntag_54:\n    /* \"#utility.yul\":568:690   */\n  pop\n  jump\t// out\n    /* \"#utility.yul\":696:839   */\ntag_37:\n    /* \"#utility.yul\":753:758   */\n  0x00\n    /* \"#utility.yul\":784:790   */\n  dup2\n    /* \"#utility.yul\":778:791   */\n  mload\n    /* \"#utility.yul\":769:791   */\n  swap1\n  pop\n    /* \"#utility.yul\":800:833   */\n  tag_56\n    /* \"#utility.yul\":827:832   */\n  dup2\n    /* \"#utility.yul\":800:833   */\n  tag_36\n  jump\t// in\ntag_56:\n    /* \"#utility.yul\":696:839   */\n  swap3\n  swap2\n  pop\n  pop\n  jump\t// out\n    /* \"#utility.yul\":845:1665   */\ntag_3:\n    /* \"#utility.yul\":942:948   */\n  0x00\n    /* \"#utility.yul\":950:956   */\n  0x00\n    /* \"#utility.yul\":958:964   */\n  0x00\n    /* \"#utility.yul\":966:972   */\n  0x00\n    /* \"#utility.yul\":1015:1018   */\n  0x80\n    /* \"#utility.yul\":1003:1012   */\n  dup6\n    /* \"#utility.yul\":994:1001   */\n  dup8\n    /* \"#utility.yul\":990:1013   */\n  sub\n    /* \"#utility.yul\":986:1019   */\n  slt\n    /* \"#utility.yul\":983:1103   */\n  iszero\n  tag_58\n  jumpi\n    /* \"#utility.yul\":1022:1101   */\n  tag_59\n  tag_32\n  jump\t// in\ntag_59:\n    /* \"#utility.yul\":983:1103   */\ntag_58:\n    /* \"#utility.yul\":1142:1143   */\n  0x00\n    /* \"#utility.yul\":1167:1231   */\n  tag_60\n    /* \"#utility.yul\":1223:1230   */\n  dup8\n    /* \"#utility.yul\":1214:1220   */\n  dup3\n    /* \"#utility.yul\":1203:1212   */\n  dup9\n    /* \"#utility.yul\":1199:1221   */\n  add\n    /* \"#utility.yul\":1167:1231   */\n  tag_37\n  jump\t// in\ntag_60:\n    /* \"#utility.yul\":1157:1231   */\n  swap5\n  pop\n    /* \"#utility.yul\":1113:1241   */\n  pop\n    /* \"#utility.yul\":1280:1282   */\n  0x20\n    /* \"#utility.yul\":1306:1370   */\n  tag_61\n    /* \"#utility.yul\":1362:1369   */\n  dup8\n    /* \"#utility.yul\":1353:1359   */\n  dup3\n    /* \"#utility.yul\":1342:1351   */\n  dup9\n    /* \"#utility.yul\":1338:1360   */\n  add\n    /* \"#utility.yul\":1306:1370   */\n  tag_37\n  jump\t// in\ntag_61:\n    /* \"#utility.yul\":1296:1370   */\n  swap4\n  pop\n    /* \"#utility.yul\":1251:1380   */\n  pop\n    /* \"#utility.yul\":1419:1421   */\n  0x40\n    /* \"#utility.yul\":1445:1509   */\n  tag_62\n    /* \"#utility.yul\":1501:1508   */\n  dup8\n    /* \"#utility.yul\":1492:1498   */\n  dup3\n    /* \"#utility.yul\":1481:1490   */\n  dup9\n    /* \"#utility.yul\":1477:1499   */\n  add\n    /* \"#utility.yul\":1445:1509   */\n  tag_37\n  jump\t// in\ntag_62:\n    /* \"#utility.yul\":1435:1509   */\n  swap3\n  pop\n    /* \"#utility.yul\":1390:1519   */\n  pop\n    /* \"#utility.yul\":1558:1560   */\n  0x60\n    /* \"#utility.yul\":1584:1648   */\n  tag_63\n    /* \"#utility.yul\":1640:1647   */\n  dup8\n    /* \"#utility.yul\":1631:1637   */\n  dup3\n    /* \"#utility.yul\":1620:1629   */\n  dup9\n    /* \"#utility.yul\":1616:1638   */\n  add\n    /* \"#utility.yul\":1584:1648   */\n  tag_37\n  jump\t// in\ntag_63:\n    /* \"#utility.yul\":1574:1648   */\n  swap2\n  pop\n    /* \"#utility.yul\":1529:1658   */\n  pop\n    /* \"#utility.yul\":845:1665   */\n  swap3\n  swap6\n  swap2\n  swap5\n  pop\n  swap3\n  pop\n  jump\t// out\n    /* \"#utility.yul\":1671:1840   */\ntag_38:\n    /* \"#utility.yul\":1755:1766   */\n  0x00\n    /* \"#utility.yul\":1789:1795   */\n  dup3\n    /* \"#utility.yul\":1784:1787   */\n  dup3\n    /* \"#utility.yul\":1777:1796   */\n  mstore\n    /* \"#utility.yul\":1829:1833   */\n  0x20\n    /* \"#utility.yul\":1824:1827   */\n  dup3\n    /* \"#utility.yul\":1820:1834   */\n  add\n    /* \"#utility.yul\":1805:1834   */\n  swap1\n  pop\n    /* \"#utility.yul\":1671:1840   */\n  swap3\n  swap2\n  pop\n  pop\n  jump\t// out\n    /* \"#utility.yul\":1846:2028   */\ntag_39:\n    /* \"#utility.yul\":1986:2020   */\n  0x4469726563746f72792063616e6e6f74206265207a65726f2061646472657373\n    /* \"#utility.yul\":1982:1983   */\n  0x00\n    /* \"#utility.yul\":1974:1980   */\n  dup3\n    /* \"#utility.yul\":1970:1984   */\n  add\n    /* \"#utility.yul\":1963:2021   */\n  mstore\n    /* \"#utility.yul\":1846:2028   */\n  pop\n  jump\t// out\n    /* \"#utility.yul\":2034:2400   */\ntag_40:\n    /* \"#utility.yul\":2176:2179   */\n  0x00\n    /* \"#utility.yul\":2197:2264   */\n  tag_67\n    /* \"#utility.yul\":2261:2263   */\n  0x20\n    /* \"#utility.yul\":2256:2259   */\n  dup4\n    /* \"#utility.yul\":2197:2264   */\n  tag_38\n  jump\t// in\ntag_67:\n    /* \"#utility.yul\":2190:2264   */\n  swap2\n  pop\n    /* \"#utility.yul\":2273:2366   */\n  tag_68\n    /* \"#utility.yul\":2362:2365   */\n  dup3\n    /* \"#utility.yul\":2273:2366   */\n  tag_39\n  jump\t// in\ntag_68:\n    /* \"#utility.yul\":2391:2393   */\n  0x20\n    /* \"#utility.yul\":2386:2389   */\n  dup3\n    /* \"#utility.yul\":2382:2394   */\n  add\n    /* \"#utility.yul\":2375:2394   */\n  swap1\n  pop\n    /* \"#utility.yul\":2034:2400   */\n  swap2\n  swap1\n  pop\n  jump\t// out\n    /* \"#utility.yul\":2406:2825   */\ntag_17:\n    /* \"#utility.yul\":2572:2576   */\n  0x00\n    /* \"#utility.yul\":2610:2612   */\n  0x20\n    /* \"#utility.yul\":2599:2608   */\n  dup3\n    /* \"#utility.yul\":2595:2613   */\n  add\n    /* \"#utility.yul\":2587:2613   */\n  swap1\n  pop\n    /* \"#utility.yul\":2659:2668   */\n  dup2\n    /* \"#utility.yul\":2653:2657   */\n  dup2\n    /* \"#utility.yul\":2649:2669   */\n  sub\n    /* \"#utility.yul\":2645:2646   */\n  0x00\n    /* \"#utility.yul\":2634:2643   */\n  dup4\n    /* \"#utility.yul\":2630:2647   */\n  add\n    /* \"#utility.yul\":2623:2670   */\n  mstore\n    /* \"#utility.yul\":2687:2818   */\n  tag_70\n    /* \"#utility.yul\":2813:2817   */\n  dup2\n    /* \"#utility.yul\":2687:2818   */\n  tag_40\n  jump\t// in\ntag_70:\n    /* \"#utility.yul\":2679:2818   */\n  swap1\n  pop\n    /* \"#utility.yul\":2406:2825   */\n  swap2\n  swap1\n  pop\n  jump\t// out\n    /* \"#utility.yul\":2831:3009   */\ntag_41:\n    /* \"#utility.yul\":2971:3001   */\n  0x4469726563746f7279206d757374206265206120636f6e747261637400000000\n    /* \"#utility.yul\":2967:2968   */\n  0x00\n    /* \"#utility.yul\":2959:2965   */\n  dup3\n    /* \"#utility.yul\":2955:2969   */\n  add\n    /* \"#utility.yul\":2948:3002   */\n  mstore\n    /* \"#utility.yul\":2831:3009   */\n  pop\n  jump\t// out\n    /* \"#utility.yul\":3015:3381   */\ntag_42:\n    /* \"#utility.yul\":3157:3160   */\n  0x00\n    /* \"#utility.yul\":3178:3245   */\n  tag_73\n    /* \"#utility.yul\":3242:3244   */\n  0x1c\n    /* \"#utility.yul\":3237:3240   */\n  dup4\n    /* \"#utility.yul\":3178:3245   */\n  tag_38\n  jump\t// in\ntag_73:\n    /* \"#utility.yul\":3171:3245   */\n  swap2\n  pop\n    /* \"#utility.yul\":3254:3347   */\n  tag_74\n    /* \"#utility.yul\":3343:3346   */\n  dup3\n    /* \"#utility.yul\":3254:3347   */\n  tag_41\n  jump\t// in\ntag_74:\n    /* \"#utility.yul\":3372:3374   */\n  0x20\n    /* \"#utility.yul\":3367:3370   */\n  dup3\n    /* \"#utility.yul\":3363:3375   */\n  add\n    /* \"#utility.yul\":3356:3375   */\n  swap1\n  pop\n    /* \"#utility.yul\":3015:3381   */\n  swap2\n  swap1\n  pop\n  jump\t// out\n    /* \"#utility.yul\":3387:3806   */\ntag_20:\n    /* \"#utility.yul\":3553:3557   */\n  0x00\n    /* \"#utility.yul\":3591:3593   */\n  0x20\n    /* \"#utility.yul\":3580:3589   */\n  dup3\n    /* \"#utility.yul\":3576:3594   */\n  add\n    /* \"#utility.yul\":3568:3594   */\n  swap1\n  pop\n    /* \"#utility.yul\":3640:3649   */\n  dup2\n    /* \"#utility.yul\":3634:3638   */\n  dup2\n    /* \"#utility.yul\":3630:3650   */\n  sub\n    /* \"#utility.yul\":3626:3627   */\n  0x00\n    /* \"#utility.yul\":3615:3624   */\n  dup4\n    /* \"#utility.yul\":3611:3628   */\n  add\n    /* \"#utility.yul\":3604:3651   */\n  mstore\n    /* \"#utility.yul\":3668:3799   */\n  tag_76\n    /* \"#utility.yul\":3794:3798   */\n  dup2\n    /* \"#utility.yul\":3668:3799   */\n  tag_42\n  jump\t// in\ntag_76:\n    /* \"#utility.yul\":3660:3799   */\n  swap1\n  pop\n    /* \"#utility.yul\":3387:3806   */\n  swap2\n  swap1\n  pop\n  jump\t// out\n    /* \"#utility.yul\":3812:4163   */\ntag_23:\n    /* \"#utility.yul\":3882:3888   */\n  0x00\n    /* \"#utility.yul\":3931:3933   */\n  0x20\n    /* \"#utility.yul\":3919:3928   */\n  dup3\n    /* \"#utility.yul\":3910:3917   */\n  dup5\n    /* \"#utility.yul\":3906:3929   */\n  sub\n    /* \"#utility.yul\":3902:3934   */\n  slt\n    /* \"#utility.yul\":3899:4018   */\n  iszero\n  tag_78\n  jumpi\n    /* \"#utility.yul\":3937:4016   */\n  tag_79\n  tag_32\n  jump\t// in\ntag_79:\n    /* \"#utility.yul\":3899:4018   */\ntag_78:\n    /* \"#utility.yul\":4057:4058   */\n  0x00\n    /* \"#utility.yul\":4082:4146   */\n  tag_80\n    /* \"#utility.yul\":4138:4145   */\n  dup5\n    /* \"#utility.yul\":4129:4135   */\n  dup3\n    /* \"#utility.yul\":4118:4127   */\n  dup6\n    /* \"#utility.yul\":4114:4136   */\n  add\n    /* \"#utility.yul\":4082:4146   */\n  tag_37\n  jump\t// in\ntag_80:\n    /* \"#utility.yul\":4072:4146   */\n  swap2\n  pop\n    /* \"#utility.yul\":4028:4156   */\n  pop\n    /* \"#utility.yul\":3812:4163   */\n  swap3\n  swap2\n  pop\n  pop\n  jump\t// out\n    /* \"#utility.yul\":4169:4400   */\ntag_43:\n    /* \"#utility.yul\":4309:4343   */\n  0x4469726563746f7279206164647265737320646f6573206e6f7420696d706c65\n    /* \"#utility.yul\":4305:4306   */\n  0x00\n    /* \"#utility.yul\":4297:4303   */\n  dup3\n    /* \"#utility.yul\":4293:4307   */\n  add\n    /* \"#utility.yul\":4286:4344   */\n  mstore\n    /* \"#utility.yul\":4378:4392   */\n  0x6d656e74206f776e657228290000000000000000000000000000000000000000\n    /* \"#utility.yul\":4373:4375   */\n  0x20\n    /* \"#utility.yul\":4365:4371   */\n  dup3\n    /* \"#utility.yul\":4361:4376   */\n  add\n    /* \"#utility.yul\":4354:4393   */\n  mstore\n    /* \"#utility.yul\":4169:4400   */\n  pop\n  jump\t// out\n    /* \"#utility.yul\":4406:4772   */\ntag_44:\n    /* \"#utility.yul\":4548:4551   */\n  0x00\n    /* \"#utility.yul\":4569:4636   */\n  tag_83\n    /* \"#utility.yul\":4633:4635   */\n  0x2c\n    /* \"#utility.yul\":4628:4631   */\n  dup4\n    /* \"#utility.yul\":4569:4636   */\n  tag_38\n  jump\t// in\ntag_83:\n    /* \"#utility.yul\":4562:4636   */\n  swap2\n  pop\n    /* \"#utility.yul\":4645:4738   */\n  tag_84\n    /* \"#utility.yul\":4734:4737   */\n  dup3\n    /* \"#utility.yul\":4645:4738   */\n  tag_43\n  jump\t// in\ntag_84:\n    /* \"#utility.yul\":4763:4765   */\n  0x40\n    /* \"#utility.yul\":4758:4761   */\n  dup3\n    /* \"#utility.yul\":4754:4766   */\n  add\n    /* \"#utility.yul\":4747:4766   */\n  swap1\n  pop\n    /* \"#utility.yul\":4406:4772   */\n  swap2\n  swap1\n  pop\n  jump\t// out\n    /* \"#utility.yul\":4778:5197   */\ntag_29:\n    /* \"#utility.yul\":4944:4948   */\n  0x00\n    /* \"#utility.yul\":4982:4984   */\n  0x20\n    /* \"#utility.yul\":4971:4980   */\n  dup3\n    /* \"#utility.yul\":4967:4985   */\n  add\n    /* \"#utility.yul\":4959:4985   */\n  swap1\n  pop\n    /* \"#utility.yul\":5031:5040   */\n  dup2\n    /* \"#utility.yul\":5025:5029   */\n  dup2\n    /* \"#utility.yul\":5021:5041   */\n  sub\n    /* \"#utility.yul\":5017:5018   */\n  0x00\n    /* \"#utility.yul\":5006:5015   */\n  dup4\n    /* \"#utility.yul\":5002:5019   */\n  add\n    /* \"#utility.yul\":4995:5042   */\n  mstore\n    /* \"#utility.yul\":5059:5190   */\n  tag_86\n    /* \"#utility.yul\":5185:5189   */\n  dup2\n    /* \"#utility.yul\":5059:5190   */\n  tag_44\n  jump\t// in\ntag_86:\n    /* \"#utility.yul\":5051:5190   */\n  swap1\n  pop\n    /* \"#utility.yul\":4778:5197   */\n  swap2\n  swap1\n  pop\n  jump\t// out\n    /* \"hopium/uniswap/main/pool-finder.sol\":771:4734  contract PoolFinder is ImDirectory {... */\ntag_13:\n  mload(0x80)\n  mload(0xa0)\n  mload(0xc0)\n  codecopy(0x00, dataOffset(sub_0), dataSize(sub_0))\n  0x00\n  assignImmutable(\"0xb82689a7170af4bc238cea9f5ed91ccb0509ae7759ce9b8df7ae215c4191abd7\")\n  0x00\n  assignImmutable(\"0x4d9fac5dc90d70d79ceac3589bb998755cf60ab2ff110225b2bffe4b0c0e4742\")\n  0x00\n  assignImmutable(\"0xac8a4843910b5569f3915173c70dbcbb8947a9742ff1536cccc8b4f26cbdef89\")\n  return(0x00, dataSize(sub_0))\nstop\n\nsub_0: assembly {\n        /* \"hopium/uniswap/main/pool-finder.sol\":771:4734  contract PoolFinder is ImDirectory {... */\n      mstore(0x40, 0x80)\n      callvalue\n      dup1\n      iszero\n      tag_1\n      jumpi\n      revert(0x00, 0x00)\n    tag_1:\n      pop\n      jumpi(tag_2, lt(calldatasize, 0x04))\n      shr(0xe0, calldataload(0x00))\n      dup1\n      0x7c887c59\n      gt\n      tag_15\n      jumpi\n      dup1\n      0x7c887c59\n      eq\n      tag_9\n      jumpi\n      dup1\n      0x8da5cb5b\n      eq\n      tag_10\n      jumpi\n      dup1\n      0xa7590163\n      eq\n      tag_11\n      jumpi\n      dup1\n      0xb4b57c39\n      eq\n      tag_12\n      jumpi\n      dup1\n      0xba4c7be1\n      eq\n      tag_13\n      jumpi\n      dup1\n      0xdf697cc4\n      eq\n      tag_14\n      jumpi\n      jump(tag_2)\n    tag_15:\n      dup1\n      0x03d43001\n      eq\n      tag_3\n      jumpi\n      dup1\n      0x27262618\n      eq\n      tag_4\n      jumpi\n      dup1\n      0x38b88052\n      eq\n      tag_5\n      jumpi\n      dup1\n      0x4f0e0ef3\n      eq\n      tag_6\n      jumpi\n      dup1\n      0x6425f09e\n      eq\n      tag_7\n      jumpi\n      dup1\n      0x658a847a\n      eq\n      tag_8\n      jumpi\n    tag_2:\n      revert(0x00, 0x00)\n        /* \"hopium/uniswap/main/pool-finder.sol\":1795:3366  function findBestWethPool(address tokenAddress) public view returns (Pool memory pool) {... */\n    tag_3:\n      tag_16\n      0x04\n      dup1\n      calldatasize\n      sub\n      dup2\n      add\n      swap1\n      tag_17\n      swap2\n      swap1\n      tag_18\n      jump\t// in\n    tag_17:\n      tag_19\n      jump\t// in\n    tag_16:\n      mload(0x40)\n      tag_20\n      swap2\n      swap1\n      tag_21\n      jump\t// in\n    tag_20:\n      mload(0x40)\n      dup1\n      swap2\n      sub\n      swap1\n      return\n        /* \"hopium/common/interface/imDirectory.sol\":1272:1408  function fetchFromDirectory(string memory _key) public view returns (address) {... */\n    tag_4:\n      tag_22\n      0x04\n      dup1\n      calldatasize\n      sub\n      dup2\n      add\n      swap1\n      tag_23\n      swap2\n      swap1\n      tag_24\n      jump\t// in\n    tag_23:\n      tag_25\n      jump\t// in\n    tag_22:\n      mload(0x40)\n      tag_26\n      swap2\n      swap1\n      tag_27\n      jump\t// in\n    tag_26:\n      mload(0x40)\n      dup1\n      swap2\n      sub\n      swap1\n      return\n        /* \"hopium/uniswap/main/pool-finder.sol\":1754:1788  uint256 public staleTime = 6 hours */\n    tag_5:\n      tag_28\n      tag_29\n      jump\t// in\n    tag_28:\n      mload(0x40)\n      tag_30\n      swap2\n      swap1\n      tag_31\n      jump\t// in\n    tag_30:\n      mload(0x40)\n      dup1\n      swap2\n      sub\n      swap1\n      return\n        /* \"hopium/uniswap/main/pool-finder.sol\":812:848  address public immutable wethAddress */\n    tag_6:\n      tag_32\n      tag_33\n      jump\t// in\n    tag_32:\n      mload(0x40)\n      tag_34\n      swap2\n      swap1\n      tag_27\n      jump\t// in\n    tag_34:\n      mload(0x40)\n      dup1\n      swap2\n      sub\n      swap1\n      return\n        /* \"hopium/uniswap/main/pool-finder.sol\":3776:4613  function getBestWethPoolAndUpdateIfStale(address tokenAddress) public returns (Pool memory out) {... */\n    tag_7:\n      tag_35\n      0x04\n      dup1\n      calldatasize\n      sub\n      dup2\n      add\n      swap1\n      tag_36\n      swap2\n      swap1\n      tag_18\n      jump\t// in\n    tag_36:\n      tag_37\n      jump\t// in\n    tag_35:\n      mload(0x40)\n      tag_38\n      swap2\n      swap1\n      tag_21\n      jump\t// in\n    tag_38:\n      mload(0x40)\n      dup1\n      swap2\n      sub\n      swap1\n      return\n        /* \"hopium/common/interface/imDirectory.sol\":336:363  IDirectory public Directory */\n    tag_8:\n      tag_39\n      tag_40\n      jump\t// in\n    tag_39:\n      mload(0x40)\n      tag_41\n      swap2\n      swap1\n      tag_42\n      jump\t// in\n    tag_41:\n      mload(0x40)\n      dup1\n      swap2\n      sub\n      swap1\n      return\n        /* \"hopium/uniswap/main/pool-finder.sol\":904:948  IUniswapV3Factory public immutable v3Factory */\n    tag_9:\n      tag_43\n      tag_44\n      jump\t// in\n    tag_43:\n      mload(0x40)\n      tag_45\n      swap2\n      swap1\n      tag_46\n      jump\t// in\n    tag_45:\n      mload(0x40)\n      dup1\n      swap2\n      sub\n      swap1\n      return\n        /* \"hopium/common/interface/imDirectory.sol\":1178:1266  function owner() public view returns (address) {... */\n    tag_10:\n      tag_47\n      tag_48\n      jump\t// in\n    tag_47:\n      mload(0x40)\n      tag_49\n      swap2\n      swap1\n      tag_27\n      jump\t// in\n    tag_49:\n      mload(0x40)\n      dup1\n      swap2\n      sub\n      swap1\n      return\n        /* \"hopium/uniswap/main/pool-finder.sol\":4619:4732  function setStaleTimePoolCache(uint256 newStaleTime) external onlyOwner {... */\n    tag_11:\n      tag_50\n      0x04\n      dup1\n      calldatasize\n      sub\n      dup2\n      add\n      swap1\n      tag_51\n      swap2\n      swap1\n      tag_52\n      jump\t// in\n    tag_51:\n      tag_53\n      jump\t// in\n    tag_50:\n      stop\n        /* \"hopium/uniswap/main/pool-finder.sol\":854:898  IUniswapV2Factory public immutable v2Factory */\n    tag_12:\n      tag_54\n      tag_55\n      jump\t// in\n    tag_54:\n      mload(0x40)\n      tag_56\n      swap2\n      swap1\n      tag_57\n      jump\t// in\n    tag_56:\n      mload(0x40)\n      dup1\n      swap2\n      sub\n      swap1\n      return\n        /* \"hopium/common/interface/imDirectory.sol\":470:583  function changeDirectoryAddress(address _directory) external onlyOwner {... */\n    tag_13:\n      tag_58\n      0x04\n      dup1\n      calldatasize\n      sub\n      dup2\n      add\n      swap1\n      tag_59\n      swap2\n      swap1\n      tag_18\n      jump\t// in\n    tag_59:\n      tag_60\n      jump\t// in\n    tag_58:\n      stop\n        /* \"hopium/uniswap/main/pool-finder.sol\":3442:3683  function getBestWethPool(address tokenAddress) external view returns (Pool memory pool) {... */\n    tag_14:\n      tag_61\n      0x04\n      dup1\n      calldatasize\n      sub\n      dup2\n      add\n      swap1\n      tag_62\n      swap2\n      swap1\n      tag_18\n      jump\t// in\n    tag_62:\n      tag_63\n      jump\t// in\n    tag_61:\n      mload(0x40)\n      tag_64\n      swap2\n      swap1\n      tag_21\n      jump\t// in\n    tag_64:\n      mload(0x40)\n      dup1\n      swap2\n      sub\n      swap1\n      return\n        /* \"hopium/uniswap/main/pool-finder.sol\":1795:3366  function findBestWethPool(address tokenAddress) public view returns (Pool memory pool) {... */\n    tag_19:\n        /* \"hopium/uniswap/main/pool-finder.sol\":1864:1880  Pool memory pool */\n      tag_65\n      tag_66\n      jump\t// in\n    tag_65:\n        /* \"hopium/uniswap/main/pool-finder.sol\":1920:1921  0 */\n      0x00\n        /* \"hopium/uniswap/main/pool-finder.sol\":1896:1922  tokenAddress == address(0) */\n      0xffffffffffffffffffffffffffffffffffffffff\n      and\n        /* \"hopium/uniswap/main/pool-finder.sol\":1896:1908  tokenAddress */\n      dup3\n        /* \"hopium/uniswap/main/pool-finder.sol\":1896:1922  tokenAddress == address(0) */\n      0xffffffffffffffffffffffffffffffffffffffff\n      and\n      sub\n        /* \"hopium/uniswap/main/pool-finder.sol\":1892:1944  if (tokenAddress == address(0)) revert ZeroAddress() */\n      tag_68\n      jumpi\n        /* \"hopium/uniswap/main/pool-finder.sol\":1931:1944  ZeroAddress() */\n      mload(0x40)\n      0xd92e233d00000000000000000000000000000000000000000000000000000000\n      dup2\n      mstore\n      0x04\n      add\n      mload(0x40)\n      dup1\n      swap2\n      sub\n      swap1\n      revert\n        /* \"hopium/uniswap/main/pool-finder.sol\":1892:1944  if (tokenAddress == address(0)) revert ZeroAddress() */\n    tag_68:\n        /* \"hopium/uniswap/main/pool-finder.sol\":1974:1985  wethAddress */\n      immutable(\"0xac8a4843910b5569f3915173c70dbcbb8947a9742ff1536cccc8b4f26cbdef89\")\n        /* \"hopium/uniswap/main/pool-finder.sol\":1958:1985  tokenAddress == wethAddress */\n      0xffffffffffffffffffffffffffffffffffffffff\n      and\n        /* \"hopium/uniswap/main/pool-finder.sol\":1958:1970  tokenAddress */\n      dup3\n        /* \"hopium/uniswap/main/pool-finder.sol\":1958:1985  tokenAddress == wethAddress */\n      0xffffffffffffffffffffffffffffffffffffffff\n      and\n      sub\n        /* \"hopium/uniswap/main/pool-finder.sol\":1954:2007  if (tokenAddress == wethAddress) revert TokenIsWETH() */\n      tag_69\n      jumpi\n        /* \"hopium/uniswap/main/pool-finder.sol\":1994:2007  TokenIsWETH() */\n      mload(0x40)\n      0x871c78af00000000000000000000000000000000000000000000000000000000\n      dup2\n      mstore\n      0x04\n      add\n      mload(0x40)\n      dup1\n      swap2\n      sub\n      swap1\n      revert\n        /* \"hopium/uniswap/main/pool-finder.sol\":1954:2007  if (tokenAddress == wethAddress) revert TokenIsWETH() */\n    tag_69:\n        /* \"hopium/uniswap/main/pool-finder.sol\":2018:2031  address _weth */\n      0x00\n        /* \"hopium/uniswap/main/pool-finder.sol\":2034:2045  wethAddress */\n      immutable(\"0xac8a4843910b5569f3915173c70dbcbb8947a9742ff1536cccc8b4f26cbdef89\")\n        /* \"hopium/uniswap/main/pool-finder.sol\":2018:2045  address _weth = wethAddress */\n      swap1\n      pop\n        /* \"hopium/uniswap/main/pool-finder.sol\":2055:2066  IERC20 Weth */\n      0x00\n        /* \"hopium/uniswap/main/pool-finder.sol\":2076:2081  _weth */\n      dup2\n        /* \"hopium/uniswap/main/pool-finder.sol\":2055:2082  IERC20 Weth = IERC20(_weth) */\n      swap1\n      pop\n        /* \"hopium/uniswap/main/pool-finder.sol\":2092:2117  uint256 poolWethLiquidity */\n      0x00\n        /* \"hopium/uniswap/main/pool-finder.sol\":2158:2172  address v2Pair */\n      0x00\n        /* \"hopium/uniswap/main/pool-finder.sol\":2175:2184  v2Factory */\n      immutable(\"0x4d9fac5dc90d70d79ceac3589bb998755cf60ab2ff110225b2bffe4b0c0e4742\")\n        /* \"hopium/uniswap/main/pool-finder.sol\":2175:2192  v2Factory.getPair */\n      0xffffffffffffffffffffffffffffffffffffffff\n      and\n      0xe6a43905\n        /* \"hopium/uniswap/main/pool-finder.sol\":2193:2205  tokenAddress */\n      dup8\n        /* \"hopium/uniswap/main/pool-finder.sol\":2207:2212  _weth */\n      dup7\n        /* \"hopium/uniswap/main/pool-finder.sol\":2175:2213  v2Factory.getPair(tokenAddress, _weth) */\n      mload(0x40)\n      dup4\n      0xffffffff\n      and\n      0xe0\n      shl\n      dup2\n      mstore\n      0x04\n      add\n      tag_70\n      swap3\n      swap2\n      swap1\n      tag_71\n      jump\t// in\n    tag_70:\n      0x20\n      mload(0x40)\n      dup1\n      dup4\n      sub\n      dup2\n      dup7\n      gas\n      staticcall\n      iszero\n      dup1\n      iszero\n      tag_73\n      jumpi\n      returndatacopy(0x00, 0x00, returndatasize)\n      revert(0x00, returndatasize)\n    tag_73:\n      pop\n      pop\n      pop\n      pop\n      mload(0x40)\n      returndatasize\n      not(0x1f)\n      0x1f\n      dup3\n      add\n      and\n      dup3\n      add\n      dup1\n      0x40\n      mstore\n      pop\n      dup2\n      add\n      swap1\n      tag_74\n      swap2\n      swap1\n      tag_75\n      jump\t// in\n    tag_74:\n        /* \"hopium/uniswap/main/pool-finder.sol\":2158:2213  address v2Pair = v2Factory.getPair(tokenAddress, _weth) */\n      swap1\n      pop\n        /* \"hopium/uniswap/main/pool-finder.sol\":2245:2246  0 */\n      0x00\n        /* \"hopium/uniswap/main/pool-finder.sol\":2227:2247  v2Pair != address(0) */\n      0xffffffffffffffffffffffffffffffffffffffff\n      and\n        /* \"hopium/uniswap/main/pool-finder.sol\":2227:2233  v2Pair */\n      dup2\n        /* \"hopium/uniswap/main/pool-finder.sol\":2227:2247  v2Pair != address(0) */\n      0xffffffffffffffffffffffffffffffffffffffff\n      and\n      eq\n        /* \"hopium/uniswap/main/pool-finder.sol\":2223:2670  if (v2Pair != address(0)) {... */\n      tag_76\n      jumpi\n        /* \"hopium/uniswap/main/pool-finder.sol\":2264:2274  uint112 r0 */\n      0x00\n        /* \"hopium/uniswap/main/pool-finder.sol\":2276:2286  uint112 r1 */\n      0x00\n        /* \"hopium/uniswap/main/pool-finder.sol\":2307:2313  v2Pair */\n      dup3\n        /* \"hopium/uniswap/main/pool-finder.sol\":2292:2326  IUniswapV2Pair(v2Pair).getReserves */\n      0xffffffffffffffffffffffffffffffffffffffff\n      and\n      0x0902f1ac\n        /* \"hopium/uniswap/main/pool-finder.sol\":2292:2328  IUniswapV2Pair(v2Pair).getReserves() */\n      mload(0x40)\n      dup2\n      0xffffffff\n      and\n      0xe0\n      shl\n      dup2\n      mstore\n      0x04\n      add\n      0x60\n      mload(0x40)\n      dup1\n      dup4\n      sub\n      dup2\n      dup7\n      gas\n      staticcall\n      iszero\n      dup1\n      iszero\n      tag_78\n      jumpi\n      returndatacopy(0x00, 0x00, returndatasize)\n      revert(0x00, returndatasize)\n    tag_78:\n      pop\n      pop\n      pop\n      pop\n      mload(0x40)\n      returndatasize\n      not(0x1f)\n      0x1f\n      dup3\n      add\n      and\n      dup3\n      add\n      dup1\n      0x40\n      mstore\n      pop\n      dup2\n      add\n      swap1\n      tag_79\n      swap2\n      swap1\n      tag_80\n      jump\t// in\n    tag_79:\n        /* \"hopium/uniswap/main/pool-finder.sol\":2263:2328  (uint112 r0, uint112 r1, ) = IUniswapV2Pair(v2Pair).getReserves() */\n      pop\n      swap2\n      pop\n      swap2\n      pop\n        /* \"hopium/uniswap/main/pool-finder.sol\":2342:2352  address t0 */\n      0x00\n        /* \"hopium/uniswap/main/pool-finder.sol\":2370:2376  v2Pair */\n      dup4\n        /* \"hopium/uniswap/main/pool-finder.sol\":2355:2384  IUniswapV2Pair(v2Pair).token0 */\n      0xffffffffffffffffffffffffffffffffffffffff\n      and\n      0x0dfe1681\n        /* \"hopium/uniswap/main/pool-finder.sol\":2355:2386  IUniswapV2Pair(v2Pair).token0() */\n      mload(0x40)\n      dup2\n      0xffffffff\n      and\n      0xe0\n      shl\n      dup2\n      mstore\n      0x04\n      add\n      0x20\n      mload(0x40)\n      dup1\n      dup4\n      sub\n      dup2\n      dup7\n      gas\n      staticcall\n      iszero\n      dup1\n      iszero\n      tag_82\n      jumpi\n      returndatacopy(0x00, 0x00, returndatasize)\n      revert(0x00, returndatasize)\n    tag_82:\n      pop\n      pop\n      pop\n      pop\n      mload(0x40)\n      returndatasize\n      not(0x1f)\n      0x1f\n      dup3\n      add\n      and\n      dup3\n      add\n      dup1\n      0x40\n      mstore\n      pop\n      dup2\n      add\n      swap1\n      tag_83\n      swap2\n      swap1\n      tag_75\n      jump\t// in\n    tag_83:\n        /* \"hopium/uniswap/main/pool-finder.sol\":2342:2386  address t0 = IUniswapV2Pair(v2Pair).token0() */\n      swap1\n      pop\n        /* \"hopium/uniswap/main/pool-finder.sol\":2400:2409  uint256 w */\n      0x00\n        /* \"hopium/uniswap/main/pool-finder.sol\":2419:2424  _weth */\n      dup8\n        /* \"hopium/uniswap/main/pool-finder.sol\":2413:2424  t0 == _weth */\n      0xffffffffffffffffffffffffffffffffffffffff\n      and\n        /* \"hopium/uniswap/main/pool-finder.sol\":2413:2415  t0 */\n      dup3\n        /* \"hopium/uniswap/main/pool-finder.sol\":2413:2424  t0 == _weth */\n      0xffffffffffffffffffffffffffffffffffffffff\n      and\n      eq\n        /* \"hopium/uniswap/main/pool-finder.sol\":2412:2453  (t0 == _weth) ? uint256(r0) : uint256(r1) */\n      tag_84\n      jumpi\n        /* \"hopium/uniswap/main/pool-finder.sol\":2450:2452  r1 */\n      dup3\n        /* \"hopium/uniswap/main/pool-finder.sol\":2442:2453  uint256(r1) */\n      0xffffffffffffffffffffffffffff\n      and\n        /* \"hopium/uniswap/main/pool-finder.sol\":2412:2453  (t0 == _weth) ? uint256(r0) : uint256(r1) */\n      jump(tag_85)\n    tag_84:\n        /* \"hopium/uniswap/main/pool-finder.sol\":2436:2438  r0 */\n      dup4\n        /* \"hopium/uniswap/main/pool-finder.sol\":2428:2439  uint256(r0) */\n      0xffffffffffffffffffffffffffff\n      and\n        /* \"hopium/uniswap/main/pool-finder.sol\":2412:2453  (t0 == _weth) ? uint256(r0) : uint256(r1) */\n    tag_85:\n        /* \"hopium/uniswap/main/pool-finder.sol\":2400:2453  uint256 w = (t0 == _weth) ? uint256(r0) : uint256(r1) */\n      swap1\n      pop\n        /* \"hopium/uniswap/main/pool-finder.sol\":2475:2492  poolWethLiquidity */\n      dup6\n        /* \"hopium/uniswap/main/pool-finder.sol\":2471:2472  w */\n      dup2\n        /* \"hopium/uniswap/main/pool-finder.sol\":2471:2492  w > poolWethLiquidity */\n      gt\n        /* \"hopium/uniswap/main/pool-finder.sol\":2467:2660  if (w > poolWethLiquidity) {... */\n      iszero\n      tag_86\n      jumpi\n        /* \"hopium/uniswap/main/pool-finder.sol\":2528:2529  0 */\n      0x00\n        /* \"hopium/uniswap/main/pool-finder.sol\":2512:2516  pool */\n      dup10\n        /* \"hopium/uniswap/main/pool-finder.sol\":2512:2525  pool.isV3Pool */\n      0x40\n      add\n        /* \"hopium/uniswap/main/pool-finder.sol\":2512:2529  pool.isV3Pool = 0 */\n      swap1\n      0xff\n      and\n      swap1\n      dup2\n      0xff\n      and\n      dup2\n      mstore\n      pop\n      pop\n        /* \"hopium/uniswap/main/pool-finder.sol\":2566:2572  v2Pair */\n      dup5\n        /* \"hopium/uniswap/main/pool-finder.sol\":2547:2551  pool */\n      dup10\n        /* \"hopium/uniswap/main/pool-finder.sol\":2547:2563  pool.poolAddress */\n      0x00\n      add\n        /* \"hopium/uniswap/main/pool-finder.sol\":2547:2572  pool.poolAddress = v2Pair */\n      swap1\n      0xffffffffffffffffffffffffffffffffffffffff\n      and\n      swap1\n      dup2\n      0xffffffffffffffffffffffffffffffffffffffff\n      and\n      dup2\n      mstore\n      pop\n      pop\n        /* \"hopium/uniswap/main/pool-finder.sol\":2605:2606  0 */\n      0x00\n        /* \"hopium/uniswap/main/pool-finder.sol\":2590:2594  pool */\n      dup10\n        /* \"hopium/uniswap/main/pool-finder.sol\":2590:2602  pool.poolFee */\n      0x20\n      add\n        /* \"hopium/uniswap/main/pool-finder.sol\":2590:2606  pool.poolFee = 0 */\n      swap1\n      0xffffff\n      and\n      swap1\n      dup2\n      0xffffff\n      and\n      dup2\n      mstore\n      pop\n      pop\n        /* \"hopium/uniswap/main/pool-finder.sol\":2644:2645  w */\n      dup1\n        /* \"hopium/uniswap/main/pool-finder.sol\":2624:2645  poolWethLiquidity = w */\n      swap6\n      pop\n        /* \"hopium/uniswap/main/pool-finder.sol\":2467:2660  if (w > poolWethLiquidity) {... */\n    tag_86:\n        /* \"hopium/uniswap/main/pool-finder.sol\":2249:2670  {... */\n      pop\n      pop\n      pop\n      pop\n        /* \"hopium/uniswap/main/pool-finder.sol\":2223:2670  if (v2Pair != address(0)) {... */\n    tag_76:\n        /* \"hopium/uniswap/main/pool-finder.sol\":2740:2749  uint256 i */\n      0x00\n        /* \"hopium/uniswap/main/pool-finder.sol\":2735:3308  for (uint256 i; i < V3_FEE_COUNT; ) {... */\n    tag_87:\n        /* \"hopium/uniswap/main/pool-finder.sol\":1746:1747  2 */\n      0x02\n        /* \"hopium/uniswap/main/pool-finder.sol\":2751:2752  i */\n      dup2\n        /* \"hopium/uniswap/main/pool-finder.sol\":2751:2767  i < V3_FEE_COUNT */\n      lt\n        /* \"hopium/uniswap/main/pool-finder.sol\":2735:3308  for (uint256 i; i < V3_FEE_COUNT; ) {... */\n      iszero\n      tag_88\n      jumpi\n        /* \"hopium/uniswap/main/pool-finder.sol\":2832:2842  uint24 fee */\n      0x00\n        /* \"hopium/uniswap/main/pool-finder.sol\":2851:2852  0 */\n      0x00\n        /* \"hopium/uniswap/main/pool-finder.sol\":2846:2847  i */\n      dup3\n        /* \"hopium/uniswap/main/pool-finder.sol\":2846:2852  i == 0 */\n      eq\n        /* \"hopium/uniswap/main/pool-finder.sol\":2845:2873  (i == 0) ? V3_FEE0 : V3_FEE1 */\n      tag_90\n      jumpi\n        /* \"hopium/uniswap/main/pool-finder.sol\":1687:1692  10000 */\n      0x2710\n        /* \"hopium/uniswap/main/pool-finder.sol\":2845:2873  (i == 0) ? V3_FEE0 : V3_FEE1 */\n      jump(tag_91)\n    tag_90:\n        /* \"hopium/uniswap/main/pool-finder.sol\":1632:1636  3000 */\n      0x0bb8\n        /* \"hopium/uniswap/main/pool-finder.sol\":2845:2873  (i == 0) ? V3_FEE0 : V3_FEE1 */\n    tag_91:\n        /* \"hopium/uniswap/main/pool-finder.sol\":2832:2873  uint24 fee = (i == 0) ? V3_FEE0 : V3_FEE1 */\n      swap1\n      pop\n        /* \"hopium/uniswap/main/pool-finder.sol\":2888:2897  address p */\n      0x00\n        /* \"hopium/uniswap/main/pool-finder.sol\":2900:2909  v3Factory */\n      immutable(\"0xb82689a7170af4bc238cea9f5ed91ccb0509ae7759ce9b8df7ae215c4191abd7\")\n        /* \"hopium/uniswap/main/pool-finder.sol\":2900:2917  v3Factory.getPool */\n      0xffffffffffffffffffffffffffffffffffffffff\n      and\n      0x1698ee82\n        /* \"hopium/uniswap/main/pool-finder.sol\":2918:2930  tokenAddress */\n      dup11\n        /* \"hopium/uniswap/main/pool-finder.sol\":2932:2937  _weth */\n      dup10\n        /* \"hopium/uniswap/main/pool-finder.sol\":2939:2942  fee */\n      dup6\n        /* \"hopium/uniswap/main/pool-finder.sol\":2900:2943  v3Factory.getPool(tokenAddress, _weth, fee) */\n      mload(0x40)\n      dup5\n      0xffffffff\n      and\n      0xe0\n      shl\n      dup2\n      mstore\n      0x04\n      add\n      tag_92\n      swap4\n      swap3\n      swap2\n      swap1\n      tag_93\n      jump\t// in\n    tag_92:\n      0x20\n      mload(0x40)\n      dup1\n      dup4\n      sub\n      dup2\n      dup7\n      gas\n      staticcall\n      iszero\n      dup1\n      iszero\n      tag_95\n      jumpi\n      returndatacopy(0x00, 0x00, returndatasize)\n      revert(0x00, returndatasize)\n    tag_95:\n      pop\n      pop\n      pop\n      pop\n      mload(0x40)\n      returndatasize\n      not(0x1f)\n      0x1f\n      dup3\n      add\n      and\n      dup3\n      add\n      dup1\n      0x40\n      mstore\n      pop\n      dup2\n      add\n      swap1\n      tag_96\n      swap2\n      swap1\n      tag_75\n      jump\t// in\n    tag_96:\n        /* \"hopium/uniswap/main/pool-finder.sol\":2888:2943  address p = v3Factory.getPool(tokenAddress, _weth, fee) */\n      swap1\n      pop\n        /* \"hopium/uniswap/main/pool-finder.sol\":2974:2975  0 */\n      0x00\n        /* \"hopium/uniswap/main/pool-finder.sol\":2961:2976  p != address(0) */\n      0xffffffffffffffffffffffffffffffffffffffff\n      and\n        /* \"hopium/uniswap/main/pool-finder.sol\":2961:2962  p */\n      dup2\n        /* \"hopium/uniswap/main/pool-finder.sol\":2961:2976  p != address(0) */\n      0xffffffffffffffffffffffffffffffffffffffff\n      and\n      eq\n        /* \"hopium/uniswap/main/pool-finder.sol\":2957:3267  if (p != address(0)) {... */\n      tag_97\n      jumpi\n        /* \"hopium/uniswap/main/pool-finder.sol\":2996:3005  uint256 w */\n      0x00\n        /* \"hopium/uniswap/main/pool-finder.sol\":3008:3012  Weth */\n      dup7\n        /* \"hopium/uniswap/main/pool-finder.sol\":3008:3022  Weth.balanceOf */\n      0xffffffffffffffffffffffffffffffffffffffff\n      and\n      0x70a08231\n        /* \"hopium/uniswap/main/pool-finder.sol\":3023:3024  p */\n      dup4\n        /* \"hopium/uniswap/main/pool-finder.sol\":3008:3025  Weth.balanceOf(p) */\n      mload(0x40)\n      dup3\n      0xffffffff\n      and\n      0xe0\n      shl\n      dup2\n      mstore\n      0x04\n      add\n      tag_98\n      swap2\n      swap1\n      tag_27\n      jump\t// in\n    tag_98:\n      0x20\n      mload(0x40)\n      dup1\n      dup4\n      sub\n      dup2\n      dup7\n      gas\n      staticcall\n      iszero\n      dup1\n      iszero\n      tag_100\n      jumpi\n      returndatacopy(0x00, 0x00, returndatasize)\n      revert(0x00, returndatasize)\n    tag_100:\n      pop\n      pop\n      pop\n      pop\n      mload(0x40)\n      returndatasize\n      not(0x1f)\n      0x1f\n      dup3\n      add\n      and\n      dup3\n      add\n      dup1\n      0x40\n      mstore\n      pop\n      dup2\n      add\n      swap1\n      tag_101\n      swap2\n      swap1\n      tag_102\n      jump\t// in\n    tag_101:\n        /* \"hopium/uniswap/main/pool-finder.sol\":2996:3025  uint256 w = Weth.balanceOf(p) */\n      swap1\n      pop\n        /* \"hopium/uniswap/main/pool-finder.sol\":3051:3068  poolWethLiquidity */\n      dup6\n        /* \"hopium/uniswap/main/pool-finder.sol\":3047:3048  w */\n      dup2\n        /* \"hopium/uniswap/main/pool-finder.sol\":3047:3068  w > poolWethLiquidity */\n      gt\n        /* \"hopium/uniswap/main/pool-finder.sol\":3043:3253  if (w > poolWethLiquidity) {... */\n      iszero\n      tag_103\n      jumpi\n        /* \"hopium/uniswap/main/pool-finder.sol\":3108:3109  1 */\n      0x01\n        /* \"hopium/uniswap/main/pool-finder.sol\":3092:3096  pool */\n      dup10\n        /* \"hopium/uniswap/main/pool-finder.sol\":3092:3105  pool.isV3Pool */\n      0x40\n      add\n        /* \"hopium/uniswap/main/pool-finder.sol\":3092:3109  pool.isV3Pool = 1 */\n      swap1\n      0xff\n      and\n      swap1\n      dup2\n      0xff\n      and\n      dup2\n      mstore\n      pop\n      pop\n        /* \"hopium/uniswap/main/pool-finder.sol\":3150:3151  p */\n      dup2\n        /* \"hopium/uniswap/main/pool-finder.sol\":3131:3135  pool */\n      dup10\n        /* \"hopium/uniswap/main/pool-finder.sol\":3131:3147  pool.poolAddress */\n      0x00\n      add\n        /* \"hopium/uniswap/main/pool-finder.sol\":3131:3151  pool.poolAddress = p */\n      swap1\n      0xffffffffffffffffffffffffffffffffffffffff\n      and\n      swap1\n      dup2\n      0xffffffffffffffffffffffffffffffffffffffff\n      and\n      dup2\n      mstore\n      pop\n      pop\n        /* \"hopium/uniswap/main/pool-finder.sol\":3188:3191  fee */\n      dup3\n        /* \"hopium/uniswap/main/pool-finder.sol\":3173:3177  pool */\n      dup10\n        /* \"hopium/uniswap/main/pool-finder.sol\":3173:3185  pool.poolFee */\n      0x20\n      add\n        /* \"hopium/uniswap/main/pool-finder.sol\":3173:3191  pool.poolFee = fee */\n      swap1\n      0xffffff\n      and\n      swap1\n      dup2\n      0xffffff\n      and\n      dup2\n      mstore\n      pop\n      pop\n        /* \"hopium/uniswap/main/pool-finder.sol\":3233:3234  w */\n      dup1\n        /* \"hopium/uniswap/main/pool-finder.sol\":3213:3234  poolWethLiquidity = w */\n      swap6\n      pop\n        /* \"hopium/uniswap/main/pool-finder.sol\":3043:3253  if (w > poolWethLiquidity) {... */\n    tag_103:\n        /* \"hopium/uniswap/main/pool-finder.sol\":2978:3267  {... */\n      pop\n        /* \"hopium/uniswap/main/pool-finder.sol\":2957:3267  if (p != address(0)) {... */\n    tag_97:\n        /* \"hopium/uniswap/main/pool-finder.sol\":3292:3295  ++i */\n      dup3\n      0x01\n      add\n      swap3\n      pop\n        /* \"hopium/uniswap/main/pool-finder.sol\":2771:3308  {... */\n      pop\n      pop\n        /* \"hopium/uniswap/main/pool-finder.sol\":2735:3308  for (uint256 i; i < V3_FEE_COUNT; ) {... */\n      jump(tag_87)\n    tag_88:\n      pop\n        /* \"hopium/uniswap/main/pool-finder.sol\":3343:3358  block.timestamp */\n      timestamp\n        /* \"hopium/uniswap/main/pool-finder.sol\":3318:3322  pool */\n      dup6\n        /* \"hopium/uniswap/main/pool-finder.sol\":3318:3333  pool.lastCached */\n      0x60\n      add\n        /* \"hopium/uniswap/main/pool-finder.sol\":3318:3359  pool.lastCached = uint64(block.timestamp) */\n      swap1\n      0xffffffffffffffff\n      and\n      swap1\n      dup2\n      0xffffffffffffffff\n      and\n      dup2\n      mstore\n      pop\n      pop\n        /* \"hopium/uniswap/main/pool-finder.sol\":1882:3366  {... */\n      pop\n      pop\n      pop\n      pop\n        /* \"hopium/uniswap/main/pool-finder.sol\":1795:3366  function findBestWethPool(address tokenAddress) public view returns (Pool memory pool) {... */\n      swap2\n      swap1\n      pop\n      jump\t// out\n        /* \"hopium/common/interface/imDirectory.sol\":1272:1408  function fetchFromDirectory(string memory _key) public view returns (address) {... */\n    tag_25:\n        /* \"hopium/common/interface/imDirectory.sol\":1341:1348  address */\n      0x00\n        /* \"hopium/common/interface/imDirectory.sol\":1367:1376  Directory */\n      0x00\n      0x00\n      swap1\n      sload\n      swap1\n      0x0100\n      exp\n      swap1\n      div\n      0xffffffffffffffffffffffffffffffffffffffff\n      and\n        /* \"hopium/common/interface/imDirectory.sol\":1367:1395  Directory.fetchFromDirectory */\n      0xffffffffffffffffffffffffffffffffffffffff\n      and\n      0x27262618\n        /* \"hopium/common/interface/imDirectory.sol\":1396:1400  _key */\n      dup4\n        /* \"hopium/common/interface/imDirectory.sol\":1367:1401  Directory.fetchFromDirectory(_key) */\n      mload(0x40)\n      dup3\n      0xffffffff\n      and\n      0xe0\n      shl\n      dup2\n      mstore\n      0x04\n      add\n      tag_105\n      swap2\n      swap1\n      tag_106\n      jump\t// in\n    tag_105:\n      0x20\n      mload(0x40)\n      dup1\n      dup4\n      sub\n      dup2\n      dup7\n      gas\n      staticcall\n      iszero\n      dup1\n      iszero\n      tag_108\n      jumpi\n      returndatacopy(0x00, 0x00, returndatasize)\n      revert(0x00, returndatasize)\n    tag_108:\n      pop\n      pop\n      pop\n      pop\n      mload(0x40)\n      returndatasize\n      not(0x1f)\n      0x1f\n      dup3\n      add\n      and\n      dup3\n      add\n      dup1\n      0x40\n      mstore\n      pop\n      dup2\n      add\n      swap1\n      tag_109\n      swap2\n      swap1\n      tag_75\n      jump\t// in\n    tag_109:\n        /* \"hopium/common/interface/imDirectory.sol\":1360:1401  return Directory.fetchFromDirectory(_key) */\n      swap1\n      pop\n        /* \"hopium/common/interface/imDirectory.sol\":1272:1408  function fetchFromDirectory(string memory _key) public view returns (address) {... */\n      swap2\n      swap1\n      pop\n      jump\t// out\n        /* \"hopium/uniswap/main/pool-finder.sol\":1754:1788  uint256 public staleTime = 6 hours */\n    tag_29:\n      sload(0x02)\n      dup2\n      jump\t// out\n        /* \"hopium/uniswap/main/pool-finder.sol\":812:848  address public immutable wethAddress */\n    tag_33:\n      immutable(\"0xac8a4843910b5569f3915173c70dbcbb8947a9742ff1536cccc8b4f26cbdef89\")\n      dup2\n      jump\t// out\n        /* \"hopium/uniswap/main/pool-finder.sol\":3776:4613  function getBestWethPoolAndUpdateIfStale(address tokenAddress) public returns (Pool memory out) {... */\n    tag_37:\n        /* \"hopium/uniswap/main/pool-finder.sol\":3855:3870  Pool memory out */\n      tag_110\n      tag_66\n      jump\t// in\n    tag_110:\n        /* \"hopium/uniswap/main/pool-finder.sol\":3882:3899  Pool storage slot */\n      0x00\n        /* \"hopium/uniswap/main/pool-finder.sol\":3902:3913  cachedPools */\n      0x01\n        /* \"hopium/uniswap/main/pool-finder.sol\":3902:3927  cachedPools[tokenAddress] */\n      0x00\n        /* \"hopium/uniswap/main/pool-finder.sol\":3914:3926  tokenAddress */\n      dup5\n        /* \"hopium/uniswap/main/pool-finder.sol\":3902:3927  cachedPools[tokenAddress] */\n      0xffffffffffffffffffffffffffffffffffffffff\n      and\n      0xffffffffffffffffffffffffffffffffffffffff\n      and\n      dup2\n      mstore\n      0x20\n      add\n      swap1\n      dup2\n      mstore\n      0x20\n      add\n      0x00\n      keccak256\n        /* \"hopium/uniswap/main/pool-finder.sol\":3882:3927  Pool storage slot = cachedPools[tokenAddress] */\n      swap1\n      pop\n        /* \"hopium/uniswap/main/pool-finder.sol\":3990:3991  0 */\n      0x00\n        /* \"hopium/uniswap/main/pool-finder.sol\":3962:3992  slot.poolAddress == address(0) */\n      0xffffffffffffffffffffffffffffffffffffffff\n      and\n        /* \"hopium/uniswap/main/pool-finder.sol\":3962:3966  slot */\n      dup2\n        /* \"hopium/uniswap/main/pool-finder.sol\":3962:3978  slot.poolAddress */\n      0x00\n      add\n      0x00\n      swap1\n      sload\n      swap1\n      0x0100\n      exp\n      swap1\n      div\n      0xffffffffffffffffffffffffffffffffffffffff\n      and\n        /* \"hopium/uniswap/main/pool-finder.sol\":3962:3992  slot.poolAddress == address(0) */\n      0xffffffffffffffffffffffffffffffffffffffff\n      and\n      sub\n        /* \"hopium/uniswap/main/pool-finder.sol\":3958:4135  if (slot.poolAddress == address(0)) {... */\n      tag_112\n      jumpi\n        /* \"hopium/uniswap/main/pool-finder.sol\":4014:4044  findBestWethPool(tokenAddress) */\n      tag_113\n        /* \"hopium/uniswap/main/pool-finder.sol\":4031:4043  tokenAddress */\n      dup4\n        /* \"hopium/uniswap/main/pool-finder.sol\":4014:4030  findBestWethPool */\n      tag_19\n        /* \"hopium/uniswap/main/pool-finder.sol\":4014:4044  findBestWethPool(tokenAddress) */\n      jump\t// in\n    tag_113:\n        /* \"hopium/uniswap/main/pool-finder.sol\":4008:4044  out = findBestWethPool(tokenAddress) */\n      swap2\n      pop\n        /* \"hopium/uniswap/main/pool-finder.sol\":4086:4089  out */\n      dup2\n        /* \"hopium/uniswap/main/pool-finder.sol\":4058:4069  cachedPools */\n      0x01\n        /* \"hopium/uniswap/main/pool-finder.sol\":4058:4083  cachedPools[tokenAddress] */\n      0x00\n        /* \"hopium/uniswap/main/pool-finder.sol\":4070:4082  tokenAddress */\n      dup6\n        /* \"hopium/uniswap/main/pool-finder.sol\":4058:4083  cachedPools[tokenAddress] */\n      0xffffffffffffffffffffffffffffffffffffffff\n      and\n      0xffffffffffffffffffffffffffffffffffffffff\n      and\n      dup2\n      mstore\n      0x20\n      add\n      swap1\n      dup2\n      mstore\n      0x20\n      add\n      0x00\n      keccak256\n        /* \"hopium/uniswap/main/pool-finder.sol\":4058:4089  cachedPools[tokenAddress] = out */\n      0x00\n      dup3\n      add\n      mload\n      dup2\n      0x00\n      add\n      exp(0x0100, 0x00)\n      dup2\n      sload\n      dup2\n      0xffffffffffffffffffffffffffffffffffffffff\n      mul\n      not\n      and\n      swap1\n      dup4\n      0xffffffffffffffffffffffffffffffffffffffff\n      and\n      mul\n      or\n      swap1\n      sstore\n      pop\n      0x20\n      dup3\n      add\n      mload\n      dup2\n      0x00\n      add\n      exp(0x0100, 0x14)\n      dup2\n      sload\n      dup2\n      0xffffff\n      mul\n      not\n      and\n      swap1\n      dup4\n      0xffffff\n      and\n      mul\n      or\n      swap1\n      sstore\n      pop\n      0x40\n      dup3\n      add\n      mload\n      dup2\n      0x00\n      add\n      exp(0x0100, 0x17)\n      dup2\n      sload\n      dup2\n      0xff\n      mul\n      not\n      and\n      swap1\n      dup4\n      0xff\n      and\n      mul\n      or\n      swap1\n      sstore\n      pop\n      0x60\n      dup3\n      add\n      mload\n      dup2\n      0x00\n      add\n      exp(0x0100, 0x18)\n      dup2\n      sload\n      dup2\n      0xffffffffffffffff\n      mul\n      not\n      and\n      swap1\n      dup4\n      0xffffffffffffffff\n      and\n      mul\n      or\n      swap1\n      sstore\n      pop\n      swap1\n      pop\n      pop\n        /* \"hopium/uniswap/main/pool-finder.sol\":4114:4124  return out */\n      pop\n      jump(tag_111)\n        /* \"hopium/uniswap/main/pool-finder.sol\":3958:4135  if (slot.poolAddress == address(0)) {... */\n    tag_112:\n        /* \"hopium/uniswap/main/pool-finder.sol\":4203:4212  staleTime */\n      sload(0x02)\n        /* \"hopium/uniswap/main/pool-finder.sol\":4185:4189  slot */\n      dup2\n        /* \"hopium/uniswap/main/pool-finder.sol\":4185:4200  slot.lastCached */\n      0x00\n      add\n      0x18\n      swap1\n      sload\n      swap1\n      0x0100\n      exp\n      swap1\n      div\n      0xffffffffffffffff\n      and\n        /* \"hopium/uniswap/main/pool-finder.sol\":4167:4200  block.timestamp - slot.lastCached */\n      0xffffffffffffffff\n      and\n        /* \"hopium/uniswap/main/pool-finder.sol\":4167:4182  block.timestamp */\n      timestamp\n        /* \"hopium/uniswap/main/pool-finder.sol\":4167:4200  block.timestamp - slot.lastCached */\n      tag_114\n      swap2\n      swap1\n      tag_115\n      jump\t// in\n    tag_114:\n        /* \"hopium/uniswap/main/pool-finder.sol\":4167:4212  block.timestamp - slot.lastCached > staleTime */\n      gt\n        /* \"hopium/uniswap/main/pool-finder.sol\":4163:4563  if (block.timestamp - slot.lastCached > staleTime) {... */\n      iszero\n      tag_116\n      jumpi\n        /* \"hopium/uniswap/main/pool-finder.sol\":4228:4245  Pool memory fresh */\n      0x00\n        /* \"hopium/uniswap/main/pool-finder.sol\":4248:4278  findBestWethPool(tokenAddress) */\n      tag_117\n        /* \"hopium/uniswap/main/pool-finder.sol\":4265:4277  tokenAddress */\n      dup5\n        /* \"hopium/uniswap/main/pool-finder.sol\":4248:4264  findBestWethPool */\n      tag_19\n        /* \"hopium/uniswap/main/pool-finder.sol\":4248:4278  findBestWethPool(tokenAddress) */\n      jump\t// in\n    tag_117:\n        /* \"hopium/uniswap/main/pool-finder.sol\":4228:4278  Pool memory fresh = findBestWethPool(tokenAddress) */\n      swap1\n      pop\n        /* \"hopium/uniswap/main/pool-finder.sol\":4317:4321  slot */\n      dup2\n        /* \"hopium/uniswap/main/pool-finder.sol\":4317:4333  slot.poolAddress */\n      0x00\n      add\n      0x00\n      swap1\n      sload\n      swap1\n      0x0100\n      exp\n      swap1\n      div\n      0xffffffffffffffffffffffffffffffffffffffff\n      and\n        /* \"hopium/uniswap/main/pool-finder.sol\":4296:4333  fresh.poolAddress != slot.poolAddress */\n      0xffffffffffffffffffffffffffffffffffffffff\n      and\n        /* \"hopium/uniswap/main/pool-finder.sol\":4296:4301  fresh */\n      dup2\n        /* \"hopium/uniswap/main/pool-finder.sol\":4296:4313  fresh.poolAddress */\n      0x00\n      add\n      mload\n        /* \"hopium/uniswap/main/pool-finder.sol\":4296:4333  fresh.poolAddress != slot.poolAddress */\n      0xffffffffffffffffffffffffffffffffffffffff\n      and\n      eq\n        /* \"hopium/uniswap/main/pool-finder.sol\":4292:4553  if (fresh.poolAddress != slot.poolAddress) {... */\n      tag_118\n      jumpi\n        /* \"hopium/uniswap/main/pool-finder.sol\":4381:4386  fresh */\n      dup1\n        /* \"hopium/uniswap/main/pool-finder.sol\":4353:4364  cachedPools */\n      0x01\n        /* \"hopium/uniswap/main/pool-finder.sol\":4353:4378  cachedPools[tokenAddress] */\n      0x00\n        /* \"hopium/uniswap/main/pool-finder.sol\":4365:4377  tokenAddress */\n      dup7\n        /* \"hopium/uniswap/main/pool-finder.sol\":4353:4378  cachedPools[tokenAddress] */\n      0xffffffffffffffffffffffffffffffffffffffff\n      and\n      0xffffffffffffffffffffffffffffffffffffffff\n      and\n      dup2\n      mstore\n      0x20\n      add\n      swap1\n      dup2\n      mstore\n      0x20\n      add\n      0x00\n      keccak256\n        /* \"hopium/uniswap/main/pool-finder.sol\":4353:4386  cachedPools[tokenAddress] = fresh */\n      0x00\n      dup3\n      add\n      mload\n      dup2\n      0x00\n      add\n      exp(0x0100, 0x00)\n      dup2\n      sload\n      dup2\n      0xffffffffffffffffffffffffffffffffffffffff\n      mul\n      not\n      and\n      swap1\n      dup4\n      0xffffffffffffffffffffffffffffffffffffffff\n      and\n      mul\n      or\n      swap1\n      sstore\n      pop\n      0x20\n      dup3\n      add\n      mload\n      dup2\n      0x00\n      add\n      exp(0x0100, 0x14)\n      dup2\n      sload\n      dup2\n      0xffffff\n      mul\n      not\n      and\n      swap1\n      dup4\n      0xffffff\n      and\n      mul\n      or\n      swap1\n      sstore\n      pop\n      0x40\n      dup3\n      add\n      mload\n      dup2\n      0x00\n      add\n      exp(0x0100, 0x17)\n      dup2\n      sload\n      dup2\n      0xff\n      mul\n      not\n      and\n      swap1\n      dup4\n      0xff\n      and\n      mul\n      or\n      swap1\n      sstore\n      pop\n      0x60\n      dup3\n      add\n      mload\n      dup2\n      0x00\n      add\n      exp(0x0100, 0x18)\n      dup2\n      sload\n      dup2\n      0xffffffffffffffff\n      mul\n      not\n      and\n      swap1\n      dup4\n      0xffffffffffffffff\n      and\n      mul\n      or\n      swap1\n      sstore\n      pop\n      swap1\n      pop\n      pop\n        /* \"hopium/uniswap/main/pool-finder.sol\":4422:4427  fresh */\n      dup1\n        /* \"hopium/uniswap/main/pool-finder.sol\":4415:4427  return fresh */\n      swap3\n      pop\n      pop\n      pop\n      jump(tag_111)\n        /* \"hopium/uniswap/main/pool-finder.sol\":4292:4553  if (fresh.poolAddress != slot.poolAddress) {... */\n    tag_118:\n        /* \"hopium/uniswap/main/pool-finder.sol\":4491:4506  block.timestamp */\n      timestamp\n        /* \"hopium/uniswap/main/pool-finder.sol\":4466:4470  slot */\n      dup3\n        /* \"hopium/uniswap/main/pool-finder.sol\":4466:4481  slot.lastCached */\n      0x00\n      add\n      0x18\n        /* \"hopium/uniswap/main/pool-finder.sol\":4466:4507  slot.lastCached = uint64(block.timestamp) */\n      0x0100\n      exp\n      dup2\n      sload\n      dup2\n      0xffffffffffffffff\n      mul\n      not\n      and\n      swap1\n      dup4\n      0xffffffffffffffff\n      and\n      mul\n      or\n      swap1\n      sstore\n      pop\n        /* \"hopium/uniswap/main/pool-finder.sol\":4214:4563  {... */\n      pop\n        /* \"hopium/uniswap/main/pool-finder.sol\":4163:4563  if (block.timestamp - slot.lastCached > staleTime) {... */\n    tag_116:\n        /* \"hopium/uniswap/main/pool-finder.sol\":4602:4606  slot */\n      dup1\n        /* \"hopium/uniswap/main/pool-finder.sol\":4596:4606  out = slot */\n      mload(0x40)\n      dup1\n      0x80\n      add\n      0x40\n      mstore\n      swap1\n      dup2\n      0x00\n      dup3\n      add\n      0x00\n      swap1\n      sload\n      swap1\n      0x0100\n      exp\n      swap1\n      div\n      0xffffffffffffffffffffffffffffffffffffffff\n      and\n      0xffffffffffffffffffffffffffffffffffffffff\n      and\n      0xffffffffffffffffffffffffffffffffffffffff\n      and\n      dup2\n      mstore\n      0x20\n      add\n      0x00\n      dup3\n      add\n      0x14\n      swap1\n      sload\n      swap1\n      0x0100\n      exp\n      swap1\n      div\n      0xffffff\n      and\n      0xffffff\n      and\n      0xffffff\n      and\n      dup2\n      mstore\n      0x20\n      add\n      0x00\n      dup3\n      add\n      0x17\n      swap1\n      sload\n      swap1\n      0x0100\n      exp\n      swap1\n      div\n      0xff\n      and\n      0xff\n      and\n      0xff\n      and\n      dup2\n      mstore\n      0x20\n      add\n      0x00\n      dup3\n      add\n      0x18\n      swap1\n      sload\n      swap1\n      0x0100\n      exp\n      swap1\n      div\n      0xffffffffffffffff\n      and\n      0xffffffffffffffff\n      and\n      0xffffffffffffffff\n      and\n      dup2\n      mstore\n      pop\n      pop\n      swap2\n      pop\n        /* \"hopium/uniswap/main/pool-finder.sol\":3872:4613  {... */\n      pop\n        /* \"hopium/uniswap/main/pool-finder.sol\":3776:4613  function getBestWethPoolAndUpdateIfStale(address tokenAddress) public returns (Pool memory out) {... */\n    tag_111:\n      swap2\n      swap1\n      pop\n      jump\t// out\n        /* \"hopium/common/interface/imDirectory.sol\":336:363  IDirectory public Directory */\n    tag_40:\n      0x00\n      0x00\n      swap1\n      sload\n      swap1\n      0x0100\n      exp\n      swap1\n      div\n      0xffffffffffffffffffffffffffffffffffffffff\n      and\n      dup2\n      jump\t// out\n        /* \"hopium/uniswap/main/pool-finder.sol\":904:948  IUniswapV3Factory public immutable v3Factory */\n    tag_44:\n      immutable(\"0xb82689a7170af4bc238cea9f5ed91ccb0509ae7759ce9b8df7ae215c4191abd7\")\n      dup2\n      jump\t// out\n        /* \"hopium/common/interface/imDirectory.sol\":1178:1266  function owner() public view returns (address) {... */\n    tag_48:\n        /* \"hopium/common/interface/imDirectory.sol\":1216:1223  address */\n      0x00\n        /* \"hopium/common/interface/imDirectory.sol\":1242:1251  Directory */\n      0x00\n      0x00\n      swap1\n      sload\n      swap1\n      0x0100\n      exp\n      swap1\n      div\n      0xffffffffffffffffffffffffffffffffffffffff\n      and\n        /* \"hopium/common/interface/imDirectory.sol\":1242:1257  Directory.owner */\n      0xffffffffffffffffffffffffffffffffffffffff\n      and\n      0x8da5cb5b\n        /* \"hopium/common/interface/imDirectory.sol\":1242:1259  Directory.owner() */\n      mload(0x40)\n      dup2\n      0xffffffff\n      and\n      0xe0\n      shl\n      dup2\n      mstore\n      0x04\n      add\n      0x20\n      mload(0x40)\n      dup1\n      dup4\n      sub\n      dup2\n      dup7\n      gas\n      staticcall\n      iszero\n      dup1\n      iszero\n      tag_122\n      jumpi\n      returndatacopy(0x00, 0x00, returndatasize)\n      revert(0x00, returndatasize)\n    tag_122:\n      pop\n      pop\n      pop\n      pop\n      mload(0x40)\n      returndatasize\n      not(0x1f)\n      0x1f\n      dup3\n      add\n      and\n      dup3\n      add\n      dup1\n      0x40\n      mstore\n      pop\n      dup2\n      add\n      swap1\n      tag_123\n      swap2\n      swap1\n      tag_75\n      jump\t// in\n    tag_123:\n        /* \"hopium/common/interface/imDirectory.sol\":1235:1259  return Directory.owner() */\n      swap1\n      pop\n        /* \"hopium/common/interface/imDirectory.sol\":1178:1266  function owner() public view returns (address) {... */\n      swap1\n      jump\t// out\n        /* \"hopium/uniswap/main/pool-finder.sol\":4619:4732  function setStaleTimePoolCache(uint256 newStaleTime) external onlyOwner {... */\n    tag_53:\n        /* \"hopium/common/interface/imDirectory.sol\":1109:1118  Directory */\n      0x00\n      0x00\n      swap1\n      sload\n      swap1\n      0x0100\n      exp\n      swap1\n      div\n      0xffffffffffffffffffffffffffffffffffffffff\n      and\n        /* \"hopium/common/interface/imDirectory.sol\":1109:1124  Directory.owner */\n      0xffffffffffffffffffffffffffffffffffffffff\n      and\n      0x8da5cb5b\n        /* \"hopium/common/interface/imDirectory.sol\":1109:1126  Directory.owner() */\n      mload(0x40)\n      dup2\n      0xffffffff\n      and\n      0xe0\n      shl\n      dup2\n      mstore\n      0x04\n      add\n      0x20\n      mload(0x40)\n      dup1\n      dup4\n      sub\n      dup2\n      dup7\n      gas\n      staticcall\n      iszero\n      dup1\n      iszero\n      tag_126\n      jumpi\n      returndatacopy(0x00, 0x00, returndatasize)\n      revert(0x00, returndatasize)\n    tag_126:\n      pop\n      pop\n      pop\n      pop\n      mload(0x40)\n      returndatasize\n      not(0x1f)\n      0x1f\n      dup3\n      add\n      and\n      dup3\n      add\n      dup1\n      0x40\n      mstore\n      pop\n      dup2\n      add\n      swap1\n      tag_127\n      swap2\n      swap1\n      tag_75\n      jump\t// in\n    tag_127:\n        /* \"hopium/common/interface/imDirectory.sol\":1095:1126  msg.sender == Directory.owner() */\n      0xffffffffffffffffffffffffffffffffffffffff\n      and\n        /* \"hopium/common/interface/imDirectory.sol\":1095:1105  msg.sender */\n      caller\n        /* \"hopium/common/interface/imDirectory.sol\":1095:1126  msg.sender == Directory.owner() */\n      0xffffffffffffffffffffffffffffffffffffffff\n      and\n      eq\n        /* \"hopium/common/interface/imDirectory.sol\":1087:1154  require(msg.sender == Directory.owner(), \"Caller is not the owner\") */\n      tag_128\n      jumpi\n      mload(0x40)\n      0x08c379a000000000000000000000000000000000000000000000000000000000\n      dup2\n      mstore\n      0x04\n      add\n      tag_129\n      swap1\n      tag_130\n      jump\t// in\n    tag_129:\n      mload(0x40)\n      dup1\n      swap2\n      sub\n      swap1\n      revert\n    tag_128:\n        /* \"hopium/uniswap/main/pool-finder.sol\":4713:4725  newStaleTime */\n      dup1\n        /* \"hopium/uniswap/main/pool-finder.sol\":4701:4710  staleTime */\n      0x02\n        /* \"hopium/uniswap/main/pool-finder.sol\":4701:4725  staleTime = newStaleTime */\n      dup2\n      swap1\n      sstore\n      pop\n        /* \"hopium/uniswap/main/pool-finder.sol\":4619:4732  function setStaleTimePoolCache(uint256 newStaleTime) external onlyOwner {... */\n      pop\n      jump\t// out\n        /* \"hopium/uniswap/main/pool-finder.sol\":854:898  IUniswapV2Factory public immutable v2Factory */\n    tag_55:\n      immutable(\"0x4d9fac5dc90d70d79ceac3589bb998755cf60ab2ff110225b2bffe4b0c0e4742\")\n      dup2\n      jump\t// out\n        /* \"hopium/common/interface/imDirectory.sol\":470:583  function changeDirectoryAddress(address _directory) external onlyOwner {... */\n    tag_60:\n        /* \"hopium/common/interface/imDirectory.sol\":1109:1118  Directory */\n      0x00\n      0x00\n      swap1\n      sload\n      swap1\n      0x0100\n      exp\n      swap1\n      div\n      0xffffffffffffffffffffffffffffffffffffffff\n      and\n        /* \"hopium/common/interface/imDirectory.sol\":1109:1124  Directory.owner */\n      0xffffffffffffffffffffffffffffffffffffffff\n      and\n      0x8da5cb5b\n        /* \"hopium/common/interface/imDirectory.sol\":1109:1126  Directory.owner() */\n      mload(0x40)\n      dup2\n      0xffffffff\n      and\n      0xe0\n      shl\n      dup2\n      mstore\n      0x04\n      add\n      0x20\n      mload(0x40)\n      dup1\n      dup4\n      sub\n      dup2\n      dup7\n      gas\n      staticcall\n      iszero\n      dup1\n      iszero\n      tag_134\n      jumpi\n      returndatacopy(0x00, 0x00, returndatasize)\n      revert(0x00, returndatasize)\n    tag_134:\n      pop\n      pop\n      pop\n      pop\n      mload(0x40)\n      returndatasize\n      not(0x1f)\n      0x1f\n      dup3\n      add\n      and\n      dup3\n      add\n      dup1\n      0x40\n      mstore\n      pop\n      dup2\n      add\n      swap1\n      tag_135\n      swap2\n      swap1\n      tag_75\n      jump\t// in\n    tag_135:\n        /* \"hopium/common/interface/imDirectory.sol\":1095:1126  msg.sender == Directory.owner() */\n      0xffffffffffffffffffffffffffffffffffffffff\n      and\n        /* \"hopium/common/interface/imDirectory.sol\":1095:1105  msg.sender */\n      caller\n        /* \"hopium/common/interface/imDirectory.sol\":1095:1126  msg.sender == Directory.owner() */\n      0xffffffffffffffffffffffffffffffffffffffff\n      and\n      eq\n        /* \"hopium/common/interface/imDirectory.sol\":1087:1154  require(msg.sender == Directory.owner(), \"Caller is not the owner\") */\n      tag_136\n      jumpi\n      mload(0x40)\n      0x08c379a000000000000000000000000000000000000000000000000000000000\n      dup2\n      mstore\n      0x04\n      add\n      tag_137\n      swap1\n      tag_130\n      jump\t// in\n    tag_137:\n      mload(0x40)\n      dup1\n      swap2\n      sub\n      swap1\n      revert\n    tag_136:\n        /* \"hopium/common/interface/imDirectory.sol\":551:576  _setDirectory(_directory) */\n      tag_139\n        /* \"hopium/common/interface/imDirectory.sol\":565:575  _directory */\n      dup2\n        /* \"hopium/common/interface/imDirectory.sol\":551:564  _setDirectory */\n      tag_140\n        /* \"hopium/common/interface/imDirectory.sol\":551:576  _setDirectory(_directory) */\n      jump\t// in\n    tag_139:\n        /* \"hopium/common/interface/imDirectory.sol\":470:583  function changeDirectoryAddress(address _directory) external onlyOwner {... */\n      pop\n      jump\t// out\n        /* \"hopium/uniswap/main/pool-finder.sol\":3442:3683  function getBestWethPool(address tokenAddress) external view returns (Pool memory pool) {... */\n    tag_63:\n        /* \"hopium/uniswap/main/pool-finder.sol\":3512:3528  Pool memory pool */\n      tag_141\n      tag_66\n      jump\t// in\n    tag_141:\n        /* \"hopium/uniswap/main/pool-finder.sol\":3547:3558  cachedPools */\n      0x01\n        /* \"hopium/uniswap/main/pool-finder.sol\":3547:3572  cachedPools[tokenAddress] */\n      0x00\n        /* \"hopium/uniswap/main/pool-finder.sol\":3559:3571  tokenAddress */\n      dup4\n        /* \"hopium/uniswap/main/pool-finder.sol\":3547:3572  cachedPools[tokenAddress] */\n      0xffffffffffffffffffffffffffffffffffffffff\n      and\n      0xffffffffffffffffffffffffffffffffffffffff\n      and\n      dup2\n      mstore\n      0x20\n      add\n      swap1\n      dup2\n      mstore\n      0x20\n      add\n      0x00\n      keccak256\n        /* \"hopium/uniswap/main/pool-finder.sol\":3540:3572  pool = cachedPools[tokenAddress] */\n      mload(0x40)\n      dup1\n      0x80\n      add\n      0x40\n      mstore\n      swap1\n      dup2\n      0x00\n      dup3\n      add\n      0x00\n      swap1\n      sload\n      swap1\n      0x0100\n      exp\n      swap1\n      div\n      0xffffffffffffffffffffffffffffffffffffffff\n      and\n      0xffffffffffffffffffffffffffffffffffffffff\n      and\n      0xffffffffffffffffffffffffffffffffffffffff\n      and\n      dup2\n      mstore\n      0x20\n      add\n      0x00\n      dup3\n      add\n      0x14\n      swap1\n      sload\n      swap1\n      0x0100\n      exp\n      swap1\n      div\n      0xffffff\n      and\n      0xffffff\n      and\n      0xffffff\n      and\n      dup2\n      mstore\n      0x20\n      add\n      0x00\n      dup3\n      add\n      0x17\n      swap1\n      sload\n      swap1\n      0x0100\n      exp\n      swap1\n      div\n      0xff\n      and\n      0xff\n      and\n      0xff\n      and\n      dup2\n      mstore\n      0x20\n      add\n      0x00\n      dup3\n      add\n      0x18\n      swap1\n      sload\n      swap1\n      0x0100\n      exp\n      swap1\n      div\n      0xffffffffffffffff\n      and\n      0xffffffffffffffff\n      and\n      0xffffffffffffffff\n      and\n      dup2\n      mstore\n      pop\n      pop\n      swap1\n      pop\n        /* \"hopium/uniswap/main/pool-finder.sol\":3614:3615  0 */\n      0x00\n        /* \"hopium/uniswap/main/pool-finder.sol\":3586:3616  pool.poolAddress != address(0) */\n      0xffffffffffffffffffffffffffffffffffffffff\n      and\n        /* \"hopium/uniswap/main/pool-finder.sol\":3586:3590  pool */\n      dup2\n        /* \"hopium/uniswap/main/pool-finder.sol\":3586:3602  pool.poolAddress */\n      0x00\n      add\n      mload\n        /* \"hopium/uniswap/main/pool-finder.sol\":3586:3616  pool.poolAddress != address(0) */\n      0xffffffffffffffffffffffffffffffffffffffff\n      and\n      sub\n        /* \"hopium/uniswap/main/pool-finder.sol\":3618:3629  return pool */\n      tag_142\n        /* \"hopium/uniswap/main/pool-finder.sol\":3582:3629  if (pool.poolAddress != address(0)) return pool */\n      jumpi\n        /* \"hopium/uniswap/main/pool-finder.sol\":3646:3676  findBestWethPool(tokenAddress) */\n      tag_144\n        /* \"hopium/uniswap/main/pool-finder.sol\":3663:3675  tokenAddress */\n      dup3\n        /* \"hopium/uniswap/main/pool-finder.sol\":3646:3662  findBestWethPool */\n      tag_19\n        /* \"hopium/uniswap/main/pool-finder.sol\":3646:3676  findBestWethPool(tokenAddress) */\n      jump\t// in\n    tag_144:\n        /* \"hopium/uniswap/main/pool-finder.sol\":3639:3676  return findBestWethPool(tokenAddress) */\n      swap1\n      pop\n        /* \"hopium/uniswap/main/pool-finder.sol\":3442:3683  function getBestWethPool(address tokenAddress) external view returns (Pool memory pool) {... */\n    tag_142:\n      swap2\n      swap1\n      pop\n      jump\t// out\n        /* \"hopium/common/interface/imDirectory.sol\":589:1050  function _setDirectory(address _directory) internal {... */\n    tag_140:\n        /* \"hopium/common/interface/imDirectory.sol\":681:682  0 */\n      0x00\n        /* \"hopium/common/interface/imDirectory.sol\":659:683  _directory != address(0) */\n      0xffffffffffffffffffffffffffffffffffffffff\n      and\n        /* \"hopium/common/interface/imDirectory.sol\":659:669  _directory */\n      dup2\n        /* \"hopium/common/interface/imDirectory.sol\":659:683  _directory != address(0) */\n      0xffffffffffffffffffffffffffffffffffffffff\n      and\n      sub\n        /* \"hopium/common/interface/imDirectory.sol\":651:720  require(_directory != address(0), \"Directory cannot be zero address\") */\n      tag_146\n      jumpi\n      mload(0x40)\n      0x08c379a000000000000000000000000000000000000000000000000000000000\n      dup2\n      mstore\n      0x04\n      add\n      tag_147\n      swap1\n      tag_148\n      jump\t// in\n    tag_147:\n      mload(0x40)\n      dup1\n      swap2\n      sub\n      swap1\n      revert\n    tag_146:\n        /* \"hopium/common/interface/imDirectory.sol\":763:764  0 */\n      0x00\n        /* \"hopium/common/interface/imDirectory.sol\":738:748  _directory */\n      dup2\n        /* \"hopium/common/interface/imDirectory.sol\":738:760  _directory.code.length */\n      0xffffffffffffffffffffffffffffffffffffffff\n      and\n      extcodesize\n        /* \"hopium/common/interface/imDirectory.sol\":738:764  _directory.code.length > 0 */\n      gt\n        /* \"hopium/common/interface/imDirectory.sol\":730:797  require(_directory.code.length > 0, \"Directory must be a contract\") */\n      tag_149\n      jumpi\n      mload(0x40)\n      0x08c379a000000000000000000000000000000000000000000000000000000000\n      dup2\n      mstore\n      0x04\n      add\n      tag_150\n      swap1\n      tag_151\n      jump\t// in\n    tag_150:\n      mload(0x40)\n      dup1\n      swap2\n      sub\n      swap1\n      revert\n    tag_149:\n        /* \"hopium/common/interface/imDirectory.sol\":861:871  _directory */\n      dup1\n        /* \"hopium/common/interface/imDirectory.sol\":850:878  IDirectory(_directory).owner */\n      0xffffffffffffffffffffffffffffffffffffffff\n      and\n      0x8da5cb5b\n        /* \"hopium/common/interface/imDirectory.sol\":850:880  IDirectory(_directory).owner() */\n      mload(0x40)\n      dup2\n      0xffffffff\n      and\n      0xe0\n      shl\n      dup2\n      mstore\n      0x04\n      add\n      0x20\n      mload(0x40)\n      dup1\n      dup4\n      sub\n      dup2\n      dup7\n      gas\n      staticcall\n      swap3\n      pop\n      pop\n      pop\n      dup1\n      iszero\n      tag_152\n      jumpi\n      pop\n      mload(0x40)\n      returndatasize\n      not(0x1f)\n      0x1f\n      dup3\n      add\n      and\n      dup3\n      add\n      dup1\n      0x40\n      mstore\n      pop\n      dup2\n      add\n      swap1\n      tag_153\n      swap2\n      swap1\n      tag_75\n      jump\t// in\n    tag_153:\n      0x01\n    tag_152:\n        /* \"hopium/common/interface/imDirectory.sol\":846:1044  try IDirectory(_directory).owner() returns (address) {... */\n      tag_154\n      jumpi\n        /* \"hopium/common/interface/imDirectory.sol\":979:1033  revert(\"Directory address does not implement owner()\") */\n      mload(0x40)\n      0x08c379a000000000000000000000000000000000000000000000000000000000\n      dup2\n      mstore\n      0x04\n      add\n      tag_158\n      swap1\n      tag_159\n      jump\t// in\n    tag_158:\n      mload(0x40)\n      dup1\n      swap2\n      sub\n      swap1\n      revert\n        /* \"hopium/common/interface/imDirectory.sol\":846:1044  try IDirectory(_directory).owner() returns (address) {... */\n    tag_154:\n        /* \"hopium/common/interface/imDirectory.sol\":936:946  _directory */\n      dup2\n        /* \"hopium/common/interface/imDirectory.sol\":913:922  Directory */\n      0x00\n      0x00\n        /* \"hopium/common/interface/imDirectory.sol\":913:947  Directory = IDirectory(_directory) */\n      0x0100\n      exp\n      dup2\n      sload\n      dup2\n      0xffffffffffffffffffffffffffffffffffffffff\n      mul\n      not\n      and\n      swap1\n      dup4\n      0xffffffffffffffffffffffffffffffffffffffff\n      and\n      mul\n      or\n      swap1\n      sstore\n      pop\n        /* \"hopium/common/interface/imDirectory.sol\":881:958  returns (address) {... */\n      pop\n        /* \"hopium/common/interface/imDirectory.sol\":589:1050  function _setDirectory(address _directory) internal {... */\n      pop\n      jump\t// out\n    tag_66:\n      mload(0x40)\n      dup1\n      0x80\n      add\n      0x40\n      mstore\n      dup1\n      and(0xffffffffffffffffffffffffffffffffffffffff, 0x00)\n      dup2\n      mstore\n      0x20\n      add\n      and(0xffffff, 0x00)\n      dup2\n      mstore\n      0x20\n      add\n      and(0xff, 0x00)\n      dup2\n      mstore\n      0x20\n      add\n      and(0xffffffffffffffff, 0x00)\n      dup2\n      mstore\n      pop\n      swap1\n      jump\t// out\n        /* \"#utility.yul\":7:82   */\n    tag_161:\n        /* \"#utility.yul\":40:46   */\n      0x00\n        /* \"#utility.yul\":73:75   */\n      0x40\n        /* \"#utility.yul\":67:76   */\n      mload\n        /* \"#utility.yul\":57:76   */\n      swap1\n      pop\n        /* \"#utility.yul\":7:82   */\n      swap1\n      jump\t// out\n        /* \"#utility.yul\":88:205   */\n    tag_162:\n        /* \"#utility.yul\":197:198   */\n      0x00\n        /* \"#utility.yul\":194:195   */\n      0x00\n        /* \"#utility.yul\":187:199   */\n      revert\n        /* \"#utility.yul\":211:328   */\n    tag_163:\n        /* \"#utility.yul\":320:321   */\n      0x00\n        /* \"#utility.yul\":317:318   */\n      0x00\n        /* \"#utility.yul\":310:322   */\n      revert\n        /* \"#utility.yul\":334:460   */\n    tag_164:\n        /* \"#utility.yul\":371:378   */\n      0x00\n        /* \"#utility.yul\":411:453   */\n      0xffffffffffffffffffffffffffffffffffffffff\n        /* \"#utility.yul\":404:409   */\n      dup3\n        /* \"#utility.yul\":400:454   */\n      and\n        /* \"#utility.yul\":389:454   */\n      swap1\n      pop\n        /* \"#utility.yul\":334:460   */\n      swap2\n      swap1\n      pop\n      jump\t// out\n        /* \"#utility.yul\":466:562   */\n    tag_165:\n        /* \"#utility.yul\":503:510   */\n      0x00\n        /* \"#utility.yul\":532:556   */\n      tag_228\n        /* \"#utility.yul\":550:555   */\n      dup3\n        /* \"#utility.yul\":532:556   */\n      tag_164\n      jump\t// in\n    tag_228:\n        /* \"#utility.yul\":521:556   */\n      swap1\n      pop\n        /* \"#utility.yul\":466:562   */\n      swap2\n      swap1\n      pop\n      jump\t// out\n        /* \"#utility.yul\":568:690   */\n    tag_166:\n        /* \"#utility.yul\":641:665   */\n      tag_230\n        /* \"#utility.yul\":659:664   */\n      dup2\n        /* \"#utility.yul\":641:665   */\n      tag_165\n      jump\t// in\n    tag_230:\n        /* \"#utility.yul\":634:639   */\n      dup2\n        /* \"#utility.yul\":631:666   */\n      eq\n        /* \"#utility.yul\":621:684   */\n      tag_231\n      jumpi\n        /* \"#utility.yul\":680:681   */\n      0x00\n        /* \"#utility.yul\":677:678   */\n      0x00\n        /* \"#utility.yul\":670:682   */\n      revert\n        /* \"#utility.yul\":621:684   */\n    tag_231:\n        /* \"#utility.yul\":568:690   */\n      pop\n      jump\t// out\n        /* \"#utility.yul\":696:835   */\n    tag_167:\n        /* \"#utility.yul\":742:747   */\n      0x00\n        /* \"#utility.yul\":780:786   */\n      dup2\n        /* \"#utility.yul\":767:787   */\n      calldataload\n        /* \"#utility.yul\":758:787   */\n      swap1\n      pop\n        /* \"#utility.yul\":796:829   */\n      tag_233\n        /* \"#utility.yul\":823:828   */\n      dup2\n        /* \"#utility.yul\":796:829   */\n      tag_166\n      jump\t// in\n    tag_233:\n        /* \"#utility.yul\":696:835   */\n      swap3\n      swap2\n      pop\n      pop\n      jump\t// out\n        /* \"#utility.yul\":841:1170   */\n    tag_18:\n        /* \"#utility.yul\":900:906   */\n      0x00\n        /* \"#utility.yul\":949:951   */\n      0x20\n        /* \"#utility.yul\":937:946   */\n      dup3\n        /* \"#utility.yul\":928:935   */\n      dup5\n        /* \"#utility.yul\":924:947   */\n      sub\n        /* \"#utility.yul\":920:952   */\n      slt\n        /* \"#utility.yul\":917:1036   */\n      iszero\n      tag_235\n      jumpi\n        /* \"#utility.yul\":955:1034   */\n      tag_236\n      tag_162\n      jump\t// in\n    tag_236:\n        /* \"#utility.yul\":917:1036   */\n    tag_235:\n        /* \"#utility.yul\":1075:1076   */\n      0x00\n        /* \"#utility.yul\":1100:1153   */\n      tag_237\n        /* \"#utility.yul\":1145:1152   */\n      dup5\n        /* \"#utility.yul\":1136:1142   */\n      dup3\n        /* \"#utility.yul\":1125:1134   */\n      dup6\n        /* \"#utility.yul\":1121:1143   */\n      add\n        /* \"#utility.yul\":1100:1153   */\n      tag_167\n      jump\t// in\n    tag_237:\n        /* \"#utility.yul\":1090:1153   */\n      swap2\n      pop\n        /* \"#utility.yul\":1046:1163   */\n      pop\n        /* \"#utility.yul\":841:1170   */\n      swap3\n      swap2\n      pop\n      pop\n      jump\t// out\n        /* \"#utility.yul\":1176:1284   */\n    tag_168:\n        /* \"#utility.yul\":1253:1277   */\n      tag_239\n        /* \"#utility.yul\":1271:1276   */\n      dup2\n        /* \"#utility.yul\":1253:1277   */\n      tag_165\n      jump\t// in\n    tag_239:\n        /* \"#utility.yul\":1248:1251   */\n      dup3\n        /* \"#utility.yul\":1241:1278   */\n      mstore\n        /* \"#utility.yul\":1176:1284   */\n      pop\n      pop\n      jump\t// out\n        /* \"#utility.yul\":1290:1381   */\n    tag_169:\n        /* \"#utility.yul\":1326:1333   */\n      0x00\n        /* \"#utility.yul\":1366:1374   */\n      0xffffff\n        /* \"#utility.yul\":1359:1364   */\n      dup3\n        /* \"#utility.yul\":1355:1375   */\n      and\n        /* \"#utility.yul\":1344:1375   */\n      swap1\n      pop\n        /* \"#utility.yul\":1290:1381   */\n      swap2\n      swap1\n      pop\n      jump\t// out\n        /* \"#utility.yul\":1387:1492   */\n    tag_170:\n        /* \"#utility.yul\":1462:1485   */\n      tag_242\n        /* \"#utility.yul\":1479:1484   */\n      dup2\n        /* \"#utility.yul\":1462:1485   */\n      tag_169\n      jump\t// in\n    tag_242:\n        /* \"#utility.yul\":1457:1460   */\n      dup3\n        /* \"#utility.yul\":1450:1486   */\n      mstore\n        /* \"#utility.yul\":1387:1492   */\n      pop\n      pop\n      jump\t// out\n        /* \"#utility.yul\":1498:1584   */\n    tag_171:\n        /* \"#utility.yul\":1533:1540   */\n      0x00\n        /* \"#utility.yul\":1573:1577   */\n      0xff\n        /* \"#utility.yul\":1566:1571   */\n      dup3\n        /* \"#utility.yul\":1562:1578   */\n      and\n        /* \"#utility.yul\":1551:1578   */\n      swap1\n      pop\n        /* \"#utility.yul\":1498:1584   */\n      swap2\n      swap1\n      pop\n      jump\t// out\n        /* \"#utility.yul\":1590:1692   */\n    tag_172:\n        /* \"#utility.yul\":1663:1685   */\n      tag_245\n        /* \"#utility.yul\":1679:1684   */\n      dup2\n        /* \"#utility.yul\":1663:1685   */\n      tag_171\n      jump\t// in\n    tag_245:\n        /* \"#utility.yul\":1658:1661   */\n      dup3\n        /* \"#utility.yul\":1651:1686   */\n      mstore\n        /* \"#utility.yul\":1590:1692   */\n      pop\n      pop\n      jump\t// out\n        /* \"#utility.yul\":1698:1799   */\n    tag_173:\n        /* \"#utility.yul\":1734:1741   */\n      0x00\n        /* \"#utility.yul\":1774:1792   */\n      0xffffffffffffffff\n        /* \"#utility.yul\":1767:1772   */\n      dup3\n        /* \"#utility.yul\":1763:1793   */\n      and\n        /* \"#utility.yul\":1752:1793   */\n      swap1\n      pop\n        /* \"#utility.yul\":1698:1799   */\n      swap2\n      swap1\n      pop\n      jump\t// out\n        /* \"#utility.yul\":1805:1910   */\n    tag_174:\n        /* \"#utility.yul\":1880:1903   */\n      tag_248\n        /* \"#utility.yul\":1897:1902   */\n      dup2\n        /* \"#utility.yul\":1880:1903   */\n      tag_173\n      jump\t// in\n    tag_248:\n        /* \"#utility.yul\":1875:1878   */\n      dup3\n        /* \"#utility.yul\":1868:1904   */\n      mstore\n        /* \"#utility.yul\":1805:1910   */\n      pop\n      pop\n      jump\t// out\n        /* \"#utility.yul\":1950:2809   */\n    tag_175:\n        /* \"#utility.yul\":2089:2093   */\n      0x80\n        /* \"#utility.yul\":2084:2087   */\n      dup3\n        /* \"#utility.yul\":2080:2094   */\n      add\n        /* \"#utility.yul\":2183:2187   */\n      0x00\n        /* \"#utility.yul\":2176:2181   */\n      dup3\n        /* \"#utility.yul\":2172:2188   */\n      add\n        /* \"#utility.yul\":2166:2189   */\n      mload\n        /* \"#utility.yul\":2202:2265   */\n      tag_250\n        /* \"#utility.yul\":2259:2263   */\n      0x00\n        /* \"#utility.yul\":2254:2257   */\n      dup6\n        /* \"#utility.yul\":2250:2264   */\n      add\n        /* \"#utility.yul\":2236:2248   */\n      dup3\n        /* \"#utility.yul\":2202:2265   */\n      tag_168\n      jump\t// in\n    tag_250:\n        /* \"#utility.yul\":2104:2275   */\n      pop\n        /* \"#utility.yul\":2360:2364   */\n      0x20\n        /* \"#utility.yul\":2353:2358   */\n      dup3\n        /* \"#utility.yul\":2349:2365   */\n      add\n        /* \"#utility.yul\":2343:2366   */\n      mload\n        /* \"#utility.yul\":2379:2440   */\n      tag_251\n        /* \"#utility.yul\":2434:2438   */\n      0x20\n        /* \"#utility.yul\":2429:2432   */\n      dup6\n        /* \"#utility.yul\":2425:2439   */\n      add\n        /* \"#utility.yul\":2411:2423   */\n      dup3\n        /* \"#utility.yul\":2379:2440   */\n      tag_170\n      jump\t// in\n    tag_251:\n        /* \"#utility.yul\":2285:2450   */\n      pop\n        /* \"#utility.yul\":2536:2540   */\n      0x40\n        /* \"#utility.yul\":2529:2534   */\n      dup3\n        /* \"#utility.yul\":2525:2541   */\n      add\n        /* \"#utility.yul\":2519:2542   */\n      mload\n        /* \"#utility.yul\":2555:2614   */\n      tag_252\n        /* \"#utility.yul\":2608:2612   */\n      0x40\n        /* \"#utility.yul\":2603:2606   */\n      dup6\n        /* \"#utility.yul\":2599:2613   */\n      add\n        /* \"#utility.yul\":2585:2597   */\n      dup3\n        /* \"#utility.yul\":2555:2614   */\n      tag_172\n      jump\t// in\n    tag_252:\n        /* \"#utility.yul\":2460:2624   */\n      pop\n        /* \"#utility.yul\":2712:2716   */\n      0x60\n        /* \"#utility.yul\":2705:2710   */\n      dup3\n        /* \"#utility.yul\":2701:2717   */\n      add\n        /* \"#utility.yul\":2695:2718   */\n      mload\n        /* \"#utility.yul\":2731:2792   */\n      tag_253\n        /* \"#utility.yul\":2786:2790   */\n      0x60\n        /* \"#utility.yul\":2781:2784   */\n      dup6\n        /* \"#utility.yul\":2777:2791   */\n      add\n        /* \"#utility.yul\":2763:2775   */\n      dup3\n        /* \"#utility.yul\":2731:2792   */\n      tag_174\n      jump\t// in\n    tag_253:\n        /* \"#utility.yul\":2634:2802   */\n      pop\n        /* \"#utility.yul\":2058:2809   */\n      pop\n        /* \"#utility.yul\":1950:2809   */\n      pop\n      pop\n      jump\t// out\n        /* \"#utility.yul\":2815:3122   */\n    tag_21:\n        /* \"#utility.yul\":2950:2954   */\n      0x00\n        /* \"#utility.yul\":2988:2991   */\n      0x80\n        /* \"#utility.yul\":2977:2986   */\n      dup3\n        /* \"#utility.yul\":2973:2992   */\n      add\n        /* \"#utility.yul\":2965:2992   */\n      swap1\n      pop\n        /* \"#utility.yul\":3002:3115   */\n      tag_255\n        /* \"#utility.yul\":3112:3113   */\n      0x00\n        /* \"#utility.yul\":3101:3110   */\n      dup4\n        /* \"#utility.yul\":3097:3114   */\n      add\n        /* \"#utility.yul\":3088:3094   */\n      dup5\n        /* \"#utility.yul\":3002:3115   */\n      tag_175\n      jump\t// in\n    tag_255:\n        /* \"#utility.yul\":2815:3122   */\n      swap3\n      swap2\n      pop\n      pop\n      jump\t// out\n        /* \"#utility.yul\":3128:3245   */\n    tag_176:\n        /* \"#utility.yul\":3237:3238   */\n      0x00\n        /* \"#utility.yul\":3234:3235   */\n      0x00\n        /* \"#utility.yul\":3227:3239   */\n      revert\n        /* \"#utility.yul\":3251:3368   */\n    tag_177:\n        /* \"#utility.yul\":3360:3361   */\n      0x00\n        /* \"#utility.yul\":3357:3358   */\n      0x00\n        /* \"#utility.yul\":3350:3362   */\n      revert\n        /* \"#utility.yul\":3374:3476   */\n    tag_178:\n        /* \"#utility.yul\":3415:3421   */\n      0x00\n        /* \"#utility.yul\":3466:3468   */\n      0x1f\n        /* \"#utility.yul\":3462:3469   */\n      not\n        /* \"#utility.yul\":3457:3459   */\n      0x1f\n        /* \"#utility.yul\":3450:3455   */\n      dup4\n        /* \"#utility.yul\":3446:3460   */\n      add\n        /* \"#utility.yul\":3442:3470   */\n      and\n        /* \"#utility.yul\":3432:3470   */\n      swap1\n      pop\n        /* \"#utility.yul\":3374:3476   */\n      swap2\n      swap1\n      pop\n      jump\t// out\n        /* \"#utility.yul\":3482:3662   */\n    tag_179:\n        /* \"#utility.yul\":3530:3607   */\n      0x4e487b7100000000000000000000000000000000000000000000000000000000\n        /* \"#utility.yul\":3527:3528   */\n      0x00\n        /* \"#utility.yul\":3520:3608   */\n      mstore\n        /* \"#utility.yul\":3627:3631   */\n      0x41\n        /* \"#utility.yul\":3624:3625   */\n      0x04\n        /* \"#utility.yul\":3617:3632   */\n      mstore\n        /* \"#utility.yul\":3651:3655   */\n      0x24\n        /* \"#utility.yul\":3648:3649   */\n      0x00\n        /* \"#utility.yul\":3641:3656   */\n      revert\n        /* \"#utility.yul\":3668:3949   */\n    tag_180:\n        /* \"#utility.yul\":3751:3778   */\n      tag_261\n        /* \"#utility.yul\":3773:3777   */\n      dup3\n        /* \"#utility.yul\":3751:3778   */\n      tag_178\n      jump\t// in\n    tag_261:\n        /* \"#utility.yul\":3743:3749   */\n      dup2\n        /* \"#utility.yul\":3739:3779   */\n      add\n        /* \"#utility.yul\":3881:3887   */\n      dup2\n        /* \"#utility.yul\":3869:3879   */\n      dup2\n        /* \"#utility.yul\":3866:3888   */\n      lt\n        /* \"#utility.yul\":3845:3863   */\n      0xffffffffffffffff\n        /* \"#utility.yul\":3833:3843   */\n      dup3\n        /* \"#utility.yul\":3830:3864   */\n      gt\n        /* \"#utility.yul\":3827:3889   */\n      or\n        /* \"#utility.yul\":3824:3912   */\n      iszero\n      tag_262\n      jumpi\n        /* \"#utility.yul\":3892:3910   */\n      tag_263\n      tag_179\n      jump\t// in\n    tag_263:\n        /* \"#utility.yul\":3824:3912   */\n    tag_262:\n        /* \"#utility.yul\":3932:3942   */\n      dup1\n        /* \"#utility.yul\":3928:3930   */\n      0x40\n        /* \"#utility.yul\":3921:3943   */\n      mstore\n        /* \"#utility.yul\":3711:3949   */\n      pop\n        /* \"#utility.yul\":3668:3949   */\n      pop\n      pop\n      jump\t// out\n        /* \"#utility.yul\":3955:4084   */\n    tag_181:\n        /* \"#utility.yul\":3989:3995   */\n      0x00\n        /* \"#utility.yul\":4016:4036   */\n      tag_265\n      tag_161\n      jump\t// in\n    tag_265:\n        /* \"#utility.yul\":4006:4036   */\n      swap1\n      pop\n        /* \"#utility.yul\":4045:4078   */\n      tag_266\n        /* \"#utility.yul\":4073:4077   */\n      dup3\n        /* \"#utility.yul\":4065:4071   */\n      dup3\n        /* \"#utility.yul\":4045:4078   */\n      tag_180\n      jump\t// in\n    tag_266:\n        /* \"#utility.yul\":3955:4084   */\n      swap2\n      swap1\n      pop\n      jump\t// out\n        /* \"#utility.yul\":4090:4398   */\n    tag_182:\n        /* \"#utility.yul\":4152:4156   */\n      0x00\n        /* \"#utility.yul\":4242:4260   */\n      0xffffffffffffffff\n        /* \"#utility.yul\":4234:4240   */\n      dup3\n        /* \"#utility.yul\":4231:4261   */\n      gt\n        /* \"#utility.yul\":4228:4284   */\n      iszero\n      tag_268\n      jumpi\n        /* \"#utility.yul\":4264:4282   */\n      tag_269\n      tag_179\n      jump\t// in\n    tag_269:\n        /* \"#utility.yul\":4228:4284   */\n    tag_268:\n        /* \"#utility.yul\":4302:4331   */\n      tag_270\n        /* \"#utility.yul\":4324:4330   */\n      dup3\n        /* \"#utility.yul\":4302:4331   */\n      tag_178\n      jump\t// in\n    tag_270:\n        /* \"#utility.yul\":4294:4331   */\n      swap1\n      pop\n        /* \"#utility.yul\":4386:4390   */\n      0x20\n        /* \"#utility.yul\":4380:4384   */\n      dup2\n        /* \"#utility.yul\":4376:4391   */\n      add\n        /* \"#utility.yul\":4368:4391   */\n      swap1\n      pop\n        /* \"#utility.yul\":4090:4398   */\n      swap2\n      swap1\n      pop\n      jump\t// out\n        /* \"#utility.yul\":4404:4552   */\n    tag_183:\n        /* \"#utility.yul\":4502:4508   */\n      dup3\n        /* \"#utility.yul\":4497:4500   */\n      dup2\n        /* \"#utility.yul\":4492:4495   */\n      dup4\n        /* \"#utility.yul\":4479:4509   */\n      calldatacopy\n        /* \"#utility.yul\":4543:4544   */\n      0x00\n        /* \"#utility.yul\":4534:4540   */\n      dup4\n        /* \"#utility.yul\":4529:4532   */\n      dup4\n        /* \"#utility.yul\":4525:4541   */\n      add\n        /* \"#utility.yul\":4518:4545   */\n      mstore\n        /* \"#utility.yul\":4404:4552   */\n      pop\n      pop\n      pop\n      jump\t// out\n        /* \"#utility.yul\":4558:4983   */\n    tag_184:\n        /* \"#utility.yul\":4636:4641   */\n      0x00\n        /* \"#utility.yul\":4661:4727   */\n      tag_273\n        /* \"#utility.yul\":4677:4726   */\n      tag_274\n        /* \"#utility.yul\":4719:4725   */\n      dup5\n        /* \"#utility.yul\":4677:4726   */\n      tag_182\n      jump\t// in\n    tag_274:\n        /* \"#utility.yul\":4661:4727   */\n      tag_181\n      jump\t// in\n    tag_273:\n        /* \"#utility.yul\":4652:4727   */\n      swap1\n      pop\n        /* \"#utility.yul\":4750:4756   */\n      dup3\n        /* \"#utility.yul\":4743:4748   */\n      dup2\n        /* \"#utility.yul\":4736:4757   */\n      mstore\n        /* \"#utility.yul\":4788:4792   */\n      0x20\n        /* \"#utility.yul\":4781:4786   */\n      dup2\n        /* \"#utility.yul\":4777:4793   */\n      add\n        /* \"#utility.yul\":4826:4829   */\n      dup5\n        /* \"#utility.yul\":4817:4823   */\n      dup5\n        /* \"#utility.yul\":4812:4815   */\n      dup5\n        /* \"#utility.yul\":4808:4824   */\n      add\n        /* \"#utility.yul\":4805:4830   */\n      gt\n        /* \"#utility.yul\":4802:4914   */\n      iszero\n      tag_275\n      jumpi\n        /* \"#utility.yul\":4833:4912   */\n      tag_276\n      tag_177\n      jump\t// in\n    tag_276:\n        /* \"#utility.yul\":4802:4914   */\n    tag_275:\n        /* \"#utility.yul\":4923:4977   */\n      tag_277\n        /* \"#utility.yul\":4970:4976   */\n      dup5\n        /* \"#utility.yul\":4965:4968   */\n      dup3\n        /* \"#utility.yul\":4960:4963   */\n      dup6\n        /* \"#utility.yul\":4923:4977   */\n      tag_183\n      jump\t// in\n    tag_277:\n        /* \"#utility.yul\":4642:4983   */\n      pop\n        /* \"#utility.yul\":4558:4983   */\n      swap4\n      swap3\n      pop\n      pop\n      pop\n      jump\t// out\n        /* \"#utility.yul\":5003:5343   */\n    tag_185:\n        /* \"#utility.yul\":5059:5064   */\n      0x00\n        /* \"#utility.yul\":5108:5111   */\n      dup3\n        /* \"#utility.yul\":5101:5105   */\n      0x1f\n        /* \"#utility.yul\":5093:5099   */\n      dup4\n        /* \"#utility.yul\":5089:5106   */\n      add\n        /* \"#utility.yul\":5085:5112   */\n      slt\n        /* \"#utility.yul\":5075:5197   */\n      tag_279\n      jumpi\n        /* \"#utility.yul\":5116:5195   */\n      tag_280\n      tag_176\n      jump\t// in\n    tag_280:\n        /* \"#utility.yul\":5075:5197   */\n    tag_279:\n        /* \"#utility.yul\":5233:5239   */\n      dup2\n        /* \"#utility.yul\":5220:5240   */\n      calldataload\n        /* \"#utility.yul\":5258:5337   */\n      tag_281\n        /* \"#utility.yul\":5333:5336   */\n      dup5\n        /* \"#utility.yul\":5325:5331   */\n      dup3\n        /* \"#utility.yul\":5318:5322   */\n      0x20\n        /* \"#utility.yul\":5310:5316   */\n      dup7\n        /* \"#utility.yul\":5306:5323   */\n      add\n        /* \"#utility.yul\":5258:5337   */\n      tag_184\n      jump\t// in\n    tag_281:\n        /* \"#utility.yul\":5249:5337   */\n      swap2\n      pop\n        /* \"#utility.yul\":5065:5343   */\n      pop\n        /* \"#utility.yul\":5003:5343   */\n      swap3\n      swap2\n      pop\n      pop\n      jump\t// out\n        /* \"#utility.yul\":5349:5858   */\n    tag_24:\n        /* \"#utility.yul\":5418:5424   */\n      0x00\n        /* \"#utility.yul\":5467:5469   */\n      0x20\n        /* \"#utility.yul\":5455:5464   */\n      dup3\n        /* \"#utility.yul\":5446:5453   */\n      dup5\n        /* \"#utility.yul\":5442:5465   */\n      sub\n        /* \"#utility.yul\":5438:5470   */\n      slt\n        /* \"#utility.yul\":5435:5554   */\n      iszero\n      tag_283\n      jumpi\n        /* \"#utility.yul\":5473:5552   */\n      tag_284\n      tag_162\n      jump\t// in\n    tag_284:\n        /* \"#utility.yul\":5435:5554   */\n    tag_283:\n        /* \"#utility.yul\":5621:5622   */\n      0x00\n        /* \"#utility.yul\":5610:5619   */\n      dup3\n        /* \"#utility.yul\":5606:5623   */\n      add\n        /* \"#utility.yul\":5593:5624   */\n      calldataload\n        /* \"#utility.yul\":5651:5669   */\n      0xffffffffffffffff\n        /* \"#utility.yul\":5643:5649   */\n      dup2\n        /* \"#utility.yul\":5640:5670   */\n      gt\n        /* \"#utility.yul\":5637:5754   */\n      iszero\n      tag_285\n      jumpi\n        /* \"#utility.yul\":5673:5752   */\n      tag_286\n      tag_163\n      jump\t// in\n    tag_286:\n        /* \"#utility.yul\":5637:5754   */\n    tag_285:\n        /* \"#utility.yul\":5778:5841   */\n      tag_287\n        /* \"#utility.yul\":5833:5840   */\n      dup5\n        /* \"#utility.yul\":5824:5830   */\n      dup3\n        /* \"#utility.yul\":5813:5822   */\n      dup6\n        /* \"#utility.yul\":5809:5831   */\n      add\n        /* \"#utility.yul\":5778:5841   */\n      tag_185\n      jump\t// in\n    tag_287:\n        /* \"#utility.yul\":5768:5841   */\n      swap2\n      pop\n        /* \"#utility.yul\":5564:5851   */\n      pop\n        /* \"#utility.yul\":5349:5858   */\n      swap3\n      swap2\n      pop\n      pop\n      jump\t// out\n        /* \"#utility.yul\":5864:5982   */\n    tag_186:\n        /* \"#utility.yul\":5951:5975   */\n      tag_289\n        /* \"#utility.yul\":5969:5974   */\n      dup2\n        /* \"#utility.yul\":5951:5975   */\n      tag_165\n      jump\t// in\n    tag_289:\n        /* \"#utility.yul\":5946:5949   */\n      dup3\n        /* \"#utility.yul\":5939:5976   */\n      mstore\n        /* \"#utility.yul\":5864:5982   */\n      pop\n      pop\n      jump\t// out\n        /* \"#utility.yul\":5988:6210   */\n    tag_27:\n        /* \"#utility.yul\":6081:6085   */\n      0x00\n        /* \"#utility.yul\":6119:6121   */\n      0x20\n        /* \"#utility.yul\":6108:6117   */\n      dup3\n        /* \"#utility.yul\":6104:6122   */\n      add\n        /* \"#utility.yul\":6096:6122   */\n      swap1\n      pop\n        /* \"#utility.yul\":6132:6203   */\n      tag_291\n        /* \"#utility.yul\":6200:6201   */\n      0x00\n        /* \"#utility.yul\":6189:6198   */\n      dup4\n        /* \"#utility.yul\":6185:6202   */\n      add\n        /* \"#utility.yul\":6176:6182   */\n      dup5\n        /* \"#utility.yul\":6132:6203   */\n      tag_186\n      jump\t// in\n    tag_291:\n        /* \"#utility.yul\":5988:6210   */\n      swap3\n      swap2\n      pop\n      pop\n      jump\t// out\n        /* \"#utility.yul\":6216:6293   */\n    tag_187:\n        /* \"#utility.yul\":6253:6260   */\n      0x00\n        /* \"#utility.yul\":6282:6287   */\n      dup2\n        /* \"#utility.yul\":6271:6287   */\n      swap1\n      pop\n        /* \"#utility.yul\":6216:6293   */\n      swap2\n      swap1\n      pop\n      jump\t// out\n        /* \"#utility.yul\":6299:6417   */\n    tag_188:\n        /* \"#utility.yul\":6386:6410   */\n      tag_294\n        /* \"#utility.yul\":6404:6409   */\n      dup2\n        /* \"#utility.yul\":6386:6410   */\n      tag_187\n      jump\t// in\n    tag_294:\n        /* \"#utility.yul\":6381:6384   */\n      dup3\n        /* \"#utility.yul\":6374:6411   */\n      mstore\n        /* \"#utility.yul\":6299:6417   */\n      pop\n      pop\n      jump\t// out\n        /* \"#utility.yul\":6423:6645   */\n    tag_31:\n        /* \"#utility.yul\":6516:6520   */\n      0x00\n        /* \"#utility.yul\":6554:6556   */\n      0x20\n        /* \"#utility.yul\":6543:6552   */\n      dup3\n        /* \"#utility.yul\":6539:6557   */\n      add\n        /* \"#utility.yul\":6531:6557   */\n      swap1\n      pop\n        /* \"#utility.yul\":6567:6638   */\n      tag_296\n        /* \"#utility.yul\":6635:6636   */\n      0x00\n        /* \"#utility.yul\":6624:6633   */\n      dup4\n        /* \"#utility.yul\":6620:6637   */\n      add\n        /* \"#utility.yul\":6611:6617   */\n      dup5\n        /* \"#utility.yul\":6567:6638   */\n      tag_188\n      jump\t// in\n    tag_296:\n        /* \"#utility.yul\":6423:6645   */\n      swap3\n      swap2\n      pop\n      pop\n      jump\t// out\n        /* \"#utility.yul\":6651:6711   */\n    tag_189:\n        /* \"#utility.yul\":6679:6682   */\n      0x00\n        /* \"#utility.yul\":6700:6705   */\n      dup2\n        /* \"#utility.yul\":6693:6705   */\n      swap1\n      pop\n        /* \"#utility.yul\":6651:6711   */\n      swap2\n      swap1\n      pop\n      jump\t// out\n        /* \"#utility.yul\":6717:6859   */\n    tag_190:\n        /* \"#utility.yul\":6767:6776   */\n      0x00\n        /* \"#utility.yul\":6800:6853   */\n      tag_299\n        /* \"#utility.yul\":6818:6852   */\n      tag_300\n        /* \"#utility.yul\":6827:6851   */\n      tag_301\n        /* \"#utility.yul\":6845:6850   */\n      dup5\n        /* \"#utility.yul\":6827:6851   */\n      tag_164\n      jump\t// in\n    tag_301:\n        /* \"#utility.yul\":6818:6852   */\n      tag_189\n      jump\t// in\n    tag_300:\n        /* \"#utility.yul\":6800:6853   */\n      tag_164\n      jump\t// in\n    tag_299:\n        /* \"#utility.yul\":6787:6853   */\n      swap1\n      pop\n        /* \"#utility.yul\":6717:6859   */\n      swap2\n      swap1\n      pop\n      jump\t// out\n        /* \"#utility.yul\":6865:6991   */\n    tag_191:\n        /* \"#utility.yul\":6915:6924   */\n      0x00\n        /* \"#utility.yul\":6948:6985   */\n      tag_303\n        /* \"#utility.yul\":6979:6984   */\n      dup3\n        /* \"#utility.yul\":6948:6985   */\n      tag_190\n      jump\t// in\n    tag_303:\n        /* \"#utility.yul\":6935:6985   */\n      swap1\n      pop\n        /* \"#utility.yul\":6865:6991   */\n      swap2\n      swap1\n      pop\n      jump\t// out\n        /* \"#utility.yul\":6997:7140   */\n    tag_192:\n        /* \"#utility.yul\":7064:7073   */\n      0x00\n        /* \"#utility.yul\":7097:7134   */\n      tag_305\n        /* \"#utility.yul\":7128:7133   */\n      dup3\n        /* \"#utility.yul\":7097:7134   */\n      tag_191\n      jump\t// in\n    tag_305:\n        /* \"#utility.yul\":7084:7134   */\n      swap1\n      pop\n        /* \"#utility.yul\":6997:7140   */\n      swap2\n      swap1\n      pop\n      jump\t// out\n        /* \"#utility.yul\":7146:7311   */\n    tag_193:\n        /* \"#utility.yul\":7250:7304   */\n      tag_307\n        /* \"#utility.yul\":7298:7303   */\n      dup2\n        /* \"#utility.yul\":7250:7304   */\n      tag_192\n      jump\t// in\n    tag_307:\n        /* \"#utility.yul\":7245:7248   */\n      dup3\n        /* \"#utility.yul\":7238:7305   */\n      mstore\n        /* \"#utility.yul\":7146:7311   */\n      pop\n      pop\n      jump\t// out\n        /* \"#utility.yul\":7317:7573   */\n    tag_42:\n        /* \"#utility.yul\":7427:7431   */\n      0x00\n        /* \"#utility.yul\":7465:7467   */\n      0x20\n        /* \"#utility.yul\":7454:7463   */\n      dup3\n        /* \"#utility.yul\":7450:7468   */\n      add\n        /* \"#utility.yul\":7442:7468   */\n      swap1\n      pop\n        /* \"#utility.yul\":7478:7566   */\n      tag_309\n        /* \"#utility.yul\":7563:7564   */\n      0x00\n        /* \"#utility.yul\":7552:7561   */\n      dup4\n        /* \"#utility.yul\":7548:7565   */\n      add\n        /* \"#utility.yul\":7539:7545   */\n      dup5\n        /* \"#utility.yul\":7478:7566   */\n      tag_193\n      jump\t// in\n    tag_309:\n        /* \"#utility.yul\":7317:7573   */\n      swap3\n      swap2\n      pop\n      pop\n      jump\t// out\n        /* \"#utility.yul\":7579:7730   */\n    tag_194:\n        /* \"#utility.yul\":7654:7663   */\n      0x00\n        /* \"#utility.yul\":7687:7724   */\n      tag_311\n        /* \"#utility.yul\":7718:7723   */\n      dup3\n        /* \"#utility.yul\":7687:7724   */\n      tag_191\n      jump\t// in\n    tag_311:\n        /* \"#utility.yul\":7674:7724   */\n      swap1\n      pop\n        /* \"#utility.yul\":7579:7730   */\n      swap2\n      swap1\n      pop\n      jump\t// out\n        /* \"#utility.yul\":7736:7917   */\n    tag_195:\n        /* \"#utility.yul\":7848:7910   */\n      tag_313\n        /* \"#utility.yul\":7904:7909   */\n      dup2\n        /* \"#utility.yul\":7848:7910   */\n      tag_194\n      jump\t// in\n    tag_313:\n        /* \"#utility.yul\":7843:7846   */\n      dup3\n        /* \"#utility.yul\":7836:7911   */\n      mstore\n        /* \"#utility.yul\":7736:7917   */\n      pop\n      pop\n      jump\t// out\n        /* \"#utility.yul\":7923:8195   */\n    tag_46:\n        /* \"#utility.yul\":8041:8045   */\n      0x00\n        /* \"#utility.yul\":8079:8081   */\n      0x20\n        /* \"#utility.yul\":8068:8077   */\n      dup3\n        /* \"#utility.yul\":8064:8082   */\n      add\n        /* \"#utility.yul\":8056:8082   */\n      swap1\n      pop\n        /* \"#utility.yul\":8092:8188   */\n      tag_315\n        /* \"#utility.yul\":8185:8186   */\n      0x00\n        /* \"#utility.yul\":8174:8183   */\n      dup4\n        /* \"#utility.yul\":8170:8187   */\n      add\n        /* \"#utility.yul\":8161:8167   */\n      dup5\n        /* \"#utility.yul\":8092:8188   */\n      tag_195\n      jump\t// in\n    tag_315:\n        /* \"#utility.yul\":7923:8195   */\n      swap3\n      swap2\n      pop\n      pop\n      jump\t// out\n        /* \"#utility.yul\":8201:8323   */\n    tag_196:\n        /* \"#utility.yul\":8274:8298   */\n      tag_317\n        /* \"#utility.yul\":8292:8297   */\n      dup2\n        /* \"#utility.yul\":8274:8298   */\n      tag_187\n      jump\t// in\n    tag_317:\n        /* \"#utility.yul\":8267:8272   */\n      dup2\n        /* \"#utility.yul\":8264:8299   */\n      eq\n        /* \"#utility.yul\":8254:8317   */\n      tag_318\n      jumpi\n        /* \"#utility.yul\":8313:8314   */\n      0x00\n        /* \"#utility.yul\":8310:8311   */\n      0x00\n        /* \"#utility.yul\":8303:8315   */\n      revert\n        /* \"#utility.yul\":8254:8317   */\n    tag_318:\n        /* \"#utility.yul\":8201:8323   */\n      pop\n      jump\t// out\n        /* \"#utility.yul\":8329:8468   */\n    tag_197:\n        /* \"#utility.yul\":8375:8380   */\n      0x00\n        /* \"#utility.yul\":8413:8419   */\n      dup2\n        /* \"#utility.yul\":8400:8420   */\n      calldataload\n        /* \"#utility.yul\":8391:8420   */\n      swap1\n      pop\n        /* \"#utility.yul\":8429:8462   */\n      tag_320\n        /* \"#utility.yul\":8456:8461   */\n      dup2\n        /* \"#utility.yul\":8429:8462   */\n      tag_196\n      jump\t// in\n    tag_320:\n        /* \"#utility.yul\":8329:8468   */\n      swap3\n      swap2\n      pop\n      pop\n      jump\t// out\n        /* \"#utility.yul\":8474:8803   */\n    tag_52:\n        /* \"#utility.yul\":8533:8539   */\n      0x00\n        /* \"#utility.yul\":8582:8584   */\n      0x20\n        /* \"#utility.yul\":8570:8579   */\n      dup3\n        /* \"#utility.yul\":8561:8568   */\n      dup5\n        /* \"#utility.yul\":8557:8580   */\n      sub\n        /* \"#utility.yul\":8553:8585   */\n      slt\n        /* \"#utility.yul\":8550:8669   */\n      iszero\n      tag_322\n      jumpi\n        /* \"#utility.yul\":8588:8667   */\n      tag_323\n      tag_162\n      jump\t// in\n    tag_323:\n        /* \"#utility.yul\":8550:8669   */\n    tag_322:\n        /* \"#utility.yul\":8708:8709   */\n      0x00\n        /* \"#utility.yul\":8733:8786   */\n      tag_324\n        /* \"#utility.yul\":8778:8785   */\n      dup5\n        /* \"#utility.yul\":8769:8775   */\n      dup3\n        /* \"#utility.yul\":8758:8767   */\n      dup6\n        /* \"#utility.yul\":8754:8776   */\n      add\n        /* \"#utility.yul\":8733:8786   */\n      tag_197\n      jump\t// in\n    tag_324:\n        /* \"#utility.yul\":8723:8786   */\n      swap2\n      pop\n        /* \"#utility.yul\":8679:8796   */\n      pop\n        /* \"#utility.yul\":8474:8803   */\n      swap3\n      swap2\n      pop\n      pop\n      jump\t// out\n        /* \"#utility.yul\":8809:8960   */\n    tag_198:\n        /* \"#utility.yul\":8884:8893   */\n      0x00\n        /* \"#utility.yul\":8917:8954   */\n      tag_326\n        /* \"#utility.yul\":8948:8953   */\n      dup3\n        /* \"#utility.yul\":8917:8954   */\n      tag_191\n      jump\t// in\n    tag_326:\n        /* \"#utility.yul\":8904:8954   */\n      swap1\n      pop\n        /* \"#utility.yul\":8809:8960   */\n      swap2\n      swap1\n      pop\n      jump\t// out\n        /* \"#utility.yul\":8966:9147   */\n    tag_199:\n        /* \"#utility.yul\":9078:9140   */\n      tag_328\n        /* \"#utility.yul\":9134:9139   */\n      dup2\n        /* \"#utility.yul\":9078:9140   */\n      tag_198\n      jump\t// in\n    tag_328:\n        /* \"#utility.yul\":9073:9076   */\n      dup3\n        /* \"#utility.yul\":9066:9141   */\n      mstore\n        /* \"#utility.yul\":8966:9147   */\n      pop\n      pop\n      jump\t// out\n        /* \"#utility.yul\":9153:9425   */\n    tag_57:\n        /* \"#utility.yul\":9271:9275   */\n      0x00\n        /* \"#utility.yul\":9309:9311   */\n      0x20\n        /* \"#utility.yul\":9298:9307   */\n      dup3\n        /* \"#utility.yul\":9294:9312   */\n      add\n        /* \"#utility.yul\":9286:9312   */\n      swap1\n      pop\n        /* \"#utility.yul\":9322:9418   */\n      tag_330\n        /* \"#utility.yul\":9415:9416   */\n      0x00\n        /* \"#utility.yul\":9404:9413   */\n      dup4\n        /* \"#utility.yul\":9400:9417   */\n      add\n        /* \"#utility.yul\":9391:9397   */\n      dup5\n        /* \"#utility.yul\":9322:9418   */\n      tag_199\n      jump\t// in\n    tag_330:\n        /* \"#utility.yul\":9153:9425   */\n      swap3\n      swap2\n      pop\n      pop\n      jump\t// out\n        /* \"#utility.yul\":9431:9763   */\n    tag_71:\n        /* \"#utility.yul\":9552:9556   */\n      0x00\n        /* \"#utility.yul\":9590:9592   */\n      0x40\n        /* \"#utility.yul\":9579:9588   */\n      dup3\n        /* \"#utility.yul\":9575:9593   */\n      add\n        /* \"#utility.yul\":9567:9593   */\n      swap1\n      pop\n        /* \"#utility.yul\":9603:9674   */\n      tag_332\n        /* \"#utility.yul\":9671:9672   */\n      0x00\n        /* \"#utility.yul\":9660:9669   */\n      dup4\n        /* \"#utility.yul\":9656:9673   */\n      add\n        /* \"#utility.yul\":9647:9653   */\n      dup6\n        /* \"#utility.yul\":9603:9674   */\n      tag_186\n      jump\t// in\n    tag_332:\n        /* \"#utility.yul\":9684:9756   */\n      tag_333\n        /* \"#utility.yul\":9752:9754   */\n      0x20\n        /* \"#utility.yul\":9741:9750   */\n      dup4\n        /* \"#utility.yul\":9737:9755   */\n      add\n        /* \"#utility.yul\":9728:9734   */\n      dup5\n        /* \"#utility.yul\":9684:9756   */\n      tag_186\n      jump\t// in\n    tag_333:\n        /* \"#utility.yul\":9431:9763   */\n      swap4\n      swap3\n      pop\n      pop\n      pop\n      jump\t// out\n        /* \"#utility.yul\":9769:9912   */\n    tag_200:\n        /* \"#utility.yul\":9826:9831   */\n      0x00\n        /* \"#utility.yul\":9857:9863   */\n      dup2\n        /* \"#utility.yul\":9851:9864   */\n      mload\n        /* \"#utility.yul\":9842:9864   */\n      swap1\n      pop\n        /* \"#utility.yul\":9873:9906   */\n      tag_335\n        /* \"#utility.yul\":9900:9905   */\n      dup2\n        /* \"#utility.yul\":9873:9906   */\n      tag_166\n      jump\t// in\n    tag_335:\n        /* \"#utility.yul\":9769:9912   */\n      swap3\n      swap2\n      pop\n      pop\n      jump\t// out\n        /* \"#utility.yul\":9918:10269   */\n    tag_75:\n        /* \"#utility.yul\":9988:9994   */\n      0x00\n        /* \"#utility.yul\":10037:10039   */\n      0x20\n        /* \"#utility.yul\":10025:10034   */\n      dup3\n        /* \"#utility.yul\":10016:10023   */\n      dup5\n        /* \"#utility.yul\":10012:10035   */\n      sub\n        /* \"#utility.yul\":10008:10040   */\n      slt\n        /* \"#utility.yul\":10005:10124   */\n      iszero\n      tag_337\n      jumpi\n        /* \"#utility.yul\":10043:10122   */\n      tag_338\n      tag_162\n      jump\t// in\n    tag_338:\n        /* \"#utility.yul\":10005:10124   */\n    tag_337:\n        /* \"#utility.yul\":10163:10164   */\n      0x00\n        /* \"#utility.yul\":10188:10252   */\n      tag_339\n        /* \"#utility.yul\":10244:10251   */\n      dup5\n        /* \"#utility.yul\":10235:10241   */\n      dup3\n        /* \"#utility.yul\":10224:10233   */\n      dup6\n        /* \"#utility.yul\":10220:10242   */\n      add\n        /* \"#utility.yul\":10188:10252   */\n      tag_200\n      jump\t// in\n    tag_339:\n        /* \"#utility.yul\":10178:10252   */\n      swap2\n      pop\n        /* \"#utility.yul\":10134:10262   */\n      pop\n        /* \"#utility.yul\":9918:10269   */\n      swap3\n      swap2\n      pop\n      pop\n      jump\t// out\n        /* \"#utility.yul\":10275:10389   */\n    tag_201:\n        /* \"#utility.yul\":10312:10319   */\n      0x00\n        /* \"#utility.yul\":10352:10382   */\n      0xffffffffffffffffffffffffffff\n        /* \"#utility.yul\":10345:10350   */\n      dup3\n        /* \"#utility.yul\":10341:10383   */\n      and\n        /* \"#utility.yul\":10330:10383   */\n      swap1\n      pop\n        /* \"#utility.yul\":10275:10389   */\n      swap2\n      swap1\n      pop\n      jump\t// out\n        /* \"#utility.yul\":10395:10517   */\n    tag_202:\n        /* \"#utility.yul\":10468:10492   */\n      tag_342\n        /* \"#utility.yul\":10486:10491   */\n      dup2\n        /* \"#utility.yul\":10468:10492   */\n      tag_201\n      jump\t// in\n    tag_342:\n        /* \"#utility.yul\":10461:10466   */\n      dup2\n        /* \"#utility.yul\":10458:10493   */\n      eq\n        /* \"#utility.yul\":10448:10511   */\n      tag_343\n      jumpi\n        /* \"#utility.yul\":10507:10508   */\n      0x00\n        /* \"#utility.yul\":10504:10505   */\n      0x00\n        /* \"#utility.yul\":10497:10509   */\n      revert\n        /* \"#utility.yul\":10448:10511   */\n    tag_343:\n        /* \"#utility.yul\":10395:10517   */\n      pop\n      jump\t// out\n        /* \"#utility.yul\":10523:10666   */\n    tag_203:\n        /* \"#utility.yul\":10580:10585   */\n      0x00\n        /* \"#utility.yul\":10611:10617   */\n      dup2\n        /* \"#utility.yul\":10605:10618   */\n      mload\n        /* \"#utility.yul\":10596:10618   */\n      swap1\n      pop\n        /* \"#utility.yul\":10627:10660   */\n      tag_345\n        /* \"#utility.yul\":10654:10659   */\n      dup2\n        /* \"#utility.yul\":10627:10660   */\n      tag_202\n      jump\t// in\n    tag_345:\n        /* \"#utility.yul\":10523:10666   */\n      swap3\n      swap2\n      pop\n      pop\n      jump\t// out\n        /* \"#utility.yul\":10672:10765   */\n    tag_204:\n        /* \"#utility.yul\":10708:10715   */\n      0x00\n        /* \"#utility.yul\":10748:10758   */\n      0xffffffff\n        /* \"#utility.yul\":10741:10746   */\n      dup3\n        /* \"#utility.yul\":10737:10759   */\n      and\n        /* \"#utility.yul\":10726:10759   */\n      swap1\n      pop\n        /* \"#utility.yul\":10672:10765   */\n      swap2\n      swap1\n      pop\n      jump\t// out\n        /* \"#utility.yul\":10771:10891   */\n    tag_205:\n        /* \"#utility.yul\":10843:10866   */\n      tag_348\n        /* \"#utility.yul\":10860:10865   */\n      dup2\n        /* \"#utility.yul\":10843:10866   */\n      tag_204\n      jump\t// in\n    tag_348:\n        /* \"#utility.yul\":10836:10841   */\n      dup2\n        /* \"#utility.yul\":10833:10867   */\n      eq\n        /* \"#utility.yul\":10823:10885   */\n      tag_349\n      jumpi\n        /* \"#utility.yul\":10881:10882   */\n      0x00\n        /* \"#utility.yul\":10878:10879   */\n      0x00\n        /* \"#utility.yul\":10871:10883   */\n      revert\n        /* \"#utility.yul\":10823:10885   */\n    tag_349:\n        /* \"#utility.yul\":10771:10891   */\n      pop\n      jump\t// out\n        /* \"#utility.yul\":10897:11038   */\n    tag_206:\n        /* \"#utility.yul\":10953:10958   */\n      0x00\n        /* \"#utility.yul\":10984:10990   */\n      dup2\n        /* \"#utility.yul\":10978:10991   */\n      mload\n        /* \"#utility.yul\":10969:10991   */\n      swap1\n      pop\n        /* \"#utility.yul\":11000:11032   */\n      tag_351\n        /* \"#utility.yul\":11026:11031   */\n      dup2\n        /* \"#utility.yul\":11000:11032   */\n      tag_205\n      jump\t// in\n    tag_351:\n        /* \"#utility.yul\":10897:11038   */\n      swap3\n      swap2\n      pop\n      pop\n      jump\t// out\n        /* \"#utility.yul\":11044:11705   */\n    tag_80:\n        /* \"#utility.yul\":11131:11137   */\n      0x00\n        /* \"#utility.yul\":11139:11145   */\n      0x00\n        /* \"#utility.yul\":11147:11153   */\n      0x00\n        /* \"#utility.yul\":11196:11198   */\n      0x60\n        /* \"#utility.yul\":11184:11193   */\n      dup5\n        /* \"#utility.yul\":11175:11182   */\n      dup7\n        /* \"#utility.yul\":11171:11194   */\n      sub\n        /* \"#utility.yul\":11167:11199   */\n      slt\n        /* \"#utility.yul\":11164:11283   */\n      iszero\n      tag_353\n      jumpi\n        /* \"#utility.yul\":11202:11281   */\n      tag_354\n      tag_162\n      jump\t// in\n    tag_354:\n        /* \"#utility.yul\":11164:11283   */\n    tag_353:\n        /* \"#utility.yul\":11322:11323   */\n      0x00\n        /* \"#utility.yul\":11347:11411   */\n      tag_355\n        /* \"#utility.yul\":11403:11410   */\n      dup7\n        /* \"#utility.yul\":11394:11400   */\n      dup3\n        /* \"#utility.yul\":11383:11392   */\n      dup8\n        /* \"#utility.yul\":11379:11401   */\n      add\n        /* \"#utility.yul\":11347:11411   */\n      tag_203\n      jump\t// in\n    tag_355:\n        /* \"#utility.yul\":11337:11411   */\n      swap4\n      pop\n        /* \"#utility.yul\":11293:11421   */\n      pop\n        /* \"#utility.yul\":11460:11462   */\n      0x20\n        /* \"#utility.yul\":11486:11550   */\n      tag_356\n        /* \"#utility.yul\":11542:11549   */\n      dup7\n        /* \"#utility.yul\":11533:11539   */\n      dup3\n        /* \"#utility.yul\":11522:11531   */\n      dup8\n        /* \"#utility.yul\":11518:11540   */\n      add\n        /* \"#utility.yul\":11486:11550   */\n      tag_203\n      jump\t// in\n    tag_356:\n        /* \"#utility.yul\":11476:11550   */\n      swap3\n      pop\n        /* \"#utility.yul\":11431:11560   */\n      pop\n        /* \"#utility.yul\":11599:11601   */\n      0x40\n        /* \"#utility.yul\":11625:11688   */\n      tag_357\n        /* \"#utility.yul\":11680:11687   */\n      dup7\n        /* \"#utility.yul\":11671:11677   */\n      dup3\n        /* \"#utility.yul\":11660:11669   */\n      dup8\n        /* \"#utility.yul\":11656:11678   */\n      add\n        /* \"#utility.yul\":11625:11688   */\n      tag_206\n      jump\t// in\n    tag_357:\n        /* \"#utility.yul\":11615:11688   */\n      swap2\n      pop\n        /* \"#utility.yul\":11570:11698   */\n      pop\n        /* \"#utility.yul\":11044:11705   */\n      swap3\n      pop\n      swap3\n      pop\n      swap3\n      jump\t// out\n        /* \"#utility.yul\":11711:11826   */\n    tag_207:\n        /* \"#utility.yul\":11796:11819   */\n      tag_359\n        /* \"#utility.yul\":11813:11818   */\n      dup2\n        /* \"#utility.yul\":11796:11819   */\n      tag_169\n      jump\t// in\n    tag_359:\n        /* \"#utility.yul\":11791:11794   */\n      dup3\n        /* \"#utility.yul\":11784:11820   */\n      mstore\n        /* \"#utility.yul\":11711:11826   */\n      pop\n      pop\n      jump\t// out\n        /* \"#utility.yul\":11832:12270   */\n    tag_93:\n        /* \"#utility.yul\":11979:11983   */\n      0x00\n        /* \"#utility.yul\":12017:12019   */\n      0x60\n        /* \"#utility.yul\":12006:12015   */\n      dup3\n        /* \"#utility.yul\":12002:12020   */\n      add\n        /* \"#utility.yul\":11994:12020   */\n      swap1\n      pop\n        /* \"#utility.yul\":12030:12101   */\n      tag_361\n        /* \"#utility.yul\":12098:12099   */\n      0x00\n        /* \"#utility.yul\":12087:12096   */\n      dup4\n        /* \"#utility.yul\":12083:12100   */\n      add\n        /* \"#utility.yul\":12074:12080   */\n      dup7\n        /* \"#utility.yul\":12030:12101   */\n      tag_186\n      jump\t// in\n    tag_361:\n        /* \"#utility.yul\":12111:12183   */\n      tag_362\n        /* \"#utility.yul\":12179:12181   */\n      0x20\n        /* \"#utility.yul\":12168:12177   */\n      dup4\n        /* \"#utility.yul\":12164:12182   */\n      add\n        /* \"#utility.yul\":12155:12161   */\n      dup6\n        /* \"#utility.yul\":12111:12183   */\n      tag_186\n      jump\t// in\n    tag_362:\n        /* \"#utility.yul\":12193:12263   */\n      tag_363\n        /* \"#utility.yul\":12259:12261   */\n      0x40\n        /* \"#utility.yul\":12248:12257   */\n      dup4\n        /* \"#utility.yul\":12244:12262   */\n      add\n        /* \"#utility.yul\":12235:12241   */\n      dup5\n        /* \"#utility.yul\":12193:12263   */\n      tag_207\n      jump\t// in\n    tag_363:\n        /* \"#utility.yul\":11832:12270   */\n      swap5\n      swap4\n      pop\n      pop\n      pop\n      pop\n      jump\t// out\n        /* \"#utility.yul\":12276:12419   */\n    tag_208:\n        /* \"#utility.yul\":12333:12338   */\n      0x00\n        /* \"#utility.yul\":12364:12370   */\n      dup2\n        /* \"#utility.yul\":12358:12371   */\n      mload\n        /* \"#utility.yul\":12349:12371   */\n      swap1\n      pop\n        /* \"#utility.yul\":12380:12413   */\n      tag_365\n        /* \"#utility.yul\":12407:12412   */\n      dup2\n        /* \"#utility.yul\":12380:12413   */\n      tag_196\n      jump\t// in\n    tag_365:\n        /* \"#utility.yul\":12276:12419   */\n      swap3\n      swap2\n      pop\n      pop\n      jump\t// out\n        /* \"#utility.yul\":12425:12776   */\n    tag_102:\n        /* \"#utility.yul\":12495:12501   */\n      0x00\n        /* \"#utility.yul\":12544:12546   */\n      0x20\n        /* \"#utility.yul\":12532:12541   */\n      dup3\n        /* \"#utility.yul\":12523:12530   */\n      dup5\n        /* \"#utility.yul\":12519:12542   */\n      sub\n        /* \"#utility.yul\":12515:12547   */\n      slt\n        /* \"#utility.yul\":12512:12631   */\n      iszero\n      tag_367\n      jumpi\n        /* \"#utility.yul\":12550:12629   */\n      tag_368\n      tag_162\n      jump\t// in\n    tag_368:\n        /* \"#utility.yul\":12512:12631   */\n    tag_367:\n        /* \"#utility.yul\":12670:12671   */\n      0x00\n        /* \"#utility.yul\":12695:12759   */\n      tag_369\n        /* \"#utility.yul\":12751:12758   */\n      dup5\n        /* \"#utility.yul\":12742:12748   */\n      dup3\n        /* \"#utility.yul\":12731:12740   */\n      dup6\n        /* \"#utility.yul\":12727:12749   */\n      add\n        /* \"#utility.yul\":12695:12759   */\n      tag_208\n      jump\t// in\n    tag_369:\n        /* \"#utility.yul\":12685:12759   */\n      swap2\n      pop\n        /* \"#utility.yul\":12641:12769   */\n      pop\n        /* \"#utility.yul\":12425:12776   */\n      swap3\n      swap2\n      pop\n      pop\n      jump\t// out\n        /* \"#utility.yul\":12782:12881   */\n    tag_209:\n        /* \"#utility.yul\":12834:12840   */\n      0x00\n        /* \"#utility.yul\":12868:12873   */\n      dup2\n        /* \"#utility.yul\":12862:12874   */\n      mload\n        /* \"#utility.yul\":12852:12874   */\n      swap1\n      pop\n        /* \"#utility.yul\":12782:12881   */\n      swap2\n      swap1\n      pop\n      jump\t// out\n        /* \"#utility.yul\":12887:13056   */\n    tag_210:\n        /* \"#utility.yul\":12971:12982   */\n      0x00\n        /* \"#utility.yul\":13005:13011   */\n      dup3\n        /* \"#utility.yul\":13000:13003   */\n      dup3\n        /* \"#utility.yul\":12993:13012   */\n      mstore\n        /* \"#utility.yul\":13045:13049   */\n      0x20\n        /* \"#utility.yul\":13040:13043   */\n      dup3\n        /* \"#utility.yul\":13036:13050   */\n      add\n        /* \"#utility.yul\":13021:13050   */\n      swap1\n      pop\n        /* \"#utility.yul\":12887:13056   */\n      swap3\n      swap2\n      pop\n      pop\n      jump\t// out\n        /* \"#utility.yul\":13062:13201   */\n    tag_211:\n        /* \"#utility.yul\":13151:13157   */\n      dup3\n        /* \"#utility.yul\":13146:13149   */\n      dup2\n        /* \"#utility.yul\":13141:13144   */\n      dup4\n        /* \"#utility.yul\":13135:13158   */\n      mcopy\n        /* \"#utility.yul\":13192:13193   */\n      0x00\n        /* \"#utility.yul\":13183:13189   */\n      dup4\n        /* \"#utility.yul\":13178:13181   */\n      dup4\n        /* \"#utility.yul\":13174:13190   */\n      add\n        /* \"#utility.yul\":13167:13194   */\n      mstore\n        /* \"#utility.yul\":13062:13201   */\n      pop\n      pop\n      pop\n      jump\t// out\n        /* \"#utility.yul\":13207:13584   */\n    tag_212:\n        /* \"#utility.yul\":13295:13298   */\n      0x00\n        /* \"#utility.yul\":13323:13362   */\n      tag_374\n        /* \"#utility.yul\":13356:13361   */\n      dup3\n        /* \"#utility.yul\":13323:13362   */\n      tag_209\n      jump\t// in\n    tag_374:\n        /* \"#utility.yul\":13378:13449   */\n      tag_375\n        /* \"#utility.yul\":13442:13448   */\n      dup2\n        /* \"#utility.yul\":13437:13440   */\n      dup6\n        /* \"#utility.yul\":13378:13449   */\n      tag_210\n      jump\t// in\n    tag_375:\n        /* \"#utility.yul\":13371:13449   */\n      swap4\n      pop\n        /* \"#utility.yul\":13458:13523   */\n      tag_376\n        /* \"#utility.yul\":13516:13522   */\n      dup2\n        /* \"#utility.yul\":13511:13514   */\n      dup6\n        /* \"#utility.yul\":13504:13508   */\n      0x20\n        /* \"#utility.yul\":13497:13502   */\n      dup7\n        /* \"#utility.yul\":13493:13509   */\n      add\n        /* \"#utility.yul\":13458:13523   */\n      tag_211\n      jump\t// in\n    tag_376:\n        /* \"#utility.yul\":13548:13577   */\n      tag_377\n        /* \"#utility.yul\":13570:13576   */\n      dup2\n        /* \"#utility.yul\":13548:13577   */\n      tag_178\n      jump\t// in\n    tag_377:\n        /* \"#utility.yul\":13543:13546   */\n      dup5\n        /* \"#utility.yul\":13539:13578   */\n      add\n        /* \"#utility.yul\":13532:13578   */\n      swap2\n      pop\n        /* \"#utility.yul\":13299:13584   */\n      pop\n        /* \"#utility.yul\":13207:13584   */\n      swap3\n      swap2\n      pop\n      pop\n      jump\t// out\n        /* \"#utility.yul\":13590:13903   */\n    tag_106:\n        /* \"#utility.yul\":13703:13707   */\n      0x00\n        /* \"#utility.yul\":13741:13743   */\n      0x20\n        /* \"#utility.yul\":13730:13739   */\n      dup3\n        /* \"#utility.yul\":13726:13744   */\n      add\n        /* \"#utility.yul\":13718:13744   */\n      swap1\n      pop\n        /* \"#utility.yul\":13790:13799   */\n      dup2\n        /* \"#utility.yul\":13784:13788   */\n      dup2\n        /* \"#utility.yul\":13780:13800   */\n      sub\n        /* \"#utility.yul\":13776:13777   */\n      0x00\n        /* \"#utility.yul\":13765:13774   */\n      dup4\n        /* \"#utility.yul\":13761:13778   */\n      add\n        /* \"#utility.yul\":13754:13801   */\n      mstore\n        /* \"#utility.yul\":13818:13896   */\n      tag_379\n        /* \"#utility.yul\":13891:13895   */\n      dup2\n        /* \"#utility.yul\":13882:13888   */\n      dup5\n        /* \"#utility.yul\":13818:13896   */\n      tag_212\n      jump\t// in\n    tag_379:\n        /* \"#utility.yul\":13810:13896   */\n      swap1\n      pop\n        /* \"#utility.yul\":13590:13903   */\n      swap3\n      swap2\n      pop\n      pop\n      jump\t// out\n        /* \"#utility.yul\":13909:14089   */\n    tag_213:\n        /* \"#utility.yul\":13957:14034   */\n      0x4e487b7100000000000000000000000000000000000000000000000000000000\n        /* \"#utility.yul\":13954:13955   */\n      0x00\n        /* \"#utility.yul\":13947:14035   */\n      mstore\n        /* \"#utility.yul\":14054:14058   */\n      0x11\n        /* \"#utility.yul\":14051:14052   */\n      0x04\n        /* \"#utility.yul\":14044:14059   */\n      mstore\n        /* \"#utility.yul\":14078:14082   */\n      0x24\n        /* \"#utility.yul\":14075:14076   */\n      0x00\n        /* \"#utility.yul\":14068:14083   */\n      revert\n        /* \"#utility.yul\":14095:14289   */\n    tag_115:\n        /* \"#utility.yul\":14135:14139   */\n      0x00\n        /* \"#utility.yul\":14155:14175   */\n      tag_382\n        /* \"#utility.yul\":14173:14174   */\n      dup3\n        /* \"#utility.yul\":14155:14175   */\n      tag_187\n      jump\t// in\n    tag_382:\n        /* \"#utility.yul\":14150:14175   */\n      swap2\n      pop\n        /* \"#utility.yul\":14189:14209   */\n      tag_383\n        /* \"#utility.yul\":14207:14208   */\n      dup4\n        /* \"#utility.yul\":14189:14209   */\n      tag_187\n      jump\t// in\n    tag_383:\n        /* \"#utility.yul\":14184:14209   */\n      swap3\n      pop\n        /* \"#utility.yul\":14233:14234   */\n      dup3\n        /* \"#utility.yul\":14230:14231   */\n      dup3\n        /* \"#utility.yul\":14226:14235   */\n      sub\n        /* \"#utility.yul\":14218:14235   */\n      swap1\n      pop\n        /* \"#utility.yul\":14257:14258   */\n      dup2\n        /* \"#utility.yul\":14251:14255   */\n      dup2\n        /* \"#utility.yul\":14248:14259   */\n      gt\n        /* \"#utility.yul\":14245:14282   */\n      iszero\n      tag_384\n      jumpi\n        /* \"#utility.yul\":14262:14280   */\n      tag_385\n      tag_213\n      jump\t// in\n    tag_385:\n        /* \"#utility.yul\":14245:14282   */\n    tag_384:\n        /* \"#utility.yul\":14095:14289   */\n      swap3\n      swap2\n      pop\n      pop\n      jump\t// out\n        /* \"#utility.yul\":14295:14468   */\n    tag_214:\n        /* \"#utility.yul\":14435:14460   */\n      0x43616c6c6572206973206e6f7420746865206f776e6572000000000000000000\n        /* \"#utility.yul\":14431:14432   */\n      0x00\n        /* \"#utility.yul\":14423:14429   */\n      dup3\n        /* \"#utility.yul\":14419:14433   */\n      add\n        /* \"#utility.yul\":14412:14461   */\n      mstore\n        /* \"#utility.yul\":14295:14468   */\n      pop\n      jump\t// out\n        /* \"#utility.yul\":14474:14840   */\n    tag_215:\n        /* \"#utility.yul\":14616:14619   */\n      0x00\n        /* \"#utility.yul\":14637:14704   */\n      tag_388\n        /* \"#utility.yul\":14701:14703   */\n      0x17\n        /* \"#utility.yul\":14696:14699   */\n      dup4\n        /* \"#utility.yul\":14637:14704   */\n      tag_210\n      jump\t// in\n    tag_388:\n        /* \"#utility.yul\":14630:14704   */\n      swap2\n      pop\n        /* \"#utility.yul\":14713:14806   */\n      tag_389\n        /* \"#utility.yul\":14802:14805   */\n      dup3\n        /* \"#utility.yul\":14713:14806   */\n      tag_214\n      jump\t// in\n    tag_389:\n        /* \"#utility.yul\":14831:14833   */\n      0x20\n        /* \"#utility.yul\":14826:14829   */\n      dup3\n        /* \"#utility.yul\":14822:14834   */\n      add\n        /* \"#utility.yul\":14815:14834   */\n      swap1\n      pop\n        /* \"#utility.yul\":14474:14840   */\n      swap2\n      swap1\n      pop\n      jump\t// out\n        /* \"#utility.yul\":14846:15265   */\n    tag_130:\n        /* \"#utility.yul\":15012:15016   */\n      0x00\n        /* \"#utility.yul\":15050:15052   */\n      0x20\n        /* \"#utility.yul\":15039:15048   */\n      dup3\n        /* \"#utility.yul\":15035:15053   */\n      add\n        /* \"#utility.yul\":15027:15053   */\n      swap1\n      pop\n        /* \"#utility.yul\":15099:15108   */\n      dup2\n        /* \"#utility.yul\":15093:15097   */\n      dup2\n        /* \"#utility.yul\":15089:15109   */\n      sub\n        /* \"#utility.yul\":15085:15086   */\n      0x00\n        /* \"#utility.yul\":15074:15083   */\n      dup4\n        /* \"#utility.yul\":15070:15087   */\n      add\n        /* \"#utility.yul\":15063:15110   */\n      mstore\n        /* \"#utility.yul\":15127:15258   */\n      tag_391\n        /* \"#utility.yul\":15253:15257   */\n      dup2\n        /* \"#utility.yul\":15127:15258   */\n      tag_215\n      jump\t// in\n    tag_391:\n        /* \"#utility.yul\":15119:15258   */\n      swap1\n      pop\n        /* \"#utility.yul\":14846:15265   */\n      swap2\n      swap1\n      pop\n      jump\t// out\n        /* \"#utility.yul\":15271:15453   */\n    tag_216:\n        /* \"#utility.yul\":15411:15445   */\n      0x4469726563746f72792063616e6e6f74206265207a65726f2061646472657373\n        /* \"#utility.yul\":15407:15408   */\n      0x00\n        /* \"#utility.yul\":15399:15405   */\n      dup3\n        /* \"#utility.yul\":15395:15409   */\n      add\n        /* \"#utility.yul\":15388:15446   */\n      mstore\n        /* \"#utility.yul\":15271:15453   */\n      pop\n      jump\t// out\n        /* \"#utility.yul\":15459:15825   */\n    tag_217:\n        /* \"#utility.yul\":15601:15604   */\n      0x00\n        /* \"#utility.yul\":15622:15689   */\n      tag_394\n        /* \"#utility.yul\":15686:15688   */\n      0x20\n        /* \"#utility.yul\":15681:15684   */\n      dup4\n        /* \"#utility.yul\":15622:15689   */\n      tag_210\n      jump\t// in\n    tag_394:\n        /* \"#utility.yul\":15615:15689   */\n      swap2\n      pop\n        /* \"#utility.yul\":15698:15791   */\n      tag_395\n        /* \"#utility.yul\":15787:15790   */\n      dup3\n        /* \"#utility.yul\":15698:15791   */\n      tag_216\n      jump\t// in\n    tag_395:\n        /* \"#utility.yul\":15816:15818   */\n      0x20\n        /* \"#utility.yul\":15811:15814   */\n      dup3\n        /* \"#utility.yul\":15807:15819   */\n      add\n        /* \"#utility.yul\":15800:15819   */\n      swap1\n      pop\n        /* \"#utility.yul\":15459:15825   */\n      swap2\n      swap1\n      pop\n      jump\t// out\n        /* \"#utility.yul\":15831:16250   */\n    tag_148:\n        /* \"#utility.yul\":15997:16001   */\n      0x00\n        /* \"#utility.yul\":16035:16037   */\n      0x20\n        /* \"#utility.yul\":16024:16033   */\n      dup3\n        /* \"#utility.yul\":16020:16038   */\n      add\n        /* \"#utility.yul\":16012:16038   */\n      swap1\n      pop\n        /* \"#utility.yul\":16084:16093   */\n      dup2\n        /* \"#utility.yul\":16078:16082   */\n      dup2\n        /* \"#utility.yul\":16074:16094   */\n      sub\n        /* \"#utility.yul\":16070:16071   */\n      0x00\n        /* \"#utility.yul\":16059:16068   */\n      dup4\n        /* \"#utility.yul\":16055:16072   */\n      add\n        /* \"#utility.yul\":16048:16095   */\n      mstore\n        /* \"#utility.yul\":16112:16243   */\n      tag_397\n        /* \"#utility.yul\":16238:16242   */\n      dup2\n        /* \"#utility.yul\":16112:16243   */\n      tag_217\n      jump\t// in\n    tag_397:\n        /* \"#utility.yul\":16104:16243   */\n      swap1\n      pop\n        /* \"#utility.yul\":15831:16250   */\n      swap2\n      swap1\n      pop\n      jump\t// out\n        /* \"#utility.yul\":16256:16434   */\n    tag_218:\n        /* \"#utility.yul\":16396:16426   */\n      0x4469726563746f7279206d757374206265206120636f6e747261637400000000\n        /* \"#utility.yul\":16392:16393   */\n      0x00\n        /* \"#utility.yul\":16384:16390   */\n      dup3\n        /* \"#utility.yul\":16380:16394   */\n      add\n        /* \"#utility.yul\":16373:16427   */\n      mstore\n        /* \"#utility.yul\":16256:16434   */\n      pop\n      jump\t// out\n        /* \"#utility.yul\":16440:16806   */\n    tag_219:\n        /* \"#utility.yul\":16582:16585   */\n      0x00\n        /* \"#utility.yul\":16603:16670   */\n      tag_400\n        /* \"#utility.yul\":16667:16669   */\n      0x1c\n        /* \"#utility.yul\":16662:16665   */\n      dup4\n        /* \"#utility.yul\":16603:16670   */\n      tag_210\n      jump\t// in\n    tag_400:\n        /* \"#utility.yul\":16596:16670   */\n      swap2\n      pop\n        /* \"#utility.yul\":16679:16772   */\n      tag_401\n        /* \"#utility.yul\":16768:16771   */\n      dup3\n        /* \"#utility.yul\":16679:16772   */\n      tag_218\n      jump\t// in\n    tag_401:\n        /* \"#utility.yul\":16797:16799   */\n      0x20\n        /* \"#utility.yul\":16792:16795   */\n      dup3\n        /* \"#utility.yul\":16788:16800   */\n      add\n        /* \"#utility.yul\":16781:16800   */\n      swap1\n      pop\n        /* \"#utility.yul\":16440:16806   */\n      swap2\n      swap1\n      pop\n      jump\t// out\n        /* \"#utility.yul\":16812:17231   */\n    tag_151:\n        /* \"#utility.yul\":16978:16982   */\n      0x00\n        /* \"#utility.yul\":17016:17018   */\n      0x20\n        /* \"#utility.yul\":17005:17014   */\n      dup3\n        /* \"#utility.yul\":17001:17019   */\n      add\n        /* \"#utility.yul\":16993:17019   */\n      swap1\n      pop\n        /* \"#utility.yul\":17065:17074   */\n      dup2\n        /* \"#utility.yul\":17059:17063   */\n      dup2\n        /* \"#utility.yul\":17055:17075   */\n      sub\n        /* \"#utility.yul\":17051:17052   */\n      0x00\n        /* \"#utility.yul\":17040:17049   */\n      dup4\n        /* \"#utility.yul\":17036:17053   */\n      add\n        /* \"#utility.yul\":17029:17076   */\n      mstore\n        /* \"#utility.yul\":17093:17224   */\n      tag_403\n        /* \"#utility.yul\":17219:17223   */\n      dup2\n        /* \"#utility.yul\":17093:17224   */\n      tag_219\n      jump\t// in\n    tag_403:\n        /* \"#utility.yul\":17085:17224   */\n      swap1\n      pop\n        /* \"#utility.yul\":16812:17231   */\n      swap2\n      swap1\n      pop\n      jump\t// out\n        /* \"#utility.yul\":17237:17468   */\n    tag_220:\n        /* \"#utility.yul\":17377:17411   */\n      0x4469726563746f7279206164647265737320646f6573206e6f7420696d706c65\n        /* \"#utility.yul\":17373:17374   */\n      0x00\n        /* \"#utility.yul\":17365:17371   */\n      dup3\n        /* \"#utility.yul\":17361:17375   */\n      add\n        /* \"#utility.yul\":17354:17412   */\n      mstore\n        /* \"#utility.yul\":17446:17460   */\n      0x6d656e74206f776e657228290000000000000000000000000000000000000000\n        /* \"#utility.yul\":17441:17443   */\n      0x20\n        /* \"#utility.yul\":17433:17439   */\n      dup3\n        /* \"#utility.yul\":17429:17444   */\n      add\n        /* \"#utility.yul\":17422:17461   */\n      mstore\n        /* \"#utility.yul\":17237:17468   */\n      pop\n      jump\t// out\n        /* \"#utility.yul\":17474:17840   */\n    tag_221:\n        /* \"#utility.yul\":17616:17619   */\n      0x00\n        /* \"#utility.yul\":17637:17704   */\n      tag_406\n        /* \"#utility.yul\":17701:17703   */\n      0x2c\n        /* \"#utility.yul\":17696:17699   */\n      dup4\n        /* \"#utility.yul\":17637:17704   */\n      tag_210\n      jump\t// in\n    tag_406:\n        /* \"#utility.yul\":17630:17704   */\n      swap2\n      pop\n        /* \"#utility.yul\":17713:17806   */\n      tag_407\n        /* \"#utility.yul\":17802:17805   */\n      dup3\n        /* \"#utility.yul\":17713:17806   */\n      tag_220\n      jump\t// in\n    tag_407:\n        /* \"#utility.yul\":17831:17833   */\n      0x40\n        /* \"#utility.yul\":17826:17829   */\n      dup3\n        /* \"#utility.yul\":17822:17834   */\n      add\n        /* \"#utility.yul\":17815:17834   */\n      swap1\n      pop\n        /* \"#utility.yul\":17474:17840   */\n      swap2\n      swap1\n      pop\n      jump\t// out\n        /* \"#utility.yul\":17846:18265   */\n    tag_159:\n        /* \"#utility.yul\":18012:18016   */\n      0x00\n        /* \"#utility.yul\":18050:18052   */\n      0x20\n        /* \"#utility.yul\":18039:18048   */\n      dup3\n        /* \"#utility.yul\":18035:18053   */\n      add\n        /* \"#utility.yul\":18027:18053   */\n      swap1\n      pop\n        /* \"#utility.yul\":18099:18108   */\n      dup2\n        /* \"#utility.yul\":18093:18097   */\n      dup2\n        /* \"#utility.yul\":18089:18109   */\n      sub\n        /* \"#utility.yul\":18085:18086   */\n      0x00\n        /* \"#utility.yul\":18074:18083   */\n      dup4\n        /* \"#utility.yul\":18070:18087   */\n      add\n        /* \"#utility.yul\":18063:18110   */\n      mstore\n        /* \"#utility.yul\":18127:18258   */\n      tag_409\n        /* \"#utility.yul\":18253:18257   */\n      dup2\n        /* \"#utility.yul\":18127:18258   */\n      tag_221\n      jump\t// in\n    tag_409:\n        /* \"#utility.yul\":18119:18258   */\n      swap1\n      pop\n        /* \"#utility.yul\":17846:18265   */\n      swap2\n      swap1\n      pop\n      jump\t// out\n\n    auxdata: 0xa264697066735822122065820aa0eeadcbbe48532dffba5183abf3c651bdb7f1cd0aeaebdac799bc2b6d64736f6c634300081e0033\n}\n",
				"bytecode": {
					"linkReferences": {},
					"object": "60e0604052615460600255348015610015575f5ffd5b506040516123033803806123038339818101604052810190610037919061042b565b836100478161021c60201b60201c565b505f73ffffffffffffffffffffffffffffffffffffffff168373ffffffffffffffffffffffffffffffffffffffff16036100ad576040517fd92e233d00000000000000000000000000000000000000000000000000000000815260040160405180910390fd5b5f73ffffffffffffffffffffffffffffffffffffffff168273ffffffffffffffffffffffffffffffffffffffff1603610112576040517fd92e233d00000000000000000000000000000000000000000000000000000000815260040160405180910390fd5b5f73ffffffffffffffffffffffffffffffffffffffff168173ffffffffffffffffffffffffffffffffffffffff1603610177576040517fd92e233d00000000000000000000000000000000000000000000000000000000815260040160405180910390fd5b8273ffffffffffffffffffffffffffffffffffffffff1660808173ffffffffffffffffffffffffffffffffffffffff16815250508173ffffffffffffffffffffffffffffffffffffffff1660a08173ffffffffffffffffffffffffffffffffffffffff16815250508073ffffffffffffffffffffffffffffffffffffffff1660c08173ffffffffffffffffffffffffffffffffffffffff168152505050505050610628565b5f73ffffffffffffffffffffffffffffffffffffffff168173ffffffffffffffffffffffffffffffffffffffff160361028a576040517f08c379a0000000000000000000000000000000000000000000000000000000008152600401610281906104e9565b60405180910390fd5b5f8173ffffffffffffffffffffffffffffffffffffffff163b116102e3576040517f08c379a00000000000000000000000000000000000000000000000000000000081526004016102da90610551565b60405180910390fd5b8073ffffffffffffffffffffffffffffffffffffffff16638da5cb5b6040518163ffffffff1660e01b8152600401602060405180830381865afa92505050801561034b57506040513d601f19601f82011682018060405250810190610348919061056f565b60015b61038a576040517f08c379a00000000000000000000000000000000000000000000000000000000081526004016103819061060a565b60405180910390fd5b815f5f6101000a81548173ffffffffffffffffffffffffffffffffffffffff021916908373ffffffffffffffffffffffffffffffffffffffff1602179055505050565b5f5ffd5b5f73ffffffffffffffffffffffffffffffffffffffff82169050919050565b5f6103fa826103d1565b9050919050565b61040a816103f0565b8114610414575f5ffd5b50565b5f8151905061042581610401565b92915050565b5f5f5f5f60808587031215610443576104426103cd565b5b5f61045087828801610417565b945050602061046187828801610417565b935050604061047287828801610417565b925050606061048387828801610417565b91505092959194509250565b5f82825260208201905092915050565b7f4469726563746f72792063616e6e6f74206265207a65726f20616464726573735f82015250565b5f6104d360208361048f565b91506104de8261049f565b602082019050919050565b5f6020820190508181035f830152610500816104c7565b9050919050565b7f4469726563746f7279206d757374206265206120636f6e7472616374000000005f82015250565b5f61053b601c8361048f565b915061054682610507565b602082019050919050565b5f6020820190508181035f8301526105688161052f565b9050919050565b5f60208284031215610584576105836103cd565b5b5f61059184828501610417565b91505092915050565b7f4469726563746f7279206164647265737320646f6573206e6f7420696d706c655f8201527f6d656e74206f776e657228290000000000000000000000000000000000000000602082015250565b5f6105f4602c8361048f565b91506105ff8261059a565b604082019050919050565b5f6020820190508181035f830152610621816105e8565b9050919050565b60805160a05160c051611c9561066e5f395f81816106230152610d4601525f81816103800152610f0101525f81816102d10152818161035701526108ba0152611c955ff3fe608060405234801561000f575f5ffd5b50600436106100b2575f3560e01c80637c887c591161006f5780637c887c59146101a05780638da5cb5b146101be578063a7590163146101dc578063b4b57c39146101f8578063ba4c7be114610216578063df697cc414610232576100b2565b806303d43001146100b657806327262618146100e657806338b88052146101165780634f0e0ef3146101345780636425f09e14610152578063658a847a14610182575b5f5ffd5b6100d060048036038101906100cb91906113ed565b610262565b6040516100dd91906114d4565b60405180910390f35b61010060048036038101906100fb9190611629565b610812565b60405161010d919061167f565b60405180910390f35b61011e6108b2565b60405161012b91906116b0565b60405180910390f35b61013c6108b8565b604051610149919061167f565b60405180910390f35b61016c600480360381019061016791906113ed565b6108dc565b60405161017991906114d4565b60405180910390f35b61018a610d20565b6040516101979190611724565b60405180910390f35b6101a8610d44565b6040516101b5919061175d565b60405180910390f35b6101c6610d68565b6040516101d3919061167f565b60405180910390f35b6101f660048036038101906101f191906117a0565b610dfb565b005b610200610eff565b60405161020d91906117eb565b60405180910390f35b610230600480360381019061022b91906113ed565b610f23565b005b61024c600480360381019061024791906113ed565b611029565b60405161025991906114d4565b60405180910390f35b61026a611336565b5f73ffffffffffffffffffffffffffffffffffffffff168273ffffffffffffffffffffffffffffffffffffffff16036102cf576040517fd92e233d00000000000000000000000000000000000000000000000000000000815260040160405180910390fd5b7f000000000000000000000000000000000000000000000000000000000000000073ffffffffffffffffffffffffffffffffffffffff168273ffffffffffffffffffffffffffffffffffffffff1603610354576040517f871c78af00000000000000000000000000000000000000000000000000000000815260040160405180910390fd5b5f7f000000000000000000000000000000000000000000000000000000000000000090505f8190505f5f7f000000000000000000000000000000000000000000000000000000000000000073ffffffffffffffffffffffffffffffffffffffff1663e6a4390587866040518363ffffffff1660e01b81526004016103d9929190611804565b602060405180830381865afa1580156103f4573d5f5f3e3d5ffd5b505050506040513d601f19601f82011682018060405250810190610418919061183f565b90505f73ffffffffffffffffffffffffffffffffffffffff168173ffffffffffffffffffffffffffffffffffffffff16146105ff575f5f8273ffffffffffffffffffffffffffffffffffffffff16630902f1ac6040518163ffffffff1660e01b8152600401606060405180830381865afa158015610498573d5f5f3e3d5ffd5b505050506040513d601f19601f820116820180604052508101906104bc91906118e6565b50915091505f8373ffffffffffffffffffffffffffffffffffffffff16630dfe16816040518163ffffffff1660e01b8152600401602060405180830381865afa15801561050b573d5f5f3e3d5ffd5b505050506040513d601f19601f8201168201806040525081019061052f919061183f565b90505f8773ffffffffffffffffffffffffffffffffffffffff168273ffffffffffffffffffffffffffffffffffffffff161461057b57826dffffffffffffffffffffffffffff1661058d565b836dffffffffffffffffffffffffffff165b9050858111156105fa575f896040019060ff16908160ff168152505084895f019073ffffffffffffffffffffffffffffffffffffffff16908173ffffffffffffffffffffffffffffffffffffffff16815250505f896020019062ffffff16908162ffffff16815250508095505b505050505b5f5b60028110156107e8575f5f821461061a5761271061061e565b610bb85b90505f7f000000000000000000000000000000000000000000000000000000000000000073ffffffffffffffffffffffffffffffffffffffff16631698ee828a89856040518463ffffffff1660e01b815260040161067e93929190611945565b602060405180830381865afa158015610699573d5f5f3e3d5ffd5b505050506040513d601f19601f820116820180604052508101906106bd919061183f565b90505f73ffffffffffffffffffffffffffffffffffffffff168173ffffffffffffffffffffffffffffffffffffffff16146107db575f8673ffffffffffffffffffffffffffffffffffffffff166370a08231836040518263ffffffff1660e01b815260040161072c919061167f565b602060405180830381865afa158015610747573d5f5f3e3d5ffd5b505050506040513d601f19601f8201168201806040525081019061076b919061198e565b9050858111156107d9576001896040019060ff16908160ff168152505081895f019073ffffffffffffffffffffffffffffffffffffffff16908173ffffffffffffffffffffffffffffffffffffffff168152505082896020019062ffffff16908162ffffff16815250508095505b505b8260010192505050610601565b5042856060019067ffffffffffffffff16908167ffffffffffffffff168152505050505050919050565b5f5f5f9054906101000a900473ffffffffffffffffffffffffffffffffffffffff1673ffffffffffffffffffffffffffffffffffffffff166327262618836040518263ffffffff1660e01b815260040161086c9190611a19565b602060405180830381865afa158015610887573d5f5f3e3d5ffd5b505050506040513d601f19601f820116820180604052508101906108ab919061183f565b9050919050565b60025481565b7f000000000000000000000000000000000000000000000000000000000000000081565b6108e4611336565b5f60015f8473ffffffffffffffffffffffffffffffffffffffff1673ffffffffffffffffffffffffffffffffffffffff1681526020019081526020015f2090505f73ffffffffffffffffffffffffffffffffffffffff16815f015f9054906101000a900473ffffffffffffffffffffffffffffffffffffffff1673ffffffffffffffffffffffffffffffffffffffff1603610a815761098283610262565b91508160015f8573ffffffffffffffffffffffffffffffffffffffff1673ffffffffffffffffffffffffffffffffffffffff1681526020019081526020015f205f820151815f015f6101000a81548173ffffffffffffffffffffffffffffffffffffffff021916908373ffffffffffffffffffffffffffffffffffffffff1602179055506020820151815f0160146101000a81548162ffffff021916908362ffffff1602179055506040820151815f0160176101000a81548160ff021916908360ff1602179055506060820151815f0160186101000a81548167ffffffffffffffff021916908367ffffffffffffffff16021790555090505050610d1b565b600254815f0160189054906101000a900467ffffffffffffffff1667ffffffffffffffff1642610ab19190611a66565b1115610c48575f610ac184610262565b9050815f015f9054906101000a900473ffffffffffffffffffffffffffffffffffffffff1673ffffffffffffffffffffffffffffffffffffffff16815f015173ffffffffffffffffffffffffffffffffffffffff1614610c1c578060015f8673ffffffffffffffffffffffffffffffffffffffff1673ffffffffffffffffffffffffffffffffffffffff1681526020019081526020015f205f820151815f015f6101000a81548173ffffffffffffffffffffffffffffffffffffffff021916908373ffffffffffffffffffffffffffffffffffffffff1602179055506020820151815f0160146101000a81548162ffffff021916908362ffffff1602179055506040820151815f0160176101000a81548160ff021916908360ff1602179055506060820151815f0160186101000a81548167ffffffffffffffff021916908367ffffffffffffffff1602179055509050508092505050610d1b565b42825f0160186101000a81548167ffffffffffffffff021916908367ffffffffffffffff160217905550505b806040518060800160405290815f82015f9054906101000a900473ffffffffffffffffffffffffffffffffffffffff1673ffffffffffffffffffffffffffffffffffffffff1673ffffffffffffffffffffffffffffffffffffffff1681526020015f820160149054906101000a900462ffffff1662ffffff1662ffffff1681526020015f820160179054906101000a900460ff1660ff1660ff1681526020015f820160189054906101000a900467ffffffffffffffff1667ffffffffffffffff1667ffffffffffffffff16815250509150505b919050565b5f5f9054906101000a900473ffffffffffffffffffffffffffffffffffffffff1681565b7f000000000000000000000000000000000000000000000000000000000000000081565b5f5f5f9054906101000a900473ffffffffffffffffffffffffffffffffffffffff1673ffffffffffffffffffffffffffffffffffffffff16638da5cb5b6040518163ffffffff1660e01b8152600401602060405180830381865afa158015610dd2573d5f5f3e3d5ffd5b505050506040513d601f19601f82011682018060405250810190610df6919061183f565b905090565b5f5f9054906101000a900473ffffffffffffffffffffffffffffffffffffffff1673ffffffffffffffffffffffffffffffffffffffff16638da5cb5b6040518163ffffffff1660e01b8152600401602060405180830381865afa158015610e64573d5f5f3e3d5ffd5b505050506040513d601f19601f82011682018060405250810190610e88919061183f565b73ffffffffffffffffffffffffffffffffffffffff163373ffffffffffffffffffffffffffffffffffffffff1614610ef5576040517f08c379a0000000000000000000000000000000000000000000000000000000008152600401610eec90611ae3565b60405180910390fd5b8060028190555050565b7f000000000000000000000000000000000000000000000000000000000000000081565b5f5f9054906101000a900473ffffffffffffffffffffffffffffffffffffffff1673ffffffffffffffffffffffffffffffffffffffff16638da5cb5b6040518163ffffffff1660e01b8152600401602060405180830381865afa158015610f8c573d5f5f3e3d5ffd5b505050506040513d601f19601f82011682018060405250810190610fb0919061183f565b73ffffffffffffffffffffffffffffffffffffffff163373ffffffffffffffffffffffffffffffffffffffff161461101d576040517f08c379a000000000000000000000000000000000000000000000000000000000815260040161101490611ae3565b60405180910390fd5b61102681611185565b50565b611031611336565b60015f8373ffffffffffffffffffffffffffffffffffffffff1673ffffffffffffffffffffffffffffffffffffffff1681526020019081526020015f206040518060800160405290815f82015f9054906101000a900473ffffffffffffffffffffffffffffffffffffffff1673ffffffffffffffffffffffffffffffffffffffff1673ffffffffffffffffffffffffffffffffffffffff1681526020015f820160149054906101000a900462ffffff1662ffffff1662ffffff1681526020015f820160179054906101000a900460ff1660ff1660ff1681526020015f820160189054906101000a900467ffffffffffffffff1667ffffffffffffffff1667ffffffffffffffff168152505090505f73ffffffffffffffffffffffffffffffffffffffff16815f015173ffffffffffffffffffffffffffffffffffffffff16036111805761117d82610262565b90505b919050565b5f73ffffffffffffffffffffffffffffffffffffffff168173ffffffffffffffffffffffffffffffffffffffff16036111f3576040517f08c379a00000000000000000000000000000000000000000000000000000000081526004016111ea90611b4b565b60405180910390fd5b5f8173ffffffffffffffffffffffffffffffffffffffff163b1161124c576040517f08c379a000000000000000000000000000000000000000000000000000000000815260040161124390611bb3565b60405180910390fd5b8073ffffffffffffffffffffffffffffffffffffffff16638da5cb5b6040518163ffffffff1660e01b8152600401602060405180830381865afa9250505080156112b457506040513d601f19601f820116820180604052508101906112b1919061183f565b60015b6112f3576040517f08c379a00000000000000000000000000000000000000000000000000000000081526004016112ea90611c41565b60405180910390fd5b815f5f6101000a81548173ffffffffffffffffffffffffffffffffffffffff021916908373ffffffffffffffffffffffffffffffffffffffff1602179055505050565b60405180608001604052805f73ffffffffffffffffffffffffffffffffffffffff1681526020015f62ffffff1681526020015f60ff1681526020015f67ffffffffffffffff1681525090565b5f604051905090565b5f5ffd5b5f5ffd5b5f73ffffffffffffffffffffffffffffffffffffffff82169050919050565b5f6113bc82611393565b9050919050565b6113cc816113b2565b81146113d6575f5ffd5b50565b5f813590506113e7816113c3565b92915050565b5f602082840312156114025761140161138b565b5b5f61140f848285016113d9565b91505092915050565b611421816113b2565b82525050565b5f62ffffff82169050919050565b61143e81611427565b82525050565b5f60ff82169050919050565b61145981611444565b82525050565b5f67ffffffffffffffff82169050919050565b61147b8161145f565b82525050565b608082015f8201516114955f850182611418565b5060208201516114a86020850182611435565b5060408201516114bb6040850182611450565b5060608201516114ce6060850182611472565b50505050565b5f6080820190506114e75f830184611481565b92915050565b5f5ffd5b5f5ffd5b5f601f19601f8301169050919050565b7f4e487b71000000000000000000000000000000000000000000000000000000005f52604160045260245ffd5b61153b826114f5565b810181811067ffffffffffffffff8211171561155a57611559611505565b5b80604052505050565b5f61156c611382565b90506115788282611532565b919050565b5f67ffffffffffffffff82111561159757611596611505565b5b6115a0826114f5565b9050602081019050919050565b828183375f83830152505050565b5f6115cd6115c88461157d565b611563565b9050828152602081018484840111156115e9576115e86114f1565b5b6115f48482856115ad565b509392505050565b5f82601f8301126116105761160f6114ed565b5b81356116208482602086016115bb565b91505092915050565b5f6020828403121561163e5761163d61138b565b5b5f82013567ffffffffffffffff81111561165b5761165a61138f565b5b611667848285016115fc565b91505092915050565b611679816113b2565b82525050565b5f6020820190506116925f830184611670565b92915050565b5f819050919050565b6116aa81611698565b82525050565b5f6020820190506116c35f8301846116a1565b92915050565b5f819050919050565b5f6116ec6116e76116e284611393565b6116c9565b611393565b9050919050565b5f6116fd826116d2565b9050919050565b5f61170e826116f3565b9050919050565b61171e81611704565b82525050565b5f6020820190506117375f830184611715565b92915050565b5f611747826116f3565b9050919050565b6117578161173d565b82525050565b5f6020820190506117705f83018461174e565b92915050565b61177f81611698565b8114611789575f5ffd5b50565b5f8135905061179a81611776565b92915050565b5f602082840312156117b5576117b461138b565b5b5f6117c28482850161178c565b91505092915050565b5f6117d5826116f3565b9050919050565b6117e5816117cb565b82525050565b5f6020820190506117fe5f8301846117dc565b92915050565b5f6040820190506118175f830185611670565b6118246020830184611670565b9392505050565b5f81519050611839816113c3565b92915050565b5f602082840312156118545761185361138b565b5b5f6118618482850161182b565b91505092915050565b5f6dffffffffffffffffffffffffffff82169050919050565b61188c8161186a565b8114611896575f5ffd5b50565b5f815190506118a781611883565b92915050565b5f63ffffffff82169050919050565b6118c5816118ad565b81146118cf575f5ffd5b50565b5f815190506118e0816118bc565b92915050565b5f5f5f606084860312156118fd576118fc61138b565b5b5f61190a86828701611899565b935050602061191b86828701611899565b925050604061192c868287016118d2565b9150509250925092565b61193f81611427565b82525050565b5f6060820190506119585f830186611670565b6119656020830185611670565b6119726040830184611936565b949350505050565b5f8151905061198881611776565b92915050565b5f602082840312156119a3576119a261138b565b5b5f6119b08482850161197a565b91505092915050565b5f81519050919050565b5f82825260208201905092915050565b8281835e5f83830152505050565b5f6119eb826119b9565b6119f581856119c3565b9350611a058185602086016119d3565b611a0e816114f5565b840191505092915050565b5f6020820190508181035f830152611a3181846119e1565b905092915050565b7f4e487b71000000000000000000000000000000000000000000000000000000005f52601160045260245ffd5b5f611a7082611698565b9150611a7b83611698565b9250828203905081811115611a9357611a92611a39565b5b92915050565b7f43616c6c6572206973206e6f7420746865206f776e65720000000000000000005f82015250565b5f611acd6017836119c3565b9150611ad882611a99565b602082019050919050565b5f6020820190508181035f830152611afa81611ac1565b9050919050565b7f4469726563746f72792063616e6e6f74206265207a65726f20616464726573735f82015250565b5f611b356020836119c3565b9150611b4082611b01565b602082019050919050565b5f6020820190508181035f830152611b6281611b29565b9050919050565b7f4469726563746f7279206d757374206265206120636f6e7472616374000000005f82015250565b5f611b9d601c836119c3565b9150611ba882611b69565b602082019050919050565b5f6020820190508181035f830152611bca81611b91565b9050919050565b7f4469726563746f7279206164647265737320646f6573206e6f7420696d706c655f8201527f6d656e74206f776e657228290000000000000000000000000000000000000000602082015250565b5f611c2b602c836119c3565b9150611c3682611bd1565b604082019050919050565b5f6020820190508181035f830152611c5881611c1f565b905091905056fea264697066735822122065820aa0eeadcbbe48532dffba5183abf3c651bdb7f1cd0aeaebdac799bc2b6d64736f6c634300081e0033",
					"opcodes": "PUSH1 0xE0 PUSH1 0x40 MSTORE PUSH2 0x5460 PUSH1 0x2 SSTORE CALLVALUE DUP1 ISZERO PUSH2 0x15 JUMPI PUSH0 PUSH0 REVERT JUMPDEST POP PUSH1 0x40 MLOAD PUSH2 0x2303 CODESIZE SUB DUP1 PUSH2 0x2303 DUP4 CODECOPY DUP2 DUP2 ADD PUSH1 0x40 MSTORE DUP2 ADD SWAP1 PUSH2 0x37 SWAP2 SWAP1 PUSH2 0x42B JUMP JUMPDEST DUP4 PUSH2 0x47 DUP2 PUSH2 0x21C PUSH1 0x20 SHL PUSH1 0x20 SHR JUMP JUMPDEST POP PUSH0 PUSH20 0xFFFFFFFFFFFFFFFFFFFFFFFFFFFFFFFFFFFFFFFF AND DUP4 PUSH20 0xFFFFFFFFFFFFFFFFFFFFFFFFFFFFFFFFFFFFFFFF AND SUB PUSH2 0xAD JUMPI PUSH1 0x40 MLOAD PUSH32 0xD92E233D00000000000000000000000000000000000000000000000000000000 DUP2 MSTORE PUSH1 0x4 ADD PUSH1 0x40 MLOAD DUP1 SWAP2 SUB SWAP1 REVERT JUMPDEST PUSH0 PUSH20 0xFFFFFFFFFFFFFFFFFFFFFFFFFFFFFFFFFFFFFFFF AND DUP3 PUSH20 0xFFFFFFFFFFFFFFFFFFFFFFFFFFFFFFFFFFFFFFFF AND SUB PUSH2 0x112 JUMPI PUSH1 0x40 MLOAD PUSH32 0xD92E233D00000000000000000000000000000000000000000000000000000000 DUP2 MSTORE PUSH1 0x4 ADD PUSH1 0x40 MLOAD DUP1 SWAP2 SUB SWAP1 REVERT JUMPDEST PUSH0 PUSH20 0xFFFFFFFFFFFFFFFFFFFFFFFFFFFFFFFFFFFFFFFF AND DUP2 PUSH20 0xFFFFFFFFFFFFFFFFFFFFFFFFFFFFFFFFFFFFFFFF AND SUB PUSH2 0x177 JUMPI PUSH1 0x40 MLOAD PUSH32 0xD92E233D00000000000000000000000000000000000000000000000000000000 DUP2 MSTORE PUSH1 0x4 ADD PUSH1 0x40 MLOAD DUP1 SWAP2 SUB SWAP1 REVERT JUMPDEST DUP3 PUSH20 0xFFFFFFFFFFFFFFFFFFFFFFFFFFFFFFFFFFFFFFFF AND PUSH1 0x80 DUP2 PUSH20 0xFFFFFFFFFFFFFFFFFFFFFFFFFFFFFFFFFFFFFFFF AND DUP2 MSTORE POP POP DUP2 PUSH20 0xFFFFFFFFFFFFFFFFFFFFFFFFFFFFFFFFFFFFFFFF AND PUSH1 0xA0 DUP2 PUSH20 0xFFFFFFFFFFFFFFFFFFFFFFFFFFFFFFFFFFFFFFFF AND DUP2 MSTORE POP POP DUP1 PUSH20 0xFFFFFFFFFFFFFFFFFFFFFFFFFFFFFFFFFFFFFFFF AND PUSH1 0xC0 DUP2 PUSH20 0xFFFFFFFFFFFFFFFFFFFFFFFFFFFFFFFFFFFFFFFF AND DUP2 MSTORE POP POP POP POP POP POP PUSH2 0x628 JUMP JUMPDEST PUSH0 PUSH20 0xFFFFFFFFFFFFFFFFFFFFFFFFFFFFFFFFFFFFFFFF AND DUP2 PUSH20 0xFFFFFFFFFFFFFFFFFFFFFFFFFFFFFFFFFFFFFFFF AND SUB PUSH2 0x28A JUMPI PUSH1 0x40 MLOAD PUSH32 0x8C379A000000000000000000000000000000000000000000000000000000000 DUP2 MSTORE PUSH1 0x4 ADD PUSH2 0x281 SWAP1 PUSH2 0x4E9 JUMP JUMPDEST PUSH1 0x40 MLOAD DUP1 SWAP2 SUB SWAP1 REVERT JUMPDEST PUSH0 DUP2 PUSH20 0xFFFFFFFFFFFFFFFFFFFFFFFFFFFFFFFFFFFFFFFF AND EXTCODESIZE GT PUSH2 0x2E3 JUMPI PUSH1 0x40 MLOAD PUSH32 0x8C379A000000000000000000000000000000000000000000000000000000000 DUP2 MSTORE PUSH1 0x4 ADD PUSH2 0x2DA SWAP1 PUSH2 0x551 JUMP JUMPDEST PUSH1 0x40 MLOAD DUP1 SWAP2 SUB SWAP1 REVERT JUMPDEST DUP1 PUSH20 0xFFFFFFFFFFFFFFFFFFFFFFFFFFFFFFFFFFFFFFFF AND PUSH4 0x8DA5CB5B PUSH1 0x40 MLOAD DUP2 PUSH4 0xFFFFFFFF AND PUSH1 0xE0 SHL DUP2 MSTORE PUSH1 0x4 ADD PUSH1 0x20 PUSH1 0x40 MLOAD DUP1 DUP4 SUB DUP2 DUP7 GAS STATICCALL SWAP3 POP POP POP DUP1 ISZERO PUSH2 0x34B JUMPI POP PUSH1 0x40 MLOAD RETURNDATASIZE PUSH1 0x1F NOT PUSH1 0x1F DUP3 ADD AND DUP3 ADD DUP1 PUSH1 0x40 MSTORE POP DUP2 ADD SWAP1 PUSH2 0x348 SWAP2 SWAP1 PUSH2 0x56F JUMP JUMPDEST PUSH1 0x1 JUMPDEST PUSH2 0x38A JUMPI PUSH1 0x40 MLOAD PUSH32 0x8C379A000000000000000000000000000000000000000000000000000000000 DUP2 MSTORE PUSH1 0x4 ADD PUSH2 0x381 SWAP1 PUSH2 0x60A JUMP JUMPDEST PUSH1 0x40 MLOAD DUP1 SWAP2 SUB SWAP1 REVERT JUMPDEST DUP2 PUSH0 PUSH0 PUSH2 0x100 EXP DUP2 SLOAD DUP2 PUSH20 0xFFFFFFFFFFFFFFFFFFFFFFFFFFFFFFFFFFFFFFFF MUL NOT AND SWAP1 DUP4 PUSH20 0xFFFFFFFFFFFFFFFFFFFFFFFFFFFFFFFFFFFFFFFF AND MUL OR SWAP1 SSTORE POP POP POP JUMP JUMPDEST PUSH0 PUSH0 REVERT JUMPDEST PUSH0 PUSH20 0xFFFFFFFFFFFFFFFFFFFFFFFFFFFFFFFFFFFFFFFF DUP3 AND SWAP1 POP SWAP2 SWAP1 POP JUMP JUMPDEST PUSH0 PUSH2 0x3FA DUP3 PUSH2 0x3D1 JUMP JUMPDEST SWAP1 POP SWAP2 SWAP1 POP JUMP JUMPDEST PUSH2 0x40A DUP2 PUSH2 0x3F0 JUMP JUMPDEST DUP2 EQ PUSH2 0x414 JUMPI PUSH0 PUSH0 REVERT JUMPDEST POP JUMP JUMPDEST PUSH0 DUP2 MLOAD SWAP1 POP PUSH2 0x425 DUP2 PUSH2 0x401 JUMP JUMPDEST SWAP3 SWAP2 POP POP JUMP JUMPDEST PUSH0 PUSH0 PUSH0 PUSH0 PUSH1 0x80 DUP6 DUP8 SUB SLT ISZERO PUSH2 0x443 JUMPI PUSH2 0x442 PUSH2 0x3CD JUMP JUMPDEST JUMPDEST PUSH0 PUSH2 0x450 DUP8 DUP3 DUP9 ADD PUSH2 0x417 JUMP JUMPDEST SWAP5 POP POP PUSH1 0x20 PUSH2 0x461 DUP8 DUP3 DUP9 ADD PUSH2 0x417 JUMP JUMPDEST SWAP4 POP POP PUSH1 0x40 PUSH2 0x472 DUP8 DUP3 DUP9 ADD PUSH2 0x417 JUMP JUMPDEST SWAP3 POP POP PUSH1 0x60 PUSH2 0x483 DUP8 DUP3 DUP9 ADD PUSH2 0x417 JUMP JUMPDEST SWAP2 POP POP SWAP3 SWAP6 SWAP2 SWAP5 POP SWAP3 POP JUMP JUMPDEST PUSH0 DUP3 DUP3 MSTORE PUSH1 0x20 DUP3 ADD SWAP1 POP SWAP3 SWAP2 POP POP JUMP JUMPDEST PUSH32 0x4469726563746F72792063616E6E6F74206265207A65726F2061646472657373 PUSH0 DUP3 ADD MSTORE POP JUMP JUMPDEST PUSH0 PUSH2 0x4D3 PUSH1 0x20 DUP4 PUSH2 0x48F JUMP JUMPDEST SWAP2 POP PUSH2 0x4DE DUP3 PUSH2 0x49F JUMP JUMPDEST PUSH1 0x20 DUP3 ADD SWAP1 POP SWAP2 SWAP1 POP JUMP JUMPDEST PUSH0 PUSH1 0x20 DUP3 ADD SWAP1 POP DUP2 DUP2 SUB PUSH0 DUP4 ADD MSTORE PUSH2 0x500 DUP2 PUSH2 0x4C7 JUMP JUMPDEST SWAP1 POP SWAP2 SWAP1 POP JUMP JUMPDEST PUSH32 0x4469726563746F7279206D757374206265206120636F6E747261637400000000 PUSH0 DUP3 ADD MSTORE POP JUMP JUMPDEST PUSH0 PUSH2 0x53B PUSH1 0x1C DUP4 PUSH2 0x48F JUMP JUMPDEST SWAP2 POP PUSH2 0x546 DUP3 PUSH2 0x507 JUMP JUMPDEST PUSH1 0x20 DUP3 ADD SWAP1 POP SWAP2 SWAP1 POP JUMP JUMPDEST PUSH0 PUSH1 0x20 DUP3 ADD SWAP1 POP DUP2 DUP2 SUB PUSH0 DUP4 ADD MSTORE PUSH2 0x568 DUP2 PUSH2 0x52F JUMP JUMPDEST SWAP1 POP SWAP2 SWAP1 POP JUMP JUMPDEST PUSH0 PUSH1 0x20 DUP3 DUP5 SUB SLT ISZERO PUSH2 0x584 JUMPI PUSH2 0x583 PUSH2 0x3CD JUMP JUMPDEST JUMPDEST PUSH0 PUSH2 0x591 DUP5 DUP3 DUP6 ADD PUSH2 0x417 JUMP JUMPDEST SWAP2 POP POP SWAP3 SWAP2 POP POP JUMP JUMPDEST PUSH32 0x4469726563746F7279206164647265737320646F6573206E6F7420696D706C65 PUSH0 DUP3 ADD MSTORE PUSH32 0x6D656E74206F776E657228290000000000000000000000000000000000000000 PUSH1 0x20 DUP3 ADD MSTORE POP JUMP JUMPDEST PUSH0 PUSH2 0x5F4 PUSH1 0x2C DUP4 PUSH2 0x48F JUMP JUMPDEST SWAP2 POP PUSH2 0x5FF DUP3 PUSH2 0x59A JUMP JUMPDEST PUSH1 0x40 DUP3 ADD SWAP1 POP SWAP2 SWAP1 POP JUMP JUMPDEST PUSH0 PUSH1 0x20 DUP3 ADD SWAP1 POP DUP2 DUP2 SUB PUSH0 DUP4 ADD MSTORE PUSH2 0x621 DUP2 PUSH2 0x5E8 JUMP JUMPDEST SWAP1 POP SWAP2 SWAP1 POP JUMP JUMPDEST PUSH1 0x80 MLOAD PUSH1 0xA0 MLOAD PUSH1 0xC0 MLOAD PUSH2 0x1C95 PUSH2 0x66E PUSH0 CODECOPY PUSH0 DUP2 DUP2 PUSH2 0x623 ADD MSTORE PUSH2 0xD46 ADD MSTORE PUSH0 DUP2 DUP2 PUSH2 0x380 ADD MSTORE PUSH2 0xF01 ADD MSTORE PUSH0 DUP2 DUP2 PUSH2 0x2D1 ADD MSTORE DUP2 DUP2 PUSH2 0x357 ADD MSTORE PUSH2 0x8BA ADD MSTORE PUSH2 0x1C95 PUSH0 RETURN INVALID PUSH1 0x80 PUSH1 0x40 MSTORE CALLVALUE DUP1 ISZERO PUSH2 0xF JUMPI PUSH0 PUSH0 REVERT JUMPDEST POP PUSH1 0x4 CALLDATASIZE LT PUSH2 0xB2 JUMPI PUSH0 CALLDATALOAD PUSH1 0xE0 SHR DUP1 PUSH4 0x7C887C59 GT PUSH2 0x6F JUMPI DUP1 PUSH4 0x7C887C59 EQ PUSH2 0x1A0 JUMPI DUP1 PUSH4 0x8DA5CB5B EQ PUSH2 0x1BE JUMPI DUP1 PUSH4 0xA7590163 EQ PUSH2 0x1DC JUMPI DUP1 PUSH4 0xB4B57C39 EQ PUSH2 0x1F8 JUMPI DUP1 PUSH4 0xBA4C7BE1 EQ PUSH2 0x216 JUMPI DUP1 PUSH4 0xDF697CC4 EQ PUSH2 0x232 JUMPI PUSH2 0xB2 JUMP JUMPDEST DUP1 PUSH4 0x3D43001 EQ PUSH2 0xB6 JUMPI DUP1 PUSH4 0x27262618 EQ PUSH2 0xE6 JUMPI DUP1 PUSH4 0x38B88052 EQ PUSH2 0x116 JUMPI DUP1 PUSH4 0x4F0E0EF3 EQ PUSH2 0x134 JUMPI DUP1 PUSH4 0x6425F09E EQ PUSH2 0x152 JUMPI DUP1 PUSH4 0x658A847A EQ PUSH2 0x182 JUMPI JUMPDEST PUSH0 PUSH0 REVERT JUMPDEST PUSH2 0xD0 PUSH1 0x4 DUP1 CALLDATASIZE SUB DUP2 ADD SWAP1 PUSH2 0xCB SWAP2 SWAP1 PUSH2 0x13ED JUMP JUMPDEST PUSH2 0x262 JUMP JUMPDEST PUSH1 0x40 MLOAD PUSH2 0xDD SWAP2 SWAP1 PUSH2 0x14D4 JUMP JUMPDEST PUSH1 0x40 MLOAD DUP1 SWAP2 SUB SWAP1 RETURN JUMPDEST PUSH2 0x100 PUSH1 0x4 DUP1 CALLDATASIZE SUB DUP2 ADD SWAP1 PUSH2 0xFB SWAP2 SWAP1 PUSH2 0x1629 JUMP JUMPDEST PUSH2 0x812 JUMP JUMPDEST PUSH1 0x40 MLOAD PUSH2 0x10D SWAP2 SWAP1 PUSH2 0x167F JUMP JUMPDEST PUSH1 0x40 MLOAD DUP1 SWAP2 SUB SWAP1 RETURN JUMPDEST PUSH2 0x11E PUSH2 0x8B2 JUMP JUMPDEST PUSH1 0x40 MLOAD PUSH2 0x12B SWAP2 SWAP1 PUSH2 0x16B0 JUMP JUMPDEST PUSH1 0x40 MLOAD DUP1 SWAP2 SUB SWAP1 RETURN JUMPDEST PUSH2 0x13C PUSH2 0x8B8 JUMP JUMPDEST PUSH1 0x40 MLOAD PUSH2 0x149 SWAP2 SWAP1 PUSH2 0x167F JUMP JUMPDEST PUSH1 0x40 MLOAD DUP1 SWAP2 SUB SWAP1 RETURN JUMPDEST PUSH2 0x16C PUSH1 0x4 DUP1 CALLDATASIZE SUB DUP2 ADD SWAP1 PUSH2 0x167 SWAP2 SWAP1 PUSH2 0x13ED JUMP JUMPDEST PUSH2 0x8DC JUMP JUMPDEST PUSH1 0x40 MLOAD PUSH2 0x179 SWAP2 SWAP1 PUSH2 0x14D4 JUMP JUMPDEST PUSH1 0x40 MLOAD DUP1 SWAP2 SUB SWAP1 RETURN JUMPDEST PUSH2 0x18A PUSH2 0xD20 JUMP JUMPDEST PUSH1 0x40 MLOAD PUSH2 0x197 SWAP2 SWAP1 PUSH2 0x1724 JUMP JUMPDEST PUSH1 0x40 MLOAD DUP1 SWAP2 SUB SWAP1 RETURN JUMPDEST PUSH2 0x1A8 PUSH2 0xD44 JUMP JUMPDEST PUSH1 0x40 MLOAD PUSH2 0x1B5 SWAP2 SWAP1 PUSH2 0x175D JUMP JUMPDEST PUSH1 0x40 MLOAD DUP1 SWAP2 SUB SWAP1 RETURN JUMPDEST PUSH2 0x1C6 PUSH2 0xD68 JUMP JUMPDEST PUSH1 0x40 MLOAD PUSH2 0x1D3 SWAP2 SWAP1 PUSH2 0x167F JUMP JUMPDEST PUSH1 0x40 MLOAD DUP1 SWAP2 SUB SWAP1 RETURN JUMPDEST PUSH2 0x1F6 PUSH1 0x4 DUP1 CALLDATASIZE SUB DUP2 ADD SWAP1 PUSH2 0x1F1 SWAP2 SWAP1 PUSH2 0x17A0 JUMP JUMPDEST PUSH2 0xDFB JUMP JUMPDEST STOP JUMPDEST PUSH2 0x200 PUSH2 0xEFF JUMP JUMPDEST PUSH1 0x40 MLOAD PUSH2 0x20D SWAP2 SWAP1 PUSH2 0x17EB JUMP JUMPDEST PUSH1 0x40 MLOAD DUP1 SWAP2 SUB SWAP1 RETURN JUMPDEST PUSH2 0x230 PUSH1 0x4 DUP1 CALLDATASIZE SUB DUP2 ADD SWAP1 PUSH2 0x22B SWAP2 SWAP1 PUSH2 0x13ED JUMP JUMPDEST PUSH2 0xF23 JUMP JUMPDEST STOP JUMPDEST PUSH2 0x24C PUSH1 0x4 DUP1 CALLDATASIZE SUB DUP2 ADD SWAP1 PUSH2 0x247 SWAP2 SWAP1 PUSH2 0x13ED JUMP JUMPDEST PUSH2 0x1029 JUMP JUMPDEST PUSH1 0x40 MLOAD PUSH2 0x259 SWAP2 SWAP1 PUSH2 0x14D4 JUMP JUMPDEST PUSH1 0x40 MLOAD DUP1 SWAP2 SUB SWAP1 RETURN JUMPDEST PUSH2 0x26A PUSH2 0x1336 JUMP JUMPDEST PUSH0 PUSH20 0xFFFFFFFFFFFFFFFFFFFFFFFFFFFFFFFFFFFFFFFF AND DUP3 PUSH20 0xFFFFFFFFFFFFFFFFFFFFFFFFFFFFFFFFFFFFFFFF AND SUB PUSH2 0x2CF JUMPI PUSH1 0x40 MLOAD PUSH32 0xD92E233D00000000000000000000000000000000000000000000000000000000 DUP2 MSTORE PUSH1 0x4 ADD PUSH1 0x40 MLOAD DUP1 SWAP2 SUB SWAP1 REVERT JUMPDEST PUSH32 0x0 PUSH20 0xFFFFFFFFFFFFFFFFFFFFFFFFFFFFFFFFFFFFFFFF AND DUP3 PUSH20 0xFFFFFFFFFFFFFFFFFFFFFFFFFFFFFFFFFFFFFFFF AND SUB PUSH2 0x354 JUMPI PUSH1 0x40 MLOAD PUSH32 0x871C78AF00000000000000000000000000000000000000000000000000000000 DUP2 MSTORE PUSH1 0x4 ADD PUSH1 0x40 MLOAD DUP1 SWAP2 SUB SWAP1 REVERT JUMPDEST PUSH0 PUSH32 0x0 SWAP1 POP PUSH0 DUP2 SWAP1 POP PUSH0 PUSH0 PUSH32 0x0 PUSH20 0xFFFFFFFFFFFFFFFFFFFFFFFFFFFFFFFFFFFFFFFF AND PUSH4 0xE6A43905 DUP8 DUP7 PUSH1 0x40 MLOAD DUP4 PUSH4 0xFFFFFFFF AND PUSH1 0xE0 SHL DUP2 MSTORE PUSH1 0x4 ADD PUSH2 0x3D9 SWAP3 SWAP2 SWAP1 PUSH2 0x1804 JUMP JUMPDEST PUSH1 0x20 PUSH1 0x40 MLOAD DUP1 DUP4 SUB DUP2 DUP7 GAS STATICCALL ISZERO DUP1 ISZERO PUSH2 0x3F4 JUMPI RETURNDATASIZE PUSH0 PUSH0 RETURNDATACOPY RETURNDATASIZE PUSH0 REVERT JUMPDEST POP POP POP POP PUSH1 0x40 MLOAD RETURNDATASIZE PUSH1 0x1F NOT PUSH1 0x1F DUP3 ADD AND DUP3 ADD DUP1 PUSH1 0x40 MSTORE POP DUP2 ADD SWAP1 PUSH2 0x418 SWAP2 SWAP1 PUSH2 0x183F JUMP JUMPDEST SWAP1 POP PUSH0 PUSH20 0xFFFFFFFFFFFFFFFFFFFFFFFFFFFFFFFFFFFFFFFF AND DUP2 PUSH20 0xFFFFFFFFFFFFFFFFFFFFFFFFFFFFFFFFFFFFFFFF AND EQ PUSH2 0x5FF JUMPI PUSH0 PUSH0 DUP3 PUSH20 0xFFFFFFFFFFFFFFFFFFFFFFFFFFFFFFFFFFFFFFFF AND PUSH4 0x902F1AC PUSH1 0x40 MLOAD DUP2 PUSH4 0xFFFFFFFF AND PUSH1 0xE0 SHL DUP2 MSTORE PUSH1 0x4 ADD PUSH1 0x60 PUSH1 0x40 MLOAD DUP1 DUP4 SUB DUP2 DUP7 GAS STATICCALL ISZERO DUP1 ISZERO PUSH2 0x498 JUMPI RETURNDATASIZE PUSH0 PUSH0 RETURNDATACOPY RETURNDATASIZE PUSH0 REVERT JUMPDEST POP POP POP POP PUSH1 0x40 MLOAD RETURNDATASIZE PUSH1 0x1F NOT PUSH1 0x1F DUP3 ADD AND DUP3 ADD DUP1 PUSH1 0x40 MSTORE POP DUP2 ADD SWAP1 PUSH2 0x4BC SWAP2 SWAP1 PUSH2 0x18E6 JUMP JUMPDEST POP SWAP2 POP SWAP2 POP PUSH0 DUP4 PUSH20 0xFFFFFFFFFFFFFFFFFFFFFFFFFFFFFFFFFFFFFFFF AND PUSH4 0xDFE1681 PUSH1 0x40 MLOAD DUP2 PUSH4 0xFFFFFFFF AND PUSH1 0xE0 SHL DUP2 MSTORE PUSH1 0x4 ADD PUSH1 0x20 PUSH1 0x40 MLOAD DUP1 DUP4 SUB DUP2 DUP7 GAS STATICCALL ISZERO DUP1 ISZERO PUSH2 0x50B JUMPI RETURNDATASIZE PUSH0 PUSH0 RETURNDATACOPY RETURNDATASIZE PUSH0 REVERT JUMPDEST POP POP POP POP PUSH1 0x40 MLOAD RETURNDATASIZE PUSH1 0x1F NOT PUSH1 0x1F DUP3 ADD AND DUP3 ADD DUP1 PUSH1 0x40 MSTORE POP DUP2 ADD SWAP1 PUSH2 0x52F SWAP2 SWAP1 PUSH2 0x183F JUMP JUMPDEST SWAP1 POP PUSH0 DUP8 PUSH20 0xFFFFFFFFFFFFFFFFFFFFFFFFFFFFFFFFFFFFFFFF AND DUP3 PUSH20 0xFFFFFFFFFFFFFFFFFFFFFFFFFFFFFFFFFFFFFFFF AND EQ PUSH2 0x57B JUMPI DUP3 PUSH14 0xFFFFFFFFFFFFFFFFFFFFFFFFFFFF AND PUSH2 0x58D JUMP JUMPDEST DUP4 PUSH14 0xFFFFFFFFFFFFFFFFFFFFFFFFFFFF AND JUMPDEST SWAP1 POP DUP6 DUP2 GT ISZERO PUSH2 0x5FA JUMPI PUSH0 DUP10 PUSH1 0x40 ADD SWAP1 PUSH1 0xFF AND SWAP1 DUP2 PUSH1 0xFF AND DUP2 MSTORE POP POP DUP5 DUP10 PUSH0 ADD SWAP1 PUSH20 0xFFFFFFFFFFFFFFFFFFFFFFFFFFFFFFFFFFFFFFFF AND SWAP1 DUP2 PUSH20 0xFFFFFFFFFFFFFFFFFFFFFFFFFFFFFFFFFFFFFFFF AND DUP2 MSTORE POP POP PUSH0 DUP10 PUSH1 0x20 ADD SWAP1 PUSH3 0xFFFFFF AND SWAP1 DUP2 PUSH3 0xFFFFFF AND DUP2 MSTORE POP POP DUP1 SWAP6 POP JUMPDEST POP POP POP POP JUMPDEST PUSH0 JUMPDEST PUSH1 0x2 DUP2 LT ISZERO PUSH2 0x7E8 JUMPI PUSH0 PUSH0 DUP3 EQ PUSH2 0x61A JUMPI PUSH2 0x2710 PUSH2 0x61E JUMP JUMPDEST PUSH2 0xBB8 JUMPDEST SWAP1 POP PUSH0 PUSH32 0x0 PUSH20 0xFFFFFFFFFFFFFFFFFFFFFFFFFFFFFFFFFFFFFFFF AND PUSH4 0x1698EE82 DUP11 DUP10 DUP6 PUSH1 0x40 MLOAD DUP5 PUSH4 0xFFFFFFFF AND PUSH1 0xE0 SHL DUP2 MSTORE PUSH1 0x4 ADD PUSH2 0x67E SWAP4 SWAP3 SWAP2 SWAP1 PUSH2 0x1945 JUMP JUMPDEST PUSH1 0x20 PUSH1 0x40 MLOAD DUP1 DUP4 SUB DUP2 DUP7 GAS STATICCALL ISZERO DUP1 ISZERO PUSH2 0x699 JUMPI RETURNDATASIZE PUSH0 PUSH0 RETURNDATACOPY RETURNDATASIZE PUSH0 REVERT JUMPDEST POP POP POP POP PUSH1 0x40 MLOAD RETURNDATASIZE PUSH1 0x1F NOT PUSH1 0x1F DUP3 ADD AND DUP3 ADD DUP1 PUSH1 0x40 MSTORE POP DUP2 ADD SWAP1 PUSH2 0x6BD SWAP2 SWAP1 PUSH2 0x183F JUMP JUMPDEST SWAP1 POP PUSH0 PUSH20 0xFFFFFFFFFFFFFFFFFFFFFFFFFFFFFFFFFFFFFFFF AND DUP2 PUSH20 0xFFFFFFFFFFFFFFFFFFFFFFFFFFFFFFFFFFFFFFFF AND EQ PUSH2 0x7DB JUMPI PUSH0 DUP7 PUSH20 0xFFFFFFFFFFFFFFFFFFFFFFFFFFFFFFFFFFFFFFFF AND PUSH4 0x70A08231 DUP4 PUSH1 0x40 MLOAD DUP3 PUSH4 0xFFFFFFFF AND PUSH1 0xE0 SHL DUP2 MSTORE PUSH1 0x4 ADD PUSH2 0x72C SWAP2 SWAP1 PUSH2 0x167F JUMP JUMPDEST PUSH1 0x20 PUSH1 0x40 MLOAD DUP1 DUP4 SUB DUP2 DUP7 GAS STATICCALL ISZERO DUP1 ISZERO PUSH2 0x747 JUMPI RETURNDATASIZE PUSH0 PUSH0 RETURNDATACOPY RETURNDATASIZE PUSH0 REVERT JUMPDEST POP POP POP POP PUSH1 0x40 MLOAD RETURNDATASIZE PUSH1 0x1F NOT PUSH1 0x1F DUP3 ADD AND DUP3 ADD DUP1 PUSH1 0x40 MSTORE POP DUP2 ADD SWAP1 PUSH2 0x76B SWAP2 SWAP1 PUSH2 0x198E JUMP JUMPDEST SWAP1 POP DUP6 DUP2 GT ISZERO PUSH2 0x7D9 JUMPI PUSH1 0x1 DUP10 PUSH1 0x40 ADD SWAP1 PUSH1 0xFF AND SWAP1 DUP2 PUSH1 0xFF AND DUP2 MSTORE POP POP DUP2 DUP10 PUSH0 ADD SWAP1 PUSH20 0xFFFFFFFFFFFFFFFFFFFFFFFFFFFFFFFFFFFFFFFF AND SWAP1 DUP2 PUSH20 0xFFFFFFFFFFFFFFFFFFFFFFFFFFFFFFFFFFFFFFFF AND DUP2 MSTORE POP POP DUP3 DUP10 PUSH1 0x20 ADD SWAP1 PUSH3 0xFFFFFF AND SWAP1 DUP2 PUSH3 0xFFFFFF AND DUP2 MSTORE POP POP DUP1 SWAP6 POP JUMPDEST POP JUMPDEST DUP3 PUSH1 0x1 ADD SWAP3 POP POP POP PUSH2 0x601 JUMP JUMPDEST POP TIMESTAMP DUP6 PUSH1 0x60 ADD SWAP1 PUSH8 0xFFFFFFFFFFFFFFFF AND SWAP1 DUP2 PUSH8 0xFFFFFFFFFFFFFFFF AND DUP2 MSTORE POP POP POP POP POP POP SWAP2 SWAP1 POP JUMP JUMPDEST PUSH0 PUSH0 PUSH0 SWAP1 SLOAD SWAP1 PUSH2 0x100 EXP SWAP1 DIV PUSH20 0xFFFFFFFFFFFFFFFFFFFFFFFFFFFFFFFFFFFFFFFF AND PUSH20 0xFFFFFFFFFFFFFFFFFFFFFFFFFFFFFFFFFFFFFFFF AND PUSH4 0x27262618 DUP4 PUSH1 0x40 MLOAD DUP3 PUSH4 0xFFFFFFFF AND PUSH1 0xE0 SHL DUP2 MSTORE PUSH1 0x4 ADD PUSH2 0x86C SWAP2 SWAP1 PUSH2 0x1A19 JUMP JUMPDEST PUSH1 0x20 PUSH1 0x40 MLOAD DUP1 DUP4 SUB DUP2 DUP7 GAS STATICCALL ISZERO DUP1 ISZERO PUSH2 0x887 JUMPI RETURNDATASIZE PUSH0 PUSH0 RETURNDATACOPY RETURNDATASIZE PUSH0 REVERT JUMPDEST POP POP POP POP PUSH1 0x40 MLOAD RETURNDATASIZE PUSH1 0x1F NOT PUSH1 0x1F DUP3 ADD AND DUP3 ADD DUP1 PUSH1 0x40 MSTORE POP DUP2 ADD SWAP1 PUSH2 0x8AB SWAP2 SWAP1 PUSH2 0x183F JUMP JUMPDEST SWAP1 POP SWAP2 SWAP1 POP JUMP JUMPDEST PUSH1 0x2 SLOAD DUP2 JUMP JUMPDEST PUSH32 0x0 DUP2 JUMP JUMPDEST PUSH2 0x8E4 PUSH2 0x1336 JUMP JUMPDEST PUSH0 PUSH1 0x1 PUSH0 DUP5 PUSH20 0xFFFFFFFFFFFFFFFFFFFFFFFFFFFFFFFFFFFFFFFF AND PUSH20 0xFFFFFFFFFFFFFFFFFFFFFFFFFFFFFFFFFFFFFFFF AND DUP2 MSTORE PUSH1 0x20 ADD SWAP1 DUP2 MSTORE PUSH1 0x20 ADD PUSH0 KECCAK256 SWAP1 POP PUSH0 PUSH20 0xFFFFFFFFFFFFFFFFFFFFFFFFFFFFFFFFFFFFFFFF AND DUP2 PUSH0 ADD PUSH0 SWAP1 SLOAD SWAP1 PUSH2 0x100 EXP SWAP1 DIV PUSH20 0xFFFFFFFFFFFFFFFFFFFFFFFFFFFFFFFFFFFFFFFF AND PUSH20 0xFFFFFFFFFFFFFFFFFFFFFFFFFFFFFFFFFFFFFFFF AND SUB PUSH2 0xA81 JUMPI PUSH2 0x982 DUP4 PUSH2 0x262 JUMP JUMPDEST SWAP2 POP DUP2 PUSH1 0x1 PUSH0 DUP6 PUSH20 0xFFFFFFFFFFFFFFFFFFFFFFFFFFFFFFFFFFFFFFFF AND PUSH20 0xFFFFFFFFFFFFFFFFFFFFFFFFFFFFFFFFFFFFFFFF AND DUP2 MSTORE PUSH1 0x20 ADD SWAP1 DUP2 MSTORE PUSH1 0x20 ADD PUSH0 KECCAK256 PUSH0 DUP3 ADD MLOAD DUP2 PUSH0 ADD PUSH0 PUSH2 0x100 EXP DUP2 SLOAD DUP2 PUSH20 0xFFFFFFFFFFFFFFFFFFFFFFFFFFFFFFFFFFFFFFFF MUL NOT AND SWAP1 DUP4 PUSH20 0xFFFFFFFFFFFFFFFFFFFFFFFFFFFFFFFFFFFFFFFF AND MUL OR SWAP1 SSTORE POP PUSH1 0x20 DUP3 ADD MLOAD DUP2 PUSH0 ADD PUSH1 0x14 PUSH2 0x100 EXP DUP2 SLOAD DUP2 PUSH3 0xFFFFFF MUL NOT AND SWAP1 DUP4 PUSH3 0xFFFFFF AND MUL OR SWAP1 SSTORE POP PUSH1 0x40 DUP3 ADD MLOAD DUP2 PUSH0 ADD PUSH1 0x17 PUSH2 0x100 EXP DUP2 SLOAD DUP2 PUSH1 0xFF MUL NOT AND SWAP1 DUP4 PUSH1 0xFF AND MUL OR SWAP1 SSTORE POP PUSH1 0x60 DUP3 ADD MLOAD DUP2 PUSH0 ADD PUSH1 0x18 PUSH2 0x100 EXP DUP2 SLOAD DUP2 PUSH8 0xFFFFFFFFFFFFFFFF MUL NOT AND SWAP1 DUP4 PUSH8 0xFFFFFFFFFFFFFFFF AND MUL OR SWAP1 SSTORE POP SWAP1 POP POP POP PUSH2 0xD1B JUMP JUMPDEST PUSH1 0x2 SLOAD DUP2 PUSH0 ADD PUSH1 0x18 SWAP1 SLOAD SWAP1 PUSH2 0x100 EXP SWAP1 DIV PUSH8 0xFFFFFFFFFFFFFFFF AND PUSH8 0xFFFFFFFFFFFFFFFF AND TIMESTAMP PUSH2 0xAB1 SWAP2 SWAP1 PUSH2 0x1A66 JUMP JUMPDEST GT ISZERO PUSH2 0xC48 JUMPI PUSH0 PUSH2 0xAC1 DUP5 PUSH2 0x262 JUMP JUMPDEST SWAP1 POP DUP2 PUSH0 ADD PUSH0 SWAP1 SLOAD SWAP1 PUSH2 0x100 EXP SWAP1 DIV PUSH20 0xFFFFFFFFFFFFFFFFFFFFFFFFFFFFFFFFFFFFFFFF AND PUSH20 0xFFFFFFFFFFFFFFFFFFFFFFFFFFFFFFFFFFFFFFFF AND DUP2 PUSH0 ADD MLOAD PUSH20 0xFFFFFFFFFFFFFFFFFFFFFFFFFFFFFFFFFFFFFFFF AND EQ PUSH2 0xC1C JUMPI DUP1 PUSH1 0x1 PUSH0 DUP7 PUSH20 0xFFFFFFFFFFFFFFFFFFFFFFFFFFFFFFFFFFFFFFFF AND PUSH20 0xFFFFFFFFFFFFFFFFFFFFFFFFFFFFFFFFFFFFFFFF AND DUP2 MSTORE PUSH1 0x20 ADD SWAP1 DUP2 MSTORE PUSH1 0x20 ADD PUSH0 KECCAK256 PUSH0 DUP3 ADD MLOAD DUP2 PUSH0 ADD PUSH0 PUSH2 0x100 EXP DUP2 SLOAD DUP2 PUSH20 0xFFFFFFFFFFFFFFFFFFFFFFFFFFFFFFFFFFFFFFFF MUL NOT AND SWAP1 DUP4 PUSH20 0xFFFFFFFFFFFFFFFFFFFFFFFFFFFFFFFFFFFFFFFF AND MUL OR SWAP1 SSTORE POP PUSH1 0x20 DUP3 ADD MLOAD DUP2 PUSH0 ADD PUSH1 0x14 PUSH2 0x100 EXP DUP2 SLOAD DUP2 PUSH3 0xFFFFFF MUL NOT AND SWAP1 DUP4 PUSH3 0xFFFFFF AND MUL OR SWAP1 SSTORE POP PUSH1 0x40 DUP3 ADD MLOAD DUP2 PUSH0 ADD PUSH1 0x17 PUSH2 0x100 EXP DUP2 SLOAD DUP2 PUSH1 0xFF MUL NOT AND SWAP1 DUP4 PUSH1 0xFF AND MUL OR SWAP1 SSTORE POP PUSH1 0x60 DUP3 ADD MLOAD DUP2 PUSH0 ADD PUSH1 0x18 PUSH2 0x100 EXP DUP2 SLOAD DUP2 PUSH8 0xFFFFFFFFFFFFFFFF MUL NOT AND SWAP1 DUP4 PUSH8 0xFFFFFFFFFFFFFFFF AND MUL OR SWAP1 SSTORE POP SWAP1 POP POP DUP1 SWAP3 POP POP POP PUSH2 0xD1B JUMP JUMPDEST TIMESTAMP DUP3 PUSH0 ADD PUSH1 0x18 PUSH2 0x100 EXP DUP2 SLOAD DUP2 PUSH8 0xFFFFFFFFFFFFFFFF MUL NOT AND SWAP1 DUP4 PUSH8 0xFFFFFFFFFFFFFFFF AND MUL OR SWAP1 SSTORE POP POP JUMPDEST DUP1 PUSH1 0x40 MLOAD DUP1 PUSH1 0x80 ADD PUSH1 0x40 MSTORE SWAP1 DUP2 PUSH0 DUP3 ADD PUSH0 SWAP1 SLOAD SWAP1 PUSH2 0x100 EXP SWAP1 DIV PUSH20 0xFFFFFFFFFFFFFFFFFFFFFFFFFFFFFFFFFFFFFFFF AND PUSH20 0xFFFFFFFFFFFFFFFFFFFFFFFFFFFFFFFFFFFFFFFF AND PUSH20 0xFFFFFFFFFFFFFFFFFFFFFFFFFFFFFFFFFFFFFFFF AND DUP2 MSTORE PUSH1 0x20 ADD PUSH0 DUP3 ADD PUSH1 0x14 SWAP1 SLOAD SWAP1 PUSH2 0x100 EXP SWAP1 DIV PUSH3 0xFFFFFF AND PUSH3 0xFFFFFF AND PUSH3 0xFFFFFF AND DUP2 MSTORE PUSH1 0x20 ADD PUSH0 DUP3 ADD PUSH1 0x17 SWAP1 SLOAD SWAP1 PUSH2 0x100 EXP SWAP1 DIV PUSH1 0xFF AND PUSH1 0xFF AND PUSH1 0xFF AND DUP2 MSTORE PUSH1 0x20 ADD PUSH0 DUP3 ADD PUSH1 0x18 SWAP1 SLOAD SWAP1 PUSH2 0x100 EXP SWAP1 DIV PUSH8 0xFFFFFFFFFFFFFFFF AND PUSH8 0xFFFFFFFFFFFFFFFF AND PUSH8 0xFFFFFFFFFFFFFFFF AND DUP2 MSTORE POP POP SWAP2 POP POP JUMPDEST SWAP2 SWAP1 POP JUMP JUMPDEST PUSH0 PUSH0 SWAP1 SLOAD SWAP1 PUSH2 0x100 EXP SWAP1 DIV PUSH20 0xFFFFFFFFFFFFFFFFFFFFFFFFFFFFFFFFFFFFFFFF AND DUP2 JUMP JUMPDEST PUSH32 0x0 DUP2 JUMP JUMPDEST PUSH0 PUSH0 PUSH0 SWAP1 SLOAD SWAP1 PUSH2 0x100 EXP SWAP1 DIV PUSH20 0xFFFFFFFFFFFFFFFFFFFFFFFFFFFFFFFFFFFFFFFF AND PUSH20 0xFFFFFFFFFFFFFFFFFFFFFFFFFFFFFFFFFFFFFFFF AND PUSH4 0x8DA5CB5B PUSH1 0x40 MLOAD DUP2 PUSH4 0xFFFFFFFF AND PUSH1 0xE0 SHL DUP2 MSTORE PUSH1 0x4 ADD PUSH1 0x20 PUSH1 0x40 MLOAD DUP1 DUP4 SUB DUP2 DUP7 GAS STATICCALL ISZERO DUP1 ISZERO PUSH2 0xDD2 JUMPI RETURNDATASIZE PUSH0 PUSH0 RETURNDATACOPY RETURNDATASIZE PUSH0 REVERT JUMPDEST POP POP POP POP PUSH1 0x40 MLOAD RETURNDATASIZE PUSH1 0x1F NOT PUSH1 0x1F DUP3 ADD AND DUP3 ADD DUP1 PUSH1 0x40 MSTORE POP DUP2 ADD SWAP1 PUSH2 0xDF6 SWAP2 SWAP1 PUSH2 0x183F JUMP JUMPDEST SWAP1 POP SWAP1 JUMP JUMPDEST PUSH0 PUSH0 SWAP1 SLOAD SWAP1 PUSH2 0x100 EXP SWAP1 DIV PUSH20 0xFFFFFFFFFFFFFFFFFFFFFFFFFFFFFFFFFFFFFFFF AND PUSH20 0xFFFFFFFFFFFFFFFFFFFFFFFFFFFFFFFFFFFFFFFF AND PUSH4 0x8DA5CB5B PUSH1 0x40 MLOAD DUP2 PUSH4 0xFFFFFFFF AND PUSH1 0xE0 SHL DUP2 MSTORE PUSH1 0x4 ADD PUSH1 0x20 PUSH1 0x40 MLOAD DUP1 DUP4 SUB DUP2 DUP7 GAS STATICCALL ISZERO DUP1 ISZERO PUSH2 0xE64 JUMPI RETURNDATASIZE PUSH0 PUSH0 RETURNDATACOPY RETURNDATASIZE PUSH0 REVERT JUMPDEST POP POP POP POP PUSH1 0x40 MLOAD RETURNDATASIZE PUSH1 0x1F NOT PUSH1 0x1F DUP3 ADD AND DUP3 ADD DUP1 PUSH1 0x40 MSTORE POP DUP2 ADD SWAP1 PUSH2 0xE88 SWAP2 SWAP1 PUSH2 0x183F JUMP JUMPDEST PUSH20 0xFFFFFFFFFFFFFFFFFFFFFFFFFFFFFFFFFFFFFFFF AND CALLER PUSH20 0xFFFFFFFFFFFFFFFFFFFFFFFFFFFFFFFFFFFFFFFF AND EQ PUSH2 0xEF5 JUMPI PUSH1 0x40 MLOAD PUSH32 0x8C379A000000000000000000000000000000000000000000000000000000000 DUP2 MSTORE PUSH1 0x4 ADD PUSH2 0xEEC SWAP1 PUSH2 0x1AE3 JUMP JUMPDEST PUSH1 0x40 MLOAD DUP1 SWAP2 SUB SWAP1 REVERT JUMPDEST DUP1 PUSH1 0x2 DUP2 SWAP1 SSTORE POP POP JUMP JUMPDEST PUSH32 0x0 DUP2 JUMP JUMPDEST PUSH0 PUSH0 SWAP1 SLOAD SWAP1 PUSH2 0x100 EXP SWAP1 DIV PUSH20 0xFFFFFFFFFFFFFFFFFFFFFFFFFFFFFFFFFFFFFFFF AND PUSH20 0xFFFFFFFFFFFFFFFFFFFFFFFFFFFFFFFFFFFFFFFF AND PUSH4 0x8DA5CB5B PUSH1 0x40 MLOAD DUP2 PUSH4 0xFFFFFFFF AND PUSH1 0xE0 SHL DUP2 MSTORE PUSH1 0x4 ADD PUSH1 0x20 PUSH1 0x40 MLOAD DUP1 DUP4 SUB DUP2 DUP7 GAS STATICCALL ISZERO DUP1 ISZERO PUSH2 0xF8C JUMPI RETURNDATASIZE PUSH0 PUSH0 RETURNDATACOPY RETURNDATASIZE PUSH0 REVERT JUMPDEST POP POP POP POP PUSH1 0x40 MLOAD RETURNDATASIZE PUSH1 0x1F NOT PUSH1 0x1F DUP3 ADD AND DUP3 ADD DUP1 PUSH1 0x40 MSTORE POP DUP2 ADD SWAP1 PUSH2 0xFB0 SWAP2 SWAP1 PUSH2 0x183F JUMP JUMPDEST PUSH20 0xFFFFFFFFFFFFFFFFFFFFFFFFFFFFFFFFFFFFFFFF AND CALLER PUSH20 0xFFFFFFFFFFFFFFFFFFFFFFFFFFFFFFFFFFFFFFFF AND EQ PUSH2 0x101D JUMPI PUSH1 0x40 MLOAD PUSH32 0x8C379A000000000000000000000000000000000000000000000000000000000 DUP2 MSTORE PUSH1 0x4 ADD PUSH2 0x1014 SWAP1 PUSH2 0x1AE3 JUMP JUMPDEST PUSH1 0x40 MLOAD DUP1 SWAP2 SUB SWAP1 REVERT JUMPDEST PUSH2 0x1026 DUP2 PUSH2 0x1185 JUMP JUMPDEST POP JUMP JUMPDEST PUSH2 0x1031 PUSH2 0x1336 JUMP JUMPDEST PUSH1 0x1 PUSH0 DUP4 PUSH20 0xFFFFFFFFFFFFFFFFFFFFFFFFFFFFFFFFFFFFFFFF AND PUSH20 0xFFFFFFFFFFFFFFFFFFFFFFFFFFFFFFFFFFFFFFFF AND DUP2 MSTORE PUSH1 0x20 ADD SWAP1 DUP2 MSTORE PUSH1 0x20 ADD PUSH0 KECCAK256 PUSH1 0x40 MLOAD DUP1 PUSH1 0x80 ADD PUSH1 0x40 MSTORE SWAP1 DUP2 PUSH0 DUP3 ADD PUSH0 SWAP1 SLOAD SWAP1 PUSH2 0x100 EXP SWAP1 DIV PUSH20 0xFFFFFFFFFFFFFFFFFFFFFFFFFFFFFFFFFFFFFFFF AND PUSH20 0xFFFFFFFFFFFFFFFFFFFFFFFFFFFFFFFFFFFFFFFF AND PUSH20 0xFFFFFFFFFFFFFFFFFFFFFFFFFFFFFFFFFFFFFFFF AND DUP2 MSTORE PUSH1 0x20 ADD PUSH0 DUP3 ADD PUSH1 0x14 SWAP1 SLOAD SWAP1 PUSH2 0x100 EXP SWAP1 DIV PUSH3 0xFFFFFF AND PUSH3 0xFFFFFF AND PUSH3 0xFFFFFF AND DUP2 MSTORE PUSH1 0x20 ADD PUSH0 DUP3 ADD PUSH1 0x17 SWAP1 SLOAD SWAP1 PUSH2 0x100 EXP SWAP1 DIV PUSH1 0xFF AND PUSH1 0xFF AND PUSH1 0xFF AND DUP2 MSTORE PUSH1 0x20 ADD PUSH0 DUP3 ADD PUSH1 0x18 SWAP1 SLOAD SWAP1 PUSH2 0x100 EXP SWAP1 DIV PUSH8 0xFFFFFFFFFFFFFFFF AND PUSH8 0xFFFFFFFFFFFFFFFF AND PUSH8 0xFFFFFFFFFFFFFFFF AND DUP2 MSTORE POP POP SWAP1 POP PUSH0 PUSH20 0xFFFFFFFFFFFFFFFFFFFFFFFFFFFFFFFFFFFFFFFF AND DUP2 PUSH0 ADD MLOAD PUSH20 0xFFFFFFFFFFFFFFFFFFFFFFFFFFFFFFFFFFFFFFFF AND SUB PUSH2 0x1180 JUMPI PUSH2 0x117D DUP3 PUSH2 0x262 JUMP JUMPDEST SWAP1 POP JUMPDEST SWAP2 SWAP1 POP JUMP JUMPDEST PUSH0 PUSH20 0xFFFFFFFFFFFFFFFFFFFFFFFFFFFFFFFFFFFFFFFF AND DUP2 PUSH20 0xFFFFFFFFFFFFFFFFFFFFFFFFFFFFFFFFFFFFFFFF AND SUB PUSH2 0x11F3 JUMPI PUSH1 0x40 MLOAD PUSH32 0x8C379A000000000000000000000000000000000000000000000000000000000 DUP2 MSTORE PUSH1 0x4 ADD PUSH2 0x11EA SWAP1 PUSH2 0x1B4B JUMP JUMPDEST PUSH1 0x40 MLOAD DUP1 SWAP2 SUB SWAP1 REVERT JUMPDEST PUSH0 DUP2 PUSH20 0xFFFFFFFFFFFFFFFFFFFFFFFFFFFFFFFFFFFFFFFF AND EXTCODESIZE GT PUSH2 0x124C JUMPI PUSH1 0x40 MLOAD PUSH32 0x8C379A000000000000000000000000000000000000000000000000000000000 DUP2 MSTORE PUSH1 0x4 ADD PUSH2 0x1243 SWAP1 PUSH2 0x1BB3 JUMP JUMPDEST PUSH1 0x40 MLOAD DUP1 SWAP2 SUB SWAP1 REVERT JUMPDEST DUP1 PUSH20 0xFFFFFFFFFFFFFFFFFFFFFFFFFFFFFFFFFFFFFFFF AND PUSH4 0x8DA5CB5B PUSH1 0x40 MLOAD DUP2 PUSH4 0xFFFFFFFF AND PUSH1 0xE0 SHL DUP2 MSTORE PUSH1 0x4 ADD PUSH1 0x20 PUSH1 0x40 MLOAD DUP1 DUP4 SUB DUP2 DUP7 GAS STATICCALL SWAP3 POP POP POP DUP1 ISZERO PUSH2 0x12B4 JUMPI POP PUSH1 0x40 MLOAD RETURNDATASIZE PUSH1 0x1F NOT PUSH1 0x1F DUP3 ADD AND DUP3 ADD DUP1 PUSH1 0x40 MSTORE POP DUP2 ADD SWAP1 PUSH2 0x12B1 SWAP2 SWAP1 PUSH2 0x183F JUMP JUMPDEST PUSH1 0x1 JUMPDEST PUSH2 0x12F3 JUMPI PUSH1 0x40 MLOAD PUSH32 0x8C379A000000000000000000000000000000000000000000000000000000000 DUP2 MSTORE PUSH1 0x4 ADD PUSH2 0x12EA SWAP1 PUSH2 0x1C41 JUMP JUMPDEST PUSH1 0x40 MLOAD DUP1 SWAP2 SUB SWAP1 REVERT JUMPDEST DUP2 PUSH0 PUSH0 PUSH2 0x100 EXP DUP2 SLOAD DUP2 PUSH20 0xFFFFFFFFFFFFFFFFFFFFFFFFFFFFFFFFFFFFFFFF MUL NOT AND SWAP1 DUP4 PUSH20 0xFFFFFFFFFFFFFFFFFFFFFFFFFFFFFFFFFFFFFFFF AND MUL OR SWAP1 SSTORE POP POP POP JUMP JUMPDEST PUSH1 0x40 MLOAD DUP1 PUSH1 0x80 ADD PUSH1 0x40 MSTORE DUP1 PUSH0 PUSH20 0xFFFFFFFFFFFFFFFFFFFFFFFFFFFFFFFFFFFFFFFF AND DUP2 MSTORE PUSH1 0x20 ADD PUSH0 PUSH3 0xFFFFFF AND DUP2 MSTORE PUSH1 0x20 ADD PUSH0 PUSH1 0xFF AND DUP2 MSTORE PUSH1 0x20 ADD PUSH0 PUSH8 0xFFFFFFFFFFFFFFFF AND DUP2 MSTORE POP SWAP1 JUMP JUMPDEST PUSH0 PUSH1 0x40 MLOAD SWAP1 POP SWAP1 JUMP JUMPDEST PUSH0 PUSH0 REVERT JUMPDEST PUSH0 PUSH0 REVERT JUMPDEST PUSH0 PUSH20 0xFFFFFFFFFFFFFFFFFFFFFFFFFFFFFFFFFFFFFFFF DUP3 AND SWAP1 POP SWAP2 SWAP1 POP JUMP JUMPDEST PUSH0 PUSH2 0x13BC DUP3 PUSH2 0x1393 JUMP JUMPDEST SWAP1 POP SWAP2 SWAP1 POP JUMP JUMPDEST PUSH2 0x13CC DUP2 PUSH2 0x13B2 JUMP JUMPDEST DUP2 EQ PUSH2 0x13D6 JUMPI PUSH0 PUSH0 REVERT JUMPDEST POP JUMP JUMPDEST PUSH0 DUP2 CALLDATALOAD SWAP1 POP PUSH2 0x13E7 DUP2 PUSH2 0x13C3 JUMP JUMPDEST SWAP3 SWAP2 POP POP JUMP JUMPDEST PUSH0 PUSH1 0x20 DUP3 DUP5 SUB SLT ISZERO PUSH2 0x1402 JUMPI PUSH2 0x1401 PUSH2 0x138B JUMP JUMPDEST JUMPDEST PUSH0 PUSH2 0x140F DUP5 DUP3 DUP6 ADD PUSH2 0x13D9 JUMP JUMPDEST SWAP2 POP POP SWAP3 SWAP2 POP POP JUMP JUMPDEST PUSH2 0x1421 DUP2 PUSH2 0x13B2 JUMP JUMPDEST DUP3 MSTORE POP POP JUMP JUMPDEST PUSH0 PUSH3 0xFFFFFF DUP3 AND SWAP1 POP SWAP2 SWAP1 POP JUMP JUMPDEST PUSH2 0x143E DUP2 PUSH2 0x1427 JUMP JUMPDEST DUP3 MSTORE POP POP JUMP JUMPDEST PUSH0 PUSH1 0xFF DUP3 AND SWAP1 POP SWAP2 SWAP1 POP JUMP JUMPDEST PUSH2 0x1459 DUP2 PUSH2 0x1444 JUMP JUMPDEST DUP3 MSTORE POP POP JUMP JUMPDEST PUSH0 PUSH8 0xFFFFFFFFFFFFFFFF DUP3 AND SWAP1 POP SWAP2 SWAP1 POP JUMP JUMPDEST PUSH2 0x147B DUP2 PUSH2 0x145F JUMP JUMPDEST DUP3 MSTORE POP POP JUMP JUMPDEST PUSH1 0x80 DUP3 ADD PUSH0 DUP3 ADD MLOAD PUSH2 0x1495 PUSH0 DUP6 ADD DUP3 PUSH2 0x1418 JUMP JUMPDEST POP PUSH1 0x20 DUP3 ADD MLOAD PUSH2 0x14A8 PUSH1 0x20 DUP6 ADD DUP3 PUSH2 0x1435 JUMP JUMPDEST POP PUSH1 0x40 DUP3 ADD MLOAD PUSH2 0x14BB PUSH1 0x40 DUP6 ADD DUP3 PUSH2 0x1450 JUMP JUMPDEST POP PUSH1 0x60 DUP3 ADD MLOAD PUSH2 0x14CE PUSH1 0x60 DUP6 ADD DUP3 PUSH2 0x1472 JUMP JUMPDEST POP POP POP POP JUMP JUMPDEST PUSH0 PUSH1 0x80 DUP3 ADD SWAP1 POP PUSH2 0x14E7 PUSH0 DUP4 ADD DUP5 PUSH2 0x1481 JUMP JUMPDEST SWAP3 SWAP2 POP POP JUMP JUMPDEST PUSH0 PUSH0 REVERT JUMPDEST PUSH0 PUSH0 REVERT JUMPDEST PUSH0 PUSH1 0x1F NOT PUSH1 0x1F DUP4 ADD AND SWAP1 POP SWAP2 SWAP1 POP JUMP JUMPDEST PUSH32 0x4E487B7100000000000000000000000000000000000000000000000000000000 PUSH0 MSTORE PUSH1 0x41 PUSH1 0x4 MSTORE PUSH1 0x24 PUSH0 REVERT JUMPDEST PUSH2 0x153B DUP3 PUSH2 0x14F5 JUMP JUMPDEST DUP2 ADD DUP2 DUP2 LT PUSH8 0xFFFFFFFFFFFFFFFF DUP3 GT OR ISZERO PUSH2 0x155A JUMPI PUSH2 0x1559 PUSH2 0x1505 JUMP JUMPDEST JUMPDEST DUP1 PUSH1 0x40 MSTORE POP POP POP JUMP JUMPDEST PUSH0 PUSH2 0x156C PUSH2 0x1382 JUMP JUMPDEST SWAP1 POP PUSH2 0x1578 DUP3 DUP3 PUSH2 0x1532 JUMP JUMPDEST SWAP2 SWAP1 POP JUMP JUMPDEST PUSH0 PUSH8 0xFFFFFFFFFFFFFFFF DUP3 GT ISZERO PUSH2 0x1597 JUMPI PUSH2 0x1596 PUSH2 0x1505 JUMP JUMPDEST JUMPDEST PUSH2 0x15A0 DUP3 PUSH2 0x14F5 JUMP JUMPDEST SWAP1 POP PUSH1 0x20 DUP2 ADD SWAP1 POP SWAP2 SWAP1 POP JUMP JUMPDEST DUP3 DUP2 DUP4 CALLDATACOPY PUSH0 DUP4 DUP4 ADD MSTORE POP POP POP JUMP JUMPDEST PUSH0 PUSH2 0x15CD PUSH2 0x15C8 DUP5 PUSH2 0x157D JUMP JUMPDEST PUSH2 0x1563 JUMP JUMPDEST SWAP1 POP DUP3 DUP2 MSTORE PUSH1 0x20 DUP2 ADD DUP5 DUP5 DUP5 ADD GT ISZERO PUSH2 0x15E9 JUMPI PUSH2 0x15E8 PUSH2 0x14F1 JUMP JUMPDEST JUMPDEST PUSH2 0x15F4 DUP5 DUP3 DUP6 PUSH2 0x15AD JUMP JUMPDEST POP SWAP4 SWAP3 POP POP POP JUMP JUMPDEST PUSH0 DUP3 PUSH1 0x1F DUP4 ADD SLT PUSH2 0x1610 JUMPI PUSH2 0x160F PUSH2 0x14ED JUMP JUMPDEST JUMPDEST DUP2 CALLDATALOAD PUSH2 0x1620 DUP5 DUP3 PUSH1 0x20 DUP7 ADD PUSH2 0x15BB JUMP JUMPDEST SWAP2 POP POP SWAP3 SWAP2 POP POP JUMP JUMPDEST PUSH0 PUSH1 0x20 DUP3 DUP5 SUB SLT ISZERO PUSH2 0x163E JUMPI PUSH2 0x163D PUSH2 0x138B JUMP JUMPDEST JUMPDEST PUSH0 DUP3 ADD CALLDATALOAD PUSH8 0xFFFFFFFFFFFFFFFF DUP2 GT ISZERO PUSH2 0x165B JUMPI PUSH2 0x165A PUSH2 0x138F JUMP JUMPDEST JUMPDEST PUSH2 0x1667 DUP5 DUP3 DUP6 ADD PUSH2 0x15FC JUMP JUMPDEST SWAP2 POP POP SWAP3 SWAP2 POP POP JUMP JUMPDEST PUSH2 0x1679 DUP2 PUSH2 0x13B2 JUMP JUMPDEST DUP3 MSTORE POP POP JUMP JUMPDEST PUSH0 PUSH1 0x20 DUP3 ADD SWAP1 POP PUSH2 0x1692 PUSH0 DUP4 ADD DUP5 PUSH2 0x1670 JUMP JUMPDEST SWAP3 SWAP2 POP POP JUMP JUMPDEST PUSH0 DUP2 SWAP1 POP SWAP2 SWAP1 POP JUMP JUMPDEST PUSH2 0x16AA DUP2 PUSH2 0x1698 JUMP JUMPDEST DUP3 MSTORE POP POP JUMP JUMPDEST PUSH0 PUSH1 0x20 DUP3 ADD SWAP1 POP PUSH2 0x16C3 PUSH0 DUP4 ADD DUP5 PUSH2 0x16A1 JUMP JUMPDEST SWAP3 SWAP2 POP POP JUMP JUMPDEST PUSH0 DUP2 SWAP1 POP SWAP2 SWAP1 POP JUMP JUMPDEST PUSH0 PUSH2 0x16EC PUSH2 0x16E7 PUSH2 0x16E2 DUP5 PUSH2 0x1393 JUMP JUMPDEST PUSH2 0x16C9 JUMP JUMPDEST PUSH2 0x1393 JUMP JUMPDEST SWAP1 POP SWAP2 SWAP1 POP JUMP JUMPDEST PUSH0 PUSH2 0x16FD DUP3 PUSH2 0x16D2 JUMP JUMPDEST SWAP1 POP SWAP2 SWAP1 POP JUMP JUMPDEST PUSH0 PUSH2 0x170E DUP3 PUSH2 0x16F3 JUMP JUMPDEST SWAP1 POP SWAP2 SWAP1 POP JUMP JUMPDEST PUSH2 0x171E DUP2 PUSH2 0x1704 JUMP JUMPDEST DUP3 MSTORE POP POP JUMP JUMPDEST PUSH0 PUSH1 0x20 DUP3 ADD SWAP1 POP PUSH2 0x1737 PUSH0 DUP4 ADD DUP5 PUSH2 0x1715 JUMP JUMPDEST SWAP3 SWAP2 POP POP JUMP JUMPDEST PUSH0 PUSH2 0x1747 DUP3 PUSH2 0x16F3 JUMP JUMPDEST SWAP1 POP SWAP2 SWAP1 POP JUMP JUMPDEST PUSH2 0x1757 DUP2 PUSH2 0x173D JUMP JUMPDEST DUP3 MSTORE POP POP JUMP JUMPDEST PUSH0 PUSH1 0x20 DUP3 ADD SWAP1 POP PUSH2 0x1770 PUSH0 DUP4 ADD DUP5 PUSH2 0x174E JUMP JUMPDEST SWAP3 SWAP2 POP POP JUMP JUMPDEST PUSH2 0x177F DUP2 PUSH2 0x1698 JUMP JUMPDEST DUP2 EQ PUSH2 0x1789 JUMPI PUSH0 PUSH0 REVERT JUMPDEST POP JUMP JUMPDEST PUSH0 DUP2 CALLDATALOAD SWAP1 POP PUSH2 0x179A DUP2 PUSH2 0x1776 JUMP JUMPDEST SWAP3 SWAP2 POP POP JUMP JUMPDEST PUSH0 PUSH1 0x20 DUP3 DUP5 SUB SLT ISZERO PUSH2 0x17B5 JUMPI PUSH2 0x17B4 PUSH2 0x138B JUMP JUMPDEST JUMPDEST PUSH0 PUSH2 0x17C2 DUP5 DUP3 DUP6 ADD PUSH2 0x178C JUMP JUMPDEST SWAP2 POP POP SWAP3 SWAP2 POP POP JUMP JUMPDEST PUSH0 PUSH2 0x17D5 DUP3 PUSH2 0x16F3 JUMP JUMPDEST SWAP1 POP SWAP2 SWAP1 POP JUMP JUMPDEST PUSH2 0x17E5 DUP2 PUSH2 0x17CB JUMP JUMPDEST DUP3 MSTORE POP POP JUMP JUMPDEST PUSH0 PUSH1 0x20 DUP3 ADD SWAP1 POP PUSH2 0x17FE PUSH0 DUP4 ADD DUP5 PUSH2 0x17DC JUMP JUMPDEST SWAP3 SWAP2 POP POP JUMP JUMPDEST PUSH0 PUSH1 0x40 DUP3 ADD SWAP1 POP PUSH2 0x1817 PUSH0 DUP4 ADD DUP6 PUSH2 0x1670 JUMP JUMPDEST PUSH2 0x1824 PUSH1 0x20 DUP4 ADD DUP5 PUSH2 0x1670 JUMP JUMPDEST SWAP4 SWAP3 POP POP POP JUMP JUMPDEST PUSH0 DUP2 MLOAD SWAP1 POP PUSH2 0x1839 DUP2 PUSH2 0x13C3 JUMP JUMPDEST SWAP3 SWAP2 POP POP JUMP JUMPDEST PUSH0 PUSH1 0x20 DUP3 DUP5 SUB SLT ISZERO PUSH2 0x1854 JUMPI PUSH2 0x1853 PUSH2 0x138B JUMP JUMPDEST JUMPDEST PUSH0 PUSH2 0x1861 DUP5 DUP3 DUP6 ADD PUSH2 0x182B JUMP JUMPDEST SWAP2 POP POP SWAP3 SWAP2 POP POP JUMP JUMPDEST PUSH0 PUSH14 0xFFFFFFFFFFFFFFFFFFFFFFFFFFFF DUP3 AND SWAP1 POP SWAP2 SWAP1 POP JUMP JUMPDEST PUSH2 0x188C DUP2 PUSH2 0x186A JUMP JUMPDEST DUP2 EQ PUSH2 0x1896 JUMPI PUSH0 PUSH0 REVERT JUMPDEST POP JUMP JUMPDEST PUSH0 DUP2 MLOAD SWAP1 POP PUSH2 0x18A7 DUP2 PUSH2 0x1883 JUMP JUMPDEST SWAP3 SWAP2 POP POP JUMP JUMPDEST PUSH0 PUSH4 0xFFFFFFFF DUP3 AND SWAP1 POP SWAP2 SWAP1 POP JUMP JUMPDEST PUSH2 0x18C5 DUP2 PUSH2 0x18AD JUMP JUMPDEST DUP2 EQ PUSH2 0x18CF JUMPI PUSH0 PUSH0 REVERT JUMPDEST POP JUMP JUMPDEST PUSH0 DUP2 MLOAD SWAP1 POP PUSH2 0x18E0 DUP2 PUSH2 0x18BC JUMP JUMPDEST SWAP3 SWAP2 POP POP JUMP JUMPDEST PUSH0 PUSH0 PUSH0 PUSH1 0x60 DUP5 DUP7 SUB SLT ISZERO PUSH2 0x18FD JUMPI PUSH2 0x18FC PUSH2 0x138B JUMP JUMPDEST JUMPDEST PUSH0 PUSH2 0x190A DUP7 DUP3 DUP8 ADD PUSH2 0x1899 JUMP JUMPDEST SWAP4 POP POP PUSH1 0x20 PUSH2 0x191B DUP7 DUP3 DUP8 ADD PUSH2 0x1899 JUMP JUMPDEST SWAP3 POP POP PUSH1 0x40 PUSH2 0x192C DUP7 DUP3 DUP8 ADD PUSH2 0x18D2 JUMP JUMPDEST SWAP2 POP POP SWAP3 POP SWAP3 POP SWAP3 JUMP JUMPDEST PUSH2 0x193F DUP2 PUSH2 0x1427 JUMP JUMPDEST DUP3 MSTORE POP POP JUMP JUMPDEST PUSH0 PUSH1 0x60 DUP3 ADD SWAP1 POP PUSH2 0x1958 PUSH0 DUP4 ADD DUP7 PUSH2 0x1670 JUMP JUMPDEST PUSH2 0x1965 PUSH1 0x20 DUP4 ADD DUP6 PUSH2 0x1670 JUMP JUMPDEST PUSH2 0x1972 PUSH1 0x40 DUP4 ADD DUP5 PUSH2 0x1936 JUMP JUMPDEST SWAP5 SWAP4 POP POP POP POP JUMP JUMPDEST PUSH0 DUP2 MLOAD SWAP1 POP PUSH2 0x1988 DUP2 PUSH2 0x1776 JUMP JUMPDEST SWAP3 SWAP2 POP POP JUMP JUMPDEST PUSH0 PUSH1 0x20 DUP3 DUP5 SUB SLT ISZERO PUSH2 0x19A3 JUMPI PUSH2 0x19A2 PUSH2 0x138B JUMP JUMPDEST JUMPDEST PUSH0 PUSH2 0x19B0 DUP5 DUP3 DUP6 ADD PUSH2 0x197A JUMP JUMPDEST SWAP2 POP POP SWAP3 SWAP2 POP POP JUMP JUMPDEST PUSH0 DUP2 MLOAD SWAP1 POP SWAP2 SWAP1 POP JUMP JUMPDEST PUSH0 DUP3 DUP3 MSTORE PUSH1 0x20 DUP3 ADD SWAP1 POP SWAP3 SWAP2 POP POP JUMP JUMPDEST DUP3 DUP2 DUP4 MCOPY PUSH0 DUP4 DUP4 ADD MSTORE POP POP POP JUMP JUMPDEST PUSH0 PUSH2 0x19EB DUP3 PUSH2 0x19B9 JUMP JUMPDEST PUSH2 0x19F5 DUP2 DUP6 PUSH2 0x19C3 JUMP JUMPDEST SWAP4 POP PUSH2 0x1A05 DUP2 DUP6 PUSH1 0x20 DUP7 ADD PUSH2 0x19D3 JUMP JUMPDEST PUSH2 0x1A0E DUP2 PUSH2 0x14F5 JUMP JUMPDEST DUP5 ADD SWAP2 POP POP SWAP3 SWAP2 POP POP JUMP JUMPDEST PUSH0 PUSH1 0x20 DUP3 ADD SWAP1 POP DUP2 DUP2 SUB PUSH0 DUP4 ADD MSTORE PUSH2 0x1A31 DUP2 DUP5 PUSH2 0x19E1 JUMP JUMPDEST SWAP1 POP SWAP3 SWAP2 POP POP JUMP JUMPDEST PUSH32 0x4E487B7100000000000000000000000000000000000000000000000000000000 PUSH0 MSTORE PUSH1 0x11 PUSH1 0x4 MSTORE PUSH1 0x24 PUSH0 REVERT JUMPDEST PUSH0 PUSH2 0x1A70 DUP3 PUSH2 0x1698 JUMP JUMPDEST SWAP2 POP PUSH2 0x1A7B DUP4 PUSH2 0x1698 JUMP JUMPDEST SWAP3 POP DUP3 DUP3 SUB SWAP1 POP DUP2 DUP2 GT ISZERO PUSH2 0x1A93 JUMPI PUSH2 0x1A92 PUSH2 0x1A39 JUMP JUMPDEST JUMPDEST SWAP3 SWAP2 POP POP JUMP JUMPDEST PUSH32 0x43616C6C6572206973206E6F7420746865206F776E6572000000000000000000 PUSH0 DUP3 ADD MSTORE POP JUMP JUMPDEST PUSH0 PUSH2 0x1ACD PUSH1 0x17 DUP4 PUSH2 0x19C3 JUMP JUMPDEST SWAP2 POP PUSH2 0x1AD8 DUP3 PUSH2 0x1A99 JUMP JUMPDEST PUSH1 0x20 DUP3 ADD SWAP1 POP SWAP2 SWAP1 POP JUMP JUMPDEST PUSH0 PUSH1 0x20 DUP3 ADD SWAP1 POP DUP2 DUP2 SUB PUSH0 DUP4 ADD MSTORE PUSH2 0x1AFA DUP2 PUSH2 0x1AC1 JUMP JUMPDEST SWAP1 POP SWAP2 SWAP1 POP JUMP JUMPDEST PUSH32 0x4469726563746F72792063616E6E6F74206265207A65726F2061646472657373 PUSH0 DUP3 ADD MSTORE POP JUMP JUMPDEST PUSH0 PUSH2 0x1B35 PUSH1 0x20 DUP4 PUSH2 0x19C3 JUMP JUMPDEST SWAP2 POP PUSH2 0x1B40 DUP3 PUSH2 0x1B01 JUMP JUMPDEST PUSH1 0x20 DUP3 ADD SWAP1 POP SWAP2 SWAP1 POP JUMP JUMPDEST PUSH0 PUSH1 0x20 DUP3 ADD SWAP1 POP DUP2 DUP2 SUB PUSH0 DUP4 ADD MSTORE PUSH2 0x1B62 DUP2 PUSH2 0x1B29 JUMP JUMPDEST SWAP1 POP SWAP2 SWAP1 POP JUMP JUMPDEST PUSH32 0x4469726563746F7279206D757374206265206120636F6E747261637400000000 PUSH0 DUP3 ADD MSTORE POP JUMP JUMPDEST PUSH0 PUSH2 0x1B9D PUSH1 0x1C DUP4 PUSH2 0x19C3 JUMP JUMPDEST SWAP2 POP PUSH2 0x1BA8 DUP3 PUSH2 0x1B69 JUMP JUMPDEST PUSH1 0x20 DUP3 ADD SWAP1 POP SWAP2 SWAP1 POP JUMP JUMPDEST PUSH0 PUSH1 0x20 DUP3 ADD SWAP1 POP DUP2 DUP2 SUB PUSH0 DUP4 ADD MSTORE PUSH2 0x1BCA DUP2 PUSH2 0x1B91 JUMP JUMPDEST SWAP1 POP SWAP2 SWAP1 POP JUMP JUMPDEST PUSH32 0x4469726563746F7279206164647265737320646F6573206E6F7420696D706C65 PUSH0 DUP3 ADD MSTORE PUSH32 0x6D656E74206F776E657228290000000000000000000000000000000000000000 PUSH1 0x20 DUP3 ADD MSTORE POP JUMP JUMPDEST PUSH0 PUSH2 0x1C2B PUSH1 0x2C DUP4 PUSH2 0x19C3 JUMP JUMPDEST SWAP2 POP PUSH2 0x1C36 DUP3 PUSH2 0x1BD1 JUMP JUMPDEST PUSH1 0x40 DUP3 ADD SWAP1 POP SWAP2 SWAP1 POP JUMP JUMPDEST PUSH0 PUSH1 0x20 DUP3 ADD SWAP1 POP DUP2 DUP2 SUB PUSH0 DUP4 ADD MSTORE PUSH2 0x1C58 DUP2 PUSH2 0x1C1F JUMP JUMPDEST SWAP1 POP SWAP2 SWAP1 POP JUMP INVALID LOG2 PUSH5 0x6970667358 0x22 SLT KECCAK256 PUSH6 0x820AA0EEADCB 0xBE BASEFEE MSTORE8 0x2D SELFDESTRUCT 0xBA MLOAD DUP4 0xAB RETURN 0xC6 MLOAD 0xBD 0xB7 CALL 0xCD EXP 0xEA 0xEB 0xDA 0xC7 SWAP10 0xBC 0x2B PUSH14 0x64736F6C634300081E0033000000 "
				},
				"gasEstimates": {
					"creation": {
						"codeDepositCost": "1463400",
						"executionCost": "infinite",
						"totalCost": "infinite"
					},
					"external": {
						"Directory()": "infinite",
						"changeDirectoryAddress(address)": "infinite",
						"fetchFromDirectory(string)": "infinite",
						"findBestWethPool(address)": "infinite",
						"getBestWethPool(address)": "infinite",
						"getBestWethPoolAndUpdateIfStale(address)": "infinite",
						"owner()": "infinite",
						"setStaleTimePoolCache(uint256)": "infinite",
						"staleTime()": "2470",
						"v2Factory()": "infinite",
						"v3Factory()": "infinite",
						"wethAddress()": "infinite"
					}
				},
				"methodIdentifiers": {
					"Directory()": "658a847a",
					"changeDirectoryAddress(address)": "ba4c7be1",
					"fetchFromDirectory(string)": "27262618",
					"findBestWethPool(address)": "03d43001",
					"getBestWethPool(address)": "df697cc4",
					"getBestWethPoolAndUpdateIfStale(address)": "6425f09e",
					"owner()": "8da5cb5b",
					"setStaleTimePoolCache(uint256)": "a7590163",
					"staleTime()": "38b88052",
					"v2Factory()": "b4b57c39",
					"v3Factory()": "7c887c59",
					"wethAddress()": "4f0e0ef3"
				}
			},
			"storageLayout": {
				"storage": [
					{
						"astId": 18,
						"contract": "hopium/uniswap/main/pool-finder.sol:PoolFinder",
						"label": "Directory",
						"offset": 0,
						"slot": "0",
						"type": "t_contract(IDirectory)15"
					},
					{
						"astId": 260,
						"contract": "hopium/uniswap/main/pool-finder.sol:PoolFinder",
						"label": "cachedPools",
						"offset": 0,
						"slot": "1",
						"type": "t_mapping(t_address,t_struct(Pool)610_storage)"
					},
					{
						"astId": 272,
						"contract": "hopium/uniswap/main/pool-finder.sol:PoolFinder",
						"label": "staleTime",
						"offset": 0,
						"slot": "2",
						"type": "t_uint256"
					}
				],
				"types": {
					"t_address": {
						"encoding": "inplace",
						"label": "address",
						"numberOfBytes": "20"
					},
					"t_contract(IDirectory)15": {
						"encoding": "inplace",
						"label": "contract IDirectory",
						"numberOfBytes": "20"
					},
					"t_mapping(t_address,t_struct(Pool)610_storage)": {
						"encoding": "mapping",
						"key": "t_address",
						"label": "mapping(address => struct Pool)",
						"numberOfBytes": "32",
						"value": "t_struct(Pool)610_storage"
					},
					"t_struct(Pool)610_storage": {
						"encoding": "inplace",
						"label": "struct Pool",
						"members": [
							{
								"astId": 603,
								"contract": "hopium/uniswap/main/pool-finder.sol:PoolFinder",
								"label": "poolAddress",
								"offset": 0,
								"slot": "0",
								"type": "t_address"
							},
							{
								"astId": 605,
								"contract": "hopium/uniswap/main/pool-finder.sol:PoolFinder",
								"label": "poolFee",
								"offset": 20,
								"slot": "0",
								"type": "t_uint24"
							},
							{
								"astId": 607,
								"contract": "hopium/uniswap/main/pool-finder.sol:PoolFinder",
								"label": "isV3Pool",
								"offset": 23,
								"slot": "0",
								"type": "t_uint8"
							},
							{
								"astId": 609,
								"contract": "hopium/uniswap/main/pool-finder.sol:PoolFinder",
								"label": "lastCached",
								"offset": 24,
								"slot": "0",
								"type": "t_uint64"
							}
						],
						"numberOfBytes": "32"
					},
					"t_uint24": {
						"encoding": "inplace",
						"label": "uint24",
						"numberOfBytes": "3"
					},
					"t_uint256": {
						"encoding": "inplace",
						"label": "uint256",
						"numberOfBytes": "32"
					},
					"t_uint64": {
						"encoding": "inplace",
						"label": "uint64",
						"numberOfBytes": "8"
					},
					"t_uint8": {
						"encoding": "inplace",
						"label": "uint8",
						"numberOfBytes": "1"
					}
				}
			},
			"userdoc": {
				"kind": "user",
				"methods": {},
				"version": 1
			}
		}
	}
}