{
	"hopium/etf/main/etf-oracle.sol": {
		"EtfOracle": {
			"abi": [
				{
					"inputs": [
						{
							"internalType": "address",
							"name": "_directory",
							"type": "address"
						}
					],
					"stateMutability": "nonpayable",
					"type": "constructor"
				},
				{
					"inputs": [],
					"name": "Directory",
					"outputs": [
						{
							"internalType": "contract IDirectory",
							"name": "",
							"type": "address"
						}
					],
					"stateMutability": "view",
					"type": "function"
				},
				{
					"inputs": [
						{
							"internalType": "address",
							"name": "_directory",
							"type": "address"
						}
					],
					"name": "changeDirectoryAddress",
					"outputs": [],
					"stateMutability": "nonpayable",
					"type": "function"
				},
				{
					"inputs": [
						{
							"internalType": "string",
							"name": "_key",
							"type": "string"
						}
					],
					"name": "fetchFromDirectory",
					"outputs": [
						{
							"internalType": "address",
							"name": "",
							"type": "address"
						}
					],
					"stateMutability": "view",
					"type": "function"
				},
				{
					"inputs": [
						{
							"internalType": "uint256",
							"name": "etfId",
							"type": "uint256"
						}
					],
					"name": "getEtfPrice",
					"outputs": [
						{
							"internalType": "uint256",
							"name": "wethPrice18",
							"type": "uint256"
						},
						{
							"internalType": "uint256",
							"name": "usdPrice18",
							"type": "uint256"
						}
					],
					"stateMutability": "view",
					"type": "function"
				},
				{
					"inputs": [
						{
							"internalType": "uint256",
							"name": "etfId",
							"type": "uint256"
						}
					],
					"name": "getEtfStats",
					"outputs": [
						{
							"components": [
								{
									"internalType": "uint256",
									"name": "assetsLiquidityUsd",
									"type": "uint256"
								},
								{
									"internalType": "uint256",
									"name": "assetsMcapUsd",
									"type": "uint256"
								}
							],
							"internalType": "struct EtfStats.Stats",
							"name": "s",
							"type": "tuple"
						}
					],
					"stateMutability": "view",
					"type": "function"
				},
				{
					"inputs": [
						{
							"internalType": "uint256",
							"name": "etfId",
							"type": "uint256"
						}
					],
					"name": "getEtfUsdPrice",
					"outputs": [
						{
							"internalType": "uint256",
							"name": "",
							"type": "uint256"
						}
					],
					"stateMutability": "view",
					"type": "function"
				},
				{
					"inputs": [
						{
							"internalType": "uint256",
							"name": "etfId",
							"type": "uint256"
						}
					],
					"name": "getEtfWethPrice",
					"outputs": [
						{
							"internalType": "uint256",
							"name": "",
							"type": "uint256"
						}
					],
					"stateMutability": "view",
					"type": "function"
				},
				{
					"inputs": [],
					"name": "owner",
					"outputs": [
						{
							"internalType": "address",
							"name": "",
							"type": "address"
						}
					],
					"stateMutability": "view",
					"type": "function"
				},
				{
					"inputs": [
						{
							"internalType": "uint256",
							"name": "etfId",
							"type": "uint256"
						}
					],
					"name": "snapshotVault",
					"outputs": [
						{
							"components": [
								{
									"internalType": "address",
									"name": "tokenAddress",
									"type": "address"
								},
								{
									"internalType": "uint8",
									"name": "tokenDecimals",
									"type": "uint8"
								},
								{
									"internalType": "uint16",
									"name": "currentWeight",
									"type": "uint16"
								},
								{
									"internalType": "uint256",
									"name": "tokenRawBalance",
									"type": "uint256"
								},
								{
									"internalType": "uint256",
									"name": "tokenPriceWeth18",
									"type": "uint256"
								},
								{
									"internalType": "uint256",
									"name": "tokenValueWeth18",
									"type": "uint256"
								}
							],
							"internalType": "struct Snapshot[]",
							"name": "s",
							"type": "tuple[]"
						},
						{
							"internalType": "uint256",
							"name": "etfTvlWeth",
							"type": "uint256"
						}
					],
					"stateMutability": "view",
					"type": "function"
				},
				{
					"inputs": [
						{
							"components": [
								{
									"internalType": "string",
									"name": "name",
									"type": "string"
								},
								{
									"internalType": "string",
									"name": "ticker",
									"type": "string"
								},
								{
									"components": [
										{
											"internalType": "address",
											"name": "tokenAddress",
											"type": "address"
										},
										{
											"internalType": "uint16",
											"name": "weightBips",
											"type": "uint16"
										}
									],
									"internalType": "struct Asset[]",
									"name": "assets",
									"type": "tuple[]"
								}
							],
							"internalType": "struct Etf",
							"name": "etf",
							"type": "tuple"
						},
						{
							"internalType": "address",
							"name": "vaultAddress",
							"type": "address"
						}
					],
					"name": "snapshotVaultUnchecked",
					"outputs": [
						{
							"components": [
								{
									"internalType": "address",
									"name": "tokenAddress",
									"type": "address"
								},
								{
									"internalType": "uint8",
									"name": "tokenDecimals",
									"type": "uint8"
								},
								{
									"internalType": "uint16",
									"name": "currentWeight",
									"type": "uint16"
								},
								{
									"internalType": "uint256",
									"name": "tokenRawBalance",
									"type": "uint256"
								},
								{
									"internalType": "uint256",
									"name": "tokenPriceWeth18",
									"type": "uint256"
								},
								{
									"internalType": "uint256",
									"name": "tokenValueWeth18",
									"type": "uint256"
								}
							],
							"internalType": "struct Snapshot[]",
							"name": "s",
							"type": "tuple[]"
						},
						{
							"internalType": "uint256",
							"name": "etfTvlWeth",
							"type": "uint256"
						}
					],
					"stateMutability": "view",
					"type": "function"
				},
				{
					"inputs": [
						{
							"internalType": "uint256",
							"name": "etfId",
							"type": "uint256"
						}
					],
					"name": "snapshotVaultWithUsd",
					"outputs": [
						{
							"components": [
								{
									"internalType": "address",
									"name": "tokenAddress",
									"type": "address"
								},
								{
									"internalType": "uint8",
									"name": "tokenDecimals",
									"type": "uint8"
								},
								{
									"internalType": "uint16",
									"name": "currentWeight",
									"type": "uint16"
								},
								{
									"internalType": "uint256",
									"name": "tokenRawBalance",
									"type": "uint256"
								},
								{
									"internalType": "uint256",
									"name": "tokenPriceWeth18",
									"type": "uint256"
								},
								{
									"internalType": "uint256",
									"name": "tokenPriceUsd18",
									"type": "uint256"
								},
								{
									"internalType": "uint256",
									"name": "tokenValueWeth18",
									"type": "uint256"
								},
								{
									"internalType": "uint256",
									"name": "tokenValueUsd18",
									"type": "uint256"
								}
							],
							"internalType": "struct SnapshotWithUsd[]",
							"name": "s",
							"type": "tuple[]"
						},
						{
							"internalType": "uint256",
							"name": "etfTvlWeth",
							"type": "uint256"
						},
						{
							"internalType": "uint256",
							"name": "etfTvlUsd",
							"type": "uint256"
						}
					],
					"stateMutability": "view",
					"type": "function"
				}
			],
			"devdoc": {
				"kind": "dev",
				"methods": {
					"getEtfUsdPrice(uint256)": {
						"details": "Uses the internal _convertWethToUsd helper for conversion."
					}
				},
				"version": 1
			},
			"evm": {
				"assembly": "    /* \"hopium/etf/main/etf-oracle.sol\":9121:11228  contract EtfOracle is ImDirectory, PriceHelpers, EtfStats {... */\n  mstore(0x40, 0x80)\n    /* \"hopium/etf/main/etf-oracle.sol\":9186:9244  constructor(address _directory) ImDirectory(_directory) {} */\n  callvalue\n  dup1\n  iszero\n  tag_1\n  jumpi\n  revert(0x00, 0x00)\ntag_1:\n  pop\n  mload(0x40)\n  sub(codesize, bytecodeSize)\n  dup1\n  bytecodeSize\n  dup4\n  codecopy\n  dup2\n  dup2\n  add\n  0x40\n  mstore\n  dup2\n  add\n  swap1\n  tag_2\n  swap2\n  swap1\n  tag_3\n  jump\t// in\ntag_2:\n    /* \"hopium/etf/main/etf-oracle.sol\":9230:9240  _directory */\n  dup1\n    /* \"hopium/common/interface/imDirectory.sol\":412:437  _setDirectory(_directory) */\n  tag_7\n    /* \"hopium/common/interface/imDirectory.sol\":426:436  _directory */\n  dup2\n    /* \"hopium/common/interface/imDirectory.sol\":412:425  _setDirectory */\n  shl(0x20, tag_8)\n    /* \"hopium/common/interface/imDirectory.sol\":412:437  _setDirectory(_directory) */\n  0x20\n  shr\n  jump\t// in\ntag_7:\n    /* \"hopium/common/interface/imDirectory.sol\":370:464  constructor(address _directory) {... */\n  pop\n    /* \"hopium/etf/main/etf-oracle.sol\":9186:9244  constructor(address _directory) ImDirectory(_directory) {} */\n  pop\n    /* \"hopium/etf/main/etf-oracle.sol\":9121:11228  contract EtfOracle is ImDirectory, PriceHelpers, EtfStats {... */\n  jump(tag_10)\n    /* \"hopium/common/interface/imDirectory.sol\":589:1050  function _setDirectory(address _directory) internal {... */\ntag_8:\n    /* \"hopium/common/interface/imDirectory.sol\":681:682  0 */\n  0x00\n    /* \"hopium/common/interface/imDirectory.sol\":659:683  _directory != address(0) */\n  0xffffffffffffffffffffffffffffffffffffffff\n  and\n    /* \"hopium/common/interface/imDirectory.sol\":659:669  _directory */\n  dup2\n    /* \"hopium/common/interface/imDirectory.sol\":659:683  _directory != address(0) */\n  0xffffffffffffffffffffffffffffffffffffffff\n  and\n  sub\n    /* \"hopium/common/interface/imDirectory.sol\":651:720  require(_directory != address(0), \"Directory cannot be zero address\") */\n  tag_12\n  jumpi\n  mload(0x40)\n  0x08c379a000000000000000000000000000000000000000000000000000000000\n  dup2\n  mstore\n  0x04\n  add\n  tag_13\n  swap1\n  tag_14\n  jump\t// in\ntag_13:\n  mload(0x40)\n  dup1\n  swap2\n  sub\n  swap1\n  revert\ntag_12:\n    /* \"hopium/common/interface/imDirectory.sol\":763:764  0 */\n  0x00\n    /* \"hopium/common/interface/imDirectory.sol\":738:748  _directory */\n  dup2\n    /* \"hopium/common/interface/imDirectory.sol\":738:760  _directory.code.length */\n  0xffffffffffffffffffffffffffffffffffffffff\n  and\n  extcodesize\n    /* \"hopium/common/interface/imDirectory.sol\":738:764  _directory.code.length > 0 */\n  gt\n    /* \"hopium/common/interface/imDirectory.sol\":730:797  require(_directory.code.length > 0, \"Directory must be a contract\") */\n  tag_15\n  jumpi\n  mload(0x40)\n  0x08c379a000000000000000000000000000000000000000000000000000000000\n  dup2\n  mstore\n  0x04\n  add\n  tag_16\n  swap1\n  tag_17\n  jump\t// in\ntag_16:\n  mload(0x40)\n  dup1\n  swap2\n  sub\n  swap1\n  revert\ntag_15:\n    /* \"hopium/common/interface/imDirectory.sol\":861:871  _directory */\n  dup1\n    /* \"hopium/common/interface/imDirectory.sol\":850:878  IDirectory(_directory).owner */\n  0xffffffffffffffffffffffffffffffffffffffff\n  and\n  0x8da5cb5b\n    /* \"hopium/common/interface/imDirectory.sol\":850:880  IDirectory(_directory).owner() */\n  mload(0x40)\n  dup2\n  0xffffffff\n  and\n  0xe0\n  shl\n  dup2\n  mstore\n  0x04\n  add\n  0x20\n  mload(0x40)\n  dup1\n  dup4\n  sub\n  dup2\n  dup7\n  gas\n  staticcall\n  swap3\n  pop\n  pop\n  pop\n  dup1\n  iszero\n  tag_18\n  jumpi\n  pop\n  mload(0x40)\n  returndatasize\n  not(0x1f)\n  0x1f\n  dup3\n  add\n  and\n  dup3\n  add\n  dup1\n  0x40\n  mstore\n  pop\n  dup2\n  add\n  swap1\n  tag_19\n  swap2\n  swap1\n  tag_3\n  jump\t// in\ntag_19:\n  0x01\ntag_18:\n    /* \"hopium/common/interface/imDirectory.sol\":846:1044  try IDirectory(_directory).owner() returns (address) {... */\n  tag_20\n  jumpi\n    /* \"hopium/common/interface/imDirectory.sol\":979:1033  revert(\"Directory address does not implement owner()\") */\n  mload(0x40)\n  0x08c379a000000000000000000000000000000000000000000000000000000000\n  dup2\n  mstore\n  0x04\n  add\n  tag_24\n  swap1\n  tag_25\n  jump\t// in\ntag_24:\n  mload(0x40)\n  dup1\n  swap2\n  sub\n  swap1\n  revert\n    /* \"hopium/common/interface/imDirectory.sol\":846:1044  try IDirectory(_directory).owner() returns (address) {... */\ntag_20:\n    /* \"hopium/common/interface/imDirectory.sol\":936:946  _directory */\n  dup2\n    /* \"hopium/common/interface/imDirectory.sol\":913:922  Directory */\n  0x00\n  0x00\n    /* \"hopium/common/interface/imDirectory.sol\":913:947  Directory = IDirectory(_directory) */\n  0x0100\n  exp\n  dup2\n  sload\n  dup2\n  0xffffffffffffffffffffffffffffffffffffffff\n  mul\n  not\n  and\n  swap1\n  dup4\n  0xffffffffffffffffffffffffffffffffffffffff\n  and\n  mul\n  or\n  swap1\n  sstore\n  pop\n    /* \"hopium/common/interface/imDirectory.sol\":881:958  returns (address) {... */\n  pop\n    /* \"hopium/common/interface/imDirectory.sol\":589:1050  function _setDirectory(address _directory) internal {... */\n  pop\n  jump\t// out\n    /* \"#utility.yul\":88:205   */\ntag_28:\n    /* \"#utility.yul\":197:198   */\n  0x00\n    /* \"#utility.yul\":194:195   */\n  0x00\n    /* \"#utility.yul\":187:199   */\n  revert\n    /* \"#utility.yul\":334:460   */\ntag_30:\n    /* \"#utility.yul\":371:378   */\n  0x00\n    /* \"#utility.yul\":411:453   */\n  0xffffffffffffffffffffffffffffffffffffffff\n    /* \"#utility.yul\":404:409   */\n  dup3\n    /* \"#utility.yul\":400:454   */\n  and\n    /* \"#utility.yul\":389:454   */\n  swap1\n  pop\n    /* \"#utility.yul\":334:460   */\n  swap2\n  swap1\n  pop\n  jump\t// out\n    /* \"#utility.yul\":466:562   */\ntag_31:\n    /* \"#utility.yul\":503:510   */\n  0x00\n    /* \"#utility.yul\":532:556   */\n  tag_47\n    /* \"#utility.yul\":550:555   */\n  dup3\n    /* \"#utility.yul\":532:556   */\n  tag_30\n  jump\t// in\ntag_47:\n    /* \"#utility.yul\":521:556   */\n  swap1\n  pop\n    /* \"#utility.yul\":466:562   */\n  swap2\n  swap1\n  pop\n  jump\t// out\n    /* \"#utility.yul\":568:690   */\ntag_32:\n    /* \"#utility.yul\":641:665   */\n  tag_49\n    /* \"#utility.yul\":659:664   */\n  dup2\n    /* \"#utility.yul\":641:665   */\n  tag_31\n  jump\t// in\ntag_49:\n    /* \"#utility.yul\":634:639   */\n  dup2\n    /* \"#utility.yul\":631:666   */\n  eq\n    /* \"#utility.yul\":621:684   */\n  tag_50\n  jumpi\n    /* \"#utility.yul\":680:681   */\n  0x00\n    /* \"#utility.yul\":677:678   */\n  0x00\n    /* \"#utility.yul\":670:682   */\n  revert\n    /* \"#utility.yul\":621:684   */\ntag_50:\n    /* \"#utility.yul\":568:690   */\n  pop\n  jump\t// out\n    /* \"#utility.yul\":696:839   */\ntag_33:\n    /* \"#utility.yul\":753:758   */\n  0x00\n    /* \"#utility.yul\":784:790   */\n  dup2\n    /* \"#utility.yul\":778:791   */\n  mload\n    /* \"#utility.yul\":769:791   */\n  swap1\n  pop\n    /* \"#utility.yul\":800:833   */\n  tag_52\n    /* \"#utility.yul\":827:832   */\n  dup2\n    /* \"#utility.yul\":800:833   */\n  tag_32\n  jump\t// in\ntag_52:\n    /* \"#utility.yul\":696:839   */\n  swap3\n  swap2\n  pop\n  pop\n  jump\t// out\n    /* \"#utility.yul\":845:1196   */\ntag_3:\n    /* \"#utility.yul\":915:921   */\n  0x00\n    /* \"#utility.yul\":964:966   */\n  0x20\n    /* \"#utility.yul\":952:961   */\n  dup3\n    /* \"#utility.yul\":943:950   */\n  dup5\n    /* \"#utility.yul\":939:962   */\n  sub\n    /* \"#utility.yul\":935:967   */\n  slt\n    /* \"#utility.yul\":932:1051   */\n  iszero\n  tag_54\n  jumpi\n    /* \"#utility.yul\":970:1049   */\n  tag_55\n  tag_28\n  jump\t// in\ntag_55:\n    /* \"#utility.yul\":932:1051   */\ntag_54:\n    /* \"#utility.yul\":1090:1091   */\n  0x00\n    /* \"#utility.yul\":1115:1179   */\n  tag_56\n    /* \"#utility.yul\":1171:1178   */\n  dup5\n    /* \"#utility.yul\":1162:1168   */\n  dup3\n    /* \"#utility.yul\":1151:1160   */\n  dup6\n    /* \"#utility.yul\":1147:1169   */\n  add\n    /* \"#utility.yul\":1115:1179   */\n  tag_33\n  jump\t// in\ntag_56:\n    /* \"#utility.yul\":1105:1179   */\n  swap2\n  pop\n    /* \"#utility.yul\":1061:1189   */\n  pop\n    /* \"#utility.yul\":845:1196   */\n  swap3\n  swap2\n  pop\n  pop\n  jump\t// out\n    /* \"#utility.yul\":1202:1371   */\ntag_34:\n    /* \"#utility.yul\":1286:1297   */\n  0x00\n    /* \"#utility.yul\":1320:1326   */\n  dup3\n    /* \"#utility.yul\":1315:1318   */\n  dup3\n    /* \"#utility.yul\":1308:1327   */\n  mstore\n    /* \"#utility.yul\":1360:1364   */\n  0x20\n    /* \"#utility.yul\":1355:1358   */\n  dup3\n    /* \"#utility.yul\":1351:1365   */\n  add\n    /* \"#utility.yul\":1336:1365   */\n  swap1\n  pop\n    /* \"#utility.yul\":1202:1371   */\n  swap3\n  swap2\n  pop\n  pop\n  jump\t// out\n    /* \"#utility.yul\":1377:1559   */\ntag_35:\n    /* \"#utility.yul\":1517:1551   */\n  0x4469726563746f72792063616e6e6f74206265207a65726f2061646472657373\n    /* \"#utility.yul\":1513:1514   */\n  0x00\n    /* \"#utility.yul\":1505:1511   */\n  dup3\n    /* \"#utility.yul\":1501:1515   */\n  add\n    /* \"#utility.yul\":1494:1552   */\n  mstore\n    /* \"#utility.yul\":1377:1559   */\n  pop\n  jump\t// out\n    /* \"#utility.yul\":1565:1931   */\ntag_36:\n    /* \"#utility.yul\":1707:1710   */\n  0x00\n    /* \"#utility.yul\":1728:1795   */\n  tag_60\n    /* \"#utility.yul\":1792:1794   */\n  0x20\n    /* \"#utility.yul\":1787:1790   */\n  dup4\n    /* \"#utility.yul\":1728:1795   */\n  tag_34\n  jump\t// in\ntag_60:\n    /* \"#utility.yul\":1721:1795   */\n  swap2\n  pop\n    /* \"#utility.yul\":1804:1897   */\n  tag_61\n    /* \"#utility.yul\":1893:1896   */\n  dup3\n    /* \"#utility.yul\":1804:1897   */\n  tag_35\n  jump\t// in\ntag_61:\n    /* \"#utility.yul\":1922:1924   */\n  0x20\n    /* \"#utility.yul\":1917:1920   */\n  dup3\n    /* \"#utility.yul\":1913:1925   */\n  add\n    /* \"#utility.yul\":1906:1925   */\n  swap1\n  pop\n    /* \"#utility.yul\":1565:1931   */\n  swap2\n  swap1\n  pop\n  jump\t// out\n    /* \"#utility.yul\":1937:2356   */\ntag_14:\n    /* \"#utility.yul\":2103:2107   */\n  0x00\n    /* \"#utility.yul\":2141:2143   */\n  0x20\n    /* \"#utility.yul\":2130:2139   */\n  dup3\n    /* \"#utility.yul\":2126:2144   */\n  add\n    /* \"#utility.yul\":2118:2144   */\n  swap1\n  pop\n    /* \"#utility.yul\":2190:2199   */\n  dup2\n    /* \"#utility.yul\":2184:2188   */\n  dup2\n    /* \"#utility.yul\":2180:2200   */\n  sub\n    /* \"#utility.yul\":2176:2177   */\n  0x00\n    /* \"#utility.yul\":2165:2174   */\n  dup4\n    /* \"#utility.yul\":2161:2178   */\n  add\n    /* \"#utility.yul\":2154:2201   */\n  mstore\n    /* \"#utility.yul\":2218:2349   */\n  tag_63\n    /* \"#utility.yul\":2344:2348   */\n  dup2\n    /* \"#utility.yul\":2218:2349   */\n  tag_36\n  jump\t// in\ntag_63:\n    /* \"#utility.yul\":2210:2349   */\n  swap1\n  pop\n    /* \"#utility.yul\":1937:2356   */\n  swap2\n  swap1\n  pop\n  jump\t// out\n    /* \"#utility.yul\":2362:2540   */\ntag_37:\n    /* \"#utility.yul\":2502:2532   */\n  0x4469726563746f7279206d757374206265206120636f6e747261637400000000\n    /* \"#utility.yul\":2498:2499   */\n  0x00\n    /* \"#utility.yul\":2490:2496   */\n  dup3\n    /* \"#utility.yul\":2486:2500   */\n  add\n    /* \"#utility.yul\":2479:2533   */\n  mstore\n    /* \"#utility.yul\":2362:2540   */\n  pop\n  jump\t// out\n    /* \"#utility.yul\":2546:2912   */\ntag_38:\n    /* \"#utility.yul\":2688:2691   */\n  0x00\n    /* \"#utility.yul\":2709:2776   */\n  tag_66\n    /* \"#utility.yul\":2773:2775   */\n  0x1c\n    /* \"#utility.yul\":2768:2771   */\n  dup4\n    /* \"#utility.yul\":2709:2776   */\n  tag_34\n  jump\t// in\ntag_66:\n    /* \"#utility.yul\":2702:2776   */\n  swap2\n  pop\n    /* \"#utility.yul\":2785:2878   */\n  tag_67\n    /* \"#utility.yul\":2874:2877   */\n  dup3\n    /* \"#utility.yul\":2785:2878   */\n  tag_37\n  jump\t// in\ntag_67:\n    /* \"#utility.yul\":2903:2905   */\n  0x20\n    /* \"#utility.yul\":2898:2901   */\n  dup3\n    /* \"#utility.yul\":2894:2906   */\n  add\n    /* \"#utility.yul\":2887:2906   */\n  swap1\n  pop\n    /* \"#utility.yul\":2546:2912   */\n  swap2\n  swap1\n  pop\n  jump\t// out\n    /* \"#utility.yul\":2918:3337   */\ntag_17:\n    /* \"#utility.yul\":3084:3088   */\n  0x00\n    /* \"#utility.yul\":3122:3124   */\n  0x20\n    /* \"#utility.yul\":3111:3120   */\n  dup3\n    /* \"#utility.yul\":3107:3125   */\n  add\n    /* \"#utility.yul\":3099:3125   */\n  swap1\n  pop\n    /* \"#utility.yul\":3171:3180   */\n  dup2\n    /* \"#utility.yul\":3165:3169   */\n  dup2\n    /* \"#utility.yul\":3161:3181   */\n  sub\n    /* \"#utility.yul\":3157:3158   */\n  0x00\n    /* \"#utility.yul\":3146:3155   */\n  dup4\n    /* \"#utility.yul\":3142:3159   */\n  add\n    /* \"#utility.yul\":3135:3182   */\n  mstore\n    /* \"#utility.yul\":3199:3330   */\n  tag_69\n    /* \"#utility.yul\":3325:3329   */\n  dup2\n    /* \"#utility.yul\":3199:3330   */\n  tag_38\n  jump\t// in\ntag_69:\n    /* \"#utility.yul\":3191:3330   */\n  swap1\n  pop\n    /* \"#utility.yul\":2918:3337   */\n  swap2\n  swap1\n  pop\n  jump\t// out\n    /* \"#utility.yul\":3343:3574   */\ntag_39:\n    /* \"#utility.yul\":3483:3517   */\n  0x4469726563746f7279206164647265737320646f6573206e6f7420696d706c65\n    /* \"#utility.yul\":3479:3480   */\n  0x00\n    /* \"#utility.yul\":3471:3477   */\n  dup3\n    /* \"#utility.yul\":3467:3481   */\n  add\n    /* \"#utility.yul\":3460:3518   */\n  mstore\n    /* \"#utility.yul\":3552:3566   */\n  0x6d656e74206f776e657228290000000000000000000000000000000000000000\n    /* \"#utility.yul\":3547:3549   */\n  0x20\n    /* \"#utility.yul\":3539:3545   */\n  dup3\n    /* \"#utility.yul\":3535:3550   */\n  add\n    /* \"#utility.yul\":3528:3567   */\n  mstore\n    /* \"#utility.yul\":3343:3574   */\n  pop\n  jump\t// out\n    /* \"#utility.yul\":3580:3946   */\ntag_40:\n    /* \"#utility.yul\":3722:3725   */\n  0x00\n    /* \"#utility.yul\":3743:3810   */\n  tag_72\n    /* \"#utility.yul\":3807:3809   */\n  0x2c\n    /* \"#utility.yul\":3802:3805   */\n  dup4\n    /* \"#utility.yul\":3743:3810   */\n  tag_34\n  jump\t// in\ntag_72:\n    /* \"#utility.yul\":3736:3810   */\n  swap2\n  pop\n    /* \"#utility.yul\":3819:3912   */\n  tag_73\n    /* \"#utility.yul\":3908:3911   */\n  dup3\n    /* \"#utility.yul\":3819:3912   */\n  tag_39\n  jump\t// in\ntag_73:\n    /* \"#utility.yul\":3937:3939   */\n  0x40\n    /* \"#utility.yul\":3932:3935   */\n  dup3\n    /* \"#utility.yul\":3928:3940   */\n  add\n    /* \"#utility.yul\":3921:3940   */\n  swap1\n  pop\n    /* \"#utility.yul\":3580:3946   */\n  swap2\n  swap1\n  pop\n  jump\t// out\n    /* \"#utility.yul\":3952:4371   */\ntag_25:\n    /* \"#utility.yul\":4118:4122   */\n  0x00\n    /* \"#utility.yul\":4156:4158   */\n  0x20\n    /* \"#utility.yul\":4145:4154   */\n  dup3\n    /* \"#utility.yul\":4141:4159   */\n  add\n    /* \"#utility.yul\":4133:4159   */\n  swap1\n  pop\n    /* \"#utility.yul\":4205:4214   */\n  dup2\n    /* \"#utility.yul\":4199:4203   */\n  dup2\n    /* \"#utility.yul\":4195:4215   */\n  sub\n    /* \"#utility.yul\":4191:4192   */\n  0x00\n    /* \"#utility.yul\":4180:4189   */\n  dup4\n    /* \"#utility.yul\":4176:4193   */\n  add\n    /* \"#utility.yul\":4169:4216   */\n  mstore\n    /* \"#utility.yul\":4233:4364   */\n  tag_75\n    /* \"#utility.yul\":4359:4363   */\n  dup2\n    /* \"#utility.yul\":4233:4364   */\n  tag_40\n  jump\t// in\ntag_75:\n    /* \"#utility.yul\":4225:4364   */\n  swap1\n  pop\n    /* \"#utility.yul\":3952:4371   */\n  swap2\n  swap1\n  pop\n  jump\t// out\n    /* \"hopium/etf/main/etf-oracle.sol\":9121:11228  contract EtfOracle is ImDirectory, PriceHelpers, EtfStats {... */\ntag_10:\n  dataSize(sub_0)\n  dup1\n  dataOffset(sub_0)\n  0x00\n  codecopy\n  0x00\n  return\nstop\n\nsub_0: assembly {\n        /* \"hopium/etf/main/etf-oracle.sol\":9121:11228  contract EtfOracle is ImDirectory, PriceHelpers, EtfStats {... */\n      mstore(0x40, 0x80)\n      callvalue\n      dup1\n      iszero\n      tag_1\n      jumpi\n      revert(0x00, 0x00)\n    tag_1:\n      pop\n      jumpi(tag_2, lt(calldatasize, 0x04))\n      shr(0xe0, calldataload(0x00))\n      dup1\n      0x79de9e82\n      gt\n      tag_14\n      jumpi\n      dup1\n      0x79de9e82\n      eq\n      tag_8\n      jumpi\n      dup1\n      0x812efc8e\n      eq\n      tag_9\n      jumpi\n      dup1\n      0x8da5cb5b\n      eq\n      tag_10\n      jumpi\n      dup1\n      0xba4c7be1\n      eq\n      tag_11\n      jumpi\n      dup1\n      0xcd8d334f\n      eq\n      tag_12\n      jumpi\n      dup1\n      0xee0d96c5\n      eq\n      tag_13\n      jumpi\n      jump(tag_2)\n    tag_14:\n      dup1\n      0x0705a3e8\n      eq\n      tag_3\n      jumpi\n      dup1\n      0x13290a89\n      eq\n      tag_4\n      jumpi\n      dup1\n      0x179b8f97\n      eq\n      tag_5\n      jumpi\n      dup1\n      0x27262618\n      eq\n      tag_6\n      jumpi\n      dup1\n      0x658a847a\n      eq\n      tag_7\n      jumpi\n    tag_2:\n      revert(0x00, 0x00)\n        /* \"hopium/etf/main/etf-oracle.sol\":9673:9970  function getEtfUsdPrice(uint256 etfId) external view returns (uint256) {... */\n    tag_3:\n      tag_15\n      0x04\n      dup1\n      calldatasize\n      sub\n      dup2\n      add\n      swap1\n      tag_16\n      swap2\n      swap1\n      tag_17\n      jump\t// in\n    tag_16:\n      tag_18\n      jump\t// in\n    tag_15:\n      mload(0x40)\n      tag_19\n      swap2\n      swap1\n      tag_20\n      jump\t// in\n    tag_19:\n      mload(0x40)\n      dup1\n      swap2\n      sub\n      swap1\n      return\n        /* \"hopium/etf/main/etf-oracle.sol\":10300:10551  function snapshotVault(uint256 etfId) external view returns (Snapshot[] memory s, uint256 etfTvlWeth) {... */\n    tag_4:\n      tag_21\n      0x04\n      dup1\n      calldatasize\n      sub\n      dup2\n      add\n      swap1\n      tag_22\n      swap2\n      swap1\n      tag_17\n      jump\t// in\n    tag_22:\n      tag_23\n      jump\t// in\n    tag_21:\n      mload(0x40)\n      tag_24\n      swap3\n      swap2\n      swap1\n      tag_25\n      jump\t// in\n    tag_24:\n      mload(0x40)\n      dup1\n      swap2\n      sub\n      swap1\n      return\n        /* \"hopium/etf/main/etf-oracle.sol\":11051:11226  function getEtfStats(uint256 etfId) external view returns (Stats memory s) {... */\n    tag_5:\n      tag_26\n      0x04\n      dup1\n      calldatasize\n      sub\n      dup2\n      add\n      swap1\n      tag_27\n      swap2\n      swap1\n      tag_17\n      jump\t// in\n    tag_27:\n      tag_28\n      jump\t// in\n    tag_26:\n      mload(0x40)\n      tag_29\n      swap2\n      swap1\n      tag_30\n      jump\t// in\n    tag_29:\n      mload(0x40)\n      dup1\n      swap2\n      sub\n      swap1\n      return\n        /* \"hopium/common/interface/imDirectory.sol\":1272:1408  function fetchFromDirectory(string memory _key) public view returns (address) {... */\n    tag_6:\n      tag_31\n      0x04\n      dup1\n      calldatasize\n      sub\n      dup2\n      add\n      swap1\n      tag_32\n      swap2\n      swap1\n      tag_33\n      jump\t// in\n    tag_32:\n      tag_34\n      jump\t// in\n    tag_31:\n      mload(0x40)\n      tag_35\n      swap2\n      swap1\n      tag_36\n      jump\t// in\n    tag_35:\n      mload(0x40)\n      dup1\n      swap2\n      sub\n      swap1\n      return\n        /* \"hopium/common/interface/imDirectory.sol\":336:363  IDirectory public Directory */\n    tag_7:\n      tag_37\n      tag_38\n      jump\t// in\n    tag_37:\n      mload(0x40)\n      tag_39\n      swap2\n      swap1\n      tag_40\n      jump\t// in\n    tag_39:\n      mload(0x40)\n      dup1\n      swap2\n      sub\n      swap1\n      return\n        /* \"hopium/etf/main/etf-oracle.sol\":9976:10294  function getEtfPrice(uint256 etfId) external view returns (uint256 wethPrice18, uint256 usdPrice18) {... */\n    tag_8:\n      tag_41\n      0x04\n      dup1\n      calldatasize\n      sub\n      dup2\n      add\n      swap1\n      tag_42\n      swap2\n      swap1\n      tag_17\n      jump\t// in\n    tag_42:\n      tag_43\n      jump\t// in\n    tag_41:\n      mload(0x40)\n      tag_44\n      swap3\n      swap2\n      swap1\n      tag_45\n      jump\t// in\n    tag_44:\n      mload(0x40)\n      dup1\n      swap2\n      sub\n      swap1\n      return\n        /* \"hopium/etf/main/etf-oracle.sol\":9308:9538  function getEtfWethPrice(uint256 etfId) external view returns (uint256) {... */\n    tag_9:\n      tag_46\n      0x04\n      dup1\n      calldatasize\n      sub\n      dup2\n      add\n      swap1\n      tag_47\n      swap2\n      swap1\n      tag_17\n      jump\t// in\n    tag_47:\n      tag_48\n      jump\t// in\n    tag_46:\n      mload(0x40)\n      tag_49\n      swap2\n      swap1\n      tag_20\n      jump\t// in\n    tag_49:\n      mload(0x40)\n      dup1\n      swap2\n      sub\n      swap1\n      return\n        /* \"hopium/common/interface/imDirectory.sol\":1178:1266  function owner() public view returns (address) {... */\n    tag_10:\n      tag_50\n      tag_51\n      jump\t// in\n    tag_50:\n      mload(0x40)\n      tag_52\n      swap2\n      swap1\n      tag_36\n      jump\t// in\n    tag_52:\n      mload(0x40)\n      dup1\n      swap2\n      sub\n      swap1\n      return\n        /* \"hopium/common/interface/imDirectory.sol\":470:583  function changeDirectoryAddress(address _directory) external onlyOwner {... */\n    tag_11:\n      tag_53\n      0x04\n      dup1\n      calldatasize\n      sub\n      dup2\n      add\n      swap1\n      tag_54\n      swap2\n      swap1\n      tag_55\n      jump\t// in\n    tag_54:\n      tag_56\n      jump\t// in\n    tag_53:\n      stop\n        /* \"hopium/etf/main/etf-oracle.sol\":10754:11045  function snapshotVaultWithUsd(uint256 etfId) external view returns (SnapshotWithUsd[] memory s, uint256 etfTvlWeth, uint256 etfTvlUsd) {... */\n    tag_12:\n      tag_57\n      0x04\n      dup1\n      calldatasize\n      sub\n      dup2\n      add\n      swap1\n      tag_58\n      swap2\n      swap1\n      tag_17\n      jump\t// in\n    tag_58:\n      tag_59\n      jump\t// in\n    tag_57:\n      mload(0x40)\n      tag_60\n      swap4\n      swap3\n      swap2\n      swap1\n      tag_61\n      jump\t// in\n    tag_60:\n      mload(0x40)\n      dup1\n      swap2\n      sub\n      swap1\n      return\n        /* \"hopium/etf/main/etf-oracle.sol\":10557:10748  function snapshotVaultUnchecked(Etf memory etf, address vaultAddress) external view returns (Snapshot[] memory s, uint256 etfTvlWeth) {... */\n    tag_13:\n      tag_62\n      0x04\n      dup1\n      calldatasize\n      sub\n      dup2\n      add\n      swap1\n      tag_63\n      swap2\n      swap1\n      tag_64\n      jump\t// in\n    tag_63:\n      tag_65\n      jump\t// in\n    tag_62:\n      mload(0x40)\n      tag_66\n      swap3\n      swap2\n      swap1\n      tag_25\n      jump\t// in\n    tag_66:\n      mload(0x40)\n      dup1\n      swap2\n      sub\n      swap1\n      return\n        /* \"hopium/etf/main/etf-oracle.sol\":9673:9970  function getEtfUsdPrice(uint256 etfId) external view returns (uint256) {... */\n    tag_18:\n        /* \"hopium/etf/main/etf-oracle.sol\":9735:9742  uint256 */\n      0x00\n        /* \"hopium/etf/main/etf-oracle.sol\":9755:9769  Etf memory etf */\n      0x00\n        /* \"hopium/etf/main/etf-oracle.sol\":9771:9791  address vaultAddress */\n      0x00\n        /* \"hopium/etf/main/etf-oracle.sol\":9795:9810  getEtfFactory() */\n      tag_68\n        /* \"hopium/etf/main/etf-oracle.sol\":9795:9808  getEtfFactory */\n      tag_69\n        /* \"hopium/etf/main/etf-oracle.sol\":9795:9810  getEtfFactory() */\n      jump\t// in\n    tag_68:\n        /* \"hopium/etf/main/etf-oracle.sol\":9795:9829  getEtfFactory().getEtfByIdAndVault */\n      0xffffffffffffffffffffffffffffffffffffffff\n      and\n      0x3088f069\n        /* \"hopium/etf/main/etf-oracle.sol\":9830:9835  etfId */\n      dup6\n        /* \"hopium/etf/main/etf-oracle.sol\":9795:9836  getEtfFactory().getEtfByIdAndVault(etfId) */\n      mload(0x40)\n      dup3\n      0xffffffff\n      and\n      0xe0\n      shl\n      dup2\n      mstore\n      0x04\n      add\n      tag_70\n      swap2\n      swap1\n      tag_20\n      jump\t// in\n    tag_70:\n      0x00\n      mload(0x40)\n      dup1\n      dup4\n      sub\n      dup2\n      dup7\n      gas\n      staticcall\n      iszero\n      dup1\n      iszero\n      tag_72\n      jumpi\n      returndatacopy(0x00, 0x00, returndatasize)\n      revert(0x00, returndatasize)\n    tag_72:\n      pop\n      pop\n      pop\n      pop\n      mload(0x40)\n      returndatasize\n      0x00\n      dup3\n      returndatacopy\n      returndatasize\n      not(0x1f)\n      0x1f\n      dup3\n      add\n      and\n      dup3\n      add\n      dup1\n      0x40\n      mstore\n      pop\n      dup2\n      add\n      swap1\n      tag_73\n      swap2\n      swap1\n      tag_74\n      jump\t// in\n    tag_73:\n        /* \"hopium/etf/main/etf-oracle.sol\":9754:9836  (Etf memory etf, address vaultAddress) = getEtfFactory().getEtfByIdAndVault(etfId) */\n      swap2\n      pop\n      swap2\n      pop\n        /* \"hopium/etf/main/etf-oracle.sol\":9846:9868  uint256 etfWethPrice18 */\n      0x00\n        /* \"hopium/etf/main/etf-oracle.sol\":9871:9913  _getEtfWethPrice(etfId, etf, vaultAddress) */\n      tag_75\n        /* \"hopium/etf/main/etf-oracle.sol\":9888:9893  etfId */\n      dup6\n        /* \"hopium/etf/main/etf-oracle.sol\":9895:9898  etf */\n      dup5\n        /* \"hopium/etf/main/etf-oracle.sol\":9900:9912  vaultAddress */\n      dup5\n        /* \"hopium/etf/main/etf-oracle.sol\":9871:9887  _getEtfWethPrice */\n      tag_76\n        /* \"hopium/etf/main/etf-oracle.sol\":9871:9913  _getEtfWethPrice(etfId, etf, vaultAddress) */\n      jump\t// in\n    tag_75:\n        /* \"hopium/etf/main/etf-oracle.sol\":9846:9913  uint256 etfWethPrice18 = _getEtfWethPrice(etfId, etf, vaultAddress) */\n      swap1\n      pop\n        /* \"hopium/etf/main/etf-oracle.sol\":9930:9963  _convertWethToUsd(etfWethPrice18) */\n      tag_77\n        /* \"hopium/etf/main/etf-oracle.sol\":9948:9962  etfWethPrice18 */\n      dup2\n        /* \"hopium/etf/main/etf-oracle.sol\":9930:9947  _convertWethToUsd */\n      tag_78\n        /* \"hopium/etf/main/etf-oracle.sol\":9930:9963  _convertWethToUsd(etfWethPrice18) */\n      jump\t// in\n    tag_77:\n        /* \"hopium/etf/main/etf-oracle.sol\":9923:9963  return _convertWethToUsd(etfWethPrice18) */\n      swap4\n      pop\n      pop\n      pop\n      pop\n        /* \"hopium/etf/main/etf-oracle.sol\":9673:9970  function getEtfUsdPrice(uint256 etfId) external view returns (uint256) {... */\n      swap2\n      swap1\n      pop\n      jump\t// out\n        /* \"hopium/etf/main/etf-oracle.sol\":10300:10551  function snapshotVault(uint256 etfId) external view returns (Snapshot[] memory s, uint256 etfTvlWeth) {... */\n    tag_23:\n        /* \"hopium/etf/main/etf-oracle.sol\":10361:10380  Snapshot[] memory s */\n      0x60\n        /* \"hopium/etf/main/etf-oracle.sol\":10382:10400  uint256 etfTvlWeth */\n      0x00\n        /* \"hopium/etf/main/etf-oracle.sol\":10413:10427  Etf memory etf */\n      0x00\n        /* \"hopium/etf/main/etf-oracle.sol\":10429:10449  address vaultAddress */\n      0x00\n        /* \"hopium/etf/main/etf-oracle.sol\":10453:10468  getEtfFactory() */\n      tag_80\n        /* \"hopium/etf/main/etf-oracle.sol\":10453:10466  getEtfFactory */\n      tag_69\n        /* \"hopium/etf/main/etf-oracle.sol\":10453:10468  getEtfFactory() */\n      jump\t// in\n    tag_80:\n        /* \"hopium/etf/main/etf-oracle.sol\":10453:10487  getEtfFactory().getEtfByIdAndVault */\n      0xffffffffffffffffffffffffffffffffffffffff\n      and\n      0x3088f069\n        /* \"hopium/etf/main/etf-oracle.sol\":10488:10493  etfId */\n      dup7\n        /* \"hopium/etf/main/etf-oracle.sol\":10453:10494  getEtfFactory().getEtfByIdAndVault(etfId) */\n      mload(0x40)\n      dup3\n      0xffffffff\n      and\n      0xe0\n      shl\n      dup2\n      mstore\n      0x04\n      add\n      tag_81\n      swap2\n      swap1\n      tag_20\n      jump\t// in\n    tag_81:\n      0x00\n      mload(0x40)\n      dup1\n      dup4\n      sub\n      dup2\n      dup7\n      gas\n      staticcall\n      iszero\n      dup1\n      iszero\n      tag_83\n      jumpi\n      returndatacopy(0x00, 0x00, returndatasize)\n      revert(0x00, returndatasize)\n    tag_83:\n      pop\n      pop\n      pop\n      pop\n      mload(0x40)\n      returndatasize\n      0x00\n      dup3\n      returndatacopy\n      returndatasize\n      not(0x1f)\n      0x1f\n      dup3\n      add\n      and\n      dup3\n      add\n      dup1\n      0x40\n      mstore\n      pop\n      dup2\n      add\n      swap1\n      tag_84\n      swap2\n      swap1\n      tag_74\n      jump\t// in\n    tag_84:\n        /* \"hopium/etf/main/etf-oracle.sol\":10412:10494  (Etf memory etf, address vaultAddress) = getEtfFactory().getEtfByIdAndVault(etfId) */\n      swap2\n      pop\n      swap2\n      pop\n        /* \"hopium/etf/main/etf-oracle.sol\":10511:10544  _snapshotVault(etf, vaultAddress) */\n      tag_85\n        /* \"hopium/etf/main/etf-oracle.sol\":10526:10529  etf */\n      dup3\n        /* \"hopium/etf/main/etf-oracle.sol\":10531:10543  vaultAddress */\n      dup3\n        /* \"hopium/etf/main/etf-oracle.sol\":10511:10525  _snapshotVault */\n      tag_86\n        /* \"hopium/etf/main/etf-oracle.sol\":10511:10544  _snapshotVault(etf, vaultAddress) */\n      jump\t// in\n    tag_85:\n        /* \"hopium/etf/main/etf-oracle.sol\":10504:10544  return _snapshotVault(etf, vaultAddress) */\n      swap4\n      pop\n      swap4\n      pop\n      pop\n      pop\n        /* \"hopium/etf/main/etf-oracle.sol\":10300:10551  function snapshotVault(uint256 etfId) external view returns (Snapshot[] memory s, uint256 etfTvlWeth) {... */\n      swap2\n      pop\n      swap2\n      jump\t// out\n        /* \"hopium/etf/main/etf-oracle.sol\":11051:11226  function getEtfStats(uint256 etfId) external view returns (Stats memory s) {... */\n    tag_28:\n        /* \"hopium/etf/main/etf-oracle.sol\":11110:11124  Stats memory s */\n      tag_87\n      tag_88\n      jump\t// in\n    tag_87:\n        /* \"hopium/etf/main/etf-oracle.sol\":11137:11151  Etf memory etf */\n      0x00\n        /* \"hopium/etf/main/etf-oracle.sol\":11155:11170  getEtfFactory() */\n      tag_90\n        /* \"hopium/etf/main/etf-oracle.sol\":11155:11168  getEtfFactory */\n      tag_69\n        /* \"hopium/etf/main/etf-oracle.sol\":11155:11170  getEtfFactory() */\n      jump\t// in\n    tag_90:\n        /* \"hopium/etf/main/etf-oracle.sol\":11155:11181  getEtfFactory().getEtfById */\n      0xffffffffffffffffffffffffffffffffffffffff\n      and\n      0xecb0271c\n        /* \"hopium/etf/main/etf-oracle.sol\":11182:11187  etfId */\n      dup5\n        /* \"hopium/etf/main/etf-oracle.sol\":11155:11188  getEtfFactory().getEtfById(etfId) */\n      mload(0x40)\n      dup3\n      0xffffffff\n      and\n      0xe0\n      shl\n      dup2\n      mstore\n      0x04\n      add\n      tag_91\n      swap2\n      swap1\n      tag_20\n      jump\t// in\n    tag_91:\n      0x00\n      mload(0x40)\n      dup1\n      dup4\n      sub\n      dup2\n      dup7\n      gas\n      staticcall\n      iszero\n      dup1\n      iszero\n      tag_93\n      jumpi\n      returndatacopy(0x00, 0x00, returndatasize)\n      revert(0x00, returndatasize)\n    tag_93:\n      pop\n      pop\n      pop\n      pop\n      mload(0x40)\n      returndatasize\n      0x00\n      dup3\n      returndatacopy\n      returndatasize\n      not(0x1f)\n      0x1f\n      dup3\n      add\n      and\n      dup3\n      add\n      dup1\n      0x40\n      mstore\n      pop\n      dup2\n      add\n      swap1\n      tag_94\n      swap2\n      swap1\n      tag_95\n      jump\t// in\n    tag_94:\n        /* \"hopium/etf/main/etf-oracle.sol\":11136:11188  (Etf memory etf) = getEtfFactory().getEtfById(etfId) */\n      swap1\n      pop\n        /* \"hopium/etf/main/etf-oracle.sol\":11205:11219  _getStats(etf) */\n      tag_96\n        /* \"hopium/etf/main/etf-oracle.sol\":11215:11218  etf */\n      dup2\n        /* \"hopium/etf/main/etf-oracle.sol\":11205:11214  _getStats */\n      tag_97\n        /* \"hopium/etf/main/etf-oracle.sol\":11205:11219  _getStats(etf) */\n      jump\t// in\n    tag_96:\n        /* \"hopium/etf/main/etf-oracle.sol\":11198:11219  return _getStats(etf) */\n      swap2\n      pop\n      pop\n        /* \"hopium/etf/main/etf-oracle.sol\":11051:11226  function getEtfStats(uint256 etfId) external view returns (Stats memory s) {... */\n      swap2\n      swap1\n      pop\n      jump\t// out\n        /* \"hopium/common/interface/imDirectory.sol\":1272:1408  function fetchFromDirectory(string memory _key) public view returns (address) {... */\n    tag_34:\n        /* \"hopium/common/interface/imDirectory.sol\":1341:1348  address */\n      0x00\n        /* \"hopium/common/interface/imDirectory.sol\":1367:1376  Directory */\n      0x00\n      0x00\n      swap1\n      sload\n      swap1\n      0x0100\n      exp\n      swap1\n      div\n      0xffffffffffffffffffffffffffffffffffffffff\n      and\n        /* \"hopium/common/interface/imDirectory.sol\":1367:1395  Directory.fetchFromDirectory */\n      0xffffffffffffffffffffffffffffffffffffffff\n      and\n      0x27262618\n        /* \"hopium/common/interface/imDirectory.sol\":1396:1400  _key */\n      dup4\n        /* \"hopium/common/interface/imDirectory.sol\":1367:1401  Directory.fetchFromDirectory(_key) */\n      mload(0x40)\n      dup3\n      0xffffffff\n      and\n      0xe0\n      shl\n      dup2\n      mstore\n      0x04\n      add\n      tag_99\n      swap2\n      swap1\n      tag_100\n      jump\t// in\n    tag_99:\n      0x20\n      mload(0x40)\n      dup1\n      dup4\n      sub\n      dup2\n      dup7\n      gas\n      staticcall\n      iszero\n      dup1\n      iszero\n      tag_102\n      jumpi\n      returndatacopy(0x00, 0x00, returndatasize)\n      revert(0x00, returndatasize)\n    tag_102:\n      pop\n      pop\n      pop\n      pop\n      mload(0x40)\n      returndatasize\n      not(0x1f)\n      0x1f\n      dup3\n      add\n      and\n      dup3\n      add\n      dup1\n      0x40\n      mstore\n      pop\n      dup2\n      add\n      swap1\n      tag_103\n      swap2\n      swap1\n      tag_104\n      jump\t// in\n    tag_103:\n        /* \"hopium/common/interface/imDirectory.sol\":1360:1401  return Directory.fetchFromDirectory(_key) */\n      swap1\n      pop\n        /* \"hopium/common/interface/imDirectory.sol\":1272:1408  function fetchFromDirectory(string memory _key) public view returns (address) {... */\n      swap2\n      swap1\n      pop\n      jump\t// out\n        /* \"hopium/common/interface/imDirectory.sol\":336:363  IDirectory public Directory */\n    tag_38:\n      0x00\n      0x00\n      swap1\n      sload\n      swap1\n      0x0100\n      exp\n      swap1\n      div\n      0xffffffffffffffffffffffffffffffffffffffff\n      and\n      dup2\n      jump\t// out\n        /* \"hopium/etf/main/etf-oracle.sol\":9976:10294  function getEtfPrice(uint256 etfId) external view returns (uint256 wethPrice18, uint256 usdPrice18) {... */\n    tag_43:\n        /* \"hopium/etf/main/etf-oracle.sol\":10035:10054  uint256 wethPrice18 */\n      0x00\n        /* \"hopium/etf/main/etf-oracle.sol\":10056:10074  uint256 usdPrice18 */\n      0x00\n        /* \"hopium/etf/main/etf-oracle.sol\":10087:10101  Etf memory etf */\n      0x00\n        /* \"hopium/etf/main/etf-oracle.sol\":10103:10123  address vaultAddress */\n      0x00\n        /* \"hopium/etf/main/etf-oracle.sol\":10127:10142  getEtfFactory() */\n      tag_106\n        /* \"hopium/etf/main/etf-oracle.sol\":10127:10140  getEtfFactory */\n      tag_69\n        /* \"hopium/etf/main/etf-oracle.sol\":10127:10142  getEtfFactory() */\n      jump\t// in\n    tag_106:\n        /* \"hopium/etf/main/etf-oracle.sol\":10127:10161  getEtfFactory().getEtfByIdAndVault */\n      0xffffffffffffffffffffffffffffffffffffffff\n      and\n      0x3088f069\n        /* \"hopium/etf/main/etf-oracle.sol\":10162:10167  etfId */\n      dup7\n        /* \"hopium/etf/main/etf-oracle.sol\":10127:10168  getEtfFactory().getEtfByIdAndVault(etfId) */\n      mload(0x40)\n      dup3\n      0xffffffff\n      and\n      0xe0\n      shl\n      dup2\n      mstore\n      0x04\n      add\n      tag_107\n      swap2\n      swap1\n      tag_20\n      jump\t// in\n    tag_107:\n      0x00\n      mload(0x40)\n      dup1\n      dup4\n      sub\n      dup2\n      dup7\n      gas\n      staticcall\n      iszero\n      dup1\n      iszero\n      tag_109\n      jumpi\n      returndatacopy(0x00, 0x00, returndatasize)\n      revert(0x00, returndatasize)\n    tag_109:\n      pop\n      pop\n      pop\n      pop\n      mload(0x40)\n      returndatasize\n      0x00\n      dup3\n      returndatacopy\n      returndatasize\n      not(0x1f)\n      0x1f\n      dup3\n      add\n      and\n      dup3\n      add\n      dup1\n      0x40\n      mstore\n      pop\n      dup2\n      add\n      swap1\n      tag_110\n      swap2\n      swap1\n      tag_74\n      jump\t// in\n    tag_110:\n        /* \"hopium/etf/main/etf-oracle.sol\":10086:10168  (Etf memory etf, address vaultAddress) = getEtfFactory().getEtfByIdAndVault(etfId) */\n      swap2\n      pop\n      swap2\n      pop\n        /* \"hopium/etf/main/etf-oracle.sol\":10192:10234  _getEtfWethPrice(etfId, etf, vaultAddress) */\n      tag_111\n        /* \"hopium/etf/main/etf-oracle.sol\":10209:10214  etfId */\n      dup6\n        /* \"hopium/etf/main/etf-oracle.sol\":10216:10219  etf */\n      dup4\n        /* \"hopium/etf/main/etf-oracle.sol\":10221:10233  vaultAddress */\n      dup4\n        /* \"hopium/etf/main/etf-oracle.sol\":10192:10208  _getEtfWethPrice */\n      tag_76\n        /* \"hopium/etf/main/etf-oracle.sol\":10192:10234  _getEtfWethPrice(etfId, etf, vaultAddress) */\n      jump\t// in\n    tag_111:\n        /* \"hopium/etf/main/etf-oracle.sol\":10178:10234  wethPrice18 = _getEtfWethPrice(etfId, etf, vaultAddress) */\n      swap4\n      pop\n        /* \"hopium/etf/main/etf-oracle.sol\":10257:10287  _convertWethToUsd(wethPrice18) */\n      tag_112\n        /* \"hopium/etf/main/etf-oracle.sol\":10275:10286  wethPrice18 */\n      dup5\n        /* \"hopium/etf/main/etf-oracle.sol\":10257:10274  _convertWethToUsd */\n      tag_78\n        /* \"hopium/etf/main/etf-oracle.sol\":10257:10287  _convertWethToUsd(wethPrice18) */\n      jump\t// in\n    tag_112:\n        /* \"hopium/etf/main/etf-oracle.sol\":10244:10287  usdPrice18 = _convertWethToUsd(wethPrice18) */\n      swap3\n      pop\n        /* \"hopium/etf/main/etf-oracle.sol\":10076:10294  {... */\n      pop\n      pop\n        /* \"hopium/etf/main/etf-oracle.sol\":9976:10294  function getEtfPrice(uint256 etfId) external view returns (uint256 wethPrice18, uint256 usdPrice18) {... */\n      swap2\n      pop\n      swap2\n      jump\t// out\n        /* \"hopium/etf/main/etf-oracle.sol\":9308:9538  function getEtfWethPrice(uint256 etfId) external view returns (uint256) {... */\n    tag_48:\n        /* \"hopium/etf/main/etf-oracle.sol\":9371:9378  uint256 */\n      0x00\n        /* \"hopium/etf/main/etf-oracle.sol\":9391:9405  Etf memory etf */\n      0x00\n        /* \"hopium/etf/main/etf-oracle.sol\":9407:9427  address vaultAddress */\n      0x00\n        /* \"hopium/etf/main/etf-oracle.sol\":9431:9446  getEtfFactory() */\n      tag_114\n        /* \"hopium/etf/main/etf-oracle.sol\":9431:9444  getEtfFactory */\n      tag_69\n        /* \"hopium/etf/main/etf-oracle.sol\":9431:9446  getEtfFactory() */\n      jump\t// in\n    tag_114:\n        /* \"hopium/etf/main/etf-oracle.sol\":9431:9465  getEtfFactory().getEtfByIdAndVault */\n      0xffffffffffffffffffffffffffffffffffffffff\n      and\n      0x3088f069\n        /* \"hopium/etf/main/etf-oracle.sol\":9466:9471  etfId */\n      dup6\n        /* \"hopium/etf/main/etf-oracle.sol\":9431:9472  getEtfFactory().getEtfByIdAndVault(etfId) */\n      mload(0x40)\n      dup3\n      0xffffffff\n      and\n      0xe0\n      shl\n      dup2\n      mstore\n      0x04\n      add\n      tag_115\n      swap2\n      swap1\n      tag_20\n      jump\t// in\n    tag_115:\n      0x00\n      mload(0x40)\n      dup1\n      dup4\n      sub\n      dup2\n      dup7\n      gas\n      staticcall\n      iszero\n      dup1\n      iszero\n      tag_117\n      jumpi\n      returndatacopy(0x00, 0x00, returndatasize)\n      revert(0x00, returndatasize)\n    tag_117:\n      pop\n      pop\n      pop\n      pop\n      mload(0x40)\n      returndatasize\n      0x00\n      dup3\n      returndatacopy\n      returndatasize\n      not(0x1f)\n      0x1f\n      dup3\n      add\n      and\n      dup3\n      add\n      dup1\n      0x40\n      mstore\n      pop\n      dup2\n      add\n      swap1\n      tag_118\n      swap2\n      swap1\n      tag_74\n      jump\t// in\n    tag_118:\n        /* \"hopium/etf/main/etf-oracle.sol\":9390:9472  (Etf memory etf, address vaultAddress) = getEtfFactory().getEtfByIdAndVault(etfId) */\n      swap2\n      pop\n      swap2\n      pop\n        /* \"hopium/etf/main/etf-oracle.sol\":9489:9531  _getEtfWethPrice(etfId, etf, vaultAddress) */\n      tag_119\n        /* \"hopium/etf/main/etf-oracle.sol\":9506:9511  etfId */\n      dup5\n        /* \"hopium/etf/main/etf-oracle.sol\":9513:9516  etf */\n      dup4\n        /* \"hopium/etf/main/etf-oracle.sol\":9518:9530  vaultAddress */\n      dup4\n        /* \"hopium/etf/main/etf-oracle.sol\":9489:9505  _getEtfWethPrice */\n      tag_76\n        /* \"hopium/etf/main/etf-oracle.sol\":9489:9531  _getEtfWethPrice(etfId, etf, vaultAddress) */\n      jump\t// in\n    tag_119:\n        /* \"hopium/etf/main/etf-oracle.sol\":9482:9531  return _getEtfWethPrice(etfId, etf, vaultAddress) */\n      swap3\n      pop\n      pop\n      pop\n        /* \"hopium/etf/main/etf-oracle.sol\":9308:9538  function getEtfWethPrice(uint256 etfId) external view returns (uint256) {... */\n      swap2\n      swap1\n      pop\n      jump\t// out\n        /* \"hopium/common/interface/imDirectory.sol\":1178:1266  function owner() public view returns (address) {... */\n    tag_51:\n        /* \"hopium/common/interface/imDirectory.sol\":1216:1223  address */\n      0x00\n        /* \"hopium/common/interface/imDirectory.sol\":1242:1251  Directory */\n      0x00\n      0x00\n      swap1\n      sload\n      swap1\n      0x0100\n      exp\n      swap1\n      div\n      0xffffffffffffffffffffffffffffffffffffffff\n      and\n        /* \"hopium/common/interface/imDirectory.sol\":1242:1257  Directory.owner */\n      0xffffffffffffffffffffffffffffffffffffffff\n      and\n      0x8da5cb5b\n        /* \"hopium/common/interface/imDirectory.sol\":1242:1259  Directory.owner() */\n      mload(0x40)\n      dup2\n      0xffffffff\n      and\n      0xe0\n      shl\n      dup2\n      mstore\n      0x04\n      add\n      0x20\n      mload(0x40)\n      dup1\n      dup4\n      sub\n      dup2\n      dup7\n      gas\n      staticcall\n      iszero\n      dup1\n      iszero\n      tag_122\n      jumpi\n      returndatacopy(0x00, 0x00, returndatasize)\n      revert(0x00, returndatasize)\n    tag_122:\n      pop\n      pop\n      pop\n      pop\n      mload(0x40)\n      returndatasize\n      not(0x1f)\n      0x1f\n      dup3\n      add\n      and\n      dup3\n      add\n      dup1\n      0x40\n      mstore\n      pop\n      dup2\n      add\n      swap1\n      tag_123\n      swap2\n      swap1\n      tag_104\n      jump\t// in\n    tag_123:\n        /* \"hopium/common/interface/imDirectory.sol\":1235:1259  return Directory.owner() */\n      swap1\n      pop\n        /* \"hopium/common/interface/imDirectory.sol\":1178:1266  function owner() public view returns (address) {... */\n      swap1\n      jump\t// out\n        /* \"hopium/common/interface/imDirectory.sol\":470:583  function changeDirectoryAddress(address _directory) external onlyOwner {... */\n    tag_56:\n        /* \"hopium/common/interface/imDirectory.sol\":1109:1118  Directory */\n      0x00\n      0x00\n      swap1\n      sload\n      swap1\n      0x0100\n      exp\n      swap1\n      div\n      0xffffffffffffffffffffffffffffffffffffffff\n      and\n        /* \"hopium/common/interface/imDirectory.sol\":1109:1124  Directory.owner */\n      0xffffffffffffffffffffffffffffffffffffffff\n      and\n      0x8da5cb5b\n        /* \"hopium/common/interface/imDirectory.sol\":1109:1126  Directory.owner() */\n      mload(0x40)\n      dup2\n      0xffffffff\n      and\n      0xe0\n      shl\n      dup2\n      mstore\n      0x04\n      add\n      0x20\n      mload(0x40)\n      dup1\n      dup4\n      sub\n      dup2\n      dup7\n      gas\n      staticcall\n      iszero\n      dup1\n      iszero\n      tag_126\n      jumpi\n      returndatacopy(0x00, 0x00, returndatasize)\n      revert(0x00, returndatasize)\n    tag_126:\n      pop\n      pop\n      pop\n      pop\n      mload(0x40)\n      returndatasize\n      not(0x1f)\n      0x1f\n      dup3\n      add\n      and\n      dup3\n      add\n      dup1\n      0x40\n      mstore\n      pop\n      dup2\n      add\n      swap1\n      tag_127\n      swap2\n      swap1\n      tag_104\n      jump\t// in\n    tag_127:\n        /* \"hopium/common/interface/imDirectory.sol\":1095:1126  msg.sender == Directory.owner() */\n      0xffffffffffffffffffffffffffffffffffffffff\n      and\n        /* \"hopium/common/interface/imDirectory.sol\":1095:1105  msg.sender */\n      caller\n        /* \"hopium/common/interface/imDirectory.sol\":1095:1126  msg.sender == Directory.owner() */\n      0xffffffffffffffffffffffffffffffffffffffff\n      and\n      eq\n        /* \"hopium/common/interface/imDirectory.sol\":1087:1154  require(msg.sender == Directory.owner(), \"Caller is not the owner\") */\n      tag_128\n      jumpi\n      mload(0x40)\n      0x08c379a000000000000000000000000000000000000000000000000000000000\n      dup2\n      mstore\n      0x04\n      add\n      tag_129\n      swap1\n      tag_130\n      jump\t// in\n    tag_129:\n      mload(0x40)\n      dup1\n      swap2\n      sub\n      swap1\n      revert\n    tag_128:\n        /* \"hopium/common/interface/imDirectory.sol\":551:576  _setDirectory(_directory) */\n      tag_132\n        /* \"hopium/common/interface/imDirectory.sol\":565:575  _directory */\n      dup2\n        /* \"hopium/common/interface/imDirectory.sol\":551:564  _setDirectory */\n      tag_133\n        /* \"hopium/common/interface/imDirectory.sol\":551:576  _setDirectory(_directory) */\n      jump\t// in\n    tag_132:\n        /* \"hopium/common/interface/imDirectory.sol\":470:583  function changeDirectoryAddress(address _directory) external onlyOwner {... */\n      pop\n      jump\t// out\n        /* \"hopium/etf/main/etf-oracle.sol\":10754:11045  function snapshotVaultWithUsd(uint256 etfId) external view returns (SnapshotWithUsd[] memory s, uint256 etfTvlWeth, uint256 etfTvlUsd) {... */\n    tag_59:\n        /* \"hopium/etf/main/etf-oracle.sol\":10822:10848  SnapshotWithUsd[] memory s */\n      0x60\n        /* \"hopium/etf/main/etf-oracle.sol\":10850:10868  uint256 etfTvlWeth */\n      0x00\n        /* \"hopium/etf/main/etf-oracle.sol\":10870:10887  uint256 etfTvlUsd */\n      0x00\n        /* \"hopium/etf/main/etf-oracle.sol\":10900:10914  Etf memory etf */\n      0x00\n        /* \"hopium/etf/main/etf-oracle.sol\":10916:10936  address vaultAddress */\n      0x00\n        /* \"hopium/etf/main/etf-oracle.sol\":10940:10955  getEtfFactory() */\n      tag_135\n        /* \"hopium/etf/main/etf-oracle.sol\":10940:10953  getEtfFactory */\n      tag_69\n        /* \"hopium/etf/main/etf-oracle.sol\":10940:10955  getEtfFactory() */\n      jump\t// in\n    tag_135:\n        /* \"hopium/etf/main/etf-oracle.sol\":10940:10974  getEtfFactory().getEtfByIdAndVault */\n      0xffffffffffffffffffffffffffffffffffffffff\n      and\n      0x3088f069\n        /* \"hopium/etf/main/etf-oracle.sol\":10975:10980  etfId */\n      dup8\n        /* \"hopium/etf/main/etf-oracle.sol\":10940:10981  getEtfFactory().getEtfByIdAndVault(etfId) */\n      mload(0x40)\n      dup3\n      0xffffffff\n      and\n      0xe0\n      shl\n      dup2\n      mstore\n      0x04\n      add\n      tag_136\n      swap2\n      swap1\n      tag_20\n      jump\t// in\n    tag_136:\n      0x00\n      mload(0x40)\n      dup1\n      dup4\n      sub\n      dup2\n      dup7\n      gas\n      staticcall\n      iszero\n      dup1\n      iszero\n      tag_138\n      jumpi\n      returndatacopy(0x00, 0x00, returndatasize)\n      revert(0x00, returndatasize)\n    tag_138:\n      pop\n      pop\n      pop\n      pop\n      mload(0x40)\n      returndatasize\n      0x00\n      dup3\n      returndatacopy\n      returndatasize\n      not(0x1f)\n      0x1f\n      dup3\n      add\n      and\n      dup3\n      add\n      dup1\n      0x40\n      mstore\n      pop\n      dup2\n      add\n      swap1\n      tag_139\n      swap2\n      swap1\n      tag_74\n      jump\t// in\n    tag_139:\n        /* \"hopium/etf/main/etf-oracle.sol\":10899:10981  (Etf memory etf, address vaultAddress) = getEtfFactory().getEtfByIdAndVault(etfId) */\n      swap2\n      pop\n      swap2\n      pop\n        /* \"hopium/etf/main/etf-oracle.sol\":10998:11038  _snapshotVaultWithUsd(etf, vaultAddress) */\n      tag_140\n        /* \"hopium/etf/main/etf-oracle.sol\":11020:11023  etf */\n      dup3\n        /* \"hopium/etf/main/etf-oracle.sol\":11025:11037  vaultAddress */\n      dup3\n        /* \"hopium/etf/main/etf-oracle.sol\":10998:11019  _snapshotVaultWithUsd */\n      tag_141\n        /* \"hopium/etf/main/etf-oracle.sol\":10998:11038  _snapshotVaultWithUsd(etf, vaultAddress) */\n      jump\t// in\n    tag_140:\n        /* \"hopium/etf/main/etf-oracle.sol\":10991:11038  return _snapshotVaultWithUsd(etf, vaultAddress) */\n      swap5\n      pop\n      swap5\n      pop\n      swap5\n      pop\n      pop\n      pop\n        /* \"hopium/etf/main/etf-oracle.sol\":10754:11045  function snapshotVaultWithUsd(uint256 etfId) external view returns (SnapshotWithUsd[] memory s, uint256 etfTvlWeth, uint256 etfTvlUsd) {... */\n      swap2\n      swap4\n      swap1\n      swap3\n      pop\n      jump\t// out\n        /* \"hopium/etf/main/etf-oracle.sol\":10557:10748  function snapshotVaultUnchecked(Etf memory etf, address vaultAddress) external view returns (Snapshot[] memory s, uint256 etfTvlWeth) {... */\n    tag_65:\n        /* \"hopium/etf/main/etf-oracle.sol\":10650:10669  Snapshot[] memory s */\n      0x60\n        /* \"hopium/etf/main/etf-oracle.sol\":10671:10689  uint256 etfTvlWeth */\n      0x00\n        /* \"hopium/etf/main/etf-oracle.sol\":10708:10741  _snapshotVault(etf, vaultAddress) */\n      tag_143\n        /* \"hopium/etf/main/etf-oracle.sol\":10723:10726  etf */\n      dup5\n        /* \"hopium/etf/main/etf-oracle.sol\":10728:10740  vaultAddress */\n      dup5\n        /* \"hopium/etf/main/etf-oracle.sol\":10708:10722  _snapshotVault */\n      tag_86\n        /* \"hopium/etf/main/etf-oracle.sol\":10708:10741  _snapshotVault(etf, vaultAddress) */\n      jump\t// in\n    tag_143:\n        /* \"hopium/etf/main/etf-oracle.sol\":10701:10741  return _snapshotVault(etf, vaultAddress) */\n      swap2\n      pop\n      swap2\n      pop\n        /* \"hopium/etf/main/etf-oracle.sol\":10557:10748  function snapshotVaultUnchecked(Etf memory etf, address vaultAddress) external view returns (Snapshot[] memory s, uint256 etfTvlWeth) {... */\n      swap3\n      pop\n      swap3\n      swap1\n      pop\n      jump\t// out\n        /* \"hopium/etf/interface/imEtfFactory.sol\":798:937  function getEtfFactory() internal view virtual returns (IEtfFactory) {... */\n    tag_69:\n        /* \"hopium/etf/interface/imEtfFactory.sol\":854:865  IEtfFactory */\n      0x00\n        /* \"hopium/etf/interface/imEtfFactory.sol\":896:929  fetchFromDirectory(\"etf-factory\") */\n      tag_145\n      mload(0x40)\n      dup1\n      0x40\n      add\n      0x40\n      mstore\n      dup1\n      0x0b\n      dup2\n      mstore\n      0x20\n      add\n      0x6574662d666163746f7279000000000000000000000000000000000000000000\n      dup2\n      mstore\n      pop\n        /* \"hopium/etf/interface/imEtfFactory.sol\":896:914  fetchFromDirectory */\n      tag_34\n        /* \"hopium/etf/interface/imEtfFactory.sol\":896:929  fetchFromDirectory(\"etf-factory\") */\n      jump\t// in\n    tag_145:\n        /* \"hopium/etf/interface/imEtfFactory.sol\":877:930  return IEtfFactory(fetchFromDirectory(\"etf-factory\")) */\n      swap1\n      pop\n        /* \"hopium/etf/interface/imEtfFactory.sol\":798:937  function getEtfFactory() internal view virtual returns (IEtfFactory) {... */\n      swap1\n      jump\t// out\n        /* \"hopium/etf/main/etf-oracle.sol\":5803:6728  function _getEtfWethPrice(uint256 etfId, Etf memory etf, address etfVault) internal view returns (uint256) {... */\n    tag_76:\n        /* \"hopium/etf/main/etf-oracle.sol\":5901:5908  uint256 */\n      0x00\n        /* \"hopium/etf/main/etf-oracle.sol\":5949:5965  address etfToken */\n      0x00\n        /* \"hopium/etf/main/etf-oracle.sol\":5968:5983  getEtfFactory() */\n      tag_147\n        /* \"hopium/etf/main/etf-oracle.sol\":5968:5981  getEtfFactory */\n      tag_69\n        /* \"hopium/etf/main/etf-oracle.sol\":5968:5983  getEtfFactory() */\n      jump\t// in\n    tag_147:\n        /* \"hopium/etf/main/etf-oracle.sol\":5968:6002  getEtfFactory().getEtfTokenAddress */\n      0xffffffffffffffffffffffffffffffffffffffff\n      and\n      0xf2018a1f\n        /* \"hopium/etf/main/etf-oracle.sol\":6003:6008  etfId */\n      dup7\n        /* \"hopium/etf/main/etf-oracle.sol\":5968:6009  getEtfFactory().getEtfTokenAddress(etfId) */\n      mload(0x40)\n      dup3\n      0xffffffff\n      and\n      0xe0\n      shl\n      dup2\n      mstore\n      0x04\n      add\n      tag_148\n      swap2\n      swap1\n      tag_20\n      jump\t// in\n    tag_148:\n      0x20\n      mload(0x40)\n      dup1\n      dup4\n      sub\n      dup2\n      dup7\n      gas\n      staticcall\n      iszero\n      dup1\n      iszero\n      tag_150\n      jumpi\n      returndatacopy(0x00, 0x00, returndatasize)\n      revert(0x00, returndatasize)\n    tag_150:\n      pop\n      pop\n      pop\n      pop\n      mload(0x40)\n      returndatasize\n      not(0x1f)\n      0x1f\n      dup3\n      add\n      and\n      dup3\n      add\n      dup1\n      0x40\n      mstore\n      pop\n      dup2\n      add\n      swap1\n      tag_151\n      swap2\n      swap1\n      tag_104\n      jump\t// in\n    tag_151:\n        /* \"hopium/etf/main/etf-oracle.sol\":5949:6009  address etfToken = getEtfFactory().getEtfTokenAddress(etfId) */\n      swap1\n      pop\n        /* \"hopium/etf/main/etf-oracle.sol\":6059:6076  uint256 rawSupply */\n      0x00\n        /* \"hopium/etf/main/etf-oracle.sol\":6086:6094  etfToken */\n      dup2\n        /* \"hopium/etf/main/etf-oracle.sol\":6079:6107  IERC20(etfToken).totalSupply */\n      0xffffffffffffffffffffffffffffffffffffffff\n      and\n      0x18160ddd\n        /* \"hopium/etf/main/etf-oracle.sol\":6079:6109  IERC20(etfToken).totalSupply() */\n      mload(0x40)\n      dup2\n      0xffffffff\n      and\n      0xe0\n      shl\n      dup2\n      mstore\n      0x04\n      add\n      0x20\n      mload(0x40)\n      dup1\n      dup4\n      sub\n      dup2\n      dup7\n      gas\n      staticcall\n      iszero\n      dup1\n      iszero\n      tag_153\n      jumpi\n      returndatacopy(0x00, 0x00, returndatasize)\n      revert(0x00, returndatasize)\n    tag_153:\n      pop\n      pop\n      pop\n      pop\n      mload(0x40)\n      returndatasize\n      not(0x1f)\n      0x1f\n      dup3\n      add\n      and\n      dup3\n      add\n      dup1\n      0x40\n      mstore\n      pop\n      dup2\n      add\n      swap1\n      tag_154\n      swap2\n      swap1\n      tag_155\n      jump\t// in\n    tag_154:\n        /* \"hopium/etf/main/etf-oracle.sol\":6059:6109  uint256 rawSupply = IERC20(etfToken).totalSupply() */\n      swap1\n      pop\n        /* \"hopium/etf/main/etf-oracle.sol\":6119:6133  uint8   etfDec */\n      0x00\n        /* \"hopium/etf/main/etf-oracle.sol\":6153:6161  etfToken */\n      dup3\n        /* \"hopium/etf/main/etf-oracle.sol\":6138:6171  IERC20Metadata(etfToken).decimals */\n      0xffffffffffffffffffffffffffffffffffffffff\n      and\n      0x313ce567\n        /* \"hopium/etf/main/etf-oracle.sol\":6138:6173  IERC20Metadata(etfToken).decimals() */\n      mload(0x40)\n      dup2\n      0xffffffff\n      and\n      0xe0\n      shl\n      dup2\n      mstore\n      0x04\n      add\n      0x20\n      mload(0x40)\n      dup1\n      dup4\n      sub\n      dup2\n      dup7\n      gas\n      staticcall\n      iszero\n      dup1\n      iszero\n      tag_157\n      jumpi\n      returndatacopy(0x00, 0x00, returndatasize)\n      revert(0x00, returndatasize)\n    tag_157:\n      pop\n      pop\n      pop\n      pop\n      mload(0x40)\n      returndatasize\n      not(0x1f)\n      0x1f\n      dup3\n      add\n      and\n      dup3\n      add\n      dup1\n      0x40\n      mstore\n      pop\n      dup2\n      add\n      swap1\n      tag_158\n      swap2\n      swap1\n      tag_159\n      jump\t// in\n    tag_158:\n        /* \"hopium/etf/main/etf-oracle.sol\":6119:6173  uint8   etfDec   = IERC20Metadata(etfToken).decimals() */\n      swap1\n      pop\n        /* \"hopium/etf/main/etf-oracle.sol\":6200:6201  0 */\n      0x00\n        /* \"hopium/etf/main/etf-oracle.sol\":6187:6196  rawSupply */\n      dup3\n        /* \"hopium/etf/main/etf-oracle.sol\":6187:6201  rawSupply == 0 */\n      sub\n        /* \"hopium/etf/main/etf-oracle.sol\":6183:6308  if (rawSupply == 0) {... */\n      tag_160\n      jumpi\n        /* \"hopium/etf/main/etf-oracle.sol\":6273:6297  _getEtfInitialPrice(etf) */\n      tag_161\n        /* \"hopium/etf/main/etf-oracle.sol\":6293:6296  etf */\n      dup7\n        /* \"hopium/etf/main/etf-oracle.sol\":6273:6292  _getEtfInitialPrice */\n      tag_162\n        /* \"hopium/etf/main/etf-oracle.sol\":6273:6297  _getEtfInitialPrice(etf) */\n      jump\t// in\n    tag_161:\n        /* \"hopium/etf/main/etf-oracle.sol\":6266:6297  return _getEtfInitialPrice(etf) */\n      swap4\n      pop\n      pop\n      pop\n      pop\n      jump(tag_146)\n        /* \"hopium/etf/main/etf-oracle.sol\":6183:6308  if (rawSupply == 0) {... */\n    tag_160:\n        /* \"hopium/etf/main/etf-oracle.sol\":6317:6338  uint256 supplyWhole18 */\n      0x00\n        /* \"hopium/etf/main/etf-oracle.sol\":6341:6372  _scaleTo1e18(rawSupply, etfDec) */\n      tag_163\n        /* \"hopium/etf/main/etf-oracle.sol\":6354:6363  rawSupply */\n      dup4\n        /* \"hopium/etf/main/etf-oracle.sol\":6365:6371  etfDec */\n      dup4\n        /* \"hopium/etf/main/etf-oracle.sol\":6341:6353  _scaleTo1e18 */\n      tag_164\n        /* \"hopium/etf/main/etf-oracle.sol\":6341:6372  _scaleTo1e18(rawSupply, etfDec) */\n      jump\t// in\n    tag_163:\n        /* \"hopium/etf/main/etf-oracle.sol\":6317:6372  uint256 supplyWhole18 = _scaleTo1e18(rawSupply, etfDec) */\n      swap1\n      pop\n        /* \"hopium/etf/main/etf-oracle.sol\":6437:6438  0 */\n      0x00\n        /* \"hopium/etf/main/etf-oracle.sol\":6420:6433  supplyWhole18 */\n      dup2\n        /* \"hopium/etf/main/etf-oracle.sol\":6420:6438  supplyWhole18 == 0 */\n      sub\n        /* \"hopium/etf/main/etf-oracle.sol\":6416:6448  if (supplyWhole18 == 0) return 0 */\n      tag_165\n      jumpi\n        /* \"hopium/etf/main/etf-oracle.sol\":6447:6448  0 */\n      0x00\n        /* \"hopium/etf/main/etf-oracle.sol\":6440:6448  return 0 */\n      swap5\n      pop\n      pop\n      pop\n      pop\n      pop\n      jump(tag_146)\n        /* \"hopium/etf/main/etf-oracle.sol\":6416:6448  if (supplyWhole18 == 0) return 0 */\n    tag_165:\n        /* \"hopium/etf/main/etf-oracle.sol\":6511:6535  uint256 totalWethValue18 */\n      0x00\n        /* \"hopium/etf/main/etf-oracle.sol\":6538:6567  _getEtfTvlWeth(etf, etfVault) */\n      tag_166\n        /* \"hopium/etf/main/etf-oracle.sol\":6553:6556  etf */\n      dup9\n        /* \"hopium/etf/main/etf-oracle.sol\":6558:6566  etfVault */\n      dup9\n        /* \"hopium/etf/main/etf-oracle.sol\":6538:6552  _getEtfTvlWeth */\n      tag_167\n        /* \"hopium/etf/main/etf-oracle.sol\":6538:6567  _getEtfTvlWeth(etf, etfVault) */\n      jump\t// in\n    tag_166:\n        /* \"hopium/etf/main/etf-oracle.sol\":6511:6567  uint256 totalWethValue18 = _getEtfTvlWeth(etf, etfVault) */\n      swap1\n      pop\n        /* \"hopium/etf/main/etf-oracle.sol\":6668:6721  FullMath.mulDiv(totalWethValue18, WAD, supplyWhole18) */\n      tag_168\n        /* \"hopium/etf/main/etf-oracle.sol\":6684:6700  totalWethValue18 */\n      dup2\n        /* \"hopium/etf/main/etf-oracle.sol\":494:498  1e18 */\n      0x0de0b6b3a7640000\n        /* \"hopium/etf/main/etf-oracle.sol\":6707:6720  supplyWhole18 */\n      dup5\n        /* \"hopium/etf/main/etf-oracle.sol\":6668:6683  FullMath.mulDiv */\n      tag_169\n        /* \"hopium/etf/main/etf-oracle.sol\":6668:6721  FullMath.mulDiv(totalWethValue18, WAD, supplyWhole18) */\n      jump\t// in\n    tag_168:\n        /* \"hopium/etf/main/etf-oracle.sol\":6661:6721  return FullMath.mulDiv(totalWethValue18, WAD, supplyWhole18) */\n      swap6\n      pop\n      pop\n      pop\n      pop\n      pop\n      pop\n        /* \"hopium/etf/main/etf-oracle.sol\":5803:6728  function _getEtfWethPrice(uint256 etfId, Etf memory etf, address etfVault) internal view returns (uint256) {... */\n    tag_146:\n      swap4\n      swap3\n      pop\n      pop\n      pop\n      jump\t// out\n        /* \"hopium/etf/main/etf-oracle.sol\":1486:1867  function _convertWethToUsd(uint256 wethAmount18) internal view returns (uint256 usdAmount18) {... */\n    tag_78:\n        /* \"hopium/etf/main/etf-oracle.sol\":1558:1577  uint256 usdAmount18 */\n      0x00\n        /* \"hopium/etf/main/etf-oracle.sol\":1609:1610  0 */\n      0x00\n        /* \"hopium/etf/main/etf-oracle.sol\":1593:1605  wethAmount18 */\n      dup3\n        /* \"hopium/etf/main/etf-oracle.sol\":1593:1610  wethAmount18 == 0 */\n      sub\n        /* \"hopium/etf/main/etf-oracle.sol\":1589:1620  if (wethAmount18 == 0) return 0 */\n      tag_171\n      jumpi\n        /* \"hopium/etf/main/etf-oracle.sol\":1619:1620  0 */\n      0x00\n        /* \"hopium/etf/main/etf-oracle.sol\":1612:1620  return 0 */\n      swap1\n      pop\n      jump(tag_170)\n        /* \"hopium/etf/main/etf-oracle.sol\":1589:1620  if (wethAmount18 == 0) return 0 */\n    tag_171:\n        /* \"hopium/etf/main/etf-oracle.sol\":1630:1652  uint256 wethUsdPrice18 */\n      0x00\n        /* \"hopium/etf/main/etf-oracle.sol\":1655:1673  getUniswapOracle() */\n      tag_172\n        /* \"hopium/etf/main/etf-oracle.sol\":1655:1671  getUniswapOracle */\n      tag_173\n        /* \"hopium/etf/main/etf-oracle.sol\":1655:1673  getUniswapOracle() */\n      jump\t// in\n    tag_172:\n        /* \"hopium/etf/main/etf-oracle.sol\":1655:1689  getUniswapOracle().getWethUsdPrice */\n      0xffffffffffffffffffffffffffffffffffffffff\n      and\n      0x6855e939\n        /* \"hopium/etf/main/etf-oracle.sol\":1655:1691  getUniswapOracle().getWethUsdPrice() */\n      mload(0x40)\n      dup2\n      0xffffffff\n      and\n      0xe0\n      shl\n      dup2\n      mstore\n      0x04\n      add\n      0x20\n      mload(0x40)\n      dup1\n      dup4\n      sub\n      dup2\n      dup7\n      gas\n      staticcall\n      iszero\n      dup1\n      iszero\n      tag_175\n      jumpi\n      returndatacopy(0x00, 0x00, returndatasize)\n      revert(0x00, returndatasize)\n    tag_175:\n      pop\n      pop\n      pop\n      pop\n      mload(0x40)\n      returndatasize\n      not(0x1f)\n      0x1f\n      dup3\n      add\n      and\n      dup3\n      add\n      dup1\n      0x40\n      mstore\n      pop\n      dup2\n      add\n      swap1\n      tag_176\n      swap2\n      swap1\n      tag_155\n      jump\t// in\n    tag_176:\n        /* \"hopium/etf/main/etf-oracle.sol\":1630:1691  uint256 wethUsdPrice18 = getUniswapOracle().getWethUsdPrice() */\n      swap1\n      pop\n        /* \"hopium/etf/main/etf-oracle.sol\":1747:1748  0 */\n      0x00\n        /* \"hopium/etf/main/etf-oracle.sol\":1729:1743  wethUsdPrice18 */\n      dup2\n        /* \"hopium/etf/main/etf-oracle.sol\":1729:1748  wethUsdPrice18 == 0 */\n      sub\n        /* \"hopium/etf/main/etf-oracle.sol\":1725:1758  if (wethUsdPrice18 == 0) return 0 */\n      tag_177\n      jumpi\n        /* \"hopium/etf/main/etf-oracle.sol\":1757:1758  0 */\n      0x00\n        /* \"hopium/etf/main/etf-oracle.sol\":1750:1758  return 0 */\n      swap2\n      pop\n      pop\n      jump(tag_170)\n        /* \"hopium/etf/main/etf-oracle.sol\":1725:1758  if (wethUsdPrice18 == 0) return 0 */\n    tag_177:\n        /* \"hopium/etf/main/etf-oracle.sol\":1810:1860  FullMath.mulDiv(wethAmount18, wethUsdPrice18, WAD) */\n      tag_178\n        /* \"hopium/etf/main/etf-oracle.sol\":1826:1838  wethAmount18 */\n      dup4\n        /* \"hopium/etf/main/etf-oracle.sol\":1840:1854  wethUsdPrice18 */\n      dup3\n        /* \"hopium/etf/main/etf-oracle.sol\":494:498  1e18 */\n      0x0de0b6b3a7640000\n        /* \"hopium/etf/main/etf-oracle.sol\":1810:1825  FullMath.mulDiv */\n      tag_169\n        /* \"hopium/etf/main/etf-oracle.sol\":1810:1860  FullMath.mulDiv(wethAmount18, wethUsdPrice18, WAD) */\n      jump\t// in\n    tag_178:\n        /* \"hopium/etf/main/etf-oracle.sol\":1803:1860  return FullMath.mulDiv(wethAmount18, wethUsdPrice18, WAD) */\n      swap2\n      pop\n      pop\n        /* \"hopium/etf/main/etf-oracle.sol\":1486:1867  function _convertWethToUsd(uint256 wethAmount18) internal view returns (uint256 usdAmount18) {... */\n    tag_170:\n      swap2\n      swap1\n      pop\n      jump\t// out\n        /* \"hopium/etf/main/etf-oracle.sol\":1936:3510  function _snapshotVault(Etf memory etf, address etfVault)... */\n    tag_86:\n        /* \"hopium/etf/main/etf-oracle.sol\":2041:2060  Snapshot[] memory s */\n      0x60\n        /* \"hopium/etf/main/etf-oracle.sol\":2062:2080  uint256 etfTvlWeth */\n      0x00\n        /* \"hopium/etf/main/etf-oracle.sol\":2096:2105  uint256 n */\n      0x00\n        /* \"hopium/etf/main/etf-oracle.sol\":2108:2111  etf */\n      dup5\n        /* \"hopium/etf/main/etf-oracle.sol\":2108:2118  etf.assets */\n      0x40\n      add\n      mload\n        /* \"hopium/etf/main/etf-oracle.sol\":2108:2125  etf.assets.length */\n      mload\n        /* \"hopium/etf/main/etf-oracle.sol\":2096:2125  uint256 n = etf.assets.length */\n      swap1\n      pop\n        /* \"hopium/etf/main/etf-oracle.sol\":2154:2155  n */\n      dup1\n        /* \"hopium/etf/main/etf-oracle.sol\":2139:2156  new Snapshot[](n) */\n      0xffffffffffffffff\n      dup2\n      gt\n      iszero\n      tag_180\n      jumpi\n      tag_181\n      tag_182\n      jump\t// in\n    tag_181:\n    tag_180:\n      mload(0x40)\n      swap1\n      dup1\n      dup3\n      mstore\n      dup1\n      0x20\n      mul\n      0x20\n      add\n      dup3\n      add\n      0x40\n      mstore\n      dup1\n      iszero\n      tag_183\n      jumpi\n      dup2\n      0x20\n      add\n    tag_184:\n      tag_185\n      tag_186\n      jump\t// in\n    tag_185:\n      dup2\n      mstore\n      0x20\n      add\n      swap1\n      0x01\n      swap1\n      sub\n      swap1\n      dup2\n      tag_184\n      jumpi\n      swap1\n      pop\n    tag_183:\n      pop\n        /* \"hopium/etf/main/etf-oracle.sol\":2135:2156  s = new Snapshot[](n) */\n      swap3\n      pop\n        /* \"hopium/etf/main/etf-oracle.sol\":2167:2188  IUniswapOracle oracle */\n      0x00\n        /* \"hopium/etf/main/etf-oracle.sol\":2191:2209  getUniswapOracle() */\n      tag_187\n        /* \"hopium/etf/main/etf-oracle.sol\":2191:2207  getUniswapOracle */\n      tag_173\n        /* \"hopium/etf/main/etf-oracle.sol\":2191:2209  getUniswapOracle() */\n      jump\t// in\n    tag_187:\n        /* \"hopium/etf/main/etf-oracle.sol\":2167:2209  IUniswapOracle oracle = getUniswapOracle() */\n      swap1\n      pop\n        /* \"hopium/etf/main/etf-oracle.sol\":2310:2319  uint256 i */\n      0x00\n        /* \"hopium/etf/main/etf-oracle.sol\":2322:2323  0 */\n      0x00\n        /* \"hopium/etf/main/etf-oracle.sol\":2310:2323  uint256 i = 0 */\n      swap1\n      pop\n        /* \"hopium/etf/main/etf-oracle.sol\":2305:3124  for (uint256 i = 0; i < n; ++i) {... */\n    tag_188:\n        /* \"hopium/etf/main/etf-oracle.sol\":2329:2330  n */\n      dup3\n        /* \"hopium/etf/main/etf-oracle.sol\":2325:2326  i */\n      dup2\n        /* \"hopium/etf/main/etf-oracle.sol\":2325:2330  i < n */\n      lt\n        /* \"hopium/etf/main/etf-oracle.sol\":2305:3124  for (uint256 i = 0; i < n; ++i) {... */\n      iszero\n      tag_189\n      jumpi\n        /* \"hopium/etf/main/etf-oracle.sol\":2355:2364  address t */\n      0x00\n        /* \"hopium/etf/main/etf-oracle.sol\":2367:2370  etf */\n      dup8\n        /* \"hopium/etf/main/etf-oracle.sol\":2367:2377  etf.assets */\n      0x40\n      add\n      mload\n        /* \"hopium/etf/main/etf-oracle.sol\":2378:2379  i */\n      dup3\n        /* \"hopium/etf/main/etf-oracle.sol\":2367:2380  etf.assets[i] */\n      dup2\n      mload\n      dup2\n      lt\n      tag_191\n      jumpi\n      tag_192\n      tag_193\n      jump\t// in\n    tag_192:\n    tag_191:\n      0x20\n      mul\n      0x20\n      add\n      add\n      mload\n        /* \"hopium/etf/main/etf-oracle.sol\":2367:2393  etf.assets[i].tokenAddress */\n      0x00\n      add\n      mload\n        /* \"hopium/etf/main/etf-oracle.sol\":2355:2393  address t = etf.assets[i].tokenAddress */\n      swap1\n      pop\n        /* \"hopium/etf/main/etf-oracle.sol\":2411:2420  uint8   d */\n      0x00\n        /* \"hopium/etf/main/etf-oracle.sol\":2438:2439  t */\n      dup2\n        /* \"hopium/etf/main/etf-oracle.sol\":2423:2449  IERC20Metadata(t).decimals */\n      0xffffffffffffffffffffffffffffffffffffffff\n      and\n      0x313ce567\n        /* \"hopium/etf/main/etf-oracle.sol\":2423:2451  IERC20Metadata(t).decimals() */\n      mload(0x40)\n      dup2\n      0xffffffff\n      and\n      0xe0\n      shl\n      dup2\n      mstore\n      0x04\n      add\n      0x20\n      mload(0x40)\n      dup1\n      dup4\n      sub\n      dup2\n      dup7\n      gas\n      staticcall\n      iszero\n      dup1\n      iszero\n      tag_195\n      jumpi\n      returndatacopy(0x00, 0x00, returndatasize)\n      revert(0x00, returndatasize)\n    tag_195:\n      pop\n      pop\n      pop\n      pop\n      mload(0x40)\n      returndatasize\n      not(0x1f)\n      0x1f\n      dup3\n      add\n      and\n      dup3\n      add\n      dup1\n      0x40\n      mstore\n      pop\n      dup2\n      add\n      swap1\n      tag_196\n      swap2\n      swap1\n      tag_159\n      jump\t// in\n    tag_196:\n        /* \"hopium/etf/main/etf-oracle.sol\":2411:2451  uint8   d = IERC20Metadata(t).decimals() */\n      swap1\n      pop\n        /* \"hopium/etf/main/etf-oracle.sol\":2469:2480  uint256 bal */\n      0x00\n        /* \"hopium/etf/main/etf-oracle.sol\":2490:2491  t */\n      dup3\n        /* \"hopium/etf/main/etf-oracle.sol\":2483:2502  IERC20(t).balanceOf */\n      0xffffffffffffffffffffffffffffffffffffffff\n      and\n      0x70a08231\n        /* \"hopium/etf/main/etf-oracle.sol\":2503:2511  etfVault */\n      dup11\n        /* \"hopium/etf/main/etf-oracle.sol\":2483:2512  IERC20(t).balanceOf(etfVault) */\n      mload(0x40)\n      dup3\n      0xffffffff\n      and\n      0xe0\n      shl\n      dup2\n      mstore\n      0x04\n      add\n      tag_197\n      swap2\n      swap1\n      tag_36\n      jump\t// in\n    tag_197:\n      0x20\n      mload(0x40)\n      dup1\n      dup4\n      sub\n      dup2\n      dup7\n      gas\n      staticcall\n      iszero\n      dup1\n      iszero\n      tag_199\n      jumpi\n      returndatacopy(0x00, 0x00, returndatasize)\n      revert(0x00, returndatasize)\n    tag_199:\n      pop\n      pop\n      pop\n      pop\n      mload(0x40)\n      returndatasize\n      not(0x1f)\n      0x1f\n      dup3\n      add\n      and\n      dup3\n      add\n      dup1\n      0x40\n      mstore\n      pop\n      dup2\n      add\n      swap1\n      tag_200\n      swap2\n      swap1\n      tag_155\n      jump\t// in\n    tag_200:\n        /* \"hopium/etf/main/etf-oracle.sol\":2469:2512  uint256 bal = IERC20(t).balanceOf(etfVault) */\n      swap1\n      pop\n        /* \"hopium/etf/main/etf-oracle.sol\":2530:2539  uint256 p */\n      0x00\n        /* \"hopium/etf/main/etf-oracle.sol\":2544:2550  oracle */\n      dup6\n        /* \"hopium/etf/main/etf-oracle.sol\":2544:2568  oracle.getTokenWethPrice */\n      0xffffffffffffffffffffffffffffffffffffffff\n      and\n      0x7b49b49d\n        /* \"hopium/etf/main/etf-oracle.sol\":2569:2570  t */\n      dup6\n        /* \"hopium/etf/main/etf-oracle.sol\":2544:2571  oracle.getTokenWethPrice(t) */\n      mload(0x40)\n      dup3\n      0xffffffff\n      and\n      0xe0\n      shl\n      dup2\n      mstore\n      0x04\n      add\n      tag_201\n      swap2\n      swap1\n      tag_36\n      jump\t// in\n    tag_201:\n      0x20\n      mload(0x40)\n      dup1\n      dup4\n      sub\n      dup2\n      dup7\n      gas\n      staticcall\n      iszero\n      dup1\n      iszero\n      tag_203\n      jumpi\n      returndatacopy(0x00, 0x00, returndatasize)\n      revert(0x00, returndatasize)\n    tag_203:\n      pop\n      pop\n      pop\n      pop\n      mload(0x40)\n      returndatasize\n      not(0x1f)\n      0x1f\n      dup3\n      add\n      and\n      dup3\n      add\n      dup1\n      0x40\n      mstore\n      pop\n      dup2\n      add\n      swap1\n      tag_204\n      swap2\n      swap1\n      tag_155\n      jump\t// in\n    tag_204:\n        /* \"hopium/etf/main/etf-oracle.sol\":2530:2571  uint256 p   = oracle.getTokenWethPrice(t) */\n      swap1\n      pop\n        /* \"hopium/etf/main/etf-oracle.sol\":2675:2684  uint256 v */\n      0x00\n        /* \"hopium/etf/main/etf-oracle.sol\":2695:2696  0 */\n      0x00\n        /* \"hopium/etf/main/etf-oracle.sol\":2688:2691  bal */\n      dup4\n        /* \"hopium/etf/main/etf-oracle.sol\":2688:2696  bal == 0 */\n      eq\n        /* \"hopium/etf/main/etf-oracle.sol\":2688:2706  bal == 0 || p == 0 */\n      dup1\n      tag_205\n      jumpi\n      pop\n        /* \"hopium/etf/main/etf-oracle.sol\":2705:2706  0 */\n      0x00\n        /* \"hopium/etf/main/etf-oracle.sol\":2700:2701  p */\n      dup3\n        /* \"hopium/etf/main/etf-oracle.sol\":2700:2706  p == 0 */\n      eq\n        /* \"hopium/etf/main/etf-oracle.sol\":2688:2706  bal == 0 || p == 0 */\n    tag_205:\n        /* \"hopium/etf/main/etf-oracle.sol\":2687:2746  (bal == 0 || p == 0) ? 0 : FullMath.mulDiv(bal, p, 10 ** d) */\n      tag_206\n      jumpi\n        /* \"hopium/etf/main/etf-oracle.sol\":2714:2746  FullMath.mulDiv(bal, p, 10 ** d) */\n      tag_207\n        /* \"hopium/etf/main/etf-oracle.sol\":2730:2733  bal */\n      dup4\n        /* \"hopium/etf/main/etf-oracle.sol\":2735:2736  p */\n      dup4\n        /* \"hopium/etf/main/etf-oracle.sol\":2744:2745  d */\n      dup7\n        /* \"hopium/etf/main/etf-oracle.sol\":2738:2745  10 ** d */\n      0xff\n      and\n        /* \"hopium/etf/main/etf-oracle.sol\":2738:2740  10 */\n      0x0a\n        /* \"hopium/etf/main/etf-oracle.sol\":2738:2745  10 ** d */\n      exp\n        /* \"hopium/etf/main/etf-oracle.sol\":2714:2729  FullMath.mulDiv */\n      tag_169\n        /* \"hopium/etf/main/etf-oracle.sol\":2714:2746  FullMath.mulDiv(bal, p, 10 ** d) */\n      jump\t// in\n    tag_207:\n        /* \"hopium/etf/main/etf-oracle.sol\":2687:2746  (bal == 0 || p == 0) ? 0 : FullMath.mulDiv(bal, p, 10 ** d) */\n      jump(tag_208)\n    tag_206:\n        /* \"hopium/etf/main/etf-oracle.sol\":2710:2711  0 */\n      0x00\n        /* \"hopium/etf/main/etf-oracle.sol\":2687:2746  (bal == 0 || p == 0) ? 0 : FullMath.mulDiv(bal, p, 10 ** d) */\n    tag_208:\n        /* \"hopium/etf/main/etf-oracle.sol\":2675:2746  uint256 v = (bal == 0 || p == 0) ? 0 : FullMath.mulDiv(bal, p, 10 ** d) */\n      swap1\n      pop\n        /* \"hopium/etf/main/etf-oracle.sol\":2772:3075  Snapshot({... */\n      mload(0x40)\n      dup1\n      0xc0\n      add\n      0x40\n      mstore\n      dup1\n        /* \"hopium/etf/main/etf-oracle.sol\":2821:2822  t */\n      dup7\n        /* \"hopium/etf/main/etf-oracle.sol\":2772:3075  Snapshot({... */\n      0xffffffffffffffffffffffffffffffffffffffff\n      and\n      dup2\n      mstore\n      0x20\n      add\n        /* \"hopium/etf/main/etf-oracle.sol\":2862:2863  d */\n      dup6\n        /* \"hopium/etf/main/etf-oracle.sol\":2772:3075  Snapshot({... */\n      0xff\n      and\n      dup2\n      mstore\n      0x20\n      add\n        /* \"hopium/etf/main/etf-oracle.sol\":2903:2904  0 */\n      0x00\n        /* \"hopium/etf/main/etf-oracle.sol\":2772:3075  Snapshot({... */\n      0xffff\n      and\n      dup2\n      mstore\n      0x20\n      add\n        /* \"hopium/etf/main/etf-oracle.sol\":2971:2974  bal */\n      dup5\n        /* \"hopium/etf/main/etf-oracle.sol\":2772:3075  Snapshot({... */\n      dup2\n      mstore\n      0x20\n      add\n        /* \"hopium/etf/main/etf-oracle.sol\":3014:3015  p */\n      dup4\n        /* \"hopium/etf/main/etf-oracle.sol\":2772:3075  Snapshot({... */\n      dup2\n      mstore\n      0x20\n      add\n        /* \"hopium/etf/main/etf-oracle.sol\":3055:3056  v */\n      dup3\n        /* \"hopium/etf/main/etf-oracle.sol\":2772:3075  Snapshot({... */\n      dup2\n      mstore\n      pop\n        /* \"hopium/etf/main/etf-oracle.sol\":2765:2766  s */\n      dup11\n        /* \"hopium/etf/main/etf-oracle.sol\":2767:2768  i */\n      dup8\n        /* \"hopium/etf/main/etf-oracle.sol\":2765:2769  s[i] */\n      dup2\n      mload\n      dup2\n      lt\n      tag_209\n      jumpi\n      tag_210\n      tag_193\n      jump\t// in\n    tag_210:\n    tag_209:\n      0x20\n      mul\n      0x20\n      add\n      add\n        /* \"hopium/etf/main/etf-oracle.sol\":2765:3075  s[i] = Snapshot({... */\n      dup2\n      swap1\n      mstore\n      pop\n        /* \"hopium/etf/main/etf-oracle.sol\":3108:3109  v */\n      dup1\n        /* \"hopium/etf/main/etf-oracle.sol\":3094:3109  etfTvlWeth += v */\n      dup10\n      add\n      swap9\n      pop\n        /* \"hopium/etf/main/etf-oracle.sol\":2337:3124  {... */\n      pop\n      pop\n      pop\n      pop\n      pop\n        /* \"hopium/etf/main/etf-oracle.sol\":2332:2335  ++i */\n      dup1\n      0x01\n      add\n      swap1\n      pop\n        /* \"hopium/etf/main/etf-oracle.sol\":2305:3124  for (uint256 i = 0; i < n; ++i) {... */\n      jump(tag_188)\n    tag_189:\n      pop\n        /* \"hopium/etf/main/etf-oracle.sol\":3228:3229  0 */\n      0x00\n        /* \"hopium/etf/main/etf-oracle.sol\":3215:3225  etfTvlWeth */\n      dup4\n        /* \"hopium/etf/main/etf-oracle.sol\":3215:3229  etfTvlWeth > 0 */\n      gt\n        /* \"hopium/etf/main/etf-oracle.sol\":3211:3504  if (etfTvlWeth > 0) {... */\n      iszero\n      tag_211\n      jumpi\n        /* \"hopium/etf/main/etf-oracle.sol\":3278:3287  uint256 i */\n      0x00\n        /* \"hopium/etf/main/etf-oracle.sol\":3290:3291  0 */\n      0x00\n        /* \"hopium/etf/main/etf-oracle.sol\":3278:3291  uint256 i = 0 */\n      swap1\n      pop\n        /* \"hopium/etf/main/etf-oracle.sol\":3273:3480  for (uint256 i = 0; i < n; ++i) {... */\n    tag_212:\n        /* \"hopium/etf/main/etf-oracle.sol\":3297:3298  n */\n      dup3\n        /* \"hopium/etf/main/etf-oracle.sol\":3293:3294  i */\n      dup2\n        /* \"hopium/etf/main/etf-oracle.sol\":3293:3298  i < n */\n      lt\n        /* \"hopium/etf/main/etf-oracle.sol\":3273:3480  for (uint256 i = 0; i < n; ++i) {... */\n      iszero\n      tag_213\n      jumpi\n        /* \"hopium/etf/main/etf-oracle.sol\":3429:3439  etfTvlWeth */\n      dup4\n        /* \"hopium/common/types/bips.sol\":97:103  10_000 */\n      0x2710\n        /* \"hopium/etf/main/etf-oracle.sol\":3381:3382  s */\n      dup7\n        /* \"hopium/etf/main/etf-oracle.sol\":3383:3384  i */\n      dup4\n        /* \"hopium/etf/main/etf-oracle.sol\":3381:3385  s[i] */\n      dup2\n      mload\n      dup2\n      lt\n      tag_215\n      jumpi\n      tag_216\n      tag_193\n      jump\t// in\n    tag_216:\n    tag_215:\n      0x20\n      mul\n      0x20\n      add\n      add\n      mload\n        /* \"hopium/etf/main/etf-oracle.sol\":3381:3402  s[i].tokenValueWeth18 */\n      0xa0\n      add\n      mload\n        /* \"hopium/etf/main/etf-oracle.sol\":3381:3425  s[i].tokenValueWeth18 * HUNDRED_PERCENT_BIPS */\n      mul\n        /* \"hopium/etf/main/etf-oracle.sol\":3380:3439  (s[i].tokenValueWeth18 * HUNDRED_PERCENT_BIPS) / etfTvlWeth */\n      dup2\n      tag_217\n      jumpi\n      tag_218\n      tag_219\n      jump\t// in\n    tag_218:\n    tag_217:\n      div\n        /* \"hopium/etf/main/etf-oracle.sol\":3327:3328  s */\n      dup6\n        /* \"hopium/etf/main/etf-oracle.sol\":3329:3330  i */\n      dup3\n        /* \"hopium/etf/main/etf-oracle.sol\":3327:3331  s[i] */\n      dup2\n      mload\n      dup2\n      lt\n      tag_220\n      jumpi\n      tag_221\n      tag_193\n      jump\t// in\n    tag_221:\n    tag_220:\n      0x20\n      mul\n      0x20\n      add\n      add\n      mload\n        /* \"hopium/etf/main/etf-oracle.sol\":3327:3345  s[i].currentWeight */\n      0x40\n      add\n        /* \"hopium/etf/main/etf-oracle.sol\":3327:3461  s[i].currentWeight = uint16(... */\n      swap1\n      0xffff\n      and\n      swap1\n      dup2\n      0xffff\n      and\n      dup2\n      mstore\n      pop\n      pop\n        /* \"hopium/etf/main/etf-oracle.sol\":3300:3303  ++i */\n      dup1\n      0x01\n      add\n      swap1\n      pop\n        /* \"hopium/etf/main/etf-oracle.sol\":3273:3480  for (uint256 i = 0; i < n; ++i) {... */\n      jump(tag_212)\n    tag_213:\n      pop\n        /* \"hopium/etf/main/etf-oracle.sol\":3211:3504  if (etfTvlWeth > 0) {... */\n    tag_211:\n        /* \"hopium/etf/main/etf-oracle.sol\":2086:3510  {... */\n      pop\n      pop\n        /* \"hopium/etf/main/etf-oracle.sol\":1936:3510  function _snapshotVault(Etf memory etf, address etfVault)... */\n      swap3\n      pop\n      swap3\n      swap1\n      pop\n      jump\t// out\n        /* \"hopium/etf/main/etf-oracle.sol\":8830:9116  function _getStats(Etf memory etf) internal view returns (Stats memory s) {... */\n    tag_97:\n        /* \"hopium/etf/main/etf-oracle.sol\":8888:8902  Stats memory s */\n      tag_222\n      tag_88\n      jump\t// in\n    tag_222:\n        /* \"hopium/etf/main/etf-oracle.sol\":8914:8933  IUniswapOracle uniO */\n      0x00\n        /* \"hopium/etf/main/etf-oracle.sol\":8936:8954  getUniswapOracle() */\n      tag_224\n        /* \"hopium/etf/main/etf-oracle.sol\":8936:8952  getUniswapOracle */\n      tag_173\n        /* \"hopium/etf/main/etf-oracle.sol\":8936:8954  getUniswapOracle() */\n      jump\t// in\n    tag_224:\n        /* \"hopium/etf/main/etf-oracle.sol\":8914:8954  IUniswapOracle uniO = getUniswapOracle() */\n      swap1\n      pop\n        /* \"hopium/etf/main/etf-oracle.sol\":8988:9032  _sumPerAsset(etf, uniO.getTokenLiquidityUsd) */\n      tag_225\n        /* \"hopium/etf/main/etf-oracle.sol\":9001:9004  etf */\n      dup4\n        /* \"hopium/etf/main/etf-oracle.sol\":9006:9010  uniO */\n      dup3\n        /* \"hopium/etf/main/etf-oracle.sol\":9006:9031  uniO.getTokenLiquidityUsd */\n      0xffffffffffffffffffffffffffffffffffffffff\n      and\n      0x57b6c133\n        /* \"hopium/etf/main/etf-oracle.sol\":8988:9000  _sumPerAsset */\n      tag_226\n        /* \"hopium/etf/main/etf-oracle.sol\":8988:9032  _sumPerAsset(etf, uniO.getTokenLiquidityUsd) */\n      jump\t// in\n    tag_225:\n        /* \"hopium/etf/main/etf-oracle.sol\":8965:8966  s */\n      dup3\n        /* \"hopium/etf/main/etf-oracle.sol\":8965:8985  s.assetsLiquidityUsd */\n      0x00\n      add\n        /* \"hopium/etf/main/etf-oracle.sol\":8965:9032  s.assetsLiquidityUsd = _sumPerAsset(etf, uniO.getTokenLiquidityUsd) */\n      dup2\n      dup2\n      mstore\n      pop\n      pop\n        /* \"hopium/etf/main/etf-oracle.sol\":9065:9109  _sumPerAsset(etf, uniO.getTokenMarketCapUsd) */\n      tag_227\n        /* \"hopium/etf/main/etf-oracle.sol\":9078:9081  etf */\n      dup4\n        /* \"hopium/etf/main/etf-oracle.sol\":9083:9087  uniO */\n      dup3\n        /* \"hopium/etf/main/etf-oracle.sol\":9083:9108  uniO.getTokenMarketCapUsd */\n      0xffffffffffffffffffffffffffffffffffffffff\n      and\n      0x69a2e17d\n        /* \"hopium/etf/main/etf-oracle.sol\":9065:9077  _sumPerAsset */\n      tag_226\n        /* \"hopium/etf/main/etf-oracle.sol\":9065:9109  _sumPerAsset(etf, uniO.getTokenMarketCapUsd) */\n      jump\t// in\n    tag_227:\n        /* \"hopium/etf/main/etf-oracle.sol\":9042:9043  s */\n      dup3\n        /* \"hopium/etf/main/etf-oracle.sol\":9042:9057  s.assetsMcapUsd */\n      0x20\n      add\n        /* \"hopium/etf/main/etf-oracle.sol\":9042:9109  s.assetsMcapUsd      = _sumPerAsset(etf, uniO.getTokenMarketCapUsd) */\n      dup2\n      dup2\n      mstore\n      pop\n      pop\n        /* \"hopium/etf/main/etf-oracle.sol\":8904:9116  {... */\n      pop\n        /* \"hopium/etf/main/etf-oracle.sol\":8830:9116  function _getStats(Etf memory etf) internal view returns (Stats memory s) {... */\n      swap2\n      swap1\n      pop\n      jump\t// out\n        /* \"hopium/common/interface/imDirectory.sol\":589:1050  function _setDirectory(address _directory) internal {... */\n    tag_133:\n        /* \"hopium/common/interface/imDirectory.sol\":681:682  0 */\n      0x00\n        /* \"hopium/common/interface/imDirectory.sol\":659:683  _directory != address(0) */\n      0xffffffffffffffffffffffffffffffffffffffff\n      and\n        /* \"hopium/common/interface/imDirectory.sol\":659:669  _directory */\n      dup2\n        /* \"hopium/common/interface/imDirectory.sol\":659:683  _directory != address(0) */\n      0xffffffffffffffffffffffffffffffffffffffff\n      and\n      sub\n        /* \"hopium/common/interface/imDirectory.sol\":651:720  require(_directory != address(0), \"Directory cannot be zero address\") */\n      tag_229\n      jumpi\n      mload(0x40)\n      0x08c379a000000000000000000000000000000000000000000000000000000000\n      dup2\n      mstore\n      0x04\n      add\n      tag_230\n      swap1\n      tag_231\n      jump\t// in\n    tag_230:\n      mload(0x40)\n      dup1\n      swap2\n      sub\n      swap1\n      revert\n    tag_229:\n        /* \"hopium/common/interface/imDirectory.sol\":763:764  0 */\n      0x00\n        /* \"hopium/common/interface/imDirectory.sol\":738:748  _directory */\n      dup2\n        /* \"hopium/common/interface/imDirectory.sol\":738:760  _directory.code.length */\n      0xffffffffffffffffffffffffffffffffffffffff\n      and\n      extcodesize\n        /* \"hopium/common/interface/imDirectory.sol\":738:764  _directory.code.length > 0 */\n      gt\n        /* \"hopium/common/interface/imDirectory.sol\":730:797  require(_directory.code.length > 0, \"Directory must be a contract\") */\n      tag_232\n      jumpi\n      mload(0x40)\n      0x08c379a000000000000000000000000000000000000000000000000000000000\n      dup2\n      mstore\n      0x04\n      add\n      tag_233\n      swap1\n      tag_234\n      jump\t// in\n    tag_233:\n      mload(0x40)\n      dup1\n      swap2\n      sub\n      swap1\n      revert\n    tag_232:\n        /* \"hopium/common/interface/imDirectory.sol\":861:871  _directory */\n      dup1\n        /* \"hopium/common/interface/imDirectory.sol\":850:878  IDirectory(_directory).owner */\n      0xffffffffffffffffffffffffffffffffffffffff\n      and\n      0x8da5cb5b\n        /* \"hopium/common/interface/imDirectory.sol\":850:880  IDirectory(_directory).owner() */\n      mload(0x40)\n      dup2\n      0xffffffff\n      and\n      0xe0\n      shl\n      dup2\n      mstore\n      0x04\n      add\n      0x20\n      mload(0x40)\n      dup1\n      dup4\n      sub\n      dup2\n      dup7\n      gas\n      staticcall\n      swap3\n      pop\n      pop\n      pop\n      dup1\n      iszero\n      tag_235\n      jumpi\n      pop\n      mload(0x40)\n      returndatasize\n      not(0x1f)\n      0x1f\n      dup3\n      add\n      and\n      dup3\n      add\n      dup1\n      0x40\n      mstore\n      pop\n      dup2\n      add\n      swap1\n      tag_236\n      swap2\n      swap1\n      tag_104\n      jump\t// in\n    tag_236:\n      0x01\n    tag_235:\n        /* \"hopium/common/interface/imDirectory.sol\":846:1044  try IDirectory(_directory).owner() returns (address) {... */\n      tag_237\n      jumpi\n        /* \"hopium/common/interface/imDirectory.sol\":979:1033  revert(\"Directory address does not implement owner()\") */\n      mload(0x40)\n      0x08c379a000000000000000000000000000000000000000000000000000000000\n      dup2\n      mstore\n      0x04\n      add\n      tag_241\n      swap1\n      tag_242\n      jump\t// in\n    tag_241:\n      mload(0x40)\n      dup1\n      swap2\n      sub\n      swap1\n      revert\n        /* \"hopium/common/interface/imDirectory.sol\":846:1044  try IDirectory(_directory).owner() returns (address) {... */\n    tag_237:\n        /* \"hopium/common/interface/imDirectory.sol\":936:946  _directory */\n      dup2\n        /* \"hopium/common/interface/imDirectory.sol\":913:922  Directory */\n      0x00\n      0x00\n        /* \"hopium/common/interface/imDirectory.sol\":913:947  Directory = IDirectory(_directory) */\n      0x0100\n      exp\n      dup2\n      sload\n      dup2\n      0xffffffffffffffffffffffffffffffffffffffff\n      mul\n      not\n      and\n      swap1\n      dup4\n      0xffffffffffffffffffffffffffffffffffffffff\n      and\n      mul\n      or\n      swap1\n      sstore\n      pop\n        /* \"hopium/common/interface/imDirectory.sol\":881:958  returns (address) {... */\n      pop\n        /* \"hopium/common/interface/imDirectory.sol\":589:1050  function _setDirectory(address _directory) internal {... */\n      pop\n      jump\t// out\n        /* \"hopium/etf/main/etf-oracle.sol\":3618:4741  function _snapshotVaultWithUsd(Etf memory etf, address etfVault)... */\n    tag_141:\n        /* \"hopium/etf/main/etf-oracle.sol\":3730:3756  SnapshotWithUsd[] memory s */\n      0x60\n        /* \"hopium/etf/main/etf-oracle.sol\":3758:3776  uint256 etfTvlWeth */\n      0x00\n        /* \"hopium/etf/main/etf-oracle.sol\":3778:3795  uint256 etfTvlUsd */\n      0x00\n        /* \"hopium/etf/main/etf-oracle.sol\":3812:3834  Snapshot[] memory snap */\n      0x00\n        /* \"hopium/etf/main/etf-oracle.sol\":3836:3851  uint256 tvlWeth */\n      0x00\n        /* \"hopium/etf/main/etf-oracle.sol\":3855:3884  _snapshotVault(etf, etfVault) */\n      tag_245\n        /* \"hopium/etf/main/etf-oracle.sol\":3870:3873  etf */\n      dup8\n        /* \"hopium/etf/main/etf-oracle.sol\":3875:3883  etfVault */\n      dup8\n        /* \"hopium/etf/main/etf-oracle.sol\":3855:3869  _snapshotVault */\n      tag_86\n        /* \"hopium/etf/main/etf-oracle.sol\":3855:3884  _snapshotVault(etf, etfVault) */\n      jump\t// in\n    tag_245:\n        /* \"hopium/etf/main/etf-oracle.sol\":3811:3884  (Snapshot[] memory snap, uint256 tvlWeth) = _snapshotVault(etf, etfVault) */\n      swap2\n      pop\n      swap2\n      pop\n        /* \"hopium/etf/main/etf-oracle.sol\":3908:3915  tvlWeth */\n      dup1\n        /* \"hopium/etf/main/etf-oracle.sol\":3895:3915  etfTvlWeth = tvlWeth */\n      swap4\n      pop\n        /* \"hopium/etf/main/etf-oracle.sol\":3938:3964  _convertWethToUsd(tvlWeth) */\n      tag_246\n        /* \"hopium/etf/main/etf-oracle.sol\":3956:3963  tvlWeth */\n      dup2\n        /* \"hopium/etf/main/etf-oracle.sol\":3938:3955  _convertWethToUsd */\n      tag_78\n        /* \"hopium/etf/main/etf-oracle.sol\":3938:3964  _convertWethToUsd(tvlWeth) */\n      jump\t// in\n    tag_246:\n        /* \"hopium/etf/main/etf-oracle.sol\":3925:3964  etfTvlUsd  = _convertWethToUsd(tvlWeth) */\n      swap3\n      pop\n        /* \"hopium/etf/main/etf-oracle.sol\":3975:3984  uint256 n */\n      0x00\n        /* \"hopium/etf/main/etf-oracle.sol\":3987:3991  snap */\n      dup3\n        /* \"hopium/etf/main/etf-oracle.sol\":3987:3998  snap.length */\n      mload\n        /* \"hopium/etf/main/etf-oracle.sol\":3975:3998  uint256 n = snap.length */\n      swap1\n      pop\n        /* \"hopium/etf/main/etf-oracle.sol\":4034:4035  n */\n      dup1\n        /* \"hopium/etf/main/etf-oracle.sol\":4012:4036  new SnapshotWithUsd[](n) */\n      0xffffffffffffffff\n      dup2\n      gt\n      iszero\n      tag_247\n      jumpi\n      tag_248\n      tag_182\n      jump\t// in\n    tag_248:\n    tag_247:\n      mload(0x40)\n      swap1\n      dup1\n      dup3\n      mstore\n      dup1\n      0x20\n      mul\n      0x20\n      add\n      dup3\n      add\n      0x40\n      mstore\n      dup1\n      iszero\n      tag_249\n      jumpi\n      dup2\n      0x20\n      add\n    tag_250:\n      tag_251\n      tag_252\n      jump\t// in\n    tag_251:\n      dup2\n      mstore\n      0x20\n      add\n      swap1\n      0x01\n      swap1\n      sub\n      swap1\n      dup2\n      tag_250\n      jumpi\n      swap1\n      pop\n    tag_249:\n      pop\n        /* \"hopium/etf/main/etf-oracle.sol\":4008:4036  s = new SnapshotWithUsd[](n) */\n      swap6\n      pop\n        /* \"hopium/etf/main/etf-oracle.sol\":4076:4085  uint256 i */\n      0x00\n        /* \"hopium/etf/main/etf-oracle.sol\":4088:4089  0 */\n      0x00\n        /* \"hopium/etf/main/etf-oracle.sol\":4076:4089  uint256 i = 0 */\n      swap1\n      pop\n        /* \"hopium/etf/main/etf-oracle.sol\":4071:4725  for (uint256 i = 0; i < n; ++i) {... */\n    tag_253:\n        /* \"hopium/etf/main/etf-oracle.sol\":4095:4096  n */\n      dup2\n        /* \"hopium/etf/main/etf-oracle.sol\":4091:4092  i */\n      dup2\n        /* \"hopium/etf/main/etf-oracle.sol\":4091:4096  i < n */\n      lt\n        /* \"hopium/etf/main/etf-oracle.sol\":4071:4725  for (uint256 i = 0; i < n; ++i) {... */\n      iszero\n      tag_254\n      jumpi\n        /* \"hopium/etf/main/etf-oracle.sol\":4128:4710  SnapshotWithUsd({... */\n      mload(0x40)\n      dup1\n      0x0100\n      add\n      0x40\n      mstore\n      dup1\n        /* \"hopium/etf/main/etf-oracle.sol\":4185:4189  snap */\n      dup6\n        /* \"hopium/etf/main/etf-oracle.sol\":4190:4191  i */\n      dup4\n        /* \"hopium/etf/main/etf-oracle.sol\":4185:4192  snap[i] */\n      dup2\n      mload\n      dup2\n      lt\n      tag_256\n      jumpi\n      tag_257\n      tag_193\n      jump\t// in\n    tag_257:\n    tag_256:\n      0x20\n      mul\n      0x20\n      add\n      add\n      mload\n        /* \"hopium/etf/main/etf-oracle.sol\":4185:4205  snap[i].tokenAddress */\n      0x00\n      add\n      mload\n        /* \"hopium/etf/main/etf-oracle.sol\":4128:4710  SnapshotWithUsd({... */\n      0xffffffffffffffffffffffffffffffffffffffff\n      and\n      dup2\n      mstore\n      0x20\n      add\n        /* \"hopium/etf/main/etf-oracle.sol\":4246:4250  snap */\n      dup6\n        /* \"hopium/etf/main/etf-oracle.sol\":4251:4252  i */\n      dup4\n        /* \"hopium/etf/main/etf-oracle.sol\":4246:4253  snap[i] */\n      dup2\n      mload\n      dup2\n      lt\n      tag_258\n      jumpi\n      tag_259\n      tag_193\n      jump\t// in\n    tag_259:\n    tag_258:\n      0x20\n      mul\n      0x20\n      add\n      add\n      mload\n        /* \"hopium/etf/main/etf-oracle.sol\":4246:4267  snap[i].tokenDecimals */\n      0x20\n      add\n      mload\n        /* \"hopium/etf/main/etf-oracle.sol\":4128:4710  SnapshotWithUsd({... */\n      0xff\n      and\n      dup2\n      mstore\n      0x20\n      add\n        /* \"hopium/etf/main/etf-oracle.sol\":4308:4312  snap */\n      dup6\n        /* \"hopium/etf/main/etf-oracle.sol\":4313:4314  i */\n      dup4\n        /* \"hopium/etf/main/etf-oracle.sol\":4308:4315  snap[i] */\n      dup2\n      mload\n      dup2\n      lt\n      tag_260\n      jumpi\n      tag_261\n      tag_193\n      jump\t// in\n    tag_261:\n    tag_260:\n      0x20\n      mul\n      0x20\n      add\n      add\n      mload\n        /* \"hopium/etf/main/etf-oracle.sol\":4308:4329  snap[i].currentWeight */\n      0x40\n      add\n      mload\n        /* \"hopium/etf/main/etf-oracle.sol\":4128:4710  SnapshotWithUsd({... */\n      0xffff\n      and\n      dup2\n      mstore\n      0x20\n      add\n        /* \"hopium/etf/main/etf-oracle.sol\":4370:4374  snap */\n      dup6\n        /* \"hopium/etf/main/etf-oracle.sol\":4375:4376  i */\n      dup4\n        /* \"hopium/etf/main/etf-oracle.sol\":4370:4377  snap[i] */\n      dup2\n      mload\n      dup2\n      lt\n      tag_262\n      jumpi\n      tag_263\n      tag_193\n      jump\t// in\n    tag_263:\n    tag_262:\n      0x20\n      mul\n      0x20\n      add\n      add\n      mload\n        /* \"hopium/etf/main/etf-oracle.sol\":4370:4393  snap[i].tokenRawBalance */\n      0x60\n      add\n      mload\n        /* \"hopium/etf/main/etf-oracle.sol\":4128:4710  SnapshotWithUsd({... */\n      dup2\n      mstore\n      0x20\n      add\n        /* \"hopium/etf/main/etf-oracle.sol\":4434:4438  snap */\n      dup6\n        /* \"hopium/etf/main/etf-oracle.sol\":4439:4440  i */\n      dup4\n        /* \"hopium/etf/main/etf-oracle.sol\":4434:4441  snap[i] */\n      dup2\n      mload\n      dup2\n      lt\n      tag_264\n      jumpi\n      tag_265\n      tag_193\n      jump\t// in\n    tag_265:\n    tag_264:\n      0x20\n      mul\n      0x20\n      add\n      add\n      mload\n        /* \"hopium/etf/main/etf-oracle.sol\":4434:4458  snap[i].tokenPriceWeth18 */\n      0x80\n      add\n      mload\n        /* \"hopium/etf/main/etf-oracle.sol\":4128:4710  SnapshotWithUsd({... */\n      dup2\n      mstore\n      0x20\n      add\n        /* \"hopium/etf/main/etf-oracle.sol\":4499:4542  _convertWethToUsd(snap[i].tokenPriceWeth18) */\n      tag_266\n        /* \"hopium/etf/main/etf-oracle.sol\":4517:4521  snap */\n      dup7\n        /* \"hopium/etf/main/etf-oracle.sol\":4522:4523  i */\n      dup5\n        /* \"hopium/etf/main/etf-oracle.sol\":4517:4524  snap[i] */\n      dup2\n      mload\n      dup2\n      lt\n      tag_267\n      jumpi\n      tag_268\n      tag_193\n      jump\t// in\n    tag_268:\n    tag_267:\n      0x20\n      mul\n      0x20\n      add\n      add\n      mload\n        /* \"hopium/etf/main/etf-oracle.sol\":4517:4541  snap[i].tokenPriceWeth18 */\n      0x80\n      add\n      mload\n        /* \"hopium/etf/main/etf-oracle.sol\":4499:4516  _convertWethToUsd */\n      tag_78\n        /* \"hopium/etf/main/etf-oracle.sol\":4499:4542  _convertWethToUsd(snap[i].tokenPriceWeth18) */\n      jump\t// in\n    tag_266:\n        /* \"hopium/etf/main/etf-oracle.sol\":4128:4710  SnapshotWithUsd({... */\n      dup2\n      mstore\n      0x20\n      add\n        /* \"hopium/etf/main/etf-oracle.sol\":4583:4587  snap */\n      dup6\n        /* \"hopium/etf/main/etf-oracle.sol\":4588:4589  i */\n      dup4\n        /* \"hopium/etf/main/etf-oracle.sol\":4583:4590  snap[i] */\n      dup2\n      mload\n      dup2\n      lt\n      tag_269\n      jumpi\n      tag_270\n      tag_193\n      jump\t// in\n    tag_270:\n    tag_269:\n      0x20\n      mul\n      0x20\n      add\n      add\n      mload\n        /* \"hopium/etf/main/etf-oracle.sol\":4583:4607  snap[i].tokenValueWeth18 */\n      0xa0\n      add\n      mload\n        /* \"hopium/etf/main/etf-oracle.sol\":4128:4710  SnapshotWithUsd({... */\n      dup2\n      mstore\n      0x20\n      add\n        /* \"hopium/etf/main/etf-oracle.sol\":4648:4691  _convertWethToUsd(snap[i].tokenValueWeth18) */\n      tag_271\n        /* \"hopium/etf/main/etf-oracle.sol\":4666:4670  snap */\n      dup7\n        /* \"hopium/etf/main/etf-oracle.sol\":4671:4672  i */\n      dup5\n        /* \"hopium/etf/main/etf-oracle.sol\":4666:4673  snap[i] */\n      dup2\n      mload\n      dup2\n      lt\n      tag_272\n      jumpi\n      tag_273\n      tag_193\n      jump\t// in\n    tag_273:\n    tag_272:\n      0x20\n      mul\n      0x20\n      add\n      add\n      mload\n        /* \"hopium/etf/main/etf-oracle.sol\":4666:4690  snap[i].tokenValueWeth18 */\n      0xa0\n      add\n      mload\n        /* \"hopium/etf/main/etf-oracle.sol\":4648:4665  _convertWethToUsd */\n      tag_78\n        /* \"hopium/etf/main/etf-oracle.sol\":4648:4691  _convertWethToUsd(snap[i].tokenValueWeth18) */\n      jump\t// in\n    tag_271:\n        /* \"hopium/etf/main/etf-oracle.sol\":4128:4710  SnapshotWithUsd({... */\n      dup2\n      mstore\n      pop\n        /* \"hopium/etf/main/etf-oracle.sol\":4121:4122  s */\n      dup8\n        /* \"hopium/etf/main/etf-oracle.sol\":4123:4124  i */\n      dup3\n        /* \"hopium/etf/main/etf-oracle.sol\":4121:4125  s[i] */\n      dup2\n      mload\n      dup2\n      lt\n      tag_274\n      jumpi\n      tag_275\n      tag_193\n      jump\t// in\n    tag_275:\n    tag_274:\n      0x20\n      mul\n      0x20\n      add\n      add\n        /* \"hopium/etf/main/etf-oracle.sol\":4121:4710  s[i] = SnapshotWithUsd({... */\n      dup2\n      swap1\n      mstore\n      pop\n        /* \"hopium/etf/main/etf-oracle.sol\":4098:4101  ++i */\n      dup1\n      0x01\n      add\n      swap1\n      pop\n        /* \"hopium/etf/main/etf-oracle.sol\":4071:4725  for (uint256 i = 0; i < n; ++i) {... */\n      jump(tag_253)\n    tag_254:\n      pop\n        /* \"hopium/etf/main/etf-oracle.sol\":3801:4741  {... */\n      pop\n      pop\n      pop\n        /* \"hopium/etf/main/etf-oracle.sol\":3618:4741  function _snapshotVaultWithUsd(Etf memory etf, address etfVault)... */\n      swap3\n      pop\n      swap3\n      pop\n      swap3\n      jump\t// out\n        /* \"hopium/etf/main/etf-oracle.sol\":4860:5592  function _getEtfInitialPrice(Etf memory etf) internal view returns (uint256 priceWeth18) {... */\n    tag_162:\n        /* \"hopium/etf/main/etf-oracle.sol\":4928:4947  uint256 priceWeth18 */\n      0x00\n        /* \"hopium/etf/main/etf-oracle.sol\":4959:4970  uint256 sum */\n      0x00\n        /* \"hopium/etf/main/etf-oracle.sol\":4997:5018  IUniswapOracle oracle */\n      0x00\n        /* \"hopium/etf/main/etf-oracle.sol\":5021:5039  getUniswapOracle() */\n      tag_277\n        /* \"hopium/etf/main/etf-oracle.sol\":5021:5037  getUniswapOracle */\n      tag_173\n        /* \"hopium/etf/main/etf-oracle.sol\":5021:5039  getUniswapOracle() */\n      jump\t// in\n    tag_277:\n        /* \"hopium/etf/main/etf-oracle.sol\":4997:5039  IUniswapOracle oracle = getUniswapOracle() */\n      swap1\n      pop\n        /* \"hopium/etf/main/etf-oracle.sol\":5079:5088  uint256 i */\n      0x00\n        /* \"hopium/etf/main/etf-oracle.sol\":5091:5092  0 */\n      0x00\n        /* \"hopium/etf/main/etf-oracle.sol\":5079:5092  uint256 i = 0 */\n      swap1\n      pop\n        /* \"hopium/etf/main/etf-oracle.sol\":5074:5468  for (uint256 i = 0; i < etf.assets.length; ++i) {... */\n    tag_278:\n        /* \"hopium/etf/main/etf-oracle.sol\":5098:5101  etf */\n      dup5\n        /* \"hopium/etf/main/etf-oracle.sol\":5098:5108  etf.assets */\n      0x40\n      add\n      mload\n        /* \"hopium/etf/main/etf-oracle.sol\":5098:5115  etf.assets.length */\n      mload\n        /* \"hopium/etf/main/etf-oracle.sol\":5094:5095  i */\n      dup2\n        /* \"hopium/etf/main/etf-oracle.sol\":5094:5115  i < etf.assets.length */\n      lt\n        /* \"hopium/etf/main/etf-oracle.sol\":5074:5468  for (uint256 i = 0; i < etf.assets.length; ++i) {... */\n      iszero\n      tag_279\n      jumpi\n        /* \"hopium/etf/main/etf-oracle.sol\":5140:5153  address token */\n      0x00\n        /* \"hopium/etf/main/etf-oracle.sol\":5156:5159  etf */\n      dup6\n        /* \"hopium/etf/main/etf-oracle.sol\":5156:5166  etf.assets */\n      0x40\n      add\n      mload\n        /* \"hopium/etf/main/etf-oracle.sol\":5167:5168  i */\n      dup3\n        /* \"hopium/etf/main/etf-oracle.sol\":5156:5169  etf.assets[i] */\n      dup2\n      mload\n      dup2\n      lt\n      tag_281\n      jumpi\n      tag_282\n      tag_193\n      jump\t// in\n    tag_282:\n    tag_281:\n      0x20\n      mul\n      0x20\n      add\n      add\n      mload\n        /* \"hopium/etf/main/etf-oracle.sol\":5156:5182  etf.assets[i].tokenAddress */\n      0x00\n      add\n      mload\n        /* \"hopium/etf/main/etf-oracle.sol\":5140:5182  address token = etf.assets[i].tokenAddress */\n      swap1\n      pop\n        /* \"hopium/etf/main/etf-oracle.sol\":5200:5213  uint16  wBips */\n      0x00\n        /* \"hopium/etf/main/etf-oracle.sol\":5216:5219  etf */\n      dup7\n        /* \"hopium/etf/main/etf-oracle.sol\":5216:5226  etf.assets */\n      0x40\n      add\n      mload\n        /* \"hopium/etf/main/etf-oracle.sol\":5227:5228  i */\n      dup4\n        /* \"hopium/etf/main/etf-oracle.sol\":5216:5229  etf.assets[i] */\n      dup2\n      mload\n      dup2\n      lt\n      tag_283\n      jumpi\n      tag_284\n      tag_193\n      jump\t// in\n    tag_284:\n    tag_283:\n      0x20\n      mul\n      0x20\n      add\n      add\n      mload\n        /* \"hopium/etf/main/etf-oracle.sol\":5216:5240  etf.assets[i].weightBips */\n      0x20\n      add\n      mload\n        /* \"hopium/etf/main/etf-oracle.sol\":5200:5240  uint16  wBips = etf.assets[i].weightBips */\n      swap1\n      pop\n        /* \"hopium/etf/main/etf-oracle.sol\":5314:5323  uint256 p */\n      0x00\n        /* \"hopium/etf/main/etf-oracle.sol\":5326:5332  oracle */\n      dup5\n        /* \"hopium/etf/main/etf-oracle.sol\":5326:5350  oracle.getTokenWethPrice */\n      0xffffffffffffffffffffffffffffffffffffffff\n      and\n      0x7b49b49d\n        /* \"hopium/etf/main/etf-oracle.sol\":5351:5356  token */\n      dup5\n        /* \"hopium/etf/main/etf-oracle.sol\":5326:5357  oracle.getTokenWethPrice(token) */\n      mload(0x40)\n      dup3\n      0xffffffff\n      and\n      0xe0\n      shl\n      dup2\n      mstore\n      0x04\n      add\n      tag_285\n      swap2\n      swap1\n      tag_36\n      jump\t// in\n    tag_285:\n      0x20\n      mload(0x40)\n      dup1\n      dup4\n      sub\n      dup2\n      dup7\n      gas\n      staticcall\n      iszero\n      dup1\n      iszero\n      tag_287\n      jumpi\n      returndatacopy(0x00, 0x00, returndatasize)\n      revert(0x00, returndatasize)\n    tag_287:\n      pop\n      pop\n      pop\n      pop\n      mload(0x40)\n      returndatasize\n      not(0x1f)\n      0x1f\n      dup3\n      add\n      and\n      dup3\n      add\n      dup1\n      0x40\n      mstore\n      pop\n      dup2\n      add\n      swap1\n      tag_288\n      swap2\n      swap1\n      tag_155\n      jump\t// in\n    tag_288:\n        /* \"hopium/etf/main/etf-oracle.sol\":5314:5357  uint256 p = oracle.getTokenWethPrice(token) */\n      swap1\n      pop\n        /* \"hopium/etf/main/etf-oracle.sol\":5384:5385  0 */\n      0x00\n        /* \"hopium/etf/main/etf-oracle.sol\":5379:5380  p */\n      dup2\n        /* \"hopium/etf/main/etf-oracle.sol\":5379:5385  p == 0 */\n      eq\n        /* \"hopium/etf/main/etf-oracle.sol\":5379:5399  p == 0 || wBips == 0 */\n      dup1\n      tag_289\n      jumpi\n      pop\n        /* \"hopium/etf/main/etf-oracle.sol\":5398:5399  0 */\n      0x00\n        /* \"hopium/etf/main/etf-oracle.sol\":5389:5394  wBips */\n      dup3\n        /* \"hopium/etf/main/etf-oracle.sol\":5389:5399  wBips == 0 */\n      0xffff\n      and\n      eq\n        /* \"hopium/etf/main/etf-oracle.sol\":5379:5399  p == 0 || wBips == 0 */\n    tag_289:\n        /* \"hopium/etf/main/etf-oracle.sol\":5375:5409  if (p == 0 || wBips == 0) continue */\n      iszero\n      tag_290\n      jumpi\n        /* \"hopium/etf/main/etf-oracle.sol\":5401:5409  continue */\n      pop\n      pop\n      pop\n      jump(tag_280)\n        /* \"hopium/etf/main/etf-oracle.sol\":5375:5409  if (p == 0 || wBips == 0) continue */\n    tag_290:\n        /* \"hopium/etf/main/etf-oracle.sol\":5452:5453  p */\n      dup1\n        /* \"hopium/etf/main/etf-oracle.sol\":5443:5448  wBips */\n      dup3\n        /* \"hopium/etf/main/etf-oracle.sol\":5435:5449  uint256(wBips) */\n      0xffff\n      and\n        /* \"hopium/etf/main/etf-oracle.sol\":5435:5453  uint256(wBips) * p */\n      mul\n        /* \"hopium/etf/main/etf-oracle.sol\":5428:5453  sum += uint256(wBips) * p */\n      dup7\n      add\n      swap6\n      pop\n        /* \"hopium/etf/main/etf-oracle.sol\":5122:5468  {... */\n      pop\n      pop\n      pop\n        /* \"hopium/etf/main/etf-oracle.sol\":5074:5468  for (uint256 i = 0; i < etf.assets.length; ++i) {... */\n    tag_280:\n        /* \"hopium/etf/main/etf-oracle.sol\":5117:5120  ++i */\n      dup1\n      0x01\n      add\n      swap1\n      pop\n        /* \"hopium/etf/main/etf-oracle.sol\":5074:5468  for (uint256 i = 0; i < etf.assets.length; ++i) {... */\n      jump(tag_278)\n    tag_279:\n      pop\n        /* \"hopium/common/types/bips.sol\":97:103  10_000 */\n      0x2710\n        /* \"hopium/etf/main/etf-oracle.sol\":5559:5562  sum */\n      dup3\n        /* \"hopium/etf/main/etf-oracle.sol\":5559:5585  sum / HUNDRED_PERCENT_BIPS */\n      tag_291\n      swap2\n      swap1\n      tag_292\n      jump\t// in\n    tag_291:\n        /* \"hopium/etf/main/etf-oracle.sol\":5552:5585  return sum / HUNDRED_PERCENT_BIPS */\n      swap3\n      pop\n      pop\n      pop\n        /* \"hopium/etf/main/etf-oracle.sol\":4860:5592  function _getEtfInitialPrice(Etf memory etf) internal view returns (uint256 priceWeth18) {... */\n      swap2\n      swap1\n      pop\n      jump\t// out\n        /* \"hopium/etf/main/etf-oracle.sol\":917:1328  function _scaleTo1e18(uint256 amount, uint8 decimals) internal pure returns (uint256) {... */\n    tag_164:\n        /* \"hopium/etf/main/etf-oracle.sol\":994:1001  uint256 */\n      0x00\n        /* \"hopium/etf/main/etf-oracle.sol\":1029:1031  18 */\n      0x12\n        /* \"hopium/etf/main/etf-oracle.sol\":1017:1025  decimals */\n      dup3\n        /* \"hopium/etf/main/etf-oracle.sol\":1017:1031  decimals == 18 */\n      0xff\n      and\n      sub\n        /* \"hopium/etf/main/etf-oracle.sol\":1013:1046  if (decimals == 18) return amount */\n      tag_294\n      jumpi\n        /* \"hopium/etf/main/etf-oracle.sol\":1040:1046  amount */\n      dup3\n        /* \"hopium/etf/main/etf-oracle.sol\":1033:1046  return amount */\n      swap1\n      pop\n      jump(tag_293)\n        /* \"hopium/etf/main/etf-oracle.sol\":1013:1046  if (decimals == 18) return amount */\n    tag_294:\n        /* \"hopium/etf/main/etf-oracle.sol\":1071:1073  18 */\n      0x12\n        /* \"hopium/etf/main/etf-oracle.sol\":1060:1068  decimals */\n      dup3\n        /* \"hopium/etf/main/etf-oracle.sol\":1060:1073  decimals < 18 */\n      0xff\n      and\n      lt\n        /* \"hopium/etf/main/etf-oracle.sol\":1056:1322  if (decimals < 18) {... */\n      iszero\n      tag_295\n      jumpi\n        /* \"hopium/etf/main/etf-oracle.sol\":1134:1180  FullMath.mulDiv(amount, WAD, _pow10(decimals)) */\n      tag_296\n        /* \"hopium/etf/main/etf-oracle.sol\":1150:1156  amount */\n      dup4\n        /* \"hopium/etf/main/etf-oracle.sol\":494:498  1e18 */\n      0x0de0b6b3a7640000\n        /* \"hopium/etf/main/etf-oracle.sol\":1163:1179  _pow10(decimals) */\n      tag_297\n        /* \"hopium/etf/main/etf-oracle.sol\":1170:1178  decimals */\n      dup6\n        /* \"hopium/etf/main/etf-oracle.sol\":1163:1169  _pow10 */\n      tag_298\n        /* \"hopium/etf/main/etf-oracle.sol\":1163:1179  _pow10(decimals) */\n      jump\t// in\n    tag_297:\n        /* \"hopium/etf/main/etf-oracle.sol\":1134:1149  FullMath.mulDiv */\n      tag_169\n        /* \"hopium/etf/main/etf-oracle.sol\":1134:1180  FullMath.mulDiv(amount, WAD, _pow10(decimals)) */\n      jump\t// in\n    tag_296:\n        /* \"hopium/etf/main/etf-oracle.sol\":1127:1180  return FullMath.mulDiv(amount, WAD, _pow10(decimals)) */\n      swap1\n      pop\n      jump(tag_293)\n        /* \"hopium/etf/main/etf-oracle.sol\":1056:1322  if (decimals < 18) {... */\n    tag_295:\n        /* \"hopium/etf/main/etf-oracle.sol\":1290:1311  _pow10(decimals - 18) */\n      tag_300\n        /* \"hopium/etf/main/etf-oracle.sol\":1308:1310  18 */\n      0x12\n        /* \"hopium/etf/main/etf-oracle.sol\":1297:1305  decimals */\n      dup4\n        /* \"hopium/etf/main/etf-oracle.sol\":1297:1310  decimals - 18 */\n      tag_301\n      swap2\n      swap1\n      tag_302\n      jump\t// in\n    tag_301:\n        /* \"hopium/etf/main/etf-oracle.sol\":1290:1296  _pow10 */\n      tag_298\n        /* \"hopium/etf/main/etf-oracle.sol\":1290:1311  _pow10(decimals - 18) */\n      jump\t// in\n    tag_300:\n        /* \"hopium/etf/main/etf-oracle.sol\":1281:1287  amount */\n      dup4\n        /* \"hopium/etf/main/etf-oracle.sol\":1281:1311  amount / _pow10(decimals - 18) */\n      tag_303\n      swap2\n      swap1\n      tag_292\n      jump\t// in\n    tag_303:\n        /* \"hopium/etf/main/etf-oracle.sol\":1274:1311  return amount / _pow10(decimals - 18) */\n      swap1\n      pop\n        /* \"hopium/etf/main/etf-oracle.sol\":917:1328  function _scaleTo1e18(uint256 amount, uint8 decimals) internal pure returns (uint256) {... */\n    tag_293:\n      swap3\n      swap2\n      pop\n      pop\n      jump\t// out\n        /* \"hopium/etf/main/etf-oracle.sol\":6803:7735  function _getEtfTvlWeth(Etf memory etf, address etfVault) internal view returns (uint256 totalWethValue18) {... */\n    tag_167:\n        /* \"hopium/etf/main/etf-oracle.sol\":6884:6908  uint256 totalWethValue18 */\n      0x00\n        /* \"hopium/etf/main/etf-oracle.sol\":6920:6941  IUniswapOracle oracle */\n      0x00\n        /* \"hopium/etf/main/etf-oracle.sol\":6944:6962  getUniswapOracle() */\n      tag_305\n        /* \"hopium/etf/main/etf-oracle.sol\":6944:6960  getUniswapOracle */\n      tag_173\n        /* \"hopium/etf/main/etf-oracle.sol\":6944:6962  getUniswapOracle() */\n      jump\t// in\n    tag_305:\n        /* \"hopium/etf/main/etf-oracle.sol\":6920:6962  IUniswapOracle oracle = getUniswapOracle() */\n      swap1\n      pop\n        /* \"hopium/etf/main/etf-oracle.sol\":7058:7067  uint256 i */\n      0x00\n        /* \"hopium/etf/main/etf-oracle.sol\":7070:7071  0 */\n      0x00\n        /* \"hopium/etf/main/etf-oracle.sol\":7058:7071  uint256 i = 0 */\n      swap1\n      pop\n        /* \"hopium/etf/main/etf-oracle.sol\":7053:7719  for (uint256 i = 0; i < etf.assets.length; ++i) {... */\n    tag_306:\n        /* \"hopium/etf/main/etf-oracle.sol\":7077:7080  etf */\n      dup5\n        /* \"hopium/etf/main/etf-oracle.sol\":7077:7087  etf.assets */\n      0x40\n      add\n      mload\n        /* \"hopium/etf/main/etf-oracle.sol\":7077:7094  etf.assets.length */\n      mload\n        /* \"hopium/etf/main/etf-oracle.sol\":7073:7074  i */\n      dup2\n        /* \"hopium/etf/main/etf-oracle.sol\":7073:7094  i < etf.assets.length */\n      lt\n        /* \"hopium/etf/main/etf-oracle.sol\":7053:7719  for (uint256 i = 0; i < etf.assets.length; ++i) {... */\n      iszero\n      tag_307\n      jumpi\n        /* \"hopium/etf/main/etf-oracle.sol\":7119:7132  address token */\n      0x00\n        /* \"hopium/etf/main/etf-oracle.sol\":7135:7138  etf */\n      dup6\n        /* \"hopium/etf/main/etf-oracle.sol\":7135:7145  etf.assets */\n      0x40\n      add\n      mload\n        /* \"hopium/etf/main/etf-oracle.sol\":7146:7147  i */\n      dup3\n        /* \"hopium/etf/main/etf-oracle.sol\":7135:7148  etf.assets[i] */\n      dup2\n      mload\n      dup2\n      lt\n      tag_309\n      jumpi\n      tag_310\n      tag_193\n      jump\t// in\n    tag_310:\n    tag_309:\n      0x20\n      mul\n      0x20\n      add\n      add\n      mload\n        /* \"hopium/etf/main/etf-oracle.sol\":7135:7161  etf.assets[i].tokenAddress */\n      0x00\n      add\n      mload\n        /* \"hopium/etf/main/etf-oracle.sol\":7119:7161  address token = etf.assets[i].tokenAddress */\n      swap1\n      pop\n        /* \"hopium/etf/main/etf-oracle.sol\":7180:7191  uint256 bal */\n      0x00\n        /* \"hopium/etf/main/etf-oracle.sol\":7201:7206  token */\n      dup2\n        /* \"hopium/etf/main/etf-oracle.sol\":7194:7217  IERC20(token).balanceOf */\n      0xffffffffffffffffffffffffffffffffffffffff\n      and\n      0x70a08231\n        /* \"hopium/etf/main/etf-oracle.sol\":7218:7226  etfVault */\n      dup8\n        /* \"hopium/etf/main/etf-oracle.sol\":7194:7227  IERC20(token).balanceOf(etfVault) */\n      mload(0x40)\n      dup3\n      0xffffffff\n      and\n      0xe0\n      shl\n      dup2\n      mstore\n      0x04\n      add\n      tag_311\n      swap2\n      swap1\n      tag_36\n      jump\t// in\n    tag_311:\n      0x20\n      mload(0x40)\n      dup1\n      dup4\n      sub\n      dup2\n      dup7\n      gas\n      staticcall\n      iszero\n      dup1\n      iszero\n      tag_313\n      jumpi\n      returndatacopy(0x00, 0x00, returndatasize)\n      revert(0x00, returndatasize)\n    tag_313:\n      pop\n      pop\n      pop\n      pop\n      mload(0x40)\n      returndatasize\n      not(0x1f)\n      0x1f\n      dup3\n      add\n      and\n      dup3\n      add\n      dup1\n      0x40\n      mstore\n      pop\n      dup2\n      add\n      swap1\n      tag_314\n      swap2\n      swap1\n      tag_155\n      jump\t// in\n    tag_314:\n        /* \"hopium/etf/main/etf-oracle.sol\":7180:7227  uint256 bal = IERC20(token).balanceOf(etfVault) */\n      swap1\n      pop\n        /* \"hopium/etf/main/etf-oracle.sol\":7269:7270  0 */\n      0x00\n        /* \"hopium/etf/main/etf-oracle.sol\":7262:7265  bal */\n      dup2\n        /* \"hopium/etf/main/etf-oracle.sol\":7262:7270  bal == 0 */\n      sub\n        /* \"hopium/etf/main/etf-oracle.sol\":7258:7280  if (bal == 0) continue */\n      tag_315\n      jumpi\n        /* \"hopium/etf/main/etf-oracle.sol\":7272:7280  continue */\n      pop\n      pop\n      jump(tag_308)\n        /* \"hopium/etf/main/etf-oracle.sol\":7258:7280  if (bal == 0) continue */\n    tag_315:\n        /* \"hopium/etf/main/etf-oracle.sol\":7348:7370  uint256 wethPerToken18 */\n      0x00\n        /* \"hopium/etf/main/etf-oracle.sol\":7373:7379  oracle */\n      dup5\n        /* \"hopium/etf/main/etf-oracle.sol\":7373:7397  oracle.getTokenWethPrice */\n      0xffffffffffffffffffffffffffffffffffffffff\n      and\n      0x7b49b49d\n        /* \"hopium/etf/main/etf-oracle.sol\":7398:7403  token */\n      dup5\n        /* \"hopium/etf/main/etf-oracle.sol\":7373:7404  oracle.getTokenWethPrice(token) */\n      mload(0x40)\n      dup3\n      0xffffffff\n      and\n      0xe0\n      shl\n      dup2\n      mstore\n      0x04\n      add\n      tag_316\n      swap2\n      swap1\n      tag_36\n      jump\t// in\n    tag_316:\n      0x20\n      mload(0x40)\n      dup1\n      dup4\n      sub\n      dup2\n      dup7\n      gas\n      staticcall\n      iszero\n      dup1\n      iszero\n      tag_318\n      jumpi\n      returndatacopy(0x00, 0x00, returndatasize)\n      revert(0x00, returndatasize)\n    tag_318:\n      pop\n      pop\n      pop\n      pop\n      mload(0x40)\n      returndatasize\n      not(0x1f)\n      0x1f\n      dup3\n      add\n      and\n      dup3\n      add\n      dup1\n      0x40\n      mstore\n      pop\n      dup2\n      add\n      swap1\n      tag_319\n      swap2\n      swap1\n      tag_155\n      jump\t// in\n    tag_319:\n        /* \"hopium/etf/main/etf-oracle.sol\":7348:7404  uint256 wethPerToken18 = oracle.getTokenWethPrice(token) */\n      swap1\n      pop\n        /* \"hopium/etf/main/etf-oracle.sol\":7444:7445  0 */\n      0x00\n        /* \"hopium/etf/main/etf-oracle.sol\":7426:7440  wethPerToken18 */\n      dup2\n        /* \"hopium/etf/main/etf-oracle.sol\":7426:7445  wethPerToken18 == 0 */\n      sub\n        /* \"hopium/etf/main/etf-oracle.sol\":7422:7455  if (wethPerToken18 == 0) continue */\n      tag_320\n      jumpi\n        /* \"hopium/etf/main/etf-oracle.sol\":7447:7455  continue */\n      pop\n      pop\n      pop\n      jump(tag_308)\n        /* \"hopium/etf/main/etf-oracle.sol\":7422:7455  if (wethPerToken18 == 0) continue */\n    tag_320:\n        /* \"hopium/etf/main/etf-oracle.sol\":7533:7542  uint8 dec */\n      0x00\n        /* \"hopium/etf/main/etf-oracle.sol\":7560:7565  token */\n      dup4\n        /* \"hopium/etf/main/etf-oracle.sol\":7545:7575  IERC20Metadata(token).decimals */\n      0xffffffffffffffffffffffffffffffffffffffff\n      and\n      0x313ce567\n        /* \"hopium/etf/main/etf-oracle.sol\":7545:7577  IERC20Metadata(token).decimals() */\n      mload(0x40)\n      dup2\n      0xffffffff\n      and\n      0xe0\n      shl\n      dup2\n      mstore\n      0x04\n      add\n      0x20\n      mload(0x40)\n      dup1\n      dup4\n      sub\n      dup2\n      dup7\n      gas\n      staticcall\n      iszero\n      dup1\n      iszero\n      tag_322\n      jumpi\n      returndatacopy(0x00, 0x00, returndatasize)\n      revert(0x00, returndatasize)\n    tag_322:\n      pop\n      pop\n      pop\n      pop\n      mload(0x40)\n      returndatasize\n      not(0x1f)\n      0x1f\n      dup3\n      add\n      and\n      dup3\n      add\n      dup1\n      0x40\n      mstore\n      pop\n      dup2\n      add\n      swap1\n      tag_323\n      swap2\n      swap1\n      tag_159\n      jump\t// in\n    tag_323:\n        /* \"hopium/etf/main/etf-oracle.sol\":7533:7577  uint8 dec = IERC20Metadata(token).decimals() */\n      swap1\n      pop\n        /* \"hopium/etf/main/etf-oracle.sol\":7595:7608  uint256 denom */\n      0x00\n        /* \"hopium/etf/main/etf-oracle.sol\":7611:7622  _pow10(dec) */\n      tag_324\n        /* \"hopium/etf/main/etf-oracle.sol\":7618:7621  dec */\n      dup3\n        /* \"hopium/etf/main/etf-oracle.sol\":7611:7617  _pow10 */\n      tag_298\n        /* \"hopium/etf/main/etf-oracle.sol\":7611:7622  _pow10(dec) */\n      jump\t// in\n    tag_324:\n        /* \"hopium/etf/main/etf-oracle.sol\":7595:7622  uint256 denom = _pow10(dec) */\n      swap1\n      pop\n        /* \"hopium/etf/main/etf-oracle.sol\":7661:7704  FullMath.mulDiv(bal, wethPerToken18, denom) */\n      tag_325\n        /* \"hopium/etf/main/etf-oracle.sol\":7677:7680  bal */\n      dup5\n        /* \"hopium/etf/main/etf-oracle.sol\":7682:7696  wethPerToken18 */\n      dup5\n        /* \"hopium/etf/main/etf-oracle.sol\":7698:7703  denom */\n      dup4\n        /* \"hopium/etf/main/etf-oracle.sol\":7661:7676  FullMath.mulDiv */\n      tag_169\n        /* \"hopium/etf/main/etf-oracle.sol\":7661:7704  FullMath.mulDiv(bal, wethPerToken18, denom) */\n      jump\t// in\n    tag_325:\n        /* \"hopium/etf/main/etf-oracle.sol\":7641:7704  totalWethValue18 += FullMath.mulDiv(bal, wethPerToken18, denom) */\n      dup9\n      add\n      swap8\n      pop\n        /* \"hopium/etf/main/etf-oracle.sol\":7101:7719  {... */\n      pop\n      pop\n      pop\n      pop\n      pop\n        /* \"hopium/etf/main/etf-oracle.sol\":7053:7719  for (uint256 i = 0; i < etf.assets.length; ++i) {... */\n    tag_308:\n        /* \"hopium/etf/main/etf-oracle.sol\":7096:7099  ++i */\n      dup1\n      0x01\n      add\n      swap1\n      pop\n        /* \"hopium/etf/main/etf-oracle.sol\":7053:7719  for (uint256 i = 0; i < etf.assets.length; ++i) {... */\n      jump(tag_306)\n    tag_307:\n      pop\n        /* \"hopium/etf/main/etf-oracle.sol\":6910:7735  {... */\n      pop\n        /* \"hopium/etf/main/etf-oracle.sol\":6803:7735  function _getEtfTvlWeth(Etf memory etf, address etfVault) internal view returns (uint256 totalWethValue18) {... */\n      swap3\n      swap2\n      pop\n      pop\n      jump\t// out\n        /* \"hopium/common/lib/full-math.sol\":285:2708  function mulDiv(... */\n    tag_169:\n        /* \"hopium/common/lib/full-math.sol\":397:411  uint256 result */\n      0x00\n        /* \"hopium/common/lib/full-math.sol\":501:514  uint256 prod0 */\n      0x00\n        /* \"hopium/common/lib/full-math.sol\":558:571  uint256 prod1 */\n      0x00\n        /* \"hopium/common/lib/full-math.sol\":668:669  0 */\n      0x00\n        /* \"hopium/common/lib/full-math.sol\":664:670  not(0) */\n      not\n        /* \"hopium/common/lib/full-math.sol\":661:662  b */\n      dup6\n        /* \"hopium/common/lib/full-math.sol\":658:659  a */\n      dup8\n        /* \"hopium/common/lib/full-math.sol\":651:671  mulmod(a, b, not(0)) */\n      mulmod\n        /* \"hopium/common/lib/full-math.sol\":704:705  b */\n      dup6\n        /* \"hopium/common/lib/full-math.sol\":701:702  a */\n      dup8\n        /* \"hopium/common/lib/full-math.sol\":697:706  mul(a, b) */\n      mul\n        /* \"hopium/common/lib/full-math.sol\":688:706  prod0 := mul(a, b) */\n      swap3\n      pop\n        /* \"hopium/common/lib/full-math.sol\":759:764  prod0 */\n      dup3\n        /* \"hopium/common/lib/full-math.sol\":755:757  mm */\n      dup2\n        /* \"hopium/common/lib/full-math.sol\":752:765  lt(mm, prod0) */\n      lt\n        /* \"hopium/common/lib/full-math.sol\":744:749  prod0 */\n      dup4\n        /* \"hopium/common/lib/full-math.sol\":740:742  mm */\n      dup3\n        /* \"hopium/common/lib/full-math.sol\":736:750  sub(mm, prod0) */\n      sub\n        /* \"hopium/common/lib/full-math.sol\":732:766  sub(sub(mm, prod0), lt(mm, prod0)) */\n      sub\n        /* \"hopium/common/lib/full-math.sol\":723:766  prod1 := sub(sub(mm, prod0), lt(mm, prod0)) */\n      swap2\n      pop\n        /* \"hopium/common/lib/full-math.sol\":623:780  {... */\n      pop\n        /* \"hopium/common/lib/full-math.sol\":854:855  0 */\n      0x00\n        /* \"hopium/common/lib/full-math.sol\":845:850  prod1 */\n      dup2\n        /* \"hopium/common/lib/full-math.sol\":845:855  prod1 == 0 */\n      sub\n        /* \"hopium/common/lib/full-math.sol\":841:883  if (prod1 == 0) return prod0 / denominator */\n      tag_327\n      jumpi\n        /* \"hopium/common/lib/full-math.sol\":872:883  denominator */\n      dup4\n        /* \"hopium/common/lib/full-math.sol\":864:869  prod0 */\n      dup3\n        /* \"hopium/common/lib/full-math.sol\":864:883  prod0 / denominator */\n      dup2\n      tag_328\n      jumpi\n      tag_329\n      tag_219\n      jump\t// in\n    tag_329:\n    tag_328:\n      div\n        /* \"hopium/common/lib/full-math.sol\":857:883  return prod0 / denominator */\n      swap3\n      pop\n      pop\n      pop\n      jump(tag_326)\n        /* \"hopium/common/lib/full-math.sol\":841:883  if (prod1 == 0) return prod0 / denominator */\n    tag_327:\n        /* \"hopium/common/lib/full-math.sol\":920:925  prod1 */\n      dup1\n        /* \"hopium/common/lib/full-math.sol\":906:917  denominator */\n      dup5\n        /* \"hopium/common/lib/full-math.sol\":906:925  denominator > prod1 */\n      gt\n        /* \"hopium/common/lib/full-math.sol\":898:945  require(denominator > prod1, \"mulDiv overflow\") */\n      tag_330\n      jumpi\n      mload(0x40)\n      0x08c379a000000000000000000000000000000000000000000000000000000000\n      dup2\n      mstore\n      0x04\n      add\n      tag_331\n      swap1\n      tag_332\n      jump\t// in\n    tag_331:\n      mload(0x40)\n      dup1\n      swap2\n      sub\n      swap1\n      revert\n    tag_330:\n        /* \"hopium/common/lib/full-math.sol\":1138:1155  uint256 remainder */\n      0x00\n        /* \"hopium/common/lib/full-math.sol\":1222:1233  denominator */\n      dup5\n        /* \"hopium/common/lib/full-math.sol\":1219:1220  b */\n      dup7\n        /* \"hopium/common/lib/full-math.sol\":1216:1217  a */\n      dup9\n        /* \"hopium/common/lib/full-math.sol\":1209:1234  mulmod(a, b, denominator) */\n      mulmod\n        /* \"hopium/common/lib/full-math.sol\":1196:1234  remainder := mulmod(a, b, denominator) */\n      swap1\n      pop\n        /* \"hopium/common/lib/full-math.sol\":1285:1290  prod0 */\n      dup3\n        /* \"hopium/common/lib/full-math.sol\":1274:1283  remainder */\n      dup2\n        /* \"hopium/common/lib/full-math.sol\":1271:1291  gt(remainder, prod0) */\n      gt\n        /* \"hopium/common/lib/full-math.sol\":1264:1269  prod1 */\n      dup3\n        /* \"hopium/common/lib/full-math.sol\":1260:1292  sub(prod1, gt(remainder, prod0)) */\n      sub\n        /* \"hopium/common/lib/full-math.sol\":1251:1292  prod1 := sub(prod1, gt(remainder, prod0)) */\n      swap2\n      pop\n        /* \"hopium/common/lib/full-math.sol\":1329:1338  remainder */\n      dup1\n        /* \"hopium/common/lib/full-math.sol\":1322:1327  prod0 */\n      dup4\n        /* \"hopium/common/lib/full-math.sol\":1318:1339  sub(prod0, remainder) */\n      sub\n        /* \"hopium/common/lib/full-math.sol\":1309:1339  prod0 := sub(prod0, remainder) */\n      swap3\n      pop\n        /* \"hopium/common/lib/full-math.sol\":1543:1555  uint256 twos */\n      0x00\n        /* \"hopium/common/lib/full-math.sol\":1588:1589  1 */\n      0x01\n        /* \"hopium/common/lib/full-math.sol\":1574:1585  denominator */\n      dup7\n        /* \"hopium/common/lib/full-math.sol\":1573:1585  ~denominator */\n      not\n        /* \"hopium/common/lib/full-math.sol\":1573:1589  ~denominator + 1 */\n      add\n        /* \"hopium/common/lib/full-math.sol\":1558:1569  denominator */\n      dup7\n        /* \"hopium/common/lib/full-math.sol\":1558:1590  denominator & (~denominator + 1) */\n      and\n        /* \"hopium/common/lib/full-math.sol\":1543:1590  uint256 twos = denominator & (~denominator + 1) */\n      swap1\n      pop\n        /* \"hopium/common/lib/full-math.sol\":1663:1667  twos */\n      dup1\n        /* \"hopium/common/lib/full-math.sol\":1650:1661  denominator */\n      dup7\n        /* \"hopium/common/lib/full-math.sol\":1646:1668  div(denominator, twos) */\n      div\n        /* \"hopium/common/lib/full-math.sol\":1631:1668  denominator := div(denominator, twos) */\n      swap6\n      pop\n        /* \"hopium/common/lib/full-math.sol\":1705:1709  twos */\n      dup1\n        /* \"hopium/common/lib/full-math.sol\":1698:1703  prod0 */\n      dup5\n        /* \"hopium/common/lib/full-math.sol\":1694:1710  div(prod0, twos) */\n      div\n        /* \"hopium/common/lib/full-math.sol\":1685:1710  prod0 := div(prod0, twos) */\n      swap4\n      pop\n        /* \"hopium/common/lib/full-math.sol\":1764:1765  1 */\n      0x01\n        /* \"hopium/common/lib/full-math.sol\":1757:1761  twos */\n      dup2\n        /* \"hopium/common/lib/full-math.sol\":1750:1754  twos */\n      dup3\n        /* \"hopium/common/lib/full-math.sol\":1747:1748  0 */\n      0x00\n        /* \"hopium/common/lib/full-math.sol\":1743:1755  sub(0, twos) */\n      sub\n        /* \"hopium/common/lib/full-math.sol\":1739:1762  div(sub(0, twos), twos) */\n      div\n        /* \"hopium/common/lib/full-math.sol\":1735:1766  add(div(sub(0, twos), twos), 1) */\n      add\n        /* \"hopium/common/lib/full-math.sol\":1727:1766  twos := add(div(sub(0, twos), twos), 1) */\n      swap1\n      pop\n        /* \"hopium/common/lib/full-math.sol\":1856:1860  twos */\n      dup1\n        /* \"hopium/common/lib/full-math.sol\":1848:1853  prod1 */\n      dup4\n        /* \"hopium/common/lib/full-math.sol\":1848:1860  prod1 * twos */\n      mul\n        /* \"hopium/common/lib/full-math.sol\":1839:1860  prod0 |= prod1 * twos */\n      dup5\n      or\n      swap4\n      pop\n        /* \"hopium/common/lib/full-math.sol\":2064:2075  uint256 inv */\n      0x00\n        /* \"hopium/common/lib/full-math.sol\":2098:2099  2 */\n      0x02\n        /* \"hopium/common/lib/full-math.sol\":2083:2094  denominator */\n      dup8\n        /* \"hopium/common/lib/full-math.sol\":2079:2080  3 */\n      0x03\n        /* \"hopium/common/lib/full-math.sol\":2079:2094  3 * denominator */\n      mul\n        /* \"hopium/common/lib/full-math.sol\":2078:2099  (3 * denominator) ^ 2 */\n      xor\n        /* \"hopium/common/lib/full-math.sol\":2064:2099  uint256 inv = (3 * denominator) ^ 2 */\n      swap1\n      pop\n        /* \"hopium/common/lib/full-math.sol\":2138:2141  inv */\n      dup1\n        /* \"hopium/common/lib/full-math.sol\":2124:2135  denominator */\n      dup8\n        /* \"hopium/common/lib/full-math.sol\":2124:2141  denominator * inv */\n      mul\n        /* \"hopium/common/lib/full-math.sol\":2120:2121  2 */\n      0x02\n        /* \"hopium/common/lib/full-math.sol\":2120:2141  2 - denominator * inv */\n      sub\n        /* \"hopium/common/lib/full-math.sol\":2113:2141  inv *= 2 - denominator * inv */\n      dup2\n      mul\n      swap1\n      pop\n        /* \"hopium/common/lib/full-math.sol\":2200:2203  inv */\n      dup1\n        /* \"hopium/common/lib/full-math.sol\":2186:2197  denominator */\n      dup8\n        /* \"hopium/common/lib/full-math.sol\":2186:2203  denominator * inv */\n      mul\n        /* \"hopium/common/lib/full-math.sol\":2182:2183  2 */\n      0x02\n        /* \"hopium/common/lib/full-math.sol\":2182:2203  2 - denominator * inv */\n      sub\n        /* \"hopium/common/lib/full-math.sol\":2175:2203  inv *= 2 - denominator * inv */\n      dup2\n      mul\n      swap1\n      pop\n        /* \"hopium/common/lib/full-math.sol\":2256:2259  inv */\n      dup1\n        /* \"hopium/common/lib/full-math.sol\":2242:2253  denominator */\n      dup8\n        /* \"hopium/common/lib/full-math.sol\":2242:2259  denominator * inv */\n      mul\n        /* \"hopium/common/lib/full-math.sol\":2238:2239  2 */\n      0x02\n        /* \"hopium/common/lib/full-math.sol\":2238:2259  2 - denominator * inv */\n      sub\n        /* \"hopium/common/lib/full-math.sol\":2231:2259  inv *= 2 - denominator * inv */\n      dup2\n      mul\n      swap1\n      pop\n        /* \"hopium/common/lib/full-math.sol\":2311:2314  inv */\n      dup1\n        /* \"hopium/common/lib/full-math.sol\":2297:2308  denominator */\n      dup8\n        /* \"hopium/common/lib/full-math.sol\":2297:2314  denominator * inv */\n      mul\n        /* \"hopium/common/lib/full-math.sol\":2293:2294  2 */\n      0x02\n        /* \"hopium/common/lib/full-math.sol\":2293:2314  2 - denominator * inv */\n      sub\n        /* \"hopium/common/lib/full-math.sol\":2286:2314  inv *= 2 - denominator * inv */\n      dup2\n      mul\n      swap1\n      pop\n        /* \"hopium/common/lib/full-math.sol\":2368:2371  inv */\n      dup1\n        /* \"hopium/common/lib/full-math.sol\":2354:2365  denominator */\n      dup8\n        /* \"hopium/common/lib/full-math.sol\":2354:2371  denominator * inv */\n      mul\n        /* \"hopium/common/lib/full-math.sol\":2350:2351  2 */\n      0x02\n        /* \"hopium/common/lib/full-math.sol\":2350:2371  2 - denominator * inv */\n      sub\n        /* \"hopium/common/lib/full-math.sol\":2343:2371  inv *= 2 - denominator * inv */\n      dup2\n      mul\n      swap1\n      pop\n        /* \"hopium/common/lib/full-math.sol\":2426:2429  inv */\n      dup1\n        /* \"hopium/common/lib/full-math.sol\":2412:2423  denominator */\n      dup8\n        /* \"hopium/common/lib/full-math.sol\":2412:2429  denominator * inv */\n      mul\n        /* \"hopium/common/lib/full-math.sol\":2408:2409  2 */\n      0x02\n        /* \"hopium/common/lib/full-math.sol\":2408:2429  2 - denominator * inv */\n      sub\n        /* \"hopium/common/lib/full-math.sol\":2401:2429  inv *= 2 - denominator * inv */\n      dup2\n      mul\n      swap1\n      pop\n        /* \"hopium/common/lib/full-math.sol\":2661:2664  inv */\n      dup1\n        /* \"hopium/common/lib/full-math.sol\":2653:2658  prod0 */\n      dup6\n        /* \"hopium/common/lib/full-math.sol\":2653:2664  prod0 * inv */\n      mul\n        /* \"hopium/common/lib/full-math.sol\":2644:2664  result = prod0 * inv */\n      swap6\n      pop\n        /* \"hopium/common/lib/full-math.sol\":2678:2691  return result */\n      pop\n      pop\n      pop\n      pop\n      pop\n        /* \"hopium/common/lib/full-math.sol\":285:2708  function mulDiv(... */\n    tag_326:\n      swap4\n      swap3\n      pop\n      pop\n      pop\n      jump\t// out\n        /* \"hopium/uniswap/interface/imUniswapOracle.sol\":218:369  function getUniswapOracle() internal view virtual returns (IUniswapOracle) {... */\n    tag_173:\n        /* \"hopium/uniswap/interface/imUniswapOracle.sol\":277:291  IUniswapOracle */\n      0x00\n        /* \"hopium/uniswap/interface/imUniswapOracle.sol\":325:361  fetchFromDirectory(\"uniswap-oracle\") */\n      tag_334\n      mload(0x40)\n      dup1\n      0x40\n      add\n      0x40\n      mstore\n      dup1\n      0x0e\n      dup2\n      mstore\n      0x20\n      add\n      0x756e69737761702d6f7261636c65000000000000000000000000000000000000\n      dup2\n      mstore\n      pop\n        /* \"hopium/uniswap/interface/imUniswapOracle.sol\":325:343  fetchFromDirectory */\n      tag_34\n        /* \"hopium/uniswap/interface/imUniswapOracle.sol\":325:361  fetchFromDirectory(\"uniswap-oracle\") */\n      jump\t// in\n    tag_334:\n        /* \"hopium/uniswap/interface/imUniswapOracle.sol\":303:362  return IUniswapOracle(fetchFromDirectory(\"uniswap-oracle\")) */\n      swap1\n      pop\n        /* \"hopium/uniswap/interface/imUniswapOracle.sol\":218:369  function getUniswapOracle() internal view virtual returns (IUniswapOracle) {... */\n      swap1\n      jump\t// out\n        /* \"hopium/etf/main/etf-oracle.sol\":8330:8784  function _sumPerAsset(Etf memory etf, function (address) external view returns (uint256) fn) internal view returns (uint256 sum) {... */\n    tag_226:\n        /* \"hopium/etf/main/etf-oracle.sol\":8446:8457  uint256 sum */\n      0x00\n        /* \"hopium/etf/main/etf-oracle.sol\":8498:8507  uint256 i */\n      0x00\n        /* \"hopium/etf/main/etf-oracle.sol\":8510:8511  0 */\n      0x00\n        /* \"hopium/etf/main/etf-oracle.sol\":8498:8511  uint256 i = 0 */\n      swap1\n      pop\n        /* \"hopium/etf/main/etf-oracle.sol\":8493:8768  for (uint256 i = 0; i < etf.assets.length; ++i) {... */\n    tag_336:\n        /* \"hopium/etf/main/etf-oracle.sol\":8517:8520  etf */\n      dup5\n        /* \"hopium/etf/main/etf-oracle.sol\":8517:8527  etf.assets */\n      0x40\n      add\n      mload\n        /* \"hopium/etf/main/etf-oracle.sol\":8517:8534  etf.assets.length */\n      mload\n        /* \"hopium/etf/main/etf-oracle.sol\":8513:8514  i */\n      dup2\n        /* \"hopium/etf/main/etf-oracle.sol\":8513:8534  i < etf.assets.length */\n      lt\n        /* \"hopium/etf/main/etf-oracle.sol\":8493:8768  for (uint256 i = 0; i < etf.assets.length; ++i) {... */\n      iszero\n      tag_337\n      jumpi\n        /* \"hopium/etf/main/etf-oracle.sol\":8559:8572  address token */\n      0x00\n        /* \"hopium/etf/main/etf-oracle.sol\":8575:8578  etf */\n      dup6\n        /* \"hopium/etf/main/etf-oracle.sol\":8575:8585  etf.assets */\n      0x40\n      add\n      mload\n        /* \"hopium/etf/main/etf-oracle.sol\":8586:8587  i */\n      dup3\n        /* \"hopium/etf/main/etf-oracle.sol\":8575:8588  etf.assets[i] */\n      dup2\n      mload\n      dup2\n      lt\n      tag_339\n      jumpi\n      tag_340\n      tag_193\n      jump\t// in\n    tag_340:\n    tag_339:\n      0x20\n      mul\n      0x20\n      add\n      add\n      mload\n        /* \"hopium/etf/main/etf-oracle.sol\":8575:8601  etf.assets[i].tokenAddress */\n      0x00\n      add\n      mload\n        /* \"hopium/etf/main/etf-oracle.sol\":8559:8601  address token = etf.assets[i].tokenAddress */\n      swap1\n      pop\n        /* \"hopium/etf/main/etf-oracle.sol\":8623:8625  fn */\n      dup5\n      dup5\n        /* \"hopium/etf/main/etf-oracle.sol\":8626:8631  token */\n      dup3\n        /* \"hopium/etf/main/etf-oracle.sol\":8623:8632  fn(token) */\n      mload(0x40)\n      dup3\n      0xffffffff\n      and\n      0xe0\n      shl\n      dup2\n      mstore\n      0x04\n      add\n      tag_341\n      swap2\n      swap1\n      tag_36\n      jump\t// in\n    tag_341:\n      0x20\n      mload(0x40)\n      dup1\n      dup4\n      sub\n      dup2\n      dup7\n      gas\n      staticcall\n      swap3\n      pop\n      pop\n      pop\n      dup1\n      iszero\n      tag_342\n      jumpi\n      pop\n      mload(0x40)\n      returndatasize\n      not(0x1f)\n      0x1f\n      dup3\n      add\n      and\n      dup3\n      add\n      dup1\n      0x40\n      mstore\n      pop\n      dup2\n      add\n      swap1\n      tag_343\n      swap2\n      swap1\n      tag_155\n      jump\t// in\n    tag_343:\n      0x01\n    tag_342:\n        /* \"hopium/etf/main/etf-oracle.sol\":8619:8754  try fn(token) returns (uint256 value) {... */\n      iszero\n      tag_348\n      jumpi\n        /* \"hopium/etf/main/etf-oracle.sol\":8686:8691  value */\n      dup1\n        /* \"hopium/etf/main/etf-oracle.sol\":8679:8691  sum += value */\n      dup5\n      add\n      swap4\n      pop\n        /* \"hopium/etf/main/etf-oracle.sol\":8633:8710  returns (uint256 value) {... */\n      pop\n        /* \"hopium/etf/main/etf-oracle.sol\":8619:8754  try fn(token) returns (uint256 value) {... */\n    tag_348:\n        /* \"hopium/etf/main/etf-oracle.sol\":8541:8768  {... */\n      pop\n        /* \"hopium/etf/main/etf-oracle.sol\":8536:8539  ++i */\n      dup1\n      0x01\n      add\n      swap1\n      pop\n        /* \"hopium/etf/main/etf-oracle.sol\":8493:8768  for (uint256 i = 0; i < etf.assets.length; ++i) {... */\n      jump(tag_336)\n    tag_337:\n      pop\n        /* \"hopium/etf/main/etf-oracle.sol\":8330:8784  function _sumPerAsset(Etf memory etf, function (address) external view returns (uint256) fn) internal view returns (uint256 sum) {... */\n      swap4\n      swap3\n      pop\n      pop\n      pop\n      jump\t// out\n        /* \"hopium/etf/main/etf-oracle.sol\":627:834  function _pow10(uint8 exp) internal pure returns (uint256) {... */\n    tag_298:\n        /* \"hopium/etf/main/etf-oracle.sol\":677:684  uint256 */\n      0x00\n        /* \"hopium/etf/main/etf-oracle.sol\":711:713  77 */\n      0x4d\n        /* \"hopium/etf/main/etf-oracle.sol\":704:707  exp */\n      dup3\n        /* \"hopium/etf/main/etf-oracle.sol\":704:713  exp <= 77 */\n      0xff\n      and\n      gt\n      iszero\n        /* \"hopium/etf/main/etf-oracle.sol\":696:732  require(exp <= 77, \"pow10 overflow\") */\n      tag_350\n      jumpi\n      mload(0x40)\n      0x08c379a000000000000000000000000000000000000000000000000000000000\n      dup2\n      mstore\n      0x04\n      add\n      tag_351\n      swap1\n      tag_352\n      jump\t// in\n    tag_351:\n      mload(0x40)\n      dup1\n      swap2\n      sub\n      swap1\n      revert\n    tag_350:\n        /* \"hopium/etf/main/etf-oracle.sol\":821:824  exp */\n      dup2\n        /* \"hopium/etf/main/etf-oracle.sol\":813:825  uint256(exp) */\n      0xff\n      and\n        /* \"hopium/etf/main/etf-oracle.sol\":807:809  10 */\n      0x0a\n        /* \"hopium/etf/main/etf-oracle.sol\":807:825  10 ** uint256(exp) */\n      exp\n        /* \"hopium/etf/main/etf-oracle.sol\":800:825  return 10 ** uint256(exp) */\n      swap1\n      pop\n        /* \"hopium/etf/main/etf-oracle.sol\":627:834  function _pow10(uint8 exp) internal pure returns (uint256) {... */\n      swap2\n      swap1\n      pop\n      jump\t// out\n    tag_88:\n      mload(0x40)\n      dup1\n      0x40\n      add\n      0x40\n      mstore\n      dup1\n      0x00\n      dup2\n      mstore\n      0x20\n      add\n      0x00\n      dup2\n      mstore\n      pop\n      swap1\n      jump\t// out\n    tag_186:\n      mload(0x40)\n      dup1\n      0xc0\n      add\n      0x40\n      mstore\n      dup1\n      and(0xffffffffffffffffffffffffffffffffffffffff, 0x00)\n      dup2\n      mstore\n      0x20\n      add\n      and(0xff, 0x00)\n      dup2\n      mstore\n      0x20\n      add\n      and(0xffff, 0x00)\n      dup2\n      mstore\n      0x20\n      add\n      0x00\n      dup2\n      mstore\n      0x20\n      add\n      0x00\n      dup2\n      mstore\n      0x20\n      add\n      0x00\n      dup2\n      mstore\n      pop\n      swap1\n      jump\t// out\n    tag_252:\n      mload(0x40)\n      dup1\n      0x0100\n      add\n      0x40\n      mstore\n      dup1\n      and(0xffffffffffffffffffffffffffffffffffffffff, 0x00)\n      dup2\n      mstore\n      0x20\n      add\n      and(0xff, 0x00)\n      dup2\n      mstore\n      0x20\n      add\n      and(0xffff, 0x00)\n      dup2\n      mstore\n      0x20\n      add\n      0x00\n      dup2\n      mstore\n      0x20\n      add\n      0x00\n      dup2\n      mstore\n      0x20\n      add\n      0x00\n      dup2\n      mstore\n      0x20\n      add\n      0x00\n      dup2\n      mstore\n      0x20\n      add\n      0x00\n      dup2\n      mstore\n      pop\n      swap1\n      jump\t// out\n        /* \"#utility.yul\":7:82   */\n    tag_353:\n        /* \"#utility.yul\":40:46   */\n      0x00\n        /* \"#utility.yul\":73:75   */\n      0x40\n        /* \"#utility.yul\":67:76   */\n      mload\n        /* \"#utility.yul\":57:76   */\n      swap1\n      pop\n        /* \"#utility.yul\":7:82   */\n      swap1\n      jump\t// out\n        /* \"#utility.yul\":88:205   */\n    tag_354:\n        /* \"#utility.yul\":197:198   */\n      0x00\n        /* \"#utility.yul\":194:195   */\n      0x00\n        /* \"#utility.yul\":187:199   */\n      revert\n        /* \"#utility.yul\":211:328   */\n    tag_355:\n        /* \"#utility.yul\":320:321   */\n      0x00\n        /* \"#utility.yul\":317:318   */\n      0x00\n        /* \"#utility.yul\":310:322   */\n      revert\n        /* \"#utility.yul\":334:411   */\n    tag_356:\n        /* \"#utility.yul\":371:378   */\n      0x00\n        /* \"#utility.yul\":400:405   */\n      dup2\n        /* \"#utility.yul\":389:405   */\n      swap1\n      pop\n        /* \"#utility.yul\":334:411   */\n      swap2\n      swap1\n      pop\n      jump\t// out\n        /* \"#utility.yul\":417:539   */\n    tag_357:\n        /* \"#utility.yul\":490:514   */\n      tag_444\n        /* \"#utility.yul\":508:513   */\n      dup2\n        /* \"#utility.yul\":490:514   */\n      tag_356\n      jump\t// in\n    tag_444:\n        /* \"#utility.yul\":483:488   */\n      dup2\n        /* \"#utility.yul\":480:515   */\n      eq\n        /* \"#utility.yul\":470:533   */\n      tag_445\n      jumpi\n        /* \"#utility.yul\":529:530   */\n      0x00\n        /* \"#utility.yul\":526:527   */\n      0x00\n        /* \"#utility.yul\":519:531   */\n      revert\n        /* \"#utility.yul\":470:533   */\n    tag_445:\n        /* \"#utility.yul\":417:539   */\n      pop\n      jump\t// out\n        /* \"#utility.yul\":545:684   */\n    tag_358:\n        /* \"#utility.yul\":591:596   */\n      0x00\n        /* \"#utility.yul\":629:635   */\n      dup2\n        /* \"#utility.yul\":616:636   */\n      calldataload\n        /* \"#utility.yul\":607:636   */\n      swap1\n      pop\n        /* \"#utility.yul\":645:678   */\n      tag_447\n        /* \"#utility.yul\":672:677   */\n      dup2\n        /* \"#utility.yul\":645:678   */\n      tag_357\n      jump\t// in\n    tag_447:\n        /* \"#utility.yul\":545:684   */\n      swap3\n      swap2\n      pop\n      pop\n      jump\t// out\n        /* \"#utility.yul\":690:1019   */\n    tag_17:\n        /* \"#utility.yul\":749:755   */\n      0x00\n        /* \"#utility.yul\":798:800   */\n      0x20\n        /* \"#utility.yul\":786:795   */\n      dup3\n        /* \"#utility.yul\":777:784   */\n      dup5\n        /* \"#utility.yul\":773:796   */\n      sub\n        /* \"#utility.yul\":769:801   */\n      slt\n        /* \"#utility.yul\":766:885   */\n      iszero\n      tag_449\n      jumpi\n        /* \"#utility.yul\":804:883   */\n      tag_450\n      tag_354\n      jump\t// in\n    tag_450:\n        /* \"#utility.yul\":766:885   */\n    tag_449:\n        /* \"#utility.yul\":924:925   */\n      0x00\n        /* \"#utility.yul\":949:1002   */\n      tag_451\n        /* \"#utility.yul\":994:1001   */\n      dup5\n        /* \"#utility.yul\":985:991   */\n      dup3\n        /* \"#utility.yul\":974:983   */\n      dup6\n        /* \"#utility.yul\":970:992   */\n      add\n        /* \"#utility.yul\":949:1002   */\n      tag_358\n      jump\t// in\n    tag_451:\n        /* \"#utility.yul\":939:1002   */\n      swap2\n      pop\n        /* \"#utility.yul\":895:1012   */\n      pop\n        /* \"#utility.yul\":690:1019   */\n      swap3\n      swap2\n      pop\n      pop\n      jump\t// out\n        /* \"#utility.yul\":1025:1143   */\n    tag_359:\n        /* \"#utility.yul\":1112:1136   */\n      tag_453\n        /* \"#utility.yul\":1130:1135   */\n      dup2\n        /* \"#utility.yul\":1112:1136   */\n      tag_356\n      jump\t// in\n    tag_453:\n        /* \"#utility.yul\":1107:1110   */\n      dup3\n        /* \"#utility.yul\":1100:1137   */\n      mstore\n        /* \"#utility.yul\":1025:1143   */\n      pop\n      pop\n      jump\t// out\n        /* \"#utility.yul\":1149:1371   */\n    tag_20:\n        /* \"#utility.yul\":1242:1246   */\n      0x00\n        /* \"#utility.yul\":1280:1282   */\n      0x20\n        /* \"#utility.yul\":1269:1278   */\n      dup3\n        /* \"#utility.yul\":1265:1283   */\n      add\n        /* \"#utility.yul\":1257:1283   */\n      swap1\n      pop\n        /* \"#utility.yul\":1293:1364   */\n      tag_455\n        /* \"#utility.yul\":1361:1362   */\n      0x00\n        /* \"#utility.yul\":1350:1359   */\n      dup4\n        /* \"#utility.yul\":1346:1363   */\n      add\n        /* \"#utility.yul\":1337:1343   */\n      dup5\n        /* \"#utility.yul\":1293:1364   */\n      tag_359\n      jump\t// in\n    tag_455:\n        /* \"#utility.yul\":1149:1371   */\n      swap3\n      swap2\n      pop\n      pop\n      jump\t// out\n        /* \"#utility.yul\":1377:1516   */\n    tag_360:\n        /* \"#utility.yul\":1469:1475   */\n      0x00\n        /* \"#utility.yul\":1503:1508   */\n      dup2\n        /* \"#utility.yul\":1497:1509   */\n      mload\n        /* \"#utility.yul\":1487:1509   */\n      swap1\n      pop\n        /* \"#utility.yul\":1377:1516   */\n      swap2\n      swap1\n      pop\n      jump\t// out\n        /* \"#utility.yul\":1522:1731   */\n    tag_361:\n        /* \"#utility.yul\":1646:1657   */\n      0x00\n        /* \"#utility.yul\":1680:1686   */\n      dup3\n        /* \"#utility.yul\":1675:1678   */\n      dup3\n        /* \"#utility.yul\":1668:1687   */\n      mstore\n        /* \"#utility.yul\":1720:1724   */\n      0x20\n        /* \"#utility.yul\":1715:1718   */\n      dup3\n        /* \"#utility.yul\":1711:1725   */\n      add\n        /* \"#utility.yul\":1696:1725   */\n      swap1\n      pop\n        /* \"#utility.yul\":1522:1731   */\n      swap3\n      swap2\n      pop\n      pop\n      jump\t// out\n        /* \"#utility.yul\":1737:1894   */\n    tag_362:\n        /* \"#utility.yul\":1829:1833   */\n      0x00\n        /* \"#utility.yul\":1852:1855   */\n      dup2\n        /* \"#utility.yul\":1844:1855   */\n      swap1\n      pop\n        /* \"#utility.yul\":1882:1886   */\n      0x20\n        /* \"#utility.yul\":1877:1880   */\n      dup3\n        /* \"#utility.yul\":1873:1887   */\n      add\n        /* \"#utility.yul\":1865:1887   */\n      swap1\n      pop\n        /* \"#utility.yul\":1737:1894   */\n      swap2\n      swap1\n      pop\n      jump\t// out\n        /* \"#utility.yul\":1900:2026   */\n    tag_363:\n        /* \"#utility.yul\":1937:1944   */\n      0x00\n        /* \"#utility.yul\":1977:2019   */\n      0xffffffffffffffffffffffffffffffffffffffff\n        /* \"#utility.yul\":1970:1975   */\n      dup3\n        /* \"#utility.yul\":1966:2020   */\n      and\n        /* \"#utility.yul\":1955:2020   */\n      swap1\n      pop\n        /* \"#utility.yul\":1900:2026   */\n      swap2\n      swap1\n      pop\n      jump\t// out\n        /* \"#utility.yul\":2032:2128   */\n    tag_364:\n        /* \"#utility.yul\":2069:2076   */\n      0x00\n        /* \"#utility.yul\":2098:2122   */\n      tag_461\n        /* \"#utility.yul\":2116:2121   */\n      dup3\n        /* \"#utility.yul\":2098:2122   */\n      tag_363\n      jump\t// in\n    tag_461:\n        /* \"#utility.yul\":2087:2122   */\n      swap1\n      pop\n        /* \"#utility.yul\":2032:2128   */\n      swap2\n      swap1\n      pop\n      jump\t// out\n        /* \"#utility.yul\":2134:2242   */\n    tag_365:\n        /* \"#utility.yul\":2211:2235   */\n      tag_463\n        /* \"#utility.yul\":2229:2234   */\n      dup2\n        /* \"#utility.yul\":2211:2235   */\n      tag_364\n      jump\t// in\n    tag_463:\n        /* \"#utility.yul\":2206:2209   */\n      dup3\n        /* \"#utility.yul\":2199:2236   */\n      mstore\n        /* \"#utility.yul\":2134:2242   */\n      pop\n      pop\n      jump\t// out\n        /* \"#utility.yul\":2248:2334   */\n    tag_366:\n        /* \"#utility.yul\":2283:2290   */\n      0x00\n        /* \"#utility.yul\":2323:2327   */\n      0xff\n        /* \"#utility.yul\":2316:2321   */\n      dup3\n        /* \"#utility.yul\":2312:2328   */\n      and\n        /* \"#utility.yul\":2301:2328   */\n      swap1\n      pop\n        /* \"#utility.yul\":2248:2334   */\n      swap2\n      swap1\n      pop\n      jump\t// out\n        /* \"#utility.yul\":2340:2442   */\n    tag_367:\n        /* \"#utility.yul\":2413:2435   */\n      tag_466\n        /* \"#utility.yul\":2429:2434   */\n      dup2\n        /* \"#utility.yul\":2413:2435   */\n      tag_366\n      jump\t// in\n    tag_466:\n        /* \"#utility.yul\":2408:2411   */\n      dup3\n        /* \"#utility.yul\":2401:2436   */\n      mstore\n        /* \"#utility.yul\":2340:2442   */\n      pop\n      pop\n      jump\t// out\n        /* \"#utility.yul\":2448:2537   */\n    tag_368:\n        /* \"#utility.yul\":2484:2491   */\n      0x00\n        /* \"#utility.yul\":2524:2530   */\n      0xffff\n        /* \"#utility.yul\":2517:2522   */\n      dup3\n        /* \"#utility.yul\":2513:2531   */\n      and\n        /* \"#utility.yul\":2502:2531   */\n      swap1\n      pop\n        /* \"#utility.yul\":2448:2537   */\n      swap2\n      swap1\n      pop\n      jump\t// out\n        /* \"#utility.yul\":2543:2648   */\n    tag_369:\n        /* \"#utility.yul\":2618:2641   */\n      tag_469\n        /* \"#utility.yul\":2635:2640   */\n      dup2\n        /* \"#utility.yul\":2618:2641   */\n      tag_368\n      jump\t// in\n    tag_469:\n        /* \"#utility.yul\":2613:2616   */\n      dup3\n        /* \"#utility.yul\":2606:2642   */\n      mstore\n        /* \"#utility.yul\":2543:2648   */\n      pop\n      pop\n      jump\t// out\n        /* \"#utility.yul\":2654:2762   */\n    tag_370:\n        /* \"#utility.yul\":2731:2755   */\n      tag_471\n        /* \"#utility.yul\":2749:2754   */\n      dup2\n        /* \"#utility.yul\":2731:2755   */\n      tag_356\n      jump\t// in\n    tag_471:\n        /* \"#utility.yul\":2726:2729   */\n      dup3\n        /* \"#utility.yul\":2719:2756   */\n      mstore\n        /* \"#utility.yul\":2654:2762   */\n      pop\n      pop\n      jump\t// out\n        /* \"#utility.yul\":2810:4058   */\n    tag_371:\n        /* \"#utility.yul\":2947:2951   */\n      0xc0\n        /* \"#utility.yul\":2942:2945   */\n      dup3\n        /* \"#utility.yul\":2938:2952   */\n      add\n        /* \"#utility.yul\":3042:3046   */\n      0x00\n        /* \"#utility.yul\":3035:3040   */\n      dup3\n        /* \"#utility.yul\":3031:3047   */\n      add\n        /* \"#utility.yul\":3025:3048   */\n      mload\n        /* \"#utility.yul\":3061:3124   */\n      tag_473\n        /* \"#utility.yul\":3118:3122   */\n      0x00\n        /* \"#utility.yul\":3113:3116   */\n      dup6\n        /* \"#utility.yul\":3109:3123   */\n      add\n        /* \"#utility.yul\":3095:3107   */\n      dup3\n        /* \"#utility.yul\":3061:3124   */\n      tag_365\n      jump\t// in\n    tag_473:\n        /* \"#utility.yul\":2962:3134   */\n      pop\n        /* \"#utility.yul\":3225:3229   */\n      0x20\n        /* \"#utility.yul\":3218:3223   */\n      dup3\n        /* \"#utility.yul\":3214:3230   */\n      add\n        /* \"#utility.yul\":3208:3231   */\n      mload\n        /* \"#utility.yul\":3244:3303   */\n      tag_474\n        /* \"#utility.yul\":3297:3301   */\n      0x20\n        /* \"#utility.yul\":3292:3295   */\n      dup6\n        /* \"#utility.yul\":3288:3302   */\n      add\n        /* \"#utility.yul\":3274:3286   */\n      dup3\n        /* \"#utility.yul\":3244:3303   */\n      tag_367\n      jump\t// in\n    tag_474:\n        /* \"#utility.yul\":3144:3313   */\n      pop\n        /* \"#utility.yul\":3404:3408   */\n      0x40\n        /* \"#utility.yul\":3397:3402   */\n      dup3\n        /* \"#utility.yul\":3393:3409   */\n      add\n        /* \"#utility.yul\":3387:3410   */\n      mload\n        /* \"#utility.yul\":3423:3484   */\n      tag_475\n        /* \"#utility.yul\":3478:3482   */\n      0x40\n        /* \"#utility.yul\":3473:3476   */\n      dup6\n        /* \"#utility.yul\":3469:3483   */\n      add\n        /* \"#utility.yul\":3455:3467   */\n      dup3\n        /* \"#utility.yul\":3423:3484   */\n      tag_369\n      jump\t// in\n    tag_475:\n        /* \"#utility.yul\":3323:3494   */\n      pop\n        /* \"#utility.yul\":3587:3591   */\n      0x60\n        /* \"#utility.yul\":3580:3585   */\n      dup3\n        /* \"#utility.yul\":3576:3592   */\n      add\n        /* \"#utility.yul\":3570:3593   */\n      mload\n        /* \"#utility.yul\":3606:3669   */\n      tag_476\n        /* \"#utility.yul\":3663:3667   */\n      0x60\n        /* \"#utility.yul\":3658:3661   */\n      dup6\n        /* \"#utility.yul\":3654:3668   */\n      add\n        /* \"#utility.yul\":3640:3652   */\n      dup3\n        /* \"#utility.yul\":3606:3669   */\n      tag_370\n      jump\t// in\n    tag_476:\n        /* \"#utility.yul\":3504:3679   */\n      pop\n        /* \"#utility.yul\":3773:3777   */\n      0x80\n        /* \"#utility.yul\":3766:3771   */\n      dup3\n        /* \"#utility.yul\":3762:3778   */\n      add\n        /* \"#utility.yul\":3756:3779   */\n      mload\n        /* \"#utility.yul\":3792:3855   */\n      tag_477\n        /* \"#utility.yul\":3849:3853   */\n      0x80\n        /* \"#utility.yul\":3844:3847   */\n      dup6\n        /* \"#utility.yul\":3840:3854   */\n      add\n        /* \"#utility.yul\":3826:3838   */\n      dup3\n        /* \"#utility.yul\":3792:3855   */\n      tag_370\n      jump\t// in\n    tag_477:\n        /* \"#utility.yul\":3689:3865   */\n      pop\n        /* \"#utility.yul\":3959:3963   */\n      0xa0\n        /* \"#utility.yul\":3952:3957   */\n      dup3\n        /* \"#utility.yul\":3948:3964   */\n      add\n        /* \"#utility.yul\":3942:3965   */\n      mload\n        /* \"#utility.yul\":3978:4041   */\n      tag_478\n        /* \"#utility.yul\":4035:4039   */\n      0xa0\n        /* \"#utility.yul\":4030:4033   */\n      dup6\n        /* \"#utility.yul\":4026:4040   */\n      add\n        /* \"#utility.yul\":4012:4024   */\n      dup3\n        /* \"#utility.yul\":3978:4041   */\n      tag_370\n      jump\t// in\n    tag_478:\n        /* \"#utility.yul\":3875:4051   */\n      pop\n        /* \"#utility.yul\":2916:4058   */\n      pop\n        /* \"#utility.yul\":2810:4058   */\n      pop\n      pop\n      jump\t// out\n        /* \"#utility.yul\":4064:4343   */\n    tag_372:\n        /* \"#utility.yul\":4183:4193   */\n      0x00\n        /* \"#utility.yul\":4204:4300   */\n      tag_480\n        /* \"#utility.yul\":4296:4299   */\n      dup4\n        /* \"#utility.yul\":4288:4294   */\n      dup4\n        /* \"#utility.yul\":4204:4300   */\n      tag_371\n      jump\t// in\n    tag_480:\n        /* \"#utility.yul\":4332:4336   */\n      0xc0\n        /* \"#utility.yul\":4327:4330   */\n      dup4\n        /* \"#utility.yul\":4323:4337   */\n      add\n        /* \"#utility.yul\":4309:4337   */\n      swap1\n      pop\n        /* \"#utility.yul\":4064:4343   */\n      swap3\n      swap2\n      pop\n      pop\n      jump\t// out\n        /* \"#utility.yul\":4349:4487   */\n    tag_373:\n        /* \"#utility.yul\":4444:4448   */\n      0x00\n        /* \"#utility.yul\":4476:4480   */\n      0x20\n        /* \"#utility.yul\":4471:4474   */\n      dup3\n        /* \"#utility.yul\":4467:4481   */\n      add\n        /* \"#utility.yul\":4459:4481   */\n      swap1\n      pop\n        /* \"#utility.yul\":4349:4487   */\n      swap2\n      swap1\n      pop\n      jump\t// out\n        /* \"#utility.yul\":4539:5471   */\n    tag_374:\n        /* \"#utility.yul\":4708:4711   */\n      0x00\n        /* \"#utility.yul\":4737:4816   */\n      tag_483\n        /* \"#utility.yul\":4810:4815   */\n      dup3\n        /* \"#utility.yul\":4737:4816   */\n      tag_360\n      jump\t// in\n    tag_483:\n        /* \"#utility.yul\":4832:4943   */\n      tag_484\n        /* \"#utility.yul\":4936:4942   */\n      dup2\n        /* \"#utility.yul\":4931:4934   */\n      dup6\n        /* \"#utility.yul\":4832:4943   */\n      tag_361\n      jump\t// in\n    tag_484:\n        /* \"#utility.yul\":4825:4943   */\n      swap4\n      pop\n        /* \"#utility.yul\":4967:5048   */\n      tag_485\n        /* \"#utility.yul\":5042:5047   */\n      dup4\n        /* \"#utility.yul\":4967:5048   */\n      tag_362\n      jump\t// in\n    tag_485:\n        /* \"#utility.yul\":5071:5078   */\n      dup1\n        /* \"#utility.yul\":5102:5103   */\n      0x00\n        /* \"#utility.yul\":5087:5446   */\n    tag_486:\n        /* \"#utility.yul\":5112:5118   */\n      dup4\n        /* \"#utility.yul\":5109:5110   */\n      dup2\n        /* \"#utility.yul\":5106:5119   */\n      lt\n        /* \"#utility.yul\":5087:5446   */\n      iszero\n      tag_488\n      jumpi\n        /* \"#utility.yul\":5188:5194   */\n      dup2\n        /* \"#utility.yul\":5182:5195   */\n      mload\n        /* \"#utility.yul\":5215:5328   */\n      tag_489\n        /* \"#utility.yul\":5324:5327   */\n      dup9\n        /* \"#utility.yul\":5309:5322   */\n      dup3\n        /* \"#utility.yul\":5215:5328   */\n      tag_372\n      jump\t// in\n    tag_489:\n        /* \"#utility.yul\":5208:5328   */\n      swap8\n      pop\n        /* \"#utility.yul\":5351:5436   */\n      tag_490\n        /* \"#utility.yul\":5429:5435   */\n      dup4\n        /* \"#utility.yul\":5351:5436   */\n      tag_373\n      jump\t// in\n    tag_490:\n        /* \"#utility.yul\":5341:5436   */\n      swap3\n      pop\n        /* \"#utility.yul\":5147:5446   */\n      pop\n        /* \"#utility.yul\":5134:5135   */\n      0x01\n        /* \"#utility.yul\":5131:5132   */\n      dup2\n        /* \"#utility.yul\":5127:5136   */\n      add\n        /* \"#utility.yul\":5122:5136   */\n      swap1\n      pop\n        /* \"#utility.yul\":5087:5446   */\n      jump(tag_486)\n    tag_488:\n        /* \"#utility.yul\":5091:5105   */\n      pop\n        /* \"#utility.yul\":5462:5465   */\n      dup6\n        /* \"#utility.yul\":5455:5465   */\n      swap4\n      pop\n        /* \"#utility.yul\":4713:5471   */\n      pop\n      pop\n      pop\n        /* \"#utility.yul\":4539:5471   */\n      swap3\n      swap2\n      pop\n      pop\n      jump\t// out\n        /* \"#utility.yul\":5477:6060   */\n    tag_25:\n        /* \"#utility.yul\":5698:5702   */\n      0x00\n        /* \"#utility.yul\":5736:5738   */\n      0x40\n        /* \"#utility.yul\":5725:5734   */\n      dup3\n        /* \"#utility.yul\":5721:5739   */\n      add\n        /* \"#utility.yul\":5713:5739   */\n      swap1\n      pop\n        /* \"#utility.yul\":5785:5794   */\n      dup2\n        /* \"#utility.yul\":5779:5783   */\n      dup2\n        /* \"#utility.yul\":5775:5795   */\n      sub\n        /* \"#utility.yul\":5771:5772   */\n      0x00\n        /* \"#utility.yul\":5760:5769   */\n      dup4\n        /* \"#utility.yul\":5756:5773   */\n      add\n        /* \"#utility.yul\":5749:5796   */\n      mstore\n        /* \"#utility.yul\":5813:5971   */\n      tag_492\n        /* \"#utility.yul\":5966:5970   */\n      dup2\n        /* \"#utility.yul\":5957:5963   */\n      dup6\n        /* \"#utility.yul\":5813:5971   */\n      tag_374\n      jump\t// in\n    tag_492:\n        /* \"#utility.yul\":5805:5971   */\n      swap1\n      pop\n        /* \"#utility.yul\":5981:6053   */\n      tag_493\n        /* \"#utility.yul\":6049:6051   */\n      0x20\n        /* \"#utility.yul\":6038:6047   */\n      dup4\n        /* \"#utility.yul\":6034:6052   */\n      add\n        /* \"#utility.yul\":6025:6031   */\n      dup5\n        /* \"#utility.yul\":5981:6053   */\n      tag_359\n      jump\t// in\n    tag_493:\n        /* \"#utility.yul\":5477:6060   */\n      swap4\n      swap3\n      pop\n      pop\n      pop\n      jump\t// out\n        /* \"#utility.yul\":6120:6646   */\n    tag_375:\n        /* \"#utility.yul\":6263:6267   */\n      0x40\n        /* \"#utility.yul\":6258:6261   */\n      dup3\n        /* \"#utility.yul\":6254:6268   */\n      add\n        /* \"#utility.yul\":6364:6368   */\n      0x00\n        /* \"#utility.yul\":6357:6362   */\n      dup3\n        /* \"#utility.yul\":6353:6369   */\n      add\n        /* \"#utility.yul\":6347:6370   */\n      mload\n        /* \"#utility.yul\":6383:6446   */\n      tag_495\n        /* \"#utility.yul\":6440:6444   */\n      0x00\n        /* \"#utility.yul\":6435:6438   */\n      dup6\n        /* \"#utility.yul\":6431:6445   */\n      add\n        /* \"#utility.yul\":6417:6429   */\n      dup3\n        /* \"#utility.yul\":6383:6446   */\n      tag_370\n      jump\t// in\n    tag_495:\n        /* \"#utility.yul\":6278:6456   */\n      pop\n        /* \"#utility.yul\":6547:6551   */\n      0x20\n        /* \"#utility.yul\":6540:6545   */\n      dup3\n        /* \"#utility.yul\":6536:6552   */\n      add\n        /* \"#utility.yul\":6530:6553   */\n      mload\n        /* \"#utility.yul\":6566:6629   */\n      tag_496\n        /* \"#utility.yul\":6623:6627   */\n      0x20\n        /* \"#utility.yul\":6618:6621   */\n      dup6\n        /* \"#utility.yul\":6614:6628   */\n      add\n        /* \"#utility.yul\":6600:6612   */\n      dup3\n        /* \"#utility.yul\":6566:6629   */\n      tag_370\n      jump\t// in\n    tag_496:\n        /* \"#utility.yul\":6466:6639   */\n      pop\n        /* \"#utility.yul\":6232:6646   */\n      pop\n        /* \"#utility.yul\":6120:6646   */\n      pop\n      pop\n      jump\t// out\n        /* \"#utility.yul\":6652:6966   */\n    tag_30:\n        /* \"#utility.yul\":6791:6795   */\n      0x00\n        /* \"#utility.yul\":6829:6831   */\n      0x40\n        /* \"#utility.yul\":6818:6827   */\n      dup3\n        /* \"#utility.yul\":6814:6832   */\n      add\n        /* \"#utility.yul\":6806:6832   */\n      swap1\n      pop\n        /* \"#utility.yul\":6842:6959   */\n      tag_498\n        /* \"#utility.yul\":6956:6957   */\n      0x00\n        /* \"#utility.yul\":6945:6954   */\n      dup4\n        /* \"#utility.yul\":6941:6958   */\n      add\n        /* \"#utility.yul\":6932:6938   */\n      dup5\n        /* \"#utility.yul\":6842:6959   */\n      tag_375\n      jump\t// in\n    tag_498:\n        /* \"#utility.yul\":6652:6966   */\n      swap3\n      swap2\n      pop\n      pop\n      jump\t// out\n        /* \"#utility.yul\":6972:7089   */\n    tag_376:\n        /* \"#utility.yul\":7081:7082   */\n      0x00\n        /* \"#utility.yul\":7078:7079   */\n      0x00\n        /* \"#utility.yul\":7071:7083   */\n      revert\n        /* \"#utility.yul\":7095:7212   */\n    tag_377:\n        /* \"#utility.yul\":7204:7205   */\n      0x00\n        /* \"#utility.yul\":7201:7202   */\n      0x00\n        /* \"#utility.yul\":7194:7206   */\n      revert\n        /* \"#utility.yul\":7218:7320   */\n    tag_378:\n        /* \"#utility.yul\":7259:7265   */\n      0x00\n        /* \"#utility.yul\":7310:7312   */\n      0x1f\n        /* \"#utility.yul\":7306:7313   */\n      not\n        /* \"#utility.yul\":7301:7303   */\n      0x1f\n        /* \"#utility.yul\":7294:7299   */\n      dup4\n        /* \"#utility.yul\":7290:7304   */\n      add\n        /* \"#utility.yul\":7286:7314   */\n      and\n        /* \"#utility.yul\":7276:7314   */\n      swap1\n      pop\n        /* \"#utility.yul\":7218:7320   */\n      swap2\n      swap1\n      pop\n      jump\t// out\n        /* \"#utility.yul\":7326:7506   */\n    tag_182:\n        /* \"#utility.yul\":7374:7451   */\n      0x4e487b7100000000000000000000000000000000000000000000000000000000\n        /* \"#utility.yul\":7371:7372   */\n      0x00\n        /* \"#utility.yul\":7364:7452   */\n      mstore\n        /* \"#utility.yul\":7471:7475   */\n      0x41\n        /* \"#utility.yul\":7468:7469   */\n      0x04\n        /* \"#utility.yul\":7461:7476   */\n      mstore\n        /* \"#utility.yul\":7495:7499   */\n      0x24\n        /* \"#utility.yul\":7492:7493   */\n      0x00\n        /* \"#utility.yul\":7485:7500   */\n      revert\n        /* \"#utility.yul\":7512:7793   */\n    tag_379:\n        /* \"#utility.yul\":7595:7622   */\n      tag_504\n        /* \"#utility.yul\":7617:7621   */\n      dup3\n        /* \"#utility.yul\":7595:7622   */\n      tag_378\n      jump\t// in\n    tag_504:\n        /* \"#utility.yul\":7587:7593   */\n      dup2\n        /* \"#utility.yul\":7583:7623   */\n      add\n        /* \"#utility.yul\":7725:7731   */\n      dup2\n        /* \"#utility.yul\":7713:7723   */\n      dup2\n        /* \"#utility.yul\":7710:7732   */\n      lt\n        /* \"#utility.yul\":7689:7707   */\n      0xffffffffffffffff\n        /* \"#utility.yul\":7677:7687   */\n      dup3\n        /* \"#utility.yul\":7674:7708   */\n      gt\n        /* \"#utility.yul\":7671:7733   */\n      or\n        /* \"#utility.yul\":7668:7756   */\n      iszero\n      tag_505\n      jumpi\n        /* \"#utility.yul\":7736:7754   */\n      tag_506\n      tag_182\n      jump\t// in\n    tag_506:\n        /* \"#utility.yul\":7668:7756   */\n    tag_505:\n        /* \"#utility.yul\":7776:7786   */\n      dup1\n        /* \"#utility.yul\":7772:7774   */\n      0x40\n        /* \"#utility.yul\":7765:7787   */\n      mstore\n        /* \"#utility.yul\":7555:7793   */\n      pop\n        /* \"#utility.yul\":7512:7793   */\n      pop\n      pop\n      jump\t// out\n        /* \"#utility.yul\":7799:7928   */\n    tag_380:\n        /* \"#utility.yul\":7833:7839   */\n      0x00\n        /* \"#utility.yul\":7860:7880   */\n      tag_508\n      tag_353\n      jump\t// in\n    tag_508:\n        /* \"#utility.yul\":7850:7880   */\n      swap1\n      pop\n        /* \"#utility.yul\":7889:7922   */\n      tag_509\n        /* \"#utility.yul\":7917:7921   */\n      dup3\n        /* \"#utility.yul\":7909:7915   */\n      dup3\n        /* \"#utility.yul\":7889:7922   */\n      tag_379\n      jump\t// in\n    tag_509:\n        /* \"#utility.yul\":7799:7928   */\n      swap2\n      swap1\n      pop\n      jump\t// out\n        /* \"#utility.yul\":7934:8242   */\n    tag_381:\n        /* \"#utility.yul\":7996:8000   */\n      0x00\n        /* \"#utility.yul\":8086:8104   */\n      0xffffffffffffffff\n        /* \"#utility.yul\":8078:8084   */\n      dup3\n        /* \"#utility.yul\":8075:8105   */\n      gt\n        /* \"#utility.yul\":8072:8128   */\n      iszero\n      tag_511\n      jumpi\n        /* \"#utility.yul\":8108:8126   */\n      tag_512\n      tag_182\n      jump\t// in\n    tag_512:\n        /* \"#utility.yul\":8072:8128   */\n    tag_511:\n        /* \"#utility.yul\":8146:8175   */\n      tag_513\n        /* \"#utility.yul\":8168:8174   */\n      dup3\n        /* \"#utility.yul\":8146:8175   */\n      tag_378\n      jump\t// in\n    tag_513:\n        /* \"#utility.yul\":8138:8175   */\n      swap1\n      pop\n        /* \"#utility.yul\":8230:8234   */\n      0x20\n        /* \"#utility.yul\":8224:8228   */\n      dup2\n        /* \"#utility.yul\":8220:8235   */\n      add\n        /* \"#utility.yul\":8212:8235   */\n      swap1\n      pop\n        /* \"#utility.yul\":7934:8242   */\n      swap2\n      swap1\n      pop\n      jump\t// out\n        /* \"#utility.yul\":8248:8396   */\n    tag_382:\n        /* \"#utility.yul\":8346:8352   */\n      dup3\n        /* \"#utility.yul\":8341:8344   */\n      dup2\n        /* \"#utility.yul\":8336:8339   */\n      dup4\n        /* \"#utility.yul\":8323:8353   */\n      calldatacopy\n        /* \"#utility.yul\":8387:8388   */\n      0x00\n        /* \"#utility.yul\":8378:8384   */\n      dup4\n        /* \"#utility.yul\":8373:8376   */\n      dup4\n        /* \"#utility.yul\":8369:8385   */\n      add\n        /* \"#utility.yul\":8362:8389   */\n      mstore\n        /* \"#utility.yul\":8248:8396   */\n      pop\n      pop\n      pop\n      jump\t// out\n        /* \"#utility.yul\":8402:8827   */\n    tag_383:\n        /* \"#utility.yul\":8480:8485   */\n      0x00\n        /* \"#utility.yul\":8505:8571   */\n      tag_516\n        /* \"#utility.yul\":8521:8570   */\n      tag_517\n        /* \"#utility.yul\":8563:8569   */\n      dup5\n        /* \"#utility.yul\":8521:8570   */\n      tag_381\n      jump\t// in\n    tag_517:\n        /* \"#utility.yul\":8505:8571   */\n      tag_380\n      jump\t// in\n    tag_516:\n        /* \"#utility.yul\":8496:8571   */\n      swap1\n      pop\n        /* \"#utility.yul\":8594:8600   */\n      dup3\n        /* \"#utility.yul\":8587:8592   */\n      dup2\n        /* \"#utility.yul\":8580:8601   */\n      mstore\n        /* \"#utility.yul\":8632:8636   */\n      0x20\n        /* \"#utility.yul\":8625:8630   */\n      dup2\n        /* \"#utility.yul\":8621:8637   */\n      add\n        /* \"#utility.yul\":8670:8673   */\n      dup5\n        /* \"#utility.yul\":8661:8667   */\n      dup5\n        /* \"#utility.yul\":8656:8659   */\n      dup5\n        /* \"#utility.yul\":8652:8668   */\n      add\n        /* \"#utility.yul\":8649:8674   */\n      gt\n        /* \"#utility.yul\":8646:8758   */\n      iszero\n      tag_518\n      jumpi\n        /* \"#utility.yul\":8677:8756   */\n      tag_519\n      tag_377\n      jump\t// in\n    tag_519:\n        /* \"#utility.yul\":8646:8758   */\n    tag_518:\n        /* \"#utility.yul\":8767:8821   */\n      tag_520\n        /* \"#utility.yul\":8814:8820   */\n      dup5\n        /* \"#utility.yul\":8809:8812   */\n      dup3\n        /* \"#utility.yul\":8804:8807   */\n      dup6\n        /* \"#utility.yul\":8767:8821   */\n      tag_382\n      jump\t// in\n    tag_520:\n        /* \"#utility.yul\":8486:8827   */\n      pop\n        /* \"#utility.yul\":8402:8827   */\n      swap4\n      swap3\n      pop\n      pop\n      pop\n      jump\t// out\n        /* \"#utility.yul\":8847:9187   */\n    tag_384:\n        /* \"#utility.yul\":8903:8908   */\n      0x00\n        /* \"#utility.yul\":8952:8955   */\n      dup3\n        /* \"#utility.yul\":8945:8949   */\n      0x1f\n        /* \"#utility.yul\":8937:8943   */\n      dup4\n        /* \"#utility.yul\":8933:8950   */\n      add\n        /* \"#utility.yul\":8929:8956   */\n      slt\n        /* \"#utility.yul\":8919:9041   */\n      tag_522\n      jumpi\n        /* \"#utility.yul\":8960:9039   */\n      tag_523\n      tag_376\n      jump\t// in\n    tag_523:\n        /* \"#utility.yul\":8919:9041   */\n    tag_522:\n        /* \"#utility.yul\":9077:9083   */\n      dup2\n        /* \"#utility.yul\":9064:9084   */\n      calldataload\n        /* \"#utility.yul\":9102:9181   */\n      tag_524\n        /* \"#utility.yul\":9177:9180   */\n      dup5\n        /* \"#utility.yul\":9169:9175   */\n      dup3\n        /* \"#utility.yul\":9162:9166   */\n      0x20\n        /* \"#utility.yul\":9154:9160   */\n      dup7\n        /* \"#utility.yul\":9150:9167   */\n      add\n        /* \"#utility.yul\":9102:9181   */\n      tag_383\n      jump\t// in\n    tag_524:\n        /* \"#utility.yul\":9093:9181   */\n      swap2\n      pop\n        /* \"#utility.yul\":8909:9187   */\n      pop\n        /* \"#utility.yul\":8847:9187   */\n      swap3\n      swap2\n      pop\n      pop\n      jump\t// out\n        /* \"#utility.yul\":9193:9702   */\n    tag_33:\n        /* \"#utility.yul\":9262:9268   */\n      0x00\n        /* \"#utility.yul\":9311:9313   */\n      0x20\n        /* \"#utility.yul\":9299:9308   */\n      dup3\n        /* \"#utility.yul\":9290:9297   */\n      dup5\n        /* \"#utility.yul\":9286:9309   */\n      sub\n        /* \"#utility.yul\":9282:9314   */\n      slt\n        /* \"#utility.yul\":9279:9398   */\n      iszero\n      tag_526\n      jumpi\n        /* \"#utility.yul\":9317:9396   */\n      tag_527\n      tag_354\n      jump\t// in\n    tag_527:\n        /* \"#utility.yul\":9279:9398   */\n    tag_526:\n        /* \"#utility.yul\":9465:9466   */\n      0x00\n        /* \"#utility.yul\":9454:9463   */\n      dup3\n        /* \"#utility.yul\":9450:9467   */\n      add\n        /* \"#utility.yul\":9437:9468   */\n      calldataload\n        /* \"#utility.yul\":9495:9513   */\n      0xffffffffffffffff\n        /* \"#utility.yul\":9487:9493   */\n      dup2\n        /* \"#utility.yul\":9484:9514   */\n      gt\n        /* \"#utility.yul\":9481:9598   */\n      iszero\n      tag_528\n      jumpi\n        /* \"#utility.yul\":9517:9596   */\n      tag_529\n      tag_355\n      jump\t// in\n    tag_529:\n        /* \"#utility.yul\":9481:9598   */\n    tag_528:\n        /* \"#utility.yul\":9622:9685   */\n      tag_530\n        /* \"#utility.yul\":9677:9684   */\n      dup5\n        /* \"#utility.yul\":9668:9674   */\n      dup3\n        /* \"#utility.yul\":9657:9666   */\n      dup6\n        /* \"#utility.yul\":9653:9675   */\n      add\n        /* \"#utility.yul\":9622:9685   */\n      tag_384\n      jump\t// in\n    tag_530:\n        /* \"#utility.yul\":9612:9685   */\n      swap2\n      pop\n        /* \"#utility.yul\":9408:9695   */\n      pop\n        /* \"#utility.yul\":9193:9702   */\n      swap3\n      swap2\n      pop\n      pop\n      jump\t// out\n        /* \"#utility.yul\":9708:9826   */\n    tag_385:\n        /* \"#utility.yul\":9795:9819   */\n      tag_532\n        /* \"#utility.yul\":9813:9818   */\n      dup2\n        /* \"#utility.yul\":9795:9819   */\n      tag_364\n      jump\t// in\n    tag_532:\n        /* \"#utility.yul\":9790:9793   */\n      dup3\n        /* \"#utility.yul\":9783:9820   */\n      mstore\n        /* \"#utility.yul\":9708:9826   */\n      pop\n      pop\n      jump\t// out\n        /* \"#utility.yul\":9832:10054   */\n    tag_36:\n        /* \"#utility.yul\":9925:9929   */\n      0x00\n        /* \"#utility.yul\":9963:9965   */\n      0x20\n        /* \"#utility.yul\":9952:9961   */\n      dup3\n        /* \"#utility.yul\":9948:9966   */\n      add\n        /* \"#utility.yul\":9940:9966   */\n      swap1\n      pop\n        /* \"#utility.yul\":9976:10047   */\n      tag_534\n        /* \"#utility.yul\":10044:10045   */\n      0x00\n        /* \"#utility.yul\":10033:10042   */\n      dup4\n        /* \"#utility.yul\":10029:10046   */\n      add\n        /* \"#utility.yul\":10020:10026   */\n      dup5\n        /* \"#utility.yul\":9976:10047   */\n      tag_385\n      jump\t// in\n    tag_534:\n        /* \"#utility.yul\":9832:10054   */\n      swap3\n      swap2\n      pop\n      pop\n      jump\t// out\n        /* \"#utility.yul\":10060:10120   */\n    tag_386:\n        /* \"#utility.yul\":10088:10091   */\n      0x00\n        /* \"#utility.yul\":10109:10114   */\n      dup2\n        /* \"#utility.yul\":10102:10114   */\n      swap1\n      pop\n        /* \"#utility.yul\":10060:10120   */\n      swap2\n      swap1\n      pop\n      jump\t// out\n        /* \"#utility.yul\":10126:10268   */\n    tag_387:\n        /* \"#utility.yul\":10176:10185   */\n      0x00\n        /* \"#utility.yul\":10209:10262   */\n      tag_537\n        /* \"#utility.yul\":10227:10261   */\n      tag_538\n        /* \"#utility.yul\":10236:10260   */\n      tag_539\n        /* \"#utility.yul\":10254:10259   */\n      dup5\n        /* \"#utility.yul\":10236:10260   */\n      tag_363\n      jump\t// in\n    tag_539:\n        /* \"#utility.yul\":10227:10261   */\n      tag_386\n      jump\t// in\n    tag_538:\n        /* \"#utility.yul\":10209:10262   */\n      tag_363\n      jump\t// in\n    tag_537:\n        /* \"#utility.yul\":10196:10262   */\n      swap1\n      pop\n        /* \"#utility.yul\":10126:10268   */\n      swap2\n      swap1\n      pop\n      jump\t// out\n        /* \"#utility.yul\":10274:10400   */\n    tag_388:\n        /* \"#utility.yul\":10324:10333   */\n      0x00\n        /* \"#utility.yul\":10357:10394   */\n      tag_541\n        /* \"#utility.yul\":10388:10393   */\n      dup3\n        /* \"#utility.yul\":10357:10394   */\n      tag_387\n      jump\t// in\n    tag_541:\n        /* \"#utility.yul\":10344:10394   */\n      swap1\n      pop\n        /* \"#utility.yul\":10274:10400   */\n      swap2\n      swap1\n      pop\n      jump\t// out\n        /* \"#utility.yul\":10406:10549   */\n    tag_389:\n        /* \"#utility.yul\":10473:10482   */\n      0x00\n        /* \"#utility.yul\":10506:10543   */\n      tag_543\n        /* \"#utility.yul\":10537:10542   */\n      dup3\n        /* \"#utility.yul\":10506:10543   */\n      tag_388\n      jump\t// in\n    tag_543:\n        /* \"#utility.yul\":10493:10543   */\n      swap1\n      pop\n        /* \"#utility.yul\":10406:10549   */\n      swap2\n      swap1\n      pop\n      jump\t// out\n        /* \"#utility.yul\":10555:10720   */\n    tag_390:\n        /* \"#utility.yul\":10659:10713   */\n      tag_545\n        /* \"#utility.yul\":10707:10712   */\n      dup2\n        /* \"#utility.yul\":10659:10713   */\n      tag_389\n      jump\t// in\n    tag_545:\n        /* \"#utility.yul\":10654:10657   */\n      dup3\n        /* \"#utility.yul\":10647:10714   */\n      mstore\n        /* \"#utility.yul\":10555:10720   */\n      pop\n      pop\n      jump\t// out\n        /* \"#utility.yul\":10726:10982   */\n    tag_40:\n        /* \"#utility.yul\":10836:10840   */\n      0x00\n        /* \"#utility.yul\":10874:10876   */\n      0x20\n        /* \"#utility.yul\":10863:10872   */\n      dup3\n        /* \"#utility.yul\":10859:10877   */\n      add\n        /* \"#utility.yul\":10851:10877   */\n      swap1\n      pop\n        /* \"#utility.yul\":10887:10975   */\n      tag_547\n        /* \"#utility.yul\":10972:10973   */\n      0x00\n        /* \"#utility.yul\":10961:10970   */\n      dup4\n        /* \"#utility.yul\":10957:10974   */\n      add\n        /* \"#utility.yul\":10948:10954   */\n      dup5\n        /* \"#utility.yul\":10887:10975   */\n      tag_390\n      jump\t// in\n    tag_547:\n        /* \"#utility.yul\":10726:10982   */\n      swap3\n      swap2\n      pop\n      pop\n      jump\t// out\n        /* \"#utility.yul\":10988:11320   */\n    tag_45:\n        /* \"#utility.yul\":11109:11113   */\n      0x00\n        /* \"#utility.yul\":11147:11149   */\n      0x40\n        /* \"#utility.yul\":11136:11145   */\n      dup3\n        /* \"#utility.yul\":11132:11150   */\n      add\n        /* \"#utility.yul\":11124:11150   */\n      swap1\n      pop\n        /* \"#utility.yul\":11160:11231   */\n      tag_549\n        /* \"#utility.yul\":11228:11229   */\n      0x00\n        /* \"#utility.yul\":11217:11226   */\n      dup4\n        /* \"#utility.yul\":11213:11230   */\n      add\n        /* \"#utility.yul\":11204:11210   */\n      dup6\n        /* \"#utility.yul\":11160:11231   */\n      tag_359\n      jump\t// in\n    tag_549:\n        /* \"#utility.yul\":11241:11313   */\n      tag_550\n        /* \"#utility.yul\":11309:11311   */\n      0x20\n        /* \"#utility.yul\":11298:11307   */\n      dup4\n        /* \"#utility.yul\":11294:11312   */\n      add\n        /* \"#utility.yul\":11285:11291   */\n      dup5\n        /* \"#utility.yul\":11241:11313   */\n      tag_359\n      jump\t// in\n    tag_550:\n        /* \"#utility.yul\":10988:11320   */\n      swap4\n      swap3\n      pop\n      pop\n      pop\n      jump\t// out\n        /* \"#utility.yul\":11326:11448   */\n    tag_391:\n        /* \"#utility.yul\":11399:11423   */\n      tag_552\n        /* \"#utility.yul\":11417:11422   */\n      dup2\n        /* \"#utility.yul\":11399:11423   */\n      tag_364\n      jump\t// in\n    tag_552:\n        /* \"#utility.yul\":11392:11397   */\n      dup2\n        /* \"#utility.yul\":11389:11424   */\n      eq\n        /* \"#utility.yul\":11379:11442   */\n      tag_553\n      jumpi\n        /* \"#utility.yul\":11438:11439   */\n      0x00\n        /* \"#utility.yul\":11435:11436   */\n      0x00\n        /* \"#utility.yul\":11428:11440   */\n      revert\n        /* \"#utility.yul\":11379:11442   */\n    tag_553:\n        /* \"#utility.yul\":11326:11448   */\n      pop\n      jump\t// out\n        /* \"#utility.yul\":11454:11593   */\n    tag_392:\n        /* \"#utility.yul\":11500:11505   */\n      0x00\n        /* \"#utility.yul\":11538:11544   */\n      dup2\n        /* \"#utility.yul\":11525:11545   */\n      calldataload\n        /* \"#utility.yul\":11516:11545   */\n      swap1\n      pop\n        /* \"#utility.yul\":11554:11587   */\n      tag_555\n        /* \"#utility.yul\":11581:11586   */\n      dup2\n        /* \"#utility.yul\":11554:11587   */\n      tag_391\n      jump\t// in\n    tag_555:\n        /* \"#utility.yul\":11454:11593   */\n      swap3\n      swap2\n      pop\n      pop\n      jump\t// out\n        /* \"#utility.yul\":11599:11928   */\n    tag_55:\n        /* \"#utility.yul\":11658:11664   */\n      0x00\n        /* \"#utility.yul\":11707:11709   */\n      0x20\n        /* \"#utility.yul\":11695:11704   */\n      dup3\n        /* \"#utility.yul\":11686:11693   */\n      dup5\n        /* \"#utility.yul\":11682:11705   */\n      sub\n        /* \"#utility.yul\":11678:11710   */\n      slt\n        /* \"#utility.yul\":11675:11794   */\n      iszero\n      tag_557\n      jumpi\n        /* \"#utility.yul\":11713:11792   */\n      tag_558\n      tag_354\n      jump\t// in\n    tag_558:\n        /* \"#utility.yul\":11675:11794   */\n    tag_557:\n        /* \"#utility.yul\":11833:11834   */\n      0x00\n        /* \"#utility.yul\":11858:11911   */\n      tag_559\n        /* \"#utility.yul\":11903:11910   */\n      dup5\n        /* \"#utility.yul\":11894:11900   */\n      dup3\n        /* \"#utility.yul\":11883:11892   */\n      dup6\n        /* \"#utility.yul\":11879:11901   */\n      add\n        /* \"#utility.yul\":11858:11911   */\n      tag_392\n      jump\t// in\n    tag_559:\n        /* \"#utility.yul\":11848:11911   */\n      swap2\n      pop\n        /* \"#utility.yul\":11804:11921   */\n      pop\n        /* \"#utility.yul\":11599:11928   */\n      swap3\n      swap2\n      pop\n      pop\n      jump\t// out\n        /* \"#utility.yul\":11934:12080   */\n    tag_393:\n        /* \"#utility.yul\":12033:12039   */\n      0x00\n        /* \"#utility.yul\":12067:12072   */\n      dup2\n        /* \"#utility.yul\":12061:12073   */\n      mload\n        /* \"#utility.yul\":12051:12073   */\n      swap1\n      pop\n        /* \"#utility.yul\":11934:12080   */\n      swap2\n      swap1\n      pop\n      jump\t// out\n        /* \"#utility.yul\":12086:12302   */\n    tag_394:\n        /* \"#utility.yul\":12217:12228   */\n      0x00\n        /* \"#utility.yul\":12251:12257   */\n      dup3\n        /* \"#utility.yul\":12246:12249   */\n      dup3\n        /* \"#utility.yul\":12239:12258   */\n      mstore\n        /* \"#utility.yul\":12291:12295   */\n      0x20\n        /* \"#utility.yul\":12286:12289   */\n      dup3\n        /* \"#utility.yul\":12282:12296   */\n      add\n        /* \"#utility.yul\":12267:12296   */\n      swap1\n      pop\n        /* \"#utility.yul\":12086:12302   */\n      swap3\n      swap2\n      pop\n      pop\n      jump\t// out\n        /* \"#utility.yul\":12308:12472   */\n    tag_395:\n        /* \"#utility.yul\":12407:12411   */\n      0x00\n        /* \"#utility.yul\":12430:12433   */\n      dup2\n        /* \"#utility.yul\":12422:12433   */\n      swap1\n      pop\n        /* \"#utility.yul\":12460:12464   */\n      0x20\n        /* \"#utility.yul\":12455:12458   */\n      dup3\n        /* \"#utility.yul\":12451:12465   */\n      add\n        /* \"#utility.yul\":12443:12465   */\n      swap1\n      pop\n        /* \"#utility.yul\":12308:12472   */\n      swap2\n      swap1\n      pop\n      jump\t// out\n        /* \"#utility.yul\":12534:14168   */\n    tag_396:\n        /* \"#utility.yul\":12685:12691   */\n      0x0100\n        /* \"#utility.yul\":12680:12683   */\n      dup3\n        /* \"#utility.yul\":12676:12692   */\n      add\n        /* \"#utility.yul\":12782:12786   */\n      0x00\n        /* \"#utility.yul\":12775:12780   */\n      dup3\n        /* \"#utility.yul\":12771:12787   */\n      add\n        /* \"#utility.yul\":12765:12788   */\n      mload\n        /* \"#utility.yul\":12801:12864   */\n      tag_564\n        /* \"#utility.yul\":12858:12862   */\n      0x00\n        /* \"#utility.yul\":12853:12856   */\n      dup6\n        /* \"#utility.yul\":12849:12863   */\n      add\n        /* \"#utility.yul\":12835:12847   */\n      dup3\n        /* \"#utility.yul\":12801:12864   */\n      tag_365\n      jump\t// in\n    tag_564:\n        /* \"#utility.yul\":12702:12874   */\n      pop\n        /* \"#utility.yul\":12965:12969   */\n      0x20\n        /* \"#utility.yul\":12958:12963   */\n      dup3\n        /* \"#utility.yul\":12954:12970   */\n      add\n        /* \"#utility.yul\":12948:12971   */\n      mload\n        /* \"#utility.yul\":12984:13043   */\n      tag_565\n        /* \"#utility.yul\":13037:13041   */\n      0x20\n        /* \"#utility.yul\":13032:13035   */\n      dup6\n        /* \"#utility.yul\":13028:13042   */\n      add\n        /* \"#utility.yul\":13014:13026   */\n      dup3\n        /* \"#utility.yul\":12984:13043   */\n      tag_367\n      jump\t// in\n    tag_565:\n        /* \"#utility.yul\":12884:13053   */\n      pop\n        /* \"#utility.yul\":13144:13148   */\n      0x40\n        /* \"#utility.yul\":13137:13142   */\n      dup3\n        /* \"#utility.yul\":13133:13149   */\n      add\n        /* \"#utility.yul\":13127:13150   */\n      mload\n        /* \"#utility.yul\":13163:13224   */\n      tag_566\n        /* \"#utility.yul\":13218:13222   */\n      0x40\n        /* \"#utility.yul\":13213:13216   */\n      dup6\n        /* \"#utility.yul\":13209:13223   */\n      add\n        /* \"#utility.yul\":13195:13207   */\n      dup3\n        /* \"#utility.yul\":13163:13224   */\n      tag_369\n      jump\t// in\n    tag_566:\n        /* \"#utility.yul\":13063:13234   */\n      pop\n        /* \"#utility.yul\":13327:13331   */\n      0x60\n        /* \"#utility.yul\":13320:13325   */\n      dup3\n        /* \"#utility.yul\":13316:13332   */\n      add\n        /* \"#utility.yul\":13310:13333   */\n      mload\n        /* \"#utility.yul\":13346:13409   */\n      tag_567\n        /* \"#utility.yul\":13403:13407   */\n      0x60\n        /* \"#utility.yul\":13398:13401   */\n      dup6\n        /* \"#utility.yul\":13394:13408   */\n      add\n        /* \"#utility.yul\":13380:13392   */\n      dup3\n        /* \"#utility.yul\":13346:13409   */\n      tag_370\n      jump\t// in\n    tag_567:\n        /* \"#utility.yul\":13244:13419   */\n      pop\n        /* \"#utility.yul\":13513:13517   */\n      0x80\n        /* \"#utility.yul\":13506:13511   */\n      dup3\n        /* \"#utility.yul\":13502:13518   */\n      add\n        /* \"#utility.yul\":13496:13519   */\n      mload\n        /* \"#utility.yul\":13532:13595   */\n      tag_568\n        /* \"#utility.yul\":13589:13593   */\n      0x80\n        /* \"#utility.yul\":13584:13587   */\n      dup6\n        /* \"#utility.yul\":13580:13594   */\n      add\n        /* \"#utility.yul\":13566:13578   */\n      dup3\n        /* \"#utility.yul\":13532:13595   */\n      tag_370\n      jump\t// in\n    tag_568:\n        /* \"#utility.yul\":13429:13605   */\n      pop\n        /* \"#utility.yul\":13698:13702   */\n      0xa0\n        /* \"#utility.yul\":13691:13696   */\n      dup3\n        /* \"#utility.yul\":13687:13703   */\n      add\n        /* \"#utility.yul\":13681:13704   */\n      mload\n        /* \"#utility.yul\":13717:13780   */\n      tag_569\n        /* \"#utility.yul\":13774:13778   */\n      0xa0\n        /* \"#utility.yul\":13769:13772   */\n      dup6\n        /* \"#utility.yul\":13765:13779   */\n      add\n        /* \"#utility.yul\":13751:13763   */\n      dup3\n        /* \"#utility.yul\":13717:13780   */\n      tag_370\n      jump\t// in\n    tag_569:\n        /* \"#utility.yul\":13615:13790   */\n      pop\n        /* \"#utility.yul\":13884:13888   */\n      0xc0\n        /* \"#utility.yul\":13877:13882   */\n      dup3\n        /* \"#utility.yul\":13873:13889   */\n      add\n        /* \"#utility.yul\":13867:13890   */\n      mload\n        /* \"#utility.yul\":13903:13966   */\n      tag_570\n        /* \"#utility.yul\":13960:13964   */\n      0xc0\n        /* \"#utility.yul\":13955:13958   */\n      dup6\n        /* \"#utility.yul\":13951:13965   */\n      add\n        /* \"#utility.yul\":13937:13949   */\n      dup3\n        /* \"#utility.yul\":13903:13966   */\n      tag_370\n      jump\t// in\n    tag_570:\n        /* \"#utility.yul\":13800:13976   */\n      pop\n        /* \"#utility.yul\":14069:14073   */\n      0xe0\n        /* \"#utility.yul\":14062:14067   */\n      dup3\n        /* \"#utility.yul\":14058:14074   */\n      add\n        /* \"#utility.yul\":14052:14075   */\n      mload\n        /* \"#utility.yul\":14088:14151   */\n      tag_571\n        /* \"#utility.yul\":14145:14149   */\n      0xe0\n        /* \"#utility.yul\":14140:14143   */\n      dup6\n        /* \"#utility.yul\":14136:14150   */\n      add\n        /* \"#utility.yul\":14122:14134   */\n      dup3\n        /* \"#utility.yul\":14088:14151   */\n      tag_370\n      jump\t// in\n    tag_571:\n        /* \"#utility.yul\":13986:14161   */\n      pop\n        /* \"#utility.yul\":12654:14168   */\n      pop\n        /* \"#utility.yul\":12534:14168   */\n      pop\n      pop\n      jump\t// out\n        /* \"#utility.yul\":14174:14483   */\n    tag_397:\n        /* \"#utility.yul\":14307:14317   */\n      0x00\n        /* \"#utility.yul\":14328:14438   */\n      tag_573\n        /* \"#utility.yul\":14434:14437   */\n      dup4\n        /* \"#utility.yul\":14426:14432   */\n      dup4\n        /* \"#utility.yul\":14328:14438   */\n      tag_396\n      jump\t// in\n    tag_573:\n        /* \"#utility.yul\":14470:14476   */\n      0x0100\n        /* \"#utility.yul\":14465:14468   */\n      dup4\n        /* \"#utility.yul\":14461:14477   */\n      add\n        /* \"#utility.yul\":14447:14477   */\n      swap1\n      pop\n        /* \"#utility.yul\":14174:14483   */\n      swap3\n      swap2\n      pop\n      pop\n      jump\t// out\n        /* \"#utility.yul\":14489:14634   */\n    tag_398:\n        /* \"#utility.yul\":14591:14595   */\n      0x00\n        /* \"#utility.yul\":14623:14627   */\n      0x20\n        /* \"#utility.yul\":14618:14621   */\n      dup3\n        /* \"#utility.yul\":14614:14628   */\n      add\n        /* \"#utility.yul\":14606:14628   */\n      swap1\n      pop\n        /* \"#utility.yul\":14489:14634   */\n      swap2\n      swap1\n      pop\n      jump\t// out\n        /* \"#utility.yul\":14700:15688   */\n    tag_399:\n        /* \"#utility.yul\":14883:14886   */\n      0x00\n        /* \"#utility.yul\":14912:14998   */\n      tag_576\n        /* \"#utility.yul\":14992:14997   */\n      dup3\n        /* \"#utility.yul\":14912:14998   */\n      tag_393\n      jump\t// in\n    tag_576:\n        /* \"#utility.yul\":15014:15132   */\n      tag_577\n        /* \"#utility.yul\":15125:15131   */\n      dup2\n        /* \"#utility.yul\":15120:15123   */\n      dup6\n        /* \"#utility.yul\":15014:15132   */\n      tag_394\n      jump\t// in\n    tag_577:\n        /* \"#utility.yul\":15007:15132   */\n      swap4\n      pop\n        /* \"#utility.yul\":15156:15244   */\n      tag_578\n        /* \"#utility.yul\":15238:15243   */\n      dup4\n        /* \"#utility.yul\":15156:15244   */\n      tag_395\n      jump\t// in\n    tag_578:\n        /* \"#utility.yul\":15267:15274   */\n      dup1\n        /* \"#utility.yul\":15298:15299   */\n      0x00\n        /* \"#utility.yul\":15283:15663   */\n    tag_579:\n        /* \"#utility.yul\":15308:15314   */\n      dup4\n        /* \"#utility.yul\":15305:15306   */\n      dup2\n        /* \"#utility.yul\":15302:15315   */\n      lt\n        /* \"#utility.yul\":15283:15663   */\n      iszero\n      tag_581\n      jumpi\n        /* \"#utility.yul\":15384:15390   */\n      dup2\n        /* \"#utility.yul\":15378:15391   */\n      mload\n        /* \"#utility.yul\":15411:15538   */\n      tag_582\n        /* \"#utility.yul\":15534:15537   */\n      dup9\n        /* \"#utility.yul\":15519:15532   */\n      dup3\n        /* \"#utility.yul\":15411:15538   */\n      tag_397\n      jump\t// in\n    tag_582:\n        /* \"#utility.yul\":15404:15538   */\n      swap8\n      pop\n        /* \"#utility.yul\":15561:15653   */\n      tag_583\n        /* \"#utility.yul\":15646:15652   */\n      dup4\n        /* \"#utility.yul\":15561:15653   */\n      tag_398\n      jump\t// in\n    tag_583:\n        /* \"#utility.yul\":15551:15653   */\n      swap3\n      pop\n        /* \"#utility.yul\":15343:15663   */\n      pop\n        /* \"#utility.yul\":15330:15331   */\n      0x01\n        /* \"#utility.yul\":15327:15328   */\n      dup2\n        /* \"#utility.yul\":15323:15332   */\n      add\n        /* \"#utility.yul\":15318:15332   */\n      swap1\n      pop\n        /* \"#utility.yul\":15283:15663   */\n      jump(tag_579)\n    tag_581:\n        /* \"#utility.yul\":15287:15301   */\n      pop\n        /* \"#utility.yul\":15679:15682   */\n      dup6\n        /* \"#utility.yul\":15672:15682   */\n      swap4\n      pop\n        /* \"#utility.yul\":14888:15688   */\n      pop\n      pop\n      pop\n        /* \"#utility.yul\":14700:15688   */\n      swap3\n      swap2\n      pop\n      pop\n      jump\t// out\n        /* \"#utility.yul\":15694:16415   */\n    tag_61:\n        /* \"#utility.yul\":15957:15961   */\n      0x00\n        /* \"#utility.yul\":15995:15997   */\n      0x60\n        /* \"#utility.yul\":15984:15993   */\n      dup3\n        /* \"#utility.yul\":15980:15998   */\n      add\n        /* \"#utility.yul\":15972:15998   */\n      swap1\n      pop\n        /* \"#utility.yul\":16044:16053   */\n      dup2\n        /* \"#utility.yul\":16038:16042   */\n      dup2\n        /* \"#utility.yul\":16034:16054   */\n      sub\n        /* \"#utility.yul\":16030:16031   */\n      0x00\n        /* \"#utility.yul\":16019:16028   */\n      dup4\n        /* \"#utility.yul\":16015:16032   */\n      add\n        /* \"#utility.yul\":16008:16055   */\n      mstore\n        /* \"#utility.yul\":16072:16244   */\n      tag_585\n        /* \"#utility.yul\":16239:16243   */\n      dup2\n        /* \"#utility.yul\":16230:16236   */\n      dup7\n        /* \"#utility.yul\":16072:16244   */\n      tag_399\n      jump\t// in\n    tag_585:\n        /* \"#utility.yul\":16064:16244   */\n      swap1\n      pop\n        /* \"#utility.yul\":16254:16326   */\n      tag_586\n        /* \"#utility.yul\":16322:16324   */\n      0x20\n        /* \"#utility.yul\":16311:16320   */\n      dup4\n        /* \"#utility.yul\":16307:16325   */\n      add\n        /* \"#utility.yul\":16298:16304   */\n      dup6\n        /* \"#utility.yul\":16254:16326   */\n      tag_359\n      jump\t// in\n    tag_586:\n        /* \"#utility.yul\":16336:16408   */\n      tag_587\n        /* \"#utility.yul\":16404:16406   */\n      0x40\n        /* \"#utility.yul\":16393:16402   */\n      dup4\n        /* \"#utility.yul\":16389:16407   */\n      add\n        /* \"#utility.yul\":16380:16386   */\n      dup5\n        /* \"#utility.yul\":16336:16408   */\n      tag_359\n      jump\t// in\n    tag_587:\n        /* \"#utility.yul\":15694:16415   */\n      swap5\n      swap4\n      pop\n      pop\n      pop\n      pop\n      jump\t// out\n        /* \"#utility.yul\":16421:16538   */\n    tag_400:\n        /* \"#utility.yul\":16530:16531   */\n      0x00\n        /* \"#utility.yul\":16527:16528   */\n      0x00\n        /* \"#utility.yul\":16520:16532   */\n      revert\n        /* \"#utility.yul\":16544:16661   */\n    tag_401:\n        /* \"#utility.yul\":16653:16654   */\n      0x00\n        /* \"#utility.yul\":16650:16651   */\n      0x00\n        /* \"#utility.yul\":16643:16655   */\n      revert\n        /* \"#utility.yul\":16667:17001   */\n    tag_402:\n        /* \"#utility.yul\":16767:16771   */\n      0x00\n        /* \"#utility.yul\":16857:16875   */\n      0xffffffffffffffff\n        /* \"#utility.yul\":16849:16855   */\n      dup3\n        /* \"#utility.yul\":16846:16876   */\n      gt\n        /* \"#utility.yul\":16843:16899   */\n      iszero\n      tag_591\n      jumpi\n        /* \"#utility.yul\":16879:16897   */\n      tag_592\n      tag_182\n      jump\t// in\n    tag_592:\n        /* \"#utility.yul\":16843:16899   */\n    tag_591:\n        /* \"#utility.yul\":16929:16933   */\n      0x20\n        /* \"#utility.yul\":16921:16927   */\n      dup3\n        /* \"#utility.yul\":16917:16934   */\n      mul\n        /* \"#utility.yul\":16909:16934   */\n      swap1\n      pop\n        /* \"#utility.yul\":16989:16993   */\n      0x20\n        /* \"#utility.yul\":16983:16987   */\n      dup2\n        /* \"#utility.yul\":16979:16994   */\n      add\n        /* \"#utility.yul\":16971:16994   */\n      swap1\n      pop\n        /* \"#utility.yul\":16667:17001   */\n      swap2\n      swap1\n      pop\n      jump\t// out\n        /* \"#utility.yul\":17007:17124   */\n    tag_403:\n        /* \"#utility.yul\":17116:17117   */\n      0x00\n        /* \"#utility.yul\":17113:17114   */\n      0x00\n        /* \"#utility.yul\":17106:17118   */\n      revert\n        /* \"#utility.yul\":17130:17250   */\n    tag_404:\n        /* \"#utility.yul\":17202:17225   */\n      tag_595\n        /* \"#utility.yul\":17219:17224   */\n      dup2\n        /* \"#utility.yul\":17202:17225   */\n      tag_368\n      jump\t// in\n    tag_595:\n        /* \"#utility.yul\":17195:17200   */\n      dup2\n        /* \"#utility.yul\":17192:17226   */\n      eq\n        /* \"#utility.yul\":17182:17244   */\n      tag_596\n      jumpi\n        /* \"#utility.yul\":17240:17241   */\n      0x00\n        /* \"#utility.yul\":17237:17238   */\n      0x00\n        /* \"#utility.yul\":17230:17242   */\n      revert\n        /* \"#utility.yul\":17182:17244   */\n    tag_596:\n        /* \"#utility.yul\":17130:17250   */\n      pop\n      jump\t// out\n        /* \"#utility.yul\":17256:17393   */\n    tag_405:\n        /* \"#utility.yul\":17301:17306   */\n      0x00\n        /* \"#utility.yul\":17339:17345   */\n      dup2\n        /* \"#utility.yul\":17326:17346   */\n      calldataload\n        /* \"#utility.yul\":17317:17346   */\n      swap1\n      pop\n        /* \"#utility.yul\":17355:17387   */\n      tag_598\n        /* \"#utility.yul\":17381:17386   */\n      dup2\n        /* \"#utility.yul\":17355:17387   */\n      tag_404\n      jump\t// in\n    tag_598:\n        /* \"#utility.yul\":17256:17393   */\n      swap3\n      swap2\n      pop\n      pop\n      jump\t// out\n        /* \"#utility.yul\":17419:18004   */\n    tag_406:\n        /* \"#utility.yul\":17491:17496   */\n      0x00\n        /* \"#utility.yul\":17535:17539   */\n      0x40\n        /* \"#utility.yul\":17523:17532   */\n      dup3\n        /* \"#utility.yul\":17518:17521   */\n      dup5\n        /* \"#utility.yul\":17514:17533   */\n      sub\n        /* \"#utility.yul\":17510:17540   */\n      slt\n        /* \"#utility.yul\":17507:17624   */\n      iszero\n      tag_600\n      jumpi\n        /* \"#utility.yul\":17543:17622   */\n      tag_601\n      tag_400\n      jump\t// in\n    tag_601:\n        /* \"#utility.yul\":17507:17624   */\n    tag_600:\n        /* \"#utility.yul\":17642:17663   */\n      tag_602\n        /* \"#utility.yul\":17658:17662   */\n      0x40\n        /* \"#utility.yul\":17642:17663   */\n      tag_380\n      jump\t// in\n    tag_602:\n        /* \"#utility.yul\":17633:17663   */\n      swap1\n      pop\n        /* \"#utility.yul\":17730:17731   */\n      0x00\n        /* \"#utility.yul\":17770:17819   */\n      tag_603\n        /* \"#utility.yul\":17815:17818   */\n      dup5\n        /* \"#utility.yul\":17806:17812   */\n      dup3\n        /* \"#utility.yul\":17795:17804   */\n      dup6\n        /* \"#utility.yul\":17791:17813   */\n      add\n        /* \"#utility.yul\":17770:17819   */\n      tag_392\n      jump\t// in\n    tag_603:\n        /* \"#utility.yul\":17763:17767   */\n      0x00\n        /* \"#utility.yul\":17756:17761   */\n      dup4\n        /* \"#utility.yul\":17752:17768   */\n      add\n        /* \"#utility.yul\":17745:17820   */\n      mstore\n        /* \"#utility.yul\":17673:17831   */\n      pop\n        /* \"#utility.yul\":17896:17898   */\n      0x20\n        /* \"#utility.yul\":17937:17985   */\n      tag_604\n        /* \"#utility.yul\":17981:17984   */\n      dup5\n        /* \"#utility.yul\":17972:17978   */\n      dup3\n        /* \"#utility.yul\":17961:17970   */\n      dup6\n        /* \"#utility.yul\":17957:17979   */\n      add\n        /* \"#utility.yul\":17937:17985   */\n      tag_405\n      jump\t// in\n    tag_604:\n        /* \"#utility.yul\":17930:17934   */\n      0x20\n        /* \"#utility.yul\":17923:17928   */\n      dup4\n        /* \"#utility.yul\":17919:17935   */\n      add\n        /* \"#utility.yul\":17912:17986   */\n      mstore\n        /* \"#utility.yul\":17841:17997   */\n      pop\n        /* \"#utility.yul\":17419:18004   */\n      swap3\n      swap2\n      pop\n      pop\n      jump\t// out\n        /* \"#utility.yul\":18032:18811   */\n    tag_407:\n        /* \"#utility.yul\":18151:18156   */\n      0x00\n        /* \"#utility.yul\":18176:18280   */\n      tag_606\n        /* \"#utility.yul\":18192:18279   */\n      tag_607\n        /* \"#utility.yul\":18272:18278   */\n      dup5\n        /* \"#utility.yul\":18192:18279   */\n      tag_402\n      jump\t// in\n    tag_607:\n        /* \"#utility.yul\":18176:18280   */\n      tag_380\n      jump\t// in\n    tag_606:\n        /* \"#utility.yul\":18167:18280   */\n      swap1\n      pop\n        /* \"#utility.yul\":18300:18305   */\n      dup1\n        /* \"#utility.yul\":18329:18335   */\n      dup4\n        /* \"#utility.yul\":18322:18327   */\n      dup3\n        /* \"#utility.yul\":18315:18336   */\n      mstore\n        /* \"#utility.yul\":18363:18367   */\n      0x20\n        /* \"#utility.yul\":18356:18361   */\n      dup3\n        /* \"#utility.yul\":18352:18368   */\n      add\n        /* \"#utility.yul\":18345:18368   */\n      swap1\n      pop\n        /* \"#utility.yul\":18416:18420   */\n      0x40\n        /* \"#utility.yul\":18408:18414   */\n      dup5\n        /* \"#utility.yul\":18404:18421   */\n      mul\n        /* \"#utility.yul\":18396:18402   */\n      dup4\n        /* \"#utility.yul\":18392:18422   */\n      add\n        /* \"#utility.yul\":18445:18448   */\n      dup6\n        /* \"#utility.yul\":18437:18443   */\n      dup2\n        /* \"#utility.yul\":18434:18449   */\n      gt\n        /* \"#utility.yul\":18431:18553   */\n      iszero\n      tag_608\n      jumpi\n        /* \"#utility.yul\":18464:18543   */\n      tag_609\n      tag_403\n      jump\t// in\n    tag_609:\n        /* \"#utility.yul\":18431:18553   */\n    tag_608:\n        /* \"#utility.yul\":18579:18585   */\n      dup4\n        /* \"#utility.yul\":18562:18805   */\n    tag_610:\n        /* \"#utility.yul\":18596:18602   */\n      dup2\n        /* \"#utility.yul\":18591:18594   */\n      dup2\n        /* \"#utility.yul\":18588:18603   */\n      lt\n        /* \"#utility.yul\":18562:18805   */\n      iszero\n      tag_612\n      jumpi\n        /* \"#utility.yul\":18671:18674   */\n      dup1\n        /* \"#utility.yul\":18700:18760   */\n      tag_613\n        /* \"#utility.yul\":18756:18759   */\n      dup9\n        /* \"#utility.yul\":18744:18754   */\n      dup3\n        /* \"#utility.yul\":18700:18760   */\n      tag_406\n      jump\t// in\n    tag_613:\n        /* \"#utility.yul\":18695:18698   */\n      dup5\n        /* \"#utility.yul\":18688:18761   */\n      mstore\n        /* \"#utility.yul\":18790:18794   */\n      0x20\n        /* \"#utility.yul\":18785:18788   */\n      dup5\n        /* \"#utility.yul\":18781:18795   */\n      add\n        /* \"#utility.yul\":18774:18795   */\n      swap4\n      pop\n        /* \"#utility.yul\":18638:18805   */\n      pop\n        /* \"#utility.yul\":18622:18626   */\n      0x40\n        /* \"#utility.yul\":18617:18620   */\n      dup2\n        /* \"#utility.yul\":18613:18627   */\n      add\n        /* \"#utility.yul\":18606:18627   */\n      swap1\n      pop\n        /* \"#utility.yul\":18562:18805   */\n      jump(tag_610)\n    tag_612:\n        /* \"#utility.yul\":18566:18587   */\n      pop\n        /* \"#utility.yul\":18157:18811   */\n      pop\n      pop\n        /* \"#utility.yul\":18032:18811   */\n      swap4\n      swap3\n      pop\n      pop\n      pop\n      jump\t// out\n        /* \"#utility.yul\":18839:19255   */\n    tag_408:\n        /* \"#utility.yul\":18933:18938   */\n      0x00\n        /* \"#utility.yul\":18982:18985   */\n      dup3\n        /* \"#utility.yul\":18975:18979   */\n      0x1f\n        /* \"#utility.yul\":18967:18973   */\n      dup4\n        /* \"#utility.yul\":18963:18980   */\n      add\n        /* \"#utility.yul\":18959:18986   */\n      slt\n        /* \"#utility.yul\":18949:19071   */\n      tag_615\n      jumpi\n        /* \"#utility.yul\":18990:19069   */\n      tag_616\n      tag_376\n      jump\t// in\n    tag_616:\n        /* \"#utility.yul\":18949:19071   */\n    tag_615:\n        /* \"#utility.yul\":19107:19113   */\n      dup2\n        /* \"#utility.yul\":19094:19114   */\n      calldataload\n        /* \"#utility.yul\":19132:19249   */\n      tag_617\n        /* \"#utility.yul\":19245:19248   */\n      dup5\n        /* \"#utility.yul\":19237:19243   */\n      dup3\n        /* \"#utility.yul\":19230:19234   */\n      0x20\n        /* \"#utility.yul\":19222:19228   */\n      dup7\n        /* \"#utility.yul\":19218:19235   */\n      add\n        /* \"#utility.yul\":19132:19249   */\n      tag_407\n      jump\t// in\n    tag_617:\n        /* \"#utility.yul\":19123:19249   */\n      swap2\n      pop\n        /* \"#utility.yul\":18939:19255   */\n      pop\n        /* \"#utility.yul\":18839:19255   */\n      swap3\n      swap2\n      pop\n      pop\n      jump\t// out\n        /* \"#utility.yul\":19279:20562   */\n    tag_409:\n        /* \"#utility.yul\":19349:19354   */\n      0x00\n        /* \"#utility.yul\":19393:19397   */\n      0x60\n        /* \"#utility.yul\":19381:19390   */\n      dup3\n        /* \"#utility.yul\":19376:19379   */\n      dup5\n        /* \"#utility.yul\":19372:19391   */\n      sub\n        /* \"#utility.yul\":19368:19398   */\n      slt\n        /* \"#utility.yul\":19365:19482   */\n      iszero\n      tag_619\n      jumpi\n        /* \"#utility.yul\":19401:19480   */\n      tag_620\n      tag_400\n      jump\t// in\n    tag_620:\n        /* \"#utility.yul\":19365:19482   */\n    tag_619:\n        /* \"#utility.yul\":19500:19521   */\n      tag_621\n        /* \"#utility.yul\":19516:19520   */\n      0x60\n        /* \"#utility.yul\":19500:19521   */\n      tag_380\n      jump\t// in\n    tag_621:\n        /* \"#utility.yul\":19491:19521   */\n      swap1\n      pop\n        /* \"#utility.yul\":19608:19609   */\n      0x00\n        /* \"#utility.yul\":19597:19606   */\n      dup3\n        /* \"#utility.yul\":19593:19610   */\n      add\n        /* \"#utility.yul\":19580:19611   */\n      calldataload\n        /* \"#utility.yul\":19638:19656   */\n      0xffffffffffffffff\n        /* \"#utility.yul\":19630:19636   */\n      dup2\n        /* \"#utility.yul\":19627:19657   */\n      gt\n        /* \"#utility.yul\":19624:19741   */\n      iszero\n      tag_622\n      jumpi\n        /* \"#utility.yul\":19660:19739   */\n      tag_623\n      tag_401\n      jump\t// in\n    tag_623:\n        /* \"#utility.yul\":19624:19741   */\n    tag_622:\n        /* \"#utility.yul\":19780:19839   */\n      tag_624\n        /* \"#utility.yul\":19835:19838   */\n      dup5\n        /* \"#utility.yul\":19826:19832   */\n      dup3\n        /* \"#utility.yul\":19815:19824   */\n      dup6\n        /* \"#utility.yul\":19811:19833   */\n      add\n        /* \"#utility.yul\":19780:19839   */\n      tag_384\n      jump\t// in\n    tag_624:\n        /* \"#utility.yul\":19773:19777   */\n      0x00\n        /* \"#utility.yul\":19766:19771   */\n      dup4\n        /* \"#utility.yul\":19762:19778   */\n      add\n        /* \"#utility.yul\":19755:19840   */\n      mstore\n        /* \"#utility.yul\":19531:19851   */\n      pop\n        /* \"#utility.yul\":19940:19942   */\n      0x20\n        /* \"#utility.yul\":19929:19938   */\n      dup3\n        /* \"#utility.yul\":19925:19943   */\n      add\n        /* \"#utility.yul\":19912:19944   */\n      calldataload\n        /* \"#utility.yul\":19971:19989   */\n      0xffffffffffffffff\n        /* \"#utility.yul\":19963:19969   */\n      dup2\n        /* \"#utility.yul\":19960:19990   */\n      gt\n        /* \"#utility.yul\":19957:20074   */\n      iszero\n      tag_625\n      jumpi\n        /* \"#utility.yul\":19993:20072   */\n      tag_626\n      tag_401\n      jump\t// in\n    tag_626:\n        /* \"#utility.yul\":19957:20074   */\n    tag_625:\n        /* \"#utility.yul\":20113:20172   */\n      tag_627\n        /* \"#utility.yul\":20168:20171   */\n      dup5\n        /* \"#utility.yul\":20159:20165   */\n      dup3\n        /* \"#utility.yul\":20148:20157   */\n      dup6\n        /* \"#utility.yul\":20144:20166   */\n      add\n        /* \"#utility.yul\":20113:20172   */\n      tag_384\n      jump\t// in\n    tag_627:\n        /* \"#utility.yul\":20106:20110   */\n      0x20\n        /* \"#utility.yul\":20099:20104   */\n      dup4\n        /* \"#utility.yul\":20095:20111   */\n      add\n        /* \"#utility.yul\":20088:20173   */\n      mstore\n        /* \"#utility.yul\":19861:20184   */\n      pop\n        /* \"#utility.yul\":20273:20275   */\n      0x40\n        /* \"#utility.yul\":20262:20271   */\n      dup3\n        /* \"#utility.yul\":20258:20276   */\n      add\n        /* \"#utility.yul\":20245:20277   */\n      calldataload\n        /* \"#utility.yul\":20304:20322   */\n      0xffffffffffffffff\n        /* \"#utility.yul\":20296:20302   */\n      dup2\n        /* \"#utility.yul\":20293:20323   */\n      gt\n        /* \"#utility.yul\":20290:20407   */\n      iszero\n      tag_628\n      jumpi\n        /* \"#utility.yul\":20326:20405   */\n      tag_629\n      tag_401\n      jump\t// in\n    tag_629:\n        /* \"#utility.yul\":20290:20407   */\n    tag_628:\n        /* \"#utility.yul\":20446:20543   */\n      tag_630\n        /* \"#utility.yul\":20539:20542   */\n      dup5\n        /* \"#utility.yul\":20530:20536   */\n      dup3\n        /* \"#utility.yul\":20519:20528   */\n      dup6\n        /* \"#utility.yul\":20515:20537   */\n      add\n        /* \"#utility.yul\":20446:20543   */\n      tag_408\n      jump\t// in\n    tag_630:\n        /* \"#utility.yul\":20439:20443   */\n      0x40\n        /* \"#utility.yul\":20432:20437   */\n      dup4\n        /* \"#utility.yul\":20428:20444   */\n      add\n        /* \"#utility.yul\":20421:20544   */\n      mstore\n        /* \"#utility.yul\":20194:20555   */\n      pop\n        /* \"#utility.yul\":19279:20562   */\n      swap3\n      swap2\n      pop\n      pop\n      jump\t// out\n        /* \"#utility.yul\":20568:21244   */\n    tag_64:\n        /* \"#utility.yul\":20657:20663   */\n      0x00\n        /* \"#utility.yul\":20665:20671   */\n      0x00\n        /* \"#utility.yul\":20714:20716   */\n      0x40\n        /* \"#utility.yul\":20702:20711   */\n      dup4\n        /* \"#utility.yul\":20693:20700   */\n      dup6\n        /* \"#utility.yul\":20689:20712   */\n      sub\n        /* \"#utility.yul\":20685:20717   */\n      slt\n        /* \"#utility.yul\":20682:20801   */\n      iszero\n      tag_632\n      jumpi\n        /* \"#utility.yul\":20720:20799   */\n      tag_633\n      tag_354\n      jump\t// in\n    tag_633:\n        /* \"#utility.yul\":20682:20801   */\n    tag_632:\n        /* \"#utility.yul\":20868:20869   */\n      0x00\n        /* \"#utility.yul\":20857:20866   */\n      dup4\n        /* \"#utility.yul\":20853:20870   */\n      add\n        /* \"#utility.yul\":20840:20871   */\n      calldataload\n        /* \"#utility.yul\":20898:20916   */\n      0xffffffffffffffff\n        /* \"#utility.yul\":20890:20896   */\n      dup2\n        /* \"#utility.yul\":20887:20917   */\n      gt\n        /* \"#utility.yul\":20884:21001   */\n      iszero\n      tag_634\n      jumpi\n        /* \"#utility.yul\":20920:20999   */\n      tag_635\n      tag_355\n      jump\t// in\n    tag_635:\n        /* \"#utility.yul\":20884:21001   */\n    tag_634:\n        /* \"#utility.yul\":21025:21099   */\n      tag_636\n        /* \"#utility.yul\":21091:21098   */\n      dup6\n        /* \"#utility.yul\":21082:21088   */\n      dup3\n        /* \"#utility.yul\":21071:21080   */\n      dup7\n        /* \"#utility.yul\":21067:21089   */\n      add\n        /* \"#utility.yul\":21025:21099   */\n      tag_409\n      jump\t// in\n    tag_636:\n        /* \"#utility.yul\":21015:21099   */\n      swap3\n      pop\n        /* \"#utility.yul\":20811:21109   */\n      pop\n        /* \"#utility.yul\":21148:21150   */\n      0x20\n        /* \"#utility.yul\":21174:21227   */\n      tag_637\n        /* \"#utility.yul\":21219:21226   */\n      dup6\n        /* \"#utility.yul\":21210:21216   */\n      dup3\n        /* \"#utility.yul\":21199:21208   */\n      dup7\n        /* \"#utility.yul\":21195:21217   */\n      add\n        /* \"#utility.yul\":21174:21227   */\n      tag_392\n      jump\t// in\n    tag_637:\n        /* \"#utility.yul\":21164:21227   */\n      swap2\n      pop\n        /* \"#utility.yul\":21119:21237   */\n      pop\n        /* \"#utility.yul\":20568:21244   */\n      swap3\n      pop\n      swap3\n      swap1\n      pop\n      jump\t// out\n        /* \"#utility.yul\":21250:21389   */\n    tag_410:\n        /* \"#utility.yul\":21339:21345   */\n      dup3\n        /* \"#utility.yul\":21334:21337   */\n      dup2\n        /* \"#utility.yul\":21329:21332   */\n      dup4\n        /* \"#utility.yul\":21323:21346   */\n      mcopy\n        /* \"#utility.yul\":21380:21381   */\n      0x00\n        /* \"#utility.yul\":21371:21377   */\n      dup4\n        /* \"#utility.yul\":21366:21369   */\n      dup4\n        /* \"#utility.yul\":21362:21378   */\n      add\n        /* \"#utility.yul\":21355:21382   */\n      mstore\n        /* \"#utility.yul\":21250:21389   */\n      pop\n      pop\n      pop\n      jump\t// out\n        /* \"#utility.yul\":21395:21829   */\n    tag_411:\n        /* \"#utility.yul\":21484:21489   */\n      0x00\n        /* \"#utility.yul\":21509:21575   */\n      tag_640\n        /* \"#utility.yul\":21525:21574   */\n      tag_641\n        /* \"#utility.yul\":21567:21573   */\n      dup5\n        /* \"#utility.yul\":21525:21574   */\n      tag_381\n      jump\t// in\n    tag_641:\n        /* \"#utility.yul\":21509:21575   */\n      tag_380\n      jump\t// in\n    tag_640:\n        /* \"#utility.yul\":21500:21575   */\n      swap1\n      pop\n        /* \"#utility.yul\":21598:21604   */\n      dup3\n        /* \"#utility.yul\":21591:21596   */\n      dup2\n        /* \"#utility.yul\":21584:21605   */\n      mstore\n        /* \"#utility.yul\":21636:21640   */\n      0x20\n        /* \"#utility.yul\":21629:21634   */\n      dup2\n        /* \"#utility.yul\":21625:21641   */\n      add\n        /* \"#utility.yul\":21674:21677   */\n      dup5\n        /* \"#utility.yul\":21665:21671   */\n      dup5\n        /* \"#utility.yul\":21660:21663   */\n      dup5\n        /* \"#utility.yul\":21656:21672   */\n      add\n        /* \"#utility.yul\":21653:21678   */\n      gt\n        /* \"#utility.yul\":21650:21762   */\n      iszero\n      tag_642\n      jumpi\n        /* \"#utility.yul\":21681:21760   */\n      tag_643\n      tag_377\n      jump\t// in\n    tag_643:\n        /* \"#utility.yul\":21650:21762   */\n    tag_642:\n        /* \"#utility.yul\":21771:21823   */\n      tag_644\n        /* \"#utility.yul\":21816:21822   */\n      dup5\n        /* \"#utility.yul\":21811:21814   */\n      dup3\n        /* \"#utility.yul\":21806:21809   */\n      dup6\n        /* \"#utility.yul\":21771:21823   */\n      tag_410\n      jump\t// in\n    tag_644:\n        /* \"#utility.yul\":21490:21829   */\n      pop\n        /* \"#utility.yul\":21395:21829   */\n      swap4\n      swap3\n      pop\n      pop\n      pop\n      jump\t// out\n        /* \"#utility.yul\":21849:22204   */\n    tag_412:\n        /* \"#utility.yul\":21916:21921   */\n      0x00\n        /* \"#utility.yul\":21965:21968   */\n      dup3\n        /* \"#utility.yul\":21958:21962   */\n      0x1f\n        /* \"#utility.yul\":21950:21956   */\n      dup4\n        /* \"#utility.yul\":21946:21963   */\n      add\n        /* \"#utility.yul\":21942:21969   */\n      slt\n        /* \"#utility.yul\":21932:22054   */\n      tag_646\n      jumpi\n        /* \"#utility.yul\":21973:22052   */\n      tag_647\n      tag_376\n      jump\t// in\n    tag_647:\n        /* \"#utility.yul\":21932:22054   */\n    tag_646:\n        /* \"#utility.yul\":22083:22089   */\n      dup2\n        /* \"#utility.yul\":22077:22090   */\n      mload\n        /* \"#utility.yul\":22108:22198   */\n      tag_648\n        /* \"#utility.yul\":22194:22197   */\n      dup5\n        /* \"#utility.yul\":22186:22192   */\n      dup3\n        /* \"#utility.yul\":22179:22183   */\n      0x20\n        /* \"#utility.yul\":22171:22177   */\n      dup7\n        /* \"#utility.yul\":22167:22184   */\n      add\n        /* \"#utility.yul\":22108:22198   */\n      tag_411\n      jump\t// in\n    tag_648:\n        /* \"#utility.yul\":22099:22198   */\n      swap2\n      pop\n        /* \"#utility.yul\":21922:22204   */\n      pop\n        /* \"#utility.yul\":21849:22204   */\n      swap3\n      swap2\n      pop\n      pop\n      jump\t// out\n        /* \"#utility.yul\":22210:22353   */\n    tag_413:\n        /* \"#utility.yul\":22267:22272   */\n      0x00\n        /* \"#utility.yul\":22298:22304   */\n      dup2\n        /* \"#utility.yul\":22292:22305   */\n      mload\n        /* \"#utility.yul\":22283:22305   */\n      swap1\n      pop\n        /* \"#utility.yul\":22314:22347   */\n      tag_650\n        /* \"#utility.yul\":22341:22346   */\n      dup2\n        /* \"#utility.yul\":22314:22347   */\n      tag_391\n      jump\t// in\n    tag_650:\n        /* \"#utility.yul\":22210:22353   */\n      swap3\n      swap2\n      pop\n      pop\n      jump\t// out\n        /* \"#utility.yul\":22359:22500   */\n    tag_414:\n        /* \"#utility.yul\":22415:22420   */\n      0x00\n        /* \"#utility.yul\":22446:22452   */\n      dup2\n        /* \"#utility.yul\":22440:22453   */\n      mload\n        /* \"#utility.yul\":22431:22453   */\n      swap1\n      pop\n        /* \"#utility.yul\":22462:22494   */\n      tag_652\n        /* \"#utility.yul\":22488:22493   */\n      dup2\n        /* \"#utility.yul\":22462:22494   */\n      tag_404\n      jump\t// in\n    tag_652:\n        /* \"#utility.yul\":22359:22500   */\n      swap3\n      swap2\n      pop\n      pop\n      jump\t// out\n        /* \"#utility.yul\":22526:23144   */\n    tag_415:\n        /* \"#utility.yul\":22609:22614   */\n      0x00\n        /* \"#utility.yul\":22653:22657   */\n      0x40\n        /* \"#utility.yul\":22641:22650   */\n      dup3\n        /* \"#utility.yul\":22636:22639   */\n      dup5\n        /* \"#utility.yul\":22632:22651   */\n      sub\n        /* \"#utility.yul\":22628:22658   */\n      slt\n        /* \"#utility.yul\":22625:22742   */\n      iszero\n      tag_654\n      jumpi\n        /* \"#utility.yul\":22661:22740   */\n      tag_655\n      tag_400\n      jump\t// in\n    tag_655:\n        /* \"#utility.yul\":22625:22742   */\n    tag_654:\n        /* \"#utility.yul\":22760:22781   */\n      tag_656\n        /* \"#utility.yul\":22776:22780   */\n      0x40\n        /* \"#utility.yul\":22760:22781   */\n      tag_380\n      jump\t// in\n    tag_656:\n        /* \"#utility.yul\":22751:22781   */\n      swap1\n      pop\n        /* \"#utility.yul\":22848:22849   */\n      0x00\n        /* \"#utility.yul\":22888:22948   */\n      tag_657\n        /* \"#utility.yul\":22944:22947   */\n      dup5\n        /* \"#utility.yul\":22935:22941   */\n      dup3\n        /* \"#utility.yul\":22924:22933   */\n      dup6\n        /* \"#utility.yul\":22920:22942   */\n      add\n        /* \"#utility.yul\":22888:22948   */\n      tag_413\n      jump\t// in\n    tag_657:\n        /* \"#utility.yul\":22881:22885   */\n      0x00\n        /* \"#utility.yul\":22874:22879   */\n      dup4\n        /* \"#utility.yul\":22870:22886   */\n      add\n        /* \"#utility.yul\":22863:22949   */\n      mstore\n        /* \"#utility.yul\":22791:22960   */\n      pop\n        /* \"#utility.yul\":23025:23027   */\n      0x20\n        /* \"#utility.yul\":23066:23125   */\n      tag_658\n        /* \"#utility.yul\":23121:23124   */\n      dup5\n        /* \"#utility.yul\":23112:23118   */\n      dup3\n        /* \"#utility.yul\":23101:23110   */\n      dup6\n        /* \"#utility.yul\":23097:23119   */\n      add\n        /* \"#utility.yul\":23066:23125   */\n      tag_414\n      jump\t// in\n    tag_658:\n        /* \"#utility.yul\":23059:23063   */\n      0x20\n        /* \"#utility.yul\":23052:23057   */\n      dup4\n        /* \"#utility.yul\":23048:23064   */\n      add\n        /* \"#utility.yul\":23041:23126   */\n      mstore\n        /* \"#utility.yul\":22970:23137   */\n      pop\n        /* \"#utility.yul\":22526:23144   */\n      swap3\n      swap2\n      pop\n      pop\n      jump\t// out\n        /* \"#utility.yul\":23172:23973   */\n    tag_416:\n        /* \"#utility.yul\":23302:23307   */\n      0x00\n        /* \"#utility.yul\":23327:23431   */\n      tag_660\n        /* \"#utility.yul\":23343:23430   */\n      tag_661\n        /* \"#utility.yul\":23423:23429   */\n      dup5\n        /* \"#utility.yul\":23343:23430   */\n      tag_402\n      jump\t// in\n    tag_661:\n        /* \"#utility.yul\":23327:23431   */\n      tag_380\n      jump\t// in\n    tag_660:\n        /* \"#utility.yul\":23318:23431   */\n      swap1\n      pop\n        /* \"#utility.yul\":23451:23456   */\n      dup1\n        /* \"#utility.yul\":23480:23486   */\n      dup4\n        /* \"#utility.yul\":23473:23478   */\n      dup3\n        /* \"#utility.yul\":23466:23487   */\n      mstore\n        /* \"#utility.yul\":23514:23518   */\n      0x20\n        /* \"#utility.yul\":23507:23512   */\n      dup3\n        /* \"#utility.yul\":23503:23519   */\n      add\n        /* \"#utility.yul\":23496:23519   */\n      swap1\n      pop\n        /* \"#utility.yul\":23567:23571   */\n      0x40\n        /* \"#utility.yul\":23559:23565   */\n      dup5\n        /* \"#utility.yul\":23555:23572   */\n      mul\n        /* \"#utility.yul\":23547:23553   */\n      dup4\n        /* \"#utility.yul\":23543:23573   */\n      add\n        /* \"#utility.yul\":23596:23599   */\n      dup6\n        /* \"#utility.yul\":23588:23594   */\n      dup2\n        /* \"#utility.yul\":23585:23600   */\n      gt\n        /* \"#utility.yul\":23582:23704   */\n      iszero\n      tag_662\n      jumpi\n        /* \"#utility.yul\":23615:23694   */\n      tag_663\n      tag_403\n      jump\t// in\n    tag_663:\n        /* \"#utility.yul\":23582:23704   */\n    tag_662:\n        /* \"#utility.yul\":23730:23736   */\n      dup4\n        /* \"#utility.yul\":23713:23967   */\n    tag_664:\n        /* \"#utility.yul\":23747:23753   */\n      dup2\n        /* \"#utility.yul\":23742:23745   */\n      dup2\n        /* \"#utility.yul\":23739:23754   */\n      lt\n        /* \"#utility.yul\":23713:23967   */\n      iszero\n      tag_666\n      jumpi\n        /* \"#utility.yul\":23822:23825   */\n      dup1\n        /* \"#utility.yul\":23851:23922   */\n      tag_667\n        /* \"#utility.yul\":23918:23921   */\n      dup9\n        /* \"#utility.yul\":23906:23916   */\n      dup3\n        /* \"#utility.yul\":23851:23922   */\n      tag_415\n      jump\t// in\n    tag_667:\n        /* \"#utility.yul\":23846:23849   */\n      dup5\n        /* \"#utility.yul\":23839:23923   */\n      mstore\n        /* \"#utility.yul\":23952:23956   */\n      0x20\n        /* \"#utility.yul\":23947:23950   */\n      dup5\n        /* \"#utility.yul\":23943:23957   */\n      add\n        /* \"#utility.yul\":23936:23957   */\n      swap4\n      pop\n        /* \"#utility.yul\":23789:23967   */\n      pop\n        /* \"#utility.yul\":23773:23777   */\n      0x40\n        /* \"#utility.yul\":23768:23771   */\n      dup2\n        /* \"#utility.yul\":23764:23778   */\n      add\n        /* \"#utility.yul\":23757:23778   */\n      swap1\n      pop\n        /* \"#utility.yul\":23713:23967   */\n      jump(tag_664)\n    tag_666:\n        /* \"#utility.yul\":23717:23738   */\n      pop\n        /* \"#utility.yul\":23308:23973   */\n      pop\n      pop\n        /* \"#utility.yul\":23172:23973   */\n      swap4\n      swap3\n      pop\n      pop\n      pop\n      jump\t// out\n        /* \"#utility.yul\":24001:24432   */\n    tag_417:\n        /* \"#utility.yul\":24106:24111   */\n      0x00\n        /* \"#utility.yul\":24155:24158   */\n      dup3\n        /* \"#utility.yul\":24148:24152   */\n      0x1f\n        /* \"#utility.yul\":24140:24146   */\n      dup4\n        /* \"#utility.yul\":24136:24153   */\n      add\n        /* \"#utility.yul\":24132:24159   */\n      slt\n        /* \"#utility.yul\":24122:24244   */\n      tag_669\n      jumpi\n        /* \"#utility.yul\":24163:24242   */\n      tag_670\n      tag_376\n      jump\t// in\n    tag_670:\n        /* \"#utility.yul\":24122:24244   */\n    tag_669:\n        /* \"#utility.yul\":24273:24279   */\n      dup2\n        /* \"#utility.yul\":24267:24280   */\n      mload\n        /* \"#utility.yul\":24298:24426   */\n      tag_671\n        /* \"#utility.yul\":24422:24425   */\n      dup5\n        /* \"#utility.yul\":24414:24420   */\n      dup3\n        /* \"#utility.yul\":24407:24411   */\n      0x20\n        /* \"#utility.yul\":24399:24405   */\n      dup7\n        /* \"#utility.yul\":24395:24412   */\n      add\n        /* \"#utility.yul\":24298:24426   */\n      tag_416\n      jump\t// in\n    tag_671:\n        /* \"#utility.yul\":24289:24426   */\n      swap2\n      pop\n        /* \"#utility.yul\":24112:24432   */\n      pop\n        /* \"#utility.yul\":24001:24432   */\n      swap3\n      swap2\n      pop\n      pop\n      jump\t// out\n        /* \"#utility.yul\":24456:25762   */\n    tag_418:\n        /* \"#utility.yul\":24537:24542   */\n      0x00\n        /* \"#utility.yul\":24581:24585   */\n      0x60\n        /* \"#utility.yul\":24569:24578   */\n      dup3\n        /* \"#utility.yul\":24564:24567   */\n      dup5\n        /* \"#utility.yul\":24560:24579   */\n      sub\n        /* \"#utility.yul\":24556:24586   */\n      slt\n        /* \"#utility.yul\":24553:24670   */\n      iszero\n      tag_673\n      jumpi\n        /* \"#utility.yul\":24589:24668   */\n      tag_674\n      tag_400\n      jump\t// in\n    tag_674:\n        /* \"#utility.yul\":24553:24670   */\n    tag_673:\n        /* \"#utility.yul\":24688:24709   */\n      tag_675\n        /* \"#utility.yul\":24704:24708   */\n      0x60\n        /* \"#utility.yul\":24688:24709   */\n      tag_380\n      jump\t// in\n    tag_675:\n        /* \"#utility.yul\":24679:24709   */\n      swap1\n      pop\n        /* \"#utility.yul\":24789:24790   */\n      0x00\n        /* \"#utility.yul\":24778:24787   */\n      dup3\n        /* \"#utility.yul\":24774:24791   */\n      add\n        /* \"#utility.yul\":24768:24792   */\n      mload\n        /* \"#utility.yul\":24819:24837   */\n      0xffffffffffffffff\n        /* \"#utility.yul\":24811:24817   */\n      dup2\n        /* \"#utility.yul\":24808:24838   */\n      gt\n        /* \"#utility.yul\":24805:24922   */\n      iszero\n      tag_676\n      jumpi\n        /* \"#utility.yul\":24841:24920   */\n      tag_677\n      tag_401\n      jump\t// in\n    tag_677:\n        /* \"#utility.yul\":24805:24922   */\n    tag_676:\n        /* \"#utility.yul\":24961:25031   */\n      tag_678\n        /* \"#utility.yul\":25027:25030   */\n      dup5\n        /* \"#utility.yul\":25018:25024   */\n      dup3\n        /* \"#utility.yul\":25007:25016   */\n      dup6\n        /* \"#utility.yul\":25003:25025   */\n      add\n        /* \"#utility.yul\":24961:25031   */\n      tag_412\n      jump\t// in\n    tag_678:\n        /* \"#utility.yul\":24954:24958   */\n      0x00\n        /* \"#utility.yul\":24947:24952   */\n      dup4\n        /* \"#utility.yul\":24943:24959   */\n      add\n        /* \"#utility.yul\":24936:25032   */\n      mstore\n        /* \"#utility.yul\":24719:25043   */\n      pop\n        /* \"#utility.yul\":25125:25127   */\n      0x20\n        /* \"#utility.yul\":25114:25123   */\n      dup3\n        /* \"#utility.yul\":25110:25128   */\n      add\n        /* \"#utility.yul\":25104:25129   */\n      mload\n        /* \"#utility.yul\":25156:25174   */\n      0xffffffffffffffff\n        /* \"#utility.yul\":25148:25154   */\n      dup2\n        /* \"#utility.yul\":25145:25175   */\n      gt\n        /* \"#utility.yul\":25142:25259   */\n      iszero\n      tag_679\n      jumpi\n        /* \"#utility.yul\":25178:25257   */\n      tag_680\n      tag_401\n      jump\t// in\n    tag_680:\n        /* \"#utility.yul\":25142:25259   */\n    tag_679:\n        /* \"#utility.yul\":25298:25368   */\n      tag_681\n        /* \"#utility.yul\":25364:25367   */\n      dup5\n        /* \"#utility.yul\":25355:25361   */\n      dup3\n        /* \"#utility.yul\":25344:25353   */\n      dup6\n        /* \"#utility.yul\":25340:25362   */\n      add\n        /* \"#utility.yul\":25298:25368   */\n      tag_412\n      jump\t// in\n    tag_681:\n        /* \"#utility.yul\":25291:25295   */\n      0x20\n        /* \"#utility.yul\":25284:25289   */\n      dup4\n        /* \"#utility.yul\":25280:25296   */\n      add\n        /* \"#utility.yul\":25273:25369   */\n      mstore\n        /* \"#utility.yul\":25053:25380   */\n      pop\n        /* \"#utility.yul\":25462:25464   */\n      0x40\n        /* \"#utility.yul\":25451:25460   */\n      dup3\n        /* \"#utility.yul\":25447:25465   */\n      add\n        /* \"#utility.yul\":25441:25466   */\n      mload\n        /* \"#utility.yul\":25493:25511   */\n      0xffffffffffffffff\n        /* \"#utility.yul\":25485:25491   */\n      dup2\n        /* \"#utility.yul\":25482:25512   */\n      gt\n        /* \"#utility.yul\":25479:25596   */\n      iszero\n      tag_682\n      jumpi\n        /* \"#utility.yul\":25515:25594   */\n      tag_683\n      tag_401\n      jump\t// in\n    tag_683:\n        /* \"#utility.yul\":25479:25596   */\n    tag_682:\n        /* \"#utility.yul\":25635:25743   */\n      tag_684\n        /* \"#utility.yul\":25739:25742   */\n      dup5\n        /* \"#utility.yul\":25730:25736   */\n      dup3\n        /* \"#utility.yul\":25719:25728   */\n      dup6\n        /* \"#utility.yul\":25715:25737   */\n      add\n        /* \"#utility.yul\":25635:25743   */\n      tag_417\n      jump\t// in\n    tag_684:\n        /* \"#utility.yul\":25628:25632   */\n      0x40\n        /* \"#utility.yul\":25621:25626   */\n      dup4\n        /* \"#utility.yul\":25617:25633   */\n      add\n        /* \"#utility.yul\":25610:25744   */\n      mstore\n        /* \"#utility.yul\":25390:25755   */\n      pop\n        /* \"#utility.yul\":24456:25762   */\n      swap3\n      swap2\n      pop\n      pop\n      jump\t// out\n        /* \"#utility.yul\":25768:26470   */\n    tag_74:\n        /* \"#utility.yul\":25868:25874   */\n      0x00\n        /* \"#utility.yul\":25876:25882   */\n      0x00\n        /* \"#utility.yul\":25925:25927   */\n      0x40\n        /* \"#utility.yul\":25913:25922   */\n      dup4\n        /* \"#utility.yul\":25904:25911   */\n      dup6\n        /* \"#utility.yul\":25900:25923   */\n      sub\n        /* \"#utility.yul\":25896:25928   */\n      slt\n        /* \"#utility.yul\":25893:26012   */\n      iszero\n      tag_686\n      jumpi\n        /* \"#utility.yul\":25931:26010   */\n      tag_687\n      tag_354\n      jump\t// in\n    tag_687:\n        /* \"#utility.yul\":25893:26012   */\n    tag_686:\n        /* \"#utility.yul\":26072:26073   */\n      0x00\n        /* \"#utility.yul\":26061:26070   */\n      dup4\n        /* \"#utility.yul\":26057:26074   */\n      add\n        /* \"#utility.yul\":26051:26075   */\n      mload\n        /* \"#utility.yul\":26102:26120   */\n      0xffffffffffffffff\n        /* \"#utility.yul\":26094:26100   */\n      dup2\n        /* \"#utility.yul\":26091:26121   */\n      gt\n        /* \"#utility.yul\":26088:26205   */\n      iszero\n      tag_688\n      jumpi\n        /* \"#utility.yul\":26124:26203   */\n      tag_689\n      tag_355\n      jump\t// in\n    tag_689:\n        /* \"#utility.yul\":26088:26205   */\n    tag_688:\n        /* \"#utility.yul\":26229:26314   */\n      tag_690\n        /* \"#utility.yul\":26306:26313   */\n      dup6\n        /* \"#utility.yul\":26297:26303   */\n      dup3\n        /* \"#utility.yul\":26286:26295   */\n      dup7\n        /* \"#utility.yul\":26282:26304   */\n      add\n        /* \"#utility.yul\":26229:26314   */\n      tag_418\n      jump\t// in\n    tag_690:\n        /* \"#utility.yul\":26219:26314   */\n      swap3\n      pop\n        /* \"#utility.yul\":26022:26324   */\n      pop\n        /* \"#utility.yul\":26363:26365   */\n      0x20\n        /* \"#utility.yul\":26389:26453   */\n      tag_691\n        /* \"#utility.yul\":26445:26452   */\n      dup6\n        /* \"#utility.yul\":26436:26442   */\n      dup3\n        /* \"#utility.yul\":26425:26434   */\n      dup7\n        /* \"#utility.yul\":26421:26443   */\n      add\n        /* \"#utility.yul\":26389:26453   */\n      tag_413\n      jump\t// in\n    tag_691:\n        /* \"#utility.yul\":26379:26453   */\n      swap2\n      pop\n        /* \"#utility.yul\":26334:26463   */\n      pop\n        /* \"#utility.yul\":25768:26470   */\n      swap3\n      pop\n      swap3\n      swap1\n      pop\n      jump\t// out\n        /* \"#utility.yul\":26476:27022   */\n    tag_95:\n        /* \"#utility.yul\":26567:26573   */\n      0x00\n        /* \"#utility.yul\":26616:26618   */\n      0x20\n        /* \"#utility.yul\":26604:26613   */\n      dup3\n        /* \"#utility.yul\":26595:26602   */\n      dup5\n        /* \"#utility.yul\":26591:26614   */\n      sub\n        /* \"#utility.yul\":26587:26619   */\n      slt\n        /* \"#utility.yul\":26584:26703   */\n      iszero\n      tag_693\n      jumpi\n        /* \"#utility.yul\":26622:26701   */\n      tag_694\n      tag_354\n      jump\t// in\n    tag_694:\n        /* \"#utility.yul\":26584:26703   */\n    tag_693:\n        /* \"#utility.yul\":26763:26764   */\n      0x00\n        /* \"#utility.yul\":26752:26761   */\n      dup3\n        /* \"#utility.yul\":26748:26765   */\n      add\n        /* \"#utility.yul\":26742:26766   */\n      mload\n        /* \"#utility.yul\":26793:26811   */\n      0xffffffffffffffff\n        /* \"#utility.yul\":26785:26791   */\n      dup2\n        /* \"#utility.yul\":26782:26812   */\n      gt\n        /* \"#utility.yul\":26779:26896   */\n      iszero\n      tag_695\n      jumpi\n        /* \"#utility.yul\":26815:26894   */\n      tag_696\n      tag_355\n      jump\t// in\n    tag_696:\n        /* \"#utility.yul\":26779:26896   */\n    tag_695:\n        /* \"#utility.yul\":26920:27005   */\n      tag_697\n        /* \"#utility.yul\":26997:27004   */\n      dup5\n        /* \"#utility.yul\":26988:26994   */\n      dup3\n        /* \"#utility.yul\":26977:26986   */\n      dup6\n        /* \"#utility.yul\":26973:26995   */\n      add\n        /* \"#utility.yul\":26920:27005   */\n      tag_418\n      jump\t// in\n    tag_697:\n        /* \"#utility.yul\":26910:27005   */\n      swap2\n      pop\n        /* \"#utility.yul\":26713:27015   */\n      pop\n        /* \"#utility.yul\":26476:27022   */\n      swap3\n      swap2\n      pop\n      pop\n      jump\t// out\n        /* \"#utility.yul\":27028:27127   */\n    tag_419:\n        /* \"#utility.yul\":27080:27086   */\n      0x00\n        /* \"#utility.yul\":27114:27119   */\n      dup2\n        /* \"#utility.yul\":27108:27120   */\n      mload\n        /* \"#utility.yul\":27098:27120   */\n      swap1\n      pop\n        /* \"#utility.yul\":27028:27127   */\n      swap2\n      swap1\n      pop\n      jump\t// out\n        /* \"#utility.yul\":27133:27302   */\n    tag_420:\n        /* \"#utility.yul\":27217:27228   */\n      0x00\n        /* \"#utility.yul\":27251:27257   */\n      dup3\n        /* \"#utility.yul\":27246:27249   */\n      dup3\n        /* \"#utility.yul\":27239:27258   */\n      mstore\n        /* \"#utility.yul\":27291:27295   */\n      0x20\n        /* \"#utility.yul\":27286:27289   */\n      dup3\n        /* \"#utility.yul\":27282:27296   */\n      add\n        /* \"#utility.yul\":27267:27296   */\n      swap1\n      pop\n        /* \"#utility.yul\":27133:27302   */\n      swap3\n      swap2\n      pop\n      pop\n      jump\t// out\n        /* \"#utility.yul\":27308:27685   */\n    tag_421:\n        /* \"#utility.yul\":27396:27399   */\n      0x00\n        /* \"#utility.yul\":27424:27463   */\n      tag_701\n        /* \"#utility.yul\":27457:27462   */\n      dup3\n        /* \"#utility.yul\":27424:27463   */\n      tag_419\n      jump\t// in\n    tag_701:\n        /* \"#utility.yul\":27479:27550   */\n      tag_702\n        /* \"#utility.yul\":27543:27549   */\n      dup2\n        /* \"#utility.yul\":27538:27541   */\n      dup6\n        /* \"#utility.yul\":27479:27550   */\n      tag_420\n      jump\t// in\n    tag_702:\n        /* \"#utility.yul\":27472:27550   */\n      swap4\n      pop\n        /* \"#utility.yul\":27559:27624   */\n      tag_703\n        /* \"#utility.yul\":27617:27623   */\n      dup2\n        /* \"#utility.yul\":27612:27615   */\n      dup6\n        /* \"#utility.yul\":27605:27609   */\n      0x20\n        /* \"#utility.yul\":27598:27603   */\n      dup7\n        /* \"#utility.yul\":27594:27610   */\n      add\n        /* \"#utility.yul\":27559:27624   */\n      tag_410\n      jump\t// in\n    tag_703:\n        /* \"#utility.yul\":27649:27678   */\n      tag_704\n        /* \"#utility.yul\":27671:27677   */\n      dup2\n        /* \"#utility.yul\":27649:27678   */\n      tag_378\n      jump\t// in\n    tag_704:\n        /* \"#utility.yul\":27644:27647   */\n      dup5\n        /* \"#utility.yul\":27640:27679   */\n      add\n        /* \"#utility.yul\":27633:27679   */\n      swap2\n      pop\n        /* \"#utility.yul\":27400:27685   */\n      pop\n        /* \"#utility.yul\":27308:27685   */\n      swap3\n      swap2\n      pop\n      pop\n      jump\t// out\n        /* \"#utility.yul\":27691:28004   */\n    tag_100:\n        /* \"#utility.yul\":27804:27808   */\n      0x00\n        /* \"#utility.yul\":27842:27844   */\n      0x20\n        /* \"#utility.yul\":27831:27840   */\n      dup3\n        /* \"#utility.yul\":27827:27845   */\n      add\n        /* \"#utility.yul\":27819:27845   */\n      swap1\n      pop\n        /* \"#utility.yul\":27891:27900   */\n      dup2\n        /* \"#utility.yul\":27885:27889   */\n      dup2\n        /* \"#utility.yul\":27881:27901   */\n      sub\n        /* \"#utility.yul\":27877:27878   */\n      0x00\n        /* \"#utility.yul\":27866:27875   */\n      dup4\n        /* \"#utility.yul\":27862:27879   */\n      add\n        /* \"#utility.yul\":27855:27902   */\n      mstore\n        /* \"#utility.yul\":27919:27997   */\n      tag_706\n        /* \"#utility.yul\":27992:27996   */\n      dup2\n        /* \"#utility.yul\":27983:27989   */\n      dup5\n        /* \"#utility.yul\":27919:27997   */\n      tag_421\n      jump\t// in\n    tag_706:\n        /* \"#utility.yul\":27911:27997   */\n      swap1\n      pop\n        /* \"#utility.yul\":27691:28004   */\n      swap3\n      swap2\n      pop\n      pop\n      jump\t// out\n        /* \"#utility.yul\":28010:28361   */\n    tag_104:\n        /* \"#utility.yul\":28080:28086   */\n      0x00\n        /* \"#utility.yul\":28129:28131   */\n      0x20\n        /* \"#utility.yul\":28117:28126   */\n      dup3\n        /* \"#utility.yul\":28108:28115   */\n      dup5\n        /* \"#utility.yul\":28104:28127   */\n      sub\n        /* \"#utility.yul\":28100:28132   */\n      slt\n        /* \"#utility.yul\":28097:28216   */\n      iszero\n      tag_708\n      jumpi\n        /* \"#utility.yul\":28135:28214   */\n      tag_709\n      tag_354\n      jump\t// in\n    tag_709:\n        /* \"#utility.yul\":28097:28216   */\n    tag_708:\n        /* \"#utility.yul\":28255:28256   */\n      0x00\n        /* \"#utility.yul\":28280:28344   */\n      tag_710\n        /* \"#utility.yul\":28336:28343   */\n      dup5\n        /* \"#utility.yul\":28327:28333   */\n      dup3\n        /* \"#utility.yul\":28316:28325   */\n      dup6\n        /* \"#utility.yul\":28312:28334   */\n      add\n        /* \"#utility.yul\":28280:28344   */\n      tag_413\n      jump\t// in\n    tag_710:\n        /* \"#utility.yul\":28270:28344   */\n      swap2\n      pop\n        /* \"#utility.yul\":28226:28354   */\n      pop\n        /* \"#utility.yul\":28010:28361   */\n      swap3\n      swap2\n      pop\n      pop\n      jump\t// out\n        /* \"#utility.yul\":28367:28540   */\n    tag_422:\n        /* \"#utility.yul\":28507:28532   */\n      0x43616c6c6572206973206e6f7420746865206f776e6572000000000000000000\n        /* \"#utility.yul\":28503:28504   */\n      0x00\n        /* \"#utility.yul\":28495:28501   */\n      dup3\n        /* \"#utility.yul\":28491:28505   */\n      add\n        /* \"#utility.yul\":28484:28533   */\n      mstore\n        /* \"#utility.yul\":28367:28540   */\n      pop\n      jump\t// out\n        /* \"#utility.yul\":28546:28912   */\n    tag_423:\n        /* \"#utility.yul\":28688:28691   */\n      0x00\n        /* \"#utility.yul\":28709:28776   */\n      tag_713\n        /* \"#utility.yul\":28773:28775   */\n      0x17\n        /* \"#utility.yul\":28768:28771   */\n      dup4\n        /* \"#utility.yul\":28709:28776   */\n      tag_420\n      jump\t// in\n    tag_713:\n        /* \"#utility.yul\":28702:28776   */\n      swap2\n      pop\n        /* \"#utility.yul\":28785:28878   */\n      tag_714\n        /* \"#utility.yul\":28874:28877   */\n      dup3\n        /* \"#utility.yul\":28785:28878   */\n      tag_422\n      jump\t// in\n    tag_714:\n        /* \"#utility.yul\":28903:28905   */\n      0x20\n        /* \"#utility.yul\":28898:28901   */\n      dup3\n        /* \"#utility.yul\":28894:28906   */\n      add\n        /* \"#utility.yul\":28887:28906   */\n      swap1\n      pop\n        /* \"#utility.yul\":28546:28912   */\n      swap2\n      swap1\n      pop\n      jump\t// out\n        /* \"#utility.yul\":28918:29337   */\n    tag_130:\n        /* \"#utility.yul\":29084:29088   */\n      0x00\n        /* \"#utility.yul\":29122:29124   */\n      0x20\n        /* \"#utility.yul\":29111:29120   */\n      dup3\n        /* \"#utility.yul\":29107:29125   */\n      add\n        /* \"#utility.yul\":29099:29125   */\n      swap1\n      pop\n        /* \"#utility.yul\":29171:29180   */\n      dup2\n        /* \"#utility.yul\":29165:29169   */\n      dup2\n        /* \"#utility.yul\":29161:29181   */\n      sub\n        /* \"#utility.yul\":29157:29158   */\n      0x00\n        /* \"#utility.yul\":29146:29155   */\n      dup4\n        /* \"#utility.yul\":29142:29159   */\n      add\n        /* \"#utility.yul\":29135:29182   */\n      mstore\n        /* \"#utility.yul\":29199:29330   */\n      tag_716\n        /* \"#utility.yul\":29325:29329   */\n      dup2\n        /* \"#utility.yul\":29199:29330   */\n      tag_423\n      jump\t// in\n    tag_716:\n        /* \"#utility.yul\":29191:29330   */\n      swap1\n      pop\n        /* \"#utility.yul\":28918:29337   */\n      swap2\n      swap1\n      pop\n      jump\t// out\n        /* \"#utility.yul\":29343:29486   */\n    tag_424:\n        /* \"#utility.yul\":29400:29405   */\n      0x00\n        /* \"#utility.yul\":29431:29437   */\n      dup2\n        /* \"#utility.yul\":29425:29438   */\n      mload\n        /* \"#utility.yul\":29416:29438   */\n      swap1\n      pop\n        /* \"#utility.yul\":29447:29480   */\n      tag_718\n        /* \"#utility.yul\":29474:29479   */\n      dup2\n        /* \"#utility.yul\":29447:29480   */\n      tag_357\n      jump\t// in\n    tag_718:\n        /* \"#utility.yul\":29343:29486   */\n      swap3\n      swap2\n      pop\n      pop\n      jump\t// out\n        /* \"#utility.yul\":29492:29843   */\n    tag_155:\n        /* \"#utility.yul\":29562:29568   */\n      0x00\n        /* \"#utility.yul\":29611:29613   */\n      0x20\n        /* \"#utility.yul\":29599:29608   */\n      dup3\n        /* \"#utility.yul\":29590:29597   */\n      dup5\n        /* \"#utility.yul\":29586:29609   */\n      sub\n        /* \"#utility.yul\":29582:29614   */\n      slt\n        /* \"#utility.yul\":29579:29698   */\n      iszero\n      tag_720\n      jumpi\n        /* \"#utility.yul\":29617:29696   */\n      tag_721\n      tag_354\n      jump\t// in\n    tag_721:\n        /* \"#utility.yul\":29579:29698   */\n    tag_720:\n        /* \"#utility.yul\":29737:29738   */\n      0x00\n        /* \"#utility.yul\":29762:29826   */\n      tag_722\n        /* \"#utility.yul\":29818:29825   */\n      dup5\n        /* \"#utility.yul\":29809:29815   */\n      dup3\n        /* \"#utility.yul\":29798:29807   */\n      dup6\n        /* \"#utility.yul\":29794:29816   */\n      add\n        /* \"#utility.yul\":29762:29826   */\n      tag_424\n      jump\t// in\n    tag_722:\n        /* \"#utility.yul\":29752:29826   */\n      swap2\n      pop\n        /* \"#utility.yul\":29708:29836   */\n      pop\n        /* \"#utility.yul\":29492:29843   */\n      swap3\n      swap2\n      pop\n      pop\n      jump\t// out\n        /* \"#utility.yul\":29849:29967   */\n    tag_425:\n        /* \"#utility.yul\":29920:29942   */\n      tag_724\n        /* \"#utility.yul\":29936:29941   */\n      dup2\n        /* \"#utility.yul\":29920:29942   */\n      tag_366\n      jump\t// in\n    tag_724:\n        /* \"#utility.yul\":29913:29918   */\n      dup2\n        /* \"#utility.yul\":29910:29943   */\n      eq\n        /* \"#utility.yul\":29900:29961   */\n      tag_725\n      jumpi\n        /* \"#utility.yul\":29957:29958   */\n      0x00\n        /* \"#utility.yul\":29954:29955   */\n      0x00\n        /* \"#utility.yul\":29947:29959   */\n      revert\n        /* \"#utility.yul\":29900:29961   */\n    tag_725:\n        /* \"#utility.yul\":29849:29967   */\n      pop\n      jump\t// out\n        /* \"#utility.yul\":29973:30112   */\n    tag_426:\n        /* \"#utility.yul\":30028:30033   */\n      0x00\n        /* \"#utility.yul\":30059:30065   */\n      dup2\n        /* \"#utility.yul\":30053:30066   */\n      mload\n        /* \"#utility.yul\":30044:30066   */\n      swap1\n      pop\n        /* \"#utility.yul\":30075:30106   */\n      tag_727\n        /* \"#utility.yul\":30100:30105   */\n      dup2\n        /* \"#utility.yul\":30075:30106   */\n      tag_425\n      jump\t// in\n    tag_727:\n        /* \"#utility.yul\":29973:30112   */\n      swap3\n      swap2\n      pop\n      pop\n      jump\t// out\n        /* \"#utility.yul\":30118:30465   */\n    tag_159:\n        /* \"#utility.yul\":30186:30192   */\n      0x00\n        /* \"#utility.yul\":30235:30237   */\n      0x20\n        /* \"#utility.yul\":30223:30232   */\n      dup3\n        /* \"#utility.yul\":30214:30221   */\n      dup5\n        /* \"#utility.yul\":30210:30233   */\n      sub\n        /* \"#utility.yul\":30206:30238   */\n      slt\n        /* \"#utility.yul\":30203:30322   */\n      iszero\n      tag_729\n      jumpi\n        /* \"#utility.yul\":30241:30320   */\n      tag_730\n      tag_354\n      jump\t// in\n    tag_730:\n        /* \"#utility.yul\":30203:30322   */\n    tag_729:\n        /* \"#utility.yul\":30361:30362   */\n      0x00\n        /* \"#utility.yul\":30386:30448   */\n      tag_731\n        /* \"#utility.yul\":30440:30447   */\n      dup5\n        /* \"#utility.yul\":30431:30437   */\n      dup3\n        /* \"#utility.yul\":30420:30429   */\n      dup6\n        /* \"#utility.yul\":30416:30438   */\n      add\n        /* \"#utility.yul\":30386:30448   */\n      tag_426\n      jump\t// in\n    tag_731:\n        /* \"#utility.yul\":30376:30448   */\n      swap2\n      pop\n        /* \"#utility.yul\":30332:30458   */\n      pop\n        /* \"#utility.yul\":30118:30465   */\n      swap3\n      swap2\n      pop\n      pop\n      jump\t// out\n        /* \"#utility.yul\":30471:30651   */\n    tag_193:\n        /* \"#utility.yul\":30519:30596   */\n      0x4e487b7100000000000000000000000000000000000000000000000000000000\n        /* \"#utility.yul\":30516:30517   */\n      0x00\n        /* \"#utility.yul\":30509:30597   */\n      mstore\n        /* \"#utility.yul\":30616:30620   */\n      0x32\n        /* \"#utility.yul\":30613:30614   */\n      0x04\n        /* \"#utility.yul\":30606:30621   */\n      mstore\n        /* \"#utility.yul\":30640:30644   */\n      0x24\n        /* \"#utility.yul\":30637:30638   */\n      0x00\n        /* \"#utility.yul\":30630:30645   */\n      revert\n        /* \"#utility.yul\":30657:30837   */\n    tag_219:\n        /* \"#utility.yul\":30705:30782   */\n      0x4e487b7100000000000000000000000000000000000000000000000000000000\n        /* \"#utility.yul\":30702:30703   */\n      0x00\n        /* \"#utility.yul\":30695:30783   */\n      mstore\n        /* \"#utility.yul\":30802:30806   */\n      0x12\n        /* \"#utility.yul\":30799:30800   */\n      0x04\n        /* \"#utility.yul\":30792:30807   */\n      mstore\n        /* \"#utility.yul\":30826:30830   */\n      0x24\n        /* \"#utility.yul\":30823:30824   */\n      0x00\n        /* \"#utility.yul\":30816:30831   */\n      revert\n        /* \"#utility.yul\":30843:31025   */\n    tag_427:\n        /* \"#utility.yul\":30983:31017   */\n      0x4469726563746f72792063616e6e6f74206265207a65726f2061646472657373\n        /* \"#utility.yul\":30979:30980   */\n      0x00\n        /* \"#utility.yul\":30971:30977   */\n      dup3\n        /* \"#utility.yul\":30967:30981   */\n      add\n        /* \"#utility.yul\":30960:31018   */\n      mstore\n        /* \"#utility.yul\":30843:31025   */\n      pop\n      jump\t// out\n        /* \"#utility.yul\":31031:31397   */\n    tag_428:\n        /* \"#utility.yul\":31173:31176   */\n      0x00\n        /* \"#utility.yul\":31194:31261   */\n      tag_736\n        /* \"#utility.yul\":31258:31260   */\n      0x20\n        /* \"#utility.yul\":31253:31256   */\n      dup4\n        /* \"#utility.yul\":31194:31261   */\n      tag_420\n      jump\t// in\n    tag_736:\n        /* \"#utility.yul\":31187:31261   */\n      swap2\n      pop\n        /* \"#utility.yul\":31270:31363   */\n      tag_737\n        /* \"#utility.yul\":31359:31362   */\n      dup3\n        /* \"#utility.yul\":31270:31363   */\n      tag_427\n      jump\t// in\n    tag_737:\n        /* \"#utility.yul\":31388:31390   */\n      0x20\n        /* \"#utility.yul\":31383:31386   */\n      dup3\n        /* \"#utility.yul\":31379:31391   */\n      add\n        /* \"#utility.yul\":31372:31391   */\n      swap1\n      pop\n        /* \"#utility.yul\":31031:31397   */\n      swap2\n      swap1\n      pop\n      jump\t// out\n        /* \"#utility.yul\":31403:31822   */\n    tag_231:\n        /* \"#utility.yul\":31569:31573   */\n      0x00\n        /* \"#utility.yul\":31607:31609   */\n      0x20\n        /* \"#utility.yul\":31596:31605   */\n      dup3\n        /* \"#utility.yul\":31592:31610   */\n      add\n        /* \"#utility.yul\":31584:31610   */\n      swap1\n      pop\n        /* \"#utility.yul\":31656:31665   */\n      dup2\n        /* \"#utility.yul\":31650:31654   */\n      dup2\n        /* \"#utility.yul\":31646:31666   */\n      sub\n        /* \"#utility.yul\":31642:31643   */\n      0x00\n        /* \"#utility.yul\":31631:31640   */\n      dup4\n        /* \"#utility.yul\":31627:31644   */\n      add\n        /* \"#utility.yul\":31620:31667   */\n      mstore\n        /* \"#utility.yul\":31684:31815   */\n      tag_739\n        /* \"#utility.yul\":31810:31814   */\n      dup2\n        /* \"#utility.yul\":31684:31815   */\n      tag_428\n      jump\t// in\n    tag_739:\n        /* \"#utility.yul\":31676:31815   */\n      swap1\n      pop\n        /* \"#utility.yul\":31403:31822   */\n      swap2\n      swap1\n      pop\n      jump\t// out\n        /* \"#utility.yul\":31828:32006   */\n    tag_429:\n        /* \"#utility.yul\":31968:31998   */\n      0x4469726563746f7279206d757374206265206120636f6e747261637400000000\n        /* \"#utility.yul\":31964:31965   */\n      0x00\n        /* \"#utility.yul\":31956:31962   */\n      dup3\n        /* \"#utility.yul\":31952:31966   */\n      add\n        /* \"#utility.yul\":31945:31999   */\n      mstore\n        /* \"#utility.yul\":31828:32006   */\n      pop\n      jump\t// out\n        /* \"#utility.yul\":32012:32378   */\n    tag_430:\n        /* \"#utility.yul\":32154:32157   */\n      0x00\n        /* \"#utility.yul\":32175:32242   */\n      tag_742\n        /* \"#utility.yul\":32239:32241   */\n      0x1c\n        /* \"#utility.yul\":32234:32237   */\n      dup4\n        /* \"#utility.yul\":32175:32242   */\n      tag_420\n      jump\t// in\n    tag_742:\n        /* \"#utility.yul\":32168:32242   */\n      swap2\n      pop\n        /* \"#utility.yul\":32251:32344   */\n      tag_743\n        /* \"#utility.yul\":32340:32343   */\n      dup3\n        /* \"#utility.yul\":32251:32344   */\n      tag_429\n      jump\t// in\n    tag_743:\n        /* \"#utility.yul\":32369:32371   */\n      0x20\n        /* \"#utility.yul\":32364:32367   */\n      dup3\n        /* \"#utility.yul\":32360:32372   */\n      add\n        /* \"#utility.yul\":32353:32372   */\n      swap1\n      pop\n        /* \"#utility.yul\":32012:32378   */\n      swap2\n      swap1\n      pop\n      jump\t// out\n        /* \"#utility.yul\":32384:32803   */\n    tag_234:\n        /* \"#utility.yul\":32550:32554   */\n      0x00\n        /* \"#utility.yul\":32588:32590   */\n      0x20\n        /* \"#utility.yul\":32577:32586   */\n      dup3\n        /* \"#utility.yul\":32573:32591   */\n      add\n        /* \"#utility.yul\":32565:32591   */\n      swap1\n      pop\n        /* \"#utility.yul\":32637:32646   */\n      dup2\n        /* \"#utility.yul\":32631:32635   */\n      dup2\n        /* \"#utility.yul\":32627:32647   */\n      sub\n        /* \"#utility.yul\":32623:32624   */\n      0x00\n        /* \"#utility.yul\":32612:32621   */\n      dup4\n        /* \"#utility.yul\":32608:32625   */\n      add\n        /* \"#utility.yul\":32601:32648   */\n      mstore\n        /* \"#utility.yul\":32665:32796   */\n      tag_745\n        /* \"#utility.yul\":32791:32795   */\n      dup2\n        /* \"#utility.yul\":32665:32796   */\n      tag_430\n      jump\t// in\n    tag_745:\n        /* \"#utility.yul\":32657:32796   */\n      swap1\n      pop\n        /* \"#utility.yul\":32384:32803   */\n      swap2\n      swap1\n      pop\n      jump\t// out\n        /* \"#utility.yul\":32809:33040   */\n    tag_431:\n        /* \"#utility.yul\":32949:32983   */\n      0x4469726563746f7279206164647265737320646f6573206e6f7420696d706c65\n        /* \"#utility.yul\":32945:32946   */\n      0x00\n        /* \"#utility.yul\":32937:32943   */\n      dup3\n        /* \"#utility.yul\":32933:32947   */\n      add\n        /* \"#utility.yul\":32926:32984   */\n      mstore\n        /* \"#utility.yul\":33018:33032   */\n      0x6d656e74206f776e657228290000000000000000000000000000000000000000\n        /* \"#utility.yul\":33013:33015   */\n      0x20\n        /* \"#utility.yul\":33005:33011   */\n      dup3\n        /* \"#utility.yul\":33001:33016   */\n      add\n        /* \"#utility.yul\":32994:33033   */\n      mstore\n        /* \"#utility.yul\":32809:33040   */\n      pop\n      jump\t// out\n        /* \"#utility.yul\":33046:33412   */\n    tag_432:\n        /* \"#utility.yul\":33188:33191   */\n      0x00\n        /* \"#utility.yul\":33209:33276   */\n      tag_748\n        /* \"#utility.yul\":33273:33275   */\n      0x2c\n        /* \"#utility.yul\":33268:33271   */\n      dup4\n        /* \"#utility.yul\":33209:33276   */\n      tag_420\n      jump\t// in\n    tag_748:\n        /* \"#utility.yul\":33202:33276   */\n      swap2\n      pop\n        /* \"#utility.yul\":33285:33378   */\n      tag_749\n        /* \"#utility.yul\":33374:33377   */\n      dup3\n        /* \"#utility.yul\":33285:33378   */\n      tag_431\n      jump\t// in\n    tag_749:\n        /* \"#utility.yul\":33403:33405   */\n      0x40\n        /* \"#utility.yul\":33398:33401   */\n      dup3\n        /* \"#utility.yul\":33394:33406   */\n      add\n        /* \"#utility.yul\":33387:33406   */\n      swap1\n      pop\n        /* \"#utility.yul\":33046:33412   */\n      swap2\n      swap1\n      pop\n      jump\t// out\n        /* \"#utility.yul\":33418:33837   */\n    tag_242:\n        /* \"#utility.yul\":33584:33588   */\n      0x00\n        /* \"#utility.yul\":33622:33624   */\n      0x20\n        /* \"#utility.yul\":33611:33620   */\n      dup3\n        /* \"#utility.yul\":33607:33625   */\n      add\n        /* \"#utility.yul\":33599:33625   */\n      swap1\n      pop\n        /* \"#utility.yul\":33671:33680   */\n      dup2\n        /* \"#utility.yul\":33665:33669   */\n      dup2\n        /* \"#utility.yul\":33661:33681   */\n      sub\n        /* \"#utility.yul\":33657:33658   */\n      0x00\n        /* \"#utility.yul\":33646:33655   */\n      dup4\n        /* \"#utility.yul\":33642:33659   */\n      add\n        /* \"#utility.yul\":33635:33682   */\n      mstore\n        /* \"#utility.yul\":33699:33830   */\n      tag_751\n        /* \"#utility.yul\":33825:33829   */\n      dup2\n        /* \"#utility.yul\":33699:33830   */\n      tag_432\n      jump\t// in\n    tag_751:\n        /* \"#utility.yul\":33691:33830   */\n      swap1\n      pop\n        /* \"#utility.yul\":33418:33837   */\n      swap2\n      swap1\n      pop\n      jump\t// out\n        /* \"#utility.yul\":33843:34023   */\n    tag_433:\n        /* \"#utility.yul\":33891:33968   */\n      0x4e487b7100000000000000000000000000000000000000000000000000000000\n        /* \"#utility.yul\":33888:33889   */\n      0x00\n        /* \"#utility.yul\":33881:33969   */\n      mstore\n        /* \"#utility.yul\":33988:33992   */\n      0x11\n        /* \"#utility.yul\":33985:33986   */\n      0x04\n        /* \"#utility.yul\":33978:33993   */\n      mstore\n        /* \"#utility.yul\":34012:34016   */\n      0x24\n        /* \"#utility.yul\":34009:34010   */\n      0x00\n        /* \"#utility.yul\":34002:34017   */\n      revert\n        /* \"#utility.yul\":34029:34214   */\n    tag_292:\n        /* \"#utility.yul\":34069:34070   */\n      0x00\n        /* \"#utility.yul\":34086:34106   */\n      tag_754\n        /* \"#utility.yul\":34104:34105   */\n      dup3\n        /* \"#utility.yul\":34086:34106   */\n      tag_356\n      jump\t// in\n    tag_754:\n        /* \"#utility.yul\":34081:34106   */\n      swap2\n      pop\n        /* \"#utility.yul\":34120:34140   */\n      tag_755\n        /* \"#utility.yul\":34138:34139   */\n      dup4\n        /* \"#utility.yul\":34120:34140   */\n      tag_356\n      jump\t// in\n    tag_755:\n        /* \"#utility.yul\":34115:34140   */\n      swap3\n      pop\n        /* \"#utility.yul\":34159:34160   */\n      dup3\n        /* \"#utility.yul\":34149:34184   */\n      tag_756\n      jumpi\n        /* \"#utility.yul\":34164:34182   */\n      tag_757\n      tag_219\n      jump\t// in\n    tag_757:\n        /* \"#utility.yul\":34149:34184   */\n    tag_756:\n        /* \"#utility.yul\":34206:34207   */\n      dup3\n        /* \"#utility.yul\":34203:34204   */\n      dup3\n        /* \"#utility.yul\":34199:34208   */\n      div\n        /* \"#utility.yul\":34194:34208   */\n      swap1\n      pop\n        /* \"#utility.yul\":34029:34214   */\n      swap3\n      swap2\n      pop\n      pop\n      jump\t// out\n        /* \"#utility.yul\":34220:34411   */\n    tag_302:\n        /* \"#utility.yul\":34258:34262   */\n      0x00\n        /* \"#utility.yul\":34278:34296   */\n      tag_759\n        /* \"#utility.yul\":34294:34295   */\n      dup3\n        /* \"#utility.yul\":34278:34296   */\n      tag_366\n      jump\t// in\n    tag_759:\n        /* \"#utility.yul\":34273:34296   */\n      swap2\n      pop\n        /* \"#utility.yul\":34310:34328   */\n      tag_760\n        /* \"#utility.yul\":34326:34327   */\n      dup4\n        /* \"#utility.yul\":34310:34328   */\n      tag_366\n      jump\t// in\n    tag_760:\n        /* \"#utility.yul\":34305:34328   */\n      swap3\n      pop\n        /* \"#utility.yul\":34352:34353   */\n      dup3\n        /* \"#utility.yul\":34349:34350   */\n      dup3\n        /* \"#utility.yul\":34345:34354   */\n      sub\n        /* \"#utility.yul\":34337:34354   */\n      swap1\n      pop\n        /* \"#utility.yul\":34376:34380   */\n      0xff\n        /* \"#utility.yul\":34370:34374   */\n      dup2\n        /* \"#utility.yul\":34367:34381   */\n      gt\n        /* \"#utility.yul\":34364:34404   */\n      iszero\n      tag_761\n      jumpi\n        /* \"#utility.yul\":34384:34402   */\n      tag_762\n      tag_433\n      jump\t// in\n    tag_762:\n        /* \"#utility.yul\":34364:34404   */\n    tag_761:\n        /* \"#utility.yul\":34220:34411   */\n      swap3\n      swap2\n      pop\n      pop\n      jump\t// out\n        /* \"#utility.yul\":34417:34582   */\n    tag_434:\n        /* \"#utility.yul\":34557:34574   */\n      0x6d756c446976206f766572666c6f770000000000000000000000000000000000\n        /* \"#utility.yul\":34553:34554   */\n      0x00\n        /* \"#utility.yul\":34545:34551   */\n      dup3\n        /* \"#utility.yul\":34541:34555   */\n      add\n        /* \"#utility.yul\":34534:34575   */\n      mstore\n        /* \"#utility.yul\":34417:34582   */\n      pop\n      jump\t// out\n        /* \"#utility.yul\":34588:34954   */\n    tag_435:\n        /* \"#utility.yul\":34730:34733   */\n      0x00\n        /* \"#utility.yul\":34751:34818   */\n      tag_765\n        /* \"#utility.yul\":34815:34817   */\n      0x0f\n        /* \"#utility.yul\":34810:34813   */\n      dup4\n        /* \"#utility.yul\":34751:34818   */\n      tag_420\n      jump\t// in\n    tag_765:\n        /* \"#utility.yul\":34744:34818   */\n      swap2\n      pop\n        /* \"#utility.yul\":34827:34920   */\n      tag_766\n        /* \"#utility.yul\":34916:34919   */\n      dup3\n        /* \"#utility.yul\":34827:34920   */\n      tag_434\n      jump\t// in\n    tag_766:\n        /* \"#utility.yul\":34945:34947   */\n      0x20\n        /* \"#utility.yul\":34940:34943   */\n      dup3\n        /* \"#utility.yul\":34936:34948   */\n      add\n        /* \"#utility.yul\":34929:34948   */\n      swap1\n      pop\n        /* \"#utility.yul\":34588:34954   */\n      swap2\n      swap1\n      pop\n      jump\t// out\n        /* \"#utility.yul\":34960:35379   */\n    tag_332:\n        /* \"#utility.yul\":35126:35130   */\n      0x00\n        /* \"#utility.yul\":35164:35166   */\n      0x20\n        /* \"#utility.yul\":35153:35162   */\n      dup3\n        /* \"#utility.yul\":35149:35167   */\n      add\n        /* \"#utility.yul\":35141:35167   */\n      swap1\n      pop\n        /* \"#utility.yul\":35213:35222   */\n      dup2\n        /* \"#utility.yul\":35207:35211   */\n      dup2\n        /* \"#utility.yul\":35203:35223   */\n      sub\n        /* \"#utility.yul\":35199:35200   */\n      0x00\n        /* \"#utility.yul\":35188:35197   */\n      dup4\n        /* \"#utility.yul\":35184:35201   */\n      add\n        /* \"#utility.yul\":35177:35224   */\n      mstore\n        /* \"#utility.yul\":35241:35372   */\n      tag_768\n        /* \"#utility.yul\":35367:35371   */\n      dup2\n        /* \"#utility.yul\":35241:35372   */\n      tag_435\n      jump\t// in\n    tag_768:\n        /* \"#utility.yul\":35233:35372   */\n      swap1\n      pop\n        /* \"#utility.yul\":34960:35379   */\n      swap2\n      swap1\n      pop\n      jump\t// out\n        /* \"#utility.yul\":35385:35549   */\n    tag_436:\n        /* \"#utility.yul\":35525:35541   */\n      0x706f773130206f766572666c6f77000000000000000000000000000000000000\n        /* \"#utility.yul\":35521:35522   */\n      0x00\n        /* \"#utility.yul\":35513:35519   */\n      dup3\n        /* \"#utility.yul\":35509:35523   */\n      add\n        /* \"#utility.yul\":35502:35542   */\n      mstore\n        /* \"#utility.yul\":35385:35549   */\n      pop\n      jump\t// out\n        /* \"#utility.yul\":35555:35921   */\n    tag_437:\n        /* \"#utility.yul\":35697:35700   */\n      0x00\n        /* \"#utility.yul\":35718:35785   */\n      tag_771\n        /* \"#utility.yul\":35782:35784   */\n      0x0e\n        /* \"#utility.yul\":35777:35780   */\n      dup4\n        /* \"#utility.yul\":35718:35785   */\n      tag_420\n      jump\t// in\n    tag_771:\n        /* \"#utility.yul\":35711:35785   */\n      swap2\n      pop\n        /* \"#utility.yul\":35794:35887   */\n      tag_772\n        /* \"#utility.yul\":35883:35886   */\n      dup3\n        /* \"#utility.yul\":35794:35887   */\n      tag_436\n      jump\t// in\n    tag_772:\n        /* \"#utility.yul\":35912:35914   */\n      0x20\n        /* \"#utility.yul\":35907:35910   */\n      dup3\n        /* \"#utility.yul\":35903:35915   */\n      add\n        /* \"#utility.yul\":35896:35915   */\n      swap1\n      pop\n        /* \"#utility.yul\":35555:35921   */\n      swap2\n      swap1\n      pop\n      jump\t// out\n        /* \"#utility.yul\":35927:36346   */\n    tag_352:\n        /* \"#utility.yul\":36093:36097   */\n      0x00\n        /* \"#utility.yul\":36131:36133   */\n      0x20\n        /* \"#utility.yul\":36120:36129   */\n      dup3\n        /* \"#utility.yul\":36116:36134   */\n      add\n        /* \"#utility.yul\":36108:36134   */\n      swap1\n      pop\n        /* \"#utility.yul\":36180:36189   */\n      dup2\n        /* \"#utility.yul\":36174:36178   */\n      dup2\n        /* \"#utility.yul\":36170:36190   */\n      sub\n        /* \"#utility.yul\":36166:36167   */\n      0x00\n        /* \"#utility.yul\":36155:36164   */\n      dup4\n        /* \"#utility.yul\":36151:36168   */\n      add\n        /* \"#utility.yul\":36144:36191   */\n      mstore\n        /* \"#utility.yul\":36208:36339   */\n      tag_774\n        /* \"#utility.yul\":36334:36338   */\n      dup2\n        /* \"#utility.yul\":36208:36339   */\n      tag_437\n      jump\t// in\n    tag_774:\n        /* \"#utility.yul\":36200:36339   */\n      swap1\n      pop\n        /* \"#utility.yul\":35927:36346   */\n      swap2\n      swap1\n      pop\n      jump\t// out\n\n    auxdata: 0xa26469706673582212200aaf7c5667c5a23b3472733f2adaf6df64900f0a1780b08f31fcd1952c49a50664736f6c634300081e0033\n}\n",
				"bytecode": {
					"linkReferences": {},
					"object": "608060405234801561000f575f5ffd5b50604051612e98380380612e9883398181016040528101906100319190610257565b806100418161004860201b60201c565b50506103f0565b5f73ffffffffffffffffffffffffffffffffffffffff168173ffffffffffffffffffffffffffffffffffffffff16036100b6576040517f08c379a00000000000000000000000000000000000000000000000000000000081526004016100ad906102dc565b60405180910390fd5b5f8173ffffffffffffffffffffffffffffffffffffffff163b1161010f576040517f08c379a000000000000000000000000000000000000000000000000000000000815260040161010690610344565b60405180910390fd5b8073ffffffffffffffffffffffffffffffffffffffff16638da5cb5b6040518163ffffffff1660e01b8152600401602060405180830381865afa92505050801561017757506040513d601f19601f820116820180604052508101906101749190610257565b60015b6101b6576040517f08c379a00000000000000000000000000000000000000000000000000000000081526004016101ad906103d2565b60405180910390fd5b815f5f6101000a81548173ffffffffffffffffffffffffffffffffffffffff021916908373ffffffffffffffffffffffffffffffffffffffff1602179055505050565b5f5ffd5b5f73ffffffffffffffffffffffffffffffffffffffff82169050919050565b5f610226826101fd565b9050919050565b6102368161021c565b8114610240575f5ffd5b50565b5f815190506102518161022d565b92915050565b5f6020828403121561026c5761026b6101f9565b5b5f61027984828501610243565b91505092915050565b5f82825260208201905092915050565b7f4469726563746f72792063616e6e6f74206265207a65726f20616464726573735f82015250565b5f6102c6602083610282565b91506102d182610292565b602082019050919050565b5f6020820190508181035f8301526102f3816102ba565b9050919050565b7f4469726563746f7279206d757374206265206120636f6e7472616374000000005f82015250565b5f61032e601c83610282565b9150610339826102fa565b602082019050919050565b5f6020820190508181035f83015261035b81610322565b9050919050565b7f4469726563746f7279206164647265737320646f6573206e6f7420696d706c655f8201527f6d656e74206f776e657228290000000000000000000000000000000000000000602082015250565b5f6103bc602c83610282565b91506103c782610362565b604082019050919050565b5f6020820190508181035f8301526103e9816103b0565b9050919050565b612a9b806103fd5f395ff3fe608060405234801561000f575f5ffd5b50600436106100a7575f3560e01c806379de9e821161006f57806379de9e821461018a578063812efc8e146101bb5780638da5cb5b146101eb578063ba4c7be114610209578063cd8d334f14610225578063ee0d96c514610257576100a7565b80630705a3e8146100ab57806313290a89146100db578063179b8f971461010c578063272626181461013c578063658a847a1461016c575b5f5ffd5b6100c560048036038101906100c091906119f8565b610288565b6040516100d29190611a32565b60405180910390f35b6100f560048036038101906100f091906119f8565b610332565b604051610103929190611bf1565b60405180910390f35b610126600480360381019061012191906119f8565b6103d2565b6040516101339190611c4c565b60405180910390f35b61015660048036038101906101519190611da1565b610470565b6040516101639190611df7565b60405180910390f35b610174610510565b6040516101819190611e6b565b60405180910390f35b6101a4600480360381019061019f91906119f8565b610534565b6040516101b2929190611e84565b60405180910390f35b6101d560048036038101906101d091906119f8565b6105dd565b6040516101e29190611a32565b60405180910390f35b6101f361067a565b6040516102009190611df7565b60405180910390f35b610223600480360381019061021e9190611ed5565b61070d565b005b61023f600480360381019061023a91906119f8565b610813565b60405161024e93929190612049565b60405180910390f35b610271600480360381019061026c919061227d565b6108b8565b60405161027f929190611bf1565b60405180910390f35b5f5f5f6102936108d0565b73ffffffffffffffffffffffffffffffffffffffff16633088f069856040518263ffffffff1660e01b81526004016102cb9190611a32565b5f60405180830381865afa1580156102e5573d5f5f3e3d5ffd5b505050506040513d5f823e3d601f19601f8201168201806040525081019061030d9190612512565b915091505f61031d858484610914565b905061032881610ae0565b9350505050919050565b60605f5f5f61033f6108d0565b73ffffffffffffffffffffffffffffffffffffffff16633088f069866040518263ffffffff1660e01b81526004016103779190611a32565b5f60405180830381865afa158015610391573d5f5f3e3d5ffd5b505050506040513d5f823e3d601f19601f820116820180604052508101906103b99190612512565b915091506103c78282610b93565b935093505050915091565b6103da6118f5565b5f6103e36108d0565b73ffffffffffffffffffffffffffffffffffffffff1663ecb0271c846040518263ffffffff1660e01b815260040161041b9190611a32565b5f60405180830381865afa158015610435573d5f5f3e3d5ffd5b505050506040513d5f823e3d601f19601f8201168201806040525081019061045d919061256c565b905061046881610ecd565b915050919050565b5f5f5f9054906101000a900473ffffffffffffffffffffffffffffffffffffffff1673ffffffffffffffffffffffffffffffffffffffff166327262618836040518263ffffffff1660e01b81526004016104ca9190612605565b602060405180830381865afa1580156104e5573d5f5f3e3d5ffd5b505050506040513d601f19601f820116820180604052508101906105099190612625565b9050919050565b5f5f9054906101000a900473ffffffffffffffffffffffffffffffffffffffff1681565b5f5f5f5f6105406108d0565b73ffffffffffffffffffffffffffffffffffffffff16633088f069866040518263ffffffff1660e01b81526004016105789190611a32565b5f60405180830381865afa158015610592573d5f5f3e3d5ffd5b505050506040513d5f823e3d601f19601f820116820180604052508101906105ba9190612512565b915091506105c9858383610914565b93506105d484610ae0565b92505050915091565b5f5f5f6105e86108d0565b73ffffffffffffffffffffffffffffffffffffffff16633088f069856040518263ffffffff1660e01b81526004016106209190611a32565b5f60405180830381865afa15801561063a573d5f5f3e3d5ffd5b505050506040513d5f823e3d601f19601f820116820180604052508101906106629190612512565b91509150610671848383610914565b92505050919050565b5f5f5f9054906101000a900473ffffffffffffffffffffffffffffffffffffffff1673ffffffffffffffffffffffffffffffffffffffff16638da5cb5b6040518163ffffffff1660e01b8152600401602060405180830381865afa1580156106e4573d5f5f3e3d5ffd5b505050506040513d601f19601f820116820180604052508101906107089190612625565b905090565b5f5f9054906101000a900473ffffffffffffffffffffffffffffffffffffffff1673ffffffffffffffffffffffffffffffffffffffff16638da5cb5b6040518163ffffffff1660e01b8152600401602060405180830381865afa158015610776573d5f5f3e3d5ffd5b505050506040513d601f19601f8201168201806040525081019061079a9190612625565b73ffffffffffffffffffffffffffffffffffffffff163373ffffffffffffffffffffffffffffffffffffffff1614610807576040517f08c379a00000000000000000000000000000000000000000000000000000000081526004016107fe9061269a565b60405180910390fd5b61081081610f41565b50565b60605f5f5f5f6108216108d0565b73ffffffffffffffffffffffffffffffffffffffff16633088f069876040518263ffffffff1660e01b81526004016108599190611a32565b5f60405180830381865afa158015610873573d5f5f3e3d5ffd5b505050506040513d5f823e3d601f19601f8201168201806040525081019061089b9190612512565b915091506108a982826110f2565b94509450945050509193909250565b60605f6108c58484610b93565b915091509250929050565b5f61090f6040518060400160405280600b81526020017f6574662d666163746f7279000000000000000000000000000000000000000000815250610470565b905090565b5f5f61091e6108d0565b73ffffffffffffffffffffffffffffffffffffffff1663f2018a1f866040518263ffffffff1660e01b81526004016109569190611a32565b602060405180830381865afa158015610971573d5f5f3e3d5ffd5b505050506040513d601f19601f820116820180604052508101906109959190612625565b90505f8173ffffffffffffffffffffffffffffffffffffffff166318160ddd6040518163ffffffff1660e01b8152600401602060405180830381865afa1580156109e1573d5f5f3e3d5ffd5b505050506040513d601f19601f82011682018060405250810190610a0591906126cc565b90505f8273ffffffffffffffffffffffffffffffffffffffff1663313ce5676040518163ffffffff1660e01b8152600401602060405180830381865afa158015610a51573d5f5f3e3d5ffd5b505050506040513d601f19601f82011682018060405250810190610a759190612721565b90505f8203610a9157610a8786611306565b9350505050610ad9565b5f610a9c838361143b565b90505f8103610ab1575f945050505050610ad9565b5f610abc88886114a6565b9050610ad181670de0b6b3a7640000846116a0565b955050505050505b9392505050565b5f5f8203610af0575f9050610b8e565b5f610af96117aa565b73ffffffffffffffffffffffffffffffffffffffff16636855e9396040518163ffffffff1660e01b8152600401602060405180830381865afa158015610b41573d5f5f3e3d5ffd5b505050506040513d601f19601f82011682018060405250810190610b6591906126cc565b90505f8103610b77575f915050610b8e565b610b8a8382670de0b6b3a76400006116a0565b9150505b919050565b60605f5f84604001515190508067ffffffffffffffff811115610bb957610bb8611c7d565b5b604051908082528060200260200182016040528015610bf257816020015b610bdf61190d565b815260200190600190039081610bd75790505b5092505f610bfe6117aa565b90505f5f90505b82811015610e41575f87604001518281518110610c2557610c2461274c565b5b60200260200101515f015190505f8173ffffffffffffffffffffffffffffffffffffffff1663313ce5676040518163ffffffff1660e01b8152600401602060405180830381865afa158015610c7c573d5f5f3e3d5ffd5b505050506040513d601f19601f82011682018060405250810190610ca09190612721565b90505f8273ffffffffffffffffffffffffffffffffffffffff166370a082318a6040518263ffffffff1660e01b8152600401610cdc9190611df7565b602060405180830381865afa158015610cf7573d5f5f3e3d5ffd5b505050506040513d601f19601f82011682018060405250810190610d1b91906126cc565b90505f8573ffffffffffffffffffffffffffffffffffffffff16637b49b49d856040518263ffffffff1660e01b8152600401610d579190611df7565b602060405180830381865afa158015610d72573d5f5f3e3d5ffd5b505050506040513d601f19601f82011682018060405250810190610d9691906126cc565b90505f5f831480610da657505f82145b610dc057610dbb83838660ff16600a0a6116a0565b610dc2565b5f5b90506040518060c001604052808673ffffffffffffffffffffffffffffffffffffffff1681526020018560ff1681526020015f61ffff168152602001848152602001838152602001828152508a8781518110610e2157610e2061274c565b5b602002602001018190525080890198505050505050806001019050610c05565b505f831115610ec4575f5f90505b82811015610ec25783612710868381518110610e6e57610e6d61274c565b5b602002602001015160a001510281610e8957610e88612779565b5b04858281518110610e9d57610e9c61274c565b5b60200260200101516040019061ffff16908161ffff1681525050806001019050610e4f565b505b50509250929050565b610ed56118f5565b5f610ede6117aa565b9050610f05838273ffffffffffffffffffffffffffffffffffffffff166357b6c1336117ee565b825f018181525050610f32838273ffffffffffffffffffffffffffffffffffffffff166369a2e17d6117ee565b82602001818152505050919050565b5f73ffffffffffffffffffffffffffffffffffffffff168173ffffffffffffffffffffffffffffffffffffffff1603610faf576040517f08c379a0000000000000000000000000000000000000000000000000000000008152600401610fa6906127f0565b60405180910390fd5b5f8173ffffffffffffffffffffffffffffffffffffffff163b11611008576040517f08c379a0000000000000000000000000000000000000000000000000000000008152600401610fff90612858565b60405180910390fd5b8073ffffffffffffffffffffffffffffffffffffffff16638da5cb5b6040518163ffffffff1660e01b8152600401602060405180830381865afa92505050801561107057506040513d601f19601f8201168201806040525081019061106d9190612625565b60015b6110af576040517f08c379a00000000000000000000000000000000000000000000000000000000081526004016110a6906128e6565b60405180910390fd5b815f5f6101000a81548173ffffffffffffffffffffffffffffffffffffffff021916908373ffffffffffffffffffffffffffffffffffffffff1602179055505050565b60605f5f5f5f6111028787610b93565b9150915080935061111281610ae0565b92505f825190508067ffffffffffffffff81111561113357611132611c7d565b5b60405190808252806020026020018201604052801561116c57816020015b61115961195a565b8152602001906001900390816111515790505b5095505f5f90505b818110156112fb5760405180610100016040528085838151811061119b5761119a61274c565b5b60200260200101515f015173ffffffffffffffffffffffffffffffffffffffff1681526020018583815181106111d4576111d361274c565b5b60200260200101516020015160ff1681526020018583815181106111fb576111fa61274c565b5b60200260200101516040015161ffff1681526020018583815181106112235761122261274c565b5b60200260200101516060015181526020018583815181106112475761124661274c565b5b602002602001015160800151815260200161127f86848151811061126e5761126d61274c565b5b602002602001015160800151610ae0565b81526020018583815181106112975761129661274c565b5b602002602001015160a0015181526020016112cf8684815181106112be576112bd61274c565b5b602002602001015160a00151610ae0565b8152508782815181106112e5576112e461274c565b5b6020026020010181905250806001019050611174565b505050509250925092565b5f5f5f6113116117aa565b90505f5f90505b846040015151811015611423575f8560400151828151811061133d5761133c61274c565b5b60200260200101515f015190505f866040015183815181106113625761136161274c565b5b60200260200101516020015190505f8473ffffffffffffffffffffffffffffffffffffffff16637b49b49d846040518263ffffffff1660e01b81526004016113aa9190611df7565b602060405180830381865afa1580156113c5573d5f5f3e3d5ffd5b505050506040513d601f19601f820116820180604052508101906113e991906126cc565b90505f8114806113fc57505f8261ffff16145b1561140957505050611418565b808261ffff1602860195505050505b806001019050611318565b50612710826114329190612931565b92505050919050565b5f60128260ff160361144f578290506114a0565b60128260ff16101561147d5761147683670de0b6b3a76400006114718561189f565b6116a0565b90506114a0565b61149260128361148d9190612961565b61189f565b8361149d9190612931565b90505b92915050565b5f5f6114b06117aa565b90505f5f90505b846040015151811015611698575f856040015182815181106114dc576114db61274c565b5b60200260200101515f015190505f8173ffffffffffffffffffffffffffffffffffffffff166370a08231876040518263ffffffff1660e01b81526004016115239190611df7565b602060405180830381865afa15801561153e573d5f5f3e3d5ffd5b505050506040513d601f19601f8201168201806040525081019061156291906126cc565b90505f810361157257505061168d565b5f8473ffffffffffffffffffffffffffffffffffffffff16637b49b49d846040518263ffffffff1660e01b81526004016115ac9190611df7565b602060405180830381865afa1580156115c7573d5f5f3e3d5ffd5b505050506040513d601f19601f820116820180604052508101906115eb91906126cc565b90505f81036115fc5750505061168d565b5f8373ffffffffffffffffffffffffffffffffffffffff1663313ce5676040518163ffffffff1660e01b8152600401602060405180830381865afa158015611646573d5f5f3e3d5ffd5b505050506040513d601f19601f8201168201806040525081019061166a9190612721565b90505f6116768261189f565b90506116838484836116a0565b8801975050505050505b8060010190506114b7565b505092915050565b5f5f5f5f198587098587029250828110838203039150505f81036116d8578382816116ce576116cd612779565b5b04925050506117a3565b80841161171a576040517f08c379a0000000000000000000000000000000000000000000000000000000008152600401611711906129df565b60405180910390fd5b5f8486880990508281118203915080830392505f60018619018616905080860495508084049350600181825f0304019050808302841793505f600287600302189050808702600203810290508087026002038102905080870260020381029050808702600203810290508087026002038102905080870260020381029050808502955050505050505b9392505050565b5f6117e96040518060400160405280600e81526020017f756e69737761702d6f7261636c65000000000000000000000000000000000000815250610470565b905090565b5f5f5f90505b846040015151811015611897575f856040015182815181106118195761181861274c565b5b60200260200101515f015190508484826040518263ffffffff1660e01b81526004016118459190611df7565b602060405180830381865afa92505050801561187f57506040513d601f19601f8201168201806040525081019061187c91906126cc565b60015b1561188b578084019350505b508060010190506117f4565b509392505050565b5f604d8260ff1611156118e7576040517f08c379a00000000000000000000000000000000000000000000000000000000081526004016118de90612a47565b60405180910390fd5b8160ff16600a0a9050919050565b60405180604001604052805f81526020015f81525090565b6040518060c001604052805f73ffffffffffffffffffffffffffffffffffffffff1681526020015f60ff1681526020015f61ffff1681526020015f81526020015f81526020015f81525090565b6040518061010001604052805f73ffffffffffffffffffffffffffffffffffffffff1681526020015f60ff1681526020015f61ffff1681526020015f81526020015f81526020015f81526020015f81526020015f81525090565b5f604051905090565b5f5ffd5b5f5ffd5b5f819050919050565b6119d7816119c5565b81146119e1575f5ffd5b50565b5f813590506119f2816119ce565b92915050565b5f60208284031215611a0d57611a0c6119bd565b5b5f611a1a848285016119e4565b91505092915050565b611a2c816119c5565b82525050565b5f602082019050611a455f830184611a23565b92915050565b5f81519050919050565b5f82825260208201905092915050565b5f819050602082019050919050565b5f73ffffffffffffffffffffffffffffffffffffffff82169050919050565b5f611a9d82611a74565b9050919050565b611aad81611a93565b82525050565b5f60ff82169050919050565b611ac881611ab3565b82525050565b5f61ffff82169050919050565b611ae481611ace565b82525050565b611af3816119c5565b82525050565b60c082015f820151611b0d5f850182611aa4565b506020820151611b206020850182611abf565b506040820151611b336040850182611adb565b506060820151611b466060850182611aea565b506080820151611b596080850182611aea565b5060a0820151611b6c60a0850182611aea565b50505050565b5f611b7d8383611af9565b60c08301905092915050565b5f602082019050919050565b5f611b9f82611a4b565b611ba98185611a55565b9350611bb483611a65565b805f5b83811015611be4578151611bcb8882611b72565b9750611bd683611b89565b925050600181019050611bb7565b5085935050505092915050565b5f6040820190508181035f830152611c098185611b95565b9050611c186020830184611a23565b9392505050565b604082015f820151611c335f850182611aea565b506020820151611c466020850182611aea565b50505050565b5f604082019050611c5f5f830184611c1f565b92915050565b5f5ffd5b5f5ffd5b5f601f19601f8301169050919050565b7f4e487b71000000000000000000000000000000000000000000000000000000005f52604160045260245ffd5b611cb382611c6d565b810181811067ffffffffffffffff82111715611cd257611cd1611c7d565b5b80604052505050565b5f611ce46119b4565b9050611cf08282611caa565b919050565b5f67ffffffffffffffff821115611d0f57611d0e611c7d565b5b611d1882611c6d565b9050602081019050919050565b828183375f83830152505050565b5f611d45611d4084611cf5565b611cdb565b905082815260208101848484011115611d6157611d60611c69565b5b611d6c848285611d25565b509392505050565b5f82601f830112611d8857611d87611c65565b5b8135611d98848260208601611d33565b91505092915050565b5f60208284031215611db657611db56119bd565b5b5f82013567ffffffffffffffff811115611dd357611dd26119c1565b5b611ddf84828501611d74565b91505092915050565b611df181611a93565b82525050565b5f602082019050611e0a5f830184611de8565b92915050565b5f819050919050565b5f611e33611e2e611e2984611a74565b611e10565b611a74565b9050919050565b5f611e4482611e19565b9050919050565b5f611e5582611e3a565b9050919050565b611e6581611e4b565b82525050565b5f602082019050611e7e5f830184611e5c565b92915050565b5f604082019050611e975f830185611a23565b611ea46020830184611a23565b9392505050565b611eb481611a93565b8114611ebe575f5ffd5b50565b5f81359050611ecf81611eab565b92915050565b5f60208284031215611eea57611ee96119bd565b5b5f611ef784828501611ec1565b91505092915050565b5f81519050919050565b5f82825260208201905092915050565b5f819050602082019050919050565b61010082015f820151611f3e5f850182611aa4565b506020820151611f516020850182611abf565b506040820151611f646040850182611adb565b506060820151611f776060850182611aea565b506080820151611f8a6080850182611aea565b5060a0820151611f9d60a0850182611aea565b5060c0820151611fb060c0850182611aea565b5060e0820151611fc360e0850182611aea565b50505050565b5f611fd48383611f29565b6101008301905092915050565b5f602082019050919050565b5f611ff782611f00565b6120018185611f0a565b935061200c83611f1a565b805f5b8381101561203c5781516120238882611fc9565b975061202e83611fe1565b92505060018101905061200f565b5085935050505092915050565b5f6060820190508181035f8301526120618186611fed565b90506120706020830185611a23565b61207d6040830184611a23565b949350505050565b5f5ffd5b5f5ffd5b5f67ffffffffffffffff8211156120a7576120a6611c7d565b5b602082029050602081019050919050565b5f5ffd5b6120c581611ace565b81146120cf575f5ffd5b50565b5f813590506120e0816120bc565b92915050565b5f604082840312156120fb576120fa612085565b5b6121056040611cdb565b90505f61211484828501611ec1565b5f830152506020612127848285016120d2565b60208301525092915050565b5f6121456121408461208d565b611cdb565b90508083825260208201905060408402830185811115612168576121676120b8565b5b835b81811015612191578061217d88826120e6565b84526020840193505060408101905061216a565b5050509392505050565b5f82601f8301126121af576121ae611c65565b5b81356121bf848260208601612133565b91505092915050565b5f606082840312156121dd576121dc612085565b5b6121e76060611cdb565b90505f82013567ffffffffffffffff81111561220657612205612089565b5b61221284828501611d74565b5f83015250602082013567ffffffffffffffff81111561223557612234612089565b5b61224184828501611d74565b602083015250604082013567ffffffffffffffff81111561226557612264612089565b5b6122718482850161219b565b60408301525092915050565b5f5f60408385031215612293576122926119bd565b5b5f83013567ffffffffffffffff8111156122b0576122af6119c1565b5b6122bc858286016121c8565b92505060206122cd85828601611ec1565b9150509250929050565b8281835e5f83830152505050565b5f6122f76122f284611cf5565b611cdb565b90508281526020810184848401111561231357612312611c69565b5b61231e8482856122d7565b509392505050565b5f82601f83011261233a57612339611c65565b5b815161234a8482602086016122e5565b91505092915050565b5f8151905061236181611eab565b92915050565b5f81519050612375816120bc565b92915050565b5f604082840312156123905761238f612085565b5b61239a6040611cdb565b90505f6123a984828501612353565b5f8301525060206123bc84828501612367565b60208301525092915050565b5f6123da6123d58461208d565b611cdb565b905080838252602082019050604084028301858111156123fd576123fc6120b8565b5b835b818110156124265780612412888261237b565b8452602084019350506040810190506123ff565b5050509392505050565b5f82601f83011261244457612443611c65565b5b81516124548482602086016123c8565b91505092915050565b5f6060828403121561247257612471612085565b5b61247c6060611cdb565b90505f82015167ffffffffffffffff81111561249b5761249a612089565b5b6124a784828501612326565b5f83015250602082015167ffffffffffffffff8111156124ca576124c9612089565b5b6124d684828501612326565b602083015250604082015167ffffffffffffffff8111156124fa576124f9612089565b5b61250684828501612430565b60408301525092915050565b5f5f60408385031215612528576125276119bd565b5b5f83015167ffffffffffffffff811115612545576125446119c1565b5b6125518582860161245d565b925050602061256285828601612353565b9150509250929050565b5f60208284031215612581576125806119bd565b5b5f82015167ffffffffffffffff81111561259e5761259d6119c1565b5b6125aa8482850161245d565b91505092915050565b5f81519050919050565b5f82825260208201905092915050565b5f6125d7826125b3565b6125e181856125bd565b93506125f18185602086016122d7565b6125fa81611c6d565b840191505092915050565b5f6020820190508181035f83015261261d81846125cd565b905092915050565b5f6020828403121561263a576126396119bd565b5b5f61264784828501612353565b91505092915050565b7f43616c6c6572206973206e6f7420746865206f776e65720000000000000000005f82015250565b5f6126846017836125bd565b915061268f82612650565b602082019050919050565b5f6020820190508181035f8301526126b181612678565b9050919050565b5f815190506126c6816119ce565b92915050565b5f602082840312156126e1576126e06119bd565b5b5f6126ee848285016126b8565b91505092915050565b61270081611ab3565b811461270a575f5ffd5b50565b5f8151905061271b816126f7565b92915050565b5f60208284031215612736576127356119bd565b5b5f6127438482850161270d565b91505092915050565b7f4e487b71000000000000000000000000000000000000000000000000000000005f52603260045260245ffd5b7f4e487b71000000000000000000000000000000000000000000000000000000005f52601260045260245ffd5b7f4469726563746f72792063616e6e6f74206265207a65726f20616464726573735f82015250565b5f6127da6020836125bd565b91506127e5826127a6565b602082019050919050565b5f6020820190508181035f830152612807816127ce565b9050919050565b7f4469726563746f7279206d757374206265206120636f6e7472616374000000005f82015250565b5f612842601c836125bd565b915061284d8261280e565b602082019050919050565b5f6020820190508181035f83015261286f81612836565b9050919050565b7f4469726563746f7279206164647265737320646f6573206e6f7420696d706c655f8201527f6d656e74206f776e657228290000000000000000000000000000000000000000602082015250565b5f6128d0602c836125bd565b91506128db82612876565b604082019050919050565b5f6020820190508181035f8301526128fd816128c4565b9050919050565b7f4e487b71000000000000000000000000000000000000000000000000000000005f52601160045260245ffd5b5f61293b826119c5565b9150612946836119c5565b92508261295657612955612779565b5b828204905092915050565b5f61296b82611ab3565b915061297683611ab3565b9250828203905060ff81111561298f5761298e612904565b5b92915050565b7f6d756c446976206f766572666c6f7700000000000000000000000000000000005f82015250565b5f6129c9600f836125bd565b91506129d482612995565b602082019050919050565b5f6020820190508181035f8301526129f6816129bd565b9050919050565b7f706f773130206f766572666c6f770000000000000000000000000000000000005f82015250565b5f612a31600e836125bd565b9150612a3c826129fd565b602082019050919050565b5f6020820190508181035f830152612a5e81612a25565b905091905056fea26469706673582212200aaf7c5667c5a23b3472733f2adaf6df64900f0a1780b08f31fcd1952c49a50664736f6c634300081e0033",
					"opcodes": "PUSH1 0x80 PUSH1 0x40 MSTORE CALLVALUE DUP1 ISZERO PUSH2 0xF JUMPI PUSH0 PUSH0 REVERT JUMPDEST POP PUSH1 0x40 MLOAD PUSH2 0x2E98 CODESIZE SUB DUP1 PUSH2 0x2E98 DUP4 CODECOPY DUP2 DUP2 ADD PUSH1 0x40 MSTORE DUP2 ADD SWAP1 PUSH2 0x31 SWAP2 SWAP1 PUSH2 0x257 JUMP JUMPDEST DUP1 PUSH2 0x41 DUP2 PUSH2 0x48 PUSH1 0x20 SHL PUSH1 0x20 SHR JUMP JUMPDEST POP POP PUSH2 0x3F0 JUMP JUMPDEST PUSH0 PUSH20 0xFFFFFFFFFFFFFFFFFFFFFFFFFFFFFFFFFFFFFFFF AND DUP2 PUSH20 0xFFFFFFFFFFFFFFFFFFFFFFFFFFFFFFFFFFFFFFFF AND SUB PUSH2 0xB6 JUMPI PUSH1 0x40 MLOAD PUSH32 0x8C379A000000000000000000000000000000000000000000000000000000000 DUP2 MSTORE PUSH1 0x4 ADD PUSH2 0xAD SWAP1 PUSH2 0x2DC JUMP JUMPDEST PUSH1 0x40 MLOAD DUP1 SWAP2 SUB SWAP1 REVERT JUMPDEST PUSH0 DUP2 PUSH20 0xFFFFFFFFFFFFFFFFFFFFFFFFFFFFFFFFFFFFFFFF AND EXTCODESIZE GT PUSH2 0x10F JUMPI PUSH1 0x40 MLOAD PUSH32 0x8C379A000000000000000000000000000000000000000000000000000000000 DUP2 MSTORE PUSH1 0x4 ADD PUSH2 0x106 SWAP1 PUSH2 0x344 JUMP JUMPDEST PUSH1 0x40 MLOAD DUP1 SWAP2 SUB SWAP1 REVERT JUMPDEST DUP1 PUSH20 0xFFFFFFFFFFFFFFFFFFFFFFFFFFFFFFFFFFFFFFFF AND PUSH4 0x8DA5CB5B PUSH1 0x40 MLOAD DUP2 PUSH4 0xFFFFFFFF AND PUSH1 0xE0 SHL DUP2 MSTORE PUSH1 0x4 ADD PUSH1 0x20 PUSH1 0x40 MLOAD DUP1 DUP4 SUB DUP2 DUP7 GAS STATICCALL SWAP3 POP POP POP DUP1 ISZERO PUSH2 0x177 JUMPI POP PUSH1 0x40 MLOAD RETURNDATASIZE PUSH1 0x1F NOT PUSH1 0x1F DUP3 ADD AND DUP3 ADD DUP1 PUSH1 0x40 MSTORE POP DUP2 ADD SWAP1 PUSH2 0x174 SWAP2 SWAP1 PUSH2 0x257 JUMP JUMPDEST PUSH1 0x1 JUMPDEST PUSH2 0x1B6 JUMPI PUSH1 0x40 MLOAD PUSH32 0x8C379A000000000000000000000000000000000000000000000000000000000 DUP2 MSTORE PUSH1 0x4 ADD PUSH2 0x1AD SWAP1 PUSH2 0x3D2 JUMP JUMPDEST PUSH1 0x40 MLOAD DUP1 SWAP2 SUB SWAP1 REVERT JUMPDEST DUP2 PUSH0 PUSH0 PUSH2 0x100 EXP DUP2 SLOAD DUP2 PUSH20 0xFFFFFFFFFFFFFFFFFFFFFFFFFFFFFFFFFFFFFFFF MUL NOT AND SWAP1 DUP4 PUSH20 0xFFFFFFFFFFFFFFFFFFFFFFFFFFFFFFFFFFFFFFFF AND MUL OR SWAP1 SSTORE POP POP POP JUMP JUMPDEST PUSH0 PUSH0 REVERT JUMPDEST PUSH0 PUSH20 0xFFFFFFFFFFFFFFFFFFFFFFFFFFFFFFFFFFFFFFFF DUP3 AND SWAP1 POP SWAP2 SWAP1 POP JUMP JUMPDEST PUSH0 PUSH2 0x226 DUP3 PUSH2 0x1FD JUMP JUMPDEST SWAP1 POP SWAP2 SWAP1 POP JUMP JUMPDEST PUSH2 0x236 DUP2 PUSH2 0x21C JUMP JUMPDEST DUP2 EQ PUSH2 0x240 JUMPI PUSH0 PUSH0 REVERT JUMPDEST POP JUMP JUMPDEST PUSH0 DUP2 MLOAD SWAP1 POP PUSH2 0x251 DUP2 PUSH2 0x22D JUMP JUMPDEST SWAP3 SWAP2 POP POP JUMP JUMPDEST PUSH0 PUSH1 0x20 DUP3 DUP5 SUB SLT ISZERO PUSH2 0x26C JUMPI PUSH2 0x26B PUSH2 0x1F9 JUMP JUMPDEST JUMPDEST PUSH0 PUSH2 0x279 DUP5 DUP3 DUP6 ADD PUSH2 0x243 JUMP JUMPDEST SWAP2 POP POP SWAP3 SWAP2 POP POP JUMP JUMPDEST PUSH0 DUP3 DUP3 MSTORE PUSH1 0x20 DUP3 ADD SWAP1 POP SWAP3 SWAP2 POP POP JUMP JUMPDEST PUSH32 0x4469726563746F72792063616E6E6F74206265207A65726F2061646472657373 PUSH0 DUP3 ADD MSTORE POP JUMP JUMPDEST PUSH0 PUSH2 0x2C6 PUSH1 0x20 DUP4 PUSH2 0x282 JUMP JUMPDEST SWAP2 POP PUSH2 0x2D1 DUP3 PUSH2 0x292 JUMP JUMPDEST PUSH1 0x20 DUP3 ADD SWAP1 POP SWAP2 SWAP1 POP JUMP JUMPDEST PUSH0 PUSH1 0x20 DUP3 ADD SWAP1 POP DUP2 DUP2 SUB PUSH0 DUP4 ADD MSTORE PUSH2 0x2F3 DUP2 PUSH2 0x2BA JUMP JUMPDEST SWAP1 POP SWAP2 SWAP1 POP JUMP JUMPDEST PUSH32 0x4469726563746F7279206D757374206265206120636F6E747261637400000000 PUSH0 DUP3 ADD MSTORE POP JUMP JUMPDEST PUSH0 PUSH2 0x32E PUSH1 0x1C DUP4 PUSH2 0x282 JUMP JUMPDEST SWAP2 POP PUSH2 0x339 DUP3 PUSH2 0x2FA JUMP JUMPDEST PUSH1 0x20 DUP3 ADD SWAP1 POP SWAP2 SWAP1 POP JUMP JUMPDEST PUSH0 PUSH1 0x20 DUP3 ADD SWAP1 POP DUP2 DUP2 SUB PUSH0 DUP4 ADD MSTORE PUSH2 0x35B DUP2 PUSH2 0x322 JUMP JUMPDEST SWAP1 POP SWAP2 SWAP1 POP JUMP JUMPDEST PUSH32 0x4469726563746F7279206164647265737320646F6573206E6F7420696D706C65 PUSH0 DUP3 ADD MSTORE PUSH32 0x6D656E74206F776E657228290000000000000000000000000000000000000000 PUSH1 0x20 DUP3 ADD MSTORE POP JUMP JUMPDEST PUSH0 PUSH2 0x3BC PUSH1 0x2C DUP4 PUSH2 0x282 JUMP JUMPDEST SWAP2 POP PUSH2 0x3C7 DUP3 PUSH2 0x362 JUMP JUMPDEST PUSH1 0x40 DUP3 ADD SWAP1 POP SWAP2 SWAP1 POP JUMP JUMPDEST PUSH0 PUSH1 0x20 DUP3 ADD SWAP1 POP DUP2 DUP2 SUB PUSH0 DUP4 ADD MSTORE PUSH2 0x3E9 DUP2 PUSH2 0x3B0 JUMP JUMPDEST SWAP1 POP SWAP2 SWAP1 POP JUMP JUMPDEST PUSH2 0x2A9B DUP1 PUSH2 0x3FD PUSH0 CODECOPY PUSH0 RETURN INVALID PUSH1 0x80 PUSH1 0x40 MSTORE CALLVALUE DUP1 ISZERO PUSH2 0xF JUMPI PUSH0 PUSH0 REVERT JUMPDEST POP PUSH1 0x4 CALLDATASIZE LT PUSH2 0xA7 JUMPI PUSH0 CALLDATALOAD PUSH1 0xE0 SHR DUP1 PUSH4 0x79DE9E82 GT PUSH2 0x6F JUMPI DUP1 PUSH4 0x79DE9E82 EQ PUSH2 0x18A JUMPI DUP1 PUSH4 0x812EFC8E EQ PUSH2 0x1BB JUMPI DUP1 PUSH4 0x8DA5CB5B EQ PUSH2 0x1EB JUMPI DUP1 PUSH4 0xBA4C7BE1 EQ PUSH2 0x209 JUMPI DUP1 PUSH4 0xCD8D334F EQ PUSH2 0x225 JUMPI DUP1 PUSH4 0xEE0D96C5 EQ PUSH2 0x257 JUMPI PUSH2 0xA7 JUMP JUMPDEST DUP1 PUSH4 0x705A3E8 EQ PUSH2 0xAB JUMPI DUP1 PUSH4 0x13290A89 EQ PUSH2 0xDB JUMPI DUP1 PUSH4 0x179B8F97 EQ PUSH2 0x10C JUMPI DUP1 PUSH4 0x27262618 EQ PUSH2 0x13C JUMPI DUP1 PUSH4 0x658A847A EQ PUSH2 0x16C JUMPI JUMPDEST PUSH0 PUSH0 REVERT JUMPDEST PUSH2 0xC5 PUSH1 0x4 DUP1 CALLDATASIZE SUB DUP2 ADD SWAP1 PUSH2 0xC0 SWAP2 SWAP1 PUSH2 0x19F8 JUMP JUMPDEST PUSH2 0x288 JUMP JUMPDEST PUSH1 0x40 MLOAD PUSH2 0xD2 SWAP2 SWAP1 PUSH2 0x1A32 JUMP JUMPDEST PUSH1 0x40 MLOAD DUP1 SWAP2 SUB SWAP1 RETURN JUMPDEST PUSH2 0xF5 PUSH1 0x4 DUP1 CALLDATASIZE SUB DUP2 ADD SWAP1 PUSH2 0xF0 SWAP2 SWAP1 PUSH2 0x19F8 JUMP JUMPDEST PUSH2 0x332 JUMP JUMPDEST PUSH1 0x40 MLOAD PUSH2 0x103 SWAP3 SWAP2 SWAP1 PUSH2 0x1BF1 JUMP JUMPDEST PUSH1 0x40 MLOAD DUP1 SWAP2 SUB SWAP1 RETURN JUMPDEST PUSH2 0x126 PUSH1 0x4 DUP1 CALLDATASIZE SUB DUP2 ADD SWAP1 PUSH2 0x121 SWAP2 SWAP1 PUSH2 0x19F8 JUMP JUMPDEST PUSH2 0x3D2 JUMP JUMPDEST PUSH1 0x40 MLOAD PUSH2 0x133 SWAP2 SWAP1 PUSH2 0x1C4C JUMP JUMPDEST PUSH1 0x40 MLOAD DUP1 SWAP2 SUB SWAP1 RETURN JUMPDEST PUSH2 0x156 PUSH1 0x4 DUP1 CALLDATASIZE SUB DUP2 ADD SWAP1 PUSH2 0x151 SWAP2 SWAP1 PUSH2 0x1DA1 JUMP JUMPDEST PUSH2 0x470 JUMP JUMPDEST PUSH1 0x40 MLOAD PUSH2 0x163 SWAP2 SWAP1 PUSH2 0x1DF7 JUMP JUMPDEST PUSH1 0x40 MLOAD DUP1 SWAP2 SUB SWAP1 RETURN JUMPDEST PUSH2 0x174 PUSH2 0x510 JUMP JUMPDEST PUSH1 0x40 MLOAD PUSH2 0x181 SWAP2 SWAP1 PUSH2 0x1E6B JUMP JUMPDEST PUSH1 0x40 MLOAD DUP1 SWAP2 SUB SWAP1 RETURN JUMPDEST PUSH2 0x1A4 PUSH1 0x4 DUP1 CALLDATASIZE SUB DUP2 ADD SWAP1 PUSH2 0x19F SWAP2 SWAP1 PUSH2 0x19F8 JUMP JUMPDEST PUSH2 0x534 JUMP JUMPDEST PUSH1 0x40 MLOAD PUSH2 0x1B2 SWAP3 SWAP2 SWAP1 PUSH2 0x1E84 JUMP JUMPDEST PUSH1 0x40 MLOAD DUP1 SWAP2 SUB SWAP1 RETURN JUMPDEST PUSH2 0x1D5 PUSH1 0x4 DUP1 CALLDATASIZE SUB DUP2 ADD SWAP1 PUSH2 0x1D0 SWAP2 SWAP1 PUSH2 0x19F8 JUMP JUMPDEST PUSH2 0x5DD JUMP JUMPDEST PUSH1 0x40 MLOAD PUSH2 0x1E2 SWAP2 SWAP1 PUSH2 0x1A32 JUMP JUMPDEST PUSH1 0x40 MLOAD DUP1 SWAP2 SUB SWAP1 RETURN JUMPDEST PUSH2 0x1F3 PUSH2 0x67A JUMP JUMPDEST PUSH1 0x40 MLOAD PUSH2 0x200 SWAP2 SWAP1 PUSH2 0x1DF7 JUMP JUMPDEST PUSH1 0x40 MLOAD DUP1 SWAP2 SUB SWAP1 RETURN JUMPDEST PUSH2 0x223 PUSH1 0x4 DUP1 CALLDATASIZE SUB DUP2 ADD SWAP1 PUSH2 0x21E SWAP2 SWAP1 PUSH2 0x1ED5 JUMP JUMPDEST PUSH2 0x70D JUMP JUMPDEST STOP JUMPDEST PUSH2 0x23F PUSH1 0x4 DUP1 CALLDATASIZE SUB DUP2 ADD SWAP1 PUSH2 0x23A SWAP2 SWAP1 PUSH2 0x19F8 JUMP JUMPDEST PUSH2 0x813 JUMP JUMPDEST PUSH1 0x40 MLOAD PUSH2 0x24E SWAP4 SWAP3 SWAP2 SWAP1 PUSH2 0x2049 JUMP JUMPDEST PUSH1 0x40 MLOAD DUP1 SWAP2 SUB SWAP1 RETURN JUMPDEST PUSH2 0x271 PUSH1 0x4 DUP1 CALLDATASIZE SUB DUP2 ADD SWAP1 PUSH2 0x26C SWAP2 SWAP1 PUSH2 0x227D JUMP JUMPDEST PUSH2 0x8B8 JUMP JUMPDEST PUSH1 0x40 MLOAD PUSH2 0x27F SWAP3 SWAP2 SWAP1 PUSH2 0x1BF1 JUMP JUMPDEST PUSH1 0x40 MLOAD DUP1 SWAP2 SUB SWAP1 RETURN JUMPDEST PUSH0 PUSH0 PUSH0 PUSH2 0x293 PUSH2 0x8D0 JUMP JUMPDEST PUSH20 0xFFFFFFFFFFFFFFFFFFFFFFFFFFFFFFFFFFFFFFFF AND PUSH4 0x3088F069 DUP6 PUSH1 0x40 MLOAD DUP3 PUSH4 0xFFFFFFFF AND PUSH1 0xE0 SHL DUP2 MSTORE PUSH1 0x4 ADD PUSH2 0x2CB SWAP2 SWAP1 PUSH2 0x1A32 JUMP JUMPDEST PUSH0 PUSH1 0x40 MLOAD DUP1 DUP4 SUB DUP2 DUP7 GAS STATICCALL ISZERO DUP1 ISZERO PUSH2 0x2E5 JUMPI RETURNDATASIZE PUSH0 PUSH0 RETURNDATACOPY RETURNDATASIZE PUSH0 REVERT JUMPDEST POP POP POP POP PUSH1 0x40 MLOAD RETURNDATASIZE PUSH0 DUP3 RETURNDATACOPY RETURNDATASIZE PUSH1 0x1F NOT PUSH1 0x1F DUP3 ADD AND DUP3 ADD DUP1 PUSH1 0x40 MSTORE POP DUP2 ADD SWAP1 PUSH2 0x30D SWAP2 SWAP1 PUSH2 0x2512 JUMP JUMPDEST SWAP2 POP SWAP2 POP PUSH0 PUSH2 0x31D DUP6 DUP5 DUP5 PUSH2 0x914 JUMP JUMPDEST SWAP1 POP PUSH2 0x328 DUP2 PUSH2 0xAE0 JUMP JUMPDEST SWAP4 POP POP POP POP SWAP2 SWAP1 POP JUMP JUMPDEST PUSH1 0x60 PUSH0 PUSH0 PUSH0 PUSH2 0x33F PUSH2 0x8D0 JUMP JUMPDEST PUSH20 0xFFFFFFFFFFFFFFFFFFFFFFFFFFFFFFFFFFFFFFFF AND PUSH4 0x3088F069 DUP7 PUSH1 0x40 MLOAD DUP3 PUSH4 0xFFFFFFFF AND PUSH1 0xE0 SHL DUP2 MSTORE PUSH1 0x4 ADD PUSH2 0x377 SWAP2 SWAP1 PUSH2 0x1A32 JUMP JUMPDEST PUSH0 PUSH1 0x40 MLOAD DUP1 DUP4 SUB DUP2 DUP7 GAS STATICCALL ISZERO DUP1 ISZERO PUSH2 0x391 JUMPI RETURNDATASIZE PUSH0 PUSH0 RETURNDATACOPY RETURNDATASIZE PUSH0 REVERT JUMPDEST POP POP POP POP PUSH1 0x40 MLOAD RETURNDATASIZE PUSH0 DUP3 RETURNDATACOPY RETURNDATASIZE PUSH1 0x1F NOT PUSH1 0x1F DUP3 ADD AND DUP3 ADD DUP1 PUSH1 0x40 MSTORE POP DUP2 ADD SWAP1 PUSH2 0x3B9 SWAP2 SWAP1 PUSH2 0x2512 JUMP JUMPDEST SWAP2 POP SWAP2 POP PUSH2 0x3C7 DUP3 DUP3 PUSH2 0xB93 JUMP JUMPDEST SWAP4 POP SWAP4 POP POP POP SWAP2 POP SWAP2 JUMP JUMPDEST PUSH2 0x3DA PUSH2 0x18F5 JUMP JUMPDEST PUSH0 PUSH2 0x3E3 PUSH2 0x8D0 JUMP JUMPDEST PUSH20 0xFFFFFFFFFFFFFFFFFFFFFFFFFFFFFFFFFFFFFFFF AND PUSH4 0xECB0271C DUP5 PUSH1 0x40 MLOAD DUP3 PUSH4 0xFFFFFFFF AND PUSH1 0xE0 SHL DUP2 MSTORE PUSH1 0x4 ADD PUSH2 0x41B SWAP2 SWAP1 PUSH2 0x1A32 JUMP JUMPDEST PUSH0 PUSH1 0x40 MLOAD DUP1 DUP4 SUB DUP2 DUP7 GAS STATICCALL ISZERO DUP1 ISZERO PUSH2 0x435 JUMPI RETURNDATASIZE PUSH0 PUSH0 RETURNDATACOPY RETURNDATASIZE PUSH0 REVERT JUMPDEST POP POP POP POP PUSH1 0x40 MLOAD RETURNDATASIZE PUSH0 DUP3 RETURNDATACOPY RETURNDATASIZE PUSH1 0x1F NOT PUSH1 0x1F DUP3 ADD AND DUP3 ADD DUP1 PUSH1 0x40 MSTORE POP DUP2 ADD SWAP1 PUSH2 0x45D SWAP2 SWAP1 PUSH2 0x256C JUMP JUMPDEST SWAP1 POP PUSH2 0x468 DUP2 PUSH2 0xECD JUMP JUMPDEST SWAP2 POP POP SWAP2 SWAP1 POP JUMP JUMPDEST PUSH0 PUSH0 PUSH0 SWAP1 SLOAD SWAP1 PUSH2 0x100 EXP SWAP1 DIV PUSH20 0xFFFFFFFFFFFFFFFFFFFFFFFFFFFFFFFFFFFFFFFF AND PUSH20 0xFFFFFFFFFFFFFFFFFFFFFFFFFFFFFFFFFFFFFFFF AND PUSH4 0x27262618 DUP4 PUSH1 0x40 MLOAD DUP3 PUSH4 0xFFFFFFFF AND PUSH1 0xE0 SHL DUP2 MSTORE PUSH1 0x4 ADD PUSH2 0x4CA SWAP2 SWAP1 PUSH2 0x2605 JUMP JUMPDEST PUSH1 0x20 PUSH1 0x40 MLOAD DUP1 DUP4 SUB DUP2 DUP7 GAS STATICCALL ISZERO DUP1 ISZERO PUSH2 0x4E5 JUMPI RETURNDATASIZE PUSH0 PUSH0 RETURNDATACOPY RETURNDATASIZE PUSH0 REVERT JUMPDEST POP POP POP POP PUSH1 0x40 MLOAD RETURNDATASIZE PUSH1 0x1F NOT PUSH1 0x1F DUP3 ADD AND DUP3 ADD DUP1 PUSH1 0x40 MSTORE POP DUP2 ADD SWAP1 PUSH2 0x509 SWAP2 SWAP1 PUSH2 0x2625 JUMP JUMPDEST SWAP1 POP SWAP2 SWAP1 POP JUMP JUMPDEST PUSH0 PUSH0 SWAP1 SLOAD SWAP1 PUSH2 0x100 EXP SWAP1 DIV PUSH20 0xFFFFFFFFFFFFFFFFFFFFFFFFFFFFFFFFFFFFFFFF AND DUP2 JUMP JUMPDEST PUSH0 PUSH0 PUSH0 PUSH0 PUSH2 0x540 PUSH2 0x8D0 JUMP JUMPDEST PUSH20 0xFFFFFFFFFFFFFFFFFFFFFFFFFFFFFFFFFFFFFFFF AND PUSH4 0x3088F069 DUP7 PUSH1 0x40 MLOAD DUP3 PUSH4 0xFFFFFFFF AND PUSH1 0xE0 SHL DUP2 MSTORE PUSH1 0x4 ADD PUSH2 0x578 SWAP2 SWAP1 PUSH2 0x1A32 JUMP JUMPDEST PUSH0 PUSH1 0x40 MLOAD DUP1 DUP4 SUB DUP2 DUP7 GAS STATICCALL ISZERO DUP1 ISZERO PUSH2 0x592 JUMPI RETURNDATASIZE PUSH0 PUSH0 RETURNDATACOPY RETURNDATASIZE PUSH0 REVERT JUMPDEST POP POP POP POP PUSH1 0x40 MLOAD RETURNDATASIZE PUSH0 DUP3 RETURNDATACOPY RETURNDATASIZE PUSH1 0x1F NOT PUSH1 0x1F DUP3 ADD AND DUP3 ADD DUP1 PUSH1 0x40 MSTORE POP DUP2 ADD SWAP1 PUSH2 0x5BA SWAP2 SWAP1 PUSH2 0x2512 JUMP JUMPDEST SWAP2 POP SWAP2 POP PUSH2 0x5C9 DUP6 DUP4 DUP4 PUSH2 0x914 JUMP JUMPDEST SWAP4 POP PUSH2 0x5D4 DUP5 PUSH2 0xAE0 JUMP JUMPDEST SWAP3 POP POP POP SWAP2 POP SWAP2 JUMP JUMPDEST PUSH0 PUSH0 PUSH0 PUSH2 0x5E8 PUSH2 0x8D0 JUMP JUMPDEST PUSH20 0xFFFFFFFFFFFFFFFFFFFFFFFFFFFFFFFFFFFFFFFF AND PUSH4 0x3088F069 DUP6 PUSH1 0x40 MLOAD DUP3 PUSH4 0xFFFFFFFF AND PUSH1 0xE0 SHL DUP2 MSTORE PUSH1 0x4 ADD PUSH2 0x620 SWAP2 SWAP1 PUSH2 0x1A32 JUMP JUMPDEST PUSH0 PUSH1 0x40 MLOAD DUP1 DUP4 SUB DUP2 DUP7 GAS STATICCALL ISZERO DUP1 ISZERO PUSH2 0x63A JUMPI RETURNDATASIZE PUSH0 PUSH0 RETURNDATACOPY RETURNDATASIZE PUSH0 REVERT JUMPDEST POP POP POP POP PUSH1 0x40 MLOAD RETURNDATASIZE PUSH0 DUP3 RETURNDATACOPY RETURNDATASIZE PUSH1 0x1F NOT PUSH1 0x1F DUP3 ADD AND DUP3 ADD DUP1 PUSH1 0x40 MSTORE POP DUP2 ADD SWAP1 PUSH2 0x662 SWAP2 SWAP1 PUSH2 0x2512 JUMP JUMPDEST SWAP2 POP SWAP2 POP PUSH2 0x671 DUP5 DUP4 DUP4 PUSH2 0x914 JUMP JUMPDEST SWAP3 POP POP POP SWAP2 SWAP1 POP JUMP JUMPDEST PUSH0 PUSH0 PUSH0 SWAP1 SLOAD SWAP1 PUSH2 0x100 EXP SWAP1 DIV PUSH20 0xFFFFFFFFFFFFFFFFFFFFFFFFFFFFFFFFFFFFFFFF AND PUSH20 0xFFFFFFFFFFFFFFFFFFFFFFFFFFFFFFFFFFFFFFFF AND PUSH4 0x8DA5CB5B PUSH1 0x40 MLOAD DUP2 PUSH4 0xFFFFFFFF AND PUSH1 0xE0 SHL DUP2 MSTORE PUSH1 0x4 ADD PUSH1 0x20 PUSH1 0x40 MLOAD DUP1 DUP4 SUB DUP2 DUP7 GAS STATICCALL ISZERO DUP1 ISZERO PUSH2 0x6E4 JUMPI RETURNDATASIZE PUSH0 PUSH0 RETURNDATACOPY RETURNDATASIZE PUSH0 REVERT JUMPDEST POP POP POP POP PUSH1 0x40 MLOAD RETURNDATASIZE PUSH1 0x1F NOT PUSH1 0x1F DUP3 ADD AND DUP3 ADD DUP1 PUSH1 0x40 MSTORE POP DUP2 ADD SWAP1 PUSH2 0x708 SWAP2 SWAP1 PUSH2 0x2625 JUMP JUMPDEST SWAP1 POP SWAP1 JUMP JUMPDEST PUSH0 PUSH0 SWAP1 SLOAD SWAP1 PUSH2 0x100 EXP SWAP1 DIV PUSH20 0xFFFFFFFFFFFFFFFFFFFFFFFFFFFFFFFFFFFFFFFF AND PUSH20 0xFFFFFFFFFFFFFFFFFFFFFFFFFFFFFFFFFFFFFFFF AND PUSH4 0x8DA5CB5B PUSH1 0x40 MLOAD DUP2 PUSH4 0xFFFFFFFF AND PUSH1 0xE0 SHL DUP2 MSTORE PUSH1 0x4 ADD PUSH1 0x20 PUSH1 0x40 MLOAD DUP1 DUP4 SUB DUP2 DUP7 GAS STATICCALL ISZERO DUP1 ISZERO PUSH2 0x776 JUMPI RETURNDATASIZE PUSH0 PUSH0 RETURNDATACOPY RETURNDATASIZE PUSH0 REVERT JUMPDEST POP POP POP POP PUSH1 0x40 MLOAD RETURNDATASIZE PUSH1 0x1F NOT PUSH1 0x1F DUP3 ADD AND DUP3 ADD DUP1 PUSH1 0x40 MSTORE POP DUP2 ADD SWAP1 PUSH2 0x79A SWAP2 SWAP1 PUSH2 0x2625 JUMP JUMPDEST PUSH20 0xFFFFFFFFFFFFFFFFFFFFFFFFFFFFFFFFFFFFFFFF AND CALLER PUSH20 0xFFFFFFFFFFFFFFFFFFFFFFFFFFFFFFFFFFFFFFFF AND EQ PUSH2 0x807 JUMPI PUSH1 0x40 MLOAD PUSH32 0x8C379A000000000000000000000000000000000000000000000000000000000 DUP2 MSTORE PUSH1 0x4 ADD PUSH2 0x7FE SWAP1 PUSH2 0x269A JUMP JUMPDEST PUSH1 0x40 MLOAD DUP1 SWAP2 SUB SWAP1 REVERT JUMPDEST PUSH2 0x810 DUP2 PUSH2 0xF41 JUMP JUMPDEST POP JUMP JUMPDEST PUSH1 0x60 PUSH0 PUSH0 PUSH0 PUSH0 PUSH2 0x821 PUSH2 0x8D0 JUMP JUMPDEST PUSH20 0xFFFFFFFFFFFFFFFFFFFFFFFFFFFFFFFFFFFFFFFF AND PUSH4 0x3088F069 DUP8 PUSH1 0x40 MLOAD DUP3 PUSH4 0xFFFFFFFF AND PUSH1 0xE0 SHL DUP2 MSTORE PUSH1 0x4 ADD PUSH2 0x859 SWAP2 SWAP1 PUSH2 0x1A32 JUMP JUMPDEST PUSH0 PUSH1 0x40 MLOAD DUP1 DUP4 SUB DUP2 DUP7 GAS STATICCALL ISZERO DUP1 ISZERO PUSH2 0x873 JUMPI RETURNDATASIZE PUSH0 PUSH0 RETURNDATACOPY RETURNDATASIZE PUSH0 REVERT JUMPDEST POP POP POP POP PUSH1 0x40 MLOAD RETURNDATASIZE PUSH0 DUP3 RETURNDATACOPY RETURNDATASIZE PUSH1 0x1F NOT PUSH1 0x1F DUP3 ADD AND DUP3 ADD DUP1 PUSH1 0x40 MSTORE POP DUP2 ADD SWAP1 PUSH2 0x89B SWAP2 SWAP1 PUSH2 0x2512 JUMP JUMPDEST SWAP2 POP SWAP2 POP PUSH2 0x8A9 DUP3 DUP3 PUSH2 0x10F2 JUMP JUMPDEST SWAP5 POP SWAP5 POP SWAP5 POP POP POP SWAP2 SWAP4 SWAP1 SWAP3 POP JUMP JUMPDEST PUSH1 0x60 PUSH0 PUSH2 0x8C5 DUP5 DUP5 PUSH2 0xB93 JUMP JUMPDEST SWAP2 POP SWAP2 POP SWAP3 POP SWAP3 SWAP1 POP JUMP JUMPDEST PUSH0 PUSH2 0x90F PUSH1 0x40 MLOAD DUP1 PUSH1 0x40 ADD PUSH1 0x40 MSTORE DUP1 PUSH1 0xB DUP2 MSTORE PUSH1 0x20 ADD PUSH32 0x6574662D666163746F7279000000000000000000000000000000000000000000 DUP2 MSTORE POP PUSH2 0x470 JUMP JUMPDEST SWAP1 POP SWAP1 JUMP JUMPDEST PUSH0 PUSH0 PUSH2 0x91E PUSH2 0x8D0 JUMP JUMPDEST PUSH20 0xFFFFFFFFFFFFFFFFFFFFFFFFFFFFFFFFFFFFFFFF AND PUSH4 0xF2018A1F DUP7 PUSH1 0x40 MLOAD DUP3 PUSH4 0xFFFFFFFF AND PUSH1 0xE0 SHL DUP2 MSTORE PUSH1 0x4 ADD PUSH2 0x956 SWAP2 SWAP1 PUSH2 0x1A32 JUMP JUMPDEST PUSH1 0x20 PUSH1 0x40 MLOAD DUP1 DUP4 SUB DUP2 DUP7 GAS STATICCALL ISZERO DUP1 ISZERO PUSH2 0x971 JUMPI RETURNDATASIZE PUSH0 PUSH0 RETURNDATACOPY RETURNDATASIZE PUSH0 REVERT JUMPDEST POP POP POP POP PUSH1 0x40 MLOAD RETURNDATASIZE PUSH1 0x1F NOT PUSH1 0x1F DUP3 ADD AND DUP3 ADD DUP1 PUSH1 0x40 MSTORE POP DUP2 ADD SWAP1 PUSH2 0x995 SWAP2 SWAP1 PUSH2 0x2625 JUMP JUMPDEST SWAP1 POP PUSH0 DUP2 PUSH20 0xFFFFFFFFFFFFFFFFFFFFFFFFFFFFFFFFFFFFFFFF AND PUSH4 0x18160DDD PUSH1 0x40 MLOAD DUP2 PUSH4 0xFFFFFFFF AND PUSH1 0xE0 SHL DUP2 MSTORE PUSH1 0x4 ADD PUSH1 0x20 PUSH1 0x40 MLOAD DUP1 DUP4 SUB DUP2 DUP7 GAS STATICCALL ISZERO DUP1 ISZERO PUSH2 0x9E1 JUMPI RETURNDATASIZE PUSH0 PUSH0 RETURNDATACOPY RETURNDATASIZE PUSH0 REVERT JUMPDEST POP POP POP POP PUSH1 0x40 MLOAD RETURNDATASIZE PUSH1 0x1F NOT PUSH1 0x1F DUP3 ADD AND DUP3 ADD DUP1 PUSH1 0x40 MSTORE POP DUP2 ADD SWAP1 PUSH2 0xA05 SWAP2 SWAP1 PUSH2 0x26CC JUMP JUMPDEST SWAP1 POP PUSH0 DUP3 PUSH20 0xFFFFFFFFFFFFFFFFFFFFFFFFFFFFFFFFFFFFFFFF AND PUSH4 0x313CE567 PUSH1 0x40 MLOAD DUP2 PUSH4 0xFFFFFFFF AND PUSH1 0xE0 SHL DUP2 MSTORE PUSH1 0x4 ADD PUSH1 0x20 PUSH1 0x40 MLOAD DUP1 DUP4 SUB DUP2 DUP7 GAS STATICCALL ISZERO DUP1 ISZERO PUSH2 0xA51 JUMPI RETURNDATASIZE PUSH0 PUSH0 RETURNDATACOPY RETURNDATASIZE PUSH0 REVERT JUMPDEST POP POP POP POP PUSH1 0x40 MLOAD RETURNDATASIZE PUSH1 0x1F NOT PUSH1 0x1F DUP3 ADD AND DUP3 ADD DUP1 PUSH1 0x40 MSTORE POP DUP2 ADD SWAP1 PUSH2 0xA75 SWAP2 SWAP1 PUSH2 0x2721 JUMP JUMPDEST SWAP1 POP PUSH0 DUP3 SUB PUSH2 0xA91 JUMPI PUSH2 0xA87 DUP7 PUSH2 0x1306 JUMP JUMPDEST SWAP4 POP POP POP POP PUSH2 0xAD9 JUMP JUMPDEST PUSH0 PUSH2 0xA9C DUP4 DUP4 PUSH2 0x143B JUMP JUMPDEST SWAP1 POP PUSH0 DUP2 SUB PUSH2 0xAB1 JUMPI PUSH0 SWAP5 POP POP POP POP POP PUSH2 0xAD9 JUMP JUMPDEST PUSH0 PUSH2 0xABC DUP9 DUP9 PUSH2 0x14A6 JUMP JUMPDEST SWAP1 POP PUSH2 0xAD1 DUP2 PUSH8 0xDE0B6B3A7640000 DUP5 PUSH2 0x16A0 JUMP JUMPDEST SWAP6 POP POP POP POP POP POP JUMPDEST SWAP4 SWAP3 POP POP POP JUMP JUMPDEST PUSH0 PUSH0 DUP3 SUB PUSH2 0xAF0 JUMPI PUSH0 SWAP1 POP PUSH2 0xB8E JUMP JUMPDEST PUSH0 PUSH2 0xAF9 PUSH2 0x17AA JUMP JUMPDEST PUSH20 0xFFFFFFFFFFFFFFFFFFFFFFFFFFFFFFFFFFFFFFFF AND PUSH4 0x6855E939 PUSH1 0x40 MLOAD DUP2 PUSH4 0xFFFFFFFF AND PUSH1 0xE0 SHL DUP2 MSTORE PUSH1 0x4 ADD PUSH1 0x20 PUSH1 0x40 MLOAD DUP1 DUP4 SUB DUP2 DUP7 GAS STATICCALL ISZERO DUP1 ISZERO PUSH2 0xB41 JUMPI RETURNDATASIZE PUSH0 PUSH0 RETURNDATACOPY RETURNDATASIZE PUSH0 REVERT JUMPDEST POP POP POP POP PUSH1 0x40 MLOAD RETURNDATASIZE PUSH1 0x1F NOT PUSH1 0x1F DUP3 ADD AND DUP3 ADD DUP1 PUSH1 0x40 MSTORE POP DUP2 ADD SWAP1 PUSH2 0xB65 SWAP2 SWAP1 PUSH2 0x26CC JUMP JUMPDEST SWAP1 POP PUSH0 DUP2 SUB PUSH2 0xB77 JUMPI PUSH0 SWAP2 POP POP PUSH2 0xB8E JUMP JUMPDEST PUSH2 0xB8A DUP4 DUP3 PUSH8 0xDE0B6B3A7640000 PUSH2 0x16A0 JUMP JUMPDEST SWAP2 POP POP JUMPDEST SWAP2 SWAP1 POP JUMP JUMPDEST PUSH1 0x60 PUSH0 PUSH0 DUP5 PUSH1 0x40 ADD MLOAD MLOAD SWAP1 POP DUP1 PUSH8 0xFFFFFFFFFFFFFFFF DUP2 GT ISZERO PUSH2 0xBB9 JUMPI PUSH2 0xBB8 PUSH2 0x1C7D JUMP JUMPDEST JUMPDEST PUSH1 0x40 MLOAD SWAP1 DUP1 DUP3 MSTORE DUP1 PUSH1 0x20 MUL PUSH1 0x20 ADD DUP3 ADD PUSH1 0x40 MSTORE DUP1 ISZERO PUSH2 0xBF2 JUMPI DUP2 PUSH1 0x20 ADD JUMPDEST PUSH2 0xBDF PUSH2 0x190D JUMP JUMPDEST DUP2 MSTORE PUSH1 0x20 ADD SWAP1 PUSH1 0x1 SWAP1 SUB SWAP1 DUP2 PUSH2 0xBD7 JUMPI SWAP1 POP JUMPDEST POP SWAP3 POP PUSH0 PUSH2 0xBFE PUSH2 0x17AA JUMP JUMPDEST SWAP1 POP PUSH0 PUSH0 SWAP1 POP JUMPDEST DUP3 DUP2 LT ISZERO PUSH2 0xE41 JUMPI PUSH0 DUP8 PUSH1 0x40 ADD MLOAD DUP3 DUP2 MLOAD DUP2 LT PUSH2 0xC25 JUMPI PUSH2 0xC24 PUSH2 0x274C JUMP JUMPDEST JUMPDEST PUSH1 0x20 MUL PUSH1 0x20 ADD ADD MLOAD PUSH0 ADD MLOAD SWAP1 POP PUSH0 DUP2 PUSH20 0xFFFFFFFFFFFFFFFFFFFFFFFFFFFFFFFFFFFFFFFF AND PUSH4 0x313CE567 PUSH1 0x40 MLOAD DUP2 PUSH4 0xFFFFFFFF AND PUSH1 0xE0 SHL DUP2 MSTORE PUSH1 0x4 ADD PUSH1 0x20 PUSH1 0x40 MLOAD DUP1 DUP4 SUB DUP2 DUP7 GAS STATICCALL ISZERO DUP1 ISZERO PUSH2 0xC7C JUMPI RETURNDATASIZE PUSH0 PUSH0 RETURNDATACOPY RETURNDATASIZE PUSH0 REVERT JUMPDEST POP POP POP POP PUSH1 0x40 MLOAD RETURNDATASIZE PUSH1 0x1F NOT PUSH1 0x1F DUP3 ADD AND DUP3 ADD DUP1 PUSH1 0x40 MSTORE POP DUP2 ADD SWAP1 PUSH2 0xCA0 SWAP2 SWAP1 PUSH2 0x2721 JUMP JUMPDEST SWAP1 POP PUSH0 DUP3 PUSH20 0xFFFFFFFFFFFFFFFFFFFFFFFFFFFFFFFFFFFFFFFF AND PUSH4 0x70A08231 DUP11 PUSH1 0x40 MLOAD DUP3 PUSH4 0xFFFFFFFF AND PUSH1 0xE0 SHL DUP2 MSTORE PUSH1 0x4 ADD PUSH2 0xCDC SWAP2 SWAP1 PUSH2 0x1DF7 JUMP JUMPDEST PUSH1 0x20 PUSH1 0x40 MLOAD DUP1 DUP4 SUB DUP2 DUP7 GAS STATICCALL ISZERO DUP1 ISZERO PUSH2 0xCF7 JUMPI RETURNDATASIZE PUSH0 PUSH0 RETURNDATACOPY RETURNDATASIZE PUSH0 REVERT JUMPDEST POP POP POP POP PUSH1 0x40 MLOAD RETURNDATASIZE PUSH1 0x1F NOT PUSH1 0x1F DUP3 ADD AND DUP3 ADD DUP1 PUSH1 0x40 MSTORE POP DUP2 ADD SWAP1 PUSH2 0xD1B SWAP2 SWAP1 PUSH2 0x26CC JUMP JUMPDEST SWAP1 POP PUSH0 DUP6 PUSH20 0xFFFFFFFFFFFFFFFFFFFFFFFFFFFFFFFFFFFFFFFF AND PUSH4 0x7B49B49D DUP6 PUSH1 0x40 MLOAD DUP3 PUSH4 0xFFFFFFFF AND PUSH1 0xE0 SHL DUP2 MSTORE PUSH1 0x4 ADD PUSH2 0xD57 SWAP2 SWAP1 PUSH2 0x1DF7 JUMP JUMPDEST PUSH1 0x20 PUSH1 0x40 MLOAD DUP1 DUP4 SUB DUP2 DUP7 GAS STATICCALL ISZERO DUP1 ISZERO PUSH2 0xD72 JUMPI RETURNDATASIZE PUSH0 PUSH0 RETURNDATACOPY RETURNDATASIZE PUSH0 REVERT JUMPDEST POP POP POP POP PUSH1 0x40 MLOAD RETURNDATASIZE PUSH1 0x1F NOT PUSH1 0x1F DUP3 ADD AND DUP3 ADD DUP1 PUSH1 0x40 MSTORE POP DUP2 ADD SWAP1 PUSH2 0xD96 SWAP2 SWAP1 PUSH2 0x26CC JUMP JUMPDEST SWAP1 POP PUSH0 PUSH0 DUP4 EQ DUP1 PUSH2 0xDA6 JUMPI POP PUSH0 DUP3 EQ JUMPDEST PUSH2 0xDC0 JUMPI PUSH2 0xDBB DUP4 DUP4 DUP7 PUSH1 0xFF AND PUSH1 0xA EXP PUSH2 0x16A0 JUMP JUMPDEST PUSH2 0xDC2 JUMP JUMPDEST PUSH0 JUMPDEST SWAP1 POP PUSH1 0x40 MLOAD DUP1 PUSH1 0xC0 ADD PUSH1 0x40 MSTORE DUP1 DUP7 PUSH20 0xFFFFFFFFFFFFFFFFFFFFFFFFFFFFFFFFFFFFFFFF AND DUP2 MSTORE PUSH1 0x20 ADD DUP6 PUSH1 0xFF AND DUP2 MSTORE PUSH1 0x20 ADD PUSH0 PUSH2 0xFFFF AND DUP2 MSTORE PUSH1 0x20 ADD DUP5 DUP2 MSTORE PUSH1 0x20 ADD DUP4 DUP2 MSTORE PUSH1 0x20 ADD DUP3 DUP2 MSTORE POP DUP11 DUP8 DUP2 MLOAD DUP2 LT PUSH2 0xE21 JUMPI PUSH2 0xE20 PUSH2 0x274C JUMP JUMPDEST JUMPDEST PUSH1 0x20 MUL PUSH1 0x20 ADD ADD DUP2 SWAP1 MSTORE POP DUP1 DUP10 ADD SWAP9 POP POP POP POP POP POP DUP1 PUSH1 0x1 ADD SWAP1 POP PUSH2 0xC05 JUMP JUMPDEST POP PUSH0 DUP4 GT ISZERO PUSH2 0xEC4 JUMPI PUSH0 PUSH0 SWAP1 POP JUMPDEST DUP3 DUP2 LT ISZERO PUSH2 0xEC2 JUMPI DUP4 PUSH2 0x2710 DUP7 DUP4 DUP2 MLOAD DUP2 LT PUSH2 0xE6E JUMPI PUSH2 0xE6D PUSH2 0x274C JUMP JUMPDEST JUMPDEST PUSH1 0x20 MUL PUSH1 0x20 ADD ADD MLOAD PUSH1 0xA0 ADD MLOAD MUL DUP2 PUSH2 0xE89 JUMPI PUSH2 0xE88 PUSH2 0x2779 JUMP JUMPDEST JUMPDEST DIV DUP6 DUP3 DUP2 MLOAD DUP2 LT PUSH2 0xE9D JUMPI PUSH2 0xE9C PUSH2 0x274C JUMP JUMPDEST JUMPDEST PUSH1 0x20 MUL PUSH1 0x20 ADD ADD MLOAD PUSH1 0x40 ADD SWAP1 PUSH2 0xFFFF AND SWAP1 DUP2 PUSH2 0xFFFF AND DUP2 MSTORE POP POP DUP1 PUSH1 0x1 ADD SWAP1 POP PUSH2 0xE4F JUMP JUMPDEST POP JUMPDEST POP POP SWAP3 POP SWAP3 SWAP1 POP JUMP JUMPDEST PUSH2 0xED5 PUSH2 0x18F5 JUMP JUMPDEST PUSH0 PUSH2 0xEDE PUSH2 0x17AA JUMP JUMPDEST SWAP1 POP PUSH2 0xF05 DUP4 DUP3 PUSH20 0xFFFFFFFFFFFFFFFFFFFFFFFFFFFFFFFFFFFFFFFF AND PUSH4 0x57B6C133 PUSH2 0x17EE JUMP JUMPDEST DUP3 PUSH0 ADD DUP2 DUP2 MSTORE POP POP PUSH2 0xF32 DUP4 DUP3 PUSH20 0xFFFFFFFFFFFFFFFFFFFFFFFFFFFFFFFFFFFFFFFF AND PUSH4 0x69A2E17D PUSH2 0x17EE JUMP JUMPDEST DUP3 PUSH1 0x20 ADD DUP2 DUP2 MSTORE POP POP POP SWAP2 SWAP1 POP JUMP JUMPDEST PUSH0 PUSH20 0xFFFFFFFFFFFFFFFFFFFFFFFFFFFFFFFFFFFFFFFF AND DUP2 PUSH20 0xFFFFFFFFFFFFFFFFFFFFFFFFFFFFFFFFFFFFFFFF AND SUB PUSH2 0xFAF JUMPI PUSH1 0x40 MLOAD PUSH32 0x8C379A000000000000000000000000000000000000000000000000000000000 DUP2 MSTORE PUSH1 0x4 ADD PUSH2 0xFA6 SWAP1 PUSH2 0x27F0 JUMP JUMPDEST PUSH1 0x40 MLOAD DUP1 SWAP2 SUB SWAP1 REVERT JUMPDEST PUSH0 DUP2 PUSH20 0xFFFFFFFFFFFFFFFFFFFFFFFFFFFFFFFFFFFFFFFF AND EXTCODESIZE GT PUSH2 0x1008 JUMPI PUSH1 0x40 MLOAD PUSH32 0x8C379A000000000000000000000000000000000000000000000000000000000 DUP2 MSTORE PUSH1 0x4 ADD PUSH2 0xFFF SWAP1 PUSH2 0x2858 JUMP JUMPDEST PUSH1 0x40 MLOAD DUP1 SWAP2 SUB SWAP1 REVERT JUMPDEST DUP1 PUSH20 0xFFFFFFFFFFFFFFFFFFFFFFFFFFFFFFFFFFFFFFFF AND PUSH4 0x8DA5CB5B PUSH1 0x40 MLOAD DUP2 PUSH4 0xFFFFFFFF AND PUSH1 0xE0 SHL DUP2 MSTORE PUSH1 0x4 ADD PUSH1 0x20 PUSH1 0x40 MLOAD DUP1 DUP4 SUB DUP2 DUP7 GAS STATICCALL SWAP3 POP POP POP DUP1 ISZERO PUSH2 0x1070 JUMPI POP PUSH1 0x40 MLOAD RETURNDATASIZE PUSH1 0x1F NOT PUSH1 0x1F DUP3 ADD AND DUP3 ADD DUP1 PUSH1 0x40 MSTORE POP DUP2 ADD SWAP1 PUSH2 0x106D SWAP2 SWAP1 PUSH2 0x2625 JUMP JUMPDEST PUSH1 0x1 JUMPDEST PUSH2 0x10AF JUMPI PUSH1 0x40 MLOAD PUSH32 0x8C379A000000000000000000000000000000000000000000000000000000000 DUP2 MSTORE PUSH1 0x4 ADD PUSH2 0x10A6 SWAP1 PUSH2 0x28E6 JUMP JUMPDEST PUSH1 0x40 MLOAD DUP1 SWAP2 SUB SWAP1 REVERT JUMPDEST DUP2 PUSH0 PUSH0 PUSH2 0x100 EXP DUP2 SLOAD DUP2 PUSH20 0xFFFFFFFFFFFFFFFFFFFFFFFFFFFFFFFFFFFFFFFF MUL NOT AND SWAP1 DUP4 PUSH20 0xFFFFFFFFFFFFFFFFFFFFFFFFFFFFFFFFFFFFFFFF AND MUL OR SWAP1 SSTORE POP POP POP JUMP JUMPDEST PUSH1 0x60 PUSH0 PUSH0 PUSH0 PUSH0 PUSH2 0x1102 DUP8 DUP8 PUSH2 0xB93 JUMP JUMPDEST SWAP2 POP SWAP2 POP DUP1 SWAP4 POP PUSH2 0x1112 DUP2 PUSH2 0xAE0 JUMP JUMPDEST SWAP3 POP PUSH0 DUP3 MLOAD SWAP1 POP DUP1 PUSH8 0xFFFFFFFFFFFFFFFF DUP2 GT ISZERO PUSH2 0x1133 JUMPI PUSH2 0x1132 PUSH2 0x1C7D JUMP JUMPDEST JUMPDEST PUSH1 0x40 MLOAD SWAP1 DUP1 DUP3 MSTORE DUP1 PUSH1 0x20 MUL PUSH1 0x20 ADD DUP3 ADD PUSH1 0x40 MSTORE DUP1 ISZERO PUSH2 0x116C JUMPI DUP2 PUSH1 0x20 ADD JUMPDEST PUSH2 0x1159 PUSH2 0x195A JUMP JUMPDEST DUP2 MSTORE PUSH1 0x20 ADD SWAP1 PUSH1 0x1 SWAP1 SUB SWAP1 DUP2 PUSH2 0x1151 JUMPI SWAP1 POP JUMPDEST POP SWAP6 POP PUSH0 PUSH0 SWAP1 POP JUMPDEST DUP2 DUP2 LT ISZERO PUSH2 0x12FB JUMPI PUSH1 0x40 MLOAD DUP1 PUSH2 0x100 ADD PUSH1 0x40 MSTORE DUP1 DUP6 DUP4 DUP2 MLOAD DUP2 LT PUSH2 0x119B JUMPI PUSH2 0x119A PUSH2 0x274C JUMP JUMPDEST JUMPDEST PUSH1 0x20 MUL PUSH1 0x20 ADD ADD MLOAD PUSH0 ADD MLOAD PUSH20 0xFFFFFFFFFFFFFFFFFFFFFFFFFFFFFFFFFFFFFFFF AND DUP2 MSTORE PUSH1 0x20 ADD DUP6 DUP4 DUP2 MLOAD DUP2 LT PUSH2 0x11D4 JUMPI PUSH2 0x11D3 PUSH2 0x274C JUMP JUMPDEST JUMPDEST PUSH1 0x20 MUL PUSH1 0x20 ADD ADD MLOAD PUSH1 0x20 ADD MLOAD PUSH1 0xFF AND DUP2 MSTORE PUSH1 0x20 ADD DUP6 DUP4 DUP2 MLOAD DUP2 LT PUSH2 0x11FB JUMPI PUSH2 0x11FA PUSH2 0x274C JUMP JUMPDEST JUMPDEST PUSH1 0x20 MUL PUSH1 0x20 ADD ADD MLOAD PUSH1 0x40 ADD MLOAD PUSH2 0xFFFF AND DUP2 MSTORE PUSH1 0x20 ADD DUP6 DUP4 DUP2 MLOAD DUP2 LT PUSH2 0x1223 JUMPI PUSH2 0x1222 PUSH2 0x274C JUMP JUMPDEST JUMPDEST PUSH1 0x20 MUL PUSH1 0x20 ADD ADD MLOAD PUSH1 0x60 ADD MLOAD DUP2 MSTORE PUSH1 0x20 ADD DUP6 DUP4 DUP2 MLOAD DUP2 LT PUSH2 0x1247 JUMPI PUSH2 0x1246 PUSH2 0x274C JUMP JUMPDEST JUMPDEST PUSH1 0x20 MUL PUSH1 0x20 ADD ADD MLOAD PUSH1 0x80 ADD MLOAD DUP2 MSTORE PUSH1 0x20 ADD PUSH2 0x127F DUP7 DUP5 DUP2 MLOAD DUP2 LT PUSH2 0x126E JUMPI PUSH2 0x126D PUSH2 0x274C JUMP JUMPDEST JUMPDEST PUSH1 0x20 MUL PUSH1 0x20 ADD ADD MLOAD PUSH1 0x80 ADD MLOAD PUSH2 0xAE0 JUMP JUMPDEST DUP2 MSTORE PUSH1 0x20 ADD DUP6 DUP4 DUP2 MLOAD DUP2 LT PUSH2 0x1297 JUMPI PUSH2 0x1296 PUSH2 0x274C JUMP JUMPDEST JUMPDEST PUSH1 0x20 MUL PUSH1 0x20 ADD ADD MLOAD PUSH1 0xA0 ADD MLOAD DUP2 MSTORE PUSH1 0x20 ADD PUSH2 0x12CF DUP7 DUP5 DUP2 MLOAD DUP2 LT PUSH2 0x12BE JUMPI PUSH2 0x12BD PUSH2 0x274C JUMP JUMPDEST JUMPDEST PUSH1 0x20 MUL PUSH1 0x20 ADD ADD MLOAD PUSH1 0xA0 ADD MLOAD PUSH2 0xAE0 JUMP JUMPDEST DUP2 MSTORE POP DUP8 DUP3 DUP2 MLOAD DUP2 LT PUSH2 0x12E5 JUMPI PUSH2 0x12E4 PUSH2 0x274C JUMP JUMPDEST JUMPDEST PUSH1 0x20 MUL PUSH1 0x20 ADD ADD DUP2 SWAP1 MSTORE POP DUP1 PUSH1 0x1 ADD SWAP1 POP PUSH2 0x1174 JUMP JUMPDEST POP POP POP POP SWAP3 POP SWAP3 POP SWAP3 JUMP JUMPDEST PUSH0 PUSH0 PUSH0 PUSH2 0x1311 PUSH2 0x17AA JUMP JUMPDEST SWAP1 POP PUSH0 PUSH0 SWAP1 POP JUMPDEST DUP5 PUSH1 0x40 ADD MLOAD MLOAD DUP2 LT ISZERO PUSH2 0x1423 JUMPI PUSH0 DUP6 PUSH1 0x40 ADD MLOAD DUP3 DUP2 MLOAD DUP2 LT PUSH2 0x133D JUMPI PUSH2 0x133C PUSH2 0x274C JUMP JUMPDEST JUMPDEST PUSH1 0x20 MUL PUSH1 0x20 ADD ADD MLOAD PUSH0 ADD MLOAD SWAP1 POP PUSH0 DUP7 PUSH1 0x40 ADD MLOAD DUP4 DUP2 MLOAD DUP2 LT PUSH2 0x1362 JUMPI PUSH2 0x1361 PUSH2 0x274C JUMP JUMPDEST JUMPDEST PUSH1 0x20 MUL PUSH1 0x20 ADD ADD MLOAD PUSH1 0x20 ADD MLOAD SWAP1 POP PUSH0 DUP5 PUSH20 0xFFFFFFFFFFFFFFFFFFFFFFFFFFFFFFFFFFFFFFFF AND PUSH4 0x7B49B49D DUP5 PUSH1 0x40 MLOAD DUP3 PUSH4 0xFFFFFFFF AND PUSH1 0xE0 SHL DUP2 MSTORE PUSH1 0x4 ADD PUSH2 0x13AA SWAP2 SWAP1 PUSH2 0x1DF7 JUMP JUMPDEST PUSH1 0x20 PUSH1 0x40 MLOAD DUP1 DUP4 SUB DUP2 DUP7 GAS STATICCALL ISZERO DUP1 ISZERO PUSH2 0x13C5 JUMPI RETURNDATASIZE PUSH0 PUSH0 RETURNDATACOPY RETURNDATASIZE PUSH0 REVERT JUMPDEST POP POP POP POP PUSH1 0x40 MLOAD RETURNDATASIZE PUSH1 0x1F NOT PUSH1 0x1F DUP3 ADD AND DUP3 ADD DUP1 PUSH1 0x40 MSTORE POP DUP2 ADD SWAP1 PUSH2 0x13E9 SWAP2 SWAP1 PUSH2 0x26CC JUMP JUMPDEST SWAP1 POP PUSH0 DUP2 EQ DUP1 PUSH2 0x13FC JUMPI POP PUSH0 DUP3 PUSH2 0xFFFF AND EQ JUMPDEST ISZERO PUSH2 0x1409 JUMPI POP POP POP PUSH2 0x1418 JUMP JUMPDEST DUP1 DUP3 PUSH2 0xFFFF AND MUL DUP7 ADD SWAP6 POP POP POP POP JUMPDEST DUP1 PUSH1 0x1 ADD SWAP1 POP PUSH2 0x1318 JUMP JUMPDEST POP PUSH2 0x2710 DUP3 PUSH2 0x1432 SWAP2 SWAP1 PUSH2 0x2931 JUMP JUMPDEST SWAP3 POP POP POP SWAP2 SWAP1 POP JUMP JUMPDEST PUSH0 PUSH1 0x12 DUP3 PUSH1 0xFF AND SUB PUSH2 0x144F JUMPI DUP3 SWAP1 POP PUSH2 0x14A0 JUMP JUMPDEST PUSH1 0x12 DUP3 PUSH1 0xFF AND LT ISZERO PUSH2 0x147D JUMPI PUSH2 0x1476 DUP4 PUSH8 0xDE0B6B3A7640000 PUSH2 0x1471 DUP6 PUSH2 0x189F JUMP JUMPDEST PUSH2 0x16A0 JUMP JUMPDEST SWAP1 POP PUSH2 0x14A0 JUMP JUMPDEST PUSH2 0x1492 PUSH1 0x12 DUP4 PUSH2 0x148D SWAP2 SWAP1 PUSH2 0x2961 JUMP JUMPDEST PUSH2 0x189F JUMP JUMPDEST DUP4 PUSH2 0x149D SWAP2 SWAP1 PUSH2 0x2931 JUMP JUMPDEST SWAP1 POP JUMPDEST SWAP3 SWAP2 POP POP JUMP JUMPDEST PUSH0 PUSH0 PUSH2 0x14B0 PUSH2 0x17AA JUMP JUMPDEST SWAP1 POP PUSH0 PUSH0 SWAP1 POP JUMPDEST DUP5 PUSH1 0x40 ADD MLOAD MLOAD DUP2 LT ISZERO PUSH2 0x1698 JUMPI PUSH0 DUP6 PUSH1 0x40 ADD MLOAD DUP3 DUP2 MLOAD DUP2 LT PUSH2 0x14DC JUMPI PUSH2 0x14DB PUSH2 0x274C JUMP JUMPDEST JUMPDEST PUSH1 0x20 MUL PUSH1 0x20 ADD ADD MLOAD PUSH0 ADD MLOAD SWAP1 POP PUSH0 DUP2 PUSH20 0xFFFFFFFFFFFFFFFFFFFFFFFFFFFFFFFFFFFFFFFF AND PUSH4 0x70A08231 DUP8 PUSH1 0x40 MLOAD DUP3 PUSH4 0xFFFFFFFF AND PUSH1 0xE0 SHL DUP2 MSTORE PUSH1 0x4 ADD PUSH2 0x1523 SWAP2 SWAP1 PUSH2 0x1DF7 JUMP JUMPDEST PUSH1 0x20 PUSH1 0x40 MLOAD DUP1 DUP4 SUB DUP2 DUP7 GAS STATICCALL ISZERO DUP1 ISZERO PUSH2 0x153E JUMPI RETURNDATASIZE PUSH0 PUSH0 RETURNDATACOPY RETURNDATASIZE PUSH0 REVERT JUMPDEST POP POP POP POP PUSH1 0x40 MLOAD RETURNDATASIZE PUSH1 0x1F NOT PUSH1 0x1F DUP3 ADD AND DUP3 ADD DUP1 PUSH1 0x40 MSTORE POP DUP2 ADD SWAP1 PUSH2 0x1562 SWAP2 SWAP1 PUSH2 0x26CC JUMP JUMPDEST SWAP1 POP PUSH0 DUP2 SUB PUSH2 0x1572 JUMPI POP POP PUSH2 0x168D JUMP JUMPDEST PUSH0 DUP5 PUSH20 0xFFFFFFFFFFFFFFFFFFFFFFFFFFFFFFFFFFFFFFFF AND PUSH4 0x7B49B49D DUP5 PUSH1 0x40 MLOAD DUP3 PUSH4 0xFFFFFFFF AND PUSH1 0xE0 SHL DUP2 MSTORE PUSH1 0x4 ADD PUSH2 0x15AC SWAP2 SWAP1 PUSH2 0x1DF7 JUMP JUMPDEST PUSH1 0x20 PUSH1 0x40 MLOAD DUP1 DUP4 SUB DUP2 DUP7 GAS STATICCALL ISZERO DUP1 ISZERO PUSH2 0x15C7 JUMPI RETURNDATASIZE PUSH0 PUSH0 RETURNDATACOPY RETURNDATASIZE PUSH0 REVERT JUMPDEST POP POP POP POP PUSH1 0x40 MLOAD RETURNDATASIZE PUSH1 0x1F NOT PUSH1 0x1F DUP3 ADD AND DUP3 ADD DUP1 PUSH1 0x40 MSTORE POP DUP2 ADD SWAP1 PUSH2 0x15EB SWAP2 SWAP1 PUSH2 0x26CC JUMP JUMPDEST SWAP1 POP PUSH0 DUP2 SUB PUSH2 0x15FC JUMPI POP POP POP PUSH2 0x168D JUMP JUMPDEST PUSH0 DUP4 PUSH20 0xFFFFFFFFFFFFFFFFFFFFFFFFFFFFFFFFFFFFFFFF AND PUSH4 0x313CE567 PUSH1 0x40 MLOAD DUP2 PUSH4 0xFFFFFFFF AND PUSH1 0xE0 SHL DUP2 MSTORE PUSH1 0x4 ADD PUSH1 0x20 PUSH1 0x40 MLOAD DUP1 DUP4 SUB DUP2 DUP7 GAS STATICCALL ISZERO DUP1 ISZERO PUSH2 0x1646 JUMPI RETURNDATASIZE PUSH0 PUSH0 RETURNDATACOPY RETURNDATASIZE PUSH0 REVERT JUMPDEST POP POP POP POP PUSH1 0x40 MLOAD RETURNDATASIZE PUSH1 0x1F NOT PUSH1 0x1F DUP3 ADD AND DUP3 ADD DUP1 PUSH1 0x40 MSTORE POP DUP2 ADD SWAP1 PUSH2 0x166A SWAP2 SWAP1 PUSH2 0x2721 JUMP JUMPDEST SWAP1 POP PUSH0 PUSH2 0x1676 DUP3 PUSH2 0x189F JUMP JUMPDEST SWAP1 POP PUSH2 0x1683 DUP5 DUP5 DUP4 PUSH2 0x16A0 JUMP JUMPDEST DUP9 ADD SWAP8 POP POP POP POP POP POP JUMPDEST DUP1 PUSH1 0x1 ADD SWAP1 POP PUSH2 0x14B7 JUMP JUMPDEST POP POP SWAP3 SWAP2 POP POP JUMP JUMPDEST PUSH0 PUSH0 PUSH0 PUSH0 NOT DUP6 DUP8 MULMOD DUP6 DUP8 MUL SWAP3 POP DUP3 DUP2 LT DUP4 DUP3 SUB SUB SWAP2 POP POP PUSH0 DUP2 SUB PUSH2 0x16D8 JUMPI DUP4 DUP3 DUP2 PUSH2 0x16CE JUMPI PUSH2 0x16CD PUSH2 0x2779 JUMP JUMPDEST JUMPDEST DIV SWAP3 POP POP POP PUSH2 0x17A3 JUMP JUMPDEST DUP1 DUP5 GT PUSH2 0x171A JUMPI PUSH1 0x40 MLOAD PUSH32 0x8C379A000000000000000000000000000000000000000000000000000000000 DUP2 MSTORE PUSH1 0x4 ADD PUSH2 0x1711 SWAP1 PUSH2 0x29DF JUMP JUMPDEST PUSH1 0x40 MLOAD DUP1 SWAP2 SUB SWAP1 REVERT JUMPDEST PUSH0 DUP5 DUP7 DUP9 MULMOD SWAP1 POP DUP3 DUP2 GT DUP3 SUB SWAP2 POP DUP1 DUP4 SUB SWAP3 POP PUSH0 PUSH1 0x1 DUP7 NOT ADD DUP7 AND SWAP1 POP DUP1 DUP7 DIV SWAP6 POP DUP1 DUP5 DIV SWAP4 POP PUSH1 0x1 DUP2 DUP3 PUSH0 SUB DIV ADD SWAP1 POP DUP1 DUP4 MUL DUP5 OR SWAP4 POP PUSH0 PUSH1 0x2 DUP8 PUSH1 0x3 MUL XOR SWAP1 POP DUP1 DUP8 MUL PUSH1 0x2 SUB DUP2 MUL SWAP1 POP DUP1 DUP8 MUL PUSH1 0x2 SUB DUP2 MUL SWAP1 POP DUP1 DUP8 MUL PUSH1 0x2 SUB DUP2 MUL SWAP1 POP DUP1 DUP8 MUL PUSH1 0x2 SUB DUP2 MUL SWAP1 POP DUP1 DUP8 MUL PUSH1 0x2 SUB DUP2 MUL SWAP1 POP DUP1 DUP8 MUL PUSH1 0x2 SUB DUP2 MUL SWAP1 POP DUP1 DUP6 MUL SWAP6 POP POP POP POP POP POP JUMPDEST SWAP4 SWAP3 POP POP POP JUMP JUMPDEST PUSH0 PUSH2 0x17E9 PUSH1 0x40 MLOAD DUP1 PUSH1 0x40 ADD PUSH1 0x40 MSTORE DUP1 PUSH1 0xE DUP2 MSTORE PUSH1 0x20 ADD PUSH32 0x756E69737761702D6F7261636C65000000000000000000000000000000000000 DUP2 MSTORE POP PUSH2 0x470 JUMP JUMPDEST SWAP1 POP SWAP1 JUMP JUMPDEST PUSH0 PUSH0 PUSH0 SWAP1 POP JUMPDEST DUP5 PUSH1 0x40 ADD MLOAD MLOAD DUP2 LT ISZERO PUSH2 0x1897 JUMPI PUSH0 DUP6 PUSH1 0x40 ADD MLOAD DUP3 DUP2 MLOAD DUP2 LT PUSH2 0x1819 JUMPI PUSH2 0x1818 PUSH2 0x274C JUMP JUMPDEST JUMPDEST PUSH1 0x20 MUL PUSH1 0x20 ADD ADD MLOAD PUSH0 ADD MLOAD SWAP1 POP DUP5 DUP5 DUP3 PUSH1 0x40 MLOAD DUP3 PUSH4 0xFFFFFFFF AND PUSH1 0xE0 SHL DUP2 MSTORE PUSH1 0x4 ADD PUSH2 0x1845 SWAP2 SWAP1 PUSH2 0x1DF7 JUMP JUMPDEST PUSH1 0x20 PUSH1 0x40 MLOAD DUP1 DUP4 SUB DUP2 DUP7 GAS STATICCALL SWAP3 POP POP POP DUP1 ISZERO PUSH2 0x187F JUMPI POP PUSH1 0x40 MLOAD RETURNDATASIZE PUSH1 0x1F NOT PUSH1 0x1F DUP3 ADD AND DUP3 ADD DUP1 PUSH1 0x40 MSTORE POP DUP2 ADD SWAP1 PUSH2 0x187C SWAP2 SWAP1 PUSH2 0x26CC JUMP JUMPDEST PUSH1 0x1 JUMPDEST ISZERO PUSH2 0x188B JUMPI DUP1 DUP5 ADD SWAP4 POP POP JUMPDEST POP DUP1 PUSH1 0x1 ADD SWAP1 POP PUSH2 0x17F4 JUMP JUMPDEST POP SWAP4 SWAP3 POP POP POP JUMP JUMPDEST PUSH0 PUSH1 0x4D DUP3 PUSH1 0xFF AND GT ISZERO PUSH2 0x18E7 JUMPI PUSH1 0x40 MLOAD PUSH32 0x8C379A000000000000000000000000000000000000000000000000000000000 DUP2 MSTORE PUSH1 0x4 ADD PUSH2 0x18DE SWAP1 PUSH2 0x2A47 JUMP JUMPDEST PUSH1 0x40 MLOAD DUP1 SWAP2 SUB SWAP1 REVERT JUMPDEST DUP2 PUSH1 0xFF AND PUSH1 0xA EXP SWAP1 POP SWAP2 SWAP1 POP JUMP JUMPDEST PUSH1 0x40 MLOAD DUP1 PUSH1 0x40 ADD PUSH1 0x40 MSTORE DUP1 PUSH0 DUP2 MSTORE PUSH1 0x20 ADD PUSH0 DUP2 MSTORE POP SWAP1 JUMP JUMPDEST PUSH1 0x40 MLOAD DUP1 PUSH1 0xC0 ADD PUSH1 0x40 MSTORE DUP1 PUSH0 PUSH20 0xFFFFFFFFFFFFFFFFFFFFFFFFFFFFFFFFFFFFFFFF AND DUP2 MSTORE PUSH1 0x20 ADD PUSH0 PUSH1 0xFF AND DUP2 MSTORE PUSH1 0x20 ADD PUSH0 PUSH2 0xFFFF AND DUP2 MSTORE PUSH1 0x20 ADD PUSH0 DUP2 MSTORE PUSH1 0x20 ADD PUSH0 DUP2 MSTORE PUSH1 0x20 ADD PUSH0 DUP2 MSTORE POP SWAP1 JUMP JUMPDEST PUSH1 0x40 MLOAD DUP1 PUSH2 0x100 ADD PUSH1 0x40 MSTORE DUP1 PUSH0 PUSH20 0xFFFFFFFFFFFFFFFFFFFFFFFFFFFFFFFFFFFFFFFF AND DUP2 MSTORE PUSH1 0x20 ADD PUSH0 PUSH1 0xFF AND DUP2 MSTORE PUSH1 0x20 ADD PUSH0 PUSH2 0xFFFF AND DUP2 MSTORE PUSH1 0x20 ADD PUSH0 DUP2 MSTORE PUSH1 0x20 ADD PUSH0 DUP2 MSTORE PUSH1 0x20 ADD PUSH0 DUP2 MSTORE PUSH1 0x20 ADD PUSH0 DUP2 MSTORE PUSH1 0x20 ADD PUSH0 DUP2 MSTORE POP SWAP1 JUMP JUMPDEST PUSH0 PUSH1 0x40 MLOAD SWAP1 POP SWAP1 JUMP JUMPDEST PUSH0 PUSH0 REVERT JUMPDEST PUSH0 PUSH0 REVERT JUMPDEST PUSH0 DUP2 SWAP1 POP SWAP2 SWAP1 POP JUMP JUMPDEST PUSH2 0x19D7 DUP2 PUSH2 0x19C5 JUMP JUMPDEST DUP2 EQ PUSH2 0x19E1 JUMPI PUSH0 PUSH0 REVERT JUMPDEST POP JUMP JUMPDEST PUSH0 DUP2 CALLDATALOAD SWAP1 POP PUSH2 0x19F2 DUP2 PUSH2 0x19CE JUMP JUMPDEST SWAP3 SWAP2 POP POP JUMP JUMPDEST PUSH0 PUSH1 0x20 DUP3 DUP5 SUB SLT ISZERO PUSH2 0x1A0D JUMPI PUSH2 0x1A0C PUSH2 0x19BD JUMP JUMPDEST JUMPDEST PUSH0 PUSH2 0x1A1A DUP5 DUP3 DUP6 ADD PUSH2 0x19E4 JUMP JUMPDEST SWAP2 POP POP SWAP3 SWAP2 POP POP JUMP JUMPDEST PUSH2 0x1A2C DUP2 PUSH2 0x19C5 JUMP JUMPDEST DUP3 MSTORE POP POP JUMP JUMPDEST PUSH0 PUSH1 0x20 DUP3 ADD SWAP1 POP PUSH2 0x1A45 PUSH0 DUP4 ADD DUP5 PUSH2 0x1A23 JUMP JUMPDEST SWAP3 SWAP2 POP POP JUMP JUMPDEST PUSH0 DUP2 MLOAD SWAP1 POP SWAP2 SWAP1 POP JUMP JUMPDEST PUSH0 DUP3 DUP3 MSTORE PUSH1 0x20 DUP3 ADD SWAP1 POP SWAP3 SWAP2 POP POP JUMP JUMPDEST PUSH0 DUP2 SWAP1 POP PUSH1 0x20 DUP3 ADD SWAP1 POP SWAP2 SWAP1 POP JUMP JUMPDEST PUSH0 PUSH20 0xFFFFFFFFFFFFFFFFFFFFFFFFFFFFFFFFFFFFFFFF DUP3 AND SWAP1 POP SWAP2 SWAP1 POP JUMP JUMPDEST PUSH0 PUSH2 0x1A9D DUP3 PUSH2 0x1A74 JUMP JUMPDEST SWAP1 POP SWAP2 SWAP1 POP JUMP JUMPDEST PUSH2 0x1AAD DUP2 PUSH2 0x1A93 JUMP JUMPDEST DUP3 MSTORE POP POP JUMP JUMPDEST PUSH0 PUSH1 0xFF DUP3 AND SWAP1 POP SWAP2 SWAP1 POP JUMP JUMPDEST PUSH2 0x1AC8 DUP2 PUSH2 0x1AB3 JUMP JUMPDEST DUP3 MSTORE POP POP JUMP JUMPDEST PUSH0 PUSH2 0xFFFF DUP3 AND SWAP1 POP SWAP2 SWAP1 POP JUMP JUMPDEST PUSH2 0x1AE4 DUP2 PUSH2 0x1ACE JUMP JUMPDEST DUP3 MSTORE POP POP JUMP JUMPDEST PUSH2 0x1AF3 DUP2 PUSH2 0x19C5 JUMP JUMPDEST DUP3 MSTORE POP POP JUMP JUMPDEST PUSH1 0xC0 DUP3 ADD PUSH0 DUP3 ADD MLOAD PUSH2 0x1B0D PUSH0 DUP6 ADD DUP3 PUSH2 0x1AA4 JUMP JUMPDEST POP PUSH1 0x20 DUP3 ADD MLOAD PUSH2 0x1B20 PUSH1 0x20 DUP6 ADD DUP3 PUSH2 0x1ABF JUMP JUMPDEST POP PUSH1 0x40 DUP3 ADD MLOAD PUSH2 0x1B33 PUSH1 0x40 DUP6 ADD DUP3 PUSH2 0x1ADB JUMP JUMPDEST POP PUSH1 0x60 DUP3 ADD MLOAD PUSH2 0x1B46 PUSH1 0x60 DUP6 ADD DUP3 PUSH2 0x1AEA JUMP JUMPDEST POP PUSH1 0x80 DUP3 ADD MLOAD PUSH2 0x1B59 PUSH1 0x80 DUP6 ADD DUP3 PUSH2 0x1AEA JUMP JUMPDEST POP PUSH1 0xA0 DUP3 ADD MLOAD PUSH2 0x1B6C PUSH1 0xA0 DUP6 ADD DUP3 PUSH2 0x1AEA JUMP JUMPDEST POP POP POP POP JUMP JUMPDEST PUSH0 PUSH2 0x1B7D DUP4 DUP4 PUSH2 0x1AF9 JUMP JUMPDEST PUSH1 0xC0 DUP4 ADD SWAP1 POP SWAP3 SWAP2 POP POP JUMP JUMPDEST PUSH0 PUSH1 0x20 DUP3 ADD SWAP1 POP SWAP2 SWAP1 POP JUMP JUMPDEST PUSH0 PUSH2 0x1B9F DUP3 PUSH2 0x1A4B JUMP JUMPDEST PUSH2 0x1BA9 DUP2 DUP6 PUSH2 0x1A55 JUMP JUMPDEST SWAP4 POP PUSH2 0x1BB4 DUP4 PUSH2 0x1A65 JUMP JUMPDEST DUP1 PUSH0 JUMPDEST DUP4 DUP2 LT ISZERO PUSH2 0x1BE4 JUMPI DUP2 MLOAD PUSH2 0x1BCB DUP9 DUP3 PUSH2 0x1B72 JUMP JUMPDEST SWAP8 POP PUSH2 0x1BD6 DUP4 PUSH2 0x1B89 JUMP JUMPDEST SWAP3 POP POP PUSH1 0x1 DUP2 ADD SWAP1 POP PUSH2 0x1BB7 JUMP JUMPDEST POP DUP6 SWAP4 POP POP POP POP SWAP3 SWAP2 POP POP JUMP JUMPDEST PUSH0 PUSH1 0x40 DUP3 ADD SWAP1 POP DUP2 DUP2 SUB PUSH0 DUP4 ADD MSTORE PUSH2 0x1C09 DUP2 DUP6 PUSH2 0x1B95 JUMP JUMPDEST SWAP1 POP PUSH2 0x1C18 PUSH1 0x20 DUP4 ADD DUP5 PUSH2 0x1A23 JUMP JUMPDEST SWAP4 SWAP3 POP POP POP JUMP JUMPDEST PUSH1 0x40 DUP3 ADD PUSH0 DUP3 ADD MLOAD PUSH2 0x1C33 PUSH0 DUP6 ADD DUP3 PUSH2 0x1AEA JUMP JUMPDEST POP PUSH1 0x20 DUP3 ADD MLOAD PUSH2 0x1C46 PUSH1 0x20 DUP6 ADD DUP3 PUSH2 0x1AEA JUMP JUMPDEST POP POP POP POP JUMP JUMPDEST PUSH0 PUSH1 0x40 DUP3 ADD SWAP1 POP PUSH2 0x1C5F PUSH0 DUP4 ADD DUP5 PUSH2 0x1C1F JUMP JUMPDEST SWAP3 SWAP2 POP POP JUMP JUMPDEST PUSH0 PUSH0 REVERT JUMPDEST PUSH0 PUSH0 REVERT JUMPDEST PUSH0 PUSH1 0x1F NOT PUSH1 0x1F DUP4 ADD AND SWAP1 POP SWAP2 SWAP1 POP JUMP JUMPDEST PUSH32 0x4E487B7100000000000000000000000000000000000000000000000000000000 PUSH0 MSTORE PUSH1 0x41 PUSH1 0x4 MSTORE PUSH1 0x24 PUSH0 REVERT JUMPDEST PUSH2 0x1CB3 DUP3 PUSH2 0x1C6D JUMP JUMPDEST DUP2 ADD DUP2 DUP2 LT PUSH8 0xFFFFFFFFFFFFFFFF DUP3 GT OR ISZERO PUSH2 0x1CD2 JUMPI PUSH2 0x1CD1 PUSH2 0x1C7D JUMP JUMPDEST JUMPDEST DUP1 PUSH1 0x40 MSTORE POP POP POP JUMP JUMPDEST PUSH0 PUSH2 0x1CE4 PUSH2 0x19B4 JUMP JUMPDEST SWAP1 POP PUSH2 0x1CF0 DUP3 DUP3 PUSH2 0x1CAA JUMP JUMPDEST SWAP2 SWAP1 POP JUMP JUMPDEST PUSH0 PUSH8 0xFFFFFFFFFFFFFFFF DUP3 GT ISZERO PUSH2 0x1D0F JUMPI PUSH2 0x1D0E PUSH2 0x1C7D JUMP JUMPDEST JUMPDEST PUSH2 0x1D18 DUP3 PUSH2 0x1C6D JUMP JUMPDEST SWAP1 POP PUSH1 0x20 DUP2 ADD SWAP1 POP SWAP2 SWAP1 POP JUMP JUMPDEST DUP3 DUP2 DUP4 CALLDATACOPY PUSH0 DUP4 DUP4 ADD MSTORE POP POP POP JUMP JUMPDEST PUSH0 PUSH2 0x1D45 PUSH2 0x1D40 DUP5 PUSH2 0x1CF5 JUMP JUMPDEST PUSH2 0x1CDB JUMP JUMPDEST SWAP1 POP DUP3 DUP2 MSTORE PUSH1 0x20 DUP2 ADD DUP5 DUP5 DUP5 ADD GT ISZERO PUSH2 0x1D61 JUMPI PUSH2 0x1D60 PUSH2 0x1C69 JUMP JUMPDEST JUMPDEST PUSH2 0x1D6C DUP5 DUP3 DUP6 PUSH2 0x1D25 JUMP JUMPDEST POP SWAP4 SWAP3 POP POP POP JUMP JUMPDEST PUSH0 DUP3 PUSH1 0x1F DUP4 ADD SLT PUSH2 0x1D88 JUMPI PUSH2 0x1D87 PUSH2 0x1C65 JUMP JUMPDEST JUMPDEST DUP2 CALLDATALOAD PUSH2 0x1D98 DUP5 DUP3 PUSH1 0x20 DUP7 ADD PUSH2 0x1D33 JUMP JUMPDEST SWAP2 POP POP SWAP3 SWAP2 POP POP JUMP JUMPDEST PUSH0 PUSH1 0x20 DUP3 DUP5 SUB SLT ISZERO PUSH2 0x1DB6 JUMPI PUSH2 0x1DB5 PUSH2 0x19BD JUMP JUMPDEST JUMPDEST PUSH0 DUP3 ADD CALLDATALOAD PUSH8 0xFFFFFFFFFFFFFFFF DUP2 GT ISZERO PUSH2 0x1DD3 JUMPI PUSH2 0x1DD2 PUSH2 0x19C1 JUMP JUMPDEST JUMPDEST PUSH2 0x1DDF DUP5 DUP3 DUP6 ADD PUSH2 0x1D74 JUMP JUMPDEST SWAP2 POP POP SWAP3 SWAP2 POP POP JUMP JUMPDEST PUSH2 0x1DF1 DUP2 PUSH2 0x1A93 JUMP JUMPDEST DUP3 MSTORE POP POP JUMP JUMPDEST PUSH0 PUSH1 0x20 DUP3 ADD SWAP1 POP PUSH2 0x1E0A PUSH0 DUP4 ADD DUP5 PUSH2 0x1DE8 JUMP JUMPDEST SWAP3 SWAP2 POP POP JUMP JUMPDEST PUSH0 DUP2 SWAP1 POP SWAP2 SWAP1 POP JUMP JUMPDEST PUSH0 PUSH2 0x1E33 PUSH2 0x1E2E PUSH2 0x1E29 DUP5 PUSH2 0x1A74 JUMP JUMPDEST PUSH2 0x1E10 JUMP JUMPDEST PUSH2 0x1A74 JUMP JUMPDEST SWAP1 POP SWAP2 SWAP1 POP JUMP JUMPDEST PUSH0 PUSH2 0x1E44 DUP3 PUSH2 0x1E19 JUMP JUMPDEST SWAP1 POP SWAP2 SWAP1 POP JUMP JUMPDEST PUSH0 PUSH2 0x1E55 DUP3 PUSH2 0x1E3A JUMP JUMPDEST SWAP1 POP SWAP2 SWAP1 POP JUMP JUMPDEST PUSH2 0x1E65 DUP2 PUSH2 0x1E4B JUMP JUMPDEST DUP3 MSTORE POP POP JUMP JUMPDEST PUSH0 PUSH1 0x20 DUP3 ADD SWAP1 POP PUSH2 0x1E7E PUSH0 DUP4 ADD DUP5 PUSH2 0x1E5C JUMP JUMPDEST SWAP3 SWAP2 POP POP JUMP JUMPDEST PUSH0 PUSH1 0x40 DUP3 ADD SWAP1 POP PUSH2 0x1E97 PUSH0 DUP4 ADD DUP6 PUSH2 0x1A23 JUMP JUMPDEST PUSH2 0x1EA4 PUSH1 0x20 DUP4 ADD DUP5 PUSH2 0x1A23 JUMP JUMPDEST SWAP4 SWAP3 POP POP POP JUMP JUMPDEST PUSH2 0x1EB4 DUP2 PUSH2 0x1A93 JUMP JUMPDEST DUP2 EQ PUSH2 0x1EBE JUMPI PUSH0 PUSH0 REVERT JUMPDEST POP JUMP JUMPDEST PUSH0 DUP2 CALLDATALOAD SWAP1 POP PUSH2 0x1ECF DUP2 PUSH2 0x1EAB JUMP JUMPDEST SWAP3 SWAP2 POP POP JUMP JUMPDEST PUSH0 PUSH1 0x20 DUP3 DUP5 SUB SLT ISZERO PUSH2 0x1EEA JUMPI PUSH2 0x1EE9 PUSH2 0x19BD JUMP JUMPDEST JUMPDEST PUSH0 PUSH2 0x1EF7 DUP5 DUP3 DUP6 ADD PUSH2 0x1EC1 JUMP JUMPDEST SWAP2 POP POP SWAP3 SWAP2 POP POP JUMP JUMPDEST PUSH0 DUP2 MLOAD SWAP1 POP SWAP2 SWAP1 POP JUMP JUMPDEST PUSH0 DUP3 DUP3 MSTORE PUSH1 0x20 DUP3 ADD SWAP1 POP SWAP3 SWAP2 POP POP JUMP JUMPDEST PUSH0 DUP2 SWAP1 POP PUSH1 0x20 DUP3 ADD SWAP1 POP SWAP2 SWAP1 POP JUMP JUMPDEST PUSH2 0x100 DUP3 ADD PUSH0 DUP3 ADD MLOAD PUSH2 0x1F3E PUSH0 DUP6 ADD DUP3 PUSH2 0x1AA4 JUMP JUMPDEST POP PUSH1 0x20 DUP3 ADD MLOAD PUSH2 0x1F51 PUSH1 0x20 DUP6 ADD DUP3 PUSH2 0x1ABF JUMP JUMPDEST POP PUSH1 0x40 DUP3 ADD MLOAD PUSH2 0x1F64 PUSH1 0x40 DUP6 ADD DUP3 PUSH2 0x1ADB JUMP JUMPDEST POP PUSH1 0x60 DUP3 ADD MLOAD PUSH2 0x1F77 PUSH1 0x60 DUP6 ADD DUP3 PUSH2 0x1AEA JUMP JUMPDEST POP PUSH1 0x80 DUP3 ADD MLOAD PUSH2 0x1F8A PUSH1 0x80 DUP6 ADD DUP3 PUSH2 0x1AEA JUMP JUMPDEST POP PUSH1 0xA0 DUP3 ADD MLOAD PUSH2 0x1F9D PUSH1 0xA0 DUP6 ADD DUP3 PUSH2 0x1AEA JUMP JUMPDEST POP PUSH1 0xC0 DUP3 ADD MLOAD PUSH2 0x1FB0 PUSH1 0xC0 DUP6 ADD DUP3 PUSH2 0x1AEA JUMP JUMPDEST POP PUSH1 0xE0 DUP3 ADD MLOAD PUSH2 0x1FC3 PUSH1 0xE0 DUP6 ADD DUP3 PUSH2 0x1AEA JUMP JUMPDEST POP POP POP POP JUMP JUMPDEST PUSH0 PUSH2 0x1FD4 DUP4 DUP4 PUSH2 0x1F29 JUMP JUMPDEST PUSH2 0x100 DUP4 ADD SWAP1 POP SWAP3 SWAP2 POP POP JUMP JUMPDEST PUSH0 PUSH1 0x20 DUP3 ADD SWAP1 POP SWAP2 SWAP1 POP JUMP JUMPDEST PUSH0 PUSH2 0x1FF7 DUP3 PUSH2 0x1F00 JUMP JUMPDEST PUSH2 0x2001 DUP2 DUP6 PUSH2 0x1F0A JUMP JUMPDEST SWAP4 POP PUSH2 0x200C DUP4 PUSH2 0x1F1A JUMP JUMPDEST DUP1 PUSH0 JUMPDEST DUP4 DUP2 LT ISZERO PUSH2 0x203C JUMPI DUP2 MLOAD PUSH2 0x2023 DUP9 DUP3 PUSH2 0x1FC9 JUMP JUMPDEST SWAP8 POP PUSH2 0x202E DUP4 PUSH2 0x1FE1 JUMP JUMPDEST SWAP3 POP POP PUSH1 0x1 DUP2 ADD SWAP1 POP PUSH2 0x200F JUMP JUMPDEST POP DUP6 SWAP4 POP POP POP POP SWAP3 SWAP2 POP POP JUMP JUMPDEST PUSH0 PUSH1 0x60 DUP3 ADD SWAP1 POP DUP2 DUP2 SUB PUSH0 DUP4 ADD MSTORE PUSH2 0x2061 DUP2 DUP7 PUSH2 0x1FED JUMP JUMPDEST SWAP1 POP PUSH2 0x2070 PUSH1 0x20 DUP4 ADD DUP6 PUSH2 0x1A23 JUMP JUMPDEST PUSH2 0x207D PUSH1 0x40 DUP4 ADD DUP5 PUSH2 0x1A23 JUMP JUMPDEST SWAP5 SWAP4 POP POP POP POP JUMP JUMPDEST PUSH0 PUSH0 REVERT JUMPDEST PUSH0 PUSH0 REVERT JUMPDEST PUSH0 PUSH8 0xFFFFFFFFFFFFFFFF DUP3 GT ISZERO PUSH2 0x20A7 JUMPI PUSH2 0x20A6 PUSH2 0x1C7D JUMP JUMPDEST JUMPDEST PUSH1 0x20 DUP3 MUL SWAP1 POP PUSH1 0x20 DUP2 ADD SWAP1 POP SWAP2 SWAP1 POP JUMP JUMPDEST PUSH0 PUSH0 REVERT JUMPDEST PUSH2 0x20C5 DUP2 PUSH2 0x1ACE JUMP JUMPDEST DUP2 EQ PUSH2 0x20CF JUMPI PUSH0 PUSH0 REVERT JUMPDEST POP JUMP JUMPDEST PUSH0 DUP2 CALLDATALOAD SWAP1 POP PUSH2 0x20E0 DUP2 PUSH2 0x20BC JUMP JUMPDEST SWAP3 SWAP2 POP POP JUMP JUMPDEST PUSH0 PUSH1 0x40 DUP3 DUP5 SUB SLT ISZERO PUSH2 0x20FB JUMPI PUSH2 0x20FA PUSH2 0x2085 JUMP JUMPDEST JUMPDEST PUSH2 0x2105 PUSH1 0x40 PUSH2 0x1CDB JUMP JUMPDEST SWAP1 POP PUSH0 PUSH2 0x2114 DUP5 DUP3 DUP6 ADD PUSH2 0x1EC1 JUMP JUMPDEST PUSH0 DUP4 ADD MSTORE POP PUSH1 0x20 PUSH2 0x2127 DUP5 DUP3 DUP6 ADD PUSH2 0x20D2 JUMP JUMPDEST PUSH1 0x20 DUP4 ADD MSTORE POP SWAP3 SWAP2 POP POP JUMP JUMPDEST PUSH0 PUSH2 0x2145 PUSH2 0x2140 DUP5 PUSH2 0x208D JUMP JUMPDEST PUSH2 0x1CDB JUMP JUMPDEST SWAP1 POP DUP1 DUP4 DUP3 MSTORE PUSH1 0x20 DUP3 ADD SWAP1 POP PUSH1 0x40 DUP5 MUL DUP4 ADD DUP6 DUP2 GT ISZERO PUSH2 0x2168 JUMPI PUSH2 0x2167 PUSH2 0x20B8 JUMP JUMPDEST JUMPDEST DUP4 JUMPDEST DUP2 DUP2 LT ISZERO PUSH2 0x2191 JUMPI DUP1 PUSH2 0x217D DUP9 DUP3 PUSH2 0x20E6 JUMP JUMPDEST DUP5 MSTORE PUSH1 0x20 DUP5 ADD SWAP4 POP POP PUSH1 0x40 DUP2 ADD SWAP1 POP PUSH2 0x216A JUMP JUMPDEST POP POP POP SWAP4 SWAP3 POP POP POP JUMP JUMPDEST PUSH0 DUP3 PUSH1 0x1F DUP4 ADD SLT PUSH2 0x21AF JUMPI PUSH2 0x21AE PUSH2 0x1C65 JUMP JUMPDEST JUMPDEST DUP2 CALLDATALOAD PUSH2 0x21BF DUP5 DUP3 PUSH1 0x20 DUP7 ADD PUSH2 0x2133 JUMP JUMPDEST SWAP2 POP POP SWAP3 SWAP2 POP POP JUMP JUMPDEST PUSH0 PUSH1 0x60 DUP3 DUP5 SUB SLT ISZERO PUSH2 0x21DD JUMPI PUSH2 0x21DC PUSH2 0x2085 JUMP JUMPDEST JUMPDEST PUSH2 0x21E7 PUSH1 0x60 PUSH2 0x1CDB JUMP JUMPDEST SWAP1 POP PUSH0 DUP3 ADD CALLDATALOAD PUSH8 0xFFFFFFFFFFFFFFFF DUP2 GT ISZERO PUSH2 0x2206 JUMPI PUSH2 0x2205 PUSH2 0x2089 JUMP JUMPDEST JUMPDEST PUSH2 0x2212 DUP5 DUP3 DUP6 ADD PUSH2 0x1D74 JUMP JUMPDEST PUSH0 DUP4 ADD MSTORE POP PUSH1 0x20 DUP3 ADD CALLDATALOAD PUSH8 0xFFFFFFFFFFFFFFFF DUP2 GT ISZERO PUSH2 0x2235 JUMPI PUSH2 0x2234 PUSH2 0x2089 JUMP JUMPDEST JUMPDEST PUSH2 0x2241 DUP5 DUP3 DUP6 ADD PUSH2 0x1D74 JUMP JUMPDEST PUSH1 0x20 DUP4 ADD MSTORE POP PUSH1 0x40 DUP3 ADD CALLDATALOAD PUSH8 0xFFFFFFFFFFFFFFFF DUP2 GT ISZERO PUSH2 0x2265 JUMPI PUSH2 0x2264 PUSH2 0x2089 JUMP JUMPDEST JUMPDEST PUSH2 0x2271 DUP5 DUP3 DUP6 ADD PUSH2 0x219B JUMP JUMPDEST PUSH1 0x40 DUP4 ADD MSTORE POP SWAP3 SWAP2 POP POP JUMP JUMPDEST PUSH0 PUSH0 PUSH1 0x40 DUP4 DUP6 SUB SLT ISZERO PUSH2 0x2293 JUMPI PUSH2 0x2292 PUSH2 0x19BD JUMP JUMPDEST JUMPDEST PUSH0 DUP4 ADD CALLDATALOAD PUSH8 0xFFFFFFFFFFFFFFFF DUP2 GT ISZERO PUSH2 0x22B0 JUMPI PUSH2 0x22AF PUSH2 0x19C1 JUMP JUMPDEST JUMPDEST PUSH2 0x22BC DUP6 DUP3 DUP7 ADD PUSH2 0x21C8 JUMP JUMPDEST SWAP3 POP POP PUSH1 0x20 PUSH2 0x22CD DUP6 DUP3 DUP7 ADD PUSH2 0x1EC1 JUMP JUMPDEST SWAP2 POP POP SWAP3 POP SWAP3 SWAP1 POP JUMP JUMPDEST DUP3 DUP2 DUP4 MCOPY PUSH0 DUP4 DUP4 ADD MSTORE POP POP POP JUMP JUMPDEST PUSH0 PUSH2 0x22F7 PUSH2 0x22F2 DUP5 PUSH2 0x1CF5 JUMP JUMPDEST PUSH2 0x1CDB JUMP JUMPDEST SWAP1 POP DUP3 DUP2 MSTORE PUSH1 0x20 DUP2 ADD DUP5 DUP5 DUP5 ADD GT ISZERO PUSH2 0x2313 JUMPI PUSH2 0x2312 PUSH2 0x1C69 JUMP JUMPDEST JUMPDEST PUSH2 0x231E DUP5 DUP3 DUP6 PUSH2 0x22D7 JUMP JUMPDEST POP SWAP4 SWAP3 POP POP POP JUMP JUMPDEST PUSH0 DUP3 PUSH1 0x1F DUP4 ADD SLT PUSH2 0x233A JUMPI PUSH2 0x2339 PUSH2 0x1C65 JUMP JUMPDEST JUMPDEST DUP2 MLOAD PUSH2 0x234A DUP5 DUP3 PUSH1 0x20 DUP7 ADD PUSH2 0x22E5 JUMP JUMPDEST SWAP2 POP POP SWAP3 SWAP2 POP POP JUMP JUMPDEST PUSH0 DUP2 MLOAD SWAP1 POP PUSH2 0x2361 DUP2 PUSH2 0x1EAB JUMP JUMPDEST SWAP3 SWAP2 POP POP JUMP JUMPDEST PUSH0 DUP2 MLOAD SWAP1 POP PUSH2 0x2375 DUP2 PUSH2 0x20BC JUMP JUMPDEST SWAP3 SWAP2 POP POP JUMP JUMPDEST PUSH0 PUSH1 0x40 DUP3 DUP5 SUB SLT ISZERO PUSH2 0x2390 JUMPI PUSH2 0x238F PUSH2 0x2085 JUMP JUMPDEST JUMPDEST PUSH2 0x239A PUSH1 0x40 PUSH2 0x1CDB JUMP JUMPDEST SWAP1 POP PUSH0 PUSH2 0x23A9 DUP5 DUP3 DUP6 ADD PUSH2 0x2353 JUMP JUMPDEST PUSH0 DUP4 ADD MSTORE POP PUSH1 0x20 PUSH2 0x23BC DUP5 DUP3 DUP6 ADD PUSH2 0x2367 JUMP JUMPDEST PUSH1 0x20 DUP4 ADD MSTORE POP SWAP3 SWAP2 POP POP JUMP JUMPDEST PUSH0 PUSH2 0x23DA PUSH2 0x23D5 DUP5 PUSH2 0x208D JUMP JUMPDEST PUSH2 0x1CDB JUMP JUMPDEST SWAP1 POP DUP1 DUP4 DUP3 MSTORE PUSH1 0x20 DUP3 ADD SWAP1 POP PUSH1 0x40 DUP5 MUL DUP4 ADD DUP6 DUP2 GT ISZERO PUSH2 0x23FD JUMPI PUSH2 0x23FC PUSH2 0x20B8 JUMP JUMPDEST JUMPDEST DUP4 JUMPDEST DUP2 DUP2 LT ISZERO PUSH2 0x2426 JUMPI DUP1 PUSH2 0x2412 DUP9 DUP3 PUSH2 0x237B JUMP JUMPDEST DUP5 MSTORE PUSH1 0x20 DUP5 ADD SWAP4 POP POP PUSH1 0x40 DUP2 ADD SWAP1 POP PUSH2 0x23FF JUMP JUMPDEST POP POP POP SWAP4 SWAP3 POP POP POP JUMP JUMPDEST PUSH0 DUP3 PUSH1 0x1F DUP4 ADD SLT PUSH2 0x2444 JUMPI PUSH2 0x2443 PUSH2 0x1C65 JUMP JUMPDEST JUMPDEST DUP2 MLOAD PUSH2 0x2454 DUP5 DUP3 PUSH1 0x20 DUP7 ADD PUSH2 0x23C8 JUMP JUMPDEST SWAP2 POP POP SWAP3 SWAP2 POP POP JUMP JUMPDEST PUSH0 PUSH1 0x60 DUP3 DUP5 SUB SLT ISZERO PUSH2 0x2472 JUMPI PUSH2 0x2471 PUSH2 0x2085 JUMP JUMPDEST JUMPDEST PUSH2 0x247C PUSH1 0x60 PUSH2 0x1CDB JUMP JUMPDEST SWAP1 POP PUSH0 DUP3 ADD MLOAD PUSH8 0xFFFFFFFFFFFFFFFF DUP2 GT ISZERO PUSH2 0x249B JUMPI PUSH2 0x249A PUSH2 0x2089 JUMP JUMPDEST JUMPDEST PUSH2 0x24A7 DUP5 DUP3 DUP6 ADD PUSH2 0x2326 JUMP JUMPDEST PUSH0 DUP4 ADD MSTORE POP PUSH1 0x20 DUP3 ADD MLOAD PUSH8 0xFFFFFFFFFFFFFFFF DUP2 GT ISZERO PUSH2 0x24CA JUMPI PUSH2 0x24C9 PUSH2 0x2089 JUMP JUMPDEST JUMPDEST PUSH2 0x24D6 DUP5 DUP3 DUP6 ADD PUSH2 0x2326 JUMP JUMPDEST PUSH1 0x20 DUP4 ADD MSTORE POP PUSH1 0x40 DUP3 ADD MLOAD PUSH8 0xFFFFFFFFFFFFFFFF DUP2 GT ISZERO PUSH2 0x24FA JUMPI PUSH2 0x24F9 PUSH2 0x2089 JUMP JUMPDEST JUMPDEST PUSH2 0x2506 DUP5 DUP3 DUP6 ADD PUSH2 0x2430 JUMP JUMPDEST PUSH1 0x40 DUP4 ADD MSTORE POP SWAP3 SWAP2 POP POP JUMP JUMPDEST PUSH0 PUSH0 PUSH1 0x40 DUP4 DUP6 SUB SLT ISZERO PUSH2 0x2528 JUMPI PUSH2 0x2527 PUSH2 0x19BD JUMP JUMPDEST JUMPDEST PUSH0 DUP4 ADD MLOAD PUSH8 0xFFFFFFFFFFFFFFFF DUP2 GT ISZERO PUSH2 0x2545 JUMPI PUSH2 0x2544 PUSH2 0x19C1 JUMP JUMPDEST JUMPDEST PUSH2 0x2551 DUP6 DUP3 DUP7 ADD PUSH2 0x245D JUMP JUMPDEST SWAP3 POP POP PUSH1 0x20 PUSH2 0x2562 DUP6 DUP3 DUP7 ADD PUSH2 0x2353 JUMP JUMPDEST SWAP2 POP POP SWAP3 POP SWAP3 SWAP1 POP JUMP JUMPDEST PUSH0 PUSH1 0x20 DUP3 DUP5 SUB SLT ISZERO PUSH2 0x2581 JUMPI PUSH2 0x2580 PUSH2 0x19BD JUMP JUMPDEST JUMPDEST PUSH0 DUP3 ADD MLOAD PUSH8 0xFFFFFFFFFFFFFFFF DUP2 GT ISZERO PUSH2 0x259E JUMPI PUSH2 0x259D PUSH2 0x19C1 JUMP JUMPDEST JUMPDEST PUSH2 0x25AA DUP5 DUP3 DUP6 ADD PUSH2 0x245D JUMP JUMPDEST SWAP2 POP POP SWAP3 SWAP2 POP POP JUMP JUMPDEST PUSH0 DUP2 MLOAD SWAP1 POP SWAP2 SWAP1 POP JUMP JUMPDEST PUSH0 DUP3 DUP3 MSTORE PUSH1 0x20 DUP3 ADD SWAP1 POP SWAP3 SWAP2 POP POP JUMP JUMPDEST PUSH0 PUSH2 0x25D7 DUP3 PUSH2 0x25B3 JUMP JUMPDEST PUSH2 0x25E1 DUP2 DUP6 PUSH2 0x25BD JUMP JUMPDEST SWAP4 POP PUSH2 0x25F1 DUP2 DUP6 PUSH1 0x20 DUP7 ADD PUSH2 0x22D7 JUMP JUMPDEST PUSH2 0x25FA DUP2 PUSH2 0x1C6D JUMP JUMPDEST DUP5 ADD SWAP2 POP POP SWAP3 SWAP2 POP POP JUMP JUMPDEST PUSH0 PUSH1 0x20 DUP3 ADD SWAP1 POP DUP2 DUP2 SUB PUSH0 DUP4 ADD MSTORE PUSH2 0x261D DUP2 DUP5 PUSH2 0x25CD JUMP JUMPDEST SWAP1 POP SWAP3 SWAP2 POP POP JUMP JUMPDEST PUSH0 PUSH1 0x20 DUP3 DUP5 SUB SLT ISZERO PUSH2 0x263A JUMPI PUSH2 0x2639 PUSH2 0x19BD JUMP JUMPDEST JUMPDEST PUSH0 PUSH2 0x2647 DUP5 DUP3 DUP6 ADD PUSH2 0x2353 JUMP JUMPDEST SWAP2 POP POP SWAP3 SWAP2 POP POP JUMP JUMPDEST PUSH32 0x43616C6C6572206973206E6F7420746865206F776E6572000000000000000000 PUSH0 DUP3 ADD MSTORE POP JUMP JUMPDEST PUSH0 PUSH2 0x2684 PUSH1 0x17 DUP4 PUSH2 0x25BD JUMP JUMPDEST SWAP2 POP PUSH2 0x268F DUP3 PUSH2 0x2650 JUMP JUMPDEST PUSH1 0x20 DUP3 ADD SWAP1 POP SWAP2 SWAP1 POP JUMP JUMPDEST PUSH0 PUSH1 0x20 DUP3 ADD SWAP1 POP DUP2 DUP2 SUB PUSH0 DUP4 ADD MSTORE PUSH2 0x26B1 DUP2 PUSH2 0x2678 JUMP JUMPDEST SWAP1 POP SWAP2 SWAP1 POP JUMP JUMPDEST PUSH0 DUP2 MLOAD SWAP1 POP PUSH2 0x26C6 DUP2 PUSH2 0x19CE JUMP JUMPDEST SWAP3 SWAP2 POP POP JUMP JUMPDEST PUSH0 PUSH1 0x20 DUP3 DUP5 SUB SLT ISZERO PUSH2 0x26E1 JUMPI PUSH2 0x26E0 PUSH2 0x19BD JUMP JUMPDEST JUMPDEST PUSH0 PUSH2 0x26EE DUP5 DUP3 DUP6 ADD PUSH2 0x26B8 JUMP JUMPDEST SWAP2 POP POP SWAP3 SWAP2 POP POP JUMP JUMPDEST PUSH2 0x2700 DUP2 PUSH2 0x1AB3 JUMP JUMPDEST DUP2 EQ PUSH2 0x270A JUMPI PUSH0 PUSH0 REVERT JUMPDEST POP JUMP JUMPDEST PUSH0 DUP2 MLOAD SWAP1 POP PUSH2 0x271B DUP2 PUSH2 0x26F7 JUMP JUMPDEST SWAP3 SWAP2 POP POP JUMP JUMPDEST PUSH0 PUSH1 0x20 DUP3 DUP5 SUB SLT ISZERO PUSH2 0x2736 JUMPI PUSH2 0x2735 PUSH2 0x19BD JUMP JUMPDEST JUMPDEST PUSH0 PUSH2 0x2743 DUP5 DUP3 DUP6 ADD PUSH2 0x270D JUMP JUMPDEST SWAP2 POP POP SWAP3 SWAP2 POP POP JUMP JUMPDEST PUSH32 0x4E487B7100000000000000000000000000000000000000000000000000000000 PUSH0 MSTORE PUSH1 0x32 PUSH1 0x4 MSTORE PUSH1 0x24 PUSH0 REVERT JUMPDEST PUSH32 0x4E487B7100000000000000000000000000000000000000000000000000000000 PUSH0 MSTORE PUSH1 0x12 PUSH1 0x4 MSTORE PUSH1 0x24 PUSH0 REVERT JUMPDEST PUSH32 0x4469726563746F72792063616E6E6F74206265207A65726F2061646472657373 PUSH0 DUP3 ADD MSTORE POP JUMP JUMPDEST PUSH0 PUSH2 0x27DA PUSH1 0x20 DUP4 PUSH2 0x25BD JUMP JUMPDEST SWAP2 POP PUSH2 0x27E5 DUP3 PUSH2 0x27A6 JUMP JUMPDEST PUSH1 0x20 DUP3 ADD SWAP1 POP SWAP2 SWAP1 POP JUMP JUMPDEST PUSH0 PUSH1 0x20 DUP3 ADD SWAP1 POP DUP2 DUP2 SUB PUSH0 DUP4 ADD MSTORE PUSH2 0x2807 DUP2 PUSH2 0x27CE JUMP JUMPDEST SWAP1 POP SWAP2 SWAP1 POP JUMP JUMPDEST PUSH32 0x4469726563746F7279206D757374206265206120636F6E747261637400000000 PUSH0 DUP3 ADD MSTORE POP JUMP JUMPDEST PUSH0 PUSH2 0x2842 PUSH1 0x1C DUP4 PUSH2 0x25BD JUMP JUMPDEST SWAP2 POP PUSH2 0x284D DUP3 PUSH2 0x280E JUMP JUMPDEST PUSH1 0x20 DUP3 ADD SWAP1 POP SWAP2 SWAP1 POP JUMP JUMPDEST PUSH0 PUSH1 0x20 DUP3 ADD SWAP1 POP DUP2 DUP2 SUB PUSH0 DUP4 ADD MSTORE PUSH2 0x286F DUP2 PUSH2 0x2836 JUMP JUMPDEST SWAP1 POP SWAP2 SWAP1 POP JUMP JUMPDEST PUSH32 0x4469726563746F7279206164647265737320646F6573206E6F7420696D706C65 PUSH0 DUP3 ADD MSTORE PUSH32 0x6D656E74206F776E657228290000000000000000000000000000000000000000 PUSH1 0x20 DUP3 ADD MSTORE POP JUMP JUMPDEST PUSH0 PUSH2 0x28D0 PUSH1 0x2C DUP4 PUSH2 0x25BD JUMP JUMPDEST SWAP2 POP PUSH2 0x28DB DUP3 PUSH2 0x2876 JUMP JUMPDEST PUSH1 0x40 DUP3 ADD SWAP1 POP SWAP2 SWAP1 POP JUMP JUMPDEST PUSH0 PUSH1 0x20 DUP3 ADD SWAP1 POP DUP2 DUP2 SUB PUSH0 DUP4 ADD MSTORE PUSH2 0x28FD DUP2 PUSH2 0x28C4 JUMP JUMPDEST SWAP1 POP SWAP2 SWAP1 POP JUMP JUMPDEST PUSH32 0x4E487B7100000000000000000000000000000000000000000000000000000000 PUSH0 MSTORE PUSH1 0x11 PUSH1 0x4 MSTORE PUSH1 0x24 PUSH0 REVERT JUMPDEST PUSH0 PUSH2 0x293B DUP3 PUSH2 0x19C5 JUMP JUMPDEST SWAP2 POP PUSH2 0x2946 DUP4 PUSH2 0x19C5 JUMP JUMPDEST SWAP3 POP DUP3 PUSH2 0x2956 JUMPI PUSH2 0x2955 PUSH2 0x2779 JUMP JUMPDEST JUMPDEST DUP3 DUP3 DIV SWAP1 POP SWAP3 SWAP2 POP POP JUMP JUMPDEST PUSH0 PUSH2 0x296B DUP3 PUSH2 0x1AB3 JUMP JUMPDEST SWAP2 POP PUSH2 0x2976 DUP4 PUSH2 0x1AB3 JUMP JUMPDEST SWAP3 POP DUP3 DUP3 SUB SWAP1 POP PUSH1 0xFF DUP2 GT ISZERO PUSH2 0x298F JUMPI PUSH2 0x298E PUSH2 0x2904 JUMP JUMPDEST JUMPDEST SWAP3 SWAP2 POP POP JUMP JUMPDEST PUSH32 0x6D756C446976206F766572666C6F770000000000000000000000000000000000 PUSH0 DUP3 ADD MSTORE POP JUMP JUMPDEST PUSH0 PUSH2 0x29C9 PUSH1 0xF DUP4 PUSH2 0x25BD JUMP JUMPDEST SWAP2 POP PUSH2 0x29D4 DUP3 PUSH2 0x2995 JUMP JUMPDEST PUSH1 0x20 DUP3 ADD SWAP1 POP SWAP2 SWAP1 POP JUMP JUMPDEST PUSH0 PUSH1 0x20 DUP3 ADD SWAP1 POP DUP2 DUP2 SUB PUSH0 DUP4 ADD MSTORE PUSH2 0x29F6 DUP2 PUSH2 0x29BD JUMP JUMPDEST SWAP1 POP SWAP2 SWAP1 POP JUMP JUMPDEST PUSH32 0x706F773130206F766572666C6F77000000000000000000000000000000000000 PUSH0 DUP3 ADD MSTORE POP JUMP JUMPDEST PUSH0 PUSH2 0x2A31 PUSH1 0xE DUP4 PUSH2 0x25BD JUMP JUMPDEST SWAP2 POP PUSH2 0x2A3C DUP3 PUSH2 0x29FD JUMP JUMPDEST PUSH1 0x20 DUP3 ADD SWAP1 POP SWAP2 SWAP1 POP JUMP JUMPDEST PUSH0 PUSH1 0x20 DUP3 ADD SWAP1 POP DUP2 DUP2 SUB PUSH0 DUP4 ADD MSTORE PUSH2 0x2A5E DUP2 PUSH2 0x2A25 JUMP JUMPDEST SWAP1 POP SWAP2 SWAP1 POP JUMP INVALID LOG2 PUSH5 0x6970667358 0x22 SLT KECCAK256 EXP 0xAF PUSH29 0x5667C5A23B3472733F2ADAF6DF64900F0A1780B08F31FCD1952C49A506 PUSH5 0x736F6C6343 STOP ADDMOD 0x1E STOP CALLER "
				},
				"gasEstimates": {
					"creation": {
						"codeDepositCost": "2181400",
						"executionCost": "infinite",
						"totalCost": "infinite"
					},
					"external": {
						"Directory()": "infinite",
						"changeDirectoryAddress(address)": "infinite",
						"fetchFromDirectory(string)": "infinite",
						"getEtfPrice(uint256)": "infinite",
						"getEtfStats(uint256)": "infinite",
						"getEtfUsdPrice(uint256)": "infinite",
						"getEtfWethPrice(uint256)": "infinite",
						"owner()": "infinite",
						"snapshotVault(uint256)": "infinite",
						"snapshotVaultUnchecked((string,string,(address,uint16)[]),address)": "infinite",
						"snapshotVaultWithUsd(uint256)": "infinite"
					}
				},
				"methodIdentifiers": {
					"Directory()": "658a847a",
					"changeDirectoryAddress(address)": "ba4c7be1",
					"fetchFromDirectory(string)": "27262618",
					"getEtfPrice(uint256)": "79de9e82",
					"getEtfStats(uint256)": "179b8f97",
					"getEtfUsdPrice(uint256)": "0705a3e8",
					"getEtfWethPrice(uint256)": "812efc8e",
					"owner()": "8da5cb5b",
					"snapshotVault(uint256)": "13290a89",
					"snapshotVaultUnchecked((string,string,(address,uint16)[]),address)": "ee0d96c5",
					"snapshotVaultWithUsd(uint256)": "cd8d334f"
				}
			},
			"storageLayout": {
				"storage": [
					{
						"astId": 82,
						"contract": "hopium/etf/main/etf-oracle.sol:EtfOracle",
						"label": "Directory",
						"offset": 0,
						"slot": "0",
						"type": "t_contract(IDirectory)79"
					}
				],
				"types": {
					"t_contract(IDirectory)79": {
						"encoding": "inplace",
						"label": "contract IDirectory",
						"numberOfBytes": "20"
					}
				}
			},
			"userdoc": {
				"kind": "user",
				"methods": {
					"getEtfUsdPrice(uint256)": {
						"notice": "Current NAV per ETF token in USD (1e18)."
					},
					"getEtfWethPrice(uint256)": {
						"notice": "Current NAV per ETF token in WETH (1e18)."
					}
				},
				"version": 1
			}
		}
	}
}