{
	"hopium/uniswap/main/price-oracle.sol": {
		"PriceOracle": {
			"abi": [
				{
					"inputs": [
						{
							"internalType": "address",
							"name": "_directory",
							"type": "address"
						},
						{
							"internalType": "address",
							"name": "_wethAddress",
							"type": "address"
						},
						{
							"internalType": "address",
							"name": "_wethUsdPairAddress",
							"type": "address"
						},
						{
							"internalType": "bool",
							"name": "_isWethUsdPairV3",
							"type": "bool"
						}
					],
					"stateMutability": "nonpayable",
					"type": "constructor"
				},
				{
					"inputs": [],
					"name": "EmptyReserves",
					"type": "error"
				},
				{
					"inputs": [],
					"name": "PairDoesNotContainBase",
					"type": "error"
				},
				{
					"inputs": [],
					"name": "PairDoesNotExist",
					"type": "error"
				},
				{
					"inputs": [],
					"name": "Directory",
					"outputs": [
						{
							"internalType": "contract IDirectory",
							"name": "",
							"type": "address"
						}
					],
					"stateMutability": "view",
					"type": "function"
				},
				{
					"inputs": [],
					"name": "IS_WETH_USD_PAIR_ADDRESS_V3",
					"outputs": [
						{
							"internalType": "bool",
							"name": "",
							"type": "bool"
						}
					],
					"stateMutability": "view",
					"type": "function"
				},
				{
					"inputs": [],
					"name": "WETH_ADDRESS",
					"outputs": [
						{
							"internalType": "address",
							"name": "",
							"type": "address"
						}
					],
					"stateMutability": "view",
					"type": "function"
				},
				{
					"inputs": [],
					"name": "WETH_DECIMALS",
					"outputs": [
						{
							"internalType": "uint8",
							"name": "",
							"type": "uint8"
						}
					],
					"stateMutability": "view",
					"type": "function"
				},
				{
					"inputs": [],
					"name": "WETH_USD_PAIR_ADDRESS",
					"outputs": [
						{
							"internalType": "address",
							"name": "",
							"type": "address"
						}
					],
					"stateMutability": "view",
					"type": "function"
				},
				{
					"inputs": [
						{
							"internalType": "address",
							"name": "_directory",
							"type": "address"
						}
					],
					"name": "changeDirectoryAddress",
					"outputs": [],
					"stateMutability": "nonpayable",
					"type": "function"
				},
				{
					"inputs": [
						{
							"internalType": "string",
							"name": "_key",
							"type": "string"
						}
					],
					"name": "fetchFromDirectory",
					"outputs": [
						{
							"internalType": "address",
							"name": "",
							"type": "address"
						}
					],
					"stateMutability": "view",
					"type": "function"
				},
				{
					"inputs": [
						{
							"internalType": "address",
							"name": "tokenAddress",
							"type": "address"
						}
					],
					"name": "getTokenLiquidityUsd",
					"outputs": [
						{
							"internalType": "uint256",
							"name": "totalLiquidityUsd18",
							"type": "uint256"
						}
					],
					"stateMutability": "view",
					"type": "function"
				},
				{
					"inputs": [
						{
							"internalType": "address",
							"name": "tokenAddress",
							"type": "address"
						}
					],
					"name": "getTokenLiquidityWeth",
					"outputs": [
						{
							"internalType": "uint256",
							"name": "",
							"type": "uint256"
						}
					],
					"stateMutability": "view",
					"type": "function"
				},
				{
					"inputs": [
						{
							"internalType": "address",
							"name": "tokenAddress",
							"type": "address"
						}
					],
					"name": "getTokenMarketCapUsd",
					"outputs": [
						{
							"internalType": "uint256",
							"name": "marketCapUsd18",
							"type": "uint256"
						}
					],
					"stateMutability": "view",
					"type": "function"
				},
				{
					"inputs": [
						{
							"internalType": "address",
							"name": "tokenAddress",
							"type": "address"
						}
					],
					"name": "getTokenMarketCapWeth",
					"outputs": [
						{
							"internalType": "uint256",
							"name": "",
							"type": "uint256"
						}
					],
					"stateMutability": "view",
					"type": "function"
				},
				{
					"inputs": [
						{
							"internalType": "address",
							"name": "tokenAddress",
							"type": "address"
						}
					],
					"name": "getTokenUsdPrice",
					"outputs": [
						{
							"internalType": "uint256",
							"name": "price18",
							"type": "uint256"
						}
					],
					"stateMutability": "view",
					"type": "function"
				},
				{
					"inputs": [
						{
							"internalType": "address",
							"name": "tokenAddress",
							"type": "address"
						}
					],
					"name": "getTokenWethPairAddress",
					"outputs": [
						{
							"internalType": "bool",
							"name": "isV3Pool",
							"type": "bool"
						},
						{
							"internalType": "address",
							"name": "pairAddress",
							"type": "address"
						}
					],
					"stateMutability": "view",
					"type": "function"
				},
				{
					"inputs": [
						{
							"internalType": "address",
							"name": "tokenAddress",
							"type": "address"
						}
					],
					"name": "getTokenWethPrice",
					"outputs": [
						{
							"internalType": "uint256",
							"name": "",
							"type": "uint256"
						}
					],
					"stateMutability": "view",
					"type": "function"
				},
				{
					"inputs": [],
					"name": "getWethUsdPrice",
					"outputs": [
						{
							"internalType": "uint256",
							"name": "price18",
							"type": "uint256"
						}
					],
					"stateMutability": "view",
					"type": "function"
				},
				{
					"inputs": [],
					"name": "owner",
					"outputs": [
						{
							"internalType": "address",
							"name": "",
							"type": "address"
						}
					],
					"stateMutability": "view",
					"type": "function"
				}
			],
			"devdoc": {
				"kind": "dev",
				"methods": {},
				"version": 1
			},
			"evm": {
				"assembly": "    /* \"hopium/uniswap/main/price-oracle.sol\":8994:13883  contract PriceOracle is Helpers {... */\n  mstore(0x40, 0x0100)\n    /* \"hopium/uniswap/main/price-oracle.sol\":9033:9420  constructor(... */\n  callvalue\n  dup1\n  iszero\n  tag_1\n  jumpi\n  revert(0x00, 0x00)\ntag_1:\n  pop\n  mload(0x40)\n  sub(codesize, bytecodeSize)\n  dup1\n  bytecodeSize\n  dup4\n  codecopy\n  dup2\n  dup2\n  add\n  0x40\n  mstore\n  dup2\n  add\n  swap1\n  tag_2\n  swap2\n  swap1\n  tag_3\n  jump\t// in\ntag_2:\n    /* \"hopium/uniswap/main/price-oracle.sol\":9189:9199  _directory */\n  dup4\n    /* \"hopium/common/interface/imDirectory.sol\":412:437  _setDirectory(_directory) */\n  tag_7\n    /* \"hopium/common/interface/imDirectory.sol\":426:436  _directory */\n  dup2\n    /* \"hopium/common/interface/imDirectory.sol\":412:425  _setDirectory */\n  shl(0x20, tag_8)\n    /* \"hopium/common/interface/imDirectory.sol\":412:437  _setDirectory(_directory) */\n  0x20\n  shr\n  jump\t// in\ntag_7:\n    /* \"hopium/common/interface/imDirectory.sol\":370:464  constructor(address _directory) {... */\n  pop\n    /* \"hopium/uniswap/main/price-oracle.sol\":9226:9238  _wethAddress */\n  dup3\n    /* \"hopium/uniswap/main/price-oracle.sol\":9211:9238  WETH_ADDRESS = _wethAddress */\n  0xffffffffffffffffffffffffffffffffffffffff\n  and\n  0x80\n  dup2\n  0xffffffffffffffffffffffffffffffffffffffff\n  and\n  dup2\n  mstore\n  pop\n  pop\n    /* \"hopium/uniswap/main/price-oracle.sol\":9272:9291  _wethUsdPairAddress */\n  dup2\n    /* \"hopium/uniswap/main/price-oracle.sol\":9248:9291  WETH_USD_PAIR_ADDRESS = _wethUsdPairAddress */\n  0xffffffffffffffffffffffffffffffffffffffff\n  and\n  0xa0\n  dup2\n  0xffffffffffffffffffffffffffffffffffffffff\n  and\n  dup2\n  mstore\n  pop\n  pop\n    /* \"hopium/uniswap/main/price-oracle.sol\":9331:9347  _isWethUsdPairV3 */\n  dup1\n    /* \"hopium/uniswap/main/price-oracle.sol\":9301:9347  IS_WETH_USD_PAIR_ADDRESS_V3 = _isWethUsdPairV3 */\n  iszero\n  iszero\n  0xc0\n  dup2\n  iszero\n  iszero\n  dup2\n  mstore\n  pop\n  pop\n    /* \"hopium/uniswap/main/price-oracle.sol\":9389:9401  _wethAddress */\n  dup3\n    /* \"hopium/uniswap/main/price-oracle.sol\":9374:9411  IERC20Metadata(_wethAddress).decimals */\n  0xffffffffffffffffffffffffffffffffffffffff\n  and\n  0x313ce567\n    /* \"hopium/uniswap/main/price-oracle.sol\":9374:9413  IERC20Metadata(_wethAddress).decimals() */\n  mload(0x40)\n  dup2\n  0xffffffff\n  and\n  0xe0\n  shl\n  dup2\n  mstore\n  0x04\n  add\n  0x20\n  mload(0x40)\n  dup1\n  dup4\n  sub\n  dup2\n  dup7\n  gas\n  staticcall\n  iszero\n  dup1\n  iszero\n  tag_11\n  jumpi\n  returndatacopy(0x00, 0x00, returndatasize)\n  revert(0x00, returndatasize)\ntag_11:\n  pop\n  pop\n  pop\n  pop\n  mload(0x40)\n  returndatasize\n  not(0x1f)\n  0x1f\n  dup3\n  add\n  and\n  dup3\n  add\n  dup1\n  0x40\n  mstore\n  pop\n  dup2\n  add\n  swap1\n  tag_12\n  swap2\n  swap1\n  tag_13\n  jump\t// in\ntag_12:\n    /* \"hopium/uniswap/main/price-oracle.sol\":9358:9413  WETH_DECIMALS = IERC20Metadata(_wethAddress).decimals() */\n  0xff\n  and\n  0xe0\n  dup2\n  0xff\n  and\n  dup2\n  mstore\n  pop\n  pop\n    /* \"hopium/uniswap/main/price-oracle.sol\":9033:9420  constructor(... */\n  pop\n  pop\n  pop\n  pop\n    /* \"hopium/uniswap/main/price-oracle.sol\":8994:13883  contract PriceOracle is Helpers {... */\n  jump(tag_14)\n    /* \"hopium/common/interface/imDirectory.sol\":589:1050  function _setDirectory(address _directory) internal {... */\ntag_8:\n    /* \"hopium/common/interface/imDirectory.sol\":681:682  0 */\n  0x00\n    /* \"hopium/common/interface/imDirectory.sol\":659:683  _directory != address(0) */\n  0xffffffffffffffffffffffffffffffffffffffff\n  and\n    /* \"hopium/common/interface/imDirectory.sol\":659:669  _directory */\n  dup2\n    /* \"hopium/common/interface/imDirectory.sol\":659:683  _directory != address(0) */\n  0xffffffffffffffffffffffffffffffffffffffff\n  and\n  sub\n    /* \"hopium/common/interface/imDirectory.sol\":651:720  require(_directory != address(0), \"Directory cannot be zero address\") */\n  tag_16\n  jumpi\n  mload(0x40)\n  0x08c379a000000000000000000000000000000000000000000000000000000000\n  dup2\n  mstore\n  0x04\n  add\n  tag_17\n  swap1\n  tag_18\n  jump\t// in\ntag_17:\n  mload(0x40)\n  dup1\n  swap2\n  sub\n  swap1\n  revert\ntag_16:\n    /* \"hopium/common/interface/imDirectory.sol\":763:764  0 */\n  0x00\n    /* \"hopium/common/interface/imDirectory.sol\":738:748  _directory */\n  dup2\n    /* \"hopium/common/interface/imDirectory.sol\":738:760  _directory.code.length */\n  0xffffffffffffffffffffffffffffffffffffffff\n  and\n  extcodesize\n    /* \"hopium/common/interface/imDirectory.sol\":738:764  _directory.code.length > 0 */\n  gt\n    /* \"hopium/common/interface/imDirectory.sol\":730:797  require(_directory.code.length > 0, \"Directory must be a contract\") */\n  tag_19\n  jumpi\n  mload(0x40)\n  0x08c379a000000000000000000000000000000000000000000000000000000000\n  dup2\n  mstore\n  0x04\n  add\n  tag_20\n  swap1\n  tag_21\n  jump\t// in\ntag_20:\n  mload(0x40)\n  dup1\n  swap2\n  sub\n  swap1\n  revert\ntag_19:\n    /* \"hopium/common/interface/imDirectory.sol\":861:871  _directory */\n  dup1\n    /* \"hopium/common/interface/imDirectory.sol\":850:878  IDirectory(_directory).owner */\n  0xffffffffffffffffffffffffffffffffffffffff\n  and\n  0x8da5cb5b\n    /* \"hopium/common/interface/imDirectory.sol\":850:880  IDirectory(_directory).owner() */\n  mload(0x40)\n  dup2\n  0xffffffff\n  and\n  0xe0\n  shl\n  dup2\n  mstore\n  0x04\n  add\n  0x20\n  mload(0x40)\n  dup1\n  dup4\n  sub\n  dup2\n  dup7\n  gas\n  staticcall\n  swap3\n  pop\n  pop\n  pop\n  dup1\n  iszero\n  tag_22\n  jumpi\n  pop\n  mload(0x40)\n  returndatasize\n  not(0x1f)\n  0x1f\n  dup3\n  add\n  and\n  dup3\n  add\n  dup1\n  0x40\n  mstore\n  pop\n  dup2\n  add\n  swap1\n  tag_23\n  swap2\n  swap1\n  tag_24\n  jump\t// in\ntag_23:\n  0x01\ntag_22:\n    /* \"hopium/common/interface/imDirectory.sol\":846:1044  try IDirectory(_directory).owner() returns (address) {... */\n  tag_25\n  jumpi\n    /* \"hopium/common/interface/imDirectory.sol\":979:1033  revert(\"Directory address does not implement owner()\") */\n  mload(0x40)\n  0x08c379a000000000000000000000000000000000000000000000000000000000\n  dup2\n  mstore\n  0x04\n  add\n  tag_29\n  swap1\n  tag_30\n  jump\t// in\ntag_29:\n  mload(0x40)\n  dup1\n  swap2\n  sub\n  swap1\n  revert\n    /* \"hopium/common/interface/imDirectory.sol\":846:1044  try IDirectory(_directory).owner() returns (address) {... */\ntag_25:\n    /* \"hopium/common/interface/imDirectory.sol\":936:946  _directory */\n  dup2\n    /* \"hopium/common/interface/imDirectory.sol\":913:922  Directory */\n  0x00\n  0x00\n    /* \"hopium/common/interface/imDirectory.sol\":913:947  Directory = IDirectory(_directory) */\n  0x0100\n  exp\n  dup2\n  sload\n  dup2\n  0xffffffffffffffffffffffffffffffffffffffff\n  mul\n  not\n  and\n  swap1\n  dup4\n  0xffffffffffffffffffffffffffffffffffffffff\n  and\n  mul\n  or\n  swap1\n  sstore\n  pop\n    /* \"hopium/common/interface/imDirectory.sol\":881:958  returns (address) {... */\n  pop\n    /* \"hopium/common/interface/imDirectory.sol\":589:1050  function _setDirectory(address _directory) internal {... */\n  pop\n  jump\t// out\n    /* \"#utility.yul\":88:205   */\ntag_33:\n    /* \"#utility.yul\":197:198   */\n  0x00\n    /* \"#utility.yul\":194:195   */\n  0x00\n    /* \"#utility.yul\":187:199   */\n  revert\n    /* \"#utility.yul\":334:460   */\ntag_35:\n    /* \"#utility.yul\":371:378   */\n  0x00\n    /* \"#utility.yul\":411:453   */\n  0xffffffffffffffffffffffffffffffffffffffff\n    /* \"#utility.yul\":404:409   */\n  dup3\n    /* \"#utility.yul\":400:454   */\n  and\n    /* \"#utility.yul\":389:454   */\n  swap1\n  pop\n    /* \"#utility.yul\":334:460   */\n  swap2\n  swap1\n  pop\n  jump\t// out\n    /* \"#utility.yul\":466:562   */\ntag_36:\n    /* \"#utility.yul\":503:510   */\n  0x00\n    /* \"#utility.yul\":532:556   */\n  tag_58\n    /* \"#utility.yul\":550:555   */\n  dup3\n    /* \"#utility.yul\":532:556   */\n  tag_35\n  jump\t// in\ntag_58:\n    /* \"#utility.yul\":521:556   */\n  swap1\n  pop\n    /* \"#utility.yul\":466:562   */\n  swap2\n  swap1\n  pop\n  jump\t// out\n    /* \"#utility.yul\":568:690   */\ntag_37:\n    /* \"#utility.yul\":641:665   */\n  tag_60\n    /* \"#utility.yul\":659:664   */\n  dup2\n    /* \"#utility.yul\":641:665   */\n  tag_36\n  jump\t// in\ntag_60:\n    /* \"#utility.yul\":634:639   */\n  dup2\n    /* \"#utility.yul\":631:666   */\n  eq\n    /* \"#utility.yul\":621:684   */\n  tag_61\n  jumpi\n    /* \"#utility.yul\":680:681   */\n  0x00\n    /* \"#utility.yul\":677:678   */\n  0x00\n    /* \"#utility.yul\":670:682   */\n  revert\n    /* \"#utility.yul\":621:684   */\ntag_61:\n    /* \"#utility.yul\":568:690   */\n  pop\n  jump\t// out\n    /* \"#utility.yul\":696:839   */\ntag_38:\n    /* \"#utility.yul\":753:758   */\n  0x00\n    /* \"#utility.yul\":784:790   */\n  dup2\n    /* \"#utility.yul\":778:791   */\n  mload\n    /* \"#utility.yul\":769:791   */\n  swap1\n  pop\n    /* \"#utility.yul\":800:833   */\n  tag_63\n    /* \"#utility.yul\":827:832   */\n  dup2\n    /* \"#utility.yul\":800:833   */\n  tag_37\n  jump\t// in\ntag_63:\n    /* \"#utility.yul\":696:839   */\n  swap3\n  swap2\n  pop\n  pop\n  jump\t// out\n    /* \"#utility.yul\":845:935   */\ntag_39:\n    /* \"#utility.yul\":879:886   */\n  0x00\n    /* \"#utility.yul\":922:927   */\n  dup2\n    /* \"#utility.yul\":915:928   */\n  iszero\n    /* \"#utility.yul\":908:929   */\n  iszero\n    /* \"#utility.yul\":897:929   */\n  swap1\n  pop\n    /* \"#utility.yul\":845:935   */\n  swap2\n  swap1\n  pop\n  jump\t// out\n    /* \"#utility.yul\":941:1057   */\ntag_40:\n    /* \"#utility.yul\":1011:1032   */\n  tag_66\n    /* \"#utility.yul\":1026:1031   */\n  dup2\n    /* \"#utility.yul\":1011:1032   */\n  tag_39\n  jump\t// in\ntag_66:\n    /* \"#utility.yul\":1004:1009   */\n  dup2\n    /* \"#utility.yul\":1001:1033   */\n  eq\n    /* \"#utility.yul\":991:1051   */\n  tag_67\n  jumpi\n    /* \"#utility.yul\":1047:1048   */\n  0x00\n    /* \"#utility.yul\":1044:1045   */\n  0x00\n    /* \"#utility.yul\":1037:1049   */\n  revert\n    /* \"#utility.yul\":991:1051   */\ntag_67:\n    /* \"#utility.yul\":941:1057   */\n  pop\n  jump\t// out\n    /* \"#utility.yul\":1063:1200   */\ntag_41:\n    /* \"#utility.yul\":1117:1122   */\n  0x00\n    /* \"#utility.yul\":1148:1154   */\n  dup2\n    /* \"#utility.yul\":1142:1155   */\n  mload\n    /* \"#utility.yul\":1133:1155   */\n  swap1\n  pop\n    /* \"#utility.yul\":1164:1194   */\n  tag_69\n    /* \"#utility.yul\":1188:1193   */\n  dup2\n    /* \"#utility.yul\":1164:1194   */\n  tag_40\n  jump\t// in\ntag_69:\n    /* \"#utility.yul\":1063:1200   */\n  swap3\n  swap2\n  pop\n  pop\n  jump\t// out\n    /* \"#utility.yul\":1206:2020   */\ntag_3:\n    /* \"#utility.yul\":1300:1306   */\n  0x00\n    /* \"#utility.yul\":1308:1314   */\n  0x00\n    /* \"#utility.yul\":1316:1322   */\n  0x00\n    /* \"#utility.yul\":1324:1330   */\n  0x00\n    /* \"#utility.yul\":1373:1376   */\n  0x80\n    /* \"#utility.yul\":1361:1370   */\n  dup6\n    /* \"#utility.yul\":1352:1359   */\n  dup8\n    /* \"#utility.yul\":1348:1371   */\n  sub\n    /* \"#utility.yul\":1344:1377   */\n  slt\n    /* \"#utility.yul\":1341:1461   */\n  iszero\n  tag_71\n  jumpi\n    /* \"#utility.yul\":1380:1459   */\n  tag_72\n  tag_33\n  jump\t// in\ntag_72:\n    /* \"#utility.yul\":1341:1461   */\ntag_71:\n    /* \"#utility.yul\":1500:1501   */\n  0x00\n    /* \"#utility.yul\":1525:1589   */\n  tag_73\n    /* \"#utility.yul\":1581:1588   */\n  dup8\n    /* \"#utility.yul\":1572:1578   */\n  dup3\n    /* \"#utility.yul\":1561:1570   */\n  dup9\n    /* \"#utility.yul\":1557:1579   */\n  add\n    /* \"#utility.yul\":1525:1589   */\n  tag_38\n  jump\t// in\ntag_73:\n    /* \"#utility.yul\":1515:1589   */\n  swap5\n  pop\n    /* \"#utility.yul\":1471:1599   */\n  pop\n    /* \"#utility.yul\":1638:1640   */\n  0x20\n    /* \"#utility.yul\":1664:1728   */\n  tag_74\n    /* \"#utility.yul\":1720:1727   */\n  dup8\n    /* \"#utility.yul\":1711:1717   */\n  dup3\n    /* \"#utility.yul\":1700:1709   */\n  dup9\n    /* \"#utility.yul\":1696:1718   */\n  add\n    /* \"#utility.yul\":1664:1728   */\n  tag_38\n  jump\t// in\ntag_74:\n    /* \"#utility.yul\":1654:1728   */\n  swap4\n  pop\n    /* \"#utility.yul\":1609:1738   */\n  pop\n    /* \"#utility.yul\":1777:1779   */\n  0x40\n    /* \"#utility.yul\":1803:1867   */\n  tag_75\n    /* \"#utility.yul\":1859:1866   */\n  dup8\n    /* \"#utility.yul\":1850:1856   */\n  dup3\n    /* \"#utility.yul\":1839:1848   */\n  dup9\n    /* \"#utility.yul\":1835:1857   */\n  add\n    /* \"#utility.yul\":1803:1867   */\n  tag_38\n  jump\t// in\ntag_75:\n    /* \"#utility.yul\":1793:1867   */\n  swap3\n  pop\n    /* \"#utility.yul\":1748:1877   */\n  pop\n    /* \"#utility.yul\":1916:1918   */\n  0x60\n    /* \"#utility.yul\":1942:2003   */\n  tag_76\n    /* \"#utility.yul\":1995:2002   */\n  dup8\n    /* \"#utility.yul\":1986:1992   */\n  dup3\n    /* \"#utility.yul\":1975:1984   */\n  dup9\n    /* \"#utility.yul\":1971:1993   */\n  add\n    /* \"#utility.yul\":1942:2003   */\n  tag_41\n  jump\t// in\ntag_76:\n    /* \"#utility.yul\":1932:2003   */\n  swap2\n  pop\n    /* \"#utility.yul\":1887:2013   */\n  pop\n    /* \"#utility.yul\":1206:2020   */\n  swap3\n  swap6\n  swap2\n  swap5\n  pop\n  swap3\n  pop\n  jump\t// out\n    /* \"#utility.yul\":2026:2112   */\ntag_42:\n    /* \"#utility.yul\":2061:2068   */\n  0x00\n    /* \"#utility.yul\":2101:2105   */\n  0xff\n    /* \"#utility.yul\":2094:2099   */\n  dup3\n    /* \"#utility.yul\":2090:2106   */\n  and\n    /* \"#utility.yul\":2079:2106   */\n  swap1\n  pop\n    /* \"#utility.yul\":2026:2112   */\n  swap2\n  swap1\n  pop\n  jump\t// out\n    /* \"#utility.yul\":2118:2236   */\ntag_43:\n    /* \"#utility.yul\":2189:2211   */\n  tag_79\n    /* \"#utility.yul\":2205:2210   */\n  dup2\n    /* \"#utility.yul\":2189:2211   */\n  tag_42\n  jump\t// in\ntag_79:\n    /* \"#utility.yul\":2182:2187   */\n  dup2\n    /* \"#utility.yul\":2179:2212   */\n  eq\n    /* \"#utility.yul\":2169:2230   */\n  tag_80\n  jumpi\n    /* \"#utility.yul\":2226:2227   */\n  0x00\n    /* \"#utility.yul\":2223:2224   */\n  0x00\n    /* \"#utility.yul\":2216:2228   */\n  revert\n    /* \"#utility.yul\":2169:2230   */\ntag_80:\n    /* \"#utility.yul\":2118:2236   */\n  pop\n  jump\t// out\n    /* \"#utility.yul\":2242:2381   */\ntag_44:\n    /* \"#utility.yul\":2297:2302   */\n  0x00\n    /* \"#utility.yul\":2328:2334   */\n  dup2\n    /* \"#utility.yul\":2322:2335   */\n  mload\n    /* \"#utility.yul\":2313:2335   */\n  swap1\n  pop\n    /* \"#utility.yul\":2344:2375   */\n  tag_82\n    /* \"#utility.yul\":2369:2374   */\n  dup2\n    /* \"#utility.yul\":2344:2375   */\n  tag_43\n  jump\t// in\ntag_82:\n    /* \"#utility.yul\":2242:2381   */\n  swap3\n  swap2\n  pop\n  pop\n  jump\t// out\n    /* \"#utility.yul\":2387:2734   */\ntag_13:\n    /* \"#utility.yul\":2455:2461   */\n  0x00\n    /* \"#utility.yul\":2504:2506   */\n  0x20\n    /* \"#utility.yul\":2492:2501   */\n  dup3\n    /* \"#utility.yul\":2483:2490   */\n  dup5\n    /* \"#utility.yul\":2479:2502   */\n  sub\n    /* \"#utility.yul\":2475:2507   */\n  slt\n    /* \"#utility.yul\":2472:2591   */\n  iszero\n  tag_84\n  jumpi\n    /* \"#utility.yul\":2510:2589   */\n  tag_85\n  tag_33\n  jump\t// in\ntag_85:\n    /* \"#utility.yul\":2472:2591   */\ntag_84:\n    /* \"#utility.yul\":2630:2631   */\n  0x00\n    /* \"#utility.yul\":2655:2717   */\n  tag_86\n    /* \"#utility.yul\":2709:2716   */\n  dup5\n    /* \"#utility.yul\":2700:2706   */\n  dup3\n    /* \"#utility.yul\":2689:2698   */\n  dup6\n    /* \"#utility.yul\":2685:2707   */\n  add\n    /* \"#utility.yul\":2655:2717   */\n  tag_44\n  jump\t// in\ntag_86:\n    /* \"#utility.yul\":2645:2717   */\n  swap2\n  pop\n    /* \"#utility.yul\":2601:2727   */\n  pop\n    /* \"#utility.yul\":2387:2734   */\n  swap3\n  swap2\n  pop\n  pop\n  jump\t// out\n    /* \"#utility.yul\":2740:2909   */\ntag_45:\n    /* \"#utility.yul\":2824:2835   */\n  0x00\n    /* \"#utility.yul\":2858:2864   */\n  dup3\n    /* \"#utility.yul\":2853:2856   */\n  dup3\n    /* \"#utility.yul\":2846:2865   */\n  mstore\n    /* \"#utility.yul\":2898:2902   */\n  0x20\n    /* \"#utility.yul\":2893:2896   */\n  dup3\n    /* \"#utility.yul\":2889:2903   */\n  add\n    /* \"#utility.yul\":2874:2903   */\n  swap1\n  pop\n    /* \"#utility.yul\":2740:2909   */\n  swap3\n  swap2\n  pop\n  pop\n  jump\t// out\n    /* \"#utility.yul\":2915:3097   */\ntag_46:\n    /* \"#utility.yul\":3055:3089   */\n  0x4469726563746f72792063616e6e6f74206265207a65726f2061646472657373\n    /* \"#utility.yul\":3051:3052   */\n  0x00\n    /* \"#utility.yul\":3043:3049   */\n  dup3\n    /* \"#utility.yul\":3039:3053   */\n  add\n    /* \"#utility.yul\":3032:3090   */\n  mstore\n    /* \"#utility.yul\":2915:3097   */\n  pop\n  jump\t// out\n    /* \"#utility.yul\":3103:3469   */\ntag_47:\n    /* \"#utility.yul\":3245:3248   */\n  0x00\n    /* \"#utility.yul\":3266:3333   */\n  tag_90\n    /* \"#utility.yul\":3330:3332   */\n  0x20\n    /* \"#utility.yul\":3325:3328   */\n  dup4\n    /* \"#utility.yul\":3266:3333   */\n  tag_45\n  jump\t// in\ntag_90:\n    /* \"#utility.yul\":3259:3333   */\n  swap2\n  pop\n    /* \"#utility.yul\":3342:3435   */\n  tag_91\n    /* \"#utility.yul\":3431:3434   */\n  dup3\n    /* \"#utility.yul\":3342:3435   */\n  tag_46\n  jump\t// in\ntag_91:\n    /* \"#utility.yul\":3460:3462   */\n  0x20\n    /* \"#utility.yul\":3455:3458   */\n  dup3\n    /* \"#utility.yul\":3451:3463   */\n  add\n    /* \"#utility.yul\":3444:3463   */\n  swap1\n  pop\n    /* \"#utility.yul\":3103:3469   */\n  swap2\n  swap1\n  pop\n  jump\t// out\n    /* \"#utility.yul\":3475:3894   */\ntag_18:\n    /* \"#utility.yul\":3641:3645   */\n  0x00\n    /* \"#utility.yul\":3679:3681   */\n  0x20\n    /* \"#utility.yul\":3668:3677   */\n  dup3\n    /* \"#utility.yul\":3664:3682   */\n  add\n    /* \"#utility.yul\":3656:3682   */\n  swap1\n  pop\n    /* \"#utility.yul\":3728:3737   */\n  dup2\n    /* \"#utility.yul\":3722:3726   */\n  dup2\n    /* \"#utility.yul\":3718:3738   */\n  sub\n    /* \"#utility.yul\":3714:3715   */\n  0x00\n    /* \"#utility.yul\":3703:3712   */\n  dup4\n    /* \"#utility.yul\":3699:3716   */\n  add\n    /* \"#utility.yul\":3692:3739   */\n  mstore\n    /* \"#utility.yul\":3756:3887   */\n  tag_93\n    /* \"#utility.yul\":3882:3886   */\n  dup2\n    /* \"#utility.yul\":3756:3887   */\n  tag_47\n  jump\t// in\ntag_93:\n    /* \"#utility.yul\":3748:3887   */\n  swap1\n  pop\n    /* \"#utility.yul\":3475:3894   */\n  swap2\n  swap1\n  pop\n  jump\t// out\n    /* \"#utility.yul\":3900:4078   */\ntag_48:\n    /* \"#utility.yul\":4040:4070   */\n  0x4469726563746f7279206d757374206265206120636f6e747261637400000000\n    /* \"#utility.yul\":4036:4037   */\n  0x00\n    /* \"#utility.yul\":4028:4034   */\n  dup3\n    /* \"#utility.yul\":4024:4038   */\n  add\n    /* \"#utility.yul\":4017:4071   */\n  mstore\n    /* \"#utility.yul\":3900:4078   */\n  pop\n  jump\t// out\n    /* \"#utility.yul\":4084:4450   */\ntag_49:\n    /* \"#utility.yul\":4226:4229   */\n  0x00\n    /* \"#utility.yul\":4247:4314   */\n  tag_96\n    /* \"#utility.yul\":4311:4313   */\n  0x1c\n    /* \"#utility.yul\":4306:4309   */\n  dup4\n    /* \"#utility.yul\":4247:4314   */\n  tag_45\n  jump\t// in\ntag_96:\n    /* \"#utility.yul\":4240:4314   */\n  swap2\n  pop\n    /* \"#utility.yul\":4323:4416   */\n  tag_97\n    /* \"#utility.yul\":4412:4415   */\n  dup3\n    /* \"#utility.yul\":4323:4416   */\n  tag_48\n  jump\t// in\ntag_97:\n    /* \"#utility.yul\":4441:4443   */\n  0x20\n    /* \"#utility.yul\":4436:4439   */\n  dup3\n    /* \"#utility.yul\":4432:4444   */\n  add\n    /* \"#utility.yul\":4425:4444   */\n  swap1\n  pop\n    /* \"#utility.yul\":4084:4450   */\n  swap2\n  swap1\n  pop\n  jump\t// out\n    /* \"#utility.yul\":4456:4875   */\ntag_21:\n    /* \"#utility.yul\":4622:4626   */\n  0x00\n    /* \"#utility.yul\":4660:4662   */\n  0x20\n    /* \"#utility.yul\":4649:4658   */\n  dup3\n    /* \"#utility.yul\":4645:4663   */\n  add\n    /* \"#utility.yul\":4637:4663   */\n  swap1\n  pop\n    /* \"#utility.yul\":4709:4718   */\n  dup2\n    /* \"#utility.yul\":4703:4707   */\n  dup2\n    /* \"#utility.yul\":4699:4719   */\n  sub\n    /* \"#utility.yul\":4695:4696   */\n  0x00\n    /* \"#utility.yul\":4684:4693   */\n  dup4\n    /* \"#utility.yul\":4680:4697   */\n  add\n    /* \"#utility.yul\":4673:4720   */\n  mstore\n    /* \"#utility.yul\":4737:4868   */\n  tag_99\n    /* \"#utility.yul\":4863:4867   */\n  dup2\n    /* \"#utility.yul\":4737:4868   */\n  tag_49\n  jump\t// in\ntag_99:\n    /* \"#utility.yul\":4729:4868   */\n  swap1\n  pop\n    /* \"#utility.yul\":4456:4875   */\n  swap2\n  swap1\n  pop\n  jump\t// out\n    /* \"#utility.yul\":4881:5232   */\ntag_24:\n    /* \"#utility.yul\":4951:4957   */\n  0x00\n    /* \"#utility.yul\":5000:5002   */\n  0x20\n    /* \"#utility.yul\":4988:4997   */\n  dup3\n    /* \"#utility.yul\":4979:4986   */\n  dup5\n    /* \"#utility.yul\":4975:4998   */\n  sub\n    /* \"#utility.yul\":4971:5003   */\n  slt\n    /* \"#utility.yul\":4968:5087   */\n  iszero\n  tag_101\n  jumpi\n    /* \"#utility.yul\":5006:5085   */\n  tag_102\n  tag_33\n  jump\t// in\ntag_102:\n    /* \"#utility.yul\":4968:5087   */\ntag_101:\n    /* \"#utility.yul\":5126:5127   */\n  0x00\n    /* \"#utility.yul\":5151:5215   */\n  tag_103\n    /* \"#utility.yul\":5207:5214   */\n  dup5\n    /* \"#utility.yul\":5198:5204   */\n  dup3\n    /* \"#utility.yul\":5187:5196   */\n  dup6\n    /* \"#utility.yul\":5183:5205   */\n  add\n    /* \"#utility.yul\":5151:5215   */\n  tag_38\n  jump\t// in\ntag_103:\n    /* \"#utility.yul\":5141:5215   */\n  swap2\n  pop\n    /* \"#utility.yul\":5097:5225   */\n  pop\n    /* \"#utility.yul\":4881:5232   */\n  swap3\n  swap2\n  pop\n  pop\n  jump\t// out\n    /* \"#utility.yul\":5238:5469   */\ntag_50:\n    /* \"#utility.yul\":5378:5412   */\n  0x4469726563746f7279206164647265737320646f6573206e6f7420696d706c65\n    /* \"#utility.yul\":5374:5375   */\n  0x00\n    /* \"#utility.yul\":5366:5372   */\n  dup3\n    /* \"#utility.yul\":5362:5376   */\n  add\n    /* \"#utility.yul\":5355:5413   */\n  mstore\n    /* \"#utility.yul\":5447:5461   */\n  0x6d656e74206f776e657228290000000000000000000000000000000000000000\n    /* \"#utility.yul\":5442:5444   */\n  0x20\n    /* \"#utility.yul\":5434:5440   */\n  dup3\n    /* \"#utility.yul\":5430:5445   */\n  add\n    /* \"#utility.yul\":5423:5462   */\n  mstore\n    /* \"#utility.yul\":5238:5469   */\n  pop\n  jump\t// out\n    /* \"#utility.yul\":5475:5841   */\ntag_51:\n    /* \"#utility.yul\":5617:5620   */\n  0x00\n    /* \"#utility.yul\":5638:5705   */\n  tag_106\n    /* \"#utility.yul\":5702:5704   */\n  0x2c\n    /* \"#utility.yul\":5697:5700   */\n  dup4\n    /* \"#utility.yul\":5638:5705   */\n  tag_45\n  jump\t// in\ntag_106:\n    /* \"#utility.yul\":5631:5705   */\n  swap2\n  pop\n    /* \"#utility.yul\":5714:5807   */\n  tag_107\n    /* \"#utility.yul\":5803:5806   */\n  dup3\n    /* \"#utility.yul\":5714:5807   */\n  tag_50\n  jump\t// in\ntag_107:\n    /* \"#utility.yul\":5832:5834   */\n  0x40\n    /* \"#utility.yul\":5827:5830   */\n  dup3\n    /* \"#utility.yul\":5823:5835   */\n  add\n    /* \"#utility.yul\":5816:5835   */\n  swap1\n  pop\n    /* \"#utility.yul\":5475:5841   */\n  swap2\n  swap1\n  pop\n  jump\t// out\n    /* \"#utility.yul\":5847:6266   */\ntag_30:\n    /* \"#utility.yul\":6013:6017   */\n  0x00\n    /* \"#utility.yul\":6051:6053   */\n  0x20\n    /* \"#utility.yul\":6040:6049   */\n  dup3\n    /* \"#utility.yul\":6036:6054   */\n  add\n    /* \"#utility.yul\":6028:6054   */\n  swap1\n  pop\n    /* \"#utility.yul\":6100:6109   */\n  dup2\n    /* \"#utility.yul\":6094:6098   */\n  dup2\n    /* \"#utility.yul\":6090:6110   */\n  sub\n    /* \"#utility.yul\":6086:6087   */\n  0x00\n    /* \"#utility.yul\":6075:6084   */\n  dup4\n    /* \"#utility.yul\":6071:6088   */\n  add\n    /* \"#utility.yul\":6064:6111   */\n  mstore\n    /* \"#utility.yul\":6128:6259   */\n  tag_109\n    /* \"#utility.yul\":6254:6258   */\n  dup2\n    /* \"#utility.yul\":6128:6259   */\n  tag_51\n  jump\t// in\ntag_109:\n    /* \"#utility.yul\":6120:6259   */\n  swap1\n  pop\n    /* \"#utility.yul\":5847:6266   */\n  swap2\n  swap1\n  pop\n  jump\t// out\n    /* \"hopium/uniswap/main/price-oracle.sol\":8994:13883  contract PriceOracle is Helpers {... */\ntag_14:\n  mload(0x80)\n  mload(0xa0)\n  mload(0xc0)\n  mload(0xe0)\n  codecopy(0x00, dataOffset(sub_0), dataSize(sub_0))\n  0x00\n  assignImmutable(\"0x210c6dc030d16d93e71bd8a0ecd615dd69a77cede0d36bea3b672407192c1399\")\n  0x00\n  assignImmutable(\"0x1615de156c662ff72892fae17ce471b57fc12c99ad066f4eb8422085be4080ba\")\n  0x00\n  assignImmutable(\"0x25ec9d167989b22f9141435a0d3c1358a4d05d255347eb8e6b7cc27464dcd4c2\")\n  0x00\n  assignImmutable(\"0x37301bd2250725859d0828580abc1f8bed4237e0bea6ff3a6619f0857f6a4ef1\")\n  return(0x00, dataSize(sub_0))\nstop\n\nsub_0: assembly {\n        /* \"hopium/uniswap/main/price-oracle.sol\":8994:13883  contract PriceOracle is Helpers {... */\n      mstore(0x40, 0x80)\n      callvalue\n      dup1\n      iszero\n      tag_1\n      jumpi\n      revert(0x00, 0x00)\n    tag_1:\n      pop\n      jumpi(tag_2, lt(calldatasize, 0x04))\n      shr(0xe0, calldataload(0x00))\n      dup1\n      0x658a847a\n      gt\n      tag_19\n      jumpi\n      dup1\n      0x7d1aa610\n      gt\n      tag_20\n      jumpi\n      dup1\n      0x7d1aa610\n      eq\n      tag_15\n      jumpi\n      dup1\n      0x8da5cb5b\n      eq\n      tag_16\n      jumpi\n      dup1\n      0xba4c7be1\n      eq\n      tag_17\n      jumpi\n      dup1\n      0xd08aef7c\n      eq\n      tag_18\n      jumpi\n      jump(tag_2)\n    tag_20:\n      dup1\n      0x658a847a\n      eq\n      tag_11\n      jumpi\n      dup1\n      0x6855e939\n      eq\n      tag_12\n      jumpi\n      dup1\n      0x69a2e17d\n      eq\n      tag_13\n      jumpi\n      dup1\n      0x7b49b49d\n      eq\n      tag_14\n      jumpi\n      jump(tag_2)\n    tag_19:\n      dup1\n      0x27262618\n      gt\n      tag_21\n      jumpi\n      dup1\n      0x27262618\n      eq\n      tag_7\n      jumpi\n      dup1\n      0x5498f4bc\n      eq\n      tag_8\n      jumpi\n      dup1\n      0x57b6c133\n      eq\n      tag_9\n      jumpi\n      dup1\n      0x63aa0c93\n      eq\n      tag_10\n      jumpi\n      jump(tag_2)\n    tag_21:\n      dup1\n      0x593bcf\n      eq\n      tag_3\n      jumpi\n      dup1\n      0x040141e5\n      eq\n      tag_4\n      jumpi\n      dup1\n      0x0b017603\n      eq\n      tag_5\n      jumpi\n      dup1\n      0x0dbc0d7d\n      eq\n      tag_6\n      jumpi\n    tag_2:\n      revert(0x00, 0x00)\n        /* \"hopium/uniswap/main/price-oracle.sol\":10807:11128  function getTokenUsdPrice(address tokenAddress) external view returns (uint256 price18) {... */\n    tag_3:\n      tag_22\n      0x04\n      dup1\n      calldatasize\n      sub\n      dup2\n      add\n      swap1\n      tag_23\n      swap2\n      swap1\n      tag_24\n      jump\t// in\n    tag_23:\n      tag_25\n      jump\t// in\n    tag_22:\n      mload(0x40)\n      tag_26\n      swap2\n      swap1\n      tag_27\n      jump\t// in\n    tag_26:\n      mload(0x40)\n      dup1\n      swap2\n      sub\n      swap1\n      return\n        /* \"hopium/uniswap/main/price-oracle.sol\":1191:1228  address public immutable WETH_ADDRESS */\n    tag_4:\n      tag_28\n      tag_29\n      jump\t// in\n    tag_28:\n      mload(0x40)\n      tag_30\n      swap2\n      swap1\n      tag_31\n      jump\t// in\n    tag_30:\n      mload(0x40)\n      dup1\n      swap2\n      sub\n      swap1\n      return\n        /* \"hopium/uniswap/main/price-oracle.sol\":1234:1280  address public immutable WETH_USD_PAIR_ADDRESS */\n    tag_5:\n      tag_32\n      tag_33\n      jump\t// in\n    tag_32:\n      mload(0x40)\n      tag_34\n      swap2\n      swap1\n      tag_31\n      jump\t// in\n    tag_34:\n      mload(0x40)\n      dup1\n      swap2\n      sub\n      swap1\n      return\n        /* \"hopium/uniswap/main/price-oracle.sol\":11352:12258  function getTokenLiquidityWeth(address tokenAddress) public view returns (uint256) {... */\n    tag_6:\n      tag_35\n      0x04\n      dup1\n      calldatasize\n      sub\n      dup2\n      add\n      swap1\n      tag_36\n      swap2\n      swap1\n      tag_24\n      jump\t// in\n    tag_36:\n      tag_37\n      jump\t// in\n    tag_35:\n      mload(0x40)\n      tag_38\n      swap2\n      swap1\n      tag_27\n      jump\t// in\n    tag_38:\n      mload(0x40)\n      dup1\n      swap2\n      sub\n      swap1\n      return\n        /* \"hopium/common/interface/imDirectory.sol\":1272:1408  function fetchFromDirectory(string memory _key) public view returns (address) {... */\n    tag_7:\n      tag_39\n      0x04\n      dup1\n      calldatasize\n      sub\n      dup2\n      add\n      swap1\n      tag_40\n      swap2\n      swap1\n      tag_41\n      jump\t// in\n    tag_40:\n      tag_42\n      jump\t// in\n    tag_39:\n      mload(0x40)\n      tag_43\n      swap2\n      swap1\n      tag_31\n      jump\t// in\n    tag_43:\n      mload(0x40)\n      dup1\n      swap2\n      sub\n      swap1\n      return\n        /* \"hopium/uniswap/main/price-oracle.sol\":1286:1335  bool public immutable IS_WETH_USD_PAIR_ADDRESS_V3 */\n    tag_8:\n      tag_44\n      tag_45\n      jump\t// in\n    tag_44:\n      mload(0x40)\n      tag_46\n      swap2\n      swap1\n      tag_47\n      jump\t// in\n    tag_46:\n      mload(0x40)\n      dup1\n      swap2\n      sub\n      swap1\n      return\n        /* \"hopium/uniswap/main/price-oracle.sol\":12349:12674  function getTokenLiquidityUsd(address tokenAddress) external view returns (uint256 totalLiquidityUsd18) {... */\n    tag_9:\n      tag_48\n      0x04\n      dup1\n      calldatasize\n      sub\n      dup2\n      add\n      swap1\n      tag_49\n      swap2\n      swap1\n      tag_24\n      jump\t// in\n    tag_49:\n      tag_50\n      jump\t// in\n    tag_48:\n      mload(0x40)\n      tag_51\n      swap2\n      swap1\n      tag_27\n      jump\t// in\n    tag_51:\n      mload(0x40)\n      dup1\n      swap2\n      sub\n      swap1\n      return\n        /* \"hopium/uniswap/main/price-oracle.sol\":12847:13345  function getTokenMarketCapWeth(address tokenAddress) public view returns (uint256) {... */\n    tag_10:\n      tag_52\n      0x04\n      dup1\n      calldatasize\n      sub\n      dup2\n      add\n      swap1\n      tag_53\n      swap2\n      swap1\n      tag_24\n      jump\t// in\n    tag_53:\n      tag_54\n      jump\t// in\n    tag_52:\n      mload(0x40)\n      tag_55\n      swap2\n      swap1\n      tag_27\n      jump\t// in\n    tag_55:\n      mload(0x40)\n      dup1\n      swap2\n      sub\n      swap1\n      return\n        /* \"hopium/common/interface/imDirectory.sol\":336:363  IDirectory public Directory */\n    tag_11:\n      tag_56\n      tag_57\n      jump\t// in\n    tag_56:\n      mload(0x40)\n      tag_58\n      swap2\n      swap1\n      tag_59\n      jump\t// in\n    tag_58:\n      mload(0x40)\n      dup1\n      swap2\n      sub\n      swap1\n      return\n        /* \"hopium/uniswap/main/price-oracle.sol\":9618:10060  function getWethUsdPrice() public view returns (uint256 price18) {... */\n    tag_12:\n      tag_60\n      tag_61\n      jump\t// in\n    tag_60:\n      mload(0x40)\n      tag_62\n      swap2\n      swap1\n      tag_27\n      jump\t// in\n    tag_62:\n      mload(0x40)\n      dup1\n      swap2\n      sub\n      swap1\n      return\n        /* \"hopium/uniswap/main/price-oracle.sol\":13410:13697  function getTokenMarketCapUsd(address tokenAddress) external view returns (uint256 marketCapUsd18) {... */\n    tag_13:\n      tag_63\n      0x04\n      dup1\n      calldatasize\n      sub\n      dup2\n      add\n      swap1\n      tag_64\n      swap2\n      swap1\n      tag_24\n      jump\t// in\n    tag_64:\n      tag_65\n      jump\t// in\n    tag_63:\n      mload(0x40)\n      tag_66\n      swap2\n      swap1\n      tag_27\n      jump\t// in\n    tag_66:\n      mload(0x40)\n      dup1\n      swap2\n      sub\n      swap1\n      return\n        /* \"hopium/uniswap/main/price-oracle.sol\":10189:10749  function getTokenWethPrice(address tokenAddress) public view returns (uint256) {... */\n    tag_14:\n      tag_67\n      0x04\n      dup1\n      calldatasize\n      sub\n      dup2\n      add\n      swap1\n      tag_68\n      swap2\n      swap1\n      tag_24\n      jump\t// in\n    tag_68:\n      tag_69\n      jump\t// in\n    tag_67:\n      mload(0x40)\n      tag_70\n      swap2\n      swap1\n      tag_27\n      jump\t// in\n    tag_70:\n      mload(0x40)\n      dup1\n      swap2\n      sub\n      swap1\n      return\n        /* \"hopium/uniswap/main/price-oracle.sol\":13703:13881  function getTokenWethPairAddress(address tokenAddress) external view returns (bool isV3Pool, address pairAddress) {... */\n    tag_15:\n      tag_71\n      0x04\n      dup1\n      calldatasize\n      sub\n      dup2\n      add\n      swap1\n      tag_72\n      swap2\n      swap1\n      tag_24\n      jump\t// in\n    tag_72:\n      tag_73\n      jump\t// in\n    tag_71:\n      mload(0x40)\n      tag_74\n      swap3\n      swap2\n      swap1\n      tag_75\n      jump\t// in\n    tag_74:\n      mload(0x40)\n      dup1\n      swap2\n      sub\n      swap1\n      return\n        /* \"hopium/common/interface/imDirectory.sol\":1178:1266  function owner() public view returns (address) {... */\n    tag_16:\n      tag_76\n      tag_77\n      jump\t// in\n    tag_76:\n      mload(0x40)\n      tag_78\n      swap2\n      swap1\n      tag_31\n      jump\t// in\n    tag_78:\n      mload(0x40)\n      dup1\n      swap2\n      sub\n      swap1\n      return\n        /* \"hopium/common/interface/imDirectory.sol\":470:583  function changeDirectoryAddress(address _directory) external onlyOwner {... */\n    tag_17:\n      tag_79\n      0x04\n      dup1\n      calldatasize\n      sub\n      dup2\n      add\n      swap1\n      tag_80\n      swap2\n      swap1\n      tag_24\n      jump\t// in\n    tag_80:\n      tag_81\n      jump\t// in\n    tag_79:\n      stop\n        /* \"hopium/uniswap/main/price-oracle.sol\":1342:1378  uint8 public immutable WETH_DECIMALS */\n    tag_18:\n      tag_82\n      tag_83\n      jump\t// in\n    tag_82:\n      mload(0x40)\n      tag_84\n      swap2\n      swap1\n      tag_85\n      jump\t// in\n    tag_84:\n      mload(0x40)\n      dup1\n      swap2\n      sub\n      swap1\n      return\n        /* \"hopium/uniswap/main/price-oracle.sol\":10807:11128  function getTokenUsdPrice(address tokenAddress) external view returns (uint256 price18) {... */\n    tag_25:\n        /* \"hopium/uniswap/main/price-oracle.sol\":10878:10893  uint256 price18 */\n      0x00\n        /* \"hopium/uniswap/main/price-oracle.sol\":10905:10922  uint256 tokenWeth */\n      0x00\n        /* \"hopium/uniswap/main/price-oracle.sol\":10925:10956  getTokenWethPrice(tokenAddress) */\n      tag_87\n        /* \"hopium/uniswap/main/price-oracle.sol\":10943:10955  tokenAddress */\n      dup4\n        /* \"hopium/uniswap/main/price-oracle.sol\":10925:10942  getTokenWethPrice */\n      tag_69\n        /* \"hopium/uniswap/main/price-oracle.sol\":10925:10956  getTokenWethPrice(tokenAddress) */\n      jump\t// in\n    tag_87:\n        /* \"hopium/uniswap/main/price-oracle.sol\":10905:10956  uint256 tokenWeth = getTokenWethPrice(tokenAddress) */\n      swap1\n      pop\n        /* \"hopium/uniswap/main/price-oracle.sol\":10993:11008  uint256 wethUsd */\n      0x00\n        /* \"hopium/uniswap/main/price-oracle.sol\":11013:11030  getWethUsdPrice() */\n      tag_88\n        /* \"hopium/uniswap/main/price-oracle.sol\":11013:11028  getWethUsdPrice */\n      tag_61\n        /* \"hopium/uniswap/main/price-oracle.sol\":11013:11030  getWethUsdPrice() */\n      jump\t// in\n    tag_88:\n        /* \"hopium/uniswap/main/price-oracle.sol\":10993:11030  uint256 wethUsd   = getWethUsdPrice() */\n      swap1\n      pop\n        /* \"hopium/uniswap/main/price-oracle.sol\":11089:11121  _mulDiv(tokenWeth, wethUsd, WAD) */\n      tag_89\n        /* \"hopium/uniswap/main/price-oracle.sol\":11097:11106  tokenWeth */\n      dup3\n        /* \"hopium/uniswap/main/price-oracle.sol\":11108:11115  wethUsd */\n      dup3\n        /* \"hopium/uniswap/main/price-oracle.sol\":3059:3063  1e18 */\n      0x0de0b6b3a7640000\n        /* \"hopium/uniswap/main/price-oracle.sol\":11089:11096  _mulDiv */\n      tag_90\n        /* \"hopium/uniswap/main/price-oracle.sol\":11089:11121  _mulDiv(tokenWeth, wethUsd, WAD) */\n      jump\t// in\n    tag_89:\n        /* \"hopium/uniswap/main/price-oracle.sol\":11079:11121  price18 = _mulDiv(tokenWeth, wethUsd, WAD) */\n      swap3\n      pop\n        /* \"hopium/uniswap/main/price-oracle.sol\":10895:11128  {... */\n      pop\n      pop\n        /* \"hopium/uniswap/main/price-oracle.sol\":10807:11128  function getTokenUsdPrice(address tokenAddress) external view returns (uint256 price18) {... */\n      swap2\n      swap1\n      pop\n      jump\t// out\n        /* \"hopium/uniswap/main/price-oracle.sol\":1191:1228  address public immutable WETH_ADDRESS */\n    tag_29:\n      immutable(\"0x37301bd2250725859d0828580abc1f8bed4237e0bea6ff3a6619f0857f6a4ef1\")\n      dup2\n      jump\t// out\n        /* \"hopium/uniswap/main/price-oracle.sol\":1234:1280  address public immutable WETH_USD_PAIR_ADDRESS */\n    tag_33:\n      immutable(\"0x25ec9d167989b22f9141435a0d3c1358a4d05d255347eb8e6b7cc27464dcd4c2\")\n      dup2\n      jump\t// out\n        /* \"hopium/uniswap/main/price-oracle.sol\":11352:12258  function getTokenLiquidityWeth(address tokenAddress) public view returns (uint256) {... */\n    tag_37:\n        /* \"hopium/uniswap/main/price-oracle.sol\":11426:11433  uint256 */\n      0x00\n        /* \"hopium/uniswap/main/price-oracle.sol\":11465:11477  WETH_ADDRESS */\n      immutable(\"0x37301bd2250725859d0828580abc1f8bed4237e0bea6ff3a6619f0857f6a4ef1\")\n        /* \"hopium/uniswap/main/price-oracle.sol\":11449:11477  tokenAddress == WETH_ADDRESS */\n      0xffffffffffffffffffffffffffffffffffffffff\n      and\n        /* \"hopium/uniswap/main/price-oracle.sol\":11449:11461  tokenAddress */\n      dup3\n        /* \"hopium/uniswap/main/price-oracle.sol\":11449:11477  tokenAddress == WETH_ADDRESS */\n      0xffffffffffffffffffffffffffffffffffffffff\n      and\n      sub\n        /* \"hopium/uniswap/main/price-oracle.sol\":11445:11611  if (tokenAddress == WETH_ADDRESS) {... */\n      tag_92\n      jumpi\n        /* \"hopium/uniswap/main/price-oracle.sol\":11493:11507  uint256 supply */\n      0x00\n        /* \"hopium/uniswap/main/price-oracle.sol\":11517:11529  WETH_ADDRESS */\n      immutable(\"0x37301bd2250725859d0828580abc1f8bed4237e0bea6ff3a6619f0857f6a4ef1\")\n        /* \"hopium/uniswap/main/price-oracle.sol\":11510:11542  IERC20(WETH_ADDRESS).totalSupply */\n      0xffffffffffffffffffffffffffffffffffffffff\n      and\n      0x18160ddd\n        /* \"hopium/uniswap/main/price-oracle.sol\":11510:11544  IERC20(WETH_ADDRESS).totalSupply() */\n      mload(0x40)\n      dup2\n      0xffffffff\n      and\n      0xe0\n      shl\n      dup2\n      mstore\n      0x04\n      add\n      0x20\n      mload(0x40)\n      dup1\n      dup4\n      sub\n      dup2\n      dup7\n      gas\n      staticcall\n      iszero\n      dup1\n      iszero\n      tag_94\n      jumpi\n      returndatacopy(0x00, 0x00, returndatasize)\n      revert(0x00, returndatasize)\n    tag_94:\n      pop\n      pop\n      pop\n      pop\n      mload(0x40)\n      returndatasize\n      not(0x1f)\n      0x1f\n      dup3\n      add\n      and\n      dup3\n      add\n      dup1\n      0x40\n      mstore\n      pop\n      dup2\n      add\n      swap1\n      tag_95\n      swap2\n      swap1\n      tag_96\n      jump\t// in\n    tag_95:\n        /* \"hopium/uniswap/main/price-oracle.sol\":11493:11544  uint256 supply = IERC20(WETH_ADDRESS).totalSupply() */\n      swap1\n      pop\n        /* \"hopium/uniswap/main/price-oracle.sol\":11565:11600  _scaleTo1e18(supply, WETH_DECIMALS) */\n      tag_97\n        /* \"hopium/uniswap/main/price-oracle.sol\":11578:11584  supply */\n      dup2\n        /* \"hopium/uniswap/main/price-oracle.sol\":11586:11599  WETH_DECIMALS */\n      immutable(\"0x210c6dc030d16d93e71bd8a0ecd615dd69a77cede0d36bea3b672407192c1399\")\n        /* \"hopium/uniswap/main/price-oracle.sol\":11565:11577  _scaleTo1e18 */\n      tag_98\n        /* \"hopium/uniswap/main/price-oracle.sol\":11565:11600  _scaleTo1e18(supply, WETH_DECIMALS) */\n      jump\t// in\n    tag_97:\n        /* \"hopium/uniswap/main/price-oracle.sol\":11558:11600  return _scaleTo1e18(supply, WETH_DECIMALS) */\n      swap2\n      pop\n      pop\n      jump(tag_91)\n        /* \"hopium/uniswap/main/price-oracle.sol\":11445:11611  if (tokenAddress == WETH_ADDRESS) {... */\n    tag_92:\n        /* \"hopium/uniswap/main/price-oracle.sol\":11621:11630  bool isV3 */\n      0x00\n        /* \"hopium/uniswap/main/price-oracle.sol\":11631:11643  address pair */\n      0x00\n        /* \"hopium/uniswap/main/price-oracle.sol\":11647:11687  _getTokenToWethPairAddress(tokenAddress) */\n      tag_99\n        /* \"hopium/uniswap/main/price-oracle.sol\":11674:11686  tokenAddress */\n      dup5\n        /* \"hopium/uniswap/main/price-oracle.sol\":11647:11673  _getTokenToWethPairAddress */\n      tag_100\n        /* \"hopium/uniswap/main/price-oracle.sol\":11647:11687  _getTokenToWethPairAddress(tokenAddress) */\n      jump\t// in\n    tag_99:\n        /* \"hopium/uniswap/main/price-oracle.sol\":11620:11687  (bool isV3,address pair) = _getTokenToWethPairAddress(tokenAddress) */\n      swap2\n      pop\n      swap2\n      pop\n        /* \"hopium/uniswap/main/price-oracle.sol\":11698:11718  uint256 reserveToken */\n      0x00\n        /* \"hopium/uniswap/main/price-oracle.sol\":11720:11730  uint8 decT */\n      0x00\n        /* \"hopium/uniswap/main/price-oracle.sol\":11732:11751  uint256 reserveWeth */\n      0x00\n        /* \"hopium/uniswap/main/price-oracle.sol\":11753:11763  uint8 decW */\n      0x00\n        /* \"hopium/uniswap/main/price-oracle.sol\":11780:11825  _getOrderedReserves(isV3, pair, tokenAddress) */\n      tag_101\n        /* \"hopium/uniswap/main/price-oracle.sol\":11800:11804  isV3 */\n      dup7\n        /* \"hopium/uniswap/main/price-oracle.sol\":11806:11810  pair */\n      dup7\n        /* \"hopium/uniswap/main/price-oracle.sol\":11812:11824  tokenAddress */\n      dup11\n        /* \"hopium/uniswap/main/price-oracle.sol\":11780:11799  _getOrderedReserves */\n      tag_102\n        /* \"hopium/uniswap/main/price-oracle.sol\":11780:11825  _getOrderedReserves(isV3, pair, tokenAddress) */\n      jump\t// in\n    tag_101:\n        /* \"hopium/uniswap/main/price-oracle.sol\":11697:11825  (uint256 reserveToken, uint8 decT, uint256 reserveWeth, uint8 decW,) =... */\n      pop\n      swap4\n      pop\n      swap4\n      pop\n      swap4\n      pop\n      swap4\n      pop\n        /* \"hopium/uniswap/main/price-oracle.sol\":11836:11857  uint256 tokenAmount18 */\n      0x00\n        /* \"hopium/uniswap/main/price-oracle.sol\":11860:11892  _scaleTo1e18(reserveToken, decT) */\n      tag_103\n        /* \"hopium/uniswap/main/price-oracle.sol\":11873:11885  reserveToken */\n      dup6\n        /* \"hopium/uniswap/main/price-oracle.sol\":11887:11891  decT */\n      dup6\n        /* \"hopium/uniswap/main/price-oracle.sol\":11860:11872  _scaleTo1e18 */\n      tag_98\n        /* \"hopium/uniswap/main/price-oracle.sol\":11860:11892  _scaleTo1e18(reserveToken, decT) */\n      jump\t// in\n    tag_103:\n        /* \"hopium/uniswap/main/price-oracle.sol\":11836:11892  uint256 tokenAmount18 = _scaleTo1e18(reserveToken, decT) */\n      swap1\n      pop\n        /* \"hopium/uniswap/main/price-oracle.sol\":11902:11922  uint256 wethAmount18 */\n      0x00\n        /* \"hopium/uniswap/main/price-oracle.sol\":11926:11958  _scaleTo1e18(reserveWeth,  decW) */\n      tag_104\n        /* \"hopium/uniswap/main/price-oracle.sol\":11939:11950  reserveWeth */\n      dup5\n        /* \"hopium/uniswap/main/price-oracle.sol\":11953:11957  decW */\n      dup5\n        /* \"hopium/uniswap/main/price-oracle.sol\":11926:11938  _scaleTo1e18 */\n      tag_98\n        /* \"hopium/uniswap/main/price-oracle.sol\":11926:11958  _scaleTo1e18(reserveWeth,  decW) */\n      jump\t// in\n    tag_104:\n        /* \"hopium/uniswap/main/price-oracle.sol\":11902:11958  uint256 wethAmount18  = _scaleTo1e18(reserveWeth,  decW) */\n      swap1\n      pop\n        /* \"hopium/uniswap/main/price-oracle.sol\":12024:12050  uint256 tokenPriceInWeth18 */\n      0x00\n        /* \"hopium/uniswap/main/price-oracle.sol\":12053:12100  _price18(reserveWeth, decW, reserveToken, decT) */\n      tag_105\n        /* \"hopium/uniswap/main/price-oracle.sol\":12062:12073  reserveWeth */\n      dup6\n        /* \"hopium/uniswap/main/price-oracle.sol\":12075:12079  decW */\n      dup6\n        /* \"hopium/uniswap/main/price-oracle.sol\":12081:12093  reserveToken */\n      dup10\n        /* \"hopium/uniswap/main/price-oracle.sol\":12095:12099  decT */\n      dup10\n        /* \"hopium/uniswap/main/price-oracle.sol\":12053:12061  _price18 */\n      tag_106\n        /* \"hopium/uniswap/main/price-oracle.sol\":12053:12100  _price18(reserveWeth, decW, reserveToken, decT) */\n      jump\t// in\n    tag_105:\n        /* \"hopium/uniswap/main/price-oracle.sol\":12024:12100  uint256 tokenPriceInWeth18 = _price18(reserveWeth, decW, reserveToken, decT) */\n      swap1\n      pop\n        /* \"hopium/uniswap/main/price-oracle.sol\":12110:12136  uint256 tokenValueInWeth18 */\n      0x00\n        /* \"hopium/uniswap/main/price-oracle.sol\":12139:12186  _mulDiv(tokenAmount18, tokenPriceInWeth18, WAD) */\n      tag_107\n        /* \"hopium/uniswap/main/price-oracle.sol\":12147:12160  tokenAmount18 */\n      dup5\n        /* \"hopium/uniswap/main/price-oracle.sol\":12162:12180  tokenPriceInWeth18 */\n      dup4\n        /* \"hopium/uniswap/main/price-oracle.sol\":3059:3063  1e18 */\n      0x0de0b6b3a7640000\n        /* \"hopium/uniswap/main/price-oracle.sol\":12139:12146  _mulDiv */\n      tag_90\n        /* \"hopium/uniswap/main/price-oracle.sol\":12139:12186  _mulDiv(tokenAmount18, tokenPriceInWeth18, WAD) */\n      jump\t// in\n    tag_107:\n        /* \"hopium/uniswap/main/price-oracle.sol\":12110:12186  uint256 tokenValueInWeth18 = _mulDiv(tokenAmount18, tokenPriceInWeth18, WAD) */\n      swap1\n      pop\n        /* \"hopium/uniswap/main/price-oracle.sol\":12237:12249  wethAmount18 */\n      dup3\n        /* \"hopium/uniswap/main/price-oracle.sol\":12216:12234  tokenValueInWeth18 */\n      dup2\n        /* \"hopium/uniswap/main/price-oracle.sol\":12216:12249  tokenValueInWeth18 + wethAmount18 */\n      add\n        /* \"hopium/uniswap/main/price-oracle.sol\":12209:12249  return tokenValueInWeth18 + wethAmount18 */\n      swap11\n      pop\n      pop\n      pop\n      pop\n      pop\n      pop\n      pop\n      pop\n      pop\n      pop\n      pop\n        /* \"hopium/uniswap/main/price-oracle.sol\":11352:12258  function getTokenLiquidityWeth(address tokenAddress) public view returns (uint256) {... */\n    tag_91:\n      swap2\n      swap1\n      pop\n      jump\t// out\n        /* \"hopium/common/interface/imDirectory.sol\":1272:1408  function fetchFromDirectory(string memory _key) public view returns (address) {... */\n    tag_42:\n        /* \"hopium/common/interface/imDirectory.sol\":1341:1348  address */\n      0x00\n        /* \"hopium/common/interface/imDirectory.sol\":1367:1376  Directory */\n      0x00\n      0x00\n      swap1\n      sload\n      swap1\n      0x0100\n      exp\n      swap1\n      div\n      0xffffffffffffffffffffffffffffffffffffffff\n      and\n        /* \"hopium/common/interface/imDirectory.sol\":1367:1395  Directory.fetchFromDirectory */\n      0xffffffffffffffffffffffffffffffffffffffff\n      and\n      0x27262618\n        /* \"hopium/common/interface/imDirectory.sol\":1396:1400  _key */\n      dup4\n        /* \"hopium/common/interface/imDirectory.sol\":1367:1401  Directory.fetchFromDirectory(_key) */\n      mload(0x40)\n      dup3\n      0xffffffff\n      and\n      0xe0\n      shl\n      dup2\n      mstore\n      0x04\n      add\n      tag_109\n      swap2\n      swap1\n      tag_110\n      jump\t// in\n    tag_109:\n      0x20\n      mload(0x40)\n      dup1\n      dup4\n      sub\n      dup2\n      dup7\n      gas\n      staticcall\n      iszero\n      dup1\n      iszero\n      tag_112\n      jumpi\n      returndatacopy(0x00, 0x00, returndatasize)\n      revert(0x00, returndatasize)\n    tag_112:\n      pop\n      pop\n      pop\n      pop\n      mload(0x40)\n      returndatasize\n      not(0x1f)\n      0x1f\n      dup3\n      add\n      and\n      dup3\n      add\n      dup1\n      0x40\n      mstore\n      pop\n      dup2\n      add\n      swap1\n      tag_113\n      swap2\n      swap1\n      tag_114\n      jump\t// in\n    tag_113:\n        /* \"hopium/common/interface/imDirectory.sol\":1360:1401  return Directory.fetchFromDirectory(_key) */\n      swap1\n      pop\n        /* \"hopium/common/interface/imDirectory.sol\":1272:1408  function fetchFromDirectory(string memory _key) public view returns (address) {... */\n      swap2\n      swap1\n      pop\n      jump\t// out\n        /* \"hopium/uniswap/main/price-oracle.sol\":1286:1335  bool public immutable IS_WETH_USD_PAIR_ADDRESS_V3 */\n    tag_45:\n      immutable(\"0x1615de156c662ff72892fae17ce471b57fc12c99ad066f4eb8422085be4080ba\")\n      dup2\n      jump\t// out\n        /* \"hopium/uniswap/main/price-oracle.sol\":12349:12674  function getTokenLiquidityUsd(address tokenAddress) external view returns (uint256 totalLiquidityUsd18) {... */\n    tag_50:\n        /* \"hopium/uniswap/main/price-oracle.sol\":12424:12451  uint256 totalLiquidityUsd18 */\n      0x00\n        /* \"hopium/uniswap/main/price-oracle.sol\":12463:12491  uint256 totalLiquidityWeth18 */\n      0x00\n        /* \"hopium/uniswap/main/price-oracle.sol\":12494:12529  getTokenLiquidityWeth(tokenAddress) */\n      tag_116\n        /* \"hopium/uniswap/main/price-oracle.sol\":12516:12528  tokenAddress */\n      dup4\n        /* \"hopium/uniswap/main/price-oracle.sol\":12494:12515  getTokenLiquidityWeth */\n      tag_37\n        /* \"hopium/uniswap/main/price-oracle.sol\":12494:12529  getTokenLiquidityWeth(tokenAddress) */\n      jump\t// in\n    tag_116:\n        /* \"hopium/uniswap/main/price-oracle.sol\":12463:12529  uint256 totalLiquidityWeth18 = getTokenLiquidityWeth(tokenAddress) */\n      swap1\n      pop\n        /* \"hopium/uniswap/main/price-oracle.sol\":12539:12559  uint256 usdPerWeth18 */\n      0x00\n        /* \"hopium/uniswap/main/price-oracle.sol\":12570:12587  getWethUsdPrice() */\n      tag_117\n        /* \"hopium/uniswap/main/price-oracle.sol\":12570:12585  getWethUsdPrice */\n      tag_61\n        /* \"hopium/uniswap/main/price-oracle.sol\":12570:12587  getWethUsdPrice() */\n      jump\t// in\n    tag_117:\n        /* \"hopium/uniswap/main/price-oracle.sol\":12539:12587  uint256 usdPerWeth18         = getWethUsdPrice() */\n      swap1\n      pop\n        /* \"hopium/uniswap/main/price-oracle.sol\":12619:12667  _mulDiv(totalLiquidityWeth18, usdPerWeth18, WAD) */\n      tag_118\n        /* \"hopium/uniswap/main/price-oracle.sol\":12627:12647  totalLiquidityWeth18 */\n      dup3\n        /* \"hopium/uniswap/main/price-oracle.sol\":12649:12661  usdPerWeth18 */\n      dup3\n        /* \"hopium/uniswap/main/price-oracle.sol\":3059:3063  1e18 */\n      0x0de0b6b3a7640000\n        /* \"hopium/uniswap/main/price-oracle.sol\":12619:12626  _mulDiv */\n      tag_90\n        /* \"hopium/uniswap/main/price-oracle.sol\":12619:12667  _mulDiv(totalLiquidityWeth18, usdPerWeth18, WAD) */\n      jump\t// in\n    tag_118:\n        /* \"hopium/uniswap/main/price-oracle.sol\":12597:12667  totalLiquidityUsd18 = _mulDiv(totalLiquidityWeth18, usdPerWeth18, WAD) */\n      swap3\n      pop\n        /* \"hopium/uniswap/main/price-oracle.sol\":12453:12674  {... */\n      pop\n      pop\n        /* \"hopium/uniswap/main/price-oracle.sol\":12349:12674  function getTokenLiquidityUsd(address tokenAddress) external view returns (uint256 totalLiquidityUsd18) {... */\n      swap2\n      swap1\n      pop\n      jump\t// out\n        /* \"hopium/uniswap/main/price-oracle.sol\":12847:13345  function getTokenMarketCapWeth(address tokenAddress) public view returns (uint256) {... */\n    tag_54:\n        /* \"hopium/uniswap/main/price-oracle.sol\":12921:12928  uint256 */\n      0x00\n        /* \"hopium/uniswap/main/price-oracle.sol\":12940:12954  uint256 supply */\n      0x00\n        /* \"hopium/uniswap/main/price-oracle.sol\":12965:12977  tokenAddress */\n      dup3\n        /* \"hopium/uniswap/main/price-oracle.sol\":12958:12990  IERC20(tokenAddress).totalSupply */\n      0xffffffffffffffffffffffffffffffffffffffff\n      and\n      0x18160ddd\n        /* \"hopium/uniswap/main/price-oracle.sol\":12958:12992  IERC20(tokenAddress).totalSupply() */\n      mload(0x40)\n      dup2\n      0xffffffff\n      and\n      0xe0\n      shl\n      dup2\n      mstore\n      0x04\n      add\n      0x20\n      mload(0x40)\n      dup1\n      dup4\n      sub\n      dup2\n      dup7\n      gas\n      staticcall\n      iszero\n      dup1\n      iszero\n      tag_121\n      jumpi\n      returndatacopy(0x00, 0x00, returndatasize)\n      revert(0x00, returndatasize)\n    tag_121:\n      pop\n      pop\n      pop\n      pop\n      mload(0x40)\n      returndatasize\n      not(0x1f)\n      0x1f\n      dup3\n      add\n      and\n      dup3\n      add\n      dup1\n      0x40\n      mstore\n      pop\n      dup2\n      add\n      swap1\n      tag_122\n      swap2\n      swap1\n      tag_96\n      jump\t// in\n    tag_122:\n        /* \"hopium/uniswap/main/price-oracle.sol\":12940:12992  uint256 supply  = IERC20(tokenAddress).totalSupply() */\n      swap1\n      pop\n        /* \"hopium/uniswap/main/price-oracle.sol\":13002:13014  uint8   decT */\n      0x00\n        /* \"hopium/uniswap/main/price-oracle.sol\":13035:13047  tokenAddress */\n      dup4\n        /* \"hopium/uniswap/main/price-oracle.sol\":13020:13057  IERC20Metadata(tokenAddress).decimals */\n      0xffffffffffffffffffffffffffffffffffffffff\n      and\n      0x313ce567\n        /* \"hopium/uniswap/main/price-oracle.sol\":13020:13059  IERC20Metadata(tokenAddress).decimals() */\n      mload(0x40)\n      dup2\n      0xffffffff\n      and\n      0xe0\n      shl\n      dup2\n      mstore\n      0x04\n      add\n      0x20\n      mload(0x40)\n      dup1\n      dup4\n      sub\n      dup2\n      dup7\n      gas\n      staticcall\n      iszero\n      dup1\n      iszero\n      tag_124\n      jumpi\n      returndatacopy(0x00, 0x00, returndatasize)\n      revert(0x00, returndatasize)\n    tag_124:\n      pop\n      pop\n      pop\n      pop\n      mload(0x40)\n      returndatasize\n      not(0x1f)\n      0x1f\n      dup3\n      add\n      and\n      dup3\n      add\n      dup1\n      0x40\n      mstore\n      pop\n      dup2\n      add\n      swap1\n      tag_125\n      swap2\n      swap1\n      tag_126\n      jump\t// in\n    tag_125:\n        /* \"hopium/uniswap/main/price-oracle.sol\":13002:13059  uint8   decT    = IERC20Metadata(tokenAddress).decimals() */\n      swap1\n      pop\n        /* \"hopium/uniswap/main/price-oracle.sol\":13069:13085  uint256 supply18 */\n      0x00\n        /* \"hopium/uniswap/main/price-oracle.sol\":13088:13114  _scaleTo1e18(supply, decT) */\n      tag_127\n        /* \"hopium/uniswap/main/price-oracle.sol\":13101:13107  supply */\n      dup4\n        /* \"hopium/uniswap/main/price-oracle.sol\":13109:13113  decT */\n      dup4\n        /* \"hopium/uniswap/main/price-oracle.sol\":13088:13100  _scaleTo1e18 */\n      tag_98\n        /* \"hopium/uniswap/main/price-oracle.sol\":13088:13114  _scaleTo1e18(supply, decT) */\n      jump\t// in\n    tag_127:\n        /* \"hopium/uniswap/main/price-oracle.sol\":13069:13114  uint256 supply18 = _scaleTo1e18(supply, decT) */\n      swap1\n      pop\n        /* \"hopium/uniswap/main/price-oracle.sol\":13145:13157  WETH_ADDRESS */\n      immutable(\"0x37301bd2250725859d0828580abc1f8bed4237e0bea6ff3a6619f0857f6a4ef1\")\n        /* \"hopium/uniswap/main/price-oracle.sol\":13129:13157  tokenAddress == WETH_ADDRESS */\n      0xffffffffffffffffffffffffffffffffffffffff\n      and\n        /* \"hopium/uniswap/main/price-oracle.sol\":13129:13141  tokenAddress */\n      dup6\n        /* \"hopium/uniswap/main/price-oracle.sol\":13129:13157  tokenAddress == WETH_ADDRESS */\n      0xffffffffffffffffffffffffffffffffffffffff\n      and\n      sub\n        /* \"hopium/uniswap/main/price-oracle.sol\":13125:13218  if (tokenAddress == WETH_ADDRESS) {... */\n      tag_128\n      jumpi\n        /* \"hopium/uniswap/main/price-oracle.sol\":13180:13188  supply18 */\n      dup1\n        /* \"hopium/uniswap/main/price-oracle.sol\":13173:13188  return supply18 */\n      swap4\n      pop\n      pop\n      pop\n      pop\n      jump(tag_119)\n        /* \"hopium/uniswap/main/price-oracle.sol\":13125:13218  if (tokenAddress == WETH_ADDRESS) {... */\n    tag_128:\n        /* \"hopium/uniswap/main/price-oracle.sol\":13227:13249  uint256 wethPerToken18 */\n      0x00\n        /* \"hopium/uniswap/main/price-oracle.sol\":13252:13283  getTokenWethPrice(tokenAddress) */\n      tag_129\n        /* \"hopium/uniswap/main/price-oracle.sol\":13270:13282  tokenAddress */\n      dup7\n        /* \"hopium/uniswap/main/price-oracle.sol\":13252:13269  getTokenWethPrice */\n      tag_69\n        /* \"hopium/uniswap/main/price-oracle.sol\":13252:13283  getTokenWethPrice(tokenAddress) */\n      jump\t// in\n    tag_129:\n        /* \"hopium/uniswap/main/price-oracle.sol\":13227:13283  uint256 wethPerToken18 = getTokenWethPrice(tokenAddress) */\n      swap1\n      pop\n        /* \"hopium/uniswap/main/price-oracle.sol\":13300:13338  _mulDiv(supply18, wethPerToken18, WAD) */\n      tag_130\n        /* \"hopium/uniswap/main/price-oracle.sol\":13308:13316  supply18 */\n      dup3\n        /* \"hopium/uniswap/main/price-oracle.sol\":13318:13332  wethPerToken18 */\n      dup3\n        /* \"hopium/uniswap/main/price-oracle.sol\":3059:3063  1e18 */\n      0x0de0b6b3a7640000\n        /* \"hopium/uniswap/main/price-oracle.sol\":13300:13307  _mulDiv */\n      tag_90\n        /* \"hopium/uniswap/main/price-oracle.sol\":13300:13338  _mulDiv(supply18, wethPerToken18, WAD) */\n      jump\t// in\n    tag_130:\n        /* \"hopium/uniswap/main/price-oracle.sol\":13293:13338  return _mulDiv(supply18, wethPerToken18, WAD) */\n      swap5\n      pop\n      pop\n      pop\n      pop\n      pop\n        /* \"hopium/uniswap/main/price-oracle.sol\":12847:13345  function getTokenMarketCapWeth(address tokenAddress) public view returns (uint256) {... */\n    tag_119:\n      swap2\n      swap1\n      pop\n      jump\t// out\n        /* \"hopium/common/interface/imDirectory.sol\":336:363  IDirectory public Directory */\n    tag_57:\n      0x00\n      0x00\n      swap1\n      sload\n      swap1\n      0x0100\n      exp\n      swap1\n      div\n      0xffffffffffffffffffffffffffffffffffffffff\n      and\n      dup2\n      jump\t// out\n        /* \"hopium/uniswap/main/price-oracle.sol\":9618:10060  function getWethUsdPrice() public view returns (uint256 price18) {... */\n    tag_61:\n        /* \"hopium/uniswap/main/price-oracle.sol\":9666:9681  uint256 price18 */\n      0x00\n        /* \"hopium/uniswap/main/price-oracle.sol\":9707:9726  uint256 reserveWeth */\n      0x00\n        /* \"hopium/uniswap/main/price-oracle.sol\":9740:9750  uint8 decW */\n      0x00\n        /* \"hopium/uniswap/main/price-oracle.sol\":9764:9782  uint256 reserveUsd */\n      0x00\n        /* \"hopium/uniswap/main/price-oracle.sol\":9796:9806  uint8 decU */\n      0x00\n        /* \"hopium/uniswap/main/price-oracle.sol\":9821:9906  _getOrderedReserves(IS_WETH_USD_PAIR_ADDRESS_V3, WETH_USD_PAIR_ADDRESS, WETH_ADDRESS) */\n      tag_132\n        /* \"hopium/uniswap/main/price-oracle.sol\":9841:9868  IS_WETH_USD_PAIR_ADDRESS_V3 */\n      immutable(\"0x1615de156c662ff72892fae17ce471b57fc12c99ad066f4eb8422085be4080ba\")\n        /* \"hopium/uniswap/main/price-oracle.sol\":9870:9891  WETH_USD_PAIR_ADDRESS */\n      immutable(\"0x25ec9d167989b22f9141435a0d3c1358a4d05d255347eb8e6b7cc27464dcd4c2\")\n        /* \"hopium/uniswap/main/price-oracle.sol\":9893:9905  WETH_ADDRESS */\n      immutable(\"0x37301bd2250725859d0828580abc1f8bed4237e0bea6ff3a6619f0857f6a4ef1\")\n        /* \"hopium/uniswap/main/price-oracle.sol\":9821:9840  _getOrderedReserves */\n      tag_102\n        /* \"hopium/uniswap/main/price-oracle.sol\":9821:9906  _getOrderedReserves(IS_WETH_USD_PAIR_ADDRESS_V3, WETH_USD_PAIR_ADDRESS, WETH_ADDRESS) */\n      jump\t// in\n    tag_132:\n        /* \"hopium/uniswap/main/price-oracle.sol\":9693:9906  (... */\n      pop\n      swap4\n      pop\n      swap4\n      pop\n      swap4\n      pop\n      swap4\n      pop\n        /* \"hopium/uniswap/main/price-oracle.sol\":10008:10053  _price18(reserveUsd, decU, reserveWeth, decW) */\n      tag_133\n        /* \"hopium/uniswap/main/price-oracle.sol\":10017:10027  reserveUsd */\n      dup3\n        /* \"hopium/uniswap/main/price-oracle.sol\":10029:10033  decU */\n      dup3\n        /* \"hopium/uniswap/main/price-oracle.sol\":10035:10046  reserveWeth */\n      dup7\n        /* \"hopium/uniswap/main/price-oracle.sol\":10048:10052  decW */\n      dup7\n        /* \"hopium/uniswap/main/price-oracle.sol\":10008:10016  _price18 */\n      tag_106\n        /* \"hopium/uniswap/main/price-oracle.sol\":10008:10053  _price18(reserveUsd, decU, reserveWeth, decW) */\n      jump\t// in\n    tag_133:\n        /* \"hopium/uniswap/main/price-oracle.sol\":9998:10053  price18 = _price18(reserveUsd, decU, reserveWeth, decW) */\n      swap5\n      pop\n        /* \"hopium/uniswap/main/price-oracle.sol\":9683:10060  {... */\n      pop\n      pop\n      pop\n      pop\n        /* \"hopium/uniswap/main/price-oracle.sol\":9618:10060  function getWethUsdPrice() public view returns (uint256 price18) {... */\n      swap1\n      jump\t// out\n        /* \"hopium/uniswap/main/price-oracle.sol\":13410:13697  function getTokenMarketCapUsd(address tokenAddress) external view returns (uint256 marketCapUsd18) {... */\n    tag_65:\n        /* \"hopium/uniswap/main/price-oracle.sol\":13485:13507  uint256 marketCapUsd18 */\n      0x00\n        /* \"hopium/uniswap/main/price-oracle.sol\":13519:13535  uint256 mcWeth18 */\n      0x00\n        /* \"hopium/uniswap/main/price-oracle.sol\":13542:13577  getTokenMarketCapWeth(tokenAddress) */\n      tag_135\n        /* \"hopium/uniswap/main/price-oracle.sol\":13564:13576  tokenAddress */\n      dup4\n        /* \"hopium/uniswap/main/price-oracle.sol\":13542:13563  getTokenMarketCapWeth */\n      tag_54\n        /* \"hopium/uniswap/main/price-oracle.sol\":13542:13577  getTokenMarketCapWeth(tokenAddress) */\n      jump\t// in\n    tag_135:\n        /* \"hopium/uniswap/main/price-oracle.sol\":13519:13577  uint256 mcWeth18     = getTokenMarketCapWeth(tokenAddress) */\n      swap1\n      pop\n        /* \"hopium/uniswap/main/price-oracle.sol\":13587:13607  uint256 usdPerWeth18 */\n      0x00\n        /* \"hopium/uniswap/main/price-oracle.sol\":13610:13627  getWethUsdPrice() */\n      tag_136\n        /* \"hopium/uniswap/main/price-oracle.sol\":13610:13625  getWethUsdPrice */\n      tag_61\n        /* \"hopium/uniswap/main/price-oracle.sol\":13610:13627  getWethUsdPrice() */\n      jump\t// in\n    tag_136:\n        /* \"hopium/uniswap/main/price-oracle.sol\":13587:13627  uint256 usdPerWeth18 = getWethUsdPrice() */\n      swap1\n      pop\n        /* \"hopium/uniswap/main/price-oracle.sol\":13654:13690  _mulDiv(mcWeth18, usdPerWeth18, WAD) */\n      tag_137\n        /* \"hopium/uniswap/main/price-oracle.sol\":13662:13670  mcWeth18 */\n      dup3\n        /* \"hopium/uniswap/main/price-oracle.sol\":13672:13684  usdPerWeth18 */\n      dup3\n        /* \"hopium/uniswap/main/price-oracle.sol\":3059:3063  1e18 */\n      0x0de0b6b3a7640000\n        /* \"hopium/uniswap/main/price-oracle.sol\":13654:13661  _mulDiv */\n      tag_90\n        /* \"hopium/uniswap/main/price-oracle.sol\":13654:13690  _mulDiv(mcWeth18, usdPerWeth18, WAD) */\n      jump\t// in\n    tag_137:\n        /* \"hopium/uniswap/main/price-oracle.sol\":13637:13690  marketCapUsd18 = _mulDiv(mcWeth18, usdPerWeth18, WAD) */\n      swap3\n      pop\n        /* \"hopium/uniswap/main/price-oracle.sol\":13509:13697  {... */\n      pop\n      pop\n        /* \"hopium/uniswap/main/price-oracle.sol\":13410:13697  function getTokenMarketCapUsd(address tokenAddress) external view returns (uint256 marketCapUsd18) {... */\n      swap2\n      swap1\n      pop\n      jump\t// out\n        /* \"hopium/uniswap/main/price-oracle.sol\":10189:10749  function getTokenWethPrice(address tokenAddress) public view returns (uint256) {... */\n    tag_69:\n        /* \"hopium/uniswap/main/price-oracle.sol\":10259:10266  uint256 */\n      0x00\n        /* \"hopium/uniswap/main/price-oracle.sol\":10298:10310  WETH_ADDRESS */\n      immutable(\"0x37301bd2250725859d0828580abc1f8bed4237e0bea6ff3a6619f0857f6a4ef1\")\n        /* \"hopium/uniswap/main/price-oracle.sol\":10282:10310  tokenAddress == WETH_ADDRESS */\n      0xffffffffffffffffffffffffffffffffffffffff\n      and\n        /* \"hopium/uniswap/main/price-oracle.sol\":10282:10294  tokenAddress */\n      dup3\n        /* \"hopium/uniswap/main/price-oracle.sol\":10282:10310  tokenAddress == WETH_ADDRESS */\n      0xffffffffffffffffffffffffffffffffffffffff\n      and\n      sub\n        /* \"hopium/uniswap/main/price-oracle.sol\":10278:10347  if (tokenAddress == WETH_ADDRESS) {... */\n      tag_139\n      jumpi\n        /* \"hopium/uniswap/main/price-oracle.sol\":3059:3063  1e18 */\n      0x0de0b6b3a7640000\n        /* \"hopium/uniswap/main/price-oracle.sol\":10326:10336  return WAD */\n      swap1\n      pop\n      jump(tag_138)\n        /* \"hopium/uniswap/main/price-oracle.sol\":10278:10347  if (tokenAddress == WETH_ADDRESS) {... */\n    tag_139:\n        /* \"hopium/uniswap/main/price-oracle.sol\":10357:10370  bool isV3Pool */\n      0x00\n        /* \"hopium/uniswap/main/price-oracle.sol\":10371:10390  address pairAddress */\n      0x00\n        /* \"hopium/uniswap/main/price-oracle.sol\":10394:10434  _getTokenToWethPairAddress(tokenAddress) */\n      tag_140\n        /* \"hopium/uniswap/main/price-oracle.sol\":10421:10433  tokenAddress */\n      dup5\n        /* \"hopium/uniswap/main/price-oracle.sol\":10394:10420  _getTokenToWethPairAddress */\n      tag_100\n        /* \"hopium/uniswap/main/price-oracle.sol\":10394:10434  _getTokenToWethPairAddress(tokenAddress) */\n      jump\t// in\n    tag_140:\n        /* \"hopium/uniswap/main/price-oracle.sol\":10356:10434  (bool isV3Pool,address pairAddress) = _getTokenToWethPairAddress(tokenAddress) */\n      swap2\n      pop\n      swap2\n      pop\n        /* \"hopium/uniswap/main/price-oracle.sol\":10445:10464  uint256 reserveWeth */\n      0x00\n        /* \"hopium/uniswap/main/price-oracle.sol\":10466:10476  uint8 decW */\n      0x00\n        /* \"hopium/uniswap/main/price-oracle.sol\":10478:10498  uint256 reserveToken */\n      0x00\n        /* \"hopium/uniswap/main/price-oracle.sol\":10500:10510  uint8 decT */\n      0x00\n        /* \"hopium/uniswap/main/price-oracle.sol\":10527:10583  _getOrderedReserves(isV3Pool, pairAddress, WETH_ADDRESS) */\n      tag_141\n        /* \"hopium/uniswap/main/price-oracle.sol\":10547:10555  isV3Pool */\n      dup7\n        /* \"hopium/uniswap/main/price-oracle.sol\":10557:10568  pairAddress */\n      dup7\n        /* \"hopium/uniswap/main/price-oracle.sol\":10570:10582  WETH_ADDRESS */\n      immutable(\"0x37301bd2250725859d0828580abc1f8bed4237e0bea6ff3a6619f0857f6a4ef1\")\n        /* \"hopium/uniswap/main/price-oracle.sol\":10527:10546  _getOrderedReserves */\n      tag_102\n        /* \"hopium/uniswap/main/price-oracle.sol\":10527:10583  _getOrderedReserves(isV3Pool, pairAddress, WETH_ADDRESS) */\n      jump\t// in\n    tag_141:\n        /* \"hopium/uniswap/main/price-oracle.sol\":10444:10583  (uint256 reserveWeth, uint8 decW, uint256 reserveToken, uint8 decT,) =... */\n      pop\n      swap4\n      pop\n      swap4\n      pop\n      swap4\n      pop\n      swap4\n      pop\n        /* \"hopium/uniswap/main/price-oracle.sol\":10695:10742  _price18(reserveWeth, decW, reserveToken, decT) */\n      tag_142\n        /* \"hopium/uniswap/main/price-oracle.sol\":10704:10715  reserveWeth */\n      dup5\n        /* \"hopium/uniswap/main/price-oracle.sol\":10717:10721  decW */\n      dup5\n        /* \"hopium/uniswap/main/price-oracle.sol\":10723:10735  reserveToken */\n      dup5\n        /* \"hopium/uniswap/main/price-oracle.sol\":10737:10741  decT */\n      dup5\n        /* \"hopium/uniswap/main/price-oracle.sol\":10695:10703  _price18 */\n      tag_106\n        /* \"hopium/uniswap/main/price-oracle.sol\":10695:10742  _price18(reserveWeth, decW, reserveToken, decT) */\n      jump\t// in\n    tag_142:\n        /* \"hopium/uniswap/main/price-oracle.sol\":10688:10742  return _price18(reserveWeth, decW, reserveToken, decT) */\n      swap7\n      pop\n      pop\n      pop\n      pop\n      pop\n      pop\n      pop\n        /* \"hopium/uniswap/main/price-oracle.sol\":10189:10749  function getTokenWethPrice(address tokenAddress) public view returns (uint256) {... */\n    tag_138:\n      swap2\n      swap1\n      pop\n      jump\t// out\n        /* \"hopium/uniswap/main/price-oracle.sol\":13703:13881  function getTokenWethPairAddress(address tokenAddress) external view returns (bool isV3Pool, address pairAddress) {... */\n    tag_73:\n        /* \"hopium/uniswap/main/price-oracle.sol\":13781:13794  bool isV3Pool */\n      0x00\n        /* \"hopium/uniswap/main/price-oracle.sol\":13796:13815  address pairAddress */\n      0x00\n        /* \"hopium/uniswap/main/price-oracle.sol\":13834:13874  _getTokenToWethPairAddress(tokenAddress) */\n      tag_144\n        /* \"hopium/uniswap/main/price-oracle.sol\":13861:13873  tokenAddress */\n      dup4\n        /* \"hopium/uniswap/main/price-oracle.sol\":13834:13860  _getTokenToWethPairAddress */\n      tag_100\n        /* \"hopium/uniswap/main/price-oracle.sol\":13834:13874  _getTokenToWethPairAddress(tokenAddress) */\n      jump\t// in\n    tag_144:\n        /* \"hopium/uniswap/main/price-oracle.sol\":13827:13874  return _getTokenToWethPairAddress(tokenAddress) */\n      swap2\n      pop\n      swap2\n      pop\n        /* \"hopium/uniswap/main/price-oracle.sol\":13703:13881  function getTokenWethPairAddress(address tokenAddress) external view returns (bool isV3Pool, address pairAddress) {... */\n      swap2\n      pop\n      swap2\n      jump\t// out\n        /* \"hopium/common/interface/imDirectory.sol\":1178:1266  function owner() public view returns (address) {... */\n    tag_77:\n        /* \"hopium/common/interface/imDirectory.sol\":1216:1223  address */\n      0x00\n        /* \"hopium/common/interface/imDirectory.sol\":1242:1251  Directory */\n      0x00\n      0x00\n      swap1\n      sload\n      swap1\n      0x0100\n      exp\n      swap1\n      div\n      0xffffffffffffffffffffffffffffffffffffffff\n      and\n        /* \"hopium/common/interface/imDirectory.sol\":1242:1257  Directory.owner */\n      0xffffffffffffffffffffffffffffffffffffffff\n      and\n      0x8da5cb5b\n        /* \"hopium/common/interface/imDirectory.sol\":1242:1259  Directory.owner() */\n      mload(0x40)\n      dup2\n      0xffffffff\n      and\n      0xe0\n      shl\n      dup2\n      mstore\n      0x04\n      add\n      0x20\n      mload(0x40)\n      dup1\n      dup4\n      sub\n      dup2\n      dup7\n      gas\n      staticcall\n      iszero\n      dup1\n      iszero\n      tag_147\n      jumpi\n      returndatacopy(0x00, 0x00, returndatasize)\n      revert(0x00, returndatasize)\n    tag_147:\n      pop\n      pop\n      pop\n      pop\n      mload(0x40)\n      returndatasize\n      not(0x1f)\n      0x1f\n      dup3\n      add\n      and\n      dup3\n      add\n      dup1\n      0x40\n      mstore\n      pop\n      dup2\n      add\n      swap1\n      tag_148\n      swap2\n      swap1\n      tag_114\n      jump\t// in\n    tag_148:\n        /* \"hopium/common/interface/imDirectory.sol\":1235:1259  return Directory.owner() */\n      swap1\n      pop\n        /* \"hopium/common/interface/imDirectory.sol\":1178:1266  function owner() public view returns (address) {... */\n      swap1\n      jump\t// out\n        /* \"hopium/common/interface/imDirectory.sol\":470:583  function changeDirectoryAddress(address _directory) external onlyOwner {... */\n    tag_81:\n        /* \"hopium/common/interface/imDirectory.sol\":1109:1118  Directory */\n      0x00\n      0x00\n      swap1\n      sload\n      swap1\n      0x0100\n      exp\n      swap1\n      div\n      0xffffffffffffffffffffffffffffffffffffffff\n      and\n        /* \"hopium/common/interface/imDirectory.sol\":1109:1124  Directory.owner */\n      0xffffffffffffffffffffffffffffffffffffffff\n      and\n      0x8da5cb5b\n        /* \"hopium/common/interface/imDirectory.sol\":1109:1126  Directory.owner() */\n      mload(0x40)\n      dup2\n      0xffffffff\n      and\n      0xe0\n      shl\n      dup2\n      mstore\n      0x04\n      add\n      0x20\n      mload(0x40)\n      dup1\n      dup4\n      sub\n      dup2\n      dup7\n      gas\n      staticcall\n      iszero\n      dup1\n      iszero\n      tag_151\n      jumpi\n      returndatacopy(0x00, 0x00, returndatasize)\n      revert(0x00, returndatasize)\n    tag_151:\n      pop\n      pop\n      pop\n      pop\n      mload(0x40)\n      returndatasize\n      not(0x1f)\n      0x1f\n      dup3\n      add\n      and\n      dup3\n      add\n      dup1\n      0x40\n      mstore\n      pop\n      dup2\n      add\n      swap1\n      tag_152\n      swap2\n      swap1\n      tag_114\n      jump\t// in\n    tag_152:\n        /* \"hopium/common/interface/imDirectory.sol\":1095:1126  msg.sender == Directory.owner() */\n      0xffffffffffffffffffffffffffffffffffffffff\n      and\n        /* \"hopium/common/interface/imDirectory.sol\":1095:1105  msg.sender */\n      caller\n        /* \"hopium/common/interface/imDirectory.sol\":1095:1126  msg.sender == Directory.owner() */\n      0xffffffffffffffffffffffffffffffffffffffff\n      and\n      eq\n        /* \"hopium/common/interface/imDirectory.sol\":1087:1154  require(msg.sender == Directory.owner(), \"Caller is not the owner\") */\n      tag_153\n      jumpi\n      mload(0x40)\n      0x08c379a000000000000000000000000000000000000000000000000000000000\n      dup2\n      mstore\n      0x04\n      add\n      tag_154\n      swap1\n      tag_155\n      jump\t// in\n    tag_154:\n      mload(0x40)\n      dup1\n      swap2\n      sub\n      swap1\n      revert\n    tag_153:\n        /* \"hopium/common/interface/imDirectory.sol\":551:576  _setDirectory(_directory) */\n      tag_157\n        /* \"hopium/common/interface/imDirectory.sol\":565:575  _directory */\n      dup2\n        /* \"hopium/common/interface/imDirectory.sol\":551:564  _setDirectory */\n      tag_158\n        /* \"hopium/common/interface/imDirectory.sol\":551:576  _setDirectory(_directory) */\n      jump\t// in\n    tag_157:\n        /* \"hopium/common/interface/imDirectory.sol\":470:583  function changeDirectoryAddress(address _directory) external onlyOwner {... */\n      pop\n      jump\t// out\n        /* \"hopium/uniswap/main/price-oracle.sol\":1342:1378  uint8 public immutable WETH_DECIMALS */\n    tag_83:\n      immutable(\"0x210c6dc030d16d93e71bd8a0ecd615dd69a77cede0d36bea3b672407192c1399\")\n      dup2\n      jump\t// out\n        /* \"hopium/uniswap/main/price-oracle.sol\":1496:3004  function _mulDiv(... */\n    tag_90:\n        /* \"hopium/uniswap/main/price-oracle.sol\":1609:1623  uint256 result */\n      0x00\n        /* \"hopium/uniswap/main/price-oracle.sol\":1659:1672  uint256 prod0 */\n      0x00\n        /* \"hopium/uniswap/main/price-oracle.sol\":1686:1699  uint256 prod1 */\n      0x00\n        /* \"hopium/uniswap/main/price-oracle.sol\":1767:1768  0 */\n      0x00\n        /* \"hopium/uniswap/main/price-oracle.sol\":1763:1769  not(0) */\n      not\n        /* \"hopium/uniswap/main/price-oracle.sol\":1760:1761  b */\n      dup6\n        /* \"hopium/uniswap/main/price-oracle.sol\":1757:1758  a */\n      dup8\n        /* \"hopium/uniswap/main/price-oracle.sol\":1750:1770  mulmod(a, b, not(0)) */\n      mulmod\n        /* \"hopium/uniswap/main/price-oracle.sol\":1803:1804  b */\n      dup6\n        /* \"hopium/uniswap/main/price-oracle.sol\":1800:1801  a */\n      dup8\n        /* \"hopium/uniswap/main/price-oracle.sol\":1796:1805  mul(a, b) */\n      mul\n        /* \"hopium/uniswap/main/price-oracle.sol\":1787:1805  prod0 := mul(a, b) */\n      swap3\n      pop\n        /* \"hopium/uniswap/main/price-oracle.sol\":1858:1863  prod0 */\n      dup3\n        /* \"hopium/uniswap/main/price-oracle.sol\":1854:1856  mm */\n      dup2\n        /* \"hopium/uniswap/main/price-oracle.sol\":1851:1864  lt(mm, prod0) */\n      lt\n        /* \"hopium/uniswap/main/price-oracle.sol\":1843:1848  prod0 */\n      dup4\n        /* \"hopium/uniswap/main/price-oracle.sol\":1839:1841  mm */\n      dup3\n        /* \"hopium/uniswap/main/price-oracle.sol\":1835:1849  sub(mm, prod0) */\n      sub\n        /* \"hopium/uniswap/main/price-oracle.sol\":1831:1865  sub(sub(mm, prod0), lt(mm, prod0)) */\n      sub\n        /* \"hopium/uniswap/main/price-oracle.sol\":1822:1865  prod1 := sub(sub(mm, prod0), lt(mm, prod0)) */\n      swap2\n      pop\n        /* \"hopium/uniswap/main/price-oracle.sol\":1722:1879  {... */\n      pop\n        /* \"hopium/uniswap/main/price-oracle.sol\":1905:1906  0 */\n      0x00\n        /* \"hopium/uniswap/main/price-oracle.sol\":1896:1901  prod1 */\n      dup2\n        /* \"hopium/uniswap/main/price-oracle.sol\":1896:1906  prod1 == 0 */\n      sub\n        /* \"hopium/uniswap/main/price-oracle.sol\":1892:1967  if (prod1 == 0) {... */\n      tag_160\n      jumpi\n        /* \"hopium/uniswap/main/price-oracle.sol\":1941:1952  denominator */\n      dup4\n        /* \"hopium/uniswap/main/price-oracle.sol\":1933:1938  prod0 */\n      dup3\n        /* \"hopium/uniswap/main/price-oracle.sol\":1933:1952  prod0 / denominator */\n      dup2\n      tag_161\n      jumpi\n      tag_162\n      tag_163\n      jump\t// in\n    tag_162:\n    tag_161:\n      div\n        /* \"hopium/uniswap/main/price-oracle.sol\":1926:1952  return prod0 / denominator */\n      swap3\n      pop\n      pop\n      pop\n      jump(tag_159)\n        /* \"hopium/uniswap/main/price-oracle.sol\":1892:1967  if (prod1 == 0) {... */\n    tag_160:\n        /* \"hopium/uniswap/main/price-oracle.sol\":2002:2007  prod1 */\n      dup1\n        /* \"hopium/uniswap/main/price-oracle.sol\":1988:1999  denominator */\n      dup5\n        /* \"hopium/uniswap/main/price-oracle.sol\":1988:2007  denominator > prod1 */\n      gt\n        /* \"hopium/uniswap/main/price-oracle.sol\":1980:2027  require(denominator > prod1, \"mulDiv overflow\") */\n      tag_164\n      jumpi\n      mload(0x40)\n      0x08c379a000000000000000000000000000000000000000000000000000000000\n      dup2\n      mstore\n      0x04\n      add\n      tag_165\n      swap1\n      tag_166\n      jump\t// in\n    tag_165:\n      mload(0x40)\n      dup1\n      swap2\n      sub\n      swap1\n      revert\n    tag_164:\n        /* \"hopium/uniswap/main/price-oracle.sol\":2042:2059  uint256 remainder */\n      0x00\n        /* \"hopium/uniswap/main/price-oracle.sol\":2126:2137  denominator */\n      dup5\n        /* \"hopium/uniswap/main/price-oracle.sol\":2123:2124  b */\n      dup7\n        /* \"hopium/uniswap/main/price-oracle.sol\":2120:2121  a */\n      dup9\n        /* \"hopium/uniswap/main/price-oracle.sol\":2113:2138  mulmod(a, b, denominator) */\n      mulmod\n        /* \"hopium/uniswap/main/price-oracle.sol\":2100:2138  remainder := mulmod(a, b, denominator) */\n      swap1\n      pop\n        /* \"hopium/uniswap/main/price-oracle.sol\":2189:2194  prod0 */\n      dup3\n        /* \"hopium/uniswap/main/price-oracle.sol\":2178:2187  remainder */\n      dup2\n        /* \"hopium/uniswap/main/price-oracle.sol\":2175:2195  gt(remainder, prod0) */\n      gt\n        /* \"hopium/uniswap/main/price-oracle.sol\":2168:2173  prod1 */\n      dup3\n        /* \"hopium/uniswap/main/price-oracle.sol\":2164:2196  sub(prod1, gt(remainder, prod0)) */\n      sub\n        /* \"hopium/uniswap/main/price-oracle.sol\":2155:2196  prod1 := sub(prod1, gt(remainder, prod0)) */\n      swap2\n      pop\n        /* \"hopium/uniswap/main/price-oracle.sol\":2233:2242  remainder */\n      dup1\n        /* \"hopium/uniswap/main/price-oracle.sol\":2226:2231  prod0 */\n      dup4\n        /* \"hopium/uniswap/main/price-oracle.sol\":2222:2243  sub(prod0, remainder) */\n      sub\n        /* \"hopium/uniswap/main/price-oracle.sol\":2213:2243  prod0 := sub(prod0, remainder) */\n      swap3\n      pop\n        /* \"hopium/uniswap/main/price-oracle.sol\":2271:2283  uint256 twos */\n      0x00\n        /* \"hopium/uniswap/main/price-oracle.sol\":2316:2317  1 */\n      0x01\n        /* \"hopium/uniswap/main/price-oracle.sol\":2302:2313  denominator */\n      dup7\n        /* \"hopium/uniswap/main/price-oracle.sol\":2301:2313  ~denominator */\n      not\n        /* \"hopium/uniswap/main/price-oracle.sol\":2301:2317  ~denominator + 1 */\n      add\n        /* \"hopium/uniswap/main/price-oracle.sol\":2286:2297  denominator */\n      dup7\n        /* \"hopium/uniswap/main/price-oracle.sol\":2286:2318  denominator & (~denominator + 1) */\n      and\n        /* \"hopium/uniswap/main/price-oracle.sol\":2271:2318  uint256 twos = denominator & (~denominator + 1) */\n      swap1\n      pop\n        /* \"hopium/uniswap/main/price-oracle.sol\":2391:2395  twos */\n      dup1\n        /* \"hopium/uniswap/main/price-oracle.sol\":2378:2389  denominator */\n      dup7\n        /* \"hopium/uniswap/main/price-oracle.sol\":2374:2396  div(denominator, twos) */\n      div\n        /* \"hopium/uniswap/main/price-oracle.sol\":2359:2396  denominator := div(denominator, twos) */\n      swap6\n      pop\n        /* \"hopium/uniswap/main/price-oracle.sol\":2433:2437  twos */\n      dup1\n        /* \"hopium/uniswap/main/price-oracle.sol\":2426:2431  prod0 */\n      dup5\n        /* \"hopium/uniswap/main/price-oracle.sol\":2422:2438  div(prod0, twos) */\n      div\n        /* \"hopium/uniswap/main/price-oracle.sol\":2413:2438  prod0 := div(prod0, twos) */\n      swap4\n      pop\n        /* \"hopium/uniswap/main/price-oracle.sol\":2492:2493  1 */\n      0x01\n        /* \"hopium/uniswap/main/price-oracle.sol\":2485:2489  twos */\n      dup2\n        /* \"hopium/uniswap/main/price-oracle.sol\":2478:2482  twos */\n      dup3\n        /* \"hopium/uniswap/main/price-oracle.sol\":2475:2476  0 */\n      0x00\n        /* \"hopium/uniswap/main/price-oracle.sol\":2471:2483  sub(0, twos) */\n      sub\n        /* \"hopium/uniswap/main/price-oracle.sol\":2467:2490  div(sub(0, twos), twos) */\n      div\n        /* \"hopium/uniswap/main/price-oracle.sol\":2463:2494  add(div(sub(0, twos), twos), 1) */\n      add\n        /* \"hopium/uniswap/main/price-oracle.sol\":2455:2494  twos := add(div(sub(0, twos), twos), 1) */\n      swap1\n      pop\n        /* \"hopium/uniswap/main/price-oracle.sol\":2538:2542  twos */\n      dup1\n        /* \"hopium/uniswap/main/price-oracle.sol\":2530:2535  prod1 */\n      dup4\n        /* \"hopium/uniswap/main/price-oracle.sol\":2530:2542  prod1 * twos */\n      mul\n        /* \"hopium/uniswap/main/price-oracle.sol\":2521:2542  prod0 |= prod1 * twos */\n      dup5\n      or\n      swap4\n      pop\n        /* \"hopium/uniswap/main/price-oracle.sol\":2557:2568  uint256 inv */\n      0x00\n        /* \"hopium/uniswap/main/price-oracle.sol\":2591:2592  2 */\n      0x02\n        /* \"hopium/uniswap/main/price-oracle.sol\":2576:2587  denominator */\n      dup8\n        /* \"hopium/uniswap/main/price-oracle.sol\":2572:2573  3 */\n      0x03\n        /* \"hopium/uniswap/main/price-oracle.sol\":2572:2587  3 * denominator */\n      mul\n        /* \"hopium/uniswap/main/price-oracle.sol\":2571:2592  (3 * denominator) ^ 2 */\n      xor\n        /* \"hopium/uniswap/main/price-oracle.sol\":2557:2592  uint256 inv = (3 * denominator) ^ 2 */\n      swap1\n      pop\n        /* \"hopium/uniswap/main/price-oracle.sol\":2631:2634  inv */\n      dup1\n        /* \"hopium/uniswap/main/price-oracle.sol\":2617:2628  denominator */\n      dup8\n        /* \"hopium/uniswap/main/price-oracle.sol\":2617:2634  denominator * inv */\n      mul\n        /* \"hopium/uniswap/main/price-oracle.sol\":2613:2614  2 */\n      0x02\n        /* \"hopium/uniswap/main/price-oracle.sol\":2613:2634  2 - denominator * inv */\n      sub\n        /* \"hopium/uniswap/main/price-oracle.sol\":2606:2634  inv *= 2 - denominator * inv */\n      dup2\n      mul\n      swap1\n      pop\n        /* \"hopium/uniswap/main/price-oracle.sol\":2692:2695  inv */\n      dup1\n        /* \"hopium/uniswap/main/price-oracle.sol\":2678:2689  denominator */\n      dup8\n        /* \"hopium/uniswap/main/price-oracle.sol\":2678:2695  denominator * inv */\n      mul\n        /* \"hopium/uniswap/main/price-oracle.sol\":2674:2675  2 */\n      0x02\n        /* \"hopium/uniswap/main/price-oracle.sol\":2674:2695  2 - denominator * inv */\n      sub\n        /* \"hopium/uniswap/main/price-oracle.sol\":2667:2695  inv *= 2 - denominator * inv */\n      dup2\n      mul\n      swap1\n      pop\n        /* \"hopium/uniswap/main/price-oracle.sol\":2746:2749  inv */\n      dup1\n        /* \"hopium/uniswap/main/price-oracle.sol\":2732:2743  denominator */\n      dup8\n        /* \"hopium/uniswap/main/price-oracle.sol\":2732:2749  denominator * inv */\n      mul\n        /* \"hopium/uniswap/main/price-oracle.sol\":2728:2729  2 */\n      0x02\n        /* \"hopium/uniswap/main/price-oracle.sol\":2728:2749  2 - denominator * inv */\n      sub\n        /* \"hopium/uniswap/main/price-oracle.sol\":2721:2749  inv *= 2 - denominator * inv */\n      dup2\n      mul\n      swap1\n      pop\n        /* \"hopium/uniswap/main/price-oracle.sol\":2800:2803  inv */\n      dup1\n        /* \"hopium/uniswap/main/price-oracle.sol\":2786:2797  denominator */\n      dup8\n        /* \"hopium/uniswap/main/price-oracle.sol\":2786:2803  denominator * inv */\n      mul\n        /* \"hopium/uniswap/main/price-oracle.sol\":2782:2783  2 */\n      0x02\n        /* \"hopium/uniswap/main/price-oracle.sol\":2782:2803  2 - denominator * inv */\n      sub\n        /* \"hopium/uniswap/main/price-oracle.sol\":2775:2803  inv *= 2 - denominator * inv */\n      dup2\n      mul\n      swap1\n      pop\n        /* \"hopium/uniswap/main/price-oracle.sol\":2854:2857  inv */\n      dup1\n        /* \"hopium/uniswap/main/price-oracle.sol\":2840:2851  denominator */\n      dup8\n        /* \"hopium/uniswap/main/price-oracle.sol\":2840:2857  denominator * inv */\n      mul\n        /* \"hopium/uniswap/main/price-oracle.sol\":2836:2837  2 */\n      0x02\n        /* \"hopium/uniswap/main/price-oracle.sol\":2836:2857  2 - denominator * inv */\n      sub\n        /* \"hopium/uniswap/main/price-oracle.sol\":2829:2857  inv *= 2 - denominator * inv */\n      dup2\n      mul\n      swap1\n      pop\n        /* \"hopium/uniswap/main/price-oracle.sol\":2909:2912  inv */\n      dup1\n        /* \"hopium/uniswap/main/price-oracle.sol\":2895:2906  denominator */\n      dup8\n        /* \"hopium/uniswap/main/price-oracle.sol\":2895:2912  denominator * inv */\n      mul\n        /* \"hopium/uniswap/main/price-oracle.sol\":2891:2892  2 */\n      0x02\n        /* \"hopium/uniswap/main/price-oracle.sol\":2891:2912  2 - denominator * inv */\n      sub\n        /* \"hopium/uniswap/main/price-oracle.sol\":2884:2912  inv *= 2 - denominator * inv */\n      dup2\n      mul\n      swap1\n      pop\n        /* \"hopium/uniswap/main/price-oracle.sol\":2957:2960  inv */\n      dup1\n        /* \"hopium/uniswap/main/price-oracle.sol\":2949:2954  prod0 */\n      dup6\n        /* \"hopium/uniswap/main/price-oracle.sol\":2949:2960  prod0 * inv */\n      mul\n        /* \"hopium/uniswap/main/price-oracle.sol\":2940:2960  result = prod0 * inv */\n      swap6\n      pop\n        /* \"hopium/uniswap/main/price-oracle.sol\":2974:2987  return result */\n      pop\n      pop\n      pop\n      pop\n      pop\n        /* \"hopium/uniswap/main/price-oracle.sol\":1496:3004  function _mulDiv(... */\n    tag_159:\n      swap4\n      swap3\n      pop\n      pop\n      pop\n      jump\t// out\n        /* \"hopium/uniswap/main/price-oracle.sol\":8639:8990  function _scaleTo1e18(uint256 amount, uint8 decimals) internal pure returns (uint256 scaled) {... */\n    tag_98:\n        /* \"hopium/uniswap/main/price-oracle.sol\":8716:8730  uint256 scaled */\n      0x00\n        /* \"hopium/uniswap/main/price-oracle.sol\":8758:8760  18 */\n      0x12\n        /* \"hopium/uniswap/main/price-oracle.sol\":8746:8754  decimals */\n      dup3\n        /* \"hopium/uniswap/main/price-oracle.sol\":8746:8760  decimals == 18 */\n      0xff\n      and\n      sub\n        /* \"hopium/uniswap/main/price-oracle.sol\":8742:8775  if (decimals == 18) return amount */\n      tag_168\n      jumpi\n        /* \"hopium/uniswap/main/price-oracle.sol\":8769:8775  amount */\n      dup3\n        /* \"hopium/uniswap/main/price-oracle.sol\":8762:8775  return amount */\n      swap1\n      pop\n      jump(tag_167)\n        /* \"hopium/uniswap/main/price-oracle.sol\":8742:8775  if (decimals == 18) return amount */\n    tag_168:\n        /* \"hopium/uniswap/main/price-oracle.sol\":8824:8826  18 */\n      0x12\n        /* \"hopium/uniswap/main/price-oracle.sol\":8813:8821  decimals */\n      dup3\n        /* \"hopium/uniswap/main/price-oracle.sol\":8813:8826  decimals < 18 */\n      0xff\n      and\n      lt\n        /* \"hopium/uniswap/main/price-oracle.sol\":8809:8974  if (decimals < 18) {... */\n      iszero\n      tag_169\n      jumpi\n        /* \"hopium/uniswap/main/price-oracle.sol\":8862:8883  _pow10(18 - decimals) */\n      tag_170\n        /* \"hopium/uniswap/main/price-oracle.sol\":8874:8882  decimals */\n      dup3\n        /* \"hopium/uniswap/main/price-oracle.sol\":8869:8871  18 */\n      0x12\n        /* \"hopium/uniswap/main/price-oracle.sol\":8869:8882  18 - decimals */\n      sub\n        /* \"hopium/uniswap/main/price-oracle.sol\":8862:8868  _pow10 */\n      tag_171\n        /* \"hopium/uniswap/main/price-oracle.sol\":8862:8883  _pow10(18 - decimals) */\n      jump\t// in\n    tag_170:\n        /* \"hopium/uniswap/main/price-oracle.sol\":8853:8859  amount */\n      dup4\n        /* \"hopium/uniswap/main/price-oracle.sol\":8853:8883  amount * _pow10(18 - decimals) */\n      mul\n        /* \"hopium/uniswap/main/price-oracle.sol\":8846:8883  return amount * _pow10(18 - decimals) */\n      swap1\n      pop\n      jump(tag_167)\n        /* \"hopium/uniswap/main/price-oracle.sol\":8809:8974  if (decimals < 18) {... */\n    tag_169:\n        /* \"hopium/uniswap/main/price-oracle.sol\":8938:8959  _pow10(decimals - 18) */\n      tag_173\n        /* \"hopium/uniswap/main/price-oracle.sol\":8956:8958  18 */\n      0x12\n        /* \"hopium/uniswap/main/price-oracle.sol\":8945:8953  decimals */\n      dup4\n        /* \"hopium/uniswap/main/price-oracle.sol\":8945:8958  decimals - 18 */\n      sub\n        /* \"hopium/uniswap/main/price-oracle.sol\":8938:8944  _pow10 */\n      tag_171\n        /* \"hopium/uniswap/main/price-oracle.sol\":8938:8959  _pow10(decimals - 18) */\n      jump\t// in\n    tag_173:\n        /* \"hopium/uniswap/main/price-oracle.sol\":8929:8935  amount */\n      dup4\n        /* \"hopium/uniswap/main/price-oracle.sol\":8929:8959  amount / _pow10(decimals - 18) */\n      dup2\n      tag_174\n      jumpi\n      tag_175\n      tag_163\n      jump\t// in\n    tag_175:\n    tag_174:\n      div\n        /* \"hopium/uniswap/main/price-oracle.sol\":8922:8959  return amount / _pow10(decimals - 18) */\n      swap1\n      pop\n        /* \"hopium/uniswap/main/price-oracle.sol\":8639:8990  function _scaleTo1e18(uint256 amount, uint8 decimals) internal pure returns (uint256 scaled) {... */\n    tag_167:\n      swap3\n      swap2\n      pop\n      pop\n      jump\t// out\n        /* \"hopium/uniswap/main/price-oracle.sol\":5139:5518  function _getTokenToWethPairAddress(address tokenAddress)... */\n    tag_100:\n        /* \"hopium/uniswap/main/price-oracle.sol\":5244:5257  bool isV3Pool */\n      0x00\n        /* \"hopium/uniswap/main/price-oracle.sol\":5259:5278  address pairAddress */\n      0x00\n        /* \"hopium/uniswap/main/price-oracle.sol\":5294:5310  Pool memory pool */\n      0x00\n        /* \"hopium/uniswap/main/price-oracle.sol\":5313:5328  getPoolFinder() */\n      tag_177\n        /* \"hopium/uniswap/main/price-oracle.sol\":5313:5326  getPoolFinder */\n      tag_178\n        /* \"hopium/uniswap/main/price-oracle.sol\":5313:5328  getPoolFinder() */\n      jump\t// in\n    tag_177:\n        /* \"hopium/uniswap/main/price-oracle.sol\":5313:5344  getPoolFinder().getBestWethPool */\n      0xffffffffffffffffffffffffffffffffffffffff\n      and\n      0xdf697cc4\n        /* \"hopium/uniswap/main/price-oracle.sol\":5345:5357  tokenAddress */\n      dup6\n        /* \"hopium/uniswap/main/price-oracle.sol\":5313:5358  getPoolFinder().getBestWethPool(tokenAddress) */\n      mload(0x40)\n      dup3\n      0xffffffff\n      and\n      0xe0\n      shl\n      dup2\n      mstore\n      0x04\n      add\n      tag_179\n      swap2\n      swap1\n      tag_31\n      jump\t// in\n    tag_179:\n      0x80\n      mload(0x40)\n      dup1\n      dup4\n      sub\n      dup2\n      dup7\n      gas\n      staticcall\n      iszero\n      dup1\n      iszero\n      tag_181\n      jumpi\n      returndatacopy(0x00, 0x00, returndatasize)\n      revert(0x00, returndatasize)\n    tag_181:\n      pop\n      pop\n      pop\n      pop\n      mload(0x40)\n      returndatasize\n      not(0x1f)\n      0x1f\n      dup3\n      add\n      and\n      dup3\n      add\n      dup1\n      0x40\n      mstore\n      pop\n      dup2\n      add\n      swap1\n      tag_182\n      swap2\n      swap1\n      tag_183\n      jump\t// in\n    tag_182:\n        /* \"hopium/uniswap/main/price-oracle.sol\":5294:5358  Pool memory pool = getPoolFinder().getBestWethPool(tokenAddress) */\n      swap1\n      pop\n        /* \"hopium/uniswap/main/price-oracle.sol\":5400:5401  0 */\n      0x00\n        /* \"hopium/uniswap/main/price-oracle.sol\":5372:5402  pool.poolAddress == address(0) */\n      0xffffffffffffffffffffffffffffffffffffffff\n      and\n        /* \"hopium/uniswap/main/price-oracle.sol\":5372:5376  pool */\n      dup2\n        /* \"hopium/uniswap/main/price-oracle.sol\":5372:5388  pool.poolAddress */\n      0x00\n      add\n      mload\n        /* \"hopium/uniswap/main/price-oracle.sol\":5372:5402  pool.poolAddress == address(0) */\n      0xffffffffffffffffffffffffffffffffffffffff\n      and\n      sub\n        /* \"hopium/uniswap/main/price-oracle.sol\":5368:5429  if (pool.poolAddress == address(0)) revert PairDoesNotExist() */\n      tag_184\n      jumpi\n        /* \"hopium/uniswap/main/price-oracle.sol\":5411:5429  PairDoesNotExist() */\n      mload(0x40)\n      0xc5fc4bf400000000000000000000000000000000000000000000000000000000\n      dup2\n      mstore\n      0x04\n      add\n      mload(0x40)\n      dup1\n      swap2\n      sub\n      swap1\n      revert\n        /* \"hopium/uniswap/main/price-oracle.sol\":5368:5429  if (pool.poolAddress == address(0)) revert PairDoesNotExist() */\n    tag_184:\n        /* \"hopium/uniswap/main/price-oracle.sol\":5470:5471  0 */\n      0x00\n        /* \"hopium/uniswap/main/price-oracle.sol\":5453:5457  pool */\n      dup2\n        /* \"hopium/uniswap/main/price-oracle.sol\":5453:5466  pool.isV3Pool */\n      0x40\n      add\n      mload\n        /* \"hopium/uniswap/main/price-oracle.sol\":5453:5471  pool.isV3Pool != 0 */\n      0xff\n      and\n      eq\n      iszero\n        /* \"hopium/uniswap/main/price-oracle.sol\":5439:5471  isV3Pool    = pool.isV3Pool != 0 */\n      swap3\n      pop\n        /* \"hopium/uniswap/main/price-oracle.sol\":5495:5499  pool */\n      dup1\n        /* \"hopium/uniswap/main/price-oracle.sol\":5495:5511  pool.poolAddress */\n      0x00\n      add\n      mload\n        /* \"hopium/uniswap/main/price-oracle.sol\":5481:5511  pairAddress = pool.poolAddress */\n      swap2\n      pop\n        /* \"hopium/uniswap/main/price-oracle.sol\":5284:5518  {... */\n      pop\n        /* \"hopium/uniswap/main/price-oracle.sol\":5139:5518  function _getTokenToWethPairAddress(address tokenAddress)... */\n      swap2\n      pop\n      swap2\n      jump\t// out\n        /* \"hopium/uniswap/main/price-oracle.sol\":5859:7759  function _getOrderedReserves(bool isV3Pool, address pairAddress, address baseToken)... */\n    tag_102:\n        /* \"hopium/uniswap/main/price-oracle.sol\":6003:6022  uint256 reserveBase */\n      0x00\n        /* \"hopium/uniswap/main/price-oracle.sol\":6036:6049  uint8 decBase */\n      0x00\n        /* \"hopium/uniswap/main/price-oracle.sol\":6063:6083  uint256 reserveQuote */\n      0x00\n        /* \"hopium/uniswap/main/price-oracle.sol\":6097:6111  uint8 decQuote */\n      0x00\n        /* \"hopium/uniswap/main/price-oracle.sol\":6125:6143  address quoteToken */\n      0x00\n        /* \"hopium/uniswap/main/price-oracle.sol\":6168:6178  uint256 r0 */\n      0x00\n        /* \"hopium/uniswap/main/price-oracle.sol\":6188:6198  uint256 r1 */\n      0x00\n        /* \"hopium/uniswap/main/price-oracle.sol\":6208:6218  address t0 */\n      0x00\n        /* \"hopium/uniswap/main/price-oracle.sol\":6228:6238  address t1 */\n      0x00\n        /* \"hopium/uniswap/main/price-oracle.sol\":6253:6261  isV3Pool */\n      dup12\n        /* \"hopium/uniswap/main/price-oracle.sol\":6249:7259  if (isV3Pool) {... */\n      iszero\n      tag_186\n      jumpi\n        /* \"hopium/uniswap/main/price-oracle.sol\":6358:6377  IUniswapV3Pool pool */\n      0x00\n        /* \"hopium/uniswap/main/price-oracle.sol\":6395:6406  pairAddress */\n      dup12\n        /* \"hopium/uniswap/main/price-oracle.sol\":6358:6407  IUniswapV3Pool pool = IUniswapV3Pool(pairAddress) */\n      swap1\n      pop\n        /* \"hopium/uniswap/main/price-oracle.sol\":6426:6430  pool */\n      dup1\n        /* \"hopium/uniswap/main/price-oracle.sol\":6426:6437  pool.token0 */\n      0xffffffffffffffffffffffffffffffffffffffff\n      and\n      0x0dfe1681\n        /* \"hopium/uniswap/main/price-oracle.sol\":6426:6439  pool.token0() */\n      mload(0x40)\n      dup2\n      0xffffffff\n      and\n      0xe0\n      shl\n      dup2\n      mstore\n      0x04\n      add\n      0x20\n      mload(0x40)\n      dup1\n      dup4\n      sub\n      dup2\n      dup7\n      gas\n      staticcall\n      iszero\n      dup1\n      iszero\n      tag_188\n      jumpi\n      returndatacopy(0x00, 0x00, returndatasize)\n      revert(0x00, returndatasize)\n    tag_188:\n      pop\n      pop\n      pop\n      pop\n      mload(0x40)\n      returndatasize\n      not(0x1f)\n      0x1f\n      dup3\n      add\n      and\n      dup3\n      add\n      dup1\n      0x40\n      mstore\n      pop\n      dup2\n      add\n      swap1\n      tag_189\n      swap2\n      swap1\n      tag_114\n      jump\t// in\n    tag_189:\n        /* \"hopium/uniswap/main/price-oracle.sol\":6421:6439  t0 = pool.token0() */\n      swap3\n      pop\n        /* \"hopium/uniswap/main/price-oracle.sol\":6458:6462  pool */\n      dup1\n        /* \"hopium/uniswap/main/price-oracle.sol\":6458:6469  pool.token1 */\n      0xffffffffffffffffffffffffffffffffffffffff\n      and\n      0xd21220a7\n        /* \"hopium/uniswap/main/price-oracle.sol\":6458:6471  pool.token1() */\n      mload(0x40)\n      dup2\n      0xffffffff\n      and\n      0xe0\n      shl\n      dup2\n      mstore\n      0x04\n      add\n      0x20\n      mload(0x40)\n      dup1\n      dup4\n      sub\n      dup2\n      dup7\n      gas\n      staticcall\n      iszero\n      dup1\n      iszero\n      tag_191\n      jumpi\n      returndatacopy(0x00, 0x00, returndatasize)\n      revert(0x00, returndatasize)\n    tag_191:\n      pop\n      pop\n      pop\n      pop\n      mload(0x40)\n      returndatasize\n      not(0x1f)\n      0x1f\n      dup3\n      add\n      and\n      dup3\n      add\n      dup1\n      0x40\n      mstore\n      pop\n      dup2\n      add\n      swap1\n      tag_192\n      swap2\n      swap1\n      tag_114\n      jump\t// in\n    tag_192:\n        /* \"hopium/uniswap/main/price-oracle.sol\":6453:6471  t1 = pool.token1() */\n      swap2\n      pop\n        /* \"hopium/uniswap/main/price-oracle.sol\":6487:6500  uint160 sqrtP */\n      0x00\n        /* \"hopium/uniswap/main/price-oracle.sol\":6514:6518  pool */\n      dup2\n        /* \"hopium/uniswap/main/price-oracle.sol\":6514:6524  pool.slot0 */\n      0xffffffffffffffffffffffffffffffffffffffff\n      and\n      0x3850c7bd\n        /* \"hopium/uniswap/main/price-oracle.sol\":6514:6526  pool.slot0() */\n      mload(0x40)\n      dup2\n      0xffffffff\n      and\n      0xe0\n      shl\n      dup2\n      mstore\n      0x04\n      add\n      0xe0\n      mload(0x40)\n      dup1\n      dup4\n      sub\n      dup2\n      dup7\n      gas\n      staticcall\n      iszero\n      dup1\n      iszero\n      tag_194\n      jumpi\n      returndatacopy(0x00, 0x00, returndatasize)\n      revert(0x00, returndatasize)\n    tag_194:\n      pop\n      pop\n      pop\n      pop\n      mload(0x40)\n      returndatasize\n      not(0x1f)\n      0x1f\n      dup3\n      add\n      and\n      dup3\n      add\n      dup1\n      0x40\n      mstore\n      pop\n      dup2\n      add\n      swap1\n      tag_195\n      swap2\n      swap1\n      tag_196\n      jump\t// in\n    tag_195:\n        /* \"hopium/uniswap/main/price-oracle.sol\":6486:6526  (uint160 sqrtP,, , , , ,) = pool.slot0() */\n      pop\n      pop\n      pop\n      pop\n      pop\n      pop\n      swap1\n      pop\n        /* \"hopium/uniswap/main/price-oracle.sol\":6540:6549  uint128 L */\n      0x00\n        /* \"hopium/uniswap/main/price-oracle.sol\":6552:6556  pool */\n      dup3\n        /* \"hopium/uniswap/main/price-oracle.sol\":6552:6566  pool.liquidity */\n      0xffffffffffffffffffffffffffffffffffffffff\n      and\n      0x1a686502\n        /* \"hopium/uniswap/main/price-oracle.sol\":6552:6568  pool.liquidity() */\n      mload(0x40)\n      dup2\n      0xffffffff\n      and\n      0xe0\n      shl\n      dup2\n      mstore\n      0x04\n      add\n      0x20\n      mload(0x40)\n      dup1\n      dup4\n      sub\n      dup2\n      dup7\n      gas\n      staticcall\n      iszero\n      dup1\n      iszero\n      tag_198\n      jumpi\n      returndatacopy(0x00, 0x00, returndatasize)\n      revert(0x00, returndatasize)\n    tag_198:\n      pop\n      pop\n      pop\n      pop\n      mload(0x40)\n      returndatasize\n      not(0x1f)\n      0x1f\n      dup3\n      add\n      and\n      dup3\n      add\n      dup1\n      0x40\n      mstore\n      pop\n      dup2\n      add\n      swap1\n      tag_199\n      swap2\n      swap1\n      tag_200\n      jump\t// in\n    tag_199:\n        /* \"hopium/uniswap/main/price-oracle.sol\":6540:6568  uint128 L = pool.liquidity() */\n      swap1\n      pop\n        /* \"hopium/uniswap/main/price-oracle.sol\":6699:6710  uint256 Q96 */\n      0x00\n        /* \"hopium/uniswap/main/price-oracle.sol\":6713:6720  2 ** 96 */\n      0x01000000000000000000000000\n        /* \"hopium/uniswap/main/price-oracle.sol\":6699:6720  uint256 Q96 = 2 ** 96 */\n      swap1\n      pop\n        /* \"hopium/uniswap/main/price-oracle.sol\":6824:6864  _mulDiv(uint256(L), Q96, uint256(sqrtP)) */\n      tag_201\n        /* \"hopium/uniswap/main/price-oracle.sol\":6840:6841  L */\n      dup3\n        /* \"hopium/uniswap/main/price-oracle.sol\":6832:6842  uint256(L) */\n      0xffffffffffffffffffffffffffffffff\n      and\n        /* \"hopium/uniswap/main/price-oracle.sol\":6844:6847  Q96 */\n      dup3\n        /* \"hopium/uniswap/main/price-oracle.sol\":6857:6862  sqrtP */\n      dup6\n        /* \"hopium/uniswap/main/price-oracle.sol\":6849:6863  uint256(sqrtP) */\n      0xffffffffffffffffffffffffffffffffffffffff\n      and\n        /* \"hopium/uniswap/main/price-oracle.sol\":6824:6831  _mulDiv */\n      tag_90\n        /* \"hopium/uniswap/main/price-oracle.sol\":6824:6864  _mulDiv(uint256(L), Q96, uint256(sqrtP)) */\n      jump\t// in\n    tag_201:\n        /* \"hopium/uniswap/main/price-oracle.sol\":6819:6864  r0 = _mulDiv(uint256(L), Q96, uint256(sqrtP)) */\n      swap8\n      pop\n        /* \"hopium/uniswap/main/price-oracle.sol\":6883:6923  _mulDiv(uint256(L), uint256(sqrtP), Q96) */\n      tag_202\n        /* \"hopium/uniswap/main/price-oracle.sol\":6899:6900  L */\n      dup3\n        /* \"hopium/uniswap/main/price-oracle.sol\":6891:6901  uint256(L) */\n      0xffffffffffffffffffffffffffffffff\n      and\n        /* \"hopium/uniswap/main/price-oracle.sol\":6911:6916  sqrtP */\n      dup5\n        /* \"hopium/uniswap/main/price-oracle.sol\":6903:6917  uint256(sqrtP) */\n      0xffffffffffffffffffffffffffffffffffffffff\n      and\n        /* \"hopium/uniswap/main/price-oracle.sol\":6919:6922  Q96 */\n      dup4\n        /* \"hopium/uniswap/main/price-oracle.sol\":6883:6890  _mulDiv */\n      tag_90\n        /* \"hopium/uniswap/main/price-oracle.sol\":6883:6923  _mulDiv(uint256(L), uint256(sqrtP), Q96) */\n      jump\t// in\n    tag_202:\n        /* \"hopium/uniswap/main/price-oracle.sol\":6878:6923  r1 = _mulDiv(uint256(L), uint256(sqrtP), Q96) */\n      swap7\n      pop\n        /* \"hopium/uniswap/main/price-oracle.sol\":6263:6934  {... */\n      pop\n      pop\n      pop\n      pop\n        /* \"hopium/uniswap/main/price-oracle.sol\":6249:7259  if (isV3Pool) {... */\n      jump(tag_203)\n    tag_186:\n        /* \"hopium/uniswap/main/price-oracle.sol\":7010:7029  IUniswapV2Pair pair */\n      0x00\n        /* \"hopium/uniswap/main/price-oracle.sol\":7047:7058  pairAddress */\n      dup12\n        /* \"hopium/uniswap/main/price-oracle.sol\":7010:7059  IUniswapV2Pair pair = IUniswapV2Pair(pairAddress) */\n      swap1\n      pop\n        /* \"hopium/uniswap/main/price-oracle.sol\":7074:7085  uint112 r0u */\n      0x00\n        /* \"hopium/uniswap/main/price-oracle.sol\":7087:7098  uint112 r1u */\n      0x00\n        /* \"hopium/uniswap/main/price-oracle.sol\":7104:7108  pair */\n      dup3\n        /* \"hopium/uniswap/main/price-oracle.sol\":7104:7120  pair.getReserves */\n      0xffffffffffffffffffffffffffffffffffffffff\n      and\n      0x0902f1ac\n        /* \"hopium/uniswap/main/price-oracle.sol\":7104:7122  pair.getReserves() */\n      mload(0x40)\n      dup2\n      0xffffffff\n      and\n      0xe0\n      shl\n      dup2\n      mstore\n      0x04\n      add\n      0x60\n      mload(0x40)\n      dup1\n      dup4\n      sub\n      dup2\n      dup7\n      gas\n      staticcall\n      iszero\n      dup1\n      iszero\n      tag_205\n      jumpi\n      returndatacopy(0x00, 0x00, returndatasize)\n      revert(0x00, returndatasize)\n    tag_205:\n      pop\n      pop\n      pop\n      pop\n      mload(0x40)\n      returndatasize\n      not(0x1f)\n      0x1f\n      dup3\n      add\n      and\n      dup3\n      add\n      dup1\n      0x40\n      mstore\n      pop\n      dup2\n      add\n      swap1\n      tag_206\n      swap2\n      swap1\n      tag_207\n      jump\t// in\n    tag_206:\n        /* \"hopium/uniswap/main/price-oracle.sol\":7073:7122  (uint112 r0u, uint112 r1u, ) = pair.getReserves() */\n      pop\n      swap2\n      pop\n      swap2\n      pop\n        /* \"hopium/uniswap/main/price-oracle.sol\":7149:7152  r0u */\n      dup2\n        /* \"hopium/uniswap/main/price-oracle.sol\":7141:7153  uint256(r0u) */\n      0xffffffffffffffffffffffffffff\n      and\n        /* \"hopium/uniswap/main/price-oracle.sol\":7136:7153  r0 = uint256(r0u) */\n      swap7\n      pop\n        /* \"hopium/uniswap/main/price-oracle.sol\":7180:7183  r1u */\n      dup1\n        /* \"hopium/uniswap/main/price-oracle.sol\":7172:7184  uint256(r1u) */\n      0xffffffffffffffffffffffffffff\n      and\n        /* \"hopium/uniswap/main/price-oracle.sol\":7167:7184  r1 = uint256(r1u) */\n      swap6\n      pop\n        /* \"hopium/uniswap/main/price-oracle.sol\":7203:7207  pair */\n      dup3\n        /* \"hopium/uniswap/main/price-oracle.sol\":7203:7214  pair.token0 */\n      0xffffffffffffffffffffffffffffffffffffffff\n      and\n      0x0dfe1681\n        /* \"hopium/uniswap/main/price-oracle.sol\":7203:7216  pair.token0() */\n      mload(0x40)\n      dup2\n      0xffffffff\n      and\n      0xe0\n      shl\n      dup2\n      mstore\n      0x04\n      add\n      0x20\n      mload(0x40)\n      dup1\n      dup4\n      sub\n      dup2\n      dup7\n      gas\n      staticcall\n      iszero\n      dup1\n      iszero\n      tag_209\n      jumpi\n      returndatacopy(0x00, 0x00, returndatasize)\n      revert(0x00, returndatasize)\n    tag_209:\n      pop\n      pop\n      pop\n      pop\n      mload(0x40)\n      returndatasize\n      not(0x1f)\n      0x1f\n      dup3\n      add\n      and\n      dup3\n      add\n      dup1\n      0x40\n      mstore\n      pop\n      dup2\n      add\n      swap1\n      tag_210\n      swap2\n      swap1\n      tag_114\n      jump\t// in\n    tag_210:\n        /* \"hopium/uniswap/main/price-oracle.sol\":7198:7216  t0 = pair.token0() */\n      swap5\n      pop\n        /* \"hopium/uniswap/main/price-oracle.sol\":7235:7239  pair */\n      dup3\n        /* \"hopium/uniswap/main/price-oracle.sol\":7235:7246  pair.token1 */\n      0xffffffffffffffffffffffffffffffffffffffff\n      and\n      0xd21220a7\n        /* \"hopium/uniswap/main/price-oracle.sol\":7235:7248  pair.token1() */\n      mload(0x40)\n      dup2\n      0xffffffff\n      and\n      0xe0\n      shl\n      dup2\n      mstore\n      0x04\n      add\n      0x20\n      mload(0x40)\n      dup1\n      dup4\n      sub\n      dup2\n      dup7\n      gas\n      staticcall\n      iszero\n      dup1\n      iszero\n      tag_212\n      jumpi\n      returndatacopy(0x00, 0x00, returndatasize)\n      revert(0x00, returndatasize)\n    tag_212:\n      pop\n      pop\n      pop\n      pop\n      mload(0x40)\n      returndatasize\n      not(0x1f)\n      0x1f\n      dup3\n      add\n      and\n      dup3\n      add\n      dup1\n      0x40\n      mstore\n      pop\n      dup2\n      add\n      swap1\n      tag_213\n      swap2\n      swap1\n      tag_114\n      jump\t// in\n    tag_213:\n        /* \"hopium/uniswap/main/price-oracle.sol\":7230:7248  t1 = pair.token1() */\n      swap4\n      pop\n        /* \"hopium/uniswap/main/price-oracle.sol\":6940:7259  {... */\n      pop\n      pop\n      pop\n        /* \"hopium/uniswap/main/price-oracle.sol\":6249:7259  if (isV3Pool) {... */\n    tag_203:\n        /* \"hopium/uniswap/main/price-oracle.sol\":7269:7286  bool baseIsToken0 */\n      0x00\n        /* \"hopium/uniswap/main/price-oracle.sol\":7306:7315  baseToken */\n      dup11\n        /* \"hopium/uniswap/main/price-oracle.sol\":7300:7315  t0 == baseToken */\n      0xffffffffffffffffffffffffffffffffffffffff\n      and\n        /* \"hopium/uniswap/main/price-oracle.sol\":7300:7302  t0 */\n      dup4\n        /* \"hopium/uniswap/main/price-oracle.sol\":7300:7315  t0 == baseToken */\n      0xffffffffffffffffffffffffffffffffffffffff\n      and\n      sub\n        /* \"hopium/uniswap/main/price-oracle.sol\":7296:7495  if (t0 == baseToken) {... */\n      tag_214\n      jumpi\n        /* \"hopium/uniswap/main/price-oracle.sol\":7346:7350  true */\n      0x01\n        /* \"hopium/uniswap/main/price-oracle.sol\":7331:7350  baseIsToken0 = true */\n      swap1\n      pop\n        /* \"hopium/uniswap/main/price-oracle.sol\":7296:7495  if (t0 == baseToken) {... */\n      jump(tag_215)\n    tag_214:\n        /* \"hopium/uniswap/main/price-oracle.sol\":7377:7386  baseToken */\n      dup11\n        /* \"hopium/uniswap/main/price-oracle.sol\":7371:7386  t1 == baseToken */\n      0xffffffffffffffffffffffffffffffffffffffff\n      and\n        /* \"hopium/uniswap/main/price-oracle.sol\":7371:7373  t1 */\n      dup3\n        /* \"hopium/uniswap/main/price-oracle.sol\":7371:7386  t1 == baseToken */\n      0xffffffffffffffffffffffffffffffffffffffff\n      and\n      sub\n        /* \"hopium/uniswap/main/price-oracle.sol\":7367:7495  if (t1 == baseToken) {... */\n      tag_216\n      jumpi\n        /* \"hopium/uniswap/main/price-oracle.sol\":7417:7422  false */\n      0x00\n        /* \"hopium/uniswap/main/price-oracle.sol\":7402:7422  baseIsToken0 = false */\n      swap1\n      pop\n        /* \"hopium/uniswap/main/price-oracle.sol\":7367:7495  if (t1 == baseToken) {... */\n      jump(tag_217)\n    tag_216:\n        /* \"hopium/uniswap/main/price-oracle.sol\":7460:7484  PairDoesNotContainBase() */\n      mload(0x40)\n      0x17b2f78000000000000000000000000000000000000000000000000000000000\n      dup2\n      mstore\n      0x04\n      add\n      mload(0x40)\n      dup1\n      swap2\n      sub\n      swap1\n      revert\n        /* \"hopium/uniswap/main/price-oracle.sol\":7367:7495  if (t1 == baseToken) {... */\n    tag_217:\n        /* \"hopium/uniswap/main/price-oracle.sol\":7296:7495  if (t0 == baseToken) {... */\n    tag_215:\n        /* \"hopium/uniswap/main/price-oracle.sol\":7520:7532  baseIsToken0 */\n      dup1\n        /* \"hopium/uniswap/main/price-oracle.sol\":7520:7542  baseIsToken0 ? r0 : r1 */\n      tag_218\n      jumpi\n        /* \"hopium/uniswap/main/price-oracle.sol\":7540:7542  r1 */\n      dup4\n        /* \"hopium/uniswap/main/price-oracle.sol\":7520:7542  baseIsToken0 ? r0 : r1 */\n      jump(tag_219)\n    tag_218:\n        /* \"hopium/uniswap/main/price-oracle.sol\":7535:7537  r0 */\n      dup5\n        /* \"hopium/uniswap/main/price-oracle.sol\":7520:7542  baseIsToken0 ? r0 : r1 */\n    tag_219:\n        /* \"hopium/uniswap/main/price-oracle.sol\":7505:7542  reserveBase  = baseIsToken0 ? r0 : r1 */\n      swap10\n      pop\n        /* \"hopium/uniswap/main/price-oracle.sol\":7567:7579  baseIsToken0 */\n      dup1\n        /* \"hopium/uniswap/main/price-oracle.sol\":7567:7589  baseIsToken0 ? r1 : r0 */\n      tag_220\n      jumpi\n        /* \"hopium/uniswap/main/price-oracle.sol\":7587:7589  r0 */\n      dup5\n        /* \"hopium/uniswap/main/price-oracle.sol\":7567:7589  baseIsToken0 ? r1 : r0 */\n      jump(tag_221)\n    tag_220:\n        /* \"hopium/uniswap/main/price-oracle.sol\":7582:7584  r1 */\n      dup4\n        /* \"hopium/uniswap/main/price-oracle.sol\":7567:7589  baseIsToken0 ? r1 : r0 */\n    tag_221:\n        /* \"hopium/uniswap/main/price-oracle.sol\":7552:7589  reserveQuote = baseIsToken0 ? r1 : r0 */\n      swap8\n      pop\n        /* \"hopium/uniswap/main/price-oracle.sol\":7614:7626  baseIsToken0 */\n      dup1\n        /* \"hopium/uniswap/main/price-oracle.sol\":7614:7636  baseIsToken0 ? t1 : t0 */\n      tag_222\n      jumpi\n        /* \"hopium/uniswap/main/price-oracle.sol\":7634:7636  t0 */\n      dup3\n        /* \"hopium/uniswap/main/price-oracle.sol\":7614:7636  baseIsToken0 ? t1 : t0 */\n      jump(tag_223)\n    tag_222:\n        /* \"hopium/uniswap/main/price-oracle.sol\":7629:7631  t1 */\n      dup2\n        /* \"hopium/uniswap/main/price-oracle.sol\":7614:7636  baseIsToken0 ? t1 : t0 */\n    tag_223:\n        /* \"hopium/uniswap/main/price-oracle.sol\":7599:7636  quoteToken   = baseIsToken0 ? t1 : t0 */\n      swap6\n      pop\n        /* \"hopium/uniswap/main/price-oracle.sol\":7673:7682  baseToken */\n      dup11\n        /* \"hopium/uniswap/main/price-oracle.sol\":7658:7692  IERC20Metadata(baseToken).decimals */\n      0xffffffffffffffffffffffffffffffffffffffff\n      and\n      0x313ce567\n        /* \"hopium/uniswap/main/price-oracle.sol\":7658:7694  IERC20Metadata(baseToken).decimals() */\n      mload(0x40)\n      dup2\n      0xffffffff\n      and\n      0xe0\n      shl\n      dup2\n      mstore\n      0x04\n      add\n      0x20\n      mload(0x40)\n      dup1\n      dup4\n      sub\n      dup2\n      dup7\n      gas\n      staticcall\n      iszero\n      dup1\n      iszero\n      tag_225\n      jumpi\n      returndatacopy(0x00, 0x00, returndatasize)\n      revert(0x00, returndatasize)\n    tag_225:\n      pop\n      pop\n      pop\n      pop\n      mload(0x40)\n      returndatasize\n      not(0x1f)\n      0x1f\n      dup3\n      add\n      and\n      dup3\n      add\n      dup1\n      0x40\n      mstore\n      pop\n      dup2\n      add\n      swap1\n      tag_226\n      swap2\n      swap1\n      tag_126\n      jump\t// in\n    tag_226:\n        /* \"hopium/uniswap/main/price-oracle.sol\":7647:7694  decBase  = IERC20Metadata(baseToken).decimals() */\n      swap9\n      pop\n        /* \"hopium/uniswap/main/price-oracle.sol\":7730:7740  quoteToken */\n      dup6\n        /* \"hopium/uniswap/main/price-oracle.sol\":7715:7750  IERC20Metadata(quoteToken).decimals */\n      0xffffffffffffffffffffffffffffffffffffffff\n      and\n      0x313ce567\n        /* \"hopium/uniswap/main/price-oracle.sol\":7715:7752  IERC20Metadata(quoteToken).decimals() */\n      mload(0x40)\n      dup2\n      0xffffffff\n      and\n      0xe0\n      shl\n      dup2\n      mstore\n      0x04\n      add\n      0x20\n      mload(0x40)\n      dup1\n      dup4\n      sub\n      dup2\n      dup7\n      gas\n      staticcall\n      iszero\n      dup1\n      iszero\n      tag_228\n      jumpi\n      returndatacopy(0x00, 0x00, returndatasize)\n      revert(0x00, returndatasize)\n    tag_228:\n      pop\n      pop\n      pop\n      pop\n      mload(0x40)\n      returndatasize\n      not(0x1f)\n      0x1f\n      dup3\n      add\n      and\n      dup3\n      add\n      dup1\n      0x40\n      mstore\n      pop\n      dup2\n      add\n      swap1\n      tag_229\n      swap2\n      swap1\n      tag_126\n      jump\t// in\n    tag_229:\n        /* \"hopium/uniswap/main/price-oracle.sol\":7704:7752  decQuote = IERC20Metadata(quoteToken).decimals() */\n      swap7\n      pop\n        /* \"hopium/uniswap/main/price-oracle.sol\":6158:7759  {... */\n      pop\n      pop\n      pop\n      pop\n      pop\n        /* \"hopium/uniswap/main/price-oracle.sol\":5859:7759  function _getOrderedReserves(bool isV3Pool, address pairAddress, address baseToken)... */\n      swap4\n      swap8\n      swap3\n      swap7\n      pop\n      swap4\n      pop\n      swap4\n      pop\n      jump\t// out\n        /* \"hopium/uniswap/main/price-oracle.sol\":7895:8591  function _price18(... */\n    tag_106:\n        /* \"hopium/uniswap/main/price-oracle.sol\":8034:8041  uint256 */\n      0x00\n        /* \"hopium/uniswap/main/price-oracle.sol\":8069:8070  0 */\n      0x00\n        /* \"hopium/uniswap/main/price-oracle.sol\":8057:8065  reserveA */\n      dup6\n        /* \"hopium/uniswap/main/price-oracle.sol\":8057:8070  reserveA == 0 */\n      eq\n        /* \"hopium/uniswap/main/price-oracle.sol\":8057:8087  reserveA == 0 || reserveB == 0 */\n      dup1\n      tag_231\n      jumpi\n      pop\n        /* \"hopium/uniswap/main/price-oracle.sol\":8086:8087  0 */\n      0x00\n        /* \"hopium/uniswap/main/price-oracle.sol\":8074:8082  reserveB */\n      dup4\n        /* \"hopium/uniswap/main/price-oracle.sol\":8074:8087  reserveB == 0 */\n      eq\n        /* \"hopium/uniswap/main/price-oracle.sol\":8057:8087  reserveA == 0 || reserveB == 0 */\n    tag_231:\n        /* \"hopium/uniswap/main/price-oracle.sol\":8053:8111  if (reserveA == 0 || reserveB == 0) revert EmptyReserves() */\n      iszero\n      tag_232\n      jumpi\n        /* \"hopium/uniswap/main/price-oracle.sol\":8096:8111  EmptyReserves() */\n      mload(0x40)\n      0x8b4a713e00000000000000000000000000000000000000000000000000000000\n      dup2\n      mstore\n      0x04\n      add\n      mload(0x40)\n      dup1\n      swap2\n      sub\n      swap1\n      revert\n        /* \"hopium/uniswap/main/price-oracle.sol\":8053:8111  if (reserveA == 0 || reserveB == 0) revert EmptyReserves() */\n    tag_232:\n        /* \"hopium/uniswap/main/price-oracle.sol\":8171:8184  uint256 scale */\n      0x00\n        /* \"hopium/uniswap/main/price-oracle.sol\":8230:8234  decA */\n      dup5\n        /* \"hopium/uniswap/main/price-oracle.sol\":8222:8234  decB >= decA */\n      0xff\n      and\n        /* \"hopium/uniswap/main/price-oracle.sol\":8222:8226  decB */\n      dup4\n        /* \"hopium/uniswap/main/price-oracle.sol\":8222:8234  decB >= decA */\n      0xff\n      and\n      lt\n        /* \"hopium/uniswap/main/price-oracle.sol\":8218:8524  if (decB >= decA) {... */\n      tag_233\n      jumpi\n        /* \"hopium/uniswap/main/price-oracle.sol\":8268:8287  _pow10(decB - decA) */\n      tag_234\n        /* \"hopium/uniswap/main/price-oracle.sol\":8282:8286  decA */\n      dup6\n        /* \"hopium/uniswap/main/price-oracle.sol\":8275:8279  decB */\n      dup5\n        /* \"hopium/uniswap/main/price-oracle.sol\":8275:8286  decB - decA */\n      sub\n        /* \"hopium/uniswap/main/price-oracle.sol\":8268:8274  _pow10 */\n      tag_171\n        /* \"hopium/uniswap/main/price-oracle.sol\":8268:8287  _pow10(decB - decA) */\n      jump\t// in\n    tag_234:\n        /* \"hopium/uniswap/main/price-oracle.sol\":3059:3063  1e18 */\n      0x0de0b6b3a7640000\n        /* \"hopium/uniswap/main/price-oracle.sol\":8262:8287  WAD * _pow10(decB - decA) */\n      mul\n        /* \"hopium/uniswap/main/price-oracle.sol\":8254:8287  scale = WAD * _pow10(decB - decA) */\n      swap1\n      pop\n        /* \"hopium/uniswap/main/price-oracle.sol\":8218:8524  if (decB >= decA) {... */\n      jump(tag_235)\n    tag_233:\n        /* \"hopium/uniswap/main/price-oracle.sol\":8409:8422  uint256 denom */\n      0x00\n        /* \"hopium/uniswap/main/price-oracle.sol\":8436:8455  _pow10(decA - decB) */\n      tag_236\n        /* \"hopium/uniswap/main/price-oracle.sol\":8450:8454  decB */\n      dup5\n        /* \"hopium/uniswap/main/price-oracle.sol\":8443:8447  decA */\n      dup8\n        /* \"hopium/uniswap/main/price-oracle.sol\":8443:8454  decA - decB */\n      sub\n        /* \"hopium/uniswap/main/price-oracle.sol\":8436:8442  _pow10 */\n      tag_171\n        /* \"hopium/uniswap/main/price-oracle.sol\":8436:8455  _pow10(decA - decB) */\n      jump\t// in\n    tag_236:\n        /* \"hopium/uniswap/main/price-oracle.sol\":8425:8433  reserveB */\n      dup6\n        /* \"hopium/uniswap/main/price-oracle.sol\":8425:8455  reserveB * _pow10(decA - decB) */\n      mul\n        /* \"hopium/uniswap/main/price-oracle.sol\":8409:8455  uint256 denom = reserveB * _pow10(decA - decB) */\n      swap1\n      pop\n        /* \"hopium/uniswap/main/price-oracle.sol\":8480:8509  _mulDiv(reserveA, WAD, denom) */\n      tag_237\n        /* \"hopium/uniswap/main/price-oracle.sol\":8488:8496  reserveA */\n      dup8\n        /* \"hopium/uniswap/main/price-oracle.sol\":3059:3063  1e18 */\n      0x0de0b6b3a7640000\n        /* \"hopium/uniswap/main/price-oracle.sol\":8503:8508  denom */\n      dup4\n        /* \"hopium/uniswap/main/price-oracle.sol\":8480:8487  _mulDiv */\n      tag_90\n        /* \"hopium/uniswap/main/price-oracle.sol\":8480:8509  _mulDiv(reserveA, WAD, denom) */\n      jump\t// in\n    tag_237:\n        /* \"hopium/uniswap/main/price-oracle.sol\":8473:8509  return _mulDiv(reserveA, WAD, denom) */\n      swap3\n      pop\n      pop\n      pop\n      jump(tag_230)\n        /* \"hopium/uniswap/main/price-oracle.sol\":8218:8524  if (decB >= decA) {... */\n    tag_235:\n        /* \"hopium/uniswap/main/price-oracle.sol\":8550:8584  _mulDiv(reserveA, scale, reserveB) */\n      tag_238\n        /* \"hopium/uniswap/main/price-oracle.sol\":8558:8566  reserveA */\n      dup7\n        /* \"hopium/uniswap/main/price-oracle.sol\":8568:8573  scale */\n      dup3\n        /* \"hopium/uniswap/main/price-oracle.sol\":8575:8583  reserveB */\n      dup7\n        /* \"hopium/uniswap/main/price-oracle.sol\":8550:8557  _mulDiv */\n      tag_90\n        /* \"hopium/uniswap/main/price-oracle.sol\":8550:8584  _mulDiv(reserveA, scale, reserveB) */\n      jump\t// in\n    tag_238:\n        /* \"hopium/uniswap/main/price-oracle.sol\":8543:8584  return _mulDiv(reserveA, scale, reserveB) */\n      swap2\n      pop\n      pop\n        /* \"hopium/uniswap/main/price-oracle.sol\":7895:8591  function _price18(... */\n    tag_230:\n      swap5\n      swap4\n      pop\n      pop\n      pop\n      pop\n      jump\t// out\n        /* \"hopium/common/interface/imDirectory.sol\":589:1050  function _setDirectory(address _directory) internal {... */\n    tag_158:\n        /* \"hopium/common/interface/imDirectory.sol\":681:682  0 */\n      0x00\n        /* \"hopium/common/interface/imDirectory.sol\":659:683  _directory != address(0) */\n      0xffffffffffffffffffffffffffffffffffffffff\n      and\n        /* \"hopium/common/interface/imDirectory.sol\":659:669  _directory */\n      dup2\n        /* \"hopium/common/interface/imDirectory.sol\":659:683  _directory != address(0) */\n      0xffffffffffffffffffffffffffffffffffffffff\n      and\n      sub\n        /* \"hopium/common/interface/imDirectory.sol\":651:720  require(_directory != address(0), \"Directory cannot be zero address\") */\n      tag_240\n      jumpi\n      mload(0x40)\n      0x08c379a000000000000000000000000000000000000000000000000000000000\n      dup2\n      mstore\n      0x04\n      add\n      tag_241\n      swap1\n      tag_242\n      jump\t// in\n    tag_241:\n      mload(0x40)\n      dup1\n      swap2\n      sub\n      swap1\n      revert\n    tag_240:\n        /* \"hopium/common/interface/imDirectory.sol\":763:764  0 */\n      0x00\n        /* \"hopium/common/interface/imDirectory.sol\":738:748  _directory */\n      dup2\n        /* \"hopium/common/interface/imDirectory.sol\":738:760  _directory.code.length */\n      0xffffffffffffffffffffffffffffffffffffffff\n      and\n      extcodesize\n        /* \"hopium/common/interface/imDirectory.sol\":738:764  _directory.code.length > 0 */\n      gt\n        /* \"hopium/common/interface/imDirectory.sol\":730:797  require(_directory.code.length > 0, \"Directory must be a contract\") */\n      tag_243\n      jumpi\n      mload(0x40)\n      0x08c379a000000000000000000000000000000000000000000000000000000000\n      dup2\n      mstore\n      0x04\n      add\n      tag_244\n      swap1\n      tag_245\n      jump\t// in\n    tag_244:\n      mload(0x40)\n      dup1\n      swap2\n      sub\n      swap1\n      revert\n    tag_243:\n        /* \"hopium/common/interface/imDirectory.sol\":861:871  _directory */\n      dup1\n        /* \"hopium/common/interface/imDirectory.sol\":850:878  IDirectory(_directory).owner */\n      0xffffffffffffffffffffffffffffffffffffffff\n      and\n      0x8da5cb5b\n        /* \"hopium/common/interface/imDirectory.sol\":850:880  IDirectory(_directory).owner() */\n      mload(0x40)\n      dup2\n      0xffffffff\n      and\n      0xe0\n      shl\n      dup2\n      mstore\n      0x04\n      add\n      0x20\n      mload(0x40)\n      dup1\n      dup4\n      sub\n      dup2\n      dup7\n      gas\n      staticcall\n      swap3\n      pop\n      pop\n      pop\n      dup1\n      iszero\n      tag_246\n      jumpi\n      pop\n      mload(0x40)\n      returndatasize\n      not(0x1f)\n      0x1f\n      dup3\n      add\n      and\n      dup3\n      add\n      dup1\n      0x40\n      mstore\n      pop\n      dup2\n      add\n      swap1\n      tag_247\n      swap2\n      swap1\n      tag_114\n      jump\t// in\n    tag_247:\n      0x01\n    tag_246:\n        /* \"hopium/common/interface/imDirectory.sol\":846:1044  try IDirectory(_directory).owner() returns (address) {... */\n      tag_248\n      jumpi\n        /* \"hopium/common/interface/imDirectory.sol\":979:1033  revert(\"Directory address does not implement owner()\") */\n      mload(0x40)\n      0x08c379a000000000000000000000000000000000000000000000000000000000\n      dup2\n      mstore\n      0x04\n      add\n      tag_252\n      swap1\n      tag_253\n      jump\t// in\n    tag_252:\n      mload(0x40)\n      dup1\n      swap2\n      sub\n      swap1\n      revert\n        /* \"hopium/common/interface/imDirectory.sol\":846:1044  try IDirectory(_directory).owner() returns (address) {... */\n    tag_248:\n        /* \"hopium/common/interface/imDirectory.sol\":936:946  _directory */\n      dup2\n        /* \"hopium/common/interface/imDirectory.sol\":913:922  Directory */\n      0x00\n      0x00\n        /* \"hopium/common/interface/imDirectory.sol\":913:947  Directory = IDirectory(_directory) */\n      0x0100\n      exp\n      dup2\n      sload\n      dup2\n      0xffffffffffffffffffffffffffffffffffffffff\n      mul\n      not\n      and\n      swap1\n      dup4\n      0xffffffffffffffffffffffffffffffffffffffff\n      and\n      mul\n      or\n      swap1\n      sstore\n      pop\n        /* \"hopium/common/interface/imDirectory.sol\":881:958  returns (address) {... */\n      pop\n        /* \"hopium/common/interface/imDirectory.sol\":589:1050  function _setDirectory(address _directory) internal {... */\n      pop\n      jump\t// out\n        /* \"hopium/uniswap/main/price-oracle.sol\":4254:5036  function _pow10(uint8 n) internal pure returns (uint256) {... */\n    tag_171:\n        /* \"hopium/uniswap/main/price-oracle.sol\":4302:4309  uint256 */\n      0x00\n        /* \"hopium/uniswap/main/price-oracle.sol\":4330:4331  0 */\n      0x00\n        /* \"hopium/uniswap/main/price-oracle.sol\":4325:4326  n */\n      dup3\n        /* \"hopium/uniswap/main/price-oracle.sol\":4325:4331  n == 0 */\n      0xff\n      and\n      sub\n        /* \"hopium/uniswap/main/price-oracle.sol\":4321:4348  if (n == 0)  return POW10_0 */\n      tag_256\n      jumpi\n        /* \"hopium/uniswap/main/price-oracle.sol\":3192:3193  1 */\n      0x01\n        /* \"hopium/uniswap/main/price-oracle.sol\":4334:4348  return POW10_0 */\n      swap1\n      pop\n      jump(tag_255)\n        /* \"hopium/uniswap/main/price-oracle.sol\":4321:4348  if (n == 0)  return POW10_0 */\n    tag_256:\n        /* \"hopium/uniswap/main/price-oracle.sol\":4367:4368  1 */\n      0x01\n        /* \"hopium/uniswap/main/price-oracle.sol\":4362:4363  n */\n      dup3\n        /* \"hopium/uniswap/main/price-oracle.sol\":4362:4368  n == 1 */\n      0xff\n      and\n      sub\n        /* \"hopium/uniswap/main/price-oracle.sol\":4358:4385  if (n == 1)  return POW10_1 */\n      tag_257\n      jumpi\n        /* \"hopium/uniswap/main/price-oracle.sol\":3235:3237  10 */\n      0x0a\n        /* \"hopium/uniswap/main/price-oracle.sol\":4371:4385  return POW10_1 */\n      swap1\n      pop\n      jump(tag_255)\n        /* \"hopium/uniswap/main/price-oracle.sol\":4358:4385  if (n == 1)  return POW10_1 */\n    tag_257:\n        /* \"hopium/uniswap/main/price-oracle.sol\":4404:4405  2 */\n      0x02\n        /* \"hopium/uniswap/main/price-oracle.sol\":4399:4400  n */\n      dup3\n        /* \"hopium/uniswap/main/price-oracle.sol\":4399:4405  n == 2 */\n      0xff\n      and\n      sub\n        /* \"hopium/uniswap/main/price-oracle.sol\":4395:4422  if (n == 2)  return POW10_2 */\n      tag_258\n      jumpi\n        /* \"hopium/uniswap/main/price-oracle.sol\":3279:3282  100 */\n      0x64\n        /* \"hopium/uniswap/main/price-oracle.sol\":4408:4422  return POW10_2 */\n      swap1\n      pop\n      jump(tag_255)\n        /* \"hopium/uniswap/main/price-oracle.sol\":4395:4422  if (n == 2)  return POW10_2 */\n    tag_258:\n        /* \"hopium/uniswap/main/price-oracle.sol\":4441:4442  3 */\n      0x03\n        /* \"hopium/uniswap/main/price-oracle.sol\":4436:4437  n */\n      dup3\n        /* \"hopium/uniswap/main/price-oracle.sol\":4436:4442  n == 3 */\n      0xff\n      and\n      sub\n        /* \"hopium/uniswap/main/price-oracle.sol\":4432:4459  if (n == 3)  return POW10_3 */\n      tag_259\n      jumpi\n        /* \"hopium/uniswap/main/price-oracle.sol\":3324:3329  1_000 */\n      0x03e8\n        /* \"hopium/uniswap/main/price-oracle.sol\":4445:4459  return POW10_3 */\n      swap1\n      pop\n      jump(tag_255)\n        /* \"hopium/uniswap/main/price-oracle.sol\":4432:4459  if (n == 3)  return POW10_3 */\n    tag_259:\n        /* \"hopium/uniswap/main/price-oracle.sol\":4478:4479  4 */\n      0x04\n        /* \"hopium/uniswap/main/price-oracle.sol\":4473:4474  n */\n      dup3\n        /* \"hopium/uniswap/main/price-oracle.sol\":4473:4479  n == 4 */\n      0xff\n      and\n      sub\n        /* \"hopium/uniswap/main/price-oracle.sol\":4469:4496  if (n == 4)  return POW10_4 */\n      tag_260\n      jumpi\n        /* \"hopium/uniswap/main/price-oracle.sol\":3371:3377  10_000 */\n      0x2710\n        /* \"hopium/uniswap/main/price-oracle.sol\":4482:4496  return POW10_4 */\n      swap1\n      pop\n      jump(tag_255)\n        /* \"hopium/uniswap/main/price-oracle.sol\":4469:4496  if (n == 4)  return POW10_4 */\n    tag_260:\n        /* \"hopium/uniswap/main/price-oracle.sol\":4515:4516  5 */\n      0x05\n        /* \"hopium/uniswap/main/price-oracle.sol\":4510:4511  n */\n      dup3\n        /* \"hopium/uniswap/main/price-oracle.sol\":4510:4516  n == 5 */\n      0xff\n      and\n      sub\n        /* \"hopium/uniswap/main/price-oracle.sol\":4506:4533  if (n == 5)  return POW10_5 */\n      tag_261\n      jumpi\n        /* \"hopium/uniswap/main/price-oracle.sol\":3419:3426  100_000 */\n      0x0186a0\n        /* \"hopium/uniswap/main/price-oracle.sol\":4519:4533  return POW10_5 */\n      swap1\n      pop\n      jump(tag_255)\n        /* \"hopium/uniswap/main/price-oracle.sol\":4506:4533  if (n == 5)  return POW10_5 */\n    tag_261:\n        /* \"hopium/uniswap/main/price-oracle.sol\":4552:4553  6 */\n      0x06\n        /* \"hopium/uniswap/main/price-oracle.sol\":4547:4548  n */\n      dup3\n        /* \"hopium/uniswap/main/price-oracle.sol\":4547:4553  n == 6 */\n      0xff\n      and\n      sub\n        /* \"hopium/uniswap/main/price-oracle.sol\":4543:4570  if (n == 6)  return POW10_6 */\n      tag_262\n      jumpi\n        /* \"hopium/uniswap/main/price-oracle.sol\":3468:3477  1_000_000 */\n      0x0f4240\n        /* \"hopium/uniswap/main/price-oracle.sol\":4556:4570  return POW10_6 */\n      swap1\n      pop\n      jump(tag_255)\n        /* \"hopium/uniswap/main/price-oracle.sol\":4543:4570  if (n == 6)  return POW10_6 */\n    tag_262:\n        /* \"hopium/uniswap/main/price-oracle.sol\":4589:4590  7 */\n      0x07\n        /* \"hopium/uniswap/main/price-oracle.sol\":4584:4585  n */\n      dup3\n        /* \"hopium/uniswap/main/price-oracle.sol\":4584:4590  n == 7 */\n      0xff\n      and\n      sub\n        /* \"hopium/uniswap/main/price-oracle.sol\":4580:4607  if (n == 7)  return POW10_7 */\n      tag_263\n      jumpi\n        /* \"hopium/uniswap/main/price-oracle.sol\":3519:3529  10_000_000 */\n      0x989680\n        /* \"hopium/uniswap/main/price-oracle.sol\":4593:4607  return POW10_7 */\n      swap1\n      pop\n      jump(tag_255)\n        /* \"hopium/uniswap/main/price-oracle.sol\":4580:4607  if (n == 7)  return POW10_7 */\n    tag_263:\n        /* \"hopium/uniswap/main/price-oracle.sol\":4626:4627  8 */\n      0x08\n        /* \"hopium/uniswap/main/price-oracle.sol\":4621:4622  n */\n      dup3\n        /* \"hopium/uniswap/main/price-oracle.sol\":4621:4627  n == 8 */\n      0xff\n      and\n      sub\n        /* \"hopium/uniswap/main/price-oracle.sol\":4617:4644  if (n == 8)  return POW10_8 */\n      tag_264\n      jumpi\n        /* \"hopium/uniswap/main/price-oracle.sol\":3571:3582  100_000_000 */\n      0x05f5e100\n        /* \"hopium/uniswap/main/price-oracle.sol\":4630:4644  return POW10_8 */\n      swap1\n      pop\n      jump(tag_255)\n        /* \"hopium/uniswap/main/price-oracle.sol\":4617:4644  if (n == 8)  return POW10_8 */\n    tag_264:\n        /* \"hopium/uniswap/main/price-oracle.sol\":4663:4664  9 */\n      0x09\n        /* \"hopium/uniswap/main/price-oracle.sol\":4658:4659  n */\n      dup3\n        /* \"hopium/uniswap/main/price-oracle.sol\":4658:4664  n == 9 */\n      0xff\n      and\n      sub\n        /* \"hopium/uniswap/main/price-oracle.sol\":4654:4681  if (n == 9)  return POW10_9 */\n      tag_265\n      jumpi\n        /* \"hopium/uniswap/main/price-oracle.sol\":3624:3637  1_000_000_000 */\n      0x3b9aca00\n        /* \"hopium/uniswap/main/price-oracle.sol\":4667:4681  return POW10_9 */\n      swap1\n      pop\n      jump(tag_255)\n        /* \"hopium/uniswap/main/price-oracle.sol\":4654:4681  if (n == 9)  return POW10_9 */\n    tag_265:\n        /* \"hopium/uniswap/main/price-oracle.sol\":4700:4702  10 */\n      0x0a\n        /* \"hopium/uniswap/main/price-oracle.sol\":4695:4696  n */\n      dup3\n        /* \"hopium/uniswap/main/price-oracle.sol\":4695:4702  n == 10 */\n      0xff\n      and\n      sub\n        /* \"hopium/uniswap/main/price-oracle.sol\":4691:4719  if (n == 10) return POW10_10 */\n      tag_266\n      jumpi\n        /* \"hopium/uniswap/main/price-oracle.sol\":3679:3693  10_000_000_000 */\n      0x02540be400\n        /* \"hopium/uniswap/main/price-oracle.sol\":4704:4719  return POW10_10 */\n      swap1\n      pop\n      jump(tag_255)\n        /* \"hopium/uniswap/main/price-oracle.sol\":4691:4719  if (n == 10) return POW10_10 */\n    tag_266:\n        /* \"hopium/uniswap/main/price-oracle.sol\":4738:4740  11 */\n      0x0b\n        /* \"hopium/uniswap/main/price-oracle.sol\":4733:4734  n */\n      dup3\n        /* \"hopium/uniswap/main/price-oracle.sol\":4733:4740  n == 11 */\n      0xff\n      and\n      sub\n        /* \"hopium/uniswap/main/price-oracle.sol\":4729:4757  if (n == 11) return POW10_11 */\n      tag_267\n      jumpi\n        /* \"hopium/uniswap/main/price-oracle.sol\":3735:3750  100_000_000_000 */\n      0x174876e800\n        /* \"hopium/uniswap/main/price-oracle.sol\":4742:4757  return POW10_11 */\n      swap1\n      pop\n      jump(tag_255)\n        /* \"hopium/uniswap/main/price-oracle.sol\":4729:4757  if (n == 11) return POW10_11 */\n    tag_267:\n        /* \"hopium/uniswap/main/price-oracle.sol\":4776:4778  12 */\n      0x0c\n        /* \"hopium/uniswap/main/price-oracle.sol\":4771:4772  n */\n      dup3\n        /* \"hopium/uniswap/main/price-oracle.sol\":4771:4778  n == 12 */\n      0xff\n      and\n      sub\n        /* \"hopium/uniswap/main/price-oracle.sol\":4767:4795  if (n == 12) return POW10_12 */\n      tag_268\n      jumpi\n        /* \"hopium/uniswap/main/price-oracle.sol\":3792:3809  1_000_000_000_000 */\n      0xe8d4a51000\n        /* \"hopium/uniswap/main/price-oracle.sol\":4780:4795  return POW10_12 */\n      swap1\n      pop\n      jump(tag_255)\n        /* \"hopium/uniswap/main/price-oracle.sol\":4767:4795  if (n == 12) return POW10_12 */\n    tag_268:\n        /* \"hopium/uniswap/main/price-oracle.sol\":4814:4816  13 */\n      0x0d\n        /* \"hopium/uniswap/main/price-oracle.sol\":4809:4810  n */\n      dup3\n        /* \"hopium/uniswap/main/price-oracle.sol\":4809:4816  n == 13 */\n      0xff\n      and\n      sub\n        /* \"hopium/uniswap/main/price-oracle.sol\":4805:4833  if (n == 13) return POW10_13 */\n      tag_269\n      jumpi\n        /* \"hopium/uniswap/main/price-oracle.sol\":3851:3869  10_000_000_000_000 */\n      0x09184e72a000\n        /* \"hopium/uniswap/main/price-oracle.sol\":4818:4833  return POW10_13 */\n      swap1\n      pop\n      jump(tag_255)\n        /* \"hopium/uniswap/main/price-oracle.sol\":4805:4833  if (n == 13) return POW10_13 */\n    tag_269:\n        /* \"hopium/uniswap/main/price-oracle.sol\":4852:4854  14 */\n      0x0e\n        /* \"hopium/uniswap/main/price-oracle.sol\":4847:4848  n */\n      dup3\n        /* \"hopium/uniswap/main/price-oracle.sol\":4847:4854  n == 14 */\n      0xff\n      and\n      sub\n        /* \"hopium/uniswap/main/price-oracle.sol\":4843:4871  if (n == 14) return POW10_14 */\n      tag_270\n      jumpi\n        /* \"hopium/uniswap/main/price-oracle.sol\":3911:3930  100_000_000_000_000 */\n      0x5af3107a4000\n        /* \"hopium/uniswap/main/price-oracle.sol\":4856:4871  return POW10_14 */\n      swap1\n      pop\n      jump(tag_255)\n        /* \"hopium/uniswap/main/price-oracle.sol\":4843:4871  if (n == 14) return POW10_14 */\n    tag_270:\n        /* \"hopium/uniswap/main/price-oracle.sol\":4890:4892  15 */\n      0x0f\n        /* \"hopium/uniswap/main/price-oracle.sol\":4885:4886  n */\n      dup3\n        /* \"hopium/uniswap/main/price-oracle.sol\":4885:4892  n == 15 */\n      0xff\n      and\n      sub\n        /* \"hopium/uniswap/main/price-oracle.sol\":4881:4909  if (n == 15) return POW10_15 */\n      tag_271\n      jumpi\n        /* \"hopium/uniswap/main/price-oracle.sol\":3972:3993  1_000_000_000_000_000 */\n      0x038d7ea4c68000\n        /* \"hopium/uniswap/main/price-oracle.sol\":4894:4909  return POW10_15 */\n      swap1\n      pop\n      jump(tag_255)\n        /* \"hopium/uniswap/main/price-oracle.sol\":4881:4909  if (n == 15) return POW10_15 */\n    tag_271:\n        /* \"hopium/uniswap/main/price-oracle.sol\":4928:4930  16 */\n      0x10\n        /* \"hopium/uniswap/main/price-oracle.sol\":4923:4924  n */\n      dup3\n        /* \"hopium/uniswap/main/price-oracle.sol\":4923:4930  n == 16 */\n      0xff\n      and\n      sub\n        /* \"hopium/uniswap/main/price-oracle.sol\":4919:4947  if (n == 16) return POW10_16 */\n      tag_272\n      jumpi\n        /* \"hopium/uniswap/main/price-oracle.sol\":4035:4057  10_000_000_000_000_000 */\n      0x2386f26fc10000\n        /* \"hopium/uniswap/main/price-oracle.sol\":4932:4947  return POW10_16 */\n      swap1\n      pop\n      jump(tag_255)\n        /* \"hopium/uniswap/main/price-oracle.sol\":4919:4947  if (n == 16) return POW10_16 */\n    tag_272:\n        /* \"hopium/uniswap/main/price-oracle.sol\":4966:4968  17 */\n      0x11\n        /* \"hopium/uniswap/main/price-oracle.sol\":4961:4962  n */\n      dup3\n        /* \"hopium/uniswap/main/price-oracle.sol\":4961:4968  n == 17 */\n      0xff\n      and\n      sub\n        /* \"hopium/uniswap/main/price-oracle.sol\":4957:4985  if (n == 17) return POW10_17 */\n      tag_273\n      jumpi\n        /* \"hopium/uniswap/main/price-oracle.sol\":4099:4122  100_000_000_000_000_000 */\n      0x016345785d8a0000\n        /* \"hopium/uniswap/main/price-oracle.sol\":4970:4985  return POW10_17 */\n      swap1\n      pop\n      jump(tag_255)\n        /* \"hopium/uniswap/main/price-oracle.sol\":4957:4985  if (n == 17) return POW10_17 */\n    tag_273:\n        /* \"hopium/uniswap/main/price-oracle.sol\":4164:4189  1_000_000_000_000_000_000 */\n      0x0de0b6b3a7640000\n        /* \"hopium/uniswap/main/price-oracle.sol\":5014:5029  return POW10_18 */\n      swap1\n      pop\n        /* \"hopium/uniswap/main/price-oracle.sol\":4254:5036  function _pow10(uint8 n) internal pure returns (uint256) {... */\n    tag_255:\n      swap2\n      swap1\n      pop\n      jump\t// out\n        /* \"hopium/uniswap/interface/imPoolFinder.sol\":425:564  function getPoolFinder() internal view virtual returns (IPoolFinder) {... */\n    tag_178:\n        /* \"hopium/uniswap/interface/imPoolFinder.sol\":481:492  IPoolFinder */\n      0x00\n        /* \"hopium/uniswap/interface/imPoolFinder.sol\":523:556  fetchFromDirectory(\"pool-finder\") */\n      tag_275\n      mload(0x40)\n      dup1\n      0x40\n      add\n      0x40\n      mstore\n      dup1\n      0x0b\n      dup2\n      mstore\n      0x20\n      add\n      0x706f6f6c2d66696e646572000000000000000000000000000000000000000000\n      dup2\n      mstore\n      pop\n        /* \"hopium/uniswap/interface/imPoolFinder.sol\":523:541  fetchFromDirectory */\n      tag_42\n        /* \"hopium/uniswap/interface/imPoolFinder.sol\":523:556  fetchFromDirectory(\"pool-finder\") */\n      jump\t// in\n    tag_275:\n        /* \"hopium/uniswap/interface/imPoolFinder.sol\":504:557  return IPoolFinder(fetchFromDirectory(\"pool-finder\")) */\n      swap1\n      pop\n        /* \"hopium/uniswap/interface/imPoolFinder.sol\":425:564  function getPoolFinder() internal view virtual returns (IPoolFinder) {... */\n      swap1\n      jump\t// out\n        /* \"#utility.yul\":7:82   */\n    tag_276:\n        /* \"#utility.yul\":40:46   */\n      0x00\n        /* \"#utility.yul\":73:75   */\n      0x40\n        /* \"#utility.yul\":67:76   */\n      mload\n        /* \"#utility.yul\":57:76   */\n      swap1\n      pop\n        /* \"#utility.yul\":7:82   */\n      swap1\n      jump\t// out\n        /* \"#utility.yul\":88:205   */\n    tag_277:\n        /* \"#utility.yul\":197:198   */\n      0x00\n        /* \"#utility.yul\":194:195   */\n      0x00\n        /* \"#utility.yul\":187:199   */\n      revert\n        /* \"#utility.yul\":211:328   */\n    tag_278:\n        /* \"#utility.yul\":320:321   */\n      0x00\n        /* \"#utility.yul\":317:318   */\n      0x00\n        /* \"#utility.yul\":310:322   */\n      revert\n        /* \"#utility.yul\":334:460   */\n    tag_279:\n        /* \"#utility.yul\":371:378   */\n      0x00\n        /* \"#utility.yul\":411:453   */\n      0xffffffffffffffffffffffffffffffffffffffff\n        /* \"#utility.yul\":404:409   */\n      dup3\n        /* \"#utility.yul\":400:454   */\n      and\n        /* \"#utility.yul\":389:454   */\n      swap1\n      pop\n        /* \"#utility.yul\":334:460   */\n      swap2\n      swap1\n      pop\n      jump\t// out\n        /* \"#utility.yul\":466:562   */\n    tag_280:\n        /* \"#utility.yul\":503:510   */\n      0x00\n        /* \"#utility.yul\":532:556   */\n      tag_358\n        /* \"#utility.yul\":550:555   */\n      dup3\n        /* \"#utility.yul\":532:556   */\n      tag_279\n      jump\t// in\n    tag_358:\n        /* \"#utility.yul\":521:556   */\n      swap1\n      pop\n        /* \"#utility.yul\":466:562   */\n      swap2\n      swap1\n      pop\n      jump\t// out\n        /* \"#utility.yul\":568:690   */\n    tag_281:\n        /* \"#utility.yul\":641:665   */\n      tag_360\n        /* \"#utility.yul\":659:664   */\n      dup2\n        /* \"#utility.yul\":641:665   */\n      tag_280\n      jump\t// in\n    tag_360:\n        /* \"#utility.yul\":634:639   */\n      dup2\n        /* \"#utility.yul\":631:666   */\n      eq\n        /* \"#utility.yul\":621:684   */\n      tag_361\n      jumpi\n        /* \"#utility.yul\":680:681   */\n      0x00\n        /* \"#utility.yul\":677:678   */\n      0x00\n        /* \"#utility.yul\":670:682   */\n      revert\n        /* \"#utility.yul\":621:684   */\n    tag_361:\n        /* \"#utility.yul\":568:690   */\n      pop\n      jump\t// out\n        /* \"#utility.yul\":696:835   */\n    tag_282:\n        /* \"#utility.yul\":742:747   */\n      0x00\n        /* \"#utility.yul\":780:786   */\n      dup2\n        /* \"#utility.yul\":767:787   */\n      calldataload\n        /* \"#utility.yul\":758:787   */\n      swap1\n      pop\n        /* \"#utility.yul\":796:829   */\n      tag_363\n        /* \"#utility.yul\":823:828   */\n      dup2\n        /* \"#utility.yul\":796:829   */\n      tag_281\n      jump\t// in\n    tag_363:\n        /* \"#utility.yul\":696:835   */\n      swap3\n      swap2\n      pop\n      pop\n      jump\t// out\n        /* \"#utility.yul\":841:1170   */\n    tag_24:\n        /* \"#utility.yul\":900:906   */\n      0x00\n        /* \"#utility.yul\":949:951   */\n      0x20\n        /* \"#utility.yul\":937:946   */\n      dup3\n        /* \"#utility.yul\":928:935   */\n      dup5\n        /* \"#utility.yul\":924:947   */\n      sub\n        /* \"#utility.yul\":920:952   */\n      slt\n        /* \"#utility.yul\":917:1036   */\n      iszero\n      tag_365\n      jumpi\n        /* \"#utility.yul\":955:1034   */\n      tag_366\n      tag_277\n      jump\t// in\n    tag_366:\n        /* \"#utility.yul\":917:1036   */\n    tag_365:\n        /* \"#utility.yul\":1075:1076   */\n      0x00\n        /* \"#utility.yul\":1100:1153   */\n      tag_367\n        /* \"#utility.yul\":1145:1152   */\n      dup5\n        /* \"#utility.yul\":1136:1142   */\n      dup3\n        /* \"#utility.yul\":1125:1134   */\n      dup6\n        /* \"#utility.yul\":1121:1143   */\n      add\n        /* \"#utility.yul\":1100:1153   */\n      tag_282\n      jump\t// in\n    tag_367:\n        /* \"#utility.yul\":1090:1153   */\n      swap2\n      pop\n        /* \"#utility.yul\":1046:1163   */\n      pop\n        /* \"#utility.yul\":841:1170   */\n      swap3\n      swap2\n      pop\n      pop\n      jump\t// out\n        /* \"#utility.yul\":1176:1253   */\n    tag_283:\n        /* \"#utility.yul\":1213:1220   */\n      0x00\n        /* \"#utility.yul\":1242:1247   */\n      dup2\n        /* \"#utility.yul\":1231:1247   */\n      swap1\n      pop\n        /* \"#utility.yul\":1176:1253   */\n      swap2\n      swap1\n      pop\n      jump\t// out\n        /* \"#utility.yul\":1259:1377   */\n    tag_284:\n        /* \"#utility.yul\":1346:1370   */\n      tag_370\n        /* \"#utility.yul\":1364:1369   */\n      dup2\n        /* \"#utility.yul\":1346:1370   */\n      tag_283\n      jump\t// in\n    tag_370:\n        /* \"#utility.yul\":1341:1344   */\n      dup3\n        /* \"#utility.yul\":1334:1371   */\n      mstore\n        /* \"#utility.yul\":1259:1377   */\n      pop\n      pop\n      jump\t// out\n        /* \"#utility.yul\":1383:1605   */\n    tag_27:\n        /* \"#utility.yul\":1476:1480   */\n      0x00\n        /* \"#utility.yul\":1514:1516   */\n      0x20\n        /* \"#utility.yul\":1503:1512   */\n      dup3\n        /* \"#utility.yul\":1499:1517   */\n      add\n        /* \"#utility.yul\":1491:1517   */\n      swap1\n      pop\n        /* \"#utility.yul\":1527:1598   */\n      tag_372\n        /* \"#utility.yul\":1595:1596   */\n      0x00\n        /* \"#utility.yul\":1584:1593   */\n      dup4\n        /* \"#utility.yul\":1580:1597   */\n      add\n        /* \"#utility.yul\":1571:1577   */\n      dup5\n        /* \"#utility.yul\":1527:1598   */\n      tag_284\n      jump\t// in\n    tag_372:\n        /* \"#utility.yul\":1383:1605   */\n      swap3\n      swap2\n      pop\n      pop\n      jump\t// out\n        /* \"#utility.yul\":1611:1729   */\n    tag_285:\n        /* \"#utility.yul\":1698:1722   */\n      tag_374\n        /* \"#utility.yul\":1716:1721   */\n      dup2\n        /* \"#utility.yul\":1698:1722   */\n      tag_280\n      jump\t// in\n    tag_374:\n        /* \"#utility.yul\":1693:1696   */\n      dup3\n        /* \"#utility.yul\":1686:1723   */\n      mstore\n        /* \"#utility.yul\":1611:1729   */\n      pop\n      pop\n      jump\t// out\n        /* \"#utility.yul\":1735:1957   */\n    tag_31:\n        /* \"#utility.yul\":1828:1832   */\n      0x00\n        /* \"#utility.yul\":1866:1868   */\n      0x20\n        /* \"#utility.yul\":1855:1864   */\n      dup3\n        /* \"#utility.yul\":1851:1869   */\n      add\n        /* \"#utility.yul\":1843:1869   */\n      swap1\n      pop\n        /* \"#utility.yul\":1879:1950   */\n      tag_376\n        /* \"#utility.yul\":1947:1948   */\n      0x00\n        /* \"#utility.yul\":1936:1945   */\n      dup4\n        /* \"#utility.yul\":1932:1949   */\n      add\n        /* \"#utility.yul\":1923:1929   */\n      dup5\n        /* \"#utility.yul\":1879:1950   */\n      tag_285\n      jump\t// in\n    tag_376:\n        /* \"#utility.yul\":1735:1957   */\n      swap3\n      swap2\n      pop\n      pop\n      jump\t// out\n        /* \"#utility.yul\":1963:2080   */\n    tag_286:\n        /* \"#utility.yul\":2072:2073   */\n      0x00\n        /* \"#utility.yul\":2069:2070   */\n      0x00\n        /* \"#utility.yul\":2062:2074   */\n      revert\n        /* \"#utility.yul\":2086:2203   */\n    tag_287:\n        /* \"#utility.yul\":2195:2196   */\n      0x00\n        /* \"#utility.yul\":2192:2193   */\n      0x00\n        /* \"#utility.yul\":2185:2197   */\n      revert\n        /* \"#utility.yul\":2209:2311   */\n    tag_288:\n        /* \"#utility.yul\":2250:2256   */\n      0x00\n        /* \"#utility.yul\":2301:2303   */\n      0x1f\n        /* \"#utility.yul\":2297:2304   */\n      not\n        /* \"#utility.yul\":2292:2294   */\n      0x1f\n        /* \"#utility.yul\":2285:2290   */\n      dup4\n        /* \"#utility.yul\":2281:2295   */\n      add\n        /* \"#utility.yul\":2277:2305   */\n      and\n        /* \"#utility.yul\":2267:2305   */\n      swap1\n      pop\n        /* \"#utility.yul\":2209:2311   */\n      swap2\n      swap1\n      pop\n      jump\t// out\n        /* \"#utility.yul\":2317:2497   */\n    tag_289:\n        /* \"#utility.yul\":2365:2442   */\n      0x4e487b7100000000000000000000000000000000000000000000000000000000\n        /* \"#utility.yul\":2362:2363   */\n      0x00\n        /* \"#utility.yul\":2355:2443   */\n      mstore\n        /* \"#utility.yul\":2462:2466   */\n      0x41\n        /* \"#utility.yul\":2459:2460   */\n      0x04\n        /* \"#utility.yul\":2452:2467   */\n      mstore\n        /* \"#utility.yul\":2486:2490   */\n      0x24\n        /* \"#utility.yul\":2483:2484   */\n      0x00\n        /* \"#utility.yul\":2476:2491   */\n      revert\n        /* \"#utility.yul\":2503:2784   */\n    tag_290:\n        /* \"#utility.yul\":2586:2613   */\n      tag_382\n        /* \"#utility.yul\":2608:2612   */\n      dup3\n        /* \"#utility.yul\":2586:2613   */\n      tag_288\n      jump\t// in\n    tag_382:\n        /* \"#utility.yul\":2578:2584   */\n      dup2\n        /* \"#utility.yul\":2574:2614   */\n      add\n        /* \"#utility.yul\":2716:2722   */\n      dup2\n        /* \"#utility.yul\":2704:2714   */\n      dup2\n        /* \"#utility.yul\":2701:2723   */\n      lt\n        /* \"#utility.yul\":2680:2698   */\n      0xffffffffffffffff\n        /* \"#utility.yul\":2668:2678   */\n      dup3\n        /* \"#utility.yul\":2665:2699   */\n      gt\n        /* \"#utility.yul\":2662:2724   */\n      or\n        /* \"#utility.yul\":2659:2747   */\n      iszero\n      tag_383\n      jumpi\n        /* \"#utility.yul\":2727:2745   */\n      tag_384\n      tag_289\n      jump\t// in\n    tag_384:\n        /* \"#utility.yul\":2659:2747   */\n    tag_383:\n        /* \"#utility.yul\":2767:2777   */\n      dup1\n        /* \"#utility.yul\":2763:2765   */\n      0x40\n        /* \"#utility.yul\":2756:2778   */\n      mstore\n        /* \"#utility.yul\":2546:2784   */\n      pop\n        /* \"#utility.yul\":2503:2784   */\n      pop\n      pop\n      jump\t// out\n        /* \"#utility.yul\":2790:2919   */\n    tag_291:\n        /* \"#utility.yul\":2824:2830   */\n      0x00\n        /* \"#utility.yul\":2851:2871   */\n      tag_386\n      tag_276\n      jump\t// in\n    tag_386:\n        /* \"#utility.yul\":2841:2871   */\n      swap1\n      pop\n        /* \"#utility.yul\":2880:2913   */\n      tag_387\n        /* \"#utility.yul\":2908:2912   */\n      dup3\n        /* \"#utility.yul\":2900:2906   */\n      dup3\n        /* \"#utility.yul\":2880:2913   */\n      tag_290\n      jump\t// in\n    tag_387:\n        /* \"#utility.yul\":2790:2919   */\n      swap2\n      swap1\n      pop\n      jump\t// out\n        /* \"#utility.yul\":2925:3233   */\n    tag_292:\n        /* \"#utility.yul\":2987:2991   */\n      0x00\n        /* \"#utility.yul\":3077:3095   */\n      0xffffffffffffffff\n        /* \"#utility.yul\":3069:3075   */\n      dup3\n        /* \"#utility.yul\":3066:3096   */\n      gt\n        /* \"#utility.yul\":3063:3119   */\n      iszero\n      tag_389\n      jumpi\n        /* \"#utility.yul\":3099:3117   */\n      tag_390\n      tag_289\n      jump\t// in\n    tag_390:\n        /* \"#utility.yul\":3063:3119   */\n    tag_389:\n        /* \"#utility.yul\":3137:3166   */\n      tag_391\n        /* \"#utility.yul\":3159:3165   */\n      dup3\n        /* \"#utility.yul\":3137:3166   */\n      tag_288\n      jump\t// in\n    tag_391:\n        /* \"#utility.yul\":3129:3166   */\n      swap1\n      pop\n        /* \"#utility.yul\":3221:3225   */\n      0x20\n        /* \"#utility.yul\":3215:3219   */\n      dup2\n        /* \"#utility.yul\":3211:3226   */\n      add\n        /* \"#utility.yul\":3203:3226   */\n      swap1\n      pop\n        /* \"#utility.yul\":2925:3233   */\n      swap2\n      swap1\n      pop\n      jump\t// out\n        /* \"#utility.yul\":3239:3387   */\n    tag_293:\n        /* \"#utility.yul\":3337:3343   */\n      dup3\n        /* \"#utility.yul\":3332:3335   */\n      dup2\n        /* \"#utility.yul\":3327:3330   */\n      dup4\n        /* \"#utility.yul\":3314:3344   */\n      calldatacopy\n        /* \"#utility.yul\":3378:3379   */\n      0x00\n        /* \"#utility.yul\":3369:3375   */\n      dup4\n        /* \"#utility.yul\":3364:3367   */\n      dup4\n        /* \"#utility.yul\":3360:3376   */\n      add\n        /* \"#utility.yul\":3353:3380   */\n      mstore\n        /* \"#utility.yul\":3239:3387   */\n      pop\n      pop\n      pop\n      jump\t// out\n        /* \"#utility.yul\":3393:3818   */\n    tag_294:\n        /* \"#utility.yul\":3471:3476   */\n      0x00\n        /* \"#utility.yul\":3496:3562   */\n      tag_394\n        /* \"#utility.yul\":3512:3561   */\n      tag_395\n        /* \"#utility.yul\":3554:3560   */\n      dup5\n        /* \"#utility.yul\":3512:3561   */\n      tag_292\n      jump\t// in\n    tag_395:\n        /* \"#utility.yul\":3496:3562   */\n      tag_291\n      jump\t// in\n    tag_394:\n        /* \"#utility.yul\":3487:3562   */\n      swap1\n      pop\n        /* \"#utility.yul\":3585:3591   */\n      dup3\n        /* \"#utility.yul\":3578:3583   */\n      dup2\n        /* \"#utility.yul\":3571:3592   */\n      mstore\n        /* \"#utility.yul\":3623:3627   */\n      0x20\n        /* \"#utility.yul\":3616:3621   */\n      dup2\n        /* \"#utility.yul\":3612:3628   */\n      add\n        /* \"#utility.yul\":3661:3664   */\n      dup5\n        /* \"#utility.yul\":3652:3658   */\n      dup5\n        /* \"#utility.yul\":3647:3650   */\n      dup5\n        /* \"#utility.yul\":3643:3659   */\n      add\n        /* \"#utility.yul\":3640:3665   */\n      gt\n        /* \"#utility.yul\":3637:3749   */\n      iszero\n      tag_396\n      jumpi\n        /* \"#utility.yul\":3668:3747   */\n      tag_397\n      tag_287\n      jump\t// in\n    tag_397:\n        /* \"#utility.yul\":3637:3749   */\n    tag_396:\n        /* \"#utility.yul\":3758:3812   */\n      tag_398\n        /* \"#utility.yul\":3805:3811   */\n      dup5\n        /* \"#utility.yul\":3800:3803   */\n      dup3\n        /* \"#utility.yul\":3795:3798   */\n      dup6\n        /* \"#utility.yul\":3758:3812   */\n      tag_293\n      jump\t// in\n    tag_398:\n        /* \"#utility.yul\":3477:3818   */\n      pop\n        /* \"#utility.yul\":3393:3818   */\n      swap4\n      swap3\n      pop\n      pop\n      pop\n      jump\t// out\n        /* \"#utility.yul\":3838:4178   */\n    tag_295:\n        /* \"#utility.yul\":3894:3899   */\n      0x00\n        /* \"#utility.yul\":3943:3946   */\n      dup3\n        /* \"#utility.yul\":3936:3940   */\n      0x1f\n        /* \"#utility.yul\":3928:3934   */\n      dup4\n        /* \"#utility.yul\":3924:3941   */\n      add\n        /* \"#utility.yul\":3920:3947   */\n      slt\n        /* \"#utility.yul\":3910:4032   */\n      tag_400\n      jumpi\n        /* \"#utility.yul\":3951:4030   */\n      tag_401\n      tag_286\n      jump\t// in\n    tag_401:\n        /* \"#utility.yul\":3910:4032   */\n    tag_400:\n        /* \"#utility.yul\":4068:4074   */\n      dup2\n        /* \"#utility.yul\":4055:4075   */\n      calldataload\n        /* \"#utility.yul\":4093:4172   */\n      tag_402\n        /* \"#utility.yul\":4168:4171   */\n      dup5\n        /* \"#utility.yul\":4160:4166   */\n      dup3\n        /* \"#utility.yul\":4153:4157   */\n      0x20\n        /* \"#utility.yul\":4145:4151   */\n      dup7\n        /* \"#utility.yul\":4141:4158   */\n      add\n        /* \"#utility.yul\":4093:4172   */\n      tag_294\n      jump\t// in\n    tag_402:\n        /* \"#utility.yul\":4084:4172   */\n      swap2\n      pop\n        /* \"#utility.yul\":3900:4178   */\n      pop\n        /* \"#utility.yul\":3838:4178   */\n      swap3\n      swap2\n      pop\n      pop\n      jump\t// out\n        /* \"#utility.yul\":4184:4693   */\n    tag_41:\n        /* \"#utility.yul\":4253:4259   */\n      0x00\n        /* \"#utility.yul\":4302:4304   */\n      0x20\n        /* \"#utility.yul\":4290:4299   */\n      dup3\n        /* \"#utility.yul\":4281:4288   */\n      dup5\n        /* \"#utility.yul\":4277:4300   */\n      sub\n        /* \"#utility.yul\":4273:4305   */\n      slt\n        /* \"#utility.yul\":4270:4389   */\n      iszero\n      tag_404\n      jumpi\n        /* \"#utility.yul\":4308:4387   */\n      tag_405\n      tag_277\n      jump\t// in\n    tag_405:\n        /* \"#utility.yul\":4270:4389   */\n    tag_404:\n        /* \"#utility.yul\":4456:4457   */\n      0x00\n        /* \"#utility.yul\":4445:4454   */\n      dup3\n        /* \"#utility.yul\":4441:4458   */\n      add\n        /* \"#utility.yul\":4428:4459   */\n      calldataload\n        /* \"#utility.yul\":4486:4504   */\n      0xffffffffffffffff\n        /* \"#utility.yul\":4478:4484   */\n      dup2\n        /* \"#utility.yul\":4475:4505   */\n      gt\n        /* \"#utility.yul\":4472:4589   */\n      iszero\n      tag_406\n      jumpi\n        /* \"#utility.yul\":4508:4587   */\n      tag_407\n      tag_278\n      jump\t// in\n    tag_407:\n        /* \"#utility.yul\":4472:4589   */\n    tag_406:\n        /* \"#utility.yul\":4613:4676   */\n      tag_408\n        /* \"#utility.yul\":4668:4675   */\n      dup5\n        /* \"#utility.yul\":4659:4665   */\n      dup3\n        /* \"#utility.yul\":4648:4657   */\n      dup6\n        /* \"#utility.yul\":4644:4666   */\n      add\n        /* \"#utility.yul\":4613:4676   */\n      tag_295\n      jump\t// in\n    tag_408:\n        /* \"#utility.yul\":4603:4676   */\n      swap2\n      pop\n        /* \"#utility.yul\":4399:4686   */\n      pop\n        /* \"#utility.yul\":4184:4693   */\n      swap3\n      swap2\n      pop\n      pop\n      jump\t// out\n        /* \"#utility.yul\":4699:4789   */\n    tag_296:\n        /* \"#utility.yul\":4733:4740   */\n      0x00\n        /* \"#utility.yul\":4776:4781   */\n      dup2\n        /* \"#utility.yul\":4769:4782   */\n      iszero\n        /* \"#utility.yul\":4762:4783   */\n      iszero\n        /* \"#utility.yul\":4751:4783   */\n      swap1\n      pop\n        /* \"#utility.yul\":4699:4789   */\n      swap2\n      swap1\n      pop\n      jump\t// out\n        /* \"#utility.yul\":4795:4904   */\n    tag_297:\n        /* \"#utility.yul\":4876:4897   */\n      tag_411\n        /* \"#utility.yul\":4891:4896   */\n      dup2\n        /* \"#utility.yul\":4876:4897   */\n      tag_296\n      jump\t// in\n    tag_411:\n        /* \"#utility.yul\":4871:4874   */\n      dup3\n        /* \"#utility.yul\":4864:4898   */\n      mstore\n        /* \"#utility.yul\":4795:4904   */\n      pop\n      pop\n      jump\t// out\n        /* \"#utility.yul\":4910:5120   */\n    tag_47:\n        /* \"#utility.yul\":4997:5001   */\n      0x00\n        /* \"#utility.yul\":5035:5037   */\n      0x20\n        /* \"#utility.yul\":5024:5033   */\n      dup3\n        /* \"#utility.yul\":5020:5038   */\n      add\n        /* \"#utility.yul\":5012:5038   */\n      swap1\n      pop\n        /* \"#utility.yul\":5048:5113   */\n      tag_413\n        /* \"#utility.yul\":5110:5111   */\n      0x00\n        /* \"#utility.yul\":5099:5108   */\n      dup4\n        /* \"#utility.yul\":5095:5112   */\n      add\n        /* \"#utility.yul\":5086:5092   */\n      dup5\n        /* \"#utility.yul\":5048:5113   */\n      tag_297\n      jump\t// in\n    tag_413:\n        /* \"#utility.yul\":4910:5120   */\n      swap3\n      swap2\n      pop\n      pop\n      jump\t// out\n        /* \"#utility.yul\":5126:5186   */\n    tag_298:\n        /* \"#utility.yul\":5154:5157   */\n      0x00\n        /* \"#utility.yul\":5175:5180   */\n      dup2\n        /* \"#utility.yul\":5168:5180   */\n      swap1\n      pop\n        /* \"#utility.yul\":5126:5186   */\n      swap2\n      swap1\n      pop\n      jump\t// out\n        /* \"#utility.yul\":5192:5334   */\n    tag_299:\n        /* \"#utility.yul\":5242:5251   */\n      0x00\n        /* \"#utility.yul\":5275:5328   */\n      tag_416\n        /* \"#utility.yul\":5293:5327   */\n      tag_417\n        /* \"#utility.yul\":5302:5326   */\n      tag_418\n        /* \"#utility.yul\":5320:5325   */\n      dup5\n        /* \"#utility.yul\":5302:5326   */\n      tag_279\n      jump\t// in\n    tag_418:\n        /* \"#utility.yul\":5293:5327   */\n      tag_298\n      jump\t// in\n    tag_417:\n        /* \"#utility.yul\":5275:5328   */\n      tag_279\n      jump\t// in\n    tag_416:\n        /* \"#utility.yul\":5262:5328   */\n      swap1\n      pop\n        /* \"#utility.yul\":5192:5334   */\n      swap2\n      swap1\n      pop\n      jump\t// out\n        /* \"#utility.yul\":5340:5466   */\n    tag_300:\n        /* \"#utility.yul\":5390:5399   */\n      0x00\n        /* \"#utility.yul\":5423:5460   */\n      tag_420\n        /* \"#utility.yul\":5454:5459   */\n      dup3\n        /* \"#utility.yul\":5423:5460   */\n      tag_299\n      jump\t// in\n    tag_420:\n        /* \"#utility.yul\":5410:5460   */\n      swap1\n      pop\n        /* \"#utility.yul\":5340:5466   */\n      swap2\n      swap1\n      pop\n      jump\t// out\n        /* \"#utility.yul\":5472:5615   */\n    tag_301:\n        /* \"#utility.yul\":5539:5548   */\n      0x00\n        /* \"#utility.yul\":5572:5609   */\n      tag_422\n        /* \"#utility.yul\":5603:5608   */\n      dup3\n        /* \"#utility.yul\":5572:5609   */\n      tag_300\n      jump\t// in\n    tag_422:\n        /* \"#utility.yul\":5559:5609   */\n      swap1\n      pop\n        /* \"#utility.yul\":5472:5615   */\n      swap2\n      swap1\n      pop\n      jump\t// out\n        /* \"#utility.yul\":5621:5786   */\n    tag_302:\n        /* \"#utility.yul\":5725:5779   */\n      tag_424\n        /* \"#utility.yul\":5773:5778   */\n      dup2\n        /* \"#utility.yul\":5725:5779   */\n      tag_301\n      jump\t// in\n    tag_424:\n        /* \"#utility.yul\":5720:5723   */\n      dup3\n        /* \"#utility.yul\":5713:5780   */\n      mstore\n        /* \"#utility.yul\":5621:5786   */\n      pop\n      pop\n      jump\t// out\n        /* \"#utility.yul\":5792:6048   */\n    tag_59:\n        /* \"#utility.yul\":5902:5906   */\n      0x00\n        /* \"#utility.yul\":5940:5942   */\n      0x20\n        /* \"#utility.yul\":5929:5938   */\n      dup3\n        /* \"#utility.yul\":5925:5943   */\n      add\n        /* \"#utility.yul\":5917:5943   */\n      swap1\n      pop\n        /* \"#utility.yul\":5953:6041   */\n      tag_426\n        /* \"#utility.yul\":6038:6039   */\n      0x00\n        /* \"#utility.yul\":6027:6036   */\n      dup4\n        /* \"#utility.yul\":6023:6040   */\n      add\n        /* \"#utility.yul\":6014:6020   */\n      dup5\n        /* \"#utility.yul\":5953:6041   */\n      tag_302\n      jump\t// in\n    tag_426:\n        /* \"#utility.yul\":5792:6048   */\n      swap3\n      swap2\n      pop\n      pop\n      jump\t// out\n        /* \"#utility.yul\":6054:6374   */\n    tag_75:\n        /* \"#utility.yul\":6169:6173   */\n      0x00\n        /* \"#utility.yul\":6207:6209   */\n      0x40\n        /* \"#utility.yul\":6196:6205   */\n      dup3\n        /* \"#utility.yul\":6192:6210   */\n      add\n        /* \"#utility.yul\":6184:6210   */\n      swap1\n      pop\n        /* \"#utility.yul\":6220:6285   */\n      tag_428\n        /* \"#utility.yul\":6282:6283   */\n      0x00\n        /* \"#utility.yul\":6271:6280   */\n      dup4\n        /* \"#utility.yul\":6267:6284   */\n      add\n        /* \"#utility.yul\":6258:6264   */\n      dup6\n        /* \"#utility.yul\":6220:6285   */\n      tag_297\n      jump\t// in\n    tag_428:\n        /* \"#utility.yul\":6295:6367   */\n      tag_429\n        /* \"#utility.yul\":6363:6365   */\n      0x20\n        /* \"#utility.yul\":6352:6361   */\n      dup4\n        /* \"#utility.yul\":6348:6366   */\n      add\n        /* \"#utility.yul\":6339:6345   */\n      dup5\n        /* \"#utility.yul\":6295:6367   */\n      tag_285\n      jump\t// in\n    tag_429:\n        /* \"#utility.yul\":6054:6374   */\n      swap4\n      swap3\n      pop\n      pop\n      pop\n      jump\t// out\n        /* \"#utility.yul\":6380:6466   */\n    tag_303:\n        /* \"#utility.yul\":6415:6422   */\n      0x00\n        /* \"#utility.yul\":6455:6459   */\n      0xff\n        /* \"#utility.yul\":6448:6453   */\n      dup3\n        /* \"#utility.yul\":6444:6460   */\n      and\n        /* \"#utility.yul\":6433:6460   */\n      swap1\n      pop\n        /* \"#utility.yul\":6380:6466   */\n      swap2\n      swap1\n      pop\n      jump\t// out\n        /* \"#utility.yul\":6472:6584   */\n    tag_304:\n        /* \"#utility.yul\":6555:6577   */\n      tag_432\n        /* \"#utility.yul\":6571:6576   */\n      dup2\n        /* \"#utility.yul\":6555:6577   */\n      tag_303\n      jump\t// in\n    tag_432:\n        /* \"#utility.yul\":6550:6553   */\n      dup3\n        /* \"#utility.yul\":6543:6578   */\n      mstore\n        /* \"#utility.yul\":6472:6584   */\n      pop\n      pop\n      jump\t// out\n        /* \"#utility.yul\":6590:6804   */\n    tag_85:\n        /* \"#utility.yul\":6679:6683   */\n      0x00\n        /* \"#utility.yul\":6717:6719   */\n      0x20\n        /* \"#utility.yul\":6706:6715   */\n      dup3\n        /* \"#utility.yul\":6702:6720   */\n      add\n        /* \"#utility.yul\":6694:6720   */\n      swap1\n      pop\n        /* \"#utility.yul\":6730:6797   */\n      tag_434\n        /* \"#utility.yul\":6794:6795   */\n      0x00\n        /* \"#utility.yul\":6783:6792   */\n      dup4\n        /* \"#utility.yul\":6779:6796   */\n      add\n        /* \"#utility.yul\":6770:6776   */\n      dup5\n        /* \"#utility.yul\":6730:6797   */\n      tag_304\n      jump\t// in\n    tag_434:\n        /* \"#utility.yul\":6590:6804   */\n      swap3\n      swap2\n      pop\n      pop\n      jump\t// out\n        /* \"#utility.yul\":6810:6932   */\n    tag_305:\n        /* \"#utility.yul\":6883:6907   */\n      tag_436\n        /* \"#utility.yul\":6901:6906   */\n      dup2\n        /* \"#utility.yul\":6883:6907   */\n      tag_283\n      jump\t// in\n    tag_436:\n        /* \"#utility.yul\":6876:6881   */\n      dup2\n        /* \"#utility.yul\":6873:6908   */\n      eq\n        /* \"#utility.yul\":6863:6926   */\n      tag_437\n      jumpi\n        /* \"#utility.yul\":6922:6923   */\n      0x00\n        /* \"#utility.yul\":6919:6920   */\n      0x00\n        /* \"#utility.yul\":6912:6924   */\n      revert\n        /* \"#utility.yul\":6863:6926   */\n    tag_437:\n        /* \"#utility.yul\":6810:6932   */\n      pop\n      jump\t// out\n        /* \"#utility.yul\":6938:7081   */\n    tag_306:\n        /* \"#utility.yul\":6995:7000   */\n      0x00\n        /* \"#utility.yul\":7026:7032   */\n      dup2\n        /* \"#utility.yul\":7020:7033   */\n      mload\n        /* \"#utility.yul\":7011:7033   */\n      swap1\n      pop\n        /* \"#utility.yul\":7042:7075   */\n      tag_439\n        /* \"#utility.yul\":7069:7074   */\n      dup2\n        /* \"#utility.yul\":7042:7075   */\n      tag_305\n      jump\t// in\n    tag_439:\n        /* \"#utility.yul\":6938:7081   */\n      swap3\n      swap2\n      pop\n      pop\n      jump\t// out\n        /* \"#utility.yul\":7087:7438   */\n    tag_96:\n        /* \"#utility.yul\":7157:7163   */\n      0x00\n        /* \"#utility.yul\":7206:7208   */\n      0x20\n        /* \"#utility.yul\":7194:7203   */\n      dup3\n        /* \"#utility.yul\":7185:7192   */\n      dup5\n        /* \"#utility.yul\":7181:7204   */\n      sub\n        /* \"#utility.yul\":7177:7209   */\n      slt\n        /* \"#utility.yul\":7174:7293   */\n      iszero\n      tag_441\n      jumpi\n        /* \"#utility.yul\":7212:7291   */\n      tag_442\n      tag_277\n      jump\t// in\n    tag_442:\n        /* \"#utility.yul\":7174:7293   */\n    tag_441:\n        /* \"#utility.yul\":7332:7333   */\n      0x00\n        /* \"#utility.yul\":7357:7421   */\n      tag_443\n        /* \"#utility.yul\":7413:7420   */\n      dup5\n        /* \"#utility.yul\":7404:7410   */\n      dup3\n        /* \"#utility.yul\":7393:7402   */\n      dup6\n        /* \"#utility.yul\":7389:7411   */\n      add\n        /* \"#utility.yul\":7357:7421   */\n      tag_306\n      jump\t// in\n    tag_443:\n        /* \"#utility.yul\":7347:7421   */\n      swap2\n      pop\n        /* \"#utility.yul\":7303:7431   */\n      pop\n        /* \"#utility.yul\":7087:7438   */\n      swap3\n      swap2\n      pop\n      pop\n      jump\t// out\n        /* \"#utility.yul\":7444:7543   */\n    tag_307:\n        /* \"#utility.yul\":7496:7502   */\n      0x00\n        /* \"#utility.yul\":7530:7535   */\n      dup2\n        /* \"#utility.yul\":7524:7536   */\n      mload\n        /* \"#utility.yul\":7514:7536   */\n      swap1\n      pop\n        /* \"#utility.yul\":7444:7543   */\n      swap2\n      swap1\n      pop\n      jump\t// out\n        /* \"#utility.yul\":7549:7718   */\n    tag_308:\n        /* \"#utility.yul\":7633:7644   */\n      0x00\n        /* \"#utility.yul\":7667:7673   */\n      dup3\n        /* \"#utility.yul\":7662:7665   */\n      dup3\n        /* \"#utility.yul\":7655:7674   */\n      mstore\n        /* \"#utility.yul\":7707:7711   */\n      0x20\n        /* \"#utility.yul\":7702:7705   */\n      dup3\n        /* \"#utility.yul\":7698:7712   */\n      add\n        /* \"#utility.yul\":7683:7712   */\n      swap1\n      pop\n        /* \"#utility.yul\":7549:7718   */\n      swap3\n      swap2\n      pop\n      pop\n      jump\t// out\n        /* \"#utility.yul\":7724:7863   */\n    tag_309:\n        /* \"#utility.yul\":7813:7819   */\n      dup3\n        /* \"#utility.yul\":7808:7811   */\n      dup2\n        /* \"#utility.yul\":7803:7806   */\n      dup4\n        /* \"#utility.yul\":7797:7820   */\n      mcopy\n        /* \"#utility.yul\":7854:7855   */\n      0x00\n        /* \"#utility.yul\":7845:7851   */\n      dup4\n        /* \"#utility.yul\":7840:7843   */\n      dup4\n        /* \"#utility.yul\":7836:7852   */\n      add\n        /* \"#utility.yul\":7829:7856   */\n      mstore\n        /* \"#utility.yul\":7724:7863   */\n      pop\n      pop\n      pop\n      jump\t// out\n        /* \"#utility.yul\":7869:8246   */\n    tag_310:\n        /* \"#utility.yul\":7957:7960   */\n      0x00\n        /* \"#utility.yul\":7985:8024   */\n      tag_448\n        /* \"#utility.yul\":8018:8023   */\n      dup3\n        /* \"#utility.yul\":7985:8024   */\n      tag_307\n      jump\t// in\n    tag_448:\n        /* \"#utility.yul\":8040:8111   */\n      tag_449\n        /* \"#utility.yul\":8104:8110   */\n      dup2\n        /* \"#utility.yul\":8099:8102   */\n      dup6\n        /* \"#utility.yul\":8040:8111   */\n      tag_308\n      jump\t// in\n    tag_449:\n        /* \"#utility.yul\":8033:8111   */\n      swap4\n      pop\n        /* \"#utility.yul\":8120:8185   */\n      tag_450\n        /* \"#utility.yul\":8178:8184   */\n      dup2\n        /* \"#utility.yul\":8173:8176   */\n      dup6\n        /* \"#utility.yul\":8166:8170   */\n      0x20\n        /* \"#utility.yul\":8159:8164   */\n      dup7\n        /* \"#utility.yul\":8155:8171   */\n      add\n        /* \"#utility.yul\":8120:8185   */\n      tag_309\n      jump\t// in\n    tag_450:\n        /* \"#utility.yul\":8210:8239   */\n      tag_451\n        /* \"#utility.yul\":8232:8238   */\n      dup2\n        /* \"#utility.yul\":8210:8239   */\n      tag_288\n      jump\t// in\n    tag_451:\n        /* \"#utility.yul\":8205:8208   */\n      dup5\n        /* \"#utility.yul\":8201:8240   */\n      add\n        /* \"#utility.yul\":8194:8240   */\n      swap2\n      pop\n        /* \"#utility.yul\":7961:8246   */\n      pop\n        /* \"#utility.yul\":7869:8246   */\n      swap3\n      swap2\n      pop\n      pop\n      jump\t// out\n        /* \"#utility.yul\":8252:8565   */\n    tag_110:\n        /* \"#utility.yul\":8365:8369   */\n      0x00\n        /* \"#utility.yul\":8403:8405   */\n      0x20\n        /* \"#utility.yul\":8392:8401   */\n      dup3\n        /* \"#utility.yul\":8388:8406   */\n      add\n        /* \"#utility.yul\":8380:8406   */\n      swap1\n      pop\n        /* \"#utility.yul\":8452:8461   */\n      dup2\n        /* \"#utility.yul\":8446:8450   */\n      dup2\n        /* \"#utility.yul\":8442:8462   */\n      sub\n        /* \"#utility.yul\":8438:8439   */\n      0x00\n        /* \"#utility.yul\":8427:8436   */\n      dup4\n        /* \"#utility.yul\":8423:8440   */\n      add\n        /* \"#utility.yul\":8416:8463   */\n      mstore\n        /* \"#utility.yul\":8480:8558   */\n      tag_453\n        /* \"#utility.yul\":8553:8557   */\n      dup2\n        /* \"#utility.yul\":8544:8550   */\n      dup5\n        /* \"#utility.yul\":8480:8558   */\n      tag_310\n      jump\t// in\n    tag_453:\n        /* \"#utility.yul\":8472:8558   */\n      swap1\n      pop\n        /* \"#utility.yul\":8252:8565   */\n      swap3\n      swap2\n      pop\n      pop\n      jump\t// out\n        /* \"#utility.yul\":8571:8714   */\n    tag_311:\n        /* \"#utility.yul\":8628:8633   */\n      0x00\n        /* \"#utility.yul\":8659:8665   */\n      dup2\n        /* \"#utility.yul\":8653:8666   */\n      mload\n        /* \"#utility.yul\":8644:8666   */\n      swap1\n      pop\n        /* \"#utility.yul\":8675:8708   */\n      tag_455\n        /* \"#utility.yul\":8702:8707   */\n      dup2\n        /* \"#utility.yul\":8675:8708   */\n      tag_281\n      jump\t// in\n    tag_455:\n        /* \"#utility.yul\":8571:8714   */\n      swap3\n      swap2\n      pop\n      pop\n      jump\t// out\n        /* \"#utility.yul\":8720:9071   */\n    tag_114:\n        /* \"#utility.yul\":8790:8796   */\n      0x00\n        /* \"#utility.yul\":8839:8841   */\n      0x20\n        /* \"#utility.yul\":8827:8836   */\n      dup3\n        /* \"#utility.yul\":8818:8825   */\n      dup5\n        /* \"#utility.yul\":8814:8837   */\n      sub\n        /* \"#utility.yul\":8810:8842   */\n      slt\n        /* \"#utility.yul\":8807:8926   */\n      iszero\n      tag_457\n      jumpi\n        /* \"#utility.yul\":8845:8924   */\n      tag_458\n      tag_277\n      jump\t// in\n    tag_458:\n        /* \"#utility.yul\":8807:8926   */\n    tag_457:\n        /* \"#utility.yul\":8965:8966   */\n      0x00\n        /* \"#utility.yul\":8990:9054   */\n      tag_459\n        /* \"#utility.yul\":9046:9053   */\n      dup5\n        /* \"#utility.yul\":9037:9043   */\n      dup3\n        /* \"#utility.yul\":9026:9035   */\n      dup6\n        /* \"#utility.yul\":9022:9044   */\n      add\n        /* \"#utility.yul\":8990:9054   */\n      tag_311\n      jump\t// in\n    tag_459:\n        /* \"#utility.yul\":8980:9054   */\n      swap2\n      pop\n        /* \"#utility.yul\":8936:9064   */\n      pop\n        /* \"#utility.yul\":8720:9071   */\n      swap3\n      swap2\n      pop\n      pop\n      jump\t// out\n        /* \"#utility.yul\":9077:9195   */\n    tag_312:\n        /* \"#utility.yul\":9148:9170   */\n      tag_461\n        /* \"#utility.yul\":9164:9169   */\n      dup2\n        /* \"#utility.yul\":9148:9170   */\n      tag_303\n      jump\t// in\n    tag_461:\n        /* \"#utility.yul\":9141:9146   */\n      dup2\n        /* \"#utility.yul\":9138:9171   */\n      eq\n        /* \"#utility.yul\":9128:9189   */\n      tag_462\n      jumpi\n        /* \"#utility.yul\":9185:9186   */\n      0x00\n        /* \"#utility.yul\":9182:9183   */\n      0x00\n        /* \"#utility.yul\":9175:9187   */\n      revert\n        /* \"#utility.yul\":9128:9189   */\n    tag_462:\n        /* \"#utility.yul\":9077:9195   */\n      pop\n      jump\t// out\n        /* \"#utility.yul\":9201:9340   */\n    tag_313:\n        /* \"#utility.yul\":9256:9261   */\n      0x00\n        /* \"#utility.yul\":9287:9293   */\n      dup2\n        /* \"#utility.yul\":9281:9294   */\n      mload\n        /* \"#utility.yul\":9272:9294   */\n      swap1\n      pop\n        /* \"#utility.yul\":9303:9334   */\n      tag_464\n        /* \"#utility.yul\":9328:9333   */\n      dup2\n        /* \"#utility.yul\":9303:9334   */\n      tag_312\n      jump\t// in\n    tag_464:\n        /* \"#utility.yul\":9201:9340   */\n      swap3\n      swap2\n      pop\n      pop\n      jump\t// out\n        /* \"#utility.yul\":9346:9693   */\n    tag_126:\n        /* \"#utility.yul\":9414:9420   */\n      0x00\n        /* \"#utility.yul\":9463:9465   */\n      0x20\n        /* \"#utility.yul\":9451:9460   */\n      dup3\n        /* \"#utility.yul\":9442:9449   */\n      dup5\n        /* \"#utility.yul\":9438:9461   */\n      sub\n        /* \"#utility.yul\":9434:9466   */\n      slt\n        /* \"#utility.yul\":9431:9550   */\n      iszero\n      tag_466\n      jumpi\n        /* \"#utility.yul\":9469:9548   */\n      tag_467\n      tag_277\n      jump\t// in\n    tag_467:\n        /* \"#utility.yul\":9431:9550   */\n    tag_466:\n        /* \"#utility.yul\":9589:9590   */\n      0x00\n        /* \"#utility.yul\":9614:9676   */\n      tag_468\n        /* \"#utility.yul\":9668:9675   */\n      dup5\n        /* \"#utility.yul\":9659:9665   */\n      dup3\n        /* \"#utility.yul\":9648:9657   */\n      dup6\n        /* \"#utility.yul\":9644:9666   */\n      add\n        /* \"#utility.yul\":9614:9676   */\n      tag_313\n      jump\t// in\n    tag_468:\n        /* \"#utility.yul\":9604:9676   */\n      swap2\n      pop\n        /* \"#utility.yul\":9560:9686   */\n      pop\n        /* \"#utility.yul\":9346:9693   */\n      swap3\n      swap2\n      pop\n      pop\n      jump\t// out\n        /* \"#utility.yul\":9699:9872   */\n    tag_314:\n        /* \"#utility.yul\":9839:9864   */\n      0x43616c6c6572206973206e6f7420746865206f776e6572000000000000000000\n        /* \"#utility.yul\":9835:9836   */\n      0x00\n        /* \"#utility.yul\":9827:9833   */\n      dup3\n        /* \"#utility.yul\":9823:9837   */\n      add\n        /* \"#utility.yul\":9816:9865   */\n      mstore\n        /* \"#utility.yul\":9699:9872   */\n      pop\n      jump\t// out\n        /* \"#utility.yul\":9878:10244   */\n    tag_315:\n        /* \"#utility.yul\":10020:10023   */\n      0x00\n        /* \"#utility.yul\":10041:10108   */\n      tag_471\n        /* \"#utility.yul\":10105:10107   */\n      0x17\n        /* \"#utility.yul\":10100:10103   */\n      dup4\n        /* \"#utility.yul\":10041:10108   */\n      tag_308\n      jump\t// in\n    tag_471:\n        /* \"#utility.yul\":10034:10108   */\n      swap2\n      pop\n        /* \"#utility.yul\":10117:10210   */\n      tag_472\n        /* \"#utility.yul\":10206:10209   */\n      dup3\n        /* \"#utility.yul\":10117:10210   */\n      tag_314\n      jump\t// in\n    tag_472:\n        /* \"#utility.yul\":10235:10237   */\n      0x20\n        /* \"#utility.yul\":10230:10233   */\n      dup3\n        /* \"#utility.yul\":10226:10238   */\n      add\n        /* \"#utility.yul\":10219:10238   */\n      swap1\n      pop\n        /* \"#utility.yul\":9878:10244   */\n      swap2\n      swap1\n      pop\n      jump\t// out\n        /* \"#utility.yul\":10250:10669   */\n    tag_155:\n        /* \"#utility.yul\":10416:10420   */\n      0x00\n        /* \"#utility.yul\":10454:10456   */\n      0x20\n        /* \"#utility.yul\":10443:10452   */\n      dup3\n        /* \"#utility.yul\":10439:10457   */\n      add\n        /* \"#utility.yul\":10431:10457   */\n      swap1\n      pop\n        /* \"#utility.yul\":10503:10512   */\n      dup2\n        /* \"#utility.yul\":10497:10501   */\n      dup2\n        /* \"#utility.yul\":10493:10513   */\n      sub\n        /* \"#utility.yul\":10489:10490   */\n      0x00\n        /* \"#utility.yul\":10478:10487   */\n      dup4\n        /* \"#utility.yul\":10474:10491   */\n      add\n        /* \"#utility.yul\":10467:10514   */\n      mstore\n        /* \"#utility.yul\":10531:10662   */\n      tag_474\n        /* \"#utility.yul\":10657:10661   */\n      dup2\n        /* \"#utility.yul\":10531:10662   */\n      tag_315\n      jump\t// in\n    tag_474:\n        /* \"#utility.yul\":10523:10662   */\n      swap1\n      pop\n        /* \"#utility.yul\":10250:10669   */\n      swap2\n      swap1\n      pop\n      jump\t// out\n        /* \"#utility.yul\":10675:10855   */\n    tag_163:\n        /* \"#utility.yul\":10723:10800   */\n      0x4e487b7100000000000000000000000000000000000000000000000000000000\n        /* \"#utility.yul\":10720:10721   */\n      0x00\n        /* \"#utility.yul\":10713:10801   */\n      mstore\n        /* \"#utility.yul\":10820:10824   */\n      0x12\n        /* \"#utility.yul\":10817:10818   */\n      0x04\n        /* \"#utility.yul\":10810:10825   */\n      mstore\n        /* \"#utility.yul\":10844:10848   */\n      0x24\n        /* \"#utility.yul\":10841:10842   */\n      0x00\n        /* \"#utility.yul\":10834:10849   */\n      revert\n        /* \"#utility.yul\":10861:11026   */\n    tag_316:\n        /* \"#utility.yul\":11001:11018   */\n      0x6d756c446976206f766572666c6f770000000000000000000000000000000000\n        /* \"#utility.yul\":10997:10998   */\n      0x00\n        /* \"#utility.yul\":10989:10995   */\n      dup3\n        /* \"#utility.yul\":10985:10999   */\n      add\n        /* \"#utility.yul\":10978:11019   */\n      mstore\n        /* \"#utility.yul\":10861:11026   */\n      pop\n      jump\t// out\n        /* \"#utility.yul\":11032:11398   */\n    tag_317:\n        /* \"#utility.yul\":11174:11177   */\n      0x00\n        /* \"#utility.yul\":11195:11262   */\n      tag_478\n        /* \"#utility.yul\":11259:11261   */\n      0x0f\n        /* \"#utility.yul\":11254:11257   */\n      dup4\n        /* \"#utility.yul\":11195:11262   */\n      tag_308\n      jump\t// in\n    tag_478:\n        /* \"#utility.yul\":11188:11262   */\n      swap2\n      pop\n        /* \"#utility.yul\":11271:11364   */\n      tag_479\n        /* \"#utility.yul\":11360:11363   */\n      dup3\n        /* \"#utility.yul\":11271:11364   */\n      tag_316\n      jump\t// in\n    tag_479:\n        /* \"#utility.yul\":11389:11391   */\n      0x20\n        /* \"#utility.yul\":11384:11387   */\n      dup3\n        /* \"#utility.yul\":11380:11392   */\n      add\n        /* \"#utility.yul\":11373:11392   */\n      swap1\n      pop\n        /* \"#utility.yul\":11032:11398   */\n      swap2\n      swap1\n      pop\n      jump\t// out\n        /* \"#utility.yul\":11404:11823   */\n    tag_166:\n        /* \"#utility.yul\":11570:11574   */\n      0x00\n        /* \"#utility.yul\":11608:11610   */\n      0x20\n        /* \"#utility.yul\":11597:11606   */\n      dup3\n        /* \"#utility.yul\":11593:11611   */\n      add\n        /* \"#utility.yul\":11585:11611   */\n      swap1\n      pop\n        /* \"#utility.yul\":11657:11666   */\n      dup2\n        /* \"#utility.yul\":11651:11655   */\n      dup2\n        /* \"#utility.yul\":11647:11667   */\n      sub\n        /* \"#utility.yul\":11643:11644   */\n      0x00\n        /* \"#utility.yul\":11632:11641   */\n      dup4\n        /* \"#utility.yul\":11628:11645   */\n      add\n        /* \"#utility.yul\":11621:11668   */\n      mstore\n        /* \"#utility.yul\":11685:11816   */\n      tag_481\n        /* \"#utility.yul\":11811:11815   */\n      dup2\n        /* \"#utility.yul\":11685:11816   */\n      tag_317\n      jump\t// in\n    tag_481:\n        /* \"#utility.yul\":11677:11816   */\n      swap1\n      pop\n        /* \"#utility.yul\":11404:11823   */\n      swap2\n      swap1\n      pop\n      jump\t// out\n        /* \"#utility.yul\":11829:11946   */\n    tag_318:\n        /* \"#utility.yul\":11938:11939   */\n      0x00\n        /* \"#utility.yul\":11935:11936   */\n      0x00\n        /* \"#utility.yul\":11928:11940   */\n      revert\n        /* \"#utility.yul\":12075:12166   */\n    tag_320:\n        /* \"#utility.yul\":12111:12118   */\n      0x00\n        /* \"#utility.yul\":12151:12159   */\n      0xffffff\n        /* \"#utility.yul\":12144:12149   */\n      dup3\n        /* \"#utility.yul\":12140:12160   */\n      and\n        /* \"#utility.yul\":12129:12160   */\n      swap1\n      pop\n        /* \"#utility.yul\":12075:12166   */\n      swap2\n      swap1\n      pop\n      jump\t// out\n        /* \"#utility.yul\":12172:12292   */\n    tag_321:\n        /* \"#utility.yul\":12244:12267   */\n      tag_486\n        /* \"#utility.yul\":12261:12266   */\n      dup2\n        /* \"#utility.yul\":12244:12267   */\n      tag_320\n      jump\t// in\n    tag_486:\n        /* \"#utility.yul\":12237:12242   */\n      dup2\n        /* \"#utility.yul\":12234:12268   */\n      eq\n        /* \"#utility.yul\":12224:12286   */\n      tag_487\n      jumpi\n        /* \"#utility.yul\":12282:12283   */\n      0x00\n        /* \"#utility.yul\":12279:12280   */\n      0x00\n        /* \"#utility.yul\":12272:12284   */\n      revert\n        /* \"#utility.yul\":12224:12286   */\n    tag_487:\n        /* \"#utility.yul\":12172:12292   */\n      pop\n      jump\t// out\n        /* \"#utility.yul\":12298:12439   */\n    tag_322:\n        /* \"#utility.yul\":12354:12359   */\n      0x00\n        /* \"#utility.yul\":12385:12391   */\n      dup2\n        /* \"#utility.yul\":12379:12392   */\n      mload\n        /* \"#utility.yul\":12370:12392   */\n      swap1\n      pop\n        /* \"#utility.yul\":12401:12433   */\n      tag_489\n        /* \"#utility.yul\":12427:12432   */\n      dup2\n        /* \"#utility.yul\":12401:12433   */\n      tag_321\n      jump\t// in\n    tag_489:\n        /* \"#utility.yul\":12298:12439   */\n      swap3\n      swap2\n      pop\n      pop\n      jump\t// out\n        /* \"#utility.yul\":12445:12546   */\n    tag_323:\n        /* \"#utility.yul\":12481:12488   */\n      0x00\n        /* \"#utility.yul\":12521:12539   */\n      0xffffffffffffffff\n        /* \"#utility.yul\":12514:12519   */\n      dup3\n        /* \"#utility.yul\":12510:12540   */\n      and\n        /* \"#utility.yul\":12499:12540   */\n      swap1\n      pop\n        /* \"#utility.yul\":12445:12546   */\n      swap2\n      swap1\n      pop\n      jump\t// out\n        /* \"#utility.yul\":12552:12672   */\n    tag_324:\n        /* \"#utility.yul\":12624:12647   */\n      tag_492\n        /* \"#utility.yul\":12641:12646   */\n      dup2\n        /* \"#utility.yul\":12624:12647   */\n      tag_323\n      jump\t// in\n    tag_492:\n        /* \"#utility.yul\":12617:12622   */\n      dup2\n        /* \"#utility.yul\":12614:12648   */\n      eq\n        /* \"#utility.yul\":12604:12666   */\n      tag_493\n      jumpi\n        /* \"#utility.yul\":12662:12663   */\n      0x00\n        /* \"#utility.yul\":12659:12660   */\n      0x00\n        /* \"#utility.yul\":12652:12664   */\n      revert\n        /* \"#utility.yul\":12604:12666   */\n    tag_493:\n        /* \"#utility.yul\":12552:12672   */\n      pop\n      jump\t// out\n        /* \"#utility.yul\":12678:12819   */\n    tag_325:\n        /* \"#utility.yul\":12734:12739   */\n      0x00\n        /* \"#utility.yul\":12765:12771   */\n      dup2\n        /* \"#utility.yul\":12759:12772   */\n      mload\n        /* \"#utility.yul\":12750:12772   */\n      swap1\n      pop\n        /* \"#utility.yul\":12781:12813   */\n      tag_495\n        /* \"#utility.yul\":12807:12812   */\n      dup2\n        /* \"#utility.yul\":12781:12813   */\n      tag_324\n      jump\t// in\n    tag_495:\n        /* \"#utility.yul\":12678:12819   */\n      swap3\n      swap2\n      pop\n      pop\n      jump\t// out\n        /* \"#utility.yul\":12844:13808   */\n    tag_326:\n        /* \"#utility.yul\":12926:12931   */\n      0x00\n        /* \"#utility.yul\":12970:12974   */\n      0x80\n        /* \"#utility.yul\":12958:12967   */\n      dup3\n        /* \"#utility.yul\":12953:12956   */\n      dup5\n        /* \"#utility.yul\":12949:12968   */\n      sub\n        /* \"#utility.yul\":12945:12975   */\n      slt\n        /* \"#utility.yul\":12942:13059   */\n      iszero\n      tag_497\n      jumpi\n        /* \"#utility.yul\":12978:13057   */\n      tag_498\n      tag_318\n      jump\t// in\n    tag_498:\n        /* \"#utility.yul\":12942:13059   */\n    tag_497:\n        /* \"#utility.yul\":13077:13098   */\n      tag_499\n        /* \"#utility.yul\":13093:13097   */\n      0x80\n        /* \"#utility.yul\":13077:13098   */\n      tag_291\n      jump\t// in\n    tag_499:\n        /* \"#utility.yul\":13068:13098   */\n      swap1\n      pop\n        /* \"#utility.yul\":13164:13165   */\n      0x00\n        /* \"#utility.yul\":13204:13264   */\n      tag_500\n        /* \"#utility.yul\":13260:13263   */\n      dup5\n        /* \"#utility.yul\":13251:13257   */\n      dup3\n        /* \"#utility.yul\":13240:13249   */\n      dup6\n        /* \"#utility.yul\":13236:13258   */\n      add\n        /* \"#utility.yul\":13204:13264   */\n      tag_311\n      jump\t// in\n    tag_500:\n        /* \"#utility.yul\":13197:13201   */\n      0x00\n        /* \"#utility.yul\":13190:13195   */\n      dup4\n        /* \"#utility.yul\":13186:13202   */\n      add\n        /* \"#utility.yul\":13179:13265   */\n      mstore\n        /* \"#utility.yul\":13108:13276   */\n      pop\n        /* \"#utility.yul\":13338:13340   */\n      0x20\n        /* \"#utility.yul\":13379:13438   */\n      tag_501\n        /* \"#utility.yul\":13434:13437   */\n      dup5\n        /* \"#utility.yul\":13425:13431   */\n      dup3\n        /* \"#utility.yul\":13414:13423   */\n      dup6\n        /* \"#utility.yul\":13410:13432   */\n      add\n        /* \"#utility.yul\":13379:13438   */\n      tag_322\n      jump\t// in\n    tag_501:\n        /* \"#utility.yul\":13372:13376   */\n      0x20\n        /* \"#utility.yul\":13365:13370   */\n      dup4\n        /* \"#utility.yul\":13361:13377   */\n      add\n        /* \"#utility.yul\":13354:13439   */\n      mstore\n        /* \"#utility.yul\":13286:13450   */\n      pop\n        /* \"#utility.yul\":13513:13515   */\n      0x40\n        /* \"#utility.yul\":13554:13612   */\n      tag_502\n        /* \"#utility.yul\":13608:13611   */\n      dup5\n        /* \"#utility.yul\":13599:13605   */\n      dup3\n        /* \"#utility.yul\":13588:13597   */\n      dup6\n        /* \"#utility.yul\":13584:13606   */\n      add\n        /* \"#utility.yul\":13554:13612   */\n      tag_313\n      jump\t// in\n    tag_502:\n        /* \"#utility.yul\":13547:13551   */\n      0x40\n        /* \"#utility.yul\":13540:13545   */\n      dup4\n        /* \"#utility.yul\":13536:13552   */\n      add\n        /* \"#utility.yul\":13529:13613   */\n      mstore\n        /* \"#utility.yul\":13460:13624   */\n      pop\n        /* \"#utility.yul\":13689:13691   */\n      0x60\n        /* \"#utility.yul\":13730:13789   */\n      tag_503\n        /* \"#utility.yul\":13785:13788   */\n      dup5\n        /* \"#utility.yul\":13776:13782   */\n      dup3\n        /* \"#utility.yul\":13765:13774   */\n      dup6\n        /* \"#utility.yul\":13761:13783   */\n      add\n        /* \"#utility.yul\":13730:13789   */\n      tag_325\n      jump\t// in\n    tag_503:\n        /* \"#utility.yul\":13723:13727   */\n      0x60\n        /* \"#utility.yul\":13716:13721   */\n      dup4\n        /* \"#utility.yul\":13712:13728   */\n      add\n        /* \"#utility.yul\":13705:13790   */\n      mstore\n        /* \"#utility.yul\":13634:13801   */\n      pop\n        /* \"#utility.yul\":12844:13808   */\n      swap3\n      swap2\n      pop\n      pop\n      jump\t// out\n        /* \"#utility.yul\":13814:14210   */\n    tag_183:\n        /* \"#utility.yul\":13906:13912   */\n      0x00\n        /* \"#utility.yul\":13955:13958   */\n      0x80\n        /* \"#utility.yul\":13943:13952   */\n      dup3\n        /* \"#utility.yul\":13934:13941   */\n      dup5\n        /* \"#utility.yul\":13930:13953   */\n      sub\n        /* \"#utility.yul\":13926:13959   */\n      slt\n        /* \"#utility.yul\":13923:14043   */\n      iszero\n      tag_505\n      jumpi\n        /* \"#utility.yul\":13962:14041   */\n      tag_506\n      tag_277\n      jump\t// in\n    tag_506:\n        /* \"#utility.yul\":13923:14043   */\n    tag_505:\n        /* \"#utility.yul\":14082:14083   */\n      0x00\n        /* \"#utility.yul\":14107:14193   */\n      tag_507\n        /* \"#utility.yul\":14185:14192   */\n      dup5\n        /* \"#utility.yul\":14176:14182   */\n      dup3\n        /* \"#utility.yul\":14165:14174   */\n      dup6\n        /* \"#utility.yul\":14161:14183   */\n      add\n        /* \"#utility.yul\":14107:14193   */\n      tag_326\n      jump\t// in\n    tag_507:\n        /* \"#utility.yul\":14097:14193   */\n      swap2\n      pop\n        /* \"#utility.yul\":14053:14203   */\n      pop\n        /* \"#utility.yul\":13814:14210   */\n      swap3\n      swap2\n      pop\n      pop\n      jump\t// out\n        /* \"#utility.yul\":14216:14338   */\n    tag_327:\n        /* \"#utility.yul\":14289:14313   */\n      tag_509\n        /* \"#utility.yul\":14307:14312   */\n      dup2\n        /* \"#utility.yul\":14289:14313   */\n      tag_279\n      jump\t// in\n    tag_509:\n        /* \"#utility.yul\":14282:14287   */\n      dup2\n        /* \"#utility.yul\":14279:14314   */\n      eq\n        /* \"#utility.yul\":14269:14332   */\n      tag_510\n      jumpi\n        /* \"#utility.yul\":14328:14329   */\n      0x00\n        /* \"#utility.yul\":14325:14326   */\n      0x00\n        /* \"#utility.yul\":14318:14330   */\n      revert\n        /* \"#utility.yul\":14269:14332   */\n    tag_510:\n        /* \"#utility.yul\":14216:14338   */\n      pop\n      jump\t// out\n        /* \"#utility.yul\":14344:14487   */\n    tag_328:\n        /* \"#utility.yul\":14401:14406   */\n      0x00\n        /* \"#utility.yul\":14432:14438   */\n      dup2\n        /* \"#utility.yul\":14426:14439   */\n      mload\n        /* \"#utility.yul\":14417:14439   */\n      swap1\n      pop\n        /* \"#utility.yul\":14448:14481   */\n      tag_512\n        /* \"#utility.yul\":14475:14480   */\n      dup2\n        /* \"#utility.yul\":14448:14481   */\n      tag_327\n      jump\t// in\n    tag_512:\n        /* \"#utility.yul\":14344:14487   */\n      swap3\n      swap2\n      pop\n      pop\n      jump\t// out\n        /* \"#utility.yul\":14493:14583   */\n    tag_329:\n        /* \"#utility.yul\":14528:14535   */\n      0x00\n        /* \"#utility.yul\":14571:14576   */\n      dup2\n        /* \"#utility.yul\":14568:14569   */\n      0x02\n        /* \"#utility.yul\":14557:14577   */\n      signextend\n        /* \"#utility.yul\":14546:14577   */\n      swap1\n      pop\n        /* \"#utility.yul\":14493:14583   */\n      swap2\n      swap1\n      pop\n      jump\t// out\n        /* \"#utility.yul\":14589:14707   */\n    tag_330:\n        /* \"#utility.yul\":14660:14682   */\n      tag_515\n        /* \"#utility.yul\":14676:14681   */\n      dup2\n        /* \"#utility.yul\":14660:14682   */\n      tag_329\n      jump\t// in\n    tag_515:\n        /* \"#utility.yul\":14653:14658   */\n      dup2\n        /* \"#utility.yul\":14650:14683   */\n      eq\n        /* \"#utility.yul\":14640:14701   */\n      tag_516\n      jumpi\n        /* \"#utility.yul\":14697:14698   */\n      0x00\n        /* \"#utility.yul\":14694:14695   */\n      0x00\n        /* \"#utility.yul\":14687:14699   */\n      revert\n        /* \"#utility.yul\":14640:14701   */\n    tag_516:\n        /* \"#utility.yul\":14589:14707   */\n      pop\n      jump\t// out\n        /* \"#utility.yul\":14713:14852   */\n    tag_331:\n        /* \"#utility.yul\":14768:14773   */\n      0x00\n        /* \"#utility.yul\":14799:14805   */\n      dup2\n        /* \"#utility.yul\":14793:14806   */\n      mload\n        /* \"#utility.yul\":14784:14806   */\n      swap1\n      pop\n        /* \"#utility.yul\":14815:14846   */\n      tag_518\n        /* \"#utility.yul\":14840:14845   */\n      dup2\n        /* \"#utility.yul\":14815:14846   */\n      tag_330\n      jump\t// in\n    tag_518:\n        /* \"#utility.yul\":14713:14852   */\n      swap3\n      swap2\n      pop\n      pop\n      jump\t// out\n        /* \"#utility.yul\":14858:14947   */\n    tag_332:\n        /* \"#utility.yul\":14894:14901   */\n      0x00\n        /* \"#utility.yul\":14934:14940   */\n      0xffff\n        /* \"#utility.yul\":14927:14932   */\n      dup3\n        /* \"#utility.yul\":14923:14941   */\n      and\n        /* \"#utility.yul\":14912:14941   */\n      swap1\n      pop\n        /* \"#utility.yul\":14858:14947   */\n      swap2\n      swap1\n      pop\n      jump\t// out\n        /* \"#utility.yul\":14953:15073   */\n    tag_333:\n        /* \"#utility.yul\":15025:15048   */\n      tag_521\n        /* \"#utility.yul\":15042:15047   */\n      dup2\n        /* \"#utility.yul\":15025:15048   */\n      tag_332\n      jump\t// in\n    tag_521:\n        /* \"#utility.yul\":15018:15023   */\n      dup2\n        /* \"#utility.yul\":15015:15049   */\n      eq\n        /* \"#utility.yul\":15005:15067   */\n      tag_522\n      jumpi\n        /* \"#utility.yul\":15063:15064   */\n      0x00\n        /* \"#utility.yul\":15060:15061   */\n      0x00\n        /* \"#utility.yul\":15053:15065   */\n      revert\n        /* \"#utility.yul\":15005:15067   */\n    tag_522:\n        /* \"#utility.yul\":14953:15073   */\n      pop\n      jump\t// out\n        /* \"#utility.yul\":15079:15220   */\n    tag_334:\n        /* \"#utility.yul\":15135:15140   */\n      0x00\n        /* \"#utility.yul\":15166:15172   */\n      dup2\n        /* \"#utility.yul\":15160:15173   */\n      mload\n        /* \"#utility.yul\":15151:15173   */\n      swap1\n      pop\n        /* \"#utility.yul\":15182:15214   */\n      tag_524\n        /* \"#utility.yul\":15208:15213   */\n      dup2\n        /* \"#utility.yul\":15182:15214   */\n      tag_333\n      jump\t// in\n    tag_524:\n        /* \"#utility.yul\":15079:15220   */\n      swap3\n      swap2\n      pop\n      pop\n      jump\t// out\n        /* \"#utility.yul\":15226:15342   */\n    tag_335:\n        /* \"#utility.yul\":15296:15317   */\n      tag_526\n        /* \"#utility.yul\":15311:15316   */\n      dup2\n        /* \"#utility.yul\":15296:15317   */\n      tag_296\n      jump\t// in\n    tag_526:\n        /* \"#utility.yul\":15289:15294   */\n      dup2\n        /* \"#utility.yul\":15286:15318   */\n      eq\n        /* \"#utility.yul\":15276:15336   */\n      tag_527\n      jumpi\n        /* \"#utility.yul\":15332:15333   */\n      0x00\n        /* \"#utility.yul\":15329:15330   */\n      0x00\n        /* \"#utility.yul\":15322:15334   */\n      revert\n        /* \"#utility.yul\":15276:15336   */\n    tag_527:\n        /* \"#utility.yul\":15226:15342   */\n      pop\n      jump\t// out\n        /* \"#utility.yul\":15348:15485   */\n    tag_336:\n        /* \"#utility.yul\":15402:15407   */\n      0x00\n        /* \"#utility.yul\":15433:15439   */\n      dup2\n        /* \"#utility.yul\":15427:15440   */\n      mload\n        /* \"#utility.yul\":15418:15440   */\n      swap1\n      pop\n        /* \"#utility.yul\":15449:15479   */\n      tag_529\n        /* \"#utility.yul\":15473:15478   */\n      dup2\n        /* \"#utility.yul\":15449:15479   */\n      tag_335\n      jump\t// in\n    tag_529:\n        /* \"#utility.yul\":15348:15485   */\n      swap3\n      swap2\n      pop\n      pop\n      jump\t// out\n        /* \"#utility.yul\":15491:16762   */\n    tag_196:\n        /* \"#utility.yul\":15605:15611   */\n      0x00\n        /* \"#utility.yul\":15613:15619   */\n      0x00\n        /* \"#utility.yul\":15621:15627   */\n      0x00\n        /* \"#utility.yul\":15629:15635   */\n      0x00\n        /* \"#utility.yul\":15637:15643   */\n      0x00\n        /* \"#utility.yul\":15645:15651   */\n      0x00\n        /* \"#utility.yul\":15653:15659   */\n      0x00\n        /* \"#utility.yul\":15702:15705   */\n      0xe0\n        /* \"#utility.yul\":15690:15699   */\n      dup9\n        /* \"#utility.yul\":15681:15688   */\n      dup11\n        /* \"#utility.yul\":15677:15700   */\n      sub\n        /* \"#utility.yul\":15673:15706   */\n      slt\n        /* \"#utility.yul\":15670:15790   */\n      iszero\n      tag_531\n      jumpi\n        /* \"#utility.yul\":15709:15788   */\n      tag_532\n      tag_277\n      jump\t// in\n    tag_532:\n        /* \"#utility.yul\":15670:15790   */\n    tag_531:\n        /* \"#utility.yul\":15829:15830   */\n      0x00\n        /* \"#utility.yul\":15854:15918   */\n      tag_533\n        /* \"#utility.yul\":15910:15917   */\n      dup11\n        /* \"#utility.yul\":15901:15907   */\n      dup3\n        /* \"#utility.yul\":15890:15899   */\n      dup12\n        /* \"#utility.yul\":15886:15908   */\n      add\n        /* \"#utility.yul\":15854:15918   */\n      tag_328\n      jump\t// in\n    tag_533:\n        /* \"#utility.yul\":15844:15918   */\n      swap8\n      pop\n        /* \"#utility.yul\":15800:15928   */\n      pop\n        /* \"#utility.yul\":15967:15969   */\n      0x20\n        /* \"#utility.yul\":15993:16055   */\n      tag_534\n        /* \"#utility.yul\":16047:16054   */\n      dup11\n        /* \"#utility.yul\":16038:16044   */\n      dup3\n        /* \"#utility.yul\":16027:16036   */\n      dup12\n        /* \"#utility.yul\":16023:16045   */\n      add\n        /* \"#utility.yul\":15993:16055   */\n      tag_331\n      jump\t// in\n    tag_534:\n        /* \"#utility.yul\":15983:16055   */\n      swap7\n      pop\n        /* \"#utility.yul\":15938:16065   */\n      pop\n        /* \"#utility.yul\":16104:16106   */\n      0x40\n        /* \"#utility.yul\":16130:16193   */\n      tag_535\n        /* \"#utility.yul\":16185:16192   */\n      dup11\n        /* \"#utility.yul\":16176:16182   */\n      dup3\n        /* \"#utility.yul\":16165:16174   */\n      dup12\n        /* \"#utility.yul\":16161:16183   */\n      add\n        /* \"#utility.yul\":16130:16193   */\n      tag_334\n      jump\t// in\n    tag_535:\n        /* \"#utility.yul\":16120:16193   */\n      swap6\n      pop\n        /* \"#utility.yul\":16075:16203   */\n      pop\n        /* \"#utility.yul\":16242:16244   */\n      0x60\n        /* \"#utility.yul\":16268:16331   */\n      tag_536\n        /* \"#utility.yul\":16323:16330   */\n      dup11\n        /* \"#utility.yul\":16314:16320   */\n      dup3\n        /* \"#utility.yul\":16303:16312   */\n      dup12\n        /* \"#utility.yul\":16299:16321   */\n      add\n        /* \"#utility.yul\":16268:16331   */\n      tag_334\n      jump\t// in\n    tag_536:\n        /* \"#utility.yul\":16258:16331   */\n      swap5\n      pop\n        /* \"#utility.yul\":16213:16341   */\n      pop\n        /* \"#utility.yul\":16380:16383   */\n      0x80\n        /* \"#utility.yul\":16407:16470   */\n      tag_537\n        /* \"#utility.yul\":16462:16469   */\n      dup11\n        /* \"#utility.yul\":16453:16459   */\n      dup3\n        /* \"#utility.yul\":16442:16451   */\n      dup12\n        /* \"#utility.yul\":16438:16460   */\n      add\n        /* \"#utility.yul\":16407:16470   */\n      tag_334\n      jump\t// in\n    tag_537:\n        /* \"#utility.yul\":16397:16470   */\n      swap4\n      pop\n        /* \"#utility.yul\":16351:16480   */\n      pop\n        /* \"#utility.yul\":16519:16522   */\n      0xa0\n        /* \"#utility.yul\":16546:16608   */\n      tag_538\n        /* \"#utility.yul\":16600:16607   */\n      dup11\n        /* \"#utility.yul\":16591:16597   */\n      dup3\n        /* \"#utility.yul\":16580:16589   */\n      dup12\n        /* \"#utility.yul\":16576:16598   */\n      add\n        /* \"#utility.yul\":16546:16608   */\n      tag_313\n      jump\t// in\n    tag_538:\n        /* \"#utility.yul\":16536:16608   */\n      swap3\n      pop\n        /* \"#utility.yul\":16490:16618   */\n      pop\n        /* \"#utility.yul\":16657:16660   */\n      0xc0\n        /* \"#utility.yul\":16684:16745   */\n      tag_539\n        /* \"#utility.yul\":16737:16744   */\n      dup11\n        /* \"#utility.yul\":16728:16734   */\n      dup3\n        /* \"#utility.yul\":16717:16726   */\n      dup12\n        /* \"#utility.yul\":16713:16735   */\n      add\n        /* \"#utility.yul\":16684:16745   */\n      tag_336\n      jump\t// in\n    tag_539:\n        /* \"#utility.yul\":16674:16745   */\n      swap2\n      pop\n        /* \"#utility.yul\":16628:16755   */\n      pop\n        /* \"#utility.yul\":15491:16762   */\n      swap3\n      swap6\n      swap9\n      swap2\n      swap5\n      swap8\n      pop\n      swap3\n      swap6\n      pop\n      jump\t// out\n        /* \"#utility.yul\":16768:16886   */\n    tag_337:\n        /* \"#utility.yul\":16805:16812   */\n      0x00\n        /* \"#utility.yul\":16845:16879   */\n      0xffffffffffffffffffffffffffffffff\n        /* \"#utility.yul\":16838:16843   */\n      dup3\n        /* \"#utility.yul\":16834:16880   */\n      and\n        /* \"#utility.yul\":16823:16880   */\n      swap1\n      pop\n        /* \"#utility.yul\":16768:16886   */\n      swap2\n      swap1\n      pop\n      jump\t// out\n        /* \"#utility.yul\":16892:17014   */\n    tag_338:\n        /* \"#utility.yul\":16965:16989   */\n      tag_542\n        /* \"#utility.yul\":16983:16988   */\n      dup2\n        /* \"#utility.yul\":16965:16989   */\n      tag_337\n      jump\t// in\n    tag_542:\n        /* \"#utility.yul\":16958:16963   */\n      dup2\n        /* \"#utility.yul\":16955:16990   */\n      eq\n        /* \"#utility.yul\":16945:17008   */\n      tag_543\n      jumpi\n        /* \"#utility.yul\":17004:17005   */\n      0x00\n        /* \"#utility.yul\":17001:17002   */\n      0x00\n        /* \"#utility.yul\":16994:17006   */\n      revert\n        /* \"#utility.yul\":16945:17008   */\n    tag_543:\n        /* \"#utility.yul\":16892:17014   */\n      pop\n      jump\t// out\n        /* \"#utility.yul\":17020:17163   */\n    tag_339:\n        /* \"#utility.yul\":17077:17082   */\n      0x00\n        /* \"#utility.yul\":17108:17114   */\n      dup2\n        /* \"#utility.yul\":17102:17115   */\n      mload\n        /* \"#utility.yul\":17093:17115   */\n      swap1\n      pop\n        /* \"#utility.yul\":17124:17157   */\n      tag_545\n        /* \"#utility.yul\":17151:17156   */\n      dup2\n        /* \"#utility.yul\":17124:17157   */\n      tag_338\n      jump\t// in\n    tag_545:\n        /* \"#utility.yul\":17020:17163   */\n      swap3\n      swap2\n      pop\n      pop\n      jump\t// out\n        /* \"#utility.yul\":17169:17520   */\n    tag_200:\n        /* \"#utility.yul\":17239:17245   */\n      0x00\n        /* \"#utility.yul\":17288:17290   */\n      0x20\n        /* \"#utility.yul\":17276:17285   */\n      dup3\n        /* \"#utility.yul\":17267:17274   */\n      dup5\n        /* \"#utility.yul\":17263:17286   */\n      sub\n        /* \"#utility.yul\":17259:17291   */\n      slt\n        /* \"#utility.yul\":17256:17375   */\n      iszero\n      tag_547\n      jumpi\n        /* \"#utility.yul\":17294:17373   */\n      tag_548\n      tag_277\n      jump\t// in\n    tag_548:\n        /* \"#utility.yul\":17256:17375   */\n    tag_547:\n        /* \"#utility.yul\":17414:17415   */\n      0x00\n        /* \"#utility.yul\":17439:17503   */\n      tag_549\n        /* \"#utility.yul\":17495:17502   */\n      dup5\n        /* \"#utility.yul\":17486:17492   */\n      dup3\n        /* \"#utility.yul\":17475:17484   */\n      dup6\n        /* \"#utility.yul\":17471:17493   */\n      add\n        /* \"#utility.yul\":17439:17503   */\n      tag_339\n      jump\t// in\n    tag_549:\n        /* \"#utility.yul\":17429:17503   */\n      swap2\n      pop\n        /* \"#utility.yul\":17385:17513   */\n      pop\n        /* \"#utility.yul\":17169:17520   */\n      swap3\n      swap2\n      pop\n      pop\n      jump\t// out\n        /* \"#utility.yul\":17526:17640   */\n    tag_340:\n        /* \"#utility.yul\":17563:17570   */\n      0x00\n        /* \"#utility.yul\":17603:17633   */\n      0xffffffffffffffffffffffffffff\n        /* \"#utility.yul\":17596:17601   */\n      dup3\n        /* \"#utility.yul\":17592:17634   */\n      and\n        /* \"#utility.yul\":17581:17634   */\n      swap1\n      pop\n        /* \"#utility.yul\":17526:17640   */\n      swap2\n      swap1\n      pop\n      jump\t// out\n        /* \"#utility.yul\":17646:17768   */\n    tag_341:\n        /* \"#utility.yul\":17719:17743   */\n      tag_552\n        /* \"#utility.yul\":17737:17742   */\n      dup2\n        /* \"#utility.yul\":17719:17743   */\n      tag_340\n      jump\t// in\n    tag_552:\n        /* \"#utility.yul\":17712:17717   */\n      dup2\n        /* \"#utility.yul\":17709:17744   */\n      eq\n        /* \"#utility.yul\":17699:17762   */\n      tag_553\n      jumpi\n        /* \"#utility.yul\":17758:17759   */\n      0x00\n        /* \"#utility.yul\":17755:17756   */\n      0x00\n        /* \"#utility.yul\":17748:17760   */\n      revert\n        /* \"#utility.yul\":17699:17762   */\n    tag_553:\n        /* \"#utility.yul\":17646:17768   */\n      pop\n      jump\t// out\n        /* \"#utility.yul\":17774:17917   */\n    tag_342:\n        /* \"#utility.yul\":17831:17836   */\n      0x00\n        /* \"#utility.yul\":17862:17868   */\n      dup2\n        /* \"#utility.yul\":17856:17869   */\n      mload\n        /* \"#utility.yul\":17847:17869   */\n      swap1\n      pop\n        /* \"#utility.yul\":17878:17911   */\n      tag_555\n        /* \"#utility.yul\":17905:17910   */\n      dup2\n        /* \"#utility.yul\":17878:17911   */\n      tag_341\n      jump\t// in\n    tag_555:\n        /* \"#utility.yul\":17774:17917   */\n      swap3\n      swap2\n      pop\n      pop\n      jump\t// out\n        /* \"#utility.yul\":17923:18016   */\n    tag_343:\n        /* \"#utility.yul\":17959:17966   */\n      0x00\n        /* \"#utility.yul\":17999:18009   */\n      0xffffffff\n        /* \"#utility.yul\":17992:17997   */\n      dup3\n        /* \"#utility.yul\":17988:18010   */\n      and\n        /* \"#utility.yul\":17977:18010   */\n      swap1\n      pop\n        /* \"#utility.yul\":17923:18016   */\n      swap2\n      swap1\n      pop\n      jump\t// out\n        /* \"#utility.yul\":18022:18142   */\n    tag_344:\n        /* \"#utility.yul\":18094:18117   */\n      tag_558\n        /* \"#utility.yul\":18111:18116   */\n      dup2\n        /* \"#utility.yul\":18094:18117   */\n      tag_343\n      jump\t// in\n    tag_558:\n        /* \"#utility.yul\":18087:18092   */\n      dup2\n        /* \"#utility.yul\":18084:18118   */\n      eq\n        /* \"#utility.yul\":18074:18136   */\n      tag_559\n      jumpi\n        /* \"#utility.yul\":18132:18133   */\n      0x00\n        /* \"#utility.yul\":18129:18130   */\n      0x00\n        /* \"#utility.yul\":18122:18134   */\n      revert\n        /* \"#utility.yul\":18074:18136   */\n    tag_559:\n        /* \"#utility.yul\":18022:18142   */\n      pop\n      jump\t// out\n        /* \"#utility.yul\":18148:18289   */\n    tag_345:\n        /* \"#utility.yul\":18204:18209   */\n      0x00\n        /* \"#utility.yul\":18235:18241   */\n      dup2\n        /* \"#utility.yul\":18229:18242   */\n      mload\n        /* \"#utility.yul\":18220:18242   */\n      swap1\n      pop\n        /* \"#utility.yul\":18251:18283   */\n      tag_561\n        /* \"#utility.yul\":18277:18282   */\n      dup2\n        /* \"#utility.yul\":18251:18283   */\n      tag_344\n      jump\t// in\n    tag_561:\n        /* \"#utility.yul\":18148:18289   */\n      swap3\n      swap2\n      pop\n      pop\n      jump\t// out\n        /* \"#utility.yul\":18295:18956   */\n    tag_207:\n        /* \"#utility.yul\":18382:18388   */\n      0x00\n        /* \"#utility.yul\":18390:18396   */\n      0x00\n        /* \"#utility.yul\":18398:18404   */\n      0x00\n        /* \"#utility.yul\":18447:18449   */\n      0x60\n        /* \"#utility.yul\":18435:18444   */\n      dup5\n        /* \"#utility.yul\":18426:18433   */\n      dup7\n        /* \"#utility.yul\":18422:18445   */\n      sub\n        /* \"#utility.yul\":18418:18450   */\n      slt\n        /* \"#utility.yul\":18415:18534   */\n      iszero\n      tag_563\n      jumpi\n        /* \"#utility.yul\":18453:18532   */\n      tag_564\n      tag_277\n      jump\t// in\n    tag_564:\n        /* \"#utility.yul\":18415:18534   */\n    tag_563:\n        /* \"#utility.yul\":18573:18574   */\n      0x00\n        /* \"#utility.yul\":18598:18662   */\n      tag_565\n        /* \"#utility.yul\":18654:18661   */\n      dup7\n        /* \"#utility.yul\":18645:18651   */\n      dup3\n        /* \"#utility.yul\":18634:18643   */\n      dup8\n        /* \"#utility.yul\":18630:18652   */\n      add\n        /* \"#utility.yul\":18598:18662   */\n      tag_342\n      jump\t// in\n    tag_565:\n        /* \"#utility.yul\":18588:18662   */\n      swap4\n      pop\n        /* \"#utility.yul\":18544:18672   */\n      pop\n        /* \"#utility.yul\":18711:18713   */\n      0x20\n        /* \"#utility.yul\":18737:18801   */\n      tag_566\n        /* \"#utility.yul\":18793:18800   */\n      dup7\n        /* \"#utility.yul\":18784:18790   */\n      dup3\n        /* \"#utility.yul\":18773:18782   */\n      dup8\n        /* \"#utility.yul\":18769:18791   */\n      add\n        /* \"#utility.yul\":18737:18801   */\n      tag_342\n      jump\t// in\n    tag_566:\n        /* \"#utility.yul\":18727:18801   */\n      swap3\n      pop\n        /* \"#utility.yul\":18682:18811   */\n      pop\n        /* \"#utility.yul\":18850:18852   */\n      0x40\n        /* \"#utility.yul\":18876:18939   */\n      tag_567\n        /* \"#utility.yul\":18931:18938   */\n      dup7\n        /* \"#utility.yul\":18922:18928   */\n      dup3\n        /* \"#utility.yul\":18911:18920   */\n      dup8\n        /* \"#utility.yul\":18907:18929   */\n      add\n        /* \"#utility.yul\":18876:18939   */\n      tag_345\n      jump\t// in\n    tag_567:\n        /* \"#utility.yul\":18866:18939   */\n      swap2\n      pop\n        /* \"#utility.yul\":18821:18949   */\n      pop\n        /* \"#utility.yul\":18295:18956   */\n      swap3\n      pop\n      swap3\n      pop\n      swap3\n      jump\t// out\n        /* \"#utility.yul\":18962:19144   */\n    tag_346:\n        /* \"#utility.yul\":19102:19136   */\n      0x4469726563746f72792063616e6e6f74206265207a65726f2061646472657373\n        /* \"#utility.yul\":19098:19099   */\n      0x00\n        /* \"#utility.yul\":19090:19096   */\n      dup3\n        /* \"#utility.yul\":19086:19100   */\n      add\n        /* \"#utility.yul\":19079:19137   */\n      mstore\n        /* \"#utility.yul\":18962:19144   */\n      pop\n      jump\t// out\n        /* \"#utility.yul\":19150:19516   */\n    tag_347:\n        /* \"#utility.yul\":19292:19295   */\n      0x00\n        /* \"#utility.yul\":19313:19380   */\n      tag_570\n        /* \"#utility.yul\":19377:19379   */\n      0x20\n        /* \"#utility.yul\":19372:19375   */\n      dup4\n        /* \"#utility.yul\":19313:19380   */\n      tag_308\n      jump\t// in\n    tag_570:\n        /* \"#utility.yul\":19306:19380   */\n      swap2\n      pop\n        /* \"#utility.yul\":19389:19482   */\n      tag_571\n        /* \"#utility.yul\":19478:19481   */\n      dup3\n        /* \"#utility.yul\":19389:19482   */\n      tag_346\n      jump\t// in\n    tag_571:\n        /* \"#utility.yul\":19507:19509   */\n      0x20\n        /* \"#utility.yul\":19502:19505   */\n      dup3\n        /* \"#utility.yul\":19498:19510   */\n      add\n        /* \"#utility.yul\":19491:19510   */\n      swap1\n      pop\n        /* \"#utility.yul\":19150:19516   */\n      swap2\n      swap1\n      pop\n      jump\t// out\n        /* \"#utility.yul\":19522:19941   */\n    tag_242:\n        /* \"#utility.yul\":19688:19692   */\n      0x00\n        /* \"#utility.yul\":19726:19728   */\n      0x20\n        /* \"#utility.yul\":19715:19724   */\n      dup3\n        /* \"#utility.yul\":19711:19729   */\n      add\n        /* \"#utility.yul\":19703:19729   */\n      swap1\n      pop\n        /* \"#utility.yul\":19775:19784   */\n      dup2\n        /* \"#utility.yul\":19769:19773   */\n      dup2\n        /* \"#utility.yul\":19765:19785   */\n      sub\n        /* \"#utility.yul\":19761:19762   */\n      0x00\n        /* \"#utility.yul\":19750:19759   */\n      dup4\n        /* \"#utility.yul\":19746:19763   */\n      add\n        /* \"#utility.yul\":19739:19786   */\n      mstore\n        /* \"#utility.yul\":19803:19934   */\n      tag_573\n        /* \"#utility.yul\":19929:19933   */\n      dup2\n        /* \"#utility.yul\":19803:19934   */\n      tag_347\n      jump\t// in\n    tag_573:\n        /* \"#utility.yul\":19795:19934   */\n      swap1\n      pop\n        /* \"#utility.yul\":19522:19941   */\n      swap2\n      swap1\n      pop\n      jump\t// out\n        /* \"#utility.yul\":19947:20125   */\n    tag_348:\n        /* \"#utility.yul\":20087:20117   */\n      0x4469726563746f7279206d757374206265206120636f6e747261637400000000\n        /* \"#utility.yul\":20083:20084   */\n      0x00\n        /* \"#utility.yul\":20075:20081   */\n      dup3\n        /* \"#utility.yul\":20071:20085   */\n      add\n        /* \"#utility.yul\":20064:20118   */\n      mstore\n        /* \"#utility.yul\":19947:20125   */\n      pop\n      jump\t// out\n        /* \"#utility.yul\":20131:20497   */\n    tag_349:\n        /* \"#utility.yul\":20273:20276   */\n      0x00\n        /* \"#utility.yul\":20294:20361   */\n      tag_576\n        /* \"#utility.yul\":20358:20360   */\n      0x1c\n        /* \"#utility.yul\":20353:20356   */\n      dup4\n        /* \"#utility.yul\":20294:20361   */\n      tag_308\n      jump\t// in\n    tag_576:\n        /* \"#utility.yul\":20287:20361   */\n      swap2\n      pop\n        /* \"#utility.yul\":20370:20463   */\n      tag_577\n        /* \"#utility.yul\":20459:20462   */\n      dup3\n        /* \"#utility.yul\":20370:20463   */\n      tag_348\n      jump\t// in\n    tag_577:\n        /* \"#utility.yul\":20488:20490   */\n      0x20\n        /* \"#utility.yul\":20483:20486   */\n      dup3\n        /* \"#utility.yul\":20479:20491   */\n      add\n        /* \"#utility.yul\":20472:20491   */\n      swap1\n      pop\n        /* \"#utility.yul\":20131:20497   */\n      swap2\n      swap1\n      pop\n      jump\t// out\n        /* \"#utility.yul\":20503:20922   */\n    tag_245:\n        /* \"#utility.yul\":20669:20673   */\n      0x00\n        /* \"#utility.yul\":20707:20709   */\n      0x20\n        /* \"#utility.yul\":20696:20705   */\n      dup3\n        /* \"#utility.yul\":20692:20710   */\n      add\n        /* \"#utility.yul\":20684:20710   */\n      swap1\n      pop\n        /* \"#utility.yul\":20756:20765   */\n      dup2\n        /* \"#utility.yul\":20750:20754   */\n      dup2\n        /* \"#utility.yul\":20746:20766   */\n      sub\n        /* \"#utility.yul\":20742:20743   */\n      0x00\n        /* \"#utility.yul\":20731:20740   */\n      dup4\n        /* \"#utility.yul\":20727:20744   */\n      add\n        /* \"#utility.yul\":20720:20767   */\n      mstore\n        /* \"#utility.yul\":20784:20915   */\n      tag_579\n        /* \"#utility.yul\":20910:20914   */\n      dup2\n        /* \"#utility.yul\":20784:20915   */\n      tag_349\n      jump\t// in\n    tag_579:\n        /* \"#utility.yul\":20776:20915   */\n      swap1\n      pop\n        /* \"#utility.yul\":20503:20922   */\n      swap2\n      swap1\n      pop\n      jump\t// out\n        /* \"#utility.yul\":20928:21159   */\n    tag_350:\n        /* \"#utility.yul\":21068:21102   */\n      0x4469726563746f7279206164647265737320646f6573206e6f7420696d706c65\n        /* \"#utility.yul\":21064:21065   */\n      0x00\n        /* \"#utility.yul\":21056:21062   */\n      dup3\n        /* \"#utility.yul\":21052:21066   */\n      add\n        /* \"#utility.yul\":21045:21103   */\n      mstore\n        /* \"#utility.yul\":21137:21151   */\n      0x6d656e74206f776e657228290000000000000000000000000000000000000000\n        /* \"#utility.yul\":21132:21134   */\n      0x20\n        /* \"#utility.yul\":21124:21130   */\n      dup3\n        /* \"#utility.yul\":21120:21135   */\n      add\n        /* \"#utility.yul\":21113:21152   */\n      mstore\n        /* \"#utility.yul\":20928:21159   */\n      pop\n      jump\t// out\n        /* \"#utility.yul\":21165:21531   */\n    tag_351:\n        /* \"#utility.yul\":21307:21310   */\n      0x00\n        /* \"#utility.yul\":21328:21395   */\n      tag_582\n        /* \"#utility.yul\":21392:21394   */\n      0x2c\n        /* \"#utility.yul\":21387:21390   */\n      dup4\n        /* \"#utility.yul\":21328:21395   */\n      tag_308\n      jump\t// in\n    tag_582:\n        /* \"#utility.yul\":21321:21395   */\n      swap2\n      pop\n        /* \"#utility.yul\":21404:21497   */\n      tag_583\n        /* \"#utility.yul\":21493:21496   */\n      dup3\n        /* \"#utility.yul\":21404:21497   */\n      tag_350\n      jump\t// in\n    tag_583:\n        /* \"#utility.yul\":21522:21524   */\n      0x40\n        /* \"#utility.yul\":21517:21520   */\n      dup3\n        /* \"#utility.yul\":21513:21525   */\n      add\n        /* \"#utility.yul\":21506:21525   */\n      swap1\n      pop\n        /* \"#utility.yul\":21165:21531   */\n      swap2\n      swap1\n      pop\n      jump\t// out\n        /* \"#utility.yul\":21537:21956   */\n    tag_253:\n        /* \"#utility.yul\":21703:21707   */\n      0x00\n        /* \"#utility.yul\":21741:21743   */\n      0x20\n        /* \"#utility.yul\":21730:21739   */\n      dup3\n        /* \"#utility.yul\":21726:21744   */\n      add\n        /* \"#utility.yul\":21718:21744   */\n      swap1\n      pop\n        /* \"#utility.yul\":21790:21799   */\n      dup2\n        /* \"#utility.yul\":21784:21788   */\n      dup2\n        /* \"#utility.yul\":21780:21800   */\n      sub\n        /* \"#utility.yul\":21776:21777   */\n      0x00\n        /* \"#utility.yul\":21765:21774   */\n      dup4\n        /* \"#utility.yul\":21761:21778   */\n      add\n        /* \"#utility.yul\":21754:21801   */\n      mstore\n        /* \"#utility.yul\":21818:21949   */\n      tag_585\n        /* \"#utility.yul\":21944:21948   */\n      dup2\n        /* \"#utility.yul\":21818:21949   */\n      tag_351\n      jump\t// in\n    tag_585:\n        /* \"#utility.yul\":21810:21949   */\n      swap1\n      pop\n        /* \"#utility.yul\":21537:21956   */\n      swap2\n      swap1\n      pop\n      jump\t// out\n\n    auxdata: 0xa2646970667358221220900042760cf715a4ccfbac5efb98825759baf7368512fa8ec75acace2c68540564736f6c634300081e0033\n}\n",
				"bytecode": {
					"linkReferences": {},
					"object": "610100604052348015610010575f5ffd5b506040516129383803806129388339818101604052810190610032919061037e565b836100428161013a60201b60201c565b508273ffffffffffffffffffffffffffffffffffffffff1660808173ffffffffffffffffffffffffffffffffffffffff16815250508173ffffffffffffffffffffffffffffffffffffffff1660a08173ffffffffffffffffffffffffffffffffffffffff168152505080151560c0811515815250508273ffffffffffffffffffffffffffffffffffffffff1663313ce5676040518163ffffffff1660e01b8152600401602060405180830381865afa158015610100573d5f5f3e3d5ffd5b505050506040513d601f19601f820116820180604052508101906101249190610418565b60ff1660e08160ff1681525050505050506105dc565b5f73ffffffffffffffffffffffffffffffffffffffff168173ffffffffffffffffffffffffffffffffffffffff16036101a8576040517f08c379a000000000000000000000000000000000000000000000000000000000815260040161019f9061049d565b60405180910390fd5b5f8173ffffffffffffffffffffffffffffffffffffffff163b11610201576040517f08c379a00000000000000000000000000000000000000000000000000000000081526004016101f890610505565b60405180910390fd5b8073ffffffffffffffffffffffffffffffffffffffff16638da5cb5b6040518163ffffffff1660e01b8152600401602060405180830381865afa92505050801561026957506040513d601f19601f820116820180604052508101906102669190610523565b60015b6102a8576040517f08c379a000000000000000000000000000000000000000000000000000000000815260040161029f906105be565b60405180910390fd5b815f5f6101000a81548173ffffffffffffffffffffffffffffffffffffffff021916908373ffffffffffffffffffffffffffffffffffffffff1602179055505050565b5f5ffd5b5f73ffffffffffffffffffffffffffffffffffffffff82169050919050565b5f610318826102ef565b9050919050565b6103288161030e565b8114610332575f5ffd5b50565b5f815190506103438161031f565b92915050565b5f8115159050919050565b61035d81610349565b8114610367575f5ffd5b50565b5f8151905061037881610354565b92915050565b5f5f5f5f60808587031215610396576103956102eb565b5b5f6103a387828801610335565b94505060206103b487828801610335565b93505060406103c587828801610335565b92505060606103d68782880161036a565b91505092959194509250565b5f60ff82169050919050565b6103f7816103e2565b8114610401575f5ffd5b50565b5f81519050610412816103ee565b92915050565b5f6020828403121561042d5761042c6102eb565b5b5f61043a84828501610404565b91505092915050565b5f82825260208201905092915050565b7f4469726563746f72792063616e6e6f74206265207a65726f20616464726573735f82015250565b5f610487602083610443565b915061049282610453565b602082019050919050565b5f6020820190508181035f8301526104b48161047b565b9050919050565b7f4469726563746f7279206d757374206265206120636f6e7472616374000000005f82015250565b5f6104ef601c83610443565b91506104fa826104bb565b602082019050919050565b5f6020820190508181035f83015261051c816104e3565b9050919050565b5f60208284031215610538576105376102eb565b5b5f61054584828501610335565b91505092915050565b7f4469726563746f7279206164647265737320646f6573206e6f7420696d706c655f8201527f6d656e74206f776e657228290000000000000000000000000000000000000000602082015250565b5f6105a8602c83610443565b91506105b38261054e565b604082019050919050565b5f6020820190508181035f8301526105d58161059c565b9050919050565b60805160a05160c05160e0516122ea61064e5f395f81816104d60152610b4601525f818161061f015261081a01525f81816103ca015261083b01525f81816103a6015281816103ef01528181610443015281816107650152818161085c015281816108d5015261095001526122ea5ff3fe608060405234801561000f575f5ffd5b50600436106100fd575f3560e01c8063658a847a116100955780637d1aa610116100645780637d1aa610146102e75780638da5cb5b14610318578063ba4c7be114610336578063d08aef7c14610352576100fd565b8063658a847a1461024b5780636855e9391461026957806369a2e17d146102875780637b49b49d146102b7576100fd565b806327262618116100d1578063272626181461019d5780635498f4bc146101cd57806357b6c133146101eb57806363aa0c931461021b576100fd565b8062593bcf14610101578063040141e5146101315780630b0176031461014f5780630dbc0d7d1461016d575b5f5ffd5b61011b60048036038101906101169190611834565b610370565b6040516101289190611877565b60405180910390f35b6101396103a4565b604051610146919061189f565b60405180910390f35b6101576103c8565b604051610164919061189f565b60405180910390f35b61018760048036038101906101829190611834565b6103ec565b6040516101949190611877565b60405180910390f35b6101b760048036038101906101b291906119f4565b61057d565b6040516101c4919061189f565b60405180910390f35b6101d561061d565b6040516101e29190611a55565b60405180910390f35b61020560048036038101906102009190611834565b610641565b6040516102129190611877565b60405180910390f35b61023560048036038101906102309190611834565b610675565b6040516102429190611877565b60405180910390f35b6102536107ec565b6040516102609190611ac9565b60405180910390f35b610271610810565b60405161027e9190611877565b60405180910390f35b6102a1600480360381019061029c9190611834565b61089e565b6040516102ae9190611877565b60405180910390f35b6102d160048036038101906102cc9190611834565b6108d2565b6040516102de9190611877565b60405180910390f35b61030160048036038101906102fc9190611834565b610997565b60405161030f929190611ae2565b60405180910390f35b6103206109ab565b60405161032d919061189f565b60405180910390f35b610350600480360381019061034b9190611834565b610a3e565b005b61035a610b44565b6040516103679190611b24565b60405180910390f35b5f5f61037b836108d2565b90505f610386610810565b905061039b8282670de0b6b3a7640000610b68565b92505050919050565b7f000000000000000000000000000000000000000000000000000000000000000081565b7f000000000000000000000000000000000000000000000000000000000000000081565b5f7f000000000000000000000000000000000000000000000000000000000000000073ffffffffffffffffffffffffffffffffffffffff168273ffffffffffffffffffffffffffffffffffffffff1603610502575f7f000000000000000000000000000000000000000000000000000000000000000073ffffffffffffffffffffffffffffffffffffffff166318160ddd6040518163ffffffff1660e01b8152600401602060405180830381865afa1580156104aa573d5f5f3e3d5ffd5b505050506040513d601f19601f820116820180604052508101906104ce9190611b67565b90506104fa817f0000000000000000000000000000000000000000000000000000000000000000610c72565b915050610578565b5f5f61050d84610ccc565b915091505f5f5f5f61052086868a610dd1565b5093509350935093505f6105348585610c72565b90505f6105418484610c72565b90505f61055085858989611372565b90505f6105668483670de0b6b3a7640000610b68565b90508281019a50505050505050505050505b919050565b5f5f5f9054906101000a900473ffffffffffffffffffffffffffffffffffffffff1673ffffffffffffffffffffffffffffffffffffffff166327262618836040518263ffffffff1660e01b81526004016105d79190611bf2565b602060405180830381865afa1580156105f2573d5f5f3e3d5ffd5b505050506040513d601f19601f820116820180604052508101906106169190611c26565b9050919050565b7f000000000000000000000000000000000000000000000000000000000000000081565b5f5f61064c836103ec565b90505f610657610810565b905061066c8282670de0b6b3a7640000610b68565b92505050919050565b5f5f8273ffffffffffffffffffffffffffffffffffffffff166318160ddd6040518163ffffffff1660e01b8152600401602060405180830381865afa1580156106c0573d5f5f3e3d5ffd5b505050506040513d601f19601f820116820180604052508101906106e49190611b67565b90505f8373ffffffffffffffffffffffffffffffffffffffff1663313ce5676040518163ffffffff1660e01b8152600401602060405180830381865afa158015610730573d5f5f3e3d5ffd5b505050506040513d601f19601f820116820180604052508101906107549190611c7b565b90505f6107618383610c72565b90507f000000000000000000000000000000000000000000000000000000000000000073ffffffffffffffffffffffffffffffffffffffff168573ffffffffffffffffffffffffffffffffffffffff16036107c1578093505050506107e7565b5f6107cb866108d2565b90506107e08282670de0b6b3a7640000610b68565b9450505050505b919050565b5f5f9054906101000a900473ffffffffffffffffffffffffffffffffffffffff1681565b5f5f5f5f5f6108807f00000000000000000000000000000000000000000000000000000000000000007f00000000000000000000000000000000000000000000000000000000000000007f0000000000000000000000000000000000000000000000000000000000000000610dd1565b50935093509350935061089582828686611372565b94505050505090565b5f5f6108a983610675565b90505f6108b4610810565b90506108c98282670de0b6b3a7640000610b68565b92505050919050565b5f7f000000000000000000000000000000000000000000000000000000000000000073ffffffffffffffffffffffffffffffffffffffff168273ffffffffffffffffffffffffffffffffffffffff160361093657670de0b6b3a76400009050610992565b5f5f61094184610ccc565b915091505f5f5f5f61097486867f0000000000000000000000000000000000000000000000000000000000000000610dd1565b50935093509350935061098984848484611372565b96505050505050505b919050565b5f5f6109a283610ccc565b91509150915091565b5f5f5f9054906101000a900473ffffffffffffffffffffffffffffffffffffffff1673ffffffffffffffffffffffffffffffffffffffff16638da5cb5b6040518163ffffffff1660e01b8152600401602060405180830381865afa158015610a15573d5f5f3e3d5ffd5b505050506040513d601f19601f82011682018060405250810190610a399190611c26565b905090565b5f5f9054906101000a900473ffffffffffffffffffffffffffffffffffffffff1673ffffffffffffffffffffffffffffffffffffffff16638da5cb5b6040518163ffffffff1660e01b8152600401602060405180830381865afa158015610aa7573d5f5f3e3d5ffd5b505050506040513d601f19601f82011682018060405250810190610acb9190611c26565b73ffffffffffffffffffffffffffffffffffffffff163373ffffffffffffffffffffffffffffffffffffffff1614610b38576040517f08c379a0000000000000000000000000000000000000000000000000000000008152600401610b2f90611cf0565b60405180910390fd5b610b4181611424565b50565b7f000000000000000000000000000000000000000000000000000000000000000081565b5f5f5f5f198587098587029250828110838203039150505f8103610ba057838281610b9657610b95611d0e565b5b0492505050610c6b565b808411610be2576040517f08c379a0000000000000000000000000000000000000000000000000000000008152600401610bd990611d85565b60405180910390fd5b5f8486880990508281118203915080830392505f60018619018616905080860495508084049350600181825f0304019050808302841793505f600287600302189050808702600203810290508087026002038102905080870260020381029050808702600203810290508087026002038102905080870260020381029050808502955050505050505b9392505050565b5f60128260ff1603610c8657829050610cc6565b60128260ff161015610ca757610c9e826012036115d5565b83029050610cc6565b610cb3601283036115d5565b8381610cc257610cc1611d0e565b5b0490505b92915050565b5f5f5f610cd7611785565b73ffffffffffffffffffffffffffffffffffffffff1663df697cc4856040518263ffffffff1660e01b8152600401610d0f919061189f565b608060405180830381865afa158015610d2a573d5f5f3e3d5ffd5b505050506040513d601f19601f82011682018060405250810190610d4e9190611e91565b90505f73ffffffffffffffffffffffffffffffffffffffff16815f015173ffffffffffffffffffffffffffffffffffffffff1603610db8576040517fc5fc4bf400000000000000000000000000000000000000000000000000000000815260040160405180910390fd5b5f816040015160ff1614159250805f0151915050915091565b5f5f5f5f5f5f5f5f5f8b1561102c575f8b90508073ffffffffffffffffffffffffffffffffffffffff16630dfe16816040518163ffffffff1660e01b8152600401602060405180830381865afa158015610e2d573d5f5f3e3d5ffd5b505050506040513d601f19601f82011682018060405250810190610e519190611c26565b92508073ffffffffffffffffffffffffffffffffffffffff1663d21220a76040518163ffffffff1660e01b8152600401602060405180830381865afa158015610e9c573d5f5f3e3d5ffd5b505050506040513d601f19601f82011682018060405250810190610ec09190611c26565b91505f8173ffffffffffffffffffffffffffffffffffffffff16633850c7bd6040518163ffffffff1660e01b815260040160e060405180830381865afa158015610f0c573d5f5f3e3d5ffd5b505050506040513d601f19601f82011682018060405250810190610f309190611f7d565b50505050505090505f8273ffffffffffffffffffffffffffffffffffffffff16631a6865026040518163ffffffff1660e01b8152600401602060405180830381865afa158015610f82573d5f5f3e3d5ffd5b505050506040513d601f19601f82011682018060405250810190610fa6919061205f565b90505f6c010000000000000000000000009050610fec826fffffffffffffffffffffffffffffffff16828573ffffffffffffffffffffffffffffffffffffffff16610b68565b9750611021826fffffffffffffffffffffffffffffffff168473ffffffffffffffffffffffffffffffffffffffff1683610b68565b9650505050506111ac565b5f8b90505f5f8273ffffffffffffffffffffffffffffffffffffffff16630902f1ac6040518163ffffffff1660e01b8152600401606060405180830381865afa15801561107b573d5f5f3e3d5ffd5b505050506040513d601f19601f8201168201806040525081019061109f9190612106565b5091509150816dffffffffffffffffffffffffffff169650806dffffffffffffffffffffffffffff1695508273ffffffffffffffffffffffffffffffffffffffff16630dfe16816040518163ffffffff1660e01b8152600401602060405180830381865afa158015611113573d5f5f3e3d5ffd5b505050506040513d601f19601f820116820180604052508101906111379190611c26565b94508273ffffffffffffffffffffffffffffffffffffffff1663d21220a76040518163ffffffff1660e01b8152600401602060405180830381865afa158015611182573d5f5f3e3d5ffd5b505050506040513d601f19601f820116820180604052508101906111a69190611c26565b93505050505b5f8a73ffffffffffffffffffffffffffffffffffffffff168373ffffffffffffffffffffffffffffffffffffffff16036111e95760019050611257565b8a73ffffffffffffffffffffffffffffffffffffffff168273ffffffffffffffffffffffffffffffffffffffff1603611224575f9050611256565b6040517f17b2f78000000000000000000000000000000000000000000000000000000000815260040160405180910390fd5b5b806112625783611264565b845b9950806112715784611273565b835b9750806112805782611282565b815b95508a73ffffffffffffffffffffffffffffffffffffffff1663313ce5676040518163ffffffff1660e01b8152600401602060405180830381865afa1580156112cd573d5f5f3e3d5ffd5b505050506040513d601f19601f820116820180604052508101906112f19190611c7b565b98508573ffffffffffffffffffffffffffffffffffffffff1663313ce5676040518163ffffffff1660e01b8152600401602060405180830381865afa15801561133c573d5f5f3e3d5ffd5b505050506040513d601f19601f820116820180604052508101906113609190611c7b565b96505050505050939792965093509350565b5f5f85148061138057505f83145b156113b7576040517f8b4a713e00000000000000000000000000000000000000000000000000000000815260040160405180910390fd5b5f8460ff168360ff16106113e1576113d08584036115d5565b670de0b6b3a764000002905061140d565b5f6113ed8487036115d5565b8502905061140487670de0b6b3a764000083610b68565b9250505061141c565b611418868286610b68565b9150505b949350505050565b5f73ffffffffffffffffffffffffffffffffffffffff168173ffffffffffffffffffffffffffffffffffffffff1603611492576040517f08c379a0000000000000000000000000000000000000000000000000000000008152600401611489906121a0565b60405180910390fd5b5f8173ffffffffffffffffffffffffffffffffffffffff163b116114eb576040517f08c379a00000000000000000000000000000000000000000000000000000000081526004016114e290612208565b60405180910390fd5b8073ffffffffffffffffffffffffffffffffffffffff16638da5cb5b6040518163ffffffff1660e01b8152600401602060405180830381865afa92505050801561155357506040513d601f19601f820116820180604052508101906115509190611c26565b60015b611592576040517f08c379a000000000000000000000000000000000000000000000000000000000815260040161158990612296565b60405180910390fd5b815f5f6101000a81548173ffffffffffffffffffffffffffffffffffffffff021916908373ffffffffffffffffffffffffffffffffffffffff1602179055505050565b5f5f8260ff16036115e95760019050611780565b60018260ff16036115fd57600a9050611780565b60028260ff16036116115760649050611780565b60038260ff1603611626576103e89050611780565b60048260ff160361163b576127109050611780565b60058260ff160361165157620186a09050611780565b60068260ff160361166757620f42409050611780565b60078260ff160361167d57629896809050611780565b60088260ff1603611694576305f5e1009050611780565b60098260ff16036116ab57633b9aca009050611780565b600a8260ff16036116c3576402540be4009050611780565b600b8260ff16036116db5764174876e8009050611780565b600c8260ff16036116f35764e8d4a510009050611780565b600d8260ff160361170c576509184e72a0009050611780565b600e8260ff160361172557655af3107a40009050611780565b600f8260ff160361173f5766038d7ea4c680009050611780565b60108260ff160361175957662386f26fc100009050611780565b60118260ff16036117745767016345785d8a00009050611780565b670de0b6b3a764000090505b919050565b5f6117c46040518060400160405280600b81526020017f706f6f6c2d66696e64657200000000000000000000000000000000000000000081525061057d565b905090565b5f604051905090565b5f5ffd5b5f5ffd5b5f73ffffffffffffffffffffffffffffffffffffffff82169050919050565b5f611803826117da565b9050919050565b611813816117f9565b811461181d575f5ffd5b50565b5f8135905061182e8161180a565b92915050565b5f60208284031215611849576118486117d2565b5b5f61185684828501611820565b91505092915050565b5f819050919050565b6118718161185f565b82525050565b5f60208201905061188a5f830184611868565b92915050565b611899816117f9565b82525050565b5f6020820190506118b25f830184611890565b92915050565b5f5ffd5b5f5ffd5b5f601f19601f8301169050919050565b7f4e487b71000000000000000000000000000000000000000000000000000000005f52604160045260245ffd5b611906826118c0565b810181811067ffffffffffffffff82111715611925576119246118d0565b5b80604052505050565b5f6119376117c9565b905061194382826118fd565b919050565b5f67ffffffffffffffff821115611962576119616118d0565b5b61196b826118c0565b9050602081019050919050565b828183375f83830152505050565b5f61199861199384611948565b61192e565b9050828152602081018484840111156119b4576119b36118bc565b5b6119bf848285611978565b509392505050565b5f82601f8301126119db576119da6118b8565b5b81356119eb848260208601611986565b91505092915050565b5f60208284031215611a0957611a086117d2565b5b5f82013567ffffffffffffffff811115611a2657611a256117d6565b5b611a32848285016119c7565b91505092915050565b5f8115159050919050565b611a4f81611a3b565b82525050565b5f602082019050611a685f830184611a46565b92915050565b5f819050919050565b5f611a91611a8c611a87846117da565b611a6e565b6117da565b9050919050565b5f611aa282611a77565b9050919050565b5f611ab382611a98565b9050919050565b611ac381611aa9565b82525050565b5f602082019050611adc5f830184611aba565b92915050565b5f604082019050611af55f830185611a46565b611b026020830184611890565b9392505050565b5f60ff82169050919050565b611b1e81611b09565b82525050565b5f602082019050611b375f830184611b15565b92915050565b611b468161185f565b8114611b50575f5ffd5b50565b5f81519050611b6181611b3d565b92915050565b5f60208284031215611b7c57611b7b6117d2565b5b5f611b8984828501611b53565b91505092915050565b5f81519050919050565b5f82825260208201905092915050565b8281835e5f83830152505050565b5f611bc482611b92565b611bce8185611b9c565b9350611bde818560208601611bac565b611be7816118c0565b840191505092915050565b5f6020820190508181035f830152611c0a8184611bba565b905092915050565b5f81519050611c208161180a565b92915050565b5f60208284031215611c3b57611c3a6117d2565b5b5f611c4884828501611c12565b91505092915050565b611c5a81611b09565b8114611c64575f5ffd5b50565b5f81519050611c7581611c51565b92915050565b5f60208284031215611c9057611c8f6117d2565b5b5f611c9d84828501611c67565b91505092915050565b7f43616c6c6572206973206e6f7420746865206f776e65720000000000000000005f82015250565b5f611cda601783611b9c565b9150611ce582611ca6565b602082019050919050565b5f6020820190508181035f830152611d0781611cce565b9050919050565b7f4e487b71000000000000000000000000000000000000000000000000000000005f52601260045260245ffd5b7f6d756c446976206f766572666c6f7700000000000000000000000000000000005f82015250565b5f611d6f600f83611b9c565b9150611d7a82611d3b565b602082019050919050565b5f6020820190508181035f830152611d9c81611d63565b9050919050565b5f5ffd5b5f62ffffff82169050919050565b611dbe81611da7565b8114611dc8575f5ffd5b50565b5f81519050611dd981611db5565b92915050565b5f67ffffffffffffffff82169050919050565b611dfb81611ddf565b8114611e05575f5ffd5b50565b5f81519050611e1681611df2565b92915050565b5f60808284031215611e3157611e30611da3565b5b611e3b608061192e565b90505f611e4a84828501611c12565b5f830152506020611e5d84828501611dcb565b6020830152506040611e7184828501611c67565b6040830152506060611e8584828501611e08565b60608301525092915050565b5f60808284031215611ea657611ea56117d2565b5b5f611eb384828501611e1c565b91505092915050565b611ec5816117da565b8114611ecf575f5ffd5b50565b5f81519050611ee081611ebc565b92915050565b5f8160020b9050919050565b611efb81611ee6565b8114611f05575f5ffd5b50565b5f81519050611f1681611ef2565b92915050565b5f61ffff82169050919050565b611f3281611f1c565b8114611f3c575f5ffd5b50565b5f81519050611f4d81611f29565b92915050565b611f5c81611a3b565b8114611f66575f5ffd5b50565b5f81519050611f7781611f53565b92915050565b5f5f5f5f5f5f5f60e0888a031215611f9857611f976117d2565b5b5f611fa58a828b01611ed2565b9750506020611fb68a828b01611f08565b9650506040611fc78a828b01611f3f565b9550506060611fd88a828b01611f3f565b9450506080611fe98a828b01611f3f565b93505060a0611ffa8a828b01611c67565b92505060c061200b8a828b01611f69565b91505092959891949750929550565b5f6fffffffffffffffffffffffffffffffff82169050919050565b61203e8161201a565b8114612048575f5ffd5b50565b5f8151905061205981612035565b92915050565b5f60208284031215612074576120736117d2565b5b5f6120818482850161204b565b91505092915050565b5f6dffffffffffffffffffffffffffff82169050919050565b6120ac8161208a565b81146120b6575f5ffd5b50565b5f815190506120c7816120a3565b92915050565b5f63ffffffff82169050919050565b6120e5816120cd565b81146120ef575f5ffd5b50565b5f81519050612100816120dc565b92915050565b5f5f5f6060848603121561211d5761211c6117d2565b5b5f61212a868287016120b9565b935050602061213b868287016120b9565b925050604061214c868287016120f2565b9150509250925092565b7f4469726563746f72792063616e6e6f74206265207a65726f20616464726573735f82015250565b5f61218a602083611b9c565b915061219582612156565b602082019050919050565b5f6020820190508181035f8301526121b78161217e565b9050919050565b7f4469726563746f7279206d757374206265206120636f6e7472616374000000005f82015250565b5f6121f2601c83611b9c565b91506121fd826121be565b602082019050919050565b5f6020820190508181035f83015261221f816121e6565b9050919050565b7f4469726563746f7279206164647265737320646f6573206e6f7420696d706c655f8201527f6d656e74206f776e657228290000000000000000000000000000000000000000602082015250565b5f612280602c83611b9c565b915061228b82612226565b604082019050919050565b5f6020820190508181035f8301526122ad81612274565b905091905056fea2646970667358221220900042760cf715a4ccfbac5efb98825759baf7368512fa8ec75acace2c68540564736f6c634300081e0033",
					"opcodes": "PUSH2 0x100 PUSH1 0x40 MSTORE CALLVALUE DUP1 ISZERO PUSH2 0x10 JUMPI PUSH0 PUSH0 REVERT JUMPDEST POP PUSH1 0x40 MLOAD PUSH2 0x2938 CODESIZE SUB DUP1 PUSH2 0x2938 DUP4 CODECOPY DUP2 DUP2 ADD PUSH1 0x40 MSTORE DUP2 ADD SWAP1 PUSH2 0x32 SWAP2 SWAP1 PUSH2 0x37E JUMP JUMPDEST DUP4 PUSH2 0x42 DUP2 PUSH2 0x13A PUSH1 0x20 SHL PUSH1 0x20 SHR JUMP JUMPDEST POP DUP3 PUSH20 0xFFFFFFFFFFFFFFFFFFFFFFFFFFFFFFFFFFFFFFFF AND PUSH1 0x80 DUP2 PUSH20 0xFFFFFFFFFFFFFFFFFFFFFFFFFFFFFFFFFFFFFFFF AND DUP2 MSTORE POP POP DUP2 PUSH20 0xFFFFFFFFFFFFFFFFFFFFFFFFFFFFFFFFFFFFFFFF AND PUSH1 0xA0 DUP2 PUSH20 0xFFFFFFFFFFFFFFFFFFFFFFFFFFFFFFFFFFFFFFFF AND DUP2 MSTORE POP POP DUP1 ISZERO ISZERO PUSH1 0xC0 DUP2 ISZERO ISZERO DUP2 MSTORE POP POP DUP3 PUSH20 0xFFFFFFFFFFFFFFFFFFFFFFFFFFFFFFFFFFFFFFFF AND PUSH4 0x313CE567 PUSH1 0x40 MLOAD DUP2 PUSH4 0xFFFFFFFF AND PUSH1 0xE0 SHL DUP2 MSTORE PUSH1 0x4 ADD PUSH1 0x20 PUSH1 0x40 MLOAD DUP1 DUP4 SUB DUP2 DUP7 GAS STATICCALL ISZERO DUP1 ISZERO PUSH2 0x100 JUMPI RETURNDATASIZE PUSH0 PUSH0 RETURNDATACOPY RETURNDATASIZE PUSH0 REVERT JUMPDEST POP POP POP POP PUSH1 0x40 MLOAD RETURNDATASIZE PUSH1 0x1F NOT PUSH1 0x1F DUP3 ADD AND DUP3 ADD DUP1 PUSH1 0x40 MSTORE POP DUP2 ADD SWAP1 PUSH2 0x124 SWAP2 SWAP1 PUSH2 0x418 JUMP JUMPDEST PUSH1 0xFF AND PUSH1 0xE0 DUP2 PUSH1 0xFF AND DUP2 MSTORE POP POP POP POP POP POP PUSH2 0x5DC JUMP JUMPDEST PUSH0 PUSH20 0xFFFFFFFFFFFFFFFFFFFFFFFFFFFFFFFFFFFFFFFF AND DUP2 PUSH20 0xFFFFFFFFFFFFFFFFFFFFFFFFFFFFFFFFFFFFFFFF AND SUB PUSH2 0x1A8 JUMPI PUSH1 0x40 MLOAD PUSH32 0x8C379A000000000000000000000000000000000000000000000000000000000 DUP2 MSTORE PUSH1 0x4 ADD PUSH2 0x19F SWAP1 PUSH2 0x49D JUMP JUMPDEST PUSH1 0x40 MLOAD DUP1 SWAP2 SUB SWAP1 REVERT JUMPDEST PUSH0 DUP2 PUSH20 0xFFFFFFFFFFFFFFFFFFFFFFFFFFFFFFFFFFFFFFFF AND EXTCODESIZE GT PUSH2 0x201 JUMPI PUSH1 0x40 MLOAD PUSH32 0x8C379A000000000000000000000000000000000000000000000000000000000 DUP2 MSTORE PUSH1 0x4 ADD PUSH2 0x1F8 SWAP1 PUSH2 0x505 JUMP JUMPDEST PUSH1 0x40 MLOAD DUP1 SWAP2 SUB SWAP1 REVERT JUMPDEST DUP1 PUSH20 0xFFFFFFFFFFFFFFFFFFFFFFFFFFFFFFFFFFFFFFFF AND PUSH4 0x8DA5CB5B PUSH1 0x40 MLOAD DUP2 PUSH4 0xFFFFFFFF AND PUSH1 0xE0 SHL DUP2 MSTORE PUSH1 0x4 ADD PUSH1 0x20 PUSH1 0x40 MLOAD DUP1 DUP4 SUB DUP2 DUP7 GAS STATICCALL SWAP3 POP POP POP DUP1 ISZERO PUSH2 0x269 JUMPI POP PUSH1 0x40 MLOAD RETURNDATASIZE PUSH1 0x1F NOT PUSH1 0x1F DUP3 ADD AND DUP3 ADD DUP1 PUSH1 0x40 MSTORE POP DUP2 ADD SWAP1 PUSH2 0x266 SWAP2 SWAP1 PUSH2 0x523 JUMP JUMPDEST PUSH1 0x1 JUMPDEST PUSH2 0x2A8 JUMPI PUSH1 0x40 MLOAD PUSH32 0x8C379A000000000000000000000000000000000000000000000000000000000 DUP2 MSTORE PUSH1 0x4 ADD PUSH2 0x29F SWAP1 PUSH2 0x5BE JUMP JUMPDEST PUSH1 0x40 MLOAD DUP1 SWAP2 SUB SWAP1 REVERT JUMPDEST DUP2 PUSH0 PUSH0 PUSH2 0x100 EXP DUP2 SLOAD DUP2 PUSH20 0xFFFFFFFFFFFFFFFFFFFFFFFFFFFFFFFFFFFFFFFF MUL NOT AND SWAP1 DUP4 PUSH20 0xFFFFFFFFFFFFFFFFFFFFFFFFFFFFFFFFFFFFFFFF AND MUL OR SWAP1 SSTORE POP POP POP JUMP JUMPDEST PUSH0 PUSH0 REVERT JUMPDEST PUSH0 PUSH20 0xFFFFFFFFFFFFFFFFFFFFFFFFFFFFFFFFFFFFFFFF DUP3 AND SWAP1 POP SWAP2 SWAP1 POP JUMP JUMPDEST PUSH0 PUSH2 0x318 DUP3 PUSH2 0x2EF JUMP JUMPDEST SWAP1 POP SWAP2 SWAP1 POP JUMP JUMPDEST PUSH2 0x328 DUP2 PUSH2 0x30E JUMP JUMPDEST DUP2 EQ PUSH2 0x332 JUMPI PUSH0 PUSH0 REVERT JUMPDEST POP JUMP JUMPDEST PUSH0 DUP2 MLOAD SWAP1 POP PUSH2 0x343 DUP2 PUSH2 0x31F JUMP JUMPDEST SWAP3 SWAP2 POP POP JUMP JUMPDEST PUSH0 DUP2 ISZERO ISZERO SWAP1 POP SWAP2 SWAP1 POP JUMP JUMPDEST PUSH2 0x35D DUP2 PUSH2 0x349 JUMP JUMPDEST DUP2 EQ PUSH2 0x367 JUMPI PUSH0 PUSH0 REVERT JUMPDEST POP JUMP JUMPDEST PUSH0 DUP2 MLOAD SWAP1 POP PUSH2 0x378 DUP2 PUSH2 0x354 JUMP JUMPDEST SWAP3 SWAP2 POP POP JUMP JUMPDEST PUSH0 PUSH0 PUSH0 PUSH0 PUSH1 0x80 DUP6 DUP8 SUB SLT ISZERO PUSH2 0x396 JUMPI PUSH2 0x395 PUSH2 0x2EB JUMP JUMPDEST JUMPDEST PUSH0 PUSH2 0x3A3 DUP8 DUP3 DUP9 ADD PUSH2 0x335 JUMP JUMPDEST SWAP5 POP POP PUSH1 0x20 PUSH2 0x3B4 DUP8 DUP3 DUP9 ADD PUSH2 0x335 JUMP JUMPDEST SWAP4 POP POP PUSH1 0x40 PUSH2 0x3C5 DUP8 DUP3 DUP9 ADD PUSH2 0x335 JUMP JUMPDEST SWAP3 POP POP PUSH1 0x60 PUSH2 0x3D6 DUP8 DUP3 DUP9 ADD PUSH2 0x36A JUMP JUMPDEST SWAP2 POP POP SWAP3 SWAP6 SWAP2 SWAP5 POP SWAP3 POP JUMP JUMPDEST PUSH0 PUSH1 0xFF DUP3 AND SWAP1 POP SWAP2 SWAP1 POP JUMP JUMPDEST PUSH2 0x3F7 DUP2 PUSH2 0x3E2 JUMP JUMPDEST DUP2 EQ PUSH2 0x401 JUMPI PUSH0 PUSH0 REVERT JUMPDEST POP JUMP JUMPDEST PUSH0 DUP2 MLOAD SWAP1 POP PUSH2 0x412 DUP2 PUSH2 0x3EE JUMP JUMPDEST SWAP3 SWAP2 POP POP JUMP JUMPDEST PUSH0 PUSH1 0x20 DUP3 DUP5 SUB SLT ISZERO PUSH2 0x42D JUMPI PUSH2 0x42C PUSH2 0x2EB JUMP JUMPDEST JUMPDEST PUSH0 PUSH2 0x43A DUP5 DUP3 DUP6 ADD PUSH2 0x404 JUMP JUMPDEST SWAP2 POP POP SWAP3 SWAP2 POP POP JUMP JUMPDEST PUSH0 DUP3 DUP3 MSTORE PUSH1 0x20 DUP3 ADD SWAP1 POP SWAP3 SWAP2 POP POP JUMP JUMPDEST PUSH32 0x4469726563746F72792063616E6E6F74206265207A65726F2061646472657373 PUSH0 DUP3 ADD MSTORE POP JUMP JUMPDEST PUSH0 PUSH2 0x487 PUSH1 0x20 DUP4 PUSH2 0x443 JUMP JUMPDEST SWAP2 POP PUSH2 0x492 DUP3 PUSH2 0x453 JUMP JUMPDEST PUSH1 0x20 DUP3 ADD SWAP1 POP SWAP2 SWAP1 POP JUMP JUMPDEST PUSH0 PUSH1 0x20 DUP3 ADD SWAP1 POP DUP2 DUP2 SUB PUSH0 DUP4 ADD MSTORE PUSH2 0x4B4 DUP2 PUSH2 0x47B JUMP JUMPDEST SWAP1 POP SWAP2 SWAP1 POP JUMP JUMPDEST PUSH32 0x4469726563746F7279206D757374206265206120636F6E747261637400000000 PUSH0 DUP3 ADD MSTORE POP JUMP JUMPDEST PUSH0 PUSH2 0x4EF PUSH1 0x1C DUP4 PUSH2 0x443 JUMP JUMPDEST SWAP2 POP PUSH2 0x4FA DUP3 PUSH2 0x4BB JUMP JUMPDEST PUSH1 0x20 DUP3 ADD SWAP1 POP SWAP2 SWAP1 POP JUMP JUMPDEST PUSH0 PUSH1 0x20 DUP3 ADD SWAP1 POP DUP2 DUP2 SUB PUSH0 DUP4 ADD MSTORE PUSH2 0x51C DUP2 PUSH2 0x4E3 JUMP JUMPDEST SWAP1 POP SWAP2 SWAP1 POP JUMP JUMPDEST PUSH0 PUSH1 0x20 DUP3 DUP5 SUB SLT ISZERO PUSH2 0x538 JUMPI PUSH2 0x537 PUSH2 0x2EB JUMP JUMPDEST JUMPDEST PUSH0 PUSH2 0x545 DUP5 DUP3 DUP6 ADD PUSH2 0x335 JUMP JUMPDEST SWAP2 POP POP SWAP3 SWAP2 POP POP JUMP JUMPDEST PUSH32 0x4469726563746F7279206164647265737320646F6573206E6F7420696D706C65 PUSH0 DUP3 ADD MSTORE PUSH32 0x6D656E74206F776E657228290000000000000000000000000000000000000000 PUSH1 0x20 DUP3 ADD MSTORE POP JUMP JUMPDEST PUSH0 PUSH2 0x5A8 PUSH1 0x2C DUP4 PUSH2 0x443 JUMP JUMPDEST SWAP2 POP PUSH2 0x5B3 DUP3 PUSH2 0x54E JUMP JUMPDEST PUSH1 0x40 DUP3 ADD SWAP1 POP SWAP2 SWAP1 POP JUMP JUMPDEST PUSH0 PUSH1 0x20 DUP3 ADD SWAP1 POP DUP2 DUP2 SUB PUSH0 DUP4 ADD MSTORE PUSH2 0x5D5 DUP2 PUSH2 0x59C JUMP JUMPDEST SWAP1 POP SWAP2 SWAP1 POP JUMP JUMPDEST PUSH1 0x80 MLOAD PUSH1 0xA0 MLOAD PUSH1 0xC0 MLOAD PUSH1 0xE0 MLOAD PUSH2 0x22EA PUSH2 0x64E PUSH0 CODECOPY PUSH0 DUP2 DUP2 PUSH2 0x4D6 ADD MSTORE PUSH2 0xB46 ADD MSTORE PUSH0 DUP2 DUP2 PUSH2 0x61F ADD MSTORE PUSH2 0x81A ADD MSTORE PUSH0 DUP2 DUP2 PUSH2 0x3CA ADD MSTORE PUSH2 0x83B ADD MSTORE PUSH0 DUP2 DUP2 PUSH2 0x3A6 ADD MSTORE DUP2 DUP2 PUSH2 0x3EF ADD MSTORE DUP2 DUP2 PUSH2 0x443 ADD MSTORE DUP2 DUP2 PUSH2 0x765 ADD MSTORE DUP2 DUP2 PUSH2 0x85C ADD MSTORE DUP2 DUP2 PUSH2 0x8D5 ADD MSTORE PUSH2 0x950 ADD MSTORE PUSH2 0x22EA PUSH0 RETURN INVALID PUSH1 0x80 PUSH1 0x40 MSTORE CALLVALUE DUP1 ISZERO PUSH2 0xF JUMPI PUSH0 PUSH0 REVERT JUMPDEST POP PUSH1 0x4 CALLDATASIZE LT PUSH2 0xFD JUMPI PUSH0 CALLDATALOAD PUSH1 0xE0 SHR DUP1 PUSH4 0x658A847A GT PUSH2 0x95 JUMPI DUP1 PUSH4 0x7D1AA610 GT PUSH2 0x64 JUMPI DUP1 PUSH4 0x7D1AA610 EQ PUSH2 0x2E7 JUMPI DUP1 PUSH4 0x8DA5CB5B EQ PUSH2 0x318 JUMPI DUP1 PUSH4 0xBA4C7BE1 EQ PUSH2 0x336 JUMPI DUP1 PUSH4 0xD08AEF7C EQ PUSH2 0x352 JUMPI PUSH2 0xFD JUMP JUMPDEST DUP1 PUSH4 0x658A847A EQ PUSH2 0x24B JUMPI DUP1 PUSH4 0x6855E939 EQ PUSH2 0x269 JUMPI DUP1 PUSH4 0x69A2E17D EQ PUSH2 0x287 JUMPI DUP1 PUSH4 0x7B49B49D EQ PUSH2 0x2B7 JUMPI PUSH2 0xFD JUMP JUMPDEST DUP1 PUSH4 0x27262618 GT PUSH2 0xD1 JUMPI DUP1 PUSH4 0x27262618 EQ PUSH2 0x19D JUMPI DUP1 PUSH4 0x5498F4BC EQ PUSH2 0x1CD JUMPI DUP1 PUSH4 0x57B6C133 EQ PUSH2 0x1EB JUMPI DUP1 PUSH4 0x63AA0C93 EQ PUSH2 0x21B JUMPI PUSH2 0xFD JUMP JUMPDEST DUP1 PUSH3 0x593BCF EQ PUSH2 0x101 JUMPI DUP1 PUSH4 0x40141E5 EQ PUSH2 0x131 JUMPI DUP1 PUSH4 0xB017603 EQ PUSH2 0x14F JUMPI DUP1 PUSH4 0xDBC0D7D EQ PUSH2 0x16D JUMPI JUMPDEST PUSH0 PUSH0 REVERT JUMPDEST PUSH2 0x11B PUSH1 0x4 DUP1 CALLDATASIZE SUB DUP2 ADD SWAP1 PUSH2 0x116 SWAP2 SWAP1 PUSH2 0x1834 JUMP JUMPDEST PUSH2 0x370 JUMP JUMPDEST PUSH1 0x40 MLOAD PUSH2 0x128 SWAP2 SWAP1 PUSH2 0x1877 JUMP JUMPDEST PUSH1 0x40 MLOAD DUP1 SWAP2 SUB SWAP1 RETURN JUMPDEST PUSH2 0x139 PUSH2 0x3A4 JUMP JUMPDEST PUSH1 0x40 MLOAD PUSH2 0x146 SWAP2 SWAP1 PUSH2 0x189F JUMP JUMPDEST PUSH1 0x40 MLOAD DUP1 SWAP2 SUB SWAP1 RETURN JUMPDEST PUSH2 0x157 PUSH2 0x3C8 JUMP JUMPDEST PUSH1 0x40 MLOAD PUSH2 0x164 SWAP2 SWAP1 PUSH2 0x189F JUMP JUMPDEST PUSH1 0x40 MLOAD DUP1 SWAP2 SUB SWAP1 RETURN JUMPDEST PUSH2 0x187 PUSH1 0x4 DUP1 CALLDATASIZE SUB DUP2 ADD SWAP1 PUSH2 0x182 SWAP2 SWAP1 PUSH2 0x1834 JUMP JUMPDEST PUSH2 0x3EC JUMP JUMPDEST PUSH1 0x40 MLOAD PUSH2 0x194 SWAP2 SWAP1 PUSH2 0x1877 JUMP JUMPDEST PUSH1 0x40 MLOAD DUP1 SWAP2 SUB SWAP1 RETURN JUMPDEST PUSH2 0x1B7 PUSH1 0x4 DUP1 CALLDATASIZE SUB DUP2 ADD SWAP1 PUSH2 0x1B2 SWAP2 SWAP1 PUSH2 0x19F4 JUMP JUMPDEST PUSH2 0x57D JUMP JUMPDEST PUSH1 0x40 MLOAD PUSH2 0x1C4 SWAP2 SWAP1 PUSH2 0x189F JUMP JUMPDEST PUSH1 0x40 MLOAD DUP1 SWAP2 SUB SWAP1 RETURN JUMPDEST PUSH2 0x1D5 PUSH2 0x61D JUMP JUMPDEST PUSH1 0x40 MLOAD PUSH2 0x1E2 SWAP2 SWAP1 PUSH2 0x1A55 JUMP JUMPDEST PUSH1 0x40 MLOAD DUP1 SWAP2 SUB SWAP1 RETURN JUMPDEST PUSH2 0x205 PUSH1 0x4 DUP1 CALLDATASIZE SUB DUP2 ADD SWAP1 PUSH2 0x200 SWAP2 SWAP1 PUSH2 0x1834 JUMP JUMPDEST PUSH2 0x641 JUMP JUMPDEST PUSH1 0x40 MLOAD PUSH2 0x212 SWAP2 SWAP1 PUSH2 0x1877 JUMP JUMPDEST PUSH1 0x40 MLOAD DUP1 SWAP2 SUB SWAP1 RETURN JUMPDEST PUSH2 0x235 PUSH1 0x4 DUP1 CALLDATASIZE SUB DUP2 ADD SWAP1 PUSH2 0x230 SWAP2 SWAP1 PUSH2 0x1834 JUMP JUMPDEST PUSH2 0x675 JUMP JUMPDEST PUSH1 0x40 MLOAD PUSH2 0x242 SWAP2 SWAP1 PUSH2 0x1877 JUMP JUMPDEST PUSH1 0x40 MLOAD DUP1 SWAP2 SUB SWAP1 RETURN JUMPDEST PUSH2 0x253 PUSH2 0x7EC JUMP JUMPDEST PUSH1 0x40 MLOAD PUSH2 0x260 SWAP2 SWAP1 PUSH2 0x1AC9 JUMP JUMPDEST PUSH1 0x40 MLOAD DUP1 SWAP2 SUB SWAP1 RETURN JUMPDEST PUSH2 0x271 PUSH2 0x810 JUMP JUMPDEST PUSH1 0x40 MLOAD PUSH2 0x27E SWAP2 SWAP1 PUSH2 0x1877 JUMP JUMPDEST PUSH1 0x40 MLOAD DUP1 SWAP2 SUB SWAP1 RETURN JUMPDEST PUSH2 0x2A1 PUSH1 0x4 DUP1 CALLDATASIZE SUB DUP2 ADD SWAP1 PUSH2 0x29C SWAP2 SWAP1 PUSH2 0x1834 JUMP JUMPDEST PUSH2 0x89E JUMP JUMPDEST PUSH1 0x40 MLOAD PUSH2 0x2AE SWAP2 SWAP1 PUSH2 0x1877 JUMP JUMPDEST PUSH1 0x40 MLOAD DUP1 SWAP2 SUB SWAP1 RETURN JUMPDEST PUSH2 0x2D1 PUSH1 0x4 DUP1 CALLDATASIZE SUB DUP2 ADD SWAP1 PUSH2 0x2CC SWAP2 SWAP1 PUSH2 0x1834 JUMP JUMPDEST PUSH2 0x8D2 JUMP JUMPDEST PUSH1 0x40 MLOAD PUSH2 0x2DE SWAP2 SWAP1 PUSH2 0x1877 JUMP JUMPDEST PUSH1 0x40 MLOAD DUP1 SWAP2 SUB SWAP1 RETURN JUMPDEST PUSH2 0x301 PUSH1 0x4 DUP1 CALLDATASIZE SUB DUP2 ADD SWAP1 PUSH2 0x2FC SWAP2 SWAP1 PUSH2 0x1834 JUMP JUMPDEST PUSH2 0x997 JUMP JUMPDEST PUSH1 0x40 MLOAD PUSH2 0x30F SWAP3 SWAP2 SWAP1 PUSH2 0x1AE2 JUMP JUMPDEST PUSH1 0x40 MLOAD DUP1 SWAP2 SUB SWAP1 RETURN JUMPDEST PUSH2 0x320 PUSH2 0x9AB JUMP JUMPDEST PUSH1 0x40 MLOAD PUSH2 0x32D SWAP2 SWAP1 PUSH2 0x189F JUMP JUMPDEST PUSH1 0x40 MLOAD DUP1 SWAP2 SUB SWAP1 RETURN JUMPDEST PUSH2 0x350 PUSH1 0x4 DUP1 CALLDATASIZE SUB DUP2 ADD SWAP1 PUSH2 0x34B SWAP2 SWAP1 PUSH2 0x1834 JUMP JUMPDEST PUSH2 0xA3E JUMP JUMPDEST STOP JUMPDEST PUSH2 0x35A PUSH2 0xB44 JUMP JUMPDEST PUSH1 0x40 MLOAD PUSH2 0x367 SWAP2 SWAP1 PUSH2 0x1B24 JUMP JUMPDEST PUSH1 0x40 MLOAD DUP1 SWAP2 SUB SWAP1 RETURN JUMPDEST PUSH0 PUSH0 PUSH2 0x37B DUP4 PUSH2 0x8D2 JUMP JUMPDEST SWAP1 POP PUSH0 PUSH2 0x386 PUSH2 0x810 JUMP JUMPDEST SWAP1 POP PUSH2 0x39B DUP3 DUP3 PUSH8 0xDE0B6B3A7640000 PUSH2 0xB68 JUMP JUMPDEST SWAP3 POP POP POP SWAP2 SWAP1 POP JUMP JUMPDEST PUSH32 0x0 DUP2 JUMP JUMPDEST PUSH32 0x0 DUP2 JUMP JUMPDEST PUSH0 PUSH32 0x0 PUSH20 0xFFFFFFFFFFFFFFFFFFFFFFFFFFFFFFFFFFFFFFFF AND DUP3 PUSH20 0xFFFFFFFFFFFFFFFFFFFFFFFFFFFFFFFFFFFFFFFF AND SUB PUSH2 0x502 JUMPI PUSH0 PUSH32 0x0 PUSH20 0xFFFFFFFFFFFFFFFFFFFFFFFFFFFFFFFFFFFFFFFF AND PUSH4 0x18160DDD PUSH1 0x40 MLOAD DUP2 PUSH4 0xFFFFFFFF AND PUSH1 0xE0 SHL DUP2 MSTORE PUSH1 0x4 ADD PUSH1 0x20 PUSH1 0x40 MLOAD DUP1 DUP4 SUB DUP2 DUP7 GAS STATICCALL ISZERO DUP1 ISZERO PUSH2 0x4AA JUMPI RETURNDATASIZE PUSH0 PUSH0 RETURNDATACOPY RETURNDATASIZE PUSH0 REVERT JUMPDEST POP POP POP POP PUSH1 0x40 MLOAD RETURNDATASIZE PUSH1 0x1F NOT PUSH1 0x1F DUP3 ADD AND DUP3 ADD DUP1 PUSH1 0x40 MSTORE POP DUP2 ADD SWAP1 PUSH2 0x4CE SWAP2 SWAP1 PUSH2 0x1B67 JUMP JUMPDEST SWAP1 POP PUSH2 0x4FA DUP2 PUSH32 0x0 PUSH2 0xC72 JUMP JUMPDEST SWAP2 POP POP PUSH2 0x578 JUMP JUMPDEST PUSH0 PUSH0 PUSH2 0x50D DUP5 PUSH2 0xCCC JUMP JUMPDEST SWAP2 POP SWAP2 POP PUSH0 PUSH0 PUSH0 PUSH0 PUSH2 0x520 DUP7 DUP7 DUP11 PUSH2 0xDD1 JUMP JUMPDEST POP SWAP4 POP SWAP4 POP SWAP4 POP SWAP4 POP PUSH0 PUSH2 0x534 DUP6 DUP6 PUSH2 0xC72 JUMP JUMPDEST SWAP1 POP PUSH0 PUSH2 0x541 DUP5 DUP5 PUSH2 0xC72 JUMP JUMPDEST SWAP1 POP PUSH0 PUSH2 0x550 DUP6 DUP6 DUP10 DUP10 PUSH2 0x1372 JUMP JUMPDEST SWAP1 POP PUSH0 PUSH2 0x566 DUP5 DUP4 PUSH8 0xDE0B6B3A7640000 PUSH2 0xB68 JUMP JUMPDEST SWAP1 POP DUP3 DUP2 ADD SWAP11 POP POP POP POP POP POP POP POP POP POP POP JUMPDEST SWAP2 SWAP1 POP JUMP JUMPDEST PUSH0 PUSH0 PUSH0 SWAP1 SLOAD SWAP1 PUSH2 0x100 EXP SWAP1 DIV PUSH20 0xFFFFFFFFFFFFFFFFFFFFFFFFFFFFFFFFFFFFFFFF AND PUSH20 0xFFFFFFFFFFFFFFFFFFFFFFFFFFFFFFFFFFFFFFFF AND PUSH4 0x27262618 DUP4 PUSH1 0x40 MLOAD DUP3 PUSH4 0xFFFFFFFF AND PUSH1 0xE0 SHL DUP2 MSTORE PUSH1 0x4 ADD PUSH2 0x5D7 SWAP2 SWAP1 PUSH2 0x1BF2 JUMP JUMPDEST PUSH1 0x20 PUSH1 0x40 MLOAD DUP1 DUP4 SUB DUP2 DUP7 GAS STATICCALL ISZERO DUP1 ISZERO PUSH2 0x5F2 JUMPI RETURNDATASIZE PUSH0 PUSH0 RETURNDATACOPY RETURNDATASIZE PUSH0 REVERT JUMPDEST POP POP POP POP PUSH1 0x40 MLOAD RETURNDATASIZE PUSH1 0x1F NOT PUSH1 0x1F DUP3 ADD AND DUP3 ADD DUP1 PUSH1 0x40 MSTORE POP DUP2 ADD SWAP1 PUSH2 0x616 SWAP2 SWAP1 PUSH2 0x1C26 JUMP JUMPDEST SWAP1 POP SWAP2 SWAP1 POP JUMP JUMPDEST PUSH32 0x0 DUP2 JUMP JUMPDEST PUSH0 PUSH0 PUSH2 0x64C DUP4 PUSH2 0x3EC JUMP JUMPDEST SWAP1 POP PUSH0 PUSH2 0x657 PUSH2 0x810 JUMP JUMPDEST SWAP1 POP PUSH2 0x66C DUP3 DUP3 PUSH8 0xDE0B6B3A7640000 PUSH2 0xB68 JUMP JUMPDEST SWAP3 POP POP POP SWAP2 SWAP1 POP JUMP JUMPDEST PUSH0 PUSH0 DUP3 PUSH20 0xFFFFFFFFFFFFFFFFFFFFFFFFFFFFFFFFFFFFFFFF AND PUSH4 0x18160DDD PUSH1 0x40 MLOAD DUP2 PUSH4 0xFFFFFFFF AND PUSH1 0xE0 SHL DUP2 MSTORE PUSH1 0x4 ADD PUSH1 0x20 PUSH1 0x40 MLOAD DUP1 DUP4 SUB DUP2 DUP7 GAS STATICCALL ISZERO DUP1 ISZERO PUSH2 0x6C0 JUMPI RETURNDATASIZE PUSH0 PUSH0 RETURNDATACOPY RETURNDATASIZE PUSH0 REVERT JUMPDEST POP POP POP POP PUSH1 0x40 MLOAD RETURNDATASIZE PUSH1 0x1F NOT PUSH1 0x1F DUP3 ADD AND DUP3 ADD DUP1 PUSH1 0x40 MSTORE POP DUP2 ADD SWAP1 PUSH2 0x6E4 SWAP2 SWAP1 PUSH2 0x1B67 JUMP JUMPDEST SWAP1 POP PUSH0 DUP4 PUSH20 0xFFFFFFFFFFFFFFFFFFFFFFFFFFFFFFFFFFFFFFFF AND PUSH4 0x313CE567 PUSH1 0x40 MLOAD DUP2 PUSH4 0xFFFFFFFF AND PUSH1 0xE0 SHL DUP2 MSTORE PUSH1 0x4 ADD PUSH1 0x20 PUSH1 0x40 MLOAD DUP1 DUP4 SUB DUP2 DUP7 GAS STATICCALL ISZERO DUP1 ISZERO PUSH2 0x730 JUMPI RETURNDATASIZE PUSH0 PUSH0 RETURNDATACOPY RETURNDATASIZE PUSH0 REVERT JUMPDEST POP POP POP POP PUSH1 0x40 MLOAD RETURNDATASIZE PUSH1 0x1F NOT PUSH1 0x1F DUP3 ADD AND DUP3 ADD DUP1 PUSH1 0x40 MSTORE POP DUP2 ADD SWAP1 PUSH2 0x754 SWAP2 SWAP1 PUSH2 0x1C7B JUMP JUMPDEST SWAP1 POP PUSH0 PUSH2 0x761 DUP4 DUP4 PUSH2 0xC72 JUMP JUMPDEST SWAP1 POP PUSH32 0x0 PUSH20 0xFFFFFFFFFFFFFFFFFFFFFFFFFFFFFFFFFFFFFFFF AND DUP6 PUSH20 0xFFFFFFFFFFFFFFFFFFFFFFFFFFFFFFFFFFFFFFFF AND SUB PUSH2 0x7C1 JUMPI DUP1 SWAP4 POP POP POP POP PUSH2 0x7E7 JUMP JUMPDEST PUSH0 PUSH2 0x7CB DUP7 PUSH2 0x8D2 JUMP JUMPDEST SWAP1 POP PUSH2 0x7E0 DUP3 DUP3 PUSH8 0xDE0B6B3A7640000 PUSH2 0xB68 JUMP JUMPDEST SWAP5 POP POP POP POP POP JUMPDEST SWAP2 SWAP1 POP JUMP JUMPDEST PUSH0 PUSH0 SWAP1 SLOAD SWAP1 PUSH2 0x100 EXP SWAP1 DIV PUSH20 0xFFFFFFFFFFFFFFFFFFFFFFFFFFFFFFFFFFFFFFFF AND DUP2 JUMP JUMPDEST PUSH0 PUSH0 PUSH0 PUSH0 PUSH0 PUSH2 0x880 PUSH32 0x0 PUSH32 0x0 PUSH32 0x0 PUSH2 0xDD1 JUMP JUMPDEST POP SWAP4 POP SWAP4 POP SWAP4 POP SWAP4 POP PUSH2 0x895 DUP3 DUP3 DUP7 DUP7 PUSH2 0x1372 JUMP JUMPDEST SWAP5 POP POP POP POP POP SWAP1 JUMP JUMPDEST PUSH0 PUSH0 PUSH2 0x8A9 DUP4 PUSH2 0x675 JUMP JUMPDEST SWAP1 POP PUSH0 PUSH2 0x8B4 PUSH2 0x810 JUMP JUMPDEST SWAP1 POP PUSH2 0x8C9 DUP3 DUP3 PUSH8 0xDE0B6B3A7640000 PUSH2 0xB68 JUMP JUMPDEST SWAP3 POP POP POP SWAP2 SWAP1 POP JUMP JUMPDEST PUSH0 PUSH32 0x0 PUSH20 0xFFFFFFFFFFFFFFFFFFFFFFFFFFFFFFFFFFFFFFFF AND DUP3 PUSH20 0xFFFFFFFFFFFFFFFFFFFFFFFFFFFFFFFFFFFFFFFF AND SUB PUSH2 0x936 JUMPI PUSH8 0xDE0B6B3A7640000 SWAP1 POP PUSH2 0x992 JUMP JUMPDEST PUSH0 PUSH0 PUSH2 0x941 DUP5 PUSH2 0xCCC JUMP JUMPDEST SWAP2 POP SWAP2 POP PUSH0 PUSH0 PUSH0 PUSH0 PUSH2 0x974 DUP7 DUP7 PUSH32 0x0 PUSH2 0xDD1 JUMP JUMPDEST POP SWAP4 POP SWAP4 POP SWAP4 POP SWAP4 POP PUSH2 0x989 DUP5 DUP5 DUP5 DUP5 PUSH2 0x1372 JUMP JUMPDEST SWAP7 POP POP POP POP POP POP POP JUMPDEST SWAP2 SWAP1 POP JUMP JUMPDEST PUSH0 PUSH0 PUSH2 0x9A2 DUP4 PUSH2 0xCCC JUMP JUMPDEST SWAP2 POP SWAP2 POP SWAP2 POP SWAP2 JUMP JUMPDEST PUSH0 PUSH0 PUSH0 SWAP1 SLOAD SWAP1 PUSH2 0x100 EXP SWAP1 DIV PUSH20 0xFFFFFFFFFFFFFFFFFFFFFFFFFFFFFFFFFFFFFFFF AND PUSH20 0xFFFFFFFFFFFFFFFFFFFFFFFFFFFFFFFFFFFFFFFF AND PUSH4 0x8DA5CB5B PUSH1 0x40 MLOAD DUP2 PUSH4 0xFFFFFFFF AND PUSH1 0xE0 SHL DUP2 MSTORE PUSH1 0x4 ADD PUSH1 0x20 PUSH1 0x40 MLOAD DUP1 DUP4 SUB DUP2 DUP7 GAS STATICCALL ISZERO DUP1 ISZERO PUSH2 0xA15 JUMPI RETURNDATASIZE PUSH0 PUSH0 RETURNDATACOPY RETURNDATASIZE PUSH0 REVERT JUMPDEST POP POP POP POP PUSH1 0x40 MLOAD RETURNDATASIZE PUSH1 0x1F NOT PUSH1 0x1F DUP3 ADD AND DUP3 ADD DUP1 PUSH1 0x40 MSTORE POP DUP2 ADD SWAP1 PUSH2 0xA39 SWAP2 SWAP1 PUSH2 0x1C26 JUMP JUMPDEST SWAP1 POP SWAP1 JUMP JUMPDEST PUSH0 PUSH0 SWAP1 SLOAD SWAP1 PUSH2 0x100 EXP SWAP1 DIV PUSH20 0xFFFFFFFFFFFFFFFFFFFFFFFFFFFFFFFFFFFFFFFF AND PUSH20 0xFFFFFFFFFFFFFFFFFFFFFFFFFFFFFFFFFFFFFFFF AND PUSH4 0x8DA5CB5B PUSH1 0x40 MLOAD DUP2 PUSH4 0xFFFFFFFF AND PUSH1 0xE0 SHL DUP2 MSTORE PUSH1 0x4 ADD PUSH1 0x20 PUSH1 0x40 MLOAD DUP1 DUP4 SUB DUP2 DUP7 GAS STATICCALL ISZERO DUP1 ISZERO PUSH2 0xAA7 JUMPI RETURNDATASIZE PUSH0 PUSH0 RETURNDATACOPY RETURNDATASIZE PUSH0 REVERT JUMPDEST POP POP POP POP PUSH1 0x40 MLOAD RETURNDATASIZE PUSH1 0x1F NOT PUSH1 0x1F DUP3 ADD AND DUP3 ADD DUP1 PUSH1 0x40 MSTORE POP DUP2 ADD SWAP1 PUSH2 0xACB SWAP2 SWAP1 PUSH2 0x1C26 JUMP JUMPDEST PUSH20 0xFFFFFFFFFFFFFFFFFFFFFFFFFFFFFFFFFFFFFFFF AND CALLER PUSH20 0xFFFFFFFFFFFFFFFFFFFFFFFFFFFFFFFFFFFFFFFF AND EQ PUSH2 0xB38 JUMPI PUSH1 0x40 MLOAD PUSH32 0x8C379A000000000000000000000000000000000000000000000000000000000 DUP2 MSTORE PUSH1 0x4 ADD PUSH2 0xB2F SWAP1 PUSH2 0x1CF0 JUMP JUMPDEST PUSH1 0x40 MLOAD DUP1 SWAP2 SUB SWAP1 REVERT JUMPDEST PUSH2 0xB41 DUP2 PUSH2 0x1424 JUMP JUMPDEST POP JUMP JUMPDEST PUSH32 0x0 DUP2 JUMP JUMPDEST PUSH0 PUSH0 PUSH0 PUSH0 NOT DUP6 DUP8 MULMOD DUP6 DUP8 MUL SWAP3 POP DUP3 DUP2 LT DUP4 DUP3 SUB SUB SWAP2 POP POP PUSH0 DUP2 SUB PUSH2 0xBA0 JUMPI DUP4 DUP3 DUP2 PUSH2 0xB96 JUMPI PUSH2 0xB95 PUSH2 0x1D0E JUMP JUMPDEST JUMPDEST DIV SWAP3 POP POP POP PUSH2 0xC6B JUMP JUMPDEST DUP1 DUP5 GT PUSH2 0xBE2 JUMPI PUSH1 0x40 MLOAD PUSH32 0x8C379A000000000000000000000000000000000000000000000000000000000 DUP2 MSTORE PUSH1 0x4 ADD PUSH2 0xBD9 SWAP1 PUSH2 0x1D85 JUMP JUMPDEST PUSH1 0x40 MLOAD DUP1 SWAP2 SUB SWAP1 REVERT JUMPDEST PUSH0 DUP5 DUP7 DUP9 MULMOD SWAP1 POP DUP3 DUP2 GT DUP3 SUB SWAP2 POP DUP1 DUP4 SUB SWAP3 POP PUSH0 PUSH1 0x1 DUP7 NOT ADD DUP7 AND SWAP1 POP DUP1 DUP7 DIV SWAP6 POP DUP1 DUP5 DIV SWAP4 POP PUSH1 0x1 DUP2 DUP3 PUSH0 SUB DIV ADD SWAP1 POP DUP1 DUP4 MUL DUP5 OR SWAP4 POP PUSH0 PUSH1 0x2 DUP8 PUSH1 0x3 MUL XOR SWAP1 POP DUP1 DUP8 MUL PUSH1 0x2 SUB DUP2 MUL SWAP1 POP DUP1 DUP8 MUL PUSH1 0x2 SUB DUP2 MUL SWAP1 POP DUP1 DUP8 MUL PUSH1 0x2 SUB DUP2 MUL SWAP1 POP DUP1 DUP8 MUL PUSH1 0x2 SUB DUP2 MUL SWAP1 POP DUP1 DUP8 MUL PUSH1 0x2 SUB DUP2 MUL SWAP1 POP DUP1 DUP8 MUL PUSH1 0x2 SUB DUP2 MUL SWAP1 POP DUP1 DUP6 MUL SWAP6 POP POP POP POP POP POP JUMPDEST SWAP4 SWAP3 POP POP POP JUMP JUMPDEST PUSH0 PUSH1 0x12 DUP3 PUSH1 0xFF AND SUB PUSH2 0xC86 JUMPI DUP3 SWAP1 POP PUSH2 0xCC6 JUMP JUMPDEST PUSH1 0x12 DUP3 PUSH1 0xFF AND LT ISZERO PUSH2 0xCA7 JUMPI PUSH2 0xC9E DUP3 PUSH1 0x12 SUB PUSH2 0x15D5 JUMP JUMPDEST DUP4 MUL SWAP1 POP PUSH2 0xCC6 JUMP JUMPDEST PUSH2 0xCB3 PUSH1 0x12 DUP4 SUB PUSH2 0x15D5 JUMP JUMPDEST DUP4 DUP2 PUSH2 0xCC2 JUMPI PUSH2 0xCC1 PUSH2 0x1D0E JUMP JUMPDEST JUMPDEST DIV SWAP1 POP JUMPDEST SWAP3 SWAP2 POP POP JUMP JUMPDEST PUSH0 PUSH0 PUSH0 PUSH2 0xCD7 PUSH2 0x1785 JUMP JUMPDEST PUSH20 0xFFFFFFFFFFFFFFFFFFFFFFFFFFFFFFFFFFFFFFFF AND PUSH4 0xDF697CC4 DUP6 PUSH1 0x40 MLOAD DUP3 PUSH4 0xFFFFFFFF AND PUSH1 0xE0 SHL DUP2 MSTORE PUSH1 0x4 ADD PUSH2 0xD0F SWAP2 SWAP1 PUSH2 0x189F JUMP JUMPDEST PUSH1 0x80 PUSH1 0x40 MLOAD DUP1 DUP4 SUB DUP2 DUP7 GAS STATICCALL ISZERO DUP1 ISZERO PUSH2 0xD2A JUMPI RETURNDATASIZE PUSH0 PUSH0 RETURNDATACOPY RETURNDATASIZE PUSH0 REVERT JUMPDEST POP POP POP POP PUSH1 0x40 MLOAD RETURNDATASIZE PUSH1 0x1F NOT PUSH1 0x1F DUP3 ADD AND DUP3 ADD DUP1 PUSH1 0x40 MSTORE POP DUP2 ADD SWAP1 PUSH2 0xD4E SWAP2 SWAP1 PUSH2 0x1E91 JUMP JUMPDEST SWAP1 POP PUSH0 PUSH20 0xFFFFFFFFFFFFFFFFFFFFFFFFFFFFFFFFFFFFFFFF AND DUP2 PUSH0 ADD MLOAD PUSH20 0xFFFFFFFFFFFFFFFFFFFFFFFFFFFFFFFFFFFFFFFF AND SUB PUSH2 0xDB8 JUMPI PUSH1 0x40 MLOAD PUSH32 0xC5FC4BF400000000000000000000000000000000000000000000000000000000 DUP2 MSTORE PUSH1 0x4 ADD PUSH1 0x40 MLOAD DUP1 SWAP2 SUB SWAP1 REVERT JUMPDEST PUSH0 DUP2 PUSH1 0x40 ADD MLOAD PUSH1 0xFF AND EQ ISZERO SWAP3 POP DUP1 PUSH0 ADD MLOAD SWAP2 POP POP SWAP2 POP SWAP2 JUMP JUMPDEST PUSH0 PUSH0 PUSH0 PUSH0 PUSH0 PUSH0 PUSH0 PUSH0 PUSH0 DUP12 ISZERO PUSH2 0x102C JUMPI PUSH0 DUP12 SWAP1 POP DUP1 PUSH20 0xFFFFFFFFFFFFFFFFFFFFFFFFFFFFFFFFFFFFFFFF AND PUSH4 0xDFE1681 PUSH1 0x40 MLOAD DUP2 PUSH4 0xFFFFFFFF AND PUSH1 0xE0 SHL DUP2 MSTORE PUSH1 0x4 ADD PUSH1 0x20 PUSH1 0x40 MLOAD DUP1 DUP4 SUB DUP2 DUP7 GAS STATICCALL ISZERO DUP1 ISZERO PUSH2 0xE2D JUMPI RETURNDATASIZE PUSH0 PUSH0 RETURNDATACOPY RETURNDATASIZE PUSH0 REVERT JUMPDEST POP POP POP POP PUSH1 0x40 MLOAD RETURNDATASIZE PUSH1 0x1F NOT PUSH1 0x1F DUP3 ADD AND DUP3 ADD DUP1 PUSH1 0x40 MSTORE POP DUP2 ADD SWAP1 PUSH2 0xE51 SWAP2 SWAP1 PUSH2 0x1C26 JUMP JUMPDEST SWAP3 POP DUP1 PUSH20 0xFFFFFFFFFFFFFFFFFFFFFFFFFFFFFFFFFFFFFFFF AND PUSH4 0xD21220A7 PUSH1 0x40 MLOAD DUP2 PUSH4 0xFFFFFFFF AND PUSH1 0xE0 SHL DUP2 MSTORE PUSH1 0x4 ADD PUSH1 0x20 PUSH1 0x40 MLOAD DUP1 DUP4 SUB DUP2 DUP7 GAS STATICCALL ISZERO DUP1 ISZERO PUSH2 0xE9C JUMPI RETURNDATASIZE PUSH0 PUSH0 RETURNDATACOPY RETURNDATASIZE PUSH0 REVERT JUMPDEST POP POP POP POP PUSH1 0x40 MLOAD RETURNDATASIZE PUSH1 0x1F NOT PUSH1 0x1F DUP3 ADD AND DUP3 ADD DUP1 PUSH1 0x40 MSTORE POP DUP2 ADD SWAP1 PUSH2 0xEC0 SWAP2 SWAP1 PUSH2 0x1C26 JUMP JUMPDEST SWAP2 POP PUSH0 DUP2 PUSH20 0xFFFFFFFFFFFFFFFFFFFFFFFFFFFFFFFFFFFFFFFF AND PUSH4 0x3850C7BD PUSH1 0x40 MLOAD DUP2 PUSH4 0xFFFFFFFF AND PUSH1 0xE0 SHL DUP2 MSTORE PUSH1 0x4 ADD PUSH1 0xE0 PUSH1 0x40 MLOAD DUP1 DUP4 SUB DUP2 DUP7 GAS STATICCALL ISZERO DUP1 ISZERO PUSH2 0xF0C JUMPI RETURNDATASIZE PUSH0 PUSH0 RETURNDATACOPY RETURNDATASIZE PUSH0 REVERT JUMPDEST POP POP POP POP PUSH1 0x40 MLOAD RETURNDATASIZE PUSH1 0x1F NOT PUSH1 0x1F DUP3 ADD AND DUP3 ADD DUP1 PUSH1 0x40 MSTORE POP DUP2 ADD SWAP1 PUSH2 0xF30 SWAP2 SWAP1 PUSH2 0x1F7D JUMP JUMPDEST POP POP POP POP POP POP SWAP1 POP PUSH0 DUP3 PUSH20 0xFFFFFFFFFFFFFFFFFFFFFFFFFFFFFFFFFFFFFFFF AND PUSH4 0x1A686502 PUSH1 0x40 MLOAD DUP2 PUSH4 0xFFFFFFFF AND PUSH1 0xE0 SHL DUP2 MSTORE PUSH1 0x4 ADD PUSH1 0x20 PUSH1 0x40 MLOAD DUP1 DUP4 SUB DUP2 DUP7 GAS STATICCALL ISZERO DUP1 ISZERO PUSH2 0xF82 JUMPI RETURNDATASIZE PUSH0 PUSH0 RETURNDATACOPY RETURNDATASIZE PUSH0 REVERT JUMPDEST POP POP POP POP PUSH1 0x40 MLOAD RETURNDATASIZE PUSH1 0x1F NOT PUSH1 0x1F DUP3 ADD AND DUP3 ADD DUP1 PUSH1 0x40 MSTORE POP DUP2 ADD SWAP1 PUSH2 0xFA6 SWAP2 SWAP1 PUSH2 0x205F JUMP JUMPDEST SWAP1 POP PUSH0 PUSH13 0x1000000000000000000000000 SWAP1 POP PUSH2 0xFEC DUP3 PUSH16 0xFFFFFFFFFFFFFFFFFFFFFFFFFFFFFFFF AND DUP3 DUP6 PUSH20 0xFFFFFFFFFFFFFFFFFFFFFFFFFFFFFFFFFFFFFFFF AND PUSH2 0xB68 JUMP JUMPDEST SWAP8 POP PUSH2 0x1021 DUP3 PUSH16 0xFFFFFFFFFFFFFFFFFFFFFFFFFFFFFFFF AND DUP5 PUSH20 0xFFFFFFFFFFFFFFFFFFFFFFFFFFFFFFFFFFFFFFFF AND DUP4 PUSH2 0xB68 JUMP JUMPDEST SWAP7 POP POP POP POP POP PUSH2 0x11AC JUMP JUMPDEST PUSH0 DUP12 SWAP1 POP PUSH0 PUSH0 DUP3 PUSH20 0xFFFFFFFFFFFFFFFFFFFFFFFFFFFFFFFFFFFFFFFF AND PUSH4 0x902F1AC PUSH1 0x40 MLOAD DUP2 PUSH4 0xFFFFFFFF AND PUSH1 0xE0 SHL DUP2 MSTORE PUSH1 0x4 ADD PUSH1 0x60 PUSH1 0x40 MLOAD DUP1 DUP4 SUB DUP2 DUP7 GAS STATICCALL ISZERO DUP1 ISZERO PUSH2 0x107B JUMPI RETURNDATASIZE PUSH0 PUSH0 RETURNDATACOPY RETURNDATASIZE PUSH0 REVERT JUMPDEST POP POP POP POP PUSH1 0x40 MLOAD RETURNDATASIZE PUSH1 0x1F NOT PUSH1 0x1F DUP3 ADD AND DUP3 ADD DUP1 PUSH1 0x40 MSTORE POP DUP2 ADD SWAP1 PUSH2 0x109F SWAP2 SWAP1 PUSH2 0x2106 JUMP JUMPDEST POP SWAP2 POP SWAP2 POP DUP2 PUSH14 0xFFFFFFFFFFFFFFFFFFFFFFFFFFFF AND SWAP7 POP DUP1 PUSH14 0xFFFFFFFFFFFFFFFFFFFFFFFFFFFF AND SWAP6 POP DUP3 PUSH20 0xFFFFFFFFFFFFFFFFFFFFFFFFFFFFFFFFFFFFFFFF AND PUSH4 0xDFE1681 PUSH1 0x40 MLOAD DUP2 PUSH4 0xFFFFFFFF AND PUSH1 0xE0 SHL DUP2 MSTORE PUSH1 0x4 ADD PUSH1 0x20 PUSH1 0x40 MLOAD DUP1 DUP4 SUB DUP2 DUP7 GAS STATICCALL ISZERO DUP1 ISZERO PUSH2 0x1113 JUMPI RETURNDATASIZE PUSH0 PUSH0 RETURNDATACOPY RETURNDATASIZE PUSH0 REVERT JUMPDEST POP POP POP POP PUSH1 0x40 MLOAD RETURNDATASIZE PUSH1 0x1F NOT PUSH1 0x1F DUP3 ADD AND DUP3 ADD DUP1 PUSH1 0x40 MSTORE POP DUP2 ADD SWAP1 PUSH2 0x1137 SWAP2 SWAP1 PUSH2 0x1C26 JUMP JUMPDEST SWAP5 POP DUP3 PUSH20 0xFFFFFFFFFFFFFFFFFFFFFFFFFFFFFFFFFFFFFFFF AND PUSH4 0xD21220A7 PUSH1 0x40 MLOAD DUP2 PUSH4 0xFFFFFFFF AND PUSH1 0xE0 SHL DUP2 MSTORE PUSH1 0x4 ADD PUSH1 0x20 PUSH1 0x40 MLOAD DUP1 DUP4 SUB DUP2 DUP7 GAS STATICCALL ISZERO DUP1 ISZERO PUSH2 0x1182 JUMPI RETURNDATASIZE PUSH0 PUSH0 RETURNDATACOPY RETURNDATASIZE PUSH0 REVERT JUMPDEST POP POP POP POP PUSH1 0x40 MLOAD RETURNDATASIZE PUSH1 0x1F NOT PUSH1 0x1F DUP3 ADD AND DUP3 ADD DUP1 PUSH1 0x40 MSTORE POP DUP2 ADD SWAP1 PUSH2 0x11A6 SWAP2 SWAP1 PUSH2 0x1C26 JUMP JUMPDEST SWAP4 POP POP POP POP JUMPDEST PUSH0 DUP11 PUSH20 0xFFFFFFFFFFFFFFFFFFFFFFFFFFFFFFFFFFFFFFFF AND DUP4 PUSH20 0xFFFFFFFFFFFFFFFFFFFFFFFFFFFFFFFFFFFFFFFF AND SUB PUSH2 0x11E9 JUMPI PUSH1 0x1 SWAP1 POP PUSH2 0x1257 JUMP JUMPDEST DUP11 PUSH20 0xFFFFFFFFFFFFFFFFFFFFFFFFFFFFFFFFFFFFFFFF AND DUP3 PUSH20 0xFFFFFFFFFFFFFFFFFFFFFFFFFFFFFFFFFFFFFFFF AND SUB PUSH2 0x1224 JUMPI PUSH0 SWAP1 POP PUSH2 0x1256 JUMP JUMPDEST PUSH1 0x40 MLOAD PUSH32 0x17B2F78000000000000000000000000000000000000000000000000000000000 DUP2 MSTORE PUSH1 0x4 ADD PUSH1 0x40 MLOAD DUP1 SWAP2 SUB SWAP1 REVERT JUMPDEST JUMPDEST DUP1 PUSH2 0x1262 JUMPI DUP4 PUSH2 0x1264 JUMP JUMPDEST DUP5 JUMPDEST SWAP10 POP DUP1 PUSH2 0x1271 JUMPI DUP5 PUSH2 0x1273 JUMP JUMPDEST DUP4 JUMPDEST SWAP8 POP DUP1 PUSH2 0x1280 JUMPI DUP3 PUSH2 0x1282 JUMP JUMPDEST DUP2 JUMPDEST SWAP6 POP DUP11 PUSH20 0xFFFFFFFFFFFFFFFFFFFFFFFFFFFFFFFFFFFFFFFF AND PUSH4 0x313CE567 PUSH1 0x40 MLOAD DUP2 PUSH4 0xFFFFFFFF AND PUSH1 0xE0 SHL DUP2 MSTORE PUSH1 0x4 ADD PUSH1 0x20 PUSH1 0x40 MLOAD DUP1 DUP4 SUB DUP2 DUP7 GAS STATICCALL ISZERO DUP1 ISZERO PUSH2 0x12CD JUMPI RETURNDATASIZE PUSH0 PUSH0 RETURNDATACOPY RETURNDATASIZE PUSH0 REVERT JUMPDEST POP POP POP POP PUSH1 0x40 MLOAD RETURNDATASIZE PUSH1 0x1F NOT PUSH1 0x1F DUP3 ADD AND DUP3 ADD DUP1 PUSH1 0x40 MSTORE POP DUP2 ADD SWAP1 PUSH2 0x12F1 SWAP2 SWAP1 PUSH2 0x1C7B JUMP JUMPDEST SWAP9 POP DUP6 PUSH20 0xFFFFFFFFFFFFFFFFFFFFFFFFFFFFFFFFFFFFFFFF AND PUSH4 0x313CE567 PUSH1 0x40 MLOAD DUP2 PUSH4 0xFFFFFFFF AND PUSH1 0xE0 SHL DUP2 MSTORE PUSH1 0x4 ADD PUSH1 0x20 PUSH1 0x40 MLOAD DUP1 DUP4 SUB DUP2 DUP7 GAS STATICCALL ISZERO DUP1 ISZERO PUSH2 0x133C JUMPI RETURNDATASIZE PUSH0 PUSH0 RETURNDATACOPY RETURNDATASIZE PUSH0 REVERT JUMPDEST POP POP POP POP PUSH1 0x40 MLOAD RETURNDATASIZE PUSH1 0x1F NOT PUSH1 0x1F DUP3 ADD AND DUP3 ADD DUP1 PUSH1 0x40 MSTORE POP DUP2 ADD SWAP1 PUSH2 0x1360 SWAP2 SWAP1 PUSH2 0x1C7B JUMP JUMPDEST SWAP7 POP POP POP POP POP POP SWAP4 SWAP8 SWAP3 SWAP7 POP SWAP4 POP SWAP4 POP JUMP JUMPDEST PUSH0 PUSH0 DUP6 EQ DUP1 PUSH2 0x1380 JUMPI POP PUSH0 DUP4 EQ JUMPDEST ISZERO PUSH2 0x13B7 JUMPI PUSH1 0x40 MLOAD PUSH32 0x8B4A713E00000000000000000000000000000000000000000000000000000000 DUP2 MSTORE PUSH1 0x4 ADD PUSH1 0x40 MLOAD DUP1 SWAP2 SUB SWAP1 REVERT JUMPDEST PUSH0 DUP5 PUSH1 0xFF AND DUP4 PUSH1 0xFF AND LT PUSH2 0x13E1 JUMPI PUSH2 0x13D0 DUP6 DUP5 SUB PUSH2 0x15D5 JUMP JUMPDEST PUSH8 0xDE0B6B3A7640000 MUL SWAP1 POP PUSH2 0x140D JUMP JUMPDEST PUSH0 PUSH2 0x13ED DUP5 DUP8 SUB PUSH2 0x15D5 JUMP JUMPDEST DUP6 MUL SWAP1 POP PUSH2 0x1404 DUP8 PUSH8 0xDE0B6B3A7640000 DUP4 PUSH2 0xB68 JUMP JUMPDEST SWAP3 POP POP POP PUSH2 0x141C JUMP JUMPDEST PUSH2 0x1418 DUP7 DUP3 DUP7 PUSH2 0xB68 JUMP JUMPDEST SWAP2 POP POP JUMPDEST SWAP5 SWAP4 POP POP POP POP JUMP JUMPDEST PUSH0 PUSH20 0xFFFFFFFFFFFFFFFFFFFFFFFFFFFFFFFFFFFFFFFF AND DUP2 PUSH20 0xFFFFFFFFFFFFFFFFFFFFFFFFFFFFFFFFFFFFFFFF AND SUB PUSH2 0x1492 JUMPI PUSH1 0x40 MLOAD PUSH32 0x8C379A000000000000000000000000000000000000000000000000000000000 DUP2 MSTORE PUSH1 0x4 ADD PUSH2 0x1489 SWAP1 PUSH2 0x21A0 JUMP JUMPDEST PUSH1 0x40 MLOAD DUP1 SWAP2 SUB SWAP1 REVERT JUMPDEST PUSH0 DUP2 PUSH20 0xFFFFFFFFFFFFFFFFFFFFFFFFFFFFFFFFFFFFFFFF AND EXTCODESIZE GT PUSH2 0x14EB JUMPI PUSH1 0x40 MLOAD PUSH32 0x8C379A000000000000000000000000000000000000000000000000000000000 DUP2 MSTORE PUSH1 0x4 ADD PUSH2 0x14E2 SWAP1 PUSH2 0x2208 JUMP JUMPDEST PUSH1 0x40 MLOAD DUP1 SWAP2 SUB SWAP1 REVERT JUMPDEST DUP1 PUSH20 0xFFFFFFFFFFFFFFFFFFFFFFFFFFFFFFFFFFFFFFFF AND PUSH4 0x8DA5CB5B PUSH1 0x40 MLOAD DUP2 PUSH4 0xFFFFFFFF AND PUSH1 0xE0 SHL DUP2 MSTORE PUSH1 0x4 ADD PUSH1 0x20 PUSH1 0x40 MLOAD DUP1 DUP4 SUB DUP2 DUP7 GAS STATICCALL SWAP3 POP POP POP DUP1 ISZERO PUSH2 0x1553 JUMPI POP PUSH1 0x40 MLOAD RETURNDATASIZE PUSH1 0x1F NOT PUSH1 0x1F DUP3 ADD AND DUP3 ADD DUP1 PUSH1 0x40 MSTORE POP DUP2 ADD SWAP1 PUSH2 0x1550 SWAP2 SWAP1 PUSH2 0x1C26 JUMP JUMPDEST PUSH1 0x1 JUMPDEST PUSH2 0x1592 JUMPI PUSH1 0x40 MLOAD PUSH32 0x8C379A000000000000000000000000000000000000000000000000000000000 DUP2 MSTORE PUSH1 0x4 ADD PUSH2 0x1589 SWAP1 PUSH2 0x2296 JUMP JUMPDEST PUSH1 0x40 MLOAD DUP1 SWAP2 SUB SWAP1 REVERT JUMPDEST DUP2 PUSH0 PUSH0 PUSH2 0x100 EXP DUP2 SLOAD DUP2 PUSH20 0xFFFFFFFFFFFFFFFFFFFFFFFFFFFFFFFFFFFFFFFF MUL NOT AND SWAP1 DUP4 PUSH20 0xFFFFFFFFFFFFFFFFFFFFFFFFFFFFFFFFFFFFFFFF AND MUL OR SWAP1 SSTORE POP POP POP JUMP JUMPDEST PUSH0 PUSH0 DUP3 PUSH1 0xFF AND SUB PUSH2 0x15E9 JUMPI PUSH1 0x1 SWAP1 POP PUSH2 0x1780 JUMP JUMPDEST PUSH1 0x1 DUP3 PUSH1 0xFF AND SUB PUSH2 0x15FD JUMPI PUSH1 0xA SWAP1 POP PUSH2 0x1780 JUMP JUMPDEST PUSH1 0x2 DUP3 PUSH1 0xFF AND SUB PUSH2 0x1611 JUMPI PUSH1 0x64 SWAP1 POP PUSH2 0x1780 JUMP JUMPDEST PUSH1 0x3 DUP3 PUSH1 0xFF AND SUB PUSH2 0x1626 JUMPI PUSH2 0x3E8 SWAP1 POP PUSH2 0x1780 JUMP JUMPDEST PUSH1 0x4 DUP3 PUSH1 0xFF AND SUB PUSH2 0x163B JUMPI PUSH2 0x2710 SWAP1 POP PUSH2 0x1780 JUMP JUMPDEST PUSH1 0x5 DUP3 PUSH1 0xFF AND SUB PUSH2 0x1651 JUMPI PUSH3 0x186A0 SWAP1 POP PUSH2 0x1780 JUMP JUMPDEST PUSH1 0x6 DUP3 PUSH1 0xFF AND SUB PUSH2 0x1667 JUMPI PUSH3 0xF4240 SWAP1 POP PUSH2 0x1780 JUMP JUMPDEST PUSH1 0x7 DUP3 PUSH1 0xFF AND SUB PUSH2 0x167D JUMPI PUSH3 0x989680 SWAP1 POP PUSH2 0x1780 JUMP JUMPDEST PUSH1 0x8 DUP3 PUSH1 0xFF AND SUB PUSH2 0x1694 JUMPI PUSH4 0x5F5E100 SWAP1 POP PUSH2 0x1780 JUMP JUMPDEST PUSH1 0x9 DUP3 PUSH1 0xFF AND SUB PUSH2 0x16AB JUMPI PUSH4 0x3B9ACA00 SWAP1 POP PUSH2 0x1780 JUMP JUMPDEST PUSH1 0xA DUP3 PUSH1 0xFF AND SUB PUSH2 0x16C3 JUMPI PUSH5 0x2540BE400 SWAP1 POP PUSH2 0x1780 JUMP JUMPDEST PUSH1 0xB DUP3 PUSH1 0xFF AND SUB PUSH2 0x16DB JUMPI PUSH5 0x174876E800 SWAP1 POP PUSH2 0x1780 JUMP JUMPDEST PUSH1 0xC DUP3 PUSH1 0xFF AND SUB PUSH2 0x16F3 JUMPI PUSH5 0xE8D4A51000 SWAP1 POP PUSH2 0x1780 JUMP JUMPDEST PUSH1 0xD DUP3 PUSH1 0xFF AND SUB PUSH2 0x170C JUMPI PUSH6 0x9184E72A000 SWAP1 POP PUSH2 0x1780 JUMP JUMPDEST PUSH1 0xE DUP3 PUSH1 0xFF AND SUB PUSH2 0x1725 JUMPI PUSH6 0x5AF3107A4000 SWAP1 POP PUSH2 0x1780 JUMP JUMPDEST PUSH1 0xF DUP3 PUSH1 0xFF AND SUB PUSH2 0x173F JUMPI PUSH7 0x38D7EA4C68000 SWAP1 POP PUSH2 0x1780 JUMP JUMPDEST PUSH1 0x10 DUP3 PUSH1 0xFF AND SUB PUSH2 0x1759 JUMPI PUSH7 0x2386F26FC10000 SWAP1 POP PUSH2 0x1780 JUMP JUMPDEST PUSH1 0x11 DUP3 PUSH1 0xFF AND SUB PUSH2 0x1774 JUMPI PUSH8 0x16345785D8A0000 SWAP1 POP PUSH2 0x1780 JUMP JUMPDEST PUSH8 0xDE0B6B3A7640000 SWAP1 POP JUMPDEST SWAP2 SWAP1 POP JUMP JUMPDEST PUSH0 PUSH2 0x17C4 PUSH1 0x40 MLOAD DUP1 PUSH1 0x40 ADD PUSH1 0x40 MSTORE DUP1 PUSH1 0xB DUP2 MSTORE PUSH1 0x20 ADD PUSH32 0x706F6F6C2D66696E646572000000000000000000000000000000000000000000 DUP2 MSTORE POP PUSH2 0x57D JUMP JUMPDEST SWAP1 POP SWAP1 JUMP JUMPDEST PUSH0 PUSH1 0x40 MLOAD SWAP1 POP SWAP1 JUMP JUMPDEST PUSH0 PUSH0 REVERT JUMPDEST PUSH0 PUSH0 REVERT JUMPDEST PUSH0 PUSH20 0xFFFFFFFFFFFFFFFFFFFFFFFFFFFFFFFFFFFFFFFF DUP3 AND SWAP1 POP SWAP2 SWAP1 POP JUMP JUMPDEST PUSH0 PUSH2 0x1803 DUP3 PUSH2 0x17DA JUMP JUMPDEST SWAP1 POP SWAP2 SWAP1 POP JUMP JUMPDEST PUSH2 0x1813 DUP2 PUSH2 0x17F9 JUMP JUMPDEST DUP2 EQ PUSH2 0x181D JUMPI PUSH0 PUSH0 REVERT JUMPDEST POP JUMP JUMPDEST PUSH0 DUP2 CALLDATALOAD SWAP1 POP PUSH2 0x182E DUP2 PUSH2 0x180A JUMP JUMPDEST SWAP3 SWAP2 POP POP JUMP JUMPDEST PUSH0 PUSH1 0x20 DUP3 DUP5 SUB SLT ISZERO PUSH2 0x1849 JUMPI PUSH2 0x1848 PUSH2 0x17D2 JUMP JUMPDEST JUMPDEST PUSH0 PUSH2 0x1856 DUP5 DUP3 DUP6 ADD PUSH2 0x1820 JUMP JUMPDEST SWAP2 POP POP SWAP3 SWAP2 POP POP JUMP JUMPDEST PUSH0 DUP2 SWAP1 POP SWAP2 SWAP1 POP JUMP JUMPDEST PUSH2 0x1871 DUP2 PUSH2 0x185F JUMP JUMPDEST DUP3 MSTORE POP POP JUMP JUMPDEST PUSH0 PUSH1 0x20 DUP3 ADD SWAP1 POP PUSH2 0x188A PUSH0 DUP4 ADD DUP5 PUSH2 0x1868 JUMP JUMPDEST SWAP3 SWAP2 POP POP JUMP JUMPDEST PUSH2 0x1899 DUP2 PUSH2 0x17F9 JUMP JUMPDEST DUP3 MSTORE POP POP JUMP JUMPDEST PUSH0 PUSH1 0x20 DUP3 ADD SWAP1 POP PUSH2 0x18B2 PUSH0 DUP4 ADD DUP5 PUSH2 0x1890 JUMP JUMPDEST SWAP3 SWAP2 POP POP JUMP JUMPDEST PUSH0 PUSH0 REVERT JUMPDEST PUSH0 PUSH0 REVERT JUMPDEST PUSH0 PUSH1 0x1F NOT PUSH1 0x1F DUP4 ADD AND SWAP1 POP SWAP2 SWAP1 POP JUMP JUMPDEST PUSH32 0x4E487B7100000000000000000000000000000000000000000000000000000000 PUSH0 MSTORE PUSH1 0x41 PUSH1 0x4 MSTORE PUSH1 0x24 PUSH0 REVERT JUMPDEST PUSH2 0x1906 DUP3 PUSH2 0x18C0 JUMP JUMPDEST DUP2 ADD DUP2 DUP2 LT PUSH8 0xFFFFFFFFFFFFFFFF DUP3 GT OR ISZERO PUSH2 0x1925 JUMPI PUSH2 0x1924 PUSH2 0x18D0 JUMP JUMPDEST JUMPDEST DUP1 PUSH1 0x40 MSTORE POP POP POP JUMP JUMPDEST PUSH0 PUSH2 0x1937 PUSH2 0x17C9 JUMP JUMPDEST SWAP1 POP PUSH2 0x1943 DUP3 DUP3 PUSH2 0x18FD JUMP JUMPDEST SWAP2 SWAP1 POP JUMP JUMPDEST PUSH0 PUSH8 0xFFFFFFFFFFFFFFFF DUP3 GT ISZERO PUSH2 0x1962 JUMPI PUSH2 0x1961 PUSH2 0x18D0 JUMP JUMPDEST JUMPDEST PUSH2 0x196B DUP3 PUSH2 0x18C0 JUMP JUMPDEST SWAP1 POP PUSH1 0x20 DUP2 ADD SWAP1 POP SWAP2 SWAP1 POP JUMP JUMPDEST DUP3 DUP2 DUP4 CALLDATACOPY PUSH0 DUP4 DUP4 ADD MSTORE POP POP POP JUMP JUMPDEST PUSH0 PUSH2 0x1998 PUSH2 0x1993 DUP5 PUSH2 0x1948 JUMP JUMPDEST PUSH2 0x192E JUMP JUMPDEST SWAP1 POP DUP3 DUP2 MSTORE PUSH1 0x20 DUP2 ADD DUP5 DUP5 DUP5 ADD GT ISZERO PUSH2 0x19B4 JUMPI PUSH2 0x19B3 PUSH2 0x18BC JUMP JUMPDEST JUMPDEST PUSH2 0x19BF DUP5 DUP3 DUP6 PUSH2 0x1978 JUMP JUMPDEST POP SWAP4 SWAP3 POP POP POP JUMP JUMPDEST PUSH0 DUP3 PUSH1 0x1F DUP4 ADD SLT PUSH2 0x19DB JUMPI PUSH2 0x19DA PUSH2 0x18B8 JUMP JUMPDEST JUMPDEST DUP2 CALLDATALOAD PUSH2 0x19EB DUP5 DUP3 PUSH1 0x20 DUP7 ADD PUSH2 0x1986 JUMP JUMPDEST SWAP2 POP POP SWAP3 SWAP2 POP POP JUMP JUMPDEST PUSH0 PUSH1 0x20 DUP3 DUP5 SUB SLT ISZERO PUSH2 0x1A09 JUMPI PUSH2 0x1A08 PUSH2 0x17D2 JUMP JUMPDEST JUMPDEST PUSH0 DUP3 ADD CALLDATALOAD PUSH8 0xFFFFFFFFFFFFFFFF DUP2 GT ISZERO PUSH2 0x1A26 JUMPI PUSH2 0x1A25 PUSH2 0x17D6 JUMP JUMPDEST JUMPDEST PUSH2 0x1A32 DUP5 DUP3 DUP6 ADD PUSH2 0x19C7 JUMP JUMPDEST SWAP2 POP POP SWAP3 SWAP2 POP POP JUMP JUMPDEST PUSH0 DUP2 ISZERO ISZERO SWAP1 POP SWAP2 SWAP1 POP JUMP JUMPDEST PUSH2 0x1A4F DUP2 PUSH2 0x1A3B JUMP JUMPDEST DUP3 MSTORE POP POP JUMP JUMPDEST PUSH0 PUSH1 0x20 DUP3 ADD SWAP1 POP PUSH2 0x1A68 PUSH0 DUP4 ADD DUP5 PUSH2 0x1A46 JUMP JUMPDEST SWAP3 SWAP2 POP POP JUMP JUMPDEST PUSH0 DUP2 SWAP1 POP SWAP2 SWAP1 POP JUMP JUMPDEST PUSH0 PUSH2 0x1A91 PUSH2 0x1A8C PUSH2 0x1A87 DUP5 PUSH2 0x17DA JUMP JUMPDEST PUSH2 0x1A6E JUMP JUMPDEST PUSH2 0x17DA JUMP JUMPDEST SWAP1 POP SWAP2 SWAP1 POP JUMP JUMPDEST PUSH0 PUSH2 0x1AA2 DUP3 PUSH2 0x1A77 JUMP JUMPDEST SWAP1 POP SWAP2 SWAP1 POP JUMP JUMPDEST PUSH0 PUSH2 0x1AB3 DUP3 PUSH2 0x1A98 JUMP JUMPDEST SWAP1 POP SWAP2 SWAP1 POP JUMP JUMPDEST PUSH2 0x1AC3 DUP2 PUSH2 0x1AA9 JUMP JUMPDEST DUP3 MSTORE POP POP JUMP JUMPDEST PUSH0 PUSH1 0x20 DUP3 ADD SWAP1 POP PUSH2 0x1ADC PUSH0 DUP4 ADD DUP5 PUSH2 0x1ABA JUMP JUMPDEST SWAP3 SWAP2 POP POP JUMP JUMPDEST PUSH0 PUSH1 0x40 DUP3 ADD SWAP1 POP PUSH2 0x1AF5 PUSH0 DUP4 ADD DUP6 PUSH2 0x1A46 JUMP JUMPDEST PUSH2 0x1B02 PUSH1 0x20 DUP4 ADD DUP5 PUSH2 0x1890 JUMP JUMPDEST SWAP4 SWAP3 POP POP POP JUMP JUMPDEST PUSH0 PUSH1 0xFF DUP3 AND SWAP1 POP SWAP2 SWAP1 POP JUMP JUMPDEST PUSH2 0x1B1E DUP2 PUSH2 0x1B09 JUMP JUMPDEST DUP3 MSTORE POP POP JUMP JUMPDEST PUSH0 PUSH1 0x20 DUP3 ADD SWAP1 POP PUSH2 0x1B37 PUSH0 DUP4 ADD DUP5 PUSH2 0x1B15 JUMP JUMPDEST SWAP3 SWAP2 POP POP JUMP JUMPDEST PUSH2 0x1B46 DUP2 PUSH2 0x185F JUMP JUMPDEST DUP2 EQ PUSH2 0x1B50 JUMPI PUSH0 PUSH0 REVERT JUMPDEST POP JUMP JUMPDEST PUSH0 DUP2 MLOAD SWAP1 POP PUSH2 0x1B61 DUP2 PUSH2 0x1B3D JUMP JUMPDEST SWAP3 SWAP2 POP POP JUMP JUMPDEST PUSH0 PUSH1 0x20 DUP3 DUP5 SUB SLT ISZERO PUSH2 0x1B7C JUMPI PUSH2 0x1B7B PUSH2 0x17D2 JUMP JUMPDEST JUMPDEST PUSH0 PUSH2 0x1B89 DUP5 DUP3 DUP6 ADD PUSH2 0x1B53 JUMP JUMPDEST SWAP2 POP POP SWAP3 SWAP2 POP POP JUMP JUMPDEST PUSH0 DUP2 MLOAD SWAP1 POP SWAP2 SWAP1 POP JUMP JUMPDEST PUSH0 DUP3 DUP3 MSTORE PUSH1 0x20 DUP3 ADD SWAP1 POP SWAP3 SWAP2 POP POP JUMP JUMPDEST DUP3 DUP2 DUP4 MCOPY PUSH0 DUP4 DUP4 ADD MSTORE POP POP POP JUMP JUMPDEST PUSH0 PUSH2 0x1BC4 DUP3 PUSH2 0x1B92 JUMP JUMPDEST PUSH2 0x1BCE DUP2 DUP6 PUSH2 0x1B9C JUMP JUMPDEST SWAP4 POP PUSH2 0x1BDE DUP2 DUP6 PUSH1 0x20 DUP7 ADD PUSH2 0x1BAC JUMP JUMPDEST PUSH2 0x1BE7 DUP2 PUSH2 0x18C0 JUMP JUMPDEST DUP5 ADD SWAP2 POP POP SWAP3 SWAP2 POP POP JUMP JUMPDEST PUSH0 PUSH1 0x20 DUP3 ADD SWAP1 POP DUP2 DUP2 SUB PUSH0 DUP4 ADD MSTORE PUSH2 0x1C0A DUP2 DUP5 PUSH2 0x1BBA JUMP JUMPDEST SWAP1 POP SWAP3 SWAP2 POP POP JUMP JUMPDEST PUSH0 DUP2 MLOAD SWAP1 POP PUSH2 0x1C20 DUP2 PUSH2 0x180A JUMP JUMPDEST SWAP3 SWAP2 POP POP JUMP JUMPDEST PUSH0 PUSH1 0x20 DUP3 DUP5 SUB SLT ISZERO PUSH2 0x1C3B JUMPI PUSH2 0x1C3A PUSH2 0x17D2 JUMP JUMPDEST JUMPDEST PUSH0 PUSH2 0x1C48 DUP5 DUP3 DUP6 ADD PUSH2 0x1C12 JUMP JUMPDEST SWAP2 POP POP SWAP3 SWAP2 POP POP JUMP JUMPDEST PUSH2 0x1C5A DUP2 PUSH2 0x1B09 JUMP JUMPDEST DUP2 EQ PUSH2 0x1C64 JUMPI PUSH0 PUSH0 REVERT JUMPDEST POP JUMP JUMPDEST PUSH0 DUP2 MLOAD SWAP1 POP PUSH2 0x1C75 DUP2 PUSH2 0x1C51 JUMP JUMPDEST SWAP3 SWAP2 POP POP JUMP JUMPDEST PUSH0 PUSH1 0x20 DUP3 DUP5 SUB SLT ISZERO PUSH2 0x1C90 JUMPI PUSH2 0x1C8F PUSH2 0x17D2 JUMP JUMPDEST JUMPDEST PUSH0 PUSH2 0x1C9D DUP5 DUP3 DUP6 ADD PUSH2 0x1C67 JUMP JUMPDEST SWAP2 POP POP SWAP3 SWAP2 POP POP JUMP JUMPDEST PUSH32 0x43616C6C6572206973206E6F7420746865206F776E6572000000000000000000 PUSH0 DUP3 ADD MSTORE POP JUMP JUMPDEST PUSH0 PUSH2 0x1CDA PUSH1 0x17 DUP4 PUSH2 0x1B9C JUMP JUMPDEST SWAP2 POP PUSH2 0x1CE5 DUP3 PUSH2 0x1CA6 JUMP JUMPDEST PUSH1 0x20 DUP3 ADD SWAP1 POP SWAP2 SWAP1 POP JUMP JUMPDEST PUSH0 PUSH1 0x20 DUP3 ADD SWAP1 POP DUP2 DUP2 SUB PUSH0 DUP4 ADD MSTORE PUSH2 0x1D07 DUP2 PUSH2 0x1CCE JUMP JUMPDEST SWAP1 POP SWAP2 SWAP1 POP JUMP JUMPDEST PUSH32 0x4E487B7100000000000000000000000000000000000000000000000000000000 PUSH0 MSTORE PUSH1 0x12 PUSH1 0x4 MSTORE PUSH1 0x24 PUSH0 REVERT JUMPDEST PUSH32 0x6D756C446976206F766572666C6F770000000000000000000000000000000000 PUSH0 DUP3 ADD MSTORE POP JUMP JUMPDEST PUSH0 PUSH2 0x1D6F PUSH1 0xF DUP4 PUSH2 0x1B9C JUMP JUMPDEST SWAP2 POP PUSH2 0x1D7A DUP3 PUSH2 0x1D3B JUMP JUMPDEST PUSH1 0x20 DUP3 ADD SWAP1 POP SWAP2 SWAP1 POP JUMP JUMPDEST PUSH0 PUSH1 0x20 DUP3 ADD SWAP1 POP DUP2 DUP2 SUB PUSH0 DUP4 ADD MSTORE PUSH2 0x1D9C DUP2 PUSH2 0x1D63 JUMP JUMPDEST SWAP1 POP SWAP2 SWAP1 POP JUMP JUMPDEST PUSH0 PUSH0 REVERT JUMPDEST PUSH0 PUSH3 0xFFFFFF DUP3 AND SWAP1 POP SWAP2 SWAP1 POP JUMP JUMPDEST PUSH2 0x1DBE DUP2 PUSH2 0x1DA7 JUMP JUMPDEST DUP2 EQ PUSH2 0x1DC8 JUMPI PUSH0 PUSH0 REVERT JUMPDEST POP JUMP JUMPDEST PUSH0 DUP2 MLOAD SWAP1 POP PUSH2 0x1DD9 DUP2 PUSH2 0x1DB5 JUMP JUMPDEST SWAP3 SWAP2 POP POP JUMP JUMPDEST PUSH0 PUSH8 0xFFFFFFFFFFFFFFFF DUP3 AND SWAP1 POP SWAP2 SWAP1 POP JUMP JUMPDEST PUSH2 0x1DFB DUP2 PUSH2 0x1DDF JUMP JUMPDEST DUP2 EQ PUSH2 0x1E05 JUMPI PUSH0 PUSH0 REVERT JUMPDEST POP JUMP JUMPDEST PUSH0 DUP2 MLOAD SWAP1 POP PUSH2 0x1E16 DUP2 PUSH2 0x1DF2 JUMP JUMPDEST SWAP3 SWAP2 POP POP JUMP JUMPDEST PUSH0 PUSH1 0x80 DUP3 DUP5 SUB SLT ISZERO PUSH2 0x1E31 JUMPI PUSH2 0x1E30 PUSH2 0x1DA3 JUMP JUMPDEST JUMPDEST PUSH2 0x1E3B PUSH1 0x80 PUSH2 0x192E JUMP JUMPDEST SWAP1 POP PUSH0 PUSH2 0x1E4A DUP5 DUP3 DUP6 ADD PUSH2 0x1C12 JUMP JUMPDEST PUSH0 DUP4 ADD MSTORE POP PUSH1 0x20 PUSH2 0x1E5D DUP5 DUP3 DUP6 ADD PUSH2 0x1DCB JUMP JUMPDEST PUSH1 0x20 DUP4 ADD MSTORE POP PUSH1 0x40 PUSH2 0x1E71 DUP5 DUP3 DUP6 ADD PUSH2 0x1C67 JUMP JUMPDEST PUSH1 0x40 DUP4 ADD MSTORE POP PUSH1 0x60 PUSH2 0x1E85 DUP5 DUP3 DUP6 ADD PUSH2 0x1E08 JUMP JUMPDEST PUSH1 0x60 DUP4 ADD MSTORE POP SWAP3 SWAP2 POP POP JUMP JUMPDEST PUSH0 PUSH1 0x80 DUP3 DUP5 SUB SLT ISZERO PUSH2 0x1EA6 JUMPI PUSH2 0x1EA5 PUSH2 0x17D2 JUMP JUMPDEST JUMPDEST PUSH0 PUSH2 0x1EB3 DUP5 DUP3 DUP6 ADD PUSH2 0x1E1C JUMP JUMPDEST SWAP2 POP POP SWAP3 SWAP2 POP POP JUMP JUMPDEST PUSH2 0x1EC5 DUP2 PUSH2 0x17DA JUMP JUMPDEST DUP2 EQ PUSH2 0x1ECF JUMPI PUSH0 PUSH0 REVERT JUMPDEST POP JUMP JUMPDEST PUSH0 DUP2 MLOAD SWAP1 POP PUSH2 0x1EE0 DUP2 PUSH2 0x1EBC JUMP JUMPDEST SWAP3 SWAP2 POP POP JUMP JUMPDEST PUSH0 DUP2 PUSH1 0x2 SIGNEXTEND SWAP1 POP SWAP2 SWAP1 POP JUMP JUMPDEST PUSH2 0x1EFB DUP2 PUSH2 0x1EE6 JUMP JUMPDEST DUP2 EQ PUSH2 0x1F05 JUMPI PUSH0 PUSH0 REVERT JUMPDEST POP JUMP JUMPDEST PUSH0 DUP2 MLOAD SWAP1 POP PUSH2 0x1F16 DUP2 PUSH2 0x1EF2 JUMP JUMPDEST SWAP3 SWAP2 POP POP JUMP JUMPDEST PUSH0 PUSH2 0xFFFF DUP3 AND SWAP1 POP SWAP2 SWAP1 POP JUMP JUMPDEST PUSH2 0x1F32 DUP2 PUSH2 0x1F1C JUMP JUMPDEST DUP2 EQ PUSH2 0x1F3C JUMPI PUSH0 PUSH0 REVERT JUMPDEST POP JUMP JUMPDEST PUSH0 DUP2 MLOAD SWAP1 POP PUSH2 0x1F4D DUP2 PUSH2 0x1F29 JUMP JUMPDEST SWAP3 SWAP2 POP POP JUMP JUMPDEST PUSH2 0x1F5C DUP2 PUSH2 0x1A3B JUMP JUMPDEST DUP2 EQ PUSH2 0x1F66 JUMPI PUSH0 PUSH0 REVERT JUMPDEST POP JUMP JUMPDEST PUSH0 DUP2 MLOAD SWAP1 POP PUSH2 0x1F77 DUP2 PUSH2 0x1F53 JUMP JUMPDEST SWAP3 SWAP2 POP POP JUMP JUMPDEST PUSH0 PUSH0 PUSH0 PUSH0 PUSH0 PUSH0 PUSH0 PUSH1 0xE0 DUP9 DUP11 SUB SLT ISZERO PUSH2 0x1F98 JUMPI PUSH2 0x1F97 PUSH2 0x17D2 JUMP JUMPDEST JUMPDEST PUSH0 PUSH2 0x1FA5 DUP11 DUP3 DUP12 ADD PUSH2 0x1ED2 JUMP JUMPDEST SWAP8 POP POP PUSH1 0x20 PUSH2 0x1FB6 DUP11 DUP3 DUP12 ADD PUSH2 0x1F08 JUMP JUMPDEST SWAP7 POP POP PUSH1 0x40 PUSH2 0x1FC7 DUP11 DUP3 DUP12 ADD PUSH2 0x1F3F JUMP JUMPDEST SWAP6 POP POP PUSH1 0x60 PUSH2 0x1FD8 DUP11 DUP3 DUP12 ADD PUSH2 0x1F3F JUMP JUMPDEST SWAP5 POP POP PUSH1 0x80 PUSH2 0x1FE9 DUP11 DUP3 DUP12 ADD PUSH2 0x1F3F JUMP JUMPDEST SWAP4 POP POP PUSH1 0xA0 PUSH2 0x1FFA DUP11 DUP3 DUP12 ADD PUSH2 0x1C67 JUMP JUMPDEST SWAP3 POP POP PUSH1 0xC0 PUSH2 0x200B DUP11 DUP3 DUP12 ADD PUSH2 0x1F69 JUMP JUMPDEST SWAP2 POP POP SWAP3 SWAP6 SWAP9 SWAP2 SWAP5 SWAP8 POP SWAP3 SWAP6 POP JUMP JUMPDEST PUSH0 PUSH16 0xFFFFFFFFFFFFFFFFFFFFFFFFFFFFFFFF DUP3 AND SWAP1 POP SWAP2 SWAP1 POP JUMP JUMPDEST PUSH2 0x203E DUP2 PUSH2 0x201A JUMP JUMPDEST DUP2 EQ PUSH2 0x2048 JUMPI PUSH0 PUSH0 REVERT JUMPDEST POP JUMP JUMPDEST PUSH0 DUP2 MLOAD SWAP1 POP PUSH2 0x2059 DUP2 PUSH2 0x2035 JUMP JUMPDEST SWAP3 SWAP2 POP POP JUMP JUMPDEST PUSH0 PUSH1 0x20 DUP3 DUP5 SUB SLT ISZERO PUSH2 0x2074 JUMPI PUSH2 0x2073 PUSH2 0x17D2 JUMP JUMPDEST JUMPDEST PUSH0 PUSH2 0x2081 DUP5 DUP3 DUP6 ADD PUSH2 0x204B JUMP JUMPDEST SWAP2 POP POP SWAP3 SWAP2 POP POP JUMP JUMPDEST PUSH0 PUSH14 0xFFFFFFFFFFFFFFFFFFFFFFFFFFFF DUP3 AND SWAP1 POP SWAP2 SWAP1 POP JUMP JUMPDEST PUSH2 0x20AC DUP2 PUSH2 0x208A JUMP JUMPDEST DUP2 EQ PUSH2 0x20B6 JUMPI PUSH0 PUSH0 REVERT JUMPDEST POP JUMP JUMPDEST PUSH0 DUP2 MLOAD SWAP1 POP PUSH2 0x20C7 DUP2 PUSH2 0x20A3 JUMP JUMPDEST SWAP3 SWAP2 POP POP JUMP JUMPDEST PUSH0 PUSH4 0xFFFFFFFF DUP3 AND SWAP1 POP SWAP2 SWAP1 POP JUMP JUMPDEST PUSH2 0x20E5 DUP2 PUSH2 0x20CD JUMP JUMPDEST DUP2 EQ PUSH2 0x20EF JUMPI PUSH0 PUSH0 REVERT JUMPDEST POP JUMP JUMPDEST PUSH0 DUP2 MLOAD SWAP1 POP PUSH2 0x2100 DUP2 PUSH2 0x20DC JUMP JUMPDEST SWAP3 SWAP2 POP POP JUMP JUMPDEST PUSH0 PUSH0 PUSH0 PUSH1 0x60 DUP5 DUP7 SUB SLT ISZERO PUSH2 0x211D JUMPI PUSH2 0x211C PUSH2 0x17D2 JUMP JUMPDEST JUMPDEST PUSH0 PUSH2 0x212A DUP7 DUP3 DUP8 ADD PUSH2 0x20B9 JUMP JUMPDEST SWAP4 POP POP PUSH1 0x20 PUSH2 0x213B DUP7 DUP3 DUP8 ADD PUSH2 0x20B9 JUMP JUMPDEST SWAP3 POP POP PUSH1 0x40 PUSH2 0x214C DUP7 DUP3 DUP8 ADD PUSH2 0x20F2 JUMP JUMPDEST SWAP2 POP POP SWAP3 POP SWAP3 POP SWAP3 JUMP JUMPDEST PUSH32 0x4469726563746F72792063616E6E6F74206265207A65726F2061646472657373 PUSH0 DUP3 ADD MSTORE POP JUMP JUMPDEST PUSH0 PUSH2 0x218A PUSH1 0x20 DUP4 PUSH2 0x1B9C JUMP JUMPDEST SWAP2 POP PUSH2 0x2195 DUP3 PUSH2 0x2156 JUMP JUMPDEST PUSH1 0x20 DUP3 ADD SWAP1 POP SWAP2 SWAP1 POP JUMP JUMPDEST PUSH0 PUSH1 0x20 DUP3 ADD SWAP1 POP DUP2 DUP2 SUB PUSH0 DUP4 ADD MSTORE PUSH2 0x21B7 DUP2 PUSH2 0x217E JUMP JUMPDEST SWAP1 POP SWAP2 SWAP1 POP JUMP JUMPDEST PUSH32 0x4469726563746F7279206D757374206265206120636F6E747261637400000000 PUSH0 DUP3 ADD MSTORE POP JUMP JUMPDEST PUSH0 PUSH2 0x21F2 PUSH1 0x1C DUP4 PUSH2 0x1B9C JUMP JUMPDEST SWAP2 POP PUSH2 0x21FD DUP3 PUSH2 0x21BE JUMP JUMPDEST PUSH1 0x20 DUP3 ADD SWAP1 POP SWAP2 SWAP1 POP JUMP JUMPDEST PUSH0 PUSH1 0x20 DUP3 ADD SWAP1 POP DUP2 DUP2 SUB PUSH0 DUP4 ADD MSTORE PUSH2 0x221F DUP2 PUSH2 0x21E6 JUMP JUMPDEST SWAP1 POP SWAP2 SWAP1 POP JUMP JUMPDEST PUSH32 0x4469726563746F7279206164647265737320646F6573206E6F7420696D706C65 PUSH0 DUP3 ADD MSTORE PUSH32 0x6D656E74206F776E657228290000000000000000000000000000000000000000 PUSH1 0x20 DUP3 ADD MSTORE POP JUMP JUMPDEST PUSH0 PUSH2 0x2280 PUSH1 0x2C DUP4 PUSH2 0x1B9C JUMP JUMPDEST SWAP2 POP PUSH2 0x228B DUP3 PUSH2 0x2226 JUMP JUMPDEST PUSH1 0x40 DUP3 ADD SWAP1 POP SWAP2 SWAP1 POP JUMP JUMPDEST PUSH0 PUSH1 0x20 DUP3 ADD SWAP1 POP DUP2 DUP2 SUB PUSH0 DUP4 ADD MSTORE PUSH2 0x22AD DUP2 PUSH2 0x2274 JUMP JUMPDEST SWAP1 POP SWAP2 SWAP1 POP JUMP INVALID LOG2 PUSH5 0x6970667358 0x22 SLT KECCAK256 SWAP1 STOP TIMESTAMP PUSH23 0xCF715A4CCFBAC5EFB98825759BAF7368512FA8EC75ACA 0xCE 0x2C PUSH9 0x540564736F6C634300 ADDMOD 0x1E STOP CALLER "
				},
				"gasEstimates": {
					"creation": {
						"codeDepositCost": "1787600",
						"executionCost": "infinite",
						"totalCost": "infinite"
					},
					"external": {
						"Directory()": "infinite",
						"IS_WETH_USD_PAIR_ADDRESS_V3()": "infinite",
						"WETH_ADDRESS()": "infinite",
						"WETH_DECIMALS()": "infinite",
						"WETH_USD_PAIR_ADDRESS()": "infinite",
						"changeDirectoryAddress(address)": "infinite",
						"fetchFromDirectory(string)": "infinite",
						"getTokenLiquidityUsd(address)": "infinite",
						"getTokenLiquidityWeth(address)": "infinite",
						"getTokenMarketCapUsd(address)": "infinite",
						"getTokenMarketCapWeth(address)": "infinite",
						"getTokenUsdPrice(address)": "infinite",
						"getTokenWethPairAddress(address)": "infinite",
						"getTokenWethPrice(address)": "infinite",
						"getWethUsdPrice()": "infinite",
						"owner()": "infinite"
					}
				},
				"methodIdentifiers": {
					"Directory()": "658a847a",
					"IS_WETH_USD_PAIR_ADDRESS_V3()": "5498f4bc",
					"WETH_ADDRESS()": "040141e5",
					"WETH_DECIMALS()": "d08aef7c",
					"WETH_USD_PAIR_ADDRESS()": "0b017603",
					"changeDirectoryAddress(address)": "ba4c7be1",
					"fetchFromDirectory(string)": "27262618",
					"getTokenLiquidityUsd(address)": "57b6c133",
					"getTokenLiquidityWeth(address)": "0dbc0d7d",
					"getTokenMarketCapUsd(address)": "69a2e17d",
					"getTokenMarketCapWeth(address)": "63aa0c93",
					"getTokenUsdPrice(address)": "00593bcf",
					"getTokenWethPairAddress(address)": "7d1aa610",
					"getTokenWethPrice(address)": "7b49b49d",
					"getWethUsdPrice()": "6855e939",
					"owner()": "8da5cb5b"
				}
			},
			"storageLayout": {
				"storage": [
					{
						"astId": 18,
						"contract": "hopium/uniswap/main/price-oracle.sol:PriceOracle",
						"label": "Directory",
						"offset": 0,
						"slot": "0",
						"type": "t_contract(IDirectory)15"
					}
				],
				"types": {
					"t_contract(IDirectory)15": {
						"encoding": "inplace",
						"label": "contract IDirectory",
						"numberOfBytes": "20"
					}
				}
			},
			"userdoc": {
				"kind": "user",
				"methods": {
					"getTokenLiquidityUsd(address)": {
						"notice": "Total pool liquidity in USD for the TOKEN–WETH pair (scaled 1e18)."
					},
					"getTokenLiquidityWeth(address)": {
						"notice": "Total pool liquidity in WETH for the TOKEN–WETH pair (scaled 1e18). If TOKEN is WETH, returns WETH totalSupply (scaled to 1e18). For v3, uses virtual reserves (active liquidity only)."
					},
					"getTokenMarketCapUsd(address)": {
						"notice": "Market cap in USD for TOKEN (scaled 1e18)."
					},
					"getTokenMarketCapWeth(address)": {
						"notice": "Market cap in WETH for TOKEN (scaled 1e18): totalSupply * (WETH per 1 TOKEN). If TOKEN is WETH, this is simply WETH totalSupply (scaled 1e18)."
					},
					"getTokenUsdPrice(address)": {
						"notice": "USD price of 1 TOKEN (scaled 1e18)."
					},
					"getTokenWethPrice(address)": {
						"notice": "WETH per 1 TOKEN (scaled 1e18) for an arbitrary TOKEN–WETH pair. If TOKEN is WETH, returns 1e18."
					},
					"getWethUsdPrice()": {
						"notice": "USD per 1 WETH (scaled 1e18) using the stored WETH/USD pair. For v3, this uses virtual reserves derived from slot0/liquidity (not raw balances)."
					}
				},
				"version": 1
			}
		}
	}
}