{
	"data": {
		"bytecode": {
			"linkReferences": {},
			"object": "6080604052600160055f6101000a81548160ff021916908315150217905550348015610029575f5ffd5b5060405161272e38038061272e833981810160405281019061004b9190610271565b8061005b8161006260201b60201c565b505061040a565b5f73ffffffffffffffffffffffffffffffffffffffff168173ffffffffffffffffffffffffffffffffffffffff16036100d0576040517f08c379a00000000000000000000000000000000000000000000000000000000081526004016100c7906102f6565b60405180910390fd5b5f8173ffffffffffffffffffffffffffffffffffffffff163b11610129576040517f08c379a00000000000000000000000000000000000000000000000000000000081526004016101209061035e565b60405180910390fd5b8073ffffffffffffffffffffffffffffffffffffffff16638da5cb5b6040518163ffffffff1660e01b8152600401602060405180830381865afa92505050801561019157506040513d601f19601f8201168201806040525081019061018e9190610271565b60015b6101d0576040517f08c379a00000000000000000000000000000000000000000000000000000000081526004016101c7906103ec565b60405180910390fd5b815f5f6101000a81548173ffffffffffffffffffffffffffffffffffffffff021916908373ffffffffffffffffffffffffffffffffffffffff1602179055505050565b5f5ffd5b5f73ffffffffffffffffffffffffffffffffffffffff82169050919050565b5f61024082610217565b9050919050565b61025081610236565b811461025a575f5ffd5b50565b5f8151905061026b81610247565b92915050565b5f6020828403121561028657610285610213565b5b5f6102938482850161025d565b91505092915050565b5f82825260208201905092915050565b7f4469726563746f72792063616e6e6f74206265207a65726f20616464726573735f82015250565b5f6102e060208361029c565b91506102eb826102ac565b602082019050919050565b5f6020820190508181035f83015261030d816102d4565b9050919050565b7f4469726563746f7279206d757374206265206120636f6e7472616374000000005f82015250565b5f610348601c8361029c565b915061035382610314565b602082019050919050565b5f6020820190508181035f8301526103758161033c565b9050919050565b7f4469726563746f7279206164647265737320646f6573206e6f7420696d706c655f8201527f6d656e74206f776e657228290000000000000000000000000000000000000000602082015250565b5f6103d6602c8361029c565b91506103e18261037c565b604082019050919050565b5f6020820190508181035f830152610403816103ca565b9050919050565b612317806104175f395ff3fe608060405234801561000f575f5ffd5b50600436106100e8575f3560e01c80638da5cb5b1161008a578063ba4c7be111610064578063ba4c7be11461026e578063c4eda09e1461028a578063e4b603b3146102a6578063f2018a1f146102d6576100e8565b80638da5cb5b146102045780639cfe0b3b14610222578063acec338a14610252576100e8565b80633ee79962116100c65780633ee79962146101565780634eea0e0d14610186578063658a847a146101b657806365a8f8b5146101d4576100e8565b80631626542c146100ec57806322f3e2d4146101085780632726261814610126575b5f5ffd5b61010660048036038101906101019190611359565b610306565b005b610110610510565b60405161011d91906113b1565b60405180910390f35b610140600480360381019061013b9190611506565b610522565b60405161014d919061158c565b60405180910390f35b610170600480360381019061016b91906115a5565b6105c2565b60405161017d919061158c565b60405180910390f35b6101a0600480360381019061019b91906115a5565b6105d3565b6040516101ad91906115df565b60405180910390f35b6101be6105ed565b6040516101cb9190611653565b60405180910390f35b6101ee60048036038101906101e991906115a5565b610611565b6040516101fb91906115df565b60405180910390f35b61020c610622565b604051610219919061158c565b60405180910390f35b61023c600480360381019061023791906115a5565b6106b5565b60405161024991906115df565b60405180910390f35b61026c60048036038101906102679190611696565b6106cf565b005b610288600480360381019061028391906116eb565b6107e5565b005b6102a4600480360381019061029f9190611738565b6108eb565b005b6102c060048036038101906102bb91906115a5565b610cb2565b6040516102cd91906115df565b60405180910390f35b6102f060048036038101906102eb91906115a5565b610cc3565b6040516102fd919061158c565b60405180910390f35b6103446040518060400160405280600a81526020017f6574662d726f7574657200000000000000000000000000000000000000000000815250610522565b73ffffffffffffffffffffffffffffffffffffffff163373ffffffffffffffffffffffffffffffffffffffff16146103b1576040517f08c379a00000000000000000000000000000000000000000000000000000000081526004016103a8906117d9565b60405180910390fd5b5f81036103ea576040517fcca7f00400000000000000000000000000000000000000000000000000000000815260040160405180910390fd5b5f6103f3610cd4565b73ffffffffffffffffffffffffffffffffffffffff16636855e9396040518163ffffffff1660e01b8152600401602060405180830381865afa15801561043b573d5f5f3e3d5ffd5b505050506040513d601f19601f8201168201806040525081019061045f919061180b565b90505f810361049a576040517f110ea95100000000000000000000000000000000000000000000000000000000815260040160405180910390fd5b5f670de0b6b3a764000082846104b09190611863565b6104ba91906118d1565b90508260035f8681526020019081526020015f205f8282546104dc9190611901565b925050819055508060045f8681526020019081526020015f205f8282546105039190611901565b9250508190555050505050565b60055f9054906101000a900460ff1681565b5f5f5f9054906101000a900473ffffffffffffffffffffffffffffffffffffffff1673ffffffffffffffffffffffffffffffffffffffff166327262618836040518263ffffffff1660e01b815260040161057c9190611984565b602060405180830381865afa158015610597573d5f5f3e3d5ffd5b505050506040513d601f19601f820116820180604052508101906105bb91906119b8565b9050919050565b5f6105cc82610d18565b9050919050565b5f60035f8381526020019081526020015f20549050919050565b5f5f9054906101000a900473ffffffffffffffffffffffffffffffffffffffff1681565b5f61061b82610d51565b9050919050565b5f5f5f9054906101000a900473ffffffffffffffffffffffffffffffffffffffff1673ffffffffffffffffffffffffffffffffffffffff16638da5cb5b6040518163ffffffff1660e01b8152600401602060405180830381865afa15801561068c573d5f5f3e3d5ffd5b505050506040513d601f19601f820116820180604052508101906106b091906119b8565b905090565b5f60045f8381526020019081526020015f20549050919050565b5f5f9054906101000a900473ffffffffffffffffffffffffffffffffffffffff1673ffffffffffffffffffffffffffffffffffffffff16638da5cb5b6040518163ffffffff1660e01b8152600401602060405180830381865afa158015610738573d5f5f3e3d5ffd5b505050506040513d601f19601f8201168201806040525081019061075c91906119b8565b73ffffffffffffffffffffffffffffffffffffffff163373ffffffffffffffffffffffffffffffffffffffff16146107c9576040517f08c379a00000000000000000000000000000000000000000000000000000000081526004016107c090611a2d565b60405180910390fd5b8060055f6101000a81548160ff02191690831515021790555050565b5f5f9054906101000a900473ffffffffffffffffffffffffffffffffffffffff1673ffffffffffffffffffffffffffffffffffffffff16638da5cb5b6040518163ffffffff1660e01b8152600401602060405180830381865afa15801561084e573d5f5f3e3d5ffd5b505050506040513d601f19601f8201168201806040525081019061087291906119b8565b73ffffffffffffffffffffffffffffffffffffffff163373ffffffffffffffffffffffffffffffffffffffff16146108df576040517f08c379a00000000000000000000000000000000000000000000000000000000081526004016108d690611a2d565b60405180910390fd5b6108e881610e47565b50565b5f5f9054906101000a900473ffffffffffffffffffffffffffffffffffffffff1673ffffffffffffffffffffffffffffffffffffffff16638da5cb5b6040518163ffffffff1660e01b8152600401602060405180830381865afa158015610954573d5f5f3e3d5ffd5b505050506040513d601f19601f8201168201806040525081019061097891906119b8565b73ffffffffffffffffffffffffffffffffffffffff163373ffffffffffffffffffffffffffffffffffffffff16146109e5576040517f08c379a00000000000000000000000000000000000000000000000000000000081526004016109dc90611a2d565b60405180910390fd5b60055f9054906101000a900460ff16610a33576040517f08c379a0000000000000000000000000000000000000000000000000000000008152600401610a2a90611a95565b60405180910390fd5b5f610a3c610ff8565b73ffffffffffffffffffffffffffffffffffffffff1663428d9a93836040518263ffffffff1660e01b8152600401610a749190611d97565b6020604051808303815f875af1158015610a90573d5f5f3e3d5ffd5b505050506040513d601f19601f82011682018060405250810190610ab4919061180b565b90505f610abf61103c565b73ffffffffffffffffffffffffffffffffffffffff166378f6c7c48385805f0190610aea9190611dc3565b878060200190610afa9190611dc3565b6040518663ffffffff1660e01b8152600401610b1a959493929190611e51565b6020604051808303815f875af1158015610b36573d5f5f3e3d5ffd5b505050506040513d601f19601f82011682018060405250810190610b5a91906119b8565b90505f610b65611080565b73ffffffffffffffffffffffffffffffffffffffff16636c4bb8bd6040518163ffffffff1660e01b81526004016020604051808303815f875af1158015610bae573d5f5f3e3d5ffd5b505050506040513d601f19601f82011682018060405250810190610bd291906119b8565b90508160015f8581526020019081526020015f205f6101000a81548173ffffffffffffffffffffffffffffffffffffffff021916908373ffffffffffffffffffffffffffffffffffffffff1602179055508060025f8581526020019081526020015f205f6101000a81548173ffffffffffffffffffffffffffffffffffffffff021916908373ffffffffffffffffffffffffffffffffffffffff160217905550827f714caab8b078979e833e97982712cd462ab7124c2a27401542011f30e3d47d558383604051610ca4929190611e98565b60405180910390a250505050565b5f610cbc826110c4565b9050919050565b5f610ccd826112dc565b9050919050565b5f610d136040518060400160405280600c81526020017f70726963652d6f7261636c650000000000000000000000000000000000000000815250610522565b905090565b5f60025f8381526020019081526020015f205f9054906101000a900473ffffffffffffffffffffffffffffffffffffffff169050919050565b5f5f610d5c836110c4565b90505f8103610d6e575f915050610e42565b5f610d77610cd4565b73ffffffffffffffffffffffffffffffffffffffff16636855e9396040518163ffffffff1660e01b8152600401602060405180830381865afa158015610dbf573d5f5f3e3d5ffd5b505050506040513d601f19601f82011682018060405250810190610de3919061180b565b90505f8103610e1e576040517f110ea95100000000000000000000000000000000000000000000000000000000815260040160405180910390fd5b670de0b6b3a76400008183610e339190611863565b610e3d91906118d1565b925050505b919050565b5f73ffffffffffffffffffffffffffffffffffffffff168173ffffffffffffffffffffffffffffffffffffffff1603610eb5576040517f08c379a0000000000000000000000000000000000000000000000000000000008152600401610eac90611f09565b60405180910390fd5b5f8173ffffffffffffffffffffffffffffffffffffffff163b11610f0e576040517f08c379a0000000000000000000000000000000000000000000000000000000008152600401610f0590611f71565b60405180910390fd5b8073ffffffffffffffffffffffffffffffffffffffff16638da5cb5b6040518163ffffffff1660e01b8152600401602060405180830381865afa925050508015610f7657506040513d601f19601f82011682018060405250810190610f7391906119b8565b60015b610fb5576040517f08c379a0000000000000000000000000000000000000000000000000000000008152600401610fac90611fff565b60405180910390fd5b815f5f6101000a81548173ffffffffffffffffffffffffffffffffffffffff021916908373ffffffffffffffffffffffffffffffffffffffff1602179055505050565b5f6110376040518060400160405280600d81526020017f696e6465782d666163746f727900000000000000000000000000000000000000815250610522565b905090565b5f61107b6040518060400160405280601281526020017f6574662d746f6b656e2d6465706c6f7965720000000000000000000000000000815250610522565b905090565b5f6110bf6040518060400160405280601281526020017f6574662d7661756c742d6465706c6f7965720000000000000000000000000000815250610522565b905090565b5f5f6110ce610ff8565b73ffffffffffffffffffffffffffffffffffffffff1663549e122b846040518263ffffffff1660e01b815260040161110691906115df565b5f60405180830381865afa158015611120573d5f5f3e3d5ffd5b505050506040513d5f823e3d601f19601f82011682018060405250810190611148919061226d565b90505f61115484610d18565b90505f826040015190505f815190505f61116c610cd4565b90505f5b828110156112d1575f84828151811061118c5761118b6122b4565b5b60200260200101515f015190505f8173ffffffffffffffffffffffffffffffffffffffff166370a08231886040518263ffffffff1660e01b81526004016111d3919061158c565b602060405180830381865afa1580156111ee573d5f5f3e3d5ffd5b505050506040513d601f19601f82011682018060405250810190611212919061180b565b90505f81146112c4575f8473ffffffffffffffffffffffffffffffffffffffff16637b49b49d846040518263ffffffff1660e01b8152600401611255919061158c565b602060405180830381865afa158015611270573d5f5f3e3d5ffd5b505050506040513d601f19601f82011682018060405250810190611294919061180b565b9050670de0b6b3a764000081836112ab9190611863565b6112b591906118d1565b8a6112c09190611901565b9950505b8260010192505050611170565b505050505050919050565b5f60015f8381526020019081526020015f205f9054906101000a900473ffffffffffffffffffffffffffffffffffffffff169050919050565b5f604051905090565b5f5ffd5b5f5ffd5b5f819050919050565b61133881611326565b8114611342575f5ffd5b50565b5f813590506113538161132f565b92915050565b5f5f6040838503121561136f5761136e61131e565b5b5f61137c85828601611345565b925050602061138d85828601611345565b9150509250929050565b5f8115159050919050565b6113ab81611397565b82525050565b5f6020820190506113c45f8301846113a2565b92915050565b5f5ffd5b5f5ffd5b5f601f19601f8301169050919050565b7f4e487b71000000000000000000000000000000000000000000000000000000005f52604160045260245ffd5b611418826113d2565b810181811067ffffffffffffffff82111715611437576114366113e2565b5b80604052505050565b5f611449611315565b9050611455828261140f565b919050565b5f67ffffffffffffffff821115611474576114736113e2565b5b61147d826113d2565b9050602081019050919050565b828183375f83830152505050565b5f6114aa6114a58461145a565b611440565b9050828152602081018484840111156114c6576114c56113ce565b5b6114d184828561148a565b509392505050565b5f82601f8301126114ed576114ec6113ca565b5b81356114fd848260208601611498565b91505092915050565b5f6020828403121561151b5761151a61131e565b5b5f82013567ffffffffffffffff81111561153857611537611322565b5b611544848285016114d9565b91505092915050565b5f73ffffffffffffffffffffffffffffffffffffffff82169050919050565b5f6115768261154d565b9050919050565b6115868161156c565b82525050565b5f60208201905061159f5f83018461157d565b92915050565b5f602082840312156115ba576115b961131e565b5b5f6115c784828501611345565b91505092915050565b6115d981611326565b82525050565b5f6020820190506115f25f8301846115d0565b92915050565b5f819050919050565b5f61161b6116166116118461154d565b6115f8565b61154d565b9050919050565b5f61162c82611601565b9050919050565b5f61163d82611622565b9050919050565b61164d81611633565b82525050565b5f6020820190506116665f830184611644565b92915050565b61167581611397565b811461167f575f5ffd5b50565b5f813590506116908161166c565b92915050565b5f602082840312156116ab576116aa61131e565b5b5f6116b884828501611682565b91505092915050565b6116ca8161156c565b81146116d4575f5ffd5b50565b5f813590506116e5816116c1565b92915050565b5f60208284031215611700576116ff61131e565b5b5f61170d848285016116d7565b91505092915050565b5f5ffd5b5f6060828403121561172f5761172e611716565b5b81905092915050565b5f6020828403121561174d5761174c61131e565b5b5f82013567ffffffffffffffff81111561176a57611769611322565b5b6117768482850161171a565b91505092915050565b5f82825260208201905092915050565b7f6d73672e73656e646572206973206e6f742065746620726f75746572000000005f82015250565b5f6117c3601c8361177f565b91506117ce8261178f565b602082019050919050565b5f6020820190508181035f8301526117f0816117b7565b9050919050565b5f815190506118058161132f565b92915050565b5f602082840312156118205761181f61131e565b5b5f61182d848285016117f7565b91505092915050565b7f4e487b71000000000000000000000000000000000000000000000000000000005f52601160045260245ffd5b5f61186d82611326565b915061187883611326565b925082820261188681611326565b9150828204841483151761189d5761189c611836565b5b5092915050565b7f4e487b71000000000000000000000000000000000000000000000000000000005f52601260045260245ffd5b5f6118db82611326565b91506118e683611326565b9250826118f6576118f56118a4565b5b828204905092915050565b5f61190b82611326565b915061191683611326565b925082820190508082111561192e5761192d611836565b5b92915050565b5f81519050919050565b8281835e5f83830152505050565b5f61195682611934565b611960818561177f565b935061197081856020860161193e565b611979816113d2565b840191505092915050565b5f6020820190508181035f83015261199c818461194c565b905092915050565b5f815190506119b2816116c1565b92915050565b5f602082840312156119cd576119cc61131e565b5b5f6119da848285016119a4565b91505092915050565b7f43616c6c6572206973206e6f7420746865206f776e65720000000000000000005f82015250565b5f611a1760178361177f565b9150611a22826119e3565b602082019050919050565b5f6020820190508181035f830152611a4481611a0b565b9050919050565b7f436f6e7472616374206973206e6f7420616374697665000000000000000000005f82015250565b5f611a7f60168361177f565b9150611a8a82611a4b565b602082019050919050565b5f6020820190508181035f830152611aac81611a73565b9050919050565b5f5ffd5b5f5ffd5b5f5ffd5b5f5f83356001602003843603038112611adb57611ada611abb565b5b83810192508235915060208301925067ffffffffffffffff821115611b0357611b02611ab3565b5b600182023603831315611b1957611b18611ab7565b5b509250929050565b5f82825260208201905092915050565b5f611b3c8385611b21565b9350611b4983858461148a565b611b52836113d2565b840190509392505050565b5f5f83356001602003843603038112611b7957611b78611abb565b5b83810192508235915060208301925067ffffffffffffffff821115611ba157611ba0611ab3565b5b604082023603831315611bb757611bb6611ab7565b5b509250929050565b5f82825260208201905092915050565b5f819050919050565b5f611be660208401846116d7565b905092915050565b611bf78161156c565b82525050565b5f61ffff82169050919050565b611c1381611bfd565b8114611c1d575f5ffd5b50565b5f81359050611c2e81611c0a565b92915050565b5f611c426020840184611c20565b905092915050565b611c5381611bfd565b82525050565b60408201611c695f830183611bd8565b611c755f850182611bee565b50611c836020830183611c34565b611c906020850182611c4a565b50505050565b5f611ca18383611c59565b60408301905092915050565b5f82905092915050565b5f604082019050919050565b5f611cce8385611bbf565b9350611cd982611bcf565b805f5b85811015611d1157611cee8284611cad565b611cf88882611c96565b9750611d0383611cb7565b925050600181019050611cdc565b5085925050509392505050565b5f60608301611d2f5f840184611abf565b8583035f870152611d41838284611b31565b92505050611d526020840184611abf565b8583036020870152611d65838284611b31565b92505050611d766040840184611b5d565b8583036040870152611d89838284611cc3565b925050508091505092915050565b5f6020820190508181035f830152611daf8184611d1e565b905092915050565b5f5ffd5b5f5ffd5b5f5ffd5b5f5f83356001602003843603038112611ddf57611dde611db7565b5b80840192508235915067ffffffffffffffff821115611e0157611e00611dbb565b5b602083019250600182023603831315611e1d57611e1c611dbf565b5b509250929050565b5f611e30838561177f565b9350611e3d83858461148a565b611e46836113d2565b840190509392505050565b5f606082019050611e645f8301886115d0565b8181036020830152611e77818688611e25565b90508181036040830152611e8c818486611e25565b90509695505050505050565b5f604082019050611eab5f83018561157d565b611eb8602083018461157d565b9392505050565b7f4469726563746f72792063616e6e6f74206265207a65726f20616464726573735f82015250565b5f611ef360208361177f565b9150611efe82611ebf565b602082019050919050565b5f6020820190508181035f830152611f2081611ee7565b9050919050565b7f4469726563746f7279206d757374206265206120636f6e7472616374000000005f82015250565b5f611f5b601c8361177f565b9150611f6682611f27565b602082019050919050565b5f6020820190508181035f830152611f8881611f4f565b9050919050565b7f4469726563746f7279206164647265737320646f6573206e6f7420696d706c655f8201527f6d656e74206f776e657228290000000000000000000000000000000000000000602082015250565b5f611fe9602c8361177f565b9150611ff482611f8f565b604082019050919050565b5f6020820190508181035f83015261201681611fdd565b9050919050565b5f5ffd5b5f5ffd5b5f6120376120328461145a565b611440565b905082815260208101848484011115612053576120526113ce565b5b61205e84828561193e565b509392505050565b5f82601f83011261207a576120796113ca565b5b815161208a848260208601612025565b91505092915050565b5f67ffffffffffffffff8211156120ad576120ac6113e2565b5b602082029050602081019050919050565b5f5ffd5b5f815190506120d081611c0a565b92915050565b5f604082840312156120eb576120ea61201d565b5b6120f56040611440565b90505f612104848285016119a4565b5f830152506020612117848285016120c2565b60208301525092915050565b5f61213561213084612093565b611440565b90508083825260208201905060408402830185811115612158576121576120be565b5b835b81811015612181578061216d88826120d6565b84526020840193505060408101905061215a565b5050509392505050565b5f82601f83011261219f5761219e6113ca565b5b81516121af848260208601612123565b91505092915050565b5f606082840312156121cd576121cc61201d565b5b6121d76060611440565b90505f82015167ffffffffffffffff8111156121f6576121f5612021565b5b61220284828501612066565b5f83015250602082015167ffffffffffffffff81111561222557612224612021565b5b61223184828501612066565b602083015250604082015167ffffffffffffffff81111561225557612254612021565b5b6122618482850161218b565b60408301525092915050565b5f602082840312156122825761228161131e565b5b5f82015167ffffffffffffffff81111561229f5761229e611322565b5b6122ab848285016121b8565b91505092915050565b7f4e487b71000000000000000000000000000000000000000000000000000000005f52603260045260245ffdfea2646970667358221220104376d985500e9e9cbe4294b04d5de21f94af5c51d02562bad6a68142a1eb1e64736f6c634300081e0033",
			"opcodes": "PUSH1 0x80 PUSH1 0x40 MSTORE PUSH1 0x1 PUSH1 0x5 PUSH0 PUSH2 0x100 EXP DUP2 SLOAD DUP2 PUSH1 0xFF MUL NOT AND SWAP1 DUP4 ISZERO ISZERO MUL OR SWAP1 SSTORE POP CALLVALUE DUP1 ISZERO PUSH2 0x29 JUMPI PUSH0 PUSH0 REVERT JUMPDEST POP PUSH1 0x40 MLOAD PUSH2 0x272E CODESIZE SUB DUP1 PUSH2 0x272E DUP4 CODECOPY DUP2 DUP2 ADD PUSH1 0x40 MSTORE DUP2 ADD SWAP1 PUSH2 0x4B SWAP2 SWAP1 PUSH2 0x271 JUMP JUMPDEST DUP1 PUSH2 0x5B DUP2 PUSH2 0x62 PUSH1 0x20 SHL PUSH1 0x20 SHR JUMP JUMPDEST POP POP PUSH2 0x40A JUMP JUMPDEST PUSH0 PUSH20 0xFFFFFFFFFFFFFFFFFFFFFFFFFFFFFFFFFFFFFFFF AND DUP2 PUSH20 0xFFFFFFFFFFFFFFFFFFFFFFFFFFFFFFFFFFFFFFFF AND SUB PUSH2 0xD0 JUMPI PUSH1 0x40 MLOAD PUSH32 0x8C379A000000000000000000000000000000000000000000000000000000000 DUP2 MSTORE PUSH1 0x4 ADD PUSH2 0xC7 SWAP1 PUSH2 0x2F6 JUMP JUMPDEST PUSH1 0x40 MLOAD DUP1 SWAP2 SUB SWAP1 REVERT JUMPDEST PUSH0 DUP2 PUSH20 0xFFFFFFFFFFFFFFFFFFFFFFFFFFFFFFFFFFFFFFFF AND EXTCODESIZE GT PUSH2 0x129 JUMPI PUSH1 0x40 MLOAD PUSH32 0x8C379A000000000000000000000000000000000000000000000000000000000 DUP2 MSTORE PUSH1 0x4 ADD PUSH2 0x120 SWAP1 PUSH2 0x35E JUMP JUMPDEST PUSH1 0x40 MLOAD DUP1 SWAP2 SUB SWAP1 REVERT JUMPDEST DUP1 PUSH20 0xFFFFFFFFFFFFFFFFFFFFFFFFFFFFFFFFFFFFFFFF AND PUSH4 0x8DA5CB5B PUSH1 0x40 MLOAD DUP2 PUSH4 0xFFFFFFFF AND PUSH1 0xE0 SHL DUP2 MSTORE PUSH1 0x4 ADD PUSH1 0x20 PUSH1 0x40 MLOAD DUP1 DUP4 SUB DUP2 DUP7 GAS STATICCALL SWAP3 POP POP POP DUP1 ISZERO PUSH2 0x191 JUMPI POP PUSH1 0x40 MLOAD RETURNDATASIZE PUSH1 0x1F NOT PUSH1 0x1F DUP3 ADD AND DUP3 ADD DUP1 PUSH1 0x40 MSTORE POP DUP2 ADD SWAP1 PUSH2 0x18E SWAP2 SWAP1 PUSH2 0x271 JUMP JUMPDEST PUSH1 0x1 JUMPDEST PUSH2 0x1D0 JUMPI PUSH1 0x40 MLOAD PUSH32 0x8C379A000000000000000000000000000000000000000000000000000000000 DUP2 MSTORE PUSH1 0x4 ADD PUSH2 0x1C7 SWAP1 PUSH2 0x3EC JUMP JUMPDEST PUSH1 0x40 MLOAD DUP1 SWAP2 SUB SWAP1 REVERT JUMPDEST DUP2 PUSH0 PUSH0 PUSH2 0x100 EXP DUP2 SLOAD DUP2 PUSH20 0xFFFFFFFFFFFFFFFFFFFFFFFFFFFFFFFFFFFFFFFF MUL NOT AND SWAP1 DUP4 PUSH20 0xFFFFFFFFFFFFFFFFFFFFFFFFFFFFFFFFFFFFFFFF AND MUL OR SWAP1 SSTORE POP POP POP JUMP JUMPDEST PUSH0 PUSH0 REVERT JUMPDEST PUSH0 PUSH20 0xFFFFFFFFFFFFFFFFFFFFFFFFFFFFFFFFFFFFFFFF DUP3 AND SWAP1 POP SWAP2 SWAP1 POP JUMP JUMPDEST PUSH0 PUSH2 0x240 DUP3 PUSH2 0x217 JUMP JUMPDEST SWAP1 POP SWAP2 SWAP1 POP JUMP JUMPDEST PUSH2 0x250 DUP2 PUSH2 0x236 JUMP JUMPDEST DUP2 EQ PUSH2 0x25A JUMPI PUSH0 PUSH0 REVERT JUMPDEST POP JUMP JUMPDEST PUSH0 DUP2 MLOAD SWAP1 POP PUSH2 0x26B DUP2 PUSH2 0x247 JUMP JUMPDEST SWAP3 SWAP2 POP POP JUMP JUMPDEST PUSH0 PUSH1 0x20 DUP3 DUP5 SUB SLT ISZERO PUSH2 0x286 JUMPI PUSH2 0x285 PUSH2 0x213 JUMP JUMPDEST JUMPDEST PUSH0 PUSH2 0x293 DUP5 DUP3 DUP6 ADD PUSH2 0x25D JUMP JUMPDEST SWAP2 POP POP SWAP3 SWAP2 POP POP JUMP JUMPDEST PUSH0 DUP3 DUP3 MSTORE PUSH1 0x20 DUP3 ADD SWAP1 POP SWAP3 SWAP2 POP POP JUMP JUMPDEST PUSH32 0x4469726563746F72792063616E6E6F74206265207A65726F2061646472657373 PUSH0 DUP3 ADD MSTORE POP JUMP JUMPDEST PUSH0 PUSH2 0x2E0 PUSH1 0x20 DUP4 PUSH2 0x29C JUMP JUMPDEST SWAP2 POP PUSH2 0x2EB DUP3 PUSH2 0x2AC JUMP JUMPDEST PUSH1 0x20 DUP3 ADD SWAP1 POP SWAP2 SWAP1 POP JUMP JUMPDEST PUSH0 PUSH1 0x20 DUP3 ADD SWAP1 POP DUP2 DUP2 SUB PUSH0 DUP4 ADD MSTORE PUSH2 0x30D DUP2 PUSH2 0x2D4 JUMP JUMPDEST SWAP1 POP SWAP2 SWAP1 POP JUMP JUMPDEST PUSH32 0x4469726563746F7279206D757374206265206120636F6E747261637400000000 PUSH0 DUP3 ADD MSTORE POP JUMP JUMPDEST PUSH0 PUSH2 0x348 PUSH1 0x1C DUP4 PUSH2 0x29C JUMP JUMPDEST SWAP2 POP PUSH2 0x353 DUP3 PUSH2 0x314 JUMP JUMPDEST PUSH1 0x20 DUP3 ADD SWAP1 POP SWAP2 SWAP1 POP JUMP JUMPDEST PUSH0 PUSH1 0x20 DUP3 ADD SWAP1 POP DUP2 DUP2 SUB PUSH0 DUP4 ADD MSTORE PUSH2 0x375 DUP2 PUSH2 0x33C JUMP JUMPDEST SWAP1 POP SWAP2 SWAP1 POP JUMP JUMPDEST PUSH32 0x4469726563746F7279206164647265737320646F6573206E6F7420696D706C65 PUSH0 DUP3 ADD MSTORE PUSH32 0x6D656E74206F776E657228290000000000000000000000000000000000000000 PUSH1 0x20 DUP3 ADD MSTORE POP JUMP JUMPDEST PUSH0 PUSH2 0x3D6 PUSH1 0x2C DUP4 PUSH2 0x29C JUMP JUMPDEST SWAP2 POP PUSH2 0x3E1 DUP3 PUSH2 0x37C JUMP JUMPDEST PUSH1 0x40 DUP3 ADD SWAP1 POP SWAP2 SWAP1 POP JUMP JUMPDEST PUSH0 PUSH1 0x20 DUP3 ADD SWAP1 POP DUP2 DUP2 SUB PUSH0 DUP4 ADD MSTORE PUSH2 0x403 DUP2 PUSH2 0x3CA JUMP JUMPDEST SWAP1 POP SWAP2 SWAP1 POP JUMP JUMPDEST PUSH2 0x2317 DUP1 PUSH2 0x417 PUSH0 CODECOPY PUSH0 RETURN INVALID PUSH1 0x80 PUSH1 0x40 MSTORE CALLVALUE DUP1 ISZERO PUSH2 0xF JUMPI PUSH0 PUSH0 REVERT JUMPDEST POP PUSH1 0x4 CALLDATASIZE LT PUSH2 0xE8 JUMPI PUSH0 CALLDATALOAD PUSH1 0xE0 SHR DUP1 PUSH4 0x8DA5CB5B GT PUSH2 0x8A JUMPI DUP1 PUSH4 0xBA4C7BE1 GT PUSH2 0x64 JUMPI DUP1 PUSH4 0xBA4C7BE1 EQ PUSH2 0x26E JUMPI DUP1 PUSH4 0xC4EDA09E EQ PUSH2 0x28A JUMPI DUP1 PUSH4 0xE4B603B3 EQ PUSH2 0x2A6 JUMPI DUP1 PUSH4 0xF2018A1F EQ PUSH2 0x2D6 JUMPI PUSH2 0xE8 JUMP JUMPDEST DUP1 PUSH4 0x8DA5CB5B EQ PUSH2 0x204 JUMPI DUP1 PUSH4 0x9CFE0B3B EQ PUSH2 0x222 JUMPI DUP1 PUSH4 0xACEC338A EQ PUSH2 0x252 JUMPI PUSH2 0xE8 JUMP JUMPDEST DUP1 PUSH4 0x3EE79962 GT PUSH2 0xC6 JUMPI DUP1 PUSH4 0x3EE79962 EQ PUSH2 0x156 JUMPI DUP1 PUSH4 0x4EEA0E0D EQ PUSH2 0x186 JUMPI DUP1 PUSH4 0x658A847A EQ PUSH2 0x1B6 JUMPI DUP1 PUSH4 0x65A8F8B5 EQ PUSH2 0x1D4 JUMPI PUSH2 0xE8 JUMP JUMPDEST DUP1 PUSH4 0x1626542C EQ PUSH2 0xEC JUMPI DUP1 PUSH4 0x22F3E2D4 EQ PUSH2 0x108 JUMPI DUP1 PUSH4 0x27262618 EQ PUSH2 0x126 JUMPI JUMPDEST PUSH0 PUSH0 REVERT JUMPDEST PUSH2 0x106 PUSH1 0x4 DUP1 CALLDATASIZE SUB DUP2 ADD SWAP1 PUSH2 0x101 SWAP2 SWAP1 PUSH2 0x1359 JUMP JUMPDEST PUSH2 0x306 JUMP JUMPDEST STOP JUMPDEST PUSH2 0x110 PUSH2 0x510 JUMP JUMPDEST PUSH1 0x40 MLOAD PUSH2 0x11D SWAP2 SWAP1 PUSH2 0x13B1 JUMP JUMPDEST PUSH1 0x40 MLOAD DUP1 SWAP2 SUB SWAP1 RETURN JUMPDEST PUSH2 0x140 PUSH1 0x4 DUP1 CALLDATASIZE SUB DUP2 ADD SWAP1 PUSH2 0x13B SWAP2 SWAP1 PUSH2 0x1506 JUMP JUMPDEST PUSH2 0x522 JUMP JUMPDEST PUSH1 0x40 MLOAD PUSH2 0x14D SWAP2 SWAP1 PUSH2 0x158C JUMP JUMPDEST PUSH1 0x40 MLOAD DUP1 SWAP2 SUB SWAP1 RETURN JUMPDEST PUSH2 0x170 PUSH1 0x4 DUP1 CALLDATASIZE SUB DUP2 ADD SWAP1 PUSH2 0x16B SWAP2 SWAP1 PUSH2 0x15A5 JUMP JUMPDEST PUSH2 0x5C2 JUMP JUMPDEST PUSH1 0x40 MLOAD PUSH2 0x17D SWAP2 SWAP1 PUSH2 0x158C JUMP JUMPDEST PUSH1 0x40 MLOAD DUP1 SWAP2 SUB SWAP1 RETURN JUMPDEST PUSH2 0x1A0 PUSH1 0x4 DUP1 CALLDATASIZE SUB DUP2 ADD SWAP1 PUSH2 0x19B SWAP2 SWAP1 PUSH2 0x15A5 JUMP JUMPDEST PUSH2 0x5D3 JUMP JUMPDEST PUSH1 0x40 MLOAD PUSH2 0x1AD SWAP2 SWAP1 PUSH2 0x15DF JUMP JUMPDEST PUSH1 0x40 MLOAD DUP1 SWAP2 SUB SWAP1 RETURN JUMPDEST PUSH2 0x1BE PUSH2 0x5ED JUMP JUMPDEST PUSH1 0x40 MLOAD PUSH2 0x1CB SWAP2 SWAP1 PUSH2 0x1653 JUMP JUMPDEST PUSH1 0x40 MLOAD DUP1 SWAP2 SUB SWAP1 RETURN JUMPDEST PUSH2 0x1EE PUSH1 0x4 DUP1 CALLDATASIZE SUB DUP2 ADD SWAP1 PUSH2 0x1E9 SWAP2 SWAP1 PUSH2 0x15A5 JUMP JUMPDEST PUSH2 0x611 JUMP JUMPDEST PUSH1 0x40 MLOAD PUSH2 0x1FB SWAP2 SWAP1 PUSH2 0x15DF JUMP JUMPDEST PUSH1 0x40 MLOAD DUP1 SWAP2 SUB SWAP1 RETURN JUMPDEST PUSH2 0x20C PUSH2 0x622 JUMP JUMPDEST PUSH1 0x40 MLOAD PUSH2 0x219 SWAP2 SWAP1 PUSH2 0x158C JUMP JUMPDEST PUSH1 0x40 MLOAD DUP1 SWAP2 SUB SWAP1 RETURN JUMPDEST PUSH2 0x23C PUSH1 0x4 DUP1 CALLDATASIZE SUB DUP2 ADD SWAP1 PUSH2 0x237 SWAP2 SWAP1 PUSH2 0x15A5 JUMP JUMPDEST PUSH2 0x6B5 JUMP JUMPDEST PUSH1 0x40 MLOAD PUSH2 0x249 SWAP2 SWAP1 PUSH2 0x15DF JUMP JUMPDEST PUSH1 0x40 MLOAD DUP1 SWAP2 SUB SWAP1 RETURN JUMPDEST PUSH2 0x26C PUSH1 0x4 DUP1 CALLDATASIZE SUB DUP2 ADD SWAP1 PUSH2 0x267 SWAP2 SWAP1 PUSH2 0x1696 JUMP JUMPDEST PUSH2 0x6CF JUMP JUMPDEST STOP JUMPDEST PUSH2 0x288 PUSH1 0x4 DUP1 CALLDATASIZE SUB DUP2 ADD SWAP1 PUSH2 0x283 SWAP2 SWAP1 PUSH2 0x16EB JUMP JUMPDEST PUSH2 0x7E5 JUMP JUMPDEST STOP JUMPDEST PUSH2 0x2A4 PUSH1 0x4 DUP1 CALLDATASIZE SUB DUP2 ADD SWAP1 PUSH2 0x29F SWAP2 SWAP1 PUSH2 0x1738 JUMP JUMPDEST PUSH2 0x8EB JUMP JUMPDEST STOP JUMPDEST PUSH2 0x2C0 PUSH1 0x4 DUP1 CALLDATASIZE SUB DUP2 ADD SWAP1 PUSH2 0x2BB SWAP2 SWAP1 PUSH2 0x15A5 JUMP JUMPDEST PUSH2 0xCB2 JUMP JUMPDEST PUSH1 0x40 MLOAD PUSH2 0x2CD SWAP2 SWAP1 PUSH2 0x15DF JUMP JUMPDEST PUSH1 0x40 MLOAD DUP1 SWAP2 SUB SWAP1 RETURN JUMPDEST PUSH2 0x2F0 PUSH1 0x4 DUP1 CALLDATASIZE SUB DUP2 ADD SWAP1 PUSH2 0x2EB SWAP2 SWAP1 PUSH2 0x15A5 JUMP JUMPDEST PUSH2 0xCC3 JUMP JUMPDEST PUSH1 0x40 MLOAD PUSH2 0x2FD SWAP2 SWAP1 PUSH2 0x158C JUMP JUMPDEST PUSH1 0x40 MLOAD DUP1 SWAP2 SUB SWAP1 RETURN JUMPDEST PUSH2 0x344 PUSH1 0x40 MLOAD DUP1 PUSH1 0x40 ADD PUSH1 0x40 MSTORE DUP1 PUSH1 0xA DUP2 MSTORE PUSH1 0x20 ADD PUSH32 0x6574662D726F7574657200000000000000000000000000000000000000000000 DUP2 MSTORE POP PUSH2 0x522 JUMP JUMPDEST PUSH20 0xFFFFFFFFFFFFFFFFFFFFFFFFFFFFFFFFFFFFFFFF AND CALLER PUSH20 0xFFFFFFFFFFFFFFFFFFFFFFFFFFFFFFFFFFFFFFFF AND EQ PUSH2 0x3B1 JUMPI PUSH1 0x40 MLOAD PUSH32 0x8C379A000000000000000000000000000000000000000000000000000000000 DUP2 MSTORE PUSH1 0x4 ADD PUSH2 0x3A8 SWAP1 PUSH2 0x17D9 JUMP JUMPDEST PUSH1 0x40 MLOAD DUP1 SWAP2 SUB SWAP1 REVERT JUMPDEST PUSH0 DUP2 SUB PUSH2 0x3EA JUMPI PUSH1 0x40 MLOAD PUSH32 0xCCA7F00400000000000000000000000000000000000000000000000000000000 DUP2 MSTORE PUSH1 0x4 ADD PUSH1 0x40 MLOAD DUP1 SWAP2 SUB SWAP1 REVERT JUMPDEST PUSH0 PUSH2 0x3F3 PUSH2 0xCD4 JUMP JUMPDEST PUSH20 0xFFFFFFFFFFFFFFFFFFFFFFFFFFFFFFFFFFFFFFFF AND PUSH4 0x6855E939 PUSH1 0x40 MLOAD DUP2 PUSH4 0xFFFFFFFF AND PUSH1 0xE0 SHL DUP2 MSTORE PUSH1 0x4 ADD PUSH1 0x20 PUSH1 0x40 MLOAD DUP1 DUP4 SUB DUP2 DUP7 GAS STATICCALL ISZERO DUP1 ISZERO PUSH2 0x43B JUMPI RETURNDATASIZE PUSH0 PUSH0 RETURNDATACOPY RETURNDATASIZE PUSH0 REVERT JUMPDEST POP POP POP POP PUSH1 0x40 MLOAD RETURNDATASIZE PUSH1 0x1F NOT PUSH1 0x1F DUP3 ADD AND DUP3 ADD DUP1 PUSH1 0x40 MSTORE POP DUP2 ADD SWAP1 PUSH2 0x45F SWAP2 SWAP1 PUSH2 0x180B JUMP JUMPDEST SWAP1 POP PUSH0 DUP2 SUB PUSH2 0x49A JUMPI PUSH1 0x40 MLOAD PUSH32 0x110EA95100000000000000000000000000000000000000000000000000000000 DUP2 MSTORE PUSH1 0x4 ADD PUSH1 0x40 MLOAD DUP1 SWAP2 SUB SWAP1 REVERT JUMPDEST PUSH0 PUSH8 0xDE0B6B3A7640000 DUP3 DUP5 PUSH2 0x4B0 SWAP2 SWAP1 PUSH2 0x1863 JUMP JUMPDEST PUSH2 0x4BA SWAP2 SWAP1 PUSH2 0x18D1 JUMP JUMPDEST SWAP1 POP DUP3 PUSH1 0x3 PUSH0 DUP7 DUP2 MSTORE PUSH1 0x20 ADD SWAP1 DUP2 MSTORE PUSH1 0x20 ADD PUSH0 KECCAK256 PUSH0 DUP3 DUP3 SLOAD PUSH2 0x4DC SWAP2 SWAP1 PUSH2 0x1901 JUMP JUMPDEST SWAP3 POP POP DUP2 SWAP1 SSTORE POP DUP1 PUSH1 0x4 PUSH0 DUP7 DUP2 MSTORE PUSH1 0x20 ADD SWAP1 DUP2 MSTORE PUSH1 0x20 ADD PUSH0 KECCAK256 PUSH0 DUP3 DUP3 SLOAD PUSH2 0x503 SWAP2 SWAP1 PUSH2 0x1901 JUMP JUMPDEST SWAP3 POP POP DUP2 SWAP1 SSTORE POP POP POP POP POP JUMP JUMPDEST PUSH1 0x5 PUSH0 SWAP1 SLOAD SWAP1 PUSH2 0x100 EXP SWAP1 DIV PUSH1 0xFF AND DUP2 JUMP JUMPDEST PUSH0 PUSH0 PUSH0 SWAP1 SLOAD SWAP1 PUSH2 0x100 EXP SWAP1 DIV PUSH20 0xFFFFFFFFFFFFFFFFFFFFFFFFFFFFFFFFFFFFFFFF AND PUSH20 0xFFFFFFFFFFFFFFFFFFFFFFFFFFFFFFFFFFFFFFFF AND PUSH4 0x27262618 DUP4 PUSH1 0x40 MLOAD DUP3 PUSH4 0xFFFFFFFF AND PUSH1 0xE0 SHL DUP2 MSTORE PUSH1 0x4 ADD PUSH2 0x57C SWAP2 SWAP1 PUSH2 0x1984 JUMP JUMPDEST PUSH1 0x20 PUSH1 0x40 MLOAD DUP1 DUP4 SUB DUP2 DUP7 GAS STATICCALL ISZERO DUP1 ISZERO PUSH2 0x597 JUMPI RETURNDATASIZE PUSH0 PUSH0 RETURNDATACOPY RETURNDATASIZE PUSH0 REVERT JUMPDEST POP POP POP POP PUSH1 0x40 MLOAD RETURNDATASIZE PUSH1 0x1F NOT PUSH1 0x1F DUP3 ADD AND DUP3 ADD DUP1 PUSH1 0x40 MSTORE POP DUP2 ADD SWAP1 PUSH2 0x5BB SWAP2 SWAP1 PUSH2 0x19B8 JUMP JUMPDEST SWAP1 POP SWAP2 SWAP1 POP JUMP JUMPDEST PUSH0 PUSH2 0x5CC DUP3 PUSH2 0xD18 JUMP JUMPDEST SWAP1 POP SWAP2 SWAP1 POP JUMP JUMPDEST PUSH0 PUSH1 0x3 PUSH0 DUP4 DUP2 MSTORE PUSH1 0x20 ADD SWAP1 DUP2 MSTORE PUSH1 0x20 ADD PUSH0 KECCAK256 SLOAD SWAP1 POP SWAP2 SWAP1 POP JUMP JUMPDEST PUSH0 PUSH0 SWAP1 SLOAD SWAP1 PUSH2 0x100 EXP SWAP1 DIV PUSH20 0xFFFFFFFFFFFFFFFFFFFFFFFFFFFFFFFFFFFFFFFF AND DUP2 JUMP JUMPDEST PUSH0 PUSH2 0x61B DUP3 PUSH2 0xD51 JUMP JUMPDEST SWAP1 POP SWAP2 SWAP1 POP JUMP JUMPDEST PUSH0 PUSH0 PUSH0 SWAP1 SLOAD SWAP1 PUSH2 0x100 EXP SWAP1 DIV PUSH20 0xFFFFFFFFFFFFFFFFFFFFFFFFFFFFFFFFFFFFFFFF AND PUSH20 0xFFFFFFFFFFFFFFFFFFFFFFFFFFFFFFFFFFFFFFFF AND PUSH4 0x8DA5CB5B PUSH1 0x40 MLOAD DUP2 PUSH4 0xFFFFFFFF AND PUSH1 0xE0 SHL DUP2 MSTORE PUSH1 0x4 ADD PUSH1 0x20 PUSH1 0x40 MLOAD DUP1 DUP4 SUB DUP2 DUP7 GAS STATICCALL ISZERO DUP1 ISZERO PUSH2 0x68C JUMPI RETURNDATASIZE PUSH0 PUSH0 RETURNDATACOPY RETURNDATASIZE PUSH0 REVERT JUMPDEST POP POP POP POP PUSH1 0x40 MLOAD RETURNDATASIZE PUSH1 0x1F NOT PUSH1 0x1F DUP3 ADD AND DUP3 ADD DUP1 PUSH1 0x40 MSTORE POP DUP2 ADD SWAP1 PUSH2 0x6B0 SWAP2 SWAP1 PUSH2 0x19B8 JUMP JUMPDEST SWAP1 POP SWAP1 JUMP JUMPDEST PUSH0 PUSH1 0x4 PUSH0 DUP4 DUP2 MSTORE PUSH1 0x20 ADD SWAP1 DUP2 MSTORE PUSH1 0x20 ADD PUSH0 KECCAK256 SLOAD SWAP1 POP SWAP2 SWAP1 POP JUMP JUMPDEST PUSH0 PUSH0 SWAP1 SLOAD SWAP1 PUSH2 0x100 EXP SWAP1 DIV PUSH20 0xFFFFFFFFFFFFFFFFFFFFFFFFFFFFFFFFFFFFFFFF AND PUSH20 0xFFFFFFFFFFFFFFFFFFFFFFFFFFFFFFFFFFFFFFFF AND PUSH4 0x8DA5CB5B PUSH1 0x40 MLOAD DUP2 PUSH4 0xFFFFFFFF AND PUSH1 0xE0 SHL DUP2 MSTORE PUSH1 0x4 ADD PUSH1 0x20 PUSH1 0x40 MLOAD DUP1 DUP4 SUB DUP2 DUP7 GAS STATICCALL ISZERO DUP1 ISZERO PUSH2 0x738 JUMPI RETURNDATASIZE PUSH0 PUSH0 RETURNDATACOPY RETURNDATASIZE PUSH0 REVERT JUMPDEST POP POP POP POP PUSH1 0x40 MLOAD RETURNDATASIZE PUSH1 0x1F NOT PUSH1 0x1F DUP3 ADD AND DUP3 ADD DUP1 PUSH1 0x40 MSTORE POP DUP2 ADD SWAP1 PUSH2 0x75C SWAP2 SWAP1 PUSH2 0x19B8 JUMP JUMPDEST PUSH20 0xFFFFFFFFFFFFFFFFFFFFFFFFFFFFFFFFFFFFFFFF AND CALLER PUSH20 0xFFFFFFFFFFFFFFFFFFFFFFFFFFFFFFFFFFFFFFFF AND EQ PUSH2 0x7C9 JUMPI PUSH1 0x40 MLOAD PUSH32 0x8C379A000000000000000000000000000000000000000000000000000000000 DUP2 MSTORE PUSH1 0x4 ADD PUSH2 0x7C0 SWAP1 PUSH2 0x1A2D JUMP JUMPDEST PUSH1 0x40 MLOAD DUP1 SWAP2 SUB SWAP1 REVERT JUMPDEST DUP1 PUSH1 0x5 PUSH0 PUSH2 0x100 EXP DUP2 SLOAD DUP2 PUSH1 0xFF MUL NOT AND SWAP1 DUP4 ISZERO ISZERO MUL OR SWAP1 SSTORE POP POP JUMP JUMPDEST PUSH0 PUSH0 SWAP1 SLOAD SWAP1 PUSH2 0x100 EXP SWAP1 DIV PUSH20 0xFFFFFFFFFFFFFFFFFFFFFFFFFFFFFFFFFFFFFFFF AND PUSH20 0xFFFFFFFFFFFFFFFFFFFFFFFFFFFFFFFFFFFFFFFF AND PUSH4 0x8DA5CB5B PUSH1 0x40 MLOAD DUP2 PUSH4 0xFFFFFFFF AND PUSH1 0xE0 SHL DUP2 MSTORE PUSH1 0x4 ADD PUSH1 0x20 PUSH1 0x40 MLOAD DUP1 DUP4 SUB DUP2 DUP7 GAS STATICCALL ISZERO DUP1 ISZERO PUSH2 0x84E JUMPI RETURNDATASIZE PUSH0 PUSH0 RETURNDATACOPY RETURNDATASIZE PUSH0 REVERT JUMPDEST POP POP POP POP PUSH1 0x40 MLOAD RETURNDATASIZE PUSH1 0x1F NOT PUSH1 0x1F DUP3 ADD AND DUP3 ADD DUP1 PUSH1 0x40 MSTORE POP DUP2 ADD SWAP1 PUSH2 0x872 SWAP2 SWAP1 PUSH2 0x19B8 JUMP JUMPDEST PUSH20 0xFFFFFFFFFFFFFFFFFFFFFFFFFFFFFFFFFFFFFFFF AND CALLER PUSH20 0xFFFFFFFFFFFFFFFFFFFFFFFFFFFFFFFFFFFFFFFF AND EQ PUSH2 0x8DF JUMPI PUSH1 0x40 MLOAD PUSH32 0x8C379A000000000000000000000000000000000000000000000000000000000 DUP2 MSTORE PUSH1 0x4 ADD PUSH2 0x8D6 SWAP1 PUSH2 0x1A2D JUMP JUMPDEST PUSH1 0x40 MLOAD DUP1 SWAP2 SUB SWAP1 REVERT JUMPDEST PUSH2 0x8E8 DUP2 PUSH2 0xE47 JUMP JUMPDEST POP JUMP JUMPDEST PUSH0 PUSH0 SWAP1 SLOAD SWAP1 PUSH2 0x100 EXP SWAP1 DIV PUSH20 0xFFFFFFFFFFFFFFFFFFFFFFFFFFFFFFFFFFFFFFFF AND PUSH20 0xFFFFFFFFFFFFFFFFFFFFFFFFFFFFFFFFFFFFFFFF AND PUSH4 0x8DA5CB5B PUSH1 0x40 MLOAD DUP2 PUSH4 0xFFFFFFFF AND PUSH1 0xE0 SHL DUP2 MSTORE PUSH1 0x4 ADD PUSH1 0x20 PUSH1 0x40 MLOAD DUP1 DUP4 SUB DUP2 DUP7 GAS STATICCALL ISZERO DUP1 ISZERO PUSH2 0x954 JUMPI RETURNDATASIZE PUSH0 PUSH0 RETURNDATACOPY RETURNDATASIZE PUSH0 REVERT JUMPDEST POP POP POP POP PUSH1 0x40 MLOAD RETURNDATASIZE PUSH1 0x1F NOT PUSH1 0x1F DUP3 ADD AND DUP3 ADD DUP1 PUSH1 0x40 MSTORE POP DUP2 ADD SWAP1 PUSH2 0x978 SWAP2 SWAP1 PUSH2 0x19B8 JUMP JUMPDEST PUSH20 0xFFFFFFFFFFFFFFFFFFFFFFFFFFFFFFFFFFFFFFFF AND CALLER PUSH20 0xFFFFFFFFFFFFFFFFFFFFFFFFFFFFFFFFFFFFFFFF AND EQ PUSH2 0x9E5 JUMPI PUSH1 0x40 MLOAD PUSH32 0x8C379A000000000000000000000000000000000000000000000000000000000 DUP2 MSTORE PUSH1 0x4 ADD PUSH2 0x9DC SWAP1 PUSH2 0x1A2D JUMP JUMPDEST PUSH1 0x40 MLOAD DUP1 SWAP2 SUB SWAP1 REVERT JUMPDEST PUSH1 0x5 PUSH0 SWAP1 SLOAD SWAP1 PUSH2 0x100 EXP SWAP1 DIV PUSH1 0xFF AND PUSH2 0xA33 JUMPI PUSH1 0x40 MLOAD PUSH32 0x8C379A000000000000000000000000000000000000000000000000000000000 DUP2 MSTORE PUSH1 0x4 ADD PUSH2 0xA2A SWAP1 PUSH2 0x1A95 JUMP JUMPDEST PUSH1 0x40 MLOAD DUP1 SWAP2 SUB SWAP1 REVERT JUMPDEST PUSH0 PUSH2 0xA3C PUSH2 0xFF8 JUMP JUMPDEST PUSH20 0xFFFFFFFFFFFFFFFFFFFFFFFFFFFFFFFFFFFFFFFF AND PUSH4 0x428D9A93 DUP4 PUSH1 0x40 MLOAD DUP3 PUSH4 0xFFFFFFFF AND PUSH1 0xE0 SHL DUP2 MSTORE PUSH1 0x4 ADD PUSH2 0xA74 SWAP2 SWAP1 PUSH2 0x1D97 JUMP JUMPDEST PUSH1 0x20 PUSH1 0x40 MLOAD DUP1 DUP4 SUB DUP2 PUSH0 DUP8 GAS CALL ISZERO DUP1 ISZERO PUSH2 0xA90 JUMPI RETURNDATASIZE PUSH0 PUSH0 RETURNDATACOPY RETURNDATASIZE PUSH0 REVERT JUMPDEST POP POP POP POP PUSH1 0x40 MLOAD RETURNDATASIZE PUSH1 0x1F NOT PUSH1 0x1F DUP3 ADD AND DUP3 ADD DUP1 PUSH1 0x40 MSTORE POP DUP2 ADD SWAP1 PUSH2 0xAB4 SWAP2 SWAP1 PUSH2 0x180B JUMP JUMPDEST SWAP1 POP PUSH0 PUSH2 0xABF PUSH2 0x103C JUMP JUMPDEST PUSH20 0xFFFFFFFFFFFFFFFFFFFFFFFFFFFFFFFFFFFFFFFF AND PUSH4 0x78F6C7C4 DUP4 DUP6 DUP1 PUSH0 ADD SWAP1 PUSH2 0xAEA SWAP2 SWAP1 PUSH2 0x1DC3 JUMP JUMPDEST DUP8 DUP1 PUSH1 0x20 ADD SWAP1 PUSH2 0xAFA SWAP2 SWAP1 PUSH2 0x1DC3 JUMP JUMPDEST PUSH1 0x40 MLOAD DUP7 PUSH4 0xFFFFFFFF AND PUSH1 0xE0 SHL DUP2 MSTORE PUSH1 0x4 ADD PUSH2 0xB1A SWAP6 SWAP5 SWAP4 SWAP3 SWAP2 SWAP1 PUSH2 0x1E51 JUMP JUMPDEST PUSH1 0x20 PUSH1 0x40 MLOAD DUP1 DUP4 SUB DUP2 PUSH0 DUP8 GAS CALL ISZERO DUP1 ISZERO PUSH2 0xB36 JUMPI RETURNDATASIZE PUSH0 PUSH0 RETURNDATACOPY RETURNDATASIZE PUSH0 REVERT JUMPDEST POP POP POP POP PUSH1 0x40 MLOAD RETURNDATASIZE PUSH1 0x1F NOT PUSH1 0x1F DUP3 ADD AND DUP3 ADD DUP1 PUSH1 0x40 MSTORE POP DUP2 ADD SWAP1 PUSH2 0xB5A SWAP2 SWAP1 PUSH2 0x19B8 JUMP JUMPDEST SWAP1 POP PUSH0 PUSH2 0xB65 PUSH2 0x1080 JUMP JUMPDEST PUSH20 0xFFFFFFFFFFFFFFFFFFFFFFFFFFFFFFFFFFFFFFFF AND PUSH4 0x6C4BB8BD PUSH1 0x40 MLOAD DUP2 PUSH4 0xFFFFFFFF AND PUSH1 0xE0 SHL DUP2 MSTORE PUSH1 0x4 ADD PUSH1 0x20 PUSH1 0x40 MLOAD DUP1 DUP4 SUB DUP2 PUSH0 DUP8 GAS CALL ISZERO DUP1 ISZERO PUSH2 0xBAE JUMPI RETURNDATASIZE PUSH0 PUSH0 RETURNDATACOPY RETURNDATASIZE PUSH0 REVERT JUMPDEST POP POP POP POP PUSH1 0x40 MLOAD RETURNDATASIZE PUSH1 0x1F NOT PUSH1 0x1F DUP3 ADD AND DUP3 ADD DUP1 PUSH1 0x40 MSTORE POP DUP2 ADD SWAP1 PUSH2 0xBD2 SWAP2 SWAP1 PUSH2 0x19B8 JUMP JUMPDEST SWAP1 POP DUP2 PUSH1 0x1 PUSH0 DUP6 DUP2 MSTORE PUSH1 0x20 ADD SWAP1 DUP2 MSTORE PUSH1 0x20 ADD PUSH0 KECCAK256 PUSH0 PUSH2 0x100 EXP DUP2 SLOAD DUP2 PUSH20 0xFFFFFFFFFFFFFFFFFFFFFFFFFFFFFFFFFFFFFFFF MUL NOT AND SWAP1 DUP4 PUSH20 0xFFFFFFFFFFFFFFFFFFFFFFFFFFFFFFFFFFFFFFFF AND MUL OR SWAP1 SSTORE POP DUP1 PUSH1 0x2 PUSH0 DUP6 DUP2 MSTORE PUSH1 0x20 ADD SWAP1 DUP2 MSTORE PUSH1 0x20 ADD PUSH0 KECCAK256 PUSH0 PUSH2 0x100 EXP DUP2 SLOAD DUP2 PUSH20 0xFFFFFFFFFFFFFFFFFFFFFFFFFFFFFFFFFFFFFFFF MUL NOT AND SWAP1 DUP4 PUSH20 0xFFFFFFFFFFFFFFFFFFFFFFFFFFFFFFFFFFFFFFFF AND MUL OR SWAP1 SSTORE POP DUP3 PUSH32 0x714CAAB8B078979E833E97982712CD462AB7124C2A27401542011F30E3D47D55 DUP4 DUP4 PUSH1 0x40 MLOAD PUSH2 0xCA4 SWAP3 SWAP2 SWAP1 PUSH2 0x1E98 JUMP JUMPDEST PUSH1 0x40 MLOAD DUP1 SWAP2 SUB SWAP1 LOG2 POP POP POP POP JUMP JUMPDEST PUSH0 PUSH2 0xCBC DUP3 PUSH2 0x10C4 JUMP JUMPDEST SWAP1 POP SWAP2 SWAP1 POP JUMP JUMPDEST PUSH0 PUSH2 0xCCD DUP3 PUSH2 0x12DC JUMP JUMPDEST SWAP1 POP SWAP2 SWAP1 POP JUMP JUMPDEST PUSH0 PUSH2 0xD13 PUSH1 0x40 MLOAD DUP1 PUSH1 0x40 ADD PUSH1 0x40 MSTORE DUP1 PUSH1 0xC DUP2 MSTORE PUSH1 0x20 ADD PUSH32 0x70726963652D6F7261636C650000000000000000000000000000000000000000 DUP2 MSTORE POP PUSH2 0x522 JUMP JUMPDEST SWAP1 POP SWAP1 JUMP JUMPDEST PUSH0 PUSH1 0x2 PUSH0 DUP4 DUP2 MSTORE PUSH1 0x20 ADD SWAP1 DUP2 MSTORE PUSH1 0x20 ADD PUSH0 KECCAK256 PUSH0 SWAP1 SLOAD SWAP1 PUSH2 0x100 EXP SWAP1 DIV PUSH20 0xFFFFFFFFFFFFFFFFFFFFFFFFFFFFFFFFFFFFFFFF AND SWAP1 POP SWAP2 SWAP1 POP JUMP JUMPDEST PUSH0 PUSH0 PUSH2 0xD5C DUP4 PUSH2 0x10C4 JUMP JUMPDEST SWAP1 POP PUSH0 DUP2 SUB PUSH2 0xD6E JUMPI PUSH0 SWAP2 POP POP PUSH2 0xE42 JUMP JUMPDEST PUSH0 PUSH2 0xD77 PUSH2 0xCD4 JUMP JUMPDEST PUSH20 0xFFFFFFFFFFFFFFFFFFFFFFFFFFFFFFFFFFFFFFFF AND PUSH4 0x6855E939 PUSH1 0x40 MLOAD DUP2 PUSH4 0xFFFFFFFF AND PUSH1 0xE0 SHL DUP2 MSTORE PUSH1 0x4 ADD PUSH1 0x20 PUSH1 0x40 MLOAD DUP1 DUP4 SUB DUP2 DUP7 GAS STATICCALL ISZERO DUP1 ISZERO PUSH2 0xDBF JUMPI RETURNDATASIZE PUSH0 PUSH0 RETURNDATACOPY RETURNDATASIZE PUSH0 REVERT JUMPDEST POP POP POP POP PUSH1 0x40 MLOAD RETURNDATASIZE PUSH1 0x1F NOT PUSH1 0x1F DUP3 ADD AND DUP3 ADD DUP1 PUSH1 0x40 MSTORE POP DUP2 ADD SWAP1 PUSH2 0xDE3 SWAP2 SWAP1 PUSH2 0x180B JUMP JUMPDEST SWAP1 POP PUSH0 DUP2 SUB PUSH2 0xE1E JUMPI PUSH1 0x40 MLOAD PUSH32 0x110EA95100000000000000000000000000000000000000000000000000000000 DUP2 MSTORE PUSH1 0x4 ADD PUSH1 0x40 MLOAD DUP1 SWAP2 SUB SWAP1 REVERT JUMPDEST PUSH8 0xDE0B6B3A7640000 DUP2 DUP4 PUSH2 0xE33 SWAP2 SWAP1 PUSH2 0x1863 JUMP JUMPDEST PUSH2 0xE3D SWAP2 SWAP1 PUSH2 0x18D1 JUMP JUMPDEST SWAP3 POP POP POP JUMPDEST SWAP2 SWAP1 POP JUMP JUMPDEST PUSH0 PUSH20 0xFFFFFFFFFFFFFFFFFFFFFFFFFFFFFFFFFFFFFFFF AND DUP2 PUSH20 0xFFFFFFFFFFFFFFFFFFFFFFFFFFFFFFFFFFFFFFFF AND SUB PUSH2 0xEB5 JUMPI PUSH1 0x40 MLOAD PUSH32 0x8C379A000000000000000000000000000000000000000000000000000000000 DUP2 MSTORE PUSH1 0x4 ADD PUSH2 0xEAC SWAP1 PUSH2 0x1F09 JUMP JUMPDEST PUSH1 0x40 MLOAD DUP1 SWAP2 SUB SWAP1 REVERT JUMPDEST PUSH0 DUP2 PUSH20 0xFFFFFFFFFFFFFFFFFFFFFFFFFFFFFFFFFFFFFFFF AND EXTCODESIZE GT PUSH2 0xF0E JUMPI PUSH1 0x40 MLOAD PUSH32 0x8C379A000000000000000000000000000000000000000000000000000000000 DUP2 MSTORE PUSH1 0x4 ADD PUSH2 0xF05 SWAP1 PUSH2 0x1F71 JUMP JUMPDEST PUSH1 0x40 MLOAD DUP1 SWAP2 SUB SWAP1 REVERT JUMPDEST DUP1 PUSH20 0xFFFFFFFFFFFFFFFFFFFFFFFFFFFFFFFFFFFFFFFF AND PUSH4 0x8DA5CB5B PUSH1 0x40 MLOAD DUP2 PUSH4 0xFFFFFFFF AND PUSH1 0xE0 SHL DUP2 MSTORE PUSH1 0x4 ADD PUSH1 0x20 PUSH1 0x40 MLOAD DUP1 DUP4 SUB DUP2 DUP7 GAS STATICCALL SWAP3 POP POP POP DUP1 ISZERO PUSH2 0xF76 JUMPI POP PUSH1 0x40 MLOAD RETURNDATASIZE PUSH1 0x1F NOT PUSH1 0x1F DUP3 ADD AND DUP3 ADD DUP1 PUSH1 0x40 MSTORE POP DUP2 ADD SWAP1 PUSH2 0xF73 SWAP2 SWAP1 PUSH2 0x19B8 JUMP JUMPDEST PUSH1 0x1 JUMPDEST PUSH2 0xFB5 JUMPI PUSH1 0x40 MLOAD PUSH32 0x8C379A000000000000000000000000000000000000000000000000000000000 DUP2 MSTORE PUSH1 0x4 ADD PUSH2 0xFAC SWAP1 PUSH2 0x1FFF JUMP JUMPDEST PUSH1 0x40 MLOAD DUP1 SWAP2 SUB SWAP1 REVERT JUMPDEST DUP2 PUSH0 PUSH0 PUSH2 0x100 EXP DUP2 SLOAD DUP2 PUSH20 0xFFFFFFFFFFFFFFFFFFFFFFFFFFFFFFFFFFFFFFFF MUL NOT AND SWAP1 DUP4 PUSH20 0xFFFFFFFFFFFFFFFFFFFFFFFFFFFFFFFFFFFFFFFF AND MUL OR SWAP1 SSTORE POP POP POP JUMP JUMPDEST PUSH0 PUSH2 0x1037 PUSH1 0x40 MLOAD DUP1 PUSH1 0x40 ADD PUSH1 0x40 MSTORE DUP1 PUSH1 0xD DUP2 MSTORE PUSH1 0x20 ADD PUSH32 0x696E6465782D666163746F727900000000000000000000000000000000000000 DUP2 MSTORE POP PUSH2 0x522 JUMP JUMPDEST SWAP1 POP SWAP1 JUMP JUMPDEST PUSH0 PUSH2 0x107B PUSH1 0x40 MLOAD DUP1 PUSH1 0x40 ADD PUSH1 0x40 MSTORE DUP1 PUSH1 0x12 DUP2 MSTORE PUSH1 0x20 ADD PUSH32 0x6574662D746F6B656E2D6465706C6F7965720000000000000000000000000000 DUP2 MSTORE POP PUSH2 0x522 JUMP JUMPDEST SWAP1 POP SWAP1 JUMP JUMPDEST PUSH0 PUSH2 0x10BF PUSH1 0x40 MLOAD DUP1 PUSH1 0x40 ADD PUSH1 0x40 MSTORE DUP1 PUSH1 0x12 DUP2 MSTORE PUSH1 0x20 ADD PUSH32 0x6574662D7661756C742D6465706C6F7965720000000000000000000000000000 DUP2 MSTORE POP PUSH2 0x522 JUMP JUMPDEST SWAP1 POP SWAP1 JUMP JUMPDEST PUSH0 PUSH0 PUSH2 0x10CE PUSH2 0xFF8 JUMP JUMPDEST PUSH20 0xFFFFFFFFFFFFFFFFFFFFFFFFFFFFFFFFFFFFFFFF AND PUSH4 0x549E122B DUP5 PUSH1 0x40 MLOAD DUP3 PUSH4 0xFFFFFFFF AND PUSH1 0xE0 SHL DUP2 MSTORE PUSH1 0x4 ADD PUSH2 0x1106 SWAP2 SWAP1 PUSH2 0x15DF JUMP JUMPDEST PUSH0 PUSH1 0x40 MLOAD DUP1 DUP4 SUB DUP2 DUP7 GAS STATICCALL ISZERO DUP1 ISZERO PUSH2 0x1120 JUMPI RETURNDATASIZE PUSH0 PUSH0 RETURNDATACOPY RETURNDATASIZE PUSH0 REVERT JUMPDEST POP POP POP POP PUSH1 0x40 MLOAD RETURNDATASIZE PUSH0 DUP3 RETURNDATACOPY RETURNDATASIZE PUSH1 0x1F NOT PUSH1 0x1F DUP3 ADD AND DUP3 ADD DUP1 PUSH1 0x40 MSTORE POP DUP2 ADD SWAP1 PUSH2 0x1148 SWAP2 SWAP1 PUSH2 0x226D JUMP JUMPDEST SWAP1 POP PUSH0 PUSH2 0x1154 DUP5 PUSH2 0xD18 JUMP JUMPDEST SWAP1 POP PUSH0 DUP3 PUSH1 0x40 ADD MLOAD SWAP1 POP PUSH0 DUP2 MLOAD SWAP1 POP PUSH0 PUSH2 0x116C PUSH2 0xCD4 JUMP JUMPDEST SWAP1 POP PUSH0 JUMPDEST DUP3 DUP2 LT ISZERO PUSH2 0x12D1 JUMPI PUSH0 DUP5 DUP3 DUP2 MLOAD DUP2 LT PUSH2 0x118C JUMPI PUSH2 0x118B PUSH2 0x22B4 JUMP JUMPDEST JUMPDEST PUSH1 0x20 MUL PUSH1 0x20 ADD ADD MLOAD PUSH0 ADD MLOAD SWAP1 POP PUSH0 DUP2 PUSH20 0xFFFFFFFFFFFFFFFFFFFFFFFFFFFFFFFFFFFFFFFF AND PUSH4 0x70A08231 DUP9 PUSH1 0x40 MLOAD DUP3 PUSH4 0xFFFFFFFF AND PUSH1 0xE0 SHL DUP2 MSTORE PUSH1 0x4 ADD PUSH2 0x11D3 SWAP2 SWAP1 PUSH2 0x158C JUMP JUMPDEST PUSH1 0x20 PUSH1 0x40 MLOAD DUP1 DUP4 SUB DUP2 DUP7 GAS STATICCALL ISZERO DUP1 ISZERO PUSH2 0x11EE JUMPI RETURNDATASIZE PUSH0 PUSH0 RETURNDATACOPY RETURNDATASIZE PUSH0 REVERT JUMPDEST POP POP POP POP PUSH1 0x40 MLOAD RETURNDATASIZE PUSH1 0x1F NOT PUSH1 0x1F DUP3 ADD AND DUP3 ADD DUP1 PUSH1 0x40 MSTORE POP DUP2 ADD SWAP1 PUSH2 0x1212 SWAP2 SWAP1 PUSH2 0x180B JUMP JUMPDEST SWAP1 POP PUSH0 DUP2 EQ PUSH2 0x12C4 JUMPI PUSH0 DUP5 PUSH20 0xFFFFFFFFFFFFFFFFFFFFFFFFFFFFFFFFFFFFFFFF AND PUSH4 0x7B49B49D DUP5 PUSH1 0x40 MLOAD DUP3 PUSH4 0xFFFFFFFF AND PUSH1 0xE0 SHL DUP2 MSTORE PUSH1 0x4 ADD PUSH2 0x1255 SWAP2 SWAP1 PUSH2 0x158C JUMP JUMPDEST PUSH1 0x20 PUSH1 0x40 MLOAD DUP1 DUP4 SUB DUP2 DUP7 GAS STATICCALL ISZERO DUP1 ISZERO PUSH2 0x1270 JUMPI RETURNDATASIZE PUSH0 PUSH0 RETURNDATACOPY RETURNDATASIZE PUSH0 REVERT JUMPDEST POP POP POP POP PUSH1 0x40 MLOAD RETURNDATASIZE PUSH1 0x1F NOT PUSH1 0x1F DUP3 ADD AND DUP3 ADD DUP1 PUSH1 0x40 MSTORE POP DUP2 ADD SWAP1 PUSH2 0x1294 SWAP2 SWAP1 PUSH2 0x180B JUMP JUMPDEST SWAP1 POP PUSH8 0xDE0B6B3A7640000 DUP2 DUP4 PUSH2 0x12AB SWAP2 SWAP1 PUSH2 0x1863 JUMP JUMPDEST PUSH2 0x12B5 SWAP2 SWAP1 PUSH2 0x18D1 JUMP JUMPDEST DUP11 PUSH2 0x12C0 SWAP2 SWAP1 PUSH2 0x1901 JUMP JUMPDEST SWAP10 POP POP JUMPDEST DUP3 PUSH1 0x1 ADD SWAP3 POP POP POP PUSH2 0x1170 JUMP JUMPDEST POP POP POP POP POP POP SWAP2 SWAP1 POP JUMP JUMPDEST PUSH0 PUSH1 0x1 PUSH0 DUP4 DUP2 MSTORE PUSH1 0x20 ADD SWAP1 DUP2 MSTORE PUSH1 0x20 ADD PUSH0 KECCAK256 PUSH0 SWAP1 SLOAD SWAP1 PUSH2 0x100 EXP SWAP1 DIV PUSH20 0xFFFFFFFFFFFFFFFFFFFFFFFFFFFFFFFFFFFFFFFF AND SWAP1 POP SWAP2 SWAP1 POP JUMP JUMPDEST PUSH0 PUSH1 0x40 MLOAD SWAP1 POP SWAP1 JUMP JUMPDEST PUSH0 PUSH0 REVERT JUMPDEST PUSH0 PUSH0 REVERT JUMPDEST PUSH0 DUP2 SWAP1 POP SWAP2 SWAP1 POP JUMP JUMPDEST PUSH2 0x1338 DUP2 PUSH2 0x1326 JUMP JUMPDEST DUP2 EQ PUSH2 0x1342 JUMPI PUSH0 PUSH0 REVERT JUMPDEST POP JUMP JUMPDEST PUSH0 DUP2 CALLDATALOAD SWAP1 POP PUSH2 0x1353 DUP2 PUSH2 0x132F JUMP JUMPDEST SWAP3 SWAP2 POP POP JUMP JUMPDEST PUSH0 PUSH0 PUSH1 0x40 DUP4 DUP6 SUB SLT ISZERO PUSH2 0x136F JUMPI PUSH2 0x136E PUSH2 0x131E JUMP JUMPDEST JUMPDEST PUSH0 PUSH2 0x137C DUP6 DUP3 DUP7 ADD PUSH2 0x1345 JUMP JUMPDEST SWAP3 POP POP PUSH1 0x20 PUSH2 0x138D DUP6 DUP3 DUP7 ADD PUSH2 0x1345 JUMP JUMPDEST SWAP2 POP POP SWAP3 POP SWAP3 SWAP1 POP JUMP JUMPDEST PUSH0 DUP2 ISZERO ISZERO SWAP1 POP SWAP2 SWAP1 POP JUMP JUMPDEST PUSH2 0x13AB DUP2 PUSH2 0x1397 JUMP JUMPDEST DUP3 MSTORE POP POP JUMP JUMPDEST PUSH0 PUSH1 0x20 DUP3 ADD SWAP1 POP PUSH2 0x13C4 PUSH0 DUP4 ADD DUP5 PUSH2 0x13A2 JUMP JUMPDEST SWAP3 SWAP2 POP POP JUMP JUMPDEST PUSH0 PUSH0 REVERT JUMPDEST PUSH0 PUSH0 REVERT JUMPDEST PUSH0 PUSH1 0x1F NOT PUSH1 0x1F DUP4 ADD AND SWAP1 POP SWAP2 SWAP1 POP JUMP JUMPDEST PUSH32 0x4E487B7100000000000000000000000000000000000000000000000000000000 PUSH0 MSTORE PUSH1 0x41 PUSH1 0x4 MSTORE PUSH1 0x24 PUSH0 REVERT JUMPDEST PUSH2 0x1418 DUP3 PUSH2 0x13D2 JUMP JUMPDEST DUP2 ADD DUP2 DUP2 LT PUSH8 0xFFFFFFFFFFFFFFFF DUP3 GT OR ISZERO PUSH2 0x1437 JUMPI PUSH2 0x1436 PUSH2 0x13E2 JUMP JUMPDEST JUMPDEST DUP1 PUSH1 0x40 MSTORE POP POP POP JUMP JUMPDEST PUSH0 PUSH2 0x1449 PUSH2 0x1315 JUMP JUMPDEST SWAP1 POP PUSH2 0x1455 DUP3 DUP3 PUSH2 0x140F JUMP JUMPDEST SWAP2 SWAP1 POP JUMP JUMPDEST PUSH0 PUSH8 0xFFFFFFFFFFFFFFFF DUP3 GT ISZERO PUSH2 0x1474 JUMPI PUSH2 0x1473 PUSH2 0x13E2 JUMP JUMPDEST JUMPDEST PUSH2 0x147D DUP3 PUSH2 0x13D2 JUMP JUMPDEST SWAP1 POP PUSH1 0x20 DUP2 ADD SWAP1 POP SWAP2 SWAP1 POP JUMP JUMPDEST DUP3 DUP2 DUP4 CALLDATACOPY PUSH0 DUP4 DUP4 ADD MSTORE POP POP POP JUMP JUMPDEST PUSH0 PUSH2 0x14AA PUSH2 0x14A5 DUP5 PUSH2 0x145A JUMP JUMPDEST PUSH2 0x1440 JUMP JUMPDEST SWAP1 POP DUP3 DUP2 MSTORE PUSH1 0x20 DUP2 ADD DUP5 DUP5 DUP5 ADD GT ISZERO PUSH2 0x14C6 JUMPI PUSH2 0x14C5 PUSH2 0x13CE JUMP JUMPDEST JUMPDEST PUSH2 0x14D1 DUP5 DUP3 DUP6 PUSH2 0x148A JUMP JUMPDEST POP SWAP4 SWAP3 POP POP POP JUMP JUMPDEST PUSH0 DUP3 PUSH1 0x1F DUP4 ADD SLT PUSH2 0x14ED JUMPI PUSH2 0x14EC PUSH2 0x13CA JUMP JUMPDEST JUMPDEST DUP2 CALLDATALOAD PUSH2 0x14FD DUP5 DUP3 PUSH1 0x20 DUP7 ADD PUSH2 0x1498 JUMP JUMPDEST SWAP2 POP POP SWAP3 SWAP2 POP POP JUMP JUMPDEST PUSH0 PUSH1 0x20 DUP3 DUP5 SUB SLT ISZERO PUSH2 0x151B JUMPI PUSH2 0x151A PUSH2 0x131E JUMP JUMPDEST JUMPDEST PUSH0 DUP3 ADD CALLDATALOAD PUSH8 0xFFFFFFFFFFFFFFFF DUP2 GT ISZERO PUSH2 0x1538 JUMPI PUSH2 0x1537 PUSH2 0x1322 JUMP JUMPDEST JUMPDEST PUSH2 0x1544 DUP5 DUP3 DUP6 ADD PUSH2 0x14D9 JUMP JUMPDEST SWAP2 POP POP SWAP3 SWAP2 POP POP JUMP JUMPDEST PUSH0 PUSH20 0xFFFFFFFFFFFFFFFFFFFFFFFFFFFFFFFFFFFFFFFF DUP3 AND SWAP1 POP SWAP2 SWAP1 POP JUMP JUMPDEST PUSH0 PUSH2 0x1576 DUP3 PUSH2 0x154D JUMP JUMPDEST SWAP1 POP SWAP2 SWAP1 POP JUMP JUMPDEST PUSH2 0x1586 DUP2 PUSH2 0x156C JUMP JUMPDEST DUP3 MSTORE POP POP JUMP JUMPDEST PUSH0 PUSH1 0x20 DUP3 ADD SWAP1 POP PUSH2 0x159F PUSH0 DUP4 ADD DUP5 PUSH2 0x157D JUMP JUMPDEST SWAP3 SWAP2 POP POP JUMP JUMPDEST PUSH0 PUSH1 0x20 DUP3 DUP5 SUB SLT ISZERO PUSH2 0x15BA JUMPI PUSH2 0x15B9 PUSH2 0x131E JUMP JUMPDEST JUMPDEST PUSH0 PUSH2 0x15C7 DUP5 DUP3 DUP6 ADD PUSH2 0x1345 JUMP JUMPDEST SWAP2 POP POP SWAP3 SWAP2 POP POP JUMP JUMPDEST PUSH2 0x15D9 DUP2 PUSH2 0x1326 JUMP JUMPDEST DUP3 MSTORE POP POP JUMP JUMPDEST PUSH0 PUSH1 0x20 DUP3 ADD SWAP1 POP PUSH2 0x15F2 PUSH0 DUP4 ADD DUP5 PUSH2 0x15D0 JUMP JUMPDEST SWAP3 SWAP2 POP POP JUMP JUMPDEST PUSH0 DUP2 SWAP1 POP SWAP2 SWAP1 POP JUMP JUMPDEST PUSH0 PUSH2 0x161B PUSH2 0x1616 PUSH2 0x1611 DUP5 PUSH2 0x154D JUMP JUMPDEST PUSH2 0x15F8 JUMP JUMPDEST PUSH2 0x154D JUMP JUMPDEST SWAP1 POP SWAP2 SWAP1 POP JUMP JUMPDEST PUSH0 PUSH2 0x162C DUP3 PUSH2 0x1601 JUMP JUMPDEST SWAP1 POP SWAP2 SWAP1 POP JUMP JUMPDEST PUSH0 PUSH2 0x163D DUP3 PUSH2 0x1622 JUMP JUMPDEST SWAP1 POP SWAP2 SWAP1 POP JUMP JUMPDEST PUSH2 0x164D DUP2 PUSH2 0x1633 JUMP JUMPDEST DUP3 MSTORE POP POP JUMP JUMPDEST PUSH0 PUSH1 0x20 DUP3 ADD SWAP1 POP PUSH2 0x1666 PUSH0 DUP4 ADD DUP5 PUSH2 0x1644 JUMP JUMPDEST SWAP3 SWAP2 POP POP JUMP JUMPDEST PUSH2 0x1675 DUP2 PUSH2 0x1397 JUMP JUMPDEST DUP2 EQ PUSH2 0x167F JUMPI PUSH0 PUSH0 REVERT JUMPDEST POP JUMP JUMPDEST PUSH0 DUP2 CALLDATALOAD SWAP1 POP PUSH2 0x1690 DUP2 PUSH2 0x166C JUMP JUMPDEST SWAP3 SWAP2 POP POP JUMP JUMPDEST PUSH0 PUSH1 0x20 DUP3 DUP5 SUB SLT ISZERO PUSH2 0x16AB JUMPI PUSH2 0x16AA PUSH2 0x131E JUMP JUMPDEST JUMPDEST PUSH0 PUSH2 0x16B8 DUP5 DUP3 DUP6 ADD PUSH2 0x1682 JUMP JUMPDEST SWAP2 POP POP SWAP3 SWAP2 POP POP JUMP JUMPDEST PUSH2 0x16CA DUP2 PUSH2 0x156C JUMP JUMPDEST DUP2 EQ PUSH2 0x16D4 JUMPI PUSH0 PUSH0 REVERT JUMPDEST POP JUMP JUMPDEST PUSH0 DUP2 CALLDATALOAD SWAP1 POP PUSH2 0x16E5 DUP2 PUSH2 0x16C1 JUMP JUMPDEST SWAP3 SWAP2 POP POP JUMP JUMPDEST PUSH0 PUSH1 0x20 DUP3 DUP5 SUB SLT ISZERO PUSH2 0x1700 JUMPI PUSH2 0x16FF PUSH2 0x131E JUMP JUMPDEST JUMPDEST PUSH0 PUSH2 0x170D DUP5 DUP3 DUP6 ADD PUSH2 0x16D7 JUMP JUMPDEST SWAP2 POP POP SWAP3 SWAP2 POP POP JUMP JUMPDEST PUSH0 PUSH0 REVERT JUMPDEST PUSH0 PUSH1 0x60 DUP3 DUP5 SUB SLT ISZERO PUSH2 0x172F JUMPI PUSH2 0x172E PUSH2 0x1716 JUMP JUMPDEST JUMPDEST DUP2 SWAP1 POP SWAP3 SWAP2 POP POP JUMP JUMPDEST PUSH0 PUSH1 0x20 DUP3 DUP5 SUB SLT ISZERO PUSH2 0x174D JUMPI PUSH2 0x174C PUSH2 0x131E JUMP JUMPDEST JUMPDEST PUSH0 DUP3 ADD CALLDATALOAD PUSH8 0xFFFFFFFFFFFFFFFF DUP2 GT ISZERO PUSH2 0x176A JUMPI PUSH2 0x1769 PUSH2 0x1322 JUMP JUMPDEST JUMPDEST PUSH2 0x1776 DUP5 DUP3 DUP6 ADD PUSH2 0x171A JUMP JUMPDEST SWAP2 POP POP SWAP3 SWAP2 POP POP JUMP JUMPDEST PUSH0 DUP3 DUP3 MSTORE PUSH1 0x20 DUP3 ADD SWAP1 POP SWAP3 SWAP2 POP POP JUMP JUMPDEST PUSH32 0x6D73672E73656E646572206973206E6F742065746620726F7574657200000000 PUSH0 DUP3 ADD MSTORE POP JUMP JUMPDEST PUSH0 PUSH2 0x17C3 PUSH1 0x1C DUP4 PUSH2 0x177F JUMP JUMPDEST SWAP2 POP PUSH2 0x17CE DUP3 PUSH2 0x178F JUMP JUMPDEST PUSH1 0x20 DUP3 ADD SWAP1 POP SWAP2 SWAP1 POP JUMP JUMPDEST PUSH0 PUSH1 0x20 DUP3 ADD SWAP1 POP DUP2 DUP2 SUB PUSH0 DUP4 ADD MSTORE PUSH2 0x17F0 DUP2 PUSH2 0x17B7 JUMP JUMPDEST SWAP1 POP SWAP2 SWAP1 POP JUMP JUMPDEST PUSH0 DUP2 MLOAD SWAP1 POP PUSH2 0x1805 DUP2 PUSH2 0x132F JUMP JUMPDEST SWAP3 SWAP2 POP POP JUMP JUMPDEST PUSH0 PUSH1 0x20 DUP3 DUP5 SUB SLT ISZERO PUSH2 0x1820 JUMPI PUSH2 0x181F PUSH2 0x131E JUMP JUMPDEST JUMPDEST PUSH0 PUSH2 0x182D DUP5 DUP3 DUP6 ADD PUSH2 0x17F7 JUMP JUMPDEST SWAP2 POP POP SWAP3 SWAP2 POP POP JUMP JUMPDEST PUSH32 0x4E487B7100000000000000000000000000000000000000000000000000000000 PUSH0 MSTORE PUSH1 0x11 PUSH1 0x4 MSTORE PUSH1 0x24 PUSH0 REVERT JUMPDEST PUSH0 PUSH2 0x186D DUP3 PUSH2 0x1326 JUMP JUMPDEST SWAP2 POP PUSH2 0x1878 DUP4 PUSH2 0x1326 JUMP JUMPDEST SWAP3 POP DUP3 DUP3 MUL PUSH2 0x1886 DUP2 PUSH2 0x1326 JUMP JUMPDEST SWAP2 POP DUP3 DUP3 DIV DUP5 EQ DUP4 ISZERO OR PUSH2 0x189D JUMPI PUSH2 0x189C PUSH2 0x1836 JUMP JUMPDEST JUMPDEST POP SWAP3 SWAP2 POP POP JUMP JUMPDEST PUSH32 0x4E487B7100000000000000000000000000000000000000000000000000000000 PUSH0 MSTORE PUSH1 0x12 PUSH1 0x4 MSTORE PUSH1 0x24 PUSH0 REVERT JUMPDEST PUSH0 PUSH2 0x18DB DUP3 PUSH2 0x1326 JUMP JUMPDEST SWAP2 POP PUSH2 0x18E6 DUP4 PUSH2 0x1326 JUMP JUMPDEST SWAP3 POP DUP3 PUSH2 0x18F6 JUMPI PUSH2 0x18F5 PUSH2 0x18A4 JUMP JUMPDEST JUMPDEST DUP3 DUP3 DIV SWAP1 POP SWAP3 SWAP2 POP POP JUMP JUMPDEST PUSH0 PUSH2 0x190B DUP3 PUSH2 0x1326 JUMP JUMPDEST SWAP2 POP PUSH2 0x1916 DUP4 PUSH2 0x1326 JUMP JUMPDEST SWAP3 POP DUP3 DUP3 ADD SWAP1 POP DUP1 DUP3 GT ISZERO PUSH2 0x192E JUMPI PUSH2 0x192D PUSH2 0x1836 JUMP JUMPDEST JUMPDEST SWAP3 SWAP2 POP POP JUMP JUMPDEST PUSH0 DUP2 MLOAD SWAP1 POP SWAP2 SWAP1 POP JUMP JUMPDEST DUP3 DUP2 DUP4 MCOPY PUSH0 DUP4 DUP4 ADD MSTORE POP POP POP JUMP JUMPDEST PUSH0 PUSH2 0x1956 DUP3 PUSH2 0x1934 JUMP JUMPDEST PUSH2 0x1960 DUP2 DUP6 PUSH2 0x177F JUMP JUMPDEST SWAP4 POP PUSH2 0x1970 DUP2 DUP6 PUSH1 0x20 DUP7 ADD PUSH2 0x193E JUMP JUMPDEST PUSH2 0x1979 DUP2 PUSH2 0x13D2 JUMP JUMPDEST DUP5 ADD SWAP2 POP POP SWAP3 SWAP2 POP POP JUMP JUMPDEST PUSH0 PUSH1 0x20 DUP3 ADD SWAP1 POP DUP2 DUP2 SUB PUSH0 DUP4 ADD MSTORE PUSH2 0x199C DUP2 DUP5 PUSH2 0x194C JUMP JUMPDEST SWAP1 POP SWAP3 SWAP2 POP POP JUMP JUMPDEST PUSH0 DUP2 MLOAD SWAP1 POP PUSH2 0x19B2 DUP2 PUSH2 0x16C1 JUMP JUMPDEST SWAP3 SWAP2 POP POP JUMP JUMPDEST PUSH0 PUSH1 0x20 DUP3 DUP5 SUB SLT ISZERO PUSH2 0x19CD JUMPI PUSH2 0x19CC PUSH2 0x131E JUMP JUMPDEST JUMPDEST PUSH0 PUSH2 0x19DA DUP5 DUP3 DUP6 ADD PUSH2 0x19A4 JUMP JUMPDEST SWAP2 POP POP SWAP3 SWAP2 POP POP JUMP JUMPDEST PUSH32 0x43616C6C6572206973206E6F7420746865206F776E6572000000000000000000 PUSH0 DUP3 ADD MSTORE POP JUMP JUMPDEST PUSH0 PUSH2 0x1A17 PUSH1 0x17 DUP4 PUSH2 0x177F JUMP JUMPDEST SWAP2 POP PUSH2 0x1A22 DUP3 PUSH2 0x19E3 JUMP JUMPDEST PUSH1 0x20 DUP3 ADD SWAP1 POP SWAP2 SWAP1 POP JUMP JUMPDEST PUSH0 PUSH1 0x20 DUP3 ADD SWAP1 POP DUP2 DUP2 SUB PUSH0 DUP4 ADD MSTORE PUSH2 0x1A44 DUP2 PUSH2 0x1A0B JUMP JUMPDEST SWAP1 POP SWAP2 SWAP1 POP JUMP JUMPDEST PUSH32 0x436F6E7472616374206973206E6F742061637469766500000000000000000000 PUSH0 DUP3 ADD MSTORE POP JUMP JUMPDEST PUSH0 PUSH2 0x1A7F PUSH1 0x16 DUP4 PUSH2 0x177F JUMP JUMPDEST SWAP2 POP PUSH2 0x1A8A DUP3 PUSH2 0x1A4B JUMP JUMPDEST PUSH1 0x20 DUP3 ADD SWAP1 POP SWAP2 SWAP1 POP JUMP JUMPDEST PUSH0 PUSH1 0x20 DUP3 ADD SWAP1 POP DUP2 DUP2 SUB PUSH0 DUP4 ADD MSTORE PUSH2 0x1AAC DUP2 PUSH2 0x1A73 JUMP JUMPDEST SWAP1 POP SWAP2 SWAP1 POP JUMP JUMPDEST PUSH0 PUSH0 REVERT JUMPDEST PUSH0 PUSH0 REVERT JUMPDEST PUSH0 PUSH0 REVERT JUMPDEST PUSH0 PUSH0 DUP4 CALLDATALOAD PUSH1 0x1 PUSH1 0x20 SUB DUP5 CALLDATASIZE SUB SUB DUP2 SLT PUSH2 0x1ADB JUMPI PUSH2 0x1ADA PUSH2 0x1ABB JUMP JUMPDEST JUMPDEST DUP4 DUP2 ADD SWAP3 POP DUP3 CALLDATALOAD SWAP2 POP PUSH1 0x20 DUP4 ADD SWAP3 POP PUSH8 0xFFFFFFFFFFFFFFFF DUP3 GT ISZERO PUSH2 0x1B03 JUMPI PUSH2 0x1B02 PUSH2 0x1AB3 JUMP JUMPDEST JUMPDEST PUSH1 0x1 DUP3 MUL CALLDATASIZE SUB DUP4 SGT ISZERO PUSH2 0x1B19 JUMPI PUSH2 0x1B18 PUSH2 0x1AB7 JUMP JUMPDEST JUMPDEST POP SWAP3 POP SWAP3 SWAP1 POP JUMP JUMPDEST PUSH0 DUP3 DUP3 MSTORE PUSH1 0x20 DUP3 ADD SWAP1 POP SWAP3 SWAP2 POP POP JUMP JUMPDEST PUSH0 PUSH2 0x1B3C DUP4 DUP6 PUSH2 0x1B21 JUMP JUMPDEST SWAP4 POP PUSH2 0x1B49 DUP4 DUP6 DUP5 PUSH2 0x148A JUMP JUMPDEST PUSH2 0x1B52 DUP4 PUSH2 0x13D2 JUMP JUMPDEST DUP5 ADD SWAP1 POP SWAP4 SWAP3 POP POP POP JUMP JUMPDEST PUSH0 PUSH0 DUP4 CALLDATALOAD PUSH1 0x1 PUSH1 0x20 SUB DUP5 CALLDATASIZE SUB SUB DUP2 SLT PUSH2 0x1B79 JUMPI PUSH2 0x1B78 PUSH2 0x1ABB JUMP JUMPDEST JUMPDEST DUP4 DUP2 ADD SWAP3 POP DUP3 CALLDATALOAD SWAP2 POP PUSH1 0x20 DUP4 ADD SWAP3 POP PUSH8 0xFFFFFFFFFFFFFFFF DUP3 GT ISZERO PUSH2 0x1BA1 JUMPI PUSH2 0x1BA0 PUSH2 0x1AB3 JUMP JUMPDEST JUMPDEST PUSH1 0x40 DUP3 MUL CALLDATASIZE SUB DUP4 SGT ISZERO PUSH2 0x1BB7 JUMPI PUSH2 0x1BB6 PUSH2 0x1AB7 JUMP JUMPDEST JUMPDEST POP SWAP3 POP SWAP3 SWAP1 POP JUMP JUMPDEST PUSH0 DUP3 DUP3 MSTORE PUSH1 0x20 DUP3 ADD SWAP1 POP SWAP3 SWAP2 POP POP JUMP JUMPDEST PUSH0 DUP2 SWAP1 POP SWAP2 SWAP1 POP JUMP JUMPDEST PUSH0 PUSH2 0x1BE6 PUSH1 0x20 DUP5 ADD DUP5 PUSH2 0x16D7 JUMP JUMPDEST SWAP1 POP SWAP3 SWAP2 POP POP JUMP JUMPDEST PUSH2 0x1BF7 DUP2 PUSH2 0x156C JUMP JUMPDEST DUP3 MSTORE POP POP JUMP JUMPDEST PUSH0 PUSH2 0xFFFF DUP3 AND SWAP1 POP SWAP2 SWAP1 POP JUMP JUMPDEST PUSH2 0x1C13 DUP2 PUSH2 0x1BFD JUMP JUMPDEST DUP2 EQ PUSH2 0x1C1D JUMPI PUSH0 PUSH0 REVERT JUMPDEST POP JUMP JUMPDEST PUSH0 DUP2 CALLDATALOAD SWAP1 POP PUSH2 0x1C2E DUP2 PUSH2 0x1C0A JUMP JUMPDEST SWAP3 SWAP2 POP POP JUMP JUMPDEST PUSH0 PUSH2 0x1C42 PUSH1 0x20 DUP5 ADD DUP5 PUSH2 0x1C20 JUMP JUMPDEST SWAP1 POP SWAP3 SWAP2 POP POP JUMP JUMPDEST PUSH2 0x1C53 DUP2 PUSH2 0x1BFD JUMP JUMPDEST DUP3 MSTORE POP POP JUMP JUMPDEST PUSH1 0x40 DUP3 ADD PUSH2 0x1C69 PUSH0 DUP4 ADD DUP4 PUSH2 0x1BD8 JUMP JUMPDEST PUSH2 0x1C75 PUSH0 DUP6 ADD DUP3 PUSH2 0x1BEE JUMP JUMPDEST POP PUSH2 0x1C83 PUSH1 0x20 DUP4 ADD DUP4 PUSH2 0x1C34 JUMP JUMPDEST PUSH2 0x1C90 PUSH1 0x20 DUP6 ADD DUP3 PUSH2 0x1C4A JUMP JUMPDEST POP POP POP POP JUMP JUMPDEST PUSH0 PUSH2 0x1CA1 DUP4 DUP4 PUSH2 0x1C59 JUMP JUMPDEST PUSH1 0x40 DUP4 ADD SWAP1 POP SWAP3 SWAP2 POP POP JUMP JUMPDEST PUSH0 DUP3 SWAP1 POP SWAP3 SWAP2 POP POP JUMP JUMPDEST PUSH0 PUSH1 0x40 DUP3 ADD SWAP1 POP SWAP2 SWAP1 POP JUMP JUMPDEST PUSH0 PUSH2 0x1CCE DUP4 DUP6 PUSH2 0x1BBF JUMP JUMPDEST SWAP4 POP PUSH2 0x1CD9 DUP3 PUSH2 0x1BCF JUMP JUMPDEST DUP1 PUSH0 JUMPDEST DUP6 DUP2 LT ISZERO PUSH2 0x1D11 JUMPI PUSH2 0x1CEE DUP3 DUP5 PUSH2 0x1CAD JUMP JUMPDEST PUSH2 0x1CF8 DUP9 DUP3 PUSH2 0x1C96 JUMP JUMPDEST SWAP8 POP PUSH2 0x1D03 DUP4 PUSH2 0x1CB7 JUMP JUMPDEST SWAP3 POP POP PUSH1 0x1 DUP2 ADD SWAP1 POP PUSH2 0x1CDC JUMP JUMPDEST POP DUP6 SWAP3 POP POP POP SWAP4 SWAP3 POP POP POP JUMP JUMPDEST PUSH0 PUSH1 0x60 DUP4 ADD PUSH2 0x1D2F PUSH0 DUP5 ADD DUP5 PUSH2 0x1ABF JUMP JUMPDEST DUP6 DUP4 SUB PUSH0 DUP8 ADD MSTORE PUSH2 0x1D41 DUP4 DUP3 DUP5 PUSH2 0x1B31 JUMP JUMPDEST SWAP3 POP POP POP PUSH2 0x1D52 PUSH1 0x20 DUP5 ADD DUP5 PUSH2 0x1ABF JUMP JUMPDEST DUP6 DUP4 SUB PUSH1 0x20 DUP8 ADD MSTORE PUSH2 0x1D65 DUP4 DUP3 DUP5 PUSH2 0x1B31 JUMP JUMPDEST SWAP3 POP POP POP PUSH2 0x1D76 PUSH1 0x40 DUP5 ADD DUP5 PUSH2 0x1B5D JUMP JUMPDEST DUP6 DUP4 SUB PUSH1 0x40 DUP8 ADD MSTORE PUSH2 0x1D89 DUP4 DUP3 DUP5 PUSH2 0x1CC3 JUMP JUMPDEST SWAP3 POP POP POP DUP1 SWAP2 POP POP SWAP3 SWAP2 POP POP JUMP JUMPDEST PUSH0 PUSH1 0x20 DUP3 ADD SWAP1 POP DUP2 DUP2 SUB PUSH0 DUP4 ADD MSTORE PUSH2 0x1DAF DUP2 DUP5 PUSH2 0x1D1E JUMP JUMPDEST SWAP1 POP SWAP3 SWAP2 POP POP JUMP JUMPDEST PUSH0 PUSH0 REVERT JUMPDEST PUSH0 PUSH0 REVERT JUMPDEST PUSH0 PUSH0 REVERT JUMPDEST PUSH0 PUSH0 DUP4 CALLDATALOAD PUSH1 0x1 PUSH1 0x20 SUB DUP5 CALLDATASIZE SUB SUB DUP2 SLT PUSH2 0x1DDF JUMPI PUSH2 0x1DDE PUSH2 0x1DB7 JUMP JUMPDEST JUMPDEST DUP1 DUP5 ADD SWAP3 POP DUP3 CALLDATALOAD SWAP2 POP PUSH8 0xFFFFFFFFFFFFFFFF DUP3 GT ISZERO PUSH2 0x1E01 JUMPI PUSH2 0x1E00 PUSH2 0x1DBB JUMP JUMPDEST JUMPDEST PUSH1 0x20 DUP4 ADD SWAP3 POP PUSH1 0x1 DUP3 MUL CALLDATASIZE SUB DUP4 SGT ISZERO PUSH2 0x1E1D JUMPI PUSH2 0x1E1C PUSH2 0x1DBF JUMP JUMPDEST JUMPDEST POP SWAP3 POP SWAP3 SWAP1 POP JUMP JUMPDEST PUSH0 PUSH2 0x1E30 DUP4 DUP6 PUSH2 0x177F JUMP JUMPDEST SWAP4 POP PUSH2 0x1E3D DUP4 DUP6 DUP5 PUSH2 0x148A JUMP JUMPDEST PUSH2 0x1E46 DUP4 PUSH2 0x13D2 JUMP JUMPDEST DUP5 ADD SWAP1 POP SWAP4 SWAP3 POP POP POP JUMP JUMPDEST PUSH0 PUSH1 0x60 DUP3 ADD SWAP1 POP PUSH2 0x1E64 PUSH0 DUP4 ADD DUP9 PUSH2 0x15D0 JUMP JUMPDEST DUP2 DUP2 SUB PUSH1 0x20 DUP4 ADD MSTORE PUSH2 0x1E77 DUP2 DUP7 DUP9 PUSH2 0x1E25 JUMP JUMPDEST SWAP1 POP DUP2 DUP2 SUB PUSH1 0x40 DUP4 ADD MSTORE PUSH2 0x1E8C DUP2 DUP5 DUP7 PUSH2 0x1E25 JUMP JUMPDEST SWAP1 POP SWAP7 SWAP6 POP POP POP POP POP POP JUMP JUMPDEST PUSH0 PUSH1 0x40 DUP3 ADD SWAP1 POP PUSH2 0x1EAB PUSH0 DUP4 ADD DUP6 PUSH2 0x157D JUMP JUMPDEST PUSH2 0x1EB8 PUSH1 0x20 DUP4 ADD DUP5 PUSH2 0x157D JUMP JUMPDEST SWAP4 SWAP3 POP POP POP JUMP JUMPDEST PUSH32 0x4469726563746F72792063616E6E6F74206265207A65726F2061646472657373 PUSH0 DUP3 ADD MSTORE POP JUMP JUMPDEST PUSH0 PUSH2 0x1EF3 PUSH1 0x20 DUP4 PUSH2 0x177F JUMP JUMPDEST SWAP2 POP PUSH2 0x1EFE DUP3 PUSH2 0x1EBF JUMP JUMPDEST PUSH1 0x20 DUP3 ADD SWAP1 POP SWAP2 SWAP1 POP JUMP JUMPDEST PUSH0 PUSH1 0x20 DUP3 ADD SWAP1 POP DUP2 DUP2 SUB PUSH0 DUP4 ADD MSTORE PUSH2 0x1F20 DUP2 PUSH2 0x1EE7 JUMP JUMPDEST SWAP1 POP SWAP2 SWAP1 POP JUMP JUMPDEST PUSH32 0x4469726563746F7279206D757374206265206120636F6E747261637400000000 PUSH0 DUP3 ADD MSTORE POP JUMP JUMPDEST PUSH0 PUSH2 0x1F5B PUSH1 0x1C DUP4 PUSH2 0x177F JUMP JUMPDEST SWAP2 POP PUSH2 0x1F66 DUP3 PUSH2 0x1F27 JUMP JUMPDEST PUSH1 0x20 DUP3 ADD SWAP1 POP SWAP2 SWAP1 POP JUMP JUMPDEST PUSH0 PUSH1 0x20 DUP3 ADD SWAP1 POP DUP2 DUP2 SUB PUSH0 DUP4 ADD MSTORE PUSH2 0x1F88 DUP2 PUSH2 0x1F4F JUMP JUMPDEST SWAP1 POP SWAP2 SWAP1 POP JUMP JUMPDEST PUSH32 0x4469726563746F7279206164647265737320646F6573206E6F7420696D706C65 PUSH0 DUP3 ADD MSTORE PUSH32 0x6D656E74206F776E657228290000000000000000000000000000000000000000 PUSH1 0x20 DUP3 ADD MSTORE POP JUMP JUMPDEST PUSH0 PUSH2 0x1FE9 PUSH1 0x2C DUP4 PUSH2 0x177F JUMP JUMPDEST SWAP2 POP PUSH2 0x1FF4 DUP3 PUSH2 0x1F8F JUMP JUMPDEST PUSH1 0x40 DUP3 ADD SWAP1 POP SWAP2 SWAP1 POP JUMP JUMPDEST PUSH0 PUSH1 0x20 DUP3 ADD SWAP1 POP DUP2 DUP2 SUB PUSH0 DUP4 ADD MSTORE PUSH2 0x2016 DUP2 PUSH2 0x1FDD JUMP JUMPDEST SWAP1 POP SWAP2 SWAP1 POP JUMP JUMPDEST PUSH0 PUSH0 REVERT JUMPDEST PUSH0 PUSH0 REVERT JUMPDEST PUSH0 PUSH2 0x2037 PUSH2 0x2032 DUP5 PUSH2 0x145A JUMP JUMPDEST PUSH2 0x1440 JUMP JUMPDEST SWAP1 POP DUP3 DUP2 MSTORE PUSH1 0x20 DUP2 ADD DUP5 DUP5 DUP5 ADD GT ISZERO PUSH2 0x2053 JUMPI PUSH2 0x2052 PUSH2 0x13CE JUMP JUMPDEST JUMPDEST PUSH2 0x205E DUP5 DUP3 DUP6 PUSH2 0x193E JUMP JUMPDEST POP SWAP4 SWAP3 POP POP POP JUMP JUMPDEST PUSH0 DUP3 PUSH1 0x1F DUP4 ADD SLT PUSH2 0x207A JUMPI PUSH2 0x2079 PUSH2 0x13CA JUMP JUMPDEST JUMPDEST DUP2 MLOAD PUSH2 0x208A DUP5 DUP3 PUSH1 0x20 DUP7 ADD PUSH2 0x2025 JUMP JUMPDEST SWAP2 POP POP SWAP3 SWAP2 POP POP JUMP JUMPDEST PUSH0 PUSH8 0xFFFFFFFFFFFFFFFF DUP3 GT ISZERO PUSH2 0x20AD JUMPI PUSH2 0x20AC PUSH2 0x13E2 JUMP JUMPDEST JUMPDEST PUSH1 0x20 DUP3 MUL SWAP1 POP PUSH1 0x20 DUP2 ADD SWAP1 POP SWAP2 SWAP1 POP JUMP JUMPDEST PUSH0 PUSH0 REVERT JUMPDEST PUSH0 DUP2 MLOAD SWAP1 POP PUSH2 0x20D0 DUP2 PUSH2 0x1C0A JUMP JUMPDEST SWAP3 SWAP2 POP POP JUMP JUMPDEST PUSH0 PUSH1 0x40 DUP3 DUP5 SUB SLT ISZERO PUSH2 0x20EB JUMPI PUSH2 0x20EA PUSH2 0x201D JUMP JUMPDEST JUMPDEST PUSH2 0x20F5 PUSH1 0x40 PUSH2 0x1440 JUMP JUMPDEST SWAP1 POP PUSH0 PUSH2 0x2104 DUP5 DUP3 DUP6 ADD PUSH2 0x19A4 JUMP JUMPDEST PUSH0 DUP4 ADD MSTORE POP PUSH1 0x20 PUSH2 0x2117 DUP5 DUP3 DUP6 ADD PUSH2 0x20C2 JUMP JUMPDEST PUSH1 0x20 DUP4 ADD MSTORE POP SWAP3 SWAP2 POP POP JUMP JUMPDEST PUSH0 PUSH2 0x2135 PUSH2 0x2130 DUP5 PUSH2 0x2093 JUMP JUMPDEST PUSH2 0x1440 JUMP JUMPDEST SWAP1 POP DUP1 DUP4 DUP3 MSTORE PUSH1 0x20 DUP3 ADD SWAP1 POP PUSH1 0x40 DUP5 MUL DUP4 ADD DUP6 DUP2 GT ISZERO PUSH2 0x2158 JUMPI PUSH2 0x2157 PUSH2 0x20BE JUMP JUMPDEST JUMPDEST DUP4 JUMPDEST DUP2 DUP2 LT ISZERO PUSH2 0x2181 JUMPI DUP1 PUSH2 0x216D DUP9 DUP3 PUSH2 0x20D6 JUMP JUMPDEST DUP5 MSTORE PUSH1 0x20 DUP5 ADD SWAP4 POP POP PUSH1 0x40 DUP2 ADD SWAP1 POP PUSH2 0x215A JUMP JUMPDEST POP POP POP SWAP4 SWAP3 POP POP POP JUMP JUMPDEST PUSH0 DUP3 PUSH1 0x1F DUP4 ADD SLT PUSH2 0x219F JUMPI PUSH2 0x219E PUSH2 0x13CA JUMP JUMPDEST JUMPDEST DUP2 MLOAD PUSH2 0x21AF DUP5 DUP3 PUSH1 0x20 DUP7 ADD PUSH2 0x2123 JUMP JUMPDEST SWAP2 POP POP SWAP3 SWAP2 POP POP JUMP JUMPDEST PUSH0 PUSH1 0x60 DUP3 DUP5 SUB SLT ISZERO PUSH2 0x21CD JUMPI PUSH2 0x21CC PUSH2 0x201D JUMP JUMPDEST JUMPDEST PUSH2 0x21D7 PUSH1 0x60 PUSH2 0x1440 JUMP JUMPDEST SWAP1 POP PUSH0 DUP3 ADD MLOAD PUSH8 0xFFFFFFFFFFFFFFFF DUP2 GT ISZERO PUSH2 0x21F6 JUMPI PUSH2 0x21F5 PUSH2 0x2021 JUMP JUMPDEST JUMPDEST PUSH2 0x2202 DUP5 DUP3 DUP6 ADD PUSH2 0x2066 JUMP JUMPDEST PUSH0 DUP4 ADD MSTORE POP PUSH1 0x20 DUP3 ADD MLOAD PUSH8 0xFFFFFFFFFFFFFFFF DUP2 GT ISZERO PUSH2 0x2225 JUMPI PUSH2 0x2224 PUSH2 0x2021 JUMP JUMPDEST JUMPDEST PUSH2 0x2231 DUP5 DUP3 DUP6 ADD PUSH2 0x2066 JUMP JUMPDEST PUSH1 0x20 DUP4 ADD MSTORE POP PUSH1 0x40 DUP3 ADD MLOAD PUSH8 0xFFFFFFFFFFFFFFFF DUP2 GT ISZERO PUSH2 0x2255 JUMPI PUSH2 0x2254 PUSH2 0x2021 JUMP JUMPDEST JUMPDEST PUSH2 0x2261 DUP5 DUP3 DUP6 ADD PUSH2 0x218B JUMP JUMPDEST PUSH1 0x40 DUP4 ADD MSTORE POP SWAP3 SWAP2 POP POP JUMP JUMPDEST PUSH0 PUSH1 0x20 DUP3 DUP5 SUB SLT ISZERO PUSH2 0x2282 JUMPI PUSH2 0x2281 PUSH2 0x131E JUMP JUMPDEST JUMPDEST PUSH0 DUP3 ADD MLOAD PUSH8 0xFFFFFFFFFFFFFFFF DUP2 GT ISZERO PUSH2 0x229F JUMPI PUSH2 0x229E PUSH2 0x1322 JUMP JUMPDEST JUMPDEST PUSH2 0x22AB DUP5 DUP3 DUP6 ADD PUSH2 0x21B8 JUMP JUMPDEST SWAP2 POP POP SWAP3 SWAP2 POP POP JUMP JUMPDEST PUSH32 0x4E487B7100000000000000000000000000000000000000000000000000000000 PUSH0 MSTORE PUSH1 0x32 PUSH1 0x4 MSTORE PUSH1 0x24 PUSH0 REVERT INVALID LOG2 PUSH5 0x6970667358 0x22 SLT KECCAK256 LT NUMBER PUSH23 0xD985500E9E9CBE4294B04D5DE21F94AF5C51D02562BAD6 0xA6 DUP2 TIMESTAMP LOG1 0xEB 0x1E PUSH5 0x736F6C6343 STOP ADDMOD 0x1E STOP CALLER "
		},
		"gasEstimates": {
			"creation": {
				"codeDepositCost": "1796600",
				"executionCost": "infinite",
				"totalCost": "infinite"
			},
			"external": {
				"Directory()": "infinite",
				"changeDirectoryAddress(address)": "infinite",
				"createIndexAndEtf((string,string,(address,uint16)[]))": "infinite",
				"fetchFromDirectory(string)": "infinite",
				"getEtfNavUsd(uint256)": "infinite",
				"getEtfNavWeth(uint256)": "infinite",
				"getEtfTokenAddress(uint256)": "2982",
				"getEtfTotalVolumeUsd(uint256)": "infinite",
				"getEtfTotalVolumeWeth(uint256)": "infinite",
				"getEtfVaultAddress(uint256)": "2917",
				"isActive()": "2512",
				"owner()": "infinite",
				"setActive(bool)": "infinite",
				"updateEtfVolume(uint256,uint256)": "infinite"
			}
		},
		"methodIdentifiers": {
			"Directory()": "658a847a",
			"changeDirectoryAddress(address)": "ba4c7be1",
			"createIndexAndEtf((string,string,(address,uint16)[]))": "c4eda09e",
			"fetchFromDirectory(string)": "27262618",
			"getEtfNavUsd(uint256)": "65a8f8b5",
			"getEtfNavWeth(uint256)": "e4b603b3",
			"getEtfTokenAddress(uint256)": "f2018a1f",
			"getEtfTotalVolumeUsd(uint256)": "9cfe0b3b",
			"getEtfTotalVolumeWeth(uint256)": "4eea0e0d",
			"getEtfVaultAddress(uint256)": "3ee79962",
			"isActive()": "22f3e2d4",
			"owner()": "8da5cb5b",
			"setActive(bool)": "acec338a",
			"updateEtfVolume(uint256,uint256)": "1626542c"
		}
	},
	"abi": [
		{
			"inputs": [
				{
					"internalType": "address",
					"name": "_directory",
					"type": "address"
				}
			],
			"stateMutability": "nonpayable",
			"type": "constructor"
		},
		{
			"inputs": [],
			"name": "ZeroTradeValue",
			"type": "error"
		},
		{
			"inputs": [],
			"name": "ZeroWethUsdPrice",
			"type": "error"
		},
		{
			"anonymous": false,
			"inputs": [
				{
					"indexed": true,
					"internalType": "uint256",
					"name": "indexId",
					"type": "uint256"
				},
				{
					"indexed": false,
					"internalType": "address",
					"name": "etfTokenAddress",
					"type": "address"
				},
				{
					"indexed": false,
					"internalType": "address",
					"name": "etfVaultAddress",
					"type": "address"
				}
			],
			"name": "EtfDeployed",
			"type": "event"
		},
		{
			"inputs": [],
			"name": "Directory",
			"outputs": [
				{
					"internalType": "contract IDirectory",
					"name": "",
					"type": "address"
				}
			],
			"stateMutability": "view",
			"type": "function"
		},
		{
			"inputs": [
				{
					"internalType": "address",
					"name": "_directory",
					"type": "address"
				}
			],
			"name": "changeDirectoryAddress",
			"outputs": [],
			"stateMutability": "nonpayable",
			"type": "function"
		},
		{
			"inputs": [
				{
					"components": [
						{
							"internalType": "string",
							"name": "name",
							"type": "string"
						},
						{
							"internalType": "string",
							"name": "ticker",
							"type": "string"
						},
						{
							"components": [
								{
									"internalType": "address",
									"name": "tokenAddress",
									"type": "address"
								},
								{
									"internalType": "uint16",
									"name": "weightBips",
									"type": "uint16"
								}
							],
							"internalType": "struct Holding[]",
							"name": "holdings",
							"type": "tuple[]"
						}
					],
					"internalType": "struct Index",
					"name": "index",
					"type": "tuple"
				}
			],
			"name": "createIndexAndEtf",
			"outputs": [],
			"stateMutability": "nonpayable",
			"type": "function"
		},
		{
			"inputs": [
				{
					"internalType": "string",
					"name": "_key",
					"type": "string"
				}
			],
			"name": "fetchFromDirectory",
			"outputs": [
				{
					"internalType": "address",
					"name": "",
					"type": "address"
				}
			],
			"stateMutability": "view",
			"type": "function"
		},
		{
			"inputs": [
				{
					"internalType": "uint256",
					"name": "indexId",
					"type": "uint256"
				}
			],
			"name": "getEtfNavUsd",
			"outputs": [
				{
					"internalType": "uint256",
					"name": "navUsd",
					"type": "uint256"
				}
			],
			"stateMutability": "view",
			"type": "function"
		},
		{
			"inputs": [
				{
					"internalType": "uint256",
					"name": "indexId",
					"type": "uint256"
				}
			],
			"name": "getEtfNavWeth",
			"outputs": [
				{
					"internalType": "uint256",
					"name": "nav",
					"type": "uint256"
				}
			],
			"stateMutability": "view",
			"type": "function"
		},
		{
			"inputs": [
				{
					"internalType": "uint256",
					"name": "indexId",
					"type": "uint256"
				}
			],
			"name": "getEtfTokenAddress",
			"outputs": [
				{
					"internalType": "address",
					"name": "",
					"type": "address"
				}
			],
			"stateMutability": "view",
			"type": "function"
		},
		{
			"inputs": [
				{
					"internalType": "uint256",
					"name": "indexId",
					"type": "uint256"
				}
			],
			"name": "getEtfTotalVolumeUsd",
			"outputs": [
				{
					"internalType": "uint256",
					"name": "",
					"type": "uint256"
				}
			],
			"stateMutability": "view",
			"type": "function"
		},
		{
			"inputs": [
				{
					"internalType": "uint256",
					"name": "indexId",
					"type": "uint256"
				}
			],
			"name": "getEtfTotalVolumeWeth",
			"outputs": [
				{
					"internalType": "uint256",
					"name": "",
					"type": "uint256"
				}
			],
			"stateMutability": "view",
			"type": "function"
		},
		{
			"inputs": [
				{
					"internalType": "uint256",
					"name": "indexId",
					"type": "uint256"
				}
			],
			"name": "getEtfVaultAddress",
			"outputs": [
				{
					"internalType": "address",
					"name": "",
					"type": "address"
				}
			],
			"stateMutability": "view",
			"type": "function"
		},
		{
			"inputs": [],
			"name": "isActive",
			"outputs": [
				{
					"internalType": "bool",
					"name": "",
					"type": "bool"
				}
			],
			"stateMutability": "view",
			"type": "function"
		},
		{
			"inputs": [],
			"name": "owner",
			"outputs": [
				{
					"internalType": "address",
					"name": "",
					"type": "address"
				}
			],
			"stateMutability": "view",
			"type": "function"
		},
		{
			"inputs": [
				{
					"internalType": "bool",
					"name": "_active",
					"type": "bool"
				}
			],
			"name": "setActive",
			"outputs": [],
			"stateMutability": "nonpayable",
			"type": "function"
		},
		{
			"inputs": [
				{
					"internalType": "uint256",
					"name": "indexId",
					"type": "uint256"
				},
				{
					"internalType": "uint256",
					"name": "ethAmount",
					"type": "uint256"
				}
			],
			"name": "updateEtfVolume",
			"outputs": [],
			"stateMutability": "nonpayable",
			"type": "function"
		}
	]
}