{
	"data": {
		"bytecode": {
			"linkReferences": {},
			"object": "6080604052600160065f6101000a81548160ff021916908315150217905550348015610029575f5ffd5b5060405161290e38038061290e833981810160405281019061004b9190610271565b8061005b8161006260201b60201c565b505061040a565b5f73ffffffffffffffffffffffffffffffffffffffff168173ffffffffffffffffffffffffffffffffffffffff16036100d0576040517f08c379a00000000000000000000000000000000000000000000000000000000081526004016100c7906102f6565b60405180910390fd5b5f8173ffffffffffffffffffffffffffffffffffffffff163b11610129576040517f08c379a00000000000000000000000000000000000000000000000000000000081526004016101209061035e565b60405180910390fd5b8073ffffffffffffffffffffffffffffffffffffffff16638da5cb5b6040518163ffffffff1660e01b8152600401602060405180830381865afa92505050801561019157506040513d601f19601f8201168201806040525081019061018e9190610271565b60015b6101d0576040517f08c379a00000000000000000000000000000000000000000000000000000000081526004016101c7906103ec565b60405180910390fd5b815f5f6101000a81548173ffffffffffffffffffffffffffffffffffffffff021916908373ffffffffffffffffffffffffffffffffffffffff1602179055505050565b5f5ffd5b5f73ffffffffffffffffffffffffffffffffffffffff82169050919050565b5f61024082610217565b9050919050565b61025081610236565b811461025a575f5ffd5b50565b5f8151905061026b81610247565b92915050565b5f6020828403121561028657610285610213565b5b5f6102938482850161025d565b91505092915050565b5f82825260208201905092915050565b7f4469726563746f72792063616e6e6f74206265207a65726f20616464726573735f82015250565b5f6102e060208361029c565b91506102eb826102ac565b602082019050919050565b5f6020820190508181035f83015261030d816102d4565b9050919050565b7f4469726563746f7279206d757374206265206120636f6e7472616374000000005f82015250565b5f610348601c8361029c565b915061035382610314565b602082019050919050565b5f6020820190508181035f8301526103758161033c565b9050919050565b7f4469726563746f7279206164647265737320646f6573206e6f7420696d706c655f8201527f6d656e74206f776e657228290000000000000000000000000000000000000000602082015250565b5f6103d6602c8361029c565b91506103e18261037c565b604082019050919050565b5f6020820190508181035f830152610403816103ca565b9050919050565b6124f7806104175f395ff3fe608060405234801561000f575f5ffd5b50600436106100f3575f3560e01c80638da5cb5b11610095578063c4eda09e11610064578063c4eda09e14610295578063d00ed651146102b1578063e4b603b3146102e1578063f2018a1f14610311576100f3565b80638da5cb5b1461020f5780639cfe0b3b1461022d578063acec338a1461025d578063ba4c7be114610279576100f3565b80633ee79962116100d15780633ee79962146101615780634eea0e0d14610191578063658a847a146101c157806365a8f8b5146101df576100f3565b80631626542c146100f757806322f3e2d4146101135780632726261814610131575b5f5ffd5b610111600480360381019061010c9190611443565b610341565b005b61011b61055d565b604051610128919061149b565b60405180910390f35b61014b600480360381019061014691906115f0565b61056f565b6040516101589190611676565b60405180910390f35b61017b6004803603810190610176919061168f565b61060f565b6040516101889190611676565b60405180910390f35b6101ab60048036038101906101a6919061168f565b610620565b6040516101b891906116c9565b60405180910390f35b6101c961063a565b6040516101d6919061173d565b60405180910390f35b6101f960048036038101906101f4919061168f565b61065e565b60405161020691906116c9565b60405180910390f35b61021761066f565b6040516102249190611676565b60405180910390f35b6102476004803603810190610242919061168f565b610702565b60405161025491906116c9565b60405180910390f35b61027760048036038101906102729190611780565b61071c565b005b610293600480360381019061028e91906117d5565b610832565b005b6102af60048036038101906102aa9190611822565b610938565b005b6102cb60048036038101906102c691906117d5565b610d4c565b6040516102d891906116c9565b60405180910390f35b6102fb60048036038101906102f6919061168f565b610d92565b60405161030891906116c9565b60405180910390f35b61032b6004803603810190610326919061168f565b610da3565b6040516103389190611676565b60405180910390f35b61037f6040518060400160405280600a81526020017f6574662d726f757465720000000000000000000000000000000000000000000081525061056f565b73ffffffffffffffffffffffffffffffffffffffff163373ffffffffffffffffffffffffffffffffffffffff16146103ec576040517f08c379a00000000000000000000000000000000000000000000000000000000081526004016103e3906118c3565b60405180910390fd5b5f811161042e576040517f08c379a00000000000000000000000000000000000000000000000000000000081526004016104259061192b565b60405180910390fd5b5f610437610db4565b73ffffffffffffffffffffffffffffffffffffffff16636855e9396040518163ffffffff1660e01b8152600401602060405180830381865afa15801561047f573d5f5f3e3d5ffd5b505050506040513d601f19601f820116820180604052508101906104a3919061195d565b90505f81116104e7576040517f08c379a00000000000000000000000000000000000000000000000000000000081526004016104de906119f8565b60405180910390fd5b5f670de0b6b3a764000082846104fd9190611a43565b6105079190611ab1565b90508260045f8681526020019081526020015f205f8282546105299190611ae1565b925050819055508060055f8681526020019081526020015f205f8282546105509190611ae1565b9250508190555050505050565b60065f9054906101000a900460ff1681565b5f5f5f9054906101000a900473ffffffffffffffffffffffffffffffffffffffff1673ffffffffffffffffffffffffffffffffffffffff166327262618836040518263ffffffff1660e01b81526004016105c99190611b64565b602060405180830381865afa1580156105e4573d5f5f3e3d5ffd5b505050506040513d601f19601f820116820180604052508101906106089190611b98565b9050919050565b5f61061982610df8565b9050919050565b5f60045f8381526020019081526020015f20549050919050565b5f5f9054906101000a900473ffffffffffffffffffffffffffffffffffffffff1681565b5f61066882610e31565b9050919050565b5f5f5f9054906101000a900473ffffffffffffffffffffffffffffffffffffffff1673ffffffffffffffffffffffffffffffffffffffff16638da5cb5b6040518163ffffffff1660e01b8152600401602060405180830381865afa1580156106d9573d5f5f3e3d5ffd5b505050506040513d601f19601f820116820180604052508101906106fd9190611b98565b905090565b5f60055f8381526020019081526020015f20549050919050565b5f5f9054906101000a900473ffffffffffffffffffffffffffffffffffffffff1673ffffffffffffffffffffffffffffffffffffffff16638da5cb5b6040518163ffffffff1660e01b8152600401602060405180830381865afa158015610785573d5f5f3e3d5ffd5b505050506040513d601f19601f820116820180604052508101906107a99190611b98565b73ffffffffffffffffffffffffffffffffffffffff163373ffffffffffffffffffffffffffffffffffffffff1614610816576040517f08c379a000000000000000000000000000000000000000000000000000000000815260040161080d90611c0d565b60405180910390fd5b8060065f6101000a81548160ff02191690831515021790555050565b5f5f9054906101000a900473ffffffffffffffffffffffffffffffffffffffff1673ffffffffffffffffffffffffffffffffffffffff16638da5cb5b6040518163ffffffff1660e01b8152600401602060405180830381865afa15801561089b573d5f5f3e3d5ffd5b505050506040513d601f19601f820116820180604052508101906108bf9190611b98565b73ffffffffffffffffffffffffffffffffffffffff163373ffffffffffffffffffffffffffffffffffffffff161461092c576040517f08c379a000000000000000000000000000000000000000000000000000000000815260040161092390611c0d565b60405180910390fd5b61093581610f30565b50565b5f5f9054906101000a900473ffffffffffffffffffffffffffffffffffffffff1673ffffffffffffffffffffffffffffffffffffffff16638da5cb5b6040518163ffffffff1660e01b8152600401602060405180830381865afa1580156109a1573d5f5f3e3d5ffd5b505050506040513d601f19601f820116820180604052508101906109c59190611b98565b73ffffffffffffffffffffffffffffffffffffffff163373ffffffffffffffffffffffffffffffffffffffff1614610a32576040517f08c379a0000000000000000000000000000000000000000000000000000000008152600401610a2990611c0d565b60405180910390fd5b60065f9054906101000a900460ff16610a80576040517f08c379a0000000000000000000000000000000000000000000000000000000008152600401610a7790611c75565b60405180910390fd5b5f610a896110e1565b73ffffffffffffffffffffffffffffffffffffffff1663428d9a93836040518263ffffffff1660e01b8152600401610ac19190611f77565b6020604051808303815f875af1158015610add573d5f5f3e3d5ffd5b505050506040513d601f19601f82011682018060405250810190610b01919061195d565b90505f610b0c611125565b73ffffffffffffffffffffffffffffffffffffffff166378f6c7c48385805f0190610b379190611fa3565b878060200190610b479190611fa3565b6040518663ffffffff1660e01b8152600401610b67959493929190612031565b6020604051808303815f875af1158015610b83573d5f5f3e3d5ffd5b505050506040513d601f19601f82011682018060405250810190610ba79190611b98565b90508060015f8481526020019081526020015f205f6101000a81548173ffffffffffffffffffffffffffffffffffffffff021916908373ffffffffffffffffffffffffffffffffffffffff1602179055508160025f8373ffffffffffffffffffffffffffffffffffffffff1673ffffffffffffffffffffffffffffffffffffffff1681526020019081526020015f20819055505f610c43611169565b73ffffffffffffffffffffffffffffffffffffffff1663b57c59a7846040518263ffffffff1660e01b8152600401610c7b91906116c9565b6020604051808303815f875af1158015610c97573d5f5f3e3d5ffd5b505050506040513d601f19601f82011682018060405250810190610cbb9190611b98565b90508060035f8581526020019081526020015f205f6101000a81548173ffffffffffffffffffffffffffffffffffffffff021916908373ffffffffffffffffffffffffffffffffffffffff160217905550827f714caab8b078979e833e97982712cd462ab7124c2a27401542011f30e3d47d558383604051610d3e929190612078565b60405180910390a250505050565b5f60025f8373ffffffffffffffffffffffffffffffffffffffff1673ffffffffffffffffffffffffffffffffffffffff1681526020019081526020015f20549050919050565b5f610d9c826111ad565b9050919050565b5f610dad826113c6565b9050919050565b5f610df36040518060400160405280600c81526020017f70726963652d6f7261636c65000000000000000000000000000000000000000081525061056f565b905090565b5f60035f8381526020019081526020015f205f9054906101000a900473ffffffffffffffffffffffffffffffffffffffff169050919050565b5f5f610e3c836111ad565b90505f8103610e4e575f915050610f2b565b5f610e57610db4565b73ffffffffffffffffffffffffffffffffffffffff16636855e9396040518163ffffffff1660e01b8152600401602060405180830381865afa158015610e9f573d5f5f3e3d5ffd5b505050506040513d601f19601f82011682018060405250810190610ec3919061195d565b90505f8111610f07576040517f08c379a0000000000000000000000000000000000000000000000000000000008152600401610efe906119f8565b60405180910390fd5b670de0b6b3a76400008183610f1c9190611a43565b610f269190611ab1565b925050505b919050565b5f73ffffffffffffffffffffffffffffffffffffffff168173ffffffffffffffffffffffffffffffffffffffff1603610f9e576040517f08c379a0000000000000000000000000000000000000000000000000000000008152600401610f95906120e9565b60405180910390fd5b5f8173ffffffffffffffffffffffffffffffffffffffff163b11610ff7576040517f08c379a0000000000000000000000000000000000000000000000000000000008152600401610fee90612151565b60405180910390fd5b8073ffffffffffffffffffffffffffffffffffffffff16638da5cb5b6040518163ffffffff1660e01b8152600401602060405180830381865afa92505050801561105f57506040513d601f19601f8201168201806040525081019061105c9190611b98565b60015b61109e576040517f08c379a0000000000000000000000000000000000000000000000000000000008152600401611095906121df565b60405180910390fd5b815f5f6101000a81548173ffffffffffffffffffffffffffffffffffffffff021916908373ffffffffffffffffffffffffffffffffffffffff1602179055505050565b5f6111206040518060400160405280600d81526020017f696e6465782d666163746f72790000000000000000000000000000000000000081525061056f565b905090565b5f6111646040518060400160405280601281526020017f6574662d746f6b656e2d6465706c6f796572000000000000000000000000000081525061056f565b905090565b5f6111a86040518060400160405280601281526020017f6574662d7661756c742d6465706c6f796572000000000000000000000000000081525061056f565b905090565b5f5f6111b76110e1565b73ffffffffffffffffffffffffffffffffffffffff1663549e122b846040518263ffffffff1660e01b81526004016111ef91906116c9565b5f60405180830381865afa158015611209573d5f5f3e3d5ffd5b505050506040513d5f823e3d601f19601f82011682018060405250810190611231919061244d565b90505f61123d84610df8565b90505f5f90505b8260400151518110156113be575f8360400151828151811061126957611268612494565b5b60200260200101515f015190505f8173ffffffffffffffffffffffffffffffffffffffff166370a08231856040518263ffffffff1660e01b81526004016112b09190611676565b602060405180830381865afa1580156112cb573d5f5f3e3d5ffd5b505050506040513d601f19601f820116820180604052508101906112ef919061195d565b90505f81036112ff5750506113b1565b5f611308610db4565b73ffffffffffffffffffffffffffffffffffffffff16637b49b49d846040518263ffffffff1660e01b81526004016113409190611676565b602060405180830381865afa15801561135b573d5f5f3e3d5ffd5b505050506040513d601f19601f8201168201806040525081019061137f919061195d565b9050670de0b6b3a764000081836113969190611a43565b6113a09190611ab1565b876113ab9190611ae1565b96505050505b8080600101915050611244565b505050919050565b5f60015f8381526020019081526020015f205f9054906101000a900473ffffffffffffffffffffffffffffffffffffffff169050919050565b5f604051905090565b5f5ffd5b5f5ffd5b5f819050919050565b61142281611410565b811461142c575f5ffd5b50565b5f8135905061143d81611419565b92915050565b5f5f6040838503121561145957611458611408565b5b5f6114668582860161142f565b92505060206114778582860161142f565b9150509250929050565b5f8115159050919050565b61149581611481565b82525050565b5f6020820190506114ae5f83018461148c565b92915050565b5f5ffd5b5f5ffd5b5f601f19601f8301169050919050565b7f4e487b71000000000000000000000000000000000000000000000000000000005f52604160045260245ffd5b611502826114bc565b810181811067ffffffffffffffff82111715611521576115206114cc565b5b80604052505050565b5f6115336113ff565b905061153f82826114f9565b919050565b5f67ffffffffffffffff82111561155e5761155d6114cc565b5b611567826114bc565b9050602081019050919050565b828183375f83830152505050565b5f61159461158f84611544565b61152a565b9050828152602081018484840111156115b0576115af6114b8565b5b6115bb848285611574565b509392505050565b5f82601f8301126115d7576115d66114b4565b5b81356115e7848260208601611582565b91505092915050565b5f6020828403121561160557611604611408565b5b5f82013567ffffffffffffffff8111156116225761162161140c565b5b61162e848285016115c3565b91505092915050565b5f73ffffffffffffffffffffffffffffffffffffffff82169050919050565b5f61166082611637565b9050919050565b61167081611656565b82525050565b5f6020820190506116895f830184611667565b92915050565b5f602082840312156116a4576116a3611408565b5b5f6116b18482850161142f565b91505092915050565b6116c381611410565b82525050565b5f6020820190506116dc5f8301846116ba565b92915050565b5f819050919050565b5f6117056117006116fb84611637565b6116e2565b611637565b9050919050565b5f611716826116eb565b9050919050565b5f6117278261170c565b9050919050565b6117378161171d565b82525050565b5f6020820190506117505f83018461172e565b92915050565b61175f81611481565b8114611769575f5ffd5b50565b5f8135905061177a81611756565b92915050565b5f6020828403121561179557611794611408565b5b5f6117a28482850161176c565b91505092915050565b6117b481611656565b81146117be575f5ffd5b50565b5f813590506117cf816117ab565b92915050565b5f602082840312156117ea576117e9611408565b5b5f6117f7848285016117c1565b91505092915050565b5f5ffd5b5f6060828403121561181957611818611800565b5b81905092915050565b5f6020828403121561183757611836611408565b5b5f82013567ffffffffffffffff8111156118545761185361140c565b5b61186084828501611804565b91505092915050565b5f82825260208201905092915050565b7f6d73672e73656e646572206973206e6f742065746620726f75746572000000005f82015250565b5f6118ad601c83611869565b91506118b882611879565b602082019050919050565b5f6020820190508181035f8301526118da816118a1565b9050919050565b7f457466466163746f72793a2074726164652076616c7565206973207a65726f005f82015250565b5f611915601f83611869565b9150611920826118e1565b602082019050919050565b5f6020820190508181035f83015261194281611909565b9050919050565b5f8151905061195781611419565b92915050565b5f6020828403121561197257611971611408565b5b5f61197f84828501611949565b91505092915050565b7f457466466163746f72793a20574554482f555344207072696365206973207a655f8201527f726f000000000000000000000000000000000000000000000000000000000000602082015250565b5f6119e2602283611869565b91506119ed82611988565b604082019050919050565b5f6020820190508181035f830152611a0f816119d6565b9050919050565b7f4e487b71000000000000000000000000000000000000000000000000000000005f52601160045260245ffd5b5f611a4d82611410565b9150611a5883611410565b9250828202611a6681611410565b91508282048414831517611a7d57611a7c611a16565b5b5092915050565b7f4e487b71000000000000000000000000000000000000000000000000000000005f52601260045260245ffd5b5f611abb82611410565b9150611ac683611410565b925082611ad657611ad5611a84565b5b828204905092915050565b5f611aeb82611410565b9150611af683611410565b9250828201905080821115611b0e57611b0d611a16565b5b92915050565b5f81519050919050565b8281835e5f83830152505050565b5f611b3682611b14565b611b408185611869565b9350611b50818560208601611b1e565b611b59816114bc565b840191505092915050565b5f6020820190508181035f830152611b7c8184611b2c565b905092915050565b5f81519050611b92816117ab565b92915050565b5f60208284031215611bad57611bac611408565b5b5f611bba84828501611b84565b91505092915050565b7f43616c6c6572206973206e6f7420746865206f776e65720000000000000000005f82015250565b5f611bf7601783611869565b9150611c0282611bc3565b602082019050919050565b5f6020820190508181035f830152611c2481611beb565b9050919050565b7f436f6e7472616374206973206e6f7420616374697665000000000000000000005f82015250565b5f611c5f601683611869565b9150611c6a82611c2b565b602082019050919050565b5f6020820190508181035f830152611c8c81611c53565b9050919050565b5f5ffd5b5f5ffd5b5f5ffd5b5f5f83356001602003843603038112611cbb57611cba611c9b565b5b83810192508235915060208301925067ffffffffffffffff821115611ce357611ce2611c93565b5b600182023603831315611cf957611cf8611c97565b5b509250929050565b5f82825260208201905092915050565b5f611d1c8385611d01565b9350611d29838584611574565b611d32836114bc565b840190509392505050565b5f5f83356001602003843603038112611d5957611d58611c9b565b5b83810192508235915060208301925067ffffffffffffffff821115611d8157611d80611c93565b5b604082023603831315611d9757611d96611c97565b5b509250929050565b5f82825260208201905092915050565b5f819050919050565b5f611dc660208401846117c1565b905092915050565b611dd781611656565b82525050565b5f61ffff82169050919050565b611df381611ddd565b8114611dfd575f5ffd5b50565b5f81359050611e0e81611dea565b92915050565b5f611e226020840184611e00565b905092915050565b611e3381611ddd565b82525050565b60408201611e495f830183611db8565b611e555f850182611dce565b50611e636020830183611e14565b611e706020850182611e2a565b50505050565b5f611e818383611e39565b60408301905092915050565b5f82905092915050565b5f604082019050919050565b5f611eae8385611d9f565b9350611eb982611daf565b805f5b85811015611ef157611ece8284611e8d565b611ed88882611e76565b9750611ee383611e97565b925050600181019050611ebc565b5085925050509392505050565b5f60608301611f0f5f840184611c9f565b8583035f870152611f21838284611d11565b92505050611f326020840184611c9f565b8583036020870152611f45838284611d11565b92505050611f566040840184611d3d565b8583036040870152611f69838284611ea3565b925050508091505092915050565b5f6020820190508181035f830152611f8f8184611efe565b905092915050565b5f5ffd5b5f5ffd5b5f5ffd5b5f5f83356001602003843603038112611fbf57611fbe611f97565b5b80840192508235915067ffffffffffffffff821115611fe157611fe0611f9b565b5b602083019250600182023603831315611ffd57611ffc611f9f565b5b509250929050565b5f6120108385611869565b935061201d838584611574565b612026836114bc565b840190509392505050565b5f6060820190506120445f8301886116ba565b8181036020830152612057818688612005565b9050818103604083015261206c818486612005565b90509695505050505050565b5f60408201905061208b5f830185611667565b6120986020830184611667565b9392505050565b7f4469726563746f72792063616e6e6f74206265207a65726f20616464726573735f82015250565b5f6120d3602083611869565b91506120de8261209f565b602082019050919050565b5f6020820190508181035f830152612100816120c7565b9050919050565b7f4469726563746f7279206d757374206265206120636f6e7472616374000000005f82015250565b5f61213b601c83611869565b915061214682612107565b602082019050919050565b5f6020820190508181035f8301526121688161212f565b9050919050565b7f4469726563746f7279206164647265737320646f6573206e6f7420696d706c655f8201527f6d656e74206f776e657228290000000000000000000000000000000000000000602082015250565b5f6121c9602c83611869565b91506121d48261216f565b604082019050919050565b5f6020820190508181035f8301526121f6816121bd565b9050919050565b5f5ffd5b5f5ffd5b5f61221761221284611544565b61152a565b905082815260208101848484011115612233576122326114b8565b5b61223e848285611b1e565b509392505050565b5f82601f83011261225a576122596114b4565b5b815161226a848260208601612205565b91505092915050565b5f67ffffffffffffffff82111561228d5761228c6114cc565b5b602082029050602081019050919050565b5f5ffd5b5f815190506122b081611dea565b92915050565b5f604082840312156122cb576122ca6121fd565b5b6122d5604061152a565b90505f6122e484828501611b84565b5f8301525060206122f7848285016122a2565b60208301525092915050565b5f61231561231084612273565b61152a565b905080838252602082019050604084028301858111156123385761233761229e565b5b835b81811015612361578061234d88826122b6565b84526020840193505060408101905061233a565b5050509392505050565b5f82601f83011261237f5761237e6114b4565b5b815161238f848260208601612303565b91505092915050565b5f606082840312156123ad576123ac6121fd565b5b6123b7606061152a565b90505f82015167ffffffffffffffff8111156123d6576123d5612201565b5b6123e284828501612246565b5f83015250602082015167ffffffffffffffff81111561240557612404612201565b5b61241184828501612246565b602083015250604082015167ffffffffffffffff81111561243557612434612201565b5b6124418482850161236b565b60408301525092915050565b5f6020828403121561246257612461611408565b5b5f82015167ffffffffffffffff81111561247f5761247e61140c565b5b61248b84828501612398565b91505092915050565b7f4e487b71000000000000000000000000000000000000000000000000000000005f52603260045260245ffdfea2646970667358221220157b4a2676f51af3288c00b05c49916f8f5ad9160430c0dfae5ec54f64adf57a64736f6c634300081e0033",
			"opcodes": "PUSH1 0x80 PUSH1 0x40 MSTORE PUSH1 0x1 PUSH1 0x6 PUSH0 PUSH2 0x100 EXP DUP2 SLOAD DUP2 PUSH1 0xFF MUL NOT AND SWAP1 DUP4 ISZERO ISZERO MUL OR SWAP1 SSTORE POP CALLVALUE DUP1 ISZERO PUSH2 0x29 JUMPI PUSH0 PUSH0 REVERT JUMPDEST POP PUSH1 0x40 MLOAD PUSH2 0x290E CODESIZE SUB DUP1 PUSH2 0x290E DUP4 CODECOPY DUP2 DUP2 ADD PUSH1 0x40 MSTORE DUP2 ADD SWAP1 PUSH2 0x4B SWAP2 SWAP1 PUSH2 0x271 JUMP JUMPDEST DUP1 PUSH2 0x5B DUP2 PUSH2 0x62 PUSH1 0x20 SHL PUSH1 0x20 SHR JUMP JUMPDEST POP POP PUSH2 0x40A JUMP JUMPDEST PUSH0 PUSH20 0xFFFFFFFFFFFFFFFFFFFFFFFFFFFFFFFFFFFFFFFF AND DUP2 PUSH20 0xFFFFFFFFFFFFFFFFFFFFFFFFFFFFFFFFFFFFFFFF AND SUB PUSH2 0xD0 JUMPI PUSH1 0x40 MLOAD PUSH32 0x8C379A000000000000000000000000000000000000000000000000000000000 DUP2 MSTORE PUSH1 0x4 ADD PUSH2 0xC7 SWAP1 PUSH2 0x2F6 JUMP JUMPDEST PUSH1 0x40 MLOAD DUP1 SWAP2 SUB SWAP1 REVERT JUMPDEST PUSH0 DUP2 PUSH20 0xFFFFFFFFFFFFFFFFFFFFFFFFFFFFFFFFFFFFFFFF AND EXTCODESIZE GT PUSH2 0x129 JUMPI PUSH1 0x40 MLOAD PUSH32 0x8C379A000000000000000000000000000000000000000000000000000000000 DUP2 MSTORE PUSH1 0x4 ADD PUSH2 0x120 SWAP1 PUSH2 0x35E JUMP JUMPDEST PUSH1 0x40 MLOAD DUP1 SWAP2 SUB SWAP1 REVERT JUMPDEST DUP1 PUSH20 0xFFFFFFFFFFFFFFFFFFFFFFFFFFFFFFFFFFFFFFFF AND PUSH4 0x8DA5CB5B PUSH1 0x40 MLOAD DUP2 PUSH4 0xFFFFFFFF AND PUSH1 0xE0 SHL DUP2 MSTORE PUSH1 0x4 ADD PUSH1 0x20 PUSH1 0x40 MLOAD DUP1 DUP4 SUB DUP2 DUP7 GAS STATICCALL SWAP3 POP POP POP DUP1 ISZERO PUSH2 0x191 JUMPI POP PUSH1 0x40 MLOAD RETURNDATASIZE PUSH1 0x1F NOT PUSH1 0x1F DUP3 ADD AND DUP3 ADD DUP1 PUSH1 0x40 MSTORE POP DUP2 ADD SWAP1 PUSH2 0x18E SWAP2 SWAP1 PUSH2 0x271 JUMP JUMPDEST PUSH1 0x1 JUMPDEST PUSH2 0x1D0 JUMPI PUSH1 0x40 MLOAD PUSH32 0x8C379A000000000000000000000000000000000000000000000000000000000 DUP2 MSTORE PUSH1 0x4 ADD PUSH2 0x1C7 SWAP1 PUSH2 0x3EC JUMP JUMPDEST PUSH1 0x40 MLOAD DUP1 SWAP2 SUB SWAP1 REVERT JUMPDEST DUP2 PUSH0 PUSH0 PUSH2 0x100 EXP DUP2 SLOAD DUP2 PUSH20 0xFFFFFFFFFFFFFFFFFFFFFFFFFFFFFFFFFFFFFFFF MUL NOT AND SWAP1 DUP4 PUSH20 0xFFFFFFFFFFFFFFFFFFFFFFFFFFFFFFFFFFFFFFFF AND MUL OR SWAP1 SSTORE POP POP POP JUMP JUMPDEST PUSH0 PUSH0 REVERT JUMPDEST PUSH0 PUSH20 0xFFFFFFFFFFFFFFFFFFFFFFFFFFFFFFFFFFFFFFFF DUP3 AND SWAP1 POP SWAP2 SWAP1 POP JUMP JUMPDEST PUSH0 PUSH2 0x240 DUP3 PUSH2 0x217 JUMP JUMPDEST SWAP1 POP SWAP2 SWAP1 POP JUMP JUMPDEST PUSH2 0x250 DUP2 PUSH2 0x236 JUMP JUMPDEST DUP2 EQ PUSH2 0x25A JUMPI PUSH0 PUSH0 REVERT JUMPDEST POP JUMP JUMPDEST PUSH0 DUP2 MLOAD SWAP1 POP PUSH2 0x26B DUP2 PUSH2 0x247 JUMP JUMPDEST SWAP3 SWAP2 POP POP JUMP JUMPDEST PUSH0 PUSH1 0x20 DUP3 DUP5 SUB SLT ISZERO PUSH2 0x286 JUMPI PUSH2 0x285 PUSH2 0x213 JUMP JUMPDEST JUMPDEST PUSH0 PUSH2 0x293 DUP5 DUP3 DUP6 ADD PUSH2 0x25D JUMP JUMPDEST SWAP2 POP POP SWAP3 SWAP2 POP POP JUMP JUMPDEST PUSH0 DUP3 DUP3 MSTORE PUSH1 0x20 DUP3 ADD SWAP1 POP SWAP3 SWAP2 POP POP JUMP JUMPDEST PUSH32 0x4469726563746F72792063616E6E6F74206265207A65726F2061646472657373 PUSH0 DUP3 ADD MSTORE POP JUMP JUMPDEST PUSH0 PUSH2 0x2E0 PUSH1 0x20 DUP4 PUSH2 0x29C JUMP JUMPDEST SWAP2 POP PUSH2 0x2EB DUP3 PUSH2 0x2AC JUMP JUMPDEST PUSH1 0x20 DUP3 ADD SWAP1 POP SWAP2 SWAP1 POP JUMP JUMPDEST PUSH0 PUSH1 0x20 DUP3 ADD SWAP1 POP DUP2 DUP2 SUB PUSH0 DUP4 ADD MSTORE PUSH2 0x30D DUP2 PUSH2 0x2D4 JUMP JUMPDEST SWAP1 POP SWAP2 SWAP1 POP JUMP JUMPDEST PUSH32 0x4469726563746F7279206D757374206265206120636F6E747261637400000000 PUSH0 DUP3 ADD MSTORE POP JUMP JUMPDEST PUSH0 PUSH2 0x348 PUSH1 0x1C DUP4 PUSH2 0x29C JUMP JUMPDEST SWAP2 POP PUSH2 0x353 DUP3 PUSH2 0x314 JUMP JUMPDEST PUSH1 0x20 DUP3 ADD SWAP1 POP SWAP2 SWAP1 POP JUMP JUMPDEST PUSH0 PUSH1 0x20 DUP3 ADD SWAP1 POP DUP2 DUP2 SUB PUSH0 DUP4 ADD MSTORE PUSH2 0x375 DUP2 PUSH2 0x33C JUMP JUMPDEST SWAP1 POP SWAP2 SWAP1 POP JUMP JUMPDEST PUSH32 0x4469726563746F7279206164647265737320646F6573206E6F7420696D706C65 PUSH0 DUP3 ADD MSTORE PUSH32 0x6D656E74206F776E657228290000000000000000000000000000000000000000 PUSH1 0x20 DUP3 ADD MSTORE POP JUMP JUMPDEST PUSH0 PUSH2 0x3D6 PUSH1 0x2C DUP4 PUSH2 0x29C JUMP JUMPDEST SWAP2 POP PUSH2 0x3E1 DUP3 PUSH2 0x37C JUMP JUMPDEST PUSH1 0x40 DUP3 ADD SWAP1 POP SWAP2 SWAP1 POP JUMP JUMPDEST PUSH0 PUSH1 0x20 DUP3 ADD SWAP1 POP DUP2 DUP2 SUB PUSH0 DUP4 ADD MSTORE PUSH2 0x403 DUP2 PUSH2 0x3CA JUMP JUMPDEST SWAP1 POP SWAP2 SWAP1 POP JUMP JUMPDEST PUSH2 0x24F7 DUP1 PUSH2 0x417 PUSH0 CODECOPY PUSH0 RETURN INVALID PUSH1 0x80 PUSH1 0x40 MSTORE CALLVALUE DUP1 ISZERO PUSH2 0xF JUMPI PUSH0 PUSH0 REVERT JUMPDEST POP PUSH1 0x4 CALLDATASIZE LT PUSH2 0xF3 JUMPI PUSH0 CALLDATALOAD PUSH1 0xE0 SHR DUP1 PUSH4 0x8DA5CB5B GT PUSH2 0x95 JUMPI DUP1 PUSH4 0xC4EDA09E GT PUSH2 0x64 JUMPI DUP1 PUSH4 0xC4EDA09E EQ PUSH2 0x295 JUMPI DUP1 PUSH4 0xD00ED651 EQ PUSH2 0x2B1 JUMPI DUP1 PUSH4 0xE4B603B3 EQ PUSH2 0x2E1 JUMPI DUP1 PUSH4 0xF2018A1F EQ PUSH2 0x311 JUMPI PUSH2 0xF3 JUMP JUMPDEST DUP1 PUSH4 0x8DA5CB5B EQ PUSH2 0x20F JUMPI DUP1 PUSH4 0x9CFE0B3B EQ PUSH2 0x22D JUMPI DUP1 PUSH4 0xACEC338A EQ PUSH2 0x25D JUMPI DUP1 PUSH4 0xBA4C7BE1 EQ PUSH2 0x279 JUMPI PUSH2 0xF3 JUMP JUMPDEST DUP1 PUSH4 0x3EE79962 GT PUSH2 0xD1 JUMPI DUP1 PUSH4 0x3EE79962 EQ PUSH2 0x161 JUMPI DUP1 PUSH4 0x4EEA0E0D EQ PUSH2 0x191 JUMPI DUP1 PUSH4 0x658A847A EQ PUSH2 0x1C1 JUMPI DUP1 PUSH4 0x65A8F8B5 EQ PUSH2 0x1DF JUMPI PUSH2 0xF3 JUMP JUMPDEST DUP1 PUSH4 0x1626542C EQ PUSH2 0xF7 JUMPI DUP1 PUSH4 0x22F3E2D4 EQ PUSH2 0x113 JUMPI DUP1 PUSH4 0x27262618 EQ PUSH2 0x131 JUMPI JUMPDEST PUSH0 PUSH0 REVERT JUMPDEST PUSH2 0x111 PUSH1 0x4 DUP1 CALLDATASIZE SUB DUP2 ADD SWAP1 PUSH2 0x10C SWAP2 SWAP1 PUSH2 0x1443 JUMP JUMPDEST PUSH2 0x341 JUMP JUMPDEST STOP JUMPDEST PUSH2 0x11B PUSH2 0x55D JUMP JUMPDEST PUSH1 0x40 MLOAD PUSH2 0x128 SWAP2 SWAP1 PUSH2 0x149B JUMP JUMPDEST PUSH1 0x40 MLOAD DUP1 SWAP2 SUB SWAP1 RETURN JUMPDEST PUSH2 0x14B PUSH1 0x4 DUP1 CALLDATASIZE SUB DUP2 ADD SWAP1 PUSH2 0x146 SWAP2 SWAP1 PUSH2 0x15F0 JUMP JUMPDEST PUSH2 0x56F JUMP JUMPDEST PUSH1 0x40 MLOAD PUSH2 0x158 SWAP2 SWAP1 PUSH2 0x1676 JUMP JUMPDEST PUSH1 0x40 MLOAD DUP1 SWAP2 SUB SWAP1 RETURN JUMPDEST PUSH2 0x17B PUSH1 0x4 DUP1 CALLDATASIZE SUB DUP2 ADD SWAP1 PUSH2 0x176 SWAP2 SWAP1 PUSH2 0x168F JUMP JUMPDEST PUSH2 0x60F JUMP JUMPDEST PUSH1 0x40 MLOAD PUSH2 0x188 SWAP2 SWAP1 PUSH2 0x1676 JUMP JUMPDEST PUSH1 0x40 MLOAD DUP1 SWAP2 SUB SWAP1 RETURN JUMPDEST PUSH2 0x1AB PUSH1 0x4 DUP1 CALLDATASIZE SUB DUP2 ADD SWAP1 PUSH2 0x1A6 SWAP2 SWAP1 PUSH2 0x168F JUMP JUMPDEST PUSH2 0x620 JUMP JUMPDEST PUSH1 0x40 MLOAD PUSH2 0x1B8 SWAP2 SWAP1 PUSH2 0x16C9 JUMP JUMPDEST PUSH1 0x40 MLOAD DUP1 SWAP2 SUB SWAP1 RETURN JUMPDEST PUSH2 0x1C9 PUSH2 0x63A JUMP JUMPDEST PUSH1 0x40 MLOAD PUSH2 0x1D6 SWAP2 SWAP1 PUSH2 0x173D JUMP JUMPDEST PUSH1 0x40 MLOAD DUP1 SWAP2 SUB SWAP1 RETURN JUMPDEST PUSH2 0x1F9 PUSH1 0x4 DUP1 CALLDATASIZE SUB DUP2 ADD SWAP1 PUSH2 0x1F4 SWAP2 SWAP1 PUSH2 0x168F JUMP JUMPDEST PUSH2 0x65E JUMP JUMPDEST PUSH1 0x40 MLOAD PUSH2 0x206 SWAP2 SWAP1 PUSH2 0x16C9 JUMP JUMPDEST PUSH1 0x40 MLOAD DUP1 SWAP2 SUB SWAP1 RETURN JUMPDEST PUSH2 0x217 PUSH2 0x66F JUMP JUMPDEST PUSH1 0x40 MLOAD PUSH2 0x224 SWAP2 SWAP1 PUSH2 0x1676 JUMP JUMPDEST PUSH1 0x40 MLOAD DUP1 SWAP2 SUB SWAP1 RETURN JUMPDEST PUSH2 0x247 PUSH1 0x4 DUP1 CALLDATASIZE SUB DUP2 ADD SWAP1 PUSH2 0x242 SWAP2 SWAP1 PUSH2 0x168F JUMP JUMPDEST PUSH2 0x702 JUMP JUMPDEST PUSH1 0x40 MLOAD PUSH2 0x254 SWAP2 SWAP1 PUSH2 0x16C9 JUMP JUMPDEST PUSH1 0x40 MLOAD DUP1 SWAP2 SUB SWAP1 RETURN JUMPDEST PUSH2 0x277 PUSH1 0x4 DUP1 CALLDATASIZE SUB DUP2 ADD SWAP1 PUSH2 0x272 SWAP2 SWAP1 PUSH2 0x1780 JUMP JUMPDEST PUSH2 0x71C JUMP JUMPDEST STOP JUMPDEST PUSH2 0x293 PUSH1 0x4 DUP1 CALLDATASIZE SUB DUP2 ADD SWAP1 PUSH2 0x28E SWAP2 SWAP1 PUSH2 0x17D5 JUMP JUMPDEST PUSH2 0x832 JUMP JUMPDEST STOP JUMPDEST PUSH2 0x2AF PUSH1 0x4 DUP1 CALLDATASIZE SUB DUP2 ADD SWAP1 PUSH2 0x2AA SWAP2 SWAP1 PUSH2 0x1822 JUMP JUMPDEST PUSH2 0x938 JUMP JUMPDEST STOP JUMPDEST PUSH2 0x2CB PUSH1 0x4 DUP1 CALLDATASIZE SUB DUP2 ADD SWAP1 PUSH2 0x2C6 SWAP2 SWAP1 PUSH2 0x17D5 JUMP JUMPDEST PUSH2 0xD4C JUMP JUMPDEST PUSH1 0x40 MLOAD PUSH2 0x2D8 SWAP2 SWAP1 PUSH2 0x16C9 JUMP JUMPDEST PUSH1 0x40 MLOAD DUP1 SWAP2 SUB SWAP1 RETURN JUMPDEST PUSH2 0x2FB PUSH1 0x4 DUP1 CALLDATASIZE SUB DUP2 ADD SWAP1 PUSH2 0x2F6 SWAP2 SWAP1 PUSH2 0x168F JUMP JUMPDEST PUSH2 0xD92 JUMP JUMPDEST PUSH1 0x40 MLOAD PUSH2 0x308 SWAP2 SWAP1 PUSH2 0x16C9 JUMP JUMPDEST PUSH1 0x40 MLOAD DUP1 SWAP2 SUB SWAP1 RETURN JUMPDEST PUSH2 0x32B PUSH1 0x4 DUP1 CALLDATASIZE SUB DUP2 ADD SWAP1 PUSH2 0x326 SWAP2 SWAP1 PUSH2 0x168F JUMP JUMPDEST PUSH2 0xDA3 JUMP JUMPDEST PUSH1 0x40 MLOAD PUSH2 0x338 SWAP2 SWAP1 PUSH2 0x1676 JUMP JUMPDEST PUSH1 0x40 MLOAD DUP1 SWAP2 SUB SWAP1 RETURN JUMPDEST PUSH2 0x37F PUSH1 0x40 MLOAD DUP1 PUSH1 0x40 ADD PUSH1 0x40 MSTORE DUP1 PUSH1 0xA DUP2 MSTORE PUSH1 0x20 ADD PUSH32 0x6574662D726F7574657200000000000000000000000000000000000000000000 DUP2 MSTORE POP PUSH2 0x56F JUMP JUMPDEST PUSH20 0xFFFFFFFFFFFFFFFFFFFFFFFFFFFFFFFFFFFFFFFF AND CALLER PUSH20 0xFFFFFFFFFFFFFFFFFFFFFFFFFFFFFFFFFFFFFFFF AND EQ PUSH2 0x3EC JUMPI PUSH1 0x40 MLOAD PUSH32 0x8C379A000000000000000000000000000000000000000000000000000000000 DUP2 MSTORE PUSH1 0x4 ADD PUSH2 0x3E3 SWAP1 PUSH2 0x18C3 JUMP JUMPDEST PUSH1 0x40 MLOAD DUP1 SWAP2 SUB SWAP1 REVERT JUMPDEST PUSH0 DUP2 GT PUSH2 0x42E JUMPI PUSH1 0x40 MLOAD PUSH32 0x8C379A000000000000000000000000000000000000000000000000000000000 DUP2 MSTORE PUSH1 0x4 ADD PUSH2 0x425 SWAP1 PUSH2 0x192B JUMP JUMPDEST PUSH1 0x40 MLOAD DUP1 SWAP2 SUB SWAP1 REVERT JUMPDEST PUSH0 PUSH2 0x437 PUSH2 0xDB4 JUMP JUMPDEST PUSH20 0xFFFFFFFFFFFFFFFFFFFFFFFFFFFFFFFFFFFFFFFF AND PUSH4 0x6855E939 PUSH1 0x40 MLOAD DUP2 PUSH4 0xFFFFFFFF AND PUSH1 0xE0 SHL DUP2 MSTORE PUSH1 0x4 ADD PUSH1 0x20 PUSH1 0x40 MLOAD DUP1 DUP4 SUB DUP2 DUP7 GAS STATICCALL ISZERO DUP1 ISZERO PUSH2 0x47F JUMPI RETURNDATASIZE PUSH0 PUSH0 RETURNDATACOPY RETURNDATASIZE PUSH0 REVERT JUMPDEST POP POP POP POP PUSH1 0x40 MLOAD RETURNDATASIZE PUSH1 0x1F NOT PUSH1 0x1F DUP3 ADD AND DUP3 ADD DUP1 PUSH1 0x40 MSTORE POP DUP2 ADD SWAP1 PUSH2 0x4A3 SWAP2 SWAP1 PUSH2 0x195D JUMP JUMPDEST SWAP1 POP PUSH0 DUP2 GT PUSH2 0x4E7 JUMPI PUSH1 0x40 MLOAD PUSH32 0x8C379A000000000000000000000000000000000000000000000000000000000 DUP2 MSTORE PUSH1 0x4 ADD PUSH2 0x4DE SWAP1 PUSH2 0x19F8 JUMP JUMPDEST PUSH1 0x40 MLOAD DUP1 SWAP2 SUB SWAP1 REVERT JUMPDEST PUSH0 PUSH8 0xDE0B6B3A7640000 DUP3 DUP5 PUSH2 0x4FD SWAP2 SWAP1 PUSH2 0x1A43 JUMP JUMPDEST PUSH2 0x507 SWAP2 SWAP1 PUSH2 0x1AB1 JUMP JUMPDEST SWAP1 POP DUP3 PUSH1 0x4 PUSH0 DUP7 DUP2 MSTORE PUSH1 0x20 ADD SWAP1 DUP2 MSTORE PUSH1 0x20 ADD PUSH0 KECCAK256 PUSH0 DUP3 DUP3 SLOAD PUSH2 0x529 SWAP2 SWAP1 PUSH2 0x1AE1 JUMP JUMPDEST SWAP3 POP POP DUP2 SWAP1 SSTORE POP DUP1 PUSH1 0x5 PUSH0 DUP7 DUP2 MSTORE PUSH1 0x20 ADD SWAP1 DUP2 MSTORE PUSH1 0x20 ADD PUSH0 KECCAK256 PUSH0 DUP3 DUP3 SLOAD PUSH2 0x550 SWAP2 SWAP1 PUSH2 0x1AE1 JUMP JUMPDEST SWAP3 POP POP DUP2 SWAP1 SSTORE POP POP POP POP POP JUMP JUMPDEST PUSH1 0x6 PUSH0 SWAP1 SLOAD SWAP1 PUSH2 0x100 EXP SWAP1 DIV PUSH1 0xFF AND DUP2 JUMP JUMPDEST PUSH0 PUSH0 PUSH0 SWAP1 SLOAD SWAP1 PUSH2 0x100 EXP SWAP1 DIV PUSH20 0xFFFFFFFFFFFFFFFFFFFFFFFFFFFFFFFFFFFFFFFF AND PUSH20 0xFFFFFFFFFFFFFFFFFFFFFFFFFFFFFFFFFFFFFFFF AND PUSH4 0x27262618 DUP4 PUSH1 0x40 MLOAD DUP3 PUSH4 0xFFFFFFFF AND PUSH1 0xE0 SHL DUP2 MSTORE PUSH1 0x4 ADD PUSH2 0x5C9 SWAP2 SWAP1 PUSH2 0x1B64 JUMP JUMPDEST PUSH1 0x20 PUSH1 0x40 MLOAD DUP1 DUP4 SUB DUP2 DUP7 GAS STATICCALL ISZERO DUP1 ISZERO PUSH2 0x5E4 JUMPI RETURNDATASIZE PUSH0 PUSH0 RETURNDATACOPY RETURNDATASIZE PUSH0 REVERT JUMPDEST POP POP POP POP PUSH1 0x40 MLOAD RETURNDATASIZE PUSH1 0x1F NOT PUSH1 0x1F DUP3 ADD AND DUP3 ADD DUP1 PUSH1 0x40 MSTORE POP DUP2 ADD SWAP1 PUSH2 0x608 SWAP2 SWAP1 PUSH2 0x1B98 JUMP JUMPDEST SWAP1 POP SWAP2 SWAP1 POP JUMP JUMPDEST PUSH0 PUSH2 0x619 DUP3 PUSH2 0xDF8 JUMP JUMPDEST SWAP1 POP SWAP2 SWAP1 POP JUMP JUMPDEST PUSH0 PUSH1 0x4 PUSH0 DUP4 DUP2 MSTORE PUSH1 0x20 ADD SWAP1 DUP2 MSTORE PUSH1 0x20 ADD PUSH0 KECCAK256 SLOAD SWAP1 POP SWAP2 SWAP1 POP JUMP JUMPDEST PUSH0 PUSH0 SWAP1 SLOAD SWAP1 PUSH2 0x100 EXP SWAP1 DIV PUSH20 0xFFFFFFFFFFFFFFFFFFFFFFFFFFFFFFFFFFFFFFFF AND DUP2 JUMP JUMPDEST PUSH0 PUSH2 0x668 DUP3 PUSH2 0xE31 JUMP JUMPDEST SWAP1 POP SWAP2 SWAP1 POP JUMP JUMPDEST PUSH0 PUSH0 PUSH0 SWAP1 SLOAD SWAP1 PUSH2 0x100 EXP SWAP1 DIV PUSH20 0xFFFFFFFFFFFFFFFFFFFFFFFFFFFFFFFFFFFFFFFF AND PUSH20 0xFFFFFFFFFFFFFFFFFFFFFFFFFFFFFFFFFFFFFFFF AND PUSH4 0x8DA5CB5B PUSH1 0x40 MLOAD DUP2 PUSH4 0xFFFFFFFF AND PUSH1 0xE0 SHL DUP2 MSTORE PUSH1 0x4 ADD PUSH1 0x20 PUSH1 0x40 MLOAD DUP1 DUP4 SUB DUP2 DUP7 GAS STATICCALL ISZERO DUP1 ISZERO PUSH2 0x6D9 JUMPI RETURNDATASIZE PUSH0 PUSH0 RETURNDATACOPY RETURNDATASIZE PUSH0 REVERT JUMPDEST POP POP POP POP PUSH1 0x40 MLOAD RETURNDATASIZE PUSH1 0x1F NOT PUSH1 0x1F DUP3 ADD AND DUP3 ADD DUP1 PUSH1 0x40 MSTORE POP DUP2 ADD SWAP1 PUSH2 0x6FD SWAP2 SWAP1 PUSH2 0x1B98 JUMP JUMPDEST SWAP1 POP SWAP1 JUMP JUMPDEST PUSH0 PUSH1 0x5 PUSH0 DUP4 DUP2 MSTORE PUSH1 0x20 ADD SWAP1 DUP2 MSTORE PUSH1 0x20 ADD PUSH0 KECCAK256 SLOAD SWAP1 POP SWAP2 SWAP1 POP JUMP JUMPDEST PUSH0 PUSH0 SWAP1 SLOAD SWAP1 PUSH2 0x100 EXP SWAP1 DIV PUSH20 0xFFFFFFFFFFFFFFFFFFFFFFFFFFFFFFFFFFFFFFFF AND PUSH20 0xFFFFFFFFFFFFFFFFFFFFFFFFFFFFFFFFFFFFFFFF AND PUSH4 0x8DA5CB5B PUSH1 0x40 MLOAD DUP2 PUSH4 0xFFFFFFFF AND PUSH1 0xE0 SHL DUP2 MSTORE PUSH1 0x4 ADD PUSH1 0x20 PUSH1 0x40 MLOAD DUP1 DUP4 SUB DUP2 DUP7 GAS STATICCALL ISZERO DUP1 ISZERO PUSH2 0x785 JUMPI RETURNDATASIZE PUSH0 PUSH0 RETURNDATACOPY RETURNDATASIZE PUSH0 REVERT JUMPDEST POP POP POP POP PUSH1 0x40 MLOAD RETURNDATASIZE PUSH1 0x1F NOT PUSH1 0x1F DUP3 ADD AND DUP3 ADD DUP1 PUSH1 0x40 MSTORE POP DUP2 ADD SWAP1 PUSH2 0x7A9 SWAP2 SWAP1 PUSH2 0x1B98 JUMP JUMPDEST PUSH20 0xFFFFFFFFFFFFFFFFFFFFFFFFFFFFFFFFFFFFFFFF AND CALLER PUSH20 0xFFFFFFFFFFFFFFFFFFFFFFFFFFFFFFFFFFFFFFFF AND EQ PUSH2 0x816 JUMPI PUSH1 0x40 MLOAD PUSH32 0x8C379A000000000000000000000000000000000000000000000000000000000 DUP2 MSTORE PUSH1 0x4 ADD PUSH2 0x80D SWAP1 PUSH2 0x1C0D JUMP JUMPDEST PUSH1 0x40 MLOAD DUP1 SWAP2 SUB SWAP1 REVERT JUMPDEST DUP1 PUSH1 0x6 PUSH0 PUSH2 0x100 EXP DUP2 SLOAD DUP2 PUSH1 0xFF MUL NOT AND SWAP1 DUP4 ISZERO ISZERO MUL OR SWAP1 SSTORE POP POP JUMP JUMPDEST PUSH0 PUSH0 SWAP1 SLOAD SWAP1 PUSH2 0x100 EXP SWAP1 DIV PUSH20 0xFFFFFFFFFFFFFFFFFFFFFFFFFFFFFFFFFFFFFFFF AND PUSH20 0xFFFFFFFFFFFFFFFFFFFFFFFFFFFFFFFFFFFFFFFF AND PUSH4 0x8DA5CB5B PUSH1 0x40 MLOAD DUP2 PUSH4 0xFFFFFFFF AND PUSH1 0xE0 SHL DUP2 MSTORE PUSH1 0x4 ADD PUSH1 0x20 PUSH1 0x40 MLOAD DUP1 DUP4 SUB DUP2 DUP7 GAS STATICCALL ISZERO DUP1 ISZERO PUSH2 0x89B JUMPI RETURNDATASIZE PUSH0 PUSH0 RETURNDATACOPY RETURNDATASIZE PUSH0 REVERT JUMPDEST POP POP POP POP PUSH1 0x40 MLOAD RETURNDATASIZE PUSH1 0x1F NOT PUSH1 0x1F DUP3 ADD AND DUP3 ADD DUP1 PUSH1 0x40 MSTORE POP DUP2 ADD SWAP1 PUSH2 0x8BF SWAP2 SWAP1 PUSH2 0x1B98 JUMP JUMPDEST PUSH20 0xFFFFFFFFFFFFFFFFFFFFFFFFFFFFFFFFFFFFFFFF AND CALLER PUSH20 0xFFFFFFFFFFFFFFFFFFFFFFFFFFFFFFFFFFFFFFFF AND EQ PUSH2 0x92C JUMPI PUSH1 0x40 MLOAD PUSH32 0x8C379A000000000000000000000000000000000000000000000000000000000 DUP2 MSTORE PUSH1 0x4 ADD PUSH2 0x923 SWAP1 PUSH2 0x1C0D JUMP JUMPDEST PUSH1 0x40 MLOAD DUP1 SWAP2 SUB SWAP1 REVERT JUMPDEST PUSH2 0x935 DUP2 PUSH2 0xF30 JUMP JUMPDEST POP JUMP JUMPDEST PUSH0 PUSH0 SWAP1 SLOAD SWAP1 PUSH2 0x100 EXP SWAP1 DIV PUSH20 0xFFFFFFFFFFFFFFFFFFFFFFFFFFFFFFFFFFFFFFFF AND PUSH20 0xFFFFFFFFFFFFFFFFFFFFFFFFFFFFFFFFFFFFFFFF AND PUSH4 0x8DA5CB5B PUSH1 0x40 MLOAD DUP2 PUSH4 0xFFFFFFFF AND PUSH1 0xE0 SHL DUP2 MSTORE PUSH1 0x4 ADD PUSH1 0x20 PUSH1 0x40 MLOAD DUP1 DUP4 SUB DUP2 DUP7 GAS STATICCALL ISZERO DUP1 ISZERO PUSH2 0x9A1 JUMPI RETURNDATASIZE PUSH0 PUSH0 RETURNDATACOPY RETURNDATASIZE PUSH0 REVERT JUMPDEST POP POP POP POP PUSH1 0x40 MLOAD RETURNDATASIZE PUSH1 0x1F NOT PUSH1 0x1F DUP3 ADD AND DUP3 ADD DUP1 PUSH1 0x40 MSTORE POP DUP2 ADD SWAP1 PUSH2 0x9C5 SWAP2 SWAP1 PUSH2 0x1B98 JUMP JUMPDEST PUSH20 0xFFFFFFFFFFFFFFFFFFFFFFFFFFFFFFFFFFFFFFFF AND CALLER PUSH20 0xFFFFFFFFFFFFFFFFFFFFFFFFFFFFFFFFFFFFFFFF AND EQ PUSH2 0xA32 JUMPI PUSH1 0x40 MLOAD PUSH32 0x8C379A000000000000000000000000000000000000000000000000000000000 DUP2 MSTORE PUSH1 0x4 ADD PUSH2 0xA29 SWAP1 PUSH2 0x1C0D JUMP JUMPDEST PUSH1 0x40 MLOAD DUP1 SWAP2 SUB SWAP1 REVERT JUMPDEST PUSH1 0x6 PUSH0 SWAP1 SLOAD SWAP1 PUSH2 0x100 EXP SWAP1 DIV PUSH1 0xFF AND PUSH2 0xA80 JUMPI PUSH1 0x40 MLOAD PUSH32 0x8C379A000000000000000000000000000000000000000000000000000000000 DUP2 MSTORE PUSH1 0x4 ADD PUSH2 0xA77 SWAP1 PUSH2 0x1C75 JUMP JUMPDEST PUSH1 0x40 MLOAD DUP1 SWAP2 SUB SWAP1 REVERT JUMPDEST PUSH0 PUSH2 0xA89 PUSH2 0x10E1 JUMP JUMPDEST PUSH20 0xFFFFFFFFFFFFFFFFFFFFFFFFFFFFFFFFFFFFFFFF AND PUSH4 0x428D9A93 DUP4 PUSH1 0x40 MLOAD DUP3 PUSH4 0xFFFFFFFF AND PUSH1 0xE0 SHL DUP2 MSTORE PUSH1 0x4 ADD PUSH2 0xAC1 SWAP2 SWAP1 PUSH2 0x1F77 JUMP JUMPDEST PUSH1 0x20 PUSH1 0x40 MLOAD DUP1 DUP4 SUB DUP2 PUSH0 DUP8 GAS CALL ISZERO DUP1 ISZERO PUSH2 0xADD JUMPI RETURNDATASIZE PUSH0 PUSH0 RETURNDATACOPY RETURNDATASIZE PUSH0 REVERT JUMPDEST POP POP POP POP PUSH1 0x40 MLOAD RETURNDATASIZE PUSH1 0x1F NOT PUSH1 0x1F DUP3 ADD AND DUP3 ADD DUP1 PUSH1 0x40 MSTORE POP DUP2 ADD SWAP1 PUSH2 0xB01 SWAP2 SWAP1 PUSH2 0x195D JUMP JUMPDEST SWAP1 POP PUSH0 PUSH2 0xB0C PUSH2 0x1125 JUMP JUMPDEST PUSH20 0xFFFFFFFFFFFFFFFFFFFFFFFFFFFFFFFFFFFFFFFF AND PUSH4 0x78F6C7C4 DUP4 DUP6 DUP1 PUSH0 ADD SWAP1 PUSH2 0xB37 SWAP2 SWAP1 PUSH2 0x1FA3 JUMP JUMPDEST DUP8 DUP1 PUSH1 0x20 ADD SWAP1 PUSH2 0xB47 SWAP2 SWAP1 PUSH2 0x1FA3 JUMP JUMPDEST PUSH1 0x40 MLOAD DUP7 PUSH4 0xFFFFFFFF AND PUSH1 0xE0 SHL DUP2 MSTORE PUSH1 0x4 ADD PUSH2 0xB67 SWAP6 SWAP5 SWAP4 SWAP3 SWAP2 SWAP1 PUSH2 0x2031 JUMP JUMPDEST PUSH1 0x20 PUSH1 0x40 MLOAD DUP1 DUP4 SUB DUP2 PUSH0 DUP8 GAS CALL ISZERO DUP1 ISZERO PUSH2 0xB83 JUMPI RETURNDATASIZE PUSH0 PUSH0 RETURNDATACOPY RETURNDATASIZE PUSH0 REVERT JUMPDEST POP POP POP POP PUSH1 0x40 MLOAD RETURNDATASIZE PUSH1 0x1F NOT PUSH1 0x1F DUP3 ADD AND DUP3 ADD DUP1 PUSH1 0x40 MSTORE POP DUP2 ADD SWAP1 PUSH2 0xBA7 SWAP2 SWAP1 PUSH2 0x1B98 JUMP JUMPDEST SWAP1 POP DUP1 PUSH1 0x1 PUSH0 DUP5 DUP2 MSTORE PUSH1 0x20 ADD SWAP1 DUP2 MSTORE PUSH1 0x20 ADD PUSH0 KECCAK256 PUSH0 PUSH2 0x100 EXP DUP2 SLOAD DUP2 PUSH20 0xFFFFFFFFFFFFFFFFFFFFFFFFFFFFFFFFFFFFFFFF MUL NOT AND SWAP1 DUP4 PUSH20 0xFFFFFFFFFFFFFFFFFFFFFFFFFFFFFFFFFFFFFFFF AND MUL OR SWAP1 SSTORE POP DUP2 PUSH1 0x2 PUSH0 DUP4 PUSH20 0xFFFFFFFFFFFFFFFFFFFFFFFFFFFFFFFFFFFFFFFF AND PUSH20 0xFFFFFFFFFFFFFFFFFFFFFFFFFFFFFFFFFFFFFFFF AND DUP2 MSTORE PUSH1 0x20 ADD SWAP1 DUP2 MSTORE PUSH1 0x20 ADD PUSH0 KECCAK256 DUP2 SWAP1 SSTORE POP PUSH0 PUSH2 0xC43 PUSH2 0x1169 JUMP JUMPDEST PUSH20 0xFFFFFFFFFFFFFFFFFFFFFFFFFFFFFFFFFFFFFFFF AND PUSH4 0xB57C59A7 DUP5 PUSH1 0x40 MLOAD DUP3 PUSH4 0xFFFFFFFF AND PUSH1 0xE0 SHL DUP2 MSTORE PUSH1 0x4 ADD PUSH2 0xC7B SWAP2 SWAP1 PUSH2 0x16C9 JUMP JUMPDEST PUSH1 0x20 PUSH1 0x40 MLOAD DUP1 DUP4 SUB DUP2 PUSH0 DUP8 GAS CALL ISZERO DUP1 ISZERO PUSH2 0xC97 JUMPI RETURNDATASIZE PUSH0 PUSH0 RETURNDATACOPY RETURNDATASIZE PUSH0 REVERT JUMPDEST POP POP POP POP PUSH1 0x40 MLOAD RETURNDATASIZE PUSH1 0x1F NOT PUSH1 0x1F DUP3 ADD AND DUP3 ADD DUP1 PUSH1 0x40 MSTORE POP DUP2 ADD SWAP1 PUSH2 0xCBB SWAP2 SWAP1 PUSH2 0x1B98 JUMP JUMPDEST SWAP1 POP DUP1 PUSH1 0x3 PUSH0 DUP6 DUP2 MSTORE PUSH1 0x20 ADD SWAP1 DUP2 MSTORE PUSH1 0x20 ADD PUSH0 KECCAK256 PUSH0 PUSH2 0x100 EXP DUP2 SLOAD DUP2 PUSH20 0xFFFFFFFFFFFFFFFFFFFFFFFFFFFFFFFFFFFFFFFF MUL NOT AND SWAP1 DUP4 PUSH20 0xFFFFFFFFFFFFFFFFFFFFFFFFFFFFFFFFFFFFFFFF AND MUL OR SWAP1 SSTORE POP DUP3 PUSH32 0x714CAAB8B078979E833E97982712CD462AB7124C2A27401542011F30E3D47D55 DUP4 DUP4 PUSH1 0x40 MLOAD PUSH2 0xD3E SWAP3 SWAP2 SWAP1 PUSH2 0x2078 JUMP JUMPDEST PUSH1 0x40 MLOAD DUP1 SWAP2 SUB SWAP1 LOG2 POP POP POP POP JUMP JUMPDEST PUSH0 PUSH1 0x2 PUSH0 DUP4 PUSH20 0xFFFFFFFFFFFFFFFFFFFFFFFFFFFFFFFFFFFFFFFF AND PUSH20 0xFFFFFFFFFFFFFFFFFFFFFFFFFFFFFFFFFFFFFFFF AND DUP2 MSTORE PUSH1 0x20 ADD SWAP1 DUP2 MSTORE PUSH1 0x20 ADD PUSH0 KECCAK256 SLOAD SWAP1 POP SWAP2 SWAP1 POP JUMP JUMPDEST PUSH0 PUSH2 0xD9C DUP3 PUSH2 0x11AD JUMP JUMPDEST SWAP1 POP SWAP2 SWAP1 POP JUMP JUMPDEST PUSH0 PUSH2 0xDAD DUP3 PUSH2 0x13C6 JUMP JUMPDEST SWAP1 POP SWAP2 SWAP1 POP JUMP JUMPDEST PUSH0 PUSH2 0xDF3 PUSH1 0x40 MLOAD DUP1 PUSH1 0x40 ADD PUSH1 0x40 MSTORE DUP1 PUSH1 0xC DUP2 MSTORE PUSH1 0x20 ADD PUSH32 0x70726963652D6F7261636C650000000000000000000000000000000000000000 DUP2 MSTORE POP PUSH2 0x56F JUMP JUMPDEST SWAP1 POP SWAP1 JUMP JUMPDEST PUSH0 PUSH1 0x3 PUSH0 DUP4 DUP2 MSTORE PUSH1 0x20 ADD SWAP1 DUP2 MSTORE PUSH1 0x20 ADD PUSH0 KECCAK256 PUSH0 SWAP1 SLOAD SWAP1 PUSH2 0x100 EXP SWAP1 DIV PUSH20 0xFFFFFFFFFFFFFFFFFFFFFFFFFFFFFFFFFFFFFFFF AND SWAP1 POP SWAP2 SWAP1 POP JUMP JUMPDEST PUSH0 PUSH0 PUSH2 0xE3C DUP4 PUSH2 0x11AD JUMP JUMPDEST SWAP1 POP PUSH0 DUP2 SUB PUSH2 0xE4E JUMPI PUSH0 SWAP2 POP POP PUSH2 0xF2B JUMP JUMPDEST PUSH0 PUSH2 0xE57 PUSH2 0xDB4 JUMP JUMPDEST PUSH20 0xFFFFFFFFFFFFFFFFFFFFFFFFFFFFFFFFFFFFFFFF AND PUSH4 0x6855E939 PUSH1 0x40 MLOAD DUP2 PUSH4 0xFFFFFFFF AND PUSH1 0xE0 SHL DUP2 MSTORE PUSH1 0x4 ADD PUSH1 0x20 PUSH1 0x40 MLOAD DUP1 DUP4 SUB DUP2 DUP7 GAS STATICCALL ISZERO DUP1 ISZERO PUSH2 0xE9F JUMPI RETURNDATASIZE PUSH0 PUSH0 RETURNDATACOPY RETURNDATASIZE PUSH0 REVERT JUMPDEST POP POP POP POP PUSH1 0x40 MLOAD RETURNDATASIZE PUSH1 0x1F NOT PUSH1 0x1F DUP3 ADD AND DUP3 ADD DUP1 PUSH1 0x40 MSTORE POP DUP2 ADD SWAP1 PUSH2 0xEC3 SWAP2 SWAP1 PUSH2 0x195D JUMP JUMPDEST SWAP1 POP PUSH0 DUP2 GT PUSH2 0xF07 JUMPI PUSH1 0x40 MLOAD PUSH32 0x8C379A000000000000000000000000000000000000000000000000000000000 DUP2 MSTORE PUSH1 0x4 ADD PUSH2 0xEFE SWAP1 PUSH2 0x19F8 JUMP JUMPDEST PUSH1 0x40 MLOAD DUP1 SWAP2 SUB SWAP1 REVERT JUMPDEST PUSH8 0xDE0B6B3A7640000 DUP2 DUP4 PUSH2 0xF1C SWAP2 SWAP1 PUSH2 0x1A43 JUMP JUMPDEST PUSH2 0xF26 SWAP2 SWAP1 PUSH2 0x1AB1 JUMP JUMPDEST SWAP3 POP POP POP JUMPDEST SWAP2 SWAP1 POP JUMP JUMPDEST PUSH0 PUSH20 0xFFFFFFFFFFFFFFFFFFFFFFFFFFFFFFFFFFFFFFFF AND DUP2 PUSH20 0xFFFFFFFFFFFFFFFFFFFFFFFFFFFFFFFFFFFFFFFF AND SUB PUSH2 0xF9E JUMPI PUSH1 0x40 MLOAD PUSH32 0x8C379A000000000000000000000000000000000000000000000000000000000 DUP2 MSTORE PUSH1 0x4 ADD PUSH2 0xF95 SWAP1 PUSH2 0x20E9 JUMP JUMPDEST PUSH1 0x40 MLOAD DUP1 SWAP2 SUB SWAP1 REVERT JUMPDEST PUSH0 DUP2 PUSH20 0xFFFFFFFFFFFFFFFFFFFFFFFFFFFFFFFFFFFFFFFF AND EXTCODESIZE GT PUSH2 0xFF7 JUMPI PUSH1 0x40 MLOAD PUSH32 0x8C379A000000000000000000000000000000000000000000000000000000000 DUP2 MSTORE PUSH1 0x4 ADD PUSH2 0xFEE SWAP1 PUSH2 0x2151 JUMP JUMPDEST PUSH1 0x40 MLOAD DUP1 SWAP2 SUB SWAP1 REVERT JUMPDEST DUP1 PUSH20 0xFFFFFFFFFFFFFFFFFFFFFFFFFFFFFFFFFFFFFFFF AND PUSH4 0x8DA5CB5B PUSH1 0x40 MLOAD DUP2 PUSH4 0xFFFFFFFF AND PUSH1 0xE0 SHL DUP2 MSTORE PUSH1 0x4 ADD PUSH1 0x20 PUSH1 0x40 MLOAD DUP1 DUP4 SUB DUP2 DUP7 GAS STATICCALL SWAP3 POP POP POP DUP1 ISZERO PUSH2 0x105F JUMPI POP PUSH1 0x40 MLOAD RETURNDATASIZE PUSH1 0x1F NOT PUSH1 0x1F DUP3 ADD AND DUP3 ADD DUP1 PUSH1 0x40 MSTORE POP DUP2 ADD SWAP1 PUSH2 0x105C SWAP2 SWAP1 PUSH2 0x1B98 JUMP JUMPDEST PUSH1 0x1 JUMPDEST PUSH2 0x109E JUMPI PUSH1 0x40 MLOAD PUSH32 0x8C379A000000000000000000000000000000000000000000000000000000000 DUP2 MSTORE PUSH1 0x4 ADD PUSH2 0x1095 SWAP1 PUSH2 0x21DF JUMP JUMPDEST PUSH1 0x40 MLOAD DUP1 SWAP2 SUB SWAP1 REVERT JUMPDEST DUP2 PUSH0 PUSH0 PUSH2 0x100 EXP DUP2 SLOAD DUP2 PUSH20 0xFFFFFFFFFFFFFFFFFFFFFFFFFFFFFFFFFFFFFFFF MUL NOT AND SWAP1 DUP4 PUSH20 0xFFFFFFFFFFFFFFFFFFFFFFFFFFFFFFFFFFFFFFFF AND MUL OR SWAP1 SSTORE POP POP POP JUMP JUMPDEST PUSH0 PUSH2 0x1120 PUSH1 0x40 MLOAD DUP1 PUSH1 0x40 ADD PUSH1 0x40 MSTORE DUP1 PUSH1 0xD DUP2 MSTORE PUSH1 0x20 ADD PUSH32 0x696E6465782D666163746F727900000000000000000000000000000000000000 DUP2 MSTORE POP PUSH2 0x56F JUMP JUMPDEST SWAP1 POP SWAP1 JUMP JUMPDEST PUSH0 PUSH2 0x1164 PUSH1 0x40 MLOAD DUP1 PUSH1 0x40 ADD PUSH1 0x40 MSTORE DUP1 PUSH1 0x12 DUP2 MSTORE PUSH1 0x20 ADD PUSH32 0x6574662D746F6B656E2D6465706C6F7965720000000000000000000000000000 DUP2 MSTORE POP PUSH2 0x56F JUMP JUMPDEST SWAP1 POP SWAP1 JUMP JUMPDEST PUSH0 PUSH2 0x11A8 PUSH1 0x40 MLOAD DUP1 PUSH1 0x40 ADD PUSH1 0x40 MSTORE DUP1 PUSH1 0x12 DUP2 MSTORE PUSH1 0x20 ADD PUSH32 0x6574662D7661756C742D6465706C6F7965720000000000000000000000000000 DUP2 MSTORE POP PUSH2 0x56F JUMP JUMPDEST SWAP1 POP SWAP1 JUMP JUMPDEST PUSH0 PUSH0 PUSH2 0x11B7 PUSH2 0x10E1 JUMP JUMPDEST PUSH20 0xFFFFFFFFFFFFFFFFFFFFFFFFFFFFFFFFFFFFFFFF AND PUSH4 0x549E122B DUP5 PUSH1 0x40 MLOAD DUP3 PUSH4 0xFFFFFFFF AND PUSH1 0xE0 SHL DUP2 MSTORE PUSH1 0x4 ADD PUSH2 0x11EF SWAP2 SWAP1 PUSH2 0x16C9 JUMP JUMPDEST PUSH0 PUSH1 0x40 MLOAD DUP1 DUP4 SUB DUP2 DUP7 GAS STATICCALL ISZERO DUP1 ISZERO PUSH2 0x1209 JUMPI RETURNDATASIZE PUSH0 PUSH0 RETURNDATACOPY RETURNDATASIZE PUSH0 REVERT JUMPDEST POP POP POP POP PUSH1 0x40 MLOAD RETURNDATASIZE PUSH0 DUP3 RETURNDATACOPY RETURNDATASIZE PUSH1 0x1F NOT PUSH1 0x1F DUP3 ADD AND DUP3 ADD DUP1 PUSH1 0x40 MSTORE POP DUP2 ADD SWAP1 PUSH2 0x1231 SWAP2 SWAP1 PUSH2 0x244D JUMP JUMPDEST SWAP1 POP PUSH0 PUSH2 0x123D DUP5 PUSH2 0xDF8 JUMP JUMPDEST SWAP1 POP PUSH0 PUSH0 SWAP1 POP JUMPDEST DUP3 PUSH1 0x40 ADD MLOAD MLOAD DUP2 LT ISZERO PUSH2 0x13BE JUMPI PUSH0 DUP4 PUSH1 0x40 ADD MLOAD DUP3 DUP2 MLOAD DUP2 LT PUSH2 0x1269 JUMPI PUSH2 0x1268 PUSH2 0x2494 JUMP JUMPDEST JUMPDEST PUSH1 0x20 MUL PUSH1 0x20 ADD ADD MLOAD PUSH0 ADD MLOAD SWAP1 POP PUSH0 DUP2 PUSH20 0xFFFFFFFFFFFFFFFFFFFFFFFFFFFFFFFFFFFFFFFF AND PUSH4 0x70A08231 DUP6 PUSH1 0x40 MLOAD DUP3 PUSH4 0xFFFFFFFF AND PUSH1 0xE0 SHL DUP2 MSTORE PUSH1 0x4 ADD PUSH2 0x12B0 SWAP2 SWAP1 PUSH2 0x1676 JUMP JUMPDEST PUSH1 0x20 PUSH1 0x40 MLOAD DUP1 DUP4 SUB DUP2 DUP7 GAS STATICCALL ISZERO DUP1 ISZERO PUSH2 0x12CB JUMPI RETURNDATASIZE PUSH0 PUSH0 RETURNDATACOPY RETURNDATASIZE PUSH0 REVERT JUMPDEST POP POP POP POP PUSH1 0x40 MLOAD RETURNDATASIZE PUSH1 0x1F NOT PUSH1 0x1F DUP3 ADD AND DUP3 ADD DUP1 PUSH1 0x40 MSTORE POP DUP2 ADD SWAP1 PUSH2 0x12EF SWAP2 SWAP1 PUSH2 0x195D JUMP JUMPDEST SWAP1 POP PUSH0 DUP2 SUB PUSH2 0x12FF JUMPI POP POP PUSH2 0x13B1 JUMP JUMPDEST PUSH0 PUSH2 0x1308 PUSH2 0xDB4 JUMP JUMPDEST PUSH20 0xFFFFFFFFFFFFFFFFFFFFFFFFFFFFFFFFFFFFFFFF AND PUSH4 0x7B49B49D DUP5 PUSH1 0x40 MLOAD DUP3 PUSH4 0xFFFFFFFF AND PUSH1 0xE0 SHL DUP2 MSTORE PUSH1 0x4 ADD PUSH2 0x1340 SWAP2 SWAP1 PUSH2 0x1676 JUMP JUMPDEST PUSH1 0x20 PUSH1 0x40 MLOAD DUP1 DUP4 SUB DUP2 DUP7 GAS STATICCALL ISZERO DUP1 ISZERO PUSH2 0x135B JUMPI RETURNDATASIZE PUSH0 PUSH0 RETURNDATACOPY RETURNDATASIZE PUSH0 REVERT JUMPDEST POP POP POP POP PUSH1 0x40 MLOAD RETURNDATASIZE PUSH1 0x1F NOT PUSH1 0x1F DUP3 ADD AND DUP3 ADD DUP1 PUSH1 0x40 MSTORE POP DUP2 ADD SWAP1 PUSH2 0x137F SWAP2 SWAP1 PUSH2 0x195D JUMP JUMPDEST SWAP1 POP PUSH8 0xDE0B6B3A7640000 DUP2 DUP4 PUSH2 0x1396 SWAP2 SWAP1 PUSH2 0x1A43 JUMP JUMPDEST PUSH2 0x13A0 SWAP2 SWAP1 PUSH2 0x1AB1 JUMP JUMPDEST DUP8 PUSH2 0x13AB SWAP2 SWAP1 PUSH2 0x1AE1 JUMP JUMPDEST SWAP7 POP POP POP POP JUMPDEST DUP1 DUP1 PUSH1 0x1 ADD SWAP2 POP POP PUSH2 0x1244 JUMP JUMPDEST POP POP POP SWAP2 SWAP1 POP JUMP JUMPDEST PUSH0 PUSH1 0x1 PUSH0 DUP4 DUP2 MSTORE PUSH1 0x20 ADD SWAP1 DUP2 MSTORE PUSH1 0x20 ADD PUSH0 KECCAK256 PUSH0 SWAP1 SLOAD SWAP1 PUSH2 0x100 EXP SWAP1 DIV PUSH20 0xFFFFFFFFFFFFFFFFFFFFFFFFFFFFFFFFFFFFFFFF AND SWAP1 POP SWAP2 SWAP1 POP JUMP JUMPDEST PUSH0 PUSH1 0x40 MLOAD SWAP1 POP SWAP1 JUMP JUMPDEST PUSH0 PUSH0 REVERT JUMPDEST PUSH0 PUSH0 REVERT JUMPDEST PUSH0 DUP2 SWAP1 POP SWAP2 SWAP1 POP JUMP JUMPDEST PUSH2 0x1422 DUP2 PUSH2 0x1410 JUMP JUMPDEST DUP2 EQ PUSH2 0x142C JUMPI PUSH0 PUSH0 REVERT JUMPDEST POP JUMP JUMPDEST PUSH0 DUP2 CALLDATALOAD SWAP1 POP PUSH2 0x143D DUP2 PUSH2 0x1419 JUMP JUMPDEST SWAP3 SWAP2 POP POP JUMP JUMPDEST PUSH0 PUSH0 PUSH1 0x40 DUP4 DUP6 SUB SLT ISZERO PUSH2 0x1459 JUMPI PUSH2 0x1458 PUSH2 0x1408 JUMP JUMPDEST JUMPDEST PUSH0 PUSH2 0x1466 DUP6 DUP3 DUP7 ADD PUSH2 0x142F JUMP JUMPDEST SWAP3 POP POP PUSH1 0x20 PUSH2 0x1477 DUP6 DUP3 DUP7 ADD PUSH2 0x142F JUMP JUMPDEST SWAP2 POP POP SWAP3 POP SWAP3 SWAP1 POP JUMP JUMPDEST PUSH0 DUP2 ISZERO ISZERO SWAP1 POP SWAP2 SWAP1 POP JUMP JUMPDEST PUSH2 0x1495 DUP2 PUSH2 0x1481 JUMP JUMPDEST DUP3 MSTORE POP POP JUMP JUMPDEST PUSH0 PUSH1 0x20 DUP3 ADD SWAP1 POP PUSH2 0x14AE PUSH0 DUP4 ADD DUP5 PUSH2 0x148C JUMP JUMPDEST SWAP3 SWAP2 POP POP JUMP JUMPDEST PUSH0 PUSH0 REVERT JUMPDEST PUSH0 PUSH0 REVERT JUMPDEST PUSH0 PUSH1 0x1F NOT PUSH1 0x1F DUP4 ADD AND SWAP1 POP SWAP2 SWAP1 POP JUMP JUMPDEST PUSH32 0x4E487B7100000000000000000000000000000000000000000000000000000000 PUSH0 MSTORE PUSH1 0x41 PUSH1 0x4 MSTORE PUSH1 0x24 PUSH0 REVERT JUMPDEST PUSH2 0x1502 DUP3 PUSH2 0x14BC JUMP JUMPDEST DUP2 ADD DUP2 DUP2 LT PUSH8 0xFFFFFFFFFFFFFFFF DUP3 GT OR ISZERO PUSH2 0x1521 JUMPI PUSH2 0x1520 PUSH2 0x14CC JUMP JUMPDEST JUMPDEST DUP1 PUSH1 0x40 MSTORE POP POP POP JUMP JUMPDEST PUSH0 PUSH2 0x1533 PUSH2 0x13FF JUMP JUMPDEST SWAP1 POP PUSH2 0x153F DUP3 DUP3 PUSH2 0x14F9 JUMP JUMPDEST SWAP2 SWAP1 POP JUMP JUMPDEST PUSH0 PUSH8 0xFFFFFFFFFFFFFFFF DUP3 GT ISZERO PUSH2 0x155E JUMPI PUSH2 0x155D PUSH2 0x14CC JUMP JUMPDEST JUMPDEST PUSH2 0x1567 DUP3 PUSH2 0x14BC JUMP JUMPDEST SWAP1 POP PUSH1 0x20 DUP2 ADD SWAP1 POP SWAP2 SWAP1 POP JUMP JUMPDEST DUP3 DUP2 DUP4 CALLDATACOPY PUSH0 DUP4 DUP4 ADD MSTORE POP POP POP JUMP JUMPDEST PUSH0 PUSH2 0x1594 PUSH2 0x158F DUP5 PUSH2 0x1544 JUMP JUMPDEST PUSH2 0x152A JUMP JUMPDEST SWAP1 POP DUP3 DUP2 MSTORE PUSH1 0x20 DUP2 ADD DUP5 DUP5 DUP5 ADD GT ISZERO PUSH2 0x15B0 JUMPI PUSH2 0x15AF PUSH2 0x14B8 JUMP JUMPDEST JUMPDEST PUSH2 0x15BB DUP5 DUP3 DUP6 PUSH2 0x1574 JUMP JUMPDEST POP SWAP4 SWAP3 POP POP POP JUMP JUMPDEST PUSH0 DUP3 PUSH1 0x1F DUP4 ADD SLT PUSH2 0x15D7 JUMPI PUSH2 0x15D6 PUSH2 0x14B4 JUMP JUMPDEST JUMPDEST DUP2 CALLDATALOAD PUSH2 0x15E7 DUP5 DUP3 PUSH1 0x20 DUP7 ADD PUSH2 0x1582 JUMP JUMPDEST SWAP2 POP POP SWAP3 SWAP2 POP POP JUMP JUMPDEST PUSH0 PUSH1 0x20 DUP3 DUP5 SUB SLT ISZERO PUSH2 0x1605 JUMPI PUSH2 0x1604 PUSH2 0x1408 JUMP JUMPDEST JUMPDEST PUSH0 DUP3 ADD CALLDATALOAD PUSH8 0xFFFFFFFFFFFFFFFF DUP2 GT ISZERO PUSH2 0x1622 JUMPI PUSH2 0x1621 PUSH2 0x140C JUMP JUMPDEST JUMPDEST PUSH2 0x162E DUP5 DUP3 DUP6 ADD PUSH2 0x15C3 JUMP JUMPDEST SWAP2 POP POP SWAP3 SWAP2 POP POP JUMP JUMPDEST PUSH0 PUSH20 0xFFFFFFFFFFFFFFFFFFFFFFFFFFFFFFFFFFFFFFFF DUP3 AND SWAP1 POP SWAP2 SWAP1 POP JUMP JUMPDEST PUSH0 PUSH2 0x1660 DUP3 PUSH2 0x1637 JUMP JUMPDEST SWAP1 POP SWAP2 SWAP1 POP JUMP JUMPDEST PUSH2 0x1670 DUP2 PUSH2 0x1656 JUMP JUMPDEST DUP3 MSTORE POP POP JUMP JUMPDEST PUSH0 PUSH1 0x20 DUP3 ADD SWAP1 POP PUSH2 0x1689 PUSH0 DUP4 ADD DUP5 PUSH2 0x1667 JUMP JUMPDEST SWAP3 SWAP2 POP POP JUMP JUMPDEST PUSH0 PUSH1 0x20 DUP3 DUP5 SUB SLT ISZERO PUSH2 0x16A4 JUMPI PUSH2 0x16A3 PUSH2 0x1408 JUMP JUMPDEST JUMPDEST PUSH0 PUSH2 0x16B1 DUP5 DUP3 DUP6 ADD PUSH2 0x142F JUMP JUMPDEST SWAP2 POP POP SWAP3 SWAP2 POP POP JUMP JUMPDEST PUSH2 0x16C3 DUP2 PUSH2 0x1410 JUMP JUMPDEST DUP3 MSTORE POP POP JUMP JUMPDEST PUSH0 PUSH1 0x20 DUP3 ADD SWAP1 POP PUSH2 0x16DC PUSH0 DUP4 ADD DUP5 PUSH2 0x16BA JUMP JUMPDEST SWAP3 SWAP2 POP POP JUMP JUMPDEST PUSH0 DUP2 SWAP1 POP SWAP2 SWAP1 POP JUMP JUMPDEST PUSH0 PUSH2 0x1705 PUSH2 0x1700 PUSH2 0x16FB DUP5 PUSH2 0x1637 JUMP JUMPDEST PUSH2 0x16E2 JUMP JUMPDEST PUSH2 0x1637 JUMP JUMPDEST SWAP1 POP SWAP2 SWAP1 POP JUMP JUMPDEST PUSH0 PUSH2 0x1716 DUP3 PUSH2 0x16EB JUMP JUMPDEST SWAP1 POP SWAP2 SWAP1 POP JUMP JUMPDEST PUSH0 PUSH2 0x1727 DUP3 PUSH2 0x170C JUMP JUMPDEST SWAP1 POP SWAP2 SWAP1 POP JUMP JUMPDEST PUSH2 0x1737 DUP2 PUSH2 0x171D JUMP JUMPDEST DUP3 MSTORE POP POP JUMP JUMPDEST PUSH0 PUSH1 0x20 DUP3 ADD SWAP1 POP PUSH2 0x1750 PUSH0 DUP4 ADD DUP5 PUSH2 0x172E JUMP JUMPDEST SWAP3 SWAP2 POP POP JUMP JUMPDEST PUSH2 0x175F DUP2 PUSH2 0x1481 JUMP JUMPDEST DUP2 EQ PUSH2 0x1769 JUMPI PUSH0 PUSH0 REVERT JUMPDEST POP JUMP JUMPDEST PUSH0 DUP2 CALLDATALOAD SWAP1 POP PUSH2 0x177A DUP2 PUSH2 0x1756 JUMP JUMPDEST SWAP3 SWAP2 POP POP JUMP JUMPDEST PUSH0 PUSH1 0x20 DUP3 DUP5 SUB SLT ISZERO PUSH2 0x1795 JUMPI PUSH2 0x1794 PUSH2 0x1408 JUMP JUMPDEST JUMPDEST PUSH0 PUSH2 0x17A2 DUP5 DUP3 DUP6 ADD PUSH2 0x176C JUMP JUMPDEST SWAP2 POP POP SWAP3 SWAP2 POP POP JUMP JUMPDEST PUSH2 0x17B4 DUP2 PUSH2 0x1656 JUMP JUMPDEST DUP2 EQ PUSH2 0x17BE JUMPI PUSH0 PUSH0 REVERT JUMPDEST POP JUMP JUMPDEST PUSH0 DUP2 CALLDATALOAD SWAP1 POP PUSH2 0x17CF DUP2 PUSH2 0x17AB JUMP JUMPDEST SWAP3 SWAP2 POP POP JUMP JUMPDEST PUSH0 PUSH1 0x20 DUP3 DUP5 SUB SLT ISZERO PUSH2 0x17EA JUMPI PUSH2 0x17E9 PUSH2 0x1408 JUMP JUMPDEST JUMPDEST PUSH0 PUSH2 0x17F7 DUP5 DUP3 DUP6 ADD PUSH2 0x17C1 JUMP JUMPDEST SWAP2 POP POP SWAP3 SWAP2 POP POP JUMP JUMPDEST PUSH0 PUSH0 REVERT JUMPDEST PUSH0 PUSH1 0x60 DUP3 DUP5 SUB SLT ISZERO PUSH2 0x1819 JUMPI PUSH2 0x1818 PUSH2 0x1800 JUMP JUMPDEST JUMPDEST DUP2 SWAP1 POP SWAP3 SWAP2 POP POP JUMP JUMPDEST PUSH0 PUSH1 0x20 DUP3 DUP5 SUB SLT ISZERO PUSH2 0x1837 JUMPI PUSH2 0x1836 PUSH2 0x1408 JUMP JUMPDEST JUMPDEST PUSH0 DUP3 ADD CALLDATALOAD PUSH8 0xFFFFFFFFFFFFFFFF DUP2 GT ISZERO PUSH2 0x1854 JUMPI PUSH2 0x1853 PUSH2 0x140C JUMP JUMPDEST JUMPDEST PUSH2 0x1860 DUP5 DUP3 DUP6 ADD PUSH2 0x1804 JUMP JUMPDEST SWAP2 POP POP SWAP3 SWAP2 POP POP JUMP JUMPDEST PUSH0 DUP3 DUP3 MSTORE PUSH1 0x20 DUP3 ADD SWAP1 POP SWAP3 SWAP2 POP POP JUMP JUMPDEST PUSH32 0x6D73672E73656E646572206973206E6F742065746620726F7574657200000000 PUSH0 DUP3 ADD MSTORE POP JUMP JUMPDEST PUSH0 PUSH2 0x18AD PUSH1 0x1C DUP4 PUSH2 0x1869 JUMP JUMPDEST SWAP2 POP PUSH2 0x18B8 DUP3 PUSH2 0x1879 JUMP JUMPDEST PUSH1 0x20 DUP3 ADD SWAP1 POP SWAP2 SWAP1 POP JUMP JUMPDEST PUSH0 PUSH1 0x20 DUP3 ADD SWAP1 POP DUP2 DUP2 SUB PUSH0 DUP4 ADD MSTORE PUSH2 0x18DA DUP2 PUSH2 0x18A1 JUMP JUMPDEST SWAP1 POP SWAP2 SWAP1 POP JUMP JUMPDEST PUSH32 0x457466466163746F72793A2074726164652076616C7565206973207A65726F00 PUSH0 DUP3 ADD MSTORE POP JUMP JUMPDEST PUSH0 PUSH2 0x1915 PUSH1 0x1F DUP4 PUSH2 0x1869 JUMP JUMPDEST SWAP2 POP PUSH2 0x1920 DUP3 PUSH2 0x18E1 JUMP JUMPDEST PUSH1 0x20 DUP3 ADD SWAP1 POP SWAP2 SWAP1 POP JUMP JUMPDEST PUSH0 PUSH1 0x20 DUP3 ADD SWAP1 POP DUP2 DUP2 SUB PUSH0 DUP4 ADD MSTORE PUSH2 0x1942 DUP2 PUSH2 0x1909 JUMP JUMPDEST SWAP1 POP SWAP2 SWAP1 POP JUMP JUMPDEST PUSH0 DUP2 MLOAD SWAP1 POP PUSH2 0x1957 DUP2 PUSH2 0x1419 JUMP JUMPDEST SWAP3 SWAP2 POP POP JUMP JUMPDEST PUSH0 PUSH1 0x20 DUP3 DUP5 SUB SLT ISZERO PUSH2 0x1972 JUMPI PUSH2 0x1971 PUSH2 0x1408 JUMP JUMPDEST JUMPDEST PUSH0 PUSH2 0x197F DUP5 DUP3 DUP6 ADD PUSH2 0x1949 JUMP JUMPDEST SWAP2 POP POP SWAP3 SWAP2 POP POP JUMP JUMPDEST PUSH32 0x457466466163746F72793A20574554482F555344207072696365206973207A65 PUSH0 DUP3 ADD MSTORE PUSH32 0x726F000000000000000000000000000000000000000000000000000000000000 PUSH1 0x20 DUP3 ADD MSTORE POP JUMP JUMPDEST PUSH0 PUSH2 0x19E2 PUSH1 0x22 DUP4 PUSH2 0x1869 JUMP JUMPDEST SWAP2 POP PUSH2 0x19ED DUP3 PUSH2 0x1988 JUMP JUMPDEST PUSH1 0x40 DUP3 ADD SWAP1 POP SWAP2 SWAP1 POP JUMP JUMPDEST PUSH0 PUSH1 0x20 DUP3 ADD SWAP1 POP DUP2 DUP2 SUB PUSH0 DUP4 ADD MSTORE PUSH2 0x1A0F DUP2 PUSH2 0x19D6 JUMP JUMPDEST SWAP1 POP SWAP2 SWAP1 POP JUMP JUMPDEST PUSH32 0x4E487B7100000000000000000000000000000000000000000000000000000000 PUSH0 MSTORE PUSH1 0x11 PUSH1 0x4 MSTORE PUSH1 0x24 PUSH0 REVERT JUMPDEST PUSH0 PUSH2 0x1A4D DUP3 PUSH2 0x1410 JUMP JUMPDEST SWAP2 POP PUSH2 0x1A58 DUP4 PUSH2 0x1410 JUMP JUMPDEST SWAP3 POP DUP3 DUP3 MUL PUSH2 0x1A66 DUP2 PUSH2 0x1410 JUMP JUMPDEST SWAP2 POP DUP3 DUP3 DIV DUP5 EQ DUP4 ISZERO OR PUSH2 0x1A7D JUMPI PUSH2 0x1A7C PUSH2 0x1A16 JUMP JUMPDEST JUMPDEST POP SWAP3 SWAP2 POP POP JUMP JUMPDEST PUSH32 0x4E487B7100000000000000000000000000000000000000000000000000000000 PUSH0 MSTORE PUSH1 0x12 PUSH1 0x4 MSTORE PUSH1 0x24 PUSH0 REVERT JUMPDEST PUSH0 PUSH2 0x1ABB DUP3 PUSH2 0x1410 JUMP JUMPDEST SWAP2 POP PUSH2 0x1AC6 DUP4 PUSH2 0x1410 JUMP JUMPDEST SWAP3 POP DUP3 PUSH2 0x1AD6 JUMPI PUSH2 0x1AD5 PUSH2 0x1A84 JUMP JUMPDEST JUMPDEST DUP3 DUP3 DIV SWAP1 POP SWAP3 SWAP2 POP POP JUMP JUMPDEST PUSH0 PUSH2 0x1AEB DUP3 PUSH2 0x1410 JUMP JUMPDEST SWAP2 POP PUSH2 0x1AF6 DUP4 PUSH2 0x1410 JUMP JUMPDEST SWAP3 POP DUP3 DUP3 ADD SWAP1 POP DUP1 DUP3 GT ISZERO PUSH2 0x1B0E JUMPI PUSH2 0x1B0D PUSH2 0x1A16 JUMP JUMPDEST JUMPDEST SWAP3 SWAP2 POP POP JUMP JUMPDEST PUSH0 DUP2 MLOAD SWAP1 POP SWAP2 SWAP1 POP JUMP JUMPDEST DUP3 DUP2 DUP4 MCOPY PUSH0 DUP4 DUP4 ADD MSTORE POP POP POP JUMP JUMPDEST PUSH0 PUSH2 0x1B36 DUP3 PUSH2 0x1B14 JUMP JUMPDEST PUSH2 0x1B40 DUP2 DUP6 PUSH2 0x1869 JUMP JUMPDEST SWAP4 POP PUSH2 0x1B50 DUP2 DUP6 PUSH1 0x20 DUP7 ADD PUSH2 0x1B1E JUMP JUMPDEST PUSH2 0x1B59 DUP2 PUSH2 0x14BC JUMP JUMPDEST DUP5 ADD SWAP2 POP POP SWAP3 SWAP2 POP POP JUMP JUMPDEST PUSH0 PUSH1 0x20 DUP3 ADD SWAP1 POP DUP2 DUP2 SUB PUSH0 DUP4 ADD MSTORE PUSH2 0x1B7C DUP2 DUP5 PUSH2 0x1B2C JUMP JUMPDEST SWAP1 POP SWAP3 SWAP2 POP POP JUMP JUMPDEST PUSH0 DUP2 MLOAD SWAP1 POP PUSH2 0x1B92 DUP2 PUSH2 0x17AB JUMP JUMPDEST SWAP3 SWAP2 POP POP JUMP JUMPDEST PUSH0 PUSH1 0x20 DUP3 DUP5 SUB SLT ISZERO PUSH2 0x1BAD JUMPI PUSH2 0x1BAC PUSH2 0x1408 JUMP JUMPDEST JUMPDEST PUSH0 PUSH2 0x1BBA DUP5 DUP3 DUP6 ADD PUSH2 0x1B84 JUMP JUMPDEST SWAP2 POP POP SWAP3 SWAP2 POP POP JUMP JUMPDEST PUSH32 0x43616C6C6572206973206E6F7420746865206F776E6572000000000000000000 PUSH0 DUP3 ADD MSTORE POP JUMP JUMPDEST PUSH0 PUSH2 0x1BF7 PUSH1 0x17 DUP4 PUSH2 0x1869 JUMP JUMPDEST SWAP2 POP PUSH2 0x1C02 DUP3 PUSH2 0x1BC3 JUMP JUMPDEST PUSH1 0x20 DUP3 ADD SWAP1 POP SWAP2 SWAP1 POP JUMP JUMPDEST PUSH0 PUSH1 0x20 DUP3 ADD SWAP1 POP DUP2 DUP2 SUB PUSH0 DUP4 ADD MSTORE PUSH2 0x1C24 DUP2 PUSH2 0x1BEB JUMP JUMPDEST SWAP1 POP SWAP2 SWAP1 POP JUMP JUMPDEST PUSH32 0x436F6E7472616374206973206E6F742061637469766500000000000000000000 PUSH0 DUP3 ADD MSTORE POP JUMP JUMPDEST PUSH0 PUSH2 0x1C5F PUSH1 0x16 DUP4 PUSH2 0x1869 JUMP JUMPDEST SWAP2 POP PUSH2 0x1C6A DUP3 PUSH2 0x1C2B JUMP JUMPDEST PUSH1 0x20 DUP3 ADD SWAP1 POP SWAP2 SWAP1 POP JUMP JUMPDEST PUSH0 PUSH1 0x20 DUP3 ADD SWAP1 POP DUP2 DUP2 SUB PUSH0 DUP4 ADD MSTORE PUSH2 0x1C8C DUP2 PUSH2 0x1C53 JUMP JUMPDEST SWAP1 POP SWAP2 SWAP1 POP JUMP JUMPDEST PUSH0 PUSH0 REVERT JUMPDEST PUSH0 PUSH0 REVERT JUMPDEST PUSH0 PUSH0 REVERT JUMPDEST PUSH0 PUSH0 DUP4 CALLDATALOAD PUSH1 0x1 PUSH1 0x20 SUB DUP5 CALLDATASIZE SUB SUB DUP2 SLT PUSH2 0x1CBB JUMPI PUSH2 0x1CBA PUSH2 0x1C9B JUMP JUMPDEST JUMPDEST DUP4 DUP2 ADD SWAP3 POP DUP3 CALLDATALOAD SWAP2 POP PUSH1 0x20 DUP4 ADD SWAP3 POP PUSH8 0xFFFFFFFFFFFFFFFF DUP3 GT ISZERO PUSH2 0x1CE3 JUMPI PUSH2 0x1CE2 PUSH2 0x1C93 JUMP JUMPDEST JUMPDEST PUSH1 0x1 DUP3 MUL CALLDATASIZE SUB DUP4 SGT ISZERO PUSH2 0x1CF9 JUMPI PUSH2 0x1CF8 PUSH2 0x1C97 JUMP JUMPDEST JUMPDEST POP SWAP3 POP SWAP3 SWAP1 POP JUMP JUMPDEST PUSH0 DUP3 DUP3 MSTORE PUSH1 0x20 DUP3 ADD SWAP1 POP SWAP3 SWAP2 POP POP JUMP JUMPDEST PUSH0 PUSH2 0x1D1C DUP4 DUP6 PUSH2 0x1D01 JUMP JUMPDEST SWAP4 POP PUSH2 0x1D29 DUP4 DUP6 DUP5 PUSH2 0x1574 JUMP JUMPDEST PUSH2 0x1D32 DUP4 PUSH2 0x14BC JUMP JUMPDEST DUP5 ADD SWAP1 POP SWAP4 SWAP3 POP POP POP JUMP JUMPDEST PUSH0 PUSH0 DUP4 CALLDATALOAD PUSH1 0x1 PUSH1 0x20 SUB DUP5 CALLDATASIZE SUB SUB DUP2 SLT PUSH2 0x1D59 JUMPI PUSH2 0x1D58 PUSH2 0x1C9B JUMP JUMPDEST JUMPDEST DUP4 DUP2 ADD SWAP3 POP DUP3 CALLDATALOAD SWAP2 POP PUSH1 0x20 DUP4 ADD SWAP3 POP PUSH8 0xFFFFFFFFFFFFFFFF DUP3 GT ISZERO PUSH2 0x1D81 JUMPI PUSH2 0x1D80 PUSH2 0x1C93 JUMP JUMPDEST JUMPDEST PUSH1 0x40 DUP3 MUL CALLDATASIZE SUB DUP4 SGT ISZERO PUSH2 0x1D97 JUMPI PUSH2 0x1D96 PUSH2 0x1C97 JUMP JUMPDEST JUMPDEST POP SWAP3 POP SWAP3 SWAP1 POP JUMP JUMPDEST PUSH0 DUP3 DUP3 MSTORE PUSH1 0x20 DUP3 ADD SWAP1 POP SWAP3 SWAP2 POP POP JUMP JUMPDEST PUSH0 DUP2 SWAP1 POP SWAP2 SWAP1 POP JUMP JUMPDEST PUSH0 PUSH2 0x1DC6 PUSH1 0x20 DUP5 ADD DUP5 PUSH2 0x17C1 JUMP JUMPDEST SWAP1 POP SWAP3 SWAP2 POP POP JUMP JUMPDEST PUSH2 0x1DD7 DUP2 PUSH2 0x1656 JUMP JUMPDEST DUP3 MSTORE POP POP JUMP JUMPDEST PUSH0 PUSH2 0xFFFF DUP3 AND SWAP1 POP SWAP2 SWAP1 POP JUMP JUMPDEST PUSH2 0x1DF3 DUP2 PUSH2 0x1DDD JUMP JUMPDEST DUP2 EQ PUSH2 0x1DFD JUMPI PUSH0 PUSH0 REVERT JUMPDEST POP JUMP JUMPDEST PUSH0 DUP2 CALLDATALOAD SWAP1 POP PUSH2 0x1E0E DUP2 PUSH2 0x1DEA JUMP JUMPDEST SWAP3 SWAP2 POP POP JUMP JUMPDEST PUSH0 PUSH2 0x1E22 PUSH1 0x20 DUP5 ADD DUP5 PUSH2 0x1E00 JUMP JUMPDEST SWAP1 POP SWAP3 SWAP2 POP POP JUMP JUMPDEST PUSH2 0x1E33 DUP2 PUSH2 0x1DDD JUMP JUMPDEST DUP3 MSTORE POP POP JUMP JUMPDEST PUSH1 0x40 DUP3 ADD PUSH2 0x1E49 PUSH0 DUP4 ADD DUP4 PUSH2 0x1DB8 JUMP JUMPDEST PUSH2 0x1E55 PUSH0 DUP6 ADD DUP3 PUSH2 0x1DCE JUMP JUMPDEST POP PUSH2 0x1E63 PUSH1 0x20 DUP4 ADD DUP4 PUSH2 0x1E14 JUMP JUMPDEST PUSH2 0x1E70 PUSH1 0x20 DUP6 ADD DUP3 PUSH2 0x1E2A JUMP JUMPDEST POP POP POP POP JUMP JUMPDEST PUSH0 PUSH2 0x1E81 DUP4 DUP4 PUSH2 0x1E39 JUMP JUMPDEST PUSH1 0x40 DUP4 ADD SWAP1 POP SWAP3 SWAP2 POP POP JUMP JUMPDEST PUSH0 DUP3 SWAP1 POP SWAP3 SWAP2 POP POP JUMP JUMPDEST PUSH0 PUSH1 0x40 DUP3 ADD SWAP1 POP SWAP2 SWAP1 POP JUMP JUMPDEST PUSH0 PUSH2 0x1EAE DUP4 DUP6 PUSH2 0x1D9F JUMP JUMPDEST SWAP4 POP PUSH2 0x1EB9 DUP3 PUSH2 0x1DAF JUMP JUMPDEST DUP1 PUSH0 JUMPDEST DUP6 DUP2 LT ISZERO PUSH2 0x1EF1 JUMPI PUSH2 0x1ECE DUP3 DUP5 PUSH2 0x1E8D JUMP JUMPDEST PUSH2 0x1ED8 DUP9 DUP3 PUSH2 0x1E76 JUMP JUMPDEST SWAP8 POP PUSH2 0x1EE3 DUP4 PUSH2 0x1E97 JUMP JUMPDEST SWAP3 POP POP PUSH1 0x1 DUP2 ADD SWAP1 POP PUSH2 0x1EBC JUMP JUMPDEST POP DUP6 SWAP3 POP POP POP SWAP4 SWAP3 POP POP POP JUMP JUMPDEST PUSH0 PUSH1 0x60 DUP4 ADD PUSH2 0x1F0F PUSH0 DUP5 ADD DUP5 PUSH2 0x1C9F JUMP JUMPDEST DUP6 DUP4 SUB PUSH0 DUP8 ADD MSTORE PUSH2 0x1F21 DUP4 DUP3 DUP5 PUSH2 0x1D11 JUMP JUMPDEST SWAP3 POP POP POP PUSH2 0x1F32 PUSH1 0x20 DUP5 ADD DUP5 PUSH2 0x1C9F JUMP JUMPDEST DUP6 DUP4 SUB PUSH1 0x20 DUP8 ADD MSTORE PUSH2 0x1F45 DUP4 DUP3 DUP5 PUSH2 0x1D11 JUMP JUMPDEST SWAP3 POP POP POP PUSH2 0x1F56 PUSH1 0x40 DUP5 ADD DUP5 PUSH2 0x1D3D JUMP JUMPDEST DUP6 DUP4 SUB PUSH1 0x40 DUP8 ADD MSTORE PUSH2 0x1F69 DUP4 DUP3 DUP5 PUSH2 0x1EA3 JUMP JUMPDEST SWAP3 POP POP POP DUP1 SWAP2 POP POP SWAP3 SWAP2 POP POP JUMP JUMPDEST PUSH0 PUSH1 0x20 DUP3 ADD SWAP1 POP DUP2 DUP2 SUB PUSH0 DUP4 ADD MSTORE PUSH2 0x1F8F DUP2 DUP5 PUSH2 0x1EFE JUMP JUMPDEST SWAP1 POP SWAP3 SWAP2 POP POP JUMP JUMPDEST PUSH0 PUSH0 REVERT JUMPDEST PUSH0 PUSH0 REVERT JUMPDEST PUSH0 PUSH0 REVERT JUMPDEST PUSH0 PUSH0 DUP4 CALLDATALOAD PUSH1 0x1 PUSH1 0x20 SUB DUP5 CALLDATASIZE SUB SUB DUP2 SLT PUSH2 0x1FBF JUMPI PUSH2 0x1FBE PUSH2 0x1F97 JUMP JUMPDEST JUMPDEST DUP1 DUP5 ADD SWAP3 POP DUP3 CALLDATALOAD SWAP2 POP PUSH8 0xFFFFFFFFFFFFFFFF DUP3 GT ISZERO PUSH2 0x1FE1 JUMPI PUSH2 0x1FE0 PUSH2 0x1F9B JUMP JUMPDEST JUMPDEST PUSH1 0x20 DUP4 ADD SWAP3 POP PUSH1 0x1 DUP3 MUL CALLDATASIZE SUB DUP4 SGT ISZERO PUSH2 0x1FFD JUMPI PUSH2 0x1FFC PUSH2 0x1F9F JUMP JUMPDEST JUMPDEST POP SWAP3 POP SWAP3 SWAP1 POP JUMP JUMPDEST PUSH0 PUSH2 0x2010 DUP4 DUP6 PUSH2 0x1869 JUMP JUMPDEST SWAP4 POP PUSH2 0x201D DUP4 DUP6 DUP5 PUSH2 0x1574 JUMP JUMPDEST PUSH2 0x2026 DUP4 PUSH2 0x14BC JUMP JUMPDEST DUP5 ADD SWAP1 POP SWAP4 SWAP3 POP POP POP JUMP JUMPDEST PUSH0 PUSH1 0x60 DUP3 ADD SWAP1 POP PUSH2 0x2044 PUSH0 DUP4 ADD DUP9 PUSH2 0x16BA JUMP JUMPDEST DUP2 DUP2 SUB PUSH1 0x20 DUP4 ADD MSTORE PUSH2 0x2057 DUP2 DUP7 DUP9 PUSH2 0x2005 JUMP JUMPDEST SWAP1 POP DUP2 DUP2 SUB PUSH1 0x40 DUP4 ADD MSTORE PUSH2 0x206C DUP2 DUP5 DUP7 PUSH2 0x2005 JUMP JUMPDEST SWAP1 POP SWAP7 SWAP6 POP POP POP POP POP POP JUMP JUMPDEST PUSH0 PUSH1 0x40 DUP3 ADD SWAP1 POP PUSH2 0x208B PUSH0 DUP4 ADD DUP6 PUSH2 0x1667 JUMP JUMPDEST PUSH2 0x2098 PUSH1 0x20 DUP4 ADD DUP5 PUSH2 0x1667 JUMP JUMPDEST SWAP4 SWAP3 POP POP POP JUMP JUMPDEST PUSH32 0x4469726563746F72792063616E6E6F74206265207A65726F2061646472657373 PUSH0 DUP3 ADD MSTORE POP JUMP JUMPDEST PUSH0 PUSH2 0x20D3 PUSH1 0x20 DUP4 PUSH2 0x1869 JUMP JUMPDEST SWAP2 POP PUSH2 0x20DE DUP3 PUSH2 0x209F JUMP JUMPDEST PUSH1 0x20 DUP3 ADD SWAP1 POP SWAP2 SWAP1 POP JUMP JUMPDEST PUSH0 PUSH1 0x20 DUP3 ADD SWAP1 POP DUP2 DUP2 SUB PUSH0 DUP4 ADD MSTORE PUSH2 0x2100 DUP2 PUSH2 0x20C7 JUMP JUMPDEST SWAP1 POP SWAP2 SWAP1 POP JUMP JUMPDEST PUSH32 0x4469726563746F7279206D757374206265206120636F6E747261637400000000 PUSH0 DUP3 ADD MSTORE POP JUMP JUMPDEST PUSH0 PUSH2 0x213B PUSH1 0x1C DUP4 PUSH2 0x1869 JUMP JUMPDEST SWAP2 POP PUSH2 0x2146 DUP3 PUSH2 0x2107 JUMP JUMPDEST PUSH1 0x20 DUP3 ADD SWAP1 POP SWAP2 SWAP1 POP JUMP JUMPDEST PUSH0 PUSH1 0x20 DUP3 ADD SWAP1 POP DUP2 DUP2 SUB PUSH0 DUP4 ADD MSTORE PUSH2 0x2168 DUP2 PUSH2 0x212F JUMP JUMPDEST SWAP1 POP SWAP2 SWAP1 POP JUMP JUMPDEST PUSH32 0x4469726563746F7279206164647265737320646F6573206E6F7420696D706C65 PUSH0 DUP3 ADD MSTORE PUSH32 0x6D656E74206F776E657228290000000000000000000000000000000000000000 PUSH1 0x20 DUP3 ADD MSTORE POP JUMP JUMPDEST PUSH0 PUSH2 0x21C9 PUSH1 0x2C DUP4 PUSH2 0x1869 JUMP JUMPDEST SWAP2 POP PUSH2 0x21D4 DUP3 PUSH2 0x216F JUMP JUMPDEST PUSH1 0x40 DUP3 ADD SWAP1 POP SWAP2 SWAP1 POP JUMP JUMPDEST PUSH0 PUSH1 0x20 DUP3 ADD SWAP1 POP DUP2 DUP2 SUB PUSH0 DUP4 ADD MSTORE PUSH2 0x21F6 DUP2 PUSH2 0x21BD JUMP JUMPDEST SWAP1 POP SWAP2 SWAP1 POP JUMP JUMPDEST PUSH0 PUSH0 REVERT JUMPDEST PUSH0 PUSH0 REVERT JUMPDEST PUSH0 PUSH2 0x2217 PUSH2 0x2212 DUP5 PUSH2 0x1544 JUMP JUMPDEST PUSH2 0x152A JUMP JUMPDEST SWAP1 POP DUP3 DUP2 MSTORE PUSH1 0x20 DUP2 ADD DUP5 DUP5 DUP5 ADD GT ISZERO PUSH2 0x2233 JUMPI PUSH2 0x2232 PUSH2 0x14B8 JUMP JUMPDEST JUMPDEST PUSH2 0x223E DUP5 DUP3 DUP6 PUSH2 0x1B1E JUMP JUMPDEST POP SWAP4 SWAP3 POP POP POP JUMP JUMPDEST PUSH0 DUP3 PUSH1 0x1F DUP4 ADD SLT PUSH2 0x225A JUMPI PUSH2 0x2259 PUSH2 0x14B4 JUMP JUMPDEST JUMPDEST DUP2 MLOAD PUSH2 0x226A DUP5 DUP3 PUSH1 0x20 DUP7 ADD PUSH2 0x2205 JUMP JUMPDEST SWAP2 POP POP SWAP3 SWAP2 POP POP JUMP JUMPDEST PUSH0 PUSH8 0xFFFFFFFFFFFFFFFF DUP3 GT ISZERO PUSH2 0x228D JUMPI PUSH2 0x228C PUSH2 0x14CC JUMP JUMPDEST JUMPDEST PUSH1 0x20 DUP3 MUL SWAP1 POP PUSH1 0x20 DUP2 ADD SWAP1 POP SWAP2 SWAP1 POP JUMP JUMPDEST PUSH0 PUSH0 REVERT JUMPDEST PUSH0 DUP2 MLOAD SWAP1 POP PUSH2 0x22B0 DUP2 PUSH2 0x1DEA JUMP JUMPDEST SWAP3 SWAP2 POP POP JUMP JUMPDEST PUSH0 PUSH1 0x40 DUP3 DUP5 SUB SLT ISZERO PUSH2 0x22CB JUMPI PUSH2 0x22CA PUSH2 0x21FD JUMP JUMPDEST JUMPDEST PUSH2 0x22D5 PUSH1 0x40 PUSH2 0x152A JUMP JUMPDEST SWAP1 POP PUSH0 PUSH2 0x22E4 DUP5 DUP3 DUP6 ADD PUSH2 0x1B84 JUMP JUMPDEST PUSH0 DUP4 ADD MSTORE POP PUSH1 0x20 PUSH2 0x22F7 DUP5 DUP3 DUP6 ADD PUSH2 0x22A2 JUMP JUMPDEST PUSH1 0x20 DUP4 ADD MSTORE POP SWAP3 SWAP2 POP POP JUMP JUMPDEST PUSH0 PUSH2 0x2315 PUSH2 0x2310 DUP5 PUSH2 0x2273 JUMP JUMPDEST PUSH2 0x152A JUMP JUMPDEST SWAP1 POP DUP1 DUP4 DUP3 MSTORE PUSH1 0x20 DUP3 ADD SWAP1 POP PUSH1 0x40 DUP5 MUL DUP4 ADD DUP6 DUP2 GT ISZERO PUSH2 0x2338 JUMPI PUSH2 0x2337 PUSH2 0x229E JUMP JUMPDEST JUMPDEST DUP4 JUMPDEST DUP2 DUP2 LT ISZERO PUSH2 0x2361 JUMPI DUP1 PUSH2 0x234D DUP9 DUP3 PUSH2 0x22B6 JUMP JUMPDEST DUP5 MSTORE PUSH1 0x20 DUP5 ADD SWAP4 POP POP PUSH1 0x40 DUP2 ADD SWAP1 POP PUSH2 0x233A JUMP JUMPDEST POP POP POP SWAP4 SWAP3 POP POP POP JUMP JUMPDEST PUSH0 DUP3 PUSH1 0x1F DUP4 ADD SLT PUSH2 0x237F JUMPI PUSH2 0x237E PUSH2 0x14B4 JUMP JUMPDEST JUMPDEST DUP2 MLOAD PUSH2 0x238F DUP5 DUP3 PUSH1 0x20 DUP7 ADD PUSH2 0x2303 JUMP JUMPDEST SWAP2 POP POP SWAP3 SWAP2 POP POP JUMP JUMPDEST PUSH0 PUSH1 0x60 DUP3 DUP5 SUB SLT ISZERO PUSH2 0x23AD JUMPI PUSH2 0x23AC PUSH2 0x21FD JUMP JUMPDEST JUMPDEST PUSH2 0x23B7 PUSH1 0x60 PUSH2 0x152A JUMP JUMPDEST SWAP1 POP PUSH0 DUP3 ADD MLOAD PUSH8 0xFFFFFFFFFFFFFFFF DUP2 GT ISZERO PUSH2 0x23D6 JUMPI PUSH2 0x23D5 PUSH2 0x2201 JUMP JUMPDEST JUMPDEST PUSH2 0x23E2 DUP5 DUP3 DUP6 ADD PUSH2 0x2246 JUMP JUMPDEST PUSH0 DUP4 ADD MSTORE POP PUSH1 0x20 DUP3 ADD MLOAD PUSH8 0xFFFFFFFFFFFFFFFF DUP2 GT ISZERO PUSH2 0x2405 JUMPI PUSH2 0x2404 PUSH2 0x2201 JUMP JUMPDEST JUMPDEST PUSH2 0x2411 DUP5 DUP3 DUP6 ADD PUSH2 0x2246 JUMP JUMPDEST PUSH1 0x20 DUP4 ADD MSTORE POP PUSH1 0x40 DUP3 ADD MLOAD PUSH8 0xFFFFFFFFFFFFFFFF DUP2 GT ISZERO PUSH2 0x2435 JUMPI PUSH2 0x2434 PUSH2 0x2201 JUMP JUMPDEST JUMPDEST PUSH2 0x2441 DUP5 DUP3 DUP6 ADD PUSH2 0x236B JUMP JUMPDEST PUSH1 0x40 DUP4 ADD MSTORE POP SWAP3 SWAP2 POP POP JUMP JUMPDEST PUSH0 PUSH1 0x20 DUP3 DUP5 SUB SLT ISZERO PUSH2 0x2462 JUMPI PUSH2 0x2461 PUSH2 0x1408 JUMP JUMPDEST JUMPDEST PUSH0 DUP3 ADD MLOAD PUSH8 0xFFFFFFFFFFFFFFFF DUP2 GT ISZERO PUSH2 0x247F JUMPI PUSH2 0x247E PUSH2 0x140C JUMP JUMPDEST JUMPDEST PUSH2 0x248B DUP5 DUP3 DUP6 ADD PUSH2 0x2398 JUMP JUMPDEST SWAP2 POP POP SWAP3 SWAP2 POP POP JUMP JUMPDEST PUSH32 0x4E487B7100000000000000000000000000000000000000000000000000000000 PUSH0 MSTORE PUSH1 0x32 PUSH1 0x4 MSTORE PUSH1 0x24 PUSH0 REVERT INVALID LOG2 PUSH5 0x6970667358 0x22 SLT KECCAK256 ISZERO PUSH28 0x4A2676F51AF3288C00B05C49916F8F5AD9160430C0DFAE5EC54F64AD CREATE2 PUSH27 0x64736F6C634300081E003300000000000000000000000000000000 "
		},
		"gasEstimates": {
			"creation": {
				"codeDepositCost": "1892600",
				"executionCost": "infinite",
				"totalCost": "infinite"
			},
			"external": {
				"Directory()": "infinite",
				"changeDirectoryAddress(address)": "infinite",
				"createIndexAndEtf((string,string,(address,uint16)[]))": "infinite",
				"fetchFromDirectory(string)": "infinite",
				"getEtfNavUsd(uint256)": "infinite",
				"getEtfNavWeth(uint256)": "infinite",
				"getEtfTokenAddress(uint256)": "2982",
				"getEtfTotalVolumeUsd(uint256)": "infinite",
				"getEtfTotalVolumeWeth(uint256)": "infinite",
				"getEtfVaultAddress(uint256)": "2917",
				"getIndexIdFromEtfTokenAddress(address)": "2873",
				"isActive()": "2512",
				"owner()": "infinite",
				"setActive(bool)": "infinite",
				"updateEtfVolume(uint256,uint256)": "infinite"
			}
		},
		"methodIdentifiers": {
			"Directory()": "658a847a",
			"changeDirectoryAddress(address)": "ba4c7be1",
			"createIndexAndEtf((string,string,(address,uint16)[]))": "c4eda09e",
			"fetchFromDirectory(string)": "27262618",
			"getEtfNavUsd(uint256)": "65a8f8b5",
			"getEtfNavWeth(uint256)": "e4b603b3",
			"getEtfTokenAddress(uint256)": "f2018a1f",
			"getEtfTotalVolumeUsd(uint256)": "9cfe0b3b",
			"getEtfTotalVolumeWeth(uint256)": "4eea0e0d",
			"getEtfVaultAddress(uint256)": "3ee79962",
			"getIndexIdFromEtfTokenAddress(address)": "d00ed651",
			"isActive()": "22f3e2d4",
			"owner()": "8da5cb5b",
			"setActive(bool)": "acec338a",
			"updateEtfVolume(uint256,uint256)": "1626542c"
		}
	},
	"abi": [
		{
			"inputs": [
				{
					"internalType": "address",
					"name": "_directory",
					"type": "address"
				}
			],
			"stateMutability": "nonpayable",
			"type": "constructor"
		},
		{
			"anonymous": false,
			"inputs": [
				{
					"indexed": true,
					"internalType": "uint256",
					"name": "indexId",
					"type": "uint256"
				},
				{
					"indexed": false,
					"internalType": "address",
					"name": "etfTokenAddress",
					"type": "address"
				},
				{
					"indexed": false,
					"internalType": "address",
					"name": "etfVaultAddress",
					"type": "address"
				}
			],
			"name": "EtfDeployed",
			"type": "event"
		},
		{
			"inputs": [],
			"name": "Directory",
			"outputs": [
				{
					"internalType": "contract IDirectory",
					"name": "",
					"type": "address"
				}
			],
			"stateMutability": "view",
			"type": "function"
		},
		{
			"inputs": [
				{
					"internalType": "address",
					"name": "_directory",
					"type": "address"
				}
			],
			"name": "changeDirectoryAddress",
			"outputs": [],
			"stateMutability": "nonpayable",
			"type": "function"
		},
		{
			"inputs": [
				{
					"components": [
						{
							"internalType": "string",
							"name": "name",
							"type": "string"
						},
						{
							"internalType": "string",
							"name": "ticker",
							"type": "string"
						},
						{
							"components": [
								{
									"internalType": "address",
									"name": "tokenAddress",
									"type": "address"
								},
								{
									"internalType": "uint16",
									"name": "weightBips",
									"type": "uint16"
								}
							],
							"internalType": "struct Holding[]",
							"name": "holdings",
							"type": "tuple[]"
						}
					],
					"internalType": "struct Index",
					"name": "index",
					"type": "tuple"
				}
			],
			"name": "createIndexAndEtf",
			"outputs": [],
			"stateMutability": "nonpayable",
			"type": "function"
		},
		{
			"inputs": [
				{
					"internalType": "string",
					"name": "_key",
					"type": "string"
				}
			],
			"name": "fetchFromDirectory",
			"outputs": [
				{
					"internalType": "address",
					"name": "",
					"type": "address"
				}
			],
			"stateMutability": "view",
			"type": "function"
		},
		{
			"inputs": [
				{
					"internalType": "uint256",
					"name": "indexId",
					"type": "uint256"
				}
			],
			"name": "getEtfNavUsd",
			"outputs": [
				{
					"internalType": "uint256",
					"name": "navUsd",
					"type": "uint256"
				}
			],
			"stateMutability": "view",
			"type": "function"
		},
		{
			"inputs": [
				{
					"internalType": "uint256",
					"name": "indexId",
					"type": "uint256"
				}
			],
			"name": "getEtfNavWeth",
			"outputs": [
				{
					"internalType": "uint256",
					"name": "nav",
					"type": "uint256"
				}
			],
			"stateMutability": "view",
			"type": "function"
		},
		{
			"inputs": [
				{
					"internalType": "uint256",
					"name": "indexId",
					"type": "uint256"
				}
			],
			"name": "getEtfTokenAddress",
			"outputs": [
				{
					"internalType": "address",
					"name": "",
					"type": "address"
				}
			],
			"stateMutability": "view",
			"type": "function"
		},
		{
			"inputs": [
				{
					"internalType": "uint256",
					"name": "indexId",
					"type": "uint256"
				}
			],
			"name": "getEtfTotalVolumeUsd",
			"outputs": [
				{
					"internalType": "uint256",
					"name": "",
					"type": "uint256"
				}
			],
			"stateMutability": "view",
			"type": "function"
		},
		{
			"inputs": [
				{
					"internalType": "uint256",
					"name": "indexId",
					"type": "uint256"
				}
			],
			"name": "getEtfTotalVolumeWeth",
			"outputs": [
				{
					"internalType": "uint256",
					"name": "",
					"type": "uint256"
				}
			],
			"stateMutability": "view",
			"type": "function"
		},
		{
			"inputs": [
				{
					"internalType": "uint256",
					"name": "indexId",
					"type": "uint256"
				}
			],
			"name": "getEtfVaultAddress",
			"outputs": [
				{
					"internalType": "address",
					"name": "",
					"type": "address"
				}
			],
			"stateMutability": "view",
			"type": "function"
		},
		{
			"inputs": [
				{
					"internalType": "address",
					"name": "etfTokenAddress",
					"type": "address"
				}
			],
			"name": "getIndexIdFromEtfTokenAddress",
			"outputs": [
				{
					"internalType": "uint256",
					"name": "",
					"type": "uint256"
				}
			],
			"stateMutability": "view",
			"type": "function"
		},
		{
			"inputs": [],
			"name": "isActive",
			"outputs": [
				{
					"internalType": "bool",
					"name": "",
					"type": "bool"
				}
			],
			"stateMutability": "view",
			"type": "function"
		},
		{
			"inputs": [],
			"name": "owner",
			"outputs": [
				{
					"internalType": "address",
					"name": "",
					"type": "address"
				}
			],
			"stateMutability": "view",
			"type": "function"
		},
		{
			"inputs": [
				{
					"internalType": "bool",
					"name": "_active",
					"type": "bool"
				}
			],
			"name": "setActive",
			"outputs": [],
			"stateMutability": "nonpayable",
			"type": "function"
		},
		{
			"inputs": [
				{
					"internalType": "uint256",
					"name": "indexId",
					"type": "uint256"
				},
				{
					"internalType": "uint256",
					"name": "tradeWethValue",
					"type": "uint256"
				}
			],
			"name": "updateEtfVolume",
			"outputs": [],
			"stateMutability": "nonpayable",
			"type": "function"
		}
	]
}