{
	"data": {
		"bytecode": {
			"linkReferences": {},
			"object": "60c0604052670de0b6b3a764000060809081525034801561001e575f5ffd5b5060405161407e38038061407e8339818101604052810190610040919061029c565b816100508161008c60201b60201c565b508073ffffffffffffffffffffffffffffffffffffffff1660a08173ffffffffffffffffffffffffffffffffffffffff16815250505050610473565b5f73ffffffffffffffffffffffffffffffffffffffff168173ffffffffffffffffffffffffffffffffffffffff16036100fa576040517f08c379a00000000000000000000000000000000000000000000000000000000081526004016100f190610334565b60405180910390fd5b5f8173ffffffffffffffffffffffffffffffffffffffff163b11610153576040517f08c379a000000000000000000000000000000000000000000000000000000000815260040161014a9061039c565b60405180910390fd5b8073ffffffffffffffffffffffffffffffffffffffff16638da5cb5b6040518163ffffffff1660e01b8152600401602060405180830381865afa9250505080156101bb57506040513d601f19601f820116820180604052508101906101b891906103ba565b60015b6101fa576040517f08c379a00000000000000000000000000000000000000000000000000000000081526004016101f190610455565b60405180910390fd5b8160075f6101000a81548173ffffffffffffffffffffffffffffffffffffffff021916908373ffffffffffffffffffffffffffffffffffffffff1602179055505050565b5f5ffd5b5f73ffffffffffffffffffffffffffffffffffffffff82169050919050565b5f61026b82610242565b9050919050565b61027b81610261565b8114610285575f5ffd5b50565b5f8151905061029681610272565b92915050565b5f5f604083850312156102b2576102b161023e565b5b5f6102bf85828601610288565b92505060206102d085828601610288565b9150509250929050565b5f82825260208201905092915050565b7f4469726563746f72792063616e6e6f74206265207a65726f20616464726573735f82015250565b5f61031e6020836102da565b9150610329826102ea565b602082019050919050565b5f6020820190508181035f83015261034b81610312565b9050919050565b7f4469726563746f7279206d757374206265206120636f6e7472616374000000005f82015250565b5f610386601c836102da565b915061039182610352565b602082019050919050565b5f6020820190508181035f8301526103b38161037a565b9050919050565b5f602082840312156103cf576103ce61023e565b5b5f6103dc84828501610288565b91505092915050565b7f4469726563746f7279206164647265737320646f6573206e6f7420696d706c655f8201527f6d656e74206f776e657228290000000000000000000000000000000000000000602082015250565b5f61043f602c836102da565b915061044a826103e5565b604082019050919050565b5f6020820190508181035f83015261046c81610433565b9050919050565b60805160a051613bd56104a95f395f81816103f001526118c401525f81816106b20152818161124301526112640152613bd55ff3fe6080604052600436106100eb575f3560e01c8063658a847a11610089578063c45f060711610058578063c45f060714610309578063ecb0271c14610346578063f2018a1f14610382578063fc0121d4146103be576100f2565b8063658a847a146102635780638da5cb5b1461028d5780639183fd01146102b7578063ba4c7be1146102e1576100f2565b806327262618116100c557806327262618146101705780633088f069146101ac5780633ee79962146101e95780636166869014610225576100f2565b8063040141e5146100f657806309053ac4146101205780631626542c14610148576100f2565b366100f257005b5f5ffd5b348015610101575f5ffd5b5061010a6103ee565b6040516101179190612204565b60405180910390f35b34801561012b575f5ffd5b5061014660048036038101906101419190612258565b610412565b005b348015610153575f5ffd5b5061016e600480360381019061016991906122c9565b61051b565b005b34801561017b575f5ffd5b5061019660048036038101906101919190612443565b61073d565b6040516101a39190612204565b60405180910390f35b3480156101b7575f5ffd5b506101d260048036038101906101cd919061248a565b6107de565b6040516101e0929190612670565b60405180910390f35b3480156101f4575f5ffd5b5061020f600480360381019061020a919061248a565b610802565b60405161021c9190612204565b60405180910390f35b348015610230575f5ffd5b5061024b6004803603810190610246919061248a565b6108a0565b60405161025a9392919061269e565b60405180910390f35b34801561026e575f5ffd5b506102776108d2565b6040516102849190612735565b60405180910390f35b348015610298575f5ffd5b506102a16108f7565b6040516102ae9190612204565b60405180910390f35b3480156102c2575f5ffd5b506102cb61098b565b6040516102d8919061275d565b60405180910390f35b3480156102ec575f5ffd5b5061030760048036038101906103029190612776565b6109e2565b005b348015610314575f5ffd5b5061032f600480360381019061032a919061248a565b610ae9565b60405161033d9291906127a1565b60405180910390f35b348015610351575f5ffd5b5061036c6004803603810190610367919061248a565b610b18565b60405161037991906127c8565b60405180910390f35b34801561038d575f5ffd5b506103a860048036038101906103a3919061248a565b610d8b565b6040516103b59190612204565b60405180910390f35b6103d860048036038101906103d3919061280a565b610e29565b6040516103e5919061275d565b60405180910390f35b7f000000000000000000000000000000000000000000000000000000000000000081565b60075f9054906101000a900473ffffffffffffffffffffffffffffffffffffffff1673ffffffffffffffffffffffffffffffffffffffff16638da5cb5b6040518163ffffffff1660e01b8152600401602060405180830381865afa15801561047c573d5f5f3e3d5ffd5b505050506040513d601f19601f820116820180604052508101906104a09190612865565b73ffffffffffffffffffffffffffffffffffffffff163373ffffffffffffffffffffffffffffffffffffffff161461050d576040517f08c379a0000000000000000000000000000000000000000000000000000000008152600401610504906128ea565b60405180910390fd5b610517828261113d565b5050565b6105596040518060400160405280600a81526020017f6574662d726f757465720000000000000000000000000000000000000000000081525061073d565b73ffffffffffffffffffffffffffffffffffffffff163373ffffffffffffffffffffffffffffffffffffffff16146105c6576040517f08c379a00000000000000000000000000000000000000000000000000000000081526004016105bd90612952565b60405180910390fd5b5f81036105ff576040517fcca7f00400000000000000000000000000000000000000000000000000000000815260040160405180910390fd5b5f61060861114b565b73ffffffffffffffffffffffffffffffffffffffff16636855e9396040518163ffffffff1660e01b8152600401602060405180830381865afa158015610650573d5f5f3e3d5ffd5b505050506040513d601f19601f820116820180604052508101906106749190612984565b90505f81036106af576040517f110ea95100000000000000000000000000000000000000000000000000000000815260040160405180910390fd5b5f7f000000000000000000000000000000000000000000000000000000000000000082846106dd91906129dc565b6106e79190612a4a565b90508260055f8681526020019081526020015f205f8282546107099190612a7a565b925050819055508060065f8681526020019081526020015f205f8282546107309190612a7a565b9250508190555050505050565b5f60075f9054906101000a900473ffffffffffffffffffffffffffffffffffffffff1673ffffffffffffffffffffffffffffffffffffffff166327262618836040518263ffffffff1660e01b81526004016107989190612ae5565b602060405180830381865afa1580156107b3573d5f5f3e3d5ffd5b505050506040513d601f19601f820116820180604052508101906107d79190612865565b9050919050565b6107e6612172565b5f6107f083610b18565b91506107fb83610802565b9050915091565b5f60045f8381526020019081526020015f205f9054906101000a900473ffffffffffffffffffffffffffffffffffffffff1690505f73ffffffffffffffffffffffffffffffffffffffff168173ffffffffffffffffffffffffffffffffffffffff160361089b576040517fe6c4247b00000000000000000000000000000000000000000000000000000000815260040160405180910390fd5b919050565b6108a8612172565b5f5f6108b384610b18565b92506108be84610d8b565b91506108c984610802565b90509193909250565b60075f9054906101000a900473ffffffffffffffffffffffffffffffffffffffff1681565b5f60075f9054906101000a900473ffffffffffffffffffffffffffffffffffffffff1673ffffffffffffffffffffffffffffffffffffffff16638da5cb5b6040518163ffffffff1660e01b8152600401602060405180830381865afa158015610962573d5f5f3e3d5ffd5b505050506040513d601f19601f820116820180604052508101906109869190612865565b905090565b5f5f61099561118f565b90505f60646127106109a79190612a7a565b9050612710600161271083856109bd91906129dc565b6109c79190612a7a565b6109d19190612b05565b6109db9190612a4a565b9250505090565b60075f9054906101000a900473ffffffffffffffffffffffffffffffffffffffff1673ffffffffffffffffffffffffffffffffffffffff16638da5cb5b6040518163ffffffff1660e01b8152600401602060405180830381865afa158015610a4c573d5f5f3e3d5ffd5b505050506040513d601f19601f82011682018060405250810190610a709190612865565b73ffffffffffffffffffffffffffffffffffffffff163373ffffffffffffffffffffffffffffffffffffffff1614610add576040517f08c379a0000000000000000000000000000000000000000000000000000000008152600401610ad4906128ea565b60405180910390fd5b610ae68161129d565b50565b5f5f60055f8481526020019081526020015f2054915060065f8481526020019081526020015f20549050915091565b610b20612172565b5f821480610b3157505f8054905082115b15610b68576040517fdfa1a40800000000000000000000000000000000000000000000000000000000815260040160405180910390fd5b5f610b728361144f565b81548110610b8357610b82612b38565b5b905f5260205f2090600302016040518060600160405290815f82018054610ba990612b92565b80601f0160208091040260200160405190810160405280929190818152602001828054610bd590612b92565b8015610c205780601f10610bf757610100808354040283529160200191610c20565b820191905f5260205f20905b815481529060010190602001808311610c0357829003601f168201915b50505050508152602001600182018054610c3990612b92565b80601f0160208091040260200160405190810160405280929190818152602001828054610c6590612b92565b8015610cb05780601f10610c8757610100808354040283529160200191610cb0565b820191905f5260205f20905b815481529060010190602001808311610c9357829003601f168201915b5050505050815260200160028201805480602002602001604051908101604052809291908181526020015f905b82821015610d7c578382905f5260205f20016040518060400160405290815f82015f9054906101000a900473ffffffffffffffffffffffffffffffffffffffff1673ffffffffffffffffffffffffffffffffffffffff1673ffffffffffffffffffffffffffffffffffffffff1681526020015f820160149054906101000a900461ffff1661ffff1661ffff168152505081526020019060010190610cdd565b50505050815250509050919050565b5f60035f8381526020019081526020015f205f9054906101000a900473ffffffffffffffffffffffffffffffffffffffff1690505f73ffffffffffffffffffffffffffffffffffffffff168173ffffffffffffffffffffffffffffffffffffffff1603610e24576040517fe6c4247b00000000000000000000000000000000000000000000000000000000815260040160405180910390fd5b919050565b5f60075f9054906101000a900473ffffffffffffffffffffffffffffffffffffffff1673ffffffffffffffffffffffffffffffffffffffff16638da5cb5b6040518163ffffffff1660e01b8152600401602060405180830381865afa158015610e94573d5f5f3e3d5ffd5b505050506040513d601f19601f82011682018060405250810190610eb89190612865565b73ffffffffffffffffffffffffffffffffffffffff163373ffffffffffffffffffffffffffffffffffffffff1614610f25576040517f08c379a0000000000000000000000000000000000000000000000000000000008152600401610f1c906128ea565b60405180910390fd5b5f610f2f83611464565b90505f610f3a611525565b73ffffffffffffffffffffffffffffffffffffffff166378f6c7c48386805f0190610f659190612bce565b888060200190610f759190612bce565b6040518663ffffffff1660e01b8152600401610f95959493929190612c5c565b6020604051808303815f875af1158015610fb1573d5f5f3e3d5ffd5b505050506040513d601f19601f82011682018060405250810190610fd59190612865565b90505f610fe0611569565b73ffffffffffffffffffffffffffffffffffffffff16636c4bb8bd6040518163ffffffff1660e01b81526004016020604051808303815f875af1158015611029573d5f5f3e3d5ffd5b505050506040513d601f19601f8201168201806040525081019061104d9190612865565b90508160035f8581526020019081526020015f205f6101000a81548173ffffffffffffffffffffffffffffffffffffffff021916908373ffffffffffffffffffffffffffffffffffffffff1602179055508060045f8581526020019081526020015f205f6101000a81548173ffffffffffffffffffffffffffffffffffffffff021916908373ffffffffffffffffffffffffffffffffffffffff160217905550827f5334f52a701cc0b77c4e69637e3ceeff2d8ddb90687ff714f3222d4a25b6dc6286848460405161112193929190612f3c565b60405180910390a2611132836115ad565b829350505050919050565b6111478282611662565b5050565b5f61118a6040518060400160405280600e81526020017f756e69737761702d6f7261636c6500000000000000000000000000000000000081525061073d565b905090565b5f5f61119961114b565b73ffffffffffffffffffffffffffffffffffffffff16636855e9396040518163ffffffff1660e01b8152600401602060405180830381865afa1580156111e1573d5f5f3e3d5ffd5b505050506040513d601f19601f820116820180604052508101906112059190612984565b90505f8103611240576040517f110ea95100000000000000000000000000000000000000000000000000000000815260040160405180910390fd5b807f00000000000000000000000000000000000000000000000000000000000000007f000000000000000000000000000000000000000000000000000000000000000061128d91906129dc565b6112979190612a4a565b91505090565b5f73ffffffffffffffffffffffffffffffffffffffff168173ffffffffffffffffffffffffffffffffffffffff160361130b576040517f08c379a000000000000000000000000000000000000000000000000000000000815260040161130290612fc2565b60405180910390fd5b5f8173ffffffffffffffffffffffffffffffffffffffff163b11611364576040517f08c379a000000000000000000000000000000000000000000000000000000000815260040161135b9061302a565b60405180910390fd5b8073ffffffffffffffffffffffffffffffffffffffff16638da5cb5b6040518163ffffffff1660e01b8152600401602060405180830381865afa9250505080156113cc57506040513d601f19601f820116820180604052508101906113c99190612865565b60015b61140b576040517f08c379a0000000000000000000000000000000000000000000000000000000008152600401611402906130b8565b60405180910390fd5b8160075f6101000a81548173ffffffffffffffffffffffffffffffffffffffff021916908373ffffffffffffffffffffffffffffffffffffffff1602179055505050565b5f60018261145d9190612b05565b9050919050565b5f5f61147e8380602001906114799190612bce565b611739565b90505f61149984806040019061149491906130d6565b6117d2565b90505f6114a582611c67565b90505f6114b55f80549050611cc2565b90505f86908060018154018082558091505060019003905f5260205f2090600302015f9091909190915081816114eb9190613730565b50508060015f8681526020019081526020015f20819055508060025f8481526020019081526020015f208190555080945050505050919050565b5f6115646040518060400160405280601281526020017f6574662d746f6b656e2d6465706c6f796572000000000000000000000000000081525061073d565b905090565b5f6115a86040518060400160405280601281526020017f6574662d7661756c742d6465706c6f796572000000000000000000000000000081525061073d565b905090565b6115b561118f565b3410156115ee576040517fb8a4a41500000000000000000000000000000000000000000000000000000000815260040160405180910390fd5b6115f6611cd7565b73ffffffffffffffffffffffffffffffffffffffff166325c006f93483306040518463ffffffff1660e01b815260040161163192919061373e565b5f604051808303818588803b158015611648575f5ffd5b505af115801561165a573d5f5f3e3d5ffd5b505050505050565b5f73ffffffffffffffffffffffffffffffffffffffff168273ffffffffffffffffffffffffffffffffffffffff16036116a45761169f8147611d1b565b611735565b5f8273ffffffffffffffffffffffffffffffffffffffff166370a08231306040518263ffffffff1660e01b81526004016116de9190612204565b602060405180830381865afa1580156116f9573d5f5f3e3d5ffd5b505050506040513d601f19601f8201168201806040525081019061171d9190612984565b90505f81111561173357611732838383611e32565b5b505b5050565b5f5f8383905003611776576040517f653b1be600000000000000000000000000000000000000000000000000000000815260040160405180910390fd5b6117808383611f81565b90505f60015f8381526020019081526020015f2054146117cc576040517fc498761200000000000000000000000000000000000000000000000000000000815260040160405180910390fd5b92915050565b60605f8383905090505f8103611814576040517f5373815f00000000000000000000000000000000000000000000000000000000815260040160405180910390fd5b8067ffffffffffffffff81111561182e5761182d61231f565b5b60405190808252806020026020018201604052801561186757816020015b611854612193565b81526020019060019003908161184c5790505b5091505f5f90505b81811015611b19573685858381811061188b5761188a612b38565b5b90506040020190505f815f0160208101906118a69190612776565b90505f8260200160208101906118bc9190613765565b61ffff1690507f000000000000000000000000000000000000000000000000000000000000000073ffffffffffffffffffffffffffffffffffffffff168273ffffffffffffffffffffffffffffffffffffffff1614611a02575f61191e611fa2565b73ffffffffffffffffffffffffffffffffffffffff16630f26945f846040518263ffffffff1660e01b81526004016119569190612204565b6080604051808303815f875af1158015611972573d5f5f3e3d5ffd5b505050506040513d601f19601f8201168201806040525081019061199691906138b4565b90505f73ffffffffffffffffffffffffffffffffffffffff16815f015173ffffffffffffffffffffffffffffffffffffffff1603611a00576040517f791c2fed00000000000000000000000000000000000000000000000000000000815260040160405180910390fd5b505b5f73ffffffffffffffffffffffffffffffffffffffff168273ffffffffffffffffffffffffffffffffffffffff1603611a67576040517fad1991f500000000000000000000000000000000000000000000000000000000815260040160405180910390fd5b5f8103611aa0576040517f19a2a9bd00000000000000000000000000000000000000000000000000000000815260040160405180910390fd5b612710811115611adc576040517fc663343d00000000000000000000000000000000000000000000000000000000815260040160405180910390fd5b82803603810190611aed919061392c565b868581518110611b0057611aff612b38565b5b602002602001018190525083600101935050505061186f565b50611b2382611fe6565b5f5f5f90505b82811015611c23575f81118015611bb15750838181518110611b4e57611b4d612b38565b5b60200260200101515f015173ffffffffffffffffffffffffffffffffffffffff1684600183611b7d9190612b05565b81518110611b8e57611b8d612b38565b5b60200260200101515f015173ffffffffffffffffffffffffffffffffffffffff16145b15611be8576040517f464e3f6a00000000000000000000000000000000000000000000000000000000815260040160405180910390fd5b838181518110611bfb57611bfa612b38565b5b60200260200101516020015161ffff1682611c169190612a7a565b9150806001019050611b29565b506127108114611c5f576040517fda6957ea00000000000000000000000000000000000000000000000000000000815260040160405180910390fd5b505092915050565b5f611c7182612143565b90505f60025f8381526020019081526020015f205414611cbd576040517f985be99000000000000000000000000000000000000000000000000000000000815260040160405180910390fd5b919050565b5f600182611cd09190612a7a565b9050919050565b5f611d166040518060400160405280600a81526020017f6574662d726f757465720000000000000000000000000000000000000000000081525061073d565b905090565b5f8103611d54576040517f1f2a200500000000000000000000000000000000000000000000000000000000815260040160405180910390fd5b80471015611d8e576040517f6a12f10400000000000000000000000000000000000000000000000000000000815260040160405180910390fd5b5f8273ffffffffffffffffffffffffffffffffffffffff1682604051611db390613984565b5f6040518083038185875af1925050503d805f8114611ded576040519150601f19603f3d011682016040523d82523d5f602084013e611df2565b606091505b5050905080611e2d576040517fcef4eed700000000000000000000000000000000000000000000000000000000815260040160405180910390fd5b505050565b5f5f8473ffffffffffffffffffffffffffffffffffffffff1663a9059cbb60e01b8585604051602401611e66929190613998565b604051602081830303815290604052907bffffffffffffffffffffffffffffffffffffffffffffffffffffffff19166020820180517bffffffffffffffffffffffffffffffffffffffffffffffffffffffff8381831617835250505050604051611ed091906139f9565b5f604051808303815f865af19150503d805f8114611f09576040519150601f19603f3d011682016040523d82523d5f602084013e611f0e565b606091505b5091509150818015611f3b57505f81511480611f3a575080806020019051810190611f399190613a44565b5b5b611f7a576040517f08c379a0000000000000000000000000000000000000000000000000000000008152600401611f7190613ab9565b60405180910390fd5b5050505050565b5f8282604051611f92929190613afb565b6040518091039020905092915050565b5f611fe16040518060400160405280600b81526020017f706f6f6c2d66696e64657200000000000000000000000000000000000000000081525061073d565b905090565b5f815190505f600190505b8181101561213e575f83828151811061200d5761200c612b38565b5b602002602001015190505f8290505b5f811115612112575f856001836120339190612b05565b8151811061204457612043612b38565b5b60200260200101519050825f015173ffffffffffffffffffffffffffffffffffffffff16815f015173ffffffffffffffffffffffffffffffffffffffff1610806120db5750825f015173ffffffffffffffffffffffffffffffffffffffff16815f015173ffffffffffffffffffffffffffffffffffffffff161480156120da5750826020015161ffff16816020015161ffff1611155b5b156120e65750612112565b808683815181106120fa576120f9612b38565b5b6020026020010181905250816001900391505061201c565b8185828151811061212657612125612b38565b5b60200260200101819052508260010192505050611ff1565b505050565b5f816040516020016121559190613b7f565b604051602081830303815290604052805190602001209050919050565b60405180606001604052806060815260200160608152602001606081525090565b60405180604001604052805f73ffffffffffffffffffffffffffffffffffffffff1681526020015f61ffff1681525090565b5f73ffffffffffffffffffffffffffffffffffffffff82169050919050565b5f6121ee826121c5565b9050919050565b6121fe816121e4565b82525050565b5f6020820190506122175f8301846121f5565b92915050565b5f604051905090565b5f5ffd5b5f5ffd5b612237816121e4565b8114612241575f5ffd5b50565b5f813590506122528161222e565b92915050565b5f5f6040838503121561226e5761226d612226565b5b5f61227b85828601612244565b925050602061228c85828601612244565b9150509250929050565b5f819050919050565b6122a881612296565b81146122b2575f5ffd5b50565b5f813590506122c38161229f565b92915050565b5f5f604083850312156122df576122de612226565b5b5f6122ec858286016122b5565b92505060206122fd858286016122b5565b9150509250929050565b5f5ffd5b5f5ffd5b5f601f19601f8301169050919050565b7f4e487b71000000000000000000000000000000000000000000000000000000005f52604160045260245ffd5b6123558261230f565b810181811067ffffffffffffffff821117156123745761237361231f565b5b80604052505050565b5f61238661221d565b9050612392828261234c565b919050565b5f67ffffffffffffffff8211156123b1576123b061231f565b5b6123ba8261230f565b9050602081019050919050565b828183375f83830152505050565b5f6123e76123e284612397565b61237d565b9050828152602081018484840111156124035761240261230b565b5b61240e8482856123c7565b509392505050565b5f82601f83011261242a57612429612307565b5b813561243a8482602086016123d5565b91505092915050565b5f6020828403121561245857612457612226565b5b5f82013567ffffffffffffffff8111156124755761247461222a565b5b61248184828501612416565b91505092915050565b5f6020828403121561249f5761249e612226565b5b5f6124ac848285016122b5565b91505092915050565b5f81519050919050565b5f82825260208201905092915050565b8281835e5f83830152505050565b5f6124e7826124b5565b6124f181856124bf565b93506125018185602086016124cf565b61250a8161230f565b840191505092915050565b5f81519050919050565b5f82825260208201905092915050565b5f819050602082019050919050565b612547816121e4565b82525050565b5f61ffff82169050919050565b6125638161254d565b82525050565b604082015f82015161257d5f85018261253e565b506020820151612590602085018261255a565b50505050565b5f6125a18383612569565b60408301905092915050565b5f602082019050919050565b5f6125c382612515565b6125cd818561251f565b93506125d88361252f565b805f5b838110156126085781516125ef8882612596565b97506125fa836125ad565b9250506001810190506125db565b5085935050505092915050565b5f606083015f8301518482035f86015261262f82826124dd565b9150506020830151848203602086015261264982826124dd565b9150506040830151848203604086015261266382826125b9565b9150508091505092915050565b5f6040820190508181035f8301526126888185612615565b905061269760208301846121f5565b9392505050565b5f6060820190508181035f8301526126b68186612615565b90506126c560208301856121f5565b6126d260408301846121f5565b949350505050565b5f819050919050565b5f6126fd6126f86126f3846121c5565b6126da565b6121c5565b9050919050565b5f61270e826126e3565b9050919050565b5f61271f82612704565b9050919050565b61272f81612715565b82525050565b5f6020820190506127485f830184612726565b92915050565b61275781612296565b82525050565b5f6020820190506127705f83018461274e565b92915050565b5f6020828403121561278b5761278a612226565b5b5f61279884828501612244565b91505092915050565b5f6040820190506127b45f83018561274e565b6127c1602083018461274e565b9392505050565b5f6020820190508181035f8301526127e08184612615565b905092915050565b5f5ffd5b5f60608284031215612801576128006127e8565b5b81905092915050565b5f6020828403121561281f5761281e612226565b5b5f82013567ffffffffffffffff81111561283c5761283b61222a565b5b612848848285016127ec565b91505092915050565b5f8151905061285f8161222e565b92915050565b5f6020828403121561287a57612879612226565b5b5f61288784828501612851565b91505092915050565b5f82825260208201905092915050565b7f43616c6c6572206973206e6f7420746865206f776e65720000000000000000005f82015250565b5f6128d4601783612890565b91506128df826128a0565b602082019050919050565b5f6020820190508181035f830152612901816128c8565b9050919050565b7f6d73672e73656e646572206973206e6f742065746620726f75746572000000005f82015250565b5f61293c601c83612890565b915061294782612908565b602082019050919050565b5f6020820190508181035f83015261296981612930565b9050919050565b5f8151905061297e8161229f565b92915050565b5f6020828403121561299957612998612226565b5b5f6129a684828501612970565b91505092915050565b7f4e487b71000000000000000000000000000000000000000000000000000000005f52601160045260245ffd5b5f6129e682612296565b91506129f183612296565b92508282026129ff81612296565b91508282048414831517612a1657612a156129af565b5b5092915050565b7f4e487b71000000000000000000000000000000000000000000000000000000005f52601260045260245ffd5b5f612a5482612296565b9150612a5f83612296565b925082612a6f57612a6e612a1d565b5b828204905092915050565b5f612a8482612296565b9150612a8f83612296565b9250828201905080821115612aa757612aa66129af565b5b92915050565b5f612ab7826124b5565b612ac18185612890565b9350612ad18185602086016124cf565b612ada8161230f565b840191505092915050565b5f6020820190508181035f830152612afd8184612aad565b905092915050565b5f612b0f82612296565b9150612b1a83612296565b9250828203905081811115612b3257612b316129af565b5b92915050565b7f4e487b71000000000000000000000000000000000000000000000000000000005f52603260045260245ffd5b7f4e487b71000000000000000000000000000000000000000000000000000000005f52602260045260245ffd5b5f6002820490506001821680612ba957607f821691505b602082108103612bbc57612bbb612b65565b5b50919050565b5f5ffd5b5f5ffd5b5f5ffd5b5f5f83356001602003843603038112612bea57612be9612bc2565b5b80840192508235915067ffffffffffffffff821115612c0c57612c0b612bc6565b5b602083019250600182023603831315612c2857612c27612bca565b5b509250929050565b5f612c3b8385612890565b9350612c488385846123c7565b612c518361230f565b840190509392505050565b5f606082019050612c6f5f83018861274e565b8181036020830152612c82818688612c30565b90508181036040830152612c97818486612c30565b90509695505050505050565b5f5ffd5b5f5ffd5b5f5ffd5b5f5f83356001602003843603038112612ccb57612cca612cab565b5b83810192508235915060208301925067ffffffffffffffff821115612cf357612cf2612ca3565b5b600182023603831315612d0957612d08612ca7565b5b509250929050565b5f612d1c83856124bf565b9350612d298385846123c7565b612d328361230f565b840190509392505050565b5f5f83356001602003843603038112612d5957612d58612cab565b5b83810192508235915060208301925067ffffffffffffffff821115612d8157612d80612ca3565b5b604082023603831315612d9757612d96612ca7565b5b509250929050565b5f819050919050565b5f612db66020840184612244565b905092915050565b612dc78161254d565b8114612dd1575f5ffd5b50565b5f81359050612de281612dbe565b92915050565b5f612df66020840184612dd4565b905092915050565b60408201612e0e5f830183612da8565b612e1a5f85018261253e565b50612e286020830183612de8565b612e35602085018261255a565b50505050565b5f612e468383612dfe565b60408301905092915050565b5f82905092915050565b5f604082019050919050565b5f612e73838561251f565b9350612e7e82612d9f565b805f5b85811015612eb657612e938284612e52565b612e9d8882612e3b565b9750612ea883612e5c565b925050600181019050612e81565b5085925050509392505050565b5f60608301612ed45f840184612caf565b8583035f870152612ee6838284612d11565b92505050612ef76020840184612caf565b8583036020870152612f0a838284612d11565b92505050612f1b6040840184612d3d565b8583036040870152612f2e838284612e68565b925050508091505092915050565b5f6060820190508181035f830152612f548186612ec3565b9050612f6360208301856121f5565b612f7060408301846121f5565b949350505050565b7f4469726563746f72792063616e6e6f74206265207a65726f20616464726573735f82015250565b5f612fac602083612890565b9150612fb782612f78565b602082019050919050565b5f6020820190508181035f830152612fd981612fa0565b9050919050565b7f4469726563746f7279206d757374206265206120636f6e7472616374000000005f82015250565b5f613014601c83612890565b915061301f82612fe0565b602082019050919050565b5f6020820190508181035f83015261304181613008565b9050919050565b7f4469726563746f7279206164647265737320646f6573206e6f7420696d706c655f8201527f6d656e74206f776e657228290000000000000000000000000000000000000000602082015250565b5f6130a2602c83612890565b91506130ad82613048565b604082019050919050565b5f6020820190508181035f8301526130cf81613096565b9050919050565b5f5f833560016020038436030381126130f2576130f1612bc2565b5b80840192508235915067ffffffffffffffff82111561311457613113612bc6565b5b6020830192506040820236038313156131305761312f612bca565b5b509250929050565b7f4e487b71000000000000000000000000000000000000000000000000000000005f525f60045260245ffd5b5f82905092915050565b5f819050815f5260205f209050919050565b5f6020601f8301049050919050565b5f82821b905092915050565b5f600883026131ca7fffffffffffffffffffffffffffffffffffffffffffffffffffffffffffffffff8261318f565b6131d4868361318f565b95508019841693508086168417925050509392505050565b5f6132066132016131fc84612296565b6126da565b612296565b9050919050565b5f819050919050565b61321f836131ec565b61323361322b8261320d565b84845461319b565b825550505050565b5f5f905090565b61324a61323b565b613255818484613216565b505050565b5b818110156132785761326d5f82613242565b60018101905061325b565b5050565b601f8211156132bd5761328e8161316e565b61329784613180565b810160208510156132a6578190505b6132ba6132b285613180565b83018261325a565b50505b505050565b5f82821c905092915050565b5f6132dd5f19846008026132c2565b1980831691505092915050565b5f6132f583836132ce565b9150826002028217905092915050565b61330f8383613164565b67ffffffffffffffff8111156133285761332761231f565b5b6133328254612b92565b61333d82828561327c565b5f601f83116001811461336a575f8415613358578287013590505b61336285826132ea565b8655506133c9565b601f1984166133788661316e565b5f5b8281101561339f5784890135825560018201915060208501945060208101905061337a565b868310156133bc57848901356133b8601f8916826132ce565b8355505b6001600288020188555050505b50505050505050565b6133dd838383613305565b505050565b5f81549050919050565b5f8190506001806001038301049050919050565b5f819050815f5260205f209050919050565b5f5f82015550565b5f821461342a57613429613138565b5b61343381613412565b5050565b5b818110156134555761344a5f8261341a565b600181019050613438565b5050565b818310156134925761346a826133ec565b613473846133ec565b61347c83613400565b81810183820161348c8183613437565b50505050505b505050565b680100000000000000008211156134b1576134b061231f565b5b6134ba816133e2565b8282556134c8838284613459565b505050565b5f82905092915050565b5f81356134e38161222e565b80915050919050565b5f815f1b9050919050565b5f73ffffffffffffffffffffffffffffffffffffffff613516846134ec565b9350801983169250808416831791505092915050565b5f61353682612704565b9050919050565b5f819050919050565b61354f8261352c565b61356261355b8261353d565b83546134f7565b8255505050565b5f813561357581612dbe565b80915050919050565b5f8160a01b9050919050565b5f75ffff00000000000000000000000000000000000000006135ab8461357e565b9350801983169250808416831791505092915050565b5f6135db6135d66135d18461254d565b6126da565b61254d565b9050919050565b5f819050919050565b6135f4826135c1565b613607613600826135e2565b835461358a565b8255505050565b5f81015f83018061361e816134d7565b905061362a8184613546565b5050505f8101602083018061363e81613569565b905061364a81846135eb565b5050505050565b61365b828261360e565b5050565b61366983836134cd565b6136738183613497565b61367c83612d9f565b61368583613400565b5f5b838110156136b2578261369a8184613651565b60408401935060018301925050600181019050613687565b50505050505050565b6136c683838361365f565b505050565b5f81015f83016136db8185612bce565b6136e68183866133d2565b5050505060018101602083016136fc8185612bce565b6137078183866133d2565b50505050600281016040830161371d81856130d6565b6137288183866136bb565b505050505050565b61373a82826136cb565b5050565b5f6040820190506137515f83018561274e565b61375e60208301846121f5565b9392505050565b5f6020828403121561377a57613779612226565b5b5f61378784828501612dd4565b91505092915050565b5f5ffd5b5f62ffffff82169050919050565b6137ab81613794565b81146137b5575f5ffd5b50565b5f815190506137c6816137a2565b92915050565b5f60ff82169050919050565b6137e1816137cc565b81146137eb575f5ffd5b50565b5f815190506137fc816137d8565b92915050565b5f67ffffffffffffffff82169050919050565b61381e81613802565b8114613828575f5ffd5b50565b5f8151905061383981613815565b92915050565b5f6080828403121561385457613853613790565b5b61385e608061237d565b90505f61386d84828501612851565b5f830152506020613880848285016137b8565b6020830152506040613894848285016137ee565b60408301525060606138a88482850161382b565b60608301525092915050565b5f608082840312156138c9576138c8612226565b5b5f6138d68482850161383f565b91505092915050565b5f604082840312156138f4576138f3613790565b5b6138fe604061237d565b90505f61390d84828501612244565b5f83015250602061392084828501612dd4565b60208301525092915050565b5f6040828403121561394157613940612226565b5b5f61394e848285016138df565b91505092915050565b5f81905092915050565b50565b5f61396f5f83613957565b915061397a82613961565b5f82019050919050565b5f61398e82613964565b9150819050919050565b5f6040820190506139ab5f8301856121f5565b6139b8602083018461274e565b9392505050565b5f81519050919050565b5f6139d3826139bf565b6139dd8185613957565b93506139ed8185602086016124cf565b80840191505092915050565b5f613a0482846139c9565b915081905092915050565b5f8115159050919050565b613a2381613a0f565b8114613a2d575f5ffd5b50565b5f81519050613a3e81613a1a565b92915050565b5f60208284031215613a5957613a58612226565b5b5f613a6684828501613a30565b91505092915050565b7f5452414e534645525f4641494c454400000000000000000000000000000000005f82015250565b5f613aa3600f83612890565b9150613aae82613a6f565b602082019050919050565b5f6020820190508181035f830152613ad081613a97565b9050919050565b5f613ae28385613957565b9350613aef8385846123c7565b82840190509392505050565b5f613b07828486613ad7565b91508190509392505050565b5f82825260208201905092915050565b5f613b2d82612515565b613b378185613b13565b9350613b428361252f565b805f5b83811015613b72578151613b598882612596565b9750613b64836125ad565b925050600181019050613b45565b5085935050505092915050565b5f6020820190508181035f830152613b978184613b23565b90509291505056fea264697066735822122093437913cb952e9c1917ca345d627426d851db69830c79acf823f27bf48f645764736f6c634300081e0033",
			"opcodes": "PUSH1 0xC0 PUSH1 0x40 MSTORE PUSH8 0xDE0B6B3A7640000 PUSH1 0x80 SWAP1 DUP2 MSTORE POP CALLVALUE DUP1 ISZERO PUSH2 0x1E JUMPI PUSH0 PUSH0 REVERT JUMPDEST POP PUSH1 0x40 MLOAD PUSH2 0x407E CODESIZE SUB DUP1 PUSH2 0x407E DUP4 CODECOPY DUP2 DUP2 ADD PUSH1 0x40 MSTORE DUP2 ADD SWAP1 PUSH2 0x40 SWAP2 SWAP1 PUSH2 0x29C JUMP JUMPDEST DUP2 PUSH2 0x50 DUP2 PUSH2 0x8C PUSH1 0x20 SHL PUSH1 0x20 SHR JUMP JUMPDEST POP DUP1 PUSH20 0xFFFFFFFFFFFFFFFFFFFFFFFFFFFFFFFFFFFFFFFF AND PUSH1 0xA0 DUP2 PUSH20 0xFFFFFFFFFFFFFFFFFFFFFFFFFFFFFFFFFFFFFFFF AND DUP2 MSTORE POP POP POP POP PUSH2 0x473 JUMP JUMPDEST PUSH0 PUSH20 0xFFFFFFFFFFFFFFFFFFFFFFFFFFFFFFFFFFFFFFFF AND DUP2 PUSH20 0xFFFFFFFFFFFFFFFFFFFFFFFFFFFFFFFFFFFFFFFF AND SUB PUSH2 0xFA JUMPI PUSH1 0x40 MLOAD PUSH32 0x8C379A000000000000000000000000000000000000000000000000000000000 DUP2 MSTORE PUSH1 0x4 ADD PUSH2 0xF1 SWAP1 PUSH2 0x334 JUMP JUMPDEST PUSH1 0x40 MLOAD DUP1 SWAP2 SUB SWAP1 REVERT JUMPDEST PUSH0 DUP2 PUSH20 0xFFFFFFFFFFFFFFFFFFFFFFFFFFFFFFFFFFFFFFFF AND EXTCODESIZE GT PUSH2 0x153 JUMPI PUSH1 0x40 MLOAD PUSH32 0x8C379A000000000000000000000000000000000000000000000000000000000 DUP2 MSTORE PUSH1 0x4 ADD PUSH2 0x14A SWAP1 PUSH2 0x39C JUMP JUMPDEST PUSH1 0x40 MLOAD DUP1 SWAP2 SUB SWAP1 REVERT JUMPDEST DUP1 PUSH20 0xFFFFFFFFFFFFFFFFFFFFFFFFFFFFFFFFFFFFFFFF AND PUSH4 0x8DA5CB5B PUSH1 0x40 MLOAD DUP2 PUSH4 0xFFFFFFFF AND PUSH1 0xE0 SHL DUP2 MSTORE PUSH1 0x4 ADD PUSH1 0x20 PUSH1 0x40 MLOAD DUP1 DUP4 SUB DUP2 DUP7 GAS STATICCALL SWAP3 POP POP POP DUP1 ISZERO PUSH2 0x1BB JUMPI POP PUSH1 0x40 MLOAD RETURNDATASIZE PUSH1 0x1F NOT PUSH1 0x1F DUP3 ADD AND DUP3 ADD DUP1 PUSH1 0x40 MSTORE POP DUP2 ADD SWAP1 PUSH2 0x1B8 SWAP2 SWAP1 PUSH2 0x3BA JUMP JUMPDEST PUSH1 0x1 JUMPDEST PUSH2 0x1FA JUMPI PUSH1 0x40 MLOAD PUSH32 0x8C379A000000000000000000000000000000000000000000000000000000000 DUP2 MSTORE PUSH1 0x4 ADD PUSH2 0x1F1 SWAP1 PUSH2 0x455 JUMP JUMPDEST PUSH1 0x40 MLOAD DUP1 SWAP2 SUB SWAP1 REVERT JUMPDEST DUP2 PUSH1 0x7 PUSH0 PUSH2 0x100 EXP DUP2 SLOAD DUP2 PUSH20 0xFFFFFFFFFFFFFFFFFFFFFFFFFFFFFFFFFFFFFFFF MUL NOT AND SWAP1 DUP4 PUSH20 0xFFFFFFFFFFFFFFFFFFFFFFFFFFFFFFFFFFFFFFFF AND MUL OR SWAP1 SSTORE POP POP POP JUMP JUMPDEST PUSH0 PUSH0 REVERT JUMPDEST PUSH0 PUSH20 0xFFFFFFFFFFFFFFFFFFFFFFFFFFFFFFFFFFFFFFFF DUP3 AND SWAP1 POP SWAP2 SWAP1 POP JUMP JUMPDEST PUSH0 PUSH2 0x26B DUP3 PUSH2 0x242 JUMP JUMPDEST SWAP1 POP SWAP2 SWAP1 POP JUMP JUMPDEST PUSH2 0x27B DUP2 PUSH2 0x261 JUMP JUMPDEST DUP2 EQ PUSH2 0x285 JUMPI PUSH0 PUSH0 REVERT JUMPDEST POP JUMP JUMPDEST PUSH0 DUP2 MLOAD SWAP1 POP PUSH2 0x296 DUP2 PUSH2 0x272 JUMP JUMPDEST SWAP3 SWAP2 POP POP JUMP JUMPDEST PUSH0 PUSH0 PUSH1 0x40 DUP4 DUP6 SUB SLT ISZERO PUSH2 0x2B2 JUMPI PUSH2 0x2B1 PUSH2 0x23E JUMP JUMPDEST JUMPDEST PUSH0 PUSH2 0x2BF DUP6 DUP3 DUP7 ADD PUSH2 0x288 JUMP JUMPDEST SWAP3 POP POP PUSH1 0x20 PUSH2 0x2D0 DUP6 DUP3 DUP7 ADD PUSH2 0x288 JUMP JUMPDEST SWAP2 POP POP SWAP3 POP SWAP3 SWAP1 POP JUMP JUMPDEST PUSH0 DUP3 DUP3 MSTORE PUSH1 0x20 DUP3 ADD SWAP1 POP SWAP3 SWAP2 POP POP JUMP JUMPDEST PUSH32 0x4469726563746F72792063616E6E6F74206265207A65726F2061646472657373 PUSH0 DUP3 ADD MSTORE POP JUMP JUMPDEST PUSH0 PUSH2 0x31E PUSH1 0x20 DUP4 PUSH2 0x2DA JUMP JUMPDEST SWAP2 POP PUSH2 0x329 DUP3 PUSH2 0x2EA JUMP JUMPDEST PUSH1 0x20 DUP3 ADD SWAP1 POP SWAP2 SWAP1 POP JUMP JUMPDEST PUSH0 PUSH1 0x20 DUP3 ADD SWAP1 POP DUP2 DUP2 SUB PUSH0 DUP4 ADD MSTORE PUSH2 0x34B DUP2 PUSH2 0x312 JUMP JUMPDEST SWAP1 POP SWAP2 SWAP1 POP JUMP JUMPDEST PUSH32 0x4469726563746F7279206D757374206265206120636F6E747261637400000000 PUSH0 DUP3 ADD MSTORE POP JUMP JUMPDEST PUSH0 PUSH2 0x386 PUSH1 0x1C DUP4 PUSH2 0x2DA JUMP JUMPDEST SWAP2 POP PUSH2 0x391 DUP3 PUSH2 0x352 JUMP JUMPDEST PUSH1 0x20 DUP3 ADD SWAP1 POP SWAP2 SWAP1 POP JUMP JUMPDEST PUSH0 PUSH1 0x20 DUP3 ADD SWAP1 POP DUP2 DUP2 SUB PUSH0 DUP4 ADD MSTORE PUSH2 0x3B3 DUP2 PUSH2 0x37A JUMP JUMPDEST SWAP1 POP SWAP2 SWAP1 POP JUMP JUMPDEST PUSH0 PUSH1 0x20 DUP3 DUP5 SUB SLT ISZERO PUSH2 0x3CF JUMPI PUSH2 0x3CE PUSH2 0x23E JUMP JUMPDEST JUMPDEST PUSH0 PUSH2 0x3DC DUP5 DUP3 DUP6 ADD PUSH2 0x288 JUMP JUMPDEST SWAP2 POP POP SWAP3 SWAP2 POP POP JUMP JUMPDEST PUSH32 0x4469726563746F7279206164647265737320646F6573206E6F7420696D706C65 PUSH0 DUP3 ADD MSTORE PUSH32 0x6D656E74206F776E657228290000000000000000000000000000000000000000 PUSH1 0x20 DUP3 ADD MSTORE POP JUMP JUMPDEST PUSH0 PUSH2 0x43F PUSH1 0x2C DUP4 PUSH2 0x2DA JUMP JUMPDEST SWAP2 POP PUSH2 0x44A DUP3 PUSH2 0x3E5 JUMP JUMPDEST PUSH1 0x40 DUP3 ADD SWAP1 POP SWAP2 SWAP1 POP JUMP JUMPDEST PUSH0 PUSH1 0x20 DUP3 ADD SWAP1 POP DUP2 DUP2 SUB PUSH0 DUP4 ADD MSTORE PUSH2 0x46C DUP2 PUSH2 0x433 JUMP JUMPDEST SWAP1 POP SWAP2 SWAP1 POP JUMP JUMPDEST PUSH1 0x80 MLOAD PUSH1 0xA0 MLOAD PUSH2 0x3BD5 PUSH2 0x4A9 PUSH0 CODECOPY PUSH0 DUP2 DUP2 PUSH2 0x3F0 ADD MSTORE PUSH2 0x18C4 ADD MSTORE PUSH0 DUP2 DUP2 PUSH2 0x6B2 ADD MSTORE DUP2 DUP2 PUSH2 0x1243 ADD MSTORE PUSH2 0x1264 ADD MSTORE PUSH2 0x3BD5 PUSH0 RETURN INVALID PUSH1 0x80 PUSH1 0x40 MSTORE PUSH1 0x4 CALLDATASIZE LT PUSH2 0xEB JUMPI PUSH0 CALLDATALOAD PUSH1 0xE0 SHR DUP1 PUSH4 0x658A847A GT PUSH2 0x89 JUMPI DUP1 PUSH4 0xC45F0607 GT PUSH2 0x58 JUMPI DUP1 PUSH4 0xC45F0607 EQ PUSH2 0x309 JUMPI DUP1 PUSH4 0xECB0271C EQ PUSH2 0x346 JUMPI DUP1 PUSH4 0xF2018A1F EQ PUSH2 0x382 JUMPI DUP1 PUSH4 0xFC0121D4 EQ PUSH2 0x3BE JUMPI PUSH2 0xF2 JUMP JUMPDEST DUP1 PUSH4 0x658A847A EQ PUSH2 0x263 JUMPI DUP1 PUSH4 0x8DA5CB5B EQ PUSH2 0x28D JUMPI DUP1 PUSH4 0x9183FD01 EQ PUSH2 0x2B7 JUMPI DUP1 PUSH4 0xBA4C7BE1 EQ PUSH2 0x2E1 JUMPI PUSH2 0xF2 JUMP JUMPDEST DUP1 PUSH4 0x27262618 GT PUSH2 0xC5 JUMPI DUP1 PUSH4 0x27262618 EQ PUSH2 0x170 JUMPI DUP1 PUSH4 0x3088F069 EQ PUSH2 0x1AC JUMPI DUP1 PUSH4 0x3EE79962 EQ PUSH2 0x1E9 JUMPI DUP1 PUSH4 0x61668690 EQ PUSH2 0x225 JUMPI PUSH2 0xF2 JUMP JUMPDEST DUP1 PUSH4 0x40141E5 EQ PUSH2 0xF6 JUMPI DUP1 PUSH4 0x9053AC4 EQ PUSH2 0x120 JUMPI DUP1 PUSH4 0x1626542C EQ PUSH2 0x148 JUMPI PUSH2 0xF2 JUMP JUMPDEST CALLDATASIZE PUSH2 0xF2 JUMPI STOP JUMPDEST PUSH0 PUSH0 REVERT JUMPDEST CALLVALUE DUP1 ISZERO PUSH2 0x101 JUMPI PUSH0 PUSH0 REVERT JUMPDEST POP PUSH2 0x10A PUSH2 0x3EE JUMP JUMPDEST PUSH1 0x40 MLOAD PUSH2 0x117 SWAP2 SWAP1 PUSH2 0x2204 JUMP JUMPDEST PUSH1 0x40 MLOAD DUP1 SWAP2 SUB SWAP1 RETURN JUMPDEST CALLVALUE DUP1 ISZERO PUSH2 0x12B JUMPI PUSH0 PUSH0 REVERT JUMPDEST POP PUSH2 0x146 PUSH1 0x4 DUP1 CALLDATASIZE SUB DUP2 ADD SWAP1 PUSH2 0x141 SWAP2 SWAP1 PUSH2 0x2258 JUMP JUMPDEST PUSH2 0x412 JUMP JUMPDEST STOP JUMPDEST CALLVALUE DUP1 ISZERO PUSH2 0x153 JUMPI PUSH0 PUSH0 REVERT JUMPDEST POP PUSH2 0x16E PUSH1 0x4 DUP1 CALLDATASIZE SUB DUP2 ADD SWAP1 PUSH2 0x169 SWAP2 SWAP1 PUSH2 0x22C9 JUMP JUMPDEST PUSH2 0x51B JUMP JUMPDEST STOP JUMPDEST CALLVALUE DUP1 ISZERO PUSH2 0x17B JUMPI PUSH0 PUSH0 REVERT JUMPDEST POP PUSH2 0x196 PUSH1 0x4 DUP1 CALLDATASIZE SUB DUP2 ADD SWAP1 PUSH2 0x191 SWAP2 SWAP1 PUSH2 0x2443 JUMP JUMPDEST PUSH2 0x73D JUMP JUMPDEST PUSH1 0x40 MLOAD PUSH2 0x1A3 SWAP2 SWAP1 PUSH2 0x2204 JUMP JUMPDEST PUSH1 0x40 MLOAD DUP1 SWAP2 SUB SWAP1 RETURN JUMPDEST CALLVALUE DUP1 ISZERO PUSH2 0x1B7 JUMPI PUSH0 PUSH0 REVERT JUMPDEST POP PUSH2 0x1D2 PUSH1 0x4 DUP1 CALLDATASIZE SUB DUP2 ADD SWAP1 PUSH2 0x1CD SWAP2 SWAP1 PUSH2 0x248A JUMP JUMPDEST PUSH2 0x7DE JUMP JUMPDEST PUSH1 0x40 MLOAD PUSH2 0x1E0 SWAP3 SWAP2 SWAP1 PUSH2 0x2670 JUMP JUMPDEST PUSH1 0x40 MLOAD DUP1 SWAP2 SUB SWAP1 RETURN JUMPDEST CALLVALUE DUP1 ISZERO PUSH2 0x1F4 JUMPI PUSH0 PUSH0 REVERT JUMPDEST POP PUSH2 0x20F PUSH1 0x4 DUP1 CALLDATASIZE SUB DUP2 ADD SWAP1 PUSH2 0x20A SWAP2 SWAP1 PUSH2 0x248A JUMP JUMPDEST PUSH2 0x802 JUMP JUMPDEST PUSH1 0x40 MLOAD PUSH2 0x21C SWAP2 SWAP1 PUSH2 0x2204 JUMP JUMPDEST PUSH1 0x40 MLOAD DUP1 SWAP2 SUB SWAP1 RETURN JUMPDEST CALLVALUE DUP1 ISZERO PUSH2 0x230 JUMPI PUSH0 PUSH0 REVERT JUMPDEST POP PUSH2 0x24B PUSH1 0x4 DUP1 CALLDATASIZE SUB DUP2 ADD SWAP1 PUSH2 0x246 SWAP2 SWAP1 PUSH2 0x248A JUMP JUMPDEST PUSH2 0x8A0 JUMP JUMPDEST PUSH1 0x40 MLOAD PUSH2 0x25A SWAP4 SWAP3 SWAP2 SWAP1 PUSH2 0x269E JUMP JUMPDEST PUSH1 0x40 MLOAD DUP1 SWAP2 SUB SWAP1 RETURN JUMPDEST CALLVALUE DUP1 ISZERO PUSH2 0x26E JUMPI PUSH0 PUSH0 REVERT JUMPDEST POP PUSH2 0x277 PUSH2 0x8D2 JUMP JUMPDEST PUSH1 0x40 MLOAD PUSH2 0x284 SWAP2 SWAP1 PUSH2 0x2735 JUMP JUMPDEST PUSH1 0x40 MLOAD DUP1 SWAP2 SUB SWAP1 RETURN JUMPDEST CALLVALUE DUP1 ISZERO PUSH2 0x298 JUMPI PUSH0 PUSH0 REVERT JUMPDEST POP PUSH2 0x2A1 PUSH2 0x8F7 JUMP JUMPDEST PUSH1 0x40 MLOAD PUSH2 0x2AE SWAP2 SWAP1 PUSH2 0x2204 JUMP JUMPDEST PUSH1 0x40 MLOAD DUP1 SWAP2 SUB SWAP1 RETURN JUMPDEST CALLVALUE DUP1 ISZERO PUSH2 0x2C2 JUMPI PUSH0 PUSH0 REVERT JUMPDEST POP PUSH2 0x2CB PUSH2 0x98B JUMP JUMPDEST PUSH1 0x40 MLOAD PUSH2 0x2D8 SWAP2 SWAP1 PUSH2 0x275D JUMP JUMPDEST PUSH1 0x40 MLOAD DUP1 SWAP2 SUB SWAP1 RETURN JUMPDEST CALLVALUE DUP1 ISZERO PUSH2 0x2EC JUMPI PUSH0 PUSH0 REVERT JUMPDEST POP PUSH2 0x307 PUSH1 0x4 DUP1 CALLDATASIZE SUB DUP2 ADD SWAP1 PUSH2 0x302 SWAP2 SWAP1 PUSH2 0x2776 JUMP JUMPDEST PUSH2 0x9E2 JUMP JUMPDEST STOP JUMPDEST CALLVALUE DUP1 ISZERO PUSH2 0x314 JUMPI PUSH0 PUSH0 REVERT JUMPDEST POP PUSH2 0x32F PUSH1 0x4 DUP1 CALLDATASIZE SUB DUP2 ADD SWAP1 PUSH2 0x32A SWAP2 SWAP1 PUSH2 0x248A JUMP JUMPDEST PUSH2 0xAE9 JUMP JUMPDEST PUSH1 0x40 MLOAD PUSH2 0x33D SWAP3 SWAP2 SWAP1 PUSH2 0x27A1 JUMP JUMPDEST PUSH1 0x40 MLOAD DUP1 SWAP2 SUB SWAP1 RETURN JUMPDEST CALLVALUE DUP1 ISZERO PUSH2 0x351 JUMPI PUSH0 PUSH0 REVERT JUMPDEST POP PUSH2 0x36C PUSH1 0x4 DUP1 CALLDATASIZE SUB DUP2 ADD SWAP1 PUSH2 0x367 SWAP2 SWAP1 PUSH2 0x248A JUMP JUMPDEST PUSH2 0xB18 JUMP JUMPDEST PUSH1 0x40 MLOAD PUSH2 0x379 SWAP2 SWAP1 PUSH2 0x27C8 JUMP JUMPDEST PUSH1 0x40 MLOAD DUP1 SWAP2 SUB SWAP1 RETURN JUMPDEST CALLVALUE DUP1 ISZERO PUSH2 0x38D JUMPI PUSH0 PUSH0 REVERT JUMPDEST POP PUSH2 0x3A8 PUSH1 0x4 DUP1 CALLDATASIZE SUB DUP2 ADD SWAP1 PUSH2 0x3A3 SWAP2 SWAP1 PUSH2 0x248A JUMP JUMPDEST PUSH2 0xD8B JUMP JUMPDEST PUSH1 0x40 MLOAD PUSH2 0x3B5 SWAP2 SWAP1 PUSH2 0x2204 JUMP JUMPDEST PUSH1 0x40 MLOAD DUP1 SWAP2 SUB SWAP1 RETURN JUMPDEST PUSH2 0x3D8 PUSH1 0x4 DUP1 CALLDATASIZE SUB DUP2 ADD SWAP1 PUSH2 0x3D3 SWAP2 SWAP1 PUSH2 0x280A JUMP JUMPDEST PUSH2 0xE29 JUMP JUMPDEST PUSH1 0x40 MLOAD PUSH2 0x3E5 SWAP2 SWAP1 PUSH2 0x275D JUMP JUMPDEST PUSH1 0x40 MLOAD DUP1 SWAP2 SUB SWAP1 RETURN JUMPDEST PUSH32 0x0 DUP2 JUMP JUMPDEST PUSH1 0x7 PUSH0 SWAP1 SLOAD SWAP1 PUSH2 0x100 EXP SWAP1 DIV PUSH20 0xFFFFFFFFFFFFFFFFFFFFFFFFFFFFFFFFFFFFFFFF AND PUSH20 0xFFFFFFFFFFFFFFFFFFFFFFFFFFFFFFFFFFFFFFFF AND PUSH4 0x8DA5CB5B PUSH1 0x40 MLOAD DUP2 PUSH4 0xFFFFFFFF AND PUSH1 0xE0 SHL DUP2 MSTORE PUSH1 0x4 ADD PUSH1 0x20 PUSH1 0x40 MLOAD DUP1 DUP4 SUB DUP2 DUP7 GAS STATICCALL ISZERO DUP1 ISZERO PUSH2 0x47C JUMPI RETURNDATASIZE PUSH0 PUSH0 RETURNDATACOPY RETURNDATASIZE PUSH0 REVERT JUMPDEST POP POP POP POP PUSH1 0x40 MLOAD RETURNDATASIZE PUSH1 0x1F NOT PUSH1 0x1F DUP3 ADD AND DUP3 ADD DUP1 PUSH1 0x40 MSTORE POP DUP2 ADD SWAP1 PUSH2 0x4A0 SWAP2 SWAP1 PUSH2 0x2865 JUMP JUMPDEST PUSH20 0xFFFFFFFFFFFFFFFFFFFFFFFFFFFFFFFFFFFFFFFF AND CALLER PUSH20 0xFFFFFFFFFFFFFFFFFFFFFFFFFFFFFFFFFFFFFFFF AND EQ PUSH2 0x50D JUMPI PUSH1 0x40 MLOAD PUSH32 0x8C379A000000000000000000000000000000000000000000000000000000000 DUP2 MSTORE PUSH1 0x4 ADD PUSH2 0x504 SWAP1 PUSH2 0x28EA JUMP JUMPDEST PUSH1 0x40 MLOAD DUP1 SWAP2 SUB SWAP1 REVERT JUMPDEST PUSH2 0x517 DUP3 DUP3 PUSH2 0x113D JUMP JUMPDEST POP POP JUMP JUMPDEST PUSH2 0x559 PUSH1 0x40 MLOAD DUP1 PUSH1 0x40 ADD PUSH1 0x40 MSTORE DUP1 PUSH1 0xA DUP2 MSTORE PUSH1 0x20 ADD PUSH32 0x6574662D726F7574657200000000000000000000000000000000000000000000 DUP2 MSTORE POP PUSH2 0x73D JUMP JUMPDEST PUSH20 0xFFFFFFFFFFFFFFFFFFFFFFFFFFFFFFFFFFFFFFFF AND CALLER PUSH20 0xFFFFFFFFFFFFFFFFFFFFFFFFFFFFFFFFFFFFFFFF AND EQ PUSH2 0x5C6 JUMPI PUSH1 0x40 MLOAD PUSH32 0x8C379A000000000000000000000000000000000000000000000000000000000 DUP2 MSTORE PUSH1 0x4 ADD PUSH2 0x5BD SWAP1 PUSH2 0x2952 JUMP JUMPDEST PUSH1 0x40 MLOAD DUP1 SWAP2 SUB SWAP1 REVERT JUMPDEST PUSH0 DUP2 SUB PUSH2 0x5FF JUMPI PUSH1 0x40 MLOAD PUSH32 0xCCA7F00400000000000000000000000000000000000000000000000000000000 DUP2 MSTORE PUSH1 0x4 ADD PUSH1 0x40 MLOAD DUP1 SWAP2 SUB SWAP1 REVERT JUMPDEST PUSH0 PUSH2 0x608 PUSH2 0x114B JUMP JUMPDEST PUSH20 0xFFFFFFFFFFFFFFFFFFFFFFFFFFFFFFFFFFFFFFFF AND PUSH4 0x6855E939 PUSH1 0x40 MLOAD DUP2 PUSH4 0xFFFFFFFF AND PUSH1 0xE0 SHL DUP2 MSTORE PUSH1 0x4 ADD PUSH1 0x20 PUSH1 0x40 MLOAD DUP1 DUP4 SUB DUP2 DUP7 GAS STATICCALL ISZERO DUP1 ISZERO PUSH2 0x650 JUMPI RETURNDATASIZE PUSH0 PUSH0 RETURNDATACOPY RETURNDATASIZE PUSH0 REVERT JUMPDEST POP POP POP POP PUSH1 0x40 MLOAD RETURNDATASIZE PUSH1 0x1F NOT PUSH1 0x1F DUP3 ADD AND DUP3 ADD DUP1 PUSH1 0x40 MSTORE POP DUP2 ADD SWAP1 PUSH2 0x674 SWAP2 SWAP1 PUSH2 0x2984 JUMP JUMPDEST SWAP1 POP PUSH0 DUP2 SUB PUSH2 0x6AF JUMPI PUSH1 0x40 MLOAD PUSH32 0x110EA95100000000000000000000000000000000000000000000000000000000 DUP2 MSTORE PUSH1 0x4 ADD PUSH1 0x40 MLOAD DUP1 SWAP2 SUB SWAP1 REVERT JUMPDEST PUSH0 PUSH32 0x0 DUP3 DUP5 PUSH2 0x6DD SWAP2 SWAP1 PUSH2 0x29DC JUMP JUMPDEST PUSH2 0x6E7 SWAP2 SWAP1 PUSH2 0x2A4A JUMP JUMPDEST SWAP1 POP DUP3 PUSH1 0x5 PUSH0 DUP7 DUP2 MSTORE PUSH1 0x20 ADD SWAP1 DUP2 MSTORE PUSH1 0x20 ADD PUSH0 KECCAK256 PUSH0 DUP3 DUP3 SLOAD PUSH2 0x709 SWAP2 SWAP1 PUSH2 0x2A7A JUMP JUMPDEST SWAP3 POP POP DUP2 SWAP1 SSTORE POP DUP1 PUSH1 0x6 PUSH0 DUP7 DUP2 MSTORE PUSH1 0x20 ADD SWAP1 DUP2 MSTORE PUSH1 0x20 ADD PUSH0 KECCAK256 PUSH0 DUP3 DUP3 SLOAD PUSH2 0x730 SWAP2 SWAP1 PUSH2 0x2A7A JUMP JUMPDEST SWAP3 POP POP DUP2 SWAP1 SSTORE POP POP POP POP POP JUMP JUMPDEST PUSH0 PUSH1 0x7 PUSH0 SWAP1 SLOAD SWAP1 PUSH2 0x100 EXP SWAP1 DIV PUSH20 0xFFFFFFFFFFFFFFFFFFFFFFFFFFFFFFFFFFFFFFFF AND PUSH20 0xFFFFFFFFFFFFFFFFFFFFFFFFFFFFFFFFFFFFFFFF AND PUSH4 0x27262618 DUP4 PUSH1 0x40 MLOAD DUP3 PUSH4 0xFFFFFFFF AND PUSH1 0xE0 SHL DUP2 MSTORE PUSH1 0x4 ADD PUSH2 0x798 SWAP2 SWAP1 PUSH2 0x2AE5 JUMP JUMPDEST PUSH1 0x20 PUSH1 0x40 MLOAD DUP1 DUP4 SUB DUP2 DUP7 GAS STATICCALL ISZERO DUP1 ISZERO PUSH2 0x7B3 JUMPI RETURNDATASIZE PUSH0 PUSH0 RETURNDATACOPY RETURNDATASIZE PUSH0 REVERT JUMPDEST POP POP POP POP PUSH1 0x40 MLOAD RETURNDATASIZE PUSH1 0x1F NOT PUSH1 0x1F DUP3 ADD AND DUP3 ADD DUP1 PUSH1 0x40 MSTORE POP DUP2 ADD SWAP1 PUSH2 0x7D7 SWAP2 SWAP1 PUSH2 0x2865 JUMP JUMPDEST SWAP1 POP SWAP2 SWAP1 POP JUMP JUMPDEST PUSH2 0x7E6 PUSH2 0x2172 JUMP JUMPDEST PUSH0 PUSH2 0x7F0 DUP4 PUSH2 0xB18 JUMP JUMPDEST SWAP2 POP PUSH2 0x7FB DUP4 PUSH2 0x802 JUMP JUMPDEST SWAP1 POP SWAP2 POP SWAP2 JUMP JUMPDEST PUSH0 PUSH1 0x4 PUSH0 DUP4 DUP2 MSTORE PUSH1 0x20 ADD SWAP1 DUP2 MSTORE PUSH1 0x20 ADD PUSH0 KECCAK256 PUSH0 SWAP1 SLOAD SWAP1 PUSH2 0x100 EXP SWAP1 DIV PUSH20 0xFFFFFFFFFFFFFFFFFFFFFFFFFFFFFFFFFFFFFFFF AND SWAP1 POP PUSH0 PUSH20 0xFFFFFFFFFFFFFFFFFFFFFFFFFFFFFFFFFFFFFFFF AND DUP2 PUSH20 0xFFFFFFFFFFFFFFFFFFFFFFFFFFFFFFFFFFFFFFFF AND SUB PUSH2 0x89B JUMPI PUSH1 0x40 MLOAD PUSH32 0xE6C4247B00000000000000000000000000000000000000000000000000000000 DUP2 MSTORE PUSH1 0x4 ADD PUSH1 0x40 MLOAD DUP1 SWAP2 SUB SWAP1 REVERT JUMPDEST SWAP2 SWAP1 POP JUMP JUMPDEST PUSH2 0x8A8 PUSH2 0x2172 JUMP JUMPDEST PUSH0 PUSH0 PUSH2 0x8B3 DUP5 PUSH2 0xB18 JUMP JUMPDEST SWAP3 POP PUSH2 0x8BE DUP5 PUSH2 0xD8B JUMP JUMPDEST SWAP2 POP PUSH2 0x8C9 DUP5 PUSH2 0x802 JUMP JUMPDEST SWAP1 POP SWAP2 SWAP4 SWAP1 SWAP3 POP JUMP JUMPDEST PUSH1 0x7 PUSH0 SWAP1 SLOAD SWAP1 PUSH2 0x100 EXP SWAP1 DIV PUSH20 0xFFFFFFFFFFFFFFFFFFFFFFFFFFFFFFFFFFFFFFFF AND DUP2 JUMP JUMPDEST PUSH0 PUSH1 0x7 PUSH0 SWAP1 SLOAD SWAP1 PUSH2 0x100 EXP SWAP1 DIV PUSH20 0xFFFFFFFFFFFFFFFFFFFFFFFFFFFFFFFFFFFFFFFF AND PUSH20 0xFFFFFFFFFFFFFFFFFFFFFFFFFFFFFFFFFFFFFFFF AND PUSH4 0x8DA5CB5B PUSH1 0x40 MLOAD DUP2 PUSH4 0xFFFFFFFF AND PUSH1 0xE0 SHL DUP2 MSTORE PUSH1 0x4 ADD PUSH1 0x20 PUSH1 0x40 MLOAD DUP1 DUP4 SUB DUP2 DUP7 GAS STATICCALL ISZERO DUP1 ISZERO PUSH2 0x962 JUMPI RETURNDATASIZE PUSH0 PUSH0 RETURNDATACOPY RETURNDATASIZE PUSH0 REVERT JUMPDEST POP POP POP POP PUSH1 0x40 MLOAD RETURNDATASIZE PUSH1 0x1F NOT PUSH1 0x1F DUP3 ADD AND DUP3 ADD DUP1 PUSH1 0x40 MSTORE POP DUP2 ADD SWAP1 PUSH2 0x986 SWAP2 SWAP1 PUSH2 0x2865 JUMP JUMPDEST SWAP1 POP SWAP1 JUMP JUMPDEST PUSH0 PUSH0 PUSH2 0x995 PUSH2 0x118F JUMP JUMPDEST SWAP1 POP PUSH0 PUSH1 0x64 PUSH2 0x2710 PUSH2 0x9A7 SWAP2 SWAP1 PUSH2 0x2A7A JUMP JUMPDEST SWAP1 POP PUSH2 0x2710 PUSH1 0x1 PUSH2 0x2710 DUP4 DUP6 PUSH2 0x9BD SWAP2 SWAP1 PUSH2 0x29DC JUMP JUMPDEST PUSH2 0x9C7 SWAP2 SWAP1 PUSH2 0x2A7A JUMP JUMPDEST PUSH2 0x9D1 SWAP2 SWAP1 PUSH2 0x2B05 JUMP JUMPDEST PUSH2 0x9DB SWAP2 SWAP1 PUSH2 0x2A4A JUMP JUMPDEST SWAP3 POP POP POP SWAP1 JUMP JUMPDEST PUSH1 0x7 PUSH0 SWAP1 SLOAD SWAP1 PUSH2 0x100 EXP SWAP1 DIV PUSH20 0xFFFFFFFFFFFFFFFFFFFFFFFFFFFFFFFFFFFFFFFF AND PUSH20 0xFFFFFFFFFFFFFFFFFFFFFFFFFFFFFFFFFFFFFFFF AND PUSH4 0x8DA5CB5B PUSH1 0x40 MLOAD DUP2 PUSH4 0xFFFFFFFF AND PUSH1 0xE0 SHL DUP2 MSTORE PUSH1 0x4 ADD PUSH1 0x20 PUSH1 0x40 MLOAD DUP1 DUP4 SUB DUP2 DUP7 GAS STATICCALL ISZERO DUP1 ISZERO PUSH2 0xA4C JUMPI RETURNDATASIZE PUSH0 PUSH0 RETURNDATACOPY RETURNDATASIZE PUSH0 REVERT JUMPDEST POP POP POP POP PUSH1 0x40 MLOAD RETURNDATASIZE PUSH1 0x1F NOT PUSH1 0x1F DUP3 ADD AND DUP3 ADD DUP1 PUSH1 0x40 MSTORE POP DUP2 ADD SWAP1 PUSH2 0xA70 SWAP2 SWAP1 PUSH2 0x2865 JUMP JUMPDEST PUSH20 0xFFFFFFFFFFFFFFFFFFFFFFFFFFFFFFFFFFFFFFFF AND CALLER PUSH20 0xFFFFFFFFFFFFFFFFFFFFFFFFFFFFFFFFFFFFFFFF AND EQ PUSH2 0xADD JUMPI PUSH1 0x40 MLOAD PUSH32 0x8C379A000000000000000000000000000000000000000000000000000000000 DUP2 MSTORE PUSH1 0x4 ADD PUSH2 0xAD4 SWAP1 PUSH2 0x28EA JUMP JUMPDEST PUSH1 0x40 MLOAD DUP1 SWAP2 SUB SWAP1 REVERT JUMPDEST PUSH2 0xAE6 DUP2 PUSH2 0x129D JUMP JUMPDEST POP JUMP JUMPDEST PUSH0 PUSH0 PUSH1 0x5 PUSH0 DUP5 DUP2 MSTORE PUSH1 0x20 ADD SWAP1 DUP2 MSTORE PUSH1 0x20 ADD PUSH0 KECCAK256 SLOAD SWAP2 POP PUSH1 0x6 PUSH0 DUP5 DUP2 MSTORE PUSH1 0x20 ADD SWAP1 DUP2 MSTORE PUSH1 0x20 ADD PUSH0 KECCAK256 SLOAD SWAP1 POP SWAP2 POP SWAP2 JUMP JUMPDEST PUSH2 0xB20 PUSH2 0x2172 JUMP JUMPDEST PUSH0 DUP3 EQ DUP1 PUSH2 0xB31 JUMPI POP PUSH0 DUP1 SLOAD SWAP1 POP DUP3 GT JUMPDEST ISZERO PUSH2 0xB68 JUMPI PUSH1 0x40 MLOAD PUSH32 0xDFA1A40800000000000000000000000000000000000000000000000000000000 DUP2 MSTORE PUSH1 0x4 ADD PUSH1 0x40 MLOAD DUP1 SWAP2 SUB SWAP1 REVERT JUMPDEST PUSH0 PUSH2 0xB72 DUP4 PUSH2 0x144F JUMP JUMPDEST DUP2 SLOAD DUP2 LT PUSH2 0xB83 JUMPI PUSH2 0xB82 PUSH2 0x2B38 JUMP JUMPDEST JUMPDEST SWAP1 PUSH0 MSTORE PUSH1 0x20 PUSH0 KECCAK256 SWAP1 PUSH1 0x3 MUL ADD PUSH1 0x40 MLOAD DUP1 PUSH1 0x60 ADD PUSH1 0x40 MSTORE SWAP1 DUP2 PUSH0 DUP3 ADD DUP1 SLOAD PUSH2 0xBA9 SWAP1 PUSH2 0x2B92 JUMP JUMPDEST DUP1 PUSH1 0x1F ADD PUSH1 0x20 DUP1 SWAP2 DIV MUL PUSH1 0x20 ADD PUSH1 0x40 MLOAD SWAP1 DUP2 ADD PUSH1 0x40 MSTORE DUP1 SWAP3 SWAP2 SWAP1 DUP2 DUP2 MSTORE PUSH1 0x20 ADD DUP3 DUP1 SLOAD PUSH2 0xBD5 SWAP1 PUSH2 0x2B92 JUMP JUMPDEST DUP1 ISZERO PUSH2 0xC20 JUMPI DUP1 PUSH1 0x1F LT PUSH2 0xBF7 JUMPI PUSH2 0x100 DUP1 DUP4 SLOAD DIV MUL DUP4 MSTORE SWAP2 PUSH1 0x20 ADD SWAP2 PUSH2 0xC20 JUMP JUMPDEST DUP3 ADD SWAP2 SWAP1 PUSH0 MSTORE PUSH1 0x20 PUSH0 KECCAK256 SWAP1 JUMPDEST DUP2 SLOAD DUP2 MSTORE SWAP1 PUSH1 0x1 ADD SWAP1 PUSH1 0x20 ADD DUP1 DUP4 GT PUSH2 0xC03 JUMPI DUP3 SWAP1 SUB PUSH1 0x1F AND DUP3 ADD SWAP2 JUMPDEST POP POP POP POP POP DUP2 MSTORE PUSH1 0x20 ADD PUSH1 0x1 DUP3 ADD DUP1 SLOAD PUSH2 0xC39 SWAP1 PUSH2 0x2B92 JUMP JUMPDEST DUP1 PUSH1 0x1F ADD PUSH1 0x20 DUP1 SWAP2 DIV MUL PUSH1 0x20 ADD PUSH1 0x40 MLOAD SWAP1 DUP2 ADD PUSH1 0x40 MSTORE DUP1 SWAP3 SWAP2 SWAP1 DUP2 DUP2 MSTORE PUSH1 0x20 ADD DUP3 DUP1 SLOAD PUSH2 0xC65 SWAP1 PUSH2 0x2B92 JUMP JUMPDEST DUP1 ISZERO PUSH2 0xCB0 JUMPI DUP1 PUSH1 0x1F LT PUSH2 0xC87 JUMPI PUSH2 0x100 DUP1 DUP4 SLOAD DIV MUL DUP4 MSTORE SWAP2 PUSH1 0x20 ADD SWAP2 PUSH2 0xCB0 JUMP JUMPDEST DUP3 ADD SWAP2 SWAP1 PUSH0 MSTORE PUSH1 0x20 PUSH0 KECCAK256 SWAP1 JUMPDEST DUP2 SLOAD DUP2 MSTORE SWAP1 PUSH1 0x1 ADD SWAP1 PUSH1 0x20 ADD DUP1 DUP4 GT PUSH2 0xC93 JUMPI DUP3 SWAP1 SUB PUSH1 0x1F AND DUP3 ADD SWAP2 JUMPDEST POP POP POP POP POP DUP2 MSTORE PUSH1 0x20 ADD PUSH1 0x2 DUP3 ADD DUP1 SLOAD DUP1 PUSH1 0x20 MUL PUSH1 0x20 ADD PUSH1 0x40 MLOAD SWAP1 DUP2 ADD PUSH1 0x40 MSTORE DUP1 SWAP3 SWAP2 SWAP1 DUP2 DUP2 MSTORE PUSH1 0x20 ADD PUSH0 SWAP1 JUMPDEST DUP3 DUP3 LT ISZERO PUSH2 0xD7C JUMPI DUP4 DUP3 SWAP1 PUSH0 MSTORE PUSH1 0x20 PUSH0 KECCAK256 ADD PUSH1 0x40 MLOAD DUP1 PUSH1 0x40 ADD PUSH1 0x40 MSTORE SWAP1 DUP2 PUSH0 DUP3 ADD PUSH0 SWAP1 SLOAD SWAP1 PUSH2 0x100 EXP SWAP1 DIV PUSH20 0xFFFFFFFFFFFFFFFFFFFFFFFFFFFFFFFFFFFFFFFF AND PUSH20 0xFFFFFFFFFFFFFFFFFFFFFFFFFFFFFFFFFFFFFFFF AND PUSH20 0xFFFFFFFFFFFFFFFFFFFFFFFFFFFFFFFFFFFFFFFF AND DUP2 MSTORE PUSH1 0x20 ADD PUSH0 DUP3 ADD PUSH1 0x14 SWAP1 SLOAD SWAP1 PUSH2 0x100 EXP SWAP1 DIV PUSH2 0xFFFF AND PUSH2 0xFFFF AND PUSH2 0xFFFF AND DUP2 MSTORE POP POP DUP2 MSTORE PUSH1 0x20 ADD SWAP1 PUSH1 0x1 ADD SWAP1 PUSH2 0xCDD JUMP JUMPDEST POP POP POP POP DUP2 MSTORE POP POP SWAP1 POP SWAP2 SWAP1 POP JUMP JUMPDEST PUSH0 PUSH1 0x3 PUSH0 DUP4 DUP2 MSTORE PUSH1 0x20 ADD SWAP1 DUP2 MSTORE PUSH1 0x20 ADD PUSH0 KECCAK256 PUSH0 SWAP1 SLOAD SWAP1 PUSH2 0x100 EXP SWAP1 DIV PUSH20 0xFFFFFFFFFFFFFFFFFFFFFFFFFFFFFFFFFFFFFFFF AND SWAP1 POP PUSH0 PUSH20 0xFFFFFFFFFFFFFFFFFFFFFFFFFFFFFFFFFFFFFFFF AND DUP2 PUSH20 0xFFFFFFFFFFFFFFFFFFFFFFFFFFFFFFFFFFFFFFFF AND SUB PUSH2 0xE24 JUMPI PUSH1 0x40 MLOAD PUSH32 0xE6C4247B00000000000000000000000000000000000000000000000000000000 DUP2 MSTORE PUSH1 0x4 ADD PUSH1 0x40 MLOAD DUP1 SWAP2 SUB SWAP1 REVERT JUMPDEST SWAP2 SWAP1 POP JUMP JUMPDEST PUSH0 PUSH1 0x7 PUSH0 SWAP1 SLOAD SWAP1 PUSH2 0x100 EXP SWAP1 DIV PUSH20 0xFFFFFFFFFFFFFFFFFFFFFFFFFFFFFFFFFFFFFFFF AND PUSH20 0xFFFFFFFFFFFFFFFFFFFFFFFFFFFFFFFFFFFFFFFF AND PUSH4 0x8DA5CB5B PUSH1 0x40 MLOAD DUP2 PUSH4 0xFFFFFFFF AND PUSH1 0xE0 SHL DUP2 MSTORE PUSH1 0x4 ADD PUSH1 0x20 PUSH1 0x40 MLOAD DUP1 DUP4 SUB DUP2 DUP7 GAS STATICCALL ISZERO DUP1 ISZERO PUSH2 0xE94 JUMPI RETURNDATASIZE PUSH0 PUSH0 RETURNDATACOPY RETURNDATASIZE PUSH0 REVERT JUMPDEST POP POP POP POP PUSH1 0x40 MLOAD RETURNDATASIZE PUSH1 0x1F NOT PUSH1 0x1F DUP3 ADD AND DUP3 ADD DUP1 PUSH1 0x40 MSTORE POP DUP2 ADD SWAP1 PUSH2 0xEB8 SWAP2 SWAP1 PUSH2 0x2865 JUMP JUMPDEST PUSH20 0xFFFFFFFFFFFFFFFFFFFFFFFFFFFFFFFFFFFFFFFF AND CALLER PUSH20 0xFFFFFFFFFFFFFFFFFFFFFFFFFFFFFFFFFFFFFFFF AND EQ PUSH2 0xF25 JUMPI PUSH1 0x40 MLOAD PUSH32 0x8C379A000000000000000000000000000000000000000000000000000000000 DUP2 MSTORE PUSH1 0x4 ADD PUSH2 0xF1C SWAP1 PUSH2 0x28EA JUMP JUMPDEST PUSH1 0x40 MLOAD DUP1 SWAP2 SUB SWAP1 REVERT JUMPDEST PUSH0 PUSH2 0xF2F DUP4 PUSH2 0x1464 JUMP JUMPDEST SWAP1 POP PUSH0 PUSH2 0xF3A PUSH2 0x1525 JUMP JUMPDEST PUSH20 0xFFFFFFFFFFFFFFFFFFFFFFFFFFFFFFFFFFFFFFFF AND PUSH4 0x78F6C7C4 DUP4 DUP7 DUP1 PUSH0 ADD SWAP1 PUSH2 0xF65 SWAP2 SWAP1 PUSH2 0x2BCE JUMP JUMPDEST DUP9 DUP1 PUSH1 0x20 ADD SWAP1 PUSH2 0xF75 SWAP2 SWAP1 PUSH2 0x2BCE JUMP JUMPDEST PUSH1 0x40 MLOAD DUP7 PUSH4 0xFFFFFFFF AND PUSH1 0xE0 SHL DUP2 MSTORE PUSH1 0x4 ADD PUSH2 0xF95 SWAP6 SWAP5 SWAP4 SWAP3 SWAP2 SWAP1 PUSH2 0x2C5C JUMP JUMPDEST PUSH1 0x20 PUSH1 0x40 MLOAD DUP1 DUP4 SUB DUP2 PUSH0 DUP8 GAS CALL ISZERO DUP1 ISZERO PUSH2 0xFB1 JUMPI RETURNDATASIZE PUSH0 PUSH0 RETURNDATACOPY RETURNDATASIZE PUSH0 REVERT JUMPDEST POP POP POP POP PUSH1 0x40 MLOAD RETURNDATASIZE PUSH1 0x1F NOT PUSH1 0x1F DUP3 ADD AND DUP3 ADD DUP1 PUSH1 0x40 MSTORE POP DUP2 ADD SWAP1 PUSH2 0xFD5 SWAP2 SWAP1 PUSH2 0x2865 JUMP JUMPDEST SWAP1 POP PUSH0 PUSH2 0xFE0 PUSH2 0x1569 JUMP JUMPDEST PUSH20 0xFFFFFFFFFFFFFFFFFFFFFFFFFFFFFFFFFFFFFFFF AND PUSH4 0x6C4BB8BD PUSH1 0x40 MLOAD DUP2 PUSH4 0xFFFFFFFF AND PUSH1 0xE0 SHL DUP2 MSTORE PUSH1 0x4 ADD PUSH1 0x20 PUSH1 0x40 MLOAD DUP1 DUP4 SUB DUP2 PUSH0 DUP8 GAS CALL ISZERO DUP1 ISZERO PUSH2 0x1029 JUMPI RETURNDATASIZE PUSH0 PUSH0 RETURNDATACOPY RETURNDATASIZE PUSH0 REVERT JUMPDEST POP POP POP POP PUSH1 0x40 MLOAD RETURNDATASIZE PUSH1 0x1F NOT PUSH1 0x1F DUP3 ADD AND DUP3 ADD DUP1 PUSH1 0x40 MSTORE POP DUP2 ADD SWAP1 PUSH2 0x104D SWAP2 SWAP1 PUSH2 0x2865 JUMP JUMPDEST SWAP1 POP DUP2 PUSH1 0x3 PUSH0 DUP6 DUP2 MSTORE PUSH1 0x20 ADD SWAP1 DUP2 MSTORE PUSH1 0x20 ADD PUSH0 KECCAK256 PUSH0 PUSH2 0x100 EXP DUP2 SLOAD DUP2 PUSH20 0xFFFFFFFFFFFFFFFFFFFFFFFFFFFFFFFFFFFFFFFF MUL NOT AND SWAP1 DUP4 PUSH20 0xFFFFFFFFFFFFFFFFFFFFFFFFFFFFFFFFFFFFFFFF AND MUL OR SWAP1 SSTORE POP DUP1 PUSH1 0x4 PUSH0 DUP6 DUP2 MSTORE PUSH1 0x20 ADD SWAP1 DUP2 MSTORE PUSH1 0x20 ADD PUSH0 KECCAK256 PUSH0 PUSH2 0x100 EXP DUP2 SLOAD DUP2 PUSH20 0xFFFFFFFFFFFFFFFFFFFFFFFFFFFFFFFFFFFFFFFF MUL NOT AND SWAP1 DUP4 PUSH20 0xFFFFFFFFFFFFFFFFFFFFFFFFFFFFFFFFFFFFFFFF AND MUL OR SWAP1 SSTORE POP DUP3 PUSH32 0x5334F52A701CC0B77C4E69637E3CEEFF2D8DDB90687FF714F3222D4A25B6DC62 DUP7 DUP5 DUP5 PUSH1 0x40 MLOAD PUSH2 0x1121 SWAP4 SWAP3 SWAP2 SWAP1 PUSH2 0x2F3C JUMP JUMPDEST PUSH1 0x40 MLOAD DUP1 SWAP2 SUB SWAP1 LOG2 PUSH2 0x1132 DUP4 PUSH2 0x15AD JUMP JUMPDEST DUP3 SWAP4 POP POP POP POP SWAP2 SWAP1 POP JUMP JUMPDEST PUSH2 0x1147 DUP3 DUP3 PUSH2 0x1662 JUMP JUMPDEST POP POP JUMP JUMPDEST PUSH0 PUSH2 0x118A PUSH1 0x40 MLOAD DUP1 PUSH1 0x40 ADD PUSH1 0x40 MSTORE DUP1 PUSH1 0xE DUP2 MSTORE PUSH1 0x20 ADD PUSH32 0x756E69737761702D6F7261636C65000000000000000000000000000000000000 DUP2 MSTORE POP PUSH2 0x73D JUMP JUMPDEST SWAP1 POP SWAP1 JUMP JUMPDEST PUSH0 PUSH0 PUSH2 0x1199 PUSH2 0x114B JUMP JUMPDEST PUSH20 0xFFFFFFFFFFFFFFFFFFFFFFFFFFFFFFFFFFFFFFFF AND PUSH4 0x6855E939 PUSH1 0x40 MLOAD DUP2 PUSH4 0xFFFFFFFF AND PUSH1 0xE0 SHL DUP2 MSTORE PUSH1 0x4 ADD PUSH1 0x20 PUSH1 0x40 MLOAD DUP1 DUP4 SUB DUP2 DUP7 GAS STATICCALL ISZERO DUP1 ISZERO PUSH2 0x11E1 JUMPI RETURNDATASIZE PUSH0 PUSH0 RETURNDATACOPY RETURNDATASIZE PUSH0 REVERT JUMPDEST POP POP POP POP PUSH1 0x40 MLOAD RETURNDATASIZE PUSH1 0x1F NOT PUSH1 0x1F DUP3 ADD AND DUP3 ADD DUP1 PUSH1 0x40 MSTORE POP DUP2 ADD SWAP1 PUSH2 0x1205 SWAP2 SWAP1 PUSH2 0x2984 JUMP JUMPDEST SWAP1 POP PUSH0 DUP2 SUB PUSH2 0x1240 JUMPI PUSH1 0x40 MLOAD PUSH32 0x110EA95100000000000000000000000000000000000000000000000000000000 DUP2 MSTORE PUSH1 0x4 ADD PUSH1 0x40 MLOAD DUP1 SWAP2 SUB SWAP1 REVERT JUMPDEST DUP1 PUSH32 0x0 PUSH32 0x0 PUSH2 0x128D SWAP2 SWAP1 PUSH2 0x29DC JUMP JUMPDEST PUSH2 0x1297 SWAP2 SWAP1 PUSH2 0x2A4A JUMP JUMPDEST SWAP2 POP POP SWAP1 JUMP JUMPDEST PUSH0 PUSH20 0xFFFFFFFFFFFFFFFFFFFFFFFFFFFFFFFFFFFFFFFF AND DUP2 PUSH20 0xFFFFFFFFFFFFFFFFFFFFFFFFFFFFFFFFFFFFFFFF AND SUB PUSH2 0x130B JUMPI PUSH1 0x40 MLOAD PUSH32 0x8C379A000000000000000000000000000000000000000000000000000000000 DUP2 MSTORE PUSH1 0x4 ADD PUSH2 0x1302 SWAP1 PUSH2 0x2FC2 JUMP JUMPDEST PUSH1 0x40 MLOAD DUP1 SWAP2 SUB SWAP1 REVERT JUMPDEST PUSH0 DUP2 PUSH20 0xFFFFFFFFFFFFFFFFFFFFFFFFFFFFFFFFFFFFFFFF AND EXTCODESIZE GT PUSH2 0x1364 JUMPI PUSH1 0x40 MLOAD PUSH32 0x8C379A000000000000000000000000000000000000000000000000000000000 DUP2 MSTORE PUSH1 0x4 ADD PUSH2 0x135B SWAP1 PUSH2 0x302A JUMP JUMPDEST PUSH1 0x40 MLOAD DUP1 SWAP2 SUB SWAP1 REVERT JUMPDEST DUP1 PUSH20 0xFFFFFFFFFFFFFFFFFFFFFFFFFFFFFFFFFFFFFFFF AND PUSH4 0x8DA5CB5B PUSH1 0x40 MLOAD DUP2 PUSH4 0xFFFFFFFF AND PUSH1 0xE0 SHL DUP2 MSTORE PUSH1 0x4 ADD PUSH1 0x20 PUSH1 0x40 MLOAD DUP1 DUP4 SUB DUP2 DUP7 GAS STATICCALL SWAP3 POP POP POP DUP1 ISZERO PUSH2 0x13CC JUMPI POP PUSH1 0x40 MLOAD RETURNDATASIZE PUSH1 0x1F NOT PUSH1 0x1F DUP3 ADD AND DUP3 ADD DUP1 PUSH1 0x40 MSTORE POP DUP2 ADD SWAP1 PUSH2 0x13C9 SWAP2 SWAP1 PUSH2 0x2865 JUMP JUMPDEST PUSH1 0x1 JUMPDEST PUSH2 0x140B JUMPI PUSH1 0x40 MLOAD PUSH32 0x8C379A000000000000000000000000000000000000000000000000000000000 DUP2 MSTORE PUSH1 0x4 ADD PUSH2 0x1402 SWAP1 PUSH2 0x30B8 JUMP JUMPDEST PUSH1 0x40 MLOAD DUP1 SWAP2 SUB SWAP1 REVERT JUMPDEST DUP2 PUSH1 0x7 PUSH0 PUSH2 0x100 EXP DUP2 SLOAD DUP2 PUSH20 0xFFFFFFFFFFFFFFFFFFFFFFFFFFFFFFFFFFFFFFFF MUL NOT AND SWAP1 DUP4 PUSH20 0xFFFFFFFFFFFFFFFFFFFFFFFFFFFFFFFFFFFFFFFF AND MUL OR SWAP1 SSTORE POP POP POP JUMP JUMPDEST PUSH0 PUSH1 0x1 DUP3 PUSH2 0x145D SWAP2 SWAP1 PUSH2 0x2B05 JUMP JUMPDEST SWAP1 POP SWAP2 SWAP1 POP JUMP JUMPDEST PUSH0 PUSH0 PUSH2 0x147E DUP4 DUP1 PUSH1 0x20 ADD SWAP1 PUSH2 0x1479 SWAP2 SWAP1 PUSH2 0x2BCE JUMP JUMPDEST PUSH2 0x1739 JUMP JUMPDEST SWAP1 POP PUSH0 PUSH2 0x1499 DUP5 DUP1 PUSH1 0x40 ADD SWAP1 PUSH2 0x1494 SWAP2 SWAP1 PUSH2 0x30D6 JUMP JUMPDEST PUSH2 0x17D2 JUMP JUMPDEST SWAP1 POP PUSH0 PUSH2 0x14A5 DUP3 PUSH2 0x1C67 JUMP JUMPDEST SWAP1 POP PUSH0 PUSH2 0x14B5 PUSH0 DUP1 SLOAD SWAP1 POP PUSH2 0x1CC2 JUMP JUMPDEST SWAP1 POP PUSH0 DUP7 SWAP1 DUP1 PUSH1 0x1 DUP2 SLOAD ADD DUP1 DUP3 SSTORE DUP1 SWAP2 POP POP PUSH1 0x1 SWAP1 SUB SWAP1 PUSH0 MSTORE PUSH1 0x20 PUSH0 KECCAK256 SWAP1 PUSH1 0x3 MUL ADD PUSH0 SWAP1 SWAP2 SWAP1 SWAP2 SWAP1 SWAP2 POP DUP2 DUP2 PUSH2 0x14EB SWAP2 SWAP1 PUSH2 0x3730 JUMP JUMPDEST POP POP DUP1 PUSH1 0x1 PUSH0 DUP7 DUP2 MSTORE PUSH1 0x20 ADD SWAP1 DUP2 MSTORE PUSH1 0x20 ADD PUSH0 KECCAK256 DUP2 SWAP1 SSTORE POP DUP1 PUSH1 0x2 PUSH0 DUP5 DUP2 MSTORE PUSH1 0x20 ADD SWAP1 DUP2 MSTORE PUSH1 0x20 ADD PUSH0 KECCAK256 DUP2 SWAP1 SSTORE POP DUP1 SWAP5 POP POP POP POP POP SWAP2 SWAP1 POP JUMP JUMPDEST PUSH0 PUSH2 0x1564 PUSH1 0x40 MLOAD DUP1 PUSH1 0x40 ADD PUSH1 0x40 MSTORE DUP1 PUSH1 0x12 DUP2 MSTORE PUSH1 0x20 ADD PUSH32 0x6574662D746F6B656E2D6465706C6F7965720000000000000000000000000000 DUP2 MSTORE POP PUSH2 0x73D JUMP JUMPDEST SWAP1 POP SWAP1 JUMP JUMPDEST PUSH0 PUSH2 0x15A8 PUSH1 0x40 MLOAD DUP1 PUSH1 0x40 ADD PUSH1 0x40 MSTORE DUP1 PUSH1 0x12 DUP2 MSTORE PUSH1 0x20 ADD PUSH32 0x6574662D7661756C742D6465706C6F7965720000000000000000000000000000 DUP2 MSTORE POP PUSH2 0x73D JUMP JUMPDEST SWAP1 POP SWAP1 JUMP JUMPDEST PUSH2 0x15B5 PUSH2 0x118F JUMP JUMPDEST CALLVALUE LT ISZERO PUSH2 0x15EE JUMPI PUSH1 0x40 MLOAD PUSH32 0xB8A4A41500000000000000000000000000000000000000000000000000000000 DUP2 MSTORE PUSH1 0x4 ADD PUSH1 0x40 MLOAD DUP1 SWAP2 SUB SWAP1 REVERT JUMPDEST PUSH2 0x15F6 PUSH2 0x1CD7 JUMP JUMPDEST PUSH20 0xFFFFFFFFFFFFFFFFFFFFFFFFFFFFFFFFFFFFFFFF AND PUSH4 0x25C006F9 CALLVALUE DUP4 ADDRESS PUSH1 0x40 MLOAD DUP5 PUSH4 0xFFFFFFFF AND PUSH1 0xE0 SHL DUP2 MSTORE PUSH1 0x4 ADD PUSH2 0x1631 SWAP3 SWAP2 SWAP1 PUSH2 0x373E JUMP JUMPDEST PUSH0 PUSH1 0x40 MLOAD DUP1 DUP4 SUB DUP2 DUP6 DUP9 DUP1 EXTCODESIZE ISZERO DUP1 ISZERO PUSH2 0x1648 JUMPI PUSH0 PUSH0 REVERT JUMPDEST POP GAS CALL ISZERO DUP1 ISZERO PUSH2 0x165A JUMPI RETURNDATASIZE PUSH0 PUSH0 RETURNDATACOPY RETURNDATASIZE PUSH0 REVERT JUMPDEST POP POP POP POP POP POP JUMP JUMPDEST PUSH0 PUSH20 0xFFFFFFFFFFFFFFFFFFFFFFFFFFFFFFFFFFFFFFFF AND DUP3 PUSH20 0xFFFFFFFFFFFFFFFFFFFFFFFFFFFFFFFFFFFFFFFF AND SUB PUSH2 0x16A4 JUMPI PUSH2 0x169F DUP2 SELFBALANCE PUSH2 0x1D1B JUMP JUMPDEST PUSH2 0x1735 JUMP JUMPDEST PUSH0 DUP3 PUSH20 0xFFFFFFFFFFFFFFFFFFFFFFFFFFFFFFFFFFFFFFFF AND PUSH4 0x70A08231 ADDRESS PUSH1 0x40 MLOAD DUP3 PUSH4 0xFFFFFFFF AND PUSH1 0xE0 SHL DUP2 MSTORE PUSH1 0x4 ADD PUSH2 0x16DE SWAP2 SWAP1 PUSH2 0x2204 JUMP JUMPDEST PUSH1 0x20 PUSH1 0x40 MLOAD DUP1 DUP4 SUB DUP2 DUP7 GAS STATICCALL ISZERO DUP1 ISZERO PUSH2 0x16F9 JUMPI RETURNDATASIZE PUSH0 PUSH0 RETURNDATACOPY RETURNDATASIZE PUSH0 REVERT JUMPDEST POP POP POP POP PUSH1 0x40 MLOAD RETURNDATASIZE PUSH1 0x1F NOT PUSH1 0x1F DUP3 ADD AND DUP3 ADD DUP1 PUSH1 0x40 MSTORE POP DUP2 ADD SWAP1 PUSH2 0x171D SWAP2 SWAP1 PUSH2 0x2984 JUMP JUMPDEST SWAP1 POP PUSH0 DUP2 GT ISZERO PUSH2 0x1733 JUMPI PUSH2 0x1732 DUP4 DUP4 DUP4 PUSH2 0x1E32 JUMP JUMPDEST JUMPDEST POP JUMPDEST POP POP JUMP JUMPDEST PUSH0 PUSH0 DUP4 DUP4 SWAP1 POP SUB PUSH2 0x1776 JUMPI PUSH1 0x40 MLOAD PUSH32 0x653B1BE600000000000000000000000000000000000000000000000000000000 DUP2 MSTORE PUSH1 0x4 ADD PUSH1 0x40 MLOAD DUP1 SWAP2 SUB SWAP1 REVERT JUMPDEST PUSH2 0x1780 DUP4 DUP4 PUSH2 0x1F81 JUMP JUMPDEST SWAP1 POP PUSH0 PUSH1 0x1 PUSH0 DUP4 DUP2 MSTORE PUSH1 0x20 ADD SWAP1 DUP2 MSTORE PUSH1 0x20 ADD PUSH0 KECCAK256 SLOAD EQ PUSH2 0x17CC JUMPI PUSH1 0x40 MLOAD PUSH32 0xC498761200000000000000000000000000000000000000000000000000000000 DUP2 MSTORE PUSH1 0x4 ADD PUSH1 0x40 MLOAD DUP1 SWAP2 SUB SWAP1 REVERT JUMPDEST SWAP3 SWAP2 POP POP JUMP JUMPDEST PUSH1 0x60 PUSH0 DUP4 DUP4 SWAP1 POP SWAP1 POP PUSH0 DUP2 SUB PUSH2 0x1814 JUMPI PUSH1 0x40 MLOAD PUSH32 0x5373815F00000000000000000000000000000000000000000000000000000000 DUP2 MSTORE PUSH1 0x4 ADD PUSH1 0x40 MLOAD DUP1 SWAP2 SUB SWAP1 REVERT JUMPDEST DUP1 PUSH8 0xFFFFFFFFFFFFFFFF DUP2 GT ISZERO PUSH2 0x182E JUMPI PUSH2 0x182D PUSH2 0x231F JUMP JUMPDEST JUMPDEST PUSH1 0x40 MLOAD SWAP1 DUP1 DUP3 MSTORE DUP1 PUSH1 0x20 MUL PUSH1 0x20 ADD DUP3 ADD PUSH1 0x40 MSTORE DUP1 ISZERO PUSH2 0x1867 JUMPI DUP2 PUSH1 0x20 ADD JUMPDEST PUSH2 0x1854 PUSH2 0x2193 JUMP JUMPDEST DUP2 MSTORE PUSH1 0x20 ADD SWAP1 PUSH1 0x1 SWAP1 SUB SWAP1 DUP2 PUSH2 0x184C JUMPI SWAP1 POP JUMPDEST POP SWAP2 POP PUSH0 PUSH0 SWAP1 POP JUMPDEST DUP2 DUP2 LT ISZERO PUSH2 0x1B19 JUMPI CALLDATASIZE DUP6 DUP6 DUP4 DUP2 DUP2 LT PUSH2 0x188B JUMPI PUSH2 0x188A PUSH2 0x2B38 JUMP JUMPDEST JUMPDEST SWAP1 POP PUSH1 0x40 MUL ADD SWAP1 POP PUSH0 DUP2 PUSH0 ADD PUSH1 0x20 DUP2 ADD SWAP1 PUSH2 0x18A6 SWAP2 SWAP1 PUSH2 0x2776 JUMP JUMPDEST SWAP1 POP PUSH0 DUP3 PUSH1 0x20 ADD PUSH1 0x20 DUP2 ADD SWAP1 PUSH2 0x18BC SWAP2 SWAP1 PUSH2 0x3765 JUMP JUMPDEST PUSH2 0xFFFF AND SWAP1 POP PUSH32 0x0 PUSH20 0xFFFFFFFFFFFFFFFFFFFFFFFFFFFFFFFFFFFFFFFF AND DUP3 PUSH20 0xFFFFFFFFFFFFFFFFFFFFFFFFFFFFFFFFFFFFFFFF AND EQ PUSH2 0x1A02 JUMPI PUSH0 PUSH2 0x191E PUSH2 0x1FA2 JUMP JUMPDEST PUSH20 0xFFFFFFFFFFFFFFFFFFFFFFFFFFFFFFFFFFFFFFFF AND PUSH4 0xF26945F DUP5 PUSH1 0x40 MLOAD DUP3 PUSH4 0xFFFFFFFF AND PUSH1 0xE0 SHL DUP2 MSTORE PUSH1 0x4 ADD PUSH2 0x1956 SWAP2 SWAP1 PUSH2 0x2204 JUMP JUMPDEST PUSH1 0x80 PUSH1 0x40 MLOAD DUP1 DUP4 SUB DUP2 PUSH0 DUP8 GAS CALL ISZERO DUP1 ISZERO PUSH2 0x1972 JUMPI RETURNDATASIZE PUSH0 PUSH0 RETURNDATACOPY RETURNDATASIZE PUSH0 REVERT JUMPDEST POP POP POP POP PUSH1 0x40 MLOAD RETURNDATASIZE PUSH1 0x1F NOT PUSH1 0x1F DUP3 ADD AND DUP3 ADD DUP1 PUSH1 0x40 MSTORE POP DUP2 ADD SWAP1 PUSH2 0x1996 SWAP2 SWAP1 PUSH2 0x38B4 JUMP JUMPDEST SWAP1 POP PUSH0 PUSH20 0xFFFFFFFFFFFFFFFFFFFFFFFFFFFFFFFFFFFFFFFF AND DUP2 PUSH0 ADD MLOAD PUSH20 0xFFFFFFFFFFFFFFFFFFFFFFFFFFFFFFFFFFFFFFFF AND SUB PUSH2 0x1A00 JUMPI PUSH1 0x40 MLOAD PUSH32 0x791C2FED00000000000000000000000000000000000000000000000000000000 DUP2 MSTORE PUSH1 0x4 ADD PUSH1 0x40 MLOAD DUP1 SWAP2 SUB SWAP1 REVERT JUMPDEST POP JUMPDEST PUSH0 PUSH20 0xFFFFFFFFFFFFFFFFFFFFFFFFFFFFFFFFFFFFFFFF AND DUP3 PUSH20 0xFFFFFFFFFFFFFFFFFFFFFFFFFFFFFFFFFFFFFFFF AND SUB PUSH2 0x1A67 JUMPI PUSH1 0x40 MLOAD PUSH32 0xAD1991F500000000000000000000000000000000000000000000000000000000 DUP2 MSTORE PUSH1 0x4 ADD PUSH1 0x40 MLOAD DUP1 SWAP2 SUB SWAP1 REVERT JUMPDEST PUSH0 DUP2 SUB PUSH2 0x1AA0 JUMPI PUSH1 0x40 MLOAD PUSH32 0x19A2A9BD00000000000000000000000000000000000000000000000000000000 DUP2 MSTORE PUSH1 0x4 ADD PUSH1 0x40 MLOAD DUP1 SWAP2 SUB SWAP1 REVERT JUMPDEST PUSH2 0x2710 DUP2 GT ISZERO PUSH2 0x1ADC JUMPI PUSH1 0x40 MLOAD PUSH32 0xC663343D00000000000000000000000000000000000000000000000000000000 DUP2 MSTORE PUSH1 0x4 ADD PUSH1 0x40 MLOAD DUP1 SWAP2 SUB SWAP1 REVERT JUMPDEST DUP3 DUP1 CALLDATASIZE SUB DUP2 ADD SWAP1 PUSH2 0x1AED SWAP2 SWAP1 PUSH2 0x392C JUMP JUMPDEST DUP7 DUP6 DUP2 MLOAD DUP2 LT PUSH2 0x1B00 JUMPI PUSH2 0x1AFF PUSH2 0x2B38 JUMP JUMPDEST JUMPDEST PUSH1 0x20 MUL PUSH1 0x20 ADD ADD DUP2 SWAP1 MSTORE POP DUP4 PUSH1 0x1 ADD SWAP4 POP POP POP POP PUSH2 0x186F JUMP JUMPDEST POP PUSH2 0x1B23 DUP3 PUSH2 0x1FE6 JUMP JUMPDEST PUSH0 PUSH0 PUSH0 SWAP1 POP JUMPDEST DUP3 DUP2 LT ISZERO PUSH2 0x1C23 JUMPI PUSH0 DUP2 GT DUP1 ISZERO PUSH2 0x1BB1 JUMPI POP DUP4 DUP2 DUP2 MLOAD DUP2 LT PUSH2 0x1B4E JUMPI PUSH2 0x1B4D PUSH2 0x2B38 JUMP JUMPDEST JUMPDEST PUSH1 0x20 MUL PUSH1 0x20 ADD ADD MLOAD PUSH0 ADD MLOAD PUSH20 0xFFFFFFFFFFFFFFFFFFFFFFFFFFFFFFFFFFFFFFFF AND DUP5 PUSH1 0x1 DUP4 PUSH2 0x1B7D SWAP2 SWAP1 PUSH2 0x2B05 JUMP JUMPDEST DUP2 MLOAD DUP2 LT PUSH2 0x1B8E JUMPI PUSH2 0x1B8D PUSH2 0x2B38 JUMP JUMPDEST JUMPDEST PUSH1 0x20 MUL PUSH1 0x20 ADD ADD MLOAD PUSH0 ADD MLOAD PUSH20 0xFFFFFFFFFFFFFFFFFFFFFFFFFFFFFFFFFFFFFFFF AND EQ JUMPDEST ISZERO PUSH2 0x1BE8 JUMPI PUSH1 0x40 MLOAD PUSH32 0x464E3F6A00000000000000000000000000000000000000000000000000000000 DUP2 MSTORE PUSH1 0x4 ADD PUSH1 0x40 MLOAD DUP1 SWAP2 SUB SWAP1 REVERT JUMPDEST DUP4 DUP2 DUP2 MLOAD DUP2 LT PUSH2 0x1BFB JUMPI PUSH2 0x1BFA PUSH2 0x2B38 JUMP JUMPDEST JUMPDEST PUSH1 0x20 MUL PUSH1 0x20 ADD ADD MLOAD PUSH1 0x20 ADD MLOAD PUSH2 0xFFFF AND DUP3 PUSH2 0x1C16 SWAP2 SWAP1 PUSH2 0x2A7A JUMP JUMPDEST SWAP2 POP DUP1 PUSH1 0x1 ADD SWAP1 POP PUSH2 0x1B29 JUMP JUMPDEST POP PUSH2 0x2710 DUP2 EQ PUSH2 0x1C5F JUMPI PUSH1 0x40 MLOAD PUSH32 0xDA6957EA00000000000000000000000000000000000000000000000000000000 DUP2 MSTORE PUSH1 0x4 ADD PUSH1 0x40 MLOAD DUP1 SWAP2 SUB SWAP1 REVERT JUMPDEST POP POP SWAP3 SWAP2 POP POP JUMP JUMPDEST PUSH0 PUSH2 0x1C71 DUP3 PUSH2 0x2143 JUMP JUMPDEST SWAP1 POP PUSH0 PUSH1 0x2 PUSH0 DUP4 DUP2 MSTORE PUSH1 0x20 ADD SWAP1 DUP2 MSTORE PUSH1 0x20 ADD PUSH0 KECCAK256 SLOAD EQ PUSH2 0x1CBD JUMPI PUSH1 0x40 MLOAD PUSH32 0x985BE99000000000000000000000000000000000000000000000000000000000 DUP2 MSTORE PUSH1 0x4 ADD PUSH1 0x40 MLOAD DUP1 SWAP2 SUB SWAP1 REVERT JUMPDEST SWAP2 SWAP1 POP JUMP JUMPDEST PUSH0 PUSH1 0x1 DUP3 PUSH2 0x1CD0 SWAP2 SWAP1 PUSH2 0x2A7A JUMP JUMPDEST SWAP1 POP SWAP2 SWAP1 POP JUMP JUMPDEST PUSH0 PUSH2 0x1D16 PUSH1 0x40 MLOAD DUP1 PUSH1 0x40 ADD PUSH1 0x40 MSTORE DUP1 PUSH1 0xA DUP2 MSTORE PUSH1 0x20 ADD PUSH32 0x6574662D726F7574657200000000000000000000000000000000000000000000 DUP2 MSTORE POP PUSH2 0x73D JUMP JUMPDEST SWAP1 POP SWAP1 JUMP JUMPDEST PUSH0 DUP2 SUB PUSH2 0x1D54 JUMPI PUSH1 0x40 MLOAD PUSH32 0x1F2A200500000000000000000000000000000000000000000000000000000000 DUP2 MSTORE PUSH1 0x4 ADD PUSH1 0x40 MLOAD DUP1 SWAP2 SUB SWAP1 REVERT JUMPDEST DUP1 SELFBALANCE LT ISZERO PUSH2 0x1D8E JUMPI PUSH1 0x40 MLOAD PUSH32 0x6A12F10400000000000000000000000000000000000000000000000000000000 DUP2 MSTORE PUSH1 0x4 ADD PUSH1 0x40 MLOAD DUP1 SWAP2 SUB SWAP1 REVERT JUMPDEST PUSH0 DUP3 PUSH20 0xFFFFFFFFFFFFFFFFFFFFFFFFFFFFFFFFFFFFFFFF AND DUP3 PUSH1 0x40 MLOAD PUSH2 0x1DB3 SWAP1 PUSH2 0x3984 JUMP JUMPDEST PUSH0 PUSH1 0x40 MLOAD DUP1 DUP4 SUB DUP2 DUP6 DUP8 GAS CALL SWAP3 POP POP POP RETURNDATASIZE DUP1 PUSH0 DUP2 EQ PUSH2 0x1DED JUMPI PUSH1 0x40 MLOAD SWAP2 POP PUSH1 0x1F NOT PUSH1 0x3F RETURNDATASIZE ADD AND DUP3 ADD PUSH1 0x40 MSTORE RETURNDATASIZE DUP3 MSTORE RETURNDATASIZE PUSH0 PUSH1 0x20 DUP5 ADD RETURNDATACOPY PUSH2 0x1DF2 JUMP JUMPDEST PUSH1 0x60 SWAP2 POP JUMPDEST POP POP SWAP1 POP DUP1 PUSH2 0x1E2D JUMPI PUSH1 0x40 MLOAD PUSH32 0xCEF4EED700000000000000000000000000000000000000000000000000000000 DUP2 MSTORE PUSH1 0x4 ADD PUSH1 0x40 MLOAD DUP1 SWAP2 SUB SWAP1 REVERT JUMPDEST POP POP POP JUMP JUMPDEST PUSH0 PUSH0 DUP5 PUSH20 0xFFFFFFFFFFFFFFFFFFFFFFFFFFFFFFFFFFFFFFFF AND PUSH4 0xA9059CBB PUSH1 0xE0 SHL DUP6 DUP6 PUSH1 0x40 MLOAD PUSH1 0x24 ADD PUSH2 0x1E66 SWAP3 SWAP2 SWAP1 PUSH2 0x3998 JUMP JUMPDEST PUSH1 0x40 MLOAD PUSH1 0x20 DUP2 DUP4 SUB SUB DUP2 MSTORE SWAP1 PUSH1 0x40 MSTORE SWAP1 PUSH28 0xFFFFFFFFFFFFFFFFFFFFFFFFFFFFFFFFFFFFFFFFFFFFFFFFFFFFFFFF NOT AND PUSH1 0x20 DUP3 ADD DUP1 MLOAD PUSH28 0xFFFFFFFFFFFFFFFFFFFFFFFFFFFFFFFFFFFFFFFFFFFFFFFFFFFFFFFF DUP4 DUP2 DUP4 AND OR DUP4 MSTORE POP POP POP POP PUSH1 0x40 MLOAD PUSH2 0x1ED0 SWAP2 SWAP1 PUSH2 0x39F9 JUMP JUMPDEST PUSH0 PUSH1 0x40 MLOAD DUP1 DUP4 SUB DUP2 PUSH0 DUP7 GAS CALL SWAP2 POP POP RETURNDATASIZE DUP1 PUSH0 DUP2 EQ PUSH2 0x1F09 JUMPI PUSH1 0x40 MLOAD SWAP2 POP PUSH1 0x1F NOT PUSH1 0x3F RETURNDATASIZE ADD AND DUP3 ADD PUSH1 0x40 MSTORE RETURNDATASIZE DUP3 MSTORE RETURNDATASIZE PUSH0 PUSH1 0x20 DUP5 ADD RETURNDATACOPY PUSH2 0x1F0E JUMP JUMPDEST PUSH1 0x60 SWAP2 POP JUMPDEST POP SWAP2 POP SWAP2 POP DUP2 DUP1 ISZERO PUSH2 0x1F3B JUMPI POP PUSH0 DUP2 MLOAD EQ DUP1 PUSH2 0x1F3A JUMPI POP DUP1 DUP1 PUSH1 0x20 ADD SWAP1 MLOAD DUP2 ADD SWAP1 PUSH2 0x1F39 SWAP2 SWAP1 PUSH2 0x3A44 JUMP JUMPDEST JUMPDEST JUMPDEST PUSH2 0x1F7A JUMPI PUSH1 0x40 MLOAD PUSH32 0x8C379A000000000000000000000000000000000000000000000000000000000 DUP2 MSTORE PUSH1 0x4 ADD PUSH2 0x1F71 SWAP1 PUSH2 0x3AB9 JUMP JUMPDEST PUSH1 0x40 MLOAD DUP1 SWAP2 SUB SWAP1 REVERT JUMPDEST POP POP POP POP POP JUMP JUMPDEST PUSH0 DUP3 DUP3 PUSH1 0x40 MLOAD PUSH2 0x1F92 SWAP3 SWAP2 SWAP1 PUSH2 0x3AFB JUMP JUMPDEST PUSH1 0x40 MLOAD DUP1 SWAP2 SUB SWAP1 KECCAK256 SWAP1 POP SWAP3 SWAP2 POP POP JUMP JUMPDEST PUSH0 PUSH2 0x1FE1 PUSH1 0x40 MLOAD DUP1 PUSH1 0x40 ADD PUSH1 0x40 MSTORE DUP1 PUSH1 0xB DUP2 MSTORE PUSH1 0x20 ADD PUSH32 0x706F6F6C2D66696E646572000000000000000000000000000000000000000000 DUP2 MSTORE POP PUSH2 0x73D JUMP JUMPDEST SWAP1 POP SWAP1 JUMP JUMPDEST PUSH0 DUP2 MLOAD SWAP1 POP PUSH0 PUSH1 0x1 SWAP1 POP JUMPDEST DUP2 DUP2 LT ISZERO PUSH2 0x213E JUMPI PUSH0 DUP4 DUP3 DUP2 MLOAD DUP2 LT PUSH2 0x200D JUMPI PUSH2 0x200C PUSH2 0x2B38 JUMP JUMPDEST JUMPDEST PUSH1 0x20 MUL PUSH1 0x20 ADD ADD MLOAD SWAP1 POP PUSH0 DUP3 SWAP1 POP JUMPDEST PUSH0 DUP2 GT ISZERO PUSH2 0x2112 JUMPI PUSH0 DUP6 PUSH1 0x1 DUP4 PUSH2 0x2033 SWAP2 SWAP1 PUSH2 0x2B05 JUMP JUMPDEST DUP2 MLOAD DUP2 LT PUSH2 0x2044 JUMPI PUSH2 0x2043 PUSH2 0x2B38 JUMP JUMPDEST JUMPDEST PUSH1 0x20 MUL PUSH1 0x20 ADD ADD MLOAD SWAP1 POP DUP3 PUSH0 ADD MLOAD PUSH20 0xFFFFFFFFFFFFFFFFFFFFFFFFFFFFFFFFFFFFFFFF AND DUP2 PUSH0 ADD MLOAD PUSH20 0xFFFFFFFFFFFFFFFFFFFFFFFFFFFFFFFFFFFFFFFF AND LT DUP1 PUSH2 0x20DB JUMPI POP DUP3 PUSH0 ADD MLOAD PUSH20 0xFFFFFFFFFFFFFFFFFFFFFFFFFFFFFFFFFFFFFFFF AND DUP2 PUSH0 ADD MLOAD PUSH20 0xFFFFFFFFFFFFFFFFFFFFFFFFFFFFFFFFFFFFFFFF AND EQ DUP1 ISZERO PUSH2 0x20DA JUMPI POP DUP3 PUSH1 0x20 ADD MLOAD PUSH2 0xFFFF AND DUP2 PUSH1 0x20 ADD MLOAD PUSH2 0xFFFF AND GT ISZERO JUMPDEST JUMPDEST ISZERO PUSH2 0x20E6 JUMPI POP PUSH2 0x2112 JUMP JUMPDEST DUP1 DUP7 DUP4 DUP2 MLOAD DUP2 LT PUSH2 0x20FA JUMPI PUSH2 0x20F9 PUSH2 0x2B38 JUMP JUMPDEST JUMPDEST PUSH1 0x20 MUL PUSH1 0x20 ADD ADD DUP2 SWAP1 MSTORE POP DUP2 PUSH1 0x1 SWAP1 SUB SWAP2 POP POP PUSH2 0x201C JUMP JUMPDEST DUP2 DUP6 DUP3 DUP2 MLOAD DUP2 LT PUSH2 0x2126 JUMPI PUSH2 0x2125 PUSH2 0x2B38 JUMP JUMPDEST JUMPDEST PUSH1 0x20 MUL PUSH1 0x20 ADD ADD DUP2 SWAP1 MSTORE POP DUP3 PUSH1 0x1 ADD SWAP3 POP POP POP PUSH2 0x1FF1 JUMP JUMPDEST POP POP POP JUMP JUMPDEST PUSH0 DUP2 PUSH1 0x40 MLOAD PUSH1 0x20 ADD PUSH2 0x2155 SWAP2 SWAP1 PUSH2 0x3B7F JUMP JUMPDEST PUSH1 0x40 MLOAD PUSH1 0x20 DUP2 DUP4 SUB SUB DUP2 MSTORE SWAP1 PUSH1 0x40 MSTORE DUP1 MLOAD SWAP1 PUSH1 0x20 ADD KECCAK256 SWAP1 POP SWAP2 SWAP1 POP JUMP JUMPDEST PUSH1 0x40 MLOAD DUP1 PUSH1 0x60 ADD PUSH1 0x40 MSTORE DUP1 PUSH1 0x60 DUP2 MSTORE PUSH1 0x20 ADD PUSH1 0x60 DUP2 MSTORE PUSH1 0x20 ADD PUSH1 0x60 DUP2 MSTORE POP SWAP1 JUMP JUMPDEST PUSH1 0x40 MLOAD DUP1 PUSH1 0x40 ADD PUSH1 0x40 MSTORE DUP1 PUSH0 PUSH20 0xFFFFFFFFFFFFFFFFFFFFFFFFFFFFFFFFFFFFFFFF AND DUP2 MSTORE PUSH1 0x20 ADD PUSH0 PUSH2 0xFFFF AND DUP2 MSTORE POP SWAP1 JUMP JUMPDEST PUSH0 PUSH20 0xFFFFFFFFFFFFFFFFFFFFFFFFFFFFFFFFFFFFFFFF DUP3 AND SWAP1 POP SWAP2 SWAP1 POP JUMP JUMPDEST PUSH0 PUSH2 0x21EE DUP3 PUSH2 0x21C5 JUMP JUMPDEST SWAP1 POP SWAP2 SWAP1 POP JUMP JUMPDEST PUSH2 0x21FE DUP2 PUSH2 0x21E4 JUMP JUMPDEST DUP3 MSTORE POP POP JUMP JUMPDEST PUSH0 PUSH1 0x20 DUP3 ADD SWAP1 POP PUSH2 0x2217 PUSH0 DUP4 ADD DUP5 PUSH2 0x21F5 JUMP JUMPDEST SWAP3 SWAP2 POP POP JUMP JUMPDEST PUSH0 PUSH1 0x40 MLOAD SWAP1 POP SWAP1 JUMP JUMPDEST PUSH0 PUSH0 REVERT JUMPDEST PUSH0 PUSH0 REVERT JUMPDEST PUSH2 0x2237 DUP2 PUSH2 0x21E4 JUMP JUMPDEST DUP2 EQ PUSH2 0x2241 JUMPI PUSH0 PUSH0 REVERT JUMPDEST POP JUMP JUMPDEST PUSH0 DUP2 CALLDATALOAD SWAP1 POP PUSH2 0x2252 DUP2 PUSH2 0x222E JUMP JUMPDEST SWAP3 SWAP2 POP POP JUMP JUMPDEST PUSH0 PUSH0 PUSH1 0x40 DUP4 DUP6 SUB SLT ISZERO PUSH2 0x226E JUMPI PUSH2 0x226D PUSH2 0x2226 JUMP JUMPDEST JUMPDEST PUSH0 PUSH2 0x227B DUP6 DUP3 DUP7 ADD PUSH2 0x2244 JUMP JUMPDEST SWAP3 POP POP PUSH1 0x20 PUSH2 0x228C DUP6 DUP3 DUP7 ADD PUSH2 0x2244 JUMP JUMPDEST SWAP2 POP POP SWAP3 POP SWAP3 SWAP1 POP JUMP JUMPDEST PUSH0 DUP2 SWAP1 POP SWAP2 SWAP1 POP JUMP JUMPDEST PUSH2 0x22A8 DUP2 PUSH2 0x2296 JUMP JUMPDEST DUP2 EQ PUSH2 0x22B2 JUMPI PUSH0 PUSH0 REVERT JUMPDEST POP JUMP JUMPDEST PUSH0 DUP2 CALLDATALOAD SWAP1 POP PUSH2 0x22C3 DUP2 PUSH2 0x229F JUMP JUMPDEST SWAP3 SWAP2 POP POP JUMP JUMPDEST PUSH0 PUSH0 PUSH1 0x40 DUP4 DUP6 SUB SLT ISZERO PUSH2 0x22DF JUMPI PUSH2 0x22DE PUSH2 0x2226 JUMP JUMPDEST JUMPDEST PUSH0 PUSH2 0x22EC DUP6 DUP3 DUP7 ADD PUSH2 0x22B5 JUMP JUMPDEST SWAP3 POP POP PUSH1 0x20 PUSH2 0x22FD DUP6 DUP3 DUP7 ADD PUSH2 0x22B5 JUMP JUMPDEST SWAP2 POP POP SWAP3 POP SWAP3 SWAP1 POP JUMP JUMPDEST PUSH0 PUSH0 REVERT JUMPDEST PUSH0 PUSH0 REVERT JUMPDEST PUSH0 PUSH1 0x1F NOT PUSH1 0x1F DUP4 ADD AND SWAP1 POP SWAP2 SWAP1 POP JUMP JUMPDEST PUSH32 0x4E487B7100000000000000000000000000000000000000000000000000000000 PUSH0 MSTORE PUSH1 0x41 PUSH1 0x4 MSTORE PUSH1 0x24 PUSH0 REVERT JUMPDEST PUSH2 0x2355 DUP3 PUSH2 0x230F JUMP JUMPDEST DUP2 ADD DUP2 DUP2 LT PUSH8 0xFFFFFFFFFFFFFFFF DUP3 GT OR ISZERO PUSH2 0x2374 JUMPI PUSH2 0x2373 PUSH2 0x231F JUMP JUMPDEST JUMPDEST DUP1 PUSH1 0x40 MSTORE POP POP POP JUMP JUMPDEST PUSH0 PUSH2 0x2386 PUSH2 0x221D JUMP JUMPDEST SWAP1 POP PUSH2 0x2392 DUP3 DUP3 PUSH2 0x234C JUMP JUMPDEST SWAP2 SWAP1 POP JUMP JUMPDEST PUSH0 PUSH8 0xFFFFFFFFFFFFFFFF DUP3 GT ISZERO PUSH2 0x23B1 JUMPI PUSH2 0x23B0 PUSH2 0x231F JUMP JUMPDEST JUMPDEST PUSH2 0x23BA DUP3 PUSH2 0x230F JUMP JUMPDEST SWAP1 POP PUSH1 0x20 DUP2 ADD SWAP1 POP SWAP2 SWAP1 POP JUMP JUMPDEST DUP3 DUP2 DUP4 CALLDATACOPY PUSH0 DUP4 DUP4 ADD MSTORE POP POP POP JUMP JUMPDEST PUSH0 PUSH2 0x23E7 PUSH2 0x23E2 DUP5 PUSH2 0x2397 JUMP JUMPDEST PUSH2 0x237D JUMP JUMPDEST SWAP1 POP DUP3 DUP2 MSTORE PUSH1 0x20 DUP2 ADD DUP5 DUP5 DUP5 ADD GT ISZERO PUSH2 0x2403 JUMPI PUSH2 0x2402 PUSH2 0x230B JUMP JUMPDEST JUMPDEST PUSH2 0x240E DUP5 DUP3 DUP6 PUSH2 0x23C7 JUMP JUMPDEST POP SWAP4 SWAP3 POP POP POP JUMP JUMPDEST PUSH0 DUP3 PUSH1 0x1F DUP4 ADD SLT PUSH2 0x242A JUMPI PUSH2 0x2429 PUSH2 0x2307 JUMP JUMPDEST JUMPDEST DUP2 CALLDATALOAD PUSH2 0x243A DUP5 DUP3 PUSH1 0x20 DUP7 ADD PUSH2 0x23D5 JUMP JUMPDEST SWAP2 POP POP SWAP3 SWAP2 POP POP JUMP JUMPDEST PUSH0 PUSH1 0x20 DUP3 DUP5 SUB SLT ISZERO PUSH2 0x2458 JUMPI PUSH2 0x2457 PUSH2 0x2226 JUMP JUMPDEST JUMPDEST PUSH0 DUP3 ADD CALLDATALOAD PUSH8 0xFFFFFFFFFFFFFFFF DUP2 GT ISZERO PUSH2 0x2475 JUMPI PUSH2 0x2474 PUSH2 0x222A JUMP JUMPDEST JUMPDEST PUSH2 0x2481 DUP5 DUP3 DUP6 ADD PUSH2 0x2416 JUMP JUMPDEST SWAP2 POP POP SWAP3 SWAP2 POP POP JUMP JUMPDEST PUSH0 PUSH1 0x20 DUP3 DUP5 SUB SLT ISZERO PUSH2 0x249F JUMPI PUSH2 0x249E PUSH2 0x2226 JUMP JUMPDEST JUMPDEST PUSH0 PUSH2 0x24AC DUP5 DUP3 DUP6 ADD PUSH2 0x22B5 JUMP JUMPDEST SWAP2 POP POP SWAP3 SWAP2 POP POP JUMP JUMPDEST PUSH0 DUP2 MLOAD SWAP1 POP SWAP2 SWAP1 POP JUMP JUMPDEST PUSH0 DUP3 DUP3 MSTORE PUSH1 0x20 DUP3 ADD SWAP1 POP SWAP3 SWAP2 POP POP JUMP JUMPDEST DUP3 DUP2 DUP4 MCOPY PUSH0 DUP4 DUP4 ADD MSTORE POP POP POP JUMP JUMPDEST PUSH0 PUSH2 0x24E7 DUP3 PUSH2 0x24B5 JUMP JUMPDEST PUSH2 0x24F1 DUP2 DUP6 PUSH2 0x24BF JUMP JUMPDEST SWAP4 POP PUSH2 0x2501 DUP2 DUP6 PUSH1 0x20 DUP7 ADD PUSH2 0x24CF JUMP JUMPDEST PUSH2 0x250A DUP2 PUSH2 0x230F JUMP JUMPDEST DUP5 ADD SWAP2 POP POP SWAP3 SWAP2 POP POP JUMP JUMPDEST PUSH0 DUP2 MLOAD SWAP1 POP SWAP2 SWAP1 POP JUMP JUMPDEST PUSH0 DUP3 DUP3 MSTORE PUSH1 0x20 DUP3 ADD SWAP1 POP SWAP3 SWAP2 POP POP JUMP JUMPDEST PUSH0 DUP2 SWAP1 POP PUSH1 0x20 DUP3 ADD SWAP1 POP SWAP2 SWAP1 POP JUMP JUMPDEST PUSH2 0x2547 DUP2 PUSH2 0x21E4 JUMP JUMPDEST DUP3 MSTORE POP POP JUMP JUMPDEST PUSH0 PUSH2 0xFFFF DUP3 AND SWAP1 POP SWAP2 SWAP1 POP JUMP JUMPDEST PUSH2 0x2563 DUP2 PUSH2 0x254D JUMP JUMPDEST DUP3 MSTORE POP POP JUMP JUMPDEST PUSH1 0x40 DUP3 ADD PUSH0 DUP3 ADD MLOAD PUSH2 0x257D PUSH0 DUP6 ADD DUP3 PUSH2 0x253E JUMP JUMPDEST POP PUSH1 0x20 DUP3 ADD MLOAD PUSH2 0x2590 PUSH1 0x20 DUP6 ADD DUP3 PUSH2 0x255A JUMP JUMPDEST POP POP POP POP JUMP JUMPDEST PUSH0 PUSH2 0x25A1 DUP4 DUP4 PUSH2 0x2569 JUMP JUMPDEST PUSH1 0x40 DUP4 ADD SWAP1 POP SWAP3 SWAP2 POP POP JUMP JUMPDEST PUSH0 PUSH1 0x20 DUP3 ADD SWAP1 POP SWAP2 SWAP1 POP JUMP JUMPDEST PUSH0 PUSH2 0x25C3 DUP3 PUSH2 0x2515 JUMP JUMPDEST PUSH2 0x25CD DUP2 DUP6 PUSH2 0x251F JUMP JUMPDEST SWAP4 POP PUSH2 0x25D8 DUP4 PUSH2 0x252F JUMP JUMPDEST DUP1 PUSH0 JUMPDEST DUP4 DUP2 LT ISZERO PUSH2 0x2608 JUMPI DUP2 MLOAD PUSH2 0x25EF DUP9 DUP3 PUSH2 0x2596 JUMP JUMPDEST SWAP8 POP PUSH2 0x25FA DUP4 PUSH2 0x25AD JUMP JUMPDEST SWAP3 POP POP PUSH1 0x1 DUP2 ADD SWAP1 POP PUSH2 0x25DB JUMP JUMPDEST POP DUP6 SWAP4 POP POP POP POP SWAP3 SWAP2 POP POP JUMP JUMPDEST PUSH0 PUSH1 0x60 DUP4 ADD PUSH0 DUP4 ADD MLOAD DUP5 DUP3 SUB PUSH0 DUP7 ADD MSTORE PUSH2 0x262F DUP3 DUP3 PUSH2 0x24DD JUMP JUMPDEST SWAP2 POP POP PUSH1 0x20 DUP4 ADD MLOAD DUP5 DUP3 SUB PUSH1 0x20 DUP7 ADD MSTORE PUSH2 0x2649 DUP3 DUP3 PUSH2 0x24DD JUMP JUMPDEST SWAP2 POP POP PUSH1 0x40 DUP4 ADD MLOAD DUP5 DUP3 SUB PUSH1 0x40 DUP7 ADD MSTORE PUSH2 0x2663 DUP3 DUP3 PUSH2 0x25B9 JUMP JUMPDEST SWAP2 POP POP DUP1 SWAP2 POP POP SWAP3 SWAP2 POP POP JUMP JUMPDEST PUSH0 PUSH1 0x40 DUP3 ADD SWAP1 POP DUP2 DUP2 SUB PUSH0 DUP4 ADD MSTORE PUSH2 0x2688 DUP2 DUP6 PUSH2 0x2615 JUMP JUMPDEST SWAP1 POP PUSH2 0x2697 PUSH1 0x20 DUP4 ADD DUP5 PUSH2 0x21F5 JUMP JUMPDEST SWAP4 SWAP3 POP POP POP JUMP JUMPDEST PUSH0 PUSH1 0x60 DUP3 ADD SWAP1 POP DUP2 DUP2 SUB PUSH0 DUP4 ADD MSTORE PUSH2 0x26B6 DUP2 DUP7 PUSH2 0x2615 JUMP JUMPDEST SWAP1 POP PUSH2 0x26C5 PUSH1 0x20 DUP4 ADD DUP6 PUSH2 0x21F5 JUMP JUMPDEST PUSH2 0x26D2 PUSH1 0x40 DUP4 ADD DUP5 PUSH2 0x21F5 JUMP JUMPDEST SWAP5 SWAP4 POP POP POP POP JUMP JUMPDEST PUSH0 DUP2 SWAP1 POP SWAP2 SWAP1 POP JUMP JUMPDEST PUSH0 PUSH2 0x26FD PUSH2 0x26F8 PUSH2 0x26F3 DUP5 PUSH2 0x21C5 JUMP JUMPDEST PUSH2 0x26DA JUMP JUMPDEST PUSH2 0x21C5 JUMP JUMPDEST SWAP1 POP SWAP2 SWAP1 POP JUMP JUMPDEST PUSH0 PUSH2 0x270E DUP3 PUSH2 0x26E3 JUMP JUMPDEST SWAP1 POP SWAP2 SWAP1 POP JUMP JUMPDEST PUSH0 PUSH2 0x271F DUP3 PUSH2 0x2704 JUMP JUMPDEST SWAP1 POP SWAP2 SWAP1 POP JUMP JUMPDEST PUSH2 0x272F DUP2 PUSH2 0x2715 JUMP JUMPDEST DUP3 MSTORE POP POP JUMP JUMPDEST PUSH0 PUSH1 0x20 DUP3 ADD SWAP1 POP PUSH2 0x2748 PUSH0 DUP4 ADD DUP5 PUSH2 0x2726 JUMP JUMPDEST SWAP3 SWAP2 POP POP JUMP JUMPDEST PUSH2 0x2757 DUP2 PUSH2 0x2296 JUMP JUMPDEST DUP3 MSTORE POP POP JUMP JUMPDEST PUSH0 PUSH1 0x20 DUP3 ADD SWAP1 POP PUSH2 0x2770 PUSH0 DUP4 ADD DUP5 PUSH2 0x274E JUMP JUMPDEST SWAP3 SWAP2 POP POP JUMP JUMPDEST PUSH0 PUSH1 0x20 DUP3 DUP5 SUB SLT ISZERO PUSH2 0x278B JUMPI PUSH2 0x278A PUSH2 0x2226 JUMP JUMPDEST JUMPDEST PUSH0 PUSH2 0x2798 DUP5 DUP3 DUP6 ADD PUSH2 0x2244 JUMP JUMPDEST SWAP2 POP POP SWAP3 SWAP2 POP POP JUMP JUMPDEST PUSH0 PUSH1 0x40 DUP3 ADD SWAP1 POP PUSH2 0x27B4 PUSH0 DUP4 ADD DUP6 PUSH2 0x274E JUMP JUMPDEST PUSH2 0x27C1 PUSH1 0x20 DUP4 ADD DUP5 PUSH2 0x274E JUMP JUMPDEST SWAP4 SWAP3 POP POP POP JUMP JUMPDEST PUSH0 PUSH1 0x20 DUP3 ADD SWAP1 POP DUP2 DUP2 SUB PUSH0 DUP4 ADD MSTORE PUSH2 0x27E0 DUP2 DUP5 PUSH2 0x2615 JUMP JUMPDEST SWAP1 POP SWAP3 SWAP2 POP POP JUMP JUMPDEST PUSH0 PUSH0 REVERT JUMPDEST PUSH0 PUSH1 0x60 DUP3 DUP5 SUB SLT ISZERO PUSH2 0x2801 JUMPI PUSH2 0x2800 PUSH2 0x27E8 JUMP JUMPDEST JUMPDEST DUP2 SWAP1 POP SWAP3 SWAP2 POP POP JUMP JUMPDEST PUSH0 PUSH1 0x20 DUP3 DUP5 SUB SLT ISZERO PUSH2 0x281F JUMPI PUSH2 0x281E PUSH2 0x2226 JUMP JUMPDEST JUMPDEST PUSH0 DUP3 ADD CALLDATALOAD PUSH8 0xFFFFFFFFFFFFFFFF DUP2 GT ISZERO PUSH2 0x283C JUMPI PUSH2 0x283B PUSH2 0x222A JUMP JUMPDEST JUMPDEST PUSH2 0x2848 DUP5 DUP3 DUP6 ADD PUSH2 0x27EC JUMP JUMPDEST SWAP2 POP POP SWAP3 SWAP2 POP POP JUMP JUMPDEST PUSH0 DUP2 MLOAD SWAP1 POP PUSH2 0x285F DUP2 PUSH2 0x222E JUMP JUMPDEST SWAP3 SWAP2 POP POP JUMP JUMPDEST PUSH0 PUSH1 0x20 DUP3 DUP5 SUB SLT ISZERO PUSH2 0x287A JUMPI PUSH2 0x2879 PUSH2 0x2226 JUMP JUMPDEST JUMPDEST PUSH0 PUSH2 0x2887 DUP5 DUP3 DUP6 ADD PUSH2 0x2851 JUMP JUMPDEST SWAP2 POP POP SWAP3 SWAP2 POP POP JUMP JUMPDEST PUSH0 DUP3 DUP3 MSTORE PUSH1 0x20 DUP3 ADD SWAP1 POP SWAP3 SWAP2 POP POP JUMP JUMPDEST PUSH32 0x43616C6C6572206973206E6F7420746865206F776E6572000000000000000000 PUSH0 DUP3 ADD MSTORE POP JUMP JUMPDEST PUSH0 PUSH2 0x28D4 PUSH1 0x17 DUP4 PUSH2 0x2890 JUMP JUMPDEST SWAP2 POP PUSH2 0x28DF DUP3 PUSH2 0x28A0 JUMP JUMPDEST PUSH1 0x20 DUP3 ADD SWAP1 POP SWAP2 SWAP1 POP JUMP JUMPDEST PUSH0 PUSH1 0x20 DUP3 ADD SWAP1 POP DUP2 DUP2 SUB PUSH0 DUP4 ADD MSTORE PUSH2 0x2901 DUP2 PUSH2 0x28C8 JUMP JUMPDEST SWAP1 POP SWAP2 SWAP1 POP JUMP JUMPDEST PUSH32 0x6D73672E73656E646572206973206E6F742065746620726F7574657200000000 PUSH0 DUP3 ADD MSTORE POP JUMP JUMPDEST PUSH0 PUSH2 0x293C PUSH1 0x1C DUP4 PUSH2 0x2890 JUMP JUMPDEST SWAP2 POP PUSH2 0x2947 DUP3 PUSH2 0x2908 JUMP JUMPDEST PUSH1 0x20 DUP3 ADD SWAP1 POP SWAP2 SWAP1 POP JUMP JUMPDEST PUSH0 PUSH1 0x20 DUP3 ADD SWAP1 POP DUP2 DUP2 SUB PUSH0 DUP4 ADD MSTORE PUSH2 0x2969 DUP2 PUSH2 0x2930 JUMP JUMPDEST SWAP1 POP SWAP2 SWAP1 POP JUMP JUMPDEST PUSH0 DUP2 MLOAD SWAP1 POP PUSH2 0x297E DUP2 PUSH2 0x229F JUMP JUMPDEST SWAP3 SWAP2 POP POP JUMP JUMPDEST PUSH0 PUSH1 0x20 DUP3 DUP5 SUB SLT ISZERO PUSH2 0x2999 JUMPI PUSH2 0x2998 PUSH2 0x2226 JUMP JUMPDEST JUMPDEST PUSH0 PUSH2 0x29A6 DUP5 DUP3 DUP6 ADD PUSH2 0x2970 JUMP JUMPDEST SWAP2 POP POP SWAP3 SWAP2 POP POP JUMP JUMPDEST PUSH32 0x4E487B7100000000000000000000000000000000000000000000000000000000 PUSH0 MSTORE PUSH1 0x11 PUSH1 0x4 MSTORE PUSH1 0x24 PUSH0 REVERT JUMPDEST PUSH0 PUSH2 0x29E6 DUP3 PUSH2 0x2296 JUMP JUMPDEST SWAP2 POP PUSH2 0x29F1 DUP4 PUSH2 0x2296 JUMP JUMPDEST SWAP3 POP DUP3 DUP3 MUL PUSH2 0x29FF DUP2 PUSH2 0x2296 JUMP JUMPDEST SWAP2 POP DUP3 DUP3 DIV DUP5 EQ DUP4 ISZERO OR PUSH2 0x2A16 JUMPI PUSH2 0x2A15 PUSH2 0x29AF JUMP JUMPDEST JUMPDEST POP SWAP3 SWAP2 POP POP JUMP JUMPDEST PUSH32 0x4E487B7100000000000000000000000000000000000000000000000000000000 PUSH0 MSTORE PUSH1 0x12 PUSH1 0x4 MSTORE PUSH1 0x24 PUSH0 REVERT JUMPDEST PUSH0 PUSH2 0x2A54 DUP3 PUSH2 0x2296 JUMP JUMPDEST SWAP2 POP PUSH2 0x2A5F DUP4 PUSH2 0x2296 JUMP JUMPDEST SWAP3 POP DUP3 PUSH2 0x2A6F JUMPI PUSH2 0x2A6E PUSH2 0x2A1D JUMP JUMPDEST JUMPDEST DUP3 DUP3 DIV SWAP1 POP SWAP3 SWAP2 POP POP JUMP JUMPDEST PUSH0 PUSH2 0x2A84 DUP3 PUSH2 0x2296 JUMP JUMPDEST SWAP2 POP PUSH2 0x2A8F DUP4 PUSH2 0x2296 JUMP JUMPDEST SWAP3 POP DUP3 DUP3 ADD SWAP1 POP DUP1 DUP3 GT ISZERO PUSH2 0x2AA7 JUMPI PUSH2 0x2AA6 PUSH2 0x29AF JUMP JUMPDEST JUMPDEST SWAP3 SWAP2 POP POP JUMP JUMPDEST PUSH0 PUSH2 0x2AB7 DUP3 PUSH2 0x24B5 JUMP JUMPDEST PUSH2 0x2AC1 DUP2 DUP6 PUSH2 0x2890 JUMP JUMPDEST SWAP4 POP PUSH2 0x2AD1 DUP2 DUP6 PUSH1 0x20 DUP7 ADD PUSH2 0x24CF JUMP JUMPDEST PUSH2 0x2ADA DUP2 PUSH2 0x230F JUMP JUMPDEST DUP5 ADD SWAP2 POP POP SWAP3 SWAP2 POP POP JUMP JUMPDEST PUSH0 PUSH1 0x20 DUP3 ADD SWAP1 POP DUP2 DUP2 SUB PUSH0 DUP4 ADD MSTORE PUSH2 0x2AFD DUP2 DUP5 PUSH2 0x2AAD JUMP JUMPDEST SWAP1 POP SWAP3 SWAP2 POP POP JUMP JUMPDEST PUSH0 PUSH2 0x2B0F DUP3 PUSH2 0x2296 JUMP JUMPDEST SWAP2 POP PUSH2 0x2B1A DUP4 PUSH2 0x2296 JUMP JUMPDEST SWAP3 POP DUP3 DUP3 SUB SWAP1 POP DUP2 DUP2 GT ISZERO PUSH2 0x2B32 JUMPI PUSH2 0x2B31 PUSH2 0x29AF JUMP JUMPDEST JUMPDEST SWAP3 SWAP2 POP POP JUMP JUMPDEST PUSH32 0x4E487B7100000000000000000000000000000000000000000000000000000000 PUSH0 MSTORE PUSH1 0x32 PUSH1 0x4 MSTORE PUSH1 0x24 PUSH0 REVERT JUMPDEST PUSH32 0x4E487B7100000000000000000000000000000000000000000000000000000000 PUSH0 MSTORE PUSH1 0x22 PUSH1 0x4 MSTORE PUSH1 0x24 PUSH0 REVERT JUMPDEST PUSH0 PUSH1 0x2 DUP3 DIV SWAP1 POP PUSH1 0x1 DUP3 AND DUP1 PUSH2 0x2BA9 JUMPI PUSH1 0x7F DUP3 AND SWAP2 POP JUMPDEST PUSH1 0x20 DUP3 LT DUP2 SUB PUSH2 0x2BBC JUMPI PUSH2 0x2BBB PUSH2 0x2B65 JUMP JUMPDEST JUMPDEST POP SWAP2 SWAP1 POP JUMP JUMPDEST PUSH0 PUSH0 REVERT JUMPDEST PUSH0 PUSH0 REVERT JUMPDEST PUSH0 PUSH0 REVERT JUMPDEST PUSH0 PUSH0 DUP4 CALLDATALOAD PUSH1 0x1 PUSH1 0x20 SUB DUP5 CALLDATASIZE SUB SUB DUP2 SLT PUSH2 0x2BEA JUMPI PUSH2 0x2BE9 PUSH2 0x2BC2 JUMP JUMPDEST JUMPDEST DUP1 DUP5 ADD SWAP3 POP DUP3 CALLDATALOAD SWAP2 POP PUSH8 0xFFFFFFFFFFFFFFFF DUP3 GT ISZERO PUSH2 0x2C0C JUMPI PUSH2 0x2C0B PUSH2 0x2BC6 JUMP JUMPDEST JUMPDEST PUSH1 0x20 DUP4 ADD SWAP3 POP PUSH1 0x1 DUP3 MUL CALLDATASIZE SUB DUP4 SGT ISZERO PUSH2 0x2C28 JUMPI PUSH2 0x2C27 PUSH2 0x2BCA JUMP JUMPDEST JUMPDEST POP SWAP3 POP SWAP3 SWAP1 POP JUMP JUMPDEST PUSH0 PUSH2 0x2C3B DUP4 DUP6 PUSH2 0x2890 JUMP JUMPDEST SWAP4 POP PUSH2 0x2C48 DUP4 DUP6 DUP5 PUSH2 0x23C7 JUMP JUMPDEST PUSH2 0x2C51 DUP4 PUSH2 0x230F JUMP JUMPDEST DUP5 ADD SWAP1 POP SWAP4 SWAP3 POP POP POP JUMP JUMPDEST PUSH0 PUSH1 0x60 DUP3 ADD SWAP1 POP PUSH2 0x2C6F PUSH0 DUP4 ADD DUP9 PUSH2 0x274E JUMP JUMPDEST DUP2 DUP2 SUB PUSH1 0x20 DUP4 ADD MSTORE PUSH2 0x2C82 DUP2 DUP7 DUP9 PUSH2 0x2C30 JUMP JUMPDEST SWAP1 POP DUP2 DUP2 SUB PUSH1 0x40 DUP4 ADD MSTORE PUSH2 0x2C97 DUP2 DUP5 DUP7 PUSH2 0x2C30 JUMP JUMPDEST SWAP1 POP SWAP7 SWAP6 POP POP POP POP POP POP JUMP JUMPDEST PUSH0 PUSH0 REVERT JUMPDEST PUSH0 PUSH0 REVERT JUMPDEST PUSH0 PUSH0 REVERT JUMPDEST PUSH0 PUSH0 DUP4 CALLDATALOAD PUSH1 0x1 PUSH1 0x20 SUB DUP5 CALLDATASIZE SUB SUB DUP2 SLT PUSH2 0x2CCB JUMPI PUSH2 0x2CCA PUSH2 0x2CAB JUMP JUMPDEST JUMPDEST DUP4 DUP2 ADD SWAP3 POP DUP3 CALLDATALOAD SWAP2 POP PUSH1 0x20 DUP4 ADD SWAP3 POP PUSH8 0xFFFFFFFFFFFFFFFF DUP3 GT ISZERO PUSH2 0x2CF3 JUMPI PUSH2 0x2CF2 PUSH2 0x2CA3 JUMP JUMPDEST JUMPDEST PUSH1 0x1 DUP3 MUL CALLDATASIZE SUB DUP4 SGT ISZERO PUSH2 0x2D09 JUMPI PUSH2 0x2D08 PUSH2 0x2CA7 JUMP JUMPDEST JUMPDEST POP SWAP3 POP SWAP3 SWAP1 POP JUMP JUMPDEST PUSH0 PUSH2 0x2D1C DUP4 DUP6 PUSH2 0x24BF JUMP JUMPDEST SWAP4 POP PUSH2 0x2D29 DUP4 DUP6 DUP5 PUSH2 0x23C7 JUMP JUMPDEST PUSH2 0x2D32 DUP4 PUSH2 0x230F JUMP JUMPDEST DUP5 ADD SWAP1 POP SWAP4 SWAP3 POP POP POP JUMP JUMPDEST PUSH0 PUSH0 DUP4 CALLDATALOAD PUSH1 0x1 PUSH1 0x20 SUB DUP5 CALLDATASIZE SUB SUB DUP2 SLT PUSH2 0x2D59 JUMPI PUSH2 0x2D58 PUSH2 0x2CAB JUMP JUMPDEST JUMPDEST DUP4 DUP2 ADD SWAP3 POP DUP3 CALLDATALOAD SWAP2 POP PUSH1 0x20 DUP4 ADD SWAP3 POP PUSH8 0xFFFFFFFFFFFFFFFF DUP3 GT ISZERO PUSH2 0x2D81 JUMPI PUSH2 0x2D80 PUSH2 0x2CA3 JUMP JUMPDEST JUMPDEST PUSH1 0x40 DUP3 MUL CALLDATASIZE SUB DUP4 SGT ISZERO PUSH2 0x2D97 JUMPI PUSH2 0x2D96 PUSH2 0x2CA7 JUMP JUMPDEST JUMPDEST POP SWAP3 POP SWAP3 SWAP1 POP JUMP JUMPDEST PUSH0 DUP2 SWAP1 POP SWAP2 SWAP1 POP JUMP JUMPDEST PUSH0 PUSH2 0x2DB6 PUSH1 0x20 DUP5 ADD DUP5 PUSH2 0x2244 JUMP JUMPDEST SWAP1 POP SWAP3 SWAP2 POP POP JUMP JUMPDEST PUSH2 0x2DC7 DUP2 PUSH2 0x254D JUMP JUMPDEST DUP2 EQ PUSH2 0x2DD1 JUMPI PUSH0 PUSH0 REVERT JUMPDEST POP JUMP JUMPDEST PUSH0 DUP2 CALLDATALOAD SWAP1 POP PUSH2 0x2DE2 DUP2 PUSH2 0x2DBE JUMP JUMPDEST SWAP3 SWAP2 POP POP JUMP JUMPDEST PUSH0 PUSH2 0x2DF6 PUSH1 0x20 DUP5 ADD DUP5 PUSH2 0x2DD4 JUMP JUMPDEST SWAP1 POP SWAP3 SWAP2 POP POP JUMP JUMPDEST PUSH1 0x40 DUP3 ADD PUSH2 0x2E0E PUSH0 DUP4 ADD DUP4 PUSH2 0x2DA8 JUMP JUMPDEST PUSH2 0x2E1A PUSH0 DUP6 ADD DUP3 PUSH2 0x253E JUMP JUMPDEST POP PUSH2 0x2E28 PUSH1 0x20 DUP4 ADD DUP4 PUSH2 0x2DE8 JUMP JUMPDEST PUSH2 0x2E35 PUSH1 0x20 DUP6 ADD DUP3 PUSH2 0x255A JUMP JUMPDEST POP POP POP POP JUMP JUMPDEST PUSH0 PUSH2 0x2E46 DUP4 DUP4 PUSH2 0x2DFE JUMP JUMPDEST PUSH1 0x40 DUP4 ADD SWAP1 POP SWAP3 SWAP2 POP POP JUMP JUMPDEST PUSH0 DUP3 SWAP1 POP SWAP3 SWAP2 POP POP JUMP JUMPDEST PUSH0 PUSH1 0x40 DUP3 ADD SWAP1 POP SWAP2 SWAP1 POP JUMP JUMPDEST PUSH0 PUSH2 0x2E73 DUP4 DUP6 PUSH2 0x251F JUMP JUMPDEST SWAP4 POP PUSH2 0x2E7E DUP3 PUSH2 0x2D9F JUMP JUMPDEST DUP1 PUSH0 JUMPDEST DUP6 DUP2 LT ISZERO PUSH2 0x2EB6 JUMPI PUSH2 0x2E93 DUP3 DUP5 PUSH2 0x2E52 JUMP JUMPDEST PUSH2 0x2E9D DUP9 DUP3 PUSH2 0x2E3B JUMP JUMPDEST SWAP8 POP PUSH2 0x2EA8 DUP4 PUSH2 0x2E5C JUMP JUMPDEST SWAP3 POP POP PUSH1 0x1 DUP2 ADD SWAP1 POP PUSH2 0x2E81 JUMP JUMPDEST POP DUP6 SWAP3 POP POP POP SWAP4 SWAP3 POP POP POP JUMP JUMPDEST PUSH0 PUSH1 0x60 DUP4 ADD PUSH2 0x2ED4 PUSH0 DUP5 ADD DUP5 PUSH2 0x2CAF JUMP JUMPDEST DUP6 DUP4 SUB PUSH0 DUP8 ADD MSTORE PUSH2 0x2EE6 DUP4 DUP3 DUP5 PUSH2 0x2D11 JUMP JUMPDEST SWAP3 POP POP POP PUSH2 0x2EF7 PUSH1 0x20 DUP5 ADD DUP5 PUSH2 0x2CAF JUMP JUMPDEST DUP6 DUP4 SUB PUSH1 0x20 DUP8 ADD MSTORE PUSH2 0x2F0A DUP4 DUP3 DUP5 PUSH2 0x2D11 JUMP JUMPDEST SWAP3 POP POP POP PUSH2 0x2F1B PUSH1 0x40 DUP5 ADD DUP5 PUSH2 0x2D3D JUMP JUMPDEST DUP6 DUP4 SUB PUSH1 0x40 DUP8 ADD MSTORE PUSH2 0x2F2E DUP4 DUP3 DUP5 PUSH2 0x2E68 JUMP JUMPDEST SWAP3 POP POP POP DUP1 SWAP2 POP POP SWAP3 SWAP2 POP POP JUMP JUMPDEST PUSH0 PUSH1 0x60 DUP3 ADD SWAP1 POP DUP2 DUP2 SUB PUSH0 DUP4 ADD MSTORE PUSH2 0x2F54 DUP2 DUP7 PUSH2 0x2EC3 JUMP JUMPDEST SWAP1 POP PUSH2 0x2F63 PUSH1 0x20 DUP4 ADD DUP6 PUSH2 0x21F5 JUMP JUMPDEST PUSH2 0x2F70 PUSH1 0x40 DUP4 ADD DUP5 PUSH2 0x21F5 JUMP JUMPDEST SWAP5 SWAP4 POP POP POP POP JUMP JUMPDEST PUSH32 0x4469726563746F72792063616E6E6F74206265207A65726F2061646472657373 PUSH0 DUP3 ADD MSTORE POP JUMP JUMPDEST PUSH0 PUSH2 0x2FAC PUSH1 0x20 DUP4 PUSH2 0x2890 JUMP JUMPDEST SWAP2 POP PUSH2 0x2FB7 DUP3 PUSH2 0x2F78 JUMP JUMPDEST PUSH1 0x20 DUP3 ADD SWAP1 POP SWAP2 SWAP1 POP JUMP JUMPDEST PUSH0 PUSH1 0x20 DUP3 ADD SWAP1 POP DUP2 DUP2 SUB PUSH0 DUP4 ADD MSTORE PUSH2 0x2FD9 DUP2 PUSH2 0x2FA0 JUMP JUMPDEST SWAP1 POP SWAP2 SWAP1 POP JUMP JUMPDEST PUSH32 0x4469726563746F7279206D757374206265206120636F6E747261637400000000 PUSH0 DUP3 ADD MSTORE POP JUMP JUMPDEST PUSH0 PUSH2 0x3014 PUSH1 0x1C DUP4 PUSH2 0x2890 JUMP JUMPDEST SWAP2 POP PUSH2 0x301F DUP3 PUSH2 0x2FE0 JUMP JUMPDEST PUSH1 0x20 DUP3 ADD SWAP1 POP SWAP2 SWAP1 POP JUMP JUMPDEST PUSH0 PUSH1 0x20 DUP3 ADD SWAP1 POP DUP2 DUP2 SUB PUSH0 DUP4 ADD MSTORE PUSH2 0x3041 DUP2 PUSH2 0x3008 JUMP JUMPDEST SWAP1 POP SWAP2 SWAP1 POP JUMP JUMPDEST PUSH32 0x4469726563746F7279206164647265737320646F6573206E6F7420696D706C65 PUSH0 DUP3 ADD MSTORE PUSH32 0x6D656E74206F776E657228290000000000000000000000000000000000000000 PUSH1 0x20 DUP3 ADD MSTORE POP JUMP JUMPDEST PUSH0 PUSH2 0x30A2 PUSH1 0x2C DUP4 PUSH2 0x2890 JUMP JUMPDEST SWAP2 POP PUSH2 0x30AD DUP3 PUSH2 0x3048 JUMP JUMPDEST PUSH1 0x40 DUP3 ADD SWAP1 POP SWAP2 SWAP1 POP JUMP JUMPDEST PUSH0 PUSH1 0x20 DUP3 ADD SWAP1 POP DUP2 DUP2 SUB PUSH0 DUP4 ADD MSTORE PUSH2 0x30CF DUP2 PUSH2 0x3096 JUMP JUMPDEST SWAP1 POP SWAP2 SWAP1 POP JUMP JUMPDEST PUSH0 PUSH0 DUP4 CALLDATALOAD PUSH1 0x1 PUSH1 0x20 SUB DUP5 CALLDATASIZE SUB SUB DUP2 SLT PUSH2 0x30F2 JUMPI PUSH2 0x30F1 PUSH2 0x2BC2 JUMP JUMPDEST JUMPDEST DUP1 DUP5 ADD SWAP3 POP DUP3 CALLDATALOAD SWAP2 POP PUSH8 0xFFFFFFFFFFFFFFFF DUP3 GT ISZERO PUSH2 0x3114 JUMPI PUSH2 0x3113 PUSH2 0x2BC6 JUMP JUMPDEST JUMPDEST PUSH1 0x20 DUP4 ADD SWAP3 POP PUSH1 0x40 DUP3 MUL CALLDATASIZE SUB DUP4 SGT ISZERO PUSH2 0x3130 JUMPI PUSH2 0x312F PUSH2 0x2BCA JUMP JUMPDEST JUMPDEST POP SWAP3 POP SWAP3 SWAP1 POP JUMP JUMPDEST PUSH32 0x4E487B7100000000000000000000000000000000000000000000000000000000 PUSH0 MSTORE PUSH0 PUSH1 0x4 MSTORE PUSH1 0x24 PUSH0 REVERT JUMPDEST PUSH0 DUP3 SWAP1 POP SWAP3 SWAP2 POP POP JUMP JUMPDEST PUSH0 DUP2 SWAP1 POP DUP2 PUSH0 MSTORE PUSH1 0x20 PUSH0 KECCAK256 SWAP1 POP SWAP2 SWAP1 POP JUMP JUMPDEST PUSH0 PUSH1 0x20 PUSH1 0x1F DUP4 ADD DIV SWAP1 POP SWAP2 SWAP1 POP JUMP JUMPDEST PUSH0 DUP3 DUP3 SHL SWAP1 POP SWAP3 SWAP2 POP POP JUMP JUMPDEST PUSH0 PUSH1 0x8 DUP4 MUL PUSH2 0x31CA PUSH32 0xFFFFFFFFFFFFFFFFFFFFFFFFFFFFFFFFFFFFFFFFFFFFFFFFFFFFFFFFFFFFFFFF DUP3 PUSH2 0x318F JUMP JUMPDEST PUSH2 0x31D4 DUP7 DUP4 PUSH2 0x318F JUMP JUMPDEST SWAP6 POP DUP1 NOT DUP5 AND SWAP4 POP DUP1 DUP7 AND DUP5 OR SWAP3 POP POP POP SWAP4 SWAP3 POP POP POP JUMP JUMPDEST PUSH0 PUSH2 0x3206 PUSH2 0x3201 PUSH2 0x31FC DUP5 PUSH2 0x2296 JUMP JUMPDEST PUSH2 0x26DA JUMP JUMPDEST PUSH2 0x2296 JUMP JUMPDEST SWAP1 POP SWAP2 SWAP1 POP JUMP JUMPDEST PUSH0 DUP2 SWAP1 POP SWAP2 SWAP1 POP JUMP JUMPDEST PUSH2 0x321F DUP4 PUSH2 0x31EC JUMP JUMPDEST PUSH2 0x3233 PUSH2 0x322B DUP3 PUSH2 0x320D JUMP JUMPDEST DUP5 DUP5 SLOAD PUSH2 0x319B JUMP JUMPDEST DUP3 SSTORE POP POP POP POP JUMP JUMPDEST PUSH0 PUSH0 SWAP1 POP SWAP1 JUMP JUMPDEST PUSH2 0x324A PUSH2 0x323B JUMP JUMPDEST PUSH2 0x3255 DUP2 DUP5 DUP5 PUSH2 0x3216 JUMP JUMPDEST POP POP POP JUMP JUMPDEST JUMPDEST DUP2 DUP2 LT ISZERO PUSH2 0x3278 JUMPI PUSH2 0x326D PUSH0 DUP3 PUSH2 0x3242 JUMP JUMPDEST PUSH1 0x1 DUP2 ADD SWAP1 POP PUSH2 0x325B JUMP JUMPDEST POP POP JUMP JUMPDEST PUSH1 0x1F DUP3 GT ISZERO PUSH2 0x32BD JUMPI PUSH2 0x328E DUP2 PUSH2 0x316E JUMP JUMPDEST PUSH2 0x3297 DUP5 PUSH2 0x3180 JUMP JUMPDEST DUP2 ADD PUSH1 0x20 DUP6 LT ISZERO PUSH2 0x32A6 JUMPI DUP2 SWAP1 POP JUMPDEST PUSH2 0x32BA PUSH2 0x32B2 DUP6 PUSH2 0x3180 JUMP JUMPDEST DUP4 ADD DUP3 PUSH2 0x325A JUMP JUMPDEST POP POP JUMPDEST POP POP POP JUMP JUMPDEST PUSH0 DUP3 DUP3 SHR SWAP1 POP SWAP3 SWAP2 POP POP JUMP JUMPDEST PUSH0 PUSH2 0x32DD PUSH0 NOT DUP5 PUSH1 0x8 MUL PUSH2 0x32C2 JUMP JUMPDEST NOT DUP1 DUP4 AND SWAP2 POP POP SWAP3 SWAP2 POP POP JUMP JUMPDEST PUSH0 PUSH2 0x32F5 DUP4 DUP4 PUSH2 0x32CE JUMP JUMPDEST SWAP2 POP DUP3 PUSH1 0x2 MUL DUP3 OR SWAP1 POP SWAP3 SWAP2 POP POP JUMP JUMPDEST PUSH2 0x330F DUP4 DUP4 PUSH2 0x3164 JUMP JUMPDEST PUSH8 0xFFFFFFFFFFFFFFFF DUP2 GT ISZERO PUSH2 0x3328 JUMPI PUSH2 0x3327 PUSH2 0x231F JUMP JUMPDEST JUMPDEST PUSH2 0x3332 DUP3 SLOAD PUSH2 0x2B92 JUMP JUMPDEST PUSH2 0x333D DUP3 DUP3 DUP6 PUSH2 0x327C JUMP JUMPDEST PUSH0 PUSH1 0x1F DUP4 GT PUSH1 0x1 DUP2 EQ PUSH2 0x336A JUMPI PUSH0 DUP5 ISZERO PUSH2 0x3358 JUMPI DUP3 DUP8 ADD CALLDATALOAD SWAP1 POP JUMPDEST PUSH2 0x3362 DUP6 DUP3 PUSH2 0x32EA JUMP JUMPDEST DUP7 SSTORE POP PUSH2 0x33C9 JUMP JUMPDEST PUSH1 0x1F NOT DUP5 AND PUSH2 0x3378 DUP7 PUSH2 0x316E JUMP JUMPDEST PUSH0 JUMPDEST DUP3 DUP2 LT ISZERO PUSH2 0x339F JUMPI DUP5 DUP10 ADD CALLDATALOAD DUP3 SSTORE PUSH1 0x1 DUP3 ADD SWAP2 POP PUSH1 0x20 DUP6 ADD SWAP5 POP PUSH1 0x20 DUP2 ADD SWAP1 POP PUSH2 0x337A JUMP JUMPDEST DUP7 DUP4 LT ISZERO PUSH2 0x33BC JUMPI DUP5 DUP10 ADD CALLDATALOAD PUSH2 0x33B8 PUSH1 0x1F DUP10 AND DUP3 PUSH2 0x32CE JUMP JUMPDEST DUP4 SSTORE POP JUMPDEST PUSH1 0x1 PUSH1 0x2 DUP9 MUL ADD DUP9 SSTORE POP POP POP JUMPDEST POP POP POP POP POP POP POP JUMP JUMPDEST PUSH2 0x33DD DUP4 DUP4 DUP4 PUSH2 0x3305 JUMP JUMPDEST POP POP POP JUMP JUMPDEST PUSH0 DUP2 SLOAD SWAP1 POP SWAP2 SWAP1 POP JUMP JUMPDEST PUSH0 DUP2 SWAP1 POP PUSH1 0x1 DUP1 PUSH1 0x1 SUB DUP4 ADD DIV SWAP1 POP SWAP2 SWAP1 POP JUMP JUMPDEST PUSH0 DUP2 SWAP1 POP DUP2 PUSH0 MSTORE PUSH1 0x20 PUSH0 KECCAK256 SWAP1 POP SWAP2 SWAP1 POP JUMP JUMPDEST PUSH0 PUSH0 DUP3 ADD SSTORE POP JUMP JUMPDEST PUSH0 DUP3 EQ PUSH2 0x342A JUMPI PUSH2 0x3429 PUSH2 0x3138 JUMP JUMPDEST JUMPDEST PUSH2 0x3433 DUP2 PUSH2 0x3412 JUMP JUMPDEST POP POP JUMP JUMPDEST JUMPDEST DUP2 DUP2 LT ISZERO PUSH2 0x3455 JUMPI PUSH2 0x344A PUSH0 DUP3 PUSH2 0x341A JUMP JUMPDEST PUSH1 0x1 DUP2 ADD SWAP1 POP PUSH2 0x3438 JUMP JUMPDEST POP POP JUMP JUMPDEST DUP2 DUP4 LT ISZERO PUSH2 0x3492 JUMPI PUSH2 0x346A DUP3 PUSH2 0x33EC JUMP JUMPDEST PUSH2 0x3473 DUP5 PUSH2 0x33EC JUMP JUMPDEST PUSH2 0x347C DUP4 PUSH2 0x3400 JUMP JUMPDEST DUP2 DUP2 ADD DUP4 DUP3 ADD PUSH2 0x348C DUP2 DUP4 PUSH2 0x3437 JUMP JUMPDEST POP POP POP POP POP JUMPDEST POP POP POP JUMP JUMPDEST PUSH9 0x10000000000000000 DUP3 GT ISZERO PUSH2 0x34B1 JUMPI PUSH2 0x34B0 PUSH2 0x231F JUMP JUMPDEST JUMPDEST PUSH2 0x34BA DUP2 PUSH2 0x33E2 JUMP JUMPDEST DUP3 DUP3 SSTORE PUSH2 0x34C8 DUP4 DUP3 DUP5 PUSH2 0x3459 JUMP JUMPDEST POP POP POP JUMP JUMPDEST PUSH0 DUP3 SWAP1 POP SWAP3 SWAP2 POP POP JUMP JUMPDEST PUSH0 DUP2 CALLDATALOAD PUSH2 0x34E3 DUP2 PUSH2 0x222E JUMP JUMPDEST DUP1 SWAP2 POP POP SWAP2 SWAP1 POP JUMP JUMPDEST PUSH0 DUP2 PUSH0 SHL SWAP1 POP SWAP2 SWAP1 POP JUMP JUMPDEST PUSH0 PUSH20 0xFFFFFFFFFFFFFFFFFFFFFFFFFFFFFFFFFFFFFFFF PUSH2 0x3516 DUP5 PUSH2 0x34EC JUMP JUMPDEST SWAP4 POP DUP1 NOT DUP4 AND SWAP3 POP DUP1 DUP5 AND DUP4 OR SWAP2 POP POP SWAP3 SWAP2 POP POP JUMP JUMPDEST PUSH0 PUSH2 0x3536 DUP3 PUSH2 0x2704 JUMP JUMPDEST SWAP1 POP SWAP2 SWAP1 POP JUMP JUMPDEST PUSH0 DUP2 SWAP1 POP SWAP2 SWAP1 POP JUMP JUMPDEST PUSH2 0x354F DUP3 PUSH2 0x352C JUMP JUMPDEST PUSH2 0x3562 PUSH2 0x355B DUP3 PUSH2 0x353D JUMP JUMPDEST DUP4 SLOAD PUSH2 0x34F7 JUMP JUMPDEST DUP3 SSTORE POP POP POP JUMP JUMPDEST PUSH0 DUP2 CALLDATALOAD PUSH2 0x3575 DUP2 PUSH2 0x2DBE JUMP JUMPDEST DUP1 SWAP2 POP POP SWAP2 SWAP1 POP JUMP JUMPDEST PUSH0 DUP2 PUSH1 0xA0 SHL SWAP1 POP SWAP2 SWAP1 POP JUMP JUMPDEST PUSH0 PUSH22 0xFFFF0000000000000000000000000000000000000000 PUSH2 0x35AB DUP5 PUSH2 0x357E JUMP JUMPDEST SWAP4 POP DUP1 NOT DUP4 AND SWAP3 POP DUP1 DUP5 AND DUP4 OR SWAP2 POP POP SWAP3 SWAP2 POP POP JUMP JUMPDEST PUSH0 PUSH2 0x35DB PUSH2 0x35D6 PUSH2 0x35D1 DUP5 PUSH2 0x254D JUMP JUMPDEST PUSH2 0x26DA JUMP JUMPDEST PUSH2 0x254D JUMP JUMPDEST SWAP1 POP SWAP2 SWAP1 POP JUMP JUMPDEST PUSH0 DUP2 SWAP1 POP SWAP2 SWAP1 POP JUMP JUMPDEST PUSH2 0x35F4 DUP3 PUSH2 0x35C1 JUMP JUMPDEST PUSH2 0x3607 PUSH2 0x3600 DUP3 PUSH2 0x35E2 JUMP JUMPDEST DUP4 SLOAD PUSH2 0x358A JUMP JUMPDEST DUP3 SSTORE POP POP POP JUMP JUMPDEST PUSH0 DUP2 ADD PUSH0 DUP4 ADD DUP1 PUSH2 0x361E DUP2 PUSH2 0x34D7 JUMP JUMPDEST SWAP1 POP PUSH2 0x362A DUP2 DUP5 PUSH2 0x3546 JUMP JUMPDEST POP POP POP PUSH0 DUP2 ADD PUSH1 0x20 DUP4 ADD DUP1 PUSH2 0x363E DUP2 PUSH2 0x3569 JUMP JUMPDEST SWAP1 POP PUSH2 0x364A DUP2 DUP5 PUSH2 0x35EB JUMP JUMPDEST POP POP POP POP POP JUMP JUMPDEST PUSH2 0x365B DUP3 DUP3 PUSH2 0x360E JUMP JUMPDEST POP POP JUMP JUMPDEST PUSH2 0x3669 DUP4 DUP4 PUSH2 0x34CD JUMP JUMPDEST PUSH2 0x3673 DUP2 DUP4 PUSH2 0x3497 JUMP JUMPDEST PUSH2 0x367C DUP4 PUSH2 0x2D9F JUMP JUMPDEST PUSH2 0x3685 DUP4 PUSH2 0x3400 JUMP JUMPDEST PUSH0 JUMPDEST DUP4 DUP2 LT ISZERO PUSH2 0x36B2 JUMPI DUP3 PUSH2 0x369A DUP2 DUP5 PUSH2 0x3651 JUMP JUMPDEST PUSH1 0x40 DUP5 ADD SWAP4 POP PUSH1 0x1 DUP4 ADD SWAP3 POP POP PUSH1 0x1 DUP2 ADD SWAP1 POP PUSH2 0x3687 JUMP JUMPDEST POP POP POP POP POP POP POP JUMP JUMPDEST PUSH2 0x36C6 DUP4 DUP4 DUP4 PUSH2 0x365F JUMP JUMPDEST POP POP POP JUMP JUMPDEST PUSH0 DUP2 ADD PUSH0 DUP4 ADD PUSH2 0x36DB DUP2 DUP6 PUSH2 0x2BCE JUMP JUMPDEST PUSH2 0x36E6 DUP2 DUP4 DUP7 PUSH2 0x33D2 JUMP JUMPDEST POP POP POP POP PUSH1 0x1 DUP2 ADD PUSH1 0x20 DUP4 ADD PUSH2 0x36FC DUP2 DUP6 PUSH2 0x2BCE JUMP JUMPDEST PUSH2 0x3707 DUP2 DUP4 DUP7 PUSH2 0x33D2 JUMP JUMPDEST POP POP POP POP PUSH1 0x2 DUP2 ADD PUSH1 0x40 DUP4 ADD PUSH2 0x371D DUP2 DUP6 PUSH2 0x30D6 JUMP JUMPDEST PUSH2 0x3728 DUP2 DUP4 DUP7 PUSH2 0x36BB JUMP JUMPDEST POP POP POP POP POP POP JUMP JUMPDEST PUSH2 0x373A DUP3 DUP3 PUSH2 0x36CB JUMP JUMPDEST POP POP JUMP JUMPDEST PUSH0 PUSH1 0x40 DUP3 ADD SWAP1 POP PUSH2 0x3751 PUSH0 DUP4 ADD DUP6 PUSH2 0x274E JUMP JUMPDEST PUSH2 0x375E PUSH1 0x20 DUP4 ADD DUP5 PUSH2 0x21F5 JUMP JUMPDEST SWAP4 SWAP3 POP POP POP JUMP JUMPDEST PUSH0 PUSH1 0x20 DUP3 DUP5 SUB SLT ISZERO PUSH2 0x377A JUMPI PUSH2 0x3779 PUSH2 0x2226 JUMP JUMPDEST JUMPDEST PUSH0 PUSH2 0x3787 DUP5 DUP3 DUP6 ADD PUSH2 0x2DD4 JUMP JUMPDEST SWAP2 POP POP SWAP3 SWAP2 POP POP JUMP JUMPDEST PUSH0 PUSH0 REVERT JUMPDEST PUSH0 PUSH3 0xFFFFFF DUP3 AND SWAP1 POP SWAP2 SWAP1 POP JUMP JUMPDEST PUSH2 0x37AB DUP2 PUSH2 0x3794 JUMP JUMPDEST DUP2 EQ PUSH2 0x37B5 JUMPI PUSH0 PUSH0 REVERT JUMPDEST POP JUMP JUMPDEST PUSH0 DUP2 MLOAD SWAP1 POP PUSH2 0x37C6 DUP2 PUSH2 0x37A2 JUMP JUMPDEST SWAP3 SWAP2 POP POP JUMP JUMPDEST PUSH0 PUSH1 0xFF DUP3 AND SWAP1 POP SWAP2 SWAP1 POP JUMP JUMPDEST PUSH2 0x37E1 DUP2 PUSH2 0x37CC JUMP JUMPDEST DUP2 EQ PUSH2 0x37EB JUMPI PUSH0 PUSH0 REVERT JUMPDEST POP JUMP JUMPDEST PUSH0 DUP2 MLOAD SWAP1 POP PUSH2 0x37FC DUP2 PUSH2 0x37D8 JUMP JUMPDEST SWAP3 SWAP2 POP POP JUMP JUMPDEST PUSH0 PUSH8 0xFFFFFFFFFFFFFFFF DUP3 AND SWAP1 POP SWAP2 SWAP1 POP JUMP JUMPDEST PUSH2 0x381E DUP2 PUSH2 0x3802 JUMP JUMPDEST DUP2 EQ PUSH2 0x3828 JUMPI PUSH0 PUSH0 REVERT JUMPDEST POP JUMP JUMPDEST PUSH0 DUP2 MLOAD SWAP1 POP PUSH2 0x3839 DUP2 PUSH2 0x3815 JUMP JUMPDEST SWAP3 SWAP2 POP POP JUMP JUMPDEST PUSH0 PUSH1 0x80 DUP3 DUP5 SUB SLT ISZERO PUSH2 0x3854 JUMPI PUSH2 0x3853 PUSH2 0x3790 JUMP JUMPDEST JUMPDEST PUSH2 0x385E PUSH1 0x80 PUSH2 0x237D JUMP JUMPDEST SWAP1 POP PUSH0 PUSH2 0x386D DUP5 DUP3 DUP6 ADD PUSH2 0x2851 JUMP JUMPDEST PUSH0 DUP4 ADD MSTORE POP PUSH1 0x20 PUSH2 0x3880 DUP5 DUP3 DUP6 ADD PUSH2 0x37B8 JUMP JUMPDEST PUSH1 0x20 DUP4 ADD MSTORE POP PUSH1 0x40 PUSH2 0x3894 DUP5 DUP3 DUP6 ADD PUSH2 0x37EE JUMP JUMPDEST PUSH1 0x40 DUP4 ADD MSTORE POP PUSH1 0x60 PUSH2 0x38A8 DUP5 DUP3 DUP6 ADD PUSH2 0x382B JUMP JUMPDEST PUSH1 0x60 DUP4 ADD MSTORE POP SWAP3 SWAP2 POP POP JUMP JUMPDEST PUSH0 PUSH1 0x80 DUP3 DUP5 SUB SLT ISZERO PUSH2 0x38C9 JUMPI PUSH2 0x38C8 PUSH2 0x2226 JUMP JUMPDEST JUMPDEST PUSH0 PUSH2 0x38D6 DUP5 DUP3 DUP6 ADD PUSH2 0x383F JUMP JUMPDEST SWAP2 POP POP SWAP3 SWAP2 POP POP JUMP JUMPDEST PUSH0 PUSH1 0x40 DUP3 DUP5 SUB SLT ISZERO PUSH2 0x38F4 JUMPI PUSH2 0x38F3 PUSH2 0x3790 JUMP JUMPDEST JUMPDEST PUSH2 0x38FE PUSH1 0x40 PUSH2 0x237D JUMP JUMPDEST SWAP1 POP PUSH0 PUSH2 0x390D DUP5 DUP3 DUP6 ADD PUSH2 0x2244 JUMP JUMPDEST PUSH0 DUP4 ADD MSTORE POP PUSH1 0x20 PUSH2 0x3920 DUP5 DUP3 DUP6 ADD PUSH2 0x2DD4 JUMP JUMPDEST PUSH1 0x20 DUP4 ADD MSTORE POP SWAP3 SWAP2 POP POP JUMP JUMPDEST PUSH0 PUSH1 0x40 DUP3 DUP5 SUB SLT ISZERO PUSH2 0x3941 JUMPI PUSH2 0x3940 PUSH2 0x2226 JUMP JUMPDEST JUMPDEST PUSH0 PUSH2 0x394E DUP5 DUP3 DUP6 ADD PUSH2 0x38DF JUMP JUMPDEST SWAP2 POP POP SWAP3 SWAP2 POP POP JUMP JUMPDEST PUSH0 DUP2 SWAP1 POP SWAP3 SWAP2 POP POP JUMP JUMPDEST POP JUMP JUMPDEST PUSH0 PUSH2 0x396F PUSH0 DUP4 PUSH2 0x3957 JUMP JUMPDEST SWAP2 POP PUSH2 0x397A DUP3 PUSH2 0x3961 JUMP JUMPDEST PUSH0 DUP3 ADD SWAP1 POP SWAP2 SWAP1 POP JUMP JUMPDEST PUSH0 PUSH2 0x398E DUP3 PUSH2 0x3964 JUMP JUMPDEST SWAP2 POP DUP2 SWAP1 POP SWAP2 SWAP1 POP JUMP JUMPDEST PUSH0 PUSH1 0x40 DUP3 ADD SWAP1 POP PUSH2 0x39AB PUSH0 DUP4 ADD DUP6 PUSH2 0x21F5 JUMP JUMPDEST PUSH2 0x39B8 PUSH1 0x20 DUP4 ADD DUP5 PUSH2 0x274E JUMP JUMPDEST SWAP4 SWAP3 POP POP POP JUMP JUMPDEST PUSH0 DUP2 MLOAD SWAP1 POP SWAP2 SWAP1 POP JUMP JUMPDEST PUSH0 PUSH2 0x39D3 DUP3 PUSH2 0x39BF JUMP JUMPDEST PUSH2 0x39DD DUP2 DUP6 PUSH2 0x3957 JUMP JUMPDEST SWAP4 POP PUSH2 0x39ED DUP2 DUP6 PUSH1 0x20 DUP7 ADD PUSH2 0x24CF JUMP JUMPDEST DUP1 DUP5 ADD SWAP2 POP POP SWAP3 SWAP2 POP POP JUMP JUMPDEST PUSH0 PUSH2 0x3A04 DUP3 DUP5 PUSH2 0x39C9 JUMP JUMPDEST SWAP2 POP DUP2 SWAP1 POP SWAP3 SWAP2 POP POP JUMP JUMPDEST PUSH0 DUP2 ISZERO ISZERO SWAP1 POP SWAP2 SWAP1 POP JUMP JUMPDEST PUSH2 0x3A23 DUP2 PUSH2 0x3A0F JUMP JUMPDEST DUP2 EQ PUSH2 0x3A2D JUMPI PUSH0 PUSH0 REVERT JUMPDEST POP JUMP JUMPDEST PUSH0 DUP2 MLOAD SWAP1 POP PUSH2 0x3A3E DUP2 PUSH2 0x3A1A JUMP JUMPDEST SWAP3 SWAP2 POP POP JUMP JUMPDEST PUSH0 PUSH1 0x20 DUP3 DUP5 SUB SLT ISZERO PUSH2 0x3A59 JUMPI PUSH2 0x3A58 PUSH2 0x2226 JUMP JUMPDEST JUMPDEST PUSH0 PUSH2 0x3A66 DUP5 DUP3 DUP6 ADD PUSH2 0x3A30 JUMP JUMPDEST SWAP2 POP POP SWAP3 SWAP2 POP POP JUMP JUMPDEST PUSH32 0x5452414E534645525F4641494C45440000000000000000000000000000000000 PUSH0 DUP3 ADD MSTORE POP JUMP JUMPDEST PUSH0 PUSH2 0x3AA3 PUSH1 0xF DUP4 PUSH2 0x2890 JUMP JUMPDEST SWAP2 POP PUSH2 0x3AAE DUP3 PUSH2 0x3A6F JUMP JUMPDEST PUSH1 0x20 DUP3 ADD SWAP1 POP SWAP2 SWAP1 POP JUMP JUMPDEST PUSH0 PUSH1 0x20 DUP3 ADD SWAP1 POP DUP2 DUP2 SUB PUSH0 DUP4 ADD MSTORE PUSH2 0x3AD0 DUP2 PUSH2 0x3A97 JUMP JUMPDEST SWAP1 POP SWAP2 SWAP1 POP JUMP JUMPDEST PUSH0 PUSH2 0x3AE2 DUP4 DUP6 PUSH2 0x3957 JUMP JUMPDEST SWAP4 POP PUSH2 0x3AEF DUP4 DUP6 DUP5 PUSH2 0x23C7 JUMP JUMPDEST DUP3 DUP5 ADD SWAP1 POP SWAP4 SWAP3 POP POP POP JUMP JUMPDEST PUSH0 PUSH2 0x3B07 DUP3 DUP5 DUP7 PUSH2 0x3AD7 JUMP JUMPDEST SWAP2 POP DUP2 SWAP1 POP SWAP4 SWAP3 POP POP POP JUMP JUMPDEST PUSH0 DUP3 DUP3 MSTORE PUSH1 0x20 DUP3 ADD SWAP1 POP SWAP3 SWAP2 POP POP JUMP JUMPDEST PUSH0 PUSH2 0x3B2D DUP3 PUSH2 0x2515 JUMP JUMPDEST PUSH2 0x3B37 DUP2 DUP6 PUSH2 0x3B13 JUMP JUMPDEST SWAP4 POP PUSH2 0x3B42 DUP4 PUSH2 0x252F JUMP JUMPDEST DUP1 PUSH0 JUMPDEST DUP4 DUP2 LT ISZERO PUSH2 0x3B72 JUMPI DUP2 MLOAD PUSH2 0x3B59 DUP9 DUP3 PUSH2 0x2596 JUMP JUMPDEST SWAP8 POP PUSH2 0x3B64 DUP4 PUSH2 0x25AD JUMP JUMPDEST SWAP3 POP POP PUSH1 0x1 DUP2 ADD SWAP1 POP PUSH2 0x3B45 JUMP JUMPDEST POP DUP6 SWAP4 POP POP POP POP SWAP3 SWAP2 POP POP JUMP JUMPDEST PUSH0 PUSH1 0x20 DUP3 ADD SWAP1 POP DUP2 DUP2 SUB PUSH0 DUP4 ADD MSTORE PUSH2 0x3B97 DUP2 DUP5 PUSH2 0x3B23 JUMP JUMPDEST SWAP1 POP SWAP3 SWAP2 POP POP JUMP INVALID LOG2 PUSH5 0x6970667358 0x22 SLT KECCAK256 SWAP4 NUMBER PUSH26 0x13CB952E9C1917CA345D627426D851DB69830C79ACF823F27BF4 DUP16 PUSH5 0x5764736F6C PUSH4 0x4300081E STOP CALLER "
		},
		"gasEstimates": {
			"creation": {
				"codeDepositCost": "3063400",
				"executionCost": "infinite",
				"totalCost": "infinite"
			},
			"external": {
				"Directory()": "infinite",
				"WETH_ADDRESS()": "infinite",
				"changeDirectoryAddress(address)": "infinite",
				"createEtf((string,string,(address,uint16)[]))": "infinite",
				"fetchFromDirectory(string)": "infinite",
				"getEtfById(uint256)": "infinite",
				"getEtfByIdAndAddresses(uint256)": "infinite",
				"getEtfByIdAndVault(uint256)": "infinite",
				"getEtfTokenAddress(uint256)": "2952",
				"getEtfTotalVolume(uint256)": "infinite",
				"getEtfVaultAddress(uint256)": "2953",
				"getSeedPrice()": "infinite",
				"owner()": "infinite",
				"recoverAsset(address,address)": "infinite",
				"updateEtfVolume(uint256,uint256)": "infinite"
			}
		},
		"methodIdentifiers": {
			"Directory()": "658a847a",
			"WETH_ADDRESS()": "040141e5",
			"changeDirectoryAddress(address)": "ba4c7be1",
			"createEtf((string,string,(address,uint16)[]))": "fc0121d4",
			"fetchFromDirectory(string)": "27262618",
			"getEtfById(uint256)": "ecb0271c",
			"getEtfByIdAndAddresses(uint256)": "61668690",
			"getEtfByIdAndVault(uint256)": "3088f069",
			"getEtfTokenAddress(uint256)": "f2018a1f",
			"getEtfTotalVolume(uint256)": "c45f0607",
			"getEtfVaultAddress(uint256)": "3ee79962",
			"getSeedPrice()": "9183fd01",
			"owner()": "8da5cb5b",
			"recoverAsset(address,address)": "09053ac4",
			"updateEtfVolume(uint256,uint256)": "1626542c"
		}
	},
	"abi": [
		{
			"inputs": [
				{
					"internalType": "address",
					"name": "_directory",
					"type": "address"
				},
				{
					"internalType": "address",
					"name": "_wethAddress",
					"type": "address"
				}
			],
			"stateMutability": "nonpayable",
			"type": "constructor"
		},
		{
			"inputs": [],
			"name": "DuplicateToken",
			"type": "error"
		},
		{
			"inputs": [],
			"name": "ETHSendFailed",
			"type": "error"
		},
		{
			"inputs": [],
			"name": "EmptyTicker",
			"type": "error"
		},
		{
			"inputs": [],
			"name": "EtfExists",
			"type": "error"
		},
		{
			"inputs": [],
			"name": "InsufficientETH",
			"type": "error"
		},
		{
			"inputs": [],
			"name": "InvalidAddress",
			"type": "error"
		},
		{
			"inputs": [],
			"name": "InvalidId",
			"type": "error"
		},
		{
			"inputs": [],
			"name": "InvalidSeedAmount",
			"type": "error"
		},
		{
			"inputs": [],
			"name": "NoAssets",
			"type": "error"
		},
		{
			"inputs": [],
			"name": "NoPoolFound",
			"type": "error"
		},
		{
			"inputs": [],
			"name": "NotHundred",
			"type": "error"
		},
		{
			"inputs": [],
			"name": "OverWeight",
			"type": "error"
		},
		{
			"inputs": [],
			"name": "TickerExists",
			"type": "error"
		},
		{
			"inputs": [],
			"name": "ZeroAmount",
			"type": "error"
		},
		{
			"inputs": [],
			"name": "ZeroToken",
			"type": "error"
		},
		{
			"inputs": [],
			"name": "ZeroTradeValue",
			"type": "error"
		},
		{
			"inputs": [],
			"name": "ZeroWeight",
			"type": "error"
		},
		{
			"inputs": [],
			"name": "ZeroWethUsdPrice",
			"type": "error"
		},
		{
			"anonymous": false,
			"inputs": [
				{
					"indexed": true,
					"internalType": "uint256",
					"name": "etfId",
					"type": "uint256"
				},
				{
					"components": [
						{
							"internalType": "string",
							"name": "name",
							"type": "string"
						},
						{
							"internalType": "string",
							"name": "ticker",
							"type": "string"
						},
						{
							"components": [
								{
									"internalType": "address",
									"name": "tokenAddress",
									"type": "address"
								},
								{
									"internalType": "uint16",
									"name": "weightBips",
									"type": "uint16"
								}
							],
							"internalType": "struct Asset[]",
							"name": "assets",
							"type": "tuple[]"
						}
					],
					"indexed": false,
					"internalType": "struct Etf",
					"name": "etf",
					"type": "tuple"
				},
				{
					"indexed": false,
					"internalType": "address",
					"name": "etfTokenAddress",
					"type": "address"
				},
				{
					"indexed": false,
					"internalType": "address",
					"name": "etfVaultAddress",
					"type": "address"
				}
			],
			"name": "EtfDeployed",
			"type": "event"
		},
		{
			"inputs": [],
			"name": "Directory",
			"outputs": [
				{
					"internalType": "contract IDirectory",
					"name": "",
					"type": "address"
				}
			],
			"stateMutability": "view",
			"type": "function"
		},
		{
			"inputs": [],
			"name": "WETH_ADDRESS",
			"outputs": [
				{
					"internalType": "address",
					"name": "",
					"type": "address"
				}
			],
			"stateMutability": "view",
			"type": "function"
		},
		{
			"inputs": [
				{
					"internalType": "address",
					"name": "_directory",
					"type": "address"
				}
			],
			"name": "changeDirectoryAddress",
			"outputs": [],
			"stateMutability": "nonpayable",
			"type": "function"
		},
		{
			"inputs": [
				{
					"components": [
						{
							"internalType": "string",
							"name": "name",
							"type": "string"
						},
						{
							"internalType": "string",
							"name": "ticker",
							"type": "string"
						},
						{
							"components": [
								{
									"internalType": "address",
									"name": "tokenAddress",
									"type": "address"
								},
								{
									"internalType": "uint16",
									"name": "weightBips",
									"type": "uint16"
								}
							],
							"internalType": "struct Asset[]",
							"name": "assets",
							"type": "tuple[]"
						}
					],
					"internalType": "struct Etf",
					"name": "etf",
					"type": "tuple"
				}
			],
			"name": "createEtf",
			"outputs": [
				{
					"internalType": "uint256",
					"name": "",
					"type": "uint256"
				}
			],
			"stateMutability": "payable",
			"type": "function"
		},
		{
			"inputs": [
				{
					"internalType": "string",
					"name": "_key",
					"type": "string"
				}
			],
			"name": "fetchFromDirectory",
			"outputs": [
				{
					"internalType": "address",
					"name": "",
					"type": "address"
				}
			],
			"stateMutability": "view",
			"type": "function"
		},
		{
			"inputs": [
				{
					"internalType": "uint256",
					"name": "etfId",
					"type": "uint256"
				}
			],
			"name": "getEtfById",
			"outputs": [
				{
					"components": [
						{
							"internalType": "string",
							"name": "name",
							"type": "string"
						},
						{
							"internalType": "string",
							"name": "ticker",
							"type": "string"
						},
						{
							"components": [
								{
									"internalType": "address",
									"name": "tokenAddress",
									"type": "address"
								},
								{
									"internalType": "uint16",
									"name": "weightBips",
									"type": "uint16"
								}
							],
							"internalType": "struct Asset[]",
							"name": "assets",
							"type": "tuple[]"
						}
					],
					"internalType": "struct Etf",
					"name": "",
					"type": "tuple"
				}
			],
			"stateMutability": "view",
			"type": "function"
		},
		{
			"inputs": [
				{
					"internalType": "uint256",
					"name": "etfId",
					"type": "uint256"
				}
			],
			"name": "getEtfByIdAndAddresses",
			"outputs": [
				{
					"components": [
						{
							"internalType": "string",
							"name": "name",
							"type": "string"
						},
						{
							"internalType": "string",
							"name": "ticker",
							"type": "string"
						},
						{
							"components": [
								{
									"internalType": "address",
									"name": "tokenAddress",
									"type": "address"
								},
								{
									"internalType": "uint16",
									"name": "weightBips",
									"type": "uint16"
								}
							],
							"internalType": "struct Asset[]",
							"name": "assets",
							"type": "tuple[]"
						}
					],
					"internalType": "struct Etf",
					"name": "etf",
					"type": "tuple"
				},
				{
					"internalType": "address",
					"name": "tokenAddress",
					"type": "address"
				},
				{
					"internalType": "address",
					"name": "vaultAddress",
					"type": "address"
				}
			],
			"stateMutability": "view",
			"type": "function"
		},
		{
			"inputs": [
				{
					"internalType": "uint256",
					"name": "etfId",
					"type": "uint256"
				}
			],
			"name": "getEtfByIdAndVault",
			"outputs": [
				{
					"components": [
						{
							"internalType": "string",
							"name": "name",
							"type": "string"
						},
						{
							"internalType": "string",
							"name": "ticker",
							"type": "string"
						},
						{
							"components": [
								{
									"internalType": "address",
									"name": "tokenAddress",
									"type": "address"
								},
								{
									"internalType": "uint16",
									"name": "weightBips",
									"type": "uint16"
								}
							],
							"internalType": "struct Asset[]",
							"name": "assets",
							"type": "tuple[]"
						}
					],
					"internalType": "struct Etf",
					"name": "etf",
					"type": "tuple"
				},
				{
					"internalType": "address",
					"name": "vaultAddress",
					"type": "address"
				}
			],
			"stateMutability": "view",
			"type": "function"
		},
		{
			"inputs": [
				{
					"internalType": "uint256",
					"name": "etfId",
					"type": "uint256"
				}
			],
			"name": "getEtfTokenAddress",
			"outputs": [
				{
					"internalType": "address",
					"name": "tokenAddress",
					"type": "address"
				}
			],
			"stateMutability": "view",
			"type": "function"
		},
		{
			"inputs": [
				{
					"internalType": "uint256",
					"name": "etfId",
					"type": "uint256"
				}
			],
			"name": "getEtfTotalVolume",
			"outputs": [
				{
					"internalType": "uint256",
					"name": "volWeth",
					"type": "uint256"
				},
				{
					"internalType": "uint256",
					"name": "volUsd",
					"type": "uint256"
				}
			],
			"stateMutability": "view",
			"type": "function"
		},
		{
			"inputs": [
				{
					"internalType": "uint256",
					"name": "etfId",
					"type": "uint256"
				}
			],
			"name": "getEtfVaultAddress",
			"outputs": [
				{
					"internalType": "address",
					"name": "vaultAddress",
					"type": "address"
				}
			],
			"stateMutability": "view",
			"type": "function"
		},
		{
			"inputs": [],
			"name": "getSeedPrice",
			"outputs": [
				{
					"internalType": "uint256",
					"name": "",
					"type": "uint256"
				}
			],
			"stateMutability": "view",
			"type": "function"
		},
		{
			"inputs": [],
			"name": "owner",
			"outputs": [
				{
					"internalType": "address",
					"name": "",
					"type": "address"
				}
			],
			"stateMutability": "view",
			"type": "function"
		},
		{
			"inputs": [
				{
					"internalType": "address",
					"name": "tokenAddress",
					"type": "address"
				},
				{
					"internalType": "address",
					"name": "toAddress",
					"type": "address"
				}
			],
			"name": "recoverAsset",
			"outputs": [],
			"stateMutability": "nonpayable",
			"type": "function"
		},
		{
			"inputs": [
				{
					"internalType": "uint256",
					"name": "etfId",
					"type": "uint256"
				},
				{
					"internalType": "uint256",
					"name": "ethAmount",
					"type": "uint256"
				}
			],
			"name": "updateEtfVolume",
			"outputs": [],
			"stateMutability": "nonpayable",
			"type": "function"
		},
		{
			"stateMutability": "payable",
			"type": "receive"
		}
	]
}