{
	"data": {
		"bytecode": {
			"linkReferences": {},
			"object": "608060405234801561000f575f5ffd5b5060405161335938038061335983398181016040528101906100319190610257565b806100418161004860201b60201c565b50506103f0565b5f73ffffffffffffffffffffffffffffffffffffffff168173ffffffffffffffffffffffffffffffffffffffff16036100b6576040517f08c379a00000000000000000000000000000000000000000000000000000000081526004016100ad906102dc565b60405180910390fd5b5f8173ffffffffffffffffffffffffffffffffffffffff163b1161010f576040517f08c379a000000000000000000000000000000000000000000000000000000000815260040161010690610344565b60405180910390fd5b8073ffffffffffffffffffffffffffffffffffffffff16638da5cb5b6040518163ffffffff1660e01b8152600401602060405180830381865afa92505050801561017757506040513d601f19601f820116820180604052508101906101749190610257565b60015b6101b6576040517f08c379a00000000000000000000000000000000000000000000000000000000081526004016101ad906103d2565b60405180910390fd5b815f5f6101000a81548173ffffffffffffffffffffffffffffffffffffffff021916908373ffffffffffffffffffffffffffffffffffffffff1602179055505050565b5f5ffd5b5f73ffffffffffffffffffffffffffffffffffffffff82169050919050565b5f610226826101fd565b9050919050565b6102368161021c565b8114610240575f5ffd5b50565b5f815190506102518161022d565b92915050565b5f6020828403121561026c5761026b6101f9565b5b5f61027984828501610243565b91505092915050565b5f82825260208201905092915050565b7f4469726563746f72792063616e6e6f74206265207a65726f20616464726573735f82015250565b5f6102c6602083610282565b91506102d182610292565b602082019050919050565b5f6020820190508181035f8301526102f3816102ba565b9050919050565b7f4469726563746f7279206d757374206265206120636f6e7472616374000000005f82015250565b5f61032e601c83610282565b9150610339826102fa565b602082019050919050565b5f6020820190508181035f83015261035b81610322565b9050919050565b7f4469726563746f7279206164647265737320646f6573206e6f7420696d706c655f8201527f6d656e74206f776e657228290000000000000000000000000000000000000000602082015250565b5f6103bc602c83610282565b91506103c782610362565b604082019050919050565b5f6020820190508181035f8301526103e9816103b0565b9050919050565b612f5c806103fd5f395ff3fe608060405234801561000f575f5ffd5b50600436106100b2575f3560e01c806379de9e821161006f57806379de9e82146101c9578063812efc8e146101fa5780638da5cb5b1461022a578063ba4c7be114610248578063cd8d334f14610264578063ee0d96c514610296576100b2565b80630705a3e8146100b657806313290a89146100e6578063179b8f97146101175780632726261814610147578063399a23da14610177578063658a847a146101ab575b5f5ffd5b6100d060048036038101906100cb9190611c7f565b6102c7565b6040516100dd9190611cb9565b60405180910390f35b61010060048036038101906100fb9190611c7f565b610371565b60405161010e929190611e78565b60405180910390f35b610131600480360381019061012c9190611c7f565b610411565b60405161013e9190611f3a565b60405180910390f35b610161600480360381019061015c9190612090565b6104b5565b60405161016e91906120e6565b60405180910390f35b610191600480360381019061018c9190611c7f565b610555565b6040516101a29594939291906123d8565b60405180910390f35b6101b3610621565b6040516101c09190612496565b60405180910390f35b6101e360048036038101906101de9190611c7f565b610645565b6040516101f19291906124af565b60405180910390f35b610214600480360381019061020f9190611c7f565b6106ee565b6040516102219190611cb9565b60405180910390f35b61023261078b565b60405161023f91906120e6565b60405180910390f35b610262600480360381019061025d9190612500565b61081e565b005b61027e60048036038101906102799190611c7f565b610924565b60405161028d9392919061252b565b60405180910390f35b6102b060048036038101906102ab919061275f565b6109c9565b6040516102be929190611e78565b60405180910390f35b5f5f5f6102d26109e1565b73ffffffffffffffffffffffffffffffffffffffff16633088f069856040518263ffffffff1660e01b815260040161030a9190611cb9565b5f60405180830381865afa158015610324573d5f5f3e3d5ffd5b505050506040513d5f823e3d601f19601f8201168201806040525081019061034c91906129e6565b915091505f61035c858484610a25565b905061036781610bf1565b9350505050919050565b60605f5f5f61037e6109e1565b73ffffffffffffffffffffffffffffffffffffffff16633088f069866040518263ffffffff1660e01b81526004016103b69190611cb9565b5f60405180830381865afa1580156103d0573d5f5f3e3d5ffd5b505050506040513d5f823e3d601f19601f820116820180604052508101906103f891906129e6565b915091506104068282610ca4565b935093505050915091565b610419611b1c565b5f5f6104236109e1565b73ffffffffffffffffffffffffffffffffffffffff16633088f069856040518263ffffffff1660e01b815260040161045b9190611cb9565b5f60405180830381865afa158015610475573d5f5f3e3d5ffd5b505050506040513d5f823e3d601f19601f8201168201806040525081019061049d91906129e6565b915091506104ac848383610fde565b92505050919050565b5f5f5f9054906101000a900473ffffffffffffffffffffffffffffffffffffffff1673ffffffffffffffffffffffffffffffffffffffff166327262618836040518263ffffffff1660e01b815260040161050f9190612a88565b602060405180830381865afa15801561052a573d5f5f3e3d5ffd5b505050506040513d601f19601f8201168201806040525081019061054e9190612aa8565b9050919050565b61055d611b5b565b610565611b1c565b60605f5f5f6105726109e1565b73ffffffffffffffffffffffffffffffffffffffff16633088f069886040518263ffffffff1660e01b81526004016105aa9190611cb9565b5f60405180830381865afa1580156105c4573d5f5f3e3d5ffd5b505050506040513d5f823e3d601f19601f820116820180604052508101906105ec91906129e6565b80925081975050506105ff878783610fde565b945061060b8682611168565b8094508195508296505050505091939590929450565b5f5f9054906101000a900473ffffffffffffffffffffffffffffffffffffffff1681565b5f5f5f5f6106516109e1565b73ffffffffffffffffffffffffffffffffffffffff16633088f069866040518263ffffffff1660e01b81526004016106899190611cb9565b5f60405180830381865afa1580156106a3573d5f5f3e3d5ffd5b505050506040513d5f823e3d601f19601f820116820180604052508101906106cb91906129e6565b915091506106da858383610a25565b93506106e584610bf1565b92505050915091565b5f5f5f6106f96109e1565b73ffffffffffffffffffffffffffffffffffffffff16633088f069856040518263ffffffff1660e01b81526004016107319190611cb9565b5f60405180830381865afa15801561074b573d5f5f3e3d5ffd5b505050506040513d5f823e3d601f19601f8201168201806040525081019061077391906129e6565b91509150610782848383610a25565b92505050919050565b5f5f5f9054906101000a900473ffffffffffffffffffffffffffffffffffffffff1673ffffffffffffffffffffffffffffffffffffffff16638da5cb5b6040518163ffffffff1660e01b8152600401602060405180830381865afa1580156107f5573d5f5f3e3d5ffd5b505050506040513d601f19601f820116820180604052508101906108199190612aa8565b905090565b5f5f9054906101000a900473ffffffffffffffffffffffffffffffffffffffff1673ffffffffffffffffffffffffffffffffffffffff16638da5cb5b6040518163ffffffff1660e01b8152600401602060405180830381865afa158015610887573d5f5f3e3d5ffd5b505050506040513d601f19601f820116820180604052508101906108ab9190612aa8565b73ffffffffffffffffffffffffffffffffffffffff163373ffffffffffffffffffffffffffffffffffffffff1614610918576040517f08c379a000000000000000000000000000000000000000000000000000000000815260040161090f90612b1d565b60405180910390fd5b6109218161137c565b50565b60605f5f5f5f6109326109e1565b73ffffffffffffffffffffffffffffffffffffffff16633088f069876040518263ffffffff1660e01b815260040161096a9190611cb9565b5f60405180830381865afa158015610984573d5f5f3e3d5ffd5b505050506040513d5f823e3d601f19601f820116820180604052508101906109ac91906129e6565b915091506109ba8282611168565b94509450945050509193909250565b60605f6109d68484610ca4565b915091509250929050565b5f610a206040518060400160405280600b81526020017f6574662d666163746f72790000000000000000000000000000000000000000008152506104b5565b905090565b5f5f610a2f6109e1565b73ffffffffffffffffffffffffffffffffffffffff1663f2018a1f866040518263ffffffff1660e01b8152600401610a679190611cb9565b602060405180830381865afa158015610a82573d5f5f3e3d5ffd5b505050506040513d601f19601f82011682018060405250810190610aa69190612aa8565b90505f8173ffffffffffffffffffffffffffffffffffffffff166318160ddd6040518163ffffffff1660e01b8152600401602060405180830381865afa158015610af2573d5f5f3e3d5ffd5b505050506040513d601f19601f82011682018060405250810190610b169190612b4f565b90505f8273ffffffffffffffffffffffffffffffffffffffff1663313ce5676040518163ffffffff1660e01b8152600401602060405180830381865afa158015610b62573d5f5f3e3d5ffd5b505050506040513d601f19601f82011682018060405250810190610b869190612ba4565b90505f8203610ba257610b988661152d565b9350505050610bea565b5f610bad8383611662565b90505f8103610bc2575f945050505050610bea565b5f610bcd88886116cd565b9050610be281670de0b6b3a7640000846118c7565b955050505050505b9392505050565b5f5f8203610c01575f9050610c9f565b5f610c0a6119d1565b73ffffffffffffffffffffffffffffffffffffffff16636855e9396040518163ffffffff1660e01b8152600401602060405180830381865afa158015610c52573d5f5f3e3d5ffd5b505050506040513d601f19601f82011682018060405250810190610c769190612b4f565b90505f8103610c88575f915050610c9f565b610c9b8382670de0b6b3a76400006118c7565b9150505b919050565b60605f5f84604001515190508067ffffffffffffffff811115610cca57610cc9611f6c565b5b604051908082528060200260200182016040528015610d0357816020015b610cf0611b7c565b815260200190600190039081610ce85790505b5092505f610d0f6119d1565b90505f5f90505b82811015610f52575f87604001518281518110610d3657610d35612bcf565b5b60200260200101515f015190505f8173ffffffffffffffffffffffffffffffffffffffff1663313ce5676040518163ffffffff1660e01b8152600401602060405180830381865afa158015610d8d573d5f5f3e3d5ffd5b505050506040513d601f19601f82011682018060405250810190610db19190612ba4565b90505f8273ffffffffffffffffffffffffffffffffffffffff166370a082318a6040518263ffffffff1660e01b8152600401610ded91906120e6565b602060405180830381865afa158015610e08573d5f5f3e3d5ffd5b505050506040513d601f19601f82011682018060405250810190610e2c9190612b4f565b90505f8573ffffffffffffffffffffffffffffffffffffffff16637b49b49d856040518263ffffffff1660e01b8152600401610e6891906120e6565b602060405180830381865afa158015610e83573d5f5f3e3d5ffd5b505050506040513d601f19601f82011682018060405250810190610ea79190612b4f565b90505f5f831480610eb757505f82145b610ed157610ecc83838660ff16600a0a6118c7565b610ed3565b5f5b90506040518060c001604052808673ffffffffffffffffffffffffffffffffffffffff1681526020018560ff1681526020015f61ffff168152602001848152602001838152602001828152508a8781518110610f3257610f31612bcf565b5b602002602001018190525080890198505050505050806001019050610d16565b505f831115610fd5575f5f90505b82811015610fd35783612710868381518110610f7f57610f7e612bcf565b5b602002602001015160a001510281610f9a57610f99612bfc565b5b04858281518110610fae57610fad612bcf565b5b60200260200101516040019061ffff16908161ffff1681525050806001019050610f60565b505b50509250929050565b610fe6611b1c565b5f610fef6119d1565b90505f610ffd868686610a25565b90505f61100982610bf1565b9050604051806040016040528083815260200182815250845f01819052505f5f6110316109e1565b73ffffffffffffffffffffffffffffffffffffffff1663c45f06078a6040518263ffffffff1660e01b81526004016110699190611cb9565b6040805180830381865afa158015611083573d5f5f3e3d5ffd5b505050506040513d601f19601f820116820180604052508101906110a79190612c29565b9150915060405180604001604052808381526020018281525086602001819052505f6110d389896116cd565b90505f6110df82610bf1565b905060405180604001604052808381526020018281525088604001819052506111238a8873ffffffffffffffffffffffffffffffffffffffff166357b6c133611a15565b8860600181815250506111518a8873ffffffffffffffffffffffffffffffffffffffff166369a2e17d611a15565b886080018181525050505050505050509392505050565b60605f5f5f5f6111788787610ca4565b9150915080935061118881610bf1565b92505f825190508067ffffffffffffffff8111156111a9576111a8611f6c565b5b6040519080825280602002602001820160405280156111e257816020015b6111cf611bc9565b8152602001906001900390816111c75790505b5095505f5f90505b818110156113715760405180610100016040528085838151811061121157611210612bcf565b5b60200260200101515f015173ffffffffffffffffffffffffffffffffffffffff16815260200185838151811061124a57611249612bcf565b5b60200260200101516020015160ff16815260200185838151811061127157611270612bcf565b5b60200260200101516040015161ffff16815260200185838151811061129957611298612bcf565b5b60200260200101516060015181526020018583815181106112bd576112bc612bcf565b5b60200260200101516080015181526020016112f58684815181106112e4576112e3612bcf565b5b602002602001015160800151610bf1565b815260200185838151811061130d5761130c612bcf565b5b602002602001015160a00151815260200161134586848151811061133457611333612bcf565b5b602002602001015160a00151610bf1565b81525087828151811061135b5761135a612bcf565b5b60200260200101819052508060010190506111ea565b505050509250925092565b5f73ffffffffffffffffffffffffffffffffffffffff168173ffffffffffffffffffffffffffffffffffffffff16036113ea576040517f08c379a00000000000000000000000000000000000000000000000000000000081526004016113e190612cb1565b60405180910390fd5b5f8173ffffffffffffffffffffffffffffffffffffffff163b11611443576040517f08c379a000000000000000000000000000000000000000000000000000000000815260040161143a90612d19565b60405180910390fd5b8073ffffffffffffffffffffffffffffffffffffffff16638da5cb5b6040518163ffffffff1660e01b8152600401602060405180830381865afa9250505080156114ab57506040513d601f19601f820116820180604052508101906114a89190612aa8565b60015b6114ea576040517f08c379a00000000000000000000000000000000000000000000000000000000081526004016114e190612da7565b60405180910390fd5b815f5f6101000a81548173ffffffffffffffffffffffffffffffffffffffff021916908373ffffffffffffffffffffffffffffffffffffffff1602179055505050565b5f5f5f6115386119d1565b90505f5f90505b84604001515181101561164a575f8560400151828151811061156457611563612bcf565b5b60200260200101515f015190505f8660400151838151811061158957611588612bcf565b5b60200260200101516020015190505f8473ffffffffffffffffffffffffffffffffffffffff16637b49b49d846040518263ffffffff1660e01b81526004016115d191906120e6565b602060405180830381865afa1580156115ec573d5f5f3e3d5ffd5b505050506040513d601f19601f820116820180604052508101906116109190612b4f565b90505f81148061162357505f8261ffff16145b156116305750505061163f565b808261ffff1602860195505050505b80600101905061153f565b50612710826116599190612df2565b92505050919050565b5f60128260ff1603611676578290506116c7565b60128260ff1610156116a45761169d83670de0b6b3a764000061169885611ac6565b6118c7565b90506116c7565b6116b96012836116b49190612e22565b611ac6565b836116c49190612df2565b90505b92915050565b5f5f6116d76119d1565b90505f5f90505b8460400151518110156118bf575f8560400151828151811061170357611702612bcf565b5b60200260200101515f015190505f8173ffffffffffffffffffffffffffffffffffffffff166370a08231876040518263ffffffff1660e01b815260040161174a91906120e6565b602060405180830381865afa158015611765573d5f5f3e3d5ffd5b505050506040513d601f19601f820116820180604052508101906117899190612b4f565b90505f81036117995750506118b4565b5f8473ffffffffffffffffffffffffffffffffffffffff16637b49b49d846040518263ffffffff1660e01b81526004016117d391906120e6565b602060405180830381865afa1580156117ee573d5f5f3e3d5ffd5b505050506040513d601f19601f820116820180604052508101906118129190612b4f565b90505f8103611823575050506118b4565b5f8373ffffffffffffffffffffffffffffffffffffffff1663313ce5676040518163ffffffff1660e01b8152600401602060405180830381865afa15801561186d573d5f5f3e3d5ffd5b505050506040513d601f19601f820116820180604052508101906118919190612ba4565b90505f61189d82611ac6565b90506118aa8484836118c7565b8801975050505050505b8060010190506116de565b505092915050565b5f5f5f5f198587098587029250828110838203039150505f81036118ff578382816118f5576118f4612bfc565b5b04925050506119ca565b808411611941576040517f08c379a000000000000000000000000000000000000000000000000000000000815260040161193890612ea0565b60405180910390fd5b5f8486880990508281118203915080830392505f60018619018616905080860495508084049350600181825f0304019050808302841793505f600287600302189050808702600203810290508087026002038102905080870260020381029050808702600203810290508087026002038102905080870260020381029050808502955050505050505b9392505050565b5f611a106040518060400160405280600e81526020017f756e69737761702d6f7261636c650000000000000000000000000000000000008152506104b5565b905090565b5f5f5f90505b846040015151811015611abe575f85604001518281518110611a4057611a3f612bcf565b5b60200260200101515f015190508484826040518263ffffffff1660e01b8152600401611a6c91906120e6565b602060405180830381865afa925050508015611aa657506040513d601f19601f82011682018060405250810190611aa39190612b4f565b60015b15611ab2578084019350505b50806001019050611a1b565b509392505050565b5f604d8260ff161115611b0e576040517f08c379a0000000000000000000000000000000000000000000000000000000008152600401611b0590612f08565b60405180910390fd5b8160ff16600a0a9050919050565b6040518060a00160405280611b2f611c23565b8152602001611b3c611c23565b8152602001611b49611c23565b81526020015f81526020015f81525090565b60405180606001604052806060815260200160608152602001606081525090565b6040518060c001604052805f73ffffffffffffffffffffffffffffffffffffffff1681526020015f60ff1681526020015f61ffff1681526020015f81526020015f81526020015f81525090565b6040518061010001604052805f73ffffffffffffffffffffffffffffffffffffffff1681526020015f60ff1681526020015f61ffff1681526020015f81526020015f81526020015f81526020015f81526020015f81525090565b60405180604001604052805f81526020015f81525090565b5f604051905090565b5f5ffd5b5f5ffd5b5f819050919050565b611c5e81611c4c565b8114611c68575f5ffd5b50565b5f81359050611c7981611c55565b92915050565b5f60208284031215611c9457611c93611c44565b5b5f611ca184828501611c6b565b91505092915050565b611cb381611c4c565b82525050565b5f602082019050611ccc5f830184611caa565b92915050565b5f81519050919050565b5f82825260208201905092915050565b5f819050602082019050919050565b5f73ffffffffffffffffffffffffffffffffffffffff82169050919050565b5f611d2482611cfb565b9050919050565b611d3481611d1a565b82525050565b5f60ff82169050919050565b611d4f81611d3a565b82525050565b5f61ffff82169050919050565b611d6b81611d55565b82525050565b611d7a81611c4c565b82525050565b60c082015f820151611d945f850182611d2b565b506020820151611da76020850182611d46565b506040820151611dba6040850182611d62565b506060820151611dcd6060850182611d71565b506080820151611de06080850182611d71565b5060a0820151611df360a0850182611d71565b50505050565b5f611e048383611d80565b60c08301905092915050565b5f602082019050919050565b5f611e2682611cd2565b611e308185611cdc565b9350611e3b83611cec565b805f5b83811015611e6b578151611e528882611df9565b9750611e5d83611e10565b925050600181019050611e3e565b5085935050505092915050565b5f6040820190508181035f830152611e908185611e1c565b9050611e9f6020830184611caa565b9392505050565b604082015f820151611eba5f850182611d71565b506020820151611ecd6020850182611d71565b50505050565b61010082015f820151611ee85f850182611ea6565b506020820151611efb6040850182611ea6565b506040820151611f0e6080850182611ea6565b506060820151611f2160c0850182611d71565b506080820151611f3460e0850182611d71565b50505050565b5f61010082019050611f4e5f830184611ed3565b92915050565b5f5ffd5b5f5ffd5b5f601f19601f8301169050919050565b7f4e487b71000000000000000000000000000000000000000000000000000000005f52604160045260245ffd5b611fa282611f5c565b810181811067ffffffffffffffff82111715611fc157611fc0611f6c565b5b80604052505050565b5f611fd3611c3b565b9050611fdf8282611f99565b919050565b5f67ffffffffffffffff821115611ffe57611ffd611f6c565b5b61200782611f5c565b9050602081019050919050565b828183375f83830152505050565b5f61203461202f84611fe4565b611fca565b9050828152602081018484840111156120505761204f611f58565b5b61205b848285612014565b509392505050565b5f82601f83011261207757612076611f54565b5b8135612087848260208601612022565b91505092915050565b5f602082840312156120a5576120a4611c44565b5b5f82013567ffffffffffffffff8111156120c2576120c1611c48565b5b6120ce84828501612063565b91505092915050565b6120e081611d1a565b82525050565b5f6020820190506120f95f8301846120d7565b92915050565b5f81519050919050565b5f82825260208201905092915050565b8281835e5f83830152505050565b5f612131826120ff565b61213b8185612109565b935061214b818560208601612119565b61215481611f5c565b840191505092915050565b5f81519050919050565b5f82825260208201905092915050565b5f819050602082019050919050565b604082015f82015161219c5f850182611d2b565b5060208201516121af6020850182611d62565b50505050565b5f6121c08383612188565b60408301905092915050565b5f602082019050919050565b5f6121e28261215f565b6121ec8185612169565b93506121f783612179565b805f5b8381101561222757815161220e88826121b5565b9750612219836121cc565b9250506001810190506121fa565b5085935050505092915050565b5f606083015f8301518482035f86015261224e8282612127565b915050602083015184820360208601526122688282612127565b9150506040830151848203604086015261228282826121d8565b9150508091505092915050565b5f81519050919050565b5f82825260208201905092915050565b5f819050602082019050919050565b61010082015f8201516122cd5f850182611d2b565b5060208201516122e06020850182611d46565b5060408201516122f36040850182611d62565b5060608201516123066060850182611d71565b5060808201516123196080850182611d71565b5060a082015161232c60a0850182611d71565b5060c082015161233f60c0850182611d71565b5060e082015161235260e0850182611d71565b50505050565b5f61236383836122b8565b6101008301905092915050565b5f602082019050919050565b5f6123868261228f565b6123908185612299565b935061239b836122a9565b805f5b838110156123cb5781516123b28882612358565b97506123bd83612370565b92505060018101905061239e565b5085935050505092915050565b5f610180820190508181035f8301526123f18188612234565b90506124006020830187611ed3565b818103610120830152612413818661237c565b9050612423610140830185611caa565b612431610160830184611caa565b9695505050505050565b5f819050919050565b5f61245e61245961245484611cfb565b61243b565b611cfb565b9050919050565b5f61246f82612444565b9050919050565b5f61248082612465565b9050919050565b61249081612476565b82525050565b5f6020820190506124a95f830184612487565b92915050565b5f6040820190506124c25f830185611caa565b6124cf6020830184611caa565b9392505050565b6124df81611d1a565b81146124e9575f5ffd5b50565b5f813590506124fa816124d6565b92915050565b5f6020828403121561251557612514611c44565b5b5f612522848285016124ec565b91505092915050565b5f6060820190508181035f830152612543818661237c565b90506125526020830185611caa565b61255f6040830184611caa565b949350505050565b5f5ffd5b5f5ffd5b5f67ffffffffffffffff82111561258957612588611f6c565b5b602082029050602081019050919050565b5f5ffd5b6125a781611d55565b81146125b1575f5ffd5b50565b5f813590506125c28161259e565b92915050565b5f604082840312156125dd576125dc612567565b5b6125e76040611fca565b90505f6125f6848285016124ec565b5f830152506020612609848285016125b4565b60208301525092915050565b5f6126276126228461256f565b611fca565b9050808382526020820190506040840283018581111561264a5761264961259a565b5b835b81811015612673578061265f88826125c8565b84526020840193505060408101905061264c565b5050509392505050565b5f82601f83011261269157612690611f54565b5b81356126a1848260208601612615565b91505092915050565b5f606082840312156126bf576126be612567565b5b6126c96060611fca565b90505f82013567ffffffffffffffff8111156126e8576126e761256b565b5b6126f484828501612063565b5f83015250602082013567ffffffffffffffff8111156127175761271661256b565b5b61272384828501612063565b602083015250604082013567ffffffffffffffff8111156127475761274661256b565b5b6127538482850161267d565b60408301525092915050565b5f5f6040838503121561277557612774611c44565b5b5f83013567ffffffffffffffff81111561279257612791611c48565b5b61279e858286016126aa565b92505060206127af858286016124ec565b9150509250929050565b5f6127cb6127c684611fe4565b611fca565b9050828152602081018484840111156127e7576127e6611f58565b5b6127f2848285612119565b509392505050565b5f82601f83011261280e5761280d611f54565b5b815161281e8482602086016127b9565b91505092915050565b5f81519050612835816124d6565b92915050565b5f815190506128498161259e565b92915050565b5f6040828403121561286457612863612567565b5b61286e6040611fca565b90505f61287d84828501612827565b5f8301525060206128908482850161283b565b60208301525092915050565b5f6128ae6128a98461256f565b611fca565b905080838252602082019050604084028301858111156128d1576128d061259a565b5b835b818110156128fa57806128e6888261284f565b8452602084019350506040810190506128d3565b5050509392505050565b5f82601f83011261291857612917611f54565b5b815161292884826020860161289c565b91505092915050565b5f6060828403121561294657612945612567565b5b6129506060611fca565b90505f82015167ffffffffffffffff81111561296f5761296e61256b565b5b61297b848285016127fa565b5f83015250602082015167ffffffffffffffff81111561299e5761299d61256b565b5b6129aa848285016127fa565b602083015250604082015167ffffffffffffffff8111156129ce576129cd61256b565b5b6129da84828501612904565b60408301525092915050565b5f5f604083850312156129fc576129fb611c44565b5b5f83015167ffffffffffffffff811115612a1957612a18611c48565b5b612a2585828601612931565b9250506020612a3685828601612827565b9150509250929050565b5f82825260208201905092915050565b5f612a5a826120ff565b612a648185612a40565b9350612a74818560208601612119565b612a7d81611f5c565b840191505092915050565b5f6020820190508181035f830152612aa08184612a50565b905092915050565b5f60208284031215612abd57612abc611c44565b5b5f612aca84828501612827565b91505092915050565b7f43616c6c6572206973206e6f7420746865206f776e65720000000000000000005f82015250565b5f612b07601783612a40565b9150612b1282612ad3565b602082019050919050565b5f6020820190508181035f830152612b3481612afb565b9050919050565b5f81519050612b4981611c55565b92915050565b5f60208284031215612b6457612b63611c44565b5b5f612b7184828501612b3b565b91505092915050565b612b8381611d3a565b8114612b8d575f5ffd5b50565b5f81519050612b9e81612b7a565b92915050565b5f60208284031215612bb957612bb8611c44565b5b5f612bc684828501612b90565b91505092915050565b7f4e487b71000000000000000000000000000000000000000000000000000000005f52603260045260245ffd5b7f4e487b71000000000000000000000000000000000000000000000000000000005f52601260045260245ffd5b5f5f60408385031215612c3f57612c3e611c44565b5b5f612c4c85828601612b3b565b9250506020612c5d85828601612b3b565b9150509250929050565b7f4469726563746f72792063616e6e6f74206265207a65726f20616464726573735f82015250565b5f612c9b602083612a40565b9150612ca682612c67565b602082019050919050565b5f6020820190508181035f830152612cc881612c8f565b9050919050565b7f4469726563746f7279206d757374206265206120636f6e7472616374000000005f82015250565b5f612d03601c83612a40565b9150612d0e82612ccf565b602082019050919050565b5f6020820190508181035f830152612d3081612cf7565b9050919050565b7f4469726563746f7279206164647265737320646f6573206e6f7420696d706c655f8201527f6d656e74206f776e657228290000000000000000000000000000000000000000602082015250565b5f612d91602c83612a40565b9150612d9c82612d37565b604082019050919050565b5f6020820190508181035f830152612dbe81612d85565b9050919050565b7f4e487b71000000000000000000000000000000000000000000000000000000005f52601160045260245ffd5b5f612dfc82611c4c565b9150612e0783611c4c565b925082612e1757612e16612bfc565b5b828204905092915050565b5f612e2c82611d3a565b9150612e3783611d3a565b9250828203905060ff811115612e5057612e4f612dc5565b5b92915050565b7f6d756c446976206f766572666c6f7700000000000000000000000000000000005f82015250565b5f612e8a600f83612a40565b9150612e9582612e56565b602082019050919050565b5f6020820190508181035f830152612eb781612e7e565b9050919050565b7f706f773130206f766572666c6f770000000000000000000000000000000000005f82015250565b5f612ef2600e83612a40565b9150612efd82612ebe565b602082019050919050565b5f6020820190508181035f830152612f1f81612ee6565b905091905056fea264697066735822122082c842d3d043980fe8708c98e9388d4f8432fa24c1722beb32f15fb63721c5ed64736f6c634300081e0033",
			"opcodes": "PUSH1 0x80 PUSH1 0x40 MSTORE CALLVALUE DUP1 ISZERO PUSH2 0xF JUMPI PUSH0 PUSH0 REVERT JUMPDEST POP PUSH1 0x40 MLOAD PUSH2 0x3359 CODESIZE SUB DUP1 PUSH2 0x3359 DUP4 CODECOPY DUP2 DUP2 ADD PUSH1 0x40 MSTORE DUP2 ADD SWAP1 PUSH2 0x31 SWAP2 SWAP1 PUSH2 0x257 JUMP JUMPDEST DUP1 PUSH2 0x41 DUP2 PUSH2 0x48 PUSH1 0x20 SHL PUSH1 0x20 SHR JUMP JUMPDEST POP POP PUSH2 0x3F0 JUMP JUMPDEST PUSH0 PUSH20 0xFFFFFFFFFFFFFFFFFFFFFFFFFFFFFFFFFFFFFFFF AND DUP2 PUSH20 0xFFFFFFFFFFFFFFFFFFFFFFFFFFFFFFFFFFFFFFFF AND SUB PUSH2 0xB6 JUMPI PUSH1 0x40 MLOAD PUSH32 0x8C379A000000000000000000000000000000000000000000000000000000000 DUP2 MSTORE PUSH1 0x4 ADD PUSH2 0xAD SWAP1 PUSH2 0x2DC JUMP JUMPDEST PUSH1 0x40 MLOAD DUP1 SWAP2 SUB SWAP1 REVERT JUMPDEST PUSH0 DUP2 PUSH20 0xFFFFFFFFFFFFFFFFFFFFFFFFFFFFFFFFFFFFFFFF AND EXTCODESIZE GT PUSH2 0x10F JUMPI PUSH1 0x40 MLOAD PUSH32 0x8C379A000000000000000000000000000000000000000000000000000000000 DUP2 MSTORE PUSH1 0x4 ADD PUSH2 0x106 SWAP1 PUSH2 0x344 JUMP JUMPDEST PUSH1 0x40 MLOAD DUP1 SWAP2 SUB SWAP1 REVERT JUMPDEST DUP1 PUSH20 0xFFFFFFFFFFFFFFFFFFFFFFFFFFFFFFFFFFFFFFFF AND PUSH4 0x8DA5CB5B PUSH1 0x40 MLOAD DUP2 PUSH4 0xFFFFFFFF AND PUSH1 0xE0 SHL DUP2 MSTORE PUSH1 0x4 ADD PUSH1 0x20 PUSH1 0x40 MLOAD DUP1 DUP4 SUB DUP2 DUP7 GAS STATICCALL SWAP3 POP POP POP DUP1 ISZERO PUSH2 0x177 JUMPI POP PUSH1 0x40 MLOAD RETURNDATASIZE PUSH1 0x1F NOT PUSH1 0x1F DUP3 ADD AND DUP3 ADD DUP1 PUSH1 0x40 MSTORE POP DUP2 ADD SWAP1 PUSH2 0x174 SWAP2 SWAP1 PUSH2 0x257 JUMP JUMPDEST PUSH1 0x1 JUMPDEST PUSH2 0x1B6 JUMPI PUSH1 0x40 MLOAD PUSH32 0x8C379A000000000000000000000000000000000000000000000000000000000 DUP2 MSTORE PUSH1 0x4 ADD PUSH2 0x1AD SWAP1 PUSH2 0x3D2 JUMP JUMPDEST PUSH1 0x40 MLOAD DUP1 SWAP2 SUB SWAP1 REVERT JUMPDEST DUP2 PUSH0 PUSH0 PUSH2 0x100 EXP DUP2 SLOAD DUP2 PUSH20 0xFFFFFFFFFFFFFFFFFFFFFFFFFFFFFFFFFFFFFFFF MUL NOT AND SWAP1 DUP4 PUSH20 0xFFFFFFFFFFFFFFFFFFFFFFFFFFFFFFFFFFFFFFFF AND MUL OR SWAP1 SSTORE POP POP POP JUMP JUMPDEST PUSH0 PUSH0 REVERT JUMPDEST PUSH0 PUSH20 0xFFFFFFFFFFFFFFFFFFFFFFFFFFFFFFFFFFFFFFFF DUP3 AND SWAP1 POP SWAP2 SWAP1 POP JUMP JUMPDEST PUSH0 PUSH2 0x226 DUP3 PUSH2 0x1FD JUMP JUMPDEST SWAP1 POP SWAP2 SWAP1 POP JUMP JUMPDEST PUSH2 0x236 DUP2 PUSH2 0x21C JUMP JUMPDEST DUP2 EQ PUSH2 0x240 JUMPI PUSH0 PUSH0 REVERT JUMPDEST POP JUMP JUMPDEST PUSH0 DUP2 MLOAD SWAP1 POP PUSH2 0x251 DUP2 PUSH2 0x22D JUMP JUMPDEST SWAP3 SWAP2 POP POP JUMP JUMPDEST PUSH0 PUSH1 0x20 DUP3 DUP5 SUB SLT ISZERO PUSH2 0x26C JUMPI PUSH2 0x26B PUSH2 0x1F9 JUMP JUMPDEST JUMPDEST PUSH0 PUSH2 0x279 DUP5 DUP3 DUP6 ADD PUSH2 0x243 JUMP JUMPDEST SWAP2 POP POP SWAP3 SWAP2 POP POP JUMP JUMPDEST PUSH0 DUP3 DUP3 MSTORE PUSH1 0x20 DUP3 ADD SWAP1 POP SWAP3 SWAP2 POP POP JUMP JUMPDEST PUSH32 0x4469726563746F72792063616E6E6F74206265207A65726F2061646472657373 PUSH0 DUP3 ADD MSTORE POP JUMP JUMPDEST PUSH0 PUSH2 0x2C6 PUSH1 0x20 DUP4 PUSH2 0x282 JUMP JUMPDEST SWAP2 POP PUSH2 0x2D1 DUP3 PUSH2 0x292 JUMP JUMPDEST PUSH1 0x20 DUP3 ADD SWAP1 POP SWAP2 SWAP1 POP JUMP JUMPDEST PUSH0 PUSH1 0x20 DUP3 ADD SWAP1 POP DUP2 DUP2 SUB PUSH0 DUP4 ADD MSTORE PUSH2 0x2F3 DUP2 PUSH2 0x2BA JUMP JUMPDEST SWAP1 POP SWAP2 SWAP1 POP JUMP JUMPDEST PUSH32 0x4469726563746F7279206D757374206265206120636F6E747261637400000000 PUSH0 DUP3 ADD MSTORE POP JUMP JUMPDEST PUSH0 PUSH2 0x32E PUSH1 0x1C DUP4 PUSH2 0x282 JUMP JUMPDEST SWAP2 POP PUSH2 0x339 DUP3 PUSH2 0x2FA JUMP JUMPDEST PUSH1 0x20 DUP3 ADD SWAP1 POP SWAP2 SWAP1 POP JUMP JUMPDEST PUSH0 PUSH1 0x20 DUP3 ADD SWAP1 POP DUP2 DUP2 SUB PUSH0 DUP4 ADD MSTORE PUSH2 0x35B DUP2 PUSH2 0x322 JUMP JUMPDEST SWAP1 POP SWAP2 SWAP1 POP JUMP JUMPDEST PUSH32 0x4469726563746F7279206164647265737320646F6573206E6F7420696D706C65 PUSH0 DUP3 ADD MSTORE PUSH32 0x6D656E74206F776E657228290000000000000000000000000000000000000000 PUSH1 0x20 DUP3 ADD MSTORE POP JUMP JUMPDEST PUSH0 PUSH2 0x3BC PUSH1 0x2C DUP4 PUSH2 0x282 JUMP JUMPDEST SWAP2 POP PUSH2 0x3C7 DUP3 PUSH2 0x362 JUMP JUMPDEST PUSH1 0x40 DUP3 ADD SWAP1 POP SWAP2 SWAP1 POP JUMP JUMPDEST PUSH0 PUSH1 0x20 DUP3 ADD SWAP1 POP DUP2 DUP2 SUB PUSH0 DUP4 ADD MSTORE PUSH2 0x3E9 DUP2 PUSH2 0x3B0 JUMP JUMPDEST SWAP1 POP SWAP2 SWAP1 POP JUMP JUMPDEST PUSH2 0x2F5C DUP1 PUSH2 0x3FD PUSH0 CODECOPY PUSH0 RETURN INVALID PUSH1 0x80 PUSH1 0x40 MSTORE CALLVALUE DUP1 ISZERO PUSH2 0xF JUMPI PUSH0 PUSH0 REVERT JUMPDEST POP PUSH1 0x4 CALLDATASIZE LT PUSH2 0xB2 JUMPI PUSH0 CALLDATALOAD PUSH1 0xE0 SHR DUP1 PUSH4 0x79DE9E82 GT PUSH2 0x6F JUMPI DUP1 PUSH4 0x79DE9E82 EQ PUSH2 0x1C9 JUMPI DUP1 PUSH4 0x812EFC8E EQ PUSH2 0x1FA JUMPI DUP1 PUSH4 0x8DA5CB5B EQ PUSH2 0x22A JUMPI DUP1 PUSH4 0xBA4C7BE1 EQ PUSH2 0x248 JUMPI DUP1 PUSH4 0xCD8D334F EQ PUSH2 0x264 JUMPI DUP1 PUSH4 0xEE0D96C5 EQ PUSH2 0x296 JUMPI PUSH2 0xB2 JUMP JUMPDEST DUP1 PUSH4 0x705A3E8 EQ PUSH2 0xB6 JUMPI DUP1 PUSH4 0x13290A89 EQ PUSH2 0xE6 JUMPI DUP1 PUSH4 0x179B8F97 EQ PUSH2 0x117 JUMPI DUP1 PUSH4 0x27262618 EQ PUSH2 0x147 JUMPI DUP1 PUSH4 0x399A23DA EQ PUSH2 0x177 JUMPI DUP1 PUSH4 0x658A847A EQ PUSH2 0x1AB JUMPI JUMPDEST PUSH0 PUSH0 REVERT JUMPDEST PUSH2 0xD0 PUSH1 0x4 DUP1 CALLDATASIZE SUB DUP2 ADD SWAP1 PUSH2 0xCB SWAP2 SWAP1 PUSH2 0x1C7F JUMP JUMPDEST PUSH2 0x2C7 JUMP JUMPDEST PUSH1 0x40 MLOAD PUSH2 0xDD SWAP2 SWAP1 PUSH2 0x1CB9 JUMP JUMPDEST PUSH1 0x40 MLOAD DUP1 SWAP2 SUB SWAP1 RETURN JUMPDEST PUSH2 0x100 PUSH1 0x4 DUP1 CALLDATASIZE SUB DUP2 ADD SWAP1 PUSH2 0xFB SWAP2 SWAP1 PUSH2 0x1C7F JUMP JUMPDEST PUSH2 0x371 JUMP JUMPDEST PUSH1 0x40 MLOAD PUSH2 0x10E SWAP3 SWAP2 SWAP1 PUSH2 0x1E78 JUMP JUMPDEST PUSH1 0x40 MLOAD DUP1 SWAP2 SUB SWAP1 RETURN JUMPDEST PUSH2 0x131 PUSH1 0x4 DUP1 CALLDATASIZE SUB DUP2 ADD SWAP1 PUSH2 0x12C SWAP2 SWAP1 PUSH2 0x1C7F JUMP JUMPDEST PUSH2 0x411 JUMP JUMPDEST PUSH1 0x40 MLOAD PUSH2 0x13E SWAP2 SWAP1 PUSH2 0x1F3A JUMP JUMPDEST PUSH1 0x40 MLOAD DUP1 SWAP2 SUB SWAP1 RETURN JUMPDEST PUSH2 0x161 PUSH1 0x4 DUP1 CALLDATASIZE SUB DUP2 ADD SWAP1 PUSH2 0x15C SWAP2 SWAP1 PUSH2 0x2090 JUMP JUMPDEST PUSH2 0x4B5 JUMP JUMPDEST PUSH1 0x40 MLOAD PUSH2 0x16E SWAP2 SWAP1 PUSH2 0x20E6 JUMP JUMPDEST PUSH1 0x40 MLOAD DUP1 SWAP2 SUB SWAP1 RETURN JUMPDEST PUSH2 0x191 PUSH1 0x4 DUP1 CALLDATASIZE SUB DUP2 ADD SWAP1 PUSH2 0x18C SWAP2 SWAP1 PUSH2 0x1C7F JUMP JUMPDEST PUSH2 0x555 JUMP JUMPDEST PUSH1 0x40 MLOAD PUSH2 0x1A2 SWAP6 SWAP5 SWAP4 SWAP3 SWAP2 SWAP1 PUSH2 0x23D8 JUMP JUMPDEST PUSH1 0x40 MLOAD DUP1 SWAP2 SUB SWAP1 RETURN JUMPDEST PUSH2 0x1B3 PUSH2 0x621 JUMP JUMPDEST PUSH1 0x40 MLOAD PUSH2 0x1C0 SWAP2 SWAP1 PUSH2 0x2496 JUMP JUMPDEST PUSH1 0x40 MLOAD DUP1 SWAP2 SUB SWAP1 RETURN JUMPDEST PUSH2 0x1E3 PUSH1 0x4 DUP1 CALLDATASIZE SUB DUP2 ADD SWAP1 PUSH2 0x1DE SWAP2 SWAP1 PUSH2 0x1C7F JUMP JUMPDEST PUSH2 0x645 JUMP JUMPDEST PUSH1 0x40 MLOAD PUSH2 0x1F1 SWAP3 SWAP2 SWAP1 PUSH2 0x24AF JUMP JUMPDEST PUSH1 0x40 MLOAD DUP1 SWAP2 SUB SWAP1 RETURN JUMPDEST PUSH2 0x214 PUSH1 0x4 DUP1 CALLDATASIZE SUB DUP2 ADD SWAP1 PUSH2 0x20F SWAP2 SWAP1 PUSH2 0x1C7F JUMP JUMPDEST PUSH2 0x6EE JUMP JUMPDEST PUSH1 0x40 MLOAD PUSH2 0x221 SWAP2 SWAP1 PUSH2 0x1CB9 JUMP JUMPDEST PUSH1 0x40 MLOAD DUP1 SWAP2 SUB SWAP1 RETURN JUMPDEST PUSH2 0x232 PUSH2 0x78B JUMP JUMPDEST PUSH1 0x40 MLOAD PUSH2 0x23F SWAP2 SWAP1 PUSH2 0x20E6 JUMP JUMPDEST PUSH1 0x40 MLOAD DUP1 SWAP2 SUB SWAP1 RETURN JUMPDEST PUSH2 0x262 PUSH1 0x4 DUP1 CALLDATASIZE SUB DUP2 ADD SWAP1 PUSH2 0x25D SWAP2 SWAP1 PUSH2 0x2500 JUMP JUMPDEST PUSH2 0x81E JUMP JUMPDEST STOP JUMPDEST PUSH2 0x27E PUSH1 0x4 DUP1 CALLDATASIZE SUB DUP2 ADD SWAP1 PUSH2 0x279 SWAP2 SWAP1 PUSH2 0x1C7F JUMP JUMPDEST PUSH2 0x924 JUMP JUMPDEST PUSH1 0x40 MLOAD PUSH2 0x28D SWAP4 SWAP3 SWAP2 SWAP1 PUSH2 0x252B JUMP JUMPDEST PUSH1 0x40 MLOAD DUP1 SWAP2 SUB SWAP1 RETURN JUMPDEST PUSH2 0x2B0 PUSH1 0x4 DUP1 CALLDATASIZE SUB DUP2 ADD SWAP1 PUSH2 0x2AB SWAP2 SWAP1 PUSH2 0x275F JUMP JUMPDEST PUSH2 0x9C9 JUMP JUMPDEST PUSH1 0x40 MLOAD PUSH2 0x2BE SWAP3 SWAP2 SWAP1 PUSH2 0x1E78 JUMP JUMPDEST PUSH1 0x40 MLOAD DUP1 SWAP2 SUB SWAP1 RETURN JUMPDEST PUSH0 PUSH0 PUSH0 PUSH2 0x2D2 PUSH2 0x9E1 JUMP JUMPDEST PUSH20 0xFFFFFFFFFFFFFFFFFFFFFFFFFFFFFFFFFFFFFFFF AND PUSH4 0x3088F069 DUP6 PUSH1 0x40 MLOAD DUP3 PUSH4 0xFFFFFFFF AND PUSH1 0xE0 SHL DUP2 MSTORE PUSH1 0x4 ADD PUSH2 0x30A SWAP2 SWAP1 PUSH2 0x1CB9 JUMP JUMPDEST PUSH0 PUSH1 0x40 MLOAD DUP1 DUP4 SUB DUP2 DUP7 GAS STATICCALL ISZERO DUP1 ISZERO PUSH2 0x324 JUMPI RETURNDATASIZE PUSH0 PUSH0 RETURNDATACOPY RETURNDATASIZE PUSH0 REVERT JUMPDEST POP POP POP POP PUSH1 0x40 MLOAD RETURNDATASIZE PUSH0 DUP3 RETURNDATACOPY RETURNDATASIZE PUSH1 0x1F NOT PUSH1 0x1F DUP3 ADD AND DUP3 ADD DUP1 PUSH1 0x40 MSTORE POP DUP2 ADD SWAP1 PUSH2 0x34C SWAP2 SWAP1 PUSH2 0x29E6 JUMP JUMPDEST SWAP2 POP SWAP2 POP PUSH0 PUSH2 0x35C DUP6 DUP5 DUP5 PUSH2 0xA25 JUMP JUMPDEST SWAP1 POP PUSH2 0x367 DUP2 PUSH2 0xBF1 JUMP JUMPDEST SWAP4 POP POP POP POP SWAP2 SWAP1 POP JUMP JUMPDEST PUSH1 0x60 PUSH0 PUSH0 PUSH0 PUSH2 0x37E PUSH2 0x9E1 JUMP JUMPDEST PUSH20 0xFFFFFFFFFFFFFFFFFFFFFFFFFFFFFFFFFFFFFFFF AND PUSH4 0x3088F069 DUP7 PUSH1 0x40 MLOAD DUP3 PUSH4 0xFFFFFFFF AND PUSH1 0xE0 SHL DUP2 MSTORE PUSH1 0x4 ADD PUSH2 0x3B6 SWAP2 SWAP1 PUSH2 0x1CB9 JUMP JUMPDEST PUSH0 PUSH1 0x40 MLOAD DUP1 DUP4 SUB DUP2 DUP7 GAS STATICCALL ISZERO DUP1 ISZERO PUSH2 0x3D0 JUMPI RETURNDATASIZE PUSH0 PUSH0 RETURNDATACOPY RETURNDATASIZE PUSH0 REVERT JUMPDEST POP POP POP POP PUSH1 0x40 MLOAD RETURNDATASIZE PUSH0 DUP3 RETURNDATACOPY RETURNDATASIZE PUSH1 0x1F NOT PUSH1 0x1F DUP3 ADD AND DUP3 ADD DUP1 PUSH1 0x40 MSTORE POP DUP2 ADD SWAP1 PUSH2 0x3F8 SWAP2 SWAP1 PUSH2 0x29E6 JUMP JUMPDEST SWAP2 POP SWAP2 POP PUSH2 0x406 DUP3 DUP3 PUSH2 0xCA4 JUMP JUMPDEST SWAP4 POP SWAP4 POP POP POP SWAP2 POP SWAP2 JUMP JUMPDEST PUSH2 0x419 PUSH2 0x1B1C JUMP JUMPDEST PUSH0 PUSH0 PUSH2 0x423 PUSH2 0x9E1 JUMP JUMPDEST PUSH20 0xFFFFFFFFFFFFFFFFFFFFFFFFFFFFFFFFFFFFFFFF AND PUSH4 0x3088F069 DUP6 PUSH1 0x40 MLOAD DUP3 PUSH4 0xFFFFFFFF AND PUSH1 0xE0 SHL DUP2 MSTORE PUSH1 0x4 ADD PUSH2 0x45B SWAP2 SWAP1 PUSH2 0x1CB9 JUMP JUMPDEST PUSH0 PUSH1 0x40 MLOAD DUP1 DUP4 SUB DUP2 DUP7 GAS STATICCALL ISZERO DUP1 ISZERO PUSH2 0x475 JUMPI RETURNDATASIZE PUSH0 PUSH0 RETURNDATACOPY RETURNDATASIZE PUSH0 REVERT JUMPDEST POP POP POP POP PUSH1 0x40 MLOAD RETURNDATASIZE PUSH0 DUP3 RETURNDATACOPY RETURNDATASIZE PUSH1 0x1F NOT PUSH1 0x1F DUP3 ADD AND DUP3 ADD DUP1 PUSH1 0x40 MSTORE POP DUP2 ADD SWAP1 PUSH2 0x49D SWAP2 SWAP1 PUSH2 0x29E6 JUMP JUMPDEST SWAP2 POP SWAP2 POP PUSH2 0x4AC DUP5 DUP4 DUP4 PUSH2 0xFDE JUMP JUMPDEST SWAP3 POP POP POP SWAP2 SWAP1 POP JUMP JUMPDEST PUSH0 PUSH0 PUSH0 SWAP1 SLOAD SWAP1 PUSH2 0x100 EXP SWAP1 DIV PUSH20 0xFFFFFFFFFFFFFFFFFFFFFFFFFFFFFFFFFFFFFFFF AND PUSH20 0xFFFFFFFFFFFFFFFFFFFFFFFFFFFFFFFFFFFFFFFF AND PUSH4 0x27262618 DUP4 PUSH1 0x40 MLOAD DUP3 PUSH4 0xFFFFFFFF AND PUSH1 0xE0 SHL DUP2 MSTORE PUSH1 0x4 ADD PUSH2 0x50F SWAP2 SWAP1 PUSH2 0x2A88 JUMP JUMPDEST PUSH1 0x20 PUSH1 0x40 MLOAD DUP1 DUP4 SUB DUP2 DUP7 GAS STATICCALL ISZERO DUP1 ISZERO PUSH2 0x52A JUMPI RETURNDATASIZE PUSH0 PUSH0 RETURNDATACOPY RETURNDATASIZE PUSH0 REVERT JUMPDEST POP POP POP POP PUSH1 0x40 MLOAD RETURNDATASIZE PUSH1 0x1F NOT PUSH1 0x1F DUP3 ADD AND DUP3 ADD DUP1 PUSH1 0x40 MSTORE POP DUP2 ADD SWAP1 PUSH2 0x54E SWAP2 SWAP1 PUSH2 0x2AA8 JUMP JUMPDEST SWAP1 POP SWAP2 SWAP1 POP JUMP JUMPDEST PUSH2 0x55D PUSH2 0x1B5B JUMP JUMPDEST PUSH2 0x565 PUSH2 0x1B1C JUMP JUMPDEST PUSH1 0x60 PUSH0 PUSH0 PUSH0 PUSH2 0x572 PUSH2 0x9E1 JUMP JUMPDEST PUSH20 0xFFFFFFFFFFFFFFFFFFFFFFFFFFFFFFFFFFFFFFFF AND PUSH4 0x3088F069 DUP9 PUSH1 0x40 MLOAD DUP3 PUSH4 0xFFFFFFFF AND PUSH1 0xE0 SHL DUP2 MSTORE PUSH1 0x4 ADD PUSH2 0x5AA SWAP2 SWAP1 PUSH2 0x1CB9 JUMP JUMPDEST PUSH0 PUSH1 0x40 MLOAD DUP1 DUP4 SUB DUP2 DUP7 GAS STATICCALL ISZERO DUP1 ISZERO PUSH2 0x5C4 JUMPI RETURNDATASIZE PUSH0 PUSH0 RETURNDATACOPY RETURNDATASIZE PUSH0 REVERT JUMPDEST POP POP POP POP PUSH1 0x40 MLOAD RETURNDATASIZE PUSH0 DUP3 RETURNDATACOPY RETURNDATASIZE PUSH1 0x1F NOT PUSH1 0x1F DUP3 ADD AND DUP3 ADD DUP1 PUSH1 0x40 MSTORE POP DUP2 ADD SWAP1 PUSH2 0x5EC SWAP2 SWAP1 PUSH2 0x29E6 JUMP JUMPDEST DUP1 SWAP3 POP DUP2 SWAP8 POP POP POP PUSH2 0x5FF DUP8 DUP8 DUP4 PUSH2 0xFDE JUMP JUMPDEST SWAP5 POP PUSH2 0x60B DUP7 DUP3 PUSH2 0x1168 JUMP JUMPDEST DUP1 SWAP5 POP DUP2 SWAP6 POP DUP3 SWAP7 POP POP POP POP POP SWAP2 SWAP4 SWAP6 SWAP1 SWAP3 SWAP5 POP JUMP JUMPDEST PUSH0 PUSH0 SWAP1 SLOAD SWAP1 PUSH2 0x100 EXP SWAP1 DIV PUSH20 0xFFFFFFFFFFFFFFFFFFFFFFFFFFFFFFFFFFFFFFFF AND DUP2 JUMP JUMPDEST PUSH0 PUSH0 PUSH0 PUSH0 PUSH2 0x651 PUSH2 0x9E1 JUMP JUMPDEST PUSH20 0xFFFFFFFFFFFFFFFFFFFFFFFFFFFFFFFFFFFFFFFF AND PUSH4 0x3088F069 DUP7 PUSH1 0x40 MLOAD DUP3 PUSH4 0xFFFFFFFF AND PUSH1 0xE0 SHL DUP2 MSTORE PUSH1 0x4 ADD PUSH2 0x689 SWAP2 SWAP1 PUSH2 0x1CB9 JUMP JUMPDEST PUSH0 PUSH1 0x40 MLOAD DUP1 DUP4 SUB DUP2 DUP7 GAS STATICCALL ISZERO DUP1 ISZERO PUSH2 0x6A3 JUMPI RETURNDATASIZE PUSH0 PUSH0 RETURNDATACOPY RETURNDATASIZE PUSH0 REVERT JUMPDEST POP POP POP POP PUSH1 0x40 MLOAD RETURNDATASIZE PUSH0 DUP3 RETURNDATACOPY RETURNDATASIZE PUSH1 0x1F NOT PUSH1 0x1F DUP3 ADD AND DUP3 ADD DUP1 PUSH1 0x40 MSTORE POP DUP2 ADD SWAP1 PUSH2 0x6CB SWAP2 SWAP1 PUSH2 0x29E6 JUMP JUMPDEST SWAP2 POP SWAP2 POP PUSH2 0x6DA DUP6 DUP4 DUP4 PUSH2 0xA25 JUMP JUMPDEST SWAP4 POP PUSH2 0x6E5 DUP5 PUSH2 0xBF1 JUMP JUMPDEST SWAP3 POP POP POP SWAP2 POP SWAP2 JUMP JUMPDEST PUSH0 PUSH0 PUSH0 PUSH2 0x6F9 PUSH2 0x9E1 JUMP JUMPDEST PUSH20 0xFFFFFFFFFFFFFFFFFFFFFFFFFFFFFFFFFFFFFFFF AND PUSH4 0x3088F069 DUP6 PUSH1 0x40 MLOAD DUP3 PUSH4 0xFFFFFFFF AND PUSH1 0xE0 SHL DUP2 MSTORE PUSH1 0x4 ADD PUSH2 0x731 SWAP2 SWAP1 PUSH2 0x1CB9 JUMP JUMPDEST PUSH0 PUSH1 0x40 MLOAD DUP1 DUP4 SUB DUP2 DUP7 GAS STATICCALL ISZERO DUP1 ISZERO PUSH2 0x74B JUMPI RETURNDATASIZE PUSH0 PUSH0 RETURNDATACOPY RETURNDATASIZE PUSH0 REVERT JUMPDEST POP POP POP POP PUSH1 0x40 MLOAD RETURNDATASIZE PUSH0 DUP3 RETURNDATACOPY RETURNDATASIZE PUSH1 0x1F NOT PUSH1 0x1F DUP3 ADD AND DUP3 ADD DUP1 PUSH1 0x40 MSTORE POP DUP2 ADD SWAP1 PUSH2 0x773 SWAP2 SWAP1 PUSH2 0x29E6 JUMP JUMPDEST SWAP2 POP SWAP2 POP PUSH2 0x782 DUP5 DUP4 DUP4 PUSH2 0xA25 JUMP JUMPDEST SWAP3 POP POP POP SWAP2 SWAP1 POP JUMP JUMPDEST PUSH0 PUSH0 PUSH0 SWAP1 SLOAD SWAP1 PUSH2 0x100 EXP SWAP1 DIV PUSH20 0xFFFFFFFFFFFFFFFFFFFFFFFFFFFFFFFFFFFFFFFF AND PUSH20 0xFFFFFFFFFFFFFFFFFFFFFFFFFFFFFFFFFFFFFFFF AND PUSH4 0x8DA5CB5B PUSH1 0x40 MLOAD DUP2 PUSH4 0xFFFFFFFF AND PUSH1 0xE0 SHL DUP2 MSTORE PUSH1 0x4 ADD PUSH1 0x20 PUSH1 0x40 MLOAD DUP1 DUP4 SUB DUP2 DUP7 GAS STATICCALL ISZERO DUP1 ISZERO PUSH2 0x7F5 JUMPI RETURNDATASIZE PUSH0 PUSH0 RETURNDATACOPY RETURNDATASIZE PUSH0 REVERT JUMPDEST POP POP POP POP PUSH1 0x40 MLOAD RETURNDATASIZE PUSH1 0x1F NOT PUSH1 0x1F DUP3 ADD AND DUP3 ADD DUP1 PUSH1 0x40 MSTORE POP DUP2 ADD SWAP1 PUSH2 0x819 SWAP2 SWAP1 PUSH2 0x2AA8 JUMP JUMPDEST SWAP1 POP SWAP1 JUMP JUMPDEST PUSH0 PUSH0 SWAP1 SLOAD SWAP1 PUSH2 0x100 EXP SWAP1 DIV PUSH20 0xFFFFFFFFFFFFFFFFFFFFFFFFFFFFFFFFFFFFFFFF AND PUSH20 0xFFFFFFFFFFFFFFFFFFFFFFFFFFFFFFFFFFFFFFFF AND PUSH4 0x8DA5CB5B PUSH1 0x40 MLOAD DUP2 PUSH4 0xFFFFFFFF AND PUSH1 0xE0 SHL DUP2 MSTORE PUSH1 0x4 ADD PUSH1 0x20 PUSH1 0x40 MLOAD DUP1 DUP4 SUB DUP2 DUP7 GAS STATICCALL ISZERO DUP1 ISZERO PUSH2 0x887 JUMPI RETURNDATASIZE PUSH0 PUSH0 RETURNDATACOPY RETURNDATASIZE PUSH0 REVERT JUMPDEST POP POP POP POP PUSH1 0x40 MLOAD RETURNDATASIZE PUSH1 0x1F NOT PUSH1 0x1F DUP3 ADD AND DUP3 ADD DUP1 PUSH1 0x40 MSTORE POP DUP2 ADD SWAP1 PUSH2 0x8AB SWAP2 SWAP1 PUSH2 0x2AA8 JUMP JUMPDEST PUSH20 0xFFFFFFFFFFFFFFFFFFFFFFFFFFFFFFFFFFFFFFFF AND CALLER PUSH20 0xFFFFFFFFFFFFFFFFFFFFFFFFFFFFFFFFFFFFFFFF AND EQ PUSH2 0x918 JUMPI PUSH1 0x40 MLOAD PUSH32 0x8C379A000000000000000000000000000000000000000000000000000000000 DUP2 MSTORE PUSH1 0x4 ADD PUSH2 0x90F SWAP1 PUSH2 0x2B1D JUMP JUMPDEST PUSH1 0x40 MLOAD DUP1 SWAP2 SUB SWAP1 REVERT JUMPDEST PUSH2 0x921 DUP2 PUSH2 0x137C JUMP JUMPDEST POP JUMP JUMPDEST PUSH1 0x60 PUSH0 PUSH0 PUSH0 PUSH0 PUSH2 0x932 PUSH2 0x9E1 JUMP JUMPDEST PUSH20 0xFFFFFFFFFFFFFFFFFFFFFFFFFFFFFFFFFFFFFFFF AND PUSH4 0x3088F069 DUP8 PUSH1 0x40 MLOAD DUP3 PUSH4 0xFFFFFFFF AND PUSH1 0xE0 SHL DUP2 MSTORE PUSH1 0x4 ADD PUSH2 0x96A SWAP2 SWAP1 PUSH2 0x1CB9 JUMP JUMPDEST PUSH0 PUSH1 0x40 MLOAD DUP1 DUP4 SUB DUP2 DUP7 GAS STATICCALL ISZERO DUP1 ISZERO PUSH2 0x984 JUMPI RETURNDATASIZE PUSH0 PUSH0 RETURNDATACOPY RETURNDATASIZE PUSH0 REVERT JUMPDEST POP POP POP POP PUSH1 0x40 MLOAD RETURNDATASIZE PUSH0 DUP3 RETURNDATACOPY RETURNDATASIZE PUSH1 0x1F NOT PUSH1 0x1F DUP3 ADD AND DUP3 ADD DUP1 PUSH1 0x40 MSTORE POP DUP2 ADD SWAP1 PUSH2 0x9AC SWAP2 SWAP1 PUSH2 0x29E6 JUMP JUMPDEST SWAP2 POP SWAP2 POP PUSH2 0x9BA DUP3 DUP3 PUSH2 0x1168 JUMP JUMPDEST SWAP5 POP SWAP5 POP SWAP5 POP POP POP SWAP2 SWAP4 SWAP1 SWAP3 POP JUMP JUMPDEST PUSH1 0x60 PUSH0 PUSH2 0x9D6 DUP5 DUP5 PUSH2 0xCA4 JUMP JUMPDEST SWAP2 POP SWAP2 POP SWAP3 POP SWAP3 SWAP1 POP JUMP JUMPDEST PUSH0 PUSH2 0xA20 PUSH1 0x40 MLOAD DUP1 PUSH1 0x40 ADD PUSH1 0x40 MSTORE DUP1 PUSH1 0xB DUP2 MSTORE PUSH1 0x20 ADD PUSH32 0x6574662D666163746F7279000000000000000000000000000000000000000000 DUP2 MSTORE POP PUSH2 0x4B5 JUMP JUMPDEST SWAP1 POP SWAP1 JUMP JUMPDEST PUSH0 PUSH0 PUSH2 0xA2F PUSH2 0x9E1 JUMP JUMPDEST PUSH20 0xFFFFFFFFFFFFFFFFFFFFFFFFFFFFFFFFFFFFFFFF AND PUSH4 0xF2018A1F DUP7 PUSH1 0x40 MLOAD DUP3 PUSH4 0xFFFFFFFF AND PUSH1 0xE0 SHL DUP2 MSTORE PUSH1 0x4 ADD PUSH2 0xA67 SWAP2 SWAP1 PUSH2 0x1CB9 JUMP JUMPDEST PUSH1 0x20 PUSH1 0x40 MLOAD DUP1 DUP4 SUB DUP2 DUP7 GAS STATICCALL ISZERO DUP1 ISZERO PUSH2 0xA82 JUMPI RETURNDATASIZE PUSH0 PUSH0 RETURNDATACOPY RETURNDATASIZE PUSH0 REVERT JUMPDEST POP POP POP POP PUSH1 0x40 MLOAD RETURNDATASIZE PUSH1 0x1F NOT PUSH1 0x1F DUP3 ADD AND DUP3 ADD DUP1 PUSH1 0x40 MSTORE POP DUP2 ADD SWAP1 PUSH2 0xAA6 SWAP2 SWAP1 PUSH2 0x2AA8 JUMP JUMPDEST SWAP1 POP PUSH0 DUP2 PUSH20 0xFFFFFFFFFFFFFFFFFFFFFFFFFFFFFFFFFFFFFFFF AND PUSH4 0x18160DDD PUSH1 0x40 MLOAD DUP2 PUSH4 0xFFFFFFFF AND PUSH1 0xE0 SHL DUP2 MSTORE PUSH1 0x4 ADD PUSH1 0x20 PUSH1 0x40 MLOAD DUP1 DUP4 SUB DUP2 DUP7 GAS STATICCALL ISZERO DUP1 ISZERO PUSH2 0xAF2 JUMPI RETURNDATASIZE PUSH0 PUSH0 RETURNDATACOPY RETURNDATASIZE PUSH0 REVERT JUMPDEST POP POP POP POP PUSH1 0x40 MLOAD RETURNDATASIZE PUSH1 0x1F NOT PUSH1 0x1F DUP3 ADD AND DUP3 ADD DUP1 PUSH1 0x40 MSTORE POP DUP2 ADD SWAP1 PUSH2 0xB16 SWAP2 SWAP1 PUSH2 0x2B4F JUMP JUMPDEST SWAP1 POP PUSH0 DUP3 PUSH20 0xFFFFFFFFFFFFFFFFFFFFFFFFFFFFFFFFFFFFFFFF AND PUSH4 0x313CE567 PUSH1 0x40 MLOAD DUP2 PUSH4 0xFFFFFFFF AND PUSH1 0xE0 SHL DUP2 MSTORE PUSH1 0x4 ADD PUSH1 0x20 PUSH1 0x40 MLOAD DUP1 DUP4 SUB DUP2 DUP7 GAS STATICCALL ISZERO DUP1 ISZERO PUSH2 0xB62 JUMPI RETURNDATASIZE PUSH0 PUSH0 RETURNDATACOPY RETURNDATASIZE PUSH0 REVERT JUMPDEST POP POP POP POP PUSH1 0x40 MLOAD RETURNDATASIZE PUSH1 0x1F NOT PUSH1 0x1F DUP3 ADD AND DUP3 ADD DUP1 PUSH1 0x40 MSTORE POP DUP2 ADD SWAP1 PUSH2 0xB86 SWAP2 SWAP1 PUSH2 0x2BA4 JUMP JUMPDEST SWAP1 POP PUSH0 DUP3 SUB PUSH2 0xBA2 JUMPI PUSH2 0xB98 DUP7 PUSH2 0x152D JUMP JUMPDEST SWAP4 POP POP POP POP PUSH2 0xBEA JUMP JUMPDEST PUSH0 PUSH2 0xBAD DUP4 DUP4 PUSH2 0x1662 JUMP JUMPDEST SWAP1 POP PUSH0 DUP2 SUB PUSH2 0xBC2 JUMPI PUSH0 SWAP5 POP POP POP POP POP PUSH2 0xBEA JUMP JUMPDEST PUSH0 PUSH2 0xBCD DUP9 DUP9 PUSH2 0x16CD JUMP JUMPDEST SWAP1 POP PUSH2 0xBE2 DUP2 PUSH8 0xDE0B6B3A7640000 DUP5 PUSH2 0x18C7 JUMP JUMPDEST SWAP6 POP POP POP POP POP POP JUMPDEST SWAP4 SWAP3 POP POP POP JUMP JUMPDEST PUSH0 PUSH0 DUP3 SUB PUSH2 0xC01 JUMPI PUSH0 SWAP1 POP PUSH2 0xC9F JUMP JUMPDEST PUSH0 PUSH2 0xC0A PUSH2 0x19D1 JUMP JUMPDEST PUSH20 0xFFFFFFFFFFFFFFFFFFFFFFFFFFFFFFFFFFFFFFFF AND PUSH4 0x6855E939 PUSH1 0x40 MLOAD DUP2 PUSH4 0xFFFFFFFF AND PUSH1 0xE0 SHL DUP2 MSTORE PUSH1 0x4 ADD PUSH1 0x20 PUSH1 0x40 MLOAD DUP1 DUP4 SUB DUP2 DUP7 GAS STATICCALL ISZERO DUP1 ISZERO PUSH2 0xC52 JUMPI RETURNDATASIZE PUSH0 PUSH0 RETURNDATACOPY RETURNDATASIZE PUSH0 REVERT JUMPDEST POP POP POP POP PUSH1 0x40 MLOAD RETURNDATASIZE PUSH1 0x1F NOT PUSH1 0x1F DUP3 ADD AND DUP3 ADD DUP1 PUSH1 0x40 MSTORE POP DUP2 ADD SWAP1 PUSH2 0xC76 SWAP2 SWAP1 PUSH2 0x2B4F JUMP JUMPDEST SWAP1 POP PUSH0 DUP2 SUB PUSH2 0xC88 JUMPI PUSH0 SWAP2 POP POP PUSH2 0xC9F JUMP JUMPDEST PUSH2 0xC9B DUP4 DUP3 PUSH8 0xDE0B6B3A7640000 PUSH2 0x18C7 JUMP JUMPDEST SWAP2 POP POP JUMPDEST SWAP2 SWAP1 POP JUMP JUMPDEST PUSH1 0x60 PUSH0 PUSH0 DUP5 PUSH1 0x40 ADD MLOAD MLOAD SWAP1 POP DUP1 PUSH8 0xFFFFFFFFFFFFFFFF DUP2 GT ISZERO PUSH2 0xCCA JUMPI PUSH2 0xCC9 PUSH2 0x1F6C JUMP JUMPDEST JUMPDEST PUSH1 0x40 MLOAD SWAP1 DUP1 DUP3 MSTORE DUP1 PUSH1 0x20 MUL PUSH1 0x20 ADD DUP3 ADD PUSH1 0x40 MSTORE DUP1 ISZERO PUSH2 0xD03 JUMPI DUP2 PUSH1 0x20 ADD JUMPDEST PUSH2 0xCF0 PUSH2 0x1B7C JUMP JUMPDEST DUP2 MSTORE PUSH1 0x20 ADD SWAP1 PUSH1 0x1 SWAP1 SUB SWAP1 DUP2 PUSH2 0xCE8 JUMPI SWAP1 POP JUMPDEST POP SWAP3 POP PUSH0 PUSH2 0xD0F PUSH2 0x19D1 JUMP JUMPDEST SWAP1 POP PUSH0 PUSH0 SWAP1 POP JUMPDEST DUP3 DUP2 LT ISZERO PUSH2 0xF52 JUMPI PUSH0 DUP8 PUSH1 0x40 ADD MLOAD DUP3 DUP2 MLOAD DUP2 LT PUSH2 0xD36 JUMPI PUSH2 0xD35 PUSH2 0x2BCF JUMP JUMPDEST JUMPDEST PUSH1 0x20 MUL PUSH1 0x20 ADD ADD MLOAD PUSH0 ADD MLOAD SWAP1 POP PUSH0 DUP2 PUSH20 0xFFFFFFFFFFFFFFFFFFFFFFFFFFFFFFFFFFFFFFFF AND PUSH4 0x313CE567 PUSH1 0x40 MLOAD DUP2 PUSH4 0xFFFFFFFF AND PUSH1 0xE0 SHL DUP2 MSTORE PUSH1 0x4 ADD PUSH1 0x20 PUSH1 0x40 MLOAD DUP1 DUP4 SUB DUP2 DUP7 GAS STATICCALL ISZERO DUP1 ISZERO PUSH2 0xD8D JUMPI RETURNDATASIZE PUSH0 PUSH0 RETURNDATACOPY RETURNDATASIZE PUSH0 REVERT JUMPDEST POP POP POP POP PUSH1 0x40 MLOAD RETURNDATASIZE PUSH1 0x1F NOT PUSH1 0x1F DUP3 ADD AND DUP3 ADD DUP1 PUSH1 0x40 MSTORE POP DUP2 ADD SWAP1 PUSH2 0xDB1 SWAP2 SWAP1 PUSH2 0x2BA4 JUMP JUMPDEST SWAP1 POP PUSH0 DUP3 PUSH20 0xFFFFFFFFFFFFFFFFFFFFFFFFFFFFFFFFFFFFFFFF AND PUSH4 0x70A08231 DUP11 PUSH1 0x40 MLOAD DUP3 PUSH4 0xFFFFFFFF AND PUSH1 0xE0 SHL DUP2 MSTORE PUSH1 0x4 ADD PUSH2 0xDED SWAP2 SWAP1 PUSH2 0x20E6 JUMP JUMPDEST PUSH1 0x20 PUSH1 0x40 MLOAD DUP1 DUP4 SUB DUP2 DUP7 GAS STATICCALL ISZERO DUP1 ISZERO PUSH2 0xE08 JUMPI RETURNDATASIZE PUSH0 PUSH0 RETURNDATACOPY RETURNDATASIZE PUSH0 REVERT JUMPDEST POP POP POP POP PUSH1 0x40 MLOAD RETURNDATASIZE PUSH1 0x1F NOT PUSH1 0x1F DUP3 ADD AND DUP3 ADD DUP1 PUSH1 0x40 MSTORE POP DUP2 ADD SWAP1 PUSH2 0xE2C SWAP2 SWAP1 PUSH2 0x2B4F JUMP JUMPDEST SWAP1 POP PUSH0 DUP6 PUSH20 0xFFFFFFFFFFFFFFFFFFFFFFFFFFFFFFFFFFFFFFFF AND PUSH4 0x7B49B49D DUP6 PUSH1 0x40 MLOAD DUP3 PUSH4 0xFFFFFFFF AND PUSH1 0xE0 SHL DUP2 MSTORE PUSH1 0x4 ADD PUSH2 0xE68 SWAP2 SWAP1 PUSH2 0x20E6 JUMP JUMPDEST PUSH1 0x20 PUSH1 0x40 MLOAD DUP1 DUP4 SUB DUP2 DUP7 GAS STATICCALL ISZERO DUP1 ISZERO PUSH2 0xE83 JUMPI RETURNDATASIZE PUSH0 PUSH0 RETURNDATACOPY RETURNDATASIZE PUSH0 REVERT JUMPDEST POP POP POP POP PUSH1 0x40 MLOAD RETURNDATASIZE PUSH1 0x1F NOT PUSH1 0x1F DUP3 ADD AND DUP3 ADD DUP1 PUSH1 0x40 MSTORE POP DUP2 ADD SWAP1 PUSH2 0xEA7 SWAP2 SWAP1 PUSH2 0x2B4F JUMP JUMPDEST SWAP1 POP PUSH0 PUSH0 DUP4 EQ DUP1 PUSH2 0xEB7 JUMPI POP PUSH0 DUP3 EQ JUMPDEST PUSH2 0xED1 JUMPI PUSH2 0xECC DUP4 DUP4 DUP7 PUSH1 0xFF AND PUSH1 0xA EXP PUSH2 0x18C7 JUMP JUMPDEST PUSH2 0xED3 JUMP JUMPDEST PUSH0 JUMPDEST SWAP1 POP PUSH1 0x40 MLOAD DUP1 PUSH1 0xC0 ADD PUSH1 0x40 MSTORE DUP1 DUP7 PUSH20 0xFFFFFFFFFFFFFFFFFFFFFFFFFFFFFFFFFFFFFFFF AND DUP2 MSTORE PUSH1 0x20 ADD DUP6 PUSH1 0xFF AND DUP2 MSTORE PUSH1 0x20 ADD PUSH0 PUSH2 0xFFFF AND DUP2 MSTORE PUSH1 0x20 ADD DUP5 DUP2 MSTORE PUSH1 0x20 ADD DUP4 DUP2 MSTORE PUSH1 0x20 ADD DUP3 DUP2 MSTORE POP DUP11 DUP8 DUP2 MLOAD DUP2 LT PUSH2 0xF32 JUMPI PUSH2 0xF31 PUSH2 0x2BCF JUMP JUMPDEST JUMPDEST PUSH1 0x20 MUL PUSH1 0x20 ADD ADD DUP2 SWAP1 MSTORE POP DUP1 DUP10 ADD SWAP9 POP POP POP POP POP POP DUP1 PUSH1 0x1 ADD SWAP1 POP PUSH2 0xD16 JUMP JUMPDEST POP PUSH0 DUP4 GT ISZERO PUSH2 0xFD5 JUMPI PUSH0 PUSH0 SWAP1 POP JUMPDEST DUP3 DUP2 LT ISZERO PUSH2 0xFD3 JUMPI DUP4 PUSH2 0x2710 DUP7 DUP4 DUP2 MLOAD DUP2 LT PUSH2 0xF7F JUMPI PUSH2 0xF7E PUSH2 0x2BCF JUMP JUMPDEST JUMPDEST PUSH1 0x20 MUL PUSH1 0x20 ADD ADD MLOAD PUSH1 0xA0 ADD MLOAD MUL DUP2 PUSH2 0xF9A JUMPI PUSH2 0xF99 PUSH2 0x2BFC JUMP JUMPDEST JUMPDEST DIV DUP6 DUP3 DUP2 MLOAD DUP2 LT PUSH2 0xFAE JUMPI PUSH2 0xFAD PUSH2 0x2BCF JUMP JUMPDEST JUMPDEST PUSH1 0x20 MUL PUSH1 0x20 ADD ADD MLOAD PUSH1 0x40 ADD SWAP1 PUSH2 0xFFFF AND SWAP1 DUP2 PUSH2 0xFFFF AND DUP2 MSTORE POP POP DUP1 PUSH1 0x1 ADD SWAP1 POP PUSH2 0xF60 JUMP JUMPDEST POP JUMPDEST POP POP SWAP3 POP SWAP3 SWAP1 POP JUMP JUMPDEST PUSH2 0xFE6 PUSH2 0x1B1C JUMP JUMPDEST PUSH0 PUSH2 0xFEF PUSH2 0x19D1 JUMP JUMPDEST SWAP1 POP PUSH0 PUSH2 0xFFD DUP7 DUP7 DUP7 PUSH2 0xA25 JUMP JUMPDEST SWAP1 POP PUSH0 PUSH2 0x1009 DUP3 PUSH2 0xBF1 JUMP JUMPDEST SWAP1 POP PUSH1 0x40 MLOAD DUP1 PUSH1 0x40 ADD PUSH1 0x40 MSTORE DUP1 DUP4 DUP2 MSTORE PUSH1 0x20 ADD DUP3 DUP2 MSTORE POP DUP5 PUSH0 ADD DUP2 SWAP1 MSTORE POP PUSH0 PUSH0 PUSH2 0x1031 PUSH2 0x9E1 JUMP JUMPDEST PUSH20 0xFFFFFFFFFFFFFFFFFFFFFFFFFFFFFFFFFFFFFFFF AND PUSH4 0xC45F0607 DUP11 PUSH1 0x40 MLOAD DUP3 PUSH4 0xFFFFFFFF AND PUSH1 0xE0 SHL DUP2 MSTORE PUSH1 0x4 ADD PUSH2 0x1069 SWAP2 SWAP1 PUSH2 0x1CB9 JUMP JUMPDEST PUSH1 0x40 DUP1 MLOAD DUP1 DUP4 SUB DUP2 DUP7 GAS STATICCALL ISZERO DUP1 ISZERO PUSH2 0x1083 JUMPI RETURNDATASIZE PUSH0 PUSH0 RETURNDATACOPY RETURNDATASIZE PUSH0 REVERT JUMPDEST POP POP POP POP PUSH1 0x40 MLOAD RETURNDATASIZE PUSH1 0x1F NOT PUSH1 0x1F DUP3 ADD AND DUP3 ADD DUP1 PUSH1 0x40 MSTORE POP DUP2 ADD SWAP1 PUSH2 0x10A7 SWAP2 SWAP1 PUSH2 0x2C29 JUMP JUMPDEST SWAP2 POP SWAP2 POP PUSH1 0x40 MLOAD DUP1 PUSH1 0x40 ADD PUSH1 0x40 MSTORE DUP1 DUP4 DUP2 MSTORE PUSH1 0x20 ADD DUP3 DUP2 MSTORE POP DUP7 PUSH1 0x20 ADD DUP2 SWAP1 MSTORE POP PUSH0 PUSH2 0x10D3 DUP10 DUP10 PUSH2 0x16CD JUMP JUMPDEST SWAP1 POP PUSH0 PUSH2 0x10DF DUP3 PUSH2 0xBF1 JUMP JUMPDEST SWAP1 POP PUSH1 0x40 MLOAD DUP1 PUSH1 0x40 ADD PUSH1 0x40 MSTORE DUP1 DUP4 DUP2 MSTORE PUSH1 0x20 ADD DUP3 DUP2 MSTORE POP DUP9 PUSH1 0x40 ADD DUP2 SWAP1 MSTORE POP PUSH2 0x1123 DUP11 DUP9 PUSH20 0xFFFFFFFFFFFFFFFFFFFFFFFFFFFFFFFFFFFFFFFF AND PUSH4 0x57B6C133 PUSH2 0x1A15 JUMP JUMPDEST DUP9 PUSH1 0x60 ADD DUP2 DUP2 MSTORE POP POP PUSH2 0x1151 DUP11 DUP9 PUSH20 0xFFFFFFFFFFFFFFFFFFFFFFFFFFFFFFFFFFFFFFFF AND PUSH4 0x69A2E17D PUSH2 0x1A15 JUMP JUMPDEST DUP9 PUSH1 0x80 ADD DUP2 DUP2 MSTORE POP POP POP POP POP POP POP POP POP SWAP4 SWAP3 POP POP POP JUMP JUMPDEST PUSH1 0x60 PUSH0 PUSH0 PUSH0 PUSH0 PUSH2 0x1178 DUP8 DUP8 PUSH2 0xCA4 JUMP JUMPDEST SWAP2 POP SWAP2 POP DUP1 SWAP4 POP PUSH2 0x1188 DUP2 PUSH2 0xBF1 JUMP JUMPDEST SWAP3 POP PUSH0 DUP3 MLOAD SWAP1 POP DUP1 PUSH8 0xFFFFFFFFFFFFFFFF DUP2 GT ISZERO PUSH2 0x11A9 JUMPI PUSH2 0x11A8 PUSH2 0x1F6C JUMP JUMPDEST JUMPDEST PUSH1 0x40 MLOAD SWAP1 DUP1 DUP3 MSTORE DUP1 PUSH1 0x20 MUL PUSH1 0x20 ADD DUP3 ADD PUSH1 0x40 MSTORE DUP1 ISZERO PUSH2 0x11E2 JUMPI DUP2 PUSH1 0x20 ADD JUMPDEST PUSH2 0x11CF PUSH2 0x1BC9 JUMP JUMPDEST DUP2 MSTORE PUSH1 0x20 ADD SWAP1 PUSH1 0x1 SWAP1 SUB SWAP1 DUP2 PUSH2 0x11C7 JUMPI SWAP1 POP JUMPDEST POP SWAP6 POP PUSH0 PUSH0 SWAP1 POP JUMPDEST DUP2 DUP2 LT ISZERO PUSH2 0x1371 JUMPI PUSH1 0x40 MLOAD DUP1 PUSH2 0x100 ADD PUSH1 0x40 MSTORE DUP1 DUP6 DUP4 DUP2 MLOAD DUP2 LT PUSH2 0x1211 JUMPI PUSH2 0x1210 PUSH2 0x2BCF JUMP JUMPDEST JUMPDEST PUSH1 0x20 MUL PUSH1 0x20 ADD ADD MLOAD PUSH0 ADD MLOAD PUSH20 0xFFFFFFFFFFFFFFFFFFFFFFFFFFFFFFFFFFFFFFFF AND DUP2 MSTORE PUSH1 0x20 ADD DUP6 DUP4 DUP2 MLOAD DUP2 LT PUSH2 0x124A JUMPI PUSH2 0x1249 PUSH2 0x2BCF JUMP JUMPDEST JUMPDEST PUSH1 0x20 MUL PUSH1 0x20 ADD ADD MLOAD PUSH1 0x20 ADD MLOAD PUSH1 0xFF AND DUP2 MSTORE PUSH1 0x20 ADD DUP6 DUP4 DUP2 MLOAD DUP2 LT PUSH2 0x1271 JUMPI PUSH2 0x1270 PUSH2 0x2BCF JUMP JUMPDEST JUMPDEST PUSH1 0x20 MUL PUSH1 0x20 ADD ADD MLOAD PUSH1 0x40 ADD MLOAD PUSH2 0xFFFF AND DUP2 MSTORE PUSH1 0x20 ADD DUP6 DUP4 DUP2 MLOAD DUP2 LT PUSH2 0x1299 JUMPI PUSH2 0x1298 PUSH2 0x2BCF JUMP JUMPDEST JUMPDEST PUSH1 0x20 MUL PUSH1 0x20 ADD ADD MLOAD PUSH1 0x60 ADD MLOAD DUP2 MSTORE PUSH1 0x20 ADD DUP6 DUP4 DUP2 MLOAD DUP2 LT PUSH2 0x12BD JUMPI PUSH2 0x12BC PUSH2 0x2BCF JUMP JUMPDEST JUMPDEST PUSH1 0x20 MUL PUSH1 0x20 ADD ADD MLOAD PUSH1 0x80 ADD MLOAD DUP2 MSTORE PUSH1 0x20 ADD PUSH2 0x12F5 DUP7 DUP5 DUP2 MLOAD DUP2 LT PUSH2 0x12E4 JUMPI PUSH2 0x12E3 PUSH2 0x2BCF JUMP JUMPDEST JUMPDEST PUSH1 0x20 MUL PUSH1 0x20 ADD ADD MLOAD PUSH1 0x80 ADD MLOAD PUSH2 0xBF1 JUMP JUMPDEST DUP2 MSTORE PUSH1 0x20 ADD DUP6 DUP4 DUP2 MLOAD DUP2 LT PUSH2 0x130D JUMPI PUSH2 0x130C PUSH2 0x2BCF JUMP JUMPDEST JUMPDEST PUSH1 0x20 MUL PUSH1 0x20 ADD ADD MLOAD PUSH1 0xA0 ADD MLOAD DUP2 MSTORE PUSH1 0x20 ADD PUSH2 0x1345 DUP7 DUP5 DUP2 MLOAD DUP2 LT PUSH2 0x1334 JUMPI PUSH2 0x1333 PUSH2 0x2BCF JUMP JUMPDEST JUMPDEST PUSH1 0x20 MUL PUSH1 0x20 ADD ADD MLOAD PUSH1 0xA0 ADD MLOAD PUSH2 0xBF1 JUMP JUMPDEST DUP2 MSTORE POP DUP8 DUP3 DUP2 MLOAD DUP2 LT PUSH2 0x135B JUMPI PUSH2 0x135A PUSH2 0x2BCF JUMP JUMPDEST JUMPDEST PUSH1 0x20 MUL PUSH1 0x20 ADD ADD DUP2 SWAP1 MSTORE POP DUP1 PUSH1 0x1 ADD SWAP1 POP PUSH2 0x11EA JUMP JUMPDEST POP POP POP POP SWAP3 POP SWAP3 POP SWAP3 JUMP JUMPDEST PUSH0 PUSH20 0xFFFFFFFFFFFFFFFFFFFFFFFFFFFFFFFFFFFFFFFF AND DUP2 PUSH20 0xFFFFFFFFFFFFFFFFFFFFFFFFFFFFFFFFFFFFFFFF AND SUB PUSH2 0x13EA JUMPI PUSH1 0x40 MLOAD PUSH32 0x8C379A000000000000000000000000000000000000000000000000000000000 DUP2 MSTORE PUSH1 0x4 ADD PUSH2 0x13E1 SWAP1 PUSH2 0x2CB1 JUMP JUMPDEST PUSH1 0x40 MLOAD DUP1 SWAP2 SUB SWAP1 REVERT JUMPDEST PUSH0 DUP2 PUSH20 0xFFFFFFFFFFFFFFFFFFFFFFFFFFFFFFFFFFFFFFFF AND EXTCODESIZE GT PUSH2 0x1443 JUMPI PUSH1 0x40 MLOAD PUSH32 0x8C379A000000000000000000000000000000000000000000000000000000000 DUP2 MSTORE PUSH1 0x4 ADD PUSH2 0x143A SWAP1 PUSH2 0x2D19 JUMP JUMPDEST PUSH1 0x40 MLOAD DUP1 SWAP2 SUB SWAP1 REVERT JUMPDEST DUP1 PUSH20 0xFFFFFFFFFFFFFFFFFFFFFFFFFFFFFFFFFFFFFFFF AND PUSH4 0x8DA5CB5B PUSH1 0x40 MLOAD DUP2 PUSH4 0xFFFFFFFF AND PUSH1 0xE0 SHL DUP2 MSTORE PUSH1 0x4 ADD PUSH1 0x20 PUSH1 0x40 MLOAD DUP1 DUP4 SUB DUP2 DUP7 GAS STATICCALL SWAP3 POP POP POP DUP1 ISZERO PUSH2 0x14AB JUMPI POP PUSH1 0x40 MLOAD RETURNDATASIZE PUSH1 0x1F NOT PUSH1 0x1F DUP3 ADD AND DUP3 ADD DUP1 PUSH1 0x40 MSTORE POP DUP2 ADD SWAP1 PUSH2 0x14A8 SWAP2 SWAP1 PUSH2 0x2AA8 JUMP JUMPDEST PUSH1 0x1 JUMPDEST PUSH2 0x14EA JUMPI PUSH1 0x40 MLOAD PUSH32 0x8C379A000000000000000000000000000000000000000000000000000000000 DUP2 MSTORE PUSH1 0x4 ADD PUSH2 0x14E1 SWAP1 PUSH2 0x2DA7 JUMP JUMPDEST PUSH1 0x40 MLOAD DUP1 SWAP2 SUB SWAP1 REVERT JUMPDEST DUP2 PUSH0 PUSH0 PUSH2 0x100 EXP DUP2 SLOAD DUP2 PUSH20 0xFFFFFFFFFFFFFFFFFFFFFFFFFFFFFFFFFFFFFFFF MUL NOT AND SWAP1 DUP4 PUSH20 0xFFFFFFFFFFFFFFFFFFFFFFFFFFFFFFFFFFFFFFFF AND MUL OR SWAP1 SSTORE POP POP POP JUMP JUMPDEST PUSH0 PUSH0 PUSH0 PUSH2 0x1538 PUSH2 0x19D1 JUMP JUMPDEST SWAP1 POP PUSH0 PUSH0 SWAP1 POP JUMPDEST DUP5 PUSH1 0x40 ADD MLOAD MLOAD DUP2 LT ISZERO PUSH2 0x164A JUMPI PUSH0 DUP6 PUSH1 0x40 ADD MLOAD DUP3 DUP2 MLOAD DUP2 LT PUSH2 0x1564 JUMPI PUSH2 0x1563 PUSH2 0x2BCF JUMP JUMPDEST JUMPDEST PUSH1 0x20 MUL PUSH1 0x20 ADD ADD MLOAD PUSH0 ADD MLOAD SWAP1 POP PUSH0 DUP7 PUSH1 0x40 ADD MLOAD DUP4 DUP2 MLOAD DUP2 LT PUSH2 0x1589 JUMPI PUSH2 0x1588 PUSH2 0x2BCF JUMP JUMPDEST JUMPDEST PUSH1 0x20 MUL PUSH1 0x20 ADD ADD MLOAD PUSH1 0x20 ADD MLOAD SWAP1 POP PUSH0 DUP5 PUSH20 0xFFFFFFFFFFFFFFFFFFFFFFFFFFFFFFFFFFFFFFFF AND PUSH4 0x7B49B49D DUP5 PUSH1 0x40 MLOAD DUP3 PUSH4 0xFFFFFFFF AND PUSH1 0xE0 SHL DUP2 MSTORE PUSH1 0x4 ADD PUSH2 0x15D1 SWAP2 SWAP1 PUSH2 0x20E6 JUMP JUMPDEST PUSH1 0x20 PUSH1 0x40 MLOAD DUP1 DUP4 SUB DUP2 DUP7 GAS STATICCALL ISZERO DUP1 ISZERO PUSH2 0x15EC JUMPI RETURNDATASIZE PUSH0 PUSH0 RETURNDATACOPY RETURNDATASIZE PUSH0 REVERT JUMPDEST POP POP POP POP PUSH1 0x40 MLOAD RETURNDATASIZE PUSH1 0x1F NOT PUSH1 0x1F DUP3 ADD AND DUP3 ADD DUP1 PUSH1 0x40 MSTORE POP DUP2 ADD SWAP1 PUSH2 0x1610 SWAP2 SWAP1 PUSH2 0x2B4F JUMP JUMPDEST SWAP1 POP PUSH0 DUP2 EQ DUP1 PUSH2 0x1623 JUMPI POP PUSH0 DUP3 PUSH2 0xFFFF AND EQ JUMPDEST ISZERO PUSH2 0x1630 JUMPI POP POP POP PUSH2 0x163F JUMP JUMPDEST DUP1 DUP3 PUSH2 0xFFFF AND MUL DUP7 ADD SWAP6 POP POP POP POP JUMPDEST DUP1 PUSH1 0x1 ADD SWAP1 POP PUSH2 0x153F JUMP JUMPDEST POP PUSH2 0x2710 DUP3 PUSH2 0x1659 SWAP2 SWAP1 PUSH2 0x2DF2 JUMP JUMPDEST SWAP3 POP POP POP SWAP2 SWAP1 POP JUMP JUMPDEST PUSH0 PUSH1 0x12 DUP3 PUSH1 0xFF AND SUB PUSH2 0x1676 JUMPI DUP3 SWAP1 POP PUSH2 0x16C7 JUMP JUMPDEST PUSH1 0x12 DUP3 PUSH1 0xFF AND LT ISZERO PUSH2 0x16A4 JUMPI PUSH2 0x169D DUP4 PUSH8 0xDE0B6B3A7640000 PUSH2 0x1698 DUP6 PUSH2 0x1AC6 JUMP JUMPDEST PUSH2 0x18C7 JUMP JUMPDEST SWAP1 POP PUSH2 0x16C7 JUMP JUMPDEST PUSH2 0x16B9 PUSH1 0x12 DUP4 PUSH2 0x16B4 SWAP2 SWAP1 PUSH2 0x2E22 JUMP JUMPDEST PUSH2 0x1AC6 JUMP JUMPDEST DUP4 PUSH2 0x16C4 SWAP2 SWAP1 PUSH2 0x2DF2 JUMP JUMPDEST SWAP1 POP JUMPDEST SWAP3 SWAP2 POP POP JUMP JUMPDEST PUSH0 PUSH0 PUSH2 0x16D7 PUSH2 0x19D1 JUMP JUMPDEST SWAP1 POP PUSH0 PUSH0 SWAP1 POP JUMPDEST DUP5 PUSH1 0x40 ADD MLOAD MLOAD DUP2 LT ISZERO PUSH2 0x18BF JUMPI PUSH0 DUP6 PUSH1 0x40 ADD MLOAD DUP3 DUP2 MLOAD DUP2 LT PUSH2 0x1703 JUMPI PUSH2 0x1702 PUSH2 0x2BCF JUMP JUMPDEST JUMPDEST PUSH1 0x20 MUL PUSH1 0x20 ADD ADD MLOAD PUSH0 ADD MLOAD SWAP1 POP PUSH0 DUP2 PUSH20 0xFFFFFFFFFFFFFFFFFFFFFFFFFFFFFFFFFFFFFFFF AND PUSH4 0x70A08231 DUP8 PUSH1 0x40 MLOAD DUP3 PUSH4 0xFFFFFFFF AND PUSH1 0xE0 SHL DUP2 MSTORE PUSH1 0x4 ADD PUSH2 0x174A SWAP2 SWAP1 PUSH2 0x20E6 JUMP JUMPDEST PUSH1 0x20 PUSH1 0x40 MLOAD DUP1 DUP4 SUB DUP2 DUP7 GAS STATICCALL ISZERO DUP1 ISZERO PUSH2 0x1765 JUMPI RETURNDATASIZE PUSH0 PUSH0 RETURNDATACOPY RETURNDATASIZE PUSH0 REVERT JUMPDEST POP POP POP POP PUSH1 0x40 MLOAD RETURNDATASIZE PUSH1 0x1F NOT PUSH1 0x1F DUP3 ADD AND DUP3 ADD DUP1 PUSH1 0x40 MSTORE POP DUP2 ADD SWAP1 PUSH2 0x1789 SWAP2 SWAP1 PUSH2 0x2B4F JUMP JUMPDEST SWAP1 POP PUSH0 DUP2 SUB PUSH2 0x1799 JUMPI POP POP PUSH2 0x18B4 JUMP JUMPDEST PUSH0 DUP5 PUSH20 0xFFFFFFFFFFFFFFFFFFFFFFFFFFFFFFFFFFFFFFFF AND PUSH4 0x7B49B49D DUP5 PUSH1 0x40 MLOAD DUP3 PUSH4 0xFFFFFFFF AND PUSH1 0xE0 SHL DUP2 MSTORE PUSH1 0x4 ADD PUSH2 0x17D3 SWAP2 SWAP1 PUSH2 0x20E6 JUMP JUMPDEST PUSH1 0x20 PUSH1 0x40 MLOAD DUP1 DUP4 SUB DUP2 DUP7 GAS STATICCALL ISZERO DUP1 ISZERO PUSH2 0x17EE JUMPI RETURNDATASIZE PUSH0 PUSH0 RETURNDATACOPY RETURNDATASIZE PUSH0 REVERT JUMPDEST POP POP POP POP PUSH1 0x40 MLOAD RETURNDATASIZE PUSH1 0x1F NOT PUSH1 0x1F DUP3 ADD AND DUP3 ADD DUP1 PUSH1 0x40 MSTORE POP DUP2 ADD SWAP1 PUSH2 0x1812 SWAP2 SWAP1 PUSH2 0x2B4F JUMP JUMPDEST SWAP1 POP PUSH0 DUP2 SUB PUSH2 0x1823 JUMPI POP POP POP PUSH2 0x18B4 JUMP JUMPDEST PUSH0 DUP4 PUSH20 0xFFFFFFFFFFFFFFFFFFFFFFFFFFFFFFFFFFFFFFFF AND PUSH4 0x313CE567 PUSH1 0x40 MLOAD DUP2 PUSH4 0xFFFFFFFF AND PUSH1 0xE0 SHL DUP2 MSTORE PUSH1 0x4 ADD PUSH1 0x20 PUSH1 0x40 MLOAD DUP1 DUP4 SUB DUP2 DUP7 GAS STATICCALL ISZERO DUP1 ISZERO PUSH2 0x186D JUMPI RETURNDATASIZE PUSH0 PUSH0 RETURNDATACOPY RETURNDATASIZE PUSH0 REVERT JUMPDEST POP POP POP POP PUSH1 0x40 MLOAD RETURNDATASIZE PUSH1 0x1F NOT PUSH1 0x1F DUP3 ADD AND DUP3 ADD DUP1 PUSH1 0x40 MSTORE POP DUP2 ADD SWAP1 PUSH2 0x1891 SWAP2 SWAP1 PUSH2 0x2BA4 JUMP JUMPDEST SWAP1 POP PUSH0 PUSH2 0x189D DUP3 PUSH2 0x1AC6 JUMP JUMPDEST SWAP1 POP PUSH2 0x18AA DUP5 DUP5 DUP4 PUSH2 0x18C7 JUMP JUMPDEST DUP9 ADD SWAP8 POP POP POP POP POP POP JUMPDEST DUP1 PUSH1 0x1 ADD SWAP1 POP PUSH2 0x16DE JUMP JUMPDEST POP POP SWAP3 SWAP2 POP POP JUMP JUMPDEST PUSH0 PUSH0 PUSH0 PUSH0 NOT DUP6 DUP8 MULMOD DUP6 DUP8 MUL SWAP3 POP DUP3 DUP2 LT DUP4 DUP3 SUB SUB SWAP2 POP POP PUSH0 DUP2 SUB PUSH2 0x18FF JUMPI DUP4 DUP3 DUP2 PUSH2 0x18F5 JUMPI PUSH2 0x18F4 PUSH2 0x2BFC JUMP JUMPDEST JUMPDEST DIV SWAP3 POP POP POP PUSH2 0x19CA JUMP JUMPDEST DUP1 DUP5 GT PUSH2 0x1941 JUMPI PUSH1 0x40 MLOAD PUSH32 0x8C379A000000000000000000000000000000000000000000000000000000000 DUP2 MSTORE PUSH1 0x4 ADD PUSH2 0x1938 SWAP1 PUSH2 0x2EA0 JUMP JUMPDEST PUSH1 0x40 MLOAD DUP1 SWAP2 SUB SWAP1 REVERT JUMPDEST PUSH0 DUP5 DUP7 DUP9 MULMOD SWAP1 POP DUP3 DUP2 GT DUP3 SUB SWAP2 POP DUP1 DUP4 SUB SWAP3 POP PUSH0 PUSH1 0x1 DUP7 NOT ADD DUP7 AND SWAP1 POP DUP1 DUP7 DIV SWAP6 POP DUP1 DUP5 DIV SWAP4 POP PUSH1 0x1 DUP2 DUP3 PUSH0 SUB DIV ADD SWAP1 POP DUP1 DUP4 MUL DUP5 OR SWAP4 POP PUSH0 PUSH1 0x2 DUP8 PUSH1 0x3 MUL XOR SWAP1 POP DUP1 DUP8 MUL PUSH1 0x2 SUB DUP2 MUL SWAP1 POP DUP1 DUP8 MUL PUSH1 0x2 SUB DUP2 MUL SWAP1 POP DUP1 DUP8 MUL PUSH1 0x2 SUB DUP2 MUL SWAP1 POP DUP1 DUP8 MUL PUSH1 0x2 SUB DUP2 MUL SWAP1 POP DUP1 DUP8 MUL PUSH1 0x2 SUB DUP2 MUL SWAP1 POP DUP1 DUP8 MUL PUSH1 0x2 SUB DUP2 MUL SWAP1 POP DUP1 DUP6 MUL SWAP6 POP POP POP POP POP POP JUMPDEST SWAP4 SWAP3 POP POP POP JUMP JUMPDEST PUSH0 PUSH2 0x1A10 PUSH1 0x40 MLOAD DUP1 PUSH1 0x40 ADD PUSH1 0x40 MSTORE DUP1 PUSH1 0xE DUP2 MSTORE PUSH1 0x20 ADD PUSH32 0x756E69737761702D6F7261636C65000000000000000000000000000000000000 DUP2 MSTORE POP PUSH2 0x4B5 JUMP JUMPDEST SWAP1 POP SWAP1 JUMP JUMPDEST PUSH0 PUSH0 PUSH0 SWAP1 POP JUMPDEST DUP5 PUSH1 0x40 ADD MLOAD MLOAD DUP2 LT ISZERO PUSH2 0x1ABE JUMPI PUSH0 DUP6 PUSH1 0x40 ADD MLOAD DUP3 DUP2 MLOAD DUP2 LT PUSH2 0x1A40 JUMPI PUSH2 0x1A3F PUSH2 0x2BCF JUMP JUMPDEST JUMPDEST PUSH1 0x20 MUL PUSH1 0x20 ADD ADD MLOAD PUSH0 ADD MLOAD SWAP1 POP DUP5 DUP5 DUP3 PUSH1 0x40 MLOAD DUP3 PUSH4 0xFFFFFFFF AND PUSH1 0xE0 SHL DUP2 MSTORE PUSH1 0x4 ADD PUSH2 0x1A6C SWAP2 SWAP1 PUSH2 0x20E6 JUMP JUMPDEST PUSH1 0x20 PUSH1 0x40 MLOAD DUP1 DUP4 SUB DUP2 DUP7 GAS STATICCALL SWAP3 POP POP POP DUP1 ISZERO PUSH2 0x1AA6 JUMPI POP PUSH1 0x40 MLOAD RETURNDATASIZE PUSH1 0x1F NOT PUSH1 0x1F DUP3 ADD AND DUP3 ADD DUP1 PUSH1 0x40 MSTORE POP DUP2 ADD SWAP1 PUSH2 0x1AA3 SWAP2 SWAP1 PUSH2 0x2B4F JUMP JUMPDEST PUSH1 0x1 JUMPDEST ISZERO PUSH2 0x1AB2 JUMPI DUP1 DUP5 ADD SWAP4 POP POP JUMPDEST POP DUP1 PUSH1 0x1 ADD SWAP1 POP PUSH2 0x1A1B JUMP JUMPDEST POP SWAP4 SWAP3 POP POP POP JUMP JUMPDEST PUSH0 PUSH1 0x4D DUP3 PUSH1 0xFF AND GT ISZERO PUSH2 0x1B0E JUMPI PUSH1 0x40 MLOAD PUSH32 0x8C379A000000000000000000000000000000000000000000000000000000000 DUP2 MSTORE PUSH1 0x4 ADD PUSH2 0x1B05 SWAP1 PUSH2 0x2F08 JUMP JUMPDEST PUSH1 0x40 MLOAD DUP1 SWAP2 SUB SWAP1 REVERT JUMPDEST DUP2 PUSH1 0xFF AND PUSH1 0xA EXP SWAP1 POP SWAP2 SWAP1 POP JUMP JUMPDEST PUSH1 0x40 MLOAD DUP1 PUSH1 0xA0 ADD PUSH1 0x40 MSTORE DUP1 PUSH2 0x1B2F PUSH2 0x1C23 JUMP JUMPDEST DUP2 MSTORE PUSH1 0x20 ADD PUSH2 0x1B3C PUSH2 0x1C23 JUMP JUMPDEST DUP2 MSTORE PUSH1 0x20 ADD PUSH2 0x1B49 PUSH2 0x1C23 JUMP JUMPDEST DUP2 MSTORE PUSH1 0x20 ADD PUSH0 DUP2 MSTORE PUSH1 0x20 ADD PUSH0 DUP2 MSTORE POP SWAP1 JUMP JUMPDEST PUSH1 0x40 MLOAD DUP1 PUSH1 0x60 ADD PUSH1 0x40 MSTORE DUP1 PUSH1 0x60 DUP2 MSTORE PUSH1 0x20 ADD PUSH1 0x60 DUP2 MSTORE PUSH1 0x20 ADD PUSH1 0x60 DUP2 MSTORE POP SWAP1 JUMP JUMPDEST PUSH1 0x40 MLOAD DUP1 PUSH1 0xC0 ADD PUSH1 0x40 MSTORE DUP1 PUSH0 PUSH20 0xFFFFFFFFFFFFFFFFFFFFFFFFFFFFFFFFFFFFFFFF AND DUP2 MSTORE PUSH1 0x20 ADD PUSH0 PUSH1 0xFF AND DUP2 MSTORE PUSH1 0x20 ADD PUSH0 PUSH2 0xFFFF AND DUP2 MSTORE PUSH1 0x20 ADD PUSH0 DUP2 MSTORE PUSH1 0x20 ADD PUSH0 DUP2 MSTORE PUSH1 0x20 ADD PUSH0 DUP2 MSTORE POP SWAP1 JUMP JUMPDEST PUSH1 0x40 MLOAD DUP1 PUSH2 0x100 ADD PUSH1 0x40 MSTORE DUP1 PUSH0 PUSH20 0xFFFFFFFFFFFFFFFFFFFFFFFFFFFFFFFFFFFFFFFF AND DUP2 MSTORE PUSH1 0x20 ADD PUSH0 PUSH1 0xFF AND DUP2 MSTORE PUSH1 0x20 ADD PUSH0 PUSH2 0xFFFF AND DUP2 MSTORE PUSH1 0x20 ADD PUSH0 DUP2 MSTORE PUSH1 0x20 ADD PUSH0 DUP2 MSTORE PUSH1 0x20 ADD PUSH0 DUP2 MSTORE PUSH1 0x20 ADD PUSH0 DUP2 MSTORE PUSH1 0x20 ADD PUSH0 DUP2 MSTORE POP SWAP1 JUMP JUMPDEST PUSH1 0x40 MLOAD DUP1 PUSH1 0x40 ADD PUSH1 0x40 MSTORE DUP1 PUSH0 DUP2 MSTORE PUSH1 0x20 ADD PUSH0 DUP2 MSTORE POP SWAP1 JUMP JUMPDEST PUSH0 PUSH1 0x40 MLOAD SWAP1 POP SWAP1 JUMP JUMPDEST PUSH0 PUSH0 REVERT JUMPDEST PUSH0 PUSH0 REVERT JUMPDEST PUSH0 DUP2 SWAP1 POP SWAP2 SWAP1 POP JUMP JUMPDEST PUSH2 0x1C5E DUP2 PUSH2 0x1C4C JUMP JUMPDEST DUP2 EQ PUSH2 0x1C68 JUMPI PUSH0 PUSH0 REVERT JUMPDEST POP JUMP JUMPDEST PUSH0 DUP2 CALLDATALOAD SWAP1 POP PUSH2 0x1C79 DUP2 PUSH2 0x1C55 JUMP JUMPDEST SWAP3 SWAP2 POP POP JUMP JUMPDEST PUSH0 PUSH1 0x20 DUP3 DUP5 SUB SLT ISZERO PUSH2 0x1C94 JUMPI PUSH2 0x1C93 PUSH2 0x1C44 JUMP JUMPDEST JUMPDEST PUSH0 PUSH2 0x1CA1 DUP5 DUP3 DUP6 ADD PUSH2 0x1C6B JUMP JUMPDEST SWAP2 POP POP SWAP3 SWAP2 POP POP JUMP JUMPDEST PUSH2 0x1CB3 DUP2 PUSH2 0x1C4C JUMP JUMPDEST DUP3 MSTORE POP POP JUMP JUMPDEST PUSH0 PUSH1 0x20 DUP3 ADD SWAP1 POP PUSH2 0x1CCC PUSH0 DUP4 ADD DUP5 PUSH2 0x1CAA JUMP JUMPDEST SWAP3 SWAP2 POP POP JUMP JUMPDEST PUSH0 DUP2 MLOAD SWAP1 POP SWAP2 SWAP1 POP JUMP JUMPDEST PUSH0 DUP3 DUP3 MSTORE PUSH1 0x20 DUP3 ADD SWAP1 POP SWAP3 SWAP2 POP POP JUMP JUMPDEST PUSH0 DUP2 SWAP1 POP PUSH1 0x20 DUP3 ADD SWAP1 POP SWAP2 SWAP1 POP JUMP JUMPDEST PUSH0 PUSH20 0xFFFFFFFFFFFFFFFFFFFFFFFFFFFFFFFFFFFFFFFF DUP3 AND SWAP1 POP SWAP2 SWAP1 POP JUMP JUMPDEST PUSH0 PUSH2 0x1D24 DUP3 PUSH2 0x1CFB JUMP JUMPDEST SWAP1 POP SWAP2 SWAP1 POP JUMP JUMPDEST PUSH2 0x1D34 DUP2 PUSH2 0x1D1A JUMP JUMPDEST DUP3 MSTORE POP POP JUMP JUMPDEST PUSH0 PUSH1 0xFF DUP3 AND SWAP1 POP SWAP2 SWAP1 POP JUMP JUMPDEST PUSH2 0x1D4F DUP2 PUSH2 0x1D3A JUMP JUMPDEST DUP3 MSTORE POP POP JUMP JUMPDEST PUSH0 PUSH2 0xFFFF DUP3 AND SWAP1 POP SWAP2 SWAP1 POP JUMP JUMPDEST PUSH2 0x1D6B DUP2 PUSH2 0x1D55 JUMP JUMPDEST DUP3 MSTORE POP POP JUMP JUMPDEST PUSH2 0x1D7A DUP2 PUSH2 0x1C4C JUMP JUMPDEST DUP3 MSTORE POP POP JUMP JUMPDEST PUSH1 0xC0 DUP3 ADD PUSH0 DUP3 ADD MLOAD PUSH2 0x1D94 PUSH0 DUP6 ADD DUP3 PUSH2 0x1D2B JUMP JUMPDEST POP PUSH1 0x20 DUP3 ADD MLOAD PUSH2 0x1DA7 PUSH1 0x20 DUP6 ADD DUP3 PUSH2 0x1D46 JUMP JUMPDEST POP PUSH1 0x40 DUP3 ADD MLOAD PUSH2 0x1DBA PUSH1 0x40 DUP6 ADD DUP3 PUSH2 0x1D62 JUMP JUMPDEST POP PUSH1 0x60 DUP3 ADD MLOAD PUSH2 0x1DCD PUSH1 0x60 DUP6 ADD DUP3 PUSH2 0x1D71 JUMP JUMPDEST POP PUSH1 0x80 DUP3 ADD MLOAD PUSH2 0x1DE0 PUSH1 0x80 DUP6 ADD DUP3 PUSH2 0x1D71 JUMP JUMPDEST POP PUSH1 0xA0 DUP3 ADD MLOAD PUSH2 0x1DF3 PUSH1 0xA0 DUP6 ADD DUP3 PUSH2 0x1D71 JUMP JUMPDEST POP POP POP POP JUMP JUMPDEST PUSH0 PUSH2 0x1E04 DUP4 DUP4 PUSH2 0x1D80 JUMP JUMPDEST PUSH1 0xC0 DUP4 ADD SWAP1 POP SWAP3 SWAP2 POP POP JUMP JUMPDEST PUSH0 PUSH1 0x20 DUP3 ADD SWAP1 POP SWAP2 SWAP1 POP JUMP JUMPDEST PUSH0 PUSH2 0x1E26 DUP3 PUSH2 0x1CD2 JUMP JUMPDEST PUSH2 0x1E30 DUP2 DUP6 PUSH2 0x1CDC JUMP JUMPDEST SWAP4 POP PUSH2 0x1E3B DUP4 PUSH2 0x1CEC JUMP JUMPDEST DUP1 PUSH0 JUMPDEST DUP4 DUP2 LT ISZERO PUSH2 0x1E6B JUMPI DUP2 MLOAD PUSH2 0x1E52 DUP9 DUP3 PUSH2 0x1DF9 JUMP JUMPDEST SWAP8 POP PUSH2 0x1E5D DUP4 PUSH2 0x1E10 JUMP JUMPDEST SWAP3 POP POP PUSH1 0x1 DUP2 ADD SWAP1 POP PUSH2 0x1E3E JUMP JUMPDEST POP DUP6 SWAP4 POP POP POP POP SWAP3 SWAP2 POP POP JUMP JUMPDEST PUSH0 PUSH1 0x40 DUP3 ADD SWAP1 POP DUP2 DUP2 SUB PUSH0 DUP4 ADD MSTORE PUSH2 0x1E90 DUP2 DUP6 PUSH2 0x1E1C JUMP JUMPDEST SWAP1 POP PUSH2 0x1E9F PUSH1 0x20 DUP4 ADD DUP5 PUSH2 0x1CAA JUMP JUMPDEST SWAP4 SWAP3 POP POP POP JUMP JUMPDEST PUSH1 0x40 DUP3 ADD PUSH0 DUP3 ADD MLOAD PUSH2 0x1EBA PUSH0 DUP6 ADD DUP3 PUSH2 0x1D71 JUMP JUMPDEST POP PUSH1 0x20 DUP3 ADD MLOAD PUSH2 0x1ECD PUSH1 0x20 DUP6 ADD DUP3 PUSH2 0x1D71 JUMP JUMPDEST POP POP POP POP JUMP JUMPDEST PUSH2 0x100 DUP3 ADD PUSH0 DUP3 ADD MLOAD PUSH2 0x1EE8 PUSH0 DUP6 ADD DUP3 PUSH2 0x1EA6 JUMP JUMPDEST POP PUSH1 0x20 DUP3 ADD MLOAD PUSH2 0x1EFB PUSH1 0x40 DUP6 ADD DUP3 PUSH2 0x1EA6 JUMP JUMPDEST POP PUSH1 0x40 DUP3 ADD MLOAD PUSH2 0x1F0E PUSH1 0x80 DUP6 ADD DUP3 PUSH2 0x1EA6 JUMP JUMPDEST POP PUSH1 0x60 DUP3 ADD MLOAD PUSH2 0x1F21 PUSH1 0xC0 DUP6 ADD DUP3 PUSH2 0x1D71 JUMP JUMPDEST POP PUSH1 0x80 DUP3 ADD MLOAD PUSH2 0x1F34 PUSH1 0xE0 DUP6 ADD DUP3 PUSH2 0x1D71 JUMP JUMPDEST POP POP POP POP JUMP JUMPDEST PUSH0 PUSH2 0x100 DUP3 ADD SWAP1 POP PUSH2 0x1F4E PUSH0 DUP4 ADD DUP5 PUSH2 0x1ED3 JUMP JUMPDEST SWAP3 SWAP2 POP POP JUMP JUMPDEST PUSH0 PUSH0 REVERT JUMPDEST PUSH0 PUSH0 REVERT JUMPDEST PUSH0 PUSH1 0x1F NOT PUSH1 0x1F DUP4 ADD AND SWAP1 POP SWAP2 SWAP1 POP JUMP JUMPDEST PUSH32 0x4E487B7100000000000000000000000000000000000000000000000000000000 PUSH0 MSTORE PUSH1 0x41 PUSH1 0x4 MSTORE PUSH1 0x24 PUSH0 REVERT JUMPDEST PUSH2 0x1FA2 DUP3 PUSH2 0x1F5C JUMP JUMPDEST DUP2 ADD DUP2 DUP2 LT PUSH8 0xFFFFFFFFFFFFFFFF DUP3 GT OR ISZERO PUSH2 0x1FC1 JUMPI PUSH2 0x1FC0 PUSH2 0x1F6C JUMP JUMPDEST JUMPDEST DUP1 PUSH1 0x40 MSTORE POP POP POP JUMP JUMPDEST PUSH0 PUSH2 0x1FD3 PUSH2 0x1C3B JUMP JUMPDEST SWAP1 POP PUSH2 0x1FDF DUP3 DUP3 PUSH2 0x1F99 JUMP JUMPDEST SWAP2 SWAP1 POP JUMP JUMPDEST PUSH0 PUSH8 0xFFFFFFFFFFFFFFFF DUP3 GT ISZERO PUSH2 0x1FFE JUMPI PUSH2 0x1FFD PUSH2 0x1F6C JUMP JUMPDEST JUMPDEST PUSH2 0x2007 DUP3 PUSH2 0x1F5C JUMP JUMPDEST SWAP1 POP PUSH1 0x20 DUP2 ADD SWAP1 POP SWAP2 SWAP1 POP JUMP JUMPDEST DUP3 DUP2 DUP4 CALLDATACOPY PUSH0 DUP4 DUP4 ADD MSTORE POP POP POP JUMP JUMPDEST PUSH0 PUSH2 0x2034 PUSH2 0x202F DUP5 PUSH2 0x1FE4 JUMP JUMPDEST PUSH2 0x1FCA JUMP JUMPDEST SWAP1 POP DUP3 DUP2 MSTORE PUSH1 0x20 DUP2 ADD DUP5 DUP5 DUP5 ADD GT ISZERO PUSH2 0x2050 JUMPI PUSH2 0x204F PUSH2 0x1F58 JUMP JUMPDEST JUMPDEST PUSH2 0x205B DUP5 DUP3 DUP6 PUSH2 0x2014 JUMP JUMPDEST POP SWAP4 SWAP3 POP POP POP JUMP JUMPDEST PUSH0 DUP3 PUSH1 0x1F DUP4 ADD SLT PUSH2 0x2077 JUMPI PUSH2 0x2076 PUSH2 0x1F54 JUMP JUMPDEST JUMPDEST DUP2 CALLDATALOAD PUSH2 0x2087 DUP5 DUP3 PUSH1 0x20 DUP7 ADD PUSH2 0x2022 JUMP JUMPDEST SWAP2 POP POP SWAP3 SWAP2 POP POP JUMP JUMPDEST PUSH0 PUSH1 0x20 DUP3 DUP5 SUB SLT ISZERO PUSH2 0x20A5 JUMPI PUSH2 0x20A4 PUSH2 0x1C44 JUMP JUMPDEST JUMPDEST PUSH0 DUP3 ADD CALLDATALOAD PUSH8 0xFFFFFFFFFFFFFFFF DUP2 GT ISZERO PUSH2 0x20C2 JUMPI PUSH2 0x20C1 PUSH2 0x1C48 JUMP JUMPDEST JUMPDEST PUSH2 0x20CE DUP5 DUP3 DUP6 ADD PUSH2 0x2063 JUMP JUMPDEST SWAP2 POP POP SWAP3 SWAP2 POP POP JUMP JUMPDEST PUSH2 0x20E0 DUP2 PUSH2 0x1D1A JUMP JUMPDEST DUP3 MSTORE POP POP JUMP JUMPDEST PUSH0 PUSH1 0x20 DUP3 ADD SWAP1 POP PUSH2 0x20F9 PUSH0 DUP4 ADD DUP5 PUSH2 0x20D7 JUMP JUMPDEST SWAP3 SWAP2 POP POP JUMP JUMPDEST PUSH0 DUP2 MLOAD SWAP1 POP SWAP2 SWAP1 POP JUMP JUMPDEST PUSH0 DUP3 DUP3 MSTORE PUSH1 0x20 DUP3 ADD SWAP1 POP SWAP3 SWAP2 POP POP JUMP JUMPDEST DUP3 DUP2 DUP4 MCOPY PUSH0 DUP4 DUP4 ADD MSTORE POP POP POP JUMP JUMPDEST PUSH0 PUSH2 0x2131 DUP3 PUSH2 0x20FF JUMP JUMPDEST PUSH2 0x213B DUP2 DUP6 PUSH2 0x2109 JUMP JUMPDEST SWAP4 POP PUSH2 0x214B DUP2 DUP6 PUSH1 0x20 DUP7 ADD PUSH2 0x2119 JUMP JUMPDEST PUSH2 0x2154 DUP2 PUSH2 0x1F5C JUMP JUMPDEST DUP5 ADD SWAP2 POP POP SWAP3 SWAP2 POP POP JUMP JUMPDEST PUSH0 DUP2 MLOAD SWAP1 POP SWAP2 SWAP1 POP JUMP JUMPDEST PUSH0 DUP3 DUP3 MSTORE PUSH1 0x20 DUP3 ADD SWAP1 POP SWAP3 SWAP2 POP POP JUMP JUMPDEST PUSH0 DUP2 SWAP1 POP PUSH1 0x20 DUP3 ADD SWAP1 POP SWAP2 SWAP1 POP JUMP JUMPDEST PUSH1 0x40 DUP3 ADD PUSH0 DUP3 ADD MLOAD PUSH2 0x219C PUSH0 DUP6 ADD DUP3 PUSH2 0x1D2B JUMP JUMPDEST POP PUSH1 0x20 DUP3 ADD MLOAD PUSH2 0x21AF PUSH1 0x20 DUP6 ADD DUP3 PUSH2 0x1D62 JUMP JUMPDEST POP POP POP POP JUMP JUMPDEST PUSH0 PUSH2 0x21C0 DUP4 DUP4 PUSH2 0x2188 JUMP JUMPDEST PUSH1 0x40 DUP4 ADD SWAP1 POP SWAP3 SWAP2 POP POP JUMP JUMPDEST PUSH0 PUSH1 0x20 DUP3 ADD SWAP1 POP SWAP2 SWAP1 POP JUMP JUMPDEST PUSH0 PUSH2 0x21E2 DUP3 PUSH2 0x215F JUMP JUMPDEST PUSH2 0x21EC DUP2 DUP6 PUSH2 0x2169 JUMP JUMPDEST SWAP4 POP PUSH2 0x21F7 DUP4 PUSH2 0x2179 JUMP JUMPDEST DUP1 PUSH0 JUMPDEST DUP4 DUP2 LT ISZERO PUSH2 0x2227 JUMPI DUP2 MLOAD PUSH2 0x220E DUP9 DUP3 PUSH2 0x21B5 JUMP JUMPDEST SWAP8 POP PUSH2 0x2219 DUP4 PUSH2 0x21CC JUMP JUMPDEST SWAP3 POP POP PUSH1 0x1 DUP2 ADD SWAP1 POP PUSH2 0x21FA JUMP JUMPDEST POP DUP6 SWAP4 POP POP POP POP SWAP3 SWAP2 POP POP JUMP JUMPDEST PUSH0 PUSH1 0x60 DUP4 ADD PUSH0 DUP4 ADD MLOAD DUP5 DUP3 SUB PUSH0 DUP7 ADD MSTORE PUSH2 0x224E DUP3 DUP3 PUSH2 0x2127 JUMP JUMPDEST SWAP2 POP POP PUSH1 0x20 DUP4 ADD MLOAD DUP5 DUP3 SUB PUSH1 0x20 DUP7 ADD MSTORE PUSH2 0x2268 DUP3 DUP3 PUSH2 0x2127 JUMP JUMPDEST SWAP2 POP POP PUSH1 0x40 DUP4 ADD MLOAD DUP5 DUP3 SUB PUSH1 0x40 DUP7 ADD MSTORE PUSH2 0x2282 DUP3 DUP3 PUSH2 0x21D8 JUMP JUMPDEST SWAP2 POP POP DUP1 SWAP2 POP POP SWAP3 SWAP2 POP POP JUMP JUMPDEST PUSH0 DUP2 MLOAD SWAP1 POP SWAP2 SWAP1 POP JUMP JUMPDEST PUSH0 DUP3 DUP3 MSTORE PUSH1 0x20 DUP3 ADD SWAP1 POP SWAP3 SWAP2 POP POP JUMP JUMPDEST PUSH0 DUP2 SWAP1 POP PUSH1 0x20 DUP3 ADD SWAP1 POP SWAP2 SWAP1 POP JUMP JUMPDEST PUSH2 0x100 DUP3 ADD PUSH0 DUP3 ADD MLOAD PUSH2 0x22CD PUSH0 DUP6 ADD DUP3 PUSH2 0x1D2B JUMP JUMPDEST POP PUSH1 0x20 DUP3 ADD MLOAD PUSH2 0x22E0 PUSH1 0x20 DUP6 ADD DUP3 PUSH2 0x1D46 JUMP JUMPDEST POP PUSH1 0x40 DUP3 ADD MLOAD PUSH2 0x22F3 PUSH1 0x40 DUP6 ADD DUP3 PUSH2 0x1D62 JUMP JUMPDEST POP PUSH1 0x60 DUP3 ADD MLOAD PUSH2 0x2306 PUSH1 0x60 DUP6 ADD DUP3 PUSH2 0x1D71 JUMP JUMPDEST POP PUSH1 0x80 DUP3 ADD MLOAD PUSH2 0x2319 PUSH1 0x80 DUP6 ADD DUP3 PUSH2 0x1D71 JUMP JUMPDEST POP PUSH1 0xA0 DUP3 ADD MLOAD PUSH2 0x232C PUSH1 0xA0 DUP6 ADD DUP3 PUSH2 0x1D71 JUMP JUMPDEST POP PUSH1 0xC0 DUP3 ADD MLOAD PUSH2 0x233F PUSH1 0xC0 DUP6 ADD DUP3 PUSH2 0x1D71 JUMP JUMPDEST POP PUSH1 0xE0 DUP3 ADD MLOAD PUSH2 0x2352 PUSH1 0xE0 DUP6 ADD DUP3 PUSH2 0x1D71 JUMP JUMPDEST POP POP POP POP JUMP JUMPDEST PUSH0 PUSH2 0x2363 DUP4 DUP4 PUSH2 0x22B8 JUMP JUMPDEST PUSH2 0x100 DUP4 ADD SWAP1 POP SWAP3 SWAP2 POP POP JUMP JUMPDEST PUSH0 PUSH1 0x20 DUP3 ADD SWAP1 POP SWAP2 SWAP1 POP JUMP JUMPDEST PUSH0 PUSH2 0x2386 DUP3 PUSH2 0x228F JUMP JUMPDEST PUSH2 0x2390 DUP2 DUP6 PUSH2 0x2299 JUMP JUMPDEST SWAP4 POP PUSH2 0x239B DUP4 PUSH2 0x22A9 JUMP JUMPDEST DUP1 PUSH0 JUMPDEST DUP4 DUP2 LT ISZERO PUSH2 0x23CB JUMPI DUP2 MLOAD PUSH2 0x23B2 DUP9 DUP3 PUSH2 0x2358 JUMP JUMPDEST SWAP8 POP PUSH2 0x23BD DUP4 PUSH2 0x2370 JUMP JUMPDEST SWAP3 POP POP PUSH1 0x1 DUP2 ADD SWAP1 POP PUSH2 0x239E JUMP JUMPDEST POP DUP6 SWAP4 POP POP POP POP SWAP3 SWAP2 POP POP JUMP JUMPDEST PUSH0 PUSH2 0x180 DUP3 ADD SWAP1 POP DUP2 DUP2 SUB PUSH0 DUP4 ADD MSTORE PUSH2 0x23F1 DUP2 DUP9 PUSH2 0x2234 JUMP JUMPDEST SWAP1 POP PUSH2 0x2400 PUSH1 0x20 DUP4 ADD DUP8 PUSH2 0x1ED3 JUMP JUMPDEST DUP2 DUP2 SUB PUSH2 0x120 DUP4 ADD MSTORE PUSH2 0x2413 DUP2 DUP7 PUSH2 0x237C JUMP JUMPDEST SWAP1 POP PUSH2 0x2423 PUSH2 0x140 DUP4 ADD DUP6 PUSH2 0x1CAA JUMP JUMPDEST PUSH2 0x2431 PUSH2 0x160 DUP4 ADD DUP5 PUSH2 0x1CAA JUMP JUMPDEST SWAP7 SWAP6 POP POP POP POP POP POP JUMP JUMPDEST PUSH0 DUP2 SWAP1 POP SWAP2 SWAP1 POP JUMP JUMPDEST PUSH0 PUSH2 0x245E PUSH2 0x2459 PUSH2 0x2454 DUP5 PUSH2 0x1CFB JUMP JUMPDEST PUSH2 0x243B JUMP JUMPDEST PUSH2 0x1CFB JUMP JUMPDEST SWAP1 POP SWAP2 SWAP1 POP JUMP JUMPDEST PUSH0 PUSH2 0x246F DUP3 PUSH2 0x2444 JUMP JUMPDEST SWAP1 POP SWAP2 SWAP1 POP JUMP JUMPDEST PUSH0 PUSH2 0x2480 DUP3 PUSH2 0x2465 JUMP JUMPDEST SWAP1 POP SWAP2 SWAP1 POP JUMP JUMPDEST PUSH2 0x2490 DUP2 PUSH2 0x2476 JUMP JUMPDEST DUP3 MSTORE POP POP JUMP JUMPDEST PUSH0 PUSH1 0x20 DUP3 ADD SWAP1 POP PUSH2 0x24A9 PUSH0 DUP4 ADD DUP5 PUSH2 0x2487 JUMP JUMPDEST SWAP3 SWAP2 POP POP JUMP JUMPDEST PUSH0 PUSH1 0x40 DUP3 ADD SWAP1 POP PUSH2 0x24C2 PUSH0 DUP4 ADD DUP6 PUSH2 0x1CAA JUMP JUMPDEST PUSH2 0x24CF PUSH1 0x20 DUP4 ADD DUP5 PUSH2 0x1CAA JUMP JUMPDEST SWAP4 SWAP3 POP POP POP JUMP JUMPDEST PUSH2 0x24DF DUP2 PUSH2 0x1D1A JUMP JUMPDEST DUP2 EQ PUSH2 0x24E9 JUMPI PUSH0 PUSH0 REVERT JUMPDEST POP JUMP JUMPDEST PUSH0 DUP2 CALLDATALOAD SWAP1 POP PUSH2 0x24FA DUP2 PUSH2 0x24D6 JUMP JUMPDEST SWAP3 SWAP2 POP POP JUMP JUMPDEST PUSH0 PUSH1 0x20 DUP3 DUP5 SUB SLT ISZERO PUSH2 0x2515 JUMPI PUSH2 0x2514 PUSH2 0x1C44 JUMP JUMPDEST JUMPDEST PUSH0 PUSH2 0x2522 DUP5 DUP3 DUP6 ADD PUSH2 0x24EC JUMP JUMPDEST SWAP2 POP POP SWAP3 SWAP2 POP POP JUMP JUMPDEST PUSH0 PUSH1 0x60 DUP3 ADD SWAP1 POP DUP2 DUP2 SUB PUSH0 DUP4 ADD MSTORE PUSH2 0x2543 DUP2 DUP7 PUSH2 0x237C JUMP JUMPDEST SWAP1 POP PUSH2 0x2552 PUSH1 0x20 DUP4 ADD DUP6 PUSH2 0x1CAA JUMP JUMPDEST PUSH2 0x255F PUSH1 0x40 DUP4 ADD DUP5 PUSH2 0x1CAA JUMP JUMPDEST SWAP5 SWAP4 POP POP POP POP JUMP JUMPDEST PUSH0 PUSH0 REVERT JUMPDEST PUSH0 PUSH0 REVERT JUMPDEST PUSH0 PUSH8 0xFFFFFFFFFFFFFFFF DUP3 GT ISZERO PUSH2 0x2589 JUMPI PUSH2 0x2588 PUSH2 0x1F6C JUMP JUMPDEST JUMPDEST PUSH1 0x20 DUP3 MUL SWAP1 POP PUSH1 0x20 DUP2 ADD SWAP1 POP SWAP2 SWAP1 POP JUMP JUMPDEST PUSH0 PUSH0 REVERT JUMPDEST PUSH2 0x25A7 DUP2 PUSH2 0x1D55 JUMP JUMPDEST DUP2 EQ PUSH2 0x25B1 JUMPI PUSH0 PUSH0 REVERT JUMPDEST POP JUMP JUMPDEST PUSH0 DUP2 CALLDATALOAD SWAP1 POP PUSH2 0x25C2 DUP2 PUSH2 0x259E JUMP JUMPDEST SWAP3 SWAP2 POP POP JUMP JUMPDEST PUSH0 PUSH1 0x40 DUP3 DUP5 SUB SLT ISZERO PUSH2 0x25DD JUMPI PUSH2 0x25DC PUSH2 0x2567 JUMP JUMPDEST JUMPDEST PUSH2 0x25E7 PUSH1 0x40 PUSH2 0x1FCA JUMP JUMPDEST SWAP1 POP PUSH0 PUSH2 0x25F6 DUP5 DUP3 DUP6 ADD PUSH2 0x24EC JUMP JUMPDEST PUSH0 DUP4 ADD MSTORE POP PUSH1 0x20 PUSH2 0x2609 DUP5 DUP3 DUP6 ADD PUSH2 0x25B4 JUMP JUMPDEST PUSH1 0x20 DUP4 ADD MSTORE POP SWAP3 SWAP2 POP POP JUMP JUMPDEST PUSH0 PUSH2 0x2627 PUSH2 0x2622 DUP5 PUSH2 0x256F JUMP JUMPDEST PUSH2 0x1FCA JUMP JUMPDEST SWAP1 POP DUP1 DUP4 DUP3 MSTORE PUSH1 0x20 DUP3 ADD SWAP1 POP PUSH1 0x40 DUP5 MUL DUP4 ADD DUP6 DUP2 GT ISZERO PUSH2 0x264A JUMPI PUSH2 0x2649 PUSH2 0x259A JUMP JUMPDEST JUMPDEST DUP4 JUMPDEST DUP2 DUP2 LT ISZERO PUSH2 0x2673 JUMPI DUP1 PUSH2 0x265F DUP9 DUP3 PUSH2 0x25C8 JUMP JUMPDEST DUP5 MSTORE PUSH1 0x20 DUP5 ADD SWAP4 POP POP PUSH1 0x40 DUP2 ADD SWAP1 POP PUSH2 0x264C JUMP JUMPDEST POP POP POP SWAP4 SWAP3 POP POP POP JUMP JUMPDEST PUSH0 DUP3 PUSH1 0x1F DUP4 ADD SLT PUSH2 0x2691 JUMPI PUSH2 0x2690 PUSH2 0x1F54 JUMP JUMPDEST JUMPDEST DUP2 CALLDATALOAD PUSH2 0x26A1 DUP5 DUP3 PUSH1 0x20 DUP7 ADD PUSH2 0x2615 JUMP JUMPDEST SWAP2 POP POP SWAP3 SWAP2 POP POP JUMP JUMPDEST PUSH0 PUSH1 0x60 DUP3 DUP5 SUB SLT ISZERO PUSH2 0x26BF JUMPI PUSH2 0x26BE PUSH2 0x2567 JUMP JUMPDEST JUMPDEST PUSH2 0x26C9 PUSH1 0x60 PUSH2 0x1FCA JUMP JUMPDEST SWAP1 POP PUSH0 DUP3 ADD CALLDATALOAD PUSH8 0xFFFFFFFFFFFFFFFF DUP2 GT ISZERO PUSH2 0x26E8 JUMPI PUSH2 0x26E7 PUSH2 0x256B JUMP JUMPDEST JUMPDEST PUSH2 0x26F4 DUP5 DUP3 DUP6 ADD PUSH2 0x2063 JUMP JUMPDEST PUSH0 DUP4 ADD MSTORE POP PUSH1 0x20 DUP3 ADD CALLDATALOAD PUSH8 0xFFFFFFFFFFFFFFFF DUP2 GT ISZERO PUSH2 0x2717 JUMPI PUSH2 0x2716 PUSH2 0x256B JUMP JUMPDEST JUMPDEST PUSH2 0x2723 DUP5 DUP3 DUP6 ADD PUSH2 0x2063 JUMP JUMPDEST PUSH1 0x20 DUP4 ADD MSTORE POP PUSH1 0x40 DUP3 ADD CALLDATALOAD PUSH8 0xFFFFFFFFFFFFFFFF DUP2 GT ISZERO PUSH2 0x2747 JUMPI PUSH2 0x2746 PUSH2 0x256B JUMP JUMPDEST JUMPDEST PUSH2 0x2753 DUP5 DUP3 DUP6 ADD PUSH2 0x267D JUMP JUMPDEST PUSH1 0x40 DUP4 ADD MSTORE POP SWAP3 SWAP2 POP POP JUMP JUMPDEST PUSH0 PUSH0 PUSH1 0x40 DUP4 DUP6 SUB SLT ISZERO PUSH2 0x2775 JUMPI PUSH2 0x2774 PUSH2 0x1C44 JUMP JUMPDEST JUMPDEST PUSH0 DUP4 ADD CALLDATALOAD PUSH8 0xFFFFFFFFFFFFFFFF DUP2 GT ISZERO PUSH2 0x2792 JUMPI PUSH2 0x2791 PUSH2 0x1C48 JUMP JUMPDEST JUMPDEST PUSH2 0x279E DUP6 DUP3 DUP7 ADD PUSH2 0x26AA JUMP JUMPDEST SWAP3 POP POP PUSH1 0x20 PUSH2 0x27AF DUP6 DUP3 DUP7 ADD PUSH2 0x24EC JUMP JUMPDEST SWAP2 POP POP SWAP3 POP SWAP3 SWAP1 POP JUMP JUMPDEST PUSH0 PUSH2 0x27CB PUSH2 0x27C6 DUP5 PUSH2 0x1FE4 JUMP JUMPDEST PUSH2 0x1FCA JUMP JUMPDEST SWAP1 POP DUP3 DUP2 MSTORE PUSH1 0x20 DUP2 ADD DUP5 DUP5 DUP5 ADD GT ISZERO PUSH2 0x27E7 JUMPI PUSH2 0x27E6 PUSH2 0x1F58 JUMP JUMPDEST JUMPDEST PUSH2 0x27F2 DUP5 DUP3 DUP6 PUSH2 0x2119 JUMP JUMPDEST POP SWAP4 SWAP3 POP POP POP JUMP JUMPDEST PUSH0 DUP3 PUSH1 0x1F DUP4 ADD SLT PUSH2 0x280E JUMPI PUSH2 0x280D PUSH2 0x1F54 JUMP JUMPDEST JUMPDEST DUP2 MLOAD PUSH2 0x281E DUP5 DUP3 PUSH1 0x20 DUP7 ADD PUSH2 0x27B9 JUMP JUMPDEST SWAP2 POP POP SWAP3 SWAP2 POP POP JUMP JUMPDEST PUSH0 DUP2 MLOAD SWAP1 POP PUSH2 0x2835 DUP2 PUSH2 0x24D6 JUMP JUMPDEST SWAP3 SWAP2 POP POP JUMP JUMPDEST PUSH0 DUP2 MLOAD SWAP1 POP PUSH2 0x2849 DUP2 PUSH2 0x259E JUMP JUMPDEST SWAP3 SWAP2 POP POP JUMP JUMPDEST PUSH0 PUSH1 0x40 DUP3 DUP5 SUB SLT ISZERO PUSH2 0x2864 JUMPI PUSH2 0x2863 PUSH2 0x2567 JUMP JUMPDEST JUMPDEST PUSH2 0x286E PUSH1 0x40 PUSH2 0x1FCA JUMP JUMPDEST SWAP1 POP PUSH0 PUSH2 0x287D DUP5 DUP3 DUP6 ADD PUSH2 0x2827 JUMP JUMPDEST PUSH0 DUP4 ADD MSTORE POP PUSH1 0x20 PUSH2 0x2890 DUP5 DUP3 DUP6 ADD PUSH2 0x283B JUMP JUMPDEST PUSH1 0x20 DUP4 ADD MSTORE POP SWAP3 SWAP2 POP POP JUMP JUMPDEST PUSH0 PUSH2 0x28AE PUSH2 0x28A9 DUP5 PUSH2 0x256F JUMP JUMPDEST PUSH2 0x1FCA JUMP JUMPDEST SWAP1 POP DUP1 DUP4 DUP3 MSTORE PUSH1 0x20 DUP3 ADD SWAP1 POP PUSH1 0x40 DUP5 MUL DUP4 ADD DUP6 DUP2 GT ISZERO PUSH2 0x28D1 JUMPI PUSH2 0x28D0 PUSH2 0x259A JUMP JUMPDEST JUMPDEST DUP4 JUMPDEST DUP2 DUP2 LT ISZERO PUSH2 0x28FA JUMPI DUP1 PUSH2 0x28E6 DUP9 DUP3 PUSH2 0x284F JUMP JUMPDEST DUP5 MSTORE PUSH1 0x20 DUP5 ADD SWAP4 POP POP PUSH1 0x40 DUP2 ADD SWAP1 POP PUSH2 0x28D3 JUMP JUMPDEST POP POP POP SWAP4 SWAP3 POP POP POP JUMP JUMPDEST PUSH0 DUP3 PUSH1 0x1F DUP4 ADD SLT PUSH2 0x2918 JUMPI PUSH2 0x2917 PUSH2 0x1F54 JUMP JUMPDEST JUMPDEST DUP2 MLOAD PUSH2 0x2928 DUP5 DUP3 PUSH1 0x20 DUP7 ADD PUSH2 0x289C JUMP JUMPDEST SWAP2 POP POP SWAP3 SWAP2 POP POP JUMP JUMPDEST PUSH0 PUSH1 0x60 DUP3 DUP5 SUB SLT ISZERO PUSH2 0x2946 JUMPI PUSH2 0x2945 PUSH2 0x2567 JUMP JUMPDEST JUMPDEST PUSH2 0x2950 PUSH1 0x60 PUSH2 0x1FCA JUMP JUMPDEST SWAP1 POP PUSH0 DUP3 ADD MLOAD PUSH8 0xFFFFFFFFFFFFFFFF DUP2 GT ISZERO PUSH2 0x296F JUMPI PUSH2 0x296E PUSH2 0x256B JUMP JUMPDEST JUMPDEST PUSH2 0x297B DUP5 DUP3 DUP6 ADD PUSH2 0x27FA JUMP JUMPDEST PUSH0 DUP4 ADD MSTORE POP PUSH1 0x20 DUP3 ADD MLOAD PUSH8 0xFFFFFFFFFFFFFFFF DUP2 GT ISZERO PUSH2 0x299E JUMPI PUSH2 0x299D PUSH2 0x256B JUMP JUMPDEST JUMPDEST PUSH2 0x29AA DUP5 DUP3 DUP6 ADD PUSH2 0x27FA JUMP JUMPDEST PUSH1 0x20 DUP4 ADD MSTORE POP PUSH1 0x40 DUP3 ADD MLOAD PUSH8 0xFFFFFFFFFFFFFFFF DUP2 GT ISZERO PUSH2 0x29CE JUMPI PUSH2 0x29CD PUSH2 0x256B JUMP JUMPDEST JUMPDEST PUSH2 0x29DA DUP5 DUP3 DUP6 ADD PUSH2 0x2904 JUMP JUMPDEST PUSH1 0x40 DUP4 ADD MSTORE POP SWAP3 SWAP2 POP POP JUMP JUMPDEST PUSH0 PUSH0 PUSH1 0x40 DUP4 DUP6 SUB SLT ISZERO PUSH2 0x29FC JUMPI PUSH2 0x29FB PUSH2 0x1C44 JUMP JUMPDEST JUMPDEST PUSH0 DUP4 ADD MLOAD PUSH8 0xFFFFFFFFFFFFFFFF DUP2 GT ISZERO PUSH2 0x2A19 JUMPI PUSH2 0x2A18 PUSH2 0x1C48 JUMP JUMPDEST JUMPDEST PUSH2 0x2A25 DUP6 DUP3 DUP7 ADD PUSH2 0x2931 JUMP JUMPDEST SWAP3 POP POP PUSH1 0x20 PUSH2 0x2A36 DUP6 DUP3 DUP7 ADD PUSH2 0x2827 JUMP JUMPDEST SWAP2 POP POP SWAP3 POP SWAP3 SWAP1 POP JUMP JUMPDEST PUSH0 DUP3 DUP3 MSTORE PUSH1 0x20 DUP3 ADD SWAP1 POP SWAP3 SWAP2 POP POP JUMP JUMPDEST PUSH0 PUSH2 0x2A5A DUP3 PUSH2 0x20FF JUMP JUMPDEST PUSH2 0x2A64 DUP2 DUP6 PUSH2 0x2A40 JUMP JUMPDEST SWAP4 POP PUSH2 0x2A74 DUP2 DUP6 PUSH1 0x20 DUP7 ADD PUSH2 0x2119 JUMP JUMPDEST PUSH2 0x2A7D DUP2 PUSH2 0x1F5C JUMP JUMPDEST DUP5 ADD SWAP2 POP POP SWAP3 SWAP2 POP POP JUMP JUMPDEST PUSH0 PUSH1 0x20 DUP3 ADD SWAP1 POP DUP2 DUP2 SUB PUSH0 DUP4 ADD MSTORE PUSH2 0x2AA0 DUP2 DUP5 PUSH2 0x2A50 JUMP JUMPDEST SWAP1 POP SWAP3 SWAP2 POP POP JUMP JUMPDEST PUSH0 PUSH1 0x20 DUP3 DUP5 SUB SLT ISZERO PUSH2 0x2ABD JUMPI PUSH2 0x2ABC PUSH2 0x1C44 JUMP JUMPDEST JUMPDEST PUSH0 PUSH2 0x2ACA DUP5 DUP3 DUP6 ADD PUSH2 0x2827 JUMP JUMPDEST SWAP2 POP POP SWAP3 SWAP2 POP POP JUMP JUMPDEST PUSH32 0x43616C6C6572206973206E6F7420746865206F776E6572000000000000000000 PUSH0 DUP3 ADD MSTORE POP JUMP JUMPDEST PUSH0 PUSH2 0x2B07 PUSH1 0x17 DUP4 PUSH2 0x2A40 JUMP JUMPDEST SWAP2 POP PUSH2 0x2B12 DUP3 PUSH2 0x2AD3 JUMP JUMPDEST PUSH1 0x20 DUP3 ADD SWAP1 POP SWAP2 SWAP1 POP JUMP JUMPDEST PUSH0 PUSH1 0x20 DUP3 ADD SWAP1 POP DUP2 DUP2 SUB PUSH0 DUP4 ADD MSTORE PUSH2 0x2B34 DUP2 PUSH2 0x2AFB JUMP JUMPDEST SWAP1 POP SWAP2 SWAP1 POP JUMP JUMPDEST PUSH0 DUP2 MLOAD SWAP1 POP PUSH2 0x2B49 DUP2 PUSH2 0x1C55 JUMP JUMPDEST SWAP3 SWAP2 POP POP JUMP JUMPDEST PUSH0 PUSH1 0x20 DUP3 DUP5 SUB SLT ISZERO PUSH2 0x2B64 JUMPI PUSH2 0x2B63 PUSH2 0x1C44 JUMP JUMPDEST JUMPDEST PUSH0 PUSH2 0x2B71 DUP5 DUP3 DUP6 ADD PUSH2 0x2B3B JUMP JUMPDEST SWAP2 POP POP SWAP3 SWAP2 POP POP JUMP JUMPDEST PUSH2 0x2B83 DUP2 PUSH2 0x1D3A JUMP JUMPDEST DUP2 EQ PUSH2 0x2B8D JUMPI PUSH0 PUSH0 REVERT JUMPDEST POP JUMP JUMPDEST PUSH0 DUP2 MLOAD SWAP1 POP PUSH2 0x2B9E DUP2 PUSH2 0x2B7A JUMP JUMPDEST SWAP3 SWAP2 POP POP JUMP JUMPDEST PUSH0 PUSH1 0x20 DUP3 DUP5 SUB SLT ISZERO PUSH2 0x2BB9 JUMPI PUSH2 0x2BB8 PUSH2 0x1C44 JUMP JUMPDEST JUMPDEST PUSH0 PUSH2 0x2BC6 DUP5 DUP3 DUP6 ADD PUSH2 0x2B90 JUMP JUMPDEST SWAP2 POP POP SWAP3 SWAP2 POP POP JUMP JUMPDEST PUSH32 0x4E487B7100000000000000000000000000000000000000000000000000000000 PUSH0 MSTORE PUSH1 0x32 PUSH1 0x4 MSTORE PUSH1 0x24 PUSH0 REVERT JUMPDEST PUSH32 0x4E487B7100000000000000000000000000000000000000000000000000000000 PUSH0 MSTORE PUSH1 0x12 PUSH1 0x4 MSTORE PUSH1 0x24 PUSH0 REVERT JUMPDEST PUSH0 PUSH0 PUSH1 0x40 DUP4 DUP6 SUB SLT ISZERO PUSH2 0x2C3F JUMPI PUSH2 0x2C3E PUSH2 0x1C44 JUMP JUMPDEST JUMPDEST PUSH0 PUSH2 0x2C4C DUP6 DUP3 DUP7 ADD PUSH2 0x2B3B JUMP JUMPDEST SWAP3 POP POP PUSH1 0x20 PUSH2 0x2C5D DUP6 DUP3 DUP7 ADD PUSH2 0x2B3B JUMP JUMPDEST SWAP2 POP POP SWAP3 POP SWAP3 SWAP1 POP JUMP JUMPDEST PUSH32 0x4469726563746F72792063616E6E6F74206265207A65726F2061646472657373 PUSH0 DUP3 ADD MSTORE POP JUMP JUMPDEST PUSH0 PUSH2 0x2C9B PUSH1 0x20 DUP4 PUSH2 0x2A40 JUMP JUMPDEST SWAP2 POP PUSH2 0x2CA6 DUP3 PUSH2 0x2C67 JUMP JUMPDEST PUSH1 0x20 DUP3 ADD SWAP1 POP SWAP2 SWAP1 POP JUMP JUMPDEST PUSH0 PUSH1 0x20 DUP3 ADD SWAP1 POP DUP2 DUP2 SUB PUSH0 DUP4 ADD MSTORE PUSH2 0x2CC8 DUP2 PUSH2 0x2C8F JUMP JUMPDEST SWAP1 POP SWAP2 SWAP1 POP JUMP JUMPDEST PUSH32 0x4469726563746F7279206D757374206265206120636F6E747261637400000000 PUSH0 DUP3 ADD MSTORE POP JUMP JUMPDEST PUSH0 PUSH2 0x2D03 PUSH1 0x1C DUP4 PUSH2 0x2A40 JUMP JUMPDEST SWAP2 POP PUSH2 0x2D0E DUP3 PUSH2 0x2CCF JUMP JUMPDEST PUSH1 0x20 DUP3 ADD SWAP1 POP SWAP2 SWAP1 POP JUMP JUMPDEST PUSH0 PUSH1 0x20 DUP3 ADD SWAP1 POP DUP2 DUP2 SUB PUSH0 DUP4 ADD MSTORE PUSH2 0x2D30 DUP2 PUSH2 0x2CF7 JUMP JUMPDEST SWAP1 POP SWAP2 SWAP1 POP JUMP JUMPDEST PUSH32 0x4469726563746F7279206164647265737320646F6573206E6F7420696D706C65 PUSH0 DUP3 ADD MSTORE PUSH32 0x6D656E74206F776E657228290000000000000000000000000000000000000000 PUSH1 0x20 DUP3 ADD MSTORE POP JUMP JUMPDEST PUSH0 PUSH2 0x2D91 PUSH1 0x2C DUP4 PUSH2 0x2A40 JUMP JUMPDEST SWAP2 POP PUSH2 0x2D9C DUP3 PUSH2 0x2D37 JUMP JUMPDEST PUSH1 0x40 DUP3 ADD SWAP1 POP SWAP2 SWAP1 POP JUMP JUMPDEST PUSH0 PUSH1 0x20 DUP3 ADD SWAP1 POP DUP2 DUP2 SUB PUSH0 DUP4 ADD MSTORE PUSH2 0x2DBE DUP2 PUSH2 0x2D85 JUMP JUMPDEST SWAP1 POP SWAP2 SWAP1 POP JUMP JUMPDEST PUSH32 0x4E487B7100000000000000000000000000000000000000000000000000000000 PUSH0 MSTORE PUSH1 0x11 PUSH1 0x4 MSTORE PUSH1 0x24 PUSH0 REVERT JUMPDEST PUSH0 PUSH2 0x2DFC DUP3 PUSH2 0x1C4C JUMP JUMPDEST SWAP2 POP PUSH2 0x2E07 DUP4 PUSH2 0x1C4C JUMP JUMPDEST SWAP3 POP DUP3 PUSH2 0x2E17 JUMPI PUSH2 0x2E16 PUSH2 0x2BFC JUMP JUMPDEST JUMPDEST DUP3 DUP3 DIV SWAP1 POP SWAP3 SWAP2 POP POP JUMP JUMPDEST PUSH0 PUSH2 0x2E2C DUP3 PUSH2 0x1D3A JUMP JUMPDEST SWAP2 POP PUSH2 0x2E37 DUP4 PUSH2 0x1D3A JUMP JUMPDEST SWAP3 POP DUP3 DUP3 SUB SWAP1 POP PUSH1 0xFF DUP2 GT ISZERO PUSH2 0x2E50 JUMPI PUSH2 0x2E4F PUSH2 0x2DC5 JUMP JUMPDEST JUMPDEST SWAP3 SWAP2 POP POP JUMP JUMPDEST PUSH32 0x6D756C446976206F766572666C6F770000000000000000000000000000000000 PUSH0 DUP3 ADD MSTORE POP JUMP JUMPDEST PUSH0 PUSH2 0x2E8A PUSH1 0xF DUP4 PUSH2 0x2A40 JUMP JUMPDEST SWAP2 POP PUSH2 0x2E95 DUP3 PUSH2 0x2E56 JUMP JUMPDEST PUSH1 0x20 DUP3 ADD SWAP1 POP SWAP2 SWAP1 POP JUMP JUMPDEST PUSH0 PUSH1 0x20 DUP3 ADD SWAP1 POP DUP2 DUP2 SUB PUSH0 DUP4 ADD MSTORE PUSH2 0x2EB7 DUP2 PUSH2 0x2E7E JUMP JUMPDEST SWAP1 POP SWAP2 SWAP1 POP JUMP JUMPDEST PUSH32 0x706F773130206F766572666C6F77000000000000000000000000000000000000 PUSH0 DUP3 ADD MSTORE POP JUMP JUMPDEST PUSH0 PUSH2 0x2EF2 PUSH1 0xE DUP4 PUSH2 0x2A40 JUMP JUMPDEST SWAP2 POP PUSH2 0x2EFD DUP3 PUSH2 0x2EBE JUMP JUMPDEST PUSH1 0x20 DUP3 ADD SWAP1 POP SWAP2 SWAP1 POP JUMP JUMPDEST PUSH0 PUSH1 0x20 DUP3 ADD SWAP1 POP DUP2 DUP2 SUB PUSH0 DUP4 ADD MSTORE PUSH2 0x2F1F DUP2 PUSH2 0x2EE6 JUMP JUMPDEST SWAP1 POP SWAP2 SWAP1 POP JUMP INVALID LOG2 PUSH5 0x6970667358 0x22 SLT KECCAK256 DUP3 0xC8 TIMESTAMP 0xD3 0xD0 NUMBER SWAP9 0xF 0xE8 PUSH17 0x8C98E9388D4F8432FA24C1722BEB32F15F 0xB6 CALLDATACOPY 0x21 0xC5 0xED PUSH5 0x736F6C6343 STOP ADDMOD 0x1E STOP CALLER "
		},
		"gasEstimates": {
			"creation": {
				"codeDepositCost": "2424800",
				"executionCost": "infinite",
				"totalCost": "infinite"
			},
			"external": {
				"Directory()": "infinite",
				"changeDirectoryAddress(address)": "infinite",
				"fetchFromDirectory(string)": "infinite",
				"getEtfDetails(uint256)": "infinite",
				"getEtfPrice(uint256)": "infinite",
				"getEtfStats(uint256)": "infinite",
				"getEtfUsdPrice(uint256)": "infinite",
				"getEtfWethPrice(uint256)": "infinite",
				"owner()": "infinite",
				"snapshotVault(uint256)": "infinite",
				"snapshotVaultUnchecked((string,string,(address,uint16)[]),address)": "infinite",
				"snapshotVaultWithUsd(uint256)": "infinite"
			}
		},
		"methodIdentifiers": {
			"Directory()": "658a847a",
			"changeDirectoryAddress(address)": "ba4c7be1",
			"fetchFromDirectory(string)": "27262618",
			"getEtfDetails(uint256)": "399a23da",
			"getEtfPrice(uint256)": "79de9e82",
			"getEtfStats(uint256)": "179b8f97",
			"getEtfUsdPrice(uint256)": "0705a3e8",
			"getEtfWethPrice(uint256)": "812efc8e",
			"owner()": "8da5cb5b",
			"snapshotVault(uint256)": "13290a89",
			"snapshotVaultUnchecked((string,string,(address,uint16)[]),address)": "ee0d96c5",
			"snapshotVaultWithUsd(uint256)": "cd8d334f"
		}
	},
	"abi": [
		{
			"inputs": [
				{
					"internalType": "address",
					"name": "_directory",
					"type": "address"
				}
			],
			"stateMutability": "nonpayable",
			"type": "constructor"
		},
		{
			"inputs": [],
			"name": "Directory",
			"outputs": [
				{
					"internalType": "contract IDirectory",
					"name": "",
					"type": "address"
				}
			],
			"stateMutability": "view",
			"type": "function"
		},
		{
			"inputs": [
				{
					"internalType": "address",
					"name": "_directory",
					"type": "address"
				}
			],
			"name": "changeDirectoryAddress",
			"outputs": [],
			"stateMutability": "nonpayable",
			"type": "function"
		},
		{
			"inputs": [
				{
					"internalType": "string",
					"name": "_key",
					"type": "string"
				}
			],
			"name": "fetchFromDirectory",
			"outputs": [
				{
					"internalType": "address",
					"name": "",
					"type": "address"
				}
			],
			"stateMutability": "view",
			"type": "function"
		},
		{
			"inputs": [
				{
					"internalType": "uint256",
					"name": "etfId",
					"type": "uint256"
				}
			],
			"name": "getEtfDetails",
			"outputs": [
				{
					"components": [
						{
							"internalType": "string",
							"name": "name",
							"type": "string"
						},
						{
							"internalType": "string",
							"name": "ticker",
							"type": "string"
						},
						{
							"components": [
								{
									"internalType": "address",
									"name": "tokenAddress",
									"type": "address"
								},
								{
									"internalType": "uint16",
									"name": "weightBips",
									"type": "uint16"
								}
							],
							"internalType": "struct Asset[]",
							"name": "assets",
							"type": "tuple[]"
						}
					],
					"internalType": "struct Etf",
					"name": "etf",
					"type": "tuple"
				},
				{
					"components": [
						{
							"components": [
								{
									"internalType": "uint256",
									"name": "eth18",
									"type": "uint256"
								},
								{
									"internalType": "uint256",
									"name": "usd18",
									"type": "uint256"
								}
							],
							"internalType": "struct EtfStats.EthUsd",
							"name": "price",
							"type": "tuple"
						},
						{
							"components": [
								{
									"internalType": "uint256",
									"name": "eth18",
									"type": "uint256"
								},
								{
									"internalType": "uint256",
									"name": "usd18",
									"type": "uint256"
								}
							],
							"internalType": "struct EtfStats.EthUsd",
							"name": "volume",
							"type": "tuple"
						},
						{
							"components": [
								{
									"internalType": "uint256",
									"name": "eth18",
									"type": "uint256"
								},
								{
									"internalType": "uint256",
									"name": "usd18",
									"type": "uint256"
								}
							],
							"internalType": "struct EtfStats.EthUsd",
							"name": "tvl",
							"type": "tuple"
						},
						{
							"internalType": "uint256",
							"name": "assetsLiquidityUsd",
							"type": "uint256"
						},
						{
							"internalType": "uint256",
							"name": "assetsMcapUsd",
							"type": "uint256"
						}
					],
					"internalType": "struct EtfStats.Stats",
					"name": "st",
					"type": "tuple"
				},
				{
					"components": [
						{
							"internalType": "address",
							"name": "tokenAddress",
							"type": "address"
						},
						{
							"internalType": "uint8",
							"name": "tokenDecimals",
							"type": "uint8"
						},
						{
							"internalType": "uint16",
							"name": "currentWeight",
							"type": "uint16"
						},
						{
							"internalType": "uint256",
							"name": "tokenRawBalance",
							"type": "uint256"
						},
						{
							"internalType": "uint256",
							"name": "tokenPriceWeth18",
							"type": "uint256"
						},
						{
							"internalType": "uint256",
							"name": "tokenPriceUsd18",
							"type": "uint256"
						},
						{
							"internalType": "uint256",
							"name": "tokenValueWeth18",
							"type": "uint256"
						},
						{
							"internalType": "uint256",
							"name": "tokenValueUsd18",
							"type": "uint256"
						}
					],
					"internalType": "struct SnapshotWithUsd[]",
					"name": "sn",
					"type": "tuple[]"
				},
				{
					"internalType": "uint256",
					"name": "etfTvlWeth",
					"type": "uint256"
				},
				{
					"internalType": "uint256",
					"name": "etfTvlUsd",
					"type": "uint256"
				}
			],
			"stateMutability": "view",
			"type": "function"
		},
		{
			"inputs": [
				{
					"internalType": "uint256",
					"name": "etfId",
					"type": "uint256"
				}
			],
			"name": "getEtfPrice",
			"outputs": [
				{
					"internalType": "uint256",
					"name": "wethPrice18",
					"type": "uint256"
				},
				{
					"internalType": "uint256",
					"name": "usdPrice18",
					"type": "uint256"
				}
			],
			"stateMutability": "view",
			"type": "function"
		},
		{
			"inputs": [
				{
					"internalType": "uint256",
					"name": "etfId",
					"type": "uint256"
				}
			],
			"name": "getEtfStats",
			"outputs": [
				{
					"components": [
						{
							"components": [
								{
									"internalType": "uint256",
									"name": "eth18",
									"type": "uint256"
								},
								{
									"internalType": "uint256",
									"name": "usd18",
									"type": "uint256"
								}
							],
							"internalType": "struct EtfStats.EthUsd",
							"name": "price",
							"type": "tuple"
						},
						{
							"components": [
								{
									"internalType": "uint256",
									"name": "eth18",
									"type": "uint256"
								},
								{
									"internalType": "uint256",
									"name": "usd18",
									"type": "uint256"
								}
							],
							"internalType": "struct EtfStats.EthUsd",
							"name": "volume",
							"type": "tuple"
						},
						{
							"components": [
								{
									"internalType": "uint256",
									"name": "eth18",
									"type": "uint256"
								},
								{
									"internalType": "uint256",
									"name": "usd18",
									"type": "uint256"
								}
							],
							"internalType": "struct EtfStats.EthUsd",
							"name": "tvl",
							"type": "tuple"
						},
						{
							"internalType": "uint256",
							"name": "assetsLiquidityUsd",
							"type": "uint256"
						},
						{
							"internalType": "uint256",
							"name": "assetsMcapUsd",
							"type": "uint256"
						}
					],
					"internalType": "struct EtfStats.Stats",
					"name": "s",
					"type": "tuple"
				}
			],
			"stateMutability": "view",
			"type": "function"
		},
		{
			"inputs": [
				{
					"internalType": "uint256",
					"name": "etfId",
					"type": "uint256"
				}
			],
			"name": "getEtfUsdPrice",
			"outputs": [
				{
					"internalType": "uint256",
					"name": "",
					"type": "uint256"
				}
			],
			"stateMutability": "view",
			"type": "function"
		},
		{
			"inputs": [
				{
					"internalType": "uint256",
					"name": "etfId",
					"type": "uint256"
				}
			],
			"name": "getEtfWethPrice",
			"outputs": [
				{
					"internalType": "uint256",
					"name": "",
					"type": "uint256"
				}
			],
			"stateMutability": "view",
			"type": "function"
		},
		{
			"inputs": [],
			"name": "owner",
			"outputs": [
				{
					"internalType": "address",
					"name": "",
					"type": "address"
				}
			],
			"stateMutability": "view",
			"type": "function"
		},
		{
			"inputs": [
				{
					"internalType": "uint256",
					"name": "etfId",
					"type": "uint256"
				}
			],
			"name": "snapshotVault",
			"outputs": [
				{
					"components": [
						{
							"internalType": "address",
							"name": "tokenAddress",
							"type": "address"
						},
						{
							"internalType": "uint8",
							"name": "tokenDecimals",
							"type": "uint8"
						},
						{
							"internalType": "uint16",
							"name": "currentWeight",
							"type": "uint16"
						},
						{
							"internalType": "uint256",
							"name": "tokenRawBalance",
							"type": "uint256"
						},
						{
							"internalType": "uint256",
							"name": "tokenPriceWeth18",
							"type": "uint256"
						},
						{
							"internalType": "uint256",
							"name": "tokenValueWeth18",
							"type": "uint256"
						}
					],
					"internalType": "struct Snapshot[]",
					"name": "s",
					"type": "tuple[]"
				},
				{
					"internalType": "uint256",
					"name": "etfTvlWeth",
					"type": "uint256"
				}
			],
			"stateMutability": "view",
			"type": "function"
		},
		{
			"inputs": [
				{
					"components": [
						{
							"internalType": "string",
							"name": "name",
							"type": "string"
						},
						{
							"internalType": "string",
							"name": "ticker",
							"type": "string"
						},
						{
							"components": [
								{
									"internalType": "address",
									"name": "tokenAddress",
									"type": "address"
								},
								{
									"internalType": "uint16",
									"name": "weightBips",
									"type": "uint16"
								}
							],
							"internalType": "struct Asset[]",
							"name": "assets",
							"type": "tuple[]"
						}
					],
					"internalType": "struct Etf",
					"name": "etf",
					"type": "tuple"
				},
				{
					"internalType": "address",
					"name": "vaultAddress",
					"type": "address"
				}
			],
			"name": "snapshotVaultUnchecked",
			"outputs": [
				{
					"components": [
						{
							"internalType": "address",
							"name": "tokenAddress",
							"type": "address"
						},
						{
							"internalType": "uint8",
							"name": "tokenDecimals",
							"type": "uint8"
						},
						{
							"internalType": "uint16",
							"name": "currentWeight",
							"type": "uint16"
						},
						{
							"internalType": "uint256",
							"name": "tokenRawBalance",
							"type": "uint256"
						},
						{
							"internalType": "uint256",
							"name": "tokenPriceWeth18",
							"type": "uint256"
						},
						{
							"internalType": "uint256",
							"name": "tokenValueWeth18",
							"type": "uint256"
						}
					],
					"internalType": "struct Snapshot[]",
					"name": "s",
					"type": "tuple[]"
				},
				{
					"internalType": "uint256",
					"name": "etfTvlWeth",
					"type": "uint256"
				}
			],
			"stateMutability": "view",
			"type": "function"
		},
		{
			"inputs": [
				{
					"internalType": "uint256",
					"name": "etfId",
					"type": "uint256"
				}
			],
			"name": "snapshotVaultWithUsd",
			"outputs": [
				{
					"components": [
						{
							"internalType": "address",
							"name": "tokenAddress",
							"type": "address"
						},
						{
							"internalType": "uint8",
							"name": "tokenDecimals",
							"type": "uint8"
						},
						{
							"internalType": "uint16",
							"name": "currentWeight",
							"type": "uint16"
						},
						{
							"internalType": "uint256",
							"name": "tokenRawBalance",
							"type": "uint256"
						},
						{
							"internalType": "uint256",
							"name": "tokenPriceWeth18",
							"type": "uint256"
						},
						{
							"internalType": "uint256",
							"name": "tokenPriceUsd18",
							"type": "uint256"
						},
						{
							"internalType": "uint256",
							"name": "tokenValueWeth18",
							"type": "uint256"
						},
						{
							"internalType": "uint256",
							"name": "tokenValueUsd18",
							"type": "uint256"
						}
					],
					"internalType": "struct SnapshotWithUsd[]",
					"name": "s",
					"type": "tuple[]"
				},
				{
					"internalType": "uint256",
					"name": "etfTvlWeth",
					"type": "uint256"
				},
				{
					"internalType": "uint256",
					"name": "etfTvlUsd",
					"type": "uint256"
				}
			],
			"stateMutability": "view",
			"type": "function"
		}
	]
}