{
	"data": {
		"bytecode": {
			"linkReferences": {},
			"object": "608060405234801561000f575f5ffd5b50604051612f46380380612f4683398181016040528101906100319190610257565b806100418161004860201b60201c565b50506103f0565b5f73ffffffffffffffffffffffffffffffffffffffff168173ffffffffffffffffffffffffffffffffffffffff16036100b6576040517f08c379a00000000000000000000000000000000000000000000000000000000081526004016100ad906102dc565b60405180910390fd5b5f8173ffffffffffffffffffffffffffffffffffffffff163b1161010f576040517f08c379a000000000000000000000000000000000000000000000000000000000815260040161010690610344565b60405180910390fd5b8073ffffffffffffffffffffffffffffffffffffffff16638da5cb5b6040518163ffffffff1660e01b8152600401602060405180830381865afa92505050801561017757506040513d601f19601f820116820180604052508101906101749190610257565b60015b6101b6576040517f08c379a00000000000000000000000000000000000000000000000000000000081526004016101ad906103d2565b60405180910390fd5b815f5f6101000a81548173ffffffffffffffffffffffffffffffffffffffff021916908373ffffffffffffffffffffffffffffffffffffffff1602179055505050565b5f5ffd5b5f73ffffffffffffffffffffffffffffffffffffffff82169050919050565b5f610226826101fd565b9050919050565b6102368161021c565b8114610240575f5ffd5b50565b5f815190506102518161022d565b92915050565b5f6020828403121561026c5761026b6101f9565b5b5f61027984828501610243565b91505092915050565b5f82825260208201905092915050565b7f4469726563746f72792063616e6e6f74206265207a65726f20616464726573735f82015250565b5f6102c6602083610282565b91506102d182610292565b602082019050919050565b5f6020820190508181035f8301526102f3816102ba565b9050919050565b7f4469726563746f7279206d757374206265206120636f6e7472616374000000005f82015250565b5f61032e601c83610282565b9150610339826102fa565b602082019050919050565b5f6020820190508181035f83015261035b81610322565b9050919050565b7f4469726563746f7279206164647265737320646f6573206e6f7420696d706c655f8201527f6d656e74206f776e657228290000000000000000000000000000000000000000602082015250565b5f6103bc602c83610282565b91506103c782610362565b604082019050919050565b5f6020820190508181035f8301526103e9816103b0565b9050919050565b612b49806103fd5f395ff3fe608060405234801561000f575f5ffd5b506004361061009c575f3560e01c8063812efc8e11610064578063812efc8e1461017f5780638da5cb5b146101af578063ba4c7be1146101cd578063cd8d334f146101e9578063ee0d96c51461021b5761009c565b80630705a3e8146100a057806313290a89146100d05780632726261814610101578063658a847a146101315780637b3039651461014f575b5f5ffd5b6100ba60048036038101906100b59190611a6e565b61024c565b6040516100c79190611aa8565b60405180910390f35b6100ea60048036038101906100e59190611a6e565b6102f6565b6040516100f8929190611c67565b60405180910390f35b61011b60048036038101906101169190611dd1565b610396565b6040516101289190611e27565b60405180910390f35b610139610436565b6040516101469190611e9b565b60405180910390f35b61016960048036038101906101649190611a6e565b61045a565b6040516101769190611f48565b60405180910390f35b61019960048036038101906101949190611a6e565b6104fe565b6040516101a69190611aa8565b60405180910390f35b6101b761059b565b6040516101c49190611e27565b60405180910390f35b6101e760048036038101906101e29190611f8c565b61062e565b005b61020360048036038101906101fe9190611a6e565b610734565b60405161021293929190612100565b60405180910390f35b61023560048036038101906102309190612334565b6107d9565b604051610243929190611c67565b60405180910390f35b5f5f5f6102576107f1565b73ffffffffffffffffffffffffffffffffffffffff16633088f069856040518263ffffffff1660e01b815260040161028f9190611aa8565b5f60405180830381865afa1580156102a9573d5f5f3e3d5ffd5b505050506040513d5f823e3d601f19601f820116820180604052508101906102d191906125c9565b915091505f6102e1858484610835565b90506102ec81610a01565b9350505050919050565b60605f5f5f6103036107f1565b73ffffffffffffffffffffffffffffffffffffffff16633088f069866040518263ffffffff1660e01b815260040161033b9190611aa8565b5f60405180830381865afa158015610355573d5f5f3e3d5ffd5b505050506040513d5f823e3d601f19601f8201168201806040525081019061037d91906125c9565b9150915061038b8282610ab4565b935093505050915091565b5f5f5f9054906101000a900473ffffffffffffffffffffffffffffffffffffffff1673ffffffffffffffffffffffffffffffffffffffff166327262618836040518263ffffffff1660e01b81526004016103f09190612675565b602060405180830381865afa15801561040b573d5f5f3e3d5ffd5b505050506040513d601f19601f8201168201806040525081019061042f9190612695565b9050919050565b5f5f9054906101000a900473ffffffffffffffffffffffffffffffffffffffff1681565b61046261192c565b5f5f61046c6107f1565b73ffffffffffffffffffffffffffffffffffffffff16633088f069856040518263ffffffff1660e01b81526004016104a49190611aa8565b5f60405180830381865afa1580156104be573d5f5f3e3d5ffd5b505050506040513d5f823e3d601f19601f820116820180604052508101906104e691906125c9565b915091506104f5848383610dee565b92505050919050565b5f5f5f6105096107f1565b73ffffffffffffffffffffffffffffffffffffffff16633088f069856040518263ffffffff1660e01b81526004016105419190611aa8565b5f60405180830381865afa15801561055b573d5f5f3e3d5ffd5b505050506040513d5f823e3d601f19601f8201168201806040525081019061058391906125c9565b91509150610592848383610835565b92505050919050565b5f5f5f9054906101000a900473ffffffffffffffffffffffffffffffffffffffff1673ffffffffffffffffffffffffffffffffffffffff16638da5cb5b6040518163ffffffff1660e01b8152600401602060405180830381865afa158015610605573d5f5f3e3d5ffd5b505050506040513d601f19601f820116820180604052508101906106299190612695565b905090565b5f5f9054906101000a900473ffffffffffffffffffffffffffffffffffffffff1673ffffffffffffffffffffffffffffffffffffffff16638da5cb5b6040518163ffffffff1660e01b8152600401602060405180830381865afa158015610697573d5f5f3e3d5ffd5b505050506040513d601f19601f820116820180604052508101906106bb9190612695565b73ffffffffffffffffffffffffffffffffffffffff163373ffffffffffffffffffffffffffffffffffffffff1614610728576040517f08c379a000000000000000000000000000000000000000000000000000000000815260040161071f9061270a565b60405180910390fd5b61073181610f78565b50565b60605f5f5f5f6107426107f1565b73ffffffffffffffffffffffffffffffffffffffff16633088f069876040518263ffffffff1660e01b815260040161077a9190611aa8565b5f60405180830381865afa158015610794573d5f5f3e3d5ffd5b505050506040513d5f823e3d601f19601f820116820180604052508101906107bc91906125c9565b915091506107ca8282611129565b94509450945050509193909250565b60605f6107e68484610ab4565b915091509250929050565b5f6108306040518060400160405280600b81526020017f6574662d666163746f7279000000000000000000000000000000000000000000815250610396565b905090565b5f5f61083f6107f1565b73ffffffffffffffffffffffffffffffffffffffff1663f2018a1f866040518263ffffffff1660e01b81526004016108779190611aa8565b602060405180830381865afa158015610892573d5f5f3e3d5ffd5b505050506040513d601f19601f820116820180604052508101906108b69190612695565b90505f8173ffffffffffffffffffffffffffffffffffffffff166318160ddd6040518163ffffffff1660e01b8152600401602060405180830381865afa158015610902573d5f5f3e3d5ffd5b505050506040513d601f19601f82011682018060405250810190610926919061273c565b90505f8273ffffffffffffffffffffffffffffffffffffffff1663313ce5676040518163ffffffff1660e01b8152600401602060405180830381865afa158015610972573d5f5f3e3d5ffd5b505050506040513d601f19601f820116820180604052508101906109969190612791565b90505f82036109b2576109a88661133d565b93505050506109fa565b5f6109bd8383611472565b90505f81036109d2575f9450505050506109fa565b5f6109dd88886114dd565b90506109f281670de0b6b3a7640000846116d7565b955050505050505b9392505050565b5f5f8203610a11575f9050610aaf565b5f610a1a6117e1565b73ffffffffffffffffffffffffffffffffffffffff16636855e9396040518163ffffffff1660e01b8152600401602060405180830381865afa158015610a62573d5f5f3e3d5ffd5b505050506040513d601f19601f82011682018060405250810190610a86919061273c565b90505f8103610a98575f915050610aaf565b610aab8382670de0b6b3a76400006116d7565b9150505b919050565b60605f5f84604001515190508067ffffffffffffffff811115610ada57610ad9611cad565b5b604051908082528060200260200182016040528015610b1357816020015b610b0061196b565b815260200190600190039081610af85790505b5092505f610b1f6117e1565b90505f5f90505b82811015610d62575f87604001518281518110610b4657610b456127bc565b5b60200260200101515f015190505f8173ffffffffffffffffffffffffffffffffffffffff1663313ce5676040518163ffffffff1660e01b8152600401602060405180830381865afa158015610b9d573d5f5f3e3d5ffd5b505050506040513d601f19601f82011682018060405250810190610bc19190612791565b90505f8273ffffffffffffffffffffffffffffffffffffffff166370a082318a6040518263ffffffff1660e01b8152600401610bfd9190611e27565b602060405180830381865afa158015610c18573d5f5f3e3d5ffd5b505050506040513d601f19601f82011682018060405250810190610c3c919061273c565b90505f8573ffffffffffffffffffffffffffffffffffffffff16637b49b49d856040518263ffffffff1660e01b8152600401610c789190611e27565b602060405180830381865afa158015610c93573d5f5f3e3d5ffd5b505050506040513d601f19601f82011682018060405250810190610cb7919061273c565b90505f5f831480610cc757505f82145b610ce157610cdc83838660ff16600a0a6116d7565b610ce3565b5f5b90506040518060c001604052808673ffffffffffffffffffffffffffffffffffffffff1681526020018560ff1681526020015f61ffff168152602001848152602001838152602001828152508a8781518110610d4257610d416127bc565b5b602002602001018190525080890198505050505050806001019050610b26565b505f831115610de5575f5f90505b82811015610de35783612710868381518110610d8f57610d8e6127bc565b5b602002602001015160a001510281610daa57610da96127e9565b5b04858281518110610dbe57610dbd6127bc565b5b60200260200101516040019061ffff16908161ffff1681525050806001019050610d70565b505b50509250929050565b610df661192c565b5f610dff6117e1565b90505f610e0d868686610835565b90505f610e1982610a01565b9050604051806040016040528083815260200182815250845f01819052505f5f610e416107f1565b73ffffffffffffffffffffffffffffffffffffffff1663c45f06078a6040518263ffffffff1660e01b8152600401610e799190611aa8565b6040805180830381865afa158015610e93573d5f5f3e3d5ffd5b505050506040513d601f19601f82011682018060405250810190610eb79190612816565b9150915060405180604001604052808381526020018281525086602001819052505f610ee389896114dd565b90505f610eef82610a01565b90506040518060400160405280838152602001828152508860400181905250610f338a8873ffffffffffffffffffffffffffffffffffffffff166357b6c133611825565b886060018181525050610f618a8873ffffffffffffffffffffffffffffffffffffffff166357b6c133611825565b886080018181525050505050505050509392505050565b5f73ffffffffffffffffffffffffffffffffffffffff168173ffffffffffffffffffffffffffffffffffffffff1603610fe6576040517f08c379a0000000000000000000000000000000000000000000000000000000008152600401610fdd9061289e565b60405180910390fd5b5f8173ffffffffffffffffffffffffffffffffffffffff163b1161103f576040517f08c379a000000000000000000000000000000000000000000000000000000000815260040161103690612906565b60405180910390fd5b8073ffffffffffffffffffffffffffffffffffffffff16638da5cb5b6040518163ffffffff1660e01b8152600401602060405180830381865afa9250505080156110a757506040513d601f19601f820116820180604052508101906110a49190612695565b60015b6110e6576040517f08c379a00000000000000000000000000000000000000000000000000000000081526004016110dd90612994565b60405180910390fd5b815f5f6101000a81548173ffffffffffffffffffffffffffffffffffffffff021916908373ffffffffffffffffffffffffffffffffffffffff1602179055505050565b60605f5f5f5f6111398787610ab4565b9150915080935061114981610a01565b92505f825190508067ffffffffffffffff81111561116a57611169611cad565b5b6040519080825280602002602001820160405280156111a357816020015b6111906119b8565b8152602001906001900390816111885790505b5095505f5f90505b81811015611332576040518061010001604052808583815181106111d2576111d16127bc565b5b60200260200101515f015173ffffffffffffffffffffffffffffffffffffffff16815260200185838151811061120b5761120a6127bc565b5b60200260200101516020015160ff168152602001858381518110611232576112316127bc565b5b60200260200101516040015161ffff16815260200185838151811061125a576112596127bc565b5b602002602001015160600151815260200185838151811061127e5761127d6127bc565b5b60200260200101516080015181526020016112b68684815181106112a5576112a46127bc565b5b602002602001015160800151610a01565b81526020018583815181106112ce576112cd6127bc565b5b602002602001015160a0015181526020016113068684815181106112f5576112f46127bc565b5b602002602001015160a00151610a01565b81525087828151811061131c5761131b6127bc565b5b60200260200101819052508060010190506111ab565b505050509250925092565b5f5f5f6113486117e1565b90505f5f90505b84604001515181101561145a575f85604001518281518110611374576113736127bc565b5b60200260200101515f015190505f86604001518381518110611399576113986127bc565b5b60200260200101516020015190505f8473ffffffffffffffffffffffffffffffffffffffff16637b49b49d846040518263ffffffff1660e01b81526004016113e19190611e27565b602060405180830381865afa1580156113fc573d5f5f3e3d5ffd5b505050506040513d601f19601f82011682018060405250810190611420919061273c565b90505f81148061143357505f8261ffff16145b156114405750505061144f565b808261ffff1602860195505050505b80600101905061134f565b506127108261146991906129df565b92505050919050565b5f60128260ff1603611486578290506114d7565b60128260ff1610156114b4576114ad83670de0b6b3a76400006114a8856118d6565b6116d7565b90506114d7565b6114c96012836114c49190612a0f565b6118d6565b836114d491906129df565b90505b92915050565b5f5f6114e76117e1565b90505f5f90505b8460400151518110156116cf575f85604001518281518110611513576115126127bc565b5b60200260200101515f015190505f8173ffffffffffffffffffffffffffffffffffffffff166370a08231876040518263ffffffff1660e01b815260040161155a9190611e27565b602060405180830381865afa158015611575573d5f5f3e3d5ffd5b505050506040513d601f19601f82011682018060405250810190611599919061273c565b90505f81036115a95750506116c4565b5f8473ffffffffffffffffffffffffffffffffffffffff16637b49b49d846040518263ffffffff1660e01b81526004016115e39190611e27565b602060405180830381865afa1580156115fe573d5f5f3e3d5ffd5b505050506040513d601f19601f82011682018060405250810190611622919061273c565b90505f8103611633575050506116c4565b5f8373ffffffffffffffffffffffffffffffffffffffff1663313ce5676040518163ffffffff1660e01b8152600401602060405180830381865afa15801561167d573d5f5f3e3d5ffd5b505050506040513d601f19601f820116820180604052508101906116a19190612791565b90505f6116ad826118d6565b90506116ba8484836116d7565b8801975050505050505b8060010190506114ee565b505092915050565b5f5f5f5f198587098587029250828110838203039150505f810361170f57838281611705576117046127e9565b5b04925050506117da565b808411611751576040517f08c379a000000000000000000000000000000000000000000000000000000000815260040161174890612a8d565b60405180910390fd5b5f8486880990508281118203915080830392505f60018619018616905080860495508084049350600181825f0304019050808302841793505f600287600302189050808702600203810290508087026002038102905080870260020381029050808702600203810290508087026002038102905080870260020381029050808502955050505050505b9392505050565b5f6118206040518060400160405280600e81526020017f756e69737761702d6f7261636c65000000000000000000000000000000000000815250610396565b905090565b5f5f5f90505b8460400151518110156118ce575f856040015182815181106118505761184f6127bc565b5b60200260200101515f015190508484826040518263ffffffff1660e01b815260040161187c9190611e27565b602060405180830381865afa9250505080156118b657506040513d601f19601f820116820180604052508101906118b3919061273c565b60015b156118c2578084019350505b5080600101905061182b565b509392505050565b5f604d8260ff16111561191e576040517f08c379a000000000000000000000000000000000000000000000000000000000815260040161191590612af5565b60405180910390fd5b8160ff16600a0a9050919050565b6040518060a0016040528061193f611a12565b815260200161194c611a12565b8152602001611959611a12565b81526020015f81526020015f81525090565b6040518060c001604052805f73ffffffffffffffffffffffffffffffffffffffff1681526020015f60ff1681526020015f61ffff1681526020015f81526020015f81526020015f81525090565b6040518061010001604052805f73ffffffffffffffffffffffffffffffffffffffff1681526020015f60ff1681526020015f61ffff1681526020015f81526020015f81526020015f81526020015f81526020015f81525090565b60405180604001604052805f81526020015f81525090565b5f604051905090565b5f5ffd5b5f5ffd5b5f819050919050565b611a4d81611a3b565b8114611a57575f5ffd5b50565b5f81359050611a6881611a44565b92915050565b5f60208284031215611a8357611a82611a33565b5b5f611a9084828501611a5a565b91505092915050565b611aa281611a3b565b82525050565b5f602082019050611abb5f830184611a99565b92915050565b5f81519050919050565b5f82825260208201905092915050565b5f819050602082019050919050565b5f73ffffffffffffffffffffffffffffffffffffffff82169050919050565b5f611b1382611aea565b9050919050565b611b2381611b09565b82525050565b5f60ff82169050919050565b611b3e81611b29565b82525050565b5f61ffff82169050919050565b611b5a81611b44565b82525050565b611b6981611a3b565b82525050565b60c082015f820151611b835f850182611b1a565b506020820151611b966020850182611b35565b506040820151611ba96040850182611b51565b506060820151611bbc6060850182611b60565b506080820151611bcf6080850182611b60565b5060a0820151611be260a0850182611b60565b50505050565b5f611bf38383611b6f565b60c08301905092915050565b5f602082019050919050565b5f611c1582611ac1565b611c1f8185611acb565b9350611c2a83611adb565b805f5b83811015611c5a578151611c418882611be8565b9750611c4c83611bff565b925050600181019050611c2d565b5085935050505092915050565b5f6040820190508181035f830152611c7f8185611c0b565b9050611c8e6020830184611a99565b9392505050565b5f5ffd5b5f5ffd5b5f601f19601f8301169050919050565b7f4e487b71000000000000000000000000000000000000000000000000000000005f52604160045260245ffd5b611ce382611c9d565b810181811067ffffffffffffffff82111715611d0257611d01611cad565b5b80604052505050565b5f611d14611a2a565b9050611d208282611cda565b919050565b5f67ffffffffffffffff821115611d3f57611d3e611cad565b5b611d4882611c9d565b9050602081019050919050565b828183375f83830152505050565b5f611d75611d7084611d25565b611d0b565b905082815260208101848484011115611d9157611d90611c99565b5b611d9c848285611d55565b509392505050565b5f82601f830112611db857611db7611c95565b5b8135611dc8848260208601611d63565b91505092915050565b5f60208284031215611de657611de5611a33565b5b5f82013567ffffffffffffffff811115611e0357611e02611a37565b5b611e0f84828501611da4565b91505092915050565b611e2181611b09565b82525050565b5f602082019050611e3a5f830184611e18565b92915050565b5f819050919050565b5f611e63611e5e611e5984611aea565b611e40565b611aea565b9050919050565b5f611e7482611e49565b9050919050565b5f611e8582611e6a565b9050919050565b611e9581611e7b565b82525050565b5f602082019050611eae5f830184611e8c565b92915050565b604082015f820151611ec85f850182611b60565b506020820151611edb6020850182611b60565b50505050565b61010082015f820151611ef65f850182611eb4565b506020820151611f096040850182611eb4565b506040820151611f1c6080850182611eb4565b506060820151611f2f60c0850182611b60565b506080820151611f4260e0850182611b60565b50505050565b5f61010082019050611f5c5f830184611ee1565b92915050565b611f6b81611b09565b8114611f75575f5ffd5b50565b5f81359050611f8681611f62565b92915050565b5f60208284031215611fa157611fa0611a33565b5b5f611fae84828501611f78565b91505092915050565b5f81519050919050565b5f82825260208201905092915050565b5f819050602082019050919050565b61010082015f820151611ff55f850182611b1a565b5060208201516120086020850182611b35565b50604082015161201b6040850182611b51565b50606082015161202e6060850182611b60565b5060808201516120416080850182611b60565b5060a082015161205460a0850182611b60565b5060c082015161206760c0850182611b60565b5060e082015161207a60e0850182611b60565b50505050565b5f61208b8383611fe0565b6101008301905092915050565b5f602082019050919050565b5f6120ae82611fb7565b6120b88185611fc1565b93506120c383611fd1565b805f5b838110156120f35781516120da8882612080565b97506120e583612098565b9250506001810190506120c6565b5085935050505092915050565b5f6060820190508181035f83015261211881866120a4565b90506121276020830185611a99565b6121346040830184611a99565b949350505050565b5f5ffd5b5f5ffd5b5f67ffffffffffffffff82111561215e5761215d611cad565b5b602082029050602081019050919050565b5f5ffd5b61217c81611b44565b8114612186575f5ffd5b50565b5f8135905061219781612173565b92915050565b5f604082840312156121b2576121b161213c565b5b6121bc6040611d0b565b90505f6121cb84828501611f78565b5f8301525060206121de84828501612189565b60208301525092915050565b5f6121fc6121f784612144565b611d0b565b9050808382526020820190506040840283018581111561221f5761221e61216f565b5b835b818110156122485780612234888261219d565b845260208401935050604081019050612221565b5050509392505050565b5f82601f83011261226657612265611c95565b5b81356122768482602086016121ea565b91505092915050565b5f606082840312156122945761229361213c565b5b61229e6060611d0b565b90505f82013567ffffffffffffffff8111156122bd576122bc612140565b5b6122c984828501611da4565b5f83015250602082013567ffffffffffffffff8111156122ec576122eb612140565b5b6122f884828501611da4565b602083015250604082013567ffffffffffffffff81111561231c5761231b612140565b5b61232884828501612252565b60408301525092915050565b5f5f6040838503121561234a57612349611a33565b5b5f83013567ffffffffffffffff81111561236757612366611a37565b5b6123738582860161227f565b925050602061238485828601611f78565b9150509250929050565b8281835e5f83830152505050565b5f6123ae6123a984611d25565b611d0b565b9050828152602081018484840111156123ca576123c9611c99565b5b6123d584828561238e565b509392505050565b5f82601f8301126123f1576123f0611c95565b5b815161240184826020860161239c565b91505092915050565b5f8151905061241881611f62565b92915050565b5f8151905061242c81612173565b92915050565b5f604082840312156124475761244661213c565b5b6124516040611d0b565b90505f6124608482850161240a565b5f8301525060206124738482850161241e565b60208301525092915050565b5f61249161248c84612144565b611d0b565b905080838252602082019050604084028301858111156124b4576124b361216f565b5b835b818110156124dd57806124c98882612432565b8452602084019350506040810190506124b6565b5050509392505050565b5f82601f8301126124fb576124fa611c95565b5b815161250b84826020860161247f565b91505092915050565b5f606082840312156125295761252861213c565b5b6125336060611d0b565b90505f82015167ffffffffffffffff81111561255257612551612140565b5b61255e848285016123dd565b5f83015250602082015167ffffffffffffffff81111561258157612580612140565b5b61258d848285016123dd565b602083015250604082015167ffffffffffffffff8111156125b1576125b0612140565b5b6125bd848285016124e7565b60408301525092915050565b5f5f604083850312156125df576125de611a33565b5b5f83015167ffffffffffffffff8111156125fc576125fb611a37565b5b61260885828601612514565b92505060206126198582860161240a565b9150509250929050565b5f81519050919050565b5f82825260208201905092915050565b5f61264782612623565b612651818561262d565b935061266181856020860161238e565b61266a81611c9d565b840191505092915050565b5f6020820190508181035f83015261268d818461263d565b905092915050565b5f602082840312156126aa576126a9611a33565b5b5f6126b78482850161240a565b91505092915050565b7f43616c6c6572206973206e6f7420746865206f776e65720000000000000000005f82015250565b5f6126f460178361262d565b91506126ff826126c0565b602082019050919050565b5f6020820190508181035f830152612721816126e8565b9050919050565b5f8151905061273681611a44565b92915050565b5f6020828403121561275157612750611a33565b5b5f61275e84828501612728565b91505092915050565b61277081611b29565b811461277a575f5ffd5b50565b5f8151905061278b81612767565b92915050565b5f602082840312156127a6576127a5611a33565b5b5f6127b38482850161277d565b91505092915050565b7f4e487b71000000000000000000000000000000000000000000000000000000005f52603260045260245ffd5b7f4e487b71000000000000000000000000000000000000000000000000000000005f52601260045260245ffd5b5f5f6040838503121561282c5761282b611a33565b5b5f61283985828601612728565b925050602061284a85828601612728565b9150509250929050565b7f4469726563746f72792063616e6e6f74206265207a65726f20616464726573735f82015250565b5f61288860208361262d565b915061289382612854565b602082019050919050565b5f6020820190508181035f8301526128b58161287c565b9050919050565b7f4469726563746f7279206d757374206265206120636f6e7472616374000000005f82015250565b5f6128f0601c8361262d565b91506128fb826128bc565b602082019050919050565b5f6020820190508181035f83015261291d816128e4565b9050919050565b7f4469726563746f7279206164647265737320646f6573206e6f7420696d706c655f8201527f6d656e74206f776e657228290000000000000000000000000000000000000000602082015250565b5f61297e602c8361262d565b915061298982612924565b604082019050919050565b5f6020820190508181035f8301526129ab81612972565b9050919050565b7f4e487b71000000000000000000000000000000000000000000000000000000005f52601160045260245ffd5b5f6129e982611a3b565b91506129f483611a3b565b925082612a0457612a036127e9565b5b828204905092915050565b5f612a1982611b29565b9150612a2483611b29565b9250828203905060ff811115612a3d57612a3c6129b2565b5b92915050565b7f6d756c446976206f766572666c6f7700000000000000000000000000000000005f82015250565b5f612a77600f8361262d565b9150612a8282612a43565b602082019050919050565b5f6020820190508181035f830152612aa481612a6b565b9050919050565b7f706f773130206f766572666c6f770000000000000000000000000000000000005f82015250565b5f612adf600e8361262d565b9150612aea82612aab565b602082019050919050565b5f6020820190508181035f830152612b0c81612ad3565b905091905056fea2646970667358221220b1c16ce0a8388ebcb47b593470584f80a7053e6e9bff4df7cf6a9235aebe5db064736f6c634300081e0033",
			"opcodes": "PUSH1 0x80 PUSH1 0x40 MSTORE CALLVALUE DUP1 ISZERO PUSH2 0xF JUMPI PUSH0 PUSH0 REVERT JUMPDEST POP PUSH1 0x40 MLOAD PUSH2 0x2F46 CODESIZE SUB DUP1 PUSH2 0x2F46 DUP4 CODECOPY DUP2 DUP2 ADD PUSH1 0x40 MSTORE DUP2 ADD SWAP1 PUSH2 0x31 SWAP2 SWAP1 PUSH2 0x257 JUMP JUMPDEST DUP1 PUSH2 0x41 DUP2 PUSH2 0x48 PUSH1 0x20 SHL PUSH1 0x20 SHR JUMP JUMPDEST POP POP PUSH2 0x3F0 JUMP JUMPDEST PUSH0 PUSH20 0xFFFFFFFFFFFFFFFFFFFFFFFFFFFFFFFFFFFFFFFF AND DUP2 PUSH20 0xFFFFFFFFFFFFFFFFFFFFFFFFFFFFFFFFFFFFFFFF AND SUB PUSH2 0xB6 JUMPI PUSH1 0x40 MLOAD PUSH32 0x8C379A000000000000000000000000000000000000000000000000000000000 DUP2 MSTORE PUSH1 0x4 ADD PUSH2 0xAD SWAP1 PUSH2 0x2DC JUMP JUMPDEST PUSH1 0x40 MLOAD DUP1 SWAP2 SUB SWAP1 REVERT JUMPDEST PUSH0 DUP2 PUSH20 0xFFFFFFFFFFFFFFFFFFFFFFFFFFFFFFFFFFFFFFFF AND EXTCODESIZE GT PUSH2 0x10F JUMPI PUSH1 0x40 MLOAD PUSH32 0x8C379A000000000000000000000000000000000000000000000000000000000 DUP2 MSTORE PUSH1 0x4 ADD PUSH2 0x106 SWAP1 PUSH2 0x344 JUMP JUMPDEST PUSH1 0x40 MLOAD DUP1 SWAP2 SUB SWAP1 REVERT JUMPDEST DUP1 PUSH20 0xFFFFFFFFFFFFFFFFFFFFFFFFFFFFFFFFFFFFFFFF AND PUSH4 0x8DA5CB5B PUSH1 0x40 MLOAD DUP2 PUSH4 0xFFFFFFFF AND PUSH1 0xE0 SHL DUP2 MSTORE PUSH1 0x4 ADD PUSH1 0x20 PUSH1 0x40 MLOAD DUP1 DUP4 SUB DUP2 DUP7 GAS STATICCALL SWAP3 POP POP POP DUP1 ISZERO PUSH2 0x177 JUMPI POP PUSH1 0x40 MLOAD RETURNDATASIZE PUSH1 0x1F NOT PUSH1 0x1F DUP3 ADD AND DUP3 ADD DUP1 PUSH1 0x40 MSTORE POP DUP2 ADD SWAP1 PUSH2 0x174 SWAP2 SWAP1 PUSH2 0x257 JUMP JUMPDEST PUSH1 0x1 JUMPDEST PUSH2 0x1B6 JUMPI PUSH1 0x40 MLOAD PUSH32 0x8C379A000000000000000000000000000000000000000000000000000000000 DUP2 MSTORE PUSH1 0x4 ADD PUSH2 0x1AD SWAP1 PUSH2 0x3D2 JUMP JUMPDEST PUSH1 0x40 MLOAD DUP1 SWAP2 SUB SWAP1 REVERT JUMPDEST DUP2 PUSH0 PUSH0 PUSH2 0x100 EXP DUP2 SLOAD DUP2 PUSH20 0xFFFFFFFFFFFFFFFFFFFFFFFFFFFFFFFFFFFFFFFF MUL NOT AND SWAP1 DUP4 PUSH20 0xFFFFFFFFFFFFFFFFFFFFFFFFFFFFFFFFFFFFFFFF AND MUL OR SWAP1 SSTORE POP POP POP JUMP JUMPDEST PUSH0 PUSH0 REVERT JUMPDEST PUSH0 PUSH20 0xFFFFFFFFFFFFFFFFFFFFFFFFFFFFFFFFFFFFFFFF DUP3 AND SWAP1 POP SWAP2 SWAP1 POP JUMP JUMPDEST PUSH0 PUSH2 0x226 DUP3 PUSH2 0x1FD JUMP JUMPDEST SWAP1 POP SWAP2 SWAP1 POP JUMP JUMPDEST PUSH2 0x236 DUP2 PUSH2 0x21C JUMP JUMPDEST DUP2 EQ PUSH2 0x240 JUMPI PUSH0 PUSH0 REVERT JUMPDEST POP JUMP JUMPDEST PUSH0 DUP2 MLOAD SWAP1 POP PUSH2 0x251 DUP2 PUSH2 0x22D JUMP JUMPDEST SWAP3 SWAP2 POP POP JUMP JUMPDEST PUSH0 PUSH1 0x20 DUP3 DUP5 SUB SLT ISZERO PUSH2 0x26C JUMPI PUSH2 0x26B PUSH2 0x1F9 JUMP JUMPDEST JUMPDEST PUSH0 PUSH2 0x279 DUP5 DUP3 DUP6 ADD PUSH2 0x243 JUMP JUMPDEST SWAP2 POP POP SWAP3 SWAP2 POP POP JUMP JUMPDEST PUSH0 DUP3 DUP3 MSTORE PUSH1 0x20 DUP3 ADD SWAP1 POP SWAP3 SWAP2 POP POP JUMP JUMPDEST PUSH32 0x4469726563746F72792063616E6E6F74206265207A65726F2061646472657373 PUSH0 DUP3 ADD MSTORE POP JUMP JUMPDEST PUSH0 PUSH2 0x2C6 PUSH1 0x20 DUP4 PUSH2 0x282 JUMP JUMPDEST SWAP2 POP PUSH2 0x2D1 DUP3 PUSH2 0x292 JUMP JUMPDEST PUSH1 0x20 DUP3 ADD SWAP1 POP SWAP2 SWAP1 POP JUMP JUMPDEST PUSH0 PUSH1 0x20 DUP3 ADD SWAP1 POP DUP2 DUP2 SUB PUSH0 DUP4 ADD MSTORE PUSH2 0x2F3 DUP2 PUSH2 0x2BA JUMP JUMPDEST SWAP1 POP SWAP2 SWAP1 POP JUMP JUMPDEST PUSH32 0x4469726563746F7279206D757374206265206120636F6E747261637400000000 PUSH0 DUP3 ADD MSTORE POP JUMP JUMPDEST PUSH0 PUSH2 0x32E PUSH1 0x1C DUP4 PUSH2 0x282 JUMP JUMPDEST SWAP2 POP PUSH2 0x339 DUP3 PUSH2 0x2FA JUMP JUMPDEST PUSH1 0x20 DUP3 ADD SWAP1 POP SWAP2 SWAP1 POP JUMP JUMPDEST PUSH0 PUSH1 0x20 DUP3 ADD SWAP1 POP DUP2 DUP2 SUB PUSH0 DUP4 ADD MSTORE PUSH2 0x35B DUP2 PUSH2 0x322 JUMP JUMPDEST SWAP1 POP SWAP2 SWAP1 POP JUMP JUMPDEST PUSH32 0x4469726563746F7279206164647265737320646F6573206E6F7420696D706C65 PUSH0 DUP3 ADD MSTORE PUSH32 0x6D656E74206F776E657228290000000000000000000000000000000000000000 PUSH1 0x20 DUP3 ADD MSTORE POP JUMP JUMPDEST PUSH0 PUSH2 0x3BC PUSH1 0x2C DUP4 PUSH2 0x282 JUMP JUMPDEST SWAP2 POP PUSH2 0x3C7 DUP3 PUSH2 0x362 JUMP JUMPDEST PUSH1 0x40 DUP3 ADD SWAP1 POP SWAP2 SWAP1 POP JUMP JUMPDEST PUSH0 PUSH1 0x20 DUP3 ADD SWAP1 POP DUP2 DUP2 SUB PUSH0 DUP4 ADD MSTORE PUSH2 0x3E9 DUP2 PUSH2 0x3B0 JUMP JUMPDEST SWAP1 POP SWAP2 SWAP1 POP JUMP JUMPDEST PUSH2 0x2B49 DUP1 PUSH2 0x3FD PUSH0 CODECOPY PUSH0 RETURN INVALID PUSH1 0x80 PUSH1 0x40 MSTORE CALLVALUE DUP1 ISZERO PUSH2 0xF JUMPI PUSH0 PUSH0 REVERT JUMPDEST POP PUSH1 0x4 CALLDATASIZE LT PUSH2 0x9C JUMPI PUSH0 CALLDATALOAD PUSH1 0xE0 SHR DUP1 PUSH4 0x812EFC8E GT PUSH2 0x64 JUMPI DUP1 PUSH4 0x812EFC8E EQ PUSH2 0x17F JUMPI DUP1 PUSH4 0x8DA5CB5B EQ PUSH2 0x1AF JUMPI DUP1 PUSH4 0xBA4C7BE1 EQ PUSH2 0x1CD JUMPI DUP1 PUSH4 0xCD8D334F EQ PUSH2 0x1E9 JUMPI DUP1 PUSH4 0xEE0D96C5 EQ PUSH2 0x21B JUMPI PUSH2 0x9C JUMP JUMPDEST DUP1 PUSH4 0x705A3E8 EQ PUSH2 0xA0 JUMPI DUP1 PUSH4 0x13290A89 EQ PUSH2 0xD0 JUMPI DUP1 PUSH4 0x27262618 EQ PUSH2 0x101 JUMPI DUP1 PUSH4 0x658A847A EQ PUSH2 0x131 JUMPI DUP1 PUSH4 0x7B303965 EQ PUSH2 0x14F JUMPI JUMPDEST PUSH0 PUSH0 REVERT JUMPDEST PUSH2 0xBA PUSH1 0x4 DUP1 CALLDATASIZE SUB DUP2 ADD SWAP1 PUSH2 0xB5 SWAP2 SWAP1 PUSH2 0x1A6E JUMP JUMPDEST PUSH2 0x24C JUMP JUMPDEST PUSH1 0x40 MLOAD PUSH2 0xC7 SWAP2 SWAP1 PUSH2 0x1AA8 JUMP JUMPDEST PUSH1 0x40 MLOAD DUP1 SWAP2 SUB SWAP1 RETURN JUMPDEST PUSH2 0xEA PUSH1 0x4 DUP1 CALLDATASIZE SUB DUP2 ADD SWAP1 PUSH2 0xE5 SWAP2 SWAP1 PUSH2 0x1A6E JUMP JUMPDEST PUSH2 0x2F6 JUMP JUMPDEST PUSH1 0x40 MLOAD PUSH2 0xF8 SWAP3 SWAP2 SWAP1 PUSH2 0x1C67 JUMP JUMPDEST PUSH1 0x40 MLOAD DUP1 SWAP2 SUB SWAP1 RETURN JUMPDEST PUSH2 0x11B PUSH1 0x4 DUP1 CALLDATASIZE SUB DUP2 ADD SWAP1 PUSH2 0x116 SWAP2 SWAP1 PUSH2 0x1DD1 JUMP JUMPDEST PUSH2 0x396 JUMP JUMPDEST PUSH1 0x40 MLOAD PUSH2 0x128 SWAP2 SWAP1 PUSH2 0x1E27 JUMP JUMPDEST PUSH1 0x40 MLOAD DUP1 SWAP2 SUB SWAP1 RETURN JUMPDEST PUSH2 0x139 PUSH2 0x436 JUMP JUMPDEST PUSH1 0x40 MLOAD PUSH2 0x146 SWAP2 SWAP1 PUSH2 0x1E9B JUMP JUMPDEST PUSH1 0x40 MLOAD DUP1 SWAP2 SUB SWAP1 RETURN JUMPDEST PUSH2 0x169 PUSH1 0x4 DUP1 CALLDATASIZE SUB DUP2 ADD SWAP1 PUSH2 0x164 SWAP2 SWAP1 PUSH2 0x1A6E JUMP JUMPDEST PUSH2 0x45A JUMP JUMPDEST PUSH1 0x40 MLOAD PUSH2 0x176 SWAP2 SWAP1 PUSH2 0x1F48 JUMP JUMPDEST PUSH1 0x40 MLOAD DUP1 SWAP2 SUB SWAP1 RETURN JUMPDEST PUSH2 0x199 PUSH1 0x4 DUP1 CALLDATASIZE SUB DUP2 ADD SWAP1 PUSH2 0x194 SWAP2 SWAP1 PUSH2 0x1A6E JUMP JUMPDEST PUSH2 0x4FE JUMP JUMPDEST PUSH1 0x40 MLOAD PUSH2 0x1A6 SWAP2 SWAP1 PUSH2 0x1AA8 JUMP JUMPDEST PUSH1 0x40 MLOAD DUP1 SWAP2 SUB SWAP1 RETURN JUMPDEST PUSH2 0x1B7 PUSH2 0x59B JUMP JUMPDEST PUSH1 0x40 MLOAD PUSH2 0x1C4 SWAP2 SWAP1 PUSH2 0x1E27 JUMP JUMPDEST PUSH1 0x40 MLOAD DUP1 SWAP2 SUB SWAP1 RETURN JUMPDEST PUSH2 0x1E7 PUSH1 0x4 DUP1 CALLDATASIZE SUB DUP2 ADD SWAP1 PUSH2 0x1E2 SWAP2 SWAP1 PUSH2 0x1F8C JUMP JUMPDEST PUSH2 0x62E JUMP JUMPDEST STOP JUMPDEST PUSH2 0x203 PUSH1 0x4 DUP1 CALLDATASIZE SUB DUP2 ADD SWAP1 PUSH2 0x1FE SWAP2 SWAP1 PUSH2 0x1A6E JUMP JUMPDEST PUSH2 0x734 JUMP JUMPDEST PUSH1 0x40 MLOAD PUSH2 0x212 SWAP4 SWAP3 SWAP2 SWAP1 PUSH2 0x2100 JUMP JUMPDEST PUSH1 0x40 MLOAD DUP1 SWAP2 SUB SWAP1 RETURN JUMPDEST PUSH2 0x235 PUSH1 0x4 DUP1 CALLDATASIZE SUB DUP2 ADD SWAP1 PUSH2 0x230 SWAP2 SWAP1 PUSH2 0x2334 JUMP JUMPDEST PUSH2 0x7D9 JUMP JUMPDEST PUSH1 0x40 MLOAD PUSH2 0x243 SWAP3 SWAP2 SWAP1 PUSH2 0x1C67 JUMP JUMPDEST PUSH1 0x40 MLOAD DUP1 SWAP2 SUB SWAP1 RETURN JUMPDEST PUSH0 PUSH0 PUSH0 PUSH2 0x257 PUSH2 0x7F1 JUMP JUMPDEST PUSH20 0xFFFFFFFFFFFFFFFFFFFFFFFFFFFFFFFFFFFFFFFF AND PUSH4 0x3088F069 DUP6 PUSH1 0x40 MLOAD DUP3 PUSH4 0xFFFFFFFF AND PUSH1 0xE0 SHL DUP2 MSTORE PUSH1 0x4 ADD PUSH2 0x28F SWAP2 SWAP1 PUSH2 0x1AA8 JUMP JUMPDEST PUSH0 PUSH1 0x40 MLOAD DUP1 DUP4 SUB DUP2 DUP7 GAS STATICCALL ISZERO DUP1 ISZERO PUSH2 0x2A9 JUMPI RETURNDATASIZE PUSH0 PUSH0 RETURNDATACOPY RETURNDATASIZE PUSH0 REVERT JUMPDEST POP POP POP POP PUSH1 0x40 MLOAD RETURNDATASIZE PUSH0 DUP3 RETURNDATACOPY RETURNDATASIZE PUSH1 0x1F NOT PUSH1 0x1F DUP3 ADD AND DUP3 ADD DUP1 PUSH1 0x40 MSTORE POP DUP2 ADD SWAP1 PUSH2 0x2D1 SWAP2 SWAP1 PUSH2 0x25C9 JUMP JUMPDEST SWAP2 POP SWAP2 POP PUSH0 PUSH2 0x2E1 DUP6 DUP5 DUP5 PUSH2 0x835 JUMP JUMPDEST SWAP1 POP PUSH2 0x2EC DUP2 PUSH2 0xA01 JUMP JUMPDEST SWAP4 POP POP POP POP SWAP2 SWAP1 POP JUMP JUMPDEST PUSH1 0x60 PUSH0 PUSH0 PUSH0 PUSH2 0x303 PUSH2 0x7F1 JUMP JUMPDEST PUSH20 0xFFFFFFFFFFFFFFFFFFFFFFFFFFFFFFFFFFFFFFFF AND PUSH4 0x3088F069 DUP7 PUSH1 0x40 MLOAD DUP3 PUSH4 0xFFFFFFFF AND PUSH1 0xE0 SHL DUP2 MSTORE PUSH1 0x4 ADD PUSH2 0x33B SWAP2 SWAP1 PUSH2 0x1AA8 JUMP JUMPDEST PUSH0 PUSH1 0x40 MLOAD DUP1 DUP4 SUB DUP2 DUP7 GAS STATICCALL ISZERO DUP1 ISZERO PUSH2 0x355 JUMPI RETURNDATASIZE PUSH0 PUSH0 RETURNDATACOPY RETURNDATASIZE PUSH0 REVERT JUMPDEST POP POP POP POP PUSH1 0x40 MLOAD RETURNDATASIZE PUSH0 DUP3 RETURNDATACOPY RETURNDATASIZE PUSH1 0x1F NOT PUSH1 0x1F DUP3 ADD AND DUP3 ADD DUP1 PUSH1 0x40 MSTORE POP DUP2 ADD SWAP1 PUSH2 0x37D SWAP2 SWAP1 PUSH2 0x25C9 JUMP JUMPDEST SWAP2 POP SWAP2 POP PUSH2 0x38B DUP3 DUP3 PUSH2 0xAB4 JUMP JUMPDEST SWAP4 POP SWAP4 POP POP POP SWAP2 POP SWAP2 JUMP JUMPDEST PUSH0 PUSH0 PUSH0 SWAP1 SLOAD SWAP1 PUSH2 0x100 EXP SWAP1 DIV PUSH20 0xFFFFFFFFFFFFFFFFFFFFFFFFFFFFFFFFFFFFFFFF AND PUSH20 0xFFFFFFFFFFFFFFFFFFFFFFFFFFFFFFFFFFFFFFFF AND PUSH4 0x27262618 DUP4 PUSH1 0x40 MLOAD DUP3 PUSH4 0xFFFFFFFF AND PUSH1 0xE0 SHL DUP2 MSTORE PUSH1 0x4 ADD PUSH2 0x3F0 SWAP2 SWAP1 PUSH2 0x2675 JUMP JUMPDEST PUSH1 0x20 PUSH1 0x40 MLOAD DUP1 DUP4 SUB DUP2 DUP7 GAS STATICCALL ISZERO DUP1 ISZERO PUSH2 0x40B JUMPI RETURNDATASIZE PUSH0 PUSH0 RETURNDATACOPY RETURNDATASIZE PUSH0 REVERT JUMPDEST POP POP POP POP PUSH1 0x40 MLOAD RETURNDATASIZE PUSH1 0x1F NOT PUSH1 0x1F DUP3 ADD AND DUP3 ADD DUP1 PUSH1 0x40 MSTORE POP DUP2 ADD SWAP1 PUSH2 0x42F SWAP2 SWAP1 PUSH2 0x2695 JUMP JUMPDEST SWAP1 POP SWAP2 SWAP1 POP JUMP JUMPDEST PUSH0 PUSH0 SWAP1 SLOAD SWAP1 PUSH2 0x100 EXP SWAP1 DIV PUSH20 0xFFFFFFFFFFFFFFFFFFFFFFFFFFFFFFFFFFFFFFFF AND DUP2 JUMP JUMPDEST PUSH2 0x462 PUSH2 0x192C JUMP JUMPDEST PUSH0 PUSH0 PUSH2 0x46C PUSH2 0x7F1 JUMP JUMPDEST PUSH20 0xFFFFFFFFFFFFFFFFFFFFFFFFFFFFFFFFFFFFFFFF AND PUSH4 0x3088F069 DUP6 PUSH1 0x40 MLOAD DUP3 PUSH4 0xFFFFFFFF AND PUSH1 0xE0 SHL DUP2 MSTORE PUSH1 0x4 ADD PUSH2 0x4A4 SWAP2 SWAP1 PUSH2 0x1AA8 JUMP JUMPDEST PUSH0 PUSH1 0x40 MLOAD DUP1 DUP4 SUB DUP2 DUP7 GAS STATICCALL ISZERO DUP1 ISZERO PUSH2 0x4BE JUMPI RETURNDATASIZE PUSH0 PUSH0 RETURNDATACOPY RETURNDATASIZE PUSH0 REVERT JUMPDEST POP POP POP POP PUSH1 0x40 MLOAD RETURNDATASIZE PUSH0 DUP3 RETURNDATACOPY RETURNDATASIZE PUSH1 0x1F NOT PUSH1 0x1F DUP3 ADD AND DUP3 ADD DUP1 PUSH1 0x40 MSTORE POP DUP2 ADD SWAP1 PUSH2 0x4E6 SWAP2 SWAP1 PUSH2 0x25C9 JUMP JUMPDEST SWAP2 POP SWAP2 POP PUSH2 0x4F5 DUP5 DUP4 DUP4 PUSH2 0xDEE JUMP JUMPDEST SWAP3 POP POP POP SWAP2 SWAP1 POP JUMP JUMPDEST PUSH0 PUSH0 PUSH0 PUSH2 0x509 PUSH2 0x7F1 JUMP JUMPDEST PUSH20 0xFFFFFFFFFFFFFFFFFFFFFFFFFFFFFFFFFFFFFFFF AND PUSH4 0x3088F069 DUP6 PUSH1 0x40 MLOAD DUP3 PUSH4 0xFFFFFFFF AND PUSH1 0xE0 SHL DUP2 MSTORE PUSH1 0x4 ADD PUSH2 0x541 SWAP2 SWAP1 PUSH2 0x1AA8 JUMP JUMPDEST PUSH0 PUSH1 0x40 MLOAD DUP1 DUP4 SUB DUP2 DUP7 GAS STATICCALL ISZERO DUP1 ISZERO PUSH2 0x55B JUMPI RETURNDATASIZE PUSH0 PUSH0 RETURNDATACOPY RETURNDATASIZE PUSH0 REVERT JUMPDEST POP POP POP POP PUSH1 0x40 MLOAD RETURNDATASIZE PUSH0 DUP3 RETURNDATACOPY RETURNDATASIZE PUSH1 0x1F NOT PUSH1 0x1F DUP3 ADD AND DUP3 ADD DUP1 PUSH1 0x40 MSTORE POP DUP2 ADD SWAP1 PUSH2 0x583 SWAP2 SWAP1 PUSH2 0x25C9 JUMP JUMPDEST SWAP2 POP SWAP2 POP PUSH2 0x592 DUP5 DUP4 DUP4 PUSH2 0x835 JUMP JUMPDEST SWAP3 POP POP POP SWAP2 SWAP1 POP JUMP JUMPDEST PUSH0 PUSH0 PUSH0 SWAP1 SLOAD SWAP1 PUSH2 0x100 EXP SWAP1 DIV PUSH20 0xFFFFFFFFFFFFFFFFFFFFFFFFFFFFFFFFFFFFFFFF AND PUSH20 0xFFFFFFFFFFFFFFFFFFFFFFFFFFFFFFFFFFFFFFFF AND PUSH4 0x8DA5CB5B PUSH1 0x40 MLOAD DUP2 PUSH4 0xFFFFFFFF AND PUSH1 0xE0 SHL DUP2 MSTORE PUSH1 0x4 ADD PUSH1 0x20 PUSH1 0x40 MLOAD DUP1 DUP4 SUB DUP2 DUP7 GAS STATICCALL ISZERO DUP1 ISZERO PUSH2 0x605 JUMPI RETURNDATASIZE PUSH0 PUSH0 RETURNDATACOPY RETURNDATASIZE PUSH0 REVERT JUMPDEST POP POP POP POP PUSH1 0x40 MLOAD RETURNDATASIZE PUSH1 0x1F NOT PUSH1 0x1F DUP3 ADD AND DUP3 ADD DUP1 PUSH1 0x40 MSTORE POP DUP2 ADD SWAP1 PUSH2 0x629 SWAP2 SWAP1 PUSH2 0x2695 JUMP JUMPDEST SWAP1 POP SWAP1 JUMP JUMPDEST PUSH0 PUSH0 SWAP1 SLOAD SWAP1 PUSH2 0x100 EXP SWAP1 DIV PUSH20 0xFFFFFFFFFFFFFFFFFFFFFFFFFFFFFFFFFFFFFFFF AND PUSH20 0xFFFFFFFFFFFFFFFFFFFFFFFFFFFFFFFFFFFFFFFF AND PUSH4 0x8DA5CB5B PUSH1 0x40 MLOAD DUP2 PUSH4 0xFFFFFFFF AND PUSH1 0xE0 SHL DUP2 MSTORE PUSH1 0x4 ADD PUSH1 0x20 PUSH1 0x40 MLOAD DUP1 DUP4 SUB DUP2 DUP7 GAS STATICCALL ISZERO DUP1 ISZERO PUSH2 0x697 JUMPI RETURNDATASIZE PUSH0 PUSH0 RETURNDATACOPY RETURNDATASIZE PUSH0 REVERT JUMPDEST POP POP POP POP PUSH1 0x40 MLOAD RETURNDATASIZE PUSH1 0x1F NOT PUSH1 0x1F DUP3 ADD AND DUP3 ADD DUP1 PUSH1 0x40 MSTORE POP DUP2 ADD SWAP1 PUSH2 0x6BB SWAP2 SWAP1 PUSH2 0x2695 JUMP JUMPDEST PUSH20 0xFFFFFFFFFFFFFFFFFFFFFFFFFFFFFFFFFFFFFFFF AND CALLER PUSH20 0xFFFFFFFFFFFFFFFFFFFFFFFFFFFFFFFFFFFFFFFF AND EQ PUSH2 0x728 JUMPI PUSH1 0x40 MLOAD PUSH32 0x8C379A000000000000000000000000000000000000000000000000000000000 DUP2 MSTORE PUSH1 0x4 ADD PUSH2 0x71F SWAP1 PUSH2 0x270A JUMP JUMPDEST PUSH1 0x40 MLOAD DUP1 SWAP2 SUB SWAP1 REVERT JUMPDEST PUSH2 0x731 DUP2 PUSH2 0xF78 JUMP JUMPDEST POP JUMP JUMPDEST PUSH1 0x60 PUSH0 PUSH0 PUSH0 PUSH0 PUSH2 0x742 PUSH2 0x7F1 JUMP JUMPDEST PUSH20 0xFFFFFFFFFFFFFFFFFFFFFFFFFFFFFFFFFFFFFFFF AND PUSH4 0x3088F069 DUP8 PUSH1 0x40 MLOAD DUP3 PUSH4 0xFFFFFFFF AND PUSH1 0xE0 SHL DUP2 MSTORE PUSH1 0x4 ADD PUSH2 0x77A SWAP2 SWAP1 PUSH2 0x1AA8 JUMP JUMPDEST PUSH0 PUSH1 0x40 MLOAD DUP1 DUP4 SUB DUP2 DUP7 GAS STATICCALL ISZERO DUP1 ISZERO PUSH2 0x794 JUMPI RETURNDATASIZE PUSH0 PUSH0 RETURNDATACOPY RETURNDATASIZE PUSH0 REVERT JUMPDEST POP POP POP POP PUSH1 0x40 MLOAD RETURNDATASIZE PUSH0 DUP3 RETURNDATACOPY RETURNDATASIZE PUSH1 0x1F NOT PUSH1 0x1F DUP3 ADD AND DUP3 ADD DUP1 PUSH1 0x40 MSTORE POP DUP2 ADD SWAP1 PUSH2 0x7BC SWAP2 SWAP1 PUSH2 0x25C9 JUMP JUMPDEST SWAP2 POP SWAP2 POP PUSH2 0x7CA DUP3 DUP3 PUSH2 0x1129 JUMP JUMPDEST SWAP5 POP SWAP5 POP SWAP5 POP POP POP SWAP2 SWAP4 SWAP1 SWAP3 POP JUMP JUMPDEST PUSH1 0x60 PUSH0 PUSH2 0x7E6 DUP5 DUP5 PUSH2 0xAB4 JUMP JUMPDEST SWAP2 POP SWAP2 POP SWAP3 POP SWAP3 SWAP1 POP JUMP JUMPDEST PUSH0 PUSH2 0x830 PUSH1 0x40 MLOAD DUP1 PUSH1 0x40 ADD PUSH1 0x40 MSTORE DUP1 PUSH1 0xB DUP2 MSTORE PUSH1 0x20 ADD PUSH32 0x6574662D666163746F7279000000000000000000000000000000000000000000 DUP2 MSTORE POP PUSH2 0x396 JUMP JUMPDEST SWAP1 POP SWAP1 JUMP JUMPDEST PUSH0 PUSH0 PUSH2 0x83F PUSH2 0x7F1 JUMP JUMPDEST PUSH20 0xFFFFFFFFFFFFFFFFFFFFFFFFFFFFFFFFFFFFFFFF AND PUSH4 0xF2018A1F DUP7 PUSH1 0x40 MLOAD DUP3 PUSH4 0xFFFFFFFF AND PUSH1 0xE0 SHL DUP2 MSTORE PUSH1 0x4 ADD PUSH2 0x877 SWAP2 SWAP1 PUSH2 0x1AA8 JUMP JUMPDEST PUSH1 0x20 PUSH1 0x40 MLOAD DUP1 DUP4 SUB DUP2 DUP7 GAS STATICCALL ISZERO DUP1 ISZERO PUSH2 0x892 JUMPI RETURNDATASIZE PUSH0 PUSH0 RETURNDATACOPY RETURNDATASIZE PUSH0 REVERT JUMPDEST POP POP POP POP PUSH1 0x40 MLOAD RETURNDATASIZE PUSH1 0x1F NOT PUSH1 0x1F DUP3 ADD AND DUP3 ADD DUP1 PUSH1 0x40 MSTORE POP DUP2 ADD SWAP1 PUSH2 0x8B6 SWAP2 SWAP1 PUSH2 0x2695 JUMP JUMPDEST SWAP1 POP PUSH0 DUP2 PUSH20 0xFFFFFFFFFFFFFFFFFFFFFFFFFFFFFFFFFFFFFFFF AND PUSH4 0x18160DDD PUSH1 0x40 MLOAD DUP2 PUSH4 0xFFFFFFFF AND PUSH1 0xE0 SHL DUP2 MSTORE PUSH1 0x4 ADD PUSH1 0x20 PUSH1 0x40 MLOAD DUP1 DUP4 SUB DUP2 DUP7 GAS STATICCALL ISZERO DUP1 ISZERO PUSH2 0x902 JUMPI RETURNDATASIZE PUSH0 PUSH0 RETURNDATACOPY RETURNDATASIZE PUSH0 REVERT JUMPDEST POP POP POP POP PUSH1 0x40 MLOAD RETURNDATASIZE PUSH1 0x1F NOT PUSH1 0x1F DUP3 ADD AND DUP3 ADD DUP1 PUSH1 0x40 MSTORE POP DUP2 ADD SWAP1 PUSH2 0x926 SWAP2 SWAP1 PUSH2 0x273C JUMP JUMPDEST SWAP1 POP PUSH0 DUP3 PUSH20 0xFFFFFFFFFFFFFFFFFFFFFFFFFFFFFFFFFFFFFFFF AND PUSH4 0x313CE567 PUSH1 0x40 MLOAD DUP2 PUSH4 0xFFFFFFFF AND PUSH1 0xE0 SHL DUP2 MSTORE PUSH1 0x4 ADD PUSH1 0x20 PUSH1 0x40 MLOAD DUP1 DUP4 SUB DUP2 DUP7 GAS STATICCALL ISZERO DUP1 ISZERO PUSH2 0x972 JUMPI RETURNDATASIZE PUSH0 PUSH0 RETURNDATACOPY RETURNDATASIZE PUSH0 REVERT JUMPDEST POP POP POP POP PUSH1 0x40 MLOAD RETURNDATASIZE PUSH1 0x1F NOT PUSH1 0x1F DUP3 ADD AND DUP3 ADD DUP1 PUSH1 0x40 MSTORE POP DUP2 ADD SWAP1 PUSH2 0x996 SWAP2 SWAP1 PUSH2 0x2791 JUMP JUMPDEST SWAP1 POP PUSH0 DUP3 SUB PUSH2 0x9B2 JUMPI PUSH2 0x9A8 DUP7 PUSH2 0x133D JUMP JUMPDEST SWAP4 POP POP POP POP PUSH2 0x9FA JUMP JUMPDEST PUSH0 PUSH2 0x9BD DUP4 DUP4 PUSH2 0x1472 JUMP JUMPDEST SWAP1 POP PUSH0 DUP2 SUB PUSH2 0x9D2 JUMPI PUSH0 SWAP5 POP POP POP POP POP PUSH2 0x9FA JUMP JUMPDEST PUSH0 PUSH2 0x9DD DUP9 DUP9 PUSH2 0x14DD JUMP JUMPDEST SWAP1 POP PUSH2 0x9F2 DUP2 PUSH8 0xDE0B6B3A7640000 DUP5 PUSH2 0x16D7 JUMP JUMPDEST SWAP6 POP POP POP POP POP POP JUMPDEST SWAP4 SWAP3 POP POP POP JUMP JUMPDEST PUSH0 PUSH0 DUP3 SUB PUSH2 0xA11 JUMPI PUSH0 SWAP1 POP PUSH2 0xAAF JUMP JUMPDEST PUSH0 PUSH2 0xA1A PUSH2 0x17E1 JUMP JUMPDEST PUSH20 0xFFFFFFFFFFFFFFFFFFFFFFFFFFFFFFFFFFFFFFFF AND PUSH4 0x6855E939 PUSH1 0x40 MLOAD DUP2 PUSH4 0xFFFFFFFF AND PUSH1 0xE0 SHL DUP2 MSTORE PUSH1 0x4 ADD PUSH1 0x20 PUSH1 0x40 MLOAD DUP1 DUP4 SUB DUP2 DUP7 GAS STATICCALL ISZERO DUP1 ISZERO PUSH2 0xA62 JUMPI RETURNDATASIZE PUSH0 PUSH0 RETURNDATACOPY RETURNDATASIZE PUSH0 REVERT JUMPDEST POP POP POP POP PUSH1 0x40 MLOAD RETURNDATASIZE PUSH1 0x1F NOT PUSH1 0x1F DUP3 ADD AND DUP3 ADD DUP1 PUSH1 0x40 MSTORE POP DUP2 ADD SWAP1 PUSH2 0xA86 SWAP2 SWAP1 PUSH2 0x273C JUMP JUMPDEST SWAP1 POP PUSH0 DUP2 SUB PUSH2 0xA98 JUMPI PUSH0 SWAP2 POP POP PUSH2 0xAAF JUMP JUMPDEST PUSH2 0xAAB DUP4 DUP3 PUSH8 0xDE0B6B3A7640000 PUSH2 0x16D7 JUMP JUMPDEST SWAP2 POP POP JUMPDEST SWAP2 SWAP1 POP JUMP JUMPDEST PUSH1 0x60 PUSH0 PUSH0 DUP5 PUSH1 0x40 ADD MLOAD MLOAD SWAP1 POP DUP1 PUSH8 0xFFFFFFFFFFFFFFFF DUP2 GT ISZERO PUSH2 0xADA JUMPI PUSH2 0xAD9 PUSH2 0x1CAD JUMP JUMPDEST JUMPDEST PUSH1 0x40 MLOAD SWAP1 DUP1 DUP3 MSTORE DUP1 PUSH1 0x20 MUL PUSH1 0x20 ADD DUP3 ADD PUSH1 0x40 MSTORE DUP1 ISZERO PUSH2 0xB13 JUMPI DUP2 PUSH1 0x20 ADD JUMPDEST PUSH2 0xB00 PUSH2 0x196B JUMP JUMPDEST DUP2 MSTORE PUSH1 0x20 ADD SWAP1 PUSH1 0x1 SWAP1 SUB SWAP1 DUP2 PUSH2 0xAF8 JUMPI SWAP1 POP JUMPDEST POP SWAP3 POP PUSH0 PUSH2 0xB1F PUSH2 0x17E1 JUMP JUMPDEST SWAP1 POP PUSH0 PUSH0 SWAP1 POP JUMPDEST DUP3 DUP2 LT ISZERO PUSH2 0xD62 JUMPI PUSH0 DUP8 PUSH1 0x40 ADD MLOAD DUP3 DUP2 MLOAD DUP2 LT PUSH2 0xB46 JUMPI PUSH2 0xB45 PUSH2 0x27BC JUMP JUMPDEST JUMPDEST PUSH1 0x20 MUL PUSH1 0x20 ADD ADD MLOAD PUSH0 ADD MLOAD SWAP1 POP PUSH0 DUP2 PUSH20 0xFFFFFFFFFFFFFFFFFFFFFFFFFFFFFFFFFFFFFFFF AND PUSH4 0x313CE567 PUSH1 0x40 MLOAD DUP2 PUSH4 0xFFFFFFFF AND PUSH1 0xE0 SHL DUP2 MSTORE PUSH1 0x4 ADD PUSH1 0x20 PUSH1 0x40 MLOAD DUP1 DUP4 SUB DUP2 DUP7 GAS STATICCALL ISZERO DUP1 ISZERO PUSH2 0xB9D JUMPI RETURNDATASIZE PUSH0 PUSH0 RETURNDATACOPY RETURNDATASIZE PUSH0 REVERT JUMPDEST POP POP POP POP PUSH1 0x40 MLOAD RETURNDATASIZE PUSH1 0x1F NOT PUSH1 0x1F DUP3 ADD AND DUP3 ADD DUP1 PUSH1 0x40 MSTORE POP DUP2 ADD SWAP1 PUSH2 0xBC1 SWAP2 SWAP1 PUSH2 0x2791 JUMP JUMPDEST SWAP1 POP PUSH0 DUP3 PUSH20 0xFFFFFFFFFFFFFFFFFFFFFFFFFFFFFFFFFFFFFFFF AND PUSH4 0x70A08231 DUP11 PUSH1 0x40 MLOAD DUP3 PUSH4 0xFFFFFFFF AND PUSH1 0xE0 SHL DUP2 MSTORE PUSH1 0x4 ADD PUSH2 0xBFD SWAP2 SWAP1 PUSH2 0x1E27 JUMP JUMPDEST PUSH1 0x20 PUSH1 0x40 MLOAD DUP1 DUP4 SUB DUP2 DUP7 GAS STATICCALL ISZERO DUP1 ISZERO PUSH2 0xC18 JUMPI RETURNDATASIZE PUSH0 PUSH0 RETURNDATACOPY RETURNDATASIZE PUSH0 REVERT JUMPDEST POP POP POP POP PUSH1 0x40 MLOAD RETURNDATASIZE PUSH1 0x1F NOT PUSH1 0x1F DUP3 ADD AND DUP3 ADD DUP1 PUSH1 0x40 MSTORE POP DUP2 ADD SWAP1 PUSH2 0xC3C SWAP2 SWAP1 PUSH2 0x273C JUMP JUMPDEST SWAP1 POP PUSH0 DUP6 PUSH20 0xFFFFFFFFFFFFFFFFFFFFFFFFFFFFFFFFFFFFFFFF AND PUSH4 0x7B49B49D DUP6 PUSH1 0x40 MLOAD DUP3 PUSH4 0xFFFFFFFF AND PUSH1 0xE0 SHL DUP2 MSTORE PUSH1 0x4 ADD PUSH2 0xC78 SWAP2 SWAP1 PUSH2 0x1E27 JUMP JUMPDEST PUSH1 0x20 PUSH1 0x40 MLOAD DUP1 DUP4 SUB DUP2 DUP7 GAS STATICCALL ISZERO DUP1 ISZERO PUSH2 0xC93 JUMPI RETURNDATASIZE PUSH0 PUSH0 RETURNDATACOPY RETURNDATASIZE PUSH0 REVERT JUMPDEST POP POP POP POP PUSH1 0x40 MLOAD RETURNDATASIZE PUSH1 0x1F NOT PUSH1 0x1F DUP3 ADD AND DUP3 ADD DUP1 PUSH1 0x40 MSTORE POP DUP2 ADD SWAP1 PUSH2 0xCB7 SWAP2 SWAP1 PUSH2 0x273C JUMP JUMPDEST SWAP1 POP PUSH0 PUSH0 DUP4 EQ DUP1 PUSH2 0xCC7 JUMPI POP PUSH0 DUP3 EQ JUMPDEST PUSH2 0xCE1 JUMPI PUSH2 0xCDC DUP4 DUP4 DUP7 PUSH1 0xFF AND PUSH1 0xA EXP PUSH2 0x16D7 JUMP JUMPDEST PUSH2 0xCE3 JUMP JUMPDEST PUSH0 JUMPDEST SWAP1 POP PUSH1 0x40 MLOAD DUP1 PUSH1 0xC0 ADD PUSH1 0x40 MSTORE DUP1 DUP7 PUSH20 0xFFFFFFFFFFFFFFFFFFFFFFFFFFFFFFFFFFFFFFFF AND DUP2 MSTORE PUSH1 0x20 ADD DUP6 PUSH1 0xFF AND DUP2 MSTORE PUSH1 0x20 ADD PUSH0 PUSH2 0xFFFF AND DUP2 MSTORE PUSH1 0x20 ADD DUP5 DUP2 MSTORE PUSH1 0x20 ADD DUP4 DUP2 MSTORE PUSH1 0x20 ADD DUP3 DUP2 MSTORE POP DUP11 DUP8 DUP2 MLOAD DUP2 LT PUSH2 0xD42 JUMPI PUSH2 0xD41 PUSH2 0x27BC JUMP JUMPDEST JUMPDEST PUSH1 0x20 MUL PUSH1 0x20 ADD ADD DUP2 SWAP1 MSTORE POP DUP1 DUP10 ADD SWAP9 POP POP POP POP POP POP DUP1 PUSH1 0x1 ADD SWAP1 POP PUSH2 0xB26 JUMP JUMPDEST POP PUSH0 DUP4 GT ISZERO PUSH2 0xDE5 JUMPI PUSH0 PUSH0 SWAP1 POP JUMPDEST DUP3 DUP2 LT ISZERO PUSH2 0xDE3 JUMPI DUP4 PUSH2 0x2710 DUP7 DUP4 DUP2 MLOAD DUP2 LT PUSH2 0xD8F JUMPI PUSH2 0xD8E PUSH2 0x27BC JUMP JUMPDEST JUMPDEST PUSH1 0x20 MUL PUSH1 0x20 ADD ADD MLOAD PUSH1 0xA0 ADD MLOAD MUL DUP2 PUSH2 0xDAA JUMPI PUSH2 0xDA9 PUSH2 0x27E9 JUMP JUMPDEST JUMPDEST DIV DUP6 DUP3 DUP2 MLOAD DUP2 LT PUSH2 0xDBE JUMPI PUSH2 0xDBD PUSH2 0x27BC JUMP JUMPDEST JUMPDEST PUSH1 0x20 MUL PUSH1 0x20 ADD ADD MLOAD PUSH1 0x40 ADD SWAP1 PUSH2 0xFFFF AND SWAP1 DUP2 PUSH2 0xFFFF AND DUP2 MSTORE POP POP DUP1 PUSH1 0x1 ADD SWAP1 POP PUSH2 0xD70 JUMP JUMPDEST POP JUMPDEST POP POP SWAP3 POP SWAP3 SWAP1 POP JUMP JUMPDEST PUSH2 0xDF6 PUSH2 0x192C JUMP JUMPDEST PUSH0 PUSH2 0xDFF PUSH2 0x17E1 JUMP JUMPDEST SWAP1 POP PUSH0 PUSH2 0xE0D DUP7 DUP7 DUP7 PUSH2 0x835 JUMP JUMPDEST SWAP1 POP PUSH0 PUSH2 0xE19 DUP3 PUSH2 0xA01 JUMP JUMPDEST SWAP1 POP PUSH1 0x40 MLOAD DUP1 PUSH1 0x40 ADD PUSH1 0x40 MSTORE DUP1 DUP4 DUP2 MSTORE PUSH1 0x20 ADD DUP3 DUP2 MSTORE POP DUP5 PUSH0 ADD DUP2 SWAP1 MSTORE POP PUSH0 PUSH0 PUSH2 0xE41 PUSH2 0x7F1 JUMP JUMPDEST PUSH20 0xFFFFFFFFFFFFFFFFFFFFFFFFFFFFFFFFFFFFFFFF AND PUSH4 0xC45F0607 DUP11 PUSH1 0x40 MLOAD DUP3 PUSH4 0xFFFFFFFF AND PUSH1 0xE0 SHL DUP2 MSTORE PUSH1 0x4 ADD PUSH2 0xE79 SWAP2 SWAP1 PUSH2 0x1AA8 JUMP JUMPDEST PUSH1 0x40 DUP1 MLOAD DUP1 DUP4 SUB DUP2 DUP7 GAS STATICCALL ISZERO DUP1 ISZERO PUSH2 0xE93 JUMPI RETURNDATASIZE PUSH0 PUSH0 RETURNDATACOPY RETURNDATASIZE PUSH0 REVERT JUMPDEST POP POP POP POP PUSH1 0x40 MLOAD RETURNDATASIZE PUSH1 0x1F NOT PUSH1 0x1F DUP3 ADD AND DUP3 ADD DUP1 PUSH1 0x40 MSTORE POP DUP2 ADD SWAP1 PUSH2 0xEB7 SWAP2 SWAP1 PUSH2 0x2816 JUMP JUMPDEST SWAP2 POP SWAP2 POP PUSH1 0x40 MLOAD DUP1 PUSH1 0x40 ADD PUSH1 0x40 MSTORE DUP1 DUP4 DUP2 MSTORE PUSH1 0x20 ADD DUP3 DUP2 MSTORE POP DUP7 PUSH1 0x20 ADD DUP2 SWAP1 MSTORE POP PUSH0 PUSH2 0xEE3 DUP10 DUP10 PUSH2 0x14DD JUMP JUMPDEST SWAP1 POP PUSH0 PUSH2 0xEEF DUP3 PUSH2 0xA01 JUMP JUMPDEST SWAP1 POP PUSH1 0x40 MLOAD DUP1 PUSH1 0x40 ADD PUSH1 0x40 MSTORE DUP1 DUP4 DUP2 MSTORE PUSH1 0x20 ADD DUP3 DUP2 MSTORE POP DUP9 PUSH1 0x40 ADD DUP2 SWAP1 MSTORE POP PUSH2 0xF33 DUP11 DUP9 PUSH20 0xFFFFFFFFFFFFFFFFFFFFFFFFFFFFFFFFFFFFFFFF AND PUSH4 0x57B6C133 PUSH2 0x1825 JUMP JUMPDEST DUP9 PUSH1 0x60 ADD DUP2 DUP2 MSTORE POP POP PUSH2 0xF61 DUP11 DUP9 PUSH20 0xFFFFFFFFFFFFFFFFFFFFFFFFFFFFFFFFFFFFFFFF AND PUSH4 0x57B6C133 PUSH2 0x1825 JUMP JUMPDEST DUP9 PUSH1 0x80 ADD DUP2 DUP2 MSTORE POP POP POP POP POP POP POP POP POP SWAP4 SWAP3 POP POP POP JUMP JUMPDEST PUSH0 PUSH20 0xFFFFFFFFFFFFFFFFFFFFFFFFFFFFFFFFFFFFFFFF AND DUP2 PUSH20 0xFFFFFFFFFFFFFFFFFFFFFFFFFFFFFFFFFFFFFFFF AND SUB PUSH2 0xFE6 JUMPI PUSH1 0x40 MLOAD PUSH32 0x8C379A000000000000000000000000000000000000000000000000000000000 DUP2 MSTORE PUSH1 0x4 ADD PUSH2 0xFDD SWAP1 PUSH2 0x289E JUMP JUMPDEST PUSH1 0x40 MLOAD DUP1 SWAP2 SUB SWAP1 REVERT JUMPDEST PUSH0 DUP2 PUSH20 0xFFFFFFFFFFFFFFFFFFFFFFFFFFFFFFFFFFFFFFFF AND EXTCODESIZE GT PUSH2 0x103F JUMPI PUSH1 0x40 MLOAD PUSH32 0x8C379A000000000000000000000000000000000000000000000000000000000 DUP2 MSTORE PUSH1 0x4 ADD PUSH2 0x1036 SWAP1 PUSH2 0x2906 JUMP JUMPDEST PUSH1 0x40 MLOAD DUP1 SWAP2 SUB SWAP1 REVERT JUMPDEST DUP1 PUSH20 0xFFFFFFFFFFFFFFFFFFFFFFFFFFFFFFFFFFFFFFFF AND PUSH4 0x8DA5CB5B PUSH1 0x40 MLOAD DUP2 PUSH4 0xFFFFFFFF AND PUSH1 0xE0 SHL DUP2 MSTORE PUSH1 0x4 ADD PUSH1 0x20 PUSH1 0x40 MLOAD DUP1 DUP4 SUB DUP2 DUP7 GAS STATICCALL SWAP3 POP POP POP DUP1 ISZERO PUSH2 0x10A7 JUMPI POP PUSH1 0x40 MLOAD RETURNDATASIZE PUSH1 0x1F NOT PUSH1 0x1F DUP3 ADD AND DUP3 ADD DUP1 PUSH1 0x40 MSTORE POP DUP2 ADD SWAP1 PUSH2 0x10A4 SWAP2 SWAP1 PUSH2 0x2695 JUMP JUMPDEST PUSH1 0x1 JUMPDEST PUSH2 0x10E6 JUMPI PUSH1 0x40 MLOAD PUSH32 0x8C379A000000000000000000000000000000000000000000000000000000000 DUP2 MSTORE PUSH1 0x4 ADD PUSH2 0x10DD SWAP1 PUSH2 0x2994 JUMP JUMPDEST PUSH1 0x40 MLOAD DUP1 SWAP2 SUB SWAP1 REVERT JUMPDEST DUP2 PUSH0 PUSH0 PUSH2 0x100 EXP DUP2 SLOAD DUP2 PUSH20 0xFFFFFFFFFFFFFFFFFFFFFFFFFFFFFFFFFFFFFFFF MUL NOT AND SWAP1 DUP4 PUSH20 0xFFFFFFFFFFFFFFFFFFFFFFFFFFFFFFFFFFFFFFFF AND MUL OR SWAP1 SSTORE POP POP POP JUMP JUMPDEST PUSH1 0x60 PUSH0 PUSH0 PUSH0 PUSH0 PUSH2 0x1139 DUP8 DUP8 PUSH2 0xAB4 JUMP JUMPDEST SWAP2 POP SWAP2 POP DUP1 SWAP4 POP PUSH2 0x1149 DUP2 PUSH2 0xA01 JUMP JUMPDEST SWAP3 POP PUSH0 DUP3 MLOAD SWAP1 POP DUP1 PUSH8 0xFFFFFFFFFFFFFFFF DUP2 GT ISZERO PUSH2 0x116A JUMPI PUSH2 0x1169 PUSH2 0x1CAD JUMP JUMPDEST JUMPDEST PUSH1 0x40 MLOAD SWAP1 DUP1 DUP3 MSTORE DUP1 PUSH1 0x20 MUL PUSH1 0x20 ADD DUP3 ADD PUSH1 0x40 MSTORE DUP1 ISZERO PUSH2 0x11A3 JUMPI DUP2 PUSH1 0x20 ADD JUMPDEST PUSH2 0x1190 PUSH2 0x19B8 JUMP JUMPDEST DUP2 MSTORE PUSH1 0x20 ADD SWAP1 PUSH1 0x1 SWAP1 SUB SWAP1 DUP2 PUSH2 0x1188 JUMPI SWAP1 POP JUMPDEST POP SWAP6 POP PUSH0 PUSH0 SWAP1 POP JUMPDEST DUP2 DUP2 LT ISZERO PUSH2 0x1332 JUMPI PUSH1 0x40 MLOAD DUP1 PUSH2 0x100 ADD PUSH1 0x40 MSTORE DUP1 DUP6 DUP4 DUP2 MLOAD DUP2 LT PUSH2 0x11D2 JUMPI PUSH2 0x11D1 PUSH2 0x27BC JUMP JUMPDEST JUMPDEST PUSH1 0x20 MUL PUSH1 0x20 ADD ADD MLOAD PUSH0 ADD MLOAD PUSH20 0xFFFFFFFFFFFFFFFFFFFFFFFFFFFFFFFFFFFFFFFF AND DUP2 MSTORE PUSH1 0x20 ADD DUP6 DUP4 DUP2 MLOAD DUP2 LT PUSH2 0x120B JUMPI PUSH2 0x120A PUSH2 0x27BC JUMP JUMPDEST JUMPDEST PUSH1 0x20 MUL PUSH1 0x20 ADD ADD MLOAD PUSH1 0x20 ADD MLOAD PUSH1 0xFF AND DUP2 MSTORE PUSH1 0x20 ADD DUP6 DUP4 DUP2 MLOAD DUP2 LT PUSH2 0x1232 JUMPI PUSH2 0x1231 PUSH2 0x27BC JUMP JUMPDEST JUMPDEST PUSH1 0x20 MUL PUSH1 0x20 ADD ADD MLOAD PUSH1 0x40 ADD MLOAD PUSH2 0xFFFF AND DUP2 MSTORE PUSH1 0x20 ADD DUP6 DUP4 DUP2 MLOAD DUP2 LT PUSH2 0x125A JUMPI PUSH2 0x1259 PUSH2 0x27BC JUMP JUMPDEST JUMPDEST PUSH1 0x20 MUL PUSH1 0x20 ADD ADD MLOAD PUSH1 0x60 ADD MLOAD DUP2 MSTORE PUSH1 0x20 ADD DUP6 DUP4 DUP2 MLOAD DUP2 LT PUSH2 0x127E JUMPI PUSH2 0x127D PUSH2 0x27BC JUMP JUMPDEST JUMPDEST PUSH1 0x20 MUL PUSH1 0x20 ADD ADD MLOAD PUSH1 0x80 ADD MLOAD DUP2 MSTORE PUSH1 0x20 ADD PUSH2 0x12B6 DUP7 DUP5 DUP2 MLOAD DUP2 LT PUSH2 0x12A5 JUMPI PUSH2 0x12A4 PUSH2 0x27BC JUMP JUMPDEST JUMPDEST PUSH1 0x20 MUL PUSH1 0x20 ADD ADD MLOAD PUSH1 0x80 ADD MLOAD PUSH2 0xA01 JUMP JUMPDEST DUP2 MSTORE PUSH1 0x20 ADD DUP6 DUP4 DUP2 MLOAD DUP2 LT PUSH2 0x12CE JUMPI PUSH2 0x12CD PUSH2 0x27BC JUMP JUMPDEST JUMPDEST PUSH1 0x20 MUL PUSH1 0x20 ADD ADD MLOAD PUSH1 0xA0 ADD MLOAD DUP2 MSTORE PUSH1 0x20 ADD PUSH2 0x1306 DUP7 DUP5 DUP2 MLOAD DUP2 LT PUSH2 0x12F5 JUMPI PUSH2 0x12F4 PUSH2 0x27BC JUMP JUMPDEST JUMPDEST PUSH1 0x20 MUL PUSH1 0x20 ADD ADD MLOAD PUSH1 0xA0 ADD MLOAD PUSH2 0xA01 JUMP JUMPDEST DUP2 MSTORE POP DUP8 DUP3 DUP2 MLOAD DUP2 LT PUSH2 0x131C JUMPI PUSH2 0x131B PUSH2 0x27BC JUMP JUMPDEST JUMPDEST PUSH1 0x20 MUL PUSH1 0x20 ADD ADD DUP2 SWAP1 MSTORE POP DUP1 PUSH1 0x1 ADD SWAP1 POP PUSH2 0x11AB JUMP JUMPDEST POP POP POP POP SWAP3 POP SWAP3 POP SWAP3 JUMP JUMPDEST PUSH0 PUSH0 PUSH0 PUSH2 0x1348 PUSH2 0x17E1 JUMP JUMPDEST SWAP1 POP PUSH0 PUSH0 SWAP1 POP JUMPDEST DUP5 PUSH1 0x40 ADD MLOAD MLOAD DUP2 LT ISZERO PUSH2 0x145A JUMPI PUSH0 DUP6 PUSH1 0x40 ADD MLOAD DUP3 DUP2 MLOAD DUP2 LT PUSH2 0x1374 JUMPI PUSH2 0x1373 PUSH2 0x27BC JUMP JUMPDEST JUMPDEST PUSH1 0x20 MUL PUSH1 0x20 ADD ADD MLOAD PUSH0 ADD MLOAD SWAP1 POP PUSH0 DUP7 PUSH1 0x40 ADD MLOAD DUP4 DUP2 MLOAD DUP2 LT PUSH2 0x1399 JUMPI PUSH2 0x1398 PUSH2 0x27BC JUMP JUMPDEST JUMPDEST PUSH1 0x20 MUL PUSH1 0x20 ADD ADD MLOAD PUSH1 0x20 ADD MLOAD SWAP1 POP PUSH0 DUP5 PUSH20 0xFFFFFFFFFFFFFFFFFFFFFFFFFFFFFFFFFFFFFFFF AND PUSH4 0x7B49B49D DUP5 PUSH1 0x40 MLOAD DUP3 PUSH4 0xFFFFFFFF AND PUSH1 0xE0 SHL DUP2 MSTORE PUSH1 0x4 ADD PUSH2 0x13E1 SWAP2 SWAP1 PUSH2 0x1E27 JUMP JUMPDEST PUSH1 0x20 PUSH1 0x40 MLOAD DUP1 DUP4 SUB DUP2 DUP7 GAS STATICCALL ISZERO DUP1 ISZERO PUSH2 0x13FC JUMPI RETURNDATASIZE PUSH0 PUSH0 RETURNDATACOPY RETURNDATASIZE PUSH0 REVERT JUMPDEST POP POP POP POP PUSH1 0x40 MLOAD RETURNDATASIZE PUSH1 0x1F NOT PUSH1 0x1F DUP3 ADD AND DUP3 ADD DUP1 PUSH1 0x40 MSTORE POP DUP2 ADD SWAP1 PUSH2 0x1420 SWAP2 SWAP1 PUSH2 0x273C JUMP JUMPDEST SWAP1 POP PUSH0 DUP2 EQ DUP1 PUSH2 0x1433 JUMPI POP PUSH0 DUP3 PUSH2 0xFFFF AND EQ JUMPDEST ISZERO PUSH2 0x1440 JUMPI POP POP POP PUSH2 0x144F JUMP JUMPDEST DUP1 DUP3 PUSH2 0xFFFF AND MUL DUP7 ADD SWAP6 POP POP POP POP JUMPDEST DUP1 PUSH1 0x1 ADD SWAP1 POP PUSH2 0x134F JUMP JUMPDEST POP PUSH2 0x2710 DUP3 PUSH2 0x1469 SWAP2 SWAP1 PUSH2 0x29DF JUMP JUMPDEST SWAP3 POP POP POP SWAP2 SWAP1 POP JUMP JUMPDEST PUSH0 PUSH1 0x12 DUP3 PUSH1 0xFF AND SUB PUSH2 0x1486 JUMPI DUP3 SWAP1 POP PUSH2 0x14D7 JUMP JUMPDEST PUSH1 0x12 DUP3 PUSH1 0xFF AND LT ISZERO PUSH2 0x14B4 JUMPI PUSH2 0x14AD DUP4 PUSH8 0xDE0B6B3A7640000 PUSH2 0x14A8 DUP6 PUSH2 0x18D6 JUMP JUMPDEST PUSH2 0x16D7 JUMP JUMPDEST SWAP1 POP PUSH2 0x14D7 JUMP JUMPDEST PUSH2 0x14C9 PUSH1 0x12 DUP4 PUSH2 0x14C4 SWAP2 SWAP1 PUSH2 0x2A0F JUMP JUMPDEST PUSH2 0x18D6 JUMP JUMPDEST DUP4 PUSH2 0x14D4 SWAP2 SWAP1 PUSH2 0x29DF JUMP JUMPDEST SWAP1 POP JUMPDEST SWAP3 SWAP2 POP POP JUMP JUMPDEST PUSH0 PUSH0 PUSH2 0x14E7 PUSH2 0x17E1 JUMP JUMPDEST SWAP1 POP PUSH0 PUSH0 SWAP1 POP JUMPDEST DUP5 PUSH1 0x40 ADD MLOAD MLOAD DUP2 LT ISZERO PUSH2 0x16CF JUMPI PUSH0 DUP6 PUSH1 0x40 ADD MLOAD DUP3 DUP2 MLOAD DUP2 LT PUSH2 0x1513 JUMPI PUSH2 0x1512 PUSH2 0x27BC JUMP JUMPDEST JUMPDEST PUSH1 0x20 MUL PUSH1 0x20 ADD ADD MLOAD PUSH0 ADD MLOAD SWAP1 POP PUSH0 DUP2 PUSH20 0xFFFFFFFFFFFFFFFFFFFFFFFFFFFFFFFFFFFFFFFF AND PUSH4 0x70A08231 DUP8 PUSH1 0x40 MLOAD DUP3 PUSH4 0xFFFFFFFF AND PUSH1 0xE0 SHL DUP2 MSTORE PUSH1 0x4 ADD PUSH2 0x155A SWAP2 SWAP1 PUSH2 0x1E27 JUMP JUMPDEST PUSH1 0x20 PUSH1 0x40 MLOAD DUP1 DUP4 SUB DUP2 DUP7 GAS STATICCALL ISZERO DUP1 ISZERO PUSH2 0x1575 JUMPI RETURNDATASIZE PUSH0 PUSH0 RETURNDATACOPY RETURNDATASIZE PUSH0 REVERT JUMPDEST POP POP POP POP PUSH1 0x40 MLOAD RETURNDATASIZE PUSH1 0x1F NOT PUSH1 0x1F DUP3 ADD AND DUP3 ADD DUP1 PUSH1 0x40 MSTORE POP DUP2 ADD SWAP1 PUSH2 0x1599 SWAP2 SWAP1 PUSH2 0x273C JUMP JUMPDEST SWAP1 POP PUSH0 DUP2 SUB PUSH2 0x15A9 JUMPI POP POP PUSH2 0x16C4 JUMP JUMPDEST PUSH0 DUP5 PUSH20 0xFFFFFFFFFFFFFFFFFFFFFFFFFFFFFFFFFFFFFFFF AND PUSH4 0x7B49B49D DUP5 PUSH1 0x40 MLOAD DUP3 PUSH4 0xFFFFFFFF AND PUSH1 0xE0 SHL DUP2 MSTORE PUSH1 0x4 ADD PUSH2 0x15E3 SWAP2 SWAP1 PUSH2 0x1E27 JUMP JUMPDEST PUSH1 0x20 PUSH1 0x40 MLOAD DUP1 DUP4 SUB DUP2 DUP7 GAS STATICCALL ISZERO DUP1 ISZERO PUSH2 0x15FE JUMPI RETURNDATASIZE PUSH0 PUSH0 RETURNDATACOPY RETURNDATASIZE PUSH0 REVERT JUMPDEST POP POP POP POP PUSH1 0x40 MLOAD RETURNDATASIZE PUSH1 0x1F NOT PUSH1 0x1F DUP3 ADD AND DUP3 ADD DUP1 PUSH1 0x40 MSTORE POP DUP2 ADD SWAP1 PUSH2 0x1622 SWAP2 SWAP1 PUSH2 0x273C JUMP JUMPDEST SWAP1 POP PUSH0 DUP2 SUB PUSH2 0x1633 JUMPI POP POP POP PUSH2 0x16C4 JUMP JUMPDEST PUSH0 DUP4 PUSH20 0xFFFFFFFFFFFFFFFFFFFFFFFFFFFFFFFFFFFFFFFF AND PUSH4 0x313CE567 PUSH1 0x40 MLOAD DUP2 PUSH4 0xFFFFFFFF AND PUSH1 0xE0 SHL DUP2 MSTORE PUSH1 0x4 ADD PUSH1 0x20 PUSH1 0x40 MLOAD DUP1 DUP4 SUB DUP2 DUP7 GAS STATICCALL ISZERO DUP1 ISZERO PUSH2 0x167D JUMPI RETURNDATASIZE PUSH0 PUSH0 RETURNDATACOPY RETURNDATASIZE PUSH0 REVERT JUMPDEST POP POP POP POP PUSH1 0x40 MLOAD RETURNDATASIZE PUSH1 0x1F NOT PUSH1 0x1F DUP3 ADD AND DUP3 ADD DUP1 PUSH1 0x40 MSTORE POP DUP2 ADD SWAP1 PUSH2 0x16A1 SWAP2 SWAP1 PUSH2 0x2791 JUMP JUMPDEST SWAP1 POP PUSH0 PUSH2 0x16AD DUP3 PUSH2 0x18D6 JUMP JUMPDEST SWAP1 POP PUSH2 0x16BA DUP5 DUP5 DUP4 PUSH2 0x16D7 JUMP JUMPDEST DUP9 ADD SWAP8 POP POP POP POP POP POP JUMPDEST DUP1 PUSH1 0x1 ADD SWAP1 POP PUSH2 0x14EE JUMP JUMPDEST POP POP SWAP3 SWAP2 POP POP JUMP JUMPDEST PUSH0 PUSH0 PUSH0 PUSH0 NOT DUP6 DUP8 MULMOD DUP6 DUP8 MUL SWAP3 POP DUP3 DUP2 LT DUP4 DUP3 SUB SUB SWAP2 POP POP PUSH0 DUP2 SUB PUSH2 0x170F JUMPI DUP4 DUP3 DUP2 PUSH2 0x1705 JUMPI PUSH2 0x1704 PUSH2 0x27E9 JUMP JUMPDEST JUMPDEST DIV SWAP3 POP POP POP PUSH2 0x17DA JUMP JUMPDEST DUP1 DUP5 GT PUSH2 0x1751 JUMPI PUSH1 0x40 MLOAD PUSH32 0x8C379A000000000000000000000000000000000000000000000000000000000 DUP2 MSTORE PUSH1 0x4 ADD PUSH2 0x1748 SWAP1 PUSH2 0x2A8D JUMP JUMPDEST PUSH1 0x40 MLOAD DUP1 SWAP2 SUB SWAP1 REVERT JUMPDEST PUSH0 DUP5 DUP7 DUP9 MULMOD SWAP1 POP DUP3 DUP2 GT DUP3 SUB SWAP2 POP DUP1 DUP4 SUB SWAP3 POP PUSH0 PUSH1 0x1 DUP7 NOT ADD DUP7 AND SWAP1 POP DUP1 DUP7 DIV SWAP6 POP DUP1 DUP5 DIV SWAP4 POP PUSH1 0x1 DUP2 DUP3 PUSH0 SUB DIV ADD SWAP1 POP DUP1 DUP4 MUL DUP5 OR SWAP4 POP PUSH0 PUSH1 0x2 DUP8 PUSH1 0x3 MUL XOR SWAP1 POP DUP1 DUP8 MUL PUSH1 0x2 SUB DUP2 MUL SWAP1 POP DUP1 DUP8 MUL PUSH1 0x2 SUB DUP2 MUL SWAP1 POP DUP1 DUP8 MUL PUSH1 0x2 SUB DUP2 MUL SWAP1 POP DUP1 DUP8 MUL PUSH1 0x2 SUB DUP2 MUL SWAP1 POP DUP1 DUP8 MUL PUSH1 0x2 SUB DUP2 MUL SWAP1 POP DUP1 DUP8 MUL PUSH1 0x2 SUB DUP2 MUL SWAP1 POP DUP1 DUP6 MUL SWAP6 POP POP POP POP POP POP JUMPDEST SWAP4 SWAP3 POP POP POP JUMP JUMPDEST PUSH0 PUSH2 0x1820 PUSH1 0x40 MLOAD DUP1 PUSH1 0x40 ADD PUSH1 0x40 MSTORE DUP1 PUSH1 0xE DUP2 MSTORE PUSH1 0x20 ADD PUSH32 0x756E69737761702D6F7261636C65000000000000000000000000000000000000 DUP2 MSTORE POP PUSH2 0x396 JUMP JUMPDEST SWAP1 POP SWAP1 JUMP JUMPDEST PUSH0 PUSH0 PUSH0 SWAP1 POP JUMPDEST DUP5 PUSH1 0x40 ADD MLOAD MLOAD DUP2 LT ISZERO PUSH2 0x18CE JUMPI PUSH0 DUP6 PUSH1 0x40 ADD MLOAD DUP3 DUP2 MLOAD DUP2 LT PUSH2 0x1850 JUMPI PUSH2 0x184F PUSH2 0x27BC JUMP JUMPDEST JUMPDEST PUSH1 0x20 MUL PUSH1 0x20 ADD ADD MLOAD PUSH0 ADD MLOAD SWAP1 POP DUP5 DUP5 DUP3 PUSH1 0x40 MLOAD DUP3 PUSH4 0xFFFFFFFF AND PUSH1 0xE0 SHL DUP2 MSTORE PUSH1 0x4 ADD PUSH2 0x187C SWAP2 SWAP1 PUSH2 0x1E27 JUMP JUMPDEST PUSH1 0x20 PUSH1 0x40 MLOAD DUP1 DUP4 SUB DUP2 DUP7 GAS STATICCALL SWAP3 POP POP POP DUP1 ISZERO PUSH2 0x18B6 JUMPI POP PUSH1 0x40 MLOAD RETURNDATASIZE PUSH1 0x1F NOT PUSH1 0x1F DUP3 ADD AND DUP3 ADD DUP1 PUSH1 0x40 MSTORE POP DUP2 ADD SWAP1 PUSH2 0x18B3 SWAP2 SWAP1 PUSH2 0x273C JUMP JUMPDEST PUSH1 0x1 JUMPDEST ISZERO PUSH2 0x18C2 JUMPI DUP1 DUP5 ADD SWAP4 POP POP JUMPDEST POP DUP1 PUSH1 0x1 ADD SWAP1 POP PUSH2 0x182B JUMP JUMPDEST POP SWAP4 SWAP3 POP POP POP JUMP JUMPDEST PUSH0 PUSH1 0x4D DUP3 PUSH1 0xFF AND GT ISZERO PUSH2 0x191E JUMPI PUSH1 0x40 MLOAD PUSH32 0x8C379A000000000000000000000000000000000000000000000000000000000 DUP2 MSTORE PUSH1 0x4 ADD PUSH2 0x1915 SWAP1 PUSH2 0x2AF5 JUMP JUMPDEST PUSH1 0x40 MLOAD DUP1 SWAP2 SUB SWAP1 REVERT JUMPDEST DUP2 PUSH1 0xFF AND PUSH1 0xA EXP SWAP1 POP SWAP2 SWAP1 POP JUMP JUMPDEST PUSH1 0x40 MLOAD DUP1 PUSH1 0xA0 ADD PUSH1 0x40 MSTORE DUP1 PUSH2 0x193F PUSH2 0x1A12 JUMP JUMPDEST DUP2 MSTORE PUSH1 0x20 ADD PUSH2 0x194C PUSH2 0x1A12 JUMP JUMPDEST DUP2 MSTORE PUSH1 0x20 ADD PUSH2 0x1959 PUSH2 0x1A12 JUMP JUMPDEST DUP2 MSTORE PUSH1 0x20 ADD PUSH0 DUP2 MSTORE PUSH1 0x20 ADD PUSH0 DUP2 MSTORE POP SWAP1 JUMP JUMPDEST PUSH1 0x40 MLOAD DUP1 PUSH1 0xC0 ADD PUSH1 0x40 MSTORE DUP1 PUSH0 PUSH20 0xFFFFFFFFFFFFFFFFFFFFFFFFFFFFFFFFFFFFFFFF AND DUP2 MSTORE PUSH1 0x20 ADD PUSH0 PUSH1 0xFF AND DUP2 MSTORE PUSH1 0x20 ADD PUSH0 PUSH2 0xFFFF AND DUP2 MSTORE PUSH1 0x20 ADD PUSH0 DUP2 MSTORE PUSH1 0x20 ADD PUSH0 DUP2 MSTORE PUSH1 0x20 ADD PUSH0 DUP2 MSTORE POP SWAP1 JUMP JUMPDEST PUSH1 0x40 MLOAD DUP1 PUSH2 0x100 ADD PUSH1 0x40 MSTORE DUP1 PUSH0 PUSH20 0xFFFFFFFFFFFFFFFFFFFFFFFFFFFFFFFFFFFFFFFF AND DUP2 MSTORE PUSH1 0x20 ADD PUSH0 PUSH1 0xFF AND DUP2 MSTORE PUSH1 0x20 ADD PUSH0 PUSH2 0xFFFF AND DUP2 MSTORE PUSH1 0x20 ADD PUSH0 DUP2 MSTORE PUSH1 0x20 ADD PUSH0 DUP2 MSTORE PUSH1 0x20 ADD PUSH0 DUP2 MSTORE PUSH1 0x20 ADD PUSH0 DUP2 MSTORE PUSH1 0x20 ADD PUSH0 DUP2 MSTORE POP SWAP1 JUMP JUMPDEST PUSH1 0x40 MLOAD DUP1 PUSH1 0x40 ADD PUSH1 0x40 MSTORE DUP1 PUSH0 DUP2 MSTORE PUSH1 0x20 ADD PUSH0 DUP2 MSTORE POP SWAP1 JUMP JUMPDEST PUSH0 PUSH1 0x40 MLOAD SWAP1 POP SWAP1 JUMP JUMPDEST PUSH0 PUSH0 REVERT JUMPDEST PUSH0 PUSH0 REVERT JUMPDEST PUSH0 DUP2 SWAP1 POP SWAP2 SWAP1 POP JUMP JUMPDEST PUSH2 0x1A4D DUP2 PUSH2 0x1A3B JUMP JUMPDEST DUP2 EQ PUSH2 0x1A57 JUMPI PUSH0 PUSH0 REVERT JUMPDEST POP JUMP JUMPDEST PUSH0 DUP2 CALLDATALOAD SWAP1 POP PUSH2 0x1A68 DUP2 PUSH2 0x1A44 JUMP JUMPDEST SWAP3 SWAP2 POP POP JUMP JUMPDEST PUSH0 PUSH1 0x20 DUP3 DUP5 SUB SLT ISZERO PUSH2 0x1A83 JUMPI PUSH2 0x1A82 PUSH2 0x1A33 JUMP JUMPDEST JUMPDEST PUSH0 PUSH2 0x1A90 DUP5 DUP3 DUP6 ADD PUSH2 0x1A5A JUMP JUMPDEST SWAP2 POP POP SWAP3 SWAP2 POP POP JUMP JUMPDEST PUSH2 0x1AA2 DUP2 PUSH2 0x1A3B JUMP JUMPDEST DUP3 MSTORE POP POP JUMP JUMPDEST PUSH0 PUSH1 0x20 DUP3 ADD SWAP1 POP PUSH2 0x1ABB PUSH0 DUP4 ADD DUP5 PUSH2 0x1A99 JUMP JUMPDEST SWAP3 SWAP2 POP POP JUMP JUMPDEST PUSH0 DUP2 MLOAD SWAP1 POP SWAP2 SWAP1 POP JUMP JUMPDEST PUSH0 DUP3 DUP3 MSTORE PUSH1 0x20 DUP3 ADD SWAP1 POP SWAP3 SWAP2 POP POP JUMP JUMPDEST PUSH0 DUP2 SWAP1 POP PUSH1 0x20 DUP3 ADD SWAP1 POP SWAP2 SWAP1 POP JUMP JUMPDEST PUSH0 PUSH20 0xFFFFFFFFFFFFFFFFFFFFFFFFFFFFFFFFFFFFFFFF DUP3 AND SWAP1 POP SWAP2 SWAP1 POP JUMP JUMPDEST PUSH0 PUSH2 0x1B13 DUP3 PUSH2 0x1AEA JUMP JUMPDEST SWAP1 POP SWAP2 SWAP1 POP JUMP JUMPDEST PUSH2 0x1B23 DUP2 PUSH2 0x1B09 JUMP JUMPDEST DUP3 MSTORE POP POP JUMP JUMPDEST PUSH0 PUSH1 0xFF DUP3 AND SWAP1 POP SWAP2 SWAP1 POP JUMP JUMPDEST PUSH2 0x1B3E DUP2 PUSH2 0x1B29 JUMP JUMPDEST DUP3 MSTORE POP POP JUMP JUMPDEST PUSH0 PUSH2 0xFFFF DUP3 AND SWAP1 POP SWAP2 SWAP1 POP JUMP JUMPDEST PUSH2 0x1B5A DUP2 PUSH2 0x1B44 JUMP JUMPDEST DUP3 MSTORE POP POP JUMP JUMPDEST PUSH2 0x1B69 DUP2 PUSH2 0x1A3B JUMP JUMPDEST DUP3 MSTORE POP POP JUMP JUMPDEST PUSH1 0xC0 DUP3 ADD PUSH0 DUP3 ADD MLOAD PUSH2 0x1B83 PUSH0 DUP6 ADD DUP3 PUSH2 0x1B1A JUMP JUMPDEST POP PUSH1 0x20 DUP3 ADD MLOAD PUSH2 0x1B96 PUSH1 0x20 DUP6 ADD DUP3 PUSH2 0x1B35 JUMP JUMPDEST POP PUSH1 0x40 DUP3 ADD MLOAD PUSH2 0x1BA9 PUSH1 0x40 DUP6 ADD DUP3 PUSH2 0x1B51 JUMP JUMPDEST POP PUSH1 0x60 DUP3 ADD MLOAD PUSH2 0x1BBC PUSH1 0x60 DUP6 ADD DUP3 PUSH2 0x1B60 JUMP JUMPDEST POP PUSH1 0x80 DUP3 ADD MLOAD PUSH2 0x1BCF PUSH1 0x80 DUP6 ADD DUP3 PUSH2 0x1B60 JUMP JUMPDEST POP PUSH1 0xA0 DUP3 ADD MLOAD PUSH2 0x1BE2 PUSH1 0xA0 DUP6 ADD DUP3 PUSH2 0x1B60 JUMP JUMPDEST POP POP POP POP JUMP JUMPDEST PUSH0 PUSH2 0x1BF3 DUP4 DUP4 PUSH2 0x1B6F JUMP JUMPDEST PUSH1 0xC0 DUP4 ADD SWAP1 POP SWAP3 SWAP2 POP POP JUMP JUMPDEST PUSH0 PUSH1 0x20 DUP3 ADD SWAP1 POP SWAP2 SWAP1 POP JUMP JUMPDEST PUSH0 PUSH2 0x1C15 DUP3 PUSH2 0x1AC1 JUMP JUMPDEST PUSH2 0x1C1F DUP2 DUP6 PUSH2 0x1ACB JUMP JUMPDEST SWAP4 POP PUSH2 0x1C2A DUP4 PUSH2 0x1ADB JUMP JUMPDEST DUP1 PUSH0 JUMPDEST DUP4 DUP2 LT ISZERO PUSH2 0x1C5A JUMPI DUP2 MLOAD PUSH2 0x1C41 DUP9 DUP3 PUSH2 0x1BE8 JUMP JUMPDEST SWAP8 POP PUSH2 0x1C4C DUP4 PUSH2 0x1BFF JUMP JUMPDEST SWAP3 POP POP PUSH1 0x1 DUP2 ADD SWAP1 POP PUSH2 0x1C2D JUMP JUMPDEST POP DUP6 SWAP4 POP POP POP POP SWAP3 SWAP2 POP POP JUMP JUMPDEST PUSH0 PUSH1 0x40 DUP3 ADD SWAP1 POP DUP2 DUP2 SUB PUSH0 DUP4 ADD MSTORE PUSH2 0x1C7F DUP2 DUP6 PUSH2 0x1C0B JUMP JUMPDEST SWAP1 POP PUSH2 0x1C8E PUSH1 0x20 DUP4 ADD DUP5 PUSH2 0x1A99 JUMP JUMPDEST SWAP4 SWAP3 POP POP POP JUMP JUMPDEST PUSH0 PUSH0 REVERT JUMPDEST PUSH0 PUSH0 REVERT JUMPDEST PUSH0 PUSH1 0x1F NOT PUSH1 0x1F DUP4 ADD AND SWAP1 POP SWAP2 SWAP1 POP JUMP JUMPDEST PUSH32 0x4E487B7100000000000000000000000000000000000000000000000000000000 PUSH0 MSTORE PUSH1 0x41 PUSH1 0x4 MSTORE PUSH1 0x24 PUSH0 REVERT JUMPDEST PUSH2 0x1CE3 DUP3 PUSH2 0x1C9D JUMP JUMPDEST DUP2 ADD DUP2 DUP2 LT PUSH8 0xFFFFFFFFFFFFFFFF DUP3 GT OR ISZERO PUSH2 0x1D02 JUMPI PUSH2 0x1D01 PUSH2 0x1CAD JUMP JUMPDEST JUMPDEST DUP1 PUSH1 0x40 MSTORE POP POP POP JUMP JUMPDEST PUSH0 PUSH2 0x1D14 PUSH2 0x1A2A JUMP JUMPDEST SWAP1 POP PUSH2 0x1D20 DUP3 DUP3 PUSH2 0x1CDA JUMP JUMPDEST SWAP2 SWAP1 POP JUMP JUMPDEST PUSH0 PUSH8 0xFFFFFFFFFFFFFFFF DUP3 GT ISZERO PUSH2 0x1D3F JUMPI PUSH2 0x1D3E PUSH2 0x1CAD JUMP JUMPDEST JUMPDEST PUSH2 0x1D48 DUP3 PUSH2 0x1C9D JUMP JUMPDEST SWAP1 POP PUSH1 0x20 DUP2 ADD SWAP1 POP SWAP2 SWAP1 POP JUMP JUMPDEST DUP3 DUP2 DUP4 CALLDATACOPY PUSH0 DUP4 DUP4 ADD MSTORE POP POP POP JUMP JUMPDEST PUSH0 PUSH2 0x1D75 PUSH2 0x1D70 DUP5 PUSH2 0x1D25 JUMP JUMPDEST PUSH2 0x1D0B JUMP JUMPDEST SWAP1 POP DUP3 DUP2 MSTORE PUSH1 0x20 DUP2 ADD DUP5 DUP5 DUP5 ADD GT ISZERO PUSH2 0x1D91 JUMPI PUSH2 0x1D90 PUSH2 0x1C99 JUMP JUMPDEST JUMPDEST PUSH2 0x1D9C DUP5 DUP3 DUP6 PUSH2 0x1D55 JUMP JUMPDEST POP SWAP4 SWAP3 POP POP POP JUMP JUMPDEST PUSH0 DUP3 PUSH1 0x1F DUP4 ADD SLT PUSH2 0x1DB8 JUMPI PUSH2 0x1DB7 PUSH2 0x1C95 JUMP JUMPDEST JUMPDEST DUP2 CALLDATALOAD PUSH2 0x1DC8 DUP5 DUP3 PUSH1 0x20 DUP7 ADD PUSH2 0x1D63 JUMP JUMPDEST SWAP2 POP POP SWAP3 SWAP2 POP POP JUMP JUMPDEST PUSH0 PUSH1 0x20 DUP3 DUP5 SUB SLT ISZERO PUSH2 0x1DE6 JUMPI PUSH2 0x1DE5 PUSH2 0x1A33 JUMP JUMPDEST JUMPDEST PUSH0 DUP3 ADD CALLDATALOAD PUSH8 0xFFFFFFFFFFFFFFFF DUP2 GT ISZERO PUSH2 0x1E03 JUMPI PUSH2 0x1E02 PUSH2 0x1A37 JUMP JUMPDEST JUMPDEST PUSH2 0x1E0F DUP5 DUP3 DUP6 ADD PUSH2 0x1DA4 JUMP JUMPDEST SWAP2 POP POP SWAP3 SWAP2 POP POP JUMP JUMPDEST PUSH2 0x1E21 DUP2 PUSH2 0x1B09 JUMP JUMPDEST DUP3 MSTORE POP POP JUMP JUMPDEST PUSH0 PUSH1 0x20 DUP3 ADD SWAP1 POP PUSH2 0x1E3A PUSH0 DUP4 ADD DUP5 PUSH2 0x1E18 JUMP JUMPDEST SWAP3 SWAP2 POP POP JUMP JUMPDEST PUSH0 DUP2 SWAP1 POP SWAP2 SWAP1 POP JUMP JUMPDEST PUSH0 PUSH2 0x1E63 PUSH2 0x1E5E PUSH2 0x1E59 DUP5 PUSH2 0x1AEA JUMP JUMPDEST PUSH2 0x1E40 JUMP JUMPDEST PUSH2 0x1AEA JUMP JUMPDEST SWAP1 POP SWAP2 SWAP1 POP JUMP JUMPDEST PUSH0 PUSH2 0x1E74 DUP3 PUSH2 0x1E49 JUMP JUMPDEST SWAP1 POP SWAP2 SWAP1 POP JUMP JUMPDEST PUSH0 PUSH2 0x1E85 DUP3 PUSH2 0x1E6A JUMP JUMPDEST SWAP1 POP SWAP2 SWAP1 POP JUMP JUMPDEST PUSH2 0x1E95 DUP2 PUSH2 0x1E7B JUMP JUMPDEST DUP3 MSTORE POP POP JUMP JUMPDEST PUSH0 PUSH1 0x20 DUP3 ADD SWAP1 POP PUSH2 0x1EAE PUSH0 DUP4 ADD DUP5 PUSH2 0x1E8C JUMP JUMPDEST SWAP3 SWAP2 POP POP JUMP JUMPDEST PUSH1 0x40 DUP3 ADD PUSH0 DUP3 ADD MLOAD PUSH2 0x1EC8 PUSH0 DUP6 ADD DUP3 PUSH2 0x1B60 JUMP JUMPDEST POP PUSH1 0x20 DUP3 ADD MLOAD PUSH2 0x1EDB PUSH1 0x20 DUP6 ADD DUP3 PUSH2 0x1B60 JUMP JUMPDEST POP POP POP POP JUMP JUMPDEST PUSH2 0x100 DUP3 ADD PUSH0 DUP3 ADD MLOAD PUSH2 0x1EF6 PUSH0 DUP6 ADD DUP3 PUSH2 0x1EB4 JUMP JUMPDEST POP PUSH1 0x20 DUP3 ADD MLOAD PUSH2 0x1F09 PUSH1 0x40 DUP6 ADD DUP3 PUSH2 0x1EB4 JUMP JUMPDEST POP PUSH1 0x40 DUP3 ADD MLOAD PUSH2 0x1F1C PUSH1 0x80 DUP6 ADD DUP3 PUSH2 0x1EB4 JUMP JUMPDEST POP PUSH1 0x60 DUP3 ADD MLOAD PUSH2 0x1F2F PUSH1 0xC0 DUP6 ADD DUP3 PUSH2 0x1B60 JUMP JUMPDEST POP PUSH1 0x80 DUP3 ADD MLOAD PUSH2 0x1F42 PUSH1 0xE0 DUP6 ADD DUP3 PUSH2 0x1B60 JUMP JUMPDEST POP POP POP POP JUMP JUMPDEST PUSH0 PUSH2 0x100 DUP3 ADD SWAP1 POP PUSH2 0x1F5C PUSH0 DUP4 ADD DUP5 PUSH2 0x1EE1 JUMP JUMPDEST SWAP3 SWAP2 POP POP JUMP JUMPDEST PUSH2 0x1F6B DUP2 PUSH2 0x1B09 JUMP JUMPDEST DUP2 EQ PUSH2 0x1F75 JUMPI PUSH0 PUSH0 REVERT JUMPDEST POP JUMP JUMPDEST PUSH0 DUP2 CALLDATALOAD SWAP1 POP PUSH2 0x1F86 DUP2 PUSH2 0x1F62 JUMP JUMPDEST SWAP3 SWAP2 POP POP JUMP JUMPDEST PUSH0 PUSH1 0x20 DUP3 DUP5 SUB SLT ISZERO PUSH2 0x1FA1 JUMPI PUSH2 0x1FA0 PUSH2 0x1A33 JUMP JUMPDEST JUMPDEST PUSH0 PUSH2 0x1FAE DUP5 DUP3 DUP6 ADD PUSH2 0x1F78 JUMP JUMPDEST SWAP2 POP POP SWAP3 SWAP2 POP POP JUMP JUMPDEST PUSH0 DUP2 MLOAD SWAP1 POP SWAP2 SWAP1 POP JUMP JUMPDEST PUSH0 DUP3 DUP3 MSTORE PUSH1 0x20 DUP3 ADD SWAP1 POP SWAP3 SWAP2 POP POP JUMP JUMPDEST PUSH0 DUP2 SWAP1 POP PUSH1 0x20 DUP3 ADD SWAP1 POP SWAP2 SWAP1 POP JUMP JUMPDEST PUSH2 0x100 DUP3 ADD PUSH0 DUP3 ADD MLOAD PUSH2 0x1FF5 PUSH0 DUP6 ADD DUP3 PUSH2 0x1B1A JUMP JUMPDEST POP PUSH1 0x20 DUP3 ADD MLOAD PUSH2 0x2008 PUSH1 0x20 DUP6 ADD DUP3 PUSH2 0x1B35 JUMP JUMPDEST POP PUSH1 0x40 DUP3 ADD MLOAD PUSH2 0x201B PUSH1 0x40 DUP6 ADD DUP3 PUSH2 0x1B51 JUMP JUMPDEST POP PUSH1 0x60 DUP3 ADD MLOAD PUSH2 0x202E PUSH1 0x60 DUP6 ADD DUP3 PUSH2 0x1B60 JUMP JUMPDEST POP PUSH1 0x80 DUP3 ADD MLOAD PUSH2 0x2041 PUSH1 0x80 DUP6 ADD DUP3 PUSH2 0x1B60 JUMP JUMPDEST POP PUSH1 0xA0 DUP3 ADD MLOAD PUSH2 0x2054 PUSH1 0xA0 DUP6 ADD DUP3 PUSH2 0x1B60 JUMP JUMPDEST POP PUSH1 0xC0 DUP3 ADD MLOAD PUSH2 0x2067 PUSH1 0xC0 DUP6 ADD DUP3 PUSH2 0x1B60 JUMP JUMPDEST POP PUSH1 0xE0 DUP3 ADD MLOAD PUSH2 0x207A PUSH1 0xE0 DUP6 ADD DUP3 PUSH2 0x1B60 JUMP JUMPDEST POP POP POP POP JUMP JUMPDEST PUSH0 PUSH2 0x208B DUP4 DUP4 PUSH2 0x1FE0 JUMP JUMPDEST PUSH2 0x100 DUP4 ADD SWAP1 POP SWAP3 SWAP2 POP POP JUMP JUMPDEST PUSH0 PUSH1 0x20 DUP3 ADD SWAP1 POP SWAP2 SWAP1 POP JUMP JUMPDEST PUSH0 PUSH2 0x20AE DUP3 PUSH2 0x1FB7 JUMP JUMPDEST PUSH2 0x20B8 DUP2 DUP6 PUSH2 0x1FC1 JUMP JUMPDEST SWAP4 POP PUSH2 0x20C3 DUP4 PUSH2 0x1FD1 JUMP JUMPDEST DUP1 PUSH0 JUMPDEST DUP4 DUP2 LT ISZERO PUSH2 0x20F3 JUMPI DUP2 MLOAD PUSH2 0x20DA DUP9 DUP3 PUSH2 0x2080 JUMP JUMPDEST SWAP8 POP PUSH2 0x20E5 DUP4 PUSH2 0x2098 JUMP JUMPDEST SWAP3 POP POP PUSH1 0x1 DUP2 ADD SWAP1 POP PUSH2 0x20C6 JUMP JUMPDEST POP DUP6 SWAP4 POP POP POP POP SWAP3 SWAP2 POP POP JUMP JUMPDEST PUSH0 PUSH1 0x60 DUP3 ADD SWAP1 POP DUP2 DUP2 SUB PUSH0 DUP4 ADD MSTORE PUSH2 0x2118 DUP2 DUP7 PUSH2 0x20A4 JUMP JUMPDEST SWAP1 POP PUSH2 0x2127 PUSH1 0x20 DUP4 ADD DUP6 PUSH2 0x1A99 JUMP JUMPDEST PUSH2 0x2134 PUSH1 0x40 DUP4 ADD DUP5 PUSH2 0x1A99 JUMP JUMPDEST SWAP5 SWAP4 POP POP POP POP JUMP JUMPDEST PUSH0 PUSH0 REVERT JUMPDEST PUSH0 PUSH0 REVERT JUMPDEST PUSH0 PUSH8 0xFFFFFFFFFFFFFFFF DUP3 GT ISZERO PUSH2 0x215E JUMPI PUSH2 0x215D PUSH2 0x1CAD JUMP JUMPDEST JUMPDEST PUSH1 0x20 DUP3 MUL SWAP1 POP PUSH1 0x20 DUP2 ADD SWAP1 POP SWAP2 SWAP1 POP JUMP JUMPDEST PUSH0 PUSH0 REVERT JUMPDEST PUSH2 0x217C DUP2 PUSH2 0x1B44 JUMP JUMPDEST DUP2 EQ PUSH2 0x2186 JUMPI PUSH0 PUSH0 REVERT JUMPDEST POP JUMP JUMPDEST PUSH0 DUP2 CALLDATALOAD SWAP1 POP PUSH2 0x2197 DUP2 PUSH2 0x2173 JUMP JUMPDEST SWAP3 SWAP2 POP POP JUMP JUMPDEST PUSH0 PUSH1 0x40 DUP3 DUP5 SUB SLT ISZERO PUSH2 0x21B2 JUMPI PUSH2 0x21B1 PUSH2 0x213C JUMP JUMPDEST JUMPDEST PUSH2 0x21BC PUSH1 0x40 PUSH2 0x1D0B JUMP JUMPDEST SWAP1 POP PUSH0 PUSH2 0x21CB DUP5 DUP3 DUP6 ADD PUSH2 0x1F78 JUMP JUMPDEST PUSH0 DUP4 ADD MSTORE POP PUSH1 0x20 PUSH2 0x21DE DUP5 DUP3 DUP6 ADD PUSH2 0x2189 JUMP JUMPDEST PUSH1 0x20 DUP4 ADD MSTORE POP SWAP3 SWAP2 POP POP JUMP JUMPDEST PUSH0 PUSH2 0x21FC PUSH2 0x21F7 DUP5 PUSH2 0x2144 JUMP JUMPDEST PUSH2 0x1D0B JUMP JUMPDEST SWAP1 POP DUP1 DUP4 DUP3 MSTORE PUSH1 0x20 DUP3 ADD SWAP1 POP PUSH1 0x40 DUP5 MUL DUP4 ADD DUP6 DUP2 GT ISZERO PUSH2 0x221F JUMPI PUSH2 0x221E PUSH2 0x216F JUMP JUMPDEST JUMPDEST DUP4 JUMPDEST DUP2 DUP2 LT ISZERO PUSH2 0x2248 JUMPI DUP1 PUSH2 0x2234 DUP9 DUP3 PUSH2 0x219D JUMP JUMPDEST DUP5 MSTORE PUSH1 0x20 DUP5 ADD SWAP4 POP POP PUSH1 0x40 DUP2 ADD SWAP1 POP PUSH2 0x2221 JUMP JUMPDEST POP POP POP SWAP4 SWAP3 POP POP POP JUMP JUMPDEST PUSH0 DUP3 PUSH1 0x1F DUP4 ADD SLT PUSH2 0x2266 JUMPI PUSH2 0x2265 PUSH2 0x1C95 JUMP JUMPDEST JUMPDEST DUP2 CALLDATALOAD PUSH2 0x2276 DUP5 DUP3 PUSH1 0x20 DUP7 ADD PUSH2 0x21EA JUMP JUMPDEST SWAP2 POP POP SWAP3 SWAP2 POP POP JUMP JUMPDEST PUSH0 PUSH1 0x60 DUP3 DUP5 SUB SLT ISZERO PUSH2 0x2294 JUMPI PUSH2 0x2293 PUSH2 0x213C JUMP JUMPDEST JUMPDEST PUSH2 0x229E PUSH1 0x60 PUSH2 0x1D0B JUMP JUMPDEST SWAP1 POP PUSH0 DUP3 ADD CALLDATALOAD PUSH8 0xFFFFFFFFFFFFFFFF DUP2 GT ISZERO PUSH2 0x22BD JUMPI PUSH2 0x22BC PUSH2 0x2140 JUMP JUMPDEST JUMPDEST PUSH2 0x22C9 DUP5 DUP3 DUP6 ADD PUSH2 0x1DA4 JUMP JUMPDEST PUSH0 DUP4 ADD MSTORE POP PUSH1 0x20 DUP3 ADD CALLDATALOAD PUSH8 0xFFFFFFFFFFFFFFFF DUP2 GT ISZERO PUSH2 0x22EC JUMPI PUSH2 0x22EB PUSH2 0x2140 JUMP JUMPDEST JUMPDEST PUSH2 0x22F8 DUP5 DUP3 DUP6 ADD PUSH2 0x1DA4 JUMP JUMPDEST PUSH1 0x20 DUP4 ADD MSTORE POP PUSH1 0x40 DUP3 ADD CALLDATALOAD PUSH8 0xFFFFFFFFFFFFFFFF DUP2 GT ISZERO PUSH2 0x231C JUMPI PUSH2 0x231B PUSH2 0x2140 JUMP JUMPDEST JUMPDEST PUSH2 0x2328 DUP5 DUP3 DUP6 ADD PUSH2 0x2252 JUMP JUMPDEST PUSH1 0x40 DUP4 ADD MSTORE POP SWAP3 SWAP2 POP POP JUMP JUMPDEST PUSH0 PUSH0 PUSH1 0x40 DUP4 DUP6 SUB SLT ISZERO PUSH2 0x234A JUMPI PUSH2 0x2349 PUSH2 0x1A33 JUMP JUMPDEST JUMPDEST PUSH0 DUP4 ADD CALLDATALOAD PUSH8 0xFFFFFFFFFFFFFFFF DUP2 GT ISZERO PUSH2 0x2367 JUMPI PUSH2 0x2366 PUSH2 0x1A37 JUMP JUMPDEST JUMPDEST PUSH2 0x2373 DUP6 DUP3 DUP7 ADD PUSH2 0x227F JUMP JUMPDEST SWAP3 POP POP PUSH1 0x20 PUSH2 0x2384 DUP6 DUP3 DUP7 ADD PUSH2 0x1F78 JUMP JUMPDEST SWAP2 POP POP SWAP3 POP SWAP3 SWAP1 POP JUMP JUMPDEST DUP3 DUP2 DUP4 MCOPY PUSH0 DUP4 DUP4 ADD MSTORE POP POP POP JUMP JUMPDEST PUSH0 PUSH2 0x23AE PUSH2 0x23A9 DUP5 PUSH2 0x1D25 JUMP JUMPDEST PUSH2 0x1D0B JUMP JUMPDEST SWAP1 POP DUP3 DUP2 MSTORE PUSH1 0x20 DUP2 ADD DUP5 DUP5 DUP5 ADD GT ISZERO PUSH2 0x23CA JUMPI PUSH2 0x23C9 PUSH2 0x1C99 JUMP JUMPDEST JUMPDEST PUSH2 0x23D5 DUP5 DUP3 DUP6 PUSH2 0x238E JUMP JUMPDEST POP SWAP4 SWAP3 POP POP POP JUMP JUMPDEST PUSH0 DUP3 PUSH1 0x1F DUP4 ADD SLT PUSH2 0x23F1 JUMPI PUSH2 0x23F0 PUSH2 0x1C95 JUMP JUMPDEST JUMPDEST DUP2 MLOAD PUSH2 0x2401 DUP5 DUP3 PUSH1 0x20 DUP7 ADD PUSH2 0x239C JUMP JUMPDEST SWAP2 POP POP SWAP3 SWAP2 POP POP JUMP JUMPDEST PUSH0 DUP2 MLOAD SWAP1 POP PUSH2 0x2418 DUP2 PUSH2 0x1F62 JUMP JUMPDEST SWAP3 SWAP2 POP POP JUMP JUMPDEST PUSH0 DUP2 MLOAD SWAP1 POP PUSH2 0x242C DUP2 PUSH2 0x2173 JUMP JUMPDEST SWAP3 SWAP2 POP POP JUMP JUMPDEST PUSH0 PUSH1 0x40 DUP3 DUP5 SUB SLT ISZERO PUSH2 0x2447 JUMPI PUSH2 0x2446 PUSH2 0x213C JUMP JUMPDEST JUMPDEST PUSH2 0x2451 PUSH1 0x40 PUSH2 0x1D0B JUMP JUMPDEST SWAP1 POP PUSH0 PUSH2 0x2460 DUP5 DUP3 DUP6 ADD PUSH2 0x240A JUMP JUMPDEST PUSH0 DUP4 ADD MSTORE POP PUSH1 0x20 PUSH2 0x2473 DUP5 DUP3 DUP6 ADD PUSH2 0x241E JUMP JUMPDEST PUSH1 0x20 DUP4 ADD MSTORE POP SWAP3 SWAP2 POP POP JUMP JUMPDEST PUSH0 PUSH2 0x2491 PUSH2 0x248C DUP5 PUSH2 0x2144 JUMP JUMPDEST PUSH2 0x1D0B JUMP JUMPDEST SWAP1 POP DUP1 DUP4 DUP3 MSTORE PUSH1 0x20 DUP3 ADD SWAP1 POP PUSH1 0x40 DUP5 MUL DUP4 ADD DUP6 DUP2 GT ISZERO PUSH2 0x24B4 JUMPI PUSH2 0x24B3 PUSH2 0x216F JUMP JUMPDEST JUMPDEST DUP4 JUMPDEST DUP2 DUP2 LT ISZERO PUSH2 0x24DD JUMPI DUP1 PUSH2 0x24C9 DUP9 DUP3 PUSH2 0x2432 JUMP JUMPDEST DUP5 MSTORE PUSH1 0x20 DUP5 ADD SWAP4 POP POP PUSH1 0x40 DUP2 ADD SWAP1 POP PUSH2 0x24B6 JUMP JUMPDEST POP POP POP SWAP4 SWAP3 POP POP POP JUMP JUMPDEST PUSH0 DUP3 PUSH1 0x1F DUP4 ADD SLT PUSH2 0x24FB JUMPI PUSH2 0x24FA PUSH2 0x1C95 JUMP JUMPDEST JUMPDEST DUP2 MLOAD PUSH2 0x250B DUP5 DUP3 PUSH1 0x20 DUP7 ADD PUSH2 0x247F JUMP JUMPDEST SWAP2 POP POP SWAP3 SWAP2 POP POP JUMP JUMPDEST PUSH0 PUSH1 0x60 DUP3 DUP5 SUB SLT ISZERO PUSH2 0x2529 JUMPI PUSH2 0x2528 PUSH2 0x213C JUMP JUMPDEST JUMPDEST PUSH2 0x2533 PUSH1 0x60 PUSH2 0x1D0B JUMP JUMPDEST SWAP1 POP PUSH0 DUP3 ADD MLOAD PUSH8 0xFFFFFFFFFFFFFFFF DUP2 GT ISZERO PUSH2 0x2552 JUMPI PUSH2 0x2551 PUSH2 0x2140 JUMP JUMPDEST JUMPDEST PUSH2 0x255E DUP5 DUP3 DUP6 ADD PUSH2 0x23DD JUMP JUMPDEST PUSH0 DUP4 ADD MSTORE POP PUSH1 0x20 DUP3 ADD MLOAD PUSH8 0xFFFFFFFFFFFFFFFF DUP2 GT ISZERO PUSH2 0x2581 JUMPI PUSH2 0x2580 PUSH2 0x2140 JUMP JUMPDEST JUMPDEST PUSH2 0x258D DUP5 DUP3 DUP6 ADD PUSH2 0x23DD JUMP JUMPDEST PUSH1 0x20 DUP4 ADD MSTORE POP PUSH1 0x40 DUP3 ADD MLOAD PUSH8 0xFFFFFFFFFFFFFFFF DUP2 GT ISZERO PUSH2 0x25B1 JUMPI PUSH2 0x25B0 PUSH2 0x2140 JUMP JUMPDEST JUMPDEST PUSH2 0x25BD DUP5 DUP3 DUP6 ADD PUSH2 0x24E7 JUMP JUMPDEST PUSH1 0x40 DUP4 ADD MSTORE POP SWAP3 SWAP2 POP POP JUMP JUMPDEST PUSH0 PUSH0 PUSH1 0x40 DUP4 DUP6 SUB SLT ISZERO PUSH2 0x25DF JUMPI PUSH2 0x25DE PUSH2 0x1A33 JUMP JUMPDEST JUMPDEST PUSH0 DUP4 ADD MLOAD PUSH8 0xFFFFFFFFFFFFFFFF DUP2 GT ISZERO PUSH2 0x25FC JUMPI PUSH2 0x25FB PUSH2 0x1A37 JUMP JUMPDEST JUMPDEST PUSH2 0x2608 DUP6 DUP3 DUP7 ADD PUSH2 0x2514 JUMP JUMPDEST SWAP3 POP POP PUSH1 0x20 PUSH2 0x2619 DUP6 DUP3 DUP7 ADD PUSH2 0x240A JUMP JUMPDEST SWAP2 POP POP SWAP3 POP SWAP3 SWAP1 POP JUMP JUMPDEST PUSH0 DUP2 MLOAD SWAP1 POP SWAP2 SWAP1 POP JUMP JUMPDEST PUSH0 DUP3 DUP3 MSTORE PUSH1 0x20 DUP3 ADD SWAP1 POP SWAP3 SWAP2 POP POP JUMP JUMPDEST PUSH0 PUSH2 0x2647 DUP3 PUSH2 0x2623 JUMP JUMPDEST PUSH2 0x2651 DUP2 DUP6 PUSH2 0x262D JUMP JUMPDEST SWAP4 POP PUSH2 0x2661 DUP2 DUP6 PUSH1 0x20 DUP7 ADD PUSH2 0x238E JUMP JUMPDEST PUSH2 0x266A DUP2 PUSH2 0x1C9D JUMP JUMPDEST DUP5 ADD SWAP2 POP POP SWAP3 SWAP2 POP POP JUMP JUMPDEST PUSH0 PUSH1 0x20 DUP3 ADD SWAP1 POP DUP2 DUP2 SUB PUSH0 DUP4 ADD MSTORE PUSH2 0x268D DUP2 DUP5 PUSH2 0x263D JUMP JUMPDEST SWAP1 POP SWAP3 SWAP2 POP POP JUMP JUMPDEST PUSH0 PUSH1 0x20 DUP3 DUP5 SUB SLT ISZERO PUSH2 0x26AA JUMPI PUSH2 0x26A9 PUSH2 0x1A33 JUMP JUMPDEST JUMPDEST PUSH0 PUSH2 0x26B7 DUP5 DUP3 DUP6 ADD PUSH2 0x240A JUMP JUMPDEST SWAP2 POP POP SWAP3 SWAP2 POP POP JUMP JUMPDEST PUSH32 0x43616C6C6572206973206E6F7420746865206F776E6572000000000000000000 PUSH0 DUP3 ADD MSTORE POP JUMP JUMPDEST PUSH0 PUSH2 0x26F4 PUSH1 0x17 DUP4 PUSH2 0x262D JUMP JUMPDEST SWAP2 POP PUSH2 0x26FF DUP3 PUSH2 0x26C0 JUMP JUMPDEST PUSH1 0x20 DUP3 ADD SWAP1 POP SWAP2 SWAP1 POP JUMP JUMPDEST PUSH0 PUSH1 0x20 DUP3 ADD SWAP1 POP DUP2 DUP2 SUB PUSH0 DUP4 ADD MSTORE PUSH2 0x2721 DUP2 PUSH2 0x26E8 JUMP JUMPDEST SWAP1 POP SWAP2 SWAP1 POP JUMP JUMPDEST PUSH0 DUP2 MLOAD SWAP1 POP PUSH2 0x2736 DUP2 PUSH2 0x1A44 JUMP JUMPDEST SWAP3 SWAP2 POP POP JUMP JUMPDEST PUSH0 PUSH1 0x20 DUP3 DUP5 SUB SLT ISZERO PUSH2 0x2751 JUMPI PUSH2 0x2750 PUSH2 0x1A33 JUMP JUMPDEST JUMPDEST PUSH0 PUSH2 0x275E DUP5 DUP3 DUP6 ADD PUSH2 0x2728 JUMP JUMPDEST SWAP2 POP POP SWAP3 SWAP2 POP POP JUMP JUMPDEST PUSH2 0x2770 DUP2 PUSH2 0x1B29 JUMP JUMPDEST DUP2 EQ PUSH2 0x277A JUMPI PUSH0 PUSH0 REVERT JUMPDEST POP JUMP JUMPDEST PUSH0 DUP2 MLOAD SWAP1 POP PUSH2 0x278B DUP2 PUSH2 0x2767 JUMP JUMPDEST SWAP3 SWAP2 POP POP JUMP JUMPDEST PUSH0 PUSH1 0x20 DUP3 DUP5 SUB SLT ISZERO PUSH2 0x27A6 JUMPI PUSH2 0x27A5 PUSH2 0x1A33 JUMP JUMPDEST JUMPDEST PUSH0 PUSH2 0x27B3 DUP5 DUP3 DUP6 ADD PUSH2 0x277D JUMP JUMPDEST SWAP2 POP POP SWAP3 SWAP2 POP POP JUMP JUMPDEST PUSH32 0x4E487B7100000000000000000000000000000000000000000000000000000000 PUSH0 MSTORE PUSH1 0x32 PUSH1 0x4 MSTORE PUSH1 0x24 PUSH0 REVERT JUMPDEST PUSH32 0x4E487B7100000000000000000000000000000000000000000000000000000000 PUSH0 MSTORE PUSH1 0x12 PUSH1 0x4 MSTORE PUSH1 0x24 PUSH0 REVERT JUMPDEST PUSH0 PUSH0 PUSH1 0x40 DUP4 DUP6 SUB SLT ISZERO PUSH2 0x282C JUMPI PUSH2 0x282B PUSH2 0x1A33 JUMP JUMPDEST JUMPDEST PUSH0 PUSH2 0x2839 DUP6 DUP3 DUP7 ADD PUSH2 0x2728 JUMP JUMPDEST SWAP3 POP POP PUSH1 0x20 PUSH2 0x284A DUP6 DUP3 DUP7 ADD PUSH2 0x2728 JUMP JUMPDEST SWAP2 POP POP SWAP3 POP SWAP3 SWAP1 POP JUMP JUMPDEST PUSH32 0x4469726563746F72792063616E6E6F74206265207A65726F2061646472657373 PUSH0 DUP3 ADD MSTORE POP JUMP JUMPDEST PUSH0 PUSH2 0x2888 PUSH1 0x20 DUP4 PUSH2 0x262D JUMP JUMPDEST SWAP2 POP PUSH2 0x2893 DUP3 PUSH2 0x2854 JUMP JUMPDEST PUSH1 0x20 DUP3 ADD SWAP1 POP SWAP2 SWAP1 POP JUMP JUMPDEST PUSH0 PUSH1 0x20 DUP3 ADD SWAP1 POP DUP2 DUP2 SUB PUSH0 DUP4 ADD MSTORE PUSH2 0x28B5 DUP2 PUSH2 0x287C JUMP JUMPDEST SWAP1 POP SWAP2 SWAP1 POP JUMP JUMPDEST PUSH32 0x4469726563746F7279206D757374206265206120636F6E747261637400000000 PUSH0 DUP3 ADD MSTORE POP JUMP JUMPDEST PUSH0 PUSH2 0x28F0 PUSH1 0x1C DUP4 PUSH2 0x262D JUMP JUMPDEST SWAP2 POP PUSH2 0x28FB DUP3 PUSH2 0x28BC JUMP JUMPDEST PUSH1 0x20 DUP3 ADD SWAP1 POP SWAP2 SWAP1 POP JUMP JUMPDEST PUSH0 PUSH1 0x20 DUP3 ADD SWAP1 POP DUP2 DUP2 SUB PUSH0 DUP4 ADD MSTORE PUSH2 0x291D DUP2 PUSH2 0x28E4 JUMP JUMPDEST SWAP1 POP SWAP2 SWAP1 POP JUMP JUMPDEST PUSH32 0x4469726563746F7279206164647265737320646F6573206E6F7420696D706C65 PUSH0 DUP3 ADD MSTORE PUSH32 0x6D656E74206F776E657228290000000000000000000000000000000000000000 PUSH1 0x20 DUP3 ADD MSTORE POP JUMP JUMPDEST PUSH0 PUSH2 0x297E PUSH1 0x2C DUP4 PUSH2 0x262D JUMP JUMPDEST SWAP2 POP PUSH2 0x2989 DUP3 PUSH2 0x2924 JUMP JUMPDEST PUSH1 0x40 DUP3 ADD SWAP1 POP SWAP2 SWAP1 POP JUMP JUMPDEST PUSH0 PUSH1 0x20 DUP3 ADD SWAP1 POP DUP2 DUP2 SUB PUSH0 DUP4 ADD MSTORE PUSH2 0x29AB DUP2 PUSH2 0x2972 JUMP JUMPDEST SWAP1 POP SWAP2 SWAP1 POP JUMP JUMPDEST PUSH32 0x4E487B7100000000000000000000000000000000000000000000000000000000 PUSH0 MSTORE PUSH1 0x11 PUSH1 0x4 MSTORE PUSH1 0x24 PUSH0 REVERT JUMPDEST PUSH0 PUSH2 0x29E9 DUP3 PUSH2 0x1A3B JUMP JUMPDEST SWAP2 POP PUSH2 0x29F4 DUP4 PUSH2 0x1A3B JUMP JUMPDEST SWAP3 POP DUP3 PUSH2 0x2A04 JUMPI PUSH2 0x2A03 PUSH2 0x27E9 JUMP JUMPDEST JUMPDEST DUP3 DUP3 DIV SWAP1 POP SWAP3 SWAP2 POP POP JUMP JUMPDEST PUSH0 PUSH2 0x2A19 DUP3 PUSH2 0x1B29 JUMP JUMPDEST SWAP2 POP PUSH2 0x2A24 DUP4 PUSH2 0x1B29 JUMP JUMPDEST SWAP3 POP DUP3 DUP3 SUB SWAP1 POP PUSH1 0xFF DUP2 GT ISZERO PUSH2 0x2A3D JUMPI PUSH2 0x2A3C PUSH2 0x29B2 JUMP JUMPDEST JUMPDEST SWAP3 SWAP2 POP POP JUMP JUMPDEST PUSH32 0x6D756C446976206F766572666C6F770000000000000000000000000000000000 PUSH0 DUP3 ADD MSTORE POP JUMP JUMPDEST PUSH0 PUSH2 0x2A77 PUSH1 0xF DUP4 PUSH2 0x262D JUMP JUMPDEST SWAP2 POP PUSH2 0x2A82 DUP3 PUSH2 0x2A43 JUMP JUMPDEST PUSH1 0x20 DUP3 ADD SWAP1 POP SWAP2 SWAP1 POP JUMP JUMPDEST PUSH0 PUSH1 0x20 DUP3 ADD SWAP1 POP DUP2 DUP2 SUB PUSH0 DUP4 ADD MSTORE PUSH2 0x2AA4 DUP2 PUSH2 0x2A6B JUMP JUMPDEST SWAP1 POP SWAP2 SWAP1 POP JUMP JUMPDEST PUSH32 0x706F773130206F766572666C6F77000000000000000000000000000000000000 PUSH0 DUP3 ADD MSTORE POP JUMP JUMPDEST PUSH0 PUSH2 0x2ADF PUSH1 0xE DUP4 PUSH2 0x262D JUMP JUMPDEST SWAP2 POP PUSH2 0x2AEA DUP3 PUSH2 0x2AAB JUMP JUMPDEST PUSH1 0x20 DUP3 ADD SWAP1 POP SWAP2 SWAP1 POP JUMP JUMPDEST PUSH0 PUSH1 0x20 DUP3 ADD SWAP1 POP DUP2 DUP2 SUB PUSH0 DUP4 ADD MSTORE PUSH2 0x2B0C DUP2 PUSH2 0x2AD3 JUMP JUMPDEST SWAP1 POP SWAP2 SWAP1 POP JUMP INVALID LOG2 PUSH5 0x6970667358 0x22 SLT KECCAK256 0xB1 0xC1 PUSH13 0xE0A8388EBCB47B593470584F80 0xA7 SDIV RETURNDATACOPY PUSH15 0x9BFF4DF7CF6A9235AEBE5DB064736F PUSH13 0x634300081E0033000000000000 "
		},
		"gasEstimates": {
			"creation": {
				"codeDepositCost": "2216200",
				"executionCost": "infinite",
				"totalCost": "infinite"
			},
			"external": {
				"Directory()": "infinite",
				"changeDirectoryAddress(address)": "infinite",
				"fetchFromDirectory(string)": "infinite",
				"getEtfUsdPrice(uint256)": "infinite",
				"getEtfWethPrice(uint256)": "infinite",
				"getStats(uint256)": "infinite",
				"owner()": "infinite",
				"snapshotVault(uint256)": "infinite",
				"snapshotVaultUnchecked((string,string,(address,uint16)[]),address)": "infinite",
				"snapshotVaultWithUsd(uint256)": "infinite"
			}
		},
		"methodIdentifiers": {
			"Directory()": "658a847a",
			"changeDirectoryAddress(address)": "ba4c7be1",
			"fetchFromDirectory(string)": "27262618",
			"getEtfUsdPrice(uint256)": "0705a3e8",
			"getEtfWethPrice(uint256)": "812efc8e",
			"getStats(uint256)": "7b303965",
			"owner()": "8da5cb5b",
			"snapshotVault(uint256)": "13290a89",
			"snapshotVaultUnchecked((string,string,(address,uint16)[]),address)": "ee0d96c5",
			"snapshotVaultWithUsd(uint256)": "cd8d334f"
		}
	},
	"abi": [
		{
			"inputs": [
				{
					"internalType": "address",
					"name": "_directory",
					"type": "address"
				}
			],
			"stateMutability": "nonpayable",
			"type": "constructor"
		},
		{
			"inputs": [],
			"name": "Directory",
			"outputs": [
				{
					"internalType": "contract IDirectory",
					"name": "",
					"type": "address"
				}
			],
			"stateMutability": "view",
			"type": "function"
		},
		{
			"inputs": [
				{
					"internalType": "address",
					"name": "_directory",
					"type": "address"
				}
			],
			"name": "changeDirectoryAddress",
			"outputs": [],
			"stateMutability": "nonpayable",
			"type": "function"
		},
		{
			"inputs": [
				{
					"internalType": "string",
					"name": "_key",
					"type": "string"
				}
			],
			"name": "fetchFromDirectory",
			"outputs": [
				{
					"internalType": "address",
					"name": "",
					"type": "address"
				}
			],
			"stateMutability": "view",
			"type": "function"
		},
		{
			"inputs": [
				{
					"internalType": "uint256",
					"name": "etfId",
					"type": "uint256"
				}
			],
			"name": "getEtfUsdPrice",
			"outputs": [
				{
					"internalType": "uint256",
					"name": "",
					"type": "uint256"
				}
			],
			"stateMutability": "view",
			"type": "function"
		},
		{
			"inputs": [
				{
					"internalType": "uint256",
					"name": "etfId",
					"type": "uint256"
				}
			],
			"name": "getEtfWethPrice",
			"outputs": [
				{
					"internalType": "uint256",
					"name": "",
					"type": "uint256"
				}
			],
			"stateMutability": "view",
			"type": "function"
		},
		{
			"inputs": [
				{
					"internalType": "uint256",
					"name": "etfId",
					"type": "uint256"
				}
			],
			"name": "getStats",
			"outputs": [
				{
					"components": [
						{
							"components": [
								{
									"internalType": "uint256",
									"name": "eth18",
									"type": "uint256"
								},
								{
									"internalType": "uint256",
									"name": "usd18",
									"type": "uint256"
								}
							],
							"internalType": "struct EtfStats.EthUsd",
							"name": "price",
							"type": "tuple"
						},
						{
							"components": [
								{
									"internalType": "uint256",
									"name": "eth18",
									"type": "uint256"
								},
								{
									"internalType": "uint256",
									"name": "usd18",
									"type": "uint256"
								}
							],
							"internalType": "struct EtfStats.EthUsd",
							"name": "volume",
							"type": "tuple"
						},
						{
							"components": [
								{
									"internalType": "uint256",
									"name": "eth18",
									"type": "uint256"
								},
								{
									"internalType": "uint256",
									"name": "usd18",
									"type": "uint256"
								}
							],
							"internalType": "struct EtfStats.EthUsd",
							"name": "tvl",
							"type": "tuple"
						},
						{
							"internalType": "uint256",
							"name": "assetsLiquidityUsd",
							"type": "uint256"
						},
						{
							"internalType": "uint256",
							"name": "assetsMcapUsd",
							"type": "uint256"
						}
					],
					"internalType": "struct EtfStats.Stats",
					"name": "s",
					"type": "tuple"
				}
			],
			"stateMutability": "view",
			"type": "function"
		},
		{
			"inputs": [],
			"name": "owner",
			"outputs": [
				{
					"internalType": "address",
					"name": "",
					"type": "address"
				}
			],
			"stateMutability": "view",
			"type": "function"
		},
		{
			"inputs": [
				{
					"internalType": "uint256",
					"name": "etfId",
					"type": "uint256"
				}
			],
			"name": "snapshotVault",
			"outputs": [
				{
					"components": [
						{
							"internalType": "address",
							"name": "tokenAddress",
							"type": "address"
						},
						{
							"internalType": "uint8",
							"name": "tokenDecimals",
							"type": "uint8"
						},
						{
							"internalType": "uint16",
							"name": "currentWeight",
							"type": "uint16"
						},
						{
							"internalType": "uint256",
							"name": "tokenRawBalance",
							"type": "uint256"
						},
						{
							"internalType": "uint256",
							"name": "tokenPriceWeth18",
							"type": "uint256"
						},
						{
							"internalType": "uint256",
							"name": "tokenValueWeth18",
							"type": "uint256"
						}
					],
					"internalType": "struct Snapshot[]",
					"name": "s",
					"type": "tuple[]"
				},
				{
					"internalType": "uint256",
					"name": "etfTvlWeth",
					"type": "uint256"
				}
			],
			"stateMutability": "view",
			"type": "function"
		},
		{
			"inputs": [
				{
					"components": [
						{
							"internalType": "string",
							"name": "name",
							"type": "string"
						},
						{
							"internalType": "string",
							"name": "ticker",
							"type": "string"
						},
						{
							"components": [
								{
									"internalType": "address",
									"name": "tokenAddress",
									"type": "address"
								},
								{
									"internalType": "uint16",
									"name": "weightBips",
									"type": "uint16"
								}
							],
							"internalType": "struct Asset[]",
							"name": "assets",
							"type": "tuple[]"
						}
					],
					"internalType": "struct Etf",
					"name": "etf",
					"type": "tuple"
				},
				{
					"internalType": "address",
					"name": "vaultAddress",
					"type": "address"
				}
			],
			"name": "snapshotVaultUnchecked",
			"outputs": [
				{
					"components": [
						{
							"internalType": "address",
							"name": "tokenAddress",
							"type": "address"
						},
						{
							"internalType": "uint8",
							"name": "tokenDecimals",
							"type": "uint8"
						},
						{
							"internalType": "uint16",
							"name": "currentWeight",
							"type": "uint16"
						},
						{
							"internalType": "uint256",
							"name": "tokenRawBalance",
							"type": "uint256"
						},
						{
							"internalType": "uint256",
							"name": "tokenPriceWeth18",
							"type": "uint256"
						},
						{
							"internalType": "uint256",
							"name": "tokenValueWeth18",
							"type": "uint256"
						}
					],
					"internalType": "struct Snapshot[]",
					"name": "s",
					"type": "tuple[]"
				},
				{
					"internalType": "uint256",
					"name": "etfTvlWeth",
					"type": "uint256"
				}
			],
			"stateMutability": "view",
			"type": "function"
		},
		{
			"inputs": [
				{
					"internalType": "uint256",
					"name": "etfId",
					"type": "uint256"
				}
			],
			"name": "snapshotVaultWithUsd",
			"outputs": [
				{
					"components": [
						{
							"internalType": "address",
							"name": "tokenAddress",
							"type": "address"
						},
						{
							"internalType": "uint8",
							"name": "tokenDecimals",
							"type": "uint8"
						},
						{
							"internalType": "uint16",
							"name": "currentWeight",
							"type": "uint16"
						},
						{
							"internalType": "uint256",
							"name": "tokenRawBalance",
							"type": "uint256"
						},
						{
							"internalType": "uint256",
							"name": "tokenPriceWeth18",
							"type": "uint256"
						},
						{
							"internalType": "uint256",
							"name": "tokenPriceUsd18",
							"type": "uint256"
						},
						{
							"internalType": "uint256",
							"name": "tokenValueWeth18",
							"type": "uint256"
						},
						{
							"internalType": "uint256",
							"name": "tokenValueUsd18",
							"type": "uint256"
						}
					],
					"internalType": "struct SnapshotWithUsd[]",
					"name": "s",
					"type": "tuple[]"
				},
				{
					"internalType": "uint256",
					"name": "etfTvlWeth",
					"type": "uint256"
				},
				{
					"internalType": "uint256",
					"name": "etfTvlUsd",
					"type": "uint256"
				}
			],
			"stateMutability": "view",
			"type": "function"
		}
	]
}