{
	"data": {
		"bytecode": {
			"linkReferences": {},
			"object": "608060405234801561000f575f5ffd5b506040516134473803806134478339818101604052810190610031919061025e565b806100418161004f60201b60201c565b5060018081905550506103f7565b5f73ffffffffffffffffffffffffffffffffffffffff168173ffffffffffffffffffffffffffffffffffffffff16036100bd576040517f08c379a00000000000000000000000000000000000000000000000000000000081526004016100b4906102e3565b60405180910390fd5b5f8173ffffffffffffffffffffffffffffffffffffffff163b11610116576040517f08c379a000000000000000000000000000000000000000000000000000000000815260040161010d9061034b565b60405180910390fd5b8073ffffffffffffffffffffffffffffffffffffffff16638da5cb5b6040518163ffffffff1660e01b8152600401602060405180830381865afa92505050801561017e57506040513d601f19601f8201168201806040525081019061017b919061025e565b60015b6101bd576040517f08c379a00000000000000000000000000000000000000000000000000000000081526004016101b4906103d9565b60405180910390fd5b815f5f6101000a81548173ffffffffffffffffffffffffffffffffffffffff021916908373ffffffffffffffffffffffffffffffffffffffff1602179055505050565b5f5ffd5b5f73ffffffffffffffffffffffffffffffffffffffff82169050919050565b5f61022d82610204565b9050919050565b61023d81610223565b8114610247575f5ffd5b50565b5f8151905061025881610234565b92915050565b5f6020828403121561027357610272610200565b5b5f6102808482850161024a565b91505092915050565b5f82825260208201905092915050565b7f4469726563746f72792063616e6e6f74206265207a65726f20616464726573735f82015250565b5f6102cd602083610289565b91506102d882610299565b602082019050919050565b5f6020820190508181035f8301526102fa816102c1565b9050919050565b7f4469726563746f7279206d757374206265206120636f6e7472616374000000005f82015250565b5f610335601c83610289565b915061034082610301565b602082019050919050565b5f6020820190508181035f83015261036281610329565b9050919050565b7f4469726563746f7279206164647265737320646f6573206e6f7420696d706c655f8201527f6d656e74206f776e657228290000000000000000000000000000000000000000602082015250565b5f6103c3602c83610289565b91506103ce82610369565b604082019050919050565b5f6020820190508181035f8301526103f0816103b7565b9050919050565b613043806104045f395ff3fe608060405260043610610054575f3560e01c806316274921146100585780632726261814610080578063658a847a146100bc578063706910ff146100e65780638da5cb5b14610102578063ba4c7be11461012c575b5f5ffd5b348015610063575f5ffd5b5061007e60048036038101906100799190611a86565b610154565b005b34801561008b575f5ffd5b506100a660048036038101906100a19190611c39565b6104a6565b6040516100b39190611ca0565b60405180910390f35b3480156100c7575f5ffd5b506100d0610546565b6040516100dd9190611d14565b60405180910390f35b61010060048036038101906100fb9190611d57565b61056a565b005b34801561010d575f5ffd5b50610116610728565b6040516101239190611ca0565b60405180910390f35b348015610137575f5ffd5b50610152600480360381019061014d9190611dbb565b6107bb565b005b61015c6108c1565b5f841161019e576040517f08c379a000000000000000000000000000000000000000000000000000000000815260040161019590611e66565b60405180910390fd5b5f73ffffffffffffffffffffffffffffffffffffffff168373ffffffffffffffffffffffffffffffffffffffff160361020c576040517f08c379a000000000000000000000000000000000000000000000000000000000815260040161020390611ef4565b60405180910390fd5b5f610215610910565b73ffffffffffffffffffffffffffffffffffffffff1663549e122b876040518263ffffffff1660e01b815260040161024d9190611f21565b5f60405180830381865afa158015610267573d5f5f3e3d5ffd5b505050506040513d5f823e3d601f19601f8201168201806040525081019061028f91906121cf565b90505f5f61029c88610954565b915091505f8273ffffffffffffffffffffffffffffffffffffffff166318160ddd6040518163ffffffff1660e01b8152600401602060405180830381865afa1580156102ea573d5f5f3e3d5ffd5b505050506040513d601f19601f8201168201806040525081019061030e919061222a565b90505f8111610352576040517f08c379a00000000000000000000000000000000000000000000000000000000081526004016103499061229f565b60405180910390fd5b80881115610395576040517f08c379a000000000000000000000000000000000000000000000000000000000815260040161038c9061232d565b60405180910390fd5b8273ffffffffffffffffffffffffffffffffffffffff16639dc29fac338a6040518363ffffffff1660e01b81526004016103d092919061234b565b5f604051808303815f87803b1580156103e7575f5ffd5b505af11580156103f9573d5f5f3e3d5ffd5b505050505f8773ffffffffffffffffffffffffffffffffffffffff16319050610427858a84868c8c8c610b43565b5f8873ffffffffffffffffffffffffffffffffffffffff163190505f828261044f919061239f565b90507f04642da3c4a621c7d8cd33d4709199a744bf8c879474df32af78b084896a79de8c338c8e856040516104889594939291906123f2565b60405180910390a15050505050505061049f610fd6565b5050505050565b5f5f5f9054906101000a900473ffffffffffffffffffffffffffffffffffffffff1673ffffffffffffffffffffffffffffffffffffffff166327262618836040518263ffffffff1660e01b81526004016105009190612485565b602060405180830381865afa15801561051b573d5f5f3e3d5ffd5b505050506040513d601f19601f8201168201806040525081019061053f91906124a5565b9050919050565b5f5f9054906101000a900473ffffffffffffffffffffffffffffffffffffffff1681565b6105726108c1565b5f34116105b4576040517f08c379a00000000000000000000000000000000000000000000000000000000081526004016105ab90612540565b60405180910390fd5b5f73ffffffffffffffffffffffffffffffffffffffff168373ffffffffffffffffffffffffffffffffffffffff1603610622576040517f08c379a0000000000000000000000000000000000000000000000000000000008152600401610619906125ce565b60405180910390fd5b5f61062b610910565b73ffffffffffffffffffffffffffffffffffffffff1663549e122b866040518263ffffffff1660e01b81526004016106639190611f21565b5f60405180830381865afa15801561067d573d5f5f3e3d5ffd5b505050506040513d5f823e3d601f19601f820116820180604052508101906106a591906121cf565b90505f5f6106b287610954565b915091505f3490506106c78482848989610fdf565b5f6106d48983868b611215565b90507f5b3fa64172584174917e1b3a206fe9c25d3120cf366b3d05ad5b6183a15cf78989338a843460405161070d9594939291906125ec565b60405180910390a15050505050610722610fd6565b50505050565b5f5f5f9054906101000a900473ffffffffffffffffffffffffffffffffffffffff1673ffffffffffffffffffffffffffffffffffffffff16638da5cb5b6040518163ffffffff1660e01b8152600401602060405180830381865afa158015610792573d5f5f3e3d5ffd5b505050506040513d601f19601f820116820180604052508101906107b691906124a5565b905090565b5f5f9054906101000a900473ffffffffffffffffffffffffffffffffffffffff1673ffffffffffffffffffffffffffffffffffffffff16638da5cb5b6040518163ffffffff1660e01b8152600401602060405180830381865afa158015610824573d5f5f3e3d5ffd5b505050506040513d601f19601f8201168201806040525081019061084891906124a5565b73ffffffffffffffffffffffffffffffffffffffff163373ffffffffffffffffffffffffffffffffffffffff16146108b5576040517f08c379a00000000000000000000000000000000000000000000000000000000081526004016108ac90612687565b60405180910390fd5b6108be816114cd565b50565b600260015403610906576040517f08c379a00000000000000000000000000000000000000000000000000000000081526004016108fd906126ef565b60405180910390fd5b6002600181905550565b5f61094f6040518060400160405280600d81526020017f696e6465782d666163746f7279000000000000000000000000000000000000008152506104a6565b905090565b5f5f5f61095f61167e565b73ffffffffffffffffffffffffffffffffffffffff1663f2018a1f856040518263ffffffff1660e01b81526004016109979190611f21565b602060405180830381865afa1580156109b2573d5f5f3e3d5ffd5b505050506040513d601f19601f820116820180604052508101906109d691906124a5565b90505f6109e161167e565b73ffffffffffffffffffffffffffffffffffffffff16633ee79962866040518263ffffffff1660e01b8152600401610a199190611f21565b602060405180830381865afa158015610a34573d5f5f3e3d5ffd5b505050506040513d601f19601f82011682018060405250810190610a5891906124a5565b90505f73ffffffffffffffffffffffffffffffffffffffff168273ffffffffffffffffffffffffffffffffffffffff1603610ac8576040517f08c379a0000000000000000000000000000000000000000000000000000000008152600401610abf9061277d565b60405180910390fd5b5f73ffffffffffffffffffffffffffffffffffffffff168173ffffffffffffffffffffffffffffffffffffffff1603610b36576040517f08c379a0000000000000000000000000000000000000000000000000000000008152600401610b2d9061280b565b60405180910390fd5b8181935093505050915091565b5f5f90505f5f90505b886040015151811015610c3a575f89604001518281518110610b7157610b70612829565b5b60200260200101515f015190505f8173ffffffffffffffffffffffffffffffffffffffff166370a08231896040518263ffffffff1660e01b8152600401610bb89190611ca0565b602060405180830381865afa158015610bd3573d5f5f3e3d5ffd5b505050506040513d601f19601f82011682018060405250810190610bf7919061222a565b90505f898b83610c079190612856565b610c1191906128c4565b90505f811115610c2a578480610c26906128f4565b9550505b5050508080600101915050610b4c565b505f8111610c7d576040517f08c379a0000000000000000000000000000000000000000000000000000000008152600401610c7490612985565b60405180910390fd5b5f8167ffffffffffffffff811115610c9857610c97611b15565b5b604051908082528060200260200182016040528015610cd157816020015b610cbe611956565b815260200190600190039081610cb65790505b5090505f5f90505f5f90505b8a6040015151811015610ea3575f8b604001518281518110610d0257610d01612829565b5b60200260200101515f015190505f8173ffffffffffffffffffffffffffffffffffffffff166370a082318b6040518263ffffffff1660e01b8152600401610d499190611ca0565b602060405180830381865afa158015610d64573d5f5f3e3d5ffd5b505050506040513d601f19601f82011682018060405250810190610d88919061222a565b90505f8103610d98575050610e96565b5f8b8d83610da69190612856565b610db091906128c4565b90505f8103610dc157505050610e96565b8a73ffffffffffffffffffffffffffffffffffffffff16633ccdbb288483306040518463ffffffff1660e01b8152600401610dfe939291906129a3565b5f604051808303815f87803b158015610e15575f5ffd5b505af1158015610e27573d5f5f3e3d5ffd5b50505050610e3d83610e376116c2565b83611706565b60405180604001604052808473ffffffffffffffffffffffffffffffffffffffff16815260200182815250868680610e74906128f4565b975081518110610e8757610e86612829565b5b60200260200101819052505050505b8080600101915050610cdd565b505f600167ffffffffffffffff811115610ec057610ebf611b15565b5b604051908082528060200260200182016040528015610ef957816020015b610ee6611984565b815260200190600190039081610ede5790505b50905060405180604001604052805f73ffffffffffffffffffffffffffffffffffffffff16815260200161271061ffff16815250815f81518110610f4057610f3f612829565b5b6020026020010181905250610f536116c2565b73ffffffffffffffffffffffffffffffffffffffff1663192b588784838a8a8a610f7b6118b7565b6040518763ffffffff1660e01b8152600401610f9c96959493929190612c84565b5f604051808303815f87803b158015610fb3575f5ffd5b505af1158015610fc5573d5f5f3e3d5ffd5b505050505050505050505050505050565b60018081905550565b5f600167ffffffffffffffff811115610ffb57610ffa611b15565b5b60405190808252806020026020018201604052801561103457816020015b611021611956565b8152602001906001900390816110195790505b50905060405180604001604052805f73ffffffffffffffffffffffffffffffffffffffff16815260200186815250815f8151811061107557611074612829565b5b60200260200101819052505f86604001515167ffffffffffffffff8111156110a05761109f611b15565b5b6040519080825280602002602001820160405280156110d957816020015b6110c6611984565b8152602001906001900390816110be5790505b5090505f5f90505b87604001515181101561118b576040518060400160405280896040015183815181106111105761110f612829565b5b60200260200101515f015173ffffffffffffffffffffffffffffffffffffffff1681526020018960400151838151811061114d5761114c612829565b5b60200260200101516020015161ffff1681525082828151811061117357611172612829565b5b602002602001018190525080806001019150506110e1565b506111946116c2565b73ffffffffffffffffffffffffffffffffffffffff1663192b58878784848989896111bd6118b7565b6040518863ffffffff1660e01b81526004016111de96959493929190612c84565b5f604051808303818588803b1580156111f5575f5ffd5b505af1158015611207573d5f5f3e3d5ffd5b505050505050505050505050565b5f5f8373ffffffffffffffffffffffffffffffffffffffff166318160ddd6040518163ffffffff1660e01b8152600401602060405180830381865afa158015611260573d5f5f3e3d5ffd5b505050506040513d601f19601f82011682018060405250810190611284919061222a565b90505f61128f61167e565b73ffffffffffffffffffffffffffffffffffffffff1663e4b603b3886040518263ffffffff1660e01b81526004016112c79190611f21565b602060405180830381865afa1580156112e2573d5f5f3e3d5ffd5b505050506040513d601f19601f82011682018060405250810190611306919061222a565b90505f5f83036113fb575f611319611912565b73ffffffffffffffffffffffffffffffffffffffff1663c9d54fa78a6040518263ffffffff1660e01b81526004016113519190611f21565b602060405180830381865afa15801561136c573d5f5f3e3d5ffd5b505050506040513d601f19601f82011682018060405250810190611390919061222a565b90505f81116113d4576040517f08c379a00000000000000000000000000000000000000000000000000000000081526004016113cb90612d42565b60405180910390fd5b80670de0b6b3a7640000896113e99190612856565b6113f391906128c4565b915050611457565b5f821161143d576040517f08c379a000000000000000000000000000000000000000000000000000000000815260040161143490612daa565b60405180910390fd5b81838861144a9190612856565b61145491906128c4565b90505b8573ffffffffffffffffffffffffffffffffffffffff166340c10f1986836040518363ffffffff1660e01b815260040161149292919061234b565b5f604051808303815f87803b1580156114a9575f5ffd5b505af11580156114bb573d5f5f3e3d5ffd5b50505050809350505050949350505050565b5f73ffffffffffffffffffffffffffffffffffffffff168173ffffffffffffffffffffffffffffffffffffffff160361153b576040517f08c379a000000000000000000000000000000000000000000000000000000000815260040161153290612e12565b60405180910390fd5b5f8173ffffffffffffffffffffffffffffffffffffffff163b11611594576040517f08c379a000000000000000000000000000000000000000000000000000000000815260040161158b90612e7a565b60405180910390fd5b8073ffffffffffffffffffffffffffffffffffffffff16638da5cb5b6040518163ffffffff1660e01b8152600401602060405180830381865afa9250505080156115fc57506040513d601f19601f820116820180604052508101906115f991906124a5565b60015b61163b576040517f08c379a000000000000000000000000000000000000000000000000000000000815260040161163290612f08565b60405180910390fd5b815f5f6101000a81548173ffffffffffffffffffffffffffffffffffffffff021916908373ffffffffffffffffffffffffffffffffffffffff1602179055505050565b5f6116bd6040518060400160405280600b81526020017f6574662d666163746f72790000000000000000000000000000000000000000008152506104a6565b905090565b5f6117016040518060400160405280601081526020017f6d756c7469737761702d726f75746572000000000000000000000000000000008152506104a6565b905090565b5f8390505f8173ffffffffffffffffffffffffffffffffffffffff1663dd62ed3e30866040518363ffffffff1660e01b8152600401611746929190612f26565b602060405180830381865afa158015611761573d5f5f3e3d5ffd5b505050506040513d601f19601f82011682018060405250810190611785919061222a565b9050828110156118b0575f8114611813578173ffffffffffffffffffffffffffffffffffffffff1663095ea7b3855f6040518363ffffffff1660e01b81526004016117d1929190612f86565b6020604051808303815f875af11580156117ed573d5f5f3e3d5ffd5b505050506040513d601f19601f820116820180604052508101906118119190612fe2565b505b8173ffffffffffffffffffffffffffffffffffffffff1663095ea7b3857fffffffffffffffffffffffffffffffffffffffffffffffffffffffffffffffff6040518363ffffffff1660e01b815260040161186e92919061234b565b6020604051808303815f875af115801561188a573d5f5f3e3d5ffd5b505050506040513d601f19601f820116820180604052508101906118ae9190612fe2565b505b5050505050565b60605f67ffffffffffffffff8111156118d3576118d2611b15565b5b60405190808252806020026020018201604052801561190c57816020015b6118f96119b6565b8152602001906001900390816118f15790505b50905090565b5f6119516040518060400160405280601281526020017f696e6465782d70726963652d6f7261636c6500000000000000000000000000008152506104a6565b905090565b60405180604001604052805f73ffffffffffffffffffffffffffffffffffffffff1681526020015f81525090565b60405180604001604052805f73ffffffffffffffffffffffffffffffffffffffff1681526020015f61ffff1681525090565b60405180604001604052805f73ffffffffffffffffffffffffffffffffffffffff1681526020015f61ffff1681525090565b5f604051905090565b5f5ffd5b5f5ffd5b5f819050919050565b611a0b816119f9565b8114611a15575f5ffd5b50565b5f81359050611a2681611a02565b92915050565b5f73ffffffffffffffffffffffffffffffffffffffff82169050919050565b5f611a5582611a2c565b9050919050565b611a6581611a4b565b8114611a6f575f5ffd5b50565b5f81359050611a8081611a5c565b92915050565b5f5f5f5f5f60a08688031215611a9f57611a9e6119f1565b5b5f611aac88828901611a18565b9550506020611abd88828901611a18565b9450506040611ace88828901611a72565b9350506060611adf88828901611a18565b9250506080611af088828901611a18565b9150509295509295909350565b5f5ffd5b5f5ffd5b5f601f19601f8301169050919050565b7f4e487b71000000000000000000000000000000000000000000000000000000005f52604160045260245ffd5b611b4b82611b05565b810181811067ffffffffffffffff82111715611b6a57611b69611b15565b5b80604052505050565b5f611b7c6119e8565b9050611b888282611b42565b919050565b5f67ffffffffffffffff821115611ba757611ba6611b15565b5b611bb082611b05565b9050602081019050919050565b828183375f83830152505050565b5f611bdd611bd884611b8d565b611b73565b905082815260208101848484011115611bf957611bf8611b01565b5b611c04848285611bbd565b509392505050565b5f82601f830112611c2057611c1f611afd565b5b8135611c30848260208601611bcb565b91505092915050565b5f60208284031215611c4e57611c4d6119f1565b5b5f82013567ffffffffffffffff811115611c6b57611c6a6119f5565b5b611c7784828501611c0c565b91505092915050565b5f611c8a82611a2c565b9050919050565b611c9a81611c80565b82525050565b5f602082019050611cb35f830184611c91565b92915050565b5f819050919050565b5f611cdc611cd7611cd284611a2c565b611cb9565b611a2c565b9050919050565b5f611ced82611cc2565b9050919050565b5f611cfe82611ce3565b9050919050565b611d0e81611cf4565b82525050565b5f602082019050611d275f830184611d05565b92915050565b611d3681611c80565b8114611d40575f5ffd5b50565b5f81359050611d5181611d2d565b92915050565b5f5f5f5f60808587031215611d6f57611d6e6119f1565b5b5f611d7c87828801611a18565b9450506020611d8d87828801611d43565b9350506040611d9e87828801611a18565b9250506060611daf87828801611a18565b91505092959194509250565b5f60208284031215611dd057611dcf6119f1565b5b5f611ddd84828501611d43565b91505092915050565b5f82825260208201905092915050565b7f457466526f757465723a20746f6b656e7320746f2073656c6c2073686f756c645f8201527f206e6f74206265207a65726f0000000000000000000000000000000000000000602082015250565b5f611e50602c83611de6565b9150611e5b82611df6565b604082019050919050565b5f6020820190508181035f830152611e7d81611e44565b9050919050565b7f457466526f757465723a2072656365697665722073686f756c64206e6f7420625f8201527f65207a65726f2061646472657373000000000000000000000000000000000000602082015250565b5f611ede602e83611de6565b9150611ee982611e84565b604082019050919050565b5f6020820190508181035f830152611f0b81611ed2565b9050919050565b611f1b816119f9565b82525050565b5f602082019050611f345f830184611f12565b92915050565b5f5ffd5b5f5ffd5b8281835e5f83830152505050565b5f611f62611f5d84611b8d565b611b73565b905082815260208101848484011115611f7e57611f7d611b01565b5b611f89848285611f42565b509392505050565b5f82601f830112611fa557611fa4611afd565b5b8151611fb5848260208601611f50565b91505092915050565b5f67ffffffffffffffff821115611fd857611fd7611b15565b5b602082029050602081019050919050565b5f5ffd5b5f81519050611ffb81611d2d565b92915050565b5f61ffff82169050919050565b61201781612001565b8114612021575f5ffd5b50565b5f815190506120328161200e565b92915050565b5f6040828403121561204d5761204c611f3a565b5b6120576040611b73565b90505f61206684828501611fed565b5f83015250602061207984828501612024565b60208301525092915050565b5f61209761209284611fbe565b611b73565b905080838252602082019050604084028301858111156120ba576120b9611fe9565b5b835b818110156120e357806120cf8882612038565b8452602084019350506040810190506120bc565b5050509392505050565b5f82601f83011261210157612100611afd565b5b8151612111848260208601612085565b91505092915050565b5f6060828403121561212f5761212e611f3a565b5b6121396060611b73565b90505f82015167ffffffffffffffff81111561215857612157611f3e565b5b61216484828501611f91565b5f83015250602082015167ffffffffffffffff81111561218757612186611f3e565b5b61219384828501611f91565b602083015250604082015167ffffffffffffffff8111156121b7576121b6611f3e565b5b6121c3848285016120ed565b60408301525092915050565b5f602082840312156121e4576121e36119f1565b5b5f82015167ffffffffffffffff811115612201576122006119f5565b5b61220d8482850161211a565b91505092915050565b5f8151905061222481611a02565b92915050565b5f6020828403121561223f5761223e6119f1565b5b5f61224c84828501612216565b91505092915050565b7f457466526f757465723a20746f6b656e20737570706c79206973207a65726f005f82015250565b5f612289601f83611de6565b915061229482612255565b602082019050919050565b5f6020820190508181035f8301526122b68161227d565b9050919050565b7f457466526f757465723a2073656c6c546f6b656e416d6f756e742069732067725f8201527f6561746572207468616e20746f74616c20737570706c79000000000000000000602082015250565b5f612317603783611de6565b9150612322826122bd565b604082019050919050565b5f6020820190508181035f8301526123448161230b565b9050919050565b5f60408201905061235e5f830185611c91565b61236b6020830184611f12565b9392505050565b7f4e487b71000000000000000000000000000000000000000000000000000000005f52601160045260245ffd5b5f6123a9826119f9565b91506123b4836119f9565b92508282039050818111156123cc576123cb612372565b5b92915050565b5f6123dc82611ce3565b9050919050565b6123ec816123d2565b82525050565b5f60a0820190506124055f830188611f12565b6124126020830187611c91565b61241f60408301866123e3565b61242c6060830185611f12565b6124396080830184611f12565b9695505050505050565b5f81519050919050565b5f61245782612443565b6124618185611de6565b9350612471818560208601611f42565b61247a81611b05565b840191505092915050565b5f6020820190508181035f83015261249d818461244d565b905092915050565b5f602082840312156124ba576124b96119f1565b5b5f6124c784828501611fed565b91505092915050565b7f457466526f757465723a204d73672076616c75652063616e6e6f74206265207a5f8201527f65726f0000000000000000000000000000000000000000000000000000000000602082015250565b5f61252a602383611de6565b9150612535826124d0565b604082019050919050565b5f6020820190508181035f8301526125578161251e565b9050919050565b7f457466526f757465723a2052656365697665722063616e6e6f74206265207a655f8201527f726f206164647265737300000000000000000000000000000000000000000000602082015250565b5f6125b8602a83611de6565b91506125c38261255e565b604082019050919050565b5f6020820190508181035f8301526125e5816125ac565b9050919050565b5f60a0820190506125ff5f830188611f12565b61260c6020830187611c91565b6126196040830186611c91565b6126266060830185611f12565b6126336080830184611f12565b9695505050505050565b7f43616c6c6572206973206e6f7420746865206f776e65720000000000000000005f82015250565b5f612671601783611de6565b915061267c8261263d565b602082019050919050565b5f6020820190508181035f83015261269e81612665565b9050919050565b7f5265656e7472616e637947756172643a207265656e7472616e742063616c6c005f82015250565b5f6126d9601f83611de6565b91506126e4826126a5565b602082019050919050565b5f6020820190508181035f830152612706816126cd565b9050919050565b7f457466526f757465723a20657466546f6b656e41646472657373206e6f7420645f8201527f65706c6f79656400000000000000000000000000000000000000000000000000602082015250565b5f612767602783611de6565b91506127728261270d565b604082019050919050565b5f6020820190508181035f8301526127948161275b565b9050919050565b7f457466526f757465723a206574665661756c7441646472657373206e6f7420645f8201527f65706c6f79656400000000000000000000000000000000000000000000000000602082015250565b5f6127f5602783611de6565b91506128008261279b565b604082019050919050565b5f6020820190508181035f830152612822816127e9565b9050919050565b7f4e487b71000000000000000000000000000000000000000000000000000000005f52603260045260245ffd5b5f612860826119f9565b915061286b836119f9565b9250828202612879816119f9565b915082820484148315176128905761288f612372565b5b5092915050565b7f4e487b71000000000000000000000000000000000000000000000000000000005f52601260045260245ffd5b5f6128ce826119f9565b91506128d9836119f9565b9250826128e9576128e8612897565b5b828204905092915050565b5f6128fe826119f9565b91507fffffffffffffffffffffffffffffffffffffffffffffffffffffffffffffffff82036129305761292f612372565b5b600182019050919050565b7f457466526f757465723a206e6f7468696e6720746f20776974686472617700005f82015250565b5f61296f601e83611de6565b915061297a8261293b565b602082019050919050565b5f6020820190508181035f83015261299c81612963565b9050919050565b5f6060820190506129b65f830186611c91565b6129c36020830185611f12565b6129d06040830184611c91565b949350505050565b5f81519050919050565b5f82825260208201905092915050565b5f819050602082019050919050565b612a0a81611c80565b82525050565b612a19816119f9565b82525050565b604082015f820151612a335f850182612a01565b506020820151612a466020850182612a10565b50505050565b5f612a578383612a1f565b60408301905092915050565b5f602082019050919050565b5f612a79826129d8565b612a8381856129e2565b9350612a8e836129f2565b805f5b83811015612abe578151612aa58882612a4c565b9750612ab083612a63565b925050600181019050612a91565b5085935050505092915050565b5f81519050919050565b5f82825260208201905092915050565b5f819050602082019050919050565b612afd81612001565b82525050565b604082015f820151612b175f850182612a01565b506020820151612b2a6020850182612af4565b50505050565b5f612b3b8383612b03565b60408301905092915050565b5f602082019050919050565b5f612b5d82612acb565b612b678185612ad5565b9350612b7283612ae5565b805f5b83811015612ba2578151612b898882612b30565b9750612b9483612b47565b925050600181019050612b75565b5085935050505092915050565b5f81519050919050565b5f82825260208201905092915050565b5f819050602082019050919050565b604082015f820151612bec5f850182612a01565b506020820151612bff6020850182612af4565b50505050565b5f612c108383612bd8565b60408301905092915050565b5f602082019050919050565b5f612c3282612baf565b612c3c8185612bb9565b9350612c4783612bc9565b805f5b83811015612c77578151612c5e8882612c05565b9750612c6983612c1c565b925050600181019050612c4a565b5085935050505092915050565b5f60c0820190508181035f830152612c9c8189612a6f565b90508181036020830152612cb08188612b53565b9050612cbf6040830187611c91565b612ccc6060830186611f12565b612cd96080830185611f12565b81810360a0830152612ceb8184612c28565b9050979650505050505050565b7f457466526f757465723a20696e646578207072696365206973207a65726f00005f82015250565b5f612d2c601e83611de6565b9150612d3782612cf8565b602082019050919050565b5f6020820190508181035f830152612d5981612d20565b9050919050565b7f457466526f757465723a204e4156206973207a65726f000000000000000000005f82015250565b5f612d94601683611de6565b9150612d9f82612d60565b602082019050919050565b5f6020820190508181035f830152612dc181612d88565b9050919050565b7f4469726563746f72792063616e6e6f74206265207a65726f20616464726573735f82015250565b5f612dfc602083611de6565b9150612e0782612dc8565b602082019050919050565b5f6020820190508181035f830152612e2981612df0565b9050919050565b7f4469726563746f7279206d757374206265206120636f6e7472616374000000005f82015250565b5f612e64601c83611de6565b9150612e6f82612e30565b602082019050919050565b5f6020820190508181035f830152612e9181612e58565b9050919050565b7f4469726563746f7279206164647265737320646f6573206e6f7420696d706c655f8201527f6d656e74206f776e657228290000000000000000000000000000000000000000602082015250565b5f612ef2602c83611de6565b9150612efd82612e98565b604082019050919050565b5f6020820190508181035f830152612f1f81612ee6565b9050919050565b5f604082019050612f395f830185611c91565b612f466020830184611c91565b9392505050565b5f819050919050565b5f612f70612f6b612f6684612f4d565b611cb9565b6119f9565b9050919050565b612f8081612f56565b82525050565b5f604082019050612f995f830185611c91565b612fa66020830184612f77565b9392505050565b5f8115159050919050565b612fc181612fad565b8114612fcb575f5ffd5b50565b5f81519050612fdc81612fb8565b92915050565b5f60208284031215612ff757612ff66119f1565b5b5f61300484828501612fce565b9150509291505056fea2646970667358221220097cf149e5fa7e2597ed35cd9e1e7bc928a225ffad5b862ea95d883a52ffd6a764736f6c634300081e0033",
			"opcodes": "PUSH1 0x80 PUSH1 0x40 MSTORE CALLVALUE DUP1 ISZERO PUSH2 0xF JUMPI PUSH0 PUSH0 REVERT JUMPDEST POP PUSH1 0x40 MLOAD PUSH2 0x3447 CODESIZE SUB DUP1 PUSH2 0x3447 DUP4 CODECOPY DUP2 DUP2 ADD PUSH1 0x40 MSTORE DUP2 ADD SWAP1 PUSH2 0x31 SWAP2 SWAP1 PUSH2 0x25E JUMP JUMPDEST DUP1 PUSH2 0x41 DUP2 PUSH2 0x4F PUSH1 0x20 SHL PUSH1 0x20 SHR JUMP JUMPDEST POP PUSH1 0x1 DUP1 DUP2 SWAP1 SSTORE POP POP PUSH2 0x3F7 JUMP JUMPDEST PUSH0 PUSH20 0xFFFFFFFFFFFFFFFFFFFFFFFFFFFFFFFFFFFFFFFF AND DUP2 PUSH20 0xFFFFFFFFFFFFFFFFFFFFFFFFFFFFFFFFFFFFFFFF AND SUB PUSH2 0xBD JUMPI PUSH1 0x40 MLOAD PUSH32 0x8C379A000000000000000000000000000000000000000000000000000000000 DUP2 MSTORE PUSH1 0x4 ADD PUSH2 0xB4 SWAP1 PUSH2 0x2E3 JUMP JUMPDEST PUSH1 0x40 MLOAD DUP1 SWAP2 SUB SWAP1 REVERT JUMPDEST PUSH0 DUP2 PUSH20 0xFFFFFFFFFFFFFFFFFFFFFFFFFFFFFFFFFFFFFFFF AND EXTCODESIZE GT PUSH2 0x116 JUMPI PUSH1 0x40 MLOAD PUSH32 0x8C379A000000000000000000000000000000000000000000000000000000000 DUP2 MSTORE PUSH1 0x4 ADD PUSH2 0x10D SWAP1 PUSH2 0x34B JUMP JUMPDEST PUSH1 0x40 MLOAD DUP1 SWAP2 SUB SWAP1 REVERT JUMPDEST DUP1 PUSH20 0xFFFFFFFFFFFFFFFFFFFFFFFFFFFFFFFFFFFFFFFF AND PUSH4 0x8DA5CB5B PUSH1 0x40 MLOAD DUP2 PUSH4 0xFFFFFFFF AND PUSH1 0xE0 SHL DUP2 MSTORE PUSH1 0x4 ADD PUSH1 0x20 PUSH1 0x40 MLOAD DUP1 DUP4 SUB DUP2 DUP7 GAS STATICCALL SWAP3 POP POP POP DUP1 ISZERO PUSH2 0x17E JUMPI POP PUSH1 0x40 MLOAD RETURNDATASIZE PUSH1 0x1F NOT PUSH1 0x1F DUP3 ADD AND DUP3 ADD DUP1 PUSH1 0x40 MSTORE POP DUP2 ADD SWAP1 PUSH2 0x17B SWAP2 SWAP1 PUSH2 0x25E JUMP JUMPDEST PUSH1 0x1 JUMPDEST PUSH2 0x1BD JUMPI PUSH1 0x40 MLOAD PUSH32 0x8C379A000000000000000000000000000000000000000000000000000000000 DUP2 MSTORE PUSH1 0x4 ADD PUSH2 0x1B4 SWAP1 PUSH2 0x3D9 JUMP JUMPDEST PUSH1 0x40 MLOAD DUP1 SWAP2 SUB SWAP1 REVERT JUMPDEST DUP2 PUSH0 PUSH0 PUSH2 0x100 EXP DUP2 SLOAD DUP2 PUSH20 0xFFFFFFFFFFFFFFFFFFFFFFFFFFFFFFFFFFFFFFFF MUL NOT AND SWAP1 DUP4 PUSH20 0xFFFFFFFFFFFFFFFFFFFFFFFFFFFFFFFFFFFFFFFF AND MUL OR SWAP1 SSTORE POP POP POP JUMP JUMPDEST PUSH0 PUSH0 REVERT JUMPDEST PUSH0 PUSH20 0xFFFFFFFFFFFFFFFFFFFFFFFFFFFFFFFFFFFFFFFF DUP3 AND SWAP1 POP SWAP2 SWAP1 POP JUMP JUMPDEST PUSH0 PUSH2 0x22D DUP3 PUSH2 0x204 JUMP JUMPDEST SWAP1 POP SWAP2 SWAP1 POP JUMP JUMPDEST PUSH2 0x23D DUP2 PUSH2 0x223 JUMP JUMPDEST DUP2 EQ PUSH2 0x247 JUMPI PUSH0 PUSH0 REVERT JUMPDEST POP JUMP JUMPDEST PUSH0 DUP2 MLOAD SWAP1 POP PUSH2 0x258 DUP2 PUSH2 0x234 JUMP JUMPDEST SWAP3 SWAP2 POP POP JUMP JUMPDEST PUSH0 PUSH1 0x20 DUP3 DUP5 SUB SLT ISZERO PUSH2 0x273 JUMPI PUSH2 0x272 PUSH2 0x200 JUMP JUMPDEST JUMPDEST PUSH0 PUSH2 0x280 DUP5 DUP3 DUP6 ADD PUSH2 0x24A JUMP JUMPDEST SWAP2 POP POP SWAP3 SWAP2 POP POP JUMP JUMPDEST PUSH0 DUP3 DUP3 MSTORE PUSH1 0x20 DUP3 ADD SWAP1 POP SWAP3 SWAP2 POP POP JUMP JUMPDEST PUSH32 0x4469726563746F72792063616E6E6F74206265207A65726F2061646472657373 PUSH0 DUP3 ADD MSTORE POP JUMP JUMPDEST PUSH0 PUSH2 0x2CD PUSH1 0x20 DUP4 PUSH2 0x289 JUMP JUMPDEST SWAP2 POP PUSH2 0x2D8 DUP3 PUSH2 0x299 JUMP JUMPDEST PUSH1 0x20 DUP3 ADD SWAP1 POP SWAP2 SWAP1 POP JUMP JUMPDEST PUSH0 PUSH1 0x20 DUP3 ADD SWAP1 POP DUP2 DUP2 SUB PUSH0 DUP4 ADD MSTORE PUSH2 0x2FA DUP2 PUSH2 0x2C1 JUMP JUMPDEST SWAP1 POP SWAP2 SWAP1 POP JUMP JUMPDEST PUSH32 0x4469726563746F7279206D757374206265206120636F6E747261637400000000 PUSH0 DUP3 ADD MSTORE POP JUMP JUMPDEST PUSH0 PUSH2 0x335 PUSH1 0x1C DUP4 PUSH2 0x289 JUMP JUMPDEST SWAP2 POP PUSH2 0x340 DUP3 PUSH2 0x301 JUMP JUMPDEST PUSH1 0x20 DUP3 ADD SWAP1 POP SWAP2 SWAP1 POP JUMP JUMPDEST PUSH0 PUSH1 0x20 DUP3 ADD SWAP1 POP DUP2 DUP2 SUB PUSH0 DUP4 ADD MSTORE PUSH2 0x362 DUP2 PUSH2 0x329 JUMP JUMPDEST SWAP1 POP SWAP2 SWAP1 POP JUMP JUMPDEST PUSH32 0x4469726563746F7279206164647265737320646F6573206E6F7420696D706C65 PUSH0 DUP3 ADD MSTORE PUSH32 0x6D656E74206F776E657228290000000000000000000000000000000000000000 PUSH1 0x20 DUP3 ADD MSTORE POP JUMP JUMPDEST PUSH0 PUSH2 0x3C3 PUSH1 0x2C DUP4 PUSH2 0x289 JUMP JUMPDEST SWAP2 POP PUSH2 0x3CE DUP3 PUSH2 0x369 JUMP JUMPDEST PUSH1 0x40 DUP3 ADD SWAP1 POP SWAP2 SWAP1 POP JUMP JUMPDEST PUSH0 PUSH1 0x20 DUP3 ADD SWAP1 POP DUP2 DUP2 SUB PUSH0 DUP4 ADD MSTORE PUSH2 0x3F0 DUP2 PUSH2 0x3B7 JUMP JUMPDEST SWAP1 POP SWAP2 SWAP1 POP JUMP JUMPDEST PUSH2 0x3043 DUP1 PUSH2 0x404 PUSH0 CODECOPY PUSH0 RETURN INVALID PUSH1 0x80 PUSH1 0x40 MSTORE PUSH1 0x4 CALLDATASIZE LT PUSH2 0x54 JUMPI PUSH0 CALLDATALOAD PUSH1 0xE0 SHR DUP1 PUSH4 0x16274921 EQ PUSH2 0x58 JUMPI DUP1 PUSH4 0x27262618 EQ PUSH2 0x80 JUMPI DUP1 PUSH4 0x658A847A EQ PUSH2 0xBC JUMPI DUP1 PUSH4 0x706910FF EQ PUSH2 0xE6 JUMPI DUP1 PUSH4 0x8DA5CB5B EQ PUSH2 0x102 JUMPI DUP1 PUSH4 0xBA4C7BE1 EQ PUSH2 0x12C JUMPI JUMPDEST PUSH0 PUSH0 REVERT JUMPDEST CALLVALUE DUP1 ISZERO PUSH2 0x63 JUMPI PUSH0 PUSH0 REVERT JUMPDEST POP PUSH2 0x7E PUSH1 0x4 DUP1 CALLDATASIZE SUB DUP2 ADD SWAP1 PUSH2 0x79 SWAP2 SWAP1 PUSH2 0x1A86 JUMP JUMPDEST PUSH2 0x154 JUMP JUMPDEST STOP JUMPDEST CALLVALUE DUP1 ISZERO PUSH2 0x8B JUMPI PUSH0 PUSH0 REVERT JUMPDEST POP PUSH2 0xA6 PUSH1 0x4 DUP1 CALLDATASIZE SUB DUP2 ADD SWAP1 PUSH2 0xA1 SWAP2 SWAP1 PUSH2 0x1C39 JUMP JUMPDEST PUSH2 0x4A6 JUMP JUMPDEST PUSH1 0x40 MLOAD PUSH2 0xB3 SWAP2 SWAP1 PUSH2 0x1CA0 JUMP JUMPDEST PUSH1 0x40 MLOAD DUP1 SWAP2 SUB SWAP1 RETURN JUMPDEST CALLVALUE DUP1 ISZERO PUSH2 0xC7 JUMPI PUSH0 PUSH0 REVERT JUMPDEST POP PUSH2 0xD0 PUSH2 0x546 JUMP JUMPDEST PUSH1 0x40 MLOAD PUSH2 0xDD SWAP2 SWAP1 PUSH2 0x1D14 JUMP JUMPDEST PUSH1 0x40 MLOAD DUP1 SWAP2 SUB SWAP1 RETURN JUMPDEST PUSH2 0x100 PUSH1 0x4 DUP1 CALLDATASIZE SUB DUP2 ADD SWAP1 PUSH2 0xFB SWAP2 SWAP1 PUSH2 0x1D57 JUMP JUMPDEST PUSH2 0x56A JUMP JUMPDEST STOP JUMPDEST CALLVALUE DUP1 ISZERO PUSH2 0x10D JUMPI PUSH0 PUSH0 REVERT JUMPDEST POP PUSH2 0x116 PUSH2 0x728 JUMP JUMPDEST PUSH1 0x40 MLOAD PUSH2 0x123 SWAP2 SWAP1 PUSH2 0x1CA0 JUMP JUMPDEST PUSH1 0x40 MLOAD DUP1 SWAP2 SUB SWAP1 RETURN JUMPDEST CALLVALUE DUP1 ISZERO PUSH2 0x137 JUMPI PUSH0 PUSH0 REVERT JUMPDEST POP PUSH2 0x152 PUSH1 0x4 DUP1 CALLDATASIZE SUB DUP2 ADD SWAP1 PUSH2 0x14D SWAP2 SWAP1 PUSH2 0x1DBB JUMP JUMPDEST PUSH2 0x7BB JUMP JUMPDEST STOP JUMPDEST PUSH2 0x15C PUSH2 0x8C1 JUMP JUMPDEST PUSH0 DUP5 GT PUSH2 0x19E JUMPI PUSH1 0x40 MLOAD PUSH32 0x8C379A000000000000000000000000000000000000000000000000000000000 DUP2 MSTORE PUSH1 0x4 ADD PUSH2 0x195 SWAP1 PUSH2 0x1E66 JUMP JUMPDEST PUSH1 0x40 MLOAD DUP1 SWAP2 SUB SWAP1 REVERT JUMPDEST PUSH0 PUSH20 0xFFFFFFFFFFFFFFFFFFFFFFFFFFFFFFFFFFFFFFFF AND DUP4 PUSH20 0xFFFFFFFFFFFFFFFFFFFFFFFFFFFFFFFFFFFFFFFF AND SUB PUSH2 0x20C JUMPI PUSH1 0x40 MLOAD PUSH32 0x8C379A000000000000000000000000000000000000000000000000000000000 DUP2 MSTORE PUSH1 0x4 ADD PUSH2 0x203 SWAP1 PUSH2 0x1EF4 JUMP JUMPDEST PUSH1 0x40 MLOAD DUP1 SWAP2 SUB SWAP1 REVERT JUMPDEST PUSH0 PUSH2 0x215 PUSH2 0x910 JUMP JUMPDEST PUSH20 0xFFFFFFFFFFFFFFFFFFFFFFFFFFFFFFFFFFFFFFFF AND PUSH4 0x549E122B DUP8 PUSH1 0x40 MLOAD DUP3 PUSH4 0xFFFFFFFF AND PUSH1 0xE0 SHL DUP2 MSTORE PUSH1 0x4 ADD PUSH2 0x24D SWAP2 SWAP1 PUSH2 0x1F21 JUMP JUMPDEST PUSH0 PUSH1 0x40 MLOAD DUP1 DUP4 SUB DUP2 DUP7 GAS STATICCALL ISZERO DUP1 ISZERO PUSH2 0x267 JUMPI RETURNDATASIZE PUSH0 PUSH0 RETURNDATACOPY RETURNDATASIZE PUSH0 REVERT JUMPDEST POP POP POP POP PUSH1 0x40 MLOAD RETURNDATASIZE PUSH0 DUP3 RETURNDATACOPY RETURNDATASIZE PUSH1 0x1F NOT PUSH1 0x1F DUP3 ADD AND DUP3 ADD DUP1 PUSH1 0x40 MSTORE POP DUP2 ADD SWAP1 PUSH2 0x28F SWAP2 SWAP1 PUSH2 0x21CF JUMP JUMPDEST SWAP1 POP PUSH0 PUSH0 PUSH2 0x29C DUP9 PUSH2 0x954 JUMP JUMPDEST SWAP2 POP SWAP2 POP PUSH0 DUP3 PUSH20 0xFFFFFFFFFFFFFFFFFFFFFFFFFFFFFFFFFFFFFFFF AND PUSH4 0x18160DDD PUSH1 0x40 MLOAD DUP2 PUSH4 0xFFFFFFFF AND PUSH1 0xE0 SHL DUP2 MSTORE PUSH1 0x4 ADD PUSH1 0x20 PUSH1 0x40 MLOAD DUP1 DUP4 SUB DUP2 DUP7 GAS STATICCALL ISZERO DUP1 ISZERO PUSH2 0x2EA JUMPI RETURNDATASIZE PUSH0 PUSH0 RETURNDATACOPY RETURNDATASIZE PUSH0 REVERT JUMPDEST POP POP POP POP PUSH1 0x40 MLOAD RETURNDATASIZE PUSH1 0x1F NOT PUSH1 0x1F DUP3 ADD AND DUP3 ADD DUP1 PUSH1 0x40 MSTORE POP DUP2 ADD SWAP1 PUSH2 0x30E SWAP2 SWAP1 PUSH2 0x222A JUMP JUMPDEST SWAP1 POP PUSH0 DUP2 GT PUSH2 0x352 JUMPI PUSH1 0x40 MLOAD PUSH32 0x8C379A000000000000000000000000000000000000000000000000000000000 DUP2 MSTORE PUSH1 0x4 ADD PUSH2 0x349 SWAP1 PUSH2 0x229F JUMP JUMPDEST PUSH1 0x40 MLOAD DUP1 SWAP2 SUB SWAP1 REVERT JUMPDEST DUP1 DUP9 GT ISZERO PUSH2 0x395 JUMPI PUSH1 0x40 MLOAD PUSH32 0x8C379A000000000000000000000000000000000000000000000000000000000 DUP2 MSTORE PUSH1 0x4 ADD PUSH2 0x38C SWAP1 PUSH2 0x232D JUMP JUMPDEST PUSH1 0x40 MLOAD DUP1 SWAP2 SUB SWAP1 REVERT JUMPDEST DUP3 PUSH20 0xFFFFFFFFFFFFFFFFFFFFFFFFFFFFFFFFFFFFFFFF AND PUSH4 0x9DC29FAC CALLER DUP11 PUSH1 0x40 MLOAD DUP4 PUSH4 0xFFFFFFFF AND PUSH1 0xE0 SHL DUP2 MSTORE PUSH1 0x4 ADD PUSH2 0x3D0 SWAP3 SWAP2 SWAP1 PUSH2 0x234B JUMP JUMPDEST PUSH0 PUSH1 0x40 MLOAD DUP1 DUP4 SUB DUP2 PUSH0 DUP8 DUP1 EXTCODESIZE ISZERO DUP1 ISZERO PUSH2 0x3E7 JUMPI PUSH0 PUSH0 REVERT JUMPDEST POP GAS CALL ISZERO DUP1 ISZERO PUSH2 0x3F9 JUMPI RETURNDATASIZE PUSH0 PUSH0 RETURNDATACOPY RETURNDATASIZE PUSH0 REVERT JUMPDEST POP POP POP POP PUSH0 DUP8 PUSH20 0xFFFFFFFFFFFFFFFFFFFFFFFFFFFFFFFFFFFFFFFF AND BALANCE SWAP1 POP PUSH2 0x427 DUP6 DUP11 DUP5 DUP7 DUP13 DUP13 DUP13 PUSH2 0xB43 JUMP JUMPDEST PUSH0 DUP9 PUSH20 0xFFFFFFFFFFFFFFFFFFFFFFFFFFFFFFFFFFFFFFFF AND BALANCE SWAP1 POP PUSH0 DUP3 DUP3 PUSH2 0x44F SWAP2 SWAP1 PUSH2 0x239F JUMP JUMPDEST SWAP1 POP PUSH32 0x4642DA3C4A621C7D8CD33D4709199A744BF8C879474DF32AF78B084896A79DE DUP13 CALLER DUP13 DUP15 DUP6 PUSH1 0x40 MLOAD PUSH2 0x488 SWAP6 SWAP5 SWAP4 SWAP3 SWAP2 SWAP1 PUSH2 0x23F2 JUMP JUMPDEST PUSH1 0x40 MLOAD DUP1 SWAP2 SUB SWAP1 LOG1 POP POP POP POP POP POP POP PUSH2 0x49F PUSH2 0xFD6 JUMP JUMPDEST POP POP POP POP POP JUMP JUMPDEST PUSH0 PUSH0 PUSH0 SWAP1 SLOAD SWAP1 PUSH2 0x100 EXP SWAP1 DIV PUSH20 0xFFFFFFFFFFFFFFFFFFFFFFFFFFFFFFFFFFFFFFFF AND PUSH20 0xFFFFFFFFFFFFFFFFFFFFFFFFFFFFFFFFFFFFFFFF AND PUSH4 0x27262618 DUP4 PUSH1 0x40 MLOAD DUP3 PUSH4 0xFFFFFFFF AND PUSH1 0xE0 SHL DUP2 MSTORE PUSH1 0x4 ADD PUSH2 0x500 SWAP2 SWAP1 PUSH2 0x2485 JUMP JUMPDEST PUSH1 0x20 PUSH1 0x40 MLOAD DUP1 DUP4 SUB DUP2 DUP7 GAS STATICCALL ISZERO DUP1 ISZERO PUSH2 0x51B JUMPI RETURNDATASIZE PUSH0 PUSH0 RETURNDATACOPY RETURNDATASIZE PUSH0 REVERT JUMPDEST POP POP POP POP PUSH1 0x40 MLOAD RETURNDATASIZE PUSH1 0x1F NOT PUSH1 0x1F DUP3 ADD AND DUP3 ADD DUP1 PUSH1 0x40 MSTORE POP DUP2 ADD SWAP1 PUSH2 0x53F SWAP2 SWAP1 PUSH2 0x24A5 JUMP JUMPDEST SWAP1 POP SWAP2 SWAP1 POP JUMP JUMPDEST PUSH0 PUSH0 SWAP1 SLOAD SWAP1 PUSH2 0x100 EXP SWAP1 DIV PUSH20 0xFFFFFFFFFFFFFFFFFFFFFFFFFFFFFFFFFFFFFFFF AND DUP2 JUMP JUMPDEST PUSH2 0x572 PUSH2 0x8C1 JUMP JUMPDEST PUSH0 CALLVALUE GT PUSH2 0x5B4 JUMPI PUSH1 0x40 MLOAD PUSH32 0x8C379A000000000000000000000000000000000000000000000000000000000 DUP2 MSTORE PUSH1 0x4 ADD PUSH2 0x5AB SWAP1 PUSH2 0x2540 JUMP JUMPDEST PUSH1 0x40 MLOAD DUP1 SWAP2 SUB SWAP1 REVERT JUMPDEST PUSH0 PUSH20 0xFFFFFFFFFFFFFFFFFFFFFFFFFFFFFFFFFFFFFFFF AND DUP4 PUSH20 0xFFFFFFFFFFFFFFFFFFFFFFFFFFFFFFFFFFFFFFFF AND SUB PUSH2 0x622 JUMPI PUSH1 0x40 MLOAD PUSH32 0x8C379A000000000000000000000000000000000000000000000000000000000 DUP2 MSTORE PUSH1 0x4 ADD PUSH2 0x619 SWAP1 PUSH2 0x25CE JUMP JUMPDEST PUSH1 0x40 MLOAD DUP1 SWAP2 SUB SWAP1 REVERT JUMPDEST PUSH0 PUSH2 0x62B PUSH2 0x910 JUMP JUMPDEST PUSH20 0xFFFFFFFFFFFFFFFFFFFFFFFFFFFFFFFFFFFFFFFF AND PUSH4 0x549E122B DUP7 PUSH1 0x40 MLOAD DUP3 PUSH4 0xFFFFFFFF AND PUSH1 0xE0 SHL DUP2 MSTORE PUSH1 0x4 ADD PUSH2 0x663 SWAP2 SWAP1 PUSH2 0x1F21 JUMP JUMPDEST PUSH0 PUSH1 0x40 MLOAD DUP1 DUP4 SUB DUP2 DUP7 GAS STATICCALL ISZERO DUP1 ISZERO PUSH2 0x67D JUMPI RETURNDATASIZE PUSH0 PUSH0 RETURNDATACOPY RETURNDATASIZE PUSH0 REVERT JUMPDEST POP POP POP POP PUSH1 0x40 MLOAD RETURNDATASIZE PUSH0 DUP3 RETURNDATACOPY RETURNDATASIZE PUSH1 0x1F NOT PUSH1 0x1F DUP3 ADD AND DUP3 ADD DUP1 PUSH1 0x40 MSTORE POP DUP2 ADD SWAP1 PUSH2 0x6A5 SWAP2 SWAP1 PUSH2 0x21CF JUMP JUMPDEST SWAP1 POP PUSH0 PUSH0 PUSH2 0x6B2 DUP8 PUSH2 0x954 JUMP JUMPDEST SWAP2 POP SWAP2 POP PUSH0 CALLVALUE SWAP1 POP PUSH2 0x6C7 DUP5 DUP3 DUP5 DUP10 DUP10 PUSH2 0xFDF JUMP JUMPDEST PUSH0 PUSH2 0x6D4 DUP10 DUP4 DUP7 DUP12 PUSH2 0x1215 JUMP JUMPDEST SWAP1 POP PUSH32 0x5B3FA64172584174917E1B3A206FE9C25D3120CF366B3D05AD5B6183A15CF789 DUP10 CALLER DUP11 DUP5 CALLVALUE PUSH1 0x40 MLOAD PUSH2 0x70D SWAP6 SWAP5 SWAP4 SWAP3 SWAP2 SWAP1 PUSH2 0x25EC JUMP JUMPDEST PUSH1 0x40 MLOAD DUP1 SWAP2 SUB SWAP1 LOG1 POP POP POP POP POP PUSH2 0x722 PUSH2 0xFD6 JUMP JUMPDEST POP POP POP POP JUMP JUMPDEST PUSH0 PUSH0 PUSH0 SWAP1 SLOAD SWAP1 PUSH2 0x100 EXP SWAP1 DIV PUSH20 0xFFFFFFFFFFFFFFFFFFFFFFFFFFFFFFFFFFFFFFFF AND PUSH20 0xFFFFFFFFFFFFFFFFFFFFFFFFFFFFFFFFFFFFFFFF AND PUSH4 0x8DA5CB5B PUSH1 0x40 MLOAD DUP2 PUSH4 0xFFFFFFFF AND PUSH1 0xE0 SHL DUP2 MSTORE PUSH1 0x4 ADD PUSH1 0x20 PUSH1 0x40 MLOAD DUP1 DUP4 SUB DUP2 DUP7 GAS STATICCALL ISZERO DUP1 ISZERO PUSH2 0x792 JUMPI RETURNDATASIZE PUSH0 PUSH0 RETURNDATACOPY RETURNDATASIZE PUSH0 REVERT JUMPDEST POP POP POP POP PUSH1 0x40 MLOAD RETURNDATASIZE PUSH1 0x1F NOT PUSH1 0x1F DUP3 ADD AND DUP3 ADD DUP1 PUSH1 0x40 MSTORE POP DUP2 ADD SWAP1 PUSH2 0x7B6 SWAP2 SWAP1 PUSH2 0x24A5 JUMP JUMPDEST SWAP1 POP SWAP1 JUMP JUMPDEST PUSH0 PUSH0 SWAP1 SLOAD SWAP1 PUSH2 0x100 EXP SWAP1 DIV PUSH20 0xFFFFFFFFFFFFFFFFFFFFFFFFFFFFFFFFFFFFFFFF AND PUSH20 0xFFFFFFFFFFFFFFFFFFFFFFFFFFFFFFFFFFFFFFFF AND PUSH4 0x8DA5CB5B PUSH1 0x40 MLOAD DUP2 PUSH4 0xFFFFFFFF AND PUSH1 0xE0 SHL DUP2 MSTORE PUSH1 0x4 ADD PUSH1 0x20 PUSH1 0x40 MLOAD DUP1 DUP4 SUB DUP2 DUP7 GAS STATICCALL ISZERO DUP1 ISZERO PUSH2 0x824 JUMPI RETURNDATASIZE PUSH0 PUSH0 RETURNDATACOPY RETURNDATASIZE PUSH0 REVERT JUMPDEST POP POP POP POP PUSH1 0x40 MLOAD RETURNDATASIZE PUSH1 0x1F NOT PUSH1 0x1F DUP3 ADD AND DUP3 ADD DUP1 PUSH1 0x40 MSTORE POP DUP2 ADD SWAP1 PUSH2 0x848 SWAP2 SWAP1 PUSH2 0x24A5 JUMP JUMPDEST PUSH20 0xFFFFFFFFFFFFFFFFFFFFFFFFFFFFFFFFFFFFFFFF AND CALLER PUSH20 0xFFFFFFFFFFFFFFFFFFFFFFFFFFFFFFFFFFFFFFFF AND EQ PUSH2 0x8B5 JUMPI PUSH1 0x40 MLOAD PUSH32 0x8C379A000000000000000000000000000000000000000000000000000000000 DUP2 MSTORE PUSH1 0x4 ADD PUSH2 0x8AC SWAP1 PUSH2 0x2687 JUMP JUMPDEST PUSH1 0x40 MLOAD DUP1 SWAP2 SUB SWAP1 REVERT JUMPDEST PUSH2 0x8BE DUP2 PUSH2 0x14CD JUMP JUMPDEST POP JUMP JUMPDEST PUSH1 0x2 PUSH1 0x1 SLOAD SUB PUSH2 0x906 JUMPI PUSH1 0x40 MLOAD PUSH32 0x8C379A000000000000000000000000000000000000000000000000000000000 DUP2 MSTORE PUSH1 0x4 ADD PUSH2 0x8FD SWAP1 PUSH2 0x26EF JUMP JUMPDEST PUSH1 0x40 MLOAD DUP1 SWAP2 SUB SWAP1 REVERT JUMPDEST PUSH1 0x2 PUSH1 0x1 DUP2 SWAP1 SSTORE POP JUMP JUMPDEST PUSH0 PUSH2 0x94F PUSH1 0x40 MLOAD DUP1 PUSH1 0x40 ADD PUSH1 0x40 MSTORE DUP1 PUSH1 0xD DUP2 MSTORE PUSH1 0x20 ADD PUSH32 0x696E6465782D666163746F727900000000000000000000000000000000000000 DUP2 MSTORE POP PUSH2 0x4A6 JUMP JUMPDEST SWAP1 POP SWAP1 JUMP JUMPDEST PUSH0 PUSH0 PUSH0 PUSH2 0x95F PUSH2 0x167E JUMP JUMPDEST PUSH20 0xFFFFFFFFFFFFFFFFFFFFFFFFFFFFFFFFFFFFFFFF AND PUSH4 0xF2018A1F DUP6 PUSH1 0x40 MLOAD DUP3 PUSH4 0xFFFFFFFF AND PUSH1 0xE0 SHL DUP2 MSTORE PUSH1 0x4 ADD PUSH2 0x997 SWAP2 SWAP1 PUSH2 0x1F21 JUMP JUMPDEST PUSH1 0x20 PUSH1 0x40 MLOAD DUP1 DUP4 SUB DUP2 DUP7 GAS STATICCALL ISZERO DUP1 ISZERO PUSH2 0x9B2 JUMPI RETURNDATASIZE PUSH0 PUSH0 RETURNDATACOPY RETURNDATASIZE PUSH0 REVERT JUMPDEST POP POP POP POP PUSH1 0x40 MLOAD RETURNDATASIZE PUSH1 0x1F NOT PUSH1 0x1F DUP3 ADD AND DUP3 ADD DUP1 PUSH1 0x40 MSTORE POP DUP2 ADD SWAP1 PUSH2 0x9D6 SWAP2 SWAP1 PUSH2 0x24A5 JUMP JUMPDEST SWAP1 POP PUSH0 PUSH2 0x9E1 PUSH2 0x167E JUMP JUMPDEST PUSH20 0xFFFFFFFFFFFFFFFFFFFFFFFFFFFFFFFFFFFFFFFF AND PUSH4 0x3EE79962 DUP7 PUSH1 0x40 MLOAD DUP3 PUSH4 0xFFFFFFFF AND PUSH1 0xE0 SHL DUP2 MSTORE PUSH1 0x4 ADD PUSH2 0xA19 SWAP2 SWAP1 PUSH2 0x1F21 JUMP JUMPDEST PUSH1 0x20 PUSH1 0x40 MLOAD DUP1 DUP4 SUB DUP2 DUP7 GAS STATICCALL ISZERO DUP1 ISZERO PUSH2 0xA34 JUMPI RETURNDATASIZE PUSH0 PUSH0 RETURNDATACOPY RETURNDATASIZE PUSH0 REVERT JUMPDEST POP POP POP POP PUSH1 0x40 MLOAD RETURNDATASIZE PUSH1 0x1F NOT PUSH1 0x1F DUP3 ADD AND DUP3 ADD DUP1 PUSH1 0x40 MSTORE POP DUP2 ADD SWAP1 PUSH2 0xA58 SWAP2 SWAP1 PUSH2 0x24A5 JUMP JUMPDEST SWAP1 POP PUSH0 PUSH20 0xFFFFFFFFFFFFFFFFFFFFFFFFFFFFFFFFFFFFFFFF AND DUP3 PUSH20 0xFFFFFFFFFFFFFFFFFFFFFFFFFFFFFFFFFFFFFFFF AND SUB PUSH2 0xAC8 JUMPI PUSH1 0x40 MLOAD PUSH32 0x8C379A000000000000000000000000000000000000000000000000000000000 DUP2 MSTORE PUSH1 0x4 ADD PUSH2 0xABF SWAP1 PUSH2 0x277D JUMP JUMPDEST PUSH1 0x40 MLOAD DUP1 SWAP2 SUB SWAP1 REVERT JUMPDEST PUSH0 PUSH20 0xFFFFFFFFFFFFFFFFFFFFFFFFFFFFFFFFFFFFFFFF AND DUP2 PUSH20 0xFFFFFFFFFFFFFFFFFFFFFFFFFFFFFFFFFFFFFFFF AND SUB PUSH2 0xB36 JUMPI PUSH1 0x40 MLOAD PUSH32 0x8C379A000000000000000000000000000000000000000000000000000000000 DUP2 MSTORE PUSH1 0x4 ADD PUSH2 0xB2D SWAP1 PUSH2 0x280B JUMP JUMPDEST PUSH1 0x40 MLOAD DUP1 SWAP2 SUB SWAP1 REVERT JUMPDEST DUP2 DUP2 SWAP4 POP SWAP4 POP POP POP SWAP2 POP SWAP2 JUMP JUMPDEST PUSH0 PUSH0 SWAP1 POP PUSH0 PUSH0 SWAP1 POP JUMPDEST DUP9 PUSH1 0x40 ADD MLOAD MLOAD DUP2 LT ISZERO PUSH2 0xC3A JUMPI PUSH0 DUP10 PUSH1 0x40 ADD MLOAD DUP3 DUP2 MLOAD DUP2 LT PUSH2 0xB71 JUMPI PUSH2 0xB70 PUSH2 0x2829 JUMP JUMPDEST JUMPDEST PUSH1 0x20 MUL PUSH1 0x20 ADD ADD MLOAD PUSH0 ADD MLOAD SWAP1 POP PUSH0 DUP2 PUSH20 0xFFFFFFFFFFFFFFFFFFFFFFFFFFFFFFFFFFFFFFFF AND PUSH4 0x70A08231 DUP10 PUSH1 0x40 MLOAD DUP3 PUSH4 0xFFFFFFFF AND PUSH1 0xE0 SHL DUP2 MSTORE PUSH1 0x4 ADD PUSH2 0xBB8 SWAP2 SWAP1 PUSH2 0x1CA0 JUMP JUMPDEST PUSH1 0x20 PUSH1 0x40 MLOAD DUP1 DUP4 SUB DUP2 DUP7 GAS STATICCALL ISZERO DUP1 ISZERO PUSH2 0xBD3 JUMPI RETURNDATASIZE PUSH0 PUSH0 RETURNDATACOPY RETURNDATASIZE PUSH0 REVERT JUMPDEST POP POP POP POP PUSH1 0x40 MLOAD RETURNDATASIZE PUSH1 0x1F NOT PUSH1 0x1F DUP3 ADD AND DUP3 ADD DUP1 PUSH1 0x40 MSTORE POP DUP2 ADD SWAP1 PUSH2 0xBF7 SWAP2 SWAP1 PUSH2 0x222A JUMP JUMPDEST SWAP1 POP PUSH0 DUP10 DUP12 DUP4 PUSH2 0xC07 SWAP2 SWAP1 PUSH2 0x2856 JUMP JUMPDEST PUSH2 0xC11 SWAP2 SWAP1 PUSH2 0x28C4 JUMP JUMPDEST SWAP1 POP PUSH0 DUP2 GT ISZERO PUSH2 0xC2A JUMPI DUP5 DUP1 PUSH2 0xC26 SWAP1 PUSH2 0x28F4 JUMP JUMPDEST SWAP6 POP POP JUMPDEST POP POP POP DUP1 DUP1 PUSH1 0x1 ADD SWAP2 POP POP PUSH2 0xB4C JUMP JUMPDEST POP PUSH0 DUP2 GT PUSH2 0xC7D JUMPI PUSH1 0x40 MLOAD PUSH32 0x8C379A000000000000000000000000000000000000000000000000000000000 DUP2 MSTORE PUSH1 0x4 ADD PUSH2 0xC74 SWAP1 PUSH2 0x2985 JUMP JUMPDEST PUSH1 0x40 MLOAD DUP1 SWAP2 SUB SWAP1 REVERT JUMPDEST PUSH0 DUP2 PUSH8 0xFFFFFFFFFFFFFFFF DUP2 GT ISZERO PUSH2 0xC98 JUMPI PUSH2 0xC97 PUSH2 0x1B15 JUMP JUMPDEST JUMPDEST PUSH1 0x40 MLOAD SWAP1 DUP1 DUP3 MSTORE DUP1 PUSH1 0x20 MUL PUSH1 0x20 ADD DUP3 ADD PUSH1 0x40 MSTORE DUP1 ISZERO PUSH2 0xCD1 JUMPI DUP2 PUSH1 0x20 ADD JUMPDEST PUSH2 0xCBE PUSH2 0x1956 JUMP JUMPDEST DUP2 MSTORE PUSH1 0x20 ADD SWAP1 PUSH1 0x1 SWAP1 SUB SWAP1 DUP2 PUSH2 0xCB6 JUMPI SWAP1 POP JUMPDEST POP SWAP1 POP PUSH0 PUSH0 SWAP1 POP PUSH0 PUSH0 SWAP1 POP JUMPDEST DUP11 PUSH1 0x40 ADD MLOAD MLOAD DUP2 LT ISZERO PUSH2 0xEA3 JUMPI PUSH0 DUP12 PUSH1 0x40 ADD MLOAD DUP3 DUP2 MLOAD DUP2 LT PUSH2 0xD02 JUMPI PUSH2 0xD01 PUSH2 0x2829 JUMP JUMPDEST JUMPDEST PUSH1 0x20 MUL PUSH1 0x20 ADD ADD MLOAD PUSH0 ADD MLOAD SWAP1 POP PUSH0 DUP2 PUSH20 0xFFFFFFFFFFFFFFFFFFFFFFFFFFFFFFFFFFFFFFFF AND PUSH4 0x70A08231 DUP12 PUSH1 0x40 MLOAD DUP3 PUSH4 0xFFFFFFFF AND PUSH1 0xE0 SHL DUP2 MSTORE PUSH1 0x4 ADD PUSH2 0xD49 SWAP2 SWAP1 PUSH2 0x1CA0 JUMP JUMPDEST PUSH1 0x20 PUSH1 0x40 MLOAD DUP1 DUP4 SUB DUP2 DUP7 GAS STATICCALL ISZERO DUP1 ISZERO PUSH2 0xD64 JUMPI RETURNDATASIZE PUSH0 PUSH0 RETURNDATACOPY RETURNDATASIZE PUSH0 REVERT JUMPDEST POP POP POP POP PUSH1 0x40 MLOAD RETURNDATASIZE PUSH1 0x1F NOT PUSH1 0x1F DUP3 ADD AND DUP3 ADD DUP1 PUSH1 0x40 MSTORE POP DUP2 ADD SWAP1 PUSH2 0xD88 SWAP2 SWAP1 PUSH2 0x222A JUMP JUMPDEST SWAP1 POP PUSH0 DUP2 SUB PUSH2 0xD98 JUMPI POP POP PUSH2 0xE96 JUMP JUMPDEST PUSH0 DUP12 DUP14 DUP4 PUSH2 0xDA6 SWAP2 SWAP1 PUSH2 0x2856 JUMP JUMPDEST PUSH2 0xDB0 SWAP2 SWAP1 PUSH2 0x28C4 JUMP JUMPDEST SWAP1 POP PUSH0 DUP2 SUB PUSH2 0xDC1 JUMPI POP POP POP PUSH2 0xE96 JUMP JUMPDEST DUP11 PUSH20 0xFFFFFFFFFFFFFFFFFFFFFFFFFFFFFFFFFFFFFFFF AND PUSH4 0x3CCDBB28 DUP5 DUP4 ADDRESS PUSH1 0x40 MLOAD DUP5 PUSH4 0xFFFFFFFF AND PUSH1 0xE0 SHL DUP2 MSTORE PUSH1 0x4 ADD PUSH2 0xDFE SWAP4 SWAP3 SWAP2 SWAP1 PUSH2 0x29A3 JUMP JUMPDEST PUSH0 PUSH1 0x40 MLOAD DUP1 DUP4 SUB DUP2 PUSH0 DUP8 DUP1 EXTCODESIZE ISZERO DUP1 ISZERO PUSH2 0xE15 JUMPI PUSH0 PUSH0 REVERT JUMPDEST POP GAS CALL ISZERO DUP1 ISZERO PUSH2 0xE27 JUMPI RETURNDATASIZE PUSH0 PUSH0 RETURNDATACOPY RETURNDATASIZE PUSH0 REVERT JUMPDEST POP POP POP POP PUSH2 0xE3D DUP4 PUSH2 0xE37 PUSH2 0x16C2 JUMP JUMPDEST DUP4 PUSH2 0x1706 JUMP JUMPDEST PUSH1 0x40 MLOAD DUP1 PUSH1 0x40 ADD PUSH1 0x40 MSTORE DUP1 DUP5 PUSH20 0xFFFFFFFFFFFFFFFFFFFFFFFFFFFFFFFFFFFFFFFF AND DUP2 MSTORE PUSH1 0x20 ADD DUP3 DUP2 MSTORE POP DUP7 DUP7 DUP1 PUSH2 0xE74 SWAP1 PUSH2 0x28F4 JUMP JUMPDEST SWAP8 POP DUP2 MLOAD DUP2 LT PUSH2 0xE87 JUMPI PUSH2 0xE86 PUSH2 0x2829 JUMP JUMPDEST JUMPDEST PUSH1 0x20 MUL PUSH1 0x20 ADD ADD DUP2 SWAP1 MSTORE POP POP POP POP JUMPDEST DUP1 DUP1 PUSH1 0x1 ADD SWAP2 POP POP PUSH2 0xCDD JUMP JUMPDEST POP PUSH0 PUSH1 0x1 PUSH8 0xFFFFFFFFFFFFFFFF DUP2 GT ISZERO PUSH2 0xEC0 JUMPI PUSH2 0xEBF PUSH2 0x1B15 JUMP JUMPDEST JUMPDEST PUSH1 0x40 MLOAD SWAP1 DUP1 DUP3 MSTORE DUP1 PUSH1 0x20 MUL PUSH1 0x20 ADD DUP3 ADD PUSH1 0x40 MSTORE DUP1 ISZERO PUSH2 0xEF9 JUMPI DUP2 PUSH1 0x20 ADD JUMPDEST PUSH2 0xEE6 PUSH2 0x1984 JUMP JUMPDEST DUP2 MSTORE PUSH1 0x20 ADD SWAP1 PUSH1 0x1 SWAP1 SUB SWAP1 DUP2 PUSH2 0xEDE JUMPI SWAP1 POP JUMPDEST POP SWAP1 POP PUSH1 0x40 MLOAD DUP1 PUSH1 0x40 ADD PUSH1 0x40 MSTORE DUP1 PUSH0 PUSH20 0xFFFFFFFFFFFFFFFFFFFFFFFFFFFFFFFFFFFFFFFF AND DUP2 MSTORE PUSH1 0x20 ADD PUSH2 0x2710 PUSH2 0xFFFF AND DUP2 MSTORE POP DUP2 PUSH0 DUP2 MLOAD DUP2 LT PUSH2 0xF40 JUMPI PUSH2 0xF3F PUSH2 0x2829 JUMP JUMPDEST JUMPDEST PUSH1 0x20 MUL PUSH1 0x20 ADD ADD DUP2 SWAP1 MSTORE POP PUSH2 0xF53 PUSH2 0x16C2 JUMP JUMPDEST PUSH20 0xFFFFFFFFFFFFFFFFFFFFFFFFFFFFFFFFFFFFFFFF AND PUSH4 0x192B5887 DUP5 DUP4 DUP11 DUP11 DUP11 PUSH2 0xF7B PUSH2 0x18B7 JUMP JUMPDEST PUSH1 0x40 MLOAD DUP8 PUSH4 0xFFFFFFFF AND PUSH1 0xE0 SHL DUP2 MSTORE PUSH1 0x4 ADD PUSH2 0xF9C SWAP7 SWAP6 SWAP5 SWAP4 SWAP3 SWAP2 SWAP1 PUSH2 0x2C84 JUMP JUMPDEST PUSH0 PUSH1 0x40 MLOAD DUP1 DUP4 SUB DUP2 PUSH0 DUP8 DUP1 EXTCODESIZE ISZERO DUP1 ISZERO PUSH2 0xFB3 JUMPI PUSH0 PUSH0 REVERT JUMPDEST POP GAS CALL ISZERO DUP1 ISZERO PUSH2 0xFC5 JUMPI RETURNDATASIZE PUSH0 PUSH0 RETURNDATACOPY RETURNDATASIZE PUSH0 REVERT JUMPDEST POP POP POP POP POP POP POP POP POP POP POP POP POP POP POP JUMP JUMPDEST PUSH1 0x1 DUP1 DUP2 SWAP1 SSTORE POP JUMP JUMPDEST PUSH0 PUSH1 0x1 PUSH8 0xFFFFFFFFFFFFFFFF DUP2 GT ISZERO PUSH2 0xFFB JUMPI PUSH2 0xFFA PUSH2 0x1B15 JUMP JUMPDEST JUMPDEST PUSH1 0x40 MLOAD SWAP1 DUP1 DUP3 MSTORE DUP1 PUSH1 0x20 MUL PUSH1 0x20 ADD DUP3 ADD PUSH1 0x40 MSTORE DUP1 ISZERO PUSH2 0x1034 JUMPI DUP2 PUSH1 0x20 ADD JUMPDEST PUSH2 0x1021 PUSH2 0x1956 JUMP JUMPDEST DUP2 MSTORE PUSH1 0x20 ADD SWAP1 PUSH1 0x1 SWAP1 SUB SWAP1 DUP2 PUSH2 0x1019 JUMPI SWAP1 POP JUMPDEST POP SWAP1 POP PUSH1 0x40 MLOAD DUP1 PUSH1 0x40 ADD PUSH1 0x40 MSTORE DUP1 PUSH0 PUSH20 0xFFFFFFFFFFFFFFFFFFFFFFFFFFFFFFFFFFFFFFFF AND DUP2 MSTORE PUSH1 0x20 ADD DUP7 DUP2 MSTORE POP DUP2 PUSH0 DUP2 MLOAD DUP2 LT PUSH2 0x1075 JUMPI PUSH2 0x1074 PUSH2 0x2829 JUMP JUMPDEST JUMPDEST PUSH1 0x20 MUL PUSH1 0x20 ADD ADD DUP2 SWAP1 MSTORE POP PUSH0 DUP7 PUSH1 0x40 ADD MLOAD MLOAD PUSH8 0xFFFFFFFFFFFFFFFF DUP2 GT ISZERO PUSH2 0x10A0 JUMPI PUSH2 0x109F PUSH2 0x1B15 JUMP JUMPDEST JUMPDEST PUSH1 0x40 MLOAD SWAP1 DUP1 DUP3 MSTORE DUP1 PUSH1 0x20 MUL PUSH1 0x20 ADD DUP3 ADD PUSH1 0x40 MSTORE DUP1 ISZERO PUSH2 0x10D9 JUMPI DUP2 PUSH1 0x20 ADD JUMPDEST PUSH2 0x10C6 PUSH2 0x1984 JUMP JUMPDEST DUP2 MSTORE PUSH1 0x20 ADD SWAP1 PUSH1 0x1 SWAP1 SUB SWAP1 DUP2 PUSH2 0x10BE JUMPI SWAP1 POP JUMPDEST POP SWAP1 POP PUSH0 PUSH0 SWAP1 POP JUMPDEST DUP8 PUSH1 0x40 ADD MLOAD MLOAD DUP2 LT ISZERO PUSH2 0x118B JUMPI PUSH1 0x40 MLOAD DUP1 PUSH1 0x40 ADD PUSH1 0x40 MSTORE DUP1 DUP10 PUSH1 0x40 ADD MLOAD DUP4 DUP2 MLOAD DUP2 LT PUSH2 0x1110 JUMPI PUSH2 0x110F PUSH2 0x2829 JUMP JUMPDEST JUMPDEST PUSH1 0x20 MUL PUSH1 0x20 ADD ADD MLOAD PUSH0 ADD MLOAD PUSH20 0xFFFFFFFFFFFFFFFFFFFFFFFFFFFFFFFFFFFFFFFF AND DUP2 MSTORE PUSH1 0x20 ADD DUP10 PUSH1 0x40 ADD MLOAD DUP4 DUP2 MLOAD DUP2 LT PUSH2 0x114D JUMPI PUSH2 0x114C PUSH2 0x2829 JUMP JUMPDEST JUMPDEST PUSH1 0x20 MUL PUSH1 0x20 ADD ADD MLOAD PUSH1 0x20 ADD MLOAD PUSH2 0xFFFF AND DUP2 MSTORE POP DUP3 DUP3 DUP2 MLOAD DUP2 LT PUSH2 0x1173 JUMPI PUSH2 0x1172 PUSH2 0x2829 JUMP JUMPDEST JUMPDEST PUSH1 0x20 MUL PUSH1 0x20 ADD ADD DUP2 SWAP1 MSTORE POP DUP1 DUP1 PUSH1 0x1 ADD SWAP2 POP POP PUSH2 0x10E1 JUMP JUMPDEST POP PUSH2 0x1194 PUSH2 0x16C2 JUMP JUMPDEST PUSH20 0xFFFFFFFFFFFFFFFFFFFFFFFFFFFFFFFFFFFFFFFF AND PUSH4 0x192B5887 DUP8 DUP5 DUP5 DUP10 DUP10 DUP10 PUSH2 0x11BD PUSH2 0x18B7 JUMP JUMPDEST PUSH1 0x40 MLOAD DUP9 PUSH4 0xFFFFFFFF AND PUSH1 0xE0 SHL DUP2 MSTORE PUSH1 0x4 ADD PUSH2 0x11DE SWAP7 SWAP6 SWAP5 SWAP4 SWAP3 SWAP2 SWAP1 PUSH2 0x2C84 JUMP JUMPDEST PUSH0 PUSH1 0x40 MLOAD DUP1 DUP4 SUB DUP2 DUP6 DUP9 DUP1 EXTCODESIZE ISZERO DUP1 ISZERO PUSH2 0x11F5 JUMPI PUSH0 PUSH0 REVERT JUMPDEST POP GAS CALL ISZERO DUP1 ISZERO PUSH2 0x1207 JUMPI RETURNDATASIZE PUSH0 PUSH0 RETURNDATACOPY RETURNDATASIZE PUSH0 REVERT JUMPDEST POP POP POP POP POP POP POP POP POP POP POP POP JUMP JUMPDEST PUSH0 PUSH0 DUP4 PUSH20 0xFFFFFFFFFFFFFFFFFFFFFFFFFFFFFFFFFFFFFFFF AND PUSH4 0x18160DDD PUSH1 0x40 MLOAD DUP2 PUSH4 0xFFFFFFFF AND PUSH1 0xE0 SHL DUP2 MSTORE PUSH1 0x4 ADD PUSH1 0x20 PUSH1 0x40 MLOAD DUP1 DUP4 SUB DUP2 DUP7 GAS STATICCALL ISZERO DUP1 ISZERO PUSH2 0x1260 JUMPI RETURNDATASIZE PUSH0 PUSH0 RETURNDATACOPY RETURNDATASIZE PUSH0 REVERT JUMPDEST POP POP POP POP PUSH1 0x40 MLOAD RETURNDATASIZE PUSH1 0x1F NOT PUSH1 0x1F DUP3 ADD AND DUP3 ADD DUP1 PUSH1 0x40 MSTORE POP DUP2 ADD SWAP1 PUSH2 0x1284 SWAP2 SWAP1 PUSH2 0x222A JUMP JUMPDEST SWAP1 POP PUSH0 PUSH2 0x128F PUSH2 0x167E JUMP JUMPDEST PUSH20 0xFFFFFFFFFFFFFFFFFFFFFFFFFFFFFFFFFFFFFFFF AND PUSH4 0xE4B603B3 DUP9 PUSH1 0x40 MLOAD DUP3 PUSH4 0xFFFFFFFF AND PUSH1 0xE0 SHL DUP2 MSTORE PUSH1 0x4 ADD PUSH2 0x12C7 SWAP2 SWAP1 PUSH2 0x1F21 JUMP JUMPDEST PUSH1 0x20 PUSH1 0x40 MLOAD DUP1 DUP4 SUB DUP2 DUP7 GAS STATICCALL ISZERO DUP1 ISZERO PUSH2 0x12E2 JUMPI RETURNDATASIZE PUSH0 PUSH0 RETURNDATACOPY RETURNDATASIZE PUSH0 REVERT JUMPDEST POP POP POP POP PUSH1 0x40 MLOAD RETURNDATASIZE PUSH1 0x1F NOT PUSH1 0x1F DUP3 ADD AND DUP3 ADD DUP1 PUSH1 0x40 MSTORE POP DUP2 ADD SWAP1 PUSH2 0x1306 SWAP2 SWAP1 PUSH2 0x222A JUMP JUMPDEST SWAP1 POP PUSH0 PUSH0 DUP4 SUB PUSH2 0x13FB JUMPI PUSH0 PUSH2 0x1319 PUSH2 0x1912 JUMP JUMPDEST PUSH20 0xFFFFFFFFFFFFFFFFFFFFFFFFFFFFFFFFFFFFFFFF AND PUSH4 0xC9D54FA7 DUP11 PUSH1 0x40 MLOAD DUP3 PUSH4 0xFFFFFFFF AND PUSH1 0xE0 SHL DUP2 MSTORE PUSH1 0x4 ADD PUSH2 0x1351 SWAP2 SWAP1 PUSH2 0x1F21 JUMP JUMPDEST PUSH1 0x20 PUSH1 0x40 MLOAD DUP1 DUP4 SUB DUP2 DUP7 GAS STATICCALL ISZERO DUP1 ISZERO PUSH2 0x136C JUMPI RETURNDATASIZE PUSH0 PUSH0 RETURNDATACOPY RETURNDATASIZE PUSH0 REVERT JUMPDEST POP POP POP POP PUSH1 0x40 MLOAD RETURNDATASIZE PUSH1 0x1F NOT PUSH1 0x1F DUP3 ADD AND DUP3 ADD DUP1 PUSH1 0x40 MSTORE POP DUP2 ADD SWAP1 PUSH2 0x1390 SWAP2 SWAP1 PUSH2 0x222A JUMP JUMPDEST SWAP1 POP PUSH0 DUP2 GT PUSH2 0x13D4 JUMPI PUSH1 0x40 MLOAD PUSH32 0x8C379A000000000000000000000000000000000000000000000000000000000 DUP2 MSTORE PUSH1 0x4 ADD PUSH2 0x13CB SWAP1 PUSH2 0x2D42 JUMP JUMPDEST PUSH1 0x40 MLOAD DUP1 SWAP2 SUB SWAP1 REVERT JUMPDEST DUP1 PUSH8 0xDE0B6B3A7640000 DUP10 PUSH2 0x13E9 SWAP2 SWAP1 PUSH2 0x2856 JUMP JUMPDEST PUSH2 0x13F3 SWAP2 SWAP1 PUSH2 0x28C4 JUMP JUMPDEST SWAP2 POP POP PUSH2 0x1457 JUMP JUMPDEST PUSH0 DUP3 GT PUSH2 0x143D JUMPI PUSH1 0x40 MLOAD PUSH32 0x8C379A000000000000000000000000000000000000000000000000000000000 DUP2 MSTORE PUSH1 0x4 ADD PUSH2 0x1434 SWAP1 PUSH2 0x2DAA JUMP JUMPDEST PUSH1 0x40 MLOAD DUP1 SWAP2 SUB SWAP1 REVERT JUMPDEST DUP2 DUP4 DUP9 PUSH2 0x144A SWAP2 SWAP1 PUSH2 0x2856 JUMP JUMPDEST PUSH2 0x1454 SWAP2 SWAP1 PUSH2 0x28C4 JUMP JUMPDEST SWAP1 POP JUMPDEST DUP6 PUSH20 0xFFFFFFFFFFFFFFFFFFFFFFFFFFFFFFFFFFFFFFFF AND PUSH4 0x40C10F19 DUP7 DUP4 PUSH1 0x40 MLOAD DUP4 PUSH4 0xFFFFFFFF AND PUSH1 0xE0 SHL DUP2 MSTORE PUSH1 0x4 ADD PUSH2 0x1492 SWAP3 SWAP2 SWAP1 PUSH2 0x234B JUMP JUMPDEST PUSH0 PUSH1 0x40 MLOAD DUP1 DUP4 SUB DUP2 PUSH0 DUP8 DUP1 EXTCODESIZE ISZERO DUP1 ISZERO PUSH2 0x14A9 JUMPI PUSH0 PUSH0 REVERT JUMPDEST POP GAS CALL ISZERO DUP1 ISZERO PUSH2 0x14BB JUMPI RETURNDATASIZE PUSH0 PUSH0 RETURNDATACOPY RETURNDATASIZE PUSH0 REVERT JUMPDEST POP POP POP POP DUP1 SWAP4 POP POP POP POP SWAP5 SWAP4 POP POP POP POP JUMP JUMPDEST PUSH0 PUSH20 0xFFFFFFFFFFFFFFFFFFFFFFFFFFFFFFFFFFFFFFFF AND DUP2 PUSH20 0xFFFFFFFFFFFFFFFFFFFFFFFFFFFFFFFFFFFFFFFF AND SUB PUSH2 0x153B JUMPI PUSH1 0x40 MLOAD PUSH32 0x8C379A000000000000000000000000000000000000000000000000000000000 DUP2 MSTORE PUSH1 0x4 ADD PUSH2 0x1532 SWAP1 PUSH2 0x2E12 JUMP JUMPDEST PUSH1 0x40 MLOAD DUP1 SWAP2 SUB SWAP1 REVERT JUMPDEST PUSH0 DUP2 PUSH20 0xFFFFFFFFFFFFFFFFFFFFFFFFFFFFFFFFFFFFFFFF AND EXTCODESIZE GT PUSH2 0x1594 JUMPI PUSH1 0x40 MLOAD PUSH32 0x8C379A000000000000000000000000000000000000000000000000000000000 DUP2 MSTORE PUSH1 0x4 ADD PUSH2 0x158B SWAP1 PUSH2 0x2E7A JUMP JUMPDEST PUSH1 0x40 MLOAD DUP1 SWAP2 SUB SWAP1 REVERT JUMPDEST DUP1 PUSH20 0xFFFFFFFFFFFFFFFFFFFFFFFFFFFFFFFFFFFFFFFF AND PUSH4 0x8DA5CB5B PUSH1 0x40 MLOAD DUP2 PUSH4 0xFFFFFFFF AND PUSH1 0xE0 SHL DUP2 MSTORE PUSH1 0x4 ADD PUSH1 0x20 PUSH1 0x40 MLOAD DUP1 DUP4 SUB DUP2 DUP7 GAS STATICCALL SWAP3 POP POP POP DUP1 ISZERO PUSH2 0x15FC JUMPI POP PUSH1 0x40 MLOAD RETURNDATASIZE PUSH1 0x1F NOT PUSH1 0x1F DUP3 ADD AND DUP3 ADD DUP1 PUSH1 0x40 MSTORE POP DUP2 ADD SWAP1 PUSH2 0x15F9 SWAP2 SWAP1 PUSH2 0x24A5 JUMP JUMPDEST PUSH1 0x1 JUMPDEST PUSH2 0x163B JUMPI PUSH1 0x40 MLOAD PUSH32 0x8C379A000000000000000000000000000000000000000000000000000000000 DUP2 MSTORE PUSH1 0x4 ADD PUSH2 0x1632 SWAP1 PUSH2 0x2F08 JUMP JUMPDEST PUSH1 0x40 MLOAD DUP1 SWAP2 SUB SWAP1 REVERT JUMPDEST DUP2 PUSH0 PUSH0 PUSH2 0x100 EXP DUP2 SLOAD DUP2 PUSH20 0xFFFFFFFFFFFFFFFFFFFFFFFFFFFFFFFFFFFFFFFF MUL NOT AND SWAP1 DUP4 PUSH20 0xFFFFFFFFFFFFFFFFFFFFFFFFFFFFFFFFFFFFFFFF AND MUL OR SWAP1 SSTORE POP POP POP JUMP JUMPDEST PUSH0 PUSH2 0x16BD PUSH1 0x40 MLOAD DUP1 PUSH1 0x40 ADD PUSH1 0x40 MSTORE DUP1 PUSH1 0xB DUP2 MSTORE PUSH1 0x20 ADD PUSH32 0x6574662D666163746F7279000000000000000000000000000000000000000000 DUP2 MSTORE POP PUSH2 0x4A6 JUMP JUMPDEST SWAP1 POP SWAP1 JUMP JUMPDEST PUSH0 PUSH2 0x1701 PUSH1 0x40 MLOAD DUP1 PUSH1 0x40 ADD PUSH1 0x40 MSTORE DUP1 PUSH1 0x10 DUP2 MSTORE PUSH1 0x20 ADD PUSH32 0x6D756C7469737761702D726F7574657200000000000000000000000000000000 DUP2 MSTORE POP PUSH2 0x4A6 JUMP JUMPDEST SWAP1 POP SWAP1 JUMP JUMPDEST PUSH0 DUP4 SWAP1 POP PUSH0 DUP2 PUSH20 0xFFFFFFFFFFFFFFFFFFFFFFFFFFFFFFFFFFFFFFFF AND PUSH4 0xDD62ED3E ADDRESS DUP7 PUSH1 0x40 MLOAD DUP4 PUSH4 0xFFFFFFFF AND PUSH1 0xE0 SHL DUP2 MSTORE PUSH1 0x4 ADD PUSH2 0x1746 SWAP3 SWAP2 SWAP1 PUSH2 0x2F26 JUMP JUMPDEST PUSH1 0x20 PUSH1 0x40 MLOAD DUP1 DUP4 SUB DUP2 DUP7 GAS STATICCALL ISZERO DUP1 ISZERO PUSH2 0x1761 JUMPI RETURNDATASIZE PUSH0 PUSH0 RETURNDATACOPY RETURNDATASIZE PUSH0 REVERT JUMPDEST POP POP POP POP PUSH1 0x40 MLOAD RETURNDATASIZE PUSH1 0x1F NOT PUSH1 0x1F DUP3 ADD AND DUP3 ADD DUP1 PUSH1 0x40 MSTORE POP DUP2 ADD SWAP1 PUSH2 0x1785 SWAP2 SWAP1 PUSH2 0x222A JUMP JUMPDEST SWAP1 POP DUP3 DUP2 LT ISZERO PUSH2 0x18B0 JUMPI PUSH0 DUP2 EQ PUSH2 0x1813 JUMPI DUP2 PUSH20 0xFFFFFFFFFFFFFFFFFFFFFFFFFFFFFFFFFFFFFFFF AND PUSH4 0x95EA7B3 DUP6 PUSH0 PUSH1 0x40 MLOAD DUP4 PUSH4 0xFFFFFFFF AND PUSH1 0xE0 SHL DUP2 MSTORE PUSH1 0x4 ADD PUSH2 0x17D1 SWAP3 SWAP2 SWAP1 PUSH2 0x2F86 JUMP JUMPDEST PUSH1 0x20 PUSH1 0x40 MLOAD DUP1 DUP4 SUB DUP2 PUSH0 DUP8 GAS CALL ISZERO DUP1 ISZERO PUSH2 0x17ED JUMPI RETURNDATASIZE PUSH0 PUSH0 RETURNDATACOPY RETURNDATASIZE PUSH0 REVERT JUMPDEST POP POP POP POP PUSH1 0x40 MLOAD RETURNDATASIZE PUSH1 0x1F NOT PUSH1 0x1F DUP3 ADD AND DUP3 ADD DUP1 PUSH1 0x40 MSTORE POP DUP2 ADD SWAP1 PUSH2 0x1811 SWAP2 SWAP1 PUSH2 0x2FE2 JUMP JUMPDEST POP JUMPDEST DUP2 PUSH20 0xFFFFFFFFFFFFFFFFFFFFFFFFFFFFFFFFFFFFFFFF AND PUSH4 0x95EA7B3 DUP6 PUSH32 0xFFFFFFFFFFFFFFFFFFFFFFFFFFFFFFFFFFFFFFFFFFFFFFFFFFFFFFFFFFFFFFFF PUSH1 0x40 MLOAD DUP4 PUSH4 0xFFFFFFFF AND PUSH1 0xE0 SHL DUP2 MSTORE PUSH1 0x4 ADD PUSH2 0x186E SWAP3 SWAP2 SWAP1 PUSH2 0x234B JUMP JUMPDEST PUSH1 0x20 PUSH1 0x40 MLOAD DUP1 DUP4 SUB DUP2 PUSH0 DUP8 GAS CALL ISZERO DUP1 ISZERO PUSH2 0x188A JUMPI RETURNDATASIZE PUSH0 PUSH0 RETURNDATACOPY RETURNDATASIZE PUSH0 REVERT JUMPDEST POP POP POP POP PUSH1 0x40 MLOAD RETURNDATASIZE PUSH1 0x1F NOT PUSH1 0x1F DUP3 ADD AND DUP3 ADD DUP1 PUSH1 0x40 MSTORE POP DUP2 ADD SWAP1 PUSH2 0x18AE SWAP2 SWAP1 PUSH2 0x2FE2 JUMP JUMPDEST POP JUMPDEST POP POP POP POP POP JUMP JUMPDEST PUSH1 0x60 PUSH0 PUSH8 0xFFFFFFFFFFFFFFFF DUP2 GT ISZERO PUSH2 0x18D3 JUMPI PUSH2 0x18D2 PUSH2 0x1B15 JUMP JUMPDEST JUMPDEST PUSH1 0x40 MLOAD SWAP1 DUP1 DUP3 MSTORE DUP1 PUSH1 0x20 MUL PUSH1 0x20 ADD DUP3 ADD PUSH1 0x40 MSTORE DUP1 ISZERO PUSH2 0x190C JUMPI DUP2 PUSH1 0x20 ADD JUMPDEST PUSH2 0x18F9 PUSH2 0x19B6 JUMP JUMPDEST DUP2 MSTORE PUSH1 0x20 ADD SWAP1 PUSH1 0x1 SWAP1 SUB SWAP1 DUP2 PUSH2 0x18F1 JUMPI SWAP1 POP JUMPDEST POP SWAP1 POP SWAP1 JUMP JUMPDEST PUSH0 PUSH2 0x1951 PUSH1 0x40 MLOAD DUP1 PUSH1 0x40 ADD PUSH1 0x40 MSTORE DUP1 PUSH1 0x12 DUP2 MSTORE PUSH1 0x20 ADD PUSH32 0x696E6465782D70726963652D6F7261636C650000000000000000000000000000 DUP2 MSTORE POP PUSH2 0x4A6 JUMP JUMPDEST SWAP1 POP SWAP1 JUMP JUMPDEST PUSH1 0x40 MLOAD DUP1 PUSH1 0x40 ADD PUSH1 0x40 MSTORE DUP1 PUSH0 PUSH20 0xFFFFFFFFFFFFFFFFFFFFFFFFFFFFFFFFFFFFFFFF AND DUP2 MSTORE PUSH1 0x20 ADD PUSH0 DUP2 MSTORE POP SWAP1 JUMP JUMPDEST PUSH1 0x40 MLOAD DUP1 PUSH1 0x40 ADD PUSH1 0x40 MSTORE DUP1 PUSH0 PUSH20 0xFFFFFFFFFFFFFFFFFFFFFFFFFFFFFFFFFFFFFFFF AND DUP2 MSTORE PUSH1 0x20 ADD PUSH0 PUSH2 0xFFFF AND DUP2 MSTORE POP SWAP1 JUMP JUMPDEST PUSH1 0x40 MLOAD DUP1 PUSH1 0x40 ADD PUSH1 0x40 MSTORE DUP1 PUSH0 PUSH20 0xFFFFFFFFFFFFFFFFFFFFFFFFFFFFFFFFFFFFFFFF AND DUP2 MSTORE PUSH1 0x20 ADD PUSH0 PUSH2 0xFFFF AND DUP2 MSTORE POP SWAP1 JUMP JUMPDEST PUSH0 PUSH1 0x40 MLOAD SWAP1 POP SWAP1 JUMP JUMPDEST PUSH0 PUSH0 REVERT JUMPDEST PUSH0 PUSH0 REVERT JUMPDEST PUSH0 DUP2 SWAP1 POP SWAP2 SWAP1 POP JUMP JUMPDEST PUSH2 0x1A0B DUP2 PUSH2 0x19F9 JUMP JUMPDEST DUP2 EQ PUSH2 0x1A15 JUMPI PUSH0 PUSH0 REVERT JUMPDEST POP JUMP JUMPDEST PUSH0 DUP2 CALLDATALOAD SWAP1 POP PUSH2 0x1A26 DUP2 PUSH2 0x1A02 JUMP JUMPDEST SWAP3 SWAP2 POP POP JUMP JUMPDEST PUSH0 PUSH20 0xFFFFFFFFFFFFFFFFFFFFFFFFFFFFFFFFFFFFFFFF DUP3 AND SWAP1 POP SWAP2 SWAP1 POP JUMP JUMPDEST PUSH0 PUSH2 0x1A55 DUP3 PUSH2 0x1A2C JUMP JUMPDEST SWAP1 POP SWAP2 SWAP1 POP JUMP JUMPDEST PUSH2 0x1A65 DUP2 PUSH2 0x1A4B JUMP JUMPDEST DUP2 EQ PUSH2 0x1A6F JUMPI PUSH0 PUSH0 REVERT JUMPDEST POP JUMP JUMPDEST PUSH0 DUP2 CALLDATALOAD SWAP1 POP PUSH2 0x1A80 DUP2 PUSH2 0x1A5C JUMP JUMPDEST SWAP3 SWAP2 POP POP JUMP JUMPDEST PUSH0 PUSH0 PUSH0 PUSH0 PUSH0 PUSH1 0xA0 DUP7 DUP9 SUB SLT ISZERO PUSH2 0x1A9F JUMPI PUSH2 0x1A9E PUSH2 0x19F1 JUMP JUMPDEST JUMPDEST PUSH0 PUSH2 0x1AAC DUP9 DUP3 DUP10 ADD PUSH2 0x1A18 JUMP JUMPDEST SWAP6 POP POP PUSH1 0x20 PUSH2 0x1ABD DUP9 DUP3 DUP10 ADD PUSH2 0x1A18 JUMP JUMPDEST SWAP5 POP POP PUSH1 0x40 PUSH2 0x1ACE DUP9 DUP3 DUP10 ADD PUSH2 0x1A72 JUMP JUMPDEST SWAP4 POP POP PUSH1 0x60 PUSH2 0x1ADF DUP9 DUP3 DUP10 ADD PUSH2 0x1A18 JUMP JUMPDEST SWAP3 POP POP PUSH1 0x80 PUSH2 0x1AF0 DUP9 DUP3 DUP10 ADD PUSH2 0x1A18 JUMP JUMPDEST SWAP2 POP POP SWAP3 SWAP6 POP SWAP3 SWAP6 SWAP1 SWAP4 POP JUMP JUMPDEST PUSH0 PUSH0 REVERT JUMPDEST PUSH0 PUSH0 REVERT JUMPDEST PUSH0 PUSH1 0x1F NOT PUSH1 0x1F DUP4 ADD AND SWAP1 POP SWAP2 SWAP1 POP JUMP JUMPDEST PUSH32 0x4E487B7100000000000000000000000000000000000000000000000000000000 PUSH0 MSTORE PUSH1 0x41 PUSH1 0x4 MSTORE PUSH1 0x24 PUSH0 REVERT JUMPDEST PUSH2 0x1B4B DUP3 PUSH2 0x1B05 JUMP JUMPDEST DUP2 ADD DUP2 DUP2 LT PUSH8 0xFFFFFFFFFFFFFFFF DUP3 GT OR ISZERO PUSH2 0x1B6A JUMPI PUSH2 0x1B69 PUSH2 0x1B15 JUMP JUMPDEST JUMPDEST DUP1 PUSH1 0x40 MSTORE POP POP POP JUMP JUMPDEST PUSH0 PUSH2 0x1B7C PUSH2 0x19E8 JUMP JUMPDEST SWAP1 POP PUSH2 0x1B88 DUP3 DUP3 PUSH2 0x1B42 JUMP JUMPDEST SWAP2 SWAP1 POP JUMP JUMPDEST PUSH0 PUSH8 0xFFFFFFFFFFFFFFFF DUP3 GT ISZERO PUSH2 0x1BA7 JUMPI PUSH2 0x1BA6 PUSH2 0x1B15 JUMP JUMPDEST JUMPDEST PUSH2 0x1BB0 DUP3 PUSH2 0x1B05 JUMP JUMPDEST SWAP1 POP PUSH1 0x20 DUP2 ADD SWAP1 POP SWAP2 SWAP1 POP JUMP JUMPDEST DUP3 DUP2 DUP4 CALLDATACOPY PUSH0 DUP4 DUP4 ADD MSTORE POP POP POP JUMP JUMPDEST PUSH0 PUSH2 0x1BDD PUSH2 0x1BD8 DUP5 PUSH2 0x1B8D JUMP JUMPDEST PUSH2 0x1B73 JUMP JUMPDEST SWAP1 POP DUP3 DUP2 MSTORE PUSH1 0x20 DUP2 ADD DUP5 DUP5 DUP5 ADD GT ISZERO PUSH2 0x1BF9 JUMPI PUSH2 0x1BF8 PUSH2 0x1B01 JUMP JUMPDEST JUMPDEST PUSH2 0x1C04 DUP5 DUP3 DUP6 PUSH2 0x1BBD JUMP JUMPDEST POP SWAP4 SWAP3 POP POP POP JUMP JUMPDEST PUSH0 DUP3 PUSH1 0x1F DUP4 ADD SLT PUSH2 0x1C20 JUMPI PUSH2 0x1C1F PUSH2 0x1AFD JUMP JUMPDEST JUMPDEST DUP2 CALLDATALOAD PUSH2 0x1C30 DUP5 DUP3 PUSH1 0x20 DUP7 ADD PUSH2 0x1BCB JUMP JUMPDEST SWAP2 POP POP SWAP3 SWAP2 POP POP JUMP JUMPDEST PUSH0 PUSH1 0x20 DUP3 DUP5 SUB SLT ISZERO PUSH2 0x1C4E JUMPI PUSH2 0x1C4D PUSH2 0x19F1 JUMP JUMPDEST JUMPDEST PUSH0 DUP3 ADD CALLDATALOAD PUSH8 0xFFFFFFFFFFFFFFFF DUP2 GT ISZERO PUSH2 0x1C6B JUMPI PUSH2 0x1C6A PUSH2 0x19F5 JUMP JUMPDEST JUMPDEST PUSH2 0x1C77 DUP5 DUP3 DUP6 ADD PUSH2 0x1C0C JUMP JUMPDEST SWAP2 POP POP SWAP3 SWAP2 POP POP JUMP JUMPDEST PUSH0 PUSH2 0x1C8A DUP3 PUSH2 0x1A2C JUMP JUMPDEST SWAP1 POP SWAP2 SWAP1 POP JUMP JUMPDEST PUSH2 0x1C9A DUP2 PUSH2 0x1C80 JUMP JUMPDEST DUP3 MSTORE POP POP JUMP JUMPDEST PUSH0 PUSH1 0x20 DUP3 ADD SWAP1 POP PUSH2 0x1CB3 PUSH0 DUP4 ADD DUP5 PUSH2 0x1C91 JUMP JUMPDEST SWAP3 SWAP2 POP POP JUMP JUMPDEST PUSH0 DUP2 SWAP1 POP SWAP2 SWAP1 POP JUMP JUMPDEST PUSH0 PUSH2 0x1CDC PUSH2 0x1CD7 PUSH2 0x1CD2 DUP5 PUSH2 0x1A2C JUMP JUMPDEST PUSH2 0x1CB9 JUMP JUMPDEST PUSH2 0x1A2C JUMP JUMPDEST SWAP1 POP SWAP2 SWAP1 POP JUMP JUMPDEST PUSH0 PUSH2 0x1CED DUP3 PUSH2 0x1CC2 JUMP JUMPDEST SWAP1 POP SWAP2 SWAP1 POP JUMP JUMPDEST PUSH0 PUSH2 0x1CFE DUP3 PUSH2 0x1CE3 JUMP JUMPDEST SWAP1 POP SWAP2 SWAP1 POP JUMP JUMPDEST PUSH2 0x1D0E DUP2 PUSH2 0x1CF4 JUMP JUMPDEST DUP3 MSTORE POP POP JUMP JUMPDEST PUSH0 PUSH1 0x20 DUP3 ADD SWAP1 POP PUSH2 0x1D27 PUSH0 DUP4 ADD DUP5 PUSH2 0x1D05 JUMP JUMPDEST SWAP3 SWAP2 POP POP JUMP JUMPDEST PUSH2 0x1D36 DUP2 PUSH2 0x1C80 JUMP JUMPDEST DUP2 EQ PUSH2 0x1D40 JUMPI PUSH0 PUSH0 REVERT JUMPDEST POP JUMP JUMPDEST PUSH0 DUP2 CALLDATALOAD SWAP1 POP PUSH2 0x1D51 DUP2 PUSH2 0x1D2D JUMP JUMPDEST SWAP3 SWAP2 POP POP JUMP JUMPDEST PUSH0 PUSH0 PUSH0 PUSH0 PUSH1 0x80 DUP6 DUP8 SUB SLT ISZERO PUSH2 0x1D6F JUMPI PUSH2 0x1D6E PUSH2 0x19F1 JUMP JUMPDEST JUMPDEST PUSH0 PUSH2 0x1D7C DUP8 DUP3 DUP9 ADD PUSH2 0x1A18 JUMP JUMPDEST SWAP5 POP POP PUSH1 0x20 PUSH2 0x1D8D DUP8 DUP3 DUP9 ADD PUSH2 0x1D43 JUMP JUMPDEST SWAP4 POP POP PUSH1 0x40 PUSH2 0x1D9E DUP8 DUP3 DUP9 ADD PUSH2 0x1A18 JUMP JUMPDEST SWAP3 POP POP PUSH1 0x60 PUSH2 0x1DAF DUP8 DUP3 DUP9 ADD PUSH2 0x1A18 JUMP JUMPDEST SWAP2 POP POP SWAP3 SWAP6 SWAP2 SWAP5 POP SWAP3 POP JUMP JUMPDEST PUSH0 PUSH1 0x20 DUP3 DUP5 SUB SLT ISZERO PUSH2 0x1DD0 JUMPI PUSH2 0x1DCF PUSH2 0x19F1 JUMP JUMPDEST JUMPDEST PUSH0 PUSH2 0x1DDD DUP5 DUP3 DUP6 ADD PUSH2 0x1D43 JUMP JUMPDEST SWAP2 POP POP SWAP3 SWAP2 POP POP JUMP JUMPDEST PUSH0 DUP3 DUP3 MSTORE PUSH1 0x20 DUP3 ADD SWAP1 POP SWAP3 SWAP2 POP POP JUMP JUMPDEST PUSH32 0x457466526F757465723A20746F6B656E7320746F2073656C6C2073686F756C64 PUSH0 DUP3 ADD MSTORE PUSH32 0x206E6F74206265207A65726F0000000000000000000000000000000000000000 PUSH1 0x20 DUP3 ADD MSTORE POP JUMP JUMPDEST PUSH0 PUSH2 0x1E50 PUSH1 0x2C DUP4 PUSH2 0x1DE6 JUMP JUMPDEST SWAP2 POP PUSH2 0x1E5B DUP3 PUSH2 0x1DF6 JUMP JUMPDEST PUSH1 0x40 DUP3 ADD SWAP1 POP SWAP2 SWAP1 POP JUMP JUMPDEST PUSH0 PUSH1 0x20 DUP3 ADD SWAP1 POP DUP2 DUP2 SUB PUSH0 DUP4 ADD MSTORE PUSH2 0x1E7D DUP2 PUSH2 0x1E44 JUMP JUMPDEST SWAP1 POP SWAP2 SWAP1 POP JUMP JUMPDEST PUSH32 0x457466526F757465723A2072656365697665722073686F756C64206E6F742062 PUSH0 DUP3 ADD MSTORE PUSH32 0x65207A65726F2061646472657373000000000000000000000000000000000000 PUSH1 0x20 DUP3 ADD MSTORE POP JUMP JUMPDEST PUSH0 PUSH2 0x1EDE PUSH1 0x2E DUP4 PUSH2 0x1DE6 JUMP JUMPDEST SWAP2 POP PUSH2 0x1EE9 DUP3 PUSH2 0x1E84 JUMP JUMPDEST PUSH1 0x40 DUP3 ADD SWAP1 POP SWAP2 SWAP1 POP JUMP JUMPDEST PUSH0 PUSH1 0x20 DUP3 ADD SWAP1 POP DUP2 DUP2 SUB PUSH0 DUP4 ADD MSTORE PUSH2 0x1F0B DUP2 PUSH2 0x1ED2 JUMP JUMPDEST SWAP1 POP SWAP2 SWAP1 POP JUMP JUMPDEST PUSH2 0x1F1B DUP2 PUSH2 0x19F9 JUMP JUMPDEST DUP3 MSTORE POP POP JUMP JUMPDEST PUSH0 PUSH1 0x20 DUP3 ADD SWAP1 POP PUSH2 0x1F34 PUSH0 DUP4 ADD DUP5 PUSH2 0x1F12 JUMP JUMPDEST SWAP3 SWAP2 POP POP JUMP JUMPDEST PUSH0 PUSH0 REVERT JUMPDEST PUSH0 PUSH0 REVERT JUMPDEST DUP3 DUP2 DUP4 MCOPY PUSH0 DUP4 DUP4 ADD MSTORE POP POP POP JUMP JUMPDEST PUSH0 PUSH2 0x1F62 PUSH2 0x1F5D DUP5 PUSH2 0x1B8D JUMP JUMPDEST PUSH2 0x1B73 JUMP JUMPDEST SWAP1 POP DUP3 DUP2 MSTORE PUSH1 0x20 DUP2 ADD DUP5 DUP5 DUP5 ADD GT ISZERO PUSH2 0x1F7E JUMPI PUSH2 0x1F7D PUSH2 0x1B01 JUMP JUMPDEST JUMPDEST PUSH2 0x1F89 DUP5 DUP3 DUP6 PUSH2 0x1F42 JUMP JUMPDEST POP SWAP4 SWAP3 POP POP POP JUMP JUMPDEST PUSH0 DUP3 PUSH1 0x1F DUP4 ADD SLT PUSH2 0x1FA5 JUMPI PUSH2 0x1FA4 PUSH2 0x1AFD JUMP JUMPDEST JUMPDEST DUP2 MLOAD PUSH2 0x1FB5 DUP5 DUP3 PUSH1 0x20 DUP7 ADD PUSH2 0x1F50 JUMP JUMPDEST SWAP2 POP POP SWAP3 SWAP2 POP POP JUMP JUMPDEST PUSH0 PUSH8 0xFFFFFFFFFFFFFFFF DUP3 GT ISZERO PUSH2 0x1FD8 JUMPI PUSH2 0x1FD7 PUSH2 0x1B15 JUMP JUMPDEST JUMPDEST PUSH1 0x20 DUP3 MUL SWAP1 POP PUSH1 0x20 DUP2 ADD SWAP1 POP SWAP2 SWAP1 POP JUMP JUMPDEST PUSH0 PUSH0 REVERT JUMPDEST PUSH0 DUP2 MLOAD SWAP1 POP PUSH2 0x1FFB DUP2 PUSH2 0x1D2D JUMP JUMPDEST SWAP3 SWAP2 POP POP JUMP JUMPDEST PUSH0 PUSH2 0xFFFF DUP3 AND SWAP1 POP SWAP2 SWAP1 POP JUMP JUMPDEST PUSH2 0x2017 DUP2 PUSH2 0x2001 JUMP JUMPDEST DUP2 EQ PUSH2 0x2021 JUMPI PUSH0 PUSH0 REVERT JUMPDEST POP JUMP JUMPDEST PUSH0 DUP2 MLOAD SWAP1 POP PUSH2 0x2032 DUP2 PUSH2 0x200E JUMP JUMPDEST SWAP3 SWAP2 POP POP JUMP JUMPDEST PUSH0 PUSH1 0x40 DUP3 DUP5 SUB SLT ISZERO PUSH2 0x204D JUMPI PUSH2 0x204C PUSH2 0x1F3A JUMP JUMPDEST JUMPDEST PUSH2 0x2057 PUSH1 0x40 PUSH2 0x1B73 JUMP JUMPDEST SWAP1 POP PUSH0 PUSH2 0x2066 DUP5 DUP3 DUP6 ADD PUSH2 0x1FED JUMP JUMPDEST PUSH0 DUP4 ADD MSTORE POP PUSH1 0x20 PUSH2 0x2079 DUP5 DUP3 DUP6 ADD PUSH2 0x2024 JUMP JUMPDEST PUSH1 0x20 DUP4 ADD MSTORE POP SWAP3 SWAP2 POP POP JUMP JUMPDEST PUSH0 PUSH2 0x2097 PUSH2 0x2092 DUP5 PUSH2 0x1FBE JUMP JUMPDEST PUSH2 0x1B73 JUMP JUMPDEST SWAP1 POP DUP1 DUP4 DUP3 MSTORE PUSH1 0x20 DUP3 ADD SWAP1 POP PUSH1 0x40 DUP5 MUL DUP4 ADD DUP6 DUP2 GT ISZERO PUSH2 0x20BA JUMPI PUSH2 0x20B9 PUSH2 0x1FE9 JUMP JUMPDEST JUMPDEST DUP4 JUMPDEST DUP2 DUP2 LT ISZERO PUSH2 0x20E3 JUMPI DUP1 PUSH2 0x20CF DUP9 DUP3 PUSH2 0x2038 JUMP JUMPDEST DUP5 MSTORE PUSH1 0x20 DUP5 ADD SWAP4 POP POP PUSH1 0x40 DUP2 ADD SWAP1 POP PUSH2 0x20BC JUMP JUMPDEST POP POP POP SWAP4 SWAP3 POP POP POP JUMP JUMPDEST PUSH0 DUP3 PUSH1 0x1F DUP4 ADD SLT PUSH2 0x2101 JUMPI PUSH2 0x2100 PUSH2 0x1AFD JUMP JUMPDEST JUMPDEST DUP2 MLOAD PUSH2 0x2111 DUP5 DUP3 PUSH1 0x20 DUP7 ADD PUSH2 0x2085 JUMP JUMPDEST SWAP2 POP POP SWAP3 SWAP2 POP POP JUMP JUMPDEST PUSH0 PUSH1 0x60 DUP3 DUP5 SUB SLT ISZERO PUSH2 0x212F JUMPI PUSH2 0x212E PUSH2 0x1F3A JUMP JUMPDEST JUMPDEST PUSH2 0x2139 PUSH1 0x60 PUSH2 0x1B73 JUMP JUMPDEST SWAP1 POP PUSH0 DUP3 ADD MLOAD PUSH8 0xFFFFFFFFFFFFFFFF DUP2 GT ISZERO PUSH2 0x2158 JUMPI PUSH2 0x2157 PUSH2 0x1F3E JUMP JUMPDEST JUMPDEST PUSH2 0x2164 DUP5 DUP3 DUP6 ADD PUSH2 0x1F91 JUMP JUMPDEST PUSH0 DUP4 ADD MSTORE POP PUSH1 0x20 DUP3 ADD MLOAD PUSH8 0xFFFFFFFFFFFFFFFF DUP2 GT ISZERO PUSH2 0x2187 JUMPI PUSH2 0x2186 PUSH2 0x1F3E JUMP JUMPDEST JUMPDEST PUSH2 0x2193 DUP5 DUP3 DUP6 ADD PUSH2 0x1F91 JUMP JUMPDEST PUSH1 0x20 DUP4 ADD MSTORE POP PUSH1 0x40 DUP3 ADD MLOAD PUSH8 0xFFFFFFFFFFFFFFFF DUP2 GT ISZERO PUSH2 0x21B7 JUMPI PUSH2 0x21B6 PUSH2 0x1F3E JUMP JUMPDEST JUMPDEST PUSH2 0x21C3 DUP5 DUP3 DUP6 ADD PUSH2 0x20ED JUMP JUMPDEST PUSH1 0x40 DUP4 ADD MSTORE POP SWAP3 SWAP2 POP POP JUMP JUMPDEST PUSH0 PUSH1 0x20 DUP3 DUP5 SUB SLT ISZERO PUSH2 0x21E4 JUMPI PUSH2 0x21E3 PUSH2 0x19F1 JUMP JUMPDEST JUMPDEST PUSH0 DUP3 ADD MLOAD PUSH8 0xFFFFFFFFFFFFFFFF DUP2 GT ISZERO PUSH2 0x2201 JUMPI PUSH2 0x2200 PUSH2 0x19F5 JUMP JUMPDEST JUMPDEST PUSH2 0x220D DUP5 DUP3 DUP6 ADD PUSH2 0x211A JUMP JUMPDEST SWAP2 POP POP SWAP3 SWAP2 POP POP JUMP JUMPDEST PUSH0 DUP2 MLOAD SWAP1 POP PUSH2 0x2224 DUP2 PUSH2 0x1A02 JUMP JUMPDEST SWAP3 SWAP2 POP POP JUMP JUMPDEST PUSH0 PUSH1 0x20 DUP3 DUP5 SUB SLT ISZERO PUSH2 0x223F JUMPI PUSH2 0x223E PUSH2 0x19F1 JUMP JUMPDEST JUMPDEST PUSH0 PUSH2 0x224C DUP5 DUP3 DUP6 ADD PUSH2 0x2216 JUMP JUMPDEST SWAP2 POP POP SWAP3 SWAP2 POP POP JUMP JUMPDEST PUSH32 0x457466526F757465723A20746F6B656E20737570706C79206973207A65726F00 PUSH0 DUP3 ADD MSTORE POP JUMP JUMPDEST PUSH0 PUSH2 0x2289 PUSH1 0x1F DUP4 PUSH2 0x1DE6 JUMP JUMPDEST SWAP2 POP PUSH2 0x2294 DUP3 PUSH2 0x2255 JUMP JUMPDEST PUSH1 0x20 DUP3 ADD SWAP1 POP SWAP2 SWAP1 POP JUMP JUMPDEST PUSH0 PUSH1 0x20 DUP3 ADD SWAP1 POP DUP2 DUP2 SUB PUSH0 DUP4 ADD MSTORE PUSH2 0x22B6 DUP2 PUSH2 0x227D JUMP JUMPDEST SWAP1 POP SWAP2 SWAP1 POP JUMP JUMPDEST PUSH32 0x457466526F757465723A2073656C6C546F6B656E416D6F756E74206973206772 PUSH0 DUP3 ADD MSTORE PUSH32 0x6561746572207468616E20746F74616C20737570706C79000000000000000000 PUSH1 0x20 DUP3 ADD MSTORE POP JUMP JUMPDEST PUSH0 PUSH2 0x2317 PUSH1 0x37 DUP4 PUSH2 0x1DE6 JUMP JUMPDEST SWAP2 POP PUSH2 0x2322 DUP3 PUSH2 0x22BD JUMP JUMPDEST PUSH1 0x40 DUP3 ADD SWAP1 POP SWAP2 SWAP1 POP JUMP JUMPDEST PUSH0 PUSH1 0x20 DUP3 ADD SWAP1 POP DUP2 DUP2 SUB PUSH0 DUP4 ADD MSTORE PUSH2 0x2344 DUP2 PUSH2 0x230B JUMP JUMPDEST SWAP1 POP SWAP2 SWAP1 POP JUMP JUMPDEST PUSH0 PUSH1 0x40 DUP3 ADD SWAP1 POP PUSH2 0x235E PUSH0 DUP4 ADD DUP6 PUSH2 0x1C91 JUMP JUMPDEST PUSH2 0x236B PUSH1 0x20 DUP4 ADD DUP5 PUSH2 0x1F12 JUMP JUMPDEST SWAP4 SWAP3 POP POP POP JUMP JUMPDEST PUSH32 0x4E487B7100000000000000000000000000000000000000000000000000000000 PUSH0 MSTORE PUSH1 0x11 PUSH1 0x4 MSTORE PUSH1 0x24 PUSH0 REVERT JUMPDEST PUSH0 PUSH2 0x23A9 DUP3 PUSH2 0x19F9 JUMP JUMPDEST SWAP2 POP PUSH2 0x23B4 DUP4 PUSH2 0x19F9 JUMP JUMPDEST SWAP3 POP DUP3 DUP3 SUB SWAP1 POP DUP2 DUP2 GT ISZERO PUSH2 0x23CC JUMPI PUSH2 0x23CB PUSH2 0x2372 JUMP JUMPDEST JUMPDEST SWAP3 SWAP2 POP POP JUMP JUMPDEST PUSH0 PUSH2 0x23DC DUP3 PUSH2 0x1CE3 JUMP JUMPDEST SWAP1 POP SWAP2 SWAP1 POP JUMP JUMPDEST PUSH2 0x23EC DUP2 PUSH2 0x23D2 JUMP JUMPDEST DUP3 MSTORE POP POP JUMP JUMPDEST PUSH0 PUSH1 0xA0 DUP3 ADD SWAP1 POP PUSH2 0x2405 PUSH0 DUP4 ADD DUP9 PUSH2 0x1F12 JUMP JUMPDEST PUSH2 0x2412 PUSH1 0x20 DUP4 ADD DUP8 PUSH2 0x1C91 JUMP JUMPDEST PUSH2 0x241F PUSH1 0x40 DUP4 ADD DUP7 PUSH2 0x23E3 JUMP JUMPDEST PUSH2 0x242C PUSH1 0x60 DUP4 ADD DUP6 PUSH2 0x1F12 JUMP JUMPDEST PUSH2 0x2439 PUSH1 0x80 DUP4 ADD DUP5 PUSH2 0x1F12 JUMP JUMPDEST SWAP7 SWAP6 POP POP POP POP POP POP JUMP JUMPDEST PUSH0 DUP2 MLOAD SWAP1 POP SWAP2 SWAP1 POP JUMP JUMPDEST PUSH0 PUSH2 0x2457 DUP3 PUSH2 0x2443 JUMP JUMPDEST PUSH2 0x2461 DUP2 DUP6 PUSH2 0x1DE6 JUMP JUMPDEST SWAP4 POP PUSH2 0x2471 DUP2 DUP6 PUSH1 0x20 DUP7 ADD PUSH2 0x1F42 JUMP JUMPDEST PUSH2 0x247A DUP2 PUSH2 0x1B05 JUMP JUMPDEST DUP5 ADD SWAP2 POP POP SWAP3 SWAP2 POP POP JUMP JUMPDEST PUSH0 PUSH1 0x20 DUP3 ADD SWAP1 POP DUP2 DUP2 SUB PUSH0 DUP4 ADD MSTORE PUSH2 0x249D DUP2 DUP5 PUSH2 0x244D JUMP JUMPDEST SWAP1 POP SWAP3 SWAP2 POP POP JUMP JUMPDEST PUSH0 PUSH1 0x20 DUP3 DUP5 SUB SLT ISZERO PUSH2 0x24BA JUMPI PUSH2 0x24B9 PUSH2 0x19F1 JUMP JUMPDEST JUMPDEST PUSH0 PUSH2 0x24C7 DUP5 DUP3 DUP6 ADD PUSH2 0x1FED JUMP JUMPDEST SWAP2 POP POP SWAP3 SWAP2 POP POP JUMP JUMPDEST PUSH32 0x457466526F757465723A204D73672076616C75652063616E6E6F74206265207A PUSH0 DUP3 ADD MSTORE PUSH32 0x65726F0000000000000000000000000000000000000000000000000000000000 PUSH1 0x20 DUP3 ADD MSTORE POP JUMP JUMPDEST PUSH0 PUSH2 0x252A PUSH1 0x23 DUP4 PUSH2 0x1DE6 JUMP JUMPDEST SWAP2 POP PUSH2 0x2535 DUP3 PUSH2 0x24D0 JUMP JUMPDEST PUSH1 0x40 DUP3 ADD SWAP1 POP SWAP2 SWAP1 POP JUMP JUMPDEST PUSH0 PUSH1 0x20 DUP3 ADD SWAP1 POP DUP2 DUP2 SUB PUSH0 DUP4 ADD MSTORE PUSH2 0x2557 DUP2 PUSH2 0x251E JUMP JUMPDEST SWAP1 POP SWAP2 SWAP1 POP JUMP JUMPDEST PUSH32 0x457466526F757465723A2052656365697665722063616E6E6F74206265207A65 PUSH0 DUP3 ADD MSTORE PUSH32 0x726F206164647265737300000000000000000000000000000000000000000000 PUSH1 0x20 DUP3 ADD MSTORE POP JUMP JUMPDEST PUSH0 PUSH2 0x25B8 PUSH1 0x2A DUP4 PUSH2 0x1DE6 JUMP JUMPDEST SWAP2 POP PUSH2 0x25C3 DUP3 PUSH2 0x255E JUMP JUMPDEST PUSH1 0x40 DUP3 ADD SWAP1 POP SWAP2 SWAP1 POP JUMP JUMPDEST PUSH0 PUSH1 0x20 DUP3 ADD SWAP1 POP DUP2 DUP2 SUB PUSH0 DUP4 ADD MSTORE PUSH2 0x25E5 DUP2 PUSH2 0x25AC JUMP JUMPDEST SWAP1 POP SWAP2 SWAP1 POP JUMP JUMPDEST PUSH0 PUSH1 0xA0 DUP3 ADD SWAP1 POP PUSH2 0x25FF PUSH0 DUP4 ADD DUP9 PUSH2 0x1F12 JUMP JUMPDEST PUSH2 0x260C PUSH1 0x20 DUP4 ADD DUP8 PUSH2 0x1C91 JUMP JUMPDEST PUSH2 0x2619 PUSH1 0x40 DUP4 ADD DUP7 PUSH2 0x1C91 JUMP JUMPDEST PUSH2 0x2626 PUSH1 0x60 DUP4 ADD DUP6 PUSH2 0x1F12 JUMP JUMPDEST PUSH2 0x2633 PUSH1 0x80 DUP4 ADD DUP5 PUSH2 0x1F12 JUMP JUMPDEST SWAP7 SWAP6 POP POP POP POP POP POP JUMP JUMPDEST PUSH32 0x43616C6C6572206973206E6F7420746865206F776E6572000000000000000000 PUSH0 DUP3 ADD MSTORE POP JUMP JUMPDEST PUSH0 PUSH2 0x2671 PUSH1 0x17 DUP4 PUSH2 0x1DE6 JUMP JUMPDEST SWAP2 POP PUSH2 0x267C DUP3 PUSH2 0x263D JUMP JUMPDEST PUSH1 0x20 DUP3 ADD SWAP1 POP SWAP2 SWAP1 POP JUMP JUMPDEST PUSH0 PUSH1 0x20 DUP3 ADD SWAP1 POP DUP2 DUP2 SUB PUSH0 DUP4 ADD MSTORE PUSH2 0x269E DUP2 PUSH2 0x2665 JUMP JUMPDEST SWAP1 POP SWAP2 SWAP1 POP JUMP JUMPDEST PUSH32 0x5265656E7472616E637947756172643A207265656E7472616E742063616C6C00 PUSH0 DUP3 ADD MSTORE POP JUMP JUMPDEST PUSH0 PUSH2 0x26D9 PUSH1 0x1F DUP4 PUSH2 0x1DE6 JUMP JUMPDEST SWAP2 POP PUSH2 0x26E4 DUP3 PUSH2 0x26A5 JUMP JUMPDEST PUSH1 0x20 DUP3 ADD SWAP1 POP SWAP2 SWAP1 POP JUMP JUMPDEST PUSH0 PUSH1 0x20 DUP3 ADD SWAP1 POP DUP2 DUP2 SUB PUSH0 DUP4 ADD MSTORE PUSH2 0x2706 DUP2 PUSH2 0x26CD JUMP JUMPDEST SWAP1 POP SWAP2 SWAP1 POP JUMP JUMPDEST PUSH32 0x457466526F757465723A20657466546F6B656E41646472657373206E6F742064 PUSH0 DUP3 ADD MSTORE PUSH32 0x65706C6F79656400000000000000000000000000000000000000000000000000 PUSH1 0x20 DUP3 ADD MSTORE POP JUMP JUMPDEST PUSH0 PUSH2 0x2767 PUSH1 0x27 DUP4 PUSH2 0x1DE6 JUMP JUMPDEST SWAP2 POP PUSH2 0x2772 DUP3 PUSH2 0x270D JUMP JUMPDEST PUSH1 0x40 DUP3 ADD SWAP1 POP SWAP2 SWAP1 POP JUMP JUMPDEST PUSH0 PUSH1 0x20 DUP3 ADD SWAP1 POP DUP2 DUP2 SUB PUSH0 DUP4 ADD MSTORE PUSH2 0x2794 DUP2 PUSH2 0x275B JUMP JUMPDEST SWAP1 POP SWAP2 SWAP1 POP JUMP JUMPDEST PUSH32 0x457466526F757465723A206574665661756C7441646472657373206E6F742064 PUSH0 DUP3 ADD MSTORE PUSH32 0x65706C6F79656400000000000000000000000000000000000000000000000000 PUSH1 0x20 DUP3 ADD MSTORE POP JUMP JUMPDEST PUSH0 PUSH2 0x27F5 PUSH1 0x27 DUP4 PUSH2 0x1DE6 JUMP JUMPDEST SWAP2 POP PUSH2 0x2800 DUP3 PUSH2 0x279B JUMP JUMPDEST PUSH1 0x40 DUP3 ADD SWAP1 POP SWAP2 SWAP1 POP JUMP JUMPDEST PUSH0 PUSH1 0x20 DUP3 ADD SWAP1 POP DUP2 DUP2 SUB PUSH0 DUP4 ADD MSTORE PUSH2 0x2822 DUP2 PUSH2 0x27E9 JUMP JUMPDEST SWAP1 POP SWAP2 SWAP1 POP JUMP JUMPDEST PUSH32 0x4E487B7100000000000000000000000000000000000000000000000000000000 PUSH0 MSTORE PUSH1 0x32 PUSH1 0x4 MSTORE PUSH1 0x24 PUSH0 REVERT JUMPDEST PUSH0 PUSH2 0x2860 DUP3 PUSH2 0x19F9 JUMP JUMPDEST SWAP2 POP PUSH2 0x286B DUP4 PUSH2 0x19F9 JUMP JUMPDEST SWAP3 POP DUP3 DUP3 MUL PUSH2 0x2879 DUP2 PUSH2 0x19F9 JUMP JUMPDEST SWAP2 POP DUP3 DUP3 DIV DUP5 EQ DUP4 ISZERO OR PUSH2 0x2890 JUMPI PUSH2 0x288F PUSH2 0x2372 JUMP JUMPDEST JUMPDEST POP SWAP3 SWAP2 POP POP JUMP JUMPDEST PUSH32 0x4E487B7100000000000000000000000000000000000000000000000000000000 PUSH0 MSTORE PUSH1 0x12 PUSH1 0x4 MSTORE PUSH1 0x24 PUSH0 REVERT JUMPDEST PUSH0 PUSH2 0x28CE DUP3 PUSH2 0x19F9 JUMP JUMPDEST SWAP2 POP PUSH2 0x28D9 DUP4 PUSH2 0x19F9 JUMP JUMPDEST SWAP3 POP DUP3 PUSH2 0x28E9 JUMPI PUSH2 0x28E8 PUSH2 0x2897 JUMP JUMPDEST JUMPDEST DUP3 DUP3 DIV SWAP1 POP SWAP3 SWAP2 POP POP JUMP JUMPDEST PUSH0 PUSH2 0x28FE DUP3 PUSH2 0x19F9 JUMP JUMPDEST SWAP2 POP PUSH32 0xFFFFFFFFFFFFFFFFFFFFFFFFFFFFFFFFFFFFFFFFFFFFFFFFFFFFFFFFFFFFFFFF DUP3 SUB PUSH2 0x2930 JUMPI PUSH2 0x292F PUSH2 0x2372 JUMP JUMPDEST JUMPDEST PUSH1 0x1 DUP3 ADD SWAP1 POP SWAP2 SWAP1 POP JUMP JUMPDEST PUSH32 0x457466526F757465723A206E6F7468696E6720746F2077697468647261770000 PUSH0 DUP3 ADD MSTORE POP JUMP JUMPDEST PUSH0 PUSH2 0x296F PUSH1 0x1E DUP4 PUSH2 0x1DE6 JUMP JUMPDEST SWAP2 POP PUSH2 0x297A DUP3 PUSH2 0x293B JUMP JUMPDEST PUSH1 0x20 DUP3 ADD SWAP1 POP SWAP2 SWAP1 POP JUMP JUMPDEST PUSH0 PUSH1 0x20 DUP3 ADD SWAP1 POP DUP2 DUP2 SUB PUSH0 DUP4 ADD MSTORE PUSH2 0x299C DUP2 PUSH2 0x2963 JUMP JUMPDEST SWAP1 POP SWAP2 SWAP1 POP JUMP JUMPDEST PUSH0 PUSH1 0x60 DUP3 ADD SWAP1 POP PUSH2 0x29B6 PUSH0 DUP4 ADD DUP7 PUSH2 0x1C91 JUMP JUMPDEST PUSH2 0x29C3 PUSH1 0x20 DUP4 ADD DUP6 PUSH2 0x1F12 JUMP JUMPDEST PUSH2 0x29D0 PUSH1 0x40 DUP4 ADD DUP5 PUSH2 0x1C91 JUMP JUMPDEST SWAP5 SWAP4 POP POP POP POP JUMP JUMPDEST PUSH0 DUP2 MLOAD SWAP1 POP SWAP2 SWAP1 POP JUMP JUMPDEST PUSH0 DUP3 DUP3 MSTORE PUSH1 0x20 DUP3 ADD SWAP1 POP SWAP3 SWAP2 POP POP JUMP JUMPDEST PUSH0 DUP2 SWAP1 POP PUSH1 0x20 DUP3 ADD SWAP1 POP SWAP2 SWAP1 POP JUMP JUMPDEST PUSH2 0x2A0A DUP2 PUSH2 0x1C80 JUMP JUMPDEST DUP3 MSTORE POP POP JUMP JUMPDEST PUSH2 0x2A19 DUP2 PUSH2 0x19F9 JUMP JUMPDEST DUP3 MSTORE POP POP JUMP JUMPDEST PUSH1 0x40 DUP3 ADD PUSH0 DUP3 ADD MLOAD PUSH2 0x2A33 PUSH0 DUP6 ADD DUP3 PUSH2 0x2A01 JUMP JUMPDEST POP PUSH1 0x20 DUP3 ADD MLOAD PUSH2 0x2A46 PUSH1 0x20 DUP6 ADD DUP3 PUSH2 0x2A10 JUMP JUMPDEST POP POP POP POP JUMP JUMPDEST PUSH0 PUSH2 0x2A57 DUP4 DUP4 PUSH2 0x2A1F JUMP JUMPDEST PUSH1 0x40 DUP4 ADD SWAP1 POP SWAP3 SWAP2 POP POP JUMP JUMPDEST PUSH0 PUSH1 0x20 DUP3 ADD SWAP1 POP SWAP2 SWAP1 POP JUMP JUMPDEST PUSH0 PUSH2 0x2A79 DUP3 PUSH2 0x29D8 JUMP JUMPDEST PUSH2 0x2A83 DUP2 DUP6 PUSH2 0x29E2 JUMP JUMPDEST SWAP4 POP PUSH2 0x2A8E DUP4 PUSH2 0x29F2 JUMP JUMPDEST DUP1 PUSH0 JUMPDEST DUP4 DUP2 LT ISZERO PUSH2 0x2ABE JUMPI DUP2 MLOAD PUSH2 0x2AA5 DUP9 DUP3 PUSH2 0x2A4C JUMP JUMPDEST SWAP8 POP PUSH2 0x2AB0 DUP4 PUSH2 0x2A63 JUMP JUMPDEST SWAP3 POP POP PUSH1 0x1 DUP2 ADD SWAP1 POP PUSH2 0x2A91 JUMP JUMPDEST POP DUP6 SWAP4 POP POP POP POP SWAP3 SWAP2 POP POP JUMP JUMPDEST PUSH0 DUP2 MLOAD SWAP1 POP SWAP2 SWAP1 POP JUMP JUMPDEST PUSH0 DUP3 DUP3 MSTORE PUSH1 0x20 DUP3 ADD SWAP1 POP SWAP3 SWAP2 POP POP JUMP JUMPDEST PUSH0 DUP2 SWAP1 POP PUSH1 0x20 DUP3 ADD SWAP1 POP SWAP2 SWAP1 POP JUMP JUMPDEST PUSH2 0x2AFD DUP2 PUSH2 0x2001 JUMP JUMPDEST DUP3 MSTORE POP POP JUMP JUMPDEST PUSH1 0x40 DUP3 ADD PUSH0 DUP3 ADD MLOAD PUSH2 0x2B17 PUSH0 DUP6 ADD DUP3 PUSH2 0x2A01 JUMP JUMPDEST POP PUSH1 0x20 DUP3 ADD MLOAD PUSH2 0x2B2A PUSH1 0x20 DUP6 ADD DUP3 PUSH2 0x2AF4 JUMP JUMPDEST POP POP POP POP JUMP JUMPDEST PUSH0 PUSH2 0x2B3B DUP4 DUP4 PUSH2 0x2B03 JUMP JUMPDEST PUSH1 0x40 DUP4 ADD SWAP1 POP SWAP3 SWAP2 POP POP JUMP JUMPDEST PUSH0 PUSH1 0x20 DUP3 ADD SWAP1 POP SWAP2 SWAP1 POP JUMP JUMPDEST PUSH0 PUSH2 0x2B5D DUP3 PUSH2 0x2ACB JUMP JUMPDEST PUSH2 0x2B67 DUP2 DUP6 PUSH2 0x2AD5 JUMP JUMPDEST SWAP4 POP PUSH2 0x2B72 DUP4 PUSH2 0x2AE5 JUMP JUMPDEST DUP1 PUSH0 JUMPDEST DUP4 DUP2 LT ISZERO PUSH2 0x2BA2 JUMPI DUP2 MLOAD PUSH2 0x2B89 DUP9 DUP3 PUSH2 0x2B30 JUMP JUMPDEST SWAP8 POP PUSH2 0x2B94 DUP4 PUSH2 0x2B47 JUMP JUMPDEST SWAP3 POP POP PUSH1 0x1 DUP2 ADD SWAP1 POP PUSH2 0x2B75 JUMP JUMPDEST POP DUP6 SWAP4 POP POP POP POP SWAP3 SWAP2 POP POP JUMP JUMPDEST PUSH0 DUP2 MLOAD SWAP1 POP SWAP2 SWAP1 POP JUMP JUMPDEST PUSH0 DUP3 DUP3 MSTORE PUSH1 0x20 DUP3 ADD SWAP1 POP SWAP3 SWAP2 POP POP JUMP JUMPDEST PUSH0 DUP2 SWAP1 POP PUSH1 0x20 DUP3 ADD SWAP1 POP SWAP2 SWAP1 POP JUMP JUMPDEST PUSH1 0x40 DUP3 ADD PUSH0 DUP3 ADD MLOAD PUSH2 0x2BEC PUSH0 DUP6 ADD DUP3 PUSH2 0x2A01 JUMP JUMPDEST POP PUSH1 0x20 DUP3 ADD MLOAD PUSH2 0x2BFF PUSH1 0x20 DUP6 ADD DUP3 PUSH2 0x2AF4 JUMP JUMPDEST POP POP POP POP JUMP JUMPDEST PUSH0 PUSH2 0x2C10 DUP4 DUP4 PUSH2 0x2BD8 JUMP JUMPDEST PUSH1 0x40 DUP4 ADD SWAP1 POP SWAP3 SWAP2 POP POP JUMP JUMPDEST PUSH0 PUSH1 0x20 DUP3 ADD SWAP1 POP SWAP2 SWAP1 POP JUMP JUMPDEST PUSH0 PUSH2 0x2C32 DUP3 PUSH2 0x2BAF JUMP JUMPDEST PUSH2 0x2C3C DUP2 DUP6 PUSH2 0x2BB9 JUMP JUMPDEST SWAP4 POP PUSH2 0x2C47 DUP4 PUSH2 0x2BC9 JUMP JUMPDEST DUP1 PUSH0 JUMPDEST DUP4 DUP2 LT ISZERO PUSH2 0x2C77 JUMPI DUP2 MLOAD PUSH2 0x2C5E DUP9 DUP3 PUSH2 0x2C05 JUMP JUMPDEST SWAP8 POP PUSH2 0x2C69 DUP4 PUSH2 0x2C1C JUMP JUMPDEST SWAP3 POP POP PUSH1 0x1 DUP2 ADD SWAP1 POP PUSH2 0x2C4A JUMP JUMPDEST POP DUP6 SWAP4 POP POP POP POP SWAP3 SWAP2 POP POP JUMP JUMPDEST PUSH0 PUSH1 0xC0 DUP3 ADD SWAP1 POP DUP2 DUP2 SUB PUSH0 DUP4 ADD MSTORE PUSH2 0x2C9C DUP2 DUP10 PUSH2 0x2A6F JUMP JUMPDEST SWAP1 POP DUP2 DUP2 SUB PUSH1 0x20 DUP4 ADD MSTORE PUSH2 0x2CB0 DUP2 DUP9 PUSH2 0x2B53 JUMP JUMPDEST SWAP1 POP PUSH2 0x2CBF PUSH1 0x40 DUP4 ADD DUP8 PUSH2 0x1C91 JUMP JUMPDEST PUSH2 0x2CCC PUSH1 0x60 DUP4 ADD DUP7 PUSH2 0x1F12 JUMP JUMPDEST PUSH2 0x2CD9 PUSH1 0x80 DUP4 ADD DUP6 PUSH2 0x1F12 JUMP JUMPDEST DUP2 DUP2 SUB PUSH1 0xA0 DUP4 ADD MSTORE PUSH2 0x2CEB DUP2 DUP5 PUSH2 0x2C28 JUMP JUMPDEST SWAP1 POP SWAP8 SWAP7 POP POP POP POP POP POP POP JUMP JUMPDEST PUSH32 0x457466526F757465723A20696E646578207072696365206973207A65726F0000 PUSH0 DUP3 ADD MSTORE POP JUMP JUMPDEST PUSH0 PUSH2 0x2D2C PUSH1 0x1E DUP4 PUSH2 0x1DE6 JUMP JUMPDEST SWAP2 POP PUSH2 0x2D37 DUP3 PUSH2 0x2CF8 JUMP JUMPDEST PUSH1 0x20 DUP3 ADD SWAP1 POP SWAP2 SWAP1 POP JUMP JUMPDEST PUSH0 PUSH1 0x20 DUP3 ADD SWAP1 POP DUP2 DUP2 SUB PUSH0 DUP4 ADD MSTORE PUSH2 0x2D59 DUP2 PUSH2 0x2D20 JUMP JUMPDEST SWAP1 POP SWAP2 SWAP1 POP JUMP JUMPDEST PUSH32 0x457466526F757465723A204E4156206973207A65726F00000000000000000000 PUSH0 DUP3 ADD MSTORE POP JUMP JUMPDEST PUSH0 PUSH2 0x2D94 PUSH1 0x16 DUP4 PUSH2 0x1DE6 JUMP JUMPDEST SWAP2 POP PUSH2 0x2D9F DUP3 PUSH2 0x2D60 JUMP JUMPDEST PUSH1 0x20 DUP3 ADD SWAP1 POP SWAP2 SWAP1 POP JUMP JUMPDEST PUSH0 PUSH1 0x20 DUP3 ADD SWAP1 POP DUP2 DUP2 SUB PUSH0 DUP4 ADD MSTORE PUSH2 0x2DC1 DUP2 PUSH2 0x2D88 JUMP JUMPDEST SWAP1 POP SWAP2 SWAP1 POP JUMP JUMPDEST PUSH32 0x4469726563746F72792063616E6E6F74206265207A65726F2061646472657373 PUSH0 DUP3 ADD MSTORE POP JUMP JUMPDEST PUSH0 PUSH2 0x2DFC PUSH1 0x20 DUP4 PUSH2 0x1DE6 JUMP JUMPDEST SWAP2 POP PUSH2 0x2E07 DUP3 PUSH2 0x2DC8 JUMP JUMPDEST PUSH1 0x20 DUP3 ADD SWAP1 POP SWAP2 SWAP1 POP JUMP JUMPDEST PUSH0 PUSH1 0x20 DUP3 ADD SWAP1 POP DUP2 DUP2 SUB PUSH0 DUP4 ADD MSTORE PUSH2 0x2E29 DUP2 PUSH2 0x2DF0 JUMP JUMPDEST SWAP1 POP SWAP2 SWAP1 POP JUMP JUMPDEST PUSH32 0x4469726563746F7279206D757374206265206120636F6E747261637400000000 PUSH0 DUP3 ADD MSTORE POP JUMP JUMPDEST PUSH0 PUSH2 0x2E64 PUSH1 0x1C DUP4 PUSH2 0x1DE6 JUMP JUMPDEST SWAP2 POP PUSH2 0x2E6F DUP3 PUSH2 0x2E30 JUMP JUMPDEST PUSH1 0x20 DUP3 ADD SWAP1 POP SWAP2 SWAP1 POP JUMP JUMPDEST PUSH0 PUSH1 0x20 DUP3 ADD SWAP1 POP DUP2 DUP2 SUB PUSH0 DUP4 ADD MSTORE PUSH2 0x2E91 DUP2 PUSH2 0x2E58 JUMP JUMPDEST SWAP1 POP SWAP2 SWAP1 POP JUMP JUMPDEST PUSH32 0x4469726563746F7279206164647265737320646F6573206E6F7420696D706C65 PUSH0 DUP3 ADD MSTORE PUSH32 0x6D656E74206F776E657228290000000000000000000000000000000000000000 PUSH1 0x20 DUP3 ADD MSTORE POP JUMP JUMPDEST PUSH0 PUSH2 0x2EF2 PUSH1 0x2C DUP4 PUSH2 0x1DE6 JUMP JUMPDEST SWAP2 POP PUSH2 0x2EFD DUP3 PUSH2 0x2E98 JUMP JUMPDEST PUSH1 0x40 DUP3 ADD SWAP1 POP SWAP2 SWAP1 POP JUMP JUMPDEST PUSH0 PUSH1 0x20 DUP3 ADD SWAP1 POP DUP2 DUP2 SUB PUSH0 DUP4 ADD MSTORE PUSH2 0x2F1F DUP2 PUSH2 0x2EE6 JUMP JUMPDEST SWAP1 POP SWAP2 SWAP1 POP JUMP JUMPDEST PUSH0 PUSH1 0x40 DUP3 ADD SWAP1 POP PUSH2 0x2F39 PUSH0 DUP4 ADD DUP6 PUSH2 0x1C91 JUMP JUMPDEST PUSH2 0x2F46 PUSH1 0x20 DUP4 ADD DUP5 PUSH2 0x1C91 JUMP JUMPDEST SWAP4 SWAP3 POP POP POP JUMP JUMPDEST PUSH0 DUP2 SWAP1 POP SWAP2 SWAP1 POP JUMP JUMPDEST PUSH0 PUSH2 0x2F70 PUSH2 0x2F6B PUSH2 0x2F66 DUP5 PUSH2 0x2F4D JUMP JUMPDEST PUSH2 0x1CB9 JUMP JUMPDEST PUSH2 0x19F9 JUMP JUMPDEST SWAP1 POP SWAP2 SWAP1 POP JUMP JUMPDEST PUSH2 0x2F80 DUP2 PUSH2 0x2F56 JUMP JUMPDEST DUP3 MSTORE POP POP JUMP JUMPDEST PUSH0 PUSH1 0x40 DUP3 ADD SWAP1 POP PUSH2 0x2F99 PUSH0 DUP4 ADD DUP6 PUSH2 0x1C91 JUMP JUMPDEST PUSH2 0x2FA6 PUSH1 0x20 DUP4 ADD DUP5 PUSH2 0x2F77 JUMP JUMPDEST SWAP4 SWAP3 POP POP POP JUMP JUMPDEST PUSH0 DUP2 ISZERO ISZERO SWAP1 POP SWAP2 SWAP1 POP JUMP JUMPDEST PUSH2 0x2FC1 DUP2 PUSH2 0x2FAD JUMP JUMPDEST DUP2 EQ PUSH2 0x2FCB JUMPI PUSH0 PUSH0 REVERT JUMPDEST POP JUMP JUMPDEST PUSH0 DUP2 MLOAD SWAP1 POP PUSH2 0x2FDC DUP2 PUSH2 0x2FB8 JUMP JUMPDEST SWAP3 SWAP2 POP POP JUMP JUMPDEST PUSH0 PUSH1 0x20 DUP3 DUP5 SUB SLT ISZERO PUSH2 0x2FF7 JUMPI PUSH2 0x2FF6 PUSH2 0x19F1 JUMP JUMPDEST JUMPDEST PUSH0 PUSH2 0x3004 DUP5 DUP3 DUP6 ADD PUSH2 0x2FCE JUMP JUMPDEST SWAP2 POP POP SWAP3 SWAP2 POP POP JUMP INVALID LOG2 PUSH5 0x6970667358 0x22 SLT KECCAK256 MULMOD PUSH29 0xF149E5FA7E2597ED35CD9E1E7BC928A225FFAD5B862EA95D883A52FFD6 0xA7 PUSH5 0x736F6C6343 STOP ADDMOD 0x1E STOP CALLER "
		},
		"gasEstimates": {
			"creation": {
				"codeDepositCost": "2471000",
				"executionCost": "infinite",
				"totalCost": "infinite"
			},
			"external": {
				"Directory()": "infinite",
				"buy(uint256,address,uint256,uint256)": "infinite",
				"changeDirectoryAddress(address)": "infinite",
				"fetchFromDirectory(string)": "infinite",
				"owner()": "infinite",
				"sell(uint256,uint256,address,uint256,uint256)": "infinite"
			}
		},
		"methodIdentifiers": {
			"Directory()": "658a847a",
			"buy(uint256,address,uint256,uint256)": "706910ff",
			"changeDirectoryAddress(address)": "ba4c7be1",
			"fetchFromDirectory(string)": "27262618",
			"owner()": "8da5cb5b",
			"sell(uint256,uint256,address,uint256,uint256)": "16274921"
		}
	},
	"abi": [
		{
			"inputs": [
				{
					"internalType": "address",
					"name": "_directory",
					"type": "address"
				}
			],
			"stateMutability": "nonpayable",
			"type": "constructor"
		},
		{
			"anonymous": false,
			"inputs": [
				{
					"indexed": false,
					"internalType": "uint256",
					"name": "indexId",
					"type": "uint256"
				},
				{
					"indexed": false,
					"internalType": "address",
					"name": "caller",
					"type": "address"
				},
				{
					"indexed": false,
					"internalType": "address",
					"name": "receiver",
					"type": "address"
				},
				{
					"indexed": false,
					"internalType": "uint256",
					"name": "tokenAmount",
					"type": "uint256"
				},
				{
					"indexed": false,
					"internalType": "uint256",
					"name": "ethAmount",
					"type": "uint256"
				}
			],
			"name": "Buy",
			"type": "event"
		},
		{
			"anonymous": false,
			"inputs": [
				{
					"indexed": false,
					"internalType": "uint256",
					"name": "indexId",
					"type": "uint256"
				},
				{
					"indexed": false,
					"internalType": "address",
					"name": "caller",
					"type": "address"
				},
				{
					"indexed": false,
					"internalType": "address",
					"name": "receiver",
					"type": "address"
				},
				{
					"indexed": false,
					"internalType": "uint256",
					"name": "tokenAmount",
					"type": "uint256"
				},
				{
					"indexed": false,
					"internalType": "uint256",
					"name": "ethAmount",
					"type": "uint256"
				}
			],
			"name": "Sell",
			"type": "event"
		},
		{
			"inputs": [],
			"name": "Directory",
			"outputs": [
				{
					"internalType": "contract IDirectory",
					"name": "",
					"type": "address"
				}
			],
			"stateMutability": "view",
			"type": "function"
		},
		{
			"inputs": [
				{
					"internalType": "uint256",
					"name": "indexId",
					"type": "uint256"
				},
				{
					"internalType": "address",
					"name": "receiver",
					"type": "address"
				},
				{
					"internalType": "uint256",
					"name": "slippageBips",
					"type": "uint256"
				},
				{
					"internalType": "uint256",
					"name": "deadlineInSec",
					"type": "uint256"
				}
			],
			"name": "buy",
			"outputs": [],
			"stateMutability": "payable",
			"type": "function"
		},
		{
			"inputs": [
				{
					"internalType": "address",
					"name": "_directory",
					"type": "address"
				}
			],
			"name": "changeDirectoryAddress",
			"outputs": [],
			"stateMutability": "nonpayable",
			"type": "function"
		},
		{
			"inputs": [
				{
					"internalType": "string",
					"name": "_key",
					"type": "string"
				}
			],
			"name": "fetchFromDirectory",
			"outputs": [
				{
					"internalType": "address",
					"name": "",
					"type": "address"
				}
			],
			"stateMutability": "view",
			"type": "function"
		},
		{
			"inputs": [],
			"name": "owner",
			"outputs": [
				{
					"internalType": "address",
					"name": "",
					"type": "address"
				}
			],
			"stateMutability": "view",
			"type": "function"
		},
		{
			"inputs": [
				{
					"internalType": "uint256",
					"name": "indexId",
					"type": "uint256"
				},
				{
					"internalType": "uint256",
					"name": "sellTokenAmount",
					"type": "uint256"
				},
				{
					"internalType": "address payable",
					"name": "receiver",
					"type": "address"
				},
				{
					"internalType": "uint256",
					"name": "slippageBips",
					"type": "uint256"
				},
				{
					"internalType": "uint256",
					"name": "deadlineInSec",
					"type": "uint256"
				}
			],
			"name": "sell",
			"outputs": [],
			"stateMutability": "nonpayable",
			"type": "function"
		}
	]
}