{
	"data": {
		"bytecode": {
			"linkReferences": {},
			"object": "608060405260018060146101000a81548160ff0219169083151502179055506019600160156101000a81548161ffff021916908361ffff16021790555061012c600160176101000a81548163ffffffff021916908363ffffffff16021790555034801561006a575f5ffd5b5060405161619c38038061619c833981810160405281019061008c91906102ba565b8060015f819055506100a3816100aa60201b60201c565b5050610453565b5f73ffffffffffffffffffffffffffffffffffffffff168173ffffffffffffffffffffffffffffffffffffffff1603610118576040517f08c379a000000000000000000000000000000000000000000000000000000000815260040161010f9061033f565b60405180910390fd5b5f8173ffffffffffffffffffffffffffffffffffffffff163b11610171576040517f08c379a0000000000000000000000000000000000000000000000000000000008152600401610168906103a7565b60405180910390fd5b8073ffffffffffffffffffffffffffffffffffffffff16638da5cb5b6040518163ffffffff1660e01b8152600401602060405180830381865afa9250505080156101d957506040513d601f19601f820116820180604052508101906101d691906102ba565b60015b610218576040517f08c379a000000000000000000000000000000000000000000000000000000000815260040161020f90610435565b60405180910390fd5b8160015f6101000a81548173ffffffffffffffffffffffffffffffffffffffff021916908373ffffffffffffffffffffffffffffffffffffffff1602179055505050565b5f5ffd5b5f73ffffffffffffffffffffffffffffffffffffffff82169050919050565b5f61028982610260565b9050919050565b6102998161027f565b81146102a3575f5ffd5b50565b5f815190506102b481610290565b92915050565b5f602082840312156102cf576102ce61025c565b5b5f6102dc848285016102a6565b91505092915050565b5f82825260208201905092915050565b7f4469726563746f72792063616e6e6f74206265207a65726f20616464726573735f82015250565b5f6103296020836102e5565b9150610334826102f5565b602082019050919050565b5f6020820190508181035f8301526103568161031d565b9050919050565b7f4469726563746f7279206d757374206265206120636f6e7472616374000000005f82015250565b5f610391601c836102e5565b915061039c8261035d565b602082019050919050565b5f6020820190508181035f8301526103be81610385565b9050919050565b7f4469726563746f7279206164647265737320646f6573206e6f7420696d706c655f8201527f6d656e74206f776e657228290000000000000000000000000000000000000000602082015250565b5f61041f602c836102e5565b915061042a826103c5565b604082019050919050565b5f6020820190508181035f83015261044c81610413565b9050919050565b615d3c806104605f395ff3fe6080604052600436106100e0575f3560e01c80638da5cb5b1161007e578063ba4c7be111610058578063ba4c7be11461028d578063bb3367bd146102b5578063e220d0de146102dd578063f499301814610305576100e7565b80638da5cb5b14610213578063acec338a1461023d578063b42c078214610265576100e7565b806325c006f9116100ba57806325c006f914610167578063272626181461018357806334fbc9a1146101bf578063658a847a146101e9576100e7565b80630650b0fc146100eb57806309053ac41461011557806322f3e2d41461013d576100e7565b366100e757005b5f5ffd5b3480156100f6575f5ffd5b506100ff61032d565b60405161010c9190614414565b60405180910390f35b348015610120575f5ffd5b5061013b60048036038101906101369190614498565b610343565b005b348015610148575f5ffd5b5061015161044c565b60405161015e91906144f0565b60405180910390f35b610181600480360381019061017c919061453c565b61045f565b005b34801561018e575f5ffd5b506101a960048036038101906101a491906146b6565b610611565b6040516101b6919061470c565b60405180910390f35b3480156101ca575f5ffd5b506101d36106b2565b6040516101e09190614741565b60405180910390f35b3480156101f4575f5ffd5b506101fd6106c6565b60405161020a91906147b5565b60405180910390f35b34801561021e575f5ffd5b506102276106eb565b604051610234919061470c565b60405180910390f35b348015610248575f5ffd5b50610263600480360381019061025e91906147f8565b61077f565b005b348015610270575f5ffd5b5061028b6004803603810190610286919061484d565b610897565b005b348015610298575f5ffd5b506102b360048036038101906102ae9190614878565b610a41565b005b3480156102c0575f5ffd5b506102db60048036038101906102d691906148cd565b610b48565b005b3480156102e8575f5ffd5b5061030360048036038101906102fe9190614933565b610ca9565b005b348015610310575f5ffd5b5061032b60048036038101906103269190614983565b610e53565b005b600160179054906101000a900463ffffffff1681565b60015f9054906101000a900473ffffffffffffffffffffffffffffffffffffffff1673ffffffffffffffffffffffffffffffffffffffff16638da5cb5b6040518163ffffffff1660e01b8152600401602060405180830381865afa1580156103ad573d5f5f3e3d5ffd5b505050506040513d601f19601f820116820180604052508101906103d191906149c2565b73ffffffffffffffffffffffffffffffffffffffff163373ffffffffffffffffffffffffffffffffffffffff161461043e576040517f08c379a000000000000000000000000000000000000000000000000000000000815260040161043590614a47565b60405180910390fd5b6104488282610f5d565b5050565b600160149054906101000a900460ff1681565b610467610f6b565b600160149054906101000a900460ff166104b6576040517f08c379a00000000000000000000000000000000000000000000000000000000081526004016104ad90614aaf565b60405180910390fd5b5f34036104ef576040517f1f2a200500000000000000000000000000000000000000000000000000000000815260040160405180910390fd5b5f73ffffffffffffffffffffffffffffffffffffffff168173ffffffffffffffffffffffffffffffffffffffff1603610554576040517f6ba9ecd800000000000000000000000000000000000000000000000000000000815260040160405180910390fd5b5f5f5f61055f610fb8565b73ffffffffffffffffffffffffffffffffffffffff166361668690866040518263ffffffff1660e01b81526004016105979190614adc565b5f60405180830381865afa1580156105b1573d5f5f3e3d5ffd5b505050506040513d5f823e3d601f19601f820116820180604052508101906105d99190614d53565b9250925092506105ec8584848488610ffc565b50506105f733611403565b61060285848361141e565b50505061060d6115c2565b5050565b5f60015f9054906101000a900473ffffffffffffffffffffffffffffffffffffffff1673ffffffffffffffffffffffffffffffffffffffff166327262618836040518263ffffffff1660e01b815260040161066c9190614e01565b602060405180830381865afa158015610687573d5f5f3e3d5ffd5b505050506040513d601f19601f820116820180604052508101906106ab91906149c2565b9050919050565b600160159054906101000a900461ffff1681565b60015f9054906101000a900473ffffffffffffffffffffffffffffffffffffffff1681565b5f60015f9054906101000a900473ffffffffffffffffffffffffffffffffffffffff1673ffffffffffffffffffffffffffffffffffffffff16638da5cb5b6040518163ffffffff1660e01b8152600401602060405180830381865afa158015610756573d5f5f3e3d5ffd5b505050506040513d601f19601f8201168201806040525081019061077a91906149c2565b905090565b60015f9054906101000a900473ffffffffffffffffffffffffffffffffffffffff1673ffffffffffffffffffffffffffffffffffffffff16638da5cb5b6040518163ffffffff1660e01b8152600401602060405180830381865afa1580156107e9573d5f5f3e3d5ffd5b505050506040513d601f19601f8201168201806040525081019061080d91906149c2565b73ffffffffffffffffffffffffffffffffffffffff163373ffffffffffffffffffffffffffffffffffffffff161461087a576040517f08c379a000000000000000000000000000000000000000000000000000000000815260040161087190614a47565b60405180910390fd5b80600160146101000a81548160ff02191690831515021790555050565b60015f9054906101000a900473ffffffffffffffffffffffffffffffffffffffff1673ffffffffffffffffffffffffffffffffffffffff16638da5cb5b6040518163ffffffff1660e01b8152600401602060405180830381865afa158015610901573d5f5f3e3d5ffd5b505050506040513d601f19601f8201168201806040525081019061092591906149c2565b73ffffffffffffffffffffffffffffffffffffffff163373ffffffffffffffffffffffffffffffffffffffff1614610992576040517f08c379a000000000000000000000000000000000000000000000000000000000815260040161098990614a47565b60405180910390fd5b600160149054906101000a900460ff166109e1576040517f08c379a00000000000000000000000000000000000000000000000000000000081526004016109d890614aaf565b60405180910390fd5b6127108161ffff161115610a21576040517fdeaa01e600000000000000000000000000000000000000000000000000000000815260040160405180910390fd5b80600160156101000a81548161ffff021916908361ffff16021790555050565b60015f9054906101000a900473ffffffffffffffffffffffffffffffffffffffff1673ffffffffffffffffffffffffffffffffffffffff16638da5cb5b6040518163ffffffff1660e01b8152600401602060405180830381865afa158015610aab573d5f5f3e3d5ffd5b505050506040513d601f19601f82011682018060405250810190610acf91906149c2565b73ffffffffffffffffffffffffffffffffffffffff163373ffffffffffffffffffffffffffffffffffffffff1614610b3c576040517f08c379a0000000000000000000000000000000000000000000000000000000008152600401610b3390614a47565b60405180910390fd5b610b45816115cb565b50565b60015f9054906101000a900473ffffffffffffffffffffffffffffffffffffffff1673ffffffffffffffffffffffffffffffffffffffff16638da5cb5b6040518163ffffffff1660e01b8152600401602060405180830381865afa158015610bb2573d5f5f3e3d5ffd5b505050506040513d601f19601f82011682018060405250810190610bd691906149c2565b73ffffffffffffffffffffffffffffffffffffffff163373ffffffffffffffffffffffffffffffffffffffff1614610c43576040517f08c379a0000000000000000000000000000000000000000000000000000000008152600401610c3a90614a47565b60405180910390fd5b6127108163ffffffff161115610c85576040517fdeaa01e600000000000000000000000000000000000000000000000000000000815260040160405180910390fd5b80600160176101000a81548163ffffffff021916908363ffffffff16021790555050565b610cb1610f6b565b600160149054906101000a900460ff16610d00576040517f08c379a0000000000000000000000000000000000000000000000000000000008152600401610cf790614aaf565b60405180910390fd5b5f8203610d39576040517f1f2a200500000000000000000000000000000000000000000000000000000000815260040160405180910390fd5b5f73ffffffffffffffffffffffffffffffffffffffff168173ffffffffffffffffffffffffffffffffffffffff1603610d9e576040517f6ba9ecd800000000000000000000000000000000000000000000000000000000815260040160405180910390fd5b5f5f5f610da9610fb8565b73ffffffffffffffffffffffffffffffffffffffff166361668690876040518263ffffffff1660e01b8152600401610de19190614adc565b5f60405180830381865afa158015610dfb573d5f5f3e3d5ffd5b505050506040513d5f823e3d601f19601f82011682018060405250810190610e239190614d53565b925092509250610e3786848484898961177d565b50610e4386848361141e565b505050610e4e6115c2565b505050565b610e5b610f6b565b600160149054906101000a900460ff16610eaa576040517f08c379a0000000000000000000000000000000000000000000000000000000008152600401610ea190614aaf565b60405180910390fd5b5f5f610eb4610fb8565b73ffffffffffffffffffffffffffffffffffffffff16633088f069846040518263ffffffff1660e01b8152600401610eec9190614adc565b5f60405180830381865afa158015610f06573d5f5f3e3d5ffd5b505050506040513d5f823e3d601f19601f82011682018060405250810190610f2e9190614e21565b91509150610f3c8282611a7d565b610f4533611403565b610f5083838361141e565b5050610f5a6115c2565b50565b610f678282611d65565b5050565b60025f5403610faf576040517f08c379a0000000000000000000000000000000000000000000000000000000008152600401610fa690614ec5565b60405180910390fd5b60025f81905550565b5f610ff76040518060400160405280600b81526020017f6574662d666163746f7279000000000000000000000000000000000000000000815250610611565b905090565b5f5f5f61100834611e3c565b90505f5f611014611f31565b73ffffffffffffffffffffffffffffffffffffffff1663ee0d96c58a896040518363ffffffff1660e01b815260040161104e929190615079565b5f60405180830381865afa158015611068573d5f5f3e3d5ffd5b505050506040513d5f823e3d601f19601f82011682018060405250810190611090919061524e565b915091505f8873ffffffffffffffffffffffffffffffffffffffff166318160ddd6040518163ffffffff1660e01b8152600401602060405180830381865afa1580156110de573d5f5f3e3d5ffd5b505050506040513d601f19601f8201168201806040525081019061110291906152a8565b90505f6111118b868686611f75565b905061111b6126a6565b73ffffffffffffffffffffffffffffffffffffffff16631623306b86838c600160179054906101000a900463ffffffff166040518563ffffffff1660e01b815260040161116a939291906153a8565b5f604051808303818588803b158015611181575f5ffd5b505af1158015611193573d5f5f3e3d5ffd5b50505050505f6111a1611f31565b73ffffffffffffffffffffffffffffffffffffffff1663ee0d96c58d8c6040518363ffffffff1660e01b81526004016111db929190615079565b5f60405180830381865afa1580156111f5573d5f5f3e3d5ffd5b505050506040513d5f823e3d601f19601f8201168201806040525081019061121d919061524e565b915050838111611259576040517f55be5c2c00000000000000000000000000000000000000000000000000000000815260040160405180910390fd5b83816112659190615411565b96505f8303611344575f611277611f31565b73ffffffffffffffffffffffffffffffffffffffff1663812efc8e8f6040518263ffffffff1660e01b81526004016112af9190614adc565b602060405180830381865afa1580156112ca573d5f5f3e3d5ffd5b505050506040513d601f19601f820116820180604052508101906112ee91906152a8565b90505f8103611329576040517f5255248e00000000000000000000000000000000000000000000000000000000815260040160405180910390fd5b61133c88670de0b6b3a7640000836126ea565b985050611352565b61134f8784866126ea565b97505b5f880361138b576040517ffcc182f400000000000000000000000000000000000000000000000000000000815260040160405180910390fd5b8a73ffffffffffffffffffffffffffffffffffffffff166340c10f198a8a6040518363ffffffff1660e01b81526004016113c6929190615444565b5f604051808303815f87803b1580156113dd575f5ffd5b505af11580156113ef573d5f5f3e3d5ffd5b505050505050505050509550959350505050565b5f4790505f81111561141a5761141982826127f4565b5b5050565b5f82604001515190505f8167ffffffffffffffff81111561144257611441614592565b5b60405190808252806020026020018201604052801561147b57816020015b61146861430e565b8152602001906001900390816114605790505b5090505f5f90505b82811015611581575f856040015182815181106114a3576114a261546b565b5b60200260200101515f015190505f8173ffffffffffffffffffffffffffffffffffffffff166370a08231876040518263ffffffff1660e01b81526004016114ea919061470c565b602060405180830381865afa158015611505573d5f5f3e3d5ffd5b505050506040513d601f19601f8201168201806040525081019061152991906152a8565b905060405180604001604052808373ffffffffffffffffffffffffffffffffffffffff168152602001828152508484815181106115695761156861546b565b5b60200260200101819052508260010192505050611483565b507f8d3365949f9a612ea706c5f1c4ddfe54d1f631d8557335914d89cd775a792cda85826040516115b392919061557c565b60405180910390a15050505050565b60015f81905550565b5f73ffffffffffffffffffffffffffffffffffffffff168173ffffffffffffffffffffffffffffffffffffffff1603611639576040517f08c379a0000000000000000000000000000000000000000000000000000000008152600401611630906155f4565b60405180910390fd5b5f8173ffffffffffffffffffffffffffffffffffffffff163b11611692576040517f08c379a00000000000000000000000000000000000000000000000000000000081526004016116899061565c565b60405180910390fd5b8073ffffffffffffffffffffffffffffffffffffffff16638da5cb5b6040518163ffffffff1660e01b8152600401602060405180830381865afa9250505080156116fa57506040513d601f19601f820116820180604052508101906116f791906149c2565b60015b611739576040517f08c379a0000000000000000000000000000000000000000000000000000000008152600401611730906156ea565b60405180910390fd5b8160015f6101000a81548173ffffffffffffffffffffffffffffffffffffffff021916908373ffffffffffffffffffffffffffffffffffffffff1602179055505050565b5f5f8573ffffffffffffffffffffffffffffffffffffffff166318160ddd6040518163ffffffff1660e01b8152600401602060405180830381865afa1580156117c8573d5f5f3e3d5ffd5b505050506040513d601f19601f820116820180604052508101906117ec91906152a8565b90505f8103611827576040517f9fbba64f00000000000000000000000000000000000000000000000000000000815260040160405180910390fd5b5f611830611f31565b73ffffffffffffffffffffffffffffffffffffffff1663812efc8e8a6040518263ffffffff1660e01b81526004016118689190614adc565b602060405180830381865afa158015611883573d5f5f3e3d5ffd5b505050506040513d601f19601f820116820180604052508101906118a791906152a8565b90505f81036118e2576040517f5255248e00000000000000000000000000000000000000000000000000000000815260040160405180910390fd5b5f6118f68683670de0b6b3a76400006126ea565b90508773ffffffffffffffffffffffffffffffffffffffff16639dc29fac33886040518363ffffffff1660e01b8152600401611933929190615444565b5f604051808303815f87803b15801561194a575f5ffd5b505af115801561195c573d5f5f3e3d5ffd5b505050505f61196c8a898461290b565b90505f47905061197a6126a6565b73ffffffffffffffffffffffffffffffffffffffff16633814bc6e8330600160179054906101000a900463ffffffff1660016040518563ffffffff1660e01b81526004016119cb94939291906157ec565b5f604051808303815f87803b1580156119e2575f5ffd5b505af11580156119f4573d5f5f3e3d5ffd5b505050505f4790505f828211611a0a575f611a17565b8282611a169190615411565b5b90505f8103611a52576040517f1f2a200500000000000000000000000000000000000000000000000000000000815260040160405180910390fd5b5f611a5c82611e3c565b9050611a688a826127f4565b80985050505050505050509695505050505050565b5f5f611a89848461386d565b915091505f611a966126a6565b90505f4790505f5f90505b83811015611b59578573ffffffffffffffffffffffffffffffffffffffff16635c833bfd868381518110611ad857611ad761546b565b5b60200260200101515f0151878481518110611af657611af561546b565b5b602002602001015160200151866040518463ffffffff1660e01b8152600401611b2193929190615836565b5f604051808303815f87803b158015611b38575f5ffd5b505af1158015611b4a573d5f5f3e3d5ffd5b50505050806001019050611aa1565b50611b626126a6565b73ffffffffffffffffffffffffffffffffffffffff16633814bc6e8530600160179054906101000a900463ffffffff1660016040518563ffffffff1660e01b8152600401611bb394939291906157ec565b5f604051808303815f87803b158015611bca575f5ffd5b505af1158015611bdc573d5f5f3e3d5ffd5b505050505f4790505f828211611bf2575f611bff565b8282611bfe9190615411565b5b90505f8103611c3a576040517f1f2a200500000000000000000000000000000000000000000000000000000000815260040160405180910390fd5b5f5f611c44611f31565b73ffffffffffffffffffffffffffffffffffffffff1663ee0d96c58b8b6040518363ffffffff1660e01b8152600401611c7e929190615079565b5f60405180830381865afa158015611c98573d5f5f3e3d5ffd5b505050506040513d5f823e3d601f19601f82011682018060405250810190611cc0919061524e565b915091505f611cd18b858585611f75565b9050611cdb6126a6565b73ffffffffffffffffffffffffffffffffffffffff16631623306b85838d600160179054906101000a900463ffffffff166040518563ffffffff1660e01b8152600401611d2a939291906153a8565b5f604051808303818588803b158015611d41575f5ffd5b505af1158015611d53573d5f5f3e3d5ffd5b50505050505050505050505050505050565b5f73ffffffffffffffffffffffffffffffffffffffff168273ffffffffffffffffffffffffffffffffffffffff1603611da757611da281476127f4565b611e38565b5f8273ffffffffffffffffffffffffffffffffffffffff166370a08231306040518263ffffffff1660e01b8152600401611de1919061470c565b602060405180830381865afa158015611dfc573d5f5f3e3d5ffd5b505050506040513d601f19601f82011682018060405250810190611e2091906152a8565b90505f811115611e3657611e35838383613c90565b5b505b5050565b5f5f611e7c6040518060400160405280600581526020017f7661756c74000000000000000000000000000000000000000000000000000000815250610611565b90505f600160159054906101000a900461ffff1690505f73ffffffffffffffffffffffffffffffffffffffff168273ffffffffffffffffffffffffffffffffffffffff161480611ecf57505f8161ffff16145b15611ede578392505050611f2c565b5f6127108261ffff1686611ef2919061586b565b611efc91906158d9565b90505f8114611f2557611f0f83826127f4565b8085611f1b9190615411565b9350505050611f2c565b8493505050505b919050565b5f611f706040518060400160405280600a81526020017f6574662d6f7261636c6500000000000000000000000000000000000000000000815250610611565b905090565b60605f8483611f849190615909565b90505f86604001515190505f8167ffffffffffffffff811115611faa57611fa9614592565b5b604051908082528060200260200182016040528015611fd85781602001602082028036833780820191505090505b5090505f8267ffffffffffffffff811115611ff657611ff5614592565b5b6040519080825280602002602001820160405280156120245781602001602082028036833780820191505090505b5090505f5f5f5f90505b8581101561215f575f612710888e6040015184815181106120525761205161546b565b5b60200260200101516020015161ffff1661206c919061586b565b61207691906158d9565b90505f8b838151811061208c5761208b61546b565b5b602002602001015160a00151905080821115612152575f81836120af9190615411565b90508c84815181106120c4576120c361546b565b5b60200260200101515f01518887815181106120e2576120e161546b565b5b602002602001019073ffffffffffffffffffffffffffffffffffffffff16908173ffffffffffffffffffffffffffffffffffffffff1681525050808787815181106121305761212f61546b565b5b60200260200101818152505080856121489190615909565b9450856001019550505b826001019250505061202e565b505f82036123d9575f8567ffffffffffffffff81111561218257612181614592565b5b6040519080825280602002602001820160405280156121b05781602001602082028036833780820191505090505b5090505f8667ffffffffffffffff8111156121ce576121cd614592565b5b6040519080825280602002602001820160405280156121fc5781602001602082028036833780820191505090505b5090505f5f90505b8781101561225d578d6040015181815181106122235761222261546b565b5b60200260200101516020015161ffff168282815181106122465761224561546b565b5b602002602001018181525050806001019050612204565b5061226a81612710613ddf565b9150508567ffffffffffffffff81111561228757612286614592565b5b6040519080825280602002602001820160405280156122c057816020015b6122ad61433c565b8152602001906001900390816122a55790505b5097505f5f5f90505b878110156123905760405180604001604052808d83815181106122ef576122ee61546b565b5b60200260200101515f015173ffffffffffffffffffffffffffffffffffffffff1681526020018483815181106123285761232761546b565b5b602002602001015161ffff168152508a828151811061234a5761234961546b565b5b60200260200101819052508981815181106123685761236761546b565b5b60200260200101516020015161ffff16826123839190615909565b91508060010190506122c9565b5061271081146123cc576040517fdeaa01e600000000000000000000000000000000000000000000000000000000815260040160405180910390fd5b505050505050505061269e565b5f8267ffffffffffffffff8111156123f4576123f3614592565b5b6040519080825280602002602001820160405280156124225781602001602082028036833780820191505090505b5090505f8367ffffffffffffffff8111156124405761243f614592565b5b60405190808252806020026020018201604052801561246e5781602001602082028036833780820191505090505b5090505f5f90505b8481101561252b578681815181106124915761249061546b565b5b60200260200101518382815181106124ac576124ab61546b565b5b602002602001019073ffffffffffffffffffffffffffffffffffffffff16908173ffffffffffffffffffffffffffffffffffffffff16815250508581815181106124f9576124f861546b565b5b60200260200101518282815181106125145761251361546b565b5b602002602001018181525050806001019050612476565b505f61253982612710613ddf565b90508467ffffffffffffffff81111561255557612554614592565b5b60405190808252806020026020018201604052801561258e57816020015b61257b61433c565b8152602001906001900390816125735790505b5099505f5f5f90505b868110156126575760405180604001604052808683815181106125bd576125bc61546b565b5b602002602001015173ffffffffffffffffffffffffffffffffffffffff1681526020018483815181106125f3576125f261546b565b5b602002602001015161ffff168152508c82815181106126155761261461546b565b5b60200260200101819052508281815181106126335761263261546b565b5b602002602001015161ffff168261264a9190615909565b9150806001019050612597565b506127108114612693576040517fdeaa01e600000000000000000000000000000000000000000000000000000000815260040160405180910390fd5b505050505050505050505b949350505050565b5f6126e56040518060400160405280601181526020017f6d756c74692d737761702d726f75746572000000000000000000000000000000815250610611565b905090565b5f5f5f5f198587098587029250828110838203039150505f810361272257838281612718576127176158ac565b5b04925050506127ed565b808411612764576040517f08c379a000000000000000000000000000000000000000000000000000000000815260040161275b90615986565b60405180910390fd5b5f8486880990508281118203915080830392505f60018619018616905080860495508084049350600181825f0304019050808302841793505f600287600302189050808702600203810290508087026002038102905080870260020381029050808702600203810290508087026002038102905080870260020381029050808502955050505050505b9392505050565b5f810361282d576040517f1f2a200500000000000000000000000000000000000000000000000000000000815260040160405180910390fd5b80471015612867576040517f6a12f10400000000000000000000000000000000000000000000000000000000815260040160405180910390fd5b5f8273ffffffffffffffffffffffffffffffffffffffff168260405161288c906159d1565b5f6040518083038185875af1925050503d805f81146128c6576040519150601f19603f3d011682016040523d82523d5f602084013e6128cb565b606091505b5050905080612906576040517fcef4eed700000000000000000000000000000000000000000000000000000000815260040160405180910390fd5b505050565b60605f5f612917611f31565b73ffffffffffffffffffffffffffffffffffffffff1663ee0d96c587876040518363ffffffff1660e01b8152600401612951929190615079565b5f60405180830381865afa15801561296b573d5f5f3e3d5ffd5b505050506040513d5f823e3d601f19601f82011682018060405250810190612993919061524e565b915091505f86604001515190506129a861436e565b8167ffffffffffffffff8111156129c2576129c1614592565b5b6040519080825280602002602001820160405280156129fb57816020015b6129e861438d565b8152602001906001900390816129e05790505b50815f01819052505f5f90505b8281108015612a1a5750868260400151105b15612c67575f612710858b604001518481518110612a3b57612a3a61546b565b5b60200260200101516020015161ffff16612a55919061586b565b612a5f91906158d9565b90505f868381518110612a7557612a7461546b565b5b60200260200101516080015190505f8114158015612ab0575081878481518110612aa257612aa161546b565b5b602002602001015160a00151115b15612c5a575f82888581518110612aca57612ac961546b565b5b602002602001015160a00151612ae09190615411565b90505f85604001518b612af39190615411565b90505f818310612b035781612b05565b825b90505f8114612c56575f612b44828c8981518110612b2657612b2561546b565b5b602002602001015160200151600a612b3e9190615b14565b876126ea565b90505f81148015612b7357505f8b8881518110612b6457612b6361546b565b5b60200260200101516060015114155b15612b7d57600190505b5f612bb382878e8b81518110612b9657612b9561546b565b5b602002602001015160200151600a612bae9190615b14565b6126ea565b90505f8114612c535760405180604001604052808d8a81518110612bda57612bd961546b565b5b60200260200101515f015173ffffffffffffffffffffffffffffffffffffffff16815260200183815250895f01518a6020018051809190612c1a90615b5e565b81525081518110612c2e57612c2d61546b565b5b60200260200101819052508089604001818151612c4b9190615909565b915081815250505b50505b5050505b8260010192505050612a08565b5085816040015110156136f0575f816040015187612c859190615411565b9050612c8f6143bb565b8367ffffffffffffffff811115612ca957612ca8614592565b5b604051908082528060200260200182016040528015612cd75781602001602082028036833780820191505090505b50815f01819052508367ffffffffffffffff811115612cf957612cf8614592565b5b604051908082528060200260200182016040528015612d275781602001602082028036833780820191505090505b5081602001819052508367ffffffffffffffff811115612d4a57612d49614592565b5b604051908082528060200260200182016040528015612d785781602001602082028036833780820191505090505b5081604001819052508367ffffffffffffffff811115612d9b57612d9a614592565b5b604051908082528060200260200182016040528015612dc95781602001602082028036833780820191505090505b5081606001819052508367ffffffffffffffff811115612dec57612deb614592565b5b604051908082528060200260200182016040528015612e1a5781602001602082028036833780820191505090505b5081608001819052505f5f90505b848110156130f8575f5f5f90505b8560200151811015612ec657888381518110612e5557612e5461546b565b5b60200260200101515f015173ffffffffffffffffffffffffffffffffffffffff16865f01518281518110612e8c57612e8b61546b565b5b60200260200101515f015173ffffffffffffffffffffffffffffffffffffffff1603612ebb5760019150612ec6565b806001019050612e36565b505f888381518110612edb57612eda61546b565b5b602002602001015160800151905081158015612ef757505f8114155b8015612f2157505f898481518110612f1257612f1161546b565b5b60200260200101516060015114155b156130eb575f898481518110612f3a57612f3961546b565b5b60200260200101516060015190505f612f7e82848d8881518110612f6157612f6061546b565b5b602002602001015160200151600a612f799190615b14565b6126ea565b90505f81146130e8578a8581518110612f9a57612f9961546b565b5b60200260200101515f0151865f01518760a0015181518110612fbf57612fbe61546b565b5b602002602001019073ffffffffffffffffffffffffffffffffffffffff16908173ffffffffffffffffffffffffffffffffffffffff16815250508a858151811061300c5761300b61546b565b5b60200260200101516020015186602001518760a00151815181106130335761303261546b565b5b602002602001019060ff16908160ff16815250508186604001518760a00151815181106130635761306261546b565b5b6020026020010181815250508286606001518760a001518151811061308b5761308a61546b565b5b6020026020010181815250508086608001518760a00151815181106130b3576130b261546b565b5b602002602001018181525050808660c0018181516130d19190615909565b915081815250508560a00180516001019081815250505b50505b8260010192505050612e28565b505f8160a0015103613136576040517ff17cd2ca00000000000000000000000000000000000000000000000000000000815260040160405180910390fd5b5f5f5f90505b8260a001518110156133da575f836080015182815181106131605761315f61546b565b5b602002602001015190505f81146133ce575f61318186838760c001516126ea565b90508181111561318f578190505b5f81146133cc575f6131ea82876020015186815181106131b2576131b161546b565b5b6020026020010151600a6131c69190615b14565b886060015187815181106131dd576131dc61546b565b5b60200260200101516126ea565b90505f8114801561321957505f8660400151858151811061320e5761320d61546b565b5b602002602001015114155b1561322357600190505b8560400151848151811061323a5761323961546b565b5b602002602001015181111561326b57856040015184815181106132605761325f61546b565b5b602002602001015190505b5f6132bf82886060015187815181106132875761328661546b565b5b6020026020010151896020015188815181106132a6576132a561546b565b5b6020026020010151600a6132ba9190615b14565b6126ea565b90505f81146133c9576040518060400160405280885f015187815181106132e9576132e861546b565b5b602002602001015173ffffffffffffffffffffffffffffffffffffffff16815260200183815250895f01518a602001805180919061332690615b5e565b8152508151811061333a5761333961546b565b5b6020026020010181905250818760400151868151811061335d5761335c61546b565b5b602002602001018181516133719190615411565b915081815250505f8482116133865781613388565b845b905080856133969190615411565b886080015187815181106133ad576133ac61546b565b5b60200260200101818152505081876133c59190615909565b9650505b50505b505b8160010191505061313c565b5080846040018181516133ed9190615909565b9150818152505088846040015110156136ec575f84604001518a6134119190615411565b90505f7fffffffffffffffffffffffffffffffffffffffffffffffffffffffffffffffff90505f5f5f90505b8560a001518110156134fe575f866040015182815181106134615761346061546b565b5b6020026020010151146134f3575f6134e0876040015183815181106134895761348861546b565b5b6020026020010151886060015184815181106134a8576134a761546b565b5b6020026020010151896020015185815181106134c7576134c661546b565b5b6020026020010151600a6134db9190615b14565b6126ea565b9050828111156134f1578092508193505b505b80600101905061343d565b507fffffffffffffffffffffffffffffffffffffffffffffffffffffffffffffffff821415801561352f57505f8114155b156136e8575f8184106135425781613544565b835b90505f61359a82886020015186815181106135625761356161546b565b5b6020026020010151600a6135769190615b14565b8960600151878151811061358d5761358c61546b565b5b60200260200101516126ea565b90505f81036135a857600190505b866040015184815181106135bf576135be61546b565b5b60200260200101518111156135f057866040015184815181106135e5576135e461546b565b5b602002602001015190505b5f613644828960600151878151811061360c5761360b61546b565b5b60200260200101518a60200151888151811061362b5761362a61546b565b5b6020026020010151600a61363f9190615b14565b6126ea565b90505f81146136e4576040518060400160405280895f0151878151811061366e5761366d61546b565b5b602002602001015173ffffffffffffffffffffffffffffffffffffffff168152602001838152508a5f01518b60200180518091906136ab90615b5e565b815250815181106136bf576136be61546b565b5b6020026020010181905250808a6040018181516136dc9190615909565b915081815250505b5050505b5050505b5050505b5f81602001510361372d576040517f1a4eaa7e00000000000000000000000000000000000000000000000000000000815260040160405180910390fd5b5f6137366126a6565b9050816020015167ffffffffffffffff81111561375657613755614592565b5b60405190808252806020026020018201604052801561378f57816020015b61377c61438d565b8152602001906001900390816137745790505b5095505f5f90505b8260200151811015613860575f835f015182815181106137ba576137b961546b565b5b60200260200101519050808883815181106137d8576137d761546b565b5b60200260200101819052508973ffffffffffffffffffffffffffffffffffffffff16635c833bfd825f01518360200151866040518463ffffffff1660e01b815260040161382793929190615836565b5f604051808303815f87803b15801561383e575f5ffd5b505af1158015613850573d5f5f3e3d5ffd5b5050505081600101915050613797565b5050505050509392505050565b60605f5f5f61387a611f31565b73ffffffffffffffffffffffffffffffffffffffff1663ee0d96c587876040518363ffffffff1660e01b81526004016138b4929190615079565b5f60405180830381865afa1580156138ce573d5f5f3e3d5ffd5b505050506040513d5f823e3d601f19601f820116820180604052508101906138f6919061524e565b915091505f8103613933576040517f1f2a200500000000000000000000000000000000000000000000000000000000815260040160405180910390fd5b5f86604001515190505f8167ffffffffffffffff81111561395757613956614592565b5b6040519080825280602002602001820160405280156139855781602001602082028036833780820191505090505b5090505f8267ffffffffffffffff8111156139a3576139a2614592565b5b6040519080825280602002602001820160405280156139d15781602001602082028036833780820191505090505b5090505f5f90505b83811015613a8857612710858b6040015183815181106139fc576139fb61546b565b5b60200260200101516020015161ffff16613a16919061586b565b613a2091906158d9565b838281518110613a3357613a3261546b565b5b602002602001018181525050858181518110613a5257613a5161546b565b5b602002602001015160a00151828281518110613a7157613a7061546b565b5b6020026020010181815250508060010190506139d9565b508267ffffffffffffffff811115613aa357613aa2614592565b5b604051908082528060200260200182016040528015613adc57816020015b613ac961438d565b815260200190600190039081613ac15790505b5096505f5f90505b83811015613c4a57828181518110613aff57613afe61546b565b5b6020026020010151828281518110613b1a57613b1961546b565b5b60200260200101511115613c3f575f838281518110613b3c57613b3b61546b565b5b6020026020010151838381518110613b5757613b5661546b565b5b6020026020010151613b699190615411565b90505f613bbf82898581518110613b8357613b8261546b565b5b602002602001015160200151600a613b9b9190615b14565b8a8681518110613bae57613bad61546b565b5b6020026020010151608001516126ea565b90505f811115613c3c576040518060400160405280898581518110613be757613be661546b565b5b60200260200101515f015173ffffffffffffffffffffffffffffffffffffffff168152602001828152508a8a80613c1d90615b5e565b9b5081518110613c3057613c2f61546b565b5b60200260200101819052505b50505b806001019050613ae4565b505f8603613c84576040517f1a4eaa7e00000000000000000000000000000000000000000000000000000000815260040160405180910390fd5b50505050509250929050565b5f5f8473ffffffffffffffffffffffffffffffffffffffff1663a9059cbb60e01b8585604051602401613cc4929190615444565b604051602081830303815290604052907bffffffffffffffffffffffffffffffffffffffffffffffffffffffff19166020820180517bffffffffffffffffffffffffffffffffffffffffffffffffffffffff8381831617835250505050604051613d2e9190615bdf565b5f604051808303815f865af19150503d805f8114613d67576040519150601f19603f3d011682016040523d82523d5f602084013e613d6c565b606091505b5091509150818015613d9957505f81511480613d98575080806020019051810190613d979190615c09565b5b5b613dd8576040517f08c379a0000000000000000000000000000000000000000000000000000000008152600401613dcf90615c7e565b60405180910390fd5b5050505050565b60605f835190508067ffffffffffffffff811115613e0057613dff614592565b5b604051908082528060200260200182016040528015613e2e5781602001602082028036833780820191505090505b5091505f811480613e3e57505f83145b15613e495750614308565b5f5f5f90505b82811015613e8a57858181518110613e6a57613e6961546b565b5b602002602001015182613e7d9190615909565b9150806001019050613e4f565b505f8103613e99575050614308565b5f8267ffffffffffffffff811115613eb457613eb3614592565b5b604051908082528060200260200182016040528015613ee25781602001602082028036833780820191505090505b5090505f5f5f90505b84811015613fba575f87898381518110613f0857613f0761546b565b5b6020026020010151613f1a919061586b565b90505f8582613f2991906158d9565b905061ffff8016811115613f3f5761ffff801690505b80888481518110613f5357613f5261546b565b5b602002602001019061ffff16908161ffff16815250508084613f759190615909565b93508581613f83919061586b565b82613f8e9190615411565b858481518110613fa157613fa061546b565b5b6020026020010181815250508260010192505050613eeb565b508581101561417f575f8187613fd09190615411565b90505b5f811115614179575f5f90505f5f90505f5f90505b8781101561406b57818682815181106140045761400361546b565b5b602002602001015111801561403a575061ffff801689828151811061402c5761402b61546b565b5b602002602001015161ffff16105b15614060578581815181106140525761405161546b565b5b602002602001015191508092505b806001019050613fe8565b505f8103614110575f5f90505f5f90505b888110156140fc5761ffff80168a828151811061409c5761409b61546b565b5b602002602001015161ffff1610156140f15760018a82815181106140c3576140c261546b565b5b602002602001018181516140d79190615c9c565b91509061ffff16908161ffff1681525050600191506140fc565b80600101905061407c565b508061410a57505050614179565b5061416b565b60018883815181106141255761412461546b565b5b602002602001018181516141399190615c9c565b91509061ffff16908161ffff16815250505f85838151811061415e5761415d61546b565b5b6020026020010181815250505b826001900392505050613fd3565b50614303565b85811115614302575f86826141949190615411565b90505b5f811115614300575f5f90505f7fffffffffffffffffffffffffffffffffffffffffffffffffffffffffffffffff90505f5f90505b8781101561424b575f8982815181106141e8576141e761546b565b5b602002602001015161ffff1611801561421a5750818682815181106142105761420f61546b565b5b6020026020010151105b15614240578581815181106142325761423161546b565b5b602002602001015191508092505b8060010190506141cc565b505f8883815181106142605761425f61546b565b5b602002602001015161ffff1603614278575050614300565b600188838151811061428d5761428c61546b565b5b602002602001018181516142a19190615cd1565b91509061ffff16908161ffff16815250507fffffffffffffffffffffffffffffffffffffffffffffffffffffffffffffffff8583815181106142e6576142e561546b565b5b602002602001018181525050826001900392505050614197565b505b5b505050505b92915050565b60405180604001604052805f73ffffffffffffffffffffffffffffffffffffffff1681526020015f81525090565b60405180604001604052805f73ffffffffffffffffffffffffffffffffffffffff1681526020015f61ffff1681525090565b6040518060600160405280606081526020015f81526020015f81525090565b60405180604001604052805f73ffffffffffffffffffffffffffffffffffffffff1681526020015f81525090565b6040518060e0016040528060608152602001606081526020016060815260200160608152602001606081526020015f81526020015f81525090565b5f63ffffffff82169050919050565b61440e816143f6565b82525050565b5f6020820190506144275f830184614405565b92915050565b5f604051905090565b5f5ffd5b5f5ffd5b5f73ffffffffffffffffffffffffffffffffffffffff82169050919050565b5f6144678261443e565b9050919050565b6144778161445d565b8114614481575f5ffd5b50565b5f813590506144928161446e565b92915050565b5f5f604083850312156144ae576144ad614436565b5b5f6144bb85828601614484565b92505060206144cc85828601614484565b9150509250929050565b5f8115159050919050565b6144ea816144d6565b82525050565b5f6020820190506145035f8301846144e1565b92915050565b5f819050919050565b61451b81614509565b8114614525575f5ffd5b50565b5f8135905061453681614512565b92915050565b5f5f6040838503121561455257614551614436565b5b5f61455f85828601614528565b925050602061457085828601614484565b9150509250929050565b5f5ffd5b5f5ffd5b5f601f19601f8301169050919050565b7f4e487b71000000000000000000000000000000000000000000000000000000005f52604160045260245ffd5b6145c882614582565b810181811067ffffffffffffffff821117156145e7576145e6614592565b5b80604052505050565b5f6145f961442d565b905061460582826145bf565b919050565b5f67ffffffffffffffff82111561462457614623614592565b5b61462d82614582565b9050602081019050919050565b828183375f83830152505050565b5f61465a6146558461460a565b6145f0565b9050828152602081018484840111156146765761467561457e565b5b61468184828561463a565b509392505050565b5f82601f83011261469d5761469c61457a565b5b81356146ad848260208601614648565b91505092915050565b5f602082840312156146cb576146ca614436565b5b5f82013567ffffffffffffffff8111156146e8576146e761443a565b5b6146f484828501614689565b91505092915050565b6147068161445d565b82525050565b5f60208201905061471f5f8301846146fd565b92915050565b5f61ffff82169050919050565b61473b81614725565b82525050565b5f6020820190506147545f830184614732565b92915050565b5f819050919050565b5f61477d6147786147738461443e565b61475a565b61443e565b9050919050565b5f61478e82614763565b9050919050565b5f61479f82614784565b9050919050565b6147af81614795565b82525050565b5f6020820190506147c85f8301846147a6565b92915050565b6147d7816144d6565b81146147e1575f5ffd5b50565b5f813590506147f2816147ce565b92915050565b5f6020828403121561480d5761480c614436565b5b5f61481a848285016147e4565b91505092915050565b61482c81614725565b8114614836575f5ffd5b50565b5f8135905061484781614823565b92915050565b5f6020828403121561486257614861614436565b5b5f61486f84828501614839565b91505092915050565b5f6020828403121561488d5761488c614436565b5b5f61489a84828501614484565b91505092915050565b6148ac816143f6565b81146148b6575f5ffd5b50565b5f813590506148c7816148a3565b92915050565b5f602082840312156148e2576148e1614436565b5b5f6148ef848285016148b9565b91505092915050565b5f6149028261443e565b9050919050565b614912816148f8565b811461491c575f5ffd5b50565b5f8135905061492d81614909565b92915050565b5f5f5f6060848603121561494a57614949614436565b5b5f61495786828701614528565b935050602061496886828701614528565b92505060406149798682870161491f565b9150509250925092565b5f6020828403121561499857614997614436565b5b5f6149a584828501614528565b91505092915050565b5f815190506149bc8161446e565b92915050565b5f602082840312156149d7576149d6614436565b5b5f6149e4848285016149ae565b91505092915050565b5f82825260208201905092915050565b7f43616c6c6572206973206e6f7420746865206f776e65720000000000000000005f82015250565b5f614a316017836149ed565b9150614a3c826149fd565b602082019050919050565b5f6020820190508181035f830152614a5e81614a25565b9050919050565b7f436f6e7472616374206973206e6f7420616374697665000000000000000000005f82015250565b5f614a996016836149ed565b9150614aa482614a65565b602082019050919050565b5f6020820190508181035f830152614ac681614a8d565b9050919050565b614ad681614509565b82525050565b5f602082019050614aef5f830184614acd565b92915050565b5f5ffd5b5f5ffd5b8281835e5f83830152505050565b5f614b1d614b188461460a565b6145f0565b905082815260208101848484011115614b3957614b3861457e565b5b614b44848285614afd565b509392505050565b5f82601f830112614b6057614b5f61457a565b5b8151614b70848260208601614b0b565b91505092915050565b5f67ffffffffffffffff821115614b9357614b92614592565b5b602082029050602081019050919050565b5f5ffd5b5f81519050614bb681614823565b92915050565b5f60408284031215614bd157614bd0614af5565b5b614bdb60406145f0565b90505f614bea848285016149ae565b5f830152506020614bfd84828501614ba8565b60208301525092915050565b5f614c1b614c1684614b79565b6145f0565b90508083825260208201905060408402830185811115614c3e57614c3d614ba4565b5b835b81811015614c675780614c538882614bbc565b845260208401935050604081019050614c40565b5050509392505050565b5f82601f830112614c8557614c8461457a565b5b8151614c95848260208601614c09565b91505092915050565b5f60608284031215614cb357614cb2614af5565b5b614cbd60606145f0565b90505f82015167ffffffffffffffff811115614cdc57614cdb614af9565b5b614ce884828501614b4c565b5f83015250602082015167ffffffffffffffff811115614d0b57614d0a614af9565b5b614d1784828501614b4c565b602083015250604082015167ffffffffffffffff811115614d3b57614d3a614af9565b5b614d4784828501614c71565b60408301525092915050565b5f5f5f60608486031215614d6a57614d69614436565b5b5f84015167ffffffffffffffff811115614d8757614d8661443a565b5b614d9386828701614c9e565b9350506020614da4868287016149ae565b9250506040614db5868287016149ae565b9150509250925092565b5f81519050919050565b5f614dd382614dbf565b614ddd81856149ed565b9350614ded818560208601614afd565b614df681614582565b840191505092915050565b5f6020820190508181035f830152614e198184614dc9565b905092915050565b5f5f60408385031215614e3757614e36614436565b5b5f83015167ffffffffffffffff811115614e5457614e5361443a565b5b614e6085828601614c9e565b9250506020614e71858286016149ae565b9150509250929050565b7f5265656e7472616e637947756172643a207265656e7472616e742063616c6c005f82015250565b5f614eaf601f836149ed565b9150614eba82614e7b565b602082019050919050565b5f6020820190508181035f830152614edc81614ea3565b9050919050565b5f82825260208201905092915050565b5f614efd82614dbf565b614f078185614ee3565b9350614f17818560208601614afd565b614f2081614582565b840191505092915050565b5f81519050919050565b5f82825260208201905092915050565b5f819050602082019050919050565b614f5d8161445d565b82525050565b614f6c81614725565b82525050565b604082015f820151614f865f850182614f54565b506020820151614f996020850182614f63565b50505050565b5f614faa8383614f72565b60408301905092915050565b5f602082019050919050565b5f614fcc82614f2b565b614fd68185614f35565b9350614fe183614f45565b805f5b83811015615011578151614ff88882614f9f565b975061500383614fb6565b925050600181019050614fe4565b5085935050505092915050565b5f606083015f8301518482035f8601526150388282614ef3565b915050602083015184820360208601526150528282614ef3565b9150506040830151848203604086015261506c8282614fc2565b9150508091505092915050565b5f6040820190508181035f830152615091818561501e565b90506150a060208301846146fd565b9392505050565b5f67ffffffffffffffff8211156150c1576150c0614592565b5b602082029050602081019050919050565b5f60ff82169050919050565b6150e7816150d2565b81146150f1575f5ffd5b50565b5f81519050615102816150de565b92915050565b5f8151905061511681614512565b92915050565b5f60c0828403121561513157615130614af5565b5b61513b60c06145f0565b90505f61514a848285016149ae565b5f83015250602061515d848285016150f4565b602083015250604061517184828501614ba8565b604083015250606061518584828501615108565b606083015250608061519984828501615108565b60808301525060a06151ad84828501615108565b60a08301525092915050565b5f6151cb6151c6846150a7565b6145f0565b90508083825260208201905060c084028301858111156151ee576151ed614ba4565b5b835b818110156152175780615203888261511c565b84526020840193505060c0810190506151f0565b5050509392505050565b5f82601f8301126152355761523461457a565b5b81516152458482602086016151b9565b91505092915050565b5f5f6040838503121561526457615263614436565b5b5f83015167ffffffffffffffff8111156152815761528061443a565b5b61528d85828601615221565b925050602061529e85828601615108565b9150509250929050565b5f602082840312156152bd576152bc614436565b5b5f6152ca84828501615108565b91505092915050565b5f81519050919050565b5f82825260208201905092915050565b5f819050602082019050919050565b604082015f8201516153105f850182614f54565b5060208201516153236020850182614f63565b50505050565b5f61533483836152fc565b60408301905092915050565b5f602082019050919050565b5f615356826152d3565b61536081856152dd565b935061536b836152ed565b805f5b8381101561539b5781516153828882615329565b975061538d83615340565b92505060018101905061536e565b5085935050505092915050565b5f6060820190508181035f8301526153c0818661534c565b90506153cf60208301856146fd565b6153dc6040830184614405565b949350505050565b7f4e487b71000000000000000000000000000000000000000000000000000000005f52601160045260245ffd5b5f61541b82614509565b915061542683614509565b925082820390508181111561543e5761543d6153e4565b5b92915050565b5f6040820190506154575f8301856146fd565b6154646020830184614acd565b9392505050565b7f4e487b71000000000000000000000000000000000000000000000000000000005f52603260045260245ffd5b5f81519050919050565b5f82825260208201905092915050565b5f819050602082019050919050565b6154ca81614509565b82525050565b604082015f8201516154e45f850182614f54565b5060208201516154f760208501826154c1565b50505050565b5f61550883836154d0565b60408301905092915050565b5f602082019050919050565b5f61552a82615498565b61553481856154a2565b935061553f836154b2565b805f5b8381101561556f57815161555688826154fd565b975061556183615514565b925050600181019050615542565b5085935050505092915050565b5f60408201905061558f5f830185614acd565b81810360208301526155a18184615520565b90509392505050565b7f4469726563746f72792063616e6e6f74206265207a65726f20616464726573735f82015250565b5f6155de6020836149ed565b91506155e9826155aa565b602082019050919050565b5f6020820190508181035f83015261560b816155d2565b9050919050565b7f4469726563746f7279206d757374206265206120636f6e7472616374000000005f82015250565b5f615646601c836149ed565b915061565182615612565b602082019050919050565b5f6020820190508181035f8301526156738161563a565b9050919050565b7f4469726563746f7279206164647265737320646f6573206e6f7420696d706c655f8201527f6d656e74206f776e657228290000000000000000000000000000000000000000602082015250565b5f6156d4602c836149ed565b91506156df8261567a565b604082019050919050565b5f6020820190508181035f830152615701816156c8565b9050919050565b5f81519050919050565b5f82825260208201905092915050565b5f819050602082019050919050565b604082015f8201516157455f850182614f54565b50602082015161575860208501826154c1565b50505050565b5f6157698383615731565b60408301905092915050565b5f602082019050919050565b5f61578b82615708565b6157958185615712565b93506157a083615722565b805f5b838110156157d05781516157b7888261575e565b97506157c283615775565b9250506001810190506157a3565b5085935050505092915050565b6157e6816148f8565b82525050565b5f6080820190508181035f8301526158048187615781565b905061581360208301866157dd565b6158206040830185614405565b61582d60608301846144e1565b95945050505050565b5f6060820190506158495f8301866146fd565b6158566020830185614acd565b61586360408301846146fd565b949350505050565b5f61587582614509565b915061588083614509565b925082820261588e81614509565b915082820484148315176158a5576158a46153e4565b5b5092915050565b7f4e487b71000000000000000000000000000000000000000000000000000000005f52601260045260245ffd5b5f6158e382614509565b91506158ee83614509565b9250826158fe576158fd6158ac565b5b828204905092915050565b5f61591382614509565b915061591e83614509565b9250828201905080821115615936576159356153e4565b5b92915050565b7f6d756c446976206f766572666c6f7700000000000000000000000000000000005f82015250565b5f615970600f836149ed565b915061597b8261593c565b602082019050919050565b5f6020820190508181035f83015261599d81615964565b9050919050565b5f81905092915050565b50565b5f6159bc5f836159a4565b91506159c7826159ae565b5f82019050919050565b5f6159db826159b1565b9150819050919050565b5f8160011c9050919050565b5f5f8291508390505b6001851115615a3a57808604811115615a1657615a156153e4565b5b6001851615615a255780820291505b8081029050615a33856159e5565b94506159fa565b94509492505050565b5f82615a525760019050615b0d565b81615a5f575f9050615b0d565b8160018114615a755760028114615a7f57615aae565b6001915050615b0d565b60ff841115615a9157615a906153e4565b5b8360020a915084821115615aa857615aa76153e4565b5b50615b0d565b5060208310610133831016604e8410600b8410161715615ae35782820a905083811115615ade57615add6153e4565b5b615b0d565b615af084848460016159f1565b92509050818404811115615b0757615b066153e4565b5b81810290505b9392505050565b5f615b1e82614509565b9150615b29836150d2565b9250615b567fffffffffffffffffffffffffffffffffffffffffffffffffffffffffffffffff8484615a43565b905092915050565b5f615b6882614509565b91507fffffffffffffffffffffffffffffffffffffffffffffffffffffffffffffffff8203615b9a57615b996153e4565b5b600182019050919050565b5f81519050919050565b5f615bb982615ba5565b615bc381856159a4565b9350615bd3818560208601614afd565b80840191505092915050565b5f615bea8284615baf565b915081905092915050565b5f81519050615c03816147ce565b92915050565b5f60208284031215615c1e57615c1d614436565b5b5f615c2b84828501615bf5565b91505092915050565b7f5452414e534645525f4641494c454400000000000000000000000000000000005f82015250565b5f615c68600f836149ed565b9150615c7382615c34565b602082019050919050565b5f6020820190508181035f830152615c9581615c5c565b9050919050565b5f615ca682614725565b9150615cb183614725565b9250828201905061ffff811115615ccb57615cca6153e4565b5b92915050565b5f615cdb82614725565b9150615ce683614725565b9250828203905061ffff811115615d0057615cff6153e4565b5b9291505056fea2646970667358221220d3c618d50c15019d91249237d5706ecb05b229f46412e2fb8803779fdf0de91c64736f6c634300081e0033",
			"opcodes": "PUSH1 0x80 PUSH1 0x40 MSTORE PUSH1 0x1 DUP1 PUSH1 0x14 PUSH2 0x100 EXP DUP2 SLOAD DUP2 PUSH1 0xFF MUL NOT AND SWAP1 DUP4 ISZERO ISZERO MUL OR SWAP1 SSTORE POP PUSH1 0x19 PUSH1 0x1 PUSH1 0x15 PUSH2 0x100 EXP DUP2 SLOAD DUP2 PUSH2 0xFFFF MUL NOT AND SWAP1 DUP4 PUSH2 0xFFFF AND MUL OR SWAP1 SSTORE POP PUSH2 0x12C PUSH1 0x1 PUSH1 0x17 PUSH2 0x100 EXP DUP2 SLOAD DUP2 PUSH4 0xFFFFFFFF MUL NOT AND SWAP1 DUP4 PUSH4 0xFFFFFFFF AND MUL OR SWAP1 SSTORE POP CALLVALUE DUP1 ISZERO PUSH2 0x6A JUMPI PUSH0 PUSH0 REVERT JUMPDEST POP PUSH1 0x40 MLOAD PUSH2 0x619C CODESIZE SUB DUP1 PUSH2 0x619C DUP4 CODECOPY DUP2 DUP2 ADD PUSH1 0x40 MSTORE DUP2 ADD SWAP1 PUSH2 0x8C SWAP2 SWAP1 PUSH2 0x2BA JUMP JUMPDEST DUP1 PUSH1 0x1 PUSH0 DUP2 SWAP1 SSTORE POP PUSH2 0xA3 DUP2 PUSH2 0xAA PUSH1 0x20 SHL PUSH1 0x20 SHR JUMP JUMPDEST POP POP PUSH2 0x453 JUMP JUMPDEST PUSH0 PUSH20 0xFFFFFFFFFFFFFFFFFFFFFFFFFFFFFFFFFFFFFFFF AND DUP2 PUSH20 0xFFFFFFFFFFFFFFFFFFFFFFFFFFFFFFFFFFFFFFFF AND SUB PUSH2 0x118 JUMPI PUSH1 0x40 MLOAD PUSH32 0x8C379A000000000000000000000000000000000000000000000000000000000 DUP2 MSTORE PUSH1 0x4 ADD PUSH2 0x10F SWAP1 PUSH2 0x33F JUMP JUMPDEST PUSH1 0x40 MLOAD DUP1 SWAP2 SUB SWAP1 REVERT JUMPDEST PUSH0 DUP2 PUSH20 0xFFFFFFFFFFFFFFFFFFFFFFFFFFFFFFFFFFFFFFFF AND EXTCODESIZE GT PUSH2 0x171 JUMPI PUSH1 0x40 MLOAD PUSH32 0x8C379A000000000000000000000000000000000000000000000000000000000 DUP2 MSTORE PUSH1 0x4 ADD PUSH2 0x168 SWAP1 PUSH2 0x3A7 JUMP JUMPDEST PUSH1 0x40 MLOAD DUP1 SWAP2 SUB SWAP1 REVERT JUMPDEST DUP1 PUSH20 0xFFFFFFFFFFFFFFFFFFFFFFFFFFFFFFFFFFFFFFFF AND PUSH4 0x8DA5CB5B PUSH1 0x40 MLOAD DUP2 PUSH4 0xFFFFFFFF AND PUSH1 0xE0 SHL DUP2 MSTORE PUSH1 0x4 ADD PUSH1 0x20 PUSH1 0x40 MLOAD DUP1 DUP4 SUB DUP2 DUP7 GAS STATICCALL SWAP3 POP POP POP DUP1 ISZERO PUSH2 0x1D9 JUMPI POP PUSH1 0x40 MLOAD RETURNDATASIZE PUSH1 0x1F NOT PUSH1 0x1F DUP3 ADD AND DUP3 ADD DUP1 PUSH1 0x40 MSTORE POP DUP2 ADD SWAP1 PUSH2 0x1D6 SWAP2 SWAP1 PUSH2 0x2BA JUMP JUMPDEST PUSH1 0x1 JUMPDEST PUSH2 0x218 JUMPI PUSH1 0x40 MLOAD PUSH32 0x8C379A000000000000000000000000000000000000000000000000000000000 DUP2 MSTORE PUSH1 0x4 ADD PUSH2 0x20F SWAP1 PUSH2 0x435 JUMP JUMPDEST PUSH1 0x40 MLOAD DUP1 SWAP2 SUB SWAP1 REVERT JUMPDEST DUP2 PUSH1 0x1 PUSH0 PUSH2 0x100 EXP DUP2 SLOAD DUP2 PUSH20 0xFFFFFFFFFFFFFFFFFFFFFFFFFFFFFFFFFFFFFFFF MUL NOT AND SWAP1 DUP4 PUSH20 0xFFFFFFFFFFFFFFFFFFFFFFFFFFFFFFFFFFFFFFFF AND MUL OR SWAP1 SSTORE POP POP POP JUMP JUMPDEST PUSH0 PUSH0 REVERT JUMPDEST PUSH0 PUSH20 0xFFFFFFFFFFFFFFFFFFFFFFFFFFFFFFFFFFFFFFFF DUP3 AND SWAP1 POP SWAP2 SWAP1 POP JUMP JUMPDEST PUSH0 PUSH2 0x289 DUP3 PUSH2 0x260 JUMP JUMPDEST SWAP1 POP SWAP2 SWAP1 POP JUMP JUMPDEST PUSH2 0x299 DUP2 PUSH2 0x27F JUMP JUMPDEST DUP2 EQ PUSH2 0x2A3 JUMPI PUSH0 PUSH0 REVERT JUMPDEST POP JUMP JUMPDEST PUSH0 DUP2 MLOAD SWAP1 POP PUSH2 0x2B4 DUP2 PUSH2 0x290 JUMP JUMPDEST SWAP3 SWAP2 POP POP JUMP JUMPDEST PUSH0 PUSH1 0x20 DUP3 DUP5 SUB SLT ISZERO PUSH2 0x2CF JUMPI PUSH2 0x2CE PUSH2 0x25C JUMP JUMPDEST JUMPDEST PUSH0 PUSH2 0x2DC DUP5 DUP3 DUP6 ADD PUSH2 0x2A6 JUMP JUMPDEST SWAP2 POP POP SWAP3 SWAP2 POP POP JUMP JUMPDEST PUSH0 DUP3 DUP3 MSTORE PUSH1 0x20 DUP3 ADD SWAP1 POP SWAP3 SWAP2 POP POP JUMP JUMPDEST PUSH32 0x4469726563746F72792063616E6E6F74206265207A65726F2061646472657373 PUSH0 DUP3 ADD MSTORE POP JUMP JUMPDEST PUSH0 PUSH2 0x329 PUSH1 0x20 DUP4 PUSH2 0x2E5 JUMP JUMPDEST SWAP2 POP PUSH2 0x334 DUP3 PUSH2 0x2F5 JUMP JUMPDEST PUSH1 0x20 DUP3 ADD SWAP1 POP SWAP2 SWAP1 POP JUMP JUMPDEST PUSH0 PUSH1 0x20 DUP3 ADD SWAP1 POP DUP2 DUP2 SUB PUSH0 DUP4 ADD MSTORE PUSH2 0x356 DUP2 PUSH2 0x31D JUMP JUMPDEST SWAP1 POP SWAP2 SWAP1 POP JUMP JUMPDEST PUSH32 0x4469726563746F7279206D757374206265206120636F6E747261637400000000 PUSH0 DUP3 ADD MSTORE POP JUMP JUMPDEST PUSH0 PUSH2 0x391 PUSH1 0x1C DUP4 PUSH2 0x2E5 JUMP JUMPDEST SWAP2 POP PUSH2 0x39C DUP3 PUSH2 0x35D JUMP JUMPDEST PUSH1 0x20 DUP3 ADD SWAP1 POP SWAP2 SWAP1 POP JUMP JUMPDEST PUSH0 PUSH1 0x20 DUP3 ADD SWAP1 POP DUP2 DUP2 SUB PUSH0 DUP4 ADD MSTORE PUSH2 0x3BE DUP2 PUSH2 0x385 JUMP JUMPDEST SWAP1 POP SWAP2 SWAP1 POP JUMP JUMPDEST PUSH32 0x4469726563746F7279206164647265737320646F6573206E6F7420696D706C65 PUSH0 DUP3 ADD MSTORE PUSH32 0x6D656E74206F776E657228290000000000000000000000000000000000000000 PUSH1 0x20 DUP3 ADD MSTORE POP JUMP JUMPDEST PUSH0 PUSH2 0x41F PUSH1 0x2C DUP4 PUSH2 0x2E5 JUMP JUMPDEST SWAP2 POP PUSH2 0x42A DUP3 PUSH2 0x3C5 JUMP JUMPDEST PUSH1 0x40 DUP3 ADD SWAP1 POP SWAP2 SWAP1 POP JUMP JUMPDEST PUSH0 PUSH1 0x20 DUP3 ADD SWAP1 POP DUP2 DUP2 SUB PUSH0 DUP4 ADD MSTORE PUSH2 0x44C DUP2 PUSH2 0x413 JUMP JUMPDEST SWAP1 POP SWAP2 SWAP1 POP JUMP JUMPDEST PUSH2 0x5D3C DUP1 PUSH2 0x460 PUSH0 CODECOPY PUSH0 RETURN INVALID PUSH1 0x80 PUSH1 0x40 MSTORE PUSH1 0x4 CALLDATASIZE LT PUSH2 0xE0 JUMPI PUSH0 CALLDATALOAD PUSH1 0xE0 SHR DUP1 PUSH4 0x8DA5CB5B GT PUSH2 0x7E JUMPI DUP1 PUSH4 0xBA4C7BE1 GT PUSH2 0x58 JUMPI DUP1 PUSH4 0xBA4C7BE1 EQ PUSH2 0x28D JUMPI DUP1 PUSH4 0xBB3367BD EQ PUSH2 0x2B5 JUMPI DUP1 PUSH4 0xE220D0DE EQ PUSH2 0x2DD JUMPI DUP1 PUSH4 0xF4993018 EQ PUSH2 0x305 JUMPI PUSH2 0xE7 JUMP JUMPDEST DUP1 PUSH4 0x8DA5CB5B EQ PUSH2 0x213 JUMPI DUP1 PUSH4 0xACEC338A EQ PUSH2 0x23D JUMPI DUP1 PUSH4 0xB42C0782 EQ PUSH2 0x265 JUMPI PUSH2 0xE7 JUMP JUMPDEST DUP1 PUSH4 0x25C006F9 GT PUSH2 0xBA JUMPI DUP1 PUSH4 0x25C006F9 EQ PUSH2 0x167 JUMPI DUP1 PUSH4 0x27262618 EQ PUSH2 0x183 JUMPI DUP1 PUSH4 0x34FBC9A1 EQ PUSH2 0x1BF JUMPI DUP1 PUSH4 0x658A847A EQ PUSH2 0x1E9 JUMPI PUSH2 0xE7 JUMP JUMPDEST DUP1 PUSH4 0x650B0FC EQ PUSH2 0xEB JUMPI DUP1 PUSH4 0x9053AC4 EQ PUSH2 0x115 JUMPI DUP1 PUSH4 0x22F3E2D4 EQ PUSH2 0x13D JUMPI PUSH2 0xE7 JUMP JUMPDEST CALLDATASIZE PUSH2 0xE7 JUMPI STOP JUMPDEST PUSH0 PUSH0 REVERT JUMPDEST CALLVALUE DUP1 ISZERO PUSH2 0xF6 JUMPI PUSH0 PUSH0 REVERT JUMPDEST POP PUSH2 0xFF PUSH2 0x32D JUMP JUMPDEST PUSH1 0x40 MLOAD PUSH2 0x10C SWAP2 SWAP1 PUSH2 0x4414 JUMP JUMPDEST PUSH1 0x40 MLOAD DUP1 SWAP2 SUB SWAP1 RETURN JUMPDEST CALLVALUE DUP1 ISZERO PUSH2 0x120 JUMPI PUSH0 PUSH0 REVERT JUMPDEST POP PUSH2 0x13B PUSH1 0x4 DUP1 CALLDATASIZE SUB DUP2 ADD SWAP1 PUSH2 0x136 SWAP2 SWAP1 PUSH2 0x4498 JUMP JUMPDEST PUSH2 0x343 JUMP JUMPDEST STOP JUMPDEST CALLVALUE DUP1 ISZERO PUSH2 0x148 JUMPI PUSH0 PUSH0 REVERT JUMPDEST POP PUSH2 0x151 PUSH2 0x44C JUMP JUMPDEST PUSH1 0x40 MLOAD PUSH2 0x15E SWAP2 SWAP1 PUSH2 0x44F0 JUMP JUMPDEST PUSH1 0x40 MLOAD DUP1 SWAP2 SUB SWAP1 RETURN JUMPDEST PUSH2 0x181 PUSH1 0x4 DUP1 CALLDATASIZE SUB DUP2 ADD SWAP1 PUSH2 0x17C SWAP2 SWAP1 PUSH2 0x453C JUMP JUMPDEST PUSH2 0x45F JUMP JUMPDEST STOP JUMPDEST CALLVALUE DUP1 ISZERO PUSH2 0x18E JUMPI PUSH0 PUSH0 REVERT JUMPDEST POP PUSH2 0x1A9 PUSH1 0x4 DUP1 CALLDATASIZE SUB DUP2 ADD SWAP1 PUSH2 0x1A4 SWAP2 SWAP1 PUSH2 0x46B6 JUMP JUMPDEST PUSH2 0x611 JUMP JUMPDEST PUSH1 0x40 MLOAD PUSH2 0x1B6 SWAP2 SWAP1 PUSH2 0x470C JUMP JUMPDEST PUSH1 0x40 MLOAD DUP1 SWAP2 SUB SWAP1 RETURN JUMPDEST CALLVALUE DUP1 ISZERO PUSH2 0x1CA JUMPI PUSH0 PUSH0 REVERT JUMPDEST POP PUSH2 0x1D3 PUSH2 0x6B2 JUMP JUMPDEST PUSH1 0x40 MLOAD PUSH2 0x1E0 SWAP2 SWAP1 PUSH2 0x4741 JUMP JUMPDEST PUSH1 0x40 MLOAD DUP1 SWAP2 SUB SWAP1 RETURN JUMPDEST CALLVALUE DUP1 ISZERO PUSH2 0x1F4 JUMPI PUSH0 PUSH0 REVERT JUMPDEST POP PUSH2 0x1FD PUSH2 0x6C6 JUMP JUMPDEST PUSH1 0x40 MLOAD PUSH2 0x20A SWAP2 SWAP1 PUSH2 0x47B5 JUMP JUMPDEST PUSH1 0x40 MLOAD DUP1 SWAP2 SUB SWAP1 RETURN JUMPDEST CALLVALUE DUP1 ISZERO PUSH2 0x21E JUMPI PUSH0 PUSH0 REVERT JUMPDEST POP PUSH2 0x227 PUSH2 0x6EB JUMP JUMPDEST PUSH1 0x40 MLOAD PUSH2 0x234 SWAP2 SWAP1 PUSH2 0x470C JUMP JUMPDEST PUSH1 0x40 MLOAD DUP1 SWAP2 SUB SWAP1 RETURN JUMPDEST CALLVALUE DUP1 ISZERO PUSH2 0x248 JUMPI PUSH0 PUSH0 REVERT JUMPDEST POP PUSH2 0x263 PUSH1 0x4 DUP1 CALLDATASIZE SUB DUP2 ADD SWAP1 PUSH2 0x25E SWAP2 SWAP1 PUSH2 0x47F8 JUMP JUMPDEST PUSH2 0x77F JUMP JUMPDEST STOP JUMPDEST CALLVALUE DUP1 ISZERO PUSH2 0x270 JUMPI PUSH0 PUSH0 REVERT JUMPDEST POP PUSH2 0x28B PUSH1 0x4 DUP1 CALLDATASIZE SUB DUP2 ADD SWAP1 PUSH2 0x286 SWAP2 SWAP1 PUSH2 0x484D JUMP JUMPDEST PUSH2 0x897 JUMP JUMPDEST STOP JUMPDEST CALLVALUE DUP1 ISZERO PUSH2 0x298 JUMPI PUSH0 PUSH0 REVERT JUMPDEST POP PUSH2 0x2B3 PUSH1 0x4 DUP1 CALLDATASIZE SUB DUP2 ADD SWAP1 PUSH2 0x2AE SWAP2 SWAP1 PUSH2 0x4878 JUMP JUMPDEST PUSH2 0xA41 JUMP JUMPDEST STOP JUMPDEST CALLVALUE DUP1 ISZERO PUSH2 0x2C0 JUMPI PUSH0 PUSH0 REVERT JUMPDEST POP PUSH2 0x2DB PUSH1 0x4 DUP1 CALLDATASIZE SUB DUP2 ADD SWAP1 PUSH2 0x2D6 SWAP2 SWAP1 PUSH2 0x48CD JUMP JUMPDEST PUSH2 0xB48 JUMP JUMPDEST STOP JUMPDEST CALLVALUE DUP1 ISZERO PUSH2 0x2E8 JUMPI PUSH0 PUSH0 REVERT JUMPDEST POP PUSH2 0x303 PUSH1 0x4 DUP1 CALLDATASIZE SUB DUP2 ADD SWAP1 PUSH2 0x2FE SWAP2 SWAP1 PUSH2 0x4933 JUMP JUMPDEST PUSH2 0xCA9 JUMP JUMPDEST STOP JUMPDEST CALLVALUE DUP1 ISZERO PUSH2 0x310 JUMPI PUSH0 PUSH0 REVERT JUMPDEST POP PUSH2 0x32B PUSH1 0x4 DUP1 CALLDATASIZE SUB DUP2 ADD SWAP1 PUSH2 0x326 SWAP2 SWAP1 PUSH2 0x4983 JUMP JUMPDEST PUSH2 0xE53 JUMP JUMPDEST STOP JUMPDEST PUSH1 0x1 PUSH1 0x17 SWAP1 SLOAD SWAP1 PUSH2 0x100 EXP SWAP1 DIV PUSH4 0xFFFFFFFF AND DUP2 JUMP JUMPDEST PUSH1 0x1 PUSH0 SWAP1 SLOAD SWAP1 PUSH2 0x100 EXP SWAP1 DIV PUSH20 0xFFFFFFFFFFFFFFFFFFFFFFFFFFFFFFFFFFFFFFFF AND PUSH20 0xFFFFFFFFFFFFFFFFFFFFFFFFFFFFFFFFFFFFFFFF AND PUSH4 0x8DA5CB5B PUSH1 0x40 MLOAD DUP2 PUSH4 0xFFFFFFFF AND PUSH1 0xE0 SHL DUP2 MSTORE PUSH1 0x4 ADD PUSH1 0x20 PUSH1 0x40 MLOAD DUP1 DUP4 SUB DUP2 DUP7 GAS STATICCALL ISZERO DUP1 ISZERO PUSH2 0x3AD JUMPI RETURNDATASIZE PUSH0 PUSH0 RETURNDATACOPY RETURNDATASIZE PUSH0 REVERT JUMPDEST POP POP POP POP PUSH1 0x40 MLOAD RETURNDATASIZE PUSH1 0x1F NOT PUSH1 0x1F DUP3 ADD AND DUP3 ADD DUP1 PUSH1 0x40 MSTORE POP DUP2 ADD SWAP1 PUSH2 0x3D1 SWAP2 SWAP1 PUSH2 0x49C2 JUMP JUMPDEST PUSH20 0xFFFFFFFFFFFFFFFFFFFFFFFFFFFFFFFFFFFFFFFF AND CALLER PUSH20 0xFFFFFFFFFFFFFFFFFFFFFFFFFFFFFFFFFFFFFFFF AND EQ PUSH2 0x43E JUMPI PUSH1 0x40 MLOAD PUSH32 0x8C379A000000000000000000000000000000000000000000000000000000000 DUP2 MSTORE PUSH1 0x4 ADD PUSH2 0x435 SWAP1 PUSH2 0x4A47 JUMP JUMPDEST PUSH1 0x40 MLOAD DUP1 SWAP2 SUB SWAP1 REVERT JUMPDEST PUSH2 0x448 DUP3 DUP3 PUSH2 0xF5D JUMP JUMPDEST POP POP JUMP JUMPDEST PUSH1 0x1 PUSH1 0x14 SWAP1 SLOAD SWAP1 PUSH2 0x100 EXP SWAP1 DIV PUSH1 0xFF AND DUP2 JUMP JUMPDEST PUSH2 0x467 PUSH2 0xF6B JUMP JUMPDEST PUSH1 0x1 PUSH1 0x14 SWAP1 SLOAD SWAP1 PUSH2 0x100 EXP SWAP1 DIV PUSH1 0xFF AND PUSH2 0x4B6 JUMPI PUSH1 0x40 MLOAD PUSH32 0x8C379A000000000000000000000000000000000000000000000000000000000 DUP2 MSTORE PUSH1 0x4 ADD PUSH2 0x4AD SWAP1 PUSH2 0x4AAF JUMP JUMPDEST PUSH1 0x40 MLOAD DUP1 SWAP2 SUB SWAP1 REVERT JUMPDEST PUSH0 CALLVALUE SUB PUSH2 0x4EF JUMPI PUSH1 0x40 MLOAD PUSH32 0x1F2A200500000000000000000000000000000000000000000000000000000000 DUP2 MSTORE PUSH1 0x4 ADD PUSH1 0x40 MLOAD DUP1 SWAP2 SUB SWAP1 REVERT JUMPDEST PUSH0 PUSH20 0xFFFFFFFFFFFFFFFFFFFFFFFFFFFFFFFFFFFFFFFF AND DUP2 PUSH20 0xFFFFFFFFFFFFFFFFFFFFFFFFFFFFFFFFFFFFFFFF AND SUB PUSH2 0x554 JUMPI PUSH1 0x40 MLOAD PUSH32 0x6BA9ECD800000000000000000000000000000000000000000000000000000000 DUP2 MSTORE PUSH1 0x4 ADD PUSH1 0x40 MLOAD DUP1 SWAP2 SUB SWAP1 REVERT JUMPDEST PUSH0 PUSH0 PUSH0 PUSH2 0x55F PUSH2 0xFB8 JUMP JUMPDEST PUSH20 0xFFFFFFFFFFFFFFFFFFFFFFFFFFFFFFFFFFFFFFFF AND PUSH4 0x61668690 DUP7 PUSH1 0x40 MLOAD DUP3 PUSH4 0xFFFFFFFF AND PUSH1 0xE0 SHL DUP2 MSTORE PUSH1 0x4 ADD PUSH2 0x597 SWAP2 SWAP1 PUSH2 0x4ADC JUMP JUMPDEST PUSH0 PUSH1 0x40 MLOAD DUP1 DUP4 SUB DUP2 DUP7 GAS STATICCALL ISZERO DUP1 ISZERO PUSH2 0x5B1 JUMPI RETURNDATASIZE PUSH0 PUSH0 RETURNDATACOPY RETURNDATASIZE PUSH0 REVERT JUMPDEST POP POP POP POP PUSH1 0x40 MLOAD RETURNDATASIZE PUSH0 DUP3 RETURNDATACOPY RETURNDATASIZE PUSH1 0x1F NOT PUSH1 0x1F DUP3 ADD AND DUP3 ADD DUP1 PUSH1 0x40 MSTORE POP DUP2 ADD SWAP1 PUSH2 0x5D9 SWAP2 SWAP1 PUSH2 0x4D53 JUMP JUMPDEST SWAP3 POP SWAP3 POP SWAP3 POP PUSH2 0x5EC DUP6 DUP5 DUP5 DUP5 DUP9 PUSH2 0xFFC JUMP JUMPDEST POP POP PUSH2 0x5F7 CALLER PUSH2 0x1403 JUMP JUMPDEST PUSH2 0x602 DUP6 DUP5 DUP4 PUSH2 0x141E JUMP JUMPDEST POP POP POP PUSH2 0x60D PUSH2 0x15C2 JUMP JUMPDEST POP POP JUMP JUMPDEST PUSH0 PUSH1 0x1 PUSH0 SWAP1 SLOAD SWAP1 PUSH2 0x100 EXP SWAP1 DIV PUSH20 0xFFFFFFFFFFFFFFFFFFFFFFFFFFFFFFFFFFFFFFFF AND PUSH20 0xFFFFFFFFFFFFFFFFFFFFFFFFFFFFFFFFFFFFFFFF AND PUSH4 0x27262618 DUP4 PUSH1 0x40 MLOAD DUP3 PUSH4 0xFFFFFFFF AND PUSH1 0xE0 SHL DUP2 MSTORE PUSH1 0x4 ADD PUSH2 0x66C SWAP2 SWAP1 PUSH2 0x4E01 JUMP JUMPDEST PUSH1 0x20 PUSH1 0x40 MLOAD DUP1 DUP4 SUB DUP2 DUP7 GAS STATICCALL ISZERO DUP1 ISZERO PUSH2 0x687 JUMPI RETURNDATASIZE PUSH0 PUSH0 RETURNDATACOPY RETURNDATASIZE PUSH0 REVERT JUMPDEST POP POP POP POP PUSH1 0x40 MLOAD RETURNDATASIZE PUSH1 0x1F NOT PUSH1 0x1F DUP3 ADD AND DUP3 ADD DUP1 PUSH1 0x40 MSTORE POP DUP2 ADD SWAP1 PUSH2 0x6AB SWAP2 SWAP1 PUSH2 0x49C2 JUMP JUMPDEST SWAP1 POP SWAP2 SWAP1 POP JUMP JUMPDEST PUSH1 0x1 PUSH1 0x15 SWAP1 SLOAD SWAP1 PUSH2 0x100 EXP SWAP1 DIV PUSH2 0xFFFF AND DUP2 JUMP JUMPDEST PUSH1 0x1 PUSH0 SWAP1 SLOAD SWAP1 PUSH2 0x100 EXP SWAP1 DIV PUSH20 0xFFFFFFFFFFFFFFFFFFFFFFFFFFFFFFFFFFFFFFFF AND DUP2 JUMP JUMPDEST PUSH0 PUSH1 0x1 PUSH0 SWAP1 SLOAD SWAP1 PUSH2 0x100 EXP SWAP1 DIV PUSH20 0xFFFFFFFFFFFFFFFFFFFFFFFFFFFFFFFFFFFFFFFF AND PUSH20 0xFFFFFFFFFFFFFFFFFFFFFFFFFFFFFFFFFFFFFFFF AND PUSH4 0x8DA5CB5B PUSH1 0x40 MLOAD DUP2 PUSH4 0xFFFFFFFF AND PUSH1 0xE0 SHL DUP2 MSTORE PUSH1 0x4 ADD PUSH1 0x20 PUSH1 0x40 MLOAD DUP1 DUP4 SUB DUP2 DUP7 GAS STATICCALL ISZERO DUP1 ISZERO PUSH2 0x756 JUMPI RETURNDATASIZE PUSH0 PUSH0 RETURNDATACOPY RETURNDATASIZE PUSH0 REVERT JUMPDEST POP POP POP POP PUSH1 0x40 MLOAD RETURNDATASIZE PUSH1 0x1F NOT PUSH1 0x1F DUP3 ADD AND DUP3 ADD DUP1 PUSH1 0x40 MSTORE POP DUP2 ADD SWAP1 PUSH2 0x77A SWAP2 SWAP1 PUSH2 0x49C2 JUMP JUMPDEST SWAP1 POP SWAP1 JUMP JUMPDEST PUSH1 0x1 PUSH0 SWAP1 SLOAD SWAP1 PUSH2 0x100 EXP SWAP1 DIV PUSH20 0xFFFFFFFFFFFFFFFFFFFFFFFFFFFFFFFFFFFFFFFF AND PUSH20 0xFFFFFFFFFFFFFFFFFFFFFFFFFFFFFFFFFFFFFFFF AND PUSH4 0x8DA5CB5B PUSH1 0x40 MLOAD DUP2 PUSH4 0xFFFFFFFF AND PUSH1 0xE0 SHL DUP2 MSTORE PUSH1 0x4 ADD PUSH1 0x20 PUSH1 0x40 MLOAD DUP1 DUP4 SUB DUP2 DUP7 GAS STATICCALL ISZERO DUP1 ISZERO PUSH2 0x7E9 JUMPI RETURNDATASIZE PUSH0 PUSH0 RETURNDATACOPY RETURNDATASIZE PUSH0 REVERT JUMPDEST POP POP POP POP PUSH1 0x40 MLOAD RETURNDATASIZE PUSH1 0x1F NOT PUSH1 0x1F DUP3 ADD AND DUP3 ADD DUP1 PUSH1 0x40 MSTORE POP DUP2 ADD SWAP1 PUSH2 0x80D SWAP2 SWAP1 PUSH2 0x49C2 JUMP JUMPDEST PUSH20 0xFFFFFFFFFFFFFFFFFFFFFFFFFFFFFFFFFFFFFFFF AND CALLER PUSH20 0xFFFFFFFFFFFFFFFFFFFFFFFFFFFFFFFFFFFFFFFF AND EQ PUSH2 0x87A JUMPI PUSH1 0x40 MLOAD PUSH32 0x8C379A000000000000000000000000000000000000000000000000000000000 DUP2 MSTORE PUSH1 0x4 ADD PUSH2 0x871 SWAP1 PUSH2 0x4A47 JUMP JUMPDEST PUSH1 0x40 MLOAD DUP1 SWAP2 SUB SWAP1 REVERT JUMPDEST DUP1 PUSH1 0x1 PUSH1 0x14 PUSH2 0x100 EXP DUP2 SLOAD DUP2 PUSH1 0xFF MUL NOT AND SWAP1 DUP4 ISZERO ISZERO MUL OR SWAP1 SSTORE POP POP JUMP JUMPDEST PUSH1 0x1 PUSH0 SWAP1 SLOAD SWAP1 PUSH2 0x100 EXP SWAP1 DIV PUSH20 0xFFFFFFFFFFFFFFFFFFFFFFFFFFFFFFFFFFFFFFFF AND PUSH20 0xFFFFFFFFFFFFFFFFFFFFFFFFFFFFFFFFFFFFFFFF AND PUSH4 0x8DA5CB5B PUSH1 0x40 MLOAD DUP2 PUSH4 0xFFFFFFFF AND PUSH1 0xE0 SHL DUP2 MSTORE PUSH1 0x4 ADD PUSH1 0x20 PUSH1 0x40 MLOAD DUP1 DUP4 SUB DUP2 DUP7 GAS STATICCALL ISZERO DUP1 ISZERO PUSH2 0x901 JUMPI RETURNDATASIZE PUSH0 PUSH0 RETURNDATACOPY RETURNDATASIZE PUSH0 REVERT JUMPDEST POP POP POP POP PUSH1 0x40 MLOAD RETURNDATASIZE PUSH1 0x1F NOT PUSH1 0x1F DUP3 ADD AND DUP3 ADD DUP1 PUSH1 0x40 MSTORE POP DUP2 ADD SWAP1 PUSH2 0x925 SWAP2 SWAP1 PUSH2 0x49C2 JUMP JUMPDEST PUSH20 0xFFFFFFFFFFFFFFFFFFFFFFFFFFFFFFFFFFFFFFFF AND CALLER PUSH20 0xFFFFFFFFFFFFFFFFFFFFFFFFFFFFFFFFFFFFFFFF AND EQ PUSH2 0x992 JUMPI PUSH1 0x40 MLOAD PUSH32 0x8C379A000000000000000000000000000000000000000000000000000000000 DUP2 MSTORE PUSH1 0x4 ADD PUSH2 0x989 SWAP1 PUSH2 0x4A47 JUMP JUMPDEST PUSH1 0x40 MLOAD DUP1 SWAP2 SUB SWAP1 REVERT JUMPDEST PUSH1 0x1 PUSH1 0x14 SWAP1 SLOAD SWAP1 PUSH2 0x100 EXP SWAP1 DIV PUSH1 0xFF AND PUSH2 0x9E1 JUMPI PUSH1 0x40 MLOAD PUSH32 0x8C379A000000000000000000000000000000000000000000000000000000000 DUP2 MSTORE PUSH1 0x4 ADD PUSH2 0x9D8 SWAP1 PUSH2 0x4AAF JUMP JUMPDEST PUSH1 0x40 MLOAD DUP1 SWAP2 SUB SWAP1 REVERT JUMPDEST PUSH2 0x2710 DUP2 PUSH2 0xFFFF AND GT ISZERO PUSH2 0xA21 JUMPI PUSH1 0x40 MLOAD PUSH32 0xDEAA01E600000000000000000000000000000000000000000000000000000000 DUP2 MSTORE PUSH1 0x4 ADD PUSH1 0x40 MLOAD DUP1 SWAP2 SUB SWAP1 REVERT JUMPDEST DUP1 PUSH1 0x1 PUSH1 0x15 PUSH2 0x100 EXP DUP2 SLOAD DUP2 PUSH2 0xFFFF MUL NOT AND SWAP1 DUP4 PUSH2 0xFFFF AND MUL OR SWAP1 SSTORE POP POP JUMP JUMPDEST PUSH1 0x1 PUSH0 SWAP1 SLOAD SWAP1 PUSH2 0x100 EXP SWAP1 DIV PUSH20 0xFFFFFFFFFFFFFFFFFFFFFFFFFFFFFFFFFFFFFFFF AND PUSH20 0xFFFFFFFFFFFFFFFFFFFFFFFFFFFFFFFFFFFFFFFF AND PUSH4 0x8DA5CB5B PUSH1 0x40 MLOAD DUP2 PUSH4 0xFFFFFFFF AND PUSH1 0xE0 SHL DUP2 MSTORE PUSH1 0x4 ADD PUSH1 0x20 PUSH1 0x40 MLOAD DUP1 DUP4 SUB DUP2 DUP7 GAS STATICCALL ISZERO DUP1 ISZERO PUSH2 0xAAB JUMPI RETURNDATASIZE PUSH0 PUSH0 RETURNDATACOPY RETURNDATASIZE PUSH0 REVERT JUMPDEST POP POP POP POP PUSH1 0x40 MLOAD RETURNDATASIZE PUSH1 0x1F NOT PUSH1 0x1F DUP3 ADD AND DUP3 ADD DUP1 PUSH1 0x40 MSTORE POP DUP2 ADD SWAP1 PUSH2 0xACF SWAP2 SWAP1 PUSH2 0x49C2 JUMP JUMPDEST PUSH20 0xFFFFFFFFFFFFFFFFFFFFFFFFFFFFFFFFFFFFFFFF AND CALLER PUSH20 0xFFFFFFFFFFFFFFFFFFFFFFFFFFFFFFFFFFFFFFFF AND EQ PUSH2 0xB3C JUMPI PUSH1 0x40 MLOAD PUSH32 0x8C379A000000000000000000000000000000000000000000000000000000000 DUP2 MSTORE PUSH1 0x4 ADD PUSH2 0xB33 SWAP1 PUSH2 0x4A47 JUMP JUMPDEST PUSH1 0x40 MLOAD DUP1 SWAP2 SUB SWAP1 REVERT JUMPDEST PUSH2 0xB45 DUP2 PUSH2 0x15CB JUMP JUMPDEST POP JUMP JUMPDEST PUSH1 0x1 PUSH0 SWAP1 SLOAD SWAP1 PUSH2 0x100 EXP SWAP1 DIV PUSH20 0xFFFFFFFFFFFFFFFFFFFFFFFFFFFFFFFFFFFFFFFF AND PUSH20 0xFFFFFFFFFFFFFFFFFFFFFFFFFFFFFFFFFFFFFFFF AND PUSH4 0x8DA5CB5B PUSH1 0x40 MLOAD DUP2 PUSH4 0xFFFFFFFF AND PUSH1 0xE0 SHL DUP2 MSTORE PUSH1 0x4 ADD PUSH1 0x20 PUSH1 0x40 MLOAD DUP1 DUP4 SUB DUP2 DUP7 GAS STATICCALL ISZERO DUP1 ISZERO PUSH2 0xBB2 JUMPI RETURNDATASIZE PUSH0 PUSH0 RETURNDATACOPY RETURNDATASIZE PUSH0 REVERT JUMPDEST POP POP POP POP PUSH1 0x40 MLOAD RETURNDATASIZE PUSH1 0x1F NOT PUSH1 0x1F DUP3 ADD AND DUP3 ADD DUP1 PUSH1 0x40 MSTORE POP DUP2 ADD SWAP1 PUSH2 0xBD6 SWAP2 SWAP1 PUSH2 0x49C2 JUMP JUMPDEST PUSH20 0xFFFFFFFFFFFFFFFFFFFFFFFFFFFFFFFFFFFFFFFF AND CALLER PUSH20 0xFFFFFFFFFFFFFFFFFFFFFFFFFFFFFFFFFFFFFFFF AND EQ PUSH2 0xC43 JUMPI PUSH1 0x40 MLOAD PUSH32 0x8C379A000000000000000000000000000000000000000000000000000000000 DUP2 MSTORE PUSH1 0x4 ADD PUSH2 0xC3A SWAP1 PUSH2 0x4A47 JUMP JUMPDEST PUSH1 0x40 MLOAD DUP1 SWAP2 SUB SWAP1 REVERT JUMPDEST PUSH2 0x2710 DUP2 PUSH4 0xFFFFFFFF AND GT ISZERO PUSH2 0xC85 JUMPI PUSH1 0x40 MLOAD PUSH32 0xDEAA01E600000000000000000000000000000000000000000000000000000000 DUP2 MSTORE PUSH1 0x4 ADD PUSH1 0x40 MLOAD DUP1 SWAP2 SUB SWAP1 REVERT JUMPDEST DUP1 PUSH1 0x1 PUSH1 0x17 PUSH2 0x100 EXP DUP2 SLOAD DUP2 PUSH4 0xFFFFFFFF MUL NOT AND SWAP1 DUP4 PUSH4 0xFFFFFFFF AND MUL OR SWAP1 SSTORE POP POP JUMP JUMPDEST PUSH2 0xCB1 PUSH2 0xF6B JUMP JUMPDEST PUSH1 0x1 PUSH1 0x14 SWAP1 SLOAD SWAP1 PUSH2 0x100 EXP SWAP1 DIV PUSH1 0xFF AND PUSH2 0xD00 JUMPI PUSH1 0x40 MLOAD PUSH32 0x8C379A000000000000000000000000000000000000000000000000000000000 DUP2 MSTORE PUSH1 0x4 ADD PUSH2 0xCF7 SWAP1 PUSH2 0x4AAF JUMP JUMPDEST PUSH1 0x40 MLOAD DUP1 SWAP2 SUB SWAP1 REVERT JUMPDEST PUSH0 DUP3 SUB PUSH2 0xD39 JUMPI PUSH1 0x40 MLOAD PUSH32 0x1F2A200500000000000000000000000000000000000000000000000000000000 DUP2 MSTORE PUSH1 0x4 ADD PUSH1 0x40 MLOAD DUP1 SWAP2 SUB SWAP1 REVERT JUMPDEST PUSH0 PUSH20 0xFFFFFFFFFFFFFFFFFFFFFFFFFFFFFFFFFFFFFFFF AND DUP2 PUSH20 0xFFFFFFFFFFFFFFFFFFFFFFFFFFFFFFFFFFFFFFFF AND SUB PUSH2 0xD9E JUMPI PUSH1 0x40 MLOAD PUSH32 0x6BA9ECD800000000000000000000000000000000000000000000000000000000 DUP2 MSTORE PUSH1 0x4 ADD PUSH1 0x40 MLOAD DUP1 SWAP2 SUB SWAP1 REVERT JUMPDEST PUSH0 PUSH0 PUSH0 PUSH2 0xDA9 PUSH2 0xFB8 JUMP JUMPDEST PUSH20 0xFFFFFFFFFFFFFFFFFFFFFFFFFFFFFFFFFFFFFFFF AND PUSH4 0x61668690 DUP8 PUSH1 0x40 MLOAD DUP3 PUSH4 0xFFFFFFFF AND PUSH1 0xE0 SHL DUP2 MSTORE PUSH1 0x4 ADD PUSH2 0xDE1 SWAP2 SWAP1 PUSH2 0x4ADC JUMP JUMPDEST PUSH0 PUSH1 0x40 MLOAD DUP1 DUP4 SUB DUP2 DUP7 GAS STATICCALL ISZERO DUP1 ISZERO PUSH2 0xDFB JUMPI RETURNDATASIZE PUSH0 PUSH0 RETURNDATACOPY RETURNDATASIZE PUSH0 REVERT JUMPDEST POP POP POP POP PUSH1 0x40 MLOAD RETURNDATASIZE PUSH0 DUP3 RETURNDATACOPY RETURNDATASIZE PUSH1 0x1F NOT PUSH1 0x1F DUP3 ADD AND DUP3 ADD DUP1 PUSH1 0x40 MSTORE POP DUP2 ADD SWAP1 PUSH2 0xE23 SWAP2 SWAP1 PUSH2 0x4D53 JUMP JUMPDEST SWAP3 POP SWAP3 POP SWAP3 POP PUSH2 0xE37 DUP7 DUP5 DUP5 DUP5 DUP10 DUP10 PUSH2 0x177D JUMP JUMPDEST POP PUSH2 0xE43 DUP7 DUP5 DUP4 PUSH2 0x141E JUMP JUMPDEST POP POP POP PUSH2 0xE4E PUSH2 0x15C2 JUMP JUMPDEST POP POP POP JUMP JUMPDEST PUSH2 0xE5B PUSH2 0xF6B JUMP JUMPDEST PUSH1 0x1 PUSH1 0x14 SWAP1 SLOAD SWAP1 PUSH2 0x100 EXP SWAP1 DIV PUSH1 0xFF AND PUSH2 0xEAA JUMPI PUSH1 0x40 MLOAD PUSH32 0x8C379A000000000000000000000000000000000000000000000000000000000 DUP2 MSTORE PUSH1 0x4 ADD PUSH2 0xEA1 SWAP1 PUSH2 0x4AAF JUMP JUMPDEST PUSH1 0x40 MLOAD DUP1 SWAP2 SUB SWAP1 REVERT JUMPDEST PUSH0 PUSH0 PUSH2 0xEB4 PUSH2 0xFB8 JUMP JUMPDEST PUSH20 0xFFFFFFFFFFFFFFFFFFFFFFFFFFFFFFFFFFFFFFFF AND PUSH4 0x3088F069 DUP5 PUSH1 0x40 MLOAD DUP3 PUSH4 0xFFFFFFFF AND PUSH1 0xE0 SHL DUP2 MSTORE PUSH1 0x4 ADD PUSH2 0xEEC SWAP2 SWAP1 PUSH2 0x4ADC JUMP JUMPDEST PUSH0 PUSH1 0x40 MLOAD DUP1 DUP4 SUB DUP2 DUP7 GAS STATICCALL ISZERO DUP1 ISZERO PUSH2 0xF06 JUMPI RETURNDATASIZE PUSH0 PUSH0 RETURNDATACOPY RETURNDATASIZE PUSH0 REVERT JUMPDEST POP POP POP POP PUSH1 0x40 MLOAD RETURNDATASIZE PUSH0 DUP3 RETURNDATACOPY RETURNDATASIZE PUSH1 0x1F NOT PUSH1 0x1F DUP3 ADD AND DUP3 ADD DUP1 PUSH1 0x40 MSTORE POP DUP2 ADD SWAP1 PUSH2 0xF2E SWAP2 SWAP1 PUSH2 0x4E21 JUMP JUMPDEST SWAP2 POP SWAP2 POP PUSH2 0xF3C DUP3 DUP3 PUSH2 0x1A7D JUMP JUMPDEST PUSH2 0xF45 CALLER PUSH2 0x1403 JUMP JUMPDEST PUSH2 0xF50 DUP4 DUP4 DUP4 PUSH2 0x141E JUMP JUMPDEST POP POP PUSH2 0xF5A PUSH2 0x15C2 JUMP JUMPDEST POP JUMP JUMPDEST PUSH2 0xF67 DUP3 DUP3 PUSH2 0x1D65 JUMP JUMPDEST POP POP JUMP JUMPDEST PUSH1 0x2 PUSH0 SLOAD SUB PUSH2 0xFAF JUMPI PUSH1 0x40 MLOAD PUSH32 0x8C379A000000000000000000000000000000000000000000000000000000000 DUP2 MSTORE PUSH1 0x4 ADD PUSH2 0xFA6 SWAP1 PUSH2 0x4EC5 JUMP JUMPDEST PUSH1 0x40 MLOAD DUP1 SWAP2 SUB SWAP1 REVERT JUMPDEST PUSH1 0x2 PUSH0 DUP2 SWAP1 SSTORE POP JUMP JUMPDEST PUSH0 PUSH2 0xFF7 PUSH1 0x40 MLOAD DUP1 PUSH1 0x40 ADD PUSH1 0x40 MSTORE DUP1 PUSH1 0xB DUP2 MSTORE PUSH1 0x20 ADD PUSH32 0x6574662D666163746F7279000000000000000000000000000000000000000000 DUP2 MSTORE POP PUSH2 0x611 JUMP JUMPDEST SWAP1 POP SWAP1 JUMP JUMPDEST PUSH0 PUSH0 PUSH0 PUSH2 0x1008 CALLVALUE PUSH2 0x1E3C JUMP JUMPDEST SWAP1 POP PUSH0 PUSH0 PUSH2 0x1014 PUSH2 0x1F31 JUMP JUMPDEST PUSH20 0xFFFFFFFFFFFFFFFFFFFFFFFFFFFFFFFFFFFFFFFF AND PUSH4 0xEE0D96C5 DUP11 DUP10 PUSH1 0x40 MLOAD DUP4 PUSH4 0xFFFFFFFF AND PUSH1 0xE0 SHL DUP2 MSTORE PUSH1 0x4 ADD PUSH2 0x104E SWAP3 SWAP2 SWAP1 PUSH2 0x5079 JUMP JUMPDEST PUSH0 PUSH1 0x40 MLOAD DUP1 DUP4 SUB DUP2 DUP7 GAS STATICCALL ISZERO DUP1 ISZERO PUSH2 0x1068 JUMPI RETURNDATASIZE PUSH0 PUSH0 RETURNDATACOPY RETURNDATASIZE PUSH0 REVERT JUMPDEST POP POP POP POP PUSH1 0x40 MLOAD RETURNDATASIZE PUSH0 DUP3 RETURNDATACOPY RETURNDATASIZE PUSH1 0x1F NOT PUSH1 0x1F DUP3 ADD AND DUP3 ADD DUP1 PUSH1 0x40 MSTORE POP DUP2 ADD SWAP1 PUSH2 0x1090 SWAP2 SWAP1 PUSH2 0x524E JUMP JUMPDEST SWAP2 POP SWAP2 POP PUSH0 DUP9 PUSH20 0xFFFFFFFFFFFFFFFFFFFFFFFFFFFFFFFFFFFFFFFF AND PUSH4 0x18160DDD PUSH1 0x40 MLOAD DUP2 PUSH4 0xFFFFFFFF AND PUSH1 0xE0 SHL DUP2 MSTORE PUSH1 0x4 ADD PUSH1 0x20 PUSH1 0x40 MLOAD DUP1 DUP4 SUB DUP2 DUP7 GAS STATICCALL ISZERO DUP1 ISZERO PUSH2 0x10DE JUMPI RETURNDATASIZE PUSH0 PUSH0 RETURNDATACOPY RETURNDATASIZE PUSH0 REVERT JUMPDEST POP POP POP POP PUSH1 0x40 MLOAD RETURNDATASIZE PUSH1 0x1F NOT PUSH1 0x1F DUP3 ADD AND DUP3 ADD DUP1 PUSH1 0x40 MSTORE POP DUP2 ADD SWAP1 PUSH2 0x1102 SWAP2 SWAP1 PUSH2 0x52A8 JUMP JUMPDEST SWAP1 POP PUSH0 PUSH2 0x1111 DUP12 DUP7 DUP7 DUP7 PUSH2 0x1F75 JUMP JUMPDEST SWAP1 POP PUSH2 0x111B PUSH2 0x26A6 JUMP JUMPDEST PUSH20 0xFFFFFFFFFFFFFFFFFFFFFFFFFFFFFFFFFFFFFFFF AND PUSH4 0x1623306B DUP7 DUP4 DUP13 PUSH1 0x1 PUSH1 0x17 SWAP1 SLOAD SWAP1 PUSH2 0x100 EXP SWAP1 DIV PUSH4 0xFFFFFFFF AND PUSH1 0x40 MLOAD DUP6 PUSH4 0xFFFFFFFF AND PUSH1 0xE0 SHL DUP2 MSTORE PUSH1 0x4 ADD PUSH2 0x116A SWAP4 SWAP3 SWAP2 SWAP1 PUSH2 0x53A8 JUMP JUMPDEST PUSH0 PUSH1 0x40 MLOAD DUP1 DUP4 SUB DUP2 DUP6 DUP9 DUP1 EXTCODESIZE ISZERO DUP1 ISZERO PUSH2 0x1181 JUMPI PUSH0 PUSH0 REVERT JUMPDEST POP GAS CALL ISZERO DUP1 ISZERO PUSH2 0x1193 JUMPI RETURNDATASIZE PUSH0 PUSH0 RETURNDATACOPY RETURNDATASIZE PUSH0 REVERT JUMPDEST POP POP POP POP POP PUSH0 PUSH2 0x11A1 PUSH2 0x1F31 JUMP JUMPDEST PUSH20 0xFFFFFFFFFFFFFFFFFFFFFFFFFFFFFFFFFFFFFFFF AND PUSH4 0xEE0D96C5 DUP14 DUP13 PUSH1 0x40 MLOAD DUP4 PUSH4 0xFFFFFFFF AND PUSH1 0xE0 SHL DUP2 MSTORE PUSH1 0x4 ADD PUSH2 0x11DB SWAP3 SWAP2 SWAP1 PUSH2 0x5079 JUMP JUMPDEST PUSH0 PUSH1 0x40 MLOAD DUP1 DUP4 SUB DUP2 DUP7 GAS STATICCALL ISZERO DUP1 ISZERO PUSH2 0x11F5 JUMPI RETURNDATASIZE PUSH0 PUSH0 RETURNDATACOPY RETURNDATASIZE PUSH0 REVERT JUMPDEST POP POP POP POP PUSH1 0x40 MLOAD RETURNDATASIZE PUSH0 DUP3 RETURNDATACOPY RETURNDATASIZE PUSH1 0x1F NOT PUSH1 0x1F DUP3 ADD AND DUP3 ADD DUP1 PUSH1 0x40 MSTORE POP DUP2 ADD SWAP1 PUSH2 0x121D SWAP2 SWAP1 PUSH2 0x524E JUMP JUMPDEST SWAP2 POP POP DUP4 DUP2 GT PUSH2 0x1259 JUMPI PUSH1 0x40 MLOAD PUSH32 0x55BE5C2C00000000000000000000000000000000000000000000000000000000 DUP2 MSTORE PUSH1 0x4 ADD PUSH1 0x40 MLOAD DUP1 SWAP2 SUB SWAP1 REVERT JUMPDEST DUP4 DUP2 PUSH2 0x1265 SWAP2 SWAP1 PUSH2 0x5411 JUMP JUMPDEST SWAP7 POP PUSH0 DUP4 SUB PUSH2 0x1344 JUMPI PUSH0 PUSH2 0x1277 PUSH2 0x1F31 JUMP JUMPDEST PUSH20 0xFFFFFFFFFFFFFFFFFFFFFFFFFFFFFFFFFFFFFFFF AND PUSH4 0x812EFC8E DUP16 PUSH1 0x40 MLOAD DUP3 PUSH4 0xFFFFFFFF AND PUSH1 0xE0 SHL DUP2 MSTORE PUSH1 0x4 ADD PUSH2 0x12AF SWAP2 SWAP1 PUSH2 0x4ADC JUMP JUMPDEST PUSH1 0x20 PUSH1 0x40 MLOAD DUP1 DUP4 SUB DUP2 DUP7 GAS STATICCALL ISZERO DUP1 ISZERO PUSH2 0x12CA JUMPI RETURNDATASIZE PUSH0 PUSH0 RETURNDATACOPY RETURNDATASIZE PUSH0 REVERT JUMPDEST POP POP POP POP PUSH1 0x40 MLOAD RETURNDATASIZE PUSH1 0x1F NOT PUSH1 0x1F DUP3 ADD AND DUP3 ADD DUP1 PUSH1 0x40 MSTORE POP DUP2 ADD SWAP1 PUSH2 0x12EE SWAP2 SWAP1 PUSH2 0x52A8 JUMP JUMPDEST SWAP1 POP PUSH0 DUP2 SUB PUSH2 0x1329 JUMPI PUSH1 0x40 MLOAD PUSH32 0x5255248E00000000000000000000000000000000000000000000000000000000 DUP2 MSTORE PUSH1 0x4 ADD PUSH1 0x40 MLOAD DUP1 SWAP2 SUB SWAP1 REVERT JUMPDEST PUSH2 0x133C DUP9 PUSH8 0xDE0B6B3A7640000 DUP4 PUSH2 0x26EA JUMP JUMPDEST SWAP9 POP POP PUSH2 0x1352 JUMP JUMPDEST PUSH2 0x134F DUP8 DUP5 DUP7 PUSH2 0x26EA JUMP JUMPDEST SWAP8 POP JUMPDEST PUSH0 DUP9 SUB PUSH2 0x138B JUMPI PUSH1 0x40 MLOAD PUSH32 0xFCC182F400000000000000000000000000000000000000000000000000000000 DUP2 MSTORE PUSH1 0x4 ADD PUSH1 0x40 MLOAD DUP1 SWAP2 SUB SWAP1 REVERT JUMPDEST DUP11 PUSH20 0xFFFFFFFFFFFFFFFFFFFFFFFFFFFFFFFFFFFFFFFF AND PUSH4 0x40C10F19 DUP11 DUP11 PUSH1 0x40 MLOAD DUP4 PUSH4 0xFFFFFFFF AND PUSH1 0xE0 SHL DUP2 MSTORE PUSH1 0x4 ADD PUSH2 0x13C6 SWAP3 SWAP2 SWAP1 PUSH2 0x5444 JUMP JUMPDEST PUSH0 PUSH1 0x40 MLOAD DUP1 DUP4 SUB DUP2 PUSH0 DUP8 DUP1 EXTCODESIZE ISZERO DUP1 ISZERO PUSH2 0x13DD JUMPI PUSH0 PUSH0 REVERT JUMPDEST POP GAS CALL ISZERO DUP1 ISZERO PUSH2 0x13EF JUMPI RETURNDATASIZE PUSH0 PUSH0 RETURNDATACOPY RETURNDATASIZE PUSH0 REVERT JUMPDEST POP POP POP POP POP POP POP POP POP POP SWAP6 POP SWAP6 SWAP4 POP POP POP POP JUMP JUMPDEST PUSH0 SELFBALANCE SWAP1 POP PUSH0 DUP2 GT ISZERO PUSH2 0x141A JUMPI PUSH2 0x1419 DUP3 DUP3 PUSH2 0x27F4 JUMP JUMPDEST JUMPDEST POP POP JUMP JUMPDEST PUSH0 DUP3 PUSH1 0x40 ADD MLOAD MLOAD SWAP1 POP PUSH0 DUP2 PUSH8 0xFFFFFFFFFFFFFFFF DUP2 GT ISZERO PUSH2 0x1442 JUMPI PUSH2 0x1441 PUSH2 0x4592 JUMP JUMPDEST JUMPDEST PUSH1 0x40 MLOAD SWAP1 DUP1 DUP3 MSTORE DUP1 PUSH1 0x20 MUL PUSH1 0x20 ADD DUP3 ADD PUSH1 0x40 MSTORE DUP1 ISZERO PUSH2 0x147B JUMPI DUP2 PUSH1 0x20 ADD JUMPDEST PUSH2 0x1468 PUSH2 0x430E JUMP JUMPDEST DUP2 MSTORE PUSH1 0x20 ADD SWAP1 PUSH1 0x1 SWAP1 SUB SWAP1 DUP2 PUSH2 0x1460 JUMPI SWAP1 POP JUMPDEST POP SWAP1 POP PUSH0 PUSH0 SWAP1 POP JUMPDEST DUP3 DUP2 LT ISZERO PUSH2 0x1581 JUMPI PUSH0 DUP6 PUSH1 0x40 ADD MLOAD DUP3 DUP2 MLOAD DUP2 LT PUSH2 0x14A3 JUMPI PUSH2 0x14A2 PUSH2 0x546B JUMP JUMPDEST JUMPDEST PUSH1 0x20 MUL PUSH1 0x20 ADD ADD MLOAD PUSH0 ADD MLOAD SWAP1 POP PUSH0 DUP2 PUSH20 0xFFFFFFFFFFFFFFFFFFFFFFFFFFFFFFFFFFFFFFFF AND PUSH4 0x70A08231 DUP8 PUSH1 0x40 MLOAD DUP3 PUSH4 0xFFFFFFFF AND PUSH1 0xE0 SHL DUP2 MSTORE PUSH1 0x4 ADD PUSH2 0x14EA SWAP2 SWAP1 PUSH2 0x470C JUMP JUMPDEST PUSH1 0x20 PUSH1 0x40 MLOAD DUP1 DUP4 SUB DUP2 DUP7 GAS STATICCALL ISZERO DUP1 ISZERO PUSH2 0x1505 JUMPI RETURNDATASIZE PUSH0 PUSH0 RETURNDATACOPY RETURNDATASIZE PUSH0 REVERT JUMPDEST POP POP POP POP PUSH1 0x40 MLOAD RETURNDATASIZE PUSH1 0x1F NOT PUSH1 0x1F DUP3 ADD AND DUP3 ADD DUP1 PUSH1 0x40 MSTORE POP DUP2 ADD SWAP1 PUSH2 0x1529 SWAP2 SWAP1 PUSH2 0x52A8 JUMP JUMPDEST SWAP1 POP PUSH1 0x40 MLOAD DUP1 PUSH1 0x40 ADD PUSH1 0x40 MSTORE DUP1 DUP4 PUSH20 0xFFFFFFFFFFFFFFFFFFFFFFFFFFFFFFFFFFFFFFFF AND DUP2 MSTORE PUSH1 0x20 ADD DUP3 DUP2 MSTORE POP DUP5 DUP5 DUP2 MLOAD DUP2 LT PUSH2 0x1569 JUMPI PUSH2 0x1568 PUSH2 0x546B JUMP JUMPDEST JUMPDEST PUSH1 0x20 MUL PUSH1 0x20 ADD ADD DUP2 SWAP1 MSTORE POP DUP3 PUSH1 0x1 ADD SWAP3 POP POP POP PUSH2 0x1483 JUMP JUMPDEST POP PUSH32 0x8D3365949F9A612EA706C5F1C4DDFE54D1F631D8557335914D89CD775A792CDA DUP6 DUP3 PUSH1 0x40 MLOAD PUSH2 0x15B3 SWAP3 SWAP2 SWAP1 PUSH2 0x557C JUMP JUMPDEST PUSH1 0x40 MLOAD DUP1 SWAP2 SUB SWAP1 LOG1 POP POP POP POP POP JUMP JUMPDEST PUSH1 0x1 PUSH0 DUP2 SWAP1 SSTORE POP JUMP JUMPDEST PUSH0 PUSH20 0xFFFFFFFFFFFFFFFFFFFFFFFFFFFFFFFFFFFFFFFF AND DUP2 PUSH20 0xFFFFFFFFFFFFFFFFFFFFFFFFFFFFFFFFFFFFFFFF AND SUB PUSH2 0x1639 JUMPI PUSH1 0x40 MLOAD PUSH32 0x8C379A000000000000000000000000000000000000000000000000000000000 DUP2 MSTORE PUSH1 0x4 ADD PUSH2 0x1630 SWAP1 PUSH2 0x55F4 JUMP JUMPDEST PUSH1 0x40 MLOAD DUP1 SWAP2 SUB SWAP1 REVERT JUMPDEST PUSH0 DUP2 PUSH20 0xFFFFFFFFFFFFFFFFFFFFFFFFFFFFFFFFFFFFFFFF AND EXTCODESIZE GT PUSH2 0x1692 JUMPI PUSH1 0x40 MLOAD PUSH32 0x8C379A000000000000000000000000000000000000000000000000000000000 DUP2 MSTORE PUSH1 0x4 ADD PUSH2 0x1689 SWAP1 PUSH2 0x565C JUMP JUMPDEST PUSH1 0x40 MLOAD DUP1 SWAP2 SUB SWAP1 REVERT JUMPDEST DUP1 PUSH20 0xFFFFFFFFFFFFFFFFFFFFFFFFFFFFFFFFFFFFFFFF AND PUSH4 0x8DA5CB5B PUSH1 0x40 MLOAD DUP2 PUSH4 0xFFFFFFFF AND PUSH1 0xE0 SHL DUP2 MSTORE PUSH1 0x4 ADD PUSH1 0x20 PUSH1 0x40 MLOAD DUP1 DUP4 SUB DUP2 DUP7 GAS STATICCALL SWAP3 POP POP POP DUP1 ISZERO PUSH2 0x16FA JUMPI POP PUSH1 0x40 MLOAD RETURNDATASIZE PUSH1 0x1F NOT PUSH1 0x1F DUP3 ADD AND DUP3 ADD DUP1 PUSH1 0x40 MSTORE POP DUP2 ADD SWAP1 PUSH2 0x16F7 SWAP2 SWAP1 PUSH2 0x49C2 JUMP JUMPDEST PUSH1 0x1 JUMPDEST PUSH2 0x1739 JUMPI PUSH1 0x40 MLOAD PUSH32 0x8C379A000000000000000000000000000000000000000000000000000000000 DUP2 MSTORE PUSH1 0x4 ADD PUSH2 0x1730 SWAP1 PUSH2 0x56EA JUMP JUMPDEST PUSH1 0x40 MLOAD DUP1 SWAP2 SUB SWAP1 REVERT JUMPDEST DUP2 PUSH1 0x1 PUSH0 PUSH2 0x100 EXP DUP2 SLOAD DUP2 PUSH20 0xFFFFFFFFFFFFFFFFFFFFFFFFFFFFFFFFFFFFFFFF MUL NOT AND SWAP1 DUP4 PUSH20 0xFFFFFFFFFFFFFFFFFFFFFFFFFFFFFFFFFFFFFFFF AND MUL OR SWAP1 SSTORE POP POP POP JUMP JUMPDEST PUSH0 PUSH0 DUP6 PUSH20 0xFFFFFFFFFFFFFFFFFFFFFFFFFFFFFFFFFFFFFFFF AND PUSH4 0x18160DDD PUSH1 0x40 MLOAD DUP2 PUSH4 0xFFFFFFFF AND PUSH1 0xE0 SHL DUP2 MSTORE PUSH1 0x4 ADD PUSH1 0x20 PUSH1 0x40 MLOAD DUP1 DUP4 SUB DUP2 DUP7 GAS STATICCALL ISZERO DUP1 ISZERO PUSH2 0x17C8 JUMPI RETURNDATASIZE PUSH0 PUSH0 RETURNDATACOPY RETURNDATASIZE PUSH0 REVERT JUMPDEST POP POP POP POP PUSH1 0x40 MLOAD RETURNDATASIZE PUSH1 0x1F NOT PUSH1 0x1F DUP3 ADD AND DUP3 ADD DUP1 PUSH1 0x40 MSTORE POP DUP2 ADD SWAP1 PUSH2 0x17EC SWAP2 SWAP1 PUSH2 0x52A8 JUMP JUMPDEST SWAP1 POP PUSH0 DUP2 SUB PUSH2 0x1827 JUMPI PUSH1 0x40 MLOAD PUSH32 0x9FBBA64F00000000000000000000000000000000000000000000000000000000 DUP2 MSTORE PUSH1 0x4 ADD PUSH1 0x40 MLOAD DUP1 SWAP2 SUB SWAP1 REVERT JUMPDEST PUSH0 PUSH2 0x1830 PUSH2 0x1F31 JUMP JUMPDEST PUSH20 0xFFFFFFFFFFFFFFFFFFFFFFFFFFFFFFFFFFFFFFFF AND PUSH4 0x812EFC8E DUP11 PUSH1 0x40 MLOAD DUP3 PUSH4 0xFFFFFFFF AND PUSH1 0xE0 SHL DUP2 MSTORE PUSH1 0x4 ADD PUSH2 0x1868 SWAP2 SWAP1 PUSH2 0x4ADC JUMP JUMPDEST PUSH1 0x20 PUSH1 0x40 MLOAD DUP1 DUP4 SUB DUP2 DUP7 GAS STATICCALL ISZERO DUP1 ISZERO PUSH2 0x1883 JUMPI RETURNDATASIZE PUSH0 PUSH0 RETURNDATACOPY RETURNDATASIZE PUSH0 REVERT JUMPDEST POP POP POP POP PUSH1 0x40 MLOAD RETURNDATASIZE PUSH1 0x1F NOT PUSH1 0x1F DUP3 ADD AND DUP3 ADD DUP1 PUSH1 0x40 MSTORE POP DUP2 ADD SWAP1 PUSH2 0x18A7 SWAP2 SWAP1 PUSH2 0x52A8 JUMP JUMPDEST SWAP1 POP PUSH0 DUP2 SUB PUSH2 0x18E2 JUMPI PUSH1 0x40 MLOAD PUSH32 0x5255248E00000000000000000000000000000000000000000000000000000000 DUP2 MSTORE PUSH1 0x4 ADD PUSH1 0x40 MLOAD DUP1 SWAP2 SUB SWAP1 REVERT JUMPDEST PUSH0 PUSH2 0x18F6 DUP7 DUP4 PUSH8 0xDE0B6B3A7640000 PUSH2 0x26EA JUMP JUMPDEST SWAP1 POP DUP8 PUSH20 0xFFFFFFFFFFFFFFFFFFFFFFFFFFFFFFFFFFFFFFFF AND PUSH4 0x9DC29FAC CALLER DUP9 PUSH1 0x40 MLOAD DUP4 PUSH4 0xFFFFFFFF AND PUSH1 0xE0 SHL DUP2 MSTORE PUSH1 0x4 ADD PUSH2 0x1933 SWAP3 SWAP2 SWAP1 PUSH2 0x5444 JUMP JUMPDEST PUSH0 PUSH1 0x40 MLOAD DUP1 DUP4 SUB DUP2 PUSH0 DUP8 DUP1 EXTCODESIZE ISZERO DUP1 ISZERO PUSH2 0x194A JUMPI PUSH0 PUSH0 REVERT JUMPDEST POP GAS CALL ISZERO DUP1 ISZERO PUSH2 0x195C JUMPI RETURNDATASIZE PUSH0 PUSH0 RETURNDATACOPY RETURNDATASIZE PUSH0 REVERT JUMPDEST POP POP POP POP PUSH0 PUSH2 0x196C DUP11 DUP10 DUP5 PUSH2 0x290B JUMP JUMPDEST SWAP1 POP PUSH0 SELFBALANCE SWAP1 POP PUSH2 0x197A PUSH2 0x26A6 JUMP JUMPDEST PUSH20 0xFFFFFFFFFFFFFFFFFFFFFFFFFFFFFFFFFFFFFFFF AND PUSH4 0x3814BC6E DUP4 ADDRESS PUSH1 0x1 PUSH1 0x17 SWAP1 SLOAD SWAP1 PUSH2 0x100 EXP SWAP1 DIV PUSH4 0xFFFFFFFF AND PUSH1 0x1 PUSH1 0x40 MLOAD DUP6 PUSH4 0xFFFFFFFF AND PUSH1 0xE0 SHL DUP2 MSTORE PUSH1 0x4 ADD PUSH2 0x19CB SWAP5 SWAP4 SWAP3 SWAP2 SWAP1 PUSH2 0x57EC JUMP JUMPDEST PUSH0 PUSH1 0x40 MLOAD DUP1 DUP4 SUB DUP2 PUSH0 DUP8 DUP1 EXTCODESIZE ISZERO DUP1 ISZERO PUSH2 0x19E2 JUMPI PUSH0 PUSH0 REVERT JUMPDEST POP GAS CALL ISZERO DUP1 ISZERO PUSH2 0x19F4 JUMPI RETURNDATASIZE PUSH0 PUSH0 RETURNDATACOPY RETURNDATASIZE PUSH0 REVERT JUMPDEST POP POP POP POP PUSH0 SELFBALANCE SWAP1 POP PUSH0 DUP3 DUP3 GT PUSH2 0x1A0A JUMPI PUSH0 PUSH2 0x1A17 JUMP JUMPDEST DUP3 DUP3 PUSH2 0x1A16 SWAP2 SWAP1 PUSH2 0x5411 JUMP JUMPDEST JUMPDEST SWAP1 POP PUSH0 DUP2 SUB PUSH2 0x1A52 JUMPI PUSH1 0x40 MLOAD PUSH32 0x1F2A200500000000000000000000000000000000000000000000000000000000 DUP2 MSTORE PUSH1 0x4 ADD PUSH1 0x40 MLOAD DUP1 SWAP2 SUB SWAP1 REVERT JUMPDEST PUSH0 PUSH2 0x1A5C DUP3 PUSH2 0x1E3C JUMP JUMPDEST SWAP1 POP PUSH2 0x1A68 DUP11 DUP3 PUSH2 0x27F4 JUMP JUMPDEST DUP1 SWAP9 POP POP POP POP POP POP POP POP POP SWAP7 SWAP6 POP POP POP POP POP POP JUMP JUMPDEST PUSH0 PUSH0 PUSH2 0x1A89 DUP5 DUP5 PUSH2 0x386D JUMP JUMPDEST SWAP2 POP SWAP2 POP PUSH0 PUSH2 0x1A96 PUSH2 0x26A6 JUMP JUMPDEST SWAP1 POP PUSH0 SELFBALANCE SWAP1 POP PUSH0 PUSH0 SWAP1 POP JUMPDEST DUP4 DUP2 LT ISZERO PUSH2 0x1B59 JUMPI DUP6 PUSH20 0xFFFFFFFFFFFFFFFFFFFFFFFFFFFFFFFFFFFFFFFF AND PUSH4 0x5C833BFD DUP7 DUP4 DUP2 MLOAD DUP2 LT PUSH2 0x1AD8 JUMPI PUSH2 0x1AD7 PUSH2 0x546B JUMP JUMPDEST JUMPDEST PUSH1 0x20 MUL PUSH1 0x20 ADD ADD MLOAD PUSH0 ADD MLOAD DUP8 DUP5 DUP2 MLOAD DUP2 LT PUSH2 0x1AF6 JUMPI PUSH2 0x1AF5 PUSH2 0x546B JUMP JUMPDEST JUMPDEST PUSH1 0x20 MUL PUSH1 0x20 ADD ADD MLOAD PUSH1 0x20 ADD MLOAD DUP7 PUSH1 0x40 MLOAD DUP5 PUSH4 0xFFFFFFFF AND PUSH1 0xE0 SHL DUP2 MSTORE PUSH1 0x4 ADD PUSH2 0x1B21 SWAP4 SWAP3 SWAP2 SWAP1 PUSH2 0x5836 JUMP JUMPDEST PUSH0 PUSH1 0x40 MLOAD DUP1 DUP4 SUB DUP2 PUSH0 DUP8 DUP1 EXTCODESIZE ISZERO DUP1 ISZERO PUSH2 0x1B38 JUMPI PUSH0 PUSH0 REVERT JUMPDEST POP GAS CALL ISZERO DUP1 ISZERO PUSH2 0x1B4A JUMPI RETURNDATASIZE PUSH0 PUSH0 RETURNDATACOPY RETURNDATASIZE PUSH0 REVERT JUMPDEST POP POP POP POP DUP1 PUSH1 0x1 ADD SWAP1 POP PUSH2 0x1AA1 JUMP JUMPDEST POP PUSH2 0x1B62 PUSH2 0x26A6 JUMP JUMPDEST PUSH20 0xFFFFFFFFFFFFFFFFFFFFFFFFFFFFFFFFFFFFFFFF AND PUSH4 0x3814BC6E DUP6 ADDRESS PUSH1 0x1 PUSH1 0x17 SWAP1 SLOAD SWAP1 PUSH2 0x100 EXP SWAP1 DIV PUSH4 0xFFFFFFFF AND PUSH1 0x1 PUSH1 0x40 MLOAD DUP6 PUSH4 0xFFFFFFFF AND PUSH1 0xE0 SHL DUP2 MSTORE PUSH1 0x4 ADD PUSH2 0x1BB3 SWAP5 SWAP4 SWAP3 SWAP2 SWAP1 PUSH2 0x57EC JUMP JUMPDEST PUSH0 PUSH1 0x40 MLOAD DUP1 DUP4 SUB DUP2 PUSH0 DUP8 DUP1 EXTCODESIZE ISZERO DUP1 ISZERO PUSH2 0x1BCA JUMPI PUSH0 PUSH0 REVERT JUMPDEST POP GAS CALL ISZERO DUP1 ISZERO PUSH2 0x1BDC JUMPI RETURNDATASIZE PUSH0 PUSH0 RETURNDATACOPY RETURNDATASIZE PUSH0 REVERT JUMPDEST POP POP POP POP PUSH0 SELFBALANCE SWAP1 POP PUSH0 DUP3 DUP3 GT PUSH2 0x1BF2 JUMPI PUSH0 PUSH2 0x1BFF JUMP JUMPDEST DUP3 DUP3 PUSH2 0x1BFE SWAP2 SWAP1 PUSH2 0x5411 JUMP JUMPDEST JUMPDEST SWAP1 POP PUSH0 DUP2 SUB PUSH2 0x1C3A JUMPI PUSH1 0x40 MLOAD PUSH32 0x1F2A200500000000000000000000000000000000000000000000000000000000 DUP2 MSTORE PUSH1 0x4 ADD PUSH1 0x40 MLOAD DUP1 SWAP2 SUB SWAP1 REVERT JUMPDEST PUSH0 PUSH0 PUSH2 0x1C44 PUSH2 0x1F31 JUMP JUMPDEST PUSH20 0xFFFFFFFFFFFFFFFFFFFFFFFFFFFFFFFFFFFFFFFF AND PUSH4 0xEE0D96C5 DUP12 DUP12 PUSH1 0x40 MLOAD DUP4 PUSH4 0xFFFFFFFF AND PUSH1 0xE0 SHL DUP2 MSTORE PUSH1 0x4 ADD PUSH2 0x1C7E SWAP3 SWAP2 SWAP1 PUSH2 0x5079 JUMP JUMPDEST PUSH0 PUSH1 0x40 MLOAD DUP1 DUP4 SUB DUP2 DUP7 GAS STATICCALL ISZERO DUP1 ISZERO PUSH2 0x1C98 JUMPI RETURNDATASIZE PUSH0 PUSH0 RETURNDATACOPY RETURNDATASIZE PUSH0 REVERT JUMPDEST POP POP POP POP PUSH1 0x40 MLOAD RETURNDATASIZE PUSH0 DUP3 RETURNDATACOPY RETURNDATASIZE PUSH1 0x1F NOT PUSH1 0x1F DUP3 ADD AND DUP3 ADD DUP1 PUSH1 0x40 MSTORE POP DUP2 ADD SWAP1 PUSH2 0x1CC0 SWAP2 SWAP1 PUSH2 0x524E JUMP JUMPDEST SWAP2 POP SWAP2 POP PUSH0 PUSH2 0x1CD1 DUP12 DUP6 DUP6 DUP6 PUSH2 0x1F75 JUMP JUMPDEST SWAP1 POP PUSH2 0x1CDB PUSH2 0x26A6 JUMP JUMPDEST PUSH20 0xFFFFFFFFFFFFFFFFFFFFFFFFFFFFFFFFFFFFFFFF AND PUSH4 0x1623306B DUP6 DUP4 DUP14 PUSH1 0x1 PUSH1 0x17 SWAP1 SLOAD SWAP1 PUSH2 0x100 EXP SWAP1 DIV PUSH4 0xFFFFFFFF AND PUSH1 0x40 MLOAD DUP6 PUSH4 0xFFFFFFFF AND PUSH1 0xE0 SHL DUP2 MSTORE PUSH1 0x4 ADD PUSH2 0x1D2A SWAP4 SWAP3 SWAP2 SWAP1 PUSH2 0x53A8 JUMP JUMPDEST PUSH0 PUSH1 0x40 MLOAD DUP1 DUP4 SUB DUP2 DUP6 DUP9 DUP1 EXTCODESIZE ISZERO DUP1 ISZERO PUSH2 0x1D41 JUMPI PUSH0 PUSH0 REVERT JUMPDEST POP GAS CALL ISZERO DUP1 ISZERO PUSH2 0x1D53 JUMPI RETURNDATASIZE PUSH0 PUSH0 RETURNDATACOPY RETURNDATASIZE PUSH0 REVERT JUMPDEST POP POP POP POP POP POP POP POP POP POP POP POP POP POP POP POP JUMP JUMPDEST PUSH0 PUSH20 0xFFFFFFFFFFFFFFFFFFFFFFFFFFFFFFFFFFFFFFFF AND DUP3 PUSH20 0xFFFFFFFFFFFFFFFFFFFFFFFFFFFFFFFFFFFFFFFF AND SUB PUSH2 0x1DA7 JUMPI PUSH2 0x1DA2 DUP2 SELFBALANCE PUSH2 0x27F4 JUMP JUMPDEST PUSH2 0x1E38 JUMP JUMPDEST PUSH0 DUP3 PUSH20 0xFFFFFFFFFFFFFFFFFFFFFFFFFFFFFFFFFFFFFFFF AND PUSH4 0x70A08231 ADDRESS PUSH1 0x40 MLOAD DUP3 PUSH4 0xFFFFFFFF AND PUSH1 0xE0 SHL DUP2 MSTORE PUSH1 0x4 ADD PUSH2 0x1DE1 SWAP2 SWAP1 PUSH2 0x470C JUMP JUMPDEST PUSH1 0x20 PUSH1 0x40 MLOAD DUP1 DUP4 SUB DUP2 DUP7 GAS STATICCALL ISZERO DUP1 ISZERO PUSH2 0x1DFC JUMPI RETURNDATASIZE PUSH0 PUSH0 RETURNDATACOPY RETURNDATASIZE PUSH0 REVERT JUMPDEST POP POP POP POP PUSH1 0x40 MLOAD RETURNDATASIZE PUSH1 0x1F NOT PUSH1 0x1F DUP3 ADD AND DUP3 ADD DUP1 PUSH1 0x40 MSTORE POP DUP2 ADD SWAP1 PUSH2 0x1E20 SWAP2 SWAP1 PUSH2 0x52A8 JUMP JUMPDEST SWAP1 POP PUSH0 DUP2 GT ISZERO PUSH2 0x1E36 JUMPI PUSH2 0x1E35 DUP4 DUP4 DUP4 PUSH2 0x3C90 JUMP JUMPDEST JUMPDEST POP JUMPDEST POP POP JUMP JUMPDEST PUSH0 PUSH0 PUSH2 0x1E7C PUSH1 0x40 MLOAD DUP1 PUSH1 0x40 ADD PUSH1 0x40 MSTORE DUP1 PUSH1 0x5 DUP2 MSTORE PUSH1 0x20 ADD PUSH32 0x7661756C74000000000000000000000000000000000000000000000000000000 DUP2 MSTORE POP PUSH2 0x611 JUMP JUMPDEST SWAP1 POP PUSH0 PUSH1 0x1 PUSH1 0x15 SWAP1 SLOAD SWAP1 PUSH2 0x100 EXP SWAP1 DIV PUSH2 0xFFFF AND SWAP1 POP PUSH0 PUSH20 0xFFFFFFFFFFFFFFFFFFFFFFFFFFFFFFFFFFFFFFFF AND DUP3 PUSH20 0xFFFFFFFFFFFFFFFFFFFFFFFFFFFFFFFFFFFFFFFF AND EQ DUP1 PUSH2 0x1ECF JUMPI POP PUSH0 DUP2 PUSH2 0xFFFF AND EQ JUMPDEST ISZERO PUSH2 0x1EDE JUMPI DUP4 SWAP3 POP POP POP PUSH2 0x1F2C JUMP JUMPDEST PUSH0 PUSH2 0x2710 DUP3 PUSH2 0xFFFF AND DUP7 PUSH2 0x1EF2 SWAP2 SWAP1 PUSH2 0x586B JUMP JUMPDEST PUSH2 0x1EFC SWAP2 SWAP1 PUSH2 0x58D9 JUMP JUMPDEST SWAP1 POP PUSH0 DUP2 EQ PUSH2 0x1F25 JUMPI PUSH2 0x1F0F DUP4 DUP3 PUSH2 0x27F4 JUMP JUMPDEST DUP1 DUP6 PUSH2 0x1F1B SWAP2 SWAP1 PUSH2 0x5411 JUMP JUMPDEST SWAP4 POP POP POP POP PUSH2 0x1F2C JUMP JUMPDEST DUP5 SWAP4 POP POP POP POP JUMPDEST SWAP2 SWAP1 POP JUMP JUMPDEST PUSH0 PUSH2 0x1F70 PUSH1 0x40 MLOAD DUP1 PUSH1 0x40 ADD PUSH1 0x40 MSTORE DUP1 PUSH1 0xA DUP2 MSTORE PUSH1 0x20 ADD PUSH32 0x6574662D6F7261636C6500000000000000000000000000000000000000000000 DUP2 MSTORE POP PUSH2 0x611 JUMP JUMPDEST SWAP1 POP SWAP1 JUMP JUMPDEST PUSH1 0x60 PUSH0 DUP5 DUP4 PUSH2 0x1F84 SWAP2 SWAP1 PUSH2 0x5909 JUMP JUMPDEST SWAP1 POP PUSH0 DUP7 PUSH1 0x40 ADD MLOAD MLOAD SWAP1 POP PUSH0 DUP2 PUSH8 0xFFFFFFFFFFFFFFFF DUP2 GT ISZERO PUSH2 0x1FAA JUMPI PUSH2 0x1FA9 PUSH2 0x4592 JUMP JUMPDEST JUMPDEST PUSH1 0x40 MLOAD SWAP1 DUP1 DUP3 MSTORE DUP1 PUSH1 0x20 MUL PUSH1 0x20 ADD DUP3 ADD PUSH1 0x40 MSTORE DUP1 ISZERO PUSH2 0x1FD8 JUMPI DUP2 PUSH1 0x20 ADD PUSH1 0x20 DUP3 MUL DUP1 CALLDATASIZE DUP4 CALLDATACOPY DUP1 DUP3 ADD SWAP2 POP POP SWAP1 POP JUMPDEST POP SWAP1 POP PUSH0 DUP3 PUSH8 0xFFFFFFFFFFFFFFFF DUP2 GT ISZERO PUSH2 0x1FF6 JUMPI PUSH2 0x1FF5 PUSH2 0x4592 JUMP JUMPDEST JUMPDEST PUSH1 0x40 MLOAD SWAP1 DUP1 DUP3 MSTORE DUP1 PUSH1 0x20 MUL PUSH1 0x20 ADD DUP3 ADD PUSH1 0x40 MSTORE DUP1 ISZERO PUSH2 0x2024 JUMPI DUP2 PUSH1 0x20 ADD PUSH1 0x20 DUP3 MUL DUP1 CALLDATASIZE DUP4 CALLDATACOPY DUP1 DUP3 ADD SWAP2 POP POP SWAP1 POP JUMPDEST POP SWAP1 POP PUSH0 PUSH0 PUSH0 PUSH0 SWAP1 POP JUMPDEST DUP6 DUP2 LT ISZERO PUSH2 0x215F JUMPI PUSH0 PUSH2 0x2710 DUP9 DUP15 PUSH1 0x40 ADD MLOAD DUP5 DUP2 MLOAD DUP2 LT PUSH2 0x2052 JUMPI PUSH2 0x2051 PUSH2 0x546B JUMP JUMPDEST JUMPDEST PUSH1 0x20 MUL PUSH1 0x20 ADD ADD MLOAD PUSH1 0x20 ADD MLOAD PUSH2 0xFFFF AND PUSH2 0x206C SWAP2 SWAP1 PUSH2 0x586B JUMP JUMPDEST PUSH2 0x2076 SWAP2 SWAP1 PUSH2 0x58D9 JUMP JUMPDEST SWAP1 POP PUSH0 DUP12 DUP4 DUP2 MLOAD DUP2 LT PUSH2 0x208C JUMPI PUSH2 0x208B PUSH2 0x546B JUMP JUMPDEST JUMPDEST PUSH1 0x20 MUL PUSH1 0x20 ADD ADD MLOAD PUSH1 0xA0 ADD MLOAD SWAP1 POP DUP1 DUP3 GT ISZERO PUSH2 0x2152 JUMPI PUSH0 DUP2 DUP4 PUSH2 0x20AF SWAP2 SWAP1 PUSH2 0x5411 JUMP JUMPDEST SWAP1 POP DUP13 DUP5 DUP2 MLOAD DUP2 LT PUSH2 0x20C4 JUMPI PUSH2 0x20C3 PUSH2 0x546B JUMP JUMPDEST JUMPDEST PUSH1 0x20 MUL PUSH1 0x20 ADD ADD MLOAD PUSH0 ADD MLOAD DUP9 DUP8 DUP2 MLOAD DUP2 LT PUSH2 0x20E2 JUMPI PUSH2 0x20E1 PUSH2 0x546B JUMP JUMPDEST JUMPDEST PUSH1 0x20 MUL PUSH1 0x20 ADD ADD SWAP1 PUSH20 0xFFFFFFFFFFFFFFFFFFFFFFFFFFFFFFFFFFFFFFFF AND SWAP1 DUP2 PUSH20 0xFFFFFFFFFFFFFFFFFFFFFFFFFFFFFFFFFFFFFFFF AND DUP2 MSTORE POP POP DUP1 DUP8 DUP8 DUP2 MLOAD DUP2 LT PUSH2 0x2130 JUMPI PUSH2 0x212F PUSH2 0x546B JUMP JUMPDEST JUMPDEST PUSH1 0x20 MUL PUSH1 0x20 ADD ADD DUP2 DUP2 MSTORE POP POP DUP1 DUP6 PUSH2 0x2148 SWAP2 SWAP1 PUSH2 0x5909 JUMP JUMPDEST SWAP5 POP DUP6 PUSH1 0x1 ADD SWAP6 POP POP JUMPDEST DUP3 PUSH1 0x1 ADD SWAP3 POP POP POP PUSH2 0x202E JUMP JUMPDEST POP PUSH0 DUP3 SUB PUSH2 0x23D9 JUMPI PUSH0 DUP6 PUSH8 0xFFFFFFFFFFFFFFFF DUP2 GT ISZERO PUSH2 0x2182 JUMPI PUSH2 0x2181 PUSH2 0x4592 JUMP JUMPDEST JUMPDEST PUSH1 0x40 MLOAD SWAP1 DUP1 DUP3 MSTORE DUP1 PUSH1 0x20 MUL PUSH1 0x20 ADD DUP3 ADD PUSH1 0x40 MSTORE DUP1 ISZERO PUSH2 0x21B0 JUMPI DUP2 PUSH1 0x20 ADD PUSH1 0x20 DUP3 MUL DUP1 CALLDATASIZE DUP4 CALLDATACOPY DUP1 DUP3 ADD SWAP2 POP POP SWAP1 POP JUMPDEST POP SWAP1 POP PUSH0 DUP7 PUSH8 0xFFFFFFFFFFFFFFFF DUP2 GT ISZERO PUSH2 0x21CE JUMPI PUSH2 0x21CD PUSH2 0x4592 JUMP JUMPDEST JUMPDEST PUSH1 0x40 MLOAD SWAP1 DUP1 DUP3 MSTORE DUP1 PUSH1 0x20 MUL PUSH1 0x20 ADD DUP3 ADD PUSH1 0x40 MSTORE DUP1 ISZERO PUSH2 0x21FC JUMPI DUP2 PUSH1 0x20 ADD PUSH1 0x20 DUP3 MUL DUP1 CALLDATASIZE DUP4 CALLDATACOPY DUP1 DUP3 ADD SWAP2 POP POP SWAP1 POP JUMPDEST POP SWAP1 POP PUSH0 PUSH0 SWAP1 POP JUMPDEST DUP8 DUP2 LT ISZERO PUSH2 0x225D JUMPI DUP14 PUSH1 0x40 ADD MLOAD DUP2 DUP2 MLOAD DUP2 LT PUSH2 0x2223 JUMPI PUSH2 0x2222 PUSH2 0x546B JUMP JUMPDEST JUMPDEST PUSH1 0x20 MUL PUSH1 0x20 ADD ADD MLOAD PUSH1 0x20 ADD MLOAD PUSH2 0xFFFF AND DUP3 DUP3 DUP2 MLOAD DUP2 LT PUSH2 0x2246 JUMPI PUSH2 0x2245 PUSH2 0x546B JUMP JUMPDEST JUMPDEST PUSH1 0x20 MUL PUSH1 0x20 ADD ADD DUP2 DUP2 MSTORE POP POP DUP1 PUSH1 0x1 ADD SWAP1 POP PUSH2 0x2204 JUMP JUMPDEST POP PUSH2 0x226A DUP2 PUSH2 0x2710 PUSH2 0x3DDF JUMP JUMPDEST SWAP2 POP POP DUP6 PUSH8 0xFFFFFFFFFFFFFFFF DUP2 GT ISZERO PUSH2 0x2287 JUMPI PUSH2 0x2286 PUSH2 0x4592 JUMP JUMPDEST JUMPDEST PUSH1 0x40 MLOAD SWAP1 DUP1 DUP3 MSTORE DUP1 PUSH1 0x20 MUL PUSH1 0x20 ADD DUP3 ADD PUSH1 0x40 MSTORE DUP1 ISZERO PUSH2 0x22C0 JUMPI DUP2 PUSH1 0x20 ADD JUMPDEST PUSH2 0x22AD PUSH2 0x433C JUMP JUMPDEST DUP2 MSTORE PUSH1 0x20 ADD SWAP1 PUSH1 0x1 SWAP1 SUB SWAP1 DUP2 PUSH2 0x22A5 JUMPI SWAP1 POP JUMPDEST POP SWAP8 POP PUSH0 PUSH0 PUSH0 SWAP1 POP JUMPDEST DUP8 DUP2 LT ISZERO PUSH2 0x2390 JUMPI PUSH1 0x40 MLOAD DUP1 PUSH1 0x40 ADD PUSH1 0x40 MSTORE DUP1 DUP14 DUP4 DUP2 MLOAD DUP2 LT PUSH2 0x22EF JUMPI PUSH2 0x22EE PUSH2 0x546B JUMP JUMPDEST JUMPDEST PUSH1 0x20 MUL PUSH1 0x20 ADD ADD MLOAD PUSH0 ADD MLOAD PUSH20 0xFFFFFFFFFFFFFFFFFFFFFFFFFFFFFFFFFFFFFFFF AND DUP2 MSTORE PUSH1 0x20 ADD DUP5 DUP4 DUP2 MLOAD DUP2 LT PUSH2 0x2328 JUMPI PUSH2 0x2327 PUSH2 0x546B JUMP JUMPDEST JUMPDEST PUSH1 0x20 MUL PUSH1 0x20 ADD ADD MLOAD PUSH2 0xFFFF AND DUP2 MSTORE POP DUP11 DUP3 DUP2 MLOAD DUP2 LT PUSH2 0x234A JUMPI PUSH2 0x2349 PUSH2 0x546B JUMP JUMPDEST JUMPDEST PUSH1 0x20 MUL PUSH1 0x20 ADD ADD DUP2 SWAP1 MSTORE POP DUP10 DUP2 DUP2 MLOAD DUP2 LT PUSH2 0x2368 JUMPI PUSH2 0x2367 PUSH2 0x546B JUMP JUMPDEST JUMPDEST PUSH1 0x20 MUL PUSH1 0x20 ADD ADD MLOAD PUSH1 0x20 ADD MLOAD PUSH2 0xFFFF AND DUP3 PUSH2 0x2383 SWAP2 SWAP1 PUSH2 0x5909 JUMP JUMPDEST SWAP2 POP DUP1 PUSH1 0x1 ADD SWAP1 POP PUSH2 0x22C9 JUMP JUMPDEST POP PUSH2 0x2710 DUP2 EQ PUSH2 0x23CC JUMPI PUSH1 0x40 MLOAD PUSH32 0xDEAA01E600000000000000000000000000000000000000000000000000000000 DUP2 MSTORE PUSH1 0x4 ADD PUSH1 0x40 MLOAD DUP1 SWAP2 SUB SWAP1 REVERT JUMPDEST POP POP POP POP POP POP POP POP PUSH2 0x269E JUMP JUMPDEST PUSH0 DUP3 PUSH8 0xFFFFFFFFFFFFFFFF DUP2 GT ISZERO PUSH2 0x23F4 JUMPI PUSH2 0x23F3 PUSH2 0x4592 JUMP JUMPDEST JUMPDEST PUSH1 0x40 MLOAD SWAP1 DUP1 DUP3 MSTORE DUP1 PUSH1 0x20 MUL PUSH1 0x20 ADD DUP3 ADD PUSH1 0x40 MSTORE DUP1 ISZERO PUSH2 0x2422 JUMPI DUP2 PUSH1 0x20 ADD PUSH1 0x20 DUP3 MUL DUP1 CALLDATASIZE DUP4 CALLDATACOPY DUP1 DUP3 ADD SWAP2 POP POP SWAP1 POP JUMPDEST POP SWAP1 POP PUSH0 DUP4 PUSH8 0xFFFFFFFFFFFFFFFF DUP2 GT ISZERO PUSH2 0x2440 JUMPI PUSH2 0x243F PUSH2 0x4592 JUMP JUMPDEST JUMPDEST PUSH1 0x40 MLOAD SWAP1 DUP1 DUP3 MSTORE DUP1 PUSH1 0x20 MUL PUSH1 0x20 ADD DUP3 ADD PUSH1 0x40 MSTORE DUP1 ISZERO PUSH2 0x246E JUMPI DUP2 PUSH1 0x20 ADD PUSH1 0x20 DUP3 MUL DUP1 CALLDATASIZE DUP4 CALLDATACOPY DUP1 DUP3 ADD SWAP2 POP POP SWAP1 POP JUMPDEST POP SWAP1 POP PUSH0 PUSH0 SWAP1 POP JUMPDEST DUP5 DUP2 LT ISZERO PUSH2 0x252B JUMPI DUP7 DUP2 DUP2 MLOAD DUP2 LT PUSH2 0x2491 JUMPI PUSH2 0x2490 PUSH2 0x546B JUMP JUMPDEST JUMPDEST PUSH1 0x20 MUL PUSH1 0x20 ADD ADD MLOAD DUP4 DUP3 DUP2 MLOAD DUP2 LT PUSH2 0x24AC JUMPI PUSH2 0x24AB PUSH2 0x546B JUMP JUMPDEST JUMPDEST PUSH1 0x20 MUL PUSH1 0x20 ADD ADD SWAP1 PUSH20 0xFFFFFFFFFFFFFFFFFFFFFFFFFFFFFFFFFFFFFFFF AND SWAP1 DUP2 PUSH20 0xFFFFFFFFFFFFFFFFFFFFFFFFFFFFFFFFFFFFFFFF AND DUP2 MSTORE POP POP DUP6 DUP2 DUP2 MLOAD DUP2 LT PUSH2 0x24F9 JUMPI PUSH2 0x24F8 PUSH2 0x546B JUMP JUMPDEST JUMPDEST PUSH1 0x20 MUL PUSH1 0x20 ADD ADD MLOAD DUP3 DUP3 DUP2 MLOAD DUP2 LT PUSH2 0x2514 JUMPI PUSH2 0x2513 PUSH2 0x546B JUMP JUMPDEST JUMPDEST PUSH1 0x20 MUL PUSH1 0x20 ADD ADD DUP2 DUP2 MSTORE POP POP DUP1 PUSH1 0x1 ADD SWAP1 POP PUSH2 0x2476 JUMP JUMPDEST POP PUSH0 PUSH2 0x2539 DUP3 PUSH2 0x2710 PUSH2 0x3DDF JUMP JUMPDEST SWAP1 POP DUP5 PUSH8 0xFFFFFFFFFFFFFFFF DUP2 GT ISZERO PUSH2 0x2555 JUMPI PUSH2 0x2554 PUSH2 0x4592 JUMP JUMPDEST JUMPDEST PUSH1 0x40 MLOAD SWAP1 DUP1 DUP3 MSTORE DUP1 PUSH1 0x20 MUL PUSH1 0x20 ADD DUP3 ADD PUSH1 0x40 MSTORE DUP1 ISZERO PUSH2 0x258E JUMPI DUP2 PUSH1 0x20 ADD JUMPDEST PUSH2 0x257B PUSH2 0x433C JUMP JUMPDEST DUP2 MSTORE PUSH1 0x20 ADD SWAP1 PUSH1 0x1 SWAP1 SUB SWAP1 DUP2 PUSH2 0x2573 JUMPI SWAP1 POP JUMPDEST POP SWAP10 POP PUSH0 PUSH0 PUSH0 SWAP1 POP JUMPDEST DUP7 DUP2 LT ISZERO PUSH2 0x2657 JUMPI PUSH1 0x40 MLOAD DUP1 PUSH1 0x40 ADD PUSH1 0x40 MSTORE DUP1 DUP7 DUP4 DUP2 MLOAD DUP2 LT PUSH2 0x25BD JUMPI PUSH2 0x25BC PUSH2 0x546B JUMP JUMPDEST JUMPDEST PUSH1 0x20 MUL PUSH1 0x20 ADD ADD MLOAD PUSH20 0xFFFFFFFFFFFFFFFFFFFFFFFFFFFFFFFFFFFFFFFF AND DUP2 MSTORE PUSH1 0x20 ADD DUP5 DUP4 DUP2 MLOAD DUP2 LT PUSH2 0x25F3 JUMPI PUSH2 0x25F2 PUSH2 0x546B JUMP JUMPDEST JUMPDEST PUSH1 0x20 MUL PUSH1 0x20 ADD ADD MLOAD PUSH2 0xFFFF AND DUP2 MSTORE POP DUP13 DUP3 DUP2 MLOAD DUP2 LT PUSH2 0x2615 JUMPI PUSH2 0x2614 PUSH2 0x546B JUMP JUMPDEST JUMPDEST PUSH1 0x20 MUL PUSH1 0x20 ADD ADD DUP2 SWAP1 MSTORE POP DUP3 DUP2 DUP2 MLOAD DUP2 LT PUSH2 0x2633 JUMPI PUSH2 0x2632 PUSH2 0x546B JUMP JUMPDEST JUMPDEST PUSH1 0x20 MUL PUSH1 0x20 ADD ADD MLOAD PUSH2 0xFFFF AND DUP3 PUSH2 0x264A SWAP2 SWAP1 PUSH2 0x5909 JUMP JUMPDEST SWAP2 POP DUP1 PUSH1 0x1 ADD SWAP1 POP PUSH2 0x2597 JUMP JUMPDEST POP PUSH2 0x2710 DUP2 EQ PUSH2 0x2693 JUMPI PUSH1 0x40 MLOAD PUSH32 0xDEAA01E600000000000000000000000000000000000000000000000000000000 DUP2 MSTORE PUSH1 0x4 ADD PUSH1 0x40 MLOAD DUP1 SWAP2 SUB SWAP1 REVERT JUMPDEST POP POP POP POP POP POP POP POP POP POP JUMPDEST SWAP5 SWAP4 POP POP POP POP JUMP JUMPDEST PUSH0 PUSH2 0x26E5 PUSH1 0x40 MLOAD DUP1 PUSH1 0x40 ADD PUSH1 0x40 MSTORE DUP1 PUSH1 0x11 DUP2 MSTORE PUSH1 0x20 ADD PUSH32 0x6D756C74692D737761702D726F75746572000000000000000000000000000000 DUP2 MSTORE POP PUSH2 0x611 JUMP JUMPDEST SWAP1 POP SWAP1 JUMP JUMPDEST PUSH0 PUSH0 PUSH0 PUSH0 NOT DUP6 DUP8 MULMOD DUP6 DUP8 MUL SWAP3 POP DUP3 DUP2 LT DUP4 DUP3 SUB SUB SWAP2 POP POP PUSH0 DUP2 SUB PUSH2 0x2722 JUMPI DUP4 DUP3 DUP2 PUSH2 0x2718 JUMPI PUSH2 0x2717 PUSH2 0x58AC JUMP JUMPDEST JUMPDEST DIV SWAP3 POP POP POP PUSH2 0x27ED JUMP JUMPDEST DUP1 DUP5 GT PUSH2 0x2764 JUMPI PUSH1 0x40 MLOAD PUSH32 0x8C379A000000000000000000000000000000000000000000000000000000000 DUP2 MSTORE PUSH1 0x4 ADD PUSH2 0x275B SWAP1 PUSH2 0x5986 JUMP JUMPDEST PUSH1 0x40 MLOAD DUP1 SWAP2 SUB SWAP1 REVERT JUMPDEST PUSH0 DUP5 DUP7 DUP9 MULMOD SWAP1 POP DUP3 DUP2 GT DUP3 SUB SWAP2 POP DUP1 DUP4 SUB SWAP3 POP PUSH0 PUSH1 0x1 DUP7 NOT ADD DUP7 AND SWAP1 POP DUP1 DUP7 DIV SWAP6 POP DUP1 DUP5 DIV SWAP4 POP PUSH1 0x1 DUP2 DUP3 PUSH0 SUB DIV ADD SWAP1 POP DUP1 DUP4 MUL DUP5 OR SWAP4 POP PUSH0 PUSH1 0x2 DUP8 PUSH1 0x3 MUL XOR SWAP1 POP DUP1 DUP8 MUL PUSH1 0x2 SUB DUP2 MUL SWAP1 POP DUP1 DUP8 MUL PUSH1 0x2 SUB DUP2 MUL SWAP1 POP DUP1 DUP8 MUL PUSH1 0x2 SUB DUP2 MUL SWAP1 POP DUP1 DUP8 MUL PUSH1 0x2 SUB DUP2 MUL SWAP1 POP DUP1 DUP8 MUL PUSH1 0x2 SUB DUP2 MUL SWAP1 POP DUP1 DUP8 MUL PUSH1 0x2 SUB DUP2 MUL SWAP1 POP DUP1 DUP6 MUL SWAP6 POP POP POP POP POP POP JUMPDEST SWAP4 SWAP3 POP POP POP JUMP JUMPDEST PUSH0 DUP2 SUB PUSH2 0x282D JUMPI PUSH1 0x40 MLOAD PUSH32 0x1F2A200500000000000000000000000000000000000000000000000000000000 DUP2 MSTORE PUSH1 0x4 ADD PUSH1 0x40 MLOAD DUP1 SWAP2 SUB SWAP1 REVERT JUMPDEST DUP1 SELFBALANCE LT ISZERO PUSH2 0x2867 JUMPI PUSH1 0x40 MLOAD PUSH32 0x6A12F10400000000000000000000000000000000000000000000000000000000 DUP2 MSTORE PUSH1 0x4 ADD PUSH1 0x40 MLOAD DUP1 SWAP2 SUB SWAP1 REVERT JUMPDEST PUSH0 DUP3 PUSH20 0xFFFFFFFFFFFFFFFFFFFFFFFFFFFFFFFFFFFFFFFF AND DUP3 PUSH1 0x40 MLOAD PUSH2 0x288C SWAP1 PUSH2 0x59D1 JUMP JUMPDEST PUSH0 PUSH1 0x40 MLOAD DUP1 DUP4 SUB DUP2 DUP6 DUP8 GAS CALL SWAP3 POP POP POP RETURNDATASIZE DUP1 PUSH0 DUP2 EQ PUSH2 0x28C6 JUMPI PUSH1 0x40 MLOAD SWAP2 POP PUSH1 0x1F NOT PUSH1 0x3F RETURNDATASIZE ADD AND DUP3 ADD PUSH1 0x40 MSTORE RETURNDATASIZE DUP3 MSTORE RETURNDATASIZE PUSH0 PUSH1 0x20 DUP5 ADD RETURNDATACOPY PUSH2 0x28CB JUMP JUMPDEST PUSH1 0x60 SWAP2 POP JUMPDEST POP POP SWAP1 POP DUP1 PUSH2 0x2906 JUMPI PUSH1 0x40 MLOAD PUSH32 0xCEF4EED700000000000000000000000000000000000000000000000000000000 DUP2 MSTORE PUSH1 0x4 ADD PUSH1 0x40 MLOAD DUP1 SWAP2 SUB SWAP1 REVERT JUMPDEST POP POP POP JUMP JUMPDEST PUSH1 0x60 PUSH0 PUSH0 PUSH2 0x2917 PUSH2 0x1F31 JUMP JUMPDEST PUSH20 0xFFFFFFFFFFFFFFFFFFFFFFFFFFFFFFFFFFFFFFFF AND PUSH4 0xEE0D96C5 DUP8 DUP8 PUSH1 0x40 MLOAD DUP4 PUSH4 0xFFFFFFFF AND PUSH1 0xE0 SHL DUP2 MSTORE PUSH1 0x4 ADD PUSH2 0x2951 SWAP3 SWAP2 SWAP1 PUSH2 0x5079 JUMP JUMPDEST PUSH0 PUSH1 0x40 MLOAD DUP1 DUP4 SUB DUP2 DUP7 GAS STATICCALL ISZERO DUP1 ISZERO PUSH2 0x296B JUMPI RETURNDATASIZE PUSH0 PUSH0 RETURNDATACOPY RETURNDATASIZE PUSH0 REVERT JUMPDEST POP POP POP POP PUSH1 0x40 MLOAD RETURNDATASIZE PUSH0 DUP3 RETURNDATACOPY RETURNDATASIZE PUSH1 0x1F NOT PUSH1 0x1F DUP3 ADD AND DUP3 ADD DUP1 PUSH1 0x40 MSTORE POP DUP2 ADD SWAP1 PUSH2 0x2993 SWAP2 SWAP1 PUSH2 0x524E JUMP JUMPDEST SWAP2 POP SWAP2 POP PUSH0 DUP7 PUSH1 0x40 ADD MLOAD MLOAD SWAP1 POP PUSH2 0x29A8 PUSH2 0x436E JUMP JUMPDEST DUP2 PUSH8 0xFFFFFFFFFFFFFFFF DUP2 GT ISZERO PUSH2 0x29C2 JUMPI PUSH2 0x29C1 PUSH2 0x4592 JUMP JUMPDEST JUMPDEST PUSH1 0x40 MLOAD SWAP1 DUP1 DUP3 MSTORE DUP1 PUSH1 0x20 MUL PUSH1 0x20 ADD DUP3 ADD PUSH1 0x40 MSTORE DUP1 ISZERO PUSH2 0x29FB JUMPI DUP2 PUSH1 0x20 ADD JUMPDEST PUSH2 0x29E8 PUSH2 0x438D JUMP JUMPDEST DUP2 MSTORE PUSH1 0x20 ADD SWAP1 PUSH1 0x1 SWAP1 SUB SWAP1 DUP2 PUSH2 0x29E0 JUMPI SWAP1 POP JUMPDEST POP DUP2 PUSH0 ADD DUP2 SWAP1 MSTORE POP PUSH0 PUSH0 SWAP1 POP JUMPDEST DUP3 DUP2 LT DUP1 ISZERO PUSH2 0x2A1A JUMPI POP DUP7 DUP3 PUSH1 0x40 ADD MLOAD LT JUMPDEST ISZERO PUSH2 0x2C67 JUMPI PUSH0 PUSH2 0x2710 DUP6 DUP12 PUSH1 0x40 ADD MLOAD DUP5 DUP2 MLOAD DUP2 LT PUSH2 0x2A3B JUMPI PUSH2 0x2A3A PUSH2 0x546B JUMP JUMPDEST JUMPDEST PUSH1 0x20 MUL PUSH1 0x20 ADD ADD MLOAD PUSH1 0x20 ADD MLOAD PUSH2 0xFFFF AND PUSH2 0x2A55 SWAP2 SWAP1 PUSH2 0x586B JUMP JUMPDEST PUSH2 0x2A5F SWAP2 SWAP1 PUSH2 0x58D9 JUMP JUMPDEST SWAP1 POP PUSH0 DUP7 DUP4 DUP2 MLOAD DUP2 LT PUSH2 0x2A75 JUMPI PUSH2 0x2A74 PUSH2 0x546B JUMP JUMPDEST JUMPDEST PUSH1 0x20 MUL PUSH1 0x20 ADD ADD MLOAD PUSH1 0x80 ADD MLOAD SWAP1 POP PUSH0 DUP2 EQ ISZERO DUP1 ISZERO PUSH2 0x2AB0 JUMPI POP DUP2 DUP8 DUP5 DUP2 MLOAD DUP2 LT PUSH2 0x2AA2 JUMPI PUSH2 0x2AA1 PUSH2 0x546B JUMP JUMPDEST JUMPDEST PUSH1 0x20 MUL PUSH1 0x20 ADD ADD MLOAD PUSH1 0xA0 ADD MLOAD GT JUMPDEST ISZERO PUSH2 0x2C5A JUMPI PUSH0 DUP3 DUP9 DUP6 DUP2 MLOAD DUP2 LT PUSH2 0x2ACA JUMPI PUSH2 0x2AC9 PUSH2 0x546B JUMP JUMPDEST JUMPDEST PUSH1 0x20 MUL PUSH1 0x20 ADD ADD MLOAD PUSH1 0xA0 ADD MLOAD PUSH2 0x2AE0 SWAP2 SWAP1 PUSH2 0x5411 JUMP JUMPDEST SWAP1 POP PUSH0 DUP6 PUSH1 0x40 ADD MLOAD DUP12 PUSH2 0x2AF3 SWAP2 SWAP1 PUSH2 0x5411 JUMP JUMPDEST SWAP1 POP PUSH0 DUP2 DUP4 LT PUSH2 0x2B03 JUMPI DUP2 PUSH2 0x2B05 JUMP JUMPDEST DUP3 JUMPDEST SWAP1 POP PUSH0 DUP2 EQ PUSH2 0x2C56 JUMPI PUSH0 PUSH2 0x2B44 DUP3 DUP13 DUP10 DUP2 MLOAD DUP2 LT PUSH2 0x2B26 JUMPI PUSH2 0x2B25 PUSH2 0x546B JUMP JUMPDEST JUMPDEST PUSH1 0x20 MUL PUSH1 0x20 ADD ADD MLOAD PUSH1 0x20 ADD MLOAD PUSH1 0xA PUSH2 0x2B3E SWAP2 SWAP1 PUSH2 0x5B14 JUMP JUMPDEST DUP8 PUSH2 0x26EA JUMP JUMPDEST SWAP1 POP PUSH0 DUP2 EQ DUP1 ISZERO PUSH2 0x2B73 JUMPI POP PUSH0 DUP12 DUP9 DUP2 MLOAD DUP2 LT PUSH2 0x2B64 JUMPI PUSH2 0x2B63 PUSH2 0x546B JUMP JUMPDEST JUMPDEST PUSH1 0x20 MUL PUSH1 0x20 ADD ADD MLOAD PUSH1 0x60 ADD MLOAD EQ ISZERO JUMPDEST ISZERO PUSH2 0x2B7D JUMPI PUSH1 0x1 SWAP1 POP JUMPDEST PUSH0 PUSH2 0x2BB3 DUP3 DUP8 DUP15 DUP12 DUP2 MLOAD DUP2 LT PUSH2 0x2B96 JUMPI PUSH2 0x2B95 PUSH2 0x546B JUMP JUMPDEST JUMPDEST PUSH1 0x20 MUL PUSH1 0x20 ADD ADD MLOAD PUSH1 0x20 ADD MLOAD PUSH1 0xA PUSH2 0x2BAE SWAP2 SWAP1 PUSH2 0x5B14 JUMP JUMPDEST PUSH2 0x26EA JUMP JUMPDEST SWAP1 POP PUSH0 DUP2 EQ PUSH2 0x2C53 JUMPI PUSH1 0x40 MLOAD DUP1 PUSH1 0x40 ADD PUSH1 0x40 MSTORE DUP1 DUP14 DUP11 DUP2 MLOAD DUP2 LT PUSH2 0x2BDA JUMPI PUSH2 0x2BD9 PUSH2 0x546B JUMP JUMPDEST JUMPDEST PUSH1 0x20 MUL PUSH1 0x20 ADD ADD MLOAD PUSH0 ADD MLOAD PUSH20 0xFFFFFFFFFFFFFFFFFFFFFFFFFFFFFFFFFFFFFFFF AND DUP2 MSTORE PUSH1 0x20 ADD DUP4 DUP2 MSTORE POP DUP10 PUSH0 ADD MLOAD DUP11 PUSH1 0x20 ADD DUP1 MLOAD DUP1 SWAP2 SWAP1 PUSH2 0x2C1A SWAP1 PUSH2 0x5B5E JUMP JUMPDEST DUP2 MSTORE POP DUP2 MLOAD DUP2 LT PUSH2 0x2C2E JUMPI PUSH2 0x2C2D PUSH2 0x546B JUMP JUMPDEST JUMPDEST PUSH1 0x20 MUL PUSH1 0x20 ADD ADD DUP2 SWAP1 MSTORE POP DUP1 DUP10 PUSH1 0x40 ADD DUP2 DUP2 MLOAD PUSH2 0x2C4B SWAP2 SWAP1 PUSH2 0x5909 JUMP JUMPDEST SWAP2 POP DUP2 DUP2 MSTORE POP POP JUMPDEST POP POP JUMPDEST POP POP POP JUMPDEST DUP3 PUSH1 0x1 ADD SWAP3 POP POP POP PUSH2 0x2A08 JUMP JUMPDEST POP DUP6 DUP2 PUSH1 0x40 ADD MLOAD LT ISZERO PUSH2 0x36F0 JUMPI PUSH0 DUP2 PUSH1 0x40 ADD MLOAD DUP8 PUSH2 0x2C85 SWAP2 SWAP1 PUSH2 0x5411 JUMP JUMPDEST SWAP1 POP PUSH2 0x2C8F PUSH2 0x43BB JUMP JUMPDEST DUP4 PUSH8 0xFFFFFFFFFFFFFFFF DUP2 GT ISZERO PUSH2 0x2CA9 JUMPI PUSH2 0x2CA8 PUSH2 0x4592 JUMP JUMPDEST JUMPDEST PUSH1 0x40 MLOAD SWAP1 DUP1 DUP3 MSTORE DUP1 PUSH1 0x20 MUL PUSH1 0x20 ADD DUP3 ADD PUSH1 0x40 MSTORE DUP1 ISZERO PUSH2 0x2CD7 JUMPI DUP2 PUSH1 0x20 ADD PUSH1 0x20 DUP3 MUL DUP1 CALLDATASIZE DUP4 CALLDATACOPY DUP1 DUP3 ADD SWAP2 POP POP SWAP1 POP JUMPDEST POP DUP2 PUSH0 ADD DUP2 SWAP1 MSTORE POP DUP4 PUSH8 0xFFFFFFFFFFFFFFFF DUP2 GT ISZERO PUSH2 0x2CF9 JUMPI PUSH2 0x2CF8 PUSH2 0x4592 JUMP JUMPDEST JUMPDEST PUSH1 0x40 MLOAD SWAP1 DUP1 DUP3 MSTORE DUP1 PUSH1 0x20 MUL PUSH1 0x20 ADD DUP3 ADD PUSH1 0x40 MSTORE DUP1 ISZERO PUSH2 0x2D27 JUMPI DUP2 PUSH1 0x20 ADD PUSH1 0x20 DUP3 MUL DUP1 CALLDATASIZE DUP4 CALLDATACOPY DUP1 DUP3 ADD SWAP2 POP POP SWAP1 POP JUMPDEST POP DUP2 PUSH1 0x20 ADD DUP2 SWAP1 MSTORE POP DUP4 PUSH8 0xFFFFFFFFFFFFFFFF DUP2 GT ISZERO PUSH2 0x2D4A JUMPI PUSH2 0x2D49 PUSH2 0x4592 JUMP JUMPDEST JUMPDEST PUSH1 0x40 MLOAD SWAP1 DUP1 DUP3 MSTORE DUP1 PUSH1 0x20 MUL PUSH1 0x20 ADD DUP3 ADD PUSH1 0x40 MSTORE DUP1 ISZERO PUSH2 0x2D78 JUMPI DUP2 PUSH1 0x20 ADD PUSH1 0x20 DUP3 MUL DUP1 CALLDATASIZE DUP4 CALLDATACOPY DUP1 DUP3 ADD SWAP2 POP POP SWAP1 POP JUMPDEST POP DUP2 PUSH1 0x40 ADD DUP2 SWAP1 MSTORE POP DUP4 PUSH8 0xFFFFFFFFFFFFFFFF DUP2 GT ISZERO PUSH2 0x2D9B JUMPI PUSH2 0x2D9A PUSH2 0x4592 JUMP JUMPDEST JUMPDEST PUSH1 0x40 MLOAD SWAP1 DUP1 DUP3 MSTORE DUP1 PUSH1 0x20 MUL PUSH1 0x20 ADD DUP3 ADD PUSH1 0x40 MSTORE DUP1 ISZERO PUSH2 0x2DC9 JUMPI DUP2 PUSH1 0x20 ADD PUSH1 0x20 DUP3 MUL DUP1 CALLDATASIZE DUP4 CALLDATACOPY DUP1 DUP3 ADD SWAP2 POP POP SWAP1 POP JUMPDEST POP DUP2 PUSH1 0x60 ADD DUP2 SWAP1 MSTORE POP DUP4 PUSH8 0xFFFFFFFFFFFFFFFF DUP2 GT ISZERO PUSH2 0x2DEC JUMPI PUSH2 0x2DEB PUSH2 0x4592 JUMP JUMPDEST JUMPDEST PUSH1 0x40 MLOAD SWAP1 DUP1 DUP3 MSTORE DUP1 PUSH1 0x20 MUL PUSH1 0x20 ADD DUP3 ADD PUSH1 0x40 MSTORE DUP1 ISZERO PUSH2 0x2E1A JUMPI DUP2 PUSH1 0x20 ADD PUSH1 0x20 DUP3 MUL DUP1 CALLDATASIZE DUP4 CALLDATACOPY DUP1 DUP3 ADD SWAP2 POP POP SWAP1 POP JUMPDEST POP DUP2 PUSH1 0x80 ADD DUP2 SWAP1 MSTORE POP PUSH0 PUSH0 SWAP1 POP JUMPDEST DUP5 DUP2 LT ISZERO PUSH2 0x30F8 JUMPI PUSH0 PUSH0 PUSH0 SWAP1 POP JUMPDEST DUP6 PUSH1 0x20 ADD MLOAD DUP2 LT ISZERO PUSH2 0x2EC6 JUMPI DUP9 DUP4 DUP2 MLOAD DUP2 LT PUSH2 0x2E55 JUMPI PUSH2 0x2E54 PUSH2 0x546B JUMP JUMPDEST JUMPDEST PUSH1 0x20 MUL PUSH1 0x20 ADD ADD MLOAD PUSH0 ADD MLOAD PUSH20 0xFFFFFFFFFFFFFFFFFFFFFFFFFFFFFFFFFFFFFFFF AND DUP7 PUSH0 ADD MLOAD DUP3 DUP2 MLOAD DUP2 LT PUSH2 0x2E8C JUMPI PUSH2 0x2E8B PUSH2 0x546B JUMP JUMPDEST JUMPDEST PUSH1 0x20 MUL PUSH1 0x20 ADD ADD MLOAD PUSH0 ADD MLOAD PUSH20 0xFFFFFFFFFFFFFFFFFFFFFFFFFFFFFFFFFFFFFFFF AND SUB PUSH2 0x2EBB JUMPI PUSH1 0x1 SWAP2 POP PUSH2 0x2EC6 JUMP JUMPDEST DUP1 PUSH1 0x1 ADD SWAP1 POP PUSH2 0x2E36 JUMP JUMPDEST POP PUSH0 DUP9 DUP4 DUP2 MLOAD DUP2 LT PUSH2 0x2EDB JUMPI PUSH2 0x2EDA PUSH2 0x546B JUMP JUMPDEST JUMPDEST PUSH1 0x20 MUL PUSH1 0x20 ADD ADD MLOAD PUSH1 0x80 ADD MLOAD SWAP1 POP DUP2 ISZERO DUP1 ISZERO PUSH2 0x2EF7 JUMPI POP PUSH0 DUP2 EQ ISZERO JUMPDEST DUP1 ISZERO PUSH2 0x2F21 JUMPI POP PUSH0 DUP10 DUP5 DUP2 MLOAD DUP2 LT PUSH2 0x2F12 JUMPI PUSH2 0x2F11 PUSH2 0x546B JUMP JUMPDEST JUMPDEST PUSH1 0x20 MUL PUSH1 0x20 ADD ADD MLOAD PUSH1 0x60 ADD MLOAD EQ ISZERO JUMPDEST ISZERO PUSH2 0x30EB JUMPI PUSH0 DUP10 DUP5 DUP2 MLOAD DUP2 LT PUSH2 0x2F3A JUMPI PUSH2 0x2F39 PUSH2 0x546B JUMP JUMPDEST JUMPDEST PUSH1 0x20 MUL PUSH1 0x20 ADD ADD MLOAD PUSH1 0x60 ADD MLOAD SWAP1 POP PUSH0 PUSH2 0x2F7E DUP3 DUP5 DUP14 DUP9 DUP2 MLOAD DUP2 LT PUSH2 0x2F61 JUMPI PUSH2 0x2F60 PUSH2 0x546B JUMP JUMPDEST JUMPDEST PUSH1 0x20 MUL PUSH1 0x20 ADD ADD MLOAD PUSH1 0x20 ADD MLOAD PUSH1 0xA PUSH2 0x2F79 SWAP2 SWAP1 PUSH2 0x5B14 JUMP JUMPDEST PUSH2 0x26EA JUMP JUMPDEST SWAP1 POP PUSH0 DUP2 EQ PUSH2 0x30E8 JUMPI DUP11 DUP6 DUP2 MLOAD DUP2 LT PUSH2 0x2F9A JUMPI PUSH2 0x2F99 PUSH2 0x546B JUMP JUMPDEST JUMPDEST PUSH1 0x20 MUL PUSH1 0x20 ADD ADD MLOAD PUSH0 ADD MLOAD DUP7 PUSH0 ADD MLOAD DUP8 PUSH1 0xA0 ADD MLOAD DUP2 MLOAD DUP2 LT PUSH2 0x2FBF JUMPI PUSH2 0x2FBE PUSH2 0x546B JUMP JUMPDEST JUMPDEST PUSH1 0x20 MUL PUSH1 0x20 ADD ADD SWAP1 PUSH20 0xFFFFFFFFFFFFFFFFFFFFFFFFFFFFFFFFFFFFFFFF AND SWAP1 DUP2 PUSH20 0xFFFFFFFFFFFFFFFFFFFFFFFFFFFFFFFFFFFFFFFF AND DUP2 MSTORE POP POP DUP11 DUP6 DUP2 MLOAD DUP2 LT PUSH2 0x300C JUMPI PUSH2 0x300B PUSH2 0x546B JUMP JUMPDEST JUMPDEST PUSH1 0x20 MUL PUSH1 0x20 ADD ADD MLOAD PUSH1 0x20 ADD MLOAD DUP7 PUSH1 0x20 ADD MLOAD DUP8 PUSH1 0xA0 ADD MLOAD DUP2 MLOAD DUP2 LT PUSH2 0x3033 JUMPI PUSH2 0x3032 PUSH2 0x546B JUMP JUMPDEST JUMPDEST PUSH1 0x20 MUL PUSH1 0x20 ADD ADD SWAP1 PUSH1 0xFF AND SWAP1 DUP2 PUSH1 0xFF AND DUP2 MSTORE POP POP DUP2 DUP7 PUSH1 0x40 ADD MLOAD DUP8 PUSH1 0xA0 ADD MLOAD DUP2 MLOAD DUP2 LT PUSH2 0x3063 JUMPI PUSH2 0x3062 PUSH2 0x546B JUMP JUMPDEST JUMPDEST PUSH1 0x20 MUL PUSH1 0x20 ADD ADD DUP2 DUP2 MSTORE POP POP DUP3 DUP7 PUSH1 0x60 ADD MLOAD DUP8 PUSH1 0xA0 ADD MLOAD DUP2 MLOAD DUP2 LT PUSH2 0x308B JUMPI PUSH2 0x308A PUSH2 0x546B JUMP JUMPDEST JUMPDEST PUSH1 0x20 MUL PUSH1 0x20 ADD ADD DUP2 DUP2 MSTORE POP POP DUP1 DUP7 PUSH1 0x80 ADD MLOAD DUP8 PUSH1 0xA0 ADD MLOAD DUP2 MLOAD DUP2 LT PUSH2 0x30B3 JUMPI PUSH2 0x30B2 PUSH2 0x546B JUMP JUMPDEST JUMPDEST PUSH1 0x20 MUL PUSH1 0x20 ADD ADD DUP2 DUP2 MSTORE POP POP DUP1 DUP7 PUSH1 0xC0 ADD DUP2 DUP2 MLOAD PUSH2 0x30D1 SWAP2 SWAP1 PUSH2 0x5909 JUMP JUMPDEST SWAP2 POP DUP2 DUP2 MSTORE POP POP DUP6 PUSH1 0xA0 ADD DUP1 MLOAD PUSH1 0x1 ADD SWAP1 DUP2 DUP2 MSTORE POP POP JUMPDEST POP POP JUMPDEST DUP3 PUSH1 0x1 ADD SWAP3 POP POP POP PUSH2 0x2E28 JUMP JUMPDEST POP PUSH0 DUP2 PUSH1 0xA0 ADD MLOAD SUB PUSH2 0x3136 JUMPI PUSH1 0x40 MLOAD PUSH32 0xF17CD2CA00000000000000000000000000000000000000000000000000000000 DUP2 MSTORE PUSH1 0x4 ADD PUSH1 0x40 MLOAD DUP1 SWAP2 SUB SWAP1 REVERT JUMPDEST PUSH0 PUSH0 PUSH0 SWAP1 POP JUMPDEST DUP3 PUSH1 0xA0 ADD MLOAD DUP2 LT ISZERO PUSH2 0x33DA JUMPI PUSH0 DUP4 PUSH1 0x80 ADD MLOAD DUP3 DUP2 MLOAD DUP2 LT PUSH2 0x3160 JUMPI PUSH2 0x315F PUSH2 0x546B JUMP JUMPDEST JUMPDEST PUSH1 0x20 MUL PUSH1 0x20 ADD ADD MLOAD SWAP1 POP PUSH0 DUP2 EQ PUSH2 0x33CE JUMPI PUSH0 PUSH2 0x3181 DUP7 DUP4 DUP8 PUSH1 0xC0 ADD MLOAD PUSH2 0x26EA JUMP JUMPDEST SWAP1 POP DUP2 DUP2 GT ISZERO PUSH2 0x318F JUMPI DUP2 SWAP1 POP JUMPDEST PUSH0 DUP2 EQ PUSH2 0x33CC JUMPI PUSH0 PUSH2 0x31EA DUP3 DUP8 PUSH1 0x20 ADD MLOAD DUP7 DUP2 MLOAD DUP2 LT PUSH2 0x31B2 JUMPI PUSH2 0x31B1 PUSH2 0x546B JUMP JUMPDEST JUMPDEST PUSH1 0x20 MUL PUSH1 0x20 ADD ADD MLOAD PUSH1 0xA PUSH2 0x31C6 SWAP2 SWAP1 PUSH2 0x5B14 JUMP JUMPDEST DUP9 PUSH1 0x60 ADD MLOAD DUP8 DUP2 MLOAD DUP2 LT PUSH2 0x31DD JUMPI PUSH2 0x31DC PUSH2 0x546B JUMP JUMPDEST JUMPDEST PUSH1 0x20 MUL PUSH1 0x20 ADD ADD MLOAD PUSH2 0x26EA JUMP JUMPDEST SWAP1 POP PUSH0 DUP2 EQ DUP1 ISZERO PUSH2 0x3219 JUMPI POP PUSH0 DUP7 PUSH1 0x40 ADD MLOAD DUP6 DUP2 MLOAD DUP2 LT PUSH2 0x320E JUMPI PUSH2 0x320D PUSH2 0x546B JUMP JUMPDEST JUMPDEST PUSH1 0x20 MUL PUSH1 0x20 ADD ADD MLOAD EQ ISZERO JUMPDEST ISZERO PUSH2 0x3223 JUMPI PUSH1 0x1 SWAP1 POP JUMPDEST DUP6 PUSH1 0x40 ADD MLOAD DUP5 DUP2 MLOAD DUP2 LT PUSH2 0x323A JUMPI PUSH2 0x3239 PUSH2 0x546B JUMP JUMPDEST JUMPDEST PUSH1 0x20 MUL PUSH1 0x20 ADD ADD MLOAD DUP2 GT ISZERO PUSH2 0x326B JUMPI DUP6 PUSH1 0x40 ADD MLOAD DUP5 DUP2 MLOAD DUP2 LT PUSH2 0x3260 JUMPI PUSH2 0x325F PUSH2 0x546B JUMP JUMPDEST JUMPDEST PUSH1 0x20 MUL PUSH1 0x20 ADD ADD MLOAD SWAP1 POP JUMPDEST PUSH0 PUSH2 0x32BF DUP3 DUP9 PUSH1 0x60 ADD MLOAD DUP8 DUP2 MLOAD DUP2 LT PUSH2 0x3287 JUMPI PUSH2 0x3286 PUSH2 0x546B JUMP JUMPDEST JUMPDEST PUSH1 0x20 MUL PUSH1 0x20 ADD ADD MLOAD DUP10 PUSH1 0x20 ADD MLOAD DUP9 DUP2 MLOAD DUP2 LT PUSH2 0x32A6 JUMPI PUSH2 0x32A5 PUSH2 0x546B JUMP JUMPDEST JUMPDEST PUSH1 0x20 MUL PUSH1 0x20 ADD ADD MLOAD PUSH1 0xA PUSH2 0x32BA SWAP2 SWAP1 PUSH2 0x5B14 JUMP JUMPDEST PUSH2 0x26EA JUMP JUMPDEST SWAP1 POP PUSH0 DUP2 EQ PUSH2 0x33C9 JUMPI PUSH1 0x40 MLOAD DUP1 PUSH1 0x40 ADD PUSH1 0x40 MSTORE DUP1 DUP9 PUSH0 ADD MLOAD DUP8 DUP2 MLOAD DUP2 LT PUSH2 0x32E9 JUMPI PUSH2 0x32E8 PUSH2 0x546B JUMP JUMPDEST JUMPDEST PUSH1 0x20 MUL PUSH1 0x20 ADD ADD MLOAD PUSH20 0xFFFFFFFFFFFFFFFFFFFFFFFFFFFFFFFFFFFFFFFF AND DUP2 MSTORE PUSH1 0x20 ADD DUP4 DUP2 MSTORE POP DUP10 PUSH0 ADD MLOAD DUP11 PUSH1 0x20 ADD DUP1 MLOAD DUP1 SWAP2 SWAP1 PUSH2 0x3326 SWAP1 PUSH2 0x5B5E JUMP JUMPDEST DUP2 MSTORE POP DUP2 MLOAD DUP2 LT PUSH2 0x333A JUMPI PUSH2 0x3339 PUSH2 0x546B JUMP JUMPDEST JUMPDEST PUSH1 0x20 MUL PUSH1 0x20 ADD ADD DUP2 SWAP1 MSTORE POP DUP2 DUP8 PUSH1 0x40 ADD MLOAD DUP7 DUP2 MLOAD DUP2 LT PUSH2 0x335D JUMPI PUSH2 0x335C PUSH2 0x546B JUMP JUMPDEST JUMPDEST PUSH1 0x20 MUL PUSH1 0x20 ADD ADD DUP2 DUP2 MLOAD PUSH2 0x3371 SWAP2 SWAP1 PUSH2 0x5411 JUMP JUMPDEST SWAP2 POP DUP2 DUP2 MSTORE POP POP PUSH0 DUP5 DUP3 GT PUSH2 0x3386 JUMPI DUP2 PUSH2 0x3388 JUMP JUMPDEST DUP5 JUMPDEST SWAP1 POP DUP1 DUP6 PUSH2 0x3396 SWAP2 SWAP1 PUSH2 0x5411 JUMP JUMPDEST DUP9 PUSH1 0x80 ADD MLOAD DUP8 DUP2 MLOAD DUP2 LT PUSH2 0x33AD JUMPI PUSH2 0x33AC PUSH2 0x546B JUMP JUMPDEST JUMPDEST PUSH1 0x20 MUL PUSH1 0x20 ADD ADD DUP2 DUP2 MSTORE POP POP DUP2 DUP8 PUSH2 0x33C5 SWAP2 SWAP1 PUSH2 0x5909 JUMP JUMPDEST SWAP7 POP POP JUMPDEST POP POP JUMPDEST POP JUMPDEST DUP2 PUSH1 0x1 ADD SWAP2 POP POP PUSH2 0x313C JUMP JUMPDEST POP DUP1 DUP5 PUSH1 0x40 ADD DUP2 DUP2 MLOAD PUSH2 0x33ED SWAP2 SWAP1 PUSH2 0x5909 JUMP JUMPDEST SWAP2 POP DUP2 DUP2 MSTORE POP POP DUP9 DUP5 PUSH1 0x40 ADD MLOAD LT ISZERO PUSH2 0x36EC JUMPI PUSH0 DUP5 PUSH1 0x40 ADD MLOAD DUP11 PUSH2 0x3411 SWAP2 SWAP1 PUSH2 0x5411 JUMP JUMPDEST SWAP1 POP PUSH0 PUSH32 0xFFFFFFFFFFFFFFFFFFFFFFFFFFFFFFFFFFFFFFFFFFFFFFFFFFFFFFFFFFFFFFFF SWAP1 POP PUSH0 PUSH0 PUSH0 SWAP1 POP JUMPDEST DUP6 PUSH1 0xA0 ADD MLOAD DUP2 LT ISZERO PUSH2 0x34FE JUMPI PUSH0 DUP7 PUSH1 0x40 ADD MLOAD DUP3 DUP2 MLOAD DUP2 LT PUSH2 0x3461 JUMPI PUSH2 0x3460 PUSH2 0x546B JUMP JUMPDEST JUMPDEST PUSH1 0x20 MUL PUSH1 0x20 ADD ADD MLOAD EQ PUSH2 0x34F3 JUMPI PUSH0 PUSH2 0x34E0 DUP8 PUSH1 0x40 ADD MLOAD DUP4 DUP2 MLOAD DUP2 LT PUSH2 0x3489 JUMPI PUSH2 0x3488 PUSH2 0x546B JUMP JUMPDEST JUMPDEST PUSH1 0x20 MUL PUSH1 0x20 ADD ADD MLOAD DUP9 PUSH1 0x60 ADD MLOAD DUP5 DUP2 MLOAD DUP2 LT PUSH2 0x34A8 JUMPI PUSH2 0x34A7 PUSH2 0x546B JUMP JUMPDEST JUMPDEST PUSH1 0x20 MUL PUSH1 0x20 ADD ADD MLOAD DUP10 PUSH1 0x20 ADD MLOAD DUP6 DUP2 MLOAD DUP2 LT PUSH2 0x34C7 JUMPI PUSH2 0x34C6 PUSH2 0x546B JUMP JUMPDEST JUMPDEST PUSH1 0x20 MUL PUSH1 0x20 ADD ADD MLOAD PUSH1 0xA PUSH2 0x34DB SWAP2 SWAP1 PUSH2 0x5B14 JUMP JUMPDEST PUSH2 0x26EA JUMP JUMPDEST SWAP1 POP DUP3 DUP2 GT ISZERO PUSH2 0x34F1 JUMPI DUP1 SWAP3 POP DUP2 SWAP4 POP JUMPDEST POP JUMPDEST DUP1 PUSH1 0x1 ADD SWAP1 POP PUSH2 0x343D JUMP JUMPDEST POP PUSH32 0xFFFFFFFFFFFFFFFFFFFFFFFFFFFFFFFFFFFFFFFFFFFFFFFFFFFFFFFFFFFFFFFF DUP3 EQ ISZERO DUP1 ISZERO PUSH2 0x352F JUMPI POP PUSH0 DUP2 EQ ISZERO JUMPDEST ISZERO PUSH2 0x36E8 JUMPI PUSH0 DUP2 DUP5 LT PUSH2 0x3542 JUMPI DUP2 PUSH2 0x3544 JUMP JUMPDEST DUP4 JUMPDEST SWAP1 POP PUSH0 PUSH2 0x359A DUP3 DUP9 PUSH1 0x20 ADD MLOAD DUP7 DUP2 MLOAD DUP2 LT PUSH2 0x3562 JUMPI PUSH2 0x3561 PUSH2 0x546B JUMP JUMPDEST JUMPDEST PUSH1 0x20 MUL PUSH1 0x20 ADD ADD MLOAD PUSH1 0xA PUSH2 0x3576 SWAP2 SWAP1 PUSH2 0x5B14 JUMP JUMPDEST DUP10 PUSH1 0x60 ADD MLOAD DUP8 DUP2 MLOAD DUP2 LT PUSH2 0x358D JUMPI PUSH2 0x358C PUSH2 0x546B JUMP JUMPDEST JUMPDEST PUSH1 0x20 MUL PUSH1 0x20 ADD ADD MLOAD PUSH2 0x26EA JUMP JUMPDEST SWAP1 POP PUSH0 DUP2 SUB PUSH2 0x35A8 JUMPI PUSH1 0x1 SWAP1 POP JUMPDEST DUP7 PUSH1 0x40 ADD MLOAD DUP5 DUP2 MLOAD DUP2 LT PUSH2 0x35BF JUMPI PUSH2 0x35BE PUSH2 0x546B JUMP JUMPDEST JUMPDEST PUSH1 0x20 MUL PUSH1 0x20 ADD ADD MLOAD DUP2 GT ISZERO PUSH2 0x35F0 JUMPI DUP7 PUSH1 0x40 ADD MLOAD DUP5 DUP2 MLOAD DUP2 LT PUSH2 0x35E5 JUMPI PUSH2 0x35E4 PUSH2 0x546B JUMP JUMPDEST JUMPDEST PUSH1 0x20 MUL PUSH1 0x20 ADD ADD MLOAD SWAP1 POP JUMPDEST PUSH0 PUSH2 0x3644 DUP3 DUP10 PUSH1 0x60 ADD MLOAD DUP8 DUP2 MLOAD DUP2 LT PUSH2 0x360C JUMPI PUSH2 0x360B PUSH2 0x546B JUMP JUMPDEST JUMPDEST PUSH1 0x20 MUL PUSH1 0x20 ADD ADD MLOAD DUP11 PUSH1 0x20 ADD MLOAD DUP9 DUP2 MLOAD DUP2 LT PUSH2 0x362B JUMPI PUSH2 0x362A PUSH2 0x546B JUMP JUMPDEST JUMPDEST PUSH1 0x20 MUL PUSH1 0x20 ADD ADD MLOAD PUSH1 0xA PUSH2 0x363F SWAP2 SWAP1 PUSH2 0x5B14 JUMP JUMPDEST PUSH2 0x26EA JUMP JUMPDEST SWAP1 POP PUSH0 DUP2 EQ PUSH2 0x36E4 JUMPI PUSH1 0x40 MLOAD DUP1 PUSH1 0x40 ADD PUSH1 0x40 MSTORE DUP1 DUP10 PUSH0 ADD MLOAD DUP8 DUP2 MLOAD DUP2 LT PUSH2 0x366E JUMPI PUSH2 0x366D PUSH2 0x546B JUMP JUMPDEST JUMPDEST PUSH1 0x20 MUL PUSH1 0x20 ADD ADD MLOAD PUSH20 0xFFFFFFFFFFFFFFFFFFFFFFFFFFFFFFFFFFFFFFFF AND DUP2 MSTORE PUSH1 0x20 ADD DUP4 DUP2 MSTORE POP DUP11 PUSH0 ADD MLOAD DUP12 PUSH1 0x20 ADD DUP1 MLOAD DUP1 SWAP2 SWAP1 PUSH2 0x36AB SWAP1 PUSH2 0x5B5E JUMP JUMPDEST DUP2 MSTORE POP DUP2 MLOAD DUP2 LT PUSH2 0x36BF JUMPI PUSH2 0x36BE PUSH2 0x546B JUMP JUMPDEST JUMPDEST PUSH1 0x20 MUL PUSH1 0x20 ADD ADD DUP2 SWAP1 MSTORE POP DUP1 DUP11 PUSH1 0x40 ADD DUP2 DUP2 MLOAD PUSH2 0x36DC SWAP2 SWAP1 PUSH2 0x5909 JUMP JUMPDEST SWAP2 POP DUP2 DUP2 MSTORE POP POP JUMPDEST POP POP POP JUMPDEST POP POP POP JUMPDEST POP POP POP JUMPDEST PUSH0 DUP2 PUSH1 0x20 ADD MLOAD SUB PUSH2 0x372D JUMPI PUSH1 0x40 MLOAD PUSH32 0x1A4EAA7E00000000000000000000000000000000000000000000000000000000 DUP2 MSTORE PUSH1 0x4 ADD PUSH1 0x40 MLOAD DUP1 SWAP2 SUB SWAP1 REVERT JUMPDEST PUSH0 PUSH2 0x3736 PUSH2 0x26A6 JUMP JUMPDEST SWAP1 POP DUP2 PUSH1 0x20 ADD MLOAD PUSH8 0xFFFFFFFFFFFFFFFF DUP2 GT ISZERO PUSH2 0x3756 JUMPI PUSH2 0x3755 PUSH2 0x4592 JUMP JUMPDEST JUMPDEST PUSH1 0x40 MLOAD SWAP1 DUP1 DUP3 MSTORE DUP1 PUSH1 0x20 MUL PUSH1 0x20 ADD DUP3 ADD PUSH1 0x40 MSTORE DUP1 ISZERO PUSH2 0x378F JUMPI DUP2 PUSH1 0x20 ADD JUMPDEST PUSH2 0x377C PUSH2 0x438D JUMP JUMPDEST DUP2 MSTORE PUSH1 0x20 ADD SWAP1 PUSH1 0x1 SWAP1 SUB SWAP1 DUP2 PUSH2 0x3774 JUMPI SWAP1 POP JUMPDEST POP SWAP6 POP PUSH0 PUSH0 SWAP1 POP JUMPDEST DUP3 PUSH1 0x20 ADD MLOAD DUP2 LT ISZERO PUSH2 0x3860 JUMPI PUSH0 DUP4 PUSH0 ADD MLOAD DUP3 DUP2 MLOAD DUP2 LT PUSH2 0x37BA JUMPI PUSH2 0x37B9 PUSH2 0x546B JUMP JUMPDEST JUMPDEST PUSH1 0x20 MUL PUSH1 0x20 ADD ADD MLOAD SWAP1 POP DUP1 DUP9 DUP4 DUP2 MLOAD DUP2 LT PUSH2 0x37D8 JUMPI PUSH2 0x37D7 PUSH2 0x546B JUMP JUMPDEST JUMPDEST PUSH1 0x20 MUL PUSH1 0x20 ADD ADD DUP2 SWAP1 MSTORE POP DUP10 PUSH20 0xFFFFFFFFFFFFFFFFFFFFFFFFFFFFFFFFFFFFFFFF AND PUSH4 0x5C833BFD DUP3 PUSH0 ADD MLOAD DUP4 PUSH1 0x20 ADD MLOAD DUP7 PUSH1 0x40 MLOAD DUP5 PUSH4 0xFFFFFFFF AND PUSH1 0xE0 SHL DUP2 MSTORE PUSH1 0x4 ADD PUSH2 0x3827 SWAP4 SWAP3 SWAP2 SWAP1 PUSH2 0x5836 JUMP JUMPDEST PUSH0 PUSH1 0x40 MLOAD DUP1 DUP4 SUB DUP2 PUSH0 DUP8 DUP1 EXTCODESIZE ISZERO DUP1 ISZERO PUSH2 0x383E JUMPI PUSH0 PUSH0 REVERT JUMPDEST POP GAS CALL ISZERO DUP1 ISZERO PUSH2 0x3850 JUMPI RETURNDATASIZE PUSH0 PUSH0 RETURNDATACOPY RETURNDATASIZE PUSH0 REVERT JUMPDEST POP POP POP POP DUP2 PUSH1 0x1 ADD SWAP2 POP POP PUSH2 0x3797 JUMP JUMPDEST POP POP POP POP POP POP SWAP4 SWAP3 POP POP POP JUMP JUMPDEST PUSH1 0x60 PUSH0 PUSH0 PUSH0 PUSH2 0x387A PUSH2 0x1F31 JUMP JUMPDEST PUSH20 0xFFFFFFFFFFFFFFFFFFFFFFFFFFFFFFFFFFFFFFFF AND PUSH4 0xEE0D96C5 DUP8 DUP8 PUSH1 0x40 MLOAD DUP4 PUSH4 0xFFFFFFFF AND PUSH1 0xE0 SHL DUP2 MSTORE PUSH1 0x4 ADD PUSH2 0x38B4 SWAP3 SWAP2 SWAP1 PUSH2 0x5079 JUMP JUMPDEST PUSH0 PUSH1 0x40 MLOAD DUP1 DUP4 SUB DUP2 DUP7 GAS STATICCALL ISZERO DUP1 ISZERO PUSH2 0x38CE JUMPI RETURNDATASIZE PUSH0 PUSH0 RETURNDATACOPY RETURNDATASIZE PUSH0 REVERT JUMPDEST POP POP POP POP PUSH1 0x40 MLOAD RETURNDATASIZE PUSH0 DUP3 RETURNDATACOPY RETURNDATASIZE PUSH1 0x1F NOT PUSH1 0x1F DUP3 ADD AND DUP3 ADD DUP1 PUSH1 0x40 MSTORE POP DUP2 ADD SWAP1 PUSH2 0x38F6 SWAP2 SWAP1 PUSH2 0x524E JUMP JUMPDEST SWAP2 POP SWAP2 POP PUSH0 DUP2 SUB PUSH2 0x3933 JUMPI PUSH1 0x40 MLOAD PUSH32 0x1F2A200500000000000000000000000000000000000000000000000000000000 DUP2 MSTORE PUSH1 0x4 ADD PUSH1 0x40 MLOAD DUP1 SWAP2 SUB SWAP1 REVERT JUMPDEST PUSH0 DUP7 PUSH1 0x40 ADD MLOAD MLOAD SWAP1 POP PUSH0 DUP2 PUSH8 0xFFFFFFFFFFFFFFFF DUP2 GT ISZERO PUSH2 0x3957 JUMPI PUSH2 0x3956 PUSH2 0x4592 JUMP JUMPDEST JUMPDEST PUSH1 0x40 MLOAD SWAP1 DUP1 DUP3 MSTORE DUP1 PUSH1 0x20 MUL PUSH1 0x20 ADD DUP3 ADD PUSH1 0x40 MSTORE DUP1 ISZERO PUSH2 0x3985 JUMPI DUP2 PUSH1 0x20 ADD PUSH1 0x20 DUP3 MUL DUP1 CALLDATASIZE DUP4 CALLDATACOPY DUP1 DUP3 ADD SWAP2 POP POP SWAP1 POP JUMPDEST POP SWAP1 POP PUSH0 DUP3 PUSH8 0xFFFFFFFFFFFFFFFF DUP2 GT ISZERO PUSH2 0x39A3 JUMPI PUSH2 0x39A2 PUSH2 0x4592 JUMP JUMPDEST JUMPDEST PUSH1 0x40 MLOAD SWAP1 DUP1 DUP3 MSTORE DUP1 PUSH1 0x20 MUL PUSH1 0x20 ADD DUP3 ADD PUSH1 0x40 MSTORE DUP1 ISZERO PUSH2 0x39D1 JUMPI DUP2 PUSH1 0x20 ADD PUSH1 0x20 DUP3 MUL DUP1 CALLDATASIZE DUP4 CALLDATACOPY DUP1 DUP3 ADD SWAP2 POP POP SWAP1 POP JUMPDEST POP SWAP1 POP PUSH0 PUSH0 SWAP1 POP JUMPDEST DUP4 DUP2 LT ISZERO PUSH2 0x3A88 JUMPI PUSH2 0x2710 DUP6 DUP12 PUSH1 0x40 ADD MLOAD DUP4 DUP2 MLOAD DUP2 LT PUSH2 0x39FC JUMPI PUSH2 0x39FB PUSH2 0x546B JUMP JUMPDEST JUMPDEST PUSH1 0x20 MUL PUSH1 0x20 ADD ADD MLOAD PUSH1 0x20 ADD MLOAD PUSH2 0xFFFF AND PUSH2 0x3A16 SWAP2 SWAP1 PUSH2 0x586B JUMP JUMPDEST PUSH2 0x3A20 SWAP2 SWAP1 PUSH2 0x58D9 JUMP JUMPDEST DUP4 DUP3 DUP2 MLOAD DUP2 LT PUSH2 0x3A33 JUMPI PUSH2 0x3A32 PUSH2 0x546B JUMP JUMPDEST JUMPDEST PUSH1 0x20 MUL PUSH1 0x20 ADD ADD DUP2 DUP2 MSTORE POP POP DUP6 DUP2 DUP2 MLOAD DUP2 LT PUSH2 0x3A52 JUMPI PUSH2 0x3A51 PUSH2 0x546B JUMP JUMPDEST JUMPDEST PUSH1 0x20 MUL PUSH1 0x20 ADD ADD MLOAD PUSH1 0xA0 ADD MLOAD DUP3 DUP3 DUP2 MLOAD DUP2 LT PUSH2 0x3A71 JUMPI PUSH2 0x3A70 PUSH2 0x546B JUMP JUMPDEST JUMPDEST PUSH1 0x20 MUL PUSH1 0x20 ADD ADD DUP2 DUP2 MSTORE POP POP DUP1 PUSH1 0x1 ADD SWAP1 POP PUSH2 0x39D9 JUMP JUMPDEST POP DUP3 PUSH8 0xFFFFFFFFFFFFFFFF DUP2 GT ISZERO PUSH2 0x3AA3 JUMPI PUSH2 0x3AA2 PUSH2 0x4592 JUMP JUMPDEST JUMPDEST PUSH1 0x40 MLOAD SWAP1 DUP1 DUP3 MSTORE DUP1 PUSH1 0x20 MUL PUSH1 0x20 ADD DUP3 ADD PUSH1 0x40 MSTORE DUP1 ISZERO PUSH2 0x3ADC JUMPI DUP2 PUSH1 0x20 ADD JUMPDEST PUSH2 0x3AC9 PUSH2 0x438D JUMP JUMPDEST DUP2 MSTORE PUSH1 0x20 ADD SWAP1 PUSH1 0x1 SWAP1 SUB SWAP1 DUP2 PUSH2 0x3AC1 JUMPI SWAP1 POP JUMPDEST POP SWAP7 POP PUSH0 PUSH0 SWAP1 POP JUMPDEST DUP4 DUP2 LT ISZERO PUSH2 0x3C4A JUMPI DUP3 DUP2 DUP2 MLOAD DUP2 LT PUSH2 0x3AFF JUMPI PUSH2 0x3AFE PUSH2 0x546B JUMP JUMPDEST JUMPDEST PUSH1 0x20 MUL PUSH1 0x20 ADD ADD MLOAD DUP3 DUP3 DUP2 MLOAD DUP2 LT PUSH2 0x3B1A JUMPI PUSH2 0x3B19 PUSH2 0x546B JUMP JUMPDEST JUMPDEST PUSH1 0x20 MUL PUSH1 0x20 ADD ADD MLOAD GT ISZERO PUSH2 0x3C3F JUMPI PUSH0 DUP4 DUP3 DUP2 MLOAD DUP2 LT PUSH2 0x3B3C JUMPI PUSH2 0x3B3B PUSH2 0x546B JUMP JUMPDEST JUMPDEST PUSH1 0x20 MUL PUSH1 0x20 ADD ADD MLOAD DUP4 DUP4 DUP2 MLOAD DUP2 LT PUSH2 0x3B57 JUMPI PUSH2 0x3B56 PUSH2 0x546B JUMP JUMPDEST JUMPDEST PUSH1 0x20 MUL PUSH1 0x20 ADD ADD MLOAD PUSH2 0x3B69 SWAP2 SWAP1 PUSH2 0x5411 JUMP JUMPDEST SWAP1 POP PUSH0 PUSH2 0x3BBF DUP3 DUP10 DUP6 DUP2 MLOAD DUP2 LT PUSH2 0x3B83 JUMPI PUSH2 0x3B82 PUSH2 0x546B JUMP JUMPDEST JUMPDEST PUSH1 0x20 MUL PUSH1 0x20 ADD ADD MLOAD PUSH1 0x20 ADD MLOAD PUSH1 0xA PUSH2 0x3B9B SWAP2 SWAP1 PUSH2 0x5B14 JUMP JUMPDEST DUP11 DUP7 DUP2 MLOAD DUP2 LT PUSH2 0x3BAE JUMPI PUSH2 0x3BAD PUSH2 0x546B JUMP JUMPDEST JUMPDEST PUSH1 0x20 MUL PUSH1 0x20 ADD ADD MLOAD PUSH1 0x80 ADD MLOAD PUSH2 0x26EA JUMP JUMPDEST SWAP1 POP PUSH0 DUP2 GT ISZERO PUSH2 0x3C3C JUMPI PUSH1 0x40 MLOAD DUP1 PUSH1 0x40 ADD PUSH1 0x40 MSTORE DUP1 DUP10 DUP6 DUP2 MLOAD DUP2 LT PUSH2 0x3BE7 JUMPI PUSH2 0x3BE6 PUSH2 0x546B JUMP JUMPDEST JUMPDEST PUSH1 0x20 MUL PUSH1 0x20 ADD ADD MLOAD PUSH0 ADD MLOAD PUSH20 0xFFFFFFFFFFFFFFFFFFFFFFFFFFFFFFFFFFFFFFFF AND DUP2 MSTORE PUSH1 0x20 ADD DUP3 DUP2 MSTORE POP DUP11 DUP11 DUP1 PUSH2 0x3C1D SWAP1 PUSH2 0x5B5E JUMP JUMPDEST SWAP12 POP DUP2 MLOAD DUP2 LT PUSH2 0x3C30 JUMPI PUSH2 0x3C2F PUSH2 0x546B JUMP JUMPDEST JUMPDEST PUSH1 0x20 MUL PUSH1 0x20 ADD ADD DUP2 SWAP1 MSTORE POP JUMPDEST POP POP JUMPDEST DUP1 PUSH1 0x1 ADD SWAP1 POP PUSH2 0x3AE4 JUMP JUMPDEST POP PUSH0 DUP7 SUB PUSH2 0x3C84 JUMPI PUSH1 0x40 MLOAD PUSH32 0x1A4EAA7E00000000000000000000000000000000000000000000000000000000 DUP2 MSTORE PUSH1 0x4 ADD PUSH1 0x40 MLOAD DUP1 SWAP2 SUB SWAP1 REVERT JUMPDEST POP POP POP POP POP SWAP3 POP SWAP3 SWAP1 POP JUMP JUMPDEST PUSH0 PUSH0 DUP5 PUSH20 0xFFFFFFFFFFFFFFFFFFFFFFFFFFFFFFFFFFFFFFFF AND PUSH4 0xA9059CBB PUSH1 0xE0 SHL DUP6 DUP6 PUSH1 0x40 MLOAD PUSH1 0x24 ADD PUSH2 0x3CC4 SWAP3 SWAP2 SWAP1 PUSH2 0x5444 JUMP JUMPDEST PUSH1 0x40 MLOAD PUSH1 0x20 DUP2 DUP4 SUB SUB DUP2 MSTORE SWAP1 PUSH1 0x40 MSTORE SWAP1 PUSH28 0xFFFFFFFFFFFFFFFFFFFFFFFFFFFFFFFFFFFFFFFFFFFFFFFFFFFFFFFF NOT AND PUSH1 0x20 DUP3 ADD DUP1 MLOAD PUSH28 0xFFFFFFFFFFFFFFFFFFFFFFFFFFFFFFFFFFFFFFFFFFFFFFFFFFFFFFFF DUP4 DUP2 DUP4 AND OR DUP4 MSTORE POP POP POP POP PUSH1 0x40 MLOAD PUSH2 0x3D2E SWAP2 SWAP1 PUSH2 0x5BDF JUMP JUMPDEST PUSH0 PUSH1 0x40 MLOAD DUP1 DUP4 SUB DUP2 PUSH0 DUP7 GAS CALL SWAP2 POP POP RETURNDATASIZE DUP1 PUSH0 DUP2 EQ PUSH2 0x3D67 JUMPI PUSH1 0x40 MLOAD SWAP2 POP PUSH1 0x1F NOT PUSH1 0x3F RETURNDATASIZE ADD AND DUP3 ADD PUSH1 0x40 MSTORE RETURNDATASIZE DUP3 MSTORE RETURNDATASIZE PUSH0 PUSH1 0x20 DUP5 ADD RETURNDATACOPY PUSH2 0x3D6C JUMP JUMPDEST PUSH1 0x60 SWAP2 POP JUMPDEST POP SWAP2 POP SWAP2 POP DUP2 DUP1 ISZERO PUSH2 0x3D99 JUMPI POP PUSH0 DUP2 MLOAD EQ DUP1 PUSH2 0x3D98 JUMPI POP DUP1 DUP1 PUSH1 0x20 ADD SWAP1 MLOAD DUP2 ADD SWAP1 PUSH2 0x3D97 SWAP2 SWAP1 PUSH2 0x5C09 JUMP JUMPDEST JUMPDEST JUMPDEST PUSH2 0x3DD8 JUMPI PUSH1 0x40 MLOAD PUSH32 0x8C379A000000000000000000000000000000000000000000000000000000000 DUP2 MSTORE PUSH1 0x4 ADD PUSH2 0x3DCF SWAP1 PUSH2 0x5C7E JUMP JUMPDEST PUSH1 0x40 MLOAD DUP1 SWAP2 SUB SWAP1 REVERT JUMPDEST POP POP POP POP POP JUMP JUMPDEST PUSH1 0x60 PUSH0 DUP4 MLOAD SWAP1 POP DUP1 PUSH8 0xFFFFFFFFFFFFFFFF DUP2 GT ISZERO PUSH2 0x3E00 JUMPI PUSH2 0x3DFF PUSH2 0x4592 JUMP JUMPDEST JUMPDEST PUSH1 0x40 MLOAD SWAP1 DUP1 DUP3 MSTORE DUP1 PUSH1 0x20 MUL PUSH1 0x20 ADD DUP3 ADD PUSH1 0x40 MSTORE DUP1 ISZERO PUSH2 0x3E2E JUMPI DUP2 PUSH1 0x20 ADD PUSH1 0x20 DUP3 MUL DUP1 CALLDATASIZE DUP4 CALLDATACOPY DUP1 DUP3 ADD SWAP2 POP POP SWAP1 POP JUMPDEST POP SWAP2 POP PUSH0 DUP2 EQ DUP1 PUSH2 0x3E3E JUMPI POP PUSH0 DUP4 EQ JUMPDEST ISZERO PUSH2 0x3E49 JUMPI POP PUSH2 0x4308 JUMP JUMPDEST PUSH0 PUSH0 PUSH0 SWAP1 POP JUMPDEST DUP3 DUP2 LT ISZERO PUSH2 0x3E8A JUMPI DUP6 DUP2 DUP2 MLOAD DUP2 LT PUSH2 0x3E6A JUMPI PUSH2 0x3E69 PUSH2 0x546B JUMP JUMPDEST JUMPDEST PUSH1 0x20 MUL PUSH1 0x20 ADD ADD MLOAD DUP3 PUSH2 0x3E7D SWAP2 SWAP1 PUSH2 0x5909 JUMP JUMPDEST SWAP2 POP DUP1 PUSH1 0x1 ADD SWAP1 POP PUSH2 0x3E4F JUMP JUMPDEST POP PUSH0 DUP2 SUB PUSH2 0x3E99 JUMPI POP POP PUSH2 0x4308 JUMP JUMPDEST PUSH0 DUP3 PUSH8 0xFFFFFFFFFFFFFFFF DUP2 GT ISZERO PUSH2 0x3EB4 JUMPI PUSH2 0x3EB3 PUSH2 0x4592 JUMP JUMPDEST JUMPDEST PUSH1 0x40 MLOAD SWAP1 DUP1 DUP3 MSTORE DUP1 PUSH1 0x20 MUL PUSH1 0x20 ADD DUP3 ADD PUSH1 0x40 MSTORE DUP1 ISZERO PUSH2 0x3EE2 JUMPI DUP2 PUSH1 0x20 ADD PUSH1 0x20 DUP3 MUL DUP1 CALLDATASIZE DUP4 CALLDATACOPY DUP1 DUP3 ADD SWAP2 POP POP SWAP1 POP JUMPDEST POP SWAP1 POP PUSH0 PUSH0 PUSH0 SWAP1 POP JUMPDEST DUP5 DUP2 LT ISZERO PUSH2 0x3FBA JUMPI PUSH0 DUP8 DUP10 DUP4 DUP2 MLOAD DUP2 LT PUSH2 0x3F08 JUMPI PUSH2 0x3F07 PUSH2 0x546B JUMP JUMPDEST JUMPDEST PUSH1 0x20 MUL PUSH1 0x20 ADD ADD MLOAD PUSH2 0x3F1A SWAP2 SWAP1 PUSH2 0x586B JUMP JUMPDEST SWAP1 POP PUSH0 DUP6 DUP3 PUSH2 0x3F29 SWAP2 SWAP1 PUSH2 0x58D9 JUMP JUMPDEST SWAP1 POP PUSH2 0xFFFF DUP1 AND DUP2 GT ISZERO PUSH2 0x3F3F JUMPI PUSH2 0xFFFF DUP1 AND SWAP1 POP JUMPDEST DUP1 DUP9 DUP5 DUP2 MLOAD DUP2 LT PUSH2 0x3F53 JUMPI PUSH2 0x3F52 PUSH2 0x546B JUMP JUMPDEST JUMPDEST PUSH1 0x20 MUL PUSH1 0x20 ADD ADD SWAP1 PUSH2 0xFFFF AND SWAP1 DUP2 PUSH2 0xFFFF AND DUP2 MSTORE POP POP DUP1 DUP5 PUSH2 0x3F75 SWAP2 SWAP1 PUSH2 0x5909 JUMP JUMPDEST SWAP4 POP DUP6 DUP2 PUSH2 0x3F83 SWAP2 SWAP1 PUSH2 0x586B JUMP JUMPDEST DUP3 PUSH2 0x3F8E SWAP2 SWAP1 PUSH2 0x5411 JUMP JUMPDEST DUP6 DUP5 DUP2 MLOAD DUP2 LT PUSH2 0x3FA1 JUMPI PUSH2 0x3FA0 PUSH2 0x546B JUMP JUMPDEST JUMPDEST PUSH1 0x20 MUL PUSH1 0x20 ADD ADD DUP2 DUP2 MSTORE POP POP DUP3 PUSH1 0x1 ADD SWAP3 POP POP POP PUSH2 0x3EEB JUMP JUMPDEST POP DUP6 DUP2 LT ISZERO PUSH2 0x417F JUMPI PUSH0 DUP2 DUP8 PUSH2 0x3FD0 SWAP2 SWAP1 PUSH2 0x5411 JUMP JUMPDEST SWAP1 POP JUMPDEST PUSH0 DUP2 GT ISZERO PUSH2 0x4179 JUMPI PUSH0 PUSH0 SWAP1 POP PUSH0 PUSH0 SWAP1 POP PUSH0 PUSH0 SWAP1 POP JUMPDEST DUP8 DUP2 LT ISZERO PUSH2 0x406B JUMPI DUP2 DUP7 DUP3 DUP2 MLOAD DUP2 LT PUSH2 0x4004 JUMPI PUSH2 0x4003 PUSH2 0x546B JUMP JUMPDEST JUMPDEST PUSH1 0x20 MUL PUSH1 0x20 ADD ADD MLOAD GT DUP1 ISZERO PUSH2 0x403A JUMPI POP PUSH2 0xFFFF DUP1 AND DUP10 DUP3 DUP2 MLOAD DUP2 LT PUSH2 0x402C JUMPI PUSH2 0x402B PUSH2 0x546B JUMP JUMPDEST JUMPDEST PUSH1 0x20 MUL PUSH1 0x20 ADD ADD MLOAD PUSH2 0xFFFF AND LT JUMPDEST ISZERO PUSH2 0x4060 JUMPI DUP6 DUP2 DUP2 MLOAD DUP2 LT PUSH2 0x4052 JUMPI PUSH2 0x4051 PUSH2 0x546B JUMP JUMPDEST JUMPDEST PUSH1 0x20 MUL PUSH1 0x20 ADD ADD MLOAD SWAP2 POP DUP1 SWAP3 POP JUMPDEST DUP1 PUSH1 0x1 ADD SWAP1 POP PUSH2 0x3FE8 JUMP JUMPDEST POP PUSH0 DUP2 SUB PUSH2 0x4110 JUMPI PUSH0 PUSH0 SWAP1 POP PUSH0 PUSH0 SWAP1 POP JUMPDEST DUP9 DUP2 LT ISZERO PUSH2 0x40FC JUMPI PUSH2 0xFFFF DUP1 AND DUP11 DUP3 DUP2 MLOAD DUP2 LT PUSH2 0x409C JUMPI PUSH2 0x409B PUSH2 0x546B JUMP JUMPDEST JUMPDEST PUSH1 0x20 MUL PUSH1 0x20 ADD ADD MLOAD PUSH2 0xFFFF AND LT ISZERO PUSH2 0x40F1 JUMPI PUSH1 0x1 DUP11 DUP3 DUP2 MLOAD DUP2 LT PUSH2 0x40C3 JUMPI PUSH2 0x40C2 PUSH2 0x546B JUMP JUMPDEST JUMPDEST PUSH1 0x20 MUL PUSH1 0x20 ADD ADD DUP2 DUP2 MLOAD PUSH2 0x40D7 SWAP2 SWAP1 PUSH2 0x5C9C JUMP JUMPDEST SWAP2 POP SWAP1 PUSH2 0xFFFF AND SWAP1 DUP2 PUSH2 0xFFFF AND DUP2 MSTORE POP POP PUSH1 0x1 SWAP2 POP PUSH2 0x40FC JUMP JUMPDEST DUP1 PUSH1 0x1 ADD SWAP1 POP PUSH2 0x407C JUMP JUMPDEST POP DUP1 PUSH2 0x410A JUMPI POP POP POP PUSH2 0x4179 JUMP JUMPDEST POP PUSH2 0x416B JUMP JUMPDEST PUSH1 0x1 DUP9 DUP4 DUP2 MLOAD DUP2 LT PUSH2 0x4125 JUMPI PUSH2 0x4124 PUSH2 0x546B JUMP JUMPDEST JUMPDEST PUSH1 0x20 MUL PUSH1 0x20 ADD ADD DUP2 DUP2 MLOAD PUSH2 0x4139 SWAP2 SWAP1 PUSH2 0x5C9C JUMP JUMPDEST SWAP2 POP SWAP1 PUSH2 0xFFFF AND SWAP1 DUP2 PUSH2 0xFFFF AND DUP2 MSTORE POP POP PUSH0 DUP6 DUP4 DUP2 MLOAD DUP2 LT PUSH2 0x415E JUMPI PUSH2 0x415D PUSH2 0x546B JUMP JUMPDEST JUMPDEST PUSH1 0x20 MUL PUSH1 0x20 ADD ADD DUP2 DUP2 MSTORE POP POP JUMPDEST DUP3 PUSH1 0x1 SWAP1 SUB SWAP3 POP POP POP PUSH2 0x3FD3 JUMP JUMPDEST POP PUSH2 0x4303 JUMP JUMPDEST DUP6 DUP2 GT ISZERO PUSH2 0x4302 JUMPI PUSH0 DUP7 DUP3 PUSH2 0x4194 SWAP2 SWAP1 PUSH2 0x5411 JUMP JUMPDEST SWAP1 POP JUMPDEST PUSH0 DUP2 GT ISZERO PUSH2 0x4300 JUMPI PUSH0 PUSH0 SWAP1 POP PUSH0 PUSH32 0xFFFFFFFFFFFFFFFFFFFFFFFFFFFFFFFFFFFFFFFFFFFFFFFFFFFFFFFFFFFFFFFF SWAP1 POP PUSH0 PUSH0 SWAP1 POP JUMPDEST DUP8 DUP2 LT ISZERO PUSH2 0x424B JUMPI PUSH0 DUP10 DUP3 DUP2 MLOAD DUP2 LT PUSH2 0x41E8 JUMPI PUSH2 0x41E7 PUSH2 0x546B JUMP JUMPDEST JUMPDEST PUSH1 0x20 MUL PUSH1 0x20 ADD ADD MLOAD PUSH2 0xFFFF AND GT DUP1 ISZERO PUSH2 0x421A JUMPI POP DUP2 DUP7 DUP3 DUP2 MLOAD DUP2 LT PUSH2 0x4210 JUMPI PUSH2 0x420F PUSH2 0x546B JUMP JUMPDEST JUMPDEST PUSH1 0x20 MUL PUSH1 0x20 ADD ADD MLOAD LT JUMPDEST ISZERO PUSH2 0x4240 JUMPI DUP6 DUP2 DUP2 MLOAD DUP2 LT PUSH2 0x4232 JUMPI PUSH2 0x4231 PUSH2 0x546B JUMP JUMPDEST JUMPDEST PUSH1 0x20 MUL PUSH1 0x20 ADD ADD MLOAD SWAP2 POP DUP1 SWAP3 POP JUMPDEST DUP1 PUSH1 0x1 ADD SWAP1 POP PUSH2 0x41CC JUMP JUMPDEST POP PUSH0 DUP9 DUP4 DUP2 MLOAD DUP2 LT PUSH2 0x4260 JUMPI PUSH2 0x425F PUSH2 0x546B JUMP JUMPDEST JUMPDEST PUSH1 0x20 MUL PUSH1 0x20 ADD ADD MLOAD PUSH2 0xFFFF AND SUB PUSH2 0x4278 JUMPI POP POP PUSH2 0x4300 JUMP JUMPDEST PUSH1 0x1 DUP9 DUP4 DUP2 MLOAD DUP2 LT PUSH2 0x428D JUMPI PUSH2 0x428C PUSH2 0x546B JUMP JUMPDEST JUMPDEST PUSH1 0x20 MUL PUSH1 0x20 ADD ADD DUP2 DUP2 MLOAD PUSH2 0x42A1 SWAP2 SWAP1 PUSH2 0x5CD1 JUMP JUMPDEST SWAP2 POP SWAP1 PUSH2 0xFFFF AND SWAP1 DUP2 PUSH2 0xFFFF AND DUP2 MSTORE POP POP PUSH32 0xFFFFFFFFFFFFFFFFFFFFFFFFFFFFFFFFFFFFFFFFFFFFFFFFFFFFFFFFFFFFFFFF DUP6 DUP4 DUP2 MLOAD DUP2 LT PUSH2 0x42E6 JUMPI PUSH2 0x42E5 PUSH2 0x546B JUMP JUMPDEST JUMPDEST PUSH1 0x20 MUL PUSH1 0x20 ADD ADD DUP2 DUP2 MSTORE POP POP DUP3 PUSH1 0x1 SWAP1 SUB SWAP3 POP POP POP PUSH2 0x4197 JUMP JUMPDEST POP JUMPDEST JUMPDEST POP POP POP POP JUMPDEST SWAP3 SWAP2 POP POP JUMP JUMPDEST PUSH1 0x40 MLOAD DUP1 PUSH1 0x40 ADD PUSH1 0x40 MSTORE DUP1 PUSH0 PUSH20 0xFFFFFFFFFFFFFFFFFFFFFFFFFFFFFFFFFFFFFFFF AND DUP2 MSTORE PUSH1 0x20 ADD PUSH0 DUP2 MSTORE POP SWAP1 JUMP JUMPDEST PUSH1 0x40 MLOAD DUP1 PUSH1 0x40 ADD PUSH1 0x40 MSTORE DUP1 PUSH0 PUSH20 0xFFFFFFFFFFFFFFFFFFFFFFFFFFFFFFFFFFFFFFFF AND DUP2 MSTORE PUSH1 0x20 ADD PUSH0 PUSH2 0xFFFF AND DUP2 MSTORE POP SWAP1 JUMP JUMPDEST PUSH1 0x40 MLOAD DUP1 PUSH1 0x60 ADD PUSH1 0x40 MSTORE DUP1 PUSH1 0x60 DUP2 MSTORE PUSH1 0x20 ADD PUSH0 DUP2 MSTORE PUSH1 0x20 ADD PUSH0 DUP2 MSTORE POP SWAP1 JUMP JUMPDEST PUSH1 0x40 MLOAD DUP1 PUSH1 0x40 ADD PUSH1 0x40 MSTORE DUP1 PUSH0 PUSH20 0xFFFFFFFFFFFFFFFFFFFFFFFFFFFFFFFFFFFFFFFF AND DUP2 MSTORE PUSH1 0x20 ADD PUSH0 DUP2 MSTORE POP SWAP1 JUMP JUMPDEST PUSH1 0x40 MLOAD DUP1 PUSH1 0xE0 ADD PUSH1 0x40 MSTORE DUP1 PUSH1 0x60 DUP2 MSTORE PUSH1 0x20 ADD PUSH1 0x60 DUP2 MSTORE PUSH1 0x20 ADD PUSH1 0x60 DUP2 MSTORE PUSH1 0x20 ADD PUSH1 0x60 DUP2 MSTORE PUSH1 0x20 ADD PUSH1 0x60 DUP2 MSTORE PUSH1 0x20 ADD PUSH0 DUP2 MSTORE PUSH1 0x20 ADD PUSH0 DUP2 MSTORE POP SWAP1 JUMP JUMPDEST PUSH0 PUSH4 0xFFFFFFFF DUP3 AND SWAP1 POP SWAP2 SWAP1 POP JUMP JUMPDEST PUSH2 0x440E DUP2 PUSH2 0x43F6 JUMP JUMPDEST DUP3 MSTORE POP POP JUMP JUMPDEST PUSH0 PUSH1 0x20 DUP3 ADD SWAP1 POP PUSH2 0x4427 PUSH0 DUP4 ADD DUP5 PUSH2 0x4405 JUMP JUMPDEST SWAP3 SWAP2 POP POP JUMP JUMPDEST PUSH0 PUSH1 0x40 MLOAD SWAP1 POP SWAP1 JUMP JUMPDEST PUSH0 PUSH0 REVERT JUMPDEST PUSH0 PUSH0 REVERT JUMPDEST PUSH0 PUSH20 0xFFFFFFFFFFFFFFFFFFFFFFFFFFFFFFFFFFFFFFFF DUP3 AND SWAP1 POP SWAP2 SWAP1 POP JUMP JUMPDEST PUSH0 PUSH2 0x4467 DUP3 PUSH2 0x443E JUMP JUMPDEST SWAP1 POP SWAP2 SWAP1 POP JUMP JUMPDEST PUSH2 0x4477 DUP2 PUSH2 0x445D JUMP JUMPDEST DUP2 EQ PUSH2 0x4481 JUMPI PUSH0 PUSH0 REVERT JUMPDEST POP JUMP JUMPDEST PUSH0 DUP2 CALLDATALOAD SWAP1 POP PUSH2 0x4492 DUP2 PUSH2 0x446E JUMP JUMPDEST SWAP3 SWAP2 POP POP JUMP JUMPDEST PUSH0 PUSH0 PUSH1 0x40 DUP4 DUP6 SUB SLT ISZERO PUSH2 0x44AE JUMPI PUSH2 0x44AD PUSH2 0x4436 JUMP JUMPDEST JUMPDEST PUSH0 PUSH2 0x44BB DUP6 DUP3 DUP7 ADD PUSH2 0x4484 JUMP JUMPDEST SWAP3 POP POP PUSH1 0x20 PUSH2 0x44CC DUP6 DUP3 DUP7 ADD PUSH2 0x4484 JUMP JUMPDEST SWAP2 POP POP SWAP3 POP SWAP3 SWAP1 POP JUMP JUMPDEST PUSH0 DUP2 ISZERO ISZERO SWAP1 POP SWAP2 SWAP1 POP JUMP JUMPDEST PUSH2 0x44EA DUP2 PUSH2 0x44D6 JUMP JUMPDEST DUP3 MSTORE POP POP JUMP JUMPDEST PUSH0 PUSH1 0x20 DUP3 ADD SWAP1 POP PUSH2 0x4503 PUSH0 DUP4 ADD DUP5 PUSH2 0x44E1 JUMP JUMPDEST SWAP3 SWAP2 POP POP JUMP JUMPDEST PUSH0 DUP2 SWAP1 POP SWAP2 SWAP1 POP JUMP JUMPDEST PUSH2 0x451B DUP2 PUSH2 0x4509 JUMP JUMPDEST DUP2 EQ PUSH2 0x4525 JUMPI PUSH0 PUSH0 REVERT JUMPDEST POP JUMP JUMPDEST PUSH0 DUP2 CALLDATALOAD SWAP1 POP PUSH2 0x4536 DUP2 PUSH2 0x4512 JUMP JUMPDEST SWAP3 SWAP2 POP POP JUMP JUMPDEST PUSH0 PUSH0 PUSH1 0x40 DUP4 DUP6 SUB SLT ISZERO PUSH2 0x4552 JUMPI PUSH2 0x4551 PUSH2 0x4436 JUMP JUMPDEST JUMPDEST PUSH0 PUSH2 0x455F DUP6 DUP3 DUP7 ADD PUSH2 0x4528 JUMP JUMPDEST SWAP3 POP POP PUSH1 0x20 PUSH2 0x4570 DUP6 DUP3 DUP7 ADD PUSH2 0x4484 JUMP JUMPDEST SWAP2 POP POP SWAP3 POP SWAP3 SWAP1 POP JUMP JUMPDEST PUSH0 PUSH0 REVERT JUMPDEST PUSH0 PUSH0 REVERT JUMPDEST PUSH0 PUSH1 0x1F NOT PUSH1 0x1F DUP4 ADD AND SWAP1 POP SWAP2 SWAP1 POP JUMP JUMPDEST PUSH32 0x4E487B7100000000000000000000000000000000000000000000000000000000 PUSH0 MSTORE PUSH1 0x41 PUSH1 0x4 MSTORE PUSH1 0x24 PUSH0 REVERT JUMPDEST PUSH2 0x45C8 DUP3 PUSH2 0x4582 JUMP JUMPDEST DUP2 ADD DUP2 DUP2 LT PUSH8 0xFFFFFFFFFFFFFFFF DUP3 GT OR ISZERO PUSH2 0x45E7 JUMPI PUSH2 0x45E6 PUSH2 0x4592 JUMP JUMPDEST JUMPDEST DUP1 PUSH1 0x40 MSTORE POP POP POP JUMP JUMPDEST PUSH0 PUSH2 0x45F9 PUSH2 0x442D JUMP JUMPDEST SWAP1 POP PUSH2 0x4605 DUP3 DUP3 PUSH2 0x45BF JUMP JUMPDEST SWAP2 SWAP1 POP JUMP JUMPDEST PUSH0 PUSH8 0xFFFFFFFFFFFFFFFF DUP3 GT ISZERO PUSH2 0x4624 JUMPI PUSH2 0x4623 PUSH2 0x4592 JUMP JUMPDEST JUMPDEST PUSH2 0x462D DUP3 PUSH2 0x4582 JUMP JUMPDEST SWAP1 POP PUSH1 0x20 DUP2 ADD SWAP1 POP SWAP2 SWAP1 POP JUMP JUMPDEST DUP3 DUP2 DUP4 CALLDATACOPY PUSH0 DUP4 DUP4 ADD MSTORE POP POP POP JUMP JUMPDEST PUSH0 PUSH2 0x465A PUSH2 0x4655 DUP5 PUSH2 0x460A JUMP JUMPDEST PUSH2 0x45F0 JUMP JUMPDEST SWAP1 POP DUP3 DUP2 MSTORE PUSH1 0x20 DUP2 ADD DUP5 DUP5 DUP5 ADD GT ISZERO PUSH2 0x4676 JUMPI PUSH2 0x4675 PUSH2 0x457E JUMP JUMPDEST JUMPDEST PUSH2 0x4681 DUP5 DUP3 DUP6 PUSH2 0x463A JUMP JUMPDEST POP SWAP4 SWAP3 POP POP POP JUMP JUMPDEST PUSH0 DUP3 PUSH1 0x1F DUP4 ADD SLT PUSH2 0x469D JUMPI PUSH2 0x469C PUSH2 0x457A JUMP JUMPDEST JUMPDEST DUP2 CALLDATALOAD PUSH2 0x46AD DUP5 DUP3 PUSH1 0x20 DUP7 ADD PUSH2 0x4648 JUMP JUMPDEST SWAP2 POP POP SWAP3 SWAP2 POP POP JUMP JUMPDEST PUSH0 PUSH1 0x20 DUP3 DUP5 SUB SLT ISZERO PUSH2 0x46CB JUMPI PUSH2 0x46CA PUSH2 0x4436 JUMP JUMPDEST JUMPDEST PUSH0 DUP3 ADD CALLDATALOAD PUSH8 0xFFFFFFFFFFFFFFFF DUP2 GT ISZERO PUSH2 0x46E8 JUMPI PUSH2 0x46E7 PUSH2 0x443A JUMP JUMPDEST JUMPDEST PUSH2 0x46F4 DUP5 DUP3 DUP6 ADD PUSH2 0x4689 JUMP JUMPDEST SWAP2 POP POP SWAP3 SWAP2 POP POP JUMP JUMPDEST PUSH2 0x4706 DUP2 PUSH2 0x445D JUMP JUMPDEST DUP3 MSTORE POP POP JUMP JUMPDEST PUSH0 PUSH1 0x20 DUP3 ADD SWAP1 POP PUSH2 0x471F PUSH0 DUP4 ADD DUP5 PUSH2 0x46FD JUMP JUMPDEST SWAP3 SWAP2 POP POP JUMP JUMPDEST PUSH0 PUSH2 0xFFFF DUP3 AND SWAP1 POP SWAP2 SWAP1 POP JUMP JUMPDEST PUSH2 0x473B DUP2 PUSH2 0x4725 JUMP JUMPDEST DUP3 MSTORE POP POP JUMP JUMPDEST PUSH0 PUSH1 0x20 DUP3 ADD SWAP1 POP PUSH2 0x4754 PUSH0 DUP4 ADD DUP5 PUSH2 0x4732 JUMP JUMPDEST SWAP3 SWAP2 POP POP JUMP JUMPDEST PUSH0 DUP2 SWAP1 POP SWAP2 SWAP1 POP JUMP JUMPDEST PUSH0 PUSH2 0x477D PUSH2 0x4778 PUSH2 0x4773 DUP5 PUSH2 0x443E JUMP JUMPDEST PUSH2 0x475A JUMP JUMPDEST PUSH2 0x443E JUMP JUMPDEST SWAP1 POP SWAP2 SWAP1 POP JUMP JUMPDEST PUSH0 PUSH2 0x478E DUP3 PUSH2 0x4763 JUMP JUMPDEST SWAP1 POP SWAP2 SWAP1 POP JUMP JUMPDEST PUSH0 PUSH2 0x479F DUP3 PUSH2 0x4784 JUMP JUMPDEST SWAP1 POP SWAP2 SWAP1 POP JUMP JUMPDEST PUSH2 0x47AF DUP2 PUSH2 0x4795 JUMP JUMPDEST DUP3 MSTORE POP POP JUMP JUMPDEST PUSH0 PUSH1 0x20 DUP3 ADD SWAP1 POP PUSH2 0x47C8 PUSH0 DUP4 ADD DUP5 PUSH2 0x47A6 JUMP JUMPDEST SWAP3 SWAP2 POP POP JUMP JUMPDEST PUSH2 0x47D7 DUP2 PUSH2 0x44D6 JUMP JUMPDEST DUP2 EQ PUSH2 0x47E1 JUMPI PUSH0 PUSH0 REVERT JUMPDEST POP JUMP JUMPDEST PUSH0 DUP2 CALLDATALOAD SWAP1 POP PUSH2 0x47F2 DUP2 PUSH2 0x47CE JUMP JUMPDEST SWAP3 SWAP2 POP POP JUMP JUMPDEST PUSH0 PUSH1 0x20 DUP3 DUP5 SUB SLT ISZERO PUSH2 0x480D JUMPI PUSH2 0x480C PUSH2 0x4436 JUMP JUMPDEST JUMPDEST PUSH0 PUSH2 0x481A DUP5 DUP3 DUP6 ADD PUSH2 0x47E4 JUMP JUMPDEST SWAP2 POP POP SWAP3 SWAP2 POP POP JUMP JUMPDEST PUSH2 0x482C DUP2 PUSH2 0x4725 JUMP JUMPDEST DUP2 EQ PUSH2 0x4836 JUMPI PUSH0 PUSH0 REVERT JUMPDEST POP JUMP JUMPDEST PUSH0 DUP2 CALLDATALOAD SWAP1 POP PUSH2 0x4847 DUP2 PUSH2 0x4823 JUMP JUMPDEST SWAP3 SWAP2 POP POP JUMP JUMPDEST PUSH0 PUSH1 0x20 DUP3 DUP5 SUB SLT ISZERO PUSH2 0x4862 JUMPI PUSH2 0x4861 PUSH2 0x4436 JUMP JUMPDEST JUMPDEST PUSH0 PUSH2 0x486F DUP5 DUP3 DUP6 ADD PUSH2 0x4839 JUMP JUMPDEST SWAP2 POP POP SWAP3 SWAP2 POP POP JUMP JUMPDEST PUSH0 PUSH1 0x20 DUP3 DUP5 SUB SLT ISZERO PUSH2 0x488D JUMPI PUSH2 0x488C PUSH2 0x4436 JUMP JUMPDEST JUMPDEST PUSH0 PUSH2 0x489A DUP5 DUP3 DUP6 ADD PUSH2 0x4484 JUMP JUMPDEST SWAP2 POP POP SWAP3 SWAP2 POP POP JUMP JUMPDEST PUSH2 0x48AC DUP2 PUSH2 0x43F6 JUMP JUMPDEST DUP2 EQ PUSH2 0x48B6 JUMPI PUSH0 PUSH0 REVERT JUMPDEST POP JUMP JUMPDEST PUSH0 DUP2 CALLDATALOAD SWAP1 POP PUSH2 0x48C7 DUP2 PUSH2 0x48A3 JUMP JUMPDEST SWAP3 SWAP2 POP POP JUMP JUMPDEST PUSH0 PUSH1 0x20 DUP3 DUP5 SUB SLT ISZERO PUSH2 0x48E2 JUMPI PUSH2 0x48E1 PUSH2 0x4436 JUMP JUMPDEST JUMPDEST PUSH0 PUSH2 0x48EF DUP5 DUP3 DUP6 ADD PUSH2 0x48B9 JUMP JUMPDEST SWAP2 POP POP SWAP3 SWAP2 POP POP JUMP JUMPDEST PUSH0 PUSH2 0x4902 DUP3 PUSH2 0x443E JUMP JUMPDEST SWAP1 POP SWAP2 SWAP1 POP JUMP JUMPDEST PUSH2 0x4912 DUP2 PUSH2 0x48F8 JUMP JUMPDEST DUP2 EQ PUSH2 0x491C JUMPI PUSH0 PUSH0 REVERT JUMPDEST POP JUMP JUMPDEST PUSH0 DUP2 CALLDATALOAD SWAP1 POP PUSH2 0x492D DUP2 PUSH2 0x4909 JUMP JUMPDEST SWAP3 SWAP2 POP POP JUMP JUMPDEST PUSH0 PUSH0 PUSH0 PUSH1 0x60 DUP5 DUP7 SUB SLT ISZERO PUSH2 0x494A JUMPI PUSH2 0x4949 PUSH2 0x4436 JUMP JUMPDEST JUMPDEST PUSH0 PUSH2 0x4957 DUP7 DUP3 DUP8 ADD PUSH2 0x4528 JUMP JUMPDEST SWAP4 POP POP PUSH1 0x20 PUSH2 0x4968 DUP7 DUP3 DUP8 ADD PUSH2 0x4528 JUMP JUMPDEST SWAP3 POP POP PUSH1 0x40 PUSH2 0x4979 DUP7 DUP3 DUP8 ADD PUSH2 0x491F JUMP JUMPDEST SWAP2 POP POP SWAP3 POP SWAP3 POP SWAP3 JUMP JUMPDEST PUSH0 PUSH1 0x20 DUP3 DUP5 SUB SLT ISZERO PUSH2 0x4998 JUMPI PUSH2 0x4997 PUSH2 0x4436 JUMP JUMPDEST JUMPDEST PUSH0 PUSH2 0x49A5 DUP5 DUP3 DUP6 ADD PUSH2 0x4528 JUMP JUMPDEST SWAP2 POP POP SWAP3 SWAP2 POP POP JUMP JUMPDEST PUSH0 DUP2 MLOAD SWAP1 POP PUSH2 0x49BC DUP2 PUSH2 0x446E JUMP JUMPDEST SWAP3 SWAP2 POP POP JUMP JUMPDEST PUSH0 PUSH1 0x20 DUP3 DUP5 SUB SLT ISZERO PUSH2 0x49D7 JUMPI PUSH2 0x49D6 PUSH2 0x4436 JUMP JUMPDEST JUMPDEST PUSH0 PUSH2 0x49E4 DUP5 DUP3 DUP6 ADD PUSH2 0x49AE JUMP JUMPDEST SWAP2 POP POP SWAP3 SWAP2 POP POP JUMP JUMPDEST PUSH0 DUP3 DUP3 MSTORE PUSH1 0x20 DUP3 ADD SWAP1 POP SWAP3 SWAP2 POP POP JUMP JUMPDEST PUSH32 0x43616C6C6572206973206E6F7420746865206F776E6572000000000000000000 PUSH0 DUP3 ADD MSTORE POP JUMP JUMPDEST PUSH0 PUSH2 0x4A31 PUSH1 0x17 DUP4 PUSH2 0x49ED JUMP JUMPDEST SWAP2 POP PUSH2 0x4A3C DUP3 PUSH2 0x49FD JUMP JUMPDEST PUSH1 0x20 DUP3 ADD SWAP1 POP SWAP2 SWAP1 POP JUMP JUMPDEST PUSH0 PUSH1 0x20 DUP3 ADD SWAP1 POP DUP2 DUP2 SUB PUSH0 DUP4 ADD MSTORE PUSH2 0x4A5E DUP2 PUSH2 0x4A25 JUMP JUMPDEST SWAP1 POP SWAP2 SWAP1 POP JUMP JUMPDEST PUSH32 0x436F6E7472616374206973206E6F742061637469766500000000000000000000 PUSH0 DUP3 ADD MSTORE POP JUMP JUMPDEST PUSH0 PUSH2 0x4A99 PUSH1 0x16 DUP4 PUSH2 0x49ED JUMP JUMPDEST SWAP2 POP PUSH2 0x4AA4 DUP3 PUSH2 0x4A65 JUMP JUMPDEST PUSH1 0x20 DUP3 ADD SWAP1 POP SWAP2 SWAP1 POP JUMP JUMPDEST PUSH0 PUSH1 0x20 DUP3 ADD SWAP1 POP DUP2 DUP2 SUB PUSH0 DUP4 ADD MSTORE PUSH2 0x4AC6 DUP2 PUSH2 0x4A8D JUMP JUMPDEST SWAP1 POP SWAP2 SWAP1 POP JUMP JUMPDEST PUSH2 0x4AD6 DUP2 PUSH2 0x4509 JUMP JUMPDEST DUP3 MSTORE POP POP JUMP JUMPDEST PUSH0 PUSH1 0x20 DUP3 ADD SWAP1 POP PUSH2 0x4AEF PUSH0 DUP4 ADD DUP5 PUSH2 0x4ACD JUMP JUMPDEST SWAP3 SWAP2 POP POP JUMP JUMPDEST PUSH0 PUSH0 REVERT JUMPDEST PUSH0 PUSH0 REVERT JUMPDEST DUP3 DUP2 DUP4 MCOPY PUSH0 DUP4 DUP4 ADD MSTORE POP POP POP JUMP JUMPDEST PUSH0 PUSH2 0x4B1D PUSH2 0x4B18 DUP5 PUSH2 0x460A JUMP JUMPDEST PUSH2 0x45F0 JUMP JUMPDEST SWAP1 POP DUP3 DUP2 MSTORE PUSH1 0x20 DUP2 ADD DUP5 DUP5 DUP5 ADD GT ISZERO PUSH2 0x4B39 JUMPI PUSH2 0x4B38 PUSH2 0x457E JUMP JUMPDEST JUMPDEST PUSH2 0x4B44 DUP5 DUP3 DUP6 PUSH2 0x4AFD JUMP JUMPDEST POP SWAP4 SWAP3 POP POP POP JUMP JUMPDEST PUSH0 DUP3 PUSH1 0x1F DUP4 ADD SLT PUSH2 0x4B60 JUMPI PUSH2 0x4B5F PUSH2 0x457A JUMP JUMPDEST JUMPDEST DUP2 MLOAD PUSH2 0x4B70 DUP5 DUP3 PUSH1 0x20 DUP7 ADD PUSH2 0x4B0B JUMP JUMPDEST SWAP2 POP POP SWAP3 SWAP2 POP POP JUMP JUMPDEST PUSH0 PUSH8 0xFFFFFFFFFFFFFFFF DUP3 GT ISZERO PUSH2 0x4B93 JUMPI PUSH2 0x4B92 PUSH2 0x4592 JUMP JUMPDEST JUMPDEST PUSH1 0x20 DUP3 MUL SWAP1 POP PUSH1 0x20 DUP2 ADD SWAP1 POP SWAP2 SWAP1 POP JUMP JUMPDEST PUSH0 PUSH0 REVERT JUMPDEST PUSH0 DUP2 MLOAD SWAP1 POP PUSH2 0x4BB6 DUP2 PUSH2 0x4823 JUMP JUMPDEST SWAP3 SWAP2 POP POP JUMP JUMPDEST PUSH0 PUSH1 0x40 DUP3 DUP5 SUB SLT ISZERO PUSH2 0x4BD1 JUMPI PUSH2 0x4BD0 PUSH2 0x4AF5 JUMP JUMPDEST JUMPDEST PUSH2 0x4BDB PUSH1 0x40 PUSH2 0x45F0 JUMP JUMPDEST SWAP1 POP PUSH0 PUSH2 0x4BEA DUP5 DUP3 DUP6 ADD PUSH2 0x49AE JUMP JUMPDEST PUSH0 DUP4 ADD MSTORE POP PUSH1 0x20 PUSH2 0x4BFD DUP5 DUP3 DUP6 ADD PUSH2 0x4BA8 JUMP JUMPDEST PUSH1 0x20 DUP4 ADD MSTORE POP SWAP3 SWAP2 POP POP JUMP JUMPDEST PUSH0 PUSH2 0x4C1B PUSH2 0x4C16 DUP5 PUSH2 0x4B79 JUMP JUMPDEST PUSH2 0x45F0 JUMP JUMPDEST SWAP1 POP DUP1 DUP4 DUP3 MSTORE PUSH1 0x20 DUP3 ADD SWAP1 POP PUSH1 0x40 DUP5 MUL DUP4 ADD DUP6 DUP2 GT ISZERO PUSH2 0x4C3E JUMPI PUSH2 0x4C3D PUSH2 0x4BA4 JUMP JUMPDEST JUMPDEST DUP4 JUMPDEST DUP2 DUP2 LT ISZERO PUSH2 0x4C67 JUMPI DUP1 PUSH2 0x4C53 DUP9 DUP3 PUSH2 0x4BBC JUMP JUMPDEST DUP5 MSTORE PUSH1 0x20 DUP5 ADD SWAP4 POP POP PUSH1 0x40 DUP2 ADD SWAP1 POP PUSH2 0x4C40 JUMP JUMPDEST POP POP POP SWAP4 SWAP3 POP POP POP JUMP JUMPDEST PUSH0 DUP3 PUSH1 0x1F DUP4 ADD SLT PUSH2 0x4C85 JUMPI PUSH2 0x4C84 PUSH2 0x457A JUMP JUMPDEST JUMPDEST DUP2 MLOAD PUSH2 0x4C95 DUP5 DUP3 PUSH1 0x20 DUP7 ADD PUSH2 0x4C09 JUMP JUMPDEST SWAP2 POP POP SWAP3 SWAP2 POP POP JUMP JUMPDEST PUSH0 PUSH1 0x60 DUP3 DUP5 SUB SLT ISZERO PUSH2 0x4CB3 JUMPI PUSH2 0x4CB2 PUSH2 0x4AF5 JUMP JUMPDEST JUMPDEST PUSH2 0x4CBD PUSH1 0x60 PUSH2 0x45F0 JUMP JUMPDEST SWAP1 POP PUSH0 DUP3 ADD MLOAD PUSH8 0xFFFFFFFFFFFFFFFF DUP2 GT ISZERO PUSH2 0x4CDC JUMPI PUSH2 0x4CDB PUSH2 0x4AF9 JUMP JUMPDEST JUMPDEST PUSH2 0x4CE8 DUP5 DUP3 DUP6 ADD PUSH2 0x4B4C JUMP JUMPDEST PUSH0 DUP4 ADD MSTORE POP PUSH1 0x20 DUP3 ADD MLOAD PUSH8 0xFFFFFFFFFFFFFFFF DUP2 GT ISZERO PUSH2 0x4D0B JUMPI PUSH2 0x4D0A PUSH2 0x4AF9 JUMP JUMPDEST JUMPDEST PUSH2 0x4D17 DUP5 DUP3 DUP6 ADD PUSH2 0x4B4C JUMP JUMPDEST PUSH1 0x20 DUP4 ADD MSTORE POP PUSH1 0x40 DUP3 ADD MLOAD PUSH8 0xFFFFFFFFFFFFFFFF DUP2 GT ISZERO PUSH2 0x4D3B JUMPI PUSH2 0x4D3A PUSH2 0x4AF9 JUMP JUMPDEST JUMPDEST PUSH2 0x4D47 DUP5 DUP3 DUP6 ADD PUSH2 0x4C71 JUMP JUMPDEST PUSH1 0x40 DUP4 ADD MSTORE POP SWAP3 SWAP2 POP POP JUMP JUMPDEST PUSH0 PUSH0 PUSH0 PUSH1 0x60 DUP5 DUP7 SUB SLT ISZERO PUSH2 0x4D6A JUMPI PUSH2 0x4D69 PUSH2 0x4436 JUMP JUMPDEST JUMPDEST PUSH0 DUP5 ADD MLOAD PUSH8 0xFFFFFFFFFFFFFFFF DUP2 GT ISZERO PUSH2 0x4D87 JUMPI PUSH2 0x4D86 PUSH2 0x443A JUMP JUMPDEST JUMPDEST PUSH2 0x4D93 DUP7 DUP3 DUP8 ADD PUSH2 0x4C9E JUMP JUMPDEST SWAP4 POP POP PUSH1 0x20 PUSH2 0x4DA4 DUP7 DUP3 DUP8 ADD PUSH2 0x49AE JUMP JUMPDEST SWAP3 POP POP PUSH1 0x40 PUSH2 0x4DB5 DUP7 DUP3 DUP8 ADD PUSH2 0x49AE JUMP JUMPDEST SWAP2 POP POP SWAP3 POP SWAP3 POP SWAP3 JUMP JUMPDEST PUSH0 DUP2 MLOAD SWAP1 POP SWAP2 SWAP1 POP JUMP JUMPDEST PUSH0 PUSH2 0x4DD3 DUP3 PUSH2 0x4DBF JUMP JUMPDEST PUSH2 0x4DDD DUP2 DUP6 PUSH2 0x49ED JUMP JUMPDEST SWAP4 POP PUSH2 0x4DED DUP2 DUP6 PUSH1 0x20 DUP7 ADD PUSH2 0x4AFD JUMP JUMPDEST PUSH2 0x4DF6 DUP2 PUSH2 0x4582 JUMP JUMPDEST DUP5 ADD SWAP2 POP POP SWAP3 SWAP2 POP POP JUMP JUMPDEST PUSH0 PUSH1 0x20 DUP3 ADD SWAP1 POP DUP2 DUP2 SUB PUSH0 DUP4 ADD MSTORE PUSH2 0x4E19 DUP2 DUP5 PUSH2 0x4DC9 JUMP JUMPDEST SWAP1 POP SWAP3 SWAP2 POP POP JUMP JUMPDEST PUSH0 PUSH0 PUSH1 0x40 DUP4 DUP6 SUB SLT ISZERO PUSH2 0x4E37 JUMPI PUSH2 0x4E36 PUSH2 0x4436 JUMP JUMPDEST JUMPDEST PUSH0 DUP4 ADD MLOAD PUSH8 0xFFFFFFFFFFFFFFFF DUP2 GT ISZERO PUSH2 0x4E54 JUMPI PUSH2 0x4E53 PUSH2 0x443A JUMP JUMPDEST JUMPDEST PUSH2 0x4E60 DUP6 DUP3 DUP7 ADD PUSH2 0x4C9E JUMP JUMPDEST SWAP3 POP POP PUSH1 0x20 PUSH2 0x4E71 DUP6 DUP3 DUP7 ADD PUSH2 0x49AE JUMP JUMPDEST SWAP2 POP POP SWAP3 POP SWAP3 SWAP1 POP JUMP JUMPDEST PUSH32 0x5265656E7472616E637947756172643A207265656E7472616E742063616C6C00 PUSH0 DUP3 ADD MSTORE POP JUMP JUMPDEST PUSH0 PUSH2 0x4EAF PUSH1 0x1F DUP4 PUSH2 0x49ED JUMP JUMPDEST SWAP2 POP PUSH2 0x4EBA DUP3 PUSH2 0x4E7B JUMP JUMPDEST PUSH1 0x20 DUP3 ADD SWAP1 POP SWAP2 SWAP1 POP JUMP JUMPDEST PUSH0 PUSH1 0x20 DUP3 ADD SWAP1 POP DUP2 DUP2 SUB PUSH0 DUP4 ADD MSTORE PUSH2 0x4EDC DUP2 PUSH2 0x4EA3 JUMP JUMPDEST SWAP1 POP SWAP2 SWAP1 POP JUMP JUMPDEST PUSH0 DUP3 DUP3 MSTORE PUSH1 0x20 DUP3 ADD SWAP1 POP SWAP3 SWAP2 POP POP JUMP JUMPDEST PUSH0 PUSH2 0x4EFD DUP3 PUSH2 0x4DBF JUMP JUMPDEST PUSH2 0x4F07 DUP2 DUP6 PUSH2 0x4EE3 JUMP JUMPDEST SWAP4 POP PUSH2 0x4F17 DUP2 DUP6 PUSH1 0x20 DUP7 ADD PUSH2 0x4AFD JUMP JUMPDEST PUSH2 0x4F20 DUP2 PUSH2 0x4582 JUMP JUMPDEST DUP5 ADD SWAP2 POP POP SWAP3 SWAP2 POP POP JUMP JUMPDEST PUSH0 DUP2 MLOAD SWAP1 POP SWAP2 SWAP1 POP JUMP JUMPDEST PUSH0 DUP3 DUP3 MSTORE PUSH1 0x20 DUP3 ADD SWAP1 POP SWAP3 SWAP2 POP POP JUMP JUMPDEST PUSH0 DUP2 SWAP1 POP PUSH1 0x20 DUP3 ADD SWAP1 POP SWAP2 SWAP1 POP JUMP JUMPDEST PUSH2 0x4F5D DUP2 PUSH2 0x445D JUMP JUMPDEST DUP3 MSTORE POP POP JUMP JUMPDEST PUSH2 0x4F6C DUP2 PUSH2 0x4725 JUMP JUMPDEST DUP3 MSTORE POP POP JUMP JUMPDEST PUSH1 0x40 DUP3 ADD PUSH0 DUP3 ADD MLOAD PUSH2 0x4F86 PUSH0 DUP6 ADD DUP3 PUSH2 0x4F54 JUMP JUMPDEST POP PUSH1 0x20 DUP3 ADD MLOAD PUSH2 0x4F99 PUSH1 0x20 DUP6 ADD DUP3 PUSH2 0x4F63 JUMP JUMPDEST POP POP POP POP JUMP JUMPDEST PUSH0 PUSH2 0x4FAA DUP4 DUP4 PUSH2 0x4F72 JUMP JUMPDEST PUSH1 0x40 DUP4 ADD SWAP1 POP SWAP3 SWAP2 POP POP JUMP JUMPDEST PUSH0 PUSH1 0x20 DUP3 ADD SWAP1 POP SWAP2 SWAP1 POP JUMP JUMPDEST PUSH0 PUSH2 0x4FCC DUP3 PUSH2 0x4F2B JUMP JUMPDEST PUSH2 0x4FD6 DUP2 DUP6 PUSH2 0x4F35 JUMP JUMPDEST SWAP4 POP PUSH2 0x4FE1 DUP4 PUSH2 0x4F45 JUMP JUMPDEST DUP1 PUSH0 JUMPDEST DUP4 DUP2 LT ISZERO PUSH2 0x5011 JUMPI DUP2 MLOAD PUSH2 0x4FF8 DUP9 DUP3 PUSH2 0x4F9F JUMP JUMPDEST SWAP8 POP PUSH2 0x5003 DUP4 PUSH2 0x4FB6 JUMP JUMPDEST SWAP3 POP POP PUSH1 0x1 DUP2 ADD SWAP1 POP PUSH2 0x4FE4 JUMP JUMPDEST POP DUP6 SWAP4 POP POP POP POP SWAP3 SWAP2 POP POP JUMP JUMPDEST PUSH0 PUSH1 0x60 DUP4 ADD PUSH0 DUP4 ADD MLOAD DUP5 DUP3 SUB PUSH0 DUP7 ADD MSTORE PUSH2 0x5038 DUP3 DUP3 PUSH2 0x4EF3 JUMP JUMPDEST SWAP2 POP POP PUSH1 0x20 DUP4 ADD MLOAD DUP5 DUP3 SUB PUSH1 0x20 DUP7 ADD MSTORE PUSH2 0x5052 DUP3 DUP3 PUSH2 0x4EF3 JUMP JUMPDEST SWAP2 POP POP PUSH1 0x40 DUP4 ADD MLOAD DUP5 DUP3 SUB PUSH1 0x40 DUP7 ADD MSTORE PUSH2 0x506C DUP3 DUP3 PUSH2 0x4FC2 JUMP JUMPDEST SWAP2 POP POP DUP1 SWAP2 POP POP SWAP3 SWAP2 POP POP JUMP JUMPDEST PUSH0 PUSH1 0x40 DUP3 ADD SWAP1 POP DUP2 DUP2 SUB PUSH0 DUP4 ADD MSTORE PUSH2 0x5091 DUP2 DUP6 PUSH2 0x501E JUMP JUMPDEST SWAP1 POP PUSH2 0x50A0 PUSH1 0x20 DUP4 ADD DUP5 PUSH2 0x46FD JUMP JUMPDEST SWAP4 SWAP3 POP POP POP JUMP JUMPDEST PUSH0 PUSH8 0xFFFFFFFFFFFFFFFF DUP3 GT ISZERO PUSH2 0x50C1 JUMPI PUSH2 0x50C0 PUSH2 0x4592 JUMP JUMPDEST JUMPDEST PUSH1 0x20 DUP3 MUL SWAP1 POP PUSH1 0x20 DUP2 ADD SWAP1 POP SWAP2 SWAP1 POP JUMP JUMPDEST PUSH0 PUSH1 0xFF DUP3 AND SWAP1 POP SWAP2 SWAP1 POP JUMP JUMPDEST PUSH2 0x50E7 DUP2 PUSH2 0x50D2 JUMP JUMPDEST DUP2 EQ PUSH2 0x50F1 JUMPI PUSH0 PUSH0 REVERT JUMPDEST POP JUMP JUMPDEST PUSH0 DUP2 MLOAD SWAP1 POP PUSH2 0x5102 DUP2 PUSH2 0x50DE JUMP JUMPDEST SWAP3 SWAP2 POP POP JUMP JUMPDEST PUSH0 DUP2 MLOAD SWAP1 POP PUSH2 0x5116 DUP2 PUSH2 0x4512 JUMP JUMPDEST SWAP3 SWAP2 POP POP JUMP JUMPDEST PUSH0 PUSH1 0xC0 DUP3 DUP5 SUB SLT ISZERO PUSH2 0x5131 JUMPI PUSH2 0x5130 PUSH2 0x4AF5 JUMP JUMPDEST JUMPDEST PUSH2 0x513B PUSH1 0xC0 PUSH2 0x45F0 JUMP JUMPDEST SWAP1 POP PUSH0 PUSH2 0x514A DUP5 DUP3 DUP6 ADD PUSH2 0x49AE JUMP JUMPDEST PUSH0 DUP4 ADD MSTORE POP PUSH1 0x20 PUSH2 0x515D DUP5 DUP3 DUP6 ADD PUSH2 0x50F4 JUMP JUMPDEST PUSH1 0x20 DUP4 ADD MSTORE POP PUSH1 0x40 PUSH2 0x5171 DUP5 DUP3 DUP6 ADD PUSH2 0x4BA8 JUMP JUMPDEST PUSH1 0x40 DUP4 ADD MSTORE POP PUSH1 0x60 PUSH2 0x5185 DUP5 DUP3 DUP6 ADD PUSH2 0x5108 JUMP JUMPDEST PUSH1 0x60 DUP4 ADD MSTORE POP PUSH1 0x80 PUSH2 0x5199 DUP5 DUP3 DUP6 ADD PUSH2 0x5108 JUMP JUMPDEST PUSH1 0x80 DUP4 ADD MSTORE POP PUSH1 0xA0 PUSH2 0x51AD DUP5 DUP3 DUP6 ADD PUSH2 0x5108 JUMP JUMPDEST PUSH1 0xA0 DUP4 ADD MSTORE POP SWAP3 SWAP2 POP POP JUMP JUMPDEST PUSH0 PUSH2 0x51CB PUSH2 0x51C6 DUP5 PUSH2 0x50A7 JUMP JUMPDEST PUSH2 0x45F0 JUMP JUMPDEST SWAP1 POP DUP1 DUP4 DUP3 MSTORE PUSH1 0x20 DUP3 ADD SWAP1 POP PUSH1 0xC0 DUP5 MUL DUP4 ADD DUP6 DUP2 GT ISZERO PUSH2 0x51EE JUMPI PUSH2 0x51ED PUSH2 0x4BA4 JUMP JUMPDEST JUMPDEST DUP4 JUMPDEST DUP2 DUP2 LT ISZERO PUSH2 0x5217 JUMPI DUP1 PUSH2 0x5203 DUP9 DUP3 PUSH2 0x511C JUMP JUMPDEST DUP5 MSTORE PUSH1 0x20 DUP5 ADD SWAP4 POP POP PUSH1 0xC0 DUP2 ADD SWAP1 POP PUSH2 0x51F0 JUMP JUMPDEST POP POP POP SWAP4 SWAP3 POP POP POP JUMP JUMPDEST PUSH0 DUP3 PUSH1 0x1F DUP4 ADD SLT PUSH2 0x5235 JUMPI PUSH2 0x5234 PUSH2 0x457A JUMP JUMPDEST JUMPDEST DUP2 MLOAD PUSH2 0x5245 DUP5 DUP3 PUSH1 0x20 DUP7 ADD PUSH2 0x51B9 JUMP JUMPDEST SWAP2 POP POP SWAP3 SWAP2 POP POP JUMP JUMPDEST PUSH0 PUSH0 PUSH1 0x40 DUP4 DUP6 SUB SLT ISZERO PUSH2 0x5264 JUMPI PUSH2 0x5263 PUSH2 0x4436 JUMP JUMPDEST JUMPDEST PUSH0 DUP4 ADD MLOAD PUSH8 0xFFFFFFFFFFFFFFFF DUP2 GT ISZERO PUSH2 0x5281 JUMPI PUSH2 0x5280 PUSH2 0x443A JUMP JUMPDEST JUMPDEST PUSH2 0x528D DUP6 DUP3 DUP7 ADD PUSH2 0x5221 JUMP JUMPDEST SWAP3 POP POP PUSH1 0x20 PUSH2 0x529E DUP6 DUP3 DUP7 ADD PUSH2 0x5108 JUMP JUMPDEST SWAP2 POP POP SWAP3 POP SWAP3 SWAP1 POP JUMP JUMPDEST PUSH0 PUSH1 0x20 DUP3 DUP5 SUB SLT ISZERO PUSH2 0x52BD JUMPI PUSH2 0x52BC PUSH2 0x4436 JUMP JUMPDEST JUMPDEST PUSH0 PUSH2 0x52CA DUP5 DUP3 DUP6 ADD PUSH2 0x5108 JUMP JUMPDEST SWAP2 POP POP SWAP3 SWAP2 POP POP JUMP JUMPDEST PUSH0 DUP2 MLOAD SWAP1 POP SWAP2 SWAP1 POP JUMP JUMPDEST PUSH0 DUP3 DUP3 MSTORE PUSH1 0x20 DUP3 ADD SWAP1 POP SWAP3 SWAP2 POP POP JUMP JUMPDEST PUSH0 DUP2 SWAP1 POP PUSH1 0x20 DUP3 ADD SWAP1 POP SWAP2 SWAP1 POP JUMP JUMPDEST PUSH1 0x40 DUP3 ADD PUSH0 DUP3 ADD MLOAD PUSH2 0x5310 PUSH0 DUP6 ADD DUP3 PUSH2 0x4F54 JUMP JUMPDEST POP PUSH1 0x20 DUP3 ADD MLOAD PUSH2 0x5323 PUSH1 0x20 DUP6 ADD DUP3 PUSH2 0x4F63 JUMP JUMPDEST POP POP POP POP JUMP JUMPDEST PUSH0 PUSH2 0x5334 DUP4 DUP4 PUSH2 0x52FC JUMP JUMPDEST PUSH1 0x40 DUP4 ADD SWAP1 POP SWAP3 SWAP2 POP POP JUMP JUMPDEST PUSH0 PUSH1 0x20 DUP3 ADD SWAP1 POP SWAP2 SWAP1 POP JUMP JUMPDEST PUSH0 PUSH2 0x5356 DUP3 PUSH2 0x52D3 JUMP JUMPDEST PUSH2 0x5360 DUP2 DUP6 PUSH2 0x52DD JUMP JUMPDEST SWAP4 POP PUSH2 0x536B DUP4 PUSH2 0x52ED JUMP JUMPDEST DUP1 PUSH0 JUMPDEST DUP4 DUP2 LT ISZERO PUSH2 0x539B JUMPI DUP2 MLOAD PUSH2 0x5382 DUP9 DUP3 PUSH2 0x5329 JUMP JUMPDEST SWAP8 POP PUSH2 0x538D DUP4 PUSH2 0x5340 JUMP JUMPDEST SWAP3 POP POP PUSH1 0x1 DUP2 ADD SWAP1 POP PUSH2 0x536E JUMP JUMPDEST POP DUP6 SWAP4 POP POP POP POP SWAP3 SWAP2 POP POP JUMP JUMPDEST PUSH0 PUSH1 0x60 DUP3 ADD SWAP1 POP DUP2 DUP2 SUB PUSH0 DUP4 ADD MSTORE PUSH2 0x53C0 DUP2 DUP7 PUSH2 0x534C JUMP JUMPDEST SWAP1 POP PUSH2 0x53CF PUSH1 0x20 DUP4 ADD DUP6 PUSH2 0x46FD JUMP JUMPDEST PUSH2 0x53DC PUSH1 0x40 DUP4 ADD DUP5 PUSH2 0x4405 JUMP JUMPDEST SWAP5 SWAP4 POP POP POP POP JUMP JUMPDEST PUSH32 0x4E487B7100000000000000000000000000000000000000000000000000000000 PUSH0 MSTORE PUSH1 0x11 PUSH1 0x4 MSTORE PUSH1 0x24 PUSH0 REVERT JUMPDEST PUSH0 PUSH2 0x541B DUP3 PUSH2 0x4509 JUMP JUMPDEST SWAP2 POP PUSH2 0x5426 DUP4 PUSH2 0x4509 JUMP JUMPDEST SWAP3 POP DUP3 DUP3 SUB SWAP1 POP DUP2 DUP2 GT ISZERO PUSH2 0x543E JUMPI PUSH2 0x543D PUSH2 0x53E4 JUMP JUMPDEST JUMPDEST SWAP3 SWAP2 POP POP JUMP JUMPDEST PUSH0 PUSH1 0x40 DUP3 ADD SWAP1 POP PUSH2 0x5457 PUSH0 DUP4 ADD DUP6 PUSH2 0x46FD JUMP JUMPDEST PUSH2 0x5464 PUSH1 0x20 DUP4 ADD DUP5 PUSH2 0x4ACD JUMP JUMPDEST SWAP4 SWAP3 POP POP POP JUMP JUMPDEST PUSH32 0x4E487B7100000000000000000000000000000000000000000000000000000000 PUSH0 MSTORE PUSH1 0x32 PUSH1 0x4 MSTORE PUSH1 0x24 PUSH0 REVERT JUMPDEST PUSH0 DUP2 MLOAD SWAP1 POP SWAP2 SWAP1 POP JUMP JUMPDEST PUSH0 DUP3 DUP3 MSTORE PUSH1 0x20 DUP3 ADD SWAP1 POP SWAP3 SWAP2 POP POP JUMP JUMPDEST PUSH0 DUP2 SWAP1 POP PUSH1 0x20 DUP3 ADD SWAP1 POP SWAP2 SWAP1 POP JUMP JUMPDEST PUSH2 0x54CA DUP2 PUSH2 0x4509 JUMP JUMPDEST DUP3 MSTORE POP POP JUMP JUMPDEST PUSH1 0x40 DUP3 ADD PUSH0 DUP3 ADD MLOAD PUSH2 0x54E4 PUSH0 DUP6 ADD DUP3 PUSH2 0x4F54 JUMP JUMPDEST POP PUSH1 0x20 DUP3 ADD MLOAD PUSH2 0x54F7 PUSH1 0x20 DUP6 ADD DUP3 PUSH2 0x54C1 JUMP JUMPDEST POP POP POP POP JUMP JUMPDEST PUSH0 PUSH2 0x5508 DUP4 DUP4 PUSH2 0x54D0 JUMP JUMPDEST PUSH1 0x40 DUP4 ADD SWAP1 POP SWAP3 SWAP2 POP POP JUMP JUMPDEST PUSH0 PUSH1 0x20 DUP3 ADD SWAP1 POP SWAP2 SWAP1 POP JUMP JUMPDEST PUSH0 PUSH2 0x552A DUP3 PUSH2 0x5498 JUMP JUMPDEST PUSH2 0x5534 DUP2 DUP6 PUSH2 0x54A2 JUMP JUMPDEST SWAP4 POP PUSH2 0x553F DUP4 PUSH2 0x54B2 JUMP JUMPDEST DUP1 PUSH0 JUMPDEST DUP4 DUP2 LT ISZERO PUSH2 0x556F JUMPI DUP2 MLOAD PUSH2 0x5556 DUP9 DUP3 PUSH2 0x54FD JUMP JUMPDEST SWAP8 POP PUSH2 0x5561 DUP4 PUSH2 0x5514 JUMP JUMPDEST SWAP3 POP POP PUSH1 0x1 DUP2 ADD SWAP1 POP PUSH2 0x5542 JUMP JUMPDEST POP DUP6 SWAP4 POP POP POP POP SWAP3 SWAP2 POP POP JUMP JUMPDEST PUSH0 PUSH1 0x40 DUP3 ADD SWAP1 POP PUSH2 0x558F PUSH0 DUP4 ADD DUP6 PUSH2 0x4ACD JUMP JUMPDEST DUP2 DUP2 SUB PUSH1 0x20 DUP4 ADD MSTORE PUSH2 0x55A1 DUP2 DUP5 PUSH2 0x5520 JUMP JUMPDEST SWAP1 POP SWAP4 SWAP3 POP POP POP JUMP JUMPDEST PUSH32 0x4469726563746F72792063616E6E6F74206265207A65726F2061646472657373 PUSH0 DUP3 ADD MSTORE POP JUMP JUMPDEST PUSH0 PUSH2 0x55DE PUSH1 0x20 DUP4 PUSH2 0x49ED JUMP JUMPDEST SWAP2 POP PUSH2 0x55E9 DUP3 PUSH2 0x55AA JUMP JUMPDEST PUSH1 0x20 DUP3 ADD SWAP1 POP SWAP2 SWAP1 POP JUMP JUMPDEST PUSH0 PUSH1 0x20 DUP3 ADD SWAP1 POP DUP2 DUP2 SUB PUSH0 DUP4 ADD MSTORE PUSH2 0x560B DUP2 PUSH2 0x55D2 JUMP JUMPDEST SWAP1 POP SWAP2 SWAP1 POP JUMP JUMPDEST PUSH32 0x4469726563746F7279206D757374206265206120636F6E747261637400000000 PUSH0 DUP3 ADD MSTORE POP JUMP JUMPDEST PUSH0 PUSH2 0x5646 PUSH1 0x1C DUP4 PUSH2 0x49ED JUMP JUMPDEST SWAP2 POP PUSH2 0x5651 DUP3 PUSH2 0x5612 JUMP JUMPDEST PUSH1 0x20 DUP3 ADD SWAP1 POP SWAP2 SWAP1 POP JUMP JUMPDEST PUSH0 PUSH1 0x20 DUP3 ADD SWAP1 POP DUP2 DUP2 SUB PUSH0 DUP4 ADD MSTORE PUSH2 0x5673 DUP2 PUSH2 0x563A JUMP JUMPDEST SWAP1 POP SWAP2 SWAP1 POP JUMP JUMPDEST PUSH32 0x4469726563746F7279206164647265737320646F6573206E6F7420696D706C65 PUSH0 DUP3 ADD MSTORE PUSH32 0x6D656E74206F776E657228290000000000000000000000000000000000000000 PUSH1 0x20 DUP3 ADD MSTORE POP JUMP JUMPDEST PUSH0 PUSH2 0x56D4 PUSH1 0x2C DUP4 PUSH2 0x49ED JUMP JUMPDEST SWAP2 POP PUSH2 0x56DF DUP3 PUSH2 0x567A JUMP JUMPDEST PUSH1 0x40 DUP3 ADD SWAP1 POP SWAP2 SWAP1 POP JUMP JUMPDEST PUSH0 PUSH1 0x20 DUP3 ADD SWAP1 POP DUP2 DUP2 SUB PUSH0 DUP4 ADD MSTORE PUSH2 0x5701 DUP2 PUSH2 0x56C8 JUMP JUMPDEST SWAP1 POP SWAP2 SWAP1 POP JUMP JUMPDEST PUSH0 DUP2 MLOAD SWAP1 POP SWAP2 SWAP1 POP JUMP JUMPDEST PUSH0 DUP3 DUP3 MSTORE PUSH1 0x20 DUP3 ADD SWAP1 POP SWAP3 SWAP2 POP POP JUMP JUMPDEST PUSH0 DUP2 SWAP1 POP PUSH1 0x20 DUP3 ADD SWAP1 POP SWAP2 SWAP1 POP JUMP JUMPDEST PUSH1 0x40 DUP3 ADD PUSH0 DUP3 ADD MLOAD PUSH2 0x5745 PUSH0 DUP6 ADD DUP3 PUSH2 0x4F54 JUMP JUMPDEST POP PUSH1 0x20 DUP3 ADD MLOAD PUSH2 0x5758 PUSH1 0x20 DUP6 ADD DUP3 PUSH2 0x54C1 JUMP JUMPDEST POP POP POP POP JUMP JUMPDEST PUSH0 PUSH2 0x5769 DUP4 DUP4 PUSH2 0x5731 JUMP JUMPDEST PUSH1 0x40 DUP4 ADD SWAP1 POP SWAP3 SWAP2 POP POP JUMP JUMPDEST PUSH0 PUSH1 0x20 DUP3 ADD SWAP1 POP SWAP2 SWAP1 POP JUMP JUMPDEST PUSH0 PUSH2 0x578B DUP3 PUSH2 0x5708 JUMP JUMPDEST PUSH2 0x5795 DUP2 DUP6 PUSH2 0x5712 JUMP JUMPDEST SWAP4 POP PUSH2 0x57A0 DUP4 PUSH2 0x5722 JUMP JUMPDEST DUP1 PUSH0 JUMPDEST DUP4 DUP2 LT ISZERO PUSH2 0x57D0 JUMPI DUP2 MLOAD PUSH2 0x57B7 DUP9 DUP3 PUSH2 0x575E JUMP JUMPDEST SWAP8 POP PUSH2 0x57C2 DUP4 PUSH2 0x5775 JUMP JUMPDEST SWAP3 POP POP PUSH1 0x1 DUP2 ADD SWAP1 POP PUSH2 0x57A3 JUMP JUMPDEST POP DUP6 SWAP4 POP POP POP POP SWAP3 SWAP2 POP POP JUMP JUMPDEST PUSH2 0x57E6 DUP2 PUSH2 0x48F8 JUMP JUMPDEST DUP3 MSTORE POP POP JUMP JUMPDEST PUSH0 PUSH1 0x80 DUP3 ADD SWAP1 POP DUP2 DUP2 SUB PUSH0 DUP4 ADD MSTORE PUSH2 0x5804 DUP2 DUP8 PUSH2 0x5781 JUMP JUMPDEST SWAP1 POP PUSH2 0x5813 PUSH1 0x20 DUP4 ADD DUP7 PUSH2 0x57DD JUMP JUMPDEST PUSH2 0x5820 PUSH1 0x40 DUP4 ADD DUP6 PUSH2 0x4405 JUMP JUMPDEST PUSH2 0x582D PUSH1 0x60 DUP4 ADD DUP5 PUSH2 0x44E1 JUMP JUMPDEST SWAP6 SWAP5 POP POP POP POP POP JUMP JUMPDEST PUSH0 PUSH1 0x60 DUP3 ADD SWAP1 POP PUSH2 0x5849 PUSH0 DUP4 ADD DUP7 PUSH2 0x46FD JUMP JUMPDEST PUSH2 0x5856 PUSH1 0x20 DUP4 ADD DUP6 PUSH2 0x4ACD JUMP JUMPDEST PUSH2 0x5863 PUSH1 0x40 DUP4 ADD DUP5 PUSH2 0x46FD JUMP JUMPDEST SWAP5 SWAP4 POP POP POP POP JUMP JUMPDEST PUSH0 PUSH2 0x5875 DUP3 PUSH2 0x4509 JUMP JUMPDEST SWAP2 POP PUSH2 0x5880 DUP4 PUSH2 0x4509 JUMP JUMPDEST SWAP3 POP DUP3 DUP3 MUL PUSH2 0x588E DUP2 PUSH2 0x4509 JUMP JUMPDEST SWAP2 POP DUP3 DUP3 DIV DUP5 EQ DUP4 ISZERO OR PUSH2 0x58A5 JUMPI PUSH2 0x58A4 PUSH2 0x53E4 JUMP JUMPDEST JUMPDEST POP SWAP3 SWAP2 POP POP JUMP JUMPDEST PUSH32 0x4E487B7100000000000000000000000000000000000000000000000000000000 PUSH0 MSTORE PUSH1 0x12 PUSH1 0x4 MSTORE PUSH1 0x24 PUSH0 REVERT JUMPDEST PUSH0 PUSH2 0x58E3 DUP3 PUSH2 0x4509 JUMP JUMPDEST SWAP2 POP PUSH2 0x58EE DUP4 PUSH2 0x4509 JUMP JUMPDEST SWAP3 POP DUP3 PUSH2 0x58FE JUMPI PUSH2 0x58FD PUSH2 0x58AC JUMP JUMPDEST JUMPDEST DUP3 DUP3 DIV SWAP1 POP SWAP3 SWAP2 POP POP JUMP JUMPDEST PUSH0 PUSH2 0x5913 DUP3 PUSH2 0x4509 JUMP JUMPDEST SWAP2 POP PUSH2 0x591E DUP4 PUSH2 0x4509 JUMP JUMPDEST SWAP3 POP DUP3 DUP3 ADD SWAP1 POP DUP1 DUP3 GT ISZERO PUSH2 0x5936 JUMPI PUSH2 0x5935 PUSH2 0x53E4 JUMP JUMPDEST JUMPDEST SWAP3 SWAP2 POP POP JUMP JUMPDEST PUSH32 0x6D756C446976206F766572666C6F770000000000000000000000000000000000 PUSH0 DUP3 ADD MSTORE POP JUMP JUMPDEST PUSH0 PUSH2 0x5970 PUSH1 0xF DUP4 PUSH2 0x49ED JUMP JUMPDEST SWAP2 POP PUSH2 0x597B DUP3 PUSH2 0x593C JUMP JUMPDEST PUSH1 0x20 DUP3 ADD SWAP1 POP SWAP2 SWAP1 POP JUMP JUMPDEST PUSH0 PUSH1 0x20 DUP3 ADD SWAP1 POP DUP2 DUP2 SUB PUSH0 DUP4 ADD MSTORE PUSH2 0x599D DUP2 PUSH2 0x5964 JUMP JUMPDEST SWAP1 POP SWAP2 SWAP1 POP JUMP JUMPDEST PUSH0 DUP2 SWAP1 POP SWAP3 SWAP2 POP POP JUMP JUMPDEST POP JUMP JUMPDEST PUSH0 PUSH2 0x59BC PUSH0 DUP4 PUSH2 0x59A4 JUMP JUMPDEST SWAP2 POP PUSH2 0x59C7 DUP3 PUSH2 0x59AE JUMP JUMPDEST PUSH0 DUP3 ADD SWAP1 POP SWAP2 SWAP1 POP JUMP JUMPDEST PUSH0 PUSH2 0x59DB DUP3 PUSH2 0x59B1 JUMP JUMPDEST SWAP2 POP DUP2 SWAP1 POP SWAP2 SWAP1 POP JUMP JUMPDEST PUSH0 DUP2 PUSH1 0x1 SHR SWAP1 POP SWAP2 SWAP1 POP JUMP JUMPDEST PUSH0 PUSH0 DUP3 SWAP2 POP DUP4 SWAP1 POP JUMPDEST PUSH1 0x1 DUP6 GT ISZERO PUSH2 0x5A3A JUMPI DUP1 DUP7 DIV DUP2 GT ISZERO PUSH2 0x5A16 JUMPI PUSH2 0x5A15 PUSH2 0x53E4 JUMP JUMPDEST JUMPDEST PUSH1 0x1 DUP6 AND ISZERO PUSH2 0x5A25 JUMPI DUP1 DUP3 MUL SWAP2 POP JUMPDEST DUP1 DUP2 MUL SWAP1 POP PUSH2 0x5A33 DUP6 PUSH2 0x59E5 JUMP JUMPDEST SWAP5 POP PUSH2 0x59FA JUMP JUMPDEST SWAP5 POP SWAP5 SWAP3 POP POP POP JUMP JUMPDEST PUSH0 DUP3 PUSH2 0x5A52 JUMPI PUSH1 0x1 SWAP1 POP PUSH2 0x5B0D JUMP JUMPDEST DUP2 PUSH2 0x5A5F JUMPI PUSH0 SWAP1 POP PUSH2 0x5B0D JUMP JUMPDEST DUP2 PUSH1 0x1 DUP2 EQ PUSH2 0x5A75 JUMPI PUSH1 0x2 DUP2 EQ PUSH2 0x5A7F JUMPI PUSH2 0x5AAE JUMP JUMPDEST PUSH1 0x1 SWAP2 POP POP PUSH2 0x5B0D JUMP JUMPDEST PUSH1 0xFF DUP5 GT ISZERO PUSH2 0x5A91 JUMPI PUSH2 0x5A90 PUSH2 0x53E4 JUMP JUMPDEST JUMPDEST DUP4 PUSH1 0x2 EXP SWAP2 POP DUP5 DUP3 GT ISZERO PUSH2 0x5AA8 JUMPI PUSH2 0x5AA7 PUSH2 0x53E4 JUMP JUMPDEST JUMPDEST POP PUSH2 0x5B0D JUMP JUMPDEST POP PUSH1 0x20 DUP4 LT PUSH2 0x133 DUP4 LT AND PUSH1 0x4E DUP5 LT PUSH1 0xB DUP5 LT AND OR ISZERO PUSH2 0x5AE3 JUMPI DUP3 DUP3 EXP SWAP1 POP DUP4 DUP2 GT ISZERO PUSH2 0x5ADE JUMPI PUSH2 0x5ADD PUSH2 0x53E4 JUMP JUMPDEST JUMPDEST PUSH2 0x5B0D JUMP JUMPDEST PUSH2 0x5AF0 DUP5 DUP5 DUP5 PUSH1 0x1 PUSH2 0x59F1 JUMP JUMPDEST SWAP3 POP SWAP1 POP DUP2 DUP5 DIV DUP2 GT ISZERO PUSH2 0x5B07 JUMPI PUSH2 0x5B06 PUSH2 0x53E4 JUMP JUMPDEST JUMPDEST DUP2 DUP2 MUL SWAP1 POP JUMPDEST SWAP4 SWAP3 POP POP POP JUMP JUMPDEST PUSH0 PUSH2 0x5B1E DUP3 PUSH2 0x4509 JUMP JUMPDEST SWAP2 POP PUSH2 0x5B29 DUP4 PUSH2 0x50D2 JUMP JUMPDEST SWAP3 POP PUSH2 0x5B56 PUSH32 0xFFFFFFFFFFFFFFFFFFFFFFFFFFFFFFFFFFFFFFFFFFFFFFFFFFFFFFFFFFFFFFFF DUP5 DUP5 PUSH2 0x5A43 JUMP JUMPDEST SWAP1 POP SWAP3 SWAP2 POP POP JUMP JUMPDEST PUSH0 PUSH2 0x5B68 DUP3 PUSH2 0x4509 JUMP JUMPDEST SWAP2 POP PUSH32 0xFFFFFFFFFFFFFFFFFFFFFFFFFFFFFFFFFFFFFFFFFFFFFFFFFFFFFFFFFFFFFFFF DUP3 SUB PUSH2 0x5B9A JUMPI PUSH2 0x5B99 PUSH2 0x53E4 JUMP JUMPDEST JUMPDEST PUSH1 0x1 DUP3 ADD SWAP1 POP SWAP2 SWAP1 POP JUMP JUMPDEST PUSH0 DUP2 MLOAD SWAP1 POP SWAP2 SWAP1 POP JUMP JUMPDEST PUSH0 PUSH2 0x5BB9 DUP3 PUSH2 0x5BA5 JUMP JUMPDEST PUSH2 0x5BC3 DUP2 DUP6 PUSH2 0x59A4 JUMP JUMPDEST SWAP4 POP PUSH2 0x5BD3 DUP2 DUP6 PUSH1 0x20 DUP7 ADD PUSH2 0x4AFD JUMP JUMPDEST DUP1 DUP5 ADD SWAP2 POP POP SWAP3 SWAP2 POP POP JUMP JUMPDEST PUSH0 PUSH2 0x5BEA DUP3 DUP5 PUSH2 0x5BAF JUMP JUMPDEST SWAP2 POP DUP2 SWAP1 POP SWAP3 SWAP2 POP POP JUMP JUMPDEST PUSH0 DUP2 MLOAD SWAP1 POP PUSH2 0x5C03 DUP2 PUSH2 0x47CE JUMP JUMPDEST SWAP3 SWAP2 POP POP JUMP JUMPDEST PUSH0 PUSH1 0x20 DUP3 DUP5 SUB SLT ISZERO PUSH2 0x5C1E JUMPI PUSH2 0x5C1D PUSH2 0x4436 JUMP JUMPDEST JUMPDEST PUSH0 PUSH2 0x5C2B DUP5 DUP3 DUP6 ADD PUSH2 0x5BF5 JUMP JUMPDEST SWAP2 POP POP SWAP3 SWAP2 POP POP JUMP JUMPDEST PUSH32 0x5452414E534645525F4641494C45440000000000000000000000000000000000 PUSH0 DUP3 ADD MSTORE POP JUMP JUMPDEST PUSH0 PUSH2 0x5C68 PUSH1 0xF DUP4 PUSH2 0x49ED JUMP JUMPDEST SWAP2 POP PUSH2 0x5C73 DUP3 PUSH2 0x5C34 JUMP JUMPDEST PUSH1 0x20 DUP3 ADD SWAP1 POP SWAP2 SWAP1 POP JUMP JUMPDEST PUSH0 PUSH1 0x20 DUP3 ADD SWAP1 POP DUP2 DUP2 SUB PUSH0 DUP4 ADD MSTORE PUSH2 0x5C95 DUP2 PUSH2 0x5C5C JUMP JUMPDEST SWAP1 POP SWAP2 SWAP1 POP JUMP JUMPDEST PUSH0 PUSH2 0x5CA6 DUP3 PUSH2 0x4725 JUMP JUMPDEST SWAP2 POP PUSH2 0x5CB1 DUP4 PUSH2 0x4725 JUMP JUMPDEST SWAP3 POP DUP3 DUP3 ADD SWAP1 POP PUSH2 0xFFFF DUP2 GT ISZERO PUSH2 0x5CCB JUMPI PUSH2 0x5CCA PUSH2 0x53E4 JUMP JUMPDEST JUMPDEST SWAP3 SWAP2 POP POP JUMP JUMPDEST PUSH0 PUSH2 0x5CDB DUP3 PUSH2 0x4725 JUMP JUMPDEST SWAP2 POP PUSH2 0x5CE6 DUP4 PUSH2 0x4725 JUMP JUMPDEST SWAP3 POP DUP3 DUP3 SUB SWAP1 POP PUSH2 0xFFFF DUP2 GT ISZERO PUSH2 0x5D00 JUMPI PUSH2 0x5CFF PUSH2 0x53E4 JUMP JUMPDEST JUMPDEST SWAP3 SWAP2 POP POP JUMP INVALID LOG2 PUSH5 0x6970667358 0x22 SLT KECCAK256 0xD3 0xC6 XOR 0xD5 0xC ISZERO ADD SWAP14 SWAP2 0x24 SWAP3 CALLDATACOPY 0xD5 PUSH17 0x6ECB05B229F46412E2FB8803779FDF0DE9 SHR PUSH5 0x736F6C6343 STOP ADDMOD 0x1E STOP CALLER "
		},
		"gasEstimates": {
			"creation": {
				"codeDepositCost": "4773600",
				"executionCost": "infinite",
				"totalCost": "infinite"
			},
			"external": {
				"DEFAULT_SLIPPAGE_BIPS()": "2541",
				"Directory()": "infinite",
				"PLATFORM_FEE()": "2584",
				"changeDefaultSlippage(uint32)": "infinite",
				"changeDirectoryAddress(address)": "infinite",
				"changePlatformFee(uint16)": "infinite",
				"fetchFromDirectory(string)": "infinite",
				"isActive()": "2585",
				"mintEtfTokens(uint256,address)": "infinite",
				"owner()": "infinite",
				"rebalance(uint256)": "infinite",
				"recoverAsset(address,address)": "infinite",
				"redeemEtfTokens(uint256,uint256,address)": "infinite",
				"setActive(bool)": "infinite"
			}
		},
		"methodIdentifiers": {
			"DEFAULT_SLIPPAGE_BIPS()": "0650b0fc",
			"Directory()": "658a847a",
			"PLATFORM_FEE()": "34fbc9a1",
			"changeDefaultSlippage(uint32)": "bb3367bd",
			"changeDirectoryAddress(address)": "ba4c7be1",
			"changePlatformFee(uint16)": "b42c0782",
			"fetchFromDirectory(string)": "27262618",
			"isActive()": "22f3e2d4",
			"mintEtfTokens(uint256,address)": "25c006f9",
			"owner()": "8da5cb5b",
			"rebalance(uint256)": "f4993018",
			"recoverAsset(address,address)": "09053ac4",
			"redeemEtfTokens(uint256,uint256,address)": "e220d0de",
			"setActive(bool)": "acec338a"
		}
	},
	"abi": [
		{
			"inputs": [
				{
					"internalType": "address",
					"name": "_directory",
					"type": "address"
				}
			],
			"stateMutability": "nonpayable",
			"type": "constructor"
		},
		{
			"inputs": [],
			"name": "DeltaError",
			"type": "error"
		},
		{
			"inputs": [],
			"name": "ETHSendFailed",
			"type": "error"
		},
		{
			"inputs": [],
			"name": "EmptyBuf",
			"type": "error"
		},
		{
			"inputs": [],
			"name": "EmptyCand",
			"type": "error"
		},
		{
			"inputs": [],
			"name": "InsufficientETH",
			"type": "error"
		},
		{
			"inputs": [],
			"name": "InvalidBips",
			"type": "error"
		},
		{
			"inputs": [],
			"name": "NoMintedAmount",
			"type": "error"
		},
		{
			"inputs": [],
			"name": "SupplyZero",
			"type": "error"
		},
		{
			"inputs": [],
			"name": "ZeroAmount",
			"type": "error"
		},
		{
			"inputs": [],
			"name": "ZeroAmount",
			"type": "error"
		},
		{
			"inputs": [],
			"name": "ZeroEtfPrice",
			"type": "error"
		},
		{
			"inputs": [],
			"name": "ZeroReceiver",
			"type": "error"
		},
		{
			"anonymous": false,
			"inputs": [
				{
					"indexed": false,
					"internalType": "uint256",
					"name": "etfId",
					"type": "uint256"
				},
				{
					"components": [
						{
							"internalType": "address",
							"name": "tokenAddress",
							"type": "address"
						},
						{
							"internalType": "uint256",
							"name": "tokenAmount",
							"type": "uint256"
						}
					],
					"indexed": false,
					"internalType": "struct Storage.TokenBalance[]",
					"name": "updatedBalances",
					"type": "tuple[]"
				}
			],
			"name": "VaultBalanceChanged",
			"type": "event"
		},
		{
			"inputs": [],
			"name": "DEFAULT_SLIPPAGE_BIPS",
			"outputs": [
				{
					"internalType": "uint32",
					"name": "",
					"type": "uint32"
				}
			],
			"stateMutability": "view",
			"type": "function"
		},
		{
			"inputs": [],
			"name": "Directory",
			"outputs": [
				{
					"internalType": "contract IDirectory",
					"name": "",
					"type": "address"
				}
			],
			"stateMutability": "view",
			"type": "function"
		},
		{
			"inputs": [],
			"name": "PLATFORM_FEE",
			"outputs": [
				{
					"internalType": "uint16",
					"name": "",
					"type": "uint16"
				}
			],
			"stateMutability": "view",
			"type": "function"
		},
		{
			"inputs": [
				{
					"internalType": "uint32",
					"name": "newSlippageBips",
					"type": "uint32"
				}
			],
			"name": "changeDefaultSlippage",
			"outputs": [],
			"stateMutability": "nonpayable",
			"type": "function"
		},
		{
			"inputs": [
				{
					"internalType": "address",
					"name": "_directory",
					"type": "address"
				}
			],
			"name": "changeDirectoryAddress",
			"outputs": [],
			"stateMutability": "nonpayable",
			"type": "function"
		},
		{
			"inputs": [
				{
					"internalType": "uint16",
					"name": "newFee",
					"type": "uint16"
				}
			],
			"name": "changePlatformFee",
			"outputs": [],
			"stateMutability": "nonpayable",
			"type": "function"
		},
		{
			"inputs": [
				{
					"internalType": "string",
					"name": "_key",
					"type": "string"
				}
			],
			"name": "fetchFromDirectory",
			"outputs": [
				{
					"internalType": "address",
					"name": "",
					"type": "address"
				}
			],
			"stateMutability": "view",
			"type": "function"
		},
		{
			"inputs": [],
			"name": "isActive",
			"outputs": [
				{
					"internalType": "bool",
					"name": "",
					"type": "bool"
				}
			],
			"stateMutability": "view",
			"type": "function"
		},
		{
			"inputs": [
				{
					"internalType": "uint256",
					"name": "etfId",
					"type": "uint256"
				},
				{
					"internalType": "address",
					"name": "receiver",
					"type": "address"
				}
			],
			"name": "mintEtfTokens",
			"outputs": [],
			"stateMutability": "payable",
			"type": "function"
		},
		{
			"inputs": [],
			"name": "owner",
			"outputs": [
				{
					"internalType": "address",
					"name": "",
					"type": "address"
				}
			],
			"stateMutability": "view",
			"type": "function"
		},
		{
			"inputs": [
				{
					"internalType": "uint256",
					"name": "etfId",
					"type": "uint256"
				}
			],
			"name": "rebalance",
			"outputs": [],
			"stateMutability": "nonpayable",
			"type": "function"
		},
		{
			"inputs": [
				{
					"internalType": "address",
					"name": "tokenAddress",
					"type": "address"
				},
				{
					"internalType": "address",
					"name": "toAddress",
					"type": "address"
				}
			],
			"name": "recoverAsset",
			"outputs": [],
			"stateMutability": "nonpayable",
			"type": "function"
		},
		{
			"inputs": [
				{
					"internalType": "uint256",
					"name": "etfId",
					"type": "uint256"
				},
				{
					"internalType": "uint256",
					"name": "etfTokenAmount",
					"type": "uint256"
				},
				{
					"internalType": "address payable",
					"name": "receiver",
					"type": "address"
				}
			],
			"name": "redeemEtfTokens",
			"outputs": [],
			"stateMutability": "nonpayable",
			"type": "function"
		},
		{
			"inputs": [
				{
					"internalType": "bool",
					"name": "_active",
					"type": "bool"
				}
			],
			"name": "setActive",
			"outputs": [],
			"stateMutability": "nonpayable",
			"type": "function"
		},
		{
			"stateMutability": "payable",
			"type": "receive"
		}
	]
}