{
	"data": {
		"bytecode": {
			"linkReferences": {},
			"object": "608060405260018060146101000a81548160ff0219169083151502179055506019600160156101000a81548161ffff021916908361ffff16021790555061012c600160176101000a81548163ffffffff021916908363ffffffff16021790555034801561006a575f5ffd5b506040516161c63803806161c6833981810160405281019061008c91906102ba565b8060015f819055506100a3816100aa60201b60201c565b5050610453565b5f73ffffffffffffffffffffffffffffffffffffffff168173ffffffffffffffffffffffffffffffffffffffff1603610118576040517f08c379a000000000000000000000000000000000000000000000000000000000815260040161010f9061033f565b60405180910390fd5b5f8173ffffffffffffffffffffffffffffffffffffffff163b11610171576040517f08c379a0000000000000000000000000000000000000000000000000000000008152600401610168906103a7565b60405180910390fd5b8073ffffffffffffffffffffffffffffffffffffffff16638da5cb5b6040518163ffffffff1660e01b8152600401602060405180830381865afa9250505080156101d957506040513d601f19601f820116820180604052508101906101d691906102ba565b60015b610218576040517f08c379a000000000000000000000000000000000000000000000000000000000815260040161020f90610435565b60405180910390fd5b8160015f6101000a81548173ffffffffffffffffffffffffffffffffffffffff021916908373ffffffffffffffffffffffffffffffffffffffff1602179055505050565b5f5ffd5b5f73ffffffffffffffffffffffffffffffffffffffff82169050919050565b5f61028982610260565b9050919050565b6102998161027f565b81146102a3575f5ffd5b50565b5f815190506102b481610290565b92915050565b5f602082840312156102cf576102ce61025c565b5b5f6102dc848285016102a6565b91505092915050565b5f82825260208201905092915050565b7f4469726563746f72792063616e6e6f74206265207a65726f20616464726573735f82015250565b5f6103296020836102e5565b9150610334826102f5565b602082019050919050565b5f6020820190508181035f8301526103568161031d565b9050919050565b7f4469726563746f7279206d757374206265206120636f6e7472616374000000005f82015250565b5f610391601c836102e5565b915061039c8261035d565b602082019050919050565b5f6020820190508181035f8301526103be81610385565b9050919050565b7f4469726563746f7279206164647265737320646f6573206e6f7420696d706c655f8201527f6d656e74206f776e657228290000000000000000000000000000000000000000602082015250565b5f61041f602c836102e5565b915061042a826103c5565b604082019050919050565b5f6020820190508181035f83015261044c81610413565b9050919050565b615d66806104605f395ff3fe6080604052600436106100e0575f3560e01c80638da5cb5b1161007e578063ba4c7be111610058578063ba4c7be11461028d578063bb3367bd146102b5578063e220d0de146102dd578063f499301814610305576100e7565b80638da5cb5b14610213578063acec338a1461023d578063b42c078214610265576100e7565b806325c006f9116100ba57806325c006f914610167578063272626181461018357806334fbc9a1146101bf578063658a847a146101e9576100e7565b80630650b0fc146100eb57806309053ac41461011557806322f3e2d41461013d576100e7565b366100e757005b5f5ffd5b3480156100f6575f5ffd5b506100ff61032d565b60405161010c9190614481565b60405180910390f35b348015610120575f5ffd5b5061013b60048036038101906101369190614505565b610343565b005b348015610148575f5ffd5b5061015161044c565b60405161015e919061455d565b60405180910390f35b610181600480360381019061017c91906145a9565b61045f565b005b34801561018e575f5ffd5b506101a960048036038101906101a49190614723565b610683565b6040516101b69190614779565b60405180910390f35b3480156101ca575f5ffd5b506101d3610724565b6040516101e091906147ae565b60405180910390f35b3480156101f4575f5ffd5b506101fd610738565b60405161020a9190614822565b60405180910390f35b34801561021e575f5ffd5b5061022761075d565b6040516102349190614779565b60405180910390f35b348015610248575f5ffd5b50610263600480360381019061025e9190614865565b6107f1565b005b348015610270575f5ffd5b5061028b600480360381019061028691906148ba565b610909565b005b348015610298575f5ffd5b506102b360048036038101906102ae91906148e5565b610ab3565b005b3480156102c0575f5ffd5b506102db60048036038101906102d6919061493a565b610bba565b005b3480156102e8575f5ffd5b5061030360048036038101906102fe91906149a0565b610d1b565b005b348015610310575f5ffd5b5061032b600480360381019061032691906149f0565b610f37565b005b600160179054906101000a900463ffffffff1681565b60015f9054906101000a900473ffffffffffffffffffffffffffffffffffffffff1673ffffffffffffffffffffffffffffffffffffffff16638da5cb5b6040518163ffffffff1660e01b8152600401602060405180830381865afa1580156103ad573d5f5f3e3d5ffd5b505050506040513d601f19601f820116820180604052508101906103d19190614a2f565b73ffffffffffffffffffffffffffffffffffffffff163373ffffffffffffffffffffffffffffffffffffffff161461043e576040517f08c379a000000000000000000000000000000000000000000000000000000000815260040161043590614ab4565b60405180910390fd5b6104488282611041565b5050565b600160149054906101000a900460ff1681565b61046761104f565b600160149054906101000a900460ff166104b6576040517f08c379a00000000000000000000000000000000000000000000000000000000081526004016104ad90614b1c565b60405180910390fd5b5f34036104ef576040517f1f2a200500000000000000000000000000000000000000000000000000000000815260040160405180910390fd5b5f73ffffffffffffffffffffffffffffffffffffffff168173ffffffffffffffffffffffffffffffffffffffff1603610554576040517f6ba9ecd800000000000000000000000000000000000000000000000000000000815260040160405180910390fd5b5f5f5f61055f61109c565b73ffffffffffffffffffffffffffffffffffffffff166361668690866040518263ffffffff1660e01b81526004016105979190614b49565b5f60405180830381865afa1580156105b1573d5f5f3e3d5ffd5b505050506040513d5f823e3d601f19601f820116820180604052508101906105d99190614dc0565b9250925092505f6105ed86858585896110e0565b9150506105f9336114e7565b610604868584611502565b61060c61109c565b73ffffffffffffffffffffffffffffffffffffffff16631626542c87836040518363ffffffff1660e01b8152600401610646929190614e2c565b5f604051808303815f87803b15801561065d575f5ffd5b505af115801561066f573d5f5f3e3d5ffd5b505050505050505061067f6116a6565b5050565b5f60015f9054906101000a900473ffffffffffffffffffffffffffffffffffffffff1673ffffffffffffffffffffffffffffffffffffffff166327262618836040518263ffffffff1660e01b81526004016106de9190614e95565b602060405180830381865afa1580156106f9573d5f5f3e3d5ffd5b505050506040513d601f19601f8201168201806040525081019061071d9190614a2f565b9050919050565b600160159054906101000a900461ffff1681565b60015f9054906101000a900473ffffffffffffffffffffffffffffffffffffffff1681565b5f60015f9054906101000a900473ffffffffffffffffffffffffffffffffffffffff1673ffffffffffffffffffffffffffffffffffffffff16638da5cb5b6040518163ffffffff1660e01b8152600401602060405180830381865afa1580156107c8573d5f5f3e3d5ffd5b505050506040513d601f19601f820116820180604052508101906107ec9190614a2f565b905090565b60015f9054906101000a900473ffffffffffffffffffffffffffffffffffffffff1673ffffffffffffffffffffffffffffffffffffffff16638da5cb5b6040518163ffffffff1660e01b8152600401602060405180830381865afa15801561085b573d5f5f3e3d5ffd5b505050506040513d601f19601f8201168201806040525081019061087f9190614a2f565b73ffffffffffffffffffffffffffffffffffffffff163373ffffffffffffffffffffffffffffffffffffffff16146108ec576040517f08c379a00000000000000000000000000000000000000000000000000000000081526004016108e390614ab4565b60405180910390fd5b80600160146101000a81548160ff02191690831515021790555050565b60015f9054906101000a900473ffffffffffffffffffffffffffffffffffffffff1673ffffffffffffffffffffffffffffffffffffffff16638da5cb5b6040518163ffffffff1660e01b8152600401602060405180830381865afa158015610973573d5f5f3e3d5ffd5b505050506040513d601f19601f820116820180604052508101906109979190614a2f565b73ffffffffffffffffffffffffffffffffffffffff163373ffffffffffffffffffffffffffffffffffffffff1614610a04576040517f08c379a00000000000000000000000000000000000000000000000000000000081526004016109fb90614ab4565b60405180910390fd5b600160149054906101000a900460ff16610a53576040517f08c379a0000000000000000000000000000000000000000000000000000000008152600401610a4a90614b1c565b60405180910390fd5b6127108161ffff161115610a93576040517fdeaa01e600000000000000000000000000000000000000000000000000000000815260040160405180910390fd5b80600160156101000a81548161ffff021916908361ffff16021790555050565b60015f9054906101000a900473ffffffffffffffffffffffffffffffffffffffff1673ffffffffffffffffffffffffffffffffffffffff16638da5cb5b6040518163ffffffff1660e01b8152600401602060405180830381865afa158015610b1d573d5f5f3e3d5ffd5b505050506040513d601f19601f82011682018060405250810190610b419190614a2f565b73ffffffffffffffffffffffffffffffffffffffff163373ffffffffffffffffffffffffffffffffffffffff1614610bae576040517f08c379a0000000000000000000000000000000000000000000000000000000008152600401610ba590614ab4565b60405180910390fd5b610bb7816116af565b50565b60015f9054906101000a900473ffffffffffffffffffffffffffffffffffffffff1673ffffffffffffffffffffffffffffffffffffffff16638da5cb5b6040518163ffffffff1660e01b8152600401602060405180830381865afa158015610c24573d5f5f3e3d5ffd5b505050506040513d601f19601f82011682018060405250810190610c489190614a2f565b73ffffffffffffffffffffffffffffffffffffffff163373ffffffffffffffffffffffffffffffffffffffff1614610cb5576040517f08c379a0000000000000000000000000000000000000000000000000000000008152600401610cac90614ab4565b60405180910390fd5b6127108163ffffffff161115610cf7576040517fdeaa01e600000000000000000000000000000000000000000000000000000000815260040160405180910390fd5b80600160176101000a81548163ffffffff021916908363ffffffff16021790555050565b610d2361104f565b600160149054906101000a900460ff16610d72576040517f08c379a0000000000000000000000000000000000000000000000000000000008152600401610d6990614b1c565b60405180910390fd5b5f8203610dab576040517f1f2a200500000000000000000000000000000000000000000000000000000000815260040160405180910390fd5b5f73ffffffffffffffffffffffffffffffffffffffff168173ffffffffffffffffffffffffffffffffffffffff1603610e10576040517f6ba9ecd800000000000000000000000000000000000000000000000000000000815260040160405180910390fd5b5f5f5f610e1b61109c565b73ffffffffffffffffffffffffffffffffffffffff166361668690876040518263ffffffff1660e01b8152600401610e539190614b49565b5f60405180830381865afa158015610e6d573d5f5f3e3d5ffd5b505050506040513d5f823e3d601f19601f82011682018060405250810190610e959190614dc0565b9250925092505f610eaa878585858a8a611861565b9050610eb7878584611502565b610ebf61109c565b73ffffffffffffffffffffffffffffffffffffffff16631626542c88836040518363ffffffff1660e01b8152600401610ef9929190614e2c565b5f604051808303815f87803b158015610f10575f5ffd5b505af1158015610f22573d5f5f3e3d5ffd5b5050505050505050610f326116a6565b505050565b610f3f61104f565b600160149054906101000a900460ff16610f8e576040517f08c379a0000000000000000000000000000000000000000000000000000000008152600401610f8590614b1c565b60405180910390fd5b5f5f610f9861109c565b73ffffffffffffffffffffffffffffffffffffffff16633088f069846040518263ffffffff1660e01b8152600401610fd09190614b49565b5f60405180830381865afa158015610fea573d5f5f3e3d5ffd5b505050506040513d5f823e3d601f19601f820116820180604052508101906110129190614eb5565b915091506110208282611b61565b611029336114e7565b611034838383611502565b505061103e6116a6565b50565b61104b8282611e49565b5050565b60025f5403611093576040517f08c379a000000000000000000000000000000000000000000000000000000000815260040161108a90614f59565b60405180910390fd5b60025f81905550565b5f6110db6040518060400160405280600b81526020017f6574662d666163746f7279000000000000000000000000000000000000000000815250610683565b905090565b5f5f5f6110ec34611f20565b90505f5f6110f8612015565b73ffffffffffffffffffffffffffffffffffffffff1663ee0d96c58a896040518363ffffffff1660e01b815260040161113292919061510d565b5f60405180830381865afa15801561114c573d5f5f3e3d5ffd5b505050506040513d5f823e3d601f19601f8201168201806040525081019061117491906152e2565b915091505f8873ffffffffffffffffffffffffffffffffffffffff166318160ddd6040518163ffffffff1660e01b8152600401602060405180830381865afa1580156111c2573d5f5f3e3d5ffd5b505050506040513d601f19601f820116820180604052508101906111e6919061533c565b90505f6111f58b868686612059565b90506111ff612630565b73ffffffffffffffffffffffffffffffffffffffff16631623306b86838c600160179054906101000a900463ffffffff166040518563ffffffff1660e01b815260040161124e9392919061543c565b5f604051808303818588803b158015611265575f5ffd5b505af1158015611277573d5f5f3e3d5ffd5b50505050505f611285612015565b73ffffffffffffffffffffffffffffffffffffffff1663ee0d96c58d8c6040518363ffffffff1660e01b81526004016112bf92919061510d565b5f60405180830381865afa1580156112d9573d5f5f3e3d5ffd5b505050506040513d5f823e3d601f19601f8201168201806040525081019061130191906152e2565b91505083811161133d576040517f55be5c2c00000000000000000000000000000000000000000000000000000000815260040160405180910390fd5b838161134991906154a5565b96505f8303611428575f61135b612015565b73ffffffffffffffffffffffffffffffffffffffff1663812efc8e8f6040518263ffffffff1660e01b81526004016113939190614b49565b602060405180830381865afa1580156113ae573d5f5f3e3d5ffd5b505050506040513d601f19601f820116820180604052508101906113d2919061533c565b90505f810361140d576040517f5255248e00000000000000000000000000000000000000000000000000000000815260040160405180910390fd5b61142088670de0b6b3a764000083612674565b985050611436565b611433878486612674565b97505b5f880361146f576040517ffcc182f400000000000000000000000000000000000000000000000000000000815260040160405180910390fd5b8a73ffffffffffffffffffffffffffffffffffffffff166340c10f198a8a6040518363ffffffff1660e01b81526004016114aa9291906154d8565b5f604051808303815f87803b1580156114c1575f5ffd5b505af11580156114d3573d5f5f3e3d5ffd5b505050505050505050509550959350505050565b5f4790505f8111156114fe576114fd828261277e565b5b5050565b5f82604001515190505f8167ffffffffffffffff811115611526576115256145ff565b5b60405190808252806020026020018201604052801561155f57816020015b61154c61437b565b8152602001906001900390816115445790505b5090505f5f90505b82811015611665575f85604001518281518110611587576115866154ff565b5b60200260200101515f015190505f8173ffffffffffffffffffffffffffffffffffffffff166370a08231876040518263ffffffff1660e01b81526004016115ce9190614779565b602060405180830381865afa1580156115e9573d5f5f3e3d5ffd5b505050506040513d601f19601f8201168201806040525081019061160d919061533c565b905060405180604001604052808373ffffffffffffffffffffffffffffffffffffffff1681526020018281525084848151811061164d5761164c6154ff565b5b60200260200101819052508260010192505050611567565b507f8d3365949f9a612ea706c5f1c4ddfe54d1f631d8557335914d89cd775a792cda8582604051611697929190615610565b60405180910390a15050505050565b60015f81905550565b5f73ffffffffffffffffffffffffffffffffffffffff168173ffffffffffffffffffffffffffffffffffffffff160361171d576040517f08c379a000000000000000000000000000000000000000000000000000000000815260040161171490615688565b60405180910390fd5b5f8173ffffffffffffffffffffffffffffffffffffffff163b11611776576040517f08c379a000000000000000000000000000000000000000000000000000000000815260040161176d906156f0565b60405180910390fd5b8073ffffffffffffffffffffffffffffffffffffffff16638da5cb5b6040518163ffffffff1660e01b8152600401602060405180830381865afa9250505080156117de57506040513d601f19601f820116820180604052508101906117db9190614a2f565b60015b61181d576040517f08c379a00000000000000000000000000000000000000000000000000000000081526004016118149061577e565b60405180910390fd5b8160015f6101000a81548173ffffffffffffffffffffffffffffffffffffffff021916908373ffffffffffffffffffffffffffffffffffffffff1602179055505050565b5f5f8573ffffffffffffffffffffffffffffffffffffffff166318160ddd6040518163ffffffff1660e01b8152600401602060405180830381865afa1580156118ac573d5f5f3e3d5ffd5b505050506040513d601f19601f820116820180604052508101906118d0919061533c565b90505f810361190b576040517f9fbba64f00000000000000000000000000000000000000000000000000000000815260040160405180910390fd5b5f611914612015565b73ffffffffffffffffffffffffffffffffffffffff1663812efc8e8a6040518263ffffffff1660e01b815260040161194c9190614b49565b602060405180830381865afa158015611967573d5f5f3e3d5ffd5b505050506040513d601f19601f8201168201806040525081019061198b919061533c565b90505f81036119c6576040517f5255248e00000000000000000000000000000000000000000000000000000000815260040160405180910390fd5b5f6119da8683670de0b6b3a7640000612674565b90505f6119e88a8984612895565b90505f4790506119f6612630565b73ffffffffffffffffffffffffffffffffffffffff16633814bc6e8330600160179054906101000a900463ffffffff1660016040518563ffffffff1660e01b8152600401611a479493929190615880565b5f604051808303815f87803b158015611a5e575f5ffd5b505af1158015611a70573d5f5f3e3d5ffd5b505050505f4790505f828211611a86575f611a93565b8282611a9291906154a5565b5b90505f8103611ace576040517f1f2a200500000000000000000000000000000000000000000000000000000000815260040160405180910390fd5b5f611ad882611f20565b9050611ae48a8261277e565b8c73ffffffffffffffffffffffffffffffffffffffff16639dc29fac338d6040518363ffffffff1660e01b8152600401611b1f9291906154d8565b5f604051808303815f87803b158015611b36575f5ffd5b505af1158015611b48573d5f5f3e3d5ffd5b5050505080985050505050505050509695505050505050565b5f5f611b6d8484613801565b915091505f611b7a612630565b90505f4790505f5f90505b83811015611c3d578573ffffffffffffffffffffffffffffffffffffffff16635c833bfd868381518110611bbc57611bbb6154ff565b5b60200260200101515f0151878481518110611bda57611bd96154ff565b5b602002602001015160200151866040518463ffffffff1660e01b8152600401611c05939291906158ca565b5f604051808303815f87803b158015611c1c575f5ffd5b505af1158015611c2e573d5f5f3e3d5ffd5b50505050806001019050611b85565b50611c46612630565b73ffffffffffffffffffffffffffffffffffffffff16633814bc6e8530600160179054906101000a900463ffffffff1660016040518563ffffffff1660e01b8152600401611c979493929190615880565b5f604051808303815f87803b158015611cae575f5ffd5b505af1158015611cc0573d5f5f3e3d5ffd5b505050505f4790505f828211611cd6575f611ce3565b8282611ce291906154a5565b5b90505f8103611d1e576040517f1f2a200500000000000000000000000000000000000000000000000000000000815260040160405180910390fd5b5f5f611d28612015565b73ffffffffffffffffffffffffffffffffffffffff1663ee0d96c58b8b6040518363ffffffff1660e01b8152600401611d6292919061510d565b5f60405180830381865afa158015611d7c573d5f5f3e3d5ffd5b505050506040513d5f823e3d601f19601f82011682018060405250810190611da491906152e2565b915091505f611db58b858585612059565b9050611dbf612630565b73ffffffffffffffffffffffffffffffffffffffff16631623306b85838d600160179054906101000a900463ffffffff166040518563ffffffff1660e01b8152600401611e0e9392919061543c565b5f604051808303818588803b158015611e25575f5ffd5b505af1158015611e37573d5f5f3e3d5ffd5b50505050505050505050505050505050565b5f73ffffffffffffffffffffffffffffffffffffffff168273ffffffffffffffffffffffffffffffffffffffff1603611e8b57611e86814761277e565b611f1c565b5f8273ffffffffffffffffffffffffffffffffffffffff166370a08231306040518263ffffffff1660e01b8152600401611ec59190614779565b602060405180830381865afa158015611ee0573d5f5f3e3d5ffd5b505050506040513d601f19601f82011682018060405250810190611f04919061533c565b90505f811115611f1a57611f19838383613c24565b5b505b5050565b5f5f611f606040518060400160405280600581526020017f7661756c74000000000000000000000000000000000000000000000000000000815250610683565b90505f600160159054906101000a900461ffff1690505f73ffffffffffffffffffffffffffffffffffffffff168273ffffffffffffffffffffffffffffffffffffffff161480611fb357505f8161ffff16145b15611fc2578392505050612010565b5f6127108261ffff1686611fd691906158ff565b611fe0919061596d565b90505f811461200957611ff3838261277e565b8085611fff91906154a5565b9350505050612010565b8493505050505b919050565b5f6120546040518060400160405280600a81526020017f6574662d6f7261636c6500000000000000000000000000000000000000000000815250610683565b905090565b60605f85604001515190505f8584612071919061599d565b90505f8267ffffffffffffffff81111561208e5761208d6145ff565b5b6040519080825280602002602001820160405280156120bc5781602001602082028036833780820191505090505b5090505f8367ffffffffffffffff8111156120da576120d96145ff565b5b6040519080825280602002602001820160405280156121085781602001602082028036833780820191505090505b5090505f5f5f90505b8581101561222f575f612710868d604001518481518110612135576121346154ff565b5b60200260200101516020015161ffff1661214f91906158ff565b612159919061596d565b90505f8a838151811061216f5761216e6154ff565b5b602002602001015160a00151905080821115612222578a8381518110612198576121976154ff565b5b60200260200101515f01518685815181106121b6576121b56154ff565b5b602002602001019073ffffffffffffffffffffffffffffffffffffffff16908173ffffffffffffffffffffffffffffffffffffffff168152505080826121fc91906154a5565b85858151811061220f5761220e6154ff565b5b6020026020010181815250508360010193505b8260010192505050612111565b505f8103612439575f8567ffffffffffffffff811115612252576122516145ff565b5b6040519080825280602002602001820160405280156122805781602001602082028036833780820191505090505b5090505f5f90505b868110156122e1578b6040015181815181106122a7576122a66154ff565b5b60200260200101516020015161ffff168282815181106122ca576122c96154ff565b5b602002602001018181525050806001019050612288565b505f612338826127105f67ffffffffffffffff811115612304576123036145ff565b5b6040519080825280602002602001820160405280156123325781602001602082028036833780820191505090505b50613d73565b90508667ffffffffffffffff811115612354576123536145ff565b5b60405190808252806020026020018201604052801561238d57816020015b61237a6143a9565b8152602001906001900390816123725790505b5097505f5f90505b8781101561242c5760405180604001604052808c83815181106123bb576123ba6154ff565b5b60200260200101515f015173ffffffffffffffffffffffffffffffffffffffff1681526020018383815181106123f4576123f36154ff565b5b602002602001015161ffff16815250898281518110612416576124156154ff565b5b6020026020010181905250806001019050612395565b5050505050505050612628565b5f8167ffffffffffffffff811115612454576124536145ff565b5b6040519080825280602002602001820160405280156124825781602001602082028036833780820191505090505b5090505f5f90505b828110156124d7578381815181106124a5576124a46154ff565b5b60200260200101518282815181106124c0576124bf6154ff565b5b60200260200101818152505080600101905061248a565b505f61252e826127105f67ffffffffffffffff8111156124fa576124f96145ff565b5b6040519080825280602002602001820160405280156125285781602001602082028036833780820191505090505b50613d73565b90508267ffffffffffffffff81111561254a576125496145ff565b5b60405190808252806020026020018201604052801561258357816020015b6125706143a9565b8152602001906001900390816125685790505b5097505f5f90505b8381101561261f5760405180604001604052808783815181106125b1576125b06154ff565b5b602002602001015173ffffffffffffffffffffffffffffffffffffffff1681526020018383815181106125e7576125e66154ff565b5b602002602001015161ffff16815250898281518110612609576126086154ff565b5b602002602001018190525080600101905061258b565b50505050505050505b949350505050565b5f61266f6040518060400160405280601181526020017f6d756c74692d737761702d726f75746572000000000000000000000000000000815250610683565b905090565b5f5f5f5f198587098587029250828110838203039150505f81036126ac578382816126a2576126a1615940565b5b0492505050612777565b8084116126ee576040517f08c379a00000000000000000000000000000000000000000000000000000000081526004016126e590615a1a565b60405180910390fd5b5f8486880990508281118203915080830392505f60018619018616905080860495508084049350600181825f0304019050808302841793505f600287600302189050808702600203810290508087026002038102905080870260020381029050808702600203810290508087026002038102905080870260020381029050808502955050505050505b9392505050565b5f81036127b7576040517f1f2a200500000000000000000000000000000000000000000000000000000000815260040160405180910390fd5b804710156127f1576040517f6a12f10400000000000000000000000000000000000000000000000000000000815260040160405180910390fd5b5f8273ffffffffffffffffffffffffffffffffffffffff168260405161281690615a65565b5f6040518083038185875af1925050503d805f8114612850576040519150601f19603f3d011682016040523d82523d5f602084013e612855565b606091505b5050905080612890576040517fcef4eed700000000000000000000000000000000000000000000000000000000815260040160405180910390fd5b505050565b60605f5f6128a1612015565b73ffffffffffffffffffffffffffffffffffffffff1663ee0d96c587876040518363ffffffff1660e01b81526004016128db92919061510d565b5f60405180830381865afa1580156128f5573d5f5f3e3d5ffd5b505050506040513d5f823e3d601f19601f8201168201806040525081019061291d91906152e2565b915091505f86604001515190506129326143db565b8167ffffffffffffffff81111561294c5761294b6145ff565b5b60405190808252806020026020018201604052801561298557816020015b6129726143fa565b81526020019060019003908161296a5790505b50815f01819052505f5f90505b82811080156129a45750868260400151105b15612ccf575f8582815181106129bd576129bc6154ff565b5b60200260200101516080015190505f8114612cc3575f612710868c6040015185815181106129ee576129ed6154ff565b5b60200260200101516020015161ffff16612a0891906158ff565b612a12919061596d565b905080878481518110612a2857612a276154ff565b5b602002602001015160a001511115612cc1575f81888581518110612a4f57612a4e6154ff565b5b602002602001015160a00151612a6591906154a5565b90505f85604001518b612a7891906154a5565b90505f818310612a885781612a8a565b825b90505f8114612cbd575f612ac9828c8981518110612aab57612aaa6154ff565b5b602002602001015160200151600a612ac39190615ba8565b88612674565b90505f8114612cbb575f612b0882888e8b81518110612aeb57612aea6154ff565b5b602002602001015160200151600a612b039190615ba8565b612674565b90505f8114612cb9575f5f5f90505b8a60200151811015612bdd578d8a81518110612b3657612b356154ff565b5b60200260200101515f015173ffffffffffffffffffffffffffffffffffffffff168b5f01518281518110612b6d57612b6c6154ff565b5b60200260200101515f015173ffffffffffffffffffffffffffffffffffffffff1603612bd257838b5f01518281518110612baa57612ba96154ff565b5b6020026020010151602001818151612bc2919061599d565b9150818152505060019150612bdd565b806001019050612b17565b5080612c9e578a8a6020015110612c20576040517f9ff41fe000000000000000000000000000000000000000000000000000000000815260040160405180910390fd5b60405180604001604052808e8b81518110612c3e57612c3d6154ff565b5b60200260200101515f015173ffffffffffffffffffffffffffffffffffffffff168152602001848152508a5f01518b6020018051809190612c7e90615bf2565b81525081518110612c9257612c916154ff565b5b60200260200101819052505b818a604001818151612cb0919061599d565b91508181525050505b505b505b5050505b505b81600101915050612992565b50858160400151101561363b575f816040015187612ced91906154a5565b9050612cf7614428565b5f5f90505b84811015612e42575f878281518110612d1857612d176154ff565b5b60200260200101516080015190505f888381518110612d3a57612d396154ff565b5b60200260200101516060015190505f8214158015612d5857505f8114155b15612e35575f5f5f90505b8760200151811015612e1a578a8581518110612d8257612d816154ff565b5b60200260200101515f015173ffffffffffffffffffffffffffffffffffffffff16885f01518281518110612db957612db86154ff565b5b60200260200101515f015173ffffffffffffffffffffffffffffffffffffffff1603612e0f57875f01518181518110612df557612df46154ff565b5b60200260200101516020015182612e0c919061599d565b91505b806001019050612d63565b5081811015612e33578460a00180516001019081815250505b505b8260010192505050612cfc565b505f8160a0015103612e80576040517ff17cd2ca00000000000000000000000000000000000000000000000000000000815260040160405180910390fd5b8060a0015167ffffffffffffffff811115612e9e57612e9d6145ff565b5b604051908082528060200260200182016040528015612ecc5781602001602082028036833780820191505090505b50815f01819052508060a0015167ffffffffffffffff811115612ef257612ef16145ff565b5b604051908082528060200260200182016040528015612f205781602001602082028036833780820191505090505b5081602001819052508060a0015167ffffffffffffffff811115612f4757612f466145ff565b5b604051908082528060200260200182016040528015612f755781602001602082028036833780820191505090505b5081604001819052508060a0015167ffffffffffffffff811115612f9c57612f9b6145ff565b5b604051908082528060200260200182016040528015612fca5781602001602082028036833780820191505090505b5081606001819052508060a0015167ffffffffffffffff811115612ff157612ff06145ff565b5b60405190808252806020026020018201604052801561301f5781602001602082028036833780820191505090505b5081608001819052505f5f5f90505b858110156132f9575f88828151811061304a576130496154ff565b5b60200260200101516080015190505f89838151811061306c5761306b6154ff565b5b60200260200101516060015190505f821415801561308a57505f8114155b156132ec575f5f5f90505b886020015181101561314c578b85815181106130b4576130b36154ff565b5b60200260200101515f015173ffffffffffffffffffffffffffffffffffffffff16895f015182815181106130eb576130ea6154ff565b5b60200260200101515f015173ffffffffffffffffffffffffffffffffffffffff160361314157885f01518181518110613127576131266154ff565b5b6020026020010151602001518261313e919061599d565b91505b806001019050613095565b50818110156132ea575f818361316291906154a5565b90505f61319a82868f898151811061317d5761317c6154ff565b5b602002602001015160200151600a6131959190615ba8565b612674565b90505f81146132e7578c86815181106131b6576131b56154ff565b5b60200260200101515f0151885f015188815181106131d7576131d66154ff565b5b602002602001019073ffffffffffffffffffffffffffffffffffffffff16908173ffffffffffffffffffffffffffffffffffffffff16815250508c8681518110613224576132236154ff565b5b60200260200101516020015188602001518881518110613247576132466154ff565b5b602002602001019060ff16908160ff16815250508188604001518881518110613273576132726154ff565b5b6020026020010181815250508488606001518881518110613297576132966154ff565b5b60200260200101818152505080886080015188815181106132bb576132ba6154ff565b5b602002602001018181525050808860c0018181516132d9919061599d565b915081815250508660010196505b50505b505b826001019250505061302e565b505f8260c0015103613337576040517ff17cd2ca00000000000000000000000000000000000000000000000000000000815260040160405180910390fd5b505f61334c8260800151848460800151613d73565b90505f5f90505b8260a00151811015613636575f828281518110613373576133726154ff565b5b602002602001015190505f811461362a575f6133d882866020015185815181106133a05761339f6154ff565b5b6020026020010151600a6133b49190615ba8565b876060015186815181106133cb576133ca6154ff565b5b6020026020010151612674565b90505f811461362857846040015183815181106133f8576133f76154ff565b5b6020026020010151811115613429578460400151838151811061341e5761341d6154ff565b5b602002602001015190505b5f5f5f90505b88602001518110156134f557865f01518581518110613451576134506154ff565b5b602002602001015173ffffffffffffffffffffffffffffffffffffffff16895f01518281518110613485576134846154ff565b5b60200260200101515f015173ffffffffffffffffffffffffffffffffffffffff16036134ea5782895f015182815181106134c2576134c16154ff565b5b60200260200101516020018181516134da919061599d565b91508181525050600191506134f5565b80600101905061342f565b50806135b65788886020015110613538576040517f9ff41fe000000000000000000000000000000000000000000000000000000000815260040160405180910390fd5b6040518060400160405280875f01518681518110613559576135586154ff565b5b602002602001015173ffffffffffffffffffffffffffffffffffffffff16815260200183815250885f015189602001805180919061359690615bf2565b815250815181106135aa576135a96154ff565b5b60200260200101819052505b5f61360a83886060015187815181106135d2576135d16154ff565b5b6020026020010151896020015188815181106135f1576135f06154ff565b5b6020026020010151600a6136059190615ba8565b612674565b9050808960400181815161361e919061599d565b9150818152505050505b505b81600101915050613353565b505050505b5f816020015103613678576040517f1a4eaa7e00000000000000000000000000000000000000000000000000000000815260040160405180910390fd5b806020015167ffffffffffffffff811115613696576136956145ff565b5b6040519080825280602002602001820160405280156136cf57816020015b6136bc6143fa565b8152602001906001900390816136b45790505b5094505f5f90505b816020015181101561372a57815f015181815181106136f9576136f86154ff565b5b6020026020010151868281518110613714576137136154ff565b5b60200260200101819052508060010190506136d7565b505f613734612630565b90505f5f90505b86518110156137f4578873ffffffffffffffffffffffffffffffffffffffff16635c833bfd888381518110613773576137726154ff565b5b60200260200101515f0151898481518110613791576137906154ff565b5b602002602001015160200151856040518463ffffffff1660e01b81526004016137bc939291906158ca565b5f604051808303815f87803b1580156137d3575f5ffd5b505af11580156137e5573d5f5f3e3d5ffd5b5050505080600101905061373b565b5050505050509392505050565b60605f5f5f61380e612015565b73ffffffffffffffffffffffffffffffffffffffff1663ee0d96c587876040518363ffffffff1660e01b815260040161384892919061510d565b5f60405180830381865afa158015613862573d5f5f3e3d5ffd5b505050506040513d5f823e3d601f19601f8201168201806040525081019061388a91906152e2565b915091505f81036138c7576040517f1f2a200500000000000000000000000000000000000000000000000000000000815260040160405180910390fd5b5f86604001515190505f8167ffffffffffffffff8111156138eb576138ea6145ff565b5b6040519080825280602002602001820160405280156139195781602001602082028036833780820191505090505b5090505f8267ffffffffffffffff811115613937576139366145ff565b5b6040519080825280602002602001820160405280156139655781602001602082028036833780820191505090505b5090505f5f90505b83811015613a1c57612710858b6040015183815181106139905761398f6154ff565b5b60200260200101516020015161ffff166139aa91906158ff565b6139b4919061596d565b8382815181106139c7576139c66154ff565b5b6020026020010181815250508581815181106139e6576139e56154ff565b5b602002602001015160a00151828281518110613a0557613a046154ff565b5b60200260200101818152505080600101905061396d565b508267ffffffffffffffff811115613a3757613a366145ff565b5b604051908082528060200260200182016040528015613a7057816020015b613a5d6143fa565b815260200190600190039081613a555790505b5096505f5f90505b83811015613bde57828181518110613a9357613a926154ff565b5b6020026020010151828281518110613aae57613aad6154ff565b5b60200260200101511115613bd3575f838281518110613ad057613acf6154ff565b5b6020026020010151838381518110613aeb57613aea6154ff565b5b6020026020010151613afd91906154a5565b90505f613b5382898581518110613b1757613b166154ff565b5b602002602001015160200151600a613b2f9190615ba8565b8a8681518110613b4257613b416154ff565b5b602002602001015160800151612674565b90505f811115613bd0576040518060400160405280898581518110613b7b57613b7a6154ff565b5b60200260200101515f015173ffffffffffffffffffffffffffffffffffffffff168152602001828152508a8a80613bb190615bf2565b9b5081518110613bc457613bc36154ff565b5b60200260200101819052505b50505b806001019050613a78565b505f8603613c18576040517f1a4eaa7e00000000000000000000000000000000000000000000000000000000815260040160405180910390fd5b50505050509250929050565b5f5f8473ffffffffffffffffffffffffffffffffffffffff1663a9059cbb60e01b8585604051602401613c589291906154d8565b604051602081830303815290604052907bffffffffffffffffffffffffffffffffffffffffffffffffffffffff19166020820180517bffffffffffffffffffffffffffffffffffffffffffffffffffffffff8381831617835250505050604051613cc29190615c73565b5f604051808303815f865af19150503d805f8114613cfb576040519150601f19603f3d011682016040523d82523d5f602084013e613d00565b606091505b5091509150818015613d2d57505f81511480613d2c575080806020019051810190613d2b9190615c9d565b5b5b613d6c576040517f08c379a0000000000000000000000000000000000000000000000000000000008152600401613d6390615d12565b60405180910390fd5b5050505050565b60605f845190508067ffffffffffffffff811115613d9457613d936145ff565b5b604051908082528060200260200182016040528015613dc25781602001602082028036833780820191505090505b5091505f811480613dd257505f84145b15613ddd5750614374565b5f5f5f90505b82811015613e1e57868181518110613dfe57613dfd6154ff565b5b602002602001015182613e11919061599d565b9150806001019050613de3565b505f8103613e2d575050614374565b5f8285511490505f5f8467ffffffffffffffff811115613e5057613e4f6145ff565b5b604051908082528060200260200182016040528015613e7e5781602001602082028036833780820191505090505b5090505f5f90505b85811015613fa1575f8a8281518110613ea257613ea16154ff565b5b602002602001015190505f8103613ebf5781600101915050613f9c565b5f8a82613ecc91906158ff565b90505f8782613edb919061596d565b90505f8882613eea91906158ff565b83613ef591906154a5565b9050878015613f1d57508b8581518110613f1257613f116154ff565b5b602002602001015182115b15613f43578b8581518110613f3557613f346154ff565b5b602002602001015191505f90505b818b8681518110613f5757613f566154ff565b5b60200260200101818152505080868681518110613f7757613f766154ff565b5b6020026020010181815250508187613f8f919061599d565b9650846001019450505050505b613e86565b50878203613fb3575050505050614374565b87821115614153575f8883613fc891906154a5565b90505b5f8114614148575f7fffffffffffffffffffffffffffffffffffffffffffffffffffffffffffffffff90505f7fffffffffffffffffffffffffffffffffffffffffffffffffffffffffffffffff90505f5f90505b8881101561409b575f8a828151811061403b5761403a6154ff565b5b60200260200101511415801561406a5750818582815181106140605761405f6154ff565b5b6020026020010151105b1561409057848181518110614082576140816154ff565b5b602002602001015191508092505b80600101905061401f565b507fffffffffffffffffffffffffffffffffffffffffffffffffffffffffffffffff82036140ca575050614148565b60018983815181106140df576140de6154ff565b5b602002602001018181516140f391906154a5565b915081815250507fffffffffffffffffffffffffffffffffffffffffffffffffffffffffffffffff84838151811061412e5761412d6154ff565b5b602002602001018181525050826001900392505050613fcb565b505050505050614374565b5f828961416091906154a5565b90505b5f811461436d575f7fffffffffffffffffffffffffffffffffffffffffffffffffffffffffffffffff90505f5f90505f5f90505b88811015614233578615806141df57508a81815181106141ba576141b96154ff565b5b60200260200101518a82815181106141d5576141d46154ff565b5b6020026020010151105b1561422857818582815181106141f8576141f76154ff565b5b6020026020010151111561422757848181518110614219576142186154ff565b5b602002602001015191508092505b5b806001019050614197565b507fffffffffffffffffffffffffffffffffffffffffffffffffffffffffffffffff82148061426157505f81145b1561430f575f5f90505b888110801561427a57505f8414155b15614307578615806142bf57508a818151811061429a576142996154ff565b5b60200260200101518a82815181106142b5576142b46154ff565b5b6020026020010151105b156142fc5760018a82815181106142d9576142d86154ff565b5b602002602001018181516142ed919061599d565b91508181525050836001900393505b80600101905061426b565b50505061436d565b6001898381518110614324576143236154ff565b5b60200260200101818151614338919061599d565b915081815250505f848381518110614353576143526154ff565b5b602002602001018181525050826001900392505050614163565b5050505050505b9392505050565b60405180604001604052805f73ffffffffffffffffffffffffffffffffffffffff1681526020015f81525090565b60405180604001604052805f73ffffffffffffffffffffffffffffffffffffffff1681526020015f61ffff1681525090565b6040518060600160405280606081526020015f81526020015f81525090565b60405180604001604052805f73ffffffffffffffffffffffffffffffffffffffff1681526020015f81525090565b6040518060e0016040528060608152602001606081526020016060815260200160608152602001606081526020015f81526020015f81525090565b5f63ffffffff82169050919050565b61447b81614463565b82525050565b5f6020820190506144945f830184614472565b92915050565b5f604051905090565b5f5ffd5b5f5ffd5b5f73ffffffffffffffffffffffffffffffffffffffff82169050919050565b5f6144d4826144ab565b9050919050565b6144e4816144ca565b81146144ee575f5ffd5b50565b5f813590506144ff816144db565b92915050565b5f5f6040838503121561451b5761451a6144a3565b5b5f614528858286016144f1565b9250506020614539858286016144f1565b9150509250929050565b5f8115159050919050565b61455781614543565b82525050565b5f6020820190506145705f83018461454e565b92915050565b5f819050919050565b61458881614576565b8114614592575f5ffd5b50565b5f813590506145a38161457f565b92915050565b5f5f604083850312156145bf576145be6144a3565b5b5f6145cc85828601614595565b92505060206145dd858286016144f1565b9150509250929050565b5f5ffd5b5f5ffd5b5f601f19601f8301169050919050565b7f4e487b71000000000000000000000000000000000000000000000000000000005f52604160045260245ffd5b614635826145ef565b810181811067ffffffffffffffff82111715614654576146536145ff565b5b80604052505050565b5f61466661449a565b9050614672828261462c565b919050565b5f67ffffffffffffffff821115614691576146906145ff565b5b61469a826145ef565b9050602081019050919050565b828183375f83830152505050565b5f6146c76146c284614677565b61465d565b9050828152602081018484840111156146e3576146e26145eb565b5b6146ee8482856146a7565b509392505050565b5f82601f83011261470a576147096145e7565b5b813561471a8482602086016146b5565b91505092915050565b5f60208284031215614738576147376144a3565b5b5f82013567ffffffffffffffff811115614755576147546144a7565b5b614761848285016146f6565b91505092915050565b614773816144ca565b82525050565b5f60208201905061478c5f83018461476a565b92915050565b5f61ffff82169050919050565b6147a881614792565b82525050565b5f6020820190506147c15f83018461479f565b92915050565b5f819050919050565b5f6147ea6147e56147e0846144ab565b6147c7565b6144ab565b9050919050565b5f6147fb826147d0565b9050919050565b5f61480c826147f1565b9050919050565b61481c81614802565b82525050565b5f6020820190506148355f830184614813565b92915050565b61484481614543565b811461484e575f5ffd5b50565b5f8135905061485f8161483b565b92915050565b5f6020828403121561487a576148796144a3565b5b5f61488784828501614851565b91505092915050565b61489981614792565b81146148a3575f5ffd5b50565b5f813590506148b481614890565b92915050565b5f602082840312156148cf576148ce6144a3565b5b5f6148dc848285016148a6565b91505092915050565b5f602082840312156148fa576148f96144a3565b5b5f614907848285016144f1565b91505092915050565b61491981614463565b8114614923575f5ffd5b50565b5f8135905061493481614910565b92915050565b5f6020828403121561494f5761494e6144a3565b5b5f61495c84828501614926565b91505092915050565b5f61496f826144ab565b9050919050565b61497f81614965565b8114614989575f5ffd5b50565b5f8135905061499a81614976565b92915050565b5f5f5f606084860312156149b7576149b66144a3565b5b5f6149c486828701614595565b93505060206149d586828701614595565b92505060406149e68682870161498c565b9150509250925092565b5f60208284031215614a0557614a046144a3565b5b5f614a1284828501614595565b91505092915050565b5f81519050614a29816144db565b92915050565b5f60208284031215614a4457614a436144a3565b5b5f614a5184828501614a1b565b91505092915050565b5f82825260208201905092915050565b7f43616c6c6572206973206e6f7420746865206f776e65720000000000000000005f82015250565b5f614a9e601783614a5a565b9150614aa982614a6a565b602082019050919050565b5f6020820190508181035f830152614acb81614a92565b9050919050565b7f436f6e7472616374206973206e6f7420616374697665000000000000000000005f82015250565b5f614b06601683614a5a565b9150614b1182614ad2565b602082019050919050565b5f6020820190508181035f830152614b3381614afa565b9050919050565b614b4381614576565b82525050565b5f602082019050614b5c5f830184614b3a565b92915050565b5f5ffd5b5f5ffd5b8281835e5f83830152505050565b5f614b8a614b8584614677565b61465d565b905082815260208101848484011115614ba657614ba56145eb565b5b614bb1848285614b6a565b509392505050565b5f82601f830112614bcd57614bcc6145e7565b5b8151614bdd848260208601614b78565b91505092915050565b5f67ffffffffffffffff821115614c0057614bff6145ff565b5b602082029050602081019050919050565b5f5ffd5b5f81519050614c2381614890565b92915050565b5f60408284031215614c3e57614c3d614b62565b5b614c48604061465d565b90505f614c5784828501614a1b565b5f830152506020614c6a84828501614c15565b60208301525092915050565b5f614c88614c8384614be6565b61465d565b90508083825260208201905060408402830185811115614cab57614caa614c11565b5b835b81811015614cd45780614cc08882614c29565b845260208401935050604081019050614cad565b5050509392505050565b5f82601f830112614cf257614cf16145e7565b5b8151614d02848260208601614c76565b91505092915050565b5f60608284031215614d2057614d1f614b62565b5b614d2a606061465d565b90505f82015167ffffffffffffffff811115614d4957614d48614b66565b5b614d5584828501614bb9565b5f83015250602082015167ffffffffffffffff811115614d7857614d77614b66565b5b614d8484828501614bb9565b602083015250604082015167ffffffffffffffff811115614da857614da7614b66565b5b614db484828501614cde565b60408301525092915050565b5f5f5f60608486031215614dd757614dd66144a3565b5b5f84015167ffffffffffffffff811115614df457614df36144a7565b5b614e0086828701614d0b565b9350506020614e1186828701614a1b565b9250506040614e2286828701614a1b565b9150509250925092565b5f604082019050614e3f5f830185614b3a565b614e4c6020830184614b3a565b9392505050565b5f81519050919050565b5f614e6782614e53565b614e718185614a5a565b9350614e81818560208601614b6a565b614e8a816145ef565b840191505092915050565b5f6020820190508181035f830152614ead8184614e5d565b905092915050565b5f5f60408385031215614ecb57614eca6144a3565b5b5f83015167ffffffffffffffff811115614ee857614ee76144a7565b5b614ef485828601614d0b565b9250506020614f0585828601614a1b565b9150509250929050565b7f5265656e7472616e637947756172643a207265656e7472616e742063616c6c005f82015250565b5f614f43601f83614a5a565b9150614f4e82614f0f565b602082019050919050565b5f6020820190508181035f830152614f7081614f37565b9050919050565b5f82825260208201905092915050565b5f614f9182614e53565b614f9b8185614f77565b9350614fab818560208601614b6a565b614fb4816145ef565b840191505092915050565b5f81519050919050565b5f82825260208201905092915050565b5f819050602082019050919050565b614ff1816144ca565b82525050565b61500081614792565b82525050565b604082015f82015161501a5f850182614fe8565b50602082015161502d6020850182614ff7565b50505050565b5f61503e8383615006565b60408301905092915050565b5f602082019050919050565b5f61506082614fbf565b61506a8185614fc9565b935061507583614fd9565b805f5b838110156150a557815161508c8882615033565b97506150978361504a565b925050600181019050615078565b5085935050505092915050565b5f606083015f8301518482035f8601526150cc8282614f87565b915050602083015184820360208601526150e68282614f87565b915050604083015184820360408601526151008282615056565b9150508091505092915050565b5f6040820190508181035f83015261512581856150b2565b9050615134602083018461476a565b9392505050565b5f67ffffffffffffffff821115615155576151546145ff565b5b602082029050602081019050919050565b5f60ff82169050919050565b61517b81615166565b8114615185575f5ffd5b50565b5f8151905061519681615172565b92915050565b5f815190506151aa8161457f565b92915050565b5f60c082840312156151c5576151c4614b62565b5b6151cf60c061465d565b90505f6151de84828501614a1b565b5f8301525060206151f184828501615188565b602083015250604061520584828501614c15565b60408301525060606152198482850161519c565b606083015250608061522d8482850161519c565b60808301525060a06152418482850161519c565b60a08301525092915050565b5f61525f61525a8461513b565b61465d565b90508083825260208201905060c0840283018581111561528257615281614c11565b5b835b818110156152ab578061529788826151b0565b84526020840193505060c081019050615284565b5050509392505050565b5f82601f8301126152c9576152c86145e7565b5b81516152d984826020860161524d565b91505092915050565b5f5f604083850312156152f8576152f76144a3565b5b5f83015167ffffffffffffffff811115615315576153146144a7565b5b615321858286016152b5565b92505060206153328582860161519c565b9150509250929050565b5f60208284031215615351576153506144a3565b5b5f61535e8482850161519c565b91505092915050565b5f81519050919050565b5f82825260208201905092915050565b5f819050602082019050919050565b604082015f8201516153a45f850182614fe8565b5060208201516153b76020850182614ff7565b50505050565b5f6153c88383615390565b60408301905092915050565b5f602082019050919050565b5f6153ea82615367565b6153f48185615371565b93506153ff83615381565b805f5b8381101561542f57815161541688826153bd565b9750615421836153d4565b925050600181019050615402565b5085935050505092915050565b5f6060820190508181035f83015261545481866153e0565b9050615463602083018561476a565b6154706040830184614472565b949350505050565b7f4e487b71000000000000000000000000000000000000000000000000000000005f52601160045260245ffd5b5f6154af82614576565b91506154ba83614576565b92508282039050818111156154d2576154d1615478565b5b92915050565b5f6040820190506154eb5f83018561476a565b6154f86020830184614b3a565b9392505050565b7f4e487b71000000000000000000000000000000000000000000000000000000005f52603260045260245ffd5b5f81519050919050565b5f82825260208201905092915050565b5f819050602082019050919050565b61555e81614576565b82525050565b604082015f8201516155785f850182614fe8565b50602082015161558b6020850182615555565b50505050565b5f61559c8383615564565b60408301905092915050565b5f602082019050919050565b5f6155be8261552c565b6155c88185615536565b93506155d383615546565b805f5b838110156156035781516155ea8882615591565b97506155f5836155a8565b9250506001810190506155d6565b5085935050505092915050565b5f6040820190506156235f830185614b3a565b818103602083015261563581846155b4565b90509392505050565b7f4469726563746f72792063616e6e6f74206265207a65726f20616464726573735f82015250565b5f615672602083614a5a565b915061567d8261563e565b602082019050919050565b5f6020820190508181035f83015261569f81615666565b9050919050565b7f4469726563746f7279206d757374206265206120636f6e7472616374000000005f82015250565b5f6156da601c83614a5a565b91506156e5826156a6565b602082019050919050565b5f6020820190508181035f830152615707816156ce565b9050919050565b7f4469726563746f7279206164647265737320646f6573206e6f7420696d706c655f8201527f6d656e74206f776e657228290000000000000000000000000000000000000000602082015250565b5f615768602c83614a5a565b91506157738261570e565b604082019050919050565b5f6020820190508181035f8301526157958161575c565b9050919050565b5f81519050919050565b5f82825260208201905092915050565b5f819050602082019050919050565b604082015f8201516157d95f850182614fe8565b5060208201516157ec6020850182615555565b50505050565b5f6157fd83836157c5565b60408301905092915050565b5f602082019050919050565b5f61581f8261579c565b61582981856157a6565b9350615834836157b6565b805f5b8381101561586457815161584b88826157f2565b975061585683615809565b925050600181019050615837565b5085935050505092915050565b61587a81614965565b82525050565b5f6080820190508181035f8301526158988187615815565b90506158a76020830186615871565b6158b46040830185614472565b6158c1606083018461454e565b95945050505050565b5f6060820190506158dd5f83018661476a565b6158ea6020830185614b3a565b6158f7604083018461476a565b949350505050565b5f61590982614576565b915061591483614576565b925082820261592281614576565b9150828204841483151761593957615938615478565b5b5092915050565b7f4e487b71000000000000000000000000000000000000000000000000000000005f52601260045260245ffd5b5f61597782614576565b915061598283614576565b92508261599257615991615940565b5b828204905092915050565b5f6159a782614576565b91506159b283614576565b92508282019050808211156159ca576159c9615478565b5b92915050565b7f6d756c446976206f766572666c6f7700000000000000000000000000000000005f82015250565b5f615a04600f83614a5a565b9150615a0f826159d0565b602082019050919050565b5f6020820190508181035f830152615a31816159f8565b9050919050565b5f81905092915050565b50565b5f615a505f83615a38565b9150615a5b82615a42565b5f82019050919050565b5f615a6f82615a45565b9150819050919050565b5f8160011c9050919050565b5f5f8291508390505b6001851115615ace57808604811115615aaa57615aa9615478565b5b6001851615615ab95780820291505b8081029050615ac785615a79565b9450615a8e565b94509492505050565b5f82615ae65760019050615ba1565b81615af3575f9050615ba1565b8160018114615b095760028114615b1357615b42565b6001915050615ba1565b60ff841115615b2557615b24615478565b5b8360020a915084821115615b3c57615b3b615478565b5b50615ba1565b5060208310610133831016604e8410600b8410161715615b775782820a905083811115615b7257615b71615478565b5b615ba1565b615b848484846001615a85565b92509050818404811115615b9b57615b9a615478565b5b81810290505b9392505050565b5f615bb282614576565b9150615bbd83615166565b9250615bea7fffffffffffffffffffffffffffffffffffffffffffffffffffffffffffffffff8484615ad7565b905092915050565b5f615bfc82614576565b91507fffffffffffffffffffffffffffffffffffffffffffffffffffffffffffffffff8203615c2e57615c2d615478565b5b600182019050919050565b5f81519050919050565b5f615c4d82615c39565b615c578185615a38565b9350615c67818560208601614b6a565b80840191505092915050565b5f615c7e8284615c43565b915081905092915050565b5f81519050615c978161483b565b92915050565b5f60208284031215615cb257615cb16144a3565b5b5f615cbf84828501615c89565b91505092915050565b7f5452414e534645525f4641494c454400000000000000000000000000000000005f82015250565b5f615cfc600f83614a5a565b9150615d0782615cc8565b602082019050919050565b5f6020820190508181035f830152615d2981615cf0565b905091905056fea26469706673582212208bb1df6ab49791297705bdd8cfadb0a332f418209930a0b69663450dd616ec3864736f6c634300081e0033",
			"opcodes": "PUSH1 0x80 PUSH1 0x40 MSTORE PUSH1 0x1 DUP1 PUSH1 0x14 PUSH2 0x100 EXP DUP2 SLOAD DUP2 PUSH1 0xFF MUL NOT AND SWAP1 DUP4 ISZERO ISZERO MUL OR SWAP1 SSTORE POP PUSH1 0x19 PUSH1 0x1 PUSH1 0x15 PUSH2 0x100 EXP DUP2 SLOAD DUP2 PUSH2 0xFFFF MUL NOT AND SWAP1 DUP4 PUSH2 0xFFFF AND MUL OR SWAP1 SSTORE POP PUSH2 0x12C PUSH1 0x1 PUSH1 0x17 PUSH2 0x100 EXP DUP2 SLOAD DUP2 PUSH4 0xFFFFFFFF MUL NOT AND SWAP1 DUP4 PUSH4 0xFFFFFFFF AND MUL OR SWAP1 SSTORE POP CALLVALUE DUP1 ISZERO PUSH2 0x6A JUMPI PUSH0 PUSH0 REVERT JUMPDEST POP PUSH1 0x40 MLOAD PUSH2 0x61C6 CODESIZE SUB DUP1 PUSH2 0x61C6 DUP4 CODECOPY DUP2 DUP2 ADD PUSH1 0x40 MSTORE DUP2 ADD SWAP1 PUSH2 0x8C SWAP2 SWAP1 PUSH2 0x2BA JUMP JUMPDEST DUP1 PUSH1 0x1 PUSH0 DUP2 SWAP1 SSTORE POP PUSH2 0xA3 DUP2 PUSH2 0xAA PUSH1 0x20 SHL PUSH1 0x20 SHR JUMP JUMPDEST POP POP PUSH2 0x453 JUMP JUMPDEST PUSH0 PUSH20 0xFFFFFFFFFFFFFFFFFFFFFFFFFFFFFFFFFFFFFFFF AND DUP2 PUSH20 0xFFFFFFFFFFFFFFFFFFFFFFFFFFFFFFFFFFFFFFFF AND SUB PUSH2 0x118 JUMPI PUSH1 0x40 MLOAD PUSH32 0x8C379A000000000000000000000000000000000000000000000000000000000 DUP2 MSTORE PUSH1 0x4 ADD PUSH2 0x10F SWAP1 PUSH2 0x33F JUMP JUMPDEST PUSH1 0x40 MLOAD DUP1 SWAP2 SUB SWAP1 REVERT JUMPDEST PUSH0 DUP2 PUSH20 0xFFFFFFFFFFFFFFFFFFFFFFFFFFFFFFFFFFFFFFFF AND EXTCODESIZE GT PUSH2 0x171 JUMPI PUSH1 0x40 MLOAD PUSH32 0x8C379A000000000000000000000000000000000000000000000000000000000 DUP2 MSTORE PUSH1 0x4 ADD PUSH2 0x168 SWAP1 PUSH2 0x3A7 JUMP JUMPDEST PUSH1 0x40 MLOAD DUP1 SWAP2 SUB SWAP1 REVERT JUMPDEST DUP1 PUSH20 0xFFFFFFFFFFFFFFFFFFFFFFFFFFFFFFFFFFFFFFFF AND PUSH4 0x8DA5CB5B PUSH1 0x40 MLOAD DUP2 PUSH4 0xFFFFFFFF AND PUSH1 0xE0 SHL DUP2 MSTORE PUSH1 0x4 ADD PUSH1 0x20 PUSH1 0x40 MLOAD DUP1 DUP4 SUB DUP2 DUP7 GAS STATICCALL SWAP3 POP POP POP DUP1 ISZERO PUSH2 0x1D9 JUMPI POP PUSH1 0x40 MLOAD RETURNDATASIZE PUSH1 0x1F NOT PUSH1 0x1F DUP3 ADD AND DUP3 ADD DUP1 PUSH1 0x40 MSTORE POP DUP2 ADD SWAP1 PUSH2 0x1D6 SWAP2 SWAP1 PUSH2 0x2BA JUMP JUMPDEST PUSH1 0x1 JUMPDEST PUSH2 0x218 JUMPI PUSH1 0x40 MLOAD PUSH32 0x8C379A000000000000000000000000000000000000000000000000000000000 DUP2 MSTORE PUSH1 0x4 ADD PUSH2 0x20F SWAP1 PUSH2 0x435 JUMP JUMPDEST PUSH1 0x40 MLOAD DUP1 SWAP2 SUB SWAP1 REVERT JUMPDEST DUP2 PUSH1 0x1 PUSH0 PUSH2 0x100 EXP DUP2 SLOAD DUP2 PUSH20 0xFFFFFFFFFFFFFFFFFFFFFFFFFFFFFFFFFFFFFFFF MUL NOT AND SWAP1 DUP4 PUSH20 0xFFFFFFFFFFFFFFFFFFFFFFFFFFFFFFFFFFFFFFFF AND MUL OR SWAP1 SSTORE POP POP POP JUMP JUMPDEST PUSH0 PUSH0 REVERT JUMPDEST PUSH0 PUSH20 0xFFFFFFFFFFFFFFFFFFFFFFFFFFFFFFFFFFFFFFFF DUP3 AND SWAP1 POP SWAP2 SWAP1 POP JUMP JUMPDEST PUSH0 PUSH2 0x289 DUP3 PUSH2 0x260 JUMP JUMPDEST SWAP1 POP SWAP2 SWAP1 POP JUMP JUMPDEST PUSH2 0x299 DUP2 PUSH2 0x27F JUMP JUMPDEST DUP2 EQ PUSH2 0x2A3 JUMPI PUSH0 PUSH0 REVERT JUMPDEST POP JUMP JUMPDEST PUSH0 DUP2 MLOAD SWAP1 POP PUSH2 0x2B4 DUP2 PUSH2 0x290 JUMP JUMPDEST SWAP3 SWAP2 POP POP JUMP JUMPDEST PUSH0 PUSH1 0x20 DUP3 DUP5 SUB SLT ISZERO PUSH2 0x2CF JUMPI PUSH2 0x2CE PUSH2 0x25C JUMP JUMPDEST JUMPDEST PUSH0 PUSH2 0x2DC DUP5 DUP3 DUP6 ADD PUSH2 0x2A6 JUMP JUMPDEST SWAP2 POP POP SWAP3 SWAP2 POP POP JUMP JUMPDEST PUSH0 DUP3 DUP3 MSTORE PUSH1 0x20 DUP3 ADD SWAP1 POP SWAP3 SWAP2 POP POP JUMP JUMPDEST PUSH32 0x4469726563746F72792063616E6E6F74206265207A65726F2061646472657373 PUSH0 DUP3 ADD MSTORE POP JUMP JUMPDEST PUSH0 PUSH2 0x329 PUSH1 0x20 DUP4 PUSH2 0x2E5 JUMP JUMPDEST SWAP2 POP PUSH2 0x334 DUP3 PUSH2 0x2F5 JUMP JUMPDEST PUSH1 0x20 DUP3 ADD SWAP1 POP SWAP2 SWAP1 POP JUMP JUMPDEST PUSH0 PUSH1 0x20 DUP3 ADD SWAP1 POP DUP2 DUP2 SUB PUSH0 DUP4 ADD MSTORE PUSH2 0x356 DUP2 PUSH2 0x31D JUMP JUMPDEST SWAP1 POP SWAP2 SWAP1 POP JUMP JUMPDEST PUSH32 0x4469726563746F7279206D757374206265206120636F6E747261637400000000 PUSH0 DUP3 ADD MSTORE POP JUMP JUMPDEST PUSH0 PUSH2 0x391 PUSH1 0x1C DUP4 PUSH2 0x2E5 JUMP JUMPDEST SWAP2 POP PUSH2 0x39C DUP3 PUSH2 0x35D JUMP JUMPDEST PUSH1 0x20 DUP3 ADD SWAP1 POP SWAP2 SWAP1 POP JUMP JUMPDEST PUSH0 PUSH1 0x20 DUP3 ADD SWAP1 POP DUP2 DUP2 SUB PUSH0 DUP4 ADD MSTORE PUSH2 0x3BE DUP2 PUSH2 0x385 JUMP JUMPDEST SWAP1 POP SWAP2 SWAP1 POP JUMP JUMPDEST PUSH32 0x4469726563746F7279206164647265737320646F6573206E6F7420696D706C65 PUSH0 DUP3 ADD MSTORE PUSH32 0x6D656E74206F776E657228290000000000000000000000000000000000000000 PUSH1 0x20 DUP3 ADD MSTORE POP JUMP JUMPDEST PUSH0 PUSH2 0x41F PUSH1 0x2C DUP4 PUSH2 0x2E5 JUMP JUMPDEST SWAP2 POP PUSH2 0x42A DUP3 PUSH2 0x3C5 JUMP JUMPDEST PUSH1 0x40 DUP3 ADD SWAP1 POP SWAP2 SWAP1 POP JUMP JUMPDEST PUSH0 PUSH1 0x20 DUP3 ADD SWAP1 POP DUP2 DUP2 SUB PUSH0 DUP4 ADD MSTORE PUSH2 0x44C DUP2 PUSH2 0x413 JUMP JUMPDEST SWAP1 POP SWAP2 SWAP1 POP JUMP JUMPDEST PUSH2 0x5D66 DUP1 PUSH2 0x460 PUSH0 CODECOPY PUSH0 RETURN INVALID PUSH1 0x80 PUSH1 0x40 MSTORE PUSH1 0x4 CALLDATASIZE LT PUSH2 0xE0 JUMPI PUSH0 CALLDATALOAD PUSH1 0xE0 SHR DUP1 PUSH4 0x8DA5CB5B GT PUSH2 0x7E JUMPI DUP1 PUSH4 0xBA4C7BE1 GT PUSH2 0x58 JUMPI DUP1 PUSH4 0xBA4C7BE1 EQ PUSH2 0x28D JUMPI DUP1 PUSH4 0xBB3367BD EQ PUSH2 0x2B5 JUMPI DUP1 PUSH4 0xE220D0DE EQ PUSH2 0x2DD JUMPI DUP1 PUSH4 0xF4993018 EQ PUSH2 0x305 JUMPI PUSH2 0xE7 JUMP JUMPDEST DUP1 PUSH4 0x8DA5CB5B EQ PUSH2 0x213 JUMPI DUP1 PUSH4 0xACEC338A EQ PUSH2 0x23D JUMPI DUP1 PUSH4 0xB42C0782 EQ PUSH2 0x265 JUMPI PUSH2 0xE7 JUMP JUMPDEST DUP1 PUSH4 0x25C006F9 GT PUSH2 0xBA JUMPI DUP1 PUSH4 0x25C006F9 EQ PUSH2 0x167 JUMPI DUP1 PUSH4 0x27262618 EQ PUSH2 0x183 JUMPI DUP1 PUSH4 0x34FBC9A1 EQ PUSH2 0x1BF JUMPI DUP1 PUSH4 0x658A847A EQ PUSH2 0x1E9 JUMPI PUSH2 0xE7 JUMP JUMPDEST DUP1 PUSH4 0x650B0FC EQ PUSH2 0xEB JUMPI DUP1 PUSH4 0x9053AC4 EQ PUSH2 0x115 JUMPI DUP1 PUSH4 0x22F3E2D4 EQ PUSH2 0x13D JUMPI PUSH2 0xE7 JUMP JUMPDEST CALLDATASIZE PUSH2 0xE7 JUMPI STOP JUMPDEST PUSH0 PUSH0 REVERT JUMPDEST CALLVALUE DUP1 ISZERO PUSH2 0xF6 JUMPI PUSH0 PUSH0 REVERT JUMPDEST POP PUSH2 0xFF PUSH2 0x32D JUMP JUMPDEST PUSH1 0x40 MLOAD PUSH2 0x10C SWAP2 SWAP1 PUSH2 0x4481 JUMP JUMPDEST PUSH1 0x40 MLOAD DUP1 SWAP2 SUB SWAP1 RETURN JUMPDEST CALLVALUE DUP1 ISZERO PUSH2 0x120 JUMPI PUSH0 PUSH0 REVERT JUMPDEST POP PUSH2 0x13B PUSH1 0x4 DUP1 CALLDATASIZE SUB DUP2 ADD SWAP1 PUSH2 0x136 SWAP2 SWAP1 PUSH2 0x4505 JUMP JUMPDEST PUSH2 0x343 JUMP JUMPDEST STOP JUMPDEST CALLVALUE DUP1 ISZERO PUSH2 0x148 JUMPI PUSH0 PUSH0 REVERT JUMPDEST POP PUSH2 0x151 PUSH2 0x44C JUMP JUMPDEST PUSH1 0x40 MLOAD PUSH2 0x15E SWAP2 SWAP1 PUSH2 0x455D JUMP JUMPDEST PUSH1 0x40 MLOAD DUP1 SWAP2 SUB SWAP1 RETURN JUMPDEST PUSH2 0x181 PUSH1 0x4 DUP1 CALLDATASIZE SUB DUP2 ADD SWAP1 PUSH2 0x17C SWAP2 SWAP1 PUSH2 0x45A9 JUMP JUMPDEST PUSH2 0x45F JUMP JUMPDEST STOP JUMPDEST CALLVALUE DUP1 ISZERO PUSH2 0x18E JUMPI PUSH0 PUSH0 REVERT JUMPDEST POP PUSH2 0x1A9 PUSH1 0x4 DUP1 CALLDATASIZE SUB DUP2 ADD SWAP1 PUSH2 0x1A4 SWAP2 SWAP1 PUSH2 0x4723 JUMP JUMPDEST PUSH2 0x683 JUMP JUMPDEST PUSH1 0x40 MLOAD PUSH2 0x1B6 SWAP2 SWAP1 PUSH2 0x4779 JUMP JUMPDEST PUSH1 0x40 MLOAD DUP1 SWAP2 SUB SWAP1 RETURN JUMPDEST CALLVALUE DUP1 ISZERO PUSH2 0x1CA JUMPI PUSH0 PUSH0 REVERT JUMPDEST POP PUSH2 0x1D3 PUSH2 0x724 JUMP JUMPDEST PUSH1 0x40 MLOAD PUSH2 0x1E0 SWAP2 SWAP1 PUSH2 0x47AE JUMP JUMPDEST PUSH1 0x40 MLOAD DUP1 SWAP2 SUB SWAP1 RETURN JUMPDEST CALLVALUE DUP1 ISZERO PUSH2 0x1F4 JUMPI PUSH0 PUSH0 REVERT JUMPDEST POP PUSH2 0x1FD PUSH2 0x738 JUMP JUMPDEST PUSH1 0x40 MLOAD PUSH2 0x20A SWAP2 SWAP1 PUSH2 0x4822 JUMP JUMPDEST PUSH1 0x40 MLOAD DUP1 SWAP2 SUB SWAP1 RETURN JUMPDEST CALLVALUE DUP1 ISZERO PUSH2 0x21E JUMPI PUSH0 PUSH0 REVERT JUMPDEST POP PUSH2 0x227 PUSH2 0x75D JUMP JUMPDEST PUSH1 0x40 MLOAD PUSH2 0x234 SWAP2 SWAP1 PUSH2 0x4779 JUMP JUMPDEST PUSH1 0x40 MLOAD DUP1 SWAP2 SUB SWAP1 RETURN JUMPDEST CALLVALUE DUP1 ISZERO PUSH2 0x248 JUMPI PUSH0 PUSH0 REVERT JUMPDEST POP PUSH2 0x263 PUSH1 0x4 DUP1 CALLDATASIZE SUB DUP2 ADD SWAP1 PUSH2 0x25E SWAP2 SWAP1 PUSH2 0x4865 JUMP JUMPDEST PUSH2 0x7F1 JUMP JUMPDEST STOP JUMPDEST CALLVALUE DUP1 ISZERO PUSH2 0x270 JUMPI PUSH0 PUSH0 REVERT JUMPDEST POP PUSH2 0x28B PUSH1 0x4 DUP1 CALLDATASIZE SUB DUP2 ADD SWAP1 PUSH2 0x286 SWAP2 SWAP1 PUSH2 0x48BA JUMP JUMPDEST PUSH2 0x909 JUMP JUMPDEST STOP JUMPDEST CALLVALUE DUP1 ISZERO PUSH2 0x298 JUMPI PUSH0 PUSH0 REVERT JUMPDEST POP PUSH2 0x2B3 PUSH1 0x4 DUP1 CALLDATASIZE SUB DUP2 ADD SWAP1 PUSH2 0x2AE SWAP2 SWAP1 PUSH2 0x48E5 JUMP JUMPDEST PUSH2 0xAB3 JUMP JUMPDEST STOP JUMPDEST CALLVALUE DUP1 ISZERO PUSH2 0x2C0 JUMPI PUSH0 PUSH0 REVERT JUMPDEST POP PUSH2 0x2DB PUSH1 0x4 DUP1 CALLDATASIZE SUB DUP2 ADD SWAP1 PUSH2 0x2D6 SWAP2 SWAP1 PUSH2 0x493A JUMP JUMPDEST PUSH2 0xBBA JUMP JUMPDEST STOP JUMPDEST CALLVALUE DUP1 ISZERO PUSH2 0x2E8 JUMPI PUSH0 PUSH0 REVERT JUMPDEST POP PUSH2 0x303 PUSH1 0x4 DUP1 CALLDATASIZE SUB DUP2 ADD SWAP1 PUSH2 0x2FE SWAP2 SWAP1 PUSH2 0x49A0 JUMP JUMPDEST PUSH2 0xD1B JUMP JUMPDEST STOP JUMPDEST CALLVALUE DUP1 ISZERO PUSH2 0x310 JUMPI PUSH0 PUSH0 REVERT JUMPDEST POP PUSH2 0x32B PUSH1 0x4 DUP1 CALLDATASIZE SUB DUP2 ADD SWAP1 PUSH2 0x326 SWAP2 SWAP1 PUSH2 0x49F0 JUMP JUMPDEST PUSH2 0xF37 JUMP JUMPDEST STOP JUMPDEST PUSH1 0x1 PUSH1 0x17 SWAP1 SLOAD SWAP1 PUSH2 0x100 EXP SWAP1 DIV PUSH4 0xFFFFFFFF AND DUP2 JUMP JUMPDEST PUSH1 0x1 PUSH0 SWAP1 SLOAD SWAP1 PUSH2 0x100 EXP SWAP1 DIV PUSH20 0xFFFFFFFFFFFFFFFFFFFFFFFFFFFFFFFFFFFFFFFF AND PUSH20 0xFFFFFFFFFFFFFFFFFFFFFFFFFFFFFFFFFFFFFFFF AND PUSH4 0x8DA5CB5B PUSH1 0x40 MLOAD DUP2 PUSH4 0xFFFFFFFF AND PUSH1 0xE0 SHL DUP2 MSTORE PUSH1 0x4 ADD PUSH1 0x20 PUSH1 0x40 MLOAD DUP1 DUP4 SUB DUP2 DUP7 GAS STATICCALL ISZERO DUP1 ISZERO PUSH2 0x3AD JUMPI RETURNDATASIZE PUSH0 PUSH0 RETURNDATACOPY RETURNDATASIZE PUSH0 REVERT JUMPDEST POP POP POP POP PUSH1 0x40 MLOAD RETURNDATASIZE PUSH1 0x1F NOT PUSH1 0x1F DUP3 ADD AND DUP3 ADD DUP1 PUSH1 0x40 MSTORE POP DUP2 ADD SWAP1 PUSH2 0x3D1 SWAP2 SWAP1 PUSH2 0x4A2F JUMP JUMPDEST PUSH20 0xFFFFFFFFFFFFFFFFFFFFFFFFFFFFFFFFFFFFFFFF AND CALLER PUSH20 0xFFFFFFFFFFFFFFFFFFFFFFFFFFFFFFFFFFFFFFFF AND EQ PUSH2 0x43E JUMPI PUSH1 0x40 MLOAD PUSH32 0x8C379A000000000000000000000000000000000000000000000000000000000 DUP2 MSTORE PUSH1 0x4 ADD PUSH2 0x435 SWAP1 PUSH2 0x4AB4 JUMP JUMPDEST PUSH1 0x40 MLOAD DUP1 SWAP2 SUB SWAP1 REVERT JUMPDEST PUSH2 0x448 DUP3 DUP3 PUSH2 0x1041 JUMP JUMPDEST POP POP JUMP JUMPDEST PUSH1 0x1 PUSH1 0x14 SWAP1 SLOAD SWAP1 PUSH2 0x100 EXP SWAP1 DIV PUSH1 0xFF AND DUP2 JUMP JUMPDEST PUSH2 0x467 PUSH2 0x104F JUMP JUMPDEST PUSH1 0x1 PUSH1 0x14 SWAP1 SLOAD SWAP1 PUSH2 0x100 EXP SWAP1 DIV PUSH1 0xFF AND PUSH2 0x4B6 JUMPI PUSH1 0x40 MLOAD PUSH32 0x8C379A000000000000000000000000000000000000000000000000000000000 DUP2 MSTORE PUSH1 0x4 ADD PUSH2 0x4AD SWAP1 PUSH2 0x4B1C JUMP JUMPDEST PUSH1 0x40 MLOAD DUP1 SWAP2 SUB SWAP1 REVERT JUMPDEST PUSH0 CALLVALUE SUB PUSH2 0x4EF JUMPI PUSH1 0x40 MLOAD PUSH32 0x1F2A200500000000000000000000000000000000000000000000000000000000 DUP2 MSTORE PUSH1 0x4 ADD PUSH1 0x40 MLOAD DUP1 SWAP2 SUB SWAP1 REVERT JUMPDEST PUSH0 PUSH20 0xFFFFFFFFFFFFFFFFFFFFFFFFFFFFFFFFFFFFFFFF AND DUP2 PUSH20 0xFFFFFFFFFFFFFFFFFFFFFFFFFFFFFFFFFFFFFFFF AND SUB PUSH2 0x554 JUMPI PUSH1 0x40 MLOAD PUSH32 0x6BA9ECD800000000000000000000000000000000000000000000000000000000 DUP2 MSTORE PUSH1 0x4 ADD PUSH1 0x40 MLOAD DUP1 SWAP2 SUB SWAP1 REVERT JUMPDEST PUSH0 PUSH0 PUSH0 PUSH2 0x55F PUSH2 0x109C JUMP JUMPDEST PUSH20 0xFFFFFFFFFFFFFFFFFFFFFFFFFFFFFFFFFFFFFFFF AND PUSH4 0x61668690 DUP7 PUSH1 0x40 MLOAD DUP3 PUSH4 0xFFFFFFFF AND PUSH1 0xE0 SHL DUP2 MSTORE PUSH1 0x4 ADD PUSH2 0x597 SWAP2 SWAP1 PUSH2 0x4B49 JUMP JUMPDEST PUSH0 PUSH1 0x40 MLOAD DUP1 DUP4 SUB DUP2 DUP7 GAS STATICCALL ISZERO DUP1 ISZERO PUSH2 0x5B1 JUMPI RETURNDATASIZE PUSH0 PUSH0 RETURNDATACOPY RETURNDATASIZE PUSH0 REVERT JUMPDEST POP POP POP POP PUSH1 0x40 MLOAD RETURNDATASIZE PUSH0 DUP3 RETURNDATACOPY RETURNDATASIZE PUSH1 0x1F NOT PUSH1 0x1F DUP3 ADD AND DUP3 ADD DUP1 PUSH1 0x40 MSTORE POP DUP2 ADD SWAP1 PUSH2 0x5D9 SWAP2 SWAP1 PUSH2 0x4DC0 JUMP JUMPDEST SWAP3 POP SWAP3 POP SWAP3 POP PUSH0 PUSH2 0x5ED DUP7 DUP6 DUP6 DUP6 DUP10 PUSH2 0x10E0 JUMP JUMPDEST SWAP2 POP POP PUSH2 0x5F9 CALLER PUSH2 0x14E7 JUMP JUMPDEST PUSH2 0x604 DUP7 DUP6 DUP5 PUSH2 0x1502 JUMP JUMPDEST PUSH2 0x60C PUSH2 0x109C JUMP JUMPDEST PUSH20 0xFFFFFFFFFFFFFFFFFFFFFFFFFFFFFFFFFFFFFFFF AND PUSH4 0x1626542C DUP8 DUP4 PUSH1 0x40 MLOAD DUP4 PUSH4 0xFFFFFFFF AND PUSH1 0xE0 SHL DUP2 MSTORE PUSH1 0x4 ADD PUSH2 0x646 SWAP3 SWAP2 SWAP1 PUSH2 0x4E2C JUMP JUMPDEST PUSH0 PUSH1 0x40 MLOAD DUP1 DUP4 SUB DUP2 PUSH0 DUP8 DUP1 EXTCODESIZE ISZERO DUP1 ISZERO PUSH2 0x65D JUMPI PUSH0 PUSH0 REVERT JUMPDEST POP GAS CALL ISZERO DUP1 ISZERO PUSH2 0x66F JUMPI RETURNDATASIZE PUSH0 PUSH0 RETURNDATACOPY RETURNDATASIZE PUSH0 REVERT JUMPDEST POP POP POP POP POP POP POP POP PUSH2 0x67F PUSH2 0x16A6 JUMP JUMPDEST POP POP JUMP JUMPDEST PUSH0 PUSH1 0x1 PUSH0 SWAP1 SLOAD SWAP1 PUSH2 0x100 EXP SWAP1 DIV PUSH20 0xFFFFFFFFFFFFFFFFFFFFFFFFFFFFFFFFFFFFFFFF AND PUSH20 0xFFFFFFFFFFFFFFFFFFFFFFFFFFFFFFFFFFFFFFFF AND PUSH4 0x27262618 DUP4 PUSH1 0x40 MLOAD DUP3 PUSH4 0xFFFFFFFF AND PUSH1 0xE0 SHL DUP2 MSTORE PUSH1 0x4 ADD PUSH2 0x6DE SWAP2 SWAP1 PUSH2 0x4E95 JUMP JUMPDEST PUSH1 0x20 PUSH1 0x40 MLOAD DUP1 DUP4 SUB DUP2 DUP7 GAS STATICCALL ISZERO DUP1 ISZERO PUSH2 0x6F9 JUMPI RETURNDATASIZE PUSH0 PUSH0 RETURNDATACOPY RETURNDATASIZE PUSH0 REVERT JUMPDEST POP POP POP POP PUSH1 0x40 MLOAD RETURNDATASIZE PUSH1 0x1F NOT PUSH1 0x1F DUP3 ADD AND DUP3 ADD DUP1 PUSH1 0x40 MSTORE POP DUP2 ADD SWAP1 PUSH2 0x71D SWAP2 SWAP1 PUSH2 0x4A2F JUMP JUMPDEST SWAP1 POP SWAP2 SWAP1 POP JUMP JUMPDEST PUSH1 0x1 PUSH1 0x15 SWAP1 SLOAD SWAP1 PUSH2 0x100 EXP SWAP1 DIV PUSH2 0xFFFF AND DUP2 JUMP JUMPDEST PUSH1 0x1 PUSH0 SWAP1 SLOAD SWAP1 PUSH2 0x100 EXP SWAP1 DIV PUSH20 0xFFFFFFFFFFFFFFFFFFFFFFFFFFFFFFFFFFFFFFFF AND DUP2 JUMP JUMPDEST PUSH0 PUSH1 0x1 PUSH0 SWAP1 SLOAD SWAP1 PUSH2 0x100 EXP SWAP1 DIV PUSH20 0xFFFFFFFFFFFFFFFFFFFFFFFFFFFFFFFFFFFFFFFF AND PUSH20 0xFFFFFFFFFFFFFFFFFFFFFFFFFFFFFFFFFFFFFFFF AND PUSH4 0x8DA5CB5B PUSH1 0x40 MLOAD DUP2 PUSH4 0xFFFFFFFF AND PUSH1 0xE0 SHL DUP2 MSTORE PUSH1 0x4 ADD PUSH1 0x20 PUSH1 0x40 MLOAD DUP1 DUP4 SUB DUP2 DUP7 GAS STATICCALL ISZERO DUP1 ISZERO PUSH2 0x7C8 JUMPI RETURNDATASIZE PUSH0 PUSH0 RETURNDATACOPY RETURNDATASIZE PUSH0 REVERT JUMPDEST POP POP POP POP PUSH1 0x40 MLOAD RETURNDATASIZE PUSH1 0x1F NOT PUSH1 0x1F DUP3 ADD AND DUP3 ADD DUP1 PUSH1 0x40 MSTORE POP DUP2 ADD SWAP1 PUSH2 0x7EC SWAP2 SWAP1 PUSH2 0x4A2F JUMP JUMPDEST SWAP1 POP SWAP1 JUMP JUMPDEST PUSH1 0x1 PUSH0 SWAP1 SLOAD SWAP1 PUSH2 0x100 EXP SWAP1 DIV PUSH20 0xFFFFFFFFFFFFFFFFFFFFFFFFFFFFFFFFFFFFFFFF AND PUSH20 0xFFFFFFFFFFFFFFFFFFFFFFFFFFFFFFFFFFFFFFFF AND PUSH4 0x8DA5CB5B PUSH1 0x40 MLOAD DUP2 PUSH4 0xFFFFFFFF AND PUSH1 0xE0 SHL DUP2 MSTORE PUSH1 0x4 ADD PUSH1 0x20 PUSH1 0x40 MLOAD DUP1 DUP4 SUB DUP2 DUP7 GAS STATICCALL ISZERO DUP1 ISZERO PUSH2 0x85B JUMPI RETURNDATASIZE PUSH0 PUSH0 RETURNDATACOPY RETURNDATASIZE PUSH0 REVERT JUMPDEST POP POP POP POP PUSH1 0x40 MLOAD RETURNDATASIZE PUSH1 0x1F NOT PUSH1 0x1F DUP3 ADD AND DUP3 ADD DUP1 PUSH1 0x40 MSTORE POP DUP2 ADD SWAP1 PUSH2 0x87F SWAP2 SWAP1 PUSH2 0x4A2F JUMP JUMPDEST PUSH20 0xFFFFFFFFFFFFFFFFFFFFFFFFFFFFFFFFFFFFFFFF AND CALLER PUSH20 0xFFFFFFFFFFFFFFFFFFFFFFFFFFFFFFFFFFFFFFFF AND EQ PUSH2 0x8EC JUMPI PUSH1 0x40 MLOAD PUSH32 0x8C379A000000000000000000000000000000000000000000000000000000000 DUP2 MSTORE PUSH1 0x4 ADD PUSH2 0x8E3 SWAP1 PUSH2 0x4AB4 JUMP JUMPDEST PUSH1 0x40 MLOAD DUP1 SWAP2 SUB SWAP1 REVERT JUMPDEST DUP1 PUSH1 0x1 PUSH1 0x14 PUSH2 0x100 EXP DUP2 SLOAD DUP2 PUSH1 0xFF MUL NOT AND SWAP1 DUP4 ISZERO ISZERO MUL OR SWAP1 SSTORE POP POP JUMP JUMPDEST PUSH1 0x1 PUSH0 SWAP1 SLOAD SWAP1 PUSH2 0x100 EXP SWAP1 DIV PUSH20 0xFFFFFFFFFFFFFFFFFFFFFFFFFFFFFFFFFFFFFFFF AND PUSH20 0xFFFFFFFFFFFFFFFFFFFFFFFFFFFFFFFFFFFFFFFF AND PUSH4 0x8DA5CB5B PUSH1 0x40 MLOAD DUP2 PUSH4 0xFFFFFFFF AND PUSH1 0xE0 SHL DUP2 MSTORE PUSH1 0x4 ADD PUSH1 0x20 PUSH1 0x40 MLOAD DUP1 DUP4 SUB DUP2 DUP7 GAS STATICCALL ISZERO DUP1 ISZERO PUSH2 0x973 JUMPI RETURNDATASIZE PUSH0 PUSH0 RETURNDATACOPY RETURNDATASIZE PUSH0 REVERT JUMPDEST POP POP POP POP PUSH1 0x40 MLOAD RETURNDATASIZE PUSH1 0x1F NOT PUSH1 0x1F DUP3 ADD AND DUP3 ADD DUP1 PUSH1 0x40 MSTORE POP DUP2 ADD SWAP1 PUSH2 0x997 SWAP2 SWAP1 PUSH2 0x4A2F JUMP JUMPDEST PUSH20 0xFFFFFFFFFFFFFFFFFFFFFFFFFFFFFFFFFFFFFFFF AND CALLER PUSH20 0xFFFFFFFFFFFFFFFFFFFFFFFFFFFFFFFFFFFFFFFF AND EQ PUSH2 0xA04 JUMPI PUSH1 0x40 MLOAD PUSH32 0x8C379A000000000000000000000000000000000000000000000000000000000 DUP2 MSTORE PUSH1 0x4 ADD PUSH2 0x9FB SWAP1 PUSH2 0x4AB4 JUMP JUMPDEST PUSH1 0x40 MLOAD DUP1 SWAP2 SUB SWAP1 REVERT JUMPDEST PUSH1 0x1 PUSH1 0x14 SWAP1 SLOAD SWAP1 PUSH2 0x100 EXP SWAP1 DIV PUSH1 0xFF AND PUSH2 0xA53 JUMPI PUSH1 0x40 MLOAD PUSH32 0x8C379A000000000000000000000000000000000000000000000000000000000 DUP2 MSTORE PUSH1 0x4 ADD PUSH2 0xA4A SWAP1 PUSH2 0x4B1C JUMP JUMPDEST PUSH1 0x40 MLOAD DUP1 SWAP2 SUB SWAP1 REVERT JUMPDEST PUSH2 0x2710 DUP2 PUSH2 0xFFFF AND GT ISZERO PUSH2 0xA93 JUMPI PUSH1 0x40 MLOAD PUSH32 0xDEAA01E600000000000000000000000000000000000000000000000000000000 DUP2 MSTORE PUSH1 0x4 ADD PUSH1 0x40 MLOAD DUP1 SWAP2 SUB SWAP1 REVERT JUMPDEST DUP1 PUSH1 0x1 PUSH1 0x15 PUSH2 0x100 EXP DUP2 SLOAD DUP2 PUSH2 0xFFFF MUL NOT AND SWAP1 DUP4 PUSH2 0xFFFF AND MUL OR SWAP1 SSTORE POP POP JUMP JUMPDEST PUSH1 0x1 PUSH0 SWAP1 SLOAD SWAP1 PUSH2 0x100 EXP SWAP1 DIV PUSH20 0xFFFFFFFFFFFFFFFFFFFFFFFFFFFFFFFFFFFFFFFF AND PUSH20 0xFFFFFFFFFFFFFFFFFFFFFFFFFFFFFFFFFFFFFFFF AND PUSH4 0x8DA5CB5B PUSH1 0x40 MLOAD DUP2 PUSH4 0xFFFFFFFF AND PUSH1 0xE0 SHL DUP2 MSTORE PUSH1 0x4 ADD PUSH1 0x20 PUSH1 0x40 MLOAD DUP1 DUP4 SUB DUP2 DUP7 GAS STATICCALL ISZERO DUP1 ISZERO PUSH2 0xB1D JUMPI RETURNDATASIZE PUSH0 PUSH0 RETURNDATACOPY RETURNDATASIZE PUSH0 REVERT JUMPDEST POP POP POP POP PUSH1 0x40 MLOAD RETURNDATASIZE PUSH1 0x1F NOT PUSH1 0x1F DUP3 ADD AND DUP3 ADD DUP1 PUSH1 0x40 MSTORE POP DUP2 ADD SWAP1 PUSH2 0xB41 SWAP2 SWAP1 PUSH2 0x4A2F JUMP JUMPDEST PUSH20 0xFFFFFFFFFFFFFFFFFFFFFFFFFFFFFFFFFFFFFFFF AND CALLER PUSH20 0xFFFFFFFFFFFFFFFFFFFFFFFFFFFFFFFFFFFFFFFF AND EQ PUSH2 0xBAE JUMPI PUSH1 0x40 MLOAD PUSH32 0x8C379A000000000000000000000000000000000000000000000000000000000 DUP2 MSTORE PUSH1 0x4 ADD PUSH2 0xBA5 SWAP1 PUSH2 0x4AB4 JUMP JUMPDEST PUSH1 0x40 MLOAD DUP1 SWAP2 SUB SWAP1 REVERT JUMPDEST PUSH2 0xBB7 DUP2 PUSH2 0x16AF JUMP JUMPDEST POP JUMP JUMPDEST PUSH1 0x1 PUSH0 SWAP1 SLOAD SWAP1 PUSH2 0x100 EXP SWAP1 DIV PUSH20 0xFFFFFFFFFFFFFFFFFFFFFFFFFFFFFFFFFFFFFFFF AND PUSH20 0xFFFFFFFFFFFFFFFFFFFFFFFFFFFFFFFFFFFFFFFF AND PUSH4 0x8DA5CB5B PUSH1 0x40 MLOAD DUP2 PUSH4 0xFFFFFFFF AND PUSH1 0xE0 SHL DUP2 MSTORE PUSH1 0x4 ADD PUSH1 0x20 PUSH1 0x40 MLOAD DUP1 DUP4 SUB DUP2 DUP7 GAS STATICCALL ISZERO DUP1 ISZERO PUSH2 0xC24 JUMPI RETURNDATASIZE PUSH0 PUSH0 RETURNDATACOPY RETURNDATASIZE PUSH0 REVERT JUMPDEST POP POP POP POP PUSH1 0x40 MLOAD RETURNDATASIZE PUSH1 0x1F NOT PUSH1 0x1F DUP3 ADD AND DUP3 ADD DUP1 PUSH1 0x40 MSTORE POP DUP2 ADD SWAP1 PUSH2 0xC48 SWAP2 SWAP1 PUSH2 0x4A2F JUMP JUMPDEST PUSH20 0xFFFFFFFFFFFFFFFFFFFFFFFFFFFFFFFFFFFFFFFF AND CALLER PUSH20 0xFFFFFFFFFFFFFFFFFFFFFFFFFFFFFFFFFFFFFFFF AND EQ PUSH2 0xCB5 JUMPI PUSH1 0x40 MLOAD PUSH32 0x8C379A000000000000000000000000000000000000000000000000000000000 DUP2 MSTORE PUSH1 0x4 ADD PUSH2 0xCAC SWAP1 PUSH2 0x4AB4 JUMP JUMPDEST PUSH1 0x40 MLOAD DUP1 SWAP2 SUB SWAP1 REVERT JUMPDEST PUSH2 0x2710 DUP2 PUSH4 0xFFFFFFFF AND GT ISZERO PUSH2 0xCF7 JUMPI PUSH1 0x40 MLOAD PUSH32 0xDEAA01E600000000000000000000000000000000000000000000000000000000 DUP2 MSTORE PUSH1 0x4 ADD PUSH1 0x40 MLOAD DUP1 SWAP2 SUB SWAP1 REVERT JUMPDEST DUP1 PUSH1 0x1 PUSH1 0x17 PUSH2 0x100 EXP DUP2 SLOAD DUP2 PUSH4 0xFFFFFFFF MUL NOT AND SWAP1 DUP4 PUSH4 0xFFFFFFFF AND MUL OR SWAP1 SSTORE POP POP JUMP JUMPDEST PUSH2 0xD23 PUSH2 0x104F JUMP JUMPDEST PUSH1 0x1 PUSH1 0x14 SWAP1 SLOAD SWAP1 PUSH2 0x100 EXP SWAP1 DIV PUSH1 0xFF AND PUSH2 0xD72 JUMPI PUSH1 0x40 MLOAD PUSH32 0x8C379A000000000000000000000000000000000000000000000000000000000 DUP2 MSTORE PUSH1 0x4 ADD PUSH2 0xD69 SWAP1 PUSH2 0x4B1C JUMP JUMPDEST PUSH1 0x40 MLOAD DUP1 SWAP2 SUB SWAP1 REVERT JUMPDEST PUSH0 DUP3 SUB PUSH2 0xDAB JUMPI PUSH1 0x40 MLOAD PUSH32 0x1F2A200500000000000000000000000000000000000000000000000000000000 DUP2 MSTORE PUSH1 0x4 ADD PUSH1 0x40 MLOAD DUP1 SWAP2 SUB SWAP1 REVERT JUMPDEST PUSH0 PUSH20 0xFFFFFFFFFFFFFFFFFFFFFFFFFFFFFFFFFFFFFFFF AND DUP2 PUSH20 0xFFFFFFFFFFFFFFFFFFFFFFFFFFFFFFFFFFFFFFFF AND SUB PUSH2 0xE10 JUMPI PUSH1 0x40 MLOAD PUSH32 0x6BA9ECD800000000000000000000000000000000000000000000000000000000 DUP2 MSTORE PUSH1 0x4 ADD PUSH1 0x40 MLOAD DUP1 SWAP2 SUB SWAP1 REVERT JUMPDEST PUSH0 PUSH0 PUSH0 PUSH2 0xE1B PUSH2 0x109C JUMP JUMPDEST PUSH20 0xFFFFFFFFFFFFFFFFFFFFFFFFFFFFFFFFFFFFFFFF AND PUSH4 0x61668690 DUP8 PUSH1 0x40 MLOAD DUP3 PUSH4 0xFFFFFFFF AND PUSH1 0xE0 SHL DUP2 MSTORE PUSH1 0x4 ADD PUSH2 0xE53 SWAP2 SWAP1 PUSH2 0x4B49 JUMP JUMPDEST PUSH0 PUSH1 0x40 MLOAD DUP1 DUP4 SUB DUP2 DUP7 GAS STATICCALL ISZERO DUP1 ISZERO PUSH2 0xE6D JUMPI RETURNDATASIZE PUSH0 PUSH0 RETURNDATACOPY RETURNDATASIZE PUSH0 REVERT JUMPDEST POP POP POP POP PUSH1 0x40 MLOAD RETURNDATASIZE PUSH0 DUP3 RETURNDATACOPY RETURNDATASIZE PUSH1 0x1F NOT PUSH1 0x1F DUP3 ADD AND DUP3 ADD DUP1 PUSH1 0x40 MSTORE POP DUP2 ADD SWAP1 PUSH2 0xE95 SWAP2 SWAP1 PUSH2 0x4DC0 JUMP JUMPDEST SWAP3 POP SWAP3 POP SWAP3 POP PUSH0 PUSH2 0xEAA DUP8 DUP6 DUP6 DUP6 DUP11 DUP11 PUSH2 0x1861 JUMP JUMPDEST SWAP1 POP PUSH2 0xEB7 DUP8 DUP6 DUP5 PUSH2 0x1502 JUMP JUMPDEST PUSH2 0xEBF PUSH2 0x109C JUMP JUMPDEST PUSH20 0xFFFFFFFFFFFFFFFFFFFFFFFFFFFFFFFFFFFFFFFF AND PUSH4 0x1626542C DUP9 DUP4 PUSH1 0x40 MLOAD DUP4 PUSH4 0xFFFFFFFF AND PUSH1 0xE0 SHL DUP2 MSTORE PUSH1 0x4 ADD PUSH2 0xEF9 SWAP3 SWAP2 SWAP1 PUSH2 0x4E2C JUMP JUMPDEST PUSH0 PUSH1 0x40 MLOAD DUP1 DUP4 SUB DUP2 PUSH0 DUP8 DUP1 EXTCODESIZE ISZERO DUP1 ISZERO PUSH2 0xF10 JUMPI PUSH0 PUSH0 REVERT JUMPDEST POP GAS CALL ISZERO DUP1 ISZERO PUSH2 0xF22 JUMPI RETURNDATASIZE PUSH0 PUSH0 RETURNDATACOPY RETURNDATASIZE PUSH0 REVERT JUMPDEST POP POP POP POP POP POP POP POP PUSH2 0xF32 PUSH2 0x16A6 JUMP JUMPDEST POP POP POP JUMP JUMPDEST PUSH2 0xF3F PUSH2 0x104F JUMP JUMPDEST PUSH1 0x1 PUSH1 0x14 SWAP1 SLOAD SWAP1 PUSH2 0x100 EXP SWAP1 DIV PUSH1 0xFF AND PUSH2 0xF8E JUMPI PUSH1 0x40 MLOAD PUSH32 0x8C379A000000000000000000000000000000000000000000000000000000000 DUP2 MSTORE PUSH1 0x4 ADD PUSH2 0xF85 SWAP1 PUSH2 0x4B1C JUMP JUMPDEST PUSH1 0x40 MLOAD DUP1 SWAP2 SUB SWAP1 REVERT JUMPDEST PUSH0 PUSH0 PUSH2 0xF98 PUSH2 0x109C JUMP JUMPDEST PUSH20 0xFFFFFFFFFFFFFFFFFFFFFFFFFFFFFFFFFFFFFFFF AND PUSH4 0x3088F069 DUP5 PUSH1 0x40 MLOAD DUP3 PUSH4 0xFFFFFFFF AND PUSH1 0xE0 SHL DUP2 MSTORE PUSH1 0x4 ADD PUSH2 0xFD0 SWAP2 SWAP1 PUSH2 0x4B49 JUMP JUMPDEST PUSH0 PUSH1 0x40 MLOAD DUP1 DUP4 SUB DUP2 DUP7 GAS STATICCALL ISZERO DUP1 ISZERO PUSH2 0xFEA JUMPI RETURNDATASIZE PUSH0 PUSH0 RETURNDATACOPY RETURNDATASIZE PUSH0 REVERT JUMPDEST POP POP POP POP PUSH1 0x40 MLOAD RETURNDATASIZE PUSH0 DUP3 RETURNDATACOPY RETURNDATASIZE PUSH1 0x1F NOT PUSH1 0x1F DUP3 ADD AND DUP3 ADD DUP1 PUSH1 0x40 MSTORE POP DUP2 ADD SWAP1 PUSH2 0x1012 SWAP2 SWAP1 PUSH2 0x4EB5 JUMP JUMPDEST SWAP2 POP SWAP2 POP PUSH2 0x1020 DUP3 DUP3 PUSH2 0x1B61 JUMP JUMPDEST PUSH2 0x1029 CALLER PUSH2 0x14E7 JUMP JUMPDEST PUSH2 0x1034 DUP4 DUP4 DUP4 PUSH2 0x1502 JUMP JUMPDEST POP POP PUSH2 0x103E PUSH2 0x16A6 JUMP JUMPDEST POP JUMP JUMPDEST PUSH2 0x104B DUP3 DUP3 PUSH2 0x1E49 JUMP JUMPDEST POP POP JUMP JUMPDEST PUSH1 0x2 PUSH0 SLOAD SUB PUSH2 0x1093 JUMPI PUSH1 0x40 MLOAD PUSH32 0x8C379A000000000000000000000000000000000000000000000000000000000 DUP2 MSTORE PUSH1 0x4 ADD PUSH2 0x108A SWAP1 PUSH2 0x4F59 JUMP JUMPDEST PUSH1 0x40 MLOAD DUP1 SWAP2 SUB SWAP1 REVERT JUMPDEST PUSH1 0x2 PUSH0 DUP2 SWAP1 SSTORE POP JUMP JUMPDEST PUSH0 PUSH2 0x10DB PUSH1 0x40 MLOAD DUP1 PUSH1 0x40 ADD PUSH1 0x40 MSTORE DUP1 PUSH1 0xB DUP2 MSTORE PUSH1 0x20 ADD PUSH32 0x6574662D666163746F7279000000000000000000000000000000000000000000 DUP2 MSTORE POP PUSH2 0x683 JUMP JUMPDEST SWAP1 POP SWAP1 JUMP JUMPDEST PUSH0 PUSH0 PUSH0 PUSH2 0x10EC CALLVALUE PUSH2 0x1F20 JUMP JUMPDEST SWAP1 POP PUSH0 PUSH0 PUSH2 0x10F8 PUSH2 0x2015 JUMP JUMPDEST PUSH20 0xFFFFFFFFFFFFFFFFFFFFFFFFFFFFFFFFFFFFFFFF AND PUSH4 0xEE0D96C5 DUP11 DUP10 PUSH1 0x40 MLOAD DUP4 PUSH4 0xFFFFFFFF AND PUSH1 0xE0 SHL DUP2 MSTORE PUSH1 0x4 ADD PUSH2 0x1132 SWAP3 SWAP2 SWAP1 PUSH2 0x510D JUMP JUMPDEST PUSH0 PUSH1 0x40 MLOAD DUP1 DUP4 SUB DUP2 DUP7 GAS STATICCALL ISZERO DUP1 ISZERO PUSH2 0x114C JUMPI RETURNDATASIZE PUSH0 PUSH0 RETURNDATACOPY RETURNDATASIZE PUSH0 REVERT JUMPDEST POP POP POP POP PUSH1 0x40 MLOAD RETURNDATASIZE PUSH0 DUP3 RETURNDATACOPY RETURNDATASIZE PUSH1 0x1F NOT PUSH1 0x1F DUP3 ADD AND DUP3 ADD DUP1 PUSH1 0x40 MSTORE POP DUP2 ADD SWAP1 PUSH2 0x1174 SWAP2 SWAP1 PUSH2 0x52E2 JUMP JUMPDEST SWAP2 POP SWAP2 POP PUSH0 DUP9 PUSH20 0xFFFFFFFFFFFFFFFFFFFFFFFFFFFFFFFFFFFFFFFF AND PUSH4 0x18160DDD PUSH1 0x40 MLOAD DUP2 PUSH4 0xFFFFFFFF AND PUSH1 0xE0 SHL DUP2 MSTORE PUSH1 0x4 ADD PUSH1 0x20 PUSH1 0x40 MLOAD DUP1 DUP4 SUB DUP2 DUP7 GAS STATICCALL ISZERO DUP1 ISZERO PUSH2 0x11C2 JUMPI RETURNDATASIZE PUSH0 PUSH0 RETURNDATACOPY RETURNDATASIZE PUSH0 REVERT JUMPDEST POP POP POP POP PUSH1 0x40 MLOAD RETURNDATASIZE PUSH1 0x1F NOT PUSH1 0x1F DUP3 ADD AND DUP3 ADD DUP1 PUSH1 0x40 MSTORE POP DUP2 ADD SWAP1 PUSH2 0x11E6 SWAP2 SWAP1 PUSH2 0x533C JUMP JUMPDEST SWAP1 POP PUSH0 PUSH2 0x11F5 DUP12 DUP7 DUP7 DUP7 PUSH2 0x2059 JUMP JUMPDEST SWAP1 POP PUSH2 0x11FF PUSH2 0x2630 JUMP JUMPDEST PUSH20 0xFFFFFFFFFFFFFFFFFFFFFFFFFFFFFFFFFFFFFFFF AND PUSH4 0x1623306B DUP7 DUP4 DUP13 PUSH1 0x1 PUSH1 0x17 SWAP1 SLOAD SWAP1 PUSH2 0x100 EXP SWAP1 DIV PUSH4 0xFFFFFFFF AND PUSH1 0x40 MLOAD DUP6 PUSH4 0xFFFFFFFF AND PUSH1 0xE0 SHL DUP2 MSTORE PUSH1 0x4 ADD PUSH2 0x124E SWAP4 SWAP3 SWAP2 SWAP1 PUSH2 0x543C JUMP JUMPDEST PUSH0 PUSH1 0x40 MLOAD DUP1 DUP4 SUB DUP2 DUP6 DUP9 DUP1 EXTCODESIZE ISZERO DUP1 ISZERO PUSH2 0x1265 JUMPI PUSH0 PUSH0 REVERT JUMPDEST POP GAS CALL ISZERO DUP1 ISZERO PUSH2 0x1277 JUMPI RETURNDATASIZE PUSH0 PUSH0 RETURNDATACOPY RETURNDATASIZE PUSH0 REVERT JUMPDEST POP POP POP POP POP PUSH0 PUSH2 0x1285 PUSH2 0x2015 JUMP JUMPDEST PUSH20 0xFFFFFFFFFFFFFFFFFFFFFFFFFFFFFFFFFFFFFFFF AND PUSH4 0xEE0D96C5 DUP14 DUP13 PUSH1 0x40 MLOAD DUP4 PUSH4 0xFFFFFFFF AND PUSH1 0xE0 SHL DUP2 MSTORE PUSH1 0x4 ADD PUSH2 0x12BF SWAP3 SWAP2 SWAP1 PUSH2 0x510D JUMP JUMPDEST PUSH0 PUSH1 0x40 MLOAD DUP1 DUP4 SUB DUP2 DUP7 GAS STATICCALL ISZERO DUP1 ISZERO PUSH2 0x12D9 JUMPI RETURNDATASIZE PUSH0 PUSH0 RETURNDATACOPY RETURNDATASIZE PUSH0 REVERT JUMPDEST POP POP POP POP PUSH1 0x40 MLOAD RETURNDATASIZE PUSH0 DUP3 RETURNDATACOPY RETURNDATASIZE PUSH1 0x1F NOT PUSH1 0x1F DUP3 ADD AND DUP3 ADD DUP1 PUSH1 0x40 MSTORE POP DUP2 ADD SWAP1 PUSH2 0x1301 SWAP2 SWAP1 PUSH2 0x52E2 JUMP JUMPDEST SWAP2 POP POP DUP4 DUP2 GT PUSH2 0x133D JUMPI PUSH1 0x40 MLOAD PUSH32 0x55BE5C2C00000000000000000000000000000000000000000000000000000000 DUP2 MSTORE PUSH1 0x4 ADD PUSH1 0x40 MLOAD DUP1 SWAP2 SUB SWAP1 REVERT JUMPDEST DUP4 DUP2 PUSH2 0x1349 SWAP2 SWAP1 PUSH2 0x54A5 JUMP JUMPDEST SWAP7 POP PUSH0 DUP4 SUB PUSH2 0x1428 JUMPI PUSH0 PUSH2 0x135B PUSH2 0x2015 JUMP JUMPDEST PUSH20 0xFFFFFFFFFFFFFFFFFFFFFFFFFFFFFFFFFFFFFFFF AND PUSH4 0x812EFC8E DUP16 PUSH1 0x40 MLOAD DUP3 PUSH4 0xFFFFFFFF AND PUSH1 0xE0 SHL DUP2 MSTORE PUSH1 0x4 ADD PUSH2 0x1393 SWAP2 SWAP1 PUSH2 0x4B49 JUMP JUMPDEST PUSH1 0x20 PUSH1 0x40 MLOAD DUP1 DUP4 SUB DUP2 DUP7 GAS STATICCALL ISZERO DUP1 ISZERO PUSH2 0x13AE JUMPI RETURNDATASIZE PUSH0 PUSH0 RETURNDATACOPY RETURNDATASIZE PUSH0 REVERT JUMPDEST POP POP POP POP PUSH1 0x40 MLOAD RETURNDATASIZE PUSH1 0x1F NOT PUSH1 0x1F DUP3 ADD AND DUP3 ADD DUP1 PUSH1 0x40 MSTORE POP DUP2 ADD SWAP1 PUSH2 0x13D2 SWAP2 SWAP1 PUSH2 0x533C JUMP JUMPDEST SWAP1 POP PUSH0 DUP2 SUB PUSH2 0x140D JUMPI PUSH1 0x40 MLOAD PUSH32 0x5255248E00000000000000000000000000000000000000000000000000000000 DUP2 MSTORE PUSH1 0x4 ADD PUSH1 0x40 MLOAD DUP1 SWAP2 SUB SWAP1 REVERT JUMPDEST PUSH2 0x1420 DUP9 PUSH8 0xDE0B6B3A7640000 DUP4 PUSH2 0x2674 JUMP JUMPDEST SWAP9 POP POP PUSH2 0x1436 JUMP JUMPDEST PUSH2 0x1433 DUP8 DUP5 DUP7 PUSH2 0x2674 JUMP JUMPDEST SWAP8 POP JUMPDEST PUSH0 DUP9 SUB PUSH2 0x146F JUMPI PUSH1 0x40 MLOAD PUSH32 0xFCC182F400000000000000000000000000000000000000000000000000000000 DUP2 MSTORE PUSH1 0x4 ADD PUSH1 0x40 MLOAD DUP1 SWAP2 SUB SWAP1 REVERT JUMPDEST DUP11 PUSH20 0xFFFFFFFFFFFFFFFFFFFFFFFFFFFFFFFFFFFFFFFF AND PUSH4 0x40C10F19 DUP11 DUP11 PUSH1 0x40 MLOAD DUP4 PUSH4 0xFFFFFFFF AND PUSH1 0xE0 SHL DUP2 MSTORE PUSH1 0x4 ADD PUSH2 0x14AA SWAP3 SWAP2 SWAP1 PUSH2 0x54D8 JUMP JUMPDEST PUSH0 PUSH1 0x40 MLOAD DUP1 DUP4 SUB DUP2 PUSH0 DUP8 DUP1 EXTCODESIZE ISZERO DUP1 ISZERO PUSH2 0x14C1 JUMPI PUSH0 PUSH0 REVERT JUMPDEST POP GAS CALL ISZERO DUP1 ISZERO PUSH2 0x14D3 JUMPI RETURNDATASIZE PUSH0 PUSH0 RETURNDATACOPY RETURNDATASIZE PUSH0 REVERT JUMPDEST POP POP POP POP POP POP POP POP POP POP SWAP6 POP SWAP6 SWAP4 POP POP POP POP JUMP JUMPDEST PUSH0 SELFBALANCE SWAP1 POP PUSH0 DUP2 GT ISZERO PUSH2 0x14FE JUMPI PUSH2 0x14FD DUP3 DUP3 PUSH2 0x277E JUMP JUMPDEST JUMPDEST POP POP JUMP JUMPDEST PUSH0 DUP3 PUSH1 0x40 ADD MLOAD MLOAD SWAP1 POP PUSH0 DUP2 PUSH8 0xFFFFFFFFFFFFFFFF DUP2 GT ISZERO PUSH2 0x1526 JUMPI PUSH2 0x1525 PUSH2 0x45FF JUMP JUMPDEST JUMPDEST PUSH1 0x40 MLOAD SWAP1 DUP1 DUP3 MSTORE DUP1 PUSH1 0x20 MUL PUSH1 0x20 ADD DUP3 ADD PUSH1 0x40 MSTORE DUP1 ISZERO PUSH2 0x155F JUMPI DUP2 PUSH1 0x20 ADD JUMPDEST PUSH2 0x154C PUSH2 0x437B JUMP JUMPDEST DUP2 MSTORE PUSH1 0x20 ADD SWAP1 PUSH1 0x1 SWAP1 SUB SWAP1 DUP2 PUSH2 0x1544 JUMPI SWAP1 POP JUMPDEST POP SWAP1 POP PUSH0 PUSH0 SWAP1 POP JUMPDEST DUP3 DUP2 LT ISZERO PUSH2 0x1665 JUMPI PUSH0 DUP6 PUSH1 0x40 ADD MLOAD DUP3 DUP2 MLOAD DUP2 LT PUSH2 0x1587 JUMPI PUSH2 0x1586 PUSH2 0x54FF JUMP JUMPDEST JUMPDEST PUSH1 0x20 MUL PUSH1 0x20 ADD ADD MLOAD PUSH0 ADD MLOAD SWAP1 POP PUSH0 DUP2 PUSH20 0xFFFFFFFFFFFFFFFFFFFFFFFFFFFFFFFFFFFFFFFF AND PUSH4 0x70A08231 DUP8 PUSH1 0x40 MLOAD DUP3 PUSH4 0xFFFFFFFF AND PUSH1 0xE0 SHL DUP2 MSTORE PUSH1 0x4 ADD PUSH2 0x15CE SWAP2 SWAP1 PUSH2 0x4779 JUMP JUMPDEST PUSH1 0x20 PUSH1 0x40 MLOAD DUP1 DUP4 SUB DUP2 DUP7 GAS STATICCALL ISZERO DUP1 ISZERO PUSH2 0x15E9 JUMPI RETURNDATASIZE PUSH0 PUSH0 RETURNDATACOPY RETURNDATASIZE PUSH0 REVERT JUMPDEST POP POP POP POP PUSH1 0x40 MLOAD RETURNDATASIZE PUSH1 0x1F NOT PUSH1 0x1F DUP3 ADD AND DUP3 ADD DUP1 PUSH1 0x40 MSTORE POP DUP2 ADD SWAP1 PUSH2 0x160D SWAP2 SWAP1 PUSH2 0x533C JUMP JUMPDEST SWAP1 POP PUSH1 0x40 MLOAD DUP1 PUSH1 0x40 ADD PUSH1 0x40 MSTORE DUP1 DUP4 PUSH20 0xFFFFFFFFFFFFFFFFFFFFFFFFFFFFFFFFFFFFFFFF AND DUP2 MSTORE PUSH1 0x20 ADD DUP3 DUP2 MSTORE POP DUP5 DUP5 DUP2 MLOAD DUP2 LT PUSH2 0x164D JUMPI PUSH2 0x164C PUSH2 0x54FF JUMP JUMPDEST JUMPDEST PUSH1 0x20 MUL PUSH1 0x20 ADD ADD DUP2 SWAP1 MSTORE POP DUP3 PUSH1 0x1 ADD SWAP3 POP POP POP PUSH2 0x1567 JUMP JUMPDEST POP PUSH32 0x8D3365949F9A612EA706C5F1C4DDFE54D1F631D8557335914D89CD775A792CDA DUP6 DUP3 PUSH1 0x40 MLOAD PUSH2 0x1697 SWAP3 SWAP2 SWAP1 PUSH2 0x5610 JUMP JUMPDEST PUSH1 0x40 MLOAD DUP1 SWAP2 SUB SWAP1 LOG1 POP POP POP POP POP JUMP JUMPDEST PUSH1 0x1 PUSH0 DUP2 SWAP1 SSTORE POP JUMP JUMPDEST PUSH0 PUSH20 0xFFFFFFFFFFFFFFFFFFFFFFFFFFFFFFFFFFFFFFFF AND DUP2 PUSH20 0xFFFFFFFFFFFFFFFFFFFFFFFFFFFFFFFFFFFFFFFF AND SUB PUSH2 0x171D JUMPI PUSH1 0x40 MLOAD PUSH32 0x8C379A000000000000000000000000000000000000000000000000000000000 DUP2 MSTORE PUSH1 0x4 ADD PUSH2 0x1714 SWAP1 PUSH2 0x5688 JUMP JUMPDEST PUSH1 0x40 MLOAD DUP1 SWAP2 SUB SWAP1 REVERT JUMPDEST PUSH0 DUP2 PUSH20 0xFFFFFFFFFFFFFFFFFFFFFFFFFFFFFFFFFFFFFFFF AND EXTCODESIZE GT PUSH2 0x1776 JUMPI PUSH1 0x40 MLOAD PUSH32 0x8C379A000000000000000000000000000000000000000000000000000000000 DUP2 MSTORE PUSH1 0x4 ADD PUSH2 0x176D SWAP1 PUSH2 0x56F0 JUMP JUMPDEST PUSH1 0x40 MLOAD DUP1 SWAP2 SUB SWAP1 REVERT JUMPDEST DUP1 PUSH20 0xFFFFFFFFFFFFFFFFFFFFFFFFFFFFFFFFFFFFFFFF AND PUSH4 0x8DA5CB5B PUSH1 0x40 MLOAD DUP2 PUSH4 0xFFFFFFFF AND PUSH1 0xE0 SHL DUP2 MSTORE PUSH1 0x4 ADD PUSH1 0x20 PUSH1 0x40 MLOAD DUP1 DUP4 SUB DUP2 DUP7 GAS STATICCALL SWAP3 POP POP POP DUP1 ISZERO PUSH2 0x17DE JUMPI POP PUSH1 0x40 MLOAD RETURNDATASIZE PUSH1 0x1F NOT PUSH1 0x1F DUP3 ADD AND DUP3 ADD DUP1 PUSH1 0x40 MSTORE POP DUP2 ADD SWAP1 PUSH2 0x17DB SWAP2 SWAP1 PUSH2 0x4A2F JUMP JUMPDEST PUSH1 0x1 JUMPDEST PUSH2 0x181D JUMPI PUSH1 0x40 MLOAD PUSH32 0x8C379A000000000000000000000000000000000000000000000000000000000 DUP2 MSTORE PUSH1 0x4 ADD PUSH2 0x1814 SWAP1 PUSH2 0x577E JUMP JUMPDEST PUSH1 0x40 MLOAD DUP1 SWAP2 SUB SWAP1 REVERT JUMPDEST DUP2 PUSH1 0x1 PUSH0 PUSH2 0x100 EXP DUP2 SLOAD DUP2 PUSH20 0xFFFFFFFFFFFFFFFFFFFFFFFFFFFFFFFFFFFFFFFF MUL NOT AND SWAP1 DUP4 PUSH20 0xFFFFFFFFFFFFFFFFFFFFFFFFFFFFFFFFFFFFFFFF AND MUL OR SWAP1 SSTORE POP POP POP JUMP JUMPDEST PUSH0 PUSH0 DUP6 PUSH20 0xFFFFFFFFFFFFFFFFFFFFFFFFFFFFFFFFFFFFFFFF AND PUSH4 0x18160DDD PUSH1 0x40 MLOAD DUP2 PUSH4 0xFFFFFFFF AND PUSH1 0xE0 SHL DUP2 MSTORE PUSH1 0x4 ADD PUSH1 0x20 PUSH1 0x40 MLOAD DUP1 DUP4 SUB DUP2 DUP7 GAS STATICCALL ISZERO DUP1 ISZERO PUSH2 0x18AC JUMPI RETURNDATASIZE PUSH0 PUSH0 RETURNDATACOPY RETURNDATASIZE PUSH0 REVERT JUMPDEST POP POP POP POP PUSH1 0x40 MLOAD RETURNDATASIZE PUSH1 0x1F NOT PUSH1 0x1F DUP3 ADD AND DUP3 ADD DUP1 PUSH1 0x40 MSTORE POP DUP2 ADD SWAP1 PUSH2 0x18D0 SWAP2 SWAP1 PUSH2 0x533C JUMP JUMPDEST SWAP1 POP PUSH0 DUP2 SUB PUSH2 0x190B JUMPI PUSH1 0x40 MLOAD PUSH32 0x9FBBA64F00000000000000000000000000000000000000000000000000000000 DUP2 MSTORE PUSH1 0x4 ADD PUSH1 0x40 MLOAD DUP1 SWAP2 SUB SWAP1 REVERT JUMPDEST PUSH0 PUSH2 0x1914 PUSH2 0x2015 JUMP JUMPDEST PUSH20 0xFFFFFFFFFFFFFFFFFFFFFFFFFFFFFFFFFFFFFFFF AND PUSH4 0x812EFC8E DUP11 PUSH1 0x40 MLOAD DUP3 PUSH4 0xFFFFFFFF AND PUSH1 0xE0 SHL DUP2 MSTORE PUSH1 0x4 ADD PUSH2 0x194C SWAP2 SWAP1 PUSH2 0x4B49 JUMP JUMPDEST PUSH1 0x20 PUSH1 0x40 MLOAD DUP1 DUP4 SUB DUP2 DUP7 GAS STATICCALL ISZERO DUP1 ISZERO PUSH2 0x1967 JUMPI RETURNDATASIZE PUSH0 PUSH0 RETURNDATACOPY RETURNDATASIZE PUSH0 REVERT JUMPDEST POP POP POP POP PUSH1 0x40 MLOAD RETURNDATASIZE PUSH1 0x1F NOT PUSH1 0x1F DUP3 ADD AND DUP3 ADD DUP1 PUSH1 0x40 MSTORE POP DUP2 ADD SWAP1 PUSH2 0x198B SWAP2 SWAP1 PUSH2 0x533C JUMP JUMPDEST SWAP1 POP PUSH0 DUP2 SUB PUSH2 0x19C6 JUMPI PUSH1 0x40 MLOAD PUSH32 0x5255248E00000000000000000000000000000000000000000000000000000000 DUP2 MSTORE PUSH1 0x4 ADD PUSH1 0x40 MLOAD DUP1 SWAP2 SUB SWAP1 REVERT JUMPDEST PUSH0 PUSH2 0x19DA DUP7 DUP4 PUSH8 0xDE0B6B3A7640000 PUSH2 0x2674 JUMP JUMPDEST SWAP1 POP PUSH0 PUSH2 0x19E8 DUP11 DUP10 DUP5 PUSH2 0x2895 JUMP JUMPDEST SWAP1 POP PUSH0 SELFBALANCE SWAP1 POP PUSH2 0x19F6 PUSH2 0x2630 JUMP JUMPDEST PUSH20 0xFFFFFFFFFFFFFFFFFFFFFFFFFFFFFFFFFFFFFFFF AND PUSH4 0x3814BC6E DUP4 ADDRESS PUSH1 0x1 PUSH1 0x17 SWAP1 SLOAD SWAP1 PUSH2 0x100 EXP SWAP1 DIV PUSH4 0xFFFFFFFF AND PUSH1 0x1 PUSH1 0x40 MLOAD DUP6 PUSH4 0xFFFFFFFF AND PUSH1 0xE0 SHL DUP2 MSTORE PUSH1 0x4 ADD PUSH2 0x1A47 SWAP5 SWAP4 SWAP3 SWAP2 SWAP1 PUSH2 0x5880 JUMP JUMPDEST PUSH0 PUSH1 0x40 MLOAD DUP1 DUP4 SUB DUP2 PUSH0 DUP8 DUP1 EXTCODESIZE ISZERO DUP1 ISZERO PUSH2 0x1A5E JUMPI PUSH0 PUSH0 REVERT JUMPDEST POP GAS CALL ISZERO DUP1 ISZERO PUSH2 0x1A70 JUMPI RETURNDATASIZE PUSH0 PUSH0 RETURNDATACOPY RETURNDATASIZE PUSH0 REVERT JUMPDEST POP POP POP POP PUSH0 SELFBALANCE SWAP1 POP PUSH0 DUP3 DUP3 GT PUSH2 0x1A86 JUMPI PUSH0 PUSH2 0x1A93 JUMP JUMPDEST DUP3 DUP3 PUSH2 0x1A92 SWAP2 SWAP1 PUSH2 0x54A5 JUMP JUMPDEST JUMPDEST SWAP1 POP PUSH0 DUP2 SUB PUSH2 0x1ACE JUMPI PUSH1 0x40 MLOAD PUSH32 0x1F2A200500000000000000000000000000000000000000000000000000000000 DUP2 MSTORE PUSH1 0x4 ADD PUSH1 0x40 MLOAD DUP1 SWAP2 SUB SWAP1 REVERT JUMPDEST PUSH0 PUSH2 0x1AD8 DUP3 PUSH2 0x1F20 JUMP JUMPDEST SWAP1 POP PUSH2 0x1AE4 DUP11 DUP3 PUSH2 0x277E JUMP JUMPDEST DUP13 PUSH20 0xFFFFFFFFFFFFFFFFFFFFFFFFFFFFFFFFFFFFFFFF AND PUSH4 0x9DC29FAC CALLER DUP14 PUSH1 0x40 MLOAD DUP4 PUSH4 0xFFFFFFFF AND PUSH1 0xE0 SHL DUP2 MSTORE PUSH1 0x4 ADD PUSH2 0x1B1F SWAP3 SWAP2 SWAP1 PUSH2 0x54D8 JUMP JUMPDEST PUSH0 PUSH1 0x40 MLOAD DUP1 DUP4 SUB DUP2 PUSH0 DUP8 DUP1 EXTCODESIZE ISZERO DUP1 ISZERO PUSH2 0x1B36 JUMPI PUSH0 PUSH0 REVERT JUMPDEST POP GAS CALL ISZERO DUP1 ISZERO PUSH2 0x1B48 JUMPI RETURNDATASIZE PUSH0 PUSH0 RETURNDATACOPY RETURNDATASIZE PUSH0 REVERT JUMPDEST POP POP POP POP DUP1 SWAP9 POP POP POP POP POP POP POP POP POP SWAP7 SWAP6 POP POP POP POP POP POP JUMP JUMPDEST PUSH0 PUSH0 PUSH2 0x1B6D DUP5 DUP5 PUSH2 0x3801 JUMP JUMPDEST SWAP2 POP SWAP2 POP PUSH0 PUSH2 0x1B7A PUSH2 0x2630 JUMP JUMPDEST SWAP1 POP PUSH0 SELFBALANCE SWAP1 POP PUSH0 PUSH0 SWAP1 POP JUMPDEST DUP4 DUP2 LT ISZERO PUSH2 0x1C3D JUMPI DUP6 PUSH20 0xFFFFFFFFFFFFFFFFFFFFFFFFFFFFFFFFFFFFFFFF AND PUSH4 0x5C833BFD DUP7 DUP4 DUP2 MLOAD DUP2 LT PUSH2 0x1BBC JUMPI PUSH2 0x1BBB PUSH2 0x54FF JUMP JUMPDEST JUMPDEST PUSH1 0x20 MUL PUSH1 0x20 ADD ADD MLOAD PUSH0 ADD MLOAD DUP8 DUP5 DUP2 MLOAD DUP2 LT PUSH2 0x1BDA JUMPI PUSH2 0x1BD9 PUSH2 0x54FF JUMP JUMPDEST JUMPDEST PUSH1 0x20 MUL PUSH1 0x20 ADD ADD MLOAD PUSH1 0x20 ADD MLOAD DUP7 PUSH1 0x40 MLOAD DUP5 PUSH4 0xFFFFFFFF AND PUSH1 0xE0 SHL DUP2 MSTORE PUSH1 0x4 ADD PUSH2 0x1C05 SWAP4 SWAP3 SWAP2 SWAP1 PUSH2 0x58CA JUMP JUMPDEST PUSH0 PUSH1 0x40 MLOAD DUP1 DUP4 SUB DUP2 PUSH0 DUP8 DUP1 EXTCODESIZE ISZERO DUP1 ISZERO PUSH2 0x1C1C JUMPI PUSH0 PUSH0 REVERT JUMPDEST POP GAS CALL ISZERO DUP1 ISZERO PUSH2 0x1C2E JUMPI RETURNDATASIZE PUSH0 PUSH0 RETURNDATACOPY RETURNDATASIZE PUSH0 REVERT JUMPDEST POP POP POP POP DUP1 PUSH1 0x1 ADD SWAP1 POP PUSH2 0x1B85 JUMP JUMPDEST POP PUSH2 0x1C46 PUSH2 0x2630 JUMP JUMPDEST PUSH20 0xFFFFFFFFFFFFFFFFFFFFFFFFFFFFFFFFFFFFFFFF AND PUSH4 0x3814BC6E DUP6 ADDRESS PUSH1 0x1 PUSH1 0x17 SWAP1 SLOAD SWAP1 PUSH2 0x100 EXP SWAP1 DIV PUSH4 0xFFFFFFFF AND PUSH1 0x1 PUSH1 0x40 MLOAD DUP6 PUSH4 0xFFFFFFFF AND PUSH1 0xE0 SHL DUP2 MSTORE PUSH1 0x4 ADD PUSH2 0x1C97 SWAP5 SWAP4 SWAP3 SWAP2 SWAP1 PUSH2 0x5880 JUMP JUMPDEST PUSH0 PUSH1 0x40 MLOAD DUP1 DUP4 SUB DUP2 PUSH0 DUP8 DUP1 EXTCODESIZE ISZERO DUP1 ISZERO PUSH2 0x1CAE JUMPI PUSH0 PUSH0 REVERT JUMPDEST POP GAS CALL ISZERO DUP1 ISZERO PUSH2 0x1CC0 JUMPI RETURNDATASIZE PUSH0 PUSH0 RETURNDATACOPY RETURNDATASIZE PUSH0 REVERT JUMPDEST POP POP POP POP PUSH0 SELFBALANCE SWAP1 POP PUSH0 DUP3 DUP3 GT PUSH2 0x1CD6 JUMPI PUSH0 PUSH2 0x1CE3 JUMP JUMPDEST DUP3 DUP3 PUSH2 0x1CE2 SWAP2 SWAP1 PUSH2 0x54A5 JUMP JUMPDEST JUMPDEST SWAP1 POP PUSH0 DUP2 SUB PUSH2 0x1D1E JUMPI PUSH1 0x40 MLOAD PUSH32 0x1F2A200500000000000000000000000000000000000000000000000000000000 DUP2 MSTORE PUSH1 0x4 ADD PUSH1 0x40 MLOAD DUP1 SWAP2 SUB SWAP1 REVERT JUMPDEST PUSH0 PUSH0 PUSH2 0x1D28 PUSH2 0x2015 JUMP JUMPDEST PUSH20 0xFFFFFFFFFFFFFFFFFFFFFFFFFFFFFFFFFFFFFFFF AND PUSH4 0xEE0D96C5 DUP12 DUP12 PUSH1 0x40 MLOAD DUP4 PUSH4 0xFFFFFFFF AND PUSH1 0xE0 SHL DUP2 MSTORE PUSH1 0x4 ADD PUSH2 0x1D62 SWAP3 SWAP2 SWAP1 PUSH2 0x510D JUMP JUMPDEST PUSH0 PUSH1 0x40 MLOAD DUP1 DUP4 SUB DUP2 DUP7 GAS STATICCALL ISZERO DUP1 ISZERO PUSH2 0x1D7C JUMPI RETURNDATASIZE PUSH0 PUSH0 RETURNDATACOPY RETURNDATASIZE PUSH0 REVERT JUMPDEST POP POP POP POP PUSH1 0x40 MLOAD RETURNDATASIZE PUSH0 DUP3 RETURNDATACOPY RETURNDATASIZE PUSH1 0x1F NOT PUSH1 0x1F DUP3 ADD AND DUP3 ADD DUP1 PUSH1 0x40 MSTORE POP DUP2 ADD SWAP1 PUSH2 0x1DA4 SWAP2 SWAP1 PUSH2 0x52E2 JUMP JUMPDEST SWAP2 POP SWAP2 POP PUSH0 PUSH2 0x1DB5 DUP12 DUP6 DUP6 DUP6 PUSH2 0x2059 JUMP JUMPDEST SWAP1 POP PUSH2 0x1DBF PUSH2 0x2630 JUMP JUMPDEST PUSH20 0xFFFFFFFFFFFFFFFFFFFFFFFFFFFFFFFFFFFFFFFF AND PUSH4 0x1623306B DUP6 DUP4 DUP14 PUSH1 0x1 PUSH1 0x17 SWAP1 SLOAD SWAP1 PUSH2 0x100 EXP SWAP1 DIV PUSH4 0xFFFFFFFF AND PUSH1 0x40 MLOAD DUP6 PUSH4 0xFFFFFFFF AND PUSH1 0xE0 SHL DUP2 MSTORE PUSH1 0x4 ADD PUSH2 0x1E0E SWAP4 SWAP3 SWAP2 SWAP1 PUSH2 0x543C JUMP JUMPDEST PUSH0 PUSH1 0x40 MLOAD DUP1 DUP4 SUB DUP2 DUP6 DUP9 DUP1 EXTCODESIZE ISZERO DUP1 ISZERO PUSH2 0x1E25 JUMPI PUSH0 PUSH0 REVERT JUMPDEST POP GAS CALL ISZERO DUP1 ISZERO PUSH2 0x1E37 JUMPI RETURNDATASIZE PUSH0 PUSH0 RETURNDATACOPY RETURNDATASIZE PUSH0 REVERT JUMPDEST POP POP POP POP POP POP POP POP POP POP POP POP POP POP POP POP JUMP JUMPDEST PUSH0 PUSH20 0xFFFFFFFFFFFFFFFFFFFFFFFFFFFFFFFFFFFFFFFF AND DUP3 PUSH20 0xFFFFFFFFFFFFFFFFFFFFFFFFFFFFFFFFFFFFFFFF AND SUB PUSH2 0x1E8B JUMPI PUSH2 0x1E86 DUP2 SELFBALANCE PUSH2 0x277E JUMP JUMPDEST PUSH2 0x1F1C JUMP JUMPDEST PUSH0 DUP3 PUSH20 0xFFFFFFFFFFFFFFFFFFFFFFFFFFFFFFFFFFFFFFFF AND PUSH4 0x70A08231 ADDRESS PUSH1 0x40 MLOAD DUP3 PUSH4 0xFFFFFFFF AND PUSH1 0xE0 SHL DUP2 MSTORE PUSH1 0x4 ADD PUSH2 0x1EC5 SWAP2 SWAP1 PUSH2 0x4779 JUMP JUMPDEST PUSH1 0x20 PUSH1 0x40 MLOAD DUP1 DUP4 SUB DUP2 DUP7 GAS STATICCALL ISZERO DUP1 ISZERO PUSH2 0x1EE0 JUMPI RETURNDATASIZE PUSH0 PUSH0 RETURNDATACOPY RETURNDATASIZE PUSH0 REVERT JUMPDEST POP POP POP POP PUSH1 0x40 MLOAD RETURNDATASIZE PUSH1 0x1F NOT PUSH1 0x1F DUP3 ADD AND DUP3 ADD DUP1 PUSH1 0x40 MSTORE POP DUP2 ADD SWAP1 PUSH2 0x1F04 SWAP2 SWAP1 PUSH2 0x533C JUMP JUMPDEST SWAP1 POP PUSH0 DUP2 GT ISZERO PUSH2 0x1F1A JUMPI PUSH2 0x1F19 DUP4 DUP4 DUP4 PUSH2 0x3C24 JUMP JUMPDEST JUMPDEST POP JUMPDEST POP POP JUMP JUMPDEST PUSH0 PUSH0 PUSH2 0x1F60 PUSH1 0x40 MLOAD DUP1 PUSH1 0x40 ADD PUSH1 0x40 MSTORE DUP1 PUSH1 0x5 DUP2 MSTORE PUSH1 0x20 ADD PUSH32 0x7661756C74000000000000000000000000000000000000000000000000000000 DUP2 MSTORE POP PUSH2 0x683 JUMP JUMPDEST SWAP1 POP PUSH0 PUSH1 0x1 PUSH1 0x15 SWAP1 SLOAD SWAP1 PUSH2 0x100 EXP SWAP1 DIV PUSH2 0xFFFF AND SWAP1 POP PUSH0 PUSH20 0xFFFFFFFFFFFFFFFFFFFFFFFFFFFFFFFFFFFFFFFF AND DUP3 PUSH20 0xFFFFFFFFFFFFFFFFFFFFFFFFFFFFFFFFFFFFFFFF AND EQ DUP1 PUSH2 0x1FB3 JUMPI POP PUSH0 DUP2 PUSH2 0xFFFF AND EQ JUMPDEST ISZERO PUSH2 0x1FC2 JUMPI DUP4 SWAP3 POP POP POP PUSH2 0x2010 JUMP JUMPDEST PUSH0 PUSH2 0x2710 DUP3 PUSH2 0xFFFF AND DUP7 PUSH2 0x1FD6 SWAP2 SWAP1 PUSH2 0x58FF JUMP JUMPDEST PUSH2 0x1FE0 SWAP2 SWAP1 PUSH2 0x596D JUMP JUMPDEST SWAP1 POP PUSH0 DUP2 EQ PUSH2 0x2009 JUMPI PUSH2 0x1FF3 DUP4 DUP3 PUSH2 0x277E JUMP JUMPDEST DUP1 DUP6 PUSH2 0x1FFF SWAP2 SWAP1 PUSH2 0x54A5 JUMP JUMPDEST SWAP4 POP POP POP POP PUSH2 0x2010 JUMP JUMPDEST DUP5 SWAP4 POP POP POP POP JUMPDEST SWAP2 SWAP1 POP JUMP JUMPDEST PUSH0 PUSH2 0x2054 PUSH1 0x40 MLOAD DUP1 PUSH1 0x40 ADD PUSH1 0x40 MSTORE DUP1 PUSH1 0xA DUP2 MSTORE PUSH1 0x20 ADD PUSH32 0x6574662D6F7261636C6500000000000000000000000000000000000000000000 DUP2 MSTORE POP PUSH2 0x683 JUMP JUMPDEST SWAP1 POP SWAP1 JUMP JUMPDEST PUSH1 0x60 PUSH0 DUP6 PUSH1 0x40 ADD MLOAD MLOAD SWAP1 POP PUSH0 DUP6 DUP5 PUSH2 0x2071 SWAP2 SWAP1 PUSH2 0x599D JUMP JUMPDEST SWAP1 POP PUSH0 DUP3 PUSH8 0xFFFFFFFFFFFFFFFF DUP2 GT ISZERO PUSH2 0x208E JUMPI PUSH2 0x208D PUSH2 0x45FF JUMP JUMPDEST JUMPDEST PUSH1 0x40 MLOAD SWAP1 DUP1 DUP3 MSTORE DUP1 PUSH1 0x20 MUL PUSH1 0x20 ADD DUP3 ADD PUSH1 0x40 MSTORE DUP1 ISZERO PUSH2 0x20BC JUMPI DUP2 PUSH1 0x20 ADD PUSH1 0x20 DUP3 MUL DUP1 CALLDATASIZE DUP4 CALLDATACOPY DUP1 DUP3 ADD SWAP2 POP POP SWAP1 POP JUMPDEST POP SWAP1 POP PUSH0 DUP4 PUSH8 0xFFFFFFFFFFFFFFFF DUP2 GT ISZERO PUSH2 0x20DA JUMPI PUSH2 0x20D9 PUSH2 0x45FF JUMP JUMPDEST JUMPDEST PUSH1 0x40 MLOAD SWAP1 DUP1 DUP3 MSTORE DUP1 PUSH1 0x20 MUL PUSH1 0x20 ADD DUP3 ADD PUSH1 0x40 MSTORE DUP1 ISZERO PUSH2 0x2108 JUMPI DUP2 PUSH1 0x20 ADD PUSH1 0x20 DUP3 MUL DUP1 CALLDATASIZE DUP4 CALLDATACOPY DUP1 DUP3 ADD SWAP2 POP POP SWAP1 POP JUMPDEST POP SWAP1 POP PUSH0 PUSH0 PUSH0 SWAP1 POP JUMPDEST DUP6 DUP2 LT ISZERO PUSH2 0x222F JUMPI PUSH0 PUSH2 0x2710 DUP7 DUP14 PUSH1 0x40 ADD MLOAD DUP5 DUP2 MLOAD DUP2 LT PUSH2 0x2135 JUMPI PUSH2 0x2134 PUSH2 0x54FF JUMP JUMPDEST JUMPDEST PUSH1 0x20 MUL PUSH1 0x20 ADD ADD MLOAD PUSH1 0x20 ADD MLOAD PUSH2 0xFFFF AND PUSH2 0x214F SWAP2 SWAP1 PUSH2 0x58FF JUMP JUMPDEST PUSH2 0x2159 SWAP2 SWAP1 PUSH2 0x596D JUMP JUMPDEST SWAP1 POP PUSH0 DUP11 DUP4 DUP2 MLOAD DUP2 LT PUSH2 0x216F JUMPI PUSH2 0x216E PUSH2 0x54FF JUMP JUMPDEST JUMPDEST PUSH1 0x20 MUL PUSH1 0x20 ADD ADD MLOAD PUSH1 0xA0 ADD MLOAD SWAP1 POP DUP1 DUP3 GT ISZERO PUSH2 0x2222 JUMPI DUP11 DUP4 DUP2 MLOAD DUP2 LT PUSH2 0x2198 JUMPI PUSH2 0x2197 PUSH2 0x54FF JUMP JUMPDEST JUMPDEST PUSH1 0x20 MUL PUSH1 0x20 ADD ADD MLOAD PUSH0 ADD MLOAD DUP7 DUP6 DUP2 MLOAD DUP2 LT PUSH2 0x21B6 JUMPI PUSH2 0x21B5 PUSH2 0x54FF JUMP JUMPDEST JUMPDEST PUSH1 0x20 MUL PUSH1 0x20 ADD ADD SWAP1 PUSH20 0xFFFFFFFFFFFFFFFFFFFFFFFFFFFFFFFFFFFFFFFF AND SWAP1 DUP2 PUSH20 0xFFFFFFFFFFFFFFFFFFFFFFFFFFFFFFFFFFFFFFFF AND DUP2 MSTORE POP POP DUP1 DUP3 PUSH2 0x21FC SWAP2 SWAP1 PUSH2 0x54A5 JUMP JUMPDEST DUP6 DUP6 DUP2 MLOAD DUP2 LT PUSH2 0x220F JUMPI PUSH2 0x220E PUSH2 0x54FF JUMP JUMPDEST JUMPDEST PUSH1 0x20 MUL PUSH1 0x20 ADD ADD DUP2 DUP2 MSTORE POP POP DUP4 PUSH1 0x1 ADD SWAP4 POP JUMPDEST DUP3 PUSH1 0x1 ADD SWAP3 POP POP POP PUSH2 0x2111 JUMP JUMPDEST POP PUSH0 DUP2 SUB PUSH2 0x2439 JUMPI PUSH0 DUP6 PUSH8 0xFFFFFFFFFFFFFFFF DUP2 GT ISZERO PUSH2 0x2252 JUMPI PUSH2 0x2251 PUSH2 0x45FF JUMP JUMPDEST JUMPDEST PUSH1 0x40 MLOAD SWAP1 DUP1 DUP3 MSTORE DUP1 PUSH1 0x20 MUL PUSH1 0x20 ADD DUP3 ADD PUSH1 0x40 MSTORE DUP1 ISZERO PUSH2 0x2280 JUMPI DUP2 PUSH1 0x20 ADD PUSH1 0x20 DUP3 MUL DUP1 CALLDATASIZE DUP4 CALLDATACOPY DUP1 DUP3 ADD SWAP2 POP POP SWAP1 POP JUMPDEST POP SWAP1 POP PUSH0 PUSH0 SWAP1 POP JUMPDEST DUP7 DUP2 LT ISZERO PUSH2 0x22E1 JUMPI DUP12 PUSH1 0x40 ADD MLOAD DUP2 DUP2 MLOAD DUP2 LT PUSH2 0x22A7 JUMPI PUSH2 0x22A6 PUSH2 0x54FF JUMP JUMPDEST JUMPDEST PUSH1 0x20 MUL PUSH1 0x20 ADD ADD MLOAD PUSH1 0x20 ADD MLOAD PUSH2 0xFFFF AND DUP3 DUP3 DUP2 MLOAD DUP2 LT PUSH2 0x22CA JUMPI PUSH2 0x22C9 PUSH2 0x54FF JUMP JUMPDEST JUMPDEST PUSH1 0x20 MUL PUSH1 0x20 ADD ADD DUP2 DUP2 MSTORE POP POP DUP1 PUSH1 0x1 ADD SWAP1 POP PUSH2 0x2288 JUMP JUMPDEST POP PUSH0 PUSH2 0x2338 DUP3 PUSH2 0x2710 PUSH0 PUSH8 0xFFFFFFFFFFFFFFFF DUP2 GT ISZERO PUSH2 0x2304 JUMPI PUSH2 0x2303 PUSH2 0x45FF JUMP JUMPDEST JUMPDEST PUSH1 0x40 MLOAD SWAP1 DUP1 DUP3 MSTORE DUP1 PUSH1 0x20 MUL PUSH1 0x20 ADD DUP3 ADD PUSH1 0x40 MSTORE DUP1 ISZERO PUSH2 0x2332 JUMPI DUP2 PUSH1 0x20 ADD PUSH1 0x20 DUP3 MUL DUP1 CALLDATASIZE DUP4 CALLDATACOPY DUP1 DUP3 ADD SWAP2 POP POP SWAP1 POP JUMPDEST POP PUSH2 0x3D73 JUMP JUMPDEST SWAP1 POP DUP7 PUSH8 0xFFFFFFFFFFFFFFFF DUP2 GT ISZERO PUSH2 0x2354 JUMPI PUSH2 0x2353 PUSH2 0x45FF JUMP JUMPDEST JUMPDEST PUSH1 0x40 MLOAD SWAP1 DUP1 DUP3 MSTORE DUP1 PUSH1 0x20 MUL PUSH1 0x20 ADD DUP3 ADD PUSH1 0x40 MSTORE DUP1 ISZERO PUSH2 0x238D JUMPI DUP2 PUSH1 0x20 ADD JUMPDEST PUSH2 0x237A PUSH2 0x43A9 JUMP JUMPDEST DUP2 MSTORE PUSH1 0x20 ADD SWAP1 PUSH1 0x1 SWAP1 SUB SWAP1 DUP2 PUSH2 0x2372 JUMPI SWAP1 POP JUMPDEST POP SWAP8 POP PUSH0 PUSH0 SWAP1 POP JUMPDEST DUP8 DUP2 LT ISZERO PUSH2 0x242C JUMPI PUSH1 0x40 MLOAD DUP1 PUSH1 0x40 ADD PUSH1 0x40 MSTORE DUP1 DUP13 DUP4 DUP2 MLOAD DUP2 LT PUSH2 0x23BB JUMPI PUSH2 0x23BA PUSH2 0x54FF JUMP JUMPDEST JUMPDEST PUSH1 0x20 MUL PUSH1 0x20 ADD ADD MLOAD PUSH0 ADD MLOAD PUSH20 0xFFFFFFFFFFFFFFFFFFFFFFFFFFFFFFFFFFFFFFFF AND DUP2 MSTORE PUSH1 0x20 ADD DUP4 DUP4 DUP2 MLOAD DUP2 LT PUSH2 0x23F4 JUMPI PUSH2 0x23F3 PUSH2 0x54FF JUMP JUMPDEST JUMPDEST PUSH1 0x20 MUL PUSH1 0x20 ADD ADD MLOAD PUSH2 0xFFFF AND DUP2 MSTORE POP DUP10 DUP3 DUP2 MLOAD DUP2 LT PUSH2 0x2416 JUMPI PUSH2 0x2415 PUSH2 0x54FF JUMP JUMPDEST JUMPDEST PUSH1 0x20 MUL PUSH1 0x20 ADD ADD DUP2 SWAP1 MSTORE POP DUP1 PUSH1 0x1 ADD SWAP1 POP PUSH2 0x2395 JUMP JUMPDEST POP POP POP POP POP POP POP POP PUSH2 0x2628 JUMP JUMPDEST PUSH0 DUP2 PUSH8 0xFFFFFFFFFFFFFFFF DUP2 GT ISZERO PUSH2 0x2454 JUMPI PUSH2 0x2453 PUSH2 0x45FF JUMP JUMPDEST JUMPDEST PUSH1 0x40 MLOAD SWAP1 DUP1 DUP3 MSTORE DUP1 PUSH1 0x20 MUL PUSH1 0x20 ADD DUP3 ADD PUSH1 0x40 MSTORE DUP1 ISZERO PUSH2 0x2482 JUMPI DUP2 PUSH1 0x20 ADD PUSH1 0x20 DUP3 MUL DUP1 CALLDATASIZE DUP4 CALLDATACOPY DUP1 DUP3 ADD SWAP2 POP POP SWAP1 POP JUMPDEST POP SWAP1 POP PUSH0 PUSH0 SWAP1 POP JUMPDEST DUP3 DUP2 LT ISZERO PUSH2 0x24D7 JUMPI DUP4 DUP2 DUP2 MLOAD DUP2 LT PUSH2 0x24A5 JUMPI PUSH2 0x24A4 PUSH2 0x54FF JUMP JUMPDEST JUMPDEST PUSH1 0x20 MUL PUSH1 0x20 ADD ADD MLOAD DUP3 DUP3 DUP2 MLOAD DUP2 LT PUSH2 0x24C0 JUMPI PUSH2 0x24BF PUSH2 0x54FF JUMP JUMPDEST JUMPDEST PUSH1 0x20 MUL PUSH1 0x20 ADD ADD DUP2 DUP2 MSTORE POP POP DUP1 PUSH1 0x1 ADD SWAP1 POP PUSH2 0x248A JUMP JUMPDEST POP PUSH0 PUSH2 0x252E DUP3 PUSH2 0x2710 PUSH0 PUSH8 0xFFFFFFFFFFFFFFFF DUP2 GT ISZERO PUSH2 0x24FA JUMPI PUSH2 0x24F9 PUSH2 0x45FF JUMP JUMPDEST JUMPDEST PUSH1 0x40 MLOAD SWAP1 DUP1 DUP3 MSTORE DUP1 PUSH1 0x20 MUL PUSH1 0x20 ADD DUP3 ADD PUSH1 0x40 MSTORE DUP1 ISZERO PUSH2 0x2528 JUMPI DUP2 PUSH1 0x20 ADD PUSH1 0x20 DUP3 MUL DUP1 CALLDATASIZE DUP4 CALLDATACOPY DUP1 DUP3 ADD SWAP2 POP POP SWAP1 POP JUMPDEST POP PUSH2 0x3D73 JUMP JUMPDEST SWAP1 POP DUP3 PUSH8 0xFFFFFFFFFFFFFFFF DUP2 GT ISZERO PUSH2 0x254A JUMPI PUSH2 0x2549 PUSH2 0x45FF JUMP JUMPDEST JUMPDEST PUSH1 0x40 MLOAD SWAP1 DUP1 DUP3 MSTORE DUP1 PUSH1 0x20 MUL PUSH1 0x20 ADD DUP3 ADD PUSH1 0x40 MSTORE DUP1 ISZERO PUSH2 0x2583 JUMPI DUP2 PUSH1 0x20 ADD JUMPDEST PUSH2 0x2570 PUSH2 0x43A9 JUMP JUMPDEST DUP2 MSTORE PUSH1 0x20 ADD SWAP1 PUSH1 0x1 SWAP1 SUB SWAP1 DUP2 PUSH2 0x2568 JUMPI SWAP1 POP JUMPDEST POP SWAP8 POP PUSH0 PUSH0 SWAP1 POP JUMPDEST DUP4 DUP2 LT ISZERO PUSH2 0x261F JUMPI PUSH1 0x40 MLOAD DUP1 PUSH1 0x40 ADD PUSH1 0x40 MSTORE DUP1 DUP8 DUP4 DUP2 MLOAD DUP2 LT PUSH2 0x25B1 JUMPI PUSH2 0x25B0 PUSH2 0x54FF JUMP JUMPDEST JUMPDEST PUSH1 0x20 MUL PUSH1 0x20 ADD ADD MLOAD PUSH20 0xFFFFFFFFFFFFFFFFFFFFFFFFFFFFFFFFFFFFFFFF AND DUP2 MSTORE PUSH1 0x20 ADD DUP4 DUP4 DUP2 MLOAD DUP2 LT PUSH2 0x25E7 JUMPI PUSH2 0x25E6 PUSH2 0x54FF JUMP JUMPDEST JUMPDEST PUSH1 0x20 MUL PUSH1 0x20 ADD ADD MLOAD PUSH2 0xFFFF AND DUP2 MSTORE POP DUP10 DUP3 DUP2 MLOAD DUP2 LT PUSH2 0x2609 JUMPI PUSH2 0x2608 PUSH2 0x54FF JUMP JUMPDEST JUMPDEST PUSH1 0x20 MUL PUSH1 0x20 ADD ADD DUP2 SWAP1 MSTORE POP DUP1 PUSH1 0x1 ADD SWAP1 POP PUSH2 0x258B JUMP JUMPDEST POP POP POP POP POP POP POP POP JUMPDEST SWAP5 SWAP4 POP POP POP POP JUMP JUMPDEST PUSH0 PUSH2 0x266F PUSH1 0x40 MLOAD DUP1 PUSH1 0x40 ADD PUSH1 0x40 MSTORE DUP1 PUSH1 0x11 DUP2 MSTORE PUSH1 0x20 ADD PUSH32 0x6D756C74692D737761702D726F75746572000000000000000000000000000000 DUP2 MSTORE POP PUSH2 0x683 JUMP JUMPDEST SWAP1 POP SWAP1 JUMP JUMPDEST PUSH0 PUSH0 PUSH0 PUSH0 NOT DUP6 DUP8 MULMOD DUP6 DUP8 MUL SWAP3 POP DUP3 DUP2 LT DUP4 DUP3 SUB SUB SWAP2 POP POP PUSH0 DUP2 SUB PUSH2 0x26AC JUMPI DUP4 DUP3 DUP2 PUSH2 0x26A2 JUMPI PUSH2 0x26A1 PUSH2 0x5940 JUMP JUMPDEST JUMPDEST DIV SWAP3 POP POP POP PUSH2 0x2777 JUMP JUMPDEST DUP1 DUP5 GT PUSH2 0x26EE JUMPI PUSH1 0x40 MLOAD PUSH32 0x8C379A000000000000000000000000000000000000000000000000000000000 DUP2 MSTORE PUSH1 0x4 ADD PUSH2 0x26E5 SWAP1 PUSH2 0x5A1A JUMP JUMPDEST PUSH1 0x40 MLOAD DUP1 SWAP2 SUB SWAP1 REVERT JUMPDEST PUSH0 DUP5 DUP7 DUP9 MULMOD SWAP1 POP DUP3 DUP2 GT DUP3 SUB SWAP2 POP DUP1 DUP4 SUB SWAP3 POP PUSH0 PUSH1 0x1 DUP7 NOT ADD DUP7 AND SWAP1 POP DUP1 DUP7 DIV SWAP6 POP DUP1 DUP5 DIV SWAP4 POP PUSH1 0x1 DUP2 DUP3 PUSH0 SUB DIV ADD SWAP1 POP DUP1 DUP4 MUL DUP5 OR SWAP4 POP PUSH0 PUSH1 0x2 DUP8 PUSH1 0x3 MUL XOR SWAP1 POP DUP1 DUP8 MUL PUSH1 0x2 SUB DUP2 MUL SWAP1 POP DUP1 DUP8 MUL PUSH1 0x2 SUB DUP2 MUL SWAP1 POP DUP1 DUP8 MUL PUSH1 0x2 SUB DUP2 MUL SWAP1 POP DUP1 DUP8 MUL PUSH1 0x2 SUB DUP2 MUL SWAP1 POP DUP1 DUP8 MUL PUSH1 0x2 SUB DUP2 MUL SWAP1 POP DUP1 DUP8 MUL PUSH1 0x2 SUB DUP2 MUL SWAP1 POP DUP1 DUP6 MUL SWAP6 POP POP POP POP POP POP JUMPDEST SWAP4 SWAP3 POP POP POP JUMP JUMPDEST PUSH0 DUP2 SUB PUSH2 0x27B7 JUMPI PUSH1 0x40 MLOAD PUSH32 0x1F2A200500000000000000000000000000000000000000000000000000000000 DUP2 MSTORE PUSH1 0x4 ADD PUSH1 0x40 MLOAD DUP1 SWAP2 SUB SWAP1 REVERT JUMPDEST DUP1 SELFBALANCE LT ISZERO PUSH2 0x27F1 JUMPI PUSH1 0x40 MLOAD PUSH32 0x6A12F10400000000000000000000000000000000000000000000000000000000 DUP2 MSTORE PUSH1 0x4 ADD PUSH1 0x40 MLOAD DUP1 SWAP2 SUB SWAP1 REVERT JUMPDEST PUSH0 DUP3 PUSH20 0xFFFFFFFFFFFFFFFFFFFFFFFFFFFFFFFFFFFFFFFF AND DUP3 PUSH1 0x40 MLOAD PUSH2 0x2816 SWAP1 PUSH2 0x5A65 JUMP JUMPDEST PUSH0 PUSH1 0x40 MLOAD DUP1 DUP4 SUB DUP2 DUP6 DUP8 GAS CALL SWAP3 POP POP POP RETURNDATASIZE DUP1 PUSH0 DUP2 EQ PUSH2 0x2850 JUMPI PUSH1 0x40 MLOAD SWAP2 POP PUSH1 0x1F NOT PUSH1 0x3F RETURNDATASIZE ADD AND DUP3 ADD PUSH1 0x40 MSTORE RETURNDATASIZE DUP3 MSTORE RETURNDATASIZE PUSH0 PUSH1 0x20 DUP5 ADD RETURNDATACOPY PUSH2 0x2855 JUMP JUMPDEST PUSH1 0x60 SWAP2 POP JUMPDEST POP POP SWAP1 POP DUP1 PUSH2 0x2890 JUMPI PUSH1 0x40 MLOAD PUSH32 0xCEF4EED700000000000000000000000000000000000000000000000000000000 DUP2 MSTORE PUSH1 0x4 ADD PUSH1 0x40 MLOAD DUP1 SWAP2 SUB SWAP1 REVERT JUMPDEST POP POP POP JUMP JUMPDEST PUSH1 0x60 PUSH0 PUSH0 PUSH2 0x28A1 PUSH2 0x2015 JUMP JUMPDEST PUSH20 0xFFFFFFFFFFFFFFFFFFFFFFFFFFFFFFFFFFFFFFFF AND PUSH4 0xEE0D96C5 DUP8 DUP8 PUSH1 0x40 MLOAD DUP4 PUSH4 0xFFFFFFFF AND PUSH1 0xE0 SHL DUP2 MSTORE PUSH1 0x4 ADD PUSH2 0x28DB SWAP3 SWAP2 SWAP1 PUSH2 0x510D JUMP JUMPDEST PUSH0 PUSH1 0x40 MLOAD DUP1 DUP4 SUB DUP2 DUP7 GAS STATICCALL ISZERO DUP1 ISZERO PUSH2 0x28F5 JUMPI RETURNDATASIZE PUSH0 PUSH0 RETURNDATACOPY RETURNDATASIZE PUSH0 REVERT JUMPDEST POP POP POP POP PUSH1 0x40 MLOAD RETURNDATASIZE PUSH0 DUP3 RETURNDATACOPY RETURNDATASIZE PUSH1 0x1F NOT PUSH1 0x1F DUP3 ADD AND DUP3 ADD DUP1 PUSH1 0x40 MSTORE POP DUP2 ADD SWAP1 PUSH2 0x291D SWAP2 SWAP1 PUSH2 0x52E2 JUMP JUMPDEST SWAP2 POP SWAP2 POP PUSH0 DUP7 PUSH1 0x40 ADD MLOAD MLOAD SWAP1 POP PUSH2 0x2932 PUSH2 0x43DB JUMP JUMPDEST DUP2 PUSH8 0xFFFFFFFFFFFFFFFF DUP2 GT ISZERO PUSH2 0x294C JUMPI PUSH2 0x294B PUSH2 0x45FF JUMP JUMPDEST JUMPDEST PUSH1 0x40 MLOAD SWAP1 DUP1 DUP3 MSTORE DUP1 PUSH1 0x20 MUL PUSH1 0x20 ADD DUP3 ADD PUSH1 0x40 MSTORE DUP1 ISZERO PUSH2 0x2985 JUMPI DUP2 PUSH1 0x20 ADD JUMPDEST PUSH2 0x2972 PUSH2 0x43FA JUMP JUMPDEST DUP2 MSTORE PUSH1 0x20 ADD SWAP1 PUSH1 0x1 SWAP1 SUB SWAP1 DUP2 PUSH2 0x296A JUMPI SWAP1 POP JUMPDEST POP DUP2 PUSH0 ADD DUP2 SWAP1 MSTORE POP PUSH0 PUSH0 SWAP1 POP JUMPDEST DUP3 DUP2 LT DUP1 ISZERO PUSH2 0x29A4 JUMPI POP DUP7 DUP3 PUSH1 0x40 ADD MLOAD LT JUMPDEST ISZERO PUSH2 0x2CCF JUMPI PUSH0 DUP6 DUP3 DUP2 MLOAD DUP2 LT PUSH2 0x29BD JUMPI PUSH2 0x29BC PUSH2 0x54FF JUMP JUMPDEST JUMPDEST PUSH1 0x20 MUL PUSH1 0x20 ADD ADD MLOAD PUSH1 0x80 ADD MLOAD SWAP1 POP PUSH0 DUP2 EQ PUSH2 0x2CC3 JUMPI PUSH0 PUSH2 0x2710 DUP7 DUP13 PUSH1 0x40 ADD MLOAD DUP6 DUP2 MLOAD DUP2 LT PUSH2 0x29EE JUMPI PUSH2 0x29ED PUSH2 0x54FF JUMP JUMPDEST JUMPDEST PUSH1 0x20 MUL PUSH1 0x20 ADD ADD MLOAD PUSH1 0x20 ADD MLOAD PUSH2 0xFFFF AND PUSH2 0x2A08 SWAP2 SWAP1 PUSH2 0x58FF JUMP JUMPDEST PUSH2 0x2A12 SWAP2 SWAP1 PUSH2 0x596D JUMP JUMPDEST SWAP1 POP DUP1 DUP8 DUP5 DUP2 MLOAD DUP2 LT PUSH2 0x2A28 JUMPI PUSH2 0x2A27 PUSH2 0x54FF JUMP JUMPDEST JUMPDEST PUSH1 0x20 MUL PUSH1 0x20 ADD ADD MLOAD PUSH1 0xA0 ADD MLOAD GT ISZERO PUSH2 0x2CC1 JUMPI PUSH0 DUP2 DUP9 DUP6 DUP2 MLOAD DUP2 LT PUSH2 0x2A4F JUMPI PUSH2 0x2A4E PUSH2 0x54FF JUMP JUMPDEST JUMPDEST PUSH1 0x20 MUL PUSH1 0x20 ADD ADD MLOAD PUSH1 0xA0 ADD MLOAD PUSH2 0x2A65 SWAP2 SWAP1 PUSH2 0x54A5 JUMP JUMPDEST SWAP1 POP PUSH0 DUP6 PUSH1 0x40 ADD MLOAD DUP12 PUSH2 0x2A78 SWAP2 SWAP1 PUSH2 0x54A5 JUMP JUMPDEST SWAP1 POP PUSH0 DUP2 DUP4 LT PUSH2 0x2A88 JUMPI DUP2 PUSH2 0x2A8A JUMP JUMPDEST DUP3 JUMPDEST SWAP1 POP PUSH0 DUP2 EQ PUSH2 0x2CBD JUMPI PUSH0 PUSH2 0x2AC9 DUP3 DUP13 DUP10 DUP2 MLOAD DUP2 LT PUSH2 0x2AAB JUMPI PUSH2 0x2AAA PUSH2 0x54FF JUMP JUMPDEST JUMPDEST PUSH1 0x20 MUL PUSH1 0x20 ADD ADD MLOAD PUSH1 0x20 ADD MLOAD PUSH1 0xA PUSH2 0x2AC3 SWAP2 SWAP1 PUSH2 0x5BA8 JUMP JUMPDEST DUP9 PUSH2 0x2674 JUMP JUMPDEST SWAP1 POP PUSH0 DUP2 EQ PUSH2 0x2CBB JUMPI PUSH0 PUSH2 0x2B08 DUP3 DUP9 DUP15 DUP12 DUP2 MLOAD DUP2 LT PUSH2 0x2AEB JUMPI PUSH2 0x2AEA PUSH2 0x54FF JUMP JUMPDEST JUMPDEST PUSH1 0x20 MUL PUSH1 0x20 ADD ADD MLOAD PUSH1 0x20 ADD MLOAD PUSH1 0xA PUSH2 0x2B03 SWAP2 SWAP1 PUSH2 0x5BA8 JUMP JUMPDEST PUSH2 0x2674 JUMP JUMPDEST SWAP1 POP PUSH0 DUP2 EQ PUSH2 0x2CB9 JUMPI PUSH0 PUSH0 PUSH0 SWAP1 POP JUMPDEST DUP11 PUSH1 0x20 ADD MLOAD DUP2 LT ISZERO PUSH2 0x2BDD JUMPI DUP14 DUP11 DUP2 MLOAD DUP2 LT PUSH2 0x2B36 JUMPI PUSH2 0x2B35 PUSH2 0x54FF JUMP JUMPDEST JUMPDEST PUSH1 0x20 MUL PUSH1 0x20 ADD ADD MLOAD PUSH0 ADD MLOAD PUSH20 0xFFFFFFFFFFFFFFFFFFFFFFFFFFFFFFFFFFFFFFFF AND DUP12 PUSH0 ADD MLOAD DUP3 DUP2 MLOAD DUP2 LT PUSH2 0x2B6D JUMPI PUSH2 0x2B6C PUSH2 0x54FF JUMP JUMPDEST JUMPDEST PUSH1 0x20 MUL PUSH1 0x20 ADD ADD MLOAD PUSH0 ADD MLOAD PUSH20 0xFFFFFFFFFFFFFFFFFFFFFFFFFFFFFFFFFFFFFFFF AND SUB PUSH2 0x2BD2 JUMPI DUP4 DUP12 PUSH0 ADD MLOAD DUP3 DUP2 MLOAD DUP2 LT PUSH2 0x2BAA JUMPI PUSH2 0x2BA9 PUSH2 0x54FF JUMP JUMPDEST JUMPDEST PUSH1 0x20 MUL PUSH1 0x20 ADD ADD MLOAD PUSH1 0x20 ADD DUP2 DUP2 MLOAD PUSH2 0x2BC2 SWAP2 SWAP1 PUSH2 0x599D JUMP JUMPDEST SWAP2 POP DUP2 DUP2 MSTORE POP POP PUSH1 0x1 SWAP2 POP PUSH2 0x2BDD JUMP JUMPDEST DUP1 PUSH1 0x1 ADD SWAP1 POP PUSH2 0x2B17 JUMP JUMPDEST POP DUP1 PUSH2 0x2C9E JUMPI DUP11 DUP11 PUSH1 0x20 ADD MLOAD LT PUSH2 0x2C20 JUMPI PUSH1 0x40 MLOAD PUSH32 0x9FF41FE000000000000000000000000000000000000000000000000000000000 DUP2 MSTORE PUSH1 0x4 ADD PUSH1 0x40 MLOAD DUP1 SWAP2 SUB SWAP1 REVERT JUMPDEST PUSH1 0x40 MLOAD DUP1 PUSH1 0x40 ADD PUSH1 0x40 MSTORE DUP1 DUP15 DUP12 DUP2 MLOAD DUP2 LT PUSH2 0x2C3E JUMPI PUSH2 0x2C3D PUSH2 0x54FF JUMP JUMPDEST JUMPDEST PUSH1 0x20 MUL PUSH1 0x20 ADD ADD MLOAD PUSH0 ADD MLOAD PUSH20 0xFFFFFFFFFFFFFFFFFFFFFFFFFFFFFFFFFFFFFFFF AND DUP2 MSTORE PUSH1 0x20 ADD DUP5 DUP2 MSTORE POP DUP11 PUSH0 ADD MLOAD DUP12 PUSH1 0x20 ADD DUP1 MLOAD DUP1 SWAP2 SWAP1 PUSH2 0x2C7E SWAP1 PUSH2 0x5BF2 JUMP JUMPDEST DUP2 MSTORE POP DUP2 MLOAD DUP2 LT PUSH2 0x2C92 JUMPI PUSH2 0x2C91 PUSH2 0x54FF JUMP JUMPDEST JUMPDEST PUSH1 0x20 MUL PUSH1 0x20 ADD ADD DUP2 SWAP1 MSTORE POP JUMPDEST DUP2 DUP11 PUSH1 0x40 ADD DUP2 DUP2 MLOAD PUSH2 0x2CB0 SWAP2 SWAP1 PUSH2 0x599D JUMP JUMPDEST SWAP2 POP DUP2 DUP2 MSTORE POP POP POP JUMPDEST POP JUMPDEST POP JUMPDEST POP POP POP JUMPDEST POP JUMPDEST DUP2 PUSH1 0x1 ADD SWAP2 POP POP PUSH2 0x2992 JUMP JUMPDEST POP DUP6 DUP2 PUSH1 0x40 ADD MLOAD LT ISZERO PUSH2 0x363B JUMPI PUSH0 DUP2 PUSH1 0x40 ADD MLOAD DUP8 PUSH2 0x2CED SWAP2 SWAP1 PUSH2 0x54A5 JUMP JUMPDEST SWAP1 POP PUSH2 0x2CF7 PUSH2 0x4428 JUMP JUMPDEST PUSH0 PUSH0 SWAP1 POP JUMPDEST DUP5 DUP2 LT ISZERO PUSH2 0x2E42 JUMPI PUSH0 DUP8 DUP3 DUP2 MLOAD DUP2 LT PUSH2 0x2D18 JUMPI PUSH2 0x2D17 PUSH2 0x54FF JUMP JUMPDEST JUMPDEST PUSH1 0x20 MUL PUSH1 0x20 ADD ADD MLOAD PUSH1 0x80 ADD MLOAD SWAP1 POP PUSH0 DUP9 DUP4 DUP2 MLOAD DUP2 LT PUSH2 0x2D3A JUMPI PUSH2 0x2D39 PUSH2 0x54FF JUMP JUMPDEST JUMPDEST PUSH1 0x20 MUL PUSH1 0x20 ADD ADD MLOAD PUSH1 0x60 ADD MLOAD SWAP1 POP PUSH0 DUP3 EQ ISZERO DUP1 ISZERO PUSH2 0x2D58 JUMPI POP PUSH0 DUP2 EQ ISZERO JUMPDEST ISZERO PUSH2 0x2E35 JUMPI PUSH0 PUSH0 PUSH0 SWAP1 POP JUMPDEST DUP8 PUSH1 0x20 ADD MLOAD DUP2 LT ISZERO PUSH2 0x2E1A JUMPI DUP11 DUP6 DUP2 MLOAD DUP2 LT PUSH2 0x2D82 JUMPI PUSH2 0x2D81 PUSH2 0x54FF JUMP JUMPDEST JUMPDEST PUSH1 0x20 MUL PUSH1 0x20 ADD ADD MLOAD PUSH0 ADD MLOAD PUSH20 0xFFFFFFFFFFFFFFFFFFFFFFFFFFFFFFFFFFFFFFFF AND DUP9 PUSH0 ADD MLOAD DUP3 DUP2 MLOAD DUP2 LT PUSH2 0x2DB9 JUMPI PUSH2 0x2DB8 PUSH2 0x54FF JUMP JUMPDEST JUMPDEST PUSH1 0x20 MUL PUSH1 0x20 ADD ADD MLOAD PUSH0 ADD MLOAD PUSH20 0xFFFFFFFFFFFFFFFFFFFFFFFFFFFFFFFFFFFFFFFF AND SUB PUSH2 0x2E0F JUMPI DUP8 PUSH0 ADD MLOAD DUP2 DUP2 MLOAD DUP2 LT PUSH2 0x2DF5 JUMPI PUSH2 0x2DF4 PUSH2 0x54FF JUMP JUMPDEST JUMPDEST PUSH1 0x20 MUL PUSH1 0x20 ADD ADD MLOAD PUSH1 0x20 ADD MLOAD DUP3 PUSH2 0x2E0C SWAP2 SWAP1 PUSH2 0x599D JUMP JUMPDEST SWAP2 POP JUMPDEST DUP1 PUSH1 0x1 ADD SWAP1 POP PUSH2 0x2D63 JUMP JUMPDEST POP DUP2 DUP2 LT ISZERO PUSH2 0x2E33 JUMPI DUP5 PUSH1 0xA0 ADD DUP1 MLOAD PUSH1 0x1 ADD SWAP1 DUP2 DUP2 MSTORE POP POP JUMPDEST POP JUMPDEST DUP3 PUSH1 0x1 ADD SWAP3 POP POP POP PUSH2 0x2CFC JUMP JUMPDEST POP PUSH0 DUP2 PUSH1 0xA0 ADD MLOAD SUB PUSH2 0x2E80 JUMPI PUSH1 0x40 MLOAD PUSH32 0xF17CD2CA00000000000000000000000000000000000000000000000000000000 DUP2 MSTORE PUSH1 0x4 ADD PUSH1 0x40 MLOAD DUP1 SWAP2 SUB SWAP1 REVERT JUMPDEST DUP1 PUSH1 0xA0 ADD MLOAD PUSH8 0xFFFFFFFFFFFFFFFF DUP2 GT ISZERO PUSH2 0x2E9E JUMPI PUSH2 0x2E9D PUSH2 0x45FF JUMP JUMPDEST JUMPDEST PUSH1 0x40 MLOAD SWAP1 DUP1 DUP3 MSTORE DUP1 PUSH1 0x20 MUL PUSH1 0x20 ADD DUP3 ADD PUSH1 0x40 MSTORE DUP1 ISZERO PUSH2 0x2ECC JUMPI DUP2 PUSH1 0x20 ADD PUSH1 0x20 DUP3 MUL DUP1 CALLDATASIZE DUP4 CALLDATACOPY DUP1 DUP3 ADD SWAP2 POP POP SWAP1 POP JUMPDEST POP DUP2 PUSH0 ADD DUP2 SWAP1 MSTORE POP DUP1 PUSH1 0xA0 ADD MLOAD PUSH8 0xFFFFFFFFFFFFFFFF DUP2 GT ISZERO PUSH2 0x2EF2 JUMPI PUSH2 0x2EF1 PUSH2 0x45FF JUMP JUMPDEST JUMPDEST PUSH1 0x40 MLOAD SWAP1 DUP1 DUP3 MSTORE DUP1 PUSH1 0x20 MUL PUSH1 0x20 ADD DUP3 ADD PUSH1 0x40 MSTORE DUP1 ISZERO PUSH2 0x2F20 JUMPI DUP2 PUSH1 0x20 ADD PUSH1 0x20 DUP3 MUL DUP1 CALLDATASIZE DUP4 CALLDATACOPY DUP1 DUP3 ADD SWAP2 POP POP SWAP1 POP JUMPDEST POP DUP2 PUSH1 0x20 ADD DUP2 SWAP1 MSTORE POP DUP1 PUSH1 0xA0 ADD MLOAD PUSH8 0xFFFFFFFFFFFFFFFF DUP2 GT ISZERO PUSH2 0x2F47 JUMPI PUSH2 0x2F46 PUSH2 0x45FF JUMP JUMPDEST JUMPDEST PUSH1 0x40 MLOAD SWAP1 DUP1 DUP3 MSTORE DUP1 PUSH1 0x20 MUL PUSH1 0x20 ADD DUP3 ADD PUSH1 0x40 MSTORE DUP1 ISZERO PUSH2 0x2F75 JUMPI DUP2 PUSH1 0x20 ADD PUSH1 0x20 DUP3 MUL DUP1 CALLDATASIZE DUP4 CALLDATACOPY DUP1 DUP3 ADD SWAP2 POP POP SWAP1 POP JUMPDEST POP DUP2 PUSH1 0x40 ADD DUP2 SWAP1 MSTORE POP DUP1 PUSH1 0xA0 ADD MLOAD PUSH8 0xFFFFFFFFFFFFFFFF DUP2 GT ISZERO PUSH2 0x2F9C JUMPI PUSH2 0x2F9B PUSH2 0x45FF JUMP JUMPDEST JUMPDEST PUSH1 0x40 MLOAD SWAP1 DUP1 DUP3 MSTORE DUP1 PUSH1 0x20 MUL PUSH1 0x20 ADD DUP3 ADD PUSH1 0x40 MSTORE DUP1 ISZERO PUSH2 0x2FCA JUMPI DUP2 PUSH1 0x20 ADD PUSH1 0x20 DUP3 MUL DUP1 CALLDATASIZE DUP4 CALLDATACOPY DUP1 DUP3 ADD SWAP2 POP POP SWAP1 POP JUMPDEST POP DUP2 PUSH1 0x60 ADD DUP2 SWAP1 MSTORE POP DUP1 PUSH1 0xA0 ADD MLOAD PUSH8 0xFFFFFFFFFFFFFFFF DUP2 GT ISZERO PUSH2 0x2FF1 JUMPI PUSH2 0x2FF0 PUSH2 0x45FF JUMP JUMPDEST JUMPDEST PUSH1 0x40 MLOAD SWAP1 DUP1 DUP3 MSTORE DUP1 PUSH1 0x20 MUL PUSH1 0x20 ADD DUP3 ADD PUSH1 0x40 MSTORE DUP1 ISZERO PUSH2 0x301F JUMPI DUP2 PUSH1 0x20 ADD PUSH1 0x20 DUP3 MUL DUP1 CALLDATASIZE DUP4 CALLDATACOPY DUP1 DUP3 ADD SWAP2 POP POP SWAP1 POP JUMPDEST POP DUP2 PUSH1 0x80 ADD DUP2 SWAP1 MSTORE POP PUSH0 PUSH0 PUSH0 SWAP1 POP JUMPDEST DUP6 DUP2 LT ISZERO PUSH2 0x32F9 JUMPI PUSH0 DUP9 DUP3 DUP2 MLOAD DUP2 LT PUSH2 0x304A JUMPI PUSH2 0x3049 PUSH2 0x54FF JUMP JUMPDEST JUMPDEST PUSH1 0x20 MUL PUSH1 0x20 ADD ADD MLOAD PUSH1 0x80 ADD MLOAD SWAP1 POP PUSH0 DUP10 DUP4 DUP2 MLOAD DUP2 LT PUSH2 0x306C JUMPI PUSH2 0x306B PUSH2 0x54FF JUMP JUMPDEST JUMPDEST PUSH1 0x20 MUL PUSH1 0x20 ADD ADD MLOAD PUSH1 0x60 ADD MLOAD SWAP1 POP PUSH0 DUP3 EQ ISZERO DUP1 ISZERO PUSH2 0x308A JUMPI POP PUSH0 DUP2 EQ ISZERO JUMPDEST ISZERO PUSH2 0x32EC JUMPI PUSH0 PUSH0 PUSH0 SWAP1 POP JUMPDEST DUP9 PUSH1 0x20 ADD MLOAD DUP2 LT ISZERO PUSH2 0x314C JUMPI DUP12 DUP6 DUP2 MLOAD DUP2 LT PUSH2 0x30B4 JUMPI PUSH2 0x30B3 PUSH2 0x54FF JUMP JUMPDEST JUMPDEST PUSH1 0x20 MUL PUSH1 0x20 ADD ADD MLOAD PUSH0 ADD MLOAD PUSH20 0xFFFFFFFFFFFFFFFFFFFFFFFFFFFFFFFFFFFFFFFF AND DUP10 PUSH0 ADD MLOAD DUP3 DUP2 MLOAD DUP2 LT PUSH2 0x30EB JUMPI PUSH2 0x30EA PUSH2 0x54FF JUMP JUMPDEST JUMPDEST PUSH1 0x20 MUL PUSH1 0x20 ADD ADD MLOAD PUSH0 ADD MLOAD PUSH20 0xFFFFFFFFFFFFFFFFFFFFFFFFFFFFFFFFFFFFFFFF AND SUB PUSH2 0x3141 JUMPI DUP9 PUSH0 ADD MLOAD DUP2 DUP2 MLOAD DUP2 LT PUSH2 0x3127 JUMPI PUSH2 0x3126 PUSH2 0x54FF JUMP JUMPDEST JUMPDEST PUSH1 0x20 MUL PUSH1 0x20 ADD ADD MLOAD PUSH1 0x20 ADD MLOAD DUP3 PUSH2 0x313E SWAP2 SWAP1 PUSH2 0x599D JUMP JUMPDEST SWAP2 POP JUMPDEST DUP1 PUSH1 0x1 ADD SWAP1 POP PUSH2 0x3095 JUMP JUMPDEST POP DUP2 DUP2 LT ISZERO PUSH2 0x32EA JUMPI PUSH0 DUP2 DUP4 PUSH2 0x3162 SWAP2 SWAP1 PUSH2 0x54A5 JUMP JUMPDEST SWAP1 POP PUSH0 PUSH2 0x319A DUP3 DUP7 DUP16 DUP10 DUP2 MLOAD DUP2 LT PUSH2 0x317D JUMPI PUSH2 0x317C PUSH2 0x54FF JUMP JUMPDEST JUMPDEST PUSH1 0x20 MUL PUSH1 0x20 ADD ADD MLOAD PUSH1 0x20 ADD MLOAD PUSH1 0xA PUSH2 0x3195 SWAP2 SWAP1 PUSH2 0x5BA8 JUMP JUMPDEST PUSH2 0x2674 JUMP JUMPDEST SWAP1 POP PUSH0 DUP2 EQ PUSH2 0x32E7 JUMPI DUP13 DUP7 DUP2 MLOAD DUP2 LT PUSH2 0x31B6 JUMPI PUSH2 0x31B5 PUSH2 0x54FF JUMP JUMPDEST JUMPDEST PUSH1 0x20 MUL PUSH1 0x20 ADD ADD MLOAD PUSH0 ADD MLOAD DUP9 PUSH0 ADD MLOAD DUP9 DUP2 MLOAD DUP2 LT PUSH2 0x31D7 JUMPI PUSH2 0x31D6 PUSH2 0x54FF JUMP JUMPDEST JUMPDEST PUSH1 0x20 MUL PUSH1 0x20 ADD ADD SWAP1 PUSH20 0xFFFFFFFFFFFFFFFFFFFFFFFFFFFFFFFFFFFFFFFF AND SWAP1 DUP2 PUSH20 0xFFFFFFFFFFFFFFFFFFFFFFFFFFFFFFFFFFFFFFFF AND DUP2 MSTORE POP POP DUP13 DUP7 DUP2 MLOAD DUP2 LT PUSH2 0x3224 JUMPI PUSH2 0x3223 PUSH2 0x54FF JUMP JUMPDEST JUMPDEST PUSH1 0x20 MUL PUSH1 0x20 ADD ADD MLOAD PUSH1 0x20 ADD MLOAD DUP9 PUSH1 0x20 ADD MLOAD DUP9 DUP2 MLOAD DUP2 LT PUSH2 0x3247 JUMPI PUSH2 0x3246 PUSH2 0x54FF JUMP JUMPDEST JUMPDEST PUSH1 0x20 MUL PUSH1 0x20 ADD ADD SWAP1 PUSH1 0xFF AND SWAP1 DUP2 PUSH1 0xFF AND DUP2 MSTORE POP POP DUP2 DUP9 PUSH1 0x40 ADD MLOAD DUP9 DUP2 MLOAD DUP2 LT PUSH2 0x3273 JUMPI PUSH2 0x3272 PUSH2 0x54FF JUMP JUMPDEST JUMPDEST PUSH1 0x20 MUL PUSH1 0x20 ADD ADD DUP2 DUP2 MSTORE POP POP DUP5 DUP9 PUSH1 0x60 ADD MLOAD DUP9 DUP2 MLOAD DUP2 LT PUSH2 0x3297 JUMPI PUSH2 0x3296 PUSH2 0x54FF JUMP JUMPDEST JUMPDEST PUSH1 0x20 MUL PUSH1 0x20 ADD ADD DUP2 DUP2 MSTORE POP POP DUP1 DUP9 PUSH1 0x80 ADD MLOAD DUP9 DUP2 MLOAD DUP2 LT PUSH2 0x32BB JUMPI PUSH2 0x32BA PUSH2 0x54FF JUMP JUMPDEST JUMPDEST PUSH1 0x20 MUL PUSH1 0x20 ADD ADD DUP2 DUP2 MSTORE POP POP DUP1 DUP9 PUSH1 0xC0 ADD DUP2 DUP2 MLOAD PUSH2 0x32D9 SWAP2 SWAP1 PUSH2 0x599D JUMP JUMPDEST SWAP2 POP DUP2 DUP2 MSTORE POP POP DUP7 PUSH1 0x1 ADD SWAP7 POP JUMPDEST POP POP JUMPDEST POP JUMPDEST DUP3 PUSH1 0x1 ADD SWAP3 POP POP POP PUSH2 0x302E JUMP JUMPDEST POP PUSH0 DUP3 PUSH1 0xC0 ADD MLOAD SUB PUSH2 0x3337 JUMPI PUSH1 0x40 MLOAD PUSH32 0xF17CD2CA00000000000000000000000000000000000000000000000000000000 DUP2 MSTORE PUSH1 0x4 ADD PUSH1 0x40 MLOAD DUP1 SWAP2 SUB SWAP1 REVERT JUMPDEST POP PUSH0 PUSH2 0x334C DUP3 PUSH1 0x80 ADD MLOAD DUP5 DUP5 PUSH1 0x80 ADD MLOAD PUSH2 0x3D73 JUMP JUMPDEST SWAP1 POP PUSH0 PUSH0 SWAP1 POP JUMPDEST DUP3 PUSH1 0xA0 ADD MLOAD DUP2 LT ISZERO PUSH2 0x3636 JUMPI PUSH0 DUP3 DUP3 DUP2 MLOAD DUP2 LT PUSH2 0x3373 JUMPI PUSH2 0x3372 PUSH2 0x54FF JUMP JUMPDEST JUMPDEST PUSH1 0x20 MUL PUSH1 0x20 ADD ADD MLOAD SWAP1 POP PUSH0 DUP2 EQ PUSH2 0x362A JUMPI PUSH0 PUSH2 0x33D8 DUP3 DUP7 PUSH1 0x20 ADD MLOAD DUP6 DUP2 MLOAD DUP2 LT PUSH2 0x33A0 JUMPI PUSH2 0x339F PUSH2 0x54FF JUMP JUMPDEST JUMPDEST PUSH1 0x20 MUL PUSH1 0x20 ADD ADD MLOAD PUSH1 0xA PUSH2 0x33B4 SWAP2 SWAP1 PUSH2 0x5BA8 JUMP JUMPDEST DUP8 PUSH1 0x60 ADD MLOAD DUP7 DUP2 MLOAD DUP2 LT PUSH2 0x33CB JUMPI PUSH2 0x33CA PUSH2 0x54FF JUMP JUMPDEST JUMPDEST PUSH1 0x20 MUL PUSH1 0x20 ADD ADD MLOAD PUSH2 0x2674 JUMP JUMPDEST SWAP1 POP PUSH0 DUP2 EQ PUSH2 0x3628 JUMPI DUP5 PUSH1 0x40 ADD MLOAD DUP4 DUP2 MLOAD DUP2 LT PUSH2 0x33F8 JUMPI PUSH2 0x33F7 PUSH2 0x54FF JUMP JUMPDEST JUMPDEST PUSH1 0x20 MUL PUSH1 0x20 ADD ADD MLOAD DUP2 GT ISZERO PUSH2 0x3429 JUMPI DUP5 PUSH1 0x40 ADD MLOAD DUP4 DUP2 MLOAD DUP2 LT PUSH2 0x341E JUMPI PUSH2 0x341D PUSH2 0x54FF JUMP JUMPDEST JUMPDEST PUSH1 0x20 MUL PUSH1 0x20 ADD ADD MLOAD SWAP1 POP JUMPDEST PUSH0 PUSH0 PUSH0 SWAP1 POP JUMPDEST DUP9 PUSH1 0x20 ADD MLOAD DUP2 LT ISZERO PUSH2 0x34F5 JUMPI DUP7 PUSH0 ADD MLOAD DUP6 DUP2 MLOAD DUP2 LT PUSH2 0x3451 JUMPI PUSH2 0x3450 PUSH2 0x54FF JUMP JUMPDEST JUMPDEST PUSH1 0x20 MUL PUSH1 0x20 ADD ADD MLOAD PUSH20 0xFFFFFFFFFFFFFFFFFFFFFFFFFFFFFFFFFFFFFFFF AND DUP10 PUSH0 ADD MLOAD DUP3 DUP2 MLOAD DUP2 LT PUSH2 0x3485 JUMPI PUSH2 0x3484 PUSH2 0x54FF JUMP JUMPDEST JUMPDEST PUSH1 0x20 MUL PUSH1 0x20 ADD ADD MLOAD PUSH0 ADD MLOAD PUSH20 0xFFFFFFFFFFFFFFFFFFFFFFFFFFFFFFFFFFFFFFFF AND SUB PUSH2 0x34EA JUMPI DUP3 DUP10 PUSH0 ADD MLOAD DUP3 DUP2 MLOAD DUP2 LT PUSH2 0x34C2 JUMPI PUSH2 0x34C1 PUSH2 0x54FF JUMP JUMPDEST JUMPDEST PUSH1 0x20 MUL PUSH1 0x20 ADD ADD MLOAD PUSH1 0x20 ADD DUP2 DUP2 MLOAD PUSH2 0x34DA SWAP2 SWAP1 PUSH2 0x599D JUMP JUMPDEST SWAP2 POP DUP2 DUP2 MSTORE POP POP PUSH1 0x1 SWAP2 POP PUSH2 0x34F5 JUMP JUMPDEST DUP1 PUSH1 0x1 ADD SWAP1 POP PUSH2 0x342F JUMP JUMPDEST POP DUP1 PUSH2 0x35B6 JUMPI DUP9 DUP9 PUSH1 0x20 ADD MLOAD LT PUSH2 0x3538 JUMPI PUSH1 0x40 MLOAD PUSH32 0x9FF41FE000000000000000000000000000000000000000000000000000000000 DUP2 MSTORE PUSH1 0x4 ADD PUSH1 0x40 MLOAD DUP1 SWAP2 SUB SWAP1 REVERT JUMPDEST PUSH1 0x40 MLOAD DUP1 PUSH1 0x40 ADD PUSH1 0x40 MSTORE DUP1 DUP8 PUSH0 ADD MLOAD DUP7 DUP2 MLOAD DUP2 LT PUSH2 0x3559 JUMPI PUSH2 0x3558 PUSH2 0x54FF JUMP JUMPDEST JUMPDEST PUSH1 0x20 MUL PUSH1 0x20 ADD ADD MLOAD PUSH20 0xFFFFFFFFFFFFFFFFFFFFFFFFFFFFFFFFFFFFFFFF AND DUP2 MSTORE PUSH1 0x20 ADD DUP4 DUP2 MSTORE POP DUP9 PUSH0 ADD MLOAD DUP10 PUSH1 0x20 ADD DUP1 MLOAD DUP1 SWAP2 SWAP1 PUSH2 0x3596 SWAP1 PUSH2 0x5BF2 JUMP JUMPDEST DUP2 MSTORE POP DUP2 MLOAD DUP2 LT PUSH2 0x35AA JUMPI PUSH2 0x35A9 PUSH2 0x54FF JUMP JUMPDEST JUMPDEST PUSH1 0x20 MUL PUSH1 0x20 ADD ADD DUP2 SWAP1 MSTORE POP JUMPDEST PUSH0 PUSH2 0x360A DUP4 DUP9 PUSH1 0x60 ADD MLOAD DUP8 DUP2 MLOAD DUP2 LT PUSH2 0x35D2 JUMPI PUSH2 0x35D1 PUSH2 0x54FF JUMP JUMPDEST JUMPDEST PUSH1 0x20 MUL PUSH1 0x20 ADD ADD MLOAD DUP10 PUSH1 0x20 ADD MLOAD DUP9 DUP2 MLOAD DUP2 LT PUSH2 0x35F1 JUMPI PUSH2 0x35F0 PUSH2 0x54FF JUMP JUMPDEST JUMPDEST PUSH1 0x20 MUL PUSH1 0x20 ADD ADD MLOAD PUSH1 0xA PUSH2 0x3605 SWAP2 SWAP1 PUSH2 0x5BA8 JUMP JUMPDEST PUSH2 0x2674 JUMP JUMPDEST SWAP1 POP DUP1 DUP10 PUSH1 0x40 ADD DUP2 DUP2 MLOAD PUSH2 0x361E SWAP2 SWAP1 PUSH2 0x599D JUMP JUMPDEST SWAP2 POP DUP2 DUP2 MSTORE POP POP POP POP JUMPDEST POP JUMPDEST DUP2 PUSH1 0x1 ADD SWAP2 POP POP PUSH2 0x3353 JUMP JUMPDEST POP POP POP POP JUMPDEST PUSH0 DUP2 PUSH1 0x20 ADD MLOAD SUB PUSH2 0x3678 JUMPI PUSH1 0x40 MLOAD PUSH32 0x1A4EAA7E00000000000000000000000000000000000000000000000000000000 DUP2 MSTORE PUSH1 0x4 ADD PUSH1 0x40 MLOAD DUP1 SWAP2 SUB SWAP1 REVERT JUMPDEST DUP1 PUSH1 0x20 ADD MLOAD PUSH8 0xFFFFFFFFFFFFFFFF DUP2 GT ISZERO PUSH2 0x3696 JUMPI PUSH2 0x3695 PUSH2 0x45FF JUMP JUMPDEST JUMPDEST PUSH1 0x40 MLOAD SWAP1 DUP1 DUP3 MSTORE DUP1 PUSH1 0x20 MUL PUSH1 0x20 ADD DUP3 ADD PUSH1 0x40 MSTORE DUP1 ISZERO PUSH2 0x36CF JUMPI DUP2 PUSH1 0x20 ADD JUMPDEST PUSH2 0x36BC PUSH2 0x43FA JUMP JUMPDEST DUP2 MSTORE PUSH1 0x20 ADD SWAP1 PUSH1 0x1 SWAP1 SUB SWAP1 DUP2 PUSH2 0x36B4 JUMPI SWAP1 POP JUMPDEST POP SWAP5 POP PUSH0 PUSH0 SWAP1 POP JUMPDEST DUP2 PUSH1 0x20 ADD MLOAD DUP2 LT ISZERO PUSH2 0x372A JUMPI DUP2 PUSH0 ADD MLOAD DUP2 DUP2 MLOAD DUP2 LT PUSH2 0x36F9 JUMPI PUSH2 0x36F8 PUSH2 0x54FF JUMP JUMPDEST JUMPDEST PUSH1 0x20 MUL PUSH1 0x20 ADD ADD MLOAD DUP7 DUP3 DUP2 MLOAD DUP2 LT PUSH2 0x3714 JUMPI PUSH2 0x3713 PUSH2 0x54FF JUMP JUMPDEST JUMPDEST PUSH1 0x20 MUL PUSH1 0x20 ADD ADD DUP2 SWAP1 MSTORE POP DUP1 PUSH1 0x1 ADD SWAP1 POP PUSH2 0x36D7 JUMP JUMPDEST POP PUSH0 PUSH2 0x3734 PUSH2 0x2630 JUMP JUMPDEST SWAP1 POP PUSH0 PUSH0 SWAP1 POP JUMPDEST DUP7 MLOAD DUP2 LT ISZERO PUSH2 0x37F4 JUMPI DUP9 PUSH20 0xFFFFFFFFFFFFFFFFFFFFFFFFFFFFFFFFFFFFFFFF AND PUSH4 0x5C833BFD DUP9 DUP4 DUP2 MLOAD DUP2 LT PUSH2 0x3773 JUMPI PUSH2 0x3772 PUSH2 0x54FF JUMP JUMPDEST JUMPDEST PUSH1 0x20 MUL PUSH1 0x20 ADD ADD MLOAD PUSH0 ADD MLOAD DUP10 DUP5 DUP2 MLOAD DUP2 LT PUSH2 0x3791 JUMPI PUSH2 0x3790 PUSH2 0x54FF JUMP JUMPDEST JUMPDEST PUSH1 0x20 MUL PUSH1 0x20 ADD ADD MLOAD PUSH1 0x20 ADD MLOAD DUP6 PUSH1 0x40 MLOAD DUP5 PUSH4 0xFFFFFFFF AND PUSH1 0xE0 SHL DUP2 MSTORE PUSH1 0x4 ADD PUSH2 0x37BC SWAP4 SWAP3 SWAP2 SWAP1 PUSH2 0x58CA JUMP JUMPDEST PUSH0 PUSH1 0x40 MLOAD DUP1 DUP4 SUB DUP2 PUSH0 DUP8 DUP1 EXTCODESIZE ISZERO DUP1 ISZERO PUSH2 0x37D3 JUMPI PUSH0 PUSH0 REVERT JUMPDEST POP GAS CALL ISZERO DUP1 ISZERO PUSH2 0x37E5 JUMPI RETURNDATASIZE PUSH0 PUSH0 RETURNDATACOPY RETURNDATASIZE PUSH0 REVERT JUMPDEST POP POP POP POP DUP1 PUSH1 0x1 ADD SWAP1 POP PUSH2 0x373B JUMP JUMPDEST POP POP POP POP POP POP SWAP4 SWAP3 POP POP POP JUMP JUMPDEST PUSH1 0x60 PUSH0 PUSH0 PUSH0 PUSH2 0x380E PUSH2 0x2015 JUMP JUMPDEST PUSH20 0xFFFFFFFFFFFFFFFFFFFFFFFFFFFFFFFFFFFFFFFF AND PUSH4 0xEE0D96C5 DUP8 DUP8 PUSH1 0x40 MLOAD DUP4 PUSH4 0xFFFFFFFF AND PUSH1 0xE0 SHL DUP2 MSTORE PUSH1 0x4 ADD PUSH2 0x3848 SWAP3 SWAP2 SWAP1 PUSH2 0x510D JUMP JUMPDEST PUSH0 PUSH1 0x40 MLOAD DUP1 DUP4 SUB DUP2 DUP7 GAS STATICCALL ISZERO DUP1 ISZERO PUSH2 0x3862 JUMPI RETURNDATASIZE PUSH0 PUSH0 RETURNDATACOPY RETURNDATASIZE PUSH0 REVERT JUMPDEST POP POP POP POP PUSH1 0x40 MLOAD RETURNDATASIZE PUSH0 DUP3 RETURNDATACOPY RETURNDATASIZE PUSH1 0x1F NOT PUSH1 0x1F DUP3 ADD AND DUP3 ADD DUP1 PUSH1 0x40 MSTORE POP DUP2 ADD SWAP1 PUSH2 0x388A SWAP2 SWAP1 PUSH2 0x52E2 JUMP JUMPDEST SWAP2 POP SWAP2 POP PUSH0 DUP2 SUB PUSH2 0x38C7 JUMPI PUSH1 0x40 MLOAD PUSH32 0x1F2A200500000000000000000000000000000000000000000000000000000000 DUP2 MSTORE PUSH1 0x4 ADD PUSH1 0x40 MLOAD DUP1 SWAP2 SUB SWAP1 REVERT JUMPDEST PUSH0 DUP7 PUSH1 0x40 ADD MLOAD MLOAD SWAP1 POP PUSH0 DUP2 PUSH8 0xFFFFFFFFFFFFFFFF DUP2 GT ISZERO PUSH2 0x38EB JUMPI PUSH2 0x38EA PUSH2 0x45FF JUMP JUMPDEST JUMPDEST PUSH1 0x40 MLOAD SWAP1 DUP1 DUP3 MSTORE DUP1 PUSH1 0x20 MUL PUSH1 0x20 ADD DUP3 ADD PUSH1 0x40 MSTORE DUP1 ISZERO PUSH2 0x3919 JUMPI DUP2 PUSH1 0x20 ADD PUSH1 0x20 DUP3 MUL DUP1 CALLDATASIZE DUP4 CALLDATACOPY DUP1 DUP3 ADD SWAP2 POP POP SWAP1 POP JUMPDEST POP SWAP1 POP PUSH0 DUP3 PUSH8 0xFFFFFFFFFFFFFFFF DUP2 GT ISZERO PUSH2 0x3937 JUMPI PUSH2 0x3936 PUSH2 0x45FF JUMP JUMPDEST JUMPDEST PUSH1 0x40 MLOAD SWAP1 DUP1 DUP3 MSTORE DUP1 PUSH1 0x20 MUL PUSH1 0x20 ADD DUP3 ADD PUSH1 0x40 MSTORE DUP1 ISZERO PUSH2 0x3965 JUMPI DUP2 PUSH1 0x20 ADD PUSH1 0x20 DUP3 MUL DUP1 CALLDATASIZE DUP4 CALLDATACOPY DUP1 DUP3 ADD SWAP2 POP POP SWAP1 POP JUMPDEST POP SWAP1 POP PUSH0 PUSH0 SWAP1 POP JUMPDEST DUP4 DUP2 LT ISZERO PUSH2 0x3A1C JUMPI PUSH2 0x2710 DUP6 DUP12 PUSH1 0x40 ADD MLOAD DUP4 DUP2 MLOAD DUP2 LT PUSH2 0x3990 JUMPI PUSH2 0x398F PUSH2 0x54FF JUMP JUMPDEST JUMPDEST PUSH1 0x20 MUL PUSH1 0x20 ADD ADD MLOAD PUSH1 0x20 ADD MLOAD PUSH2 0xFFFF AND PUSH2 0x39AA SWAP2 SWAP1 PUSH2 0x58FF JUMP JUMPDEST PUSH2 0x39B4 SWAP2 SWAP1 PUSH2 0x596D JUMP JUMPDEST DUP4 DUP3 DUP2 MLOAD DUP2 LT PUSH2 0x39C7 JUMPI PUSH2 0x39C6 PUSH2 0x54FF JUMP JUMPDEST JUMPDEST PUSH1 0x20 MUL PUSH1 0x20 ADD ADD DUP2 DUP2 MSTORE POP POP DUP6 DUP2 DUP2 MLOAD DUP2 LT PUSH2 0x39E6 JUMPI PUSH2 0x39E5 PUSH2 0x54FF JUMP JUMPDEST JUMPDEST PUSH1 0x20 MUL PUSH1 0x20 ADD ADD MLOAD PUSH1 0xA0 ADD MLOAD DUP3 DUP3 DUP2 MLOAD DUP2 LT PUSH2 0x3A05 JUMPI PUSH2 0x3A04 PUSH2 0x54FF JUMP JUMPDEST JUMPDEST PUSH1 0x20 MUL PUSH1 0x20 ADD ADD DUP2 DUP2 MSTORE POP POP DUP1 PUSH1 0x1 ADD SWAP1 POP PUSH2 0x396D JUMP JUMPDEST POP DUP3 PUSH8 0xFFFFFFFFFFFFFFFF DUP2 GT ISZERO PUSH2 0x3A37 JUMPI PUSH2 0x3A36 PUSH2 0x45FF JUMP JUMPDEST JUMPDEST PUSH1 0x40 MLOAD SWAP1 DUP1 DUP3 MSTORE DUP1 PUSH1 0x20 MUL PUSH1 0x20 ADD DUP3 ADD PUSH1 0x40 MSTORE DUP1 ISZERO PUSH2 0x3A70 JUMPI DUP2 PUSH1 0x20 ADD JUMPDEST PUSH2 0x3A5D PUSH2 0x43FA JUMP JUMPDEST DUP2 MSTORE PUSH1 0x20 ADD SWAP1 PUSH1 0x1 SWAP1 SUB SWAP1 DUP2 PUSH2 0x3A55 JUMPI SWAP1 POP JUMPDEST POP SWAP7 POP PUSH0 PUSH0 SWAP1 POP JUMPDEST DUP4 DUP2 LT ISZERO PUSH2 0x3BDE JUMPI DUP3 DUP2 DUP2 MLOAD DUP2 LT PUSH2 0x3A93 JUMPI PUSH2 0x3A92 PUSH2 0x54FF JUMP JUMPDEST JUMPDEST PUSH1 0x20 MUL PUSH1 0x20 ADD ADD MLOAD DUP3 DUP3 DUP2 MLOAD DUP2 LT PUSH2 0x3AAE JUMPI PUSH2 0x3AAD PUSH2 0x54FF JUMP JUMPDEST JUMPDEST PUSH1 0x20 MUL PUSH1 0x20 ADD ADD MLOAD GT ISZERO PUSH2 0x3BD3 JUMPI PUSH0 DUP4 DUP3 DUP2 MLOAD DUP2 LT PUSH2 0x3AD0 JUMPI PUSH2 0x3ACF PUSH2 0x54FF JUMP JUMPDEST JUMPDEST PUSH1 0x20 MUL PUSH1 0x20 ADD ADD MLOAD DUP4 DUP4 DUP2 MLOAD DUP2 LT PUSH2 0x3AEB JUMPI PUSH2 0x3AEA PUSH2 0x54FF JUMP JUMPDEST JUMPDEST PUSH1 0x20 MUL PUSH1 0x20 ADD ADD MLOAD PUSH2 0x3AFD SWAP2 SWAP1 PUSH2 0x54A5 JUMP JUMPDEST SWAP1 POP PUSH0 PUSH2 0x3B53 DUP3 DUP10 DUP6 DUP2 MLOAD DUP2 LT PUSH2 0x3B17 JUMPI PUSH2 0x3B16 PUSH2 0x54FF JUMP JUMPDEST JUMPDEST PUSH1 0x20 MUL PUSH1 0x20 ADD ADD MLOAD PUSH1 0x20 ADD MLOAD PUSH1 0xA PUSH2 0x3B2F SWAP2 SWAP1 PUSH2 0x5BA8 JUMP JUMPDEST DUP11 DUP7 DUP2 MLOAD DUP2 LT PUSH2 0x3B42 JUMPI PUSH2 0x3B41 PUSH2 0x54FF JUMP JUMPDEST JUMPDEST PUSH1 0x20 MUL PUSH1 0x20 ADD ADD MLOAD PUSH1 0x80 ADD MLOAD PUSH2 0x2674 JUMP JUMPDEST SWAP1 POP PUSH0 DUP2 GT ISZERO PUSH2 0x3BD0 JUMPI PUSH1 0x40 MLOAD DUP1 PUSH1 0x40 ADD PUSH1 0x40 MSTORE DUP1 DUP10 DUP6 DUP2 MLOAD DUP2 LT PUSH2 0x3B7B JUMPI PUSH2 0x3B7A PUSH2 0x54FF JUMP JUMPDEST JUMPDEST PUSH1 0x20 MUL PUSH1 0x20 ADD ADD MLOAD PUSH0 ADD MLOAD PUSH20 0xFFFFFFFFFFFFFFFFFFFFFFFFFFFFFFFFFFFFFFFF AND DUP2 MSTORE PUSH1 0x20 ADD DUP3 DUP2 MSTORE POP DUP11 DUP11 DUP1 PUSH2 0x3BB1 SWAP1 PUSH2 0x5BF2 JUMP JUMPDEST SWAP12 POP DUP2 MLOAD DUP2 LT PUSH2 0x3BC4 JUMPI PUSH2 0x3BC3 PUSH2 0x54FF JUMP JUMPDEST JUMPDEST PUSH1 0x20 MUL PUSH1 0x20 ADD ADD DUP2 SWAP1 MSTORE POP JUMPDEST POP POP JUMPDEST DUP1 PUSH1 0x1 ADD SWAP1 POP PUSH2 0x3A78 JUMP JUMPDEST POP PUSH0 DUP7 SUB PUSH2 0x3C18 JUMPI PUSH1 0x40 MLOAD PUSH32 0x1A4EAA7E00000000000000000000000000000000000000000000000000000000 DUP2 MSTORE PUSH1 0x4 ADD PUSH1 0x40 MLOAD DUP1 SWAP2 SUB SWAP1 REVERT JUMPDEST POP POP POP POP POP SWAP3 POP SWAP3 SWAP1 POP JUMP JUMPDEST PUSH0 PUSH0 DUP5 PUSH20 0xFFFFFFFFFFFFFFFFFFFFFFFFFFFFFFFFFFFFFFFF AND PUSH4 0xA9059CBB PUSH1 0xE0 SHL DUP6 DUP6 PUSH1 0x40 MLOAD PUSH1 0x24 ADD PUSH2 0x3C58 SWAP3 SWAP2 SWAP1 PUSH2 0x54D8 JUMP JUMPDEST PUSH1 0x40 MLOAD PUSH1 0x20 DUP2 DUP4 SUB SUB DUP2 MSTORE SWAP1 PUSH1 0x40 MSTORE SWAP1 PUSH28 0xFFFFFFFFFFFFFFFFFFFFFFFFFFFFFFFFFFFFFFFFFFFFFFFFFFFFFFFF NOT AND PUSH1 0x20 DUP3 ADD DUP1 MLOAD PUSH28 0xFFFFFFFFFFFFFFFFFFFFFFFFFFFFFFFFFFFFFFFFFFFFFFFFFFFFFFFF DUP4 DUP2 DUP4 AND OR DUP4 MSTORE POP POP POP POP PUSH1 0x40 MLOAD PUSH2 0x3CC2 SWAP2 SWAP1 PUSH2 0x5C73 JUMP JUMPDEST PUSH0 PUSH1 0x40 MLOAD DUP1 DUP4 SUB DUP2 PUSH0 DUP7 GAS CALL SWAP2 POP POP RETURNDATASIZE DUP1 PUSH0 DUP2 EQ PUSH2 0x3CFB JUMPI PUSH1 0x40 MLOAD SWAP2 POP PUSH1 0x1F NOT PUSH1 0x3F RETURNDATASIZE ADD AND DUP3 ADD PUSH1 0x40 MSTORE RETURNDATASIZE DUP3 MSTORE RETURNDATASIZE PUSH0 PUSH1 0x20 DUP5 ADD RETURNDATACOPY PUSH2 0x3D00 JUMP JUMPDEST PUSH1 0x60 SWAP2 POP JUMPDEST POP SWAP2 POP SWAP2 POP DUP2 DUP1 ISZERO PUSH2 0x3D2D JUMPI POP PUSH0 DUP2 MLOAD EQ DUP1 PUSH2 0x3D2C JUMPI POP DUP1 DUP1 PUSH1 0x20 ADD SWAP1 MLOAD DUP2 ADD SWAP1 PUSH2 0x3D2B SWAP2 SWAP1 PUSH2 0x5C9D JUMP JUMPDEST JUMPDEST JUMPDEST PUSH2 0x3D6C JUMPI PUSH1 0x40 MLOAD PUSH32 0x8C379A000000000000000000000000000000000000000000000000000000000 DUP2 MSTORE PUSH1 0x4 ADD PUSH2 0x3D63 SWAP1 PUSH2 0x5D12 JUMP JUMPDEST PUSH1 0x40 MLOAD DUP1 SWAP2 SUB SWAP1 REVERT JUMPDEST POP POP POP POP POP JUMP JUMPDEST PUSH1 0x60 PUSH0 DUP5 MLOAD SWAP1 POP DUP1 PUSH8 0xFFFFFFFFFFFFFFFF DUP2 GT ISZERO PUSH2 0x3D94 JUMPI PUSH2 0x3D93 PUSH2 0x45FF JUMP JUMPDEST JUMPDEST PUSH1 0x40 MLOAD SWAP1 DUP1 DUP3 MSTORE DUP1 PUSH1 0x20 MUL PUSH1 0x20 ADD DUP3 ADD PUSH1 0x40 MSTORE DUP1 ISZERO PUSH2 0x3DC2 JUMPI DUP2 PUSH1 0x20 ADD PUSH1 0x20 DUP3 MUL DUP1 CALLDATASIZE DUP4 CALLDATACOPY DUP1 DUP3 ADD SWAP2 POP POP SWAP1 POP JUMPDEST POP SWAP2 POP PUSH0 DUP2 EQ DUP1 PUSH2 0x3DD2 JUMPI POP PUSH0 DUP5 EQ JUMPDEST ISZERO PUSH2 0x3DDD JUMPI POP PUSH2 0x4374 JUMP JUMPDEST PUSH0 PUSH0 PUSH0 SWAP1 POP JUMPDEST DUP3 DUP2 LT ISZERO PUSH2 0x3E1E JUMPI DUP7 DUP2 DUP2 MLOAD DUP2 LT PUSH2 0x3DFE JUMPI PUSH2 0x3DFD PUSH2 0x54FF JUMP JUMPDEST JUMPDEST PUSH1 0x20 MUL PUSH1 0x20 ADD ADD MLOAD DUP3 PUSH2 0x3E11 SWAP2 SWAP1 PUSH2 0x599D JUMP JUMPDEST SWAP2 POP DUP1 PUSH1 0x1 ADD SWAP1 POP PUSH2 0x3DE3 JUMP JUMPDEST POP PUSH0 DUP2 SUB PUSH2 0x3E2D JUMPI POP POP PUSH2 0x4374 JUMP JUMPDEST PUSH0 DUP3 DUP6 MLOAD EQ SWAP1 POP PUSH0 PUSH0 DUP5 PUSH8 0xFFFFFFFFFFFFFFFF DUP2 GT ISZERO PUSH2 0x3E50 JUMPI PUSH2 0x3E4F PUSH2 0x45FF JUMP JUMPDEST JUMPDEST PUSH1 0x40 MLOAD SWAP1 DUP1 DUP3 MSTORE DUP1 PUSH1 0x20 MUL PUSH1 0x20 ADD DUP3 ADD PUSH1 0x40 MSTORE DUP1 ISZERO PUSH2 0x3E7E JUMPI DUP2 PUSH1 0x20 ADD PUSH1 0x20 DUP3 MUL DUP1 CALLDATASIZE DUP4 CALLDATACOPY DUP1 DUP3 ADD SWAP2 POP POP SWAP1 POP JUMPDEST POP SWAP1 POP PUSH0 PUSH0 SWAP1 POP JUMPDEST DUP6 DUP2 LT ISZERO PUSH2 0x3FA1 JUMPI PUSH0 DUP11 DUP3 DUP2 MLOAD DUP2 LT PUSH2 0x3EA2 JUMPI PUSH2 0x3EA1 PUSH2 0x54FF JUMP JUMPDEST JUMPDEST PUSH1 0x20 MUL PUSH1 0x20 ADD ADD MLOAD SWAP1 POP PUSH0 DUP2 SUB PUSH2 0x3EBF JUMPI DUP2 PUSH1 0x1 ADD SWAP2 POP POP PUSH2 0x3F9C JUMP JUMPDEST PUSH0 DUP11 DUP3 PUSH2 0x3ECC SWAP2 SWAP1 PUSH2 0x58FF JUMP JUMPDEST SWAP1 POP PUSH0 DUP8 DUP3 PUSH2 0x3EDB SWAP2 SWAP1 PUSH2 0x596D JUMP JUMPDEST SWAP1 POP PUSH0 DUP9 DUP3 PUSH2 0x3EEA SWAP2 SWAP1 PUSH2 0x58FF JUMP JUMPDEST DUP4 PUSH2 0x3EF5 SWAP2 SWAP1 PUSH2 0x54A5 JUMP JUMPDEST SWAP1 POP DUP8 DUP1 ISZERO PUSH2 0x3F1D JUMPI POP DUP12 DUP6 DUP2 MLOAD DUP2 LT PUSH2 0x3F12 JUMPI PUSH2 0x3F11 PUSH2 0x54FF JUMP JUMPDEST JUMPDEST PUSH1 0x20 MUL PUSH1 0x20 ADD ADD MLOAD DUP3 GT JUMPDEST ISZERO PUSH2 0x3F43 JUMPI DUP12 DUP6 DUP2 MLOAD DUP2 LT PUSH2 0x3F35 JUMPI PUSH2 0x3F34 PUSH2 0x54FF JUMP JUMPDEST JUMPDEST PUSH1 0x20 MUL PUSH1 0x20 ADD ADD MLOAD SWAP2 POP PUSH0 SWAP1 POP JUMPDEST DUP2 DUP12 DUP7 DUP2 MLOAD DUP2 LT PUSH2 0x3F57 JUMPI PUSH2 0x3F56 PUSH2 0x54FF JUMP JUMPDEST JUMPDEST PUSH1 0x20 MUL PUSH1 0x20 ADD ADD DUP2 DUP2 MSTORE POP POP DUP1 DUP7 DUP7 DUP2 MLOAD DUP2 LT PUSH2 0x3F77 JUMPI PUSH2 0x3F76 PUSH2 0x54FF JUMP JUMPDEST JUMPDEST PUSH1 0x20 MUL PUSH1 0x20 ADD ADD DUP2 DUP2 MSTORE POP POP DUP2 DUP8 PUSH2 0x3F8F SWAP2 SWAP1 PUSH2 0x599D JUMP JUMPDEST SWAP7 POP DUP5 PUSH1 0x1 ADD SWAP5 POP POP POP POP POP JUMPDEST PUSH2 0x3E86 JUMP JUMPDEST POP DUP8 DUP3 SUB PUSH2 0x3FB3 JUMPI POP POP POP POP POP PUSH2 0x4374 JUMP JUMPDEST DUP8 DUP3 GT ISZERO PUSH2 0x4153 JUMPI PUSH0 DUP9 DUP4 PUSH2 0x3FC8 SWAP2 SWAP1 PUSH2 0x54A5 JUMP JUMPDEST SWAP1 POP JUMPDEST PUSH0 DUP2 EQ PUSH2 0x4148 JUMPI PUSH0 PUSH32 0xFFFFFFFFFFFFFFFFFFFFFFFFFFFFFFFFFFFFFFFFFFFFFFFFFFFFFFFFFFFFFFFF SWAP1 POP PUSH0 PUSH32 0xFFFFFFFFFFFFFFFFFFFFFFFFFFFFFFFFFFFFFFFFFFFFFFFFFFFFFFFFFFFFFFFF SWAP1 POP PUSH0 PUSH0 SWAP1 POP JUMPDEST DUP9 DUP2 LT ISZERO PUSH2 0x409B JUMPI PUSH0 DUP11 DUP3 DUP2 MLOAD DUP2 LT PUSH2 0x403B JUMPI PUSH2 0x403A PUSH2 0x54FF JUMP JUMPDEST JUMPDEST PUSH1 0x20 MUL PUSH1 0x20 ADD ADD MLOAD EQ ISZERO DUP1 ISZERO PUSH2 0x406A JUMPI POP DUP2 DUP6 DUP3 DUP2 MLOAD DUP2 LT PUSH2 0x4060 JUMPI PUSH2 0x405F PUSH2 0x54FF JUMP JUMPDEST JUMPDEST PUSH1 0x20 MUL PUSH1 0x20 ADD ADD MLOAD LT JUMPDEST ISZERO PUSH2 0x4090 JUMPI DUP5 DUP2 DUP2 MLOAD DUP2 LT PUSH2 0x4082 JUMPI PUSH2 0x4081 PUSH2 0x54FF JUMP JUMPDEST JUMPDEST PUSH1 0x20 MUL PUSH1 0x20 ADD ADD MLOAD SWAP2 POP DUP1 SWAP3 POP JUMPDEST DUP1 PUSH1 0x1 ADD SWAP1 POP PUSH2 0x401F JUMP JUMPDEST POP PUSH32 0xFFFFFFFFFFFFFFFFFFFFFFFFFFFFFFFFFFFFFFFFFFFFFFFFFFFFFFFFFFFFFFFF DUP3 SUB PUSH2 0x40CA JUMPI POP POP PUSH2 0x4148 JUMP JUMPDEST PUSH1 0x1 DUP10 DUP4 DUP2 MLOAD DUP2 LT PUSH2 0x40DF JUMPI PUSH2 0x40DE PUSH2 0x54FF JUMP JUMPDEST JUMPDEST PUSH1 0x20 MUL PUSH1 0x20 ADD ADD DUP2 DUP2 MLOAD PUSH2 0x40F3 SWAP2 SWAP1 PUSH2 0x54A5 JUMP JUMPDEST SWAP2 POP DUP2 DUP2 MSTORE POP POP PUSH32 0xFFFFFFFFFFFFFFFFFFFFFFFFFFFFFFFFFFFFFFFFFFFFFFFFFFFFFFFFFFFFFFFF DUP5 DUP4 DUP2 MLOAD DUP2 LT PUSH2 0x412E JUMPI PUSH2 0x412D PUSH2 0x54FF JUMP JUMPDEST JUMPDEST PUSH1 0x20 MUL PUSH1 0x20 ADD ADD DUP2 DUP2 MSTORE POP POP DUP3 PUSH1 0x1 SWAP1 SUB SWAP3 POP POP POP PUSH2 0x3FCB JUMP JUMPDEST POP POP POP POP POP POP PUSH2 0x4374 JUMP JUMPDEST PUSH0 DUP3 DUP10 PUSH2 0x4160 SWAP2 SWAP1 PUSH2 0x54A5 JUMP JUMPDEST SWAP1 POP JUMPDEST PUSH0 DUP2 EQ PUSH2 0x436D JUMPI PUSH0 PUSH32 0xFFFFFFFFFFFFFFFFFFFFFFFFFFFFFFFFFFFFFFFFFFFFFFFFFFFFFFFFFFFFFFFF SWAP1 POP PUSH0 PUSH0 SWAP1 POP PUSH0 PUSH0 SWAP1 POP JUMPDEST DUP9 DUP2 LT ISZERO PUSH2 0x4233 JUMPI DUP7 ISZERO DUP1 PUSH2 0x41DF JUMPI POP DUP11 DUP2 DUP2 MLOAD DUP2 LT PUSH2 0x41BA JUMPI PUSH2 0x41B9 PUSH2 0x54FF JUMP JUMPDEST JUMPDEST PUSH1 0x20 MUL PUSH1 0x20 ADD ADD MLOAD DUP11 DUP3 DUP2 MLOAD DUP2 LT PUSH2 0x41D5 JUMPI PUSH2 0x41D4 PUSH2 0x54FF JUMP JUMPDEST JUMPDEST PUSH1 0x20 MUL PUSH1 0x20 ADD ADD MLOAD LT JUMPDEST ISZERO PUSH2 0x4228 JUMPI DUP2 DUP6 DUP3 DUP2 MLOAD DUP2 LT PUSH2 0x41F8 JUMPI PUSH2 0x41F7 PUSH2 0x54FF JUMP JUMPDEST JUMPDEST PUSH1 0x20 MUL PUSH1 0x20 ADD ADD MLOAD GT ISZERO PUSH2 0x4227 JUMPI DUP5 DUP2 DUP2 MLOAD DUP2 LT PUSH2 0x4219 JUMPI PUSH2 0x4218 PUSH2 0x54FF JUMP JUMPDEST JUMPDEST PUSH1 0x20 MUL PUSH1 0x20 ADD ADD MLOAD SWAP2 POP DUP1 SWAP3 POP JUMPDEST JUMPDEST DUP1 PUSH1 0x1 ADD SWAP1 POP PUSH2 0x4197 JUMP JUMPDEST POP PUSH32 0xFFFFFFFFFFFFFFFFFFFFFFFFFFFFFFFFFFFFFFFFFFFFFFFFFFFFFFFFFFFFFFFF DUP3 EQ DUP1 PUSH2 0x4261 JUMPI POP PUSH0 DUP2 EQ JUMPDEST ISZERO PUSH2 0x430F JUMPI PUSH0 PUSH0 SWAP1 POP JUMPDEST DUP9 DUP2 LT DUP1 ISZERO PUSH2 0x427A JUMPI POP PUSH0 DUP5 EQ ISZERO JUMPDEST ISZERO PUSH2 0x4307 JUMPI DUP7 ISZERO DUP1 PUSH2 0x42BF JUMPI POP DUP11 DUP2 DUP2 MLOAD DUP2 LT PUSH2 0x429A JUMPI PUSH2 0x4299 PUSH2 0x54FF JUMP JUMPDEST JUMPDEST PUSH1 0x20 MUL PUSH1 0x20 ADD ADD MLOAD DUP11 DUP3 DUP2 MLOAD DUP2 LT PUSH2 0x42B5 JUMPI PUSH2 0x42B4 PUSH2 0x54FF JUMP JUMPDEST JUMPDEST PUSH1 0x20 MUL PUSH1 0x20 ADD ADD MLOAD LT JUMPDEST ISZERO PUSH2 0x42FC JUMPI PUSH1 0x1 DUP11 DUP3 DUP2 MLOAD DUP2 LT PUSH2 0x42D9 JUMPI PUSH2 0x42D8 PUSH2 0x54FF JUMP JUMPDEST JUMPDEST PUSH1 0x20 MUL PUSH1 0x20 ADD ADD DUP2 DUP2 MLOAD PUSH2 0x42ED SWAP2 SWAP1 PUSH2 0x599D JUMP JUMPDEST SWAP2 POP DUP2 DUP2 MSTORE POP POP DUP4 PUSH1 0x1 SWAP1 SUB SWAP4 POP JUMPDEST DUP1 PUSH1 0x1 ADD SWAP1 POP PUSH2 0x426B JUMP JUMPDEST POP POP POP PUSH2 0x436D JUMP JUMPDEST PUSH1 0x1 DUP10 DUP4 DUP2 MLOAD DUP2 LT PUSH2 0x4324 JUMPI PUSH2 0x4323 PUSH2 0x54FF JUMP JUMPDEST JUMPDEST PUSH1 0x20 MUL PUSH1 0x20 ADD ADD DUP2 DUP2 MLOAD PUSH2 0x4338 SWAP2 SWAP1 PUSH2 0x599D JUMP JUMPDEST SWAP2 POP DUP2 DUP2 MSTORE POP POP PUSH0 DUP5 DUP4 DUP2 MLOAD DUP2 LT PUSH2 0x4353 JUMPI PUSH2 0x4352 PUSH2 0x54FF JUMP JUMPDEST JUMPDEST PUSH1 0x20 MUL PUSH1 0x20 ADD ADD DUP2 DUP2 MSTORE POP POP DUP3 PUSH1 0x1 SWAP1 SUB SWAP3 POP POP POP PUSH2 0x4163 JUMP JUMPDEST POP POP POP POP POP POP JUMPDEST SWAP4 SWAP3 POP POP POP JUMP JUMPDEST PUSH1 0x40 MLOAD DUP1 PUSH1 0x40 ADD PUSH1 0x40 MSTORE DUP1 PUSH0 PUSH20 0xFFFFFFFFFFFFFFFFFFFFFFFFFFFFFFFFFFFFFFFF AND DUP2 MSTORE PUSH1 0x20 ADD PUSH0 DUP2 MSTORE POP SWAP1 JUMP JUMPDEST PUSH1 0x40 MLOAD DUP1 PUSH1 0x40 ADD PUSH1 0x40 MSTORE DUP1 PUSH0 PUSH20 0xFFFFFFFFFFFFFFFFFFFFFFFFFFFFFFFFFFFFFFFF AND DUP2 MSTORE PUSH1 0x20 ADD PUSH0 PUSH2 0xFFFF AND DUP2 MSTORE POP SWAP1 JUMP JUMPDEST PUSH1 0x40 MLOAD DUP1 PUSH1 0x60 ADD PUSH1 0x40 MSTORE DUP1 PUSH1 0x60 DUP2 MSTORE PUSH1 0x20 ADD PUSH0 DUP2 MSTORE PUSH1 0x20 ADD PUSH0 DUP2 MSTORE POP SWAP1 JUMP JUMPDEST PUSH1 0x40 MLOAD DUP1 PUSH1 0x40 ADD PUSH1 0x40 MSTORE DUP1 PUSH0 PUSH20 0xFFFFFFFFFFFFFFFFFFFFFFFFFFFFFFFFFFFFFFFF AND DUP2 MSTORE PUSH1 0x20 ADD PUSH0 DUP2 MSTORE POP SWAP1 JUMP JUMPDEST PUSH1 0x40 MLOAD DUP1 PUSH1 0xE0 ADD PUSH1 0x40 MSTORE DUP1 PUSH1 0x60 DUP2 MSTORE PUSH1 0x20 ADD PUSH1 0x60 DUP2 MSTORE PUSH1 0x20 ADD PUSH1 0x60 DUP2 MSTORE PUSH1 0x20 ADD PUSH1 0x60 DUP2 MSTORE PUSH1 0x20 ADD PUSH1 0x60 DUP2 MSTORE PUSH1 0x20 ADD PUSH0 DUP2 MSTORE PUSH1 0x20 ADD PUSH0 DUP2 MSTORE POP SWAP1 JUMP JUMPDEST PUSH0 PUSH4 0xFFFFFFFF DUP3 AND SWAP1 POP SWAP2 SWAP1 POP JUMP JUMPDEST PUSH2 0x447B DUP2 PUSH2 0x4463 JUMP JUMPDEST DUP3 MSTORE POP POP JUMP JUMPDEST PUSH0 PUSH1 0x20 DUP3 ADD SWAP1 POP PUSH2 0x4494 PUSH0 DUP4 ADD DUP5 PUSH2 0x4472 JUMP JUMPDEST SWAP3 SWAP2 POP POP JUMP JUMPDEST PUSH0 PUSH1 0x40 MLOAD SWAP1 POP SWAP1 JUMP JUMPDEST PUSH0 PUSH0 REVERT JUMPDEST PUSH0 PUSH0 REVERT JUMPDEST PUSH0 PUSH20 0xFFFFFFFFFFFFFFFFFFFFFFFFFFFFFFFFFFFFFFFF DUP3 AND SWAP1 POP SWAP2 SWAP1 POP JUMP JUMPDEST PUSH0 PUSH2 0x44D4 DUP3 PUSH2 0x44AB JUMP JUMPDEST SWAP1 POP SWAP2 SWAP1 POP JUMP JUMPDEST PUSH2 0x44E4 DUP2 PUSH2 0x44CA JUMP JUMPDEST DUP2 EQ PUSH2 0x44EE JUMPI PUSH0 PUSH0 REVERT JUMPDEST POP JUMP JUMPDEST PUSH0 DUP2 CALLDATALOAD SWAP1 POP PUSH2 0x44FF DUP2 PUSH2 0x44DB JUMP JUMPDEST SWAP3 SWAP2 POP POP JUMP JUMPDEST PUSH0 PUSH0 PUSH1 0x40 DUP4 DUP6 SUB SLT ISZERO PUSH2 0x451B JUMPI PUSH2 0x451A PUSH2 0x44A3 JUMP JUMPDEST JUMPDEST PUSH0 PUSH2 0x4528 DUP6 DUP3 DUP7 ADD PUSH2 0x44F1 JUMP JUMPDEST SWAP3 POP POP PUSH1 0x20 PUSH2 0x4539 DUP6 DUP3 DUP7 ADD PUSH2 0x44F1 JUMP JUMPDEST SWAP2 POP POP SWAP3 POP SWAP3 SWAP1 POP JUMP JUMPDEST PUSH0 DUP2 ISZERO ISZERO SWAP1 POP SWAP2 SWAP1 POP JUMP JUMPDEST PUSH2 0x4557 DUP2 PUSH2 0x4543 JUMP JUMPDEST DUP3 MSTORE POP POP JUMP JUMPDEST PUSH0 PUSH1 0x20 DUP3 ADD SWAP1 POP PUSH2 0x4570 PUSH0 DUP4 ADD DUP5 PUSH2 0x454E JUMP JUMPDEST SWAP3 SWAP2 POP POP JUMP JUMPDEST PUSH0 DUP2 SWAP1 POP SWAP2 SWAP1 POP JUMP JUMPDEST PUSH2 0x4588 DUP2 PUSH2 0x4576 JUMP JUMPDEST DUP2 EQ PUSH2 0x4592 JUMPI PUSH0 PUSH0 REVERT JUMPDEST POP JUMP JUMPDEST PUSH0 DUP2 CALLDATALOAD SWAP1 POP PUSH2 0x45A3 DUP2 PUSH2 0x457F JUMP JUMPDEST SWAP3 SWAP2 POP POP JUMP JUMPDEST PUSH0 PUSH0 PUSH1 0x40 DUP4 DUP6 SUB SLT ISZERO PUSH2 0x45BF JUMPI PUSH2 0x45BE PUSH2 0x44A3 JUMP JUMPDEST JUMPDEST PUSH0 PUSH2 0x45CC DUP6 DUP3 DUP7 ADD PUSH2 0x4595 JUMP JUMPDEST SWAP3 POP POP PUSH1 0x20 PUSH2 0x45DD DUP6 DUP3 DUP7 ADD PUSH2 0x44F1 JUMP JUMPDEST SWAP2 POP POP SWAP3 POP SWAP3 SWAP1 POP JUMP JUMPDEST PUSH0 PUSH0 REVERT JUMPDEST PUSH0 PUSH0 REVERT JUMPDEST PUSH0 PUSH1 0x1F NOT PUSH1 0x1F DUP4 ADD AND SWAP1 POP SWAP2 SWAP1 POP JUMP JUMPDEST PUSH32 0x4E487B7100000000000000000000000000000000000000000000000000000000 PUSH0 MSTORE PUSH1 0x41 PUSH1 0x4 MSTORE PUSH1 0x24 PUSH0 REVERT JUMPDEST PUSH2 0x4635 DUP3 PUSH2 0x45EF JUMP JUMPDEST DUP2 ADD DUP2 DUP2 LT PUSH8 0xFFFFFFFFFFFFFFFF DUP3 GT OR ISZERO PUSH2 0x4654 JUMPI PUSH2 0x4653 PUSH2 0x45FF JUMP JUMPDEST JUMPDEST DUP1 PUSH1 0x40 MSTORE POP POP POP JUMP JUMPDEST PUSH0 PUSH2 0x4666 PUSH2 0x449A JUMP JUMPDEST SWAP1 POP PUSH2 0x4672 DUP3 DUP3 PUSH2 0x462C JUMP JUMPDEST SWAP2 SWAP1 POP JUMP JUMPDEST PUSH0 PUSH8 0xFFFFFFFFFFFFFFFF DUP3 GT ISZERO PUSH2 0x4691 JUMPI PUSH2 0x4690 PUSH2 0x45FF JUMP JUMPDEST JUMPDEST PUSH2 0x469A DUP3 PUSH2 0x45EF JUMP JUMPDEST SWAP1 POP PUSH1 0x20 DUP2 ADD SWAP1 POP SWAP2 SWAP1 POP JUMP JUMPDEST DUP3 DUP2 DUP4 CALLDATACOPY PUSH0 DUP4 DUP4 ADD MSTORE POP POP POP JUMP JUMPDEST PUSH0 PUSH2 0x46C7 PUSH2 0x46C2 DUP5 PUSH2 0x4677 JUMP JUMPDEST PUSH2 0x465D JUMP JUMPDEST SWAP1 POP DUP3 DUP2 MSTORE PUSH1 0x20 DUP2 ADD DUP5 DUP5 DUP5 ADD GT ISZERO PUSH2 0x46E3 JUMPI PUSH2 0x46E2 PUSH2 0x45EB JUMP JUMPDEST JUMPDEST PUSH2 0x46EE DUP5 DUP3 DUP6 PUSH2 0x46A7 JUMP JUMPDEST POP SWAP4 SWAP3 POP POP POP JUMP JUMPDEST PUSH0 DUP3 PUSH1 0x1F DUP4 ADD SLT PUSH2 0x470A JUMPI PUSH2 0x4709 PUSH2 0x45E7 JUMP JUMPDEST JUMPDEST DUP2 CALLDATALOAD PUSH2 0x471A DUP5 DUP3 PUSH1 0x20 DUP7 ADD PUSH2 0x46B5 JUMP JUMPDEST SWAP2 POP POP SWAP3 SWAP2 POP POP JUMP JUMPDEST PUSH0 PUSH1 0x20 DUP3 DUP5 SUB SLT ISZERO PUSH2 0x4738 JUMPI PUSH2 0x4737 PUSH2 0x44A3 JUMP JUMPDEST JUMPDEST PUSH0 DUP3 ADD CALLDATALOAD PUSH8 0xFFFFFFFFFFFFFFFF DUP2 GT ISZERO PUSH2 0x4755 JUMPI PUSH2 0x4754 PUSH2 0x44A7 JUMP JUMPDEST JUMPDEST PUSH2 0x4761 DUP5 DUP3 DUP6 ADD PUSH2 0x46F6 JUMP JUMPDEST SWAP2 POP POP SWAP3 SWAP2 POP POP JUMP JUMPDEST PUSH2 0x4773 DUP2 PUSH2 0x44CA JUMP JUMPDEST DUP3 MSTORE POP POP JUMP JUMPDEST PUSH0 PUSH1 0x20 DUP3 ADD SWAP1 POP PUSH2 0x478C PUSH0 DUP4 ADD DUP5 PUSH2 0x476A JUMP JUMPDEST SWAP3 SWAP2 POP POP JUMP JUMPDEST PUSH0 PUSH2 0xFFFF DUP3 AND SWAP1 POP SWAP2 SWAP1 POP JUMP JUMPDEST PUSH2 0x47A8 DUP2 PUSH2 0x4792 JUMP JUMPDEST DUP3 MSTORE POP POP JUMP JUMPDEST PUSH0 PUSH1 0x20 DUP3 ADD SWAP1 POP PUSH2 0x47C1 PUSH0 DUP4 ADD DUP5 PUSH2 0x479F JUMP JUMPDEST SWAP3 SWAP2 POP POP JUMP JUMPDEST PUSH0 DUP2 SWAP1 POP SWAP2 SWAP1 POP JUMP JUMPDEST PUSH0 PUSH2 0x47EA PUSH2 0x47E5 PUSH2 0x47E0 DUP5 PUSH2 0x44AB JUMP JUMPDEST PUSH2 0x47C7 JUMP JUMPDEST PUSH2 0x44AB JUMP JUMPDEST SWAP1 POP SWAP2 SWAP1 POP JUMP JUMPDEST PUSH0 PUSH2 0x47FB DUP3 PUSH2 0x47D0 JUMP JUMPDEST SWAP1 POP SWAP2 SWAP1 POP JUMP JUMPDEST PUSH0 PUSH2 0x480C DUP3 PUSH2 0x47F1 JUMP JUMPDEST SWAP1 POP SWAP2 SWAP1 POP JUMP JUMPDEST PUSH2 0x481C DUP2 PUSH2 0x4802 JUMP JUMPDEST DUP3 MSTORE POP POP JUMP JUMPDEST PUSH0 PUSH1 0x20 DUP3 ADD SWAP1 POP PUSH2 0x4835 PUSH0 DUP4 ADD DUP5 PUSH2 0x4813 JUMP JUMPDEST SWAP3 SWAP2 POP POP JUMP JUMPDEST PUSH2 0x4844 DUP2 PUSH2 0x4543 JUMP JUMPDEST DUP2 EQ PUSH2 0x484E JUMPI PUSH0 PUSH0 REVERT JUMPDEST POP JUMP JUMPDEST PUSH0 DUP2 CALLDATALOAD SWAP1 POP PUSH2 0x485F DUP2 PUSH2 0x483B JUMP JUMPDEST SWAP3 SWAP2 POP POP JUMP JUMPDEST PUSH0 PUSH1 0x20 DUP3 DUP5 SUB SLT ISZERO PUSH2 0x487A JUMPI PUSH2 0x4879 PUSH2 0x44A3 JUMP JUMPDEST JUMPDEST PUSH0 PUSH2 0x4887 DUP5 DUP3 DUP6 ADD PUSH2 0x4851 JUMP JUMPDEST SWAP2 POP POP SWAP3 SWAP2 POP POP JUMP JUMPDEST PUSH2 0x4899 DUP2 PUSH2 0x4792 JUMP JUMPDEST DUP2 EQ PUSH2 0x48A3 JUMPI PUSH0 PUSH0 REVERT JUMPDEST POP JUMP JUMPDEST PUSH0 DUP2 CALLDATALOAD SWAP1 POP PUSH2 0x48B4 DUP2 PUSH2 0x4890 JUMP JUMPDEST SWAP3 SWAP2 POP POP JUMP JUMPDEST PUSH0 PUSH1 0x20 DUP3 DUP5 SUB SLT ISZERO PUSH2 0x48CF JUMPI PUSH2 0x48CE PUSH2 0x44A3 JUMP JUMPDEST JUMPDEST PUSH0 PUSH2 0x48DC DUP5 DUP3 DUP6 ADD PUSH2 0x48A6 JUMP JUMPDEST SWAP2 POP POP SWAP3 SWAP2 POP POP JUMP JUMPDEST PUSH0 PUSH1 0x20 DUP3 DUP5 SUB SLT ISZERO PUSH2 0x48FA JUMPI PUSH2 0x48F9 PUSH2 0x44A3 JUMP JUMPDEST JUMPDEST PUSH0 PUSH2 0x4907 DUP5 DUP3 DUP6 ADD PUSH2 0x44F1 JUMP JUMPDEST SWAP2 POP POP SWAP3 SWAP2 POP POP JUMP JUMPDEST PUSH2 0x4919 DUP2 PUSH2 0x4463 JUMP JUMPDEST DUP2 EQ PUSH2 0x4923 JUMPI PUSH0 PUSH0 REVERT JUMPDEST POP JUMP JUMPDEST PUSH0 DUP2 CALLDATALOAD SWAP1 POP PUSH2 0x4934 DUP2 PUSH2 0x4910 JUMP JUMPDEST SWAP3 SWAP2 POP POP JUMP JUMPDEST PUSH0 PUSH1 0x20 DUP3 DUP5 SUB SLT ISZERO PUSH2 0x494F JUMPI PUSH2 0x494E PUSH2 0x44A3 JUMP JUMPDEST JUMPDEST PUSH0 PUSH2 0x495C DUP5 DUP3 DUP6 ADD PUSH2 0x4926 JUMP JUMPDEST SWAP2 POP POP SWAP3 SWAP2 POP POP JUMP JUMPDEST PUSH0 PUSH2 0x496F DUP3 PUSH2 0x44AB JUMP JUMPDEST SWAP1 POP SWAP2 SWAP1 POP JUMP JUMPDEST PUSH2 0x497F DUP2 PUSH2 0x4965 JUMP JUMPDEST DUP2 EQ PUSH2 0x4989 JUMPI PUSH0 PUSH0 REVERT JUMPDEST POP JUMP JUMPDEST PUSH0 DUP2 CALLDATALOAD SWAP1 POP PUSH2 0x499A DUP2 PUSH2 0x4976 JUMP JUMPDEST SWAP3 SWAP2 POP POP JUMP JUMPDEST PUSH0 PUSH0 PUSH0 PUSH1 0x60 DUP5 DUP7 SUB SLT ISZERO PUSH2 0x49B7 JUMPI PUSH2 0x49B6 PUSH2 0x44A3 JUMP JUMPDEST JUMPDEST PUSH0 PUSH2 0x49C4 DUP7 DUP3 DUP8 ADD PUSH2 0x4595 JUMP JUMPDEST SWAP4 POP POP PUSH1 0x20 PUSH2 0x49D5 DUP7 DUP3 DUP8 ADD PUSH2 0x4595 JUMP JUMPDEST SWAP3 POP POP PUSH1 0x40 PUSH2 0x49E6 DUP7 DUP3 DUP8 ADD PUSH2 0x498C JUMP JUMPDEST SWAP2 POP POP SWAP3 POP SWAP3 POP SWAP3 JUMP JUMPDEST PUSH0 PUSH1 0x20 DUP3 DUP5 SUB SLT ISZERO PUSH2 0x4A05 JUMPI PUSH2 0x4A04 PUSH2 0x44A3 JUMP JUMPDEST JUMPDEST PUSH0 PUSH2 0x4A12 DUP5 DUP3 DUP6 ADD PUSH2 0x4595 JUMP JUMPDEST SWAP2 POP POP SWAP3 SWAP2 POP POP JUMP JUMPDEST PUSH0 DUP2 MLOAD SWAP1 POP PUSH2 0x4A29 DUP2 PUSH2 0x44DB JUMP JUMPDEST SWAP3 SWAP2 POP POP JUMP JUMPDEST PUSH0 PUSH1 0x20 DUP3 DUP5 SUB SLT ISZERO PUSH2 0x4A44 JUMPI PUSH2 0x4A43 PUSH2 0x44A3 JUMP JUMPDEST JUMPDEST PUSH0 PUSH2 0x4A51 DUP5 DUP3 DUP6 ADD PUSH2 0x4A1B JUMP JUMPDEST SWAP2 POP POP SWAP3 SWAP2 POP POP JUMP JUMPDEST PUSH0 DUP3 DUP3 MSTORE PUSH1 0x20 DUP3 ADD SWAP1 POP SWAP3 SWAP2 POP POP JUMP JUMPDEST PUSH32 0x43616C6C6572206973206E6F7420746865206F776E6572000000000000000000 PUSH0 DUP3 ADD MSTORE POP JUMP JUMPDEST PUSH0 PUSH2 0x4A9E PUSH1 0x17 DUP4 PUSH2 0x4A5A JUMP JUMPDEST SWAP2 POP PUSH2 0x4AA9 DUP3 PUSH2 0x4A6A JUMP JUMPDEST PUSH1 0x20 DUP3 ADD SWAP1 POP SWAP2 SWAP1 POP JUMP JUMPDEST PUSH0 PUSH1 0x20 DUP3 ADD SWAP1 POP DUP2 DUP2 SUB PUSH0 DUP4 ADD MSTORE PUSH2 0x4ACB DUP2 PUSH2 0x4A92 JUMP JUMPDEST SWAP1 POP SWAP2 SWAP1 POP JUMP JUMPDEST PUSH32 0x436F6E7472616374206973206E6F742061637469766500000000000000000000 PUSH0 DUP3 ADD MSTORE POP JUMP JUMPDEST PUSH0 PUSH2 0x4B06 PUSH1 0x16 DUP4 PUSH2 0x4A5A JUMP JUMPDEST SWAP2 POP PUSH2 0x4B11 DUP3 PUSH2 0x4AD2 JUMP JUMPDEST PUSH1 0x20 DUP3 ADD SWAP1 POP SWAP2 SWAP1 POP JUMP JUMPDEST PUSH0 PUSH1 0x20 DUP3 ADD SWAP1 POP DUP2 DUP2 SUB PUSH0 DUP4 ADD MSTORE PUSH2 0x4B33 DUP2 PUSH2 0x4AFA JUMP JUMPDEST SWAP1 POP SWAP2 SWAP1 POP JUMP JUMPDEST PUSH2 0x4B43 DUP2 PUSH2 0x4576 JUMP JUMPDEST DUP3 MSTORE POP POP JUMP JUMPDEST PUSH0 PUSH1 0x20 DUP3 ADD SWAP1 POP PUSH2 0x4B5C PUSH0 DUP4 ADD DUP5 PUSH2 0x4B3A JUMP JUMPDEST SWAP3 SWAP2 POP POP JUMP JUMPDEST PUSH0 PUSH0 REVERT JUMPDEST PUSH0 PUSH0 REVERT JUMPDEST DUP3 DUP2 DUP4 MCOPY PUSH0 DUP4 DUP4 ADD MSTORE POP POP POP JUMP JUMPDEST PUSH0 PUSH2 0x4B8A PUSH2 0x4B85 DUP5 PUSH2 0x4677 JUMP JUMPDEST PUSH2 0x465D JUMP JUMPDEST SWAP1 POP DUP3 DUP2 MSTORE PUSH1 0x20 DUP2 ADD DUP5 DUP5 DUP5 ADD GT ISZERO PUSH2 0x4BA6 JUMPI PUSH2 0x4BA5 PUSH2 0x45EB JUMP JUMPDEST JUMPDEST PUSH2 0x4BB1 DUP5 DUP3 DUP6 PUSH2 0x4B6A JUMP JUMPDEST POP SWAP4 SWAP3 POP POP POP JUMP JUMPDEST PUSH0 DUP3 PUSH1 0x1F DUP4 ADD SLT PUSH2 0x4BCD JUMPI PUSH2 0x4BCC PUSH2 0x45E7 JUMP JUMPDEST JUMPDEST DUP2 MLOAD PUSH2 0x4BDD DUP5 DUP3 PUSH1 0x20 DUP7 ADD PUSH2 0x4B78 JUMP JUMPDEST SWAP2 POP POP SWAP3 SWAP2 POP POP JUMP JUMPDEST PUSH0 PUSH8 0xFFFFFFFFFFFFFFFF DUP3 GT ISZERO PUSH2 0x4C00 JUMPI PUSH2 0x4BFF PUSH2 0x45FF JUMP JUMPDEST JUMPDEST PUSH1 0x20 DUP3 MUL SWAP1 POP PUSH1 0x20 DUP2 ADD SWAP1 POP SWAP2 SWAP1 POP JUMP JUMPDEST PUSH0 PUSH0 REVERT JUMPDEST PUSH0 DUP2 MLOAD SWAP1 POP PUSH2 0x4C23 DUP2 PUSH2 0x4890 JUMP JUMPDEST SWAP3 SWAP2 POP POP JUMP JUMPDEST PUSH0 PUSH1 0x40 DUP3 DUP5 SUB SLT ISZERO PUSH2 0x4C3E JUMPI PUSH2 0x4C3D PUSH2 0x4B62 JUMP JUMPDEST JUMPDEST PUSH2 0x4C48 PUSH1 0x40 PUSH2 0x465D JUMP JUMPDEST SWAP1 POP PUSH0 PUSH2 0x4C57 DUP5 DUP3 DUP6 ADD PUSH2 0x4A1B JUMP JUMPDEST PUSH0 DUP4 ADD MSTORE POP PUSH1 0x20 PUSH2 0x4C6A DUP5 DUP3 DUP6 ADD PUSH2 0x4C15 JUMP JUMPDEST PUSH1 0x20 DUP4 ADD MSTORE POP SWAP3 SWAP2 POP POP JUMP JUMPDEST PUSH0 PUSH2 0x4C88 PUSH2 0x4C83 DUP5 PUSH2 0x4BE6 JUMP JUMPDEST PUSH2 0x465D JUMP JUMPDEST SWAP1 POP DUP1 DUP4 DUP3 MSTORE PUSH1 0x20 DUP3 ADD SWAP1 POP PUSH1 0x40 DUP5 MUL DUP4 ADD DUP6 DUP2 GT ISZERO PUSH2 0x4CAB JUMPI PUSH2 0x4CAA PUSH2 0x4C11 JUMP JUMPDEST JUMPDEST DUP4 JUMPDEST DUP2 DUP2 LT ISZERO PUSH2 0x4CD4 JUMPI DUP1 PUSH2 0x4CC0 DUP9 DUP3 PUSH2 0x4C29 JUMP JUMPDEST DUP5 MSTORE PUSH1 0x20 DUP5 ADD SWAP4 POP POP PUSH1 0x40 DUP2 ADD SWAP1 POP PUSH2 0x4CAD JUMP JUMPDEST POP POP POP SWAP4 SWAP3 POP POP POP JUMP JUMPDEST PUSH0 DUP3 PUSH1 0x1F DUP4 ADD SLT PUSH2 0x4CF2 JUMPI PUSH2 0x4CF1 PUSH2 0x45E7 JUMP JUMPDEST JUMPDEST DUP2 MLOAD PUSH2 0x4D02 DUP5 DUP3 PUSH1 0x20 DUP7 ADD PUSH2 0x4C76 JUMP JUMPDEST SWAP2 POP POP SWAP3 SWAP2 POP POP JUMP JUMPDEST PUSH0 PUSH1 0x60 DUP3 DUP5 SUB SLT ISZERO PUSH2 0x4D20 JUMPI PUSH2 0x4D1F PUSH2 0x4B62 JUMP JUMPDEST JUMPDEST PUSH2 0x4D2A PUSH1 0x60 PUSH2 0x465D JUMP JUMPDEST SWAP1 POP PUSH0 DUP3 ADD MLOAD PUSH8 0xFFFFFFFFFFFFFFFF DUP2 GT ISZERO PUSH2 0x4D49 JUMPI PUSH2 0x4D48 PUSH2 0x4B66 JUMP JUMPDEST JUMPDEST PUSH2 0x4D55 DUP5 DUP3 DUP6 ADD PUSH2 0x4BB9 JUMP JUMPDEST PUSH0 DUP4 ADD MSTORE POP PUSH1 0x20 DUP3 ADD MLOAD PUSH8 0xFFFFFFFFFFFFFFFF DUP2 GT ISZERO PUSH2 0x4D78 JUMPI PUSH2 0x4D77 PUSH2 0x4B66 JUMP JUMPDEST JUMPDEST PUSH2 0x4D84 DUP5 DUP3 DUP6 ADD PUSH2 0x4BB9 JUMP JUMPDEST PUSH1 0x20 DUP4 ADD MSTORE POP PUSH1 0x40 DUP3 ADD MLOAD PUSH8 0xFFFFFFFFFFFFFFFF DUP2 GT ISZERO PUSH2 0x4DA8 JUMPI PUSH2 0x4DA7 PUSH2 0x4B66 JUMP JUMPDEST JUMPDEST PUSH2 0x4DB4 DUP5 DUP3 DUP6 ADD PUSH2 0x4CDE JUMP JUMPDEST PUSH1 0x40 DUP4 ADD MSTORE POP SWAP3 SWAP2 POP POP JUMP JUMPDEST PUSH0 PUSH0 PUSH0 PUSH1 0x60 DUP5 DUP7 SUB SLT ISZERO PUSH2 0x4DD7 JUMPI PUSH2 0x4DD6 PUSH2 0x44A3 JUMP JUMPDEST JUMPDEST PUSH0 DUP5 ADD MLOAD PUSH8 0xFFFFFFFFFFFFFFFF DUP2 GT ISZERO PUSH2 0x4DF4 JUMPI PUSH2 0x4DF3 PUSH2 0x44A7 JUMP JUMPDEST JUMPDEST PUSH2 0x4E00 DUP7 DUP3 DUP8 ADD PUSH2 0x4D0B JUMP JUMPDEST SWAP4 POP POP PUSH1 0x20 PUSH2 0x4E11 DUP7 DUP3 DUP8 ADD PUSH2 0x4A1B JUMP JUMPDEST SWAP3 POP POP PUSH1 0x40 PUSH2 0x4E22 DUP7 DUP3 DUP8 ADD PUSH2 0x4A1B JUMP JUMPDEST SWAP2 POP POP SWAP3 POP SWAP3 POP SWAP3 JUMP JUMPDEST PUSH0 PUSH1 0x40 DUP3 ADD SWAP1 POP PUSH2 0x4E3F PUSH0 DUP4 ADD DUP6 PUSH2 0x4B3A JUMP JUMPDEST PUSH2 0x4E4C PUSH1 0x20 DUP4 ADD DUP5 PUSH2 0x4B3A JUMP JUMPDEST SWAP4 SWAP3 POP POP POP JUMP JUMPDEST PUSH0 DUP2 MLOAD SWAP1 POP SWAP2 SWAP1 POP JUMP JUMPDEST PUSH0 PUSH2 0x4E67 DUP3 PUSH2 0x4E53 JUMP JUMPDEST PUSH2 0x4E71 DUP2 DUP6 PUSH2 0x4A5A JUMP JUMPDEST SWAP4 POP PUSH2 0x4E81 DUP2 DUP6 PUSH1 0x20 DUP7 ADD PUSH2 0x4B6A JUMP JUMPDEST PUSH2 0x4E8A DUP2 PUSH2 0x45EF JUMP JUMPDEST DUP5 ADD SWAP2 POP POP SWAP3 SWAP2 POP POP JUMP JUMPDEST PUSH0 PUSH1 0x20 DUP3 ADD SWAP1 POP DUP2 DUP2 SUB PUSH0 DUP4 ADD MSTORE PUSH2 0x4EAD DUP2 DUP5 PUSH2 0x4E5D JUMP JUMPDEST SWAP1 POP SWAP3 SWAP2 POP POP JUMP JUMPDEST PUSH0 PUSH0 PUSH1 0x40 DUP4 DUP6 SUB SLT ISZERO PUSH2 0x4ECB JUMPI PUSH2 0x4ECA PUSH2 0x44A3 JUMP JUMPDEST JUMPDEST PUSH0 DUP4 ADD MLOAD PUSH8 0xFFFFFFFFFFFFFFFF DUP2 GT ISZERO PUSH2 0x4EE8 JUMPI PUSH2 0x4EE7 PUSH2 0x44A7 JUMP JUMPDEST JUMPDEST PUSH2 0x4EF4 DUP6 DUP3 DUP7 ADD PUSH2 0x4D0B JUMP JUMPDEST SWAP3 POP POP PUSH1 0x20 PUSH2 0x4F05 DUP6 DUP3 DUP7 ADD PUSH2 0x4A1B JUMP JUMPDEST SWAP2 POP POP SWAP3 POP SWAP3 SWAP1 POP JUMP JUMPDEST PUSH32 0x5265656E7472616E637947756172643A207265656E7472616E742063616C6C00 PUSH0 DUP3 ADD MSTORE POP JUMP JUMPDEST PUSH0 PUSH2 0x4F43 PUSH1 0x1F DUP4 PUSH2 0x4A5A JUMP JUMPDEST SWAP2 POP PUSH2 0x4F4E DUP3 PUSH2 0x4F0F JUMP JUMPDEST PUSH1 0x20 DUP3 ADD SWAP1 POP SWAP2 SWAP1 POP JUMP JUMPDEST PUSH0 PUSH1 0x20 DUP3 ADD SWAP1 POP DUP2 DUP2 SUB PUSH0 DUP4 ADD MSTORE PUSH2 0x4F70 DUP2 PUSH2 0x4F37 JUMP JUMPDEST SWAP1 POP SWAP2 SWAP1 POP JUMP JUMPDEST PUSH0 DUP3 DUP3 MSTORE PUSH1 0x20 DUP3 ADD SWAP1 POP SWAP3 SWAP2 POP POP JUMP JUMPDEST PUSH0 PUSH2 0x4F91 DUP3 PUSH2 0x4E53 JUMP JUMPDEST PUSH2 0x4F9B DUP2 DUP6 PUSH2 0x4F77 JUMP JUMPDEST SWAP4 POP PUSH2 0x4FAB DUP2 DUP6 PUSH1 0x20 DUP7 ADD PUSH2 0x4B6A JUMP JUMPDEST PUSH2 0x4FB4 DUP2 PUSH2 0x45EF JUMP JUMPDEST DUP5 ADD SWAP2 POP POP SWAP3 SWAP2 POP POP JUMP JUMPDEST PUSH0 DUP2 MLOAD SWAP1 POP SWAP2 SWAP1 POP JUMP JUMPDEST PUSH0 DUP3 DUP3 MSTORE PUSH1 0x20 DUP3 ADD SWAP1 POP SWAP3 SWAP2 POP POP JUMP JUMPDEST PUSH0 DUP2 SWAP1 POP PUSH1 0x20 DUP3 ADD SWAP1 POP SWAP2 SWAP1 POP JUMP JUMPDEST PUSH2 0x4FF1 DUP2 PUSH2 0x44CA JUMP JUMPDEST DUP3 MSTORE POP POP JUMP JUMPDEST PUSH2 0x5000 DUP2 PUSH2 0x4792 JUMP JUMPDEST DUP3 MSTORE POP POP JUMP JUMPDEST PUSH1 0x40 DUP3 ADD PUSH0 DUP3 ADD MLOAD PUSH2 0x501A PUSH0 DUP6 ADD DUP3 PUSH2 0x4FE8 JUMP JUMPDEST POP PUSH1 0x20 DUP3 ADD MLOAD PUSH2 0x502D PUSH1 0x20 DUP6 ADD DUP3 PUSH2 0x4FF7 JUMP JUMPDEST POP POP POP POP JUMP JUMPDEST PUSH0 PUSH2 0x503E DUP4 DUP4 PUSH2 0x5006 JUMP JUMPDEST PUSH1 0x40 DUP4 ADD SWAP1 POP SWAP3 SWAP2 POP POP JUMP JUMPDEST PUSH0 PUSH1 0x20 DUP3 ADD SWAP1 POP SWAP2 SWAP1 POP JUMP JUMPDEST PUSH0 PUSH2 0x5060 DUP3 PUSH2 0x4FBF JUMP JUMPDEST PUSH2 0x506A DUP2 DUP6 PUSH2 0x4FC9 JUMP JUMPDEST SWAP4 POP PUSH2 0x5075 DUP4 PUSH2 0x4FD9 JUMP JUMPDEST DUP1 PUSH0 JUMPDEST DUP4 DUP2 LT ISZERO PUSH2 0x50A5 JUMPI DUP2 MLOAD PUSH2 0x508C DUP9 DUP3 PUSH2 0x5033 JUMP JUMPDEST SWAP8 POP PUSH2 0x5097 DUP4 PUSH2 0x504A JUMP JUMPDEST SWAP3 POP POP PUSH1 0x1 DUP2 ADD SWAP1 POP PUSH2 0x5078 JUMP JUMPDEST POP DUP6 SWAP4 POP POP POP POP SWAP3 SWAP2 POP POP JUMP JUMPDEST PUSH0 PUSH1 0x60 DUP4 ADD PUSH0 DUP4 ADD MLOAD DUP5 DUP3 SUB PUSH0 DUP7 ADD MSTORE PUSH2 0x50CC DUP3 DUP3 PUSH2 0x4F87 JUMP JUMPDEST SWAP2 POP POP PUSH1 0x20 DUP4 ADD MLOAD DUP5 DUP3 SUB PUSH1 0x20 DUP7 ADD MSTORE PUSH2 0x50E6 DUP3 DUP3 PUSH2 0x4F87 JUMP JUMPDEST SWAP2 POP POP PUSH1 0x40 DUP4 ADD MLOAD DUP5 DUP3 SUB PUSH1 0x40 DUP7 ADD MSTORE PUSH2 0x5100 DUP3 DUP3 PUSH2 0x5056 JUMP JUMPDEST SWAP2 POP POP DUP1 SWAP2 POP POP SWAP3 SWAP2 POP POP JUMP JUMPDEST PUSH0 PUSH1 0x40 DUP3 ADD SWAP1 POP DUP2 DUP2 SUB PUSH0 DUP4 ADD MSTORE PUSH2 0x5125 DUP2 DUP6 PUSH2 0x50B2 JUMP JUMPDEST SWAP1 POP PUSH2 0x5134 PUSH1 0x20 DUP4 ADD DUP5 PUSH2 0x476A JUMP JUMPDEST SWAP4 SWAP3 POP POP POP JUMP JUMPDEST PUSH0 PUSH8 0xFFFFFFFFFFFFFFFF DUP3 GT ISZERO PUSH2 0x5155 JUMPI PUSH2 0x5154 PUSH2 0x45FF JUMP JUMPDEST JUMPDEST PUSH1 0x20 DUP3 MUL SWAP1 POP PUSH1 0x20 DUP2 ADD SWAP1 POP SWAP2 SWAP1 POP JUMP JUMPDEST PUSH0 PUSH1 0xFF DUP3 AND SWAP1 POP SWAP2 SWAP1 POP JUMP JUMPDEST PUSH2 0x517B DUP2 PUSH2 0x5166 JUMP JUMPDEST DUP2 EQ PUSH2 0x5185 JUMPI PUSH0 PUSH0 REVERT JUMPDEST POP JUMP JUMPDEST PUSH0 DUP2 MLOAD SWAP1 POP PUSH2 0x5196 DUP2 PUSH2 0x5172 JUMP JUMPDEST SWAP3 SWAP2 POP POP JUMP JUMPDEST PUSH0 DUP2 MLOAD SWAP1 POP PUSH2 0x51AA DUP2 PUSH2 0x457F JUMP JUMPDEST SWAP3 SWAP2 POP POP JUMP JUMPDEST PUSH0 PUSH1 0xC0 DUP3 DUP5 SUB SLT ISZERO PUSH2 0x51C5 JUMPI PUSH2 0x51C4 PUSH2 0x4B62 JUMP JUMPDEST JUMPDEST PUSH2 0x51CF PUSH1 0xC0 PUSH2 0x465D JUMP JUMPDEST SWAP1 POP PUSH0 PUSH2 0x51DE DUP5 DUP3 DUP6 ADD PUSH2 0x4A1B JUMP JUMPDEST PUSH0 DUP4 ADD MSTORE POP PUSH1 0x20 PUSH2 0x51F1 DUP5 DUP3 DUP6 ADD PUSH2 0x5188 JUMP JUMPDEST PUSH1 0x20 DUP4 ADD MSTORE POP PUSH1 0x40 PUSH2 0x5205 DUP5 DUP3 DUP6 ADD PUSH2 0x4C15 JUMP JUMPDEST PUSH1 0x40 DUP4 ADD MSTORE POP PUSH1 0x60 PUSH2 0x5219 DUP5 DUP3 DUP6 ADD PUSH2 0x519C JUMP JUMPDEST PUSH1 0x60 DUP4 ADD MSTORE POP PUSH1 0x80 PUSH2 0x522D DUP5 DUP3 DUP6 ADD PUSH2 0x519C JUMP JUMPDEST PUSH1 0x80 DUP4 ADD MSTORE POP PUSH1 0xA0 PUSH2 0x5241 DUP5 DUP3 DUP6 ADD PUSH2 0x519C JUMP JUMPDEST PUSH1 0xA0 DUP4 ADD MSTORE POP SWAP3 SWAP2 POP POP JUMP JUMPDEST PUSH0 PUSH2 0x525F PUSH2 0x525A DUP5 PUSH2 0x513B JUMP JUMPDEST PUSH2 0x465D JUMP JUMPDEST SWAP1 POP DUP1 DUP4 DUP3 MSTORE PUSH1 0x20 DUP3 ADD SWAP1 POP PUSH1 0xC0 DUP5 MUL DUP4 ADD DUP6 DUP2 GT ISZERO PUSH2 0x5282 JUMPI PUSH2 0x5281 PUSH2 0x4C11 JUMP JUMPDEST JUMPDEST DUP4 JUMPDEST DUP2 DUP2 LT ISZERO PUSH2 0x52AB JUMPI DUP1 PUSH2 0x5297 DUP9 DUP3 PUSH2 0x51B0 JUMP JUMPDEST DUP5 MSTORE PUSH1 0x20 DUP5 ADD SWAP4 POP POP PUSH1 0xC0 DUP2 ADD SWAP1 POP PUSH2 0x5284 JUMP JUMPDEST POP POP POP SWAP4 SWAP3 POP POP POP JUMP JUMPDEST PUSH0 DUP3 PUSH1 0x1F DUP4 ADD SLT PUSH2 0x52C9 JUMPI PUSH2 0x52C8 PUSH2 0x45E7 JUMP JUMPDEST JUMPDEST DUP2 MLOAD PUSH2 0x52D9 DUP5 DUP3 PUSH1 0x20 DUP7 ADD PUSH2 0x524D JUMP JUMPDEST SWAP2 POP POP SWAP3 SWAP2 POP POP JUMP JUMPDEST PUSH0 PUSH0 PUSH1 0x40 DUP4 DUP6 SUB SLT ISZERO PUSH2 0x52F8 JUMPI PUSH2 0x52F7 PUSH2 0x44A3 JUMP JUMPDEST JUMPDEST PUSH0 DUP4 ADD MLOAD PUSH8 0xFFFFFFFFFFFFFFFF DUP2 GT ISZERO PUSH2 0x5315 JUMPI PUSH2 0x5314 PUSH2 0x44A7 JUMP JUMPDEST JUMPDEST PUSH2 0x5321 DUP6 DUP3 DUP7 ADD PUSH2 0x52B5 JUMP JUMPDEST SWAP3 POP POP PUSH1 0x20 PUSH2 0x5332 DUP6 DUP3 DUP7 ADD PUSH2 0x519C JUMP JUMPDEST SWAP2 POP POP SWAP3 POP SWAP3 SWAP1 POP JUMP JUMPDEST PUSH0 PUSH1 0x20 DUP3 DUP5 SUB SLT ISZERO PUSH2 0x5351 JUMPI PUSH2 0x5350 PUSH2 0x44A3 JUMP JUMPDEST JUMPDEST PUSH0 PUSH2 0x535E DUP5 DUP3 DUP6 ADD PUSH2 0x519C JUMP JUMPDEST SWAP2 POP POP SWAP3 SWAP2 POP POP JUMP JUMPDEST PUSH0 DUP2 MLOAD SWAP1 POP SWAP2 SWAP1 POP JUMP JUMPDEST PUSH0 DUP3 DUP3 MSTORE PUSH1 0x20 DUP3 ADD SWAP1 POP SWAP3 SWAP2 POP POP JUMP JUMPDEST PUSH0 DUP2 SWAP1 POP PUSH1 0x20 DUP3 ADD SWAP1 POP SWAP2 SWAP1 POP JUMP JUMPDEST PUSH1 0x40 DUP3 ADD PUSH0 DUP3 ADD MLOAD PUSH2 0x53A4 PUSH0 DUP6 ADD DUP3 PUSH2 0x4FE8 JUMP JUMPDEST POP PUSH1 0x20 DUP3 ADD MLOAD PUSH2 0x53B7 PUSH1 0x20 DUP6 ADD DUP3 PUSH2 0x4FF7 JUMP JUMPDEST POP POP POP POP JUMP JUMPDEST PUSH0 PUSH2 0x53C8 DUP4 DUP4 PUSH2 0x5390 JUMP JUMPDEST PUSH1 0x40 DUP4 ADD SWAP1 POP SWAP3 SWAP2 POP POP JUMP JUMPDEST PUSH0 PUSH1 0x20 DUP3 ADD SWAP1 POP SWAP2 SWAP1 POP JUMP JUMPDEST PUSH0 PUSH2 0x53EA DUP3 PUSH2 0x5367 JUMP JUMPDEST PUSH2 0x53F4 DUP2 DUP6 PUSH2 0x5371 JUMP JUMPDEST SWAP4 POP PUSH2 0x53FF DUP4 PUSH2 0x5381 JUMP JUMPDEST DUP1 PUSH0 JUMPDEST DUP4 DUP2 LT ISZERO PUSH2 0x542F JUMPI DUP2 MLOAD PUSH2 0x5416 DUP9 DUP3 PUSH2 0x53BD JUMP JUMPDEST SWAP8 POP PUSH2 0x5421 DUP4 PUSH2 0x53D4 JUMP JUMPDEST SWAP3 POP POP PUSH1 0x1 DUP2 ADD SWAP1 POP PUSH2 0x5402 JUMP JUMPDEST POP DUP6 SWAP4 POP POP POP POP SWAP3 SWAP2 POP POP JUMP JUMPDEST PUSH0 PUSH1 0x60 DUP3 ADD SWAP1 POP DUP2 DUP2 SUB PUSH0 DUP4 ADD MSTORE PUSH2 0x5454 DUP2 DUP7 PUSH2 0x53E0 JUMP JUMPDEST SWAP1 POP PUSH2 0x5463 PUSH1 0x20 DUP4 ADD DUP6 PUSH2 0x476A JUMP JUMPDEST PUSH2 0x5470 PUSH1 0x40 DUP4 ADD DUP5 PUSH2 0x4472 JUMP JUMPDEST SWAP5 SWAP4 POP POP POP POP JUMP JUMPDEST PUSH32 0x4E487B7100000000000000000000000000000000000000000000000000000000 PUSH0 MSTORE PUSH1 0x11 PUSH1 0x4 MSTORE PUSH1 0x24 PUSH0 REVERT JUMPDEST PUSH0 PUSH2 0x54AF DUP3 PUSH2 0x4576 JUMP JUMPDEST SWAP2 POP PUSH2 0x54BA DUP4 PUSH2 0x4576 JUMP JUMPDEST SWAP3 POP DUP3 DUP3 SUB SWAP1 POP DUP2 DUP2 GT ISZERO PUSH2 0x54D2 JUMPI PUSH2 0x54D1 PUSH2 0x5478 JUMP JUMPDEST JUMPDEST SWAP3 SWAP2 POP POP JUMP JUMPDEST PUSH0 PUSH1 0x40 DUP3 ADD SWAP1 POP PUSH2 0x54EB PUSH0 DUP4 ADD DUP6 PUSH2 0x476A JUMP JUMPDEST PUSH2 0x54F8 PUSH1 0x20 DUP4 ADD DUP5 PUSH2 0x4B3A JUMP JUMPDEST SWAP4 SWAP3 POP POP POP JUMP JUMPDEST PUSH32 0x4E487B7100000000000000000000000000000000000000000000000000000000 PUSH0 MSTORE PUSH1 0x32 PUSH1 0x4 MSTORE PUSH1 0x24 PUSH0 REVERT JUMPDEST PUSH0 DUP2 MLOAD SWAP1 POP SWAP2 SWAP1 POP JUMP JUMPDEST PUSH0 DUP3 DUP3 MSTORE PUSH1 0x20 DUP3 ADD SWAP1 POP SWAP3 SWAP2 POP POP JUMP JUMPDEST PUSH0 DUP2 SWAP1 POP PUSH1 0x20 DUP3 ADD SWAP1 POP SWAP2 SWAP1 POP JUMP JUMPDEST PUSH2 0x555E DUP2 PUSH2 0x4576 JUMP JUMPDEST DUP3 MSTORE POP POP JUMP JUMPDEST PUSH1 0x40 DUP3 ADD PUSH0 DUP3 ADD MLOAD PUSH2 0x5578 PUSH0 DUP6 ADD DUP3 PUSH2 0x4FE8 JUMP JUMPDEST POP PUSH1 0x20 DUP3 ADD MLOAD PUSH2 0x558B PUSH1 0x20 DUP6 ADD DUP3 PUSH2 0x5555 JUMP JUMPDEST POP POP POP POP JUMP JUMPDEST PUSH0 PUSH2 0x559C DUP4 DUP4 PUSH2 0x5564 JUMP JUMPDEST PUSH1 0x40 DUP4 ADD SWAP1 POP SWAP3 SWAP2 POP POP JUMP JUMPDEST PUSH0 PUSH1 0x20 DUP3 ADD SWAP1 POP SWAP2 SWAP1 POP JUMP JUMPDEST PUSH0 PUSH2 0x55BE DUP3 PUSH2 0x552C JUMP JUMPDEST PUSH2 0x55C8 DUP2 DUP6 PUSH2 0x5536 JUMP JUMPDEST SWAP4 POP PUSH2 0x55D3 DUP4 PUSH2 0x5546 JUMP JUMPDEST DUP1 PUSH0 JUMPDEST DUP4 DUP2 LT ISZERO PUSH2 0x5603 JUMPI DUP2 MLOAD PUSH2 0x55EA DUP9 DUP3 PUSH2 0x5591 JUMP JUMPDEST SWAP8 POP PUSH2 0x55F5 DUP4 PUSH2 0x55A8 JUMP JUMPDEST SWAP3 POP POP PUSH1 0x1 DUP2 ADD SWAP1 POP PUSH2 0x55D6 JUMP JUMPDEST POP DUP6 SWAP4 POP POP POP POP SWAP3 SWAP2 POP POP JUMP JUMPDEST PUSH0 PUSH1 0x40 DUP3 ADD SWAP1 POP PUSH2 0x5623 PUSH0 DUP4 ADD DUP6 PUSH2 0x4B3A JUMP JUMPDEST DUP2 DUP2 SUB PUSH1 0x20 DUP4 ADD MSTORE PUSH2 0x5635 DUP2 DUP5 PUSH2 0x55B4 JUMP JUMPDEST SWAP1 POP SWAP4 SWAP3 POP POP POP JUMP JUMPDEST PUSH32 0x4469726563746F72792063616E6E6F74206265207A65726F2061646472657373 PUSH0 DUP3 ADD MSTORE POP JUMP JUMPDEST PUSH0 PUSH2 0x5672 PUSH1 0x20 DUP4 PUSH2 0x4A5A JUMP JUMPDEST SWAP2 POP PUSH2 0x567D DUP3 PUSH2 0x563E JUMP JUMPDEST PUSH1 0x20 DUP3 ADD SWAP1 POP SWAP2 SWAP1 POP JUMP JUMPDEST PUSH0 PUSH1 0x20 DUP3 ADD SWAP1 POP DUP2 DUP2 SUB PUSH0 DUP4 ADD MSTORE PUSH2 0x569F DUP2 PUSH2 0x5666 JUMP JUMPDEST SWAP1 POP SWAP2 SWAP1 POP JUMP JUMPDEST PUSH32 0x4469726563746F7279206D757374206265206120636F6E747261637400000000 PUSH0 DUP3 ADD MSTORE POP JUMP JUMPDEST PUSH0 PUSH2 0x56DA PUSH1 0x1C DUP4 PUSH2 0x4A5A JUMP JUMPDEST SWAP2 POP PUSH2 0x56E5 DUP3 PUSH2 0x56A6 JUMP JUMPDEST PUSH1 0x20 DUP3 ADD SWAP1 POP SWAP2 SWAP1 POP JUMP JUMPDEST PUSH0 PUSH1 0x20 DUP3 ADD SWAP1 POP DUP2 DUP2 SUB PUSH0 DUP4 ADD MSTORE PUSH2 0x5707 DUP2 PUSH2 0x56CE JUMP JUMPDEST SWAP1 POP SWAP2 SWAP1 POP JUMP JUMPDEST PUSH32 0x4469726563746F7279206164647265737320646F6573206E6F7420696D706C65 PUSH0 DUP3 ADD MSTORE PUSH32 0x6D656E74206F776E657228290000000000000000000000000000000000000000 PUSH1 0x20 DUP3 ADD MSTORE POP JUMP JUMPDEST PUSH0 PUSH2 0x5768 PUSH1 0x2C DUP4 PUSH2 0x4A5A JUMP JUMPDEST SWAP2 POP PUSH2 0x5773 DUP3 PUSH2 0x570E JUMP JUMPDEST PUSH1 0x40 DUP3 ADD SWAP1 POP SWAP2 SWAP1 POP JUMP JUMPDEST PUSH0 PUSH1 0x20 DUP3 ADD SWAP1 POP DUP2 DUP2 SUB PUSH0 DUP4 ADD MSTORE PUSH2 0x5795 DUP2 PUSH2 0x575C JUMP JUMPDEST SWAP1 POP SWAP2 SWAP1 POP JUMP JUMPDEST PUSH0 DUP2 MLOAD SWAP1 POP SWAP2 SWAP1 POP JUMP JUMPDEST PUSH0 DUP3 DUP3 MSTORE PUSH1 0x20 DUP3 ADD SWAP1 POP SWAP3 SWAP2 POP POP JUMP JUMPDEST PUSH0 DUP2 SWAP1 POP PUSH1 0x20 DUP3 ADD SWAP1 POP SWAP2 SWAP1 POP JUMP JUMPDEST PUSH1 0x40 DUP3 ADD PUSH0 DUP3 ADD MLOAD PUSH2 0x57D9 PUSH0 DUP6 ADD DUP3 PUSH2 0x4FE8 JUMP JUMPDEST POP PUSH1 0x20 DUP3 ADD MLOAD PUSH2 0x57EC PUSH1 0x20 DUP6 ADD DUP3 PUSH2 0x5555 JUMP JUMPDEST POP POP POP POP JUMP JUMPDEST PUSH0 PUSH2 0x57FD DUP4 DUP4 PUSH2 0x57C5 JUMP JUMPDEST PUSH1 0x40 DUP4 ADD SWAP1 POP SWAP3 SWAP2 POP POP JUMP JUMPDEST PUSH0 PUSH1 0x20 DUP3 ADD SWAP1 POP SWAP2 SWAP1 POP JUMP JUMPDEST PUSH0 PUSH2 0x581F DUP3 PUSH2 0x579C JUMP JUMPDEST PUSH2 0x5829 DUP2 DUP6 PUSH2 0x57A6 JUMP JUMPDEST SWAP4 POP PUSH2 0x5834 DUP4 PUSH2 0x57B6 JUMP JUMPDEST DUP1 PUSH0 JUMPDEST DUP4 DUP2 LT ISZERO PUSH2 0x5864 JUMPI DUP2 MLOAD PUSH2 0x584B DUP9 DUP3 PUSH2 0x57F2 JUMP JUMPDEST SWAP8 POP PUSH2 0x5856 DUP4 PUSH2 0x5809 JUMP JUMPDEST SWAP3 POP POP PUSH1 0x1 DUP2 ADD SWAP1 POP PUSH2 0x5837 JUMP JUMPDEST POP DUP6 SWAP4 POP POP POP POP SWAP3 SWAP2 POP POP JUMP JUMPDEST PUSH2 0x587A DUP2 PUSH2 0x4965 JUMP JUMPDEST DUP3 MSTORE POP POP JUMP JUMPDEST PUSH0 PUSH1 0x80 DUP3 ADD SWAP1 POP DUP2 DUP2 SUB PUSH0 DUP4 ADD MSTORE PUSH2 0x5898 DUP2 DUP8 PUSH2 0x5815 JUMP JUMPDEST SWAP1 POP PUSH2 0x58A7 PUSH1 0x20 DUP4 ADD DUP7 PUSH2 0x5871 JUMP JUMPDEST PUSH2 0x58B4 PUSH1 0x40 DUP4 ADD DUP6 PUSH2 0x4472 JUMP JUMPDEST PUSH2 0x58C1 PUSH1 0x60 DUP4 ADD DUP5 PUSH2 0x454E JUMP JUMPDEST SWAP6 SWAP5 POP POP POP POP POP JUMP JUMPDEST PUSH0 PUSH1 0x60 DUP3 ADD SWAP1 POP PUSH2 0x58DD PUSH0 DUP4 ADD DUP7 PUSH2 0x476A JUMP JUMPDEST PUSH2 0x58EA PUSH1 0x20 DUP4 ADD DUP6 PUSH2 0x4B3A JUMP JUMPDEST PUSH2 0x58F7 PUSH1 0x40 DUP4 ADD DUP5 PUSH2 0x476A JUMP JUMPDEST SWAP5 SWAP4 POP POP POP POP JUMP JUMPDEST PUSH0 PUSH2 0x5909 DUP3 PUSH2 0x4576 JUMP JUMPDEST SWAP2 POP PUSH2 0x5914 DUP4 PUSH2 0x4576 JUMP JUMPDEST SWAP3 POP DUP3 DUP3 MUL PUSH2 0x5922 DUP2 PUSH2 0x4576 JUMP JUMPDEST SWAP2 POP DUP3 DUP3 DIV DUP5 EQ DUP4 ISZERO OR PUSH2 0x5939 JUMPI PUSH2 0x5938 PUSH2 0x5478 JUMP JUMPDEST JUMPDEST POP SWAP3 SWAP2 POP POP JUMP JUMPDEST PUSH32 0x4E487B7100000000000000000000000000000000000000000000000000000000 PUSH0 MSTORE PUSH1 0x12 PUSH1 0x4 MSTORE PUSH1 0x24 PUSH0 REVERT JUMPDEST PUSH0 PUSH2 0x5977 DUP3 PUSH2 0x4576 JUMP JUMPDEST SWAP2 POP PUSH2 0x5982 DUP4 PUSH2 0x4576 JUMP JUMPDEST SWAP3 POP DUP3 PUSH2 0x5992 JUMPI PUSH2 0x5991 PUSH2 0x5940 JUMP JUMPDEST JUMPDEST DUP3 DUP3 DIV SWAP1 POP SWAP3 SWAP2 POP POP JUMP JUMPDEST PUSH0 PUSH2 0x59A7 DUP3 PUSH2 0x4576 JUMP JUMPDEST SWAP2 POP PUSH2 0x59B2 DUP4 PUSH2 0x4576 JUMP JUMPDEST SWAP3 POP DUP3 DUP3 ADD SWAP1 POP DUP1 DUP3 GT ISZERO PUSH2 0x59CA JUMPI PUSH2 0x59C9 PUSH2 0x5478 JUMP JUMPDEST JUMPDEST SWAP3 SWAP2 POP POP JUMP JUMPDEST PUSH32 0x6D756C446976206F766572666C6F770000000000000000000000000000000000 PUSH0 DUP3 ADD MSTORE POP JUMP JUMPDEST PUSH0 PUSH2 0x5A04 PUSH1 0xF DUP4 PUSH2 0x4A5A JUMP JUMPDEST SWAP2 POP PUSH2 0x5A0F DUP3 PUSH2 0x59D0 JUMP JUMPDEST PUSH1 0x20 DUP3 ADD SWAP1 POP SWAP2 SWAP1 POP JUMP JUMPDEST PUSH0 PUSH1 0x20 DUP3 ADD SWAP1 POP DUP2 DUP2 SUB PUSH0 DUP4 ADD MSTORE PUSH2 0x5A31 DUP2 PUSH2 0x59F8 JUMP JUMPDEST SWAP1 POP SWAP2 SWAP1 POP JUMP JUMPDEST PUSH0 DUP2 SWAP1 POP SWAP3 SWAP2 POP POP JUMP JUMPDEST POP JUMP JUMPDEST PUSH0 PUSH2 0x5A50 PUSH0 DUP4 PUSH2 0x5A38 JUMP JUMPDEST SWAP2 POP PUSH2 0x5A5B DUP3 PUSH2 0x5A42 JUMP JUMPDEST PUSH0 DUP3 ADD SWAP1 POP SWAP2 SWAP1 POP JUMP JUMPDEST PUSH0 PUSH2 0x5A6F DUP3 PUSH2 0x5A45 JUMP JUMPDEST SWAP2 POP DUP2 SWAP1 POP SWAP2 SWAP1 POP JUMP JUMPDEST PUSH0 DUP2 PUSH1 0x1 SHR SWAP1 POP SWAP2 SWAP1 POP JUMP JUMPDEST PUSH0 PUSH0 DUP3 SWAP2 POP DUP4 SWAP1 POP JUMPDEST PUSH1 0x1 DUP6 GT ISZERO PUSH2 0x5ACE JUMPI DUP1 DUP7 DIV DUP2 GT ISZERO PUSH2 0x5AAA JUMPI PUSH2 0x5AA9 PUSH2 0x5478 JUMP JUMPDEST JUMPDEST PUSH1 0x1 DUP6 AND ISZERO PUSH2 0x5AB9 JUMPI DUP1 DUP3 MUL SWAP2 POP JUMPDEST DUP1 DUP2 MUL SWAP1 POP PUSH2 0x5AC7 DUP6 PUSH2 0x5A79 JUMP JUMPDEST SWAP5 POP PUSH2 0x5A8E JUMP JUMPDEST SWAP5 POP SWAP5 SWAP3 POP POP POP JUMP JUMPDEST PUSH0 DUP3 PUSH2 0x5AE6 JUMPI PUSH1 0x1 SWAP1 POP PUSH2 0x5BA1 JUMP JUMPDEST DUP2 PUSH2 0x5AF3 JUMPI PUSH0 SWAP1 POP PUSH2 0x5BA1 JUMP JUMPDEST DUP2 PUSH1 0x1 DUP2 EQ PUSH2 0x5B09 JUMPI PUSH1 0x2 DUP2 EQ PUSH2 0x5B13 JUMPI PUSH2 0x5B42 JUMP JUMPDEST PUSH1 0x1 SWAP2 POP POP PUSH2 0x5BA1 JUMP JUMPDEST PUSH1 0xFF DUP5 GT ISZERO PUSH2 0x5B25 JUMPI PUSH2 0x5B24 PUSH2 0x5478 JUMP JUMPDEST JUMPDEST DUP4 PUSH1 0x2 EXP SWAP2 POP DUP5 DUP3 GT ISZERO PUSH2 0x5B3C JUMPI PUSH2 0x5B3B PUSH2 0x5478 JUMP JUMPDEST JUMPDEST POP PUSH2 0x5BA1 JUMP JUMPDEST POP PUSH1 0x20 DUP4 LT PUSH2 0x133 DUP4 LT AND PUSH1 0x4E DUP5 LT PUSH1 0xB DUP5 LT AND OR ISZERO PUSH2 0x5B77 JUMPI DUP3 DUP3 EXP SWAP1 POP DUP4 DUP2 GT ISZERO PUSH2 0x5B72 JUMPI PUSH2 0x5B71 PUSH2 0x5478 JUMP JUMPDEST JUMPDEST PUSH2 0x5BA1 JUMP JUMPDEST PUSH2 0x5B84 DUP5 DUP5 DUP5 PUSH1 0x1 PUSH2 0x5A85 JUMP JUMPDEST SWAP3 POP SWAP1 POP DUP2 DUP5 DIV DUP2 GT ISZERO PUSH2 0x5B9B JUMPI PUSH2 0x5B9A PUSH2 0x5478 JUMP JUMPDEST JUMPDEST DUP2 DUP2 MUL SWAP1 POP JUMPDEST SWAP4 SWAP3 POP POP POP JUMP JUMPDEST PUSH0 PUSH2 0x5BB2 DUP3 PUSH2 0x4576 JUMP JUMPDEST SWAP2 POP PUSH2 0x5BBD DUP4 PUSH2 0x5166 JUMP JUMPDEST SWAP3 POP PUSH2 0x5BEA PUSH32 0xFFFFFFFFFFFFFFFFFFFFFFFFFFFFFFFFFFFFFFFFFFFFFFFFFFFFFFFFFFFFFFFF DUP5 DUP5 PUSH2 0x5AD7 JUMP JUMPDEST SWAP1 POP SWAP3 SWAP2 POP POP JUMP JUMPDEST PUSH0 PUSH2 0x5BFC DUP3 PUSH2 0x4576 JUMP JUMPDEST SWAP2 POP PUSH32 0xFFFFFFFFFFFFFFFFFFFFFFFFFFFFFFFFFFFFFFFFFFFFFFFFFFFFFFFFFFFFFFFF DUP3 SUB PUSH2 0x5C2E JUMPI PUSH2 0x5C2D PUSH2 0x5478 JUMP JUMPDEST JUMPDEST PUSH1 0x1 DUP3 ADD SWAP1 POP SWAP2 SWAP1 POP JUMP JUMPDEST PUSH0 DUP2 MLOAD SWAP1 POP SWAP2 SWAP1 POP JUMP JUMPDEST PUSH0 PUSH2 0x5C4D DUP3 PUSH2 0x5C39 JUMP JUMPDEST PUSH2 0x5C57 DUP2 DUP6 PUSH2 0x5A38 JUMP JUMPDEST SWAP4 POP PUSH2 0x5C67 DUP2 DUP6 PUSH1 0x20 DUP7 ADD PUSH2 0x4B6A JUMP JUMPDEST DUP1 DUP5 ADD SWAP2 POP POP SWAP3 SWAP2 POP POP JUMP JUMPDEST PUSH0 PUSH2 0x5C7E DUP3 DUP5 PUSH2 0x5C43 JUMP JUMPDEST SWAP2 POP DUP2 SWAP1 POP SWAP3 SWAP2 POP POP JUMP JUMPDEST PUSH0 DUP2 MLOAD SWAP1 POP PUSH2 0x5C97 DUP2 PUSH2 0x483B JUMP JUMPDEST SWAP3 SWAP2 POP POP JUMP JUMPDEST PUSH0 PUSH1 0x20 DUP3 DUP5 SUB SLT ISZERO PUSH2 0x5CB2 JUMPI PUSH2 0x5CB1 PUSH2 0x44A3 JUMP JUMPDEST JUMPDEST PUSH0 PUSH2 0x5CBF DUP5 DUP3 DUP6 ADD PUSH2 0x5C89 JUMP JUMPDEST SWAP2 POP POP SWAP3 SWAP2 POP POP JUMP JUMPDEST PUSH32 0x5452414E534645525F4641494C45440000000000000000000000000000000000 PUSH0 DUP3 ADD MSTORE POP JUMP JUMPDEST PUSH0 PUSH2 0x5CFC PUSH1 0xF DUP4 PUSH2 0x4A5A JUMP JUMPDEST SWAP2 POP PUSH2 0x5D07 DUP3 PUSH2 0x5CC8 JUMP JUMPDEST PUSH1 0x20 DUP3 ADD SWAP1 POP SWAP2 SWAP1 POP JUMP JUMPDEST PUSH0 PUSH1 0x20 DUP3 ADD SWAP1 POP DUP2 DUP2 SUB PUSH0 DUP4 ADD MSTORE PUSH2 0x5D29 DUP2 PUSH2 0x5CF0 JUMP JUMPDEST SWAP1 POP SWAP2 SWAP1 POP JUMP INVALID LOG2 PUSH5 0x6970667358 0x22 SLT KECCAK256 DUP12 0xB1 0xDF PUSH11 0xB49791297705BDD8CFADB0 LOG3 ORIGIN DELEGATECALL XOR KECCAK256 SWAP10 ADDRESS LOG0 0xB6 SWAP7 PUSH4 0x450DD616 EOFCREATE 0x38 PUSH5 0x736F6C6343 STOP ADDMOD 0x1E STOP CALLER "
		},
		"gasEstimates": {
			"creation": {
				"codeDepositCost": "4782000",
				"executionCost": "infinite",
				"totalCost": "infinite"
			},
			"external": {
				"DEFAULT_SLIPPAGE_BIPS()": "2541",
				"Directory()": "infinite",
				"PLATFORM_FEE()": "2584",
				"changeDefaultSlippage(uint32)": "infinite",
				"changeDirectoryAddress(address)": "infinite",
				"changePlatformFee(uint16)": "infinite",
				"fetchFromDirectory(string)": "infinite",
				"isActive()": "2585",
				"mintEtfTokens(uint256,address)": "infinite",
				"owner()": "infinite",
				"rebalance(uint256)": "infinite",
				"recoverAsset(address,address)": "infinite",
				"redeemEtfTokens(uint256,uint256,address)": "infinite",
				"setActive(bool)": "infinite"
			}
		},
		"methodIdentifiers": {
			"DEFAULT_SLIPPAGE_BIPS()": "0650b0fc",
			"Directory()": "658a847a",
			"PLATFORM_FEE()": "34fbc9a1",
			"changeDefaultSlippage(uint32)": "bb3367bd",
			"changeDirectoryAddress(address)": "ba4c7be1",
			"changePlatformFee(uint16)": "b42c0782",
			"fetchFromDirectory(string)": "27262618",
			"isActive()": "22f3e2d4",
			"mintEtfTokens(uint256,address)": "25c006f9",
			"owner()": "8da5cb5b",
			"rebalance(uint256)": "f4993018",
			"recoverAsset(address,address)": "09053ac4",
			"redeemEtfTokens(uint256,uint256,address)": "e220d0de",
			"setActive(bool)": "acec338a"
		}
	},
	"abi": [
		{
			"inputs": [
				{
					"internalType": "address",
					"name": "_directory",
					"type": "address"
				}
			],
			"stateMutability": "nonpayable",
			"type": "constructor"
		},
		{
			"inputs": [],
			"name": "CapacityExceeded",
			"type": "error"
		},
		{
			"inputs": [],
			"name": "DeltaError",
			"type": "error"
		},
		{
			"inputs": [],
			"name": "ETHSendFailed",
			"type": "error"
		},
		{
			"inputs": [],
			"name": "EmptyBuf",
			"type": "error"
		},
		{
			"inputs": [],
			"name": "EmptyCand",
			"type": "error"
		},
		{
			"inputs": [],
			"name": "InsufficientETH",
			"type": "error"
		},
		{
			"inputs": [],
			"name": "InvalidBips",
			"type": "error"
		},
		{
			"inputs": [],
			"name": "NoMintedAmount",
			"type": "error"
		},
		{
			"inputs": [],
			"name": "SupplyZero",
			"type": "error"
		},
		{
			"inputs": [],
			"name": "ZeroAmount",
			"type": "error"
		},
		{
			"inputs": [],
			"name": "ZeroAmount",
			"type": "error"
		},
		{
			"inputs": [],
			"name": "ZeroEtfPrice",
			"type": "error"
		},
		{
			"inputs": [],
			"name": "ZeroReceiver",
			"type": "error"
		},
		{
			"anonymous": false,
			"inputs": [
				{
					"indexed": false,
					"internalType": "uint256",
					"name": "etfId",
					"type": "uint256"
				},
				{
					"components": [
						{
							"internalType": "address",
							"name": "tokenAddress",
							"type": "address"
						},
						{
							"internalType": "uint256",
							"name": "tokenAmount",
							"type": "uint256"
						}
					],
					"indexed": false,
					"internalType": "struct Storage.TokenBalance[]",
					"name": "updatedBalances",
					"type": "tuple[]"
				}
			],
			"name": "VaultBalanceChanged",
			"type": "event"
		},
		{
			"inputs": [],
			"name": "DEFAULT_SLIPPAGE_BIPS",
			"outputs": [
				{
					"internalType": "uint32",
					"name": "",
					"type": "uint32"
				}
			],
			"stateMutability": "view",
			"type": "function"
		},
		{
			"inputs": [],
			"name": "Directory",
			"outputs": [
				{
					"internalType": "contract IDirectory",
					"name": "",
					"type": "address"
				}
			],
			"stateMutability": "view",
			"type": "function"
		},
		{
			"inputs": [],
			"name": "PLATFORM_FEE",
			"outputs": [
				{
					"internalType": "uint16",
					"name": "",
					"type": "uint16"
				}
			],
			"stateMutability": "view",
			"type": "function"
		},
		{
			"inputs": [
				{
					"internalType": "uint32",
					"name": "newSlippageBips",
					"type": "uint32"
				}
			],
			"name": "changeDefaultSlippage",
			"outputs": [],
			"stateMutability": "nonpayable",
			"type": "function"
		},
		{
			"inputs": [
				{
					"internalType": "address",
					"name": "_directory",
					"type": "address"
				}
			],
			"name": "changeDirectoryAddress",
			"outputs": [],
			"stateMutability": "nonpayable",
			"type": "function"
		},
		{
			"inputs": [
				{
					"internalType": "uint16",
					"name": "newFee",
					"type": "uint16"
				}
			],
			"name": "changePlatformFee",
			"outputs": [],
			"stateMutability": "nonpayable",
			"type": "function"
		},
		{
			"inputs": [
				{
					"internalType": "string",
					"name": "_key",
					"type": "string"
				}
			],
			"name": "fetchFromDirectory",
			"outputs": [
				{
					"internalType": "address",
					"name": "",
					"type": "address"
				}
			],
			"stateMutability": "view",
			"type": "function"
		},
		{
			"inputs": [],
			"name": "isActive",
			"outputs": [
				{
					"internalType": "bool",
					"name": "",
					"type": "bool"
				}
			],
			"stateMutability": "view",
			"type": "function"
		},
		{
			"inputs": [
				{
					"internalType": "uint256",
					"name": "etfId",
					"type": "uint256"
				},
				{
					"internalType": "address",
					"name": "receiver",
					"type": "address"
				}
			],
			"name": "mintEtfTokens",
			"outputs": [],
			"stateMutability": "payable",
			"type": "function"
		},
		{
			"inputs": [],
			"name": "owner",
			"outputs": [
				{
					"internalType": "address",
					"name": "",
					"type": "address"
				}
			],
			"stateMutability": "view",
			"type": "function"
		},
		{
			"inputs": [
				{
					"internalType": "uint256",
					"name": "etfId",
					"type": "uint256"
				}
			],
			"name": "rebalance",
			"outputs": [],
			"stateMutability": "nonpayable",
			"type": "function"
		},
		{
			"inputs": [
				{
					"internalType": "address",
					"name": "tokenAddress",
					"type": "address"
				},
				{
					"internalType": "address",
					"name": "toAddress",
					"type": "address"
				}
			],
			"name": "recoverAsset",
			"outputs": [],
			"stateMutability": "nonpayable",
			"type": "function"
		},
		{
			"inputs": [
				{
					"internalType": "uint256",
					"name": "etfId",
					"type": "uint256"
				},
				{
					"internalType": "uint256",
					"name": "etfTokenAmount",
					"type": "uint256"
				},
				{
					"internalType": "address payable",
					"name": "receiver",
					"type": "address"
				}
			],
			"name": "redeemEtfTokens",
			"outputs": [],
			"stateMutability": "nonpayable",
			"type": "function"
		},
		{
			"inputs": [
				{
					"internalType": "bool",
					"name": "_active",
					"type": "bool"
				}
			],
			"name": "setActive",
			"outputs": [],
			"stateMutability": "nonpayable",
			"type": "function"
		},
		{
			"stateMutability": "payable",
			"type": "receive"
		}
	]
}