{
	"data": {
		"bytecode": {
			"linkReferences": {},
			"object": "608060405234801561000f575f5ffd5b5060405161273338038061273383398181016040528101906100319190610257565b806100418161004860201b60201c565b50506103f0565b5f73ffffffffffffffffffffffffffffffffffffffff168173ffffffffffffffffffffffffffffffffffffffff16036100b6576040517f08c379a00000000000000000000000000000000000000000000000000000000081526004016100ad906102dc565b60405180910390fd5b5f8173ffffffffffffffffffffffffffffffffffffffff163b1161010f576040517f08c379a000000000000000000000000000000000000000000000000000000000815260040161010690610344565b60405180910390fd5b8073ffffffffffffffffffffffffffffffffffffffff16638da5cb5b6040518163ffffffff1660e01b8152600401602060405180830381865afa92505050801561017757506040513d601f19601f820116820180604052508101906101749190610257565b60015b6101b6576040517f08c379a00000000000000000000000000000000000000000000000000000000081526004016101ad906103d2565b60405180910390fd5b815f5f6101000a81548173ffffffffffffffffffffffffffffffffffffffff021916908373ffffffffffffffffffffffffffffffffffffffff1602179055505050565b5f5ffd5b5f73ffffffffffffffffffffffffffffffffffffffff82169050919050565b5f610226826101fd565b9050919050565b6102368161021c565b8114610240575f5ffd5b50565b5f815190506102518161022d565b92915050565b5f6020828403121561026c5761026b6101f9565b5b5f61027984828501610243565b91505092915050565b5f82825260208201905092915050565b7f4469726563746f72792063616e6e6f74206265207a65726f20616464726573735f82015250565b5f6102c6602083610282565b91506102d182610292565b602082019050919050565b5f6020820190508181035f8301526102f3816102ba565b9050919050565b7f4469726563746f7279206d757374206265206120636f6e7472616374000000005f82015250565b5f61032e601c83610282565b9150610339826102fa565b602082019050919050565b5f6020820190508181035f83015261035b81610322565b9050919050565b7f4469726563746f7279206164647265737320646f6573206e6f7420696d706c655f8201527f6d656e74206f776e657228290000000000000000000000000000000000000000602082015250565b5f6103bc602c83610282565b91506103c782610362565b604082019050919050565b5f6020820190508181035f8301526103e9816103b0565b9050919050565b612336806103fd5f395ff3fe608060405234801561000f575f5ffd5b5060043610610109575f3560e01c80636ebd362c116100a05780639dc29fac1161006f5780639dc29fac146102b9578063a9059cbb146102d5578063ba4c7be114610305578063cfa36f3d14610321578063dd62ed3e1461033f57610109565b80636ebd362c1461023157806370a082311461024d5780638da5cb5b1461027d57806395d89b411461029b57610109565b806327262618116100dc57806327262618146101a9578063313ce567146101d957806340c10f19146101f7578063658a847a1461021357610109565b806306fdde031461010d578063095ea7b31461012b57806318160ddd1461015b57806323b872dd14610179575b5f5ffd5b61011561036f565b6040516101229190611708565b60405180910390f35b610145600480360381019061014091906117c6565b61040d565b604051610152919061181e565b60405180910390f35b61016361042f565b6040516101709190611846565b60405180910390f35b610193600480360381019061018e919061185f565b610446565b6040516101a0919061181e565b60405180910390f35b6101c360048036038101906101be91906119db565b610474565b6040516101d09190611a31565b60405180910390f35b6101e1610514565b6040516101ee9190611a65565b60405180910390f35b610211600480360381019061020c91906117c6565b61051c565b005b61021b6105d5565b6040516102289190611ad9565b60405180910390f35b61024b60048036038101906102469190611af2565b6105f9565b005b61026760048036038101906102629190611b8e565b6107ee565b6040516102749190611846565b60405180910390f35b610285610841565b6040516102929190611a31565b60405180910390f35b6102a36108d4565b6040516102b09190611708565b60405180910390f35b6102d360048036038101906102ce91906117c6565b610972565b005b6102ef60048036038101906102ea91906117c6565b610a2b565b6040516102fc919061181e565b60405180910390f35b61031f600480360381019061031a9190611b8e565b610a4d565b005b610329610b53565b6040516103369190611846565b60405180910390f35b61035960048036038101906103549190611bb9565b610b59565b6040516103669190611846565b60405180910390f35b60605f61037a610be9565b905080600301805461038b90611c24565b80601f01602080910402602001604051908101604052809291908181526020018280546103b790611c24565b80156104025780601f106103d957610100808354040283529160200191610402565b820191905f5260205f20905b8154815290600101906020018083116103e557829003601f168201915b505050505091505090565b5f5f610417610c10565b9050610424818585610c17565b600191505092915050565b5f5f610439610be9565b9050806002015491505090565b5f5f610450610c10565b905061045d858285610c29565b610468858585610cbc565b60019150509392505050565b5f5f5f9054906101000a900473ffffffffffffffffffffffffffffffffffffffff1673ffffffffffffffffffffffffffffffffffffffff166327262618836040518263ffffffff1660e01b81526004016104ce9190611708565b602060405180830381865afa1580156104e9573d5f5f3e3d5ffd5b505050506040513d601f19601f8201168201806040525081019061050d9190611c68565b9050919050565b5f6012905090565b61055a6040518060400160405280600a81526020017f6574662d726f7574657200000000000000000000000000000000000000000000815250610474565b73ffffffffffffffffffffffffffffffffffffffff163373ffffffffffffffffffffffffffffffffffffffff16146105c7576040517f08c379a00000000000000000000000000000000000000000000000000000000081526004016105be90611cdd565b60405180910390fd5b6105d18282610dac565b5050565b5f5f9054906101000a900473ffffffffffffffffffffffffffffffffffffffff1681565b5f610602610e2b565b90505f815f0160089054906101000a900460ff161590505f825f015f9054906101000a900467ffffffffffffffff1690505f5f8267ffffffffffffffff1614801561064a5750825b90505f60018367ffffffffffffffff1614801561067d57505f3073ffffffffffffffffffffffffffffffffffffffff163b145b90508115801561068b575080155b156106c2576040517ff92ee8a900000000000000000000000000000000000000000000000000000000815260040160405180910390fd5b6001855f015f6101000a81548167ffffffffffffffff021916908367ffffffffffffffff160217905550831561070f576001855f0160086101000a81548160ff0219169083151502179055505b5f60149054906101000a900460ff1615610755576040517f0dc149f000000000000000000000000000000000000000000000000000000000815260040160405180910390fd5b60015f60146101000a81548160ff02191690831515021790555061077886610e3e565b6107828888610fef565b8860018190555083156107e3575f855f0160086101000a81548160ff0219169083151502179055507fc7f505b2f371ae2175ee4913f4499e1f2633a7b5936321eed1cdaeb6115181d260016040516107da9190611d47565b60405180910390a15b505050505050505050565b5f5f6107f8610be9565b9050805f015f8473ffffffffffffffffffffffffffffffffffffffff1673ffffffffffffffffffffffffffffffffffffffff1681526020019081526020015f2054915050919050565b5f5f5f9054906101000a900473ffffffffffffffffffffffffffffffffffffffff1673ffffffffffffffffffffffffffffffffffffffff16638da5cb5b6040518163ffffffff1660e01b8152600401602060405180830381865afa1580156108ab573d5f5f3e3d5ffd5b505050506040513d601f19601f820116820180604052508101906108cf9190611c68565b905090565b60605f6108df610be9565b90508060040180546108f090611c24565b80601f016020809104026020016040519081016040528092919081815260200182805461091c90611c24565b80156109675780601f1061093e57610100808354040283529160200191610967565b820191905f5260205f20905b81548152906001019060200180831161094a57829003601f168201915b505050505091505090565b6109b06040518060400160405280600a81526020017f6574662d726f7574657200000000000000000000000000000000000000000000815250610474565b73ffffffffffffffffffffffffffffffffffffffff163373ffffffffffffffffffffffffffffffffffffffff1614610a1d576040517f08c379a0000000000000000000000000000000000000000000000000000000008152600401610a1490611cdd565b60405180910390fd5b610a278282611005565b5050565b5f5f610a35610c10565b9050610a42818585610cbc565b600191505092915050565b5f5f9054906101000a900473ffffffffffffffffffffffffffffffffffffffff1673ffffffffffffffffffffffffffffffffffffffff16638da5cb5b6040518163ffffffff1660e01b8152600401602060405180830381865afa158015610ab6573d5f5f3e3d5ffd5b505050506040513d601f19601f82011682018060405250810190610ada9190611c68565b73ffffffffffffffffffffffffffffffffffffffff163373ffffffffffffffffffffffffffffffffffffffff1614610b47576040517f08c379a0000000000000000000000000000000000000000000000000000000008152600401610b3e90611daa565b60405180910390fd5b610b5081610e3e565b50565b60015481565b5f5f610b63610be9565b9050806001015f8573ffffffffffffffffffffffffffffffffffffffff1673ffffffffffffffffffffffffffffffffffffffff1681526020019081526020015f205f8473ffffffffffffffffffffffffffffffffffffffff1673ffffffffffffffffffffffffffffffffffffffff1681526020019081526020015f205491505092915050565b5f7f52c63247e1f47db19d5ce0460030c497f067ca4cebf71ba98eeadabe20bace00905090565b5f33905090565b610c248383836001611084565b505050565b5f610c348484610b59565b90507fffffffffffffffffffffffffffffffffffffffffffffffffffffffffffffffff811015610cb65781811015610ca7578281836040517ffb8f41b2000000000000000000000000000000000000000000000000000000008152600401610c9e93929190611dc8565b60405180910390fd5b610cb584848484035f611084565b5b50505050565b5f73ffffffffffffffffffffffffffffffffffffffff168373ffffffffffffffffffffffffffffffffffffffff1603610d2c575f6040517f96c6fd1e000000000000000000000000000000000000000000000000000000008152600401610d239190611a31565b60405180910390fd5b5f73ffffffffffffffffffffffffffffffffffffffff168273ffffffffffffffffffffffffffffffffffffffff1603610d9c575f6040517fec442f05000000000000000000000000000000000000000000000000000000008152600401610d939190611a31565b60405180910390fd5b610da7838383611261565b505050565b5f73ffffffffffffffffffffffffffffffffffffffff168273ffffffffffffffffffffffffffffffffffffffff1603610e1c575f6040517fec442f05000000000000000000000000000000000000000000000000000000008152600401610e139190611a31565b60405180910390fd5b610e275f8383611261565b5050565b5f5f610e35611362565b90508091505090565b5f73ffffffffffffffffffffffffffffffffffffffff168173ffffffffffffffffffffffffffffffffffffffff1603610eac576040517f08c379a0000000000000000000000000000000000000000000000000000000008152600401610ea390611e47565b60405180910390fd5b5f8173ffffffffffffffffffffffffffffffffffffffff163b11610f05576040517f08c379a0000000000000000000000000000000000000000000000000000000008152600401610efc90611eaf565b60405180910390fd5b8073ffffffffffffffffffffffffffffffffffffffff16638da5cb5b6040518163ffffffff1660e01b8152600401602060405180830381865afa925050508015610f6d57506040513d601f19601f82011682018060405250810190610f6a9190611c68565b60015b610fac576040517f08c379a0000000000000000000000000000000000000000000000000000000008152600401610fa390611f3d565b60405180910390fd5b815f5f6101000a81548173ffffffffffffffffffffffffffffffffffffffff021916908373ffffffffffffffffffffffffffffffffffffffff1602179055505050565b610ff761138b565b61100182826113cb565b5050565b5f73ffffffffffffffffffffffffffffffffffffffff168273ffffffffffffffffffffffffffffffffffffffff1603611075575f6040517f96c6fd1e00000000000000000000000000000000000000000000000000000000815260040161106c9190611a31565b60405180910390fd5b611080825f83611261565b5050565b5f61108d610be9565b90505f73ffffffffffffffffffffffffffffffffffffffff168573ffffffffffffffffffffffffffffffffffffffff16036110ff575f6040517fe602df050000000000000000000000000000000000000000000000000000000081526004016110f69190611a31565b60405180910390fd5b5f73ffffffffffffffffffffffffffffffffffffffff168473ffffffffffffffffffffffffffffffffffffffff160361116f575f6040517f94280d620000000000000000000000000000000000000000000000000000000081526004016111669190611a31565b60405180910390fd5b82816001015f8773ffffffffffffffffffffffffffffffffffffffff1673ffffffffffffffffffffffffffffffffffffffff1681526020019081526020015f205f8673ffffffffffffffffffffffffffffffffffffffff1673ffffffffffffffffffffffffffffffffffffffff1681526020019081526020015f2081905550811561125a578373ffffffffffffffffffffffffffffffffffffffff168573ffffffffffffffffffffffffffffffffffffffff167f8c5be1e5ebec7d5bd14f71427d1e84f3dd0314c0f7b2291e5b200ac8c7c3b925856040516112519190611846565b60405180910390a35b5050505050565b61126c838383611407565b5f611275611636565b90505f73ffffffffffffffffffffffffffffffffffffffff168173ffffffffffffffffffffffffffffffffffffffff16036112e5576040517f08c379a00000000000000000000000000000000000000000000000000000000081526004016112dc90611fcb565b60405180910390fd5b8073ffffffffffffffffffffffffffffffffffffffff16634b4bcf7e60015486868661130f61042f565b6040518663ffffffff1660e01b815260040161132f959493929190611fe9565b5f604051808303815f87803b158015611346575f5ffd5b505af1158015611358573d5f5f3e3d5ffd5b5050505050505050565b5f7ff0c57e16840df040f15088dc2f81fe391c3923bec73e23a9662efc9c229c6a005f1b905090565b61139361167a565b6113c9576040517fd7e6bcf800000000000000000000000000000000000000000000000000000000815260040160405180910390fd5b565b6113d361138b565b5f6113dc610be9565b9050828160030190816113ef91906121d1565b508181600401908161140191906121d1565b50505050565b5f611410610be9565b90505f73ffffffffffffffffffffffffffffffffffffffff168473ffffffffffffffffffffffffffffffffffffffff16036114645781816002015f82825461145891906122cd565b92505081905550611536565b5f815f015f8673ffffffffffffffffffffffffffffffffffffffff1673ffffffffffffffffffffffffffffffffffffffff1681526020019081526020015f20549050828110156114ef578481846040517fe450d38c0000000000000000000000000000000000000000000000000000000081526004016114e693929190611dc8565b60405180910390fd5b828103825f015f8773ffffffffffffffffffffffffffffffffffffffff1673ffffffffffffffffffffffffffffffffffffffff1681526020019081526020015f2081905550505b5f73ffffffffffffffffffffffffffffffffffffffff168373ffffffffffffffffffffffffffffffffffffffff160361157f5781816002015f82825403925050819055506115cb565b81815f015f8573ffffffffffffffffffffffffffffffffffffffff1673ffffffffffffffffffffffffffffffffffffffff1681526020019081526020015f205f82825401925050819055505b8273ffffffffffffffffffffffffffffffffffffffff168473ffffffffffffffffffffffffffffffffffffffff167fddf252ad1be2c89b69c2b068fc378daa952ba7f163c4a11628f55a4df523b3ef846040516116289190611846565b60405180910390a350505050565b5f6116756040518060400160405280601081526020017f6574662d746f6b656e2d6576656e747300000000000000000000000000000000815250610474565b905090565b5f611683610e2b565b5f0160089054906101000a900460ff16905090565b5f81519050919050565b5f82825260208201905092915050565b8281835e5f83830152505050565b5f601f19601f8301169050919050565b5f6116da82611698565b6116e481856116a2565b93506116f48185602086016116b2565b6116fd816116c0565b840191505092915050565b5f6020820190508181035f83015261172081846116d0565b905092915050565b5f604051905090565b5f5ffd5b5f5ffd5b5f73ffffffffffffffffffffffffffffffffffffffff82169050919050565b5f61176282611739565b9050919050565b61177281611758565b811461177c575f5ffd5b50565b5f8135905061178d81611769565b92915050565b5f819050919050565b6117a581611793565b81146117af575f5ffd5b50565b5f813590506117c08161179c565b92915050565b5f5f604083850312156117dc576117db611731565b5b5f6117e98582860161177f565b92505060206117fa858286016117b2565b9150509250929050565b5f8115159050919050565b61181881611804565b82525050565b5f6020820190506118315f83018461180f565b92915050565b61184081611793565b82525050565b5f6020820190506118595f830184611837565b92915050565b5f5f5f6060848603121561187657611875611731565b5b5f6118838682870161177f565b93505060206118948682870161177f565b92505060406118a5868287016117b2565b9150509250925092565b5f5ffd5b5f5ffd5b7f4e487b71000000000000000000000000000000000000000000000000000000005f52604160045260245ffd5b6118ed826116c0565b810181811067ffffffffffffffff8211171561190c5761190b6118b7565b5b80604052505050565b5f61191e611728565b905061192a82826118e4565b919050565b5f67ffffffffffffffff821115611949576119486118b7565b5b611952826116c0565b9050602081019050919050565b828183375f83830152505050565b5f61197f61197a8461192f565b611915565b90508281526020810184848401111561199b5761199a6118b3565b5b6119a684828561195f565b509392505050565b5f82601f8301126119c2576119c16118af565b5b81356119d284826020860161196d565b91505092915050565b5f602082840312156119f0576119ef611731565b5b5f82013567ffffffffffffffff811115611a0d57611a0c611735565b5b611a19848285016119ae565b91505092915050565b611a2b81611758565b82525050565b5f602082019050611a445f830184611a22565b92915050565b5f60ff82169050919050565b611a5f81611a4a565b82525050565b5f602082019050611a785f830184611a56565b92915050565b5f819050919050565b5f611aa1611a9c611a9784611739565b611a7e565b611739565b9050919050565b5f611ab282611a87565b9050919050565b5f611ac382611aa8565b9050919050565b611ad381611ab9565b82525050565b5f602082019050611aec5f830184611aca565b92915050565b5f5f5f5f60808587031215611b0a57611b09611731565b5b5f611b17878288016117b2565b945050602085013567ffffffffffffffff811115611b3857611b37611735565b5b611b44878288016119ae565b935050604085013567ffffffffffffffff811115611b6557611b64611735565b5b611b71878288016119ae565b9250506060611b828782880161177f565b91505092959194509250565b5f60208284031215611ba357611ba2611731565b5b5f611bb08482850161177f565b91505092915050565b5f5f60408385031215611bcf57611bce611731565b5b5f611bdc8582860161177f565b9250506020611bed8582860161177f565b9150509250929050565b7f4e487b71000000000000000000000000000000000000000000000000000000005f52602260045260245ffd5b5f6002820490506001821680611c3b57607f821691505b602082108103611c4e57611c4d611bf7565b5b50919050565b5f81519050611c6281611769565b92915050565b5f60208284031215611c7d57611c7c611731565b5b5f611c8a84828501611c54565b91505092915050565b7f6d73672e73656e646572206973206e6f742065746620726f75746572000000005f82015250565b5f611cc7601c836116a2565b9150611cd282611c93565b602082019050919050565b5f6020820190508181035f830152611cf481611cbb565b9050919050565b5f819050919050565b5f67ffffffffffffffff82169050919050565b5f611d31611d2c611d2784611cfb565b611a7e565b611d04565b9050919050565b611d4181611d17565b82525050565b5f602082019050611d5a5f830184611d38565b92915050565b7f43616c6c6572206973206e6f7420746865206f776e65720000000000000000005f82015250565b5f611d946017836116a2565b9150611d9f82611d60565b602082019050919050565b5f6020820190508181035f830152611dc181611d88565b9050919050565b5f606082019050611ddb5f830186611a22565b611de86020830185611837565b611df56040830184611837565b949350505050565b7f4469726563746f72792063616e6e6f74206265207a65726f20616464726573735f82015250565b5f611e316020836116a2565b9150611e3c82611dfd565b602082019050919050565b5f6020820190508181035f830152611e5e81611e25565b9050919050565b7f4469726563746f7279206d757374206265206120636f6e7472616374000000005f82015250565b5f611e99601c836116a2565b9150611ea482611e65565b602082019050919050565b5f6020820190508181035f830152611ec681611e8d565b9050919050565b7f4469726563746f7279206164647265737320646f6573206e6f7420696d706c655f8201527f6d656e74206f776e657228290000000000000000000000000000000000000000602082015250565b5f611f27602c836116a2565b9150611f3282611ecd565b604082019050919050565b5f6020820190508181035f830152611f5481611f1b565b9050919050565b7f457466546f6b656e3a206576656e747320636f6e7472616374206e6f742073655f8201527f7400000000000000000000000000000000000000000000000000000000000000602082015250565b5f611fb56021836116a2565b9150611fc082611f5b565b604082019050919050565b5f6020820190508181035f830152611fe281611fa9565b9050919050565b5f60a082019050611ffc5f830188611837565b6120096020830187611a22565b6120166040830186611a22565b6120236060830185611837565b6120306080830184611837565b9695505050505050565b5f819050815f5260205f209050919050565b5f6020601f8301049050919050565b5f82821b905092915050565b5f600883026120967fffffffffffffffffffffffffffffffffffffffffffffffffffffffffffffffff8261205b565b6120a0868361205b565b95508019841693508086168417925050509392505050565b5f6120d26120cd6120c884611793565b611a7e565b611793565b9050919050565b5f819050919050565b6120eb836120b8565b6120ff6120f7826120d9565b848454612067565b825550505050565b5f5f905090565b612116612107565b6121218184846120e2565b505050565b5b81811015612144576121395f8261210e565b600181019050612127565b5050565b601f8211156121895761215a8161203a565b6121638461204c565b81016020851015612172578190505b61218661217e8561204c565b830182612126565b50505b505050565b5f82821c905092915050565b5f6121a95f198460080261218e565b1980831691505092915050565b5f6121c1838361219a565b9150826002028217905092915050565b6121da82611698565b67ffffffffffffffff8111156121f3576121f26118b7565b5b6121fd8254611c24565b612208828285612148565b5f60209050601f831160018114612239575f8415612227578287015190505b61223185826121b6565b865550612298565b601f1984166122478661203a565b5f5b8281101561226e57848901518255600182019150602085019450602081019050612249565b8683101561228b5784890151612287601f89168261219a565b8355505b6001600288020188555050505b505050505050565b7f4e487b71000000000000000000000000000000000000000000000000000000005f52601160045260245ffd5b5f6122d782611793565b91506122e283611793565b92508282019050808211156122fa576122f96122a0565b5b9291505056fea2646970667358221220f45aa55f4bef83efec456f7b341021141ba963c9c7422553c1bbd50077b316f864736f6c634300081e0033",
			"opcodes": "PUSH1 0x80 PUSH1 0x40 MSTORE CALLVALUE DUP1 ISZERO PUSH2 0xF JUMPI PUSH0 PUSH0 REVERT JUMPDEST POP PUSH1 0x40 MLOAD PUSH2 0x2733 CODESIZE SUB DUP1 PUSH2 0x2733 DUP4 CODECOPY DUP2 DUP2 ADD PUSH1 0x40 MSTORE DUP2 ADD SWAP1 PUSH2 0x31 SWAP2 SWAP1 PUSH2 0x257 JUMP JUMPDEST DUP1 PUSH2 0x41 DUP2 PUSH2 0x48 PUSH1 0x20 SHL PUSH1 0x20 SHR JUMP JUMPDEST POP POP PUSH2 0x3F0 JUMP JUMPDEST PUSH0 PUSH20 0xFFFFFFFFFFFFFFFFFFFFFFFFFFFFFFFFFFFFFFFF AND DUP2 PUSH20 0xFFFFFFFFFFFFFFFFFFFFFFFFFFFFFFFFFFFFFFFF AND SUB PUSH2 0xB6 JUMPI PUSH1 0x40 MLOAD PUSH32 0x8C379A000000000000000000000000000000000000000000000000000000000 DUP2 MSTORE PUSH1 0x4 ADD PUSH2 0xAD SWAP1 PUSH2 0x2DC JUMP JUMPDEST PUSH1 0x40 MLOAD DUP1 SWAP2 SUB SWAP1 REVERT JUMPDEST PUSH0 DUP2 PUSH20 0xFFFFFFFFFFFFFFFFFFFFFFFFFFFFFFFFFFFFFFFF AND EXTCODESIZE GT PUSH2 0x10F JUMPI PUSH1 0x40 MLOAD PUSH32 0x8C379A000000000000000000000000000000000000000000000000000000000 DUP2 MSTORE PUSH1 0x4 ADD PUSH2 0x106 SWAP1 PUSH2 0x344 JUMP JUMPDEST PUSH1 0x40 MLOAD DUP1 SWAP2 SUB SWAP1 REVERT JUMPDEST DUP1 PUSH20 0xFFFFFFFFFFFFFFFFFFFFFFFFFFFFFFFFFFFFFFFF AND PUSH4 0x8DA5CB5B PUSH1 0x40 MLOAD DUP2 PUSH4 0xFFFFFFFF AND PUSH1 0xE0 SHL DUP2 MSTORE PUSH1 0x4 ADD PUSH1 0x20 PUSH1 0x40 MLOAD DUP1 DUP4 SUB DUP2 DUP7 GAS STATICCALL SWAP3 POP POP POP DUP1 ISZERO PUSH2 0x177 JUMPI POP PUSH1 0x40 MLOAD RETURNDATASIZE PUSH1 0x1F NOT PUSH1 0x1F DUP3 ADD AND DUP3 ADD DUP1 PUSH1 0x40 MSTORE POP DUP2 ADD SWAP1 PUSH2 0x174 SWAP2 SWAP1 PUSH2 0x257 JUMP JUMPDEST PUSH1 0x1 JUMPDEST PUSH2 0x1B6 JUMPI PUSH1 0x40 MLOAD PUSH32 0x8C379A000000000000000000000000000000000000000000000000000000000 DUP2 MSTORE PUSH1 0x4 ADD PUSH2 0x1AD SWAP1 PUSH2 0x3D2 JUMP JUMPDEST PUSH1 0x40 MLOAD DUP1 SWAP2 SUB SWAP1 REVERT JUMPDEST DUP2 PUSH0 PUSH0 PUSH2 0x100 EXP DUP2 SLOAD DUP2 PUSH20 0xFFFFFFFFFFFFFFFFFFFFFFFFFFFFFFFFFFFFFFFF MUL NOT AND SWAP1 DUP4 PUSH20 0xFFFFFFFFFFFFFFFFFFFFFFFFFFFFFFFFFFFFFFFF AND MUL OR SWAP1 SSTORE POP POP POP JUMP JUMPDEST PUSH0 PUSH0 REVERT JUMPDEST PUSH0 PUSH20 0xFFFFFFFFFFFFFFFFFFFFFFFFFFFFFFFFFFFFFFFF DUP3 AND SWAP1 POP SWAP2 SWAP1 POP JUMP JUMPDEST PUSH0 PUSH2 0x226 DUP3 PUSH2 0x1FD JUMP JUMPDEST SWAP1 POP SWAP2 SWAP1 POP JUMP JUMPDEST PUSH2 0x236 DUP2 PUSH2 0x21C JUMP JUMPDEST DUP2 EQ PUSH2 0x240 JUMPI PUSH0 PUSH0 REVERT JUMPDEST POP JUMP JUMPDEST PUSH0 DUP2 MLOAD SWAP1 POP PUSH2 0x251 DUP2 PUSH2 0x22D JUMP JUMPDEST SWAP3 SWAP2 POP POP JUMP JUMPDEST PUSH0 PUSH1 0x20 DUP3 DUP5 SUB SLT ISZERO PUSH2 0x26C JUMPI PUSH2 0x26B PUSH2 0x1F9 JUMP JUMPDEST JUMPDEST PUSH0 PUSH2 0x279 DUP5 DUP3 DUP6 ADD PUSH2 0x243 JUMP JUMPDEST SWAP2 POP POP SWAP3 SWAP2 POP POP JUMP JUMPDEST PUSH0 DUP3 DUP3 MSTORE PUSH1 0x20 DUP3 ADD SWAP1 POP SWAP3 SWAP2 POP POP JUMP JUMPDEST PUSH32 0x4469726563746F72792063616E6E6F74206265207A65726F2061646472657373 PUSH0 DUP3 ADD MSTORE POP JUMP JUMPDEST PUSH0 PUSH2 0x2C6 PUSH1 0x20 DUP4 PUSH2 0x282 JUMP JUMPDEST SWAP2 POP PUSH2 0x2D1 DUP3 PUSH2 0x292 JUMP JUMPDEST PUSH1 0x20 DUP3 ADD SWAP1 POP SWAP2 SWAP1 POP JUMP JUMPDEST PUSH0 PUSH1 0x20 DUP3 ADD SWAP1 POP DUP2 DUP2 SUB PUSH0 DUP4 ADD MSTORE PUSH2 0x2F3 DUP2 PUSH2 0x2BA JUMP JUMPDEST SWAP1 POP SWAP2 SWAP1 POP JUMP JUMPDEST PUSH32 0x4469726563746F7279206D757374206265206120636F6E747261637400000000 PUSH0 DUP3 ADD MSTORE POP JUMP JUMPDEST PUSH0 PUSH2 0x32E PUSH1 0x1C DUP4 PUSH2 0x282 JUMP JUMPDEST SWAP2 POP PUSH2 0x339 DUP3 PUSH2 0x2FA JUMP JUMPDEST PUSH1 0x20 DUP3 ADD SWAP1 POP SWAP2 SWAP1 POP JUMP JUMPDEST PUSH0 PUSH1 0x20 DUP3 ADD SWAP1 POP DUP2 DUP2 SUB PUSH0 DUP4 ADD MSTORE PUSH2 0x35B DUP2 PUSH2 0x322 JUMP JUMPDEST SWAP1 POP SWAP2 SWAP1 POP JUMP JUMPDEST PUSH32 0x4469726563746F7279206164647265737320646F6573206E6F7420696D706C65 PUSH0 DUP3 ADD MSTORE PUSH32 0x6D656E74206F776E657228290000000000000000000000000000000000000000 PUSH1 0x20 DUP3 ADD MSTORE POP JUMP JUMPDEST PUSH0 PUSH2 0x3BC PUSH1 0x2C DUP4 PUSH2 0x282 JUMP JUMPDEST SWAP2 POP PUSH2 0x3C7 DUP3 PUSH2 0x362 JUMP JUMPDEST PUSH1 0x40 DUP3 ADD SWAP1 POP SWAP2 SWAP1 POP JUMP JUMPDEST PUSH0 PUSH1 0x20 DUP3 ADD SWAP1 POP DUP2 DUP2 SUB PUSH0 DUP4 ADD MSTORE PUSH2 0x3E9 DUP2 PUSH2 0x3B0 JUMP JUMPDEST SWAP1 POP SWAP2 SWAP1 POP JUMP JUMPDEST PUSH2 0x2336 DUP1 PUSH2 0x3FD PUSH0 CODECOPY PUSH0 RETURN INVALID PUSH1 0x80 PUSH1 0x40 MSTORE CALLVALUE DUP1 ISZERO PUSH2 0xF JUMPI PUSH0 PUSH0 REVERT JUMPDEST POP PUSH1 0x4 CALLDATASIZE LT PUSH2 0x109 JUMPI PUSH0 CALLDATALOAD PUSH1 0xE0 SHR DUP1 PUSH4 0x6EBD362C GT PUSH2 0xA0 JUMPI DUP1 PUSH4 0x9DC29FAC GT PUSH2 0x6F JUMPI DUP1 PUSH4 0x9DC29FAC EQ PUSH2 0x2B9 JUMPI DUP1 PUSH4 0xA9059CBB EQ PUSH2 0x2D5 JUMPI DUP1 PUSH4 0xBA4C7BE1 EQ PUSH2 0x305 JUMPI DUP1 PUSH4 0xCFA36F3D EQ PUSH2 0x321 JUMPI DUP1 PUSH4 0xDD62ED3E EQ PUSH2 0x33F JUMPI PUSH2 0x109 JUMP JUMPDEST DUP1 PUSH4 0x6EBD362C EQ PUSH2 0x231 JUMPI DUP1 PUSH4 0x70A08231 EQ PUSH2 0x24D JUMPI DUP1 PUSH4 0x8DA5CB5B EQ PUSH2 0x27D JUMPI DUP1 PUSH4 0x95D89B41 EQ PUSH2 0x29B JUMPI PUSH2 0x109 JUMP JUMPDEST DUP1 PUSH4 0x27262618 GT PUSH2 0xDC JUMPI DUP1 PUSH4 0x27262618 EQ PUSH2 0x1A9 JUMPI DUP1 PUSH4 0x313CE567 EQ PUSH2 0x1D9 JUMPI DUP1 PUSH4 0x40C10F19 EQ PUSH2 0x1F7 JUMPI DUP1 PUSH4 0x658A847A EQ PUSH2 0x213 JUMPI PUSH2 0x109 JUMP JUMPDEST DUP1 PUSH4 0x6FDDE03 EQ PUSH2 0x10D JUMPI DUP1 PUSH4 0x95EA7B3 EQ PUSH2 0x12B JUMPI DUP1 PUSH4 0x18160DDD EQ PUSH2 0x15B JUMPI DUP1 PUSH4 0x23B872DD EQ PUSH2 0x179 JUMPI JUMPDEST PUSH0 PUSH0 REVERT JUMPDEST PUSH2 0x115 PUSH2 0x36F JUMP JUMPDEST PUSH1 0x40 MLOAD PUSH2 0x122 SWAP2 SWAP1 PUSH2 0x1708 JUMP JUMPDEST PUSH1 0x40 MLOAD DUP1 SWAP2 SUB SWAP1 RETURN JUMPDEST PUSH2 0x145 PUSH1 0x4 DUP1 CALLDATASIZE SUB DUP2 ADD SWAP1 PUSH2 0x140 SWAP2 SWAP1 PUSH2 0x17C6 JUMP JUMPDEST PUSH2 0x40D JUMP JUMPDEST PUSH1 0x40 MLOAD PUSH2 0x152 SWAP2 SWAP1 PUSH2 0x181E JUMP JUMPDEST PUSH1 0x40 MLOAD DUP1 SWAP2 SUB SWAP1 RETURN JUMPDEST PUSH2 0x163 PUSH2 0x42F JUMP JUMPDEST PUSH1 0x40 MLOAD PUSH2 0x170 SWAP2 SWAP1 PUSH2 0x1846 JUMP JUMPDEST PUSH1 0x40 MLOAD DUP1 SWAP2 SUB SWAP1 RETURN JUMPDEST PUSH2 0x193 PUSH1 0x4 DUP1 CALLDATASIZE SUB DUP2 ADD SWAP1 PUSH2 0x18E SWAP2 SWAP1 PUSH2 0x185F JUMP JUMPDEST PUSH2 0x446 JUMP JUMPDEST PUSH1 0x40 MLOAD PUSH2 0x1A0 SWAP2 SWAP1 PUSH2 0x181E JUMP JUMPDEST PUSH1 0x40 MLOAD DUP1 SWAP2 SUB SWAP1 RETURN JUMPDEST PUSH2 0x1C3 PUSH1 0x4 DUP1 CALLDATASIZE SUB DUP2 ADD SWAP1 PUSH2 0x1BE SWAP2 SWAP1 PUSH2 0x19DB JUMP JUMPDEST PUSH2 0x474 JUMP JUMPDEST PUSH1 0x40 MLOAD PUSH2 0x1D0 SWAP2 SWAP1 PUSH2 0x1A31 JUMP JUMPDEST PUSH1 0x40 MLOAD DUP1 SWAP2 SUB SWAP1 RETURN JUMPDEST PUSH2 0x1E1 PUSH2 0x514 JUMP JUMPDEST PUSH1 0x40 MLOAD PUSH2 0x1EE SWAP2 SWAP1 PUSH2 0x1A65 JUMP JUMPDEST PUSH1 0x40 MLOAD DUP1 SWAP2 SUB SWAP1 RETURN JUMPDEST PUSH2 0x211 PUSH1 0x4 DUP1 CALLDATASIZE SUB DUP2 ADD SWAP1 PUSH2 0x20C SWAP2 SWAP1 PUSH2 0x17C6 JUMP JUMPDEST PUSH2 0x51C JUMP JUMPDEST STOP JUMPDEST PUSH2 0x21B PUSH2 0x5D5 JUMP JUMPDEST PUSH1 0x40 MLOAD PUSH2 0x228 SWAP2 SWAP1 PUSH2 0x1AD9 JUMP JUMPDEST PUSH1 0x40 MLOAD DUP1 SWAP2 SUB SWAP1 RETURN JUMPDEST PUSH2 0x24B PUSH1 0x4 DUP1 CALLDATASIZE SUB DUP2 ADD SWAP1 PUSH2 0x246 SWAP2 SWAP1 PUSH2 0x1AF2 JUMP JUMPDEST PUSH2 0x5F9 JUMP JUMPDEST STOP JUMPDEST PUSH2 0x267 PUSH1 0x4 DUP1 CALLDATASIZE SUB DUP2 ADD SWAP1 PUSH2 0x262 SWAP2 SWAP1 PUSH2 0x1B8E JUMP JUMPDEST PUSH2 0x7EE JUMP JUMPDEST PUSH1 0x40 MLOAD PUSH2 0x274 SWAP2 SWAP1 PUSH2 0x1846 JUMP JUMPDEST PUSH1 0x40 MLOAD DUP1 SWAP2 SUB SWAP1 RETURN JUMPDEST PUSH2 0x285 PUSH2 0x841 JUMP JUMPDEST PUSH1 0x40 MLOAD PUSH2 0x292 SWAP2 SWAP1 PUSH2 0x1A31 JUMP JUMPDEST PUSH1 0x40 MLOAD DUP1 SWAP2 SUB SWAP1 RETURN JUMPDEST PUSH2 0x2A3 PUSH2 0x8D4 JUMP JUMPDEST PUSH1 0x40 MLOAD PUSH2 0x2B0 SWAP2 SWAP1 PUSH2 0x1708 JUMP JUMPDEST PUSH1 0x40 MLOAD DUP1 SWAP2 SUB SWAP1 RETURN JUMPDEST PUSH2 0x2D3 PUSH1 0x4 DUP1 CALLDATASIZE SUB DUP2 ADD SWAP1 PUSH2 0x2CE SWAP2 SWAP1 PUSH2 0x17C6 JUMP JUMPDEST PUSH2 0x972 JUMP JUMPDEST STOP JUMPDEST PUSH2 0x2EF PUSH1 0x4 DUP1 CALLDATASIZE SUB DUP2 ADD SWAP1 PUSH2 0x2EA SWAP2 SWAP1 PUSH2 0x17C6 JUMP JUMPDEST PUSH2 0xA2B JUMP JUMPDEST PUSH1 0x40 MLOAD PUSH2 0x2FC SWAP2 SWAP1 PUSH2 0x181E JUMP JUMPDEST PUSH1 0x40 MLOAD DUP1 SWAP2 SUB SWAP1 RETURN JUMPDEST PUSH2 0x31F PUSH1 0x4 DUP1 CALLDATASIZE SUB DUP2 ADD SWAP1 PUSH2 0x31A SWAP2 SWAP1 PUSH2 0x1B8E JUMP JUMPDEST PUSH2 0xA4D JUMP JUMPDEST STOP JUMPDEST PUSH2 0x329 PUSH2 0xB53 JUMP JUMPDEST PUSH1 0x40 MLOAD PUSH2 0x336 SWAP2 SWAP1 PUSH2 0x1846 JUMP JUMPDEST PUSH1 0x40 MLOAD DUP1 SWAP2 SUB SWAP1 RETURN JUMPDEST PUSH2 0x359 PUSH1 0x4 DUP1 CALLDATASIZE SUB DUP2 ADD SWAP1 PUSH2 0x354 SWAP2 SWAP1 PUSH2 0x1BB9 JUMP JUMPDEST PUSH2 0xB59 JUMP JUMPDEST PUSH1 0x40 MLOAD PUSH2 0x366 SWAP2 SWAP1 PUSH2 0x1846 JUMP JUMPDEST PUSH1 0x40 MLOAD DUP1 SWAP2 SUB SWAP1 RETURN JUMPDEST PUSH1 0x60 PUSH0 PUSH2 0x37A PUSH2 0xBE9 JUMP JUMPDEST SWAP1 POP DUP1 PUSH1 0x3 ADD DUP1 SLOAD PUSH2 0x38B SWAP1 PUSH2 0x1C24 JUMP JUMPDEST DUP1 PUSH1 0x1F ADD PUSH1 0x20 DUP1 SWAP2 DIV MUL PUSH1 0x20 ADD PUSH1 0x40 MLOAD SWAP1 DUP2 ADD PUSH1 0x40 MSTORE DUP1 SWAP3 SWAP2 SWAP1 DUP2 DUP2 MSTORE PUSH1 0x20 ADD DUP3 DUP1 SLOAD PUSH2 0x3B7 SWAP1 PUSH2 0x1C24 JUMP JUMPDEST DUP1 ISZERO PUSH2 0x402 JUMPI DUP1 PUSH1 0x1F LT PUSH2 0x3D9 JUMPI PUSH2 0x100 DUP1 DUP4 SLOAD DIV MUL DUP4 MSTORE SWAP2 PUSH1 0x20 ADD SWAP2 PUSH2 0x402 JUMP JUMPDEST DUP3 ADD SWAP2 SWAP1 PUSH0 MSTORE PUSH1 0x20 PUSH0 KECCAK256 SWAP1 JUMPDEST DUP2 SLOAD DUP2 MSTORE SWAP1 PUSH1 0x1 ADD SWAP1 PUSH1 0x20 ADD DUP1 DUP4 GT PUSH2 0x3E5 JUMPI DUP3 SWAP1 SUB PUSH1 0x1F AND DUP3 ADD SWAP2 JUMPDEST POP POP POP POP POP SWAP2 POP POP SWAP1 JUMP JUMPDEST PUSH0 PUSH0 PUSH2 0x417 PUSH2 0xC10 JUMP JUMPDEST SWAP1 POP PUSH2 0x424 DUP2 DUP6 DUP6 PUSH2 0xC17 JUMP JUMPDEST PUSH1 0x1 SWAP2 POP POP SWAP3 SWAP2 POP POP JUMP JUMPDEST PUSH0 PUSH0 PUSH2 0x439 PUSH2 0xBE9 JUMP JUMPDEST SWAP1 POP DUP1 PUSH1 0x2 ADD SLOAD SWAP2 POP POP SWAP1 JUMP JUMPDEST PUSH0 PUSH0 PUSH2 0x450 PUSH2 0xC10 JUMP JUMPDEST SWAP1 POP PUSH2 0x45D DUP6 DUP3 DUP6 PUSH2 0xC29 JUMP JUMPDEST PUSH2 0x468 DUP6 DUP6 DUP6 PUSH2 0xCBC JUMP JUMPDEST PUSH1 0x1 SWAP2 POP POP SWAP4 SWAP3 POP POP POP JUMP JUMPDEST PUSH0 PUSH0 PUSH0 SWAP1 SLOAD SWAP1 PUSH2 0x100 EXP SWAP1 DIV PUSH20 0xFFFFFFFFFFFFFFFFFFFFFFFFFFFFFFFFFFFFFFFF AND PUSH20 0xFFFFFFFFFFFFFFFFFFFFFFFFFFFFFFFFFFFFFFFF AND PUSH4 0x27262618 DUP4 PUSH1 0x40 MLOAD DUP3 PUSH4 0xFFFFFFFF AND PUSH1 0xE0 SHL DUP2 MSTORE PUSH1 0x4 ADD PUSH2 0x4CE SWAP2 SWAP1 PUSH2 0x1708 JUMP JUMPDEST PUSH1 0x20 PUSH1 0x40 MLOAD DUP1 DUP4 SUB DUP2 DUP7 GAS STATICCALL ISZERO DUP1 ISZERO PUSH2 0x4E9 JUMPI RETURNDATASIZE PUSH0 PUSH0 RETURNDATACOPY RETURNDATASIZE PUSH0 REVERT JUMPDEST POP POP POP POP PUSH1 0x40 MLOAD RETURNDATASIZE PUSH1 0x1F NOT PUSH1 0x1F DUP3 ADD AND DUP3 ADD DUP1 PUSH1 0x40 MSTORE POP DUP2 ADD SWAP1 PUSH2 0x50D SWAP2 SWAP1 PUSH2 0x1C68 JUMP JUMPDEST SWAP1 POP SWAP2 SWAP1 POP JUMP JUMPDEST PUSH0 PUSH1 0x12 SWAP1 POP SWAP1 JUMP JUMPDEST PUSH2 0x55A PUSH1 0x40 MLOAD DUP1 PUSH1 0x40 ADD PUSH1 0x40 MSTORE DUP1 PUSH1 0xA DUP2 MSTORE PUSH1 0x20 ADD PUSH32 0x6574662D726F7574657200000000000000000000000000000000000000000000 DUP2 MSTORE POP PUSH2 0x474 JUMP JUMPDEST PUSH20 0xFFFFFFFFFFFFFFFFFFFFFFFFFFFFFFFFFFFFFFFF AND CALLER PUSH20 0xFFFFFFFFFFFFFFFFFFFFFFFFFFFFFFFFFFFFFFFF AND EQ PUSH2 0x5C7 JUMPI PUSH1 0x40 MLOAD PUSH32 0x8C379A000000000000000000000000000000000000000000000000000000000 DUP2 MSTORE PUSH1 0x4 ADD PUSH2 0x5BE SWAP1 PUSH2 0x1CDD JUMP JUMPDEST PUSH1 0x40 MLOAD DUP1 SWAP2 SUB SWAP1 REVERT JUMPDEST PUSH2 0x5D1 DUP3 DUP3 PUSH2 0xDAC JUMP JUMPDEST POP POP JUMP JUMPDEST PUSH0 PUSH0 SWAP1 SLOAD SWAP1 PUSH2 0x100 EXP SWAP1 DIV PUSH20 0xFFFFFFFFFFFFFFFFFFFFFFFFFFFFFFFFFFFFFFFF AND DUP2 JUMP JUMPDEST PUSH0 PUSH2 0x602 PUSH2 0xE2B JUMP JUMPDEST SWAP1 POP PUSH0 DUP2 PUSH0 ADD PUSH1 0x8 SWAP1 SLOAD SWAP1 PUSH2 0x100 EXP SWAP1 DIV PUSH1 0xFF AND ISZERO SWAP1 POP PUSH0 DUP3 PUSH0 ADD PUSH0 SWAP1 SLOAD SWAP1 PUSH2 0x100 EXP SWAP1 DIV PUSH8 0xFFFFFFFFFFFFFFFF AND SWAP1 POP PUSH0 PUSH0 DUP3 PUSH8 0xFFFFFFFFFFFFFFFF AND EQ DUP1 ISZERO PUSH2 0x64A JUMPI POP DUP3 JUMPDEST SWAP1 POP PUSH0 PUSH1 0x1 DUP4 PUSH8 0xFFFFFFFFFFFFFFFF AND EQ DUP1 ISZERO PUSH2 0x67D JUMPI POP PUSH0 ADDRESS PUSH20 0xFFFFFFFFFFFFFFFFFFFFFFFFFFFFFFFFFFFFFFFF AND EXTCODESIZE EQ JUMPDEST SWAP1 POP DUP2 ISZERO DUP1 ISZERO PUSH2 0x68B JUMPI POP DUP1 ISZERO JUMPDEST ISZERO PUSH2 0x6C2 JUMPI PUSH1 0x40 MLOAD PUSH32 0xF92EE8A900000000000000000000000000000000000000000000000000000000 DUP2 MSTORE PUSH1 0x4 ADD PUSH1 0x40 MLOAD DUP1 SWAP2 SUB SWAP1 REVERT JUMPDEST PUSH1 0x1 DUP6 PUSH0 ADD PUSH0 PUSH2 0x100 EXP DUP2 SLOAD DUP2 PUSH8 0xFFFFFFFFFFFFFFFF MUL NOT AND SWAP1 DUP4 PUSH8 0xFFFFFFFFFFFFFFFF AND MUL OR SWAP1 SSTORE POP DUP4 ISZERO PUSH2 0x70F JUMPI PUSH1 0x1 DUP6 PUSH0 ADD PUSH1 0x8 PUSH2 0x100 EXP DUP2 SLOAD DUP2 PUSH1 0xFF MUL NOT AND SWAP1 DUP4 ISZERO ISZERO MUL OR SWAP1 SSTORE POP JUMPDEST PUSH0 PUSH1 0x14 SWAP1 SLOAD SWAP1 PUSH2 0x100 EXP SWAP1 DIV PUSH1 0xFF AND ISZERO PUSH2 0x755 JUMPI PUSH1 0x40 MLOAD PUSH32 0xDC149F000000000000000000000000000000000000000000000000000000000 DUP2 MSTORE PUSH1 0x4 ADD PUSH1 0x40 MLOAD DUP1 SWAP2 SUB SWAP1 REVERT JUMPDEST PUSH1 0x1 PUSH0 PUSH1 0x14 PUSH2 0x100 EXP DUP2 SLOAD DUP2 PUSH1 0xFF MUL NOT AND SWAP1 DUP4 ISZERO ISZERO MUL OR SWAP1 SSTORE POP PUSH2 0x778 DUP7 PUSH2 0xE3E JUMP JUMPDEST PUSH2 0x782 DUP9 DUP9 PUSH2 0xFEF JUMP JUMPDEST DUP9 PUSH1 0x1 DUP2 SWAP1 SSTORE POP DUP4 ISZERO PUSH2 0x7E3 JUMPI PUSH0 DUP6 PUSH0 ADD PUSH1 0x8 PUSH2 0x100 EXP DUP2 SLOAD DUP2 PUSH1 0xFF MUL NOT AND SWAP1 DUP4 ISZERO ISZERO MUL OR SWAP1 SSTORE POP PUSH32 0xC7F505B2F371AE2175EE4913F4499E1F2633A7B5936321EED1CDAEB6115181D2 PUSH1 0x1 PUSH1 0x40 MLOAD PUSH2 0x7DA SWAP2 SWAP1 PUSH2 0x1D47 JUMP JUMPDEST PUSH1 0x40 MLOAD DUP1 SWAP2 SUB SWAP1 LOG1 JUMPDEST POP POP POP POP POP POP POP POP POP JUMP JUMPDEST PUSH0 PUSH0 PUSH2 0x7F8 PUSH2 0xBE9 JUMP JUMPDEST SWAP1 POP DUP1 PUSH0 ADD PUSH0 DUP5 PUSH20 0xFFFFFFFFFFFFFFFFFFFFFFFFFFFFFFFFFFFFFFFF AND PUSH20 0xFFFFFFFFFFFFFFFFFFFFFFFFFFFFFFFFFFFFFFFF AND DUP2 MSTORE PUSH1 0x20 ADD SWAP1 DUP2 MSTORE PUSH1 0x20 ADD PUSH0 KECCAK256 SLOAD SWAP2 POP POP SWAP2 SWAP1 POP JUMP JUMPDEST PUSH0 PUSH0 PUSH0 SWAP1 SLOAD SWAP1 PUSH2 0x100 EXP SWAP1 DIV PUSH20 0xFFFFFFFFFFFFFFFFFFFFFFFFFFFFFFFFFFFFFFFF AND PUSH20 0xFFFFFFFFFFFFFFFFFFFFFFFFFFFFFFFFFFFFFFFF AND PUSH4 0x8DA5CB5B PUSH1 0x40 MLOAD DUP2 PUSH4 0xFFFFFFFF AND PUSH1 0xE0 SHL DUP2 MSTORE PUSH1 0x4 ADD PUSH1 0x20 PUSH1 0x40 MLOAD DUP1 DUP4 SUB DUP2 DUP7 GAS STATICCALL ISZERO DUP1 ISZERO PUSH2 0x8AB JUMPI RETURNDATASIZE PUSH0 PUSH0 RETURNDATACOPY RETURNDATASIZE PUSH0 REVERT JUMPDEST POP POP POP POP PUSH1 0x40 MLOAD RETURNDATASIZE PUSH1 0x1F NOT PUSH1 0x1F DUP3 ADD AND DUP3 ADD DUP1 PUSH1 0x40 MSTORE POP DUP2 ADD SWAP1 PUSH2 0x8CF SWAP2 SWAP1 PUSH2 0x1C68 JUMP JUMPDEST SWAP1 POP SWAP1 JUMP JUMPDEST PUSH1 0x60 PUSH0 PUSH2 0x8DF PUSH2 0xBE9 JUMP JUMPDEST SWAP1 POP DUP1 PUSH1 0x4 ADD DUP1 SLOAD PUSH2 0x8F0 SWAP1 PUSH2 0x1C24 JUMP JUMPDEST DUP1 PUSH1 0x1F ADD PUSH1 0x20 DUP1 SWAP2 DIV MUL PUSH1 0x20 ADD PUSH1 0x40 MLOAD SWAP1 DUP2 ADD PUSH1 0x40 MSTORE DUP1 SWAP3 SWAP2 SWAP1 DUP2 DUP2 MSTORE PUSH1 0x20 ADD DUP3 DUP1 SLOAD PUSH2 0x91C SWAP1 PUSH2 0x1C24 JUMP JUMPDEST DUP1 ISZERO PUSH2 0x967 JUMPI DUP1 PUSH1 0x1F LT PUSH2 0x93E JUMPI PUSH2 0x100 DUP1 DUP4 SLOAD DIV MUL DUP4 MSTORE SWAP2 PUSH1 0x20 ADD SWAP2 PUSH2 0x967 JUMP JUMPDEST DUP3 ADD SWAP2 SWAP1 PUSH0 MSTORE PUSH1 0x20 PUSH0 KECCAK256 SWAP1 JUMPDEST DUP2 SLOAD DUP2 MSTORE SWAP1 PUSH1 0x1 ADD SWAP1 PUSH1 0x20 ADD DUP1 DUP4 GT PUSH2 0x94A JUMPI DUP3 SWAP1 SUB PUSH1 0x1F AND DUP3 ADD SWAP2 JUMPDEST POP POP POP POP POP SWAP2 POP POP SWAP1 JUMP JUMPDEST PUSH2 0x9B0 PUSH1 0x40 MLOAD DUP1 PUSH1 0x40 ADD PUSH1 0x40 MSTORE DUP1 PUSH1 0xA DUP2 MSTORE PUSH1 0x20 ADD PUSH32 0x6574662D726F7574657200000000000000000000000000000000000000000000 DUP2 MSTORE POP PUSH2 0x474 JUMP JUMPDEST PUSH20 0xFFFFFFFFFFFFFFFFFFFFFFFFFFFFFFFFFFFFFFFF AND CALLER PUSH20 0xFFFFFFFFFFFFFFFFFFFFFFFFFFFFFFFFFFFFFFFF AND EQ PUSH2 0xA1D JUMPI PUSH1 0x40 MLOAD PUSH32 0x8C379A000000000000000000000000000000000000000000000000000000000 DUP2 MSTORE PUSH1 0x4 ADD PUSH2 0xA14 SWAP1 PUSH2 0x1CDD JUMP JUMPDEST PUSH1 0x40 MLOAD DUP1 SWAP2 SUB SWAP1 REVERT JUMPDEST PUSH2 0xA27 DUP3 DUP3 PUSH2 0x1005 JUMP JUMPDEST POP POP JUMP JUMPDEST PUSH0 PUSH0 PUSH2 0xA35 PUSH2 0xC10 JUMP JUMPDEST SWAP1 POP PUSH2 0xA42 DUP2 DUP6 DUP6 PUSH2 0xCBC JUMP JUMPDEST PUSH1 0x1 SWAP2 POP POP SWAP3 SWAP2 POP POP JUMP JUMPDEST PUSH0 PUSH0 SWAP1 SLOAD SWAP1 PUSH2 0x100 EXP SWAP1 DIV PUSH20 0xFFFFFFFFFFFFFFFFFFFFFFFFFFFFFFFFFFFFFFFF AND PUSH20 0xFFFFFFFFFFFFFFFFFFFFFFFFFFFFFFFFFFFFFFFF AND PUSH4 0x8DA5CB5B PUSH1 0x40 MLOAD DUP2 PUSH4 0xFFFFFFFF AND PUSH1 0xE0 SHL DUP2 MSTORE PUSH1 0x4 ADD PUSH1 0x20 PUSH1 0x40 MLOAD DUP1 DUP4 SUB DUP2 DUP7 GAS STATICCALL ISZERO DUP1 ISZERO PUSH2 0xAB6 JUMPI RETURNDATASIZE PUSH0 PUSH0 RETURNDATACOPY RETURNDATASIZE PUSH0 REVERT JUMPDEST POP POP POP POP PUSH1 0x40 MLOAD RETURNDATASIZE PUSH1 0x1F NOT PUSH1 0x1F DUP3 ADD AND DUP3 ADD DUP1 PUSH1 0x40 MSTORE POP DUP2 ADD SWAP1 PUSH2 0xADA SWAP2 SWAP1 PUSH2 0x1C68 JUMP JUMPDEST PUSH20 0xFFFFFFFFFFFFFFFFFFFFFFFFFFFFFFFFFFFFFFFF AND CALLER PUSH20 0xFFFFFFFFFFFFFFFFFFFFFFFFFFFFFFFFFFFFFFFF AND EQ PUSH2 0xB47 JUMPI PUSH1 0x40 MLOAD PUSH32 0x8C379A000000000000000000000000000000000000000000000000000000000 DUP2 MSTORE PUSH1 0x4 ADD PUSH2 0xB3E SWAP1 PUSH2 0x1DAA JUMP JUMPDEST PUSH1 0x40 MLOAD DUP1 SWAP2 SUB SWAP1 REVERT JUMPDEST PUSH2 0xB50 DUP2 PUSH2 0xE3E JUMP JUMPDEST POP JUMP JUMPDEST PUSH1 0x1 SLOAD DUP2 JUMP JUMPDEST PUSH0 PUSH0 PUSH2 0xB63 PUSH2 0xBE9 JUMP JUMPDEST SWAP1 POP DUP1 PUSH1 0x1 ADD PUSH0 DUP6 PUSH20 0xFFFFFFFFFFFFFFFFFFFFFFFFFFFFFFFFFFFFFFFF AND PUSH20 0xFFFFFFFFFFFFFFFFFFFFFFFFFFFFFFFFFFFFFFFF AND DUP2 MSTORE PUSH1 0x20 ADD SWAP1 DUP2 MSTORE PUSH1 0x20 ADD PUSH0 KECCAK256 PUSH0 DUP5 PUSH20 0xFFFFFFFFFFFFFFFFFFFFFFFFFFFFFFFFFFFFFFFF AND PUSH20 0xFFFFFFFFFFFFFFFFFFFFFFFFFFFFFFFFFFFFFFFF AND DUP2 MSTORE PUSH1 0x20 ADD SWAP1 DUP2 MSTORE PUSH1 0x20 ADD PUSH0 KECCAK256 SLOAD SWAP2 POP POP SWAP3 SWAP2 POP POP JUMP JUMPDEST PUSH0 PUSH32 0x52C63247E1F47DB19D5CE0460030C497F067CA4CEBF71BA98EEADABE20BACE00 SWAP1 POP SWAP1 JUMP JUMPDEST PUSH0 CALLER SWAP1 POP SWAP1 JUMP JUMPDEST PUSH2 0xC24 DUP4 DUP4 DUP4 PUSH1 0x1 PUSH2 0x1084 JUMP JUMPDEST POP POP POP JUMP JUMPDEST PUSH0 PUSH2 0xC34 DUP5 DUP5 PUSH2 0xB59 JUMP JUMPDEST SWAP1 POP PUSH32 0xFFFFFFFFFFFFFFFFFFFFFFFFFFFFFFFFFFFFFFFFFFFFFFFFFFFFFFFFFFFFFFFF DUP2 LT ISZERO PUSH2 0xCB6 JUMPI DUP2 DUP2 LT ISZERO PUSH2 0xCA7 JUMPI DUP3 DUP2 DUP4 PUSH1 0x40 MLOAD PUSH32 0xFB8F41B200000000000000000000000000000000000000000000000000000000 DUP2 MSTORE PUSH1 0x4 ADD PUSH2 0xC9E SWAP4 SWAP3 SWAP2 SWAP1 PUSH2 0x1DC8 JUMP JUMPDEST PUSH1 0x40 MLOAD DUP1 SWAP2 SUB SWAP1 REVERT JUMPDEST PUSH2 0xCB5 DUP5 DUP5 DUP5 DUP5 SUB PUSH0 PUSH2 0x1084 JUMP JUMPDEST JUMPDEST POP POP POP POP JUMP JUMPDEST PUSH0 PUSH20 0xFFFFFFFFFFFFFFFFFFFFFFFFFFFFFFFFFFFFFFFF AND DUP4 PUSH20 0xFFFFFFFFFFFFFFFFFFFFFFFFFFFFFFFFFFFFFFFF AND SUB PUSH2 0xD2C JUMPI PUSH0 PUSH1 0x40 MLOAD PUSH32 0x96C6FD1E00000000000000000000000000000000000000000000000000000000 DUP2 MSTORE PUSH1 0x4 ADD PUSH2 0xD23 SWAP2 SWAP1 PUSH2 0x1A31 JUMP JUMPDEST PUSH1 0x40 MLOAD DUP1 SWAP2 SUB SWAP1 REVERT JUMPDEST PUSH0 PUSH20 0xFFFFFFFFFFFFFFFFFFFFFFFFFFFFFFFFFFFFFFFF AND DUP3 PUSH20 0xFFFFFFFFFFFFFFFFFFFFFFFFFFFFFFFFFFFFFFFF AND SUB PUSH2 0xD9C JUMPI PUSH0 PUSH1 0x40 MLOAD PUSH32 0xEC442F0500000000000000000000000000000000000000000000000000000000 DUP2 MSTORE PUSH1 0x4 ADD PUSH2 0xD93 SWAP2 SWAP1 PUSH2 0x1A31 JUMP JUMPDEST PUSH1 0x40 MLOAD DUP1 SWAP2 SUB SWAP1 REVERT JUMPDEST PUSH2 0xDA7 DUP4 DUP4 DUP4 PUSH2 0x1261 JUMP JUMPDEST POP POP POP JUMP JUMPDEST PUSH0 PUSH20 0xFFFFFFFFFFFFFFFFFFFFFFFFFFFFFFFFFFFFFFFF AND DUP3 PUSH20 0xFFFFFFFFFFFFFFFFFFFFFFFFFFFFFFFFFFFFFFFF AND SUB PUSH2 0xE1C JUMPI PUSH0 PUSH1 0x40 MLOAD PUSH32 0xEC442F0500000000000000000000000000000000000000000000000000000000 DUP2 MSTORE PUSH1 0x4 ADD PUSH2 0xE13 SWAP2 SWAP1 PUSH2 0x1A31 JUMP JUMPDEST PUSH1 0x40 MLOAD DUP1 SWAP2 SUB SWAP1 REVERT JUMPDEST PUSH2 0xE27 PUSH0 DUP4 DUP4 PUSH2 0x1261 JUMP JUMPDEST POP POP JUMP JUMPDEST PUSH0 PUSH0 PUSH2 0xE35 PUSH2 0x1362 JUMP JUMPDEST SWAP1 POP DUP1 SWAP2 POP POP SWAP1 JUMP JUMPDEST PUSH0 PUSH20 0xFFFFFFFFFFFFFFFFFFFFFFFFFFFFFFFFFFFFFFFF AND DUP2 PUSH20 0xFFFFFFFFFFFFFFFFFFFFFFFFFFFFFFFFFFFFFFFF AND SUB PUSH2 0xEAC JUMPI PUSH1 0x40 MLOAD PUSH32 0x8C379A000000000000000000000000000000000000000000000000000000000 DUP2 MSTORE PUSH1 0x4 ADD PUSH2 0xEA3 SWAP1 PUSH2 0x1E47 JUMP JUMPDEST PUSH1 0x40 MLOAD DUP1 SWAP2 SUB SWAP1 REVERT JUMPDEST PUSH0 DUP2 PUSH20 0xFFFFFFFFFFFFFFFFFFFFFFFFFFFFFFFFFFFFFFFF AND EXTCODESIZE GT PUSH2 0xF05 JUMPI PUSH1 0x40 MLOAD PUSH32 0x8C379A000000000000000000000000000000000000000000000000000000000 DUP2 MSTORE PUSH1 0x4 ADD PUSH2 0xEFC SWAP1 PUSH2 0x1EAF JUMP JUMPDEST PUSH1 0x40 MLOAD DUP1 SWAP2 SUB SWAP1 REVERT JUMPDEST DUP1 PUSH20 0xFFFFFFFFFFFFFFFFFFFFFFFFFFFFFFFFFFFFFFFF AND PUSH4 0x8DA5CB5B PUSH1 0x40 MLOAD DUP2 PUSH4 0xFFFFFFFF AND PUSH1 0xE0 SHL DUP2 MSTORE PUSH1 0x4 ADD PUSH1 0x20 PUSH1 0x40 MLOAD DUP1 DUP4 SUB DUP2 DUP7 GAS STATICCALL SWAP3 POP POP POP DUP1 ISZERO PUSH2 0xF6D JUMPI POP PUSH1 0x40 MLOAD RETURNDATASIZE PUSH1 0x1F NOT PUSH1 0x1F DUP3 ADD AND DUP3 ADD DUP1 PUSH1 0x40 MSTORE POP DUP2 ADD SWAP1 PUSH2 0xF6A SWAP2 SWAP1 PUSH2 0x1C68 JUMP JUMPDEST PUSH1 0x1 JUMPDEST PUSH2 0xFAC JUMPI PUSH1 0x40 MLOAD PUSH32 0x8C379A000000000000000000000000000000000000000000000000000000000 DUP2 MSTORE PUSH1 0x4 ADD PUSH2 0xFA3 SWAP1 PUSH2 0x1F3D JUMP JUMPDEST PUSH1 0x40 MLOAD DUP1 SWAP2 SUB SWAP1 REVERT JUMPDEST DUP2 PUSH0 PUSH0 PUSH2 0x100 EXP DUP2 SLOAD DUP2 PUSH20 0xFFFFFFFFFFFFFFFFFFFFFFFFFFFFFFFFFFFFFFFF MUL NOT AND SWAP1 DUP4 PUSH20 0xFFFFFFFFFFFFFFFFFFFFFFFFFFFFFFFFFFFFFFFF AND MUL OR SWAP1 SSTORE POP POP POP JUMP JUMPDEST PUSH2 0xFF7 PUSH2 0x138B JUMP JUMPDEST PUSH2 0x1001 DUP3 DUP3 PUSH2 0x13CB JUMP JUMPDEST POP POP JUMP JUMPDEST PUSH0 PUSH20 0xFFFFFFFFFFFFFFFFFFFFFFFFFFFFFFFFFFFFFFFF AND DUP3 PUSH20 0xFFFFFFFFFFFFFFFFFFFFFFFFFFFFFFFFFFFFFFFF AND SUB PUSH2 0x1075 JUMPI PUSH0 PUSH1 0x40 MLOAD PUSH32 0x96C6FD1E00000000000000000000000000000000000000000000000000000000 DUP2 MSTORE PUSH1 0x4 ADD PUSH2 0x106C SWAP2 SWAP1 PUSH2 0x1A31 JUMP JUMPDEST PUSH1 0x40 MLOAD DUP1 SWAP2 SUB SWAP1 REVERT JUMPDEST PUSH2 0x1080 DUP3 PUSH0 DUP4 PUSH2 0x1261 JUMP JUMPDEST POP POP JUMP JUMPDEST PUSH0 PUSH2 0x108D PUSH2 0xBE9 JUMP JUMPDEST SWAP1 POP PUSH0 PUSH20 0xFFFFFFFFFFFFFFFFFFFFFFFFFFFFFFFFFFFFFFFF AND DUP6 PUSH20 0xFFFFFFFFFFFFFFFFFFFFFFFFFFFFFFFFFFFFFFFF AND SUB PUSH2 0x10FF JUMPI PUSH0 PUSH1 0x40 MLOAD PUSH32 0xE602DF0500000000000000000000000000000000000000000000000000000000 DUP2 MSTORE PUSH1 0x4 ADD PUSH2 0x10F6 SWAP2 SWAP1 PUSH2 0x1A31 JUMP JUMPDEST PUSH1 0x40 MLOAD DUP1 SWAP2 SUB SWAP1 REVERT JUMPDEST PUSH0 PUSH20 0xFFFFFFFFFFFFFFFFFFFFFFFFFFFFFFFFFFFFFFFF AND DUP5 PUSH20 0xFFFFFFFFFFFFFFFFFFFFFFFFFFFFFFFFFFFFFFFF AND SUB PUSH2 0x116F JUMPI PUSH0 PUSH1 0x40 MLOAD PUSH32 0x94280D6200000000000000000000000000000000000000000000000000000000 DUP2 MSTORE PUSH1 0x4 ADD PUSH2 0x1166 SWAP2 SWAP1 PUSH2 0x1A31 JUMP JUMPDEST PUSH1 0x40 MLOAD DUP1 SWAP2 SUB SWAP1 REVERT JUMPDEST DUP3 DUP2 PUSH1 0x1 ADD PUSH0 DUP8 PUSH20 0xFFFFFFFFFFFFFFFFFFFFFFFFFFFFFFFFFFFFFFFF AND PUSH20 0xFFFFFFFFFFFFFFFFFFFFFFFFFFFFFFFFFFFFFFFF AND DUP2 MSTORE PUSH1 0x20 ADD SWAP1 DUP2 MSTORE PUSH1 0x20 ADD PUSH0 KECCAK256 PUSH0 DUP7 PUSH20 0xFFFFFFFFFFFFFFFFFFFFFFFFFFFFFFFFFFFFFFFF AND PUSH20 0xFFFFFFFFFFFFFFFFFFFFFFFFFFFFFFFFFFFFFFFF AND DUP2 MSTORE PUSH1 0x20 ADD SWAP1 DUP2 MSTORE PUSH1 0x20 ADD PUSH0 KECCAK256 DUP2 SWAP1 SSTORE POP DUP2 ISZERO PUSH2 0x125A JUMPI DUP4 PUSH20 0xFFFFFFFFFFFFFFFFFFFFFFFFFFFFFFFFFFFFFFFF AND DUP6 PUSH20 0xFFFFFFFFFFFFFFFFFFFFFFFFFFFFFFFFFFFFFFFF AND PUSH32 0x8C5BE1E5EBEC7D5BD14F71427D1E84F3DD0314C0F7B2291E5B200AC8C7C3B925 DUP6 PUSH1 0x40 MLOAD PUSH2 0x1251 SWAP2 SWAP1 PUSH2 0x1846 JUMP JUMPDEST PUSH1 0x40 MLOAD DUP1 SWAP2 SUB SWAP1 LOG3 JUMPDEST POP POP POP POP POP JUMP JUMPDEST PUSH2 0x126C DUP4 DUP4 DUP4 PUSH2 0x1407 JUMP JUMPDEST PUSH0 PUSH2 0x1275 PUSH2 0x1636 JUMP JUMPDEST SWAP1 POP PUSH0 PUSH20 0xFFFFFFFFFFFFFFFFFFFFFFFFFFFFFFFFFFFFFFFF AND DUP2 PUSH20 0xFFFFFFFFFFFFFFFFFFFFFFFFFFFFFFFFFFFFFFFF AND SUB PUSH2 0x12E5 JUMPI PUSH1 0x40 MLOAD PUSH32 0x8C379A000000000000000000000000000000000000000000000000000000000 DUP2 MSTORE PUSH1 0x4 ADD PUSH2 0x12DC SWAP1 PUSH2 0x1FCB JUMP JUMPDEST PUSH1 0x40 MLOAD DUP1 SWAP2 SUB SWAP1 REVERT JUMPDEST DUP1 PUSH20 0xFFFFFFFFFFFFFFFFFFFFFFFFFFFFFFFFFFFFFFFF AND PUSH4 0x4B4BCF7E PUSH1 0x1 SLOAD DUP7 DUP7 DUP7 PUSH2 0x130F PUSH2 0x42F JUMP JUMPDEST PUSH1 0x40 MLOAD DUP7 PUSH4 0xFFFFFFFF AND PUSH1 0xE0 SHL DUP2 MSTORE PUSH1 0x4 ADD PUSH2 0x132F SWAP6 SWAP5 SWAP4 SWAP3 SWAP2 SWAP1 PUSH2 0x1FE9 JUMP JUMPDEST PUSH0 PUSH1 0x40 MLOAD DUP1 DUP4 SUB DUP2 PUSH0 DUP8 DUP1 EXTCODESIZE ISZERO DUP1 ISZERO PUSH2 0x1346 JUMPI PUSH0 PUSH0 REVERT JUMPDEST POP GAS CALL ISZERO DUP1 ISZERO PUSH2 0x1358 JUMPI RETURNDATASIZE PUSH0 PUSH0 RETURNDATACOPY RETURNDATASIZE PUSH0 REVERT JUMPDEST POP POP POP POP POP POP POP POP JUMP JUMPDEST PUSH0 PUSH32 0xF0C57E16840DF040F15088DC2F81FE391C3923BEC73E23A9662EFC9C229C6A00 PUSH0 SHL SWAP1 POP SWAP1 JUMP JUMPDEST PUSH2 0x1393 PUSH2 0x167A JUMP JUMPDEST PUSH2 0x13C9 JUMPI PUSH1 0x40 MLOAD PUSH32 0xD7E6BCF800000000000000000000000000000000000000000000000000000000 DUP2 MSTORE PUSH1 0x4 ADD PUSH1 0x40 MLOAD DUP1 SWAP2 SUB SWAP1 REVERT JUMPDEST JUMP JUMPDEST PUSH2 0x13D3 PUSH2 0x138B JUMP JUMPDEST PUSH0 PUSH2 0x13DC PUSH2 0xBE9 JUMP JUMPDEST SWAP1 POP DUP3 DUP2 PUSH1 0x3 ADD SWAP1 DUP2 PUSH2 0x13EF SWAP2 SWAP1 PUSH2 0x21D1 JUMP JUMPDEST POP DUP2 DUP2 PUSH1 0x4 ADD SWAP1 DUP2 PUSH2 0x1401 SWAP2 SWAP1 PUSH2 0x21D1 JUMP JUMPDEST POP POP POP POP JUMP JUMPDEST PUSH0 PUSH2 0x1410 PUSH2 0xBE9 JUMP JUMPDEST SWAP1 POP PUSH0 PUSH20 0xFFFFFFFFFFFFFFFFFFFFFFFFFFFFFFFFFFFFFFFF AND DUP5 PUSH20 0xFFFFFFFFFFFFFFFFFFFFFFFFFFFFFFFFFFFFFFFF AND SUB PUSH2 0x1464 JUMPI DUP2 DUP2 PUSH1 0x2 ADD PUSH0 DUP3 DUP3 SLOAD PUSH2 0x1458 SWAP2 SWAP1 PUSH2 0x22CD JUMP JUMPDEST SWAP3 POP POP DUP2 SWAP1 SSTORE POP PUSH2 0x1536 JUMP JUMPDEST PUSH0 DUP2 PUSH0 ADD PUSH0 DUP7 PUSH20 0xFFFFFFFFFFFFFFFFFFFFFFFFFFFFFFFFFFFFFFFF AND PUSH20 0xFFFFFFFFFFFFFFFFFFFFFFFFFFFFFFFFFFFFFFFF AND DUP2 MSTORE PUSH1 0x20 ADD SWAP1 DUP2 MSTORE PUSH1 0x20 ADD PUSH0 KECCAK256 SLOAD SWAP1 POP DUP3 DUP2 LT ISZERO PUSH2 0x14EF JUMPI DUP5 DUP2 DUP5 PUSH1 0x40 MLOAD PUSH32 0xE450D38C00000000000000000000000000000000000000000000000000000000 DUP2 MSTORE PUSH1 0x4 ADD PUSH2 0x14E6 SWAP4 SWAP3 SWAP2 SWAP1 PUSH2 0x1DC8 JUMP JUMPDEST PUSH1 0x40 MLOAD DUP1 SWAP2 SUB SWAP1 REVERT JUMPDEST DUP3 DUP2 SUB DUP3 PUSH0 ADD PUSH0 DUP8 PUSH20 0xFFFFFFFFFFFFFFFFFFFFFFFFFFFFFFFFFFFFFFFF AND PUSH20 0xFFFFFFFFFFFFFFFFFFFFFFFFFFFFFFFFFFFFFFFF AND DUP2 MSTORE PUSH1 0x20 ADD SWAP1 DUP2 MSTORE PUSH1 0x20 ADD PUSH0 KECCAK256 DUP2 SWAP1 SSTORE POP POP JUMPDEST PUSH0 PUSH20 0xFFFFFFFFFFFFFFFFFFFFFFFFFFFFFFFFFFFFFFFF AND DUP4 PUSH20 0xFFFFFFFFFFFFFFFFFFFFFFFFFFFFFFFFFFFFFFFF AND SUB PUSH2 0x157F JUMPI DUP2 DUP2 PUSH1 0x2 ADD PUSH0 DUP3 DUP3 SLOAD SUB SWAP3 POP POP DUP2 SWAP1 SSTORE POP PUSH2 0x15CB JUMP JUMPDEST DUP2 DUP2 PUSH0 ADD PUSH0 DUP6 PUSH20 0xFFFFFFFFFFFFFFFFFFFFFFFFFFFFFFFFFFFFFFFF AND PUSH20 0xFFFFFFFFFFFFFFFFFFFFFFFFFFFFFFFFFFFFFFFF AND DUP2 MSTORE PUSH1 0x20 ADD SWAP1 DUP2 MSTORE PUSH1 0x20 ADD PUSH0 KECCAK256 PUSH0 DUP3 DUP3 SLOAD ADD SWAP3 POP POP DUP2 SWAP1 SSTORE POP JUMPDEST DUP3 PUSH20 0xFFFFFFFFFFFFFFFFFFFFFFFFFFFFFFFFFFFFFFFF AND DUP5 PUSH20 0xFFFFFFFFFFFFFFFFFFFFFFFFFFFFFFFFFFFFFFFF AND PUSH32 0xDDF252AD1BE2C89B69C2B068FC378DAA952BA7F163C4A11628F55A4DF523B3EF DUP5 PUSH1 0x40 MLOAD PUSH2 0x1628 SWAP2 SWAP1 PUSH2 0x1846 JUMP JUMPDEST PUSH1 0x40 MLOAD DUP1 SWAP2 SUB SWAP1 LOG3 POP POP POP POP JUMP JUMPDEST PUSH0 PUSH2 0x1675 PUSH1 0x40 MLOAD DUP1 PUSH1 0x40 ADD PUSH1 0x40 MSTORE DUP1 PUSH1 0x10 DUP2 MSTORE PUSH1 0x20 ADD PUSH32 0x6574662D746F6B656E2D6576656E747300000000000000000000000000000000 DUP2 MSTORE POP PUSH2 0x474 JUMP JUMPDEST SWAP1 POP SWAP1 JUMP JUMPDEST PUSH0 PUSH2 0x1683 PUSH2 0xE2B JUMP JUMPDEST PUSH0 ADD PUSH1 0x8 SWAP1 SLOAD SWAP1 PUSH2 0x100 EXP SWAP1 DIV PUSH1 0xFF AND SWAP1 POP SWAP1 JUMP JUMPDEST PUSH0 DUP2 MLOAD SWAP1 POP SWAP2 SWAP1 POP JUMP JUMPDEST PUSH0 DUP3 DUP3 MSTORE PUSH1 0x20 DUP3 ADD SWAP1 POP SWAP3 SWAP2 POP POP JUMP JUMPDEST DUP3 DUP2 DUP4 MCOPY PUSH0 DUP4 DUP4 ADD MSTORE POP POP POP JUMP JUMPDEST PUSH0 PUSH1 0x1F NOT PUSH1 0x1F DUP4 ADD AND SWAP1 POP SWAP2 SWAP1 POP JUMP JUMPDEST PUSH0 PUSH2 0x16DA DUP3 PUSH2 0x1698 JUMP JUMPDEST PUSH2 0x16E4 DUP2 DUP6 PUSH2 0x16A2 JUMP JUMPDEST SWAP4 POP PUSH2 0x16F4 DUP2 DUP6 PUSH1 0x20 DUP7 ADD PUSH2 0x16B2 JUMP JUMPDEST PUSH2 0x16FD DUP2 PUSH2 0x16C0 JUMP JUMPDEST DUP5 ADD SWAP2 POP POP SWAP3 SWAP2 POP POP JUMP JUMPDEST PUSH0 PUSH1 0x20 DUP3 ADD SWAP1 POP DUP2 DUP2 SUB PUSH0 DUP4 ADD MSTORE PUSH2 0x1720 DUP2 DUP5 PUSH2 0x16D0 JUMP JUMPDEST SWAP1 POP SWAP3 SWAP2 POP POP JUMP JUMPDEST PUSH0 PUSH1 0x40 MLOAD SWAP1 POP SWAP1 JUMP JUMPDEST PUSH0 PUSH0 REVERT JUMPDEST PUSH0 PUSH0 REVERT JUMPDEST PUSH0 PUSH20 0xFFFFFFFFFFFFFFFFFFFFFFFFFFFFFFFFFFFFFFFF DUP3 AND SWAP1 POP SWAP2 SWAP1 POP JUMP JUMPDEST PUSH0 PUSH2 0x1762 DUP3 PUSH2 0x1739 JUMP JUMPDEST SWAP1 POP SWAP2 SWAP1 POP JUMP JUMPDEST PUSH2 0x1772 DUP2 PUSH2 0x1758 JUMP JUMPDEST DUP2 EQ PUSH2 0x177C JUMPI PUSH0 PUSH0 REVERT JUMPDEST POP JUMP JUMPDEST PUSH0 DUP2 CALLDATALOAD SWAP1 POP PUSH2 0x178D DUP2 PUSH2 0x1769 JUMP JUMPDEST SWAP3 SWAP2 POP POP JUMP JUMPDEST PUSH0 DUP2 SWAP1 POP SWAP2 SWAP1 POP JUMP JUMPDEST PUSH2 0x17A5 DUP2 PUSH2 0x1793 JUMP JUMPDEST DUP2 EQ PUSH2 0x17AF JUMPI PUSH0 PUSH0 REVERT JUMPDEST POP JUMP JUMPDEST PUSH0 DUP2 CALLDATALOAD SWAP1 POP PUSH2 0x17C0 DUP2 PUSH2 0x179C JUMP JUMPDEST SWAP3 SWAP2 POP POP JUMP JUMPDEST PUSH0 PUSH0 PUSH1 0x40 DUP4 DUP6 SUB SLT ISZERO PUSH2 0x17DC JUMPI PUSH2 0x17DB PUSH2 0x1731 JUMP JUMPDEST JUMPDEST PUSH0 PUSH2 0x17E9 DUP6 DUP3 DUP7 ADD PUSH2 0x177F JUMP JUMPDEST SWAP3 POP POP PUSH1 0x20 PUSH2 0x17FA DUP6 DUP3 DUP7 ADD PUSH2 0x17B2 JUMP JUMPDEST SWAP2 POP POP SWAP3 POP SWAP3 SWAP1 POP JUMP JUMPDEST PUSH0 DUP2 ISZERO ISZERO SWAP1 POP SWAP2 SWAP1 POP JUMP JUMPDEST PUSH2 0x1818 DUP2 PUSH2 0x1804 JUMP JUMPDEST DUP3 MSTORE POP POP JUMP JUMPDEST PUSH0 PUSH1 0x20 DUP3 ADD SWAP1 POP PUSH2 0x1831 PUSH0 DUP4 ADD DUP5 PUSH2 0x180F JUMP JUMPDEST SWAP3 SWAP2 POP POP JUMP JUMPDEST PUSH2 0x1840 DUP2 PUSH2 0x1793 JUMP JUMPDEST DUP3 MSTORE POP POP JUMP JUMPDEST PUSH0 PUSH1 0x20 DUP3 ADD SWAP1 POP PUSH2 0x1859 PUSH0 DUP4 ADD DUP5 PUSH2 0x1837 JUMP JUMPDEST SWAP3 SWAP2 POP POP JUMP JUMPDEST PUSH0 PUSH0 PUSH0 PUSH1 0x60 DUP5 DUP7 SUB SLT ISZERO PUSH2 0x1876 JUMPI PUSH2 0x1875 PUSH2 0x1731 JUMP JUMPDEST JUMPDEST PUSH0 PUSH2 0x1883 DUP7 DUP3 DUP8 ADD PUSH2 0x177F JUMP JUMPDEST SWAP4 POP POP PUSH1 0x20 PUSH2 0x1894 DUP7 DUP3 DUP8 ADD PUSH2 0x177F JUMP JUMPDEST SWAP3 POP POP PUSH1 0x40 PUSH2 0x18A5 DUP7 DUP3 DUP8 ADD PUSH2 0x17B2 JUMP JUMPDEST SWAP2 POP POP SWAP3 POP SWAP3 POP SWAP3 JUMP JUMPDEST PUSH0 PUSH0 REVERT JUMPDEST PUSH0 PUSH0 REVERT JUMPDEST PUSH32 0x4E487B7100000000000000000000000000000000000000000000000000000000 PUSH0 MSTORE PUSH1 0x41 PUSH1 0x4 MSTORE PUSH1 0x24 PUSH0 REVERT JUMPDEST PUSH2 0x18ED DUP3 PUSH2 0x16C0 JUMP JUMPDEST DUP2 ADD DUP2 DUP2 LT PUSH8 0xFFFFFFFFFFFFFFFF DUP3 GT OR ISZERO PUSH2 0x190C JUMPI PUSH2 0x190B PUSH2 0x18B7 JUMP JUMPDEST JUMPDEST DUP1 PUSH1 0x40 MSTORE POP POP POP JUMP JUMPDEST PUSH0 PUSH2 0x191E PUSH2 0x1728 JUMP JUMPDEST SWAP1 POP PUSH2 0x192A DUP3 DUP3 PUSH2 0x18E4 JUMP JUMPDEST SWAP2 SWAP1 POP JUMP JUMPDEST PUSH0 PUSH8 0xFFFFFFFFFFFFFFFF DUP3 GT ISZERO PUSH2 0x1949 JUMPI PUSH2 0x1948 PUSH2 0x18B7 JUMP JUMPDEST JUMPDEST PUSH2 0x1952 DUP3 PUSH2 0x16C0 JUMP JUMPDEST SWAP1 POP PUSH1 0x20 DUP2 ADD SWAP1 POP SWAP2 SWAP1 POP JUMP JUMPDEST DUP3 DUP2 DUP4 CALLDATACOPY PUSH0 DUP4 DUP4 ADD MSTORE POP POP POP JUMP JUMPDEST PUSH0 PUSH2 0x197F PUSH2 0x197A DUP5 PUSH2 0x192F JUMP JUMPDEST PUSH2 0x1915 JUMP JUMPDEST SWAP1 POP DUP3 DUP2 MSTORE PUSH1 0x20 DUP2 ADD DUP5 DUP5 DUP5 ADD GT ISZERO PUSH2 0x199B JUMPI PUSH2 0x199A PUSH2 0x18B3 JUMP JUMPDEST JUMPDEST PUSH2 0x19A6 DUP5 DUP3 DUP6 PUSH2 0x195F JUMP JUMPDEST POP SWAP4 SWAP3 POP POP POP JUMP JUMPDEST PUSH0 DUP3 PUSH1 0x1F DUP4 ADD SLT PUSH2 0x19C2 JUMPI PUSH2 0x19C1 PUSH2 0x18AF JUMP JUMPDEST JUMPDEST DUP2 CALLDATALOAD PUSH2 0x19D2 DUP5 DUP3 PUSH1 0x20 DUP7 ADD PUSH2 0x196D JUMP JUMPDEST SWAP2 POP POP SWAP3 SWAP2 POP POP JUMP JUMPDEST PUSH0 PUSH1 0x20 DUP3 DUP5 SUB SLT ISZERO PUSH2 0x19F0 JUMPI PUSH2 0x19EF PUSH2 0x1731 JUMP JUMPDEST JUMPDEST PUSH0 DUP3 ADD CALLDATALOAD PUSH8 0xFFFFFFFFFFFFFFFF DUP2 GT ISZERO PUSH2 0x1A0D JUMPI PUSH2 0x1A0C PUSH2 0x1735 JUMP JUMPDEST JUMPDEST PUSH2 0x1A19 DUP5 DUP3 DUP6 ADD PUSH2 0x19AE JUMP JUMPDEST SWAP2 POP POP SWAP3 SWAP2 POP POP JUMP JUMPDEST PUSH2 0x1A2B DUP2 PUSH2 0x1758 JUMP JUMPDEST DUP3 MSTORE POP POP JUMP JUMPDEST PUSH0 PUSH1 0x20 DUP3 ADD SWAP1 POP PUSH2 0x1A44 PUSH0 DUP4 ADD DUP5 PUSH2 0x1A22 JUMP JUMPDEST SWAP3 SWAP2 POP POP JUMP JUMPDEST PUSH0 PUSH1 0xFF DUP3 AND SWAP1 POP SWAP2 SWAP1 POP JUMP JUMPDEST PUSH2 0x1A5F DUP2 PUSH2 0x1A4A JUMP JUMPDEST DUP3 MSTORE POP POP JUMP JUMPDEST PUSH0 PUSH1 0x20 DUP3 ADD SWAP1 POP PUSH2 0x1A78 PUSH0 DUP4 ADD DUP5 PUSH2 0x1A56 JUMP JUMPDEST SWAP3 SWAP2 POP POP JUMP JUMPDEST PUSH0 DUP2 SWAP1 POP SWAP2 SWAP1 POP JUMP JUMPDEST PUSH0 PUSH2 0x1AA1 PUSH2 0x1A9C PUSH2 0x1A97 DUP5 PUSH2 0x1739 JUMP JUMPDEST PUSH2 0x1A7E JUMP JUMPDEST PUSH2 0x1739 JUMP JUMPDEST SWAP1 POP SWAP2 SWAP1 POP JUMP JUMPDEST PUSH0 PUSH2 0x1AB2 DUP3 PUSH2 0x1A87 JUMP JUMPDEST SWAP1 POP SWAP2 SWAP1 POP JUMP JUMPDEST PUSH0 PUSH2 0x1AC3 DUP3 PUSH2 0x1AA8 JUMP JUMPDEST SWAP1 POP SWAP2 SWAP1 POP JUMP JUMPDEST PUSH2 0x1AD3 DUP2 PUSH2 0x1AB9 JUMP JUMPDEST DUP3 MSTORE POP POP JUMP JUMPDEST PUSH0 PUSH1 0x20 DUP3 ADD SWAP1 POP PUSH2 0x1AEC PUSH0 DUP4 ADD DUP5 PUSH2 0x1ACA JUMP JUMPDEST SWAP3 SWAP2 POP POP JUMP JUMPDEST PUSH0 PUSH0 PUSH0 PUSH0 PUSH1 0x80 DUP6 DUP8 SUB SLT ISZERO PUSH2 0x1B0A JUMPI PUSH2 0x1B09 PUSH2 0x1731 JUMP JUMPDEST JUMPDEST PUSH0 PUSH2 0x1B17 DUP8 DUP3 DUP9 ADD PUSH2 0x17B2 JUMP JUMPDEST SWAP5 POP POP PUSH1 0x20 DUP6 ADD CALLDATALOAD PUSH8 0xFFFFFFFFFFFFFFFF DUP2 GT ISZERO PUSH2 0x1B38 JUMPI PUSH2 0x1B37 PUSH2 0x1735 JUMP JUMPDEST JUMPDEST PUSH2 0x1B44 DUP8 DUP3 DUP9 ADD PUSH2 0x19AE JUMP JUMPDEST SWAP4 POP POP PUSH1 0x40 DUP6 ADD CALLDATALOAD PUSH8 0xFFFFFFFFFFFFFFFF DUP2 GT ISZERO PUSH2 0x1B65 JUMPI PUSH2 0x1B64 PUSH2 0x1735 JUMP JUMPDEST JUMPDEST PUSH2 0x1B71 DUP8 DUP3 DUP9 ADD PUSH2 0x19AE JUMP JUMPDEST SWAP3 POP POP PUSH1 0x60 PUSH2 0x1B82 DUP8 DUP3 DUP9 ADD PUSH2 0x177F JUMP JUMPDEST SWAP2 POP POP SWAP3 SWAP6 SWAP2 SWAP5 POP SWAP3 POP JUMP JUMPDEST PUSH0 PUSH1 0x20 DUP3 DUP5 SUB SLT ISZERO PUSH2 0x1BA3 JUMPI PUSH2 0x1BA2 PUSH2 0x1731 JUMP JUMPDEST JUMPDEST PUSH0 PUSH2 0x1BB0 DUP5 DUP3 DUP6 ADD PUSH2 0x177F JUMP JUMPDEST SWAP2 POP POP SWAP3 SWAP2 POP POP JUMP JUMPDEST PUSH0 PUSH0 PUSH1 0x40 DUP4 DUP6 SUB SLT ISZERO PUSH2 0x1BCF JUMPI PUSH2 0x1BCE PUSH2 0x1731 JUMP JUMPDEST JUMPDEST PUSH0 PUSH2 0x1BDC DUP6 DUP3 DUP7 ADD PUSH2 0x177F JUMP JUMPDEST SWAP3 POP POP PUSH1 0x20 PUSH2 0x1BED DUP6 DUP3 DUP7 ADD PUSH2 0x177F JUMP JUMPDEST SWAP2 POP POP SWAP3 POP SWAP3 SWAP1 POP JUMP JUMPDEST PUSH32 0x4E487B7100000000000000000000000000000000000000000000000000000000 PUSH0 MSTORE PUSH1 0x22 PUSH1 0x4 MSTORE PUSH1 0x24 PUSH0 REVERT JUMPDEST PUSH0 PUSH1 0x2 DUP3 DIV SWAP1 POP PUSH1 0x1 DUP3 AND DUP1 PUSH2 0x1C3B JUMPI PUSH1 0x7F DUP3 AND SWAP2 POP JUMPDEST PUSH1 0x20 DUP3 LT DUP2 SUB PUSH2 0x1C4E JUMPI PUSH2 0x1C4D PUSH2 0x1BF7 JUMP JUMPDEST JUMPDEST POP SWAP2 SWAP1 POP JUMP JUMPDEST PUSH0 DUP2 MLOAD SWAP1 POP PUSH2 0x1C62 DUP2 PUSH2 0x1769 JUMP JUMPDEST SWAP3 SWAP2 POP POP JUMP JUMPDEST PUSH0 PUSH1 0x20 DUP3 DUP5 SUB SLT ISZERO PUSH2 0x1C7D JUMPI PUSH2 0x1C7C PUSH2 0x1731 JUMP JUMPDEST JUMPDEST PUSH0 PUSH2 0x1C8A DUP5 DUP3 DUP6 ADD PUSH2 0x1C54 JUMP JUMPDEST SWAP2 POP POP SWAP3 SWAP2 POP POP JUMP JUMPDEST PUSH32 0x6D73672E73656E646572206973206E6F742065746620726F7574657200000000 PUSH0 DUP3 ADD MSTORE POP JUMP JUMPDEST PUSH0 PUSH2 0x1CC7 PUSH1 0x1C DUP4 PUSH2 0x16A2 JUMP JUMPDEST SWAP2 POP PUSH2 0x1CD2 DUP3 PUSH2 0x1C93 JUMP JUMPDEST PUSH1 0x20 DUP3 ADD SWAP1 POP SWAP2 SWAP1 POP JUMP JUMPDEST PUSH0 PUSH1 0x20 DUP3 ADD SWAP1 POP DUP2 DUP2 SUB PUSH0 DUP4 ADD MSTORE PUSH2 0x1CF4 DUP2 PUSH2 0x1CBB JUMP JUMPDEST SWAP1 POP SWAP2 SWAP1 POP JUMP JUMPDEST PUSH0 DUP2 SWAP1 POP SWAP2 SWAP1 POP JUMP JUMPDEST PUSH0 PUSH8 0xFFFFFFFFFFFFFFFF DUP3 AND SWAP1 POP SWAP2 SWAP1 POP JUMP JUMPDEST PUSH0 PUSH2 0x1D31 PUSH2 0x1D2C PUSH2 0x1D27 DUP5 PUSH2 0x1CFB JUMP JUMPDEST PUSH2 0x1A7E JUMP JUMPDEST PUSH2 0x1D04 JUMP JUMPDEST SWAP1 POP SWAP2 SWAP1 POP JUMP JUMPDEST PUSH2 0x1D41 DUP2 PUSH2 0x1D17 JUMP JUMPDEST DUP3 MSTORE POP POP JUMP JUMPDEST PUSH0 PUSH1 0x20 DUP3 ADD SWAP1 POP PUSH2 0x1D5A PUSH0 DUP4 ADD DUP5 PUSH2 0x1D38 JUMP JUMPDEST SWAP3 SWAP2 POP POP JUMP JUMPDEST PUSH32 0x43616C6C6572206973206E6F7420746865206F776E6572000000000000000000 PUSH0 DUP3 ADD MSTORE POP JUMP JUMPDEST PUSH0 PUSH2 0x1D94 PUSH1 0x17 DUP4 PUSH2 0x16A2 JUMP JUMPDEST SWAP2 POP PUSH2 0x1D9F DUP3 PUSH2 0x1D60 JUMP JUMPDEST PUSH1 0x20 DUP3 ADD SWAP1 POP SWAP2 SWAP1 POP JUMP JUMPDEST PUSH0 PUSH1 0x20 DUP3 ADD SWAP1 POP DUP2 DUP2 SUB PUSH0 DUP4 ADD MSTORE PUSH2 0x1DC1 DUP2 PUSH2 0x1D88 JUMP JUMPDEST SWAP1 POP SWAP2 SWAP1 POP JUMP JUMPDEST PUSH0 PUSH1 0x60 DUP3 ADD SWAP1 POP PUSH2 0x1DDB PUSH0 DUP4 ADD DUP7 PUSH2 0x1A22 JUMP JUMPDEST PUSH2 0x1DE8 PUSH1 0x20 DUP4 ADD DUP6 PUSH2 0x1837 JUMP JUMPDEST PUSH2 0x1DF5 PUSH1 0x40 DUP4 ADD DUP5 PUSH2 0x1837 JUMP JUMPDEST SWAP5 SWAP4 POP POP POP POP JUMP JUMPDEST PUSH32 0x4469726563746F72792063616E6E6F74206265207A65726F2061646472657373 PUSH0 DUP3 ADD MSTORE POP JUMP JUMPDEST PUSH0 PUSH2 0x1E31 PUSH1 0x20 DUP4 PUSH2 0x16A2 JUMP JUMPDEST SWAP2 POP PUSH2 0x1E3C DUP3 PUSH2 0x1DFD JUMP JUMPDEST PUSH1 0x20 DUP3 ADD SWAP1 POP SWAP2 SWAP1 POP JUMP JUMPDEST PUSH0 PUSH1 0x20 DUP3 ADD SWAP1 POP DUP2 DUP2 SUB PUSH0 DUP4 ADD MSTORE PUSH2 0x1E5E DUP2 PUSH2 0x1E25 JUMP JUMPDEST SWAP1 POP SWAP2 SWAP1 POP JUMP JUMPDEST PUSH32 0x4469726563746F7279206D757374206265206120636F6E747261637400000000 PUSH0 DUP3 ADD MSTORE POP JUMP JUMPDEST PUSH0 PUSH2 0x1E99 PUSH1 0x1C DUP4 PUSH2 0x16A2 JUMP JUMPDEST SWAP2 POP PUSH2 0x1EA4 DUP3 PUSH2 0x1E65 JUMP JUMPDEST PUSH1 0x20 DUP3 ADD SWAP1 POP SWAP2 SWAP1 POP JUMP JUMPDEST PUSH0 PUSH1 0x20 DUP3 ADD SWAP1 POP DUP2 DUP2 SUB PUSH0 DUP4 ADD MSTORE PUSH2 0x1EC6 DUP2 PUSH2 0x1E8D JUMP JUMPDEST SWAP1 POP SWAP2 SWAP1 POP JUMP JUMPDEST PUSH32 0x4469726563746F7279206164647265737320646F6573206E6F7420696D706C65 PUSH0 DUP3 ADD MSTORE PUSH32 0x6D656E74206F776E657228290000000000000000000000000000000000000000 PUSH1 0x20 DUP3 ADD MSTORE POP JUMP JUMPDEST PUSH0 PUSH2 0x1F27 PUSH1 0x2C DUP4 PUSH2 0x16A2 JUMP JUMPDEST SWAP2 POP PUSH2 0x1F32 DUP3 PUSH2 0x1ECD JUMP JUMPDEST PUSH1 0x40 DUP3 ADD SWAP1 POP SWAP2 SWAP1 POP JUMP JUMPDEST PUSH0 PUSH1 0x20 DUP3 ADD SWAP1 POP DUP2 DUP2 SUB PUSH0 DUP4 ADD MSTORE PUSH2 0x1F54 DUP2 PUSH2 0x1F1B JUMP JUMPDEST SWAP1 POP SWAP2 SWAP1 POP JUMP JUMPDEST PUSH32 0x457466546F6B656E3A206576656E747320636F6E7472616374206E6F74207365 PUSH0 DUP3 ADD MSTORE PUSH32 0x7400000000000000000000000000000000000000000000000000000000000000 PUSH1 0x20 DUP3 ADD MSTORE POP JUMP JUMPDEST PUSH0 PUSH2 0x1FB5 PUSH1 0x21 DUP4 PUSH2 0x16A2 JUMP JUMPDEST SWAP2 POP PUSH2 0x1FC0 DUP3 PUSH2 0x1F5B JUMP JUMPDEST PUSH1 0x40 DUP3 ADD SWAP1 POP SWAP2 SWAP1 POP JUMP JUMPDEST PUSH0 PUSH1 0x20 DUP3 ADD SWAP1 POP DUP2 DUP2 SUB PUSH0 DUP4 ADD MSTORE PUSH2 0x1FE2 DUP2 PUSH2 0x1FA9 JUMP JUMPDEST SWAP1 POP SWAP2 SWAP1 POP JUMP JUMPDEST PUSH0 PUSH1 0xA0 DUP3 ADD SWAP1 POP PUSH2 0x1FFC PUSH0 DUP4 ADD DUP9 PUSH2 0x1837 JUMP JUMPDEST PUSH2 0x2009 PUSH1 0x20 DUP4 ADD DUP8 PUSH2 0x1A22 JUMP JUMPDEST PUSH2 0x2016 PUSH1 0x40 DUP4 ADD DUP7 PUSH2 0x1A22 JUMP JUMPDEST PUSH2 0x2023 PUSH1 0x60 DUP4 ADD DUP6 PUSH2 0x1837 JUMP JUMPDEST PUSH2 0x2030 PUSH1 0x80 DUP4 ADD DUP5 PUSH2 0x1837 JUMP JUMPDEST SWAP7 SWAP6 POP POP POP POP POP POP JUMP JUMPDEST PUSH0 DUP2 SWAP1 POP DUP2 PUSH0 MSTORE PUSH1 0x20 PUSH0 KECCAK256 SWAP1 POP SWAP2 SWAP1 POP JUMP JUMPDEST PUSH0 PUSH1 0x20 PUSH1 0x1F DUP4 ADD DIV SWAP1 POP SWAP2 SWAP1 POP JUMP JUMPDEST PUSH0 DUP3 DUP3 SHL SWAP1 POP SWAP3 SWAP2 POP POP JUMP JUMPDEST PUSH0 PUSH1 0x8 DUP4 MUL PUSH2 0x2096 PUSH32 0xFFFFFFFFFFFFFFFFFFFFFFFFFFFFFFFFFFFFFFFFFFFFFFFFFFFFFFFFFFFFFFFF DUP3 PUSH2 0x205B JUMP JUMPDEST PUSH2 0x20A0 DUP7 DUP4 PUSH2 0x205B JUMP JUMPDEST SWAP6 POP DUP1 NOT DUP5 AND SWAP4 POP DUP1 DUP7 AND DUP5 OR SWAP3 POP POP POP SWAP4 SWAP3 POP POP POP JUMP JUMPDEST PUSH0 PUSH2 0x20D2 PUSH2 0x20CD PUSH2 0x20C8 DUP5 PUSH2 0x1793 JUMP JUMPDEST PUSH2 0x1A7E JUMP JUMPDEST PUSH2 0x1793 JUMP JUMPDEST SWAP1 POP SWAP2 SWAP1 POP JUMP JUMPDEST PUSH0 DUP2 SWAP1 POP SWAP2 SWAP1 POP JUMP JUMPDEST PUSH2 0x20EB DUP4 PUSH2 0x20B8 JUMP JUMPDEST PUSH2 0x20FF PUSH2 0x20F7 DUP3 PUSH2 0x20D9 JUMP JUMPDEST DUP5 DUP5 SLOAD PUSH2 0x2067 JUMP JUMPDEST DUP3 SSTORE POP POP POP POP JUMP JUMPDEST PUSH0 PUSH0 SWAP1 POP SWAP1 JUMP JUMPDEST PUSH2 0x2116 PUSH2 0x2107 JUMP JUMPDEST PUSH2 0x2121 DUP2 DUP5 DUP5 PUSH2 0x20E2 JUMP JUMPDEST POP POP POP JUMP JUMPDEST JUMPDEST DUP2 DUP2 LT ISZERO PUSH2 0x2144 JUMPI PUSH2 0x2139 PUSH0 DUP3 PUSH2 0x210E JUMP JUMPDEST PUSH1 0x1 DUP2 ADD SWAP1 POP PUSH2 0x2127 JUMP JUMPDEST POP POP JUMP JUMPDEST PUSH1 0x1F DUP3 GT ISZERO PUSH2 0x2189 JUMPI PUSH2 0x215A DUP2 PUSH2 0x203A JUMP JUMPDEST PUSH2 0x2163 DUP5 PUSH2 0x204C JUMP JUMPDEST DUP2 ADD PUSH1 0x20 DUP6 LT ISZERO PUSH2 0x2172 JUMPI DUP2 SWAP1 POP JUMPDEST PUSH2 0x2186 PUSH2 0x217E DUP6 PUSH2 0x204C JUMP JUMPDEST DUP4 ADD DUP3 PUSH2 0x2126 JUMP JUMPDEST POP POP JUMPDEST POP POP POP JUMP JUMPDEST PUSH0 DUP3 DUP3 SHR SWAP1 POP SWAP3 SWAP2 POP POP JUMP JUMPDEST PUSH0 PUSH2 0x21A9 PUSH0 NOT DUP5 PUSH1 0x8 MUL PUSH2 0x218E JUMP JUMPDEST NOT DUP1 DUP4 AND SWAP2 POP POP SWAP3 SWAP2 POP POP JUMP JUMPDEST PUSH0 PUSH2 0x21C1 DUP4 DUP4 PUSH2 0x219A JUMP JUMPDEST SWAP2 POP DUP3 PUSH1 0x2 MUL DUP3 OR SWAP1 POP SWAP3 SWAP2 POP POP JUMP JUMPDEST PUSH2 0x21DA DUP3 PUSH2 0x1698 JUMP JUMPDEST PUSH8 0xFFFFFFFFFFFFFFFF DUP2 GT ISZERO PUSH2 0x21F3 JUMPI PUSH2 0x21F2 PUSH2 0x18B7 JUMP JUMPDEST JUMPDEST PUSH2 0x21FD DUP3 SLOAD PUSH2 0x1C24 JUMP JUMPDEST PUSH2 0x2208 DUP3 DUP3 DUP6 PUSH2 0x2148 JUMP JUMPDEST PUSH0 PUSH1 0x20 SWAP1 POP PUSH1 0x1F DUP4 GT PUSH1 0x1 DUP2 EQ PUSH2 0x2239 JUMPI PUSH0 DUP5 ISZERO PUSH2 0x2227 JUMPI DUP3 DUP8 ADD MLOAD SWAP1 POP JUMPDEST PUSH2 0x2231 DUP6 DUP3 PUSH2 0x21B6 JUMP JUMPDEST DUP7 SSTORE POP PUSH2 0x2298 JUMP JUMPDEST PUSH1 0x1F NOT DUP5 AND PUSH2 0x2247 DUP7 PUSH2 0x203A JUMP JUMPDEST PUSH0 JUMPDEST DUP3 DUP2 LT ISZERO PUSH2 0x226E JUMPI DUP5 DUP10 ADD MLOAD DUP3 SSTORE PUSH1 0x1 DUP3 ADD SWAP2 POP PUSH1 0x20 DUP6 ADD SWAP5 POP PUSH1 0x20 DUP2 ADD SWAP1 POP PUSH2 0x2249 JUMP JUMPDEST DUP7 DUP4 LT ISZERO PUSH2 0x228B JUMPI DUP5 DUP10 ADD MLOAD PUSH2 0x2287 PUSH1 0x1F DUP10 AND DUP3 PUSH2 0x219A JUMP JUMPDEST DUP4 SSTORE POP JUMPDEST PUSH1 0x1 PUSH1 0x2 DUP9 MUL ADD DUP9 SSTORE POP POP POP JUMPDEST POP POP POP POP POP POP JUMP JUMPDEST PUSH32 0x4E487B7100000000000000000000000000000000000000000000000000000000 PUSH0 MSTORE PUSH1 0x11 PUSH1 0x4 MSTORE PUSH1 0x24 PUSH0 REVERT JUMPDEST PUSH0 PUSH2 0x22D7 DUP3 PUSH2 0x1793 JUMP JUMPDEST SWAP2 POP PUSH2 0x22E2 DUP4 PUSH2 0x1793 JUMP JUMPDEST SWAP3 POP DUP3 DUP3 ADD SWAP1 POP DUP1 DUP3 GT ISZERO PUSH2 0x22FA JUMPI PUSH2 0x22F9 PUSH2 0x22A0 JUMP JUMPDEST JUMPDEST SWAP3 SWAP2 POP POP JUMP INVALID LOG2 PUSH5 0x6970667358 0x22 SLT KECCAK256 DELEGATECALL GAS 0xA5 PUSH0 0x4B 0xEF DUP4 0xEF EOFCREATE 0x45 PUSH16 0x7B341021141BA963C9C7422553C1BBD5 STOP PUSH24 0xB316F864736F6C634300081E003300000000000000000000 "
		},
		"gasEstimates": {
			"creation": {
				"codeDepositCost": "1802800",
				"executionCost": "infinite",
				"totalCost": "infinite"
			},
			"external": {
				"Directory()": "infinite",
				"allowance(address,address)": "infinite",
				"approve(address,uint256)": "infinite",
				"balanceOf(address)": "2925",
				"burn(address,uint256)": "infinite",
				"changeDirectoryAddress(address)": "infinite",
				"decimals()": "383",
				"etfId()": "2513",
				"fetchFromDirectory(string)": "infinite",
				"initialize(uint256,string,string,address)": "infinite",
				"mint(address,uint256)": "infinite",
				"name()": "infinite",
				"owner()": "infinite",
				"symbol()": "infinite",
				"totalSupply()": "2552",
				"transfer(address,uint256)": "infinite",
				"transferFrom(address,address,uint256)": "infinite"
			},
			"internal": {
				"_update(address,address,uint256)": "infinite"
			}
		},
		"methodIdentifiers": {
			"Directory()": "658a847a",
			"allowance(address,address)": "dd62ed3e",
			"approve(address,uint256)": "095ea7b3",
			"balanceOf(address)": "70a08231",
			"burn(address,uint256)": "9dc29fac",
			"changeDirectoryAddress(address)": "ba4c7be1",
			"decimals()": "313ce567",
			"etfId()": "cfa36f3d",
			"fetchFromDirectory(string)": "27262618",
			"initialize(uint256,string,string,address)": "6ebd362c",
			"mint(address,uint256)": "40c10f19",
			"name()": "06fdde03",
			"owner()": "8da5cb5b",
			"symbol()": "95d89b41",
			"totalSupply()": "18160ddd",
			"transfer(address,uint256)": "a9059cbb",
			"transferFrom(address,address,uint256)": "23b872dd"
		}
	},
	"abi": [
		{
			"inputs": [
				{
					"internalType": "address",
					"name": "_directory",
					"type": "address"
				}
			],
			"stateMutability": "nonpayable",
			"type": "constructor"
		},
		{
			"inputs": [],
			"name": "AlreadyInitialized",
			"type": "error"
		},
		{
			"inputs": [
				{
					"internalType": "address",
					"name": "spender",
					"type": "address"
				},
				{
					"internalType": "uint256",
					"name": "allowance",
					"type": "uint256"
				},
				{
					"internalType": "uint256",
					"name": "needed",
					"type": "uint256"
				}
			],
			"name": "ERC20InsufficientAllowance",
			"type": "error"
		},
		{
			"inputs": [
				{
					"internalType": "address",
					"name": "sender",
					"type": "address"
				},
				{
					"internalType": "uint256",
					"name": "balance",
					"type": "uint256"
				},
				{
					"internalType": "uint256",
					"name": "needed",
					"type": "uint256"
				}
			],
			"name": "ERC20InsufficientBalance",
			"type": "error"
		},
		{
			"inputs": [
				{
					"internalType": "address",
					"name": "approver",
					"type": "address"
				}
			],
			"name": "ERC20InvalidApprover",
			"type": "error"
		},
		{
			"inputs": [
				{
					"internalType": "address",
					"name": "receiver",
					"type": "address"
				}
			],
			"name": "ERC20InvalidReceiver",
			"type": "error"
		},
		{
			"inputs": [
				{
					"internalType": "address",
					"name": "sender",
					"type": "address"
				}
			],
			"name": "ERC20InvalidSender",
			"type": "error"
		},
		{
			"inputs": [
				{
					"internalType": "address",
					"name": "spender",
					"type": "address"
				}
			],
			"name": "ERC20InvalidSpender",
			"type": "error"
		},
		{
			"inputs": [],
			"name": "InvalidInitialization",
			"type": "error"
		},
		{
			"inputs": [],
			"name": "NotInitializing",
			"type": "error"
		},
		{
			"anonymous": false,
			"inputs": [
				{
					"indexed": true,
					"internalType": "address",
					"name": "owner",
					"type": "address"
				},
				{
					"indexed": true,
					"internalType": "address",
					"name": "spender",
					"type": "address"
				},
				{
					"indexed": false,
					"internalType": "uint256",
					"name": "value",
					"type": "uint256"
				}
			],
			"name": "Approval",
			"type": "event"
		},
		{
			"anonymous": false,
			"inputs": [
				{
					"indexed": false,
					"internalType": "uint64",
					"name": "version",
					"type": "uint64"
				}
			],
			"name": "Initialized",
			"type": "event"
		},
		{
			"anonymous": false,
			"inputs": [
				{
					"indexed": true,
					"internalType": "address",
					"name": "from",
					"type": "address"
				},
				{
					"indexed": true,
					"internalType": "address",
					"name": "to",
					"type": "address"
				},
				{
					"indexed": false,
					"internalType": "uint256",
					"name": "value",
					"type": "uint256"
				}
			],
			"name": "Transfer",
			"type": "event"
		},
		{
			"inputs": [],
			"name": "Directory",
			"outputs": [
				{
					"internalType": "contract IDirectory",
					"name": "",
					"type": "address"
				}
			],
			"stateMutability": "view",
			"type": "function"
		},
		{
			"inputs": [
				{
					"internalType": "address",
					"name": "owner",
					"type": "address"
				},
				{
					"internalType": "address",
					"name": "spender",
					"type": "address"
				}
			],
			"name": "allowance",
			"outputs": [
				{
					"internalType": "uint256",
					"name": "",
					"type": "uint256"
				}
			],
			"stateMutability": "view",
			"type": "function"
		},
		{
			"inputs": [
				{
					"internalType": "address",
					"name": "spender",
					"type": "address"
				},
				{
					"internalType": "uint256",
					"name": "value",
					"type": "uint256"
				}
			],
			"name": "approve",
			"outputs": [
				{
					"internalType": "bool",
					"name": "",
					"type": "bool"
				}
			],
			"stateMutability": "nonpayable",
			"type": "function"
		},
		{
			"inputs": [
				{
					"internalType": "address",
					"name": "account",
					"type": "address"
				}
			],
			"name": "balanceOf",
			"outputs": [
				{
					"internalType": "uint256",
					"name": "",
					"type": "uint256"
				}
			],
			"stateMutability": "view",
			"type": "function"
		},
		{
			"inputs": [
				{
					"internalType": "address",
					"name": "from",
					"type": "address"
				},
				{
					"internalType": "uint256",
					"name": "amount",
					"type": "uint256"
				}
			],
			"name": "burn",
			"outputs": [],
			"stateMutability": "nonpayable",
			"type": "function"
		},
		{
			"inputs": [
				{
					"internalType": "address",
					"name": "_directory",
					"type": "address"
				}
			],
			"name": "changeDirectoryAddress",
			"outputs": [],
			"stateMutability": "nonpayable",
			"type": "function"
		},
		{
			"inputs": [],
			"name": "decimals",
			"outputs": [
				{
					"internalType": "uint8",
					"name": "",
					"type": "uint8"
				}
			],
			"stateMutability": "view",
			"type": "function"
		},
		{
			"inputs": [],
			"name": "etfId",
			"outputs": [
				{
					"internalType": "uint256",
					"name": "",
					"type": "uint256"
				}
			],
			"stateMutability": "view",
			"type": "function"
		},
		{
			"inputs": [
				{
					"internalType": "string",
					"name": "_key",
					"type": "string"
				}
			],
			"name": "fetchFromDirectory",
			"outputs": [
				{
					"internalType": "address",
					"name": "",
					"type": "address"
				}
			],
			"stateMutability": "view",
			"type": "function"
		},
		{
			"inputs": [
				{
					"internalType": "uint256",
					"name": "etfId_",
					"type": "uint256"
				},
				{
					"internalType": "string",
					"name": "name_",
					"type": "string"
				},
				{
					"internalType": "string",
					"name": "symbol_",
					"type": "string"
				},
				{
					"internalType": "address",
					"name": "directory_",
					"type": "address"
				}
			],
			"name": "initialize",
			"outputs": [],
			"stateMutability": "nonpayable",
			"type": "function"
		},
		{
			"inputs": [
				{
					"internalType": "address",
					"name": "to",
					"type": "address"
				},
				{
					"internalType": "uint256",
					"name": "amount",
					"type": "uint256"
				}
			],
			"name": "mint",
			"outputs": [],
			"stateMutability": "nonpayable",
			"type": "function"
		},
		{
			"inputs": [],
			"name": "name",
			"outputs": [
				{
					"internalType": "string",
					"name": "",
					"type": "string"
				}
			],
			"stateMutability": "view",
			"type": "function"
		},
		{
			"inputs": [],
			"name": "owner",
			"outputs": [
				{
					"internalType": "address",
					"name": "",
					"type": "address"
				}
			],
			"stateMutability": "view",
			"type": "function"
		},
		{
			"inputs": [],
			"name": "symbol",
			"outputs": [
				{
					"internalType": "string",
					"name": "",
					"type": "string"
				}
			],
			"stateMutability": "view",
			"type": "function"
		},
		{
			"inputs": [],
			"name": "totalSupply",
			"outputs": [
				{
					"internalType": "uint256",
					"name": "",
					"type": "uint256"
				}
			],
			"stateMutability": "view",
			"type": "function"
		},
		{
			"inputs": [
				{
					"internalType": "address",
					"name": "to",
					"type": "address"
				},
				{
					"internalType": "uint256",
					"name": "value",
					"type": "uint256"
				}
			],
			"name": "transfer",
			"outputs": [
				{
					"internalType": "bool",
					"name": "",
					"type": "bool"
				}
			],
			"stateMutability": "nonpayable",
			"type": "function"
		},
		{
			"inputs": [
				{
					"internalType": "address",
					"name": "from",
					"type": "address"
				},
				{
					"internalType": "address",
					"name": "to",
					"type": "address"
				},
				{
					"internalType": "uint256",
					"name": "value",
					"type": "uint256"
				}
			],
			"name": "transferFrom",
			"outputs": [
				{
					"internalType": "bool",
					"name": "",
					"type": "bool"
				}
			],
			"stateMutability": "nonpayable",
			"type": "function"
		}
	]
}