{
	"data": {
		"bytecode": {
			"linkReferences": {},
			"object": "610140604052348015610010575f5ffd5b5060405161610b38038061610b83398181016040528101906100329190610616565b84848484845f73ffffffffffffffffffffffffffffffffffffffff168373ffffffffffffffffffffffffffffffffffffffff160361009c576040517fd92e233d00000000000000000000000000000000000000000000000000000000815260040160405180910390fd5b5f73ffffffffffffffffffffffffffffffffffffffff168473ffffffffffffffffffffffffffffffffffffffff1603610101576040517fd92e233d00000000000000000000000000000000000000000000000000000000815260040160405180910390fd5b5f73ffffffffffffffffffffffffffffffffffffffff168273ffffffffffffffffffffffffffffffffffffffff1603610166576040517fd92e233d00000000000000000000000000000000000000000000000000000000815260040160405180910390fd5b5f73ffffffffffffffffffffffffffffffffffffffff168173ffffffffffffffffffffffffffffffffffffffff16036101cb576040517fd92e233d00000000000000000000000000000000000000000000000000000000815260040160405180910390fd5b8273ffffffffffffffffffffffffffffffffffffffff1660e08173ffffffffffffffffffffffffffffffffffffffff16815250508373ffffffffffffffffffffffffffffffffffffffff166101008173ffffffffffffffffffffffffffffffffffffffff16815250508173ffffffffffffffffffffffffffffffffffffffff166101208173ffffffffffffffffffffffffffffffffffffffff16815250505f8473ffffffffffffffffffffffffffffffffffffffff1663ad5c46486040518163ffffffff1660e01b8152600401602060405180830381865afa1580156102b3573d5f5f3e3d5ffd5b505050506040513d601f19601f820116820180604052508101906102d7919061068d565b90508073ffffffffffffffffffffffffffffffffffffffff1660808173ffffffffffffffffffffffffffffffffffffffff16815250508473ffffffffffffffffffffffffffffffffffffffff1663c45a01556040518163ffffffff1660e01b8152600401602060405180830381865afa158015610356573d5f5f3e3d5ffd5b505050506040513d601f19601f8201168201806040525081019061037a919061068d565b73ffffffffffffffffffffffffffffffffffffffff1660c08173ffffffffffffffffffffffffffffffffffffffff16815250508173ffffffffffffffffffffffffffffffffffffffff1660a08173ffffffffffffffffffffffffffffffffffffffff168152505050505050506103f58161040760201b60201c565b50600180819055505050505050610826565b5f73ffffffffffffffffffffffffffffffffffffffff168173ffffffffffffffffffffffffffffffffffffffff1603610475576040517f08c379a000000000000000000000000000000000000000000000000000000000815260040161046c90610712565b60405180910390fd5b5f8173ffffffffffffffffffffffffffffffffffffffff163b116104ce576040517f08c379a00000000000000000000000000000000000000000000000000000000081526004016104c59061077a565b60405180910390fd5b8073ffffffffffffffffffffffffffffffffffffffff16638da5cb5b6040518163ffffffff1660e01b8152600401602060405180830381865afa92505050801561053657506040513d601f19601f82011682018060405250810190610533919061068d565b60015b610575576040517f08c379a000000000000000000000000000000000000000000000000000000000815260040161056c90610808565b60405180910390fd5b815f5f6101000a81548173ffffffffffffffffffffffffffffffffffffffff021916908373ffffffffffffffffffffffffffffffffffffffff1602179055505050565b5f5ffd5b5f73ffffffffffffffffffffffffffffffffffffffff82169050919050565b5f6105e5826105bc565b9050919050565b6105f5816105db565b81146105ff575f5ffd5b50565b5f81519050610610816105ec565b92915050565b5f5f5f5f5f60a0868803121561062f5761062e6105b8565b5b5f61063c88828901610602565b955050602061064d88828901610602565b945050604061065e88828901610602565b935050606061066f88828901610602565b925050608061068088828901610602565b9150509295509295909350565b5f602082840312156106a2576106a16105b8565b5b5f6106af84828501610602565b91505092915050565b5f82825260208201905092915050565b7f4469726563746f72792063616e6e6f74206265207a65726f20616464726573735f82015250565b5f6106fc6020836106b8565b9150610707826106c8565b602082019050919050565b5f6020820190508181035f830152610729816106f0565b9050919050565b7f4469726563746f7279206d757374206265206120636f6e7472616374000000005f82015250565b5f610764601c836106b8565b915061076f82610730565b602082019050919050565b5f6020820190508181035f83015261079181610758565b9050919050565b7f4469726563746f7279206164647265737320646f6573206e6f7420696d706c655f8201527f6d656e74206f776e657228290000000000000000000000000000000000000000602082015250565b5f6107f2602c836106b8565b91506107fd82610798565b604082019050919050565b5f6020820190508181035f83015261081f816107e6565b9050919050565b60805160a05160c05160e05161010051610120516157f66109155f395f81816108bc01528181610fe9015281816126cb0152612af901525f8181610ae5015261292901525f8181610904015261228601525f6109bb01525f81816103fa0152818161267f015281816126a901528181612aad0152612ad701525f8181610575015281816105c6015281816107890152818161085f0152818161089801528181610b6f015281816111e801528181611a2901528181611a5c01528181611a9b01528181611ac901528181611eee01528181612074015281816120a7015281816120e6015261211401526157f65ff3fe6080604052600436106100c5575f3560e01c80635cf390491161007e5780638da5cb5b116100585780638da5cb5b1461024a578063b4b57c3914610274578063ba4c7be11461029e578063deadbc14146102c6576100cc565b80635cf39049146101cc578063658a847a146101f65780637c887c5914610220576100cc565b806309053ac4146100d057806312261ee7146100f85780631623306b14610122578063272626181461013e5780633814bc6e1461017a5780634f0e0ef3146101a2576100cc565b366100cc57005b5f5ffd5b3480156100db575f5ffd5b506100f660048036038101906100f19190613b72565b6102f0565b005b348015610103575f5ffd5b5061010c6103f8565b6040516101199190613c0b565b60405180910390f35b61013c60048036038101906101379190613cbe565b61041c565b005b348015610149575f5ffd5b50610164600480360381019061015f9190613e67565b610618565b6040516101719190613ebd565b60405180910390f35b348015610185575f5ffd5b506101a0600480360381019061019b9190613f9b565b6106b8565b005b3480156101ad575f5ffd5b506101b6610896565b6040516101c39190613ebd565b60405180910390f35b3480156101d7575f5ffd5b506101e06108ba565b6040516101ed919061403f565b60405180910390f35b348015610201575f5ffd5b5061020a6108de565b6040516102179190614078565b60405180910390f35b34801561022b575f5ffd5b50610234610902565b60405161024191906140b1565b60405180910390f35b348015610255575f5ffd5b5061025e610926565b60405161026b9190613ebd565b60405180910390f35b34801561027f575f5ffd5b506102886109b9565b60405161029591906140ea565b60405180910390f35b3480156102a9575f5ffd5b506102c460048036038101906102bf9190614103565b6109dd565b005b3480156102d1575f5ffd5b506102da610ae3565b6040516102e7919061414e565b60405180910390f35b5f5f9054906101000a900473ffffffffffffffffffffffffffffffffffffffff1673ffffffffffffffffffffffffffffffffffffffff16638da5cb5b6040518163ffffffff1660e01b8152600401602060405180830381865afa158015610359573d5f5f3e3d5ffd5b505050506040513d601f19601f8201168201806040525081019061037d919061417b565b73ffffffffffffffffffffffffffffffffffffffff163373ffffffffffffffffffffffffffffffffffffffff16146103ea576040517f08c379a00000000000000000000000000000000000000000000000000000000081526004016103e190614200565b60405180910390fd5b6103f48282610b07565b5050565b7f000000000000000000000000000000000000000000000000000000000000000081565b610424610b15565b5f73ffffffffffffffffffffffffffffffffffffffff168273ffffffffffffffffffffffffffffffffffffffff1603610489576040517fd92e233d00000000000000000000000000000000000000000000000000000000815260040160405180910390fd5b5f3490505f85859050036104c9576040517fb4fa3fb300000000000000000000000000000000000000000000000000000000815260040160405180910390fd5b5f8103610502576040517fb4fa3fb300000000000000000000000000000000000000000000000000000000815260040160405180910390fd5b5f6105108686868686610b64565b90505f816080015190505f811480610529575061271081115b15610560576040517f124955fb00000000000000000000000000000000000000000000000000000000815260040160405180910390fd5b5f826060015190505f81111561059b5761059a7f000000000000000000000000000000000000000000000000000000000000000082610e60565b5b6105b1835f015184602001518560400151610efb565b5f8360a0015190505f8111156105ed576105ec7f00000000000000000000000000000000000000000000000000000000000000008883611074565b5b5f4790505f8111156106045761060333826110bd565b5b5050505050506106126111d4565b50505050565b5f5f5f9054906101000a900473ffffffffffffffffffffffffffffffffffffffff1673ffffffffffffffffffffffffffffffffffffffff166327262618836040518263ffffffff1660e01b8152600401610672919061426e565b602060405180830381865afa15801561068d573d5f5f3e3d5ffd5b505050506040513d601f19601f820116820180604052508101906106b1919061417b565b9050919050565b6106c0610b15565b5f73ffffffffffffffffffffffffffffffffffffffff168373ffffffffffffffffffffffffffffffffffffffff1603610725576040517fd92e233d00000000000000000000000000000000000000000000000000000000815260040160405180910390fd5b5f8585905003610761576040517fb4fa3fb300000000000000000000000000000000000000000000000000000000815260040160405180910390fd5b5f61076e868685856111dd565b9050610786815f015182602001518360400151610efb565b5f7f000000000000000000000000000000000000000000000000000000000000000073ffffffffffffffffffffffffffffffffffffffff166370a08231306040518263ffffffff1660e01b81526004016107e09190613ebd565b602060405180830381865afa1580156107fb573d5f5f3e3d5ffd5b505050506040513d601f19601f8201168201806040525081019061081f91906142c1565b90505f810361085a576040517fabff335a00000000000000000000000000000000000000000000000000000000815260040160405180910390fd5b6108857f00000000000000000000000000000000000000000000000000000000000000008287611570565b505061088f6111d4565b5050505050565b7f000000000000000000000000000000000000000000000000000000000000000081565b7f000000000000000000000000000000000000000000000000000000000000000081565b5f5f9054906101000a900473ffffffffffffffffffffffffffffffffffffffff1681565b7f000000000000000000000000000000000000000000000000000000000000000081565b5f5f5f9054906101000a900473ffffffffffffffffffffffffffffffffffffffff1673ffffffffffffffffffffffffffffffffffffffff16638da5cb5b6040518163ffffffff1660e01b8152600401602060405180830381865afa158015610990573d5f5f3e3d5ffd5b505050506040513d601f19601f820116820180604052508101906109b4919061417b565b905090565b7f000000000000000000000000000000000000000000000000000000000000000081565b5f5f9054906101000a900473ffffffffffffffffffffffffffffffffffffffff1673ffffffffffffffffffffffffffffffffffffffff16638da5cb5b6040518163ffffffff1660e01b8152600401602060405180830381865afa158015610a46573d5f5f3e3d5ffd5b505050506040513d601f19601f82011682018060405250810190610a6a919061417b565b73ffffffffffffffffffffffffffffffffffffffff163373ffffffffffffffffffffffffffffffffffffffff1614610ad7576040517f08c379a0000000000000000000000000000000000000000000000000000000008152600401610ace90614200565b60405180910390fd5b610ae08161167b565b50565b7f000000000000000000000000000000000000000000000000000000000000000081565b610b11828261182c565b5050565b600260015403610b5a576040517f08c379a0000000000000000000000000000000000000000000000000000000008152600401610b5190614336565b60405180910390fd5b6002600181905550565b610b6c613ab5565b5f7f000000000000000000000000000000000000000000000000000000000000000090505f8787905090508067ffffffffffffffff811115610bb157610bb0613d43565b5b604051908082528060200260200182016040528015610be457816020015b6060815260200190600190039081610bcf5790505b5083602001819052508067ffffffffffffffff811115610c0757610c06613d43565b5b6040519080825280601f01601f191660200182016040528015610c395781602001600182028036833780820191505090505b50835f01819052505f5f90505b81811015610e54575f898983818110610c6257610c61614354565b5b9050604002015f016020810190610c799190614103565b90505f73ffffffffffffffffffffffffffffffffffffffff168173ffffffffffffffffffffffffffffffffffffffff1603610ce0576040517f7401d93100000000000000000000000000000000000000000000000000000000815260040160405180910390fd5b5f8a8a84818110610cf457610cf3614354565b5b9050604002016020016020810190610d0c91906143b8565b61ffff169050808660800181815101915081815250505f8103610d30575050610e49565b5f61271082890281610d4557610d446143e3565b5b0490505f8103610d5757505050610e49565b808760600181815101915081815250508573ffffffffffffffffffffffffffffffffffffffff168373ffffffffffffffffffffffffffffffffffffffff1603610db257808760a0018181510191508181525050505050610e49565b5f5f610dc085848e8e611903565b9150915081895f01518a6040015181518110610ddf57610dde614354565b5b60200101907effffffffffffffffffffffffffffffffffffffffffffffffffffffffffffff191690815f1a9053508089602001518a6040015181518110610e2957610e28614354565b5b602002602001018190525088604001805160010190818152505050505050505b806001019050610c46565b50505095945050505050565b80471015610e9a576040517f6a12f10400000000000000000000000000000000000000000000000000000000815260040160405180910390fd5b8173ffffffffffffffffffffffffffffffffffffffff1663d0e30db0826040518263ffffffff1660e01b81526004015f604051808303818588803b158015610ee0575f5ffd5b505af1158015610ef2573d5f5f3e3d5ffd5b50505050505050565b5f8103610f34576040517fabff335a00000000000000000000000000000000000000000000000000000000815260040160405180910390fd5b80825114610fe4575f8167ffffffffffffffff811115610f5757610f56613d43565b5b604051908082528060200260200182016040528015610f8a57816020015b6060815260200190600190039081610f755790505b5090505f5f90505b82811015610fde57838181518110610fad57610fac614354565b5b6020026020010151828281518110610fc857610fc7614354565b5b6020026020010181905250806001019050610f92565b50809250505b8083527f000000000000000000000000000000000000000000000000000000000000000073ffffffffffffffffffffffffffffffffffffffff166324856bc384846040518363ffffffff1660e01b8152600401611042929190614565565b5f604051808303815f87803b158015611059575f5ffd5b505af115801561106b573d5f5f3e3d5ffd5b50505050505050565b5f81036110ad576040517f1f2a200500000000000000000000000000000000000000000000000000000000815260040160405180910390fd5b6110b8838383611b07565b505050565b5f81036110f6576040517f1f2a200500000000000000000000000000000000000000000000000000000000815260040160405180910390fd5b80471015611130576040517f6a12f10400000000000000000000000000000000000000000000000000000000815260040160405180910390fd5b5f8273ffffffffffffffffffffffffffffffffffffffff1682604051611155906145c7565b5f6040518083038185875af1925050503d805f811461118f576040519150601f19603f3d011682016040523d82523d5f602084013e611194565b606091505b50509050806111cf576040517fcef4eed700000000000000000000000000000000000000000000000000000000815260040160405180910390fd5b505050565b60018081905550565b6111e5613ae7565b5f7f000000000000000000000000000000000000000000000000000000000000000090505f8686905090508067ffffffffffffffff81111561122a57611229613d43565b5b60405190808252806020026020018201604052801561125d57816020015b60608152602001906001900390816112485790505b5083602001819052508067ffffffffffffffff8111156112805761127f613d43565b5b6040519080825280601f01601f1916602001820160405280156112b25781602001600182028036833780820191505090505b50835f01819052505f5f90505b81811015611565575f8888838181106112db576112da614354565b5b9050604002015f0160208101906112f29190614103565b90505f89898481811061130857611307614354565b5b9050604002016020013590505f810361132257505061155a565b5f73ffffffffffffffffffffffffffffffffffffffff168273ffffffffffffffffffffffffffffffffffffffff1603611387576040517f7401d93100000000000000000000000000000000000000000000000000000000815260040160405180910390fd5b5f8573ffffffffffffffffffffffffffffffffffffffff168373ffffffffffffffffffffffffffffffffffffffff161490505f881561148e575f8473ffffffffffffffffffffffffffffffffffffffff166370a08231306040518263ffffffff1660e01b81526004016113fa9190613ebd565b602060405180830381865afa158015611415573d5f5f3e3d5ffd5b505050506040513d601f19601f8201168201806040525081019061143991906142c1565b905083811015611475576040517f06998f5b00000000000000000000000000000000000000000000000000000000815260040160405180910390fd5b821561148557505050505061155a565b839150506114c2565b5f61149a858533611c56565b905082156114ac57505050505061155a565b8091505f82036114c057505050505061155a565b505b5f5f6114d08684308f611e91565b91509150818a5f01518b60400151815181106114ef576114ee614354565b5b60200101907effffffffffffffffffffffffffffffffffffffffffffffffffffffffffffff191690815f1a905350808a602001518b604001518151811061153957611538614354565b5b60200260200101819052508960400180516001019081815250505050505050505b8060010190506112bf565b505050949350505050565b8273ffffffffffffffffffffffffffffffffffffffff16632e1a7d4d836040518263ffffffff1660e01b81526004016115a991906145ea565b5f604051808303815f87803b1580156115c0575f5ffd5b505af11580156115d2573d5f5f3e3d5ffd5b505050505f8173ffffffffffffffffffffffffffffffffffffffff16836040516115fb906145c7565b5f6040518083038185875af1925050503d805f8114611635576040519150601f19603f3d011682016040523d82523d5f602084013e61163a565b606091505b5050905080611675576040517fb2f8aaaa00000000000000000000000000000000000000000000000000000000815260040160405180910390fd5b50505050565b5f73ffffffffffffffffffffffffffffffffffffffff168173ffffffffffffffffffffffffffffffffffffffff16036116e9576040517f08c379a00000000000000000000000000000000000000000000000000000000081526004016116e09061464d565b60405180910390fd5b5f8173ffffffffffffffffffffffffffffffffffffffff163b11611742576040517f08c379a0000000000000000000000000000000000000000000000000000000008152600401611739906146b5565b60405180910390fd5b8073ffffffffffffffffffffffffffffffffffffffff16638da5cb5b6040518163ffffffff1660e01b8152600401602060405180830381865afa9250505080156117aa57506040513d601f19601f820116820180604052508101906117a7919061417b565b60015b6117e9576040517f08c379a00000000000000000000000000000000000000000000000000000000081526004016117e090614743565b60405180910390fd5b815f5f6101000a81548173ffffffffffffffffffffffffffffffffffffffff021916908373ffffffffffffffffffffffffffffffffffffffff1602179055505050565b5f73ffffffffffffffffffffffffffffffffffffffff168273ffffffffffffffffffffffffffffffffffffffff160361186e5761186981476110bd565b6118ff565b5f8273ffffffffffffffffffffffffffffffffffffffff166370a08231306040518263ffffffff1660e01b81526004016118a89190613ebd565b602060405180830381865afa1580156118c3573d5f5f3e3d5ffd5b505050506040513d601f19601f820116820180604052508101906118e791906142c1565b90505f8111156118fd576118fc838383611b07565b5b505b5050565b5f60605f8503611929575f60f81b60405180602001604052805f81525091509150611afe565b5f611932612151565b73ffffffffffffffffffffffffffffffffffffffff16636425f09e886040518263ffffffff1660e01b815260040161196a9190613ebd565b6080604051808303815f875af1158015611986573d5f5f3e3d5ffd5b505050506040513d601f19601f820116820180604052508101906119aa9190614885565b90505f73ffffffffffffffffffffffffffffffffffffffff16815f015173ffffffffffffffffffffffffffffffffffffffff1603611a14576040517f791c2fed00000000000000000000000000000000000000000000000000000000815260040160405180910390fd5b5f6001826040015160ff1603611a9657611a557f00000000000000000000000000000000000000000000000000000000000000008984602001518a89612195565b9050611a897f00000000000000000000000000000000000000000000000000000000000000008984602001518a858b612677565b92505f60f81b9350611afb565b611ac27f000000000000000000000000000000000000000000000000000000000000000089898861274d565b9050611af17f00000000000000000000000000000000000000000000000000000000000000008989848a612aa5565b9250600860f81b93505b50505b94509492505050565b5f5f8473ffffffffffffffffffffffffffffffffffffffff1663a9059cbb60e01b8585604051602401611b3b9291906148b0565b604051602081830303815290604052907bffffffffffffffffffffffffffffffffffffffffffffffffffffffff19166020820180517bffffffffffffffffffffffffffffffffffffffffffffffffffffffff8381831617835250505050604051611ba59190614907565b5f604051808303815f865af19150503d805f8114611bde576040519150601f19603f3d011682016040523d82523d5f602084013e611be3565b606091505b5091509150818015611c1057505f81511480611c0f575080806020019051810190611c0e9190614931565b5b5b611c4f576040517f08c379a0000000000000000000000000000000000000000000000000000000008152600401611c46906149a6565b60405180910390fd5b5050505050565b5f5f8303611c90576040517f1f2a200500000000000000000000000000000000000000000000000000000000815260040160405180910390fd5b5f8473ffffffffffffffffffffffffffffffffffffffff1663dd62ed3e84306040518363ffffffff1660e01b8152600401611ccc9291906149c4565b602060405180830381865afa158015611ce7573d5f5f3e3d5ffd5b505050506040513d601f19601f82011682018060405250810190611d0b91906142c1565b905083811015611d47576040517fbac9b5e800000000000000000000000000000000000000000000000000000000815260040160405180910390fd5b5f8573ffffffffffffffffffffffffffffffffffffffff166370a08231306040518263ffffffff1660e01b8152600401611d819190613ebd565b602060405180830381865afa158015611d9c573d5f5f3e3d5ffd5b505050506040513d601f19601f82011682018060405250810190611dc091906142c1565b9050611dce86853088612c3d565b5f8673ffffffffffffffffffffffffffffffffffffffff166370a08231306040518263ffffffff1660e01b8152600401611e089190613ebd565b602060405180830381865afa158015611e23573d5f5f3e3d5ffd5b505050506040513d601f19601f82011682018060405250810190611e4791906142c1565b905081810393505f8403611e87576040517fb5c74a2700000000000000000000000000000000000000000000000000000000815260040160405180910390fd5b5050509392505050565b5f60605f8503611eb7575f60f81b60405180602001604052805f81525091509150612148565b5f73ffffffffffffffffffffffffffffffffffffffff168673ffffffffffffffffffffffffffffffffffffffff161480611f3c57507f000000000000000000000000000000000000000000000000000000000000000073ffffffffffffffffffffffffffffffffffffffff168673ffffffffffffffffffffffffffffffffffffffff16145b15611f73576040517f7401d93100000000000000000000000000000000000000000000000000000000815260040160405180910390fd5b5f611f7c612151565b73ffffffffffffffffffffffffffffffffffffffff16636425f09e886040518263ffffffff1660e01b8152600401611fb49190613ebd565b6080604051808303815f875af1158015611fd0573d5f5f3e3d5ffd5b505050506040513d601f19601f82011682018060405250810190611ff49190614885565b90505f73ffffffffffffffffffffffffffffffffffffffff16815f015173ffffffffffffffffffffffffffffffffffffffff160361205e576040517f791c2fed00000000000000000000000000000000000000000000000000000000815260040160405180910390fd5b5f6001826040015160ff16036120e05761209f887f000000000000000000000000000000000000000000000000000000000000000084602001518a89612195565b90506120d3887f000000000000000000000000000000000000000000000000000000000000000084602001518a858b612677565b92505f60f81b9350612145565b61210c887f0000000000000000000000000000000000000000000000000000000000000000898861274d565b905061213b887f000000000000000000000000000000000000000000000000000000000000000089848a612aa5565b9250600860f81b93505b50505b94509492505050565b5f6121906040518060400160405280600b81526020017f706f6f6c2d66696e646572000000000000000000000000000000000000000000815250610618565b905090565b5f5f83036121a5575f905061266e565b5f73ffffffffffffffffffffffffffffffffffffffff168673ffffffffffffffffffffffffffffffffffffffff16148061220a57505f73ffffffffffffffffffffffffffffffffffffffff168573ffffffffffffffffffffffffffffffffffffffff16145b15612241576040517fd92e233d00000000000000000000000000000000000000000000000000000000815260040160405180910390fd5b6127108263ffffffff161115612283576040517f124955fb00000000000000000000000000000000000000000000000000000000815260040160405180910390fd5b5f7f000000000000000000000000000000000000000000000000000000000000000073ffffffffffffffffffffffffffffffffffffffff16631698ee828888886040518463ffffffff1660e01b81526004016122e1939291906149fa565b602060405180830381865afa1580156122fc573d5f5f3e3d5ffd5b505050506040513d601f19601f82011682018060405250810190612320919061417b565b90505f73ffffffffffffffffffffffffffffffffffffffff168173ffffffffffffffffffffffffffffffffffffffff1603612387576040517f791c2fed00000000000000000000000000000000000000000000000000000000815260040160405180910390fd5b5f620f42408662ffffff16620f42406123a09190614a5c565b866123ab9190614a8f565b6123b59190614ad0565b90505f81036123f0576040517f6eed12ff00000000000000000000000000000000000000000000000000000000815260040160405180910390fd5b5f6fffffffffffffffffffffffffffffffff801682116124105781612422565b6fffffffffffffffffffffffffffffffff5b90505f600f90505f5f600267ffffffffffffffff81111561244657612445613d43565b5b6040519080825280602002602001820160405280156124745781602001602082028036833780820191505090505b50905082815f8151811061248b5761248a614354565b5b602002602001019063ffffffff16908163ffffffff16815250505f816001815181106124ba576124b9614354565b5b602002602001019063ffffffff16908163ffffffff16815250508573ffffffffffffffffffffffffffffffffffffffff1663883bdbfd826040518263ffffffff1660e01b815260040161250d9190614bb7565b5f60405180830381865afa92505050801561254a57506040513d5f823e3d601f19601f820116820180604052508101906125479190614db7565b60015b6125cd575f8673ffffffffffffffffffffffffffffffffffffffff16633850c7bd6040518163ffffffff1660e01b815260040160e060405180830381865afa158015612598573d5f5f3e3d5ffd5b505050506040513d601f19601f820116820180604052508101906125bc9190614e77565b505050505091505080925050612612565b61260d825f815181106125e3576125e2614354565b5b6020026020010151836001815181106125ff576125fe614354565b5b602002602001015187612d8f565b935050505b505f61262082858e8e612dae565b90505f810361265b576040517f6eed12ff00000000000000000000000000000000000000000000000000000000815260040160405180910390fd5b6126658189612fb7565b96505050505050505b95945050505050565b60606126a4877f00000000000000000000000000000000000000000000000000000000000000008661302e565b6126f07f0000000000000000000000000000000000000000000000000000000000000000887f0000000000000000000000000000000000000000000000000000000000000000876130f8565b5f87868860405160200161270693929190614f8d565b6040516020818303038152906040529050828585836001604051602001612731959493929190614fd8565b6040516020818303038152906040529150509695505050505050565b5f5f830361275d575f9050612a9d565b5f73ffffffffffffffffffffffffffffffffffffffff168573ffffffffffffffffffffffffffffffffffffffff1614806127c257505f73ffffffffffffffffffffffffffffffffffffffff168473ffffffffffffffffffffffffffffffffffffffff16145b156127f9576040517fd92e233d00000000000000000000000000000000000000000000000000000000815260040160405180910390fd5b6127108263ffffffff16111561283b576040517f124955fb00000000000000000000000000000000000000000000000000000000815260040160405180910390fd5b5f600267ffffffffffffffff81111561285757612856613d43565b5b6040519080825280602002602001820160405280156128855781602001602082028036833780820191505090505b50905085815f8151811061289c5761289b614354565b5b602002602001019073ffffffffffffffffffffffffffffffffffffffff16908173ffffffffffffffffffffffffffffffffffffffff168152505084816001815181106128eb576128ea614354565b5b602002602001019073ffffffffffffffffffffffffffffffffffffffff16908173ffffffffffffffffffffffffffffffffffffffff168152505060607f000000000000000000000000000000000000000000000000000000000000000073ffffffffffffffffffffffffffffffffffffffff1663d06ca61f86846040518363ffffffff1660e01b81526004016129829291906150e7565b5f60405180830381865afa9250505080156129bf57506040513d5f823e3d601f19601f820116820180604052508101906129bc91906151d5565b60015b6129f5576040517f6eed12ff00000000000000000000000000000000000000000000000000000000815260040160405180910390fd5b80915050600281511015612a35576040517f6eed12ff00000000000000000000000000000000000000000000000000000000815260040160405180910390fd5b5f81600181518110612a4a57612a49614354565b5b602002602001015190505f8103612a8d576040517f6eed12ff00000000000000000000000000000000000000000000000000000000815260040160405180910390fd5b612a978186612fb7565b93505050505b949350505050565b6060612ad2867f00000000000000000000000000000000000000000000000000000000000000008661302e565b612b1e7f0000000000000000000000000000000000000000000000000000000000000000877f0000000000000000000000000000000000000000000000000000000000000000876130f8565b5f600267ffffffffffffffff811115612b3a57612b39613d43565b5b604051908082528060200260200182016040528015612b685781602001602082028036833780820191505090505b50905086815f81518110612b7f57612b7e614354565b5b602002602001019073ffffffffffffffffffffffffffffffffffffffff16908173ffffffffffffffffffffffffffffffffffffffff16815250508581600181518110612bce57612bcd614354565b5b602002602001019073ffffffffffffffffffffffffffffffffffffffff16908173ffffffffffffffffffffffffffffffffffffffff1681525050828585836001604051602001612c2295949392919061521c565b60405160208183030381529060405291505095945050505050565b5f5f8573ffffffffffffffffffffffffffffffffffffffff166323b872dd60e01b868686604051602401612c7393929190615274565b604051602081830303815290604052907bffffffffffffffffffffffffffffffffffffffffffffffffffffffff19166020820180517bffffffffffffffffffffffffffffffffffffffffffffffffffffffff8381831617835250505050604051612cdd9190614907565b5f604051808303815f865af19150503d805f8114612d16576040519150601f19603f3d011682016040523d82523d5f602084013e612d1b565b606091505b5091509150818015612d4857505f81511480612d47575080806020019051810190612d469190614931565b5b5b612d87576040517f08c379a0000000000000000000000000000000000000000000000000000000008152600401612d7e906152f3565b60405180910390fd5b505050505050565b5f612da58484612d9f9190615311565b8361330d565b90509392505050565b5f5f612db9866133a8565b90506fffffffffffffffffffffffffffffffff80168173ffffffffffffffffffffffffffffffffffffffff1611612ed2575f8173ffffffffffffffffffffffffffffffffffffffff168273ffffffffffffffffffffffffffffffffffffffff16612e239190614a8f565b90508373ffffffffffffffffffffffffffffffffffffffff168573ffffffffffffffffffffffffffffffffffffffff1610612e9357612e8e7801000000000000000000000000000000000000000000000000876fffffffffffffffffffffffffffffffff168361385c565b612eca565b612ec981876fffffffffffffffffffffffffffffffff16780100000000000000000000000000000000000000000000000061385c565b5b925050612fae565b5f612f138273ffffffffffffffffffffffffffffffffffffffff168373ffffffffffffffffffffffffffffffffffffffff166801000000000000000061385c565b90508373ffffffffffffffffffffffffffffffffffffffff168573ffffffffffffffffffffffffffffffffffffffff1610612f7b57612f76700100000000000000000000000000000000876fffffffffffffffffffffffffffffffff168361385c565b612faa565b612fa981876fffffffffffffffffffffffffffffffff1670010000000000000000000000000000000061385c565b5b9250505b50949350505050565b5f6127108263ffffffff161115612ffa576040517f124955fb00000000000000000000000000000000000000000000000000000000815260040160405180910390fd5b6127108263ffffffff166127106130119190614a5c565b8461301c9190614a8f565b6130269190614ad0565b905092915050565b5f8373ffffffffffffffffffffffffffffffffffffffff1663dd62ed3e30856040518363ffffffff1660e01b815260040161306a9291906149c4565b602060405180830381865afa158015613085573d5f5f3e3d5ffd5b505050506040513d601f19601f820116820180604052508101906130a991906142c1565b9050818110156130f2575f81146130c6576130c584845f613966565b5b6130f184847fffffffffffffffffffffffffffffffffffffffffffffffffffffffffffffffff613966565b5b50505050565b5f73ffffffffffffffffffffffffffffffffffffffff168373ffffffffffffffffffffffffffffffffffffffff16148061315d57505f73ffffffffffffffffffffffffffffffffffffffff168273ffffffffffffffffffffffffffffffffffffffff16145b15613194576040517f7401d93100000000000000000000000000000000000000000000000000000000815260040160405180910390fd5b5f5f8573ffffffffffffffffffffffffffffffffffffffff1663927da1053087876040518463ffffffff1660e01b81526004016131d39392919061536f565b606060405180830381865afa1580156131ee573d5f5f3e3d5ffd5b505050506040513d601f19601f8201168201806040525081019061321291906153df565b50915091505f8373ffffffffffffffffffffffffffffffffffffffff168373ffffffffffffffffffffffffffffffffffffffff16101590505f5f8365ffffffffffff161415801561326b5750428365ffffffffffff1611155b90508115806132775750805b15613303578773ffffffffffffffffffffffffffffffffffffffff166387517c45888873ffffffffffffffffffffffffffffffffffffffff65ffffffffffff6040518563ffffffff1660e01b81526004016132d5949392919061544d565b5f604051808303815f87803b1580156132ec575f5ffd5b505af11580156132fe573d5f5f3e3d5ffd5b505050505b5050505050505050565b5f5f8263ffffffff1603613356576040517f08c379a000000000000000000000000000000000000000000000000000000000815260040161334d906154da565b60405180910390fd5b5f8260030b90505f818561336a91906154f8565b90505f82866133799190615560565b90508193505f8660060b12801561339357505f8160060b14155b1561339f576001840393505b50505092915050565b5f5f5f8360020b126133bd578260020b6133cb565b8260020b6133ca90615599565b5b90507ffffffffffffffffffffffffffffffffffffffffffffffffffffffffffff276186133f7906155df565b62ffffff1681111561343e576040517f08c379a00000000000000000000000000000000000000000000000000000000081526004016134359061566f565b60405180910390fd5b5f5f600183160361346057700100000000000000000000000000000000613472565b6ffffcb933bd6fad37aa2d162d1a5940015b70ffffffffffffffffffffffffffffffffff1690505f60028316146134b45760806ffff97272373d413259a46990580e213a826134af9190614a8f565b901c90505b5f60048316146134e15760806ffff2e50f5f656932ef12357cf3c7fdcc826134dc9190614a8f565b901c90505b5f600883161461350e5760806fffe5caca7e10e4e61c3624eaa0941cd0826135099190614a8f565b901c90505b5f601083161461353b5760806fffcb9843d60f6159c9db58835c926644826135369190614a8f565b901c90505b5f60208316146135685760806fff973b41fa98c081472e6896dfb254c0826135639190614a8f565b901c90505b5f60408316146135955760806fff2ea16466c96a3843ec78b326b52861826135909190614a8f565b901c90505b5f60808316146135c25760806ffe5dee046a99a2a811c461f1969c3053826135bd9190614a8f565b901c90505b5f6101008316146135f05760806ffcbe86c7900a88aedcffc83b479aa3a4826135eb9190614a8f565b901c90505b5f61020083161461361e5760806ff987a7253ac413176f2b074cf7815e54826136199190614a8f565b901c90505b5f61040083161461364c5760806ff3392b0822b70005940c7a398e4b70f3826136479190614a8f565b901c90505b5f61080083161461367a5760806fe7159475a2c29b7443b29c7fa6e889d9826136759190614a8f565b901c90505b5f6110008316146136a85760806fd097f3bdfd2022b8845ad8f792aa5825826136a39190614a8f565b901c90505b5f6120008316146136d65760806fa9f746462d870fdf8a65dc1f90e061e5826136d19190614a8f565b901c90505b5f6140008316146137045760806f70d869a156d2a1b890bb3df62baf32f7826136ff9190614a8f565b901c90505b5f6180008316146137325760806f31be135f97d08fd981231505542fcfa68261372d9190614a8f565b901c90505b5f620100008316146137615760806f09aa508b5b7a84e1c677de54f3e99bc98261375c9190614a8f565b901c90505b5f6202000083161461378f5760806e5d6af8dedb81196699c329225ee6048261378a9190614a8f565b901c90505b5f620400008316146137bc5760806d2216e584f5fa1ea926041bedfe98826137b79190614a8f565b901c90505b5f620800008316146137e75760806b048a170391f7dc42444e8fa2826137e29190614a8f565b901c90505b5f8460020b131561382157807fffffffffffffffffffffffffffffffffffffffffffffffffffffffffffffffff61381e9190614ad0565b90505b5f64010000000082613833919061568d565b1461383f576001613841565b5f5b60ff16602082901c61385391906156bd565b92505050919050565b5f5f5f5f198587098587029250828110838203039150505f81036138945783828161388a576138896143e3565b5b049250505061395f565b8084116138d6576040517f08c379a00000000000000000000000000000000000000000000000000000000081526004016138cd9061573a565b60405180910390fd5b5f8486880990508281118203915080830392505f60018619018616905080860495508084049350600181825f0304019050808302841793505f600287600302189050808702600203810290508087026002038102905080870260020381029050808702600203810290508087026002038102905080870260020381029050808502955050505050505b9392505050565b5f5f8473ffffffffffffffffffffffffffffffffffffffff1663095ea7b360e01b858560405160240161399a9291906148b0565b604051602081830303815290604052907bffffffffffffffffffffffffffffffffffffffffffffffffffffffff19166020820180517bffffffffffffffffffffffffffffffffffffffffffffffffffffffff8381831617835250505050604051613a049190614907565b5f604051808303815f865af19150503d805f8114613a3d576040519150601f19603f3d011682016040523d82523d5f602084013e613a42565b606091505b5091509150818015613a6f57505f81511480613a6e575080806020019051810190613a6d9190614931565b5b5b613aae576040517f08c379a0000000000000000000000000000000000000000000000000000000008152600401613aa5906157a2565b60405180910390fd5b5050505050565b6040518060c0016040528060608152602001606081526020015f81526020015f81526020015f81526020015f81525090565b604051806060016040528060608152602001606081526020015f81525090565b5f604051905090565b5f5ffd5b5f5ffd5b5f73ffffffffffffffffffffffffffffffffffffffff82169050919050565b5f613b4182613b18565b9050919050565b613b5181613b37565b8114613b5b575f5ffd5b50565b5f81359050613b6c81613b48565b92915050565b5f5f60408385031215613b8857613b87613b10565b5b5f613b9585828601613b5e565b9250506020613ba685828601613b5e565b9150509250929050565b5f819050919050565b5f613bd3613bce613bc984613b18565b613bb0565b613b18565b9050919050565b5f613be482613bb9565b9050919050565b5f613bf582613bda565b9050919050565b613c0581613beb565b82525050565b5f602082019050613c1e5f830184613bfc565b92915050565b5f5ffd5b5f5ffd5b5f5ffd5b5f5f83601f840112613c4557613c44613c24565b5b8235905067ffffffffffffffff811115613c6257613c61613c28565b5b602083019150836040820283011115613c7e57613c7d613c2c565b5b9250929050565b5f63ffffffff82169050919050565b613c9d81613c85565b8114613ca7575f5ffd5b50565b5f81359050613cb881613c94565b92915050565b5f5f5f5f60608587031215613cd657613cd5613b10565b5b5f85013567ffffffffffffffff811115613cf357613cf2613b14565b5b613cff87828801613c30565b94509450506020613d1287828801613b5e565b9250506040613d2387828801613caa565b91505092959194509250565b5f5ffd5b5f601f19601f8301169050919050565b7f4e487b71000000000000000000000000000000000000000000000000000000005f52604160045260245ffd5b613d7982613d33565b810181811067ffffffffffffffff82111715613d9857613d97613d43565b5b80604052505050565b5f613daa613b07565b9050613db68282613d70565b919050565b5f67ffffffffffffffff821115613dd557613dd4613d43565b5b613dde82613d33565b9050602081019050919050565b828183375f83830152505050565b5f613e0b613e0684613dbb565b613da1565b905082815260208101848484011115613e2757613e26613d2f565b5b613e32848285613deb565b509392505050565b5f82601f830112613e4e57613e4d613c24565b5b8135613e5e848260208601613df9565b91505092915050565b5f60208284031215613e7c57613e7b613b10565b5b5f82013567ffffffffffffffff811115613e9957613e98613b14565b5b613ea584828501613e3a565b91505092915050565b613eb781613b37565b82525050565b5f602082019050613ed05f830184613eae565b92915050565b5f5f83601f840112613eeb57613eea613c24565b5b8235905067ffffffffffffffff811115613f0857613f07613c28565b5b602083019150836040820283011115613f2457613f23613c2c565b5b9250929050565b5f613f3582613b18565b9050919050565b613f4581613f2b565b8114613f4f575f5ffd5b50565b5f81359050613f6081613f3c565b92915050565b5f8115159050919050565b613f7a81613f66565b8114613f84575f5ffd5b50565b5f81359050613f9581613f71565b92915050565b5f5f5f5f5f60808688031215613fb457613fb3613b10565b5b5f86013567ffffffffffffffff811115613fd157613fd0613b14565b5b613fdd88828901613ed6565b95509550506020613ff088828901613f52565b935050604061400188828901613caa565b925050606061401288828901613f87565b9150509295509295909350565b5f61402982613bda565b9050919050565b6140398161401f565b82525050565b5f6020820190506140525f830184614030565b92915050565b5f61406282613bda565b9050919050565b61407281614058565b82525050565b5f60208201905061408b5f830184614069565b92915050565b5f61409b82613bda565b9050919050565b6140ab81614091565b82525050565b5f6020820190506140c45f8301846140a2565b92915050565b5f6140d482613bda565b9050919050565b6140e4816140ca565b82525050565b5f6020820190506140fd5f8301846140db565b92915050565b5f6020828403121561411857614117613b10565b5b5f61412584828501613b5e565b91505092915050565b5f61413882613bda565b9050919050565b6141488161412e565b82525050565b5f6020820190506141615f83018461413f565b92915050565b5f8151905061417581613b48565b92915050565b5f602082840312156141905761418f613b10565b5b5f61419d84828501614167565b91505092915050565b5f82825260208201905092915050565b7f43616c6c6572206973206e6f7420746865206f776e65720000000000000000005f82015250565b5f6141ea6017836141a6565b91506141f5826141b6565b602082019050919050565b5f6020820190508181035f830152614217816141de565b9050919050565b5f81519050919050565b8281835e5f83830152505050565b5f6142408261421e565b61424a81856141a6565b935061425a818560208601614228565b61426381613d33565b840191505092915050565b5f6020820190508181035f8301526142868184614236565b905092915050565b5f819050919050565b6142a08161428e565b81146142aa575f5ffd5b50565b5f815190506142bb81614297565b92915050565b5f602082840312156142d6576142d5613b10565b5b5f6142e3848285016142ad565b91505092915050565b7f5265656e7472616e637947756172643a207265656e7472616e742063616c6c005f82015250565b5f614320601f836141a6565b915061432b826142ec565b602082019050919050565b5f6020820190508181035f83015261434d81614314565b9050919050565b7f4e487b71000000000000000000000000000000000000000000000000000000005f52603260045260245ffd5b5f61ffff82169050919050565b61439781614381565b81146143a1575f5ffd5b50565b5f813590506143b28161438e565b92915050565b5f602082840312156143cd576143cc613b10565b5b5f6143da848285016143a4565b91505092915050565b7f4e487b71000000000000000000000000000000000000000000000000000000005f52601260045260245ffd5b5f81519050919050565b5f82825260208201905092915050565b5f61443482614410565b61443e818561441a565b935061444e818560208601614228565b61445781613d33565b840191505092915050565b5f81519050919050565b5f82825260208201905092915050565b5f819050602082019050919050565b5f82825260208201905092915050565b5f6144a582614410565b6144af818561448b565b93506144bf818560208601614228565b6144c881613d33565b840191505092915050565b5f6144de838361449b565b905092915050565b5f602082019050919050565b5f6144fc82614462565b614506818561446c565b9350836020820285016145188561447c565b805f5b85811015614553578484038952815161453485826144d3565b945061453f836144e6565b925060208a0199505060018101905061451b565b50829750879550505050505092915050565b5f6040820190508181035f83015261457d818561442a565b9050818103602083015261459181846144f2565b90509392505050565b5f81905092915050565b50565b5f6145b25f8361459a565b91506145bd826145a4565b5f82019050919050565b5f6145d1826145a7565b9150819050919050565b6145e48161428e565b82525050565b5f6020820190506145fd5f8301846145db565b92915050565b7f4469726563746f72792063616e6e6f74206265207a65726f20616464726573735f82015250565b5f6146376020836141a6565b915061464282614603565b602082019050919050565b5f6020820190508181035f8301526146648161462b565b9050919050565b7f4469726563746f7279206d757374206265206120636f6e7472616374000000005f82015250565b5f61469f601c836141a6565b91506146aa8261466b565b602082019050919050565b5f6020820190508181035f8301526146cc81614693565b9050919050565b7f4469726563746f7279206164647265737320646f6573206e6f7420696d706c655f8201527f6d656e74206f776e657228290000000000000000000000000000000000000000602082015250565b5f61472d602c836141a6565b9150614738826146d3565b604082019050919050565b5f6020820190508181035f83015261475a81614721565b9050919050565b5f5ffd5b5f62ffffff82169050919050565b61477c81614765565b8114614786575f5ffd5b50565b5f8151905061479781614773565b92915050565b5f60ff82169050919050565b6147b28161479d565b81146147bc575f5ffd5b50565b5f815190506147cd816147a9565b92915050565b5f67ffffffffffffffff82169050919050565b6147ef816147d3565b81146147f9575f5ffd5b50565b5f8151905061480a816147e6565b92915050565b5f6080828403121561482557614824614761565b5b61482f6080613da1565b90505f61483e84828501614167565b5f83015250602061485184828501614789565b6020830152506040614865848285016147bf565b6040830152506060614879848285016147fc565b60608301525092915050565b5f6080828403121561489a57614899613b10565b5b5f6148a784828501614810565b91505092915050565b5f6040820190506148c35f830185613eae565b6148d060208301846145db565b9392505050565b5f6148e182614410565b6148eb818561459a565b93506148fb818560208601614228565b80840191505092915050565b5f61491282846148d7565b915081905092915050565b5f8151905061492b81613f71565b92915050565b5f6020828403121561494657614945613b10565b5b5f6149538482850161491d565b91505092915050565b7f5452414e534645525f4641494c454400000000000000000000000000000000005f82015250565b5f614990600f836141a6565b915061499b8261495c565b602082019050919050565b5f6020820190508181035f8301526149bd81614984565b9050919050565b5f6040820190506149d75f830185613eae565b6149e46020830184613eae565b9392505050565b6149f481614765565b82525050565b5f606082019050614a0d5f830186613eae565b614a1a6020830185613eae565b614a2760408301846149eb565b949350505050565b7f4e487b71000000000000000000000000000000000000000000000000000000005f52601160045260245ffd5b5f614a668261428e565b9150614a718361428e565b9250828203905081811115614a8957614a88614a2f565b5b92915050565b5f614a998261428e565b9150614aa48361428e565b9250828202614ab28161428e565b91508282048414831517614ac957614ac8614a2f565b5b5092915050565b5f614ada8261428e565b9150614ae58361428e565b925082614af557614af46143e3565b5b828204905092915050565b5f81519050919050565b5f82825260208201905092915050565b5f819050602082019050919050565b614b3281613c85565b82525050565b5f614b438383614b29565b60208301905092915050565b5f602082019050919050565b5f614b6582614b00565b614b6f8185614b0a565b9350614b7a83614b1a565b805f5b83811015614baa578151614b918882614b38565b9750614b9c83614b4f565b925050600181019050614b7d565b5085935050505092915050565b5f6020820190508181035f830152614bcf8184614b5b565b905092915050565b5f67ffffffffffffffff821115614bf157614bf0613d43565b5b602082029050602081019050919050565b5f8160060b9050919050565b614c1781614c02565b8114614c21575f5ffd5b50565b5f81519050614c3281614c0e565b92915050565b5f614c4a614c4584614bd7565b613da1565b90508083825260208201905060208402830185811115614c6d57614c6c613c2c565b5b835b81811015614c965780614c828882614c24565b845260208401935050602081019050614c6f565b5050509392505050565b5f82601f830112614cb457614cb3613c24565b5b8151614cc4848260208601614c38565b91505092915050565b5f67ffffffffffffffff821115614ce757614ce6613d43565b5b602082029050602081019050919050565b614d0181613b18565b8114614d0b575f5ffd5b50565b5f81519050614d1c81614cf8565b92915050565b5f614d34614d2f84614ccd565b613da1565b90508083825260208201905060208402830185811115614d5757614d56613c2c565b5b835b81811015614d805780614d6c8882614d0e565b845260208401935050602081019050614d59565b5050509392505050565b5f82601f830112614d9e57614d9d613c24565b5b8151614dae848260208601614d22565b91505092915050565b5f5f60408385031215614dcd57614dcc613b10565b5b5f83015167ffffffffffffffff811115614dea57614de9613b14565b5b614df685828601614ca0565b925050602083015167ffffffffffffffff811115614e1757614e16613b14565b5b614e2385828601614d8a565b9150509250929050565b5f8160020b9050919050565b614e4281614e2d565b8114614e4c575f5ffd5b50565b5f81519050614e5d81614e39565b92915050565b5f81519050614e718161438e565b92915050565b5f5f5f5f5f5f5f60e0888a031215614e9257614e91613b10565b5b5f614e9f8a828b01614d0e565b9750506020614eb08a828b01614e4f565b9650506040614ec18a828b01614e63565b9550506060614ed28a828b01614e63565b9450506080614ee38a828b01614e63565b93505060a0614ef48a828b016147bf565b92505060c0614f058a828b0161491d565b91505092959891949750929550565b5f8160601b9050919050565b5f614f2a82614f14565b9050919050565b5f614f3b82614f20565b9050919050565b614f53614f4e82613b37565b614f31565b82525050565b5f8160e81b9050919050565b5f614f6f82614f59565b9050919050565b614f87614f8282614765565b614f65565b82525050565b5f614f988286614f42565b601482019150614fa88285614f76565b600382019150614fb88284614f42565b601482019150819050949350505050565b614fd281613f66565b82525050565b5f60a082019050614feb5f830188613eae565b614ff860208301876145db565b61500560408301866145db565b8181036060830152615017818561442a565b90506150266080830184614fc9565b9695505050505050565b5f81519050919050565b5f82825260208201905092915050565b5f819050602082019050919050565b61506281613b37565b82525050565b5f6150738383615059565b60208301905092915050565b5f602082019050919050565b5f61509582615030565b61509f818561503a565b93506150aa8361504a565b805f5b838110156150da5781516150c18882615068565b97506150cc8361507f565b9250506001810190506150ad565b5085935050505092915050565b5f6040820190506150fa5f8301856145db565b818103602083015261510c818461508b565b90509392505050565b5f67ffffffffffffffff82111561512f5761512e613d43565b5b602082029050602081019050919050565b5f61515261514d84615115565b613da1565b9050808382526020820190506020840283018581111561517557615174613c2c565b5b835b8181101561519e578061518a88826142ad565b845260208401935050602081019050615177565b5050509392505050565b5f82601f8301126151bc576151bb613c24565b5b81516151cc848260208601615140565b91505092915050565b5f602082840312156151ea576151e9613b10565b5b5f82015167ffffffffffffffff81111561520757615206613b14565b5b615213848285016151a8565b91505092915050565b5f60a08201905061522f5f830188613eae565b61523c60208301876145db565b61524960408301866145db565b818103606083015261525b818561508b565b905061526a6080830184614fc9565b9695505050505050565b5f6060820190506152875f830186613eae565b6152946020830185613eae565b6152a160408301846145db565b949350505050565b7f5452414e534645525f46524f4d5f4641494c45440000000000000000000000005f82015250565b5f6152dd6014836141a6565b91506152e8826152a9565b602082019050919050565b5f6020820190508181035f83015261530a816152d1565b9050919050565b5f61531b82614c02565b915061532683614c02565b92508282039050667fffffffffffff81137fffffffffffffffffffffffffffffffffffffffffffffffffff800000000000008212171561536957615368614a2f565b5b92915050565b5f6060820190506153825f830186613eae565b61538f6020830185613eae565b61539c6040830184613eae565b949350505050565b5f65ffffffffffff82169050919050565b6153be816153a4565b81146153c8575f5ffd5b50565b5f815190506153d9816153b5565b92915050565b5f5f5f606084860312156153f6576153f5613b10565b5b5f61540386828701614d0e565b9350506020615414868287016153cb565b9250506040615425868287016153cb565b9150509250925092565b61543881613b18565b82525050565b615447816153a4565b82525050565b5f6080820190506154605f830187613eae565b61546d6020830186613eae565b61547a604083018561542f565b615487606083018461543e565b95945050505050565b7f42500000000000000000000000000000000000000000000000000000000000005f82015250565b5f6154c46002836141a6565b91506154cf82615490565b602082019050919050565b5f6020820190508181035f8301526154f1816154b8565b9050919050565b5f61550282614c02565b915061550d83614c02565b92508261551d5761551c6143e3565b5b60015f0383147fffffffffffffffffffffffffffffffffffffffffffffffffff800000000000008314161561555557615554614a2f565b5b828205905092915050565b5f61556a82614c02565b915061557583614c02565b925082615585576155846143e3565b5b828207905092915050565b5f819050919050565b5f6155a382615590565b91507f800000000000000000000000000000000000000000000000000000000000000082036155d5576155d4614a2f565b5b815f039050919050565b5f6155e982614e2d565b91507fffffffffffffffffffffffffffffffffffffffffffffffffffffffffff800000820361561b5761561a614a2f565b5b815f039050919050565b7f54000000000000000000000000000000000000000000000000000000000000005f82015250565b5f6156596001836141a6565b915061566482615625565b602082019050919050565b5f6020820190508181035f8301526156868161564d565b9050919050565b5f6156978261428e565b91506156a28361428e565b9250826156b2576156b16143e3565b5b828206905092915050565b5f6156c78261428e565b91506156d28361428e565b92508282019050808211156156ea576156e9614a2f565b5b92915050565b7f6d756c446976206f766572666c6f7700000000000000000000000000000000005f82015250565b5f615724600f836141a6565b915061572f826156f0565b602082019050919050565b5f6020820190508181035f83015261575181615718565b9050919050565b7f415050524f56455f4641494c45440000000000000000000000000000000000005f82015250565b5f61578c600e836141a6565b915061579782615758565b602082019050919050565b5f6020820190508181035f8301526157b981615780565b905091905056fea2646970667358221220a8813eb34d6a236f9554338a9184bf9154982a2da06a8ab360b686fe9ee1cdf064736f6c634300081e0033",
			"opcodes": "PUSH2 0x140 PUSH1 0x40 MSTORE CALLVALUE DUP1 ISZERO PUSH2 0x10 JUMPI PUSH0 PUSH0 REVERT JUMPDEST POP PUSH1 0x40 MLOAD PUSH2 0x610B CODESIZE SUB DUP1 PUSH2 0x610B DUP4 CODECOPY DUP2 DUP2 ADD PUSH1 0x40 MSTORE DUP2 ADD SWAP1 PUSH2 0x32 SWAP2 SWAP1 PUSH2 0x616 JUMP JUMPDEST DUP5 DUP5 DUP5 DUP5 DUP5 PUSH0 PUSH20 0xFFFFFFFFFFFFFFFFFFFFFFFFFFFFFFFFFFFFFFFF AND DUP4 PUSH20 0xFFFFFFFFFFFFFFFFFFFFFFFFFFFFFFFFFFFFFFFF AND SUB PUSH2 0x9C JUMPI PUSH1 0x40 MLOAD PUSH32 0xD92E233D00000000000000000000000000000000000000000000000000000000 DUP2 MSTORE PUSH1 0x4 ADD PUSH1 0x40 MLOAD DUP1 SWAP2 SUB SWAP1 REVERT JUMPDEST PUSH0 PUSH20 0xFFFFFFFFFFFFFFFFFFFFFFFFFFFFFFFFFFFFFFFF AND DUP5 PUSH20 0xFFFFFFFFFFFFFFFFFFFFFFFFFFFFFFFFFFFFFFFF AND SUB PUSH2 0x101 JUMPI PUSH1 0x40 MLOAD PUSH32 0xD92E233D00000000000000000000000000000000000000000000000000000000 DUP2 MSTORE PUSH1 0x4 ADD PUSH1 0x40 MLOAD DUP1 SWAP2 SUB SWAP1 REVERT JUMPDEST PUSH0 PUSH20 0xFFFFFFFFFFFFFFFFFFFFFFFFFFFFFFFFFFFFFFFF AND DUP3 PUSH20 0xFFFFFFFFFFFFFFFFFFFFFFFFFFFFFFFFFFFFFFFF AND SUB PUSH2 0x166 JUMPI PUSH1 0x40 MLOAD PUSH32 0xD92E233D00000000000000000000000000000000000000000000000000000000 DUP2 MSTORE PUSH1 0x4 ADD PUSH1 0x40 MLOAD DUP1 SWAP2 SUB SWAP1 REVERT JUMPDEST PUSH0 PUSH20 0xFFFFFFFFFFFFFFFFFFFFFFFFFFFFFFFFFFFFFFFF AND DUP2 PUSH20 0xFFFFFFFFFFFFFFFFFFFFFFFFFFFFFFFFFFFFFFFF AND SUB PUSH2 0x1CB JUMPI PUSH1 0x40 MLOAD PUSH32 0xD92E233D00000000000000000000000000000000000000000000000000000000 DUP2 MSTORE PUSH1 0x4 ADD PUSH1 0x40 MLOAD DUP1 SWAP2 SUB SWAP1 REVERT JUMPDEST DUP3 PUSH20 0xFFFFFFFFFFFFFFFFFFFFFFFFFFFFFFFFFFFFFFFF AND PUSH1 0xE0 DUP2 PUSH20 0xFFFFFFFFFFFFFFFFFFFFFFFFFFFFFFFFFFFFFFFF AND DUP2 MSTORE POP POP DUP4 PUSH20 0xFFFFFFFFFFFFFFFFFFFFFFFFFFFFFFFFFFFFFFFF AND PUSH2 0x100 DUP2 PUSH20 0xFFFFFFFFFFFFFFFFFFFFFFFFFFFFFFFFFFFFFFFF AND DUP2 MSTORE POP POP DUP2 PUSH20 0xFFFFFFFFFFFFFFFFFFFFFFFFFFFFFFFFFFFFFFFF AND PUSH2 0x120 DUP2 PUSH20 0xFFFFFFFFFFFFFFFFFFFFFFFFFFFFFFFFFFFFFFFF AND DUP2 MSTORE POP POP PUSH0 DUP5 PUSH20 0xFFFFFFFFFFFFFFFFFFFFFFFFFFFFFFFFFFFFFFFF AND PUSH4 0xAD5C4648 PUSH1 0x40 MLOAD DUP2 PUSH4 0xFFFFFFFF AND PUSH1 0xE0 SHL DUP2 MSTORE PUSH1 0x4 ADD PUSH1 0x20 PUSH1 0x40 MLOAD DUP1 DUP4 SUB DUP2 DUP7 GAS STATICCALL ISZERO DUP1 ISZERO PUSH2 0x2B3 JUMPI RETURNDATASIZE PUSH0 PUSH0 RETURNDATACOPY RETURNDATASIZE PUSH0 REVERT JUMPDEST POP POP POP POP PUSH1 0x40 MLOAD RETURNDATASIZE PUSH1 0x1F NOT PUSH1 0x1F DUP3 ADD AND DUP3 ADD DUP1 PUSH1 0x40 MSTORE POP DUP2 ADD SWAP1 PUSH2 0x2D7 SWAP2 SWAP1 PUSH2 0x68D JUMP JUMPDEST SWAP1 POP DUP1 PUSH20 0xFFFFFFFFFFFFFFFFFFFFFFFFFFFFFFFFFFFFFFFF AND PUSH1 0x80 DUP2 PUSH20 0xFFFFFFFFFFFFFFFFFFFFFFFFFFFFFFFFFFFFFFFF AND DUP2 MSTORE POP POP DUP5 PUSH20 0xFFFFFFFFFFFFFFFFFFFFFFFFFFFFFFFFFFFFFFFF AND PUSH4 0xC45A0155 PUSH1 0x40 MLOAD DUP2 PUSH4 0xFFFFFFFF AND PUSH1 0xE0 SHL DUP2 MSTORE PUSH1 0x4 ADD PUSH1 0x20 PUSH1 0x40 MLOAD DUP1 DUP4 SUB DUP2 DUP7 GAS STATICCALL ISZERO DUP1 ISZERO PUSH2 0x356 JUMPI RETURNDATASIZE PUSH0 PUSH0 RETURNDATACOPY RETURNDATASIZE PUSH0 REVERT JUMPDEST POP POP POP POP PUSH1 0x40 MLOAD RETURNDATASIZE PUSH1 0x1F NOT PUSH1 0x1F DUP3 ADD AND DUP3 ADD DUP1 PUSH1 0x40 MSTORE POP DUP2 ADD SWAP1 PUSH2 0x37A SWAP2 SWAP1 PUSH2 0x68D JUMP JUMPDEST PUSH20 0xFFFFFFFFFFFFFFFFFFFFFFFFFFFFFFFFFFFFFFFF AND PUSH1 0xC0 DUP2 PUSH20 0xFFFFFFFFFFFFFFFFFFFFFFFFFFFFFFFFFFFFFFFF AND DUP2 MSTORE POP POP DUP2 PUSH20 0xFFFFFFFFFFFFFFFFFFFFFFFFFFFFFFFFFFFFFFFF AND PUSH1 0xA0 DUP2 PUSH20 0xFFFFFFFFFFFFFFFFFFFFFFFFFFFFFFFFFFFFFFFF AND DUP2 MSTORE POP POP POP POP POP POP POP PUSH2 0x3F5 DUP2 PUSH2 0x407 PUSH1 0x20 SHL PUSH1 0x20 SHR JUMP JUMPDEST POP PUSH1 0x1 DUP1 DUP2 SWAP1 SSTORE POP POP POP POP POP POP PUSH2 0x826 JUMP JUMPDEST PUSH0 PUSH20 0xFFFFFFFFFFFFFFFFFFFFFFFFFFFFFFFFFFFFFFFF AND DUP2 PUSH20 0xFFFFFFFFFFFFFFFFFFFFFFFFFFFFFFFFFFFFFFFF AND SUB PUSH2 0x475 JUMPI PUSH1 0x40 MLOAD PUSH32 0x8C379A000000000000000000000000000000000000000000000000000000000 DUP2 MSTORE PUSH1 0x4 ADD PUSH2 0x46C SWAP1 PUSH2 0x712 JUMP JUMPDEST PUSH1 0x40 MLOAD DUP1 SWAP2 SUB SWAP1 REVERT JUMPDEST PUSH0 DUP2 PUSH20 0xFFFFFFFFFFFFFFFFFFFFFFFFFFFFFFFFFFFFFFFF AND EXTCODESIZE GT PUSH2 0x4CE JUMPI PUSH1 0x40 MLOAD PUSH32 0x8C379A000000000000000000000000000000000000000000000000000000000 DUP2 MSTORE PUSH1 0x4 ADD PUSH2 0x4C5 SWAP1 PUSH2 0x77A JUMP JUMPDEST PUSH1 0x40 MLOAD DUP1 SWAP2 SUB SWAP1 REVERT JUMPDEST DUP1 PUSH20 0xFFFFFFFFFFFFFFFFFFFFFFFFFFFFFFFFFFFFFFFF AND PUSH4 0x8DA5CB5B PUSH1 0x40 MLOAD DUP2 PUSH4 0xFFFFFFFF AND PUSH1 0xE0 SHL DUP2 MSTORE PUSH1 0x4 ADD PUSH1 0x20 PUSH1 0x40 MLOAD DUP1 DUP4 SUB DUP2 DUP7 GAS STATICCALL SWAP3 POP POP POP DUP1 ISZERO PUSH2 0x536 JUMPI POP PUSH1 0x40 MLOAD RETURNDATASIZE PUSH1 0x1F NOT PUSH1 0x1F DUP3 ADD AND DUP3 ADD DUP1 PUSH1 0x40 MSTORE POP DUP2 ADD SWAP1 PUSH2 0x533 SWAP2 SWAP1 PUSH2 0x68D JUMP JUMPDEST PUSH1 0x1 JUMPDEST PUSH2 0x575 JUMPI PUSH1 0x40 MLOAD PUSH32 0x8C379A000000000000000000000000000000000000000000000000000000000 DUP2 MSTORE PUSH1 0x4 ADD PUSH2 0x56C SWAP1 PUSH2 0x808 JUMP JUMPDEST PUSH1 0x40 MLOAD DUP1 SWAP2 SUB SWAP1 REVERT JUMPDEST DUP2 PUSH0 PUSH0 PUSH2 0x100 EXP DUP2 SLOAD DUP2 PUSH20 0xFFFFFFFFFFFFFFFFFFFFFFFFFFFFFFFFFFFFFFFF MUL NOT AND SWAP1 DUP4 PUSH20 0xFFFFFFFFFFFFFFFFFFFFFFFFFFFFFFFFFFFFFFFF AND MUL OR SWAP1 SSTORE POP POP POP JUMP JUMPDEST PUSH0 PUSH0 REVERT JUMPDEST PUSH0 PUSH20 0xFFFFFFFFFFFFFFFFFFFFFFFFFFFFFFFFFFFFFFFF DUP3 AND SWAP1 POP SWAP2 SWAP1 POP JUMP JUMPDEST PUSH0 PUSH2 0x5E5 DUP3 PUSH2 0x5BC JUMP JUMPDEST SWAP1 POP SWAP2 SWAP1 POP JUMP JUMPDEST PUSH2 0x5F5 DUP2 PUSH2 0x5DB JUMP JUMPDEST DUP2 EQ PUSH2 0x5FF JUMPI PUSH0 PUSH0 REVERT JUMPDEST POP JUMP JUMPDEST PUSH0 DUP2 MLOAD SWAP1 POP PUSH2 0x610 DUP2 PUSH2 0x5EC JUMP JUMPDEST SWAP3 SWAP2 POP POP JUMP JUMPDEST PUSH0 PUSH0 PUSH0 PUSH0 PUSH0 PUSH1 0xA0 DUP7 DUP9 SUB SLT ISZERO PUSH2 0x62F JUMPI PUSH2 0x62E PUSH2 0x5B8 JUMP JUMPDEST JUMPDEST PUSH0 PUSH2 0x63C DUP9 DUP3 DUP10 ADD PUSH2 0x602 JUMP JUMPDEST SWAP6 POP POP PUSH1 0x20 PUSH2 0x64D DUP9 DUP3 DUP10 ADD PUSH2 0x602 JUMP JUMPDEST SWAP5 POP POP PUSH1 0x40 PUSH2 0x65E DUP9 DUP3 DUP10 ADD PUSH2 0x602 JUMP JUMPDEST SWAP4 POP POP PUSH1 0x60 PUSH2 0x66F DUP9 DUP3 DUP10 ADD PUSH2 0x602 JUMP JUMPDEST SWAP3 POP POP PUSH1 0x80 PUSH2 0x680 DUP9 DUP3 DUP10 ADD PUSH2 0x602 JUMP JUMPDEST SWAP2 POP POP SWAP3 SWAP6 POP SWAP3 SWAP6 SWAP1 SWAP4 POP JUMP JUMPDEST PUSH0 PUSH1 0x20 DUP3 DUP5 SUB SLT ISZERO PUSH2 0x6A2 JUMPI PUSH2 0x6A1 PUSH2 0x5B8 JUMP JUMPDEST JUMPDEST PUSH0 PUSH2 0x6AF DUP5 DUP3 DUP6 ADD PUSH2 0x602 JUMP JUMPDEST SWAP2 POP POP SWAP3 SWAP2 POP POP JUMP JUMPDEST PUSH0 DUP3 DUP3 MSTORE PUSH1 0x20 DUP3 ADD SWAP1 POP SWAP3 SWAP2 POP POP JUMP JUMPDEST PUSH32 0x4469726563746F72792063616E6E6F74206265207A65726F2061646472657373 PUSH0 DUP3 ADD MSTORE POP JUMP JUMPDEST PUSH0 PUSH2 0x6FC PUSH1 0x20 DUP4 PUSH2 0x6B8 JUMP JUMPDEST SWAP2 POP PUSH2 0x707 DUP3 PUSH2 0x6C8 JUMP JUMPDEST PUSH1 0x20 DUP3 ADD SWAP1 POP SWAP2 SWAP1 POP JUMP JUMPDEST PUSH0 PUSH1 0x20 DUP3 ADD SWAP1 POP DUP2 DUP2 SUB PUSH0 DUP4 ADD MSTORE PUSH2 0x729 DUP2 PUSH2 0x6F0 JUMP JUMPDEST SWAP1 POP SWAP2 SWAP1 POP JUMP JUMPDEST PUSH32 0x4469726563746F7279206D757374206265206120636F6E747261637400000000 PUSH0 DUP3 ADD MSTORE POP JUMP JUMPDEST PUSH0 PUSH2 0x764 PUSH1 0x1C DUP4 PUSH2 0x6B8 JUMP JUMPDEST SWAP2 POP PUSH2 0x76F DUP3 PUSH2 0x730 JUMP JUMPDEST PUSH1 0x20 DUP3 ADD SWAP1 POP SWAP2 SWAP1 POP JUMP JUMPDEST PUSH0 PUSH1 0x20 DUP3 ADD SWAP1 POP DUP2 DUP2 SUB PUSH0 DUP4 ADD MSTORE PUSH2 0x791 DUP2 PUSH2 0x758 JUMP JUMPDEST SWAP1 POP SWAP2 SWAP1 POP JUMP JUMPDEST PUSH32 0x4469726563746F7279206164647265737320646F6573206E6F7420696D706C65 PUSH0 DUP3 ADD MSTORE PUSH32 0x6D656E74206F776E657228290000000000000000000000000000000000000000 PUSH1 0x20 DUP3 ADD MSTORE POP JUMP JUMPDEST PUSH0 PUSH2 0x7F2 PUSH1 0x2C DUP4 PUSH2 0x6B8 JUMP JUMPDEST SWAP2 POP PUSH2 0x7FD DUP3 PUSH2 0x798 JUMP JUMPDEST PUSH1 0x40 DUP3 ADD SWAP1 POP SWAP2 SWAP1 POP JUMP JUMPDEST PUSH0 PUSH1 0x20 DUP3 ADD SWAP1 POP DUP2 DUP2 SUB PUSH0 DUP4 ADD MSTORE PUSH2 0x81F DUP2 PUSH2 0x7E6 JUMP JUMPDEST SWAP1 POP SWAP2 SWAP1 POP JUMP JUMPDEST PUSH1 0x80 MLOAD PUSH1 0xA0 MLOAD PUSH1 0xC0 MLOAD PUSH1 0xE0 MLOAD PUSH2 0x100 MLOAD PUSH2 0x120 MLOAD PUSH2 0x57F6 PUSH2 0x915 PUSH0 CODECOPY PUSH0 DUP2 DUP2 PUSH2 0x8BC ADD MSTORE DUP2 DUP2 PUSH2 0xFE9 ADD MSTORE DUP2 DUP2 PUSH2 0x26CB ADD MSTORE PUSH2 0x2AF9 ADD MSTORE PUSH0 DUP2 DUP2 PUSH2 0xAE5 ADD MSTORE PUSH2 0x2929 ADD MSTORE PUSH0 DUP2 DUP2 PUSH2 0x904 ADD MSTORE PUSH2 0x2286 ADD MSTORE PUSH0 PUSH2 0x9BB ADD MSTORE PUSH0 DUP2 DUP2 PUSH2 0x3FA ADD MSTORE DUP2 DUP2 PUSH2 0x267F ADD MSTORE DUP2 DUP2 PUSH2 0x26A9 ADD MSTORE DUP2 DUP2 PUSH2 0x2AAD ADD MSTORE PUSH2 0x2AD7 ADD MSTORE PUSH0 DUP2 DUP2 PUSH2 0x575 ADD MSTORE DUP2 DUP2 PUSH2 0x5C6 ADD MSTORE DUP2 DUP2 PUSH2 0x789 ADD MSTORE DUP2 DUP2 PUSH2 0x85F ADD MSTORE DUP2 DUP2 PUSH2 0x898 ADD MSTORE DUP2 DUP2 PUSH2 0xB6F ADD MSTORE DUP2 DUP2 PUSH2 0x11E8 ADD MSTORE DUP2 DUP2 PUSH2 0x1A29 ADD MSTORE DUP2 DUP2 PUSH2 0x1A5C ADD MSTORE DUP2 DUP2 PUSH2 0x1A9B ADD MSTORE DUP2 DUP2 PUSH2 0x1AC9 ADD MSTORE DUP2 DUP2 PUSH2 0x1EEE ADD MSTORE DUP2 DUP2 PUSH2 0x2074 ADD MSTORE DUP2 DUP2 PUSH2 0x20A7 ADD MSTORE DUP2 DUP2 PUSH2 0x20E6 ADD MSTORE PUSH2 0x2114 ADD MSTORE PUSH2 0x57F6 PUSH0 RETURN INVALID PUSH1 0x80 PUSH1 0x40 MSTORE PUSH1 0x4 CALLDATASIZE LT PUSH2 0xC5 JUMPI PUSH0 CALLDATALOAD PUSH1 0xE0 SHR DUP1 PUSH4 0x5CF39049 GT PUSH2 0x7E JUMPI DUP1 PUSH4 0x8DA5CB5B GT PUSH2 0x58 JUMPI DUP1 PUSH4 0x8DA5CB5B EQ PUSH2 0x24A JUMPI DUP1 PUSH4 0xB4B57C39 EQ PUSH2 0x274 JUMPI DUP1 PUSH4 0xBA4C7BE1 EQ PUSH2 0x29E JUMPI DUP1 PUSH4 0xDEADBC14 EQ PUSH2 0x2C6 JUMPI PUSH2 0xCC JUMP JUMPDEST DUP1 PUSH4 0x5CF39049 EQ PUSH2 0x1CC JUMPI DUP1 PUSH4 0x658A847A EQ PUSH2 0x1F6 JUMPI DUP1 PUSH4 0x7C887C59 EQ PUSH2 0x220 JUMPI PUSH2 0xCC JUMP JUMPDEST DUP1 PUSH4 0x9053AC4 EQ PUSH2 0xD0 JUMPI DUP1 PUSH4 0x12261EE7 EQ PUSH2 0xF8 JUMPI DUP1 PUSH4 0x1623306B EQ PUSH2 0x122 JUMPI DUP1 PUSH4 0x27262618 EQ PUSH2 0x13E JUMPI DUP1 PUSH4 0x3814BC6E EQ PUSH2 0x17A JUMPI DUP1 PUSH4 0x4F0E0EF3 EQ PUSH2 0x1A2 JUMPI PUSH2 0xCC JUMP JUMPDEST CALLDATASIZE PUSH2 0xCC JUMPI STOP JUMPDEST PUSH0 PUSH0 REVERT JUMPDEST CALLVALUE DUP1 ISZERO PUSH2 0xDB JUMPI PUSH0 PUSH0 REVERT JUMPDEST POP PUSH2 0xF6 PUSH1 0x4 DUP1 CALLDATASIZE SUB DUP2 ADD SWAP1 PUSH2 0xF1 SWAP2 SWAP1 PUSH2 0x3B72 JUMP JUMPDEST PUSH2 0x2F0 JUMP JUMPDEST STOP JUMPDEST CALLVALUE DUP1 ISZERO PUSH2 0x103 JUMPI PUSH0 PUSH0 REVERT JUMPDEST POP PUSH2 0x10C PUSH2 0x3F8 JUMP JUMPDEST PUSH1 0x40 MLOAD PUSH2 0x119 SWAP2 SWAP1 PUSH2 0x3C0B JUMP JUMPDEST PUSH1 0x40 MLOAD DUP1 SWAP2 SUB SWAP1 RETURN JUMPDEST PUSH2 0x13C PUSH1 0x4 DUP1 CALLDATASIZE SUB DUP2 ADD SWAP1 PUSH2 0x137 SWAP2 SWAP1 PUSH2 0x3CBE JUMP JUMPDEST PUSH2 0x41C JUMP JUMPDEST STOP JUMPDEST CALLVALUE DUP1 ISZERO PUSH2 0x149 JUMPI PUSH0 PUSH0 REVERT JUMPDEST POP PUSH2 0x164 PUSH1 0x4 DUP1 CALLDATASIZE SUB DUP2 ADD SWAP1 PUSH2 0x15F SWAP2 SWAP1 PUSH2 0x3E67 JUMP JUMPDEST PUSH2 0x618 JUMP JUMPDEST PUSH1 0x40 MLOAD PUSH2 0x171 SWAP2 SWAP1 PUSH2 0x3EBD JUMP JUMPDEST PUSH1 0x40 MLOAD DUP1 SWAP2 SUB SWAP1 RETURN JUMPDEST CALLVALUE DUP1 ISZERO PUSH2 0x185 JUMPI PUSH0 PUSH0 REVERT JUMPDEST POP PUSH2 0x1A0 PUSH1 0x4 DUP1 CALLDATASIZE SUB DUP2 ADD SWAP1 PUSH2 0x19B SWAP2 SWAP1 PUSH2 0x3F9B JUMP JUMPDEST PUSH2 0x6B8 JUMP JUMPDEST STOP JUMPDEST CALLVALUE DUP1 ISZERO PUSH2 0x1AD JUMPI PUSH0 PUSH0 REVERT JUMPDEST POP PUSH2 0x1B6 PUSH2 0x896 JUMP JUMPDEST PUSH1 0x40 MLOAD PUSH2 0x1C3 SWAP2 SWAP1 PUSH2 0x3EBD JUMP JUMPDEST PUSH1 0x40 MLOAD DUP1 SWAP2 SUB SWAP1 RETURN JUMPDEST CALLVALUE DUP1 ISZERO PUSH2 0x1D7 JUMPI PUSH0 PUSH0 REVERT JUMPDEST POP PUSH2 0x1E0 PUSH2 0x8BA JUMP JUMPDEST PUSH1 0x40 MLOAD PUSH2 0x1ED SWAP2 SWAP1 PUSH2 0x403F JUMP JUMPDEST PUSH1 0x40 MLOAD DUP1 SWAP2 SUB SWAP1 RETURN JUMPDEST CALLVALUE DUP1 ISZERO PUSH2 0x201 JUMPI PUSH0 PUSH0 REVERT JUMPDEST POP PUSH2 0x20A PUSH2 0x8DE JUMP JUMPDEST PUSH1 0x40 MLOAD PUSH2 0x217 SWAP2 SWAP1 PUSH2 0x4078 JUMP JUMPDEST PUSH1 0x40 MLOAD DUP1 SWAP2 SUB SWAP1 RETURN JUMPDEST CALLVALUE DUP1 ISZERO PUSH2 0x22B JUMPI PUSH0 PUSH0 REVERT JUMPDEST POP PUSH2 0x234 PUSH2 0x902 JUMP JUMPDEST PUSH1 0x40 MLOAD PUSH2 0x241 SWAP2 SWAP1 PUSH2 0x40B1 JUMP JUMPDEST PUSH1 0x40 MLOAD DUP1 SWAP2 SUB SWAP1 RETURN JUMPDEST CALLVALUE DUP1 ISZERO PUSH2 0x255 JUMPI PUSH0 PUSH0 REVERT JUMPDEST POP PUSH2 0x25E PUSH2 0x926 JUMP JUMPDEST PUSH1 0x40 MLOAD PUSH2 0x26B SWAP2 SWAP1 PUSH2 0x3EBD JUMP JUMPDEST PUSH1 0x40 MLOAD DUP1 SWAP2 SUB SWAP1 RETURN JUMPDEST CALLVALUE DUP1 ISZERO PUSH2 0x27F JUMPI PUSH0 PUSH0 REVERT JUMPDEST POP PUSH2 0x288 PUSH2 0x9B9 JUMP JUMPDEST PUSH1 0x40 MLOAD PUSH2 0x295 SWAP2 SWAP1 PUSH2 0x40EA JUMP JUMPDEST PUSH1 0x40 MLOAD DUP1 SWAP2 SUB SWAP1 RETURN JUMPDEST CALLVALUE DUP1 ISZERO PUSH2 0x2A9 JUMPI PUSH0 PUSH0 REVERT JUMPDEST POP PUSH2 0x2C4 PUSH1 0x4 DUP1 CALLDATASIZE SUB DUP2 ADD SWAP1 PUSH2 0x2BF SWAP2 SWAP1 PUSH2 0x4103 JUMP JUMPDEST PUSH2 0x9DD JUMP JUMPDEST STOP JUMPDEST CALLVALUE DUP1 ISZERO PUSH2 0x2D1 JUMPI PUSH0 PUSH0 REVERT JUMPDEST POP PUSH2 0x2DA PUSH2 0xAE3 JUMP JUMPDEST PUSH1 0x40 MLOAD PUSH2 0x2E7 SWAP2 SWAP1 PUSH2 0x414E JUMP JUMPDEST PUSH1 0x40 MLOAD DUP1 SWAP2 SUB SWAP1 RETURN JUMPDEST PUSH0 PUSH0 SWAP1 SLOAD SWAP1 PUSH2 0x100 EXP SWAP1 DIV PUSH20 0xFFFFFFFFFFFFFFFFFFFFFFFFFFFFFFFFFFFFFFFF AND PUSH20 0xFFFFFFFFFFFFFFFFFFFFFFFFFFFFFFFFFFFFFFFF AND PUSH4 0x8DA5CB5B PUSH1 0x40 MLOAD DUP2 PUSH4 0xFFFFFFFF AND PUSH1 0xE0 SHL DUP2 MSTORE PUSH1 0x4 ADD PUSH1 0x20 PUSH1 0x40 MLOAD DUP1 DUP4 SUB DUP2 DUP7 GAS STATICCALL ISZERO DUP1 ISZERO PUSH2 0x359 JUMPI RETURNDATASIZE PUSH0 PUSH0 RETURNDATACOPY RETURNDATASIZE PUSH0 REVERT JUMPDEST POP POP POP POP PUSH1 0x40 MLOAD RETURNDATASIZE PUSH1 0x1F NOT PUSH1 0x1F DUP3 ADD AND DUP3 ADD DUP1 PUSH1 0x40 MSTORE POP DUP2 ADD SWAP1 PUSH2 0x37D SWAP2 SWAP1 PUSH2 0x417B JUMP JUMPDEST PUSH20 0xFFFFFFFFFFFFFFFFFFFFFFFFFFFFFFFFFFFFFFFF AND CALLER PUSH20 0xFFFFFFFFFFFFFFFFFFFFFFFFFFFFFFFFFFFFFFFF AND EQ PUSH2 0x3EA JUMPI PUSH1 0x40 MLOAD PUSH32 0x8C379A000000000000000000000000000000000000000000000000000000000 DUP2 MSTORE PUSH1 0x4 ADD PUSH2 0x3E1 SWAP1 PUSH2 0x4200 JUMP JUMPDEST PUSH1 0x40 MLOAD DUP1 SWAP2 SUB SWAP1 REVERT JUMPDEST PUSH2 0x3F4 DUP3 DUP3 PUSH2 0xB07 JUMP JUMPDEST POP POP JUMP JUMPDEST PUSH32 0x0 DUP2 JUMP JUMPDEST PUSH2 0x424 PUSH2 0xB15 JUMP JUMPDEST PUSH0 PUSH20 0xFFFFFFFFFFFFFFFFFFFFFFFFFFFFFFFFFFFFFFFF AND DUP3 PUSH20 0xFFFFFFFFFFFFFFFFFFFFFFFFFFFFFFFFFFFFFFFF AND SUB PUSH2 0x489 JUMPI PUSH1 0x40 MLOAD PUSH32 0xD92E233D00000000000000000000000000000000000000000000000000000000 DUP2 MSTORE PUSH1 0x4 ADD PUSH1 0x40 MLOAD DUP1 SWAP2 SUB SWAP1 REVERT JUMPDEST PUSH0 CALLVALUE SWAP1 POP PUSH0 DUP6 DUP6 SWAP1 POP SUB PUSH2 0x4C9 JUMPI PUSH1 0x40 MLOAD PUSH32 0xB4FA3FB300000000000000000000000000000000000000000000000000000000 DUP2 MSTORE PUSH1 0x4 ADD PUSH1 0x40 MLOAD DUP1 SWAP2 SUB SWAP1 REVERT JUMPDEST PUSH0 DUP2 SUB PUSH2 0x502 JUMPI PUSH1 0x40 MLOAD PUSH32 0xB4FA3FB300000000000000000000000000000000000000000000000000000000 DUP2 MSTORE PUSH1 0x4 ADD PUSH1 0x40 MLOAD DUP1 SWAP2 SUB SWAP1 REVERT JUMPDEST PUSH0 PUSH2 0x510 DUP7 DUP7 DUP7 DUP7 DUP7 PUSH2 0xB64 JUMP JUMPDEST SWAP1 POP PUSH0 DUP2 PUSH1 0x80 ADD MLOAD SWAP1 POP PUSH0 DUP2 EQ DUP1 PUSH2 0x529 JUMPI POP PUSH2 0x2710 DUP2 GT JUMPDEST ISZERO PUSH2 0x560 JUMPI PUSH1 0x40 MLOAD PUSH32 0x124955FB00000000000000000000000000000000000000000000000000000000 DUP2 MSTORE PUSH1 0x4 ADD PUSH1 0x40 MLOAD DUP1 SWAP2 SUB SWAP1 REVERT JUMPDEST PUSH0 DUP3 PUSH1 0x60 ADD MLOAD SWAP1 POP PUSH0 DUP2 GT ISZERO PUSH2 0x59B JUMPI PUSH2 0x59A PUSH32 0x0 DUP3 PUSH2 0xE60 JUMP JUMPDEST JUMPDEST PUSH2 0x5B1 DUP4 PUSH0 ADD MLOAD DUP5 PUSH1 0x20 ADD MLOAD DUP6 PUSH1 0x40 ADD MLOAD PUSH2 0xEFB JUMP JUMPDEST PUSH0 DUP4 PUSH1 0xA0 ADD MLOAD SWAP1 POP PUSH0 DUP2 GT ISZERO PUSH2 0x5ED JUMPI PUSH2 0x5EC PUSH32 0x0 DUP9 DUP4 PUSH2 0x1074 JUMP JUMPDEST JUMPDEST PUSH0 SELFBALANCE SWAP1 POP PUSH0 DUP2 GT ISZERO PUSH2 0x604 JUMPI PUSH2 0x603 CALLER DUP3 PUSH2 0x10BD JUMP JUMPDEST JUMPDEST POP POP POP POP POP POP PUSH2 0x612 PUSH2 0x11D4 JUMP JUMPDEST POP POP POP POP JUMP JUMPDEST PUSH0 PUSH0 PUSH0 SWAP1 SLOAD SWAP1 PUSH2 0x100 EXP SWAP1 DIV PUSH20 0xFFFFFFFFFFFFFFFFFFFFFFFFFFFFFFFFFFFFFFFF AND PUSH20 0xFFFFFFFFFFFFFFFFFFFFFFFFFFFFFFFFFFFFFFFF AND PUSH4 0x27262618 DUP4 PUSH1 0x40 MLOAD DUP3 PUSH4 0xFFFFFFFF AND PUSH1 0xE0 SHL DUP2 MSTORE PUSH1 0x4 ADD PUSH2 0x672 SWAP2 SWAP1 PUSH2 0x426E JUMP JUMPDEST PUSH1 0x20 PUSH1 0x40 MLOAD DUP1 DUP4 SUB DUP2 DUP7 GAS STATICCALL ISZERO DUP1 ISZERO PUSH2 0x68D JUMPI RETURNDATASIZE PUSH0 PUSH0 RETURNDATACOPY RETURNDATASIZE PUSH0 REVERT JUMPDEST POP POP POP POP PUSH1 0x40 MLOAD RETURNDATASIZE PUSH1 0x1F NOT PUSH1 0x1F DUP3 ADD AND DUP3 ADD DUP1 PUSH1 0x40 MSTORE POP DUP2 ADD SWAP1 PUSH2 0x6B1 SWAP2 SWAP1 PUSH2 0x417B JUMP JUMPDEST SWAP1 POP SWAP2 SWAP1 POP JUMP JUMPDEST PUSH2 0x6C0 PUSH2 0xB15 JUMP JUMPDEST PUSH0 PUSH20 0xFFFFFFFFFFFFFFFFFFFFFFFFFFFFFFFFFFFFFFFF AND DUP4 PUSH20 0xFFFFFFFFFFFFFFFFFFFFFFFFFFFFFFFFFFFFFFFF AND SUB PUSH2 0x725 JUMPI PUSH1 0x40 MLOAD PUSH32 0xD92E233D00000000000000000000000000000000000000000000000000000000 DUP2 MSTORE PUSH1 0x4 ADD PUSH1 0x40 MLOAD DUP1 SWAP2 SUB SWAP1 REVERT JUMPDEST PUSH0 DUP6 DUP6 SWAP1 POP SUB PUSH2 0x761 JUMPI PUSH1 0x40 MLOAD PUSH32 0xB4FA3FB300000000000000000000000000000000000000000000000000000000 DUP2 MSTORE PUSH1 0x4 ADD PUSH1 0x40 MLOAD DUP1 SWAP2 SUB SWAP1 REVERT JUMPDEST PUSH0 PUSH2 0x76E DUP7 DUP7 DUP6 DUP6 PUSH2 0x11DD JUMP JUMPDEST SWAP1 POP PUSH2 0x786 DUP2 PUSH0 ADD MLOAD DUP3 PUSH1 0x20 ADD MLOAD DUP4 PUSH1 0x40 ADD MLOAD PUSH2 0xEFB JUMP JUMPDEST PUSH0 PUSH32 0x0 PUSH20 0xFFFFFFFFFFFFFFFFFFFFFFFFFFFFFFFFFFFFFFFF AND PUSH4 0x70A08231 ADDRESS PUSH1 0x40 MLOAD DUP3 PUSH4 0xFFFFFFFF AND PUSH1 0xE0 SHL DUP2 MSTORE PUSH1 0x4 ADD PUSH2 0x7E0 SWAP2 SWAP1 PUSH2 0x3EBD JUMP JUMPDEST PUSH1 0x20 PUSH1 0x40 MLOAD DUP1 DUP4 SUB DUP2 DUP7 GAS STATICCALL ISZERO DUP1 ISZERO PUSH2 0x7FB JUMPI RETURNDATASIZE PUSH0 PUSH0 RETURNDATACOPY RETURNDATASIZE PUSH0 REVERT JUMPDEST POP POP POP POP PUSH1 0x40 MLOAD RETURNDATASIZE PUSH1 0x1F NOT PUSH1 0x1F DUP3 ADD AND DUP3 ADD DUP1 PUSH1 0x40 MSTORE POP DUP2 ADD SWAP1 PUSH2 0x81F SWAP2 SWAP1 PUSH2 0x42C1 JUMP JUMPDEST SWAP1 POP PUSH0 DUP2 SUB PUSH2 0x85A JUMPI PUSH1 0x40 MLOAD PUSH32 0xABFF335A00000000000000000000000000000000000000000000000000000000 DUP2 MSTORE PUSH1 0x4 ADD PUSH1 0x40 MLOAD DUP1 SWAP2 SUB SWAP1 REVERT JUMPDEST PUSH2 0x885 PUSH32 0x0 DUP3 DUP8 PUSH2 0x1570 JUMP JUMPDEST POP POP PUSH2 0x88F PUSH2 0x11D4 JUMP JUMPDEST POP POP POP POP POP JUMP JUMPDEST PUSH32 0x0 DUP2 JUMP JUMPDEST PUSH32 0x0 DUP2 JUMP JUMPDEST PUSH0 PUSH0 SWAP1 SLOAD SWAP1 PUSH2 0x100 EXP SWAP1 DIV PUSH20 0xFFFFFFFFFFFFFFFFFFFFFFFFFFFFFFFFFFFFFFFF AND DUP2 JUMP JUMPDEST PUSH32 0x0 DUP2 JUMP JUMPDEST PUSH0 PUSH0 PUSH0 SWAP1 SLOAD SWAP1 PUSH2 0x100 EXP SWAP1 DIV PUSH20 0xFFFFFFFFFFFFFFFFFFFFFFFFFFFFFFFFFFFFFFFF AND PUSH20 0xFFFFFFFFFFFFFFFFFFFFFFFFFFFFFFFFFFFFFFFF AND PUSH4 0x8DA5CB5B PUSH1 0x40 MLOAD DUP2 PUSH4 0xFFFFFFFF AND PUSH1 0xE0 SHL DUP2 MSTORE PUSH1 0x4 ADD PUSH1 0x20 PUSH1 0x40 MLOAD DUP1 DUP4 SUB DUP2 DUP7 GAS STATICCALL ISZERO DUP1 ISZERO PUSH2 0x990 JUMPI RETURNDATASIZE PUSH0 PUSH0 RETURNDATACOPY RETURNDATASIZE PUSH0 REVERT JUMPDEST POP POP POP POP PUSH1 0x40 MLOAD RETURNDATASIZE PUSH1 0x1F NOT PUSH1 0x1F DUP3 ADD AND DUP3 ADD DUP1 PUSH1 0x40 MSTORE POP DUP2 ADD SWAP1 PUSH2 0x9B4 SWAP2 SWAP1 PUSH2 0x417B JUMP JUMPDEST SWAP1 POP SWAP1 JUMP JUMPDEST PUSH32 0x0 DUP2 JUMP JUMPDEST PUSH0 PUSH0 SWAP1 SLOAD SWAP1 PUSH2 0x100 EXP SWAP1 DIV PUSH20 0xFFFFFFFFFFFFFFFFFFFFFFFFFFFFFFFFFFFFFFFF AND PUSH20 0xFFFFFFFFFFFFFFFFFFFFFFFFFFFFFFFFFFFFFFFF AND PUSH4 0x8DA5CB5B PUSH1 0x40 MLOAD DUP2 PUSH4 0xFFFFFFFF AND PUSH1 0xE0 SHL DUP2 MSTORE PUSH1 0x4 ADD PUSH1 0x20 PUSH1 0x40 MLOAD DUP1 DUP4 SUB DUP2 DUP7 GAS STATICCALL ISZERO DUP1 ISZERO PUSH2 0xA46 JUMPI RETURNDATASIZE PUSH0 PUSH0 RETURNDATACOPY RETURNDATASIZE PUSH0 REVERT JUMPDEST POP POP POP POP PUSH1 0x40 MLOAD RETURNDATASIZE PUSH1 0x1F NOT PUSH1 0x1F DUP3 ADD AND DUP3 ADD DUP1 PUSH1 0x40 MSTORE POP DUP2 ADD SWAP1 PUSH2 0xA6A SWAP2 SWAP1 PUSH2 0x417B JUMP JUMPDEST PUSH20 0xFFFFFFFFFFFFFFFFFFFFFFFFFFFFFFFFFFFFFFFF AND CALLER PUSH20 0xFFFFFFFFFFFFFFFFFFFFFFFFFFFFFFFFFFFFFFFF AND EQ PUSH2 0xAD7 JUMPI PUSH1 0x40 MLOAD PUSH32 0x8C379A000000000000000000000000000000000000000000000000000000000 DUP2 MSTORE PUSH1 0x4 ADD PUSH2 0xACE SWAP1 PUSH2 0x4200 JUMP JUMPDEST PUSH1 0x40 MLOAD DUP1 SWAP2 SUB SWAP1 REVERT JUMPDEST PUSH2 0xAE0 DUP2 PUSH2 0x167B JUMP JUMPDEST POP JUMP JUMPDEST PUSH32 0x0 DUP2 JUMP JUMPDEST PUSH2 0xB11 DUP3 DUP3 PUSH2 0x182C JUMP JUMPDEST POP POP JUMP JUMPDEST PUSH1 0x2 PUSH1 0x1 SLOAD SUB PUSH2 0xB5A JUMPI PUSH1 0x40 MLOAD PUSH32 0x8C379A000000000000000000000000000000000000000000000000000000000 DUP2 MSTORE PUSH1 0x4 ADD PUSH2 0xB51 SWAP1 PUSH2 0x4336 JUMP JUMPDEST PUSH1 0x40 MLOAD DUP1 SWAP2 SUB SWAP1 REVERT JUMPDEST PUSH1 0x2 PUSH1 0x1 DUP2 SWAP1 SSTORE POP JUMP JUMPDEST PUSH2 0xB6C PUSH2 0x3AB5 JUMP JUMPDEST PUSH0 PUSH32 0x0 SWAP1 POP PUSH0 DUP8 DUP8 SWAP1 POP SWAP1 POP DUP1 PUSH8 0xFFFFFFFFFFFFFFFF DUP2 GT ISZERO PUSH2 0xBB1 JUMPI PUSH2 0xBB0 PUSH2 0x3D43 JUMP JUMPDEST JUMPDEST PUSH1 0x40 MLOAD SWAP1 DUP1 DUP3 MSTORE DUP1 PUSH1 0x20 MUL PUSH1 0x20 ADD DUP3 ADD PUSH1 0x40 MSTORE DUP1 ISZERO PUSH2 0xBE4 JUMPI DUP2 PUSH1 0x20 ADD JUMPDEST PUSH1 0x60 DUP2 MSTORE PUSH1 0x20 ADD SWAP1 PUSH1 0x1 SWAP1 SUB SWAP1 DUP2 PUSH2 0xBCF JUMPI SWAP1 POP JUMPDEST POP DUP4 PUSH1 0x20 ADD DUP2 SWAP1 MSTORE POP DUP1 PUSH8 0xFFFFFFFFFFFFFFFF DUP2 GT ISZERO PUSH2 0xC07 JUMPI PUSH2 0xC06 PUSH2 0x3D43 JUMP JUMPDEST JUMPDEST PUSH1 0x40 MLOAD SWAP1 DUP1 DUP3 MSTORE DUP1 PUSH1 0x1F ADD PUSH1 0x1F NOT AND PUSH1 0x20 ADD DUP3 ADD PUSH1 0x40 MSTORE DUP1 ISZERO PUSH2 0xC39 JUMPI DUP2 PUSH1 0x20 ADD PUSH1 0x1 DUP3 MUL DUP1 CALLDATASIZE DUP4 CALLDATACOPY DUP1 DUP3 ADD SWAP2 POP POP SWAP1 POP JUMPDEST POP DUP4 PUSH0 ADD DUP2 SWAP1 MSTORE POP PUSH0 PUSH0 SWAP1 POP JUMPDEST DUP2 DUP2 LT ISZERO PUSH2 0xE54 JUMPI PUSH0 DUP10 DUP10 DUP4 DUP2 DUP2 LT PUSH2 0xC62 JUMPI PUSH2 0xC61 PUSH2 0x4354 JUMP JUMPDEST JUMPDEST SWAP1 POP PUSH1 0x40 MUL ADD PUSH0 ADD PUSH1 0x20 DUP2 ADD SWAP1 PUSH2 0xC79 SWAP2 SWAP1 PUSH2 0x4103 JUMP JUMPDEST SWAP1 POP PUSH0 PUSH20 0xFFFFFFFFFFFFFFFFFFFFFFFFFFFFFFFFFFFFFFFF AND DUP2 PUSH20 0xFFFFFFFFFFFFFFFFFFFFFFFFFFFFFFFFFFFFFFFF AND SUB PUSH2 0xCE0 JUMPI PUSH1 0x40 MLOAD PUSH32 0x7401D93100000000000000000000000000000000000000000000000000000000 DUP2 MSTORE PUSH1 0x4 ADD PUSH1 0x40 MLOAD DUP1 SWAP2 SUB SWAP1 REVERT JUMPDEST PUSH0 DUP11 DUP11 DUP5 DUP2 DUP2 LT PUSH2 0xCF4 JUMPI PUSH2 0xCF3 PUSH2 0x4354 JUMP JUMPDEST JUMPDEST SWAP1 POP PUSH1 0x40 MUL ADD PUSH1 0x20 ADD PUSH1 0x20 DUP2 ADD SWAP1 PUSH2 0xD0C SWAP2 SWAP1 PUSH2 0x43B8 JUMP JUMPDEST PUSH2 0xFFFF AND SWAP1 POP DUP1 DUP7 PUSH1 0x80 ADD DUP2 DUP2 MLOAD ADD SWAP2 POP DUP2 DUP2 MSTORE POP POP PUSH0 DUP2 SUB PUSH2 0xD30 JUMPI POP POP PUSH2 0xE49 JUMP JUMPDEST PUSH0 PUSH2 0x2710 DUP3 DUP10 MUL DUP2 PUSH2 0xD45 JUMPI PUSH2 0xD44 PUSH2 0x43E3 JUMP JUMPDEST JUMPDEST DIV SWAP1 POP PUSH0 DUP2 SUB PUSH2 0xD57 JUMPI POP POP POP PUSH2 0xE49 JUMP JUMPDEST DUP1 DUP8 PUSH1 0x60 ADD DUP2 DUP2 MLOAD ADD SWAP2 POP DUP2 DUP2 MSTORE POP POP DUP6 PUSH20 0xFFFFFFFFFFFFFFFFFFFFFFFFFFFFFFFFFFFFFFFF AND DUP4 PUSH20 0xFFFFFFFFFFFFFFFFFFFFFFFFFFFFFFFFFFFFFFFF AND SUB PUSH2 0xDB2 JUMPI DUP1 DUP8 PUSH1 0xA0 ADD DUP2 DUP2 MLOAD ADD SWAP2 POP DUP2 DUP2 MSTORE POP POP POP POP POP PUSH2 0xE49 JUMP JUMPDEST PUSH0 PUSH0 PUSH2 0xDC0 DUP6 DUP5 DUP15 DUP15 PUSH2 0x1903 JUMP JUMPDEST SWAP2 POP SWAP2 POP DUP2 DUP10 PUSH0 ADD MLOAD DUP11 PUSH1 0x40 ADD MLOAD DUP2 MLOAD DUP2 LT PUSH2 0xDDF JUMPI PUSH2 0xDDE PUSH2 0x4354 JUMP JUMPDEST JUMPDEST PUSH1 0x20 ADD ADD SWAP1 PUSH31 0xFFFFFFFFFFFFFFFFFFFFFFFFFFFFFFFFFFFFFFFFFFFFFFFFFFFFFFFFFFFFFF NOT AND SWAP1 DUP2 PUSH0 BYTE SWAP1 MSTORE8 POP DUP1 DUP10 PUSH1 0x20 ADD MLOAD DUP11 PUSH1 0x40 ADD MLOAD DUP2 MLOAD DUP2 LT PUSH2 0xE29 JUMPI PUSH2 0xE28 PUSH2 0x4354 JUMP JUMPDEST JUMPDEST PUSH1 0x20 MUL PUSH1 0x20 ADD ADD DUP2 SWAP1 MSTORE POP DUP9 PUSH1 0x40 ADD DUP1 MLOAD PUSH1 0x1 ADD SWAP1 DUP2 DUP2 MSTORE POP POP POP POP POP POP POP JUMPDEST DUP1 PUSH1 0x1 ADD SWAP1 POP PUSH2 0xC46 JUMP JUMPDEST POP POP POP SWAP6 SWAP5 POP POP POP POP POP JUMP JUMPDEST DUP1 SELFBALANCE LT ISZERO PUSH2 0xE9A JUMPI PUSH1 0x40 MLOAD PUSH32 0x6A12F10400000000000000000000000000000000000000000000000000000000 DUP2 MSTORE PUSH1 0x4 ADD PUSH1 0x40 MLOAD DUP1 SWAP2 SUB SWAP1 REVERT JUMPDEST DUP2 PUSH20 0xFFFFFFFFFFFFFFFFFFFFFFFFFFFFFFFFFFFFFFFF AND PUSH4 0xD0E30DB0 DUP3 PUSH1 0x40 MLOAD DUP3 PUSH4 0xFFFFFFFF AND PUSH1 0xE0 SHL DUP2 MSTORE PUSH1 0x4 ADD PUSH0 PUSH1 0x40 MLOAD DUP1 DUP4 SUB DUP2 DUP6 DUP9 DUP1 EXTCODESIZE ISZERO DUP1 ISZERO PUSH2 0xEE0 JUMPI PUSH0 PUSH0 REVERT JUMPDEST POP GAS CALL ISZERO DUP1 ISZERO PUSH2 0xEF2 JUMPI RETURNDATASIZE PUSH0 PUSH0 RETURNDATACOPY RETURNDATASIZE PUSH0 REVERT JUMPDEST POP POP POP POP POP POP POP JUMP JUMPDEST PUSH0 DUP2 SUB PUSH2 0xF34 JUMPI PUSH1 0x40 MLOAD PUSH32 0xABFF335A00000000000000000000000000000000000000000000000000000000 DUP2 MSTORE PUSH1 0x4 ADD PUSH1 0x40 MLOAD DUP1 SWAP2 SUB SWAP1 REVERT JUMPDEST DUP1 DUP3 MLOAD EQ PUSH2 0xFE4 JUMPI PUSH0 DUP2 PUSH8 0xFFFFFFFFFFFFFFFF DUP2 GT ISZERO PUSH2 0xF57 JUMPI PUSH2 0xF56 PUSH2 0x3D43 JUMP JUMPDEST JUMPDEST PUSH1 0x40 MLOAD SWAP1 DUP1 DUP3 MSTORE DUP1 PUSH1 0x20 MUL PUSH1 0x20 ADD DUP3 ADD PUSH1 0x40 MSTORE DUP1 ISZERO PUSH2 0xF8A JUMPI DUP2 PUSH1 0x20 ADD JUMPDEST PUSH1 0x60 DUP2 MSTORE PUSH1 0x20 ADD SWAP1 PUSH1 0x1 SWAP1 SUB SWAP1 DUP2 PUSH2 0xF75 JUMPI SWAP1 POP JUMPDEST POP SWAP1 POP PUSH0 PUSH0 SWAP1 POP JUMPDEST DUP3 DUP2 LT ISZERO PUSH2 0xFDE JUMPI DUP4 DUP2 DUP2 MLOAD DUP2 LT PUSH2 0xFAD JUMPI PUSH2 0xFAC PUSH2 0x4354 JUMP JUMPDEST JUMPDEST PUSH1 0x20 MUL PUSH1 0x20 ADD ADD MLOAD DUP3 DUP3 DUP2 MLOAD DUP2 LT PUSH2 0xFC8 JUMPI PUSH2 0xFC7 PUSH2 0x4354 JUMP JUMPDEST JUMPDEST PUSH1 0x20 MUL PUSH1 0x20 ADD ADD DUP2 SWAP1 MSTORE POP DUP1 PUSH1 0x1 ADD SWAP1 POP PUSH2 0xF92 JUMP JUMPDEST POP DUP1 SWAP3 POP POP JUMPDEST DUP1 DUP4 MSTORE PUSH32 0x0 PUSH20 0xFFFFFFFFFFFFFFFFFFFFFFFFFFFFFFFFFFFFFFFF AND PUSH4 0x24856BC3 DUP5 DUP5 PUSH1 0x40 MLOAD DUP4 PUSH4 0xFFFFFFFF AND PUSH1 0xE0 SHL DUP2 MSTORE PUSH1 0x4 ADD PUSH2 0x1042 SWAP3 SWAP2 SWAP1 PUSH2 0x4565 JUMP JUMPDEST PUSH0 PUSH1 0x40 MLOAD DUP1 DUP4 SUB DUP2 PUSH0 DUP8 DUP1 EXTCODESIZE ISZERO DUP1 ISZERO PUSH2 0x1059 JUMPI PUSH0 PUSH0 REVERT JUMPDEST POP GAS CALL ISZERO DUP1 ISZERO PUSH2 0x106B JUMPI RETURNDATASIZE PUSH0 PUSH0 RETURNDATACOPY RETURNDATASIZE PUSH0 REVERT JUMPDEST POP POP POP POP POP POP POP JUMP JUMPDEST PUSH0 DUP2 SUB PUSH2 0x10AD JUMPI PUSH1 0x40 MLOAD PUSH32 0x1F2A200500000000000000000000000000000000000000000000000000000000 DUP2 MSTORE PUSH1 0x4 ADD PUSH1 0x40 MLOAD DUP1 SWAP2 SUB SWAP1 REVERT JUMPDEST PUSH2 0x10B8 DUP4 DUP4 DUP4 PUSH2 0x1B07 JUMP JUMPDEST POP POP POP JUMP JUMPDEST PUSH0 DUP2 SUB PUSH2 0x10F6 JUMPI PUSH1 0x40 MLOAD PUSH32 0x1F2A200500000000000000000000000000000000000000000000000000000000 DUP2 MSTORE PUSH1 0x4 ADD PUSH1 0x40 MLOAD DUP1 SWAP2 SUB SWAP1 REVERT JUMPDEST DUP1 SELFBALANCE LT ISZERO PUSH2 0x1130 JUMPI PUSH1 0x40 MLOAD PUSH32 0x6A12F10400000000000000000000000000000000000000000000000000000000 DUP2 MSTORE PUSH1 0x4 ADD PUSH1 0x40 MLOAD DUP1 SWAP2 SUB SWAP1 REVERT JUMPDEST PUSH0 DUP3 PUSH20 0xFFFFFFFFFFFFFFFFFFFFFFFFFFFFFFFFFFFFFFFF AND DUP3 PUSH1 0x40 MLOAD PUSH2 0x1155 SWAP1 PUSH2 0x45C7 JUMP JUMPDEST PUSH0 PUSH1 0x40 MLOAD DUP1 DUP4 SUB DUP2 DUP6 DUP8 GAS CALL SWAP3 POP POP POP RETURNDATASIZE DUP1 PUSH0 DUP2 EQ PUSH2 0x118F JUMPI PUSH1 0x40 MLOAD SWAP2 POP PUSH1 0x1F NOT PUSH1 0x3F RETURNDATASIZE ADD AND DUP3 ADD PUSH1 0x40 MSTORE RETURNDATASIZE DUP3 MSTORE RETURNDATASIZE PUSH0 PUSH1 0x20 DUP5 ADD RETURNDATACOPY PUSH2 0x1194 JUMP JUMPDEST PUSH1 0x60 SWAP2 POP JUMPDEST POP POP SWAP1 POP DUP1 PUSH2 0x11CF JUMPI PUSH1 0x40 MLOAD PUSH32 0xCEF4EED700000000000000000000000000000000000000000000000000000000 DUP2 MSTORE PUSH1 0x4 ADD PUSH1 0x40 MLOAD DUP1 SWAP2 SUB SWAP1 REVERT JUMPDEST POP POP POP JUMP JUMPDEST PUSH1 0x1 DUP1 DUP2 SWAP1 SSTORE POP JUMP JUMPDEST PUSH2 0x11E5 PUSH2 0x3AE7 JUMP JUMPDEST PUSH0 PUSH32 0x0 SWAP1 POP PUSH0 DUP7 DUP7 SWAP1 POP SWAP1 POP DUP1 PUSH8 0xFFFFFFFFFFFFFFFF DUP2 GT ISZERO PUSH2 0x122A JUMPI PUSH2 0x1229 PUSH2 0x3D43 JUMP JUMPDEST JUMPDEST PUSH1 0x40 MLOAD SWAP1 DUP1 DUP3 MSTORE DUP1 PUSH1 0x20 MUL PUSH1 0x20 ADD DUP3 ADD PUSH1 0x40 MSTORE DUP1 ISZERO PUSH2 0x125D JUMPI DUP2 PUSH1 0x20 ADD JUMPDEST PUSH1 0x60 DUP2 MSTORE PUSH1 0x20 ADD SWAP1 PUSH1 0x1 SWAP1 SUB SWAP1 DUP2 PUSH2 0x1248 JUMPI SWAP1 POP JUMPDEST POP DUP4 PUSH1 0x20 ADD DUP2 SWAP1 MSTORE POP DUP1 PUSH8 0xFFFFFFFFFFFFFFFF DUP2 GT ISZERO PUSH2 0x1280 JUMPI PUSH2 0x127F PUSH2 0x3D43 JUMP JUMPDEST JUMPDEST PUSH1 0x40 MLOAD SWAP1 DUP1 DUP3 MSTORE DUP1 PUSH1 0x1F ADD PUSH1 0x1F NOT AND PUSH1 0x20 ADD DUP3 ADD PUSH1 0x40 MSTORE DUP1 ISZERO PUSH2 0x12B2 JUMPI DUP2 PUSH1 0x20 ADD PUSH1 0x1 DUP3 MUL DUP1 CALLDATASIZE DUP4 CALLDATACOPY DUP1 DUP3 ADD SWAP2 POP POP SWAP1 POP JUMPDEST POP DUP4 PUSH0 ADD DUP2 SWAP1 MSTORE POP PUSH0 PUSH0 SWAP1 POP JUMPDEST DUP2 DUP2 LT ISZERO PUSH2 0x1565 JUMPI PUSH0 DUP9 DUP9 DUP4 DUP2 DUP2 LT PUSH2 0x12DB JUMPI PUSH2 0x12DA PUSH2 0x4354 JUMP JUMPDEST JUMPDEST SWAP1 POP PUSH1 0x40 MUL ADD PUSH0 ADD PUSH1 0x20 DUP2 ADD SWAP1 PUSH2 0x12F2 SWAP2 SWAP1 PUSH2 0x4103 JUMP JUMPDEST SWAP1 POP PUSH0 DUP10 DUP10 DUP5 DUP2 DUP2 LT PUSH2 0x1308 JUMPI PUSH2 0x1307 PUSH2 0x4354 JUMP JUMPDEST JUMPDEST SWAP1 POP PUSH1 0x40 MUL ADD PUSH1 0x20 ADD CALLDATALOAD SWAP1 POP PUSH0 DUP2 SUB PUSH2 0x1322 JUMPI POP POP PUSH2 0x155A JUMP JUMPDEST PUSH0 PUSH20 0xFFFFFFFFFFFFFFFFFFFFFFFFFFFFFFFFFFFFFFFF AND DUP3 PUSH20 0xFFFFFFFFFFFFFFFFFFFFFFFFFFFFFFFFFFFFFFFF AND SUB PUSH2 0x1387 JUMPI PUSH1 0x40 MLOAD PUSH32 0x7401D93100000000000000000000000000000000000000000000000000000000 DUP2 MSTORE PUSH1 0x4 ADD PUSH1 0x40 MLOAD DUP1 SWAP2 SUB SWAP1 REVERT JUMPDEST PUSH0 DUP6 PUSH20 0xFFFFFFFFFFFFFFFFFFFFFFFFFFFFFFFFFFFFFFFF AND DUP4 PUSH20 0xFFFFFFFFFFFFFFFFFFFFFFFFFFFFFFFFFFFFFFFF AND EQ SWAP1 POP PUSH0 DUP9 ISZERO PUSH2 0x148E JUMPI PUSH0 DUP5 PUSH20 0xFFFFFFFFFFFFFFFFFFFFFFFFFFFFFFFFFFFFFFFF AND PUSH4 0x70A08231 ADDRESS PUSH1 0x40 MLOAD DUP3 PUSH4 0xFFFFFFFF AND PUSH1 0xE0 SHL DUP2 MSTORE PUSH1 0x4 ADD PUSH2 0x13FA SWAP2 SWAP1 PUSH2 0x3EBD JUMP JUMPDEST PUSH1 0x20 PUSH1 0x40 MLOAD DUP1 DUP4 SUB DUP2 DUP7 GAS STATICCALL ISZERO DUP1 ISZERO PUSH2 0x1415 JUMPI RETURNDATASIZE PUSH0 PUSH0 RETURNDATACOPY RETURNDATASIZE PUSH0 REVERT JUMPDEST POP POP POP POP PUSH1 0x40 MLOAD RETURNDATASIZE PUSH1 0x1F NOT PUSH1 0x1F DUP3 ADD AND DUP3 ADD DUP1 PUSH1 0x40 MSTORE POP DUP2 ADD SWAP1 PUSH2 0x1439 SWAP2 SWAP1 PUSH2 0x42C1 JUMP JUMPDEST SWAP1 POP DUP4 DUP2 LT ISZERO PUSH2 0x1475 JUMPI PUSH1 0x40 MLOAD PUSH32 0x6998F5B00000000000000000000000000000000000000000000000000000000 DUP2 MSTORE PUSH1 0x4 ADD PUSH1 0x40 MLOAD DUP1 SWAP2 SUB SWAP1 REVERT JUMPDEST DUP3 ISZERO PUSH2 0x1485 JUMPI POP POP POP POP POP PUSH2 0x155A JUMP JUMPDEST DUP4 SWAP2 POP POP PUSH2 0x14C2 JUMP JUMPDEST PUSH0 PUSH2 0x149A DUP6 DUP6 CALLER PUSH2 0x1C56 JUMP JUMPDEST SWAP1 POP DUP3 ISZERO PUSH2 0x14AC JUMPI POP POP POP POP POP PUSH2 0x155A JUMP JUMPDEST DUP1 SWAP2 POP PUSH0 DUP3 SUB PUSH2 0x14C0 JUMPI POP POP POP POP POP PUSH2 0x155A JUMP JUMPDEST POP JUMPDEST PUSH0 PUSH0 PUSH2 0x14D0 DUP7 DUP5 ADDRESS DUP16 PUSH2 0x1E91 JUMP JUMPDEST SWAP2 POP SWAP2 POP DUP2 DUP11 PUSH0 ADD MLOAD DUP12 PUSH1 0x40 ADD MLOAD DUP2 MLOAD DUP2 LT PUSH2 0x14EF JUMPI PUSH2 0x14EE PUSH2 0x4354 JUMP JUMPDEST JUMPDEST PUSH1 0x20 ADD ADD SWAP1 PUSH31 0xFFFFFFFFFFFFFFFFFFFFFFFFFFFFFFFFFFFFFFFFFFFFFFFFFFFFFFFFFFFFFF NOT AND SWAP1 DUP2 PUSH0 BYTE SWAP1 MSTORE8 POP DUP1 DUP11 PUSH1 0x20 ADD MLOAD DUP12 PUSH1 0x40 ADD MLOAD DUP2 MLOAD DUP2 LT PUSH2 0x1539 JUMPI PUSH2 0x1538 PUSH2 0x4354 JUMP JUMPDEST JUMPDEST PUSH1 0x20 MUL PUSH1 0x20 ADD ADD DUP2 SWAP1 MSTORE POP DUP10 PUSH1 0x40 ADD DUP1 MLOAD PUSH1 0x1 ADD SWAP1 DUP2 DUP2 MSTORE POP POP POP POP POP POP POP POP JUMPDEST DUP1 PUSH1 0x1 ADD SWAP1 POP PUSH2 0x12BF JUMP JUMPDEST POP POP POP SWAP5 SWAP4 POP POP POP POP JUMP JUMPDEST DUP3 PUSH20 0xFFFFFFFFFFFFFFFFFFFFFFFFFFFFFFFFFFFFFFFF AND PUSH4 0x2E1A7D4D DUP4 PUSH1 0x40 MLOAD DUP3 PUSH4 0xFFFFFFFF AND PUSH1 0xE0 SHL DUP2 MSTORE PUSH1 0x4 ADD PUSH2 0x15A9 SWAP2 SWAP1 PUSH2 0x45EA JUMP JUMPDEST PUSH0 PUSH1 0x40 MLOAD DUP1 DUP4 SUB DUP2 PUSH0 DUP8 DUP1 EXTCODESIZE ISZERO DUP1 ISZERO PUSH2 0x15C0 JUMPI PUSH0 PUSH0 REVERT JUMPDEST POP GAS CALL ISZERO DUP1 ISZERO PUSH2 0x15D2 JUMPI RETURNDATASIZE PUSH0 PUSH0 RETURNDATACOPY RETURNDATASIZE PUSH0 REVERT JUMPDEST POP POP POP POP PUSH0 DUP2 PUSH20 0xFFFFFFFFFFFFFFFFFFFFFFFFFFFFFFFFFFFFFFFF AND DUP4 PUSH1 0x40 MLOAD PUSH2 0x15FB SWAP1 PUSH2 0x45C7 JUMP JUMPDEST PUSH0 PUSH1 0x40 MLOAD DUP1 DUP4 SUB DUP2 DUP6 DUP8 GAS CALL SWAP3 POP POP POP RETURNDATASIZE DUP1 PUSH0 DUP2 EQ PUSH2 0x1635 JUMPI PUSH1 0x40 MLOAD SWAP2 POP PUSH1 0x1F NOT PUSH1 0x3F RETURNDATASIZE ADD AND DUP3 ADD PUSH1 0x40 MSTORE RETURNDATASIZE DUP3 MSTORE RETURNDATASIZE PUSH0 PUSH1 0x20 DUP5 ADD RETURNDATACOPY PUSH2 0x163A JUMP JUMPDEST PUSH1 0x60 SWAP2 POP JUMPDEST POP POP SWAP1 POP DUP1 PUSH2 0x1675 JUMPI PUSH1 0x40 MLOAD PUSH32 0xB2F8AAAA00000000000000000000000000000000000000000000000000000000 DUP2 MSTORE PUSH1 0x4 ADD PUSH1 0x40 MLOAD DUP1 SWAP2 SUB SWAP1 REVERT JUMPDEST POP POP POP POP JUMP JUMPDEST PUSH0 PUSH20 0xFFFFFFFFFFFFFFFFFFFFFFFFFFFFFFFFFFFFFFFF AND DUP2 PUSH20 0xFFFFFFFFFFFFFFFFFFFFFFFFFFFFFFFFFFFFFFFF AND SUB PUSH2 0x16E9 JUMPI PUSH1 0x40 MLOAD PUSH32 0x8C379A000000000000000000000000000000000000000000000000000000000 DUP2 MSTORE PUSH1 0x4 ADD PUSH2 0x16E0 SWAP1 PUSH2 0x464D JUMP JUMPDEST PUSH1 0x40 MLOAD DUP1 SWAP2 SUB SWAP1 REVERT JUMPDEST PUSH0 DUP2 PUSH20 0xFFFFFFFFFFFFFFFFFFFFFFFFFFFFFFFFFFFFFFFF AND EXTCODESIZE GT PUSH2 0x1742 JUMPI PUSH1 0x40 MLOAD PUSH32 0x8C379A000000000000000000000000000000000000000000000000000000000 DUP2 MSTORE PUSH1 0x4 ADD PUSH2 0x1739 SWAP1 PUSH2 0x46B5 JUMP JUMPDEST PUSH1 0x40 MLOAD DUP1 SWAP2 SUB SWAP1 REVERT JUMPDEST DUP1 PUSH20 0xFFFFFFFFFFFFFFFFFFFFFFFFFFFFFFFFFFFFFFFF AND PUSH4 0x8DA5CB5B PUSH1 0x40 MLOAD DUP2 PUSH4 0xFFFFFFFF AND PUSH1 0xE0 SHL DUP2 MSTORE PUSH1 0x4 ADD PUSH1 0x20 PUSH1 0x40 MLOAD DUP1 DUP4 SUB DUP2 DUP7 GAS STATICCALL SWAP3 POP POP POP DUP1 ISZERO PUSH2 0x17AA JUMPI POP PUSH1 0x40 MLOAD RETURNDATASIZE PUSH1 0x1F NOT PUSH1 0x1F DUP3 ADD AND DUP3 ADD DUP1 PUSH1 0x40 MSTORE POP DUP2 ADD SWAP1 PUSH2 0x17A7 SWAP2 SWAP1 PUSH2 0x417B JUMP JUMPDEST PUSH1 0x1 JUMPDEST PUSH2 0x17E9 JUMPI PUSH1 0x40 MLOAD PUSH32 0x8C379A000000000000000000000000000000000000000000000000000000000 DUP2 MSTORE PUSH1 0x4 ADD PUSH2 0x17E0 SWAP1 PUSH2 0x4743 JUMP JUMPDEST PUSH1 0x40 MLOAD DUP1 SWAP2 SUB SWAP1 REVERT JUMPDEST DUP2 PUSH0 PUSH0 PUSH2 0x100 EXP DUP2 SLOAD DUP2 PUSH20 0xFFFFFFFFFFFFFFFFFFFFFFFFFFFFFFFFFFFFFFFF MUL NOT AND SWAP1 DUP4 PUSH20 0xFFFFFFFFFFFFFFFFFFFFFFFFFFFFFFFFFFFFFFFF AND MUL OR SWAP1 SSTORE POP POP POP JUMP JUMPDEST PUSH0 PUSH20 0xFFFFFFFFFFFFFFFFFFFFFFFFFFFFFFFFFFFFFFFF AND DUP3 PUSH20 0xFFFFFFFFFFFFFFFFFFFFFFFFFFFFFFFFFFFFFFFF AND SUB PUSH2 0x186E JUMPI PUSH2 0x1869 DUP2 SELFBALANCE PUSH2 0x10BD JUMP JUMPDEST PUSH2 0x18FF JUMP JUMPDEST PUSH0 DUP3 PUSH20 0xFFFFFFFFFFFFFFFFFFFFFFFFFFFFFFFFFFFFFFFF AND PUSH4 0x70A08231 ADDRESS PUSH1 0x40 MLOAD DUP3 PUSH4 0xFFFFFFFF AND PUSH1 0xE0 SHL DUP2 MSTORE PUSH1 0x4 ADD PUSH2 0x18A8 SWAP2 SWAP1 PUSH2 0x3EBD JUMP JUMPDEST PUSH1 0x20 PUSH1 0x40 MLOAD DUP1 DUP4 SUB DUP2 DUP7 GAS STATICCALL ISZERO DUP1 ISZERO PUSH2 0x18C3 JUMPI RETURNDATASIZE PUSH0 PUSH0 RETURNDATACOPY RETURNDATASIZE PUSH0 REVERT JUMPDEST POP POP POP POP PUSH1 0x40 MLOAD RETURNDATASIZE PUSH1 0x1F NOT PUSH1 0x1F DUP3 ADD AND DUP3 ADD DUP1 PUSH1 0x40 MSTORE POP DUP2 ADD SWAP1 PUSH2 0x18E7 SWAP2 SWAP1 PUSH2 0x42C1 JUMP JUMPDEST SWAP1 POP PUSH0 DUP2 GT ISZERO PUSH2 0x18FD JUMPI PUSH2 0x18FC DUP4 DUP4 DUP4 PUSH2 0x1B07 JUMP JUMPDEST JUMPDEST POP JUMPDEST POP POP JUMP JUMPDEST PUSH0 PUSH1 0x60 PUSH0 DUP6 SUB PUSH2 0x1929 JUMPI PUSH0 PUSH1 0xF8 SHL PUSH1 0x40 MLOAD DUP1 PUSH1 0x20 ADD PUSH1 0x40 MSTORE DUP1 PUSH0 DUP2 MSTORE POP SWAP2 POP SWAP2 POP PUSH2 0x1AFE JUMP JUMPDEST PUSH0 PUSH2 0x1932 PUSH2 0x2151 JUMP JUMPDEST PUSH20 0xFFFFFFFFFFFFFFFFFFFFFFFFFFFFFFFFFFFFFFFF AND PUSH4 0x6425F09E DUP9 PUSH1 0x40 MLOAD DUP3 PUSH4 0xFFFFFFFF AND PUSH1 0xE0 SHL DUP2 MSTORE PUSH1 0x4 ADD PUSH2 0x196A SWAP2 SWAP1 PUSH2 0x3EBD JUMP JUMPDEST PUSH1 0x80 PUSH1 0x40 MLOAD DUP1 DUP4 SUB DUP2 PUSH0 DUP8 GAS CALL ISZERO DUP1 ISZERO PUSH2 0x1986 JUMPI RETURNDATASIZE PUSH0 PUSH0 RETURNDATACOPY RETURNDATASIZE PUSH0 REVERT JUMPDEST POP POP POP POP PUSH1 0x40 MLOAD RETURNDATASIZE PUSH1 0x1F NOT PUSH1 0x1F DUP3 ADD AND DUP3 ADD DUP1 PUSH1 0x40 MSTORE POP DUP2 ADD SWAP1 PUSH2 0x19AA SWAP2 SWAP1 PUSH2 0x4885 JUMP JUMPDEST SWAP1 POP PUSH0 PUSH20 0xFFFFFFFFFFFFFFFFFFFFFFFFFFFFFFFFFFFFFFFF AND DUP2 PUSH0 ADD MLOAD PUSH20 0xFFFFFFFFFFFFFFFFFFFFFFFFFFFFFFFFFFFFFFFF AND SUB PUSH2 0x1A14 JUMPI PUSH1 0x40 MLOAD PUSH32 0x791C2FED00000000000000000000000000000000000000000000000000000000 DUP2 MSTORE PUSH1 0x4 ADD PUSH1 0x40 MLOAD DUP1 SWAP2 SUB SWAP1 REVERT JUMPDEST PUSH0 PUSH1 0x1 DUP3 PUSH1 0x40 ADD MLOAD PUSH1 0xFF AND SUB PUSH2 0x1A96 JUMPI PUSH2 0x1A55 PUSH32 0x0 DUP10 DUP5 PUSH1 0x20 ADD MLOAD DUP11 DUP10 PUSH2 0x2195 JUMP JUMPDEST SWAP1 POP PUSH2 0x1A89 PUSH32 0x0 DUP10 DUP5 PUSH1 0x20 ADD MLOAD DUP11 DUP6 DUP12 PUSH2 0x2677 JUMP JUMPDEST SWAP3 POP PUSH0 PUSH1 0xF8 SHL SWAP4 POP PUSH2 0x1AFB JUMP JUMPDEST PUSH2 0x1AC2 PUSH32 0x0 DUP10 DUP10 DUP9 PUSH2 0x274D JUMP JUMPDEST SWAP1 POP PUSH2 0x1AF1 PUSH32 0x0 DUP10 DUP10 DUP5 DUP11 PUSH2 0x2AA5 JUMP JUMPDEST SWAP3 POP PUSH1 0x8 PUSH1 0xF8 SHL SWAP4 POP JUMPDEST POP POP JUMPDEST SWAP5 POP SWAP5 SWAP3 POP POP POP JUMP JUMPDEST PUSH0 PUSH0 DUP5 PUSH20 0xFFFFFFFFFFFFFFFFFFFFFFFFFFFFFFFFFFFFFFFF AND PUSH4 0xA9059CBB PUSH1 0xE0 SHL DUP6 DUP6 PUSH1 0x40 MLOAD PUSH1 0x24 ADD PUSH2 0x1B3B SWAP3 SWAP2 SWAP1 PUSH2 0x48B0 JUMP JUMPDEST PUSH1 0x40 MLOAD PUSH1 0x20 DUP2 DUP4 SUB SUB DUP2 MSTORE SWAP1 PUSH1 0x40 MSTORE SWAP1 PUSH28 0xFFFFFFFFFFFFFFFFFFFFFFFFFFFFFFFFFFFFFFFFFFFFFFFFFFFFFFFF NOT AND PUSH1 0x20 DUP3 ADD DUP1 MLOAD PUSH28 0xFFFFFFFFFFFFFFFFFFFFFFFFFFFFFFFFFFFFFFFFFFFFFFFFFFFFFFFF DUP4 DUP2 DUP4 AND OR DUP4 MSTORE POP POP POP POP PUSH1 0x40 MLOAD PUSH2 0x1BA5 SWAP2 SWAP1 PUSH2 0x4907 JUMP JUMPDEST PUSH0 PUSH1 0x40 MLOAD DUP1 DUP4 SUB DUP2 PUSH0 DUP7 GAS CALL SWAP2 POP POP RETURNDATASIZE DUP1 PUSH0 DUP2 EQ PUSH2 0x1BDE JUMPI PUSH1 0x40 MLOAD SWAP2 POP PUSH1 0x1F NOT PUSH1 0x3F RETURNDATASIZE ADD AND DUP3 ADD PUSH1 0x40 MSTORE RETURNDATASIZE DUP3 MSTORE RETURNDATASIZE PUSH0 PUSH1 0x20 DUP5 ADD RETURNDATACOPY PUSH2 0x1BE3 JUMP JUMPDEST PUSH1 0x60 SWAP2 POP JUMPDEST POP SWAP2 POP SWAP2 POP DUP2 DUP1 ISZERO PUSH2 0x1C10 JUMPI POP PUSH0 DUP2 MLOAD EQ DUP1 PUSH2 0x1C0F JUMPI POP DUP1 DUP1 PUSH1 0x20 ADD SWAP1 MLOAD DUP2 ADD SWAP1 PUSH2 0x1C0E SWAP2 SWAP1 PUSH2 0x4931 JUMP JUMPDEST JUMPDEST JUMPDEST PUSH2 0x1C4F JUMPI PUSH1 0x40 MLOAD PUSH32 0x8C379A000000000000000000000000000000000000000000000000000000000 DUP2 MSTORE PUSH1 0x4 ADD PUSH2 0x1C46 SWAP1 PUSH2 0x49A6 JUMP JUMPDEST PUSH1 0x40 MLOAD DUP1 SWAP2 SUB SWAP1 REVERT JUMPDEST POP POP POP POP POP JUMP JUMPDEST PUSH0 PUSH0 DUP4 SUB PUSH2 0x1C90 JUMPI PUSH1 0x40 MLOAD PUSH32 0x1F2A200500000000000000000000000000000000000000000000000000000000 DUP2 MSTORE PUSH1 0x4 ADD PUSH1 0x40 MLOAD DUP1 SWAP2 SUB SWAP1 REVERT JUMPDEST PUSH0 DUP5 PUSH20 0xFFFFFFFFFFFFFFFFFFFFFFFFFFFFFFFFFFFFFFFF AND PUSH4 0xDD62ED3E DUP5 ADDRESS PUSH1 0x40 MLOAD DUP4 PUSH4 0xFFFFFFFF AND PUSH1 0xE0 SHL DUP2 MSTORE PUSH1 0x4 ADD PUSH2 0x1CCC SWAP3 SWAP2 SWAP1 PUSH2 0x49C4 JUMP JUMPDEST PUSH1 0x20 PUSH1 0x40 MLOAD DUP1 DUP4 SUB DUP2 DUP7 GAS STATICCALL ISZERO DUP1 ISZERO PUSH2 0x1CE7 JUMPI RETURNDATASIZE PUSH0 PUSH0 RETURNDATACOPY RETURNDATASIZE PUSH0 REVERT JUMPDEST POP POP POP POP PUSH1 0x40 MLOAD RETURNDATASIZE PUSH1 0x1F NOT PUSH1 0x1F DUP3 ADD AND DUP3 ADD DUP1 PUSH1 0x40 MSTORE POP DUP2 ADD SWAP1 PUSH2 0x1D0B SWAP2 SWAP1 PUSH2 0x42C1 JUMP JUMPDEST SWAP1 POP DUP4 DUP2 LT ISZERO PUSH2 0x1D47 JUMPI PUSH1 0x40 MLOAD PUSH32 0xBAC9B5E800000000000000000000000000000000000000000000000000000000 DUP2 MSTORE PUSH1 0x4 ADD PUSH1 0x40 MLOAD DUP1 SWAP2 SUB SWAP1 REVERT JUMPDEST PUSH0 DUP6 PUSH20 0xFFFFFFFFFFFFFFFFFFFFFFFFFFFFFFFFFFFFFFFF AND PUSH4 0x70A08231 ADDRESS PUSH1 0x40 MLOAD DUP3 PUSH4 0xFFFFFFFF AND PUSH1 0xE0 SHL DUP2 MSTORE PUSH1 0x4 ADD PUSH2 0x1D81 SWAP2 SWAP1 PUSH2 0x3EBD JUMP JUMPDEST PUSH1 0x20 PUSH1 0x40 MLOAD DUP1 DUP4 SUB DUP2 DUP7 GAS STATICCALL ISZERO DUP1 ISZERO PUSH2 0x1D9C JUMPI RETURNDATASIZE PUSH0 PUSH0 RETURNDATACOPY RETURNDATASIZE PUSH0 REVERT JUMPDEST POP POP POP POP PUSH1 0x40 MLOAD RETURNDATASIZE PUSH1 0x1F NOT PUSH1 0x1F DUP3 ADD AND DUP3 ADD DUP1 PUSH1 0x40 MSTORE POP DUP2 ADD SWAP1 PUSH2 0x1DC0 SWAP2 SWAP1 PUSH2 0x42C1 JUMP JUMPDEST SWAP1 POP PUSH2 0x1DCE DUP7 DUP6 ADDRESS DUP9 PUSH2 0x2C3D JUMP JUMPDEST PUSH0 DUP7 PUSH20 0xFFFFFFFFFFFFFFFFFFFFFFFFFFFFFFFFFFFFFFFF AND PUSH4 0x70A08231 ADDRESS PUSH1 0x40 MLOAD DUP3 PUSH4 0xFFFFFFFF AND PUSH1 0xE0 SHL DUP2 MSTORE PUSH1 0x4 ADD PUSH2 0x1E08 SWAP2 SWAP1 PUSH2 0x3EBD JUMP JUMPDEST PUSH1 0x20 PUSH1 0x40 MLOAD DUP1 DUP4 SUB DUP2 DUP7 GAS STATICCALL ISZERO DUP1 ISZERO PUSH2 0x1E23 JUMPI RETURNDATASIZE PUSH0 PUSH0 RETURNDATACOPY RETURNDATASIZE PUSH0 REVERT JUMPDEST POP POP POP POP PUSH1 0x40 MLOAD RETURNDATASIZE PUSH1 0x1F NOT PUSH1 0x1F DUP3 ADD AND DUP3 ADD DUP1 PUSH1 0x40 MSTORE POP DUP2 ADD SWAP1 PUSH2 0x1E47 SWAP2 SWAP1 PUSH2 0x42C1 JUMP JUMPDEST SWAP1 POP DUP2 DUP2 SUB SWAP4 POP PUSH0 DUP5 SUB PUSH2 0x1E87 JUMPI PUSH1 0x40 MLOAD PUSH32 0xB5C74A2700000000000000000000000000000000000000000000000000000000 DUP2 MSTORE PUSH1 0x4 ADD PUSH1 0x40 MLOAD DUP1 SWAP2 SUB SWAP1 REVERT JUMPDEST POP POP POP SWAP4 SWAP3 POP POP POP JUMP JUMPDEST PUSH0 PUSH1 0x60 PUSH0 DUP6 SUB PUSH2 0x1EB7 JUMPI PUSH0 PUSH1 0xF8 SHL PUSH1 0x40 MLOAD DUP1 PUSH1 0x20 ADD PUSH1 0x40 MSTORE DUP1 PUSH0 DUP2 MSTORE POP SWAP2 POP SWAP2 POP PUSH2 0x2148 JUMP JUMPDEST PUSH0 PUSH20 0xFFFFFFFFFFFFFFFFFFFFFFFFFFFFFFFFFFFFFFFF AND DUP7 PUSH20 0xFFFFFFFFFFFFFFFFFFFFFFFFFFFFFFFFFFFFFFFF AND EQ DUP1 PUSH2 0x1F3C JUMPI POP PUSH32 0x0 PUSH20 0xFFFFFFFFFFFFFFFFFFFFFFFFFFFFFFFFFFFFFFFF AND DUP7 PUSH20 0xFFFFFFFFFFFFFFFFFFFFFFFFFFFFFFFFFFFFFFFF AND EQ JUMPDEST ISZERO PUSH2 0x1F73 JUMPI PUSH1 0x40 MLOAD PUSH32 0x7401D93100000000000000000000000000000000000000000000000000000000 DUP2 MSTORE PUSH1 0x4 ADD PUSH1 0x40 MLOAD DUP1 SWAP2 SUB SWAP1 REVERT JUMPDEST PUSH0 PUSH2 0x1F7C PUSH2 0x2151 JUMP JUMPDEST PUSH20 0xFFFFFFFFFFFFFFFFFFFFFFFFFFFFFFFFFFFFFFFF AND PUSH4 0x6425F09E DUP9 PUSH1 0x40 MLOAD DUP3 PUSH4 0xFFFFFFFF AND PUSH1 0xE0 SHL DUP2 MSTORE PUSH1 0x4 ADD PUSH2 0x1FB4 SWAP2 SWAP1 PUSH2 0x3EBD JUMP JUMPDEST PUSH1 0x80 PUSH1 0x40 MLOAD DUP1 DUP4 SUB DUP2 PUSH0 DUP8 GAS CALL ISZERO DUP1 ISZERO PUSH2 0x1FD0 JUMPI RETURNDATASIZE PUSH0 PUSH0 RETURNDATACOPY RETURNDATASIZE PUSH0 REVERT JUMPDEST POP POP POP POP PUSH1 0x40 MLOAD RETURNDATASIZE PUSH1 0x1F NOT PUSH1 0x1F DUP3 ADD AND DUP3 ADD DUP1 PUSH1 0x40 MSTORE POP DUP2 ADD SWAP1 PUSH2 0x1FF4 SWAP2 SWAP1 PUSH2 0x4885 JUMP JUMPDEST SWAP1 POP PUSH0 PUSH20 0xFFFFFFFFFFFFFFFFFFFFFFFFFFFFFFFFFFFFFFFF AND DUP2 PUSH0 ADD MLOAD PUSH20 0xFFFFFFFFFFFFFFFFFFFFFFFFFFFFFFFFFFFFFFFF AND SUB PUSH2 0x205E JUMPI PUSH1 0x40 MLOAD PUSH32 0x791C2FED00000000000000000000000000000000000000000000000000000000 DUP2 MSTORE PUSH1 0x4 ADD PUSH1 0x40 MLOAD DUP1 SWAP2 SUB SWAP1 REVERT JUMPDEST PUSH0 PUSH1 0x1 DUP3 PUSH1 0x40 ADD MLOAD PUSH1 0xFF AND SUB PUSH2 0x20E0 JUMPI PUSH2 0x209F DUP9 PUSH32 0x0 DUP5 PUSH1 0x20 ADD MLOAD DUP11 DUP10 PUSH2 0x2195 JUMP JUMPDEST SWAP1 POP PUSH2 0x20D3 DUP9 PUSH32 0x0 DUP5 PUSH1 0x20 ADD MLOAD DUP11 DUP6 DUP12 PUSH2 0x2677 JUMP JUMPDEST SWAP3 POP PUSH0 PUSH1 0xF8 SHL SWAP4 POP PUSH2 0x2145 JUMP JUMPDEST PUSH2 0x210C DUP9 PUSH32 0x0 DUP10 DUP9 PUSH2 0x274D JUMP JUMPDEST SWAP1 POP PUSH2 0x213B DUP9 PUSH32 0x0 DUP10 DUP5 DUP11 PUSH2 0x2AA5 JUMP JUMPDEST SWAP3 POP PUSH1 0x8 PUSH1 0xF8 SHL SWAP4 POP JUMPDEST POP POP JUMPDEST SWAP5 POP SWAP5 SWAP3 POP POP POP JUMP JUMPDEST PUSH0 PUSH2 0x2190 PUSH1 0x40 MLOAD DUP1 PUSH1 0x40 ADD PUSH1 0x40 MSTORE DUP1 PUSH1 0xB DUP2 MSTORE PUSH1 0x20 ADD PUSH32 0x706F6F6C2D66696E646572000000000000000000000000000000000000000000 DUP2 MSTORE POP PUSH2 0x618 JUMP JUMPDEST SWAP1 POP SWAP1 JUMP JUMPDEST PUSH0 PUSH0 DUP4 SUB PUSH2 0x21A5 JUMPI PUSH0 SWAP1 POP PUSH2 0x266E JUMP JUMPDEST PUSH0 PUSH20 0xFFFFFFFFFFFFFFFFFFFFFFFFFFFFFFFFFFFFFFFF AND DUP7 PUSH20 0xFFFFFFFFFFFFFFFFFFFFFFFFFFFFFFFFFFFFFFFF AND EQ DUP1 PUSH2 0x220A JUMPI POP PUSH0 PUSH20 0xFFFFFFFFFFFFFFFFFFFFFFFFFFFFFFFFFFFFFFFF AND DUP6 PUSH20 0xFFFFFFFFFFFFFFFFFFFFFFFFFFFFFFFFFFFFFFFF AND EQ JUMPDEST ISZERO PUSH2 0x2241 JUMPI PUSH1 0x40 MLOAD PUSH32 0xD92E233D00000000000000000000000000000000000000000000000000000000 DUP2 MSTORE PUSH1 0x4 ADD PUSH1 0x40 MLOAD DUP1 SWAP2 SUB SWAP1 REVERT JUMPDEST PUSH2 0x2710 DUP3 PUSH4 0xFFFFFFFF AND GT ISZERO PUSH2 0x2283 JUMPI PUSH1 0x40 MLOAD PUSH32 0x124955FB00000000000000000000000000000000000000000000000000000000 DUP2 MSTORE PUSH1 0x4 ADD PUSH1 0x40 MLOAD DUP1 SWAP2 SUB SWAP1 REVERT JUMPDEST PUSH0 PUSH32 0x0 PUSH20 0xFFFFFFFFFFFFFFFFFFFFFFFFFFFFFFFFFFFFFFFF AND PUSH4 0x1698EE82 DUP9 DUP9 DUP9 PUSH1 0x40 MLOAD DUP5 PUSH4 0xFFFFFFFF AND PUSH1 0xE0 SHL DUP2 MSTORE PUSH1 0x4 ADD PUSH2 0x22E1 SWAP4 SWAP3 SWAP2 SWAP1 PUSH2 0x49FA JUMP JUMPDEST PUSH1 0x20 PUSH1 0x40 MLOAD DUP1 DUP4 SUB DUP2 DUP7 GAS STATICCALL ISZERO DUP1 ISZERO PUSH2 0x22FC JUMPI RETURNDATASIZE PUSH0 PUSH0 RETURNDATACOPY RETURNDATASIZE PUSH0 REVERT JUMPDEST POP POP POP POP PUSH1 0x40 MLOAD RETURNDATASIZE PUSH1 0x1F NOT PUSH1 0x1F DUP3 ADD AND DUP3 ADD DUP1 PUSH1 0x40 MSTORE POP DUP2 ADD SWAP1 PUSH2 0x2320 SWAP2 SWAP1 PUSH2 0x417B JUMP JUMPDEST SWAP1 POP PUSH0 PUSH20 0xFFFFFFFFFFFFFFFFFFFFFFFFFFFFFFFFFFFFFFFF AND DUP2 PUSH20 0xFFFFFFFFFFFFFFFFFFFFFFFFFFFFFFFFFFFFFFFF AND SUB PUSH2 0x2387 JUMPI PUSH1 0x40 MLOAD PUSH32 0x791C2FED00000000000000000000000000000000000000000000000000000000 DUP2 MSTORE PUSH1 0x4 ADD PUSH1 0x40 MLOAD DUP1 SWAP2 SUB SWAP1 REVERT JUMPDEST PUSH0 PUSH3 0xF4240 DUP7 PUSH3 0xFFFFFF AND PUSH3 0xF4240 PUSH2 0x23A0 SWAP2 SWAP1 PUSH2 0x4A5C JUMP JUMPDEST DUP7 PUSH2 0x23AB SWAP2 SWAP1 PUSH2 0x4A8F JUMP JUMPDEST PUSH2 0x23B5 SWAP2 SWAP1 PUSH2 0x4AD0 JUMP JUMPDEST SWAP1 POP PUSH0 DUP2 SUB PUSH2 0x23F0 JUMPI PUSH1 0x40 MLOAD PUSH32 0x6EED12FF00000000000000000000000000000000000000000000000000000000 DUP2 MSTORE PUSH1 0x4 ADD PUSH1 0x40 MLOAD DUP1 SWAP2 SUB SWAP1 REVERT JUMPDEST PUSH0 PUSH16 0xFFFFFFFFFFFFFFFFFFFFFFFFFFFFFFFF DUP1 AND DUP3 GT PUSH2 0x2410 JUMPI DUP2 PUSH2 0x2422 JUMP JUMPDEST PUSH16 0xFFFFFFFFFFFFFFFFFFFFFFFFFFFFFFFF JUMPDEST SWAP1 POP PUSH0 PUSH1 0xF SWAP1 POP PUSH0 PUSH0 PUSH1 0x2 PUSH8 0xFFFFFFFFFFFFFFFF DUP2 GT ISZERO PUSH2 0x2446 JUMPI PUSH2 0x2445 PUSH2 0x3D43 JUMP JUMPDEST JUMPDEST PUSH1 0x40 MLOAD SWAP1 DUP1 DUP3 MSTORE DUP1 PUSH1 0x20 MUL PUSH1 0x20 ADD DUP3 ADD PUSH1 0x40 MSTORE DUP1 ISZERO PUSH2 0x2474 JUMPI DUP2 PUSH1 0x20 ADD PUSH1 0x20 DUP3 MUL DUP1 CALLDATASIZE DUP4 CALLDATACOPY DUP1 DUP3 ADD SWAP2 POP POP SWAP1 POP JUMPDEST POP SWAP1 POP DUP3 DUP2 PUSH0 DUP2 MLOAD DUP2 LT PUSH2 0x248B JUMPI PUSH2 0x248A PUSH2 0x4354 JUMP JUMPDEST JUMPDEST PUSH1 0x20 MUL PUSH1 0x20 ADD ADD SWAP1 PUSH4 0xFFFFFFFF AND SWAP1 DUP2 PUSH4 0xFFFFFFFF AND DUP2 MSTORE POP POP PUSH0 DUP2 PUSH1 0x1 DUP2 MLOAD DUP2 LT PUSH2 0x24BA JUMPI PUSH2 0x24B9 PUSH2 0x4354 JUMP JUMPDEST JUMPDEST PUSH1 0x20 MUL PUSH1 0x20 ADD ADD SWAP1 PUSH4 0xFFFFFFFF AND SWAP1 DUP2 PUSH4 0xFFFFFFFF AND DUP2 MSTORE POP POP DUP6 PUSH20 0xFFFFFFFFFFFFFFFFFFFFFFFFFFFFFFFFFFFFFFFF AND PUSH4 0x883BDBFD DUP3 PUSH1 0x40 MLOAD DUP3 PUSH4 0xFFFFFFFF AND PUSH1 0xE0 SHL DUP2 MSTORE PUSH1 0x4 ADD PUSH2 0x250D SWAP2 SWAP1 PUSH2 0x4BB7 JUMP JUMPDEST PUSH0 PUSH1 0x40 MLOAD DUP1 DUP4 SUB DUP2 DUP7 GAS STATICCALL SWAP3 POP POP POP DUP1 ISZERO PUSH2 0x254A JUMPI POP PUSH1 0x40 MLOAD RETURNDATASIZE PUSH0 DUP3 RETURNDATACOPY RETURNDATASIZE PUSH1 0x1F NOT PUSH1 0x1F DUP3 ADD AND DUP3 ADD DUP1 PUSH1 0x40 MSTORE POP DUP2 ADD SWAP1 PUSH2 0x2547 SWAP2 SWAP1 PUSH2 0x4DB7 JUMP JUMPDEST PUSH1 0x1 JUMPDEST PUSH2 0x25CD JUMPI PUSH0 DUP7 PUSH20 0xFFFFFFFFFFFFFFFFFFFFFFFFFFFFFFFFFFFFFFFF AND PUSH4 0x3850C7BD PUSH1 0x40 MLOAD DUP2 PUSH4 0xFFFFFFFF AND PUSH1 0xE0 SHL DUP2 MSTORE PUSH1 0x4 ADD PUSH1 0xE0 PUSH1 0x40 MLOAD DUP1 DUP4 SUB DUP2 DUP7 GAS STATICCALL ISZERO DUP1 ISZERO PUSH2 0x2598 JUMPI RETURNDATASIZE PUSH0 PUSH0 RETURNDATACOPY RETURNDATASIZE PUSH0 REVERT JUMPDEST POP POP POP POP PUSH1 0x40 MLOAD RETURNDATASIZE PUSH1 0x1F NOT PUSH1 0x1F DUP3 ADD AND DUP3 ADD DUP1 PUSH1 0x40 MSTORE POP DUP2 ADD SWAP1 PUSH2 0x25BC SWAP2 SWAP1 PUSH2 0x4E77 JUMP JUMPDEST POP POP POP POP POP SWAP2 POP POP DUP1 SWAP3 POP POP PUSH2 0x2612 JUMP JUMPDEST PUSH2 0x260D DUP3 PUSH0 DUP2 MLOAD DUP2 LT PUSH2 0x25E3 JUMPI PUSH2 0x25E2 PUSH2 0x4354 JUMP JUMPDEST JUMPDEST PUSH1 0x20 MUL PUSH1 0x20 ADD ADD MLOAD DUP4 PUSH1 0x1 DUP2 MLOAD DUP2 LT PUSH2 0x25FF JUMPI PUSH2 0x25FE PUSH2 0x4354 JUMP JUMPDEST JUMPDEST PUSH1 0x20 MUL PUSH1 0x20 ADD ADD MLOAD DUP8 PUSH2 0x2D8F JUMP JUMPDEST SWAP4 POP POP POP JUMPDEST POP PUSH0 PUSH2 0x2620 DUP3 DUP6 DUP15 DUP15 PUSH2 0x2DAE JUMP JUMPDEST SWAP1 POP PUSH0 DUP2 SUB PUSH2 0x265B JUMPI PUSH1 0x40 MLOAD PUSH32 0x6EED12FF00000000000000000000000000000000000000000000000000000000 DUP2 MSTORE PUSH1 0x4 ADD PUSH1 0x40 MLOAD DUP1 SWAP2 SUB SWAP1 REVERT JUMPDEST PUSH2 0x2665 DUP2 DUP10 PUSH2 0x2FB7 JUMP JUMPDEST SWAP7 POP POP POP POP POP POP POP JUMPDEST SWAP6 SWAP5 POP POP POP POP POP JUMP JUMPDEST PUSH1 0x60 PUSH2 0x26A4 DUP8 PUSH32 0x0 DUP7 PUSH2 0x302E JUMP JUMPDEST PUSH2 0x26F0 PUSH32 0x0 DUP9 PUSH32 0x0 DUP8 PUSH2 0x30F8 JUMP JUMPDEST PUSH0 DUP8 DUP7 DUP9 PUSH1 0x40 MLOAD PUSH1 0x20 ADD PUSH2 0x2706 SWAP4 SWAP3 SWAP2 SWAP1 PUSH2 0x4F8D JUMP JUMPDEST PUSH1 0x40 MLOAD PUSH1 0x20 DUP2 DUP4 SUB SUB DUP2 MSTORE SWAP1 PUSH1 0x40 MSTORE SWAP1 POP DUP3 DUP6 DUP6 DUP4 PUSH1 0x1 PUSH1 0x40 MLOAD PUSH1 0x20 ADD PUSH2 0x2731 SWAP6 SWAP5 SWAP4 SWAP3 SWAP2 SWAP1 PUSH2 0x4FD8 JUMP JUMPDEST PUSH1 0x40 MLOAD PUSH1 0x20 DUP2 DUP4 SUB SUB DUP2 MSTORE SWAP1 PUSH1 0x40 MSTORE SWAP2 POP POP SWAP7 SWAP6 POP POP POP POP POP POP JUMP JUMPDEST PUSH0 PUSH0 DUP4 SUB PUSH2 0x275D JUMPI PUSH0 SWAP1 POP PUSH2 0x2A9D JUMP JUMPDEST PUSH0 PUSH20 0xFFFFFFFFFFFFFFFFFFFFFFFFFFFFFFFFFFFFFFFF AND DUP6 PUSH20 0xFFFFFFFFFFFFFFFFFFFFFFFFFFFFFFFFFFFFFFFF AND EQ DUP1 PUSH2 0x27C2 JUMPI POP PUSH0 PUSH20 0xFFFFFFFFFFFFFFFFFFFFFFFFFFFFFFFFFFFFFFFF AND DUP5 PUSH20 0xFFFFFFFFFFFFFFFFFFFFFFFFFFFFFFFFFFFFFFFF AND EQ JUMPDEST ISZERO PUSH2 0x27F9 JUMPI PUSH1 0x40 MLOAD PUSH32 0xD92E233D00000000000000000000000000000000000000000000000000000000 DUP2 MSTORE PUSH1 0x4 ADD PUSH1 0x40 MLOAD DUP1 SWAP2 SUB SWAP1 REVERT JUMPDEST PUSH2 0x2710 DUP3 PUSH4 0xFFFFFFFF AND GT ISZERO PUSH2 0x283B JUMPI PUSH1 0x40 MLOAD PUSH32 0x124955FB00000000000000000000000000000000000000000000000000000000 DUP2 MSTORE PUSH1 0x4 ADD PUSH1 0x40 MLOAD DUP1 SWAP2 SUB SWAP1 REVERT JUMPDEST PUSH0 PUSH1 0x2 PUSH8 0xFFFFFFFFFFFFFFFF DUP2 GT ISZERO PUSH2 0x2857 JUMPI PUSH2 0x2856 PUSH2 0x3D43 JUMP JUMPDEST JUMPDEST PUSH1 0x40 MLOAD SWAP1 DUP1 DUP3 MSTORE DUP1 PUSH1 0x20 MUL PUSH1 0x20 ADD DUP3 ADD PUSH1 0x40 MSTORE DUP1 ISZERO PUSH2 0x2885 JUMPI DUP2 PUSH1 0x20 ADD PUSH1 0x20 DUP3 MUL DUP1 CALLDATASIZE DUP4 CALLDATACOPY DUP1 DUP3 ADD SWAP2 POP POP SWAP1 POP JUMPDEST POP SWAP1 POP DUP6 DUP2 PUSH0 DUP2 MLOAD DUP2 LT PUSH2 0x289C JUMPI PUSH2 0x289B PUSH2 0x4354 JUMP JUMPDEST JUMPDEST PUSH1 0x20 MUL PUSH1 0x20 ADD ADD SWAP1 PUSH20 0xFFFFFFFFFFFFFFFFFFFFFFFFFFFFFFFFFFFFFFFF AND SWAP1 DUP2 PUSH20 0xFFFFFFFFFFFFFFFFFFFFFFFFFFFFFFFFFFFFFFFF AND DUP2 MSTORE POP POP DUP5 DUP2 PUSH1 0x1 DUP2 MLOAD DUP2 LT PUSH2 0x28EB JUMPI PUSH2 0x28EA PUSH2 0x4354 JUMP JUMPDEST JUMPDEST PUSH1 0x20 MUL PUSH1 0x20 ADD ADD SWAP1 PUSH20 0xFFFFFFFFFFFFFFFFFFFFFFFFFFFFFFFFFFFFFFFF AND SWAP1 DUP2 PUSH20 0xFFFFFFFFFFFFFFFFFFFFFFFFFFFFFFFFFFFFFFFF AND DUP2 MSTORE POP POP PUSH1 0x60 PUSH32 0x0 PUSH20 0xFFFFFFFFFFFFFFFFFFFFFFFFFFFFFFFFFFFFFFFF AND PUSH4 0xD06CA61F DUP7 DUP5 PUSH1 0x40 MLOAD DUP4 PUSH4 0xFFFFFFFF AND PUSH1 0xE0 SHL DUP2 MSTORE PUSH1 0x4 ADD PUSH2 0x2982 SWAP3 SWAP2 SWAP1 PUSH2 0x50E7 JUMP JUMPDEST PUSH0 PUSH1 0x40 MLOAD DUP1 DUP4 SUB DUP2 DUP7 GAS STATICCALL SWAP3 POP POP POP DUP1 ISZERO PUSH2 0x29BF JUMPI POP PUSH1 0x40 MLOAD RETURNDATASIZE PUSH0 DUP3 RETURNDATACOPY RETURNDATASIZE PUSH1 0x1F NOT PUSH1 0x1F DUP3 ADD AND DUP3 ADD DUP1 PUSH1 0x40 MSTORE POP DUP2 ADD SWAP1 PUSH2 0x29BC SWAP2 SWAP1 PUSH2 0x51D5 JUMP JUMPDEST PUSH1 0x1 JUMPDEST PUSH2 0x29F5 JUMPI PUSH1 0x40 MLOAD PUSH32 0x6EED12FF00000000000000000000000000000000000000000000000000000000 DUP2 MSTORE PUSH1 0x4 ADD PUSH1 0x40 MLOAD DUP1 SWAP2 SUB SWAP1 REVERT JUMPDEST DUP1 SWAP2 POP POP PUSH1 0x2 DUP2 MLOAD LT ISZERO PUSH2 0x2A35 JUMPI PUSH1 0x40 MLOAD PUSH32 0x6EED12FF00000000000000000000000000000000000000000000000000000000 DUP2 MSTORE PUSH1 0x4 ADD PUSH1 0x40 MLOAD DUP1 SWAP2 SUB SWAP1 REVERT JUMPDEST PUSH0 DUP2 PUSH1 0x1 DUP2 MLOAD DUP2 LT PUSH2 0x2A4A JUMPI PUSH2 0x2A49 PUSH2 0x4354 JUMP JUMPDEST JUMPDEST PUSH1 0x20 MUL PUSH1 0x20 ADD ADD MLOAD SWAP1 POP PUSH0 DUP2 SUB PUSH2 0x2A8D JUMPI PUSH1 0x40 MLOAD PUSH32 0x6EED12FF00000000000000000000000000000000000000000000000000000000 DUP2 MSTORE PUSH1 0x4 ADD PUSH1 0x40 MLOAD DUP1 SWAP2 SUB SWAP1 REVERT JUMPDEST PUSH2 0x2A97 DUP2 DUP7 PUSH2 0x2FB7 JUMP JUMPDEST SWAP4 POP POP POP POP JUMPDEST SWAP5 SWAP4 POP POP POP POP JUMP JUMPDEST PUSH1 0x60 PUSH2 0x2AD2 DUP7 PUSH32 0x0 DUP7 PUSH2 0x302E JUMP JUMPDEST PUSH2 0x2B1E PUSH32 0x0 DUP8 PUSH32 0x0 DUP8 PUSH2 0x30F8 JUMP JUMPDEST PUSH0 PUSH1 0x2 PUSH8 0xFFFFFFFFFFFFFFFF DUP2 GT ISZERO PUSH2 0x2B3A JUMPI PUSH2 0x2B39 PUSH2 0x3D43 JUMP JUMPDEST JUMPDEST PUSH1 0x40 MLOAD SWAP1 DUP1 DUP3 MSTORE DUP1 PUSH1 0x20 MUL PUSH1 0x20 ADD DUP3 ADD PUSH1 0x40 MSTORE DUP1 ISZERO PUSH2 0x2B68 JUMPI DUP2 PUSH1 0x20 ADD PUSH1 0x20 DUP3 MUL DUP1 CALLDATASIZE DUP4 CALLDATACOPY DUP1 DUP3 ADD SWAP2 POP POP SWAP1 POP JUMPDEST POP SWAP1 POP DUP7 DUP2 PUSH0 DUP2 MLOAD DUP2 LT PUSH2 0x2B7F JUMPI PUSH2 0x2B7E PUSH2 0x4354 JUMP JUMPDEST JUMPDEST PUSH1 0x20 MUL PUSH1 0x20 ADD ADD SWAP1 PUSH20 0xFFFFFFFFFFFFFFFFFFFFFFFFFFFFFFFFFFFFFFFF AND SWAP1 DUP2 PUSH20 0xFFFFFFFFFFFFFFFFFFFFFFFFFFFFFFFFFFFFFFFF AND DUP2 MSTORE POP POP DUP6 DUP2 PUSH1 0x1 DUP2 MLOAD DUP2 LT PUSH2 0x2BCE JUMPI PUSH2 0x2BCD PUSH2 0x4354 JUMP JUMPDEST JUMPDEST PUSH1 0x20 MUL PUSH1 0x20 ADD ADD SWAP1 PUSH20 0xFFFFFFFFFFFFFFFFFFFFFFFFFFFFFFFFFFFFFFFF AND SWAP1 DUP2 PUSH20 0xFFFFFFFFFFFFFFFFFFFFFFFFFFFFFFFFFFFFFFFF AND DUP2 MSTORE POP POP DUP3 DUP6 DUP6 DUP4 PUSH1 0x1 PUSH1 0x40 MLOAD PUSH1 0x20 ADD PUSH2 0x2C22 SWAP6 SWAP5 SWAP4 SWAP3 SWAP2 SWAP1 PUSH2 0x521C JUMP JUMPDEST PUSH1 0x40 MLOAD PUSH1 0x20 DUP2 DUP4 SUB SUB DUP2 MSTORE SWAP1 PUSH1 0x40 MSTORE SWAP2 POP POP SWAP6 SWAP5 POP POP POP POP POP JUMP JUMPDEST PUSH0 PUSH0 DUP6 PUSH20 0xFFFFFFFFFFFFFFFFFFFFFFFFFFFFFFFFFFFFFFFF AND PUSH4 0x23B872DD PUSH1 0xE0 SHL DUP7 DUP7 DUP7 PUSH1 0x40 MLOAD PUSH1 0x24 ADD PUSH2 0x2C73 SWAP4 SWAP3 SWAP2 SWAP1 PUSH2 0x5274 JUMP JUMPDEST PUSH1 0x40 MLOAD PUSH1 0x20 DUP2 DUP4 SUB SUB DUP2 MSTORE SWAP1 PUSH1 0x40 MSTORE SWAP1 PUSH28 0xFFFFFFFFFFFFFFFFFFFFFFFFFFFFFFFFFFFFFFFFFFFFFFFFFFFFFFFF NOT AND PUSH1 0x20 DUP3 ADD DUP1 MLOAD PUSH28 0xFFFFFFFFFFFFFFFFFFFFFFFFFFFFFFFFFFFFFFFFFFFFFFFFFFFFFFFF DUP4 DUP2 DUP4 AND OR DUP4 MSTORE POP POP POP POP PUSH1 0x40 MLOAD PUSH2 0x2CDD SWAP2 SWAP1 PUSH2 0x4907 JUMP JUMPDEST PUSH0 PUSH1 0x40 MLOAD DUP1 DUP4 SUB DUP2 PUSH0 DUP7 GAS CALL SWAP2 POP POP RETURNDATASIZE DUP1 PUSH0 DUP2 EQ PUSH2 0x2D16 JUMPI PUSH1 0x40 MLOAD SWAP2 POP PUSH1 0x1F NOT PUSH1 0x3F RETURNDATASIZE ADD AND DUP3 ADD PUSH1 0x40 MSTORE RETURNDATASIZE DUP3 MSTORE RETURNDATASIZE PUSH0 PUSH1 0x20 DUP5 ADD RETURNDATACOPY PUSH2 0x2D1B JUMP JUMPDEST PUSH1 0x60 SWAP2 POP JUMPDEST POP SWAP2 POP SWAP2 POP DUP2 DUP1 ISZERO PUSH2 0x2D48 JUMPI POP PUSH0 DUP2 MLOAD EQ DUP1 PUSH2 0x2D47 JUMPI POP DUP1 DUP1 PUSH1 0x20 ADD SWAP1 MLOAD DUP2 ADD SWAP1 PUSH2 0x2D46 SWAP2 SWAP1 PUSH2 0x4931 JUMP JUMPDEST JUMPDEST JUMPDEST PUSH2 0x2D87 JUMPI PUSH1 0x40 MLOAD PUSH32 0x8C379A000000000000000000000000000000000000000000000000000000000 DUP2 MSTORE PUSH1 0x4 ADD PUSH2 0x2D7E SWAP1 PUSH2 0x52F3 JUMP JUMPDEST PUSH1 0x40 MLOAD DUP1 SWAP2 SUB SWAP1 REVERT JUMPDEST POP POP POP POP POP POP JUMP JUMPDEST PUSH0 PUSH2 0x2DA5 DUP5 DUP5 PUSH2 0x2D9F SWAP2 SWAP1 PUSH2 0x5311 JUMP JUMPDEST DUP4 PUSH2 0x330D JUMP JUMPDEST SWAP1 POP SWAP4 SWAP3 POP POP POP JUMP JUMPDEST PUSH0 PUSH0 PUSH2 0x2DB9 DUP7 PUSH2 0x33A8 JUMP JUMPDEST SWAP1 POP PUSH16 0xFFFFFFFFFFFFFFFFFFFFFFFFFFFFFFFF DUP1 AND DUP2 PUSH20 0xFFFFFFFFFFFFFFFFFFFFFFFFFFFFFFFFFFFFFFFF AND GT PUSH2 0x2ED2 JUMPI PUSH0 DUP2 PUSH20 0xFFFFFFFFFFFFFFFFFFFFFFFFFFFFFFFFFFFFFFFF AND DUP3 PUSH20 0xFFFFFFFFFFFFFFFFFFFFFFFFFFFFFFFFFFFFFFFF AND PUSH2 0x2E23 SWAP2 SWAP1 PUSH2 0x4A8F JUMP JUMPDEST SWAP1 POP DUP4 PUSH20 0xFFFFFFFFFFFFFFFFFFFFFFFFFFFFFFFFFFFFFFFF AND DUP6 PUSH20 0xFFFFFFFFFFFFFFFFFFFFFFFFFFFFFFFFFFFFFFFF AND LT PUSH2 0x2E93 JUMPI PUSH2 0x2E8E PUSH25 0x1000000000000000000000000000000000000000000000000 DUP8 PUSH16 0xFFFFFFFFFFFFFFFFFFFFFFFFFFFFFFFF AND DUP4 PUSH2 0x385C JUMP JUMPDEST PUSH2 0x2ECA JUMP JUMPDEST PUSH2 0x2EC9 DUP2 DUP8 PUSH16 0xFFFFFFFFFFFFFFFFFFFFFFFFFFFFFFFF AND PUSH25 0x1000000000000000000000000000000000000000000000000 PUSH2 0x385C JUMP JUMPDEST JUMPDEST SWAP3 POP POP PUSH2 0x2FAE JUMP JUMPDEST PUSH0 PUSH2 0x2F13 DUP3 PUSH20 0xFFFFFFFFFFFFFFFFFFFFFFFFFFFFFFFFFFFFFFFF AND DUP4 PUSH20 0xFFFFFFFFFFFFFFFFFFFFFFFFFFFFFFFFFFFFFFFF AND PUSH9 0x10000000000000000 PUSH2 0x385C JUMP JUMPDEST SWAP1 POP DUP4 PUSH20 0xFFFFFFFFFFFFFFFFFFFFFFFFFFFFFFFFFFFFFFFF AND DUP6 PUSH20 0xFFFFFFFFFFFFFFFFFFFFFFFFFFFFFFFFFFFFFFFF AND LT PUSH2 0x2F7B JUMPI PUSH2 0x2F76 PUSH17 0x100000000000000000000000000000000 DUP8 PUSH16 0xFFFFFFFFFFFFFFFFFFFFFFFFFFFFFFFF AND DUP4 PUSH2 0x385C JUMP JUMPDEST PUSH2 0x2FAA JUMP JUMPDEST PUSH2 0x2FA9 DUP2 DUP8 PUSH16 0xFFFFFFFFFFFFFFFFFFFFFFFFFFFFFFFF AND PUSH17 0x100000000000000000000000000000000 PUSH2 0x385C JUMP JUMPDEST JUMPDEST SWAP3 POP POP JUMPDEST POP SWAP5 SWAP4 POP POP POP POP JUMP JUMPDEST PUSH0 PUSH2 0x2710 DUP3 PUSH4 0xFFFFFFFF AND GT ISZERO PUSH2 0x2FFA JUMPI PUSH1 0x40 MLOAD PUSH32 0x124955FB00000000000000000000000000000000000000000000000000000000 DUP2 MSTORE PUSH1 0x4 ADD PUSH1 0x40 MLOAD DUP1 SWAP2 SUB SWAP1 REVERT JUMPDEST PUSH2 0x2710 DUP3 PUSH4 0xFFFFFFFF AND PUSH2 0x2710 PUSH2 0x3011 SWAP2 SWAP1 PUSH2 0x4A5C JUMP JUMPDEST DUP5 PUSH2 0x301C SWAP2 SWAP1 PUSH2 0x4A8F JUMP JUMPDEST PUSH2 0x3026 SWAP2 SWAP1 PUSH2 0x4AD0 JUMP JUMPDEST SWAP1 POP SWAP3 SWAP2 POP POP JUMP JUMPDEST PUSH0 DUP4 PUSH20 0xFFFFFFFFFFFFFFFFFFFFFFFFFFFFFFFFFFFFFFFF AND PUSH4 0xDD62ED3E ADDRESS DUP6 PUSH1 0x40 MLOAD DUP4 PUSH4 0xFFFFFFFF AND PUSH1 0xE0 SHL DUP2 MSTORE PUSH1 0x4 ADD PUSH2 0x306A SWAP3 SWAP2 SWAP1 PUSH2 0x49C4 JUMP JUMPDEST PUSH1 0x20 PUSH1 0x40 MLOAD DUP1 DUP4 SUB DUP2 DUP7 GAS STATICCALL ISZERO DUP1 ISZERO PUSH2 0x3085 JUMPI RETURNDATASIZE PUSH0 PUSH0 RETURNDATACOPY RETURNDATASIZE PUSH0 REVERT JUMPDEST POP POP POP POP PUSH1 0x40 MLOAD RETURNDATASIZE PUSH1 0x1F NOT PUSH1 0x1F DUP3 ADD AND DUP3 ADD DUP1 PUSH1 0x40 MSTORE POP DUP2 ADD SWAP1 PUSH2 0x30A9 SWAP2 SWAP1 PUSH2 0x42C1 JUMP JUMPDEST SWAP1 POP DUP2 DUP2 LT ISZERO PUSH2 0x30F2 JUMPI PUSH0 DUP2 EQ PUSH2 0x30C6 JUMPI PUSH2 0x30C5 DUP5 DUP5 PUSH0 PUSH2 0x3966 JUMP JUMPDEST JUMPDEST PUSH2 0x30F1 DUP5 DUP5 PUSH32 0xFFFFFFFFFFFFFFFFFFFFFFFFFFFFFFFFFFFFFFFFFFFFFFFFFFFFFFFFFFFFFFFF PUSH2 0x3966 JUMP JUMPDEST JUMPDEST POP POP POP POP JUMP JUMPDEST PUSH0 PUSH20 0xFFFFFFFFFFFFFFFFFFFFFFFFFFFFFFFFFFFFFFFF AND DUP4 PUSH20 0xFFFFFFFFFFFFFFFFFFFFFFFFFFFFFFFFFFFFFFFF AND EQ DUP1 PUSH2 0x315D JUMPI POP PUSH0 PUSH20 0xFFFFFFFFFFFFFFFFFFFFFFFFFFFFFFFFFFFFFFFF AND DUP3 PUSH20 0xFFFFFFFFFFFFFFFFFFFFFFFFFFFFFFFFFFFFFFFF AND EQ JUMPDEST ISZERO PUSH2 0x3194 JUMPI PUSH1 0x40 MLOAD PUSH32 0x7401D93100000000000000000000000000000000000000000000000000000000 DUP2 MSTORE PUSH1 0x4 ADD PUSH1 0x40 MLOAD DUP1 SWAP2 SUB SWAP1 REVERT JUMPDEST PUSH0 PUSH0 DUP6 PUSH20 0xFFFFFFFFFFFFFFFFFFFFFFFFFFFFFFFFFFFFFFFF AND PUSH4 0x927DA105 ADDRESS DUP8 DUP8 PUSH1 0x40 MLOAD DUP5 PUSH4 0xFFFFFFFF AND PUSH1 0xE0 SHL DUP2 MSTORE PUSH1 0x4 ADD PUSH2 0x31D3 SWAP4 SWAP3 SWAP2 SWAP1 PUSH2 0x536F JUMP JUMPDEST PUSH1 0x60 PUSH1 0x40 MLOAD DUP1 DUP4 SUB DUP2 DUP7 GAS STATICCALL ISZERO DUP1 ISZERO PUSH2 0x31EE JUMPI RETURNDATASIZE PUSH0 PUSH0 RETURNDATACOPY RETURNDATASIZE PUSH0 REVERT JUMPDEST POP POP POP POP PUSH1 0x40 MLOAD RETURNDATASIZE PUSH1 0x1F NOT PUSH1 0x1F DUP3 ADD AND DUP3 ADD DUP1 PUSH1 0x40 MSTORE POP DUP2 ADD SWAP1 PUSH2 0x3212 SWAP2 SWAP1 PUSH2 0x53DF JUMP JUMPDEST POP SWAP2 POP SWAP2 POP PUSH0 DUP4 PUSH20 0xFFFFFFFFFFFFFFFFFFFFFFFFFFFFFFFFFFFFFFFF AND DUP4 PUSH20 0xFFFFFFFFFFFFFFFFFFFFFFFFFFFFFFFFFFFFFFFF AND LT ISZERO SWAP1 POP PUSH0 PUSH0 DUP4 PUSH6 0xFFFFFFFFFFFF AND EQ ISZERO DUP1 ISZERO PUSH2 0x326B JUMPI POP TIMESTAMP DUP4 PUSH6 0xFFFFFFFFFFFF AND GT ISZERO JUMPDEST SWAP1 POP DUP2 ISZERO DUP1 PUSH2 0x3277 JUMPI POP DUP1 JUMPDEST ISZERO PUSH2 0x3303 JUMPI DUP8 PUSH20 0xFFFFFFFFFFFFFFFFFFFFFFFFFFFFFFFFFFFFFFFF AND PUSH4 0x87517C45 DUP9 DUP9 PUSH20 0xFFFFFFFFFFFFFFFFFFFFFFFFFFFFFFFFFFFFFFFF PUSH6 0xFFFFFFFFFFFF PUSH1 0x40 MLOAD DUP6 PUSH4 0xFFFFFFFF AND PUSH1 0xE0 SHL DUP2 MSTORE PUSH1 0x4 ADD PUSH2 0x32D5 SWAP5 SWAP4 SWAP3 SWAP2 SWAP1 PUSH2 0x544D JUMP JUMPDEST PUSH0 PUSH1 0x40 MLOAD DUP1 DUP4 SUB DUP2 PUSH0 DUP8 DUP1 EXTCODESIZE ISZERO DUP1 ISZERO PUSH2 0x32EC JUMPI PUSH0 PUSH0 REVERT JUMPDEST POP GAS CALL ISZERO DUP1 ISZERO PUSH2 0x32FE JUMPI RETURNDATASIZE PUSH0 PUSH0 RETURNDATACOPY RETURNDATASIZE PUSH0 REVERT JUMPDEST POP POP POP POP JUMPDEST POP POP POP POP POP POP POP POP JUMP JUMPDEST PUSH0 PUSH0 DUP3 PUSH4 0xFFFFFFFF AND SUB PUSH2 0x3356 JUMPI PUSH1 0x40 MLOAD PUSH32 0x8C379A000000000000000000000000000000000000000000000000000000000 DUP2 MSTORE PUSH1 0x4 ADD PUSH2 0x334D SWAP1 PUSH2 0x54DA JUMP JUMPDEST PUSH1 0x40 MLOAD DUP1 SWAP2 SUB SWAP1 REVERT JUMPDEST PUSH0 DUP3 PUSH1 0x3 SIGNEXTEND SWAP1 POP PUSH0 DUP2 DUP6 PUSH2 0x336A SWAP2 SWAP1 PUSH2 0x54F8 JUMP JUMPDEST SWAP1 POP PUSH0 DUP3 DUP7 PUSH2 0x3379 SWAP2 SWAP1 PUSH2 0x5560 JUMP JUMPDEST SWAP1 POP DUP2 SWAP4 POP PUSH0 DUP7 PUSH1 0x6 SIGNEXTEND SLT DUP1 ISZERO PUSH2 0x3393 JUMPI POP PUSH0 DUP2 PUSH1 0x6 SIGNEXTEND EQ ISZERO JUMPDEST ISZERO PUSH2 0x339F JUMPI PUSH1 0x1 DUP5 SUB SWAP4 POP JUMPDEST POP POP POP SWAP3 SWAP2 POP POP JUMP JUMPDEST PUSH0 PUSH0 PUSH0 DUP4 PUSH1 0x2 SIGNEXTEND SLT PUSH2 0x33BD JUMPI DUP3 PUSH1 0x2 SIGNEXTEND PUSH2 0x33CB JUMP JUMPDEST DUP3 PUSH1 0x2 SIGNEXTEND PUSH2 0x33CA SWAP1 PUSH2 0x5599 JUMP JUMPDEST JUMPDEST SWAP1 POP PUSH32 0xFFFFFFFFFFFFFFFFFFFFFFFFFFFFFFFFFFFFFFFFFFFFFFFFFFFFFFFFFFF27618 PUSH2 0x33F7 SWAP1 PUSH2 0x55DF JUMP JUMPDEST PUSH3 0xFFFFFF AND DUP2 GT ISZERO PUSH2 0x343E JUMPI PUSH1 0x40 MLOAD PUSH32 0x8C379A000000000000000000000000000000000000000000000000000000000 DUP2 MSTORE PUSH1 0x4 ADD PUSH2 0x3435 SWAP1 PUSH2 0x566F JUMP JUMPDEST PUSH1 0x40 MLOAD DUP1 SWAP2 SUB SWAP1 REVERT JUMPDEST PUSH0 PUSH0 PUSH1 0x1 DUP4 AND SUB PUSH2 0x3460 JUMPI PUSH17 0x100000000000000000000000000000000 PUSH2 0x3472 JUMP JUMPDEST PUSH16 0xFFFCB933BD6FAD37AA2D162D1A594001 JUMPDEST PUSH17 0xFFFFFFFFFFFFFFFFFFFFFFFFFFFFFFFFFF AND SWAP1 POP PUSH0 PUSH1 0x2 DUP4 AND EQ PUSH2 0x34B4 JUMPI PUSH1 0x80 PUSH16 0xFFF97272373D413259A46990580E213A DUP3 PUSH2 0x34AF SWAP2 SWAP1 PUSH2 0x4A8F JUMP JUMPDEST SWAP1 SHR SWAP1 POP JUMPDEST PUSH0 PUSH1 0x4 DUP4 AND EQ PUSH2 0x34E1 JUMPI PUSH1 0x80 PUSH16 0xFFF2E50F5F656932EF12357CF3C7FDCC DUP3 PUSH2 0x34DC SWAP2 SWAP1 PUSH2 0x4A8F JUMP JUMPDEST SWAP1 SHR SWAP1 POP JUMPDEST PUSH0 PUSH1 0x8 DUP4 AND EQ PUSH2 0x350E JUMPI PUSH1 0x80 PUSH16 0xFFE5CACA7E10E4E61C3624EAA0941CD0 DUP3 PUSH2 0x3509 SWAP2 SWAP1 PUSH2 0x4A8F JUMP JUMPDEST SWAP1 SHR SWAP1 POP JUMPDEST PUSH0 PUSH1 0x10 DUP4 AND EQ PUSH2 0x353B JUMPI PUSH1 0x80 PUSH16 0xFFCB9843D60F6159C9DB58835C926644 DUP3 PUSH2 0x3536 SWAP2 SWAP1 PUSH2 0x4A8F JUMP JUMPDEST SWAP1 SHR SWAP1 POP JUMPDEST PUSH0 PUSH1 0x20 DUP4 AND EQ PUSH2 0x3568 JUMPI PUSH1 0x80 PUSH16 0xFF973B41FA98C081472E6896DFB254C0 DUP3 PUSH2 0x3563 SWAP2 SWAP1 PUSH2 0x4A8F JUMP JUMPDEST SWAP1 SHR SWAP1 POP JUMPDEST PUSH0 PUSH1 0x40 DUP4 AND EQ PUSH2 0x3595 JUMPI PUSH1 0x80 PUSH16 0xFF2EA16466C96A3843EC78B326B52861 DUP3 PUSH2 0x3590 SWAP2 SWAP1 PUSH2 0x4A8F JUMP JUMPDEST SWAP1 SHR SWAP1 POP JUMPDEST PUSH0 PUSH1 0x80 DUP4 AND EQ PUSH2 0x35C2 JUMPI PUSH1 0x80 PUSH16 0xFE5DEE046A99A2A811C461F1969C3053 DUP3 PUSH2 0x35BD SWAP2 SWAP1 PUSH2 0x4A8F JUMP JUMPDEST SWAP1 SHR SWAP1 POP JUMPDEST PUSH0 PUSH2 0x100 DUP4 AND EQ PUSH2 0x35F0 JUMPI PUSH1 0x80 PUSH16 0xFCBE86C7900A88AEDCFFC83B479AA3A4 DUP3 PUSH2 0x35EB SWAP2 SWAP1 PUSH2 0x4A8F JUMP JUMPDEST SWAP1 SHR SWAP1 POP JUMPDEST PUSH0 PUSH2 0x200 DUP4 AND EQ PUSH2 0x361E JUMPI PUSH1 0x80 PUSH16 0xF987A7253AC413176F2B074CF7815E54 DUP3 PUSH2 0x3619 SWAP2 SWAP1 PUSH2 0x4A8F JUMP JUMPDEST SWAP1 SHR SWAP1 POP JUMPDEST PUSH0 PUSH2 0x400 DUP4 AND EQ PUSH2 0x364C JUMPI PUSH1 0x80 PUSH16 0xF3392B0822B70005940C7A398E4B70F3 DUP3 PUSH2 0x3647 SWAP2 SWAP1 PUSH2 0x4A8F JUMP JUMPDEST SWAP1 SHR SWAP1 POP JUMPDEST PUSH0 PUSH2 0x800 DUP4 AND EQ PUSH2 0x367A JUMPI PUSH1 0x80 PUSH16 0xE7159475A2C29B7443B29C7FA6E889D9 DUP3 PUSH2 0x3675 SWAP2 SWAP1 PUSH2 0x4A8F JUMP JUMPDEST SWAP1 SHR SWAP1 POP JUMPDEST PUSH0 PUSH2 0x1000 DUP4 AND EQ PUSH2 0x36A8 JUMPI PUSH1 0x80 PUSH16 0xD097F3BDFD2022B8845AD8F792AA5825 DUP3 PUSH2 0x36A3 SWAP2 SWAP1 PUSH2 0x4A8F JUMP JUMPDEST SWAP1 SHR SWAP1 POP JUMPDEST PUSH0 PUSH2 0x2000 DUP4 AND EQ PUSH2 0x36D6 JUMPI PUSH1 0x80 PUSH16 0xA9F746462D870FDF8A65DC1F90E061E5 DUP3 PUSH2 0x36D1 SWAP2 SWAP1 PUSH2 0x4A8F JUMP JUMPDEST SWAP1 SHR SWAP1 POP JUMPDEST PUSH0 PUSH2 0x4000 DUP4 AND EQ PUSH2 0x3704 JUMPI PUSH1 0x80 PUSH16 0x70D869A156D2A1B890BB3DF62BAF32F7 DUP3 PUSH2 0x36FF SWAP2 SWAP1 PUSH2 0x4A8F JUMP JUMPDEST SWAP1 SHR SWAP1 POP JUMPDEST PUSH0 PUSH2 0x8000 DUP4 AND EQ PUSH2 0x3732 JUMPI PUSH1 0x80 PUSH16 0x31BE135F97D08FD981231505542FCFA6 DUP3 PUSH2 0x372D SWAP2 SWAP1 PUSH2 0x4A8F JUMP JUMPDEST SWAP1 SHR SWAP1 POP JUMPDEST PUSH0 PUSH3 0x10000 DUP4 AND EQ PUSH2 0x3761 JUMPI PUSH1 0x80 PUSH16 0x9AA508B5B7A84E1C677DE54F3E99BC9 DUP3 PUSH2 0x375C SWAP2 SWAP1 PUSH2 0x4A8F JUMP JUMPDEST SWAP1 SHR SWAP1 POP JUMPDEST PUSH0 PUSH3 0x20000 DUP4 AND EQ PUSH2 0x378F JUMPI PUSH1 0x80 PUSH15 0x5D6AF8DEDB81196699C329225EE604 DUP3 PUSH2 0x378A SWAP2 SWAP1 PUSH2 0x4A8F JUMP JUMPDEST SWAP1 SHR SWAP1 POP JUMPDEST PUSH0 PUSH3 0x40000 DUP4 AND EQ PUSH2 0x37BC JUMPI PUSH1 0x80 PUSH14 0x2216E584F5FA1EA926041BEDFE98 DUP3 PUSH2 0x37B7 SWAP2 SWAP1 PUSH2 0x4A8F JUMP JUMPDEST SWAP1 SHR SWAP1 POP JUMPDEST PUSH0 PUSH3 0x80000 DUP4 AND EQ PUSH2 0x37E7 JUMPI PUSH1 0x80 PUSH12 0x48A170391F7DC42444E8FA2 DUP3 PUSH2 0x37E2 SWAP2 SWAP1 PUSH2 0x4A8F JUMP JUMPDEST SWAP1 SHR SWAP1 POP JUMPDEST PUSH0 DUP5 PUSH1 0x2 SIGNEXTEND SGT ISZERO PUSH2 0x3821 JUMPI DUP1 PUSH32 0xFFFFFFFFFFFFFFFFFFFFFFFFFFFFFFFFFFFFFFFFFFFFFFFFFFFFFFFFFFFFFFFF PUSH2 0x381E SWAP2 SWAP1 PUSH2 0x4AD0 JUMP JUMPDEST SWAP1 POP JUMPDEST PUSH0 PUSH5 0x100000000 DUP3 PUSH2 0x3833 SWAP2 SWAP1 PUSH2 0x568D JUMP JUMPDEST EQ PUSH2 0x383F JUMPI PUSH1 0x1 PUSH2 0x3841 JUMP JUMPDEST PUSH0 JUMPDEST PUSH1 0xFF AND PUSH1 0x20 DUP3 SWAP1 SHR PUSH2 0x3853 SWAP2 SWAP1 PUSH2 0x56BD JUMP JUMPDEST SWAP3 POP POP POP SWAP2 SWAP1 POP JUMP JUMPDEST PUSH0 PUSH0 PUSH0 PUSH0 NOT DUP6 DUP8 MULMOD DUP6 DUP8 MUL SWAP3 POP DUP3 DUP2 LT DUP4 DUP3 SUB SUB SWAP2 POP POP PUSH0 DUP2 SUB PUSH2 0x3894 JUMPI DUP4 DUP3 DUP2 PUSH2 0x388A JUMPI PUSH2 0x3889 PUSH2 0x43E3 JUMP JUMPDEST JUMPDEST DIV SWAP3 POP POP POP PUSH2 0x395F JUMP JUMPDEST DUP1 DUP5 GT PUSH2 0x38D6 JUMPI PUSH1 0x40 MLOAD PUSH32 0x8C379A000000000000000000000000000000000000000000000000000000000 DUP2 MSTORE PUSH1 0x4 ADD PUSH2 0x38CD SWAP1 PUSH2 0x573A JUMP JUMPDEST PUSH1 0x40 MLOAD DUP1 SWAP2 SUB SWAP1 REVERT JUMPDEST PUSH0 DUP5 DUP7 DUP9 MULMOD SWAP1 POP DUP3 DUP2 GT DUP3 SUB SWAP2 POP DUP1 DUP4 SUB SWAP3 POP PUSH0 PUSH1 0x1 DUP7 NOT ADD DUP7 AND SWAP1 POP DUP1 DUP7 DIV SWAP6 POP DUP1 DUP5 DIV SWAP4 POP PUSH1 0x1 DUP2 DUP3 PUSH0 SUB DIV ADD SWAP1 POP DUP1 DUP4 MUL DUP5 OR SWAP4 POP PUSH0 PUSH1 0x2 DUP8 PUSH1 0x3 MUL XOR SWAP1 POP DUP1 DUP8 MUL PUSH1 0x2 SUB DUP2 MUL SWAP1 POP DUP1 DUP8 MUL PUSH1 0x2 SUB DUP2 MUL SWAP1 POP DUP1 DUP8 MUL PUSH1 0x2 SUB DUP2 MUL SWAP1 POP DUP1 DUP8 MUL PUSH1 0x2 SUB DUP2 MUL SWAP1 POP DUP1 DUP8 MUL PUSH1 0x2 SUB DUP2 MUL SWAP1 POP DUP1 DUP8 MUL PUSH1 0x2 SUB DUP2 MUL SWAP1 POP DUP1 DUP6 MUL SWAP6 POP POP POP POP POP POP JUMPDEST SWAP4 SWAP3 POP POP POP JUMP JUMPDEST PUSH0 PUSH0 DUP5 PUSH20 0xFFFFFFFFFFFFFFFFFFFFFFFFFFFFFFFFFFFFFFFF AND PUSH4 0x95EA7B3 PUSH1 0xE0 SHL DUP6 DUP6 PUSH1 0x40 MLOAD PUSH1 0x24 ADD PUSH2 0x399A SWAP3 SWAP2 SWAP1 PUSH2 0x48B0 JUMP JUMPDEST PUSH1 0x40 MLOAD PUSH1 0x20 DUP2 DUP4 SUB SUB DUP2 MSTORE SWAP1 PUSH1 0x40 MSTORE SWAP1 PUSH28 0xFFFFFFFFFFFFFFFFFFFFFFFFFFFFFFFFFFFFFFFFFFFFFFFFFFFFFFFF NOT AND PUSH1 0x20 DUP3 ADD DUP1 MLOAD PUSH28 0xFFFFFFFFFFFFFFFFFFFFFFFFFFFFFFFFFFFFFFFFFFFFFFFFFFFFFFFF DUP4 DUP2 DUP4 AND OR DUP4 MSTORE POP POP POP POP PUSH1 0x40 MLOAD PUSH2 0x3A04 SWAP2 SWAP1 PUSH2 0x4907 JUMP JUMPDEST PUSH0 PUSH1 0x40 MLOAD DUP1 DUP4 SUB DUP2 PUSH0 DUP7 GAS CALL SWAP2 POP POP RETURNDATASIZE DUP1 PUSH0 DUP2 EQ PUSH2 0x3A3D JUMPI PUSH1 0x40 MLOAD SWAP2 POP PUSH1 0x1F NOT PUSH1 0x3F RETURNDATASIZE ADD AND DUP3 ADD PUSH1 0x40 MSTORE RETURNDATASIZE DUP3 MSTORE RETURNDATASIZE PUSH0 PUSH1 0x20 DUP5 ADD RETURNDATACOPY PUSH2 0x3A42 JUMP JUMPDEST PUSH1 0x60 SWAP2 POP JUMPDEST POP SWAP2 POP SWAP2 POP DUP2 DUP1 ISZERO PUSH2 0x3A6F JUMPI POP PUSH0 DUP2 MLOAD EQ DUP1 PUSH2 0x3A6E JUMPI POP DUP1 DUP1 PUSH1 0x20 ADD SWAP1 MLOAD DUP2 ADD SWAP1 PUSH2 0x3A6D SWAP2 SWAP1 PUSH2 0x4931 JUMP JUMPDEST JUMPDEST JUMPDEST PUSH2 0x3AAE JUMPI PUSH1 0x40 MLOAD PUSH32 0x8C379A000000000000000000000000000000000000000000000000000000000 DUP2 MSTORE PUSH1 0x4 ADD PUSH2 0x3AA5 SWAP1 PUSH2 0x57A2 JUMP JUMPDEST PUSH1 0x40 MLOAD DUP1 SWAP2 SUB SWAP1 REVERT JUMPDEST POP POP POP POP POP JUMP JUMPDEST PUSH1 0x40 MLOAD DUP1 PUSH1 0xC0 ADD PUSH1 0x40 MSTORE DUP1 PUSH1 0x60 DUP2 MSTORE PUSH1 0x20 ADD PUSH1 0x60 DUP2 MSTORE PUSH1 0x20 ADD PUSH0 DUP2 MSTORE PUSH1 0x20 ADD PUSH0 DUP2 MSTORE PUSH1 0x20 ADD PUSH0 DUP2 MSTORE PUSH1 0x20 ADD PUSH0 DUP2 MSTORE POP SWAP1 JUMP JUMPDEST PUSH1 0x40 MLOAD DUP1 PUSH1 0x60 ADD PUSH1 0x40 MSTORE DUP1 PUSH1 0x60 DUP2 MSTORE PUSH1 0x20 ADD PUSH1 0x60 DUP2 MSTORE PUSH1 0x20 ADD PUSH0 DUP2 MSTORE POP SWAP1 JUMP JUMPDEST PUSH0 PUSH1 0x40 MLOAD SWAP1 POP SWAP1 JUMP JUMPDEST PUSH0 PUSH0 REVERT JUMPDEST PUSH0 PUSH0 REVERT JUMPDEST PUSH0 PUSH20 0xFFFFFFFFFFFFFFFFFFFFFFFFFFFFFFFFFFFFFFFF DUP3 AND SWAP1 POP SWAP2 SWAP1 POP JUMP JUMPDEST PUSH0 PUSH2 0x3B41 DUP3 PUSH2 0x3B18 JUMP JUMPDEST SWAP1 POP SWAP2 SWAP1 POP JUMP JUMPDEST PUSH2 0x3B51 DUP2 PUSH2 0x3B37 JUMP JUMPDEST DUP2 EQ PUSH2 0x3B5B JUMPI PUSH0 PUSH0 REVERT JUMPDEST POP JUMP JUMPDEST PUSH0 DUP2 CALLDATALOAD SWAP1 POP PUSH2 0x3B6C DUP2 PUSH2 0x3B48 JUMP JUMPDEST SWAP3 SWAP2 POP POP JUMP JUMPDEST PUSH0 PUSH0 PUSH1 0x40 DUP4 DUP6 SUB SLT ISZERO PUSH2 0x3B88 JUMPI PUSH2 0x3B87 PUSH2 0x3B10 JUMP JUMPDEST JUMPDEST PUSH0 PUSH2 0x3B95 DUP6 DUP3 DUP7 ADD PUSH2 0x3B5E JUMP JUMPDEST SWAP3 POP POP PUSH1 0x20 PUSH2 0x3BA6 DUP6 DUP3 DUP7 ADD PUSH2 0x3B5E JUMP JUMPDEST SWAP2 POP POP SWAP3 POP SWAP3 SWAP1 POP JUMP JUMPDEST PUSH0 DUP2 SWAP1 POP SWAP2 SWAP1 POP JUMP JUMPDEST PUSH0 PUSH2 0x3BD3 PUSH2 0x3BCE PUSH2 0x3BC9 DUP5 PUSH2 0x3B18 JUMP JUMPDEST PUSH2 0x3BB0 JUMP JUMPDEST PUSH2 0x3B18 JUMP JUMPDEST SWAP1 POP SWAP2 SWAP1 POP JUMP JUMPDEST PUSH0 PUSH2 0x3BE4 DUP3 PUSH2 0x3BB9 JUMP JUMPDEST SWAP1 POP SWAP2 SWAP1 POP JUMP JUMPDEST PUSH0 PUSH2 0x3BF5 DUP3 PUSH2 0x3BDA JUMP JUMPDEST SWAP1 POP SWAP2 SWAP1 POP JUMP JUMPDEST PUSH2 0x3C05 DUP2 PUSH2 0x3BEB JUMP JUMPDEST DUP3 MSTORE POP POP JUMP JUMPDEST PUSH0 PUSH1 0x20 DUP3 ADD SWAP1 POP PUSH2 0x3C1E PUSH0 DUP4 ADD DUP5 PUSH2 0x3BFC JUMP JUMPDEST SWAP3 SWAP2 POP POP JUMP JUMPDEST PUSH0 PUSH0 REVERT JUMPDEST PUSH0 PUSH0 REVERT JUMPDEST PUSH0 PUSH0 REVERT JUMPDEST PUSH0 PUSH0 DUP4 PUSH1 0x1F DUP5 ADD SLT PUSH2 0x3C45 JUMPI PUSH2 0x3C44 PUSH2 0x3C24 JUMP JUMPDEST JUMPDEST DUP3 CALLDATALOAD SWAP1 POP PUSH8 0xFFFFFFFFFFFFFFFF DUP2 GT ISZERO PUSH2 0x3C62 JUMPI PUSH2 0x3C61 PUSH2 0x3C28 JUMP JUMPDEST JUMPDEST PUSH1 0x20 DUP4 ADD SWAP2 POP DUP4 PUSH1 0x40 DUP3 MUL DUP4 ADD GT ISZERO PUSH2 0x3C7E JUMPI PUSH2 0x3C7D PUSH2 0x3C2C JUMP JUMPDEST JUMPDEST SWAP3 POP SWAP3 SWAP1 POP JUMP JUMPDEST PUSH0 PUSH4 0xFFFFFFFF DUP3 AND SWAP1 POP SWAP2 SWAP1 POP JUMP JUMPDEST PUSH2 0x3C9D DUP2 PUSH2 0x3C85 JUMP JUMPDEST DUP2 EQ PUSH2 0x3CA7 JUMPI PUSH0 PUSH0 REVERT JUMPDEST POP JUMP JUMPDEST PUSH0 DUP2 CALLDATALOAD SWAP1 POP PUSH2 0x3CB8 DUP2 PUSH2 0x3C94 JUMP JUMPDEST SWAP3 SWAP2 POP POP JUMP JUMPDEST PUSH0 PUSH0 PUSH0 PUSH0 PUSH1 0x60 DUP6 DUP8 SUB SLT ISZERO PUSH2 0x3CD6 JUMPI PUSH2 0x3CD5 PUSH2 0x3B10 JUMP JUMPDEST JUMPDEST PUSH0 DUP6 ADD CALLDATALOAD PUSH8 0xFFFFFFFFFFFFFFFF DUP2 GT ISZERO PUSH2 0x3CF3 JUMPI PUSH2 0x3CF2 PUSH2 0x3B14 JUMP JUMPDEST JUMPDEST PUSH2 0x3CFF DUP8 DUP3 DUP9 ADD PUSH2 0x3C30 JUMP JUMPDEST SWAP5 POP SWAP5 POP POP PUSH1 0x20 PUSH2 0x3D12 DUP8 DUP3 DUP9 ADD PUSH2 0x3B5E JUMP JUMPDEST SWAP3 POP POP PUSH1 0x40 PUSH2 0x3D23 DUP8 DUP3 DUP9 ADD PUSH2 0x3CAA JUMP JUMPDEST SWAP2 POP POP SWAP3 SWAP6 SWAP2 SWAP5 POP SWAP3 POP JUMP JUMPDEST PUSH0 PUSH0 REVERT JUMPDEST PUSH0 PUSH1 0x1F NOT PUSH1 0x1F DUP4 ADD AND SWAP1 POP SWAP2 SWAP1 POP JUMP JUMPDEST PUSH32 0x4E487B7100000000000000000000000000000000000000000000000000000000 PUSH0 MSTORE PUSH1 0x41 PUSH1 0x4 MSTORE PUSH1 0x24 PUSH0 REVERT JUMPDEST PUSH2 0x3D79 DUP3 PUSH2 0x3D33 JUMP JUMPDEST DUP2 ADD DUP2 DUP2 LT PUSH8 0xFFFFFFFFFFFFFFFF DUP3 GT OR ISZERO PUSH2 0x3D98 JUMPI PUSH2 0x3D97 PUSH2 0x3D43 JUMP JUMPDEST JUMPDEST DUP1 PUSH1 0x40 MSTORE POP POP POP JUMP JUMPDEST PUSH0 PUSH2 0x3DAA PUSH2 0x3B07 JUMP JUMPDEST SWAP1 POP PUSH2 0x3DB6 DUP3 DUP3 PUSH2 0x3D70 JUMP JUMPDEST SWAP2 SWAP1 POP JUMP JUMPDEST PUSH0 PUSH8 0xFFFFFFFFFFFFFFFF DUP3 GT ISZERO PUSH2 0x3DD5 JUMPI PUSH2 0x3DD4 PUSH2 0x3D43 JUMP JUMPDEST JUMPDEST PUSH2 0x3DDE DUP3 PUSH2 0x3D33 JUMP JUMPDEST SWAP1 POP PUSH1 0x20 DUP2 ADD SWAP1 POP SWAP2 SWAP1 POP JUMP JUMPDEST DUP3 DUP2 DUP4 CALLDATACOPY PUSH0 DUP4 DUP4 ADD MSTORE POP POP POP JUMP JUMPDEST PUSH0 PUSH2 0x3E0B PUSH2 0x3E06 DUP5 PUSH2 0x3DBB JUMP JUMPDEST PUSH2 0x3DA1 JUMP JUMPDEST SWAP1 POP DUP3 DUP2 MSTORE PUSH1 0x20 DUP2 ADD DUP5 DUP5 DUP5 ADD GT ISZERO PUSH2 0x3E27 JUMPI PUSH2 0x3E26 PUSH2 0x3D2F JUMP JUMPDEST JUMPDEST PUSH2 0x3E32 DUP5 DUP3 DUP6 PUSH2 0x3DEB JUMP JUMPDEST POP SWAP4 SWAP3 POP POP POP JUMP JUMPDEST PUSH0 DUP3 PUSH1 0x1F DUP4 ADD SLT PUSH2 0x3E4E JUMPI PUSH2 0x3E4D PUSH2 0x3C24 JUMP JUMPDEST JUMPDEST DUP2 CALLDATALOAD PUSH2 0x3E5E DUP5 DUP3 PUSH1 0x20 DUP7 ADD PUSH2 0x3DF9 JUMP JUMPDEST SWAP2 POP POP SWAP3 SWAP2 POP POP JUMP JUMPDEST PUSH0 PUSH1 0x20 DUP3 DUP5 SUB SLT ISZERO PUSH2 0x3E7C JUMPI PUSH2 0x3E7B PUSH2 0x3B10 JUMP JUMPDEST JUMPDEST PUSH0 DUP3 ADD CALLDATALOAD PUSH8 0xFFFFFFFFFFFFFFFF DUP2 GT ISZERO PUSH2 0x3E99 JUMPI PUSH2 0x3E98 PUSH2 0x3B14 JUMP JUMPDEST JUMPDEST PUSH2 0x3EA5 DUP5 DUP3 DUP6 ADD PUSH2 0x3E3A JUMP JUMPDEST SWAP2 POP POP SWAP3 SWAP2 POP POP JUMP JUMPDEST PUSH2 0x3EB7 DUP2 PUSH2 0x3B37 JUMP JUMPDEST DUP3 MSTORE POP POP JUMP JUMPDEST PUSH0 PUSH1 0x20 DUP3 ADD SWAP1 POP PUSH2 0x3ED0 PUSH0 DUP4 ADD DUP5 PUSH2 0x3EAE JUMP JUMPDEST SWAP3 SWAP2 POP POP JUMP JUMPDEST PUSH0 PUSH0 DUP4 PUSH1 0x1F DUP5 ADD SLT PUSH2 0x3EEB JUMPI PUSH2 0x3EEA PUSH2 0x3C24 JUMP JUMPDEST JUMPDEST DUP3 CALLDATALOAD SWAP1 POP PUSH8 0xFFFFFFFFFFFFFFFF DUP2 GT ISZERO PUSH2 0x3F08 JUMPI PUSH2 0x3F07 PUSH2 0x3C28 JUMP JUMPDEST JUMPDEST PUSH1 0x20 DUP4 ADD SWAP2 POP DUP4 PUSH1 0x40 DUP3 MUL DUP4 ADD GT ISZERO PUSH2 0x3F24 JUMPI PUSH2 0x3F23 PUSH2 0x3C2C JUMP JUMPDEST JUMPDEST SWAP3 POP SWAP3 SWAP1 POP JUMP JUMPDEST PUSH0 PUSH2 0x3F35 DUP3 PUSH2 0x3B18 JUMP JUMPDEST SWAP1 POP SWAP2 SWAP1 POP JUMP JUMPDEST PUSH2 0x3F45 DUP2 PUSH2 0x3F2B JUMP JUMPDEST DUP2 EQ PUSH2 0x3F4F JUMPI PUSH0 PUSH0 REVERT JUMPDEST POP JUMP JUMPDEST PUSH0 DUP2 CALLDATALOAD SWAP1 POP PUSH2 0x3F60 DUP2 PUSH2 0x3F3C JUMP JUMPDEST SWAP3 SWAP2 POP POP JUMP JUMPDEST PUSH0 DUP2 ISZERO ISZERO SWAP1 POP SWAP2 SWAP1 POP JUMP JUMPDEST PUSH2 0x3F7A DUP2 PUSH2 0x3F66 JUMP JUMPDEST DUP2 EQ PUSH2 0x3F84 JUMPI PUSH0 PUSH0 REVERT JUMPDEST POP JUMP JUMPDEST PUSH0 DUP2 CALLDATALOAD SWAP1 POP PUSH2 0x3F95 DUP2 PUSH2 0x3F71 JUMP JUMPDEST SWAP3 SWAP2 POP POP JUMP JUMPDEST PUSH0 PUSH0 PUSH0 PUSH0 PUSH0 PUSH1 0x80 DUP7 DUP9 SUB SLT ISZERO PUSH2 0x3FB4 JUMPI PUSH2 0x3FB3 PUSH2 0x3B10 JUMP JUMPDEST JUMPDEST PUSH0 DUP7 ADD CALLDATALOAD PUSH8 0xFFFFFFFFFFFFFFFF DUP2 GT ISZERO PUSH2 0x3FD1 JUMPI PUSH2 0x3FD0 PUSH2 0x3B14 JUMP JUMPDEST JUMPDEST PUSH2 0x3FDD DUP9 DUP3 DUP10 ADD PUSH2 0x3ED6 JUMP JUMPDEST SWAP6 POP SWAP6 POP POP PUSH1 0x20 PUSH2 0x3FF0 DUP9 DUP3 DUP10 ADD PUSH2 0x3F52 JUMP JUMPDEST SWAP4 POP POP PUSH1 0x40 PUSH2 0x4001 DUP9 DUP3 DUP10 ADD PUSH2 0x3CAA JUMP JUMPDEST SWAP3 POP POP PUSH1 0x60 PUSH2 0x4012 DUP9 DUP3 DUP10 ADD PUSH2 0x3F87 JUMP JUMPDEST SWAP2 POP POP SWAP3 SWAP6 POP SWAP3 SWAP6 SWAP1 SWAP4 POP JUMP JUMPDEST PUSH0 PUSH2 0x4029 DUP3 PUSH2 0x3BDA JUMP JUMPDEST SWAP1 POP SWAP2 SWAP1 POP JUMP JUMPDEST PUSH2 0x4039 DUP2 PUSH2 0x401F JUMP JUMPDEST DUP3 MSTORE POP POP JUMP JUMPDEST PUSH0 PUSH1 0x20 DUP3 ADD SWAP1 POP PUSH2 0x4052 PUSH0 DUP4 ADD DUP5 PUSH2 0x4030 JUMP JUMPDEST SWAP3 SWAP2 POP POP JUMP JUMPDEST PUSH0 PUSH2 0x4062 DUP3 PUSH2 0x3BDA JUMP JUMPDEST SWAP1 POP SWAP2 SWAP1 POP JUMP JUMPDEST PUSH2 0x4072 DUP2 PUSH2 0x4058 JUMP JUMPDEST DUP3 MSTORE POP POP JUMP JUMPDEST PUSH0 PUSH1 0x20 DUP3 ADD SWAP1 POP PUSH2 0x408B PUSH0 DUP4 ADD DUP5 PUSH2 0x4069 JUMP JUMPDEST SWAP3 SWAP2 POP POP JUMP JUMPDEST PUSH0 PUSH2 0x409B DUP3 PUSH2 0x3BDA JUMP JUMPDEST SWAP1 POP SWAP2 SWAP1 POP JUMP JUMPDEST PUSH2 0x40AB DUP2 PUSH2 0x4091 JUMP JUMPDEST DUP3 MSTORE POP POP JUMP JUMPDEST PUSH0 PUSH1 0x20 DUP3 ADD SWAP1 POP PUSH2 0x40C4 PUSH0 DUP4 ADD DUP5 PUSH2 0x40A2 JUMP JUMPDEST SWAP3 SWAP2 POP POP JUMP JUMPDEST PUSH0 PUSH2 0x40D4 DUP3 PUSH2 0x3BDA JUMP JUMPDEST SWAP1 POP SWAP2 SWAP1 POP JUMP JUMPDEST PUSH2 0x40E4 DUP2 PUSH2 0x40CA JUMP JUMPDEST DUP3 MSTORE POP POP JUMP JUMPDEST PUSH0 PUSH1 0x20 DUP3 ADD SWAP1 POP PUSH2 0x40FD PUSH0 DUP4 ADD DUP5 PUSH2 0x40DB JUMP JUMPDEST SWAP3 SWAP2 POP POP JUMP JUMPDEST PUSH0 PUSH1 0x20 DUP3 DUP5 SUB SLT ISZERO PUSH2 0x4118 JUMPI PUSH2 0x4117 PUSH2 0x3B10 JUMP JUMPDEST JUMPDEST PUSH0 PUSH2 0x4125 DUP5 DUP3 DUP6 ADD PUSH2 0x3B5E JUMP JUMPDEST SWAP2 POP POP SWAP3 SWAP2 POP POP JUMP JUMPDEST PUSH0 PUSH2 0x4138 DUP3 PUSH2 0x3BDA JUMP JUMPDEST SWAP1 POP SWAP2 SWAP1 POP JUMP JUMPDEST PUSH2 0x4148 DUP2 PUSH2 0x412E JUMP JUMPDEST DUP3 MSTORE POP POP JUMP JUMPDEST PUSH0 PUSH1 0x20 DUP3 ADD SWAP1 POP PUSH2 0x4161 PUSH0 DUP4 ADD DUP5 PUSH2 0x413F JUMP JUMPDEST SWAP3 SWAP2 POP POP JUMP JUMPDEST PUSH0 DUP2 MLOAD SWAP1 POP PUSH2 0x4175 DUP2 PUSH2 0x3B48 JUMP JUMPDEST SWAP3 SWAP2 POP POP JUMP JUMPDEST PUSH0 PUSH1 0x20 DUP3 DUP5 SUB SLT ISZERO PUSH2 0x4190 JUMPI PUSH2 0x418F PUSH2 0x3B10 JUMP JUMPDEST JUMPDEST PUSH0 PUSH2 0x419D DUP5 DUP3 DUP6 ADD PUSH2 0x4167 JUMP JUMPDEST SWAP2 POP POP SWAP3 SWAP2 POP POP JUMP JUMPDEST PUSH0 DUP3 DUP3 MSTORE PUSH1 0x20 DUP3 ADD SWAP1 POP SWAP3 SWAP2 POP POP JUMP JUMPDEST PUSH32 0x43616C6C6572206973206E6F7420746865206F776E6572000000000000000000 PUSH0 DUP3 ADD MSTORE POP JUMP JUMPDEST PUSH0 PUSH2 0x41EA PUSH1 0x17 DUP4 PUSH2 0x41A6 JUMP JUMPDEST SWAP2 POP PUSH2 0x41F5 DUP3 PUSH2 0x41B6 JUMP JUMPDEST PUSH1 0x20 DUP3 ADD SWAP1 POP SWAP2 SWAP1 POP JUMP JUMPDEST PUSH0 PUSH1 0x20 DUP3 ADD SWAP1 POP DUP2 DUP2 SUB PUSH0 DUP4 ADD MSTORE PUSH2 0x4217 DUP2 PUSH2 0x41DE JUMP JUMPDEST SWAP1 POP SWAP2 SWAP1 POP JUMP JUMPDEST PUSH0 DUP2 MLOAD SWAP1 POP SWAP2 SWAP1 POP JUMP JUMPDEST DUP3 DUP2 DUP4 MCOPY PUSH0 DUP4 DUP4 ADD MSTORE POP POP POP JUMP JUMPDEST PUSH0 PUSH2 0x4240 DUP3 PUSH2 0x421E JUMP JUMPDEST PUSH2 0x424A DUP2 DUP6 PUSH2 0x41A6 JUMP JUMPDEST SWAP4 POP PUSH2 0x425A DUP2 DUP6 PUSH1 0x20 DUP7 ADD PUSH2 0x4228 JUMP JUMPDEST PUSH2 0x4263 DUP2 PUSH2 0x3D33 JUMP JUMPDEST DUP5 ADD SWAP2 POP POP SWAP3 SWAP2 POP POP JUMP JUMPDEST PUSH0 PUSH1 0x20 DUP3 ADD SWAP1 POP DUP2 DUP2 SUB PUSH0 DUP4 ADD MSTORE PUSH2 0x4286 DUP2 DUP5 PUSH2 0x4236 JUMP JUMPDEST SWAP1 POP SWAP3 SWAP2 POP POP JUMP JUMPDEST PUSH0 DUP2 SWAP1 POP SWAP2 SWAP1 POP JUMP JUMPDEST PUSH2 0x42A0 DUP2 PUSH2 0x428E JUMP JUMPDEST DUP2 EQ PUSH2 0x42AA JUMPI PUSH0 PUSH0 REVERT JUMPDEST POP JUMP JUMPDEST PUSH0 DUP2 MLOAD SWAP1 POP PUSH2 0x42BB DUP2 PUSH2 0x4297 JUMP JUMPDEST SWAP3 SWAP2 POP POP JUMP JUMPDEST PUSH0 PUSH1 0x20 DUP3 DUP5 SUB SLT ISZERO PUSH2 0x42D6 JUMPI PUSH2 0x42D5 PUSH2 0x3B10 JUMP JUMPDEST JUMPDEST PUSH0 PUSH2 0x42E3 DUP5 DUP3 DUP6 ADD PUSH2 0x42AD JUMP JUMPDEST SWAP2 POP POP SWAP3 SWAP2 POP POP JUMP JUMPDEST PUSH32 0x5265656E7472616E637947756172643A207265656E7472616E742063616C6C00 PUSH0 DUP3 ADD MSTORE POP JUMP JUMPDEST PUSH0 PUSH2 0x4320 PUSH1 0x1F DUP4 PUSH2 0x41A6 JUMP JUMPDEST SWAP2 POP PUSH2 0x432B DUP3 PUSH2 0x42EC JUMP JUMPDEST PUSH1 0x20 DUP3 ADD SWAP1 POP SWAP2 SWAP1 POP JUMP JUMPDEST PUSH0 PUSH1 0x20 DUP3 ADD SWAP1 POP DUP2 DUP2 SUB PUSH0 DUP4 ADD MSTORE PUSH2 0x434D DUP2 PUSH2 0x4314 JUMP JUMPDEST SWAP1 POP SWAP2 SWAP1 POP JUMP JUMPDEST PUSH32 0x4E487B7100000000000000000000000000000000000000000000000000000000 PUSH0 MSTORE PUSH1 0x32 PUSH1 0x4 MSTORE PUSH1 0x24 PUSH0 REVERT JUMPDEST PUSH0 PUSH2 0xFFFF DUP3 AND SWAP1 POP SWAP2 SWAP1 POP JUMP JUMPDEST PUSH2 0x4397 DUP2 PUSH2 0x4381 JUMP JUMPDEST DUP2 EQ PUSH2 0x43A1 JUMPI PUSH0 PUSH0 REVERT JUMPDEST POP JUMP JUMPDEST PUSH0 DUP2 CALLDATALOAD SWAP1 POP PUSH2 0x43B2 DUP2 PUSH2 0x438E JUMP JUMPDEST SWAP3 SWAP2 POP POP JUMP JUMPDEST PUSH0 PUSH1 0x20 DUP3 DUP5 SUB SLT ISZERO PUSH2 0x43CD JUMPI PUSH2 0x43CC PUSH2 0x3B10 JUMP JUMPDEST JUMPDEST PUSH0 PUSH2 0x43DA DUP5 DUP3 DUP6 ADD PUSH2 0x43A4 JUMP JUMPDEST SWAP2 POP POP SWAP3 SWAP2 POP POP JUMP JUMPDEST PUSH32 0x4E487B7100000000000000000000000000000000000000000000000000000000 PUSH0 MSTORE PUSH1 0x12 PUSH1 0x4 MSTORE PUSH1 0x24 PUSH0 REVERT JUMPDEST PUSH0 DUP2 MLOAD SWAP1 POP SWAP2 SWAP1 POP JUMP JUMPDEST PUSH0 DUP3 DUP3 MSTORE PUSH1 0x20 DUP3 ADD SWAP1 POP SWAP3 SWAP2 POP POP JUMP JUMPDEST PUSH0 PUSH2 0x4434 DUP3 PUSH2 0x4410 JUMP JUMPDEST PUSH2 0x443E DUP2 DUP6 PUSH2 0x441A JUMP JUMPDEST SWAP4 POP PUSH2 0x444E DUP2 DUP6 PUSH1 0x20 DUP7 ADD PUSH2 0x4228 JUMP JUMPDEST PUSH2 0x4457 DUP2 PUSH2 0x3D33 JUMP JUMPDEST DUP5 ADD SWAP2 POP POP SWAP3 SWAP2 POP POP JUMP JUMPDEST PUSH0 DUP2 MLOAD SWAP1 POP SWAP2 SWAP1 POP JUMP JUMPDEST PUSH0 DUP3 DUP3 MSTORE PUSH1 0x20 DUP3 ADD SWAP1 POP SWAP3 SWAP2 POP POP JUMP JUMPDEST PUSH0 DUP2 SWAP1 POP PUSH1 0x20 DUP3 ADD SWAP1 POP SWAP2 SWAP1 POP JUMP JUMPDEST PUSH0 DUP3 DUP3 MSTORE PUSH1 0x20 DUP3 ADD SWAP1 POP SWAP3 SWAP2 POP POP JUMP JUMPDEST PUSH0 PUSH2 0x44A5 DUP3 PUSH2 0x4410 JUMP JUMPDEST PUSH2 0x44AF DUP2 DUP6 PUSH2 0x448B JUMP JUMPDEST SWAP4 POP PUSH2 0x44BF DUP2 DUP6 PUSH1 0x20 DUP7 ADD PUSH2 0x4228 JUMP JUMPDEST PUSH2 0x44C8 DUP2 PUSH2 0x3D33 JUMP JUMPDEST DUP5 ADD SWAP2 POP POP SWAP3 SWAP2 POP POP JUMP JUMPDEST PUSH0 PUSH2 0x44DE DUP4 DUP4 PUSH2 0x449B JUMP JUMPDEST SWAP1 POP SWAP3 SWAP2 POP POP JUMP JUMPDEST PUSH0 PUSH1 0x20 DUP3 ADD SWAP1 POP SWAP2 SWAP1 POP JUMP JUMPDEST PUSH0 PUSH2 0x44FC DUP3 PUSH2 0x4462 JUMP JUMPDEST PUSH2 0x4506 DUP2 DUP6 PUSH2 0x446C JUMP JUMPDEST SWAP4 POP DUP4 PUSH1 0x20 DUP3 MUL DUP6 ADD PUSH2 0x4518 DUP6 PUSH2 0x447C JUMP JUMPDEST DUP1 PUSH0 JUMPDEST DUP6 DUP2 LT ISZERO PUSH2 0x4553 JUMPI DUP5 DUP5 SUB DUP10 MSTORE DUP2 MLOAD PUSH2 0x4534 DUP6 DUP3 PUSH2 0x44D3 JUMP JUMPDEST SWAP5 POP PUSH2 0x453F DUP4 PUSH2 0x44E6 JUMP JUMPDEST SWAP3 POP PUSH1 0x20 DUP11 ADD SWAP10 POP POP PUSH1 0x1 DUP2 ADD SWAP1 POP PUSH2 0x451B JUMP JUMPDEST POP DUP3 SWAP8 POP DUP8 SWAP6 POP POP POP POP POP POP SWAP3 SWAP2 POP POP JUMP JUMPDEST PUSH0 PUSH1 0x40 DUP3 ADD SWAP1 POP DUP2 DUP2 SUB PUSH0 DUP4 ADD MSTORE PUSH2 0x457D DUP2 DUP6 PUSH2 0x442A JUMP JUMPDEST SWAP1 POP DUP2 DUP2 SUB PUSH1 0x20 DUP4 ADD MSTORE PUSH2 0x4591 DUP2 DUP5 PUSH2 0x44F2 JUMP JUMPDEST SWAP1 POP SWAP4 SWAP3 POP POP POP JUMP JUMPDEST PUSH0 DUP2 SWAP1 POP SWAP3 SWAP2 POP POP JUMP JUMPDEST POP JUMP JUMPDEST PUSH0 PUSH2 0x45B2 PUSH0 DUP4 PUSH2 0x459A JUMP JUMPDEST SWAP2 POP PUSH2 0x45BD DUP3 PUSH2 0x45A4 JUMP JUMPDEST PUSH0 DUP3 ADD SWAP1 POP SWAP2 SWAP1 POP JUMP JUMPDEST PUSH0 PUSH2 0x45D1 DUP3 PUSH2 0x45A7 JUMP JUMPDEST SWAP2 POP DUP2 SWAP1 POP SWAP2 SWAP1 POP JUMP JUMPDEST PUSH2 0x45E4 DUP2 PUSH2 0x428E JUMP JUMPDEST DUP3 MSTORE POP POP JUMP JUMPDEST PUSH0 PUSH1 0x20 DUP3 ADD SWAP1 POP PUSH2 0x45FD PUSH0 DUP4 ADD DUP5 PUSH2 0x45DB JUMP JUMPDEST SWAP3 SWAP2 POP POP JUMP JUMPDEST PUSH32 0x4469726563746F72792063616E6E6F74206265207A65726F2061646472657373 PUSH0 DUP3 ADD MSTORE POP JUMP JUMPDEST PUSH0 PUSH2 0x4637 PUSH1 0x20 DUP4 PUSH2 0x41A6 JUMP JUMPDEST SWAP2 POP PUSH2 0x4642 DUP3 PUSH2 0x4603 JUMP JUMPDEST PUSH1 0x20 DUP3 ADD SWAP1 POP SWAP2 SWAP1 POP JUMP JUMPDEST PUSH0 PUSH1 0x20 DUP3 ADD SWAP1 POP DUP2 DUP2 SUB PUSH0 DUP4 ADD MSTORE PUSH2 0x4664 DUP2 PUSH2 0x462B JUMP JUMPDEST SWAP1 POP SWAP2 SWAP1 POP JUMP JUMPDEST PUSH32 0x4469726563746F7279206D757374206265206120636F6E747261637400000000 PUSH0 DUP3 ADD MSTORE POP JUMP JUMPDEST PUSH0 PUSH2 0x469F PUSH1 0x1C DUP4 PUSH2 0x41A6 JUMP JUMPDEST SWAP2 POP PUSH2 0x46AA DUP3 PUSH2 0x466B JUMP JUMPDEST PUSH1 0x20 DUP3 ADD SWAP1 POP SWAP2 SWAP1 POP JUMP JUMPDEST PUSH0 PUSH1 0x20 DUP3 ADD SWAP1 POP DUP2 DUP2 SUB PUSH0 DUP4 ADD MSTORE PUSH2 0x46CC DUP2 PUSH2 0x4693 JUMP JUMPDEST SWAP1 POP SWAP2 SWAP1 POP JUMP JUMPDEST PUSH32 0x4469726563746F7279206164647265737320646F6573206E6F7420696D706C65 PUSH0 DUP3 ADD MSTORE PUSH32 0x6D656E74206F776E657228290000000000000000000000000000000000000000 PUSH1 0x20 DUP3 ADD MSTORE POP JUMP JUMPDEST PUSH0 PUSH2 0x472D PUSH1 0x2C DUP4 PUSH2 0x41A6 JUMP JUMPDEST SWAP2 POP PUSH2 0x4738 DUP3 PUSH2 0x46D3 JUMP JUMPDEST PUSH1 0x40 DUP3 ADD SWAP1 POP SWAP2 SWAP1 POP JUMP JUMPDEST PUSH0 PUSH1 0x20 DUP3 ADD SWAP1 POP DUP2 DUP2 SUB PUSH0 DUP4 ADD MSTORE PUSH2 0x475A DUP2 PUSH2 0x4721 JUMP JUMPDEST SWAP1 POP SWAP2 SWAP1 POP JUMP JUMPDEST PUSH0 PUSH0 REVERT JUMPDEST PUSH0 PUSH3 0xFFFFFF DUP3 AND SWAP1 POP SWAP2 SWAP1 POP JUMP JUMPDEST PUSH2 0x477C DUP2 PUSH2 0x4765 JUMP JUMPDEST DUP2 EQ PUSH2 0x4786 JUMPI PUSH0 PUSH0 REVERT JUMPDEST POP JUMP JUMPDEST PUSH0 DUP2 MLOAD SWAP1 POP PUSH2 0x4797 DUP2 PUSH2 0x4773 JUMP JUMPDEST SWAP3 SWAP2 POP POP JUMP JUMPDEST PUSH0 PUSH1 0xFF DUP3 AND SWAP1 POP SWAP2 SWAP1 POP JUMP JUMPDEST PUSH2 0x47B2 DUP2 PUSH2 0x479D JUMP JUMPDEST DUP2 EQ PUSH2 0x47BC JUMPI PUSH0 PUSH0 REVERT JUMPDEST POP JUMP JUMPDEST PUSH0 DUP2 MLOAD SWAP1 POP PUSH2 0x47CD DUP2 PUSH2 0x47A9 JUMP JUMPDEST SWAP3 SWAP2 POP POP JUMP JUMPDEST PUSH0 PUSH8 0xFFFFFFFFFFFFFFFF DUP3 AND SWAP1 POP SWAP2 SWAP1 POP JUMP JUMPDEST PUSH2 0x47EF DUP2 PUSH2 0x47D3 JUMP JUMPDEST DUP2 EQ PUSH2 0x47F9 JUMPI PUSH0 PUSH0 REVERT JUMPDEST POP JUMP JUMPDEST PUSH0 DUP2 MLOAD SWAP1 POP PUSH2 0x480A DUP2 PUSH2 0x47E6 JUMP JUMPDEST SWAP3 SWAP2 POP POP JUMP JUMPDEST PUSH0 PUSH1 0x80 DUP3 DUP5 SUB SLT ISZERO PUSH2 0x4825 JUMPI PUSH2 0x4824 PUSH2 0x4761 JUMP JUMPDEST JUMPDEST PUSH2 0x482F PUSH1 0x80 PUSH2 0x3DA1 JUMP JUMPDEST SWAP1 POP PUSH0 PUSH2 0x483E DUP5 DUP3 DUP6 ADD PUSH2 0x4167 JUMP JUMPDEST PUSH0 DUP4 ADD MSTORE POP PUSH1 0x20 PUSH2 0x4851 DUP5 DUP3 DUP6 ADD PUSH2 0x4789 JUMP JUMPDEST PUSH1 0x20 DUP4 ADD MSTORE POP PUSH1 0x40 PUSH2 0x4865 DUP5 DUP3 DUP6 ADD PUSH2 0x47BF JUMP JUMPDEST PUSH1 0x40 DUP4 ADD MSTORE POP PUSH1 0x60 PUSH2 0x4879 DUP5 DUP3 DUP6 ADD PUSH2 0x47FC JUMP JUMPDEST PUSH1 0x60 DUP4 ADD MSTORE POP SWAP3 SWAP2 POP POP JUMP JUMPDEST PUSH0 PUSH1 0x80 DUP3 DUP5 SUB SLT ISZERO PUSH2 0x489A JUMPI PUSH2 0x4899 PUSH2 0x3B10 JUMP JUMPDEST JUMPDEST PUSH0 PUSH2 0x48A7 DUP5 DUP3 DUP6 ADD PUSH2 0x4810 JUMP JUMPDEST SWAP2 POP POP SWAP3 SWAP2 POP POP JUMP JUMPDEST PUSH0 PUSH1 0x40 DUP3 ADD SWAP1 POP PUSH2 0x48C3 PUSH0 DUP4 ADD DUP6 PUSH2 0x3EAE JUMP JUMPDEST PUSH2 0x48D0 PUSH1 0x20 DUP4 ADD DUP5 PUSH2 0x45DB JUMP JUMPDEST SWAP4 SWAP3 POP POP POP JUMP JUMPDEST PUSH0 PUSH2 0x48E1 DUP3 PUSH2 0x4410 JUMP JUMPDEST PUSH2 0x48EB DUP2 DUP6 PUSH2 0x459A JUMP JUMPDEST SWAP4 POP PUSH2 0x48FB DUP2 DUP6 PUSH1 0x20 DUP7 ADD PUSH2 0x4228 JUMP JUMPDEST DUP1 DUP5 ADD SWAP2 POP POP SWAP3 SWAP2 POP POP JUMP JUMPDEST PUSH0 PUSH2 0x4912 DUP3 DUP5 PUSH2 0x48D7 JUMP JUMPDEST SWAP2 POP DUP2 SWAP1 POP SWAP3 SWAP2 POP POP JUMP JUMPDEST PUSH0 DUP2 MLOAD SWAP1 POP PUSH2 0x492B DUP2 PUSH2 0x3F71 JUMP JUMPDEST SWAP3 SWAP2 POP POP JUMP JUMPDEST PUSH0 PUSH1 0x20 DUP3 DUP5 SUB SLT ISZERO PUSH2 0x4946 JUMPI PUSH2 0x4945 PUSH2 0x3B10 JUMP JUMPDEST JUMPDEST PUSH0 PUSH2 0x4953 DUP5 DUP3 DUP6 ADD PUSH2 0x491D JUMP JUMPDEST SWAP2 POP POP SWAP3 SWAP2 POP POP JUMP JUMPDEST PUSH32 0x5452414E534645525F4641494C45440000000000000000000000000000000000 PUSH0 DUP3 ADD MSTORE POP JUMP JUMPDEST PUSH0 PUSH2 0x4990 PUSH1 0xF DUP4 PUSH2 0x41A6 JUMP JUMPDEST SWAP2 POP PUSH2 0x499B DUP3 PUSH2 0x495C JUMP JUMPDEST PUSH1 0x20 DUP3 ADD SWAP1 POP SWAP2 SWAP1 POP JUMP JUMPDEST PUSH0 PUSH1 0x20 DUP3 ADD SWAP1 POP DUP2 DUP2 SUB PUSH0 DUP4 ADD MSTORE PUSH2 0x49BD DUP2 PUSH2 0x4984 JUMP JUMPDEST SWAP1 POP SWAP2 SWAP1 POP JUMP JUMPDEST PUSH0 PUSH1 0x40 DUP3 ADD SWAP1 POP PUSH2 0x49D7 PUSH0 DUP4 ADD DUP6 PUSH2 0x3EAE JUMP JUMPDEST PUSH2 0x49E4 PUSH1 0x20 DUP4 ADD DUP5 PUSH2 0x3EAE JUMP JUMPDEST SWAP4 SWAP3 POP POP POP JUMP JUMPDEST PUSH2 0x49F4 DUP2 PUSH2 0x4765 JUMP JUMPDEST DUP3 MSTORE POP POP JUMP JUMPDEST PUSH0 PUSH1 0x60 DUP3 ADD SWAP1 POP PUSH2 0x4A0D PUSH0 DUP4 ADD DUP7 PUSH2 0x3EAE JUMP JUMPDEST PUSH2 0x4A1A PUSH1 0x20 DUP4 ADD DUP6 PUSH2 0x3EAE JUMP JUMPDEST PUSH2 0x4A27 PUSH1 0x40 DUP4 ADD DUP5 PUSH2 0x49EB JUMP JUMPDEST SWAP5 SWAP4 POP POP POP POP JUMP JUMPDEST PUSH32 0x4E487B7100000000000000000000000000000000000000000000000000000000 PUSH0 MSTORE PUSH1 0x11 PUSH1 0x4 MSTORE PUSH1 0x24 PUSH0 REVERT JUMPDEST PUSH0 PUSH2 0x4A66 DUP3 PUSH2 0x428E JUMP JUMPDEST SWAP2 POP PUSH2 0x4A71 DUP4 PUSH2 0x428E JUMP JUMPDEST SWAP3 POP DUP3 DUP3 SUB SWAP1 POP DUP2 DUP2 GT ISZERO PUSH2 0x4A89 JUMPI PUSH2 0x4A88 PUSH2 0x4A2F JUMP JUMPDEST JUMPDEST SWAP3 SWAP2 POP POP JUMP JUMPDEST PUSH0 PUSH2 0x4A99 DUP3 PUSH2 0x428E JUMP JUMPDEST SWAP2 POP PUSH2 0x4AA4 DUP4 PUSH2 0x428E JUMP JUMPDEST SWAP3 POP DUP3 DUP3 MUL PUSH2 0x4AB2 DUP2 PUSH2 0x428E JUMP JUMPDEST SWAP2 POP DUP3 DUP3 DIV DUP5 EQ DUP4 ISZERO OR PUSH2 0x4AC9 JUMPI PUSH2 0x4AC8 PUSH2 0x4A2F JUMP JUMPDEST JUMPDEST POP SWAP3 SWAP2 POP POP JUMP JUMPDEST PUSH0 PUSH2 0x4ADA DUP3 PUSH2 0x428E JUMP JUMPDEST SWAP2 POP PUSH2 0x4AE5 DUP4 PUSH2 0x428E JUMP JUMPDEST SWAP3 POP DUP3 PUSH2 0x4AF5 JUMPI PUSH2 0x4AF4 PUSH2 0x43E3 JUMP JUMPDEST JUMPDEST DUP3 DUP3 DIV SWAP1 POP SWAP3 SWAP2 POP POP JUMP JUMPDEST PUSH0 DUP2 MLOAD SWAP1 POP SWAP2 SWAP1 POP JUMP JUMPDEST PUSH0 DUP3 DUP3 MSTORE PUSH1 0x20 DUP3 ADD SWAP1 POP SWAP3 SWAP2 POP POP JUMP JUMPDEST PUSH0 DUP2 SWAP1 POP PUSH1 0x20 DUP3 ADD SWAP1 POP SWAP2 SWAP1 POP JUMP JUMPDEST PUSH2 0x4B32 DUP2 PUSH2 0x3C85 JUMP JUMPDEST DUP3 MSTORE POP POP JUMP JUMPDEST PUSH0 PUSH2 0x4B43 DUP4 DUP4 PUSH2 0x4B29 JUMP JUMPDEST PUSH1 0x20 DUP4 ADD SWAP1 POP SWAP3 SWAP2 POP POP JUMP JUMPDEST PUSH0 PUSH1 0x20 DUP3 ADD SWAP1 POP SWAP2 SWAP1 POP JUMP JUMPDEST PUSH0 PUSH2 0x4B65 DUP3 PUSH2 0x4B00 JUMP JUMPDEST PUSH2 0x4B6F DUP2 DUP6 PUSH2 0x4B0A JUMP JUMPDEST SWAP4 POP PUSH2 0x4B7A DUP4 PUSH2 0x4B1A JUMP JUMPDEST DUP1 PUSH0 JUMPDEST DUP4 DUP2 LT ISZERO PUSH2 0x4BAA JUMPI DUP2 MLOAD PUSH2 0x4B91 DUP9 DUP3 PUSH2 0x4B38 JUMP JUMPDEST SWAP8 POP PUSH2 0x4B9C DUP4 PUSH2 0x4B4F JUMP JUMPDEST SWAP3 POP POP PUSH1 0x1 DUP2 ADD SWAP1 POP PUSH2 0x4B7D JUMP JUMPDEST POP DUP6 SWAP4 POP POP POP POP SWAP3 SWAP2 POP POP JUMP JUMPDEST PUSH0 PUSH1 0x20 DUP3 ADD SWAP1 POP DUP2 DUP2 SUB PUSH0 DUP4 ADD MSTORE PUSH2 0x4BCF DUP2 DUP5 PUSH2 0x4B5B JUMP JUMPDEST SWAP1 POP SWAP3 SWAP2 POP POP JUMP JUMPDEST PUSH0 PUSH8 0xFFFFFFFFFFFFFFFF DUP3 GT ISZERO PUSH2 0x4BF1 JUMPI PUSH2 0x4BF0 PUSH2 0x3D43 JUMP JUMPDEST JUMPDEST PUSH1 0x20 DUP3 MUL SWAP1 POP PUSH1 0x20 DUP2 ADD SWAP1 POP SWAP2 SWAP1 POP JUMP JUMPDEST PUSH0 DUP2 PUSH1 0x6 SIGNEXTEND SWAP1 POP SWAP2 SWAP1 POP JUMP JUMPDEST PUSH2 0x4C17 DUP2 PUSH2 0x4C02 JUMP JUMPDEST DUP2 EQ PUSH2 0x4C21 JUMPI PUSH0 PUSH0 REVERT JUMPDEST POP JUMP JUMPDEST PUSH0 DUP2 MLOAD SWAP1 POP PUSH2 0x4C32 DUP2 PUSH2 0x4C0E JUMP JUMPDEST SWAP3 SWAP2 POP POP JUMP JUMPDEST PUSH0 PUSH2 0x4C4A PUSH2 0x4C45 DUP5 PUSH2 0x4BD7 JUMP JUMPDEST PUSH2 0x3DA1 JUMP JUMPDEST SWAP1 POP DUP1 DUP4 DUP3 MSTORE PUSH1 0x20 DUP3 ADD SWAP1 POP PUSH1 0x20 DUP5 MUL DUP4 ADD DUP6 DUP2 GT ISZERO PUSH2 0x4C6D JUMPI PUSH2 0x4C6C PUSH2 0x3C2C JUMP JUMPDEST JUMPDEST DUP4 JUMPDEST DUP2 DUP2 LT ISZERO PUSH2 0x4C96 JUMPI DUP1 PUSH2 0x4C82 DUP9 DUP3 PUSH2 0x4C24 JUMP JUMPDEST DUP5 MSTORE PUSH1 0x20 DUP5 ADD SWAP4 POP POP PUSH1 0x20 DUP2 ADD SWAP1 POP PUSH2 0x4C6F JUMP JUMPDEST POP POP POP SWAP4 SWAP3 POP POP POP JUMP JUMPDEST PUSH0 DUP3 PUSH1 0x1F DUP4 ADD SLT PUSH2 0x4CB4 JUMPI PUSH2 0x4CB3 PUSH2 0x3C24 JUMP JUMPDEST JUMPDEST DUP2 MLOAD PUSH2 0x4CC4 DUP5 DUP3 PUSH1 0x20 DUP7 ADD PUSH2 0x4C38 JUMP JUMPDEST SWAP2 POP POP SWAP3 SWAP2 POP POP JUMP JUMPDEST PUSH0 PUSH8 0xFFFFFFFFFFFFFFFF DUP3 GT ISZERO PUSH2 0x4CE7 JUMPI PUSH2 0x4CE6 PUSH2 0x3D43 JUMP JUMPDEST JUMPDEST PUSH1 0x20 DUP3 MUL SWAP1 POP PUSH1 0x20 DUP2 ADD SWAP1 POP SWAP2 SWAP1 POP JUMP JUMPDEST PUSH2 0x4D01 DUP2 PUSH2 0x3B18 JUMP JUMPDEST DUP2 EQ PUSH2 0x4D0B JUMPI PUSH0 PUSH0 REVERT JUMPDEST POP JUMP JUMPDEST PUSH0 DUP2 MLOAD SWAP1 POP PUSH2 0x4D1C DUP2 PUSH2 0x4CF8 JUMP JUMPDEST SWAP3 SWAP2 POP POP JUMP JUMPDEST PUSH0 PUSH2 0x4D34 PUSH2 0x4D2F DUP5 PUSH2 0x4CCD JUMP JUMPDEST PUSH2 0x3DA1 JUMP JUMPDEST SWAP1 POP DUP1 DUP4 DUP3 MSTORE PUSH1 0x20 DUP3 ADD SWAP1 POP PUSH1 0x20 DUP5 MUL DUP4 ADD DUP6 DUP2 GT ISZERO PUSH2 0x4D57 JUMPI PUSH2 0x4D56 PUSH2 0x3C2C JUMP JUMPDEST JUMPDEST DUP4 JUMPDEST DUP2 DUP2 LT ISZERO PUSH2 0x4D80 JUMPI DUP1 PUSH2 0x4D6C DUP9 DUP3 PUSH2 0x4D0E JUMP JUMPDEST DUP5 MSTORE PUSH1 0x20 DUP5 ADD SWAP4 POP POP PUSH1 0x20 DUP2 ADD SWAP1 POP PUSH2 0x4D59 JUMP JUMPDEST POP POP POP SWAP4 SWAP3 POP POP POP JUMP JUMPDEST PUSH0 DUP3 PUSH1 0x1F DUP4 ADD SLT PUSH2 0x4D9E JUMPI PUSH2 0x4D9D PUSH2 0x3C24 JUMP JUMPDEST JUMPDEST DUP2 MLOAD PUSH2 0x4DAE DUP5 DUP3 PUSH1 0x20 DUP7 ADD PUSH2 0x4D22 JUMP JUMPDEST SWAP2 POP POP SWAP3 SWAP2 POP POP JUMP JUMPDEST PUSH0 PUSH0 PUSH1 0x40 DUP4 DUP6 SUB SLT ISZERO PUSH2 0x4DCD JUMPI PUSH2 0x4DCC PUSH2 0x3B10 JUMP JUMPDEST JUMPDEST PUSH0 DUP4 ADD MLOAD PUSH8 0xFFFFFFFFFFFFFFFF DUP2 GT ISZERO PUSH2 0x4DEA JUMPI PUSH2 0x4DE9 PUSH2 0x3B14 JUMP JUMPDEST JUMPDEST PUSH2 0x4DF6 DUP6 DUP3 DUP7 ADD PUSH2 0x4CA0 JUMP JUMPDEST SWAP3 POP POP PUSH1 0x20 DUP4 ADD MLOAD PUSH8 0xFFFFFFFFFFFFFFFF DUP2 GT ISZERO PUSH2 0x4E17 JUMPI PUSH2 0x4E16 PUSH2 0x3B14 JUMP JUMPDEST JUMPDEST PUSH2 0x4E23 DUP6 DUP3 DUP7 ADD PUSH2 0x4D8A JUMP JUMPDEST SWAP2 POP POP SWAP3 POP SWAP3 SWAP1 POP JUMP JUMPDEST PUSH0 DUP2 PUSH1 0x2 SIGNEXTEND SWAP1 POP SWAP2 SWAP1 POP JUMP JUMPDEST PUSH2 0x4E42 DUP2 PUSH2 0x4E2D JUMP JUMPDEST DUP2 EQ PUSH2 0x4E4C JUMPI PUSH0 PUSH0 REVERT JUMPDEST POP JUMP JUMPDEST PUSH0 DUP2 MLOAD SWAP1 POP PUSH2 0x4E5D DUP2 PUSH2 0x4E39 JUMP JUMPDEST SWAP3 SWAP2 POP POP JUMP JUMPDEST PUSH0 DUP2 MLOAD SWAP1 POP PUSH2 0x4E71 DUP2 PUSH2 0x438E JUMP JUMPDEST SWAP3 SWAP2 POP POP JUMP JUMPDEST PUSH0 PUSH0 PUSH0 PUSH0 PUSH0 PUSH0 PUSH0 PUSH1 0xE0 DUP9 DUP11 SUB SLT ISZERO PUSH2 0x4E92 JUMPI PUSH2 0x4E91 PUSH2 0x3B10 JUMP JUMPDEST JUMPDEST PUSH0 PUSH2 0x4E9F DUP11 DUP3 DUP12 ADD PUSH2 0x4D0E JUMP JUMPDEST SWAP8 POP POP PUSH1 0x20 PUSH2 0x4EB0 DUP11 DUP3 DUP12 ADD PUSH2 0x4E4F JUMP JUMPDEST SWAP7 POP POP PUSH1 0x40 PUSH2 0x4EC1 DUP11 DUP3 DUP12 ADD PUSH2 0x4E63 JUMP JUMPDEST SWAP6 POP POP PUSH1 0x60 PUSH2 0x4ED2 DUP11 DUP3 DUP12 ADD PUSH2 0x4E63 JUMP JUMPDEST SWAP5 POP POP PUSH1 0x80 PUSH2 0x4EE3 DUP11 DUP3 DUP12 ADD PUSH2 0x4E63 JUMP JUMPDEST SWAP4 POP POP PUSH1 0xA0 PUSH2 0x4EF4 DUP11 DUP3 DUP12 ADD PUSH2 0x47BF JUMP JUMPDEST SWAP3 POP POP PUSH1 0xC0 PUSH2 0x4F05 DUP11 DUP3 DUP12 ADD PUSH2 0x491D JUMP JUMPDEST SWAP2 POP POP SWAP3 SWAP6 SWAP9 SWAP2 SWAP5 SWAP8 POP SWAP3 SWAP6 POP JUMP JUMPDEST PUSH0 DUP2 PUSH1 0x60 SHL SWAP1 POP SWAP2 SWAP1 POP JUMP JUMPDEST PUSH0 PUSH2 0x4F2A DUP3 PUSH2 0x4F14 JUMP JUMPDEST SWAP1 POP SWAP2 SWAP1 POP JUMP JUMPDEST PUSH0 PUSH2 0x4F3B DUP3 PUSH2 0x4F20 JUMP JUMPDEST SWAP1 POP SWAP2 SWAP1 POP JUMP JUMPDEST PUSH2 0x4F53 PUSH2 0x4F4E DUP3 PUSH2 0x3B37 JUMP JUMPDEST PUSH2 0x4F31 JUMP JUMPDEST DUP3 MSTORE POP POP JUMP JUMPDEST PUSH0 DUP2 PUSH1 0xE8 SHL SWAP1 POP SWAP2 SWAP1 POP JUMP JUMPDEST PUSH0 PUSH2 0x4F6F DUP3 PUSH2 0x4F59 JUMP JUMPDEST SWAP1 POP SWAP2 SWAP1 POP JUMP JUMPDEST PUSH2 0x4F87 PUSH2 0x4F82 DUP3 PUSH2 0x4765 JUMP JUMPDEST PUSH2 0x4F65 JUMP JUMPDEST DUP3 MSTORE POP POP JUMP JUMPDEST PUSH0 PUSH2 0x4F98 DUP3 DUP7 PUSH2 0x4F42 JUMP JUMPDEST PUSH1 0x14 DUP3 ADD SWAP2 POP PUSH2 0x4FA8 DUP3 DUP6 PUSH2 0x4F76 JUMP JUMPDEST PUSH1 0x3 DUP3 ADD SWAP2 POP PUSH2 0x4FB8 DUP3 DUP5 PUSH2 0x4F42 JUMP JUMPDEST PUSH1 0x14 DUP3 ADD SWAP2 POP DUP2 SWAP1 POP SWAP5 SWAP4 POP POP POP POP JUMP JUMPDEST PUSH2 0x4FD2 DUP2 PUSH2 0x3F66 JUMP JUMPDEST DUP3 MSTORE POP POP JUMP JUMPDEST PUSH0 PUSH1 0xA0 DUP3 ADD SWAP1 POP PUSH2 0x4FEB PUSH0 DUP4 ADD DUP9 PUSH2 0x3EAE JUMP JUMPDEST PUSH2 0x4FF8 PUSH1 0x20 DUP4 ADD DUP8 PUSH2 0x45DB JUMP JUMPDEST PUSH2 0x5005 PUSH1 0x40 DUP4 ADD DUP7 PUSH2 0x45DB JUMP JUMPDEST DUP2 DUP2 SUB PUSH1 0x60 DUP4 ADD MSTORE PUSH2 0x5017 DUP2 DUP6 PUSH2 0x442A JUMP JUMPDEST SWAP1 POP PUSH2 0x5026 PUSH1 0x80 DUP4 ADD DUP5 PUSH2 0x4FC9 JUMP JUMPDEST SWAP7 SWAP6 POP POP POP POP POP POP JUMP JUMPDEST PUSH0 DUP2 MLOAD SWAP1 POP SWAP2 SWAP1 POP JUMP JUMPDEST PUSH0 DUP3 DUP3 MSTORE PUSH1 0x20 DUP3 ADD SWAP1 POP SWAP3 SWAP2 POP POP JUMP JUMPDEST PUSH0 DUP2 SWAP1 POP PUSH1 0x20 DUP3 ADD SWAP1 POP SWAP2 SWAP1 POP JUMP JUMPDEST PUSH2 0x5062 DUP2 PUSH2 0x3B37 JUMP JUMPDEST DUP3 MSTORE POP POP JUMP JUMPDEST PUSH0 PUSH2 0x5073 DUP4 DUP4 PUSH2 0x5059 JUMP JUMPDEST PUSH1 0x20 DUP4 ADD SWAP1 POP SWAP3 SWAP2 POP POP JUMP JUMPDEST PUSH0 PUSH1 0x20 DUP3 ADD SWAP1 POP SWAP2 SWAP1 POP JUMP JUMPDEST PUSH0 PUSH2 0x5095 DUP3 PUSH2 0x5030 JUMP JUMPDEST PUSH2 0x509F DUP2 DUP6 PUSH2 0x503A JUMP JUMPDEST SWAP4 POP PUSH2 0x50AA DUP4 PUSH2 0x504A JUMP JUMPDEST DUP1 PUSH0 JUMPDEST DUP4 DUP2 LT ISZERO PUSH2 0x50DA JUMPI DUP2 MLOAD PUSH2 0x50C1 DUP9 DUP3 PUSH2 0x5068 JUMP JUMPDEST SWAP8 POP PUSH2 0x50CC DUP4 PUSH2 0x507F JUMP JUMPDEST SWAP3 POP POP PUSH1 0x1 DUP2 ADD SWAP1 POP PUSH2 0x50AD JUMP JUMPDEST POP DUP6 SWAP4 POP POP POP POP SWAP3 SWAP2 POP POP JUMP JUMPDEST PUSH0 PUSH1 0x40 DUP3 ADD SWAP1 POP PUSH2 0x50FA PUSH0 DUP4 ADD DUP6 PUSH2 0x45DB JUMP JUMPDEST DUP2 DUP2 SUB PUSH1 0x20 DUP4 ADD MSTORE PUSH2 0x510C DUP2 DUP5 PUSH2 0x508B JUMP JUMPDEST SWAP1 POP SWAP4 SWAP3 POP POP POP JUMP JUMPDEST PUSH0 PUSH8 0xFFFFFFFFFFFFFFFF DUP3 GT ISZERO PUSH2 0x512F JUMPI PUSH2 0x512E PUSH2 0x3D43 JUMP JUMPDEST JUMPDEST PUSH1 0x20 DUP3 MUL SWAP1 POP PUSH1 0x20 DUP2 ADD SWAP1 POP SWAP2 SWAP1 POP JUMP JUMPDEST PUSH0 PUSH2 0x5152 PUSH2 0x514D DUP5 PUSH2 0x5115 JUMP JUMPDEST PUSH2 0x3DA1 JUMP JUMPDEST SWAP1 POP DUP1 DUP4 DUP3 MSTORE PUSH1 0x20 DUP3 ADD SWAP1 POP PUSH1 0x20 DUP5 MUL DUP4 ADD DUP6 DUP2 GT ISZERO PUSH2 0x5175 JUMPI PUSH2 0x5174 PUSH2 0x3C2C JUMP JUMPDEST JUMPDEST DUP4 JUMPDEST DUP2 DUP2 LT ISZERO PUSH2 0x519E JUMPI DUP1 PUSH2 0x518A DUP9 DUP3 PUSH2 0x42AD JUMP JUMPDEST DUP5 MSTORE PUSH1 0x20 DUP5 ADD SWAP4 POP POP PUSH1 0x20 DUP2 ADD SWAP1 POP PUSH2 0x5177 JUMP JUMPDEST POP POP POP SWAP4 SWAP3 POP POP POP JUMP JUMPDEST PUSH0 DUP3 PUSH1 0x1F DUP4 ADD SLT PUSH2 0x51BC JUMPI PUSH2 0x51BB PUSH2 0x3C24 JUMP JUMPDEST JUMPDEST DUP2 MLOAD PUSH2 0x51CC DUP5 DUP3 PUSH1 0x20 DUP7 ADD PUSH2 0x5140 JUMP JUMPDEST SWAP2 POP POP SWAP3 SWAP2 POP POP JUMP JUMPDEST PUSH0 PUSH1 0x20 DUP3 DUP5 SUB SLT ISZERO PUSH2 0x51EA JUMPI PUSH2 0x51E9 PUSH2 0x3B10 JUMP JUMPDEST JUMPDEST PUSH0 DUP3 ADD MLOAD PUSH8 0xFFFFFFFFFFFFFFFF DUP2 GT ISZERO PUSH2 0x5207 JUMPI PUSH2 0x5206 PUSH2 0x3B14 JUMP JUMPDEST JUMPDEST PUSH2 0x5213 DUP5 DUP3 DUP6 ADD PUSH2 0x51A8 JUMP JUMPDEST SWAP2 POP POP SWAP3 SWAP2 POP POP JUMP JUMPDEST PUSH0 PUSH1 0xA0 DUP3 ADD SWAP1 POP PUSH2 0x522F PUSH0 DUP4 ADD DUP9 PUSH2 0x3EAE JUMP JUMPDEST PUSH2 0x523C PUSH1 0x20 DUP4 ADD DUP8 PUSH2 0x45DB JUMP JUMPDEST PUSH2 0x5249 PUSH1 0x40 DUP4 ADD DUP7 PUSH2 0x45DB JUMP JUMPDEST DUP2 DUP2 SUB PUSH1 0x60 DUP4 ADD MSTORE PUSH2 0x525B DUP2 DUP6 PUSH2 0x508B JUMP JUMPDEST SWAP1 POP PUSH2 0x526A PUSH1 0x80 DUP4 ADD DUP5 PUSH2 0x4FC9 JUMP JUMPDEST SWAP7 SWAP6 POP POP POP POP POP POP JUMP JUMPDEST PUSH0 PUSH1 0x60 DUP3 ADD SWAP1 POP PUSH2 0x5287 PUSH0 DUP4 ADD DUP7 PUSH2 0x3EAE JUMP JUMPDEST PUSH2 0x5294 PUSH1 0x20 DUP4 ADD DUP6 PUSH2 0x3EAE JUMP JUMPDEST PUSH2 0x52A1 PUSH1 0x40 DUP4 ADD DUP5 PUSH2 0x45DB JUMP JUMPDEST SWAP5 SWAP4 POP POP POP POP JUMP JUMPDEST PUSH32 0x5452414E534645525F46524F4D5F4641494C4544000000000000000000000000 PUSH0 DUP3 ADD MSTORE POP JUMP JUMPDEST PUSH0 PUSH2 0x52DD PUSH1 0x14 DUP4 PUSH2 0x41A6 JUMP JUMPDEST SWAP2 POP PUSH2 0x52E8 DUP3 PUSH2 0x52A9 JUMP JUMPDEST PUSH1 0x20 DUP3 ADD SWAP1 POP SWAP2 SWAP1 POP JUMP JUMPDEST PUSH0 PUSH1 0x20 DUP3 ADD SWAP1 POP DUP2 DUP2 SUB PUSH0 DUP4 ADD MSTORE PUSH2 0x530A DUP2 PUSH2 0x52D1 JUMP JUMPDEST SWAP1 POP SWAP2 SWAP1 POP JUMP JUMPDEST PUSH0 PUSH2 0x531B DUP3 PUSH2 0x4C02 JUMP JUMPDEST SWAP2 POP PUSH2 0x5326 DUP4 PUSH2 0x4C02 JUMP JUMPDEST SWAP3 POP DUP3 DUP3 SUB SWAP1 POP PUSH7 0x7FFFFFFFFFFFFF DUP2 SGT PUSH32 0xFFFFFFFFFFFFFFFFFFFFFFFFFFFFFFFFFFFFFFFFFFFFFFFFFF80000000000000 DUP3 SLT OR ISZERO PUSH2 0x5369 JUMPI PUSH2 0x5368 PUSH2 0x4A2F JUMP JUMPDEST JUMPDEST SWAP3 SWAP2 POP POP JUMP JUMPDEST PUSH0 PUSH1 0x60 DUP3 ADD SWAP1 POP PUSH2 0x5382 PUSH0 DUP4 ADD DUP7 PUSH2 0x3EAE JUMP JUMPDEST PUSH2 0x538F PUSH1 0x20 DUP4 ADD DUP6 PUSH2 0x3EAE JUMP JUMPDEST PUSH2 0x539C PUSH1 0x40 DUP4 ADD DUP5 PUSH2 0x3EAE JUMP JUMPDEST SWAP5 SWAP4 POP POP POP POP JUMP JUMPDEST PUSH0 PUSH6 0xFFFFFFFFFFFF DUP3 AND SWAP1 POP SWAP2 SWAP1 POP JUMP JUMPDEST PUSH2 0x53BE DUP2 PUSH2 0x53A4 JUMP JUMPDEST DUP2 EQ PUSH2 0x53C8 JUMPI PUSH0 PUSH0 REVERT JUMPDEST POP JUMP JUMPDEST PUSH0 DUP2 MLOAD SWAP1 POP PUSH2 0x53D9 DUP2 PUSH2 0x53B5 JUMP JUMPDEST SWAP3 SWAP2 POP POP JUMP JUMPDEST PUSH0 PUSH0 PUSH0 PUSH1 0x60 DUP5 DUP7 SUB SLT ISZERO PUSH2 0x53F6 JUMPI PUSH2 0x53F5 PUSH2 0x3B10 JUMP JUMPDEST JUMPDEST PUSH0 PUSH2 0x5403 DUP7 DUP3 DUP8 ADD PUSH2 0x4D0E JUMP JUMPDEST SWAP4 POP POP PUSH1 0x20 PUSH2 0x5414 DUP7 DUP3 DUP8 ADD PUSH2 0x53CB JUMP JUMPDEST SWAP3 POP POP PUSH1 0x40 PUSH2 0x5425 DUP7 DUP3 DUP8 ADD PUSH2 0x53CB JUMP JUMPDEST SWAP2 POP POP SWAP3 POP SWAP3 POP SWAP3 JUMP JUMPDEST PUSH2 0x5438 DUP2 PUSH2 0x3B18 JUMP JUMPDEST DUP3 MSTORE POP POP JUMP JUMPDEST PUSH2 0x5447 DUP2 PUSH2 0x53A4 JUMP JUMPDEST DUP3 MSTORE POP POP JUMP JUMPDEST PUSH0 PUSH1 0x80 DUP3 ADD SWAP1 POP PUSH2 0x5460 PUSH0 DUP4 ADD DUP8 PUSH2 0x3EAE JUMP JUMPDEST PUSH2 0x546D PUSH1 0x20 DUP4 ADD DUP7 PUSH2 0x3EAE JUMP JUMPDEST PUSH2 0x547A PUSH1 0x40 DUP4 ADD DUP6 PUSH2 0x542F JUMP JUMPDEST PUSH2 0x5487 PUSH1 0x60 DUP4 ADD DUP5 PUSH2 0x543E JUMP JUMPDEST SWAP6 SWAP5 POP POP POP POP POP JUMP JUMPDEST PUSH32 0x4250000000000000000000000000000000000000000000000000000000000000 PUSH0 DUP3 ADD MSTORE POP JUMP JUMPDEST PUSH0 PUSH2 0x54C4 PUSH1 0x2 DUP4 PUSH2 0x41A6 JUMP JUMPDEST SWAP2 POP PUSH2 0x54CF DUP3 PUSH2 0x5490 JUMP JUMPDEST PUSH1 0x20 DUP3 ADD SWAP1 POP SWAP2 SWAP1 POP JUMP JUMPDEST PUSH0 PUSH1 0x20 DUP3 ADD SWAP1 POP DUP2 DUP2 SUB PUSH0 DUP4 ADD MSTORE PUSH2 0x54F1 DUP2 PUSH2 0x54B8 JUMP JUMPDEST SWAP1 POP SWAP2 SWAP1 POP JUMP JUMPDEST PUSH0 PUSH2 0x5502 DUP3 PUSH2 0x4C02 JUMP JUMPDEST SWAP2 POP PUSH2 0x550D DUP4 PUSH2 0x4C02 JUMP JUMPDEST SWAP3 POP DUP3 PUSH2 0x551D JUMPI PUSH2 0x551C PUSH2 0x43E3 JUMP JUMPDEST JUMPDEST PUSH1 0x1 PUSH0 SUB DUP4 EQ PUSH32 0xFFFFFFFFFFFFFFFFFFFFFFFFFFFFFFFFFFFFFFFFFFFFFFFFFF80000000000000 DUP4 EQ AND ISZERO PUSH2 0x5555 JUMPI PUSH2 0x5554 PUSH2 0x4A2F JUMP JUMPDEST JUMPDEST DUP3 DUP3 SDIV SWAP1 POP SWAP3 SWAP2 POP POP JUMP JUMPDEST PUSH0 PUSH2 0x556A DUP3 PUSH2 0x4C02 JUMP JUMPDEST SWAP2 POP PUSH2 0x5575 DUP4 PUSH2 0x4C02 JUMP JUMPDEST SWAP3 POP DUP3 PUSH2 0x5585 JUMPI PUSH2 0x5584 PUSH2 0x43E3 JUMP JUMPDEST JUMPDEST DUP3 DUP3 SMOD SWAP1 POP SWAP3 SWAP2 POP POP JUMP JUMPDEST PUSH0 DUP2 SWAP1 POP SWAP2 SWAP1 POP JUMP JUMPDEST PUSH0 PUSH2 0x55A3 DUP3 PUSH2 0x5590 JUMP JUMPDEST SWAP2 POP PUSH32 0x8000000000000000000000000000000000000000000000000000000000000000 DUP3 SUB PUSH2 0x55D5 JUMPI PUSH2 0x55D4 PUSH2 0x4A2F JUMP JUMPDEST JUMPDEST DUP2 PUSH0 SUB SWAP1 POP SWAP2 SWAP1 POP JUMP JUMPDEST PUSH0 PUSH2 0x55E9 DUP3 PUSH2 0x4E2D JUMP JUMPDEST SWAP2 POP PUSH32 0xFFFFFFFFFFFFFFFFFFFFFFFFFFFFFFFFFFFFFFFFFFFFFFFFFFFFFFFFFF800000 DUP3 SUB PUSH2 0x561B JUMPI PUSH2 0x561A PUSH2 0x4A2F JUMP JUMPDEST JUMPDEST DUP2 PUSH0 SUB SWAP1 POP SWAP2 SWAP1 POP JUMP JUMPDEST PUSH32 0x5400000000000000000000000000000000000000000000000000000000000000 PUSH0 DUP3 ADD MSTORE POP JUMP JUMPDEST PUSH0 PUSH2 0x5659 PUSH1 0x1 DUP4 PUSH2 0x41A6 JUMP JUMPDEST SWAP2 POP PUSH2 0x5664 DUP3 PUSH2 0x5625 JUMP JUMPDEST PUSH1 0x20 DUP3 ADD SWAP1 POP SWAP2 SWAP1 POP JUMP JUMPDEST PUSH0 PUSH1 0x20 DUP3 ADD SWAP1 POP DUP2 DUP2 SUB PUSH0 DUP4 ADD MSTORE PUSH2 0x5686 DUP2 PUSH2 0x564D JUMP JUMPDEST SWAP1 POP SWAP2 SWAP1 POP JUMP JUMPDEST PUSH0 PUSH2 0x5697 DUP3 PUSH2 0x428E JUMP JUMPDEST SWAP2 POP PUSH2 0x56A2 DUP4 PUSH2 0x428E JUMP JUMPDEST SWAP3 POP DUP3 PUSH2 0x56B2 JUMPI PUSH2 0x56B1 PUSH2 0x43E3 JUMP JUMPDEST JUMPDEST DUP3 DUP3 MOD SWAP1 POP SWAP3 SWAP2 POP POP JUMP JUMPDEST PUSH0 PUSH2 0x56C7 DUP3 PUSH2 0x428E JUMP JUMPDEST SWAP2 POP PUSH2 0x56D2 DUP4 PUSH2 0x428E JUMP JUMPDEST SWAP3 POP DUP3 DUP3 ADD SWAP1 POP DUP1 DUP3 GT ISZERO PUSH2 0x56EA JUMPI PUSH2 0x56E9 PUSH2 0x4A2F JUMP JUMPDEST JUMPDEST SWAP3 SWAP2 POP POP JUMP JUMPDEST PUSH32 0x6D756C446976206F766572666C6F770000000000000000000000000000000000 PUSH0 DUP3 ADD MSTORE POP JUMP JUMPDEST PUSH0 PUSH2 0x5724 PUSH1 0xF DUP4 PUSH2 0x41A6 JUMP JUMPDEST SWAP2 POP PUSH2 0x572F DUP3 PUSH2 0x56F0 JUMP JUMPDEST PUSH1 0x20 DUP3 ADD SWAP1 POP SWAP2 SWAP1 POP JUMP JUMPDEST PUSH0 PUSH1 0x20 DUP3 ADD SWAP1 POP DUP2 DUP2 SUB PUSH0 DUP4 ADD MSTORE PUSH2 0x5751 DUP2 PUSH2 0x5718 JUMP JUMPDEST SWAP1 POP SWAP2 SWAP1 POP JUMP JUMPDEST PUSH32 0x415050524F56455F4641494C4544000000000000000000000000000000000000 PUSH0 DUP3 ADD MSTORE POP JUMP JUMPDEST PUSH0 PUSH2 0x578C PUSH1 0xE DUP4 PUSH2 0x41A6 JUMP JUMPDEST SWAP2 POP PUSH2 0x5797 DUP3 PUSH2 0x5758 JUMP JUMPDEST PUSH1 0x20 DUP3 ADD SWAP1 POP SWAP2 SWAP1 POP JUMP JUMPDEST PUSH0 PUSH1 0x20 DUP3 ADD SWAP1 POP DUP2 DUP2 SUB PUSH0 DUP4 ADD MSTORE PUSH2 0x57B9 DUP2 PUSH2 0x5780 JUMP JUMPDEST SWAP1 POP SWAP2 SWAP1 POP JUMP INVALID LOG2 PUSH5 0x6970667358 0x22 SLT KECCAK256 0xA8 DUP2 RETURNDATACOPY 0xB3 0x4D PUSH11 0x236F9554338A9184BF9154 SWAP9 0x2A 0x2D LOG0 PUSH11 0x8AB360B686FE9EE1CDF064 PUSH20 0x6F6C634300081E00330000000000000000000000 "
		},
		"gasEstimates": {
			"creation": {
				"codeDepositCost": "4503600",
				"executionCost": "infinite",
				"totalCost": "infinite"
			},
			"external": {
				"Directory()": "infinite",
				"changeDirectoryAddress(address)": "infinite",
				"fetchFromDirectory(string)": "infinite",
				"owner()": "infinite",
				"permit2()": "infinite",
				"recoverAsset(address,address)": "infinite",
				"swapEthToMultipleTokens((address,uint16)[],address,uint32)": "infinite",
				"swapMultipleTokensToEth((address,uint256)[],address,uint32,bool)": "infinite",
				"uRouter()": "infinite",
				"v2Factory()": "infinite",
				"v2Router()": "infinite",
				"v3Factory()": "infinite",
				"wethAddress()": "infinite"
			}
		},
		"methodIdentifiers": {
			"Directory()": "658a847a",
			"changeDirectoryAddress(address)": "ba4c7be1",
			"fetchFromDirectory(string)": "27262618",
			"owner()": "8da5cb5b",
			"permit2()": "12261ee7",
			"recoverAsset(address,address)": "09053ac4",
			"swapEthToMultipleTokens((address,uint16)[],address,uint32)": "1623306b",
			"swapMultipleTokensToEth((address,uint256)[],address,uint32,bool)": "3814bc6e",
			"uRouter()": "5cf39049",
			"v2Factory()": "b4b57c39",
			"v2Router()": "deadbc14",
			"v3Factory()": "7c887c59",
			"wethAddress()": "4f0e0ef3"
		}
	},
	"abi": [
		{
			"inputs": [
				{
					"internalType": "address",
					"name": "_directory",
					"type": "address"
				},
				{
					"internalType": "address",
					"name": "_v2Router",
					"type": "address"
				},
				{
					"internalType": "address",
					"name": "_v3Factory",
					"type": "address"
				},
				{
					"internalType": "address",
					"name": "_universalRouter",
					"type": "address"
				},
				{
					"internalType": "address",
					"name": "_permit2",
					"type": "address"
				}
			],
			"stateMutability": "nonpayable",
			"type": "constructor"
		},
		{
			"inputs": [],
			"name": "AllowanceTooLow",
			"type": "error"
		},
		{
			"inputs": [],
			"name": "BadToken",
			"type": "error"
		},
		{
			"inputs": [],
			"name": "ETHSendFailed",
			"type": "error"
		},
		{
			"inputs": [],
			"name": "ETHSendFailure",
			"type": "error"
		},
		{
			"inputs": [],
			"name": "InsufficientETH",
			"type": "error"
		},
		{
			"inputs": [],
			"name": "InvalidInput",
			"type": "error"
		},
		{
			"inputs": [],
			"name": "NoPoolFound",
			"type": "error"
		},
		{
			"inputs": [],
			"name": "NoSwaps",
			"type": "error"
		},
		{
			"inputs": [],
			"name": "NothingReceived",
			"type": "error"
		},
		{
			"inputs": [],
			"name": "PreTransferInsufficient",
			"type": "error"
		},
		{
			"inputs": [],
			"name": "QuoteUnavailable",
			"type": "error"
		},
		{
			"inputs": [],
			"name": "WeightsInvalid",
			"type": "error"
		},
		{
			"inputs": [],
			"name": "ZeroAddress",
			"type": "error"
		},
		{
			"inputs": [],
			"name": "ZeroAmount",
			"type": "error"
		},
		{
			"inputs": [],
			"name": "Directory",
			"outputs": [
				{
					"internalType": "contract IDirectory",
					"name": "",
					"type": "address"
				}
			],
			"stateMutability": "view",
			"type": "function"
		},
		{
			"inputs": [
				{
					"internalType": "address",
					"name": "_directory",
					"type": "address"
				}
			],
			"name": "changeDirectoryAddress",
			"outputs": [],
			"stateMutability": "nonpayable",
			"type": "function"
		},
		{
			"inputs": [
				{
					"internalType": "string",
					"name": "_key",
					"type": "string"
				}
			],
			"name": "fetchFromDirectory",
			"outputs": [
				{
					"internalType": "address",
					"name": "",
					"type": "address"
				}
			],
			"stateMutability": "view",
			"type": "function"
		},
		{
			"inputs": [],
			"name": "owner",
			"outputs": [
				{
					"internalType": "address",
					"name": "",
					"type": "address"
				}
			],
			"stateMutability": "view",
			"type": "function"
		},
		{
			"inputs": [],
			"name": "permit2",
			"outputs": [
				{
					"internalType": "contract IPermit2",
					"name": "",
					"type": "address"
				}
			],
			"stateMutability": "view",
			"type": "function"
		},
		{
			"inputs": [
				{
					"internalType": "address",
					"name": "tokenAddress",
					"type": "address"
				},
				{
					"internalType": "address",
					"name": "toAddress",
					"type": "address"
				}
			],
			"name": "recoverAsset",
			"outputs": [],
			"stateMutability": "nonpayable",
			"type": "function"
		},
		{
			"inputs": [
				{
					"components": [
						{
							"internalType": "address",
							"name": "tokenAddress",
							"type": "address"
						},
						{
							"internalType": "uint16",
							"name": "weightBips",
							"type": "uint16"
						}
					],
					"internalType": "struct MultiTokenOutput[]",
					"name": "outputs",
					"type": "tuple[]"
				},
				{
					"internalType": "address",
					"name": "recipientAddress",
					"type": "address"
				},
				{
					"internalType": "uint32",
					"name": "slippageBps",
					"type": "uint32"
				}
			],
			"name": "swapEthToMultipleTokens",
			"outputs": [],
			"stateMutability": "payable",
			"type": "function"
		},
		{
			"inputs": [
				{
					"components": [
						{
							"internalType": "address",
							"name": "tokenAddress",
							"type": "address"
						},
						{
							"internalType": "uint256",
							"name": "amount",
							"type": "uint256"
						}
					],
					"internalType": "struct MultiTokenInput[]",
					"name": "inputsIn",
					"type": "tuple[]"
				},
				{
					"internalType": "address payable",
					"name": "recipientAddress",
					"type": "address"
				},
				{
					"internalType": "uint32",
					"name": "slippageBps",
					"type": "uint32"
				},
				{
					"internalType": "bool",
					"name": "preTransferred",
					"type": "bool"
				}
			],
			"name": "swapMultipleTokensToEth",
			"outputs": [],
			"stateMutability": "nonpayable",
			"type": "function"
		},
		{
			"inputs": [],
			"name": "uRouter",
			"outputs": [
				{
					"internalType": "contract IUniversalRouter",
					"name": "",
					"type": "address"
				}
			],
			"stateMutability": "view",
			"type": "function"
		},
		{
			"inputs": [],
			"name": "v2Factory",
			"outputs": [
				{
					"internalType": "contract IUniswapV2Factory",
					"name": "",
					"type": "address"
				}
			],
			"stateMutability": "view",
			"type": "function"
		},
		{
			"inputs": [],
			"name": "v2Router",
			"outputs": [
				{
					"internalType": "contract IUniswapV2Router02",
					"name": "",
					"type": "address"
				}
			],
			"stateMutability": "view",
			"type": "function"
		},
		{
			"inputs": [],
			"name": "v3Factory",
			"outputs": [
				{
					"internalType": "contract IUniswapV3Factory",
					"name": "",
					"type": "address"
				}
			],
			"stateMutability": "view",
			"type": "function"
		},
		{
			"inputs": [],
			"name": "wethAddress",
			"outputs": [
				{
					"internalType": "address",
					"name": "",
					"type": "address"
				}
			],
			"stateMutability": "view",
			"type": "function"
		},
		{
			"stateMutability": "payable",
			"type": "receive"
		}
	]
}