{
	"data": {
		"bytecode": {
			"linkReferences": {},
			"object": "610160604052615460600255348015610016575f5ffd5b5060405161562e38038061562e83398181016040528101906100389190610655565b8585858585855f73ffffffffffffffffffffffffffffffffffffffff168473ffffffffffffffffffffffffffffffffffffffff16036100a3576040517fd92e233d00000000000000000000000000000000000000000000000000000000815260040160405180910390fd5b5f73ffffffffffffffffffffffffffffffffffffffff168573ffffffffffffffffffffffffffffffffffffffff1603610108576040517fd92e233d00000000000000000000000000000000000000000000000000000000815260040160405180910390fd5b5f73ffffffffffffffffffffffffffffffffffffffff168373ffffffffffffffffffffffffffffffffffffffff160361016d576040517fd92e233d00000000000000000000000000000000000000000000000000000000815260040160405180910390fd5b5f73ffffffffffffffffffffffffffffffffffffffff168273ffffffffffffffffffffffffffffffffffffffff16036101d2576040517fd92e233d00000000000000000000000000000000000000000000000000000000815260040160405180910390fd5b8373ffffffffffffffffffffffffffffffffffffffff1660e08173ffffffffffffffffffffffffffffffffffffffff16815250508473ffffffffffffffffffffffffffffffffffffffff166101008173ffffffffffffffffffffffffffffffffffffffff16815250508273ffffffffffffffffffffffffffffffffffffffff166101208173ffffffffffffffffffffffffffffffffffffffff16815250508173ffffffffffffffffffffffffffffffffffffffff166101408173ffffffffffffffffffffffffffffffffffffffff16815250505f8573ffffffffffffffffffffffffffffffffffffffff1663ad5c46486040518163ffffffff1660e01b8152600401602060405180830381865afa1580156102ef573d5f5f3e3d5ffd5b505050506040513d601f19601f8201168201806040525081019061031391906106de565b90508073ffffffffffffffffffffffffffffffffffffffff1660808173ffffffffffffffffffffffffffffffffffffffff16815250508573ffffffffffffffffffffffffffffffffffffffff1663c45a01556040518163ffffffff1660e01b8152600401602060405180830381865afa158015610392573d5f5f3e3d5ffd5b505050506040513d601f19601f820116820180604052508101906103b691906106de565b73ffffffffffffffffffffffffffffffffffffffff1660c08173ffffffffffffffffffffffffffffffffffffffff16815250508173ffffffffffffffffffffffffffffffffffffffff1660a08173ffffffffffffffffffffffffffffffffffffffff16815250505050505050506104328161044660201b60201c565b506001600381905550505050505050610877565b5f73ffffffffffffffffffffffffffffffffffffffff168173ffffffffffffffffffffffffffffffffffffffff16036104b4576040517f08c379a00000000000000000000000000000000000000000000000000000000081526004016104ab90610763565b60405180910390fd5b5f8173ffffffffffffffffffffffffffffffffffffffff163b1161050d576040517f08c379a0000000000000000000000000000000000000000000000000000000008152600401610504906107cb565b60405180910390fd5b8073ffffffffffffffffffffffffffffffffffffffff16638da5cb5b6040518163ffffffff1660e01b8152600401602060405180830381865afa92505050801561057557506040513d601f19601f8201168201806040525081019061057291906106de565b60015b6105b4576040517f08c379a00000000000000000000000000000000000000000000000000000000081526004016105ab90610859565b60405180910390fd5b815f5f6101000a81548173ffffffffffffffffffffffffffffffffffffffff021916908373ffffffffffffffffffffffffffffffffffffffff1602179055505050565b5f5ffd5b5f73ffffffffffffffffffffffffffffffffffffffff82169050919050565b5f610624826105fb565b9050919050565b6106348161061a565b811461063e575f5ffd5b50565b5f8151905061064f8161062b565b92915050565b5f5f5f5f5f5f60c0878903121561066f5761066e6105f7565b5b5f61067c89828a01610641565b965050602061068d89828a01610641565b955050604061069e89828a01610641565b94505060606106af89828a01610641565b93505060806106c089828a01610641565b92505060a06106d189828a01610641565b9150509295509295509295565b5f602082840312156106f3576106f26105f7565b5b5f61070084828501610641565b91505092915050565b5f82825260208201905092915050565b7f4469726563746f72792063616e6e6f74206265207a65726f20616464726573735f82015250565b5f61074d602083610709565b915061075882610719565b602082019050919050565b5f6020820190508181035f83015261077a81610741565b9050919050565b7f4469726563746f7279206d757374206265206120636f6e7472616374000000005f82015250565b5f6107b5601c83610709565b91506107c082610781565b602082019050919050565b5f6020820190508181035f8301526107e2816107a9565b9050919050565b7f4469726563746f7279206164647265737320646f6573206e6f7420696d706c655f8201527f6d656e74206f776e657228290000000000000000000000000000000000000000602082015250565b5f610843602c83610709565b915061084e826107e9565b604082019050919050565b5f6020820190508181035f83015261087081610837565b9050919050565b60805160a05160c05160e051610100516101205161014051614cb061097e5f395f8181610a7d0152818161189101528181612f3c015261301e01525f6111ee01525f61121201525f8181610ac501526124b501525f8181610c80015261221201525f818161057f01528181612ef001528181612f1a01528181612fd20152612ffc01525f818161072a0152818161096501528181610a59015281816113f80152818161172501528181611a9101528181611e1b01528181612163015281816121e90152818161282a0152818161285d0152818161289c015281816128ca01528181612cef01528181612dfe01528181612e3101528181612e700152612e9e0152614cb05ff3fe608060405260043610610117575f3560e01c8063658a847a1161009f578063ba4c7be111610063578063ba4c7be114610381578063d32563c8146103a9578063d7dfe3af146103e5578063deadbc141461040f578063df697cc4146104395761011e565b8063658a847a146102b15780637c887c59146102db5780638da5cb5b14610305578063a75901631461032f578063b4b57c39146103575761011e565b806327262618116100e657806327262618146101cf5780633814bc6e1461020b57806338b88052146102335780634f0e0ef31461025d5780635cf39049146102875761011e565b806309053ac41461012257806312261ee71461014a5780631623306b1461017457806324776cbe146101905761011e565b3661011e57005b5f5ffd5b34801561012d575f5ffd5b50610148600480360381019061014391906137eb565b610475565b005b348015610155575f5ffd5b5061015e61057d565b60405161016b9190613884565b60405180910390f35b61018e60048036038101906101899190613937565b6105a1565b005b34801561019b575f5ffd5b506101b660048036038101906101b191906139a8565b61077c565b6040516101c69493929190613a3c565b60405180910390f35b3480156101da575f5ffd5b506101f560048036038101906101f09190613bb7565b6107f4565b6040516102029190613bfe565b60405180910390f35b348015610216575f5ffd5b50610231600480360381019061022c9190613cdc565b610894565b005b34801561023e575f5ffd5b50610247610a51565b6040516102549190613d78565b60405180910390f35b348015610268575f5ffd5b50610271610a57565b60405161027e9190613bfe565b60405180910390f35b348015610292575f5ffd5b5061029b610a7b565b6040516102a89190613db1565b60405180910390f35b3480156102bc575f5ffd5b506102c5610a9f565b6040516102d29190613dea565b60405180910390f35b3480156102e6575f5ffd5b506102ef610ac3565b6040516102fc9190613e23565b60405180910390f35b348015610310575f5ffd5b50610319610ae7565b6040516103269190613bfe565b60405180910390f35b34801561033a575f5ffd5b5061035560048036038101906103509190613e66565b610b7a565b005b348015610362575f5ffd5b5061036b610c7e565b6040516103789190613eb1565b60405180910390f35b34801561038c575f5ffd5b506103a760048036038101906103a291906139a8565b610ca2565b005b3480156103b4575f5ffd5b506103cf60048036038101906103ca91906139a8565b610da8565b6040516103dc9190613f59565b60405180910390f35b3480156103f0575f5ffd5b506103f96111ec565b6040516104069190613f92565b60405180910390f35b34801561041a575f5ffd5b50610423611210565b6040516104309190613fcb565b60405180910390f35b348015610444575f5ffd5b5061045f600480360381019061045a91906139a8565b611234565b60405161046c9190613f59565b60405180910390f35b5f5f9054906101000a900473ffffffffffffffffffffffffffffffffffffffff1673ffffffffffffffffffffffffffffffffffffffff16638da5cb5b6040518163ffffffff1660e01b8152600401602060405180830381865afa1580156104de573d5f5f3e3d5ffd5b505050506040513d601f19601f820116820180604052508101906105029190613ff8565b73ffffffffffffffffffffffffffffffffffffffff163373ffffffffffffffffffffffffffffffffffffffff161461056f576040517f08c379a00000000000000000000000000000000000000000000000000000000081526004016105669061407d565b60405180910390fd5b6105798282611390565b5050565b7f000000000000000000000000000000000000000000000000000000000000000081565b6105a961139e565b5f73ffffffffffffffffffffffffffffffffffffffff168273ffffffffffffffffffffffffffffffffffffffff160361060e576040517fd92e233d00000000000000000000000000000000000000000000000000000000815260040160405180910390fd5b5f3490505f858590500361064e576040517f521299a900000000000000000000000000000000000000000000000000000000815260040160405180910390fd5b5f8103610687576040517f717e6b7b00000000000000000000000000000000000000000000000000000000815260040160405180910390fd5b5f61069586868686866113ed565b90505f816080015190505f8114806106ae575061271081115b156106e5576040517f124955fb00000000000000000000000000000000000000000000000000000000815260040160405180910390fd5b5f826060015190505f8111156106ff576106fe816116e9565b5b610715835f0151846020015185604001516117a3565b5f8360a0015190505f811115610751576107507f0000000000000000000000000000000000000000000000000000000000000000888361191c565b5b5f4790505f811115610768576107673382611965565b5b505050505050610776611a7c565b50505050565b6001602052805f5260405f205f91509050805f015f9054906101000a900473ffffffffffffffffffffffffffffffffffffffff1690805f0160149054906101000a900462ffffff1690805f0160179054906101000a900460ff1690805f0160189054906101000a900467ffffffffffffffff16905084565b5f5f5f9054906101000a900473ffffffffffffffffffffffffffffffffffffffff1673ffffffffffffffffffffffffffffffffffffffff166327262618836040518263ffffffff1660e01b815260040161084e91906140eb565b602060405180830381865afa158015610869573d5f5f3e3d5ffd5b505050506040513d601f19601f8201168201806040525081019061088d9190613ff8565b9050919050565b61089c61139e565b5f73ffffffffffffffffffffffffffffffffffffffff168373ffffffffffffffffffffffffffffffffffffffff1603610901576040517fd92e233d00000000000000000000000000000000000000000000000000000000815260040160405180910390fd5b5f858590500361093d576040517f521299a900000000000000000000000000000000000000000000000000000000815260040160405180910390fd5b5f61094a86868585611a86565b9050610962815f0151826020015183604001516117a3565b5f7f000000000000000000000000000000000000000000000000000000000000000073ffffffffffffffffffffffffffffffffffffffff166370a08231306040518263ffffffff1660e01b81526004016109bc9190613bfe565b602060405180830381865afa1580156109d7573d5f5f3e3d5ffd5b505050506040513d601f19601f820116820180604052508101906109fb919061411f565b90505f8103610a36576040517fabff335a00000000000000000000000000000000000000000000000000000000815260040160405180910390fd5b610a408186611e19565b5050610a4a611a7c565b5050505050565b60025481565b7f000000000000000000000000000000000000000000000000000000000000000081565b7f000000000000000000000000000000000000000000000000000000000000000081565b5f5f9054906101000a900473ffffffffffffffffffffffffffffffffffffffff1681565b7f000000000000000000000000000000000000000000000000000000000000000081565b5f5f5f9054906101000a900473ffffffffffffffffffffffffffffffffffffffff1673ffffffffffffffffffffffffffffffffffffffff16638da5cb5b6040518163ffffffff1660e01b8152600401602060405180830381865afa158015610b51573d5f5f3e3d5ffd5b505050506040513d601f19601f82011682018060405250810190610b759190613ff8565b905090565b5f5f9054906101000a900473ffffffffffffffffffffffffffffffffffffffff1673ffffffffffffffffffffffffffffffffffffffff16638da5cb5b6040518163ffffffff1660e01b8152600401602060405180830381865afa158015610be3573d5f5f3e3d5ffd5b505050506040513d601f19601f82011682018060405250810190610c079190613ff8565b73ffffffffffffffffffffffffffffffffffffffff163373ffffffffffffffffffffffffffffffffffffffff1614610c74576040517f08c379a0000000000000000000000000000000000000000000000000000000008152600401610c6b9061407d565b60405180910390fd5b8060028190555050565b7f000000000000000000000000000000000000000000000000000000000000000081565b5f5f9054906101000a900473ffffffffffffffffffffffffffffffffffffffff1673ffffffffffffffffffffffffffffffffffffffff16638da5cb5b6040518163ffffffff1660e01b8152600401602060405180830381865afa158015610d0b573d5f5f3e3d5ffd5b505050506040513d601f19601f82011682018060405250810190610d2f9190613ff8565b73ffffffffffffffffffffffffffffffffffffffff163373ffffffffffffffffffffffffffffffffffffffff1614610d9c576040517f08c379a0000000000000000000000000000000000000000000000000000000008152600401610d939061407d565b60405180910390fd5b610da581611f43565b50565b610db06136e2565b5f60015f8473ffffffffffffffffffffffffffffffffffffffff1673ffffffffffffffffffffffffffffffffffffffff1681526020019081526020015f2090505f73ffffffffffffffffffffffffffffffffffffffff16815f015f9054906101000a900473ffffffffffffffffffffffffffffffffffffffff1673ffffffffffffffffffffffffffffffffffffffff1603610f4d57610e4e836120f4565b91508160015f8573ffffffffffffffffffffffffffffffffffffffff1673ffffffffffffffffffffffffffffffffffffffff1681526020019081526020015f205f820151815f015f6101000a81548173ffffffffffffffffffffffffffffffffffffffff021916908373ffffffffffffffffffffffffffffffffffffffff1602179055506020820151815f0160146101000a81548162ffffff021916908362ffffff1602179055506040820151815f0160176101000a81548160ff021916908360ff1602179055506060820151815f0160186101000a81548167ffffffffffffffff021916908367ffffffffffffffff160217905550905050506111e7565b600254815f0160189054906101000a900467ffffffffffffffff1667ffffffffffffffff1642610f7d9190614177565b1115611114575f610f8d846120f4565b9050815f015f9054906101000a900473ffffffffffffffffffffffffffffffffffffffff1673ffffffffffffffffffffffffffffffffffffffff16815f015173ffffffffffffffffffffffffffffffffffffffff16146110e8578060015f8673ffffffffffffffffffffffffffffffffffffffff1673ffffffffffffffffffffffffffffffffffffffff1681526020019081526020015f205f820151815f015f6101000a81548173ffffffffffffffffffffffffffffffffffffffff021916908373ffffffffffffffffffffffffffffffffffffffff1602179055506020820151815f0160146101000a81548162ffffff021916908362ffffff1602179055506040820151815f0160176101000a81548160ff021916908360ff1602179055506060820151815f0160186101000a81548167ffffffffffffffff021916908367ffffffffffffffff16021790555090505080925050506111e7565b42825f0160186101000a81548167ffffffffffffffff021916908367ffffffffffffffff160217905550505b806040518060800160405290815f82015f9054906101000a900473ffffffffffffffffffffffffffffffffffffffff1673ffffffffffffffffffffffffffffffffffffffff1673ffffffffffffffffffffffffffffffffffffffff1681526020015f820160149054906101000a900462ffffff1662ffffff1662ffffff1681526020015f820160179054906101000a900460ff1660ff1660ff1681526020015f820160189054906101000a900467ffffffffffffffff1667ffffffffffffffff1667ffffffffffffffff16815250509150505b919050565b7f000000000000000000000000000000000000000000000000000000000000000081565b7f000000000000000000000000000000000000000000000000000000000000000081565b61123c6136e2565b60015f8373ffffffffffffffffffffffffffffffffffffffff1673ffffffffffffffffffffffffffffffffffffffff1681526020019081526020015f206040518060800160405290815f82015f9054906101000a900473ffffffffffffffffffffffffffffffffffffffff1673ffffffffffffffffffffffffffffffffffffffff1673ffffffffffffffffffffffffffffffffffffffff1681526020015f820160149054906101000a900462ffffff1662ffffff1662ffffff1681526020015f820160179054906101000a900460ff1660ff1660ff1681526020015f820160189054906101000a900467ffffffffffffffff1667ffffffffffffffff1667ffffffffffffffff168152505090505f73ffffffffffffffffffffffffffffffffffffffff16815f015173ffffffffffffffffffffffffffffffffffffffff160361138b57611388826120f4565b90505b919050565b61139a82826126a4565b5050565b6002600354036113e3576040517f08c379a00000000000000000000000000000000000000000000000000000000081526004016113da906141f4565b60405180910390fd5b6002600381905550565b6113f561372e565b5f7f000000000000000000000000000000000000000000000000000000000000000090505f8787905090508067ffffffffffffffff81111561143a57611439613a93565b5b60405190808252806020026020018201604052801561146d57816020015b60608152602001906001900390816114585790505b5083602001819052508067ffffffffffffffff8111156114905761148f613a93565b5b6040519080825280601f01601f1916602001820160405280156114c25781602001600182028036833780820191505090505b50835f01819052505f5f90505b818110156116dd575f8989838181106114eb576114ea614212565b5b9050604002015f01602081019061150291906139a8565b90505f73ffffffffffffffffffffffffffffffffffffffff168173ffffffffffffffffffffffffffffffffffffffff1603611569576040517f7401d93100000000000000000000000000000000000000000000000000000000815260040160405180910390fd5b5f8a8a8481811061157d5761157c614212565b5b90506040020160200160208101906115959190614276565b61ffff169050808660800181815101915081815250505f81036115b95750506116d2565b5f612710828902816115ce576115cd6142a1565b5b0490505f81036115e0575050506116d2565b808760600181815101915081815250508573ffffffffffffffffffffffffffffffffffffffff168373ffffffffffffffffffffffffffffffffffffffff160361163b57808760a00181815101915081815250505050506116d2565b5f5f61164985848e8e61277b565b9150915081895f01518a604001518151811061166857611667614212565b5b60200101907effffffffffffffffffffffffffffffffffffffffffffffffffffffffffffff191690815f1a9053508089602001518a60400151815181106116b2576116b1614212565b5b602002602001018190525088604001805160010190818152505050505050505b8060010190506114cf565b50505095945050505050565b80471015611723576040517f6a12f10400000000000000000000000000000000000000000000000000000000815260040160405180910390fd5b7f000000000000000000000000000000000000000000000000000000000000000073ffffffffffffffffffffffffffffffffffffffff1663d0e30db0826040518263ffffffff1660e01b81526004015f604051808303818588803b158015611789575f5ffd5b505af115801561179b573d5f5f3e3d5ffd5b505050505050565b5f81036117dc576040517fabff335a00000000000000000000000000000000000000000000000000000000815260040160405180910390fd5b8082511461188c575f8167ffffffffffffffff8111156117ff576117fe613a93565b5b60405190808252806020026020018201604052801561183257816020015b606081526020019060019003908161181d5790505b5090505f5f90505b828110156118865783818151811061185557611854614212565b5b60200260200101518282815181106118705761186f614212565b5b602002602001018190525080600101905061183a565b50809250505b8083527f000000000000000000000000000000000000000000000000000000000000000073ffffffffffffffffffffffffffffffffffffffff166324856bc384846040518363ffffffff1660e01b81526004016118ea929190614423565b5f604051808303815f87803b158015611901575f5ffd5b505af1158015611913573d5f5f3e3d5ffd5b50505050505050565b5f8103611955576040517f1f2a200500000000000000000000000000000000000000000000000000000000815260040160405180910390fd5b611960838383612908565b505050565b5f810361199e576040517f1f2a200500000000000000000000000000000000000000000000000000000000815260040160405180910390fd5b804710156119d8576040517f6a12f10400000000000000000000000000000000000000000000000000000000815260040160405180910390fd5b5f8273ffffffffffffffffffffffffffffffffffffffff16826040516119fd90614485565b5f6040518083038185875af1925050503d805f8114611a37576040519150601f19603f3d011682016040523d82523d5f602084013e611a3c565b606091505b5050905080611a77576040517fcef4eed700000000000000000000000000000000000000000000000000000000815260040160405180910390fd5b505050565b6001600381905550565b611a8e613760565b5f7f000000000000000000000000000000000000000000000000000000000000000090505f8686905090508067ffffffffffffffff811115611ad357611ad2613a93565b5b604051908082528060200260200182016040528015611b0657816020015b6060815260200190600190039081611af15790505b5083602001819052508067ffffffffffffffff811115611b2957611b28613a93565b5b6040519080825280601f01601f191660200182016040528015611b5b5781602001600182028036833780820191505090505b50835f01819052505f5f90505b81811015611e0e575f888883818110611b8457611b83614212565b5b9050604002015f016020810190611b9b91906139a8565b90505f898984818110611bb157611bb0614212565b5b9050604002016020013590505f8103611bcb575050611e03565b5f73ffffffffffffffffffffffffffffffffffffffff168273ffffffffffffffffffffffffffffffffffffffff1603611c30576040517f7401d93100000000000000000000000000000000000000000000000000000000815260040160405180910390fd5b5f8573ffffffffffffffffffffffffffffffffffffffff168373ffffffffffffffffffffffffffffffffffffffff161490505f8815611d37575f8473ffffffffffffffffffffffffffffffffffffffff166370a08231306040518263ffffffff1660e01b8152600401611ca39190613bfe565b602060405180830381865afa158015611cbe573d5f5f3e3d5ffd5b505050506040513d601f19601f82011682018060405250810190611ce2919061411f565b905083811015611d1e576040517f06998f5b00000000000000000000000000000000000000000000000000000000815260040160405180910390fd5b8215611d2e575050505050611e03565b83915050611d6b565b5f611d43858533612a57565b90508215611d55575050505050611e03565b8091505f8203611d69575050505050611e03565b505b5f5f611d798684308f612c92565b91509150818a5f01518b6040015181518110611d9857611d97614212565b5b60200101907effffffffffffffffffffffffffffffffffffffffffffffffffffffffffffff191690815f1a905350808a602001518b6040015181518110611de257611de1614212565b5b60200260200101819052508960400180516001019081815250505050505050505b806001019050611b68565b505050949350505050565b7f000000000000000000000000000000000000000000000000000000000000000073ffffffffffffffffffffffffffffffffffffffff16632e1a7d4d836040518263ffffffff1660e01b8152600401611e729190613d78565b5f604051808303815f87803b158015611e89575f5ffd5b505af1158015611e9b573d5f5f3e3d5ffd5b505050505f8173ffffffffffffffffffffffffffffffffffffffff1683604051611ec490614485565b5f6040518083038185875af1925050503d805f8114611efe576040519150601f19603f3d011682016040523d82523d5f602084013e611f03565b606091505b5050905080611f3e576040517fb2f8aaaa00000000000000000000000000000000000000000000000000000000815260040160405180910390fd5b505050565b5f73ffffffffffffffffffffffffffffffffffffffff168173ffffffffffffffffffffffffffffffffffffffff1603611fb1576040517f08c379a0000000000000000000000000000000000000000000000000000000008152600401611fa8906144e3565b60405180910390fd5b5f8173ffffffffffffffffffffffffffffffffffffffff163b1161200a576040517f08c379a00000000000000000000000000000000000000000000000000000000081526004016120019061454b565b60405180910390fd5b8073ffffffffffffffffffffffffffffffffffffffff16638da5cb5b6040518163ffffffff1660e01b8152600401602060405180830381865afa92505050801561207257506040513d601f19601f8201168201806040525081019061206f9190613ff8565b60015b6120b1576040517f08c379a00000000000000000000000000000000000000000000000000000000081526004016120a8906145d9565b60405180910390fd5b815f5f6101000a81548173ffffffffffffffffffffffffffffffffffffffff021916908373ffffffffffffffffffffffffffffffffffffffff1602179055505050565b6120fc6136e2565b5f73ffffffffffffffffffffffffffffffffffffffff168273ffffffffffffffffffffffffffffffffffffffff1603612161576040517fd92e233d00000000000000000000000000000000000000000000000000000000815260040160405180910390fd5b7f000000000000000000000000000000000000000000000000000000000000000073ffffffffffffffffffffffffffffffffffffffff168273ffffffffffffffffffffffffffffffffffffffff16036121e6576040517f871c78af00000000000000000000000000000000000000000000000000000000815260040160405180910390fd5b5f7f000000000000000000000000000000000000000000000000000000000000000090505f8190505f5f7f000000000000000000000000000000000000000000000000000000000000000073ffffffffffffffffffffffffffffffffffffffff1663e6a4390587866040518363ffffffff1660e01b815260040161226b9291906145f7565b602060405180830381865afa158015612286573d5f5f3e3d5ffd5b505050506040513d601f19601f820116820180604052508101906122aa9190613ff8565b90505f73ffffffffffffffffffffffffffffffffffffffff168173ffffffffffffffffffffffffffffffffffffffff1614612491575f5f8273ffffffffffffffffffffffffffffffffffffffff16630902f1ac6040518163ffffffff1660e01b8152600401606060405180830381865afa15801561232a573d5f5f3e3d5ffd5b505050506040513d601f19601f8201168201806040525081019061234e9190614675565b50915091505f8373ffffffffffffffffffffffffffffffffffffffff16630dfe16816040518163ffffffff1660e01b8152600401602060405180830381865afa15801561239d573d5f5f3e3d5ffd5b505050506040513d601f19601f820116820180604052508101906123c19190613ff8565b90505f8773ffffffffffffffffffffffffffffffffffffffff168273ffffffffffffffffffffffffffffffffffffffff161461240d57826dffffffffffffffffffffffffffff1661241f565b836dffffffffffffffffffffffffffff165b90508581111561248c575f896040019060ff16908160ff168152505084895f019073ffffffffffffffffffffffffffffffffffffffff16908173ffffffffffffffffffffffffffffffffffffffff16815250505f896020019062ffffff16908162ffffff16815250508095505b505050505b5f5b600281101561267a575f5f82146124ac576127106124b0565b610bb85b90505f7f000000000000000000000000000000000000000000000000000000000000000073ffffffffffffffffffffffffffffffffffffffff16631698ee828a89856040518463ffffffff1660e01b8152600401612510939291906146c5565b602060405180830381865afa15801561252b573d5f5f3e3d5ffd5b505050506040513d601f19601f8201168201806040525081019061254f9190613ff8565b90505f73ffffffffffffffffffffffffffffffffffffffff168173ffffffffffffffffffffffffffffffffffffffff161461266d575f8673ffffffffffffffffffffffffffffffffffffffff166370a08231836040518263ffffffff1660e01b81526004016125be9190613bfe565b602060405180830381865afa1580156125d9573d5f5f3e3d5ffd5b505050506040513d601f19601f820116820180604052508101906125fd919061411f565b90508581111561266b576001896040019060ff16908160ff168152505081895f019073ffffffffffffffffffffffffffffffffffffffff16908173ffffffffffffffffffffffffffffffffffffffff168152505082896020019062ffffff16908162ffffff16815250508095505b505b8260010192505050612493565b5042856060019067ffffffffffffffff16908167ffffffffffffffff168152505050505050919050565b5f73ffffffffffffffffffffffffffffffffffffffff168273ffffffffffffffffffffffffffffffffffffffff16036126e6576126e18147611965565b612777565b5f8273ffffffffffffffffffffffffffffffffffffffff166370a08231306040518263ffffffff1660e01b81526004016127209190613bfe565b602060405180830381865afa15801561273b573d5f5f3e3d5ffd5b505050506040513d601f19601f8201168201806040525081019061275f919061411f565b90505f81111561277557612774838383612908565b5b505b5050565b5f60605f85036127a1575f60f81b60405180602001604052805f815250915091506128ff565b5f6127ab87610da8565b90505f73ffffffffffffffffffffffffffffffffffffffff16815f015173ffffffffffffffffffffffffffffffffffffffff1603612815576040517f791c2fed00000000000000000000000000000000000000000000000000000000815260040160405180910390fd5b5f6001826040015160ff1603612897576128567f00000000000000000000000000000000000000000000000000000000000000008984602001518a89612edb565b905061288a7f00000000000000000000000000000000000000000000000000000000000000008984602001518a858b612ee8565b92505f60f81b93506128fc565b6128c37f0000000000000000000000000000000000000000000000000000000000000000898988612fbe565b90506128f27f00000000000000000000000000000000000000000000000000000000000000008989848a612fca565b9250600860f81b93505b50505b94509492505050565b5f5f8473ffffffffffffffffffffffffffffffffffffffff1663a9059cbb60e01b858560405160240161293c9291906146fa565b604051602081830303815290604052907bffffffffffffffffffffffffffffffffffffffffffffffffffffffff19166020820180517bffffffffffffffffffffffffffffffffffffffffffffffffffffffff83818316178352505050506040516129a69190614751565b5f604051808303815f865af19150503d805f81146129df576040519150601f19603f3d011682016040523d82523d5f602084013e6129e4565b606091505b5091509150818015612a1157505f81511480612a10575080806020019051810190612a0f919061477b565b5b5b612a50576040517f08c379a0000000000000000000000000000000000000000000000000000000008152600401612a47906147f0565b60405180910390fd5b5050505050565b5f5f8303612a91576040517f1f2a200500000000000000000000000000000000000000000000000000000000815260040160405180910390fd5b5f8473ffffffffffffffffffffffffffffffffffffffff1663dd62ed3e84306040518363ffffffff1660e01b8152600401612acd9291906145f7565b602060405180830381865afa158015612ae8573d5f5f3e3d5ffd5b505050506040513d601f19601f82011682018060405250810190612b0c919061411f565b905083811015612b48576040517fbac9b5e800000000000000000000000000000000000000000000000000000000815260040160405180910390fd5b5f8573ffffffffffffffffffffffffffffffffffffffff166370a08231306040518263ffffffff1660e01b8152600401612b829190613bfe565b602060405180830381865afa158015612b9d573d5f5f3e3d5ffd5b505050506040513d601f19601f82011682018060405250810190612bc1919061411f565b9050612bcf86853088613162565b5f8673ffffffffffffffffffffffffffffffffffffffff166370a08231306040518263ffffffff1660e01b8152600401612c099190613bfe565b602060405180830381865afa158015612c24573d5f5f3e3d5ffd5b505050506040513d601f19601f82011682018060405250810190612c48919061411f565b905081810393505f8403612c88576040517fb5c74a2700000000000000000000000000000000000000000000000000000000815260040160405180910390fd5b5050509392505050565b5f60605f8503612cb8575f60f81b60405180602001604052805f81525091509150612ed2565b5f73ffffffffffffffffffffffffffffffffffffffff168673ffffffffffffffffffffffffffffffffffffffff161480612d3d57507f000000000000000000000000000000000000000000000000000000000000000073ffffffffffffffffffffffffffffffffffffffff168673ffffffffffffffffffffffffffffffffffffffff16145b15612d74576040517f7401d93100000000000000000000000000000000000000000000000000000000815260040160405180910390fd5b5f612d7e87610da8565b90505f73ffffffffffffffffffffffffffffffffffffffff16815f015173ffffffffffffffffffffffffffffffffffffffff1603612de8576040517f791c2fed00000000000000000000000000000000000000000000000000000000815260040160405180910390fd5b5f6001826040015160ff1603612e6a57612e29887f000000000000000000000000000000000000000000000000000000000000000084602001518a89612edb565b9050612e5d887f000000000000000000000000000000000000000000000000000000000000000084602001518a858b612ee8565b92505f60f81b9350612ecf565b612e96887f00000000000000000000000000000000000000000000000000000000000000008988612fbe565b9050612ec5887f000000000000000000000000000000000000000000000000000000000000000089848a612fca565b9250600860f81b93505b50505b94509492505050565b5f5f905095945050505050565b6060612f15877f0000000000000000000000000000000000000000000000000000000000000000866132b4565b612f617f0000000000000000000000000000000000000000000000000000000000000000887f00000000000000000000000000000000000000000000000000000000000000008761337e565b5f878688604051602001612f7793929190614887565b6040516020818303038152906040529050828585836001604051602001612fa29594939291906148d2565b6040516020818303038152906040529150509695505050505050565b5f5f9050949350505050565b6060612ff7867f0000000000000000000000000000000000000000000000000000000000000000866132b4565b6130437f0000000000000000000000000000000000000000000000000000000000000000877f00000000000000000000000000000000000000000000000000000000000000008761337e565b5f600267ffffffffffffffff81111561305f5761305e613a93565b5b60405190808252806020026020018201604052801561308d5781602001602082028036833780820191505090505b50905086815f815181106130a4576130a3614212565b5b602002602001019073ffffffffffffffffffffffffffffffffffffffff16908173ffffffffffffffffffffffffffffffffffffffff168152505085816001815181106130f3576130f2614212565b5b602002602001019073ffffffffffffffffffffffffffffffffffffffff16908173ffffffffffffffffffffffffffffffffffffffff16815250508285858360016040516020016131479594939291906149d2565b60405160208183030381529060405291505095945050505050565b5f5f8573ffffffffffffffffffffffffffffffffffffffff166323b872dd60e01b86868660405160240161319893929190614a2a565b604051602081830303815290604052907bffffffffffffffffffffffffffffffffffffffffffffffffffffffff19166020820180517bffffffffffffffffffffffffffffffffffffffffffffffffffffffff83818316178352505050506040516132029190614751565b5f604051808303815f865af19150503d805f811461323b576040519150601f19603f3d011682016040523d82523d5f602084013e613240565b606091505b509150915081801561326d57505f8151148061326c57508080602001905181019061326b919061477b565b5b5b6132ac576040517f08c379a00000000000000000000000000000000000000000000000000000000081526004016132a390614aa9565b60405180910390fd5b505050505050565b5f8373ffffffffffffffffffffffffffffffffffffffff1663dd62ed3e30856040518363ffffffff1660e01b81526004016132f09291906145f7565b602060405180830381865afa15801561330b573d5f5f3e3d5ffd5b505050506040513d601f19601f8201168201806040525081019061332f919061411f565b905081811015613378575f811461334c5761334b84845f613593565b5b61337784847fffffffffffffffffffffffffffffffffffffffffffffffffffffffffffffffff613593565b5b50505050565b5f73ffffffffffffffffffffffffffffffffffffffff168373ffffffffffffffffffffffffffffffffffffffff1614806133e357505f73ffffffffffffffffffffffffffffffffffffffff168273ffffffffffffffffffffffffffffffffffffffff16145b1561341a576040517f7401d93100000000000000000000000000000000000000000000000000000000815260040160405180910390fd5b5f5f8573ffffffffffffffffffffffffffffffffffffffff1663927da1053087876040518463ffffffff1660e01b815260040161345993929190614ac7565b606060405180830381865afa158015613474573d5f5f3e3d5ffd5b505050506040513d601f19601f820116820180604052508101906134989190614b61565b50915091505f8373ffffffffffffffffffffffffffffffffffffffff168373ffffffffffffffffffffffffffffffffffffffff16101590505f5f8365ffffffffffff16141580156134f15750428365ffffffffffff1611155b90508115806134fd5750805b15613589578773ffffffffffffffffffffffffffffffffffffffff166387517c45888873ffffffffffffffffffffffffffffffffffffffff65ffffffffffff6040518563ffffffff1660e01b815260040161355b9493929190614bcf565b5f604051808303815f87803b158015613572575f5ffd5b505af1158015613584573d5f5f3e3d5ffd5b505050505b5050505050505050565b5f5f8473ffffffffffffffffffffffffffffffffffffffff1663095ea7b360e01b85856040516024016135c79291906146fa565b604051602081830303815290604052907bffffffffffffffffffffffffffffffffffffffffffffffffffffffff19166020820180517bffffffffffffffffffffffffffffffffffffffffffffffffffffffff83818316178352505050506040516136319190614751565b5f604051808303815f865af19150503d805f811461366a576040519150601f19603f3d011682016040523d82523d5f602084013e61366f565b606091505b509150915081801561369c57505f8151148061369b57508080602001905181019061369a919061477b565b5b5b6136db576040517f08c379a00000000000000000000000000000000000000000000000000000000081526004016136d290614c5c565b60405180910390fd5b5050505050565b60405180608001604052805f73ffffffffffffffffffffffffffffffffffffffff1681526020015f62ffffff1681526020015f60ff1681526020015f67ffffffffffffffff1681525090565b6040518060c0016040528060608152602001606081526020015f81526020015f81526020015f81526020015f81525090565b604051806060016040528060608152602001606081526020015f81525090565b5f604051905090565b5f5ffd5b5f5ffd5b5f73ffffffffffffffffffffffffffffffffffffffff82169050919050565b5f6137ba82613791565b9050919050565b6137ca816137b0565b81146137d4575f5ffd5b50565b5f813590506137e5816137c1565b92915050565b5f5f6040838503121561380157613800613789565b5b5f61380e858286016137d7565b925050602061381f858286016137d7565b9150509250929050565b5f819050919050565b5f61384c61384761384284613791565b613829565b613791565b9050919050565b5f61385d82613832565b9050919050565b5f61386e82613853565b9050919050565b61387e81613864565b82525050565b5f6020820190506138975f830184613875565b92915050565b5f5ffd5b5f5ffd5b5f5ffd5b5f5f83601f8401126138be576138bd61389d565b5b8235905067ffffffffffffffff8111156138db576138da6138a1565b5b6020830191508360408202830111156138f7576138f66138a5565b5b9250929050565b5f63ffffffff82169050919050565b613916816138fe565b8114613920575f5ffd5b50565b5f813590506139318161390d565b92915050565b5f5f5f5f6060858703121561394f5761394e613789565b5b5f85013567ffffffffffffffff81111561396c5761396b61378d565b5b613978878288016138a9565b9450945050602061398b878288016137d7565b925050604061399c87828801613923565b91505092959194509250565b5f602082840312156139bd576139bc613789565b5b5f6139ca848285016137d7565b91505092915050565b6139dc816137b0565b82525050565b5f62ffffff82169050919050565b6139f9816139e2565b82525050565b5f60ff82169050919050565b613a14816139ff565b82525050565b5f67ffffffffffffffff82169050919050565b613a3681613a1a565b82525050565b5f608082019050613a4f5f8301876139d3565b613a5c60208301866139f0565b613a696040830185613a0b565b613a766060830184613a2d565b95945050505050565b5f5ffd5b5f601f19601f8301169050919050565b7f4e487b71000000000000000000000000000000000000000000000000000000005f52604160045260245ffd5b613ac982613a83565b810181811067ffffffffffffffff82111715613ae857613ae7613a93565b5b80604052505050565b5f613afa613780565b9050613b068282613ac0565b919050565b5f67ffffffffffffffff821115613b2557613b24613a93565b5b613b2e82613a83565b9050602081019050919050565b828183375f83830152505050565b5f613b5b613b5684613b0b565b613af1565b905082815260208101848484011115613b7757613b76613a7f565b5b613b82848285613b3b565b509392505050565b5f82601f830112613b9e57613b9d61389d565b5b8135613bae848260208601613b49565b91505092915050565b5f60208284031215613bcc57613bcb613789565b5b5f82013567ffffffffffffffff811115613be957613be861378d565b5b613bf584828501613b8a565b91505092915050565b5f602082019050613c115f8301846139d3565b92915050565b5f5f83601f840112613c2c57613c2b61389d565b5b8235905067ffffffffffffffff811115613c4957613c486138a1565b5b602083019150836040820283011115613c6557613c646138a5565b5b9250929050565b5f613c7682613791565b9050919050565b613c8681613c6c565b8114613c90575f5ffd5b50565b5f81359050613ca181613c7d565b92915050565b5f8115159050919050565b613cbb81613ca7565b8114613cc5575f5ffd5b50565b5f81359050613cd681613cb2565b92915050565b5f5f5f5f5f60808688031215613cf557613cf4613789565b5b5f86013567ffffffffffffffff811115613d1257613d1161378d565b5b613d1e88828901613c17565b95509550506020613d3188828901613c93565b9350506040613d4288828901613923565b9250506060613d5388828901613cc8565b9150509295509295909350565b5f819050919050565b613d7281613d60565b82525050565b5f602082019050613d8b5f830184613d69565b92915050565b5f613d9b82613853565b9050919050565b613dab81613d91565b82525050565b5f602082019050613dc45f830184613da2565b92915050565b5f613dd482613853565b9050919050565b613de481613dca565b82525050565b5f602082019050613dfd5f830184613ddb565b92915050565b5f613e0d82613853565b9050919050565b613e1d81613e03565b82525050565b5f602082019050613e365f830184613e14565b92915050565b613e4581613d60565b8114613e4f575f5ffd5b50565b5f81359050613e6081613e3c565b92915050565b5f60208284031215613e7b57613e7a613789565b5b5f613e8884828501613e52565b91505092915050565b5f613e9b82613853565b9050919050565b613eab81613e91565b82525050565b5f602082019050613ec45f830184613ea2565b92915050565b613ed3816137b0565b82525050565b613ee2816139e2565b82525050565b613ef1816139ff565b82525050565b613f0081613a1a565b82525050565b608082015f820151613f1a5f850182613eca565b506020820151613f2d6020850182613ed9565b506040820151613f406040850182613ee8565b506060820151613f536060850182613ef7565b50505050565b5f608082019050613f6c5f830184613f06565b92915050565b5f613f7c82613853565b9050919050565b613f8c81613f72565b82525050565b5f602082019050613fa55f830184613f83565b92915050565b5f613fb582613853565b9050919050565b613fc581613fab565b82525050565b5f602082019050613fde5f830184613fbc565b92915050565b5f81519050613ff2816137c1565b92915050565b5f6020828403121561400d5761400c613789565b5b5f61401a84828501613fe4565b91505092915050565b5f82825260208201905092915050565b7f43616c6c6572206973206e6f7420746865206f776e65720000000000000000005f82015250565b5f614067601783614023565b915061407282614033565b602082019050919050565b5f6020820190508181035f8301526140948161405b565b9050919050565b5f81519050919050565b8281835e5f83830152505050565b5f6140bd8261409b565b6140c78185614023565b93506140d78185602086016140a5565b6140e081613a83565b840191505092915050565b5f6020820190508181035f83015261410381846140b3565b905092915050565b5f8151905061411981613e3c565b92915050565b5f6020828403121561413457614133613789565b5b5f6141418482850161410b565b91505092915050565b7f4e487b71000000000000000000000000000000000000000000000000000000005f52601160045260245ffd5b5f61418182613d60565b915061418c83613d60565b92508282039050818111156141a4576141a361414a565b5b92915050565b7f5265656e7472616e637947756172643a207265656e7472616e742063616c6c005f82015250565b5f6141de601f83614023565b91506141e9826141aa565b602082019050919050565b5f6020820190508181035f83015261420b816141d2565b9050919050565b7f4e487b71000000000000000000000000000000000000000000000000000000005f52603260045260245ffd5b5f61ffff82169050919050565b6142558161423f565b811461425f575f5ffd5b50565b5f813590506142708161424c565b92915050565b5f6020828403121561428b5761428a613789565b5b5f61429884828501614262565b91505092915050565b7f4e487b71000000000000000000000000000000000000000000000000000000005f52601260045260245ffd5b5f81519050919050565b5f82825260208201905092915050565b5f6142f2826142ce565b6142fc81856142d8565b935061430c8185602086016140a5565b61431581613a83565b840191505092915050565b5f81519050919050565b5f82825260208201905092915050565b5f819050602082019050919050565b5f82825260208201905092915050565b5f614363826142ce565b61436d8185614349565b935061437d8185602086016140a5565b61438681613a83565b840191505092915050565b5f61439c8383614359565b905092915050565b5f602082019050919050565b5f6143ba82614320565b6143c4818561432a565b9350836020820285016143d68561433a565b805f5b8581101561441157848403895281516143f28582614391565b94506143fd836143a4565b925060208a019950506001810190506143d9565b50829750879550505050505092915050565b5f6040820190508181035f83015261443b81856142e8565b9050818103602083015261444f81846143b0565b90509392505050565b5f81905092915050565b50565b5f6144705f83614458565b915061447b82614462565b5f82019050919050565b5f61448f82614465565b9150819050919050565b7f4469726563746f72792063616e6e6f74206265207a65726f20616464726573735f82015250565b5f6144cd602083614023565b91506144d882614499565b602082019050919050565b5f6020820190508181035f8301526144fa816144c1565b9050919050565b7f4469726563746f7279206d757374206265206120636f6e7472616374000000005f82015250565b5f614535601c83614023565b915061454082614501565b602082019050919050565b5f6020820190508181035f83015261456281614529565b9050919050565b7f4469726563746f7279206164647265737320646f6573206e6f7420696d706c655f8201527f6d656e74206f776e657228290000000000000000000000000000000000000000602082015250565b5f6145c3602c83614023565b91506145ce82614569565b604082019050919050565b5f6020820190508181035f8301526145f0816145b7565b9050919050565b5f60408201905061460a5f8301856139d3565b61461760208301846139d3565b9392505050565b5f6dffffffffffffffffffffffffffff82169050919050565b6146408161461e565b811461464a575f5ffd5b50565b5f8151905061465b81614637565b92915050565b5f8151905061466f8161390d565b92915050565b5f5f5f6060848603121561468c5761468b613789565b5b5f6146998682870161464d565b93505060206146aa8682870161464d565b92505060406146bb86828701614661565b9150509250925092565b5f6060820190506146d85f8301866139d3565b6146e560208301856139d3565b6146f260408301846139f0565b949350505050565b5f60408201905061470d5f8301856139d3565b61471a6020830184613d69565b9392505050565b5f61472b826142ce565b6147358185614458565b93506147458185602086016140a5565b80840191505092915050565b5f61475c8284614721565b915081905092915050565b5f8151905061477581613cb2565b92915050565b5f602082840312156147905761478f613789565b5b5f61479d84828501614767565b91505092915050565b7f5452414e534645525f4641494c454400000000000000000000000000000000005f82015250565b5f6147da600f83614023565b91506147e5826147a6565b602082019050919050565b5f6020820190508181035f830152614807816147ce565b9050919050565b5f8160601b9050919050565b5f6148248261480e565b9050919050565b5f6148358261481a565b9050919050565b61484d614848826137b0565b61482b565b82525050565b5f8160e81b9050919050565b5f61486982614853565b9050919050565b61488161487c826139e2565b61485f565b82525050565b5f614892828661483c565b6014820191506148a28285614870565b6003820191506148b2828461483c565b601482019150819050949350505050565b6148cc81613ca7565b82525050565b5f60a0820190506148e55f8301886139d3565b6148f26020830187613d69565b6148ff6040830186613d69565b818103606083015261491181856142e8565b905061492060808301846148c3565b9695505050505050565b5f81519050919050565b5f82825260208201905092915050565b5f819050602082019050919050565b5f61495e8383613eca565b60208301905092915050565b5f602082019050919050565b5f6149808261492a565b61498a8185614934565b935061499583614944565b805f5b838110156149c55781516149ac8882614953565b97506149b78361496a565b925050600181019050614998565b5085935050505092915050565b5f60a0820190506149e55f8301886139d3565b6149f26020830187613d69565b6149ff6040830186613d69565b8181036060830152614a118185614976565b9050614a2060808301846148c3565b9695505050505050565b5f606082019050614a3d5f8301866139d3565b614a4a60208301856139d3565b614a576040830184613d69565b949350505050565b7f5452414e534645525f46524f4d5f4641494c45440000000000000000000000005f82015250565b5f614a93601483614023565b9150614a9e82614a5f565b602082019050919050565b5f6020820190508181035f830152614ac081614a87565b9050919050565b5f606082019050614ada5f8301866139d3565b614ae760208301856139d3565b614af460408301846139d3565b949350505050565b614b0581613791565b8114614b0f575f5ffd5b50565b5f81519050614b2081614afc565b92915050565b5f65ffffffffffff82169050919050565b614b4081614b26565b8114614b4a575f5ffd5b50565b5f81519050614b5b81614b37565b92915050565b5f5f5f60608486031215614b7857614b77613789565b5b5f614b8586828701614b12565b9350506020614b9686828701614b4d565b9250506040614ba786828701614b4d565b9150509250925092565b614bba81613791565b82525050565b614bc981614b26565b82525050565b5f608082019050614be25f8301876139d3565b614bef60208301866139d3565b614bfc6040830185614bb1565b614c096060830184614bc0565b95945050505050565b7f415050524f56455f4641494c45440000000000000000000000000000000000005f82015250565b5f614c46600e83614023565b9150614c5182614c12565b602082019050919050565b5f6020820190508181035f830152614c7381614c3a565b905091905056fea26469706673582212200aece7fa3343e35d02a8f407f9ba1f03cc3b38cd2f3d9bca30519d485b80a53064736f6c634300081e0033",
			"opcodes": "PUSH2 0x160 PUSH1 0x40 MSTORE PUSH2 0x5460 PUSH1 0x2 SSTORE CALLVALUE DUP1 ISZERO PUSH2 0x16 JUMPI PUSH0 PUSH0 REVERT JUMPDEST POP PUSH1 0x40 MLOAD PUSH2 0x562E CODESIZE SUB DUP1 PUSH2 0x562E DUP4 CODECOPY DUP2 DUP2 ADD PUSH1 0x40 MSTORE DUP2 ADD SWAP1 PUSH2 0x38 SWAP2 SWAP1 PUSH2 0x655 JUMP JUMPDEST DUP6 DUP6 DUP6 DUP6 DUP6 DUP6 PUSH0 PUSH20 0xFFFFFFFFFFFFFFFFFFFFFFFFFFFFFFFFFFFFFFFF AND DUP5 PUSH20 0xFFFFFFFFFFFFFFFFFFFFFFFFFFFFFFFFFFFFFFFF AND SUB PUSH2 0xA3 JUMPI PUSH1 0x40 MLOAD PUSH32 0xD92E233D00000000000000000000000000000000000000000000000000000000 DUP2 MSTORE PUSH1 0x4 ADD PUSH1 0x40 MLOAD DUP1 SWAP2 SUB SWAP1 REVERT JUMPDEST PUSH0 PUSH20 0xFFFFFFFFFFFFFFFFFFFFFFFFFFFFFFFFFFFFFFFF AND DUP6 PUSH20 0xFFFFFFFFFFFFFFFFFFFFFFFFFFFFFFFFFFFFFFFF AND SUB PUSH2 0x108 JUMPI PUSH1 0x40 MLOAD PUSH32 0xD92E233D00000000000000000000000000000000000000000000000000000000 DUP2 MSTORE PUSH1 0x4 ADD PUSH1 0x40 MLOAD DUP1 SWAP2 SUB SWAP1 REVERT JUMPDEST PUSH0 PUSH20 0xFFFFFFFFFFFFFFFFFFFFFFFFFFFFFFFFFFFFFFFF AND DUP4 PUSH20 0xFFFFFFFFFFFFFFFFFFFFFFFFFFFFFFFFFFFFFFFF AND SUB PUSH2 0x16D JUMPI PUSH1 0x40 MLOAD PUSH32 0xD92E233D00000000000000000000000000000000000000000000000000000000 DUP2 MSTORE PUSH1 0x4 ADD PUSH1 0x40 MLOAD DUP1 SWAP2 SUB SWAP1 REVERT JUMPDEST PUSH0 PUSH20 0xFFFFFFFFFFFFFFFFFFFFFFFFFFFFFFFFFFFFFFFF AND DUP3 PUSH20 0xFFFFFFFFFFFFFFFFFFFFFFFFFFFFFFFFFFFFFFFF AND SUB PUSH2 0x1D2 JUMPI PUSH1 0x40 MLOAD PUSH32 0xD92E233D00000000000000000000000000000000000000000000000000000000 DUP2 MSTORE PUSH1 0x4 ADD PUSH1 0x40 MLOAD DUP1 SWAP2 SUB SWAP1 REVERT JUMPDEST DUP4 PUSH20 0xFFFFFFFFFFFFFFFFFFFFFFFFFFFFFFFFFFFFFFFF AND PUSH1 0xE0 DUP2 PUSH20 0xFFFFFFFFFFFFFFFFFFFFFFFFFFFFFFFFFFFFFFFF AND DUP2 MSTORE POP POP DUP5 PUSH20 0xFFFFFFFFFFFFFFFFFFFFFFFFFFFFFFFFFFFFFFFF AND PUSH2 0x100 DUP2 PUSH20 0xFFFFFFFFFFFFFFFFFFFFFFFFFFFFFFFFFFFFFFFF AND DUP2 MSTORE POP POP DUP3 PUSH20 0xFFFFFFFFFFFFFFFFFFFFFFFFFFFFFFFFFFFFFFFF AND PUSH2 0x120 DUP2 PUSH20 0xFFFFFFFFFFFFFFFFFFFFFFFFFFFFFFFFFFFFFFFF AND DUP2 MSTORE POP POP DUP2 PUSH20 0xFFFFFFFFFFFFFFFFFFFFFFFFFFFFFFFFFFFFFFFF AND PUSH2 0x140 DUP2 PUSH20 0xFFFFFFFFFFFFFFFFFFFFFFFFFFFFFFFFFFFFFFFF AND DUP2 MSTORE POP POP PUSH0 DUP6 PUSH20 0xFFFFFFFFFFFFFFFFFFFFFFFFFFFFFFFFFFFFFFFF AND PUSH4 0xAD5C4648 PUSH1 0x40 MLOAD DUP2 PUSH4 0xFFFFFFFF AND PUSH1 0xE0 SHL DUP2 MSTORE PUSH1 0x4 ADD PUSH1 0x20 PUSH1 0x40 MLOAD DUP1 DUP4 SUB DUP2 DUP7 GAS STATICCALL ISZERO DUP1 ISZERO PUSH2 0x2EF JUMPI RETURNDATASIZE PUSH0 PUSH0 RETURNDATACOPY RETURNDATASIZE PUSH0 REVERT JUMPDEST POP POP POP POP PUSH1 0x40 MLOAD RETURNDATASIZE PUSH1 0x1F NOT PUSH1 0x1F DUP3 ADD AND DUP3 ADD DUP1 PUSH1 0x40 MSTORE POP DUP2 ADD SWAP1 PUSH2 0x313 SWAP2 SWAP1 PUSH2 0x6DE JUMP JUMPDEST SWAP1 POP DUP1 PUSH20 0xFFFFFFFFFFFFFFFFFFFFFFFFFFFFFFFFFFFFFFFF AND PUSH1 0x80 DUP2 PUSH20 0xFFFFFFFFFFFFFFFFFFFFFFFFFFFFFFFFFFFFFFFF AND DUP2 MSTORE POP POP DUP6 PUSH20 0xFFFFFFFFFFFFFFFFFFFFFFFFFFFFFFFFFFFFFFFF AND PUSH4 0xC45A0155 PUSH1 0x40 MLOAD DUP2 PUSH4 0xFFFFFFFF AND PUSH1 0xE0 SHL DUP2 MSTORE PUSH1 0x4 ADD PUSH1 0x20 PUSH1 0x40 MLOAD DUP1 DUP4 SUB DUP2 DUP7 GAS STATICCALL ISZERO DUP1 ISZERO PUSH2 0x392 JUMPI RETURNDATASIZE PUSH0 PUSH0 RETURNDATACOPY RETURNDATASIZE PUSH0 REVERT JUMPDEST POP POP POP POP PUSH1 0x40 MLOAD RETURNDATASIZE PUSH1 0x1F NOT PUSH1 0x1F DUP3 ADD AND DUP3 ADD DUP1 PUSH1 0x40 MSTORE POP DUP2 ADD SWAP1 PUSH2 0x3B6 SWAP2 SWAP1 PUSH2 0x6DE JUMP JUMPDEST PUSH20 0xFFFFFFFFFFFFFFFFFFFFFFFFFFFFFFFFFFFFFFFF AND PUSH1 0xC0 DUP2 PUSH20 0xFFFFFFFFFFFFFFFFFFFFFFFFFFFFFFFFFFFFFFFF AND DUP2 MSTORE POP POP DUP2 PUSH20 0xFFFFFFFFFFFFFFFFFFFFFFFFFFFFFFFFFFFFFFFF AND PUSH1 0xA0 DUP2 PUSH20 0xFFFFFFFFFFFFFFFFFFFFFFFFFFFFFFFFFFFFFFFF AND DUP2 MSTORE POP POP POP POP POP POP POP POP PUSH2 0x432 DUP2 PUSH2 0x446 PUSH1 0x20 SHL PUSH1 0x20 SHR JUMP JUMPDEST POP PUSH1 0x1 PUSH1 0x3 DUP2 SWAP1 SSTORE POP POP POP POP POP POP POP PUSH2 0x877 JUMP JUMPDEST PUSH0 PUSH20 0xFFFFFFFFFFFFFFFFFFFFFFFFFFFFFFFFFFFFFFFF AND DUP2 PUSH20 0xFFFFFFFFFFFFFFFFFFFFFFFFFFFFFFFFFFFFFFFF AND SUB PUSH2 0x4B4 JUMPI PUSH1 0x40 MLOAD PUSH32 0x8C379A000000000000000000000000000000000000000000000000000000000 DUP2 MSTORE PUSH1 0x4 ADD PUSH2 0x4AB SWAP1 PUSH2 0x763 JUMP JUMPDEST PUSH1 0x40 MLOAD DUP1 SWAP2 SUB SWAP1 REVERT JUMPDEST PUSH0 DUP2 PUSH20 0xFFFFFFFFFFFFFFFFFFFFFFFFFFFFFFFFFFFFFFFF AND EXTCODESIZE GT PUSH2 0x50D JUMPI PUSH1 0x40 MLOAD PUSH32 0x8C379A000000000000000000000000000000000000000000000000000000000 DUP2 MSTORE PUSH1 0x4 ADD PUSH2 0x504 SWAP1 PUSH2 0x7CB JUMP JUMPDEST PUSH1 0x40 MLOAD DUP1 SWAP2 SUB SWAP1 REVERT JUMPDEST DUP1 PUSH20 0xFFFFFFFFFFFFFFFFFFFFFFFFFFFFFFFFFFFFFFFF AND PUSH4 0x8DA5CB5B PUSH1 0x40 MLOAD DUP2 PUSH4 0xFFFFFFFF AND PUSH1 0xE0 SHL DUP2 MSTORE PUSH1 0x4 ADD PUSH1 0x20 PUSH1 0x40 MLOAD DUP1 DUP4 SUB DUP2 DUP7 GAS STATICCALL SWAP3 POP POP POP DUP1 ISZERO PUSH2 0x575 JUMPI POP PUSH1 0x40 MLOAD RETURNDATASIZE PUSH1 0x1F NOT PUSH1 0x1F DUP3 ADD AND DUP3 ADD DUP1 PUSH1 0x40 MSTORE POP DUP2 ADD SWAP1 PUSH2 0x572 SWAP2 SWAP1 PUSH2 0x6DE JUMP JUMPDEST PUSH1 0x1 JUMPDEST PUSH2 0x5B4 JUMPI PUSH1 0x40 MLOAD PUSH32 0x8C379A000000000000000000000000000000000000000000000000000000000 DUP2 MSTORE PUSH1 0x4 ADD PUSH2 0x5AB SWAP1 PUSH2 0x859 JUMP JUMPDEST PUSH1 0x40 MLOAD DUP1 SWAP2 SUB SWAP1 REVERT JUMPDEST DUP2 PUSH0 PUSH0 PUSH2 0x100 EXP DUP2 SLOAD DUP2 PUSH20 0xFFFFFFFFFFFFFFFFFFFFFFFFFFFFFFFFFFFFFFFF MUL NOT AND SWAP1 DUP4 PUSH20 0xFFFFFFFFFFFFFFFFFFFFFFFFFFFFFFFFFFFFFFFF AND MUL OR SWAP1 SSTORE POP POP POP JUMP JUMPDEST PUSH0 PUSH0 REVERT JUMPDEST PUSH0 PUSH20 0xFFFFFFFFFFFFFFFFFFFFFFFFFFFFFFFFFFFFFFFF DUP3 AND SWAP1 POP SWAP2 SWAP1 POP JUMP JUMPDEST PUSH0 PUSH2 0x624 DUP3 PUSH2 0x5FB JUMP JUMPDEST SWAP1 POP SWAP2 SWAP1 POP JUMP JUMPDEST PUSH2 0x634 DUP2 PUSH2 0x61A JUMP JUMPDEST DUP2 EQ PUSH2 0x63E JUMPI PUSH0 PUSH0 REVERT JUMPDEST POP JUMP JUMPDEST PUSH0 DUP2 MLOAD SWAP1 POP PUSH2 0x64F DUP2 PUSH2 0x62B JUMP JUMPDEST SWAP3 SWAP2 POP POP JUMP JUMPDEST PUSH0 PUSH0 PUSH0 PUSH0 PUSH0 PUSH0 PUSH1 0xC0 DUP8 DUP10 SUB SLT ISZERO PUSH2 0x66F JUMPI PUSH2 0x66E PUSH2 0x5F7 JUMP JUMPDEST JUMPDEST PUSH0 PUSH2 0x67C DUP10 DUP3 DUP11 ADD PUSH2 0x641 JUMP JUMPDEST SWAP7 POP POP PUSH1 0x20 PUSH2 0x68D DUP10 DUP3 DUP11 ADD PUSH2 0x641 JUMP JUMPDEST SWAP6 POP POP PUSH1 0x40 PUSH2 0x69E DUP10 DUP3 DUP11 ADD PUSH2 0x641 JUMP JUMPDEST SWAP5 POP POP PUSH1 0x60 PUSH2 0x6AF DUP10 DUP3 DUP11 ADD PUSH2 0x641 JUMP JUMPDEST SWAP4 POP POP PUSH1 0x80 PUSH2 0x6C0 DUP10 DUP3 DUP11 ADD PUSH2 0x641 JUMP JUMPDEST SWAP3 POP POP PUSH1 0xA0 PUSH2 0x6D1 DUP10 DUP3 DUP11 ADD PUSH2 0x641 JUMP JUMPDEST SWAP2 POP POP SWAP3 SWAP6 POP SWAP3 SWAP6 POP SWAP3 SWAP6 JUMP JUMPDEST PUSH0 PUSH1 0x20 DUP3 DUP5 SUB SLT ISZERO PUSH2 0x6F3 JUMPI PUSH2 0x6F2 PUSH2 0x5F7 JUMP JUMPDEST JUMPDEST PUSH0 PUSH2 0x700 DUP5 DUP3 DUP6 ADD PUSH2 0x641 JUMP JUMPDEST SWAP2 POP POP SWAP3 SWAP2 POP POP JUMP JUMPDEST PUSH0 DUP3 DUP3 MSTORE PUSH1 0x20 DUP3 ADD SWAP1 POP SWAP3 SWAP2 POP POP JUMP JUMPDEST PUSH32 0x4469726563746F72792063616E6E6F74206265207A65726F2061646472657373 PUSH0 DUP3 ADD MSTORE POP JUMP JUMPDEST PUSH0 PUSH2 0x74D PUSH1 0x20 DUP4 PUSH2 0x709 JUMP JUMPDEST SWAP2 POP PUSH2 0x758 DUP3 PUSH2 0x719 JUMP JUMPDEST PUSH1 0x20 DUP3 ADD SWAP1 POP SWAP2 SWAP1 POP JUMP JUMPDEST PUSH0 PUSH1 0x20 DUP3 ADD SWAP1 POP DUP2 DUP2 SUB PUSH0 DUP4 ADD MSTORE PUSH2 0x77A DUP2 PUSH2 0x741 JUMP JUMPDEST SWAP1 POP SWAP2 SWAP1 POP JUMP JUMPDEST PUSH32 0x4469726563746F7279206D757374206265206120636F6E747261637400000000 PUSH0 DUP3 ADD MSTORE POP JUMP JUMPDEST PUSH0 PUSH2 0x7B5 PUSH1 0x1C DUP4 PUSH2 0x709 JUMP JUMPDEST SWAP2 POP PUSH2 0x7C0 DUP3 PUSH2 0x781 JUMP JUMPDEST PUSH1 0x20 DUP3 ADD SWAP1 POP SWAP2 SWAP1 POP JUMP JUMPDEST PUSH0 PUSH1 0x20 DUP3 ADD SWAP1 POP DUP2 DUP2 SUB PUSH0 DUP4 ADD MSTORE PUSH2 0x7E2 DUP2 PUSH2 0x7A9 JUMP JUMPDEST SWAP1 POP SWAP2 SWAP1 POP JUMP JUMPDEST PUSH32 0x4469726563746F7279206164647265737320646F6573206E6F7420696D706C65 PUSH0 DUP3 ADD MSTORE PUSH32 0x6D656E74206F776E657228290000000000000000000000000000000000000000 PUSH1 0x20 DUP3 ADD MSTORE POP JUMP JUMPDEST PUSH0 PUSH2 0x843 PUSH1 0x2C DUP4 PUSH2 0x709 JUMP JUMPDEST SWAP2 POP PUSH2 0x84E DUP3 PUSH2 0x7E9 JUMP JUMPDEST PUSH1 0x40 DUP3 ADD SWAP1 POP SWAP2 SWAP1 POP JUMP JUMPDEST PUSH0 PUSH1 0x20 DUP3 ADD SWAP1 POP DUP2 DUP2 SUB PUSH0 DUP4 ADD MSTORE PUSH2 0x870 DUP2 PUSH2 0x837 JUMP JUMPDEST SWAP1 POP SWAP2 SWAP1 POP JUMP JUMPDEST PUSH1 0x80 MLOAD PUSH1 0xA0 MLOAD PUSH1 0xC0 MLOAD PUSH1 0xE0 MLOAD PUSH2 0x100 MLOAD PUSH2 0x120 MLOAD PUSH2 0x140 MLOAD PUSH2 0x4CB0 PUSH2 0x97E PUSH0 CODECOPY PUSH0 DUP2 DUP2 PUSH2 0xA7D ADD MSTORE DUP2 DUP2 PUSH2 0x1891 ADD MSTORE DUP2 DUP2 PUSH2 0x2F3C ADD MSTORE PUSH2 0x301E ADD MSTORE PUSH0 PUSH2 0x11EE ADD MSTORE PUSH0 PUSH2 0x1212 ADD MSTORE PUSH0 DUP2 DUP2 PUSH2 0xAC5 ADD MSTORE PUSH2 0x24B5 ADD MSTORE PUSH0 DUP2 DUP2 PUSH2 0xC80 ADD MSTORE PUSH2 0x2212 ADD MSTORE PUSH0 DUP2 DUP2 PUSH2 0x57F ADD MSTORE DUP2 DUP2 PUSH2 0x2EF0 ADD MSTORE DUP2 DUP2 PUSH2 0x2F1A ADD MSTORE DUP2 DUP2 PUSH2 0x2FD2 ADD MSTORE PUSH2 0x2FFC ADD MSTORE PUSH0 DUP2 DUP2 PUSH2 0x72A ADD MSTORE DUP2 DUP2 PUSH2 0x965 ADD MSTORE DUP2 DUP2 PUSH2 0xA59 ADD MSTORE DUP2 DUP2 PUSH2 0x13F8 ADD MSTORE DUP2 DUP2 PUSH2 0x1725 ADD MSTORE DUP2 DUP2 PUSH2 0x1A91 ADD MSTORE DUP2 DUP2 PUSH2 0x1E1B ADD MSTORE DUP2 DUP2 PUSH2 0x2163 ADD MSTORE DUP2 DUP2 PUSH2 0x21E9 ADD MSTORE DUP2 DUP2 PUSH2 0x282A ADD MSTORE DUP2 DUP2 PUSH2 0x285D ADD MSTORE DUP2 DUP2 PUSH2 0x289C ADD MSTORE DUP2 DUP2 PUSH2 0x28CA ADD MSTORE DUP2 DUP2 PUSH2 0x2CEF ADD MSTORE DUP2 DUP2 PUSH2 0x2DFE ADD MSTORE DUP2 DUP2 PUSH2 0x2E31 ADD MSTORE DUP2 DUP2 PUSH2 0x2E70 ADD MSTORE PUSH2 0x2E9E ADD MSTORE PUSH2 0x4CB0 PUSH0 RETURN INVALID PUSH1 0x80 PUSH1 0x40 MSTORE PUSH1 0x4 CALLDATASIZE LT PUSH2 0x117 JUMPI PUSH0 CALLDATALOAD PUSH1 0xE0 SHR DUP1 PUSH4 0x658A847A GT PUSH2 0x9F JUMPI DUP1 PUSH4 0xBA4C7BE1 GT PUSH2 0x63 JUMPI DUP1 PUSH4 0xBA4C7BE1 EQ PUSH2 0x381 JUMPI DUP1 PUSH4 0xD32563C8 EQ PUSH2 0x3A9 JUMPI DUP1 PUSH4 0xD7DFE3AF EQ PUSH2 0x3E5 JUMPI DUP1 PUSH4 0xDEADBC14 EQ PUSH2 0x40F JUMPI DUP1 PUSH4 0xDF697CC4 EQ PUSH2 0x439 JUMPI PUSH2 0x11E JUMP JUMPDEST DUP1 PUSH4 0x658A847A EQ PUSH2 0x2B1 JUMPI DUP1 PUSH4 0x7C887C59 EQ PUSH2 0x2DB JUMPI DUP1 PUSH4 0x8DA5CB5B EQ PUSH2 0x305 JUMPI DUP1 PUSH4 0xA7590163 EQ PUSH2 0x32F JUMPI DUP1 PUSH4 0xB4B57C39 EQ PUSH2 0x357 JUMPI PUSH2 0x11E JUMP JUMPDEST DUP1 PUSH4 0x27262618 GT PUSH2 0xE6 JUMPI DUP1 PUSH4 0x27262618 EQ PUSH2 0x1CF JUMPI DUP1 PUSH4 0x3814BC6E EQ PUSH2 0x20B JUMPI DUP1 PUSH4 0x38B88052 EQ PUSH2 0x233 JUMPI DUP1 PUSH4 0x4F0E0EF3 EQ PUSH2 0x25D JUMPI DUP1 PUSH4 0x5CF39049 EQ PUSH2 0x287 JUMPI PUSH2 0x11E JUMP JUMPDEST DUP1 PUSH4 0x9053AC4 EQ PUSH2 0x122 JUMPI DUP1 PUSH4 0x12261EE7 EQ PUSH2 0x14A JUMPI DUP1 PUSH4 0x1623306B EQ PUSH2 0x174 JUMPI DUP1 PUSH4 0x24776CBE EQ PUSH2 0x190 JUMPI PUSH2 0x11E JUMP JUMPDEST CALLDATASIZE PUSH2 0x11E JUMPI STOP JUMPDEST PUSH0 PUSH0 REVERT JUMPDEST CALLVALUE DUP1 ISZERO PUSH2 0x12D JUMPI PUSH0 PUSH0 REVERT JUMPDEST POP PUSH2 0x148 PUSH1 0x4 DUP1 CALLDATASIZE SUB DUP2 ADD SWAP1 PUSH2 0x143 SWAP2 SWAP1 PUSH2 0x37EB JUMP JUMPDEST PUSH2 0x475 JUMP JUMPDEST STOP JUMPDEST CALLVALUE DUP1 ISZERO PUSH2 0x155 JUMPI PUSH0 PUSH0 REVERT JUMPDEST POP PUSH2 0x15E PUSH2 0x57D JUMP JUMPDEST PUSH1 0x40 MLOAD PUSH2 0x16B SWAP2 SWAP1 PUSH2 0x3884 JUMP JUMPDEST PUSH1 0x40 MLOAD DUP1 SWAP2 SUB SWAP1 RETURN JUMPDEST PUSH2 0x18E PUSH1 0x4 DUP1 CALLDATASIZE SUB DUP2 ADD SWAP1 PUSH2 0x189 SWAP2 SWAP1 PUSH2 0x3937 JUMP JUMPDEST PUSH2 0x5A1 JUMP JUMPDEST STOP JUMPDEST CALLVALUE DUP1 ISZERO PUSH2 0x19B JUMPI PUSH0 PUSH0 REVERT JUMPDEST POP PUSH2 0x1B6 PUSH1 0x4 DUP1 CALLDATASIZE SUB DUP2 ADD SWAP1 PUSH2 0x1B1 SWAP2 SWAP1 PUSH2 0x39A8 JUMP JUMPDEST PUSH2 0x77C JUMP JUMPDEST PUSH1 0x40 MLOAD PUSH2 0x1C6 SWAP5 SWAP4 SWAP3 SWAP2 SWAP1 PUSH2 0x3A3C JUMP JUMPDEST PUSH1 0x40 MLOAD DUP1 SWAP2 SUB SWAP1 RETURN JUMPDEST CALLVALUE DUP1 ISZERO PUSH2 0x1DA JUMPI PUSH0 PUSH0 REVERT JUMPDEST POP PUSH2 0x1F5 PUSH1 0x4 DUP1 CALLDATASIZE SUB DUP2 ADD SWAP1 PUSH2 0x1F0 SWAP2 SWAP1 PUSH2 0x3BB7 JUMP JUMPDEST PUSH2 0x7F4 JUMP JUMPDEST PUSH1 0x40 MLOAD PUSH2 0x202 SWAP2 SWAP1 PUSH2 0x3BFE JUMP JUMPDEST PUSH1 0x40 MLOAD DUP1 SWAP2 SUB SWAP1 RETURN JUMPDEST CALLVALUE DUP1 ISZERO PUSH2 0x216 JUMPI PUSH0 PUSH0 REVERT JUMPDEST POP PUSH2 0x231 PUSH1 0x4 DUP1 CALLDATASIZE SUB DUP2 ADD SWAP1 PUSH2 0x22C SWAP2 SWAP1 PUSH2 0x3CDC JUMP JUMPDEST PUSH2 0x894 JUMP JUMPDEST STOP JUMPDEST CALLVALUE DUP1 ISZERO PUSH2 0x23E JUMPI PUSH0 PUSH0 REVERT JUMPDEST POP PUSH2 0x247 PUSH2 0xA51 JUMP JUMPDEST PUSH1 0x40 MLOAD PUSH2 0x254 SWAP2 SWAP1 PUSH2 0x3D78 JUMP JUMPDEST PUSH1 0x40 MLOAD DUP1 SWAP2 SUB SWAP1 RETURN JUMPDEST CALLVALUE DUP1 ISZERO PUSH2 0x268 JUMPI PUSH0 PUSH0 REVERT JUMPDEST POP PUSH2 0x271 PUSH2 0xA57 JUMP JUMPDEST PUSH1 0x40 MLOAD PUSH2 0x27E SWAP2 SWAP1 PUSH2 0x3BFE JUMP JUMPDEST PUSH1 0x40 MLOAD DUP1 SWAP2 SUB SWAP1 RETURN JUMPDEST CALLVALUE DUP1 ISZERO PUSH2 0x292 JUMPI PUSH0 PUSH0 REVERT JUMPDEST POP PUSH2 0x29B PUSH2 0xA7B JUMP JUMPDEST PUSH1 0x40 MLOAD PUSH2 0x2A8 SWAP2 SWAP1 PUSH2 0x3DB1 JUMP JUMPDEST PUSH1 0x40 MLOAD DUP1 SWAP2 SUB SWAP1 RETURN JUMPDEST CALLVALUE DUP1 ISZERO PUSH2 0x2BC JUMPI PUSH0 PUSH0 REVERT JUMPDEST POP PUSH2 0x2C5 PUSH2 0xA9F JUMP JUMPDEST PUSH1 0x40 MLOAD PUSH2 0x2D2 SWAP2 SWAP1 PUSH2 0x3DEA JUMP JUMPDEST PUSH1 0x40 MLOAD DUP1 SWAP2 SUB SWAP1 RETURN JUMPDEST CALLVALUE DUP1 ISZERO PUSH2 0x2E6 JUMPI PUSH0 PUSH0 REVERT JUMPDEST POP PUSH2 0x2EF PUSH2 0xAC3 JUMP JUMPDEST PUSH1 0x40 MLOAD PUSH2 0x2FC SWAP2 SWAP1 PUSH2 0x3E23 JUMP JUMPDEST PUSH1 0x40 MLOAD DUP1 SWAP2 SUB SWAP1 RETURN JUMPDEST CALLVALUE DUP1 ISZERO PUSH2 0x310 JUMPI PUSH0 PUSH0 REVERT JUMPDEST POP PUSH2 0x319 PUSH2 0xAE7 JUMP JUMPDEST PUSH1 0x40 MLOAD PUSH2 0x326 SWAP2 SWAP1 PUSH2 0x3BFE JUMP JUMPDEST PUSH1 0x40 MLOAD DUP1 SWAP2 SUB SWAP1 RETURN JUMPDEST CALLVALUE DUP1 ISZERO PUSH2 0x33A JUMPI PUSH0 PUSH0 REVERT JUMPDEST POP PUSH2 0x355 PUSH1 0x4 DUP1 CALLDATASIZE SUB DUP2 ADD SWAP1 PUSH2 0x350 SWAP2 SWAP1 PUSH2 0x3E66 JUMP JUMPDEST PUSH2 0xB7A JUMP JUMPDEST STOP JUMPDEST CALLVALUE DUP1 ISZERO PUSH2 0x362 JUMPI PUSH0 PUSH0 REVERT JUMPDEST POP PUSH2 0x36B PUSH2 0xC7E JUMP JUMPDEST PUSH1 0x40 MLOAD PUSH2 0x378 SWAP2 SWAP1 PUSH2 0x3EB1 JUMP JUMPDEST PUSH1 0x40 MLOAD DUP1 SWAP2 SUB SWAP1 RETURN JUMPDEST CALLVALUE DUP1 ISZERO PUSH2 0x38C JUMPI PUSH0 PUSH0 REVERT JUMPDEST POP PUSH2 0x3A7 PUSH1 0x4 DUP1 CALLDATASIZE SUB DUP2 ADD SWAP1 PUSH2 0x3A2 SWAP2 SWAP1 PUSH2 0x39A8 JUMP JUMPDEST PUSH2 0xCA2 JUMP JUMPDEST STOP JUMPDEST CALLVALUE DUP1 ISZERO PUSH2 0x3B4 JUMPI PUSH0 PUSH0 REVERT JUMPDEST POP PUSH2 0x3CF PUSH1 0x4 DUP1 CALLDATASIZE SUB DUP2 ADD SWAP1 PUSH2 0x3CA SWAP2 SWAP1 PUSH2 0x39A8 JUMP JUMPDEST PUSH2 0xDA8 JUMP JUMPDEST PUSH1 0x40 MLOAD PUSH2 0x3DC SWAP2 SWAP1 PUSH2 0x3F59 JUMP JUMPDEST PUSH1 0x40 MLOAD DUP1 SWAP2 SUB SWAP1 RETURN JUMPDEST CALLVALUE DUP1 ISZERO PUSH2 0x3F0 JUMPI PUSH0 PUSH0 REVERT JUMPDEST POP PUSH2 0x3F9 PUSH2 0x11EC JUMP JUMPDEST PUSH1 0x40 MLOAD PUSH2 0x406 SWAP2 SWAP1 PUSH2 0x3F92 JUMP JUMPDEST PUSH1 0x40 MLOAD DUP1 SWAP2 SUB SWAP1 RETURN JUMPDEST CALLVALUE DUP1 ISZERO PUSH2 0x41A JUMPI PUSH0 PUSH0 REVERT JUMPDEST POP PUSH2 0x423 PUSH2 0x1210 JUMP JUMPDEST PUSH1 0x40 MLOAD PUSH2 0x430 SWAP2 SWAP1 PUSH2 0x3FCB JUMP JUMPDEST PUSH1 0x40 MLOAD DUP1 SWAP2 SUB SWAP1 RETURN JUMPDEST CALLVALUE DUP1 ISZERO PUSH2 0x444 JUMPI PUSH0 PUSH0 REVERT JUMPDEST POP PUSH2 0x45F PUSH1 0x4 DUP1 CALLDATASIZE SUB DUP2 ADD SWAP1 PUSH2 0x45A SWAP2 SWAP1 PUSH2 0x39A8 JUMP JUMPDEST PUSH2 0x1234 JUMP JUMPDEST PUSH1 0x40 MLOAD PUSH2 0x46C SWAP2 SWAP1 PUSH2 0x3F59 JUMP JUMPDEST PUSH1 0x40 MLOAD DUP1 SWAP2 SUB SWAP1 RETURN JUMPDEST PUSH0 PUSH0 SWAP1 SLOAD SWAP1 PUSH2 0x100 EXP SWAP1 DIV PUSH20 0xFFFFFFFFFFFFFFFFFFFFFFFFFFFFFFFFFFFFFFFF AND PUSH20 0xFFFFFFFFFFFFFFFFFFFFFFFFFFFFFFFFFFFFFFFF AND PUSH4 0x8DA5CB5B PUSH1 0x40 MLOAD DUP2 PUSH4 0xFFFFFFFF AND PUSH1 0xE0 SHL DUP2 MSTORE PUSH1 0x4 ADD PUSH1 0x20 PUSH1 0x40 MLOAD DUP1 DUP4 SUB DUP2 DUP7 GAS STATICCALL ISZERO DUP1 ISZERO PUSH2 0x4DE JUMPI RETURNDATASIZE PUSH0 PUSH0 RETURNDATACOPY RETURNDATASIZE PUSH0 REVERT JUMPDEST POP POP POP POP PUSH1 0x40 MLOAD RETURNDATASIZE PUSH1 0x1F NOT PUSH1 0x1F DUP3 ADD AND DUP3 ADD DUP1 PUSH1 0x40 MSTORE POP DUP2 ADD SWAP1 PUSH2 0x502 SWAP2 SWAP1 PUSH2 0x3FF8 JUMP JUMPDEST PUSH20 0xFFFFFFFFFFFFFFFFFFFFFFFFFFFFFFFFFFFFFFFF AND CALLER PUSH20 0xFFFFFFFFFFFFFFFFFFFFFFFFFFFFFFFFFFFFFFFF AND EQ PUSH2 0x56F JUMPI PUSH1 0x40 MLOAD PUSH32 0x8C379A000000000000000000000000000000000000000000000000000000000 DUP2 MSTORE PUSH1 0x4 ADD PUSH2 0x566 SWAP1 PUSH2 0x407D JUMP JUMPDEST PUSH1 0x40 MLOAD DUP1 SWAP2 SUB SWAP1 REVERT JUMPDEST PUSH2 0x579 DUP3 DUP3 PUSH2 0x1390 JUMP JUMPDEST POP POP JUMP JUMPDEST PUSH32 0x0 DUP2 JUMP JUMPDEST PUSH2 0x5A9 PUSH2 0x139E JUMP JUMPDEST PUSH0 PUSH20 0xFFFFFFFFFFFFFFFFFFFFFFFFFFFFFFFFFFFFFFFF AND DUP3 PUSH20 0xFFFFFFFFFFFFFFFFFFFFFFFFFFFFFFFFFFFFFFFF AND SUB PUSH2 0x60E JUMPI PUSH1 0x40 MLOAD PUSH32 0xD92E233D00000000000000000000000000000000000000000000000000000000 DUP2 MSTORE PUSH1 0x4 ADD PUSH1 0x40 MLOAD DUP1 SWAP2 SUB SWAP1 REVERT JUMPDEST PUSH0 CALLVALUE SWAP1 POP PUSH0 DUP6 DUP6 SWAP1 POP SUB PUSH2 0x64E JUMPI PUSH1 0x40 MLOAD PUSH32 0x521299A900000000000000000000000000000000000000000000000000000000 DUP2 MSTORE PUSH1 0x4 ADD PUSH1 0x40 MLOAD DUP1 SWAP2 SUB SWAP1 REVERT JUMPDEST PUSH0 DUP2 SUB PUSH2 0x687 JUMPI PUSH1 0x40 MLOAD PUSH32 0x717E6B7B00000000000000000000000000000000000000000000000000000000 DUP2 MSTORE PUSH1 0x4 ADD PUSH1 0x40 MLOAD DUP1 SWAP2 SUB SWAP1 REVERT JUMPDEST PUSH0 PUSH2 0x695 DUP7 DUP7 DUP7 DUP7 DUP7 PUSH2 0x13ED JUMP JUMPDEST SWAP1 POP PUSH0 DUP2 PUSH1 0x80 ADD MLOAD SWAP1 POP PUSH0 DUP2 EQ DUP1 PUSH2 0x6AE JUMPI POP PUSH2 0x2710 DUP2 GT JUMPDEST ISZERO PUSH2 0x6E5 JUMPI PUSH1 0x40 MLOAD PUSH32 0x124955FB00000000000000000000000000000000000000000000000000000000 DUP2 MSTORE PUSH1 0x4 ADD PUSH1 0x40 MLOAD DUP1 SWAP2 SUB SWAP1 REVERT JUMPDEST PUSH0 DUP3 PUSH1 0x60 ADD MLOAD SWAP1 POP PUSH0 DUP2 GT ISZERO PUSH2 0x6FF JUMPI PUSH2 0x6FE DUP2 PUSH2 0x16E9 JUMP JUMPDEST JUMPDEST PUSH2 0x715 DUP4 PUSH0 ADD MLOAD DUP5 PUSH1 0x20 ADD MLOAD DUP6 PUSH1 0x40 ADD MLOAD PUSH2 0x17A3 JUMP JUMPDEST PUSH0 DUP4 PUSH1 0xA0 ADD MLOAD SWAP1 POP PUSH0 DUP2 GT ISZERO PUSH2 0x751 JUMPI PUSH2 0x750 PUSH32 0x0 DUP9 DUP4 PUSH2 0x191C JUMP JUMPDEST JUMPDEST PUSH0 SELFBALANCE SWAP1 POP PUSH0 DUP2 GT ISZERO PUSH2 0x768 JUMPI PUSH2 0x767 CALLER DUP3 PUSH2 0x1965 JUMP JUMPDEST JUMPDEST POP POP POP POP POP POP PUSH2 0x776 PUSH2 0x1A7C JUMP JUMPDEST POP POP POP POP JUMP JUMPDEST PUSH1 0x1 PUSH1 0x20 MSTORE DUP1 PUSH0 MSTORE PUSH1 0x40 PUSH0 KECCAK256 PUSH0 SWAP2 POP SWAP1 POP DUP1 PUSH0 ADD PUSH0 SWAP1 SLOAD SWAP1 PUSH2 0x100 EXP SWAP1 DIV PUSH20 0xFFFFFFFFFFFFFFFFFFFFFFFFFFFFFFFFFFFFFFFF AND SWAP1 DUP1 PUSH0 ADD PUSH1 0x14 SWAP1 SLOAD SWAP1 PUSH2 0x100 EXP SWAP1 DIV PUSH3 0xFFFFFF AND SWAP1 DUP1 PUSH0 ADD PUSH1 0x17 SWAP1 SLOAD SWAP1 PUSH2 0x100 EXP SWAP1 DIV PUSH1 0xFF AND SWAP1 DUP1 PUSH0 ADD PUSH1 0x18 SWAP1 SLOAD SWAP1 PUSH2 0x100 EXP SWAP1 DIV PUSH8 0xFFFFFFFFFFFFFFFF AND SWAP1 POP DUP5 JUMP JUMPDEST PUSH0 PUSH0 PUSH0 SWAP1 SLOAD SWAP1 PUSH2 0x100 EXP SWAP1 DIV PUSH20 0xFFFFFFFFFFFFFFFFFFFFFFFFFFFFFFFFFFFFFFFF AND PUSH20 0xFFFFFFFFFFFFFFFFFFFFFFFFFFFFFFFFFFFFFFFF AND PUSH4 0x27262618 DUP4 PUSH1 0x40 MLOAD DUP3 PUSH4 0xFFFFFFFF AND PUSH1 0xE0 SHL DUP2 MSTORE PUSH1 0x4 ADD PUSH2 0x84E SWAP2 SWAP1 PUSH2 0x40EB JUMP JUMPDEST PUSH1 0x20 PUSH1 0x40 MLOAD DUP1 DUP4 SUB DUP2 DUP7 GAS STATICCALL ISZERO DUP1 ISZERO PUSH2 0x869 JUMPI RETURNDATASIZE PUSH0 PUSH0 RETURNDATACOPY RETURNDATASIZE PUSH0 REVERT JUMPDEST POP POP POP POP PUSH1 0x40 MLOAD RETURNDATASIZE PUSH1 0x1F NOT PUSH1 0x1F DUP3 ADD AND DUP3 ADD DUP1 PUSH1 0x40 MSTORE POP DUP2 ADD SWAP1 PUSH2 0x88D SWAP2 SWAP1 PUSH2 0x3FF8 JUMP JUMPDEST SWAP1 POP SWAP2 SWAP1 POP JUMP JUMPDEST PUSH2 0x89C PUSH2 0x139E JUMP JUMPDEST PUSH0 PUSH20 0xFFFFFFFFFFFFFFFFFFFFFFFFFFFFFFFFFFFFFFFF AND DUP4 PUSH20 0xFFFFFFFFFFFFFFFFFFFFFFFFFFFFFFFFFFFFFFFF AND SUB PUSH2 0x901 JUMPI PUSH1 0x40 MLOAD PUSH32 0xD92E233D00000000000000000000000000000000000000000000000000000000 DUP2 MSTORE PUSH1 0x4 ADD PUSH1 0x40 MLOAD DUP1 SWAP2 SUB SWAP1 REVERT JUMPDEST PUSH0 DUP6 DUP6 SWAP1 POP SUB PUSH2 0x93D JUMPI PUSH1 0x40 MLOAD PUSH32 0x521299A900000000000000000000000000000000000000000000000000000000 DUP2 MSTORE PUSH1 0x4 ADD PUSH1 0x40 MLOAD DUP1 SWAP2 SUB SWAP1 REVERT JUMPDEST PUSH0 PUSH2 0x94A DUP7 DUP7 DUP6 DUP6 PUSH2 0x1A86 JUMP JUMPDEST SWAP1 POP PUSH2 0x962 DUP2 PUSH0 ADD MLOAD DUP3 PUSH1 0x20 ADD MLOAD DUP4 PUSH1 0x40 ADD MLOAD PUSH2 0x17A3 JUMP JUMPDEST PUSH0 PUSH32 0x0 PUSH20 0xFFFFFFFFFFFFFFFFFFFFFFFFFFFFFFFFFFFFFFFF AND PUSH4 0x70A08231 ADDRESS PUSH1 0x40 MLOAD DUP3 PUSH4 0xFFFFFFFF AND PUSH1 0xE0 SHL DUP2 MSTORE PUSH1 0x4 ADD PUSH2 0x9BC SWAP2 SWAP1 PUSH2 0x3BFE JUMP JUMPDEST PUSH1 0x20 PUSH1 0x40 MLOAD DUP1 DUP4 SUB DUP2 DUP7 GAS STATICCALL ISZERO DUP1 ISZERO PUSH2 0x9D7 JUMPI RETURNDATASIZE PUSH0 PUSH0 RETURNDATACOPY RETURNDATASIZE PUSH0 REVERT JUMPDEST POP POP POP POP PUSH1 0x40 MLOAD RETURNDATASIZE PUSH1 0x1F NOT PUSH1 0x1F DUP3 ADD AND DUP3 ADD DUP1 PUSH1 0x40 MSTORE POP DUP2 ADD SWAP1 PUSH2 0x9FB SWAP2 SWAP1 PUSH2 0x411F JUMP JUMPDEST SWAP1 POP PUSH0 DUP2 SUB PUSH2 0xA36 JUMPI PUSH1 0x40 MLOAD PUSH32 0xABFF335A00000000000000000000000000000000000000000000000000000000 DUP2 MSTORE PUSH1 0x4 ADD PUSH1 0x40 MLOAD DUP1 SWAP2 SUB SWAP1 REVERT JUMPDEST PUSH2 0xA40 DUP2 DUP7 PUSH2 0x1E19 JUMP JUMPDEST POP POP PUSH2 0xA4A PUSH2 0x1A7C JUMP JUMPDEST POP POP POP POP POP JUMP JUMPDEST PUSH1 0x2 SLOAD DUP2 JUMP JUMPDEST PUSH32 0x0 DUP2 JUMP JUMPDEST PUSH32 0x0 DUP2 JUMP JUMPDEST PUSH0 PUSH0 SWAP1 SLOAD SWAP1 PUSH2 0x100 EXP SWAP1 DIV PUSH20 0xFFFFFFFFFFFFFFFFFFFFFFFFFFFFFFFFFFFFFFFF AND DUP2 JUMP JUMPDEST PUSH32 0x0 DUP2 JUMP JUMPDEST PUSH0 PUSH0 PUSH0 SWAP1 SLOAD SWAP1 PUSH2 0x100 EXP SWAP1 DIV PUSH20 0xFFFFFFFFFFFFFFFFFFFFFFFFFFFFFFFFFFFFFFFF AND PUSH20 0xFFFFFFFFFFFFFFFFFFFFFFFFFFFFFFFFFFFFFFFF AND PUSH4 0x8DA5CB5B PUSH1 0x40 MLOAD DUP2 PUSH4 0xFFFFFFFF AND PUSH1 0xE0 SHL DUP2 MSTORE PUSH1 0x4 ADD PUSH1 0x20 PUSH1 0x40 MLOAD DUP1 DUP4 SUB DUP2 DUP7 GAS STATICCALL ISZERO DUP1 ISZERO PUSH2 0xB51 JUMPI RETURNDATASIZE PUSH0 PUSH0 RETURNDATACOPY RETURNDATASIZE PUSH0 REVERT JUMPDEST POP POP POP POP PUSH1 0x40 MLOAD RETURNDATASIZE PUSH1 0x1F NOT PUSH1 0x1F DUP3 ADD AND DUP3 ADD DUP1 PUSH1 0x40 MSTORE POP DUP2 ADD SWAP1 PUSH2 0xB75 SWAP2 SWAP1 PUSH2 0x3FF8 JUMP JUMPDEST SWAP1 POP SWAP1 JUMP JUMPDEST PUSH0 PUSH0 SWAP1 SLOAD SWAP1 PUSH2 0x100 EXP SWAP1 DIV PUSH20 0xFFFFFFFFFFFFFFFFFFFFFFFFFFFFFFFFFFFFFFFF AND PUSH20 0xFFFFFFFFFFFFFFFFFFFFFFFFFFFFFFFFFFFFFFFF AND PUSH4 0x8DA5CB5B PUSH1 0x40 MLOAD DUP2 PUSH4 0xFFFFFFFF AND PUSH1 0xE0 SHL DUP2 MSTORE PUSH1 0x4 ADD PUSH1 0x20 PUSH1 0x40 MLOAD DUP1 DUP4 SUB DUP2 DUP7 GAS STATICCALL ISZERO DUP1 ISZERO PUSH2 0xBE3 JUMPI RETURNDATASIZE PUSH0 PUSH0 RETURNDATACOPY RETURNDATASIZE PUSH0 REVERT JUMPDEST POP POP POP POP PUSH1 0x40 MLOAD RETURNDATASIZE PUSH1 0x1F NOT PUSH1 0x1F DUP3 ADD AND DUP3 ADD DUP1 PUSH1 0x40 MSTORE POP DUP2 ADD SWAP1 PUSH2 0xC07 SWAP2 SWAP1 PUSH2 0x3FF8 JUMP JUMPDEST PUSH20 0xFFFFFFFFFFFFFFFFFFFFFFFFFFFFFFFFFFFFFFFF AND CALLER PUSH20 0xFFFFFFFFFFFFFFFFFFFFFFFFFFFFFFFFFFFFFFFF AND EQ PUSH2 0xC74 JUMPI PUSH1 0x40 MLOAD PUSH32 0x8C379A000000000000000000000000000000000000000000000000000000000 DUP2 MSTORE PUSH1 0x4 ADD PUSH2 0xC6B SWAP1 PUSH2 0x407D JUMP JUMPDEST PUSH1 0x40 MLOAD DUP1 SWAP2 SUB SWAP1 REVERT JUMPDEST DUP1 PUSH1 0x2 DUP2 SWAP1 SSTORE POP POP JUMP JUMPDEST PUSH32 0x0 DUP2 JUMP JUMPDEST PUSH0 PUSH0 SWAP1 SLOAD SWAP1 PUSH2 0x100 EXP SWAP1 DIV PUSH20 0xFFFFFFFFFFFFFFFFFFFFFFFFFFFFFFFFFFFFFFFF AND PUSH20 0xFFFFFFFFFFFFFFFFFFFFFFFFFFFFFFFFFFFFFFFF AND PUSH4 0x8DA5CB5B PUSH1 0x40 MLOAD DUP2 PUSH4 0xFFFFFFFF AND PUSH1 0xE0 SHL DUP2 MSTORE PUSH1 0x4 ADD PUSH1 0x20 PUSH1 0x40 MLOAD DUP1 DUP4 SUB DUP2 DUP7 GAS STATICCALL ISZERO DUP1 ISZERO PUSH2 0xD0B JUMPI RETURNDATASIZE PUSH0 PUSH0 RETURNDATACOPY RETURNDATASIZE PUSH0 REVERT JUMPDEST POP POP POP POP PUSH1 0x40 MLOAD RETURNDATASIZE PUSH1 0x1F NOT PUSH1 0x1F DUP3 ADD AND DUP3 ADD DUP1 PUSH1 0x40 MSTORE POP DUP2 ADD SWAP1 PUSH2 0xD2F SWAP2 SWAP1 PUSH2 0x3FF8 JUMP JUMPDEST PUSH20 0xFFFFFFFFFFFFFFFFFFFFFFFFFFFFFFFFFFFFFFFF AND CALLER PUSH20 0xFFFFFFFFFFFFFFFFFFFFFFFFFFFFFFFFFFFFFFFF AND EQ PUSH2 0xD9C JUMPI PUSH1 0x40 MLOAD PUSH32 0x8C379A000000000000000000000000000000000000000000000000000000000 DUP2 MSTORE PUSH1 0x4 ADD PUSH2 0xD93 SWAP1 PUSH2 0x407D JUMP JUMPDEST PUSH1 0x40 MLOAD DUP1 SWAP2 SUB SWAP1 REVERT JUMPDEST PUSH2 0xDA5 DUP2 PUSH2 0x1F43 JUMP JUMPDEST POP JUMP JUMPDEST PUSH2 0xDB0 PUSH2 0x36E2 JUMP JUMPDEST PUSH0 PUSH1 0x1 PUSH0 DUP5 PUSH20 0xFFFFFFFFFFFFFFFFFFFFFFFFFFFFFFFFFFFFFFFF AND PUSH20 0xFFFFFFFFFFFFFFFFFFFFFFFFFFFFFFFFFFFFFFFF AND DUP2 MSTORE PUSH1 0x20 ADD SWAP1 DUP2 MSTORE PUSH1 0x20 ADD PUSH0 KECCAK256 SWAP1 POP PUSH0 PUSH20 0xFFFFFFFFFFFFFFFFFFFFFFFFFFFFFFFFFFFFFFFF AND DUP2 PUSH0 ADD PUSH0 SWAP1 SLOAD SWAP1 PUSH2 0x100 EXP SWAP1 DIV PUSH20 0xFFFFFFFFFFFFFFFFFFFFFFFFFFFFFFFFFFFFFFFF AND PUSH20 0xFFFFFFFFFFFFFFFFFFFFFFFFFFFFFFFFFFFFFFFF AND SUB PUSH2 0xF4D JUMPI PUSH2 0xE4E DUP4 PUSH2 0x20F4 JUMP JUMPDEST SWAP2 POP DUP2 PUSH1 0x1 PUSH0 DUP6 PUSH20 0xFFFFFFFFFFFFFFFFFFFFFFFFFFFFFFFFFFFFFFFF AND PUSH20 0xFFFFFFFFFFFFFFFFFFFFFFFFFFFFFFFFFFFFFFFF AND DUP2 MSTORE PUSH1 0x20 ADD SWAP1 DUP2 MSTORE PUSH1 0x20 ADD PUSH0 KECCAK256 PUSH0 DUP3 ADD MLOAD DUP2 PUSH0 ADD PUSH0 PUSH2 0x100 EXP DUP2 SLOAD DUP2 PUSH20 0xFFFFFFFFFFFFFFFFFFFFFFFFFFFFFFFFFFFFFFFF MUL NOT AND SWAP1 DUP4 PUSH20 0xFFFFFFFFFFFFFFFFFFFFFFFFFFFFFFFFFFFFFFFF AND MUL OR SWAP1 SSTORE POP PUSH1 0x20 DUP3 ADD MLOAD DUP2 PUSH0 ADD PUSH1 0x14 PUSH2 0x100 EXP DUP2 SLOAD DUP2 PUSH3 0xFFFFFF MUL NOT AND SWAP1 DUP4 PUSH3 0xFFFFFF AND MUL OR SWAP1 SSTORE POP PUSH1 0x40 DUP3 ADD MLOAD DUP2 PUSH0 ADD PUSH1 0x17 PUSH2 0x100 EXP DUP2 SLOAD DUP2 PUSH1 0xFF MUL NOT AND SWAP1 DUP4 PUSH1 0xFF AND MUL OR SWAP1 SSTORE POP PUSH1 0x60 DUP3 ADD MLOAD DUP2 PUSH0 ADD PUSH1 0x18 PUSH2 0x100 EXP DUP2 SLOAD DUP2 PUSH8 0xFFFFFFFFFFFFFFFF MUL NOT AND SWAP1 DUP4 PUSH8 0xFFFFFFFFFFFFFFFF AND MUL OR SWAP1 SSTORE POP SWAP1 POP POP POP PUSH2 0x11E7 JUMP JUMPDEST PUSH1 0x2 SLOAD DUP2 PUSH0 ADD PUSH1 0x18 SWAP1 SLOAD SWAP1 PUSH2 0x100 EXP SWAP1 DIV PUSH8 0xFFFFFFFFFFFFFFFF AND PUSH8 0xFFFFFFFFFFFFFFFF AND TIMESTAMP PUSH2 0xF7D SWAP2 SWAP1 PUSH2 0x4177 JUMP JUMPDEST GT ISZERO PUSH2 0x1114 JUMPI PUSH0 PUSH2 0xF8D DUP5 PUSH2 0x20F4 JUMP JUMPDEST SWAP1 POP DUP2 PUSH0 ADD PUSH0 SWAP1 SLOAD SWAP1 PUSH2 0x100 EXP SWAP1 DIV PUSH20 0xFFFFFFFFFFFFFFFFFFFFFFFFFFFFFFFFFFFFFFFF AND PUSH20 0xFFFFFFFFFFFFFFFFFFFFFFFFFFFFFFFFFFFFFFFF AND DUP2 PUSH0 ADD MLOAD PUSH20 0xFFFFFFFFFFFFFFFFFFFFFFFFFFFFFFFFFFFFFFFF AND EQ PUSH2 0x10E8 JUMPI DUP1 PUSH1 0x1 PUSH0 DUP7 PUSH20 0xFFFFFFFFFFFFFFFFFFFFFFFFFFFFFFFFFFFFFFFF AND PUSH20 0xFFFFFFFFFFFFFFFFFFFFFFFFFFFFFFFFFFFFFFFF AND DUP2 MSTORE PUSH1 0x20 ADD SWAP1 DUP2 MSTORE PUSH1 0x20 ADD PUSH0 KECCAK256 PUSH0 DUP3 ADD MLOAD DUP2 PUSH0 ADD PUSH0 PUSH2 0x100 EXP DUP2 SLOAD DUP2 PUSH20 0xFFFFFFFFFFFFFFFFFFFFFFFFFFFFFFFFFFFFFFFF MUL NOT AND SWAP1 DUP4 PUSH20 0xFFFFFFFFFFFFFFFFFFFFFFFFFFFFFFFFFFFFFFFF AND MUL OR SWAP1 SSTORE POP PUSH1 0x20 DUP3 ADD MLOAD DUP2 PUSH0 ADD PUSH1 0x14 PUSH2 0x100 EXP DUP2 SLOAD DUP2 PUSH3 0xFFFFFF MUL NOT AND SWAP1 DUP4 PUSH3 0xFFFFFF AND MUL OR SWAP1 SSTORE POP PUSH1 0x40 DUP3 ADD MLOAD DUP2 PUSH0 ADD PUSH1 0x17 PUSH2 0x100 EXP DUP2 SLOAD DUP2 PUSH1 0xFF MUL NOT AND SWAP1 DUP4 PUSH1 0xFF AND MUL OR SWAP1 SSTORE POP PUSH1 0x60 DUP3 ADD MLOAD DUP2 PUSH0 ADD PUSH1 0x18 PUSH2 0x100 EXP DUP2 SLOAD DUP2 PUSH8 0xFFFFFFFFFFFFFFFF MUL NOT AND SWAP1 DUP4 PUSH8 0xFFFFFFFFFFFFFFFF AND MUL OR SWAP1 SSTORE POP SWAP1 POP POP DUP1 SWAP3 POP POP POP PUSH2 0x11E7 JUMP JUMPDEST TIMESTAMP DUP3 PUSH0 ADD PUSH1 0x18 PUSH2 0x100 EXP DUP2 SLOAD DUP2 PUSH8 0xFFFFFFFFFFFFFFFF MUL NOT AND SWAP1 DUP4 PUSH8 0xFFFFFFFFFFFFFFFF AND MUL OR SWAP1 SSTORE POP POP JUMPDEST DUP1 PUSH1 0x40 MLOAD DUP1 PUSH1 0x80 ADD PUSH1 0x40 MSTORE SWAP1 DUP2 PUSH0 DUP3 ADD PUSH0 SWAP1 SLOAD SWAP1 PUSH2 0x100 EXP SWAP1 DIV PUSH20 0xFFFFFFFFFFFFFFFFFFFFFFFFFFFFFFFFFFFFFFFF AND PUSH20 0xFFFFFFFFFFFFFFFFFFFFFFFFFFFFFFFFFFFFFFFF AND PUSH20 0xFFFFFFFFFFFFFFFFFFFFFFFFFFFFFFFFFFFFFFFF AND DUP2 MSTORE PUSH1 0x20 ADD PUSH0 DUP3 ADD PUSH1 0x14 SWAP1 SLOAD SWAP1 PUSH2 0x100 EXP SWAP1 DIV PUSH3 0xFFFFFF AND PUSH3 0xFFFFFF AND PUSH3 0xFFFFFF AND DUP2 MSTORE PUSH1 0x20 ADD PUSH0 DUP3 ADD PUSH1 0x17 SWAP1 SLOAD SWAP1 PUSH2 0x100 EXP SWAP1 DIV PUSH1 0xFF AND PUSH1 0xFF AND PUSH1 0xFF AND DUP2 MSTORE PUSH1 0x20 ADD PUSH0 DUP3 ADD PUSH1 0x18 SWAP1 SLOAD SWAP1 PUSH2 0x100 EXP SWAP1 DIV PUSH8 0xFFFFFFFFFFFFFFFF AND PUSH8 0xFFFFFFFFFFFFFFFF AND PUSH8 0xFFFFFFFFFFFFFFFF AND DUP2 MSTORE POP POP SWAP2 POP POP JUMPDEST SWAP2 SWAP1 POP JUMP JUMPDEST PUSH32 0x0 DUP2 JUMP JUMPDEST PUSH32 0x0 DUP2 JUMP JUMPDEST PUSH2 0x123C PUSH2 0x36E2 JUMP JUMPDEST PUSH1 0x1 PUSH0 DUP4 PUSH20 0xFFFFFFFFFFFFFFFFFFFFFFFFFFFFFFFFFFFFFFFF AND PUSH20 0xFFFFFFFFFFFFFFFFFFFFFFFFFFFFFFFFFFFFFFFF AND DUP2 MSTORE PUSH1 0x20 ADD SWAP1 DUP2 MSTORE PUSH1 0x20 ADD PUSH0 KECCAK256 PUSH1 0x40 MLOAD DUP1 PUSH1 0x80 ADD PUSH1 0x40 MSTORE SWAP1 DUP2 PUSH0 DUP3 ADD PUSH0 SWAP1 SLOAD SWAP1 PUSH2 0x100 EXP SWAP1 DIV PUSH20 0xFFFFFFFFFFFFFFFFFFFFFFFFFFFFFFFFFFFFFFFF AND PUSH20 0xFFFFFFFFFFFFFFFFFFFFFFFFFFFFFFFFFFFFFFFF AND PUSH20 0xFFFFFFFFFFFFFFFFFFFFFFFFFFFFFFFFFFFFFFFF AND DUP2 MSTORE PUSH1 0x20 ADD PUSH0 DUP3 ADD PUSH1 0x14 SWAP1 SLOAD SWAP1 PUSH2 0x100 EXP SWAP1 DIV PUSH3 0xFFFFFF AND PUSH3 0xFFFFFF AND PUSH3 0xFFFFFF AND DUP2 MSTORE PUSH1 0x20 ADD PUSH0 DUP3 ADD PUSH1 0x17 SWAP1 SLOAD SWAP1 PUSH2 0x100 EXP SWAP1 DIV PUSH1 0xFF AND PUSH1 0xFF AND PUSH1 0xFF AND DUP2 MSTORE PUSH1 0x20 ADD PUSH0 DUP3 ADD PUSH1 0x18 SWAP1 SLOAD SWAP1 PUSH2 0x100 EXP SWAP1 DIV PUSH8 0xFFFFFFFFFFFFFFFF AND PUSH8 0xFFFFFFFFFFFFFFFF AND PUSH8 0xFFFFFFFFFFFFFFFF AND DUP2 MSTORE POP POP SWAP1 POP PUSH0 PUSH20 0xFFFFFFFFFFFFFFFFFFFFFFFFFFFFFFFFFFFFFFFF AND DUP2 PUSH0 ADD MLOAD PUSH20 0xFFFFFFFFFFFFFFFFFFFFFFFFFFFFFFFFFFFFFFFF AND SUB PUSH2 0x138B JUMPI PUSH2 0x1388 DUP3 PUSH2 0x20F4 JUMP JUMPDEST SWAP1 POP JUMPDEST SWAP2 SWAP1 POP JUMP JUMPDEST PUSH2 0x139A DUP3 DUP3 PUSH2 0x26A4 JUMP JUMPDEST POP POP JUMP JUMPDEST PUSH1 0x2 PUSH1 0x3 SLOAD SUB PUSH2 0x13E3 JUMPI PUSH1 0x40 MLOAD PUSH32 0x8C379A000000000000000000000000000000000000000000000000000000000 DUP2 MSTORE PUSH1 0x4 ADD PUSH2 0x13DA SWAP1 PUSH2 0x41F4 JUMP JUMPDEST PUSH1 0x40 MLOAD DUP1 SWAP2 SUB SWAP1 REVERT JUMPDEST PUSH1 0x2 PUSH1 0x3 DUP2 SWAP1 SSTORE POP JUMP JUMPDEST PUSH2 0x13F5 PUSH2 0x372E JUMP JUMPDEST PUSH0 PUSH32 0x0 SWAP1 POP PUSH0 DUP8 DUP8 SWAP1 POP SWAP1 POP DUP1 PUSH8 0xFFFFFFFFFFFFFFFF DUP2 GT ISZERO PUSH2 0x143A JUMPI PUSH2 0x1439 PUSH2 0x3A93 JUMP JUMPDEST JUMPDEST PUSH1 0x40 MLOAD SWAP1 DUP1 DUP3 MSTORE DUP1 PUSH1 0x20 MUL PUSH1 0x20 ADD DUP3 ADD PUSH1 0x40 MSTORE DUP1 ISZERO PUSH2 0x146D JUMPI DUP2 PUSH1 0x20 ADD JUMPDEST PUSH1 0x60 DUP2 MSTORE PUSH1 0x20 ADD SWAP1 PUSH1 0x1 SWAP1 SUB SWAP1 DUP2 PUSH2 0x1458 JUMPI SWAP1 POP JUMPDEST POP DUP4 PUSH1 0x20 ADD DUP2 SWAP1 MSTORE POP DUP1 PUSH8 0xFFFFFFFFFFFFFFFF DUP2 GT ISZERO PUSH2 0x1490 JUMPI PUSH2 0x148F PUSH2 0x3A93 JUMP JUMPDEST JUMPDEST PUSH1 0x40 MLOAD SWAP1 DUP1 DUP3 MSTORE DUP1 PUSH1 0x1F ADD PUSH1 0x1F NOT AND PUSH1 0x20 ADD DUP3 ADD PUSH1 0x40 MSTORE DUP1 ISZERO PUSH2 0x14C2 JUMPI DUP2 PUSH1 0x20 ADD PUSH1 0x1 DUP3 MUL DUP1 CALLDATASIZE DUP4 CALLDATACOPY DUP1 DUP3 ADD SWAP2 POP POP SWAP1 POP JUMPDEST POP DUP4 PUSH0 ADD DUP2 SWAP1 MSTORE POP PUSH0 PUSH0 SWAP1 POP JUMPDEST DUP2 DUP2 LT ISZERO PUSH2 0x16DD JUMPI PUSH0 DUP10 DUP10 DUP4 DUP2 DUP2 LT PUSH2 0x14EB JUMPI PUSH2 0x14EA PUSH2 0x4212 JUMP JUMPDEST JUMPDEST SWAP1 POP PUSH1 0x40 MUL ADD PUSH0 ADD PUSH1 0x20 DUP2 ADD SWAP1 PUSH2 0x1502 SWAP2 SWAP1 PUSH2 0x39A8 JUMP JUMPDEST SWAP1 POP PUSH0 PUSH20 0xFFFFFFFFFFFFFFFFFFFFFFFFFFFFFFFFFFFFFFFF AND DUP2 PUSH20 0xFFFFFFFFFFFFFFFFFFFFFFFFFFFFFFFFFFFFFFFF AND SUB PUSH2 0x1569 JUMPI PUSH1 0x40 MLOAD PUSH32 0x7401D93100000000000000000000000000000000000000000000000000000000 DUP2 MSTORE PUSH1 0x4 ADD PUSH1 0x40 MLOAD DUP1 SWAP2 SUB SWAP1 REVERT JUMPDEST PUSH0 DUP11 DUP11 DUP5 DUP2 DUP2 LT PUSH2 0x157D JUMPI PUSH2 0x157C PUSH2 0x4212 JUMP JUMPDEST JUMPDEST SWAP1 POP PUSH1 0x40 MUL ADD PUSH1 0x20 ADD PUSH1 0x20 DUP2 ADD SWAP1 PUSH2 0x1595 SWAP2 SWAP1 PUSH2 0x4276 JUMP JUMPDEST PUSH2 0xFFFF AND SWAP1 POP DUP1 DUP7 PUSH1 0x80 ADD DUP2 DUP2 MLOAD ADD SWAP2 POP DUP2 DUP2 MSTORE POP POP PUSH0 DUP2 SUB PUSH2 0x15B9 JUMPI POP POP PUSH2 0x16D2 JUMP JUMPDEST PUSH0 PUSH2 0x2710 DUP3 DUP10 MUL DUP2 PUSH2 0x15CE JUMPI PUSH2 0x15CD PUSH2 0x42A1 JUMP JUMPDEST JUMPDEST DIV SWAP1 POP PUSH0 DUP2 SUB PUSH2 0x15E0 JUMPI POP POP POP PUSH2 0x16D2 JUMP JUMPDEST DUP1 DUP8 PUSH1 0x60 ADD DUP2 DUP2 MLOAD ADD SWAP2 POP DUP2 DUP2 MSTORE POP POP DUP6 PUSH20 0xFFFFFFFFFFFFFFFFFFFFFFFFFFFFFFFFFFFFFFFF AND DUP4 PUSH20 0xFFFFFFFFFFFFFFFFFFFFFFFFFFFFFFFFFFFFFFFF AND SUB PUSH2 0x163B JUMPI DUP1 DUP8 PUSH1 0xA0 ADD DUP2 DUP2 MLOAD ADD SWAP2 POP DUP2 DUP2 MSTORE POP POP POP POP POP PUSH2 0x16D2 JUMP JUMPDEST PUSH0 PUSH0 PUSH2 0x1649 DUP6 DUP5 DUP15 DUP15 PUSH2 0x277B JUMP JUMPDEST SWAP2 POP SWAP2 POP DUP2 DUP10 PUSH0 ADD MLOAD DUP11 PUSH1 0x40 ADD MLOAD DUP2 MLOAD DUP2 LT PUSH2 0x1668 JUMPI PUSH2 0x1667 PUSH2 0x4212 JUMP JUMPDEST JUMPDEST PUSH1 0x20 ADD ADD SWAP1 PUSH31 0xFFFFFFFFFFFFFFFFFFFFFFFFFFFFFFFFFFFFFFFFFFFFFFFFFFFFFFFFFFFFFF NOT AND SWAP1 DUP2 PUSH0 BYTE SWAP1 MSTORE8 POP DUP1 DUP10 PUSH1 0x20 ADD MLOAD DUP11 PUSH1 0x40 ADD MLOAD DUP2 MLOAD DUP2 LT PUSH2 0x16B2 JUMPI PUSH2 0x16B1 PUSH2 0x4212 JUMP JUMPDEST JUMPDEST PUSH1 0x20 MUL PUSH1 0x20 ADD ADD DUP2 SWAP1 MSTORE POP DUP9 PUSH1 0x40 ADD DUP1 MLOAD PUSH1 0x1 ADD SWAP1 DUP2 DUP2 MSTORE POP POP POP POP POP POP POP JUMPDEST DUP1 PUSH1 0x1 ADD SWAP1 POP PUSH2 0x14CF JUMP JUMPDEST POP POP POP SWAP6 SWAP5 POP POP POP POP POP JUMP JUMPDEST DUP1 SELFBALANCE LT ISZERO PUSH2 0x1723 JUMPI PUSH1 0x40 MLOAD PUSH32 0x6A12F10400000000000000000000000000000000000000000000000000000000 DUP2 MSTORE PUSH1 0x4 ADD PUSH1 0x40 MLOAD DUP1 SWAP2 SUB SWAP1 REVERT JUMPDEST PUSH32 0x0 PUSH20 0xFFFFFFFFFFFFFFFFFFFFFFFFFFFFFFFFFFFFFFFF AND PUSH4 0xD0E30DB0 DUP3 PUSH1 0x40 MLOAD DUP3 PUSH4 0xFFFFFFFF AND PUSH1 0xE0 SHL DUP2 MSTORE PUSH1 0x4 ADD PUSH0 PUSH1 0x40 MLOAD DUP1 DUP4 SUB DUP2 DUP6 DUP9 DUP1 EXTCODESIZE ISZERO DUP1 ISZERO PUSH2 0x1789 JUMPI PUSH0 PUSH0 REVERT JUMPDEST POP GAS CALL ISZERO DUP1 ISZERO PUSH2 0x179B JUMPI RETURNDATASIZE PUSH0 PUSH0 RETURNDATACOPY RETURNDATASIZE PUSH0 REVERT JUMPDEST POP POP POP POP POP POP JUMP JUMPDEST PUSH0 DUP2 SUB PUSH2 0x17DC JUMPI PUSH1 0x40 MLOAD PUSH32 0xABFF335A00000000000000000000000000000000000000000000000000000000 DUP2 MSTORE PUSH1 0x4 ADD PUSH1 0x40 MLOAD DUP1 SWAP2 SUB SWAP1 REVERT JUMPDEST DUP1 DUP3 MLOAD EQ PUSH2 0x188C JUMPI PUSH0 DUP2 PUSH8 0xFFFFFFFFFFFFFFFF DUP2 GT ISZERO PUSH2 0x17FF JUMPI PUSH2 0x17FE PUSH2 0x3A93 JUMP JUMPDEST JUMPDEST PUSH1 0x40 MLOAD SWAP1 DUP1 DUP3 MSTORE DUP1 PUSH1 0x20 MUL PUSH1 0x20 ADD DUP3 ADD PUSH1 0x40 MSTORE DUP1 ISZERO PUSH2 0x1832 JUMPI DUP2 PUSH1 0x20 ADD JUMPDEST PUSH1 0x60 DUP2 MSTORE PUSH1 0x20 ADD SWAP1 PUSH1 0x1 SWAP1 SUB SWAP1 DUP2 PUSH2 0x181D JUMPI SWAP1 POP JUMPDEST POP SWAP1 POP PUSH0 PUSH0 SWAP1 POP JUMPDEST DUP3 DUP2 LT ISZERO PUSH2 0x1886 JUMPI DUP4 DUP2 DUP2 MLOAD DUP2 LT PUSH2 0x1855 JUMPI PUSH2 0x1854 PUSH2 0x4212 JUMP JUMPDEST JUMPDEST PUSH1 0x20 MUL PUSH1 0x20 ADD ADD MLOAD DUP3 DUP3 DUP2 MLOAD DUP2 LT PUSH2 0x1870 JUMPI PUSH2 0x186F PUSH2 0x4212 JUMP JUMPDEST JUMPDEST PUSH1 0x20 MUL PUSH1 0x20 ADD ADD DUP2 SWAP1 MSTORE POP DUP1 PUSH1 0x1 ADD SWAP1 POP PUSH2 0x183A JUMP JUMPDEST POP DUP1 SWAP3 POP POP JUMPDEST DUP1 DUP4 MSTORE PUSH32 0x0 PUSH20 0xFFFFFFFFFFFFFFFFFFFFFFFFFFFFFFFFFFFFFFFF AND PUSH4 0x24856BC3 DUP5 DUP5 PUSH1 0x40 MLOAD DUP4 PUSH4 0xFFFFFFFF AND PUSH1 0xE0 SHL DUP2 MSTORE PUSH1 0x4 ADD PUSH2 0x18EA SWAP3 SWAP2 SWAP1 PUSH2 0x4423 JUMP JUMPDEST PUSH0 PUSH1 0x40 MLOAD DUP1 DUP4 SUB DUP2 PUSH0 DUP8 DUP1 EXTCODESIZE ISZERO DUP1 ISZERO PUSH2 0x1901 JUMPI PUSH0 PUSH0 REVERT JUMPDEST POP GAS CALL ISZERO DUP1 ISZERO PUSH2 0x1913 JUMPI RETURNDATASIZE PUSH0 PUSH0 RETURNDATACOPY RETURNDATASIZE PUSH0 REVERT JUMPDEST POP POP POP POP POP POP POP JUMP JUMPDEST PUSH0 DUP2 SUB PUSH2 0x1955 JUMPI PUSH1 0x40 MLOAD PUSH32 0x1F2A200500000000000000000000000000000000000000000000000000000000 DUP2 MSTORE PUSH1 0x4 ADD PUSH1 0x40 MLOAD DUP1 SWAP2 SUB SWAP1 REVERT JUMPDEST PUSH2 0x1960 DUP4 DUP4 DUP4 PUSH2 0x2908 JUMP JUMPDEST POP POP POP JUMP JUMPDEST PUSH0 DUP2 SUB PUSH2 0x199E JUMPI PUSH1 0x40 MLOAD PUSH32 0x1F2A200500000000000000000000000000000000000000000000000000000000 DUP2 MSTORE PUSH1 0x4 ADD PUSH1 0x40 MLOAD DUP1 SWAP2 SUB SWAP1 REVERT JUMPDEST DUP1 SELFBALANCE LT ISZERO PUSH2 0x19D8 JUMPI PUSH1 0x40 MLOAD PUSH32 0x6A12F10400000000000000000000000000000000000000000000000000000000 DUP2 MSTORE PUSH1 0x4 ADD PUSH1 0x40 MLOAD DUP1 SWAP2 SUB SWAP1 REVERT JUMPDEST PUSH0 DUP3 PUSH20 0xFFFFFFFFFFFFFFFFFFFFFFFFFFFFFFFFFFFFFFFF AND DUP3 PUSH1 0x40 MLOAD PUSH2 0x19FD SWAP1 PUSH2 0x4485 JUMP JUMPDEST PUSH0 PUSH1 0x40 MLOAD DUP1 DUP4 SUB DUP2 DUP6 DUP8 GAS CALL SWAP3 POP POP POP RETURNDATASIZE DUP1 PUSH0 DUP2 EQ PUSH2 0x1A37 JUMPI PUSH1 0x40 MLOAD SWAP2 POP PUSH1 0x1F NOT PUSH1 0x3F RETURNDATASIZE ADD AND DUP3 ADD PUSH1 0x40 MSTORE RETURNDATASIZE DUP3 MSTORE RETURNDATASIZE PUSH0 PUSH1 0x20 DUP5 ADD RETURNDATACOPY PUSH2 0x1A3C JUMP JUMPDEST PUSH1 0x60 SWAP2 POP JUMPDEST POP POP SWAP1 POP DUP1 PUSH2 0x1A77 JUMPI PUSH1 0x40 MLOAD PUSH32 0xCEF4EED700000000000000000000000000000000000000000000000000000000 DUP2 MSTORE PUSH1 0x4 ADD PUSH1 0x40 MLOAD DUP1 SWAP2 SUB SWAP1 REVERT JUMPDEST POP POP POP JUMP JUMPDEST PUSH1 0x1 PUSH1 0x3 DUP2 SWAP1 SSTORE POP JUMP JUMPDEST PUSH2 0x1A8E PUSH2 0x3760 JUMP JUMPDEST PUSH0 PUSH32 0x0 SWAP1 POP PUSH0 DUP7 DUP7 SWAP1 POP SWAP1 POP DUP1 PUSH8 0xFFFFFFFFFFFFFFFF DUP2 GT ISZERO PUSH2 0x1AD3 JUMPI PUSH2 0x1AD2 PUSH2 0x3A93 JUMP JUMPDEST JUMPDEST PUSH1 0x40 MLOAD SWAP1 DUP1 DUP3 MSTORE DUP1 PUSH1 0x20 MUL PUSH1 0x20 ADD DUP3 ADD PUSH1 0x40 MSTORE DUP1 ISZERO PUSH2 0x1B06 JUMPI DUP2 PUSH1 0x20 ADD JUMPDEST PUSH1 0x60 DUP2 MSTORE PUSH1 0x20 ADD SWAP1 PUSH1 0x1 SWAP1 SUB SWAP1 DUP2 PUSH2 0x1AF1 JUMPI SWAP1 POP JUMPDEST POP DUP4 PUSH1 0x20 ADD DUP2 SWAP1 MSTORE POP DUP1 PUSH8 0xFFFFFFFFFFFFFFFF DUP2 GT ISZERO PUSH2 0x1B29 JUMPI PUSH2 0x1B28 PUSH2 0x3A93 JUMP JUMPDEST JUMPDEST PUSH1 0x40 MLOAD SWAP1 DUP1 DUP3 MSTORE DUP1 PUSH1 0x1F ADD PUSH1 0x1F NOT AND PUSH1 0x20 ADD DUP3 ADD PUSH1 0x40 MSTORE DUP1 ISZERO PUSH2 0x1B5B JUMPI DUP2 PUSH1 0x20 ADD PUSH1 0x1 DUP3 MUL DUP1 CALLDATASIZE DUP4 CALLDATACOPY DUP1 DUP3 ADD SWAP2 POP POP SWAP1 POP JUMPDEST POP DUP4 PUSH0 ADD DUP2 SWAP1 MSTORE POP PUSH0 PUSH0 SWAP1 POP JUMPDEST DUP2 DUP2 LT ISZERO PUSH2 0x1E0E JUMPI PUSH0 DUP9 DUP9 DUP4 DUP2 DUP2 LT PUSH2 0x1B84 JUMPI PUSH2 0x1B83 PUSH2 0x4212 JUMP JUMPDEST JUMPDEST SWAP1 POP PUSH1 0x40 MUL ADD PUSH0 ADD PUSH1 0x20 DUP2 ADD SWAP1 PUSH2 0x1B9B SWAP2 SWAP1 PUSH2 0x39A8 JUMP JUMPDEST SWAP1 POP PUSH0 DUP10 DUP10 DUP5 DUP2 DUP2 LT PUSH2 0x1BB1 JUMPI PUSH2 0x1BB0 PUSH2 0x4212 JUMP JUMPDEST JUMPDEST SWAP1 POP PUSH1 0x40 MUL ADD PUSH1 0x20 ADD CALLDATALOAD SWAP1 POP PUSH0 DUP2 SUB PUSH2 0x1BCB JUMPI POP POP PUSH2 0x1E03 JUMP JUMPDEST PUSH0 PUSH20 0xFFFFFFFFFFFFFFFFFFFFFFFFFFFFFFFFFFFFFFFF AND DUP3 PUSH20 0xFFFFFFFFFFFFFFFFFFFFFFFFFFFFFFFFFFFFFFFF AND SUB PUSH2 0x1C30 JUMPI PUSH1 0x40 MLOAD PUSH32 0x7401D93100000000000000000000000000000000000000000000000000000000 DUP2 MSTORE PUSH1 0x4 ADD PUSH1 0x40 MLOAD DUP1 SWAP2 SUB SWAP1 REVERT JUMPDEST PUSH0 DUP6 PUSH20 0xFFFFFFFFFFFFFFFFFFFFFFFFFFFFFFFFFFFFFFFF AND DUP4 PUSH20 0xFFFFFFFFFFFFFFFFFFFFFFFFFFFFFFFFFFFFFFFF AND EQ SWAP1 POP PUSH0 DUP9 ISZERO PUSH2 0x1D37 JUMPI PUSH0 DUP5 PUSH20 0xFFFFFFFFFFFFFFFFFFFFFFFFFFFFFFFFFFFFFFFF AND PUSH4 0x70A08231 ADDRESS PUSH1 0x40 MLOAD DUP3 PUSH4 0xFFFFFFFF AND PUSH1 0xE0 SHL DUP2 MSTORE PUSH1 0x4 ADD PUSH2 0x1CA3 SWAP2 SWAP1 PUSH2 0x3BFE JUMP JUMPDEST PUSH1 0x20 PUSH1 0x40 MLOAD DUP1 DUP4 SUB DUP2 DUP7 GAS STATICCALL ISZERO DUP1 ISZERO PUSH2 0x1CBE JUMPI RETURNDATASIZE PUSH0 PUSH0 RETURNDATACOPY RETURNDATASIZE PUSH0 REVERT JUMPDEST POP POP POP POP PUSH1 0x40 MLOAD RETURNDATASIZE PUSH1 0x1F NOT PUSH1 0x1F DUP3 ADD AND DUP3 ADD DUP1 PUSH1 0x40 MSTORE POP DUP2 ADD SWAP1 PUSH2 0x1CE2 SWAP2 SWAP1 PUSH2 0x411F JUMP JUMPDEST SWAP1 POP DUP4 DUP2 LT ISZERO PUSH2 0x1D1E JUMPI PUSH1 0x40 MLOAD PUSH32 0x6998F5B00000000000000000000000000000000000000000000000000000000 DUP2 MSTORE PUSH1 0x4 ADD PUSH1 0x40 MLOAD DUP1 SWAP2 SUB SWAP1 REVERT JUMPDEST DUP3 ISZERO PUSH2 0x1D2E JUMPI POP POP POP POP POP PUSH2 0x1E03 JUMP JUMPDEST DUP4 SWAP2 POP POP PUSH2 0x1D6B JUMP JUMPDEST PUSH0 PUSH2 0x1D43 DUP6 DUP6 CALLER PUSH2 0x2A57 JUMP JUMPDEST SWAP1 POP DUP3 ISZERO PUSH2 0x1D55 JUMPI POP POP POP POP POP PUSH2 0x1E03 JUMP JUMPDEST DUP1 SWAP2 POP PUSH0 DUP3 SUB PUSH2 0x1D69 JUMPI POP POP POP POP POP PUSH2 0x1E03 JUMP JUMPDEST POP JUMPDEST PUSH0 PUSH0 PUSH2 0x1D79 DUP7 DUP5 ADDRESS DUP16 PUSH2 0x2C92 JUMP JUMPDEST SWAP2 POP SWAP2 POP DUP2 DUP11 PUSH0 ADD MLOAD DUP12 PUSH1 0x40 ADD MLOAD DUP2 MLOAD DUP2 LT PUSH2 0x1D98 JUMPI PUSH2 0x1D97 PUSH2 0x4212 JUMP JUMPDEST JUMPDEST PUSH1 0x20 ADD ADD SWAP1 PUSH31 0xFFFFFFFFFFFFFFFFFFFFFFFFFFFFFFFFFFFFFFFFFFFFFFFFFFFFFFFFFFFFFF NOT AND SWAP1 DUP2 PUSH0 BYTE SWAP1 MSTORE8 POP DUP1 DUP11 PUSH1 0x20 ADD MLOAD DUP12 PUSH1 0x40 ADD MLOAD DUP2 MLOAD DUP2 LT PUSH2 0x1DE2 JUMPI PUSH2 0x1DE1 PUSH2 0x4212 JUMP JUMPDEST JUMPDEST PUSH1 0x20 MUL PUSH1 0x20 ADD ADD DUP2 SWAP1 MSTORE POP DUP10 PUSH1 0x40 ADD DUP1 MLOAD PUSH1 0x1 ADD SWAP1 DUP2 DUP2 MSTORE POP POP POP POP POP POP POP POP JUMPDEST DUP1 PUSH1 0x1 ADD SWAP1 POP PUSH2 0x1B68 JUMP JUMPDEST POP POP POP SWAP5 SWAP4 POP POP POP POP JUMP JUMPDEST PUSH32 0x0 PUSH20 0xFFFFFFFFFFFFFFFFFFFFFFFFFFFFFFFFFFFFFFFF AND PUSH4 0x2E1A7D4D DUP4 PUSH1 0x40 MLOAD DUP3 PUSH4 0xFFFFFFFF AND PUSH1 0xE0 SHL DUP2 MSTORE PUSH1 0x4 ADD PUSH2 0x1E72 SWAP2 SWAP1 PUSH2 0x3D78 JUMP JUMPDEST PUSH0 PUSH1 0x40 MLOAD DUP1 DUP4 SUB DUP2 PUSH0 DUP8 DUP1 EXTCODESIZE ISZERO DUP1 ISZERO PUSH2 0x1E89 JUMPI PUSH0 PUSH0 REVERT JUMPDEST POP GAS CALL ISZERO DUP1 ISZERO PUSH2 0x1E9B JUMPI RETURNDATASIZE PUSH0 PUSH0 RETURNDATACOPY RETURNDATASIZE PUSH0 REVERT JUMPDEST POP POP POP POP PUSH0 DUP2 PUSH20 0xFFFFFFFFFFFFFFFFFFFFFFFFFFFFFFFFFFFFFFFF AND DUP4 PUSH1 0x40 MLOAD PUSH2 0x1EC4 SWAP1 PUSH2 0x4485 JUMP JUMPDEST PUSH0 PUSH1 0x40 MLOAD DUP1 DUP4 SUB DUP2 DUP6 DUP8 GAS CALL SWAP3 POP POP POP RETURNDATASIZE DUP1 PUSH0 DUP2 EQ PUSH2 0x1EFE JUMPI PUSH1 0x40 MLOAD SWAP2 POP PUSH1 0x1F NOT PUSH1 0x3F RETURNDATASIZE ADD AND DUP3 ADD PUSH1 0x40 MSTORE RETURNDATASIZE DUP3 MSTORE RETURNDATASIZE PUSH0 PUSH1 0x20 DUP5 ADD RETURNDATACOPY PUSH2 0x1F03 JUMP JUMPDEST PUSH1 0x60 SWAP2 POP JUMPDEST POP POP SWAP1 POP DUP1 PUSH2 0x1F3E JUMPI PUSH1 0x40 MLOAD PUSH32 0xB2F8AAAA00000000000000000000000000000000000000000000000000000000 DUP2 MSTORE PUSH1 0x4 ADD PUSH1 0x40 MLOAD DUP1 SWAP2 SUB SWAP1 REVERT JUMPDEST POP POP POP JUMP JUMPDEST PUSH0 PUSH20 0xFFFFFFFFFFFFFFFFFFFFFFFFFFFFFFFFFFFFFFFF AND DUP2 PUSH20 0xFFFFFFFFFFFFFFFFFFFFFFFFFFFFFFFFFFFFFFFF AND SUB PUSH2 0x1FB1 JUMPI PUSH1 0x40 MLOAD PUSH32 0x8C379A000000000000000000000000000000000000000000000000000000000 DUP2 MSTORE PUSH1 0x4 ADD PUSH2 0x1FA8 SWAP1 PUSH2 0x44E3 JUMP JUMPDEST PUSH1 0x40 MLOAD DUP1 SWAP2 SUB SWAP1 REVERT JUMPDEST PUSH0 DUP2 PUSH20 0xFFFFFFFFFFFFFFFFFFFFFFFFFFFFFFFFFFFFFFFF AND EXTCODESIZE GT PUSH2 0x200A JUMPI PUSH1 0x40 MLOAD PUSH32 0x8C379A000000000000000000000000000000000000000000000000000000000 DUP2 MSTORE PUSH1 0x4 ADD PUSH2 0x2001 SWAP1 PUSH2 0x454B JUMP JUMPDEST PUSH1 0x40 MLOAD DUP1 SWAP2 SUB SWAP1 REVERT JUMPDEST DUP1 PUSH20 0xFFFFFFFFFFFFFFFFFFFFFFFFFFFFFFFFFFFFFFFF AND PUSH4 0x8DA5CB5B PUSH1 0x40 MLOAD DUP2 PUSH4 0xFFFFFFFF AND PUSH1 0xE0 SHL DUP2 MSTORE PUSH1 0x4 ADD PUSH1 0x20 PUSH1 0x40 MLOAD DUP1 DUP4 SUB DUP2 DUP7 GAS STATICCALL SWAP3 POP POP POP DUP1 ISZERO PUSH2 0x2072 JUMPI POP PUSH1 0x40 MLOAD RETURNDATASIZE PUSH1 0x1F NOT PUSH1 0x1F DUP3 ADD AND DUP3 ADD DUP1 PUSH1 0x40 MSTORE POP DUP2 ADD SWAP1 PUSH2 0x206F SWAP2 SWAP1 PUSH2 0x3FF8 JUMP JUMPDEST PUSH1 0x1 JUMPDEST PUSH2 0x20B1 JUMPI PUSH1 0x40 MLOAD PUSH32 0x8C379A000000000000000000000000000000000000000000000000000000000 DUP2 MSTORE PUSH1 0x4 ADD PUSH2 0x20A8 SWAP1 PUSH2 0x45D9 JUMP JUMPDEST PUSH1 0x40 MLOAD DUP1 SWAP2 SUB SWAP1 REVERT JUMPDEST DUP2 PUSH0 PUSH0 PUSH2 0x100 EXP DUP2 SLOAD DUP2 PUSH20 0xFFFFFFFFFFFFFFFFFFFFFFFFFFFFFFFFFFFFFFFF MUL NOT AND SWAP1 DUP4 PUSH20 0xFFFFFFFFFFFFFFFFFFFFFFFFFFFFFFFFFFFFFFFF AND MUL OR SWAP1 SSTORE POP POP POP JUMP JUMPDEST PUSH2 0x20FC PUSH2 0x36E2 JUMP JUMPDEST PUSH0 PUSH20 0xFFFFFFFFFFFFFFFFFFFFFFFFFFFFFFFFFFFFFFFF AND DUP3 PUSH20 0xFFFFFFFFFFFFFFFFFFFFFFFFFFFFFFFFFFFFFFFF AND SUB PUSH2 0x2161 JUMPI PUSH1 0x40 MLOAD PUSH32 0xD92E233D00000000000000000000000000000000000000000000000000000000 DUP2 MSTORE PUSH1 0x4 ADD PUSH1 0x40 MLOAD DUP1 SWAP2 SUB SWAP1 REVERT JUMPDEST PUSH32 0x0 PUSH20 0xFFFFFFFFFFFFFFFFFFFFFFFFFFFFFFFFFFFFFFFF AND DUP3 PUSH20 0xFFFFFFFFFFFFFFFFFFFFFFFFFFFFFFFFFFFFFFFF AND SUB PUSH2 0x21E6 JUMPI PUSH1 0x40 MLOAD PUSH32 0x871C78AF00000000000000000000000000000000000000000000000000000000 DUP2 MSTORE PUSH1 0x4 ADD PUSH1 0x40 MLOAD DUP1 SWAP2 SUB SWAP1 REVERT JUMPDEST PUSH0 PUSH32 0x0 SWAP1 POP PUSH0 DUP2 SWAP1 POP PUSH0 PUSH0 PUSH32 0x0 PUSH20 0xFFFFFFFFFFFFFFFFFFFFFFFFFFFFFFFFFFFFFFFF AND PUSH4 0xE6A43905 DUP8 DUP7 PUSH1 0x40 MLOAD DUP4 PUSH4 0xFFFFFFFF AND PUSH1 0xE0 SHL DUP2 MSTORE PUSH1 0x4 ADD PUSH2 0x226B SWAP3 SWAP2 SWAP1 PUSH2 0x45F7 JUMP JUMPDEST PUSH1 0x20 PUSH1 0x40 MLOAD DUP1 DUP4 SUB DUP2 DUP7 GAS STATICCALL ISZERO DUP1 ISZERO PUSH2 0x2286 JUMPI RETURNDATASIZE PUSH0 PUSH0 RETURNDATACOPY RETURNDATASIZE PUSH0 REVERT JUMPDEST POP POP POP POP PUSH1 0x40 MLOAD RETURNDATASIZE PUSH1 0x1F NOT PUSH1 0x1F DUP3 ADD AND DUP3 ADD DUP1 PUSH1 0x40 MSTORE POP DUP2 ADD SWAP1 PUSH2 0x22AA SWAP2 SWAP1 PUSH2 0x3FF8 JUMP JUMPDEST SWAP1 POP PUSH0 PUSH20 0xFFFFFFFFFFFFFFFFFFFFFFFFFFFFFFFFFFFFFFFF AND DUP2 PUSH20 0xFFFFFFFFFFFFFFFFFFFFFFFFFFFFFFFFFFFFFFFF AND EQ PUSH2 0x2491 JUMPI PUSH0 PUSH0 DUP3 PUSH20 0xFFFFFFFFFFFFFFFFFFFFFFFFFFFFFFFFFFFFFFFF AND PUSH4 0x902F1AC PUSH1 0x40 MLOAD DUP2 PUSH4 0xFFFFFFFF AND PUSH1 0xE0 SHL DUP2 MSTORE PUSH1 0x4 ADD PUSH1 0x60 PUSH1 0x40 MLOAD DUP1 DUP4 SUB DUP2 DUP7 GAS STATICCALL ISZERO DUP1 ISZERO PUSH2 0x232A JUMPI RETURNDATASIZE PUSH0 PUSH0 RETURNDATACOPY RETURNDATASIZE PUSH0 REVERT JUMPDEST POP POP POP POP PUSH1 0x40 MLOAD RETURNDATASIZE PUSH1 0x1F NOT PUSH1 0x1F DUP3 ADD AND DUP3 ADD DUP1 PUSH1 0x40 MSTORE POP DUP2 ADD SWAP1 PUSH2 0x234E SWAP2 SWAP1 PUSH2 0x4675 JUMP JUMPDEST POP SWAP2 POP SWAP2 POP PUSH0 DUP4 PUSH20 0xFFFFFFFFFFFFFFFFFFFFFFFFFFFFFFFFFFFFFFFF AND PUSH4 0xDFE1681 PUSH1 0x40 MLOAD DUP2 PUSH4 0xFFFFFFFF AND PUSH1 0xE0 SHL DUP2 MSTORE PUSH1 0x4 ADD PUSH1 0x20 PUSH1 0x40 MLOAD DUP1 DUP4 SUB DUP2 DUP7 GAS STATICCALL ISZERO DUP1 ISZERO PUSH2 0x239D JUMPI RETURNDATASIZE PUSH0 PUSH0 RETURNDATACOPY RETURNDATASIZE PUSH0 REVERT JUMPDEST POP POP POP POP PUSH1 0x40 MLOAD RETURNDATASIZE PUSH1 0x1F NOT PUSH1 0x1F DUP3 ADD AND DUP3 ADD DUP1 PUSH1 0x40 MSTORE POP DUP2 ADD SWAP1 PUSH2 0x23C1 SWAP2 SWAP1 PUSH2 0x3FF8 JUMP JUMPDEST SWAP1 POP PUSH0 DUP8 PUSH20 0xFFFFFFFFFFFFFFFFFFFFFFFFFFFFFFFFFFFFFFFF AND DUP3 PUSH20 0xFFFFFFFFFFFFFFFFFFFFFFFFFFFFFFFFFFFFFFFF AND EQ PUSH2 0x240D JUMPI DUP3 PUSH14 0xFFFFFFFFFFFFFFFFFFFFFFFFFFFF AND PUSH2 0x241F JUMP JUMPDEST DUP4 PUSH14 0xFFFFFFFFFFFFFFFFFFFFFFFFFFFF AND JUMPDEST SWAP1 POP DUP6 DUP2 GT ISZERO PUSH2 0x248C JUMPI PUSH0 DUP10 PUSH1 0x40 ADD SWAP1 PUSH1 0xFF AND SWAP1 DUP2 PUSH1 0xFF AND DUP2 MSTORE POP POP DUP5 DUP10 PUSH0 ADD SWAP1 PUSH20 0xFFFFFFFFFFFFFFFFFFFFFFFFFFFFFFFFFFFFFFFF AND SWAP1 DUP2 PUSH20 0xFFFFFFFFFFFFFFFFFFFFFFFFFFFFFFFFFFFFFFFF AND DUP2 MSTORE POP POP PUSH0 DUP10 PUSH1 0x20 ADD SWAP1 PUSH3 0xFFFFFF AND SWAP1 DUP2 PUSH3 0xFFFFFF AND DUP2 MSTORE POP POP DUP1 SWAP6 POP JUMPDEST POP POP POP POP JUMPDEST PUSH0 JUMPDEST PUSH1 0x2 DUP2 LT ISZERO PUSH2 0x267A JUMPI PUSH0 PUSH0 DUP3 EQ PUSH2 0x24AC JUMPI PUSH2 0x2710 PUSH2 0x24B0 JUMP JUMPDEST PUSH2 0xBB8 JUMPDEST SWAP1 POP PUSH0 PUSH32 0x0 PUSH20 0xFFFFFFFFFFFFFFFFFFFFFFFFFFFFFFFFFFFFFFFF AND PUSH4 0x1698EE82 DUP11 DUP10 DUP6 PUSH1 0x40 MLOAD DUP5 PUSH4 0xFFFFFFFF AND PUSH1 0xE0 SHL DUP2 MSTORE PUSH1 0x4 ADD PUSH2 0x2510 SWAP4 SWAP3 SWAP2 SWAP1 PUSH2 0x46C5 JUMP JUMPDEST PUSH1 0x20 PUSH1 0x40 MLOAD DUP1 DUP4 SUB DUP2 DUP7 GAS STATICCALL ISZERO DUP1 ISZERO PUSH2 0x252B JUMPI RETURNDATASIZE PUSH0 PUSH0 RETURNDATACOPY RETURNDATASIZE PUSH0 REVERT JUMPDEST POP POP POP POP PUSH1 0x40 MLOAD RETURNDATASIZE PUSH1 0x1F NOT PUSH1 0x1F DUP3 ADD AND DUP3 ADD DUP1 PUSH1 0x40 MSTORE POP DUP2 ADD SWAP1 PUSH2 0x254F SWAP2 SWAP1 PUSH2 0x3FF8 JUMP JUMPDEST SWAP1 POP PUSH0 PUSH20 0xFFFFFFFFFFFFFFFFFFFFFFFFFFFFFFFFFFFFFFFF AND DUP2 PUSH20 0xFFFFFFFFFFFFFFFFFFFFFFFFFFFFFFFFFFFFFFFF AND EQ PUSH2 0x266D JUMPI PUSH0 DUP7 PUSH20 0xFFFFFFFFFFFFFFFFFFFFFFFFFFFFFFFFFFFFFFFF AND PUSH4 0x70A08231 DUP4 PUSH1 0x40 MLOAD DUP3 PUSH4 0xFFFFFFFF AND PUSH1 0xE0 SHL DUP2 MSTORE PUSH1 0x4 ADD PUSH2 0x25BE SWAP2 SWAP1 PUSH2 0x3BFE JUMP JUMPDEST PUSH1 0x20 PUSH1 0x40 MLOAD DUP1 DUP4 SUB DUP2 DUP7 GAS STATICCALL ISZERO DUP1 ISZERO PUSH2 0x25D9 JUMPI RETURNDATASIZE PUSH0 PUSH0 RETURNDATACOPY RETURNDATASIZE PUSH0 REVERT JUMPDEST POP POP POP POP PUSH1 0x40 MLOAD RETURNDATASIZE PUSH1 0x1F NOT PUSH1 0x1F DUP3 ADD AND DUP3 ADD DUP1 PUSH1 0x40 MSTORE POP DUP2 ADD SWAP1 PUSH2 0x25FD SWAP2 SWAP1 PUSH2 0x411F JUMP JUMPDEST SWAP1 POP DUP6 DUP2 GT ISZERO PUSH2 0x266B JUMPI PUSH1 0x1 DUP10 PUSH1 0x40 ADD SWAP1 PUSH1 0xFF AND SWAP1 DUP2 PUSH1 0xFF AND DUP2 MSTORE POP POP DUP2 DUP10 PUSH0 ADD SWAP1 PUSH20 0xFFFFFFFFFFFFFFFFFFFFFFFFFFFFFFFFFFFFFFFF AND SWAP1 DUP2 PUSH20 0xFFFFFFFFFFFFFFFFFFFFFFFFFFFFFFFFFFFFFFFF AND DUP2 MSTORE POP POP DUP3 DUP10 PUSH1 0x20 ADD SWAP1 PUSH3 0xFFFFFF AND SWAP1 DUP2 PUSH3 0xFFFFFF AND DUP2 MSTORE POP POP DUP1 SWAP6 POP JUMPDEST POP JUMPDEST DUP3 PUSH1 0x1 ADD SWAP3 POP POP POP PUSH2 0x2493 JUMP JUMPDEST POP TIMESTAMP DUP6 PUSH1 0x60 ADD SWAP1 PUSH8 0xFFFFFFFFFFFFFFFF AND SWAP1 DUP2 PUSH8 0xFFFFFFFFFFFFFFFF AND DUP2 MSTORE POP POP POP POP POP POP SWAP2 SWAP1 POP JUMP JUMPDEST PUSH0 PUSH20 0xFFFFFFFFFFFFFFFFFFFFFFFFFFFFFFFFFFFFFFFF AND DUP3 PUSH20 0xFFFFFFFFFFFFFFFFFFFFFFFFFFFFFFFFFFFFFFFF AND SUB PUSH2 0x26E6 JUMPI PUSH2 0x26E1 DUP2 SELFBALANCE PUSH2 0x1965 JUMP JUMPDEST PUSH2 0x2777 JUMP JUMPDEST PUSH0 DUP3 PUSH20 0xFFFFFFFFFFFFFFFFFFFFFFFFFFFFFFFFFFFFFFFF AND PUSH4 0x70A08231 ADDRESS PUSH1 0x40 MLOAD DUP3 PUSH4 0xFFFFFFFF AND PUSH1 0xE0 SHL DUP2 MSTORE PUSH1 0x4 ADD PUSH2 0x2720 SWAP2 SWAP1 PUSH2 0x3BFE JUMP JUMPDEST PUSH1 0x20 PUSH1 0x40 MLOAD DUP1 DUP4 SUB DUP2 DUP7 GAS STATICCALL ISZERO DUP1 ISZERO PUSH2 0x273B JUMPI RETURNDATASIZE PUSH0 PUSH0 RETURNDATACOPY RETURNDATASIZE PUSH0 REVERT JUMPDEST POP POP POP POP PUSH1 0x40 MLOAD RETURNDATASIZE PUSH1 0x1F NOT PUSH1 0x1F DUP3 ADD AND DUP3 ADD DUP1 PUSH1 0x40 MSTORE POP DUP2 ADD SWAP1 PUSH2 0x275F SWAP2 SWAP1 PUSH2 0x411F JUMP JUMPDEST SWAP1 POP PUSH0 DUP2 GT ISZERO PUSH2 0x2775 JUMPI PUSH2 0x2774 DUP4 DUP4 DUP4 PUSH2 0x2908 JUMP JUMPDEST JUMPDEST POP JUMPDEST POP POP JUMP JUMPDEST PUSH0 PUSH1 0x60 PUSH0 DUP6 SUB PUSH2 0x27A1 JUMPI PUSH0 PUSH1 0xF8 SHL PUSH1 0x40 MLOAD DUP1 PUSH1 0x20 ADD PUSH1 0x40 MSTORE DUP1 PUSH0 DUP2 MSTORE POP SWAP2 POP SWAP2 POP PUSH2 0x28FF JUMP JUMPDEST PUSH0 PUSH2 0x27AB DUP8 PUSH2 0xDA8 JUMP JUMPDEST SWAP1 POP PUSH0 PUSH20 0xFFFFFFFFFFFFFFFFFFFFFFFFFFFFFFFFFFFFFFFF AND DUP2 PUSH0 ADD MLOAD PUSH20 0xFFFFFFFFFFFFFFFFFFFFFFFFFFFFFFFFFFFFFFFF AND SUB PUSH2 0x2815 JUMPI PUSH1 0x40 MLOAD PUSH32 0x791C2FED00000000000000000000000000000000000000000000000000000000 DUP2 MSTORE PUSH1 0x4 ADD PUSH1 0x40 MLOAD DUP1 SWAP2 SUB SWAP1 REVERT JUMPDEST PUSH0 PUSH1 0x1 DUP3 PUSH1 0x40 ADD MLOAD PUSH1 0xFF AND SUB PUSH2 0x2897 JUMPI PUSH2 0x2856 PUSH32 0x0 DUP10 DUP5 PUSH1 0x20 ADD MLOAD DUP11 DUP10 PUSH2 0x2EDB JUMP JUMPDEST SWAP1 POP PUSH2 0x288A PUSH32 0x0 DUP10 DUP5 PUSH1 0x20 ADD MLOAD DUP11 DUP6 DUP12 PUSH2 0x2EE8 JUMP JUMPDEST SWAP3 POP PUSH0 PUSH1 0xF8 SHL SWAP4 POP PUSH2 0x28FC JUMP JUMPDEST PUSH2 0x28C3 PUSH32 0x0 DUP10 DUP10 DUP9 PUSH2 0x2FBE JUMP JUMPDEST SWAP1 POP PUSH2 0x28F2 PUSH32 0x0 DUP10 DUP10 DUP5 DUP11 PUSH2 0x2FCA JUMP JUMPDEST SWAP3 POP PUSH1 0x8 PUSH1 0xF8 SHL SWAP4 POP JUMPDEST POP POP JUMPDEST SWAP5 POP SWAP5 SWAP3 POP POP POP JUMP JUMPDEST PUSH0 PUSH0 DUP5 PUSH20 0xFFFFFFFFFFFFFFFFFFFFFFFFFFFFFFFFFFFFFFFF AND PUSH4 0xA9059CBB PUSH1 0xE0 SHL DUP6 DUP6 PUSH1 0x40 MLOAD PUSH1 0x24 ADD PUSH2 0x293C SWAP3 SWAP2 SWAP1 PUSH2 0x46FA JUMP JUMPDEST PUSH1 0x40 MLOAD PUSH1 0x20 DUP2 DUP4 SUB SUB DUP2 MSTORE SWAP1 PUSH1 0x40 MSTORE SWAP1 PUSH28 0xFFFFFFFFFFFFFFFFFFFFFFFFFFFFFFFFFFFFFFFFFFFFFFFFFFFFFFFF NOT AND PUSH1 0x20 DUP3 ADD DUP1 MLOAD PUSH28 0xFFFFFFFFFFFFFFFFFFFFFFFFFFFFFFFFFFFFFFFFFFFFFFFFFFFFFFFF DUP4 DUP2 DUP4 AND OR DUP4 MSTORE POP POP POP POP PUSH1 0x40 MLOAD PUSH2 0x29A6 SWAP2 SWAP1 PUSH2 0x4751 JUMP JUMPDEST PUSH0 PUSH1 0x40 MLOAD DUP1 DUP4 SUB DUP2 PUSH0 DUP7 GAS CALL SWAP2 POP POP RETURNDATASIZE DUP1 PUSH0 DUP2 EQ PUSH2 0x29DF JUMPI PUSH1 0x40 MLOAD SWAP2 POP PUSH1 0x1F NOT PUSH1 0x3F RETURNDATASIZE ADD AND DUP3 ADD PUSH1 0x40 MSTORE RETURNDATASIZE DUP3 MSTORE RETURNDATASIZE PUSH0 PUSH1 0x20 DUP5 ADD RETURNDATACOPY PUSH2 0x29E4 JUMP JUMPDEST PUSH1 0x60 SWAP2 POP JUMPDEST POP SWAP2 POP SWAP2 POP DUP2 DUP1 ISZERO PUSH2 0x2A11 JUMPI POP PUSH0 DUP2 MLOAD EQ DUP1 PUSH2 0x2A10 JUMPI POP DUP1 DUP1 PUSH1 0x20 ADD SWAP1 MLOAD DUP2 ADD SWAP1 PUSH2 0x2A0F SWAP2 SWAP1 PUSH2 0x477B JUMP JUMPDEST JUMPDEST JUMPDEST PUSH2 0x2A50 JUMPI PUSH1 0x40 MLOAD PUSH32 0x8C379A000000000000000000000000000000000000000000000000000000000 DUP2 MSTORE PUSH1 0x4 ADD PUSH2 0x2A47 SWAP1 PUSH2 0x47F0 JUMP JUMPDEST PUSH1 0x40 MLOAD DUP1 SWAP2 SUB SWAP1 REVERT JUMPDEST POP POP POP POP POP JUMP JUMPDEST PUSH0 PUSH0 DUP4 SUB PUSH2 0x2A91 JUMPI PUSH1 0x40 MLOAD PUSH32 0x1F2A200500000000000000000000000000000000000000000000000000000000 DUP2 MSTORE PUSH1 0x4 ADD PUSH1 0x40 MLOAD DUP1 SWAP2 SUB SWAP1 REVERT JUMPDEST PUSH0 DUP5 PUSH20 0xFFFFFFFFFFFFFFFFFFFFFFFFFFFFFFFFFFFFFFFF AND PUSH4 0xDD62ED3E DUP5 ADDRESS PUSH1 0x40 MLOAD DUP4 PUSH4 0xFFFFFFFF AND PUSH1 0xE0 SHL DUP2 MSTORE PUSH1 0x4 ADD PUSH2 0x2ACD SWAP3 SWAP2 SWAP1 PUSH2 0x45F7 JUMP JUMPDEST PUSH1 0x20 PUSH1 0x40 MLOAD DUP1 DUP4 SUB DUP2 DUP7 GAS STATICCALL ISZERO DUP1 ISZERO PUSH2 0x2AE8 JUMPI RETURNDATASIZE PUSH0 PUSH0 RETURNDATACOPY RETURNDATASIZE PUSH0 REVERT JUMPDEST POP POP POP POP PUSH1 0x40 MLOAD RETURNDATASIZE PUSH1 0x1F NOT PUSH1 0x1F DUP3 ADD AND DUP3 ADD DUP1 PUSH1 0x40 MSTORE POP DUP2 ADD SWAP1 PUSH2 0x2B0C SWAP2 SWAP1 PUSH2 0x411F JUMP JUMPDEST SWAP1 POP DUP4 DUP2 LT ISZERO PUSH2 0x2B48 JUMPI PUSH1 0x40 MLOAD PUSH32 0xBAC9B5E800000000000000000000000000000000000000000000000000000000 DUP2 MSTORE PUSH1 0x4 ADD PUSH1 0x40 MLOAD DUP1 SWAP2 SUB SWAP1 REVERT JUMPDEST PUSH0 DUP6 PUSH20 0xFFFFFFFFFFFFFFFFFFFFFFFFFFFFFFFFFFFFFFFF AND PUSH4 0x70A08231 ADDRESS PUSH1 0x40 MLOAD DUP3 PUSH4 0xFFFFFFFF AND PUSH1 0xE0 SHL DUP2 MSTORE PUSH1 0x4 ADD PUSH2 0x2B82 SWAP2 SWAP1 PUSH2 0x3BFE JUMP JUMPDEST PUSH1 0x20 PUSH1 0x40 MLOAD DUP1 DUP4 SUB DUP2 DUP7 GAS STATICCALL ISZERO DUP1 ISZERO PUSH2 0x2B9D JUMPI RETURNDATASIZE PUSH0 PUSH0 RETURNDATACOPY RETURNDATASIZE PUSH0 REVERT JUMPDEST POP POP POP POP PUSH1 0x40 MLOAD RETURNDATASIZE PUSH1 0x1F NOT PUSH1 0x1F DUP3 ADD AND DUP3 ADD DUP1 PUSH1 0x40 MSTORE POP DUP2 ADD SWAP1 PUSH2 0x2BC1 SWAP2 SWAP1 PUSH2 0x411F JUMP JUMPDEST SWAP1 POP PUSH2 0x2BCF DUP7 DUP6 ADDRESS DUP9 PUSH2 0x3162 JUMP JUMPDEST PUSH0 DUP7 PUSH20 0xFFFFFFFFFFFFFFFFFFFFFFFFFFFFFFFFFFFFFFFF AND PUSH4 0x70A08231 ADDRESS PUSH1 0x40 MLOAD DUP3 PUSH4 0xFFFFFFFF AND PUSH1 0xE0 SHL DUP2 MSTORE PUSH1 0x4 ADD PUSH2 0x2C09 SWAP2 SWAP1 PUSH2 0x3BFE JUMP JUMPDEST PUSH1 0x20 PUSH1 0x40 MLOAD DUP1 DUP4 SUB DUP2 DUP7 GAS STATICCALL ISZERO DUP1 ISZERO PUSH2 0x2C24 JUMPI RETURNDATASIZE PUSH0 PUSH0 RETURNDATACOPY RETURNDATASIZE PUSH0 REVERT JUMPDEST POP POP POP POP PUSH1 0x40 MLOAD RETURNDATASIZE PUSH1 0x1F NOT PUSH1 0x1F DUP3 ADD AND DUP3 ADD DUP1 PUSH1 0x40 MSTORE POP DUP2 ADD SWAP1 PUSH2 0x2C48 SWAP2 SWAP1 PUSH2 0x411F JUMP JUMPDEST SWAP1 POP DUP2 DUP2 SUB SWAP4 POP PUSH0 DUP5 SUB PUSH2 0x2C88 JUMPI PUSH1 0x40 MLOAD PUSH32 0xB5C74A2700000000000000000000000000000000000000000000000000000000 DUP2 MSTORE PUSH1 0x4 ADD PUSH1 0x40 MLOAD DUP1 SWAP2 SUB SWAP1 REVERT JUMPDEST POP POP POP SWAP4 SWAP3 POP POP POP JUMP JUMPDEST PUSH0 PUSH1 0x60 PUSH0 DUP6 SUB PUSH2 0x2CB8 JUMPI PUSH0 PUSH1 0xF8 SHL PUSH1 0x40 MLOAD DUP1 PUSH1 0x20 ADD PUSH1 0x40 MSTORE DUP1 PUSH0 DUP2 MSTORE POP SWAP2 POP SWAP2 POP PUSH2 0x2ED2 JUMP JUMPDEST PUSH0 PUSH20 0xFFFFFFFFFFFFFFFFFFFFFFFFFFFFFFFFFFFFFFFF AND DUP7 PUSH20 0xFFFFFFFFFFFFFFFFFFFFFFFFFFFFFFFFFFFFFFFF AND EQ DUP1 PUSH2 0x2D3D JUMPI POP PUSH32 0x0 PUSH20 0xFFFFFFFFFFFFFFFFFFFFFFFFFFFFFFFFFFFFFFFF AND DUP7 PUSH20 0xFFFFFFFFFFFFFFFFFFFFFFFFFFFFFFFFFFFFFFFF AND EQ JUMPDEST ISZERO PUSH2 0x2D74 JUMPI PUSH1 0x40 MLOAD PUSH32 0x7401D93100000000000000000000000000000000000000000000000000000000 DUP2 MSTORE PUSH1 0x4 ADD PUSH1 0x40 MLOAD DUP1 SWAP2 SUB SWAP1 REVERT JUMPDEST PUSH0 PUSH2 0x2D7E DUP8 PUSH2 0xDA8 JUMP JUMPDEST SWAP1 POP PUSH0 PUSH20 0xFFFFFFFFFFFFFFFFFFFFFFFFFFFFFFFFFFFFFFFF AND DUP2 PUSH0 ADD MLOAD PUSH20 0xFFFFFFFFFFFFFFFFFFFFFFFFFFFFFFFFFFFFFFFF AND SUB PUSH2 0x2DE8 JUMPI PUSH1 0x40 MLOAD PUSH32 0x791C2FED00000000000000000000000000000000000000000000000000000000 DUP2 MSTORE PUSH1 0x4 ADD PUSH1 0x40 MLOAD DUP1 SWAP2 SUB SWAP1 REVERT JUMPDEST PUSH0 PUSH1 0x1 DUP3 PUSH1 0x40 ADD MLOAD PUSH1 0xFF AND SUB PUSH2 0x2E6A JUMPI PUSH2 0x2E29 DUP9 PUSH32 0x0 DUP5 PUSH1 0x20 ADD MLOAD DUP11 DUP10 PUSH2 0x2EDB JUMP JUMPDEST SWAP1 POP PUSH2 0x2E5D DUP9 PUSH32 0x0 DUP5 PUSH1 0x20 ADD MLOAD DUP11 DUP6 DUP12 PUSH2 0x2EE8 JUMP JUMPDEST SWAP3 POP PUSH0 PUSH1 0xF8 SHL SWAP4 POP PUSH2 0x2ECF JUMP JUMPDEST PUSH2 0x2E96 DUP9 PUSH32 0x0 DUP10 DUP9 PUSH2 0x2FBE JUMP JUMPDEST SWAP1 POP PUSH2 0x2EC5 DUP9 PUSH32 0x0 DUP10 DUP5 DUP11 PUSH2 0x2FCA JUMP JUMPDEST SWAP3 POP PUSH1 0x8 PUSH1 0xF8 SHL SWAP4 POP JUMPDEST POP POP JUMPDEST SWAP5 POP SWAP5 SWAP3 POP POP POP JUMP JUMPDEST PUSH0 PUSH0 SWAP1 POP SWAP6 SWAP5 POP POP POP POP POP JUMP JUMPDEST PUSH1 0x60 PUSH2 0x2F15 DUP8 PUSH32 0x0 DUP7 PUSH2 0x32B4 JUMP JUMPDEST PUSH2 0x2F61 PUSH32 0x0 DUP9 PUSH32 0x0 DUP8 PUSH2 0x337E JUMP JUMPDEST PUSH0 DUP8 DUP7 DUP9 PUSH1 0x40 MLOAD PUSH1 0x20 ADD PUSH2 0x2F77 SWAP4 SWAP3 SWAP2 SWAP1 PUSH2 0x4887 JUMP JUMPDEST PUSH1 0x40 MLOAD PUSH1 0x20 DUP2 DUP4 SUB SUB DUP2 MSTORE SWAP1 PUSH1 0x40 MSTORE SWAP1 POP DUP3 DUP6 DUP6 DUP4 PUSH1 0x1 PUSH1 0x40 MLOAD PUSH1 0x20 ADD PUSH2 0x2FA2 SWAP6 SWAP5 SWAP4 SWAP3 SWAP2 SWAP1 PUSH2 0x48D2 JUMP JUMPDEST PUSH1 0x40 MLOAD PUSH1 0x20 DUP2 DUP4 SUB SUB DUP2 MSTORE SWAP1 PUSH1 0x40 MSTORE SWAP2 POP POP SWAP7 SWAP6 POP POP POP POP POP POP JUMP JUMPDEST PUSH0 PUSH0 SWAP1 POP SWAP5 SWAP4 POP POP POP POP JUMP JUMPDEST PUSH1 0x60 PUSH2 0x2FF7 DUP7 PUSH32 0x0 DUP7 PUSH2 0x32B4 JUMP JUMPDEST PUSH2 0x3043 PUSH32 0x0 DUP8 PUSH32 0x0 DUP8 PUSH2 0x337E JUMP JUMPDEST PUSH0 PUSH1 0x2 PUSH8 0xFFFFFFFFFFFFFFFF DUP2 GT ISZERO PUSH2 0x305F JUMPI PUSH2 0x305E PUSH2 0x3A93 JUMP JUMPDEST JUMPDEST PUSH1 0x40 MLOAD SWAP1 DUP1 DUP3 MSTORE DUP1 PUSH1 0x20 MUL PUSH1 0x20 ADD DUP3 ADD PUSH1 0x40 MSTORE DUP1 ISZERO PUSH2 0x308D JUMPI DUP2 PUSH1 0x20 ADD PUSH1 0x20 DUP3 MUL DUP1 CALLDATASIZE DUP4 CALLDATACOPY DUP1 DUP3 ADD SWAP2 POP POP SWAP1 POP JUMPDEST POP SWAP1 POP DUP7 DUP2 PUSH0 DUP2 MLOAD DUP2 LT PUSH2 0x30A4 JUMPI PUSH2 0x30A3 PUSH2 0x4212 JUMP JUMPDEST JUMPDEST PUSH1 0x20 MUL PUSH1 0x20 ADD ADD SWAP1 PUSH20 0xFFFFFFFFFFFFFFFFFFFFFFFFFFFFFFFFFFFFFFFF AND SWAP1 DUP2 PUSH20 0xFFFFFFFFFFFFFFFFFFFFFFFFFFFFFFFFFFFFFFFF AND DUP2 MSTORE POP POP DUP6 DUP2 PUSH1 0x1 DUP2 MLOAD DUP2 LT PUSH2 0x30F3 JUMPI PUSH2 0x30F2 PUSH2 0x4212 JUMP JUMPDEST JUMPDEST PUSH1 0x20 MUL PUSH1 0x20 ADD ADD SWAP1 PUSH20 0xFFFFFFFFFFFFFFFFFFFFFFFFFFFFFFFFFFFFFFFF AND SWAP1 DUP2 PUSH20 0xFFFFFFFFFFFFFFFFFFFFFFFFFFFFFFFFFFFFFFFF AND DUP2 MSTORE POP POP DUP3 DUP6 DUP6 DUP4 PUSH1 0x1 PUSH1 0x40 MLOAD PUSH1 0x20 ADD PUSH2 0x3147 SWAP6 SWAP5 SWAP4 SWAP3 SWAP2 SWAP1 PUSH2 0x49D2 JUMP JUMPDEST PUSH1 0x40 MLOAD PUSH1 0x20 DUP2 DUP4 SUB SUB DUP2 MSTORE SWAP1 PUSH1 0x40 MSTORE SWAP2 POP POP SWAP6 SWAP5 POP POP POP POP POP JUMP JUMPDEST PUSH0 PUSH0 DUP6 PUSH20 0xFFFFFFFFFFFFFFFFFFFFFFFFFFFFFFFFFFFFFFFF AND PUSH4 0x23B872DD PUSH1 0xE0 SHL DUP7 DUP7 DUP7 PUSH1 0x40 MLOAD PUSH1 0x24 ADD PUSH2 0x3198 SWAP4 SWAP3 SWAP2 SWAP1 PUSH2 0x4A2A JUMP JUMPDEST PUSH1 0x40 MLOAD PUSH1 0x20 DUP2 DUP4 SUB SUB DUP2 MSTORE SWAP1 PUSH1 0x40 MSTORE SWAP1 PUSH28 0xFFFFFFFFFFFFFFFFFFFFFFFFFFFFFFFFFFFFFFFFFFFFFFFFFFFFFFFF NOT AND PUSH1 0x20 DUP3 ADD DUP1 MLOAD PUSH28 0xFFFFFFFFFFFFFFFFFFFFFFFFFFFFFFFFFFFFFFFFFFFFFFFFFFFFFFFF DUP4 DUP2 DUP4 AND OR DUP4 MSTORE POP POP POP POP PUSH1 0x40 MLOAD PUSH2 0x3202 SWAP2 SWAP1 PUSH2 0x4751 JUMP JUMPDEST PUSH0 PUSH1 0x40 MLOAD DUP1 DUP4 SUB DUP2 PUSH0 DUP7 GAS CALL SWAP2 POP POP RETURNDATASIZE DUP1 PUSH0 DUP2 EQ PUSH2 0x323B JUMPI PUSH1 0x40 MLOAD SWAP2 POP PUSH1 0x1F NOT PUSH1 0x3F RETURNDATASIZE ADD AND DUP3 ADD PUSH1 0x40 MSTORE RETURNDATASIZE DUP3 MSTORE RETURNDATASIZE PUSH0 PUSH1 0x20 DUP5 ADD RETURNDATACOPY PUSH2 0x3240 JUMP JUMPDEST PUSH1 0x60 SWAP2 POP JUMPDEST POP SWAP2 POP SWAP2 POP DUP2 DUP1 ISZERO PUSH2 0x326D JUMPI POP PUSH0 DUP2 MLOAD EQ DUP1 PUSH2 0x326C JUMPI POP DUP1 DUP1 PUSH1 0x20 ADD SWAP1 MLOAD DUP2 ADD SWAP1 PUSH2 0x326B SWAP2 SWAP1 PUSH2 0x477B JUMP JUMPDEST JUMPDEST JUMPDEST PUSH2 0x32AC JUMPI PUSH1 0x40 MLOAD PUSH32 0x8C379A000000000000000000000000000000000000000000000000000000000 DUP2 MSTORE PUSH1 0x4 ADD PUSH2 0x32A3 SWAP1 PUSH2 0x4AA9 JUMP JUMPDEST PUSH1 0x40 MLOAD DUP1 SWAP2 SUB SWAP1 REVERT JUMPDEST POP POP POP POP POP POP JUMP JUMPDEST PUSH0 DUP4 PUSH20 0xFFFFFFFFFFFFFFFFFFFFFFFFFFFFFFFFFFFFFFFF AND PUSH4 0xDD62ED3E ADDRESS DUP6 PUSH1 0x40 MLOAD DUP4 PUSH4 0xFFFFFFFF AND PUSH1 0xE0 SHL DUP2 MSTORE PUSH1 0x4 ADD PUSH2 0x32F0 SWAP3 SWAP2 SWAP1 PUSH2 0x45F7 JUMP JUMPDEST PUSH1 0x20 PUSH1 0x40 MLOAD DUP1 DUP4 SUB DUP2 DUP7 GAS STATICCALL ISZERO DUP1 ISZERO PUSH2 0x330B JUMPI RETURNDATASIZE PUSH0 PUSH0 RETURNDATACOPY RETURNDATASIZE PUSH0 REVERT JUMPDEST POP POP POP POP PUSH1 0x40 MLOAD RETURNDATASIZE PUSH1 0x1F NOT PUSH1 0x1F DUP3 ADD AND DUP3 ADD DUP1 PUSH1 0x40 MSTORE POP DUP2 ADD SWAP1 PUSH2 0x332F SWAP2 SWAP1 PUSH2 0x411F JUMP JUMPDEST SWAP1 POP DUP2 DUP2 LT ISZERO PUSH2 0x3378 JUMPI PUSH0 DUP2 EQ PUSH2 0x334C JUMPI PUSH2 0x334B DUP5 DUP5 PUSH0 PUSH2 0x3593 JUMP JUMPDEST JUMPDEST PUSH2 0x3377 DUP5 DUP5 PUSH32 0xFFFFFFFFFFFFFFFFFFFFFFFFFFFFFFFFFFFFFFFFFFFFFFFFFFFFFFFFFFFFFFFF PUSH2 0x3593 JUMP JUMPDEST JUMPDEST POP POP POP POP JUMP JUMPDEST PUSH0 PUSH20 0xFFFFFFFFFFFFFFFFFFFFFFFFFFFFFFFFFFFFFFFF AND DUP4 PUSH20 0xFFFFFFFFFFFFFFFFFFFFFFFFFFFFFFFFFFFFFFFF AND EQ DUP1 PUSH2 0x33E3 JUMPI POP PUSH0 PUSH20 0xFFFFFFFFFFFFFFFFFFFFFFFFFFFFFFFFFFFFFFFF AND DUP3 PUSH20 0xFFFFFFFFFFFFFFFFFFFFFFFFFFFFFFFFFFFFFFFF AND EQ JUMPDEST ISZERO PUSH2 0x341A JUMPI PUSH1 0x40 MLOAD PUSH32 0x7401D93100000000000000000000000000000000000000000000000000000000 DUP2 MSTORE PUSH1 0x4 ADD PUSH1 0x40 MLOAD DUP1 SWAP2 SUB SWAP1 REVERT JUMPDEST PUSH0 PUSH0 DUP6 PUSH20 0xFFFFFFFFFFFFFFFFFFFFFFFFFFFFFFFFFFFFFFFF AND PUSH4 0x927DA105 ADDRESS DUP8 DUP8 PUSH1 0x40 MLOAD DUP5 PUSH4 0xFFFFFFFF AND PUSH1 0xE0 SHL DUP2 MSTORE PUSH1 0x4 ADD PUSH2 0x3459 SWAP4 SWAP3 SWAP2 SWAP1 PUSH2 0x4AC7 JUMP JUMPDEST PUSH1 0x60 PUSH1 0x40 MLOAD DUP1 DUP4 SUB DUP2 DUP7 GAS STATICCALL ISZERO DUP1 ISZERO PUSH2 0x3474 JUMPI RETURNDATASIZE PUSH0 PUSH0 RETURNDATACOPY RETURNDATASIZE PUSH0 REVERT JUMPDEST POP POP POP POP PUSH1 0x40 MLOAD RETURNDATASIZE PUSH1 0x1F NOT PUSH1 0x1F DUP3 ADD AND DUP3 ADD DUP1 PUSH1 0x40 MSTORE POP DUP2 ADD SWAP1 PUSH2 0x3498 SWAP2 SWAP1 PUSH2 0x4B61 JUMP JUMPDEST POP SWAP2 POP SWAP2 POP PUSH0 DUP4 PUSH20 0xFFFFFFFFFFFFFFFFFFFFFFFFFFFFFFFFFFFFFFFF AND DUP4 PUSH20 0xFFFFFFFFFFFFFFFFFFFFFFFFFFFFFFFFFFFFFFFF AND LT ISZERO SWAP1 POP PUSH0 PUSH0 DUP4 PUSH6 0xFFFFFFFFFFFF AND EQ ISZERO DUP1 ISZERO PUSH2 0x34F1 JUMPI POP TIMESTAMP DUP4 PUSH6 0xFFFFFFFFFFFF AND GT ISZERO JUMPDEST SWAP1 POP DUP2 ISZERO DUP1 PUSH2 0x34FD JUMPI POP DUP1 JUMPDEST ISZERO PUSH2 0x3589 JUMPI DUP8 PUSH20 0xFFFFFFFFFFFFFFFFFFFFFFFFFFFFFFFFFFFFFFFF AND PUSH4 0x87517C45 DUP9 DUP9 PUSH20 0xFFFFFFFFFFFFFFFFFFFFFFFFFFFFFFFFFFFFFFFF PUSH6 0xFFFFFFFFFFFF PUSH1 0x40 MLOAD DUP6 PUSH4 0xFFFFFFFF AND PUSH1 0xE0 SHL DUP2 MSTORE PUSH1 0x4 ADD PUSH2 0x355B SWAP5 SWAP4 SWAP3 SWAP2 SWAP1 PUSH2 0x4BCF JUMP JUMPDEST PUSH0 PUSH1 0x40 MLOAD DUP1 DUP4 SUB DUP2 PUSH0 DUP8 DUP1 EXTCODESIZE ISZERO DUP1 ISZERO PUSH2 0x3572 JUMPI PUSH0 PUSH0 REVERT JUMPDEST POP GAS CALL ISZERO DUP1 ISZERO PUSH2 0x3584 JUMPI RETURNDATASIZE PUSH0 PUSH0 RETURNDATACOPY RETURNDATASIZE PUSH0 REVERT JUMPDEST POP POP POP POP JUMPDEST POP POP POP POP POP POP POP POP JUMP JUMPDEST PUSH0 PUSH0 DUP5 PUSH20 0xFFFFFFFFFFFFFFFFFFFFFFFFFFFFFFFFFFFFFFFF AND PUSH4 0x95EA7B3 PUSH1 0xE0 SHL DUP6 DUP6 PUSH1 0x40 MLOAD PUSH1 0x24 ADD PUSH2 0x35C7 SWAP3 SWAP2 SWAP1 PUSH2 0x46FA JUMP JUMPDEST PUSH1 0x40 MLOAD PUSH1 0x20 DUP2 DUP4 SUB SUB DUP2 MSTORE SWAP1 PUSH1 0x40 MSTORE SWAP1 PUSH28 0xFFFFFFFFFFFFFFFFFFFFFFFFFFFFFFFFFFFFFFFFFFFFFFFFFFFFFFFF NOT AND PUSH1 0x20 DUP3 ADD DUP1 MLOAD PUSH28 0xFFFFFFFFFFFFFFFFFFFFFFFFFFFFFFFFFFFFFFFFFFFFFFFFFFFFFFFF DUP4 DUP2 DUP4 AND OR DUP4 MSTORE POP POP POP POP PUSH1 0x40 MLOAD PUSH2 0x3631 SWAP2 SWAP1 PUSH2 0x4751 JUMP JUMPDEST PUSH0 PUSH1 0x40 MLOAD DUP1 DUP4 SUB DUP2 PUSH0 DUP7 GAS CALL SWAP2 POP POP RETURNDATASIZE DUP1 PUSH0 DUP2 EQ PUSH2 0x366A JUMPI PUSH1 0x40 MLOAD SWAP2 POP PUSH1 0x1F NOT PUSH1 0x3F RETURNDATASIZE ADD AND DUP3 ADD PUSH1 0x40 MSTORE RETURNDATASIZE DUP3 MSTORE RETURNDATASIZE PUSH0 PUSH1 0x20 DUP5 ADD RETURNDATACOPY PUSH2 0x366F JUMP JUMPDEST PUSH1 0x60 SWAP2 POP JUMPDEST POP SWAP2 POP SWAP2 POP DUP2 DUP1 ISZERO PUSH2 0x369C JUMPI POP PUSH0 DUP2 MLOAD EQ DUP1 PUSH2 0x369B JUMPI POP DUP1 DUP1 PUSH1 0x20 ADD SWAP1 MLOAD DUP2 ADD SWAP1 PUSH2 0x369A SWAP2 SWAP1 PUSH2 0x477B JUMP JUMPDEST JUMPDEST JUMPDEST PUSH2 0x36DB JUMPI PUSH1 0x40 MLOAD PUSH32 0x8C379A000000000000000000000000000000000000000000000000000000000 DUP2 MSTORE PUSH1 0x4 ADD PUSH2 0x36D2 SWAP1 PUSH2 0x4C5C JUMP JUMPDEST PUSH1 0x40 MLOAD DUP1 SWAP2 SUB SWAP1 REVERT JUMPDEST POP POP POP POP POP JUMP JUMPDEST PUSH1 0x40 MLOAD DUP1 PUSH1 0x80 ADD PUSH1 0x40 MSTORE DUP1 PUSH0 PUSH20 0xFFFFFFFFFFFFFFFFFFFFFFFFFFFFFFFFFFFFFFFF AND DUP2 MSTORE PUSH1 0x20 ADD PUSH0 PUSH3 0xFFFFFF AND DUP2 MSTORE PUSH1 0x20 ADD PUSH0 PUSH1 0xFF AND DUP2 MSTORE PUSH1 0x20 ADD PUSH0 PUSH8 0xFFFFFFFFFFFFFFFF AND DUP2 MSTORE POP SWAP1 JUMP JUMPDEST PUSH1 0x40 MLOAD DUP1 PUSH1 0xC0 ADD PUSH1 0x40 MSTORE DUP1 PUSH1 0x60 DUP2 MSTORE PUSH1 0x20 ADD PUSH1 0x60 DUP2 MSTORE PUSH1 0x20 ADD PUSH0 DUP2 MSTORE PUSH1 0x20 ADD PUSH0 DUP2 MSTORE PUSH1 0x20 ADD PUSH0 DUP2 MSTORE PUSH1 0x20 ADD PUSH0 DUP2 MSTORE POP SWAP1 JUMP JUMPDEST PUSH1 0x40 MLOAD DUP1 PUSH1 0x60 ADD PUSH1 0x40 MSTORE DUP1 PUSH1 0x60 DUP2 MSTORE PUSH1 0x20 ADD PUSH1 0x60 DUP2 MSTORE PUSH1 0x20 ADD PUSH0 DUP2 MSTORE POP SWAP1 JUMP JUMPDEST PUSH0 PUSH1 0x40 MLOAD SWAP1 POP SWAP1 JUMP JUMPDEST PUSH0 PUSH0 REVERT JUMPDEST PUSH0 PUSH0 REVERT JUMPDEST PUSH0 PUSH20 0xFFFFFFFFFFFFFFFFFFFFFFFFFFFFFFFFFFFFFFFF DUP3 AND SWAP1 POP SWAP2 SWAP1 POP JUMP JUMPDEST PUSH0 PUSH2 0x37BA DUP3 PUSH2 0x3791 JUMP JUMPDEST SWAP1 POP SWAP2 SWAP1 POP JUMP JUMPDEST PUSH2 0x37CA DUP2 PUSH2 0x37B0 JUMP JUMPDEST DUP2 EQ PUSH2 0x37D4 JUMPI PUSH0 PUSH0 REVERT JUMPDEST POP JUMP JUMPDEST PUSH0 DUP2 CALLDATALOAD SWAP1 POP PUSH2 0x37E5 DUP2 PUSH2 0x37C1 JUMP JUMPDEST SWAP3 SWAP2 POP POP JUMP JUMPDEST PUSH0 PUSH0 PUSH1 0x40 DUP4 DUP6 SUB SLT ISZERO PUSH2 0x3801 JUMPI PUSH2 0x3800 PUSH2 0x3789 JUMP JUMPDEST JUMPDEST PUSH0 PUSH2 0x380E DUP6 DUP3 DUP7 ADD PUSH2 0x37D7 JUMP JUMPDEST SWAP3 POP POP PUSH1 0x20 PUSH2 0x381F DUP6 DUP3 DUP7 ADD PUSH2 0x37D7 JUMP JUMPDEST SWAP2 POP POP SWAP3 POP SWAP3 SWAP1 POP JUMP JUMPDEST PUSH0 DUP2 SWAP1 POP SWAP2 SWAP1 POP JUMP JUMPDEST PUSH0 PUSH2 0x384C PUSH2 0x3847 PUSH2 0x3842 DUP5 PUSH2 0x3791 JUMP JUMPDEST PUSH2 0x3829 JUMP JUMPDEST PUSH2 0x3791 JUMP JUMPDEST SWAP1 POP SWAP2 SWAP1 POP JUMP JUMPDEST PUSH0 PUSH2 0x385D DUP3 PUSH2 0x3832 JUMP JUMPDEST SWAP1 POP SWAP2 SWAP1 POP JUMP JUMPDEST PUSH0 PUSH2 0x386E DUP3 PUSH2 0x3853 JUMP JUMPDEST SWAP1 POP SWAP2 SWAP1 POP JUMP JUMPDEST PUSH2 0x387E DUP2 PUSH2 0x3864 JUMP JUMPDEST DUP3 MSTORE POP POP JUMP JUMPDEST PUSH0 PUSH1 0x20 DUP3 ADD SWAP1 POP PUSH2 0x3897 PUSH0 DUP4 ADD DUP5 PUSH2 0x3875 JUMP JUMPDEST SWAP3 SWAP2 POP POP JUMP JUMPDEST PUSH0 PUSH0 REVERT JUMPDEST PUSH0 PUSH0 REVERT JUMPDEST PUSH0 PUSH0 REVERT JUMPDEST PUSH0 PUSH0 DUP4 PUSH1 0x1F DUP5 ADD SLT PUSH2 0x38BE JUMPI PUSH2 0x38BD PUSH2 0x389D JUMP JUMPDEST JUMPDEST DUP3 CALLDATALOAD SWAP1 POP PUSH8 0xFFFFFFFFFFFFFFFF DUP2 GT ISZERO PUSH2 0x38DB JUMPI PUSH2 0x38DA PUSH2 0x38A1 JUMP JUMPDEST JUMPDEST PUSH1 0x20 DUP4 ADD SWAP2 POP DUP4 PUSH1 0x40 DUP3 MUL DUP4 ADD GT ISZERO PUSH2 0x38F7 JUMPI PUSH2 0x38F6 PUSH2 0x38A5 JUMP JUMPDEST JUMPDEST SWAP3 POP SWAP3 SWAP1 POP JUMP JUMPDEST PUSH0 PUSH4 0xFFFFFFFF DUP3 AND SWAP1 POP SWAP2 SWAP1 POP JUMP JUMPDEST PUSH2 0x3916 DUP2 PUSH2 0x38FE JUMP JUMPDEST DUP2 EQ PUSH2 0x3920 JUMPI PUSH0 PUSH0 REVERT JUMPDEST POP JUMP JUMPDEST PUSH0 DUP2 CALLDATALOAD SWAP1 POP PUSH2 0x3931 DUP2 PUSH2 0x390D JUMP JUMPDEST SWAP3 SWAP2 POP POP JUMP JUMPDEST PUSH0 PUSH0 PUSH0 PUSH0 PUSH1 0x60 DUP6 DUP8 SUB SLT ISZERO PUSH2 0x394F JUMPI PUSH2 0x394E PUSH2 0x3789 JUMP JUMPDEST JUMPDEST PUSH0 DUP6 ADD CALLDATALOAD PUSH8 0xFFFFFFFFFFFFFFFF DUP2 GT ISZERO PUSH2 0x396C JUMPI PUSH2 0x396B PUSH2 0x378D JUMP JUMPDEST JUMPDEST PUSH2 0x3978 DUP8 DUP3 DUP9 ADD PUSH2 0x38A9 JUMP JUMPDEST SWAP5 POP SWAP5 POP POP PUSH1 0x20 PUSH2 0x398B DUP8 DUP3 DUP9 ADD PUSH2 0x37D7 JUMP JUMPDEST SWAP3 POP POP PUSH1 0x40 PUSH2 0x399C DUP8 DUP3 DUP9 ADD PUSH2 0x3923 JUMP JUMPDEST SWAP2 POP POP SWAP3 SWAP6 SWAP2 SWAP5 POP SWAP3 POP JUMP JUMPDEST PUSH0 PUSH1 0x20 DUP3 DUP5 SUB SLT ISZERO PUSH2 0x39BD JUMPI PUSH2 0x39BC PUSH2 0x3789 JUMP JUMPDEST JUMPDEST PUSH0 PUSH2 0x39CA DUP5 DUP3 DUP6 ADD PUSH2 0x37D7 JUMP JUMPDEST SWAP2 POP POP SWAP3 SWAP2 POP POP JUMP JUMPDEST PUSH2 0x39DC DUP2 PUSH2 0x37B0 JUMP JUMPDEST DUP3 MSTORE POP POP JUMP JUMPDEST PUSH0 PUSH3 0xFFFFFF DUP3 AND SWAP1 POP SWAP2 SWAP1 POP JUMP JUMPDEST PUSH2 0x39F9 DUP2 PUSH2 0x39E2 JUMP JUMPDEST DUP3 MSTORE POP POP JUMP JUMPDEST PUSH0 PUSH1 0xFF DUP3 AND SWAP1 POP SWAP2 SWAP1 POP JUMP JUMPDEST PUSH2 0x3A14 DUP2 PUSH2 0x39FF JUMP JUMPDEST DUP3 MSTORE POP POP JUMP JUMPDEST PUSH0 PUSH8 0xFFFFFFFFFFFFFFFF DUP3 AND SWAP1 POP SWAP2 SWAP1 POP JUMP JUMPDEST PUSH2 0x3A36 DUP2 PUSH2 0x3A1A JUMP JUMPDEST DUP3 MSTORE POP POP JUMP JUMPDEST PUSH0 PUSH1 0x80 DUP3 ADD SWAP1 POP PUSH2 0x3A4F PUSH0 DUP4 ADD DUP8 PUSH2 0x39D3 JUMP JUMPDEST PUSH2 0x3A5C PUSH1 0x20 DUP4 ADD DUP7 PUSH2 0x39F0 JUMP JUMPDEST PUSH2 0x3A69 PUSH1 0x40 DUP4 ADD DUP6 PUSH2 0x3A0B JUMP JUMPDEST PUSH2 0x3A76 PUSH1 0x60 DUP4 ADD DUP5 PUSH2 0x3A2D JUMP JUMPDEST SWAP6 SWAP5 POP POP POP POP POP JUMP JUMPDEST PUSH0 PUSH0 REVERT JUMPDEST PUSH0 PUSH1 0x1F NOT PUSH1 0x1F DUP4 ADD AND SWAP1 POP SWAP2 SWAP1 POP JUMP JUMPDEST PUSH32 0x4E487B7100000000000000000000000000000000000000000000000000000000 PUSH0 MSTORE PUSH1 0x41 PUSH1 0x4 MSTORE PUSH1 0x24 PUSH0 REVERT JUMPDEST PUSH2 0x3AC9 DUP3 PUSH2 0x3A83 JUMP JUMPDEST DUP2 ADD DUP2 DUP2 LT PUSH8 0xFFFFFFFFFFFFFFFF DUP3 GT OR ISZERO PUSH2 0x3AE8 JUMPI PUSH2 0x3AE7 PUSH2 0x3A93 JUMP JUMPDEST JUMPDEST DUP1 PUSH1 0x40 MSTORE POP POP POP JUMP JUMPDEST PUSH0 PUSH2 0x3AFA PUSH2 0x3780 JUMP JUMPDEST SWAP1 POP PUSH2 0x3B06 DUP3 DUP3 PUSH2 0x3AC0 JUMP JUMPDEST SWAP2 SWAP1 POP JUMP JUMPDEST PUSH0 PUSH8 0xFFFFFFFFFFFFFFFF DUP3 GT ISZERO PUSH2 0x3B25 JUMPI PUSH2 0x3B24 PUSH2 0x3A93 JUMP JUMPDEST JUMPDEST PUSH2 0x3B2E DUP3 PUSH2 0x3A83 JUMP JUMPDEST SWAP1 POP PUSH1 0x20 DUP2 ADD SWAP1 POP SWAP2 SWAP1 POP JUMP JUMPDEST DUP3 DUP2 DUP4 CALLDATACOPY PUSH0 DUP4 DUP4 ADD MSTORE POP POP POP JUMP JUMPDEST PUSH0 PUSH2 0x3B5B PUSH2 0x3B56 DUP5 PUSH2 0x3B0B JUMP JUMPDEST PUSH2 0x3AF1 JUMP JUMPDEST SWAP1 POP DUP3 DUP2 MSTORE PUSH1 0x20 DUP2 ADD DUP5 DUP5 DUP5 ADD GT ISZERO PUSH2 0x3B77 JUMPI PUSH2 0x3B76 PUSH2 0x3A7F JUMP JUMPDEST JUMPDEST PUSH2 0x3B82 DUP5 DUP3 DUP6 PUSH2 0x3B3B JUMP JUMPDEST POP SWAP4 SWAP3 POP POP POP JUMP JUMPDEST PUSH0 DUP3 PUSH1 0x1F DUP4 ADD SLT PUSH2 0x3B9E JUMPI PUSH2 0x3B9D PUSH2 0x389D JUMP JUMPDEST JUMPDEST DUP2 CALLDATALOAD PUSH2 0x3BAE DUP5 DUP3 PUSH1 0x20 DUP7 ADD PUSH2 0x3B49 JUMP JUMPDEST SWAP2 POP POP SWAP3 SWAP2 POP POP JUMP JUMPDEST PUSH0 PUSH1 0x20 DUP3 DUP5 SUB SLT ISZERO PUSH2 0x3BCC JUMPI PUSH2 0x3BCB PUSH2 0x3789 JUMP JUMPDEST JUMPDEST PUSH0 DUP3 ADD CALLDATALOAD PUSH8 0xFFFFFFFFFFFFFFFF DUP2 GT ISZERO PUSH2 0x3BE9 JUMPI PUSH2 0x3BE8 PUSH2 0x378D JUMP JUMPDEST JUMPDEST PUSH2 0x3BF5 DUP5 DUP3 DUP6 ADD PUSH2 0x3B8A JUMP JUMPDEST SWAP2 POP POP SWAP3 SWAP2 POP POP JUMP JUMPDEST PUSH0 PUSH1 0x20 DUP3 ADD SWAP1 POP PUSH2 0x3C11 PUSH0 DUP4 ADD DUP5 PUSH2 0x39D3 JUMP JUMPDEST SWAP3 SWAP2 POP POP JUMP JUMPDEST PUSH0 PUSH0 DUP4 PUSH1 0x1F DUP5 ADD SLT PUSH2 0x3C2C JUMPI PUSH2 0x3C2B PUSH2 0x389D JUMP JUMPDEST JUMPDEST DUP3 CALLDATALOAD SWAP1 POP PUSH8 0xFFFFFFFFFFFFFFFF DUP2 GT ISZERO PUSH2 0x3C49 JUMPI PUSH2 0x3C48 PUSH2 0x38A1 JUMP JUMPDEST JUMPDEST PUSH1 0x20 DUP4 ADD SWAP2 POP DUP4 PUSH1 0x40 DUP3 MUL DUP4 ADD GT ISZERO PUSH2 0x3C65 JUMPI PUSH2 0x3C64 PUSH2 0x38A5 JUMP JUMPDEST JUMPDEST SWAP3 POP SWAP3 SWAP1 POP JUMP JUMPDEST PUSH0 PUSH2 0x3C76 DUP3 PUSH2 0x3791 JUMP JUMPDEST SWAP1 POP SWAP2 SWAP1 POP JUMP JUMPDEST PUSH2 0x3C86 DUP2 PUSH2 0x3C6C JUMP JUMPDEST DUP2 EQ PUSH2 0x3C90 JUMPI PUSH0 PUSH0 REVERT JUMPDEST POP JUMP JUMPDEST PUSH0 DUP2 CALLDATALOAD SWAP1 POP PUSH2 0x3CA1 DUP2 PUSH2 0x3C7D JUMP JUMPDEST SWAP3 SWAP2 POP POP JUMP JUMPDEST PUSH0 DUP2 ISZERO ISZERO SWAP1 POP SWAP2 SWAP1 POP JUMP JUMPDEST PUSH2 0x3CBB DUP2 PUSH2 0x3CA7 JUMP JUMPDEST DUP2 EQ PUSH2 0x3CC5 JUMPI PUSH0 PUSH0 REVERT JUMPDEST POP JUMP JUMPDEST PUSH0 DUP2 CALLDATALOAD SWAP1 POP PUSH2 0x3CD6 DUP2 PUSH2 0x3CB2 JUMP JUMPDEST SWAP3 SWAP2 POP POP JUMP JUMPDEST PUSH0 PUSH0 PUSH0 PUSH0 PUSH0 PUSH1 0x80 DUP7 DUP9 SUB SLT ISZERO PUSH2 0x3CF5 JUMPI PUSH2 0x3CF4 PUSH2 0x3789 JUMP JUMPDEST JUMPDEST PUSH0 DUP7 ADD CALLDATALOAD PUSH8 0xFFFFFFFFFFFFFFFF DUP2 GT ISZERO PUSH2 0x3D12 JUMPI PUSH2 0x3D11 PUSH2 0x378D JUMP JUMPDEST JUMPDEST PUSH2 0x3D1E DUP9 DUP3 DUP10 ADD PUSH2 0x3C17 JUMP JUMPDEST SWAP6 POP SWAP6 POP POP PUSH1 0x20 PUSH2 0x3D31 DUP9 DUP3 DUP10 ADD PUSH2 0x3C93 JUMP JUMPDEST SWAP4 POP POP PUSH1 0x40 PUSH2 0x3D42 DUP9 DUP3 DUP10 ADD PUSH2 0x3923 JUMP JUMPDEST SWAP3 POP POP PUSH1 0x60 PUSH2 0x3D53 DUP9 DUP3 DUP10 ADD PUSH2 0x3CC8 JUMP JUMPDEST SWAP2 POP POP SWAP3 SWAP6 POP SWAP3 SWAP6 SWAP1 SWAP4 POP JUMP JUMPDEST PUSH0 DUP2 SWAP1 POP SWAP2 SWAP1 POP JUMP JUMPDEST PUSH2 0x3D72 DUP2 PUSH2 0x3D60 JUMP JUMPDEST DUP3 MSTORE POP POP JUMP JUMPDEST PUSH0 PUSH1 0x20 DUP3 ADD SWAP1 POP PUSH2 0x3D8B PUSH0 DUP4 ADD DUP5 PUSH2 0x3D69 JUMP JUMPDEST SWAP3 SWAP2 POP POP JUMP JUMPDEST PUSH0 PUSH2 0x3D9B DUP3 PUSH2 0x3853 JUMP JUMPDEST SWAP1 POP SWAP2 SWAP1 POP JUMP JUMPDEST PUSH2 0x3DAB DUP2 PUSH2 0x3D91 JUMP JUMPDEST DUP3 MSTORE POP POP JUMP JUMPDEST PUSH0 PUSH1 0x20 DUP3 ADD SWAP1 POP PUSH2 0x3DC4 PUSH0 DUP4 ADD DUP5 PUSH2 0x3DA2 JUMP JUMPDEST SWAP3 SWAP2 POP POP JUMP JUMPDEST PUSH0 PUSH2 0x3DD4 DUP3 PUSH2 0x3853 JUMP JUMPDEST SWAP1 POP SWAP2 SWAP1 POP JUMP JUMPDEST PUSH2 0x3DE4 DUP2 PUSH2 0x3DCA JUMP JUMPDEST DUP3 MSTORE POP POP JUMP JUMPDEST PUSH0 PUSH1 0x20 DUP3 ADD SWAP1 POP PUSH2 0x3DFD PUSH0 DUP4 ADD DUP5 PUSH2 0x3DDB JUMP JUMPDEST SWAP3 SWAP2 POP POP JUMP JUMPDEST PUSH0 PUSH2 0x3E0D DUP3 PUSH2 0x3853 JUMP JUMPDEST SWAP1 POP SWAP2 SWAP1 POP JUMP JUMPDEST PUSH2 0x3E1D DUP2 PUSH2 0x3E03 JUMP JUMPDEST DUP3 MSTORE POP POP JUMP JUMPDEST PUSH0 PUSH1 0x20 DUP3 ADD SWAP1 POP PUSH2 0x3E36 PUSH0 DUP4 ADD DUP5 PUSH2 0x3E14 JUMP JUMPDEST SWAP3 SWAP2 POP POP JUMP JUMPDEST PUSH2 0x3E45 DUP2 PUSH2 0x3D60 JUMP JUMPDEST DUP2 EQ PUSH2 0x3E4F JUMPI PUSH0 PUSH0 REVERT JUMPDEST POP JUMP JUMPDEST PUSH0 DUP2 CALLDATALOAD SWAP1 POP PUSH2 0x3E60 DUP2 PUSH2 0x3E3C JUMP JUMPDEST SWAP3 SWAP2 POP POP JUMP JUMPDEST PUSH0 PUSH1 0x20 DUP3 DUP5 SUB SLT ISZERO PUSH2 0x3E7B JUMPI PUSH2 0x3E7A PUSH2 0x3789 JUMP JUMPDEST JUMPDEST PUSH0 PUSH2 0x3E88 DUP5 DUP3 DUP6 ADD PUSH2 0x3E52 JUMP JUMPDEST SWAP2 POP POP SWAP3 SWAP2 POP POP JUMP JUMPDEST PUSH0 PUSH2 0x3E9B DUP3 PUSH2 0x3853 JUMP JUMPDEST SWAP1 POP SWAP2 SWAP1 POP JUMP JUMPDEST PUSH2 0x3EAB DUP2 PUSH2 0x3E91 JUMP JUMPDEST DUP3 MSTORE POP POP JUMP JUMPDEST PUSH0 PUSH1 0x20 DUP3 ADD SWAP1 POP PUSH2 0x3EC4 PUSH0 DUP4 ADD DUP5 PUSH2 0x3EA2 JUMP JUMPDEST SWAP3 SWAP2 POP POP JUMP JUMPDEST PUSH2 0x3ED3 DUP2 PUSH2 0x37B0 JUMP JUMPDEST DUP3 MSTORE POP POP JUMP JUMPDEST PUSH2 0x3EE2 DUP2 PUSH2 0x39E2 JUMP JUMPDEST DUP3 MSTORE POP POP JUMP JUMPDEST PUSH2 0x3EF1 DUP2 PUSH2 0x39FF JUMP JUMPDEST DUP3 MSTORE POP POP JUMP JUMPDEST PUSH2 0x3F00 DUP2 PUSH2 0x3A1A JUMP JUMPDEST DUP3 MSTORE POP POP JUMP JUMPDEST PUSH1 0x80 DUP3 ADD PUSH0 DUP3 ADD MLOAD PUSH2 0x3F1A PUSH0 DUP6 ADD DUP3 PUSH2 0x3ECA JUMP JUMPDEST POP PUSH1 0x20 DUP3 ADD MLOAD PUSH2 0x3F2D PUSH1 0x20 DUP6 ADD DUP3 PUSH2 0x3ED9 JUMP JUMPDEST POP PUSH1 0x40 DUP3 ADD MLOAD PUSH2 0x3F40 PUSH1 0x40 DUP6 ADD DUP3 PUSH2 0x3EE8 JUMP JUMPDEST POP PUSH1 0x60 DUP3 ADD MLOAD PUSH2 0x3F53 PUSH1 0x60 DUP6 ADD DUP3 PUSH2 0x3EF7 JUMP JUMPDEST POP POP POP POP JUMP JUMPDEST PUSH0 PUSH1 0x80 DUP3 ADD SWAP1 POP PUSH2 0x3F6C PUSH0 DUP4 ADD DUP5 PUSH2 0x3F06 JUMP JUMPDEST SWAP3 SWAP2 POP POP JUMP JUMPDEST PUSH0 PUSH2 0x3F7C DUP3 PUSH2 0x3853 JUMP JUMPDEST SWAP1 POP SWAP2 SWAP1 POP JUMP JUMPDEST PUSH2 0x3F8C DUP2 PUSH2 0x3F72 JUMP JUMPDEST DUP3 MSTORE POP POP JUMP JUMPDEST PUSH0 PUSH1 0x20 DUP3 ADD SWAP1 POP PUSH2 0x3FA5 PUSH0 DUP4 ADD DUP5 PUSH2 0x3F83 JUMP JUMPDEST SWAP3 SWAP2 POP POP JUMP JUMPDEST PUSH0 PUSH2 0x3FB5 DUP3 PUSH2 0x3853 JUMP JUMPDEST SWAP1 POP SWAP2 SWAP1 POP JUMP JUMPDEST PUSH2 0x3FC5 DUP2 PUSH2 0x3FAB JUMP JUMPDEST DUP3 MSTORE POP POP JUMP JUMPDEST PUSH0 PUSH1 0x20 DUP3 ADD SWAP1 POP PUSH2 0x3FDE PUSH0 DUP4 ADD DUP5 PUSH2 0x3FBC JUMP JUMPDEST SWAP3 SWAP2 POP POP JUMP JUMPDEST PUSH0 DUP2 MLOAD SWAP1 POP PUSH2 0x3FF2 DUP2 PUSH2 0x37C1 JUMP JUMPDEST SWAP3 SWAP2 POP POP JUMP JUMPDEST PUSH0 PUSH1 0x20 DUP3 DUP5 SUB SLT ISZERO PUSH2 0x400D JUMPI PUSH2 0x400C PUSH2 0x3789 JUMP JUMPDEST JUMPDEST PUSH0 PUSH2 0x401A DUP5 DUP3 DUP6 ADD PUSH2 0x3FE4 JUMP JUMPDEST SWAP2 POP POP SWAP3 SWAP2 POP POP JUMP JUMPDEST PUSH0 DUP3 DUP3 MSTORE PUSH1 0x20 DUP3 ADD SWAP1 POP SWAP3 SWAP2 POP POP JUMP JUMPDEST PUSH32 0x43616C6C6572206973206E6F7420746865206F776E6572000000000000000000 PUSH0 DUP3 ADD MSTORE POP JUMP JUMPDEST PUSH0 PUSH2 0x4067 PUSH1 0x17 DUP4 PUSH2 0x4023 JUMP JUMPDEST SWAP2 POP PUSH2 0x4072 DUP3 PUSH2 0x4033 JUMP JUMPDEST PUSH1 0x20 DUP3 ADD SWAP1 POP SWAP2 SWAP1 POP JUMP JUMPDEST PUSH0 PUSH1 0x20 DUP3 ADD SWAP1 POP DUP2 DUP2 SUB PUSH0 DUP4 ADD MSTORE PUSH2 0x4094 DUP2 PUSH2 0x405B JUMP JUMPDEST SWAP1 POP SWAP2 SWAP1 POP JUMP JUMPDEST PUSH0 DUP2 MLOAD SWAP1 POP SWAP2 SWAP1 POP JUMP JUMPDEST DUP3 DUP2 DUP4 MCOPY PUSH0 DUP4 DUP4 ADD MSTORE POP POP POP JUMP JUMPDEST PUSH0 PUSH2 0x40BD DUP3 PUSH2 0x409B JUMP JUMPDEST PUSH2 0x40C7 DUP2 DUP6 PUSH2 0x4023 JUMP JUMPDEST SWAP4 POP PUSH2 0x40D7 DUP2 DUP6 PUSH1 0x20 DUP7 ADD PUSH2 0x40A5 JUMP JUMPDEST PUSH2 0x40E0 DUP2 PUSH2 0x3A83 JUMP JUMPDEST DUP5 ADD SWAP2 POP POP SWAP3 SWAP2 POP POP JUMP JUMPDEST PUSH0 PUSH1 0x20 DUP3 ADD SWAP1 POP DUP2 DUP2 SUB PUSH0 DUP4 ADD MSTORE PUSH2 0x4103 DUP2 DUP5 PUSH2 0x40B3 JUMP JUMPDEST SWAP1 POP SWAP3 SWAP2 POP POP JUMP JUMPDEST PUSH0 DUP2 MLOAD SWAP1 POP PUSH2 0x4119 DUP2 PUSH2 0x3E3C JUMP JUMPDEST SWAP3 SWAP2 POP POP JUMP JUMPDEST PUSH0 PUSH1 0x20 DUP3 DUP5 SUB SLT ISZERO PUSH2 0x4134 JUMPI PUSH2 0x4133 PUSH2 0x3789 JUMP JUMPDEST JUMPDEST PUSH0 PUSH2 0x4141 DUP5 DUP3 DUP6 ADD PUSH2 0x410B JUMP JUMPDEST SWAP2 POP POP SWAP3 SWAP2 POP POP JUMP JUMPDEST PUSH32 0x4E487B7100000000000000000000000000000000000000000000000000000000 PUSH0 MSTORE PUSH1 0x11 PUSH1 0x4 MSTORE PUSH1 0x24 PUSH0 REVERT JUMPDEST PUSH0 PUSH2 0x4181 DUP3 PUSH2 0x3D60 JUMP JUMPDEST SWAP2 POP PUSH2 0x418C DUP4 PUSH2 0x3D60 JUMP JUMPDEST SWAP3 POP DUP3 DUP3 SUB SWAP1 POP DUP2 DUP2 GT ISZERO PUSH2 0x41A4 JUMPI PUSH2 0x41A3 PUSH2 0x414A JUMP JUMPDEST JUMPDEST SWAP3 SWAP2 POP POP JUMP JUMPDEST PUSH32 0x5265656E7472616E637947756172643A207265656E7472616E742063616C6C00 PUSH0 DUP3 ADD MSTORE POP JUMP JUMPDEST PUSH0 PUSH2 0x41DE PUSH1 0x1F DUP4 PUSH2 0x4023 JUMP JUMPDEST SWAP2 POP PUSH2 0x41E9 DUP3 PUSH2 0x41AA JUMP JUMPDEST PUSH1 0x20 DUP3 ADD SWAP1 POP SWAP2 SWAP1 POP JUMP JUMPDEST PUSH0 PUSH1 0x20 DUP3 ADD SWAP1 POP DUP2 DUP2 SUB PUSH0 DUP4 ADD MSTORE PUSH2 0x420B DUP2 PUSH2 0x41D2 JUMP JUMPDEST SWAP1 POP SWAP2 SWAP1 POP JUMP JUMPDEST PUSH32 0x4E487B7100000000000000000000000000000000000000000000000000000000 PUSH0 MSTORE PUSH1 0x32 PUSH1 0x4 MSTORE PUSH1 0x24 PUSH0 REVERT JUMPDEST PUSH0 PUSH2 0xFFFF DUP3 AND SWAP1 POP SWAP2 SWAP1 POP JUMP JUMPDEST PUSH2 0x4255 DUP2 PUSH2 0x423F JUMP JUMPDEST DUP2 EQ PUSH2 0x425F JUMPI PUSH0 PUSH0 REVERT JUMPDEST POP JUMP JUMPDEST PUSH0 DUP2 CALLDATALOAD SWAP1 POP PUSH2 0x4270 DUP2 PUSH2 0x424C JUMP JUMPDEST SWAP3 SWAP2 POP POP JUMP JUMPDEST PUSH0 PUSH1 0x20 DUP3 DUP5 SUB SLT ISZERO PUSH2 0x428B JUMPI PUSH2 0x428A PUSH2 0x3789 JUMP JUMPDEST JUMPDEST PUSH0 PUSH2 0x4298 DUP5 DUP3 DUP6 ADD PUSH2 0x4262 JUMP JUMPDEST SWAP2 POP POP SWAP3 SWAP2 POP POP JUMP JUMPDEST PUSH32 0x4E487B7100000000000000000000000000000000000000000000000000000000 PUSH0 MSTORE PUSH1 0x12 PUSH1 0x4 MSTORE PUSH1 0x24 PUSH0 REVERT JUMPDEST PUSH0 DUP2 MLOAD SWAP1 POP SWAP2 SWAP1 POP JUMP JUMPDEST PUSH0 DUP3 DUP3 MSTORE PUSH1 0x20 DUP3 ADD SWAP1 POP SWAP3 SWAP2 POP POP JUMP JUMPDEST PUSH0 PUSH2 0x42F2 DUP3 PUSH2 0x42CE JUMP JUMPDEST PUSH2 0x42FC DUP2 DUP6 PUSH2 0x42D8 JUMP JUMPDEST SWAP4 POP PUSH2 0x430C DUP2 DUP6 PUSH1 0x20 DUP7 ADD PUSH2 0x40A5 JUMP JUMPDEST PUSH2 0x4315 DUP2 PUSH2 0x3A83 JUMP JUMPDEST DUP5 ADD SWAP2 POP POP SWAP3 SWAP2 POP POP JUMP JUMPDEST PUSH0 DUP2 MLOAD SWAP1 POP SWAP2 SWAP1 POP JUMP JUMPDEST PUSH0 DUP3 DUP3 MSTORE PUSH1 0x20 DUP3 ADD SWAP1 POP SWAP3 SWAP2 POP POP JUMP JUMPDEST PUSH0 DUP2 SWAP1 POP PUSH1 0x20 DUP3 ADD SWAP1 POP SWAP2 SWAP1 POP JUMP JUMPDEST PUSH0 DUP3 DUP3 MSTORE PUSH1 0x20 DUP3 ADD SWAP1 POP SWAP3 SWAP2 POP POP JUMP JUMPDEST PUSH0 PUSH2 0x4363 DUP3 PUSH2 0x42CE JUMP JUMPDEST PUSH2 0x436D DUP2 DUP6 PUSH2 0x4349 JUMP JUMPDEST SWAP4 POP PUSH2 0x437D DUP2 DUP6 PUSH1 0x20 DUP7 ADD PUSH2 0x40A5 JUMP JUMPDEST PUSH2 0x4386 DUP2 PUSH2 0x3A83 JUMP JUMPDEST DUP5 ADD SWAP2 POP POP SWAP3 SWAP2 POP POP JUMP JUMPDEST PUSH0 PUSH2 0x439C DUP4 DUP4 PUSH2 0x4359 JUMP JUMPDEST SWAP1 POP SWAP3 SWAP2 POP POP JUMP JUMPDEST PUSH0 PUSH1 0x20 DUP3 ADD SWAP1 POP SWAP2 SWAP1 POP JUMP JUMPDEST PUSH0 PUSH2 0x43BA DUP3 PUSH2 0x4320 JUMP JUMPDEST PUSH2 0x43C4 DUP2 DUP6 PUSH2 0x432A JUMP JUMPDEST SWAP4 POP DUP4 PUSH1 0x20 DUP3 MUL DUP6 ADD PUSH2 0x43D6 DUP6 PUSH2 0x433A JUMP JUMPDEST DUP1 PUSH0 JUMPDEST DUP6 DUP2 LT ISZERO PUSH2 0x4411 JUMPI DUP5 DUP5 SUB DUP10 MSTORE DUP2 MLOAD PUSH2 0x43F2 DUP6 DUP3 PUSH2 0x4391 JUMP JUMPDEST SWAP5 POP PUSH2 0x43FD DUP4 PUSH2 0x43A4 JUMP JUMPDEST SWAP3 POP PUSH1 0x20 DUP11 ADD SWAP10 POP POP PUSH1 0x1 DUP2 ADD SWAP1 POP PUSH2 0x43D9 JUMP JUMPDEST POP DUP3 SWAP8 POP DUP8 SWAP6 POP POP POP POP POP POP SWAP3 SWAP2 POP POP JUMP JUMPDEST PUSH0 PUSH1 0x40 DUP3 ADD SWAP1 POP DUP2 DUP2 SUB PUSH0 DUP4 ADD MSTORE PUSH2 0x443B DUP2 DUP6 PUSH2 0x42E8 JUMP JUMPDEST SWAP1 POP DUP2 DUP2 SUB PUSH1 0x20 DUP4 ADD MSTORE PUSH2 0x444F DUP2 DUP5 PUSH2 0x43B0 JUMP JUMPDEST SWAP1 POP SWAP4 SWAP3 POP POP POP JUMP JUMPDEST PUSH0 DUP2 SWAP1 POP SWAP3 SWAP2 POP POP JUMP JUMPDEST POP JUMP JUMPDEST PUSH0 PUSH2 0x4470 PUSH0 DUP4 PUSH2 0x4458 JUMP JUMPDEST SWAP2 POP PUSH2 0x447B DUP3 PUSH2 0x4462 JUMP JUMPDEST PUSH0 DUP3 ADD SWAP1 POP SWAP2 SWAP1 POP JUMP JUMPDEST PUSH0 PUSH2 0x448F DUP3 PUSH2 0x4465 JUMP JUMPDEST SWAP2 POP DUP2 SWAP1 POP SWAP2 SWAP1 POP JUMP JUMPDEST PUSH32 0x4469726563746F72792063616E6E6F74206265207A65726F2061646472657373 PUSH0 DUP3 ADD MSTORE POP JUMP JUMPDEST PUSH0 PUSH2 0x44CD PUSH1 0x20 DUP4 PUSH2 0x4023 JUMP JUMPDEST SWAP2 POP PUSH2 0x44D8 DUP3 PUSH2 0x4499 JUMP JUMPDEST PUSH1 0x20 DUP3 ADD SWAP1 POP SWAP2 SWAP1 POP JUMP JUMPDEST PUSH0 PUSH1 0x20 DUP3 ADD SWAP1 POP DUP2 DUP2 SUB PUSH0 DUP4 ADD MSTORE PUSH2 0x44FA DUP2 PUSH2 0x44C1 JUMP JUMPDEST SWAP1 POP SWAP2 SWAP1 POP JUMP JUMPDEST PUSH32 0x4469726563746F7279206D757374206265206120636F6E747261637400000000 PUSH0 DUP3 ADD MSTORE POP JUMP JUMPDEST PUSH0 PUSH2 0x4535 PUSH1 0x1C DUP4 PUSH2 0x4023 JUMP JUMPDEST SWAP2 POP PUSH2 0x4540 DUP3 PUSH2 0x4501 JUMP JUMPDEST PUSH1 0x20 DUP3 ADD SWAP1 POP SWAP2 SWAP1 POP JUMP JUMPDEST PUSH0 PUSH1 0x20 DUP3 ADD SWAP1 POP DUP2 DUP2 SUB PUSH0 DUP4 ADD MSTORE PUSH2 0x4562 DUP2 PUSH2 0x4529 JUMP JUMPDEST SWAP1 POP SWAP2 SWAP1 POP JUMP JUMPDEST PUSH32 0x4469726563746F7279206164647265737320646F6573206E6F7420696D706C65 PUSH0 DUP3 ADD MSTORE PUSH32 0x6D656E74206F776E657228290000000000000000000000000000000000000000 PUSH1 0x20 DUP3 ADD MSTORE POP JUMP JUMPDEST PUSH0 PUSH2 0x45C3 PUSH1 0x2C DUP4 PUSH2 0x4023 JUMP JUMPDEST SWAP2 POP PUSH2 0x45CE DUP3 PUSH2 0x4569 JUMP JUMPDEST PUSH1 0x40 DUP3 ADD SWAP1 POP SWAP2 SWAP1 POP JUMP JUMPDEST PUSH0 PUSH1 0x20 DUP3 ADD SWAP1 POP DUP2 DUP2 SUB PUSH0 DUP4 ADD MSTORE PUSH2 0x45F0 DUP2 PUSH2 0x45B7 JUMP JUMPDEST SWAP1 POP SWAP2 SWAP1 POP JUMP JUMPDEST PUSH0 PUSH1 0x40 DUP3 ADD SWAP1 POP PUSH2 0x460A PUSH0 DUP4 ADD DUP6 PUSH2 0x39D3 JUMP JUMPDEST PUSH2 0x4617 PUSH1 0x20 DUP4 ADD DUP5 PUSH2 0x39D3 JUMP JUMPDEST SWAP4 SWAP3 POP POP POP JUMP JUMPDEST PUSH0 PUSH14 0xFFFFFFFFFFFFFFFFFFFFFFFFFFFF DUP3 AND SWAP1 POP SWAP2 SWAP1 POP JUMP JUMPDEST PUSH2 0x4640 DUP2 PUSH2 0x461E JUMP JUMPDEST DUP2 EQ PUSH2 0x464A JUMPI PUSH0 PUSH0 REVERT JUMPDEST POP JUMP JUMPDEST PUSH0 DUP2 MLOAD SWAP1 POP PUSH2 0x465B DUP2 PUSH2 0x4637 JUMP JUMPDEST SWAP3 SWAP2 POP POP JUMP JUMPDEST PUSH0 DUP2 MLOAD SWAP1 POP PUSH2 0x466F DUP2 PUSH2 0x390D JUMP JUMPDEST SWAP3 SWAP2 POP POP JUMP JUMPDEST PUSH0 PUSH0 PUSH0 PUSH1 0x60 DUP5 DUP7 SUB SLT ISZERO PUSH2 0x468C JUMPI PUSH2 0x468B PUSH2 0x3789 JUMP JUMPDEST JUMPDEST PUSH0 PUSH2 0x4699 DUP7 DUP3 DUP8 ADD PUSH2 0x464D JUMP JUMPDEST SWAP4 POP POP PUSH1 0x20 PUSH2 0x46AA DUP7 DUP3 DUP8 ADD PUSH2 0x464D JUMP JUMPDEST SWAP3 POP POP PUSH1 0x40 PUSH2 0x46BB DUP7 DUP3 DUP8 ADD PUSH2 0x4661 JUMP JUMPDEST SWAP2 POP POP SWAP3 POP SWAP3 POP SWAP3 JUMP JUMPDEST PUSH0 PUSH1 0x60 DUP3 ADD SWAP1 POP PUSH2 0x46D8 PUSH0 DUP4 ADD DUP7 PUSH2 0x39D3 JUMP JUMPDEST PUSH2 0x46E5 PUSH1 0x20 DUP4 ADD DUP6 PUSH2 0x39D3 JUMP JUMPDEST PUSH2 0x46F2 PUSH1 0x40 DUP4 ADD DUP5 PUSH2 0x39F0 JUMP JUMPDEST SWAP5 SWAP4 POP POP POP POP JUMP JUMPDEST PUSH0 PUSH1 0x40 DUP3 ADD SWAP1 POP PUSH2 0x470D PUSH0 DUP4 ADD DUP6 PUSH2 0x39D3 JUMP JUMPDEST PUSH2 0x471A PUSH1 0x20 DUP4 ADD DUP5 PUSH2 0x3D69 JUMP JUMPDEST SWAP4 SWAP3 POP POP POP JUMP JUMPDEST PUSH0 PUSH2 0x472B DUP3 PUSH2 0x42CE JUMP JUMPDEST PUSH2 0x4735 DUP2 DUP6 PUSH2 0x4458 JUMP JUMPDEST SWAP4 POP PUSH2 0x4745 DUP2 DUP6 PUSH1 0x20 DUP7 ADD PUSH2 0x40A5 JUMP JUMPDEST DUP1 DUP5 ADD SWAP2 POP POP SWAP3 SWAP2 POP POP JUMP JUMPDEST PUSH0 PUSH2 0x475C DUP3 DUP5 PUSH2 0x4721 JUMP JUMPDEST SWAP2 POP DUP2 SWAP1 POP SWAP3 SWAP2 POP POP JUMP JUMPDEST PUSH0 DUP2 MLOAD SWAP1 POP PUSH2 0x4775 DUP2 PUSH2 0x3CB2 JUMP JUMPDEST SWAP3 SWAP2 POP POP JUMP JUMPDEST PUSH0 PUSH1 0x20 DUP3 DUP5 SUB SLT ISZERO PUSH2 0x4790 JUMPI PUSH2 0x478F PUSH2 0x3789 JUMP JUMPDEST JUMPDEST PUSH0 PUSH2 0x479D DUP5 DUP3 DUP6 ADD PUSH2 0x4767 JUMP JUMPDEST SWAP2 POP POP SWAP3 SWAP2 POP POP JUMP JUMPDEST PUSH32 0x5452414E534645525F4641494C45440000000000000000000000000000000000 PUSH0 DUP3 ADD MSTORE POP JUMP JUMPDEST PUSH0 PUSH2 0x47DA PUSH1 0xF DUP4 PUSH2 0x4023 JUMP JUMPDEST SWAP2 POP PUSH2 0x47E5 DUP3 PUSH2 0x47A6 JUMP JUMPDEST PUSH1 0x20 DUP3 ADD SWAP1 POP SWAP2 SWAP1 POP JUMP JUMPDEST PUSH0 PUSH1 0x20 DUP3 ADD SWAP1 POP DUP2 DUP2 SUB PUSH0 DUP4 ADD MSTORE PUSH2 0x4807 DUP2 PUSH2 0x47CE JUMP JUMPDEST SWAP1 POP SWAP2 SWAP1 POP JUMP JUMPDEST PUSH0 DUP2 PUSH1 0x60 SHL SWAP1 POP SWAP2 SWAP1 POP JUMP JUMPDEST PUSH0 PUSH2 0x4824 DUP3 PUSH2 0x480E JUMP JUMPDEST SWAP1 POP SWAP2 SWAP1 POP JUMP JUMPDEST PUSH0 PUSH2 0x4835 DUP3 PUSH2 0x481A JUMP JUMPDEST SWAP1 POP SWAP2 SWAP1 POP JUMP JUMPDEST PUSH2 0x484D PUSH2 0x4848 DUP3 PUSH2 0x37B0 JUMP JUMPDEST PUSH2 0x482B JUMP JUMPDEST DUP3 MSTORE POP POP JUMP JUMPDEST PUSH0 DUP2 PUSH1 0xE8 SHL SWAP1 POP SWAP2 SWAP1 POP JUMP JUMPDEST PUSH0 PUSH2 0x4869 DUP3 PUSH2 0x4853 JUMP JUMPDEST SWAP1 POP SWAP2 SWAP1 POP JUMP JUMPDEST PUSH2 0x4881 PUSH2 0x487C DUP3 PUSH2 0x39E2 JUMP JUMPDEST PUSH2 0x485F JUMP JUMPDEST DUP3 MSTORE POP POP JUMP JUMPDEST PUSH0 PUSH2 0x4892 DUP3 DUP7 PUSH2 0x483C JUMP JUMPDEST PUSH1 0x14 DUP3 ADD SWAP2 POP PUSH2 0x48A2 DUP3 DUP6 PUSH2 0x4870 JUMP JUMPDEST PUSH1 0x3 DUP3 ADD SWAP2 POP PUSH2 0x48B2 DUP3 DUP5 PUSH2 0x483C JUMP JUMPDEST PUSH1 0x14 DUP3 ADD SWAP2 POP DUP2 SWAP1 POP SWAP5 SWAP4 POP POP POP POP JUMP JUMPDEST PUSH2 0x48CC DUP2 PUSH2 0x3CA7 JUMP JUMPDEST DUP3 MSTORE POP POP JUMP JUMPDEST PUSH0 PUSH1 0xA0 DUP3 ADD SWAP1 POP PUSH2 0x48E5 PUSH0 DUP4 ADD DUP9 PUSH2 0x39D3 JUMP JUMPDEST PUSH2 0x48F2 PUSH1 0x20 DUP4 ADD DUP8 PUSH2 0x3D69 JUMP JUMPDEST PUSH2 0x48FF PUSH1 0x40 DUP4 ADD DUP7 PUSH2 0x3D69 JUMP JUMPDEST DUP2 DUP2 SUB PUSH1 0x60 DUP4 ADD MSTORE PUSH2 0x4911 DUP2 DUP6 PUSH2 0x42E8 JUMP JUMPDEST SWAP1 POP PUSH2 0x4920 PUSH1 0x80 DUP4 ADD DUP5 PUSH2 0x48C3 JUMP JUMPDEST SWAP7 SWAP6 POP POP POP POP POP POP JUMP JUMPDEST PUSH0 DUP2 MLOAD SWAP1 POP SWAP2 SWAP1 POP JUMP JUMPDEST PUSH0 DUP3 DUP3 MSTORE PUSH1 0x20 DUP3 ADD SWAP1 POP SWAP3 SWAP2 POP POP JUMP JUMPDEST PUSH0 DUP2 SWAP1 POP PUSH1 0x20 DUP3 ADD SWAP1 POP SWAP2 SWAP1 POP JUMP JUMPDEST PUSH0 PUSH2 0x495E DUP4 DUP4 PUSH2 0x3ECA JUMP JUMPDEST PUSH1 0x20 DUP4 ADD SWAP1 POP SWAP3 SWAP2 POP POP JUMP JUMPDEST PUSH0 PUSH1 0x20 DUP3 ADD SWAP1 POP SWAP2 SWAP1 POP JUMP JUMPDEST PUSH0 PUSH2 0x4980 DUP3 PUSH2 0x492A JUMP JUMPDEST PUSH2 0x498A DUP2 DUP6 PUSH2 0x4934 JUMP JUMPDEST SWAP4 POP PUSH2 0x4995 DUP4 PUSH2 0x4944 JUMP JUMPDEST DUP1 PUSH0 JUMPDEST DUP4 DUP2 LT ISZERO PUSH2 0x49C5 JUMPI DUP2 MLOAD PUSH2 0x49AC DUP9 DUP3 PUSH2 0x4953 JUMP JUMPDEST SWAP8 POP PUSH2 0x49B7 DUP4 PUSH2 0x496A JUMP JUMPDEST SWAP3 POP POP PUSH1 0x1 DUP2 ADD SWAP1 POP PUSH2 0x4998 JUMP JUMPDEST POP DUP6 SWAP4 POP POP POP POP SWAP3 SWAP2 POP POP JUMP JUMPDEST PUSH0 PUSH1 0xA0 DUP3 ADD SWAP1 POP PUSH2 0x49E5 PUSH0 DUP4 ADD DUP9 PUSH2 0x39D3 JUMP JUMPDEST PUSH2 0x49F2 PUSH1 0x20 DUP4 ADD DUP8 PUSH2 0x3D69 JUMP JUMPDEST PUSH2 0x49FF PUSH1 0x40 DUP4 ADD DUP7 PUSH2 0x3D69 JUMP JUMPDEST DUP2 DUP2 SUB PUSH1 0x60 DUP4 ADD MSTORE PUSH2 0x4A11 DUP2 DUP6 PUSH2 0x4976 JUMP JUMPDEST SWAP1 POP PUSH2 0x4A20 PUSH1 0x80 DUP4 ADD DUP5 PUSH2 0x48C3 JUMP JUMPDEST SWAP7 SWAP6 POP POP POP POP POP POP JUMP JUMPDEST PUSH0 PUSH1 0x60 DUP3 ADD SWAP1 POP PUSH2 0x4A3D PUSH0 DUP4 ADD DUP7 PUSH2 0x39D3 JUMP JUMPDEST PUSH2 0x4A4A PUSH1 0x20 DUP4 ADD DUP6 PUSH2 0x39D3 JUMP JUMPDEST PUSH2 0x4A57 PUSH1 0x40 DUP4 ADD DUP5 PUSH2 0x3D69 JUMP JUMPDEST SWAP5 SWAP4 POP POP POP POP JUMP JUMPDEST PUSH32 0x5452414E534645525F46524F4D5F4641494C4544000000000000000000000000 PUSH0 DUP3 ADD MSTORE POP JUMP JUMPDEST PUSH0 PUSH2 0x4A93 PUSH1 0x14 DUP4 PUSH2 0x4023 JUMP JUMPDEST SWAP2 POP PUSH2 0x4A9E DUP3 PUSH2 0x4A5F JUMP JUMPDEST PUSH1 0x20 DUP3 ADD SWAP1 POP SWAP2 SWAP1 POP JUMP JUMPDEST PUSH0 PUSH1 0x20 DUP3 ADD SWAP1 POP DUP2 DUP2 SUB PUSH0 DUP4 ADD MSTORE PUSH2 0x4AC0 DUP2 PUSH2 0x4A87 JUMP JUMPDEST SWAP1 POP SWAP2 SWAP1 POP JUMP JUMPDEST PUSH0 PUSH1 0x60 DUP3 ADD SWAP1 POP PUSH2 0x4ADA PUSH0 DUP4 ADD DUP7 PUSH2 0x39D3 JUMP JUMPDEST PUSH2 0x4AE7 PUSH1 0x20 DUP4 ADD DUP6 PUSH2 0x39D3 JUMP JUMPDEST PUSH2 0x4AF4 PUSH1 0x40 DUP4 ADD DUP5 PUSH2 0x39D3 JUMP JUMPDEST SWAP5 SWAP4 POP POP POP POP JUMP JUMPDEST PUSH2 0x4B05 DUP2 PUSH2 0x3791 JUMP JUMPDEST DUP2 EQ PUSH2 0x4B0F JUMPI PUSH0 PUSH0 REVERT JUMPDEST POP JUMP JUMPDEST PUSH0 DUP2 MLOAD SWAP1 POP PUSH2 0x4B20 DUP2 PUSH2 0x4AFC JUMP JUMPDEST SWAP3 SWAP2 POP POP JUMP JUMPDEST PUSH0 PUSH6 0xFFFFFFFFFFFF DUP3 AND SWAP1 POP SWAP2 SWAP1 POP JUMP JUMPDEST PUSH2 0x4B40 DUP2 PUSH2 0x4B26 JUMP JUMPDEST DUP2 EQ PUSH2 0x4B4A JUMPI PUSH0 PUSH0 REVERT JUMPDEST POP JUMP JUMPDEST PUSH0 DUP2 MLOAD SWAP1 POP PUSH2 0x4B5B DUP2 PUSH2 0x4B37 JUMP JUMPDEST SWAP3 SWAP2 POP POP JUMP JUMPDEST PUSH0 PUSH0 PUSH0 PUSH1 0x60 DUP5 DUP7 SUB SLT ISZERO PUSH2 0x4B78 JUMPI PUSH2 0x4B77 PUSH2 0x3789 JUMP JUMPDEST JUMPDEST PUSH0 PUSH2 0x4B85 DUP7 DUP3 DUP8 ADD PUSH2 0x4B12 JUMP JUMPDEST SWAP4 POP POP PUSH1 0x20 PUSH2 0x4B96 DUP7 DUP3 DUP8 ADD PUSH2 0x4B4D JUMP JUMPDEST SWAP3 POP POP PUSH1 0x40 PUSH2 0x4BA7 DUP7 DUP3 DUP8 ADD PUSH2 0x4B4D JUMP JUMPDEST SWAP2 POP POP SWAP3 POP SWAP3 POP SWAP3 JUMP JUMPDEST PUSH2 0x4BBA DUP2 PUSH2 0x3791 JUMP JUMPDEST DUP3 MSTORE POP POP JUMP JUMPDEST PUSH2 0x4BC9 DUP2 PUSH2 0x4B26 JUMP JUMPDEST DUP3 MSTORE POP POP JUMP JUMPDEST PUSH0 PUSH1 0x80 DUP3 ADD SWAP1 POP PUSH2 0x4BE2 PUSH0 DUP4 ADD DUP8 PUSH2 0x39D3 JUMP JUMPDEST PUSH2 0x4BEF PUSH1 0x20 DUP4 ADD DUP7 PUSH2 0x39D3 JUMP JUMPDEST PUSH2 0x4BFC PUSH1 0x40 DUP4 ADD DUP6 PUSH2 0x4BB1 JUMP JUMPDEST PUSH2 0x4C09 PUSH1 0x60 DUP4 ADD DUP5 PUSH2 0x4BC0 JUMP JUMPDEST SWAP6 SWAP5 POP POP POP POP POP JUMP JUMPDEST PUSH32 0x415050524F56455F4641494C4544000000000000000000000000000000000000 PUSH0 DUP3 ADD MSTORE POP JUMP JUMPDEST PUSH0 PUSH2 0x4C46 PUSH1 0xE DUP4 PUSH2 0x4023 JUMP JUMPDEST SWAP2 POP PUSH2 0x4C51 DUP3 PUSH2 0x4C12 JUMP JUMPDEST PUSH1 0x20 DUP3 ADD SWAP1 POP SWAP2 SWAP1 POP JUMP JUMPDEST PUSH0 PUSH1 0x20 DUP3 ADD SWAP1 POP DUP2 DUP2 SUB PUSH0 DUP4 ADD MSTORE PUSH2 0x4C73 DUP2 PUSH2 0x4C3A JUMP JUMPDEST SWAP1 POP SWAP2 SWAP1 POP JUMP INVALID LOG2 PUSH5 0x6970667358 0x22 SLT KECCAK256 EXP EOFCREATE 0xE7 STATICCALL CALLER NUMBER CALLF 0x5D02 0xA8 DELEGATECALL SMOD EXTDELEGATECALL 0xBA 0x1F SUB 0xCC EXTCODESIZE CODESIZE 0xCD 0x2F RETURNDATASIZE SWAP12 0xCA ADDRESS MLOAD SWAP14 BASEFEE JUMPDEST DUP1 0xA5 ADDRESS PUSH5 0x736F6C6343 STOP ADDMOD 0x1E STOP CALLER "
		},
		"gasEstimates": {
			"creation": {
				"codeDepositCost": "3926400",
				"executionCost": "infinite",
				"totalCost": "infinite"
			},
			"external": {
				"Directory()": "infinite",
				"cachedPools(address)": "infinite",
				"changeDirectoryAddress(address)": "infinite",
				"fetchFromDirectory(string)": "infinite",
				"getBestWethPool(address)": "infinite",
				"getBestWethPoolUpdatable(address)": "infinite",
				"owner()": "infinite",
				"permit2()": "infinite",
				"recoverAsset(address,address)": "infinite",
				"setStaleTimePoolCache(uint256)": "infinite",
				"staleTime()": "2492",
				"swapEthToMultipleTokens((address,uint16)[],address,uint32)": "infinite",
				"swapMultipleTokensToEth((address,uint256)[],address,uint32,bool)": "infinite",
				"uRouter()": "infinite",
				"v2Factory()": "infinite",
				"v2Router()": "infinite",
				"v3Factory()": "infinite",
				"v3Quoter()": "infinite",
				"wethAddress()": "infinite"
			}
		},
		"methodIdentifiers": {
			"Directory()": "658a847a",
			"cachedPools(address)": "24776cbe",
			"changeDirectoryAddress(address)": "ba4c7be1",
			"fetchFromDirectory(string)": "27262618",
			"getBestWethPool(address)": "df697cc4",
			"getBestWethPoolUpdatable(address)": "d32563c8",
			"owner()": "8da5cb5b",
			"permit2()": "12261ee7",
			"recoverAsset(address,address)": "09053ac4",
			"setStaleTimePoolCache(uint256)": "a7590163",
			"staleTime()": "38b88052",
			"swapEthToMultipleTokens((address,uint16)[],address,uint32)": "1623306b",
			"swapMultipleTokensToEth((address,uint256)[],address,uint32,bool)": "3814bc6e",
			"uRouter()": "5cf39049",
			"v2Factory()": "b4b57c39",
			"v2Router()": "deadbc14",
			"v3Factory()": "7c887c59",
			"v3Quoter()": "d7dfe3af",
			"wethAddress()": "4f0e0ef3"
		}
	},
	"abi": [
		{
			"inputs": [
				{
					"internalType": "address",
					"name": "_directory",
					"type": "address"
				},
				{
					"internalType": "address",
					"name": "_v2Router",
					"type": "address"
				},
				{
					"internalType": "address",
					"name": "_v3Factory",
					"type": "address"
				},
				{
					"internalType": "address",
					"name": "_v3Quoter",
					"type": "address"
				},
				{
					"internalType": "address",
					"name": "_universalRouter",
					"type": "address"
				},
				{
					"internalType": "address",
					"name": "_permit2",
					"type": "address"
				}
			],
			"stateMutability": "nonpayable",
			"type": "constructor"
		},
		{
			"inputs": [],
			"name": "AllowanceTooLow",
			"type": "error"
		},
		{
			"inputs": [],
			"name": "BadToken",
			"type": "error"
		},
		{
			"inputs": [],
			"name": "ETHSendFailed",
			"type": "error"
		},
		{
			"inputs": [],
			"name": "ETHSendFailure",
			"type": "error"
		},
		{
			"inputs": [],
			"name": "EmptyArray",
			"type": "error"
		},
		{
			"inputs": [],
			"name": "InsufficientETH",
			"type": "error"
		},
		{
			"inputs": [],
			"name": "NoEthSent",
			"type": "error"
		},
		{
			"inputs": [],
			"name": "NoPoolFound",
			"type": "error"
		},
		{
			"inputs": [],
			"name": "NoSwaps",
			"type": "error"
		},
		{
			"inputs": [],
			"name": "NothingReceived",
			"type": "error"
		},
		{
			"inputs": [],
			"name": "PreTransferInsufficient",
			"type": "error"
		},
		{
			"inputs": [],
			"name": "TokenIsWETH",
			"type": "error"
		},
		{
			"inputs": [],
			"name": "WeightsInvalid",
			"type": "error"
		},
		{
			"inputs": [],
			"name": "ZeroAddress",
			"type": "error"
		},
		{
			"inputs": [],
			"name": "ZeroAmount",
			"type": "error"
		},
		{
			"inputs": [],
			"name": "Directory",
			"outputs": [
				{
					"internalType": "contract IDirectory",
					"name": "",
					"type": "address"
				}
			],
			"stateMutability": "view",
			"type": "function"
		},
		{
			"inputs": [
				{
					"internalType": "address",
					"name": "",
					"type": "address"
				}
			],
			"name": "cachedPools",
			"outputs": [
				{
					"internalType": "address",
					"name": "poolAddress",
					"type": "address"
				},
				{
					"internalType": "uint24",
					"name": "poolFee",
					"type": "uint24"
				},
				{
					"internalType": "uint8",
					"name": "isV3Pool",
					"type": "uint8"
				},
				{
					"internalType": "uint64",
					"name": "lastCached",
					"type": "uint64"
				}
			],
			"stateMutability": "view",
			"type": "function"
		},
		{
			"inputs": [
				{
					"internalType": "address",
					"name": "_directory",
					"type": "address"
				}
			],
			"name": "changeDirectoryAddress",
			"outputs": [],
			"stateMutability": "nonpayable",
			"type": "function"
		},
		{
			"inputs": [
				{
					"internalType": "string",
					"name": "_key",
					"type": "string"
				}
			],
			"name": "fetchFromDirectory",
			"outputs": [
				{
					"internalType": "address",
					"name": "",
					"type": "address"
				}
			],
			"stateMutability": "view",
			"type": "function"
		},
		{
			"inputs": [
				{
					"internalType": "address",
					"name": "tokenAddress",
					"type": "address"
				}
			],
			"name": "getBestWethPool",
			"outputs": [
				{
					"components": [
						{
							"internalType": "address",
							"name": "poolAddress",
							"type": "address"
						},
						{
							"internalType": "uint24",
							"name": "poolFee",
							"type": "uint24"
						},
						{
							"internalType": "uint8",
							"name": "isV3Pool",
							"type": "uint8"
						},
						{
							"internalType": "uint64",
							"name": "lastCached",
							"type": "uint64"
						}
					],
					"internalType": "struct Pool",
					"name": "pool",
					"type": "tuple"
				}
			],
			"stateMutability": "view",
			"type": "function"
		},
		{
			"inputs": [
				{
					"internalType": "address",
					"name": "tokenAddress",
					"type": "address"
				}
			],
			"name": "getBestWethPoolUpdatable",
			"outputs": [
				{
					"components": [
						{
							"internalType": "address",
							"name": "poolAddress",
							"type": "address"
						},
						{
							"internalType": "uint24",
							"name": "poolFee",
							"type": "uint24"
						},
						{
							"internalType": "uint8",
							"name": "isV3Pool",
							"type": "uint8"
						},
						{
							"internalType": "uint64",
							"name": "lastCached",
							"type": "uint64"
						}
					],
					"internalType": "struct Pool",
					"name": "out",
					"type": "tuple"
				}
			],
			"stateMutability": "nonpayable",
			"type": "function"
		},
		{
			"inputs": [],
			"name": "owner",
			"outputs": [
				{
					"internalType": "address",
					"name": "",
					"type": "address"
				}
			],
			"stateMutability": "view",
			"type": "function"
		},
		{
			"inputs": [],
			"name": "permit2",
			"outputs": [
				{
					"internalType": "contract IPermit2",
					"name": "",
					"type": "address"
				}
			],
			"stateMutability": "view",
			"type": "function"
		},
		{
			"inputs": [
				{
					"internalType": "address",
					"name": "tokenAddress",
					"type": "address"
				},
				{
					"internalType": "address",
					"name": "toAddress",
					"type": "address"
				}
			],
			"name": "recoverAsset",
			"outputs": [],
			"stateMutability": "nonpayable",
			"type": "function"
		},
		{
			"inputs": [
				{
					"internalType": "uint256",
					"name": "newStaleTime",
					"type": "uint256"
				}
			],
			"name": "setStaleTimePoolCache",
			"outputs": [],
			"stateMutability": "nonpayable",
			"type": "function"
		},
		{
			"inputs": [],
			"name": "staleTime",
			"outputs": [
				{
					"internalType": "uint256",
					"name": "",
					"type": "uint256"
				}
			],
			"stateMutability": "view",
			"type": "function"
		},
		{
			"inputs": [
				{
					"components": [
						{
							"internalType": "address",
							"name": "tokenAddress",
							"type": "address"
						},
						{
							"internalType": "uint16",
							"name": "weightBips",
							"type": "uint16"
						}
					],
					"internalType": "struct MultiTokenOutput[]",
					"name": "outputs",
					"type": "tuple[]"
				},
				{
					"internalType": "address",
					"name": "recipientAddress",
					"type": "address"
				},
				{
					"internalType": "uint32",
					"name": "slippageBps",
					"type": "uint32"
				}
			],
			"name": "swapEthToMultipleTokens",
			"outputs": [],
			"stateMutability": "payable",
			"type": "function"
		},
		{
			"inputs": [
				{
					"components": [
						{
							"internalType": "address",
							"name": "tokenAddress",
							"type": "address"
						},
						{
							"internalType": "uint256",
							"name": "amount",
							"type": "uint256"
						}
					],
					"internalType": "struct MultiTokenInput[]",
					"name": "inputsIn",
					"type": "tuple[]"
				},
				{
					"internalType": "address payable",
					"name": "recipientAddress",
					"type": "address"
				},
				{
					"internalType": "uint32",
					"name": "slippageBps",
					"type": "uint32"
				},
				{
					"internalType": "bool",
					"name": "preTransferred",
					"type": "bool"
				}
			],
			"name": "swapMultipleTokensToEth",
			"outputs": [],
			"stateMutability": "nonpayable",
			"type": "function"
		},
		{
			"inputs": [],
			"name": "uRouter",
			"outputs": [
				{
					"internalType": "contract IUniversalRouter",
					"name": "",
					"type": "address"
				}
			],
			"stateMutability": "view",
			"type": "function"
		},
		{
			"inputs": [],
			"name": "v2Factory",
			"outputs": [
				{
					"internalType": "contract IUniswapV2Factory",
					"name": "",
					"type": "address"
				}
			],
			"stateMutability": "view",
			"type": "function"
		},
		{
			"inputs": [],
			"name": "v2Router",
			"outputs": [
				{
					"internalType": "contract IUniswapV2Router02",
					"name": "",
					"type": "address"
				}
			],
			"stateMutability": "view",
			"type": "function"
		},
		{
			"inputs": [],
			"name": "v3Factory",
			"outputs": [
				{
					"internalType": "contract IUniswapV3Factory",
					"name": "",
					"type": "address"
				}
			],
			"stateMutability": "view",
			"type": "function"
		},
		{
			"inputs": [],
			"name": "v3Quoter",
			"outputs": [
				{
					"internalType": "contract IUniswapV3Quoter",
					"name": "",
					"type": "address"
				}
			],
			"stateMutability": "view",
			"type": "function"
		},
		{
			"inputs": [],
			"name": "wethAddress",
			"outputs": [
				{
					"internalType": "address",
					"name": "",
					"type": "address"
				}
			],
			"stateMutability": "view",
			"type": "function"
		},
		{
			"stateMutability": "payable",
			"type": "receive"
		}
	]
}