{
	"data": {
		"bytecode": {
			"linkReferences": {},
			"object": "61014060405261546060025561012c60045f6101000a81548163ffffffff021916908363ffffffff160217905550348015610038575f5ffd5b5060405161713b38038061713b833981810160405281019061005a919061063f565b84848484845f73ffffffffffffffffffffffffffffffffffffffff168373ffffffffffffffffffffffffffffffffffffffff16036100c4576040517fd92e233d00000000000000000000000000000000000000000000000000000000815260040160405180910390fd5b5f73ffffffffffffffffffffffffffffffffffffffff168473ffffffffffffffffffffffffffffffffffffffff1603610129576040517fd92e233d00000000000000000000000000000000000000000000000000000000815260040160405180910390fd5b5f73ffffffffffffffffffffffffffffffffffffffff168273ffffffffffffffffffffffffffffffffffffffff160361018e576040517fd92e233d00000000000000000000000000000000000000000000000000000000815260040160405180910390fd5b5f73ffffffffffffffffffffffffffffffffffffffff168173ffffffffffffffffffffffffffffffffffffffff16036101f3576040517fd92e233d00000000000000000000000000000000000000000000000000000000815260040160405180910390fd5b8273ffffffffffffffffffffffffffffffffffffffff1660e08173ffffffffffffffffffffffffffffffffffffffff16815250508373ffffffffffffffffffffffffffffffffffffffff166101008173ffffffffffffffffffffffffffffffffffffffff16815250508173ffffffffffffffffffffffffffffffffffffffff166101208173ffffffffffffffffffffffffffffffffffffffff16815250505f8473ffffffffffffffffffffffffffffffffffffffff1663ad5c46486040518163ffffffff1660e01b8152600401602060405180830381865afa1580156102db573d5f5f3e3d5ffd5b505050506040513d601f19601f820116820180604052508101906102ff91906106b6565b90508073ffffffffffffffffffffffffffffffffffffffff1660808173ffffffffffffffffffffffffffffffffffffffff16815250508473ffffffffffffffffffffffffffffffffffffffff1663c45a01556040518163ffffffff1660e01b8152600401602060405180830381865afa15801561037e573d5f5f3e3d5ffd5b505050506040513d601f19601f820116820180604052508101906103a291906106b6565b73ffffffffffffffffffffffffffffffffffffffff1660c08173ffffffffffffffffffffffffffffffffffffffff16815250508173ffffffffffffffffffffffffffffffffffffffff1660a08173ffffffffffffffffffffffffffffffffffffffff1681525050505050505061041d8161043060201b60201c565b506001600381905550505050505061084f565b5f73ffffffffffffffffffffffffffffffffffffffff168173ffffffffffffffffffffffffffffffffffffffff160361049e576040517f08c379a00000000000000000000000000000000000000000000000000000000081526004016104959061073b565b60405180910390fd5b5f8173ffffffffffffffffffffffffffffffffffffffff163b116104f7576040517f08c379a00000000000000000000000000000000000000000000000000000000081526004016104ee906107a3565b60405180910390fd5b8073ffffffffffffffffffffffffffffffffffffffff16638da5cb5b6040518163ffffffff1660e01b8152600401602060405180830381865afa92505050801561055f57506040513d601f19601f8201168201806040525081019061055c91906106b6565b60015b61059e576040517f08c379a000000000000000000000000000000000000000000000000000000000815260040161059590610831565b60405180910390fd5b815f5f6101000a81548173ffffffffffffffffffffffffffffffffffffffff021916908373ffffffffffffffffffffffffffffffffffffffff1602179055505050565b5f5ffd5b5f73ffffffffffffffffffffffffffffffffffffffff82169050919050565b5f61060e826105e5565b9050919050565b61061e81610604565b8114610628575f5ffd5b50565b5f8151905061063981610615565b92915050565b5f5f5f5f5f60a08688031215610658576106576105e1565b5b5f6106658882890161062b565b95505060206106768882890161062b565b94505060406106878882890161062b565b93505060606106988882890161062b565b92505060806106a98882890161062b565b9150509295509295909350565b5f602082840312156106cb576106ca6105e1565b5b5f6106d88482850161062b565b91505092915050565b5f82825260208201905092915050565b7f4469726563746f72792063616e6e6f74206265207a65726f20616464726573735f82015250565b5f6107256020836106e1565b9150610730826106f1565b602082019050919050565b5f6020820190508181035f83015261075281610719565b9050919050565b7f4469726563746f7279206d757374206265206120636f6e7472616374000000005f82015250565b5f61078d601c836106e1565b915061079882610759565b602082019050919050565b5f6020820190508181035f8301526107ba81610781565b9050919050565b7f4469726563746f7279206164647265737320646f6573206e6f7420696d706c655f8201527f6d656e74206f776e657228290000000000000000000000000000000000000000602082015250565b5f61081b602c836106e1565b9150610826826107c1565b604082019050919050565b5f6020820190508181035f8301526108488161080f565b9050919050565b60805160a05160c05160e05161010051610120516167e161095a5f395f8181610c10015281816119e101528181613542015261397001525f818161138101526137a001525f8181610c58015281816125e601526130fd01525f8181610e13015261234301525f818161069a015281816134f60152818161352001528181613924015261394e01525f818161086c015281816108bd01528181610ad701528181610bad01528181610bec0152818161156701528181611be1015281816122940152818161231a0152818161295b0152818161298e015281816129cd015281816129fb01528181612e2001528181612f2f01528181612f6201528181612fa10152612fcf01526167e15ff3fe608060405260043610610117575f3560e01c80635cf390491161009f578063b4b57c3911610063578063b4b57c391461036a578063ba4c7be114610394578063d32563c8146103bc578063deadbc14146103f8578063df697cc4146104225761011e565b80635cf390491461029a578063658a847a146102c45780637c887c59146102ee5780638da5cb5b14610318578063a7590163146103425761011e565b80631623306b116100e65780631623306b146101c657806327262618146101e25780633814bc6e1461021e57806338b88052146102465780634f0e0ef3146102705761011e565b80630362fe3a1461012257806309053ac41461014c5780631052874d1461017457806312261ee71461019c5761011e565b3661011e57005b5f5ffd5b34801561012d575f5ffd5b5061013661045e565b6040516101439190614a9e565b60405180910390f35b348015610157575f5ffd5b50610172600480360381019061016d9190614b22565b610473565b005b34801561017f575f5ffd5b5061019a60048036038101906101959190614b8a565b61057b565b005b3480156101a7575f5ffd5b506101b0610698565b6040516101bd9190614c10565b60405180910390f35b6101e060048036038101906101db9190614c8a565b6106bc565b005b3480156101ed575f5ffd5b5061020860048036038101906102039190614e33565b61090f565b6040516102159190614e89565b60405180910390f35b348015610229575f5ffd5b50610244600480360381019061023f9190614f67565b6109af565b005b348015610251575f5ffd5b5061025a610be4565b6040516102679190615003565b60405180910390f35b34801561027b575f5ffd5b50610284610bea565b6040516102919190614e89565b60405180910390f35b3480156102a5575f5ffd5b506102ae610c0e565b6040516102bb919061503c565b60405180910390f35b3480156102cf575f5ffd5b506102d8610c32565b6040516102e59190615075565b60405180910390f35b3480156102f9575f5ffd5b50610302610c56565b60405161030f91906150ae565b60405180910390f35b348015610323575f5ffd5b5061032c610c7a565b6040516103399190614e89565b60405180910390f35b34801561034d575f5ffd5b50610368600480360381019061036391906150f1565b610d0d565b005b348015610375575f5ffd5b5061037e610e11565b60405161038b919061513c565b60405180910390f35b34801561039f575f5ffd5b506103ba60048036038101906103b59190615155565b610e35565b005b3480156103c7575f5ffd5b506103e260048036038101906103dd9190615155565b610f3b565b6040516103ef919061523c565b60405180910390f35b348015610403575f5ffd5b5061040c61137f565b6040516104199190615275565b60405180910390f35b34801561042d575f5ffd5b5061044860048036038101906104439190615155565b6113a3565b604051610455919061523c565b60405180910390f35b60045f9054906101000a900463ffffffff1681565b5f5f9054906101000a900473ffffffffffffffffffffffffffffffffffffffff1673ffffffffffffffffffffffffffffffffffffffff16638da5cb5b6040518163ffffffff1660e01b8152600401602060405180830381865afa1580156104dc573d5f5f3e3d5ffd5b505050506040513d601f19601f8201168201806040525081019061050091906152a2565b73ffffffffffffffffffffffffffffffffffffffff163373ffffffffffffffffffffffffffffffffffffffff161461056d576040517f08c379a000000000000000000000000000000000000000000000000000000000815260040161056490615327565b60405180910390fd5b61057782826114ff565b5050565b5f5f9054906101000a900473ffffffffffffffffffffffffffffffffffffffff1673ffffffffffffffffffffffffffffffffffffffff16638da5cb5b6040518163ffffffff1660e01b8152600401602060405180830381865afa1580156105e4573d5f5f3e3d5ffd5b505050506040513d601f19601f8201168201806040525081019061060891906152a2565b73ffffffffffffffffffffffffffffffffffffffff163373ffffffffffffffffffffffffffffffffffffffff1614610675576040517f08c379a000000000000000000000000000000000000000000000000000000000815260040161066c90615327565b60405180910390fd5b8060045f6101000a81548163ffffffff021916908363ffffffff16021790555050565b7f000000000000000000000000000000000000000000000000000000000000000081565b6106c461150d565b5f73ffffffffffffffffffffffffffffffffffffffff168273ffffffffffffffffffffffffffffffffffffffff1603610729576040517fd92e233d00000000000000000000000000000000000000000000000000000000815260040160405180910390fd5b5f3490505f8585905003610769576040517fb4fa3fb300000000000000000000000000000000000000000000000000000000815260040160405180910390fd5b5f81036107a2576040517fb4fa3fb300000000000000000000000000000000000000000000000000000000815260040160405180910390fd5b60045f9054906101000a900463ffffffff1663ffffffff168263ffffffff1611156107f9576040517f334ee9a100000000000000000000000000000000000000000000000000000000815260040160405180910390fd5b5f610807868686868661155c565b90505f816080015190505f811480610820575061271081115b15610857576040517f124955fb00000000000000000000000000000000000000000000000000000000815260040160405180910390fd5b5f826060015190505f811115610892576108917f000000000000000000000000000000000000000000000000000000000000000082611858565b5b6108a8835f0151846020015185604001516118f3565b5f8360a0015190505f8111156108e4576108e37f00000000000000000000000000000000000000000000000000000000000000008883611a6c565b5b5f4790505f8111156108fb576108fa3382611ab5565b5b505050505050610909611bcc565b50505050565b5f5f5f9054906101000a900473ffffffffffffffffffffffffffffffffffffffff1673ffffffffffffffffffffffffffffffffffffffff166327262618836040518263ffffffff1660e01b81526004016109699190615395565b602060405180830381865afa158015610984573d5f5f3e3d5ffd5b505050506040513d601f19601f820116820180604052508101906109a891906152a2565b9050919050565b6109b761150d565b5f73ffffffffffffffffffffffffffffffffffffffff168373ffffffffffffffffffffffffffffffffffffffff1603610a1c576040517fd92e233d00000000000000000000000000000000000000000000000000000000815260040160405180910390fd5b5f8585905003610a58576040517fb4fa3fb300000000000000000000000000000000000000000000000000000000815260040160405180910390fd5b60045f9054906101000a900463ffffffff1663ffffffff168263ffffffff161115610aaf576040517f334ee9a100000000000000000000000000000000000000000000000000000000815260040160405180910390fd5b5f610abc86868585611bd6565b9050610ad4815f0151826020015183604001516118f3565b5f7f000000000000000000000000000000000000000000000000000000000000000073ffffffffffffffffffffffffffffffffffffffff166370a08231306040518263ffffffff1660e01b8152600401610b2e9190614e89565b602060405180830381865afa158015610b49573d5f5f3e3d5ffd5b505050506040513d601f19601f82011682018060405250810190610b6d91906153c9565b90505f8103610ba8576040517fabff335a00000000000000000000000000000000000000000000000000000000815260040160405180910390fd5b610bd37f00000000000000000000000000000000000000000000000000000000000000008287611f69565b5050610bdd611bcc565b5050505050565b60025481565b7f000000000000000000000000000000000000000000000000000000000000000081565b7f000000000000000000000000000000000000000000000000000000000000000081565b5f5f9054906101000a900473ffffffffffffffffffffffffffffffffffffffff1681565b7f000000000000000000000000000000000000000000000000000000000000000081565b5f5f5f9054906101000a900473ffffffffffffffffffffffffffffffffffffffff1673ffffffffffffffffffffffffffffffffffffffff16638da5cb5b6040518163ffffffff1660e01b8152600401602060405180830381865afa158015610ce4573d5f5f3e3d5ffd5b505050506040513d601f19601f82011682018060405250810190610d0891906152a2565b905090565b5f5f9054906101000a900473ffffffffffffffffffffffffffffffffffffffff1673ffffffffffffffffffffffffffffffffffffffff16638da5cb5b6040518163ffffffff1660e01b8152600401602060405180830381865afa158015610d76573d5f5f3e3d5ffd5b505050506040513d601f19601f82011682018060405250810190610d9a91906152a2565b73ffffffffffffffffffffffffffffffffffffffff163373ffffffffffffffffffffffffffffffffffffffff1614610e07576040517f08c379a0000000000000000000000000000000000000000000000000000000008152600401610dfe90615327565b60405180910390fd5b8060028190555050565b7f000000000000000000000000000000000000000000000000000000000000000081565b5f5f9054906101000a900473ffffffffffffffffffffffffffffffffffffffff1673ffffffffffffffffffffffffffffffffffffffff16638da5cb5b6040518163ffffffff1660e01b8152600401602060405180830381865afa158015610e9e573d5f5f3e3d5ffd5b505050506040513d601f19601f82011682018060405250810190610ec291906152a2565b73ffffffffffffffffffffffffffffffffffffffff163373ffffffffffffffffffffffffffffffffffffffff1614610f2f576040517f08c379a0000000000000000000000000000000000000000000000000000000008152600401610f2690615327565b60405180910390fd5b610f3881612074565b50565b610f436149e2565b5f60015f8473ffffffffffffffffffffffffffffffffffffffff1673ffffffffffffffffffffffffffffffffffffffff1681526020019081526020015f2090505f73ffffffffffffffffffffffffffffffffffffffff16815f015f9054906101000a900473ffffffffffffffffffffffffffffffffffffffff1673ffffffffffffffffffffffffffffffffffffffff16036110e057610fe183612225565b91508160015f8573ffffffffffffffffffffffffffffffffffffffff1673ffffffffffffffffffffffffffffffffffffffff1681526020019081526020015f205f820151815f015f6101000a81548173ffffffffffffffffffffffffffffffffffffffff021916908373ffffffffffffffffffffffffffffffffffffffff1602179055506020820151815f0160146101000a81548162ffffff021916908362ffffff1602179055506040820151815f0160176101000a81548160ff021916908360ff1602179055506060820151815f0160186101000a81548167ffffffffffffffff021916908367ffffffffffffffff1602179055509050505061137a565b600254815f0160189054906101000a900467ffffffffffffffff1667ffffffffffffffff16426111109190615421565b11156112a7575f61112084612225565b9050815f015f9054906101000a900473ffffffffffffffffffffffffffffffffffffffff1673ffffffffffffffffffffffffffffffffffffffff16815f015173ffffffffffffffffffffffffffffffffffffffff161461127b578060015f8673ffffffffffffffffffffffffffffffffffffffff1673ffffffffffffffffffffffffffffffffffffffff1681526020019081526020015f205f820151815f015f6101000a81548173ffffffffffffffffffffffffffffffffffffffff021916908373ffffffffffffffffffffffffffffffffffffffff1602179055506020820151815f0160146101000a81548162ffffff021916908362ffffff1602179055506040820151815f0160176101000a81548160ff021916908360ff1602179055506060820151815f0160186101000a81548167ffffffffffffffff021916908367ffffffffffffffff160217905550905050809250505061137a565b42825f0160186101000a81548167ffffffffffffffff021916908367ffffffffffffffff160217905550505b806040518060800160405290815f82015f9054906101000a900473ffffffffffffffffffffffffffffffffffffffff1673ffffffffffffffffffffffffffffffffffffffff1673ffffffffffffffffffffffffffffffffffffffff1681526020015f820160149054906101000a900462ffffff1662ffffff1662ffffff1681526020015f820160179054906101000a900460ff1660ff1660ff1681526020015f820160189054906101000a900467ffffffffffffffff1667ffffffffffffffff1667ffffffffffffffff16815250509150505b919050565b7f000000000000000000000000000000000000000000000000000000000000000081565b6113ab6149e2565b60015f8373ffffffffffffffffffffffffffffffffffffffff1673ffffffffffffffffffffffffffffffffffffffff1681526020019081526020015f206040518060800160405290815f82015f9054906101000a900473ffffffffffffffffffffffffffffffffffffffff1673ffffffffffffffffffffffffffffffffffffffff1673ffffffffffffffffffffffffffffffffffffffff1681526020015f820160149054906101000a900462ffffff1662ffffff1662ffffff1681526020015f820160179054906101000a900460ff1660ff1660ff1681526020015f820160189054906101000a900467ffffffffffffffff1667ffffffffffffffff1667ffffffffffffffff168152505090505f73ffffffffffffffffffffffffffffffffffffffff16815f015173ffffffffffffffffffffffffffffffffffffffff16036114fa576114f782612225565b90505b919050565b61150982826127d5565b5050565b600260035403611552576040517f08c379a00000000000000000000000000000000000000000000000000000000081526004016115499061549e565b60405180910390fd5b6002600381905550565b611564614a2e565b5f7f000000000000000000000000000000000000000000000000000000000000000090505f8787905090508067ffffffffffffffff8111156115a9576115a8614d0f565b5b6040519080825280602002602001820160405280156115dc57816020015b60608152602001906001900390816115c75790505b5083602001819052508067ffffffffffffffff8111156115ff576115fe614d0f565b5b6040519080825280601f01601f1916602001820160405280156116315781602001600182028036833780820191505090505b50835f01819052505f5f90505b8181101561184c575f89898381811061165a576116596154bc565b5b9050604002015f0160208101906116719190615155565b90505f73ffffffffffffffffffffffffffffffffffffffff168173ffffffffffffffffffffffffffffffffffffffff16036116d8576040517f7401d93100000000000000000000000000000000000000000000000000000000815260040160405180910390fd5b5f8a8a848181106116ec576116eb6154bc565b5b90506040020160200160208101906117049190615520565b61ffff169050808660800181815101915081815250505f8103611728575050611841565b5f6127108289028161173d5761173c61554b565b5b0490505f810361174f57505050611841565b808760600181815101915081815250508573ffffffffffffffffffffffffffffffffffffffff168373ffffffffffffffffffffffffffffffffffffffff16036117aa57808760a0018181510191508181525050505050611841565b5f5f6117b885848e8e6128ac565b9150915081895f01518a60400151815181106117d7576117d66154bc565b5b60200101907effffffffffffffffffffffffffffffffffffffffffffffffffffffffffffff191690815f1a9053508089602001518a6040015181518110611821576118206154bc565b5b602002602001018190525088604001805160010190818152505050505050505b80600101905061163e565b50505095945050505050565b80471015611892576040517f6a12f10400000000000000000000000000000000000000000000000000000000815260040160405180910390fd5b8173ffffffffffffffffffffffffffffffffffffffff1663d0e30db0826040518263ffffffff1660e01b81526004015f604051808303818588803b1580156118d8575f5ffd5b505af11580156118ea573d5f5f3e3d5ffd5b50505050505050565b5f810361192c576040517fabff335a00000000000000000000000000000000000000000000000000000000815260040160405180910390fd5b808251146119dc575f8167ffffffffffffffff81111561194f5761194e614d0f565b5b60405190808252806020026020018201604052801561198257816020015b606081526020019060019003908161196d5790505b5090505f5f90505b828110156119d6578381815181106119a5576119a46154bc565b5b60200260200101518282815181106119c0576119bf6154bc565b5b602002602001018190525080600101905061198a565b50809250505b8083527f000000000000000000000000000000000000000000000000000000000000000073ffffffffffffffffffffffffffffffffffffffff166324856bc384846040518363ffffffff1660e01b8152600401611a3a9291906156cd565b5f604051808303815f87803b158015611a51575f5ffd5b505af1158015611a63573d5f5f3e3d5ffd5b50505050505050565b5f8103611aa5576040517f1f2a200500000000000000000000000000000000000000000000000000000000815260040160405180910390fd5b611ab0838383612a39565b505050565b5f8103611aee576040517f1f2a200500000000000000000000000000000000000000000000000000000000815260040160405180910390fd5b80471015611b28576040517f6a12f10400000000000000000000000000000000000000000000000000000000815260040160405180910390fd5b5f8273ffffffffffffffffffffffffffffffffffffffff1682604051611b4d9061572f565b5f6040518083038185875af1925050503d805f8114611b87576040519150601f19603f3d011682016040523d82523d5f602084013e611b8c565b606091505b5050905080611bc7576040517fcef4eed700000000000000000000000000000000000000000000000000000000815260040160405180910390fd5b505050565b6001600381905550565b611bde614a60565b5f7f000000000000000000000000000000000000000000000000000000000000000090505f8686905090508067ffffffffffffffff811115611c2357611c22614d0f565b5b604051908082528060200260200182016040528015611c5657816020015b6060815260200190600190039081611c415790505b5083602001819052508067ffffffffffffffff811115611c7957611c78614d0f565b5b6040519080825280601f01601f191660200182016040528015611cab5781602001600182028036833780820191505090505b50835f01819052505f5f90505b81811015611f5e575f888883818110611cd457611cd36154bc565b5b9050604002015f016020810190611ceb9190615155565b90505f898984818110611d0157611d006154bc565b5b9050604002016020013590505f8103611d1b575050611f53565b5f73ffffffffffffffffffffffffffffffffffffffff168273ffffffffffffffffffffffffffffffffffffffff1603611d80576040517f7401d93100000000000000000000000000000000000000000000000000000000815260040160405180910390fd5b5f8573ffffffffffffffffffffffffffffffffffffffff168373ffffffffffffffffffffffffffffffffffffffff161490505f8815611e87575f8473ffffffffffffffffffffffffffffffffffffffff166370a08231306040518263ffffffff1660e01b8152600401611df39190614e89565b602060405180830381865afa158015611e0e573d5f5f3e3d5ffd5b505050506040513d601f19601f82011682018060405250810190611e3291906153c9565b905083811015611e6e576040517f06998f5b00000000000000000000000000000000000000000000000000000000815260040160405180910390fd5b8215611e7e575050505050611f53565b83915050611ebb565b5f611e93858533612b88565b90508215611ea5575050505050611f53565b8091505f8203611eb9575050505050611f53565b505b5f5f611ec98684308f612dc3565b91509150818a5f01518b6040015181518110611ee857611ee76154bc565b5b60200101907effffffffffffffffffffffffffffffffffffffffffffffffffffffffffffff191690815f1a905350808a602001518b6040015181518110611f3257611f316154bc565b5b60200260200101819052508960400180516001019081815250505050505050505b806001019050611cb8565b505050949350505050565b8273ffffffffffffffffffffffffffffffffffffffff16632e1a7d4d836040518263ffffffff1660e01b8152600401611fa29190615003565b5f604051808303815f87803b158015611fb9575f5ffd5b505af1158015611fcb573d5f5f3e3d5ffd5b505050505f8173ffffffffffffffffffffffffffffffffffffffff1683604051611ff49061572f565b5f6040518083038185875af1925050503d805f811461202e576040519150601f19603f3d011682016040523d82523d5f602084013e612033565b606091505b505090508061206e576040517fb2f8aaaa00000000000000000000000000000000000000000000000000000000815260040160405180910390fd5b50505050565b5f73ffffffffffffffffffffffffffffffffffffffff168173ffffffffffffffffffffffffffffffffffffffff16036120e2576040517f08c379a00000000000000000000000000000000000000000000000000000000081526004016120d99061578d565b60405180910390fd5b5f8173ffffffffffffffffffffffffffffffffffffffff163b1161213b576040517f08c379a0000000000000000000000000000000000000000000000000000000008152600401612132906157f5565b60405180910390fd5b8073ffffffffffffffffffffffffffffffffffffffff16638da5cb5b6040518163ffffffff1660e01b8152600401602060405180830381865afa9250505080156121a357506040513d601f19601f820116820180604052508101906121a091906152a2565b60015b6121e2576040517f08c379a00000000000000000000000000000000000000000000000000000000081526004016121d990615883565b60405180910390fd5b815f5f6101000a81548173ffffffffffffffffffffffffffffffffffffffff021916908373ffffffffffffffffffffffffffffffffffffffff1602179055505050565b61222d6149e2565b5f73ffffffffffffffffffffffffffffffffffffffff168273ffffffffffffffffffffffffffffffffffffffff1603612292576040517fd92e233d00000000000000000000000000000000000000000000000000000000815260040160405180910390fd5b7f000000000000000000000000000000000000000000000000000000000000000073ffffffffffffffffffffffffffffffffffffffff168273ffffffffffffffffffffffffffffffffffffffff1603612317576040517f871c78af00000000000000000000000000000000000000000000000000000000815260040160405180910390fd5b5f7f000000000000000000000000000000000000000000000000000000000000000090505f8190505f5f7f000000000000000000000000000000000000000000000000000000000000000073ffffffffffffffffffffffffffffffffffffffff1663e6a4390587866040518363ffffffff1660e01b815260040161239c9291906158a1565b602060405180830381865afa1580156123b7573d5f5f3e3d5ffd5b505050506040513d601f19601f820116820180604052508101906123db91906152a2565b90505f73ffffffffffffffffffffffffffffffffffffffff168173ffffffffffffffffffffffffffffffffffffffff16146125c2575f5f8273ffffffffffffffffffffffffffffffffffffffff16630902f1ac6040518163ffffffff1660e01b8152600401606060405180830381865afa15801561245b573d5f5f3e3d5ffd5b505050506040513d601f19601f8201168201806040525081019061247f919061591f565b50915091505f8373ffffffffffffffffffffffffffffffffffffffff16630dfe16816040518163ffffffff1660e01b8152600401602060405180830381865afa1580156124ce573d5f5f3e3d5ffd5b505050506040513d601f19601f820116820180604052508101906124f291906152a2565b90505f8773ffffffffffffffffffffffffffffffffffffffff168273ffffffffffffffffffffffffffffffffffffffff161461253e57826dffffffffffffffffffffffffffff16612550565b836dffffffffffffffffffffffffffff165b9050858111156125bd575f896040019060ff16908160ff168152505084895f019073ffffffffffffffffffffffffffffffffffffffff16908173ffffffffffffffffffffffffffffffffffffffff16815250505f896020019062ffffff16908162ffffff16815250508095505b505050505b5f5b60028110156127ab575f5f82146125dd576127106125e1565b610bb85b90505f7f000000000000000000000000000000000000000000000000000000000000000073ffffffffffffffffffffffffffffffffffffffff16631698ee828a89856040518463ffffffff1660e01b81526004016126419392919061597e565b602060405180830381865afa15801561265c573d5f5f3e3d5ffd5b505050506040513d601f19601f8201168201806040525081019061268091906152a2565b90505f73ffffffffffffffffffffffffffffffffffffffff168173ffffffffffffffffffffffffffffffffffffffff161461279e575f8673ffffffffffffffffffffffffffffffffffffffff166370a08231836040518263ffffffff1660e01b81526004016126ef9190614e89565b602060405180830381865afa15801561270a573d5f5f3e3d5ffd5b505050506040513d601f19601f8201168201806040525081019061272e91906153c9565b90508581111561279c576001896040019060ff16908160ff168152505081895f019073ffffffffffffffffffffffffffffffffffffffff16908173ffffffffffffffffffffffffffffffffffffffff168152505082896020019062ffffff16908162ffffff16815250508095505b505b82600101925050506125c4565b5042856060019067ffffffffffffffff16908167ffffffffffffffff168152505050505050919050565b5f73ffffffffffffffffffffffffffffffffffffffff168273ffffffffffffffffffffffffffffffffffffffff1603612817576128128147611ab5565b6128a8565b5f8273ffffffffffffffffffffffffffffffffffffffff166370a08231306040518263ffffffff1660e01b81526004016128519190614e89565b602060405180830381865afa15801561286c573d5f5f3e3d5ffd5b505050506040513d601f19601f8201168201806040525081019061289091906153c9565b90505f8111156128a6576128a5838383612a39565b5b505b5050565b5f60605f85036128d2575f60f81b60405180602001604052805f81525091509150612a30565b5f6128dc87610f3b565b90505f73ffffffffffffffffffffffffffffffffffffffff16815f015173ffffffffffffffffffffffffffffffffffffffff1603612946576040517f791c2fed00000000000000000000000000000000000000000000000000000000815260040160405180910390fd5b5f6001826040015160ff16036129c8576129877f00000000000000000000000000000000000000000000000000000000000000008984602001518a8961300c565b90506129bb7f00000000000000000000000000000000000000000000000000000000000000008984602001518a858b6134ee565b92505f60f81b9350612a2d565b6129f47f00000000000000000000000000000000000000000000000000000000000000008989886135c4565b9050612a237f00000000000000000000000000000000000000000000000000000000000000008989848a61391c565b9250600860f81b93505b50505b94509492505050565b5f5f8473ffffffffffffffffffffffffffffffffffffffff1663a9059cbb60e01b8585604051602401612a6d9291906159b3565b604051602081830303815290604052907bffffffffffffffffffffffffffffffffffffffffffffffffffffffff19166020820180517bffffffffffffffffffffffffffffffffffffffffffffffffffffffff8381831617835250505050604051612ad79190615a0a565b5f604051808303815f865af19150503d805f8114612b10576040519150601f19603f3d011682016040523d82523d5f602084013e612b15565b606091505b5091509150818015612b4257505f81511480612b41575080806020019051810190612b409190615a34565b5b5b612b81576040517f08c379a0000000000000000000000000000000000000000000000000000000008152600401612b7890615aa9565b60405180910390fd5b5050505050565b5f5f8303612bc2576040517f1f2a200500000000000000000000000000000000000000000000000000000000815260040160405180910390fd5b5f8473ffffffffffffffffffffffffffffffffffffffff1663dd62ed3e84306040518363ffffffff1660e01b8152600401612bfe9291906158a1565b602060405180830381865afa158015612c19573d5f5f3e3d5ffd5b505050506040513d601f19601f82011682018060405250810190612c3d91906153c9565b905083811015612c79576040517fbac9b5e800000000000000000000000000000000000000000000000000000000815260040160405180910390fd5b5f8573ffffffffffffffffffffffffffffffffffffffff166370a08231306040518263ffffffff1660e01b8152600401612cb39190614e89565b602060405180830381865afa158015612cce573d5f5f3e3d5ffd5b505050506040513d601f19601f82011682018060405250810190612cf291906153c9565b9050612d0086853088613ab4565b5f8673ffffffffffffffffffffffffffffffffffffffff166370a08231306040518263ffffffff1660e01b8152600401612d3a9190614e89565b602060405180830381865afa158015612d55573d5f5f3e3d5ffd5b505050506040513d601f19601f82011682018060405250810190612d7991906153c9565b905081810393505f8403612db9576040517fb5c74a2700000000000000000000000000000000000000000000000000000000815260040160405180910390fd5b5050509392505050565b5f60605f8503612de9575f60f81b60405180602001604052805f81525091509150613003565b5f73ffffffffffffffffffffffffffffffffffffffff168673ffffffffffffffffffffffffffffffffffffffff161480612e6e57507f000000000000000000000000000000000000000000000000000000000000000073ffffffffffffffffffffffffffffffffffffffff168673ffffffffffffffffffffffffffffffffffffffff16145b15612ea5576040517f7401d93100000000000000000000000000000000000000000000000000000000815260040160405180910390fd5b5f612eaf87610f3b565b90505f73ffffffffffffffffffffffffffffffffffffffff16815f015173ffffffffffffffffffffffffffffffffffffffff1603612f19576040517f791c2fed00000000000000000000000000000000000000000000000000000000815260040160405180910390fd5b5f6001826040015160ff1603612f9b57612f5a887f000000000000000000000000000000000000000000000000000000000000000084602001518a8961300c565b9050612f8e887f000000000000000000000000000000000000000000000000000000000000000084602001518a858b6134ee565b92505f60f81b9350613000565b612fc7887f000000000000000000000000000000000000000000000000000000000000000089886135c4565b9050612ff6887f000000000000000000000000000000000000000000000000000000000000000089848a61391c565b9250600860f81b93505b50505b94509492505050565b5f5f830361301c575f90506134e5565b5f73ffffffffffffffffffffffffffffffffffffffff168673ffffffffffffffffffffffffffffffffffffffff16148061308157505f73ffffffffffffffffffffffffffffffffffffffff168573ffffffffffffffffffffffffffffffffffffffff16145b156130b8576040517fd92e233d00000000000000000000000000000000000000000000000000000000815260040160405180910390fd5b6127108263ffffffff1611156130fa576040517f124955fb00000000000000000000000000000000000000000000000000000000815260040160405180910390fd5b5f7f000000000000000000000000000000000000000000000000000000000000000073ffffffffffffffffffffffffffffffffffffffff16631698ee828888886040518463ffffffff1660e01b81526004016131589392919061597e565b602060405180830381865afa158015613173573d5f5f3e3d5ffd5b505050506040513d601f19601f8201168201806040525081019061319791906152a2565b90505f73ffffffffffffffffffffffffffffffffffffffff168173ffffffffffffffffffffffffffffffffffffffff16036131fe576040517f791c2fed00000000000000000000000000000000000000000000000000000000815260040160405180910390fd5b5f620f42408662ffffff16620f42406132179190615421565b866132229190615ac7565b61322c9190615b08565b90505f8103613267576040517f6eed12ff00000000000000000000000000000000000000000000000000000000815260040160405180910390fd5b5f6fffffffffffffffffffffffffffffffff801682116132875781613299565b6fffffffffffffffffffffffffffffffff5b90505f600f90505f5f600267ffffffffffffffff8111156132bd576132bc614d0f565b5b6040519080825280602002602001820160405280156132eb5781602001602082028036833780820191505090505b50905082815f81518110613302576133016154bc565b5b602002602001019063ffffffff16908163ffffffff16815250505f81600181518110613331576133306154bc565b5b602002602001019063ffffffff16908163ffffffff16815250508573ffffffffffffffffffffffffffffffffffffffff1663883bdbfd826040518263ffffffff1660e01b81526004016133849190615bef565b5f60405180830381865afa9250505080156133c157506040513d5f823e3d601f19601f820116820180604052508101906133be9190615def565b60015b613444575f8673ffffffffffffffffffffffffffffffffffffffff16633850c7bd6040518163ffffffff1660e01b815260040160e060405180830381865afa15801561340f573d5f5f3e3d5ffd5b505050506040513d601f19601f820116820180604052508101906134339190615ed9565b505050505091505080925050613489565b613484825f8151811061345a576134596154bc565b5b602002602001015183600181518110613476576134756154bc565b5b602002602001015187613c06565b935050505b505f61349782858e8e613c25565b90505f81036134d2576040517f6eed12ff00000000000000000000000000000000000000000000000000000000815260040160405180910390fd5b6134dc8189613e2e565b96505050505050505b95945050505050565b606061351b877f000000000000000000000000000000000000000000000000000000000000000086613ea5565b6135677f0000000000000000000000000000000000000000000000000000000000000000887f000000000000000000000000000000000000000000000000000000000000000087613f6f565b5f87868860405160200161357d93929190615fef565b60405160208183030381529060405290508285858360016040516020016135a895949392919061603a565b6040516020818303038152906040529150509695505050505050565b5f5f83036135d4575f9050613914565b5f73ffffffffffffffffffffffffffffffffffffffff168573ffffffffffffffffffffffffffffffffffffffff16148061363957505f73ffffffffffffffffffffffffffffffffffffffff168473ffffffffffffffffffffffffffffffffffffffff16145b15613670576040517fd92e233d00000000000000000000000000000000000000000000000000000000815260040160405180910390fd5b6127108263ffffffff1611156136b2576040517f124955fb00000000000000000000000000000000000000000000000000000000815260040160405180910390fd5b5f600267ffffffffffffffff8111156136ce576136cd614d0f565b5b6040519080825280602002602001820160405280156136fc5781602001602082028036833780820191505090505b50905085815f81518110613713576137126154bc565b5b602002602001019073ffffffffffffffffffffffffffffffffffffffff16908173ffffffffffffffffffffffffffffffffffffffff16815250508481600181518110613762576137616154bc565b5b602002602001019073ffffffffffffffffffffffffffffffffffffffff16908173ffffffffffffffffffffffffffffffffffffffff168152505060607f000000000000000000000000000000000000000000000000000000000000000073ffffffffffffffffffffffffffffffffffffffff1663d06ca61f86846040518363ffffffff1660e01b81526004016137f992919061613a565b5f60405180830381865afa92505050801561383657506040513d5f823e3d601f19601f820116820180604052508101906138339190616228565b60015b61386c576040517f6eed12ff00000000000000000000000000000000000000000000000000000000815260040160405180910390fd5b809150506002815110156138ac576040517f6eed12ff00000000000000000000000000000000000000000000000000000000815260040160405180910390fd5b5f816001815181106138c1576138c06154bc565b5b602002602001015190505f8103613904576040517f6eed12ff00000000000000000000000000000000000000000000000000000000815260040160405180910390fd5b61390e8186613e2e565b93505050505b949350505050565b6060613949867f000000000000000000000000000000000000000000000000000000000000000086613ea5565b6139957f0000000000000000000000000000000000000000000000000000000000000000877f000000000000000000000000000000000000000000000000000000000000000087613f6f565b5f600267ffffffffffffffff8111156139b1576139b0614d0f565b5b6040519080825280602002602001820160405280156139df5781602001602082028036833780820191505090505b50905086815f815181106139f6576139f56154bc565b5b602002602001019073ffffffffffffffffffffffffffffffffffffffff16908173ffffffffffffffffffffffffffffffffffffffff16815250508581600181518110613a4557613a446154bc565b5b602002602001019073ffffffffffffffffffffffffffffffffffffffff16908173ffffffffffffffffffffffffffffffffffffffff1681525050828585836001604051602001613a9995949392919061626f565b60405160208183030381529060405291505095945050505050565b5f5f8573ffffffffffffffffffffffffffffffffffffffff166323b872dd60e01b868686604051602401613aea939291906162c7565b604051602081830303815290604052907bffffffffffffffffffffffffffffffffffffffffffffffffffffffff19166020820180517bffffffffffffffffffffffffffffffffffffffffffffffffffffffff8381831617835250505050604051613b549190615a0a565b5f604051808303815f865af19150503d805f8114613b8d576040519150601f19603f3d011682016040523d82523d5f602084013e613b92565b606091505b5091509150818015613bbf57505f81511480613bbe575080806020019051810190613bbd9190615a34565b5b5b613bfe576040517f08c379a0000000000000000000000000000000000000000000000000000000008152600401613bf590616346565b60405180910390fd5b505050505050565b5f613c1c8484613c169190616364565b83614184565b90509392505050565b5f5f613c308661421f565b90506fffffffffffffffffffffffffffffffff80168173ffffffffffffffffffffffffffffffffffffffff1611613d49575f8173ffffffffffffffffffffffffffffffffffffffff168273ffffffffffffffffffffffffffffffffffffffff16613c9a9190615ac7565b90508373ffffffffffffffffffffffffffffffffffffffff168573ffffffffffffffffffffffffffffffffffffffff1610613d0a57613d057801000000000000000000000000000000000000000000000000876fffffffffffffffffffffffffffffffff16836146d3565b613d41565b613d4081876fffffffffffffffffffffffffffffffff1678010000000000000000000000000000000000000000000000006146d3565b5b925050613e25565b5f613d8a8273ffffffffffffffffffffffffffffffffffffffff168373ffffffffffffffffffffffffffffffffffffffff16680100000000000000006146d3565b90508373ffffffffffffffffffffffffffffffffffffffff168573ffffffffffffffffffffffffffffffffffffffff1610613df257613ded700100000000000000000000000000000000876fffffffffffffffffffffffffffffffff16836146d3565b613e21565b613e2081876fffffffffffffffffffffffffffffffff167001000000000000000000000000000000006146d3565b5b9250505b50949350505050565b5f6127108263ffffffff161115613e71576040517f124955fb00000000000000000000000000000000000000000000000000000000815260040160405180910390fd5b6127108263ffffffff16612710613e889190615421565b84613e939190615ac7565b613e9d9190615b08565b905092915050565b5f8373ffffffffffffffffffffffffffffffffffffffff1663dd62ed3e30856040518363ffffffff1660e01b8152600401613ee19291906158a1565b602060405180830381865afa158015613efc573d5f5f3e3d5ffd5b505050506040513d601f19601f82011682018060405250810190613f2091906153c9565b905081811015613f69575f8114613f3d57613f3c84845f614893565b5b613f6884847fffffffffffffffffffffffffffffffffffffffffffffffffffffffffffffffff614893565b5b50505050565b5f73ffffffffffffffffffffffffffffffffffffffff168373ffffffffffffffffffffffffffffffffffffffff161480613fd457505f73ffffffffffffffffffffffffffffffffffffffff168273ffffffffffffffffffffffffffffffffffffffff16145b1561400b576040517f7401d93100000000000000000000000000000000000000000000000000000000815260040160405180910390fd5b5f5f8573ffffffffffffffffffffffffffffffffffffffff1663927da1053087876040518463ffffffff1660e01b815260040161404a939291906163c2565b606060405180830381865afa158015614065573d5f5f3e3d5ffd5b505050506040513d601f19601f820116820180604052508101906140899190616432565b50915091505f8373ffffffffffffffffffffffffffffffffffffffff168373ffffffffffffffffffffffffffffffffffffffff16101590505f5f8365ffffffffffff16141580156140e25750428365ffffffffffff1611155b90508115806140ee5750805b1561417a578773ffffffffffffffffffffffffffffffffffffffff166387517c45888873ffffffffffffffffffffffffffffffffffffffff65ffffffffffff6040518563ffffffff1660e01b815260040161414c94939291906164a0565b5f604051808303815f87803b158015614163575f5ffd5b505af1158015614175573d5f5f3e3d5ffd5b505050505b5050505050505050565b5f5f8263ffffffff16036141cd576040517f08c379a00000000000000000000000000000000000000000000000000000000081526004016141c49061652d565b60405180910390fd5b5f8260030b90505f81856141e1919061654b565b90505f82866141f091906165b3565b90508193505f8660060b12801561420a57505f8160060b14155b15614216576001840393505b50505092915050565b5f5f5f8360020b12614234578260020b614242565b8260020b614241906165ec565b5b90507ffffffffffffffffffffffffffffffffffffffffffffffffffffffffffff2761861426e90616632565b62ffffff168111156142b5576040517f08c379a00000000000000000000000000000000000000000000000000000000081526004016142ac906166c2565b60405180910390fd5b5f5f60018316036142d7577001000000000000000000000000000000006142e9565b6ffffcb933bd6fad37aa2d162d1a5940015b70ffffffffffffffffffffffffffffffffff1690505f600283161461432b5760806ffff97272373d413259a46990580e213a826143269190615ac7565b901c90505b5f60048316146143585760806ffff2e50f5f656932ef12357cf3c7fdcc826143539190615ac7565b901c90505b5f60088316146143855760806fffe5caca7e10e4e61c3624eaa0941cd0826143809190615ac7565b901c90505b5f60108316146143b25760806fffcb9843d60f6159c9db58835c926644826143ad9190615ac7565b901c90505b5f60208316146143df5760806fff973b41fa98c081472e6896dfb254c0826143da9190615ac7565b901c90505b5f604083161461440c5760806fff2ea16466c96a3843ec78b326b52861826144079190615ac7565b901c90505b5f60808316146144395760806ffe5dee046a99a2a811c461f1969c3053826144349190615ac7565b901c90505b5f6101008316146144675760806ffcbe86c7900a88aedcffc83b479aa3a4826144629190615ac7565b901c90505b5f6102008316146144955760806ff987a7253ac413176f2b074cf7815e54826144909190615ac7565b901c90505b5f6104008316146144c35760806ff3392b0822b70005940c7a398e4b70f3826144be9190615ac7565b901c90505b5f6108008316146144f15760806fe7159475a2c29b7443b29c7fa6e889d9826144ec9190615ac7565b901c90505b5f61100083161461451f5760806fd097f3bdfd2022b8845ad8f792aa58258261451a9190615ac7565b901c90505b5f61200083161461454d5760806fa9f746462d870fdf8a65dc1f90e061e5826145489190615ac7565b901c90505b5f61400083161461457b5760806f70d869a156d2a1b890bb3df62baf32f7826145769190615ac7565b901c90505b5f6180008316146145a95760806f31be135f97d08fd981231505542fcfa6826145a49190615ac7565b901c90505b5f620100008316146145d85760806f09aa508b5b7a84e1c677de54f3e99bc9826145d39190615ac7565b901c90505b5f620200008316146146065760806e5d6af8dedb81196699c329225ee604826146019190615ac7565b901c90505b5f620400008316146146335760806d2216e584f5fa1ea926041bedfe988261462e9190615ac7565b901c90505b5f6208000083161461465e5760806b048a170391f7dc42444e8fa2826146599190615ac7565b901c90505b5f8460020b131561469857807fffffffffffffffffffffffffffffffffffffffffffffffffffffffffffffffff6146959190615b08565b90505b5f640100000000826146aa91906166e0565b146146b65760016146b8565b5f5b60ff16602082901c6146ca9190616710565b92505050919050565b5f5f5f5f198587098587029250828110838203039150505f8103614708575f84116146fc575f5ffd5b8382049250505061488c565b808411614713575f5ffd5b5f8486880990508281118203915080830392505f6001867fffffffffffffffffffffffffffffffffffffffffffffffffffffffffffffffff6147559190615421565b61475f9190616710565b8616905080860495508084049350600181825f030401905080836147839190615ac7565b841793505f60028760036147979190615ac7565b18905080876147a69190615ac7565b60026147b29190615421565b816147bd9190615ac7565b905080876147cb9190615ac7565b60026147d79190615421565b816147e29190615ac7565b905080876147f09190615ac7565b60026147fc9190615421565b816148079190615ac7565b905080876148159190615ac7565b60026148219190615421565b8161482c9190615ac7565b9050808761483a9190615ac7565b60026148469190615421565b816148519190615ac7565b9050808761485f9190615ac7565b600261486b9190615421565b816148769190615ac7565b905080856148849190615ac7565b955050505050505b9392505050565b5f5f8473ffffffffffffffffffffffffffffffffffffffff1663095ea7b360e01b85856040516024016148c79291906159b3565b604051602081830303815290604052907bffffffffffffffffffffffffffffffffffffffffffffffffffffffff19166020820180517bffffffffffffffffffffffffffffffffffffffffffffffffffffffff83818316178352505050506040516149319190615a0a565b5f604051808303815f865af19150503d805f811461496a576040519150601f19603f3d011682016040523d82523d5f602084013e61496f565b606091505b509150915081801561499c57505f8151148061499b57508080602001905181019061499a9190615a34565b5b5b6149db576040517f08c379a00000000000000000000000000000000000000000000000000000000081526004016149d29061678d565b60405180910390fd5b5050505050565b60405180608001604052805f73ffffffffffffffffffffffffffffffffffffffff1681526020015f62ffffff1681526020015f60ff1681526020015f67ffffffffffffffff1681525090565b6040518060c0016040528060608152602001606081526020015f81526020015f81526020015f81526020015f81525090565b604051806060016040528060608152602001606081526020015f81525090565b5f63ffffffff82169050919050565b614a9881614a80565b82525050565b5f602082019050614ab15f830184614a8f565b92915050565b5f604051905090565b5f5ffd5b5f5ffd5b5f73ffffffffffffffffffffffffffffffffffffffff82169050919050565b5f614af182614ac8565b9050919050565b614b0181614ae7565b8114614b0b575f5ffd5b50565b5f81359050614b1c81614af8565b92915050565b5f5f60408385031215614b3857614b37614ac0565b5b5f614b4585828601614b0e565b9250506020614b5685828601614b0e565b9150509250929050565b614b6981614a80565b8114614b73575f5ffd5b50565b5f81359050614b8481614b60565b92915050565b5f60208284031215614b9f57614b9e614ac0565b5b5f614bac84828501614b76565b91505092915050565b5f819050919050565b5f614bd8614bd3614bce84614ac8565b614bb5565b614ac8565b9050919050565b5f614be982614bbe565b9050919050565b5f614bfa82614bdf565b9050919050565b614c0a81614bf0565b82525050565b5f602082019050614c235f830184614c01565b92915050565b5f5ffd5b5f5ffd5b5f5ffd5b5f5f83601f840112614c4a57614c49614c29565b5b8235905067ffffffffffffffff811115614c6757614c66614c2d565b5b602083019150836040820283011115614c8357614c82614c31565b5b9250929050565b5f5f5f5f60608587031215614ca257614ca1614ac0565b5b5f85013567ffffffffffffffff811115614cbf57614cbe614ac4565b5b614ccb87828801614c35565b94509450506020614cde87828801614b0e565b9250506040614cef87828801614b76565b91505092959194509250565b5f5ffd5b5f601f19601f8301169050919050565b7f4e487b71000000000000000000000000000000000000000000000000000000005f52604160045260245ffd5b614d4582614cff565b810181811067ffffffffffffffff82111715614d6457614d63614d0f565b5b80604052505050565b5f614d76614ab7565b9050614d828282614d3c565b919050565b5f67ffffffffffffffff821115614da157614da0614d0f565b5b614daa82614cff565b9050602081019050919050565b828183375f83830152505050565b5f614dd7614dd284614d87565b614d6d565b905082815260208101848484011115614df357614df2614cfb565b5b614dfe848285614db7565b509392505050565b5f82601f830112614e1a57614e19614c29565b5b8135614e2a848260208601614dc5565b91505092915050565b5f60208284031215614e4857614e47614ac0565b5b5f82013567ffffffffffffffff811115614e6557614e64614ac4565b5b614e7184828501614e06565b91505092915050565b614e8381614ae7565b82525050565b5f602082019050614e9c5f830184614e7a565b92915050565b5f5f83601f840112614eb757614eb6614c29565b5b8235905067ffffffffffffffff811115614ed457614ed3614c2d565b5b602083019150836040820283011115614ef057614eef614c31565b5b9250929050565b5f614f0182614ac8565b9050919050565b614f1181614ef7565b8114614f1b575f5ffd5b50565b5f81359050614f2c81614f08565b92915050565b5f8115159050919050565b614f4681614f32565b8114614f50575f5ffd5b50565b5f81359050614f6181614f3d565b92915050565b5f5f5f5f5f60808688031215614f8057614f7f614ac0565b5b5f86013567ffffffffffffffff811115614f9d57614f9c614ac4565b5b614fa988828901614ea2565b95509550506020614fbc88828901614f1e565b9350506040614fcd88828901614b76565b9250506060614fde88828901614f53565b9150509295509295909350565b5f819050919050565b614ffd81614feb565b82525050565b5f6020820190506150165f830184614ff4565b92915050565b5f61502682614bdf565b9050919050565b6150368161501c565b82525050565b5f60208201905061504f5f83018461502d565b92915050565b5f61505f82614bdf565b9050919050565b61506f81615055565b82525050565b5f6020820190506150885f830184615066565b92915050565b5f61509882614bdf565b9050919050565b6150a88161508e565b82525050565b5f6020820190506150c15f83018461509f565b92915050565b6150d081614feb565b81146150da575f5ffd5b50565b5f813590506150eb816150c7565b92915050565b5f6020828403121561510657615105614ac0565b5b5f615113848285016150dd565b91505092915050565b5f61512682614bdf565b9050919050565b6151368161511c565b82525050565b5f60208201905061514f5f83018461512d565b92915050565b5f6020828403121561516a57615169614ac0565b5b5f61517784828501614b0e565b91505092915050565b61518981614ae7565b82525050565b5f62ffffff82169050919050565b6151a68161518f565b82525050565b5f60ff82169050919050565b6151c1816151ac565b82525050565b5f67ffffffffffffffff82169050919050565b6151e3816151c7565b82525050565b608082015f8201516151fd5f850182615180565b506020820151615210602085018261519d565b50604082015161522360408501826151b8565b50606082015161523660608501826151da565b50505050565b5f60808201905061524f5f8301846151e9565b92915050565b5f61525f82614bdf565b9050919050565b61526f81615255565b82525050565b5f6020820190506152885f830184615266565b92915050565b5f8151905061529c81614af8565b92915050565b5f602082840312156152b7576152b6614ac0565b5b5f6152c48482850161528e565b91505092915050565b5f82825260208201905092915050565b7f43616c6c6572206973206e6f7420746865206f776e65720000000000000000005f82015250565b5f6153116017836152cd565b915061531c826152dd565b602082019050919050565b5f6020820190508181035f83015261533e81615305565b9050919050565b5f81519050919050565b8281835e5f83830152505050565b5f61536782615345565b61537181856152cd565b935061538181856020860161534f565b61538a81614cff565b840191505092915050565b5f6020820190508181035f8301526153ad818461535d565b905092915050565b5f815190506153c3816150c7565b92915050565b5f602082840312156153de576153dd614ac0565b5b5f6153eb848285016153b5565b91505092915050565b7f4e487b71000000000000000000000000000000000000000000000000000000005f52601160045260245ffd5b5f61542b82614feb565b915061543683614feb565b925082820390508181111561544e5761544d6153f4565b5b92915050565b7f5265656e7472616e637947756172643a207265656e7472616e742063616c6c005f82015250565b5f615488601f836152cd565b915061549382615454565b602082019050919050565b5f6020820190508181035f8301526154b58161547c565b9050919050565b7f4e487b71000000000000000000000000000000000000000000000000000000005f52603260045260245ffd5b5f61ffff82169050919050565b6154ff816154e9565b8114615509575f5ffd5b50565b5f8135905061551a816154f6565b92915050565b5f6020828403121561553557615534614ac0565b5b5f6155428482850161550c565b91505092915050565b7f4e487b71000000000000000000000000000000000000000000000000000000005f52601260045260245ffd5b5f81519050919050565b5f82825260208201905092915050565b5f61559c82615578565b6155a68185615582565b93506155b681856020860161534f565b6155bf81614cff565b840191505092915050565b5f81519050919050565b5f82825260208201905092915050565b5f819050602082019050919050565b5f82825260208201905092915050565b5f61560d82615578565b61561781856155f3565b935061562781856020860161534f565b61563081614cff565b840191505092915050565b5f6156468383615603565b905092915050565b5f602082019050919050565b5f615664826155ca565b61566e81856155d4565b935083602082028501615680856155e4565b805f5b858110156156bb578484038952815161569c858261563b565b94506156a78361564e565b925060208a01995050600181019050615683565b50829750879550505050505092915050565b5f6040820190508181035f8301526156e58185615592565b905081810360208301526156f9818461565a565b90509392505050565b5f81905092915050565b50565b5f61571a5f83615702565b91506157258261570c565b5f82019050919050565b5f6157398261570f565b9150819050919050565b7f4469726563746f72792063616e6e6f74206265207a65726f20616464726573735f82015250565b5f6157776020836152cd565b915061578282615743565b602082019050919050565b5f6020820190508181035f8301526157a48161576b565b9050919050565b7f4469726563746f7279206d757374206265206120636f6e7472616374000000005f82015250565b5f6157df601c836152cd565b91506157ea826157ab565b602082019050919050565b5f6020820190508181035f83015261580c816157d3565b9050919050565b7f4469726563746f7279206164647265737320646f6573206e6f7420696d706c655f8201527f6d656e74206f776e657228290000000000000000000000000000000000000000602082015250565b5f61586d602c836152cd565b915061587882615813565b604082019050919050565b5f6020820190508181035f83015261589a81615861565b9050919050565b5f6040820190506158b45f830185614e7a565b6158c16020830184614e7a565b9392505050565b5f6dffffffffffffffffffffffffffff82169050919050565b6158ea816158c8565b81146158f4575f5ffd5b50565b5f81519050615905816158e1565b92915050565b5f8151905061591981614b60565b92915050565b5f5f5f6060848603121561593657615935614ac0565b5b5f615943868287016158f7565b9350506020615954868287016158f7565b92505060406159658682870161590b565b9150509250925092565b6159788161518f565b82525050565b5f6060820190506159915f830186614e7a565b61599e6020830185614e7a565b6159ab604083018461596f565b949350505050565b5f6040820190506159c65f830185614e7a565b6159d36020830184614ff4565b9392505050565b5f6159e482615578565b6159ee8185615702565b93506159fe81856020860161534f565b80840191505092915050565b5f615a1582846159da565b915081905092915050565b5f81519050615a2e81614f3d565b92915050565b5f60208284031215615a4957615a48614ac0565b5b5f615a5684828501615a20565b91505092915050565b7f5452414e534645525f4641494c454400000000000000000000000000000000005f82015250565b5f615a93600f836152cd565b9150615a9e82615a5f565b602082019050919050565b5f6020820190508181035f830152615ac081615a87565b9050919050565b5f615ad182614feb565b9150615adc83614feb565b9250828202615aea81614feb565b91508282048414831517615b0157615b006153f4565b5b5092915050565b5f615b1282614feb565b9150615b1d83614feb565b925082615b2d57615b2c61554b565b5b828204905092915050565b5f81519050919050565b5f82825260208201905092915050565b5f819050602082019050919050565b615b6a81614a80565b82525050565b5f615b7b8383615b61565b60208301905092915050565b5f602082019050919050565b5f615b9d82615b38565b615ba78185615b42565b9350615bb283615b52565b805f5b83811015615be2578151615bc98882615b70565b9750615bd483615b87565b925050600181019050615bb5565b5085935050505092915050565b5f6020820190508181035f830152615c078184615b93565b905092915050565b5f67ffffffffffffffff821115615c2957615c28614d0f565b5b602082029050602081019050919050565b5f8160060b9050919050565b615c4f81615c3a565b8114615c59575f5ffd5b50565b5f81519050615c6a81615c46565b92915050565b5f615c82615c7d84615c0f565b614d6d565b90508083825260208201905060208402830185811115615ca557615ca4614c31565b5b835b81811015615cce5780615cba8882615c5c565b845260208401935050602081019050615ca7565b5050509392505050565b5f82601f830112615cec57615ceb614c29565b5b8151615cfc848260208601615c70565b91505092915050565b5f67ffffffffffffffff821115615d1f57615d1e614d0f565b5b602082029050602081019050919050565b615d3981614ac8565b8114615d43575f5ffd5b50565b5f81519050615d5481615d30565b92915050565b5f615d6c615d6784615d05565b614d6d565b90508083825260208201905060208402830185811115615d8f57615d8e614c31565b5b835b81811015615db85780615da48882615d46565b845260208401935050602081019050615d91565b5050509392505050565b5f82601f830112615dd657615dd5614c29565b5b8151615de6848260208601615d5a565b91505092915050565b5f5f60408385031215615e0557615e04614ac0565b5b5f83015167ffffffffffffffff811115615e2257615e21614ac4565b5b615e2e85828601615cd8565b925050602083015167ffffffffffffffff811115615e4f57615e4e614ac4565b5b615e5b85828601615dc2565b9150509250929050565b5f8160020b9050919050565b615e7a81615e65565b8114615e84575f5ffd5b50565b5f81519050615e9581615e71565b92915050565b5f81519050615ea9816154f6565b92915050565b615eb8816151ac565b8114615ec2575f5ffd5b50565b5f81519050615ed381615eaf565b92915050565b5f5f5f5f5f5f5f60e0888a031215615ef457615ef3614ac0565b5b5f615f018a828b01615d46565b9750506020615f128a828b01615e87565b9650506040615f238a828b01615e9b565b9550506060615f348a828b01615e9b565b9450506080615f458a828b01615e9b565b93505060a0615f568a828b01615ec5565b92505060c0615f678a828b01615a20565b91505092959891949750929550565b5f8160601b9050919050565b5f615f8c82615f76565b9050919050565b5f615f9d82615f82565b9050919050565b615fb5615fb082614ae7565b615f93565b82525050565b5f8160e81b9050919050565b5f615fd182615fbb565b9050919050565b615fe9615fe48261518f565b615fc7565b82525050565b5f615ffa8286615fa4565b60148201915061600a8285615fd8565b60038201915061601a8284615fa4565b601482019150819050949350505050565b61603481614f32565b82525050565b5f60a08201905061604d5f830188614e7a565b61605a6020830187614ff4565b6160676040830186614ff4565b81810360608301526160798185615592565b9050616088608083018461602b565b9695505050505050565b5f81519050919050565b5f82825260208201905092915050565b5f819050602082019050919050565b5f6160c68383615180565b60208301905092915050565b5f602082019050919050565b5f6160e882616092565b6160f2818561609c565b93506160fd836160ac565b805f5b8381101561612d57815161611488826160bb565b975061611f836160d2565b925050600181019050616100565b5085935050505092915050565b5f60408201905061614d5f830185614ff4565b818103602083015261615f81846160de565b90509392505050565b5f67ffffffffffffffff82111561618257616181614d0f565b5b602082029050602081019050919050565b5f6161a56161a084616168565b614d6d565b905080838252602082019050602084028301858111156161c8576161c7614c31565b5b835b818110156161f157806161dd88826153b5565b8452602084019350506020810190506161ca565b5050509392505050565b5f82601f83011261620f5761620e614c29565b5b815161621f848260208601616193565b91505092915050565b5f6020828403121561623d5761623c614ac0565b5b5f82015167ffffffffffffffff81111561625a57616259614ac4565b5b616266848285016161fb565b91505092915050565b5f60a0820190506162825f830188614e7a565b61628f6020830187614ff4565b61629c6040830186614ff4565b81810360608301526162ae81856160de565b90506162bd608083018461602b565b9695505050505050565b5f6060820190506162da5f830186614e7a565b6162e76020830185614e7a565b6162f46040830184614ff4565b949350505050565b7f5452414e534645525f46524f4d5f4641494c45440000000000000000000000005f82015250565b5f6163306014836152cd565b915061633b826162fc565b602082019050919050565b5f6020820190508181035f83015261635d81616324565b9050919050565b5f61636e82615c3a565b915061637983615c3a565b92508282039050667fffffffffffff81137fffffffffffffffffffffffffffffffffffffffffffffffffff80000000000000821217156163bc576163bb6153f4565b5b92915050565b5f6060820190506163d55f830186614e7a565b6163e26020830185614e7a565b6163ef6040830184614e7a565b949350505050565b5f65ffffffffffff82169050919050565b616411816163f7565b811461641b575f5ffd5b50565b5f8151905061642c81616408565b92915050565b5f5f5f6060848603121561644957616448614ac0565b5b5f61645686828701615d46565b93505060206164678682870161641e565b92505060406164788682870161641e565b9150509250925092565b61648b81614ac8565b82525050565b61649a816163f7565b82525050565b5f6080820190506164b35f830187614e7a565b6164c06020830186614e7a565b6164cd6040830185616482565b6164da6060830184616491565b95945050505050565b7f42500000000000000000000000000000000000000000000000000000000000005f82015250565b5f6165176002836152cd565b9150616522826164e3565b602082019050919050565b5f6020820190508181035f8301526165448161650b565b9050919050565b5f61655582615c3a565b915061656083615c3a565b9250826165705761656f61554b565b5b60015f0383147fffffffffffffffffffffffffffffffffffffffffffffffffff80000000000000831416156165a8576165a76153f4565b5b828205905092915050565b5f6165bd82615c3a565b91506165c883615c3a565b9250826165d8576165d761554b565b5b828207905092915050565b5f819050919050565b5f6165f6826165e3565b91507f80000000000000000000000000000000000000000000000000000000000000008203616628576166276153f4565b5b815f039050919050565b5f61663c82615e65565b91507fffffffffffffffffffffffffffffffffffffffffffffffffffffffffff800000820361666e5761666d6153f4565b5b815f039050919050565b7f54000000000000000000000000000000000000000000000000000000000000005f82015250565b5f6166ac6001836152cd565b91506166b782616678565b602082019050919050565b5f6020820190508181035f8301526166d9816166a0565b9050919050565b5f6166ea82614feb565b91506166f583614feb565b9250826167055761670461554b565b5b828206905092915050565b5f61671a82614feb565b915061672583614feb565b925082820190508082111561673d5761673c6153f4565b5b92915050565b7f415050524f56455f4641494c45440000000000000000000000000000000000005f82015250565b5f616777600e836152cd565b915061678282616743565b602082019050919050565b5f6020820190508181035f8301526167a48161676b565b905091905056fea264697066735822122093d3932008b998a2051be4e9fc03af9925b7820924e114a41ecf408318a1cb8264736f6c634300081e0033",
			"opcodes": "PUSH2 0x140 PUSH1 0x40 MSTORE PUSH2 0x5460 PUSH1 0x2 SSTORE PUSH2 0x12C PUSH1 0x4 PUSH0 PUSH2 0x100 EXP DUP2 SLOAD DUP2 PUSH4 0xFFFFFFFF MUL NOT AND SWAP1 DUP4 PUSH4 0xFFFFFFFF AND MUL OR SWAP1 SSTORE POP CALLVALUE DUP1 ISZERO PUSH2 0x38 JUMPI PUSH0 PUSH0 REVERT JUMPDEST POP PUSH1 0x40 MLOAD PUSH2 0x713B CODESIZE SUB DUP1 PUSH2 0x713B DUP4 CODECOPY DUP2 DUP2 ADD PUSH1 0x40 MSTORE DUP2 ADD SWAP1 PUSH2 0x5A SWAP2 SWAP1 PUSH2 0x63F JUMP JUMPDEST DUP5 DUP5 DUP5 DUP5 DUP5 PUSH0 PUSH20 0xFFFFFFFFFFFFFFFFFFFFFFFFFFFFFFFFFFFFFFFF AND DUP4 PUSH20 0xFFFFFFFFFFFFFFFFFFFFFFFFFFFFFFFFFFFFFFFF AND SUB PUSH2 0xC4 JUMPI PUSH1 0x40 MLOAD PUSH32 0xD92E233D00000000000000000000000000000000000000000000000000000000 DUP2 MSTORE PUSH1 0x4 ADD PUSH1 0x40 MLOAD DUP1 SWAP2 SUB SWAP1 REVERT JUMPDEST PUSH0 PUSH20 0xFFFFFFFFFFFFFFFFFFFFFFFFFFFFFFFFFFFFFFFF AND DUP5 PUSH20 0xFFFFFFFFFFFFFFFFFFFFFFFFFFFFFFFFFFFFFFFF AND SUB PUSH2 0x129 JUMPI PUSH1 0x40 MLOAD PUSH32 0xD92E233D00000000000000000000000000000000000000000000000000000000 DUP2 MSTORE PUSH1 0x4 ADD PUSH1 0x40 MLOAD DUP1 SWAP2 SUB SWAP1 REVERT JUMPDEST PUSH0 PUSH20 0xFFFFFFFFFFFFFFFFFFFFFFFFFFFFFFFFFFFFFFFF AND DUP3 PUSH20 0xFFFFFFFFFFFFFFFFFFFFFFFFFFFFFFFFFFFFFFFF AND SUB PUSH2 0x18E JUMPI PUSH1 0x40 MLOAD PUSH32 0xD92E233D00000000000000000000000000000000000000000000000000000000 DUP2 MSTORE PUSH1 0x4 ADD PUSH1 0x40 MLOAD DUP1 SWAP2 SUB SWAP1 REVERT JUMPDEST PUSH0 PUSH20 0xFFFFFFFFFFFFFFFFFFFFFFFFFFFFFFFFFFFFFFFF AND DUP2 PUSH20 0xFFFFFFFFFFFFFFFFFFFFFFFFFFFFFFFFFFFFFFFF AND SUB PUSH2 0x1F3 JUMPI PUSH1 0x40 MLOAD PUSH32 0xD92E233D00000000000000000000000000000000000000000000000000000000 DUP2 MSTORE PUSH1 0x4 ADD PUSH1 0x40 MLOAD DUP1 SWAP2 SUB SWAP1 REVERT JUMPDEST DUP3 PUSH20 0xFFFFFFFFFFFFFFFFFFFFFFFFFFFFFFFFFFFFFFFF AND PUSH1 0xE0 DUP2 PUSH20 0xFFFFFFFFFFFFFFFFFFFFFFFFFFFFFFFFFFFFFFFF AND DUP2 MSTORE POP POP DUP4 PUSH20 0xFFFFFFFFFFFFFFFFFFFFFFFFFFFFFFFFFFFFFFFF AND PUSH2 0x100 DUP2 PUSH20 0xFFFFFFFFFFFFFFFFFFFFFFFFFFFFFFFFFFFFFFFF AND DUP2 MSTORE POP POP DUP2 PUSH20 0xFFFFFFFFFFFFFFFFFFFFFFFFFFFFFFFFFFFFFFFF AND PUSH2 0x120 DUP2 PUSH20 0xFFFFFFFFFFFFFFFFFFFFFFFFFFFFFFFFFFFFFFFF AND DUP2 MSTORE POP POP PUSH0 DUP5 PUSH20 0xFFFFFFFFFFFFFFFFFFFFFFFFFFFFFFFFFFFFFFFF AND PUSH4 0xAD5C4648 PUSH1 0x40 MLOAD DUP2 PUSH4 0xFFFFFFFF AND PUSH1 0xE0 SHL DUP2 MSTORE PUSH1 0x4 ADD PUSH1 0x20 PUSH1 0x40 MLOAD DUP1 DUP4 SUB DUP2 DUP7 GAS STATICCALL ISZERO DUP1 ISZERO PUSH2 0x2DB JUMPI RETURNDATASIZE PUSH0 PUSH0 RETURNDATACOPY RETURNDATASIZE PUSH0 REVERT JUMPDEST POP POP POP POP PUSH1 0x40 MLOAD RETURNDATASIZE PUSH1 0x1F NOT PUSH1 0x1F DUP3 ADD AND DUP3 ADD DUP1 PUSH1 0x40 MSTORE POP DUP2 ADD SWAP1 PUSH2 0x2FF SWAP2 SWAP1 PUSH2 0x6B6 JUMP JUMPDEST SWAP1 POP DUP1 PUSH20 0xFFFFFFFFFFFFFFFFFFFFFFFFFFFFFFFFFFFFFFFF AND PUSH1 0x80 DUP2 PUSH20 0xFFFFFFFFFFFFFFFFFFFFFFFFFFFFFFFFFFFFFFFF AND DUP2 MSTORE POP POP DUP5 PUSH20 0xFFFFFFFFFFFFFFFFFFFFFFFFFFFFFFFFFFFFFFFF AND PUSH4 0xC45A0155 PUSH1 0x40 MLOAD DUP2 PUSH4 0xFFFFFFFF AND PUSH1 0xE0 SHL DUP2 MSTORE PUSH1 0x4 ADD PUSH1 0x20 PUSH1 0x40 MLOAD DUP1 DUP4 SUB DUP2 DUP7 GAS STATICCALL ISZERO DUP1 ISZERO PUSH2 0x37E JUMPI RETURNDATASIZE PUSH0 PUSH0 RETURNDATACOPY RETURNDATASIZE PUSH0 REVERT JUMPDEST POP POP POP POP PUSH1 0x40 MLOAD RETURNDATASIZE PUSH1 0x1F NOT PUSH1 0x1F DUP3 ADD AND DUP3 ADD DUP1 PUSH1 0x40 MSTORE POP DUP2 ADD SWAP1 PUSH2 0x3A2 SWAP2 SWAP1 PUSH2 0x6B6 JUMP JUMPDEST PUSH20 0xFFFFFFFFFFFFFFFFFFFFFFFFFFFFFFFFFFFFFFFF AND PUSH1 0xC0 DUP2 PUSH20 0xFFFFFFFFFFFFFFFFFFFFFFFFFFFFFFFFFFFFFFFF AND DUP2 MSTORE POP POP DUP2 PUSH20 0xFFFFFFFFFFFFFFFFFFFFFFFFFFFFFFFFFFFFFFFF AND PUSH1 0xA0 DUP2 PUSH20 0xFFFFFFFFFFFFFFFFFFFFFFFFFFFFFFFFFFFFFFFF AND DUP2 MSTORE POP POP POP POP POP POP POP PUSH2 0x41D DUP2 PUSH2 0x430 PUSH1 0x20 SHL PUSH1 0x20 SHR JUMP JUMPDEST POP PUSH1 0x1 PUSH1 0x3 DUP2 SWAP1 SSTORE POP POP POP POP POP POP PUSH2 0x84F JUMP JUMPDEST PUSH0 PUSH20 0xFFFFFFFFFFFFFFFFFFFFFFFFFFFFFFFFFFFFFFFF AND DUP2 PUSH20 0xFFFFFFFFFFFFFFFFFFFFFFFFFFFFFFFFFFFFFFFF AND SUB PUSH2 0x49E JUMPI PUSH1 0x40 MLOAD PUSH32 0x8C379A000000000000000000000000000000000000000000000000000000000 DUP2 MSTORE PUSH1 0x4 ADD PUSH2 0x495 SWAP1 PUSH2 0x73B JUMP JUMPDEST PUSH1 0x40 MLOAD DUP1 SWAP2 SUB SWAP1 REVERT JUMPDEST PUSH0 DUP2 PUSH20 0xFFFFFFFFFFFFFFFFFFFFFFFFFFFFFFFFFFFFFFFF AND EXTCODESIZE GT PUSH2 0x4F7 JUMPI PUSH1 0x40 MLOAD PUSH32 0x8C379A000000000000000000000000000000000000000000000000000000000 DUP2 MSTORE PUSH1 0x4 ADD PUSH2 0x4EE SWAP1 PUSH2 0x7A3 JUMP JUMPDEST PUSH1 0x40 MLOAD DUP1 SWAP2 SUB SWAP1 REVERT JUMPDEST DUP1 PUSH20 0xFFFFFFFFFFFFFFFFFFFFFFFFFFFFFFFFFFFFFFFF AND PUSH4 0x8DA5CB5B PUSH1 0x40 MLOAD DUP2 PUSH4 0xFFFFFFFF AND PUSH1 0xE0 SHL DUP2 MSTORE PUSH1 0x4 ADD PUSH1 0x20 PUSH1 0x40 MLOAD DUP1 DUP4 SUB DUP2 DUP7 GAS STATICCALL SWAP3 POP POP POP DUP1 ISZERO PUSH2 0x55F JUMPI POP PUSH1 0x40 MLOAD RETURNDATASIZE PUSH1 0x1F NOT PUSH1 0x1F DUP3 ADD AND DUP3 ADD DUP1 PUSH1 0x40 MSTORE POP DUP2 ADD SWAP1 PUSH2 0x55C SWAP2 SWAP1 PUSH2 0x6B6 JUMP JUMPDEST PUSH1 0x1 JUMPDEST PUSH2 0x59E JUMPI PUSH1 0x40 MLOAD PUSH32 0x8C379A000000000000000000000000000000000000000000000000000000000 DUP2 MSTORE PUSH1 0x4 ADD PUSH2 0x595 SWAP1 PUSH2 0x831 JUMP JUMPDEST PUSH1 0x40 MLOAD DUP1 SWAP2 SUB SWAP1 REVERT JUMPDEST DUP2 PUSH0 PUSH0 PUSH2 0x100 EXP DUP2 SLOAD DUP2 PUSH20 0xFFFFFFFFFFFFFFFFFFFFFFFFFFFFFFFFFFFFFFFF MUL NOT AND SWAP1 DUP4 PUSH20 0xFFFFFFFFFFFFFFFFFFFFFFFFFFFFFFFFFFFFFFFF AND MUL OR SWAP1 SSTORE POP POP POP JUMP JUMPDEST PUSH0 PUSH0 REVERT JUMPDEST PUSH0 PUSH20 0xFFFFFFFFFFFFFFFFFFFFFFFFFFFFFFFFFFFFFFFF DUP3 AND SWAP1 POP SWAP2 SWAP1 POP JUMP JUMPDEST PUSH0 PUSH2 0x60E DUP3 PUSH2 0x5E5 JUMP JUMPDEST SWAP1 POP SWAP2 SWAP1 POP JUMP JUMPDEST PUSH2 0x61E DUP2 PUSH2 0x604 JUMP JUMPDEST DUP2 EQ PUSH2 0x628 JUMPI PUSH0 PUSH0 REVERT JUMPDEST POP JUMP JUMPDEST PUSH0 DUP2 MLOAD SWAP1 POP PUSH2 0x639 DUP2 PUSH2 0x615 JUMP JUMPDEST SWAP3 SWAP2 POP POP JUMP JUMPDEST PUSH0 PUSH0 PUSH0 PUSH0 PUSH0 PUSH1 0xA0 DUP7 DUP9 SUB SLT ISZERO PUSH2 0x658 JUMPI PUSH2 0x657 PUSH2 0x5E1 JUMP JUMPDEST JUMPDEST PUSH0 PUSH2 0x665 DUP9 DUP3 DUP10 ADD PUSH2 0x62B JUMP JUMPDEST SWAP6 POP POP PUSH1 0x20 PUSH2 0x676 DUP9 DUP3 DUP10 ADD PUSH2 0x62B JUMP JUMPDEST SWAP5 POP POP PUSH1 0x40 PUSH2 0x687 DUP9 DUP3 DUP10 ADD PUSH2 0x62B JUMP JUMPDEST SWAP4 POP POP PUSH1 0x60 PUSH2 0x698 DUP9 DUP3 DUP10 ADD PUSH2 0x62B JUMP JUMPDEST SWAP3 POP POP PUSH1 0x80 PUSH2 0x6A9 DUP9 DUP3 DUP10 ADD PUSH2 0x62B JUMP JUMPDEST SWAP2 POP POP SWAP3 SWAP6 POP SWAP3 SWAP6 SWAP1 SWAP4 POP JUMP JUMPDEST PUSH0 PUSH1 0x20 DUP3 DUP5 SUB SLT ISZERO PUSH2 0x6CB JUMPI PUSH2 0x6CA PUSH2 0x5E1 JUMP JUMPDEST JUMPDEST PUSH0 PUSH2 0x6D8 DUP5 DUP3 DUP6 ADD PUSH2 0x62B JUMP JUMPDEST SWAP2 POP POP SWAP3 SWAP2 POP POP JUMP JUMPDEST PUSH0 DUP3 DUP3 MSTORE PUSH1 0x20 DUP3 ADD SWAP1 POP SWAP3 SWAP2 POP POP JUMP JUMPDEST PUSH32 0x4469726563746F72792063616E6E6F74206265207A65726F2061646472657373 PUSH0 DUP3 ADD MSTORE POP JUMP JUMPDEST PUSH0 PUSH2 0x725 PUSH1 0x20 DUP4 PUSH2 0x6E1 JUMP JUMPDEST SWAP2 POP PUSH2 0x730 DUP3 PUSH2 0x6F1 JUMP JUMPDEST PUSH1 0x20 DUP3 ADD SWAP1 POP SWAP2 SWAP1 POP JUMP JUMPDEST PUSH0 PUSH1 0x20 DUP3 ADD SWAP1 POP DUP2 DUP2 SUB PUSH0 DUP4 ADD MSTORE PUSH2 0x752 DUP2 PUSH2 0x719 JUMP JUMPDEST SWAP1 POP SWAP2 SWAP1 POP JUMP JUMPDEST PUSH32 0x4469726563746F7279206D757374206265206120636F6E747261637400000000 PUSH0 DUP3 ADD MSTORE POP JUMP JUMPDEST PUSH0 PUSH2 0x78D PUSH1 0x1C DUP4 PUSH2 0x6E1 JUMP JUMPDEST SWAP2 POP PUSH2 0x798 DUP3 PUSH2 0x759 JUMP JUMPDEST PUSH1 0x20 DUP3 ADD SWAP1 POP SWAP2 SWAP1 POP JUMP JUMPDEST PUSH0 PUSH1 0x20 DUP3 ADD SWAP1 POP DUP2 DUP2 SUB PUSH0 DUP4 ADD MSTORE PUSH2 0x7BA DUP2 PUSH2 0x781 JUMP JUMPDEST SWAP1 POP SWAP2 SWAP1 POP JUMP JUMPDEST PUSH32 0x4469726563746F7279206164647265737320646F6573206E6F7420696D706C65 PUSH0 DUP3 ADD MSTORE PUSH32 0x6D656E74206F776E657228290000000000000000000000000000000000000000 PUSH1 0x20 DUP3 ADD MSTORE POP JUMP JUMPDEST PUSH0 PUSH2 0x81B PUSH1 0x2C DUP4 PUSH2 0x6E1 JUMP JUMPDEST SWAP2 POP PUSH2 0x826 DUP3 PUSH2 0x7C1 JUMP JUMPDEST PUSH1 0x40 DUP3 ADD SWAP1 POP SWAP2 SWAP1 POP JUMP JUMPDEST PUSH0 PUSH1 0x20 DUP3 ADD SWAP1 POP DUP2 DUP2 SUB PUSH0 DUP4 ADD MSTORE PUSH2 0x848 DUP2 PUSH2 0x80F JUMP JUMPDEST SWAP1 POP SWAP2 SWAP1 POP JUMP JUMPDEST PUSH1 0x80 MLOAD PUSH1 0xA0 MLOAD PUSH1 0xC0 MLOAD PUSH1 0xE0 MLOAD PUSH2 0x100 MLOAD PUSH2 0x120 MLOAD PUSH2 0x67E1 PUSH2 0x95A PUSH0 CODECOPY PUSH0 DUP2 DUP2 PUSH2 0xC10 ADD MSTORE DUP2 DUP2 PUSH2 0x19E1 ADD MSTORE DUP2 DUP2 PUSH2 0x3542 ADD MSTORE PUSH2 0x3970 ADD MSTORE PUSH0 DUP2 DUP2 PUSH2 0x1381 ADD MSTORE PUSH2 0x37A0 ADD MSTORE PUSH0 DUP2 DUP2 PUSH2 0xC58 ADD MSTORE DUP2 DUP2 PUSH2 0x25E6 ADD MSTORE PUSH2 0x30FD ADD MSTORE PUSH0 DUP2 DUP2 PUSH2 0xE13 ADD MSTORE PUSH2 0x2343 ADD MSTORE PUSH0 DUP2 DUP2 PUSH2 0x69A ADD MSTORE DUP2 DUP2 PUSH2 0x34F6 ADD MSTORE DUP2 DUP2 PUSH2 0x3520 ADD MSTORE DUP2 DUP2 PUSH2 0x3924 ADD MSTORE PUSH2 0x394E ADD MSTORE PUSH0 DUP2 DUP2 PUSH2 0x86C ADD MSTORE DUP2 DUP2 PUSH2 0x8BD ADD MSTORE DUP2 DUP2 PUSH2 0xAD7 ADD MSTORE DUP2 DUP2 PUSH2 0xBAD ADD MSTORE DUP2 DUP2 PUSH2 0xBEC ADD MSTORE DUP2 DUP2 PUSH2 0x1567 ADD MSTORE DUP2 DUP2 PUSH2 0x1BE1 ADD MSTORE DUP2 DUP2 PUSH2 0x2294 ADD MSTORE DUP2 DUP2 PUSH2 0x231A ADD MSTORE DUP2 DUP2 PUSH2 0x295B ADD MSTORE DUP2 DUP2 PUSH2 0x298E ADD MSTORE DUP2 DUP2 PUSH2 0x29CD ADD MSTORE DUP2 DUP2 PUSH2 0x29FB ADD MSTORE DUP2 DUP2 PUSH2 0x2E20 ADD MSTORE DUP2 DUP2 PUSH2 0x2F2F ADD MSTORE DUP2 DUP2 PUSH2 0x2F62 ADD MSTORE DUP2 DUP2 PUSH2 0x2FA1 ADD MSTORE PUSH2 0x2FCF ADD MSTORE PUSH2 0x67E1 PUSH0 RETURN INVALID PUSH1 0x80 PUSH1 0x40 MSTORE PUSH1 0x4 CALLDATASIZE LT PUSH2 0x117 JUMPI PUSH0 CALLDATALOAD PUSH1 0xE0 SHR DUP1 PUSH4 0x5CF39049 GT PUSH2 0x9F JUMPI DUP1 PUSH4 0xB4B57C39 GT PUSH2 0x63 JUMPI DUP1 PUSH4 0xB4B57C39 EQ PUSH2 0x36A JUMPI DUP1 PUSH4 0xBA4C7BE1 EQ PUSH2 0x394 JUMPI DUP1 PUSH4 0xD32563C8 EQ PUSH2 0x3BC JUMPI DUP1 PUSH4 0xDEADBC14 EQ PUSH2 0x3F8 JUMPI DUP1 PUSH4 0xDF697CC4 EQ PUSH2 0x422 JUMPI PUSH2 0x11E JUMP JUMPDEST DUP1 PUSH4 0x5CF39049 EQ PUSH2 0x29A JUMPI DUP1 PUSH4 0x658A847A EQ PUSH2 0x2C4 JUMPI DUP1 PUSH4 0x7C887C59 EQ PUSH2 0x2EE JUMPI DUP1 PUSH4 0x8DA5CB5B EQ PUSH2 0x318 JUMPI DUP1 PUSH4 0xA7590163 EQ PUSH2 0x342 JUMPI PUSH2 0x11E JUMP JUMPDEST DUP1 PUSH4 0x1623306B GT PUSH2 0xE6 JUMPI DUP1 PUSH4 0x1623306B EQ PUSH2 0x1C6 JUMPI DUP1 PUSH4 0x27262618 EQ PUSH2 0x1E2 JUMPI DUP1 PUSH4 0x3814BC6E EQ PUSH2 0x21E JUMPI DUP1 PUSH4 0x38B88052 EQ PUSH2 0x246 JUMPI DUP1 PUSH4 0x4F0E0EF3 EQ PUSH2 0x270 JUMPI PUSH2 0x11E JUMP JUMPDEST DUP1 PUSH4 0x362FE3A EQ PUSH2 0x122 JUMPI DUP1 PUSH4 0x9053AC4 EQ PUSH2 0x14C JUMPI DUP1 PUSH4 0x1052874D EQ PUSH2 0x174 JUMPI DUP1 PUSH4 0x12261EE7 EQ PUSH2 0x19C JUMPI PUSH2 0x11E JUMP JUMPDEST CALLDATASIZE PUSH2 0x11E JUMPI STOP JUMPDEST PUSH0 PUSH0 REVERT JUMPDEST CALLVALUE DUP1 ISZERO PUSH2 0x12D JUMPI PUSH0 PUSH0 REVERT JUMPDEST POP PUSH2 0x136 PUSH2 0x45E JUMP JUMPDEST PUSH1 0x40 MLOAD PUSH2 0x143 SWAP2 SWAP1 PUSH2 0x4A9E JUMP JUMPDEST PUSH1 0x40 MLOAD DUP1 SWAP2 SUB SWAP1 RETURN JUMPDEST CALLVALUE DUP1 ISZERO PUSH2 0x157 JUMPI PUSH0 PUSH0 REVERT JUMPDEST POP PUSH2 0x172 PUSH1 0x4 DUP1 CALLDATASIZE SUB DUP2 ADD SWAP1 PUSH2 0x16D SWAP2 SWAP1 PUSH2 0x4B22 JUMP JUMPDEST PUSH2 0x473 JUMP JUMPDEST STOP JUMPDEST CALLVALUE DUP1 ISZERO PUSH2 0x17F JUMPI PUSH0 PUSH0 REVERT JUMPDEST POP PUSH2 0x19A PUSH1 0x4 DUP1 CALLDATASIZE SUB DUP2 ADD SWAP1 PUSH2 0x195 SWAP2 SWAP1 PUSH2 0x4B8A JUMP JUMPDEST PUSH2 0x57B JUMP JUMPDEST STOP JUMPDEST CALLVALUE DUP1 ISZERO PUSH2 0x1A7 JUMPI PUSH0 PUSH0 REVERT JUMPDEST POP PUSH2 0x1B0 PUSH2 0x698 JUMP JUMPDEST PUSH1 0x40 MLOAD PUSH2 0x1BD SWAP2 SWAP1 PUSH2 0x4C10 JUMP JUMPDEST PUSH1 0x40 MLOAD DUP1 SWAP2 SUB SWAP1 RETURN JUMPDEST PUSH2 0x1E0 PUSH1 0x4 DUP1 CALLDATASIZE SUB DUP2 ADD SWAP1 PUSH2 0x1DB SWAP2 SWAP1 PUSH2 0x4C8A JUMP JUMPDEST PUSH2 0x6BC JUMP JUMPDEST STOP JUMPDEST CALLVALUE DUP1 ISZERO PUSH2 0x1ED JUMPI PUSH0 PUSH0 REVERT JUMPDEST POP PUSH2 0x208 PUSH1 0x4 DUP1 CALLDATASIZE SUB DUP2 ADD SWAP1 PUSH2 0x203 SWAP2 SWAP1 PUSH2 0x4E33 JUMP JUMPDEST PUSH2 0x90F JUMP JUMPDEST PUSH1 0x40 MLOAD PUSH2 0x215 SWAP2 SWAP1 PUSH2 0x4E89 JUMP JUMPDEST PUSH1 0x40 MLOAD DUP1 SWAP2 SUB SWAP1 RETURN JUMPDEST CALLVALUE DUP1 ISZERO PUSH2 0x229 JUMPI PUSH0 PUSH0 REVERT JUMPDEST POP PUSH2 0x244 PUSH1 0x4 DUP1 CALLDATASIZE SUB DUP2 ADD SWAP1 PUSH2 0x23F SWAP2 SWAP1 PUSH2 0x4F67 JUMP JUMPDEST PUSH2 0x9AF JUMP JUMPDEST STOP JUMPDEST CALLVALUE DUP1 ISZERO PUSH2 0x251 JUMPI PUSH0 PUSH0 REVERT JUMPDEST POP PUSH2 0x25A PUSH2 0xBE4 JUMP JUMPDEST PUSH1 0x40 MLOAD PUSH2 0x267 SWAP2 SWAP1 PUSH2 0x5003 JUMP JUMPDEST PUSH1 0x40 MLOAD DUP1 SWAP2 SUB SWAP1 RETURN JUMPDEST CALLVALUE DUP1 ISZERO PUSH2 0x27B JUMPI PUSH0 PUSH0 REVERT JUMPDEST POP PUSH2 0x284 PUSH2 0xBEA JUMP JUMPDEST PUSH1 0x40 MLOAD PUSH2 0x291 SWAP2 SWAP1 PUSH2 0x4E89 JUMP JUMPDEST PUSH1 0x40 MLOAD DUP1 SWAP2 SUB SWAP1 RETURN JUMPDEST CALLVALUE DUP1 ISZERO PUSH2 0x2A5 JUMPI PUSH0 PUSH0 REVERT JUMPDEST POP PUSH2 0x2AE PUSH2 0xC0E JUMP JUMPDEST PUSH1 0x40 MLOAD PUSH2 0x2BB SWAP2 SWAP1 PUSH2 0x503C JUMP JUMPDEST PUSH1 0x40 MLOAD DUP1 SWAP2 SUB SWAP1 RETURN JUMPDEST CALLVALUE DUP1 ISZERO PUSH2 0x2CF JUMPI PUSH0 PUSH0 REVERT JUMPDEST POP PUSH2 0x2D8 PUSH2 0xC32 JUMP JUMPDEST PUSH1 0x40 MLOAD PUSH2 0x2E5 SWAP2 SWAP1 PUSH2 0x5075 JUMP JUMPDEST PUSH1 0x40 MLOAD DUP1 SWAP2 SUB SWAP1 RETURN JUMPDEST CALLVALUE DUP1 ISZERO PUSH2 0x2F9 JUMPI PUSH0 PUSH0 REVERT JUMPDEST POP PUSH2 0x302 PUSH2 0xC56 JUMP JUMPDEST PUSH1 0x40 MLOAD PUSH2 0x30F SWAP2 SWAP1 PUSH2 0x50AE JUMP JUMPDEST PUSH1 0x40 MLOAD DUP1 SWAP2 SUB SWAP1 RETURN JUMPDEST CALLVALUE DUP1 ISZERO PUSH2 0x323 JUMPI PUSH0 PUSH0 REVERT JUMPDEST POP PUSH2 0x32C PUSH2 0xC7A JUMP JUMPDEST PUSH1 0x40 MLOAD PUSH2 0x339 SWAP2 SWAP1 PUSH2 0x4E89 JUMP JUMPDEST PUSH1 0x40 MLOAD DUP1 SWAP2 SUB SWAP1 RETURN JUMPDEST CALLVALUE DUP1 ISZERO PUSH2 0x34D JUMPI PUSH0 PUSH0 REVERT JUMPDEST POP PUSH2 0x368 PUSH1 0x4 DUP1 CALLDATASIZE SUB DUP2 ADD SWAP1 PUSH2 0x363 SWAP2 SWAP1 PUSH2 0x50F1 JUMP JUMPDEST PUSH2 0xD0D JUMP JUMPDEST STOP JUMPDEST CALLVALUE DUP1 ISZERO PUSH2 0x375 JUMPI PUSH0 PUSH0 REVERT JUMPDEST POP PUSH2 0x37E PUSH2 0xE11 JUMP JUMPDEST PUSH1 0x40 MLOAD PUSH2 0x38B SWAP2 SWAP1 PUSH2 0x513C JUMP JUMPDEST PUSH1 0x40 MLOAD DUP1 SWAP2 SUB SWAP1 RETURN JUMPDEST CALLVALUE DUP1 ISZERO PUSH2 0x39F JUMPI PUSH0 PUSH0 REVERT JUMPDEST POP PUSH2 0x3BA PUSH1 0x4 DUP1 CALLDATASIZE SUB DUP2 ADD SWAP1 PUSH2 0x3B5 SWAP2 SWAP1 PUSH2 0x5155 JUMP JUMPDEST PUSH2 0xE35 JUMP JUMPDEST STOP JUMPDEST CALLVALUE DUP1 ISZERO PUSH2 0x3C7 JUMPI PUSH0 PUSH0 REVERT JUMPDEST POP PUSH2 0x3E2 PUSH1 0x4 DUP1 CALLDATASIZE SUB DUP2 ADD SWAP1 PUSH2 0x3DD SWAP2 SWAP1 PUSH2 0x5155 JUMP JUMPDEST PUSH2 0xF3B JUMP JUMPDEST PUSH1 0x40 MLOAD PUSH2 0x3EF SWAP2 SWAP1 PUSH2 0x523C JUMP JUMPDEST PUSH1 0x40 MLOAD DUP1 SWAP2 SUB SWAP1 RETURN JUMPDEST CALLVALUE DUP1 ISZERO PUSH2 0x403 JUMPI PUSH0 PUSH0 REVERT JUMPDEST POP PUSH2 0x40C PUSH2 0x137F JUMP JUMPDEST PUSH1 0x40 MLOAD PUSH2 0x419 SWAP2 SWAP1 PUSH2 0x5275 JUMP JUMPDEST PUSH1 0x40 MLOAD DUP1 SWAP2 SUB SWAP1 RETURN JUMPDEST CALLVALUE DUP1 ISZERO PUSH2 0x42D JUMPI PUSH0 PUSH0 REVERT JUMPDEST POP PUSH2 0x448 PUSH1 0x4 DUP1 CALLDATASIZE SUB DUP2 ADD SWAP1 PUSH2 0x443 SWAP2 SWAP1 PUSH2 0x5155 JUMP JUMPDEST PUSH2 0x13A3 JUMP JUMPDEST PUSH1 0x40 MLOAD PUSH2 0x455 SWAP2 SWAP1 PUSH2 0x523C JUMP JUMPDEST PUSH1 0x40 MLOAD DUP1 SWAP2 SUB SWAP1 RETURN JUMPDEST PUSH1 0x4 PUSH0 SWAP1 SLOAD SWAP1 PUSH2 0x100 EXP SWAP1 DIV PUSH4 0xFFFFFFFF AND DUP2 JUMP JUMPDEST PUSH0 PUSH0 SWAP1 SLOAD SWAP1 PUSH2 0x100 EXP SWAP1 DIV PUSH20 0xFFFFFFFFFFFFFFFFFFFFFFFFFFFFFFFFFFFFFFFF AND PUSH20 0xFFFFFFFFFFFFFFFFFFFFFFFFFFFFFFFFFFFFFFFF AND PUSH4 0x8DA5CB5B PUSH1 0x40 MLOAD DUP2 PUSH4 0xFFFFFFFF AND PUSH1 0xE0 SHL DUP2 MSTORE PUSH1 0x4 ADD PUSH1 0x20 PUSH1 0x40 MLOAD DUP1 DUP4 SUB DUP2 DUP7 GAS STATICCALL ISZERO DUP1 ISZERO PUSH2 0x4DC JUMPI RETURNDATASIZE PUSH0 PUSH0 RETURNDATACOPY RETURNDATASIZE PUSH0 REVERT JUMPDEST POP POP POP POP PUSH1 0x40 MLOAD RETURNDATASIZE PUSH1 0x1F NOT PUSH1 0x1F DUP3 ADD AND DUP3 ADD DUP1 PUSH1 0x40 MSTORE POP DUP2 ADD SWAP1 PUSH2 0x500 SWAP2 SWAP1 PUSH2 0x52A2 JUMP JUMPDEST PUSH20 0xFFFFFFFFFFFFFFFFFFFFFFFFFFFFFFFFFFFFFFFF AND CALLER PUSH20 0xFFFFFFFFFFFFFFFFFFFFFFFFFFFFFFFFFFFFFFFF AND EQ PUSH2 0x56D JUMPI PUSH1 0x40 MLOAD PUSH32 0x8C379A000000000000000000000000000000000000000000000000000000000 DUP2 MSTORE PUSH1 0x4 ADD PUSH2 0x564 SWAP1 PUSH2 0x5327 JUMP JUMPDEST PUSH1 0x40 MLOAD DUP1 SWAP2 SUB SWAP1 REVERT JUMPDEST PUSH2 0x577 DUP3 DUP3 PUSH2 0x14FF JUMP JUMPDEST POP POP JUMP JUMPDEST PUSH0 PUSH0 SWAP1 SLOAD SWAP1 PUSH2 0x100 EXP SWAP1 DIV PUSH20 0xFFFFFFFFFFFFFFFFFFFFFFFFFFFFFFFFFFFFFFFF AND PUSH20 0xFFFFFFFFFFFFFFFFFFFFFFFFFFFFFFFFFFFFFFFF AND PUSH4 0x8DA5CB5B PUSH1 0x40 MLOAD DUP2 PUSH4 0xFFFFFFFF AND PUSH1 0xE0 SHL DUP2 MSTORE PUSH1 0x4 ADD PUSH1 0x20 PUSH1 0x40 MLOAD DUP1 DUP4 SUB DUP2 DUP7 GAS STATICCALL ISZERO DUP1 ISZERO PUSH2 0x5E4 JUMPI RETURNDATASIZE PUSH0 PUSH0 RETURNDATACOPY RETURNDATASIZE PUSH0 REVERT JUMPDEST POP POP POP POP PUSH1 0x40 MLOAD RETURNDATASIZE PUSH1 0x1F NOT PUSH1 0x1F DUP3 ADD AND DUP3 ADD DUP1 PUSH1 0x40 MSTORE POP DUP2 ADD SWAP1 PUSH2 0x608 SWAP2 SWAP1 PUSH2 0x52A2 JUMP JUMPDEST PUSH20 0xFFFFFFFFFFFFFFFFFFFFFFFFFFFFFFFFFFFFFFFF AND CALLER PUSH20 0xFFFFFFFFFFFFFFFFFFFFFFFFFFFFFFFFFFFFFFFF AND EQ PUSH2 0x675 JUMPI PUSH1 0x40 MLOAD PUSH32 0x8C379A000000000000000000000000000000000000000000000000000000000 DUP2 MSTORE PUSH1 0x4 ADD PUSH2 0x66C SWAP1 PUSH2 0x5327 JUMP JUMPDEST PUSH1 0x40 MLOAD DUP1 SWAP2 SUB SWAP1 REVERT JUMPDEST DUP1 PUSH1 0x4 PUSH0 PUSH2 0x100 EXP DUP2 SLOAD DUP2 PUSH4 0xFFFFFFFF MUL NOT AND SWAP1 DUP4 PUSH4 0xFFFFFFFF AND MUL OR SWAP1 SSTORE POP POP JUMP JUMPDEST PUSH32 0x0 DUP2 JUMP JUMPDEST PUSH2 0x6C4 PUSH2 0x150D JUMP JUMPDEST PUSH0 PUSH20 0xFFFFFFFFFFFFFFFFFFFFFFFFFFFFFFFFFFFFFFFF AND DUP3 PUSH20 0xFFFFFFFFFFFFFFFFFFFFFFFFFFFFFFFFFFFFFFFF AND SUB PUSH2 0x729 JUMPI PUSH1 0x40 MLOAD PUSH32 0xD92E233D00000000000000000000000000000000000000000000000000000000 DUP2 MSTORE PUSH1 0x4 ADD PUSH1 0x40 MLOAD DUP1 SWAP2 SUB SWAP1 REVERT JUMPDEST PUSH0 CALLVALUE SWAP1 POP PUSH0 DUP6 DUP6 SWAP1 POP SUB PUSH2 0x769 JUMPI PUSH1 0x40 MLOAD PUSH32 0xB4FA3FB300000000000000000000000000000000000000000000000000000000 DUP2 MSTORE PUSH1 0x4 ADD PUSH1 0x40 MLOAD DUP1 SWAP2 SUB SWAP1 REVERT JUMPDEST PUSH0 DUP2 SUB PUSH2 0x7A2 JUMPI PUSH1 0x40 MLOAD PUSH32 0xB4FA3FB300000000000000000000000000000000000000000000000000000000 DUP2 MSTORE PUSH1 0x4 ADD PUSH1 0x40 MLOAD DUP1 SWAP2 SUB SWAP1 REVERT JUMPDEST PUSH1 0x4 PUSH0 SWAP1 SLOAD SWAP1 PUSH2 0x100 EXP SWAP1 DIV PUSH4 0xFFFFFFFF AND PUSH4 0xFFFFFFFF AND DUP3 PUSH4 0xFFFFFFFF AND GT ISZERO PUSH2 0x7F9 JUMPI PUSH1 0x40 MLOAD PUSH32 0x334EE9A100000000000000000000000000000000000000000000000000000000 DUP2 MSTORE PUSH1 0x4 ADD PUSH1 0x40 MLOAD DUP1 SWAP2 SUB SWAP1 REVERT JUMPDEST PUSH0 PUSH2 0x807 DUP7 DUP7 DUP7 DUP7 DUP7 PUSH2 0x155C JUMP JUMPDEST SWAP1 POP PUSH0 DUP2 PUSH1 0x80 ADD MLOAD SWAP1 POP PUSH0 DUP2 EQ DUP1 PUSH2 0x820 JUMPI POP PUSH2 0x2710 DUP2 GT JUMPDEST ISZERO PUSH2 0x857 JUMPI PUSH1 0x40 MLOAD PUSH32 0x124955FB00000000000000000000000000000000000000000000000000000000 DUP2 MSTORE PUSH1 0x4 ADD PUSH1 0x40 MLOAD DUP1 SWAP2 SUB SWAP1 REVERT JUMPDEST PUSH0 DUP3 PUSH1 0x60 ADD MLOAD SWAP1 POP PUSH0 DUP2 GT ISZERO PUSH2 0x892 JUMPI PUSH2 0x891 PUSH32 0x0 DUP3 PUSH2 0x1858 JUMP JUMPDEST JUMPDEST PUSH2 0x8A8 DUP4 PUSH0 ADD MLOAD DUP5 PUSH1 0x20 ADD MLOAD DUP6 PUSH1 0x40 ADD MLOAD PUSH2 0x18F3 JUMP JUMPDEST PUSH0 DUP4 PUSH1 0xA0 ADD MLOAD SWAP1 POP PUSH0 DUP2 GT ISZERO PUSH2 0x8E4 JUMPI PUSH2 0x8E3 PUSH32 0x0 DUP9 DUP4 PUSH2 0x1A6C JUMP JUMPDEST JUMPDEST PUSH0 SELFBALANCE SWAP1 POP PUSH0 DUP2 GT ISZERO PUSH2 0x8FB JUMPI PUSH2 0x8FA CALLER DUP3 PUSH2 0x1AB5 JUMP JUMPDEST JUMPDEST POP POP POP POP POP POP PUSH2 0x909 PUSH2 0x1BCC JUMP JUMPDEST POP POP POP POP JUMP JUMPDEST PUSH0 PUSH0 PUSH0 SWAP1 SLOAD SWAP1 PUSH2 0x100 EXP SWAP1 DIV PUSH20 0xFFFFFFFFFFFFFFFFFFFFFFFFFFFFFFFFFFFFFFFF AND PUSH20 0xFFFFFFFFFFFFFFFFFFFFFFFFFFFFFFFFFFFFFFFF AND PUSH4 0x27262618 DUP4 PUSH1 0x40 MLOAD DUP3 PUSH4 0xFFFFFFFF AND PUSH1 0xE0 SHL DUP2 MSTORE PUSH1 0x4 ADD PUSH2 0x969 SWAP2 SWAP1 PUSH2 0x5395 JUMP JUMPDEST PUSH1 0x20 PUSH1 0x40 MLOAD DUP1 DUP4 SUB DUP2 DUP7 GAS STATICCALL ISZERO DUP1 ISZERO PUSH2 0x984 JUMPI RETURNDATASIZE PUSH0 PUSH0 RETURNDATACOPY RETURNDATASIZE PUSH0 REVERT JUMPDEST POP POP POP POP PUSH1 0x40 MLOAD RETURNDATASIZE PUSH1 0x1F NOT PUSH1 0x1F DUP3 ADD AND DUP3 ADD DUP1 PUSH1 0x40 MSTORE POP DUP2 ADD SWAP1 PUSH2 0x9A8 SWAP2 SWAP1 PUSH2 0x52A2 JUMP JUMPDEST SWAP1 POP SWAP2 SWAP1 POP JUMP JUMPDEST PUSH2 0x9B7 PUSH2 0x150D JUMP JUMPDEST PUSH0 PUSH20 0xFFFFFFFFFFFFFFFFFFFFFFFFFFFFFFFFFFFFFFFF AND DUP4 PUSH20 0xFFFFFFFFFFFFFFFFFFFFFFFFFFFFFFFFFFFFFFFF AND SUB PUSH2 0xA1C JUMPI PUSH1 0x40 MLOAD PUSH32 0xD92E233D00000000000000000000000000000000000000000000000000000000 DUP2 MSTORE PUSH1 0x4 ADD PUSH1 0x40 MLOAD DUP1 SWAP2 SUB SWAP1 REVERT JUMPDEST PUSH0 DUP6 DUP6 SWAP1 POP SUB PUSH2 0xA58 JUMPI PUSH1 0x40 MLOAD PUSH32 0xB4FA3FB300000000000000000000000000000000000000000000000000000000 DUP2 MSTORE PUSH1 0x4 ADD PUSH1 0x40 MLOAD DUP1 SWAP2 SUB SWAP1 REVERT JUMPDEST PUSH1 0x4 PUSH0 SWAP1 SLOAD SWAP1 PUSH2 0x100 EXP SWAP1 DIV PUSH4 0xFFFFFFFF AND PUSH4 0xFFFFFFFF AND DUP3 PUSH4 0xFFFFFFFF AND GT ISZERO PUSH2 0xAAF JUMPI PUSH1 0x40 MLOAD PUSH32 0x334EE9A100000000000000000000000000000000000000000000000000000000 DUP2 MSTORE PUSH1 0x4 ADD PUSH1 0x40 MLOAD DUP1 SWAP2 SUB SWAP1 REVERT JUMPDEST PUSH0 PUSH2 0xABC DUP7 DUP7 DUP6 DUP6 PUSH2 0x1BD6 JUMP JUMPDEST SWAP1 POP PUSH2 0xAD4 DUP2 PUSH0 ADD MLOAD DUP3 PUSH1 0x20 ADD MLOAD DUP4 PUSH1 0x40 ADD MLOAD PUSH2 0x18F3 JUMP JUMPDEST PUSH0 PUSH32 0x0 PUSH20 0xFFFFFFFFFFFFFFFFFFFFFFFFFFFFFFFFFFFFFFFF AND PUSH4 0x70A08231 ADDRESS PUSH1 0x40 MLOAD DUP3 PUSH4 0xFFFFFFFF AND PUSH1 0xE0 SHL DUP2 MSTORE PUSH1 0x4 ADD PUSH2 0xB2E SWAP2 SWAP1 PUSH2 0x4E89 JUMP JUMPDEST PUSH1 0x20 PUSH1 0x40 MLOAD DUP1 DUP4 SUB DUP2 DUP7 GAS STATICCALL ISZERO DUP1 ISZERO PUSH2 0xB49 JUMPI RETURNDATASIZE PUSH0 PUSH0 RETURNDATACOPY RETURNDATASIZE PUSH0 REVERT JUMPDEST POP POP POP POP PUSH1 0x40 MLOAD RETURNDATASIZE PUSH1 0x1F NOT PUSH1 0x1F DUP3 ADD AND DUP3 ADD DUP1 PUSH1 0x40 MSTORE POP DUP2 ADD SWAP1 PUSH2 0xB6D SWAP2 SWAP1 PUSH2 0x53C9 JUMP JUMPDEST SWAP1 POP PUSH0 DUP2 SUB PUSH2 0xBA8 JUMPI PUSH1 0x40 MLOAD PUSH32 0xABFF335A00000000000000000000000000000000000000000000000000000000 DUP2 MSTORE PUSH1 0x4 ADD PUSH1 0x40 MLOAD DUP1 SWAP2 SUB SWAP1 REVERT JUMPDEST PUSH2 0xBD3 PUSH32 0x0 DUP3 DUP8 PUSH2 0x1F69 JUMP JUMPDEST POP POP PUSH2 0xBDD PUSH2 0x1BCC JUMP JUMPDEST POP POP POP POP POP JUMP JUMPDEST PUSH1 0x2 SLOAD DUP2 JUMP JUMPDEST PUSH32 0x0 DUP2 JUMP JUMPDEST PUSH32 0x0 DUP2 JUMP JUMPDEST PUSH0 PUSH0 SWAP1 SLOAD SWAP1 PUSH2 0x100 EXP SWAP1 DIV PUSH20 0xFFFFFFFFFFFFFFFFFFFFFFFFFFFFFFFFFFFFFFFF AND DUP2 JUMP JUMPDEST PUSH32 0x0 DUP2 JUMP JUMPDEST PUSH0 PUSH0 PUSH0 SWAP1 SLOAD SWAP1 PUSH2 0x100 EXP SWAP1 DIV PUSH20 0xFFFFFFFFFFFFFFFFFFFFFFFFFFFFFFFFFFFFFFFF AND PUSH20 0xFFFFFFFFFFFFFFFFFFFFFFFFFFFFFFFFFFFFFFFF AND PUSH4 0x8DA5CB5B PUSH1 0x40 MLOAD DUP2 PUSH4 0xFFFFFFFF AND PUSH1 0xE0 SHL DUP2 MSTORE PUSH1 0x4 ADD PUSH1 0x20 PUSH1 0x40 MLOAD DUP1 DUP4 SUB DUP2 DUP7 GAS STATICCALL ISZERO DUP1 ISZERO PUSH2 0xCE4 JUMPI RETURNDATASIZE PUSH0 PUSH0 RETURNDATACOPY RETURNDATASIZE PUSH0 REVERT JUMPDEST POP POP POP POP PUSH1 0x40 MLOAD RETURNDATASIZE PUSH1 0x1F NOT PUSH1 0x1F DUP3 ADD AND DUP3 ADD DUP1 PUSH1 0x40 MSTORE POP DUP2 ADD SWAP1 PUSH2 0xD08 SWAP2 SWAP1 PUSH2 0x52A2 JUMP JUMPDEST SWAP1 POP SWAP1 JUMP JUMPDEST PUSH0 PUSH0 SWAP1 SLOAD SWAP1 PUSH2 0x100 EXP SWAP1 DIV PUSH20 0xFFFFFFFFFFFFFFFFFFFFFFFFFFFFFFFFFFFFFFFF AND PUSH20 0xFFFFFFFFFFFFFFFFFFFFFFFFFFFFFFFFFFFFFFFF AND PUSH4 0x8DA5CB5B PUSH1 0x40 MLOAD DUP2 PUSH4 0xFFFFFFFF AND PUSH1 0xE0 SHL DUP2 MSTORE PUSH1 0x4 ADD PUSH1 0x20 PUSH1 0x40 MLOAD DUP1 DUP4 SUB DUP2 DUP7 GAS STATICCALL ISZERO DUP1 ISZERO PUSH2 0xD76 JUMPI RETURNDATASIZE PUSH0 PUSH0 RETURNDATACOPY RETURNDATASIZE PUSH0 REVERT JUMPDEST POP POP POP POP PUSH1 0x40 MLOAD RETURNDATASIZE PUSH1 0x1F NOT PUSH1 0x1F DUP3 ADD AND DUP3 ADD DUP1 PUSH1 0x40 MSTORE POP DUP2 ADD SWAP1 PUSH2 0xD9A SWAP2 SWAP1 PUSH2 0x52A2 JUMP JUMPDEST PUSH20 0xFFFFFFFFFFFFFFFFFFFFFFFFFFFFFFFFFFFFFFFF AND CALLER PUSH20 0xFFFFFFFFFFFFFFFFFFFFFFFFFFFFFFFFFFFFFFFF AND EQ PUSH2 0xE07 JUMPI PUSH1 0x40 MLOAD PUSH32 0x8C379A000000000000000000000000000000000000000000000000000000000 DUP2 MSTORE PUSH1 0x4 ADD PUSH2 0xDFE SWAP1 PUSH2 0x5327 JUMP JUMPDEST PUSH1 0x40 MLOAD DUP1 SWAP2 SUB SWAP1 REVERT JUMPDEST DUP1 PUSH1 0x2 DUP2 SWAP1 SSTORE POP POP JUMP JUMPDEST PUSH32 0x0 DUP2 JUMP JUMPDEST PUSH0 PUSH0 SWAP1 SLOAD SWAP1 PUSH2 0x100 EXP SWAP1 DIV PUSH20 0xFFFFFFFFFFFFFFFFFFFFFFFFFFFFFFFFFFFFFFFF AND PUSH20 0xFFFFFFFFFFFFFFFFFFFFFFFFFFFFFFFFFFFFFFFF AND PUSH4 0x8DA5CB5B PUSH1 0x40 MLOAD DUP2 PUSH4 0xFFFFFFFF AND PUSH1 0xE0 SHL DUP2 MSTORE PUSH1 0x4 ADD PUSH1 0x20 PUSH1 0x40 MLOAD DUP1 DUP4 SUB DUP2 DUP7 GAS STATICCALL ISZERO DUP1 ISZERO PUSH2 0xE9E JUMPI RETURNDATASIZE PUSH0 PUSH0 RETURNDATACOPY RETURNDATASIZE PUSH0 REVERT JUMPDEST POP POP POP POP PUSH1 0x40 MLOAD RETURNDATASIZE PUSH1 0x1F NOT PUSH1 0x1F DUP3 ADD AND DUP3 ADD DUP1 PUSH1 0x40 MSTORE POP DUP2 ADD SWAP1 PUSH2 0xEC2 SWAP2 SWAP1 PUSH2 0x52A2 JUMP JUMPDEST PUSH20 0xFFFFFFFFFFFFFFFFFFFFFFFFFFFFFFFFFFFFFFFF AND CALLER PUSH20 0xFFFFFFFFFFFFFFFFFFFFFFFFFFFFFFFFFFFFFFFF AND EQ PUSH2 0xF2F JUMPI PUSH1 0x40 MLOAD PUSH32 0x8C379A000000000000000000000000000000000000000000000000000000000 DUP2 MSTORE PUSH1 0x4 ADD PUSH2 0xF26 SWAP1 PUSH2 0x5327 JUMP JUMPDEST PUSH1 0x40 MLOAD DUP1 SWAP2 SUB SWAP1 REVERT JUMPDEST PUSH2 0xF38 DUP2 PUSH2 0x2074 JUMP JUMPDEST POP JUMP JUMPDEST PUSH2 0xF43 PUSH2 0x49E2 JUMP JUMPDEST PUSH0 PUSH1 0x1 PUSH0 DUP5 PUSH20 0xFFFFFFFFFFFFFFFFFFFFFFFFFFFFFFFFFFFFFFFF AND PUSH20 0xFFFFFFFFFFFFFFFFFFFFFFFFFFFFFFFFFFFFFFFF AND DUP2 MSTORE PUSH1 0x20 ADD SWAP1 DUP2 MSTORE PUSH1 0x20 ADD PUSH0 KECCAK256 SWAP1 POP PUSH0 PUSH20 0xFFFFFFFFFFFFFFFFFFFFFFFFFFFFFFFFFFFFFFFF AND DUP2 PUSH0 ADD PUSH0 SWAP1 SLOAD SWAP1 PUSH2 0x100 EXP SWAP1 DIV PUSH20 0xFFFFFFFFFFFFFFFFFFFFFFFFFFFFFFFFFFFFFFFF AND PUSH20 0xFFFFFFFFFFFFFFFFFFFFFFFFFFFFFFFFFFFFFFFF AND SUB PUSH2 0x10E0 JUMPI PUSH2 0xFE1 DUP4 PUSH2 0x2225 JUMP JUMPDEST SWAP2 POP DUP2 PUSH1 0x1 PUSH0 DUP6 PUSH20 0xFFFFFFFFFFFFFFFFFFFFFFFFFFFFFFFFFFFFFFFF AND PUSH20 0xFFFFFFFFFFFFFFFFFFFFFFFFFFFFFFFFFFFFFFFF AND DUP2 MSTORE PUSH1 0x20 ADD SWAP1 DUP2 MSTORE PUSH1 0x20 ADD PUSH0 KECCAK256 PUSH0 DUP3 ADD MLOAD DUP2 PUSH0 ADD PUSH0 PUSH2 0x100 EXP DUP2 SLOAD DUP2 PUSH20 0xFFFFFFFFFFFFFFFFFFFFFFFFFFFFFFFFFFFFFFFF MUL NOT AND SWAP1 DUP4 PUSH20 0xFFFFFFFFFFFFFFFFFFFFFFFFFFFFFFFFFFFFFFFF AND MUL OR SWAP1 SSTORE POP PUSH1 0x20 DUP3 ADD MLOAD DUP2 PUSH0 ADD PUSH1 0x14 PUSH2 0x100 EXP DUP2 SLOAD DUP2 PUSH3 0xFFFFFF MUL NOT AND SWAP1 DUP4 PUSH3 0xFFFFFF AND MUL OR SWAP1 SSTORE POP PUSH1 0x40 DUP3 ADD MLOAD DUP2 PUSH0 ADD PUSH1 0x17 PUSH2 0x100 EXP DUP2 SLOAD DUP2 PUSH1 0xFF MUL NOT AND SWAP1 DUP4 PUSH1 0xFF AND MUL OR SWAP1 SSTORE POP PUSH1 0x60 DUP3 ADD MLOAD DUP2 PUSH0 ADD PUSH1 0x18 PUSH2 0x100 EXP DUP2 SLOAD DUP2 PUSH8 0xFFFFFFFFFFFFFFFF MUL NOT AND SWAP1 DUP4 PUSH8 0xFFFFFFFFFFFFFFFF AND MUL OR SWAP1 SSTORE POP SWAP1 POP POP POP PUSH2 0x137A JUMP JUMPDEST PUSH1 0x2 SLOAD DUP2 PUSH0 ADD PUSH1 0x18 SWAP1 SLOAD SWAP1 PUSH2 0x100 EXP SWAP1 DIV PUSH8 0xFFFFFFFFFFFFFFFF AND PUSH8 0xFFFFFFFFFFFFFFFF AND TIMESTAMP PUSH2 0x1110 SWAP2 SWAP1 PUSH2 0x5421 JUMP JUMPDEST GT ISZERO PUSH2 0x12A7 JUMPI PUSH0 PUSH2 0x1120 DUP5 PUSH2 0x2225 JUMP JUMPDEST SWAP1 POP DUP2 PUSH0 ADD PUSH0 SWAP1 SLOAD SWAP1 PUSH2 0x100 EXP SWAP1 DIV PUSH20 0xFFFFFFFFFFFFFFFFFFFFFFFFFFFFFFFFFFFFFFFF AND PUSH20 0xFFFFFFFFFFFFFFFFFFFFFFFFFFFFFFFFFFFFFFFF AND DUP2 PUSH0 ADD MLOAD PUSH20 0xFFFFFFFFFFFFFFFFFFFFFFFFFFFFFFFFFFFFFFFF AND EQ PUSH2 0x127B JUMPI DUP1 PUSH1 0x1 PUSH0 DUP7 PUSH20 0xFFFFFFFFFFFFFFFFFFFFFFFFFFFFFFFFFFFFFFFF AND PUSH20 0xFFFFFFFFFFFFFFFFFFFFFFFFFFFFFFFFFFFFFFFF AND DUP2 MSTORE PUSH1 0x20 ADD SWAP1 DUP2 MSTORE PUSH1 0x20 ADD PUSH0 KECCAK256 PUSH0 DUP3 ADD MLOAD DUP2 PUSH0 ADD PUSH0 PUSH2 0x100 EXP DUP2 SLOAD DUP2 PUSH20 0xFFFFFFFFFFFFFFFFFFFFFFFFFFFFFFFFFFFFFFFF MUL NOT AND SWAP1 DUP4 PUSH20 0xFFFFFFFFFFFFFFFFFFFFFFFFFFFFFFFFFFFFFFFF AND MUL OR SWAP1 SSTORE POP PUSH1 0x20 DUP3 ADD MLOAD DUP2 PUSH0 ADD PUSH1 0x14 PUSH2 0x100 EXP DUP2 SLOAD DUP2 PUSH3 0xFFFFFF MUL NOT AND SWAP1 DUP4 PUSH3 0xFFFFFF AND MUL OR SWAP1 SSTORE POP PUSH1 0x40 DUP3 ADD MLOAD DUP2 PUSH0 ADD PUSH1 0x17 PUSH2 0x100 EXP DUP2 SLOAD DUP2 PUSH1 0xFF MUL NOT AND SWAP1 DUP4 PUSH1 0xFF AND MUL OR SWAP1 SSTORE POP PUSH1 0x60 DUP3 ADD MLOAD DUP2 PUSH0 ADD PUSH1 0x18 PUSH2 0x100 EXP DUP2 SLOAD DUP2 PUSH8 0xFFFFFFFFFFFFFFFF MUL NOT AND SWAP1 DUP4 PUSH8 0xFFFFFFFFFFFFFFFF AND MUL OR SWAP1 SSTORE POP SWAP1 POP POP DUP1 SWAP3 POP POP POP PUSH2 0x137A JUMP JUMPDEST TIMESTAMP DUP3 PUSH0 ADD PUSH1 0x18 PUSH2 0x100 EXP DUP2 SLOAD DUP2 PUSH8 0xFFFFFFFFFFFFFFFF MUL NOT AND SWAP1 DUP4 PUSH8 0xFFFFFFFFFFFFFFFF AND MUL OR SWAP1 SSTORE POP POP JUMPDEST DUP1 PUSH1 0x40 MLOAD DUP1 PUSH1 0x80 ADD PUSH1 0x40 MSTORE SWAP1 DUP2 PUSH0 DUP3 ADD PUSH0 SWAP1 SLOAD SWAP1 PUSH2 0x100 EXP SWAP1 DIV PUSH20 0xFFFFFFFFFFFFFFFFFFFFFFFFFFFFFFFFFFFFFFFF AND PUSH20 0xFFFFFFFFFFFFFFFFFFFFFFFFFFFFFFFFFFFFFFFF AND PUSH20 0xFFFFFFFFFFFFFFFFFFFFFFFFFFFFFFFFFFFFFFFF AND DUP2 MSTORE PUSH1 0x20 ADD PUSH0 DUP3 ADD PUSH1 0x14 SWAP1 SLOAD SWAP1 PUSH2 0x100 EXP SWAP1 DIV PUSH3 0xFFFFFF AND PUSH3 0xFFFFFF AND PUSH3 0xFFFFFF AND DUP2 MSTORE PUSH1 0x20 ADD PUSH0 DUP3 ADD PUSH1 0x17 SWAP1 SLOAD SWAP1 PUSH2 0x100 EXP SWAP1 DIV PUSH1 0xFF AND PUSH1 0xFF AND PUSH1 0xFF AND DUP2 MSTORE PUSH1 0x20 ADD PUSH0 DUP3 ADD PUSH1 0x18 SWAP1 SLOAD SWAP1 PUSH2 0x100 EXP SWAP1 DIV PUSH8 0xFFFFFFFFFFFFFFFF AND PUSH8 0xFFFFFFFFFFFFFFFF AND PUSH8 0xFFFFFFFFFFFFFFFF AND DUP2 MSTORE POP POP SWAP2 POP POP JUMPDEST SWAP2 SWAP1 POP JUMP JUMPDEST PUSH32 0x0 DUP2 JUMP JUMPDEST PUSH2 0x13AB PUSH2 0x49E2 JUMP JUMPDEST PUSH1 0x1 PUSH0 DUP4 PUSH20 0xFFFFFFFFFFFFFFFFFFFFFFFFFFFFFFFFFFFFFFFF AND PUSH20 0xFFFFFFFFFFFFFFFFFFFFFFFFFFFFFFFFFFFFFFFF AND DUP2 MSTORE PUSH1 0x20 ADD SWAP1 DUP2 MSTORE PUSH1 0x20 ADD PUSH0 KECCAK256 PUSH1 0x40 MLOAD DUP1 PUSH1 0x80 ADD PUSH1 0x40 MSTORE SWAP1 DUP2 PUSH0 DUP3 ADD PUSH0 SWAP1 SLOAD SWAP1 PUSH2 0x100 EXP SWAP1 DIV PUSH20 0xFFFFFFFFFFFFFFFFFFFFFFFFFFFFFFFFFFFFFFFF AND PUSH20 0xFFFFFFFFFFFFFFFFFFFFFFFFFFFFFFFFFFFFFFFF AND PUSH20 0xFFFFFFFFFFFFFFFFFFFFFFFFFFFFFFFFFFFFFFFF AND DUP2 MSTORE PUSH1 0x20 ADD PUSH0 DUP3 ADD PUSH1 0x14 SWAP1 SLOAD SWAP1 PUSH2 0x100 EXP SWAP1 DIV PUSH3 0xFFFFFF AND PUSH3 0xFFFFFF AND PUSH3 0xFFFFFF AND DUP2 MSTORE PUSH1 0x20 ADD PUSH0 DUP3 ADD PUSH1 0x17 SWAP1 SLOAD SWAP1 PUSH2 0x100 EXP SWAP1 DIV PUSH1 0xFF AND PUSH1 0xFF AND PUSH1 0xFF AND DUP2 MSTORE PUSH1 0x20 ADD PUSH0 DUP3 ADD PUSH1 0x18 SWAP1 SLOAD SWAP1 PUSH2 0x100 EXP SWAP1 DIV PUSH8 0xFFFFFFFFFFFFFFFF AND PUSH8 0xFFFFFFFFFFFFFFFF AND PUSH8 0xFFFFFFFFFFFFFFFF AND DUP2 MSTORE POP POP SWAP1 POP PUSH0 PUSH20 0xFFFFFFFFFFFFFFFFFFFFFFFFFFFFFFFFFFFFFFFF AND DUP2 PUSH0 ADD MLOAD PUSH20 0xFFFFFFFFFFFFFFFFFFFFFFFFFFFFFFFFFFFFFFFF AND SUB PUSH2 0x14FA JUMPI PUSH2 0x14F7 DUP3 PUSH2 0x2225 JUMP JUMPDEST SWAP1 POP JUMPDEST SWAP2 SWAP1 POP JUMP JUMPDEST PUSH2 0x1509 DUP3 DUP3 PUSH2 0x27D5 JUMP JUMPDEST POP POP JUMP JUMPDEST PUSH1 0x2 PUSH1 0x3 SLOAD SUB PUSH2 0x1552 JUMPI PUSH1 0x40 MLOAD PUSH32 0x8C379A000000000000000000000000000000000000000000000000000000000 DUP2 MSTORE PUSH1 0x4 ADD PUSH2 0x1549 SWAP1 PUSH2 0x549E JUMP JUMPDEST PUSH1 0x40 MLOAD DUP1 SWAP2 SUB SWAP1 REVERT JUMPDEST PUSH1 0x2 PUSH1 0x3 DUP2 SWAP1 SSTORE POP JUMP JUMPDEST PUSH2 0x1564 PUSH2 0x4A2E JUMP JUMPDEST PUSH0 PUSH32 0x0 SWAP1 POP PUSH0 DUP8 DUP8 SWAP1 POP SWAP1 POP DUP1 PUSH8 0xFFFFFFFFFFFFFFFF DUP2 GT ISZERO PUSH2 0x15A9 JUMPI PUSH2 0x15A8 PUSH2 0x4D0F JUMP JUMPDEST JUMPDEST PUSH1 0x40 MLOAD SWAP1 DUP1 DUP3 MSTORE DUP1 PUSH1 0x20 MUL PUSH1 0x20 ADD DUP3 ADD PUSH1 0x40 MSTORE DUP1 ISZERO PUSH2 0x15DC JUMPI DUP2 PUSH1 0x20 ADD JUMPDEST PUSH1 0x60 DUP2 MSTORE PUSH1 0x20 ADD SWAP1 PUSH1 0x1 SWAP1 SUB SWAP1 DUP2 PUSH2 0x15C7 JUMPI SWAP1 POP JUMPDEST POP DUP4 PUSH1 0x20 ADD DUP2 SWAP1 MSTORE POP DUP1 PUSH8 0xFFFFFFFFFFFFFFFF DUP2 GT ISZERO PUSH2 0x15FF JUMPI PUSH2 0x15FE PUSH2 0x4D0F JUMP JUMPDEST JUMPDEST PUSH1 0x40 MLOAD SWAP1 DUP1 DUP3 MSTORE DUP1 PUSH1 0x1F ADD PUSH1 0x1F NOT AND PUSH1 0x20 ADD DUP3 ADD PUSH1 0x40 MSTORE DUP1 ISZERO PUSH2 0x1631 JUMPI DUP2 PUSH1 0x20 ADD PUSH1 0x1 DUP3 MUL DUP1 CALLDATASIZE DUP4 CALLDATACOPY DUP1 DUP3 ADD SWAP2 POP POP SWAP1 POP JUMPDEST POP DUP4 PUSH0 ADD DUP2 SWAP1 MSTORE POP PUSH0 PUSH0 SWAP1 POP JUMPDEST DUP2 DUP2 LT ISZERO PUSH2 0x184C JUMPI PUSH0 DUP10 DUP10 DUP4 DUP2 DUP2 LT PUSH2 0x165A JUMPI PUSH2 0x1659 PUSH2 0x54BC JUMP JUMPDEST JUMPDEST SWAP1 POP PUSH1 0x40 MUL ADD PUSH0 ADD PUSH1 0x20 DUP2 ADD SWAP1 PUSH2 0x1671 SWAP2 SWAP1 PUSH2 0x5155 JUMP JUMPDEST SWAP1 POP PUSH0 PUSH20 0xFFFFFFFFFFFFFFFFFFFFFFFFFFFFFFFFFFFFFFFF AND DUP2 PUSH20 0xFFFFFFFFFFFFFFFFFFFFFFFFFFFFFFFFFFFFFFFF AND SUB PUSH2 0x16D8 JUMPI PUSH1 0x40 MLOAD PUSH32 0x7401D93100000000000000000000000000000000000000000000000000000000 DUP2 MSTORE PUSH1 0x4 ADD PUSH1 0x40 MLOAD DUP1 SWAP2 SUB SWAP1 REVERT JUMPDEST PUSH0 DUP11 DUP11 DUP5 DUP2 DUP2 LT PUSH2 0x16EC JUMPI PUSH2 0x16EB PUSH2 0x54BC JUMP JUMPDEST JUMPDEST SWAP1 POP PUSH1 0x40 MUL ADD PUSH1 0x20 ADD PUSH1 0x20 DUP2 ADD SWAP1 PUSH2 0x1704 SWAP2 SWAP1 PUSH2 0x5520 JUMP JUMPDEST PUSH2 0xFFFF AND SWAP1 POP DUP1 DUP7 PUSH1 0x80 ADD DUP2 DUP2 MLOAD ADD SWAP2 POP DUP2 DUP2 MSTORE POP POP PUSH0 DUP2 SUB PUSH2 0x1728 JUMPI POP POP PUSH2 0x1841 JUMP JUMPDEST PUSH0 PUSH2 0x2710 DUP3 DUP10 MUL DUP2 PUSH2 0x173D JUMPI PUSH2 0x173C PUSH2 0x554B JUMP JUMPDEST JUMPDEST DIV SWAP1 POP PUSH0 DUP2 SUB PUSH2 0x174F JUMPI POP POP POP PUSH2 0x1841 JUMP JUMPDEST DUP1 DUP8 PUSH1 0x60 ADD DUP2 DUP2 MLOAD ADD SWAP2 POP DUP2 DUP2 MSTORE POP POP DUP6 PUSH20 0xFFFFFFFFFFFFFFFFFFFFFFFFFFFFFFFFFFFFFFFF AND DUP4 PUSH20 0xFFFFFFFFFFFFFFFFFFFFFFFFFFFFFFFFFFFFFFFF AND SUB PUSH2 0x17AA JUMPI DUP1 DUP8 PUSH1 0xA0 ADD DUP2 DUP2 MLOAD ADD SWAP2 POP DUP2 DUP2 MSTORE POP POP POP POP POP PUSH2 0x1841 JUMP JUMPDEST PUSH0 PUSH0 PUSH2 0x17B8 DUP6 DUP5 DUP15 DUP15 PUSH2 0x28AC JUMP JUMPDEST SWAP2 POP SWAP2 POP DUP2 DUP10 PUSH0 ADD MLOAD DUP11 PUSH1 0x40 ADD MLOAD DUP2 MLOAD DUP2 LT PUSH2 0x17D7 JUMPI PUSH2 0x17D6 PUSH2 0x54BC JUMP JUMPDEST JUMPDEST PUSH1 0x20 ADD ADD SWAP1 PUSH31 0xFFFFFFFFFFFFFFFFFFFFFFFFFFFFFFFFFFFFFFFFFFFFFFFFFFFFFFFFFFFFFF NOT AND SWAP1 DUP2 PUSH0 BYTE SWAP1 MSTORE8 POP DUP1 DUP10 PUSH1 0x20 ADD MLOAD DUP11 PUSH1 0x40 ADD MLOAD DUP2 MLOAD DUP2 LT PUSH2 0x1821 JUMPI PUSH2 0x1820 PUSH2 0x54BC JUMP JUMPDEST JUMPDEST PUSH1 0x20 MUL PUSH1 0x20 ADD ADD DUP2 SWAP1 MSTORE POP DUP9 PUSH1 0x40 ADD DUP1 MLOAD PUSH1 0x1 ADD SWAP1 DUP2 DUP2 MSTORE POP POP POP POP POP POP POP JUMPDEST DUP1 PUSH1 0x1 ADD SWAP1 POP PUSH2 0x163E JUMP JUMPDEST POP POP POP SWAP6 SWAP5 POP POP POP POP POP JUMP JUMPDEST DUP1 SELFBALANCE LT ISZERO PUSH2 0x1892 JUMPI PUSH1 0x40 MLOAD PUSH32 0x6A12F10400000000000000000000000000000000000000000000000000000000 DUP2 MSTORE PUSH1 0x4 ADD PUSH1 0x40 MLOAD DUP1 SWAP2 SUB SWAP1 REVERT JUMPDEST DUP2 PUSH20 0xFFFFFFFFFFFFFFFFFFFFFFFFFFFFFFFFFFFFFFFF AND PUSH4 0xD0E30DB0 DUP3 PUSH1 0x40 MLOAD DUP3 PUSH4 0xFFFFFFFF AND PUSH1 0xE0 SHL DUP2 MSTORE PUSH1 0x4 ADD PUSH0 PUSH1 0x40 MLOAD DUP1 DUP4 SUB DUP2 DUP6 DUP9 DUP1 EXTCODESIZE ISZERO DUP1 ISZERO PUSH2 0x18D8 JUMPI PUSH0 PUSH0 REVERT JUMPDEST POP GAS CALL ISZERO DUP1 ISZERO PUSH2 0x18EA JUMPI RETURNDATASIZE PUSH0 PUSH0 RETURNDATACOPY RETURNDATASIZE PUSH0 REVERT JUMPDEST POP POP POP POP POP POP POP JUMP JUMPDEST PUSH0 DUP2 SUB PUSH2 0x192C JUMPI PUSH1 0x40 MLOAD PUSH32 0xABFF335A00000000000000000000000000000000000000000000000000000000 DUP2 MSTORE PUSH1 0x4 ADD PUSH1 0x40 MLOAD DUP1 SWAP2 SUB SWAP1 REVERT JUMPDEST DUP1 DUP3 MLOAD EQ PUSH2 0x19DC JUMPI PUSH0 DUP2 PUSH8 0xFFFFFFFFFFFFFFFF DUP2 GT ISZERO PUSH2 0x194F JUMPI PUSH2 0x194E PUSH2 0x4D0F JUMP JUMPDEST JUMPDEST PUSH1 0x40 MLOAD SWAP1 DUP1 DUP3 MSTORE DUP1 PUSH1 0x20 MUL PUSH1 0x20 ADD DUP3 ADD PUSH1 0x40 MSTORE DUP1 ISZERO PUSH2 0x1982 JUMPI DUP2 PUSH1 0x20 ADD JUMPDEST PUSH1 0x60 DUP2 MSTORE PUSH1 0x20 ADD SWAP1 PUSH1 0x1 SWAP1 SUB SWAP1 DUP2 PUSH2 0x196D JUMPI SWAP1 POP JUMPDEST POP SWAP1 POP PUSH0 PUSH0 SWAP1 POP JUMPDEST DUP3 DUP2 LT ISZERO PUSH2 0x19D6 JUMPI DUP4 DUP2 DUP2 MLOAD DUP2 LT PUSH2 0x19A5 JUMPI PUSH2 0x19A4 PUSH2 0x54BC JUMP JUMPDEST JUMPDEST PUSH1 0x20 MUL PUSH1 0x20 ADD ADD MLOAD DUP3 DUP3 DUP2 MLOAD DUP2 LT PUSH2 0x19C0 JUMPI PUSH2 0x19BF PUSH2 0x54BC JUMP JUMPDEST JUMPDEST PUSH1 0x20 MUL PUSH1 0x20 ADD ADD DUP2 SWAP1 MSTORE POP DUP1 PUSH1 0x1 ADD SWAP1 POP PUSH2 0x198A JUMP JUMPDEST POP DUP1 SWAP3 POP POP JUMPDEST DUP1 DUP4 MSTORE PUSH32 0x0 PUSH20 0xFFFFFFFFFFFFFFFFFFFFFFFFFFFFFFFFFFFFFFFF AND PUSH4 0x24856BC3 DUP5 DUP5 PUSH1 0x40 MLOAD DUP4 PUSH4 0xFFFFFFFF AND PUSH1 0xE0 SHL DUP2 MSTORE PUSH1 0x4 ADD PUSH2 0x1A3A SWAP3 SWAP2 SWAP1 PUSH2 0x56CD JUMP JUMPDEST PUSH0 PUSH1 0x40 MLOAD DUP1 DUP4 SUB DUP2 PUSH0 DUP8 DUP1 EXTCODESIZE ISZERO DUP1 ISZERO PUSH2 0x1A51 JUMPI PUSH0 PUSH0 REVERT JUMPDEST POP GAS CALL ISZERO DUP1 ISZERO PUSH2 0x1A63 JUMPI RETURNDATASIZE PUSH0 PUSH0 RETURNDATACOPY RETURNDATASIZE PUSH0 REVERT JUMPDEST POP POP POP POP POP POP POP JUMP JUMPDEST PUSH0 DUP2 SUB PUSH2 0x1AA5 JUMPI PUSH1 0x40 MLOAD PUSH32 0x1F2A200500000000000000000000000000000000000000000000000000000000 DUP2 MSTORE PUSH1 0x4 ADD PUSH1 0x40 MLOAD DUP1 SWAP2 SUB SWAP1 REVERT JUMPDEST PUSH2 0x1AB0 DUP4 DUP4 DUP4 PUSH2 0x2A39 JUMP JUMPDEST POP POP POP JUMP JUMPDEST PUSH0 DUP2 SUB PUSH2 0x1AEE JUMPI PUSH1 0x40 MLOAD PUSH32 0x1F2A200500000000000000000000000000000000000000000000000000000000 DUP2 MSTORE PUSH1 0x4 ADD PUSH1 0x40 MLOAD DUP1 SWAP2 SUB SWAP1 REVERT JUMPDEST DUP1 SELFBALANCE LT ISZERO PUSH2 0x1B28 JUMPI PUSH1 0x40 MLOAD PUSH32 0x6A12F10400000000000000000000000000000000000000000000000000000000 DUP2 MSTORE PUSH1 0x4 ADD PUSH1 0x40 MLOAD DUP1 SWAP2 SUB SWAP1 REVERT JUMPDEST PUSH0 DUP3 PUSH20 0xFFFFFFFFFFFFFFFFFFFFFFFFFFFFFFFFFFFFFFFF AND DUP3 PUSH1 0x40 MLOAD PUSH2 0x1B4D SWAP1 PUSH2 0x572F JUMP JUMPDEST PUSH0 PUSH1 0x40 MLOAD DUP1 DUP4 SUB DUP2 DUP6 DUP8 GAS CALL SWAP3 POP POP POP RETURNDATASIZE DUP1 PUSH0 DUP2 EQ PUSH2 0x1B87 JUMPI PUSH1 0x40 MLOAD SWAP2 POP PUSH1 0x1F NOT PUSH1 0x3F RETURNDATASIZE ADD AND DUP3 ADD PUSH1 0x40 MSTORE RETURNDATASIZE DUP3 MSTORE RETURNDATASIZE PUSH0 PUSH1 0x20 DUP5 ADD RETURNDATACOPY PUSH2 0x1B8C JUMP JUMPDEST PUSH1 0x60 SWAP2 POP JUMPDEST POP POP SWAP1 POP DUP1 PUSH2 0x1BC7 JUMPI PUSH1 0x40 MLOAD PUSH32 0xCEF4EED700000000000000000000000000000000000000000000000000000000 DUP2 MSTORE PUSH1 0x4 ADD PUSH1 0x40 MLOAD DUP1 SWAP2 SUB SWAP1 REVERT JUMPDEST POP POP POP JUMP JUMPDEST PUSH1 0x1 PUSH1 0x3 DUP2 SWAP1 SSTORE POP JUMP JUMPDEST PUSH2 0x1BDE PUSH2 0x4A60 JUMP JUMPDEST PUSH0 PUSH32 0x0 SWAP1 POP PUSH0 DUP7 DUP7 SWAP1 POP SWAP1 POP DUP1 PUSH8 0xFFFFFFFFFFFFFFFF DUP2 GT ISZERO PUSH2 0x1C23 JUMPI PUSH2 0x1C22 PUSH2 0x4D0F JUMP JUMPDEST JUMPDEST PUSH1 0x40 MLOAD SWAP1 DUP1 DUP3 MSTORE DUP1 PUSH1 0x20 MUL PUSH1 0x20 ADD DUP3 ADD PUSH1 0x40 MSTORE DUP1 ISZERO PUSH2 0x1C56 JUMPI DUP2 PUSH1 0x20 ADD JUMPDEST PUSH1 0x60 DUP2 MSTORE PUSH1 0x20 ADD SWAP1 PUSH1 0x1 SWAP1 SUB SWAP1 DUP2 PUSH2 0x1C41 JUMPI SWAP1 POP JUMPDEST POP DUP4 PUSH1 0x20 ADD DUP2 SWAP1 MSTORE POP DUP1 PUSH8 0xFFFFFFFFFFFFFFFF DUP2 GT ISZERO PUSH2 0x1C79 JUMPI PUSH2 0x1C78 PUSH2 0x4D0F JUMP JUMPDEST JUMPDEST PUSH1 0x40 MLOAD SWAP1 DUP1 DUP3 MSTORE DUP1 PUSH1 0x1F ADD PUSH1 0x1F NOT AND PUSH1 0x20 ADD DUP3 ADD PUSH1 0x40 MSTORE DUP1 ISZERO PUSH2 0x1CAB JUMPI DUP2 PUSH1 0x20 ADD PUSH1 0x1 DUP3 MUL DUP1 CALLDATASIZE DUP4 CALLDATACOPY DUP1 DUP3 ADD SWAP2 POP POP SWAP1 POP JUMPDEST POP DUP4 PUSH0 ADD DUP2 SWAP1 MSTORE POP PUSH0 PUSH0 SWAP1 POP JUMPDEST DUP2 DUP2 LT ISZERO PUSH2 0x1F5E JUMPI PUSH0 DUP9 DUP9 DUP4 DUP2 DUP2 LT PUSH2 0x1CD4 JUMPI PUSH2 0x1CD3 PUSH2 0x54BC JUMP JUMPDEST JUMPDEST SWAP1 POP PUSH1 0x40 MUL ADD PUSH0 ADD PUSH1 0x20 DUP2 ADD SWAP1 PUSH2 0x1CEB SWAP2 SWAP1 PUSH2 0x5155 JUMP JUMPDEST SWAP1 POP PUSH0 DUP10 DUP10 DUP5 DUP2 DUP2 LT PUSH2 0x1D01 JUMPI PUSH2 0x1D00 PUSH2 0x54BC JUMP JUMPDEST JUMPDEST SWAP1 POP PUSH1 0x40 MUL ADD PUSH1 0x20 ADD CALLDATALOAD SWAP1 POP PUSH0 DUP2 SUB PUSH2 0x1D1B JUMPI POP POP PUSH2 0x1F53 JUMP JUMPDEST PUSH0 PUSH20 0xFFFFFFFFFFFFFFFFFFFFFFFFFFFFFFFFFFFFFFFF AND DUP3 PUSH20 0xFFFFFFFFFFFFFFFFFFFFFFFFFFFFFFFFFFFFFFFF AND SUB PUSH2 0x1D80 JUMPI PUSH1 0x40 MLOAD PUSH32 0x7401D93100000000000000000000000000000000000000000000000000000000 DUP2 MSTORE PUSH1 0x4 ADD PUSH1 0x40 MLOAD DUP1 SWAP2 SUB SWAP1 REVERT JUMPDEST PUSH0 DUP6 PUSH20 0xFFFFFFFFFFFFFFFFFFFFFFFFFFFFFFFFFFFFFFFF AND DUP4 PUSH20 0xFFFFFFFFFFFFFFFFFFFFFFFFFFFFFFFFFFFFFFFF AND EQ SWAP1 POP PUSH0 DUP9 ISZERO PUSH2 0x1E87 JUMPI PUSH0 DUP5 PUSH20 0xFFFFFFFFFFFFFFFFFFFFFFFFFFFFFFFFFFFFFFFF AND PUSH4 0x70A08231 ADDRESS PUSH1 0x40 MLOAD DUP3 PUSH4 0xFFFFFFFF AND PUSH1 0xE0 SHL DUP2 MSTORE PUSH1 0x4 ADD PUSH2 0x1DF3 SWAP2 SWAP1 PUSH2 0x4E89 JUMP JUMPDEST PUSH1 0x20 PUSH1 0x40 MLOAD DUP1 DUP4 SUB DUP2 DUP7 GAS STATICCALL ISZERO DUP1 ISZERO PUSH2 0x1E0E JUMPI RETURNDATASIZE PUSH0 PUSH0 RETURNDATACOPY RETURNDATASIZE PUSH0 REVERT JUMPDEST POP POP POP POP PUSH1 0x40 MLOAD RETURNDATASIZE PUSH1 0x1F NOT PUSH1 0x1F DUP3 ADD AND DUP3 ADD DUP1 PUSH1 0x40 MSTORE POP DUP2 ADD SWAP1 PUSH2 0x1E32 SWAP2 SWAP1 PUSH2 0x53C9 JUMP JUMPDEST SWAP1 POP DUP4 DUP2 LT ISZERO PUSH2 0x1E6E JUMPI PUSH1 0x40 MLOAD PUSH32 0x6998F5B00000000000000000000000000000000000000000000000000000000 DUP2 MSTORE PUSH1 0x4 ADD PUSH1 0x40 MLOAD DUP1 SWAP2 SUB SWAP1 REVERT JUMPDEST DUP3 ISZERO PUSH2 0x1E7E JUMPI POP POP POP POP POP PUSH2 0x1F53 JUMP JUMPDEST DUP4 SWAP2 POP POP PUSH2 0x1EBB JUMP JUMPDEST PUSH0 PUSH2 0x1E93 DUP6 DUP6 CALLER PUSH2 0x2B88 JUMP JUMPDEST SWAP1 POP DUP3 ISZERO PUSH2 0x1EA5 JUMPI POP POP POP POP POP PUSH2 0x1F53 JUMP JUMPDEST DUP1 SWAP2 POP PUSH0 DUP3 SUB PUSH2 0x1EB9 JUMPI POP POP POP POP POP PUSH2 0x1F53 JUMP JUMPDEST POP JUMPDEST PUSH0 PUSH0 PUSH2 0x1EC9 DUP7 DUP5 ADDRESS DUP16 PUSH2 0x2DC3 JUMP JUMPDEST SWAP2 POP SWAP2 POP DUP2 DUP11 PUSH0 ADD MLOAD DUP12 PUSH1 0x40 ADD MLOAD DUP2 MLOAD DUP2 LT PUSH2 0x1EE8 JUMPI PUSH2 0x1EE7 PUSH2 0x54BC JUMP JUMPDEST JUMPDEST PUSH1 0x20 ADD ADD SWAP1 PUSH31 0xFFFFFFFFFFFFFFFFFFFFFFFFFFFFFFFFFFFFFFFFFFFFFFFFFFFFFFFFFFFFFF NOT AND SWAP1 DUP2 PUSH0 BYTE SWAP1 MSTORE8 POP DUP1 DUP11 PUSH1 0x20 ADD MLOAD DUP12 PUSH1 0x40 ADD MLOAD DUP2 MLOAD DUP2 LT PUSH2 0x1F32 JUMPI PUSH2 0x1F31 PUSH2 0x54BC JUMP JUMPDEST JUMPDEST PUSH1 0x20 MUL PUSH1 0x20 ADD ADD DUP2 SWAP1 MSTORE POP DUP10 PUSH1 0x40 ADD DUP1 MLOAD PUSH1 0x1 ADD SWAP1 DUP2 DUP2 MSTORE POP POP POP POP POP POP POP POP JUMPDEST DUP1 PUSH1 0x1 ADD SWAP1 POP PUSH2 0x1CB8 JUMP JUMPDEST POP POP POP SWAP5 SWAP4 POP POP POP POP JUMP JUMPDEST DUP3 PUSH20 0xFFFFFFFFFFFFFFFFFFFFFFFFFFFFFFFFFFFFFFFF AND PUSH4 0x2E1A7D4D DUP4 PUSH1 0x40 MLOAD DUP3 PUSH4 0xFFFFFFFF AND PUSH1 0xE0 SHL DUP2 MSTORE PUSH1 0x4 ADD PUSH2 0x1FA2 SWAP2 SWAP1 PUSH2 0x5003 JUMP JUMPDEST PUSH0 PUSH1 0x40 MLOAD DUP1 DUP4 SUB DUP2 PUSH0 DUP8 DUP1 EXTCODESIZE ISZERO DUP1 ISZERO PUSH2 0x1FB9 JUMPI PUSH0 PUSH0 REVERT JUMPDEST POP GAS CALL ISZERO DUP1 ISZERO PUSH2 0x1FCB JUMPI RETURNDATASIZE PUSH0 PUSH0 RETURNDATACOPY RETURNDATASIZE PUSH0 REVERT JUMPDEST POP POP POP POP PUSH0 DUP2 PUSH20 0xFFFFFFFFFFFFFFFFFFFFFFFFFFFFFFFFFFFFFFFF AND DUP4 PUSH1 0x40 MLOAD PUSH2 0x1FF4 SWAP1 PUSH2 0x572F JUMP JUMPDEST PUSH0 PUSH1 0x40 MLOAD DUP1 DUP4 SUB DUP2 DUP6 DUP8 GAS CALL SWAP3 POP POP POP RETURNDATASIZE DUP1 PUSH0 DUP2 EQ PUSH2 0x202E JUMPI PUSH1 0x40 MLOAD SWAP2 POP PUSH1 0x1F NOT PUSH1 0x3F RETURNDATASIZE ADD AND DUP3 ADD PUSH1 0x40 MSTORE RETURNDATASIZE DUP3 MSTORE RETURNDATASIZE PUSH0 PUSH1 0x20 DUP5 ADD RETURNDATACOPY PUSH2 0x2033 JUMP JUMPDEST PUSH1 0x60 SWAP2 POP JUMPDEST POP POP SWAP1 POP DUP1 PUSH2 0x206E JUMPI PUSH1 0x40 MLOAD PUSH32 0xB2F8AAAA00000000000000000000000000000000000000000000000000000000 DUP2 MSTORE PUSH1 0x4 ADD PUSH1 0x40 MLOAD DUP1 SWAP2 SUB SWAP1 REVERT JUMPDEST POP POP POP POP JUMP JUMPDEST PUSH0 PUSH20 0xFFFFFFFFFFFFFFFFFFFFFFFFFFFFFFFFFFFFFFFF AND DUP2 PUSH20 0xFFFFFFFFFFFFFFFFFFFFFFFFFFFFFFFFFFFFFFFF AND SUB PUSH2 0x20E2 JUMPI PUSH1 0x40 MLOAD PUSH32 0x8C379A000000000000000000000000000000000000000000000000000000000 DUP2 MSTORE PUSH1 0x4 ADD PUSH2 0x20D9 SWAP1 PUSH2 0x578D JUMP JUMPDEST PUSH1 0x40 MLOAD DUP1 SWAP2 SUB SWAP1 REVERT JUMPDEST PUSH0 DUP2 PUSH20 0xFFFFFFFFFFFFFFFFFFFFFFFFFFFFFFFFFFFFFFFF AND EXTCODESIZE GT PUSH2 0x213B JUMPI PUSH1 0x40 MLOAD PUSH32 0x8C379A000000000000000000000000000000000000000000000000000000000 DUP2 MSTORE PUSH1 0x4 ADD PUSH2 0x2132 SWAP1 PUSH2 0x57F5 JUMP JUMPDEST PUSH1 0x40 MLOAD DUP1 SWAP2 SUB SWAP1 REVERT JUMPDEST DUP1 PUSH20 0xFFFFFFFFFFFFFFFFFFFFFFFFFFFFFFFFFFFFFFFF AND PUSH4 0x8DA5CB5B PUSH1 0x40 MLOAD DUP2 PUSH4 0xFFFFFFFF AND PUSH1 0xE0 SHL DUP2 MSTORE PUSH1 0x4 ADD PUSH1 0x20 PUSH1 0x40 MLOAD DUP1 DUP4 SUB DUP2 DUP7 GAS STATICCALL SWAP3 POP POP POP DUP1 ISZERO PUSH2 0x21A3 JUMPI POP PUSH1 0x40 MLOAD RETURNDATASIZE PUSH1 0x1F NOT PUSH1 0x1F DUP3 ADD AND DUP3 ADD DUP1 PUSH1 0x40 MSTORE POP DUP2 ADD SWAP1 PUSH2 0x21A0 SWAP2 SWAP1 PUSH2 0x52A2 JUMP JUMPDEST PUSH1 0x1 JUMPDEST PUSH2 0x21E2 JUMPI PUSH1 0x40 MLOAD PUSH32 0x8C379A000000000000000000000000000000000000000000000000000000000 DUP2 MSTORE PUSH1 0x4 ADD PUSH2 0x21D9 SWAP1 PUSH2 0x5883 JUMP JUMPDEST PUSH1 0x40 MLOAD DUP1 SWAP2 SUB SWAP1 REVERT JUMPDEST DUP2 PUSH0 PUSH0 PUSH2 0x100 EXP DUP2 SLOAD DUP2 PUSH20 0xFFFFFFFFFFFFFFFFFFFFFFFFFFFFFFFFFFFFFFFF MUL NOT AND SWAP1 DUP4 PUSH20 0xFFFFFFFFFFFFFFFFFFFFFFFFFFFFFFFFFFFFFFFF AND MUL OR SWAP1 SSTORE POP POP POP JUMP JUMPDEST PUSH2 0x222D PUSH2 0x49E2 JUMP JUMPDEST PUSH0 PUSH20 0xFFFFFFFFFFFFFFFFFFFFFFFFFFFFFFFFFFFFFFFF AND DUP3 PUSH20 0xFFFFFFFFFFFFFFFFFFFFFFFFFFFFFFFFFFFFFFFF AND SUB PUSH2 0x2292 JUMPI PUSH1 0x40 MLOAD PUSH32 0xD92E233D00000000000000000000000000000000000000000000000000000000 DUP2 MSTORE PUSH1 0x4 ADD PUSH1 0x40 MLOAD DUP1 SWAP2 SUB SWAP1 REVERT JUMPDEST PUSH32 0x0 PUSH20 0xFFFFFFFFFFFFFFFFFFFFFFFFFFFFFFFFFFFFFFFF AND DUP3 PUSH20 0xFFFFFFFFFFFFFFFFFFFFFFFFFFFFFFFFFFFFFFFF AND SUB PUSH2 0x2317 JUMPI PUSH1 0x40 MLOAD PUSH32 0x871C78AF00000000000000000000000000000000000000000000000000000000 DUP2 MSTORE PUSH1 0x4 ADD PUSH1 0x40 MLOAD DUP1 SWAP2 SUB SWAP1 REVERT JUMPDEST PUSH0 PUSH32 0x0 SWAP1 POP PUSH0 DUP2 SWAP1 POP PUSH0 PUSH0 PUSH32 0x0 PUSH20 0xFFFFFFFFFFFFFFFFFFFFFFFFFFFFFFFFFFFFFFFF AND PUSH4 0xE6A43905 DUP8 DUP7 PUSH1 0x40 MLOAD DUP4 PUSH4 0xFFFFFFFF AND PUSH1 0xE0 SHL DUP2 MSTORE PUSH1 0x4 ADD PUSH2 0x239C SWAP3 SWAP2 SWAP1 PUSH2 0x58A1 JUMP JUMPDEST PUSH1 0x20 PUSH1 0x40 MLOAD DUP1 DUP4 SUB DUP2 DUP7 GAS STATICCALL ISZERO DUP1 ISZERO PUSH2 0x23B7 JUMPI RETURNDATASIZE PUSH0 PUSH0 RETURNDATACOPY RETURNDATASIZE PUSH0 REVERT JUMPDEST POP POP POP POP PUSH1 0x40 MLOAD RETURNDATASIZE PUSH1 0x1F NOT PUSH1 0x1F DUP3 ADD AND DUP3 ADD DUP1 PUSH1 0x40 MSTORE POP DUP2 ADD SWAP1 PUSH2 0x23DB SWAP2 SWAP1 PUSH2 0x52A2 JUMP JUMPDEST SWAP1 POP PUSH0 PUSH20 0xFFFFFFFFFFFFFFFFFFFFFFFFFFFFFFFFFFFFFFFF AND DUP2 PUSH20 0xFFFFFFFFFFFFFFFFFFFFFFFFFFFFFFFFFFFFFFFF AND EQ PUSH2 0x25C2 JUMPI PUSH0 PUSH0 DUP3 PUSH20 0xFFFFFFFFFFFFFFFFFFFFFFFFFFFFFFFFFFFFFFFF AND PUSH4 0x902F1AC PUSH1 0x40 MLOAD DUP2 PUSH4 0xFFFFFFFF AND PUSH1 0xE0 SHL DUP2 MSTORE PUSH1 0x4 ADD PUSH1 0x60 PUSH1 0x40 MLOAD DUP1 DUP4 SUB DUP2 DUP7 GAS STATICCALL ISZERO DUP1 ISZERO PUSH2 0x245B JUMPI RETURNDATASIZE PUSH0 PUSH0 RETURNDATACOPY RETURNDATASIZE PUSH0 REVERT JUMPDEST POP POP POP POP PUSH1 0x40 MLOAD RETURNDATASIZE PUSH1 0x1F NOT PUSH1 0x1F DUP3 ADD AND DUP3 ADD DUP1 PUSH1 0x40 MSTORE POP DUP2 ADD SWAP1 PUSH2 0x247F SWAP2 SWAP1 PUSH2 0x591F JUMP JUMPDEST POP SWAP2 POP SWAP2 POP PUSH0 DUP4 PUSH20 0xFFFFFFFFFFFFFFFFFFFFFFFFFFFFFFFFFFFFFFFF AND PUSH4 0xDFE1681 PUSH1 0x40 MLOAD DUP2 PUSH4 0xFFFFFFFF AND PUSH1 0xE0 SHL DUP2 MSTORE PUSH1 0x4 ADD PUSH1 0x20 PUSH1 0x40 MLOAD DUP1 DUP4 SUB DUP2 DUP7 GAS STATICCALL ISZERO DUP1 ISZERO PUSH2 0x24CE JUMPI RETURNDATASIZE PUSH0 PUSH0 RETURNDATACOPY RETURNDATASIZE PUSH0 REVERT JUMPDEST POP POP POP POP PUSH1 0x40 MLOAD RETURNDATASIZE PUSH1 0x1F NOT PUSH1 0x1F DUP3 ADD AND DUP3 ADD DUP1 PUSH1 0x40 MSTORE POP DUP2 ADD SWAP1 PUSH2 0x24F2 SWAP2 SWAP1 PUSH2 0x52A2 JUMP JUMPDEST SWAP1 POP PUSH0 DUP8 PUSH20 0xFFFFFFFFFFFFFFFFFFFFFFFFFFFFFFFFFFFFFFFF AND DUP3 PUSH20 0xFFFFFFFFFFFFFFFFFFFFFFFFFFFFFFFFFFFFFFFF AND EQ PUSH2 0x253E JUMPI DUP3 PUSH14 0xFFFFFFFFFFFFFFFFFFFFFFFFFFFF AND PUSH2 0x2550 JUMP JUMPDEST DUP4 PUSH14 0xFFFFFFFFFFFFFFFFFFFFFFFFFFFF AND JUMPDEST SWAP1 POP DUP6 DUP2 GT ISZERO PUSH2 0x25BD JUMPI PUSH0 DUP10 PUSH1 0x40 ADD SWAP1 PUSH1 0xFF AND SWAP1 DUP2 PUSH1 0xFF AND DUP2 MSTORE POP POP DUP5 DUP10 PUSH0 ADD SWAP1 PUSH20 0xFFFFFFFFFFFFFFFFFFFFFFFFFFFFFFFFFFFFFFFF AND SWAP1 DUP2 PUSH20 0xFFFFFFFFFFFFFFFFFFFFFFFFFFFFFFFFFFFFFFFF AND DUP2 MSTORE POP POP PUSH0 DUP10 PUSH1 0x20 ADD SWAP1 PUSH3 0xFFFFFF AND SWAP1 DUP2 PUSH3 0xFFFFFF AND DUP2 MSTORE POP POP DUP1 SWAP6 POP JUMPDEST POP POP POP POP JUMPDEST PUSH0 JUMPDEST PUSH1 0x2 DUP2 LT ISZERO PUSH2 0x27AB JUMPI PUSH0 PUSH0 DUP3 EQ PUSH2 0x25DD JUMPI PUSH2 0x2710 PUSH2 0x25E1 JUMP JUMPDEST PUSH2 0xBB8 JUMPDEST SWAP1 POP PUSH0 PUSH32 0x0 PUSH20 0xFFFFFFFFFFFFFFFFFFFFFFFFFFFFFFFFFFFFFFFF AND PUSH4 0x1698EE82 DUP11 DUP10 DUP6 PUSH1 0x40 MLOAD DUP5 PUSH4 0xFFFFFFFF AND PUSH1 0xE0 SHL DUP2 MSTORE PUSH1 0x4 ADD PUSH2 0x2641 SWAP4 SWAP3 SWAP2 SWAP1 PUSH2 0x597E JUMP JUMPDEST PUSH1 0x20 PUSH1 0x40 MLOAD DUP1 DUP4 SUB DUP2 DUP7 GAS STATICCALL ISZERO DUP1 ISZERO PUSH2 0x265C JUMPI RETURNDATASIZE PUSH0 PUSH0 RETURNDATACOPY RETURNDATASIZE PUSH0 REVERT JUMPDEST POP POP POP POP PUSH1 0x40 MLOAD RETURNDATASIZE PUSH1 0x1F NOT PUSH1 0x1F DUP3 ADD AND DUP3 ADD DUP1 PUSH1 0x40 MSTORE POP DUP2 ADD SWAP1 PUSH2 0x2680 SWAP2 SWAP1 PUSH2 0x52A2 JUMP JUMPDEST SWAP1 POP PUSH0 PUSH20 0xFFFFFFFFFFFFFFFFFFFFFFFFFFFFFFFFFFFFFFFF AND DUP2 PUSH20 0xFFFFFFFFFFFFFFFFFFFFFFFFFFFFFFFFFFFFFFFF AND EQ PUSH2 0x279E JUMPI PUSH0 DUP7 PUSH20 0xFFFFFFFFFFFFFFFFFFFFFFFFFFFFFFFFFFFFFFFF AND PUSH4 0x70A08231 DUP4 PUSH1 0x40 MLOAD DUP3 PUSH4 0xFFFFFFFF AND PUSH1 0xE0 SHL DUP2 MSTORE PUSH1 0x4 ADD PUSH2 0x26EF SWAP2 SWAP1 PUSH2 0x4E89 JUMP JUMPDEST PUSH1 0x20 PUSH1 0x40 MLOAD DUP1 DUP4 SUB DUP2 DUP7 GAS STATICCALL ISZERO DUP1 ISZERO PUSH2 0x270A JUMPI RETURNDATASIZE PUSH0 PUSH0 RETURNDATACOPY RETURNDATASIZE PUSH0 REVERT JUMPDEST POP POP POP POP PUSH1 0x40 MLOAD RETURNDATASIZE PUSH1 0x1F NOT PUSH1 0x1F DUP3 ADD AND DUP3 ADD DUP1 PUSH1 0x40 MSTORE POP DUP2 ADD SWAP1 PUSH2 0x272E SWAP2 SWAP1 PUSH2 0x53C9 JUMP JUMPDEST SWAP1 POP DUP6 DUP2 GT ISZERO PUSH2 0x279C JUMPI PUSH1 0x1 DUP10 PUSH1 0x40 ADD SWAP1 PUSH1 0xFF AND SWAP1 DUP2 PUSH1 0xFF AND DUP2 MSTORE POP POP DUP2 DUP10 PUSH0 ADD SWAP1 PUSH20 0xFFFFFFFFFFFFFFFFFFFFFFFFFFFFFFFFFFFFFFFF AND SWAP1 DUP2 PUSH20 0xFFFFFFFFFFFFFFFFFFFFFFFFFFFFFFFFFFFFFFFF AND DUP2 MSTORE POP POP DUP3 DUP10 PUSH1 0x20 ADD SWAP1 PUSH3 0xFFFFFF AND SWAP1 DUP2 PUSH3 0xFFFFFF AND DUP2 MSTORE POP POP DUP1 SWAP6 POP JUMPDEST POP JUMPDEST DUP3 PUSH1 0x1 ADD SWAP3 POP POP POP PUSH2 0x25C4 JUMP JUMPDEST POP TIMESTAMP DUP6 PUSH1 0x60 ADD SWAP1 PUSH8 0xFFFFFFFFFFFFFFFF AND SWAP1 DUP2 PUSH8 0xFFFFFFFFFFFFFFFF AND DUP2 MSTORE POP POP POP POP POP POP SWAP2 SWAP1 POP JUMP JUMPDEST PUSH0 PUSH20 0xFFFFFFFFFFFFFFFFFFFFFFFFFFFFFFFFFFFFFFFF AND DUP3 PUSH20 0xFFFFFFFFFFFFFFFFFFFFFFFFFFFFFFFFFFFFFFFF AND SUB PUSH2 0x2817 JUMPI PUSH2 0x2812 DUP2 SELFBALANCE PUSH2 0x1AB5 JUMP JUMPDEST PUSH2 0x28A8 JUMP JUMPDEST PUSH0 DUP3 PUSH20 0xFFFFFFFFFFFFFFFFFFFFFFFFFFFFFFFFFFFFFFFF AND PUSH4 0x70A08231 ADDRESS PUSH1 0x40 MLOAD DUP3 PUSH4 0xFFFFFFFF AND PUSH1 0xE0 SHL DUP2 MSTORE PUSH1 0x4 ADD PUSH2 0x2851 SWAP2 SWAP1 PUSH2 0x4E89 JUMP JUMPDEST PUSH1 0x20 PUSH1 0x40 MLOAD DUP1 DUP4 SUB DUP2 DUP7 GAS STATICCALL ISZERO DUP1 ISZERO PUSH2 0x286C JUMPI RETURNDATASIZE PUSH0 PUSH0 RETURNDATACOPY RETURNDATASIZE PUSH0 REVERT JUMPDEST POP POP POP POP PUSH1 0x40 MLOAD RETURNDATASIZE PUSH1 0x1F NOT PUSH1 0x1F DUP3 ADD AND DUP3 ADD DUP1 PUSH1 0x40 MSTORE POP DUP2 ADD SWAP1 PUSH2 0x2890 SWAP2 SWAP1 PUSH2 0x53C9 JUMP JUMPDEST SWAP1 POP PUSH0 DUP2 GT ISZERO PUSH2 0x28A6 JUMPI PUSH2 0x28A5 DUP4 DUP4 DUP4 PUSH2 0x2A39 JUMP JUMPDEST JUMPDEST POP JUMPDEST POP POP JUMP JUMPDEST PUSH0 PUSH1 0x60 PUSH0 DUP6 SUB PUSH2 0x28D2 JUMPI PUSH0 PUSH1 0xF8 SHL PUSH1 0x40 MLOAD DUP1 PUSH1 0x20 ADD PUSH1 0x40 MSTORE DUP1 PUSH0 DUP2 MSTORE POP SWAP2 POP SWAP2 POP PUSH2 0x2A30 JUMP JUMPDEST PUSH0 PUSH2 0x28DC DUP8 PUSH2 0xF3B JUMP JUMPDEST SWAP1 POP PUSH0 PUSH20 0xFFFFFFFFFFFFFFFFFFFFFFFFFFFFFFFFFFFFFFFF AND DUP2 PUSH0 ADD MLOAD PUSH20 0xFFFFFFFFFFFFFFFFFFFFFFFFFFFFFFFFFFFFFFFF AND SUB PUSH2 0x2946 JUMPI PUSH1 0x40 MLOAD PUSH32 0x791C2FED00000000000000000000000000000000000000000000000000000000 DUP2 MSTORE PUSH1 0x4 ADD PUSH1 0x40 MLOAD DUP1 SWAP2 SUB SWAP1 REVERT JUMPDEST PUSH0 PUSH1 0x1 DUP3 PUSH1 0x40 ADD MLOAD PUSH1 0xFF AND SUB PUSH2 0x29C8 JUMPI PUSH2 0x2987 PUSH32 0x0 DUP10 DUP5 PUSH1 0x20 ADD MLOAD DUP11 DUP10 PUSH2 0x300C JUMP JUMPDEST SWAP1 POP PUSH2 0x29BB PUSH32 0x0 DUP10 DUP5 PUSH1 0x20 ADD MLOAD DUP11 DUP6 DUP12 PUSH2 0x34EE JUMP JUMPDEST SWAP3 POP PUSH0 PUSH1 0xF8 SHL SWAP4 POP PUSH2 0x2A2D JUMP JUMPDEST PUSH2 0x29F4 PUSH32 0x0 DUP10 DUP10 DUP9 PUSH2 0x35C4 JUMP JUMPDEST SWAP1 POP PUSH2 0x2A23 PUSH32 0x0 DUP10 DUP10 DUP5 DUP11 PUSH2 0x391C JUMP JUMPDEST SWAP3 POP PUSH1 0x8 PUSH1 0xF8 SHL SWAP4 POP JUMPDEST POP POP JUMPDEST SWAP5 POP SWAP5 SWAP3 POP POP POP JUMP JUMPDEST PUSH0 PUSH0 DUP5 PUSH20 0xFFFFFFFFFFFFFFFFFFFFFFFFFFFFFFFFFFFFFFFF AND PUSH4 0xA9059CBB PUSH1 0xE0 SHL DUP6 DUP6 PUSH1 0x40 MLOAD PUSH1 0x24 ADD PUSH2 0x2A6D SWAP3 SWAP2 SWAP1 PUSH2 0x59B3 JUMP JUMPDEST PUSH1 0x40 MLOAD PUSH1 0x20 DUP2 DUP4 SUB SUB DUP2 MSTORE SWAP1 PUSH1 0x40 MSTORE SWAP1 PUSH28 0xFFFFFFFFFFFFFFFFFFFFFFFFFFFFFFFFFFFFFFFFFFFFFFFFFFFFFFFF NOT AND PUSH1 0x20 DUP3 ADD DUP1 MLOAD PUSH28 0xFFFFFFFFFFFFFFFFFFFFFFFFFFFFFFFFFFFFFFFFFFFFFFFFFFFFFFFF DUP4 DUP2 DUP4 AND OR DUP4 MSTORE POP POP POP POP PUSH1 0x40 MLOAD PUSH2 0x2AD7 SWAP2 SWAP1 PUSH2 0x5A0A JUMP JUMPDEST PUSH0 PUSH1 0x40 MLOAD DUP1 DUP4 SUB DUP2 PUSH0 DUP7 GAS CALL SWAP2 POP POP RETURNDATASIZE DUP1 PUSH0 DUP2 EQ PUSH2 0x2B10 JUMPI PUSH1 0x40 MLOAD SWAP2 POP PUSH1 0x1F NOT PUSH1 0x3F RETURNDATASIZE ADD AND DUP3 ADD PUSH1 0x40 MSTORE RETURNDATASIZE DUP3 MSTORE RETURNDATASIZE PUSH0 PUSH1 0x20 DUP5 ADD RETURNDATACOPY PUSH2 0x2B15 JUMP JUMPDEST PUSH1 0x60 SWAP2 POP JUMPDEST POP SWAP2 POP SWAP2 POP DUP2 DUP1 ISZERO PUSH2 0x2B42 JUMPI POP PUSH0 DUP2 MLOAD EQ DUP1 PUSH2 0x2B41 JUMPI POP DUP1 DUP1 PUSH1 0x20 ADD SWAP1 MLOAD DUP2 ADD SWAP1 PUSH2 0x2B40 SWAP2 SWAP1 PUSH2 0x5A34 JUMP JUMPDEST JUMPDEST JUMPDEST PUSH2 0x2B81 JUMPI PUSH1 0x40 MLOAD PUSH32 0x8C379A000000000000000000000000000000000000000000000000000000000 DUP2 MSTORE PUSH1 0x4 ADD PUSH2 0x2B78 SWAP1 PUSH2 0x5AA9 JUMP JUMPDEST PUSH1 0x40 MLOAD DUP1 SWAP2 SUB SWAP1 REVERT JUMPDEST POP POP POP POP POP JUMP JUMPDEST PUSH0 PUSH0 DUP4 SUB PUSH2 0x2BC2 JUMPI PUSH1 0x40 MLOAD PUSH32 0x1F2A200500000000000000000000000000000000000000000000000000000000 DUP2 MSTORE PUSH1 0x4 ADD PUSH1 0x40 MLOAD DUP1 SWAP2 SUB SWAP1 REVERT JUMPDEST PUSH0 DUP5 PUSH20 0xFFFFFFFFFFFFFFFFFFFFFFFFFFFFFFFFFFFFFFFF AND PUSH4 0xDD62ED3E DUP5 ADDRESS PUSH1 0x40 MLOAD DUP4 PUSH4 0xFFFFFFFF AND PUSH1 0xE0 SHL DUP2 MSTORE PUSH1 0x4 ADD PUSH2 0x2BFE SWAP3 SWAP2 SWAP1 PUSH2 0x58A1 JUMP JUMPDEST PUSH1 0x20 PUSH1 0x40 MLOAD DUP1 DUP4 SUB DUP2 DUP7 GAS STATICCALL ISZERO DUP1 ISZERO PUSH2 0x2C19 JUMPI RETURNDATASIZE PUSH0 PUSH0 RETURNDATACOPY RETURNDATASIZE PUSH0 REVERT JUMPDEST POP POP POP POP PUSH1 0x40 MLOAD RETURNDATASIZE PUSH1 0x1F NOT PUSH1 0x1F DUP3 ADD AND DUP3 ADD DUP1 PUSH1 0x40 MSTORE POP DUP2 ADD SWAP1 PUSH2 0x2C3D SWAP2 SWAP1 PUSH2 0x53C9 JUMP JUMPDEST SWAP1 POP DUP4 DUP2 LT ISZERO PUSH2 0x2C79 JUMPI PUSH1 0x40 MLOAD PUSH32 0xBAC9B5E800000000000000000000000000000000000000000000000000000000 DUP2 MSTORE PUSH1 0x4 ADD PUSH1 0x40 MLOAD DUP1 SWAP2 SUB SWAP1 REVERT JUMPDEST PUSH0 DUP6 PUSH20 0xFFFFFFFFFFFFFFFFFFFFFFFFFFFFFFFFFFFFFFFF AND PUSH4 0x70A08231 ADDRESS PUSH1 0x40 MLOAD DUP3 PUSH4 0xFFFFFFFF AND PUSH1 0xE0 SHL DUP2 MSTORE PUSH1 0x4 ADD PUSH2 0x2CB3 SWAP2 SWAP1 PUSH2 0x4E89 JUMP JUMPDEST PUSH1 0x20 PUSH1 0x40 MLOAD DUP1 DUP4 SUB DUP2 DUP7 GAS STATICCALL ISZERO DUP1 ISZERO PUSH2 0x2CCE JUMPI RETURNDATASIZE PUSH0 PUSH0 RETURNDATACOPY RETURNDATASIZE PUSH0 REVERT JUMPDEST POP POP POP POP PUSH1 0x40 MLOAD RETURNDATASIZE PUSH1 0x1F NOT PUSH1 0x1F DUP3 ADD AND DUP3 ADD DUP1 PUSH1 0x40 MSTORE POP DUP2 ADD SWAP1 PUSH2 0x2CF2 SWAP2 SWAP1 PUSH2 0x53C9 JUMP JUMPDEST SWAP1 POP PUSH2 0x2D00 DUP7 DUP6 ADDRESS DUP9 PUSH2 0x3AB4 JUMP JUMPDEST PUSH0 DUP7 PUSH20 0xFFFFFFFFFFFFFFFFFFFFFFFFFFFFFFFFFFFFFFFF AND PUSH4 0x70A08231 ADDRESS PUSH1 0x40 MLOAD DUP3 PUSH4 0xFFFFFFFF AND PUSH1 0xE0 SHL DUP2 MSTORE PUSH1 0x4 ADD PUSH2 0x2D3A SWAP2 SWAP1 PUSH2 0x4E89 JUMP JUMPDEST PUSH1 0x20 PUSH1 0x40 MLOAD DUP1 DUP4 SUB DUP2 DUP7 GAS STATICCALL ISZERO DUP1 ISZERO PUSH2 0x2D55 JUMPI RETURNDATASIZE PUSH0 PUSH0 RETURNDATACOPY RETURNDATASIZE PUSH0 REVERT JUMPDEST POP POP POP POP PUSH1 0x40 MLOAD RETURNDATASIZE PUSH1 0x1F NOT PUSH1 0x1F DUP3 ADD AND DUP3 ADD DUP1 PUSH1 0x40 MSTORE POP DUP2 ADD SWAP1 PUSH2 0x2D79 SWAP2 SWAP1 PUSH2 0x53C9 JUMP JUMPDEST SWAP1 POP DUP2 DUP2 SUB SWAP4 POP PUSH0 DUP5 SUB PUSH2 0x2DB9 JUMPI PUSH1 0x40 MLOAD PUSH32 0xB5C74A2700000000000000000000000000000000000000000000000000000000 DUP2 MSTORE PUSH1 0x4 ADD PUSH1 0x40 MLOAD DUP1 SWAP2 SUB SWAP1 REVERT JUMPDEST POP POP POP SWAP4 SWAP3 POP POP POP JUMP JUMPDEST PUSH0 PUSH1 0x60 PUSH0 DUP6 SUB PUSH2 0x2DE9 JUMPI PUSH0 PUSH1 0xF8 SHL PUSH1 0x40 MLOAD DUP1 PUSH1 0x20 ADD PUSH1 0x40 MSTORE DUP1 PUSH0 DUP2 MSTORE POP SWAP2 POP SWAP2 POP PUSH2 0x3003 JUMP JUMPDEST PUSH0 PUSH20 0xFFFFFFFFFFFFFFFFFFFFFFFFFFFFFFFFFFFFFFFF AND DUP7 PUSH20 0xFFFFFFFFFFFFFFFFFFFFFFFFFFFFFFFFFFFFFFFF AND EQ DUP1 PUSH2 0x2E6E JUMPI POP PUSH32 0x0 PUSH20 0xFFFFFFFFFFFFFFFFFFFFFFFFFFFFFFFFFFFFFFFF AND DUP7 PUSH20 0xFFFFFFFFFFFFFFFFFFFFFFFFFFFFFFFFFFFFFFFF AND EQ JUMPDEST ISZERO PUSH2 0x2EA5 JUMPI PUSH1 0x40 MLOAD PUSH32 0x7401D93100000000000000000000000000000000000000000000000000000000 DUP2 MSTORE PUSH1 0x4 ADD PUSH1 0x40 MLOAD DUP1 SWAP2 SUB SWAP1 REVERT JUMPDEST PUSH0 PUSH2 0x2EAF DUP8 PUSH2 0xF3B JUMP JUMPDEST SWAP1 POP PUSH0 PUSH20 0xFFFFFFFFFFFFFFFFFFFFFFFFFFFFFFFFFFFFFFFF AND DUP2 PUSH0 ADD MLOAD PUSH20 0xFFFFFFFFFFFFFFFFFFFFFFFFFFFFFFFFFFFFFFFF AND SUB PUSH2 0x2F19 JUMPI PUSH1 0x40 MLOAD PUSH32 0x791C2FED00000000000000000000000000000000000000000000000000000000 DUP2 MSTORE PUSH1 0x4 ADD PUSH1 0x40 MLOAD DUP1 SWAP2 SUB SWAP1 REVERT JUMPDEST PUSH0 PUSH1 0x1 DUP3 PUSH1 0x40 ADD MLOAD PUSH1 0xFF AND SUB PUSH2 0x2F9B JUMPI PUSH2 0x2F5A DUP9 PUSH32 0x0 DUP5 PUSH1 0x20 ADD MLOAD DUP11 DUP10 PUSH2 0x300C JUMP JUMPDEST SWAP1 POP PUSH2 0x2F8E DUP9 PUSH32 0x0 DUP5 PUSH1 0x20 ADD MLOAD DUP11 DUP6 DUP12 PUSH2 0x34EE JUMP JUMPDEST SWAP3 POP PUSH0 PUSH1 0xF8 SHL SWAP4 POP PUSH2 0x3000 JUMP JUMPDEST PUSH2 0x2FC7 DUP9 PUSH32 0x0 DUP10 DUP9 PUSH2 0x35C4 JUMP JUMPDEST SWAP1 POP PUSH2 0x2FF6 DUP9 PUSH32 0x0 DUP10 DUP5 DUP11 PUSH2 0x391C JUMP JUMPDEST SWAP3 POP PUSH1 0x8 PUSH1 0xF8 SHL SWAP4 POP JUMPDEST POP POP JUMPDEST SWAP5 POP SWAP5 SWAP3 POP POP POP JUMP JUMPDEST PUSH0 PUSH0 DUP4 SUB PUSH2 0x301C JUMPI PUSH0 SWAP1 POP PUSH2 0x34E5 JUMP JUMPDEST PUSH0 PUSH20 0xFFFFFFFFFFFFFFFFFFFFFFFFFFFFFFFFFFFFFFFF AND DUP7 PUSH20 0xFFFFFFFFFFFFFFFFFFFFFFFFFFFFFFFFFFFFFFFF AND EQ DUP1 PUSH2 0x3081 JUMPI POP PUSH0 PUSH20 0xFFFFFFFFFFFFFFFFFFFFFFFFFFFFFFFFFFFFFFFF AND DUP6 PUSH20 0xFFFFFFFFFFFFFFFFFFFFFFFFFFFFFFFFFFFFFFFF AND EQ JUMPDEST ISZERO PUSH2 0x30B8 JUMPI PUSH1 0x40 MLOAD PUSH32 0xD92E233D00000000000000000000000000000000000000000000000000000000 DUP2 MSTORE PUSH1 0x4 ADD PUSH1 0x40 MLOAD DUP1 SWAP2 SUB SWAP1 REVERT JUMPDEST PUSH2 0x2710 DUP3 PUSH4 0xFFFFFFFF AND GT ISZERO PUSH2 0x30FA JUMPI PUSH1 0x40 MLOAD PUSH32 0x124955FB00000000000000000000000000000000000000000000000000000000 DUP2 MSTORE PUSH1 0x4 ADD PUSH1 0x40 MLOAD DUP1 SWAP2 SUB SWAP1 REVERT JUMPDEST PUSH0 PUSH32 0x0 PUSH20 0xFFFFFFFFFFFFFFFFFFFFFFFFFFFFFFFFFFFFFFFF AND PUSH4 0x1698EE82 DUP9 DUP9 DUP9 PUSH1 0x40 MLOAD DUP5 PUSH4 0xFFFFFFFF AND PUSH1 0xE0 SHL DUP2 MSTORE PUSH1 0x4 ADD PUSH2 0x3158 SWAP4 SWAP3 SWAP2 SWAP1 PUSH2 0x597E JUMP JUMPDEST PUSH1 0x20 PUSH1 0x40 MLOAD DUP1 DUP4 SUB DUP2 DUP7 GAS STATICCALL ISZERO DUP1 ISZERO PUSH2 0x3173 JUMPI RETURNDATASIZE PUSH0 PUSH0 RETURNDATACOPY RETURNDATASIZE PUSH0 REVERT JUMPDEST POP POP POP POP PUSH1 0x40 MLOAD RETURNDATASIZE PUSH1 0x1F NOT PUSH1 0x1F DUP3 ADD AND DUP3 ADD DUP1 PUSH1 0x40 MSTORE POP DUP2 ADD SWAP1 PUSH2 0x3197 SWAP2 SWAP1 PUSH2 0x52A2 JUMP JUMPDEST SWAP1 POP PUSH0 PUSH20 0xFFFFFFFFFFFFFFFFFFFFFFFFFFFFFFFFFFFFFFFF AND DUP2 PUSH20 0xFFFFFFFFFFFFFFFFFFFFFFFFFFFFFFFFFFFFFFFF AND SUB PUSH2 0x31FE JUMPI PUSH1 0x40 MLOAD PUSH32 0x791C2FED00000000000000000000000000000000000000000000000000000000 DUP2 MSTORE PUSH1 0x4 ADD PUSH1 0x40 MLOAD DUP1 SWAP2 SUB SWAP1 REVERT JUMPDEST PUSH0 PUSH3 0xF4240 DUP7 PUSH3 0xFFFFFF AND PUSH3 0xF4240 PUSH2 0x3217 SWAP2 SWAP1 PUSH2 0x5421 JUMP JUMPDEST DUP7 PUSH2 0x3222 SWAP2 SWAP1 PUSH2 0x5AC7 JUMP JUMPDEST PUSH2 0x322C SWAP2 SWAP1 PUSH2 0x5B08 JUMP JUMPDEST SWAP1 POP PUSH0 DUP2 SUB PUSH2 0x3267 JUMPI PUSH1 0x40 MLOAD PUSH32 0x6EED12FF00000000000000000000000000000000000000000000000000000000 DUP2 MSTORE PUSH1 0x4 ADD PUSH1 0x40 MLOAD DUP1 SWAP2 SUB SWAP1 REVERT JUMPDEST PUSH0 PUSH16 0xFFFFFFFFFFFFFFFFFFFFFFFFFFFFFFFF DUP1 AND DUP3 GT PUSH2 0x3287 JUMPI DUP2 PUSH2 0x3299 JUMP JUMPDEST PUSH16 0xFFFFFFFFFFFFFFFFFFFFFFFFFFFFFFFF JUMPDEST SWAP1 POP PUSH0 PUSH1 0xF SWAP1 POP PUSH0 PUSH0 PUSH1 0x2 PUSH8 0xFFFFFFFFFFFFFFFF DUP2 GT ISZERO PUSH2 0x32BD JUMPI PUSH2 0x32BC PUSH2 0x4D0F JUMP JUMPDEST JUMPDEST PUSH1 0x40 MLOAD SWAP1 DUP1 DUP3 MSTORE DUP1 PUSH1 0x20 MUL PUSH1 0x20 ADD DUP3 ADD PUSH1 0x40 MSTORE DUP1 ISZERO PUSH2 0x32EB JUMPI DUP2 PUSH1 0x20 ADD PUSH1 0x20 DUP3 MUL DUP1 CALLDATASIZE DUP4 CALLDATACOPY DUP1 DUP3 ADD SWAP2 POP POP SWAP1 POP JUMPDEST POP SWAP1 POP DUP3 DUP2 PUSH0 DUP2 MLOAD DUP2 LT PUSH2 0x3302 JUMPI PUSH2 0x3301 PUSH2 0x54BC JUMP JUMPDEST JUMPDEST PUSH1 0x20 MUL PUSH1 0x20 ADD ADD SWAP1 PUSH4 0xFFFFFFFF AND SWAP1 DUP2 PUSH4 0xFFFFFFFF AND DUP2 MSTORE POP POP PUSH0 DUP2 PUSH1 0x1 DUP2 MLOAD DUP2 LT PUSH2 0x3331 JUMPI PUSH2 0x3330 PUSH2 0x54BC JUMP JUMPDEST JUMPDEST PUSH1 0x20 MUL PUSH1 0x20 ADD ADD SWAP1 PUSH4 0xFFFFFFFF AND SWAP1 DUP2 PUSH4 0xFFFFFFFF AND DUP2 MSTORE POP POP DUP6 PUSH20 0xFFFFFFFFFFFFFFFFFFFFFFFFFFFFFFFFFFFFFFFF AND PUSH4 0x883BDBFD DUP3 PUSH1 0x40 MLOAD DUP3 PUSH4 0xFFFFFFFF AND PUSH1 0xE0 SHL DUP2 MSTORE PUSH1 0x4 ADD PUSH2 0x3384 SWAP2 SWAP1 PUSH2 0x5BEF JUMP JUMPDEST PUSH0 PUSH1 0x40 MLOAD DUP1 DUP4 SUB DUP2 DUP7 GAS STATICCALL SWAP3 POP POP POP DUP1 ISZERO PUSH2 0x33C1 JUMPI POP PUSH1 0x40 MLOAD RETURNDATASIZE PUSH0 DUP3 RETURNDATACOPY RETURNDATASIZE PUSH1 0x1F NOT PUSH1 0x1F DUP3 ADD AND DUP3 ADD DUP1 PUSH1 0x40 MSTORE POP DUP2 ADD SWAP1 PUSH2 0x33BE SWAP2 SWAP1 PUSH2 0x5DEF JUMP JUMPDEST PUSH1 0x1 JUMPDEST PUSH2 0x3444 JUMPI PUSH0 DUP7 PUSH20 0xFFFFFFFFFFFFFFFFFFFFFFFFFFFFFFFFFFFFFFFF AND PUSH4 0x3850C7BD PUSH1 0x40 MLOAD DUP2 PUSH4 0xFFFFFFFF AND PUSH1 0xE0 SHL DUP2 MSTORE PUSH1 0x4 ADD PUSH1 0xE0 PUSH1 0x40 MLOAD DUP1 DUP4 SUB DUP2 DUP7 GAS STATICCALL ISZERO DUP1 ISZERO PUSH2 0x340F JUMPI RETURNDATASIZE PUSH0 PUSH0 RETURNDATACOPY RETURNDATASIZE PUSH0 REVERT JUMPDEST POP POP POP POP PUSH1 0x40 MLOAD RETURNDATASIZE PUSH1 0x1F NOT PUSH1 0x1F DUP3 ADD AND DUP3 ADD DUP1 PUSH1 0x40 MSTORE POP DUP2 ADD SWAP1 PUSH2 0x3433 SWAP2 SWAP1 PUSH2 0x5ED9 JUMP JUMPDEST POP POP POP POP POP SWAP2 POP POP DUP1 SWAP3 POP POP PUSH2 0x3489 JUMP JUMPDEST PUSH2 0x3484 DUP3 PUSH0 DUP2 MLOAD DUP2 LT PUSH2 0x345A JUMPI PUSH2 0x3459 PUSH2 0x54BC JUMP JUMPDEST JUMPDEST PUSH1 0x20 MUL PUSH1 0x20 ADD ADD MLOAD DUP4 PUSH1 0x1 DUP2 MLOAD DUP2 LT PUSH2 0x3476 JUMPI PUSH2 0x3475 PUSH2 0x54BC JUMP JUMPDEST JUMPDEST PUSH1 0x20 MUL PUSH1 0x20 ADD ADD MLOAD DUP8 PUSH2 0x3C06 JUMP JUMPDEST SWAP4 POP POP POP JUMPDEST POP PUSH0 PUSH2 0x3497 DUP3 DUP6 DUP15 DUP15 PUSH2 0x3C25 JUMP JUMPDEST SWAP1 POP PUSH0 DUP2 SUB PUSH2 0x34D2 JUMPI PUSH1 0x40 MLOAD PUSH32 0x6EED12FF00000000000000000000000000000000000000000000000000000000 DUP2 MSTORE PUSH1 0x4 ADD PUSH1 0x40 MLOAD DUP1 SWAP2 SUB SWAP1 REVERT JUMPDEST PUSH2 0x34DC DUP2 DUP10 PUSH2 0x3E2E JUMP JUMPDEST SWAP7 POP POP POP POP POP POP POP JUMPDEST SWAP6 SWAP5 POP POP POP POP POP JUMP JUMPDEST PUSH1 0x60 PUSH2 0x351B DUP8 PUSH32 0x0 DUP7 PUSH2 0x3EA5 JUMP JUMPDEST PUSH2 0x3567 PUSH32 0x0 DUP9 PUSH32 0x0 DUP8 PUSH2 0x3F6F JUMP JUMPDEST PUSH0 DUP8 DUP7 DUP9 PUSH1 0x40 MLOAD PUSH1 0x20 ADD PUSH2 0x357D SWAP4 SWAP3 SWAP2 SWAP1 PUSH2 0x5FEF JUMP JUMPDEST PUSH1 0x40 MLOAD PUSH1 0x20 DUP2 DUP4 SUB SUB DUP2 MSTORE SWAP1 PUSH1 0x40 MSTORE SWAP1 POP DUP3 DUP6 DUP6 DUP4 PUSH1 0x1 PUSH1 0x40 MLOAD PUSH1 0x20 ADD PUSH2 0x35A8 SWAP6 SWAP5 SWAP4 SWAP3 SWAP2 SWAP1 PUSH2 0x603A JUMP JUMPDEST PUSH1 0x40 MLOAD PUSH1 0x20 DUP2 DUP4 SUB SUB DUP2 MSTORE SWAP1 PUSH1 0x40 MSTORE SWAP2 POP POP SWAP7 SWAP6 POP POP POP POP POP POP JUMP JUMPDEST PUSH0 PUSH0 DUP4 SUB PUSH2 0x35D4 JUMPI PUSH0 SWAP1 POP PUSH2 0x3914 JUMP JUMPDEST PUSH0 PUSH20 0xFFFFFFFFFFFFFFFFFFFFFFFFFFFFFFFFFFFFFFFF AND DUP6 PUSH20 0xFFFFFFFFFFFFFFFFFFFFFFFFFFFFFFFFFFFFFFFF AND EQ DUP1 PUSH2 0x3639 JUMPI POP PUSH0 PUSH20 0xFFFFFFFFFFFFFFFFFFFFFFFFFFFFFFFFFFFFFFFF AND DUP5 PUSH20 0xFFFFFFFFFFFFFFFFFFFFFFFFFFFFFFFFFFFFFFFF AND EQ JUMPDEST ISZERO PUSH2 0x3670 JUMPI PUSH1 0x40 MLOAD PUSH32 0xD92E233D00000000000000000000000000000000000000000000000000000000 DUP2 MSTORE PUSH1 0x4 ADD PUSH1 0x40 MLOAD DUP1 SWAP2 SUB SWAP1 REVERT JUMPDEST PUSH2 0x2710 DUP3 PUSH4 0xFFFFFFFF AND GT ISZERO PUSH2 0x36B2 JUMPI PUSH1 0x40 MLOAD PUSH32 0x124955FB00000000000000000000000000000000000000000000000000000000 DUP2 MSTORE PUSH1 0x4 ADD PUSH1 0x40 MLOAD DUP1 SWAP2 SUB SWAP1 REVERT JUMPDEST PUSH0 PUSH1 0x2 PUSH8 0xFFFFFFFFFFFFFFFF DUP2 GT ISZERO PUSH2 0x36CE JUMPI PUSH2 0x36CD PUSH2 0x4D0F JUMP JUMPDEST JUMPDEST PUSH1 0x40 MLOAD SWAP1 DUP1 DUP3 MSTORE DUP1 PUSH1 0x20 MUL PUSH1 0x20 ADD DUP3 ADD PUSH1 0x40 MSTORE DUP1 ISZERO PUSH2 0x36FC JUMPI DUP2 PUSH1 0x20 ADD PUSH1 0x20 DUP3 MUL DUP1 CALLDATASIZE DUP4 CALLDATACOPY DUP1 DUP3 ADD SWAP2 POP POP SWAP1 POP JUMPDEST POP SWAP1 POP DUP6 DUP2 PUSH0 DUP2 MLOAD DUP2 LT PUSH2 0x3713 JUMPI PUSH2 0x3712 PUSH2 0x54BC JUMP JUMPDEST JUMPDEST PUSH1 0x20 MUL PUSH1 0x20 ADD ADD SWAP1 PUSH20 0xFFFFFFFFFFFFFFFFFFFFFFFFFFFFFFFFFFFFFFFF AND SWAP1 DUP2 PUSH20 0xFFFFFFFFFFFFFFFFFFFFFFFFFFFFFFFFFFFFFFFF AND DUP2 MSTORE POP POP DUP5 DUP2 PUSH1 0x1 DUP2 MLOAD DUP2 LT PUSH2 0x3762 JUMPI PUSH2 0x3761 PUSH2 0x54BC JUMP JUMPDEST JUMPDEST PUSH1 0x20 MUL PUSH1 0x20 ADD ADD SWAP1 PUSH20 0xFFFFFFFFFFFFFFFFFFFFFFFFFFFFFFFFFFFFFFFF AND SWAP1 DUP2 PUSH20 0xFFFFFFFFFFFFFFFFFFFFFFFFFFFFFFFFFFFFFFFF AND DUP2 MSTORE POP POP PUSH1 0x60 PUSH32 0x0 PUSH20 0xFFFFFFFFFFFFFFFFFFFFFFFFFFFFFFFFFFFFFFFF AND PUSH4 0xD06CA61F DUP7 DUP5 PUSH1 0x40 MLOAD DUP4 PUSH4 0xFFFFFFFF AND PUSH1 0xE0 SHL DUP2 MSTORE PUSH1 0x4 ADD PUSH2 0x37F9 SWAP3 SWAP2 SWAP1 PUSH2 0x613A JUMP JUMPDEST PUSH0 PUSH1 0x40 MLOAD DUP1 DUP4 SUB DUP2 DUP7 GAS STATICCALL SWAP3 POP POP POP DUP1 ISZERO PUSH2 0x3836 JUMPI POP PUSH1 0x40 MLOAD RETURNDATASIZE PUSH0 DUP3 RETURNDATACOPY RETURNDATASIZE PUSH1 0x1F NOT PUSH1 0x1F DUP3 ADD AND DUP3 ADD DUP1 PUSH1 0x40 MSTORE POP DUP2 ADD SWAP1 PUSH2 0x3833 SWAP2 SWAP1 PUSH2 0x6228 JUMP JUMPDEST PUSH1 0x1 JUMPDEST PUSH2 0x386C JUMPI PUSH1 0x40 MLOAD PUSH32 0x6EED12FF00000000000000000000000000000000000000000000000000000000 DUP2 MSTORE PUSH1 0x4 ADD PUSH1 0x40 MLOAD DUP1 SWAP2 SUB SWAP1 REVERT JUMPDEST DUP1 SWAP2 POP POP PUSH1 0x2 DUP2 MLOAD LT ISZERO PUSH2 0x38AC JUMPI PUSH1 0x40 MLOAD PUSH32 0x6EED12FF00000000000000000000000000000000000000000000000000000000 DUP2 MSTORE PUSH1 0x4 ADD PUSH1 0x40 MLOAD DUP1 SWAP2 SUB SWAP1 REVERT JUMPDEST PUSH0 DUP2 PUSH1 0x1 DUP2 MLOAD DUP2 LT PUSH2 0x38C1 JUMPI PUSH2 0x38C0 PUSH2 0x54BC JUMP JUMPDEST JUMPDEST PUSH1 0x20 MUL PUSH1 0x20 ADD ADD MLOAD SWAP1 POP PUSH0 DUP2 SUB PUSH2 0x3904 JUMPI PUSH1 0x40 MLOAD PUSH32 0x6EED12FF00000000000000000000000000000000000000000000000000000000 DUP2 MSTORE PUSH1 0x4 ADD PUSH1 0x40 MLOAD DUP1 SWAP2 SUB SWAP1 REVERT JUMPDEST PUSH2 0x390E DUP2 DUP7 PUSH2 0x3E2E JUMP JUMPDEST SWAP4 POP POP POP POP JUMPDEST SWAP5 SWAP4 POP POP POP POP JUMP JUMPDEST PUSH1 0x60 PUSH2 0x3949 DUP7 PUSH32 0x0 DUP7 PUSH2 0x3EA5 JUMP JUMPDEST PUSH2 0x3995 PUSH32 0x0 DUP8 PUSH32 0x0 DUP8 PUSH2 0x3F6F JUMP JUMPDEST PUSH0 PUSH1 0x2 PUSH8 0xFFFFFFFFFFFFFFFF DUP2 GT ISZERO PUSH2 0x39B1 JUMPI PUSH2 0x39B0 PUSH2 0x4D0F JUMP JUMPDEST JUMPDEST PUSH1 0x40 MLOAD SWAP1 DUP1 DUP3 MSTORE DUP1 PUSH1 0x20 MUL PUSH1 0x20 ADD DUP3 ADD PUSH1 0x40 MSTORE DUP1 ISZERO PUSH2 0x39DF JUMPI DUP2 PUSH1 0x20 ADD PUSH1 0x20 DUP3 MUL DUP1 CALLDATASIZE DUP4 CALLDATACOPY DUP1 DUP3 ADD SWAP2 POP POP SWAP1 POP JUMPDEST POP SWAP1 POP DUP7 DUP2 PUSH0 DUP2 MLOAD DUP2 LT PUSH2 0x39F6 JUMPI PUSH2 0x39F5 PUSH2 0x54BC JUMP JUMPDEST JUMPDEST PUSH1 0x20 MUL PUSH1 0x20 ADD ADD SWAP1 PUSH20 0xFFFFFFFFFFFFFFFFFFFFFFFFFFFFFFFFFFFFFFFF AND SWAP1 DUP2 PUSH20 0xFFFFFFFFFFFFFFFFFFFFFFFFFFFFFFFFFFFFFFFF AND DUP2 MSTORE POP POP DUP6 DUP2 PUSH1 0x1 DUP2 MLOAD DUP2 LT PUSH2 0x3A45 JUMPI PUSH2 0x3A44 PUSH2 0x54BC JUMP JUMPDEST JUMPDEST PUSH1 0x20 MUL PUSH1 0x20 ADD ADD SWAP1 PUSH20 0xFFFFFFFFFFFFFFFFFFFFFFFFFFFFFFFFFFFFFFFF AND SWAP1 DUP2 PUSH20 0xFFFFFFFFFFFFFFFFFFFFFFFFFFFFFFFFFFFFFFFF AND DUP2 MSTORE POP POP DUP3 DUP6 DUP6 DUP4 PUSH1 0x1 PUSH1 0x40 MLOAD PUSH1 0x20 ADD PUSH2 0x3A99 SWAP6 SWAP5 SWAP4 SWAP3 SWAP2 SWAP1 PUSH2 0x626F JUMP JUMPDEST PUSH1 0x40 MLOAD PUSH1 0x20 DUP2 DUP4 SUB SUB DUP2 MSTORE SWAP1 PUSH1 0x40 MSTORE SWAP2 POP POP SWAP6 SWAP5 POP POP POP POP POP JUMP JUMPDEST PUSH0 PUSH0 DUP6 PUSH20 0xFFFFFFFFFFFFFFFFFFFFFFFFFFFFFFFFFFFFFFFF AND PUSH4 0x23B872DD PUSH1 0xE0 SHL DUP7 DUP7 DUP7 PUSH1 0x40 MLOAD PUSH1 0x24 ADD PUSH2 0x3AEA SWAP4 SWAP3 SWAP2 SWAP1 PUSH2 0x62C7 JUMP JUMPDEST PUSH1 0x40 MLOAD PUSH1 0x20 DUP2 DUP4 SUB SUB DUP2 MSTORE SWAP1 PUSH1 0x40 MSTORE SWAP1 PUSH28 0xFFFFFFFFFFFFFFFFFFFFFFFFFFFFFFFFFFFFFFFFFFFFFFFFFFFFFFFF NOT AND PUSH1 0x20 DUP3 ADD DUP1 MLOAD PUSH28 0xFFFFFFFFFFFFFFFFFFFFFFFFFFFFFFFFFFFFFFFFFFFFFFFFFFFFFFFF DUP4 DUP2 DUP4 AND OR DUP4 MSTORE POP POP POP POP PUSH1 0x40 MLOAD PUSH2 0x3B54 SWAP2 SWAP1 PUSH2 0x5A0A JUMP JUMPDEST PUSH0 PUSH1 0x40 MLOAD DUP1 DUP4 SUB DUP2 PUSH0 DUP7 GAS CALL SWAP2 POP POP RETURNDATASIZE DUP1 PUSH0 DUP2 EQ PUSH2 0x3B8D JUMPI PUSH1 0x40 MLOAD SWAP2 POP PUSH1 0x1F NOT PUSH1 0x3F RETURNDATASIZE ADD AND DUP3 ADD PUSH1 0x40 MSTORE RETURNDATASIZE DUP3 MSTORE RETURNDATASIZE PUSH0 PUSH1 0x20 DUP5 ADD RETURNDATACOPY PUSH2 0x3B92 JUMP JUMPDEST PUSH1 0x60 SWAP2 POP JUMPDEST POP SWAP2 POP SWAP2 POP DUP2 DUP1 ISZERO PUSH2 0x3BBF JUMPI POP PUSH0 DUP2 MLOAD EQ DUP1 PUSH2 0x3BBE JUMPI POP DUP1 DUP1 PUSH1 0x20 ADD SWAP1 MLOAD DUP2 ADD SWAP1 PUSH2 0x3BBD SWAP2 SWAP1 PUSH2 0x5A34 JUMP JUMPDEST JUMPDEST JUMPDEST PUSH2 0x3BFE JUMPI PUSH1 0x40 MLOAD PUSH32 0x8C379A000000000000000000000000000000000000000000000000000000000 DUP2 MSTORE PUSH1 0x4 ADD PUSH2 0x3BF5 SWAP1 PUSH2 0x6346 JUMP JUMPDEST PUSH1 0x40 MLOAD DUP1 SWAP2 SUB SWAP1 REVERT JUMPDEST POP POP POP POP POP POP JUMP JUMPDEST PUSH0 PUSH2 0x3C1C DUP5 DUP5 PUSH2 0x3C16 SWAP2 SWAP1 PUSH2 0x6364 JUMP JUMPDEST DUP4 PUSH2 0x4184 JUMP JUMPDEST SWAP1 POP SWAP4 SWAP3 POP POP POP JUMP JUMPDEST PUSH0 PUSH0 PUSH2 0x3C30 DUP7 PUSH2 0x421F JUMP JUMPDEST SWAP1 POP PUSH16 0xFFFFFFFFFFFFFFFFFFFFFFFFFFFFFFFF DUP1 AND DUP2 PUSH20 0xFFFFFFFFFFFFFFFFFFFFFFFFFFFFFFFFFFFFFFFF AND GT PUSH2 0x3D49 JUMPI PUSH0 DUP2 PUSH20 0xFFFFFFFFFFFFFFFFFFFFFFFFFFFFFFFFFFFFFFFF AND DUP3 PUSH20 0xFFFFFFFFFFFFFFFFFFFFFFFFFFFFFFFFFFFFFFFF AND PUSH2 0x3C9A SWAP2 SWAP1 PUSH2 0x5AC7 JUMP JUMPDEST SWAP1 POP DUP4 PUSH20 0xFFFFFFFFFFFFFFFFFFFFFFFFFFFFFFFFFFFFFFFF AND DUP6 PUSH20 0xFFFFFFFFFFFFFFFFFFFFFFFFFFFFFFFFFFFFFFFF AND LT PUSH2 0x3D0A JUMPI PUSH2 0x3D05 PUSH25 0x1000000000000000000000000000000000000000000000000 DUP8 PUSH16 0xFFFFFFFFFFFFFFFFFFFFFFFFFFFFFFFF AND DUP4 PUSH2 0x46D3 JUMP JUMPDEST PUSH2 0x3D41 JUMP JUMPDEST PUSH2 0x3D40 DUP2 DUP8 PUSH16 0xFFFFFFFFFFFFFFFFFFFFFFFFFFFFFFFF AND PUSH25 0x1000000000000000000000000000000000000000000000000 PUSH2 0x46D3 JUMP JUMPDEST JUMPDEST SWAP3 POP POP PUSH2 0x3E25 JUMP JUMPDEST PUSH0 PUSH2 0x3D8A DUP3 PUSH20 0xFFFFFFFFFFFFFFFFFFFFFFFFFFFFFFFFFFFFFFFF AND DUP4 PUSH20 0xFFFFFFFFFFFFFFFFFFFFFFFFFFFFFFFFFFFFFFFF AND PUSH9 0x10000000000000000 PUSH2 0x46D3 JUMP JUMPDEST SWAP1 POP DUP4 PUSH20 0xFFFFFFFFFFFFFFFFFFFFFFFFFFFFFFFFFFFFFFFF AND DUP6 PUSH20 0xFFFFFFFFFFFFFFFFFFFFFFFFFFFFFFFFFFFFFFFF AND LT PUSH2 0x3DF2 JUMPI PUSH2 0x3DED PUSH17 0x100000000000000000000000000000000 DUP8 PUSH16 0xFFFFFFFFFFFFFFFFFFFFFFFFFFFFFFFF AND DUP4 PUSH2 0x46D3 JUMP JUMPDEST PUSH2 0x3E21 JUMP JUMPDEST PUSH2 0x3E20 DUP2 DUP8 PUSH16 0xFFFFFFFFFFFFFFFFFFFFFFFFFFFFFFFF AND PUSH17 0x100000000000000000000000000000000 PUSH2 0x46D3 JUMP JUMPDEST JUMPDEST SWAP3 POP POP JUMPDEST POP SWAP5 SWAP4 POP POP POP POP JUMP JUMPDEST PUSH0 PUSH2 0x2710 DUP3 PUSH4 0xFFFFFFFF AND GT ISZERO PUSH2 0x3E71 JUMPI PUSH1 0x40 MLOAD PUSH32 0x124955FB00000000000000000000000000000000000000000000000000000000 DUP2 MSTORE PUSH1 0x4 ADD PUSH1 0x40 MLOAD DUP1 SWAP2 SUB SWAP1 REVERT JUMPDEST PUSH2 0x2710 DUP3 PUSH4 0xFFFFFFFF AND PUSH2 0x2710 PUSH2 0x3E88 SWAP2 SWAP1 PUSH2 0x5421 JUMP JUMPDEST DUP5 PUSH2 0x3E93 SWAP2 SWAP1 PUSH2 0x5AC7 JUMP JUMPDEST PUSH2 0x3E9D SWAP2 SWAP1 PUSH2 0x5B08 JUMP JUMPDEST SWAP1 POP SWAP3 SWAP2 POP POP JUMP JUMPDEST PUSH0 DUP4 PUSH20 0xFFFFFFFFFFFFFFFFFFFFFFFFFFFFFFFFFFFFFFFF AND PUSH4 0xDD62ED3E ADDRESS DUP6 PUSH1 0x40 MLOAD DUP4 PUSH4 0xFFFFFFFF AND PUSH1 0xE0 SHL DUP2 MSTORE PUSH1 0x4 ADD PUSH2 0x3EE1 SWAP3 SWAP2 SWAP1 PUSH2 0x58A1 JUMP JUMPDEST PUSH1 0x20 PUSH1 0x40 MLOAD DUP1 DUP4 SUB DUP2 DUP7 GAS STATICCALL ISZERO DUP1 ISZERO PUSH2 0x3EFC JUMPI RETURNDATASIZE PUSH0 PUSH0 RETURNDATACOPY RETURNDATASIZE PUSH0 REVERT JUMPDEST POP POP POP POP PUSH1 0x40 MLOAD RETURNDATASIZE PUSH1 0x1F NOT PUSH1 0x1F DUP3 ADD AND DUP3 ADD DUP1 PUSH1 0x40 MSTORE POP DUP2 ADD SWAP1 PUSH2 0x3F20 SWAP2 SWAP1 PUSH2 0x53C9 JUMP JUMPDEST SWAP1 POP DUP2 DUP2 LT ISZERO PUSH2 0x3F69 JUMPI PUSH0 DUP2 EQ PUSH2 0x3F3D JUMPI PUSH2 0x3F3C DUP5 DUP5 PUSH0 PUSH2 0x4893 JUMP JUMPDEST JUMPDEST PUSH2 0x3F68 DUP5 DUP5 PUSH32 0xFFFFFFFFFFFFFFFFFFFFFFFFFFFFFFFFFFFFFFFFFFFFFFFFFFFFFFFFFFFFFFFF PUSH2 0x4893 JUMP JUMPDEST JUMPDEST POP POP POP POP JUMP JUMPDEST PUSH0 PUSH20 0xFFFFFFFFFFFFFFFFFFFFFFFFFFFFFFFFFFFFFFFF AND DUP4 PUSH20 0xFFFFFFFFFFFFFFFFFFFFFFFFFFFFFFFFFFFFFFFF AND EQ DUP1 PUSH2 0x3FD4 JUMPI POP PUSH0 PUSH20 0xFFFFFFFFFFFFFFFFFFFFFFFFFFFFFFFFFFFFFFFF AND DUP3 PUSH20 0xFFFFFFFFFFFFFFFFFFFFFFFFFFFFFFFFFFFFFFFF AND EQ JUMPDEST ISZERO PUSH2 0x400B JUMPI PUSH1 0x40 MLOAD PUSH32 0x7401D93100000000000000000000000000000000000000000000000000000000 DUP2 MSTORE PUSH1 0x4 ADD PUSH1 0x40 MLOAD DUP1 SWAP2 SUB SWAP1 REVERT JUMPDEST PUSH0 PUSH0 DUP6 PUSH20 0xFFFFFFFFFFFFFFFFFFFFFFFFFFFFFFFFFFFFFFFF AND PUSH4 0x927DA105 ADDRESS DUP8 DUP8 PUSH1 0x40 MLOAD DUP5 PUSH4 0xFFFFFFFF AND PUSH1 0xE0 SHL DUP2 MSTORE PUSH1 0x4 ADD PUSH2 0x404A SWAP4 SWAP3 SWAP2 SWAP1 PUSH2 0x63C2 JUMP JUMPDEST PUSH1 0x60 PUSH1 0x40 MLOAD DUP1 DUP4 SUB DUP2 DUP7 GAS STATICCALL ISZERO DUP1 ISZERO PUSH2 0x4065 JUMPI RETURNDATASIZE PUSH0 PUSH0 RETURNDATACOPY RETURNDATASIZE PUSH0 REVERT JUMPDEST POP POP POP POP PUSH1 0x40 MLOAD RETURNDATASIZE PUSH1 0x1F NOT PUSH1 0x1F DUP3 ADD AND DUP3 ADD DUP1 PUSH1 0x40 MSTORE POP DUP2 ADD SWAP1 PUSH2 0x4089 SWAP2 SWAP1 PUSH2 0x6432 JUMP JUMPDEST POP SWAP2 POP SWAP2 POP PUSH0 DUP4 PUSH20 0xFFFFFFFFFFFFFFFFFFFFFFFFFFFFFFFFFFFFFFFF AND DUP4 PUSH20 0xFFFFFFFFFFFFFFFFFFFFFFFFFFFFFFFFFFFFFFFF AND LT ISZERO SWAP1 POP PUSH0 PUSH0 DUP4 PUSH6 0xFFFFFFFFFFFF AND EQ ISZERO DUP1 ISZERO PUSH2 0x40E2 JUMPI POP TIMESTAMP DUP4 PUSH6 0xFFFFFFFFFFFF AND GT ISZERO JUMPDEST SWAP1 POP DUP2 ISZERO DUP1 PUSH2 0x40EE JUMPI POP DUP1 JUMPDEST ISZERO PUSH2 0x417A JUMPI DUP8 PUSH20 0xFFFFFFFFFFFFFFFFFFFFFFFFFFFFFFFFFFFFFFFF AND PUSH4 0x87517C45 DUP9 DUP9 PUSH20 0xFFFFFFFFFFFFFFFFFFFFFFFFFFFFFFFFFFFFFFFF PUSH6 0xFFFFFFFFFFFF PUSH1 0x40 MLOAD DUP6 PUSH4 0xFFFFFFFF AND PUSH1 0xE0 SHL DUP2 MSTORE PUSH1 0x4 ADD PUSH2 0x414C SWAP5 SWAP4 SWAP3 SWAP2 SWAP1 PUSH2 0x64A0 JUMP JUMPDEST PUSH0 PUSH1 0x40 MLOAD DUP1 DUP4 SUB DUP2 PUSH0 DUP8 DUP1 EXTCODESIZE ISZERO DUP1 ISZERO PUSH2 0x4163 JUMPI PUSH0 PUSH0 REVERT JUMPDEST POP GAS CALL ISZERO DUP1 ISZERO PUSH2 0x4175 JUMPI RETURNDATASIZE PUSH0 PUSH0 RETURNDATACOPY RETURNDATASIZE PUSH0 REVERT JUMPDEST POP POP POP POP JUMPDEST POP POP POP POP POP POP POP POP JUMP JUMPDEST PUSH0 PUSH0 DUP3 PUSH4 0xFFFFFFFF AND SUB PUSH2 0x41CD JUMPI PUSH1 0x40 MLOAD PUSH32 0x8C379A000000000000000000000000000000000000000000000000000000000 DUP2 MSTORE PUSH1 0x4 ADD PUSH2 0x41C4 SWAP1 PUSH2 0x652D JUMP JUMPDEST PUSH1 0x40 MLOAD DUP1 SWAP2 SUB SWAP1 REVERT JUMPDEST PUSH0 DUP3 PUSH1 0x3 SIGNEXTEND SWAP1 POP PUSH0 DUP2 DUP6 PUSH2 0x41E1 SWAP2 SWAP1 PUSH2 0x654B JUMP JUMPDEST SWAP1 POP PUSH0 DUP3 DUP7 PUSH2 0x41F0 SWAP2 SWAP1 PUSH2 0x65B3 JUMP JUMPDEST SWAP1 POP DUP2 SWAP4 POP PUSH0 DUP7 PUSH1 0x6 SIGNEXTEND SLT DUP1 ISZERO PUSH2 0x420A JUMPI POP PUSH0 DUP2 PUSH1 0x6 SIGNEXTEND EQ ISZERO JUMPDEST ISZERO PUSH2 0x4216 JUMPI PUSH1 0x1 DUP5 SUB SWAP4 POP JUMPDEST POP POP POP SWAP3 SWAP2 POP POP JUMP JUMPDEST PUSH0 PUSH0 PUSH0 DUP4 PUSH1 0x2 SIGNEXTEND SLT PUSH2 0x4234 JUMPI DUP3 PUSH1 0x2 SIGNEXTEND PUSH2 0x4242 JUMP JUMPDEST DUP3 PUSH1 0x2 SIGNEXTEND PUSH2 0x4241 SWAP1 PUSH2 0x65EC JUMP JUMPDEST JUMPDEST SWAP1 POP PUSH32 0xFFFFFFFFFFFFFFFFFFFFFFFFFFFFFFFFFFFFFFFFFFFFFFFFFFFFFFFFFFF27618 PUSH2 0x426E SWAP1 PUSH2 0x6632 JUMP JUMPDEST PUSH3 0xFFFFFF AND DUP2 GT ISZERO PUSH2 0x42B5 JUMPI PUSH1 0x40 MLOAD PUSH32 0x8C379A000000000000000000000000000000000000000000000000000000000 DUP2 MSTORE PUSH1 0x4 ADD PUSH2 0x42AC SWAP1 PUSH2 0x66C2 JUMP JUMPDEST PUSH1 0x40 MLOAD DUP1 SWAP2 SUB SWAP1 REVERT JUMPDEST PUSH0 PUSH0 PUSH1 0x1 DUP4 AND SUB PUSH2 0x42D7 JUMPI PUSH17 0x100000000000000000000000000000000 PUSH2 0x42E9 JUMP JUMPDEST PUSH16 0xFFFCB933BD6FAD37AA2D162D1A594001 JUMPDEST PUSH17 0xFFFFFFFFFFFFFFFFFFFFFFFFFFFFFFFFFF AND SWAP1 POP PUSH0 PUSH1 0x2 DUP4 AND EQ PUSH2 0x432B JUMPI PUSH1 0x80 PUSH16 0xFFF97272373D413259A46990580E213A DUP3 PUSH2 0x4326 SWAP2 SWAP1 PUSH2 0x5AC7 JUMP JUMPDEST SWAP1 SHR SWAP1 POP JUMPDEST PUSH0 PUSH1 0x4 DUP4 AND EQ PUSH2 0x4358 JUMPI PUSH1 0x80 PUSH16 0xFFF2E50F5F656932EF12357CF3C7FDCC DUP3 PUSH2 0x4353 SWAP2 SWAP1 PUSH2 0x5AC7 JUMP JUMPDEST SWAP1 SHR SWAP1 POP JUMPDEST PUSH0 PUSH1 0x8 DUP4 AND EQ PUSH2 0x4385 JUMPI PUSH1 0x80 PUSH16 0xFFE5CACA7E10E4E61C3624EAA0941CD0 DUP3 PUSH2 0x4380 SWAP2 SWAP1 PUSH2 0x5AC7 JUMP JUMPDEST SWAP1 SHR SWAP1 POP JUMPDEST PUSH0 PUSH1 0x10 DUP4 AND EQ PUSH2 0x43B2 JUMPI PUSH1 0x80 PUSH16 0xFFCB9843D60F6159C9DB58835C926644 DUP3 PUSH2 0x43AD SWAP2 SWAP1 PUSH2 0x5AC7 JUMP JUMPDEST SWAP1 SHR SWAP1 POP JUMPDEST PUSH0 PUSH1 0x20 DUP4 AND EQ PUSH2 0x43DF JUMPI PUSH1 0x80 PUSH16 0xFF973B41FA98C081472E6896DFB254C0 DUP3 PUSH2 0x43DA SWAP2 SWAP1 PUSH2 0x5AC7 JUMP JUMPDEST SWAP1 SHR SWAP1 POP JUMPDEST PUSH0 PUSH1 0x40 DUP4 AND EQ PUSH2 0x440C JUMPI PUSH1 0x80 PUSH16 0xFF2EA16466C96A3843EC78B326B52861 DUP3 PUSH2 0x4407 SWAP2 SWAP1 PUSH2 0x5AC7 JUMP JUMPDEST SWAP1 SHR SWAP1 POP JUMPDEST PUSH0 PUSH1 0x80 DUP4 AND EQ PUSH2 0x4439 JUMPI PUSH1 0x80 PUSH16 0xFE5DEE046A99A2A811C461F1969C3053 DUP3 PUSH2 0x4434 SWAP2 SWAP1 PUSH2 0x5AC7 JUMP JUMPDEST SWAP1 SHR SWAP1 POP JUMPDEST PUSH0 PUSH2 0x100 DUP4 AND EQ PUSH2 0x4467 JUMPI PUSH1 0x80 PUSH16 0xFCBE86C7900A88AEDCFFC83B479AA3A4 DUP3 PUSH2 0x4462 SWAP2 SWAP1 PUSH2 0x5AC7 JUMP JUMPDEST SWAP1 SHR SWAP1 POP JUMPDEST PUSH0 PUSH2 0x200 DUP4 AND EQ PUSH2 0x4495 JUMPI PUSH1 0x80 PUSH16 0xF987A7253AC413176F2B074CF7815E54 DUP3 PUSH2 0x4490 SWAP2 SWAP1 PUSH2 0x5AC7 JUMP JUMPDEST SWAP1 SHR SWAP1 POP JUMPDEST PUSH0 PUSH2 0x400 DUP4 AND EQ PUSH2 0x44C3 JUMPI PUSH1 0x80 PUSH16 0xF3392B0822B70005940C7A398E4B70F3 DUP3 PUSH2 0x44BE SWAP2 SWAP1 PUSH2 0x5AC7 JUMP JUMPDEST SWAP1 SHR SWAP1 POP JUMPDEST PUSH0 PUSH2 0x800 DUP4 AND EQ PUSH2 0x44F1 JUMPI PUSH1 0x80 PUSH16 0xE7159475A2C29B7443B29C7FA6E889D9 DUP3 PUSH2 0x44EC SWAP2 SWAP1 PUSH2 0x5AC7 JUMP JUMPDEST SWAP1 SHR SWAP1 POP JUMPDEST PUSH0 PUSH2 0x1000 DUP4 AND EQ PUSH2 0x451F JUMPI PUSH1 0x80 PUSH16 0xD097F3BDFD2022B8845AD8F792AA5825 DUP3 PUSH2 0x451A SWAP2 SWAP1 PUSH2 0x5AC7 JUMP JUMPDEST SWAP1 SHR SWAP1 POP JUMPDEST PUSH0 PUSH2 0x2000 DUP4 AND EQ PUSH2 0x454D JUMPI PUSH1 0x80 PUSH16 0xA9F746462D870FDF8A65DC1F90E061E5 DUP3 PUSH2 0x4548 SWAP2 SWAP1 PUSH2 0x5AC7 JUMP JUMPDEST SWAP1 SHR SWAP1 POP JUMPDEST PUSH0 PUSH2 0x4000 DUP4 AND EQ PUSH2 0x457B JUMPI PUSH1 0x80 PUSH16 0x70D869A156D2A1B890BB3DF62BAF32F7 DUP3 PUSH2 0x4576 SWAP2 SWAP1 PUSH2 0x5AC7 JUMP JUMPDEST SWAP1 SHR SWAP1 POP JUMPDEST PUSH0 PUSH2 0x8000 DUP4 AND EQ PUSH2 0x45A9 JUMPI PUSH1 0x80 PUSH16 0x31BE135F97D08FD981231505542FCFA6 DUP3 PUSH2 0x45A4 SWAP2 SWAP1 PUSH2 0x5AC7 JUMP JUMPDEST SWAP1 SHR SWAP1 POP JUMPDEST PUSH0 PUSH3 0x10000 DUP4 AND EQ PUSH2 0x45D8 JUMPI PUSH1 0x80 PUSH16 0x9AA508B5B7A84E1C677DE54F3E99BC9 DUP3 PUSH2 0x45D3 SWAP2 SWAP1 PUSH2 0x5AC7 JUMP JUMPDEST SWAP1 SHR SWAP1 POP JUMPDEST PUSH0 PUSH3 0x20000 DUP4 AND EQ PUSH2 0x4606 JUMPI PUSH1 0x80 PUSH15 0x5D6AF8DEDB81196699C329225EE604 DUP3 PUSH2 0x4601 SWAP2 SWAP1 PUSH2 0x5AC7 JUMP JUMPDEST SWAP1 SHR SWAP1 POP JUMPDEST PUSH0 PUSH3 0x40000 DUP4 AND EQ PUSH2 0x4633 JUMPI PUSH1 0x80 PUSH14 0x2216E584F5FA1EA926041BEDFE98 DUP3 PUSH2 0x462E SWAP2 SWAP1 PUSH2 0x5AC7 JUMP JUMPDEST SWAP1 SHR SWAP1 POP JUMPDEST PUSH0 PUSH3 0x80000 DUP4 AND EQ PUSH2 0x465E JUMPI PUSH1 0x80 PUSH12 0x48A170391F7DC42444E8FA2 DUP3 PUSH2 0x4659 SWAP2 SWAP1 PUSH2 0x5AC7 JUMP JUMPDEST SWAP1 SHR SWAP1 POP JUMPDEST PUSH0 DUP5 PUSH1 0x2 SIGNEXTEND SGT ISZERO PUSH2 0x4698 JUMPI DUP1 PUSH32 0xFFFFFFFFFFFFFFFFFFFFFFFFFFFFFFFFFFFFFFFFFFFFFFFFFFFFFFFFFFFFFFFF PUSH2 0x4695 SWAP2 SWAP1 PUSH2 0x5B08 JUMP JUMPDEST SWAP1 POP JUMPDEST PUSH0 PUSH5 0x100000000 DUP3 PUSH2 0x46AA SWAP2 SWAP1 PUSH2 0x66E0 JUMP JUMPDEST EQ PUSH2 0x46B6 JUMPI PUSH1 0x1 PUSH2 0x46B8 JUMP JUMPDEST PUSH0 JUMPDEST PUSH1 0xFF AND PUSH1 0x20 DUP3 SWAP1 SHR PUSH2 0x46CA SWAP2 SWAP1 PUSH2 0x6710 JUMP JUMPDEST SWAP3 POP POP POP SWAP2 SWAP1 POP JUMP JUMPDEST PUSH0 PUSH0 PUSH0 PUSH0 NOT DUP6 DUP8 MULMOD DUP6 DUP8 MUL SWAP3 POP DUP3 DUP2 LT DUP4 DUP3 SUB SUB SWAP2 POP POP PUSH0 DUP2 SUB PUSH2 0x4708 JUMPI PUSH0 DUP5 GT PUSH2 0x46FC JUMPI PUSH0 PUSH0 REVERT JUMPDEST DUP4 DUP3 DIV SWAP3 POP POP POP PUSH2 0x488C JUMP JUMPDEST DUP1 DUP5 GT PUSH2 0x4713 JUMPI PUSH0 PUSH0 REVERT JUMPDEST PUSH0 DUP5 DUP7 DUP9 MULMOD SWAP1 POP DUP3 DUP2 GT DUP3 SUB SWAP2 POP DUP1 DUP4 SUB SWAP3 POP PUSH0 PUSH1 0x1 DUP7 PUSH32 0xFFFFFFFFFFFFFFFFFFFFFFFFFFFFFFFFFFFFFFFFFFFFFFFFFFFFFFFFFFFFFFFF PUSH2 0x4755 SWAP2 SWAP1 PUSH2 0x5421 JUMP JUMPDEST PUSH2 0x475F SWAP2 SWAP1 PUSH2 0x6710 JUMP JUMPDEST DUP7 AND SWAP1 POP DUP1 DUP7 DIV SWAP6 POP DUP1 DUP5 DIV SWAP4 POP PUSH1 0x1 DUP2 DUP3 PUSH0 SUB DIV ADD SWAP1 POP DUP1 DUP4 PUSH2 0x4783 SWAP2 SWAP1 PUSH2 0x5AC7 JUMP JUMPDEST DUP5 OR SWAP4 POP PUSH0 PUSH1 0x2 DUP8 PUSH1 0x3 PUSH2 0x4797 SWAP2 SWAP1 PUSH2 0x5AC7 JUMP JUMPDEST XOR SWAP1 POP DUP1 DUP8 PUSH2 0x47A6 SWAP2 SWAP1 PUSH2 0x5AC7 JUMP JUMPDEST PUSH1 0x2 PUSH2 0x47B2 SWAP2 SWAP1 PUSH2 0x5421 JUMP JUMPDEST DUP2 PUSH2 0x47BD SWAP2 SWAP1 PUSH2 0x5AC7 JUMP JUMPDEST SWAP1 POP DUP1 DUP8 PUSH2 0x47CB SWAP2 SWAP1 PUSH2 0x5AC7 JUMP JUMPDEST PUSH1 0x2 PUSH2 0x47D7 SWAP2 SWAP1 PUSH2 0x5421 JUMP JUMPDEST DUP2 PUSH2 0x47E2 SWAP2 SWAP1 PUSH2 0x5AC7 JUMP JUMPDEST SWAP1 POP DUP1 DUP8 PUSH2 0x47F0 SWAP2 SWAP1 PUSH2 0x5AC7 JUMP JUMPDEST PUSH1 0x2 PUSH2 0x47FC SWAP2 SWAP1 PUSH2 0x5421 JUMP JUMPDEST DUP2 PUSH2 0x4807 SWAP2 SWAP1 PUSH2 0x5AC7 JUMP JUMPDEST SWAP1 POP DUP1 DUP8 PUSH2 0x4815 SWAP2 SWAP1 PUSH2 0x5AC7 JUMP JUMPDEST PUSH1 0x2 PUSH2 0x4821 SWAP2 SWAP1 PUSH2 0x5421 JUMP JUMPDEST DUP2 PUSH2 0x482C SWAP2 SWAP1 PUSH2 0x5AC7 JUMP JUMPDEST SWAP1 POP DUP1 DUP8 PUSH2 0x483A SWAP2 SWAP1 PUSH2 0x5AC7 JUMP JUMPDEST PUSH1 0x2 PUSH2 0x4846 SWAP2 SWAP1 PUSH2 0x5421 JUMP JUMPDEST DUP2 PUSH2 0x4851 SWAP2 SWAP1 PUSH2 0x5AC7 JUMP JUMPDEST SWAP1 POP DUP1 DUP8 PUSH2 0x485F SWAP2 SWAP1 PUSH2 0x5AC7 JUMP JUMPDEST PUSH1 0x2 PUSH2 0x486B SWAP2 SWAP1 PUSH2 0x5421 JUMP JUMPDEST DUP2 PUSH2 0x4876 SWAP2 SWAP1 PUSH2 0x5AC7 JUMP JUMPDEST SWAP1 POP DUP1 DUP6 PUSH2 0x4884 SWAP2 SWAP1 PUSH2 0x5AC7 JUMP JUMPDEST SWAP6 POP POP POP POP POP POP JUMPDEST SWAP4 SWAP3 POP POP POP JUMP JUMPDEST PUSH0 PUSH0 DUP5 PUSH20 0xFFFFFFFFFFFFFFFFFFFFFFFFFFFFFFFFFFFFFFFF AND PUSH4 0x95EA7B3 PUSH1 0xE0 SHL DUP6 DUP6 PUSH1 0x40 MLOAD PUSH1 0x24 ADD PUSH2 0x48C7 SWAP3 SWAP2 SWAP1 PUSH2 0x59B3 JUMP JUMPDEST PUSH1 0x40 MLOAD PUSH1 0x20 DUP2 DUP4 SUB SUB DUP2 MSTORE SWAP1 PUSH1 0x40 MSTORE SWAP1 PUSH28 0xFFFFFFFFFFFFFFFFFFFFFFFFFFFFFFFFFFFFFFFFFFFFFFFFFFFFFFFF NOT AND PUSH1 0x20 DUP3 ADD DUP1 MLOAD PUSH28 0xFFFFFFFFFFFFFFFFFFFFFFFFFFFFFFFFFFFFFFFFFFFFFFFFFFFFFFFF DUP4 DUP2 DUP4 AND OR DUP4 MSTORE POP POP POP POP PUSH1 0x40 MLOAD PUSH2 0x4931 SWAP2 SWAP1 PUSH2 0x5A0A JUMP JUMPDEST PUSH0 PUSH1 0x40 MLOAD DUP1 DUP4 SUB DUP2 PUSH0 DUP7 GAS CALL SWAP2 POP POP RETURNDATASIZE DUP1 PUSH0 DUP2 EQ PUSH2 0x496A JUMPI PUSH1 0x40 MLOAD SWAP2 POP PUSH1 0x1F NOT PUSH1 0x3F RETURNDATASIZE ADD AND DUP3 ADD PUSH1 0x40 MSTORE RETURNDATASIZE DUP3 MSTORE RETURNDATASIZE PUSH0 PUSH1 0x20 DUP5 ADD RETURNDATACOPY PUSH2 0x496F JUMP JUMPDEST PUSH1 0x60 SWAP2 POP JUMPDEST POP SWAP2 POP SWAP2 POP DUP2 DUP1 ISZERO PUSH2 0x499C JUMPI POP PUSH0 DUP2 MLOAD EQ DUP1 PUSH2 0x499B JUMPI POP DUP1 DUP1 PUSH1 0x20 ADD SWAP1 MLOAD DUP2 ADD SWAP1 PUSH2 0x499A SWAP2 SWAP1 PUSH2 0x5A34 JUMP JUMPDEST JUMPDEST JUMPDEST PUSH2 0x49DB JUMPI PUSH1 0x40 MLOAD PUSH32 0x8C379A000000000000000000000000000000000000000000000000000000000 DUP2 MSTORE PUSH1 0x4 ADD PUSH2 0x49D2 SWAP1 PUSH2 0x678D JUMP JUMPDEST PUSH1 0x40 MLOAD DUP1 SWAP2 SUB SWAP1 REVERT JUMPDEST POP POP POP POP POP JUMP JUMPDEST PUSH1 0x40 MLOAD DUP1 PUSH1 0x80 ADD PUSH1 0x40 MSTORE DUP1 PUSH0 PUSH20 0xFFFFFFFFFFFFFFFFFFFFFFFFFFFFFFFFFFFFFFFF AND DUP2 MSTORE PUSH1 0x20 ADD PUSH0 PUSH3 0xFFFFFF AND DUP2 MSTORE PUSH1 0x20 ADD PUSH0 PUSH1 0xFF AND DUP2 MSTORE PUSH1 0x20 ADD PUSH0 PUSH8 0xFFFFFFFFFFFFFFFF AND DUP2 MSTORE POP SWAP1 JUMP JUMPDEST PUSH1 0x40 MLOAD DUP1 PUSH1 0xC0 ADD PUSH1 0x40 MSTORE DUP1 PUSH1 0x60 DUP2 MSTORE PUSH1 0x20 ADD PUSH1 0x60 DUP2 MSTORE PUSH1 0x20 ADD PUSH0 DUP2 MSTORE PUSH1 0x20 ADD PUSH0 DUP2 MSTORE PUSH1 0x20 ADD PUSH0 DUP2 MSTORE PUSH1 0x20 ADD PUSH0 DUP2 MSTORE POP SWAP1 JUMP JUMPDEST PUSH1 0x40 MLOAD DUP1 PUSH1 0x60 ADD PUSH1 0x40 MSTORE DUP1 PUSH1 0x60 DUP2 MSTORE PUSH1 0x20 ADD PUSH1 0x60 DUP2 MSTORE PUSH1 0x20 ADD PUSH0 DUP2 MSTORE POP SWAP1 JUMP JUMPDEST PUSH0 PUSH4 0xFFFFFFFF DUP3 AND SWAP1 POP SWAP2 SWAP1 POP JUMP JUMPDEST PUSH2 0x4A98 DUP2 PUSH2 0x4A80 JUMP JUMPDEST DUP3 MSTORE POP POP JUMP JUMPDEST PUSH0 PUSH1 0x20 DUP3 ADD SWAP1 POP PUSH2 0x4AB1 PUSH0 DUP4 ADD DUP5 PUSH2 0x4A8F JUMP JUMPDEST SWAP3 SWAP2 POP POP JUMP JUMPDEST PUSH0 PUSH1 0x40 MLOAD SWAP1 POP SWAP1 JUMP JUMPDEST PUSH0 PUSH0 REVERT JUMPDEST PUSH0 PUSH0 REVERT JUMPDEST PUSH0 PUSH20 0xFFFFFFFFFFFFFFFFFFFFFFFFFFFFFFFFFFFFFFFF DUP3 AND SWAP1 POP SWAP2 SWAP1 POP JUMP JUMPDEST PUSH0 PUSH2 0x4AF1 DUP3 PUSH2 0x4AC8 JUMP JUMPDEST SWAP1 POP SWAP2 SWAP1 POP JUMP JUMPDEST PUSH2 0x4B01 DUP2 PUSH2 0x4AE7 JUMP JUMPDEST DUP2 EQ PUSH2 0x4B0B JUMPI PUSH0 PUSH0 REVERT JUMPDEST POP JUMP JUMPDEST PUSH0 DUP2 CALLDATALOAD SWAP1 POP PUSH2 0x4B1C DUP2 PUSH2 0x4AF8 JUMP JUMPDEST SWAP3 SWAP2 POP POP JUMP JUMPDEST PUSH0 PUSH0 PUSH1 0x40 DUP4 DUP6 SUB SLT ISZERO PUSH2 0x4B38 JUMPI PUSH2 0x4B37 PUSH2 0x4AC0 JUMP JUMPDEST JUMPDEST PUSH0 PUSH2 0x4B45 DUP6 DUP3 DUP7 ADD PUSH2 0x4B0E JUMP JUMPDEST SWAP3 POP POP PUSH1 0x20 PUSH2 0x4B56 DUP6 DUP3 DUP7 ADD PUSH2 0x4B0E JUMP JUMPDEST SWAP2 POP POP SWAP3 POP SWAP3 SWAP1 POP JUMP JUMPDEST PUSH2 0x4B69 DUP2 PUSH2 0x4A80 JUMP JUMPDEST DUP2 EQ PUSH2 0x4B73 JUMPI PUSH0 PUSH0 REVERT JUMPDEST POP JUMP JUMPDEST PUSH0 DUP2 CALLDATALOAD SWAP1 POP PUSH2 0x4B84 DUP2 PUSH2 0x4B60 JUMP JUMPDEST SWAP3 SWAP2 POP POP JUMP JUMPDEST PUSH0 PUSH1 0x20 DUP3 DUP5 SUB SLT ISZERO PUSH2 0x4B9F JUMPI PUSH2 0x4B9E PUSH2 0x4AC0 JUMP JUMPDEST JUMPDEST PUSH0 PUSH2 0x4BAC DUP5 DUP3 DUP6 ADD PUSH2 0x4B76 JUMP JUMPDEST SWAP2 POP POP SWAP3 SWAP2 POP POP JUMP JUMPDEST PUSH0 DUP2 SWAP1 POP SWAP2 SWAP1 POP JUMP JUMPDEST PUSH0 PUSH2 0x4BD8 PUSH2 0x4BD3 PUSH2 0x4BCE DUP5 PUSH2 0x4AC8 JUMP JUMPDEST PUSH2 0x4BB5 JUMP JUMPDEST PUSH2 0x4AC8 JUMP JUMPDEST SWAP1 POP SWAP2 SWAP1 POP JUMP JUMPDEST PUSH0 PUSH2 0x4BE9 DUP3 PUSH2 0x4BBE JUMP JUMPDEST SWAP1 POP SWAP2 SWAP1 POP JUMP JUMPDEST PUSH0 PUSH2 0x4BFA DUP3 PUSH2 0x4BDF JUMP JUMPDEST SWAP1 POP SWAP2 SWAP1 POP JUMP JUMPDEST PUSH2 0x4C0A DUP2 PUSH2 0x4BF0 JUMP JUMPDEST DUP3 MSTORE POP POP JUMP JUMPDEST PUSH0 PUSH1 0x20 DUP3 ADD SWAP1 POP PUSH2 0x4C23 PUSH0 DUP4 ADD DUP5 PUSH2 0x4C01 JUMP JUMPDEST SWAP3 SWAP2 POP POP JUMP JUMPDEST PUSH0 PUSH0 REVERT JUMPDEST PUSH0 PUSH0 REVERT JUMPDEST PUSH0 PUSH0 REVERT JUMPDEST PUSH0 PUSH0 DUP4 PUSH1 0x1F DUP5 ADD SLT PUSH2 0x4C4A JUMPI PUSH2 0x4C49 PUSH2 0x4C29 JUMP JUMPDEST JUMPDEST DUP3 CALLDATALOAD SWAP1 POP PUSH8 0xFFFFFFFFFFFFFFFF DUP2 GT ISZERO PUSH2 0x4C67 JUMPI PUSH2 0x4C66 PUSH2 0x4C2D JUMP JUMPDEST JUMPDEST PUSH1 0x20 DUP4 ADD SWAP2 POP DUP4 PUSH1 0x40 DUP3 MUL DUP4 ADD GT ISZERO PUSH2 0x4C83 JUMPI PUSH2 0x4C82 PUSH2 0x4C31 JUMP JUMPDEST JUMPDEST SWAP3 POP SWAP3 SWAP1 POP JUMP JUMPDEST PUSH0 PUSH0 PUSH0 PUSH0 PUSH1 0x60 DUP6 DUP8 SUB SLT ISZERO PUSH2 0x4CA2 JUMPI PUSH2 0x4CA1 PUSH2 0x4AC0 JUMP JUMPDEST JUMPDEST PUSH0 DUP6 ADD CALLDATALOAD PUSH8 0xFFFFFFFFFFFFFFFF DUP2 GT ISZERO PUSH2 0x4CBF JUMPI PUSH2 0x4CBE PUSH2 0x4AC4 JUMP JUMPDEST JUMPDEST PUSH2 0x4CCB DUP8 DUP3 DUP9 ADD PUSH2 0x4C35 JUMP JUMPDEST SWAP5 POP SWAP5 POP POP PUSH1 0x20 PUSH2 0x4CDE DUP8 DUP3 DUP9 ADD PUSH2 0x4B0E JUMP JUMPDEST SWAP3 POP POP PUSH1 0x40 PUSH2 0x4CEF DUP8 DUP3 DUP9 ADD PUSH2 0x4B76 JUMP JUMPDEST SWAP2 POP POP SWAP3 SWAP6 SWAP2 SWAP5 POP SWAP3 POP JUMP JUMPDEST PUSH0 PUSH0 REVERT JUMPDEST PUSH0 PUSH1 0x1F NOT PUSH1 0x1F DUP4 ADD AND SWAP1 POP SWAP2 SWAP1 POP JUMP JUMPDEST PUSH32 0x4E487B7100000000000000000000000000000000000000000000000000000000 PUSH0 MSTORE PUSH1 0x41 PUSH1 0x4 MSTORE PUSH1 0x24 PUSH0 REVERT JUMPDEST PUSH2 0x4D45 DUP3 PUSH2 0x4CFF JUMP JUMPDEST DUP2 ADD DUP2 DUP2 LT PUSH8 0xFFFFFFFFFFFFFFFF DUP3 GT OR ISZERO PUSH2 0x4D64 JUMPI PUSH2 0x4D63 PUSH2 0x4D0F JUMP JUMPDEST JUMPDEST DUP1 PUSH1 0x40 MSTORE POP POP POP JUMP JUMPDEST PUSH0 PUSH2 0x4D76 PUSH2 0x4AB7 JUMP JUMPDEST SWAP1 POP PUSH2 0x4D82 DUP3 DUP3 PUSH2 0x4D3C JUMP JUMPDEST SWAP2 SWAP1 POP JUMP JUMPDEST PUSH0 PUSH8 0xFFFFFFFFFFFFFFFF DUP3 GT ISZERO PUSH2 0x4DA1 JUMPI PUSH2 0x4DA0 PUSH2 0x4D0F JUMP JUMPDEST JUMPDEST PUSH2 0x4DAA DUP3 PUSH2 0x4CFF JUMP JUMPDEST SWAP1 POP PUSH1 0x20 DUP2 ADD SWAP1 POP SWAP2 SWAP1 POP JUMP JUMPDEST DUP3 DUP2 DUP4 CALLDATACOPY PUSH0 DUP4 DUP4 ADD MSTORE POP POP POP JUMP JUMPDEST PUSH0 PUSH2 0x4DD7 PUSH2 0x4DD2 DUP5 PUSH2 0x4D87 JUMP JUMPDEST PUSH2 0x4D6D JUMP JUMPDEST SWAP1 POP DUP3 DUP2 MSTORE PUSH1 0x20 DUP2 ADD DUP5 DUP5 DUP5 ADD GT ISZERO PUSH2 0x4DF3 JUMPI PUSH2 0x4DF2 PUSH2 0x4CFB JUMP JUMPDEST JUMPDEST PUSH2 0x4DFE DUP5 DUP3 DUP6 PUSH2 0x4DB7 JUMP JUMPDEST POP SWAP4 SWAP3 POP POP POP JUMP JUMPDEST PUSH0 DUP3 PUSH1 0x1F DUP4 ADD SLT PUSH2 0x4E1A JUMPI PUSH2 0x4E19 PUSH2 0x4C29 JUMP JUMPDEST JUMPDEST DUP2 CALLDATALOAD PUSH2 0x4E2A DUP5 DUP3 PUSH1 0x20 DUP7 ADD PUSH2 0x4DC5 JUMP JUMPDEST SWAP2 POP POP SWAP3 SWAP2 POP POP JUMP JUMPDEST PUSH0 PUSH1 0x20 DUP3 DUP5 SUB SLT ISZERO PUSH2 0x4E48 JUMPI PUSH2 0x4E47 PUSH2 0x4AC0 JUMP JUMPDEST JUMPDEST PUSH0 DUP3 ADD CALLDATALOAD PUSH8 0xFFFFFFFFFFFFFFFF DUP2 GT ISZERO PUSH2 0x4E65 JUMPI PUSH2 0x4E64 PUSH2 0x4AC4 JUMP JUMPDEST JUMPDEST PUSH2 0x4E71 DUP5 DUP3 DUP6 ADD PUSH2 0x4E06 JUMP JUMPDEST SWAP2 POP POP SWAP3 SWAP2 POP POP JUMP JUMPDEST PUSH2 0x4E83 DUP2 PUSH2 0x4AE7 JUMP JUMPDEST DUP3 MSTORE POP POP JUMP JUMPDEST PUSH0 PUSH1 0x20 DUP3 ADD SWAP1 POP PUSH2 0x4E9C PUSH0 DUP4 ADD DUP5 PUSH2 0x4E7A JUMP JUMPDEST SWAP3 SWAP2 POP POP JUMP JUMPDEST PUSH0 PUSH0 DUP4 PUSH1 0x1F DUP5 ADD SLT PUSH2 0x4EB7 JUMPI PUSH2 0x4EB6 PUSH2 0x4C29 JUMP JUMPDEST JUMPDEST DUP3 CALLDATALOAD SWAP1 POP PUSH8 0xFFFFFFFFFFFFFFFF DUP2 GT ISZERO PUSH2 0x4ED4 JUMPI PUSH2 0x4ED3 PUSH2 0x4C2D JUMP JUMPDEST JUMPDEST PUSH1 0x20 DUP4 ADD SWAP2 POP DUP4 PUSH1 0x40 DUP3 MUL DUP4 ADD GT ISZERO PUSH2 0x4EF0 JUMPI PUSH2 0x4EEF PUSH2 0x4C31 JUMP JUMPDEST JUMPDEST SWAP3 POP SWAP3 SWAP1 POP JUMP JUMPDEST PUSH0 PUSH2 0x4F01 DUP3 PUSH2 0x4AC8 JUMP JUMPDEST SWAP1 POP SWAP2 SWAP1 POP JUMP JUMPDEST PUSH2 0x4F11 DUP2 PUSH2 0x4EF7 JUMP JUMPDEST DUP2 EQ PUSH2 0x4F1B JUMPI PUSH0 PUSH0 REVERT JUMPDEST POP JUMP JUMPDEST PUSH0 DUP2 CALLDATALOAD SWAP1 POP PUSH2 0x4F2C DUP2 PUSH2 0x4F08 JUMP JUMPDEST SWAP3 SWAP2 POP POP JUMP JUMPDEST PUSH0 DUP2 ISZERO ISZERO SWAP1 POP SWAP2 SWAP1 POP JUMP JUMPDEST PUSH2 0x4F46 DUP2 PUSH2 0x4F32 JUMP JUMPDEST DUP2 EQ PUSH2 0x4F50 JUMPI PUSH0 PUSH0 REVERT JUMPDEST POP JUMP JUMPDEST PUSH0 DUP2 CALLDATALOAD SWAP1 POP PUSH2 0x4F61 DUP2 PUSH2 0x4F3D JUMP JUMPDEST SWAP3 SWAP2 POP POP JUMP JUMPDEST PUSH0 PUSH0 PUSH0 PUSH0 PUSH0 PUSH1 0x80 DUP7 DUP9 SUB SLT ISZERO PUSH2 0x4F80 JUMPI PUSH2 0x4F7F PUSH2 0x4AC0 JUMP JUMPDEST JUMPDEST PUSH0 DUP7 ADD CALLDATALOAD PUSH8 0xFFFFFFFFFFFFFFFF DUP2 GT ISZERO PUSH2 0x4F9D JUMPI PUSH2 0x4F9C PUSH2 0x4AC4 JUMP JUMPDEST JUMPDEST PUSH2 0x4FA9 DUP9 DUP3 DUP10 ADD PUSH2 0x4EA2 JUMP JUMPDEST SWAP6 POP SWAP6 POP POP PUSH1 0x20 PUSH2 0x4FBC DUP9 DUP3 DUP10 ADD PUSH2 0x4F1E JUMP JUMPDEST SWAP4 POP POP PUSH1 0x40 PUSH2 0x4FCD DUP9 DUP3 DUP10 ADD PUSH2 0x4B76 JUMP JUMPDEST SWAP3 POP POP PUSH1 0x60 PUSH2 0x4FDE DUP9 DUP3 DUP10 ADD PUSH2 0x4F53 JUMP JUMPDEST SWAP2 POP POP SWAP3 SWAP6 POP SWAP3 SWAP6 SWAP1 SWAP4 POP JUMP JUMPDEST PUSH0 DUP2 SWAP1 POP SWAP2 SWAP1 POP JUMP JUMPDEST PUSH2 0x4FFD DUP2 PUSH2 0x4FEB JUMP JUMPDEST DUP3 MSTORE POP POP JUMP JUMPDEST PUSH0 PUSH1 0x20 DUP3 ADD SWAP1 POP PUSH2 0x5016 PUSH0 DUP4 ADD DUP5 PUSH2 0x4FF4 JUMP JUMPDEST SWAP3 SWAP2 POP POP JUMP JUMPDEST PUSH0 PUSH2 0x5026 DUP3 PUSH2 0x4BDF JUMP JUMPDEST SWAP1 POP SWAP2 SWAP1 POP JUMP JUMPDEST PUSH2 0x5036 DUP2 PUSH2 0x501C JUMP JUMPDEST DUP3 MSTORE POP POP JUMP JUMPDEST PUSH0 PUSH1 0x20 DUP3 ADD SWAP1 POP PUSH2 0x504F PUSH0 DUP4 ADD DUP5 PUSH2 0x502D JUMP JUMPDEST SWAP3 SWAP2 POP POP JUMP JUMPDEST PUSH0 PUSH2 0x505F DUP3 PUSH2 0x4BDF JUMP JUMPDEST SWAP1 POP SWAP2 SWAP1 POP JUMP JUMPDEST PUSH2 0x506F DUP2 PUSH2 0x5055 JUMP JUMPDEST DUP3 MSTORE POP POP JUMP JUMPDEST PUSH0 PUSH1 0x20 DUP3 ADD SWAP1 POP PUSH2 0x5088 PUSH0 DUP4 ADD DUP5 PUSH2 0x5066 JUMP JUMPDEST SWAP3 SWAP2 POP POP JUMP JUMPDEST PUSH0 PUSH2 0x5098 DUP3 PUSH2 0x4BDF JUMP JUMPDEST SWAP1 POP SWAP2 SWAP1 POP JUMP JUMPDEST PUSH2 0x50A8 DUP2 PUSH2 0x508E JUMP JUMPDEST DUP3 MSTORE POP POP JUMP JUMPDEST PUSH0 PUSH1 0x20 DUP3 ADD SWAP1 POP PUSH2 0x50C1 PUSH0 DUP4 ADD DUP5 PUSH2 0x509F JUMP JUMPDEST SWAP3 SWAP2 POP POP JUMP JUMPDEST PUSH2 0x50D0 DUP2 PUSH2 0x4FEB JUMP JUMPDEST DUP2 EQ PUSH2 0x50DA JUMPI PUSH0 PUSH0 REVERT JUMPDEST POP JUMP JUMPDEST PUSH0 DUP2 CALLDATALOAD SWAP1 POP PUSH2 0x50EB DUP2 PUSH2 0x50C7 JUMP JUMPDEST SWAP3 SWAP2 POP POP JUMP JUMPDEST PUSH0 PUSH1 0x20 DUP3 DUP5 SUB SLT ISZERO PUSH2 0x5106 JUMPI PUSH2 0x5105 PUSH2 0x4AC0 JUMP JUMPDEST JUMPDEST PUSH0 PUSH2 0x5113 DUP5 DUP3 DUP6 ADD PUSH2 0x50DD JUMP JUMPDEST SWAP2 POP POP SWAP3 SWAP2 POP POP JUMP JUMPDEST PUSH0 PUSH2 0x5126 DUP3 PUSH2 0x4BDF JUMP JUMPDEST SWAP1 POP SWAP2 SWAP1 POP JUMP JUMPDEST PUSH2 0x5136 DUP2 PUSH2 0x511C JUMP JUMPDEST DUP3 MSTORE POP POP JUMP JUMPDEST PUSH0 PUSH1 0x20 DUP3 ADD SWAP1 POP PUSH2 0x514F PUSH0 DUP4 ADD DUP5 PUSH2 0x512D JUMP JUMPDEST SWAP3 SWAP2 POP POP JUMP JUMPDEST PUSH0 PUSH1 0x20 DUP3 DUP5 SUB SLT ISZERO PUSH2 0x516A JUMPI PUSH2 0x5169 PUSH2 0x4AC0 JUMP JUMPDEST JUMPDEST PUSH0 PUSH2 0x5177 DUP5 DUP3 DUP6 ADD PUSH2 0x4B0E JUMP JUMPDEST SWAP2 POP POP SWAP3 SWAP2 POP POP JUMP JUMPDEST PUSH2 0x5189 DUP2 PUSH2 0x4AE7 JUMP JUMPDEST DUP3 MSTORE POP POP JUMP JUMPDEST PUSH0 PUSH3 0xFFFFFF DUP3 AND SWAP1 POP SWAP2 SWAP1 POP JUMP JUMPDEST PUSH2 0x51A6 DUP2 PUSH2 0x518F JUMP JUMPDEST DUP3 MSTORE POP POP JUMP JUMPDEST PUSH0 PUSH1 0xFF DUP3 AND SWAP1 POP SWAP2 SWAP1 POP JUMP JUMPDEST PUSH2 0x51C1 DUP2 PUSH2 0x51AC JUMP JUMPDEST DUP3 MSTORE POP POP JUMP JUMPDEST PUSH0 PUSH8 0xFFFFFFFFFFFFFFFF DUP3 AND SWAP1 POP SWAP2 SWAP1 POP JUMP JUMPDEST PUSH2 0x51E3 DUP2 PUSH2 0x51C7 JUMP JUMPDEST DUP3 MSTORE POP POP JUMP JUMPDEST PUSH1 0x80 DUP3 ADD PUSH0 DUP3 ADD MLOAD PUSH2 0x51FD PUSH0 DUP6 ADD DUP3 PUSH2 0x5180 JUMP JUMPDEST POP PUSH1 0x20 DUP3 ADD MLOAD PUSH2 0x5210 PUSH1 0x20 DUP6 ADD DUP3 PUSH2 0x519D JUMP JUMPDEST POP PUSH1 0x40 DUP3 ADD MLOAD PUSH2 0x5223 PUSH1 0x40 DUP6 ADD DUP3 PUSH2 0x51B8 JUMP JUMPDEST POP PUSH1 0x60 DUP3 ADD MLOAD PUSH2 0x5236 PUSH1 0x60 DUP6 ADD DUP3 PUSH2 0x51DA JUMP JUMPDEST POP POP POP POP JUMP JUMPDEST PUSH0 PUSH1 0x80 DUP3 ADD SWAP1 POP PUSH2 0x524F PUSH0 DUP4 ADD DUP5 PUSH2 0x51E9 JUMP JUMPDEST SWAP3 SWAP2 POP POP JUMP JUMPDEST PUSH0 PUSH2 0x525F DUP3 PUSH2 0x4BDF JUMP JUMPDEST SWAP1 POP SWAP2 SWAP1 POP JUMP JUMPDEST PUSH2 0x526F DUP2 PUSH2 0x5255 JUMP JUMPDEST DUP3 MSTORE POP POP JUMP JUMPDEST PUSH0 PUSH1 0x20 DUP3 ADD SWAP1 POP PUSH2 0x5288 PUSH0 DUP4 ADD DUP5 PUSH2 0x5266 JUMP JUMPDEST SWAP3 SWAP2 POP POP JUMP JUMPDEST PUSH0 DUP2 MLOAD SWAP1 POP PUSH2 0x529C DUP2 PUSH2 0x4AF8 JUMP JUMPDEST SWAP3 SWAP2 POP POP JUMP JUMPDEST PUSH0 PUSH1 0x20 DUP3 DUP5 SUB SLT ISZERO PUSH2 0x52B7 JUMPI PUSH2 0x52B6 PUSH2 0x4AC0 JUMP JUMPDEST JUMPDEST PUSH0 PUSH2 0x52C4 DUP5 DUP3 DUP6 ADD PUSH2 0x528E JUMP JUMPDEST SWAP2 POP POP SWAP3 SWAP2 POP POP JUMP JUMPDEST PUSH0 DUP3 DUP3 MSTORE PUSH1 0x20 DUP3 ADD SWAP1 POP SWAP3 SWAP2 POP POP JUMP JUMPDEST PUSH32 0x43616C6C6572206973206E6F7420746865206F776E6572000000000000000000 PUSH0 DUP3 ADD MSTORE POP JUMP JUMPDEST PUSH0 PUSH2 0x5311 PUSH1 0x17 DUP4 PUSH2 0x52CD JUMP JUMPDEST SWAP2 POP PUSH2 0x531C DUP3 PUSH2 0x52DD JUMP JUMPDEST PUSH1 0x20 DUP3 ADD SWAP1 POP SWAP2 SWAP1 POP JUMP JUMPDEST PUSH0 PUSH1 0x20 DUP3 ADD SWAP1 POP DUP2 DUP2 SUB PUSH0 DUP4 ADD MSTORE PUSH2 0x533E DUP2 PUSH2 0x5305 JUMP JUMPDEST SWAP1 POP SWAP2 SWAP1 POP JUMP JUMPDEST PUSH0 DUP2 MLOAD SWAP1 POP SWAP2 SWAP1 POP JUMP JUMPDEST DUP3 DUP2 DUP4 MCOPY PUSH0 DUP4 DUP4 ADD MSTORE POP POP POP JUMP JUMPDEST PUSH0 PUSH2 0x5367 DUP3 PUSH2 0x5345 JUMP JUMPDEST PUSH2 0x5371 DUP2 DUP6 PUSH2 0x52CD JUMP JUMPDEST SWAP4 POP PUSH2 0x5381 DUP2 DUP6 PUSH1 0x20 DUP7 ADD PUSH2 0x534F JUMP JUMPDEST PUSH2 0x538A DUP2 PUSH2 0x4CFF JUMP JUMPDEST DUP5 ADD SWAP2 POP POP SWAP3 SWAP2 POP POP JUMP JUMPDEST PUSH0 PUSH1 0x20 DUP3 ADD SWAP1 POP DUP2 DUP2 SUB PUSH0 DUP4 ADD MSTORE PUSH2 0x53AD DUP2 DUP5 PUSH2 0x535D JUMP JUMPDEST SWAP1 POP SWAP3 SWAP2 POP POP JUMP JUMPDEST PUSH0 DUP2 MLOAD SWAP1 POP PUSH2 0x53C3 DUP2 PUSH2 0x50C7 JUMP JUMPDEST SWAP3 SWAP2 POP POP JUMP JUMPDEST PUSH0 PUSH1 0x20 DUP3 DUP5 SUB SLT ISZERO PUSH2 0x53DE JUMPI PUSH2 0x53DD PUSH2 0x4AC0 JUMP JUMPDEST JUMPDEST PUSH0 PUSH2 0x53EB DUP5 DUP3 DUP6 ADD PUSH2 0x53B5 JUMP JUMPDEST SWAP2 POP POP SWAP3 SWAP2 POP POP JUMP JUMPDEST PUSH32 0x4E487B7100000000000000000000000000000000000000000000000000000000 PUSH0 MSTORE PUSH1 0x11 PUSH1 0x4 MSTORE PUSH1 0x24 PUSH0 REVERT JUMPDEST PUSH0 PUSH2 0x542B DUP3 PUSH2 0x4FEB JUMP JUMPDEST SWAP2 POP PUSH2 0x5436 DUP4 PUSH2 0x4FEB JUMP JUMPDEST SWAP3 POP DUP3 DUP3 SUB SWAP1 POP DUP2 DUP2 GT ISZERO PUSH2 0x544E JUMPI PUSH2 0x544D PUSH2 0x53F4 JUMP JUMPDEST JUMPDEST SWAP3 SWAP2 POP POP JUMP JUMPDEST PUSH32 0x5265656E7472616E637947756172643A207265656E7472616E742063616C6C00 PUSH0 DUP3 ADD MSTORE POP JUMP JUMPDEST PUSH0 PUSH2 0x5488 PUSH1 0x1F DUP4 PUSH2 0x52CD JUMP JUMPDEST SWAP2 POP PUSH2 0x5493 DUP3 PUSH2 0x5454 JUMP JUMPDEST PUSH1 0x20 DUP3 ADD SWAP1 POP SWAP2 SWAP1 POP JUMP JUMPDEST PUSH0 PUSH1 0x20 DUP3 ADD SWAP1 POP DUP2 DUP2 SUB PUSH0 DUP4 ADD MSTORE PUSH2 0x54B5 DUP2 PUSH2 0x547C JUMP JUMPDEST SWAP1 POP SWAP2 SWAP1 POP JUMP JUMPDEST PUSH32 0x4E487B7100000000000000000000000000000000000000000000000000000000 PUSH0 MSTORE PUSH1 0x32 PUSH1 0x4 MSTORE PUSH1 0x24 PUSH0 REVERT JUMPDEST PUSH0 PUSH2 0xFFFF DUP3 AND SWAP1 POP SWAP2 SWAP1 POP JUMP JUMPDEST PUSH2 0x54FF DUP2 PUSH2 0x54E9 JUMP JUMPDEST DUP2 EQ PUSH2 0x5509 JUMPI PUSH0 PUSH0 REVERT JUMPDEST POP JUMP JUMPDEST PUSH0 DUP2 CALLDATALOAD SWAP1 POP PUSH2 0x551A DUP2 PUSH2 0x54F6 JUMP JUMPDEST SWAP3 SWAP2 POP POP JUMP JUMPDEST PUSH0 PUSH1 0x20 DUP3 DUP5 SUB SLT ISZERO PUSH2 0x5535 JUMPI PUSH2 0x5534 PUSH2 0x4AC0 JUMP JUMPDEST JUMPDEST PUSH0 PUSH2 0x5542 DUP5 DUP3 DUP6 ADD PUSH2 0x550C JUMP JUMPDEST SWAP2 POP POP SWAP3 SWAP2 POP POP JUMP JUMPDEST PUSH32 0x4E487B7100000000000000000000000000000000000000000000000000000000 PUSH0 MSTORE PUSH1 0x12 PUSH1 0x4 MSTORE PUSH1 0x24 PUSH0 REVERT JUMPDEST PUSH0 DUP2 MLOAD SWAP1 POP SWAP2 SWAP1 POP JUMP JUMPDEST PUSH0 DUP3 DUP3 MSTORE PUSH1 0x20 DUP3 ADD SWAP1 POP SWAP3 SWAP2 POP POP JUMP JUMPDEST PUSH0 PUSH2 0x559C DUP3 PUSH2 0x5578 JUMP JUMPDEST PUSH2 0x55A6 DUP2 DUP6 PUSH2 0x5582 JUMP JUMPDEST SWAP4 POP PUSH2 0x55B6 DUP2 DUP6 PUSH1 0x20 DUP7 ADD PUSH2 0x534F JUMP JUMPDEST PUSH2 0x55BF DUP2 PUSH2 0x4CFF JUMP JUMPDEST DUP5 ADD SWAP2 POP POP SWAP3 SWAP2 POP POP JUMP JUMPDEST PUSH0 DUP2 MLOAD SWAP1 POP SWAP2 SWAP1 POP JUMP JUMPDEST PUSH0 DUP3 DUP3 MSTORE PUSH1 0x20 DUP3 ADD SWAP1 POP SWAP3 SWAP2 POP POP JUMP JUMPDEST PUSH0 DUP2 SWAP1 POP PUSH1 0x20 DUP3 ADD SWAP1 POP SWAP2 SWAP1 POP JUMP JUMPDEST PUSH0 DUP3 DUP3 MSTORE PUSH1 0x20 DUP3 ADD SWAP1 POP SWAP3 SWAP2 POP POP JUMP JUMPDEST PUSH0 PUSH2 0x560D DUP3 PUSH2 0x5578 JUMP JUMPDEST PUSH2 0x5617 DUP2 DUP6 PUSH2 0x55F3 JUMP JUMPDEST SWAP4 POP PUSH2 0x5627 DUP2 DUP6 PUSH1 0x20 DUP7 ADD PUSH2 0x534F JUMP JUMPDEST PUSH2 0x5630 DUP2 PUSH2 0x4CFF JUMP JUMPDEST DUP5 ADD SWAP2 POP POP SWAP3 SWAP2 POP POP JUMP JUMPDEST PUSH0 PUSH2 0x5646 DUP4 DUP4 PUSH2 0x5603 JUMP JUMPDEST SWAP1 POP SWAP3 SWAP2 POP POP JUMP JUMPDEST PUSH0 PUSH1 0x20 DUP3 ADD SWAP1 POP SWAP2 SWAP1 POP JUMP JUMPDEST PUSH0 PUSH2 0x5664 DUP3 PUSH2 0x55CA JUMP JUMPDEST PUSH2 0x566E DUP2 DUP6 PUSH2 0x55D4 JUMP JUMPDEST SWAP4 POP DUP4 PUSH1 0x20 DUP3 MUL DUP6 ADD PUSH2 0x5680 DUP6 PUSH2 0x55E4 JUMP JUMPDEST DUP1 PUSH0 JUMPDEST DUP6 DUP2 LT ISZERO PUSH2 0x56BB JUMPI DUP5 DUP5 SUB DUP10 MSTORE DUP2 MLOAD PUSH2 0x569C DUP6 DUP3 PUSH2 0x563B JUMP JUMPDEST SWAP5 POP PUSH2 0x56A7 DUP4 PUSH2 0x564E JUMP JUMPDEST SWAP3 POP PUSH1 0x20 DUP11 ADD SWAP10 POP POP PUSH1 0x1 DUP2 ADD SWAP1 POP PUSH2 0x5683 JUMP JUMPDEST POP DUP3 SWAP8 POP DUP8 SWAP6 POP POP POP POP POP POP SWAP3 SWAP2 POP POP JUMP JUMPDEST PUSH0 PUSH1 0x40 DUP3 ADD SWAP1 POP DUP2 DUP2 SUB PUSH0 DUP4 ADD MSTORE PUSH2 0x56E5 DUP2 DUP6 PUSH2 0x5592 JUMP JUMPDEST SWAP1 POP DUP2 DUP2 SUB PUSH1 0x20 DUP4 ADD MSTORE PUSH2 0x56F9 DUP2 DUP5 PUSH2 0x565A JUMP JUMPDEST SWAP1 POP SWAP4 SWAP3 POP POP POP JUMP JUMPDEST PUSH0 DUP2 SWAP1 POP SWAP3 SWAP2 POP POP JUMP JUMPDEST POP JUMP JUMPDEST PUSH0 PUSH2 0x571A PUSH0 DUP4 PUSH2 0x5702 JUMP JUMPDEST SWAP2 POP PUSH2 0x5725 DUP3 PUSH2 0x570C JUMP JUMPDEST PUSH0 DUP3 ADD SWAP1 POP SWAP2 SWAP1 POP JUMP JUMPDEST PUSH0 PUSH2 0x5739 DUP3 PUSH2 0x570F JUMP JUMPDEST SWAP2 POP DUP2 SWAP1 POP SWAP2 SWAP1 POP JUMP JUMPDEST PUSH32 0x4469726563746F72792063616E6E6F74206265207A65726F2061646472657373 PUSH0 DUP3 ADD MSTORE POP JUMP JUMPDEST PUSH0 PUSH2 0x5777 PUSH1 0x20 DUP4 PUSH2 0x52CD JUMP JUMPDEST SWAP2 POP PUSH2 0x5782 DUP3 PUSH2 0x5743 JUMP JUMPDEST PUSH1 0x20 DUP3 ADD SWAP1 POP SWAP2 SWAP1 POP JUMP JUMPDEST PUSH0 PUSH1 0x20 DUP3 ADD SWAP1 POP DUP2 DUP2 SUB PUSH0 DUP4 ADD MSTORE PUSH2 0x57A4 DUP2 PUSH2 0x576B JUMP JUMPDEST SWAP1 POP SWAP2 SWAP1 POP JUMP JUMPDEST PUSH32 0x4469726563746F7279206D757374206265206120636F6E747261637400000000 PUSH0 DUP3 ADD MSTORE POP JUMP JUMPDEST PUSH0 PUSH2 0x57DF PUSH1 0x1C DUP4 PUSH2 0x52CD JUMP JUMPDEST SWAP2 POP PUSH2 0x57EA DUP3 PUSH2 0x57AB JUMP JUMPDEST PUSH1 0x20 DUP3 ADD SWAP1 POP SWAP2 SWAP1 POP JUMP JUMPDEST PUSH0 PUSH1 0x20 DUP3 ADD SWAP1 POP DUP2 DUP2 SUB PUSH0 DUP4 ADD MSTORE PUSH2 0x580C DUP2 PUSH2 0x57D3 JUMP JUMPDEST SWAP1 POP SWAP2 SWAP1 POP JUMP JUMPDEST PUSH32 0x4469726563746F7279206164647265737320646F6573206E6F7420696D706C65 PUSH0 DUP3 ADD MSTORE PUSH32 0x6D656E74206F776E657228290000000000000000000000000000000000000000 PUSH1 0x20 DUP3 ADD MSTORE POP JUMP JUMPDEST PUSH0 PUSH2 0x586D PUSH1 0x2C DUP4 PUSH2 0x52CD JUMP JUMPDEST SWAP2 POP PUSH2 0x5878 DUP3 PUSH2 0x5813 JUMP JUMPDEST PUSH1 0x40 DUP3 ADD SWAP1 POP SWAP2 SWAP1 POP JUMP JUMPDEST PUSH0 PUSH1 0x20 DUP3 ADD SWAP1 POP DUP2 DUP2 SUB PUSH0 DUP4 ADD MSTORE PUSH2 0x589A DUP2 PUSH2 0x5861 JUMP JUMPDEST SWAP1 POP SWAP2 SWAP1 POP JUMP JUMPDEST PUSH0 PUSH1 0x40 DUP3 ADD SWAP1 POP PUSH2 0x58B4 PUSH0 DUP4 ADD DUP6 PUSH2 0x4E7A JUMP JUMPDEST PUSH2 0x58C1 PUSH1 0x20 DUP4 ADD DUP5 PUSH2 0x4E7A JUMP JUMPDEST SWAP4 SWAP3 POP POP POP JUMP JUMPDEST PUSH0 PUSH14 0xFFFFFFFFFFFFFFFFFFFFFFFFFFFF DUP3 AND SWAP1 POP SWAP2 SWAP1 POP JUMP JUMPDEST PUSH2 0x58EA DUP2 PUSH2 0x58C8 JUMP JUMPDEST DUP2 EQ PUSH2 0x58F4 JUMPI PUSH0 PUSH0 REVERT JUMPDEST POP JUMP JUMPDEST PUSH0 DUP2 MLOAD SWAP1 POP PUSH2 0x5905 DUP2 PUSH2 0x58E1 JUMP JUMPDEST SWAP3 SWAP2 POP POP JUMP JUMPDEST PUSH0 DUP2 MLOAD SWAP1 POP PUSH2 0x5919 DUP2 PUSH2 0x4B60 JUMP JUMPDEST SWAP3 SWAP2 POP POP JUMP JUMPDEST PUSH0 PUSH0 PUSH0 PUSH1 0x60 DUP5 DUP7 SUB SLT ISZERO PUSH2 0x5936 JUMPI PUSH2 0x5935 PUSH2 0x4AC0 JUMP JUMPDEST JUMPDEST PUSH0 PUSH2 0x5943 DUP7 DUP3 DUP8 ADD PUSH2 0x58F7 JUMP JUMPDEST SWAP4 POP POP PUSH1 0x20 PUSH2 0x5954 DUP7 DUP3 DUP8 ADD PUSH2 0x58F7 JUMP JUMPDEST SWAP3 POP POP PUSH1 0x40 PUSH2 0x5965 DUP7 DUP3 DUP8 ADD PUSH2 0x590B JUMP JUMPDEST SWAP2 POP POP SWAP3 POP SWAP3 POP SWAP3 JUMP JUMPDEST PUSH2 0x5978 DUP2 PUSH2 0x518F JUMP JUMPDEST DUP3 MSTORE POP POP JUMP JUMPDEST PUSH0 PUSH1 0x60 DUP3 ADD SWAP1 POP PUSH2 0x5991 PUSH0 DUP4 ADD DUP7 PUSH2 0x4E7A JUMP JUMPDEST PUSH2 0x599E PUSH1 0x20 DUP4 ADD DUP6 PUSH2 0x4E7A JUMP JUMPDEST PUSH2 0x59AB PUSH1 0x40 DUP4 ADD DUP5 PUSH2 0x596F JUMP JUMPDEST SWAP5 SWAP4 POP POP POP POP JUMP JUMPDEST PUSH0 PUSH1 0x40 DUP3 ADD SWAP1 POP PUSH2 0x59C6 PUSH0 DUP4 ADD DUP6 PUSH2 0x4E7A JUMP JUMPDEST PUSH2 0x59D3 PUSH1 0x20 DUP4 ADD DUP5 PUSH2 0x4FF4 JUMP JUMPDEST SWAP4 SWAP3 POP POP POP JUMP JUMPDEST PUSH0 PUSH2 0x59E4 DUP3 PUSH2 0x5578 JUMP JUMPDEST PUSH2 0x59EE DUP2 DUP6 PUSH2 0x5702 JUMP JUMPDEST SWAP4 POP PUSH2 0x59FE DUP2 DUP6 PUSH1 0x20 DUP7 ADD PUSH2 0x534F JUMP JUMPDEST DUP1 DUP5 ADD SWAP2 POP POP SWAP3 SWAP2 POP POP JUMP JUMPDEST PUSH0 PUSH2 0x5A15 DUP3 DUP5 PUSH2 0x59DA JUMP JUMPDEST SWAP2 POP DUP2 SWAP1 POP SWAP3 SWAP2 POP POP JUMP JUMPDEST PUSH0 DUP2 MLOAD SWAP1 POP PUSH2 0x5A2E DUP2 PUSH2 0x4F3D JUMP JUMPDEST SWAP3 SWAP2 POP POP JUMP JUMPDEST PUSH0 PUSH1 0x20 DUP3 DUP5 SUB SLT ISZERO PUSH2 0x5A49 JUMPI PUSH2 0x5A48 PUSH2 0x4AC0 JUMP JUMPDEST JUMPDEST PUSH0 PUSH2 0x5A56 DUP5 DUP3 DUP6 ADD PUSH2 0x5A20 JUMP JUMPDEST SWAP2 POP POP SWAP3 SWAP2 POP POP JUMP JUMPDEST PUSH32 0x5452414E534645525F4641494C45440000000000000000000000000000000000 PUSH0 DUP3 ADD MSTORE POP JUMP JUMPDEST PUSH0 PUSH2 0x5A93 PUSH1 0xF DUP4 PUSH2 0x52CD JUMP JUMPDEST SWAP2 POP PUSH2 0x5A9E DUP3 PUSH2 0x5A5F JUMP JUMPDEST PUSH1 0x20 DUP3 ADD SWAP1 POP SWAP2 SWAP1 POP JUMP JUMPDEST PUSH0 PUSH1 0x20 DUP3 ADD SWAP1 POP DUP2 DUP2 SUB PUSH0 DUP4 ADD MSTORE PUSH2 0x5AC0 DUP2 PUSH2 0x5A87 JUMP JUMPDEST SWAP1 POP SWAP2 SWAP1 POP JUMP JUMPDEST PUSH0 PUSH2 0x5AD1 DUP3 PUSH2 0x4FEB JUMP JUMPDEST SWAP2 POP PUSH2 0x5ADC DUP4 PUSH2 0x4FEB JUMP JUMPDEST SWAP3 POP DUP3 DUP3 MUL PUSH2 0x5AEA DUP2 PUSH2 0x4FEB JUMP JUMPDEST SWAP2 POP DUP3 DUP3 DIV DUP5 EQ DUP4 ISZERO OR PUSH2 0x5B01 JUMPI PUSH2 0x5B00 PUSH2 0x53F4 JUMP JUMPDEST JUMPDEST POP SWAP3 SWAP2 POP POP JUMP JUMPDEST PUSH0 PUSH2 0x5B12 DUP3 PUSH2 0x4FEB JUMP JUMPDEST SWAP2 POP PUSH2 0x5B1D DUP4 PUSH2 0x4FEB JUMP JUMPDEST SWAP3 POP DUP3 PUSH2 0x5B2D JUMPI PUSH2 0x5B2C PUSH2 0x554B JUMP JUMPDEST JUMPDEST DUP3 DUP3 DIV SWAP1 POP SWAP3 SWAP2 POP POP JUMP JUMPDEST PUSH0 DUP2 MLOAD SWAP1 POP SWAP2 SWAP1 POP JUMP JUMPDEST PUSH0 DUP3 DUP3 MSTORE PUSH1 0x20 DUP3 ADD SWAP1 POP SWAP3 SWAP2 POP POP JUMP JUMPDEST PUSH0 DUP2 SWAP1 POP PUSH1 0x20 DUP3 ADD SWAP1 POP SWAP2 SWAP1 POP JUMP JUMPDEST PUSH2 0x5B6A DUP2 PUSH2 0x4A80 JUMP JUMPDEST DUP3 MSTORE POP POP JUMP JUMPDEST PUSH0 PUSH2 0x5B7B DUP4 DUP4 PUSH2 0x5B61 JUMP JUMPDEST PUSH1 0x20 DUP4 ADD SWAP1 POP SWAP3 SWAP2 POP POP JUMP JUMPDEST PUSH0 PUSH1 0x20 DUP3 ADD SWAP1 POP SWAP2 SWAP1 POP JUMP JUMPDEST PUSH0 PUSH2 0x5B9D DUP3 PUSH2 0x5B38 JUMP JUMPDEST PUSH2 0x5BA7 DUP2 DUP6 PUSH2 0x5B42 JUMP JUMPDEST SWAP4 POP PUSH2 0x5BB2 DUP4 PUSH2 0x5B52 JUMP JUMPDEST DUP1 PUSH0 JUMPDEST DUP4 DUP2 LT ISZERO PUSH2 0x5BE2 JUMPI DUP2 MLOAD PUSH2 0x5BC9 DUP9 DUP3 PUSH2 0x5B70 JUMP JUMPDEST SWAP8 POP PUSH2 0x5BD4 DUP4 PUSH2 0x5B87 JUMP JUMPDEST SWAP3 POP POP PUSH1 0x1 DUP2 ADD SWAP1 POP PUSH2 0x5BB5 JUMP JUMPDEST POP DUP6 SWAP4 POP POP POP POP SWAP3 SWAP2 POP POP JUMP JUMPDEST PUSH0 PUSH1 0x20 DUP3 ADD SWAP1 POP DUP2 DUP2 SUB PUSH0 DUP4 ADD MSTORE PUSH2 0x5C07 DUP2 DUP5 PUSH2 0x5B93 JUMP JUMPDEST SWAP1 POP SWAP3 SWAP2 POP POP JUMP JUMPDEST PUSH0 PUSH8 0xFFFFFFFFFFFFFFFF DUP3 GT ISZERO PUSH2 0x5C29 JUMPI PUSH2 0x5C28 PUSH2 0x4D0F JUMP JUMPDEST JUMPDEST PUSH1 0x20 DUP3 MUL SWAP1 POP PUSH1 0x20 DUP2 ADD SWAP1 POP SWAP2 SWAP1 POP JUMP JUMPDEST PUSH0 DUP2 PUSH1 0x6 SIGNEXTEND SWAP1 POP SWAP2 SWAP1 POP JUMP JUMPDEST PUSH2 0x5C4F DUP2 PUSH2 0x5C3A JUMP JUMPDEST DUP2 EQ PUSH2 0x5C59 JUMPI PUSH0 PUSH0 REVERT JUMPDEST POP JUMP JUMPDEST PUSH0 DUP2 MLOAD SWAP1 POP PUSH2 0x5C6A DUP2 PUSH2 0x5C46 JUMP JUMPDEST SWAP3 SWAP2 POP POP JUMP JUMPDEST PUSH0 PUSH2 0x5C82 PUSH2 0x5C7D DUP5 PUSH2 0x5C0F JUMP JUMPDEST PUSH2 0x4D6D JUMP JUMPDEST SWAP1 POP DUP1 DUP4 DUP3 MSTORE PUSH1 0x20 DUP3 ADD SWAP1 POP PUSH1 0x20 DUP5 MUL DUP4 ADD DUP6 DUP2 GT ISZERO PUSH2 0x5CA5 JUMPI PUSH2 0x5CA4 PUSH2 0x4C31 JUMP JUMPDEST JUMPDEST DUP4 JUMPDEST DUP2 DUP2 LT ISZERO PUSH2 0x5CCE JUMPI DUP1 PUSH2 0x5CBA DUP9 DUP3 PUSH2 0x5C5C JUMP JUMPDEST DUP5 MSTORE PUSH1 0x20 DUP5 ADD SWAP4 POP POP PUSH1 0x20 DUP2 ADD SWAP1 POP PUSH2 0x5CA7 JUMP JUMPDEST POP POP POP SWAP4 SWAP3 POP POP POP JUMP JUMPDEST PUSH0 DUP3 PUSH1 0x1F DUP4 ADD SLT PUSH2 0x5CEC JUMPI PUSH2 0x5CEB PUSH2 0x4C29 JUMP JUMPDEST JUMPDEST DUP2 MLOAD PUSH2 0x5CFC DUP5 DUP3 PUSH1 0x20 DUP7 ADD PUSH2 0x5C70 JUMP JUMPDEST SWAP2 POP POP SWAP3 SWAP2 POP POP JUMP JUMPDEST PUSH0 PUSH8 0xFFFFFFFFFFFFFFFF DUP3 GT ISZERO PUSH2 0x5D1F JUMPI PUSH2 0x5D1E PUSH2 0x4D0F JUMP JUMPDEST JUMPDEST PUSH1 0x20 DUP3 MUL SWAP1 POP PUSH1 0x20 DUP2 ADD SWAP1 POP SWAP2 SWAP1 POP JUMP JUMPDEST PUSH2 0x5D39 DUP2 PUSH2 0x4AC8 JUMP JUMPDEST DUP2 EQ PUSH2 0x5D43 JUMPI PUSH0 PUSH0 REVERT JUMPDEST POP JUMP JUMPDEST PUSH0 DUP2 MLOAD SWAP1 POP PUSH2 0x5D54 DUP2 PUSH2 0x5D30 JUMP JUMPDEST SWAP3 SWAP2 POP POP JUMP JUMPDEST PUSH0 PUSH2 0x5D6C PUSH2 0x5D67 DUP5 PUSH2 0x5D05 JUMP JUMPDEST PUSH2 0x4D6D JUMP JUMPDEST SWAP1 POP DUP1 DUP4 DUP3 MSTORE PUSH1 0x20 DUP3 ADD SWAP1 POP PUSH1 0x20 DUP5 MUL DUP4 ADD DUP6 DUP2 GT ISZERO PUSH2 0x5D8F JUMPI PUSH2 0x5D8E PUSH2 0x4C31 JUMP JUMPDEST JUMPDEST DUP4 JUMPDEST DUP2 DUP2 LT ISZERO PUSH2 0x5DB8 JUMPI DUP1 PUSH2 0x5DA4 DUP9 DUP3 PUSH2 0x5D46 JUMP JUMPDEST DUP5 MSTORE PUSH1 0x20 DUP5 ADD SWAP4 POP POP PUSH1 0x20 DUP2 ADD SWAP1 POP PUSH2 0x5D91 JUMP JUMPDEST POP POP POP SWAP4 SWAP3 POP POP POP JUMP JUMPDEST PUSH0 DUP3 PUSH1 0x1F DUP4 ADD SLT PUSH2 0x5DD6 JUMPI PUSH2 0x5DD5 PUSH2 0x4C29 JUMP JUMPDEST JUMPDEST DUP2 MLOAD PUSH2 0x5DE6 DUP5 DUP3 PUSH1 0x20 DUP7 ADD PUSH2 0x5D5A JUMP JUMPDEST SWAP2 POP POP SWAP3 SWAP2 POP POP JUMP JUMPDEST PUSH0 PUSH0 PUSH1 0x40 DUP4 DUP6 SUB SLT ISZERO PUSH2 0x5E05 JUMPI PUSH2 0x5E04 PUSH2 0x4AC0 JUMP JUMPDEST JUMPDEST PUSH0 DUP4 ADD MLOAD PUSH8 0xFFFFFFFFFFFFFFFF DUP2 GT ISZERO PUSH2 0x5E22 JUMPI PUSH2 0x5E21 PUSH2 0x4AC4 JUMP JUMPDEST JUMPDEST PUSH2 0x5E2E DUP6 DUP3 DUP7 ADD PUSH2 0x5CD8 JUMP JUMPDEST SWAP3 POP POP PUSH1 0x20 DUP4 ADD MLOAD PUSH8 0xFFFFFFFFFFFFFFFF DUP2 GT ISZERO PUSH2 0x5E4F JUMPI PUSH2 0x5E4E PUSH2 0x4AC4 JUMP JUMPDEST JUMPDEST PUSH2 0x5E5B DUP6 DUP3 DUP7 ADD PUSH2 0x5DC2 JUMP JUMPDEST SWAP2 POP POP SWAP3 POP SWAP3 SWAP1 POP JUMP JUMPDEST PUSH0 DUP2 PUSH1 0x2 SIGNEXTEND SWAP1 POP SWAP2 SWAP1 POP JUMP JUMPDEST PUSH2 0x5E7A DUP2 PUSH2 0x5E65 JUMP JUMPDEST DUP2 EQ PUSH2 0x5E84 JUMPI PUSH0 PUSH0 REVERT JUMPDEST POP JUMP JUMPDEST PUSH0 DUP2 MLOAD SWAP1 POP PUSH2 0x5E95 DUP2 PUSH2 0x5E71 JUMP JUMPDEST SWAP3 SWAP2 POP POP JUMP JUMPDEST PUSH0 DUP2 MLOAD SWAP1 POP PUSH2 0x5EA9 DUP2 PUSH2 0x54F6 JUMP JUMPDEST SWAP3 SWAP2 POP POP JUMP JUMPDEST PUSH2 0x5EB8 DUP2 PUSH2 0x51AC JUMP JUMPDEST DUP2 EQ PUSH2 0x5EC2 JUMPI PUSH0 PUSH0 REVERT JUMPDEST POP JUMP JUMPDEST PUSH0 DUP2 MLOAD SWAP1 POP PUSH2 0x5ED3 DUP2 PUSH2 0x5EAF JUMP JUMPDEST SWAP3 SWAP2 POP POP JUMP JUMPDEST PUSH0 PUSH0 PUSH0 PUSH0 PUSH0 PUSH0 PUSH0 PUSH1 0xE0 DUP9 DUP11 SUB SLT ISZERO PUSH2 0x5EF4 JUMPI PUSH2 0x5EF3 PUSH2 0x4AC0 JUMP JUMPDEST JUMPDEST PUSH0 PUSH2 0x5F01 DUP11 DUP3 DUP12 ADD PUSH2 0x5D46 JUMP JUMPDEST SWAP8 POP POP PUSH1 0x20 PUSH2 0x5F12 DUP11 DUP3 DUP12 ADD PUSH2 0x5E87 JUMP JUMPDEST SWAP7 POP POP PUSH1 0x40 PUSH2 0x5F23 DUP11 DUP3 DUP12 ADD PUSH2 0x5E9B JUMP JUMPDEST SWAP6 POP POP PUSH1 0x60 PUSH2 0x5F34 DUP11 DUP3 DUP12 ADD PUSH2 0x5E9B JUMP JUMPDEST SWAP5 POP POP PUSH1 0x80 PUSH2 0x5F45 DUP11 DUP3 DUP12 ADD PUSH2 0x5E9B JUMP JUMPDEST SWAP4 POP POP PUSH1 0xA0 PUSH2 0x5F56 DUP11 DUP3 DUP12 ADD PUSH2 0x5EC5 JUMP JUMPDEST SWAP3 POP POP PUSH1 0xC0 PUSH2 0x5F67 DUP11 DUP3 DUP12 ADD PUSH2 0x5A20 JUMP JUMPDEST SWAP2 POP POP SWAP3 SWAP6 SWAP9 SWAP2 SWAP5 SWAP8 POP SWAP3 SWAP6 POP JUMP JUMPDEST PUSH0 DUP2 PUSH1 0x60 SHL SWAP1 POP SWAP2 SWAP1 POP JUMP JUMPDEST PUSH0 PUSH2 0x5F8C DUP3 PUSH2 0x5F76 JUMP JUMPDEST SWAP1 POP SWAP2 SWAP1 POP JUMP JUMPDEST PUSH0 PUSH2 0x5F9D DUP3 PUSH2 0x5F82 JUMP JUMPDEST SWAP1 POP SWAP2 SWAP1 POP JUMP JUMPDEST PUSH2 0x5FB5 PUSH2 0x5FB0 DUP3 PUSH2 0x4AE7 JUMP JUMPDEST PUSH2 0x5F93 JUMP JUMPDEST DUP3 MSTORE POP POP JUMP JUMPDEST PUSH0 DUP2 PUSH1 0xE8 SHL SWAP1 POP SWAP2 SWAP1 POP JUMP JUMPDEST PUSH0 PUSH2 0x5FD1 DUP3 PUSH2 0x5FBB JUMP JUMPDEST SWAP1 POP SWAP2 SWAP1 POP JUMP JUMPDEST PUSH2 0x5FE9 PUSH2 0x5FE4 DUP3 PUSH2 0x518F JUMP JUMPDEST PUSH2 0x5FC7 JUMP JUMPDEST DUP3 MSTORE POP POP JUMP JUMPDEST PUSH0 PUSH2 0x5FFA DUP3 DUP7 PUSH2 0x5FA4 JUMP JUMPDEST PUSH1 0x14 DUP3 ADD SWAP2 POP PUSH2 0x600A DUP3 DUP6 PUSH2 0x5FD8 JUMP JUMPDEST PUSH1 0x3 DUP3 ADD SWAP2 POP PUSH2 0x601A DUP3 DUP5 PUSH2 0x5FA4 JUMP JUMPDEST PUSH1 0x14 DUP3 ADD SWAP2 POP DUP2 SWAP1 POP SWAP5 SWAP4 POP POP POP POP JUMP JUMPDEST PUSH2 0x6034 DUP2 PUSH2 0x4F32 JUMP JUMPDEST DUP3 MSTORE POP POP JUMP JUMPDEST PUSH0 PUSH1 0xA0 DUP3 ADD SWAP1 POP PUSH2 0x604D PUSH0 DUP4 ADD DUP9 PUSH2 0x4E7A JUMP JUMPDEST PUSH2 0x605A PUSH1 0x20 DUP4 ADD DUP8 PUSH2 0x4FF4 JUMP JUMPDEST PUSH2 0x6067 PUSH1 0x40 DUP4 ADD DUP7 PUSH2 0x4FF4 JUMP JUMPDEST DUP2 DUP2 SUB PUSH1 0x60 DUP4 ADD MSTORE PUSH2 0x6079 DUP2 DUP6 PUSH2 0x5592 JUMP JUMPDEST SWAP1 POP PUSH2 0x6088 PUSH1 0x80 DUP4 ADD DUP5 PUSH2 0x602B JUMP JUMPDEST SWAP7 SWAP6 POP POP POP POP POP POP JUMP JUMPDEST PUSH0 DUP2 MLOAD SWAP1 POP SWAP2 SWAP1 POP JUMP JUMPDEST PUSH0 DUP3 DUP3 MSTORE PUSH1 0x20 DUP3 ADD SWAP1 POP SWAP3 SWAP2 POP POP JUMP JUMPDEST PUSH0 DUP2 SWAP1 POP PUSH1 0x20 DUP3 ADD SWAP1 POP SWAP2 SWAP1 POP JUMP JUMPDEST PUSH0 PUSH2 0x60C6 DUP4 DUP4 PUSH2 0x5180 JUMP JUMPDEST PUSH1 0x20 DUP4 ADD SWAP1 POP SWAP3 SWAP2 POP POP JUMP JUMPDEST PUSH0 PUSH1 0x20 DUP3 ADD SWAP1 POP SWAP2 SWAP1 POP JUMP JUMPDEST PUSH0 PUSH2 0x60E8 DUP3 PUSH2 0x6092 JUMP JUMPDEST PUSH2 0x60F2 DUP2 DUP6 PUSH2 0x609C JUMP JUMPDEST SWAP4 POP PUSH2 0x60FD DUP4 PUSH2 0x60AC JUMP JUMPDEST DUP1 PUSH0 JUMPDEST DUP4 DUP2 LT ISZERO PUSH2 0x612D JUMPI DUP2 MLOAD PUSH2 0x6114 DUP9 DUP3 PUSH2 0x60BB JUMP JUMPDEST SWAP8 POP PUSH2 0x611F DUP4 PUSH2 0x60D2 JUMP JUMPDEST SWAP3 POP POP PUSH1 0x1 DUP2 ADD SWAP1 POP PUSH2 0x6100 JUMP JUMPDEST POP DUP6 SWAP4 POP POP POP POP SWAP3 SWAP2 POP POP JUMP JUMPDEST PUSH0 PUSH1 0x40 DUP3 ADD SWAP1 POP PUSH2 0x614D PUSH0 DUP4 ADD DUP6 PUSH2 0x4FF4 JUMP JUMPDEST DUP2 DUP2 SUB PUSH1 0x20 DUP4 ADD MSTORE PUSH2 0x615F DUP2 DUP5 PUSH2 0x60DE JUMP JUMPDEST SWAP1 POP SWAP4 SWAP3 POP POP POP JUMP JUMPDEST PUSH0 PUSH8 0xFFFFFFFFFFFFFFFF DUP3 GT ISZERO PUSH2 0x6182 JUMPI PUSH2 0x6181 PUSH2 0x4D0F JUMP JUMPDEST JUMPDEST PUSH1 0x20 DUP3 MUL SWAP1 POP PUSH1 0x20 DUP2 ADD SWAP1 POP SWAP2 SWAP1 POP JUMP JUMPDEST PUSH0 PUSH2 0x61A5 PUSH2 0x61A0 DUP5 PUSH2 0x6168 JUMP JUMPDEST PUSH2 0x4D6D JUMP JUMPDEST SWAP1 POP DUP1 DUP4 DUP3 MSTORE PUSH1 0x20 DUP3 ADD SWAP1 POP PUSH1 0x20 DUP5 MUL DUP4 ADD DUP6 DUP2 GT ISZERO PUSH2 0x61C8 JUMPI PUSH2 0x61C7 PUSH2 0x4C31 JUMP JUMPDEST JUMPDEST DUP4 JUMPDEST DUP2 DUP2 LT ISZERO PUSH2 0x61F1 JUMPI DUP1 PUSH2 0x61DD DUP9 DUP3 PUSH2 0x53B5 JUMP JUMPDEST DUP5 MSTORE PUSH1 0x20 DUP5 ADD SWAP4 POP POP PUSH1 0x20 DUP2 ADD SWAP1 POP PUSH2 0x61CA JUMP JUMPDEST POP POP POP SWAP4 SWAP3 POP POP POP JUMP JUMPDEST PUSH0 DUP3 PUSH1 0x1F DUP4 ADD SLT PUSH2 0x620F JUMPI PUSH2 0x620E PUSH2 0x4C29 JUMP JUMPDEST JUMPDEST DUP2 MLOAD PUSH2 0x621F DUP5 DUP3 PUSH1 0x20 DUP7 ADD PUSH2 0x6193 JUMP JUMPDEST SWAP2 POP POP SWAP3 SWAP2 POP POP JUMP JUMPDEST PUSH0 PUSH1 0x20 DUP3 DUP5 SUB SLT ISZERO PUSH2 0x623D JUMPI PUSH2 0x623C PUSH2 0x4AC0 JUMP JUMPDEST JUMPDEST PUSH0 DUP3 ADD MLOAD PUSH8 0xFFFFFFFFFFFFFFFF DUP2 GT ISZERO PUSH2 0x625A JUMPI PUSH2 0x6259 PUSH2 0x4AC4 JUMP JUMPDEST JUMPDEST PUSH2 0x6266 DUP5 DUP3 DUP6 ADD PUSH2 0x61FB JUMP JUMPDEST SWAP2 POP POP SWAP3 SWAP2 POP POP JUMP JUMPDEST PUSH0 PUSH1 0xA0 DUP3 ADD SWAP1 POP PUSH2 0x6282 PUSH0 DUP4 ADD DUP9 PUSH2 0x4E7A JUMP JUMPDEST PUSH2 0x628F PUSH1 0x20 DUP4 ADD DUP8 PUSH2 0x4FF4 JUMP JUMPDEST PUSH2 0x629C PUSH1 0x40 DUP4 ADD DUP7 PUSH2 0x4FF4 JUMP JUMPDEST DUP2 DUP2 SUB PUSH1 0x60 DUP4 ADD MSTORE PUSH2 0x62AE DUP2 DUP6 PUSH2 0x60DE JUMP JUMPDEST SWAP1 POP PUSH2 0x62BD PUSH1 0x80 DUP4 ADD DUP5 PUSH2 0x602B JUMP JUMPDEST SWAP7 SWAP6 POP POP POP POP POP POP JUMP JUMPDEST PUSH0 PUSH1 0x60 DUP3 ADD SWAP1 POP PUSH2 0x62DA PUSH0 DUP4 ADD DUP7 PUSH2 0x4E7A JUMP JUMPDEST PUSH2 0x62E7 PUSH1 0x20 DUP4 ADD DUP6 PUSH2 0x4E7A JUMP JUMPDEST PUSH2 0x62F4 PUSH1 0x40 DUP4 ADD DUP5 PUSH2 0x4FF4 JUMP JUMPDEST SWAP5 SWAP4 POP POP POP POP JUMP JUMPDEST PUSH32 0x5452414E534645525F46524F4D5F4641494C4544000000000000000000000000 PUSH0 DUP3 ADD MSTORE POP JUMP JUMPDEST PUSH0 PUSH2 0x6330 PUSH1 0x14 DUP4 PUSH2 0x52CD JUMP JUMPDEST SWAP2 POP PUSH2 0x633B DUP3 PUSH2 0x62FC JUMP JUMPDEST PUSH1 0x20 DUP3 ADD SWAP1 POP SWAP2 SWAP1 POP JUMP JUMPDEST PUSH0 PUSH1 0x20 DUP3 ADD SWAP1 POP DUP2 DUP2 SUB PUSH0 DUP4 ADD MSTORE PUSH2 0x635D DUP2 PUSH2 0x6324 JUMP JUMPDEST SWAP1 POP SWAP2 SWAP1 POP JUMP JUMPDEST PUSH0 PUSH2 0x636E DUP3 PUSH2 0x5C3A JUMP JUMPDEST SWAP2 POP PUSH2 0x6379 DUP4 PUSH2 0x5C3A JUMP JUMPDEST SWAP3 POP DUP3 DUP3 SUB SWAP1 POP PUSH7 0x7FFFFFFFFFFFFF DUP2 SGT PUSH32 0xFFFFFFFFFFFFFFFFFFFFFFFFFFFFFFFFFFFFFFFFFFFFFFFFFF80000000000000 DUP3 SLT OR ISZERO PUSH2 0x63BC JUMPI PUSH2 0x63BB PUSH2 0x53F4 JUMP JUMPDEST JUMPDEST SWAP3 SWAP2 POP POP JUMP JUMPDEST PUSH0 PUSH1 0x60 DUP3 ADD SWAP1 POP PUSH2 0x63D5 PUSH0 DUP4 ADD DUP7 PUSH2 0x4E7A JUMP JUMPDEST PUSH2 0x63E2 PUSH1 0x20 DUP4 ADD DUP6 PUSH2 0x4E7A JUMP JUMPDEST PUSH2 0x63EF PUSH1 0x40 DUP4 ADD DUP5 PUSH2 0x4E7A JUMP JUMPDEST SWAP5 SWAP4 POP POP POP POP JUMP JUMPDEST PUSH0 PUSH6 0xFFFFFFFFFFFF DUP3 AND SWAP1 POP SWAP2 SWAP1 POP JUMP JUMPDEST PUSH2 0x6411 DUP2 PUSH2 0x63F7 JUMP JUMPDEST DUP2 EQ PUSH2 0x641B JUMPI PUSH0 PUSH0 REVERT JUMPDEST POP JUMP JUMPDEST PUSH0 DUP2 MLOAD SWAP1 POP PUSH2 0x642C DUP2 PUSH2 0x6408 JUMP JUMPDEST SWAP3 SWAP2 POP POP JUMP JUMPDEST PUSH0 PUSH0 PUSH0 PUSH1 0x60 DUP5 DUP7 SUB SLT ISZERO PUSH2 0x6449 JUMPI PUSH2 0x6448 PUSH2 0x4AC0 JUMP JUMPDEST JUMPDEST PUSH0 PUSH2 0x6456 DUP7 DUP3 DUP8 ADD PUSH2 0x5D46 JUMP JUMPDEST SWAP4 POP POP PUSH1 0x20 PUSH2 0x6467 DUP7 DUP3 DUP8 ADD PUSH2 0x641E JUMP JUMPDEST SWAP3 POP POP PUSH1 0x40 PUSH2 0x6478 DUP7 DUP3 DUP8 ADD PUSH2 0x641E JUMP JUMPDEST SWAP2 POP POP SWAP3 POP SWAP3 POP SWAP3 JUMP JUMPDEST PUSH2 0x648B DUP2 PUSH2 0x4AC8 JUMP JUMPDEST DUP3 MSTORE POP POP JUMP JUMPDEST PUSH2 0x649A DUP2 PUSH2 0x63F7 JUMP JUMPDEST DUP3 MSTORE POP POP JUMP JUMPDEST PUSH0 PUSH1 0x80 DUP3 ADD SWAP1 POP PUSH2 0x64B3 PUSH0 DUP4 ADD DUP8 PUSH2 0x4E7A JUMP JUMPDEST PUSH2 0x64C0 PUSH1 0x20 DUP4 ADD DUP7 PUSH2 0x4E7A JUMP JUMPDEST PUSH2 0x64CD PUSH1 0x40 DUP4 ADD DUP6 PUSH2 0x6482 JUMP JUMPDEST PUSH2 0x64DA PUSH1 0x60 DUP4 ADD DUP5 PUSH2 0x6491 JUMP JUMPDEST SWAP6 SWAP5 POP POP POP POP POP JUMP JUMPDEST PUSH32 0x4250000000000000000000000000000000000000000000000000000000000000 PUSH0 DUP3 ADD MSTORE POP JUMP JUMPDEST PUSH0 PUSH2 0x6517 PUSH1 0x2 DUP4 PUSH2 0x52CD JUMP JUMPDEST SWAP2 POP PUSH2 0x6522 DUP3 PUSH2 0x64E3 JUMP JUMPDEST PUSH1 0x20 DUP3 ADD SWAP1 POP SWAP2 SWAP1 POP JUMP JUMPDEST PUSH0 PUSH1 0x20 DUP3 ADD SWAP1 POP DUP2 DUP2 SUB PUSH0 DUP4 ADD MSTORE PUSH2 0x6544 DUP2 PUSH2 0x650B JUMP JUMPDEST SWAP1 POP SWAP2 SWAP1 POP JUMP JUMPDEST PUSH0 PUSH2 0x6555 DUP3 PUSH2 0x5C3A JUMP JUMPDEST SWAP2 POP PUSH2 0x6560 DUP4 PUSH2 0x5C3A JUMP JUMPDEST SWAP3 POP DUP3 PUSH2 0x6570 JUMPI PUSH2 0x656F PUSH2 0x554B JUMP JUMPDEST JUMPDEST PUSH1 0x1 PUSH0 SUB DUP4 EQ PUSH32 0xFFFFFFFFFFFFFFFFFFFFFFFFFFFFFFFFFFFFFFFFFFFFFFFFFF80000000000000 DUP4 EQ AND ISZERO PUSH2 0x65A8 JUMPI PUSH2 0x65A7 PUSH2 0x53F4 JUMP JUMPDEST JUMPDEST DUP3 DUP3 SDIV SWAP1 POP SWAP3 SWAP2 POP POP JUMP JUMPDEST PUSH0 PUSH2 0x65BD DUP3 PUSH2 0x5C3A JUMP JUMPDEST SWAP2 POP PUSH2 0x65C8 DUP4 PUSH2 0x5C3A JUMP JUMPDEST SWAP3 POP DUP3 PUSH2 0x65D8 JUMPI PUSH2 0x65D7 PUSH2 0x554B JUMP JUMPDEST JUMPDEST DUP3 DUP3 SMOD SWAP1 POP SWAP3 SWAP2 POP POP JUMP JUMPDEST PUSH0 DUP2 SWAP1 POP SWAP2 SWAP1 POP JUMP JUMPDEST PUSH0 PUSH2 0x65F6 DUP3 PUSH2 0x65E3 JUMP JUMPDEST SWAP2 POP PUSH32 0x8000000000000000000000000000000000000000000000000000000000000000 DUP3 SUB PUSH2 0x6628 JUMPI PUSH2 0x6627 PUSH2 0x53F4 JUMP JUMPDEST JUMPDEST DUP2 PUSH0 SUB SWAP1 POP SWAP2 SWAP1 POP JUMP JUMPDEST PUSH0 PUSH2 0x663C DUP3 PUSH2 0x5E65 JUMP JUMPDEST SWAP2 POP PUSH32 0xFFFFFFFFFFFFFFFFFFFFFFFFFFFFFFFFFFFFFFFFFFFFFFFFFFFFFFFFFF800000 DUP3 SUB PUSH2 0x666E JUMPI PUSH2 0x666D PUSH2 0x53F4 JUMP JUMPDEST JUMPDEST DUP2 PUSH0 SUB SWAP1 POP SWAP2 SWAP1 POP JUMP JUMPDEST PUSH32 0x5400000000000000000000000000000000000000000000000000000000000000 PUSH0 DUP3 ADD MSTORE POP JUMP JUMPDEST PUSH0 PUSH2 0x66AC PUSH1 0x1 DUP4 PUSH2 0x52CD JUMP JUMPDEST SWAP2 POP PUSH2 0x66B7 DUP3 PUSH2 0x6678 JUMP JUMPDEST PUSH1 0x20 DUP3 ADD SWAP1 POP SWAP2 SWAP1 POP JUMP JUMPDEST PUSH0 PUSH1 0x20 DUP3 ADD SWAP1 POP DUP2 DUP2 SUB PUSH0 DUP4 ADD MSTORE PUSH2 0x66D9 DUP2 PUSH2 0x66A0 JUMP JUMPDEST SWAP1 POP SWAP2 SWAP1 POP JUMP JUMPDEST PUSH0 PUSH2 0x66EA DUP3 PUSH2 0x4FEB JUMP JUMPDEST SWAP2 POP PUSH2 0x66F5 DUP4 PUSH2 0x4FEB JUMP JUMPDEST SWAP3 POP DUP3 PUSH2 0x6705 JUMPI PUSH2 0x6704 PUSH2 0x554B JUMP JUMPDEST JUMPDEST DUP3 DUP3 MOD SWAP1 POP SWAP3 SWAP2 POP POP JUMP JUMPDEST PUSH0 PUSH2 0x671A DUP3 PUSH2 0x4FEB JUMP JUMPDEST SWAP2 POP PUSH2 0x6725 DUP4 PUSH2 0x4FEB JUMP JUMPDEST SWAP3 POP DUP3 DUP3 ADD SWAP1 POP DUP1 DUP3 GT ISZERO PUSH2 0x673D JUMPI PUSH2 0x673C PUSH2 0x53F4 JUMP JUMPDEST JUMPDEST SWAP3 SWAP2 POP POP JUMP JUMPDEST PUSH32 0x415050524F56455F4641494C4544000000000000000000000000000000000000 PUSH0 DUP3 ADD MSTORE POP JUMP JUMPDEST PUSH0 PUSH2 0x6777 PUSH1 0xE DUP4 PUSH2 0x52CD JUMP JUMPDEST SWAP2 POP PUSH2 0x6782 DUP3 PUSH2 0x6743 JUMP JUMPDEST PUSH1 0x20 DUP3 ADD SWAP1 POP SWAP2 SWAP1 POP JUMP JUMPDEST PUSH0 PUSH1 0x20 DUP3 ADD SWAP1 POP DUP2 DUP2 SUB PUSH0 DUP4 ADD MSTORE PUSH2 0x67A4 DUP2 PUSH2 0x676B JUMP JUMPDEST SWAP1 POP SWAP2 SWAP1 POP JUMP INVALID LOG2 PUSH5 0x6970667358 0x22 SLT KECCAK256 SWAP4 0xD3 SWAP4 KECCAK256 ADDMOD 0xB9 SWAP9 LOG2 SDIV SHL RETF 0xE9 0xFC SUB 0xAF SWAP10 0x25 0xB7 DUP3 MULMOD 0x24 RJUMPI 0x14A4 0x1E 0xCF BLOCKHASH DUP4 XOR LOG1 0xCB DUP3 PUSH5 0x736F6C6343 STOP ADDMOD 0x1E STOP CALLER "
		},
		"gasEstimates": {
			"creation": {
				"codeDepositCost": "5318600",
				"executionCost": "infinite",
				"totalCost": "infinite"
			},
			"external": {
				"Directory()": "infinite",
				"MAX_SLIPPAGE_BIPS()": "2490",
				"changeDirectoryAddress(address)": "infinite",
				"changeMaxSlippage(uint32)": "infinite",
				"fetchFromDirectory(string)": "infinite",
				"getBestWethPool(address)": "infinite",
				"getBestWethPoolUpdatable(address)": "infinite",
				"owner()": "infinite",
				"permit2()": "infinite",
				"recoverAsset(address,address)": "infinite",
				"setStaleTimePoolCache(uint256)": "infinite",
				"staleTime()": "2514",
				"swapEthToMultipleTokens((address,uint16)[],address,uint32)": "infinite",
				"swapMultipleTokensToEth((address,uint256)[],address,uint32,bool)": "infinite",
				"uRouter()": "infinite",
				"v2Factory()": "infinite",
				"v2Router()": "infinite",
				"v3Factory()": "infinite",
				"wethAddress()": "infinite"
			}
		},
		"methodIdentifiers": {
			"Directory()": "658a847a",
			"MAX_SLIPPAGE_BIPS()": "0362fe3a",
			"changeDirectoryAddress(address)": "ba4c7be1",
			"changeMaxSlippage(uint32)": "1052874d",
			"fetchFromDirectory(string)": "27262618",
			"getBestWethPool(address)": "df697cc4",
			"getBestWethPoolUpdatable(address)": "d32563c8",
			"owner()": "8da5cb5b",
			"permit2()": "12261ee7",
			"recoverAsset(address,address)": "09053ac4",
			"setStaleTimePoolCache(uint256)": "a7590163",
			"staleTime()": "38b88052",
			"swapEthToMultipleTokens((address,uint16)[],address,uint32)": "1623306b",
			"swapMultipleTokensToEth((address,uint256)[],address,uint32,bool)": "3814bc6e",
			"uRouter()": "5cf39049",
			"v2Factory()": "b4b57c39",
			"v2Router()": "deadbc14",
			"v3Factory()": "7c887c59",
			"wethAddress()": "4f0e0ef3"
		}
	},
	"abi": [
		{
			"inputs": [
				{
					"internalType": "address",
					"name": "_directory",
					"type": "address"
				},
				{
					"internalType": "address",
					"name": "_v2Router",
					"type": "address"
				},
				{
					"internalType": "address",
					"name": "_v3Factory",
					"type": "address"
				},
				{
					"internalType": "address",
					"name": "_universalRouter",
					"type": "address"
				},
				{
					"internalType": "address",
					"name": "_permit2",
					"type": "address"
				}
			],
			"stateMutability": "nonpayable",
			"type": "constructor"
		},
		{
			"inputs": [],
			"name": "AllowanceTooLow",
			"type": "error"
		},
		{
			"inputs": [],
			"name": "BadToken",
			"type": "error"
		},
		{
			"inputs": [],
			"name": "ETHSendFailed",
			"type": "error"
		},
		{
			"inputs": [],
			"name": "ETHSendFailure",
			"type": "error"
		},
		{
			"inputs": [],
			"name": "InsufficientETH",
			"type": "error"
		},
		{
			"inputs": [],
			"name": "InsufficientETH",
			"type": "error"
		},
		{
			"inputs": [],
			"name": "InvalidInput",
			"type": "error"
		},
		{
			"inputs": [],
			"name": "InvalidSlippage",
			"type": "error"
		},
		{
			"inputs": [],
			"name": "NoPoolFound",
			"type": "error"
		},
		{
			"inputs": [],
			"name": "NoSwaps",
			"type": "error"
		},
		{
			"inputs": [],
			"name": "NothingReceived",
			"type": "error"
		},
		{
			"inputs": [],
			"name": "PreTransferInsufficient",
			"type": "error"
		},
		{
			"inputs": [],
			"name": "QuoteUnavailable",
			"type": "error"
		},
		{
			"inputs": [],
			"name": "TokenIsWETH",
			"type": "error"
		},
		{
			"inputs": [],
			"name": "WeightsInvalid",
			"type": "error"
		},
		{
			"inputs": [],
			"name": "ZeroAddress",
			"type": "error"
		},
		{
			"inputs": [],
			"name": "ZeroAmount",
			"type": "error"
		},
		{
			"inputs": [],
			"name": "Directory",
			"outputs": [
				{
					"internalType": "contract IDirectory",
					"name": "",
					"type": "address"
				}
			],
			"stateMutability": "view",
			"type": "function"
		},
		{
			"inputs": [],
			"name": "MAX_SLIPPAGE_BIPS",
			"outputs": [
				{
					"internalType": "uint32",
					"name": "",
					"type": "uint32"
				}
			],
			"stateMutability": "view",
			"type": "function"
		},
		{
			"inputs": [
				{
					"internalType": "address",
					"name": "_directory",
					"type": "address"
				}
			],
			"name": "changeDirectoryAddress",
			"outputs": [],
			"stateMutability": "nonpayable",
			"type": "function"
		},
		{
			"inputs": [
				{
					"internalType": "uint32",
					"name": "newMaxSlippageBips",
					"type": "uint32"
				}
			],
			"name": "changeMaxSlippage",
			"outputs": [],
			"stateMutability": "nonpayable",
			"type": "function"
		},
		{
			"inputs": [
				{
					"internalType": "string",
					"name": "_key",
					"type": "string"
				}
			],
			"name": "fetchFromDirectory",
			"outputs": [
				{
					"internalType": "address",
					"name": "",
					"type": "address"
				}
			],
			"stateMutability": "view",
			"type": "function"
		},
		{
			"inputs": [
				{
					"internalType": "address",
					"name": "tokenAddress",
					"type": "address"
				}
			],
			"name": "getBestWethPool",
			"outputs": [
				{
					"components": [
						{
							"internalType": "address",
							"name": "poolAddress",
							"type": "address"
						},
						{
							"internalType": "uint24",
							"name": "poolFee",
							"type": "uint24"
						},
						{
							"internalType": "uint8",
							"name": "isV3Pool",
							"type": "uint8"
						},
						{
							"internalType": "uint64",
							"name": "lastCached",
							"type": "uint64"
						}
					],
					"internalType": "struct Pool",
					"name": "pool",
					"type": "tuple"
				}
			],
			"stateMutability": "view",
			"type": "function"
		},
		{
			"inputs": [
				{
					"internalType": "address",
					"name": "tokenAddress",
					"type": "address"
				}
			],
			"name": "getBestWethPoolUpdatable",
			"outputs": [
				{
					"components": [
						{
							"internalType": "address",
							"name": "poolAddress",
							"type": "address"
						},
						{
							"internalType": "uint24",
							"name": "poolFee",
							"type": "uint24"
						},
						{
							"internalType": "uint8",
							"name": "isV3Pool",
							"type": "uint8"
						},
						{
							"internalType": "uint64",
							"name": "lastCached",
							"type": "uint64"
						}
					],
					"internalType": "struct Pool",
					"name": "out",
					"type": "tuple"
				}
			],
			"stateMutability": "nonpayable",
			"type": "function"
		},
		{
			"inputs": [],
			"name": "owner",
			"outputs": [
				{
					"internalType": "address",
					"name": "",
					"type": "address"
				}
			],
			"stateMutability": "view",
			"type": "function"
		},
		{
			"inputs": [],
			"name": "permit2",
			"outputs": [
				{
					"internalType": "contract IPermit2",
					"name": "",
					"type": "address"
				}
			],
			"stateMutability": "view",
			"type": "function"
		},
		{
			"inputs": [
				{
					"internalType": "address",
					"name": "tokenAddress",
					"type": "address"
				},
				{
					"internalType": "address",
					"name": "toAddress",
					"type": "address"
				}
			],
			"name": "recoverAsset",
			"outputs": [],
			"stateMutability": "nonpayable",
			"type": "function"
		},
		{
			"inputs": [
				{
					"internalType": "uint256",
					"name": "newStaleTime",
					"type": "uint256"
				}
			],
			"name": "setStaleTimePoolCache",
			"outputs": [],
			"stateMutability": "nonpayable",
			"type": "function"
		},
		{
			"inputs": [],
			"name": "staleTime",
			"outputs": [
				{
					"internalType": "uint256",
					"name": "",
					"type": "uint256"
				}
			],
			"stateMutability": "view",
			"type": "function"
		},
		{
			"inputs": [
				{
					"components": [
						{
							"internalType": "address",
							"name": "tokenAddress",
							"type": "address"
						},
						{
							"internalType": "uint16",
							"name": "weightBips",
							"type": "uint16"
						}
					],
					"internalType": "struct MultiTokenOutput[]",
					"name": "outputs",
					"type": "tuple[]"
				},
				{
					"internalType": "address",
					"name": "recipientAddress",
					"type": "address"
				},
				{
					"internalType": "uint32",
					"name": "slippageBps",
					"type": "uint32"
				}
			],
			"name": "swapEthToMultipleTokens",
			"outputs": [],
			"stateMutability": "payable",
			"type": "function"
		},
		{
			"inputs": [
				{
					"components": [
						{
							"internalType": "address",
							"name": "tokenAddress",
							"type": "address"
						},
						{
							"internalType": "uint256",
							"name": "amount",
							"type": "uint256"
						}
					],
					"internalType": "struct MultiTokenInput[]",
					"name": "inputsIn",
					"type": "tuple[]"
				},
				{
					"internalType": "address payable",
					"name": "recipientAddress",
					"type": "address"
				},
				{
					"internalType": "uint32",
					"name": "slippageBps",
					"type": "uint32"
				},
				{
					"internalType": "bool",
					"name": "preTransferred",
					"type": "bool"
				}
			],
			"name": "swapMultipleTokensToEth",
			"outputs": [],
			"stateMutability": "nonpayable",
			"type": "function"
		},
		{
			"inputs": [],
			"name": "uRouter",
			"outputs": [
				{
					"internalType": "contract IUniversalRouter",
					"name": "",
					"type": "address"
				}
			],
			"stateMutability": "view",
			"type": "function"
		},
		{
			"inputs": [],
			"name": "v2Factory",
			"outputs": [
				{
					"internalType": "contract IUniswapV2Factory",
					"name": "",
					"type": "address"
				}
			],
			"stateMutability": "view",
			"type": "function"
		},
		{
			"inputs": [],
			"name": "v2Router",
			"outputs": [
				{
					"internalType": "contract IUniswapV2Router02",
					"name": "",
					"type": "address"
				}
			],
			"stateMutability": "view",
			"type": "function"
		},
		{
			"inputs": [],
			"name": "v3Factory",
			"outputs": [
				{
					"internalType": "contract IUniswapV3Factory",
					"name": "",
					"type": "address"
				}
			],
			"stateMutability": "view",
			"type": "function"
		},
		{
			"inputs": [],
			"name": "wethAddress",
			"outputs": [
				{
					"internalType": "address",
					"name": "",
					"type": "address"
				}
			],
			"stateMutability": "view",
			"type": "function"
		},
		{
			"stateMutability": "payable",
			"type": "receive"
		}
	]
}