{
	"data": {
		"bytecode": {
			"linkReferences": {},
			"object": "610140604052615460600255348015610016575f5ffd5b506040516143d23803806143d2833981016040819052610035916103ae565b84848484846001600160a01b0383166100615760405163d92e233d60e01b815260040160405180910390fd5b6001600160a01b0384166100885760405163d92e233d60e01b815260040160405180910390fd5b6001600160a01b0382166100af5760405163d92e233d60e01b815260040160405180910390fd5b6001600160a01b0381166100d65760405163d92e233d60e01b815260040160405180910390fd5b6001600160a01b0380841660e05284811661010081905290831661012052604080516315ab88c960e31b815290515f929163ad5c46489160048083019260209291908290030181865afa15801561012f573d5f5f3e3d5ffd5b505050506040513d601f19601f82011682018060405250810190610153919061040f565b9050806001600160a01b03166080816001600160a01b031681525050846001600160a01b031663c45a01556040518163ffffffff1660e01b8152600401602060405180830381865afa1580156101ab573d5f5f3e3d5ffd5b505050506040513d601f19601f820116820180604052508101906101cf919061040f565b6001600160a01b0390811660c0529190911660a052506101f3925083915050610204565b505060016003555061042f92505050565b6001600160a01b03811661025f5760405162461bcd60e51b815260206004820181905260248201527f4469726563746f72792063616e6e6f74206265207a65726f206164647265737360448201526064015b60405180910390fd5b5f816001600160a01b03163b116102b85760405162461bcd60e51b815260206004820152601c60248201527f4469726563746f7279206d757374206265206120636f6e7472616374000000006044820152606401610256565b806001600160a01b0316638da5cb5b6040518163ffffffff1660e01b8152600401602060405180830381865afa925050508015610312575060408051601f3d908101601f1916820190925261030f9181019061040f565b60015b6103735760405162461bcd60e51b815260206004820152602c60248201527f4469726563746f7279206164647265737320646f6573206e6f7420696d706c6560448201526b6d656e74206f776e6572282960a01b6064820152608401610256565b505f80546001600160a01b0383166001600160a01b031990911617905550565b80516001600160a01b03811681146103a9575f5ffd5b919050565b5f5f5f5f5f60a086880312156103c2575f5ffd5b6103cb86610393565b94506103d960208701610393565b93506103e760408701610393565b92506103f560608701610393565b915061040360808701610393565b90509295509295909350565b5f6020828403121561041f575f5ffd5b61042882610393565b9392505050565b60805160a05160c05160e0516101005161012051613e9861053a5f395f81816102310152818161108c01528181612510015261281501525f81816103a601526126b601525f8181610282015281816119cd01526121d401525f81816102e801526117d401525f818161013a015281816124c4015281816124ee015281816127c901526127f301525f81816101fe01528181610564015281816105af015281816106fd0152818161079501528181610d05015281816111e001528181611735015281816117a401528181611c0201528181611c3501528181611c7101528181611c9f01528181611fd601528181612073015281816120a6015281816120d801526121060152613e985ff3fe6080604052600436106100fd575f3560e01c8063658a847a11610092578063b4b57c3911610062578063b4b57c39146102d7578063ba4c7be11461030a578063d32563c814610329578063deadbc1414610395578063df697cc4146103c8575f5ffd5b8063658a847a146102535780637c887c59146102715780638da5cb5b146102a4578063a7590163146102b8575f5ffd5b80633814bc6e116100cd5780633814bc6e146101ab57806338b88052146101ca5780634f0e0ef3146101ed5780635cf3904914610220575f5ffd5b806309053ac41461010857806312261ee7146101295780631623306b14610179578063272626181461018c575f5ffd5b3661010457005b5f5ffd5b348015610113575f5ffd5b506101276101223660046134b2565b6103e7565b005b348015610134575f5ffd5b5061015c7f000000000000000000000000000000000000000000000000000000000000000081565b6040516001600160a01b0390911681526020015b60405180910390f35b610127610187366004613541565b6104a1565b348015610197575f5ffd5b5061015c6101a63660046135e8565b6105fc565b3480156101b6575f5ffd5b506101276101c5366004613687565b610671565b3480156101d5575f5ffd5b506101df60025481565b604051908152602001610170565b3480156101f8575f5ffd5b5061015c7f000000000000000000000000000000000000000000000000000000000000000081565b34801561022b575f5ffd5b5061015c7f000000000000000000000000000000000000000000000000000000000000000081565b34801561025e575f5ffd5b505f5461015c906001600160a01b031681565b34801561027c575f5ffd5b5061015c7f000000000000000000000000000000000000000000000000000000000000000081565b3480156102af575f5ffd5b5061015c6107ce565b3480156102c3575f5ffd5b506101276102d23660046136fe565b610847565b3480156102e2575f5ffd5b5061015c7f000000000000000000000000000000000000000000000000000000000000000081565b348015610315575f5ffd5b50610127610324366004613715565b6108ef565b348015610334575f5ffd5b50610348610343366004613715565b61099e565b604051610170919081516001600160a01b0316815260208083015162ffffff169082015260408083015160ff16908201526060918201516001600160401b03169181019190915260800190565b3480156103a0575f5ffd5b5061015c7f000000000000000000000000000000000000000000000000000000000000000081565b3480156103d3575f5ffd5b506103486103e2366004613715565b610bd4565b5f5f9054906101000a90046001600160a01b03166001600160a01b0316638da5cb5b6040518163ffffffff1660e01b8152600401602060405180830381865afa158015610436573d5f5f3e3d5ffd5b505050506040513d601f19601f8201168201806040525081019061045a9190613730565b6001600160a01b0316336001600160a01b0316146104935760405162461bcd60e51b815260040161048a9061374b565b60405180910390fd5b61049d8282610c6b565b5050565b6104a9610c75565b6001600160a01b0382166104d05760405163d92e233d60e01b815260040160405180910390fd5b345f8490036104f25760405163b4fa3fb360e01b815260040160405180910390fd5b805f036105125760405163b4fa3fb360e01b815260040160405180910390fd5b5f6105208686868686610cce565b6080810151909150801580610536575061271081115b156105545760405163124955fb60e01b815260040160405180910390fd5b60608201518015610589576105897f000000000000000000000000000000000000000000000000000000000000000082610f39565b61059f835f015184602001518560400151610fae565b60a083015180156105d5576105d57f000000000000000000000000000000000000000000000000000000000000000088836110da565b4780156105e6576105e6338261110a565b5050505050506105f66001600355565b50505050565b5f80546040516304e4c4c360e31b81526001600160a01b039091169063272626189061062c9085906004016137b0565b602060405180830381865afa158015610647573d5f5f3e3d5ffd5b505050506040513d601f19601f8201168201806040525081019061066b9190613730565b92915050565b610679610c75565b6001600160a01b0383166106a05760405163d92e233d60e01b815260040160405180910390fd5b5f8490036106c15760405163b4fa3fb360e01b815260040160405180910390fd5b5f6106ce868685856111bb565b90506106e6815f015182602001518360400151610fae565b6040516370a0823160e01b81523060048201525f907f00000000000000000000000000000000000000000000000000000000000000006001600160a01b0316906370a0823190602401602060405180830381865afa15801561074a573d5f5f3e3d5ffd5b505050506040513d601f19601f8201168201806040525081019061076e91906137c2565b9050805f03610790576040516355ff99ad60e11b815260040160405180910390fd5b6107bb7f0000000000000000000000000000000000000000000000000000000000000000828761149a565b50506107c76001600355565b5050505050565b5f5f5f9054906101000a90046001600160a01b03166001600160a01b0316638da5cb5b6040518163ffffffff1660e01b8152600401602060405180830381865afa15801561081e573d5f5f3e3d5ffd5b505050506040513d601f19601f820116820180604052508101906108429190613730565b905090565b5f5f9054906101000a90046001600160a01b03166001600160a01b0316638da5cb5b6040518163ffffffff1660e01b8152600401602060405180830381865afa158015610896573d5f5f3e3d5ffd5b505050506040513d601f19601f820116820180604052508101906108ba9190613730565b6001600160a01b0316336001600160a01b0316146108ea5760405162461bcd60e51b815260040161048a9061374b565b600255565b5f5f9054906101000a90046001600160a01b03166001600160a01b0316638da5cb5b6040518163ffffffff1660e01b8152600401602060405180830381865afa15801561093e573d5f5f3e3d5ffd5b505050506040513d601f19601f820116820180604052508101906109629190613730565b6001600160a01b0316336001600160a01b0316146109925760405162461bcd60e51b815260040161048a9061374b565b61099b8161155f565b50565b604080516080810182525f8082526020820181905291810182905260608101919091526001600160a01b038083165f9081526001602052604090208054909116610a81576109eb836116e9565b6001600160a01b039384165f9081526001602090815260409182902083518154928501519385015160608601516001600160401b0316600160c01b026001600160c01b0360ff909216600160b81b02919091166001600160b81b0362ffffff909616600160a01b026001600160b81b03199095169290991691909117929092179290921695909517949094179093555090919050565b6002548154610aa090600160c01b90046001600160401b0316426137ed565b1115610b7f575f610ab0846116e9565b825481519192506001600160a01b03918216911614610b5f576001600160a01b039384165f9081526001602090815260409182902083518154928501519385015160608601516001600160401b0316600160c01b026001600160c01b0360ff909216600160b81b02919091166001600160b81b0362ffffff909616600160a01b026001600160b81b03199095169290991691909117929092179290921695909517949094179093555090919050565b5080546001600160c01b0316600160c01b426001600160401b0316021781555b6040805160808101825291546001600160a01b0381168352600160a01b810462ffffff166020840152600160b81b810460ff1691830191909152600160c01b90046001600160401b0316606082015292915050565b60408051608080820183525f808352602080840182905283850182905260609384018290526001600160a01b03868116835260018252918590208551938401865254918216808452600160a01b830462ffffff1691840191909152600160b81b820460ff1694830194909452600160c01b90046001600160401b0316918101919091529015610c6257919050565b61066b826116e9565b61049d8282611b04565b600260035403610cc75760405162461bcd60e51b815260206004820152601f60248201527f5265656e7472616e637947756172643a207265656e7472616e742063616c6c00604482015260640161048a565b6002600355565b610d036040518060c0016040528060608152602001606081526020015f81526020015f81526020015f81526020015f81525090565b7f000000000000000000000000000000000000000000000000000000000000000085806001600160401b03811115610d3d57610d3d6135a4565b604051908082528060200260200182016040528015610d7057816020015b6060815260200190600190039081610d5b5790505b506020840152806001600160401b03811115610d8e57610d8e6135a4565b6040519080825280601f01601f191660200182016040528015610db8576020820181803683370190505b5083525f5b81811015610f2d575f898983818110610dd857610dd8613800565b610dee9260206040909202019081019150613715565b90506001600160a01b038116610e1757604051637401d93160e01b815260040160405180910390fd5b5f8a8a84818110610e2a57610e2a613800565b9050604002016020016020810190610e429190613823565b60808701805161ffff92909216918201905290505f819003610e65575050610f25565b612710818802045f819003610e7c57505050610f25565b606087018051820190526001600160a01b0380871690841603610eac5760a087018051909101905250610f259050565b5f5f610eba85848e8e611b97565b9150915081895f01518a6040015181518110610ed857610ed8613800565b60200101906001600160f81b03191690815f1a9053508089602001518a6040015181518110610f0957610f09613800565b6020908102919091010152505050604086018051600101905250505b600101610dbd565b50505095945050505050565b80471015610f5a57604051631a84bc4160e21b815260040160405180910390fd5b816001600160a01b031663d0e30db0826040518263ffffffff1660e01b81526004015f604051808303818588803b158015610f93575f5ffd5b505af1158015610fa5573d5f5f3e3d5ffd5b50505050505050565b805f03610fce576040516355ff99ad60e11b815260040160405180910390fd5b80825114611072575f816001600160401b03811115610fef57610fef6135a4565b60405190808252806020026020018201604052801561102257816020015b606081526020019060019003908161100d5790505b5090505f5b8281101561106e5783818151811061104157611041613800565b602002602001015182828151811061105b5761105b613800565b6020908102919091010152600101611027565b5091505b8083526040516324856bc360e01b81526001600160a01b037f000000000000000000000000000000000000000000000000000000000000000016906324856bc3906110c39086908690600401613852565b5f604051808303815f87803b158015610f93575f5ffd5b805f036110fa57604051631f2a200560e01b815260040160405180910390fd5b611105838383611cdd565b505050565b805f0361112a57604051631f2a200560e01b815260040160405180910390fd5b8047101561114b57604051631a84bc4160e21b815260040160405180910390fd5b5f826001600160a01b0316826040515f6040518083038185875af1925050503d805f8114611194576040519150601f19603f3d011682016040523d82523d5f602084013e611199565b606091505b50509050806111055760405163cef4eed760e01b815260040160405180910390fd5b6111de604051806060016040528060608152602001606081526020015f81525090565b7f000000000000000000000000000000000000000000000000000000000000000084806001600160401b03811115611218576112186135a4565b60405190808252806020026020018201604052801561124b57816020015b60608152602001906001900390816112365790505b506020840152806001600160401b03811115611269576112696135a4565b6040519080825280601f01601f191660200182016040528015611293576020820181803683370190505b5083525f5b8181101561148f575f8888838181106112b3576112b3613800565b6112c99260206040909202019081019150613715565b90505f8989848181106112de576112de613800565b905060400201602001359050805f036112f8575050611487565b6001600160a01b03821661131f57604051637401d93160e01b815260040160405180910390fd5b6001600160a01b03828116908616145f88156113d9576040516370a0823160e01b81523060048201525f906001600160a01b038616906370a0823190602401602060405180830381865afa158015611379573d5f5f3e3d5ffd5b505050506040513d601f19601f8201168201806040525081019061139d91906137c2565b9050838110156113c0576040516306998f5b60e01b815260040160405180910390fd5b82156113d0575050505050611487565b8391505061140d565b5f6113e5858533611dde565b905082156113f7575050505050611487565b809150815f0361140b575050505050611487565b505b5f5f61141b8684308f611fa2565b91509150818a5f01518b604001518151811061143957611439613800565b60200101906001600160f81b03191690815f1a905350808a602001518b604001518151811061146a5761146a613800565b602090810291909101015250505060408701805160010190525050505b600101611298565b505050949350505050565b604051632e1a7d4d60e01b8152600481018390526001600160a01b03841690632e1a7d4d906024015f604051808303815f87803b1580156114d9575f5ffd5b505af11580156114eb573d5f5f3e3d5ffd5b505050505f816001600160a01b0316836040515f6040518083038185875af1925050503d805f8114611538576040519150601f19603f3d011682016040523d82523d5f602084013e61153d565b606091505b50509050806105f65760405163597c555560e11b815260040160405180910390fd5b6001600160a01b0381166115b55760405162461bcd60e51b815260206004820181905260248201527f4469726563746f72792063616e6e6f74206265207a65726f2061646472657373604482015260640161048a565b5f816001600160a01b03163b1161160e5760405162461bcd60e51b815260206004820152601c60248201527f4469726563746f7279206d757374206265206120636f6e747261637400000000604482015260640161048a565b806001600160a01b0316638da5cb5b6040518163ffffffff1660e01b8152600401602060405180830381865afa925050508015611668575060408051601f3d908101601f1916820190925261166591810190613730565b60015b6116c95760405162461bcd60e51b815260206004820152602c60248201527f4469726563746f7279206164647265737320646f6573206e6f7420696d706c6560448201526b6d656e74206f776e6572282960a01b606482015260840161048a565b505f80546001600160a01b0383166001600160a01b031990911617905550565b604080516080810182525f8082526020820181905291810182905260608101919091526001600160a01b0382166117335760405163d92e233d60e01b815260040160405180910390fd5b7f00000000000000000000000000000000000000000000000000000000000000006001600160a01b0316826001600160a01b0316036117855760405163871c78af60e01b815260040160405180910390fd5b60405163e6a4390560e01b81526001600160a01b0383811660048301527f000000000000000000000000000000000000000000000000000000000000000081811660248401529182915f9182917f0000000000000000000000000000000000000000000000000000000000000000169063e6a4390590604401602060405180830381865afa158015611819573d5f5f3e3d5ffd5b505050506040513d601f19601f8201168201806040525081019061183d9190613730565b90506001600160a01b03811615611978575f5f826001600160a01b0316630902f1ac6040518163ffffffff1660e01b8152600401606060405180830381865afa15801561188c573d5f5f3e3d5ffd5b505050506040513d601f19601f820116820180604052508101906118b091906138e2565b50915091505f836001600160a01b0316630dfe16816040518163ffffffff1660e01b8152600401602060405180830381865afa1580156118f2573d5f5f3e3d5ffd5b505050506040513d601f19601f820116820180604052508101906119169190613730565b90505f876001600160a01b0316826001600160a01b03161461194157826001600160701b031661194c565b836001600160701b03165b905085811115611973575f60408a018190526001600160a01b0386168a5260208a01529450845b505050505b5f5b6002811015611aea575f811561199257612710611996565b610bb85b604051630b4c774160e11b81526001600160a01b038a81166004830152888116602483015262ffffff831660448301529192505f917f00000000000000000000000000000000000000000000000000000000000000001690631698ee8290606401602060405180830381865afa158015611a12573d5f5f3e3d5ffd5b505050506040513d601f19601f82011682018060405250810190611a369190613730565b90506001600160a01b03811615611ae0576040516370a0823160e01b81526001600160a01b0382811660048301525f91908816906370a0823190602401602060405180830381865afa158015611a8e573d5f5f3e3d5ffd5b505050506040513d601f19601f82011682018060405250810190611ab291906137c2565b905085811115611ade57600160408a01526001600160a01b038216895262ffffff831660208a01529450845b505b505060010161197a565b5050506001600160401b0342166060840152509092915050565b6001600160a01b038216611b1c5761049d814761110a565b6040516370a0823160e01b81523060048201525f906001600160a01b038416906370a0823190602401602060405180830381865afa158015611b60573d5f5f3e3d5ffd5b505050506040513d601f19601f82011682018060405250810190611b8491906137c2565b9050801561110557611105838383611cdd565b5f6060845f03611bb857505060408051602081019091525f80825290611cd4565b5f611bc28761099e565b80519091506001600160a01b0316611bed5760405163791c2fed60e01b815260040160405180910390fd5b5f816040015160ff16600103611c6c57611c2e7f00000000000000000000000000000000000000000000000000000000000000008984602001518a8961212d565b9050611c627f00000000000000000000000000000000000000000000000000000000000000008984602001518a858b6124bc565b5f94509250611cd1565b611c987f00000000000000000000000000000000000000000000000000000000000000008989886125b4565b9050611cc77f00000000000000000000000000000000000000000000000000000000000000008989848a6127c1565b600160fb1b945092505b50505b94509492505050565b604080516001600160a01b038481166024830152604480830185905283518084039091018152606490920183526020820180516001600160e01b031663a9059cbb60e01b17905291515f92839290871691611d389190613926565b5f604051808303815f865af19150503d805f8114611d71576040519150601f19603f3d011682016040523d82523d5f602084013e611d76565b606091505b5091509150818015611da0575080511580611da0575080806020019051810190611da0919061393c565b6107c75760405162461bcd60e51b815260206004820152600f60248201526e1514905394d1915497d19052531151608a1b604482015260640161048a565b5f825f03611dff57604051631f2a200560e01b815260040160405180910390fd5b604051636eb1769f60e11b81526001600160a01b0383811660048301523060248301525f919086169063dd62ed3e90604401602060405180830381865afa158015611e4c573d5f5f3e3d5ffd5b505050506040513d601f19601f82011682018060405250810190611e7091906137c2565b905083811015611e935760405163175936bd60e31b815260040160405180910390fd5b6040516370a0823160e01b81523060048201525f906001600160a01b038716906370a0823190602401602060405180830381865afa158015611ed7573d5f5f3e3d5ffd5b505050506040513d601f19601f82011682018060405250810190611efb91906137c2565b9050611f09868530886128eb565b6040516370a0823160e01b81523060048201525f906001600160a01b038816906370a0823190602401602060405180830381865afa158015611f4d573d5f5f3e3d5ffd5b505050506040513d601f19601f82011682018060405250810190611f7191906137c2565b90508181039350835f03611f985760405163b5c74a2760e01b815260040160405180910390fd5b5050509392505050565b5f6060845f03611fc357505060408051602081019091525f80825290611cd4565b6001600160a01b038616158061200a57507f00000000000000000000000000000000000000000000000000000000000000006001600160a01b0316866001600160a01b0316145b1561202857604051637401d93160e01b815260040160405180910390fd5b5f6120328761099e565b80519091506001600160a01b031661205d5760405163791c2fed60e01b815260040160405180910390fd5b5f816040015160ff166001036120d25761209e887f000000000000000000000000000000000000000000000000000000000000000084602001518a8961212d565b9050611c62887f000000000000000000000000000000000000000000000000000000000000000084602001518a858b6124bc565b6120fe887f000000000000000000000000000000000000000000000000000000000000000089886125b4565b9050611cc7887f000000000000000000000000000000000000000000000000000000000000000089848a6127c1565b5f825f0361213c57505f6124b3565b6001600160a01b038616158061215957506001600160a01b038516155b156121775760405163d92e233d60e01b815260040160405180910390fd5b6127108263ffffffff1611156121a05760405163124955fb60e01b815260040160405180910390fd5b604051630b4c774160e11b81526001600160a01b038781166004830152868116602483015262ffffff861660448301525f917f000000000000000000000000000000000000000000000000000000000000000090911690631698ee8290606401602060405180830381865afa15801561221b573d5f5f3e3d5ffd5b505050506040513d601f19601f8201168201806040525081019061223f9190613730565b90506001600160a01b0381166122685760405163791c2fed60e01b815260040160405180910390fd5b5f620f424061227c62ffffff8816826137ed565b6122869087613957565b612290919061396e565b9050805f036122b257604051636eed12ff60e01b815260040160405180910390fd5b5f6001600160801b0382116122c757816122d0565b6001600160801b035b604080516002808252606082018352929350600f925f928392919060208301908036833701905050905082815f8151811061230d5761230d613800565b602002602001019063ffffffff16908163ffffffff16815250505f8160018151811061233b5761233b613800565b63ffffffff9092166020928302919091019091015260405163883bdbfd60e01b81526001600160a01b0387169063883bdbfd9061237c908490600401613981565b5f60405180830381865afa9250505080156123b857506040513d5f823e601f3d908101601f191682016040526123b59190810190613a5e565b60015b61242d575f866001600160a01b0316633850c7bd6040518163ffffffff1660e01b815260040160e060405180830381865afa1580156123f9573d5f5f3e3d5ffd5b505050506040513d601f19601f8201168201806040525081019061241d9190613b28565b5093975061247095505050505050565b61246b825f8151811061244257612442613800565b60200260200101518360018151811061245d5761245d613800565b602002602001015187612a01565b935050505b505f61247e82858e8e612a1f565b9050805f036124a057604051636eed12ff60e01b815260040160405180910390fd5b6124aa8189612b2a565b96505050505050505b95945050505050565b60606124e9877f000000000000000000000000000000000000000000000000000000000000000086612b7b565b6125357f0000000000000000000000000000000000000000000000000000000000000000887f000000000000000000000000000000000000000000000000000000000000000087612c13565b604080516bffffffffffffffffffffffff1960608a811b821660208401526001600160e81b031960e88a901b16603484015289901b1660378201528151808203602b018152604b8201909252612598908490879087908590600190606b01613bca565b6040516020818303038152906040529150509695505050505050565b5f825f036125c357505f6127b9565b6001600160a01b03851615806125e057506001600160a01b038416155b156125fe5760405163d92e233d60e01b815260040160405180910390fd5b6127108263ffffffff1611156126275760405163124955fb60e01b815260040160405180910390fd5b6040805160028082526060820183525f9260208301908036833701905050905085815f8151811061265a5761265a613800565b60200260200101906001600160a01b031690816001600160a01b031681525050848160018151811061268e5761268e613800565b6001600160a01b03928316602091820292909201015260405163d06ca61f60e01b81526060917f0000000000000000000000000000000000000000000000000000000000000000169063d06ca61f906126ed9088908690600401613c4d565b5f60405180830381865afa92505050801561272957506040513d5f823e601f3d908101601f191682016040526127269190810190613c65565b60015b61274657604051636eed12ff60e01b815260040160405180910390fd5b905060028151101561276b57604051636eed12ff60e01b815260040160405180910390fd5b5f8160018151811061277f5761277f613800565b60200260200101519050805f036127a957604051636eed12ff60e01b815260040160405180910390fd5b6127b38186612b2a565b93505050505b949350505050565b60606127ee867f000000000000000000000000000000000000000000000000000000000000000086612b7b565b61283a7f0000000000000000000000000000000000000000000000000000000000000000877f000000000000000000000000000000000000000000000000000000000000000087612c13565b6040805160028082526060820183525f9260208301908036833701905050905086815f8151811061286d5761286d613800565b60200260200101906001600160a01b031690816001600160a01b03168152505085816001815181106128a1576128a1613800565b6001600160a01b039092166020928302919091018201526040516128d091859188918891869160019101613cf5565b60405160208183030381529060405291505095945050505050565b604080516001600160a01b0385811660248301528481166044830152606480830185905283518084039091018152608490920183526020820180516001600160e01b03166323b872dd60e01b17905291515f9283929088169161294e9190613926565b5f604051808303815f865af19150503d805f8114612987576040519150601f19603f3d011682016040523d82523d5f602084013e61298c565b606091505b50915091508180156129b65750805115806129b65750808060200190518101906129b6919061393c565b6129f95760405162461bcd60e51b81526020600482015260146024820152731514905394d1915497d19493d357d1905253115160621b604482015260640161048a565b505050505050565b5f612a15612a0f8585613d21565b83612d8b565b90505b9392505050565b5f5f612a2a86612e12565b90506001600160801b036001600160a01b03821611612aaf575f612a576001600160a01b03831680613957565b9050836001600160a01b0316856001600160a01b031610612a8f57612a8a600160c01b876001600160801b031683613225565b612aa7565b612aa781876001600160801b0316600160c01b613225565b925050612b21565b5f612acd6001600160a01b0383168068010000000000000000613225565b9050836001600160a01b0316856001600160a01b031610612b0557612b00600160801b876001600160801b031683613225565b612b1d565b612b1d81876001600160801b0316600160801b613225565b9250505b50949350505050565b5f6127108263ffffffff161115612b545760405163124955fb60e01b815260040160405180910390fd5b612710612b6763ffffffff8416826137ed565b612b719085613957565b612a18919061396e565b604051636eb1769f60e11b81523060048201526001600160a01b0383811660248301525f919085169063dd62ed3e90604401602060405180830381865afa158015612bc8573d5f5f3e3d5ffd5b505050506040513d601f19601f82011682018060405250810190612bec91906137c2565b9050818110156105f6578015612c0757612c0784845f61339e565b6105f684845f1961339e565b6001600160a01b0383161580612c3057506001600160a01b038216155b15612c4e57604051637401d93160e01b815260040160405180910390fd5b60405163927da10560e01b81523060048201526001600160a01b03848116602483015283811660448301525f91829187169063927da10590606401606060405180830381865afa158015612ca4573d5f5f3e3d5ffd5b505050506040513d601f19601f82011682018060405250810190612cc89190613d63565b5090925090506001600160a01b0380841690831610155f65ffffffffffff831615801590612cfe5750428365ffffffffffff1611155b9050811580612d0a5750805b15612d81576040516387517c4560e01b81526001600160a01b03888116600483015287811660248301526044820181905265ffffffffffff60648301528916906387517c45906084015f604051808303815f87803b158015612d6a575f5ffd5b505af1158015612d7c573d5f5f3e3d5ffd5b505050505b5050505050505050565b5f8163ffffffff165f03612dc65760405162461bcd60e51b8152602060048201526002602482015261042560f41b604482015260640161048a565b600382900b5f612dd68286613da5565b90505f612de38387613de1565b90508193505f8660060b128015612dfd57508060060b5f14155b15612e09576001840393505b50505092915050565b5f5f5f8360020b12612e27578260020b612e34565b8260020b612e3490613e02565b9050612e43620d89e719613e1c565b62ffffff16811115612e7b5760405162461bcd60e51b81526020600482015260016024820152601560fa1b604482015260640161048a565b5f816001165f03612e9057600160801b612ea2565b6ffffcb933bd6fad37aa2d162d1a5940015b70ffffffffffffffffffffffffffffffffff1690506002821615612ee1576080612edc826ffff97272373d413259a46990580e213a613957565b901c90505b6004821615612f0b576080612f06826ffff2e50f5f656932ef12357cf3c7fdcc613957565b901c90505b6008821615612f35576080612f30826fffe5caca7e10e4e61c3624eaa0941cd0613957565b901c90505b6010821615612f5f576080612f5a826fffcb9843d60f6159c9db58835c926644613957565b901c90505b6020821615612f89576080612f84826fff973b41fa98c081472e6896dfb254c0613957565b901c90505b6040821615612fb3576080612fae826fff2ea16466c96a3843ec78b326b52861613957565b901c90505b6080821615612fdd576080612fd8826ffe5dee046a99a2a811c461f1969c3053613957565b901c90505b610100821615613008576080613003826ffcbe86c7900a88aedcffc83b479aa3a4613957565b901c90505b61020082161561303357608061302e826ff987a7253ac413176f2b074cf7815e54613957565b901c90505b61040082161561305e576080613059826ff3392b0822b70005940c7a398e4b70f3613957565b901c90505b610800821615613089576080613084826fe7159475a2c29b7443b29c7fa6e889d9613957565b901c90505b6110008216156130b45760806130af826fd097f3bdfd2022b8845ad8f792aa5825613957565b901c90505b6120008216156130df5760806130da826fa9f746462d870fdf8a65dc1f90e061e5613957565b901c90505b61400082161561310a576080613105826f70d869a156d2a1b890bb3df62baf32f7613957565b901c90505b618000821615613135576080613130826f31be135f97d08fd981231505542fcfa6613957565b901c90505b6201000082161561316157608061315c826f09aa508b5b7a84e1c677de54f3e99bc9613957565b901c90505b6202000082161561318c576080613187826e5d6af8dedb81196699c329225ee604613957565b901c90505b620400008216156131b65760806131b1826d2216e584f5fa1ea926041bedfe98613957565b901c90505b620800008216156131de5760806131d9826b048a170391f7dc42444e8fa2613957565b901c90505b5f8460020b13156131f7576131f4815f1961396e565b90505b61320664010000000082613e3c565b15613212576001613214565b5f5b6127b99060ff16602083901c613e4f565b5f80805f19858709858702925082811083820303915050805f03613259575f841161324e575f5ffd5b508290049050612a18565b808411613264575f5ffd5b5f848688098084039381119092039190505f613281865f196137ed565b61328c906001613e4f565b8616958690049593849004935f8190030460010190506132ac8184613957565b909317925f6132bc876003613957565b60021890506132cb8188613957565b6132d69060026137ed565b6132e09082613957565b90506132ec8188613957565b6132f79060026137ed565b6133019082613957565b905061330d8188613957565b6133189060026137ed565b6133229082613957565b905061332e8188613957565b6133399060026137ed565b6133439082613957565b905061334f8188613957565b61335a9060026137ed565b6133649082613957565b90506133708188613957565b61337b9060026137ed565b6133859082613957565b90506133918186613957565b9998505050505050505050565b604080516001600160a01b038481166024830152604480830185905283518084039091018152606490920183526020820180516001600160e01b031663095ea7b360e01b17905291515f928392908716916133f99190613926565b5f604051808303815f865af19150503d805f8114613432576040519150601f19603f3d011682016040523d82523d5f602084013e613437565b606091505b5091509150818015613461575080511580613461575080806020019051810190613461919061393c565b6107c75760405162461bcd60e51b815260206004820152600e60248201526d1054141493d59157d1905253115160921b604482015260640161048a565b6001600160a01b038116811461099b575f5ffd5b5f5f604083850312156134c3575f5ffd5b82356134ce8161349e565b915060208301356134de8161349e565b809150509250929050565b5f5f83601f8401126134f9575f5ffd5b5081356001600160401b0381111561350f575f5ffd5b6020830191508360208260061b8501011115613529575f5ffd5b9250929050565b63ffffffff8116811461099b575f5ffd5b5f5f5f5f60608587031215613554575f5ffd5b84356001600160401b03811115613569575f5ffd5b613575878288016134e9565b90955093505060208501356135898161349e565b9150604085013561359981613530565b939692955090935050565b634e487b7160e01b5f52604160045260245ffd5b604051601f8201601f191681016001600160401b03811182821017156135e0576135e06135a4565b604052919050565b5f602082840312156135f8575f5ffd5b81356001600160401b0381111561360d575f5ffd5b8201601f8101841361361d575f5ffd5b80356001600160401b03811115613636576136366135a4565b613649601f8201601f19166020016135b8565b81815285602083850101111561365d575f5ffd5b816020840160208301375f91810160200191909152949350505050565b801515811461099b575f5ffd5b5f5f5f5f5f6080868803121561369b575f5ffd5b85356001600160401b038111156136b0575f5ffd5b6136bc888289016134e9565b90965094505060208601356136d08161349e565b925060408601356136e081613530565b915060608601356136f08161367a565b809150509295509295909350565b5f6020828403121561370e575f5ffd5b5035919050565b5f60208284031215613725575f5ffd5b8135612a188161349e565b5f60208284031215613740575f5ffd5b8151612a188161349e565b60208082526017908201527f43616c6c6572206973206e6f7420746865206f776e6572000000000000000000604082015260600190565b5f81518084528060208401602086015e5f602082860101526020601f19601f83011685010191505092915050565b602081525f612a186020830184613782565b5f602082840312156137d2575f5ffd5b5051919050565b634e487b7160e01b5f52601160045260245ffd5b8181038181111561066b5761066b6137d9565b634e487b7160e01b5f52603260045260245ffd5b61ffff8116811461099b575f5ffd5b5f60208284031215613833575f5ffd5b8135612a1881613814565b634e487b7160e01b5f52601260045260245ffd5b604081525f6138646040830185613782565b828103602084015280845180835260208301915060208160051b840101602087015f5b838110156138b957601f198684030185526138a3838351613782565b6020958601959093509190910190600101613887565b509098975050505050505050565b80516001600160701b03811681146138dd575f5ffd5b919050565b5f5f5f606084860312156138f4575f5ffd5b6138fd846138c7565b925061390b602085016138c7565b9150604084015161391b81613530565b809150509250925092565b5f82518060208501845e5f920191825250919050565b5f6020828403121561394c575f5ffd5b8151612a188161367a565b808202811582820484141761066b5761066b6137d9565b5f8261397c5761397c61383e565b500490565b602080825282518282018190525f918401906040840190835b818110156139be57835163ffffffff1683526020938401939092019160010161399a565b509095945050505050565b5f6001600160401b038211156139e1576139e16135a4565b5060051b60200190565b5f82601f8301126139fa575f5ffd5b8151613a0d613a08826139c9565b6135b8565b8082825260208201915060208360051b860101925085831115613a2e575f5ffd5b602085015b83811015613a54578051613a468161349e565b835260209283019201613a33565b5095945050505050565b5f5f60408385031215613a6f575f5ffd5b82516001600160401b03811115613a84575f5ffd5b8301601f81018513613a94575f5ffd5b8051613aa2613a08826139c9565b8082825260208201915060208360051b850101925087831115613ac3575f5ffd5b6020840193505b82841015613af35783518060060b8114613ae2575f5ffd5b825260209384019390910190613aca565b8095505050505060208301516001600160401b03811115613b12575f5ffd5b613b1e858286016139eb565b9150509250929050565b5f5f5f5f5f5f5f60e0888a031215613b3e575f5ffd5b8751613b498161349e565b8097505060208801518060020b8114613b60575f5ffd5b6040890151909650613b7181613814565b6060890151909550613b8281613814565b6080890151909450613b9381613814565b60a089015190935060ff81168114613ba9575f5ffd5b60c0890151909250613bba8161367a565b8091505092959891949750929550565b60018060a01b038616815284602082015283604082015260a060608201525f613bf660a0830185613782565b905082151560808301529695505050505050565b5f8151808452602084019350602083015f5b82811015613c435781516001600160a01b0316865260209586019590910190600101613c1c565b5093949350505050565b828152604060208201525f612a156040830184613c0a565b5f60208284031215613c75575f5ffd5b81516001600160401b03811115613c8a575f5ffd5b8201601f81018413613c9a575f5ffd5b8051613ca8613a08826139c9565b8082825260208201915060208360051b850101925086831115613cc9575f5ffd5b6020840193505b82841015613ceb578351825260209384019390910190613cd0565b9695505050505050565b60018060a01b038616815284602082015283604082015260a060608201525f613bf660a0830185613c0a565b600682810b9082900b03667fffffffffffff198112667fffffffffffff8213171561066b5761066b6137d9565b805165ffffffffffff811681146138dd575f5ffd5b5f5f5f60608486031215613d75575f5ffd5b8351613d808161349e565b9250613d8e60208501613d4e565b9150613d9c60408501613d4e565b90509250925092565b5f8160060b8360060b80613dbb57613dbb61383e565b667fffffffffffff1982145f1982141615613dd857613dd86137d9565b90059392505050565b5f8260060b80613df357613df361383e565b808360060b0791505092915050565b5f600160ff1b8201613e1657613e166137d9565b505f0390565b5f8160020b627fffff198103613e3457613e346137d9565b5f0392915050565b5f82613e4a57613e4a61383e565b500690565b8082018082111561066b5761066b6137d956fea264697066735822122013426644d7b7be60617892d48912d91a617c5cdcfdb2885092838863d9c80d5764736f6c634300081e0033",
			"opcodes": "PUSH2 0x140 PUSH1 0x40 MSTORE PUSH2 0x5460 PUSH1 0x2 SSTORE CALLVALUE DUP1 ISZERO PUSH2 0x16 JUMPI PUSH0 PUSH0 REVERT JUMPDEST POP PUSH1 0x40 MLOAD PUSH2 0x43D2 CODESIZE SUB DUP1 PUSH2 0x43D2 DUP4 CODECOPY DUP2 ADD PUSH1 0x40 DUP2 SWAP1 MSTORE PUSH2 0x35 SWAP2 PUSH2 0x3AE JUMP JUMPDEST DUP5 DUP5 DUP5 DUP5 DUP5 PUSH1 0x1 PUSH1 0x1 PUSH1 0xA0 SHL SUB DUP4 AND PUSH2 0x61 JUMPI PUSH1 0x40 MLOAD PUSH4 0xD92E233D PUSH1 0xE0 SHL DUP2 MSTORE PUSH1 0x4 ADD PUSH1 0x40 MLOAD DUP1 SWAP2 SUB SWAP1 REVERT JUMPDEST PUSH1 0x1 PUSH1 0x1 PUSH1 0xA0 SHL SUB DUP5 AND PUSH2 0x88 JUMPI PUSH1 0x40 MLOAD PUSH4 0xD92E233D PUSH1 0xE0 SHL DUP2 MSTORE PUSH1 0x4 ADD PUSH1 0x40 MLOAD DUP1 SWAP2 SUB SWAP1 REVERT JUMPDEST PUSH1 0x1 PUSH1 0x1 PUSH1 0xA0 SHL SUB DUP3 AND PUSH2 0xAF JUMPI PUSH1 0x40 MLOAD PUSH4 0xD92E233D PUSH1 0xE0 SHL DUP2 MSTORE PUSH1 0x4 ADD PUSH1 0x40 MLOAD DUP1 SWAP2 SUB SWAP1 REVERT JUMPDEST PUSH1 0x1 PUSH1 0x1 PUSH1 0xA0 SHL SUB DUP2 AND PUSH2 0xD6 JUMPI PUSH1 0x40 MLOAD PUSH4 0xD92E233D PUSH1 0xE0 SHL DUP2 MSTORE PUSH1 0x4 ADD PUSH1 0x40 MLOAD DUP1 SWAP2 SUB SWAP1 REVERT JUMPDEST PUSH1 0x1 PUSH1 0x1 PUSH1 0xA0 SHL SUB DUP1 DUP5 AND PUSH1 0xE0 MSTORE DUP5 DUP2 AND PUSH2 0x100 DUP2 SWAP1 MSTORE SWAP1 DUP4 AND PUSH2 0x120 MSTORE PUSH1 0x40 DUP1 MLOAD PUSH4 0x15AB88C9 PUSH1 0xE3 SHL DUP2 MSTORE SWAP1 MLOAD PUSH0 SWAP3 SWAP2 PUSH4 0xAD5C4648 SWAP2 PUSH1 0x4 DUP1 DUP4 ADD SWAP3 PUSH1 0x20 SWAP3 SWAP2 SWAP1 DUP3 SWAP1 SUB ADD DUP2 DUP7 GAS STATICCALL ISZERO DUP1 ISZERO PUSH2 0x12F JUMPI RETURNDATASIZE PUSH0 PUSH0 RETURNDATACOPY RETURNDATASIZE PUSH0 REVERT JUMPDEST POP POP POP POP PUSH1 0x40 MLOAD RETURNDATASIZE PUSH1 0x1F NOT PUSH1 0x1F DUP3 ADD AND DUP3 ADD DUP1 PUSH1 0x40 MSTORE POP DUP2 ADD SWAP1 PUSH2 0x153 SWAP2 SWAP1 PUSH2 0x40F JUMP JUMPDEST SWAP1 POP DUP1 PUSH1 0x1 PUSH1 0x1 PUSH1 0xA0 SHL SUB AND PUSH1 0x80 DUP2 PUSH1 0x1 PUSH1 0x1 PUSH1 0xA0 SHL SUB AND DUP2 MSTORE POP POP DUP5 PUSH1 0x1 PUSH1 0x1 PUSH1 0xA0 SHL SUB AND PUSH4 0xC45A0155 PUSH1 0x40 MLOAD DUP2 PUSH4 0xFFFFFFFF AND PUSH1 0xE0 SHL DUP2 MSTORE PUSH1 0x4 ADD PUSH1 0x20 PUSH1 0x40 MLOAD DUP1 DUP4 SUB DUP2 DUP7 GAS STATICCALL ISZERO DUP1 ISZERO PUSH2 0x1AB JUMPI RETURNDATASIZE PUSH0 PUSH0 RETURNDATACOPY RETURNDATASIZE PUSH0 REVERT JUMPDEST POP POP POP POP PUSH1 0x40 MLOAD RETURNDATASIZE PUSH1 0x1F NOT PUSH1 0x1F DUP3 ADD AND DUP3 ADD DUP1 PUSH1 0x40 MSTORE POP DUP2 ADD SWAP1 PUSH2 0x1CF SWAP2 SWAP1 PUSH2 0x40F JUMP JUMPDEST PUSH1 0x1 PUSH1 0x1 PUSH1 0xA0 SHL SUB SWAP1 DUP2 AND PUSH1 0xC0 MSTORE SWAP2 SWAP1 SWAP2 AND PUSH1 0xA0 MSTORE POP PUSH2 0x1F3 SWAP3 POP DUP4 SWAP2 POP POP PUSH2 0x204 JUMP JUMPDEST POP POP PUSH1 0x1 PUSH1 0x3 SSTORE POP PUSH2 0x42F SWAP3 POP POP POP JUMP JUMPDEST PUSH1 0x1 PUSH1 0x1 PUSH1 0xA0 SHL SUB DUP2 AND PUSH2 0x25F JUMPI PUSH1 0x40 MLOAD PUSH3 0x461BCD PUSH1 0xE5 SHL DUP2 MSTORE PUSH1 0x20 PUSH1 0x4 DUP3 ADD DUP2 SWAP1 MSTORE PUSH1 0x24 DUP3 ADD MSTORE PUSH32 0x4469726563746F72792063616E6E6F74206265207A65726F2061646472657373 PUSH1 0x44 DUP3 ADD MSTORE PUSH1 0x64 ADD JUMPDEST PUSH1 0x40 MLOAD DUP1 SWAP2 SUB SWAP1 REVERT JUMPDEST PUSH0 DUP2 PUSH1 0x1 PUSH1 0x1 PUSH1 0xA0 SHL SUB AND EXTCODESIZE GT PUSH2 0x2B8 JUMPI PUSH1 0x40 MLOAD PUSH3 0x461BCD PUSH1 0xE5 SHL DUP2 MSTORE PUSH1 0x20 PUSH1 0x4 DUP3 ADD MSTORE PUSH1 0x1C PUSH1 0x24 DUP3 ADD MSTORE PUSH32 0x4469726563746F7279206D757374206265206120636F6E747261637400000000 PUSH1 0x44 DUP3 ADD MSTORE PUSH1 0x64 ADD PUSH2 0x256 JUMP JUMPDEST DUP1 PUSH1 0x1 PUSH1 0x1 PUSH1 0xA0 SHL SUB AND PUSH4 0x8DA5CB5B PUSH1 0x40 MLOAD DUP2 PUSH4 0xFFFFFFFF AND PUSH1 0xE0 SHL DUP2 MSTORE PUSH1 0x4 ADD PUSH1 0x20 PUSH1 0x40 MLOAD DUP1 DUP4 SUB DUP2 DUP7 GAS STATICCALL SWAP3 POP POP POP DUP1 ISZERO PUSH2 0x312 JUMPI POP PUSH1 0x40 DUP1 MLOAD PUSH1 0x1F RETURNDATASIZE SWAP1 DUP2 ADD PUSH1 0x1F NOT AND DUP3 ADD SWAP1 SWAP3 MSTORE PUSH2 0x30F SWAP2 DUP2 ADD SWAP1 PUSH2 0x40F JUMP JUMPDEST PUSH1 0x1 JUMPDEST PUSH2 0x373 JUMPI PUSH1 0x40 MLOAD PUSH3 0x461BCD PUSH1 0xE5 SHL DUP2 MSTORE PUSH1 0x20 PUSH1 0x4 DUP3 ADD MSTORE PUSH1 0x2C PUSH1 0x24 DUP3 ADD MSTORE PUSH32 0x4469726563746F7279206164647265737320646F6573206E6F7420696D706C65 PUSH1 0x44 DUP3 ADD MSTORE PUSH12 0x6D656E74206F776E65722829 PUSH1 0xA0 SHL PUSH1 0x64 DUP3 ADD MSTORE PUSH1 0x84 ADD PUSH2 0x256 JUMP JUMPDEST POP PUSH0 DUP1 SLOAD PUSH1 0x1 PUSH1 0x1 PUSH1 0xA0 SHL SUB DUP4 AND PUSH1 0x1 PUSH1 0x1 PUSH1 0xA0 SHL SUB NOT SWAP1 SWAP2 AND OR SWAP1 SSTORE POP JUMP JUMPDEST DUP1 MLOAD PUSH1 0x1 PUSH1 0x1 PUSH1 0xA0 SHL SUB DUP2 AND DUP2 EQ PUSH2 0x3A9 JUMPI PUSH0 PUSH0 REVERT JUMPDEST SWAP2 SWAP1 POP JUMP JUMPDEST PUSH0 PUSH0 PUSH0 PUSH0 PUSH0 PUSH1 0xA0 DUP7 DUP9 SUB SLT ISZERO PUSH2 0x3C2 JUMPI PUSH0 PUSH0 REVERT JUMPDEST PUSH2 0x3CB DUP7 PUSH2 0x393 JUMP JUMPDEST SWAP5 POP PUSH2 0x3D9 PUSH1 0x20 DUP8 ADD PUSH2 0x393 JUMP JUMPDEST SWAP4 POP PUSH2 0x3E7 PUSH1 0x40 DUP8 ADD PUSH2 0x393 JUMP JUMPDEST SWAP3 POP PUSH2 0x3F5 PUSH1 0x60 DUP8 ADD PUSH2 0x393 JUMP JUMPDEST SWAP2 POP PUSH2 0x403 PUSH1 0x80 DUP8 ADD PUSH2 0x393 JUMP JUMPDEST SWAP1 POP SWAP3 SWAP6 POP SWAP3 SWAP6 SWAP1 SWAP4 POP JUMP JUMPDEST PUSH0 PUSH1 0x20 DUP3 DUP5 SUB SLT ISZERO PUSH2 0x41F JUMPI PUSH0 PUSH0 REVERT JUMPDEST PUSH2 0x428 DUP3 PUSH2 0x393 JUMP JUMPDEST SWAP4 SWAP3 POP POP POP JUMP JUMPDEST PUSH1 0x80 MLOAD PUSH1 0xA0 MLOAD PUSH1 0xC0 MLOAD PUSH1 0xE0 MLOAD PUSH2 0x100 MLOAD PUSH2 0x120 MLOAD PUSH2 0x3E98 PUSH2 0x53A PUSH0 CODECOPY PUSH0 DUP2 DUP2 PUSH2 0x231 ADD MSTORE DUP2 DUP2 PUSH2 0x108C ADD MSTORE DUP2 DUP2 PUSH2 0x2510 ADD MSTORE PUSH2 0x2815 ADD MSTORE PUSH0 DUP2 DUP2 PUSH2 0x3A6 ADD MSTORE PUSH2 0x26B6 ADD MSTORE PUSH0 DUP2 DUP2 PUSH2 0x282 ADD MSTORE DUP2 DUP2 PUSH2 0x19CD ADD MSTORE PUSH2 0x21D4 ADD MSTORE PUSH0 DUP2 DUP2 PUSH2 0x2E8 ADD MSTORE PUSH2 0x17D4 ADD MSTORE PUSH0 DUP2 DUP2 PUSH2 0x13A ADD MSTORE DUP2 DUP2 PUSH2 0x24C4 ADD MSTORE DUP2 DUP2 PUSH2 0x24EE ADD MSTORE DUP2 DUP2 PUSH2 0x27C9 ADD MSTORE PUSH2 0x27F3 ADD MSTORE PUSH0 DUP2 DUP2 PUSH2 0x1FE ADD MSTORE DUP2 DUP2 PUSH2 0x564 ADD MSTORE DUP2 DUP2 PUSH2 0x5AF ADD MSTORE DUP2 DUP2 PUSH2 0x6FD ADD MSTORE DUP2 DUP2 PUSH2 0x795 ADD MSTORE DUP2 DUP2 PUSH2 0xD05 ADD MSTORE DUP2 DUP2 PUSH2 0x11E0 ADD MSTORE DUP2 DUP2 PUSH2 0x1735 ADD MSTORE DUP2 DUP2 PUSH2 0x17A4 ADD MSTORE DUP2 DUP2 PUSH2 0x1C02 ADD MSTORE DUP2 DUP2 PUSH2 0x1C35 ADD MSTORE DUP2 DUP2 PUSH2 0x1C71 ADD MSTORE DUP2 DUP2 PUSH2 0x1C9F ADD MSTORE DUP2 DUP2 PUSH2 0x1FD6 ADD MSTORE DUP2 DUP2 PUSH2 0x2073 ADD MSTORE DUP2 DUP2 PUSH2 0x20A6 ADD MSTORE DUP2 DUP2 PUSH2 0x20D8 ADD MSTORE PUSH2 0x2106 ADD MSTORE PUSH2 0x3E98 PUSH0 RETURN INVALID PUSH1 0x80 PUSH1 0x40 MSTORE PUSH1 0x4 CALLDATASIZE LT PUSH2 0xFD JUMPI PUSH0 CALLDATALOAD PUSH1 0xE0 SHR DUP1 PUSH4 0x658A847A GT PUSH2 0x92 JUMPI DUP1 PUSH4 0xB4B57C39 GT PUSH2 0x62 JUMPI DUP1 PUSH4 0xB4B57C39 EQ PUSH2 0x2D7 JUMPI DUP1 PUSH4 0xBA4C7BE1 EQ PUSH2 0x30A JUMPI DUP1 PUSH4 0xD32563C8 EQ PUSH2 0x329 JUMPI DUP1 PUSH4 0xDEADBC14 EQ PUSH2 0x395 JUMPI DUP1 PUSH4 0xDF697CC4 EQ PUSH2 0x3C8 JUMPI PUSH0 PUSH0 REVERT JUMPDEST DUP1 PUSH4 0x658A847A EQ PUSH2 0x253 JUMPI DUP1 PUSH4 0x7C887C59 EQ PUSH2 0x271 JUMPI DUP1 PUSH4 0x8DA5CB5B EQ PUSH2 0x2A4 JUMPI DUP1 PUSH4 0xA7590163 EQ PUSH2 0x2B8 JUMPI PUSH0 PUSH0 REVERT JUMPDEST DUP1 PUSH4 0x3814BC6E GT PUSH2 0xCD JUMPI DUP1 PUSH4 0x3814BC6E EQ PUSH2 0x1AB JUMPI DUP1 PUSH4 0x38B88052 EQ PUSH2 0x1CA JUMPI DUP1 PUSH4 0x4F0E0EF3 EQ PUSH2 0x1ED JUMPI DUP1 PUSH4 0x5CF39049 EQ PUSH2 0x220 JUMPI PUSH0 PUSH0 REVERT JUMPDEST DUP1 PUSH4 0x9053AC4 EQ PUSH2 0x108 JUMPI DUP1 PUSH4 0x12261EE7 EQ PUSH2 0x129 JUMPI DUP1 PUSH4 0x1623306B EQ PUSH2 0x179 JUMPI DUP1 PUSH4 0x27262618 EQ PUSH2 0x18C JUMPI PUSH0 PUSH0 REVERT JUMPDEST CALLDATASIZE PUSH2 0x104 JUMPI STOP JUMPDEST PUSH0 PUSH0 REVERT JUMPDEST CALLVALUE DUP1 ISZERO PUSH2 0x113 JUMPI PUSH0 PUSH0 REVERT JUMPDEST POP PUSH2 0x127 PUSH2 0x122 CALLDATASIZE PUSH1 0x4 PUSH2 0x34B2 JUMP JUMPDEST PUSH2 0x3E7 JUMP JUMPDEST STOP JUMPDEST CALLVALUE DUP1 ISZERO PUSH2 0x134 JUMPI PUSH0 PUSH0 REVERT JUMPDEST POP PUSH2 0x15C PUSH32 0x0 DUP2 JUMP JUMPDEST PUSH1 0x40 MLOAD PUSH1 0x1 PUSH1 0x1 PUSH1 0xA0 SHL SUB SWAP1 SWAP2 AND DUP2 MSTORE PUSH1 0x20 ADD JUMPDEST PUSH1 0x40 MLOAD DUP1 SWAP2 SUB SWAP1 RETURN JUMPDEST PUSH2 0x127 PUSH2 0x187 CALLDATASIZE PUSH1 0x4 PUSH2 0x3541 JUMP JUMPDEST PUSH2 0x4A1 JUMP JUMPDEST CALLVALUE DUP1 ISZERO PUSH2 0x197 JUMPI PUSH0 PUSH0 REVERT JUMPDEST POP PUSH2 0x15C PUSH2 0x1A6 CALLDATASIZE PUSH1 0x4 PUSH2 0x35E8 JUMP JUMPDEST PUSH2 0x5FC JUMP JUMPDEST CALLVALUE DUP1 ISZERO PUSH2 0x1B6 JUMPI PUSH0 PUSH0 REVERT JUMPDEST POP PUSH2 0x127 PUSH2 0x1C5 CALLDATASIZE PUSH1 0x4 PUSH2 0x3687 JUMP JUMPDEST PUSH2 0x671 JUMP JUMPDEST CALLVALUE DUP1 ISZERO PUSH2 0x1D5 JUMPI PUSH0 PUSH0 REVERT JUMPDEST POP PUSH2 0x1DF PUSH1 0x2 SLOAD DUP2 JUMP JUMPDEST PUSH1 0x40 MLOAD SWAP1 DUP2 MSTORE PUSH1 0x20 ADD PUSH2 0x170 JUMP JUMPDEST CALLVALUE DUP1 ISZERO PUSH2 0x1F8 JUMPI PUSH0 PUSH0 REVERT JUMPDEST POP PUSH2 0x15C PUSH32 0x0 DUP2 JUMP JUMPDEST CALLVALUE DUP1 ISZERO PUSH2 0x22B JUMPI PUSH0 PUSH0 REVERT JUMPDEST POP PUSH2 0x15C PUSH32 0x0 DUP2 JUMP JUMPDEST CALLVALUE DUP1 ISZERO PUSH2 0x25E JUMPI PUSH0 PUSH0 REVERT JUMPDEST POP PUSH0 SLOAD PUSH2 0x15C SWAP1 PUSH1 0x1 PUSH1 0x1 PUSH1 0xA0 SHL SUB AND DUP2 JUMP JUMPDEST CALLVALUE DUP1 ISZERO PUSH2 0x27C JUMPI PUSH0 PUSH0 REVERT JUMPDEST POP PUSH2 0x15C PUSH32 0x0 DUP2 JUMP JUMPDEST CALLVALUE DUP1 ISZERO PUSH2 0x2AF JUMPI PUSH0 PUSH0 REVERT JUMPDEST POP PUSH2 0x15C PUSH2 0x7CE JUMP JUMPDEST CALLVALUE DUP1 ISZERO PUSH2 0x2C3 JUMPI PUSH0 PUSH0 REVERT JUMPDEST POP PUSH2 0x127 PUSH2 0x2D2 CALLDATASIZE PUSH1 0x4 PUSH2 0x36FE JUMP JUMPDEST PUSH2 0x847 JUMP JUMPDEST CALLVALUE DUP1 ISZERO PUSH2 0x2E2 JUMPI PUSH0 PUSH0 REVERT JUMPDEST POP PUSH2 0x15C PUSH32 0x0 DUP2 JUMP JUMPDEST CALLVALUE DUP1 ISZERO PUSH2 0x315 JUMPI PUSH0 PUSH0 REVERT JUMPDEST POP PUSH2 0x127 PUSH2 0x324 CALLDATASIZE PUSH1 0x4 PUSH2 0x3715 JUMP JUMPDEST PUSH2 0x8EF JUMP JUMPDEST CALLVALUE DUP1 ISZERO PUSH2 0x334 JUMPI PUSH0 PUSH0 REVERT JUMPDEST POP PUSH2 0x348 PUSH2 0x343 CALLDATASIZE PUSH1 0x4 PUSH2 0x3715 JUMP JUMPDEST PUSH2 0x99E JUMP JUMPDEST PUSH1 0x40 MLOAD PUSH2 0x170 SWAP2 SWAP1 DUP2 MLOAD PUSH1 0x1 PUSH1 0x1 PUSH1 0xA0 SHL SUB AND DUP2 MSTORE PUSH1 0x20 DUP1 DUP4 ADD MLOAD PUSH3 0xFFFFFF AND SWAP1 DUP3 ADD MSTORE PUSH1 0x40 DUP1 DUP4 ADD MLOAD PUSH1 0xFF AND SWAP1 DUP3 ADD MSTORE PUSH1 0x60 SWAP2 DUP3 ADD MLOAD PUSH1 0x1 PUSH1 0x1 PUSH1 0x40 SHL SUB AND SWAP2 DUP2 ADD SWAP2 SWAP1 SWAP2 MSTORE PUSH1 0x80 ADD SWAP1 JUMP JUMPDEST CALLVALUE DUP1 ISZERO PUSH2 0x3A0 JUMPI PUSH0 PUSH0 REVERT JUMPDEST POP PUSH2 0x15C PUSH32 0x0 DUP2 JUMP JUMPDEST CALLVALUE DUP1 ISZERO PUSH2 0x3D3 JUMPI PUSH0 PUSH0 REVERT JUMPDEST POP PUSH2 0x348 PUSH2 0x3E2 CALLDATASIZE PUSH1 0x4 PUSH2 0x3715 JUMP JUMPDEST PUSH2 0xBD4 JUMP JUMPDEST PUSH0 PUSH0 SWAP1 SLOAD SWAP1 PUSH2 0x100 EXP SWAP1 DIV PUSH1 0x1 PUSH1 0x1 PUSH1 0xA0 SHL SUB AND PUSH1 0x1 PUSH1 0x1 PUSH1 0xA0 SHL SUB AND PUSH4 0x8DA5CB5B PUSH1 0x40 MLOAD DUP2 PUSH4 0xFFFFFFFF AND PUSH1 0xE0 SHL DUP2 MSTORE PUSH1 0x4 ADD PUSH1 0x20 PUSH1 0x40 MLOAD DUP1 DUP4 SUB DUP2 DUP7 GAS STATICCALL ISZERO DUP1 ISZERO PUSH2 0x436 JUMPI RETURNDATASIZE PUSH0 PUSH0 RETURNDATACOPY RETURNDATASIZE PUSH0 REVERT JUMPDEST POP POP POP POP PUSH1 0x40 MLOAD RETURNDATASIZE PUSH1 0x1F NOT PUSH1 0x1F DUP3 ADD AND DUP3 ADD DUP1 PUSH1 0x40 MSTORE POP DUP2 ADD SWAP1 PUSH2 0x45A SWAP2 SWAP1 PUSH2 0x3730 JUMP JUMPDEST PUSH1 0x1 PUSH1 0x1 PUSH1 0xA0 SHL SUB AND CALLER PUSH1 0x1 PUSH1 0x1 PUSH1 0xA0 SHL SUB AND EQ PUSH2 0x493 JUMPI PUSH1 0x40 MLOAD PUSH3 0x461BCD PUSH1 0xE5 SHL DUP2 MSTORE PUSH1 0x4 ADD PUSH2 0x48A SWAP1 PUSH2 0x374B JUMP JUMPDEST PUSH1 0x40 MLOAD DUP1 SWAP2 SUB SWAP1 REVERT JUMPDEST PUSH2 0x49D DUP3 DUP3 PUSH2 0xC6B JUMP JUMPDEST POP POP JUMP JUMPDEST PUSH2 0x4A9 PUSH2 0xC75 JUMP JUMPDEST PUSH1 0x1 PUSH1 0x1 PUSH1 0xA0 SHL SUB DUP3 AND PUSH2 0x4D0 JUMPI PUSH1 0x40 MLOAD PUSH4 0xD92E233D PUSH1 0xE0 SHL DUP2 MSTORE PUSH1 0x4 ADD PUSH1 0x40 MLOAD DUP1 SWAP2 SUB SWAP1 REVERT JUMPDEST CALLVALUE PUSH0 DUP5 SWAP1 SUB PUSH2 0x4F2 JUMPI PUSH1 0x40 MLOAD PUSH4 0xB4FA3FB3 PUSH1 0xE0 SHL DUP2 MSTORE PUSH1 0x4 ADD PUSH1 0x40 MLOAD DUP1 SWAP2 SUB SWAP1 REVERT JUMPDEST DUP1 PUSH0 SUB PUSH2 0x512 JUMPI PUSH1 0x40 MLOAD PUSH4 0xB4FA3FB3 PUSH1 0xE0 SHL DUP2 MSTORE PUSH1 0x4 ADD PUSH1 0x40 MLOAD DUP1 SWAP2 SUB SWAP1 REVERT JUMPDEST PUSH0 PUSH2 0x520 DUP7 DUP7 DUP7 DUP7 DUP7 PUSH2 0xCCE JUMP JUMPDEST PUSH1 0x80 DUP2 ADD MLOAD SWAP1 SWAP2 POP DUP1 ISZERO DUP1 PUSH2 0x536 JUMPI POP PUSH2 0x2710 DUP2 GT JUMPDEST ISZERO PUSH2 0x554 JUMPI PUSH1 0x40 MLOAD PUSH4 0x124955FB PUSH1 0xE0 SHL DUP2 MSTORE PUSH1 0x4 ADD PUSH1 0x40 MLOAD DUP1 SWAP2 SUB SWAP1 REVERT JUMPDEST PUSH1 0x60 DUP3 ADD MLOAD DUP1 ISZERO PUSH2 0x589 JUMPI PUSH2 0x589 PUSH32 0x0 DUP3 PUSH2 0xF39 JUMP JUMPDEST PUSH2 0x59F DUP4 PUSH0 ADD MLOAD DUP5 PUSH1 0x20 ADD MLOAD DUP6 PUSH1 0x40 ADD MLOAD PUSH2 0xFAE JUMP JUMPDEST PUSH1 0xA0 DUP4 ADD MLOAD DUP1 ISZERO PUSH2 0x5D5 JUMPI PUSH2 0x5D5 PUSH32 0x0 DUP9 DUP4 PUSH2 0x10DA JUMP JUMPDEST SELFBALANCE DUP1 ISZERO PUSH2 0x5E6 JUMPI PUSH2 0x5E6 CALLER DUP3 PUSH2 0x110A JUMP JUMPDEST POP POP POP POP POP POP PUSH2 0x5F6 PUSH1 0x1 PUSH1 0x3 SSTORE JUMP JUMPDEST POP POP POP POP JUMP JUMPDEST PUSH0 DUP1 SLOAD PUSH1 0x40 MLOAD PUSH4 0x4E4C4C3 PUSH1 0xE3 SHL DUP2 MSTORE PUSH1 0x1 PUSH1 0x1 PUSH1 0xA0 SHL SUB SWAP1 SWAP2 AND SWAP1 PUSH4 0x27262618 SWAP1 PUSH2 0x62C SWAP1 DUP6 SWAP1 PUSH1 0x4 ADD PUSH2 0x37B0 JUMP JUMPDEST PUSH1 0x20 PUSH1 0x40 MLOAD DUP1 DUP4 SUB DUP2 DUP7 GAS STATICCALL ISZERO DUP1 ISZERO PUSH2 0x647 JUMPI RETURNDATASIZE PUSH0 PUSH0 RETURNDATACOPY RETURNDATASIZE PUSH0 REVERT JUMPDEST POP POP POP POP PUSH1 0x40 MLOAD RETURNDATASIZE PUSH1 0x1F NOT PUSH1 0x1F DUP3 ADD AND DUP3 ADD DUP1 PUSH1 0x40 MSTORE POP DUP2 ADD SWAP1 PUSH2 0x66B SWAP2 SWAP1 PUSH2 0x3730 JUMP JUMPDEST SWAP3 SWAP2 POP POP JUMP JUMPDEST PUSH2 0x679 PUSH2 0xC75 JUMP JUMPDEST PUSH1 0x1 PUSH1 0x1 PUSH1 0xA0 SHL SUB DUP4 AND PUSH2 0x6A0 JUMPI PUSH1 0x40 MLOAD PUSH4 0xD92E233D PUSH1 0xE0 SHL DUP2 MSTORE PUSH1 0x4 ADD PUSH1 0x40 MLOAD DUP1 SWAP2 SUB SWAP1 REVERT JUMPDEST PUSH0 DUP5 SWAP1 SUB PUSH2 0x6C1 JUMPI PUSH1 0x40 MLOAD PUSH4 0xB4FA3FB3 PUSH1 0xE0 SHL DUP2 MSTORE PUSH1 0x4 ADD PUSH1 0x40 MLOAD DUP1 SWAP2 SUB SWAP1 REVERT JUMPDEST PUSH0 PUSH2 0x6CE DUP7 DUP7 DUP6 DUP6 PUSH2 0x11BB JUMP JUMPDEST SWAP1 POP PUSH2 0x6E6 DUP2 PUSH0 ADD MLOAD DUP3 PUSH1 0x20 ADD MLOAD DUP4 PUSH1 0x40 ADD MLOAD PUSH2 0xFAE JUMP JUMPDEST PUSH1 0x40 MLOAD PUSH4 0x70A08231 PUSH1 0xE0 SHL DUP2 MSTORE ADDRESS PUSH1 0x4 DUP3 ADD MSTORE PUSH0 SWAP1 PUSH32 0x0 PUSH1 0x1 PUSH1 0x1 PUSH1 0xA0 SHL SUB AND SWAP1 PUSH4 0x70A08231 SWAP1 PUSH1 0x24 ADD PUSH1 0x20 PUSH1 0x40 MLOAD DUP1 DUP4 SUB DUP2 DUP7 GAS STATICCALL ISZERO DUP1 ISZERO PUSH2 0x74A JUMPI RETURNDATASIZE PUSH0 PUSH0 RETURNDATACOPY RETURNDATASIZE PUSH0 REVERT JUMPDEST POP POP POP POP PUSH1 0x40 MLOAD RETURNDATASIZE PUSH1 0x1F NOT PUSH1 0x1F DUP3 ADD AND DUP3 ADD DUP1 PUSH1 0x40 MSTORE POP DUP2 ADD SWAP1 PUSH2 0x76E SWAP2 SWAP1 PUSH2 0x37C2 JUMP JUMPDEST SWAP1 POP DUP1 PUSH0 SUB PUSH2 0x790 JUMPI PUSH1 0x40 MLOAD PUSH4 0x55FF99AD PUSH1 0xE1 SHL DUP2 MSTORE PUSH1 0x4 ADD PUSH1 0x40 MLOAD DUP1 SWAP2 SUB SWAP1 REVERT JUMPDEST PUSH2 0x7BB PUSH32 0x0 DUP3 DUP8 PUSH2 0x149A JUMP JUMPDEST POP POP PUSH2 0x7C7 PUSH1 0x1 PUSH1 0x3 SSTORE JUMP JUMPDEST POP POP POP POP POP JUMP JUMPDEST PUSH0 PUSH0 PUSH0 SWAP1 SLOAD SWAP1 PUSH2 0x100 EXP SWAP1 DIV PUSH1 0x1 PUSH1 0x1 PUSH1 0xA0 SHL SUB AND PUSH1 0x1 PUSH1 0x1 PUSH1 0xA0 SHL SUB AND PUSH4 0x8DA5CB5B PUSH1 0x40 MLOAD DUP2 PUSH4 0xFFFFFFFF AND PUSH1 0xE0 SHL DUP2 MSTORE PUSH1 0x4 ADD PUSH1 0x20 PUSH1 0x40 MLOAD DUP1 DUP4 SUB DUP2 DUP7 GAS STATICCALL ISZERO DUP1 ISZERO PUSH2 0x81E JUMPI RETURNDATASIZE PUSH0 PUSH0 RETURNDATACOPY RETURNDATASIZE PUSH0 REVERT JUMPDEST POP POP POP POP PUSH1 0x40 MLOAD RETURNDATASIZE PUSH1 0x1F NOT PUSH1 0x1F DUP3 ADD AND DUP3 ADD DUP1 PUSH1 0x40 MSTORE POP DUP2 ADD SWAP1 PUSH2 0x842 SWAP2 SWAP1 PUSH2 0x3730 JUMP JUMPDEST SWAP1 POP SWAP1 JUMP JUMPDEST PUSH0 PUSH0 SWAP1 SLOAD SWAP1 PUSH2 0x100 EXP SWAP1 DIV PUSH1 0x1 PUSH1 0x1 PUSH1 0xA0 SHL SUB AND PUSH1 0x1 PUSH1 0x1 PUSH1 0xA0 SHL SUB AND PUSH4 0x8DA5CB5B PUSH1 0x40 MLOAD DUP2 PUSH4 0xFFFFFFFF AND PUSH1 0xE0 SHL DUP2 MSTORE PUSH1 0x4 ADD PUSH1 0x20 PUSH1 0x40 MLOAD DUP1 DUP4 SUB DUP2 DUP7 GAS STATICCALL ISZERO DUP1 ISZERO PUSH2 0x896 JUMPI RETURNDATASIZE PUSH0 PUSH0 RETURNDATACOPY RETURNDATASIZE PUSH0 REVERT JUMPDEST POP POP POP POP PUSH1 0x40 MLOAD RETURNDATASIZE PUSH1 0x1F NOT PUSH1 0x1F DUP3 ADD AND DUP3 ADD DUP1 PUSH1 0x40 MSTORE POP DUP2 ADD SWAP1 PUSH2 0x8BA SWAP2 SWAP1 PUSH2 0x3730 JUMP JUMPDEST PUSH1 0x1 PUSH1 0x1 PUSH1 0xA0 SHL SUB AND CALLER PUSH1 0x1 PUSH1 0x1 PUSH1 0xA0 SHL SUB AND EQ PUSH2 0x8EA JUMPI PUSH1 0x40 MLOAD PUSH3 0x461BCD PUSH1 0xE5 SHL DUP2 MSTORE PUSH1 0x4 ADD PUSH2 0x48A SWAP1 PUSH2 0x374B JUMP JUMPDEST PUSH1 0x2 SSTORE JUMP JUMPDEST PUSH0 PUSH0 SWAP1 SLOAD SWAP1 PUSH2 0x100 EXP SWAP1 DIV PUSH1 0x1 PUSH1 0x1 PUSH1 0xA0 SHL SUB AND PUSH1 0x1 PUSH1 0x1 PUSH1 0xA0 SHL SUB AND PUSH4 0x8DA5CB5B PUSH1 0x40 MLOAD DUP2 PUSH4 0xFFFFFFFF AND PUSH1 0xE0 SHL DUP2 MSTORE PUSH1 0x4 ADD PUSH1 0x20 PUSH1 0x40 MLOAD DUP1 DUP4 SUB DUP2 DUP7 GAS STATICCALL ISZERO DUP1 ISZERO PUSH2 0x93E JUMPI RETURNDATASIZE PUSH0 PUSH0 RETURNDATACOPY RETURNDATASIZE PUSH0 REVERT JUMPDEST POP POP POP POP PUSH1 0x40 MLOAD RETURNDATASIZE PUSH1 0x1F NOT PUSH1 0x1F DUP3 ADD AND DUP3 ADD DUP1 PUSH1 0x40 MSTORE POP DUP2 ADD SWAP1 PUSH2 0x962 SWAP2 SWAP1 PUSH2 0x3730 JUMP JUMPDEST PUSH1 0x1 PUSH1 0x1 PUSH1 0xA0 SHL SUB AND CALLER PUSH1 0x1 PUSH1 0x1 PUSH1 0xA0 SHL SUB AND EQ PUSH2 0x992 JUMPI PUSH1 0x40 MLOAD PUSH3 0x461BCD PUSH1 0xE5 SHL DUP2 MSTORE PUSH1 0x4 ADD PUSH2 0x48A SWAP1 PUSH2 0x374B JUMP JUMPDEST PUSH2 0x99B DUP2 PUSH2 0x155F JUMP JUMPDEST POP JUMP JUMPDEST PUSH1 0x40 DUP1 MLOAD PUSH1 0x80 DUP2 ADD DUP3 MSTORE PUSH0 DUP1 DUP3 MSTORE PUSH1 0x20 DUP3 ADD DUP2 SWAP1 MSTORE SWAP2 DUP2 ADD DUP3 SWAP1 MSTORE PUSH1 0x60 DUP2 ADD SWAP2 SWAP1 SWAP2 MSTORE PUSH1 0x1 PUSH1 0x1 PUSH1 0xA0 SHL SUB DUP1 DUP4 AND PUSH0 SWAP1 DUP2 MSTORE PUSH1 0x1 PUSH1 0x20 MSTORE PUSH1 0x40 SWAP1 KECCAK256 DUP1 SLOAD SWAP1 SWAP2 AND PUSH2 0xA81 JUMPI PUSH2 0x9EB DUP4 PUSH2 0x16E9 JUMP JUMPDEST PUSH1 0x1 PUSH1 0x1 PUSH1 0xA0 SHL SUB SWAP4 DUP5 AND PUSH0 SWAP1 DUP2 MSTORE PUSH1 0x1 PUSH1 0x20 SWAP1 DUP2 MSTORE PUSH1 0x40 SWAP2 DUP3 SWAP1 KECCAK256 DUP4 MLOAD DUP2 SLOAD SWAP3 DUP6 ADD MLOAD SWAP4 DUP6 ADD MLOAD PUSH1 0x60 DUP7 ADD MLOAD PUSH1 0x1 PUSH1 0x1 PUSH1 0x40 SHL SUB AND PUSH1 0x1 PUSH1 0xC0 SHL MUL PUSH1 0x1 PUSH1 0x1 PUSH1 0xC0 SHL SUB PUSH1 0xFF SWAP1 SWAP3 AND PUSH1 0x1 PUSH1 0xB8 SHL MUL SWAP2 SWAP1 SWAP2 AND PUSH1 0x1 PUSH1 0x1 PUSH1 0xB8 SHL SUB PUSH3 0xFFFFFF SWAP1 SWAP7 AND PUSH1 0x1 PUSH1 0xA0 SHL MUL PUSH1 0x1 PUSH1 0x1 PUSH1 0xB8 SHL SUB NOT SWAP1 SWAP6 AND SWAP3 SWAP1 SWAP10 AND SWAP2 SWAP1 SWAP2 OR SWAP3 SWAP1 SWAP3 OR SWAP3 SWAP1 SWAP3 AND SWAP6 SWAP1 SWAP6 OR SWAP5 SWAP1 SWAP5 OR SWAP1 SWAP4 SSTORE POP SWAP1 SWAP2 SWAP1 POP JUMP JUMPDEST PUSH1 0x2 SLOAD DUP2 SLOAD PUSH2 0xAA0 SWAP1 PUSH1 0x1 PUSH1 0xC0 SHL SWAP1 DIV PUSH1 0x1 PUSH1 0x1 PUSH1 0x40 SHL SUB AND TIMESTAMP PUSH2 0x37ED JUMP JUMPDEST GT ISZERO PUSH2 0xB7F JUMPI PUSH0 PUSH2 0xAB0 DUP5 PUSH2 0x16E9 JUMP JUMPDEST DUP3 SLOAD DUP2 MLOAD SWAP2 SWAP3 POP PUSH1 0x1 PUSH1 0x1 PUSH1 0xA0 SHL SUB SWAP2 DUP3 AND SWAP2 AND EQ PUSH2 0xB5F JUMPI PUSH1 0x1 PUSH1 0x1 PUSH1 0xA0 SHL SUB SWAP4 DUP5 AND PUSH0 SWAP1 DUP2 MSTORE PUSH1 0x1 PUSH1 0x20 SWAP1 DUP2 MSTORE PUSH1 0x40 SWAP2 DUP3 SWAP1 KECCAK256 DUP4 MLOAD DUP2 SLOAD SWAP3 DUP6 ADD MLOAD SWAP4 DUP6 ADD MLOAD PUSH1 0x60 DUP7 ADD MLOAD PUSH1 0x1 PUSH1 0x1 PUSH1 0x40 SHL SUB AND PUSH1 0x1 PUSH1 0xC0 SHL MUL PUSH1 0x1 PUSH1 0x1 PUSH1 0xC0 SHL SUB PUSH1 0xFF SWAP1 SWAP3 AND PUSH1 0x1 PUSH1 0xB8 SHL MUL SWAP2 SWAP1 SWAP2 AND PUSH1 0x1 PUSH1 0x1 PUSH1 0xB8 SHL SUB PUSH3 0xFFFFFF SWAP1 SWAP7 AND PUSH1 0x1 PUSH1 0xA0 SHL MUL PUSH1 0x1 PUSH1 0x1 PUSH1 0xB8 SHL SUB NOT SWAP1 SWAP6 AND SWAP3 SWAP1 SWAP10 AND SWAP2 SWAP1 SWAP2 OR SWAP3 SWAP1 SWAP3 OR SWAP3 SWAP1 SWAP3 AND SWAP6 SWAP1 SWAP6 OR SWAP5 SWAP1 SWAP5 OR SWAP1 SWAP4 SSTORE POP SWAP1 SWAP2 SWAP1 POP JUMP JUMPDEST POP DUP1 SLOAD PUSH1 0x1 PUSH1 0x1 PUSH1 0xC0 SHL SUB AND PUSH1 0x1 PUSH1 0xC0 SHL TIMESTAMP PUSH1 0x1 PUSH1 0x1 PUSH1 0x40 SHL SUB AND MUL OR DUP2 SSTORE JUMPDEST PUSH1 0x40 DUP1 MLOAD PUSH1 0x80 DUP2 ADD DUP3 MSTORE SWAP2 SLOAD PUSH1 0x1 PUSH1 0x1 PUSH1 0xA0 SHL SUB DUP2 AND DUP4 MSTORE PUSH1 0x1 PUSH1 0xA0 SHL DUP2 DIV PUSH3 0xFFFFFF AND PUSH1 0x20 DUP5 ADD MSTORE PUSH1 0x1 PUSH1 0xB8 SHL DUP2 DIV PUSH1 0xFF AND SWAP2 DUP4 ADD SWAP2 SWAP1 SWAP2 MSTORE PUSH1 0x1 PUSH1 0xC0 SHL SWAP1 DIV PUSH1 0x1 PUSH1 0x1 PUSH1 0x40 SHL SUB AND PUSH1 0x60 DUP3 ADD MSTORE SWAP3 SWAP2 POP POP JUMP JUMPDEST PUSH1 0x40 DUP1 MLOAD PUSH1 0x80 DUP1 DUP3 ADD DUP4 MSTORE PUSH0 DUP1 DUP4 MSTORE PUSH1 0x20 DUP1 DUP5 ADD DUP3 SWAP1 MSTORE DUP4 DUP6 ADD DUP3 SWAP1 MSTORE PUSH1 0x60 SWAP4 DUP5 ADD DUP3 SWAP1 MSTORE PUSH1 0x1 PUSH1 0x1 PUSH1 0xA0 SHL SUB DUP7 DUP2 AND DUP4 MSTORE PUSH1 0x1 DUP3 MSTORE SWAP2 DUP6 SWAP1 KECCAK256 DUP6 MLOAD SWAP4 DUP5 ADD DUP7 MSTORE SLOAD SWAP2 DUP3 AND DUP1 DUP5 MSTORE PUSH1 0x1 PUSH1 0xA0 SHL DUP4 DIV PUSH3 0xFFFFFF AND SWAP2 DUP5 ADD SWAP2 SWAP1 SWAP2 MSTORE PUSH1 0x1 PUSH1 0xB8 SHL DUP3 DIV PUSH1 0xFF AND SWAP5 DUP4 ADD SWAP5 SWAP1 SWAP5 MSTORE PUSH1 0x1 PUSH1 0xC0 SHL SWAP1 DIV PUSH1 0x1 PUSH1 0x1 PUSH1 0x40 SHL SUB AND SWAP2 DUP2 ADD SWAP2 SWAP1 SWAP2 MSTORE SWAP1 ISZERO PUSH2 0xC62 JUMPI SWAP2 SWAP1 POP JUMP JUMPDEST PUSH2 0x66B DUP3 PUSH2 0x16E9 JUMP JUMPDEST PUSH2 0x49D DUP3 DUP3 PUSH2 0x1B04 JUMP JUMPDEST PUSH1 0x2 PUSH1 0x3 SLOAD SUB PUSH2 0xCC7 JUMPI PUSH1 0x40 MLOAD PUSH3 0x461BCD PUSH1 0xE5 SHL DUP2 MSTORE PUSH1 0x20 PUSH1 0x4 DUP3 ADD MSTORE PUSH1 0x1F PUSH1 0x24 DUP3 ADD MSTORE PUSH32 0x5265656E7472616E637947756172643A207265656E7472616E742063616C6C00 PUSH1 0x44 DUP3 ADD MSTORE PUSH1 0x64 ADD PUSH2 0x48A JUMP JUMPDEST PUSH1 0x2 PUSH1 0x3 SSTORE JUMP JUMPDEST PUSH2 0xD03 PUSH1 0x40 MLOAD DUP1 PUSH1 0xC0 ADD PUSH1 0x40 MSTORE DUP1 PUSH1 0x60 DUP2 MSTORE PUSH1 0x20 ADD PUSH1 0x60 DUP2 MSTORE PUSH1 0x20 ADD PUSH0 DUP2 MSTORE PUSH1 0x20 ADD PUSH0 DUP2 MSTORE PUSH1 0x20 ADD PUSH0 DUP2 MSTORE PUSH1 0x20 ADD PUSH0 DUP2 MSTORE POP SWAP1 JUMP JUMPDEST PUSH32 0x0 DUP6 DUP1 PUSH1 0x1 PUSH1 0x1 PUSH1 0x40 SHL SUB DUP2 GT ISZERO PUSH2 0xD3D JUMPI PUSH2 0xD3D PUSH2 0x35A4 JUMP JUMPDEST PUSH1 0x40 MLOAD SWAP1 DUP1 DUP3 MSTORE DUP1 PUSH1 0x20 MUL PUSH1 0x20 ADD DUP3 ADD PUSH1 0x40 MSTORE DUP1 ISZERO PUSH2 0xD70 JUMPI DUP2 PUSH1 0x20 ADD JUMPDEST PUSH1 0x60 DUP2 MSTORE PUSH1 0x20 ADD SWAP1 PUSH1 0x1 SWAP1 SUB SWAP1 DUP2 PUSH2 0xD5B JUMPI SWAP1 POP JUMPDEST POP PUSH1 0x20 DUP5 ADD MSTORE DUP1 PUSH1 0x1 PUSH1 0x1 PUSH1 0x40 SHL SUB DUP2 GT ISZERO PUSH2 0xD8E JUMPI PUSH2 0xD8E PUSH2 0x35A4 JUMP JUMPDEST PUSH1 0x40 MLOAD SWAP1 DUP1 DUP3 MSTORE DUP1 PUSH1 0x1F ADD PUSH1 0x1F NOT AND PUSH1 0x20 ADD DUP3 ADD PUSH1 0x40 MSTORE DUP1 ISZERO PUSH2 0xDB8 JUMPI PUSH1 0x20 DUP3 ADD DUP2 DUP1 CALLDATASIZE DUP4 CALLDATACOPY ADD SWAP1 POP JUMPDEST POP DUP4 MSTORE PUSH0 JUMPDEST DUP2 DUP2 LT ISZERO PUSH2 0xF2D JUMPI PUSH0 DUP10 DUP10 DUP4 DUP2 DUP2 LT PUSH2 0xDD8 JUMPI PUSH2 0xDD8 PUSH2 0x3800 JUMP JUMPDEST PUSH2 0xDEE SWAP3 PUSH1 0x20 PUSH1 0x40 SWAP1 SWAP3 MUL ADD SWAP1 DUP2 ADD SWAP2 POP PUSH2 0x3715 JUMP JUMPDEST SWAP1 POP PUSH1 0x1 PUSH1 0x1 PUSH1 0xA0 SHL SUB DUP2 AND PUSH2 0xE17 JUMPI PUSH1 0x40 MLOAD PUSH4 0x7401D931 PUSH1 0xE0 SHL DUP2 MSTORE PUSH1 0x4 ADD PUSH1 0x40 MLOAD DUP1 SWAP2 SUB SWAP1 REVERT JUMPDEST PUSH0 DUP11 DUP11 DUP5 DUP2 DUP2 LT PUSH2 0xE2A JUMPI PUSH2 0xE2A PUSH2 0x3800 JUMP JUMPDEST SWAP1 POP PUSH1 0x40 MUL ADD PUSH1 0x20 ADD PUSH1 0x20 DUP2 ADD SWAP1 PUSH2 0xE42 SWAP2 SWAP1 PUSH2 0x3823 JUMP JUMPDEST PUSH1 0x80 DUP8 ADD DUP1 MLOAD PUSH2 0xFFFF SWAP3 SWAP1 SWAP3 AND SWAP2 DUP3 ADD SWAP1 MSTORE SWAP1 POP PUSH0 DUP2 SWAP1 SUB PUSH2 0xE65 JUMPI POP POP PUSH2 0xF25 JUMP JUMPDEST PUSH2 0x2710 DUP2 DUP9 MUL DIV PUSH0 DUP2 SWAP1 SUB PUSH2 0xE7C JUMPI POP POP POP PUSH2 0xF25 JUMP JUMPDEST PUSH1 0x60 DUP8 ADD DUP1 MLOAD DUP3 ADD SWAP1 MSTORE PUSH1 0x1 PUSH1 0x1 PUSH1 0xA0 SHL SUB DUP1 DUP8 AND SWAP1 DUP5 AND SUB PUSH2 0xEAC JUMPI PUSH1 0xA0 DUP8 ADD DUP1 MLOAD SWAP1 SWAP2 ADD SWAP1 MSTORE POP PUSH2 0xF25 SWAP1 POP JUMP JUMPDEST PUSH0 PUSH0 PUSH2 0xEBA DUP6 DUP5 DUP15 DUP15 PUSH2 0x1B97 JUMP JUMPDEST SWAP2 POP SWAP2 POP DUP2 DUP10 PUSH0 ADD MLOAD DUP11 PUSH1 0x40 ADD MLOAD DUP2 MLOAD DUP2 LT PUSH2 0xED8 JUMPI PUSH2 0xED8 PUSH2 0x3800 JUMP JUMPDEST PUSH1 0x20 ADD ADD SWAP1 PUSH1 0x1 PUSH1 0x1 PUSH1 0xF8 SHL SUB NOT AND SWAP1 DUP2 PUSH0 BYTE SWAP1 MSTORE8 POP DUP1 DUP10 PUSH1 0x20 ADD MLOAD DUP11 PUSH1 0x40 ADD MLOAD DUP2 MLOAD DUP2 LT PUSH2 0xF09 JUMPI PUSH2 0xF09 PUSH2 0x3800 JUMP JUMPDEST PUSH1 0x20 SWAP1 DUP2 MUL SWAP2 SWAP1 SWAP2 ADD ADD MSTORE POP POP POP PUSH1 0x40 DUP7 ADD DUP1 MLOAD PUSH1 0x1 ADD SWAP1 MSTORE POP POP JUMPDEST PUSH1 0x1 ADD PUSH2 0xDBD JUMP JUMPDEST POP POP POP SWAP6 SWAP5 POP POP POP POP POP JUMP JUMPDEST DUP1 SELFBALANCE LT ISZERO PUSH2 0xF5A JUMPI PUSH1 0x40 MLOAD PUSH4 0x1A84BC41 PUSH1 0xE2 SHL DUP2 MSTORE PUSH1 0x4 ADD PUSH1 0x40 MLOAD DUP1 SWAP2 SUB SWAP1 REVERT JUMPDEST DUP2 PUSH1 0x1 PUSH1 0x1 PUSH1 0xA0 SHL SUB AND PUSH4 0xD0E30DB0 DUP3 PUSH1 0x40 MLOAD DUP3 PUSH4 0xFFFFFFFF AND PUSH1 0xE0 SHL DUP2 MSTORE PUSH1 0x4 ADD PUSH0 PUSH1 0x40 MLOAD DUP1 DUP4 SUB DUP2 DUP6 DUP9 DUP1 EXTCODESIZE ISZERO DUP1 ISZERO PUSH2 0xF93 JUMPI PUSH0 PUSH0 REVERT JUMPDEST POP GAS CALL ISZERO DUP1 ISZERO PUSH2 0xFA5 JUMPI RETURNDATASIZE PUSH0 PUSH0 RETURNDATACOPY RETURNDATASIZE PUSH0 REVERT JUMPDEST POP POP POP POP POP POP POP JUMP JUMPDEST DUP1 PUSH0 SUB PUSH2 0xFCE JUMPI PUSH1 0x40 MLOAD PUSH4 0x55FF99AD PUSH1 0xE1 SHL DUP2 MSTORE PUSH1 0x4 ADD PUSH1 0x40 MLOAD DUP1 SWAP2 SUB SWAP1 REVERT JUMPDEST DUP1 DUP3 MLOAD EQ PUSH2 0x1072 JUMPI PUSH0 DUP2 PUSH1 0x1 PUSH1 0x1 PUSH1 0x40 SHL SUB DUP2 GT ISZERO PUSH2 0xFEF JUMPI PUSH2 0xFEF PUSH2 0x35A4 JUMP JUMPDEST PUSH1 0x40 MLOAD SWAP1 DUP1 DUP3 MSTORE DUP1 PUSH1 0x20 MUL PUSH1 0x20 ADD DUP3 ADD PUSH1 0x40 MSTORE DUP1 ISZERO PUSH2 0x1022 JUMPI DUP2 PUSH1 0x20 ADD JUMPDEST PUSH1 0x60 DUP2 MSTORE PUSH1 0x20 ADD SWAP1 PUSH1 0x1 SWAP1 SUB SWAP1 DUP2 PUSH2 0x100D JUMPI SWAP1 POP JUMPDEST POP SWAP1 POP PUSH0 JUMPDEST DUP3 DUP2 LT ISZERO PUSH2 0x106E JUMPI DUP4 DUP2 DUP2 MLOAD DUP2 LT PUSH2 0x1041 JUMPI PUSH2 0x1041 PUSH2 0x3800 JUMP JUMPDEST PUSH1 0x20 MUL PUSH1 0x20 ADD ADD MLOAD DUP3 DUP3 DUP2 MLOAD DUP2 LT PUSH2 0x105B JUMPI PUSH2 0x105B PUSH2 0x3800 JUMP JUMPDEST PUSH1 0x20 SWAP1 DUP2 MUL SWAP2 SWAP1 SWAP2 ADD ADD MSTORE PUSH1 0x1 ADD PUSH2 0x1027 JUMP JUMPDEST POP SWAP2 POP JUMPDEST DUP1 DUP4 MSTORE PUSH1 0x40 MLOAD PUSH4 0x24856BC3 PUSH1 0xE0 SHL DUP2 MSTORE PUSH1 0x1 PUSH1 0x1 PUSH1 0xA0 SHL SUB PUSH32 0x0 AND SWAP1 PUSH4 0x24856BC3 SWAP1 PUSH2 0x10C3 SWAP1 DUP7 SWAP1 DUP7 SWAP1 PUSH1 0x4 ADD PUSH2 0x3852 JUMP JUMPDEST PUSH0 PUSH1 0x40 MLOAD DUP1 DUP4 SUB DUP2 PUSH0 DUP8 DUP1 EXTCODESIZE ISZERO DUP1 ISZERO PUSH2 0xF93 JUMPI PUSH0 PUSH0 REVERT JUMPDEST DUP1 PUSH0 SUB PUSH2 0x10FA JUMPI PUSH1 0x40 MLOAD PUSH4 0x1F2A2005 PUSH1 0xE0 SHL DUP2 MSTORE PUSH1 0x4 ADD PUSH1 0x40 MLOAD DUP1 SWAP2 SUB SWAP1 REVERT JUMPDEST PUSH2 0x1105 DUP4 DUP4 DUP4 PUSH2 0x1CDD JUMP JUMPDEST POP POP POP JUMP JUMPDEST DUP1 PUSH0 SUB PUSH2 0x112A JUMPI PUSH1 0x40 MLOAD PUSH4 0x1F2A2005 PUSH1 0xE0 SHL DUP2 MSTORE PUSH1 0x4 ADD PUSH1 0x40 MLOAD DUP1 SWAP2 SUB SWAP1 REVERT JUMPDEST DUP1 SELFBALANCE LT ISZERO PUSH2 0x114B JUMPI PUSH1 0x40 MLOAD PUSH4 0x1A84BC41 PUSH1 0xE2 SHL DUP2 MSTORE PUSH1 0x4 ADD PUSH1 0x40 MLOAD DUP1 SWAP2 SUB SWAP1 REVERT JUMPDEST PUSH0 DUP3 PUSH1 0x1 PUSH1 0x1 PUSH1 0xA0 SHL SUB AND DUP3 PUSH1 0x40 MLOAD PUSH0 PUSH1 0x40 MLOAD DUP1 DUP4 SUB DUP2 DUP6 DUP8 GAS CALL SWAP3 POP POP POP RETURNDATASIZE DUP1 PUSH0 DUP2 EQ PUSH2 0x1194 JUMPI PUSH1 0x40 MLOAD SWAP2 POP PUSH1 0x1F NOT PUSH1 0x3F RETURNDATASIZE ADD AND DUP3 ADD PUSH1 0x40 MSTORE RETURNDATASIZE DUP3 MSTORE RETURNDATASIZE PUSH0 PUSH1 0x20 DUP5 ADD RETURNDATACOPY PUSH2 0x1199 JUMP JUMPDEST PUSH1 0x60 SWAP2 POP JUMPDEST POP POP SWAP1 POP DUP1 PUSH2 0x1105 JUMPI PUSH1 0x40 MLOAD PUSH4 0xCEF4EED7 PUSH1 0xE0 SHL DUP2 MSTORE PUSH1 0x4 ADD PUSH1 0x40 MLOAD DUP1 SWAP2 SUB SWAP1 REVERT JUMPDEST PUSH2 0x11DE PUSH1 0x40 MLOAD DUP1 PUSH1 0x60 ADD PUSH1 0x40 MSTORE DUP1 PUSH1 0x60 DUP2 MSTORE PUSH1 0x20 ADD PUSH1 0x60 DUP2 MSTORE PUSH1 0x20 ADD PUSH0 DUP2 MSTORE POP SWAP1 JUMP JUMPDEST PUSH32 0x0 DUP5 DUP1 PUSH1 0x1 PUSH1 0x1 PUSH1 0x40 SHL SUB DUP2 GT ISZERO PUSH2 0x1218 JUMPI PUSH2 0x1218 PUSH2 0x35A4 JUMP JUMPDEST PUSH1 0x40 MLOAD SWAP1 DUP1 DUP3 MSTORE DUP1 PUSH1 0x20 MUL PUSH1 0x20 ADD DUP3 ADD PUSH1 0x40 MSTORE DUP1 ISZERO PUSH2 0x124B JUMPI DUP2 PUSH1 0x20 ADD JUMPDEST PUSH1 0x60 DUP2 MSTORE PUSH1 0x20 ADD SWAP1 PUSH1 0x1 SWAP1 SUB SWAP1 DUP2 PUSH2 0x1236 JUMPI SWAP1 POP JUMPDEST POP PUSH1 0x20 DUP5 ADD MSTORE DUP1 PUSH1 0x1 PUSH1 0x1 PUSH1 0x40 SHL SUB DUP2 GT ISZERO PUSH2 0x1269 JUMPI PUSH2 0x1269 PUSH2 0x35A4 JUMP JUMPDEST PUSH1 0x40 MLOAD SWAP1 DUP1 DUP3 MSTORE DUP1 PUSH1 0x1F ADD PUSH1 0x1F NOT AND PUSH1 0x20 ADD DUP3 ADD PUSH1 0x40 MSTORE DUP1 ISZERO PUSH2 0x1293 JUMPI PUSH1 0x20 DUP3 ADD DUP2 DUP1 CALLDATASIZE DUP4 CALLDATACOPY ADD SWAP1 POP JUMPDEST POP DUP4 MSTORE PUSH0 JUMPDEST DUP2 DUP2 LT ISZERO PUSH2 0x148F JUMPI PUSH0 DUP9 DUP9 DUP4 DUP2 DUP2 LT PUSH2 0x12B3 JUMPI PUSH2 0x12B3 PUSH2 0x3800 JUMP JUMPDEST PUSH2 0x12C9 SWAP3 PUSH1 0x20 PUSH1 0x40 SWAP1 SWAP3 MUL ADD SWAP1 DUP2 ADD SWAP2 POP PUSH2 0x3715 JUMP JUMPDEST SWAP1 POP PUSH0 DUP10 DUP10 DUP5 DUP2 DUP2 LT PUSH2 0x12DE JUMPI PUSH2 0x12DE PUSH2 0x3800 JUMP JUMPDEST SWAP1 POP PUSH1 0x40 MUL ADD PUSH1 0x20 ADD CALLDATALOAD SWAP1 POP DUP1 PUSH0 SUB PUSH2 0x12F8 JUMPI POP POP PUSH2 0x1487 JUMP JUMPDEST PUSH1 0x1 PUSH1 0x1 PUSH1 0xA0 SHL SUB DUP3 AND PUSH2 0x131F JUMPI PUSH1 0x40 MLOAD PUSH4 0x7401D931 PUSH1 0xE0 SHL DUP2 MSTORE PUSH1 0x4 ADD PUSH1 0x40 MLOAD DUP1 SWAP2 SUB SWAP1 REVERT JUMPDEST PUSH1 0x1 PUSH1 0x1 PUSH1 0xA0 SHL SUB DUP3 DUP2 AND SWAP1 DUP7 AND EQ PUSH0 DUP9 ISZERO PUSH2 0x13D9 JUMPI PUSH1 0x40 MLOAD PUSH4 0x70A08231 PUSH1 0xE0 SHL DUP2 MSTORE ADDRESS PUSH1 0x4 DUP3 ADD MSTORE PUSH0 SWAP1 PUSH1 0x1 PUSH1 0x1 PUSH1 0xA0 SHL SUB DUP7 AND SWAP1 PUSH4 0x70A08231 SWAP1 PUSH1 0x24 ADD PUSH1 0x20 PUSH1 0x40 MLOAD DUP1 DUP4 SUB DUP2 DUP7 GAS STATICCALL ISZERO DUP1 ISZERO PUSH2 0x1379 JUMPI RETURNDATASIZE PUSH0 PUSH0 RETURNDATACOPY RETURNDATASIZE PUSH0 REVERT JUMPDEST POP POP POP POP PUSH1 0x40 MLOAD RETURNDATASIZE PUSH1 0x1F NOT PUSH1 0x1F DUP3 ADD AND DUP3 ADD DUP1 PUSH1 0x40 MSTORE POP DUP2 ADD SWAP1 PUSH2 0x139D SWAP2 SWAP1 PUSH2 0x37C2 JUMP JUMPDEST SWAP1 POP DUP4 DUP2 LT ISZERO PUSH2 0x13C0 JUMPI PUSH1 0x40 MLOAD PUSH4 0x6998F5B PUSH1 0xE0 SHL DUP2 MSTORE PUSH1 0x4 ADD PUSH1 0x40 MLOAD DUP1 SWAP2 SUB SWAP1 REVERT JUMPDEST DUP3 ISZERO PUSH2 0x13D0 JUMPI POP POP POP POP POP PUSH2 0x1487 JUMP JUMPDEST DUP4 SWAP2 POP POP PUSH2 0x140D JUMP JUMPDEST PUSH0 PUSH2 0x13E5 DUP6 DUP6 CALLER PUSH2 0x1DDE JUMP JUMPDEST SWAP1 POP DUP3 ISZERO PUSH2 0x13F7 JUMPI POP POP POP POP POP PUSH2 0x1487 JUMP JUMPDEST DUP1 SWAP2 POP DUP2 PUSH0 SUB PUSH2 0x140B JUMPI POP POP POP POP POP PUSH2 0x1487 JUMP JUMPDEST POP JUMPDEST PUSH0 PUSH0 PUSH2 0x141B DUP7 DUP5 ADDRESS DUP16 PUSH2 0x1FA2 JUMP JUMPDEST SWAP2 POP SWAP2 POP DUP2 DUP11 PUSH0 ADD MLOAD DUP12 PUSH1 0x40 ADD MLOAD DUP2 MLOAD DUP2 LT PUSH2 0x1439 JUMPI PUSH2 0x1439 PUSH2 0x3800 JUMP JUMPDEST PUSH1 0x20 ADD ADD SWAP1 PUSH1 0x1 PUSH1 0x1 PUSH1 0xF8 SHL SUB NOT AND SWAP1 DUP2 PUSH0 BYTE SWAP1 MSTORE8 POP DUP1 DUP11 PUSH1 0x20 ADD MLOAD DUP12 PUSH1 0x40 ADD MLOAD DUP2 MLOAD DUP2 LT PUSH2 0x146A JUMPI PUSH2 0x146A PUSH2 0x3800 JUMP JUMPDEST PUSH1 0x20 SWAP1 DUP2 MUL SWAP2 SWAP1 SWAP2 ADD ADD MSTORE POP POP POP PUSH1 0x40 DUP8 ADD DUP1 MLOAD PUSH1 0x1 ADD SWAP1 MSTORE POP POP POP JUMPDEST PUSH1 0x1 ADD PUSH2 0x1298 JUMP JUMPDEST POP POP POP SWAP5 SWAP4 POP POP POP POP JUMP JUMPDEST PUSH1 0x40 MLOAD PUSH4 0x2E1A7D4D PUSH1 0xE0 SHL DUP2 MSTORE PUSH1 0x4 DUP2 ADD DUP4 SWAP1 MSTORE PUSH1 0x1 PUSH1 0x1 PUSH1 0xA0 SHL SUB DUP5 AND SWAP1 PUSH4 0x2E1A7D4D SWAP1 PUSH1 0x24 ADD PUSH0 PUSH1 0x40 MLOAD DUP1 DUP4 SUB DUP2 PUSH0 DUP8 DUP1 EXTCODESIZE ISZERO DUP1 ISZERO PUSH2 0x14D9 JUMPI PUSH0 PUSH0 REVERT JUMPDEST POP GAS CALL ISZERO DUP1 ISZERO PUSH2 0x14EB JUMPI RETURNDATASIZE PUSH0 PUSH0 RETURNDATACOPY RETURNDATASIZE PUSH0 REVERT JUMPDEST POP POP POP POP PUSH0 DUP2 PUSH1 0x1 PUSH1 0x1 PUSH1 0xA0 SHL SUB AND DUP4 PUSH1 0x40 MLOAD PUSH0 PUSH1 0x40 MLOAD DUP1 DUP4 SUB DUP2 DUP6 DUP8 GAS CALL SWAP3 POP POP POP RETURNDATASIZE DUP1 PUSH0 DUP2 EQ PUSH2 0x1538 JUMPI PUSH1 0x40 MLOAD SWAP2 POP PUSH1 0x1F NOT PUSH1 0x3F RETURNDATASIZE ADD AND DUP3 ADD PUSH1 0x40 MSTORE RETURNDATASIZE DUP3 MSTORE RETURNDATASIZE PUSH0 PUSH1 0x20 DUP5 ADD RETURNDATACOPY PUSH2 0x153D JUMP JUMPDEST PUSH1 0x60 SWAP2 POP JUMPDEST POP POP SWAP1 POP DUP1 PUSH2 0x5F6 JUMPI PUSH1 0x40 MLOAD PUSH4 0x597C5555 PUSH1 0xE1 SHL DUP2 MSTORE PUSH1 0x4 ADD PUSH1 0x40 MLOAD DUP1 SWAP2 SUB SWAP1 REVERT JUMPDEST PUSH1 0x1 PUSH1 0x1 PUSH1 0xA0 SHL SUB DUP2 AND PUSH2 0x15B5 JUMPI PUSH1 0x40 MLOAD PUSH3 0x461BCD PUSH1 0xE5 SHL DUP2 MSTORE PUSH1 0x20 PUSH1 0x4 DUP3 ADD DUP2 SWAP1 MSTORE PUSH1 0x24 DUP3 ADD MSTORE PUSH32 0x4469726563746F72792063616E6E6F74206265207A65726F2061646472657373 PUSH1 0x44 DUP3 ADD MSTORE PUSH1 0x64 ADD PUSH2 0x48A JUMP JUMPDEST PUSH0 DUP2 PUSH1 0x1 PUSH1 0x1 PUSH1 0xA0 SHL SUB AND EXTCODESIZE GT PUSH2 0x160E JUMPI PUSH1 0x40 MLOAD PUSH3 0x461BCD PUSH1 0xE5 SHL DUP2 MSTORE PUSH1 0x20 PUSH1 0x4 DUP3 ADD MSTORE PUSH1 0x1C PUSH1 0x24 DUP3 ADD MSTORE PUSH32 0x4469726563746F7279206D757374206265206120636F6E747261637400000000 PUSH1 0x44 DUP3 ADD MSTORE PUSH1 0x64 ADD PUSH2 0x48A JUMP JUMPDEST DUP1 PUSH1 0x1 PUSH1 0x1 PUSH1 0xA0 SHL SUB AND PUSH4 0x8DA5CB5B PUSH1 0x40 MLOAD DUP2 PUSH4 0xFFFFFFFF AND PUSH1 0xE0 SHL DUP2 MSTORE PUSH1 0x4 ADD PUSH1 0x20 PUSH1 0x40 MLOAD DUP1 DUP4 SUB DUP2 DUP7 GAS STATICCALL SWAP3 POP POP POP DUP1 ISZERO PUSH2 0x1668 JUMPI POP PUSH1 0x40 DUP1 MLOAD PUSH1 0x1F RETURNDATASIZE SWAP1 DUP2 ADD PUSH1 0x1F NOT AND DUP3 ADD SWAP1 SWAP3 MSTORE PUSH2 0x1665 SWAP2 DUP2 ADD SWAP1 PUSH2 0x3730 JUMP JUMPDEST PUSH1 0x1 JUMPDEST PUSH2 0x16C9 JUMPI PUSH1 0x40 MLOAD PUSH3 0x461BCD PUSH1 0xE5 SHL DUP2 MSTORE PUSH1 0x20 PUSH1 0x4 DUP3 ADD MSTORE PUSH1 0x2C PUSH1 0x24 DUP3 ADD MSTORE PUSH32 0x4469726563746F7279206164647265737320646F6573206E6F7420696D706C65 PUSH1 0x44 DUP3 ADD MSTORE PUSH12 0x6D656E74206F776E65722829 PUSH1 0xA0 SHL PUSH1 0x64 DUP3 ADD MSTORE PUSH1 0x84 ADD PUSH2 0x48A JUMP JUMPDEST POP PUSH0 DUP1 SLOAD PUSH1 0x1 PUSH1 0x1 PUSH1 0xA0 SHL SUB DUP4 AND PUSH1 0x1 PUSH1 0x1 PUSH1 0xA0 SHL SUB NOT SWAP1 SWAP2 AND OR SWAP1 SSTORE POP JUMP JUMPDEST PUSH1 0x40 DUP1 MLOAD PUSH1 0x80 DUP2 ADD DUP3 MSTORE PUSH0 DUP1 DUP3 MSTORE PUSH1 0x20 DUP3 ADD DUP2 SWAP1 MSTORE SWAP2 DUP2 ADD DUP3 SWAP1 MSTORE PUSH1 0x60 DUP2 ADD SWAP2 SWAP1 SWAP2 MSTORE PUSH1 0x1 PUSH1 0x1 PUSH1 0xA0 SHL SUB DUP3 AND PUSH2 0x1733 JUMPI PUSH1 0x40 MLOAD PUSH4 0xD92E233D PUSH1 0xE0 SHL DUP2 MSTORE PUSH1 0x4 ADD PUSH1 0x40 MLOAD DUP1 SWAP2 SUB SWAP1 REVERT JUMPDEST PUSH32 0x0 PUSH1 0x1 PUSH1 0x1 PUSH1 0xA0 SHL SUB AND DUP3 PUSH1 0x1 PUSH1 0x1 PUSH1 0xA0 SHL SUB AND SUB PUSH2 0x1785 JUMPI PUSH1 0x40 MLOAD PUSH4 0x871C78AF PUSH1 0xE0 SHL DUP2 MSTORE PUSH1 0x4 ADD PUSH1 0x40 MLOAD DUP1 SWAP2 SUB SWAP1 REVERT JUMPDEST PUSH1 0x40 MLOAD PUSH4 0xE6A43905 PUSH1 0xE0 SHL DUP2 MSTORE PUSH1 0x1 PUSH1 0x1 PUSH1 0xA0 SHL SUB DUP4 DUP2 AND PUSH1 0x4 DUP4 ADD MSTORE PUSH32 0x0 DUP2 DUP2 AND PUSH1 0x24 DUP5 ADD MSTORE SWAP2 DUP3 SWAP2 PUSH0 SWAP2 DUP3 SWAP2 PUSH32 0x0 AND SWAP1 PUSH4 0xE6A43905 SWAP1 PUSH1 0x44 ADD PUSH1 0x20 PUSH1 0x40 MLOAD DUP1 DUP4 SUB DUP2 DUP7 GAS STATICCALL ISZERO DUP1 ISZERO PUSH2 0x1819 JUMPI RETURNDATASIZE PUSH0 PUSH0 RETURNDATACOPY RETURNDATASIZE PUSH0 REVERT JUMPDEST POP POP POP POP PUSH1 0x40 MLOAD RETURNDATASIZE PUSH1 0x1F NOT PUSH1 0x1F DUP3 ADD AND DUP3 ADD DUP1 PUSH1 0x40 MSTORE POP DUP2 ADD SWAP1 PUSH2 0x183D SWAP2 SWAP1 PUSH2 0x3730 JUMP JUMPDEST SWAP1 POP PUSH1 0x1 PUSH1 0x1 PUSH1 0xA0 SHL SUB DUP2 AND ISZERO PUSH2 0x1978 JUMPI PUSH0 PUSH0 DUP3 PUSH1 0x1 PUSH1 0x1 PUSH1 0xA0 SHL SUB AND PUSH4 0x902F1AC PUSH1 0x40 MLOAD DUP2 PUSH4 0xFFFFFFFF AND PUSH1 0xE0 SHL DUP2 MSTORE PUSH1 0x4 ADD PUSH1 0x60 PUSH1 0x40 MLOAD DUP1 DUP4 SUB DUP2 DUP7 GAS STATICCALL ISZERO DUP1 ISZERO PUSH2 0x188C JUMPI RETURNDATASIZE PUSH0 PUSH0 RETURNDATACOPY RETURNDATASIZE PUSH0 REVERT JUMPDEST POP POP POP POP PUSH1 0x40 MLOAD RETURNDATASIZE PUSH1 0x1F NOT PUSH1 0x1F DUP3 ADD AND DUP3 ADD DUP1 PUSH1 0x40 MSTORE POP DUP2 ADD SWAP1 PUSH2 0x18B0 SWAP2 SWAP1 PUSH2 0x38E2 JUMP JUMPDEST POP SWAP2 POP SWAP2 POP PUSH0 DUP4 PUSH1 0x1 PUSH1 0x1 PUSH1 0xA0 SHL SUB AND PUSH4 0xDFE1681 PUSH1 0x40 MLOAD DUP2 PUSH4 0xFFFFFFFF AND PUSH1 0xE0 SHL DUP2 MSTORE PUSH1 0x4 ADD PUSH1 0x20 PUSH1 0x40 MLOAD DUP1 DUP4 SUB DUP2 DUP7 GAS STATICCALL ISZERO DUP1 ISZERO PUSH2 0x18F2 JUMPI RETURNDATASIZE PUSH0 PUSH0 RETURNDATACOPY RETURNDATASIZE PUSH0 REVERT JUMPDEST POP POP POP POP PUSH1 0x40 MLOAD RETURNDATASIZE PUSH1 0x1F NOT PUSH1 0x1F DUP3 ADD AND DUP3 ADD DUP1 PUSH1 0x40 MSTORE POP DUP2 ADD SWAP1 PUSH2 0x1916 SWAP2 SWAP1 PUSH2 0x3730 JUMP JUMPDEST SWAP1 POP PUSH0 DUP8 PUSH1 0x1 PUSH1 0x1 PUSH1 0xA0 SHL SUB AND DUP3 PUSH1 0x1 PUSH1 0x1 PUSH1 0xA0 SHL SUB AND EQ PUSH2 0x1941 JUMPI DUP3 PUSH1 0x1 PUSH1 0x1 PUSH1 0x70 SHL SUB AND PUSH2 0x194C JUMP JUMPDEST DUP4 PUSH1 0x1 PUSH1 0x1 PUSH1 0x70 SHL SUB AND JUMPDEST SWAP1 POP DUP6 DUP2 GT ISZERO PUSH2 0x1973 JUMPI PUSH0 PUSH1 0x40 DUP11 ADD DUP2 SWAP1 MSTORE PUSH1 0x1 PUSH1 0x1 PUSH1 0xA0 SHL SUB DUP7 AND DUP11 MSTORE PUSH1 0x20 DUP11 ADD MSTORE SWAP5 POP DUP5 JUMPDEST POP POP POP POP JUMPDEST PUSH0 JUMPDEST PUSH1 0x2 DUP2 LT ISZERO PUSH2 0x1AEA JUMPI PUSH0 DUP2 ISZERO PUSH2 0x1992 JUMPI PUSH2 0x2710 PUSH2 0x1996 JUMP JUMPDEST PUSH2 0xBB8 JUMPDEST PUSH1 0x40 MLOAD PUSH4 0xB4C7741 PUSH1 0xE1 SHL DUP2 MSTORE PUSH1 0x1 PUSH1 0x1 PUSH1 0xA0 SHL SUB DUP11 DUP2 AND PUSH1 0x4 DUP4 ADD MSTORE DUP9 DUP2 AND PUSH1 0x24 DUP4 ADD MSTORE PUSH3 0xFFFFFF DUP4 AND PUSH1 0x44 DUP4 ADD MSTORE SWAP2 SWAP3 POP PUSH0 SWAP2 PUSH32 0x0 AND SWAP1 PUSH4 0x1698EE82 SWAP1 PUSH1 0x64 ADD PUSH1 0x20 PUSH1 0x40 MLOAD DUP1 DUP4 SUB DUP2 DUP7 GAS STATICCALL ISZERO DUP1 ISZERO PUSH2 0x1A12 JUMPI RETURNDATASIZE PUSH0 PUSH0 RETURNDATACOPY RETURNDATASIZE PUSH0 REVERT JUMPDEST POP POP POP POP PUSH1 0x40 MLOAD RETURNDATASIZE PUSH1 0x1F NOT PUSH1 0x1F DUP3 ADD AND DUP3 ADD DUP1 PUSH1 0x40 MSTORE POP DUP2 ADD SWAP1 PUSH2 0x1A36 SWAP2 SWAP1 PUSH2 0x3730 JUMP JUMPDEST SWAP1 POP PUSH1 0x1 PUSH1 0x1 PUSH1 0xA0 SHL SUB DUP2 AND ISZERO PUSH2 0x1AE0 JUMPI PUSH1 0x40 MLOAD PUSH4 0x70A08231 PUSH1 0xE0 SHL DUP2 MSTORE PUSH1 0x1 PUSH1 0x1 PUSH1 0xA0 SHL SUB DUP3 DUP2 AND PUSH1 0x4 DUP4 ADD MSTORE PUSH0 SWAP2 SWAP1 DUP9 AND SWAP1 PUSH4 0x70A08231 SWAP1 PUSH1 0x24 ADD PUSH1 0x20 PUSH1 0x40 MLOAD DUP1 DUP4 SUB DUP2 DUP7 GAS STATICCALL ISZERO DUP1 ISZERO PUSH2 0x1A8E JUMPI RETURNDATASIZE PUSH0 PUSH0 RETURNDATACOPY RETURNDATASIZE PUSH0 REVERT JUMPDEST POP POP POP POP PUSH1 0x40 MLOAD RETURNDATASIZE PUSH1 0x1F NOT PUSH1 0x1F DUP3 ADD AND DUP3 ADD DUP1 PUSH1 0x40 MSTORE POP DUP2 ADD SWAP1 PUSH2 0x1AB2 SWAP2 SWAP1 PUSH2 0x37C2 JUMP JUMPDEST SWAP1 POP DUP6 DUP2 GT ISZERO PUSH2 0x1ADE JUMPI PUSH1 0x1 PUSH1 0x40 DUP11 ADD MSTORE PUSH1 0x1 PUSH1 0x1 PUSH1 0xA0 SHL SUB DUP3 AND DUP10 MSTORE PUSH3 0xFFFFFF DUP4 AND PUSH1 0x20 DUP11 ADD MSTORE SWAP5 POP DUP5 JUMPDEST POP JUMPDEST POP POP PUSH1 0x1 ADD PUSH2 0x197A JUMP JUMPDEST POP POP POP PUSH1 0x1 PUSH1 0x1 PUSH1 0x40 SHL SUB TIMESTAMP AND PUSH1 0x60 DUP5 ADD MSTORE POP SWAP1 SWAP3 SWAP2 POP POP JUMP JUMPDEST PUSH1 0x1 PUSH1 0x1 PUSH1 0xA0 SHL SUB DUP3 AND PUSH2 0x1B1C JUMPI PUSH2 0x49D DUP2 SELFBALANCE PUSH2 0x110A JUMP JUMPDEST PUSH1 0x40 MLOAD PUSH4 0x70A08231 PUSH1 0xE0 SHL DUP2 MSTORE ADDRESS PUSH1 0x4 DUP3 ADD MSTORE PUSH0 SWAP1 PUSH1 0x1 PUSH1 0x1 PUSH1 0xA0 SHL SUB DUP5 AND SWAP1 PUSH4 0x70A08231 SWAP1 PUSH1 0x24 ADD PUSH1 0x20 PUSH1 0x40 MLOAD DUP1 DUP4 SUB DUP2 DUP7 GAS STATICCALL ISZERO DUP1 ISZERO PUSH2 0x1B60 JUMPI RETURNDATASIZE PUSH0 PUSH0 RETURNDATACOPY RETURNDATASIZE PUSH0 REVERT JUMPDEST POP POP POP POP PUSH1 0x40 MLOAD RETURNDATASIZE PUSH1 0x1F NOT PUSH1 0x1F DUP3 ADD AND DUP3 ADD DUP1 PUSH1 0x40 MSTORE POP DUP2 ADD SWAP1 PUSH2 0x1B84 SWAP2 SWAP1 PUSH2 0x37C2 JUMP JUMPDEST SWAP1 POP DUP1 ISZERO PUSH2 0x1105 JUMPI PUSH2 0x1105 DUP4 DUP4 DUP4 PUSH2 0x1CDD JUMP JUMPDEST PUSH0 PUSH1 0x60 DUP5 PUSH0 SUB PUSH2 0x1BB8 JUMPI POP POP PUSH1 0x40 DUP1 MLOAD PUSH1 0x20 DUP2 ADD SWAP1 SWAP2 MSTORE PUSH0 DUP1 DUP3 MSTORE SWAP1 PUSH2 0x1CD4 JUMP JUMPDEST PUSH0 PUSH2 0x1BC2 DUP8 PUSH2 0x99E JUMP JUMPDEST DUP1 MLOAD SWAP1 SWAP2 POP PUSH1 0x1 PUSH1 0x1 PUSH1 0xA0 SHL SUB AND PUSH2 0x1BED JUMPI PUSH1 0x40 MLOAD PUSH4 0x791C2FED PUSH1 0xE0 SHL DUP2 MSTORE PUSH1 0x4 ADD PUSH1 0x40 MLOAD DUP1 SWAP2 SUB SWAP1 REVERT JUMPDEST PUSH0 DUP2 PUSH1 0x40 ADD MLOAD PUSH1 0xFF AND PUSH1 0x1 SUB PUSH2 0x1C6C JUMPI PUSH2 0x1C2E PUSH32 0x0 DUP10 DUP5 PUSH1 0x20 ADD MLOAD DUP11 DUP10 PUSH2 0x212D JUMP JUMPDEST SWAP1 POP PUSH2 0x1C62 PUSH32 0x0 DUP10 DUP5 PUSH1 0x20 ADD MLOAD DUP11 DUP6 DUP12 PUSH2 0x24BC JUMP JUMPDEST PUSH0 SWAP5 POP SWAP3 POP PUSH2 0x1CD1 JUMP JUMPDEST PUSH2 0x1C98 PUSH32 0x0 DUP10 DUP10 DUP9 PUSH2 0x25B4 JUMP JUMPDEST SWAP1 POP PUSH2 0x1CC7 PUSH32 0x0 DUP10 DUP10 DUP5 DUP11 PUSH2 0x27C1 JUMP JUMPDEST PUSH1 0x1 PUSH1 0xFB SHL SWAP5 POP SWAP3 POP JUMPDEST POP POP JUMPDEST SWAP5 POP SWAP5 SWAP3 POP POP POP JUMP JUMPDEST PUSH1 0x40 DUP1 MLOAD PUSH1 0x1 PUSH1 0x1 PUSH1 0xA0 SHL SUB DUP5 DUP2 AND PUSH1 0x24 DUP4 ADD MSTORE PUSH1 0x44 DUP1 DUP4 ADD DUP6 SWAP1 MSTORE DUP4 MLOAD DUP1 DUP5 SUB SWAP1 SWAP2 ADD DUP2 MSTORE PUSH1 0x64 SWAP1 SWAP3 ADD DUP4 MSTORE PUSH1 0x20 DUP3 ADD DUP1 MLOAD PUSH1 0x1 PUSH1 0x1 PUSH1 0xE0 SHL SUB AND PUSH4 0xA9059CBB PUSH1 0xE0 SHL OR SWAP1 MSTORE SWAP2 MLOAD PUSH0 SWAP3 DUP4 SWAP3 SWAP1 DUP8 AND SWAP2 PUSH2 0x1D38 SWAP2 SWAP1 PUSH2 0x3926 JUMP JUMPDEST PUSH0 PUSH1 0x40 MLOAD DUP1 DUP4 SUB DUP2 PUSH0 DUP7 GAS CALL SWAP2 POP POP RETURNDATASIZE DUP1 PUSH0 DUP2 EQ PUSH2 0x1D71 JUMPI PUSH1 0x40 MLOAD SWAP2 POP PUSH1 0x1F NOT PUSH1 0x3F RETURNDATASIZE ADD AND DUP3 ADD PUSH1 0x40 MSTORE RETURNDATASIZE DUP3 MSTORE RETURNDATASIZE PUSH0 PUSH1 0x20 DUP5 ADD RETURNDATACOPY PUSH2 0x1D76 JUMP JUMPDEST PUSH1 0x60 SWAP2 POP JUMPDEST POP SWAP2 POP SWAP2 POP DUP2 DUP1 ISZERO PUSH2 0x1DA0 JUMPI POP DUP1 MLOAD ISZERO DUP1 PUSH2 0x1DA0 JUMPI POP DUP1 DUP1 PUSH1 0x20 ADD SWAP1 MLOAD DUP2 ADD SWAP1 PUSH2 0x1DA0 SWAP2 SWAP1 PUSH2 0x393C JUMP JUMPDEST PUSH2 0x7C7 JUMPI PUSH1 0x40 MLOAD PUSH3 0x461BCD PUSH1 0xE5 SHL DUP2 MSTORE PUSH1 0x20 PUSH1 0x4 DUP3 ADD MSTORE PUSH1 0xF PUSH1 0x24 DUP3 ADD MSTORE PUSH15 0x1514905394D1915497D19052531151 PUSH1 0x8A SHL PUSH1 0x44 DUP3 ADD MSTORE PUSH1 0x64 ADD PUSH2 0x48A JUMP JUMPDEST PUSH0 DUP3 PUSH0 SUB PUSH2 0x1DFF JUMPI PUSH1 0x40 MLOAD PUSH4 0x1F2A2005 PUSH1 0xE0 SHL DUP2 MSTORE PUSH1 0x4 ADD PUSH1 0x40 MLOAD DUP1 SWAP2 SUB SWAP1 REVERT JUMPDEST PUSH1 0x40 MLOAD PUSH4 0x6EB1769F PUSH1 0xE1 SHL DUP2 MSTORE PUSH1 0x1 PUSH1 0x1 PUSH1 0xA0 SHL SUB DUP4 DUP2 AND PUSH1 0x4 DUP4 ADD MSTORE ADDRESS PUSH1 0x24 DUP4 ADD MSTORE PUSH0 SWAP2 SWAP1 DUP7 AND SWAP1 PUSH4 0xDD62ED3E SWAP1 PUSH1 0x44 ADD PUSH1 0x20 PUSH1 0x40 MLOAD DUP1 DUP4 SUB DUP2 DUP7 GAS STATICCALL ISZERO DUP1 ISZERO PUSH2 0x1E4C JUMPI RETURNDATASIZE PUSH0 PUSH0 RETURNDATACOPY RETURNDATASIZE PUSH0 REVERT JUMPDEST POP POP POP POP PUSH1 0x40 MLOAD RETURNDATASIZE PUSH1 0x1F NOT PUSH1 0x1F DUP3 ADD AND DUP3 ADD DUP1 PUSH1 0x40 MSTORE POP DUP2 ADD SWAP1 PUSH2 0x1E70 SWAP2 SWAP1 PUSH2 0x37C2 JUMP JUMPDEST SWAP1 POP DUP4 DUP2 LT ISZERO PUSH2 0x1E93 JUMPI PUSH1 0x40 MLOAD PUSH4 0x175936BD PUSH1 0xE3 SHL DUP2 MSTORE PUSH1 0x4 ADD PUSH1 0x40 MLOAD DUP1 SWAP2 SUB SWAP1 REVERT JUMPDEST PUSH1 0x40 MLOAD PUSH4 0x70A08231 PUSH1 0xE0 SHL DUP2 MSTORE ADDRESS PUSH1 0x4 DUP3 ADD MSTORE PUSH0 SWAP1 PUSH1 0x1 PUSH1 0x1 PUSH1 0xA0 SHL SUB DUP8 AND SWAP1 PUSH4 0x70A08231 SWAP1 PUSH1 0x24 ADD PUSH1 0x20 PUSH1 0x40 MLOAD DUP1 DUP4 SUB DUP2 DUP7 GAS STATICCALL ISZERO DUP1 ISZERO PUSH2 0x1ED7 JUMPI RETURNDATASIZE PUSH0 PUSH0 RETURNDATACOPY RETURNDATASIZE PUSH0 REVERT JUMPDEST POP POP POP POP PUSH1 0x40 MLOAD RETURNDATASIZE PUSH1 0x1F NOT PUSH1 0x1F DUP3 ADD AND DUP3 ADD DUP1 PUSH1 0x40 MSTORE POP DUP2 ADD SWAP1 PUSH2 0x1EFB SWAP2 SWAP1 PUSH2 0x37C2 JUMP JUMPDEST SWAP1 POP PUSH2 0x1F09 DUP7 DUP6 ADDRESS DUP9 PUSH2 0x28EB JUMP JUMPDEST PUSH1 0x40 MLOAD PUSH4 0x70A08231 PUSH1 0xE0 SHL DUP2 MSTORE ADDRESS PUSH1 0x4 DUP3 ADD MSTORE PUSH0 SWAP1 PUSH1 0x1 PUSH1 0x1 PUSH1 0xA0 SHL SUB DUP9 AND SWAP1 PUSH4 0x70A08231 SWAP1 PUSH1 0x24 ADD PUSH1 0x20 PUSH1 0x40 MLOAD DUP1 DUP4 SUB DUP2 DUP7 GAS STATICCALL ISZERO DUP1 ISZERO PUSH2 0x1F4D JUMPI RETURNDATASIZE PUSH0 PUSH0 RETURNDATACOPY RETURNDATASIZE PUSH0 REVERT JUMPDEST POP POP POP POP PUSH1 0x40 MLOAD RETURNDATASIZE PUSH1 0x1F NOT PUSH1 0x1F DUP3 ADD AND DUP3 ADD DUP1 PUSH1 0x40 MSTORE POP DUP2 ADD SWAP1 PUSH2 0x1F71 SWAP2 SWAP1 PUSH2 0x37C2 JUMP JUMPDEST SWAP1 POP DUP2 DUP2 SUB SWAP4 POP DUP4 PUSH0 SUB PUSH2 0x1F98 JUMPI PUSH1 0x40 MLOAD PUSH4 0xB5C74A27 PUSH1 0xE0 SHL DUP2 MSTORE PUSH1 0x4 ADD PUSH1 0x40 MLOAD DUP1 SWAP2 SUB SWAP1 REVERT JUMPDEST POP POP POP SWAP4 SWAP3 POP POP POP JUMP JUMPDEST PUSH0 PUSH1 0x60 DUP5 PUSH0 SUB PUSH2 0x1FC3 JUMPI POP POP PUSH1 0x40 DUP1 MLOAD PUSH1 0x20 DUP2 ADD SWAP1 SWAP2 MSTORE PUSH0 DUP1 DUP3 MSTORE SWAP1 PUSH2 0x1CD4 JUMP JUMPDEST PUSH1 0x1 PUSH1 0x1 PUSH1 0xA0 SHL SUB DUP7 AND ISZERO DUP1 PUSH2 0x200A JUMPI POP PUSH32 0x0 PUSH1 0x1 PUSH1 0x1 PUSH1 0xA0 SHL SUB AND DUP7 PUSH1 0x1 PUSH1 0x1 PUSH1 0xA0 SHL SUB AND EQ JUMPDEST ISZERO PUSH2 0x2028 JUMPI PUSH1 0x40 MLOAD PUSH4 0x7401D931 PUSH1 0xE0 SHL DUP2 MSTORE PUSH1 0x4 ADD PUSH1 0x40 MLOAD DUP1 SWAP2 SUB SWAP1 REVERT JUMPDEST PUSH0 PUSH2 0x2032 DUP8 PUSH2 0x99E JUMP JUMPDEST DUP1 MLOAD SWAP1 SWAP2 POP PUSH1 0x1 PUSH1 0x1 PUSH1 0xA0 SHL SUB AND PUSH2 0x205D JUMPI PUSH1 0x40 MLOAD PUSH4 0x791C2FED PUSH1 0xE0 SHL DUP2 MSTORE PUSH1 0x4 ADD PUSH1 0x40 MLOAD DUP1 SWAP2 SUB SWAP1 REVERT JUMPDEST PUSH0 DUP2 PUSH1 0x40 ADD MLOAD PUSH1 0xFF AND PUSH1 0x1 SUB PUSH2 0x20D2 JUMPI PUSH2 0x209E DUP9 PUSH32 0x0 DUP5 PUSH1 0x20 ADD MLOAD DUP11 DUP10 PUSH2 0x212D JUMP JUMPDEST SWAP1 POP PUSH2 0x1C62 DUP9 PUSH32 0x0 DUP5 PUSH1 0x20 ADD MLOAD DUP11 DUP6 DUP12 PUSH2 0x24BC JUMP JUMPDEST PUSH2 0x20FE DUP9 PUSH32 0x0 DUP10 DUP9 PUSH2 0x25B4 JUMP JUMPDEST SWAP1 POP PUSH2 0x1CC7 DUP9 PUSH32 0x0 DUP10 DUP5 DUP11 PUSH2 0x27C1 JUMP JUMPDEST PUSH0 DUP3 PUSH0 SUB PUSH2 0x213C JUMPI POP PUSH0 PUSH2 0x24B3 JUMP JUMPDEST PUSH1 0x1 PUSH1 0x1 PUSH1 0xA0 SHL SUB DUP7 AND ISZERO DUP1 PUSH2 0x2159 JUMPI POP PUSH1 0x1 PUSH1 0x1 PUSH1 0xA0 SHL SUB DUP6 AND ISZERO JUMPDEST ISZERO PUSH2 0x2177 JUMPI PUSH1 0x40 MLOAD PUSH4 0xD92E233D PUSH1 0xE0 SHL DUP2 MSTORE PUSH1 0x4 ADD PUSH1 0x40 MLOAD DUP1 SWAP2 SUB SWAP1 REVERT JUMPDEST PUSH2 0x2710 DUP3 PUSH4 0xFFFFFFFF AND GT ISZERO PUSH2 0x21A0 JUMPI PUSH1 0x40 MLOAD PUSH4 0x124955FB PUSH1 0xE0 SHL DUP2 MSTORE PUSH1 0x4 ADD PUSH1 0x40 MLOAD DUP1 SWAP2 SUB SWAP1 REVERT JUMPDEST PUSH1 0x40 MLOAD PUSH4 0xB4C7741 PUSH1 0xE1 SHL DUP2 MSTORE PUSH1 0x1 PUSH1 0x1 PUSH1 0xA0 SHL SUB DUP8 DUP2 AND PUSH1 0x4 DUP4 ADD MSTORE DUP7 DUP2 AND PUSH1 0x24 DUP4 ADD MSTORE PUSH3 0xFFFFFF DUP7 AND PUSH1 0x44 DUP4 ADD MSTORE PUSH0 SWAP2 PUSH32 0x0 SWAP1 SWAP2 AND SWAP1 PUSH4 0x1698EE82 SWAP1 PUSH1 0x64 ADD PUSH1 0x20 PUSH1 0x40 MLOAD DUP1 DUP4 SUB DUP2 DUP7 GAS STATICCALL ISZERO DUP1 ISZERO PUSH2 0x221B JUMPI RETURNDATASIZE PUSH0 PUSH0 RETURNDATACOPY RETURNDATASIZE PUSH0 REVERT JUMPDEST POP POP POP POP PUSH1 0x40 MLOAD RETURNDATASIZE PUSH1 0x1F NOT PUSH1 0x1F DUP3 ADD AND DUP3 ADD DUP1 PUSH1 0x40 MSTORE POP DUP2 ADD SWAP1 PUSH2 0x223F SWAP2 SWAP1 PUSH2 0x3730 JUMP JUMPDEST SWAP1 POP PUSH1 0x1 PUSH1 0x1 PUSH1 0xA0 SHL SUB DUP2 AND PUSH2 0x2268 JUMPI PUSH1 0x40 MLOAD PUSH4 0x791C2FED PUSH1 0xE0 SHL DUP2 MSTORE PUSH1 0x4 ADD PUSH1 0x40 MLOAD DUP1 SWAP2 SUB SWAP1 REVERT JUMPDEST PUSH0 PUSH3 0xF4240 PUSH2 0x227C PUSH3 0xFFFFFF DUP9 AND DUP3 PUSH2 0x37ED JUMP JUMPDEST PUSH2 0x2286 SWAP1 DUP8 PUSH2 0x3957 JUMP JUMPDEST PUSH2 0x2290 SWAP2 SWAP1 PUSH2 0x396E JUMP JUMPDEST SWAP1 POP DUP1 PUSH0 SUB PUSH2 0x22B2 JUMPI PUSH1 0x40 MLOAD PUSH4 0x6EED12FF PUSH1 0xE0 SHL DUP2 MSTORE PUSH1 0x4 ADD PUSH1 0x40 MLOAD DUP1 SWAP2 SUB SWAP1 REVERT JUMPDEST PUSH0 PUSH1 0x1 PUSH1 0x1 PUSH1 0x80 SHL SUB DUP3 GT PUSH2 0x22C7 JUMPI DUP2 PUSH2 0x22D0 JUMP JUMPDEST PUSH1 0x1 PUSH1 0x1 PUSH1 0x80 SHL SUB JUMPDEST PUSH1 0x40 DUP1 MLOAD PUSH1 0x2 DUP1 DUP3 MSTORE PUSH1 0x60 DUP3 ADD DUP4 MSTORE SWAP3 SWAP4 POP PUSH1 0xF SWAP3 PUSH0 SWAP3 DUP4 SWAP3 SWAP2 SWAP1 PUSH1 0x20 DUP4 ADD SWAP1 DUP1 CALLDATASIZE DUP4 CALLDATACOPY ADD SWAP1 POP POP SWAP1 POP DUP3 DUP2 PUSH0 DUP2 MLOAD DUP2 LT PUSH2 0x230D JUMPI PUSH2 0x230D PUSH2 0x3800 JUMP JUMPDEST PUSH1 0x20 MUL PUSH1 0x20 ADD ADD SWAP1 PUSH4 0xFFFFFFFF AND SWAP1 DUP2 PUSH4 0xFFFFFFFF AND DUP2 MSTORE POP POP PUSH0 DUP2 PUSH1 0x1 DUP2 MLOAD DUP2 LT PUSH2 0x233B JUMPI PUSH2 0x233B PUSH2 0x3800 JUMP JUMPDEST PUSH4 0xFFFFFFFF SWAP1 SWAP3 AND PUSH1 0x20 SWAP3 DUP4 MUL SWAP2 SWAP1 SWAP2 ADD SWAP1 SWAP2 ADD MSTORE PUSH1 0x40 MLOAD PUSH4 0x883BDBFD PUSH1 0xE0 SHL DUP2 MSTORE PUSH1 0x1 PUSH1 0x1 PUSH1 0xA0 SHL SUB DUP8 AND SWAP1 PUSH4 0x883BDBFD SWAP1 PUSH2 0x237C SWAP1 DUP5 SWAP1 PUSH1 0x4 ADD PUSH2 0x3981 JUMP JUMPDEST PUSH0 PUSH1 0x40 MLOAD DUP1 DUP4 SUB DUP2 DUP7 GAS STATICCALL SWAP3 POP POP POP DUP1 ISZERO PUSH2 0x23B8 JUMPI POP PUSH1 0x40 MLOAD RETURNDATASIZE PUSH0 DUP3 RETURNDATACOPY PUSH1 0x1F RETURNDATASIZE SWAP1 DUP2 ADD PUSH1 0x1F NOT AND DUP3 ADD PUSH1 0x40 MSTORE PUSH2 0x23B5 SWAP2 SWAP1 DUP2 ADD SWAP1 PUSH2 0x3A5E JUMP JUMPDEST PUSH1 0x1 JUMPDEST PUSH2 0x242D JUMPI PUSH0 DUP7 PUSH1 0x1 PUSH1 0x1 PUSH1 0xA0 SHL SUB AND PUSH4 0x3850C7BD PUSH1 0x40 MLOAD DUP2 PUSH4 0xFFFFFFFF AND PUSH1 0xE0 SHL DUP2 MSTORE PUSH1 0x4 ADD PUSH1 0xE0 PUSH1 0x40 MLOAD DUP1 DUP4 SUB DUP2 DUP7 GAS STATICCALL ISZERO DUP1 ISZERO PUSH2 0x23F9 JUMPI RETURNDATASIZE PUSH0 PUSH0 RETURNDATACOPY RETURNDATASIZE PUSH0 REVERT JUMPDEST POP POP POP POP PUSH1 0x40 MLOAD RETURNDATASIZE PUSH1 0x1F NOT PUSH1 0x1F DUP3 ADD AND DUP3 ADD DUP1 PUSH1 0x40 MSTORE POP DUP2 ADD SWAP1 PUSH2 0x241D SWAP2 SWAP1 PUSH2 0x3B28 JUMP JUMPDEST POP SWAP4 SWAP8 POP PUSH2 0x2470 SWAP6 POP POP POP POP POP POP JUMP JUMPDEST PUSH2 0x246B DUP3 PUSH0 DUP2 MLOAD DUP2 LT PUSH2 0x2442 JUMPI PUSH2 0x2442 PUSH2 0x3800 JUMP JUMPDEST PUSH1 0x20 MUL PUSH1 0x20 ADD ADD MLOAD DUP4 PUSH1 0x1 DUP2 MLOAD DUP2 LT PUSH2 0x245D JUMPI PUSH2 0x245D PUSH2 0x3800 JUMP JUMPDEST PUSH1 0x20 MUL PUSH1 0x20 ADD ADD MLOAD DUP8 PUSH2 0x2A01 JUMP JUMPDEST SWAP4 POP POP POP JUMPDEST POP PUSH0 PUSH2 0x247E DUP3 DUP6 DUP15 DUP15 PUSH2 0x2A1F JUMP JUMPDEST SWAP1 POP DUP1 PUSH0 SUB PUSH2 0x24A0 JUMPI PUSH1 0x40 MLOAD PUSH4 0x6EED12FF PUSH1 0xE0 SHL DUP2 MSTORE PUSH1 0x4 ADD PUSH1 0x40 MLOAD DUP1 SWAP2 SUB SWAP1 REVERT JUMPDEST PUSH2 0x24AA DUP2 DUP10 PUSH2 0x2B2A JUMP JUMPDEST SWAP7 POP POP POP POP POP POP POP JUMPDEST SWAP6 SWAP5 POP POP POP POP POP JUMP JUMPDEST PUSH1 0x60 PUSH2 0x24E9 DUP8 PUSH32 0x0 DUP7 PUSH2 0x2B7B JUMP JUMPDEST PUSH2 0x2535 PUSH32 0x0 DUP9 PUSH32 0x0 DUP8 PUSH2 0x2C13 JUMP JUMPDEST PUSH1 0x40 DUP1 MLOAD PUSH12 0xFFFFFFFFFFFFFFFFFFFFFFFF NOT PUSH1 0x60 DUP11 DUP2 SHL DUP3 AND PUSH1 0x20 DUP5 ADD MSTORE PUSH1 0x1 PUSH1 0x1 PUSH1 0xE8 SHL SUB NOT PUSH1 0xE8 DUP11 SWAP1 SHL AND PUSH1 0x34 DUP5 ADD MSTORE DUP10 SWAP1 SHL AND PUSH1 0x37 DUP3 ADD MSTORE DUP2 MLOAD DUP1 DUP3 SUB PUSH1 0x2B ADD DUP2 MSTORE PUSH1 0x4B DUP3 ADD SWAP1 SWAP3 MSTORE PUSH2 0x2598 SWAP1 DUP5 SWAP1 DUP8 SWAP1 DUP8 SWAP1 DUP6 SWAP1 PUSH1 0x1 SWAP1 PUSH1 0x6B ADD PUSH2 0x3BCA JUMP JUMPDEST PUSH1 0x40 MLOAD PUSH1 0x20 DUP2 DUP4 SUB SUB DUP2 MSTORE SWAP1 PUSH1 0x40 MSTORE SWAP2 POP POP SWAP7 SWAP6 POP POP POP POP POP POP JUMP JUMPDEST PUSH0 DUP3 PUSH0 SUB PUSH2 0x25C3 JUMPI POP PUSH0 PUSH2 0x27B9 JUMP JUMPDEST PUSH1 0x1 PUSH1 0x1 PUSH1 0xA0 SHL SUB DUP6 AND ISZERO DUP1 PUSH2 0x25E0 JUMPI POP PUSH1 0x1 PUSH1 0x1 PUSH1 0xA0 SHL SUB DUP5 AND ISZERO JUMPDEST ISZERO PUSH2 0x25FE JUMPI PUSH1 0x40 MLOAD PUSH4 0xD92E233D PUSH1 0xE0 SHL DUP2 MSTORE PUSH1 0x4 ADD PUSH1 0x40 MLOAD DUP1 SWAP2 SUB SWAP1 REVERT JUMPDEST PUSH2 0x2710 DUP3 PUSH4 0xFFFFFFFF AND GT ISZERO PUSH2 0x2627 JUMPI PUSH1 0x40 MLOAD PUSH4 0x124955FB PUSH1 0xE0 SHL DUP2 MSTORE PUSH1 0x4 ADD PUSH1 0x40 MLOAD DUP1 SWAP2 SUB SWAP1 REVERT JUMPDEST PUSH1 0x40 DUP1 MLOAD PUSH1 0x2 DUP1 DUP3 MSTORE PUSH1 0x60 DUP3 ADD DUP4 MSTORE PUSH0 SWAP3 PUSH1 0x20 DUP4 ADD SWAP1 DUP1 CALLDATASIZE DUP4 CALLDATACOPY ADD SWAP1 POP POP SWAP1 POP DUP6 DUP2 PUSH0 DUP2 MLOAD DUP2 LT PUSH2 0x265A JUMPI PUSH2 0x265A PUSH2 0x3800 JUMP JUMPDEST PUSH1 0x20 MUL PUSH1 0x20 ADD ADD SWAP1 PUSH1 0x1 PUSH1 0x1 PUSH1 0xA0 SHL SUB AND SWAP1 DUP2 PUSH1 0x1 PUSH1 0x1 PUSH1 0xA0 SHL SUB AND DUP2 MSTORE POP POP DUP5 DUP2 PUSH1 0x1 DUP2 MLOAD DUP2 LT PUSH2 0x268E JUMPI PUSH2 0x268E PUSH2 0x3800 JUMP JUMPDEST PUSH1 0x1 PUSH1 0x1 PUSH1 0xA0 SHL SUB SWAP3 DUP4 AND PUSH1 0x20 SWAP2 DUP3 MUL SWAP3 SWAP1 SWAP3 ADD ADD MSTORE PUSH1 0x40 MLOAD PUSH4 0xD06CA61F PUSH1 0xE0 SHL DUP2 MSTORE PUSH1 0x60 SWAP2 PUSH32 0x0 AND SWAP1 PUSH4 0xD06CA61F SWAP1 PUSH2 0x26ED SWAP1 DUP9 SWAP1 DUP7 SWAP1 PUSH1 0x4 ADD PUSH2 0x3C4D JUMP JUMPDEST PUSH0 PUSH1 0x40 MLOAD DUP1 DUP4 SUB DUP2 DUP7 GAS STATICCALL SWAP3 POP POP POP DUP1 ISZERO PUSH2 0x2729 JUMPI POP PUSH1 0x40 MLOAD RETURNDATASIZE PUSH0 DUP3 RETURNDATACOPY PUSH1 0x1F RETURNDATASIZE SWAP1 DUP2 ADD PUSH1 0x1F NOT AND DUP3 ADD PUSH1 0x40 MSTORE PUSH2 0x2726 SWAP2 SWAP1 DUP2 ADD SWAP1 PUSH2 0x3C65 JUMP JUMPDEST PUSH1 0x1 JUMPDEST PUSH2 0x2746 JUMPI PUSH1 0x40 MLOAD PUSH4 0x6EED12FF PUSH1 0xE0 SHL DUP2 MSTORE PUSH1 0x4 ADD PUSH1 0x40 MLOAD DUP1 SWAP2 SUB SWAP1 REVERT JUMPDEST SWAP1 POP PUSH1 0x2 DUP2 MLOAD LT ISZERO PUSH2 0x276B JUMPI PUSH1 0x40 MLOAD PUSH4 0x6EED12FF PUSH1 0xE0 SHL DUP2 MSTORE PUSH1 0x4 ADD PUSH1 0x40 MLOAD DUP1 SWAP2 SUB SWAP1 REVERT JUMPDEST PUSH0 DUP2 PUSH1 0x1 DUP2 MLOAD DUP2 LT PUSH2 0x277F JUMPI PUSH2 0x277F PUSH2 0x3800 JUMP JUMPDEST PUSH1 0x20 MUL PUSH1 0x20 ADD ADD MLOAD SWAP1 POP DUP1 PUSH0 SUB PUSH2 0x27A9 JUMPI PUSH1 0x40 MLOAD PUSH4 0x6EED12FF PUSH1 0xE0 SHL DUP2 MSTORE PUSH1 0x4 ADD PUSH1 0x40 MLOAD DUP1 SWAP2 SUB SWAP1 REVERT JUMPDEST PUSH2 0x27B3 DUP2 DUP7 PUSH2 0x2B2A JUMP JUMPDEST SWAP4 POP POP POP POP JUMPDEST SWAP5 SWAP4 POP POP POP POP JUMP JUMPDEST PUSH1 0x60 PUSH2 0x27EE DUP7 PUSH32 0x0 DUP7 PUSH2 0x2B7B JUMP JUMPDEST PUSH2 0x283A PUSH32 0x0 DUP8 PUSH32 0x0 DUP8 PUSH2 0x2C13 JUMP JUMPDEST PUSH1 0x40 DUP1 MLOAD PUSH1 0x2 DUP1 DUP3 MSTORE PUSH1 0x60 DUP3 ADD DUP4 MSTORE PUSH0 SWAP3 PUSH1 0x20 DUP4 ADD SWAP1 DUP1 CALLDATASIZE DUP4 CALLDATACOPY ADD SWAP1 POP POP SWAP1 POP DUP7 DUP2 PUSH0 DUP2 MLOAD DUP2 LT PUSH2 0x286D JUMPI PUSH2 0x286D PUSH2 0x3800 JUMP JUMPDEST PUSH1 0x20 MUL PUSH1 0x20 ADD ADD SWAP1 PUSH1 0x1 PUSH1 0x1 PUSH1 0xA0 SHL SUB AND SWAP1 DUP2 PUSH1 0x1 PUSH1 0x1 PUSH1 0xA0 SHL SUB AND DUP2 MSTORE POP POP DUP6 DUP2 PUSH1 0x1 DUP2 MLOAD DUP2 LT PUSH2 0x28A1 JUMPI PUSH2 0x28A1 PUSH2 0x3800 JUMP JUMPDEST PUSH1 0x1 PUSH1 0x1 PUSH1 0xA0 SHL SUB SWAP1 SWAP3 AND PUSH1 0x20 SWAP3 DUP4 MUL SWAP2 SWAP1 SWAP2 ADD DUP3 ADD MSTORE PUSH1 0x40 MLOAD PUSH2 0x28D0 SWAP2 DUP6 SWAP2 DUP9 SWAP2 DUP9 SWAP2 DUP7 SWAP2 PUSH1 0x1 SWAP2 ADD PUSH2 0x3CF5 JUMP JUMPDEST PUSH1 0x40 MLOAD PUSH1 0x20 DUP2 DUP4 SUB SUB DUP2 MSTORE SWAP1 PUSH1 0x40 MSTORE SWAP2 POP POP SWAP6 SWAP5 POP POP POP POP POP JUMP JUMPDEST PUSH1 0x40 DUP1 MLOAD PUSH1 0x1 PUSH1 0x1 PUSH1 0xA0 SHL SUB DUP6 DUP2 AND PUSH1 0x24 DUP4 ADD MSTORE DUP5 DUP2 AND PUSH1 0x44 DUP4 ADD MSTORE PUSH1 0x64 DUP1 DUP4 ADD DUP6 SWAP1 MSTORE DUP4 MLOAD DUP1 DUP5 SUB SWAP1 SWAP2 ADD DUP2 MSTORE PUSH1 0x84 SWAP1 SWAP3 ADD DUP4 MSTORE PUSH1 0x20 DUP3 ADD DUP1 MLOAD PUSH1 0x1 PUSH1 0x1 PUSH1 0xE0 SHL SUB AND PUSH4 0x23B872DD PUSH1 0xE0 SHL OR SWAP1 MSTORE SWAP2 MLOAD PUSH0 SWAP3 DUP4 SWAP3 SWAP1 DUP9 AND SWAP2 PUSH2 0x294E SWAP2 SWAP1 PUSH2 0x3926 JUMP JUMPDEST PUSH0 PUSH1 0x40 MLOAD DUP1 DUP4 SUB DUP2 PUSH0 DUP7 GAS CALL SWAP2 POP POP RETURNDATASIZE DUP1 PUSH0 DUP2 EQ PUSH2 0x2987 JUMPI PUSH1 0x40 MLOAD SWAP2 POP PUSH1 0x1F NOT PUSH1 0x3F RETURNDATASIZE ADD AND DUP3 ADD PUSH1 0x40 MSTORE RETURNDATASIZE DUP3 MSTORE RETURNDATASIZE PUSH0 PUSH1 0x20 DUP5 ADD RETURNDATACOPY PUSH2 0x298C JUMP JUMPDEST PUSH1 0x60 SWAP2 POP JUMPDEST POP SWAP2 POP SWAP2 POP DUP2 DUP1 ISZERO PUSH2 0x29B6 JUMPI POP DUP1 MLOAD ISZERO DUP1 PUSH2 0x29B6 JUMPI POP DUP1 DUP1 PUSH1 0x20 ADD SWAP1 MLOAD DUP2 ADD SWAP1 PUSH2 0x29B6 SWAP2 SWAP1 PUSH2 0x393C JUMP JUMPDEST PUSH2 0x29F9 JUMPI PUSH1 0x40 MLOAD PUSH3 0x461BCD PUSH1 0xE5 SHL DUP2 MSTORE PUSH1 0x20 PUSH1 0x4 DUP3 ADD MSTORE PUSH1 0x14 PUSH1 0x24 DUP3 ADD MSTORE PUSH20 0x1514905394D1915497D19493D357D19052531151 PUSH1 0x62 SHL PUSH1 0x44 DUP3 ADD MSTORE PUSH1 0x64 ADD PUSH2 0x48A JUMP JUMPDEST POP POP POP POP POP POP JUMP JUMPDEST PUSH0 PUSH2 0x2A15 PUSH2 0x2A0F DUP6 DUP6 PUSH2 0x3D21 JUMP JUMPDEST DUP4 PUSH2 0x2D8B JUMP JUMPDEST SWAP1 POP JUMPDEST SWAP4 SWAP3 POP POP POP JUMP JUMPDEST PUSH0 PUSH0 PUSH2 0x2A2A DUP7 PUSH2 0x2E12 JUMP JUMPDEST SWAP1 POP PUSH1 0x1 PUSH1 0x1 PUSH1 0x80 SHL SUB PUSH1 0x1 PUSH1 0x1 PUSH1 0xA0 SHL SUB DUP3 AND GT PUSH2 0x2AAF JUMPI PUSH0 PUSH2 0x2A57 PUSH1 0x1 PUSH1 0x1 PUSH1 0xA0 SHL SUB DUP4 AND DUP1 PUSH2 0x3957 JUMP JUMPDEST SWAP1 POP DUP4 PUSH1 0x1 PUSH1 0x1 PUSH1 0xA0 SHL SUB AND DUP6 PUSH1 0x1 PUSH1 0x1 PUSH1 0xA0 SHL SUB AND LT PUSH2 0x2A8F JUMPI PUSH2 0x2A8A PUSH1 0x1 PUSH1 0xC0 SHL DUP8 PUSH1 0x1 PUSH1 0x1 PUSH1 0x80 SHL SUB AND DUP4 PUSH2 0x3225 JUMP JUMPDEST PUSH2 0x2AA7 JUMP JUMPDEST PUSH2 0x2AA7 DUP2 DUP8 PUSH1 0x1 PUSH1 0x1 PUSH1 0x80 SHL SUB AND PUSH1 0x1 PUSH1 0xC0 SHL PUSH2 0x3225 JUMP JUMPDEST SWAP3 POP POP PUSH2 0x2B21 JUMP JUMPDEST PUSH0 PUSH2 0x2ACD PUSH1 0x1 PUSH1 0x1 PUSH1 0xA0 SHL SUB DUP4 AND DUP1 PUSH9 0x10000000000000000 PUSH2 0x3225 JUMP JUMPDEST SWAP1 POP DUP4 PUSH1 0x1 PUSH1 0x1 PUSH1 0xA0 SHL SUB AND DUP6 PUSH1 0x1 PUSH1 0x1 PUSH1 0xA0 SHL SUB AND LT PUSH2 0x2B05 JUMPI PUSH2 0x2B00 PUSH1 0x1 PUSH1 0x80 SHL DUP8 PUSH1 0x1 PUSH1 0x1 PUSH1 0x80 SHL SUB AND DUP4 PUSH2 0x3225 JUMP JUMPDEST PUSH2 0x2B1D JUMP JUMPDEST PUSH2 0x2B1D DUP2 DUP8 PUSH1 0x1 PUSH1 0x1 PUSH1 0x80 SHL SUB AND PUSH1 0x1 PUSH1 0x80 SHL PUSH2 0x3225 JUMP JUMPDEST SWAP3 POP POP JUMPDEST POP SWAP5 SWAP4 POP POP POP POP JUMP JUMPDEST PUSH0 PUSH2 0x2710 DUP3 PUSH4 0xFFFFFFFF AND GT ISZERO PUSH2 0x2B54 JUMPI PUSH1 0x40 MLOAD PUSH4 0x124955FB PUSH1 0xE0 SHL DUP2 MSTORE PUSH1 0x4 ADD PUSH1 0x40 MLOAD DUP1 SWAP2 SUB SWAP1 REVERT JUMPDEST PUSH2 0x2710 PUSH2 0x2B67 PUSH4 0xFFFFFFFF DUP5 AND DUP3 PUSH2 0x37ED JUMP JUMPDEST PUSH2 0x2B71 SWAP1 DUP6 PUSH2 0x3957 JUMP JUMPDEST PUSH2 0x2A18 SWAP2 SWAP1 PUSH2 0x396E JUMP JUMPDEST PUSH1 0x40 MLOAD PUSH4 0x6EB1769F PUSH1 0xE1 SHL DUP2 MSTORE ADDRESS PUSH1 0x4 DUP3 ADD MSTORE PUSH1 0x1 PUSH1 0x1 PUSH1 0xA0 SHL SUB DUP4 DUP2 AND PUSH1 0x24 DUP4 ADD MSTORE PUSH0 SWAP2 SWAP1 DUP6 AND SWAP1 PUSH4 0xDD62ED3E SWAP1 PUSH1 0x44 ADD PUSH1 0x20 PUSH1 0x40 MLOAD DUP1 DUP4 SUB DUP2 DUP7 GAS STATICCALL ISZERO DUP1 ISZERO PUSH2 0x2BC8 JUMPI RETURNDATASIZE PUSH0 PUSH0 RETURNDATACOPY RETURNDATASIZE PUSH0 REVERT JUMPDEST POP POP POP POP PUSH1 0x40 MLOAD RETURNDATASIZE PUSH1 0x1F NOT PUSH1 0x1F DUP3 ADD AND DUP3 ADD DUP1 PUSH1 0x40 MSTORE POP DUP2 ADD SWAP1 PUSH2 0x2BEC SWAP2 SWAP1 PUSH2 0x37C2 JUMP JUMPDEST SWAP1 POP DUP2 DUP2 LT ISZERO PUSH2 0x5F6 JUMPI DUP1 ISZERO PUSH2 0x2C07 JUMPI PUSH2 0x2C07 DUP5 DUP5 PUSH0 PUSH2 0x339E JUMP JUMPDEST PUSH2 0x5F6 DUP5 DUP5 PUSH0 NOT PUSH2 0x339E JUMP JUMPDEST PUSH1 0x1 PUSH1 0x1 PUSH1 0xA0 SHL SUB DUP4 AND ISZERO DUP1 PUSH2 0x2C30 JUMPI POP PUSH1 0x1 PUSH1 0x1 PUSH1 0xA0 SHL SUB DUP3 AND ISZERO JUMPDEST ISZERO PUSH2 0x2C4E JUMPI PUSH1 0x40 MLOAD PUSH4 0x7401D931 PUSH1 0xE0 SHL DUP2 MSTORE PUSH1 0x4 ADD PUSH1 0x40 MLOAD DUP1 SWAP2 SUB SWAP1 REVERT JUMPDEST PUSH1 0x40 MLOAD PUSH4 0x927DA105 PUSH1 0xE0 SHL DUP2 MSTORE ADDRESS PUSH1 0x4 DUP3 ADD MSTORE PUSH1 0x1 PUSH1 0x1 PUSH1 0xA0 SHL SUB DUP5 DUP2 AND PUSH1 0x24 DUP4 ADD MSTORE DUP4 DUP2 AND PUSH1 0x44 DUP4 ADD MSTORE PUSH0 SWAP2 DUP3 SWAP2 DUP8 AND SWAP1 PUSH4 0x927DA105 SWAP1 PUSH1 0x64 ADD PUSH1 0x60 PUSH1 0x40 MLOAD DUP1 DUP4 SUB DUP2 DUP7 GAS STATICCALL ISZERO DUP1 ISZERO PUSH2 0x2CA4 JUMPI RETURNDATASIZE PUSH0 PUSH0 RETURNDATACOPY RETURNDATASIZE PUSH0 REVERT JUMPDEST POP POP POP POP PUSH1 0x40 MLOAD RETURNDATASIZE PUSH1 0x1F NOT PUSH1 0x1F DUP3 ADD AND DUP3 ADD DUP1 PUSH1 0x40 MSTORE POP DUP2 ADD SWAP1 PUSH2 0x2CC8 SWAP2 SWAP1 PUSH2 0x3D63 JUMP JUMPDEST POP SWAP1 SWAP3 POP SWAP1 POP PUSH1 0x1 PUSH1 0x1 PUSH1 0xA0 SHL SUB DUP1 DUP5 AND SWAP1 DUP4 AND LT ISZERO PUSH0 PUSH6 0xFFFFFFFFFFFF DUP4 AND ISZERO DUP1 ISZERO SWAP1 PUSH2 0x2CFE JUMPI POP TIMESTAMP DUP4 PUSH6 0xFFFFFFFFFFFF AND GT ISZERO JUMPDEST SWAP1 POP DUP2 ISZERO DUP1 PUSH2 0x2D0A JUMPI POP DUP1 JUMPDEST ISZERO PUSH2 0x2D81 JUMPI PUSH1 0x40 MLOAD PUSH4 0x87517C45 PUSH1 0xE0 SHL DUP2 MSTORE PUSH1 0x1 PUSH1 0x1 PUSH1 0xA0 SHL SUB DUP9 DUP2 AND PUSH1 0x4 DUP4 ADD MSTORE DUP8 DUP2 AND PUSH1 0x24 DUP4 ADD MSTORE PUSH1 0x44 DUP3 ADD DUP2 SWAP1 MSTORE PUSH6 0xFFFFFFFFFFFF PUSH1 0x64 DUP4 ADD MSTORE DUP10 AND SWAP1 PUSH4 0x87517C45 SWAP1 PUSH1 0x84 ADD PUSH0 PUSH1 0x40 MLOAD DUP1 DUP4 SUB DUP2 PUSH0 DUP8 DUP1 EXTCODESIZE ISZERO DUP1 ISZERO PUSH2 0x2D6A JUMPI PUSH0 PUSH0 REVERT JUMPDEST POP GAS CALL ISZERO DUP1 ISZERO PUSH2 0x2D7C JUMPI RETURNDATASIZE PUSH0 PUSH0 RETURNDATACOPY RETURNDATASIZE PUSH0 REVERT JUMPDEST POP POP POP POP JUMPDEST POP POP POP POP POP POP POP POP JUMP JUMPDEST PUSH0 DUP2 PUSH4 0xFFFFFFFF AND PUSH0 SUB PUSH2 0x2DC6 JUMPI PUSH1 0x40 MLOAD PUSH3 0x461BCD PUSH1 0xE5 SHL DUP2 MSTORE PUSH1 0x20 PUSH1 0x4 DUP3 ADD MSTORE PUSH1 0x2 PUSH1 0x24 DUP3 ADD MSTORE PUSH2 0x425 PUSH1 0xF4 SHL PUSH1 0x44 DUP3 ADD MSTORE PUSH1 0x64 ADD PUSH2 0x48A JUMP JUMPDEST PUSH1 0x3 DUP3 SWAP1 SIGNEXTEND PUSH0 PUSH2 0x2DD6 DUP3 DUP7 PUSH2 0x3DA5 JUMP JUMPDEST SWAP1 POP PUSH0 PUSH2 0x2DE3 DUP4 DUP8 PUSH2 0x3DE1 JUMP JUMPDEST SWAP1 POP DUP2 SWAP4 POP PUSH0 DUP7 PUSH1 0x6 SIGNEXTEND SLT DUP1 ISZERO PUSH2 0x2DFD JUMPI POP DUP1 PUSH1 0x6 SIGNEXTEND PUSH0 EQ ISZERO JUMPDEST ISZERO PUSH2 0x2E09 JUMPI PUSH1 0x1 DUP5 SUB SWAP4 POP JUMPDEST POP POP POP SWAP3 SWAP2 POP POP JUMP JUMPDEST PUSH0 PUSH0 PUSH0 DUP4 PUSH1 0x2 SIGNEXTEND SLT PUSH2 0x2E27 JUMPI DUP3 PUSH1 0x2 SIGNEXTEND PUSH2 0x2E34 JUMP JUMPDEST DUP3 PUSH1 0x2 SIGNEXTEND PUSH2 0x2E34 SWAP1 PUSH2 0x3E02 JUMP JUMPDEST SWAP1 POP PUSH2 0x2E43 PUSH3 0xD89E7 NOT PUSH2 0x3E1C JUMP JUMPDEST PUSH3 0xFFFFFF AND DUP2 GT ISZERO PUSH2 0x2E7B JUMPI PUSH1 0x40 MLOAD PUSH3 0x461BCD PUSH1 0xE5 SHL DUP2 MSTORE PUSH1 0x20 PUSH1 0x4 DUP3 ADD MSTORE PUSH1 0x1 PUSH1 0x24 DUP3 ADD MSTORE PUSH1 0x15 PUSH1 0xFA SHL PUSH1 0x44 DUP3 ADD MSTORE PUSH1 0x64 ADD PUSH2 0x48A JUMP JUMPDEST PUSH0 DUP2 PUSH1 0x1 AND PUSH0 SUB PUSH2 0x2E90 JUMPI PUSH1 0x1 PUSH1 0x80 SHL PUSH2 0x2EA2 JUMP JUMPDEST PUSH16 0xFFFCB933BD6FAD37AA2D162D1A594001 JUMPDEST PUSH17 0xFFFFFFFFFFFFFFFFFFFFFFFFFFFFFFFFFF AND SWAP1 POP PUSH1 0x2 DUP3 AND ISZERO PUSH2 0x2EE1 JUMPI PUSH1 0x80 PUSH2 0x2EDC DUP3 PUSH16 0xFFF97272373D413259A46990580E213A PUSH2 0x3957 JUMP JUMPDEST SWAP1 SHR SWAP1 POP JUMPDEST PUSH1 0x4 DUP3 AND ISZERO PUSH2 0x2F0B JUMPI PUSH1 0x80 PUSH2 0x2F06 DUP3 PUSH16 0xFFF2E50F5F656932EF12357CF3C7FDCC PUSH2 0x3957 JUMP JUMPDEST SWAP1 SHR SWAP1 POP JUMPDEST PUSH1 0x8 DUP3 AND ISZERO PUSH2 0x2F35 JUMPI PUSH1 0x80 PUSH2 0x2F30 DUP3 PUSH16 0xFFE5CACA7E10E4E61C3624EAA0941CD0 PUSH2 0x3957 JUMP JUMPDEST SWAP1 SHR SWAP1 POP JUMPDEST PUSH1 0x10 DUP3 AND ISZERO PUSH2 0x2F5F JUMPI PUSH1 0x80 PUSH2 0x2F5A DUP3 PUSH16 0xFFCB9843D60F6159C9DB58835C926644 PUSH2 0x3957 JUMP JUMPDEST SWAP1 SHR SWAP1 POP JUMPDEST PUSH1 0x20 DUP3 AND ISZERO PUSH2 0x2F89 JUMPI PUSH1 0x80 PUSH2 0x2F84 DUP3 PUSH16 0xFF973B41FA98C081472E6896DFB254C0 PUSH2 0x3957 JUMP JUMPDEST SWAP1 SHR SWAP1 POP JUMPDEST PUSH1 0x40 DUP3 AND ISZERO PUSH2 0x2FB3 JUMPI PUSH1 0x80 PUSH2 0x2FAE DUP3 PUSH16 0xFF2EA16466C96A3843EC78B326B52861 PUSH2 0x3957 JUMP JUMPDEST SWAP1 SHR SWAP1 POP JUMPDEST PUSH1 0x80 DUP3 AND ISZERO PUSH2 0x2FDD JUMPI PUSH1 0x80 PUSH2 0x2FD8 DUP3 PUSH16 0xFE5DEE046A99A2A811C461F1969C3053 PUSH2 0x3957 JUMP JUMPDEST SWAP1 SHR SWAP1 POP JUMPDEST PUSH2 0x100 DUP3 AND ISZERO PUSH2 0x3008 JUMPI PUSH1 0x80 PUSH2 0x3003 DUP3 PUSH16 0xFCBE86C7900A88AEDCFFC83B479AA3A4 PUSH2 0x3957 JUMP JUMPDEST SWAP1 SHR SWAP1 POP JUMPDEST PUSH2 0x200 DUP3 AND ISZERO PUSH2 0x3033 JUMPI PUSH1 0x80 PUSH2 0x302E DUP3 PUSH16 0xF987A7253AC413176F2B074CF7815E54 PUSH2 0x3957 JUMP JUMPDEST SWAP1 SHR SWAP1 POP JUMPDEST PUSH2 0x400 DUP3 AND ISZERO PUSH2 0x305E JUMPI PUSH1 0x80 PUSH2 0x3059 DUP3 PUSH16 0xF3392B0822B70005940C7A398E4B70F3 PUSH2 0x3957 JUMP JUMPDEST SWAP1 SHR SWAP1 POP JUMPDEST PUSH2 0x800 DUP3 AND ISZERO PUSH2 0x3089 JUMPI PUSH1 0x80 PUSH2 0x3084 DUP3 PUSH16 0xE7159475A2C29B7443B29C7FA6E889D9 PUSH2 0x3957 JUMP JUMPDEST SWAP1 SHR SWAP1 POP JUMPDEST PUSH2 0x1000 DUP3 AND ISZERO PUSH2 0x30B4 JUMPI PUSH1 0x80 PUSH2 0x30AF DUP3 PUSH16 0xD097F3BDFD2022B8845AD8F792AA5825 PUSH2 0x3957 JUMP JUMPDEST SWAP1 SHR SWAP1 POP JUMPDEST PUSH2 0x2000 DUP3 AND ISZERO PUSH2 0x30DF JUMPI PUSH1 0x80 PUSH2 0x30DA DUP3 PUSH16 0xA9F746462D870FDF8A65DC1F90E061E5 PUSH2 0x3957 JUMP JUMPDEST SWAP1 SHR SWAP1 POP JUMPDEST PUSH2 0x4000 DUP3 AND ISZERO PUSH2 0x310A JUMPI PUSH1 0x80 PUSH2 0x3105 DUP3 PUSH16 0x70D869A156D2A1B890BB3DF62BAF32F7 PUSH2 0x3957 JUMP JUMPDEST SWAP1 SHR SWAP1 POP JUMPDEST PUSH2 0x8000 DUP3 AND ISZERO PUSH2 0x3135 JUMPI PUSH1 0x80 PUSH2 0x3130 DUP3 PUSH16 0x31BE135F97D08FD981231505542FCFA6 PUSH2 0x3957 JUMP JUMPDEST SWAP1 SHR SWAP1 POP JUMPDEST PUSH3 0x10000 DUP3 AND ISZERO PUSH2 0x3161 JUMPI PUSH1 0x80 PUSH2 0x315C DUP3 PUSH16 0x9AA508B5B7A84E1C677DE54F3E99BC9 PUSH2 0x3957 JUMP JUMPDEST SWAP1 SHR SWAP1 POP JUMPDEST PUSH3 0x20000 DUP3 AND ISZERO PUSH2 0x318C JUMPI PUSH1 0x80 PUSH2 0x3187 DUP3 PUSH15 0x5D6AF8DEDB81196699C329225EE604 PUSH2 0x3957 JUMP JUMPDEST SWAP1 SHR SWAP1 POP JUMPDEST PUSH3 0x40000 DUP3 AND ISZERO PUSH2 0x31B6 JUMPI PUSH1 0x80 PUSH2 0x31B1 DUP3 PUSH14 0x2216E584F5FA1EA926041BEDFE98 PUSH2 0x3957 JUMP JUMPDEST SWAP1 SHR SWAP1 POP JUMPDEST PUSH3 0x80000 DUP3 AND ISZERO PUSH2 0x31DE JUMPI PUSH1 0x80 PUSH2 0x31D9 DUP3 PUSH12 0x48A170391F7DC42444E8FA2 PUSH2 0x3957 JUMP JUMPDEST SWAP1 SHR SWAP1 POP JUMPDEST PUSH0 DUP5 PUSH1 0x2 SIGNEXTEND SGT ISZERO PUSH2 0x31F7 JUMPI PUSH2 0x31F4 DUP2 PUSH0 NOT PUSH2 0x396E JUMP JUMPDEST SWAP1 POP JUMPDEST PUSH2 0x3206 PUSH5 0x100000000 DUP3 PUSH2 0x3E3C JUMP JUMPDEST ISZERO PUSH2 0x3212 JUMPI PUSH1 0x1 PUSH2 0x3214 JUMP JUMPDEST PUSH0 JUMPDEST PUSH2 0x27B9 SWAP1 PUSH1 0xFF AND PUSH1 0x20 DUP4 SWAP1 SHR PUSH2 0x3E4F JUMP JUMPDEST PUSH0 DUP1 DUP1 PUSH0 NOT DUP6 DUP8 MULMOD DUP6 DUP8 MUL SWAP3 POP DUP3 DUP2 LT DUP4 DUP3 SUB SUB SWAP2 POP POP DUP1 PUSH0 SUB PUSH2 0x3259 JUMPI PUSH0 DUP5 GT PUSH2 0x324E JUMPI PUSH0 PUSH0 REVERT JUMPDEST POP DUP3 SWAP1 DIV SWAP1 POP PUSH2 0x2A18 JUMP JUMPDEST DUP1 DUP5 GT PUSH2 0x3264 JUMPI PUSH0 PUSH0 REVERT JUMPDEST PUSH0 DUP5 DUP7 DUP9 MULMOD DUP1 DUP5 SUB SWAP4 DUP2 GT SWAP1 SWAP3 SUB SWAP2 SWAP1 POP PUSH0 PUSH2 0x3281 DUP7 PUSH0 NOT PUSH2 0x37ED JUMP JUMPDEST PUSH2 0x328C SWAP1 PUSH1 0x1 PUSH2 0x3E4F JUMP JUMPDEST DUP7 AND SWAP6 DUP7 SWAP1 DIV SWAP6 SWAP4 DUP5 SWAP1 DIV SWAP4 PUSH0 DUP2 SWAP1 SUB DIV PUSH1 0x1 ADD SWAP1 POP PUSH2 0x32AC DUP2 DUP5 PUSH2 0x3957 JUMP JUMPDEST SWAP1 SWAP4 OR SWAP3 PUSH0 PUSH2 0x32BC DUP8 PUSH1 0x3 PUSH2 0x3957 JUMP JUMPDEST PUSH1 0x2 XOR SWAP1 POP PUSH2 0x32CB DUP2 DUP9 PUSH2 0x3957 JUMP JUMPDEST PUSH2 0x32D6 SWAP1 PUSH1 0x2 PUSH2 0x37ED JUMP JUMPDEST PUSH2 0x32E0 SWAP1 DUP3 PUSH2 0x3957 JUMP JUMPDEST SWAP1 POP PUSH2 0x32EC DUP2 DUP9 PUSH2 0x3957 JUMP JUMPDEST PUSH2 0x32F7 SWAP1 PUSH1 0x2 PUSH2 0x37ED JUMP JUMPDEST PUSH2 0x3301 SWAP1 DUP3 PUSH2 0x3957 JUMP JUMPDEST SWAP1 POP PUSH2 0x330D DUP2 DUP9 PUSH2 0x3957 JUMP JUMPDEST PUSH2 0x3318 SWAP1 PUSH1 0x2 PUSH2 0x37ED JUMP JUMPDEST PUSH2 0x3322 SWAP1 DUP3 PUSH2 0x3957 JUMP JUMPDEST SWAP1 POP PUSH2 0x332E DUP2 DUP9 PUSH2 0x3957 JUMP JUMPDEST PUSH2 0x3339 SWAP1 PUSH1 0x2 PUSH2 0x37ED JUMP JUMPDEST PUSH2 0x3343 SWAP1 DUP3 PUSH2 0x3957 JUMP JUMPDEST SWAP1 POP PUSH2 0x334F DUP2 DUP9 PUSH2 0x3957 JUMP JUMPDEST PUSH2 0x335A SWAP1 PUSH1 0x2 PUSH2 0x37ED JUMP JUMPDEST PUSH2 0x3364 SWAP1 DUP3 PUSH2 0x3957 JUMP JUMPDEST SWAP1 POP PUSH2 0x3370 DUP2 DUP9 PUSH2 0x3957 JUMP JUMPDEST PUSH2 0x337B SWAP1 PUSH1 0x2 PUSH2 0x37ED JUMP JUMPDEST PUSH2 0x3385 SWAP1 DUP3 PUSH2 0x3957 JUMP JUMPDEST SWAP1 POP PUSH2 0x3391 DUP2 DUP7 PUSH2 0x3957 JUMP JUMPDEST SWAP10 SWAP9 POP POP POP POP POP POP POP POP POP JUMP JUMPDEST PUSH1 0x40 DUP1 MLOAD PUSH1 0x1 PUSH1 0x1 PUSH1 0xA0 SHL SUB DUP5 DUP2 AND PUSH1 0x24 DUP4 ADD MSTORE PUSH1 0x44 DUP1 DUP4 ADD DUP6 SWAP1 MSTORE DUP4 MLOAD DUP1 DUP5 SUB SWAP1 SWAP2 ADD DUP2 MSTORE PUSH1 0x64 SWAP1 SWAP3 ADD DUP4 MSTORE PUSH1 0x20 DUP3 ADD DUP1 MLOAD PUSH1 0x1 PUSH1 0x1 PUSH1 0xE0 SHL SUB AND PUSH4 0x95EA7B3 PUSH1 0xE0 SHL OR SWAP1 MSTORE SWAP2 MLOAD PUSH0 SWAP3 DUP4 SWAP3 SWAP1 DUP8 AND SWAP2 PUSH2 0x33F9 SWAP2 SWAP1 PUSH2 0x3926 JUMP JUMPDEST PUSH0 PUSH1 0x40 MLOAD DUP1 DUP4 SUB DUP2 PUSH0 DUP7 GAS CALL SWAP2 POP POP RETURNDATASIZE DUP1 PUSH0 DUP2 EQ PUSH2 0x3432 JUMPI PUSH1 0x40 MLOAD SWAP2 POP PUSH1 0x1F NOT PUSH1 0x3F RETURNDATASIZE ADD AND DUP3 ADD PUSH1 0x40 MSTORE RETURNDATASIZE DUP3 MSTORE RETURNDATASIZE PUSH0 PUSH1 0x20 DUP5 ADD RETURNDATACOPY PUSH2 0x3437 JUMP JUMPDEST PUSH1 0x60 SWAP2 POP JUMPDEST POP SWAP2 POP SWAP2 POP DUP2 DUP1 ISZERO PUSH2 0x3461 JUMPI POP DUP1 MLOAD ISZERO DUP1 PUSH2 0x3461 JUMPI POP DUP1 DUP1 PUSH1 0x20 ADD SWAP1 MLOAD DUP2 ADD SWAP1 PUSH2 0x3461 SWAP2 SWAP1 PUSH2 0x393C JUMP JUMPDEST PUSH2 0x7C7 JUMPI PUSH1 0x40 MLOAD PUSH3 0x461BCD PUSH1 0xE5 SHL DUP2 MSTORE PUSH1 0x20 PUSH1 0x4 DUP3 ADD MSTORE PUSH1 0xE PUSH1 0x24 DUP3 ADD MSTORE PUSH14 0x1054141493D59157D19052531151 PUSH1 0x92 SHL PUSH1 0x44 DUP3 ADD MSTORE PUSH1 0x64 ADD PUSH2 0x48A JUMP JUMPDEST PUSH1 0x1 PUSH1 0x1 PUSH1 0xA0 SHL SUB DUP2 AND DUP2 EQ PUSH2 0x99B JUMPI PUSH0 PUSH0 REVERT JUMPDEST PUSH0 PUSH0 PUSH1 0x40 DUP4 DUP6 SUB SLT ISZERO PUSH2 0x34C3 JUMPI PUSH0 PUSH0 REVERT JUMPDEST DUP3 CALLDATALOAD PUSH2 0x34CE DUP2 PUSH2 0x349E JUMP JUMPDEST SWAP2 POP PUSH1 0x20 DUP4 ADD CALLDATALOAD PUSH2 0x34DE DUP2 PUSH2 0x349E JUMP JUMPDEST DUP1 SWAP2 POP POP SWAP3 POP SWAP3 SWAP1 POP JUMP JUMPDEST PUSH0 PUSH0 DUP4 PUSH1 0x1F DUP5 ADD SLT PUSH2 0x34F9 JUMPI PUSH0 PUSH0 REVERT JUMPDEST POP DUP2 CALLDATALOAD PUSH1 0x1 PUSH1 0x1 PUSH1 0x40 SHL SUB DUP2 GT ISZERO PUSH2 0x350F JUMPI PUSH0 PUSH0 REVERT JUMPDEST PUSH1 0x20 DUP4 ADD SWAP2 POP DUP4 PUSH1 0x20 DUP3 PUSH1 0x6 SHL DUP6 ADD ADD GT ISZERO PUSH2 0x3529 JUMPI PUSH0 PUSH0 REVERT JUMPDEST SWAP3 POP SWAP3 SWAP1 POP JUMP JUMPDEST PUSH4 0xFFFFFFFF DUP2 AND DUP2 EQ PUSH2 0x99B JUMPI PUSH0 PUSH0 REVERT JUMPDEST PUSH0 PUSH0 PUSH0 PUSH0 PUSH1 0x60 DUP6 DUP8 SUB SLT ISZERO PUSH2 0x3554 JUMPI PUSH0 PUSH0 REVERT JUMPDEST DUP5 CALLDATALOAD PUSH1 0x1 PUSH1 0x1 PUSH1 0x40 SHL SUB DUP2 GT ISZERO PUSH2 0x3569 JUMPI PUSH0 PUSH0 REVERT JUMPDEST PUSH2 0x3575 DUP8 DUP3 DUP9 ADD PUSH2 0x34E9 JUMP JUMPDEST SWAP1 SWAP6 POP SWAP4 POP POP PUSH1 0x20 DUP6 ADD CALLDATALOAD PUSH2 0x3589 DUP2 PUSH2 0x349E JUMP JUMPDEST SWAP2 POP PUSH1 0x40 DUP6 ADD CALLDATALOAD PUSH2 0x3599 DUP2 PUSH2 0x3530 JUMP JUMPDEST SWAP4 SWAP7 SWAP3 SWAP6 POP SWAP1 SWAP4 POP POP JUMP JUMPDEST PUSH4 0x4E487B71 PUSH1 0xE0 SHL PUSH0 MSTORE PUSH1 0x41 PUSH1 0x4 MSTORE PUSH1 0x24 PUSH0 REVERT JUMPDEST PUSH1 0x40 MLOAD PUSH1 0x1F DUP3 ADD PUSH1 0x1F NOT AND DUP2 ADD PUSH1 0x1 PUSH1 0x1 PUSH1 0x40 SHL SUB DUP2 GT DUP3 DUP3 LT OR ISZERO PUSH2 0x35E0 JUMPI PUSH2 0x35E0 PUSH2 0x35A4 JUMP JUMPDEST PUSH1 0x40 MSTORE SWAP2 SWAP1 POP JUMP JUMPDEST PUSH0 PUSH1 0x20 DUP3 DUP5 SUB SLT ISZERO PUSH2 0x35F8 JUMPI PUSH0 PUSH0 REVERT JUMPDEST DUP2 CALLDATALOAD PUSH1 0x1 PUSH1 0x1 PUSH1 0x40 SHL SUB DUP2 GT ISZERO PUSH2 0x360D JUMPI PUSH0 PUSH0 REVERT JUMPDEST DUP3 ADD PUSH1 0x1F DUP2 ADD DUP5 SGT PUSH2 0x361D JUMPI PUSH0 PUSH0 REVERT JUMPDEST DUP1 CALLDATALOAD PUSH1 0x1 PUSH1 0x1 PUSH1 0x40 SHL SUB DUP2 GT ISZERO PUSH2 0x3636 JUMPI PUSH2 0x3636 PUSH2 0x35A4 JUMP JUMPDEST PUSH2 0x3649 PUSH1 0x1F DUP3 ADD PUSH1 0x1F NOT AND PUSH1 0x20 ADD PUSH2 0x35B8 JUMP JUMPDEST DUP2 DUP2 MSTORE DUP6 PUSH1 0x20 DUP4 DUP6 ADD ADD GT ISZERO PUSH2 0x365D JUMPI PUSH0 PUSH0 REVERT JUMPDEST DUP2 PUSH1 0x20 DUP5 ADD PUSH1 0x20 DUP4 ADD CALLDATACOPY PUSH0 SWAP2 DUP2 ADD PUSH1 0x20 ADD SWAP2 SWAP1 SWAP2 MSTORE SWAP5 SWAP4 POP POP POP POP JUMP JUMPDEST DUP1 ISZERO ISZERO DUP2 EQ PUSH2 0x99B JUMPI PUSH0 PUSH0 REVERT JUMPDEST PUSH0 PUSH0 PUSH0 PUSH0 PUSH0 PUSH1 0x80 DUP7 DUP9 SUB SLT ISZERO PUSH2 0x369B JUMPI PUSH0 PUSH0 REVERT JUMPDEST DUP6 CALLDATALOAD PUSH1 0x1 PUSH1 0x1 PUSH1 0x40 SHL SUB DUP2 GT ISZERO PUSH2 0x36B0 JUMPI PUSH0 PUSH0 REVERT JUMPDEST PUSH2 0x36BC DUP9 DUP3 DUP10 ADD PUSH2 0x34E9 JUMP JUMPDEST SWAP1 SWAP7 POP SWAP5 POP POP PUSH1 0x20 DUP7 ADD CALLDATALOAD PUSH2 0x36D0 DUP2 PUSH2 0x349E JUMP JUMPDEST SWAP3 POP PUSH1 0x40 DUP7 ADD CALLDATALOAD PUSH2 0x36E0 DUP2 PUSH2 0x3530 JUMP JUMPDEST SWAP2 POP PUSH1 0x60 DUP7 ADD CALLDATALOAD PUSH2 0x36F0 DUP2 PUSH2 0x367A JUMP JUMPDEST DUP1 SWAP2 POP POP SWAP3 SWAP6 POP SWAP3 SWAP6 SWAP1 SWAP4 POP JUMP JUMPDEST PUSH0 PUSH1 0x20 DUP3 DUP5 SUB SLT ISZERO PUSH2 0x370E JUMPI PUSH0 PUSH0 REVERT JUMPDEST POP CALLDATALOAD SWAP2 SWAP1 POP JUMP JUMPDEST PUSH0 PUSH1 0x20 DUP3 DUP5 SUB SLT ISZERO PUSH2 0x3725 JUMPI PUSH0 PUSH0 REVERT JUMPDEST DUP2 CALLDATALOAD PUSH2 0x2A18 DUP2 PUSH2 0x349E JUMP JUMPDEST PUSH0 PUSH1 0x20 DUP3 DUP5 SUB SLT ISZERO PUSH2 0x3740 JUMPI PUSH0 PUSH0 REVERT JUMPDEST DUP2 MLOAD PUSH2 0x2A18 DUP2 PUSH2 0x349E JUMP JUMPDEST PUSH1 0x20 DUP1 DUP3 MSTORE PUSH1 0x17 SWAP1 DUP3 ADD MSTORE PUSH32 0x43616C6C6572206973206E6F7420746865206F776E6572000000000000000000 PUSH1 0x40 DUP3 ADD MSTORE PUSH1 0x60 ADD SWAP1 JUMP JUMPDEST PUSH0 DUP2 MLOAD DUP1 DUP5 MSTORE DUP1 PUSH1 0x20 DUP5 ADD PUSH1 0x20 DUP7 ADD MCOPY PUSH0 PUSH1 0x20 DUP3 DUP7 ADD ADD MSTORE PUSH1 0x20 PUSH1 0x1F NOT PUSH1 0x1F DUP4 ADD AND DUP6 ADD ADD SWAP2 POP POP SWAP3 SWAP2 POP POP JUMP JUMPDEST PUSH1 0x20 DUP2 MSTORE PUSH0 PUSH2 0x2A18 PUSH1 0x20 DUP4 ADD DUP5 PUSH2 0x3782 JUMP JUMPDEST PUSH0 PUSH1 0x20 DUP3 DUP5 SUB SLT ISZERO PUSH2 0x37D2 JUMPI PUSH0 PUSH0 REVERT JUMPDEST POP MLOAD SWAP2 SWAP1 POP JUMP JUMPDEST PUSH4 0x4E487B71 PUSH1 0xE0 SHL PUSH0 MSTORE PUSH1 0x11 PUSH1 0x4 MSTORE PUSH1 0x24 PUSH0 REVERT JUMPDEST DUP2 DUP2 SUB DUP2 DUP2 GT ISZERO PUSH2 0x66B JUMPI PUSH2 0x66B PUSH2 0x37D9 JUMP JUMPDEST PUSH4 0x4E487B71 PUSH1 0xE0 SHL PUSH0 MSTORE PUSH1 0x32 PUSH1 0x4 MSTORE PUSH1 0x24 PUSH0 REVERT JUMPDEST PUSH2 0xFFFF DUP2 AND DUP2 EQ PUSH2 0x99B JUMPI PUSH0 PUSH0 REVERT JUMPDEST PUSH0 PUSH1 0x20 DUP3 DUP5 SUB SLT ISZERO PUSH2 0x3833 JUMPI PUSH0 PUSH0 REVERT JUMPDEST DUP2 CALLDATALOAD PUSH2 0x2A18 DUP2 PUSH2 0x3814 JUMP JUMPDEST PUSH4 0x4E487B71 PUSH1 0xE0 SHL PUSH0 MSTORE PUSH1 0x12 PUSH1 0x4 MSTORE PUSH1 0x24 PUSH0 REVERT JUMPDEST PUSH1 0x40 DUP2 MSTORE PUSH0 PUSH2 0x3864 PUSH1 0x40 DUP4 ADD DUP6 PUSH2 0x3782 JUMP JUMPDEST DUP3 DUP2 SUB PUSH1 0x20 DUP5 ADD MSTORE DUP1 DUP5 MLOAD DUP1 DUP4 MSTORE PUSH1 0x20 DUP4 ADD SWAP2 POP PUSH1 0x20 DUP2 PUSH1 0x5 SHL DUP5 ADD ADD PUSH1 0x20 DUP8 ADD PUSH0 JUMPDEST DUP4 DUP2 LT ISZERO PUSH2 0x38B9 JUMPI PUSH1 0x1F NOT DUP7 DUP5 SUB ADD DUP6 MSTORE PUSH2 0x38A3 DUP4 DUP4 MLOAD PUSH2 0x3782 JUMP JUMPDEST PUSH1 0x20 SWAP6 DUP7 ADD SWAP6 SWAP1 SWAP4 POP SWAP2 SWAP1 SWAP2 ADD SWAP1 PUSH1 0x1 ADD PUSH2 0x3887 JUMP JUMPDEST POP SWAP1 SWAP9 SWAP8 POP POP POP POP POP POP POP POP JUMP JUMPDEST DUP1 MLOAD PUSH1 0x1 PUSH1 0x1 PUSH1 0x70 SHL SUB DUP2 AND DUP2 EQ PUSH2 0x38DD JUMPI PUSH0 PUSH0 REVERT JUMPDEST SWAP2 SWAP1 POP JUMP JUMPDEST PUSH0 PUSH0 PUSH0 PUSH1 0x60 DUP5 DUP7 SUB SLT ISZERO PUSH2 0x38F4 JUMPI PUSH0 PUSH0 REVERT JUMPDEST PUSH2 0x38FD DUP5 PUSH2 0x38C7 JUMP JUMPDEST SWAP3 POP PUSH2 0x390B PUSH1 0x20 DUP6 ADD PUSH2 0x38C7 JUMP JUMPDEST SWAP2 POP PUSH1 0x40 DUP5 ADD MLOAD PUSH2 0x391B DUP2 PUSH2 0x3530 JUMP JUMPDEST DUP1 SWAP2 POP POP SWAP3 POP SWAP3 POP SWAP3 JUMP JUMPDEST PUSH0 DUP3 MLOAD DUP1 PUSH1 0x20 DUP6 ADD DUP5 MCOPY PUSH0 SWAP3 ADD SWAP2 DUP3 MSTORE POP SWAP2 SWAP1 POP JUMP JUMPDEST PUSH0 PUSH1 0x20 DUP3 DUP5 SUB SLT ISZERO PUSH2 0x394C JUMPI PUSH0 PUSH0 REVERT JUMPDEST DUP2 MLOAD PUSH2 0x2A18 DUP2 PUSH2 0x367A JUMP JUMPDEST DUP1 DUP3 MUL DUP2 ISZERO DUP3 DUP3 DIV DUP5 EQ OR PUSH2 0x66B JUMPI PUSH2 0x66B PUSH2 0x37D9 JUMP JUMPDEST PUSH0 DUP3 PUSH2 0x397C JUMPI PUSH2 0x397C PUSH2 0x383E JUMP JUMPDEST POP DIV SWAP1 JUMP JUMPDEST PUSH1 0x20 DUP1 DUP3 MSTORE DUP3 MLOAD DUP3 DUP3 ADD DUP2 SWAP1 MSTORE PUSH0 SWAP2 DUP5 ADD SWAP1 PUSH1 0x40 DUP5 ADD SWAP1 DUP4 JUMPDEST DUP2 DUP2 LT ISZERO PUSH2 0x39BE JUMPI DUP4 MLOAD PUSH4 0xFFFFFFFF AND DUP4 MSTORE PUSH1 0x20 SWAP4 DUP5 ADD SWAP4 SWAP1 SWAP3 ADD SWAP2 PUSH1 0x1 ADD PUSH2 0x399A JUMP JUMPDEST POP SWAP1 SWAP6 SWAP5 POP POP POP POP POP JUMP JUMPDEST PUSH0 PUSH1 0x1 PUSH1 0x1 PUSH1 0x40 SHL SUB DUP3 GT ISZERO PUSH2 0x39E1 JUMPI PUSH2 0x39E1 PUSH2 0x35A4 JUMP JUMPDEST POP PUSH1 0x5 SHL PUSH1 0x20 ADD SWAP1 JUMP JUMPDEST PUSH0 DUP3 PUSH1 0x1F DUP4 ADD SLT PUSH2 0x39FA JUMPI PUSH0 PUSH0 REVERT JUMPDEST DUP2 MLOAD PUSH2 0x3A0D PUSH2 0x3A08 DUP3 PUSH2 0x39C9 JUMP JUMPDEST PUSH2 0x35B8 JUMP JUMPDEST DUP1 DUP3 DUP3 MSTORE PUSH1 0x20 DUP3 ADD SWAP2 POP PUSH1 0x20 DUP4 PUSH1 0x5 SHL DUP7 ADD ADD SWAP3 POP DUP6 DUP4 GT ISZERO PUSH2 0x3A2E JUMPI PUSH0 PUSH0 REVERT JUMPDEST PUSH1 0x20 DUP6 ADD JUMPDEST DUP4 DUP2 LT ISZERO PUSH2 0x3A54 JUMPI DUP1 MLOAD PUSH2 0x3A46 DUP2 PUSH2 0x349E JUMP JUMPDEST DUP4 MSTORE PUSH1 0x20 SWAP3 DUP4 ADD SWAP3 ADD PUSH2 0x3A33 JUMP JUMPDEST POP SWAP6 SWAP5 POP POP POP POP POP JUMP JUMPDEST PUSH0 PUSH0 PUSH1 0x40 DUP4 DUP6 SUB SLT ISZERO PUSH2 0x3A6F JUMPI PUSH0 PUSH0 REVERT JUMPDEST DUP3 MLOAD PUSH1 0x1 PUSH1 0x1 PUSH1 0x40 SHL SUB DUP2 GT ISZERO PUSH2 0x3A84 JUMPI PUSH0 PUSH0 REVERT JUMPDEST DUP4 ADD PUSH1 0x1F DUP2 ADD DUP6 SGT PUSH2 0x3A94 JUMPI PUSH0 PUSH0 REVERT JUMPDEST DUP1 MLOAD PUSH2 0x3AA2 PUSH2 0x3A08 DUP3 PUSH2 0x39C9 JUMP JUMPDEST DUP1 DUP3 DUP3 MSTORE PUSH1 0x20 DUP3 ADD SWAP2 POP PUSH1 0x20 DUP4 PUSH1 0x5 SHL DUP6 ADD ADD SWAP3 POP DUP8 DUP4 GT ISZERO PUSH2 0x3AC3 JUMPI PUSH0 PUSH0 REVERT JUMPDEST PUSH1 0x20 DUP5 ADD SWAP4 POP JUMPDEST DUP3 DUP5 LT ISZERO PUSH2 0x3AF3 JUMPI DUP4 MLOAD DUP1 PUSH1 0x6 SIGNEXTEND DUP2 EQ PUSH2 0x3AE2 JUMPI PUSH0 PUSH0 REVERT JUMPDEST DUP3 MSTORE PUSH1 0x20 SWAP4 DUP5 ADD SWAP4 SWAP1 SWAP2 ADD SWAP1 PUSH2 0x3ACA JUMP JUMPDEST DUP1 SWAP6 POP POP POP POP POP PUSH1 0x20 DUP4 ADD MLOAD PUSH1 0x1 PUSH1 0x1 PUSH1 0x40 SHL SUB DUP2 GT ISZERO PUSH2 0x3B12 JUMPI PUSH0 PUSH0 REVERT JUMPDEST PUSH2 0x3B1E DUP6 DUP3 DUP7 ADD PUSH2 0x39EB JUMP JUMPDEST SWAP2 POP POP SWAP3 POP SWAP3 SWAP1 POP JUMP JUMPDEST PUSH0 PUSH0 PUSH0 PUSH0 PUSH0 PUSH0 PUSH0 PUSH1 0xE0 DUP9 DUP11 SUB SLT ISZERO PUSH2 0x3B3E JUMPI PUSH0 PUSH0 REVERT JUMPDEST DUP8 MLOAD PUSH2 0x3B49 DUP2 PUSH2 0x349E JUMP JUMPDEST DUP1 SWAP8 POP POP PUSH1 0x20 DUP9 ADD MLOAD DUP1 PUSH1 0x2 SIGNEXTEND DUP2 EQ PUSH2 0x3B60 JUMPI PUSH0 PUSH0 REVERT JUMPDEST PUSH1 0x40 DUP10 ADD MLOAD SWAP1 SWAP7 POP PUSH2 0x3B71 DUP2 PUSH2 0x3814 JUMP JUMPDEST PUSH1 0x60 DUP10 ADD MLOAD SWAP1 SWAP6 POP PUSH2 0x3B82 DUP2 PUSH2 0x3814 JUMP JUMPDEST PUSH1 0x80 DUP10 ADD MLOAD SWAP1 SWAP5 POP PUSH2 0x3B93 DUP2 PUSH2 0x3814 JUMP JUMPDEST PUSH1 0xA0 DUP10 ADD MLOAD SWAP1 SWAP4 POP PUSH1 0xFF DUP2 AND DUP2 EQ PUSH2 0x3BA9 JUMPI PUSH0 PUSH0 REVERT JUMPDEST PUSH1 0xC0 DUP10 ADD MLOAD SWAP1 SWAP3 POP PUSH2 0x3BBA DUP2 PUSH2 0x367A JUMP JUMPDEST DUP1 SWAP2 POP POP SWAP3 SWAP6 SWAP9 SWAP2 SWAP5 SWAP8 POP SWAP3 SWAP6 POP JUMP JUMPDEST PUSH1 0x1 DUP1 PUSH1 0xA0 SHL SUB DUP7 AND DUP2 MSTORE DUP5 PUSH1 0x20 DUP3 ADD MSTORE DUP4 PUSH1 0x40 DUP3 ADD MSTORE PUSH1 0xA0 PUSH1 0x60 DUP3 ADD MSTORE PUSH0 PUSH2 0x3BF6 PUSH1 0xA0 DUP4 ADD DUP6 PUSH2 0x3782 JUMP JUMPDEST SWAP1 POP DUP3 ISZERO ISZERO PUSH1 0x80 DUP4 ADD MSTORE SWAP7 SWAP6 POP POP POP POP POP POP JUMP JUMPDEST PUSH0 DUP2 MLOAD DUP1 DUP5 MSTORE PUSH1 0x20 DUP5 ADD SWAP4 POP PUSH1 0x20 DUP4 ADD PUSH0 JUMPDEST DUP3 DUP2 LT ISZERO PUSH2 0x3C43 JUMPI DUP2 MLOAD PUSH1 0x1 PUSH1 0x1 PUSH1 0xA0 SHL SUB AND DUP7 MSTORE PUSH1 0x20 SWAP6 DUP7 ADD SWAP6 SWAP1 SWAP2 ADD SWAP1 PUSH1 0x1 ADD PUSH2 0x3C1C JUMP JUMPDEST POP SWAP4 SWAP5 SWAP4 POP POP POP POP JUMP JUMPDEST DUP3 DUP2 MSTORE PUSH1 0x40 PUSH1 0x20 DUP3 ADD MSTORE PUSH0 PUSH2 0x2A15 PUSH1 0x40 DUP4 ADD DUP5 PUSH2 0x3C0A JUMP JUMPDEST PUSH0 PUSH1 0x20 DUP3 DUP5 SUB SLT ISZERO PUSH2 0x3C75 JUMPI PUSH0 PUSH0 REVERT JUMPDEST DUP2 MLOAD PUSH1 0x1 PUSH1 0x1 PUSH1 0x40 SHL SUB DUP2 GT ISZERO PUSH2 0x3C8A JUMPI PUSH0 PUSH0 REVERT JUMPDEST DUP3 ADD PUSH1 0x1F DUP2 ADD DUP5 SGT PUSH2 0x3C9A JUMPI PUSH0 PUSH0 REVERT JUMPDEST DUP1 MLOAD PUSH2 0x3CA8 PUSH2 0x3A08 DUP3 PUSH2 0x39C9 JUMP JUMPDEST DUP1 DUP3 DUP3 MSTORE PUSH1 0x20 DUP3 ADD SWAP2 POP PUSH1 0x20 DUP4 PUSH1 0x5 SHL DUP6 ADD ADD SWAP3 POP DUP7 DUP4 GT ISZERO PUSH2 0x3CC9 JUMPI PUSH0 PUSH0 REVERT JUMPDEST PUSH1 0x20 DUP5 ADD SWAP4 POP JUMPDEST DUP3 DUP5 LT ISZERO PUSH2 0x3CEB JUMPI DUP4 MLOAD DUP3 MSTORE PUSH1 0x20 SWAP4 DUP5 ADD SWAP4 SWAP1 SWAP2 ADD SWAP1 PUSH2 0x3CD0 JUMP JUMPDEST SWAP7 SWAP6 POP POP POP POP POP POP JUMP JUMPDEST PUSH1 0x1 DUP1 PUSH1 0xA0 SHL SUB DUP7 AND DUP2 MSTORE DUP5 PUSH1 0x20 DUP3 ADD MSTORE DUP4 PUSH1 0x40 DUP3 ADD MSTORE PUSH1 0xA0 PUSH1 0x60 DUP3 ADD MSTORE PUSH0 PUSH2 0x3BF6 PUSH1 0xA0 DUP4 ADD DUP6 PUSH2 0x3C0A JUMP JUMPDEST PUSH1 0x6 DUP3 DUP2 SIGNEXTEND SWAP1 DUP3 SWAP1 SIGNEXTEND SUB PUSH7 0x7FFFFFFFFFFFFF NOT DUP2 SLT PUSH7 0x7FFFFFFFFFFFFF DUP3 SGT OR ISZERO PUSH2 0x66B JUMPI PUSH2 0x66B PUSH2 0x37D9 JUMP JUMPDEST DUP1 MLOAD PUSH6 0xFFFFFFFFFFFF DUP2 AND DUP2 EQ PUSH2 0x38DD JUMPI PUSH0 PUSH0 REVERT JUMPDEST PUSH0 PUSH0 PUSH0 PUSH1 0x60 DUP5 DUP7 SUB SLT ISZERO PUSH2 0x3D75 JUMPI PUSH0 PUSH0 REVERT JUMPDEST DUP4 MLOAD PUSH2 0x3D80 DUP2 PUSH2 0x349E JUMP JUMPDEST SWAP3 POP PUSH2 0x3D8E PUSH1 0x20 DUP6 ADD PUSH2 0x3D4E JUMP JUMPDEST SWAP2 POP PUSH2 0x3D9C PUSH1 0x40 DUP6 ADD PUSH2 0x3D4E JUMP JUMPDEST SWAP1 POP SWAP3 POP SWAP3 POP SWAP3 JUMP JUMPDEST PUSH0 DUP2 PUSH1 0x6 SIGNEXTEND DUP4 PUSH1 0x6 SIGNEXTEND DUP1 PUSH2 0x3DBB JUMPI PUSH2 0x3DBB PUSH2 0x383E JUMP JUMPDEST PUSH7 0x7FFFFFFFFFFFFF NOT DUP3 EQ PUSH0 NOT DUP3 EQ AND ISZERO PUSH2 0x3DD8 JUMPI PUSH2 0x3DD8 PUSH2 0x37D9 JUMP JUMPDEST SWAP1 SDIV SWAP4 SWAP3 POP POP POP JUMP JUMPDEST PUSH0 DUP3 PUSH1 0x6 SIGNEXTEND DUP1 PUSH2 0x3DF3 JUMPI PUSH2 0x3DF3 PUSH2 0x383E JUMP JUMPDEST DUP1 DUP4 PUSH1 0x6 SIGNEXTEND SMOD SWAP2 POP POP SWAP3 SWAP2 POP POP JUMP JUMPDEST PUSH0 PUSH1 0x1 PUSH1 0xFF SHL DUP3 ADD PUSH2 0x3E16 JUMPI PUSH2 0x3E16 PUSH2 0x37D9 JUMP JUMPDEST POP PUSH0 SUB SWAP1 JUMP JUMPDEST PUSH0 DUP2 PUSH1 0x2 SIGNEXTEND PUSH3 0x7FFFFF NOT DUP2 SUB PUSH2 0x3E34 JUMPI PUSH2 0x3E34 PUSH2 0x37D9 JUMP JUMPDEST PUSH0 SUB SWAP3 SWAP2 POP POP JUMP JUMPDEST PUSH0 DUP3 PUSH2 0x3E4A JUMPI PUSH2 0x3E4A PUSH2 0x383E JUMP JUMPDEST POP MOD SWAP1 JUMP JUMPDEST DUP1 DUP3 ADD DUP1 DUP3 GT ISZERO PUSH2 0x66B JUMPI PUSH2 0x66B PUSH2 0x37D9 JUMP INVALID LOG2 PUSH5 0x6970667358 0x22 SLT KECCAK256 SGT TIMESTAMP PUSH7 0x44D7B7BE606178 SWAP3 0xD4 DUP10 SLT 0xD9 BYTE PUSH2 0x7C5C 0xDC REVERT 0xB2 DUP9 POP SWAP3 DUP4 DUP9 PUSH4 0xD9C80D57 PUSH5 0x736F6C6343 STOP ADDMOD 0x1E STOP CALLER "
		},
		"gasEstimates": {
			"creation": {
				"codeDepositCost": "3204800",
				"executionCost": "infinite",
				"totalCost": "infinite"
			},
			"external": {
				"Directory()": "2347",
				"changeDirectoryAddress(address)": "infinite",
				"fetchFromDirectory(string)": "infinite",
				"getBestWethPool(address)": "infinite",
				"getBestWethPoolUpdatable(address)": "infinite",
				"owner()": "infinite",
				"permit2()": "infinite",
				"recoverAsset(address,address)": "infinite",
				"setStaleTimePoolCache(uint256)": "infinite",
				"staleTime()": "2339",
				"swapEthToMultipleTokens((address,uint16)[],address,uint32)": "infinite",
				"swapMultipleTokensToEth((address,uint256)[],address,uint32,bool)": "infinite",
				"uRouter()": "infinite",
				"v2Factory()": "infinite",
				"v2Router()": "infinite",
				"v3Factory()": "infinite",
				"wethAddress()": "infinite"
			}
		},
		"methodIdentifiers": {
			"Directory()": "658a847a",
			"changeDirectoryAddress(address)": "ba4c7be1",
			"fetchFromDirectory(string)": "27262618",
			"getBestWethPool(address)": "df697cc4",
			"getBestWethPoolUpdatable(address)": "d32563c8",
			"owner()": "8da5cb5b",
			"permit2()": "12261ee7",
			"recoverAsset(address,address)": "09053ac4",
			"setStaleTimePoolCache(uint256)": "a7590163",
			"staleTime()": "38b88052",
			"swapEthToMultipleTokens((address,uint16)[],address,uint32)": "1623306b",
			"swapMultipleTokensToEth((address,uint256)[],address,uint32,bool)": "3814bc6e",
			"uRouter()": "5cf39049",
			"v2Factory()": "b4b57c39",
			"v2Router()": "deadbc14",
			"v3Factory()": "7c887c59",
			"wethAddress()": "4f0e0ef3"
		}
	},
	"abi": [
		{
			"inputs": [
				{
					"internalType": "address",
					"name": "_directory",
					"type": "address"
				},
				{
					"internalType": "address",
					"name": "_v2Router",
					"type": "address"
				},
				{
					"internalType": "address",
					"name": "_v3Factory",
					"type": "address"
				},
				{
					"internalType": "address",
					"name": "_universalRouter",
					"type": "address"
				},
				{
					"internalType": "address",
					"name": "_permit2",
					"type": "address"
				}
			],
			"stateMutability": "nonpayable",
			"type": "constructor"
		},
		{
			"inputs": [],
			"name": "AllowanceTooLow",
			"type": "error"
		},
		{
			"inputs": [],
			"name": "BadToken",
			"type": "error"
		},
		{
			"inputs": [],
			"name": "ETHSendFailed",
			"type": "error"
		},
		{
			"inputs": [],
			"name": "ETHSendFailure",
			"type": "error"
		},
		{
			"inputs": [],
			"name": "InsufficientETH",
			"type": "error"
		},
		{
			"inputs": [],
			"name": "InsufficientETH",
			"type": "error"
		},
		{
			"inputs": [],
			"name": "InvalidInput",
			"type": "error"
		},
		{
			"inputs": [],
			"name": "NoPoolFound",
			"type": "error"
		},
		{
			"inputs": [],
			"name": "NoSwaps",
			"type": "error"
		},
		{
			"inputs": [],
			"name": "NothingReceived",
			"type": "error"
		},
		{
			"inputs": [],
			"name": "PreTransferInsufficient",
			"type": "error"
		},
		{
			"inputs": [],
			"name": "QuoteUnavailable",
			"type": "error"
		},
		{
			"inputs": [],
			"name": "TokenIsWETH",
			"type": "error"
		},
		{
			"inputs": [],
			"name": "WeightsInvalid",
			"type": "error"
		},
		{
			"inputs": [],
			"name": "ZeroAddress",
			"type": "error"
		},
		{
			"inputs": [],
			"name": "ZeroAmount",
			"type": "error"
		},
		{
			"inputs": [],
			"name": "Directory",
			"outputs": [
				{
					"internalType": "contract IDirectory",
					"name": "",
					"type": "address"
				}
			],
			"stateMutability": "view",
			"type": "function"
		},
		{
			"inputs": [
				{
					"internalType": "address",
					"name": "_directory",
					"type": "address"
				}
			],
			"name": "changeDirectoryAddress",
			"outputs": [],
			"stateMutability": "nonpayable",
			"type": "function"
		},
		{
			"inputs": [
				{
					"internalType": "string",
					"name": "_key",
					"type": "string"
				}
			],
			"name": "fetchFromDirectory",
			"outputs": [
				{
					"internalType": "address",
					"name": "",
					"type": "address"
				}
			],
			"stateMutability": "view",
			"type": "function"
		},
		{
			"inputs": [
				{
					"internalType": "address",
					"name": "tokenAddress",
					"type": "address"
				}
			],
			"name": "getBestWethPool",
			"outputs": [
				{
					"components": [
						{
							"internalType": "address",
							"name": "poolAddress",
							"type": "address"
						},
						{
							"internalType": "uint24",
							"name": "poolFee",
							"type": "uint24"
						},
						{
							"internalType": "uint8",
							"name": "isV3Pool",
							"type": "uint8"
						},
						{
							"internalType": "uint64",
							"name": "lastCached",
							"type": "uint64"
						}
					],
					"internalType": "struct Pool",
					"name": "pool",
					"type": "tuple"
				}
			],
			"stateMutability": "view",
			"type": "function"
		},
		{
			"inputs": [
				{
					"internalType": "address",
					"name": "tokenAddress",
					"type": "address"
				}
			],
			"name": "getBestWethPoolUpdatable",
			"outputs": [
				{
					"components": [
						{
							"internalType": "address",
							"name": "poolAddress",
							"type": "address"
						},
						{
							"internalType": "uint24",
							"name": "poolFee",
							"type": "uint24"
						},
						{
							"internalType": "uint8",
							"name": "isV3Pool",
							"type": "uint8"
						},
						{
							"internalType": "uint64",
							"name": "lastCached",
							"type": "uint64"
						}
					],
					"internalType": "struct Pool",
					"name": "out",
					"type": "tuple"
				}
			],
			"stateMutability": "nonpayable",
			"type": "function"
		},
		{
			"inputs": [],
			"name": "owner",
			"outputs": [
				{
					"internalType": "address",
					"name": "",
					"type": "address"
				}
			],
			"stateMutability": "view",
			"type": "function"
		},
		{
			"inputs": [],
			"name": "permit2",
			"outputs": [
				{
					"internalType": "contract IPermit2",
					"name": "",
					"type": "address"
				}
			],
			"stateMutability": "view",
			"type": "function"
		},
		{
			"inputs": [
				{
					"internalType": "address",
					"name": "tokenAddress",
					"type": "address"
				},
				{
					"internalType": "address",
					"name": "toAddress",
					"type": "address"
				}
			],
			"name": "recoverAsset",
			"outputs": [],
			"stateMutability": "nonpayable",
			"type": "function"
		},
		{
			"inputs": [
				{
					"internalType": "uint256",
					"name": "newStaleTime",
					"type": "uint256"
				}
			],
			"name": "setStaleTimePoolCache",
			"outputs": [],
			"stateMutability": "nonpayable",
			"type": "function"
		},
		{
			"inputs": [],
			"name": "staleTime",
			"outputs": [
				{
					"internalType": "uint256",
					"name": "",
					"type": "uint256"
				}
			],
			"stateMutability": "view",
			"type": "function"
		},
		{
			"inputs": [
				{
					"components": [
						{
							"internalType": "address",
							"name": "tokenAddress",
							"type": "address"
						},
						{
							"internalType": "uint16",
							"name": "weightBips",
							"type": "uint16"
						}
					],
					"internalType": "struct MultiTokenOutput[]",
					"name": "outputs",
					"type": "tuple[]"
				},
				{
					"internalType": "address",
					"name": "recipientAddress",
					"type": "address"
				},
				{
					"internalType": "uint32",
					"name": "slippageBps",
					"type": "uint32"
				}
			],
			"name": "swapEthToMultipleTokens",
			"outputs": [],
			"stateMutability": "payable",
			"type": "function"
		},
		{
			"inputs": [
				{
					"components": [
						{
							"internalType": "address",
							"name": "tokenAddress",
							"type": "address"
						},
						{
							"internalType": "uint256",
							"name": "amount",
							"type": "uint256"
						}
					],
					"internalType": "struct MultiTokenInput[]",
					"name": "inputsIn",
					"type": "tuple[]"
				},
				{
					"internalType": "address payable",
					"name": "recipientAddress",
					"type": "address"
				},
				{
					"internalType": "uint32",
					"name": "slippageBps",
					"type": "uint32"
				},
				{
					"internalType": "bool",
					"name": "preTransferred",
					"type": "bool"
				}
			],
			"name": "swapMultipleTokensToEth",
			"outputs": [],
			"stateMutability": "nonpayable",
			"type": "function"
		},
		{
			"inputs": [],
			"name": "uRouter",
			"outputs": [
				{
					"internalType": "contract IUniversalRouter",
					"name": "",
					"type": "address"
				}
			],
			"stateMutability": "view",
			"type": "function"
		},
		{
			"inputs": [],
			"name": "v2Factory",
			"outputs": [
				{
					"internalType": "contract IUniswapV2Factory",
					"name": "",
					"type": "address"
				}
			],
			"stateMutability": "view",
			"type": "function"
		},
		{
			"inputs": [],
			"name": "v2Router",
			"outputs": [
				{
					"internalType": "contract IUniswapV2Router02",
					"name": "",
					"type": "address"
				}
			],
			"stateMutability": "view",
			"type": "function"
		},
		{
			"inputs": [],
			"name": "v3Factory",
			"outputs": [
				{
					"internalType": "contract IUniswapV3Factory",
					"name": "",
					"type": "address"
				}
			],
			"stateMutability": "view",
			"type": "function"
		},
		{
			"inputs": [],
			"name": "wethAddress",
			"outputs": [
				{
					"internalType": "address",
					"name": "",
					"type": "address"
				}
			],
			"stateMutability": "view",
			"type": "function"
		},
		{
			"stateMutability": "payable",
			"type": "receive"
		}
	]
}