{
	"data": {
		"bytecode": {
			"linkReferences": {},
			"object": "60a060405234801561000f575f5ffd5b50604051614c7f380380614c7f83398181016040528101906100319190610296565b80828073ffffffffffffffffffffffffffffffffffffffff1660808173ffffffffffffffffffffffffffffffffffffffff16815250505060015f8190555061007e8161008660201b60201c565b50505061046d565b5f73ffffffffffffffffffffffffffffffffffffffff168173ffffffffffffffffffffffffffffffffffffffff16036100f4576040517f08c379a00000000000000000000000000000000000000000000000000000000081526004016100eb9061032e565b60405180910390fd5b5f8173ffffffffffffffffffffffffffffffffffffffff163b1161014d576040517f08c379a000000000000000000000000000000000000000000000000000000000815260040161014490610396565b60405180910390fd5b8073ffffffffffffffffffffffffffffffffffffffff16638da5cb5b6040518163ffffffff1660e01b8152600401602060405180830381865afa9250505080156101b557506040513d601f19601f820116820180604052508101906101b291906103b4565b60015b6101f4576040517f08c379a00000000000000000000000000000000000000000000000000000000081526004016101eb9061044f565b60405180910390fd5b8160015f6101000a81548173ffffffffffffffffffffffffffffffffffffffff021916908373ffffffffffffffffffffffffffffffffffffffff1602179055505050565b5f5ffd5b5f73ffffffffffffffffffffffffffffffffffffffff82169050919050565b5f6102658261023c565b9050919050565b6102758161025b565b811461027f575f5ffd5b50565b5f815190506102908161026c565b92915050565b5f5f604083850312156102ac576102ab610238565b5b5f6102b985828601610282565b92505060206102ca85828601610282565b9150509250929050565b5f82825260208201905092915050565b7f4469726563746f72792063616e6e6f74206265207a65726f20616464726573735f82015250565b5f6103186020836102d4565b9150610323826102e4565b602082019050919050565b5f6020820190508181035f8301526103458161030c565b9050919050565b7f4469726563746f7279206d757374206265206120636f6e7472616374000000005f82015250565b5f610380601c836102d4565b915061038b8261034c565b602082019050919050565b5f6020820190508181035f8301526103ad81610374565b9050919050565b5f602082840312156103c9576103c8610238565b5b5f6103d684828501610282565b91505092915050565b7f4469726563746f7279206164647265737320646f6573206e6f7420696d706c655f8201527f6d656e74206f776e657228290000000000000000000000000000000000000000602082015250565b5f610439602c836102d4565b9150610444826103df565b604082019050919050565b5f6020820190508181035f8301526104668161042d565b9050919050565b6080516147de6104a15f395f8181610284015281816109f8015281816118c70152818161198c015261256801526147de5ff3fe608060405260043610610089575f3560e01c8063658a847a11610058578063658a847a146101b35780638da5cb5b146101dd578063acec338a14610207578063ba4c7be11461022f578063f887ea401461025757610105565b806309053ac414610109578063192b58871461013157806322f3e2d41461014d578063272626181461017757610105565b3661010557610096610281565b73ffffffffffffffffffffffffffffffffffffffff163373ffffffffffffffffffffffffffffffffffffffff1614610103576040517f08c379a00000000000000000000000000000000000000000000000000000000081526004016100fa906128ec565b60405180910390fd5b005b5f5ffd5b348015610114575f5ffd5b5061012f600480360381019061012a9190612975565b610314565b005b61014b60048036038101906101469190612af1565b61041d565b005b348015610158575f5ffd5b5061016161066a565b60405161016e9190612bf4565b60405180910390f35b348015610182575f5ffd5b5061019d60048036038101906101989190612d45565b61067d565b6040516101aa9190612d9b565b60405180910390f35b3480156101be575f5ffd5b506101c761071e565b6040516101d49190612e0f565b60405180910390f35b3480156101e8575f5ffd5b506101f1610743565b6040516101fe9190612d9b565b60405180910390f35b348015610212575f5ffd5b5061022d60048036038101906102289190612e52565b6107d7565b005b34801561023a575f5ffd5b5061025560048036038101906102509190612e7d565b6108ef565b005b348015610262575f5ffd5b5061026b6109f6565b6040516102789190612ec8565b60405180910390f35b5f7f000000000000000000000000000000000000000000000000000000000000000073ffffffffffffffffffffffffffffffffffffffff1663ad5c46486040518163ffffffff1660e01b8152600401602060405180830381865afa1580156102eb573d5f5f3e3d5ffd5b505050506040513d601f19601f8201168201806040525081019061030f9190612ef5565b905090565b60015f9054906101000a900473ffffffffffffffffffffffffffffffffffffffff1673ffffffffffffffffffffffffffffffffffffffff16638da5cb5b6040518163ffffffff1660e01b8152600401602060405180830381865afa15801561037e573d5f5f3e3d5ffd5b505050506040513d601f19601f820116820180604052508101906103a29190612ef5565b73ffffffffffffffffffffffffffffffffffffffff163373ffffffffffffffffffffffffffffffffffffffff161461040f576040517f08c379a000000000000000000000000000000000000000000000000000000000815260040161040690612f6a565b60405180910390fd5b6104198282610a1a565b5050565b610425610a28565b600160149054906101000a900460ff16610474576040517f08c379a000000000000000000000000000000000000000000000000000000000815260040161046b90612fd2565b60405180910390fd5b5f89899050116104b9576040517f08c379a00000000000000000000000000000000000000000000000000000000081526004016104b09061303a565b60405180910390fd5b5f87879050116104fe576040517f08c379a00000000000000000000000000000000000000000000000000000000081526004016104f5906130a2565b60405180910390fd5b5f73ffffffffffffffffffffffffffffffffffffffff168573ffffffffffffffffffffffffffffffffffffffff160361056c576040517f08c379a000000000000000000000000000000000000000000000000000000000815260040161056390613130565b60405180910390fd5b6127108411156105b1576040517f08c379a00000000000000000000000000000000000000000000000000000000081526004016105a890613198565b60405180910390fd5b6105bb8989610a75565b6105c58787610b5e565b5f6105d28a8a8787610c76565b90505f6105e0848484610dc5565b90506105f0818a8a8a8a8a6110b0565b6105f93361123b565b3373ffffffffffffffffffffffffffffffffffffffff167f40844c000d7e2daab466e5a3c1ee770c3e2ccb92a53ddd9df72c01e07e99afaf8c8c8c8c8b8b8b8b60405161064d989796959493929190613505565b60405180910390a2505061065f6112ed565b505050505050505050565b600160149054906101000a900460ff1681565b5f60015f9054906101000a900473ffffffffffffffffffffffffffffffffffffffff1673ffffffffffffffffffffffffffffffffffffffff166327262618836040518263ffffffff1660e01b81526004016106d891906135c1565b602060405180830381865afa1580156106f3573d5f5f3e3d5ffd5b505050506040513d601f19601f820116820180604052508101906107179190612ef5565b9050919050565b60015f9054906101000a900473ffffffffffffffffffffffffffffffffffffffff1681565b5f60015f9054906101000a900473ffffffffffffffffffffffffffffffffffffffff1673ffffffffffffffffffffffffffffffffffffffff16638da5cb5b6040518163ffffffff1660e01b8152600401602060405180830381865afa1580156107ae573d5f5f3e3d5ffd5b505050506040513d601f19601f820116820180604052508101906107d29190612ef5565b905090565b60015f9054906101000a900473ffffffffffffffffffffffffffffffffffffffff1673ffffffffffffffffffffffffffffffffffffffff16638da5cb5b6040518163ffffffff1660e01b8152600401602060405180830381865afa158015610841573d5f5f3e3d5ffd5b505050506040513d601f19601f820116820180604052508101906108659190612ef5565b73ffffffffffffffffffffffffffffffffffffffff163373ffffffffffffffffffffffffffffffffffffffff16146108d2576040517f08c379a00000000000000000000000000000000000000000000000000000000081526004016108c990612f6a565b60405180910390fd5b80600160146101000a81548160ff02191690831515021790555050565b60015f9054906101000a900473ffffffffffffffffffffffffffffffffffffffff1673ffffffffffffffffffffffffffffffffffffffff16638da5cb5b6040518163ffffffff1660e01b8152600401602060405180830381865afa158015610959573d5f5f3e3d5ffd5b505050506040513d601f19601f8201168201806040525081019061097d9190612ef5565b73ffffffffffffffffffffffffffffffffffffffff163373ffffffffffffffffffffffffffffffffffffffff16146109ea576040517f08c379a00000000000000000000000000000000000000000000000000000000081526004016109e190612f6a565b60405180910390fd5b6109f3816112f6565b50565b7f000000000000000000000000000000000000000000000000000000000000000081565b610a2482826114a8565b5050565b60025f5403610a6c576040517f08c379a0000000000000000000000000000000000000000000000000000000008152600401610a639061362b565b60405180910390fd5b60025f81905550565b5f5f5b83839050811015610b15575f73ffffffffffffffffffffffffffffffffffffffff16848483818110610aad57610aac613649565b5b9050604002015f016020810190610ac49190612e7d565b73ffffffffffffffffffffffffffffffffffffffff1603610b0a57838382818110610af257610af1613649565b5b9050604002016020013582610b0791906136a3565b91505b806001019050610a78565b5080341015610b59576040517f08c379a0000000000000000000000000000000000000000000000000000000008152600401610b5090613720565b60405180910390fd5b505050565b5f5f90505f5f90505b83839050811015610c2b575f848483818110610b8657610b85613649565b5b9050604002016020016020810190610b9e919061373e565b61ffff1611610be2576040517f08c379a0000000000000000000000000000000000000000000000000000000008152600401610bd9906137d9565b60405180910390fd5b838382818110610bf557610bf4613649565b5b9050604002016020016020810190610c0d919061373e565b61ffff1682610c1c91906136a3565b91508080600101915050610b67565b50612710811115610c71576040517f08c379a0000000000000000000000000000000000000000000000000000000008152600401610c6890613867565b60405180910390fd5b505050565b5f5f5f90505f5f90505b86869050811015610db8575f73ffffffffffffffffffffffffffffffffffffffff16878783818110610cb557610cb4613649565b5b9050604002015f016020810190610ccc9190612e7d565b73ffffffffffffffffffffffffffffffffffffffff1603610d3d57610d0e3030898985818110610cff57610cfe613649565b5b90506040020160200135611571565b868682818110610d2157610d20613649565b5b9050604002016020013582610d3691906136a3565b9150610dab565b5f610d99888884818110610d5457610d53613649565b5b9050604002015f016020810190610d6b9190612e7d565b610d73610281565b8a8a86818110610d8657610d85613649565b5b9050604002016020013533308b8b611716565b90508083610da791906136a3565b9250505b8080600101915050610c80565b5080915050949350505050565b5f5f8484905003610dd8578190506110a9565b5f5f90505f5f90505b85859050811015610f3c575f73ffffffffffffffffffffffffffffffffffffffff16868683818110610e1657610e15613649565b5b9050604002015f016020810190610e2d9190612e7d565b73ffffffffffffffffffffffffffffffffffffffff1603610e83576040517f08c379a0000000000000000000000000000000000000000000000000000000008152600401610e7a906138cf565b60405180910390fd5b5f868683818110610e9757610e96613649565b5b9050604002016020016020810190610eaf919061373e565b61ffff1611610ef3576040517f08c379a0000000000000000000000000000000000000000000000000000000008152600401610eea90613937565b60405180910390fd5b858582818110610f0657610f05613649565b5b9050604002016020016020810190610f1e919061373e565b61ffff1682610f2d91906136a3565b91508080600101915050610de1565b50612710811115610f82576040517f08c379a0000000000000000000000000000000000000000000000000000000008152600401610f799061399f565b60405180910390fd5b5f8390505f5f90505b868690508110156110a2575f610fcb86898985818110610fae57610fad613649565b5b9050604002016020016020810190610fc6919061373e565b611abf565b90505f8103610fda5750611095565b61100e30898985818110610ff157610ff0613649565b5b9050604002015f0160208101906110089190612e7d565b83611ae5565b808361101a91906139bd565b925087878381811061102f5761102e613649565b5b9050604002015f0160208101906110469190612e7d565b73ffffffffffffffffffffffffffffffffffffffff167f075a2720282fdf622141dae0b048ef90a21a7e57c134c76912d19d006b3b3f6f8260405161108b91906139f0565b60405180910390a2505b8080600101915050610f8b565b5080925050505b9392505050565b5f6110b9610281565b90505f5f90505b86869050811015611231575f611100898989858181106110e3576110e2613649565b5b90506040020160200160208101906110fb919061373e565b611abf565b90505f810361110f5750611224565b5f73ffffffffffffffffffffffffffffffffffffffff1688888481811061113957611138613649565b5b9050604002015f0160208101906111509190612e7d565b73ffffffffffffffffffffffffffffffffffffffff160361117b57611176308783611ae5565b611222565b8273ffffffffffffffffffffffffffffffffffffffff168888848181106111a5576111a4613649565b5b9050604002015f0160208101906111bc9190612e7d565b73ffffffffffffffffffffffffffffffffffffffff16036111e7576111e2838783611ce1565b611221565b61121f838989858181106111fe576111fd613649565b5b9050604002015f0160208101906112159190612e7d565b83308a8a8a611716565b505b5b505b80806001019150506110c0565b5050505050505050565b5f611244610281565b73ffffffffffffffffffffffffffffffffffffffff166370a08231306040518263ffffffff1660e01b815260040161127c9190612d9b565b602060405180830381865afa158015611297573d5f5f3e3d5ffd5b505050506040513d601f19601f820116820180604052508101906112bb9190613a1d565b90505f4790505f8211156112d5576112d4308484611ae5565b5b5f8111156112e8576112e78382611d58565b5b505050565b60015f81905550565b5f73ffffffffffffffffffffffffffffffffffffffff168173ffffffffffffffffffffffffffffffffffffffff1603611364576040517f08c379a000000000000000000000000000000000000000000000000000000000815260040161135b90613a92565b60405180910390fd5b5f8173ffffffffffffffffffffffffffffffffffffffff163b116113bd576040517f08c379a00000000000000000000000000000000000000000000000000000000081526004016113b490613afa565b60405180910390fd5b8073ffffffffffffffffffffffffffffffffffffffff16638da5cb5b6040518163ffffffff1660e01b8152600401602060405180830381865afa92505050801561142557506040513d601f19601f820116820180604052508101906114229190612ef5565b60015b611464576040517f08c379a000000000000000000000000000000000000000000000000000000000815260040161145b90613b88565b60405180910390fd5b8160015f6101000a81548173ffffffffffffffffffffffffffffffffffffffff021916908373ffffffffffffffffffffffffffffffffffffffff1602179055505050565b5f73ffffffffffffffffffffffffffffffffffffffff168273ffffffffffffffffffffffffffffffffffffffff16036114ea576114e58147611d58565b61156d565b61156c82828473ffffffffffffffffffffffffffffffffffffffff166370a08231306040518263ffffffff1660e01b81526004016115289190612d9b565b602060405180830381865afa158015611543573d5f5f3e3d5ffd5b505050506040513d601f19601f820116820180604052508101906115679190613a1d565b611ce1565b5b5050565b5f61157a610281565b90505f82116115be576040517f08c379a00000000000000000000000000000000000000000000000000000000081526004016115b590613bf0565b60405180910390fd5b3073ffffffffffffffffffffffffffffffffffffffff168473ffffffffffffffffffffffffffffffffffffffff161461162c576040517f08c379a000000000000000000000000000000000000000000000000000000000815260040161162390613c7e565b60405180910390fd5b8147101561166f576040517f08c379a000000000000000000000000000000000000000000000000000000000815260040161166690613ce6565b60405180910390fd5b5f8190508073ffffffffffffffffffffffffffffffffffffffff1663d0e30db0846040518263ffffffff1660e01b81526004015f604051808303818588803b1580156116b9575f5ffd5b505af11580156116cb573d5f5f3e3d5ffd5b50505050503073ffffffffffffffffffffffffffffffffffffffff168473ffffffffffffffffffffffffffffffffffffffff161461170f5761170e828585611ce1565b5b5050505050565b5f5f73ffffffffffffffffffffffffffffffffffffffff168873ffffffffffffffffffffffffffffffffffffffff1603611785576040517f08c379a000000000000000000000000000000000000000000000000000000000815260040161177c90613d74565b60405180910390fd5b5f73ffffffffffffffffffffffffffffffffffffffff168773ffffffffffffffffffffffffffffffffffffffff16036117f3576040517f08c379a00000000000000000000000000000000000000000000000000000000081526004016117ea90613e02565b60405180910390fd5b5f8611611835576040517f08c379a000000000000000000000000000000000000000000000000000000000815260040161182c90613e90565b60405180910390fd5b5f8690503073ffffffffffffffffffffffffffffffffffffffff168673ffffffffffffffffffffffffffffffffffffffff161461187a57611877898888611e8a565b90505b8773ffffffffffffffffffffffffffffffffffffffff168973ffffffffffffffffffffffffffffffffffffffff16036118c1576118b8898683611ce1565b80915050611ab4565b6118ec897f00000000000000000000000000000000000000000000000000000000000000008361210f565b5f6118f78a8a6122c0565b90505f61190d6119078484612565565b8761266e565b90505f8a73ffffffffffffffffffffffffffffffffffffffff166370a08231896040518263ffffffff1660e01b81526004016119499190612d9b565b602060405180830381865afa158015611964573d5f5f3e3d5ffd5b505050506040513d601f19601f820116820180604052508101906119889190613a1d565b90507f000000000000000000000000000000000000000000000000000000000000000073ffffffffffffffffffffffffffffffffffffffff16635c11d7958584868c6119d38c6126e2565b6040518663ffffffff1660e01b81526004016119f3959493929190613f56565b5f604051808303815f87803b158015611a0a575f5ffd5b505af1158015611a1c573d5f5f3e3d5ffd5b505050505f8b73ffffffffffffffffffffffffffffffffffffffff166370a082318a6040518263ffffffff1660e01b8152600401611a5a9190612d9b565b602060405180830381865afa158015611a75573d5f5f3e3d5ffd5b505050506040513d601f19601f82011682018060405250810190611a999190613a1d565b90505f8282611aa891906139bd565b90508096505050505050505b979650505050505050565b5f6127108261ffff1684611ad39190613fae565b611add919061401c565b905092915050565b5f611aee610281565b90505f8190505f8311611b36576040517f08c379a0000000000000000000000000000000000000000000000000000000008152600401611b2d90614096565b60405180910390fd5b828173ffffffffffffffffffffffffffffffffffffffff166370a08231876040518263ffffffff1660e01b8152600401611b709190612d9b565b602060405180830381865afa158015611b8b573d5f5f3e3d5ffd5b505050506040513d601f19601f82011682018060405250810190611baf9190613a1d565b1015611bf0576040517f08c379a0000000000000000000000000000000000000000000000000000000008152600401611be7906140fe565b60405180910390fd5b5f8390503073ffffffffffffffffffffffffffffffffffffffff168673ffffffffffffffffffffffffffffffffffffffff1614611c3557611c32838588611e8a565b90505b8173ffffffffffffffffffffffffffffffffffffffff16632e1a7d4d826040518263ffffffff1660e01b8152600401611c6e91906139f0565b5f604051808303815f87803b158015611c85575f5ffd5b505af1158015611c97573d5f5f3e3d5ffd5b505050503073ffffffffffffffffffffffffffffffffffffffff168573ffffffffffffffffffffffffffffffffffffffff1614611cd957611cd88582611d58565b5b505050505050565b5f8390505f8211611d27576040517f08c379a0000000000000000000000000000000000000000000000000000000008152600401611d1e90614166565b60405180910390fd5b611d5283838373ffffffffffffffffffffffffffffffffffffffff166126f69092919063ffffffff16565b50505050565b5f8111611d9a576040517f08c379a0000000000000000000000000000000000000000000000000000000008152600401611d91906141ce565b60405180910390fd5b80471015611ddd576040517f08c379a0000000000000000000000000000000000000000000000000000000008152600401611dd490614236565b60405180910390fd5b5f8273ffffffffffffffffffffffffffffffffffffffff1682604051611e0290614281565b5f6040518083038185875af1925050503d805f8114611e3c576040519150601f19603f3d011682016040523d82523d5f602084013e611e41565b606091505b5050905080611e85576040517f08c379a0000000000000000000000000000000000000000000000000000000008152600401611e7c906142df565b60405180910390fd5b505050565b5f5f8490505f8411611ed1576040517f08c379a0000000000000000000000000000000000000000000000000000000008152600401611ec890614347565b60405180910390fd5b838173ffffffffffffffffffffffffffffffffffffffff1663dd62ed3e85306040518363ffffffff1660e01b8152600401611f0d929190614365565b602060405180830381865afa158015611f28573d5f5f3e3d5ffd5b505050506040513d601f19601f82011682018060405250810190611f4c9190613a1d565b1015611f8d576040517f08c379a0000000000000000000000000000000000000000000000000000000008152600401611f84906143fc565b60405180910390fd5b5f8173ffffffffffffffffffffffffffffffffffffffff166370a08231306040518263ffffffff1660e01b8152600401611fc79190612d9b565b602060405180830381865afa158015611fe2573d5f5f3e3d5ffd5b505050506040513d601f19601f820116820180604052508101906120069190613a1d565b90506120358430878573ffffffffffffffffffffffffffffffffffffffff16612775909392919063ffffffff16565b5f8273ffffffffffffffffffffffffffffffffffffffff166370a08231306040518263ffffffff1660e01b815260040161206f9190612d9b565b602060405180830381865afa15801561208a573d5f5f3e3d5ffd5b505050506040513d601f19601f820116820180604052508101906120ae9190613a1d565b90505f82826120bd91906139bd565b90505f8111612101576040517f08c379a00000000000000000000000000000000000000000000000000000000081526004016120f890614464565b60405180910390fd5b809450505050509392505050565b5f8390505f8173ffffffffffffffffffffffffffffffffffffffff1663dd62ed3e30866040518363ffffffff1660e01b815260040161214f929190614365565b602060405180830381865afa15801561216a573d5f5f3e3d5ffd5b505050506040513d601f19601f8201168201806040525081019061218e9190613a1d565b9050828110156122b9575f811461221c578173ffffffffffffffffffffffffffffffffffffffff1663095ea7b3855f6040518363ffffffff1660e01b81526004016121da9291906144bb565b6020604051808303815f875af11580156121f6573d5f5f3e3d5ffd5b505050506040513d601f19601f8201168201806040525081019061221a91906144f6565b505b8173ffffffffffffffffffffffffffffffffffffffff1663095ea7b3857fffffffffffffffffffffffffffffffffffffffffffffffffffffffffffffffff6040518363ffffffff1660e01b8152600401612277929190614521565b6020604051808303815f875af1158015612293573d5f5f3e3d5ffd5b505050506040513d601f19601f820116820180604052508101906122b791906144f6565b505b5050505050565b60605f6122cb610281565b90508073ffffffffffffffffffffffffffffffffffffffff168473ffffffffffffffffffffffffffffffffffffffff16148061233257508073ffffffffffffffffffffffffffffffffffffffff168373ffffffffffffffffffffffffffffffffffffffff16145b1561242557600267ffffffffffffffff81111561235257612351612c21565b5b6040519080825280602002602001820160405280156123805781602001602082028036833780820191505090505b50915083825f8151811061239757612396613649565b5b602002602001019073ffffffffffffffffffffffffffffffffffffffff16908173ffffffffffffffffffffffffffffffffffffffff168152505082826001815181106123e6576123e5613649565b5b602002602001019073ffffffffffffffffffffffffffffffffffffffff16908173ffffffffffffffffffffffffffffffffffffffff168152505061255e565b600367ffffffffffffffff8111156124405761243f612c21565b5b60405190808252806020026020018201604052801561246e5781602001602082028036833780820191505090505b50915083825f8151811061248557612484613649565b5b602002602001019073ffffffffffffffffffffffffffffffffffffffff16908173ffffffffffffffffffffffffffffffffffffffff168152505080826001815181106124d4576124d3613649565b5b602002602001019073ffffffffffffffffffffffffffffffffffffffff16908173ffffffffffffffffffffffffffffffffffffffff1681525050828260028151811061252357612522613649565b5b602002602001019073ffffffffffffffffffffffffffffffffffffffff16908173ffffffffffffffffffffffffffffffffffffffff16815250505b5092915050565b5f7f000000000000000000000000000000000000000000000000000000000000000073ffffffffffffffffffffffffffffffffffffffff1663d06ca61f84846040518363ffffffff1660e01b81526004016125c1929190614548565b5f60405180830381865afa9250505080156125fe57506040513d5f823e3d601f19601f820116820180604052508101906125fb9190614636565b60015b61263d576040517f08c379a0000000000000000000000000000000000000000000000000000000008152600401612634906146ed565b60405180910390fd5b806001825161264c91906139bd565b8151811061265d5761265c613649565b5b602002602001015191505092915050565b5f6127108211156126b4576040517f08c379a00000000000000000000000000000000000000000000000000000000081526004016126ab90614755565b60405180910390fd5b612710826127106126c591906139bd565b846126d09190613fae565b6126da919061401c565b905092915050565b5f81426126ef91906136a3565b9050919050565b612770838473ffffffffffffffffffffffffffffffffffffffff1663a9059cbb8585604051602401612729929190614521565b604051602081830303815290604052915060e01b6020820180517bffffffffffffffffffffffffffffffffffffffffffffffffffffffff83818316178352505050506127f7565b505050565b6127f1848573ffffffffffffffffffffffffffffffffffffffff166323b872dd8686866040516024016127aa93929190614773565b604051602081830303815290604052915060e01b6020820180517bffffffffffffffffffffffffffffffffffffffffffffffffffffffff83818316178352505050506127f7565b50505050565b5f5f60205f8451602086015f885af180612816576040513d5f823e3d81fd5b3d92505f519150505f821461282f57600181141561284a565b5f8473ffffffffffffffffffffffffffffffffffffffff163b145b1561288c57836040517f5274afe70000000000000000000000000000000000000000000000000000000081526004016128839190612d9b565b60405180910390fd5b50505050565b5f82825260208201905092915050565b7f44697265637420455448206e6f7420616c6c6f776564000000000000000000005f82015250565b5f6128d6601683612892565b91506128e1826128a2565b602082019050919050565b5f6020820190508181035f830152612903816128ca565b9050919050565b5f604051905090565b5f5ffd5b5f5ffd5b5f73ffffffffffffffffffffffffffffffffffffffff82169050919050565b5f6129448261291b565b9050919050565b6129548161293a565b811461295e575f5ffd5b50565b5f8135905061296f8161294b565b92915050565b5f5f6040838503121561298b5761298a612913565b5b5f61299885828601612961565b92505060206129a985828601612961565b9150509250929050565b5f5ffd5b5f5ffd5b5f5ffd5b5f5f83601f8401126129d4576129d36129b3565b5b8235905067ffffffffffffffff8111156129f1576129f06129b7565b5b602083019150836040820283011115612a0d57612a0c6129bb565b5b9250929050565b5f5f83601f840112612a2957612a286129b3565b5b8235905067ffffffffffffffff811115612a4657612a456129b7565b5b602083019150836040820283011115612a6257612a616129bb565b5b9250929050565b5f819050919050565b612a7b81612a69565b8114612a85575f5ffd5b50565b5f81359050612a9681612a72565b92915050565b5f5f83601f840112612ab157612ab06129b3565b5b8235905067ffffffffffffffff811115612ace57612acd6129b7565b5b602083019150836040820283011115612aea57612ae96129bb565b5b9250929050565b5f5f5f5f5f5f5f5f5f60c08a8c031215612b0e57612b0d612913565b5b5f8a013567ffffffffffffffff811115612b2b57612b2a612917565b5b612b378c828d016129bf565b995099505060208a013567ffffffffffffffff811115612b5a57612b59612917565b5b612b668c828d01612a14565b97509750506040612b798c828d01612961565b9550506060612b8a8c828d01612a88565b9450506080612b9b8c828d01612a88565b93505060a08a013567ffffffffffffffff811115612bbc57612bbb612917565b5b612bc88c828d01612a9c565b92509250509295985092959850929598565b5f8115159050919050565b612bee81612bda565b82525050565b5f602082019050612c075f830184612be5565b92915050565b5f5ffd5b5f601f19601f8301169050919050565b7f4e487b71000000000000000000000000000000000000000000000000000000005f52604160045260245ffd5b612c5782612c11565b810181811067ffffffffffffffff82111715612c7657612c75612c21565b5b80604052505050565b5f612c8861290a565b9050612c948282612c4e565b919050565b5f67ffffffffffffffff821115612cb357612cb2612c21565b5b612cbc82612c11565b9050602081019050919050565b828183375f83830152505050565b5f612ce9612ce484612c99565b612c7f565b905082815260208101848484011115612d0557612d04612c0d565b5b612d10848285612cc9565b509392505050565b5f82601f830112612d2c57612d2b6129b3565b5b8135612d3c848260208601612cd7565b91505092915050565b5f60208284031215612d5a57612d59612913565b5b5f82013567ffffffffffffffff811115612d7757612d76612917565b5b612d8384828501612d18565b91505092915050565b612d958161293a565b82525050565b5f602082019050612dae5f830184612d8c565b92915050565b5f819050919050565b5f612dd7612dd2612dcd8461291b565b612db4565b61291b565b9050919050565b5f612de882612dbd565b9050919050565b5f612df982612dde565b9050919050565b612e0981612def565b82525050565b5f602082019050612e225f830184612e00565b92915050565b612e3181612bda565b8114612e3b575f5ffd5b50565b5f81359050612e4c81612e28565b92915050565b5f60208284031215612e6757612e66612913565b5b5f612e7484828501612e3e565b91505092915050565b5f60208284031215612e9257612e91612913565b5b5f612e9f84828501612961565b91505092915050565b5f612eb282612dde565b9050919050565b612ec281612ea8565b82525050565b5f602082019050612edb5f830184612eb9565b92915050565b5f81519050612eef8161294b565b92915050565b5f60208284031215612f0a57612f09612913565b5b5f612f1784828501612ee1565b91505092915050565b7f43616c6c6572206973206e6f7420746865206f776e65720000000000000000005f82015250565b5f612f54601783612892565b9150612f5f82612f20565b602082019050919050565b5f6020820190508181035f830152612f8181612f48565b9050919050565b7f436f6e7472616374206973206e6f7420616374697665000000000000000000005f82015250565b5f612fbc601683612892565b9150612fc782612f88565b602082019050919050565b5f6020820190508181035f830152612fe981612fb0565b9050919050565b7f4d756c74695377617020526f757465723a204e6f20696e7075747300000000005f82015250565b5f613024601b83612892565b915061302f82612ff0565b602082019050919050565b5f6020820190508181035f83015261305181613018565b9050919050565b7f4d756c74695377617020526f757465723a204e6f206f757470757473000000005f82015250565b5f61308c601c83612892565b915061309782613058565b602082019050919050565b5f6020820190508181035f8301526130b981613080565b9050919050565b7f4d756c74695377617020526f757465723a2052656365697665722063616e6e6f5f8201527f74206265207a65726f2061646472657373000000000000000000000000000000602082015250565b5f61311a603183612892565b9150613125826130c0565b604082019050919050565b5f6020820190508181035f8301526131478161310e565b9050919050565b7f4d756c74695377617020526f757465723a2062616420736c69707061676500005f82015250565b5f613182601e83612892565b915061318d8261314e565b602082019050919050565b5f6020820190508181035f8301526131af81613176565b9050919050565b5f82825260208201905092915050565b5f819050919050565b5f6131dd6020840184612961565b905092915050565b6131ee8161293a565b82525050565b5f6132026020840184612a88565b905092915050565b61321381612a69565b82525050565b604082016132295f8301836131cf565b6132355f8501826131e5565b5061324360208301836131f4565b613250602085018261320a565b50505050565b5f6132618383613219565b60408301905092915050565b5f82905092915050565b5f604082019050919050565b5f61328e83856131b6565b9350613299826131c6565b805f5b858110156132d1576132ae828461326d565b6132b88882613256565b97506132c383613277565b92505060018101905061329c565b5085925050509392505050565b5f82825260208201905092915050565b5f819050919050565b5f61ffff82169050919050565b61330d816132f7565b8114613317575f5ffd5b50565b5f8135905061332881613304565b92915050565b5f61333c602084018461331a565b905092915050565b61334d816132f7565b82525050565b604082016133635f8301836131cf565b61336f5f8501826131e5565b5061337d602083018361332e565b61338a6020850182613344565b50505050565b5f61339b8383613353565b60408301905092915050565b5f82905092915050565b5f604082019050919050565b5f6133c883856132de565b93506133d3826132ee565b805f5b8581101561340b576133e882846133a7565b6133f28882613390565b97506133fd836133b1565b9250506001810190506133d6565b5085925050509392505050565b61342181612a69565b82525050565b5f82825260208201905092915050565b5f819050919050565b604082016134505f8301836131cf565b61345c5f8501826131e5565b5061346a602083018361332e565b6134776020850182613344565b50505050565b5f6134888383613440565b60408301905092915050565b5f82905092915050565b5f604082019050919050565b5f6134b58385613427565b93506134c082613437565b805f5b858110156134f8576134d58284613494565b6134df888261347d565b97506134ea8361349e565b9250506001810190506134c3565b5085925050509392505050565b5f60a0820190508181035f83015261351e818a8c613283565b9050818103602083015261353381888a6133bd565b90506135426040830187613418565b61354f6060830186613418565b81810360808301526135628184866134aa565b90509998505050505050505050565b5f81519050919050565b8281835e5f83830152505050565b5f61359382613571565b61359d8185612892565b93506135ad81856020860161357b565b6135b681612c11565b840191505092915050565b5f6020820190508181035f8301526135d98184613589565b905092915050565b7f5265656e7472616e637947756172643a207265656e7472616e742063616c6c005f82015250565b5f613615601f83612892565b9150613620826135e1565b602082019050919050565b5f6020820190508181035f83015261364281613609565b9050919050565b7f4e487b71000000000000000000000000000000000000000000000000000000005f52603260045260245ffd5b7f4e487b71000000000000000000000000000000000000000000000000000000005f52601160045260245ffd5b5f6136ad82612a69565b91506136b883612a69565b92508282019050808211156136d0576136cf613676565b5b92915050565b7f6d73672e76616c756520213d2045544820696e707574730000000000000000005f82015250565b5f61370a601783612892565b9150613715826136d6565b602082019050919050565b5f6020820190508181035f830152613737816136fe565b9050919050565b5f6020828403121561375357613752612913565b5b5f6137608482850161331a565b91505092915050565b7f4d756c74695377617020526f757465723a20576569676874206d7573742062655f8201527f2067726561746572207468616e20300000000000000000000000000000000000602082015250565b5f6137c3602f83612892565b91506137ce82613769565b604082019050919050565b5f6020820190508181035f8301526137f0816137b7565b9050919050565b7f4d756c74695377617020526f757465723a20546f74616c20776569676874206d5f8201527f7573742062652031303025000000000000000000000000000000000000000000602082015250565b5f613851602b83612892565b915061385c826137f7565b604082019050919050565b5f6020820190508181035f83015261387e81613845565b9050919050565b7f4665653a207a65726f20616464726573730000000000000000000000000000005f82015250565b5f6138b9601183612892565b91506138c482613885565b602082019050919050565b5f6020820190508181035f8301526138e6816138ad565b9050919050565b7f4665653a207a65726f20626970730000000000000000000000000000000000005f82015250565b5f613921600e83612892565b915061392c826138ed565b602082019050919050565b5f6020820190508181035f83015261394e81613915565b9050919050565b7f4665653a203e20313030250000000000000000000000000000000000000000005f82015250565b5f613989600b83612892565b915061399482613955565b602082019050919050565b5f6020820190508181035f8301526139b68161397d565b9050919050565b5f6139c782612a69565b91506139d283612a69565b92508282039050818111156139ea576139e9613676565b5b92915050565b5f602082019050613a035f830184613418565b92915050565b5f81519050613a1781612a72565b92915050565b5f60208284031215613a3257613a31612913565b5b5f613a3f84828501613a09565b91505092915050565b7f4469726563746f72792063616e6e6f74206265207a65726f20616464726573735f82015250565b5f613a7c602083612892565b9150613a8782613a48565b602082019050919050565b5f6020820190508181035f830152613aa981613a70565b9050919050565b7f4469726563746f7279206d757374206265206120636f6e7472616374000000005f82015250565b5f613ae4601c83612892565b9150613aef82613ab0565b602082019050919050565b5f6020820190508181035f830152613b1181613ad8565b9050919050565b7f4469726563746f7279206164647265737320646f6573206e6f7420696d706c655f8201527f6d656e74206f776e657228290000000000000000000000000000000000000000602082015250565b5f613b72602c83612892565b9150613b7d82613b18565b604082019050919050565b5f6020820190508181035f830152613b9f81613b66565b9050919050565b7f777261703a207a65726f20616d6f756e740000000000000000000000000000005f82015250565b5f613bda601183612892565b9150613be582613ba6565b602082019050919050565b5f6020820190508181035f830152613c0781613bce565b9050919050565b7f777261703a206f6e6c79207468697320636f6e74726163742063616e207772615f8201527f7020455448000000000000000000000000000000000000000000000000000000602082015250565b5f613c68602583612892565b9150613c7382613c0e565b604082019050919050565b5f6020820190508181035f830152613c9581613c5c565b9050919050565b7f574554483a20696e73756666696369656e7420455448000000000000000000005f82015250565b5f613cd0601683612892565b9150613cdb82613c9c565b602082019050919050565b5f6020820190508181035f830152613cfd81613cc4565b9050919050565b7f4d756c74695377617020526f757465723a20496e76616c69642066726f6d20745f8201527f6f6b656e20616464726573730000000000000000000000000000000000000000602082015250565b5f613d5e602c83612892565b9150613d6982613d04565b604082019050919050565b5f6020820190508181035f830152613d8b81613d52565b9050919050565b7f4d756c74695377617020526f757465723a20496e76616c696420746f20746f6b5f8201527f656e206164647265737300000000000000000000000000000000000000000000602082015250565b5f613dec602a83612892565b9150613df782613d92565b604082019050919050565b5f6020820190508181035f830152613e1981613de0565b9050919050565b7f4d756c74695377617020526f757465723a20416d6f756e74206d7573742062655f8201527f2067726561746572207468616e20300000000000000000000000000000000000602082015250565b5f613e7a602f83612892565b9150613e8582613e20565b604082019050919050565b5f6020820190508181035f830152613ea781613e6e565b9050919050565b5f81519050919050565b5f82825260208201905092915050565b5f819050602082019050919050565b5f613ee283836131e5565b60208301905092915050565b5f602082019050919050565b5f613f0482613eae565b613f0e8185613eb8565b9350613f1983613ec8565b805f5b83811015613f49578151613f308882613ed7565b9750613f3b83613eee565b925050600181019050613f1c565b5085935050505092915050565b5f60a082019050613f695f830188613418565b613f766020830187613418565b8181036040830152613f888186613efa565b9050613f976060830185612d8c565b613fa46080830184613418565b9695505050505050565b5f613fb882612a69565b9150613fc383612a69565b9250828202613fd181612a69565b91508282048414831517613fe857613fe7613676565b5b5092915050565b7f4e487b71000000000000000000000000000000000000000000000000000000005f52601260045260245ffd5b5f61402682612a69565b915061403183612a69565b92508261404157614040613fef565b5b828204905092915050565b7f756e777261703a207a65726f20616d6f756e74000000000000000000000000005f82015250565b5f614080601383612892565b915061408b8261404c565b602082019050919050565b5f6020820190508181035f8301526140ad81614074565b9050919050565b7f574554483a20696e73756666696369656e7420574554480000000000000000005f82015250565b5f6140e8601783612892565b91506140f3826140b4565b602082019050919050565b5f6020820190508181035f830152614115816140dc565b9050919050565b7f73656e64546f6b656e3a207a65726f20616d6f756e74000000000000000000005f82015250565b5f614150601683612892565b915061415b8261411c565b602082019050919050565b5f6020820190508181035f83015261417d81614144565b9050919050565b7f73656e644574683a207a65726f20616d6f756e740000000000000000000000005f82015250565b5f6141b8601483612892565b91506141c382614184565b602082019050919050565b5f6020820190508181035f8301526141e5816141ac565b9050919050565b7f73656e644574683a20696e73756666696369656e7420455448000000000000005f82015250565b5f614220601983612892565b915061422b826141ec565b602082019050919050565b5f6020820190508181035f83015261424d81614214565b9050919050565b5f81905092915050565b50565b5f61426c5f83614254565b91506142778261425e565b5f82019050919050565b5f61428b82614261565b9150819050919050565b7f4554482073656e64206661696c656400000000000000000000000000000000005f82015250565b5f6142c9600f83612892565b91506142d482614295565b602082019050919050565b5f6020820190508181035f8301526142f6816142bd565b9050919050565b7f72656365697665546f6b656e3a207a65726f20616d6f756e74000000000000005f82015250565b5f614331601983612892565b915061433c826142fd565b602082019050919050565b5f6020820190508181035f83015261435e81614325565b9050919050565b5f6040820190506143785f830185612d8c565b6143856020830184612d8c565b9392505050565b7f72656365697665546f6b656e3a20616c6c6f77616e6365206973206c657373205f8201527f7468616e20616d6f756e74000000000000000000000000000000000000000000602082015250565b5f6143e6602b83612892565b91506143f18261438c565b604082019050919050565b5f6020820190508181035f830152614413816143da565b9050919050565b7f72656365697665546f6b656e3a206e6f7468696e6720726563656976656400005f82015250565b5f61444e601e83612892565b91506144598261441a565b602082019050919050565b5f6020820190508181035f83015261447b81614442565b9050919050565b5f819050919050565b5f6144a56144a061449b84614482565b612db4565b612a69565b9050919050565b6144b58161448b565b82525050565b5f6040820190506144ce5f830185612d8c565b6144db60208301846144ac565b9392505050565b5f815190506144f081612e28565b92915050565b5f6020828403121561450b5761450a612913565b5b5f614518848285016144e2565b91505092915050565b5f6040820190506145345f830185612d8c565b6145416020830184613418565b9392505050565b5f60408201905061455b5f830185613418565b818103602083015261456d8184613efa565b90509392505050565b5f67ffffffffffffffff8211156145905761458f612c21565b5b602082029050602081019050919050565b5f6145b36145ae84614576565b612c7f565b905080838252602082019050602084028301858111156145d6576145d56129bb565b5b835b818110156145ff57806145eb8882613a09565b8452602084019350506020810190506145d8565b5050509392505050565b5f82601f83011261461d5761461c6129b3565b5b815161462d8482602086016145a1565b91505092915050565b5f6020828403121561464b5761464a612913565b5b5f82015167ffffffffffffffff81111561466857614667612917565b5b61467484828501614609565b91505092915050565b7f556e697377617020526f757465723a2051756f746520756e617661696c61626c5f8201527f653a20706174682f6c6971756964697479000000000000000000000000000000602082015250565b5f6146d7603183612892565b91506146e28261467d565b604082019050919050565b5f6020820190508181035f830152614704816146cb565b9050919050565b7f736c69707061676542697073203e2031303025000000000000000000000000005f82015250565b5f61473f601383612892565b915061474a8261470b565b602082019050919050565b5f6020820190508181035f83015261476c81614733565b9050919050565b5f6060820190506147865f830186612d8c565b6147936020830185612d8c565b6147a06040830184613418565b94935050505056fea2646970667358221220650354176592853523b1a7d7060cd02eca6eac5b0e150684ace30c2bb77bc10364736f6c634300081e0033",
			"opcodes": "PUSH1 0xA0 PUSH1 0x40 MSTORE CALLVALUE DUP1 ISZERO PUSH2 0xF JUMPI PUSH0 PUSH0 REVERT JUMPDEST POP PUSH1 0x40 MLOAD PUSH2 0x4C7F CODESIZE SUB DUP1 PUSH2 0x4C7F DUP4 CODECOPY DUP2 DUP2 ADD PUSH1 0x40 MSTORE DUP2 ADD SWAP1 PUSH2 0x31 SWAP2 SWAP1 PUSH2 0x296 JUMP JUMPDEST DUP1 DUP3 DUP1 PUSH20 0xFFFFFFFFFFFFFFFFFFFFFFFFFFFFFFFFFFFFFFFF AND PUSH1 0x80 DUP2 PUSH20 0xFFFFFFFFFFFFFFFFFFFFFFFFFFFFFFFFFFFFFFFF AND DUP2 MSTORE POP POP POP PUSH1 0x1 PUSH0 DUP2 SWAP1 SSTORE POP PUSH2 0x7E DUP2 PUSH2 0x86 PUSH1 0x20 SHL PUSH1 0x20 SHR JUMP JUMPDEST POP POP POP PUSH2 0x46D JUMP JUMPDEST PUSH0 PUSH20 0xFFFFFFFFFFFFFFFFFFFFFFFFFFFFFFFFFFFFFFFF AND DUP2 PUSH20 0xFFFFFFFFFFFFFFFFFFFFFFFFFFFFFFFFFFFFFFFF AND SUB PUSH2 0xF4 JUMPI PUSH1 0x40 MLOAD PUSH32 0x8C379A000000000000000000000000000000000000000000000000000000000 DUP2 MSTORE PUSH1 0x4 ADD PUSH2 0xEB SWAP1 PUSH2 0x32E JUMP JUMPDEST PUSH1 0x40 MLOAD DUP1 SWAP2 SUB SWAP1 REVERT JUMPDEST PUSH0 DUP2 PUSH20 0xFFFFFFFFFFFFFFFFFFFFFFFFFFFFFFFFFFFFFFFF AND EXTCODESIZE GT PUSH2 0x14D JUMPI PUSH1 0x40 MLOAD PUSH32 0x8C379A000000000000000000000000000000000000000000000000000000000 DUP2 MSTORE PUSH1 0x4 ADD PUSH2 0x144 SWAP1 PUSH2 0x396 JUMP JUMPDEST PUSH1 0x40 MLOAD DUP1 SWAP2 SUB SWAP1 REVERT JUMPDEST DUP1 PUSH20 0xFFFFFFFFFFFFFFFFFFFFFFFFFFFFFFFFFFFFFFFF AND PUSH4 0x8DA5CB5B PUSH1 0x40 MLOAD DUP2 PUSH4 0xFFFFFFFF AND PUSH1 0xE0 SHL DUP2 MSTORE PUSH1 0x4 ADD PUSH1 0x20 PUSH1 0x40 MLOAD DUP1 DUP4 SUB DUP2 DUP7 GAS STATICCALL SWAP3 POP POP POP DUP1 ISZERO PUSH2 0x1B5 JUMPI POP PUSH1 0x40 MLOAD RETURNDATASIZE PUSH1 0x1F NOT PUSH1 0x1F DUP3 ADD AND DUP3 ADD DUP1 PUSH1 0x40 MSTORE POP DUP2 ADD SWAP1 PUSH2 0x1B2 SWAP2 SWAP1 PUSH2 0x3B4 JUMP JUMPDEST PUSH1 0x1 JUMPDEST PUSH2 0x1F4 JUMPI PUSH1 0x40 MLOAD PUSH32 0x8C379A000000000000000000000000000000000000000000000000000000000 DUP2 MSTORE PUSH1 0x4 ADD PUSH2 0x1EB SWAP1 PUSH2 0x44F JUMP JUMPDEST PUSH1 0x40 MLOAD DUP1 SWAP2 SUB SWAP1 REVERT JUMPDEST DUP2 PUSH1 0x1 PUSH0 PUSH2 0x100 EXP DUP2 SLOAD DUP2 PUSH20 0xFFFFFFFFFFFFFFFFFFFFFFFFFFFFFFFFFFFFFFFF MUL NOT AND SWAP1 DUP4 PUSH20 0xFFFFFFFFFFFFFFFFFFFFFFFFFFFFFFFFFFFFFFFF AND MUL OR SWAP1 SSTORE POP POP POP JUMP JUMPDEST PUSH0 PUSH0 REVERT JUMPDEST PUSH0 PUSH20 0xFFFFFFFFFFFFFFFFFFFFFFFFFFFFFFFFFFFFFFFF DUP3 AND SWAP1 POP SWAP2 SWAP1 POP JUMP JUMPDEST PUSH0 PUSH2 0x265 DUP3 PUSH2 0x23C JUMP JUMPDEST SWAP1 POP SWAP2 SWAP1 POP JUMP JUMPDEST PUSH2 0x275 DUP2 PUSH2 0x25B JUMP JUMPDEST DUP2 EQ PUSH2 0x27F JUMPI PUSH0 PUSH0 REVERT JUMPDEST POP JUMP JUMPDEST PUSH0 DUP2 MLOAD SWAP1 POP PUSH2 0x290 DUP2 PUSH2 0x26C JUMP JUMPDEST SWAP3 SWAP2 POP POP JUMP JUMPDEST PUSH0 PUSH0 PUSH1 0x40 DUP4 DUP6 SUB SLT ISZERO PUSH2 0x2AC JUMPI PUSH2 0x2AB PUSH2 0x238 JUMP JUMPDEST JUMPDEST PUSH0 PUSH2 0x2B9 DUP6 DUP3 DUP7 ADD PUSH2 0x282 JUMP JUMPDEST SWAP3 POP POP PUSH1 0x20 PUSH2 0x2CA DUP6 DUP3 DUP7 ADD PUSH2 0x282 JUMP JUMPDEST SWAP2 POP POP SWAP3 POP SWAP3 SWAP1 POP JUMP JUMPDEST PUSH0 DUP3 DUP3 MSTORE PUSH1 0x20 DUP3 ADD SWAP1 POP SWAP3 SWAP2 POP POP JUMP JUMPDEST PUSH32 0x4469726563746F72792063616E6E6F74206265207A65726F2061646472657373 PUSH0 DUP3 ADD MSTORE POP JUMP JUMPDEST PUSH0 PUSH2 0x318 PUSH1 0x20 DUP4 PUSH2 0x2D4 JUMP JUMPDEST SWAP2 POP PUSH2 0x323 DUP3 PUSH2 0x2E4 JUMP JUMPDEST PUSH1 0x20 DUP3 ADD SWAP1 POP SWAP2 SWAP1 POP JUMP JUMPDEST PUSH0 PUSH1 0x20 DUP3 ADD SWAP1 POP DUP2 DUP2 SUB PUSH0 DUP4 ADD MSTORE PUSH2 0x345 DUP2 PUSH2 0x30C JUMP JUMPDEST SWAP1 POP SWAP2 SWAP1 POP JUMP JUMPDEST PUSH32 0x4469726563746F7279206D757374206265206120636F6E747261637400000000 PUSH0 DUP3 ADD MSTORE POP JUMP JUMPDEST PUSH0 PUSH2 0x380 PUSH1 0x1C DUP4 PUSH2 0x2D4 JUMP JUMPDEST SWAP2 POP PUSH2 0x38B DUP3 PUSH2 0x34C JUMP JUMPDEST PUSH1 0x20 DUP3 ADD SWAP1 POP SWAP2 SWAP1 POP JUMP JUMPDEST PUSH0 PUSH1 0x20 DUP3 ADD SWAP1 POP DUP2 DUP2 SUB PUSH0 DUP4 ADD MSTORE PUSH2 0x3AD DUP2 PUSH2 0x374 JUMP JUMPDEST SWAP1 POP SWAP2 SWAP1 POP JUMP JUMPDEST PUSH0 PUSH1 0x20 DUP3 DUP5 SUB SLT ISZERO PUSH2 0x3C9 JUMPI PUSH2 0x3C8 PUSH2 0x238 JUMP JUMPDEST JUMPDEST PUSH0 PUSH2 0x3D6 DUP5 DUP3 DUP6 ADD PUSH2 0x282 JUMP JUMPDEST SWAP2 POP POP SWAP3 SWAP2 POP POP JUMP JUMPDEST PUSH32 0x4469726563746F7279206164647265737320646F6573206E6F7420696D706C65 PUSH0 DUP3 ADD MSTORE PUSH32 0x6D656E74206F776E657228290000000000000000000000000000000000000000 PUSH1 0x20 DUP3 ADD MSTORE POP JUMP JUMPDEST PUSH0 PUSH2 0x439 PUSH1 0x2C DUP4 PUSH2 0x2D4 JUMP JUMPDEST SWAP2 POP PUSH2 0x444 DUP3 PUSH2 0x3DF JUMP JUMPDEST PUSH1 0x40 DUP3 ADD SWAP1 POP SWAP2 SWAP1 POP JUMP JUMPDEST PUSH0 PUSH1 0x20 DUP3 ADD SWAP1 POP DUP2 DUP2 SUB PUSH0 DUP4 ADD MSTORE PUSH2 0x466 DUP2 PUSH2 0x42D JUMP JUMPDEST SWAP1 POP SWAP2 SWAP1 POP JUMP JUMPDEST PUSH1 0x80 MLOAD PUSH2 0x47DE PUSH2 0x4A1 PUSH0 CODECOPY PUSH0 DUP2 DUP2 PUSH2 0x284 ADD MSTORE DUP2 DUP2 PUSH2 0x9F8 ADD MSTORE DUP2 DUP2 PUSH2 0x18C7 ADD MSTORE DUP2 DUP2 PUSH2 0x198C ADD MSTORE PUSH2 0x2568 ADD MSTORE PUSH2 0x47DE PUSH0 RETURN INVALID PUSH1 0x80 PUSH1 0x40 MSTORE PUSH1 0x4 CALLDATASIZE LT PUSH2 0x89 JUMPI PUSH0 CALLDATALOAD PUSH1 0xE0 SHR DUP1 PUSH4 0x658A847A GT PUSH2 0x58 JUMPI DUP1 PUSH4 0x658A847A EQ PUSH2 0x1B3 JUMPI DUP1 PUSH4 0x8DA5CB5B EQ PUSH2 0x1DD JUMPI DUP1 PUSH4 0xACEC338A EQ PUSH2 0x207 JUMPI DUP1 PUSH4 0xBA4C7BE1 EQ PUSH2 0x22F JUMPI DUP1 PUSH4 0xF887EA40 EQ PUSH2 0x257 JUMPI PUSH2 0x105 JUMP JUMPDEST DUP1 PUSH4 0x9053AC4 EQ PUSH2 0x109 JUMPI DUP1 PUSH4 0x192B5887 EQ PUSH2 0x131 JUMPI DUP1 PUSH4 0x22F3E2D4 EQ PUSH2 0x14D JUMPI DUP1 PUSH4 0x27262618 EQ PUSH2 0x177 JUMPI PUSH2 0x105 JUMP JUMPDEST CALLDATASIZE PUSH2 0x105 JUMPI PUSH2 0x96 PUSH2 0x281 JUMP JUMPDEST PUSH20 0xFFFFFFFFFFFFFFFFFFFFFFFFFFFFFFFFFFFFFFFF AND CALLER PUSH20 0xFFFFFFFFFFFFFFFFFFFFFFFFFFFFFFFFFFFFFFFF AND EQ PUSH2 0x103 JUMPI PUSH1 0x40 MLOAD PUSH32 0x8C379A000000000000000000000000000000000000000000000000000000000 DUP2 MSTORE PUSH1 0x4 ADD PUSH2 0xFA SWAP1 PUSH2 0x28EC JUMP JUMPDEST PUSH1 0x40 MLOAD DUP1 SWAP2 SUB SWAP1 REVERT JUMPDEST STOP JUMPDEST PUSH0 PUSH0 REVERT JUMPDEST CALLVALUE DUP1 ISZERO PUSH2 0x114 JUMPI PUSH0 PUSH0 REVERT JUMPDEST POP PUSH2 0x12F PUSH1 0x4 DUP1 CALLDATASIZE SUB DUP2 ADD SWAP1 PUSH2 0x12A SWAP2 SWAP1 PUSH2 0x2975 JUMP JUMPDEST PUSH2 0x314 JUMP JUMPDEST STOP JUMPDEST PUSH2 0x14B PUSH1 0x4 DUP1 CALLDATASIZE SUB DUP2 ADD SWAP1 PUSH2 0x146 SWAP2 SWAP1 PUSH2 0x2AF1 JUMP JUMPDEST PUSH2 0x41D JUMP JUMPDEST STOP JUMPDEST CALLVALUE DUP1 ISZERO PUSH2 0x158 JUMPI PUSH0 PUSH0 REVERT JUMPDEST POP PUSH2 0x161 PUSH2 0x66A JUMP JUMPDEST PUSH1 0x40 MLOAD PUSH2 0x16E SWAP2 SWAP1 PUSH2 0x2BF4 JUMP JUMPDEST PUSH1 0x40 MLOAD DUP1 SWAP2 SUB SWAP1 RETURN JUMPDEST CALLVALUE DUP1 ISZERO PUSH2 0x182 JUMPI PUSH0 PUSH0 REVERT JUMPDEST POP PUSH2 0x19D PUSH1 0x4 DUP1 CALLDATASIZE SUB DUP2 ADD SWAP1 PUSH2 0x198 SWAP2 SWAP1 PUSH2 0x2D45 JUMP JUMPDEST PUSH2 0x67D JUMP JUMPDEST PUSH1 0x40 MLOAD PUSH2 0x1AA SWAP2 SWAP1 PUSH2 0x2D9B JUMP JUMPDEST PUSH1 0x40 MLOAD DUP1 SWAP2 SUB SWAP1 RETURN JUMPDEST CALLVALUE DUP1 ISZERO PUSH2 0x1BE JUMPI PUSH0 PUSH0 REVERT JUMPDEST POP PUSH2 0x1C7 PUSH2 0x71E JUMP JUMPDEST PUSH1 0x40 MLOAD PUSH2 0x1D4 SWAP2 SWAP1 PUSH2 0x2E0F JUMP JUMPDEST PUSH1 0x40 MLOAD DUP1 SWAP2 SUB SWAP1 RETURN JUMPDEST CALLVALUE DUP1 ISZERO PUSH2 0x1E8 JUMPI PUSH0 PUSH0 REVERT JUMPDEST POP PUSH2 0x1F1 PUSH2 0x743 JUMP JUMPDEST PUSH1 0x40 MLOAD PUSH2 0x1FE SWAP2 SWAP1 PUSH2 0x2D9B JUMP JUMPDEST PUSH1 0x40 MLOAD DUP1 SWAP2 SUB SWAP1 RETURN JUMPDEST CALLVALUE DUP1 ISZERO PUSH2 0x212 JUMPI PUSH0 PUSH0 REVERT JUMPDEST POP PUSH2 0x22D PUSH1 0x4 DUP1 CALLDATASIZE SUB DUP2 ADD SWAP1 PUSH2 0x228 SWAP2 SWAP1 PUSH2 0x2E52 JUMP JUMPDEST PUSH2 0x7D7 JUMP JUMPDEST STOP JUMPDEST CALLVALUE DUP1 ISZERO PUSH2 0x23A JUMPI PUSH0 PUSH0 REVERT JUMPDEST POP PUSH2 0x255 PUSH1 0x4 DUP1 CALLDATASIZE SUB DUP2 ADD SWAP1 PUSH2 0x250 SWAP2 SWAP1 PUSH2 0x2E7D JUMP JUMPDEST PUSH2 0x8EF JUMP JUMPDEST STOP JUMPDEST CALLVALUE DUP1 ISZERO PUSH2 0x262 JUMPI PUSH0 PUSH0 REVERT JUMPDEST POP PUSH2 0x26B PUSH2 0x9F6 JUMP JUMPDEST PUSH1 0x40 MLOAD PUSH2 0x278 SWAP2 SWAP1 PUSH2 0x2EC8 JUMP JUMPDEST PUSH1 0x40 MLOAD DUP1 SWAP2 SUB SWAP1 RETURN JUMPDEST PUSH0 PUSH32 0x0 PUSH20 0xFFFFFFFFFFFFFFFFFFFFFFFFFFFFFFFFFFFFFFFF AND PUSH4 0xAD5C4648 PUSH1 0x40 MLOAD DUP2 PUSH4 0xFFFFFFFF AND PUSH1 0xE0 SHL DUP2 MSTORE PUSH1 0x4 ADD PUSH1 0x20 PUSH1 0x40 MLOAD DUP1 DUP4 SUB DUP2 DUP7 GAS STATICCALL ISZERO DUP1 ISZERO PUSH2 0x2EB JUMPI RETURNDATASIZE PUSH0 PUSH0 RETURNDATACOPY RETURNDATASIZE PUSH0 REVERT JUMPDEST POP POP POP POP PUSH1 0x40 MLOAD RETURNDATASIZE PUSH1 0x1F NOT PUSH1 0x1F DUP3 ADD AND DUP3 ADD DUP1 PUSH1 0x40 MSTORE POP DUP2 ADD SWAP1 PUSH2 0x30F SWAP2 SWAP1 PUSH2 0x2EF5 JUMP JUMPDEST SWAP1 POP SWAP1 JUMP JUMPDEST PUSH1 0x1 PUSH0 SWAP1 SLOAD SWAP1 PUSH2 0x100 EXP SWAP1 DIV PUSH20 0xFFFFFFFFFFFFFFFFFFFFFFFFFFFFFFFFFFFFFFFF AND PUSH20 0xFFFFFFFFFFFFFFFFFFFFFFFFFFFFFFFFFFFFFFFF AND PUSH4 0x8DA5CB5B PUSH1 0x40 MLOAD DUP2 PUSH4 0xFFFFFFFF AND PUSH1 0xE0 SHL DUP2 MSTORE PUSH1 0x4 ADD PUSH1 0x20 PUSH1 0x40 MLOAD DUP1 DUP4 SUB DUP2 DUP7 GAS STATICCALL ISZERO DUP1 ISZERO PUSH2 0x37E JUMPI RETURNDATASIZE PUSH0 PUSH0 RETURNDATACOPY RETURNDATASIZE PUSH0 REVERT JUMPDEST POP POP POP POP PUSH1 0x40 MLOAD RETURNDATASIZE PUSH1 0x1F NOT PUSH1 0x1F DUP3 ADD AND DUP3 ADD DUP1 PUSH1 0x40 MSTORE POP DUP2 ADD SWAP1 PUSH2 0x3A2 SWAP2 SWAP1 PUSH2 0x2EF5 JUMP JUMPDEST PUSH20 0xFFFFFFFFFFFFFFFFFFFFFFFFFFFFFFFFFFFFFFFF AND CALLER PUSH20 0xFFFFFFFFFFFFFFFFFFFFFFFFFFFFFFFFFFFFFFFF AND EQ PUSH2 0x40F JUMPI PUSH1 0x40 MLOAD PUSH32 0x8C379A000000000000000000000000000000000000000000000000000000000 DUP2 MSTORE PUSH1 0x4 ADD PUSH2 0x406 SWAP1 PUSH2 0x2F6A JUMP JUMPDEST PUSH1 0x40 MLOAD DUP1 SWAP2 SUB SWAP1 REVERT JUMPDEST PUSH2 0x419 DUP3 DUP3 PUSH2 0xA1A JUMP JUMPDEST POP POP JUMP JUMPDEST PUSH2 0x425 PUSH2 0xA28 JUMP JUMPDEST PUSH1 0x1 PUSH1 0x14 SWAP1 SLOAD SWAP1 PUSH2 0x100 EXP SWAP1 DIV PUSH1 0xFF AND PUSH2 0x474 JUMPI PUSH1 0x40 MLOAD PUSH32 0x8C379A000000000000000000000000000000000000000000000000000000000 DUP2 MSTORE PUSH1 0x4 ADD PUSH2 0x46B SWAP1 PUSH2 0x2FD2 JUMP JUMPDEST PUSH1 0x40 MLOAD DUP1 SWAP2 SUB SWAP1 REVERT JUMPDEST PUSH0 DUP10 DUP10 SWAP1 POP GT PUSH2 0x4B9 JUMPI PUSH1 0x40 MLOAD PUSH32 0x8C379A000000000000000000000000000000000000000000000000000000000 DUP2 MSTORE PUSH1 0x4 ADD PUSH2 0x4B0 SWAP1 PUSH2 0x303A JUMP JUMPDEST PUSH1 0x40 MLOAD DUP1 SWAP2 SUB SWAP1 REVERT JUMPDEST PUSH0 DUP8 DUP8 SWAP1 POP GT PUSH2 0x4FE JUMPI PUSH1 0x40 MLOAD PUSH32 0x8C379A000000000000000000000000000000000000000000000000000000000 DUP2 MSTORE PUSH1 0x4 ADD PUSH2 0x4F5 SWAP1 PUSH2 0x30A2 JUMP JUMPDEST PUSH1 0x40 MLOAD DUP1 SWAP2 SUB SWAP1 REVERT JUMPDEST PUSH0 PUSH20 0xFFFFFFFFFFFFFFFFFFFFFFFFFFFFFFFFFFFFFFFF AND DUP6 PUSH20 0xFFFFFFFFFFFFFFFFFFFFFFFFFFFFFFFFFFFFFFFF AND SUB PUSH2 0x56C JUMPI PUSH1 0x40 MLOAD PUSH32 0x8C379A000000000000000000000000000000000000000000000000000000000 DUP2 MSTORE PUSH1 0x4 ADD PUSH2 0x563 SWAP1 PUSH2 0x3130 JUMP JUMPDEST PUSH1 0x40 MLOAD DUP1 SWAP2 SUB SWAP1 REVERT JUMPDEST PUSH2 0x2710 DUP5 GT ISZERO PUSH2 0x5B1 JUMPI PUSH1 0x40 MLOAD PUSH32 0x8C379A000000000000000000000000000000000000000000000000000000000 DUP2 MSTORE PUSH1 0x4 ADD PUSH2 0x5A8 SWAP1 PUSH2 0x3198 JUMP JUMPDEST PUSH1 0x40 MLOAD DUP1 SWAP2 SUB SWAP1 REVERT JUMPDEST PUSH2 0x5BB DUP10 DUP10 PUSH2 0xA75 JUMP JUMPDEST PUSH2 0x5C5 DUP8 DUP8 PUSH2 0xB5E JUMP JUMPDEST PUSH0 PUSH2 0x5D2 DUP11 DUP11 DUP8 DUP8 PUSH2 0xC76 JUMP JUMPDEST SWAP1 POP PUSH0 PUSH2 0x5E0 DUP5 DUP5 DUP5 PUSH2 0xDC5 JUMP JUMPDEST SWAP1 POP PUSH2 0x5F0 DUP2 DUP11 DUP11 DUP11 DUP11 DUP11 PUSH2 0x10B0 JUMP JUMPDEST PUSH2 0x5F9 CALLER PUSH2 0x123B JUMP JUMPDEST CALLER PUSH20 0xFFFFFFFFFFFFFFFFFFFFFFFFFFFFFFFFFFFFFFFF AND PUSH32 0x40844C000D7E2DAAB466E5A3C1EE770C3E2CCB92A53DDD9DF72C01E07E99AFAF DUP13 DUP13 DUP13 DUP13 DUP12 DUP12 DUP12 DUP12 PUSH1 0x40 MLOAD PUSH2 0x64D SWAP9 SWAP8 SWAP7 SWAP6 SWAP5 SWAP4 SWAP3 SWAP2 SWAP1 PUSH2 0x3505 JUMP JUMPDEST PUSH1 0x40 MLOAD DUP1 SWAP2 SUB SWAP1 LOG2 POP POP PUSH2 0x65F PUSH2 0x12ED JUMP JUMPDEST POP POP POP POP POP POP POP POP POP JUMP JUMPDEST PUSH1 0x1 PUSH1 0x14 SWAP1 SLOAD SWAP1 PUSH2 0x100 EXP SWAP1 DIV PUSH1 0xFF AND DUP2 JUMP JUMPDEST PUSH0 PUSH1 0x1 PUSH0 SWAP1 SLOAD SWAP1 PUSH2 0x100 EXP SWAP1 DIV PUSH20 0xFFFFFFFFFFFFFFFFFFFFFFFFFFFFFFFFFFFFFFFF AND PUSH20 0xFFFFFFFFFFFFFFFFFFFFFFFFFFFFFFFFFFFFFFFF AND PUSH4 0x27262618 DUP4 PUSH1 0x40 MLOAD DUP3 PUSH4 0xFFFFFFFF AND PUSH1 0xE0 SHL DUP2 MSTORE PUSH1 0x4 ADD PUSH2 0x6D8 SWAP2 SWAP1 PUSH2 0x35C1 JUMP JUMPDEST PUSH1 0x20 PUSH1 0x40 MLOAD DUP1 DUP4 SUB DUP2 DUP7 GAS STATICCALL ISZERO DUP1 ISZERO PUSH2 0x6F3 JUMPI RETURNDATASIZE PUSH0 PUSH0 RETURNDATACOPY RETURNDATASIZE PUSH0 REVERT JUMPDEST POP POP POP POP PUSH1 0x40 MLOAD RETURNDATASIZE PUSH1 0x1F NOT PUSH1 0x1F DUP3 ADD AND DUP3 ADD DUP1 PUSH1 0x40 MSTORE POP DUP2 ADD SWAP1 PUSH2 0x717 SWAP2 SWAP1 PUSH2 0x2EF5 JUMP JUMPDEST SWAP1 POP SWAP2 SWAP1 POP JUMP JUMPDEST PUSH1 0x1 PUSH0 SWAP1 SLOAD SWAP1 PUSH2 0x100 EXP SWAP1 DIV PUSH20 0xFFFFFFFFFFFFFFFFFFFFFFFFFFFFFFFFFFFFFFFF AND DUP2 JUMP JUMPDEST PUSH0 PUSH1 0x1 PUSH0 SWAP1 SLOAD SWAP1 PUSH2 0x100 EXP SWAP1 DIV PUSH20 0xFFFFFFFFFFFFFFFFFFFFFFFFFFFFFFFFFFFFFFFF AND PUSH20 0xFFFFFFFFFFFFFFFFFFFFFFFFFFFFFFFFFFFFFFFF AND PUSH4 0x8DA5CB5B PUSH1 0x40 MLOAD DUP2 PUSH4 0xFFFFFFFF AND PUSH1 0xE0 SHL DUP2 MSTORE PUSH1 0x4 ADD PUSH1 0x20 PUSH1 0x40 MLOAD DUP1 DUP4 SUB DUP2 DUP7 GAS STATICCALL ISZERO DUP1 ISZERO PUSH2 0x7AE JUMPI RETURNDATASIZE PUSH0 PUSH0 RETURNDATACOPY RETURNDATASIZE PUSH0 REVERT JUMPDEST POP POP POP POP PUSH1 0x40 MLOAD RETURNDATASIZE PUSH1 0x1F NOT PUSH1 0x1F DUP3 ADD AND DUP3 ADD DUP1 PUSH1 0x40 MSTORE POP DUP2 ADD SWAP1 PUSH2 0x7D2 SWAP2 SWAP1 PUSH2 0x2EF5 JUMP JUMPDEST SWAP1 POP SWAP1 JUMP JUMPDEST PUSH1 0x1 PUSH0 SWAP1 SLOAD SWAP1 PUSH2 0x100 EXP SWAP1 DIV PUSH20 0xFFFFFFFFFFFFFFFFFFFFFFFFFFFFFFFFFFFFFFFF AND PUSH20 0xFFFFFFFFFFFFFFFFFFFFFFFFFFFFFFFFFFFFFFFF AND PUSH4 0x8DA5CB5B PUSH1 0x40 MLOAD DUP2 PUSH4 0xFFFFFFFF AND PUSH1 0xE0 SHL DUP2 MSTORE PUSH1 0x4 ADD PUSH1 0x20 PUSH1 0x40 MLOAD DUP1 DUP4 SUB DUP2 DUP7 GAS STATICCALL ISZERO DUP1 ISZERO PUSH2 0x841 JUMPI RETURNDATASIZE PUSH0 PUSH0 RETURNDATACOPY RETURNDATASIZE PUSH0 REVERT JUMPDEST POP POP POP POP PUSH1 0x40 MLOAD RETURNDATASIZE PUSH1 0x1F NOT PUSH1 0x1F DUP3 ADD AND DUP3 ADD DUP1 PUSH1 0x40 MSTORE POP DUP2 ADD SWAP1 PUSH2 0x865 SWAP2 SWAP1 PUSH2 0x2EF5 JUMP JUMPDEST PUSH20 0xFFFFFFFFFFFFFFFFFFFFFFFFFFFFFFFFFFFFFFFF AND CALLER PUSH20 0xFFFFFFFFFFFFFFFFFFFFFFFFFFFFFFFFFFFFFFFF AND EQ PUSH2 0x8D2 JUMPI PUSH1 0x40 MLOAD PUSH32 0x8C379A000000000000000000000000000000000000000000000000000000000 DUP2 MSTORE PUSH1 0x4 ADD PUSH2 0x8C9 SWAP1 PUSH2 0x2F6A JUMP JUMPDEST PUSH1 0x40 MLOAD DUP1 SWAP2 SUB SWAP1 REVERT JUMPDEST DUP1 PUSH1 0x1 PUSH1 0x14 PUSH2 0x100 EXP DUP2 SLOAD DUP2 PUSH1 0xFF MUL NOT AND SWAP1 DUP4 ISZERO ISZERO MUL OR SWAP1 SSTORE POP POP JUMP JUMPDEST PUSH1 0x1 PUSH0 SWAP1 SLOAD SWAP1 PUSH2 0x100 EXP SWAP1 DIV PUSH20 0xFFFFFFFFFFFFFFFFFFFFFFFFFFFFFFFFFFFFFFFF AND PUSH20 0xFFFFFFFFFFFFFFFFFFFFFFFFFFFFFFFFFFFFFFFF AND PUSH4 0x8DA5CB5B PUSH1 0x40 MLOAD DUP2 PUSH4 0xFFFFFFFF AND PUSH1 0xE0 SHL DUP2 MSTORE PUSH1 0x4 ADD PUSH1 0x20 PUSH1 0x40 MLOAD DUP1 DUP4 SUB DUP2 DUP7 GAS STATICCALL ISZERO DUP1 ISZERO PUSH2 0x959 JUMPI RETURNDATASIZE PUSH0 PUSH0 RETURNDATACOPY RETURNDATASIZE PUSH0 REVERT JUMPDEST POP POP POP POP PUSH1 0x40 MLOAD RETURNDATASIZE PUSH1 0x1F NOT PUSH1 0x1F DUP3 ADD AND DUP3 ADD DUP1 PUSH1 0x40 MSTORE POP DUP2 ADD SWAP1 PUSH2 0x97D SWAP2 SWAP1 PUSH2 0x2EF5 JUMP JUMPDEST PUSH20 0xFFFFFFFFFFFFFFFFFFFFFFFFFFFFFFFFFFFFFFFF AND CALLER PUSH20 0xFFFFFFFFFFFFFFFFFFFFFFFFFFFFFFFFFFFFFFFF AND EQ PUSH2 0x9EA JUMPI PUSH1 0x40 MLOAD PUSH32 0x8C379A000000000000000000000000000000000000000000000000000000000 DUP2 MSTORE PUSH1 0x4 ADD PUSH2 0x9E1 SWAP1 PUSH2 0x2F6A JUMP JUMPDEST PUSH1 0x40 MLOAD DUP1 SWAP2 SUB SWAP1 REVERT JUMPDEST PUSH2 0x9F3 DUP2 PUSH2 0x12F6 JUMP JUMPDEST POP JUMP JUMPDEST PUSH32 0x0 DUP2 JUMP JUMPDEST PUSH2 0xA24 DUP3 DUP3 PUSH2 0x14A8 JUMP JUMPDEST POP POP JUMP JUMPDEST PUSH1 0x2 PUSH0 SLOAD SUB PUSH2 0xA6C JUMPI PUSH1 0x40 MLOAD PUSH32 0x8C379A000000000000000000000000000000000000000000000000000000000 DUP2 MSTORE PUSH1 0x4 ADD PUSH2 0xA63 SWAP1 PUSH2 0x362B JUMP JUMPDEST PUSH1 0x40 MLOAD DUP1 SWAP2 SUB SWAP1 REVERT JUMPDEST PUSH1 0x2 PUSH0 DUP2 SWAP1 SSTORE POP JUMP JUMPDEST PUSH0 PUSH0 JUMPDEST DUP4 DUP4 SWAP1 POP DUP2 LT ISZERO PUSH2 0xB15 JUMPI PUSH0 PUSH20 0xFFFFFFFFFFFFFFFFFFFFFFFFFFFFFFFFFFFFFFFF AND DUP5 DUP5 DUP4 DUP2 DUP2 LT PUSH2 0xAAD JUMPI PUSH2 0xAAC PUSH2 0x3649 JUMP JUMPDEST JUMPDEST SWAP1 POP PUSH1 0x40 MUL ADD PUSH0 ADD PUSH1 0x20 DUP2 ADD SWAP1 PUSH2 0xAC4 SWAP2 SWAP1 PUSH2 0x2E7D JUMP JUMPDEST PUSH20 0xFFFFFFFFFFFFFFFFFFFFFFFFFFFFFFFFFFFFFFFF AND SUB PUSH2 0xB0A JUMPI DUP4 DUP4 DUP3 DUP2 DUP2 LT PUSH2 0xAF2 JUMPI PUSH2 0xAF1 PUSH2 0x3649 JUMP JUMPDEST JUMPDEST SWAP1 POP PUSH1 0x40 MUL ADD PUSH1 0x20 ADD CALLDATALOAD DUP3 PUSH2 0xB07 SWAP2 SWAP1 PUSH2 0x36A3 JUMP JUMPDEST SWAP2 POP JUMPDEST DUP1 PUSH1 0x1 ADD SWAP1 POP PUSH2 0xA78 JUMP JUMPDEST POP DUP1 CALLVALUE LT ISZERO PUSH2 0xB59 JUMPI PUSH1 0x40 MLOAD PUSH32 0x8C379A000000000000000000000000000000000000000000000000000000000 DUP2 MSTORE PUSH1 0x4 ADD PUSH2 0xB50 SWAP1 PUSH2 0x3720 JUMP JUMPDEST PUSH1 0x40 MLOAD DUP1 SWAP2 SUB SWAP1 REVERT JUMPDEST POP POP POP JUMP JUMPDEST PUSH0 PUSH0 SWAP1 POP PUSH0 PUSH0 SWAP1 POP JUMPDEST DUP4 DUP4 SWAP1 POP DUP2 LT ISZERO PUSH2 0xC2B JUMPI PUSH0 DUP5 DUP5 DUP4 DUP2 DUP2 LT PUSH2 0xB86 JUMPI PUSH2 0xB85 PUSH2 0x3649 JUMP JUMPDEST JUMPDEST SWAP1 POP PUSH1 0x40 MUL ADD PUSH1 0x20 ADD PUSH1 0x20 DUP2 ADD SWAP1 PUSH2 0xB9E SWAP2 SWAP1 PUSH2 0x373E JUMP JUMPDEST PUSH2 0xFFFF AND GT PUSH2 0xBE2 JUMPI PUSH1 0x40 MLOAD PUSH32 0x8C379A000000000000000000000000000000000000000000000000000000000 DUP2 MSTORE PUSH1 0x4 ADD PUSH2 0xBD9 SWAP1 PUSH2 0x37D9 JUMP JUMPDEST PUSH1 0x40 MLOAD DUP1 SWAP2 SUB SWAP1 REVERT JUMPDEST DUP4 DUP4 DUP3 DUP2 DUP2 LT PUSH2 0xBF5 JUMPI PUSH2 0xBF4 PUSH2 0x3649 JUMP JUMPDEST JUMPDEST SWAP1 POP PUSH1 0x40 MUL ADD PUSH1 0x20 ADD PUSH1 0x20 DUP2 ADD SWAP1 PUSH2 0xC0D SWAP2 SWAP1 PUSH2 0x373E JUMP JUMPDEST PUSH2 0xFFFF AND DUP3 PUSH2 0xC1C SWAP2 SWAP1 PUSH2 0x36A3 JUMP JUMPDEST SWAP2 POP DUP1 DUP1 PUSH1 0x1 ADD SWAP2 POP POP PUSH2 0xB67 JUMP JUMPDEST POP PUSH2 0x2710 DUP2 GT ISZERO PUSH2 0xC71 JUMPI PUSH1 0x40 MLOAD PUSH32 0x8C379A000000000000000000000000000000000000000000000000000000000 DUP2 MSTORE PUSH1 0x4 ADD PUSH2 0xC68 SWAP1 PUSH2 0x3867 JUMP JUMPDEST PUSH1 0x40 MLOAD DUP1 SWAP2 SUB SWAP1 REVERT JUMPDEST POP POP POP JUMP JUMPDEST PUSH0 PUSH0 PUSH0 SWAP1 POP PUSH0 PUSH0 SWAP1 POP JUMPDEST DUP7 DUP7 SWAP1 POP DUP2 LT ISZERO PUSH2 0xDB8 JUMPI PUSH0 PUSH20 0xFFFFFFFFFFFFFFFFFFFFFFFFFFFFFFFFFFFFFFFF AND DUP8 DUP8 DUP4 DUP2 DUP2 LT PUSH2 0xCB5 JUMPI PUSH2 0xCB4 PUSH2 0x3649 JUMP JUMPDEST JUMPDEST SWAP1 POP PUSH1 0x40 MUL ADD PUSH0 ADD PUSH1 0x20 DUP2 ADD SWAP1 PUSH2 0xCCC SWAP2 SWAP1 PUSH2 0x2E7D JUMP JUMPDEST PUSH20 0xFFFFFFFFFFFFFFFFFFFFFFFFFFFFFFFFFFFFFFFF AND SUB PUSH2 0xD3D JUMPI PUSH2 0xD0E ADDRESS ADDRESS DUP10 DUP10 DUP6 DUP2 DUP2 LT PUSH2 0xCFF JUMPI PUSH2 0xCFE PUSH2 0x3649 JUMP JUMPDEST JUMPDEST SWAP1 POP PUSH1 0x40 MUL ADD PUSH1 0x20 ADD CALLDATALOAD PUSH2 0x1571 JUMP JUMPDEST DUP7 DUP7 DUP3 DUP2 DUP2 LT PUSH2 0xD21 JUMPI PUSH2 0xD20 PUSH2 0x3649 JUMP JUMPDEST JUMPDEST SWAP1 POP PUSH1 0x40 MUL ADD PUSH1 0x20 ADD CALLDATALOAD DUP3 PUSH2 0xD36 SWAP2 SWAP1 PUSH2 0x36A3 JUMP JUMPDEST SWAP2 POP PUSH2 0xDAB JUMP JUMPDEST PUSH0 PUSH2 0xD99 DUP9 DUP9 DUP5 DUP2 DUP2 LT PUSH2 0xD54 JUMPI PUSH2 0xD53 PUSH2 0x3649 JUMP JUMPDEST JUMPDEST SWAP1 POP PUSH1 0x40 MUL ADD PUSH0 ADD PUSH1 0x20 DUP2 ADD SWAP1 PUSH2 0xD6B SWAP2 SWAP1 PUSH2 0x2E7D JUMP JUMPDEST PUSH2 0xD73 PUSH2 0x281 JUMP JUMPDEST DUP11 DUP11 DUP7 DUP2 DUP2 LT PUSH2 0xD86 JUMPI PUSH2 0xD85 PUSH2 0x3649 JUMP JUMPDEST JUMPDEST SWAP1 POP PUSH1 0x40 MUL ADD PUSH1 0x20 ADD CALLDATALOAD CALLER ADDRESS DUP12 DUP12 PUSH2 0x1716 JUMP JUMPDEST SWAP1 POP DUP1 DUP4 PUSH2 0xDA7 SWAP2 SWAP1 PUSH2 0x36A3 JUMP JUMPDEST SWAP3 POP POP JUMPDEST DUP1 DUP1 PUSH1 0x1 ADD SWAP2 POP POP PUSH2 0xC80 JUMP JUMPDEST POP DUP1 SWAP2 POP POP SWAP5 SWAP4 POP POP POP POP JUMP JUMPDEST PUSH0 PUSH0 DUP5 DUP5 SWAP1 POP SUB PUSH2 0xDD8 JUMPI DUP2 SWAP1 POP PUSH2 0x10A9 JUMP JUMPDEST PUSH0 PUSH0 SWAP1 POP PUSH0 PUSH0 SWAP1 POP JUMPDEST DUP6 DUP6 SWAP1 POP DUP2 LT ISZERO PUSH2 0xF3C JUMPI PUSH0 PUSH20 0xFFFFFFFFFFFFFFFFFFFFFFFFFFFFFFFFFFFFFFFF AND DUP7 DUP7 DUP4 DUP2 DUP2 LT PUSH2 0xE16 JUMPI PUSH2 0xE15 PUSH2 0x3649 JUMP JUMPDEST JUMPDEST SWAP1 POP PUSH1 0x40 MUL ADD PUSH0 ADD PUSH1 0x20 DUP2 ADD SWAP1 PUSH2 0xE2D SWAP2 SWAP1 PUSH2 0x2E7D JUMP JUMPDEST PUSH20 0xFFFFFFFFFFFFFFFFFFFFFFFFFFFFFFFFFFFFFFFF AND SUB PUSH2 0xE83 JUMPI PUSH1 0x40 MLOAD PUSH32 0x8C379A000000000000000000000000000000000000000000000000000000000 DUP2 MSTORE PUSH1 0x4 ADD PUSH2 0xE7A SWAP1 PUSH2 0x38CF JUMP JUMPDEST PUSH1 0x40 MLOAD DUP1 SWAP2 SUB SWAP1 REVERT JUMPDEST PUSH0 DUP7 DUP7 DUP4 DUP2 DUP2 LT PUSH2 0xE97 JUMPI PUSH2 0xE96 PUSH2 0x3649 JUMP JUMPDEST JUMPDEST SWAP1 POP PUSH1 0x40 MUL ADD PUSH1 0x20 ADD PUSH1 0x20 DUP2 ADD SWAP1 PUSH2 0xEAF SWAP2 SWAP1 PUSH2 0x373E JUMP JUMPDEST PUSH2 0xFFFF AND GT PUSH2 0xEF3 JUMPI PUSH1 0x40 MLOAD PUSH32 0x8C379A000000000000000000000000000000000000000000000000000000000 DUP2 MSTORE PUSH1 0x4 ADD PUSH2 0xEEA SWAP1 PUSH2 0x3937 JUMP JUMPDEST PUSH1 0x40 MLOAD DUP1 SWAP2 SUB SWAP1 REVERT JUMPDEST DUP6 DUP6 DUP3 DUP2 DUP2 LT PUSH2 0xF06 JUMPI PUSH2 0xF05 PUSH2 0x3649 JUMP JUMPDEST JUMPDEST SWAP1 POP PUSH1 0x40 MUL ADD PUSH1 0x20 ADD PUSH1 0x20 DUP2 ADD SWAP1 PUSH2 0xF1E SWAP2 SWAP1 PUSH2 0x373E JUMP JUMPDEST PUSH2 0xFFFF AND DUP3 PUSH2 0xF2D SWAP2 SWAP1 PUSH2 0x36A3 JUMP JUMPDEST SWAP2 POP DUP1 DUP1 PUSH1 0x1 ADD SWAP2 POP POP PUSH2 0xDE1 JUMP JUMPDEST POP PUSH2 0x2710 DUP2 GT ISZERO PUSH2 0xF82 JUMPI PUSH1 0x40 MLOAD PUSH32 0x8C379A000000000000000000000000000000000000000000000000000000000 DUP2 MSTORE PUSH1 0x4 ADD PUSH2 0xF79 SWAP1 PUSH2 0x399F JUMP JUMPDEST PUSH1 0x40 MLOAD DUP1 SWAP2 SUB SWAP1 REVERT JUMPDEST PUSH0 DUP4 SWAP1 POP PUSH0 PUSH0 SWAP1 POP JUMPDEST DUP7 DUP7 SWAP1 POP DUP2 LT ISZERO PUSH2 0x10A2 JUMPI PUSH0 PUSH2 0xFCB DUP7 DUP10 DUP10 DUP6 DUP2 DUP2 LT PUSH2 0xFAE JUMPI PUSH2 0xFAD PUSH2 0x3649 JUMP JUMPDEST JUMPDEST SWAP1 POP PUSH1 0x40 MUL ADD PUSH1 0x20 ADD PUSH1 0x20 DUP2 ADD SWAP1 PUSH2 0xFC6 SWAP2 SWAP1 PUSH2 0x373E JUMP JUMPDEST PUSH2 0x1ABF JUMP JUMPDEST SWAP1 POP PUSH0 DUP2 SUB PUSH2 0xFDA JUMPI POP PUSH2 0x1095 JUMP JUMPDEST PUSH2 0x100E ADDRESS DUP10 DUP10 DUP6 DUP2 DUP2 LT PUSH2 0xFF1 JUMPI PUSH2 0xFF0 PUSH2 0x3649 JUMP JUMPDEST JUMPDEST SWAP1 POP PUSH1 0x40 MUL ADD PUSH0 ADD PUSH1 0x20 DUP2 ADD SWAP1 PUSH2 0x1008 SWAP2 SWAP1 PUSH2 0x2E7D JUMP JUMPDEST DUP4 PUSH2 0x1AE5 JUMP JUMPDEST DUP1 DUP4 PUSH2 0x101A SWAP2 SWAP1 PUSH2 0x39BD JUMP JUMPDEST SWAP3 POP DUP8 DUP8 DUP4 DUP2 DUP2 LT PUSH2 0x102F JUMPI PUSH2 0x102E PUSH2 0x3649 JUMP JUMPDEST JUMPDEST SWAP1 POP PUSH1 0x40 MUL ADD PUSH0 ADD PUSH1 0x20 DUP2 ADD SWAP1 PUSH2 0x1046 SWAP2 SWAP1 PUSH2 0x2E7D JUMP JUMPDEST PUSH20 0xFFFFFFFFFFFFFFFFFFFFFFFFFFFFFFFFFFFFFFFF AND PUSH32 0x75A2720282FDF622141DAE0B048EF90A21A7E57C134C76912D19D006B3B3F6F DUP3 PUSH1 0x40 MLOAD PUSH2 0x108B SWAP2 SWAP1 PUSH2 0x39F0 JUMP JUMPDEST PUSH1 0x40 MLOAD DUP1 SWAP2 SUB SWAP1 LOG2 POP JUMPDEST DUP1 DUP1 PUSH1 0x1 ADD SWAP2 POP POP PUSH2 0xF8B JUMP JUMPDEST POP DUP1 SWAP3 POP POP POP JUMPDEST SWAP4 SWAP3 POP POP POP JUMP JUMPDEST PUSH0 PUSH2 0x10B9 PUSH2 0x281 JUMP JUMPDEST SWAP1 POP PUSH0 PUSH0 SWAP1 POP JUMPDEST DUP7 DUP7 SWAP1 POP DUP2 LT ISZERO PUSH2 0x1231 JUMPI PUSH0 PUSH2 0x1100 DUP10 DUP10 DUP10 DUP6 DUP2 DUP2 LT PUSH2 0x10E3 JUMPI PUSH2 0x10E2 PUSH2 0x3649 JUMP JUMPDEST JUMPDEST SWAP1 POP PUSH1 0x40 MUL ADD PUSH1 0x20 ADD PUSH1 0x20 DUP2 ADD SWAP1 PUSH2 0x10FB SWAP2 SWAP1 PUSH2 0x373E JUMP JUMPDEST PUSH2 0x1ABF JUMP JUMPDEST SWAP1 POP PUSH0 DUP2 SUB PUSH2 0x110F JUMPI POP PUSH2 0x1224 JUMP JUMPDEST PUSH0 PUSH20 0xFFFFFFFFFFFFFFFFFFFFFFFFFFFFFFFFFFFFFFFF AND DUP9 DUP9 DUP5 DUP2 DUP2 LT PUSH2 0x1139 JUMPI PUSH2 0x1138 PUSH2 0x3649 JUMP JUMPDEST JUMPDEST SWAP1 POP PUSH1 0x40 MUL ADD PUSH0 ADD PUSH1 0x20 DUP2 ADD SWAP1 PUSH2 0x1150 SWAP2 SWAP1 PUSH2 0x2E7D JUMP JUMPDEST PUSH20 0xFFFFFFFFFFFFFFFFFFFFFFFFFFFFFFFFFFFFFFFF AND SUB PUSH2 0x117B JUMPI PUSH2 0x1176 ADDRESS DUP8 DUP4 PUSH2 0x1AE5 JUMP JUMPDEST PUSH2 0x1222 JUMP JUMPDEST DUP3 PUSH20 0xFFFFFFFFFFFFFFFFFFFFFFFFFFFFFFFFFFFFFFFF AND DUP9 DUP9 DUP5 DUP2 DUP2 LT PUSH2 0x11A5 JUMPI PUSH2 0x11A4 PUSH2 0x3649 JUMP JUMPDEST JUMPDEST SWAP1 POP PUSH1 0x40 MUL ADD PUSH0 ADD PUSH1 0x20 DUP2 ADD SWAP1 PUSH2 0x11BC SWAP2 SWAP1 PUSH2 0x2E7D JUMP JUMPDEST PUSH20 0xFFFFFFFFFFFFFFFFFFFFFFFFFFFFFFFFFFFFFFFF AND SUB PUSH2 0x11E7 JUMPI PUSH2 0x11E2 DUP4 DUP8 DUP4 PUSH2 0x1CE1 JUMP JUMPDEST PUSH2 0x1221 JUMP JUMPDEST PUSH2 0x121F DUP4 DUP10 DUP10 DUP6 DUP2 DUP2 LT PUSH2 0x11FE JUMPI PUSH2 0x11FD PUSH2 0x3649 JUMP JUMPDEST JUMPDEST SWAP1 POP PUSH1 0x40 MUL ADD PUSH0 ADD PUSH1 0x20 DUP2 ADD SWAP1 PUSH2 0x1215 SWAP2 SWAP1 PUSH2 0x2E7D JUMP JUMPDEST DUP4 ADDRESS DUP11 DUP11 DUP11 PUSH2 0x1716 JUMP JUMPDEST POP JUMPDEST JUMPDEST POP JUMPDEST DUP1 DUP1 PUSH1 0x1 ADD SWAP2 POP POP PUSH2 0x10C0 JUMP JUMPDEST POP POP POP POP POP POP POP POP JUMP JUMPDEST PUSH0 PUSH2 0x1244 PUSH2 0x281 JUMP JUMPDEST PUSH20 0xFFFFFFFFFFFFFFFFFFFFFFFFFFFFFFFFFFFFFFFF AND PUSH4 0x70A08231 ADDRESS PUSH1 0x40 MLOAD DUP3 PUSH4 0xFFFFFFFF AND PUSH1 0xE0 SHL DUP2 MSTORE PUSH1 0x4 ADD PUSH2 0x127C SWAP2 SWAP1 PUSH2 0x2D9B JUMP JUMPDEST PUSH1 0x20 PUSH1 0x40 MLOAD DUP1 DUP4 SUB DUP2 DUP7 GAS STATICCALL ISZERO DUP1 ISZERO PUSH2 0x1297 JUMPI RETURNDATASIZE PUSH0 PUSH0 RETURNDATACOPY RETURNDATASIZE PUSH0 REVERT JUMPDEST POP POP POP POP PUSH1 0x40 MLOAD RETURNDATASIZE PUSH1 0x1F NOT PUSH1 0x1F DUP3 ADD AND DUP3 ADD DUP1 PUSH1 0x40 MSTORE POP DUP2 ADD SWAP1 PUSH2 0x12BB SWAP2 SWAP1 PUSH2 0x3A1D JUMP JUMPDEST SWAP1 POP PUSH0 SELFBALANCE SWAP1 POP PUSH0 DUP3 GT ISZERO PUSH2 0x12D5 JUMPI PUSH2 0x12D4 ADDRESS DUP5 DUP5 PUSH2 0x1AE5 JUMP JUMPDEST JUMPDEST PUSH0 DUP2 GT ISZERO PUSH2 0x12E8 JUMPI PUSH2 0x12E7 DUP4 DUP3 PUSH2 0x1D58 JUMP JUMPDEST JUMPDEST POP POP POP JUMP JUMPDEST PUSH1 0x1 PUSH0 DUP2 SWAP1 SSTORE POP JUMP JUMPDEST PUSH0 PUSH20 0xFFFFFFFFFFFFFFFFFFFFFFFFFFFFFFFFFFFFFFFF AND DUP2 PUSH20 0xFFFFFFFFFFFFFFFFFFFFFFFFFFFFFFFFFFFFFFFF AND SUB PUSH2 0x1364 JUMPI PUSH1 0x40 MLOAD PUSH32 0x8C379A000000000000000000000000000000000000000000000000000000000 DUP2 MSTORE PUSH1 0x4 ADD PUSH2 0x135B SWAP1 PUSH2 0x3A92 JUMP JUMPDEST PUSH1 0x40 MLOAD DUP1 SWAP2 SUB SWAP1 REVERT JUMPDEST PUSH0 DUP2 PUSH20 0xFFFFFFFFFFFFFFFFFFFFFFFFFFFFFFFFFFFFFFFF AND EXTCODESIZE GT PUSH2 0x13BD JUMPI PUSH1 0x40 MLOAD PUSH32 0x8C379A000000000000000000000000000000000000000000000000000000000 DUP2 MSTORE PUSH1 0x4 ADD PUSH2 0x13B4 SWAP1 PUSH2 0x3AFA JUMP JUMPDEST PUSH1 0x40 MLOAD DUP1 SWAP2 SUB SWAP1 REVERT JUMPDEST DUP1 PUSH20 0xFFFFFFFFFFFFFFFFFFFFFFFFFFFFFFFFFFFFFFFF AND PUSH4 0x8DA5CB5B PUSH1 0x40 MLOAD DUP2 PUSH4 0xFFFFFFFF AND PUSH1 0xE0 SHL DUP2 MSTORE PUSH1 0x4 ADD PUSH1 0x20 PUSH1 0x40 MLOAD DUP1 DUP4 SUB DUP2 DUP7 GAS STATICCALL SWAP3 POP POP POP DUP1 ISZERO PUSH2 0x1425 JUMPI POP PUSH1 0x40 MLOAD RETURNDATASIZE PUSH1 0x1F NOT PUSH1 0x1F DUP3 ADD AND DUP3 ADD DUP1 PUSH1 0x40 MSTORE POP DUP2 ADD SWAP1 PUSH2 0x1422 SWAP2 SWAP1 PUSH2 0x2EF5 JUMP JUMPDEST PUSH1 0x1 JUMPDEST PUSH2 0x1464 JUMPI PUSH1 0x40 MLOAD PUSH32 0x8C379A000000000000000000000000000000000000000000000000000000000 DUP2 MSTORE PUSH1 0x4 ADD PUSH2 0x145B SWAP1 PUSH2 0x3B88 JUMP JUMPDEST PUSH1 0x40 MLOAD DUP1 SWAP2 SUB SWAP1 REVERT JUMPDEST DUP2 PUSH1 0x1 PUSH0 PUSH2 0x100 EXP DUP2 SLOAD DUP2 PUSH20 0xFFFFFFFFFFFFFFFFFFFFFFFFFFFFFFFFFFFFFFFF MUL NOT AND SWAP1 DUP4 PUSH20 0xFFFFFFFFFFFFFFFFFFFFFFFFFFFFFFFFFFFFFFFF AND MUL OR SWAP1 SSTORE POP POP POP JUMP JUMPDEST PUSH0 PUSH20 0xFFFFFFFFFFFFFFFFFFFFFFFFFFFFFFFFFFFFFFFF AND DUP3 PUSH20 0xFFFFFFFFFFFFFFFFFFFFFFFFFFFFFFFFFFFFFFFF AND SUB PUSH2 0x14EA JUMPI PUSH2 0x14E5 DUP2 SELFBALANCE PUSH2 0x1D58 JUMP JUMPDEST PUSH2 0x156D JUMP JUMPDEST PUSH2 0x156C DUP3 DUP3 DUP5 PUSH20 0xFFFFFFFFFFFFFFFFFFFFFFFFFFFFFFFFFFFFFFFF AND PUSH4 0x70A08231 ADDRESS PUSH1 0x40 MLOAD DUP3 PUSH4 0xFFFFFFFF AND PUSH1 0xE0 SHL DUP2 MSTORE PUSH1 0x4 ADD PUSH2 0x1528 SWAP2 SWAP1 PUSH2 0x2D9B JUMP JUMPDEST PUSH1 0x20 PUSH1 0x40 MLOAD DUP1 DUP4 SUB DUP2 DUP7 GAS STATICCALL ISZERO DUP1 ISZERO PUSH2 0x1543 JUMPI RETURNDATASIZE PUSH0 PUSH0 RETURNDATACOPY RETURNDATASIZE PUSH0 REVERT JUMPDEST POP POP POP POP PUSH1 0x40 MLOAD RETURNDATASIZE PUSH1 0x1F NOT PUSH1 0x1F DUP3 ADD AND DUP3 ADD DUP1 PUSH1 0x40 MSTORE POP DUP2 ADD SWAP1 PUSH2 0x1567 SWAP2 SWAP1 PUSH2 0x3A1D JUMP JUMPDEST PUSH2 0x1CE1 JUMP JUMPDEST JUMPDEST POP POP JUMP JUMPDEST PUSH0 PUSH2 0x157A PUSH2 0x281 JUMP JUMPDEST SWAP1 POP PUSH0 DUP3 GT PUSH2 0x15BE JUMPI PUSH1 0x40 MLOAD PUSH32 0x8C379A000000000000000000000000000000000000000000000000000000000 DUP2 MSTORE PUSH1 0x4 ADD PUSH2 0x15B5 SWAP1 PUSH2 0x3BF0 JUMP JUMPDEST PUSH1 0x40 MLOAD DUP1 SWAP2 SUB SWAP1 REVERT JUMPDEST ADDRESS PUSH20 0xFFFFFFFFFFFFFFFFFFFFFFFFFFFFFFFFFFFFFFFF AND DUP5 PUSH20 0xFFFFFFFFFFFFFFFFFFFFFFFFFFFFFFFFFFFFFFFF AND EQ PUSH2 0x162C JUMPI PUSH1 0x40 MLOAD PUSH32 0x8C379A000000000000000000000000000000000000000000000000000000000 DUP2 MSTORE PUSH1 0x4 ADD PUSH2 0x1623 SWAP1 PUSH2 0x3C7E JUMP JUMPDEST PUSH1 0x40 MLOAD DUP1 SWAP2 SUB SWAP1 REVERT JUMPDEST DUP2 SELFBALANCE LT ISZERO PUSH2 0x166F JUMPI PUSH1 0x40 MLOAD PUSH32 0x8C379A000000000000000000000000000000000000000000000000000000000 DUP2 MSTORE PUSH1 0x4 ADD PUSH2 0x1666 SWAP1 PUSH2 0x3CE6 JUMP JUMPDEST PUSH1 0x40 MLOAD DUP1 SWAP2 SUB SWAP1 REVERT JUMPDEST PUSH0 DUP2 SWAP1 POP DUP1 PUSH20 0xFFFFFFFFFFFFFFFFFFFFFFFFFFFFFFFFFFFFFFFF AND PUSH4 0xD0E30DB0 DUP5 PUSH1 0x40 MLOAD DUP3 PUSH4 0xFFFFFFFF AND PUSH1 0xE0 SHL DUP2 MSTORE PUSH1 0x4 ADD PUSH0 PUSH1 0x40 MLOAD DUP1 DUP4 SUB DUP2 DUP6 DUP9 DUP1 EXTCODESIZE ISZERO DUP1 ISZERO PUSH2 0x16B9 JUMPI PUSH0 PUSH0 REVERT JUMPDEST POP GAS CALL ISZERO DUP1 ISZERO PUSH2 0x16CB JUMPI RETURNDATASIZE PUSH0 PUSH0 RETURNDATACOPY RETURNDATASIZE PUSH0 REVERT JUMPDEST POP POP POP POP POP ADDRESS PUSH20 0xFFFFFFFFFFFFFFFFFFFFFFFFFFFFFFFFFFFFFFFF AND DUP5 PUSH20 0xFFFFFFFFFFFFFFFFFFFFFFFFFFFFFFFFFFFFFFFF AND EQ PUSH2 0x170F JUMPI PUSH2 0x170E DUP3 DUP6 DUP6 PUSH2 0x1CE1 JUMP JUMPDEST JUMPDEST POP POP POP POP POP JUMP JUMPDEST PUSH0 PUSH0 PUSH20 0xFFFFFFFFFFFFFFFFFFFFFFFFFFFFFFFFFFFFFFFF AND DUP9 PUSH20 0xFFFFFFFFFFFFFFFFFFFFFFFFFFFFFFFFFFFFFFFF AND SUB PUSH2 0x1785 JUMPI PUSH1 0x40 MLOAD PUSH32 0x8C379A000000000000000000000000000000000000000000000000000000000 DUP2 MSTORE PUSH1 0x4 ADD PUSH2 0x177C SWAP1 PUSH2 0x3D74 JUMP JUMPDEST PUSH1 0x40 MLOAD DUP1 SWAP2 SUB SWAP1 REVERT JUMPDEST PUSH0 PUSH20 0xFFFFFFFFFFFFFFFFFFFFFFFFFFFFFFFFFFFFFFFF AND DUP8 PUSH20 0xFFFFFFFFFFFFFFFFFFFFFFFFFFFFFFFFFFFFFFFF AND SUB PUSH2 0x17F3 JUMPI PUSH1 0x40 MLOAD PUSH32 0x8C379A000000000000000000000000000000000000000000000000000000000 DUP2 MSTORE PUSH1 0x4 ADD PUSH2 0x17EA SWAP1 PUSH2 0x3E02 JUMP JUMPDEST PUSH1 0x40 MLOAD DUP1 SWAP2 SUB SWAP1 REVERT JUMPDEST PUSH0 DUP7 GT PUSH2 0x1835 JUMPI PUSH1 0x40 MLOAD PUSH32 0x8C379A000000000000000000000000000000000000000000000000000000000 DUP2 MSTORE PUSH1 0x4 ADD PUSH2 0x182C SWAP1 PUSH2 0x3E90 JUMP JUMPDEST PUSH1 0x40 MLOAD DUP1 SWAP2 SUB SWAP1 REVERT JUMPDEST PUSH0 DUP7 SWAP1 POP ADDRESS PUSH20 0xFFFFFFFFFFFFFFFFFFFFFFFFFFFFFFFFFFFFFFFF AND DUP7 PUSH20 0xFFFFFFFFFFFFFFFFFFFFFFFFFFFFFFFFFFFFFFFF AND EQ PUSH2 0x187A JUMPI PUSH2 0x1877 DUP10 DUP9 DUP9 PUSH2 0x1E8A JUMP JUMPDEST SWAP1 POP JUMPDEST DUP8 PUSH20 0xFFFFFFFFFFFFFFFFFFFFFFFFFFFFFFFFFFFFFFFF AND DUP10 PUSH20 0xFFFFFFFFFFFFFFFFFFFFFFFFFFFFFFFFFFFFFFFF AND SUB PUSH2 0x18C1 JUMPI PUSH2 0x18B8 DUP10 DUP7 DUP4 PUSH2 0x1CE1 JUMP JUMPDEST DUP1 SWAP2 POP POP PUSH2 0x1AB4 JUMP JUMPDEST PUSH2 0x18EC DUP10 PUSH32 0x0 DUP4 PUSH2 0x210F JUMP JUMPDEST PUSH0 PUSH2 0x18F7 DUP11 DUP11 PUSH2 0x22C0 JUMP JUMPDEST SWAP1 POP PUSH0 PUSH2 0x190D PUSH2 0x1907 DUP5 DUP5 PUSH2 0x2565 JUMP JUMPDEST DUP8 PUSH2 0x266E JUMP JUMPDEST SWAP1 POP PUSH0 DUP11 PUSH20 0xFFFFFFFFFFFFFFFFFFFFFFFFFFFFFFFFFFFFFFFF AND PUSH4 0x70A08231 DUP10 PUSH1 0x40 MLOAD DUP3 PUSH4 0xFFFFFFFF AND PUSH1 0xE0 SHL DUP2 MSTORE PUSH1 0x4 ADD PUSH2 0x1949 SWAP2 SWAP1 PUSH2 0x2D9B JUMP JUMPDEST PUSH1 0x20 PUSH1 0x40 MLOAD DUP1 DUP4 SUB DUP2 DUP7 GAS STATICCALL ISZERO DUP1 ISZERO PUSH2 0x1964 JUMPI RETURNDATASIZE PUSH0 PUSH0 RETURNDATACOPY RETURNDATASIZE PUSH0 REVERT JUMPDEST POP POP POP POP PUSH1 0x40 MLOAD RETURNDATASIZE PUSH1 0x1F NOT PUSH1 0x1F DUP3 ADD AND DUP3 ADD DUP1 PUSH1 0x40 MSTORE POP DUP2 ADD SWAP1 PUSH2 0x1988 SWAP2 SWAP1 PUSH2 0x3A1D JUMP JUMPDEST SWAP1 POP PUSH32 0x0 PUSH20 0xFFFFFFFFFFFFFFFFFFFFFFFFFFFFFFFFFFFFFFFF AND PUSH4 0x5C11D795 DUP6 DUP5 DUP7 DUP13 PUSH2 0x19D3 DUP13 PUSH2 0x26E2 JUMP JUMPDEST PUSH1 0x40 MLOAD DUP7 PUSH4 0xFFFFFFFF AND PUSH1 0xE0 SHL DUP2 MSTORE PUSH1 0x4 ADD PUSH2 0x19F3 SWAP6 SWAP5 SWAP4 SWAP3 SWAP2 SWAP1 PUSH2 0x3F56 JUMP JUMPDEST PUSH0 PUSH1 0x40 MLOAD DUP1 DUP4 SUB DUP2 PUSH0 DUP8 DUP1 EXTCODESIZE ISZERO DUP1 ISZERO PUSH2 0x1A0A JUMPI PUSH0 PUSH0 REVERT JUMPDEST POP GAS CALL ISZERO DUP1 ISZERO PUSH2 0x1A1C JUMPI RETURNDATASIZE PUSH0 PUSH0 RETURNDATACOPY RETURNDATASIZE PUSH0 REVERT JUMPDEST POP POP POP POP PUSH0 DUP12 PUSH20 0xFFFFFFFFFFFFFFFFFFFFFFFFFFFFFFFFFFFFFFFF AND PUSH4 0x70A08231 DUP11 PUSH1 0x40 MLOAD DUP3 PUSH4 0xFFFFFFFF AND PUSH1 0xE0 SHL DUP2 MSTORE PUSH1 0x4 ADD PUSH2 0x1A5A SWAP2 SWAP1 PUSH2 0x2D9B JUMP JUMPDEST PUSH1 0x20 PUSH1 0x40 MLOAD DUP1 DUP4 SUB DUP2 DUP7 GAS STATICCALL ISZERO DUP1 ISZERO PUSH2 0x1A75 JUMPI RETURNDATASIZE PUSH0 PUSH0 RETURNDATACOPY RETURNDATASIZE PUSH0 REVERT JUMPDEST POP POP POP POP PUSH1 0x40 MLOAD RETURNDATASIZE PUSH1 0x1F NOT PUSH1 0x1F DUP3 ADD AND DUP3 ADD DUP1 PUSH1 0x40 MSTORE POP DUP2 ADD SWAP1 PUSH2 0x1A99 SWAP2 SWAP1 PUSH2 0x3A1D JUMP JUMPDEST SWAP1 POP PUSH0 DUP3 DUP3 PUSH2 0x1AA8 SWAP2 SWAP1 PUSH2 0x39BD JUMP JUMPDEST SWAP1 POP DUP1 SWAP7 POP POP POP POP POP POP POP JUMPDEST SWAP8 SWAP7 POP POP POP POP POP POP POP JUMP JUMPDEST PUSH0 PUSH2 0x2710 DUP3 PUSH2 0xFFFF AND DUP5 PUSH2 0x1AD3 SWAP2 SWAP1 PUSH2 0x3FAE JUMP JUMPDEST PUSH2 0x1ADD SWAP2 SWAP1 PUSH2 0x401C JUMP JUMPDEST SWAP1 POP SWAP3 SWAP2 POP POP JUMP JUMPDEST PUSH0 PUSH2 0x1AEE PUSH2 0x281 JUMP JUMPDEST SWAP1 POP PUSH0 DUP2 SWAP1 POP PUSH0 DUP4 GT PUSH2 0x1B36 JUMPI PUSH1 0x40 MLOAD PUSH32 0x8C379A000000000000000000000000000000000000000000000000000000000 DUP2 MSTORE PUSH1 0x4 ADD PUSH2 0x1B2D SWAP1 PUSH2 0x4096 JUMP JUMPDEST PUSH1 0x40 MLOAD DUP1 SWAP2 SUB SWAP1 REVERT JUMPDEST DUP3 DUP2 PUSH20 0xFFFFFFFFFFFFFFFFFFFFFFFFFFFFFFFFFFFFFFFF AND PUSH4 0x70A08231 DUP8 PUSH1 0x40 MLOAD DUP3 PUSH4 0xFFFFFFFF AND PUSH1 0xE0 SHL DUP2 MSTORE PUSH1 0x4 ADD PUSH2 0x1B70 SWAP2 SWAP1 PUSH2 0x2D9B JUMP JUMPDEST PUSH1 0x20 PUSH1 0x40 MLOAD DUP1 DUP4 SUB DUP2 DUP7 GAS STATICCALL ISZERO DUP1 ISZERO PUSH2 0x1B8B JUMPI RETURNDATASIZE PUSH0 PUSH0 RETURNDATACOPY RETURNDATASIZE PUSH0 REVERT JUMPDEST POP POP POP POP PUSH1 0x40 MLOAD RETURNDATASIZE PUSH1 0x1F NOT PUSH1 0x1F DUP3 ADD AND DUP3 ADD DUP1 PUSH1 0x40 MSTORE POP DUP2 ADD SWAP1 PUSH2 0x1BAF SWAP2 SWAP1 PUSH2 0x3A1D JUMP JUMPDEST LT ISZERO PUSH2 0x1BF0 JUMPI PUSH1 0x40 MLOAD PUSH32 0x8C379A000000000000000000000000000000000000000000000000000000000 DUP2 MSTORE PUSH1 0x4 ADD PUSH2 0x1BE7 SWAP1 PUSH2 0x40FE JUMP JUMPDEST PUSH1 0x40 MLOAD DUP1 SWAP2 SUB SWAP1 REVERT JUMPDEST PUSH0 DUP4 SWAP1 POP ADDRESS PUSH20 0xFFFFFFFFFFFFFFFFFFFFFFFFFFFFFFFFFFFFFFFF AND DUP7 PUSH20 0xFFFFFFFFFFFFFFFFFFFFFFFFFFFFFFFFFFFFFFFF AND EQ PUSH2 0x1C35 JUMPI PUSH2 0x1C32 DUP4 DUP6 DUP9 PUSH2 0x1E8A JUMP JUMPDEST SWAP1 POP JUMPDEST DUP2 PUSH20 0xFFFFFFFFFFFFFFFFFFFFFFFFFFFFFFFFFFFFFFFF AND PUSH4 0x2E1A7D4D DUP3 PUSH1 0x40 MLOAD DUP3 PUSH4 0xFFFFFFFF AND PUSH1 0xE0 SHL DUP2 MSTORE PUSH1 0x4 ADD PUSH2 0x1C6E SWAP2 SWAP1 PUSH2 0x39F0 JUMP JUMPDEST PUSH0 PUSH1 0x40 MLOAD DUP1 DUP4 SUB DUP2 PUSH0 DUP8 DUP1 EXTCODESIZE ISZERO DUP1 ISZERO PUSH2 0x1C85 JUMPI PUSH0 PUSH0 REVERT JUMPDEST POP GAS CALL ISZERO DUP1 ISZERO PUSH2 0x1C97 JUMPI RETURNDATASIZE PUSH0 PUSH0 RETURNDATACOPY RETURNDATASIZE PUSH0 REVERT JUMPDEST POP POP POP POP ADDRESS PUSH20 0xFFFFFFFFFFFFFFFFFFFFFFFFFFFFFFFFFFFFFFFF AND DUP6 PUSH20 0xFFFFFFFFFFFFFFFFFFFFFFFFFFFFFFFFFFFFFFFF AND EQ PUSH2 0x1CD9 JUMPI PUSH2 0x1CD8 DUP6 DUP3 PUSH2 0x1D58 JUMP JUMPDEST JUMPDEST POP POP POP POP POP POP JUMP JUMPDEST PUSH0 DUP4 SWAP1 POP PUSH0 DUP3 GT PUSH2 0x1D27 JUMPI PUSH1 0x40 MLOAD PUSH32 0x8C379A000000000000000000000000000000000000000000000000000000000 DUP2 MSTORE PUSH1 0x4 ADD PUSH2 0x1D1E SWAP1 PUSH2 0x4166 JUMP JUMPDEST PUSH1 0x40 MLOAD DUP1 SWAP2 SUB SWAP1 REVERT JUMPDEST PUSH2 0x1D52 DUP4 DUP4 DUP4 PUSH20 0xFFFFFFFFFFFFFFFFFFFFFFFFFFFFFFFFFFFFFFFF AND PUSH2 0x26F6 SWAP1 SWAP3 SWAP2 SWAP1 PUSH4 0xFFFFFFFF AND JUMP JUMPDEST POP POP POP POP JUMP JUMPDEST PUSH0 DUP2 GT PUSH2 0x1D9A JUMPI PUSH1 0x40 MLOAD PUSH32 0x8C379A000000000000000000000000000000000000000000000000000000000 DUP2 MSTORE PUSH1 0x4 ADD PUSH2 0x1D91 SWAP1 PUSH2 0x41CE JUMP JUMPDEST PUSH1 0x40 MLOAD DUP1 SWAP2 SUB SWAP1 REVERT JUMPDEST DUP1 SELFBALANCE LT ISZERO PUSH2 0x1DDD JUMPI PUSH1 0x40 MLOAD PUSH32 0x8C379A000000000000000000000000000000000000000000000000000000000 DUP2 MSTORE PUSH1 0x4 ADD PUSH2 0x1DD4 SWAP1 PUSH2 0x4236 JUMP JUMPDEST PUSH1 0x40 MLOAD DUP1 SWAP2 SUB SWAP1 REVERT JUMPDEST PUSH0 DUP3 PUSH20 0xFFFFFFFFFFFFFFFFFFFFFFFFFFFFFFFFFFFFFFFF AND DUP3 PUSH1 0x40 MLOAD PUSH2 0x1E02 SWAP1 PUSH2 0x4281 JUMP JUMPDEST PUSH0 PUSH1 0x40 MLOAD DUP1 DUP4 SUB DUP2 DUP6 DUP8 GAS CALL SWAP3 POP POP POP RETURNDATASIZE DUP1 PUSH0 DUP2 EQ PUSH2 0x1E3C JUMPI PUSH1 0x40 MLOAD SWAP2 POP PUSH1 0x1F NOT PUSH1 0x3F RETURNDATASIZE ADD AND DUP3 ADD PUSH1 0x40 MSTORE RETURNDATASIZE DUP3 MSTORE RETURNDATASIZE PUSH0 PUSH1 0x20 DUP5 ADD RETURNDATACOPY PUSH2 0x1E41 JUMP JUMPDEST PUSH1 0x60 SWAP2 POP JUMPDEST POP POP SWAP1 POP DUP1 PUSH2 0x1E85 JUMPI PUSH1 0x40 MLOAD PUSH32 0x8C379A000000000000000000000000000000000000000000000000000000000 DUP2 MSTORE PUSH1 0x4 ADD PUSH2 0x1E7C SWAP1 PUSH2 0x42DF JUMP JUMPDEST PUSH1 0x40 MLOAD DUP1 SWAP2 SUB SWAP1 REVERT JUMPDEST POP POP POP JUMP JUMPDEST PUSH0 PUSH0 DUP5 SWAP1 POP PUSH0 DUP5 GT PUSH2 0x1ED1 JUMPI PUSH1 0x40 MLOAD PUSH32 0x8C379A000000000000000000000000000000000000000000000000000000000 DUP2 MSTORE PUSH1 0x4 ADD PUSH2 0x1EC8 SWAP1 PUSH2 0x4347 JUMP JUMPDEST PUSH1 0x40 MLOAD DUP1 SWAP2 SUB SWAP1 REVERT JUMPDEST DUP4 DUP2 PUSH20 0xFFFFFFFFFFFFFFFFFFFFFFFFFFFFFFFFFFFFFFFF AND PUSH4 0xDD62ED3E DUP6 ADDRESS PUSH1 0x40 MLOAD DUP4 PUSH4 0xFFFFFFFF AND PUSH1 0xE0 SHL DUP2 MSTORE PUSH1 0x4 ADD PUSH2 0x1F0D SWAP3 SWAP2 SWAP1 PUSH2 0x4365 JUMP JUMPDEST PUSH1 0x20 PUSH1 0x40 MLOAD DUP1 DUP4 SUB DUP2 DUP7 GAS STATICCALL ISZERO DUP1 ISZERO PUSH2 0x1F28 JUMPI RETURNDATASIZE PUSH0 PUSH0 RETURNDATACOPY RETURNDATASIZE PUSH0 REVERT JUMPDEST POP POP POP POP PUSH1 0x40 MLOAD RETURNDATASIZE PUSH1 0x1F NOT PUSH1 0x1F DUP3 ADD AND DUP3 ADD DUP1 PUSH1 0x40 MSTORE POP DUP2 ADD SWAP1 PUSH2 0x1F4C SWAP2 SWAP1 PUSH2 0x3A1D JUMP JUMPDEST LT ISZERO PUSH2 0x1F8D JUMPI PUSH1 0x40 MLOAD PUSH32 0x8C379A000000000000000000000000000000000000000000000000000000000 DUP2 MSTORE PUSH1 0x4 ADD PUSH2 0x1F84 SWAP1 PUSH2 0x43FC JUMP JUMPDEST PUSH1 0x40 MLOAD DUP1 SWAP2 SUB SWAP1 REVERT JUMPDEST PUSH0 DUP2 PUSH20 0xFFFFFFFFFFFFFFFFFFFFFFFFFFFFFFFFFFFFFFFF AND PUSH4 0x70A08231 ADDRESS PUSH1 0x40 MLOAD DUP3 PUSH4 0xFFFFFFFF AND PUSH1 0xE0 SHL DUP2 MSTORE PUSH1 0x4 ADD PUSH2 0x1FC7 SWAP2 SWAP1 PUSH2 0x2D9B JUMP JUMPDEST PUSH1 0x20 PUSH1 0x40 MLOAD DUP1 DUP4 SUB DUP2 DUP7 GAS STATICCALL ISZERO DUP1 ISZERO PUSH2 0x1FE2 JUMPI RETURNDATASIZE PUSH0 PUSH0 RETURNDATACOPY RETURNDATASIZE PUSH0 REVERT JUMPDEST POP POP POP POP PUSH1 0x40 MLOAD RETURNDATASIZE PUSH1 0x1F NOT PUSH1 0x1F DUP3 ADD AND DUP3 ADD DUP1 PUSH1 0x40 MSTORE POP DUP2 ADD SWAP1 PUSH2 0x2006 SWAP2 SWAP1 PUSH2 0x3A1D JUMP JUMPDEST SWAP1 POP PUSH2 0x2035 DUP5 ADDRESS DUP8 DUP6 PUSH20 0xFFFFFFFFFFFFFFFFFFFFFFFFFFFFFFFFFFFFFFFF AND PUSH2 0x2775 SWAP1 SWAP4 SWAP3 SWAP2 SWAP1 PUSH4 0xFFFFFFFF AND JUMP JUMPDEST PUSH0 DUP3 PUSH20 0xFFFFFFFFFFFFFFFFFFFFFFFFFFFFFFFFFFFFFFFF AND PUSH4 0x70A08231 ADDRESS PUSH1 0x40 MLOAD DUP3 PUSH4 0xFFFFFFFF AND PUSH1 0xE0 SHL DUP2 MSTORE PUSH1 0x4 ADD PUSH2 0x206F SWAP2 SWAP1 PUSH2 0x2D9B JUMP JUMPDEST PUSH1 0x20 PUSH1 0x40 MLOAD DUP1 DUP4 SUB DUP2 DUP7 GAS STATICCALL ISZERO DUP1 ISZERO PUSH2 0x208A JUMPI RETURNDATASIZE PUSH0 PUSH0 RETURNDATACOPY RETURNDATASIZE PUSH0 REVERT JUMPDEST POP POP POP POP PUSH1 0x40 MLOAD RETURNDATASIZE PUSH1 0x1F NOT PUSH1 0x1F DUP3 ADD AND DUP3 ADD DUP1 PUSH1 0x40 MSTORE POP DUP2 ADD SWAP1 PUSH2 0x20AE SWAP2 SWAP1 PUSH2 0x3A1D JUMP JUMPDEST SWAP1 POP PUSH0 DUP3 DUP3 PUSH2 0x20BD SWAP2 SWAP1 PUSH2 0x39BD JUMP JUMPDEST SWAP1 POP PUSH0 DUP2 GT PUSH2 0x2101 JUMPI PUSH1 0x40 MLOAD PUSH32 0x8C379A000000000000000000000000000000000000000000000000000000000 DUP2 MSTORE PUSH1 0x4 ADD PUSH2 0x20F8 SWAP1 PUSH2 0x4464 JUMP JUMPDEST PUSH1 0x40 MLOAD DUP1 SWAP2 SUB SWAP1 REVERT JUMPDEST DUP1 SWAP5 POP POP POP POP POP SWAP4 SWAP3 POP POP POP JUMP JUMPDEST PUSH0 DUP4 SWAP1 POP PUSH0 DUP2 PUSH20 0xFFFFFFFFFFFFFFFFFFFFFFFFFFFFFFFFFFFFFFFF AND PUSH4 0xDD62ED3E ADDRESS DUP7 PUSH1 0x40 MLOAD DUP4 PUSH4 0xFFFFFFFF AND PUSH1 0xE0 SHL DUP2 MSTORE PUSH1 0x4 ADD PUSH2 0x214F SWAP3 SWAP2 SWAP1 PUSH2 0x4365 JUMP JUMPDEST PUSH1 0x20 PUSH1 0x40 MLOAD DUP1 DUP4 SUB DUP2 DUP7 GAS STATICCALL ISZERO DUP1 ISZERO PUSH2 0x216A JUMPI RETURNDATASIZE PUSH0 PUSH0 RETURNDATACOPY RETURNDATASIZE PUSH0 REVERT JUMPDEST POP POP POP POP PUSH1 0x40 MLOAD RETURNDATASIZE PUSH1 0x1F NOT PUSH1 0x1F DUP3 ADD AND DUP3 ADD DUP1 PUSH1 0x40 MSTORE POP DUP2 ADD SWAP1 PUSH2 0x218E SWAP2 SWAP1 PUSH2 0x3A1D JUMP JUMPDEST SWAP1 POP DUP3 DUP2 LT ISZERO PUSH2 0x22B9 JUMPI PUSH0 DUP2 EQ PUSH2 0x221C JUMPI DUP2 PUSH20 0xFFFFFFFFFFFFFFFFFFFFFFFFFFFFFFFFFFFFFFFF AND PUSH4 0x95EA7B3 DUP6 PUSH0 PUSH1 0x40 MLOAD DUP4 PUSH4 0xFFFFFFFF AND PUSH1 0xE0 SHL DUP2 MSTORE PUSH1 0x4 ADD PUSH2 0x21DA SWAP3 SWAP2 SWAP1 PUSH2 0x44BB JUMP JUMPDEST PUSH1 0x20 PUSH1 0x40 MLOAD DUP1 DUP4 SUB DUP2 PUSH0 DUP8 GAS CALL ISZERO DUP1 ISZERO PUSH2 0x21F6 JUMPI RETURNDATASIZE PUSH0 PUSH0 RETURNDATACOPY RETURNDATASIZE PUSH0 REVERT JUMPDEST POP POP POP POP PUSH1 0x40 MLOAD RETURNDATASIZE PUSH1 0x1F NOT PUSH1 0x1F DUP3 ADD AND DUP3 ADD DUP1 PUSH1 0x40 MSTORE POP DUP2 ADD SWAP1 PUSH2 0x221A SWAP2 SWAP1 PUSH2 0x44F6 JUMP JUMPDEST POP JUMPDEST DUP2 PUSH20 0xFFFFFFFFFFFFFFFFFFFFFFFFFFFFFFFFFFFFFFFF AND PUSH4 0x95EA7B3 DUP6 PUSH32 0xFFFFFFFFFFFFFFFFFFFFFFFFFFFFFFFFFFFFFFFFFFFFFFFFFFFFFFFFFFFFFFFF PUSH1 0x40 MLOAD DUP4 PUSH4 0xFFFFFFFF AND PUSH1 0xE0 SHL DUP2 MSTORE PUSH1 0x4 ADD PUSH2 0x2277 SWAP3 SWAP2 SWAP1 PUSH2 0x4521 JUMP JUMPDEST PUSH1 0x20 PUSH1 0x40 MLOAD DUP1 DUP4 SUB DUP2 PUSH0 DUP8 GAS CALL ISZERO DUP1 ISZERO PUSH2 0x2293 JUMPI RETURNDATASIZE PUSH0 PUSH0 RETURNDATACOPY RETURNDATASIZE PUSH0 REVERT JUMPDEST POP POP POP POP PUSH1 0x40 MLOAD RETURNDATASIZE PUSH1 0x1F NOT PUSH1 0x1F DUP3 ADD AND DUP3 ADD DUP1 PUSH1 0x40 MSTORE POP DUP2 ADD SWAP1 PUSH2 0x22B7 SWAP2 SWAP1 PUSH2 0x44F6 JUMP JUMPDEST POP JUMPDEST POP POP POP POP POP JUMP JUMPDEST PUSH1 0x60 PUSH0 PUSH2 0x22CB PUSH2 0x281 JUMP JUMPDEST SWAP1 POP DUP1 PUSH20 0xFFFFFFFFFFFFFFFFFFFFFFFFFFFFFFFFFFFFFFFF AND DUP5 PUSH20 0xFFFFFFFFFFFFFFFFFFFFFFFFFFFFFFFFFFFFFFFF AND EQ DUP1 PUSH2 0x2332 JUMPI POP DUP1 PUSH20 0xFFFFFFFFFFFFFFFFFFFFFFFFFFFFFFFFFFFFFFFF AND DUP4 PUSH20 0xFFFFFFFFFFFFFFFFFFFFFFFFFFFFFFFFFFFFFFFF AND EQ JUMPDEST ISZERO PUSH2 0x2425 JUMPI PUSH1 0x2 PUSH8 0xFFFFFFFFFFFFFFFF DUP2 GT ISZERO PUSH2 0x2352 JUMPI PUSH2 0x2351 PUSH2 0x2C21 JUMP JUMPDEST JUMPDEST PUSH1 0x40 MLOAD SWAP1 DUP1 DUP3 MSTORE DUP1 PUSH1 0x20 MUL PUSH1 0x20 ADD DUP3 ADD PUSH1 0x40 MSTORE DUP1 ISZERO PUSH2 0x2380 JUMPI DUP2 PUSH1 0x20 ADD PUSH1 0x20 DUP3 MUL DUP1 CALLDATASIZE DUP4 CALLDATACOPY DUP1 DUP3 ADD SWAP2 POP POP SWAP1 POP JUMPDEST POP SWAP2 POP DUP4 DUP3 PUSH0 DUP2 MLOAD DUP2 LT PUSH2 0x2397 JUMPI PUSH2 0x2396 PUSH2 0x3649 JUMP JUMPDEST JUMPDEST PUSH1 0x20 MUL PUSH1 0x20 ADD ADD SWAP1 PUSH20 0xFFFFFFFFFFFFFFFFFFFFFFFFFFFFFFFFFFFFFFFF AND SWAP1 DUP2 PUSH20 0xFFFFFFFFFFFFFFFFFFFFFFFFFFFFFFFFFFFFFFFF AND DUP2 MSTORE POP POP DUP3 DUP3 PUSH1 0x1 DUP2 MLOAD DUP2 LT PUSH2 0x23E6 JUMPI PUSH2 0x23E5 PUSH2 0x3649 JUMP JUMPDEST JUMPDEST PUSH1 0x20 MUL PUSH1 0x20 ADD ADD SWAP1 PUSH20 0xFFFFFFFFFFFFFFFFFFFFFFFFFFFFFFFFFFFFFFFF AND SWAP1 DUP2 PUSH20 0xFFFFFFFFFFFFFFFFFFFFFFFFFFFFFFFFFFFFFFFF AND DUP2 MSTORE POP POP PUSH2 0x255E JUMP JUMPDEST PUSH1 0x3 PUSH8 0xFFFFFFFFFFFFFFFF DUP2 GT ISZERO PUSH2 0x2440 JUMPI PUSH2 0x243F PUSH2 0x2C21 JUMP JUMPDEST JUMPDEST PUSH1 0x40 MLOAD SWAP1 DUP1 DUP3 MSTORE DUP1 PUSH1 0x20 MUL PUSH1 0x20 ADD DUP3 ADD PUSH1 0x40 MSTORE DUP1 ISZERO PUSH2 0x246E JUMPI DUP2 PUSH1 0x20 ADD PUSH1 0x20 DUP3 MUL DUP1 CALLDATASIZE DUP4 CALLDATACOPY DUP1 DUP3 ADD SWAP2 POP POP SWAP1 POP JUMPDEST POP SWAP2 POP DUP4 DUP3 PUSH0 DUP2 MLOAD DUP2 LT PUSH2 0x2485 JUMPI PUSH2 0x2484 PUSH2 0x3649 JUMP JUMPDEST JUMPDEST PUSH1 0x20 MUL PUSH1 0x20 ADD ADD SWAP1 PUSH20 0xFFFFFFFFFFFFFFFFFFFFFFFFFFFFFFFFFFFFFFFF AND SWAP1 DUP2 PUSH20 0xFFFFFFFFFFFFFFFFFFFFFFFFFFFFFFFFFFFFFFFF AND DUP2 MSTORE POP POP DUP1 DUP3 PUSH1 0x1 DUP2 MLOAD DUP2 LT PUSH2 0x24D4 JUMPI PUSH2 0x24D3 PUSH2 0x3649 JUMP JUMPDEST JUMPDEST PUSH1 0x20 MUL PUSH1 0x20 ADD ADD SWAP1 PUSH20 0xFFFFFFFFFFFFFFFFFFFFFFFFFFFFFFFFFFFFFFFF AND SWAP1 DUP2 PUSH20 0xFFFFFFFFFFFFFFFFFFFFFFFFFFFFFFFFFFFFFFFF AND DUP2 MSTORE POP POP DUP3 DUP3 PUSH1 0x2 DUP2 MLOAD DUP2 LT PUSH2 0x2523 JUMPI PUSH2 0x2522 PUSH2 0x3649 JUMP JUMPDEST JUMPDEST PUSH1 0x20 MUL PUSH1 0x20 ADD ADD SWAP1 PUSH20 0xFFFFFFFFFFFFFFFFFFFFFFFFFFFFFFFFFFFFFFFF AND SWAP1 DUP2 PUSH20 0xFFFFFFFFFFFFFFFFFFFFFFFFFFFFFFFFFFFFFFFF AND DUP2 MSTORE POP POP JUMPDEST POP SWAP3 SWAP2 POP POP JUMP JUMPDEST PUSH0 PUSH32 0x0 PUSH20 0xFFFFFFFFFFFFFFFFFFFFFFFFFFFFFFFFFFFFFFFF AND PUSH4 0xD06CA61F DUP5 DUP5 PUSH1 0x40 MLOAD DUP4 PUSH4 0xFFFFFFFF AND PUSH1 0xE0 SHL DUP2 MSTORE PUSH1 0x4 ADD PUSH2 0x25C1 SWAP3 SWAP2 SWAP1 PUSH2 0x4548 JUMP JUMPDEST PUSH0 PUSH1 0x40 MLOAD DUP1 DUP4 SUB DUP2 DUP7 GAS STATICCALL SWAP3 POP POP POP DUP1 ISZERO PUSH2 0x25FE JUMPI POP PUSH1 0x40 MLOAD RETURNDATASIZE PUSH0 DUP3 RETURNDATACOPY RETURNDATASIZE PUSH1 0x1F NOT PUSH1 0x1F DUP3 ADD AND DUP3 ADD DUP1 PUSH1 0x40 MSTORE POP DUP2 ADD SWAP1 PUSH2 0x25FB SWAP2 SWAP1 PUSH2 0x4636 JUMP JUMPDEST PUSH1 0x1 JUMPDEST PUSH2 0x263D JUMPI PUSH1 0x40 MLOAD PUSH32 0x8C379A000000000000000000000000000000000000000000000000000000000 DUP2 MSTORE PUSH1 0x4 ADD PUSH2 0x2634 SWAP1 PUSH2 0x46ED JUMP JUMPDEST PUSH1 0x40 MLOAD DUP1 SWAP2 SUB SWAP1 REVERT JUMPDEST DUP1 PUSH1 0x1 DUP3 MLOAD PUSH2 0x264C SWAP2 SWAP1 PUSH2 0x39BD JUMP JUMPDEST DUP2 MLOAD DUP2 LT PUSH2 0x265D JUMPI PUSH2 0x265C PUSH2 0x3649 JUMP JUMPDEST JUMPDEST PUSH1 0x20 MUL PUSH1 0x20 ADD ADD MLOAD SWAP2 POP POP SWAP3 SWAP2 POP POP JUMP JUMPDEST PUSH0 PUSH2 0x2710 DUP3 GT ISZERO PUSH2 0x26B4 JUMPI PUSH1 0x40 MLOAD PUSH32 0x8C379A000000000000000000000000000000000000000000000000000000000 DUP2 MSTORE PUSH1 0x4 ADD PUSH2 0x26AB SWAP1 PUSH2 0x4755 JUMP JUMPDEST PUSH1 0x40 MLOAD DUP1 SWAP2 SUB SWAP1 REVERT JUMPDEST PUSH2 0x2710 DUP3 PUSH2 0x2710 PUSH2 0x26C5 SWAP2 SWAP1 PUSH2 0x39BD JUMP JUMPDEST DUP5 PUSH2 0x26D0 SWAP2 SWAP1 PUSH2 0x3FAE JUMP JUMPDEST PUSH2 0x26DA SWAP2 SWAP1 PUSH2 0x401C JUMP JUMPDEST SWAP1 POP SWAP3 SWAP2 POP POP JUMP JUMPDEST PUSH0 DUP2 TIMESTAMP PUSH2 0x26EF SWAP2 SWAP1 PUSH2 0x36A3 JUMP JUMPDEST SWAP1 POP SWAP2 SWAP1 POP JUMP JUMPDEST PUSH2 0x2770 DUP4 DUP5 PUSH20 0xFFFFFFFFFFFFFFFFFFFFFFFFFFFFFFFFFFFFFFFF AND PUSH4 0xA9059CBB DUP6 DUP6 PUSH1 0x40 MLOAD PUSH1 0x24 ADD PUSH2 0x2729 SWAP3 SWAP2 SWAP1 PUSH2 0x4521 JUMP JUMPDEST PUSH1 0x40 MLOAD PUSH1 0x20 DUP2 DUP4 SUB SUB DUP2 MSTORE SWAP1 PUSH1 0x40 MSTORE SWAP2 POP PUSH1 0xE0 SHL PUSH1 0x20 DUP3 ADD DUP1 MLOAD PUSH28 0xFFFFFFFFFFFFFFFFFFFFFFFFFFFFFFFFFFFFFFFFFFFFFFFFFFFFFFFF DUP4 DUP2 DUP4 AND OR DUP4 MSTORE POP POP POP POP PUSH2 0x27F7 JUMP JUMPDEST POP POP POP JUMP JUMPDEST PUSH2 0x27F1 DUP5 DUP6 PUSH20 0xFFFFFFFFFFFFFFFFFFFFFFFFFFFFFFFFFFFFFFFF AND PUSH4 0x23B872DD DUP7 DUP7 DUP7 PUSH1 0x40 MLOAD PUSH1 0x24 ADD PUSH2 0x27AA SWAP4 SWAP3 SWAP2 SWAP1 PUSH2 0x4773 JUMP JUMPDEST PUSH1 0x40 MLOAD PUSH1 0x20 DUP2 DUP4 SUB SUB DUP2 MSTORE SWAP1 PUSH1 0x40 MSTORE SWAP2 POP PUSH1 0xE0 SHL PUSH1 0x20 DUP3 ADD DUP1 MLOAD PUSH28 0xFFFFFFFFFFFFFFFFFFFFFFFFFFFFFFFFFFFFFFFFFFFFFFFFFFFFFFFF DUP4 DUP2 DUP4 AND OR DUP4 MSTORE POP POP POP POP PUSH2 0x27F7 JUMP JUMPDEST POP POP POP POP JUMP JUMPDEST PUSH0 PUSH0 PUSH1 0x20 PUSH0 DUP5 MLOAD PUSH1 0x20 DUP7 ADD PUSH0 DUP9 GAS CALL DUP1 PUSH2 0x2816 JUMPI PUSH1 0x40 MLOAD RETURNDATASIZE PUSH0 DUP3 RETURNDATACOPY RETURNDATASIZE DUP2 REVERT JUMPDEST RETURNDATASIZE SWAP3 POP PUSH0 MLOAD SWAP2 POP POP PUSH0 DUP3 EQ PUSH2 0x282F JUMPI PUSH1 0x1 DUP2 EQ ISZERO PUSH2 0x284A JUMP JUMPDEST PUSH0 DUP5 PUSH20 0xFFFFFFFFFFFFFFFFFFFFFFFFFFFFFFFFFFFFFFFF AND EXTCODESIZE EQ JUMPDEST ISZERO PUSH2 0x288C JUMPI DUP4 PUSH1 0x40 MLOAD PUSH32 0x5274AFE700000000000000000000000000000000000000000000000000000000 DUP2 MSTORE PUSH1 0x4 ADD PUSH2 0x2883 SWAP2 SWAP1 PUSH2 0x2D9B JUMP JUMPDEST PUSH1 0x40 MLOAD DUP1 SWAP2 SUB SWAP1 REVERT JUMPDEST POP POP POP POP JUMP JUMPDEST PUSH0 DUP3 DUP3 MSTORE PUSH1 0x20 DUP3 ADD SWAP1 POP SWAP3 SWAP2 POP POP JUMP JUMPDEST PUSH32 0x44697265637420455448206E6F7420616C6C6F77656400000000000000000000 PUSH0 DUP3 ADD MSTORE POP JUMP JUMPDEST PUSH0 PUSH2 0x28D6 PUSH1 0x16 DUP4 PUSH2 0x2892 JUMP JUMPDEST SWAP2 POP PUSH2 0x28E1 DUP3 PUSH2 0x28A2 JUMP JUMPDEST PUSH1 0x20 DUP3 ADD SWAP1 POP SWAP2 SWAP1 POP JUMP JUMPDEST PUSH0 PUSH1 0x20 DUP3 ADD SWAP1 POP DUP2 DUP2 SUB PUSH0 DUP4 ADD MSTORE PUSH2 0x2903 DUP2 PUSH2 0x28CA JUMP JUMPDEST SWAP1 POP SWAP2 SWAP1 POP JUMP JUMPDEST PUSH0 PUSH1 0x40 MLOAD SWAP1 POP SWAP1 JUMP JUMPDEST PUSH0 PUSH0 REVERT JUMPDEST PUSH0 PUSH0 REVERT JUMPDEST PUSH0 PUSH20 0xFFFFFFFFFFFFFFFFFFFFFFFFFFFFFFFFFFFFFFFF DUP3 AND SWAP1 POP SWAP2 SWAP1 POP JUMP JUMPDEST PUSH0 PUSH2 0x2944 DUP3 PUSH2 0x291B JUMP JUMPDEST SWAP1 POP SWAP2 SWAP1 POP JUMP JUMPDEST PUSH2 0x2954 DUP2 PUSH2 0x293A JUMP JUMPDEST DUP2 EQ PUSH2 0x295E JUMPI PUSH0 PUSH0 REVERT JUMPDEST POP JUMP JUMPDEST PUSH0 DUP2 CALLDATALOAD SWAP1 POP PUSH2 0x296F DUP2 PUSH2 0x294B JUMP JUMPDEST SWAP3 SWAP2 POP POP JUMP JUMPDEST PUSH0 PUSH0 PUSH1 0x40 DUP4 DUP6 SUB SLT ISZERO PUSH2 0x298B JUMPI PUSH2 0x298A PUSH2 0x2913 JUMP JUMPDEST JUMPDEST PUSH0 PUSH2 0x2998 DUP6 DUP3 DUP7 ADD PUSH2 0x2961 JUMP JUMPDEST SWAP3 POP POP PUSH1 0x20 PUSH2 0x29A9 DUP6 DUP3 DUP7 ADD PUSH2 0x2961 JUMP JUMPDEST SWAP2 POP POP SWAP3 POP SWAP3 SWAP1 POP JUMP JUMPDEST PUSH0 PUSH0 REVERT JUMPDEST PUSH0 PUSH0 REVERT JUMPDEST PUSH0 PUSH0 REVERT JUMPDEST PUSH0 PUSH0 DUP4 PUSH1 0x1F DUP5 ADD SLT PUSH2 0x29D4 JUMPI PUSH2 0x29D3 PUSH2 0x29B3 JUMP JUMPDEST JUMPDEST DUP3 CALLDATALOAD SWAP1 POP PUSH8 0xFFFFFFFFFFFFFFFF DUP2 GT ISZERO PUSH2 0x29F1 JUMPI PUSH2 0x29F0 PUSH2 0x29B7 JUMP JUMPDEST JUMPDEST PUSH1 0x20 DUP4 ADD SWAP2 POP DUP4 PUSH1 0x40 DUP3 MUL DUP4 ADD GT ISZERO PUSH2 0x2A0D JUMPI PUSH2 0x2A0C PUSH2 0x29BB JUMP JUMPDEST JUMPDEST SWAP3 POP SWAP3 SWAP1 POP JUMP JUMPDEST PUSH0 PUSH0 DUP4 PUSH1 0x1F DUP5 ADD SLT PUSH2 0x2A29 JUMPI PUSH2 0x2A28 PUSH2 0x29B3 JUMP JUMPDEST JUMPDEST DUP3 CALLDATALOAD SWAP1 POP PUSH8 0xFFFFFFFFFFFFFFFF DUP2 GT ISZERO PUSH2 0x2A46 JUMPI PUSH2 0x2A45 PUSH2 0x29B7 JUMP JUMPDEST JUMPDEST PUSH1 0x20 DUP4 ADD SWAP2 POP DUP4 PUSH1 0x40 DUP3 MUL DUP4 ADD GT ISZERO PUSH2 0x2A62 JUMPI PUSH2 0x2A61 PUSH2 0x29BB JUMP JUMPDEST JUMPDEST SWAP3 POP SWAP3 SWAP1 POP JUMP JUMPDEST PUSH0 DUP2 SWAP1 POP SWAP2 SWAP1 POP JUMP JUMPDEST PUSH2 0x2A7B DUP2 PUSH2 0x2A69 JUMP JUMPDEST DUP2 EQ PUSH2 0x2A85 JUMPI PUSH0 PUSH0 REVERT JUMPDEST POP JUMP JUMPDEST PUSH0 DUP2 CALLDATALOAD SWAP1 POP PUSH2 0x2A96 DUP2 PUSH2 0x2A72 JUMP JUMPDEST SWAP3 SWAP2 POP POP JUMP JUMPDEST PUSH0 PUSH0 DUP4 PUSH1 0x1F DUP5 ADD SLT PUSH2 0x2AB1 JUMPI PUSH2 0x2AB0 PUSH2 0x29B3 JUMP JUMPDEST JUMPDEST DUP3 CALLDATALOAD SWAP1 POP PUSH8 0xFFFFFFFFFFFFFFFF DUP2 GT ISZERO PUSH2 0x2ACE JUMPI PUSH2 0x2ACD PUSH2 0x29B7 JUMP JUMPDEST JUMPDEST PUSH1 0x20 DUP4 ADD SWAP2 POP DUP4 PUSH1 0x40 DUP3 MUL DUP4 ADD GT ISZERO PUSH2 0x2AEA JUMPI PUSH2 0x2AE9 PUSH2 0x29BB JUMP JUMPDEST JUMPDEST SWAP3 POP SWAP3 SWAP1 POP JUMP JUMPDEST PUSH0 PUSH0 PUSH0 PUSH0 PUSH0 PUSH0 PUSH0 PUSH0 PUSH0 PUSH1 0xC0 DUP11 DUP13 SUB SLT ISZERO PUSH2 0x2B0E JUMPI PUSH2 0x2B0D PUSH2 0x2913 JUMP JUMPDEST JUMPDEST PUSH0 DUP11 ADD CALLDATALOAD PUSH8 0xFFFFFFFFFFFFFFFF DUP2 GT ISZERO PUSH2 0x2B2B JUMPI PUSH2 0x2B2A PUSH2 0x2917 JUMP JUMPDEST JUMPDEST PUSH2 0x2B37 DUP13 DUP3 DUP14 ADD PUSH2 0x29BF JUMP JUMPDEST SWAP10 POP SWAP10 POP POP PUSH1 0x20 DUP11 ADD CALLDATALOAD PUSH8 0xFFFFFFFFFFFFFFFF DUP2 GT ISZERO PUSH2 0x2B5A JUMPI PUSH2 0x2B59 PUSH2 0x2917 JUMP JUMPDEST JUMPDEST PUSH2 0x2B66 DUP13 DUP3 DUP14 ADD PUSH2 0x2A14 JUMP JUMPDEST SWAP8 POP SWAP8 POP POP PUSH1 0x40 PUSH2 0x2B79 DUP13 DUP3 DUP14 ADD PUSH2 0x2961 JUMP JUMPDEST SWAP6 POP POP PUSH1 0x60 PUSH2 0x2B8A DUP13 DUP3 DUP14 ADD PUSH2 0x2A88 JUMP JUMPDEST SWAP5 POP POP PUSH1 0x80 PUSH2 0x2B9B DUP13 DUP3 DUP14 ADD PUSH2 0x2A88 JUMP JUMPDEST SWAP4 POP POP PUSH1 0xA0 DUP11 ADD CALLDATALOAD PUSH8 0xFFFFFFFFFFFFFFFF DUP2 GT ISZERO PUSH2 0x2BBC JUMPI PUSH2 0x2BBB PUSH2 0x2917 JUMP JUMPDEST JUMPDEST PUSH2 0x2BC8 DUP13 DUP3 DUP14 ADD PUSH2 0x2A9C JUMP JUMPDEST SWAP3 POP SWAP3 POP POP SWAP3 SWAP6 SWAP9 POP SWAP3 SWAP6 SWAP9 POP SWAP3 SWAP6 SWAP9 JUMP JUMPDEST PUSH0 DUP2 ISZERO ISZERO SWAP1 POP SWAP2 SWAP1 POP JUMP JUMPDEST PUSH2 0x2BEE DUP2 PUSH2 0x2BDA JUMP JUMPDEST DUP3 MSTORE POP POP JUMP JUMPDEST PUSH0 PUSH1 0x20 DUP3 ADD SWAP1 POP PUSH2 0x2C07 PUSH0 DUP4 ADD DUP5 PUSH2 0x2BE5 JUMP JUMPDEST SWAP3 SWAP2 POP POP JUMP JUMPDEST PUSH0 PUSH0 REVERT JUMPDEST PUSH0 PUSH1 0x1F NOT PUSH1 0x1F DUP4 ADD AND SWAP1 POP SWAP2 SWAP1 POP JUMP JUMPDEST PUSH32 0x4E487B7100000000000000000000000000000000000000000000000000000000 PUSH0 MSTORE PUSH1 0x41 PUSH1 0x4 MSTORE PUSH1 0x24 PUSH0 REVERT JUMPDEST PUSH2 0x2C57 DUP3 PUSH2 0x2C11 JUMP JUMPDEST DUP2 ADD DUP2 DUP2 LT PUSH8 0xFFFFFFFFFFFFFFFF DUP3 GT OR ISZERO PUSH2 0x2C76 JUMPI PUSH2 0x2C75 PUSH2 0x2C21 JUMP JUMPDEST JUMPDEST DUP1 PUSH1 0x40 MSTORE POP POP POP JUMP JUMPDEST PUSH0 PUSH2 0x2C88 PUSH2 0x290A JUMP JUMPDEST SWAP1 POP PUSH2 0x2C94 DUP3 DUP3 PUSH2 0x2C4E JUMP JUMPDEST SWAP2 SWAP1 POP JUMP JUMPDEST PUSH0 PUSH8 0xFFFFFFFFFFFFFFFF DUP3 GT ISZERO PUSH2 0x2CB3 JUMPI PUSH2 0x2CB2 PUSH2 0x2C21 JUMP JUMPDEST JUMPDEST PUSH2 0x2CBC DUP3 PUSH2 0x2C11 JUMP JUMPDEST SWAP1 POP PUSH1 0x20 DUP2 ADD SWAP1 POP SWAP2 SWAP1 POP JUMP JUMPDEST DUP3 DUP2 DUP4 CALLDATACOPY PUSH0 DUP4 DUP4 ADD MSTORE POP POP POP JUMP JUMPDEST PUSH0 PUSH2 0x2CE9 PUSH2 0x2CE4 DUP5 PUSH2 0x2C99 JUMP JUMPDEST PUSH2 0x2C7F JUMP JUMPDEST SWAP1 POP DUP3 DUP2 MSTORE PUSH1 0x20 DUP2 ADD DUP5 DUP5 DUP5 ADD GT ISZERO PUSH2 0x2D05 JUMPI PUSH2 0x2D04 PUSH2 0x2C0D JUMP JUMPDEST JUMPDEST PUSH2 0x2D10 DUP5 DUP3 DUP6 PUSH2 0x2CC9 JUMP JUMPDEST POP SWAP4 SWAP3 POP POP POP JUMP JUMPDEST PUSH0 DUP3 PUSH1 0x1F DUP4 ADD SLT PUSH2 0x2D2C JUMPI PUSH2 0x2D2B PUSH2 0x29B3 JUMP JUMPDEST JUMPDEST DUP2 CALLDATALOAD PUSH2 0x2D3C DUP5 DUP3 PUSH1 0x20 DUP7 ADD PUSH2 0x2CD7 JUMP JUMPDEST SWAP2 POP POP SWAP3 SWAP2 POP POP JUMP JUMPDEST PUSH0 PUSH1 0x20 DUP3 DUP5 SUB SLT ISZERO PUSH2 0x2D5A JUMPI PUSH2 0x2D59 PUSH2 0x2913 JUMP JUMPDEST JUMPDEST PUSH0 DUP3 ADD CALLDATALOAD PUSH8 0xFFFFFFFFFFFFFFFF DUP2 GT ISZERO PUSH2 0x2D77 JUMPI PUSH2 0x2D76 PUSH2 0x2917 JUMP JUMPDEST JUMPDEST PUSH2 0x2D83 DUP5 DUP3 DUP6 ADD PUSH2 0x2D18 JUMP JUMPDEST SWAP2 POP POP SWAP3 SWAP2 POP POP JUMP JUMPDEST PUSH2 0x2D95 DUP2 PUSH2 0x293A JUMP JUMPDEST DUP3 MSTORE POP POP JUMP JUMPDEST PUSH0 PUSH1 0x20 DUP3 ADD SWAP1 POP PUSH2 0x2DAE PUSH0 DUP4 ADD DUP5 PUSH2 0x2D8C JUMP JUMPDEST SWAP3 SWAP2 POP POP JUMP JUMPDEST PUSH0 DUP2 SWAP1 POP SWAP2 SWAP1 POP JUMP JUMPDEST PUSH0 PUSH2 0x2DD7 PUSH2 0x2DD2 PUSH2 0x2DCD DUP5 PUSH2 0x291B JUMP JUMPDEST PUSH2 0x2DB4 JUMP JUMPDEST PUSH2 0x291B JUMP JUMPDEST SWAP1 POP SWAP2 SWAP1 POP JUMP JUMPDEST PUSH0 PUSH2 0x2DE8 DUP3 PUSH2 0x2DBD JUMP JUMPDEST SWAP1 POP SWAP2 SWAP1 POP JUMP JUMPDEST PUSH0 PUSH2 0x2DF9 DUP3 PUSH2 0x2DDE JUMP JUMPDEST SWAP1 POP SWAP2 SWAP1 POP JUMP JUMPDEST PUSH2 0x2E09 DUP2 PUSH2 0x2DEF JUMP JUMPDEST DUP3 MSTORE POP POP JUMP JUMPDEST PUSH0 PUSH1 0x20 DUP3 ADD SWAP1 POP PUSH2 0x2E22 PUSH0 DUP4 ADD DUP5 PUSH2 0x2E00 JUMP JUMPDEST SWAP3 SWAP2 POP POP JUMP JUMPDEST PUSH2 0x2E31 DUP2 PUSH2 0x2BDA JUMP JUMPDEST DUP2 EQ PUSH2 0x2E3B JUMPI PUSH0 PUSH0 REVERT JUMPDEST POP JUMP JUMPDEST PUSH0 DUP2 CALLDATALOAD SWAP1 POP PUSH2 0x2E4C DUP2 PUSH2 0x2E28 JUMP JUMPDEST SWAP3 SWAP2 POP POP JUMP JUMPDEST PUSH0 PUSH1 0x20 DUP3 DUP5 SUB SLT ISZERO PUSH2 0x2E67 JUMPI PUSH2 0x2E66 PUSH2 0x2913 JUMP JUMPDEST JUMPDEST PUSH0 PUSH2 0x2E74 DUP5 DUP3 DUP6 ADD PUSH2 0x2E3E JUMP JUMPDEST SWAP2 POP POP SWAP3 SWAP2 POP POP JUMP JUMPDEST PUSH0 PUSH1 0x20 DUP3 DUP5 SUB SLT ISZERO PUSH2 0x2E92 JUMPI PUSH2 0x2E91 PUSH2 0x2913 JUMP JUMPDEST JUMPDEST PUSH0 PUSH2 0x2E9F DUP5 DUP3 DUP6 ADD PUSH2 0x2961 JUMP JUMPDEST SWAP2 POP POP SWAP3 SWAP2 POP POP JUMP JUMPDEST PUSH0 PUSH2 0x2EB2 DUP3 PUSH2 0x2DDE JUMP JUMPDEST SWAP1 POP SWAP2 SWAP1 POP JUMP JUMPDEST PUSH2 0x2EC2 DUP2 PUSH2 0x2EA8 JUMP JUMPDEST DUP3 MSTORE POP POP JUMP JUMPDEST PUSH0 PUSH1 0x20 DUP3 ADD SWAP1 POP PUSH2 0x2EDB PUSH0 DUP4 ADD DUP5 PUSH2 0x2EB9 JUMP JUMPDEST SWAP3 SWAP2 POP POP JUMP JUMPDEST PUSH0 DUP2 MLOAD SWAP1 POP PUSH2 0x2EEF DUP2 PUSH2 0x294B JUMP JUMPDEST SWAP3 SWAP2 POP POP JUMP JUMPDEST PUSH0 PUSH1 0x20 DUP3 DUP5 SUB SLT ISZERO PUSH2 0x2F0A JUMPI PUSH2 0x2F09 PUSH2 0x2913 JUMP JUMPDEST JUMPDEST PUSH0 PUSH2 0x2F17 DUP5 DUP3 DUP6 ADD PUSH2 0x2EE1 JUMP JUMPDEST SWAP2 POP POP SWAP3 SWAP2 POP POP JUMP JUMPDEST PUSH32 0x43616C6C6572206973206E6F7420746865206F776E6572000000000000000000 PUSH0 DUP3 ADD MSTORE POP JUMP JUMPDEST PUSH0 PUSH2 0x2F54 PUSH1 0x17 DUP4 PUSH2 0x2892 JUMP JUMPDEST SWAP2 POP PUSH2 0x2F5F DUP3 PUSH2 0x2F20 JUMP JUMPDEST PUSH1 0x20 DUP3 ADD SWAP1 POP SWAP2 SWAP1 POP JUMP JUMPDEST PUSH0 PUSH1 0x20 DUP3 ADD SWAP1 POP DUP2 DUP2 SUB PUSH0 DUP4 ADD MSTORE PUSH2 0x2F81 DUP2 PUSH2 0x2F48 JUMP JUMPDEST SWAP1 POP SWAP2 SWAP1 POP JUMP JUMPDEST PUSH32 0x436F6E7472616374206973206E6F742061637469766500000000000000000000 PUSH0 DUP3 ADD MSTORE POP JUMP JUMPDEST PUSH0 PUSH2 0x2FBC PUSH1 0x16 DUP4 PUSH2 0x2892 JUMP JUMPDEST SWAP2 POP PUSH2 0x2FC7 DUP3 PUSH2 0x2F88 JUMP JUMPDEST PUSH1 0x20 DUP3 ADD SWAP1 POP SWAP2 SWAP1 POP JUMP JUMPDEST PUSH0 PUSH1 0x20 DUP3 ADD SWAP1 POP DUP2 DUP2 SUB PUSH0 DUP4 ADD MSTORE PUSH2 0x2FE9 DUP2 PUSH2 0x2FB0 JUMP JUMPDEST SWAP1 POP SWAP2 SWAP1 POP JUMP JUMPDEST PUSH32 0x4D756C74695377617020526F757465723A204E6F20696E707574730000000000 PUSH0 DUP3 ADD MSTORE POP JUMP JUMPDEST PUSH0 PUSH2 0x3024 PUSH1 0x1B DUP4 PUSH2 0x2892 JUMP JUMPDEST SWAP2 POP PUSH2 0x302F DUP3 PUSH2 0x2FF0 JUMP JUMPDEST PUSH1 0x20 DUP3 ADD SWAP1 POP SWAP2 SWAP1 POP JUMP JUMPDEST PUSH0 PUSH1 0x20 DUP3 ADD SWAP1 POP DUP2 DUP2 SUB PUSH0 DUP4 ADD MSTORE PUSH2 0x3051 DUP2 PUSH2 0x3018 JUMP JUMPDEST SWAP1 POP SWAP2 SWAP1 POP JUMP JUMPDEST PUSH32 0x4D756C74695377617020526F757465723A204E6F206F75747075747300000000 PUSH0 DUP3 ADD MSTORE POP JUMP JUMPDEST PUSH0 PUSH2 0x308C PUSH1 0x1C DUP4 PUSH2 0x2892 JUMP JUMPDEST SWAP2 POP PUSH2 0x3097 DUP3 PUSH2 0x3058 JUMP JUMPDEST PUSH1 0x20 DUP3 ADD SWAP1 POP SWAP2 SWAP1 POP JUMP JUMPDEST PUSH0 PUSH1 0x20 DUP3 ADD SWAP1 POP DUP2 DUP2 SUB PUSH0 DUP4 ADD MSTORE PUSH2 0x30B9 DUP2 PUSH2 0x3080 JUMP JUMPDEST SWAP1 POP SWAP2 SWAP1 POP JUMP JUMPDEST PUSH32 0x4D756C74695377617020526F757465723A2052656365697665722063616E6E6F PUSH0 DUP3 ADD MSTORE PUSH32 0x74206265207A65726F2061646472657373000000000000000000000000000000 PUSH1 0x20 DUP3 ADD MSTORE POP JUMP JUMPDEST PUSH0 PUSH2 0x311A PUSH1 0x31 DUP4 PUSH2 0x2892 JUMP JUMPDEST SWAP2 POP PUSH2 0x3125 DUP3 PUSH2 0x30C0 JUMP JUMPDEST PUSH1 0x40 DUP3 ADD SWAP1 POP SWAP2 SWAP1 POP JUMP JUMPDEST PUSH0 PUSH1 0x20 DUP3 ADD SWAP1 POP DUP2 DUP2 SUB PUSH0 DUP4 ADD MSTORE PUSH2 0x3147 DUP2 PUSH2 0x310E JUMP JUMPDEST SWAP1 POP SWAP2 SWAP1 POP JUMP JUMPDEST PUSH32 0x4D756C74695377617020526F757465723A2062616420736C6970706167650000 PUSH0 DUP3 ADD MSTORE POP JUMP JUMPDEST PUSH0 PUSH2 0x3182 PUSH1 0x1E DUP4 PUSH2 0x2892 JUMP JUMPDEST SWAP2 POP PUSH2 0x318D DUP3 PUSH2 0x314E JUMP JUMPDEST PUSH1 0x20 DUP3 ADD SWAP1 POP SWAP2 SWAP1 POP JUMP JUMPDEST PUSH0 PUSH1 0x20 DUP3 ADD SWAP1 POP DUP2 DUP2 SUB PUSH0 DUP4 ADD MSTORE PUSH2 0x31AF DUP2 PUSH2 0x3176 JUMP JUMPDEST SWAP1 POP SWAP2 SWAP1 POP JUMP JUMPDEST PUSH0 DUP3 DUP3 MSTORE PUSH1 0x20 DUP3 ADD SWAP1 POP SWAP3 SWAP2 POP POP JUMP JUMPDEST PUSH0 DUP2 SWAP1 POP SWAP2 SWAP1 POP JUMP JUMPDEST PUSH0 PUSH2 0x31DD PUSH1 0x20 DUP5 ADD DUP5 PUSH2 0x2961 JUMP JUMPDEST SWAP1 POP SWAP3 SWAP2 POP POP JUMP JUMPDEST PUSH2 0x31EE DUP2 PUSH2 0x293A JUMP JUMPDEST DUP3 MSTORE POP POP JUMP JUMPDEST PUSH0 PUSH2 0x3202 PUSH1 0x20 DUP5 ADD DUP5 PUSH2 0x2A88 JUMP JUMPDEST SWAP1 POP SWAP3 SWAP2 POP POP JUMP JUMPDEST PUSH2 0x3213 DUP2 PUSH2 0x2A69 JUMP JUMPDEST DUP3 MSTORE POP POP JUMP JUMPDEST PUSH1 0x40 DUP3 ADD PUSH2 0x3229 PUSH0 DUP4 ADD DUP4 PUSH2 0x31CF JUMP JUMPDEST PUSH2 0x3235 PUSH0 DUP6 ADD DUP3 PUSH2 0x31E5 JUMP JUMPDEST POP PUSH2 0x3243 PUSH1 0x20 DUP4 ADD DUP4 PUSH2 0x31F4 JUMP JUMPDEST PUSH2 0x3250 PUSH1 0x20 DUP6 ADD DUP3 PUSH2 0x320A JUMP JUMPDEST POP POP POP POP JUMP JUMPDEST PUSH0 PUSH2 0x3261 DUP4 DUP4 PUSH2 0x3219 JUMP JUMPDEST PUSH1 0x40 DUP4 ADD SWAP1 POP SWAP3 SWAP2 POP POP JUMP JUMPDEST PUSH0 DUP3 SWAP1 POP SWAP3 SWAP2 POP POP JUMP JUMPDEST PUSH0 PUSH1 0x40 DUP3 ADD SWAP1 POP SWAP2 SWAP1 POP JUMP JUMPDEST PUSH0 PUSH2 0x328E DUP4 DUP6 PUSH2 0x31B6 JUMP JUMPDEST SWAP4 POP PUSH2 0x3299 DUP3 PUSH2 0x31C6 JUMP JUMPDEST DUP1 PUSH0 JUMPDEST DUP6 DUP2 LT ISZERO PUSH2 0x32D1 JUMPI PUSH2 0x32AE DUP3 DUP5 PUSH2 0x326D JUMP JUMPDEST PUSH2 0x32B8 DUP9 DUP3 PUSH2 0x3256 JUMP JUMPDEST SWAP8 POP PUSH2 0x32C3 DUP4 PUSH2 0x3277 JUMP JUMPDEST SWAP3 POP POP PUSH1 0x1 DUP2 ADD SWAP1 POP PUSH2 0x329C JUMP JUMPDEST POP DUP6 SWAP3 POP POP POP SWAP4 SWAP3 POP POP POP JUMP JUMPDEST PUSH0 DUP3 DUP3 MSTORE PUSH1 0x20 DUP3 ADD SWAP1 POP SWAP3 SWAP2 POP POP JUMP JUMPDEST PUSH0 DUP2 SWAP1 POP SWAP2 SWAP1 POP JUMP JUMPDEST PUSH0 PUSH2 0xFFFF DUP3 AND SWAP1 POP SWAP2 SWAP1 POP JUMP JUMPDEST PUSH2 0x330D DUP2 PUSH2 0x32F7 JUMP JUMPDEST DUP2 EQ PUSH2 0x3317 JUMPI PUSH0 PUSH0 REVERT JUMPDEST POP JUMP JUMPDEST PUSH0 DUP2 CALLDATALOAD SWAP1 POP PUSH2 0x3328 DUP2 PUSH2 0x3304 JUMP JUMPDEST SWAP3 SWAP2 POP POP JUMP JUMPDEST PUSH0 PUSH2 0x333C PUSH1 0x20 DUP5 ADD DUP5 PUSH2 0x331A JUMP JUMPDEST SWAP1 POP SWAP3 SWAP2 POP POP JUMP JUMPDEST PUSH2 0x334D DUP2 PUSH2 0x32F7 JUMP JUMPDEST DUP3 MSTORE POP POP JUMP JUMPDEST PUSH1 0x40 DUP3 ADD PUSH2 0x3363 PUSH0 DUP4 ADD DUP4 PUSH2 0x31CF JUMP JUMPDEST PUSH2 0x336F PUSH0 DUP6 ADD DUP3 PUSH2 0x31E5 JUMP JUMPDEST POP PUSH2 0x337D PUSH1 0x20 DUP4 ADD DUP4 PUSH2 0x332E JUMP JUMPDEST PUSH2 0x338A PUSH1 0x20 DUP6 ADD DUP3 PUSH2 0x3344 JUMP JUMPDEST POP POP POP POP JUMP JUMPDEST PUSH0 PUSH2 0x339B DUP4 DUP4 PUSH2 0x3353 JUMP JUMPDEST PUSH1 0x40 DUP4 ADD SWAP1 POP SWAP3 SWAP2 POP POP JUMP JUMPDEST PUSH0 DUP3 SWAP1 POP SWAP3 SWAP2 POP POP JUMP JUMPDEST PUSH0 PUSH1 0x40 DUP3 ADD SWAP1 POP SWAP2 SWAP1 POP JUMP JUMPDEST PUSH0 PUSH2 0x33C8 DUP4 DUP6 PUSH2 0x32DE JUMP JUMPDEST SWAP4 POP PUSH2 0x33D3 DUP3 PUSH2 0x32EE JUMP JUMPDEST DUP1 PUSH0 JUMPDEST DUP6 DUP2 LT ISZERO PUSH2 0x340B JUMPI PUSH2 0x33E8 DUP3 DUP5 PUSH2 0x33A7 JUMP JUMPDEST PUSH2 0x33F2 DUP9 DUP3 PUSH2 0x3390 JUMP JUMPDEST SWAP8 POP PUSH2 0x33FD DUP4 PUSH2 0x33B1 JUMP JUMPDEST SWAP3 POP POP PUSH1 0x1 DUP2 ADD SWAP1 POP PUSH2 0x33D6 JUMP JUMPDEST POP DUP6 SWAP3 POP POP POP SWAP4 SWAP3 POP POP POP JUMP JUMPDEST PUSH2 0x3421 DUP2 PUSH2 0x2A69 JUMP JUMPDEST DUP3 MSTORE POP POP JUMP JUMPDEST PUSH0 DUP3 DUP3 MSTORE PUSH1 0x20 DUP3 ADD SWAP1 POP SWAP3 SWAP2 POP POP JUMP JUMPDEST PUSH0 DUP2 SWAP1 POP SWAP2 SWAP1 POP JUMP JUMPDEST PUSH1 0x40 DUP3 ADD PUSH2 0x3450 PUSH0 DUP4 ADD DUP4 PUSH2 0x31CF JUMP JUMPDEST PUSH2 0x345C PUSH0 DUP6 ADD DUP3 PUSH2 0x31E5 JUMP JUMPDEST POP PUSH2 0x346A PUSH1 0x20 DUP4 ADD DUP4 PUSH2 0x332E JUMP JUMPDEST PUSH2 0x3477 PUSH1 0x20 DUP6 ADD DUP3 PUSH2 0x3344 JUMP JUMPDEST POP POP POP POP JUMP JUMPDEST PUSH0 PUSH2 0x3488 DUP4 DUP4 PUSH2 0x3440 JUMP JUMPDEST PUSH1 0x40 DUP4 ADD SWAP1 POP SWAP3 SWAP2 POP POP JUMP JUMPDEST PUSH0 DUP3 SWAP1 POP SWAP3 SWAP2 POP POP JUMP JUMPDEST PUSH0 PUSH1 0x40 DUP3 ADD SWAP1 POP SWAP2 SWAP1 POP JUMP JUMPDEST PUSH0 PUSH2 0x34B5 DUP4 DUP6 PUSH2 0x3427 JUMP JUMPDEST SWAP4 POP PUSH2 0x34C0 DUP3 PUSH2 0x3437 JUMP JUMPDEST DUP1 PUSH0 JUMPDEST DUP6 DUP2 LT ISZERO PUSH2 0x34F8 JUMPI PUSH2 0x34D5 DUP3 DUP5 PUSH2 0x3494 JUMP JUMPDEST PUSH2 0x34DF DUP9 DUP3 PUSH2 0x347D JUMP JUMPDEST SWAP8 POP PUSH2 0x34EA DUP4 PUSH2 0x349E JUMP JUMPDEST SWAP3 POP POP PUSH1 0x1 DUP2 ADD SWAP1 POP PUSH2 0x34C3 JUMP JUMPDEST POP DUP6 SWAP3 POP POP POP SWAP4 SWAP3 POP POP POP JUMP JUMPDEST PUSH0 PUSH1 0xA0 DUP3 ADD SWAP1 POP DUP2 DUP2 SUB PUSH0 DUP4 ADD MSTORE PUSH2 0x351E DUP2 DUP11 DUP13 PUSH2 0x3283 JUMP JUMPDEST SWAP1 POP DUP2 DUP2 SUB PUSH1 0x20 DUP4 ADD MSTORE PUSH2 0x3533 DUP2 DUP9 DUP11 PUSH2 0x33BD JUMP JUMPDEST SWAP1 POP PUSH2 0x3542 PUSH1 0x40 DUP4 ADD DUP8 PUSH2 0x3418 JUMP JUMPDEST PUSH2 0x354F PUSH1 0x60 DUP4 ADD DUP7 PUSH2 0x3418 JUMP JUMPDEST DUP2 DUP2 SUB PUSH1 0x80 DUP4 ADD MSTORE PUSH2 0x3562 DUP2 DUP5 DUP7 PUSH2 0x34AA JUMP JUMPDEST SWAP1 POP SWAP10 SWAP9 POP POP POP POP POP POP POP POP POP JUMP JUMPDEST PUSH0 DUP2 MLOAD SWAP1 POP SWAP2 SWAP1 POP JUMP JUMPDEST DUP3 DUP2 DUP4 MCOPY PUSH0 DUP4 DUP4 ADD MSTORE POP POP POP JUMP JUMPDEST PUSH0 PUSH2 0x3593 DUP3 PUSH2 0x3571 JUMP JUMPDEST PUSH2 0x359D DUP2 DUP6 PUSH2 0x2892 JUMP JUMPDEST SWAP4 POP PUSH2 0x35AD DUP2 DUP6 PUSH1 0x20 DUP7 ADD PUSH2 0x357B JUMP JUMPDEST PUSH2 0x35B6 DUP2 PUSH2 0x2C11 JUMP JUMPDEST DUP5 ADD SWAP2 POP POP SWAP3 SWAP2 POP POP JUMP JUMPDEST PUSH0 PUSH1 0x20 DUP3 ADD SWAP1 POP DUP2 DUP2 SUB PUSH0 DUP4 ADD MSTORE PUSH2 0x35D9 DUP2 DUP5 PUSH2 0x3589 JUMP JUMPDEST SWAP1 POP SWAP3 SWAP2 POP POP JUMP JUMPDEST PUSH32 0x5265656E7472616E637947756172643A207265656E7472616E742063616C6C00 PUSH0 DUP3 ADD MSTORE POP JUMP JUMPDEST PUSH0 PUSH2 0x3615 PUSH1 0x1F DUP4 PUSH2 0x2892 JUMP JUMPDEST SWAP2 POP PUSH2 0x3620 DUP3 PUSH2 0x35E1 JUMP JUMPDEST PUSH1 0x20 DUP3 ADD SWAP1 POP SWAP2 SWAP1 POP JUMP JUMPDEST PUSH0 PUSH1 0x20 DUP3 ADD SWAP1 POP DUP2 DUP2 SUB PUSH0 DUP4 ADD MSTORE PUSH2 0x3642 DUP2 PUSH2 0x3609 JUMP JUMPDEST SWAP1 POP SWAP2 SWAP1 POP JUMP JUMPDEST PUSH32 0x4E487B7100000000000000000000000000000000000000000000000000000000 PUSH0 MSTORE PUSH1 0x32 PUSH1 0x4 MSTORE PUSH1 0x24 PUSH0 REVERT JUMPDEST PUSH32 0x4E487B7100000000000000000000000000000000000000000000000000000000 PUSH0 MSTORE PUSH1 0x11 PUSH1 0x4 MSTORE PUSH1 0x24 PUSH0 REVERT JUMPDEST PUSH0 PUSH2 0x36AD DUP3 PUSH2 0x2A69 JUMP JUMPDEST SWAP2 POP PUSH2 0x36B8 DUP4 PUSH2 0x2A69 JUMP JUMPDEST SWAP3 POP DUP3 DUP3 ADD SWAP1 POP DUP1 DUP3 GT ISZERO PUSH2 0x36D0 JUMPI PUSH2 0x36CF PUSH2 0x3676 JUMP JUMPDEST JUMPDEST SWAP3 SWAP2 POP POP JUMP JUMPDEST PUSH32 0x6D73672E76616C756520213D2045544820696E70757473000000000000000000 PUSH0 DUP3 ADD MSTORE POP JUMP JUMPDEST PUSH0 PUSH2 0x370A PUSH1 0x17 DUP4 PUSH2 0x2892 JUMP JUMPDEST SWAP2 POP PUSH2 0x3715 DUP3 PUSH2 0x36D6 JUMP JUMPDEST PUSH1 0x20 DUP3 ADD SWAP1 POP SWAP2 SWAP1 POP JUMP JUMPDEST PUSH0 PUSH1 0x20 DUP3 ADD SWAP1 POP DUP2 DUP2 SUB PUSH0 DUP4 ADD MSTORE PUSH2 0x3737 DUP2 PUSH2 0x36FE JUMP JUMPDEST SWAP1 POP SWAP2 SWAP1 POP JUMP JUMPDEST PUSH0 PUSH1 0x20 DUP3 DUP5 SUB SLT ISZERO PUSH2 0x3753 JUMPI PUSH2 0x3752 PUSH2 0x2913 JUMP JUMPDEST JUMPDEST PUSH0 PUSH2 0x3760 DUP5 DUP3 DUP6 ADD PUSH2 0x331A JUMP JUMPDEST SWAP2 POP POP SWAP3 SWAP2 POP POP JUMP JUMPDEST PUSH32 0x4D756C74695377617020526F757465723A20576569676874206D757374206265 PUSH0 DUP3 ADD MSTORE PUSH32 0x2067726561746572207468616E20300000000000000000000000000000000000 PUSH1 0x20 DUP3 ADD MSTORE POP JUMP JUMPDEST PUSH0 PUSH2 0x37C3 PUSH1 0x2F DUP4 PUSH2 0x2892 JUMP JUMPDEST SWAP2 POP PUSH2 0x37CE DUP3 PUSH2 0x3769 JUMP JUMPDEST PUSH1 0x40 DUP3 ADD SWAP1 POP SWAP2 SWAP1 POP JUMP JUMPDEST PUSH0 PUSH1 0x20 DUP3 ADD SWAP1 POP DUP2 DUP2 SUB PUSH0 DUP4 ADD MSTORE PUSH2 0x37F0 DUP2 PUSH2 0x37B7 JUMP JUMPDEST SWAP1 POP SWAP2 SWAP1 POP JUMP JUMPDEST PUSH32 0x4D756C74695377617020526F757465723A20546F74616C20776569676874206D PUSH0 DUP3 ADD MSTORE PUSH32 0x7573742062652031303025000000000000000000000000000000000000000000 PUSH1 0x20 DUP3 ADD MSTORE POP JUMP JUMPDEST PUSH0 PUSH2 0x3851 PUSH1 0x2B DUP4 PUSH2 0x2892 JUMP JUMPDEST SWAP2 POP PUSH2 0x385C DUP3 PUSH2 0x37F7 JUMP JUMPDEST PUSH1 0x40 DUP3 ADD SWAP1 POP SWAP2 SWAP1 POP JUMP JUMPDEST PUSH0 PUSH1 0x20 DUP3 ADD SWAP1 POP DUP2 DUP2 SUB PUSH0 DUP4 ADD MSTORE PUSH2 0x387E DUP2 PUSH2 0x3845 JUMP JUMPDEST SWAP1 POP SWAP2 SWAP1 POP JUMP JUMPDEST PUSH32 0x4665653A207A65726F2061646472657373000000000000000000000000000000 PUSH0 DUP3 ADD MSTORE POP JUMP JUMPDEST PUSH0 PUSH2 0x38B9 PUSH1 0x11 DUP4 PUSH2 0x2892 JUMP JUMPDEST SWAP2 POP PUSH2 0x38C4 DUP3 PUSH2 0x3885 JUMP JUMPDEST PUSH1 0x20 DUP3 ADD SWAP1 POP SWAP2 SWAP1 POP JUMP JUMPDEST PUSH0 PUSH1 0x20 DUP3 ADD SWAP1 POP DUP2 DUP2 SUB PUSH0 DUP4 ADD MSTORE PUSH2 0x38E6 DUP2 PUSH2 0x38AD JUMP JUMPDEST SWAP1 POP SWAP2 SWAP1 POP JUMP JUMPDEST PUSH32 0x4665653A207A65726F2062697073000000000000000000000000000000000000 PUSH0 DUP3 ADD MSTORE POP JUMP JUMPDEST PUSH0 PUSH2 0x3921 PUSH1 0xE DUP4 PUSH2 0x2892 JUMP JUMPDEST SWAP2 POP PUSH2 0x392C DUP3 PUSH2 0x38ED JUMP JUMPDEST PUSH1 0x20 DUP3 ADD SWAP1 POP SWAP2 SWAP1 POP JUMP JUMPDEST PUSH0 PUSH1 0x20 DUP3 ADD SWAP1 POP DUP2 DUP2 SUB PUSH0 DUP4 ADD MSTORE PUSH2 0x394E DUP2 PUSH2 0x3915 JUMP JUMPDEST SWAP1 POP SWAP2 SWAP1 POP JUMP JUMPDEST PUSH32 0x4665653A203E2031303025000000000000000000000000000000000000000000 PUSH0 DUP3 ADD MSTORE POP JUMP JUMPDEST PUSH0 PUSH2 0x3989 PUSH1 0xB DUP4 PUSH2 0x2892 JUMP JUMPDEST SWAP2 POP PUSH2 0x3994 DUP3 PUSH2 0x3955 JUMP JUMPDEST PUSH1 0x20 DUP3 ADD SWAP1 POP SWAP2 SWAP1 POP JUMP JUMPDEST PUSH0 PUSH1 0x20 DUP3 ADD SWAP1 POP DUP2 DUP2 SUB PUSH0 DUP4 ADD MSTORE PUSH2 0x39B6 DUP2 PUSH2 0x397D JUMP JUMPDEST SWAP1 POP SWAP2 SWAP1 POP JUMP JUMPDEST PUSH0 PUSH2 0x39C7 DUP3 PUSH2 0x2A69 JUMP JUMPDEST SWAP2 POP PUSH2 0x39D2 DUP4 PUSH2 0x2A69 JUMP JUMPDEST SWAP3 POP DUP3 DUP3 SUB SWAP1 POP DUP2 DUP2 GT ISZERO PUSH2 0x39EA JUMPI PUSH2 0x39E9 PUSH2 0x3676 JUMP JUMPDEST JUMPDEST SWAP3 SWAP2 POP POP JUMP JUMPDEST PUSH0 PUSH1 0x20 DUP3 ADD SWAP1 POP PUSH2 0x3A03 PUSH0 DUP4 ADD DUP5 PUSH2 0x3418 JUMP JUMPDEST SWAP3 SWAP2 POP POP JUMP JUMPDEST PUSH0 DUP2 MLOAD SWAP1 POP PUSH2 0x3A17 DUP2 PUSH2 0x2A72 JUMP JUMPDEST SWAP3 SWAP2 POP POP JUMP JUMPDEST PUSH0 PUSH1 0x20 DUP3 DUP5 SUB SLT ISZERO PUSH2 0x3A32 JUMPI PUSH2 0x3A31 PUSH2 0x2913 JUMP JUMPDEST JUMPDEST PUSH0 PUSH2 0x3A3F DUP5 DUP3 DUP6 ADD PUSH2 0x3A09 JUMP JUMPDEST SWAP2 POP POP SWAP3 SWAP2 POP POP JUMP JUMPDEST PUSH32 0x4469726563746F72792063616E6E6F74206265207A65726F2061646472657373 PUSH0 DUP3 ADD MSTORE POP JUMP JUMPDEST PUSH0 PUSH2 0x3A7C PUSH1 0x20 DUP4 PUSH2 0x2892 JUMP JUMPDEST SWAP2 POP PUSH2 0x3A87 DUP3 PUSH2 0x3A48 JUMP JUMPDEST PUSH1 0x20 DUP3 ADD SWAP1 POP SWAP2 SWAP1 POP JUMP JUMPDEST PUSH0 PUSH1 0x20 DUP3 ADD SWAP1 POP DUP2 DUP2 SUB PUSH0 DUP4 ADD MSTORE PUSH2 0x3AA9 DUP2 PUSH2 0x3A70 JUMP JUMPDEST SWAP1 POP SWAP2 SWAP1 POP JUMP JUMPDEST PUSH32 0x4469726563746F7279206D757374206265206120636F6E747261637400000000 PUSH0 DUP3 ADD MSTORE POP JUMP JUMPDEST PUSH0 PUSH2 0x3AE4 PUSH1 0x1C DUP4 PUSH2 0x2892 JUMP JUMPDEST SWAP2 POP PUSH2 0x3AEF DUP3 PUSH2 0x3AB0 JUMP JUMPDEST PUSH1 0x20 DUP3 ADD SWAP1 POP SWAP2 SWAP1 POP JUMP JUMPDEST PUSH0 PUSH1 0x20 DUP3 ADD SWAP1 POP DUP2 DUP2 SUB PUSH0 DUP4 ADD MSTORE PUSH2 0x3B11 DUP2 PUSH2 0x3AD8 JUMP JUMPDEST SWAP1 POP SWAP2 SWAP1 POP JUMP JUMPDEST PUSH32 0x4469726563746F7279206164647265737320646F6573206E6F7420696D706C65 PUSH0 DUP3 ADD MSTORE PUSH32 0x6D656E74206F776E657228290000000000000000000000000000000000000000 PUSH1 0x20 DUP3 ADD MSTORE POP JUMP JUMPDEST PUSH0 PUSH2 0x3B72 PUSH1 0x2C DUP4 PUSH2 0x2892 JUMP JUMPDEST SWAP2 POP PUSH2 0x3B7D DUP3 PUSH2 0x3B18 JUMP JUMPDEST PUSH1 0x40 DUP3 ADD SWAP1 POP SWAP2 SWAP1 POP JUMP JUMPDEST PUSH0 PUSH1 0x20 DUP3 ADD SWAP1 POP DUP2 DUP2 SUB PUSH0 DUP4 ADD MSTORE PUSH2 0x3B9F DUP2 PUSH2 0x3B66 JUMP JUMPDEST SWAP1 POP SWAP2 SWAP1 POP JUMP JUMPDEST PUSH32 0x777261703A207A65726F20616D6F756E74000000000000000000000000000000 PUSH0 DUP3 ADD MSTORE POP JUMP JUMPDEST PUSH0 PUSH2 0x3BDA PUSH1 0x11 DUP4 PUSH2 0x2892 JUMP JUMPDEST SWAP2 POP PUSH2 0x3BE5 DUP3 PUSH2 0x3BA6 JUMP JUMPDEST PUSH1 0x20 DUP3 ADD SWAP1 POP SWAP2 SWAP1 POP JUMP JUMPDEST PUSH0 PUSH1 0x20 DUP3 ADD SWAP1 POP DUP2 DUP2 SUB PUSH0 DUP4 ADD MSTORE PUSH2 0x3C07 DUP2 PUSH2 0x3BCE JUMP JUMPDEST SWAP1 POP SWAP2 SWAP1 POP JUMP JUMPDEST PUSH32 0x777261703A206F6E6C79207468697320636F6E74726163742063616E20777261 PUSH0 DUP3 ADD MSTORE PUSH32 0x7020455448000000000000000000000000000000000000000000000000000000 PUSH1 0x20 DUP3 ADD MSTORE POP JUMP JUMPDEST PUSH0 PUSH2 0x3C68 PUSH1 0x25 DUP4 PUSH2 0x2892 JUMP JUMPDEST SWAP2 POP PUSH2 0x3C73 DUP3 PUSH2 0x3C0E JUMP JUMPDEST PUSH1 0x40 DUP3 ADD SWAP1 POP SWAP2 SWAP1 POP JUMP JUMPDEST PUSH0 PUSH1 0x20 DUP3 ADD SWAP1 POP DUP2 DUP2 SUB PUSH0 DUP4 ADD MSTORE PUSH2 0x3C95 DUP2 PUSH2 0x3C5C JUMP JUMPDEST SWAP1 POP SWAP2 SWAP1 POP JUMP JUMPDEST PUSH32 0x574554483A20696E73756666696369656E742045544800000000000000000000 PUSH0 DUP3 ADD MSTORE POP JUMP JUMPDEST PUSH0 PUSH2 0x3CD0 PUSH1 0x16 DUP4 PUSH2 0x2892 JUMP JUMPDEST SWAP2 POP PUSH2 0x3CDB DUP3 PUSH2 0x3C9C JUMP JUMPDEST PUSH1 0x20 DUP3 ADD SWAP1 POP SWAP2 SWAP1 POP JUMP JUMPDEST PUSH0 PUSH1 0x20 DUP3 ADD SWAP1 POP DUP2 DUP2 SUB PUSH0 DUP4 ADD MSTORE PUSH2 0x3CFD DUP2 PUSH2 0x3CC4 JUMP JUMPDEST SWAP1 POP SWAP2 SWAP1 POP JUMP JUMPDEST PUSH32 0x4D756C74695377617020526F757465723A20496E76616C69642066726F6D2074 PUSH0 DUP3 ADD MSTORE PUSH32 0x6F6B656E20616464726573730000000000000000000000000000000000000000 PUSH1 0x20 DUP3 ADD MSTORE POP JUMP JUMPDEST PUSH0 PUSH2 0x3D5E PUSH1 0x2C DUP4 PUSH2 0x2892 JUMP JUMPDEST SWAP2 POP PUSH2 0x3D69 DUP3 PUSH2 0x3D04 JUMP JUMPDEST PUSH1 0x40 DUP3 ADD SWAP1 POP SWAP2 SWAP1 POP JUMP JUMPDEST PUSH0 PUSH1 0x20 DUP3 ADD SWAP1 POP DUP2 DUP2 SUB PUSH0 DUP4 ADD MSTORE PUSH2 0x3D8B DUP2 PUSH2 0x3D52 JUMP JUMPDEST SWAP1 POP SWAP2 SWAP1 POP JUMP JUMPDEST PUSH32 0x4D756C74695377617020526F757465723A20496E76616C696420746F20746F6B PUSH0 DUP3 ADD MSTORE PUSH32 0x656E206164647265737300000000000000000000000000000000000000000000 PUSH1 0x20 DUP3 ADD MSTORE POP JUMP JUMPDEST PUSH0 PUSH2 0x3DEC PUSH1 0x2A DUP4 PUSH2 0x2892 JUMP JUMPDEST SWAP2 POP PUSH2 0x3DF7 DUP3 PUSH2 0x3D92 JUMP JUMPDEST PUSH1 0x40 DUP3 ADD SWAP1 POP SWAP2 SWAP1 POP JUMP JUMPDEST PUSH0 PUSH1 0x20 DUP3 ADD SWAP1 POP DUP2 DUP2 SUB PUSH0 DUP4 ADD MSTORE PUSH2 0x3E19 DUP2 PUSH2 0x3DE0 JUMP JUMPDEST SWAP1 POP SWAP2 SWAP1 POP JUMP JUMPDEST PUSH32 0x4D756C74695377617020526F757465723A20416D6F756E74206D757374206265 PUSH0 DUP3 ADD MSTORE PUSH32 0x2067726561746572207468616E20300000000000000000000000000000000000 PUSH1 0x20 DUP3 ADD MSTORE POP JUMP JUMPDEST PUSH0 PUSH2 0x3E7A PUSH1 0x2F DUP4 PUSH2 0x2892 JUMP JUMPDEST SWAP2 POP PUSH2 0x3E85 DUP3 PUSH2 0x3E20 JUMP JUMPDEST PUSH1 0x40 DUP3 ADD SWAP1 POP SWAP2 SWAP1 POP JUMP JUMPDEST PUSH0 PUSH1 0x20 DUP3 ADD SWAP1 POP DUP2 DUP2 SUB PUSH0 DUP4 ADD MSTORE PUSH2 0x3EA7 DUP2 PUSH2 0x3E6E JUMP JUMPDEST SWAP1 POP SWAP2 SWAP1 POP JUMP JUMPDEST PUSH0 DUP2 MLOAD SWAP1 POP SWAP2 SWAP1 POP JUMP JUMPDEST PUSH0 DUP3 DUP3 MSTORE PUSH1 0x20 DUP3 ADD SWAP1 POP SWAP3 SWAP2 POP POP JUMP JUMPDEST PUSH0 DUP2 SWAP1 POP PUSH1 0x20 DUP3 ADD SWAP1 POP SWAP2 SWAP1 POP JUMP JUMPDEST PUSH0 PUSH2 0x3EE2 DUP4 DUP4 PUSH2 0x31E5 JUMP JUMPDEST PUSH1 0x20 DUP4 ADD SWAP1 POP SWAP3 SWAP2 POP POP JUMP JUMPDEST PUSH0 PUSH1 0x20 DUP3 ADD SWAP1 POP SWAP2 SWAP1 POP JUMP JUMPDEST PUSH0 PUSH2 0x3F04 DUP3 PUSH2 0x3EAE JUMP JUMPDEST PUSH2 0x3F0E DUP2 DUP6 PUSH2 0x3EB8 JUMP JUMPDEST SWAP4 POP PUSH2 0x3F19 DUP4 PUSH2 0x3EC8 JUMP JUMPDEST DUP1 PUSH0 JUMPDEST DUP4 DUP2 LT ISZERO PUSH2 0x3F49 JUMPI DUP2 MLOAD PUSH2 0x3F30 DUP9 DUP3 PUSH2 0x3ED7 JUMP JUMPDEST SWAP8 POP PUSH2 0x3F3B DUP4 PUSH2 0x3EEE JUMP JUMPDEST SWAP3 POP POP PUSH1 0x1 DUP2 ADD SWAP1 POP PUSH2 0x3F1C JUMP JUMPDEST POP DUP6 SWAP4 POP POP POP POP SWAP3 SWAP2 POP POP JUMP JUMPDEST PUSH0 PUSH1 0xA0 DUP3 ADD SWAP1 POP PUSH2 0x3F69 PUSH0 DUP4 ADD DUP9 PUSH2 0x3418 JUMP JUMPDEST PUSH2 0x3F76 PUSH1 0x20 DUP4 ADD DUP8 PUSH2 0x3418 JUMP JUMPDEST DUP2 DUP2 SUB PUSH1 0x40 DUP4 ADD MSTORE PUSH2 0x3F88 DUP2 DUP7 PUSH2 0x3EFA JUMP JUMPDEST SWAP1 POP PUSH2 0x3F97 PUSH1 0x60 DUP4 ADD DUP6 PUSH2 0x2D8C JUMP JUMPDEST PUSH2 0x3FA4 PUSH1 0x80 DUP4 ADD DUP5 PUSH2 0x3418 JUMP JUMPDEST SWAP7 SWAP6 POP POP POP POP POP POP JUMP JUMPDEST PUSH0 PUSH2 0x3FB8 DUP3 PUSH2 0x2A69 JUMP JUMPDEST SWAP2 POP PUSH2 0x3FC3 DUP4 PUSH2 0x2A69 JUMP JUMPDEST SWAP3 POP DUP3 DUP3 MUL PUSH2 0x3FD1 DUP2 PUSH2 0x2A69 JUMP JUMPDEST SWAP2 POP DUP3 DUP3 DIV DUP5 EQ DUP4 ISZERO OR PUSH2 0x3FE8 JUMPI PUSH2 0x3FE7 PUSH2 0x3676 JUMP JUMPDEST JUMPDEST POP SWAP3 SWAP2 POP POP JUMP JUMPDEST PUSH32 0x4E487B7100000000000000000000000000000000000000000000000000000000 PUSH0 MSTORE PUSH1 0x12 PUSH1 0x4 MSTORE PUSH1 0x24 PUSH0 REVERT JUMPDEST PUSH0 PUSH2 0x4026 DUP3 PUSH2 0x2A69 JUMP JUMPDEST SWAP2 POP PUSH2 0x4031 DUP4 PUSH2 0x2A69 JUMP JUMPDEST SWAP3 POP DUP3 PUSH2 0x4041 JUMPI PUSH2 0x4040 PUSH2 0x3FEF JUMP JUMPDEST JUMPDEST DUP3 DUP3 DIV SWAP1 POP SWAP3 SWAP2 POP POP JUMP JUMPDEST PUSH32 0x756E777261703A207A65726F20616D6F756E7400000000000000000000000000 PUSH0 DUP3 ADD MSTORE POP JUMP JUMPDEST PUSH0 PUSH2 0x4080 PUSH1 0x13 DUP4 PUSH2 0x2892 JUMP JUMPDEST SWAP2 POP PUSH2 0x408B DUP3 PUSH2 0x404C JUMP JUMPDEST PUSH1 0x20 DUP3 ADD SWAP1 POP SWAP2 SWAP1 POP JUMP JUMPDEST PUSH0 PUSH1 0x20 DUP3 ADD SWAP1 POP DUP2 DUP2 SUB PUSH0 DUP4 ADD MSTORE PUSH2 0x40AD DUP2 PUSH2 0x4074 JUMP JUMPDEST SWAP1 POP SWAP2 SWAP1 POP JUMP JUMPDEST PUSH32 0x574554483A20696E73756666696369656E742057455448000000000000000000 PUSH0 DUP3 ADD MSTORE POP JUMP JUMPDEST PUSH0 PUSH2 0x40E8 PUSH1 0x17 DUP4 PUSH2 0x2892 JUMP JUMPDEST SWAP2 POP PUSH2 0x40F3 DUP3 PUSH2 0x40B4 JUMP JUMPDEST PUSH1 0x20 DUP3 ADD SWAP1 POP SWAP2 SWAP1 POP JUMP JUMPDEST PUSH0 PUSH1 0x20 DUP3 ADD SWAP1 POP DUP2 DUP2 SUB PUSH0 DUP4 ADD MSTORE PUSH2 0x4115 DUP2 PUSH2 0x40DC JUMP JUMPDEST SWAP1 POP SWAP2 SWAP1 POP JUMP JUMPDEST PUSH32 0x73656E64546F6B656E3A207A65726F20616D6F756E7400000000000000000000 PUSH0 DUP3 ADD MSTORE POP JUMP JUMPDEST PUSH0 PUSH2 0x4150 PUSH1 0x16 DUP4 PUSH2 0x2892 JUMP JUMPDEST SWAP2 POP PUSH2 0x415B DUP3 PUSH2 0x411C JUMP JUMPDEST PUSH1 0x20 DUP3 ADD SWAP1 POP SWAP2 SWAP1 POP JUMP JUMPDEST PUSH0 PUSH1 0x20 DUP3 ADD SWAP1 POP DUP2 DUP2 SUB PUSH0 DUP4 ADD MSTORE PUSH2 0x417D DUP2 PUSH2 0x4144 JUMP JUMPDEST SWAP1 POP SWAP2 SWAP1 POP JUMP JUMPDEST PUSH32 0x73656E644574683A207A65726F20616D6F756E74000000000000000000000000 PUSH0 DUP3 ADD MSTORE POP JUMP JUMPDEST PUSH0 PUSH2 0x41B8 PUSH1 0x14 DUP4 PUSH2 0x2892 JUMP JUMPDEST SWAP2 POP PUSH2 0x41C3 DUP3 PUSH2 0x4184 JUMP JUMPDEST PUSH1 0x20 DUP3 ADD SWAP1 POP SWAP2 SWAP1 POP JUMP JUMPDEST PUSH0 PUSH1 0x20 DUP3 ADD SWAP1 POP DUP2 DUP2 SUB PUSH0 DUP4 ADD MSTORE PUSH2 0x41E5 DUP2 PUSH2 0x41AC JUMP JUMPDEST SWAP1 POP SWAP2 SWAP1 POP JUMP JUMPDEST PUSH32 0x73656E644574683A20696E73756666696369656E742045544800000000000000 PUSH0 DUP3 ADD MSTORE POP JUMP JUMPDEST PUSH0 PUSH2 0x4220 PUSH1 0x19 DUP4 PUSH2 0x2892 JUMP JUMPDEST SWAP2 POP PUSH2 0x422B DUP3 PUSH2 0x41EC JUMP JUMPDEST PUSH1 0x20 DUP3 ADD SWAP1 POP SWAP2 SWAP1 POP JUMP JUMPDEST PUSH0 PUSH1 0x20 DUP3 ADD SWAP1 POP DUP2 DUP2 SUB PUSH0 DUP4 ADD MSTORE PUSH2 0x424D DUP2 PUSH2 0x4214 JUMP JUMPDEST SWAP1 POP SWAP2 SWAP1 POP JUMP JUMPDEST PUSH0 DUP2 SWAP1 POP SWAP3 SWAP2 POP POP JUMP JUMPDEST POP JUMP JUMPDEST PUSH0 PUSH2 0x426C PUSH0 DUP4 PUSH2 0x4254 JUMP JUMPDEST SWAP2 POP PUSH2 0x4277 DUP3 PUSH2 0x425E JUMP JUMPDEST PUSH0 DUP3 ADD SWAP1 POP SWAP2 SWAP1 POP JUMP JUMPDEST PUSH0 PUSH2 0x428B DUP3 PUSH2 0x4261 JUMP JUMPDEST SWAP2 POP DUP2 SWAP1 POP SWAP2 SWAP1 POP JUMP JUMPDEST PUSH32 0x4554482073656E64206661696C65640000000000000000000000000000000000 PUSH0 DUP3 ADD MSTORE POP JUMP JUMPDEST PUSH0 PUSH2 0x42C9 PUSH1 0xF DUP4 PUSH2 0x2892 JUMP JUMPDEST SWAP2 POP PUSH2 0x42D4 DUP3 PUSH2 0x4295 JUMP JUMPDEST PUSH1 0x20 DUP3 ADD SWAP1 POP SWAP2 SWAP1 POP JUMP JUMPDEST PUSH0 PUSH1 0x20 DUP3 ADD SWAP1 POP DUP2 DUP2 SUB PUSH0 DUP4 ADD MSTORE PUSH2 0x42F6 DUP2 PUSH2 0x42BD JUMP JUMPDEST SWAP1 POP SWAP2 SWAP1 POP JUMP JUMPDEST PUSH32 0x72656365697665546F6B656E3A207A65726F20616D6F756E7400000000000000 PUSH0 DUP3 ADD MSTORE POP JUMP JUMPDEST PUSH0 PUSH2 0x4331 PUSH1 0x19 DUP4 PUSH2 0x2892 JUMP JUMPDEST SWAP2 POP PUSH2 0x433C DUP3 PUSH2 0x42FD JUMP JUMPDEST PUSH1 0x20 DUP3 ADD SWAP1 POP SWAP2 SWAP1 POP JUMP JUMPDEST PUSH0 PUSH1 0x20 DUP3 ADD SWAP1 POP DUP2 DUP2 SUB PUSH0 DUP4 ADD MSTORE PUSH2 0x435E DUP2 PUSH2 0x4325 JUMP JUMPDEST SWAP1 POP SWAP2 SWAP1 POP JUMP JUMPDEST PUSH0 PUSH1 0x40 DUP3 ADD SWAP1 POP PUSH2 0x4378 PUSH0 DUP4 ADD DUP6 PUSH2 0x2D8C JUMP JUMPDEST PUSH2 0x4385 PUSH1 0x20 DUP4 ADD DUP5 PUSH2 0x2D8C JUMP JUMPDEST SWAP4 SWAP3 POP POP POP JUMP JUMPDEST PUSH32 0x72656365697665546F6B656E3A20616C6C6F77616E6365206973206C65737320 PUSH0 DUP3 ADD MSTORE PUSH32 0x7468616E20616D6F756E74000000000000000000000000000000000000000000 PUSH1 0x20 DUP3 ADD MSTORE POP JUMP JUMPDEST PUSH0 PUSH2 0x43E6 PUSH1 0x2B DUP4 PUSH2 0x2892 JUMP JUMPDEST SWAP2 POP PUSH2 0x43F1 DUP3 PUSH2 0x438C JUMP JUMPDEST PUSH1 0x40 DUP3 ADD SWAP1 POP SWAP2 SWAP1 POP JUMP JUMPDEST PUSH0 PUSH1 0x20 DUP3 ADD SWAP1 POP DUP2 DUP2 SUB PUSH0 DUP4 ADD MSTORE PUSH2 0x4413 DUP2 PUSH2 0x43DA JUMP JUMPDEST SWAP1 POP SWAP2 SWAP1 POP JUMP JUMPDEST PUSH32 0x72656365697665546F6B656E3A206E6F7468696E672072656365697665640000 PUSH0 DUP3 ADD MSTORE POP JUMP JUMPDEST PUSH0 PUSH2 0x444E PUSH1 0x1E DUP4 PUSH2 0x2892 JUMP JUMPDEST SWAP2 POP PUSH2 0x4459 DUP3 PUSH2 0x441A JUMP JUMPDEST PUSH1 0x20 DUP3 ADD SWAP1 POP SWAP2 SWAP1 POP JUMP JUMPDEST PUSH0 PUSH1 0x20 DUP3 ADD SWAP1 POP DUP2 DUP2 SUB PUSH0 DUP4 ADD MSTORE PUSH2 0x447B DUP2 PUSH2 0x4442 JUMP JUMPDEST SWAP1 POP SWAP2 SWAP1 POP JUMP JUMPDEST PUSH0 DUP2 SWAP1 POP SWAP2 SWAP1 POP JUMP JUMPDEST PUSH0 PUSH2 0x44A5 PUSH2 0x44A0 PUSH2 0x449B DUP5 PUSH2 0x4482 JUMP JUMPDEST PUSH2 0x2DB4 JUMP JUMPDEST PUSH2 0x2A69 JUMP JUMPDEST SWAP1 POP SWAP2 SWAP1 POP JUMP JUMPDEST PUSH2 0x44B5 DUP2 PUSH2 0x448B JUMP JUMPDEST DUP3 MSTORE POP POP JUMP JUMPDEST PUSH0 PUSH1 0x40 DUP3 ADD SWAP1 POP PUSH2 0x44CE PUSH0 DUP4 ADD DUP6 PUSH2 0x2D8C JUMP JUMPDEST PUSH2 0x44DB PUSH1 0x20 DUP4 ADD DUP5 PUSH2 0x44AC JUMP JUMPDEST SWAP4 SWAP3 POP POP POP JUMP JUMPDEST PUSH0 DUP2 MLOAD SWAP1 POP PUSH2 0x44F0 DUP2 PUSH2 0x2E28 JUMP JUMPDEST SWAP3 SWAP2 POP POP JUMP JUMPDEST PUSH0 PUSH1 0x20 DUP3 DUP5 SUB SLT ISZERO PUSH2 0x450B JUMPI PUSH2 0x450A PUSH2 0x2913 JUMP JUMPDEST JUMPDEST PUSH0 PUSH2 0x4518 DUP5 DUP3 DUP6 ADD PUSH2 0x44E2 JUMP JUMPDEST SWAP2 POP POP SWAP3 SWAP2 POP POP JUMP JUMPDEST PUSH0 PUSH1 0x40 DUP3 ADD SWAP1 POP PUSH2 0x4534 PUSH0 DUP4 ADD DUP6 PUSH2 0x2D8C JUMP JUMPDEST PUSH2 0x4541 PUSH1 0x20 DUP4 ADD DUP5 PUSH2 0x3418 JUMP JUMPDEST SWAP4 SWAP3 POP POP POP JUMP JUMPDEST PUSH0 PUSH1 0x40 DUP3 ADD SWAP1 POP PUSH2 0x455B PUSH0 DUP4 ADD DUP6 PUSH2 0x3418 JUMP JUMPDEST DUP2 DUP2 SUB PUSH1 0x20 DUP4 ADD MSTORE PUSH2 0x456D DUP2 DUP5 PUSH2 0x3EFA JUMP JUMPDEST SWAP1 POP SWAP4 SWAP3 POP POP POP JUMP JUMPDEST PUSH0 PUSH8 0xFFFFFFFFFFFFFFFF DUP3 GT ISZERO PUSH2 0x4590 JUMPI PUSH2 0x458F PUSH2 0x2C21 JUMP JUMPDEST JUMPDEST PUSH1 0x20 DUP3 MUL SWAP1 POP PUSH1 0x20 DUP2 ADD SWAP1 POP SWAP2 SWAP1 POP JUMP JUMPDEST PUSH0 PUSH2 0x45B3 PUSH2 0x45AE DUP5 PUSH2 0x4576 JUMP JUMPDEST PUSH2 0x2C7F JUMP JUMPDEST SWAP1 POP DUP1 DUP4 DUP3 MSTORE PUSH1 0x20 DUP3 ADD SWAP1 POP PUSH1 0x20 DUP5 MUL DUP4 ADD DUP6 DUP2 GT ISZERO PUSH2 0x45D6 JUMPI PUSH2 0x45D5 PUSH2 0x29BB JUMP JUMPDEST JUMPDEST DUP4 JUMPDEST DUP2 DUP2 LT ISZERO PUSH2 0x45FF JUMPI DUP1 PUSH2 0x45EB DUP9 DUP3 PUSH2 0x3A09 JUMP JUMPDEST DUP5 MSTORE PUSH1 0x20 DUP5 ADD SWAP4 POP POP PUSH1 0x20 DUP2 ADD SWAP1 POP PUSH2 0x45D8 JUMP JUMPDEST POP POP POP SWAP4 SWAP3 POP POP POP JUMP JUMPDEST PUSH0 DUP3 PUSH1 0x1F DUP4 ADD SLT PUSH2 0x461D JUMPI PUSH2 0x461C PUSH2 0x29B3 JUMP JUMPDEST JUMPDEST DUP2 MLOAD PUSH2 0x462D DUP5 DUP3 PUSH1 0x20 DUP7 ADD PUSH2 0x45A1 JUMP JUMPDEST SWAP2 POP POP SWAP3 SWAP2 POP POP JUMP JUMPDEST PUSH0 PUSH1 0x20 DUP3 DUP5 SUB SLT ISZERO PUSH2 0x464B JUMPI PUSH2 0x464A PUSH2 0x2913 JUMP JUMPDEST JUMPDEST PUSH0 DUP3 ADD MLOAD PUSH8 0xFFFFFFFFFFFFFFFF DUP2 GT ISZERO PUSH2 0x4668 JUMPI PUSH2 0x4667 PUSH2 0x2917 JUMP JUMPDEST JUMPDEST PUSH2 0x4674 DUP5 DUP3 DUP6 ADD PUSH2 0x4609 JUMP JUMPDEST SWAP2 POP POP SWAP3 SWAP2 POP POP JUMP JUMPDEST PUSH32 0x556E697377617020526F757465723A2051756F746520756E617661696C61626C PUSH0 DUP3 ADD MSTORE PUSH32 0x653A20706174682F6C6971756964697479000000000000000000000000000000 PUSH1 0x20 DUP3 ADD MSTORE POP JUMP JUMPDEST PUSH0 PUSH2 0x46D7 PUSH1 0x31 DUP4 PUSH2 0x2892 JUMP JUMPDEST SWAP2 POP PUSH2 0x46E2 DUP3 PUSH2 0x467D JUMP JUMPDEST PUSH1 0x40 DUP3 ADD SWAP1 POP SWAP2 SWAP1 POP JUMP JUMPDEST PUSH0 PUSH1 0x20 DUP3 ADD SWAP1 POP DUP2 DUP2 SUB PUSH0 DUP4 ADD MSTORE PUSH2 0x4704 DUP2 PUSH2 0x46CB JUMP JUMPDEST SWAP1 POP SWAP2 SWAP1 POP JUMP JUMPDEST PUSH32 0x736C69707061676542697073203E203130302500000000000000000000000000 PUSH0 DUP3 ADD MSTORE POP JUMP JUMPDEST PUSH0 PUSH2 0x473F PUSH1 0x13 DUP4 PUSH2 0x2892 JUMP JUMPDEST SWAP2 POP PUSH2 0x474A DUP3 PUSH2 0x470B JUMP JUMPDEST PUSH1 0x20 DUP3 ADD SWAP1 POP SWAP2 SWAP1 POP JUMP JUMPDEST PUSH0 PUSH1 0x20 DUP3 ADD SWAP1 POP DUP2 DUP2 SUB PUSH0 DUP4 ADD MSTORE PUSH2 0x476C DUP2 PUSH2 0x4733 JUMP JUMPDEST SWAP1 POP SWAP2 SWAP1 POP JUMP JUMPDEST PUSH0 PUSH1 0x60 DUP3 ADD SWAP1 POP PUSH2 0x4786 PUSH0 DUP4 ADD DUP7 PUSH2 0x2D8C JUMP JUMPDEST PUSH2 0x4793 PUSH1 0x20 DUP4 ADD DUP6 PUSH2 0x2D8C JUMP JUMPDEST PUSH2 0x47A0 PUSH1 0x40 DUP4 ADD DUP5 PUSH2 0x3418 JUMP JUMPDEST SWAP5 SWAP4 POP POP POP POP JUMP INVALID LOG2 PUSH5 0x6970667358 0x22 SLT KECCAK256 PUSH6 0x35417659285 CALLDATALOAD 0x23 0xB1 0xA7 0xD7 MOD 0xC 0xD0 0x2E 0xCA PUSH15 0xAC5B0E150684ACE30C2BB77BC10364 PUSH20 0x6F6C634300081E00330000000000000000000000 "
		},
		"gasEstimates": {
			"creation": {
				"codeDepositCost": "3679600",
				"executionCost": "infinite",
				"totalCost": "infinite"
			},
			"external": {
				"Directory()": "infinite",
				"changeDirectoryAddress(address)": "infinite",
				"fetchFromDirectory(string)": "infinite",
				"isActive()": "2562",
				"owner()": "infinite",
				"recoverAsset(address,address)": "infinite",
				"router()": "infinite",
				"setActive(bool)": "infinite",
				"swap((address,uint256)[],(address,uint16)[],address,uint256,uint256,(address,uint16)[])": "infinite"
			}
		},
		"methodIdentifiers": {
			"Directory()": "658a847a",
			"changeDirectoryAddress(address)": "ba4c7be1",
			"fetchFromDirectory(string)": "27262618",
			"isActive()": "22f3e2d4",
			"owner()": "8da5cb5b",
			"recoverAsset(address,address)": "09053ac4",
			"router()": "f887ea40",
			"setActive(bool)": "acec338a",
			"swap((address,uint256)[],(address,uint16)[],address,uint256,uint256,(address,uint16)[])": "192b5887"
		}
	},
	"abi": [
		{
			"inputs": [
				{
					"internalType": "address",
					"name": "routerAddress",
					"type": "address"
				},
				{
					"internalType": "address",
					"name": "_directory",
					"type": "address"
				}
			],
			"stateMutability": "nonpayable",
			"type": "constructor"
		},
		{
			"inputs": [
				{
					"internalType": "address",
					"name": "token",
					"type": "address"
				}
			],
			"name": "SafeERC20FailedOperation",
			"type": "error"
		},
		{
			"anonymous": false,
			"inputs": [
				{
					"indexed": true,
					"internalType": "address",
					"name": "to",
					"type": "address"
				},
				{
					"indexed": false,
					"internalType": "uint256",
					"name": "amountWeth",
					"type": "uint256"
				}
			],
			"name": "FeePaid",
			"type": "event"
		},
		{
			"anonymous": false,
			"inputs": [
				{
					"indexed": true,
					"internalType": "address",
					"name": "caller",
					"type": "address"
				},
				{
					"components": [
						{
							"internalType": "address",
							"name": "tokenAddress",
							"type": "address"
						},
						{
							"internalType": "uint256",
							"name": "amount",
							"type": "uint256"
						}
					],
					"indexed": false,
					"internalType": "struct SwapOrderInput[]",
					"name": "inputs",
					"type": "tuple[]"
				},
				{
					"components": [
						{
							"internalType": "address",
							"name": "tokenAddress",
							"type": "address"
						},
						{
							"internalType": "uint16",
							"name": "weightBips",
							"type": "uint16"
						}
					],
					"indexed": false,
					"internalType": "struct SwapOrderOutput[]",
					"name": "outputs",
					"type": "tuple[]"
				},
				{
					"indexed": false,
					"internalType": "uint256",
					"name": "slippageBips",
					"type": "uint256"
				},
				{
					"indexed": false,
					"internalType": "uint256",
					"name": "deadlineInSec",
					"type": "uint256"
				},
				{
					"components": [
						{
							"internalType": "address",
							"name": "feeAddress",
							"type": "address"
						},
						{
							"internalType": "uint16",
							"name": "feeBips",
							"type": "uint16"
						}
					],
					"indexed": false,
					"internalType": "struct SwapFee[]",
					"name": "fees",
					"type": "tuple[]"
				}
			],
			"name": "Swapped",
			"type": "event"
		},
		{
			"inputs": [],
			"name": "Directory",
			"outputs": [
				{
					"internalType": "contract IDirectory",
					"name": "",
					"type": "address"
				}
			],
			"stateMutability": "view",
			"type": "function"
		},
		{
			"inputs": [
				{
					"internalType": "address",
					"name": "_directory",
					"type": "address"
				}
			],
			"name": "changeDirectoryAddress",
			"outputs": [],
			"stateMutability": "nonpayable",
			"type": "function"
		},
		{
			"inputs": [
				{
					"internalType": "string",
					"name": "_key",
					"type": "string"
				}
			],
			"name": "fetchFromDirectory",
			"outputs": [
				{
					"internalType": "address",
					"name": "",
					"type": "address"
				}
			],
			"stateMutability": "view",
			"type": "function"
		},
		{
			"inputs": [],
			"name": "isActive",
			"outputs": [
				{
					"internalType": "bool",
					"name": "",
					"type": "bool"
				}
			],
			"stateMutability": "view",
			"type": "function"
		},
		{
			"inputs": [],
			"name": "owner",
			"outputs": [
				{
					"internalType": "address",
					"name": "",
					"type": "address"
				}
			],
			"stateMutability": "view",
			"type": "function"
		},
		{
			"inputs": [
				{
					"internalType": "address",
					"name": "tokenAddress",
					"type": "address"
				},
				{
					"internalType": "address",
					"name": "toAddress",
					"type": "address"
				}
			],
			"name": "recoverAsset",
			"outputs": [],
			"stateMutability": "nonpayable",
			"type": "function"
		},
		{
			"inputs": [],
			"name": "router",
			"outputs": [
				{
					"internalType": "contract IUniswapV2Router02",
					"name": "",
					"type": "address"
				}
			],
			"stateMutability": "view",
			"type": "function"
		},
		{
			"inputs": [
				{
					"internalType": "bool",
					"name": "_active",
					"type": "bool"
				}
			],
			"name": "setActive",
			"outputs": [],
			"stateMutability": "nonpayable",
			"type": "function"
		},
		{
			"inputs": [
				{
					"components": [
						{
							"internalType": "address",
							"name": "tokenAddress",
							"type": "address"
						},
						{
							"internalType": "uint256",
							"name": "amount",
							"type": "uint256"
						}
					],
					"internalType": "struct SwapOrderInput[]",
					"name": "inputs",
					"type": "tuple[]"
				},
				{
					"components": [
						{
							"internalType": "address",
							"name": "tokenAddress",
							"type": "address"
						},
						{
							"internalType": "uint16",
							"name": "weightBips",
							"type": "uint16"
						}
					],
					"internalType": "struct SwapOrderOutput[]",
					"name": "outputs",
					"type": "tuple[]"
				},
				{
					"internalType": "address",
					"name": "receiver",
					"type": "address"
				},
				{
					"internalType": "uint256",
					"name": "slippageBips",
					"type": "uint256"
				},
				{
					"internalType": "uint256",
					"name": "deadlineInSec",
					"type": "uint256"
				},
				{
					"components": [
						{
							"internalType": "address",
							"name": "feeAddress",
							"type": "address"
						},
						{
							"internalType": "uint16",
							"name": "feeBips",
							"type": "uint16"
						}
					],
					"internalType": "struct SwapFee[]",
					"name": "fees",
					"type": "tuple[]"
				}
			],
			"name": "swap",
			"outputs": [],
			"stateMutability": "payable",
			"type": "function"
		},
		{
			"stateMutability": "payable",
			"type": "receive"
		}
	]
}