{
	"data": {
		"bytecode": {
			"linkReferences": {},
			"object": "61014060405261012c60025f6101000a81548163ffffffff021916908363ffffffff160217905550348015610032575f5ffd5b5060405161642638038061642683398181016040528101906100549190610638565b84848484845f73ffffffffffffffffffffffffffffffffffffffff168373ffffffffffffffffffffffffffffffffffffffff16036100be576040517fd92e233d00000000000000000000000000000000000000000000000000000000815260040160405180910390fd5b5f73ffffffffffffffffffffffffffffffffffffffff168473ffffffffffffffffffffffffffffffffffffffff1603610123576040517fd92e233d00000000000000000000000000000000000000000000000000000000815260040160405180910390fd5b5f73ffffffffffffffffffffffffffffffffffffffff168273ffffffffffffffffffffffffffffffffffffffff1603610188576040517fd92e233d00000000000000000000000000000000000000000000000000000000815260040160405180910390fd5b5f73ffffffffffffffffffffffffffffffffffffffff168173ffffffffffffffffffffffffffffffffffffffff16036101ed576040517fd92e233d00000000000000000000000000000000000000000000000000000000815260040160405180910390fd5b8273ffffffffffffffffffffffffffffffffffffffff1660e08173ffffffffffffffffffffffffffffffffffffffff16815250508373ffffffffffffffffffffffffffffffffffffffff166101008173ffffffffffffffffffffffffffffffffffffffff16815250508173ffffffffffffffffffffffffffffffffffffffff166101208173ffffffffffffffffffffffffffffffffffffffff16815250505f8473ffffffffffffffffffffffffffffffffffffffff1663ad5c46486040518163ffffffff1660e01b8152600401602060405180830381865afa1580156102d5573d5f5f3e3d5ffd5b505050506040513d601f19601f820116820180604052508101906102f991906106af565b90508073ffffffffffffffffffffffffffffffffffffffff1660808173ffffffffffffffffffffffffffffffffffffffff16815250508473ffffffffffffffffffffffffffffffffffffffff1663c45a01556040518163ffffffff1660e01b8152600401602060405180830381865afa158015610378573d5f5f3e3d5ffd5b505050506040513d601f19601f8201168201806040525081019061039c91906106af565b73ffffffffffffffffffffffffffffffffffffffff1660c08173ffffffffffffffffffffffffffffffffffffffff16815250508173ffffffffffffffffffffffffffffffffffffffff1660a08173ffffffffffffffffffffffffffffffffffffffff168152505050505050506104178161042960201b60201c565b50600180819055505050505050610848565b5f73ffffffffffffffffffffffffffffffffffffffff168173ffffffffffffffffffffffffffffffffffffffff1603610497576040517f08c379a000000000000000000000000000000000000000000000000000000000815260040161048e90610734565b60405180910390fd5b5f8173ffffffffffffffffffffffffffffffffffffffff163b116104f0576040517f08c379a00000000000000000000000000000000000000000000000000000000081526004016104e79061079c565b60405180910390fd5b8073ffffffffffffffffffffffffffffffffffffffff16638da5cb5b6040518163ffffffff1660e01b8152600401602060405180830381865afa92505050801561055857506040513d601f19601f8201168201806040525081019061055591906106af565b60015b610597576040517f08c379a000000000000000000000000000000000000000000000000000000000815260040161058e9061082a565b60405180910390fd5b815f5f6101000a81548173ffffffffffffffffffffffffffffffffffffffff021916908373ffffffffffffffffffffffffffffffffffffffff1602179055505050565b5f5ffd5b5f73ffffffffffffffffffffffffffffffffffffffff82169050919050565b5f610607826105de565b9050919050565b610617816105fd565b8114610621575f5ffd5b50565b5f815190506106328161060e565b92915050565b5f5f5f5f5f60a08688031215610651576106506105da565b5b5f61065e88828901610624565b955050602061066f88828901610624565b945050604061068088828901610624565b935050606061069188828901610624565b92505060806106a288828901610624565b9150509295509295909350565b5f602082840312156106c4576106c36105da565b5b5f6106d184828501610624565b91505092915050565b5f82825260208201905092915050565b7f4469726563746f72792063616e6e6f74206265207a65726f20616464726573735f82015250565b5f61071e6020836106da565b9150610729826106ea565b602082019050919050565b5f6020820190508181035f83015261074b81610712565b9050919050565b7f4469726563746f7279206d757374206265206120636f6e7472616374000000005f82015250565b5f610786601c836106da565b915061079182610752565b602082019050919050565b5f6020820190508181035f8301526107b38161077a565b9050919050565b7f4469726563746f7279206164647265737320646f6573206e6f7420696d706c655f8201527f6d656e74206f776e657228290000000000000000000000000000000000000000602082015250565b5f610814602c836106da565b915061081f826107ba565b604082019050919050565b5f6020820190508181035f83015261084181610808565b9050919050565b60805160a05160c05160e0516101005161012051615aef6109375f395f8181610b1401528181611241015281816129230152612d5101525f8181610d3d0152612b8101525f8181610b5c01526124de01525f610c1301525f81816105a4015281816128d70152818161290101528181612d050152612d2f01525f8181610776015281816107c7015281816109e101528181610ab701528181610af001528181610dc70152818161144001528181611c8101528181611cb401528181611cf301528181611d2101528181612146015281816122cc015281816122ff0152818161233e015261236c0152615aef5ff3fe6080604052600436106100eb575f3560e01c80634f0e0ef3116100895780638da5cb5b116100585780638da5cb5b146102c2578063b4b57c39146102ec578063ba4c7be114610316578063deadbc141461033e576100f2565b80634f0e0ef31461021a5780635cf3904914610244578063658a847a1461026e5780637c887c5914610298576100f2565b806312261ee7116100c557806312261ee7146101705780631623306b1461019a57806327262618146101b65780633814bc6e146101f2576100f2565b80630362fe3a146100f657806309053ac4146101205780631052874d14610148576100f2565b366100f257005b5f5ffd5b348015610101575f5ffd5b5061010a610368565b6040516101179190613e33565b60405180910390f35b34801561012b575f5ffd5b5061014660048036038101906101419190613eb7565b61037d565b005b348015610153575f5ffd5b5061016e60048036038101906101699190613f1f565b610485565b005b34801561017b575f5ffd5b506101846105a2565b6040516101919190613fa5565b60405180910390f35b6101b460048036038101906101af919061401f565b6105c6565b005b3480156101c1575f5ffd5b506101dc60048036038101906101d791906141c8565b610819565b6040516101e9919061421e565b60405180910390f35b3480156101fd575f5ffd5b50610218600480360381019061021391906142fc565b6108b9565b005b348015610225575f5ffd5b5061022e610aee565b60405161023b919061421e565b60405180910390f35b34801561024f575f5ffd5b50610258610b12565b60405161026591906143a0565b60405180910390f35b348015610279575f5ffd5b50610282610b36565b60405161028f91906143d9565b60405180910390f35b3480156102a3575f5ffd5b506102ac610b5a565b6040516102b99190614412565b60405180910390f35b3480156102cd575f5ffd5b506102d6610b7e565b6040516102e3919061421e565b60405180910390f35b3480156102f7575f5ffd5b50610300610c11565b60405161030d919061444b565b60405180910390f35b348015610321575f5ffd5b5061033c60048036038101906103379190614464565b610c35565b005b348015610349575f5ffd5b50610352610d3b565b60405161035f91906144af565b60405180910390f35b60025f9054906101000a900463ffffffff1681565b5f5f9054906101000a900473ffffffffffffffffffffffffffffffffffffffff1673ffffffffffffffffffffffffffffffffffffffff16638da5cb5b6040518163ffffffff1660e01b8152600401602060405180830381865afa1580156103e6573d5f5f3e3d5ffd5b505050506040513d601f19601f8201168201806040525081019061040a91906144dc565b73ffffffffffffffffffffffffffffffffffffffff163373ffffffffffffffffffffffffffffffffffffffff1614610477576040517f08c379a000000000000000000000000000000000000000000000000000000000815260040161046e90614561565b60405180910390fd5b6104818282610d5f565b5050565b5f5f9054906101000a900473ffffffffffffffffffffffffffffffffffffffff1673ffffffffffffffffffffffffffffffffffffffff16638da5cb5b6040518163ffffffff1660e01b8152600401602060405180830381865afa1580156104ee573d5f5f3e3d5ffd5b505050506040513d601f19601f8201168201806040525081019061051291906144dc565b73ffffffffffffffffffffffffffffffffffffffff163373ffffffffffffffffffffffffffffffffffffffff161461057f576040517f08c379a000000000000000000000000000000000000000000000000000000000815260040161057690614561565b60405180910390fd5b8060025f6101000a81548163ffffffff021916908363ffffffff16021790555050565b7f000000000000000000000000000000000000000000000000000000000000000081565b6105ce610d6d565b5f73ffffffffffffffffffffffffffffffffffffffff168273ffffffffffffffffffffffffffffffffffffffff1603610633576040517fd92e233d00000000000000000000000000000000000000000000000000000000815260040160405180910390fd5b5f3490505f8585905003610673576040517fb4fa3fb300000000000000000000000000000000000000000000000000000000815260040160405180910390fd5b5f81036106ac576040517fb4fa3fb300000000000000000000000000000000000000000000000000000000815260040160405180910390fd5b60025f9054906101000a900463ffffffff1663ffffffff168263ffffffff161115610703576040517f334ee9a100000000000000000000000000000000000000000000000000000000815260040160405180910390fd5b5f6107118686868686610dbc565b90505f816080015190505f81148061072a575061271081115b15610761576040517f124955fb00000000000000000000000000000000000000000000000000000000815260040160405180910390fd5b5f826060015190505f81111561079c5761079b7f0000000000000000000000000000000000000000000000000000000000000000826110b8565b5b6107b2835f015184602001518560400151611153565b5f8360a0015190505f8111156107ee576107ed7f000000000000000000000000000000000000000000000000000000000000000088836112cc565b5b5f4790505f811115610805576108043382611315565b5b50505050505061081361142c565b50505050565b5f5f5f9054906101000a900473ffffffffffffffffffffffffffffffffffffffff1673ffffffffffffffffffffffffffffffffffffffff166327262618836040518263ffffffff1660e01b815260040161087391906145cf565b602060405180830381865afa15801561088e573d5f5f3e3d5ffd5b505050506040513d601f19601f820116820180604052508101906108b291906144dc565b9050919050565b6108c1610d6d565b5f73ffffffffffffffffffffffffffffffffffffffff168373ffffffffffffffffffffffffffffffffffffffff1603610926576040517fd92e233d00000000000000000000000000000000000000000000000000000000815260040160405180910390fd5b5f8585905003610962576040517fb4fa3fb300000000000000000000000000000000000000000000000000000000815260040160405180910390fd5b60025f9054906101000a900463ffffffff1663ffffffff168263ffffffff1611156109b9576040517f334ee9a100000000000000000000000000000000000000000000000000000000815260040160405180910390fd5b5f6109c686868585611435565b90506109de815f015182602001518360400151611153565b5f7f000000000000000000000000000000000000000000000000000000000000000073ffffffffffffffffffffffffffffffffffffffff166370a08231306040518263ffffffff1660e01b8152600401610a38919061421e565b602060405180830381865afa158015610a53573d5f5f3e3d5ffd5b505050506040513d601f19601f82011682018060405250810190610a779190614622565b90505f8103610ab2576040517fabff335a00000000000000000000000000000000000000000000000000000000815260040160405180910390fd5b610add7f000000000000000000000000000000000000000000000000000000000000000082876117c8565b5050610ae761142c565b5050505050565b7f000000000000000000000000000000000000000000000000000000000000000081565b7f000000000000000000000000000000000000000000000000000000000000000081565b5f5f9054906101000a900473ffffffffffffffffffffffffffffffffffffffff1681565b7f000000000000000000000000000000000000000000000000000000000000000081565b5f5f5f9054906101000a900473ffffffffffffffffffffffffffffffffffffffff1673ffffffffffffffffffffffffffffffffffffffff16638da5cb5b6040518163ffffffff1660e01b8152600401602060405180830381865afa158015610be8573d5f5f3e3d5ffd5b505050506040513d601f19601f82011682018060405250810190610c0c91906144dc565b905090565b7f000000000000000000000000000000000000000000000000000000000000000081565b5f5f9054906101000a900473ffffffffffffffffffffffffffffffffffffffff1673ffffffffffffffffffffffffffffffffffffffff16638da5cb5b6040518163ffffffff1660e01b8152600401602060405180830381865afa158015610c9e573d5f5f3e3d5ffd5b505050506040513d601f19601f82011682018060405250810190610cc291906144dc565b73ffffffffffffffffffffffffffffffffffffffff163373ffffffffffffffffffffffffffffffffffffffff1614610d2f576040517f08c379a0000000000000000000000000000000000000000000000000000000008152600401610d2690614561565b60405180910390fd5b610d38816118d3565b50565b7f000000000000000000000000000000000000000000000000000000000000000081565b610d698282611a84565b5050565b600260015403610db2576040517f08c379a0000000000000000000000000000000000000000000000000000000008152600401610da990614697565b60405180910390fd5b6002600181905550565b610dc4613dc3565b5f7f000000000000000000000000000000000000000000000000000000000000000090505f8787905090508067ffffffffffffffff811115610e0957610e086140a4565b5b604051908082528060200260200182016040528015610e3c57816020015b6060815260200190600190039081610e275790505b5083602001819052508067ffffffffffffffff811115610e5f57610e5e6140a4565b5b6040519080825280601f01601f191660200182016040528015610e915781602001600182028036833780820191505090505b50835f01819052505f5f90505b818110156110ac575f898983818110610eba57610eb96146b5565b5b9050604002015f016020810190610ed19190614464565b90505f73ffffffffffffffffffffffffffffffffffffffff168173ffffffffffffffffffffffffffffffffffffffff1603610f38576040517f7401d93100000000000000000000000000000000000000000000000000000000815260040160405180910390fd5b5f8a8a84818110610f4c57610f4b6146b5565b5b9050604002016020016020810190610f649190614719565b61ffff169050808660800181815101915081815250505f8103610f885750506110a1565b5f61271082890281610f9d57610f9c614744565b5b0490505f8103610faf575050506110a1565b808760600181815101915081815250508573ffffffffffffffffffffffffffffffffffffffff168373ffffffffffffffffffffffffffffffffffffffff160361100a57808760a00181815101915081815250505050506110a1565b5f5f61101885848e8e611b5b565b9150915081895f01518a6040015181518110611037576110366146b5565b5b60200101907effffffffffffffffffffffffffffffffffffffffffffffffffffffffffffff191690815f1a9053508089602001518a6040015181518110611081576110806146b5565b5b602002602001018190525088604001805160010190818152505050505050505b806001019050610e9e565b50505095945050505050565b804710156110f2576040517f6a12f10400000000000000000000000000000000000000000000000000000000815260040160405180910390fd5b8173ffffffffffffffffffffffffffffffffffffffff1663d0e30db0826040518263ffffffff1660e01b81526004015f604051808303818588803b158015611138575f5ffd5b505af115801561114a573d5f5f3e3d5ffd5b50505050505050565b5f810361118c576040517fabff335a00000000000000000000000000000000000000000000000000000000815260040160405180910390fd5b8082511461123c575f8167ffffffffffffffff8111156111af576111ae6140a4565b5b6040519080825280602002602001820160405280156111e257816020015b60608152602001906001900390816111cd5790505b5090505f5f90505b8281101561123657838181518110611205576112046146b5565b5b60200260200101518282815181106112205761121f6146b5565b5b60200260200101819052508060010190506111ea565b50809250505b8083527f000000000000000000000000000000000000000000000000000000000000000073ffffffffffffffffffffffffffffffffffffffff166324856bc384846040518363ffffffff1660e01b815260040161129a9291906148c6565b5f604051808303815f87803b1580156112b1575f5ffd5b505af11580156112c3573d5f5f3e3d5ffd5b50505050505050565b5f8103611305576040517f1f2a200500000000000000000000000000000000000000000000000000000000815260040160405180910390fd5b611310838383611d5f565b505050565b5f810361134e576040517f1f2a200500000000000000000000000000000000000000000000000000000000815260040160405180910390fd5b80471015611388576040517f6a12f10400000000000000000000000000000000000000000000000000000000815260040160405180910390fd5b5f8273ffffffffffffffffffffffffffffffffffffffff16826040516113ad90614928565b5f6040518083038185875af1925050503d805f81146113e7576040519150601f19603f3d011682016040523d82523d5f602084013e6113ec565b606091505b5050905080611427576040517fcef4eed700000000000000000000000000000000000000000000000000000000815260040160405180910390fd5b505050565b60018081905550565b61143d613df5565b5f7f000000000000000000000000000000000000000000000000000000000000000090505f8686905090508067ffffffffffffffff811115611482576114816140a4565b5b6040519080825280602002602001820160405280156114b557816020015b60608152602001906001900390816114a05790505b5083602001819052508067ffffffffffffffff8111156114d8576114d76140a4565b5b6040519080825280601f01601f19166020018201604052801561150a5781602001600182028036833780820191505090505b50835f01819052505f5f90505b818110156117bd575f888883818110611533576115326146b5565b5b9050604002015f01602081019061154a9190614464565b90505f8989848181106115605761155f6146b5565b5b9050604002016020013590505f810361157a5750506117b2565b5f73ffffffffffffffffffffffffffffffffffffffff168273ffffffffffffffffffffffffffffffffffffffff16036115df576040517f7401d93100000000000000000000000000000000000000000000000000000000815260040160405180910390fd5b5f8573ffffffffffffffffffffffffffffffffffffffff168373ffffffffffffffffffffffffffffffffffffffff161490505f88156116e6575f8473ffffffffffffffffffffffffffffffffffffffff166370a08231306040518263ffffffff1660e01b8152600401611652919061421e565b602060405180830381865afa15801561166d573d5f5f3e3d5ffd5b505050506040513d601f19601f820116820180604052508101906116919190614622565b9050838110156116cd576040517f06998f5b00000000000000000000000000000000000000000000000000000000815260040160405180910390fd5b82156116dd5750505050506117b2565b8391505061171a565b5f6116f2858533611eae565b905082156117045750505050506117b2565b8091505f82036117185750505050506117b2565b505b5f5f6117288684308f6120e9565b91509150818a5f01518b6040015181518110611747576117466146b5565b5b60200101907effffffffffffffffffffffffffffffffffffffffffffffffffffffffffffff191690815f1a905350808a602001518b6040015181518110611791576117906146b5565b5b60200260200101819052508960400180516001019081815250505050505050505b806001019050611517565b505050949350505050565b8273ffffffffffffffffffffffffffffffffffffffff16632e1a7d4d836040518263ffffffff1660e01b8152600401611801919061494b565b5f604051808303815f87803b158015611818575f5ffd5b505af115801561182a573d5f5f3e3d5ffd5b505050505f8173ffffffffffffffffffffffffffffffffffffffff168360405161185390614928565b5f6040518083038185875af1925050503d805f811461188d576040519150601f19603f3d011682016040523d82523d5f602084013e611892565b606091505b50509050806118cd576040517fb2f8aaaa00000000000000000000000000000000000000000000000000000000815260040160405180910390fd5b50505050565b5f73ffffffffffffffffffffffffffffffffffffffff168173ffffffffffffffffffffffffffffffffffffffff1603611941576040517f08c379a0000000000000000000000000000000000000000000000000000000008152600401611938906149ae565b60405180910390fd5b5f8173ffffffffffffffffffffffffffffffffffffffff163b1161199a576040517f08c379a000000000000000000000000000000000000000000000000000000000815260040161199190614a16565b60405180910390fd5b8073ffffffffffffffffffffffffffffffffffffffff16638da5cb5b6040518163ffffffff1660e01b8152600401602060405180830381865afa925050508015611a0257506040513d601f19601f820116820180604052508101906119ff91906144dc565b60015b611a41576040517f08c379a0000000000000000000000000000000000000000000000000000000008152600401611a3890614aa4565b60405180910390fd5b815f5f6101000a81548173ffffffffffffffffffffffffffffffffffffffff021916908373ffffffffffffffffffffffffffffffffffffffff1602179055505050565b5f73ffffffffffffffffffffffffffffffffffffffff168273ffffffffffffffffffffffffffffffffffffffff1603611ac657611ac18147611315565b611b57565b5f8273ffffffffffffffffffffffffffffffffffffffff166370a08231306040518263ffffffff1660e01b8152600401611b00919061421e565b602060405180830381865afa158015611b1b573d5f5f3e3d5ffd5b505050506040513d601f19601f82011682018060405250810190611b3f9190614622565b90505f811115611b5557611b54838383611d5f565b5b505b5050565b5f60605f8503611b81575f60f81b60405180602001604052805f81525091509150611d56565b5f611b8a6123a9565b73ffffffffffffffffffffffffffffffffffffffff1663d32563c8886040518263ffffffff1660e01b8152600401611bc2919061421e565b6080604051808303815f875af1158015611bde573d5f5f3e3d5ffd5b505050506040513d601f19601f82011682018060405250810190611c029190614be6565b90505f73ffffffffffffffffffffffffffffffffffffffff16815f015173ffffffffffffffffffffffffffffffffffffffff1603611c6c576040517f791c2fed00000000000000000000000000000000000000000000000000000000815260040160405180910390fd5b5f6001826040015160ff1603611cee57611cad7f00000000000000000000000000000000000000000000000000000000000000008984602001518a896123ed565b9050611ce17f00000000000000000000000000000000000000000000000000000000000000008984602001518a858b6128cf565b92505f60f81b9350611d53565b611d1a7f00000000000000000000000000000000000000000000000000000000000000008989886129a5565b9050611d497f00000000000000000000000000000000000000000000000000000000000000008989848a612cfd565b9250600860f81b93505b50505b94509492505050565b5f5f8473ffffffffffffffffffffffffffffffffffffffff1663a9059cbb60e01b8585604051602401611d93929190614c11565b604051602081830303815290604052907bffffffffffffffffffffffffffffffffffffffffffffffffffffffff19166020820180517bffffffffffffffffffffffffffffffffffffffffffffffffffffffff8381831617835250505050604051611dfd9190614c68565b5f604051808303815f865af19150503d805f8114611e36576040519150601f19603f3d011682016040523d82523d5f602084013e611e3b565b606091505b5091509150818015611e6857505f81511480611e67575080806020019051810190611e669190614c92565b5b5b611ea7576040517f08c379a0000000000000000000000000000000000000000000000000000000008152600401611e9e90614d07565b60405180910390fd5b5050505050565b5f5f8303611ee8576040517f1f2a200500000000000000000000000000000000000000000000000000000000815260040160405180910390fd5b5f8473ffffffffffffffffffffffffffffffffffffffff1663dd62ed3e84306040518363ffffffff1660e01b8152600401611f24929190614d25565b602060405180830381865afa158015611f3f573d5f5f3e3d5ffd5b505050506040513d601f19601f82011682018060405250810190611f639190614622565b905083811015611f9f576040517fbac9b5e800000000000000000000000000000000000000000000000000000000815260040160405180910390fd5b5f8573ffffffffffffffffffffffffffffffffffffffff166370a08231306040518263ffffffff1660e01b8152600401611fd9919061421e565b602060405180830381865afa158015611ff4573d5f5f3e3d5ffd5b505050506040513d601f19601f820116820180604052508101906120189190614622565b905061202686853088612e95565b5f8673ffffffffffffffffffffffffffffffffffffffff166370a08231306040518263ffffffff1660e01b8152600401612060919061421e565b602060405180830381865afa15801561207b573d5f5f3e3d5ffd5b505050506040513d601f19601f8201168201806040525081019061209f9190614622565b905081810393505f84036120df576040517fb5c74a2700000000000000000000000000000000000000000000000000000000815260040160405180910390fd5b5050509392505050565b5f60605f850361210f575f60f81b60405180602001604052805f815250915091506123a0565b5f73ffffffffffffffffffffffffffffffffffffffff168673ffffffffffffffffffffffffffffffffffffffff16148061219457507f000000000000000000000000000000000000000000000000000000000000000073ffffffffffffffffffffffffffffffffffffffff168673ffffffffffffffffffffffffffffffffffffffff16145b156121cb576040517f7401d93100000000000000000000000000000000000000000000000000000000815260040160405180910390fd5b5f6121d46123a9565b73ffffffffffffffffffffffffffffffffffffffff1663d32563c8886040518263ffffffff1660e01b815260040161220c919061421e565b6080604051808303815f875af1158015612228573d5f5f3e3d5ffd5b505050506040513d601f19601f8201168201806040525081019061224c9190614be6565b90505f73ffffffffffffffffffffffffffffffffffffffff16815f015173ffffffffffffffffffffffffffffffffffffffff16036122b6576040517f791c2fed00000000000000000000000000000000000000000000000000000000815260040160405180910390fd5b5f6001826040015160ff1603612338576122f7887f000000000000000000000000000000000000000000000000000000000000000084602001518a896123ed565b905061232b887f000000000000000000000000000000000000000000000000000000000000000084602001518a858b6128cf565b92505f60f81b935061239d565b612364887f000000000000000000000000000000000000000000000000000000000000000089886129a5565b9050612393887f000000000000000000000000000000000000000000000000000000000000000089848a612cfd565b9250600860f81b93505b50505b94509492505050565b5f6123e86040518060400160405280600b81526020017f706f6f6c2d66696e646572000000000000000000000000000000000000000000815250610819565b905090565b5f5f83036123fd575f90506128c6565b5f73ffffffffffffffffffffffffffffffffffffffff168673ffffffffffffffffffffffffffffffffffffffff16148061246257505f73ffffffffffffffffffffffffffffffffffffffff168573ffffffffffffffffffffffffffffffffffffffff16145b15612499576040517fd92e233d00000000000000000000000000000000000000000000000000000000815260040160405180910390fd5b6127108263ffffffff1611156124db576040517f124955fb00000000000000000000000000000000000000000000000000000000815260040160405180910390fd5b5f7f000000000000000000000000000000000000000000000000000000000000000073ffffffffffffffffffffffffffffffffffffffff16631698ee828888886040518463ffffffff1660e01b815260040161253993929190614d5b565b602060405180830381865afa158015612554573d5f5f3e3d5ffd5b505050506040513d601f19601f8201168201806040525081019061257891906144dc565b90505f73ffffffffffffffffffffffffffffffffffffffff168173ffffffffffffffffffffffffffffffffffffffff16036125df576040517f791c2fed00000000000000000000000000000000000000000000000000000000815260040160405180910390fd5b5f620f42408662ffffff16620f42406125f89190614dbd565b866126039190614df0565b61260d9190614e31565b90505f8103612648576040517f6eed12ff00000000000000000000000000000000000000000000000000000000815260040160405180910390fd5b5f6fffffffffffffffffffffffffffffffff80168211612668578161267a565b6fffffffffffffffffffffffffffffffff5b90505f600f90505f5f600267ffffffffffffffff81111561269e5761269d6140a4565b5b6040519080825280602002602001820160405280156126cc5781602001602082028036833780820191505090505b50905082815f815181106126e3576126e26146b5565b5b602002602001019063ffffffff16908163ffffffff16815250505f81600181518110612712576127116146b5565b5b602002602001019063ffffffff16908163ffffffff16815250508573ffffffffffffffffffffffffffffffffffffffff1663883bdbfd826040518263ffffffff1660e01b81526004016127659190614f18565b5f60405180830381865afa9250505080156127a257506040513d5f823e3d601f19601f8201168201806040525081019061279f9190615118565b60015b612825575f8673ffffffffffffffffffffffffffffffffffffffff16633850c7bd6040518163ffffffff1660e01b815260040160e060405180830381865afa1580156127f0573d5f5f3e3d5ffd5b505050506040513d601f19601f8201168201806040525081019061281491906151d8565b50505050509150508092505061286a565b612865825f8151811061283b5761283a6146b5565b5b602002602001015183600181518110612857576128566146b5565b5b602002602001015187612fe7565b935050505b505f61287882858e8e613006565b90505f81036128b3576040517f6eed12ff00000000000000000000000000000000000000000000000000000000815260040160405180910390fd5b6128bd818961320f565b96505050505050505b95945050505050565b60606128fc877f000000000000000000000000000000000000000000000000000000000000000086613286565b6129487f0000000000000000000000000000000000000000000000000000000000000000887f000000000000000000000000000000000000000000000000000000000000000087613350565b5f87868860405160200161295e939291906152ee565b6040516020818303038152906040529050828585836001604051602001612989959493929190615339565b6040516020818303038152906040529150509695505050505050565b5f5f83036129b5575f9050612cf5565b5f73ffffffffffffffffffffffffffffffffffffffff168573ffffffffffffffffffffffffffffffffffffffff161480612a1a57505f73ffffffffffffffffffffffffffffffffffffffff168473ffffffffffffffffffffffffffffffffffffffff16145b15612a51576040517fd92e233d00000000000000000000000000000000000000000000000000000000815260040160405180910390fd5b6127108263ffffffff161115612a93576040517f124955fb00000000000000000000000000000000000000000000000000000000815260040160405180910390fd5b5f600267ffffffffffffffff811115612aaf57612aae6140a4565b5b604051908082528060200260200182016040528015612add5781602001602082028036833780820191505090505b50905085815f81518110612af457612af36146b5565b5b602002602001019073ffffffffffffffffffffffffffffffffffffffff16908173ffffffffffffffffffffffffffffffffffffffff16815250508481600181518110612b4357612b426146b5565b5b602002602001019073ffffffffffffffffffffffffffffffffffffffff16908173ffffffffffffffffffffffffffffffffffffffff168152505060607f000000000000000000000000000000000000000000000000000000000000000073ffffffffffffffffffffffffffffffffffffffff1663d06ca61f86846040518363ffffffff1660e01b8152600401612bda929190615448565b5f60405180830381865afa925050508015612c1757506040513d5f823e3d601f19601f82011682018060405250810190612c149190615536565b60015b612c4d576040517f6eed12ff00000000000000000000000000000000000000000000000000000000815260040160405180910390fd5b80915050600281511015612c8d576040517f6eed12ff00000000000000000000000000000000000000000000000000000000815260040160405180910390fd5b5f81600181518110612ca257612ca16146b5565b5b602002602001015190505f8103612ce5576040517f6eed12ff00000000000000000000000000000000000000000000000000000000815260040160405180910390fd5b612cef818661320f565b93505050505b949350505050565b6060612d2a867f000000000000000000000000000000000000000000000000000000000000000086613286565b612d767f0000000000000000000000000000000000000000000000000000000000000000877f000000000000000000000000000000000000000000000000000000000000000087613350565b5f600267ffffffffffffffff811115612d9257612d916140a4565b5b604051908082528060200260200182016040528015612dc05781602001602082028036833780820191505090505b50905086815f81518110612dd757612dd66146b5565b5b602002602001019073ffffffffffffffffffffffffffffffffffffffff16908173ffffffffffffffffffffffffffffffffffffffff16815250508581600181518110612e2657612e256146b5565b5b602002602001019073ffffffffffffffffffffffffffffffffffffffff16908173ffffffffffffffffffffffffffffffffffffffff1681525050828585836001604051602001612e7a95949392919061557d565b60405160208183030381529060405291505095945050505050565b5f5f8573ffffffffffffffffffffffffffffffffffffffff166323b872dd60e01b868686604051602401612ecb939291906155d5565b604051602081830303815290604052907bffffffffffffffffffffffffffffffffffffffffffffffffffffffff19166020820180517bffffffffffffffffffffffffffffffffffffffffffffffffffffffff8381831617835250505050604051612f359190614c68565b5f604051808303815f865af19150503d805f8114612f6e576040519150601f19603f3d011682016040523d82523d5f602084013e612f73565b606091505b5091509150818015612fa057505f81511480612f9f575080806020019051810190612f9e9190614c92565b5b5b612fdf576040517f08c379a0000000000000000000000000000000000000000000000000000000008152600401612fd690615654565b60405180910390fd5b505050505050565b5f612ffd8484612ff79190615672565b83613565565b90509392505050565b5f5f61301186613600565b90506fffffffffffffffffffffffffffffffff80168173ffffffffffffffffffffffffffffffffffffffff161161312a575f8173ffffffffffffffffffffffffffffffffffffffff168273ffffffffffffffffffffffffffffffffffffffff1661307b9190614df0565b90508373ffffffffffffffffffffffffffffffffffffffff168573ffffffffffffffffffffffffffffffffffffffff16106130eb576130e67801000000000000000000000000000000000000000000000000876fffffffffffffffffffffffffffffffff1683613ab4565b613122565b61312181876fffffffffffffffffffffffffffffffff167801000000000000000000000000000000000000000000000000613ab4565b5b925050613206565b5f61316b8273ffffffffffffffffffffffffffffffffffffffff168373ffffffffffffffffffffffffffffffffffffffff1668010000000000000000613ab4565b90508373ffffffffffffffffffffffffffffffffffffffff168573ffffffffffffffffffffffffffffffffffffffff16106131d3576131ce700100000000000000000000000000000000876fffffffffffffffffffffffffffffffff1683613ab4565b613202565b61320181876fffffffffffffffffffffffffffffffff16700100000000000000000000000000000000613ab4565b5b9250505b50949350505050565b5f6127108263ffffffff161115613252576040517f124955fb00000000000000000000000000000000000000000000000000000000815260040160405180910390fd5b6127108263ffffffff166127106132699190614dbd565b846132749190614df0565b61327e9190614e31565b905092915050565b5f8373ffffffffffffffffffffffffffffffffffffffff1663dd62ed3e30856040518363ffffffff1660e01b81526004016132c2929190614d25565b602060405180830381865afa1580156132dd573d5f5f3e3d5ffd5b505050506040513d601f19601f820116820180604052508101906133019190614622565b90508181101561334a575f811461331e5761331d84845f613c74565b5b61334984847fffffffffffffffffffffffffffffffffffffffffffffffffffffffffffffffff613c74565b5b50505050565b5f73ffffffffffffffffffffffffffffffffffffffff168373ffffffffffffffffffffffffffffffffffffffff1614806133b557505f73ffffffffffffffffffffffffffffffffffffffff168273ffffffffffffffffffffffffffffffffffffffff16145b156133ec576040517f7401d93100000000000000000000000000000000000000000000000000000000815260040160405180910390fd5b5f5f8573ffffffffffffffffffffffffffffffffffffffff1663927da1053087876040518463ffffffff1660e01b815260040161342b939291906156d0565b606060405180830381865afa158015613446573d5f5f3e3d5ffd5b505050506040513d601f19601f8201168201806040525081019061346a9190615740565b50915091505f8373ffffffffffffffffffffffffffffffffffffffff168373ffffffffffffffffffffffffffffffffffffffff16101590505f5f8365ffffffffffff16141580156134c35750428365ffffffffffff1611155b90508115806134cf5750805b1561355b578773ffffffffffffffffffffffffffffffffffffffff166387517c45888873ffffffffffffffffffffffffffffffffffffffff65ffffffffffff6040518563ffffffff1660e01b815260040161352d94939291906157ae565b5f604051808303815f87803b158015613544575f5ffd5b505af1158015613556573d5f5f3e3d5ffd5b505050505b5050505050505050565b5f5f8263ffffffff16036135ae576040517f08c379a00000000000000000000000000000000000000000000000000000000081526004016135a59061583b565b60405180910390fd5b5f8260030b90505f81856135c29190615859565b90505f82866135d191906158c1565b90508193505f8660060b1280156135eb57505f8160060b14155b156135f7576001840393505b50505092915050565b5f5f5f8360020b12613615578260020b613623565b8260020b613622906158fa565b5b90507ffffffffffffffffffffffffffffffffffffffffffffffffffffffffffff2761861364f90615940565b62ffffff16811115613696576040517f08c379a000000000000000000000000000000000000000000000000000000000815260040161368d906159d0565b60405180910390fd5b5f5f60018316036136b8577001000000000000000000000000000000006136ca565b6ffffcb933bd6fad37aa2d162d1a5940015b70ffffffffffffffffffffffffffffffffff1690505f600283161461370c5760806ffff97272373d413259a46990580e213a826137079190614df0565b901c90505b5f60048316146137395760806ffff2e50f5f656932ef12357cf3c7fdcc826137349190614df0565b901c90505b5f60088316146137665760806fffe5caca7e10e4e61c3624eaa0941cd0826137619190614df0565b901c90505b5f60108316146137935760806fffcb9843d60f6159c9db58835c9266448261378e9190614df0565b901c90505b5f60208316146137c05760806fff973b41fa98c081472e6896dfb254c0826137bb9190614df0565b901c90505b5f60408316146137ed5760806fff2ea16466c96a3843ec78b326b52861826137e89190614df0565b901c90505b5f608083161461381a5760806ffe5dee046a99a2a811c461f1969c3053826138159190614df0565b901c90505b5f6101008316146138485760806ffcbe86c7900a88aedcffc83b479aa3a4826138439190614df0565b901c90505b5f6102008316146138765760806ff987a7253ac413176f2b074cf7815e54826138719190614df0565b901c90505b5f6104008316146138a45760806ff3392b0822b70005940c7a398e4b70f38261389f9190614df0565b901c90505b5f6108008316146138d25760806fe7159475a2c29b7443b29c7fa6e889d9826138cd9190614df0565b901c90505b5f6110008316146139005760806fd097f3bdfd2022b8845ad8f792aa5825826138fb9190614df0565b901c90505b5f61200083161461392e5760806fa9f746462d870fdf8a65dc1f90e061e5826139299190614df0565b901c90505b5f61400083161461395c5760806f70d869a156d2a1b890bb3df62baf32f7826139579190614df0565b901c90505b5f61800083161461398a5760806f31be135f97d08fd981231505542fcfa6826139859190614df0565b901c90505b5f620100008316146139b95760806f09aa508b5b7a84e1c677de54f3e99bc9826139b49190614df0565b901c90505b5f620200008316146139e75760806e5d6af8dedb81196699c329225ee604826139e29190614df0565b901c90505b5f62040000831614613a145760806d2216e584f5fa1ea926041bedfe9882613a0f9190614df0565b901c90505b5f62080000831614613a3f5760806b048a170391f7dc42444e8fa282613a3a9190614df0565b901c90505b5f8460020b1315613a7957807fffffffffffffffffffffffffffffffffffffffffffffffffffffffffffffffff613a769190614e31565b90505b5f64010000000082613a8b91906159ee565b14613a97576001613a99565b5f5b60ff16602082901c613aab9190615a1e565b92505050919050565b5f5f5f5f198587098587029250828110838203039150505f8103613ae9575f8411613add575f5ffd5b83820492505050613c6d565b808411613af4575f5ffd5b5f8486880990508281118203915080830392505f6001867fffffffffffffffffffffffffffffffffffffffffffffffffffffffffffffffff613b369190614dbd565b613b409190615a1e565b8616905080860495508084049350600181825f03040190508083613b649190614df0565b841793505f6002876003613b789190614df0565b1890508087613b879190614df0565b6002613b939190614dbd565b81613b9e9190614df0565b90508087613bac9190614df0565b6002613bb89190614dbd565b81613bc39190614df0565b90508087613bd19190614df0565b6002613bdd9190614dbd565b81613be89190614df0565b90508087613bf69190614df0565b6002613c029190614dbd565b81613c0d9190614df0565b90508087613c1b9190614df0565b6002613c279190614dbd565b81613c329190614df0565b90508087613c409190614df0565b6002613c4c9190614dbd565b81613c579190614df0565b90508085613c659190614df0565b955050505050505b9392505050565b5f5f8473ffffffffffffffffffffffffffffffffffffffff1663095ea7b360e01b8585604051602401613ca8929190614c11565b604051602081830303815290604052907bffffffffffffffffffffffffffffffffffffffffffffffffffffffff19166020820180517bffffffffffffffffffffffffffffffffffffffffffffffffffffffff8381831617835250505050604051613d129190614c68565b5f604051808303815f865af19150503d805f8114613d4b576040519150601f19603f3d011682016040523d82523d5f602084013e613d50565b606091505b5091509150818015613d7d57505f81511480613d7c575080806020019051810190613d7b9190614c92565b5b5b613dbc576040517f08c379a0000000000000000000000000000000000000000000000000000000008152600401613db390615a9b565b60405180910390fd5b5050505050565b6040518060c0016040528060608152602001606081526020015f81526020015f81526020015f81526020015f81525090565b604051806060016040528060608152602001606081526020015f81525090565b5f63ffffffff82169050919050565b613e2d81613e15565b82525050565b5f602082019050613e465f830184613e24565b92915050565b5f604051905090565b5f5ffd5b5f5ffd5b5f73ffffffffffffffffffffffffffffffffffffffff82169050919050565b5f613e8682613e5d565b9050919050565b613e9681613e7c565b8114613ea0575f5ffd5b50565b5f81359050613eb181613e8d565b92915050565b5f5f60408385031215613ecd57613ecc613e55565b5b5f613eda85828601613ea3565b9250506020613eeb85828601613ea3565b9150509250929050565b613efe81613e15565b8114613f08575f5ffd5b50565b5f81359050613f1981613ef5565b92915050565b5f60208284031215613f3457613f33613e55565b5b5f613f4184828501613f0b565b91505092915050565b5f819050919050565b5f613f6d613f68613f6384613e5d565b613f4a565b613e5d565b9050919050565b5f613f7e82613f53565b9050919050565b5f613f8f82613f74565b9050919050565b613f9f81613f85565b82525050565b5f602082019050613fb85f830184613f96565b92915050565b5f5ffd5b5f5ffd5b5f5ffd5b5f5f83601f840112613fdf57613fde613fbe565b5b8235905067ffffffffffffffff811115613ffc57613ffb613fc2565b5b60208301915083604082028301111561401857614017613fc6565b5b9250929050565b5f5f5f5f6060858703121561403757614036613e55565b5b5f85013567ffffffffffffffff81111561405457614053613e59565b5b61406087828801613fca565b9450945050602061407387828801613ea3565b925050604061408487828801613f0b565b91505092959194509250565b5f5ffd5b5f601f19601f8301169050919050565b7f4e487b71000000000000000000000000000000000000000000000000000000005f52604160045260245ffd5b6140da82614094565b810181811067ffffffffffffffff821117156140f9576140f86140a4565b5b80604052505050565b5f61410b613e4c565b905061411782826140d1565b919050565b5f67ffffffffffffffff821115614136576141356140a4565b5b61413f82614094565b9050602081019050919050565b828183375f83830152505050565b5f61416c6141678461411c565b614102565b90508281526020810184848401111561418857614187614090565b5b61419384828561414c565b509392505050565b5f82601f8301126141af576141ae613fbe565b5b81356141bf84826020860161415a565b91505092915050565b5f602082840312156141dd576141dc613e55565b5b5f82013567ffffffffffffffff8111156141fa576141f9613e59565b5b6142068482850161419b565b91505092915050565b61421881613e7c565b82525050565b5f6020820190506142315f83018461420f565b92915050565b5f5f83601f84011261424c5761424b613fbe565b5b8235905067ffffffffffffffff81111561426957614268613fc2565b5b60208301915083604082028301111561428557614284613fc6565b5b9250929050565b5f61429682613e5d565b9050919050565b6142a68161428c565b81146142b0575f5ffd5b50565b5f813590506142c18161429d565b92915050565b5f8115159050919050565b6142db816142c7565b81146142e5575f5ffd5b50565b5f813590506142f6816142d2565b92915050565b5f5f5f5f5f6080868803121561431557614314613e55565b5b5f86013567ffffffffffffffff81111561433257614331613e59565b5b61433e88828901614237565b95509550506020614351888289016142b3565b935050604061436288828901613f0b565b9250506060614373888289016142e8565b9150509295509295909350565b5f61438a82613f74565b9050919050565b61439a81614380565b82525050565b5f6020820190506143b35f830184614391565b92915050565b5f6143c382613f74565b9050919050565b6143d3816143b9565b82525050565b5f6020820190506143ec5f8301846143ca565b92915050565b5f6143fc82613f74565b9050919050565b61440c816143f2565b82525050565b5f6020820190506144255f830184614403565b92915050565b5f61443582613f74565b9050919050565b6144458161442b565b82525050565b5f60208201905061445e5f83018461443c565b92915050565b5f6020828403121561447957614478613e55565b5b5f61448684828501613ea3565b91505092915050565b5f61449982613f74565b9050919050565b6144a98161448f565b82525050565b5f6020820190506144c25f8301846144a0565b92915050565b5f815190506144d681613e8d565b92915050565b5f602082840312156144f1576144f0613e55565b5b5f6144fe848285016144c8565b91505092915050565b5f82825260208201905092915050565b7f43616c6c6572206973206e6f7420746865206f776e65720000000000000000005f82015250565b5f61454b601783614507565b915061455682614517565b602082019050919050565b5f6020820190508181035f8301526145788161453f565b9050919050565b5f81519050919050565b8281835e5f83830152505050565b5f6145a18261457f565b6145ab8185614507565b93506145bb818560208601614589565b6145c481614094565b840191505092915050565b5f6020820190508181035f8301526145e78184614597565b905092915050565b5f819050919050565b614601816145ef565b811461460b575f5ffd5b50565b5f8151905061461c816145f8565b92915050565b5f6020828403121561463757614636613e55565b5b5f6146448482850161460e565b91505092915050565b7f5265656e7472616e637947756172643a207265656e7472616e742063616c6c005f82015250565b5f614681601f83614507565b915061468c8261464d565b602082019050919050565b5f6020820190508181035f8301526146ae81614675565b9050919050565b7f4e487b71000000000000000000000000000000000000000000000000000000005f52603260045260245ffd5b5f61ffff82169050919050565b6146f8816146e2565b8114614702575f5ffd5b50565b5f81359050614713816146ef565b92915050565b5f6020828403121561472e5761472d613e55565b5b5f61473b84828501614705565b91505092915050565b7f4e487b71000000000000000000000000000000000000000000000000000000005f52601260045260245ffd5b5f81519050919050565b5f82825260208201905092915050565b5f61479582614771565b61479f818561477b565b93506147af818560208601614589565b6147b881614094565b840191505092915050565b5f81519050919050565b5f82825260208201905092915050565b5f819050602082019050919050565b5f82825260208201905092915050565b5f61480682614771565b61481081856147ec565b9350614820818560208601614589565b61482981614094565b840191505092915050565b5f61483f83836147fc565b905092915050565b5f602082019050919050565b5f61485d826147c3565b61486781856147cd565b935083602082028501614879856147dd565b805f5b858110156148b457848403895281516148958582614834565b94506148a083614847565b925060208a0199505060018101905061487c565b50829750879550505050505092915050565b5f6040820190508181035f8301526148de818561478b565b905081810360208301526148f28184614853565b90509392505050565b5f81905092915050565b50565b5f6149135f836148fb565b915061491e82614905565b5f82019050919050565b5f61493282614908565b9150819050919050565b614945816145ef565b82525050565b5f60208201905061495e5f83018461493c565b92915050565b7f4469726563746f72792063616e6e6f74206265207a65726f20616464726573735f82015250565b5f614998602083614507565b91506149a382614964565b602082019050919050565b5f6020820190508181035f8301526149c58161498c565b9050919050565b7f4469726563746f7279206d757374206265206120636f6e7472616374000000005f82015250565b5f614a00601c83614507565b9150614a0b826149cc565b602082019050919050565b5f6020820190508181035f830152614a2d816149f4565b9050919050565b7f4469726563746f7279206164647265737320646f6573206e6f7420696d706c655f8201527f6d656e74206f776e657228290000000000000000000000000000000000000000602082015250565b5f614a8e602c83614507565b9150614a9982614a34565b604082019050919050565b5f6020820190508181035f830152614abb81614a82565b9050919050565b5f5ffd5b5f62ffffff82169050919050565b614add81614ac6565b8114614ae7575f5ffd5b50565b5f81519050614af881614ad4565b92915050565b5f60ff82169050919050565b614b1381614afe565b8114614b1d575f5ffd5b50565b5f81519050614b2e81614b0a565b92915050565b5f67ffffffffffffffff82169050919050565b614b5081614b34565b8114614b5a575f5ffd5b50565b5f81519050614b6b81614b47565b92915050565b5f60808284031215614b8657614b85614ac2565b5b614b906080614102565b90505f614b9f848285016144c8565b5f830152506020614bb284828501614aea565b6020830152506040614bc684828501614b20565b6040830152506060614bda84828501614b5d565b60608301525092915050565b5f60808284031215614bfb57614bfa613e55565b5b5f614c0884828501614b71565b91505092915050565b5f604082019050614c245f83018561420f565b614c31602083018461493c565b9392505050565b5f614c4282614771565b614c4c81856148fb565b9350614c5c818560208601614589565b80840191505092915050565b5f614c738284614c38565b915081905092915050565b5f81519050614c8c816142d2565b92915050565b5f60208284031215614ca757614ca6613e55565b5b5f614cb484828501614c7e565b91505092915050565b7f5452414e534645525f4641494c454400000000000000000000000000000000005f82015250565b5f614cf1600f83614507565b9150614cfc82614cbd565b602082019050919050565b5f6020820190508181035f830152614d1e81614ce5565b9050919050565b5f604082019050614d385f83018561420f565b614d45602083018461420f565b9392505050565b614d5581614ac6565b82525050565b5f606082019050614d6e5f83018661420f565b614d7b602083018561420f565b614d886040830184614d4c565b949350505050565b7f4e487b71000000000000000000000000000000000000000000000000000000005f52601160045260245ffd5b5f614dc7826145ef565b9150614dd2836145ef565b9250828203905081811115614dea57614de9614d90565b5b92915050565b5f614dfa826145ef565b9150614e05836145ef565b9250828202614e13816145ef565b91508282048414831517614e2a57614e29614d90565b5b5092915050565b5f614e3b826145ef565b9150614e46836145ef565b925082614e5657614e55614744565b5b828204905092915050565b5f81519050919050565b5f82825260208201905092915050565b5f819050602082019050919050565b614e9381613e15565b82525050565b5f614ea48383614e8a565b60208301905092915050565b5f602082019050919050565b5f614ec682614e61565b614ed08185614e6b565b9350614edb83614e7b565b805f5b83811015614f0b578151614ef28882614e99565b9750614efd83614eb0565b925050600181019050614ede565b5085935050505092915050565b5f6020820190508181035f830152614f308184614ebc565b905092915050565b5f67ffffffffffffffff821115614f5257614f516140a4565b5b602082029050602081019050919050565b5f8160060b9050919050565b614f7881614f63565b8114614f82575f5ffd5b50565b5f81519050614f9381614f6f565b92915050565b5f614fab614fa684614f38565b614102565b90508083825260208201905060208402830185811115614fce57614fcd613fc6565b5b835b81811015614ff75780614fe38882614f85565b845260208401935050602081019050614fd0565b5050509392505050565b5f82601f83011261501557615014613fbe565b5b8151615025848260208601614f99565b91505092915050565b5f67ffffffffffffffff821115615048576150476140a4565b5b602082029050602081019050919050565b61506281613e5d565b811461506c575f5ffd5b50565b5f8151905061507d81615059565b92915050565b5f6150956150908461502e565b614102565b905080838252602082019050602084028301858111156150b8576150b7613fc6565b5b835b818110156150e157806150cd888261506f565b8452602084019350506020810190506150ba565b5050509392505050565b5f82601f8301126150ff576150fe613fbe565b5b815161510f848260208601615083565b91505092915050565b5f5f6040838503121561512e5761512d613e55565b5b5f83015167ffffffffffffffff81111561514b5761514a613e59565b5b61515785828601615001565b925050602083015167ffffffffffffffff81111561517857615177613e59565b5b615184858286016150eb565b9150509250929050565b5f8160020b9050919050565b6151a38161518e565b81146151ad575f5ffd5b50565b5f815190506151be8161519a565b92915050565b5f815190506151d2816146ef565b92915050565b5f5f5f5f5f5f5f60e0888a0312156151f3576151f2613e55565b5b5f6152008a828b0161506f565b97505060206152118a828b016151b0565b96505060406152228a828b016151c4565b95505060606152338a828b016151c4565b94505060806152448a828b016151c4565b93505060a06152558a828b01614b20565b92505060c06152668a828b01614c7e565b91505092959891949750929550565b5f8160601b9050919050565b5f61528b82615275565b9050919050565b5f61529c82615281565b9050919050565b6152b46152af82613e7c565b615292565b82525050565b5f8160e81b9050919050565b5f6152d0826152ba565b9050919050565b6152e86152e382614ac6565b6152c6565b82525050565b5f6152f982866152a3565b60148201915061530982856152d7565b60038201915061531982846152a3565b601482019150819050949350505050565b615333816142c7565b82525050565b5f60a08201905061534c5f83018861420f565b615359602083018761493c565b615366604083018661493c565b8181036060830152615378818561478b565b9050615387608083018461532a565b9695505050505050565b5f81519050919050565b5f82825260208201905092915050565b5f819050602082019050919050565b6153c381613e7c565b82525050565b5f6153d483836153ba565b60208301905092915050565b5f602082019050919050565b5f6153f682615391565b615400818561539b565b935061540b836153ab565b805f5b8381101561543b57815161542288826153c9565b975061542d836153e0565b92505060018101905061540e565b5085935050505092915050565b5f60408201905061545b5f83018561493c565b818103602083015261546d81846153ec565b90509392505050565b5f67ffffffffffffffff8211156154905761548f6140a4565b5b602082029050602081019050919050565b5f6154b36154ae84615476565b614102565b905080838252602082019050602084028301858111156154d6576154d5613fc6565b5b835b818110156154ff57806154eb888261460e565b8452602084019350506020810190506154d8565b5050509392505050565b5f82601f83011261551d5761551c613fbe565b5b815161552d8482602086016154a1565b91505092915050565b5f6020828403121561554b5761554a613e55565b5b5f82015167ffffffffffffffff81111561556857615567613e59565b5b61557484828501615509565b91505092915050565b5f60a0820190506155905f83018861420f565b61559d602083018761493c565b6155aa604083018661493c565b81810360608301526155bc81856153ec565b90506155cb608083018461532a565b9695505050505050565b5f6060820190506155e85f83018661420f565b6155f5602083018561420f565b615602604083018461493c565b949350505050565b7f5452414e534645525f46524f4d5f4641494c45440000000000000000000000005f82015250565b5f61563e601483614507565b91506156498261560a565b602082019050919050565b5f6020820190508181035f83015261566b81615632565b9050919050565b5f61567c82614f63565b915061568783614f63565b92508282039050667fffffffffffff81137fffffffffffffffffffffffffffffffffffffffffffffffffff80000000000000821217156156ca576156c9614d90565b5b92915050565b5f6060820190506156e35f83018661420f565b6156f0602083018561420f565b6156fd604083018461420f565b949350505050565b5f65ffffffffffff82169050919050565b61571f81615705565b8114615729575f5ffd5b50565b5f8151905061573a81615716565b92915050565b5f5f5f6060848603121561575757615756613e55565b5b5f6157648682870161506f565b93505060206157758682870161572c565b92505060406157868682870161572c565b9150509250925092565b61579981613e5d565b82525050565b6157a881615705565b82525050565b5f6080820190506157c15f83018761420f565b6157ce602083018661420f565b6157db6040830185615790565b6157e8606083018461579f565b95945050505050565b7f42500000000000000000000000000000000000000000000000000000000000005f82015250565b5f615825600283614507565b9150615830826157f1565b602082019050919050565b5f6020820190508181035f83015261585281615819565b9050919050565b5f61586382614f63565b915061586e83614f63565b92508261587e5761587d614744565b5b60015f0383147fffffffffffffffffffffffffffffffffffffffffffffffffff80000000000000831416156158b6576158b5614d90565b5b828205905092915050565b5f6158cb82614f63565b91506158d683614f63565b9250826158e6576158e5614744565b5b828207905092915050565b5f819050919050565b5f615904826158f1565b91507f8000000000000000000000000000000000000000000000000000000000000000820361593657615935614d90565b5b815f039050919050565b5f61594a8261518e565b91507fffffffffffffffffffffffffffffffffffffffffffffffffffffffffff800000820361597c5761597b614d90565b5b815f039050919050565b7f54000000000000000000000000000000000000000000000000000000000000005f82015250565b5f6159ba600183614507565b91506159c582615986565b602082019050919050565b5f6020820190508181035f8301526159e7816159ae565b9050919050565b5f6159f8826145ef565b9150615a03836145ef565b925082615a1357615a12614744565b5b828206905092915050565b5f615a28826145ef565b9150615a33836145ef565b9250828201905080821115615a4b57615a4a614d90565b5b92915050565b7f415050524f56455f4641494c45440000000000000000000000000000000000005f82015250565b5f615a85600e83614507565b9150615a9082615a51565b602082019050919050565b5f6020820190508181035f830152615ab281615a79565b905091905056fea2646970667358221220a5a9a80df40b2089f8ddd45fbb710a93149a51325d36056cfa4425c93a1d317664736f6c634300081e0033",
			"opcodes": "PUSH2 0x140 PUSH1 0x40 MSTORE PUSH2 0x12C PUSH1 0x2 PUSH0 PUSH2 0x100 EXP DUP2 SLOAD DUP2 PUSH4 0xFFFFFFFF MUL NOT AND SWAP1 DUP4 PUSH4 0xFFFFFFFF AND MUL OR SWAP1 SSTORE POP CALLVALUE DUP1 ISZERO PUSH2 0x32 JUMPI PUSH0 PUSH0 REVERT JUMPDEST POP PUSH1 0x40 MLOAD PUSH2 0x6426 CODESIZE SUB DUP1 PUSH2 0x6426 DUP4 CODECOPY DUP2 DUP2 ADD PUSH1 0x40 MSTORE DUP2 ADD SWAP1 PUSH2 0x54 SWAP2 SWAP1 PUSH2 0x638 JUMP JUMPDEST DUP5 DUP5 DUP5 DUP5 DUP5 PUSH0 PUSH20 0xFFFFFFFFFFFFFFFFFFFFFFFFFFFFFFFFFFFFFFFF AND DUP4 PUSH20 0xFFFFFFFFFFFFFFFFFFFFFFFFFFFFFFFFFFFFFFFF AND SUB PUSH2 0xBE JUMPI PUSH1 0x40 MLOAD PUSH32 0xD92E233D00000000000000000000000000000000000000000000000000000000 DUP2 MSTORE PUSH1 0x4 ADD PUSH1 0x40 MLOAD DUP1 SWAP2 SUB SWAP1 REVERT JUMPDEST PUSH0 PUSH20 0xFFFFFFFFFFFFFFFFFFFFFFFFFFFFFFFFFFFFFFFF AND DUP5 PUSH20 0xFFFFFFFFFFFFFFFFFFFFFFFFFFFFFFFFFFFFFFFF AND SUB PUSH2 0x123 JUMPI PUSH1 0x40 MLOAD PUSH32 0xD92E233D00000000000000000000000000000000000000000000000000000000 DUP2 MSTORE PUSH1 0x4 ADD PUSH1 0x40 MLOAD DUP1 SWAP2 SUB SWAP1 REVERT JUMPDEST PUSH0 PUSH20 0xFFFFFFFFFFFFFFFFFFFFFFFFFFFFFFFFFFFFFFFF AND DUP3 PUSH20 0xFFFFFFFFFFFFFFFFFFFFFFFFFFFFFFFFFFFFFFFF AND SUB PUSH2 0x188 JUMPI PUSH1 0x40 MLOAD PUSH32 0xD92E233D00000000000000000000000000000000000000000000000000000000 DUP2 MSTORE PUSH1 0x4 ADD PUSH1 0x40 MLOAD DUP1 SWAP2 SUB SWAP1 REVERT JUMPDEST PUSH0 PUSH20 0xFFFFFFFFFFFFFFFFFFFFFFFFFFFFFFFFFFFFFFFF AND DUP2 PUSH20 0xFFFFFFFFFFFFFFFFFFFFFFFFFFFFFFFFFFFFFFFF AND SUB PUSH2 0x1ED JUMPI PUSH1 0x40 MLOAD PUSH32 0xD92E233D00000000000000000000000000000000000000000000000000000000 DUP2 MSTORE PUSH1 0x4 ADD PUSH1 0x40 MLOAD DUP1 SWAP2 SUB SWAP1 REVERT JUMPDEST DUP3 PUSH20 0xFFFFFFFFFFFFFFFFFFFFFFFFFFFFFFFFFFFFFFFF AND PUSH1 0xE0 DUP2 PUSH20 0xFFFFFFFFFFFFFFFFFFFFFFFFFFFFFFFFFFFFFFFF AND DUP2 MSTORE POP POP DUP4 PUSH20 0xFFFFFFFFFFFFFFFFFFFFFFFFFFFFFFFFFFFFFFFF AND PUSH2 0x100 DUP2 PUSH20 0xFFFFFFFFFFFFFFFFFFFFFFFFFFFFFFFFFFFFFFFF AND DUP2 MSTORE POP POP DUP2 PUSH20 0xFFFFFFFFFFFFFFFFFFFFFFFFFFFFFFFFFFFFFFFF AND PUSH2 0x120 DUP2 PUSH20 0xFFFFFFFFFFFFFFFFFFFFFFFFFFFFFFFFFFFFFFFF AND DUP2 MSTORE POP POP PUSH0 DUP5 PUSH20 0xFFFFFFFFFFFFFFFFFFFFFFFFFFFFFFFFFFFFFFFF AND PUSH4 0xAD5C4648 PUSH1 0x40 MLOAD DUP2 PUSH4 0xFFFFFFFF AND PUSH1 0xE0 SHL DUP2 MSTORE PUSH1 0x4 ADD PUSH1 0x20 PUSH1 0x40 MLOAD DUP1 DUP4 SUB DUP2 DUP7 GAS STATICCALL ISZERO DUP1 ISZERO PUSH2 0x2D5 JUMPI RETURNDATASIZE PUSH0 PUSH0 RETURNDATACOPY RETURNDATASIZE PUSH0 REVERT JUMPDEST POP POP POP POP PUSH1 0x40 MLOAD RETURNDATASIZE PUSH1 0x1F NOT PUSH1 0x1F DUP3 ADD AND DUP3 ADD DUP1 PUSH1 0x40 MSTORE POP DUP2 ADD SWAP1 PUSH2 0x2F9 SWAP2 SWAP1 PUSH2 0x6AF JUMP JUMPDEST SWAP1 POP DUP1 PUSH20 0xFFFFFFFFFFFFFFFFFFFFFFFFFFFFFFFFFFFFFFFF AND PUSH1 0x80 DUP2 PUSH20 0xFFFFFFFFFFFFFFFFFFFFFFFFFFFFFFFFFFFFFFFF AND DUP2 MSTORE POP POP DUP5 PUSH20 0xFFFFFFFFFFFFFFFFFFFFFFFFFFFFFFFFFFFFFFFF AND PUSH4 0xC45A0155 PUSH1 0x40 MLOAD DUP2 PUSH4 0xFFFFFFFF AND PUSH1 0xE0 SHL DUP2 MSTORE PUSH1 0x4 ADD PUSH1 0x20 PUSH1 0x40 MLOAD DUP1 DUP4 SUB DUP2 DUP7 GAS STATICCALL ISZERO DUP1 ISZERO PUSH2 0x378 JUMPI RETURNDATASIZE PUSH0 PUSH0 RETURNDATACOPY RETURNDATASIZE PUSH0 REVERT JUMPDEST POP POP POP POP PUSH1 0x40 MLOAD RETURNDATASIZE PUSH1 0x1F NOT PUSH1 0x1F DUP3 ADD AND DUP3 ADD DUP1 PUSH1 0x40 MSTORE POP DUP2 ADD SWAP1 PUSH2 0x39C SWAP2 SWAP1 PUSH2 0x6AF JUMP JUMPDEST PUSH20 0xFFFFFFFFFFFFFFFFFFFFFFFFFFFFFFFFFFFFFFFF AND PUSH1 0xC0 DUP2 PUSH20 0xFFFFFFFFFFFFFFFFFFFFFFFFFFFFFFFFFFFFFFFF AND DUP2 MSTORE POP POP DUP2 PUSH20 0xFFFFFFFFFFFFFFFFFFFFFFFFFFFFFFFFFFFFFFFF AND PUSH1 0xA0 DUP2 PUSH20 0xFFFFFFFFFFFFFFFFFFFFFFFFFFFFFFFFFFFFFFFF AND DUP2 MSTORE POP POP POP POP POP POP POP PUSH2 0x417 DUP2 PUSH2 0x429 PUSH1 0x20 SHL PUSH1 0x20 SHR JUMP JUMPDEST POP PUSH1 0x1 DUP1 DUP2 SWAP1 SSTORE POP POP POP POP POP POP PUSH2 0x848 JUMP JUMPDEST PUSH0 PUSH20 0xFFFFFFFFFFFFFFFFFFFFFFFFFFFFFFFFFFFFFFFF AND DUP2 PUSH20 0xFFFFFFFFFFFFFFFFFFFFFFFFFFFFFFFFFFFFFFFF AND SUB PUSH2 0x497 JUMPI PUSH1 0x40 MLOAD PUSH32 0x8C379A000000000000000000000000000000000000000000000000000000000 DUP2 MSTORE PUSH1 0x4 ADD PUSH2 0x48E SWAP1 PUSH2 0x734 JUMP JUMPDEST PUSH1 0x40 MLOAD DUP1 SWAP2 SUB SWAP1 REVERT JUMPDEST PUSH0 DUP2 PUSH20 0xFFFFFFFFFFFFFFFFFFFFFFFFFFFFFFFFFFFFFFFF AND EXTCODESIZE GT PUSH2 0x4F0 JUMPI PUSH1 0x40 MLOAD PUSH32 0x8C379A000000000000000000000000000000000000000000000000000000000 DUP2 MSTORE PUSH1 0x4 ADD PUSH2 0x4E7 SWAP1 PUSH2 0x79C JUMP JUMPDEST PUSH1 0x40 MLOAD DUP1 SWAP2 SUB SWAP1 REVERT JUMPDEST DUP1 PUSH20 0xFFFFFFFFFFFFFFFFFFFFFFFFFFFFFFFFFFFFFFFF AND PUSH4 0x8DA5CB5B PUSH1 0x40 MLOAD DUP2 PUSH4 0xFFFFFFFF AND PUSH1 0xE0 SHL DUP2 MSTORE PUSH1 0x4 ADD PUSH1 0x20 PUSH1 0x40 MLOAD DUP1 DUP4 SUB DUP2 DUP7 GAS STATICCALL SWAP3 POP POP POP DUP1 ISZERO PUSH2 0x558 JUMPI POP PUSH1 0x40 MLOAD RETURNDATASIZE PUSH1 0x1F NOT PUSH1 0x1F DUP3 ADD AND DUP3 ADD DUP1 PUSH1 0x40 MSTORE POP DUP2 ADD SWAP1 PUSH2 0x555 SWAP2 SWAP1 PUSH2 0x6AF JUMP JUMPDEST PUSH1 0x1 JUMPDEST PUSH2 0x597 JUMPI PUSH1 0x40 MLOAD PUSH32 0x8C379A000000000000000000000000000000000000000000000000000000000 DUP2 MSTORE PUSH1 0x4 ADD PUSH2 0x58E SWAP1 PUSH2 0x82A JUMP JUMPDEST PUSH1 0x40 MLOAD DUP1 SWAP2 SUB SWAP1 REVERT JUMPDEST DUP2 PUSH0 PUSH0 PUSH2 0x100 EXP DUP2 SLOAD DUP2 PUSH20 0xFFFFFFFFFFFFFFFFFFFFFFFFFFFFFFFFFFFFFFFF MUL NOT AND SWAP1 DUP4 PUSH20 0xFFFFFFFFFFFFFFFFFFFFFFFFFFFFFFFFFFFFFFFF AND MUL OR SWAP1 SSTORE POP POP POP JUMP JUMPDEST PUSH0 PUSH0 REVERT JUMPDEST PUSH0 PUSH20 0xFFFFFFFFFFFFFFFFFFFFFFFFFFFFFFFFFFFFFFFF DUP3 AND SWAP1 POP SWAP2 SWAP1 POP JUMP JUMPDEST PUSH0 PUSH2 0x607 DUP3 PUSH2 0x5DE JUMP JUMPDEST SWAP1 POP SWAP2 SWAP1 POP JUMP JUMPDEST PUSH2 0x617 DUP2 PUSH2 0x5FD JUMP JUMPDEST DUP2 EQ PUSH2 0x621 JUMPI PUSH0 PUSH0 REVERT JUMPDEST POP JUMP JUMPDEST PUSH0 DUP2 MLOAD SWAP1 POP PUSH2 0x632 DUP2 PUSH2 0x60E JUMP JUMPDEST SWAP3 SWAP2 POP POP JUMP JUMPDEST PUSH0 PUSH0 PUSH0 PUSH0 PUSH0 PUSH1 0xA0 DUP7 DUP9 SUB SLT ISZERO PUSH2 0x651 JUMPI PUSH2 0x650 PUSH2 0x5DA JUMP JUMPDEST JUMPDEST PUSH0 PUSH2 0x65E DUP9 DUP3 DUP10 ADD PUSH2 0x624 JUMP JUMPDEST SWAP6 POP POP PUSH1 0x20 PUSH2 0x66F DUP9 DUP3 DUP10 ADD PUSH2 0x624 JUMP JUMPDEST SWAP5 POP POP PUSH1 0x40 PUSH2 0x680 DUP9 DUP3 DUP10 ADD PUSH2 0x624 JUMP JUMPDEST SWAP4 POP POP PUSH1 0x60 PUSH2 0x691 DUP9 DUP3 DUP10 ADD PUSH2 0x624 JUMP JUMPDEST SWAP3 POP POP PUSH1 0x80 PUSH2 0x6A2 DUP9 DUP3 DUP10 ADD PUSH2 0x624 JUMP JUMPDEST SWAP2 POP POP SWAP3 SWAP6 POP SWAP3 SWAP6 SWAP1 SWAP4 POP JUMP JUMPDEST PUSH0 PUSH1 0x20 DUP3 DUP5 SUB SLT ISZERO PUSH2 0x6C4 JUMPI PUSH2 0x6C3 PUSH2 0x5DA JUMP JUMPDEST JUMPDEST PUSH0 PUSH2 0x6D1 DUP5 DUP3 DUP6 ADD PUSH2 0x624 JUMP JUMPDEST SWAP2 POP POP SWAP3 SWAP2 POP POP JUMP JUMPDEST PUSH0 DUP3 DUP3 MSTORE PUSH1 0x20 DUP3 ADD SWAP1 POP SWAP3 SWAP2 POP POP JUMP JUMPDEST PUSH32 0x4469726563746F72792063616E6E6F74206265207A65726F2061646472657373 PUSH0 DUP3 ADD MSTORE POP JUMP JUMPDEST PUSH0 PUSH2 0x71E PUSH1 0x20 DUP4 PUSH2 0x6DA JUMP JUMPDEST SWAP2 POP PUSH2 0x729 DUP3 PUSH2 0x6EA JUMP JUMPDEST PUSH1 0x20 DUP3 ADD SWAP1 POP SWAP2 SWAP1 POP JUMP JUMPDEST PUSH0 PUSH1 0x20 DUP3 ADD SWAP1 POP DUP2 DUP2 SUB PUSH0 DUP4 ADD MSTORE PUSH2 0x74B DUP2 PUSH2 0x712 JUMP JUMPDEST SWAP1 POP SWAP2 SWAP1 POP JUMP JUMPDEST PUSH32 0x4469726563746F7279206D757374206265206120636F6E747261637400000000 PUSH0 DUP3 ADD MSTORE POP JUMP JUMPDEST PUSH0 PUSH2 0x786 PUSH1 0x1C DUP4 PUSH2 0x6DA JUMP JUMPDEST SWAP2 POP PUSH2 0x791 DUP3 PUSH2 0x752 JUMP JUMPDEST PUSH1 0x20 DUP3 ADD SWAP1 POP SWAP2 SWAP1 POP JUMP JUMPDEST PUSH0 PUSH1 0x20 DUP3 ADD SWAP1 POP DUP2 DUP2 SUB PUSH0 DUP4 ADD MSTORE PUSH2 0x7B3 DUP2 PUSH2 0x77A JUMP JUMPDEST SWAP1 POP SWAP2 SWAP1 POP JUMP JUMPDEST PUSH32 0x4469726563746F7279206164647265737320646F6573206E6F7420696D706C65 PUSH0 DUP3 ADD MSTORE PUSH32 0x6D656E74206F776E657228290000000000000000000000000000000000000000 PUSH1 0x20 DUP3 ADD MSTORE POP JUMP JUMPDEST PUSH0 PUSH2 0x814 PUSH1 0x2C DUP4 PUSH2 0x6DA JUMP JUMPDEST SWAP2 POP PUSH2 0x81F DUP3 PUSH2 0x7BA JUMP JUMPDEST PUSH1 0x40 DUP3 ADD SWAP1 POP SWAP2 SWAP1 POP JUMP JUMPDEST PUSH0 PUSH1 0x20 DUP3 ADD SWAP1 POP DUP2 DUP2 SUB PUSH0 DUP4 ADD MSTORE PUSH2 0x841 DUP2 PUSH2 0x808 JUMP JUMPDEST SWAP1 POP SWAP2 SWAP1 POP JUMP JUMPDEST PUSH1 0x80 MLOAD PUSH1 0xA0 MLOAD PUSH1 0xC0 MLOAD PUSH1 0xE0 MLOAD PUSH2 0x100 MLOAD PUSH2 0x120 MLOAD PUSH2 0x5AEF PUSH2 0x937 PUSH0 CODECOPY PUSH0 DUP2 DUP2 PUSH2 0xB14 ADD MSTORE DUP2 DUP2 PUSH2 0x1241 ADD MSTORE DUP2 DUP2 PUSH2 0x2923 ADD MSTORE PUSH2 0x2D51 ADD MSTORE PUSH0 DUP2 DUP2 PUSH2 0xD3D ADD MSTORE PUSH2 0x2B81 ADD MSTORE PUSH0 DUP2 DUP2 PUSH2 0xB5C ADD MSTORE PUSH2 0x24DE ADD MSTORE PUSH0 PUSH2 0xC13 ADD MSTORE PUSH0 DUP2 DUP2 PUSH2 0x5A4 ADD MSTORE DUP2 DUP2 PUSH2 0x28D7 ADD MSTORE DUP2 DUP2 PUSH2 0x2901 ADD MSTORE DUP2 DUP2 PUSH2 0x2D05 ADD MSTORE PUSH2 0x2D2F ADD MSTORE PUSH0 DUP2 DUP2 PUSH2 0x776 ADD MSTORE DUP2 DUP2 PUSH2 0x7C7 ADD MSTORE DUP2 DUP2 PUSH2 0x9E1 ADD MSTORE DUP2 DUP2 PUSH2 0xAB7 ADD MSTORE DUP2 DUP2 PUSH2 0xAF0 ADD MSTORE DUP2 DUP2 PUSH2 0xDC7 ADD MSTORE DUP2 DUP2 PUSH2 0x1440 ADD MSTORE DUP2 DUP2 PUSH2 0x1C81 ADD MSTORE DUP2 DUP2 PUSH2 0x1CB4 ADD MSTORE DUP2 DUP2 PUSH2 0x1CF3 ADD MSTORE DUP2 DUP2 PUSH2 0x1D21 ADD MSTORE DUP2 DUP2 PUSH2 0x2146 ADD MSTORE DUP2 DUP2 PUSH2 0x22CC ADD MSTORE DUP2 DUP2 PUSH2 0x22FF ADD MSTORE DUP2 DUP2 PUSH2 0x233E ADD MSTORE PUSH2 0x236C ADD MSTORE PUSH2 0x5AEF PUSH0 RETURN INVALID PUSH1 0x80 PUSH1 0x40 MSTORE PUSH1 0x4 CALLDATASIZE LT PUSH2 0xEB JUMPI PUSH0 CALLDATALOAD PUSH1 0xE0 SHR DUP1 PUSH4 0x4F0E0EF3 GT PUSH2 0x89 JUMPI DUP1 PUSH4 0x8DA5CB5B GT PUSH2 0x58 JUMPI DUP1 PUSH4 0x8DA5CB5B EQ PUSH2 0x2C2 JUMPI DUP1 PUSH4 0xB4B57C39 EQ PUSH2 0x2EC JUMPI DUP1 PUSH4 0xBA4C7BE1 EQ PUSH2 0x316 JUMPI DUP1 PUSH4 0xDEADBC14 EQ PUSH2 0x33E JUMPI PUSH2 0xF2 JUMP JUMPDEST DUP1 PUSH4 0x4F0E0EF3 EQ PUSH2 0x21A JUMPI DUP1 PUSH4 0x5CF39049 EQ PUSH2 0x244 JUMPI DUP1 PUSH4 0x658A847A EQ PUSH2 0x26E JUMPI DUP1 PUSH4 0x7C887C59 EQ PUSH2 0x298 JUMPI PUSH2 0xF2 JUMP JUMPDEST DUP1 PUSH4 0x12261EE7 GT PUSH2 0xC5 JUMPI DUP1 PUSH4 0x12261EE7 EQ PUSH2 0x170 JUMPI DUP1 PUSH4 0x1623306B EQ PUSH2 0x19A JUMPI DUP1 PUSH4 0x27262618 EQ PUSH2 0x1B6 JUMPI DUP1 PUSH4 0x3814BC6E EQ PUSH2 0x1F2 JUMPI PUSH2 0xF2 JUMP JUMPDEST DUP1 PUSH4 0x362FE3A EQ PUSH2 0xF6 JUMPI DUP1 PUSH4 0x9053AC4 EQ PUSH2 0x120 JUMPI DUP1 PUSH4 0x1052874D EQ PUSH2 0x148 JUMPI PUSH2 0xF2 JUMP JUMPDEST CALLDATASIZE PUSH2 0xF2 JUMPI STOP JUMPDEST PUSH0 PUSH0 REVERT JUMPDEST CALLVALUE DUP1 ISZERO PUSH2 0x101 JUMPI PUSH0 PUSH0 REVERT JUMPDEST POP PUSH2 0x10A PUSH2 0x368 JUMP JUMPDEST PUSH1 0x40 MLOAD PUSH2 0x117 SWAP2 SWAP1 PUSH2 0x3E33 JUMP JUMPDEST PUSH1 0x40 MLOAD DUP1 SWAP2 SUB SWAP1 RETURN JUMPDEST CALLVALUE DUP1 ISZERO PUSH2 0x12B JUMPI PUSH0 PUSH0 REVERT JUMPDEST POP PUSH2 0x146 PUSH1 0x4 DUP1 CALLDATASIZE SUB DUP2 ADD SWAP1 PUSH2 0x141 SWAP2 SWAP1 PUSH2 0x3EB7 JUMP JUMPDEST PUSH2 0x37D JUMP JUMPDEST STOP JUMPDEST CALLVALUE DUP1 ISZERO PUSH2 0x153 JUMPI PUSH0 PUSH0 REVERT JUMPDEST POP PUSH2 0x16E PUSH1 0x4 DUP1 CALLDATASIZE SUB DUP2 ADD SWAP1 PUSH2 0x169 SWAP2 SWAP1 PUSH2 0x3F1F JUMP JUMPDEST PUSH2 0x485 JUMP JUMPDEST STOP JUMPDEST CALLVALUE DUP1 ISZERO PUSH2 0x17B JUMPI PUSH0 PUSH0 REVERT JUMPDEST POP PUSH2 0x184 PUSH2 0x5A2 JUMP JUMPDEST PUSH1 0x40 MLOAD PUSH2 0x191 SWAP2 SWAP1 PUSH2 0x3FA5 JUMP JUMPDEST PUSH1 0x40 MLOAD DUP1 SWAP2 SUB SWAP1 RETURN JUMPDEST PUSH2 0x1B4 PUSH1 0x4 DUP1 CALLDATASIZE SUB DUP2 ADD SWAP1 PUSH2 0x1AF SWAP2 SWAP1 PUSH2 0x401F JUMP JUMPDEST PUSH2 0x5C6 JUMP JUMPDEST STOP JUMPDEST CALLVALUE DUP1 ISZERO PUSH2 0x1C1 JUMPI PUSH0 PUSH0 REVERT JUMPDEST POP PUSH2 0x1DC PUSH1 0x4 DUP1 CALLDATASIZE SUB DUP2 ADD SWAP1 PUSH2 0x1D7 SWAP2 SWAP1 PUSH2 0x41C8 JUMP JUMPDEST PUSH2 0x819 JUMP JUMPDEST PUSH1 0x40 MLOAD PUSH2 0x1E9 SWAP2 SWAP1 PUSH2 0x421E JUMP JUMPDEST PUSH1 0x40 MLOAD DUP1 SWAP2 SUB SWAP1 RETURN JUMPDEST CALLVALUE DUP1 ISZERO PUSH2 0x1FD JUMPI PUSH0 PUSH0 REVERT JUMPDEST POP PUSH2 0x218 PUSH1 0x4 DUP1 CALLDATASIZE SUB DUP2 ADD SWAP1 PUSH2 0x213 SWAP2 SWAP1 PUSH2 0x42FC JUMP JUMPDEST PUSH2 0x8B9 JUMP JUMPDEST STOP JUMPDEST CALLVALUE DUP1 ISZERO PUSH2 0x225 JUMPI PUSH0 PUSH0 REVERT JUMPDEST POP PUSH2 0x22E PUSH2 0xAEE JUMP JUMPDEST PUSH1 0x40 MLOAD PUSH2 0x23B SWAP2 SWAP1 PUSH2 0x421E JUMP JUMPDEST PUSH1 0x40 MLOAD DUP1 SWAP2 SUB SWAP1 RETURN JUMPDEST CALLVALUE DUP1 ISZERO PUSH2 0x24F JUMPI PUSH0 PUSH0 REVERT JUMPDEST POP PUSH2 0x258 PUSH2 0xB12 JUMP JUMPDEST PUSH1 0x40 MLOAD PUSH2 0x265 SWAP2 SWAP1 PUSH2 0x43A0 JUMP JUMPDEST PUSH1 0x40 MLOAD DUP1 SWAP2 SUB SWAP1 RETURN JUMPDEST CALLVALUE DUP1 ISZERO PUSH2 0x279 JUMPI PUSH0 PUSH0 REVERT JUMPDEST POP PUSH2 0x282 PUSH2 0xB36 JUMP JUMPDEST PUSH1 0x40 MLOAD PUSH2 0x28F SWAP2 SWAP1 PUSH2 0x43D9 JUMP JUMPDEST PUSH1 0x40 MLOAD DUP1 SWAP2 SUB SWAP1 RETURN JUMPDEST CALLVALUE DUP1 ISZERO PUSH2 0x2A3 JUMPI PUSH0 PUSH0 REVERT JUMPDEST POP PUSH2 0x2AC PUSH2 0xB5A JUMP JUMPDEST PUSH1 0x40 MLOAD PUSH2 0x2B9 SWAP2 SWAP1 PUSH2 0x4412 JUMP JUMPDEST PUSH1 0x40 MLOAD DUP1 SWAP2 SUB SWAP1 RETURN JUMPDEST CALLVALUE DUP1 ISZERO PUSH2 0x2CD JUMPI PUSH0 PUSH0 REVERT JUMPDEST POP PUSH2 0x2D6 PUSH2 0xB7E JUMP JUMPDEST PUSH1 0x40 MLOAD PUSH2 0x2E3 SWAP2 SWAP1 PUSH2 0x421E JUMP JUMPDEST PUSH1 0x40 MLOAD DUP1 SWAP2 SUB SWAP1 RETURN JUMPDEST CALLVALUE DUP1 ISZERO PUSH2 0x2F7 JUMPI PUSH0 PUSH0 REVERT JUMPDEST POP PUSH2 0x300 PUSH2 0xC11 JUMP JUMPDEST PUSH1 0x40 MLOAD PUSH2 0x30D SWAP2 SWAP1 PUSH2 0x444B JUMP JUMPDEST PUSH1 0x40 MLOAD DUP1 SWAP2 SUB SWAP1 RETURN JUMPDEST CALLVALUE DUP1 ISZERO PUSH2 0x321 JUMPI PUSH0 PUSH0 REVERT JUMPDEST POP PUSH2 0x33C PUSH1 0x4 DUP1 CALLDATASIZE SUB DUP2 ADD SWAP1 PUSH2 0x337 SWAP2 SWAP1 PUSH2 0x4464 JUMP JUMPDEST PUSH2 0xC35 JUMP JUMPDEST STOP JUMPDEST CALLVALUE DUP1 ISZERO PUSH2 0x349 JUMPI PUSH0 PUSH0 REVERT JUMPDEST POP PUSH2 0x352 PUSH2 0xD3B JUMP JUMPDEST PUSH1 0x40 MLOAD PUSH2 0x35F SWAP2 SWAP1 PUSH2 0x44AF JUMP JUMPDEST PUSH1 0x40 MLOAD DUP1 SWAP2 SUB SWAP1 RETURN JUMPDEST PUSH1 0x2 PUSH0 SWAP1 SLOAD SWAP1 PUSH2 0x100 EXP SWAP1 DIV PUSH4 0xFFFFFFFF AND DUP2 JUMP JUMPDEST PUSH0 PUSH0 SWAP1 SLOAD SWAP1 PUSH2 0x100 EXP SWAP1 DIV PUSH20 0xFFFFFFFFFFFFFFFFFFFFFFFFFFFFFFFFFFFFFFFF AND PUSH20 0xFFFFFFFFFFFFFFFFFFFFFFFFFFFFFFFFFFFFFFFF AND PUSH4 0x8DA5CB5B PUSH1 0x40 MLOAD DUP2 PUSH4 0xFFFFFFFF AND PUSH1 0xE0 SHL DUP2 MSTORE PUSH1 0x4 ADD PUSH1 0x20 PUSH1 0x40 MLOAD DUP1 DUP4 SUB DUP2 DUP7 GAS STATICCALL ISZERO DUP1 ISZERO PUSH2 0x3E6 JUMPI RETURNDATASIZE PUSH0 PUSH0 RETURNDATACOPY RETURNDATASIZE PUSH0 REVERT JUMPDEST POP POP POP POP PUSH1 0x40 MLOAD RETURNDATASIZE PUSH1 0x1F NOT PUSH1 0x1F DUP3 ADD AND DUP3 ADD DUP1 PUSH1 0x40 MSTORE POP DUP2 ADD SWAP1 PUSH2 0x40A SWAP2 SWAP1 PUSH2 0x44DC JUMP JUMPDEST PUSH20 0xFFFFFFFFFFFFFFFFFFFFFFFFFFFFFFFFFFFFFFFF AND CALLER PUSH20 0xFFFFFFFFFFFFFFFFFFFFFFFFFFFFFFFFFFFFFFFF AND EQ PUSH2 0x477 JUMPI PUSH1 0x40 MLOAD PUSH32 0x8C379A000000000000000000000000000000000000000000000000000000000 DUP2 MSTORE PUSH1 0x4 ADD PUSH2 0x46E SWAP1 PUSH2 0x4561 JUMP JUMPDEST PUSH1 0x40 MLOAD DUP1 SWAP2 SUB SWAP1 REVERT JUMPDEST PUSH2 0x481 DUP3 DUP3 PUSH2 0xD5F JUMP JUMPDEST POP POP JUMP JUMPDEST PUSH0 PUSH0 SWAP1 SLOAD SWAP1 PUSH2 0x100 EXP SWAP1 DIV PUSH20 0xFFFFFFFFFFFFFFFFFFFFFFFFFFFFFFFFFFFFFFFF AND PUSH20 0xFFFFFFFFFFFFFFFFFFFFFFFFFFFFFFFFFFFFFFFF AND PUSH4 0x8DA5CB5B PUSH1 0x40 MLOAD DUP2 PUSH4 0xFFFFFFFF AND PUSH1 0xE0 SHL DUP2 MSTORE PUSH1 0x4 ADD PUSH1 0x20 PUSH1 0x40 MLOAD DUP1 DUP4 SUB DUP2 DUP7 GAS STATICCALL ISZERO DUP1 ISZERO PUSH2 0x4EE JUMPI RETURNDATASIZE PUSH0 PUSH0 RETURNDATACOPY RETURNDATASIZE PUSH0 REVERT JUMPDEST POP POP POP POP PUSH1 0x40 MLOAD RETURNDATASIZE PUSH1 0x1F NOT PUSH1 0x1F DUP3 ADD AND DUP3 ADD DUP1 PUSH1 0x40 MSTORE POP DUP2 ADD SWAP1 PUSH2 0x512 SWAP2 SWAP1 PUSH2 0x44DC JUMP JUMPDEST PUSH20 0xFFFFFFFFFFFFFFFFFFFFFFFFFFFFFFFFFFFFFFFF AND CALLER PUSH20 0xFFFFFFFFFFFFFFFFFFFFFFFFFFFFFFFFFFFFFFFF AND EQ PUSH2 0x57F JUMPI PUSH1 0x40 MLOAD PUSH32 0x8C379A000000000000000000000000000000000000000000000000000000000 DUP2 MSTORE PUSH1 0x4 ADD PUSH2 0x576 SWAP1 PUSH2 0x4561 JUMP JUMPDEST PUSH1 0x40 MLOAD DUP1 SWAP2 SUB SWAP1 REVERT JUMPDEST DUP1 PUSH1 0x2 PUSH0 PUSH2 0x100 EXP DUP2 SLOAD DUP2 PUSH4 0xFFFFFFFF MUL NOT AND SWAP1 DUP4 PUSH4 0xFFFFFFFF AND MUL OR SWAP1 SSTORE POP POP JUMP JUMPDEST PUSH32 0x0 DUP2 JUMP JUMPDEST PUSH2 0x5CE PUSH2 0xD6D JUMP JUMPDEST PUSH0 PUSH20 0xFFFFFFFFFFFFFFFFFFFFFFFFFFFFFFFFFFFFFFFF AND DUP3 PUSH20 0xFFFFFFFFFFFFFFFFFFFFFFFFFFFFFFFFFFFFFFFF AND SUB PUSH2 0x633 JUMPI PUSH1 0x40 MLOAD PUSH32 0xD92E233D00000000000000000000000000000000000000000000000000000000 DUP2 MSTORE PUSH1 0x4 ADD PUSH1 0x40 MLOAD DUP1 SWAP2 SUB SWAP1 REVERT JUMPDEST PUSH0 CALLVALUE SWAP1 POP PUSH0 DUP6 DUP6 SWAP1 POP SUB PUSH2 0x673 JUMPI PUSH1 0x40 MLOAD PUSH32 0xB4FA3FB300000000000000000000000000000000000000000000000000000000 DUP2 MSTORE PUSH1 0x4 ADD PUSH1 0x40 MLOAD DUP1 SWAP2 SUB SWAP1 REVERT JUMPDEST PUSH0 DUP2 SUB PUSH2 0x6AC JUMPI PUSH1 0x40 MLOAD PUSH32 0xB4FA3FB300000000000000000000000000000000000000000000000000000000 DUP2 MSTORE PUSH1 0x4 ADD PUSH1 0x40 MLOAD DUP1 SWAP2 SUB SWAP1 REVERT JUMPDEST PUSH1 0x2 PUSH0 SWAP1 SLOAD SWAP1 PUSH2 0x100 EXP SWAP1 DIV PUSH4 0xFFFFFFFF AND PUSH4 0xFFFFFFFF AND DUP3 PUSH4 0xFFFFFFFF AND GT ISZERO PUSH2 0x703 JUMPI PUSH1 0x40 MLOAD PUSH32 0x334EE9A100000000000000000000000000000000000000000000000000000000 DUP2 MSTORE PUSH1 0x4 ADD PUSH1 0x40 MLOAD DUP1 SWAP2 SUB SWAP1 REVERT JUMPDEST PUSH0 PUSH2 0x711 DUP7 DUP7 DUP7 DUP7 DUP7 PUSH2 0xDBC JUMP JUMPDEST SWAP1 POP PUSH0 DUP2 PUSH1 0x80 ADD MLOAD SWAP1 POP PUSH0 DUP2 EQ DUP1 PUSH2 0x72A JUMPI POP PUSH2 0x2710 DUP2 GT JUMPDEST ISZERO PUSH2 0x761 JUMPI PUSH1 0x40 MLOAD PUSH32 0x124955FB00000000000000000000000000000000000000000000000000000000 DUP2 MSTORE PUSH1 0x4 ADD PUSH1 0x40 MLOAD DUP1 SWAP2 SUB SWAP1 REVERT JUMPDEST PUSH0 DUP3 PUSH1 0x60 ADD MLOAD SWAP1 POP PUSH0 DUP2 GT ISZERO PUSH2 0x79C JUMPI PUSH2 0x79B PUSH32 0x0 DUP3 PUSH2 0x10B8 JUMP JUMPDEST JUMPDEST PUSH2 0x7B2 DUP4 PUSH0 ADD MLOAD DUP5 PUSH1 0x20 ADD MLOAD DUP6 PUSH1 0x40 ADD MLOAD PUSH2 0x1153 JUMP JUMPDEST PUSH0 DUP4 PUSH1 0xA0 ADD MLOAD SWAP1 POP PUSH0 DUP2 GT ISZERO PUSH2 0x7EE JUMPI PUSH2 0x7ED PUSH32 0x0 DUP9 DUP4 PUSH2 0x12CC JUMP JUMPDEST JUMPDEST PUSH0 SELFBALANCE SWAP1 POP PUSH0 DUP2 GT ISZERO PUSH2 0x805 JUMPI PUSH2 0x804 CALLER DUP3 PUSH2 0x1315 JUMP JUMPDEST JUMPDEST POP POP POP POP POP POP PUSH2 0x813 PUSH2 0x142C JUMP JUMPDEST POP POP POP POP JUMP JUMPDEST PUSH0 PUSH0 PUSH0 SWAP1 SLOAD SWAP1 PUSH2 0x100 EXP SWAP1 DIV PUSH20 0xFFFFFFFFFFFFFFFFFFFFFFFFFFFFFFFFFFFFFFFF AND PUSH20 0xFFFFFFFFFFFFFFFFFFFFFFFFFFFFFFFFFFFFFFFF AND PUSH4 0x27262618 DUP4 PUSH1 0x40 MLOAD DUP3 PUSH4 0xFFFFFFFF AND PUSH1 0xE0 SHL DUP2 MSTORE PUSH1 0x4 ADD PUSH2 0x873 SWAP2 SWAP1 PUSH2 0x45CF JUMP JUMPDEST PUSH1 0x20 PUSH1 0x40 MLOAD DUP1 DUP4 SUB DUP2 DUP7 GAS STATICCALL ISZERO DUP1 ISZERO PUSH2 0x88E JUMPI RETURNDATASIZE PUSH0 PUSH0 RETURNDATACOPY RETURNDATASIZE PUSH0 REVERT JUMPDEST POP POP POP POP PUSH1 0x40 MLOAD RETURNDATASIZE PUSH1 0x1F NOT PUSH1 0x1F DUP3 ADD AND DUP3 ADD DUP1 PUSH1 0x40 MSTORE POP DUP2 ADD SWAP1 PUSH2 0x8B2 SWAP2 SWAP1 PUSH2 0x44DC JUMP JUMPDEST SWAP1 POP SWAP2 SWAP1 POP JUMP JUMPDEST PUSH2 0x8C1 PUSH2 0xD6D JUMP JUMPDEST PUSH0 PUSH20 0xFFFFFFFFFFFFFFFFFFFFFFFFFFFFFFFFFFFFFFFF AND DUP4 PUSH20 0xFFFFFFFFFFFFFFFFFFFFFFFFFFFFFFFFFFFFFFFF AND SUB PUSH2 0x926 JUMPI PUSH1 0x40 MLOAD PUSH32 0xD92E233D00000000000000000000000000000000000000000000000000000000 DUP2 MSTORE PUSH1 0x4 ADD PUSH1 0x40 MLOAD DUP1 SWAP2 SUB SWAP1 REVERT JUMPDEST PUSH0 DUP6 DUP6 SWAP1 POP SUB PUSH2 0x962 JUMPI PUSH1 0x40 MLOAD PUSH32 0xB4FA3FB300000000000000000000000000000000000000000000000000000000 DUP2 MSTORE PUSH1 0x4 ADD PUSH1 0x40 MLOAD DUP1 SWAP2 SUB SWAP1 REVERT JUMPDEST PUSH1 0x2 PUSH0 SWAP1 SLOAD SWAP1 PUSH2 0x100 EXP SWAP1 DIV PUSH4 0xFFFFFFFF AND PUSH4 0xFFFFFFFF AND DUP3 PUSH4 0xFFFFFFFF AND GT ISZERO PUSH2 0x9B9 JUMPI PUSH1 0x40 MLOAD PUSH32 0x334EE9A100000000000000000000000000000000000000000000000000000000 DUP2 MSTORE PUSH1 0x4 ADD PUSH1 0x40 MLOAD DUP1 SWAP2 SUB SWAP1 REVERT JUMPDEST PUSH0 PUSH2 0x9C6 DUP7 DUP7 DUP6 DUP6 PUSH2 0x1435 JUMP JUMPDEST SWAP1 POP PUSH2 0x9DE DUP2 PUSH0 ADD MLOAD DUP3 PUSH1 0x20 ADD MLOAD DUP4 PUSH1 0x40 ADD MLOAD PUSH2 0x1153 JUMP JUMPDEST PUSH0 PUSH32 0x0 PUSH20 0xFFFFFFFFFFFFFFFFFFFFFFFFFFFFFFFFFFFFFFFF AND PUSH4 0x70A08231 ADDRESS PUSH1 0x40 MLOAD DUP3 PUSH4 0xFFFFFFFF AND PUSH1 0xE0 SHL DUP2 MSTORE PUSH1 0x4 ADD PUSH2 0xA38 SWAP2 SWAP1 PUSH2 0x421E JUMP JUMPDEST PUSH1 0x20 PUSH1 0x40 MLOAD DUP1 DUP4 SUB DUP2 DUP7 GAS STATICCALL ISZERO DUP1 ISZERO PUSH2 0xA53 JUMPI RETURNDATASIZE PUSH0 PUSH0 RETURNDATACOPY RETURNDATASIZE PUSH0 REVERT JUMPDEST POP POP POP POP PUSH1 0x40 MLOAD RETURNDATASIZE PUSH1 0x1F NOT PUSH1 0x1F DUP3 ADD AND DUP3 ADD DUP1 PUSH1 0x40 MSTORE POP DUP2 ADD SWAP1 PUSH2 0xA77 SWAP2 SWAP1 PUSH2 0x4622 JUMP JUMPDEST SWAP1 POP PUSH0 DUP2 SUB PUSH2 0xAB2 JUMPI PUSH1 0x40 MLOAD PUSH32 0xABFF335A00000000000000000000000000000000000000000000000000000000 DUP2 MSTORE PUSH1 0x4 ADD PUSH1 0x40 MLOAD DUP1 SWAP2 SUB SWAP1 REVERT JUMPDEST PUSH2 0xADD PUSH32 0x0 DUP3 DUP8 PUSH2 0x17C8 JUMP JUMPDEST POP POP PUSH2 0xAE7 PUSH2 0x142C JUMP JUMPDEST POP POP POP POP POP JUMP JUMPDEST PUSH32 0x0 DUP2 JUMP JUMPDEST PUSH32 0x0 DUP2 JUMP JUMPDEST PUSH0 PUSH0 SWAP1 SLOAD SWAP1 PUSH2 0x100 EXP SWAP1 DIV PUSH20 0xFFFFFFFFFFFFFFFFFFFFFFFFFFFFFFFFFFFFFFFF AND DUP2 JUMP JUMPDEST PUSH32 0x0 DUP2 JUMP JUMPDEST PUSH0 PUSH0 PUSH0 SWAP1 SLOAD SWAP1 PUSH2 0x100 EXP SWAP1 DIV PUSH20 0xFFFFFFFFFFFFFFFFFFFFFFFFFFFFFFFFFFFFFFFF AND PUSH20 0xFFFFFFFFFFFFFFFFFFFFFFFFFFFFFFFFFFFFFFFF AND PUSH4 0x8DA5CB5B PUSH1 0x40 MLOAD DUP2 PUSH4 0xFFFFFFFF AND PUSH1 0xE0 SHL DUP2 MSTORE PUSH1 0x4 ADD PUSH1 0x20 PUSH1 0x40 MLOAD DUP1 DUP4 SUB DUP2 DUP7 GAS STATICCALL ISZERO DUP1 ISZERO PUSH2 0xBE8 JUMPI RETURNDATASIZE PUSH0 PUSH0 RETURNDATACOPY RETURNDATASIZE PUSH0 REVERT JUMPDEST POP POP POP POP PUSH1 0x40 MLOAD RETURNDATASIZE PUSH1 0x1F NOT PUSH1 0x1F DUP3 ADD AND DUP3 ADD DUP1 PUSH1 0x40 MSTORE POP DUP2 ADD SWAP1 PUSH2 0xC0C SWAP2 SWAP1 PUSH2 0x44DC JUMP JUMPDEST SWAP1 POP SWAP1 JUMP JUMPDEST PUSH32 0x0 DUP2 JUMP JUMPDEST PUSH0 PUSH0 SWAP1 SLOAD SWAP1 PUSH2 0x100 EXP SWAP1 DIV PUSH20 0xFFFFFFFFFFFFFFFFFFFFFFFFFFFFFFFFFFFFFFFF AND PUSH20 0xFFFFFFFFFFFFFFFFFFFFFFFFFFFFFFFFFFFFFFFF AND PUSH4 0x8DA5CB5B PUSH1 0x40 MLOAD DUP2 PUSH4 0xFFFFFFFF AND PUSH1 0xE0 SHL DUP2 MSTORE PUSH1 0x4 ADD PUSH1 0x20 PUSH1 0x40 MLOAD DUP1 DUP4 SUB DUP2 DUP7 GAS STATICCALL ISZERO DUP1 ISZERO PUSH2 0xC9E JUMPI RETURNDATASIZE PUSH0 PUSH0 RETURNDATACOPY RETURNDATASIZE PUSH0 REVERT JUMPDEST POP POP POP POP PUSH1 0x40 MLOAD RETURNDATASIZE PUSH1 0x1F NOT PUSH1 0x1F DUP3 ADD AND DUP3 ADD DUP1 PUSH1 0x40 MSTORE POP DUP2 ADD SWAP1 PUSH2 0xCC2 SWAP2 SWAP1 PUSH2 0x44DC JUMP JUMPDEST PUSH20 0xFFFFFFFFFFFFFFFFFFFFFFFFFFFFFFFFFFFFFFFF AND CALLER PUSH20 0xFFFFFFFFFFFFFFFFFFFFFFFFFFFFFFFFFFFFFFFF AND EQ PUSH2 0xD2F JUMPI PUSH1 0x40 MLOAD PUSH32 0x8C379A000000000000000000000000000000000000000000000000000000000 DUP2 MSTORE PUSH1 0x4 ADD PUSH2 0xD26 SWAP1 PUSH2 0x4561 JUMP JUMPDEST PUSH1 0x40 MLOAD DUP1 SWAP2 SUB SWAP1 REVERT JUMPDEST PUSH2 0xD38 DUP2 PUSH2 0x18D3 JUMP JUMPDEST POP JUMP JUMPDEST PUSH32 0x0 DUP2 JUMP JUMPDEST PUSH2 0xD69 DUP3 DUP3 PUSH2 0x1A84 JUMP JUMPDEST POP POP JUMP JUMPDEST PUSH1 0x2 PUSH1 0x1 SLOAD SUB PUSH2 0xDB2 JUMPI PUSH1 0x40 MLOAD PUSH32 0x8C379A000000000000000000000000000000000000000000000000000000000 DUP2 MSTORE PUSH1 0x4 ADD PUSH2 0xDA9 SWAP1 PUSH2 0x4697 JUMP JUMPDEST PUSH1 0x40 MLOAD DUP1 SWAP2 SUB SWAP1 REVERT JUMPDEST PUSH1 0x2 PUSH1 0x1 DUP2 SWAP1 SSTORE POP JUMP JUMPDEST PUSH2 0xDC4 PUSH2 0x3DC3 JUMP JUMPDEST PUSH0 PUSH32 0x0 SWAP1 POP PUSH0 DUP8 DUP8 SWAP1 POP SWAP1 POP DUP1 PUSH8 0xFFFFFFFFFFFFFFFF DUP2 GT ISZERO PUSH2 0xE09 JUMPI PUSH2 0xE08 PUSH2 0x40A4 JUMP JUMPDEST JUMPDEST PUSH1 0x40 MLOAD SWAP1 DUP1 DUP3 MSTORE DUP1 PUSH1 0x20 MUL PUSH1 0x20 ADD DUP3 ADD PUSH1 0x40 MSTORE DUP1 ISZERO PUSH2 0xE3C JUMPI DUP2 PUSH1 0x20 ADD JUMPDEST PUSH1 0x60 DUP2 MSTORE PUSH1 0x20 ADD SWAP1 PUSH1 0x1 SWAP1 SUB SWAP1 DUP2 PUSH2 0xE27 JUMPI SWAP1 POP JUMPDEST POP DUP4 PUSH1 0x20 ADD DUP2 SWAP1 MSTORE POP DUP1 PUSH8 0xFFFFFFFFFFFFFFFF DUP2 GT ISZERO PUSH2 0xE5F JUMPI PUSH2 0xE5E PUSH2 0x40A4 JUMP JUMPDEST JUMPDEST PUSH1 0x40 MLOAD SWAP1 DUP1 DUP3 MSTORE DUP1 PUSH1 0x1F ADD PUSH1 0x1F NOT AND PUSH1 0x20 ADD DUP3 ADD PUSH1 0x40 MSTORE DUP1 ISZERO PUSH2 0xE91 JUMPI DUP2 PUSH1 0x20 ADD PUSH1 0x1 DUP3 MUL DUP1 CALLDATASIZE DUP4 CALLDATACOPY DUP1 DUP3 ADD SWAP2 POP POP SWAP1 POP JUMPDEST POP DUP4 PUSH0 ADD DUP2 SWAP1 MSTORE POP PUSH0 PUSH0 SWAP1 POP JUMPDEST DUP2 DUP2 LT ISZERO PUSH2 0x10AC JUMPI PUSH0 DUP10 DUP10 DUP4 DUP2 DUP2 LT PUSH2 0xEBA JUMPI PUSH2 0xEB9 PUSH2 0x46B5 JUMP JUMPDEST JUMPDEST SWAP1 POP PUSH1 0x40 MUL ADD PUSH0 ADD PUSH1 0x20 DUP2 ADD SWAP1 PUSH2 0xED1 SWAP2 SWAP1 PUSH2 0x4464 JUMP JUMPDEST SWAP1 POP PUSH0 PUSH20 0xFFFFFFFFFFFFFFFFFFFFFFFFFFFFFFFFFFFFFFFF AND DUP2 PUSH20 0xFFFFFFFFFFFFFFFFFFFFFFFFFFFFFFFFFFFFFFFF AND SUB PUSH2 0xF38 JUMPI PUSH1 0x40 MLOAD PUSH32 0x7401D93100000000000000000000000000000000000000000000000000000000 DUP2 MSTORE PUSH1 0x4 ADD PUSH1 0x40 MLOAD DUP1 SWAP2 SUB SWAP1 REVERT JUMPDEST PUSH0 DUP11 DUP11 DUP5 DUP2 DUP2 LT PUSH2 0xF4C JUMPI PUSH2 0xF4B PUSH2 0x46B5 JUMP JUMPDEST JUMPDEST SWAP1 POP PUSH1 0x40 MUL ADD PUSH1 0x20 ADD PUSH1 0x20 DUP2 ADD SWAP1 PUSH2 0xF64 SWAP2 SWAP1 PUSH2 0x4719 JUMP JUMPDEST PUSH2 0xFFFF AND SWAP1 POP DUP1 DUP7 PUSH1 0x80 ADD DUP2 DUP2 MLOAD ADD SWAP2 POP DUP2 DUP2 MSTORE POP POP PUSH0 DUP2 SUB PUSH2 0xF88 JUMPI POP POP PUSH2 0x10A1 JUMP JUMPDEST PUSH0 PUSH2 0x2710 DUP3 DUP10 MUL DUP2 PUSH2 0xF9D JUMPI PUSH2 0xF9C PUSH2 0x4744 JUMP JUMPDEST JUMPDEST DIV SWAP1 POP PUSH0 DUP2 SUB PUSH2 0xFAF JUMPI POP POP POP PUSH2 0x10A1 JUMP JUMPDEST DUP1 DUP8 PUSH1 0x60 ADD DUP2 DUP2 MLOAD ADD SWAP2 POP DUP2 DUP2 MSTORE POP POP DUP6 PUSH20 0xFFFFFFFFFFFFFFFFFFFFFFFFFFFFFFFFFFFFFFFF AND DUP4 PUSH20 0xFFFFFFFFFFFFFFFFFFFFFFFFFFFFFFFFFFFFFFFF AND SUB PUSH2 0x100A JUMPI DUP1 DUP8 PUSH1 0xA0 ADD DUP2 DUP2 MLOAD ADD SWAP2 POP DUP2 DUP2 MSTORE POP POP POP POP POP PUSH2 0x10A1 JUMP JUMPDEST PUSH0 PUSH0 PUSH2 0x1018 DUP6 DUP5 DUP15 DUP15 PUSH2 0x1B5B JUMP JUMPDEST SWAP2 POP SWAP2 POP DUP2 DUP10 PUSH0 ADD MLOAD DUP11 PUSH1 0x40 ADD MLOAD DUP2 MLOAD DUP2 LT PUSH2 0x1037 JUMPI PUSH2 0x1036 PUSH2 0x46B5 JUMP JUMPDEST JUMPDEST PUSH1 0x20 ADD ADD SWAP1 PUSH31 0xFFFFFFFFFFFFFFFFFFFFFFFFFFFFFFFFFFFFFFFFFFFFFFFFFFFFFFFFFFFFFF NOT AND SWAP1 DUP2 PUSH0 BYTE SWAP1 MSTORE8 POP DUP1 DUP10 PUSH1 0x20 ADD MLOAD DUP11 PUSH1 0x40 ADD MLOAD DUP2 MLOAD DUP2 LT PUSH2 0x1081 JUMPI PUSH2 0x1080 PUSH2 0x46B5 JUMP JUMPDEST JUMPDEST PUSH1 0x20 MUL PUSH1 0x20 ADD ADD DUP2 SWAP1 MSTORE POP DUP9 PUSH1 0x40 ADD DUP1 MLOAD PUSH1 0x1 ADD SWAP1 DUP2 DUP2 MSTORE POP POP POP POP POP POP POP JUMPDEST DUP1 PUSH1 0x1 ADD SWAP1 POP PUSH2 0xE9E JUMP JUMPDEST POP POP POP SWAP6 SWAP5 POP POP POP POP POP JUMP JUMPDEST DUP1 SELFBALANCE LT ISZERO PUSH2 0x10F2 JUMPI PUSH1 0x40 MLOAD PUSH32 0x6A12F10400000000000000000000000000000000000000000000000000000000 DUP2 MSTORE PUSH1 0x4 ADD PUSH1 0x40 MLOAD DUP1 SWAP2 SUB SWAP1 REVERT JUMPDEST DUP2 PUSH20 0xFFFFFFFFFFFFFFFFFFFFFFFFFFFFFFFFFFFFFFFF AND PUSH4 0xD0E30DB0 DUP3 PUSH1 0x40 MLOAD DUP3 PUSH4 0xFFFFFFFF AND PUSH1 0xE0 SHL DUP2 MSTORE PUSH1 0x4 ADD PUSH0 PUSH1 0x40 MLOAD DUP1 DUP4 SUB DUP2 DUP6 DUP9 DUP1 EXTCODESIZE ISZERO DUP1 ISZERO PUSH2 0x1138 JUMPI PUSH0 PUSH0 REVERT JUMPDEST POP GAS CALL ISZERO DUP1 ISZERO PUSH2 0x114A JUMPI RETURNDATASIZE PUSH0 PUSH0 RETURNDATACOPY RETURNDATASIZE PUSH0 REVERT JUMPDEST POP POP POP POP POP POP POP JUMP JUMPDEST PUSH0 DUP2 SUB PUSH2 0x118C JUMPI PUSH1 0x40 MLOAD PUSH32 0xABFF335A00000000000000000000000000000000000000000000000000000000 DUP2 MSTORE PUSH1 0x4 ADD PUSH1 0x40 MLOAD DUP1 SWAP2 SUB SWAP1 REVERT JUMPDEST DUP1 DUP3 MLOAD EQ PUSH2 0x123C JUMPI PUSH0 DUP2 PUSH8 0xFFFFFFFFFFFFFFFF DUP2 GT ISZERO PUSH2 0x11AF JUMPI PUSH2 0x11AE PUSH2 0x40A4 JUMP JUMPDEST JUMPDEST PUSH1 0x40 MLOAD SWAP1 DUP1 DUP3 MSTORE DUP1 PUSH1 0x20 MUL PUSH1 0x20 ADD DUP3 ADD PUSH1 0x40 MSTORE DUP1 ISZERO PUSH2 0x11E2 JUMPI DUP2 PUSH1 0x20 ADD JUMPDEST PUSH1 0x60 DUP2 MSTORE PUSH1 0x20 ADD SWAP1 PUSH1 0x1 SWAP1 SUB SWAP1 DUP2 PUSH2 0x11CD JUMPI SWAP1 POP JUMPDEST POP SWAP1 POP PUSH0 PUSH0 SWAP1 POP JUMPDEST DUP3 DUP2 LT ISZERO PUSH2 0x1236 JUMPI DUP4 DUP2 DUP2 MLOAD DUP2 LT PUSH2 0x1205 JUMPI PUSH2 0x1204 PUSH2 0x46B5 JUMP JUMPDEST JUMPDEST PUSH1 0x20 MUL PUSH1 0x20 ADD ADD MLOAD DUP3 DUP3 DUP2 MLOAD DUP2 LT PUSH2 0x1220 JUMPI PUSH2 0x121F PUSH2 0x46B5 JUMP JUMPDEST JUMPDEST PUSH1 0x20 MUL PUSH1 0x20 ADD ADD DUP2 SWAP1 MSTORE POP DUP1 PUSH1 0x1 ADD SWAP1 POP PUSH2 0x11EA JUMP JUMPDEST POP DUP1 SWAP3 POP POP JUMPDEST DUP1 DUP4 MSTORE PUSH32 0x0 PUSH20 0xFFFFFFFFFFFFFFFFFFFFFFFFFFFFFFFFFFFFFFFF AND PUSH4 0x24856BC3 DUP5 DUP5 PUSH1 0x40 MLOAD DUP4 PUSH4 0xFFFFFFFF AND PUSH1 0xE0 SHL DUP2 MSTORE PUSH1 0x4 ADD PUSH2 0x129A SWAP3 SWAP2 SWAP1 PUSH2 0x48C6 JUMP JUMPDEST PUSH0 PUSH1 0x40 MLOAD DUP1 DUP4 SUB DUP2 PUSH0 DUP8 DUP1 EXTCODESIZE ISZERO DUP1 ISZERO PUSH2 0x12B1 JUMPI PUSH0 PUSH0 REVERT JUMPDEST POP GAS CALL ISZERO DUP1 ISZERO PUSH2 0x12C3 JUMPI RETURNDATASIZE PUSH0 PUSH0 RETURNDATACOPY RETURNDATASIZE PUSH0 REVERT JUMPDEST POP POP POP POP POP POP POP JUMP JUMPDEST PUSH0 DUP2 SUB PUSH2 0x1305 JUMPI PUSH1 0x40 MLOAD PUSH32 0x1F2A200500000000000000000000000000000000000000000000000000000000 DUP2 MSTORE PUSH1 0x4 ADD PUSH1 0x40 MLOAD DUP1 SWAP2 SUB SWAP1 REVERT JUMPDEST PUSH2 0x1310 DUP4 DUP4 DUP4 PUSH2 0x1D5F JUMP JUMPDEST POP POP POP JUMP JUMPDEST PUSH0 DUP2 SUB PUSH2 0x134E JUMPI PUSH1 0x40 MLOAD PUSH32 0x1F2A200500000000000000000000000000000000000000000000000000000000 DUP2 MSTORE PUSH1 0x4 ADD PUSH1 0x40 MLOAD DUP1 SWAP2 SUB SWAP1 REVERT JUMPDEST DUP1 SELFBALANCE LT ISZERO PUSH2 0x1388 JUMPI PUSH1 0x40 MLOAD PUSH32 0x6A12F10400000000000000000000000000000000000000000000000000000000 DUP2 MSTORE PUSH1 0x4 ADD PUSH1 0x40 MLOAD DUP1 SWAP2 SUB SWAP1 REVERT JUMPDEST PUSH0 DUP3 PUSH20 0xFFFFFFFFFFFFFFFFFFFFFFFFFFFFFFFFFFFFFFFF AND DUP3 PUSH1 0x40 MLOAD PUSH2 0x13AD SWAP1 PUSH2 0x4928 JUMP JUMPDEST PUSH0 PUSH1 0x40 MLOAD DUP1 DUP4 SUB DUP2 DUP6 DUP8 GAS CALL SWAP3 POP POP POP RETURNDATASIZE DUP1 PUSH0 DUP2 EQ PUSH2 0x13E7 JUMPI PUSH1 0x40 MLOAD SWAP2 POP PUSH1 0x1F NOT PUSH1 0x3F RETURNDATASIZE ADD AND DUP3 ADD PUSH1 0x40 MSTORE RETURNDATASIZE DUP3 MSTORE RETURNDATASIZE PUSH0 PUSH1 0x20 DUP5 ADD RETURNDATACOPY PUSH2 0x13EC JUMP JUMPDEST PUSH1 0x60 SWAP2 POP JUMPDEST POP POP SWAP1 POP DUP1 PUSH2 0x1427 JUMPI PUSH1 0x40 MLOAD PUSH32 0xCEF4EED700000000000000000000000000000000000000000000000000000000 DUP2 MSTORE PUSH1 0x4 ADD PUSH1 0x40 MLOAD DUP1 SWAP2 SUB SWAP1 REVERT JUMPDEST POP POP POP JUMP JUMPDEST PUSH1 0x1 DUP1 DUP2 SWAP1 SSTORE POP JUMP JUMPDEST PUSH2 0x143D PUSH2 0x3DF5 JUMP JUMPDEST PUSH0 PUSH32 0x0 SWAP1 POP PUSH0 DUP7 DUP7 SWAP1 POP SWAP1 POP DUP1 PUSH8 0xFFFFFFFFFFFFFFFF DUP2 GT ISZERO PUSH2 0x1482 JUMPI PUSH2 0x1481 PUSH2 0x40A4 JUMP JUMPDEST JUMPDEST PUSH1 0x40 MLOAD SWAP1 DUP1 DUP3 MSTORE DUP1 PUSH1 0x20 MUL PUSH1 0x20 ADD DUP3 ADD PUSH1 0x40 MSTORE DUP1 ISZERO PUSH2 0x14B5 JUMPI DUP2 PUSH1 0x20 ADD JUMPDEST PUSH1 0x60 DUP2 MSTORE PUSH1 0x20 ADD SWAP1 PUSH1 0x1 SWAP1 SUB SWAP1 DUP2 PUSH2 0x14A0 JUMPI SWAP1 POP JUMPDEST POP DUP4 PUSH1 0x20 ADD DUP2 SWAP1 MSTORE POP DUP1 PUSH8 0xFFFFFFFFFFFFFFFF DUP2 GT ISZERO PUSH2 0x14D8 JUMPI PUSH2 0x14D7 PUSH2 0x40A4 JUMP JUMPDEST JUMPDEST PUSH1 0x40 MLOAD SWAP1 DUP1 DUP3 MSTORE DUP1 PUSH1 0x1F ADD PUSH1 0x1F NOT AND PUSH1 0x20 ADD DUP3 ADD PUSH1 0x40 MSTORE DUP1 ISZERO PUSH2 0x150A JUMPI DUP2 PUSH1 0x20 ADD PUSH1 0x1 DUP3 MUL DUP1 CALLDATASIZE DUP4 CALLDATACOPY DUP1 DUP3 ADD SWAP2 POP POP SWAP1 POP JUMPDEST POP DUP4 PUSH0 ADD DUP2 SWAP1 MSTORE POP PUSH0 PUSH0 SWAP1 POP JUMPDEST DUP2 DUP2 LT ISZERO PUSH2 0x17BD JUMPI PUSH0 DUP9 DUP9 DUP4 DUP2 DUP2 LT PUSH2 0x1533 JUMPI PUSH2 0x1532 PUSH2 0x46B5 JUMP JUMPDEST JUMPDEST SWAP1 POP PUSH1 0x40 MUL ADD PUSH0 ADD PUSH1 0x20 DUP2 ADD SWAP1 PUSH2 0x154A SWAP2 SWAP1 PUSH2 0x4464 JUMP JUMPDEST SWAP1 POP PUSH0 DUP10 DUP10 DUP5 DUP2 DUP2 LT PUSH2 0x1560 JUMPI PUSH2 0x155F PUSH2 0x46B5 JUMP JUMPDEST JUMPDEST SWAP1 POP PUSH1 0x40 MUL ADD PUSH1 0x20 ADD CALLDATALOAD SWAP1 POP PUSH0 DUP2 SUB PUSH2 0x157A JUMPI POP POP PUSH2 0x17B2 JUMP JUMPDEST PUSH0 PUSH20 0xFFFFFFFFFFFFFFFFFFFFFFFFFFFFFFFFFFFFFFFF AND DUP3 PUSH20 0xFFFFFFFFFFFFFFFFFFFFFFFFFFFFFFFFFFFFFFFF AND SUB PUSH2 0x15DF JUMPI PUSH1 0x40 MLOAD PUSH32 0x7401D93100000000000000000000000000000000000000000000000000000000 DUP2 MSTORE PUSH1 0x4 ADD PUSH1 0x40 MLOAD DUP1 SWAP2 SUB SWAP1 REVERT JUMPDEST PUSH0 DUP6 PUSH20 0xFFFFFFFFFFFFFFFFFFFFFFFFFFFFFFFFFFFFFFFF AND DUP4 PUSH20 0xFFFFFFFFFFFFFFFFFFFFFFFFFFFFFFFFFFFFFFFF AND EQ SWAP1 POP PUSH0 DUP9 ISZERO PUSH2 0x16E6 JUMPI PUSH0 DUP5 PUSH20 0xFFFFFFFFFFFFFFFFFFFFFFFFFFFFFFFFFFFFFFFF AND PUSH4 0x70A08231 ADDRESS PUSH1 0x40 MLOAD DUP3 PUSH4 0xFFFFFFFF AND PUSH1 0xE0 SHL DUP2 MSTORE PUSH1 0x4 ADD PUSH2 0x1652 SWAP2 SWAP1 PUSH2 0x421E JUMP JUMPDEST PUSH1 0x20 PUSH1 0x40 MLOAD DUP1 DUP4 SUB DUP2 DUP7 GAS STATICCALL ISZERO DUP1 ISZERO PUSH2 0x166D JUMPI RETURNDATASIZE PUSH0 PUSH0 RETURNDATACOPY RETURNDATASIZE PUSH0 REVERT JUMPDEST POP POP POP POP PUSH1 0x40 MLOAD RETURNDATASIZE PUSH1 0x1F NOT PUSH1 0x1F DUP3 ADD AND DUP3 ADD DUP1 PUSH1 0x40 MSTORE POP DUP2 ADD SWAP1 PUSH2 0x1691 SWAP2 SWAP1 PUSH2 0x4622 JUMP JUMPDEST SWAP1 POP DUP4 DUP2 LT ISZERO PUSH2 0x16CD JUMPI PUSH1 0x40 MLOAD PUSH32 0x6998F5B00000000000000000000000000000000000000000000000000000000 DUP2 MSTORE PUSH1 0x4 ADD PUSH1 0x40 MLOAD DUP1 SWAP2 SUB SWAP1 REVERT JUMPDEST DUP3 ISZERO PUSH2 0x16DD JUMPI POP POP POP POP POP PUSH2 0x17B2 JUMP JUMPDEST DUP4 SWAP2 POP POP PUSH2 0x171A JUMP JUMPDEST PUSH0 PUSH2 0x16F2 DUP6 DUP6 CALLER PUSH2 0x1EAE JUMP JUMPDEST SWAP1 POP DUP3 ISZERO PUSH2 0x1704 JUMPI POP POP POP POP POP PUSH2 0x17B2 JUMP JUMPDEST DUP1 SWAP2 POP PUSH0 DUP3 SUB PUSH2 0x1718 JUMPI POP POP POP POP POP PUSH2 0x17B2 JUMP JUMPDEST POP JUMPDEST PUSH0 PUSH0 PUSH2 0x1728 DUP7 DUP5 ADDRESS DUP16 PUSH2 0x20E9 JUMP JUMPDEST SWAP2 POP SWAP2 POP DUP2 DUP11 PUSH0 ADD MLOAD DUP12 PUSH1 0x40 ADD MLOAD DUP2 MLOAD DUP2 LT PUSH2 0x1747 JUMPI PUSH2 0x1746 PUSH2 0x46B5 JUMP JUMPDEST JUMPDEST PUSH1 0x20 ADD ADD SWAP1 PUSH31 0xFFFFFFFFFFFFFFFFFFFFFFFFFFFFFFFFFFFFFFFFFFFFFFFFFFFFFFFFFFFFFF NOT AND SWAP1 DUP2 PUSH0 BYTE SWAP1 MSTORE8 POP DUP1 DUP11 PUSH1 0x20 ADD MLOAD DUP12 PUSH1 0x40 ADD MLOAD DUP2 MLOAD DUP2 LT PUSH2 0x1791 JUMPI PUSH2 0x1790 PUSH2 0x46B5 JUMP JUMPDEST JUMPDEST PUSH1 0x20 MUL PUSH1 0x20 ADD ADD DUP2 SWAP1 MSTORE POP DUP10 PUSH1 0x40 ADD DUP1 MLOAD PUSH1 0x1 ADD SWAP1 DUP2 DUP2 MSTORE POP POP POP POP POP POP POP POP JUMPDEST DUP1 PUSH1 0x1 ADD SWAP1 POP PUSH2 0x1517 JUMP JUMPDEST POP POP POP SWAP5 SWAP4 POP POP POP POP JUMP JUMPDEST DUP3 PUSH20 0xFFFFFFFFFFFFFFFFFFFFFFFFFFFFFFFFFFFFFFFF AND PUSH4 0x2E1A7D4D DUP4 PUSH1 0x40 MLOAD DUP3 PUSH4 0xFFFFFFFF AND PUSH1 0xE0 SHL DUP2 MSTORE PUSH1 0x4 ADD PUSH2 0x1801 SWAP2 SWAP1 PUSH2 0x494B JUMP JUMPDEST PUSH0 PUSH1 0x40 MLOAD DUP1 DUP4 SUB DUP2 PUSH0 DUP8 DUP1 EXTCODESIZE ISZERO DUP1 ISZERO PUSH2 0x1818 JUMPI PUSH0 PUSH0 REVERT JUMPDEST POP GAS CALL ISZERO DUP1 ISZERO PUSH2 0x182A JUMPI RETURNDATASIZE PUSH0 PUSH0 RETURNDATACOPY RETURNDATASIZE PUSH0 REVERT JUMPDEST POP POP POP POP PUSH0 DUP2 PUSH20 0xFFFFFFFFFFFFFFFFFFFFFFFFFFFFFFFFFFFFFFFF AND DUP4 PUSH1 0x40 MLOAD PUSH2 0x1853 SWAP1 PUSH2 0x4928 JUMP JUMPDEST PUSH0 PUSH1 0x40 MLOAD DUP1 DUP4 SUB DUP2 DUP6 DUP8 GAS CALL SWAP3 POP POP POP RETURNDATASIZE DUP1 PUSH0 DUP2 EQ PUSH2 0x188D JUMPI PUSH1 0x40 MLOAD SWAP2 POP PUSH1 0x1F NOT PUSH1 0x3F RETURNDATASIZE ADD AND DUP3 ADD PUSH1 0x40 MSTORE RETURNDATASIZE DUP3 MSTORE RETURNDATASIZE PUSH0 PUSH1 0x20 DUP5 ADD RETURNDATACOPY PUSH2 0x1892 JUMP JUMPDEST PUSH1 0x60 SWAP2 POP JUMPDEST POP POP SWAP1 POP DUP1 PUSH2 0x18CD JUMPI PUSH1 0x40 MLOAD PUSH32 0xB2F8AAAA00000000000000000000000000000000000000000000000000000000 DUP2 MSTORE PUSH1 0x4 ADD PUSH1 0x40 MLOAD DUP1 SWAP2 SUB SWAP1 REVERT JUMPDEST POP POP POP POP JUMP JUMPDEST PUSH0 PUSH20 0xFFFFFFFFFFFFFFFFFFFFFFFFFFFFFFFFFFFFFFFF AND DUP2 PUSH20 0xFFFFFFFFFFFFFFFFFFFFFFFFFFFFFFFFFFFFFFFF AND SUB PUSH2 0x1941 JUMPI PUSH1 0x40 MLOAD PUSH32 0x8C379A000000000000000000000000000000000000000000000000000000000 DUP2 MSTORE PUSH1 0x4 ADD PUSH2 0x1938 SWAP1 PUSH2 0x49AE JUMP JUMPDEST PUSH1 0x40 MLOAD DUP1 SWAP2 SUB SWAP1 REVERT JUMPDEST PUSH0 DUP2 PUSH20 0xFFFFFFFFFFFFFFFFFFFFFFFFFFFFFFFFFFFFFFFF AND EXTCODESIZE GT PUSH2 0x199A JUMPI PUSH1 0x40 MLOAD PUSH32 0x8C379A000000000000000000000000000000000000000000000000000000000 DUP2 MSTORE PUSH1 0x4 ADD PUSH2 0x1991 SWAP1 PUSH2 0x4A16 JUMP JUMPDEST PUSH1 0x40 MLOAD DUP1 SWAP2 SUB SWAP1 REVERT JUMPDEST DUP1 PUSH20 0xFFFFFFFFFFFFFFFFFFFFFFFFFFFFFFFFFFFFFFFF AND PUSH4 0x8DA5CB5B PUSH1 0x40 MLOAD DUP2 PUSH4 0xFFFFFFFF AND PUSH1 0xE0 SHL DUP2 MSTORE PUSH1 0x4 ADD PUSH1 0x20 PUSH1 0x40 MLOAD DUP1 DUP4 SUB DUP2 DUP7 GAS STATICCALL SWAP3 POP POP POP DUP1 ISZERO PUSH2 0x1A02 JUMPI POP PUSH1 0x40 MLOAD RETURNDATASIZE PUSH1 0x1F NOT PUSH1 0x1F DUP3 ADD AND DUP3 ADD DUP1 PUSH1 0x40 MSTORE POP DUP2 ADD SWAP1 PUSH2 0x19FF SWAP2 SWAP1 PUSH2 0x44DC JUMP JUMPDEST PUSH1 0x1 JUMPDEST PUSH2 0x1A41 JUMPI PUSH1 0x40 MLOAD PUSH32 0x8C379A000000000000000000000000000000000000000000000000000000000 DUP2 MSTORE PUSH1 0x4 ADD PUSH2 0x1A38 SWAP1 PUSH2 0x4AA4 JUMP JUMPDEST PUSH1 0x40 MLOAD DUP1 SWAP2 SUB SWAP1 REVERT JUMPDEST DUP2 PUSH0 PUSH0 PUSH2 0x100 EXP DUP2 SLOAD DUP2 PUSH20 0xFFFFFFFFFFFFFFFFFFFFFFFFFFFFFFFFFFFFFFFF MUL NOT AND SWAP1 DUP4 PUSH20 0xFFFFFFFFFFFFFFFFFFFFFFFFFFFFFFFFFFFFFFFF AND MUL OR SWAP1 SSTORE POP POP POP JUMP JUMPDEST PUSH0 PUSH20 0xFFFFFFFFFFFFFFFFFFFFFFFFFFFFFFFFFFFFFFFF AND DUP3 PUSH20 0xFFFFFFFFFFFFFFFFFFFFFFFFFFFFFFFFFFFFFFFF AND SUB PUSH2 0x1AC6 JUMPI PUSH2 0x1AC1 DUP2 SELFBALANCE PUSH2 0x1315 JUMP JUMPDEST PUSH2 0x1B57 JUMP JUMPDEST PUSH0 DUP3 PUSH20 0xFFFFFFFFFFFFFFFFFFFFFFFFFFFFFFFFFFFFFFFF AND PUSH4 0x70A08231 ADDRESS PUSH1 0x40 MLOAD DUP3 PUSH4 0xFFFFFFFF AND PUSH1 0xE0 SHL DUP2 MSTORE PUSH1 0x4 ADD PUSH2 0x1B00 SWAP2 SWAP1 PUSH2 0x421E JUMP JUMPDEST PUSH1 0x20 PUSH1 0x40 MLOAD DUP1 DUP4 SUB DUP2 DUP7 GAS STATICCALL ISZERO DUP1 ISZERO PUSH2 0x1B1B JUMPI RETURNDATASIZE PUSH0 PUSH0 RETURNDATACOPY RETURNDATASIZE PUSH0 REVERT JUMPDEST POP POP POP POP PUSH1 0x40 MLOAD RETURNDATASIZE PUSH1 0x1F NOT PUSH1 0x1F DUP3 ADD AND DUP3 ADD DUP1 PUSH1 0x40 MSTORE POP DUP2 ADD SWAP1 PUSH2 0x1B3F SWAP2 SWAP1 PUSH2 0x4622 JUMP JUMPDEST SWAP1 POP PUSH0 DUP2 GT ISZERO PUSH2 0x1B55 JUMPI PUSH2 0x1B54 DUP4 DUP4 DUP4 PUSH2 0x1D5F JUMP JUMPDEST JUMPDEST POP JUMPDEST POP POP JUMP JUMPDEST PUSH0 PUSH1 0x60 PUSH0 DUP6 SUB PUSH2 0x1B81 JUMPI PUSH0 PUSH1 0xF8 SHL PUSH1 0x40 MLOAD DUP1 PUSH1 0x20 ADD PUSH1 0x40 MSTORE DUP1 PUSH0 DUP2 MSTORE POP SWAP2 POP SWAP2 POP PUSH2 0x1D56 JUMP JUMPDEST PUSH0 PUSH2 0x1B8A PUSH2 0x23A9 JUMP JUMPDEST PUSH20 0xFFFFFFFFFFFFFFFFFFFFFFFFFFFFFFFFFFFFFFFF AND PUSH4 0xD32563C8 DUP9 PUSH1 0x40 MLOAD DUP3 PUSH4 0xFFFFFFFF AND PUSH1 0xE0 SHL DUP2 MSTORE PUSH1 0x4 ADD PUSH2 0x1BC2 SWAP2 SWAP1 PUSH2 0x421E JUMP JUMPDEST PUSH1 0x80 PUSH1 0x40 MLOAD DUP1 DUP4 SUB DUP2 PUSH0 DUP8 GAS CALL ISZERO DUP1 ISZERO PUSH2 0x1BDE JUMPI RETURNDATASIZE PUSH0 PUSH0 RETURNDATACOPY RETURNDATASIZE PUSH0 REVERT JUMPDEST POP POP POP POP PUSH1 0x40 MLOAD RETURNDATASIZE PUSH1 0x1F NOT PUSH1 0x1F DUP3 ADD AND DUP3 ADD DUP1 PUSH1 0x40 MSTORE POP DUP2 ADD SWAP1 PUSH2 0x1C02 SWAP2 SWAP1 PUSH2 0x4BE6 JUMP JUMPDEST SWAP1 POP PUSH0 PUSH20 0xFFFFFFFFFFFFFFFFFFFFFFFFFFFFFFFFFFFFFFFF AND DUP2 PUSH0 ADD MLOAD PUSH20 0xFFFFFFFFFFFFFFFFFFFFFFFFFFFFFFFFFFFFFFFF AND SUB PUSH2 0x1C6C JUMPI PUSH1 0x40 MLOAD PUSH32 0x791C2FED00000000000000000000000000000000000000000000000000000000 DUP2 MSTORE PUSH1 0x4 ADD PUSH1 0x40 MLOAD DUP1 SWAP2 SUB SWAP1 REVERT JUMPDEST PUSH0 PUSH1 0x1 DUP3 PUSH1 0x40 ADD MLOAD PUSH1 0xFF AND SUB PUSH2 0x1CEE JUMPI PUSH2 0x1CAD PUSH32 0x0 DUP10 DUP5 PUSH1 0x20 ADD MLOAD DUP11 DUP10 PUSH2 0x23ED JUMP JUMPDEST SWAP1 POP PUSH2 0x1CE1 PUSH32 0x0 DUP10 DUP5 PUSH1 0x20 ADD MLOAD DUP11 DUP6 DUP12 PUSH2 0x28CF JUMP JUMPDEST SWAP3 POP PUSH0 PUSH1 0xF8 SHL SWAP4 POP PUSH2 0x1D53 JUMP JUMPDEST PUSH2 0x1D1A PUSH32 0x0 DUP10 DUP10 DUP9 PUSH2 0x29A5 JUMP JUMPDEST SWAP1 POP PUSH2 0x1D49 PUSH32 0x0 DUP10 DUP10 DUP5 DUP11 PUSH2 0x2CFD JUMP JUMPDEST SWAP3 POP PUSH1 0x8 PUSH1 0xF8 SHL SWAP4 POP JUMPDEST POP POP JUMPDEST SWAP5 POP SWAP5 SWAP3 POP POP POP JUMP JUMPDEST PUSH0 PUSH0 DUP5 PUSH20 0xFFFFFFFFFFFFFFFFFFFFFFFFFFFFFFFFFFFFFFFF AND PUSH4 0xA9059CBB PUSH1 0xE0 SHL DUP6 DUP6 PUSH1 0x40 MLOAD PUSH1 0x24 ADD PUSH2 0x1D93 SWAP3 SWAP2 SWAP1 PUSH2 0x4C11 JUMP JUMPDEST PUSH1 0x40 MLOAD PUSH1 0x20 DUP2 DUP4 SUB SUB DUP2 MSTORE SWAP1 PUSH1 0x40 MSTORE SWAP1 PUSH28 0xFFFFFFFFFFFFFFFFFFFFFFFFFFFFFFFFFFFFFFFFFFFFFFFFFFFFFFFF NOT AND PUSH1 0x20 DUP3 ADD DUP1 MLOAD PUSH28 0xFFFFFFFFFFFFFFFFFFFFFFFFFFFFFFFFFFFFFFFFFFFFFFFFFFFFFFFF DUP4 DUP2 DUP4 AND OR DUP4 MSTORE POP POP POP POP PUSH1 0x40 MLOAD PUSH2 0x1DFD SWAP2 SWAP1 PUSH2 0x4C68 JUMP JUMPDEST PUSH0 PUSH1 0x40 MLOAD DUP1 DUP4 SUB DUP2 PUSH0 DUP7 GAS CALL SWAP2 POP POP RETURNDATASIZE DUP1 PUSH0 DUP2 EQ PUSH2 0x1E36 JUMPI PUSH1 0x40 MLOAD SWAP2 POP PUSH1 0x1F NOT PUSH1 0x3F RETURNDATASIZE ADD AND DUP3 ADD PUSH1 0x40 MSTORE RETURNDATASIZE DUP3 MSTORE RETURNDATASIZE PUSH0 PUSH1 0x20 DUP5 ADD RETURNDATACOPY PUSH2 0x1E3B JUMP JUMPDEST PUSH1 0x60 SWAP2 POP JUMPDEST POP SWAP2 POP SWAP2 POP DUP2 DUP1 ISZERO PUSH2 0x1E68 JUMPI POP PUSH0 DUP2 MLOAD EQ DUP1 PUSH2 0x1E67 JUMPI POP DUP1 DUP1 PUSH1 0x20 ADD SWAP1 MLOAD DUP2 ADD SWAP1 PUSH2 0x1E66 SWAP2 SWAP1 PUSH2 0x4C92 JUMP JUMPDEST JUMPDEST JUMPDEST PUSH2 0x1EA7 JUMPI PUSH1 0x40 MLOAD PUSH32 0x8C379A000000000000000000000000000000000000000000000000000000000 DUP2 MSTORE PUSH1 0x4 ADD PUSH2 0x1E9E SWAP1 PUSH2 0x4D07 JUMP JUMPDEST PUSH1 0x40 MLOAD DUP1 SWAP2 SUB SWAP1 REVERT JUMPDEST POP POP POP POP POP JUMP JUMPDEST PUSH0 PUSH0 DUP4 SUB PUSH2 0x1EE8 JUMPI PUSH1 0x40 MLOAD PUSH32 0x1F2A200500000000000000000000000000000000000000000000000000000000 DUP2 MSTORE PUSH1 0x4 ADD PUSH1 0x40 MLOAD DUP1 SWAP2 SUB SWAP1 REVERT JUMPDEST PUSH0 DUP5 PUSH20 0xFFFFFFFFFFFFFFFFFFFFFFFFFFFFFFFFFFFFFFFF AND PUSH4 0xDD62ED3E DUP5 ADDRESS PUSH1 0x40 MLOAD DUP4 PUSH4 0xFFFFFFFF AND PUSH1 0xE0 SHL DUP2 MSTORE PUSH1 0x4 ADD PUSH2 0x1F24 SWAP3 SWAP2 SWAP1 PUSH2 0x4D25 JUMP JUMPDEST PUSH1 0x20 PUSH1 0x40 MLOAD DUP1 DUP4 SUB DUP2 DUP7 GAS STATICCALL ISZERO DUP1 ISZERO PUSH2 0x1F3F JUMPI RETURNDATASIZE PUSH0 PUSH0 RETURNDATACOPY RETURNDATASIZE PUSH0 REVERT JUMPDEST POP POP POP POP PUSH1 0x40 MLOAD RETURNDATASIZE PUSH1 0x1F NOT PUSH1 0x1F DUP3 ADD AND DUP3 ADD DUP1 PUSH1 0x40 MSTORE POP DUP2 ADD SWAP1 PUSH2 0x1F63 SWAP2 SWAP1 PUSH2 0x4622 JUMP JUMPDEST SWAP1 POP DUP4 DUP2 LT ISZERO PUSH2 0x1F9F JUMPI PUSH1 0x40 MLOAD PUSH32 0xBAC9B5E800000000000000000000000000000000000000000000000000000000 DUP2 MSTORE PUSH1 0x4 ADD PUSH1 0x40 MLOAD DUP1 SWAP2 SUB SWAP1 REVERT JUMPDEST PUSH0 DUP6 PUSH20 0xFFFFFFFFFFFFFFFFFFFFFFFFFFFFFFFFFFFFFFFF AND PUSH4 0x70A08231 ADDRESS PUSH1 0x40 MLOAD DUP3 PUSH4 0xFFFFFFFF AND PUSH1 0xE0 SHL DUP2 MSTORE PUSH1 0x4 ADD PUSH2 0x1FD9 SWAP2 SWAP1 PUSH2 0x421E JUMP JUMPDEST PUSH1 0x20 PUSH1 0x40 MLOAD DUP1 DUP4 SUB DUP2 DUP7 GAS STATICCALL ISZERO DUP1 ISZERO PUSH2 0x1FF4 JUMPI RETURNDATASIZE PUSH0 PUSH0 RETURNDATACOPY RETURNDATASIZE PUSH0 REVERT JUMPDEST POP POP POP POP PUSH1 0x40 MLOAD RETURNDATASIZE PUSH1 0x1F NOT PUSH1 0x1F DUP3 ADD AND DUP3 ADD DUP1 PUSH1 0x40 MSTORE POP DUP2 ADD SWAP1 PUSH2 0x2018 SWAP2 SWAP1 PUSH2 0x4622 JUMP JUMPDEST SWAP1 POP PUSH2 0x2026 DUP7 DUP6 ADDRESS DUP9 PUSH2 0x2E95 JUMP JUMPDEST PUSH0 DUP7 PUSH20 0xFFFFFFFFFFFFFFFFFFFFFFFFFFFFFFFFFFFFFFFF AND PUSH4 0x70A08231 ADDRESS PUSH1 0x40 MLOAD DUP3 PUSH4 0xFFFFFFFF AND PUSH1 0xE0 SHL DUP2 MSTORE PUSH1 0x4 ADD PUSH2 0x2060 SWAP2 SWAP1 PUSH2 0x421E JUMP JUMPDEST PUSH1 0x20 PUSH1 0x40 MLOAD DUP1 DUP4 SUB DUP2 DUP7 GAS STATICCALL ISZERO DUP1 ISZERO PUSH2 0x207B JUMPI RETURNDATASIZE PUSH0 PUSH0 RETURNDATACOPY RETURNDATASIZE PUSH0 REVERT JUMPDEST POP POP POP POP PUSH1 0x40 MLOAD RETURNDATASIZE PUSH1 0x1F NOT PUSH1 0x1F DUP3 ADD AND DUP3 ADD DUP1 PUSH1 0x40 MSTORE POP DUP2 ADD SWAP1 PUSH2 0x209F SWAP2 SWAP1 PUSH2 0x4622 JUMP JUMPDEST SWAP1 POP DUP2 DUP2 SUB SWAP4 POP PUSH0 DUP5 SUB PUSH2 0x20DF JUMPI PUSH1 0x40 MLOAD PUSH32 0xB5C74A2700000000000000000000000000000000000000000000000000000000 DUP2 MSTORE PUSH1 0x4 ADD PUSH1 0x40 MLOAD DUP1 SWAP2 SUB SWAP1 REVERT JUMPDEST POP POP POP SWAP4 SWAP3 POP POP POP JUMP JUMPDEST PUSH0 PUSH1 0x60 PUSH0 DUP6 SUB PUSH2 0x210F JUMPI PUSH0 PUSH1 0xF8 SHL PUSH1 0x40 MLOAD DUP1 PUSH1 0x20 ADD PUSH1 0x40 MSTORE DUP1 PUSH0 DUP2 MSTORE POP SWAP2 POP SWAP2 POP PUSH2 0x23A0 JUMP JUMPDEST PUSH0 PUSH20 0xFFFFFFFFFFFFFFFFFFFFFFFFFFFFFFFFFFFFFFFF AND DUP7 PUSH20 0xFFFFFFFFFFFFFFFFFFFFFFFFFFFFFFFFFFFFFFFF AND EQ DUP1 PUSH2 0x2194 JUMPI POP PUSH32 0x0 PUSH20 0xFFFFFFFFFFFFFFFFFFFFFFFFFFFFFFFFFFFFFFFF AND DUP7 PUSH20 0xFFFFFFFFFFFFFFFFFFFFFFFFFFFFFFFFFFFFFFFF AND EQ JUMPDEST ISZERO PUSH2 0x21CB JUMPI PUSH1 0x40 MLOAD PUSH32 0x7401D93100000000000000000000000000000000000000000000000000000000 DUP2 MSTORE PUSH1 0x4 ADD PUSH1 0x40 MLOAD DUP1 SWAP2 SUB SWAP1 REVERT JUMPDEST PUSH0 PUSH2 0x21D4 PUSH2 0x23A9 JUMP JUMPDEST PUSH20 0xFFFFFFFFFFFFFFFFFFFFFFFFFFFFFFFFFFFFFFFF AND PUSH4 0xD32563C8 DUP9 PUSH1 0x40 MLOAD DUP3 PUSH4 0xFFFFFFFF AND PUSH1 0xE0 SHL DUP2 MSTORE PUSH1 0x4 ADD PUSH2 0x220C SWAP2 SWAP1 PUSH2 0x421E JUMP JUMPDEST PUSH1 0x80 PUSH1 0x40 MLOAD DUP1 DUP4 SUB DUP2 PUSH0 DUP8 GAS CALL ISZERO DUP1 ISZERO PUSH2 0x2228 JUMPI RETURNDATASIZE PUSH0 PUSH0 RETURNDATACOPY RETURNDATASIZE PUSH0 REVERT JUMPDEST POP POP POP POP PUSH1 0x40 MLOAD RETURNDATASIZE PUSH1 0x1F NOT PUSH1 0x1F DUP3 ADD AND DUP3 ADD DUP1 PUSH1 0x40 MSTORE POP DUP2 ADD SWAP1 PUSH2 0x224C SWAP2 SWAP1 PUSH2 0x4BE6 JUMP JUMPDEST SWAP1 POP PUSH0 PUSH20 0xFFFFFFFFFFFFFFFFFFFFFFFFFFFFFFFFFFFFFFFF AND DUP2 PUSH0 ADD MLOAD PUSH20 0xFFFFFFFFFFFFFFFFFFFFFFFFFFFFFFFFFFFFFFFF AND SUB PUSH2 0x22B6 JUMPI PUSH1 0x40 MLOAD PUSH32 0x791C2FED00000000000000000000000000000000000000000000000000000000 DUP2 MSTORE PUSH1 0x4 ADD PUSH1 0x40 MLOAD DUP1 SWAP2 SUB SWAP1 REVERT JUMPDEST PUSH0 PUSH1 0x1 DUP3 PUSH1 0x40 ADD MLOAD PUSH1 0xFF AND SUB PUSH2 0x2338 JUMPI PUSH2 0x22F7 DUP9 PUSH32 0x0 DUP5 PUSH1 0x20 ADD MLOAD DUP11 DUP10 PUSH2 0x23ED JUMP JUMPDEST SWAP1 POP PUSH2 0x232B DUP9 PUSH32 0x0 DUP5 PUSH1 0x20 ADD MLOAD DUP11 DUP6 DUP12 PUSH2 0x28CF JUMP JUMPDEST SWAP3 POP PUSH0 PUSH1 0xF8 SHL SWAP4 POP PUSH2 0x239D JUMP JUMPDEST PUSH2 0x2364 DUP9 PUSH32 0x0 DUP10 DUP9 PUSH2 0x29A5 JUMP JUMPDEST SWAP1 POP PUSH2 0x2393 DUP9 PUSH32 0x0 DUP10 DUP5 DUP11 PUSH2 0x2CFD JUMP JUMPDEST SWAP3 POP PUSH1 0x8 PUSH1 0xF8 SHL SWAP4 POP JUMPDEST POP POP JUMPDEST SWAP5 POP SWAP5 SWAP3 POP POP POP JUMP JUMPDEST PUSH0 PUSH2 0x23E8 PUSH1 0x40 MLOAD DUP1 PUSH1 0x40 ADD PUSH1 0x40 MSTORE DUP1 PUSH1 0xB DUP2 MSTORE PUSH1 0x20 ADD PUSH32 0x706F6F6C2D66696E646572000000000000000000000000000000000000000000 DUP2 MSTORE POP PUSH2 0x819 JUMP JUMPDEST SWAP1 POP SWAP1 JUMP JUMPDEST PUSH0 PUSH0 DUP4 SUB PUSH2 0x23FD JUMPI PUSH0 SWAP1 POP PUSH2 0x28C6 JUMP JUMPDEST PUSH0 PUSH20 0xFFFFFFFFFFFFFFFFFFFFFFFFFFFFFFFFFFFFFFFF AND DUP7 PUSH20 0xFFFFFFFFFFFFFFFFFFFFFFFFFFFFFFFFFFFFFFFF AND EQ DUP1 PUSH2 0x2462 JUMPI POP PUSH0 PUSH20 0xFFFFFFFFFFFFFFFFFFFFFFFFFFFFFFFFFFFFFFFF AND DUP6 PUSH20 0xFFFFFFFFFFFFFFFFFFFFFFFFFFFFFFFFFFFFFFFF AND EQ JUMPDEST ISZERO PUSH2 0x2499 JUMPI PUSH1 0x40 MLOAD PUSH32 0xD92E233D00000000000000000000000000000000000000000000000000000000 DUP2 MSTORE PUSH1 0x4 ADD PUSH1 0x40 MLOAD DUP1 SWAP2 SUB SWAP1 REVERT JUMPDEST PUSH2 0x2710 DUP3 PUSH4 0xFFFFFFFF AND GT ISZERO PUSH2 0x24DB JUMPI PUSH1 0x40 MLOAD PUSH32 0x124955FB00000000000000000000000000000000000000000000000000000000 DUP2 MSTORE PUSH1 0x4 ADD PUSH1 0x40 MLOAD DUP1 SWAP2 SUB SWAP1 REVERT JUMPDEST PUSH0 PUSH32 0x0 PUSH20 0xFFFFFFFFFFFFFFFFFFFFFFFFFFFFFFFFFFFFFFFF AND PUSH4 0x1698EE82 DUP9 DUP9 DUP9 PUSH1 0x40 MLOAD DUP5 PUSH4 0xFFFFFFFF AND PUSH1 0xE0 SHL DUP2 MSTORE PUSH1 0x4 ADD PUSH2 0x2539 SWAP4 SWAP3 SWAP2 SWAP1 PUSH2 0x4D5B JUMP JUMPDEST PUSH1 0x20 PUSH1 0x40 MLOAD DUP1 DUP4 SUB DUP2 DUP7 GAS STATICCALL ISZERO DUP1 ISZERO PUSH2 0x2554 JUMPI RETURNDATASIZE PUSH0 PUSH0 RETURNDATACOPY RETURNDATASIZE PUSH0 REVERT JUMPDEST POP POP POP POP PUSH1 0x40 MLOAD RETURNDATASIZE PUSH1 0x1F NOT PUSH1 0x1F DUP3 ADD AND DUP3 ADD DUP1 PUSH1 0x40 MSTORE POP DUP2 ADD SWAP1 PUSH2 0x2578 SWAP2 SWAP1 PUSH2 0x44DC JUMP JUMPDEST SWAP1 POP PUSH0 PUSH20 0xFFFFFFFFFFFFFFFFFFFFFFFFFFFFFFFFFFFFFFFF AND DUP2 PUSH20 0xFFFFFFFFFFFFFFFFFFFFFFFFFFFFFFFFFFFFFFFF AND SUB PUSH2 0x25DF JUMPI PUSH1 0x40 MLOAD PUSH32 0x791C2FED00000000000000000000000000000000000000000000000000000000 DUP2 MSTORE PUSH1 0x4 ADD PUSH1 0x40 MLOAD DUP1 SWAP2 SUB SWAP1 REVERT JUMPDEST PUSH0 PUSH3 0xF4240 DUP7 PUSH3 0xFFFFFF AND PUSH3 0xF4240 PUSH2 0x25F8 SWAP2 SWAP1 PUSH2 0x4DBD JUMP JUMPDEST DUP7 PUSH2 0x2603 SWAP2 SWAP1 PUSH2 0x4DF0 JUMP JUMPDEST PUSH2 0x260D SWAP2 SWAP1 PUSH2 0x4E31 JUMP JUMPDEST SWAP1 POP PUSH0 DUP2 SUB PUSH2 0x2648 JUMPI PUSH1 0x40 MLOAD PUSH32 0x6EED12FF00000000000000000000000000000000000000000000000000000000 DUP2 MSTORE PUSH1 0x4 ADD PUSH1 0x40 MLOAD DUP1 SWAP2 SUB SWAP1 REVERT JUMPDEST PUSH0 PUSH16 0xFFFFFFFFFFFFFFFFFFFFFFFFFFFFFFFF DUP1 AND DUP3 GT PUSH2 0x2668 JUMPI DUP2 PUSH2 0x267A JUMP JUMPDEST PUSH16 0xFFFFFFFFFFFFFFFFFFFFFFFFFFFFFFFF JUMPDEST SWAP1 POP PUSH0 PUSH1 0xF SWAP1 POP PUSH0 PUSH0 PUSH1 0x2 PUSH8 0xFFFFFFFFFFFFFFFF DUP2 GT ISZERO PUSH2 0x269E JUMPI PUSH2 0x269D PUSH2 0x40A4 JUMP JUMPDEST JUMPDEST PUSH1 0x40 MLOAD SWAP1 DUP1 DUP3 MSTORE DUP1 PUSH1 0x20 MUL PUSH1 0x20 ADD DUP3 ADD PUSH1 0x40 MSTORE DUP1 ISZERO PUSH2 0x26CC JUMPI DUP2 PUSH1 0x20 ADD PUSH1 0x20 DUP3 MUL DUP1 CALLDATASIZE DUP4 CALLDATACOPY DUP1 DUP3 ADD SWAP2 POP POP SWAP1 POP JUMPDEST POP SWAP1 POP DUP3 DUP2 PUSH0 DUP2 MLOAD DUP2 LT PUSH2 0x26E3 JUMPI PUSH2 0x26E2 PUSH2 0x46B5 JUMP JUMPDEST JUMPDEST PUSH1 0x20 MUL PUSH1 0x20 ADD ADD SWAP1 PUSH4 0xFFFFFFFF AND SWAP1 DUP2 PUSH4 0xFFFFFFFF AND DUP2 MSTORE POP POP PUSH0 DUP2 PUSH1 0x1 DUP2 MLOAD DUP2 LT PUSH2 0x2712 JUMPI PUSH2 0x2711 PUSH2 0x46B5 JUMP JUMPDEST JUMPDEST PUSH1 0x20 MUL PUSH1 0x20 ADD ADD SWAP1 PUSH4 0xFFFFFFFF AND SWAP1 DUP2 PUSH4 0xFFFFFFFF AND DUP2 MSTORE POP POP DUP6 PUSH20 0xFFFFFFFFFFFFFFFFFFFFFFFFFFFFFFFFFFFFFFFF AND PUSH4 0x883BDBFD DUP3 PUSH1 0x40 MLOAD DUP3 PUSH4 0xFFFFFFFF AND PUSH1 0xE0 SHL DUP2 MSTORE PUSH1 0x4 ADD PUSH2 0x2765 SWAP2 SWAP1 PUSH2 0x4F18 JUMP JUMPDEST PUSH0 PUSH1 0x40 MLOAD DUP1 DUP4 SUB DUP2 DUP7 GAS STATICCALL SWAP3 POP POP POP DUP1 ISZERO PUSH2 0x27A2 JUMPI POP PUSH1 0x40 MLOAD RETURNDATASIZE PUSH0 DUP3 RETURNDATACOPY RETURNDATASIZE PUSH1 0x1F NOT PUSH1 0x1F DUP3 ADD AND DUP3 ADD DUP1 PUSH1 0x40 MSTORE POP DUP2 ADD SWAP1 PUSH2 0x279F SWAP2 SWAP1 PUSH2 0x5118 JUMP JUMPDEST PUSH1 0x1 JUMPDEST PUSH2 0x2825 JUMPI PUSH0 DUP7 PUSH20 0xFFFFFFFFFFFFFFFFFFFFFFFFFFFFFFFFFFFFFFFF AND PUSH4 0x3850C7BD PUSH1 0x40 MLOAD DUP2 PUSH4 0xFFFFFFFF AND PUSH1 0xE0 SHL DUP2 MSTORE PUSH1 0x4 ADD PUSH1 0xE0 PUSH1 0x40 MLOAD DUP1 DUP4 SUB DUP2 DUP7 GAS STATICCALL ISZERO DUP1 ISZERO PUSH2 0x27F0 JUMPI RETURNDATASIZE PUSH0 PUSH0 RETURNDATACOPY RETURNDATASIZE PUSH0 REVERT JUMPDEST POP POP POP POP PUSH1 0x40 MLOAD RETURNDATASIZE PUSH1 0x1F NOT PUSH1 0x1F DUP3 ADD AND DUP3 ADD DUP1 PUSH1 0x40 MSTORE POP DUP2 ADD SWAP1 PUSH2 0x2814 SWAP2 SWAP1 PUSH2 0x51D8 JUMP JUMPDEST POP POP POP POP POP SWAP2 POP POP DUP1 SWAP3 POP POP PUSH2 0x286A JUMP JUMPDEST PUSH2 0x2865 DUP3 PUSH0 DUP2 MLOAD DUP2 LT PUSH2 0x283B JUMPI PUSH2 0x283A PUSH2 0x46B5 JUMP JUMPDEST JUMPDEST PUSH1 0x20 MUL PUSH1 0x20 ADD ADD MLOAD DUP4 PUSH1 0x1 DUP2 MLOAD DUP2 LT PUSH2 0x2857 JUMPI PUSH2 0x2856 PUSH2 0x46B5 JUMP JUMPDEST JUMPDEST PUSH1 0x20 MUL PUSH1 0x20 ADD ADD MLOAD DUP8 PUSH2 0x2FE7 JUMP JUMPDEST SWAP4 POP POP POP JUMPDEST POP PUSH0 PUSH2 0x2878 DUP3 DUP6 DUP15 DUP15 PUSH2 0x3006 JUMP JUMPDEST SWAP1 POP PUSH0 DUP2 SUB PUSH2 0x28B3 JUMPI PUSH1 0x40 MLOAD PUSH32 0x6EED12FF00000000000000000000000000000000000000000000000000000000 DUP2 MSTORE PUSH1 0x4 ADD PUSH1 0x40 MLOAD DUP1 SWAP2 SUB SWAP1 REVERT JUMPDEST PUSH2 0x28BD DUP2 DUP10 PUSH2 0x320F JUMP JUMPDEST SWAP7 POP POP POP POP POP POP POP JUMPDEST SWAP6 SWAP5 POP POP POP POP POP JUMP JUMPDEST PUSH1 0x60 PUSH2 0x28FC DUP8 PUSH32 0x0 DUP7 PUSH2 0x3286 JUMP JUMPDEST PUSH2 0x2948 PUSH32 0x0 DUP9 PUSH32 0x0 DUP8 PUSH2 0x3350 JUMP JUMPDEST PUSH0 DUP8 DUP7 DUP9 PUSH1 0x40 MLOAD PUSH1 0x20 ADD PUSH2 0x295E SWAP4 SWAP3 SWAP2 SWAP1 PUSH2 0x52EE JUMP JUMPDEST PUSH1 0x40 MLOAD PUSH1 0x20 DUP2 DUP4 SUB SUB DUP2 MSTORE SWAP1 PUSH1 0x40 MSTORE SWAP1 POP DUP3 DUP6 DUP6 DUP4 PUSH1 0x1 PUSH1 0x40 MLOAD PUSH1 0x20 ADD PUSH2 0x2989 SWAP6 SWAP5 SWAP4 SWAP3 SWAP2 SWAP1 PUSH2 0x5339 JUMP JUMPDEST PUSH1 0x40 MLOAD PUSH1 0x20 DUP2 DUP4 SUB SUB DUP2 MSTORE SWAP1 PUSH1 0x40 MSTORE SWAP2 POP POP SWAP7 SWAP6 POP POP POP POP POP POP JUMP JUMPDEST PUSH0 PUSH0 DUP4 SUB PUSH2 0x29B5 JUMPI PUSH0 SWAP1 POP PUSH2 0x2CF5 JUMP JUMPDEST PUSH0 PUSH20 0xFFFFFFFFFFFFFFFFFFFFFFFFFFFFFFFFFFFFFFFF AND DUP6 PUSH20 0xFFFFFFFFFFFFFFFFFFFFFFFFFFFFFFFFFFFFFFFF AND EQ DUP1 PUSH2 0x2A1A JUMPI POP PUSH0 PUSH20 0xFFFFFFFFFFFFFFFFFFFFFFFFFFFFFFFFFFFFFFFF AND DUP5 PUSH20 0xFFFFFFFFFFFFFFFFFFFFFFFFFFFFFFFFFFFFFFFF AND EQ JUMPDEST ISZERO PUSH2 0x2A51 JUMPI PUSH1 0x40 MLOAD PUSH32 0xD92E233D00000000000000000000000000000000000000000000000000000000 DUP2 MSTORE PUSH1 0x4 ADD PUSH1 0x40 MLOAD DUP1 SWAP2 SUB SWAP1 REVERT JUMPDEST PUSH2 0x2710 DUP3 PUSH4 0xFFFFFFFF AND GT ISZERO PUSH2 0x2A93 JUMPI PUSH1 0x40 MLOAD PUSH32 0x124955FB00000000000000000000000000000000000000000000000000000000 DUP2 MSTORE PUSH1 0x4 ADD PUSH1 0x40 MLOAD DUP1 SWAP2 SUB SWAP1 REVERT JUMPDEST PUSH0 PUSH1 0x2 PUSH8 0xFFFFFFFFFFFFFFFF DUP2 GT ISZERO PUSH2 0x2AAF JUMPI PUSH2 0x2AAE PUSH2 0x40A4 JUMP JUMPDEST JUMPDEST PUSH1 0x40 MLOAD SWAP1 DUP1 DUP3 MSTORE DUP1 PUSH1 0x20 MUL PUSH1 0x20 ADD DUP3 ADD PUSH1 0x40 MSTORE DUP1 ISZERO PUSH2 0x2ADD JUMPI DUP2 PUSH1 0x20 ADD PUSH1 0x20 DUP3 MUL DUP1 CALLDATASIZE DUP4 CALLDATACOPY DUP1 DUP3 ADD SWAP2 POP POP SWAP1 POP JUMPDEST POP SWAP1 POP DUP6 DUP2 PUSH0 DUP2 MLOAD DUP2 LT PUSH2 0x2AF4 JUMPI PUSH2 0x2AF3 PUSH2 0x46B5 JUMP JUMPDEST JUMPDEST PUSH1 0x20 MUL PUSH1 0x20 ADD ADD SWAP1 PUSH20 0xFFFFFFFFFFFFFFFFFFFFFFFFFFFFFFFFFFFFFFFF AND SWAP1 DUP2 PUSH20 0xFFFFFFFFFFFFFFFFFFFFFFFFFFFFFFFFFFFFFFFF AND DUP2 MSTORE POP POP DUP5 DUP2 PUSH1 0x1 DUP2 MLOAD DUP2 LT PUSH2 0x2B43 JUMPI PUSH2 0x2B42 PUSH2 0x46B5 JUMP JUMPDEST JUMPDEST PUSH1 0x20 MUL PUSH1 0x20 ADD ADD SWAP1 PUSH20 0xFFFFFFFFFFFFFFFFFFFFFFFFFFFFFFFFFFFFFFFF AND SWAP1 DUP2 PUSH20 0xFFFFFFFFFFFFFFFFFFFFFFFFFFFFFFFFFFFFFFFF AND DUP2 MSTORE POP POP PUSH1 0x60 PUSH32 0x0 PUSH20 0xFFFFFFFFFFFFFFFFFFFFFFFFFFFFFFFFFFFFFFFF AND PUSH4 0xD06CA61F DUP7 DUP5 PUSH1 0x40 MLOAD DUP4 PUSH4 0xFFFFFFFF AND PUSH1 0xE0 SHL DUP2 MSTORE PUSH1 0x4 ADD PUSH2 0x2BDA SWAP3 SWAP2 SWAP1 PUSH2 0x5448 JUMP JUMPDEST PUSH0 PUSH1 0x40 MLOAD DUP1 DUP4 SUB DUP2 DUP7 GAS STATICCALL SWAP3 POP POP POP DUP1 ISZERO PUSH2 0x2C17 JUMPI POP PUSH1 0x40 MLOAD RETURNDATASIZE PUSH0 DUP3 RETURNDATACOPY RETURNDATASIZE PUSH1 0x1F NOT PUSH1 0x1F DUP3 ADD AND DUP3 ADD DUP1 PUSH1 0x40 MSTORE POP DUP2 ADD SWAP1 PUSH2 0x2C14 SWAP2 SWAP1 PUSH2 0x5536 JUMP JUMPDEST PUSH1 0x1 JUMPDEST PUSH2 0x2C4D JUMPI PUSH1 0x40 MLOAD PUSH32 0x6EED12FF00000000000000000000000000000000000000000000000000000000 DUP2 MSTORE PUSH1 0x4 ADD PUSH1 0x40 MLOAD DUP1 SWAP2 SUB SWAP1 REVERT JUMPDEST DUP1 SWAP2 POP POP PUSH1 0x2 DUP2 MLOAD LT ISZERO PUSH2 0x2C8D JUMPI PUSH1 0x40 MLOAD PUSH32 0x6EED12FF00000000000000000000000000000000000000000000000000000000 DUP2 MSTORE PUSH1 0x4 ADD PUSH1 0x40 MLOAD DUP1 SWAP2 SUB SWAP1 REVERT JUMPDEST PUSH0 DUP2 PUSH1 0x1 DUP2 MLOAD DUP2 LT PUSH2 0x2CA2 JUMPI PUSH2 0x2CA1 PUSH2 0x46B5 JUMP JUMPDEST JUMPDEST PUSH1 0x20 MUL PUSH1 0x20 ADD ADD MLOAD SWAP1 POP PUSH0 DUP2 SUB PUSH2 0x2CE5 JUMPI PUSH1 0x40 MLOAD PUSH32 0x6EED12FF00000000000000000000000000000000000000000000000000000000 DUP2 MSTORE PUSH1 0x4 ADD PUSH1 0x40 MLOAD DUP1 SWAP2 SUB SWAP1 REVERT JUMPDEST PUSH2 0x2CEF DUP2 DUP7 PUSH2 0x320F JUMP JUMPDEST SWAP4 POP POP POP POP JUMPDEST SWAP5 SWAP4 POP POP POP POP JUMP JUMPDEST PUSH1 0x60 PUSH2 0x2D2A DUP7 PUSH32 0x0 DUP7 PUSH2 0x3286 JUMP JUMPDEST PUSH2 0x2D76 PUSH32 0x0 DUP8 PUSH32 0x0 DUP8 PUSH2 0x3350 JUMP JUMPDEST PUSH0 PUSH1 0x2 PUSH8 0xFFFFFFFFFFFFFFFF DUP2 GT ISZERO PUSH2 0x2D92 JUMPI PUSH2 0x2D91 PUSH2 0x40A4 JUMP JUMPDEST JUMPDEST PUSH1 0x40 MLOAD SWAP1 DUP1 DUP3 MSTORE DUP1 PUSH1 0x20 MUL PUSH1 0x20 ADD DUP3 ADD PUSH1 0x40 MSTORE DUP1 ISZERO PUSH2 0x2DC0 JUMPI DUP2 PUSH1 0x20 ADD PUSH1 0x20 DUP3 MUL DUP1 CALLDATASIZE DUP4 CALLDATACOPY DUP1 DUP3 ADD SWAP2 POP POP SWAP1 POP JUMPDEST POP SWAP1 POP DUP7 DUP2 PUSH0 DUP2 MLOAD DUP2 LT PUSH2 0x2DD7 JUMPI PUSH2 0x2DD6 PUSH2 0x46B5 JUMP JUMPDEST JUMPDEST PUSH1 0x20 MUL PUSH1 0x20 ADD ADD SWAP1 PUSH20 0xFFFFFFFFFFFFFFFFFFFFFFFFFFFFFFFFFFFFFFFF AND SWAP1 DUP2 PUSH20 0xFFFFFFFFFFFFFFFFFFFFFFFFFFFFFFFFFFFFFFFF AND DUP2 MSTORE POP POP DUP6 DUP2 PUSH1 0x1 DUP2 MLOAD DUP2 LT PUSH2 0x2E26 JUMPI PUSH2 0x2E25 PUSH2 0x46B5 JUMP JUMPDEST JUMPDEST PUSH1 0x20 MUL PUSH1 0x20 ADD ADD SWAP1 PUSH20 0xFFFFFFFFFFFFFFFFFFFFFFFFFFFFFFFFFFFFFFFF AND SWAP1 DUP2 PUSH20 0xFFFFFFFFFFFFFFFFFFFFFFFFFFFFFFFFFFFFFFFF AND DUP2 MSTORE POP POP DUP3 DUP6 DUP6 DUP4 PUSH1 0x1 PUSH1 0x40 MLOAD PUSH1 0x20 ADD PUSH2 0x2E7A SWAP6 SWAP5 SWAP4 SWAP3 SWAP2 SWAP1 PUSH2 0x557D JUMP JUMPDEST PUSH1 0x40 MLOAD PUSH1 0x20 DUP2 DUP4 SUB SUB DUP2 MSTORE SWAP1 PUSH1 0x40 MSTORE SWAP2 POP POP SWAP6 SWAP5 POP POP POP POP POP JUMP JUMPDEST PUSH0 PUSH0 DUP6 PUSH20 0xFFFFFFFFFFFFFFFFFFFFFFFFFFFFFFFFFFFFFFFF AND PUSH4 0x23B872DD PUSH1 0xE0 SHL DUP7 DUP7 DUP7 PUSH1 0x40 MLOAD PUSH1 0x24 ADD PUSH2 0x2ECB SWAP4 SWAP3 SWAP2 SWAP1 PUSH2 0x55D5 JUMP JUMPDEST PUSH1 0x40 MLOAD PUSH1 0x20 DUP2 DUP4 SUB SUB DUP2 MSTORE SWAP1 PUSH1 0x40 MSTORE SWAP1 PUSH28 0xFFFFFFFFFFFFFFFFFFFFFFFFFFFFFFFFFFFFFFFFFFFFFFFFFFFFFFFF NOT AND PUSH1 0x20 DUP3 ADD DUP1 MLOAD PUSH28 0xFFFFFFFFFFFFFFFFFFFFFFFFFFFFFFFFFFFFFFFFFFFFFFFFFFFFFFFF DUP4 DUP2 DUP4 AND OR DUP4 MSTORE POP POP POP POP PUSH1 0x40 MLOAD PUSH2 0x2F35 SWAP2 SWAP1 PUSH2 0x4C68 JUMP JUMPDEST PUSH0 PUSH1 0x40 MLOAD DUP1 DUP4 SUB DUP2 PUSH0 DUP7 GAS CALL SWAP2 POP POP RETURNDATASIZE DUP1 PUSH0 DUP2 EQ PUSH2 0x2F6E JUMPI PUSH1 0x40 MLOAD SWAP2 POP PUSH1 0x1F NOT PUSH1 0x3F RETURNDATASIZE ADD AND DUP3 ADD PUSH1 0x40 MSTORE RETURNDATASIZE DUP3 MSTORE RETURNDATASIZE PUSH0 PUSH1 0x20 DUP5 ADD RETURNDATACOPY PUSH2 0x2F73 JUMP JUMPDEST PUSH1 0x60 SWAP2 POP JUMPDEST POP SWAP2 POP SWAP2 POP DUP2 DUP1 ISZERO PUSH2 0x2FA0 JUMPI POP PUSH0 DUP2 MLOAD EQ DUP1 PUSH2 0x2F9F JUMPI POP DUP1 DUP1 PUSH1 0x20 ADD SWAP1 MLOAD DUP2 ADD SWAP1 PUSH2 0x2F9E SWAP2 SWAP1 PUSH2 0x4C92 JUMP JUMPDEST JUMPDEST JUMPDEST PUSH2 0x2FDF JUMPI PUSH1 0x40 MLOAD PUSH32 0x8C379A000000000000000000000000000000000000000000000000000000000 DUP2 MSTORE PUSH1 0x4 ADD PUSH2 0x2FD6 SWAP1 PUSH2 0x5654 JUMP JUMPDEST PUSH1 0x40 MLOAD DUP1 SWAP2 SUB SWAP1 REVERT JUMPDEST POP POP POP POP POP POP JUMP JUMPDEST PUSH0 PUSH2 0x2FFD DUP5 DUP5 PUSH2 0x2FF7 SWAP2 SWAP1 PUSH2 0x5672 JUMP JUMPDEST DUP4 PUSH2 0x3565 JUMP JUMPDEST SWAP1 POP SWAP4 SWAP3 POP POP POP JUMP JUMPDEST PUSH0 PUSH0 PUSH2 0x3011 DUP7 PUSH2 0x3600 JUMP JUMPDEST SWAP1 POP PUSH16 0xFFFFFFFFFFFFFFFFFFFFFFFFFFFFFFFF DUP1 AND DUP2 PUSH20 0xFFFFFFFFFFFFFFFFFFFFFFFFFFFFFFFFFFFFFFFF AND GT PUSH2 0x312A JUMPI PUSH0 DUP2 PUSH20 0xFFFFFFFFFFFFFFFFFFFFFFFFFFFFFFFFFFFFFFFF AND DUP3 PUSH20 0xFFFFFFFFFFFFFFFFFFFFFFFFFFFFFFFFFFFFFFFF AND PUSH2 0x307B SWAP2 SWAP1 PUSH2 0x4DF0 JUMP JUMPDEST SWAP1 POP DUP4 PUSH20 0xFFFFFFFFFFFFFFFFFFFFFFFFFFFFFFFFFFFFFFFF AND DUP6 PUSH20 0xFFFFFFFFFFFFFFFFFFFFFFFFFFFFFFFFFFFFFFFF AND LT PUSH2 0x30EB JUMPI PUSH2 0x30E6 PUSH25 0x1000000000000000000000000000000000000000000000000 DUP8 PUSH16 0xFFFFFFFFFFFFFFFFFFFFFFFFFFFFFFFF AND DUP4 PUSH2 0x3AB4 JUMP JUMPDEST PUSH2 0x3122 JUMP JUMPDEST PUSH2 0x3121 DUP2 DUP8 PUSH16 0xFFFFFFFFFFFFFFFFFFFFFFFFFFFFFFFF AND PUSH25 0x1000000000000000000000000000000000000000000000000 PUSH2 0x3AB4 JUMP JUMPDEST JUMPDEST SWAP3 POP POP PUSH2 0x3206 JUMP JUMPDEST PUSH0 PUSH2 0x316B DUP3 PUSH20 0xFFFFFFFFFFFFFFFFFFFFFFFFFFFFFFFFFFFFFFFF AND DUP4 PUSH20 0xFFFFFFFFFFFFFFFFFFFFFFFFFFFFFFFFFFFFFFFF AND PUSH9 0x10000000000000000 PUSH2 0x3AB4 JUMP JUMPDEST SWAP1 POP DUP4 PUSH20 0xFFFFFFFFFFFFFFFFFFFFFFFFFFFFFFFFFFFFFFFF AND DUP6 PUSH20 0xFFFFFFFFFFFFFFFFFFFFFFFFFFFFFFFFFFFFFFFF AND LT PUSH2 0x31D3 JUMPI PUSH2 0x31CE PUSH17 0x100000000000000000000000000000000 DUP8 PUSH16 0xFFFFFFFFFFFFFFFFFFFFFFFFFFFFFFFF AND DUP4 PUSH2 0x3AB4 JUMP JUMPDEST PUSH2 0x3202 JUMP JUMPDEST PUSH2 0x3201 DUP2 DUP8 PUSH16 0xFFFFFFFFFFFFFFFFFFFFFFFFFFFFFFFF AND PUSH17 0x100000000000000000000000000000000 PUSH2 0x3AB4 JUMP JUMPDEST JUMPDEST SWAP3 POP POP JUMPDEST POP SWAP5 SWAP4 POP POP POP POP JUMP JUMPDEST PUSH0 PUSH2 0x2710 DUP3 PUSH4 0xFFFFFFFF AND GT ISZERO PUSH2 0x3252 JUMPI PUSH1 0x40 MLOAD PUSH32 0x124955FB00000000000000000000000000000000000000000000000000000000 DUP2 MSTORE PUSH1 0x4 ADD PUSH1 0x40 MLOAD DUP1 SWAP2 SUB SWAP1 REVERT JUMPDEST PUSH2 0x2710 DUP3 PUSH4 0xFFFFFFFF AND PUSH2 0x2710 PUSH2 0x3269 SWAP2 SWAP1 PUSH2 0x4DBD JUMP JUMPDEST DUP5 PUSH2 0x3274 SWAP2 SWAP1 PUSH2 0x4DF0 JUMP JUMPDEST PUSH2 0x327E SWAP2 SWAP1 PUSH2 0x4E31 JUMP JUMPDEST SWAP1 POP SWAP3 SWAP2 POP POP JUMP JUMPDEST PUSH0 DUP4 PUSH20 0xFFFFFFFFFFFFFFFFFFFFFFFFFFFFFFFFFFFFFFFF AND PUSH4 0xDD62ED3E ADDRESS DUP6 PUSH1 0x40 MLOAD DUP4 PUSH4 0xFFFFFFFF AND PUSH1 0xE0 SHL DUP2 MSTORE PUSH1 0x4 ADD PUSH2 0x32C2 SWAP3 SWAP2 SWAP1 PUSH2 0x4D25 JUMP JUMPDEST PUSH1 0x20 PUSH1 0x40 MLOAD DUP1 DUP4 SUB DUP2 DUP7 GAS STATICCALL ISZERO DUP1 ISZERO PUSH2 0x32DD JUMPI RETURNDATASIZE PUSH0 PUSH0 RETURNDATACOPY RETURNDATASIZE PUSH0 REVERT JUMPDEST POP POP POP POP PUSH1 0x40 MLOAD RETURNDATASIZE PUSH1 0x1F NOT PUSH1 0x1F DUP3 ADD AND DUP3 ADD DUP1 PUSH1 0x40 MSTORE POP DUP2 ADD SWAP1 PUSH2 0x3301 SWAP2 SWAP1 PUSH2 0x4622 JUMP JUMPDEST SWAP1 POP DUP2 DUP2 LT ISZERO PUSH2 0x334A JUMPI PUSH0 DUP2 EQ PUSH2 0x331E JUMPI PUSH2 0x331D DUP5 DUP5 PUSH0 PUSH2 0x3C74 JUMP JUMPDEST JUMPDEST PUSH2 0x3349 DUP5 DUP5 PUSH32 0xFFFFFFFFFFFFFFFFFFFFFFFFFFFFFFFFFFFFFFFFFFFFFFFFFFFFFFFFFFFFFFFF PUSH2 0x3C74 JUMP JUMPDEST JUMPDEST POP POP POP POP JUMP JUMPDEST PUSH0 PUSH20 0xFFFFFFFFFFFFFFFFFFFFFFFFFFFFFFFFFFFFFFFF AND DUP4 PUSH20 0xFFFFFFFFFFFFFFFFFFFFFFFFFFFFFFFFFFFFFFFF AND EQ DUP1 PUSH2 0x33B5 JUMPI POP PUSH0 PUSH20 0xFFFFFFFFFFFFFFFFFFFFFFFFFFFFFFFFFFFFFFFF AND DUP3 PUSH20 0xFFFFFFFFFFFFFFFFFFFFFFFFFFFFFFFFFFFFFFFF AND EQ JUMPDEST ISZERO PUSH2 0x33EC JUMPI PUSH1 0x40 MLOAD PUSH32 0x7401D93100000000000000000000000000000000000000000000000000000000 DUP2 MSTORE PUSH1 0x4 ADD PUSH1 0x40 MLOAD DUP1 SWAP2 SUB SWAP1 REVERT JUMPDEST PUSH0 PUSH0 DUP6 PUSH20 0xFFFFFFFFFFFFFFFFFFFFFFFFFFFFFFFFFFFFFFFF AND PUSH4 0x927DA105 ADDRESS DUP8 DUP8 PUSH1 0x40 MLOAD DUP5 PUSH4 0xFFFFFFFF AND PUSH1 0xE0 SHL DUP2 MSTORE PUSH1 0x4 ADD PUSH2 0x342B SWAP4 SWAP3 SWAP2 SWAP1 PUSH2 0x56D0 JUMP JUMPDEST PUSH1 0x60 PUSH1 0x40 MLOAD DUP1 DUP4 SUB DUP2 DUP7 GAS STATICCALL ISZERO DUP1 ISZERO PUSH2 0x3446 JUMPI RETURNDATASIZE PUSH0 PUSH0 RETURNDATACOPY RETURNDATASIZE PUSH0 REVERT JUMPDEST POP POP POP POP PUSH1 0x40 MLOAD RETURNDATASIZE PUSH1 0x1F NOT PUSH1 0x1F DUP3 ADD AND DUP3 ADD DUP1 PUSH1 0x40 MSTORE POP DUP2 ADD SWAP1 PUSH2 0x346A SWAP2 SWAP1 PUSH2 0x5740 JUMP JUMPDEST POP SWAP2 POP SWAP2 POP PUSH0 DUP4 PUSH20 0xFFFFFFFFFFFFFFFFFFFFFFFFFFFFFFFFFFFFFFFF AND DUP4 PUSH20 0xFFFFFFFFFFFFFFFFFFFFFFFFFFFFFFFFFFFFFFFF AND LT ISZERO SWAP1 POP PUSH0 PUSH0 DUP4 PUSH6 0xFFFFFFFFFFFF AND EQ ISZERO DUP1 ISZERO PUSH2 0x34C3 JUMPI POP TIMESTAMP DUP4 PUSH6 0xFFFFFFFFFFFF AND GT ISZERO JUMPDEST SWAP1 POP DUP2 ISZERO DUP1 PUSH2 0x34CF JUMPI POP DUP1 JUMPDEST ISZERO PUSH2 0x355B JUMPI DUP8 PUSH20 0xFFFFFFFFFFFFFFFFFFFFFFFFFFFFFFFFFFFFFFFF AND PUSH4 0x87517C45 DUP9 DUP9 PUSH20 0xFFFFFFFFFFFFFFFFFFFFFFFFFFFFFFFFFFFFFFFF PUSH6 0xFFFFFFFFFFFF PUSH1 0x40 MLOAD DUP6 PUSH4 0xFFFFFFFF AND PUSH1 0xE0 SHL DUP2 MSTORE PUSH1 0x4 ADD PUSH2 0x352D SWAP5 SWAP4 SWAP3 SWAP2 SWAP1 PUSH2 0x57AE JUMP JUMPDEST PUSH0 PUSH1 0x40 MLOAD DUP1 DUP4 SUB DUP2 PUSH0 DUP8 DUP1 EXTCODESIZE ISZERO DUP1 ISZERO PUSH2 0x3544 JUMPI PUSH0 PUSH0 REVERT JUMPDEST POP GAS CALL ISZERO DUP1 ISZERO PUSH2 0x3556 JUMPI RETURNDATASIZE PUSH0 PUSH0 RETURNDATACOPY RETURNDATASIZE PUSH0 REVERT JUMPDEST POP POP POP POP JUMPDEST POP POP POP POP POP POP POP POP JUMP JUMPDEST PUSH0 PUSH0 DUP3 PUSH4 0xFFFFFFFF AND SUB PUSH2 0x35AE JUMPI PUSH1 0x40 MLOAD PUSH32 0x8C379A000000000000000000000000000000000000000000000000000000000 DUP2 MSTORE PUSH1 0x4 ADD PUSH2 0x35A5 SWAP1 PUSH2 0x583B JUMP JUMPDEST PUSH1 0x40 MLOAD DUP1 SWAP2 SUB SWAP1 REVERT JUMPDEST PUSH0 DUP3 PUSH1 0x3 SIGNEXTEND SWAP1 POP PUSH0 DUP2 DUP6 PUSH2 0x35C2 SWAP2 SWAP1 PUSH2 0x5859 JUMP JUMPDEST SWAP1 POP PUSH0 DUP3 DUP7 PUSH2 0x35D1 SWAP2 SWAP1 PUSH2 0x58C1 JUMP JUMPDEST SWAP1 POP DUP2 SWAP4 POP PUSH0 DUP7 PUSH1 0x6 SIGNEXTEND SLT DUP1 ISZERO PUSH2 0x35EB JUMPI POP PUSH0 DUP2 PUSH1 0x6 SIGNEXTEND EQ ISZERO JUMPDEST ISZERO PUSH2 0x35F7 JUMPI PUSH1 0x1 DUP5 SUB SWAP4 POP JUMPDEST POP POP POP SWAP3 SWAP2 POP POP JUMP JUMPDEST PUSH0 PUSH0 PUSH0 DUP4 PUSH1 0x2 SIGNEXTEND SLT PUSH2 0x3615 JUMPI DUP3 PUSH1 0x2 SIGNEXTEND PUSH2 0x3623 JUMP JUMPDEST DUP3 PUSH1 0x2 SIGNEXTEND PUSH2 0x3622 SWAP1 PUSH2 0x58FA JUMP JUMPDEST JUMPDEST SWAP1 POP PUSH32 0xFFFFFFFFFFFFFFFFFFFFFFFFFFFFFFFFFFFFFFFFFFFFFFFFFFFFFFFFFFF27618 PUSH2 0x364F SWAP1 PUSH2 0x5940 JUMP JUMPDEST PUSH3 0xFFFFFF AND DUP2 GT ISZERO PUSH2 0x3696 JUMPI PUSH1 0x40 MLOAD PUSH32 0x8C379A000000000000000000000000000000000000000000000000000000000 DUP2 MSTORE PUSH1 0x4 ADD PUSH2 0x368D SWAP1 PUSH2 0x59D0 JUMP JUMPDEST PUSH1 0x40 MLOAD DUP1 SWAP2 SUB SWAP1 REVERT JUMPDEST PUSH0 PUSH0 PUSH1 0x1 DUP4 AND SUB PUSH2 0x36B8 JUMPI PUSH17 0x100000000000000000000000000000000 PUSH2 0x36CA JUMP JUMPDEST PUSH16 0xFFFCB933BD6FAD37AA2D162D1A594001 JUMPDEST PUSH17 0xFFFFFFFFFFFFFFFFFFFFFFFFFFFFFFFFFF AND SWAP1 POP PUSH0 PUSH1 0x2 DUP4 AND EQ PUSH2 0x370C JUMPI PUSH1 0x80 PUSH16 0xFFF97272373D413259A46990580E213A DUP3 PUSH2 0x3707 SWAP2 SWAP1 PUSH2 0x4DF0 JUMP JUMPDEST SWAP1 SHR SWAP1 POP JUMPDEST PUSH0 PUSH1 0x4 DUP4 AND EQ PUSH2 0x3739 JUMPI PUSH1 0x80 PUSH16 0xFFF2E50F5F656932EF12357CF3C7FDCC DUP3 PUSH2 0x3734 SWAP2 SWAP1 PUSH2 0x4DF0 JUMP JUMPDEST SWAP1 SHR SWAP1 POP JUMPDEST PUSH0 PUSH1 0x8 DUP4 AND EQ PUSH2 0x3766 JUMPI PUSH1 0x80 PUSH16 0xFFE5CACA7E10E4E61C3624EAA0941CD0 DUP3 PUSH2 0x3761 SWAP2 SWAP1 PUSH2 0x4DF0 JUMP JUMPDEST SWAP1 SHR SWAP1 POP JUMPDEST PUSH0 PUSH1 0x10 DUP4 AND EQ PUSH2 0x3793 JUMPI PUSH1 0x80 PUSH16 0xFFCB9843D60F6159C9DB58835C926644 DUP3 PUSH2 0x378E SWAP2 SWAP1 PUSH2 0x4DF0 JUMP JUMPDEST SWAP1 SHR SWAP1 POP JUMPDEST PUSH0 PUSH1 0x20 DUP4 AND EQ PUSH2 0x37C0 JUMPI PUSH1 0x80 PUSH16 0xFF973B41FA98C081472E6896DFB254C0 DUP3 PUSH2 0x37BB SWAP2 SWAP1 PUSH2 0x4DF0 JUMP JUMPDEST SWAP1 SHR SWAP1 POP JUMPDEST PUSH0 PUSH1 0x40 DUP4 AND EQ PUSH2 0x37ED JUMPI PUSH1 0x80 PUSH16 0xFF2EA16466C96A3843EC78B326B52861 DUP3 PUSH2 0x37E8 SWAP2 SWAP1 PUSH2 0x4DF0 JUMP JUMPDEST SWAP1 SHR SWAP1 POP JUMPDEST PUSH0 PUSH1 0x80 DUP4 AND EQ PUSH2 0x381A JUMPI PUSH1 0x80 PUSH16 0xFE5DEE046A99A2A811C461F1969C3053 DUP3 PUSH2 0x3815 SWAP2 SWAP1 PUSH2 0x4DF0 JUMP JUMPDEST SWAP1 SHR SWAP1 POP JUMPDEST PUSH0 PUSH2 0x100 DUP4 AND EQ PUSH2 0x3848 JUMPI PUSH1 0x80 PUSH16 0xFCBE86C7900A88AEDCFFC83B479AA3A4 DUP3 PUSH2 0x3843 SWAP2 SWAP1 PUSH2 0x4DF0 JUMP JUMPDEST SWAP1 SHR SWAP1 POP JUMPDEST PUSH0 PUSH2 0x200 DUP4 AND EQ PUSH2 0x3876 JUMPI PUSH1 0x80 PUSH16 0xF987A7253AC413176F2B074CF7815E54 DUP3 PUSH2 0x3871 SWAP2 SWAP1 PUSH2 0x4DF0 JUMP JUMPDEST SWAP1 SHR SWAP1 POP JUMPDEST PUSH0 PUSH2 0x400 DUP4 AND EQ PUSH2 0x38A4 JUMPI PUSH1 0x80 PUSH16 0xF3392B0822B70005940C7A398E4B70F3 DUP3 PUSH2 0x389F SWAP2 SWAP1 PUSH2 0x4DF0 JUMP JUMPDEST SWAP1 SHR SWAP1 POP JUMPDEST PUSH0 PUSH2 0x800 DUP4 AND EQ PUSH2 0x38D2 JUMPI PUSH1 0x80 PUSH16 0xE7159475A2C29B7443B29C7FA6E889D9 DUP3 PUSH2 0x38CD SWAP2 SWAP1 PUSH2 0x4DF0 JUMP JUMPDEST SWAP1 SHR SWAP1 POP JUMPDEST PUSH0 PUSH2 0x1000 DUP4 AND EQ PUSH2 0x3900 JUMPI PUSH1 0x80 PUSH16 0xD097F3BDFD2022B8845AD8F792AA5825 DUP3 PUSH2 0x38FB SWAP2 SWAP1 PUSH2 0x4DF0 JUMP JUMPDEST SWAP1 SHR SWAP1 POP JUMPDEST PUSH0 PUSH2 0x2000 DUP4 AND EQ PUSH2 0x392E JUMPI PUSH1 0x80 PUSH16 0xA9F746462D870FDF8A65DC1F90E061E5 DUP3 PUSH2 0x3929 SWAP2 SWAP1 PUSH2 0x4DF0 JUMP JUMPDEST SWAP1 SHR SWAP1 POP JUMPDEST PUSH0 PUSH2 0x4000 DUP4 AND EQ PUSH2 0x395C JUMPI PUSH1 0x80 PUSH16 0x70D869A156D2A1B890BB3DF62BAF32F7 DUP3 PUSH2 0x3957 SWAP2 SWAP1 PUSH2 0x4DF0 JUMP JUMPDEST SWAP1 SHR SWAP1 POP JUMPDEST PUSH0 PUSH2 0x8000 DUP4 AND EQ PUSH2 0x398A JUMPI PUSH1 0x80 PUSH16 0x31BE135F97D08FD981231505542FCFA6 DUP3 PUSH2 0x3985 SWAP2 SWAP1 PUSH2 0x4DF0 JUMP JUMPDEST SWAP1 SHR SWAP1 POP JUMPDEST PUSH0 PUSH3 0x10000 DUP4 AND EQ PUSH2 0x39B9 JUMPI PUSH1 0x80 PUSH16 0x9AA508B5B7A84E1C677DE54F3E99BC9 DUP3 PUSH2 0x39B4 SWAP2 SWAP1 PUSH2 0x4DF0 JUMP JUMPDEST SWAP1 SHR SWAP1 POP JUMPDEST PUSH0 PUSH3 0x20000 DUP4 AND EQ PUSH2 0x39E7 JUMPI PUSH1 0x80 PUSH15 0x5D6AF8DEDB81196699C329225EE604 DUP3 PUSH2 0x39E2 SWAP2 SWAP1 PUSH2 0x4DF0 JUMP JUMPDEST SWAP1 SHR SWAP1 POP JUMPDEST PUSH0 PUSH3 0x40000 DUP4 AND EQ PUSH2 0x3A14 JUMPI PUSH1 0x80 PUSH14 0x2216E584F5FA1EA926041BEDFE98 DUP3 PUSH2 0x3A0F SWAP2 SWAP1 PUSH2 0x4DF0 JUMP JUMPDEST SWAP1 SHR SWAP1 POP JUMPDEST PUSH0 PUSH3 0x80000 DUP4 AND EQ PUSH2 0x3A3F JUMPI PUSH1 0x80 PUSH12 0x48A170391F7DC42444E8FA2 DUP3 PUSH2 0x3A3A SWAP2 SWAP1 PUSH2 0x4DF0 JUMP JUMPDEST SWAP1 SHR SWAP1 POP JUMPDEST PUSH0 DUP5 PUSH1 0x2 SIGNEXTEND SGT ISZERO PUSH2 0x3A79 JUMPI DUP1 PUSH32 0xFFFFFFFFFFFFFFFFFFFFFFFFFFFFFFFFFFFFFFFFFFFFFFFFFFFFFFFFFFFFFFFF PUSH2 0x3A76 SWAP2 SWAP1 PUSH2 0x4E31 JUMP JUMPDEST SWAP1 POP JUMPDEST PUSH0 PUSH5 0x100000000 DUP3 PUSH2 0x3A8B SWAP2 SWAP1 PUSH2 0x59EE JUMP JUMPDEST EQ PUSH2 0x3A97 JUMPI PUSH1 0x1 PUSH2 0x3A99 JUMP JUMPDEST PUSH0 JUMPDEST PUSH1 0xFF AND PUSH1 0x20 DUP3 SWAP1 SHR PUSH2 0x3AAB SWAP2 SWAP1 PUSH2 0x5A1E JUMP JUMPDEST SWAP3 POP POP POP SWAP2 SWAP1 POP JUMP JUMPDEST PUSH0 PUSH0 PUSH0 PUSH0 NOT DUP6 DUP8 MULMOD DUP6 DUP8 MUL SWAP3 POP DUP3 DUP2 LT DUP4 DUP3 SUB SUB SWAP2 POP POP PUSH0 DUP2 SUB PUSH2 0x3AE9 JUMPI PUSH0 DUP5 GT PUSH2 0x3ADD JUMPI PUSH0 PUSH0 REVERT JUMPDEST DUP4 DUP3 DIV SWAP3 POP POP POP PUSH2 0x3C6D JUMP JUMPDEST DUP1 DUP5 GT PUSH2 0x3AF4 JUMPI PUSH0 PUSH0 REVERT JUMPDEST PUSH0 DUP5 DUP7 DUP9 MULMOD SWAP1 POP DUP3 DUP2 GT DUP3 SUB SWAP2 POP DUP1 DUP4 SUB SWAP3 POP PUSH0 PUSH1 0x1 DUP7 PUSH32 0xFFFFFFFFFFFFFFFFFFFFFFFFFFFFFFFFFFFFFFFFFFFFFFFFFFFFFFFFFFFFFFFF PUSH2 0x3B36 SWAP2 SWAP1 PUSH2 0x4DBD JUMP JUMPDEST PUSH2 0x3B40 SWAP2 SWAP1 PUSH2 0x5A1E JUMP JUMPDEST DUP7 AND SWAP1 POP DUP1 DUP7 DIV SWAP6 POP DUP1 DUP5 DIV SWAP4 POP PUSH1 0x1 DUP2 DUP3 PUSH0 SUB DIV ADD SWAP1 POP DUP1 DUP4 PUSH2 0x3B64 SWAP2 SWAP1 PUSH2 0x4DF0 JUMP JUMPDEST DUP5 OR SWAP4 POP PUSH0 PUSH1 0x2 DUP8 PUSH1 0x3 PUSH2 0x3B78 SWAP2 SWAP1 PUSH2 0x4DF0 JUMP JUMPDEST XOR SWAP1 POP DUP1 DUP8 PUSH2 0x3B87 SWAP2 SWAP1 PUSH2 0x4DF0 JUMP JUMPDEST PUSH1 0x2 PUSH2 0x3B93 SWAP2 SWAP1 PUSH2 0x4DBD JUMP JUMPDEST DUP2 PUSH2 0x3B9E SWAP2 SWAP1 PUSH2 0x4DF0 JUMP JUMPDEST SWAP1 POP DUP1 DUP8 PUSH2 0x3BAC SWAP2 SWAP1 PUSH2 0x4DF0 JUMP JUMPDEST PUSH1 0x2 PUSH2 0x3BB8 SWAP2 SWAP1 PUSH2 0x4DBD JUMP JUMPDEST DUP2 PUSH2 0x3BC3 SWAP2 SWAP1 PUSH2 0x4DF0 JUMP JUMPDEST SWAP1 POP DUP1 DUP8 PUSH2 0x3BD1 SWAP2 SWAP1 PUSH2 0x4DF0 JUMP JUMPDEST PUSH1 0x2 PUSH2 0x3BDD SWAP2 SWAP1 PUSH2 0x4DBD JUMP JUMPDEST DUP2 PUSH2 0x3BE8 SWAP2 SWAP1 PUSH2 0x4DF0 JUMP JUMPDEST SWAP1 POP DUP1 DUP8 PUSH2 0x3BF6 SWAP2 SWAP1 PUSH2 0x4DF0 JUMP JUMPDEST PUSH1 0x2 PUSH2 0x3C02 SWAP2 SWAP1 PUSH2 0x4DBD JUMP JUMPDEST DUP2 PUSH2 0x3C0D SWAP2 SWAP1 PUSH2 0x4DF0 JUMP JUMPDEST SWAP1 POP DUP1 DUP8 PUSH2 0x3C1B SWAP2 SWAP1 PUSH2 0x4DF0 JUMP JUMPDEST PUSH1 0x2 PUSH2 0x3C27 SWAP2 SWAP1 PUSH2 0x4DBD JUMP JUMPDEST DUP2 PUSH2 0x3C32 SWAP2 SWAP1 PUSH2 0x4DF0 JUMP JUMPDEST SWAP1 POP DUP1 DUP8 PUSH2 0x3C40 SWAP2 SWAP1 PUSH2 0x4DF0 JUMP JUMPDEST PUSH1 0x2 PUSH2 0x3C4C SWAP2 SWAP1 PUSH2 0x4DBD JUMP JUMPDEST DUP2 PUSH2 0x3C57 SWAP2 SWAP1 PUSH2 0x4DF0 JUMP JUMPDEST SWAP1 POP DUP1 DUP6 PUSH2 0x3C65 SWAP2 SWAP1 PUSH2 0x4DF0 JUMP JUMPDEST SWAP6 POP POP POP POP POP POP JUMPDEST SWAP4 SWAP3 POP POP POP JUMP JUMPDEST PUSH0 PUSH0 DUP5 PUSH20 0xFFFFFFFFFFFFFFFFFFFFFFFFFFFFFFFFFFFFFFFF AND PUSH4 0x95EA7B3 PUSH1 0xE0 SHL DUP6 DUP6 PUSH1 0x40 MLOAD PUSH1 0x24 ADD PUSH2 0x3CA8 SWAP3 SWAP2 SWAP1 PUSH2 0x4C11 JUMP JUMPDEST PUSH1 0x40 MLOAD PUSH1 0x20 DUP2 DUP4 SUB SUB DUP2 MSTORE SWAP1 PUSH1 0x40 MSTORE SWAP1 PUSH28 0xFFFFFFFFFFFFFFFFFFFFFFFFFFFFFFFFFFFFFFFFFFFFFFFFFFFFFFFF NOT AND PUSH1 0x20 DUP3 ADD DUP1 MLOAD PUSH28 0xFFFFFFFFFFFFFFFFFFFFFFFFFFFFFFFFFFFFFFFFFFFFFFFFFFFFFFFF DUP4 DUP2 DUP4 AND OR DUP4 MSTORE POP POP POP POP PUSH1 0x40 MLOAD PUSH2 0x3D12 SWAP2 SWAP1 PUSH2 0x4C68 JUMP JUMPDEST PUSH0 PUSH1 0x40 MLOAD DUP1 DUP4 SUB DUP2 PUSH0 DUP7 GAS CALL SWAP2 POP POP RETURNDATASIZE DUP1 PUSH0 DUP2 EQ PUSH2 0x3D4B JUMPI PUSH1 0x40 MLOAD SWAP2 POP PUSH1 0x1F NOT PUSH1 0x3F RETURNDATASIZE ADD AND DUP3 ADD PUSH1 0x40 MSTORE RETURNDATASIZE DUP3 MSTORE RETURNDATASIZE PUSH0 PUSH1 0x20 DUP5 ADD RETURNDATACOPY PUSH2 0x3D50 JUMP JUMPDEST PUSH1 0x60 SWAP2 POP JUMPDEST POP SWAP2 POP SWAP2 POP DUP2 DUP1 ISZERO PUSH2 0x3D7D JUMPI POP PUSH0 DUP2 MLOAD EQ DUP1 PUSH2 0x3D7C JUMPI POP DUP1 DUP1 PUSH1 0x20 ADD SWAP1 MLOAD DUP2 ADD SWAP1 PUSH2 0x3D7B SWAP2 SWAP1 PUSH2 0x4C92 JUMP JUMPDEST JUMPDEST JUMPDEST PUSH2 0x3DBC JUMPI PUSH1 0x40 MLOAD PUSH32 0x8C379A000000000000000000000000000000000000000000000000000000000 DUP2 MSTORE PUSH1 0x4 ADD PUSH2 0x3DB3 SWAP1 PUSH2 0x5A9B JUMP JUMPDEST PUSH1 0x40 MLOAD DUP1 SWAP2 SUB SWAP1 REVERT JUMPDEST POP POP POP POP POP JUMP JUMPDEST PUSH1 0x40 MLOAD DUP1 PUSH1 0xC0 ADD PUSH1 0x40 MSTORE DUP1 PUSH1 0x60 DUP2 MSTORE PUSH1 0x20 ADD PUSH1 0x60 DUP2 MSTORE PUSH1 0x20 ADD PUSH0 DUP2 MSTORE PUSH1 0x20 ADD PUSH0 DUP2 MSTORE PUSH1 0x20 ADD PUSH0 DUP2 MSTORE PUSH1 0x20 ADD PUSH0 DUP2 MSTORE POP SWAP1 JUMP JUMPDEST PUSH1 0x40 MLOAD DUP1 PUSH1 0x60 ADD PUSH1 0x40 MSTORE DUP1 PUSH1 0x60 DUP2 MSTORE PUSH1 0x20 ADD PUSH1 0x60 DUP2 MSTORE PUSH1 0x20 ADD PUSH0 DUP2 MSTORE POP SWAP1 JUMP JUMPDEST PUSH0 PUSH4 0xFFFFFFFF DUP3 AND SWAP1 POP SWAP2 SWAP1 POP JUMP JUMPDEST PUSH2 0x3E2D DUP2 PUSH2 0x3E15 JUMP JUMPDEST DUP3 MSTORE POP POP JUMP JUMPDEST PUSH0 PUSH1 0x20 DUP3 ADD SWAP1 POP PUSH2 0x3E46 PUSH0 DUP4 ADD DUP5 PUSH2 0x3E24 JUMP JUMPDEST SWAP3 SWAP2 POP POP JUMP JUMPDEST PUSH0 PUSH1 0x40 MLOAD SWAP1 POP SWAP1 JUMP JUMPDEST PUSH0 PUSH0 REVERT JUMPDEST PUSH0 PUSH0 REVERT JUMPDEST PUSH0 PUSH20 0xFFFFFFFFFFFFFFFFFFFFFFFFFFFFFFFFFFFFFFFF DUP3 AND SWAP1 POP SWAP2 SWAP1 POP JUMP JUMPDEST PUSH0 PUSH2 0x3E86 DUP3 PUSH2 0x3E5D JUMP JUMPDEST SWAP1 POP SWAP2 SWAP1 POP JUMP JUMPDEST PUSH2 0x3E96 DUP2 PUSH2 0x3E7C JUMP JUMPDEST DUP2 EQ PUSH2 0x3EA0 JUMPI PUSH0 PUSH0 REVERT JUMPDEST POP JUMP JUMPDEST PUSH0 DUP2 CALLDATALOAD SWAP1 POP PUSH2 0x3EB1 DUP2 PUSH2 0x3E8D JUMP JUMPDEST SWAP3 SWAP2 POP POP JUMP JUMPDEST PUSH0 PUSH0 PUSH1 0x40 DUP4 DUP6 SUB SLT ISZERO PUSH2 0x3ECD JUMPI PUSH2 0x3ECC PUSH2 0x3E55 JUMP JUMPDEST JUMPDEST PUSH0 PUSH2 0x3EDA DUP6 DUP3 DUP7 ADD PUSH2 0x3EA3 JUMP JUMPDEST SWAP3 POP POP PUSH1 0x20 PUSH2 0x3EEB DUP6 DUP3 DUP7 ADD PUSH2 0x3EA3 JUMP JUMPDEST SWAP2 POP POP SWAP3 POP SWAP3 SWAP1 POP JUMP JUMPDEST PUSH2 0x3EFE DUP2 PUSH2 0x3E15 JUMP JUMPDEST DUP2 EQ PUSH2 0x3F08 JUMPI PUSH0 PUSH0 REVERT JUMPDEST POP JUMP JUMPDEST PUSH0 DUP2 CALLDATALOAD SWAP1 POP PUSH2 0x3F19 DUP2 PUSH2 0x3EF5 JUMP JUMPDEST SWAP3 SWAP2 POP POP JUMP JUMPDEST PUSH0 PUSH1 0x20 DUP3 DUP5 SUB SLT ISZERO PUSH2 0x3F34 JUMPI PUSH2 0x3F33 PUSH2 0x3E55 JUMP JUMPDEST JUMPDEST PUSH0 PUSH2 0x3F41 DUP5 DUP3 DUP6 ADD PUSH2 0x3F0B JUMP JUMPDEST SWAP2 POP POP SWAP3 SWAP2 POP POP JUMP JUMPDEST PUSH0 DUP2 SWAP1 POP SWAP2 SWAP1 POP JUMP JUMPDEST PUSH0 PUSH2 0x3F6D PUSH2 0x3F68 PUSH2 0x3F63 DUP5 PUSH2 0x3E5D JUMP JUMPDEST PUSH2 0x3F4A JUMP JUMPDEST PUSH2 0x3E5D JUMP JUMPDEST SWAP1 POP SWAP2 SWAP1 POP JUMP JUMPDEST PUSH0 PUSH2 0x3F7E DUP3 PUSH2 0x3F53 JUMP JUMPDEST SWAP1 POP SWAP2 SWAP1 POP JUMP JUMPDEST PUSH0 PUSH2 0x3F8F DUP3 PUSH2 0x3F74 JUMP JUMPDEST SWAP1 POP SWAP2 SWAP1 POP JUMP JUMPDEST PUSH2 0x3F9F DUP2 PUSH2 0x3F85 JUMP JUMPDEST DUP3 MSTORE POP POP JUMP JUMPDEST PUSH0 PUSH1 0x20 DUP3 ADD SWAP1 POP PUSH2 0x3FB8 PUSH0 DUP4 ADD DUP5 PUSH2 0x3F96 JUMP JUMPDEST SWAP3 SWAP2 POP POP JUMP JUMPDEST PUSH0 PUSH0 REVERT JUMPDEST PUSH0 PUSH0 REVERT JUMPDEST PUSH0 PUSH0 REVERT JUMPDEST PUSH0 PUSH0 DUP4 PUSH1 0x1F DUP5 ADD SLT PUSH2 0x3FDF JUMPI PUSH2 0x3FDE PUSH2 0x3FBE JUMP JUMPDEST JUMPDEST DUP3 CALLDATALOAD SWAP1 POP PUSH8 0xFFFFFFFFFFFFFFFF DUP2 GT ISZERO PUSH2 0x3FFC JUMPI PUSH2 0x3FFB PUSH2 0x3FC2 JUMP JUMPDEST JUMPDEST PUSH1 0x20 DUP4 ADD SWAP2 POP DUP4 PUSH1 0x40 DUP3 MUL DUP4 ADD GT ISZERO PUSH2 0x4018 JUMPI PUSH2 0x4017 PUSH2 0x3FC6 JUMP JUMPDEST JUMPDEST SWAP3 POP SWAP3 SWAP1 POP JUMP JUMPDEST PUSH0 PUSH0 PUSH0 PUSH0 PUSH1 0x60 DUP6 DUP8 SUB SLT ISZERO PUSH2 0x4037 JUMPI PUSH2 0x4036 PUSH2 0x3E55 JUMP JUMPDEST JUMPDEST PUSH0 DUP6 ADD CALLDATALOAD PUSH8 0xFFFFFFFFFFFFFFFF DUP2 GT ISZERO PUSH2 0x4054 JUMPI PUSH2 0x4053 PUSH2 0x3E59 JUMP JUMPDEST JUMPDEST PUSH2 0x4060 DUP8 DUP3 DUP9 ADD PUSH2 0x3FCA JUMP JUMPDEST SWAP5 POP SWAP5 POP POP PUSH1 0x20 PUSH2 0x4073 DUP8 DUP3 DUP9 ADD PUSH2 0x3EA3 JUMP JUMPDEST SWAP3 POP POP PUSH1 0x40 PUSH2 0x4084 DUP8 DUP3 DUP9 ADD PUSH2 0x3F0B JUMP JUMPDEST SWAP2 POP POP SWAP3 SWAP6 SWAP2 SWAP5 POP SWAP3 POP JUMP JUMPDEST PUSH0 PUSH0 REVERT JUMPDEST PUSH0 PUSH1 0x1F NOT PUSH1 0x1F DUP4 ADD AND SWAP1 POP SWAP2 SWAP1 POP JUMP JUMPDEST PUSH32 0x4E487B7100000000000000000000000000000000000000000000000000000000 PUSH0 MSTORE PUSH1 0x41 PUSH1 0x4 MSTORE PUSH1 0x24 PUSH0 REVERT JUMPDEST PUSH2 0x40DA DUP3 PUSH2 0x4094 JUMP JUMPDEST DUP2 ADD DUP2 DUP2 LT PUSH8 0xFFFFFFFFFFFFFFFF DUP3 GT OR ISZERO PUSH2 0x40F9 JUMPI PUSH2 0x40F8 PUSH2 0x40A4 JUMP JUMPDEST JUMPDEST DUP1 PUSH1 0x40 MSTORE POP POP POP JUMP JUMPDEST PUSH0 PUSH2 0x410B PUSH2 0x3E4C JUMP JUMPDEST SWAP1 POP PUSH2 0x4117 DUP3 DUP3 PUSH2 0x40D1 JUMP JUMPDEST SWAP2 SWAP1 POP JUMP JUMPDEST PUSH0 PUSH8 0xFFFFFFFFFFFFFFFF DUP3 GT ISZERO PUSH2 0x4136 JUMPI PUSH2 0x4135 PUSH2 0x40A4 JUMP JUMPDEST JUMPDEST PUSH2 0x413F DUP3 PUSH2 0x4094 JUMP JUMPDEST SWAP1 POP PUSH1 0x20 DUP2 ADD SWAP1 POP SWAP2 SWAP1 POP JUMP JUMPDEST DUP3 DUP2 DUP4 CALLDATACOPY PUSH0 DUP4 DUP4 ADD MSTORE POP POP POP JUMP JUMPDEST PUSH0 PUSH2 0x416C PUSH2 0x4167 DUP5 PUSH2 0x411C JUMP JUMPDEST PUSH2 0x4102 JUMP JUMPDEST SWAP1 POP DUP3 DUP2 MSTORE PUSH1 0x20 DUP2 ADD DUP5 DUP5 DUP5 ADD GT ISZERO PUSH2 0x4188 JUMPI PUSH2 0x4187 PUSH2 0x4090 JUMP JUMPDEST JUMPDEST PUSH2 0x4193 DUP5 DUP3 DUP6 PUSH2 0x414C JUMP JUMPDEST POP SWAP4 SWAP3 POP POP POP JUMP JUMPDEST PUSH0 DUP3 PUSH1 0x1F DUP4 ADD SLT PUSH2 0x41AF JUMPI PUSH2 0x41AE PUSH2 0x3FBE JUMP JUMPDEST JUMPDEST DUP2 CALLDATALOAD PUSH2 0x41BF DUP5 DUP3 PUSH1 0x20 DUP7 ADD PUSH2 0x415A JUMP JUMPDEST SWAP2 POP POP SWAP3 SWAP2 POP POP JUMP JUMPDEST PUSH0 PUSH1 0x20 DUP3 DUP5 SUB SLT ISZERO PUSH2 0x41DD JUMPI PUSH2 0x41DC PUSH2 0x3E55 JUMP JUMPDEST JUMPDEST PUSH0 DUP3 ADD CALLDATALOAD PUSH8 0xFFFFFFFFFFFFFFFF DUP2 GT ISZERO PUSH2 0x41FA JUMPI PUSH2 0x41F9 PUSH2 0x3E59 JUMP JUMPDEST JUMPDEST PUSH2 0x4206 DUP5 DUP3 DUP6 ADD PUSH2 0x419B JUMP JUMPDEST SWAP2 POP POP SWAP3 SWAP2 POP POP JUMP JUMPDEST PUSH2 0x4218 DUP2 PUSH2 0x3E7C JUMP JUMPDEST DUP3 MSTORE POP POP JUMP JUMPDEST PUSH0 PUSH1 0x20 DUP3 ADD SWAP1 POP PUSH2 0x4231 PUSH0 DUP4 ADD DUP5 PUSH2 0x420F JUMP JUMPDEST SWAP3 SWAP2 POP POP JUMP JUMPDEST PUSH0 PUSH0 DUP4 PUSH1 0x1F DUP5 ADD SLT PUSH2 0x424C JUMPI PUSH2 0x424B PUSH2 0x3FBE JUMP JUMPDEST JUMPDEST DUP3 CALLDATALOAD SWAP1 POP PUSH8 0xFFFFFFFFFFFFFFFF DUP2 GT ISZERO PUSH2 0x4269 JUMPI PUSH2 0x4268 PUSH2 0x3FC2 JUMP JUMPDEST JUMPDEST PUSH1 0x20 DUP4 ADD SWAP2 POP DUP4 PUSH1 0x40 DUP3 MUL DUP4 ADD GT ISZERO PUSH2 0x4285 JUMPI PUSH2 0x4284 PUSH2 0x3FC6 JUMP JUMPDEST JUMPDEST SWAP3 POP SWAP3 SWAP1 POP JUMP JUMPDEST PUSH0 PUSH2 0x4296 DUP3 PUSH2 0x3E5D JUMP JUMPDEST SWAP1 POP SWAP2 SWAP1 POP JUMP JUMPDEST PUSH2 0x42A6 DUP2 PUSH2 0x428C JUMP JUMPDEST DUP2 EQ PUSH2 0x42B0 JUMPI PUSH0 PUSH0 REVERT JUMPDEST POP JUMP JUMPDEST PUSH0 DUP2 CALLDATALOAD SWAP1 POP PUSH2 0x42C1 DUP2 PUSH2 0x429D JUMP JUMPDEST SWAP3 SWAP2 POP POP JUMP JUMPDEST PUSH0 DUP2 ISZERO ISZERO SWAP1 POP SWAP2 SWAP1 POP JUMP JUMPDEST PUSH2 0x42DB DUP2 PUSH2 0x42C7 JUMP JUMPDEST DUP2 EQ PUSH2 0x42E5 JUMPI PUSH0 PUSH0 REVERT JUMPDEST POP JUMP JUMPDEST PUSH0 DUP2 CALLDATALOAD SWAP1 POP PUSH2 0x42F6 DUP2 PUSH2 0x42D2 JUMP JUMPDEST SWAP3 SWAP2 POP POP JUMP JUMPDEST PUSH0 PUSH0 PUSH0 PUSH0 PUSH0 PUSH1 0x80 DUP7 DUP9 SUB SLT ISZERO PUSH2 0x4315 JUMPI PUSH2 0x4314 PUSH2 0x3E55 JUMP JUMPDEST JUMPDEST PUSH0 DUP7 ADD CALLDATALOAD PUSH8 0xFFFFFFFFFFFFFFFF DUP2 GT ISZERO PUSH2 0x4332 JUMPI PUSH2 0x4331 PUSH2 0x3E59 JUMP JUMPDEST JUMPDEST PUSH2 0x433E DUP9 DUP3 DUP10 ADD PUSH2 0x4237 JUMP JUMPDEST SWAP6 POP SWAP6 POP POP PUSH1 0x20 PUSH2 0x4351 DUP9 DUP3 DUP10 ADD PUSH2 0x42B3 JUMP JUMPDEST SWAP4 POP POP PUSH1 0x40 PUSH2 0x4362 DUP9 DUP3 DUP10 ADD PUSH2 0x3F0B JUMP JUMPDEST SWAP3 POP POP PUSH1 0x60 PUSH2 0x4373 DUP9 DUP3 DUP10 ADD PUSH2 0x42E8 JUMP JUMPDEST SWAP2 POP POP SWAP3 SWAP6 POP SWAP3 SWAP6 SWAP1 SWAP4 POP JUMP JUMPDEST PUSH0 PUSH2 0x438A DUP3 PUSH2 0x3F74 JUMP JUMPDEST SWAP1 POP SWAP2 SWAP1 POP JUMP JUMPDEST PUSH2 0x439A DUP2 PUSH2 0x4380 JUMP JUMPDEST DUP3 MSTORE POP POP JUMP JUMPDEST PUSH0 PUSH1 0x20 DUP3 ADD SWAP1 POP PUSH2 0x43B3 PUSH0 DUP4 ADD DUP5 PUSH2 0x4391 JUMP JUMPDEST SWAP3 SWAP2 POP POP JUMP JUMPDEST PUSH0 PUSH2 0x43C3 DUP3 PUSH2 0x3F74 JUMP JUMPDEST SWAP1 POP SWAP2 SWAP1 POP JUMP JUMPDEST PUSH2 0x43D3 DUP2 PUSH2 0x43B9 JUMP JUMPDEST DUP3 MSTORE POP POP JUMP JUMPDEST PUSH0 PUSH1 0x20 DUP3 ADD SWAP1 POP PUSH2 0x43EC PUSH0 DUP4 ADD DUP5 PUSH2 0x43CA JUMP JUMPDEST SWAP3 SWAP2 POP POP JUMP JUMPDEST PUSH0 PUSH2 0x43FC DUP3 PUSH2 0x3F74 JUMP JUMPDEST SWAP1 POP SWAP2 SWAP1 POP JUMP JUMPDEST PUSH2 0x440C DUP2 PUSH2 0x43F2 JUMP JUMPDEST DUP3 MSTORE POP POP JUMP JUMPDEST PUSH0 PUSH1 0x20 DUP3 ADD SWAP1 POP PUSH2 0x4425 PUSH0 DUP4 ADD DUP5 PUSH2 0x4403 JUMP JUMPDEST SWAP3 SWAP2 POP POP JUMP JUMPDEST PUSH0 PUSH2 0x4435 DUP3 PUSH2 0x3F74 JUMP JUMPDEST SWAP1 POP SWAP2 SWAP1 POP JUMP JUMPDEST PUSH2 0x4445 DUP2 PUSH2 0x442B JUMP JUMPDEST DUP3 MSTORE POP POP JUMP JUMPDEST PUSH0 PUSH1 0x20 DUP3 ADD SWAP1 POP PUSH2 0x445E PUSH0 DUP4 ADD DUP5 PUSH2 0x443C JUMP JUMPDEST SWAP3 SWAP2 POP POP JUMP JUMPDEST PUSH0 PUSH1 0x20 DUP3 DUP5 SUB SLT ISZERO PUSH2 0x4479 JUMPI PUSH2 0x4478 PUSH2 0x3E55 JUMP JUMPDEST JUMPDEST PUSH0 PUSH2 0x4486 DUP5 DUP3 DUP6 ADD PUSH2 0x3EA3 JUMP JUMPDEST SWAP2 POP POP SWAP3 SWAP2 POP POP JUMP JUMPDEST PUSH0 PUSH2 0x4499 DUP3 PUSH2 0x3F74 JUMP JUMPDEST SWAP1 POP SWAP2 SWAP1 POP JUMP JUMPDEST PUSH2 0x44A9 DUP2 PUSH2 0x448F JUMP JUMPDEST DUP3 MSTORE POP POP JUMP JUMPDEST PUSH0 PUSH1 0x20 DUP3 ADD SWAP1 POP PUSH2 0x44C2 PUSH0 DUP4 ADD DUP5 PUSH2 0x44A0 JUMP JUMPDEST SWAP3 SWAP2 POP POP JUMP JUMPDEST PUSH0 DUP2 MLOAD SWAP1 POP PUSH2 0x44D6 DUP2 PUSH2 0x3E8D JUMP JUMPDEST SWAP3 SWAP2 POP POP JUMP JUMPDEST PUSH0 PUSH1 0x20 DUP3 DUP5 SUB SLT ISZERO PUSH2 0x44F1 JUMPI PUSH2 0x44F0 PUSH2 0x3E55 JUMP JUMPDEST JUMPDEST PUSH0 PUSH2 0x44FE DUP5 DUP3 DUP6 ADD PUSH2 0x44C8 JUMP JUMPDEST SWAP2 POP POP SWAP3 SWAP2 POP POP JUMP JUMPDEST PUSH0 DUP3 DUP3 MSTORE PUSH1 0x20 DUP3 ADD SWAP1 POP SWAP3 SWAP2 POP POP JUMP JUMPDEST PUSH32 0x43616C6C6572206973206E6F7420746865206F776E6572000000000000000000 PUSH0 DUP3 ADD MSTORE POP JUMP JUMPDEST PUSH0 PUSH2 0x454B PUSH1 0x17 DUP4 PUSH2 0x4507 JUMP JUMPDEST SWAP2 POP PUSH2 0x4556 DUP3 PUSH2 0x4517 JUMP JUMPDEST PUSH1 0x20 DUP3 ADD SWAP1 POP SWAP2 SWAP1 POP JUMP JUMPDEST PUSH0 PUSH1 0x20 DUP3 ADD SWAP1 POP DUP2 DUP2 SUB PUSH0 DUP4 ADD MSTORE PUSH2 0x4578 DUP2 PUSH2 0x453F JUMP JUMPDEST SWAP1 POP SWAP2 SWAP1 POP JUMP JUMPDEST PUSH0 DUP2 MLOAD SWAP1 POP SWAP2 SWAP1 POP JUMP JUMPDEST DUP3 DUP2 DUP4 MCOPY PUSH0 DUP4 DUP4 ADD MSTORE POP POP POP JUMP JUMPDEST PUSH0 PUSH2 0x45A1 DUP3 PUSH2 0x457F JUMP JUMPDEST PUSH2 0x45AB DUP2 DUP6 PUSH2 0x4507 JUMP JUMPDEST SWAP4 POP PUSH2 0x45BB DUP2 DUP6 PUSH1 0x20 DUP7 ADD PUSH2 0x4589 JUMP JUMPDEST PUSH2 0x45C4 DUP2 PUSH2 0x4094 JUMP JUMPDEST DUP5 ADD SWAP2 POP POP SWAP3 SWAP2 POP POP JUMP JUMPDEST PUSH0 PUSH1 0x20 DUP3 ADD SWAP1 POP DUP2 DUP2 SUB PUSH0 DUP4 ADD MSTORE PUSH2 0x45E7 DUP2 DUP5 PUSH2 0x4597 JUMP JUMPDEST SWAP1 POP SWAP3 SWAP2 POP POP JUMP JUMPDEST PUSH0 DUP2 SWAP1 POP SWAP2 SWAP1 POP JUMP JUMPDEST PUSH2 0x4601 DUP2 PUSH2 0x45EF JUMP JUMPDEST DUP2 EQ PUSH2 0x460B JUMPI PUSH0 PUSH0 REVERT JUMPDEST POP JUMP JUMPDEST PUSH0 DUP2 MLOAD SWAP1 POP PUSH2 0x461C DUP2 PUSH2 0x45F8 JUMP JUMPDEST SWAP3 SWAP2 POP POP JUMP JUMPDEST PUSH0 PUSH1 0x20 DUP3 DUP5 SUB SLT ISZERO PUSH2 0x4637 JUMPI PUSH2 0x4636 PUSH2 0x3E55 JUMP JUMPDEST JUMPDEST PUSH0 PUSH2 0x4644 DUP5 DUP3 DUP6 ADD PUSH2 0x460E JUMP JUMPDEST SWAP2 POP POP SWAP3 SWAP2 POP POP JUMP JUMPDEST PUSH32 0x5265656E7472616E637947756172643A207265656E7472616E742063616C6C00 PUSH0 DUP3 ADD MSTORE POP JUMP JUMPDEST PUSH0 PUSH2 0x4681 PUSH1 0x1F DUP4 PUSH2 0x4507 JUMP JUMPDEST SWAP2 POP PUSH2 0x468C DUP3 PUSH2 0x464D JUMP JUMPDEST PUSH1 0x20 DUP3 ADD SWAP1 POP SWAP2 SWAP1 POP JUMP JUMPDEST PUSH0 PUSH1 0x20 DUP3 ADD SWAP1 POP DUP2 DUP2 SUB PUSH0 DUP4 ADD MSTORE PUSH2 0x46AE DUP2 PUSH2 0x4675 JUMP JUMPDEST SWAP1 POP SWAP2 SWAP1 POP JUMP JUMPDEST PUSH32 0x4E487B7100000000000000000000000000000000000000000000000000000000 PUSH0 MSTORE PUSH1 0x32 PUSH1 0x4 MSTORE PUSH1 0x24 PUSH0 REVERT JUMPDEST PUSH0 PUSH2 0xFFFF DUP3 AND SWAP1 POP SWAP2 SWAP1 POP JUMP JUMPDEST PUSH2 0x46F8 DUP2 PUSH2 0x46E2 JUMP JUMPDEST DUP2 EQ PUSH2 0x4702 JUMPI PUSH0 PUSH0 REVERT JUMPDEST POP JUMP JUMPDEST PUSH0 DUP2 CALLDATALOAD SWAP1 POP PUSH2 0x4713 DUP2 PUSH2 0x46EF JUMP JUMPDEST SWAP3 SWAP2 POP POP JUMP JUMPDEST PUSH0 PUSH1 0x20 DUP3 DUP5 SUB SLT ISZERO PUSH2 0x472E JUMPI PUSH2 0x472D PUSH2 0x3E55 JUMP JUMPDEST JUMPDEST PUSH0 PUSH2 0x473B DUP5 DUP3 DUP6 ADD PUSH2 0x4705 JUMP JUMPDEST SWAP2 POP POP SWAP3 SWAP2 POP POP JUMP JUMPDEST PUSH32 0x4E487B7100000000000000000000000000000000000000000000000000000000 PUSH0 MSTORE PUSH1 0x12 PUSH1 0x4 MSTORE PUSH1 0x24 PUSH0 REVERT JUMPDEST PUSH0 DUP2 MLOAD SWAP1 POP SWAP2 SWAP1 POP JUMP JUMPDEST PUSH0 DUP3 DUP3 MSTORE PUSH1 0x20 DUP3 ADD SWAP1 POP SWAP3 SWAP2 POP POP JUMP JUMPDEST PUSH0 PUSH2 0x4795 DUP3 PUSH2 0x4771 JUMP JUMPDEST PUSH2 0x479F DUP2 DUP6 PUSH2 0x477B JUMP JUMPDEST SWAP4 POP PUSH2 0x47AF DUP2 DUP6 PUSH1 0x20 DUP7 ADD PUSH2 0x4589 JUMP JUMPDEST PUSH2 0x47B8 DUP2 PUSH2 0x4094 JUMP JUMPDEST DUP5 ADD SWAP2 POP POP SWAP3 SWAP2 POP POP JUMP JUMPDEST PUSH0 DUP2 MLOAD SWAP1 POP SWAP2 SWAP1 POP JUMP JUMPDEST PUSH0 DUP3 DUP3 MSTORE PUSH1 0x20 DUP3 ADD SWAP1 POP SWAP3 SWAP2 POP POP JUMP JUMPDEST PUSH0 DUP2 SWAP1 POP PUSH1 0x20 DUP3 ADD SWAP1 POP SWAP2 SWAP1 POP JUMP JUMPDEST PUSH0 DUP3 DUP3 MSTORE PUSH1 0x20 DUP3 ADD SWAP1 POP SWAP3 SWAP2 POP POP JUMP JUMPDEST PUSH0 PUSH2 0x4806 DUP3 PUSH2 0x4771 JUMP JUMPDEST PUSH2 0x4810 DUP2 DUP6 PUSH2 0x47EC JUMP JUMPDEST SWAP4 POP PUSH2 0x4820 DUP2 DUP6 PUSH1 0x20 DUP7 ADD PUSH2 0x4589 JUMP JUMPDEST PUSH2 0x4829 DUP2 PUSH2 0x4094 JUMP JUMPDEST DUP5 ADD SWAP2 POP POP SWAP3 SWAP2 POP POP JUMP JUMPDEST PUSH0 PUSH2 0x483F DUP4 DUP4 PUSH2 0x47FC JUMP JUMPDEST SWAP1 POP SWAP3 SWAP2 POP POP JUMP JUMPDEST PUSH0 PUSH1 0x20 DUP3 ADD SWAP1 POP SWAP2 SWAP1 POP JUMP JUMPDEST PUSH0 PUSH2 0x485D DUP3 PUSH2 0x47C3 JUMP JUMPDEST PUSH2 0x4867 DUP2 DUP6 PUSH2 0x47CD JUMP JUMPDEST SWAP4 POP DUP4 PUSH1 0x20 DUP3 MUL DUP6 ADD PUSH2 0x4879 DUP6 PUSH2 0x47DD JUMP JUMPDEST DUP1 PUSH0 JUMPDEST DUP6 DUP2 LT ISZERO PUSH2 0x48B4 JUMPI DUP5 DUP5 SUB DUP10 MSTORE DUP2 MLOAD PUSH2 0x4895 DUP6 DUP3 PUSH2 0x4834 JUMP JUMPDEST SWAP5 POP PUSH2 0x48A0 DUP4 PUSH2 0x4847 JUMP JUMPDEST SWAP3 POP PUSH1 0x20 DUP11 ADD SWAP10 POP POP PUSH1 0x1 DUP2 ADD SWAP1 POP PUSH2 0x487C JUMP JUMPDEST POP DUP3 SWAP8 POP DUP8 SWAP6 POP POP POP POP POP POP SWAP3 SWAP2 POP POP JUMP JUMPDEST PUSH0 PUSH1 0x40 DUP3 ADD SWAP1 POP DUP2 DUP2 SUB PUSH0 DUP4 ADD MSTORE PUSH2 0x48DE DUP2 DUP6 PUSH2 0x478B JUMP JUMPDEST SWAP1 POP DUP2 DUP2 SUB PUSH1 0x20 DUP4 ADD MSTORE PUSH2 0x48F2 DUP2 DUP5 PUSH2 0x4853 JUMP JUMPDEST SWAP1 POP SWAP4 SWAP3 POP POP POP JUMP JUMPDEST PUSH0 DUP2 SWAP1 POP SWAP3 SWAP2 POP POP JUMP JUMPDEST POP JUMP JUMPDEST PUSH0 PUSH2 0x4913 PUSH0 DUP4 PUSH2 0x48FB JUMP JUMPDEST SWAP2 POP PUSH2 0x491E DUP3 PUSH2 0x4905 JUMP JUMPDEST PUSH0 DUP3 ADD SWAP1 POP SWAP2 SWAP1 POP JUMP JUMPDEST PUSH0 PUSH2 0x4932 DUP3 PUSH2 0x4908 JUMP JUMPDEST SWAP2 POP DUP2 SWAP1 POP SWAP2 SWAP1 POP JUMP JUMPDEST PUSH2 0x4945 DUP2 PUSH2 0x45EF JUMP JUMPDEST DUP3 MSTORE POP POP JUMP JUMPDEST PUSH0 PUSH1 0x20 DUP3 ADD SWAP1 POP PUSH2 0x495E PUSH0 DUP4 ADD DUP5 PUSH2 0x493C JUMP JUMPDEST SWAP3 SWAP2 POP POP JUMP JUMPDEST PUSH32 0x4469726563746F72792063616E6E6F74206265207A65726F2061646472657373 PUSH0 DUP3 ADD MSTORE POP JUMP JUMPDEST PUSH0 PUSH2 0x4998 PUSH1 0x20 DUP4 PUSH2 0x4507 JUMP JUMPDEST SWAP2 POP PUSH2 0x49A3 DUP3 PUSH2 0x4964 JUMP JUMPDEST PUSH1 0x20 DUP3 ADD SWAP1 POP SWAP2 SWAP1 POP JUMP JUMPDEST PUSH0 PUSH1 0x20 DUP3 ADD SWAP1 POP DUP2 DUP2 SUB PUSH0 DUP4 ADD MSTORE PUSH2 0x49C5 DUP2 PUSH2 0x498C JUMP JUMPDEST SWAP1 POP SWAP2 SWAP1 POP JUMP JUMPDEST PUSH32 0x4469726563746F7279206D757374206265206120636F6E747261637400000000 PUSH0 DUP3 ADD MSTORE POP JUMP JUMPDEST PUSH0 PUSH2 0x4A00 PUSH1 0x1C DUP4 PUSH2 0x4507 JUMP JUMPDEST SWAP2 POP PUSH2 0x4A0B DUP3 PUSH2 0x49CC JUMP JUMPDEST PUSH1 0x20 DUP3 ADD SWAP1 POP SWAP2 SWAP1 POP JUMP JUMPDEST PUSH0 PUSH1 0x20 DUP3 ADD SWAP1 POP DUP2 DUP2 SUB PUSH0 DUP4 ADD MSTORE PUSH2 0x4A2D DUP2 PUSH2 0x49F4 JUMP JUMPDEST SWAP1 POP SWAP2 SWAP1 POP JUMP JUMPDEST PUSH32 0x4469726563746F7279206164647265737320646F6573206E6F7420696D706C65 PUSH0 DUP3 ADD MSTORE PUSH32 0x6D656E74206F776E657228290000000000000000000000000000000000000000 PUSH1 0x20 DUP3 ADD MSTORE POP JUMP JUMPDEST PUSH0 PUSH2 0x4A8E PUSH1 0x2C DUP4 PUSH2 0x4507 JUMP JUMPDEST SWAP2 POP PUSH2 0x4A99 DUP3 PUSH2 0x4A34 JUMP JUMPDEST PUSH1 0x40 DUP3 ADD SWAP1 POP SWAP2 SWAP1 POP JUMP JUMPDEST PUSH0 PUSH1 0x20 DUP3 ADD SWAP1 POP DUP2 DUP2 SUB PUSH0 DUP4 ADD MSTORE PUSH2 0x4ABB DUP2 PUSH2 0x4A82 JUMP JUMPDEST SWAP1 POP SWAP2 SWAP1 POP JUMP JUMPDEST PUSH0 PUSH0 REVERT JUMPDEST PUSH0 PUSH3 0xFFFFFF DUP3 AND SWAP1 POP SWAP2 SWAP1 POP JUMP JUMPDEST PUSH2 0x4ADD DUP2 PUSH2 0x4AC6 JUMP JUMPDEST DUP2 EQ PUSH2 0x4AE7 JUMPI PUSH0 PUSH0 REVERT JUMPDEST POP JUMP JUMPDEST PUSH0 DUP2 MLOAD SWAP1 POP PUSH2 0x4AF8 DUP2 PUSH2 0x4AD4 JUMP JUMPDEST SWAP3 SWAP2 POP POP JUMP JUMPDEST PUSH0 PUSH1 0xFF DUP3 AND SWAP1 POP SWAP2 SWAP1 POP JUMP JUMPDEST PUSH2 0x4B13 DUP2 PUSH2 0x4AFE JUMP JUMPDEST DUP2 EQ PUSH2 0x4B1D JUMPI PUSH0 PUSH0 REVERT JUMPDEST POP JUMP JUMPDEST PUSH0 DUP2 MLOAD SWAP1 POP PUSH2 0x4B2E DUP2 PUSH2 0x4B0A JUMP JUMPDEST SWAP3 SWAP2 POP POP JUMP JUMPDEST PUSH0 PUSH8 0xFFFFFFFFFFFFFFFF DUP3 AND SWAP1 POP SWAP2 SWAP1 POP JUMP JUMPDEST PUSH2 0x4B50 DUP2 PUSH2 0x4B34 JUMP JUMPDEST DUP2 EQ PUSH2 0x4B5A JUMPI PUSH0 PUSH0 REVERT JUMPDEST POP JUMP JUMPDEST PUSH0 DUP2 MLOAD SWAP1 POP PUSH2 0x4B6B DUP2 PUSH2 0x4B47 JUMP JUMPDEST SWAP3 SWAP2 POP POP JUMP JUMPDEST PUSH0 PUSH1 0x80 DUP3 DUP5 SUB SLT ISZERO PUSH2 0x4B86 JUMPI PUSH2 0x4B85 PUSH2 0x4AC2 JUMP JUMPDEST JUMPDEST PUSH2 0x4B90 PUSH1 0x80 PUSH2 0x4102 JUMP JUMPDEST SWAP1 POP PUSH0 PUSH2 0x4B9F DUP5 DUP3 DUP6 ADD PUSH2 0x44C8 JUMP JUMPDEST PUSH0 DUP4 ADD MSTORE POP PUSH1 0x20 PUSH2 0x4BB2 DUP5 DUP3 DUP6 ADD PUSH2 0x4AEA JUMP JUMPDEST PUSH1 0x20 DUP4 ADD MSTORE POP PUSH1 0x40 PUSH2 0x4BC6 DUP5 DUP3 DUP6 ADD PUSH2 0x4B20 JUMP JUMPDEST PUSH1 0x40 DUP4 ADD MSTORE POP PUSH1 0x60 PUSH2 0x4BDA DUP5 DUP3 DUP6 ADD PUSH2 0x4B5D JUMP JUMPDEST PUSH1 0x60 DUP4 ADD MSTORE POP SWAP3 SWAP2 POP POP JUMP JUMPDEST PUSH0 PUSH1 0x80 DUP3 DUP5 SUB SLT ISZERO PUSH2 0x4BFB JUMPI PUSH2 0x4BFA PUSH2 0x3E55 JUMP JUMPDEST JUMPDEST PUSH0 PUSH2 0x4C08 DUP5 DUP3 DUP6 ADD PUSH2 0x4B71 JUMP JUMPDEST SWAP2 POP POP SWAP3 SWAP2 POP POP JUMP JUMPDEST PUSH0 PUSH1 0x40 DUP3 ADD SWAP1 POP PUSH2 0x4C24 PUSH0 DUP4 ADD DUP6 PUSH2 0x420F JUMP JUMPDEST PUSH2 0x4C31 PUSH1 0x20 DUP4 ADD DUP5 PUSH2 0x493C JUMP JUMPDEST SWAP4 SWAP3 POP POP POP JUMP JUMPDEST PUSH0 PUSH2 0x4C42 DUP3 PUSH2 0x4771 JUMP JUMPDEST PUSH2 0x4C4C DUP2 DUP6 PUSH2 0x48FB JUMP JUMPDEST SWAP4 POP PUSH2 0x4C5C DUP2 DUP6 PUSH1 0x20 DUP7 ADD PUSH2 0x4589 JUMP JUMPDEST DUP1 DUP5 ADD SWAP2 POP POP SWAP3 SWAP2 POP POP JUMP JUMPDEST PUSH0 PUSH2 0x4C73 DUP3 DUP5 PUSH2 0x4C38 JUMP JUMPDEST SWAP2 POP DUP2 SWAP1 POP SWAP3 SWAP2 POP POP JUMP JUMPDEST PUSH0 DUP2 MLOAD SWAP1 POP PUSH2 0x4C8C DUP2 PUSH2 0x42D2 JUMP JUMPDEST SWAP3 SWAP2 POP POP JUMP JUMPDEST PUSH0 PUSH1 0x20 DUP3 DUP5 SUB SLT ISZERO PUSH2 0x4CA7 JUMPI PUSH2 0x4CA6 PUSH2 0x3E55 JUMP JUMPDEST JUMPDEST PUSH0 PUSH2 0x4CB4 DUP5 DUP3 DUP6 ADD PUSH2 0x4C7E JUMP JUMPDEST SWAP2 POP POP SWAP3 SWAP2 POP POP JUMP JUMPDEST PUSH32 0x5452414E534645525F4641494C45440000000000000000000000000000000000 PUSH0 DUP3 ADD MSTORE POP JUMP JUMPDEST PUSH0 PUSH2 0x4CF1 PUSH1 0xF DUP4 PUSH2 0x4507 JUMP JUMPDEST SWAP2 POP PUSH2 0x4CFC DUP3 PUSH2 0x4CBD JUMP JUMPDEST PUSH1 0x20 DUP3 ADD SWAP1 POP SWAP2 SWAP1 POP JUMP JUMPDEST PUSH0 PUSH1 0x20 DUP3 ADD SWAP1 POP DUP2 DUP2 SUB PUSH0 DUP4 ADD MSTORE PUSH2 0x4D1E DUP2 PUSH2 0x4CE5 JUMP JUMPDEST SWAP1 POP SWAP2 SWAP1 POP JUMP JUMPDEST PUSH0 PUSH1 0x40 DUP3 ADD SWAP1 POP PUSH2 0x4D38 PUSH0 DUP4 ADD DUP6 PUSH2 0x420F JUMP JUMPDEST PUSH2 0x4D45 PUSH1 0x20 DUP4 ADD DUP5 PUSH2 0x420F JUMP JUMPDEST SWAP4 SWAP3 POP POP POP JUMP JUMPDEST PUSH2 0x4D55 DUP2 PUSH2 0x4AC6 JUMP JUMPDEST DUP3 MSTORE POP POP JUMP JUMPDEST PUSH0 PUSH1 0x60 DUP3 ADD SWAP1 POP PUSH2 0x4D6E PUSH0 DUP4 ADD DUP7 PUSH2 0x420F JUMP JUMPDEST PUSH2 0x4D7B PUSH1 0x20 DUP4 ADD DUP6 PUSH2 0x420F JUMP JUMPDEST PUSH2 0x4D88 PUSH1 0x40 DUP4 ADD DUP5 PUSH2 0x4D4C JUMP JUMPDEST SWAP5 SWAP4 POP POP POP POP JUMP JUMPDEST PUSH32 0x4E487B7100000000000000000000000000000000000000000000000000000000 PUSH0 MSTORE PUSH1 0x11 PUSH1 0x4 MSTORE PUSH1 0x24 PUSH0 REVERT JUMPDEST PUSH0 PUSH2 0x4DC7 DUP3 PUSH2 0x45EF JUMP JUMPDEST SWAP2 POP PUSH2 0x4DD2 DUP4 PUSH2 0x45EF JUMP JUMPDEST SWAP3 POP DUP3 DUP3 SUB SWAP1 POP DUP2 DUP2 GT ISZERO PUSH2 0x4DEA JUMPI PUSH2 0x4DE9 PUSH2 0x4D90 JUMP JUMPDEST JUMPDEST SWAP3 SWAP2 POP POP JUMP JUMPDEST PUSH0 PUSH2 0x4DFA DUP3 PUSH2 0x45EF JUMP JUMPDEST SWAP2 POP PUSH2 0x4E05 DUP4 PUSH2 0x45EF JUMP JUMPDEST SWAP3 POP DUP3 DUP3 MUL PUSH2 0x4E13 DUP2 PUSH2 0x45EF JUMP JUMPDEST SWAP2 POP DUP3 DUP3 DIV DUP5 EQ DUP4 ISZERO OR PUSH2 0x4E2A JUMPI PUSH2 0x4E29 PUSH2 0x4D90 JUMP JUMPDEST JUMPDEST POP SWAP3 SWAP2 POP POP JUMP JUMPDEST PUSH0 PUSH2 0x4E3B DUP3 PUSH2 0x45EF JUMP JUMPDEST SWAP2 POP PUSH2 0x4E46 DUP4 PUSH2 0x45EF JUMP JUMPDEST SWAP3 POP DUP3 PUSH2 0x4E56 JUMPI PUSH2 0x4E55 PUSH2 0x4744 JUMP JUMPDEST JUMPDEST DUP3 DUP3 DIV SWAP1 POP SWAP3 SWAP2 POP POP JUMP JUMPDEST PUSH0 DUP2 MLOAD SWAP1 POP SWAP2 SWAP1 POP JUMP JUMPDEST PUSH0 DUP3 DUP3 MSTORE PUSH1 0x20 DUP3 ADD SWAP1 POP SWAP3 SWAP2 POP POP JUMP JUMPDEST PUSH0 DUP2 SWAP1 POP PUSH1 0x20 DUP3 ADD SWAP1 POP SWAP2 SWAP1 POP JUMP JUMPDEST PUSH2 0x4E93 DUP2 PUSH2 0x3E15 JUMP JUMPDEST DUP3 MSTORE POP POP JUMP JUMPDEST PUSH0 PUSH2 0x4EA4 DUP4 DUP4 PUSH2 0x4E8A JUMP JUMPDEST PUSH1 0x20 DUP4 ADD SWAP1 POP SWAP3 SWAP2 POP POP JUMP JUMPDEST PUSH0 PUSH1 0x20 DUP3 ADD SWAP1 POP SWAP2 SWAP1 POP JUMP JUMPDEST PUSH0 PUSH2 0x4EC6 DUP3 PUSH2 0x4E61 JUMP JUMPDEST PUSH2 0x4ED0 DUP2 DUP6 PUSH2 0x4E6B JUMP JUMPDEST SWAP4 POP PUSH2 0x4EDB DUP4 PUSH2 0x4E7B JUMP JUMPDEST DUP1 PUSH0 JUMPDEST DUP4 DUP2 LT ISZERO PUSH2 0x4F0B JUMPI DUP2 MLOAD PUSH2 0x4EF2 DUP9 DUP3 PUSH2 0x4E99 JUMP JUMPDEST SWAP8 POP PUSH2 0x4EFD DUP4 PUSH2 0x4EB0 JUMP JUMPDEST SWAP3 POP POP PUSH1 0x1 DUP2 ADD SWAP1 POP PUSH2 0x4EDE JUMP JUMPDEST POP DUP6 SWAP4 POP POP POP POP SWAP3 SWAP2 POP POP JUMP JUMPDEST PUSH0 PUSH1 0x20 DUP3 ADD SWAP1 POP DUP2 DUP2 SUB PUSH0 DUP4 ADD MSTORE PUSH2 0x4F30 DUP2 DUP5 PUSH2 0x4EBC JUMP JUMPDEST SWAP1 POP SWAP3 SWAP2 POP POP JUMP JUMPDEST PUSH0 PUSH8 0xFFFFFFFFFFFFFFFF DUP3 GT ISZERO PUSH2 0x4F52 JUMPI PUSH2 0x4F51 PUSH2 0x40A4 JUMP JUMPDEST JUMPDEST PUSH1 0x20 DUP3 MUL SWAP1 POP PUSH1 0x20 DUP2 ADD SWAP1 POP SWAP2 SWAP1 POP JUMP JUMPDEST PUSH0 DUP2 PUSH1 0x6 SIGNEXTEND SWAP1 POP SWAP2 SWAP1 POP JUMP JUMPDEST PUSH2 0x4F78 DUP2 PUSH2 0x4F63 JUMP JUMPDEST DUP2 EQ PUSH2 0x4F82 JUMPI PUSH0 PUSH0 REVERT JUMPDEST POP JUMP JUMPDEST PUSH0 DUP2 MLOAD SWAP1 POP PUSH2 0x4F93 DUP2 PUSH2 0x4F6F JUMP JUMPDEST SWAP3 SWAP2 POP POP JUMP JUMPDEST PUSH0 PUSH2 0x4FAB PUSH2 0x4FA6 DUP5 PUSH2 0x4F38 JUMP JUMPDEST PUSH2 0x4102 JUMP JUMPDEST SWAP1 POP DUP1 DUP4 DUP3 MSTORE PUSH1 0x20 DUP3 ADD SWAP1 POP PUSH1 0x20 DUP5 MUL DUP4 ADD DUP6 DUP2 GT ISZERO PUSH2 0x4FCE JUMPI PUSH2 0x4FCD PUSH2 0x3FC6 JUMP JUMPDEST JUMPDEST DUP4 JUMPDEST DUP2 DUP2 LT ISZERO PUSH2 0x4FF7 JUMPI DUP1 PUSH2 0x4FE3 DUP9 DUP3 PUSH2 0x4F85 JUMP JUMPDEST DUP5 MSTORE PUSH1 0x20 DUP5 ADD SWAP4 POP POP PUSH1 0x20 DUP2 ADD SWAP1 POP PUSH2 0x4FD0 JUMP JUMPDEST POP POP POP SWAP4 SWAP3 POP POP POP JUMP JUMPDEST PUSH0 DUP3 PUSH1 0x1F DUP4 ADD SLT PUSH2 0x5015 JUMPI PUSH2 0x5014 PUSH2 0x3FBE JUMP JUMPDEST JUMPDEST DUP2 MLOAD PUSH2 0x5025 DUP5 DUP3 PUSH1 0x20 DUP7 ADD PUSH2 0x4F99 JUMP JUMPDEST SWAP2 POP POP SWAP3 SWAP2 POP POP JUMP JUMPDEST PUSH0 PUSH8 0xFFFFFFFFFFFFFFFF DUP3 GT ISZERO PUSH2 0x5048 JUMPI PUSH2 0x5047 PUSH2 0x40A4 JUMP JUMPDEST JUMPDEST PUSH1 0x20 DUP3 MUL SWAP1 POP PUSH1 0x20 DUP2 ADD SWAP1 POP SWAP2 SWAP1 POP JUMP JUMPDEST PUSH2 0x5062 DUP2 PUSH2 0x3E5D JUMP JUMPDEST DUP2 EQ PUSH2 0x506C JUMPI PUSH0 PUSH0 REVERT JUMPDEST POP JUMP JUMPDEST PUSH0 DUP2 MLOAD SWAP1 POP PUSH2 0x507D DUP2 PUSH2 0x5059 JUMP JUMPDEST SWAP3 SWAP2 POP POP JUMP JUMPDEST PUSH0 PUSH2 0x5095 PUSH2 0x5090 DUP5 PUSH2 0x502E JUMP JUMPDEST PUSH2 0x4102 JUMP JUMPDEST SWAP1 POP DUP1 DUP4 DUP3 MSTORE PUSH1 0x20 DUP3 ADD SWAP1 POP PUSH1 0x20 DUP5 MUL DUP4 ADD DUP6 DUP2 GT ISZERO PUSH2 0x50B8 JUMPI PUSH2 0x50B7 PUSH2 0x3FC6 JUMP JUMPDEST JUMPDEST DUP4 JUMPDEST DUP2 DUP2 LT ISZERO PUSH2 0x50E1 JUMPI DUP1 PUSH2 0x50CD DUP9 DUP3 PUSH2 0x506F JUMP JUMPDEST DUP5 MSTORE PUSH1 0x20 DUP5 ADD SWAP4 POP POP PUSH1 0x20 DUP2 ADD SWAP1 POP PUSH2 0x50BA JUMP JUMPDEST POP POP POP SWAP4 SWAP3 POP POP POP JUMP JUMPDEST PUSH0 DUP3 PUSH1 0x1F DUP4 ADD SLT PUSH2 0x50FF JUMPI PUSH2 0x50FE PUSH2 0x3FBE JUMP JUMPDEST JUMPDEST DUP2 MLOAD PUSH2 0x510F DUP5 DUP3 PUSH1 0x20 DUP7 ADD PUSH2 0x5083 JUMP JUMPDEST SWAP2 POP POP SWAP3 SWAP2 POP POP JUMP JUMPDEST PUSH0 PUSH0 PUSH1 0x40 DUP4 DUP6 SUB SLT ISZERO PUSH2 0x512E JUMPI PUSH2 0x512D PUSH2 0x3E55 JUMP JUMPDEST JUMPDEST PUSH0 DUP4 ADD MLOAD PUSH8 0xFFFFFFFFFFFFFFFF DUP2 GT ISZERO PUSH2 0x514B JUMPI PUSH2 0x514A PUSH2 0x3E59 JUMP JUMPDEST JUMPDEST PUSH2 0x5157 DUP6 DUP3 DUP7 ADD PUSH2 0x5001 JUMP JUMPDEST SWAP3 POP POP PUSH1 0x20 DUP4 ADD MLOAD PUSH8 0xFFFFFFFFFFFFFFFF DUP2 GT ISZERO PUSH2 0x5178 JUMPI PUSH2 0x5177 PUSH2 0x3E59 JUMP JUMPDEST JUMPDEST PUSH2 0x5184 DUP6 DUP3 DUP7 ADD PUSH2 0x50EB JUMP JUMPDEST SWAP2 POP POP SWAP3 POP SWAP3 SWAP1 POP JUMP JUMPDEST PUSH0 DUP2 PUSH1 0x2 SIGNEXTEND SWAP1 POP SWAP2 SWAP1 POP JUMP JUMPDEST PUSH2 0x51A3 DUP2 PUSH2 0x518E JUMP JUMPDEST DUP2 EQ PUSH2 0x51AD JUMPI PUSH0 PUSH0 REVERT JUMPDEST POP JUMP JUMPDEST PUSH0 DUP2 MLOAD SWAP1 POP PUSH2 0x51BE DUP2 PUSH2 0x519A JUMP JUMPDEST SWAP3 SWAP2 POP POP JUMP JUMPDEST PUSH0 DUP2 MLOAD SWAP1 POP PUSH2 0x51D2 DUP2 PUSH2 0x46EF JUMP JUMPDEST SWAP3 SWAP2 POP POP JUMP JUMPDEST PUSH0 PUSH0 PUSH0 PUSH0 PUSH0 PUSH0 PUSH0 PUSH1 0xE0 DUP9 DUP11 SUB SLT ISZERO PUSH2 0x51F3 JUMPI PUSH2 0x51F2 PUSH2 0x3E55 JUMP JUMPDEST JUMPDEST PUSH0 PUSH2 0x5200 DUP11 DUP3 DUP12 ADD PUSH2 0x506F JUMP JUMPDEST SWAP8 POP POP PUSH1 0x20 PUSH2 0x5211 DUP11 DUP3 DUP12 ADD PUSH2 0x51B0 JUMP JUMPDEST SWAP7 POP POP PUSH1 0x40 PUSH2 0x5222 DUP11 DUP3 DUP12 ADD PUSH2 0x51C4 JUMP JUMPDEST SWAP6 POP POP PUSH1 0x60 PUSH2 0x5233 DUP11 DUP3 DUP12 ADD PUSH2 0x51C4 JUMP JUMPDEST SWAP5 POP POP PUSH1 0x80 PUSH2 0x5244 DUP11 DUP3 DUP12 ADD PUSH2 0x51C4 JUMP JUMPDEST SWAP4 POP POP PUSH1 0xA0 PUSH2 0x5255 DUP11 DUP3 DUP12 ADD PUSH2 0x4B20 JUMP JUMPDEST SWAP3 POP POP PUSH1 0xC0 PUSH2 0x5266 DUP11 DUP3 DUP12 ADD PUSH2 0x4C7E JUMP JUMPDEST SWAP2 POP POP SWAP3 SWAP6 SWAP9 SWAP2 SWAP5 SWAP8 POP SWAP3 SWAP6 POP JUMP JUMPDEST PUSH0 DUP2 PUSH1 0x60 SHL SWAP1 POP SWAP2 SWAP1 POP JUMP JUMPDEST PUSH0 PUSH2 0x528B DUP3 PUSH2 0x5275 JUMP JUMPDEST SWAP1 POP SWAP2 SWAP1 POP JUMP JUMPDEST PUSH0 PUSH2 0x529C DUP3 PUSH2 0x5281 JUMP JUMPDEST SWAP1 POP SWAP2 SWAP1 POP JUMP JUMPDEST PUSH2 0x52B4 PUSH2 0x52AF DUP3 PUSH2 0x3E7C JUMP JUMPDEST PUSH2 0x5292 JUMP JUMPDEST DUP3 MSTORE POP POP JUMP JUMPDEST PUSH0 DUP2 PUSH1 0xE8 SHL SWAP1 POP SWAP2 SWAP1 POP JUMP JUMPDEST PUSH0 PUSH2 0x52D0 DUP3 PUSH2 0x52BA JUMP JUMPDEST SWAP1 POP SWAP2 SWAP1 POP JUMP JUMPDEST PUSH2 0x52E8 PUSH2 0x52E3 DUP3 PUSH2 0x4AC6 JUMP JUMPDEST PUSH2 0x52C6 JUMP JUMPDEST DUP3 MSTORE POP POP JUMP JUMPDEST PUSH0 PUSH2 0x52F9 DUP3 DUP7 PUSH2 0x52A3 JUMP JUMPDEST PUSH1 0x14 DUP3 ADD SWAP2 POP PUSH2 0x5309 DUP3 DUP6 PUSH2 0x52D7 JUMP JUMPDEST PUSH1 0x3 DUP3 ADD SWAP2 POP PUSH2 0x5319 DUP3 DUP5 PUSH2 0x52A3 JUMP JUMPDEST PUSH1 0x14 DUP3 ADD SWAP2 POP DUP2 SWAP1 POP SWAP5 SWAP4 POP POP POP POP JUMP JUMPDEST PUSH2 0x5333 DUP2 PUSH2 0x42C7 JUMP JUMPDEST DUP3 MSTORE POP POP JUMP JUMPDEST PUSH0 PUSH1 0xA0 DUP3 ADD SWAP1 POP PUSH2 0x534C PUSH0 DUP4 ADD DUP9 PUSH2 0x420F JUMP JUMPDEST PUSH2 0x5359 PUSH1 0x20 DUP4 ADD DUP8 PUSH2 0x493C JUMP JUMPDEST PUSH2 0x5366 PUSH1 0x40 DUP4 ADD DUP7 PUSH2 0x493C JUMP JUMPDEST DUP2 DUP2 SUB PUSH1 0x60 DUP4 ADD MSTORE PUSH2 0x5378 DUP2 DUP6 PUSH2 0x478B JUMP JUMPDEST SWAP1 POP PUSH2 0x5387 PUSH1 0x80 DUP4 ADD DUP5 PUSH2 0x532A JUMP JUMPDEST SWAP7 SWAP6 POP POP POP POP POP POP JUMP JUMPDEST PUSH0 DUP2 MLOAD SWAP1 POP SWAP2 SWAP1 POP JUMP JUMPDEST PUSH0 DUP3 DUP3 MSTORE PUSH1 0x20 DUP3 ADD SWAP1 POP SWAP3 SWAP2 POP POP JUMP JUMPDEST PUSH0 DUP2 SWAP1 POP PUSH1 0x20 DUP3 ADD SWAP1 POP SWAP2 SWAP1 POP JUMP JUMPDEST PUSH2 0x53C3 DUP2 PUSH2 0x3E7C JUMP JUMPDEST DUP3 MSTORE POP POP JUMP JUMPDEST PUSH0 PUSH2 0x53D4 DUP4 DUP4 PUSH2 0x53BA JUMP JUMPDEST PUSH1 0x20 DUP4 ADD SWAP1 POP SWAP3 SWAP2 POP POP JUMP JUMPDEST PUSH0 PUSH1 0x20 DUP3 ADD SWAP1 POP SWAP2 SWAP1 POP JUMP JUMPDEST PUSH0 PUSH2 0x53F6 DUP3 PUSH2 0x5391 JUMP JUMPDEST PUSH2 0x5400 DUP2 DUP6 PUSH2 0x539B JUMP JUMPDEST SWAP4 POP PUSH2 0x540B DUP4 PUSH2 0x53AB JUMP JUMPDEST DUP1 PUSH0 JUMPDEST DUP4 DUP2 LT ISZERO PUSH2 0x543B JUMPI DUP2 MLOAD PUSH2 0x5422 DUP9 DUP3 PUSH2 0x53C9 JUMP JUMPDEST SWAP8 POP PUSH2 0x542D DUP4 PUSH2 0x53E0 JUMP JUMPDEST SWAP3 POP POP PUSH1 0x1 DUP2 ADD SWAP1 POP PUSH2 0x540E JUMP JUMPDEST POP DUP6 SWAP4 POP POP POP POP SWAP3 SWAP2 POP POP JUMP JUMPDEST PUSH0 PUSH1 0x40 DUP3 ADD SWAP1 POP PUSH2 0x545B PUSH0 DUP4 ADD DUP6 PUSH2 0x493C JUMP JUMPDEST DUP2 DUP2 SUB PUSH1 0x20 DUP4 ADD MSTORE PUSH2 0x546D DUP2 DUP5 PUSH2 0x53EC JUMP JUMPDEST SWAP1 POP SWAP4 SWAP3 POP POP POP JUMP JUMPDEST PUSH0 PUSH8 0xFFFFFFFFFFFFFFFF DUP3 GT ISZERO PUSH2 0x5490 JUMPI PUSH2 0x548F PUSH2 0x40A4 JUMP JUMPDEST JUMPDEST PUSH1 0x20 DUP3 MUL SWAP1 POP PUSH1 0x20 DUP2 ADD SWAP1 POP SWAP2 SWAP1 POP JUMP JUMPDEST PUSH0 PUSH2 0x54B3 PUSH2 0x54AE DUP5 PUSH2 0x5476 JUMP JUMPDEST PUSH2 0x4102 JUMP JUMPDEST SWAP1 POP DUP1 DUP4 DUP3 MSTORE PUSH1 0x20 DUP3 ADD SWAP1 POP PUSH1 0x20 DUP5 MUL DUP4 ADD DUP6 DUP2 GT ISZERO PUSH2 0x54D6 JUMPI PUSH2 0x54D5 PUSH2 0x3FC6 JUMP JUMPDEST JUMPDEST DUP4 JUMPDEST DUP2 DUP2 LT ISZERO PUSH2 0x54FF JUMPI DUP1 PUSH2 0x54EB DUP9 DUP3 PUSH2 0x460E JUMP JUMPDEST DUP5 MSTORE PUSH1 0x20 DUP5 ADD SWAP4 POP POP PUSH1 0x20 DUP2 ADD SWAP1 POP PUSH2 0x54D8 JUMP JUMPDEST POP POP POP SWAP4 SWAP3 POP POP POP JUMP JUMPDEST PUSH0 DUP3 PUSH1 0x1F DUP4 ADD SLT PUSH2 0x551D JUMPI PUSH2 0x551C PUSH2 0x3FBE JUMP JUMPDEST JUMPDEST DUP2 MLOAD PUSH2 0x552D DUP5 DUP3 PUSH1 0x20 DUP7 ADD PUSH2 0x54A1 JUMP JUMPDEST SWAP2 POP POP SWAP3 SWAP2 POP POP JUMP JUMPDEST PUSH0 PUSH1 0x20 DUP3 DUP5 SUB SLT ISZERO PUSH2 0x554B JUMPI PUSH2 0x554A PUSH2 0x3E55 JUMP JUMPDEST JUMPDEST PUSH0 DUP3 ADD MLOAD PUSH8 0xFFFFFFFFFFFFFFFF DUP2 GT ISZERO PUSH2 0x5568 JUMPI PUSH2 0x5567 PUSH2 0x3E59 JUMP JUMPDEST JUMPDEST PUSH2 0x5574 DUP5 DUP3 DUP6 ADD PUSH2 0x5509 JUMP JUMPDEST SWAP2 POP POP SWAP3 SWAP2 POP POP JUMP JUMPDEST PUSH0 PUSH1 0xA0 DUP3 ADD SWAP1 POP PUSH2 0x5590 PUSH0 DUP4 ADD DUP9 PUSH2 0x420F JUMP JUMPDEST PUSH2 0x559D PUSH1 0x20 DUP4 ADD DUP8 PUSH2 0x493C JUMP JUMPDEST PUSH2 0x55AA PUSH1 0x40 DUP4 ADD DUP7 PUSH2 0x493C JUMP JUMPDEST DUP2 DUP2 SUB PUSH1 0x60 DUP4 ADD MSTORE PUSH2 0x55BC DUP2 DUP6 PUSH2 0x53EC JUMP JUMPDEST SWAP1 POP PUSH2 0x55CB PUSH1 0x80 DUP4 ADD DUP5 PUSH2 0x532A JUMP JUMPDEST SWAP7 SWAP6 POP POP POP POP POP POP JUMP JUMPDEST PUSH0 PUSH1 0x60 DUP3 ADD SWAP1 POP PUSH2 0x55E8 PUSH0 DUP4 ADD DUP7 PUSH2 0x420F JUMP JUMPDEST PUSH2 0x55F5 PUSH1 0x20 DUP4 ADD DUP6 PUSH2 0x420F JUMP JUMPDEST PUSH2 0x5602 PUSH1 0x40 DUP4 ADD DUP5 PUSH2 0x493C JUMP JUMPDEST SWAP5 SWAP4 POP POP POP POP JUMP JUMPDEST PUSH32 0x5452414E534645525F46524F4D5F4641494C4544000000000000000000000000 PUSH0 DUP3 ADD MSTORE POP JUMP JUMPDEST PUSH0 PUSH2 0x563E PUSH1 0x14 DUP4 PUSH2 0x4507 JUMP JUMPDEST SWAP2 POP PUSH2 0x5649 DUP3 PUSH2 0x560A JUMP JUMPDEST PUSH1 0x20 DUP3 ADD SWAP1 POP SWAP2 SWAP1 POP JUMP JUMPDEST PUSH0 PUSH1 0x20 DUP3 ADD SWAP1 POP DUP2 DUP2 SUB PUSH0 DUP4 ADD MSTORE PUSH2 0x566B DUP2 PUSH2 0x5632 JUMP JUMPDEST SWAP1 POP SWAP2 SWAP1 POP JUMP JUMPDEST PUSH0 PUSH2 0x567C DUP3 PUSH2 0x4F63 JUMP JUMPDEST SWAP2 POP PUSH2 0x5687 DUP4 PUSH2 0x4F63 JUMP JUMPDEST SWAP3 POP DUP3 DUP3 SUB SWAP1 POP PUSH7 0x7FFFFFFFFFFFFF DUP2 SGT PUSH32 0xFFFFFFFFFFFFFFFFFFFFFFFFFFFFFFFFFFFFFFFFFFFFFFFFFF80000000000000 DUP3 SLT OR ISZERO PUSH2 0x56CA JUMPI PUSH2 0x56C9 PUSH2 0x4D90 JUMP JUMPDEST JUMPDEST SWAP3 SWAP2 POP POP JUMP JUMPDEST PUSH0 PUSH1 0x60 DUP3 ADD SWAP1 POP PUSH2 0x56E3 PUSH0 DUP4 ADD DUP7 PUSH2 0x420F JUMP JUMPDEST PUSH2 0x56F0 PUSH1 0x20 DUP4 ADD DUP6 PUSH2 0x420F JUMP JUMPDEST PUSH2 0x56FD PUSH1 0x40 DUP4 ADD DUP5 PUSH2 0x420F JUMP JUMPDEST SWAP5 SWAP4 POP POP POP POP JUMP JUMPDEST PUSH0 PUSH6 0xFFFFFFFFFFFF DUP3 AND SWAP1 POP SWAP2 SWAP1 POP JUMP JUMPDEST PUSH2 0x571F DUP2 PUSH2 0x5705 JUMP JUMPDEST DUP2 EQ PUSH2 0x5729 JUMPI PUSH0 PUSH0 REVERT JUMPDEST POP JUMP JUMPDEST PUSH0 DUP2 MLOAD SWAP1 POP PUSH2 0x573A DUP2 PUSH2 0x5716 JUMP JUMPDEST SWAP3 SWAP2 POP POP JUMP JUMPDEST PUSH0 PUSH0 PUSH0 PUSH1 0x60 DUP5 DUP7 SUB SLT ISZERO PUSH2 0x5757 JUMPI PUSH2 0x5756 PUSH2 0x3E55 JUMP JUMPDEST JUMPDEST PUSH0 PUSH2 0x5764 DUP7 DUP3 DUP8 ADD PUSH2 0x506F JUMP JUMPDEST SWAP4 POP POP PUSH1 0x20 PUSH2 0x5775 DUP7 DUP3 DUP8 ADD PUSH2 0x572C JUMP JUMPDEST SWAP3 POP POP PUSH1 0x40 PUSH2 0x5786 DUP7 DUP3 DUP8 ADD PUSH2 0x572C JUMP JUMPDEST SWAP2 POP POP SWAP3 POP SWAP3 POP SWAP3 JUMP JUMPDEST PUSH2 0x5799 DUP2 PUSH2 0x3E5D JUMP JUMPDEST DUP3 MSTORE POP POP JUMP JUMPDEST PUSH2 0x57A8 DUP2 PUSH2 0x5705 JUMP JUMPDEST DUP3 MSTORE POP POP JUMP JUMPDEST PUSH0 PUSH1 0x80 DUP3 ADD SWAP1 POP PUSH2 0x57C1 PUSH0 DUP4 ADD DUP8 PUSH2 0x420F JUMP JUMPDEST PUSH2 0x57CE PUSH1 0x20 DUP4 ADD DUP7 PUSH2 0x420F JUMP JUMPDEST PUSH2 0x57DB PUSH1 0x40 DUP4 ADD DUP6 PUSH2 0x5790 JUMP JUMPDEST PUSH2 0x57E8 PUSH1 0x60 DUP4 ADD DUP5 PUSH2 0x579F JUMP JUMPDEST SWAP6 SWAP5 POP POP POP POP POP JUMP JUMPDEST PUSH32 0x4250000000000000000000000000000000000000000000000000000000000000 PUSH0 DUP3 ADD MSTORE POP JUMP JUMPDEST PUSH0 PUSH2 0x5825 PUSH1 0x2 DUP4 PUSH2 0x4507 JUMP JUMPDEST SWAP2 POP PUSH2 0x5830 DUP3 PUSH2 0x57F1 JUMP JUMPDEST PUSH1 0x20 DUP3 ADD SWAP1 POP SWAP2 SWAP1 POP JUMP JUMPDEST PUSH0 PUSH1 0x20 DUP3 ADD SWAP1 POP DUP2 DUP2 SUB PUSH0 DUP4 ADD MSTORE PUSH2 0x5852 DUP2 PUSH2 0x5819 JUMP JUMPDEST SWAP1 POP SWAP2 SWAP1 POP JUMP JUMPDEST PUSH0 PUSH2 0x5863 DUP3 PUSH2 0x4F63 JUMP JUMPDEST SWAP2 POP PUSH2 0x586E DUP4 PUSH2 0x4F63 JUMP JUMPDEST SWAP3 POP DUP3 PUSH2 0x587E JUMPI PUSH2 0x587D PUSH2 0x4744 JUMP JUMPDEST JUMPDEST PUSH1 0x1 PUSH0 SUB DUP4 EQ PUSH32 0xFFFFFFFFFFFFFFFFFFFFFFFFFFFFFFFFFFFFFFFFFFFFFFFFFF80000000000000 DUP4 EQ AND ISZERO PUSH2 0x58B6 JUMPI PUSH2 0x58B5 PUSH2 0x4D90 JUMP JUMPDEST JUMPDEST DUP3 DUP3 SDIV SWAP1 POP SWAP3 SWAP2 POP POP JUMP JUMPDEST PUSH0 PUSH2 0x58CB DUP3 PUSH2 0x4F63 JUMP JUMPDEST SWAP2 POP PUSH2 0x58D6 DUP4 PUSH2 0x4F63 JUMP JUMPDEST SWAP3 POP DUP3 PUSH2 0x58E6 JUMPI PUSH2 0x58E5 PUSH2 0x4744 JUMP JUMPDEST JUMPDEST DUP3 DUP3 SMOD SWAP1 POP SWAP3 SWAP2 POP POP JUMP JUMPDEST PUSH0 DUP2 SWAP1 POP SWAP2 SWAP1 POP JUMP JUMPDEST PUSH0 PUSH2 0x5904 DUP3 PUSH2 0x58F1 JUMP JUMPDEST SWAP2 POP PUSH32 0x8000000000000000000000000000000000000000000000000000000000000000 DUP3 SUB PUSH2 0x5936 JUMPI PUSH2 0x5935 PUSH2 0x4D90 JUMP JUMPDEST JUMPDEST DUP2 PUSH0 SUB SWAP1 POP SWAP2 SWAP1 POP JUMP JUMPDEST PUSH0 PUSH2 0x594A DUP3 PUSH2 0x518E JUMP JUMPDEST SWAP2 POP PUSH32 0xFFFFFFFFFFFFFFFFFFFFFFFFFFFFFFFFFFFFFFFFFFFFFFFFFFFFFFFFFF800000 DUP3 SUB PUSH2 0x597C JUMPI PUSH2 0x597B PUSH2 0x4D90 JUMP JUMPDEST JUMPDEST DUP2 PUSH0 SUB SWAP1 POP SWAP2 SWAP1 POP JUMP JUMPDEST PUSH32 0x5400000000000000000000000000000000000000000000000000000000000000 PUSH0 DUP3 ADD MSTORE POP JUMP JUMPDEST PUSH0 PUSH2 0x59BA PUSH1 0x1 DUP4 PUSH2 0x4507 JUMP JUMPDEST SWAP2 POP PUSH2 0x59C5 DUP3 PUSH2 0x5986 JUMP JUMPDEST PUSH1 0x20 DUP3 ADD SWAP1 POP SWAP2 SWAP1 POP JUMP JUMPDEST PUSH0 PUSH1 0x20 DUP3 ADD SWAP1 POP DUP2 DUP2 SUB PUSH0 DUP4 ADD MSTORE PUSH2 0x59E7 DUP2 PUSH2 0x59AE JUMP JUMPDEST SWAP1 POP SWAP2 SWAP1 POP JUMP JUMPDEST PUSH0 PUSH2 0x59F8 DUP3 PUSH2 0x45EF JUMP JUMPDEST SWAP2 POP PUSH2 0x5A03 DUP4 PUSH2 0x45EF JUMP JUMPDEST SWAP3 POP DUP3 PUSH2 0x5A13 JUMPI PUSH2 0x5A12 PUSH2 0x4744 JUMP JUMPDEST JUMPDEST DUP3 DUP3 MOD SWAP1 POP SWAP3 SWAP2 POP POP JUMP JUMPDEST PUSH0 PUSH2 0x5A28 DUP3 PUSH2 0x45EF JUMP JUMPDEST SWAP2 POP PUSH2 0x5A33 DUP4 PUSH2 0x45EF JUMP JUMPDEST SWAP3 POP DUP3 DUP3 ADD SWAP1 POP DUP1 DUP3 GT ISZERO PUSH2 0x5A4B JUMPI PUSH2 0x5A4A PUSH2 0x4D90 JUMP JUMPDEST JUMPDEST SWAP3 SWAP2 POP POP JUMP JUMPDEST PUSH32 0x415050524F56455F4641494C4544000000000000000000000000000000000000 PUSH0 DUP3 ADD MSTORE POP JUMP JUMPDEST PUSH0 PUSH2 0x5A85 PUSH1 0xE DUP4 PUSH2 0x4507 JUMP JUMPDEST SWAP2 POP PUSH2 0x5A90 DUP3 PUSH2 0x5A51 JUMP JUMPDEST PUSH1 0x20 DUP3 ADD SWAP1 POP SWAP2 SWAP1 POP JUMP JUMPDEST PUSH0 PUSH1 0x20 DUP3 ADD SWAP1 POP DUP2 DUP2 SUB PUSH0 DUP4 ADD MSTORE PUSH2 0x5AB2 DUP2 PUSH2 0x5A79 JUMP JUMPDEST SWAP1 POP SWAP2 SWAP1 POP JUMP INVALID LOG2 PUSH5 0x6970667358 0x22 SLT KECCAK256 0xA5 0xA9 0xA8 0xD DELEGATECALL SIGNEXTEND KECCAK256 DUP10 EXTCALL 0xDD 0xD4 PUSH0 0xBB PUSH18 0xA93149A51325D36056CFA4425C93A1D3176 PUSH5 0x736F6C6343 STOP ADDMOD 0x1E STOP CALLER "
		},
		"gasEstimates": {
			"creation": {
				"codeDepositCost": "4655800",
				"executionCost": "infinite",
				"totalCost": "infinite"
			},
			"external": {
				"Directory()": "infinite",
				"MAX_SLIPPAGE_BIPS()": "2490",
				"changeDirectoryAddress(address)": "infinite",
				"changeMaxSlippage(uint32)": "infinite",
				"fetchFromDirectory(string)": "infinite",
				"owner()": "infinite",
				"permit2()": "infinite",
				"recoverAsset(address,address)": "infinite",
				"swapEthToMultipleTokens((address,uint16)[],address,uint32)": "infinite",
				"swapMultipleTokensToEth((address,uint256)[],address,uint32,bool)": "infinite",
				"uRouter()": "infinite",
				"v2Factory()": "infinite",
				"v2Router()": "infinite",
				"v3Factory()": "infinite",
				"wethAddress()": "infinite"
			}
		},
		"methodIdentifiers": {
			"Directory()": "658a847a",
			"MAX_SLIPPAGE_BIPS()": "0362fe3a",
			"changeDirectoryAddress(address)": "ba4c7be1",
			"changeMaxSlippage(uint32)": "1052874d",
			"fetchFromDirectory(string)": "27262618",
			"owner()": "8da5cb5b",
			"permit2()": "12261ee7",
			"recoverAsset(address,address)": "09053ac4",
			"swapEthToMultipleTokens((address,uint16)[],address,uint32)": "1623306b",
			"swapMultipleTokensToEth((address,uint256)[],address,uint32,bool)": "3814bc6e",
			"uRouter()": "5cf39049",
			"v2Factory()": "b4b57c39",
			"v2Router()": "deadbc14",
			"v3Factory()": "7c887c59",
			"wethAddress()": "4f0e0ef3"
		}
	},
	"abi": [
		{
			"inputs": [
				{
					"internalType": "address",
					"name": "_directory",
					"type": "address"
				},
				{
					"internalType": "address",
					"name": "_v2Router",
					"type": "address"
				},
				{
					"internalType": "address",
					"name": "_v3Factory",
					"type": "address"
				},
				{
					"internalType": "address",
					"name": "_universalRouter",
					"type": "address"
				},
				{
					"internalType": "address",
					"name": "_permit2",
					"type": "address"
				}
			],
			"stateMutability": "nonpayable",
			"type": "constructor"
		},
		{
			"inputs": [],
			"name": "AllowanceTooLow",
			"type": "error"
		},
		{
			"inputs": [],
			"name": "BadToken",
			"type": "error"
		},
		{
			"inputs": [],
			"name": "ETHSendFailed",
			"type": "error"
		},
		{
			"inputs": [],
			"name": "ETHSendFailure",
			"type": "error"
		},
		{
			"inputs": [],
			"name": "InsufficientETH",
			"type": "error"
		},
		{
			"inputs": [],
			"name": "InvalidInput",
			"type": "error"
		},
		{
			"inputs": [],
			"name": "InvalidSlippage",
			"type": "error"
		},
		{
			"inputs": [],
			"name": "NoPoolFound",
			"type": "error"
		},
		{
			"inputs": [],
			"name": "NoSwaps",
			"type": "error"
		},
		{
			"inputs": [],
			"name": "NothingReceived",
			"type": "error"
		},
		{
			"inputs": [],
			"name": "PreTransferInsufficient",
			"type": "error"
		},
		{
			"inputs": [],
			"name": "QuoteUnavailable",
			"type": "error"
		},
		{
			"inputs": [],
			"name": "WeightsInvalid",
			"type": "error"
		},
		{
			"inputs": [],
			"name": "ZeroAddress",
			"type": "error"
		},
		{
			"inputs": [],
			"name": "ZeroAmount",
			"type": "error"
		},
		{
			"inputs": [],
			"name": "Directory",
			"outputs": [
				{
					"internalType": "contract IDirectory",
					"name": "",
					"type": "address"
				}
			],
			"stateMutability": "view",
			"type": "function"
		},
		{
			"inputs": [],
			"name": "MAX_SLIPPAGE_BIPS",
			"outputs": [
				{
					"internalType": "uint32",
					"name": "",
					"type": "uint32"
				}
			],
			"stateMutability": "view",
			"type": "function"
		},
		{
			"inputs": [
				{
					"internalType": "address",
					"name": "_directory",
					"type": "address"
				}
			],
			"name": "changeDirectoryAddress",
			"outputs": [],
			"stateMutability": "nonpayable",
			"type": "function"
		},
		{
			"inputs": [
				{
					"internalType": "uint32",
					"name": "newMaxSlippageBips",
					"type": "uint32"
				}
			],
			"name": "changeMaxSlippage",
			"outputs": [],
			"stateMutability": "nonpayable",
			"type": "function"
		},
		{
			"inputs": [
				{
					"internalType": "string",
					"name": "_key",
					"type": "string"
				}
			],
			"name": "fetchFromDirectory",
			"outputs": [
				{
					"internalType": "address",
					"name": "",
					"type": "address"
				}
			],
			"stateMutability": "view",
			"type": "function"
		},
		{
			"inputs": [],
			"name": "owner",
			"outputs": [
				{
					"internalType": "address",
					"name": "",
					"type": "address"
				}
			],
			"stateMutability": "view",
			"type": "function"
		},
		{
			"inputs": [],
			"name": "permit2",
			"outputs": [
				{
					"internalType": "contract IPermit2",
					"name": "",
					"type": "address"
				}
			],
			"stateMutability": "view",
			"type": "function"
		},
		{
			"inputs": [
				{
					"internalType": "address",
					"name": "tokenAddress",
					"type": "address"
				},
				{
					"internalType": "address",
					"name": "toAddress",
					"type": "address"
				}
			],
			"name": "recoverAsset",
			"outputs": [],
			"stateMutability": "nonpayable",
			"type": "function"
		},
		{
			"inputs": [
				{
					"components": [
						{
							"internalType": "address",
							"name": "tokenAddress",
							"type": "address"
						},
						{
							"internalType": "uint16",
							"name": "weightBips",
							"type": "uint16"
						}
					],
					"internalType": "struct MultiTokenOutput[]",
					"name": "outputs",
					"type": "tuple[]"
				},
				{
					"internalType": "address",
					"name": "recipientAddress",
					"type": "address"
				},
				{
					"internalType": "uint32",
					"name": "slippageBps",
					"type": "uint32"
				}
			],
			"name": "swapEthToMultipleTokens",
			"outputs": [],
			"stateMutability": "payable",
			"type": "function"
		},
		{
			"inputs": [
				{
					"components": [
						{
							"internalType": "address",
							"name": "tokenAddress",
							"type": "address"
						},
						{
							"internalType": "uint256",
							"name": "amount",
							"type": "uint256"
						}
					],
					"internalType": "struct MultiTokenInput[]",
					"name": "inputsIn",
					"type": "tuple[]"
				},
				{
					"internalType": "address payable",
					"name": "recipientAddress",
					"type": "address"
				},
				{
					"internalType": "uint32",
					"name": "slippageBps",
					"type": "uint32"
				},
				{
					"internalType": "bool",
					"name": "preTransferred",
					"type": "bool"
				}
			],
			"name": "swapMultipleTokensToEth",
			"outputs": [],
			"stateMutability": "nonpayable",
			"type": "function"
		},
		{
			"inputs": [],
			"name": "uRouter",
			"outputs": [
				{
					"internalType": "contract IUniversalRouter",
					"name": "",
					"type": "address"
				}
			],
			"stateMutability": "view",
			"type": "function"
		},
		{
			"inputs": [],
			"name": "v2Factory",
			"outputs": [
				{
					"internalType": "contract IUniswapV2Factory",
					"name": "",
					"type": "address"
				}
			],
			"stateMutability": "view",
			"type": "function"
		},
		{
			"inputs": [],
			"name": "v2Router",
			"outputs": [
				{
					"internalType": "contract IUniswapV2Router02",
					"name": "",
					"type": "address"
				}
			],
			"stateMutability": "view",
			"type": "function"
		},
		{
			"inputs": [],
			"name": "v3Factory",
			"outputs": [
				{
					"internalType": "contract IUniswapV3Factory",
					"name": "",
					"type": "address"
				}
			],
			"stateMutability": "view",
			"type": "function"
		},
		{
			"inputs": [],
			"name": "wethAddress",
			"outputs": [
				{
					"internalType": "address",
					"name": "",
					"type": "address"
				}
			],
			"stateMutability": "view",
			"type": "function"
		},
		{
			"stateMutability": "payable",
			"type": "receive"
		}
	]
}