{
	"data": {
		"bytecode": {
			"linkReferences": {},
			"object": "60a060405234801561000f575f5ffd5b50604051613c70380380613c70833981810160405281019061003191906100d2565b808073ffffffffffffffffffffffffffffffffffffffff1660808173ffffffffffffffffffffffffffffffffffffffff16815250505060015f81905550506100fd565b5f5ffd5b5f73ffffffffffffffffffffffffffffffffffffffff82169050919050565b5f6100a182610078565b9050919050565b6100b181610097565b81146100bb575f5ffd5b50565b5f815190506100cc816100a8565b92915050565b5f602082840312156100e7576100e6610074565b5b5f6100f4848285016100be565b91505092915050565b608051613b406101305f395f818160f5015281816103c80152818161100e015281816110d30152611caf0152613b405ff3fe60806040526004361061002c575f3560e01c8063192b5887146100ac578063f887ea40146100c8576100a8565b366100a8576100396100f2565b73ffffffffffffffffffffffffffffffffffffffff163373ffffffffffffffffffffffffffffffffffffffff16146100a6576040517f08c379a000000000000000000000000000000000000000000000000000000000815260040161009d90612033565b60405180910390fd5b005b5f5ffd5b6100c660048036038101906100c191906121fa565b610185565b005b3480156100d3575f5ffd5b506100dc6103c6565b6040516100e9919061233e565b60405180910390f35b5f7f000000000000000000000000000000000000000000000000000000000000000073ffffffffffffffffffffffffffffffffffffffff1663ad5c46486040518163ffffffff1660e01b8152600401602060405180830381865afa15801561015c573d5f5f3e3d5ffd5b505050506040513d601f19601f82011682018060405250810190610180919061236b565b905090565b61018d6103ea565b5f89899050116101d2576040517f08c379a00000000000000000000000000000000000000000000000000000000081526004016101c9906123e0565b60405180910390fd5b5f8787905011610217576040517f08c379a000000000000000000000000000000000000000000000000000000000815260040161020e90612448565b60405180910390fd5b5f73ffffffffffffffffffffffffffffffffffffffff168573ffffffffffffffffffffffffffffffffffffffff1603610285576040517f08c379a000000000000000000000000000000000000000000000000000000000815260040161027c906124d6565b60405180910390fd5b6127108411156102ca576040517f08c379a00000000000000000000000000000000000000000000000000000000081526004016102c19061253e565b60405180910390fd5b4283101561030d576040517f08c379a0000000000000000000000000000000000000000000000000000000008152600401610304906125cc565b60405180910390fd5b6103178989610437565b6103218787610520565b5f61032e8a8a8787610638565b90505f61033c848484610787565b905061034c818a8a8a8a8a610a72565b61035533610bfd565b3373ffffffffffffffffffffffffffffffffffffffff167f40844c000d7e2daab466e5a3c1ee770c3e2ccb92a53ddd9df72c01e07e99afaf8c8c8c8c8b8b8b8b6040516103a9989796959493929190612939565b60405180910390a250506103bb610caf565b505050505050505050565b7f000000000000000000000000000000000000000000000000000000000000000081565b60025f540361042e576040517f08c379a0000000000000000000000000000000000000000000000000000000008152600401610425906129ef565b60405180910390fd5b60025f81905550565b5f5f5b838390508110156104d7575f73ffffffffffffffffffffffffffffffffffffffff1684848381811061046f5761046e612a0d565b5b9050604002015f0160208101906104869190612a3a565b73ffffffffffffffffffffffffffffffffffffffff16036104cc578383828181106104b4576104b3612a0d565b5b90506040020160200135826104c99190612a92565b91505b80600101905061043a565b508034101561051b576040517f08c379a000000000000000000000000000000000000000000000000000000000815260040161051290612b0f565b60405180910390fd5b505050565b5f5f90505f5f90505b838390508110156105ed575f84848381811061054857610547612a0d565b5b90506040020160200160208101906105609190612b2d565b61ffff16116105a4576040517f08c379a000000000000000000000000000000000000000000000000000000000815260040161059b90612bc8565b60405180910390fd5b8383828181106105b7576105b6612a0d565b5b90506040020160200160208101906105cf9190612b2d565b61ffff16826105de9190612a92565b91508080600101915050610529565b50612710811115610633576040517f08c379a000000000000000000000000000000000000000000000000000000000815260040161062a90612c56565b60405180910390fd5b505050565b5f5f5f90505f5f90505b8686905081101561077a575f73ffffffffffffffffffffffffffffffffffffffff1687878381811061067757610676612a0d565b5b9050604002015f01602081019061068e9190612a3a565b73ffffffffffffffffffffffffffffffffffffffff16036106ff576106d030308989858181106106c1576106c0612a0d565b5b90506040020160200135610cb8565b8686828181106106e3576106e2612a0d565b5b90506040020160200135826106f89190612a92565b915061076d565b5f61075b88888481811061071657610715612a0d565b5b9050604002015f01602081019061072d9190612a3a565b6107356100f2565b8a8a8681811061074857610747612a0d565b5b9050604002016020013533308b8b610e5d565b905080836107699190612a92565b9250505b8080600101915050610642565b5080915050949350505050565b5f5f848490500361079a57819050610a6b565b5f5f90505f5f90505b858590508110156108fe575f73ffffffffffffffffffffffffffffffffffffffff168686838181106107d8576107d7612a0d565b5b9050604002015f0160208101906107ef9190612a3a565b73ffffffffffffffffffffffffffffffffffffffff1603610845576040517f08c379a000000000000000000000000000000000000000000000000000000000815260040161083c90612cbe565b60405180910390fd5b5f86868381811061085957610858612a0d565b5b90506040020160200160208101906108719190612b2d565b61ffff16116108b5576040517f08c379a00000000000000000000000000000000000000000000000000000000081526004016108ac90612d26565b60405180910390fd5b8585828181106108c8576108c7612a0d565b5b90506040020160200160208101906108e09190612b2d565b61ffff16826108ef9190612a92565b915080806001019150506107a3565b50612710811115610944576040517f08c379a000000000000000000000000000000000000000000000000000000000815260040161093b90612d8e565b60405180910390fd5b5f8390505f5f90505b86869050811015610a64575f61098d868989858181106109705761096f612a0d565b5b90506040020160200160208101906109889190612b2d565b611206565b90505f810361099c5750610a57565b6109d0308989858181106109b3576109b2612a0d565b5b9050604002015f0160208101906109ca9190612a3a565b8361122c565b80836109dc9190612dac565b92508787838181106109f1576109f0612a0d565b5b9050604002015f016020810190610a089190612a3a565b73ffffffffffffffffffffffffffffffffffffffff167f075a2720282fdf622141dae0b048ef90a21a7e57c134c76912d19d006b3b3f6f82604051610a4d9190612ddf565b60405180910390a2505b808060010191505061094d565b5080925050505b9392505050565b5f610a7b6100f2565b90505f5f90505b86869050811015610bf3575f610ac289898985818110610aa557610aa4612a0d565b5b9050604002016020016020810190610abd9190612b2d565b611206565b90505f8103610ad15750610be6565b5f73ffffffffffffffffffffffffffffffffffffffff16888884818110610afb57610afa612a0d565b5b9050604002015f016020810190610b129190612a3a565b73ffffffffffffffffffffffffffffffffffffffff1603610b3d57610b3830878361122c565b610be4565b8273ffffffffffffffffffffffffffffffffffffffff16888884818110610b6757610b66612a0d565b5b9050604002015f016020810190610b7e9190612a3a565b73ffffffffffffffffffffffffffffffffffffffff1603610ba957610ba4838783611428565b610be3565b610be183898985818110610bc057610bbf612a0d565b5b9050604002015f016020810190610bd79190612a3a565b83308a8a8a610e5d565b505b5b505b8080600101915050610a82565b5050505050505050565b5f610c066100f2565b73ffffffffffffffffffffffffffffffffffffffff166370a08231306040518263ffffffff1660e01b8152600401610c3e9190612e07565b602060405180830381865afa158015610c59573d5f5f3e3d5ffd5b505050506040513d601f19601f82011682018060405250810190610c7d9190612e34565b90505f4790505f821115610c9757610c9630848461122c565b5b5f811115610caa57610ca9838261149f565b5b505050565b60015f81905550565b5f610cc16100f2565b90505f8211610d05576040517f08c379a0000000000000000000000000000000000000000000000000000000008152600401610cfc90612ea9565b60405180910390fd5b3073ffffffffffffffffffffffffffffffffffffffff168473ffffffffffffffffffffffffffffffffffffffff1614610d73576040517f08c379a0000000000000000000000000000000000000000000000000000000008152600401610d6a90612f37565b60405180910390fd5b81471015610db6576040517f08c379a0000000000000000000000000000000000000000000000000000000008152600401610dad90612f9f565b60405180910390fd5b5f8190508073ffffffffffffffffffffffffffffffffffffffff1663d0e30db0846040518263ffffffff1660e01b81526004015f604051808303818588803b158015610e00575f5ffd5b505af1158015610e12573d5f5f3e3d5ffd5b50505050503073ffffffffffffffffffffffffffffffffffffffff168473ffffffffffffffffffffffffffffffffffffffff1614610e5657610e55828585611428565b5b5050505050565b5f5f73ffffffffffffffffffffffffffffffffffffffff168873ffffffffffffffffffffffffffffffffffffffff1603610ecc576040517f08c379a0000000000000000000000000000000000000000000000000000000008152600401610ec39061302d565b60405180910390fd5b5f73ffffffffffffffffffffffffffffffffffffffff168773ffffffffffffffffffffffffffffffffffffffff1603610f3a576040517f08c379a0000000000000000000000000000000000000000000000000000000008152600401610f31906130bb565b60405180910390fd5b5f8611610f7c576040517f08c379a0000000000000000000000000000000000000000000000000000000008152600401610f7390613149565b60405180910390fd5b5f8690503073ffffffffffffffffffffffffffffffffffffffff168673ffffffffffffffffffffffffffffffffffffffff1614610fc157610fbe8988886115d1565b90505b8773ffffffffffffffffffffffffffffffffffffffff168973ffffffffffffffffffffffffffffffffffffffff160361100857610fff898683611428565b809150506111fb565b611033897f000000000000000000000000000000000000000000000000000000000000000083611856565b5f61103e8a8a611a07565b90505f61105461104e8484611cac565b87611db5565b90505f8a73ffffffffffffffffffffffffffffffffffffffff166370a08231896040518263ffffffff1660e01b81526004016110909190612e07565b602060405180830381865afa1580156110ab573d5f5f3e3d5ffd5b505050506040513d601f19601f820116820180604052508101906110cf9190612e34565b90507f000000000000000000000000000000000000000000000000000000000000000073ffffffffffffffffffffffffffffffffffffffff16635c11d7958584868c61111a8c611e29565b6040518663ffffffff1660e01b815260040161113a95949392919061320f565b5f604051808303815f87803b158015611151575f5ffd5b505af1158015611163573d5f5f3e3d5ffd5b505050505f8b73ffffffffffffffffffffffffffffffffffffffff166370a082318a6040518263ffffffff1660e01b81526004016111a19190612e07565b602060405180830381865afa1580156111bc573d5f5f3e3d5ffd5b505050506040513d601f19601f820116820180604052508101906111e09190612e34565b90505f82826111ef9190612dac565b90508096505050505050505b979650505050505050565b5f6127108261ffff168461121a9190613267565b61122491906132d5565b905092915050565b5f6112356100f2565b90505f8190505f831161127d576040517f08c379a00000000000000000000000000000000000000000000000000000000081526004016112749061334f565b60405180910390fd5b828173ffffffffffffffffffffffffffffffffffffffff166370a08231876040518263ffffffff1660e01b81526004016112b79190612e07565b602060405180830381865afa1580156112d2573d5f5f3e3d5ffd5b505050506040513d601f19601f820116820180604052508101906112f69190612e34565b1015611337576040517f08c379a000000000000000000000000000000000000000000000000000000000815260040161132e906133b7565b60405180910390fd5b5f8390503073ffffffffffffffffffffffffffffffffffffffff168673ffffffffffffffffffffffffffffffffffffffff161461137c576113798385886115d1565b90505b8173ffffffffffffffffffffffffffffffffffffffff16632e1a7d4d826040518263ffffffff1660e01b81526004016113b59190612ddf565b5f604051808303815f87803b1580156113cc575f5ffd5b505af11580156113de573d5f5f3e3d5ffd5b505050503073ffffffffffffffffffffffffffffffffffffffff168573ffffffffffffffffffffffffffffffffffffffff16146114205761141f858261149f565b5b505050505050565b5f8390505f821161146e576040517f08c379a00000000000000000000000000000000000000000000000000000000081526004016114659061341f565b60405180910390fd5b61149983838373ffffffffffffffffffffffffffffffffffffffff16611e3d9092919063ffffffff16565b50505050565b5f81116114e1576040517f08c379a00000000000000000000000000000000000000000000000000000000081526004016114d890613487565b60405180910390fd5b80471015611524576040517f08c379a000000000000000000000000000000000000000000000000000000000815260040161151b906134ef565b60405180910390fd5b5f8273ffffffffffffffffffffffffffffffffffffffff16826040516115499061353a565b5f6040518083038185875af1925050503d805f8114611583576040519150601f19603f3d011682016040523d82523d5f602084013e611588565b606091505b50509050806115cc576040517f08c379a00000000000000000000000000000000000000000000000000000000081526004016115c390613598565b60405180910390fd5b505050565b5f5f8490505f8411611618576040517f08c379a000000000000000000000000000000000000000000000000000000000815260040161160f90613600565b60405180910390fd5b838173ffffffffffffffffffffffffffffffffffffffff1663dd62ed3e85306040518363ffffffff1660e01b815260040161165492919061361e565b602060405180830381865afa15801561166f573d5f5f3e3d5ffd5b505050506040513d601f19601f820116820180604052508101906116939190612e34565b10156116d4576040517f08c379a00000000000000000000000000000000000000000000000000000000081526004016116cb906136b5565b60405180910390fd5b5f8173ffffffffffffffffffffffffffffffffffffffff166370a08231306040518263ffffffff1660e01b815260040161170e9190612e07565b602060405180830381865afa158015611729573d5f5f3e3d5ffd5b505050506040513d601f19601f8201168201806040525081019061174d9190612e34565b905061177c8430878573ffffffffffffffffffffffffffffffffffffffff16611ebc909392919063ffffffff16565b5f8273ffffffffffffffffffffffffffffffffffffffff166370a08231306040518263ffffffff1660e01b81526004016117b69190612e07565b602060405180830381865afa1580156117d1573d5f5f3e3d5ffd5b505050506040513d601f19601f820116820180604052508101906117f59190612e34565b90505f82826118049190612dac565b90505f8111611848576040517f08c379a000000000000000000000000000000000000000000000000000000000815260040161183f9061371d565b60405180910390fd5b809450505050509392505050565b5f8390505f8173ffffffffffffffffffffffffffffffffffffffff1663dd62ed3e30866040518363ffffffff1660e01b815260040161189692919061361e565b602060405180830381865afa1580156118b1573d5f5f3e3d5ffd5b505050506040513d601f19601f820116820180604052508101906118d59190612e34565b905082811015611a00575f8114611963578173ffffffffffffffffffffffffffffffffffffffff1663095ea7b3855f6040518363ffffffff1660e01b8152600401611921929190613774565b6020604051808303815f875af115801561193d573d5f5f3e3d5ffd5b505050506040513d601f19601f8201168201806040525081019061196191906137d0565b505b8173ffffffffffffffffffffffffffffffffffffffff1663095ea7b3857fffffffffffffffffffffffffffffffffffffffffffffffffffffffffffffffff6040518363ffffffff1660e01b81526004016119be9291906137fb565b6020604051808303815f875af11580156119da573d5f5f3e3d5ffd5b505050506040513d601f19601f820116820180604052508101906119fe91906137d0565b505b5050505050565b60605f611a126100f2565b90508073ffffffffffffffffffffffffffffffffffffffff168473ffffffffffffffffffffffffffffffffffffffff161480611a7957508073ffffffffffffffffffffffffffffffffffffffff168373ffffffffffffffffffffffffffffffffffffffff16145b15611b6c57600267ffffffffffffffff811115611a9957611a98613822565b5b604051908082528060200260200182016040528015611ac75781602001602082028036833780820191505090505b50915083825f81518110611ade57611add612a0d565b5b602002602001019073ffffffffffffffffffffffffffffffffffffffff16908173ffffffffffffffffffffffffffffffffffffffff16815250508282600181518110611b2d57611b2c612a0d565b5b602002602001019073ffffffffffffffffffffffffffffffffffffffff16908173ffffffffffffffffffffffffffffffffffffffff1681525050611ca5565b600367ffffffffffffffff811115611b8757611b86613822565b5b604051908082528060200260200182016040528015611bb55781602001602082028036833780820191505090505b50915083825f81518110611bcc57611bcb612a0d565b5b602002602001019073ffffffffffffffffffffffffffffffffffffffff16908173ffffffffffffffffffffffffffffffffffffffff16815250508082600181518110611c1b57611c1a612a0d565b5b602002602001019073ffffffffffffffffffffffffffffffffffffffff16908173ffffffffffffffffffffffffffffffffffffffff16815250508282600281518110611c6a57611c69612a0d565b5b602002602001019073ffffffffffffffffffffffffffffffffffffffff16908173ffffffffffffffffffffffffffffffffffffffff16815250505b5092915050565b5f7f000000000000000000000000000000000000000000000000000000000000000073ffffffffffffffffffffffffffffffffffffffff1663d06ca61f84846040518363ffffffff1660e01b8152600401611d0892919061384f565b5f60405180830381865afa925050508015611d4557506040513d5f823e3d601f19601f82011682018060405250810190611d429190613998565b60015b611d84576040517f08c379a0000000000000000000000000000000000000000000000000000000008152600401611d7b90613a4f565b60405180910390fd5b8060018251611d939190612dac565b81518110611da457611da3612a0d565b5b602002602001015191505092915050565b5f612710821115611dfb576040517f08c379a0000000000000000000000000000000000000000000000000000000008152600401611df290613ab7565b60405180910390fd5b61271082612710611e0c9190612dac565b84611e179190613267565b611e2191906132d5565b905092915050565b5f8142611e369190612a92565b9050919050565b611eb7838473ffffffffffffffffffffffffffffffffffffffff1663a9059cbb8585604051602401611e709291906137fb565b604051602081830303815290604052915060e01b6020820180517bffffffffffffffffffffffffffffffffffffffffffffffffffffffff8381831617835250505050611f3e565b505050565b611f38848573ffffffffffffffffffffffffffffffffffffffff166323b872dd868686604051602401611ef193929190613ad5565b604051602081830303815290604052915060e01b6020820180517bffffffffffffffffffffffffffffffffffffffffffffffffffffffff8381831617835250505050611f3e565b50505050565b5f5f60205f8451602086015f885af180611f5d576040513d5f823e3d81fd5b3d92505f519150505f8214611f76576001811415611f91565b5f8473ffffffffffffffffffffffffffffffffffffffff163b145b15611fd357836040517f5274afe7000000000000000000000000000000000000000000000000000000008152600401611fca9190612e07565b60405180910390fd5b50505050565b5f82825260208201905092915050565b7f44697265637420455448206e6f7420616c6c6f776564000000000000000000005f82015250565b5f61201d601683611fd9565b915061202882611fe9565b602082019050919050565b5f6020820190508181035f83015261204a81612011565b9050919050565b5f604051905090565b5f5ffd5b5f5ffd5b5f5ffd5b5f5ffd5b5f5ffd5b5f5f83601f84011261208357612082612062565b5b8235905067ffffffffffffffff8111156120a05761209f612066565b5b6020830191508360408202830111156120bc576120bb61206a565b5b9250929050565b5f5f83601f8401126120d8576120d7612062565b5b8235905067ffffffffffffffff8111156120f5576120f4612066565b5b6020830191508360408202830111156121115761211061206a565b5b9250929050565b5f73ffffffffffffffffffffffffffffffffffffffff82169050919050565b5f61214182612118565b9050919050565b61215181612137565b811461215b575f5ffd5b50565b5f8135905061216c81612148565b92915050565b5f819050919050565b61218481612172565b811461218e575f5ffd5b50565b5f8135905061219f8161217b565b92915050565b5f5f83601f8401126121ba576121b9612062565b5b8235905067ffffffffffffffff8111156121d7576121d6612066565b5b6020830191508360408202830111156121f3576121f261206a565b5b9250929050565b5f5f5f5f5f5f5f5f5f60c08a8c0312156122175761221661205a565b5b5f8a013567ffffffffffffffff8111156122345761223361205e565b5b6122408c828d0161206e565b995099505060208a013567ffffffffffffffff8111156122635761226261205e565b5b61226f8c828d016120c3565b975097505060406122828c828d0161215e565b95505060606122938c828d01612191565b94505060806122a48c828d01612191565b93505060a08a013567ffffffffffffffff8111156122c5576122c461205e565b5b6122d18c828d016121a5565b92509250509295985092959850929598565b5f819050919050565b5f6123066123016122fc84612118565b6122e3565b612118565b9050919050565b5f612317826122ec565b9050919050565b5f6123288261230d565b9050919050565b6123388161231e565b82525050565b5f6020820190506123515f83018461232f565b92915050565b5f8151905061236581612148565b92915050565b5f602082840312156123805761237f61205a565b5b5f61238d84828501612357565b91505092915050565b7f4d756c74695377617020526f757465723a204e6f20696e7075747300000000005f82015250565b5f6123ca601b83611fd9565b91506123d582612396565b602082019050919050565b5f6020820190508181035f8301526123f7816123be565b9050919050565b7f4d756c74695377617020526f757465723a204e6f206f757470757473000000005f82015250565b5f612432601c83611fd9565b915061243d826123fe565b602082019050919050565b5f6020820190508181035f83015261245f81612426565b9050919050565b7f4d756c74695377617020526f757465723a2052656365697665722063616e6e6f5f8201527f74206265207a65726f2061646472657373000000000000000000000000000000602082015250565b5f6124c0603183611fd9565b91506124cb82612466565b604082019050919050565b5f6020820190508181035f8301526124ed816124b4565b9050919050565b7f4d756c74695377617020526f757465723a2062616420736c69707061676500005f82015250565b5f612528601e83611fd9565b9150612533826124f4565b602082019050919050565b5f6020820190508181035f8301526125558161251c565b9050919050565b7f4d756c74695377617020526f757465723a20646561646c696e652070617373655f8201527f6400000000000000000000000000000000000000000000000000000000000000602082015250565b5f6125b6602183611fd9565b91506125c18261255c565b604082019050919050565b5f6020820190508181035f8301526125e3816125aa565b9050919050565b5f82825260208201905092915050565b5f819050919050565b5f612611602084018461215e565b905092915050565b61262281612137565b82525050565b5f6126366020840184612191565b905092915050565b61264781612172565b82525050565b6040820161265d5f830183612603565b6126695f850182612619565b506126776020830183612628565b612684602085018261263e565b50505050565b5f612695838361264d565b60408301905092915050565b5f82905092915050565b5f604082019050919050565b5f6126c283856125ea565b93506126cd826125fa565b805f5b85811015612705576126e282846126a1565b6126ec888261268a565b97506126f7836126ab565b9250506001810190506126d0565b5085925050509392505050565b5f82825260208201905092915050565b5f819050919050565b5f61ffff82169050919050565b6127418161272b565b811461274b575f5ffd5b50565b5f8135905061275c81612738565b92915050565b5f612770602084018461274e565b905092915050565b6127818161272b565b82525050565b604082016127975f830183612603565b6127a35f850182612619565b506127b16020830183612762565b6127be6020850182612778565b50505050565b5f6127cf8383612787565b60408301905092915050565b5f82905092915050565b5f604082019050919050565b5f6127fc8385612712565b935061280782612722565b805f5b8581101561283f5761281c82846127db565b61282688826127c4565b9750612831836127e5565b92505060018101905061280a565b5085925050509392505050565b61285581612172565b82525050565b5f82825260208201905092915050565b5f819050919050565b604082016128845f830183612603565b6128905f850182612619565b5061289e6020830183612762565b6128ab6020850182612778565b50505050565b5f6128bc8383612874565b60408301905092915050565b5f82905092915050565b5f604082019050919050565b5f6128e9838561285b565b93506128f48261286b565b805f5b8581101561292c5761290982846128c8565b61291388826128b1565b975061291e836128d2565b9250506001810190506128f7565b5085925050509392505050565b5f60a0820190508181035f830152612952818a8c6126b7565b9050818103602083015261296781888a6127f1565b9050612976604083018761284c565b612983606083018661284c565b81810360808301526129968184866128de565b90509998505050505050505050565b7f5265656e7472616e637947756172643a207265656e7472616e742063616c6c005f82015250565b5f6129d9601f83611fd9565b91506129e4826129a5565b602082019050919050565b5f6020820190508181035f830152612a06816129cd565b9050919050565b7f4e487b71000000000000000000000000000000000000000000000000000000005f52603260045260245ffd5b5f60208284031215612a4f57612a4e61205a565b5b5f612a5c8482850161215e565b91505092915050565b7f4e487b71000000000000000000000000000000000000000000000000000000005f52601160045260245ffd5b5f612a9c82612172565b9150612aa783612172565b9250828201905080821115612abf57612abe612a65565b5b92915050565b7f6d73672e76616c756520213d2045544820696e707574730000000000000000005f82015250565b5f612af9601783611fd9565b9150612b0482612ac5565b602082019050919050565b5f6020820190508181035f830152612b2681612aed565b9050919050565b5f60208284031215612b4257612b4161205a565b5b5f612b4f8482850161274e565b91505092915050565b7f4d756c74695377617020526f757465723a20576569676874206d7573742062655f8201527f2067726561746572207468616e20300000000000000000000000000000000000602082015250565b5f612bb2602f83611fd9565b9150612bbd82612b58565b604082019050919050565b5f6020820190508181035f830152612bdf81612ba6565b9050919050565b7f4d756c74695377617020526f757465723a20546f74616c20776569676874206d5f8201527f7573742062652031303025000000000000000000000000000000000000000000602082015250565b5f612c40602b83611fd9565b9150612c4b82612be6565b604082019050919050565b5f6020820190508181035f830152612c6d81612c34565b9050919050565b7f4665653a207a65726f20616464726573730000000000000000000000000000005f82015250565b5f612ca8601183611fd9565b9150612cb382612c74565b602082019050919050565b5f6020820190508181035f830152612cd581612c9c565b9050919050565b7f4665653a207a65726f20626970730000000000000000000000000000000000005f82015250565b5f612d10600e83611fd9565b9150612d1b82612cdc565b602082019050919050565b5f6020820190508181035f830152612d3d81612d04565b9050919050565b7f4665653a203e20313030250000000000000000000000000000000000000000005f82015250565b5f612d78600b83611fd9565b9150612d8382612d44565b602082019050919050565b5f6020820190508181035f830152612da581612d6c565b9050919050565b5f612db682612172565b9150612dc183612172565b9250828203905081811115612dd957612dd8612a65565b5b92915050565b5f602082019050612df25f83018461284c565b92915050565b612e0181612137565b82525050565b5f602082019050612e1a5f830184612df8565b92915050565b5f81519050612e2e8161217b565b92915050565b5f60208284031215612e4957612e4861205a565b5b5f612e5684828501612e20565b91505092915050565b7f777261703a207a65726f20616d6f756e740000000000000000000000000000005f82015250565b5f612e93601183611fd9565b9150612e9e82612e5f565b602082019050919050565b5f6020820190508181035f830152612ec081612e87565b9050919050565b7f777261703a206f6e6c79207468697320636f6e74726163742063616e207772615f8201527f7020455448000000000000000000000000000000000000000000000000000000602082015250565b5f612f21602583611fd9565b9150612f2c82612ec7565b604082019050919050565b5f6020820190508181035f830152612f4e81612f15565b9050919050565b7f574554483a20696e73756666696369656e7420455448000000000000000000005f82015250565b5f612f89601683611fd9565b9150612f9482612f55565b602082019050919050565b5f6020820190508181035f830152612fb681612f7d565b9050919050565b7f4d756c74695377617020526f757465723a20496e76616c69642066726f6d20745f8201527f6f6b656e20616464726573730000000000000000000000000000000000000000602082015250565b5f613017602c83611fd9565b915061302282612fbd565b604082019050919050565b5f6020820190508181035f8301526130448161300b565b9050919050565b7f4d756c74695377617020526f757465723a20496e76616c696420746f20746f6b5f8201527f656e206164647265737300000000000000000000000000000000000000000000602082015250565b5f6130a5602a83611fd9565b91506130b08261304b565b604082019050919050565b5f6020820190508181035f8301526130d281613099565b9050919050565b7f4d756c74695377617020526f757465723a20416d6f756e74206d7573742062655f8201527f2067726561746572207468616e20300000000000000000000000000000000000602082015250565b5f613133602f83611fd9565b915061313e826130d9565b604082019050919050565b5f6020820190508181035f83015261316081613127565b9050919050565b5f81519050919050565b5f82825260208201905092915050565b5f819050602082019050919050565b5f61319b8383612619565b60208301905092915050565b5f602082019050919050565b5f6131bd82613167565b6131c78185613171565b93506131d283613181565b805f5b838110156132025781516131e98882613190565b97506131f4836131a7565b9250506001810190506131d5565b5085935050505092915050565b5f60a0820190506132225f83018861284c565b61322f602083018761284c565b818103604083015261324181866131b3565b90506132506060830185612df8565b61325d608083018461284c565b9695505050505050565b5f61327182612172565b915061327c83612172565b925082820261328a81612172565b915082820484148315176132a1576132a0612a65565b5b5092915050565b7f4e487b71000000000000000000000000000000000000000000000000000000005f52601260045260245ffd5b5f6132df82612172565b91506132ea83612172565b9250826132fa576132f96132a8565b5b828204905092915050565b7f756e777261703a207a65726f20616d6f756e74000000000000000000000000005f82015250565b5f613339601383611fd9565b915061334482613305565b602082019050919050565b5f6020820190508181035f8301526133668161332d565b9050919050565b7f574554483a20696e73756666696369656e7420574554480000000000000000005f82015250565b5f6133a1601783611fd9565b91506133ac8261336d565b602082019050919050565b5f6020820190508181035f8301526133ce81613395565b9050919050565b7f73656e64546f6b656e3a207a65726f20616d6f756e74000000000000000000005f82015250565b5f613409601683611fd9565b9150613414826133d5565b602082019050919050565b5f6020820190508181035f830152613436816133fd565b9050919050565b7f73656e644574683a207a65726f20616d6f756e740000000000000000000000005f82015250565b5f613471601483611fd9565b915061347c8261343d565b602082019050919050565b5f6020820190508181035f83015261349e81613465565b9050919050565b7f73656e644574683a20696e73756666696369656e7420455448000000000000005f82015250565b5f6134d9601983611fd9565b91506134e4826134a5565b602082019050919050565b5f6020820190508181035f830152613506816134cd565b9050919050565b5f81905092915050565b50565b5f6135255f8361350d565b915061353082613517565b5f82019050919050565b5f6135448261351a565b9150819050919050565b7f4554482073656e64206661696c656400000000000000000000000000000000005f82015250565b5f613582600f83611fd9565b915061358d8261354e565b602082019050919050565b5f6020820190508181035f8301526135af81613576565b9050919050565b7f72656365697665546f6b656e3a207a65726f20616d6f756e74000000000000005f82015250565b5f6135ea601983611fd9565b91506135f5826135b6565b602082019050919050565b5f6020820190508181035f830152613617816135de565b9050919050565b5f6040820190506136315f830185612df8565b61363e6020830184612df8565b9392505050565b7f72656365697665546f6b656e3a20616c6c6f77616e6365206973206c657373205f8201527f7468616e20616d6f756e74000000000000000000000000000000000000000000602082015250565b5f61369f602b83611fd9565b91506136aa82613645565b604082019050919050565b5f6020820190508181035f8301526136cc81613693565b9050919050565b7f72656365697665546f6b656e3a206e6f7468696e6720726563656976656400005f82015250565b5f613707601e83611fd9565b9150613712826136d3565b602082019050919050565b5f6020820190508181035f830152613734816136fb565b9050919050565b5f819050919050565b5f61375e6137596137548461373b565b6122e3565b612172565b9050919050565b61376e81613744565b82525050565b5f6040820190506137875f830185612df8565b6137946020830184613765565b9392505050565b5f8115159050919050565b6137af8161379b565b81146137b9575f5ffd5b50565b5f815190506137ca816137a6565b92915050565b5f602082840312156137e5576137e461205a565b5b5f6137f2848285016137bc565b91505092915050565b5f60408201905061380e5f830185612df8565b61381b602083018461284c565b9392505050565b7f4e487b71000000000000000000000000000000000000000000000000000000005f52604160045260245ffd5b5f6040820190506138625f83018561284c565b818103602083015261387481846131b3565b90509392505050565b5f601f19601f8301169050919050565b6138968261387d565b810181811067ffffffffffffffff821117156138b5576138b4613822565b5b80604052505050565b5f6138c7612051565b90506138d3828261388d565b919050565b5f67ffffffffffffffff8211156138f2576138f1613822565b5b602082029050602081019050919050565b5f613915613910846138d8565b6138be565b905080838252602082019050602084028301858111156139385761393761206a565b5b835b81811015613961578061394d8882612e20565b84526020840193505060208101905061393a565b5050509392505050565b5f82601f83011261397f5761397e612062565b5b815161398f848260208601613903565b91505092915050565b5f602082840312156139ad576139ac61205a565b5b5f82015167ffffffffffffffff8111156139ca576139c961205e565b5b6139d68482850161396b565b91505092915050565b7f556e697377617020526f757465723a2051756f746520756e617661696c61626c5f8201527f653a20706174682f6c6971756964697479000000000000000000000000000000602082015250565b5f613a39603183611fd9565b9150613a44826139df565b604082019050919050565b5f6020820190508181035f830152613a6681613a2d565b9050919050565b7f736c69707061676542697073203e2031303025000000000000000000000000005f82015250565b5f613aa1601383611fd9565b9150613aac82613a6d565b602082019050919050565b5f6020820190508181035f830152613ace81613a95565b9050919050565b5f606082019050613ae85f830186612df8565b613af56020830185612df8565b613b02604083018461284c565b94935050505056fea26469706673582212206ddef3406880886acaac0bb869f2c6fe19c57e939b1be2badc851f068041c01764736f6c634300081e0033",
			"opcodes": "PUSH1 0xA0 PUSH1 0x40 MSTORE CALLVALUE DUP1 ISZERO PUSH2 0xF JUMPI PUSH0 PUSH0 REVERT JUMPDEST POP PUSH1 0x40 MLOAD PUSH2 0x3C70 CODESIZE SUB DUP1 PUSH2 0x3C70 DUP4 CODECOPY DUP2 DUP2 ADD PUSH1 0x40 MSTORE DUP2 ADD SWAP1 PUSH2 0x31 SWAP2 SWAP1 PUSH2 0xD2 JUMP JUMPDEST DUP1 DUP1 PUSH20 0xFFFFFFFFFFFFFFFFFFFFFFFFFFFFFFFFFFFFFFFF AND PUSH1 0x80 DUP2 PUSH20 0xFFFFFFFFFFFFFFFFFFFFFFFFFFFFFFFFFFFFFFFF AND DUP2 MSTORE POP POP POP PUSH1 0x1 PUSH0 DUP2 SWAP1 SSTORE POP POP PUSH2 0xFD JUMP JUMPDEST PUSH0 PUSH0 REVERT JUMPDEST PUSH0 PUSH20 0xFFFFFFFFFFFFFFFFFFFFFFFFFFFFFFFFFFFFFFFF DUP3 AND SWAP1 POP SWAP2 SWAP1 POP JUMP JUMPDEST PUSH0 PUSH2 0xA1 DUP3 PUSH2 0x78 JUMP JUMPDEST SWAP1 POP SWAP2 SWAP1 POP JUMP JUMPDEST PUSH2 0xB1 DUP2 PUSH2 0x97 JUMP JUMPDEST DUP2 EQ PUSH2 0xBB JUMPI PUSH0 PUSH0 REVERT JUMPDEST POP JUMP JUMPDEST PUSH0 DUP2 MLOAD SWAP1 POP PUSH2 0xCC DUP2 PUSH2 0xA8 JUMP JUMPDEST SWAP3 SWAP2 POP POP JUMP JUMPDEST PUSH0 PUSH1 0x20 DUP3 DUP5 SUB SLT ISZERO PUSH2 0xE7 JUMPI PUSH2 0xE6 PUSH2 0x74 JUMP JUMPDEST JUMPDEST PUSH0 PUSH2 0xF4 DUP5 DUP3 DUP6 ADD PUSH2 0xBE JUMP JUMPDEST SWAP2 POP POP SWAP3 SWAP2 POP POP JUMP JUMPDEST PUSH1 0x80 MLOAD PUSH2 0x3B40 PUSH2 0x130 PUSH0 CODECOPY PUSH0 DUP2 DUP2 PUSH1 0xF5 ADD MSTORE DUP2 DUP2 PUSH2 0x3C8 ADD MSTORE DUP2 DUP2 PUSH2 0x100E ADD MSTORE DUP2 DUP2 PUSH2 0x10D3 ADD MSTORE PUSH2 0x1CAF ADD MSTORE PUSH2 0x3B40 PUSH0 RETURN INVALID PUSH1 0x80 PUSH1 0x40 MSTORE PUSH1 0x4 CALLDATASIZE LT PUSH2 0x2C JUMPI PUSH0 CALLDATALOAD PUSH1 0xE0 SHR DUP1 PUSH4 0x192B5887 EQ PUSH2 0xAC JUMPI DUP1 PUSH4 0xF887EA40 EQ PUSH2 0xC8 JUMPI PUSH2 0xA8 JUMP JUMPDEST CALLDATASIZE PUSH2 0xA8 JUMPI PUSH2 0x39 PUSH2 0xF2 JUMP JUMPDEST PUSH20 0xFFFFFFFFFFFFFFFFFFFFFFFFFFFFFFFFFFFFFFFF AND CALLER PUSH20 0xFFFFFFFFFFFFFFFFFFFFFFFFFFFFFFFFFFFFFFFF AND EQ PUSH2 0xA6 JUMPI PUSH1 0x40 MLOAD PUSH32 0x8C379A000000000000000000000000000000000000000000000000000000000 DUP2 MSTORE PUSH1 0x4 ADD PUSH2 0x9D SWAP1 PUSH2 0x2033 JUMP JUMPDEST PUSH1 0x40 MLOAD DUP1 SWAP2 SUB SWAP1 REVERT JUMPDEST STOP JUMPDEST PUSH0 PUSH0 REVERT JUMPDEST PUSH2 0xC6 PUSH1 0x4 DUP1 CALLDATASIZE SUB DUP2 ADD SWAP1 PUSH2 0xC1 SWAP2 SWAP1 PUSH2 0x21FA JUMP JUMPDEST PUSH2 0x185 JUMP JUMPDEST STOP JUMPDEST CALLVALUE DUP1 ISZERO PUSH2 0xD3 JUMPI PUSH0 PUSH0 REVERT JUMPDEST POP PUSH2 0xDC PUSH2 0x3C6 JUMP JUMPDEST PUSH1 0x40 MLOAD PUSH2 0xE9 SWAP2 SWAP1 PUSH2 0x233E JUMP JUMPDEST PUSH1 0x40 MLOAD DUP1 SWAP2 SUB SWAP1 RETURN JUMPDEST PUSH0 PUSH32 0x0 PUSH20 0xFFFFFFFFFFFFFFFFFFFFFFFFFFFFFFFFFFFFFFFF AND PUSH4 0xAD5C4648 PUSH1 0x40 MLOAD DUP2 PUSH4 0xFFFFFFFF AND PUSH1 0xE0 SHL DUP2 MSTORE PUSH1 0x4 ADD PUSH1 0x20 PUSH1 0x40 MLOAD DUP1 DUP4 SUB DUP2 DUP7 GAS STATICCALL ISZERO DUP1 ISZERO PUSH2 0x15C JUMPI RETURNDATASIZE PUSH0 PUSH0 RETURNDATACOPY RETURNDATASIZE PUSH0 REVERT JUMPDEST POP POP POP POP PUSH1 0x40 MLOAD RETURNDATASIZE PUSH1 0x1F NOT PUSH1 0x1F DUP3 ADD AND DUP3 ADD DUP1 PUSH1 0x40 MSTORE POP DUP2 ADD SWAP1 PUSH2 0x180 SWAP2 SWAP1 PUSH2 0x236B JUMP JUMPDEST SWAP1 POP SWAP1 JUMP JUMPDEST PUSH2 0x18D PUSH2 0x3EA JUMP JUMPDEST PUSH0 DUP10 DUP10 SWAP1 POP GT PUSH2 0x1D2 JUMPI PUSH1 0x40 MLOAD PUSH32 0x8C379A000000000000000000000000000000000000000000000000000000000 DUP2 MSTORE PUSH1 0x4 ADD PUSH2 0x1C9 SWAP1 PUSH2 0x23E0 JUMP JUMPDEST PUSH1 0x40 MLOAD DUP1 SWAP2 SUB SWAP1 REVERT JUMPDEST PUSH0 DUP8 DUP8 SWAP1 POP GT PUSH2 0x217 JUMPI PUSH1 0x40 MLOAD PUSH32 0x8C379A000000000000000000000000000000000000000000000000000000000 DUP2 MSTORE PUSH1 0x4 ADD PUSH2 0x20E SWAP1 PUSH2 0x2448 JUMP JUMPDEST PUSH1 0x40 MLOAD DUP1 SWAP2 SUB SWAP1 REVERT JUMPDEST PUSH0 PUSH20 0xFFFFFFFFFFFFFFFFFFFFFFFFFFFFFFFFFFFFFFFF AND DUP6 PUSH20 0xFFFFFFFFFFFFFFFFFFFFFFFFFFFFFFFFFFFFFFFF AND SUB PUSH2 0x285 JUMPI PUSH1 0x40 MLOAD PUSH32 0x8C379A000000000000000000000000000000000000000000000000000000000 DUP2 MSTORE PUSH1 0x4 ADD PUSH2 0x27C SWAP1 PUSH2 0x24D6 JUMP JUMPDEST PUSH1 0x40 MLOAD DUP1 SWAP2 SUB SWAP1 REVERT JUMPDEST PUSH2 0x2710 DUP5 GT ISZERO PUSH2 0x2CA JUMPI PUSH1 0x40 MLOAD PUSH32 0x8C379A000000000000000000000000000000000000000000000000000000000 DUP2 MSTORE PUSH1 0x4 ADD PUSH2 0x2C1 SWAP1 PUSH2 0x253E JUMP JUMPDEST PUSH1 0x40 MLOAD DUP1 SWAP2 SUB SWAP1 REVERT JUMPDEST TIMESTAMP DUP4 LT ISZERO PUSH2 0x30D JUMPI PUSH1 0x40 MLOAD PUSH32 0x8C379A000000000000000000000000000000000000000000000000000000000 DUP2 MSTORE PUSH1 0x4 ADD PUSH2 0x304 SWAP1 PUSH2 0x25CC JUMP JUMPDEST PUSH1 0x40 MLOAD DUP1 SWAP2 SUB SWAP1 REVERT JUMPDEST PUSH2 0x317 DUP10 DUP10 PUSH2 0x437 JUMP JUMPDEST PUSH2 0x321 DUP8 DUP8 PUSH2 0x520 JUMP JUMPDEST PUSH0 PUSH2 0x32E DUP11 DUP11 DUP8 DUP8 PUSH2 0x638 JUMP JUMPDEST SWAP1 POP PUSH0 PUSH2 0x33C DUP5 DUP5 DUP5 PUSH2 0x787 JUMP JUMPDEST SWAP1 POP PUSH2 0x34C DUP2 DUP11 DUP11 DUP11 DUP11 DUP11 PUSH2 0xA72 JUMP JUMPDEST PUSH2 0x355 CALLER PUSH2 0xBFD JUMP JUMPDEST CALLER PUSH20 0xFFFFFFFFFFFFFFFFFFFFFFFFFFFFFFFFFFFFFFFF AND PUSH32 0x40844C000D7E2DAAB466E5A3C1EE770C3E2CCB92A53DDD9DF72C01E07E99AFAF DUP13 DUP13 DUP13 DUP13 DUP12 DUP12 DUP12 DUP12 PUSH1 0x40 MLOAD PUSH2 0x3A9 SWAP9 SWAP8 SWAP7 SWAP6 SWAP5 SWAP4 SWAP3 SWAP2 SWAP1 PUSH2 0x2939 JUMP JUMPDEST PUSH1 0x40 MLOAD DUP1 SWAP2 SUB SWAP1 LOG2 POP POP PUSH2 0x3BB PUSH2 0xCAF JUMP JUMPDEST POP POP POP POP POP POP POP POP POP JUMP JUMPDEST PUSH32 0x0 DUP2 JUMP JUMPDEST PUSH1 0x2 PUSH0 SLOAD SUB PUSH2 0x42E JUMPI PUSH1 0x40 MLOAD PUSH32 0x8C379A000000000000000000000000000000000000000000000000000000000 DUP2 MSTORE PUSH1 0x4 ADD PUSH2 0x425 SWAP1 PUSH2 0x29EF JUMP JUMPDEST PUSH1 0x40 MLOAD DUP1 SWAP2 SUB SWAP1 REVERT JUMPDEST PUSH1 0x2 PUSH0 DUP2 SWAP1 SSTORE POP JUMP JUMPDEST PUSH0 PUSH0 JUMPDEST DUP4 DUP4 SWAP1 POP DUP2 LT ISZERO PUSH2 0x4D7 JUMPI PUSH0 PUSH20 0xFFFFFFFFFFFFFFFFFFFFFFFFFFFFFFFFFFFFFFFF AND DUP5 DUP5 DUP4 DUP2 DUP2 LT PUSH2 0x46F JUMPI PUSH2 0x46E PUSH2 0x2A0D JUMP JUMPDEST JUMPDEST SWAP1 POP PUSH1 0x40 MUL ADD PUSH0 ADD PUSH1 0x20 DUP2 ADD SWAP1 PUSH2 0x486 SWAP2 SWAP1 PUSH2 0x2A3A JUMP JUMPDEST PUSH20 0xFFFFFFFFFFFFFFFFFFFFFFFFFFFFFFFFFFFFFFFF AND SUB PUSH2 0x4CC JUMPI DUP4 DUP4 DUP3 DUP2 DUP2 LT PUSH2 0x4B4 JUMPI PUSH2 0x4B3 PUSH2 0x2A0D JUMP JUMPDEST JUMPDEST SWAP1 POP PUSH1 0x40 MUL ADD PUSH1 0x20 ADD CALLDATALOAD DUP3 PUSH2 0x4C9 SWAP2 SWAP1 PUSH2 0x2A92 JUMP JUMPDEST SWAP2 POP JUMPDEST DUP1 PUSH1 0x1 ADD SWAP1 POP PUSH2 0x43A JUMP JUMPDEST POP DUP1 CALLVALUE LT ISZERO PUSH2 0x51B JUMPI PUSH1 0x40 MLOAD PUSH32 0x8C379A000000000000000000000000000000000000000000000000000000000 DUP2 MSTORE PUSH1 0x4 ADD PUSH2 0x512 SWAP1 PUSH2 0x2B0F JUMP JUMPDEST PUSH1 0x40 MLOAD DUP1 SWAP2 SUB SWAP1 REVERT JUMPDEST POP POP POP JUMP JUMPDEST PUSH0 PUSH0 SWAP1 POP PUSH0 PUSH0 SWAP1 POP JUMPDEST DUP4 DUP4 SWAP1 POP DUP2 LT ISZERO PUSH2 0x5ED JUMPI PUSH0 DUP5 DUP5 DUP4 DUP2 DUP2 LT PUSH2 0x548 JUMPI PUSH2 0x547 PUSH2 0x2A0D JUMP JUMPDEST JUMPDEST SWAP1 POP PUSH1 0x40 MUL ADD PUSH1 0x20 ADD PUSH1 0x20 DUP2 ADD SWAP1 PUSH2 0x560 SWAP2 SWAP1 PUSH2 0x2B2D JUMP JUMPDEST PUSH2 0xFFFF AND GT PUSH2 0x5A4 JUMPI PUSH1 0x40 MLOAD PUSH32 0x8C379A000000000000000000000000000000000000000000000000000000000 DUP2 MSTORE PUSH1 0x4 ADD PUSH2 0x59B SWAP1 PUSH2 0x2BC8 JUMP JUMPDEST PUSH1 0x40 MLOAD DUP1 SWAP2 SUB SWAP1 REVERT JUMPDEST DUP4 DUP4 DUP3 DUP2 DUP2 LT PUSH2 0x5B7 JUMPI PUSH2 0x5B6 PUSH2 0x2A0D JUMP JUMPDEST JUMPDEST SWAP1 POP PUSH1 0x40 MUL ADD PUSH1 0x20 ADD PUSH1 0x20 DUP2 ADD SWAP1 PUSH2 0x5CF SWAP2 SWAP1 PUSH2 0x2B2D JUMP JUMPDEST PUSH2 0xFFFF AND DUP3 PUSH2 0x5DE SWAP2 SWAP1 PUSH2 0x2A92 JUMP JUMPDEST SWAP2 POP DUP1 DUP1 PUSH1 0x1 ADD SWAP2 POP POP PUSH2 0x529 JUMP JUMPDEST POP PUSH2 0x2710 DUP2 GT ISZERO PUSH2 0x633 JUMPI PUSH1 0x40 MLOAD PUSH32 0x8C379A000000000000000000000000000000000000000000000000000000000 DUP2 MSTORE PUSH1 0x4 ADD PUSH2 0x62A SWAP1 PUSH2 0x2C56 JUMP JUMPDEST PUSH1 0x40 MLOAD DUP1 SWAP2 SUB SWAP1 REVERT JUMPDEST POP POP POP JUMP JUMPDEST PUSH0 PUSH0 PUSH0 SWAP1 POP PUSH0 PUSH0 SWAP1 POP JUMPDEST DUP7 DUP7 SWAP1 POP DUP2 LT ISZERO PUSH2 0x77A JUMPI PUSH0 PUSH20 0xFFFFFFFFFFFFFFFFFFFFFFFFFFFFFFFFFFFFFFFF AND DUP8 DUP8 DUP4 DUP2 DUP2 LT PUSH2 0x677 JUMPI PUSH2 0x676 PUSH2 0x2A0D JUMP JUMPDEST JUMPDEST SWAP1 POP PUSH1 0x40 MUL ADD PUSH0 ADD PUSH1 0x20 DUP2 ADD SWAP1 PUSH2 0x68E SWAP2 SWAP1 PUSH2 0x2A3A JUMP JUMPDEST PUSH20 0xFFFFFFFFFFFFFFFFFFFFFFFFFFFFFFFFFFFFFFFF AND SUB PUSH2 0x6FF JUMPI PUSH2 0x6D0 ADDRESS ADDRESS DUP10 DUP10 DUP6 DUP2 DUP2 LT PUSH2 0x6C1 JUMPI PUSH2 0x6C0 PUSH2 0x2A0D JUMP JUMPDEST JUMPDEST SWAP1 POP PUSH1 0x40 MUL ADD PUSH1 0x20 ADD CALLDATALOAD PUSH2 0xCB8 JUMP JUMPDEST DUP7 DUP7 DUP3 DUP2 DUP2 LT PUSH2 0x6E3 JUMPI PUSH2 0x6E2 PUSH2 0x2A0D JUMP JUMPDEST JUMPDEST SWAP1 POP PUSH1 0x40 MUL ADD PUSH1 0x20 ADD CALLDATALOAD DUP3 PUSH2 0x6F8 SWAP2 SWAP1 PUSH2 0x2A92 JUMP JUMPDEST SWAP2 POP PUSH2 0x76D JUMP JUMPDEST PUSH0 PUSH2 0x75B DUP9 DUP9 DUP5 DUP2 DUP2 LT PUSH2 0x716 JUMPI PUSH2 0x715 PUSH2 0x2A0D JUMP JUMPDEST JUMPDEST SWAP1 POP PUSH1 0x40 MUL ADD PUSH0 ADD PUSH1 0x20 DUP2 ADD SWAP1 PUSH2 0x72D SWAP2 SWAP1 PUSH2 0x2A3A JUMP JUMPDEST PUSH2 0x735 PUSH2 0xF2 JUMP JUMPDEST DUP11 DUP11 DUP7 DUP2 DUP2 LT PUSH2 0x748 JUMPI PUSH2 0x747 PUSH2 0x2A0D JUMP JUMPDEST JUMPDEST SWAP1 POP PUSH1 0x40 MUL ADD PUSH1 0x20 ADD CALLDATALOAD CALLER ADDRESS DUP12 DUP12 PUSH2 0xE5D JUMP JUMPDEST SWAP1 POP DUP1 DUP4 PUSH2 0x769 SWAP2 SWAP1 PUSH2 0x2A92 JUMP JUMPDEST SWAP3 POP POP JUMPDEST DUP1 DUP1 PUSH1 0x1 ADD SWAP2 POP POP PUSH2 0x642 JUMP JUMPDEST POP DUP1 SWAP2 POP POP SWAP5 SWAP4 POP POP POP POP JUMP JUMPDEST PUSH0 PUSH0 DUP5 DUP5 SWAP1 POP SUB PUSH2 0x79A JUMPI DUP2 SWAP1 POP PUSH2 0xA6B JUMP JUMPDEST PUSH0 PUSH0 SWAP1 POP PUSH0 PUSH0 SWAP1 POP JUMPDEST DUP6 DUP6 SWAP1 POP DUP2 LT ISZERO PUSH2 0x8FE JUMPI PUSH0 PUSH20 0xFFFFFFFFFFFFFFFFFFFFFFFFFFFFFFFFFFFFFFFF AND DUP7 DUP7 DUP4 DUP2 DUP2 LT PUSH2 0x7D8 JUMPI PUSH2 0x7D7 PUSH2 0x2A0D JUMP JUMPDEST JUMPDEST SWAP1 POP PUSH1 0x40 MUL ADD PUSH0 ADD PUSH1 0x20 DUP2 ADD SWAP1 PUSH2 0x7EF SWAP2 SWAP1 PUSH2 0x2A3A JUMP JUMPDEST PUSH20 0xFFFFFFFFFFFFFFFFFFFFFFFFFFFFFFFFFFFFFFFF AND SUB PUSH2 0x845 JUMPI PUSH1 0x40 MLOAD PUSH32 0x8C379A000000000000000000000000000000000000000000000000000000000 DUP2 MSTORE PUSH1 0x4 ADD PUSH2 0x83C SWAP1 PUSH2 0x2CBE JUMP JUMPDEST PUSH1 0x40 MLOAD DUP1 SWAP2 SUB SWAP1 REVERT JUMPDEST PUSH0 DUP7 DUP7 DUP4 DUP2 DUP2 LT PUSH2 0x859 JUMPI PUSH2 0x858 PUSH2 0x2A0D JUMP JUMPDEST JUMPDEST SWAP1 POP PUSH1 0x40 MUL ADD PUSH1 0x20 ADD PUSH1 0x20 DUP2 ADD SWAP1 PUSH2 0x871 SWAP2 SWAP1 PUSH2 0x2B2D JUMP JUMPDEST PUSH2 0xFFFF AND GT PUSH2 0x8B5 JUMPI PUSH1 0x40 MLOAD PUSH32 0x8C379A000000000000000000000000000000000000000000000000000000000 DUP2 MSTORE PUSH1 0x4 ADD PUSH2 0x8AC SWAP1 PUSH2 0x2D26 JUMP JUMPDEST PUSH1 0x40 MLOAD DUP1 SWAP2 SUB SWAP1 REVERT JUMPDEST DUP6 DUP6 DUP3 DUP2 DUP2 LT PUSH2 0x8C8 JUMPI PUSH2 0x8C7 PUSH2 0x2A0D JUMP JUMPDEST JUMPDEST SWAP1 POP PUSH1 0x40 MUL ADD PUSH1 0x20 ADD PUSH1 0x20 DUP2 ADD SWAP1 PUSH2 0x8E0 SWAP2 SWAP1 PUSH2 0x2B2D JUMP JUMPDEST PUSH2 0xFFFF AND DUP3 PUSH2 0x8EF SWAP2 SWAP1 PUSH2 0x2A92 JUMP JUMPDEST SWAP2 POP DUP1 DUP1 PUSH1 0x1 ADD SWAP2 POP POP PUSH2 0x7A3 JUMP JUMPDEST POP PUSH2 0x2710 DUP2 GT ISZERO PUSH2 0x944 JUMPI PUSH1 0x40 MLOAD PUSH32 0x8C379A000000000000000000000000000000000000000000000000000000000 DUP2 MSTORE PUSH1 0x4 ADD PUSH2 0x93B SWAP1 PUSH2 0x2D8E JUMP JUMPDEST PUSH1 0x40 MLOAD DUP1 SWAP2 SUB SWAP1 REVERT JUMPDEST PUSH0 DUP4 SWAP1 POP PUSH0 PUSH0 SWAP1 POP JUMPDEST DUP7 DUP7 SWAP1 POP DUP2 LT ISZERO PUSH2 0xA64 JUMPI PUSH0 PUSH2 0x98D DUP7 DUP10 DUP10 DUP6 DUP2 DUP2 LT PUSH2 0x970 JUMPI PUSH2 0x96F PUSH2 0x2A0D JUMP JUMPDEST JUMPDEST SWAP1 POP PUSH1 0x40 MUL ADD PUSH1 0x20 ADD PUSH1 0x20 DUP2 ADD SWAP1 PUSH2 0x988 SWAP2 SWAP1 PUSH2 0x2B2D JUMP JUMPDEST PUSH2 0x1206 JUMP JUMPDEST SWAP1 POP PUSH0 DUP2 SUB PUSH2 0x99C JUMPI POP PUSH2 0xA57 JUMP JUMPDEST PUSH2 0x9D0 ADDRESS DUP10 DUP10 DUP6 DUP2 DUP2 LT PUSH2 0x9B3 JUMPI PUSH2 0x9B2 PUSH2 0x2A0D JUMP JUMPDEST JUMPDEST SWAP1 POP PUSH1 0x40 MUL ADD PUSH0 ADD PUSH1 0x20 DUP2 ADD SWAP1 PUSH2 0x9CA SWAP2 SWAP1 PUSH2 0x2A3A JUMP JUMPDEST DUP4 PUSH2 0x122C JUMP JUMPDEST DUP1 DUP4 PUSH2 0x9DC SWAP2 SWAP1 PUSH2 0x2DAC JUMP JUMPDEST SWAP3 POP DUP8 DUP8 DUP4 DUP2 DUP2 LT PUSH2 0x9F1 JUMPI PUSH2 0x9F0 PUSH2 0x2A0D JUMP JUMPDEST JUMPDEST SWAP1 POP PUSH1 0x40 MUL ADD PUSH0 ADD PUSH1 0x20 DUP2 ADD SWAP1 PUSH2 0xA08 SWAP2 SWAP1 PUSH2 0x2A3A JUMP JUMPDEST PUSH20 0xFFFFFFFFFFFFFFFFFFFFFFFFFFFFFFFFFFFFFFFF AND PUSH32 0x75A2720282FDF622141DAE0B048EF90A21A7E57C134C76912D19D006B3B3F6F DUP3 PUSH1 0x40 MLOAD PUSH2 0xA4D SWAP2 SWAP1 PUSH2 0x2DDF JUMP JUMPDEST PUSH1 0x40 MLOAD DUP1 SWAP2 SUB SWAP1 LOG2 POP JUMPDEST DUP1 DUP1 PUSH1 0x1 ADD SWAP2 POP POP PUSH2 0x94D JUMP JUMPDEST POP DUP1 SWAP3 POP POP POP JUMPDEST SWAP4 SWAP3 POP POP POP JUMP JUMPDEST PUSH0 PUSH2 0xA7B PUSH2 0xF2 JUMP JUMPDEST SWAP1 POP PUSH0 PUSH0 SWAP1 POP JUMPDEST DUP7 DUP7 SWAP1 POP DUP2 LT ISZERO PUSH2 0xBF3 JUMPI PUSH0 PUSH2 0xAC2 DUP10 DUP10 DUP10 DUP6 DUP2 DUP2 LT PUSH2 0xAA5 JUMPI PUSH2 0xAA4 PUSH2 0x2A0D JUMP JUMPDEST JUMPDEST SWAP1 POP PUSH1 0x40 MUL ADD PUSH1 0x20 ADD PUSH1 0x20 DUP2 ADD SWAP1 PUSH2 0xABD SWAP2 SWAP1 PUSH2 0x2B2D JUMP JUMPDEST PUSH2 0x1206 JUMP JUMPDEST SWAP1 POP PUSH0 DUP2 SUB PUSH2 0xAD1 JUMPI POP PUSH2 0xBE6 JUMP JUMPDEST PUSH0 PUSH20 0xFFFFFFFFFFFFFFFFFFFFFFFFFFFFFFFFFFFFFFFF AND DUP9 DUP9 DUP5 DUP2 DUP2 LT PUSH2 0xAFB JUMPI PUSH2 0xAFA PUSH2 0x2A0D JUMP JUMPDEST JUMPDEST SWAP1 POP PUSH1 0x40 MUL ADD PUSH0 ADD PUSH1 0x20 DUP2 ADD SWAP1 PUSH2 0xB12 SWAP2 SWAP1 PUSH2 0x2A3A JUMP JUMPDEST PUSH20 0xFFFFFFFFFFFFFFFFFFFFFFFFFFFFFFFFFFFFFFFF AND SUB PUSH2 0xB3D JUMPI PUSH2 0xB38 ADDRESS DUP8 DUP4 PUSH2 0x122C JUMP JUMPDEST PUSH2 0xBE4 JUMP JUMPDEST DUP3 PUSH20 0xFFFFFFFFFFFFFFFFFFFFFFFFFFFFFFFFFFFFFFFF AND DUP9 DUP9 DUP5 DUP2 DUP2 LT PUSH2 0xB67 JUMPI PUSH2 0xB66 PUSH2 0x2A0D JUMP JUMPDEST JUMPDEST SWAP1 POP PUSH1 0x40 MUL ADD PUSH0 ADD PUSH1 0x20 DUP2 ADD SWAP1 PUSH2 0xB7E SWAP2 SWAP1 PUSH2 0x2A3A JUMP JUMPDEST PUSH20 0xFFFFFFFFFFFFFFFFFFFFFFFFFFFFFFFFFFFFFFFF AND SUB PUSH2 0xBA9 JUMPI PUSH2 0xBA4 DUP4 DUP8 DUP4 PUSH2 0x1428 JUMP JUMPDEST PUSH2 0xBE3 JUMP JUMPDEST PUSH2 0xBE1 DUP4 DUP10 DUP10 DUP6 DUP2 DUP2 LT PUSH2 0xBC0 JUMPI PUSH2 0xBBF PUSH2 0x2A0D JUMP JUMPDEST JUMPDEST SWAP1 POP PUSH1 0x40 MUL ADD PUSH0 ADD PUSH1 0x20 DUP2 ADD SWAP1 PUSH2 0xBD7 SWAP2 SWAP1 PUSH2 0x2A3A JUMP JUMPDEST DUP4 ADDRESS DUP11 DUP11 DUP11 PUSH2 0xE5D JUMP JUMPDEST POP JUMPDEST JUMPDEST POP JUMPDEST DUP1 DUP1 PUSH1 0x1 ADD SWAP2 POP POP PUSH2 0xA82 JUMP JUMPDEST POP POP POP POP POP POP POP POP JUMP JUMPDEST PUSH0 PUSH2 0xC06 PUSH2 0xF2 JUMP JUMPDEST PUSH20 0xFFFFFFFFFFFFFFFFFFFFFFFFFFFFFFFFFFFFFFFF AND PUSH4 0x70A08231 ADDRESS PUSH1 0x40 MLOAD DUP3 PUSH4 0xFFFFFFFF AND PUSH1 0xE0 SHL DUP2 MSTORE PUSH1 0x4 ADD PUSH2 0xC3E SWAP2 SWAP1 PUSH2 0x2E07 JUMP JUMPDEST PUSH1 0x20 PUSH1 0x40 MLOAD DUP1 DUP4 SUB DUP2 DUP7 GAS STATICCALL ISZERO DUP1 ISZERO PUSH2 0xC59 JUMPI RETURNDATASIZE PUSH0 PUSH0 RETURNDATACOPY RETURNDATASIZE PUSH0 REVERT JUMPDEST POP POP POP POP PUSH1 0x40 MLOAD RETURNDATASIZE PUSH1 0x1F NOT PUSH1 0x1F DUP3 ADD AND DUP3 ADD DUP1 PUSH1 0x40 MSTORE POP DUP2 ADD SWAP1 PUSH2 0xC7D SWAP2 SWAP1 PUSH2 0x2E34 JUMP JUMPDEST SWAP1 POP PUSH0 SELFBALANCE SWAP1 POP PUSH0 DUP3 GT ISZERO PUSH2 0xC97 JUMPI PUSH2 0xC96 ADDRESS DUP5 DUP5 PUSH2 0x122C JUMP JUMPDEST JUMPDEST PUSH0 DUP2 GT ISZERO PUSH2 0xCAA JUMPI PUSH2 0xCA9 DUP4 DUP3 PUSH2 0x149F JUMP JUMPDEST JUMPDEST POP POP POP JUMP JUMPDEST PUSH1 0x1 PUSH0 DUP2 SWAP1 SSTORE POP JUMP JUMPDEST PUSH0 PUSH2 0xCC1 PUSH2 0xF2 JUMP JUMPDEST SWAP1 POP PUSH0 DUP3 GT PUSH2 0xD05 JUMPI PUSH1 0x40 MLOAD PUSH32 0x8C379A000000000000000000000000000000000000000000000000000000000 DUP2 MSTORE PUSH1 0x4 ADD PUSH2 0xCFC SWAP1 PUSH2 0x2EA9 JUMP JUMPDEST PUSH1 0x40 MLOAD DUP1 SWAP2 SUB SWAP1 REVERT JUMPDEST ADDRESS PUSH20 0xFFFFFFFFFFFFFFFFFFFFFFFFFFFFFFFFFFFFFFFF AND DUP5 PUSH20 0xFFFFFFFFFFFFFFFFFFFFFFFFFFFFFFFFFFFFFFFF AND EQ PUSH2 0xD73 JUMPI PUSH1 0x40 MLOAD PUSH32 0x8C379A000000000000000000000000000000000000000000000000000000000 DUP2 MSTORE PUSH1 0x4 ADD PUSH2 0xD6A SWAP1 PUSH2 0x2F37 JUMP JUMPDEST PUSH1 0x40 MLOAD DUP1 SWAP2 SUB SWAP1 REVERT JUMPDEST DUP2 SELFBALANCE LT ISZERO PUSH2 0xDB6 JUMPI PUSH1 0x40 MLOAD PUSH32 0x8C379A000000000000000000000000000000000000000000000000000000000 DUP2 MSTORE PUSH1 0x4 ADD PUSH2 0xDAD SWAP1 PUSH2 0x2F9F JUMP JUMPDEST PUSH1 0x40 MLOAD DUP1 SWAP2 SUB SWAP1 REVERT JUMPDEST PUSH0 DUP2 SWAP1 POP DUP1 PUSH20 0xFFFFFFFFFFFFFFFFFFFFFFFFFFFFFFFFFFFFFFFF AND PUSH4 0xD0E30DB0 DUP5 PUSH1 0x40 MLOAD DUP3 PUSH4 0xFFFFFFFF AND PUSH1 0xE0 SHL DUP2 MSTORE PUSH1 0x4 ADD PUSH0 PUSH1 0x40 MLOAD DUP1 DUP4 SUB DUP2 DUP6 DUP9 DUP1 EXTCODESIZE ISZERO DUP1 ISZERO PUSH2 0xE00 JUMPI PUSH0 PUSH0 REVERT JUMPDEST POP GAS CALL ISZERO DUP1 ISZERO PUSH2 0xE12 JUMPI RETURNDATASIZE PUSH0 PUSH0 RETURNDATACOPY RETURNDATASIZE PUSH0 REVERT JUMPDEST POP POP POP POP POP ADDRESS PUSH20 0xFFFFFFFFFFFFFFFFFFFFFFFFFFFFFFFFFFFFFFFF AND DUP5 PUSH20 0xFFFFFFFFFFFFFFFFFFFFFFFFFFFFFFFFFFFFFFFF AND EQ PUSH2 0xE56 JUMPI PUSH2 0xE55 DUP3 DUP6 DUP6 PUSH2 0x1428 JUMP JUMPDEST JUMPDEST POP POP POP POP POP JUMP JUMPDEST PUSH0 PUSH0 PUSH20 0xFFFFFFFFFFFFFFFFFFFFFFFFFFFFFFFFFFFFFFFF AND DUP9 PUSH20 0xFFFFFFFFFFFFFFFFFFFFFFFFFFFFFFFFFFFFFFFF AND SUB PUSH2 0xECC JUMPI PUSH1 0x40 MLOAD PUSH32 0x8C379A000000000000000000000000000000000000000000000000000000000 DUP2 MSTORE PUSH1 0x4 ADD PUSH2 0xEC3 SWAP1 PUSH2 0x302D JUMP JUMPDEST PUSH1 0x40 MLOAD DUP1 SWAP2 SUB SWAP1 REVERT JUMPDEST PUSH0 PUSH20 0xFFFFFFFFFFFFFFFFFFFFFFFFFFFFFFFFFFFFFFFF AND DUP8 PUSH20 0xFFFFFFFFFFFFFFFFFFFFFFFFFFFFFFFFFFFFFFFF AND SUB PUSH2 0xF3A JUMPI PUSH1 0x40 MLOAD PUSH32 0x8C379A000000000000000000000000000000000000000000000000000000000 DUP2 MSTORE PUSH1 0x4 ADD PUSH2 0xF31 SWAP1 PUSH2 0x30BB JUMP JUMPDEST PUSH1 0x40 MLOAD DUP1 SWAP2 SUB SWAP1 REVERT JUMPDEST PUSH0 DUP7 GT PUSH2 0xF7C JUMPI PUSH1 0x40 MLOAD PUSH32 0x8C379A000000000000000000000000000000000000000000000000000000000 DUP2 MSTORE PUSH1 0x4 ADD PUSH2 0xF73 SWAP1 PUSH2 0x3149 JUMP JUMPDEST PUSH1 0x40 MLOAD DUP1 SWAP2 SUB SWAP1 REVERT JUMPDEST PUSH0 DUP7 SWAP1 POP ADDRESS PUSH20 0xFFFFFFFFFFFFFFFFFFFFFFFFFFFFFFFFFFFFFFFF AND DUP7 PUSH20 0xFFFFFFFFFFFFFFFFFFFFFFFFFFFFFFFFFFFFFFFF AND EQ PUSH2 0xFC1 JUMPI PUSH2 0xFBE DUP10 DUP9 DUP9 PUSH2 0x15D1 JUMP JUMPDEST SWAP1 POP JUMPDEST DUP8 PUSH20 0xFFFFFFFFFFFFFFFFFFFFFFFFFFFFFFFFFFFFFFFF AND DUP10 PUSH20 0xFFFFFFFFFFFFFFFFFFFFFFFFFFFFFFFFFFFFFFFF AND SUB PUSH2 0x1008 JUMPI PUSH2 0xFFF DUP10 DUP7 DUP4 PUSH2 0x1428 JUMP JUMPDEST DUP1 SWAP2 POP POP PUSH2 0x11FB JUMP JUMPDEST PUSH2 0x1033 DUP10 PUSH32 0x0 DUP4 PUSH2 0x1856 JUMP JUMPDEST PUSH0 PUSH2 0x103E DUP11 DUP11 PUSH2 0x1A07 JUMP JUMPDEST SWAP1 POP PUSH0 PUSH2 0x1054 PUSH2 0x104E DUP5 DUP5 PUSH2 0x1CAC JUMP JUMPDEST DUP8 PUSH2 0x1DB5 JUMP JUMPDEST SWAP1 POP PUSH0 DUP11 PUSH20 0xFFFFFFFFFFFFFFFFFFFFFFFFFFFFFFFFFFFFFFFF AND PUSH4 0x70A08231 DUP10 PUSH1 0x40 MLOAD DUP3 PUSH4 0xFFFFFFFF AND PUSH1 0xE0 SHL DUP2 MSTORE PUSH1 0x4 ADD PUSH2 0x1090 SWAP2 SWAP1 PUSH2 0x2E07 JUMP JUMPDEST PUSH1 0x20 PUSH1 0x40 MLOAD DUP1 DUP4 SUB DUP2 DUP7 GAS STATICCALL ISZERO DUP1 ISZERO PUSH2 0x10AB JUMPI RETURNDATASIZE PUSH0 PUSH0 RETURNDATACOPY RETURNDATASIZE PUSH0 REVERT JUMPDEST POP POP POP POP PUSH1 0x40 MLOAD RETURNDATASIZE PUSH1 0x1F NOT PUSH1 0x1F DUP3 ADD AND DUP3 ADD DUP1 PUSH1 0x40 MSTORE POP DUP2 ADD SWAP1 PUSH2 0x10CF SWAP2 SWAP1 PUSH2 0x2E34 JUMP JUMPDEST SWAP1 POP PUSH32 0x0 PUSH20 0xFFFFFFFFFFFFFFFFFFFFFFFFFFFFFFFFFFFFFFFF AND PUSH4 0x5C11D795 DUP6 DUP5 DUP7 DUP13 PUSH2 0x111A DUP13 PUSH2 0x1E29 JUMP JUMPDEST PUSH1 0x40 MLOAD DUP7 PUSH4 0xFFFFFFFF AND PUSH1 0xE0 SHL DUP2 MSTORE PUSH1 0x4 ADD PUSH2 0x113A SWAP6 SWAP5 SWAP4 SWAP3 SWAP2 SWAP1 PUSH2 0x320F JUMP JUMPDEST PUSH0 PUSH1 0x40 MLOAD DUP1 DUP4 SUB DUP2 PUSH0 DUP8 DUP1 EXTCODESIZE ISZERO DUP1 ISZERO PUSH2 0x1151 JUMPI PUSH0 PUSH0 REVERT JUMPDEST POP GAS CALL ISZERO DUP1 ISZERO PUSH2 0x1163 JUMPI RETURNDATASIZE PUSH0 PUSH0 RETURNDATACOPY RETURNDATASIZE PUSH0 REVERT JUMPDEST POP POP POP POP PUSH0 DUP12 PUSH20 0xFFFFFFFFFFFFFFFFFFFFFFFFFFFFFFFFFFFFFFFF AND PUSH4 0x70A08231 DUP11 PUSH1 0x40 MLOAD DUP3 PUSH4 0xFFFFFFFF AND PUSH1 0xE0 SHL DUP2 MSTORE PUSH1 0x4 ADD PUSH2 0x11A1 SWAP2 SWAP1 PUSH2 0x2E07 JUMP JUMPDEST PUSH1 0x20 PUSH1 0x40 MLOAD DUP1 DUP4 SUB DUP2 DUP7 GAS STATICCALL ISZERO DUP1 ISZERO PUSH2 0x11BC JUMPI RETURNDATASIZE PUSH0 PUSH0 RETURNDATACOPY RETURNDATASIZE PUSH0 REVERT JUMPDEST POP POP POP POP PUSH1 0x40 MLOAD RETURNDATASIZE PUSH1 0x1F NOT PUSH1 0x1F DUP3 ADD AND DUP3 ADD DUP1 PUSH1 0x40 MSTORE POP DUP2 ADD SWAP1 PUSH2 0x11E0 SWAP2 SWAP1 PUSH2 0x2E34 JUMP JUMPDEST SWAP1 POP PUSH0 DUP3 DUP3 PUSH2 0x11EF SWAP2 SWAP1 PUSH2 0x2DAC JUMP JUMPDEST SWAP1 POP DUP1 SWAP7 POP POP POP POP POP POP POP JUMPDEST SWAP8 SWAP7 POP POP POP POP POP POP POP JUMP JUMPDEST PUSH0 PUSH2 0x2710 DUP3 PUSH2 0xFFFF AND DUP5 PUSH2 0x121A SWAP2 SWAP1 PUSH2 0x3267 JUMP JUMPDEST PUSH2 0x1224 SWAP2 SWAP1 PUSH2 0x32D5 JUMP JUMPDEST SWAP1 POP SWAP3 SWAP2 POP POP JUMP JUMPDEST PUSH0 PUSH2 0x1235 PUSH2 0xF2 JUMP JUMPDEST SWAP1 POP PUSH0 DUP2 SWAP1 POP PUSH0 DUP4 GT PUSH2 0x127D JUMPI PUSH1 0x40 MLOAD PUSH32 0x8C379A000000000000000000000000000000000000000000000000000000000 DUP2 MSTORE PUSH1 0x4 ADD PUSH2 0x1274 SWAP1 PUSH2 0x334F JUMP JUMPDEST PUSH1 0x40 MLOAD DUP1 SWAP2 SUB SWAP1 REVERT JUMPDEST DUP3 DUP2 PUSH20 0xFFFFFFFFFFFFFFFFFFFFFFFFFFFFFFFFFFFFFFFF AND PUSH4 0x70A08231 DUP8 PUSH1 0x40 MLOAD DUP3 PUSH4 0xFFFFFFFF AND PUSH1 0xE0 SHL DUP2 MSTORE PUSH1 0x4 ADD PUSH2 0x12B7 SWAP2 SWAP1 PUSH2 0x2E07 JUMP JUMPDEST PUSH1 0x20 PUSH1 0x40 MLOAD DUP1 DUP4 SUB DUP2 DUP7 GAS STATICCALL ISZERO DUP1 ISZERO PUSH2 0x12D2 JUMPI RETURNDATASIZE PUSH0 PUSH0 RETURNDATACOPY RETURNDATASIZE PUSH0 REVERT JUMPDEST POP POP POP POP PUSH1 0x40 MLOAD RETURNDATASIZE PUSH1 0x1F NOT PUSH1 0x1F DUP3 ADD AND DUP3 ADD DUP1 PUSH1 0x40 MSTORE POP DUP2 ADD SWAP1 PUSH2 0x12F6 SWAP2 SWAP1 PUSH2 0x2E34 JUMP JUMPDEST LT ISZERO PUSH2 0x1337 JUMPI PUSH1 0x40 MLOAD PUSH32 0x8C379A000000000000000000000000000000000000000000000000000000000 DUP2 MSTORE PUSH1 0x4 ADD PUSH2 0x132E SWAP1 PUSH2 0x33B7 JUMP JUMPDEST PUSH1 0x40 MLOAD DUP1 SWAP2 SUB SWAP1 REVERT JUMPDEST PUSH0 DUP4 SWAP1 POP ADDRESS PUSH20 0xFFFFFFFFFFFFFFFFFFFFFFFFFFFFFFFFFFFFFFFF AND DUP7 PUSH20 0xFFFFFFFFFFFFFFFFFFFFFFFFFFFFFFFFFFFFFFFF AND EQ PUSH2 0x137C JUMPI PUSH2 0x1379 DUP4 DUP6 DUP9 PUSH2 0x15D1 JUMP JUMPDEST SWAP1 POP JUMPDEST DUP2 PUSH20 0xFFFFFFFFFFFFFFFFFFFFFFFFFFFFFFFFFFFFFFFF AND PUSH4 0x2E1A7D4D DUP3 PUSH1 0x40 MLOAD DUP3 PUSH4 0xFFFFFFFF AND PUSH1 0xE0 SHL DUP2 MSTORE PUSH1 0x4 ADD PUSH2 0x13B5 SWAP2 SWAP1 PUSH2 0x2DDF JUMP JUMPDEST PUSH0 PUSH1 0x40 MLOAD DUP1 DUP4 SUB DUP2 PUSH0 DUP8 DUP1 EXTCODESIZE ISZERO DUP1 ISZERO PUSH2 0x13CC JUMPI PUSH0 PUSH0 REVERT JUMPDEST POP GAS CALL ISZERO DUP1 ISZERO PUSH2 0x13DE JUMPI RETURNDATASIZE PUSH0 PUSH0 RETURNDATACOPY RETURNDATASIZE PUSH0 REVERT JUMPDEST POP POP POP POP ADDRESS PUSH20 0xFFFFFFFFFFFFFFFFFFFFFFFFFFFFFFFFFFFFFFFF AND DUP6 PUSH20 0xFFFFFFFFFFFFFFFFFFFFFFFFFFFFFFFFFFFFFFFF AND EQ PUSH2 0x1420 JUMPI PUSH2 0x141F DUP6 DUP3 PUSH2 0x149F JUMP JUMPDEST JUMPDEST POP POP POP POP POP POP JUMP JUMPDEST PUSH0 DUP4 SWAP1 POP PUSH0 DUP3 GT PUSH2 0x146E JUMPI PUSH1 0x40 MLOAD PUSH32 0x8C379A000000000000000000000000000000000000000000000000000000000 DUP2 MSTORE PUSH1 0x4 ADD PUSH2 0x1465 SWAP1 PUSH2 0x341F JUMP JUMPDEST PUSH1 0x40 MLOAD DUP1 SWAP2 SUB SWAP1 REVERT JUMPDEST PUSH2 0x1499 DUP4 DUP4 DUP4 PUSH20 0xFFFFFFFFFFFFFFFFFFFFFFFFFFFFFFFFFFFFFFFF AND PUSH2 0x1E3D SWAP1 SWAP3 SWAP2 SWAP1 PUSH4 0xFFFFFFFF AND JUMP JUMPDEST POP POP POP POP JUMP JUMPDEST PUSH0 DUP2 GT PUSH2 0x14E1 JUMPI PUSH1 0x40 MLOAD PUSH32 0x8C379A000000000000000000000000000000000000000000000000000000000 DUP2 MSTORE PUSH1 0x4 ADD PUSH2 0x14D8 SWAP1 PUSH2 0x3487 JUMP JUMPDEST PUSH1 0x40 MLOAD DUP1 SWAP2 SUB SWAP1 REVERT JUMPDEST DUP1 SELFBALANCE LT ISZERO PUSH2 0x1524 JUMPI PUSH1 0x40 MLOAD PUSH32 0x8C379A000000000000000000000000000000000000000000000000000000000 DUP2 MSTORE PUSH1 0x4 ADD PUSH2 0x151B SWAP1 PUSH2 0x34EF JUMP JUMPDEST PUSH1 0x40 MLOAD DUP1 SWAP2 SUB SWAP1 REVERT JUMPDEST PUSH0 DUP3 PUSH20 0xFFFFFFFFFFFFFFFFFFFFFFFFFFFFFFFFFFFFFFFF AND DUP3 PUSH1 0x40 MLOAD PUSH2 0x1549 SWAP1 PUSH2 0x353A JUMP JUMPDEST PUSH0 PUSH1 0x40 MLOAD DUP1 DUP4 SUB DUP2 DUP6 DUP8 GAS CALL SWAP3 POP POP POP RETURNDATASIZE DUP1 PUSH0 DUP2 EQ PUSH2 0x1583 JUMPI PUSH1 0x40 MLOAD SWAP2 POP PUSH1 0x1F NOT PUSH1 0x3F RETURNDATASIZE ADD AND DUP3 ADD PUSH1 0x40 MSTORE RETURNDATASIZE DUP3 MSTORE RETURNDATASIZE PUSH0 PUSH1 0x20 DUP5 ADD RETURNDATACOPY PUSH2 0x1588 JUMP JUMPDEST PUSH1 0x60 SWAP2 POP JUMPDEST POP POP SWAP1 POP DUP1 PUSH2 0x15CC JUMPI PUSH1 0x40 MLOAD PUSH32 0x8C379A000000000000000000000000000000000000000000000000000000000 DUP2 MSTORE PUSH1 0x4 ADD PUSH2 0x15C3 SWAP1 PUSH2 0x3598 JUMP JUMPDEST PUSH1 0x40 MLOAD DUP1 SWAP2 SUB SWAP1 REVERT JUMPDEST POP POP POP JUMP JUMPDEST PUSH0 PUSH0 DUP5 SWAP1 POP PUSH0 DUP5 GT PUSH2 0x1618 JUMPI PUSH1 0x40 MLOAD PUSH32 0x8C379A000000000000000000000000000000000000000000000000000000000 DUP2 MSTORE PUSH1 0x4 ADD PUSH2 0x160F SWAP1 PUSH2 0x3600 JUMP JUMPDEST PUSH1 0x40 MLOAD DUP1 SWAP2 SUB SWAP1 REVERT JUMPDEST DUP4 DUP2 PUSH20 0xFFFFFFFFFFFFFFFFFFFFFFFFFFFFFFFFFFFFFFFF AND PUSH4 0xDD62ED3E DUP6 ADDRESS PUSH1 0x40 MLOAD DUP4 PUSH4 0xFFFFFFFF AND PUSH1 0xE0 SHL DUP2 MSTORE PUSH1 0x4 ADD PUSH2 0x1654 SWAP3 SWAP2 SWAP1 PUSH2 0x361E JUMP JUMPDEST PUSH1 0x20 PUSH1 0x40 MLOAD DUP1 DUP4 SUB DUP2 DUP7 GAS STATICCALL ISZERO DUP1 ISZERO PUSH2 0x166F JUMPI RETURNDATASIZE PUSH0 PUSH0 RETURNDATACOPY RETURNDATASIZE PUSH0 REVERT JUMPDEST POP POP POP POP PUSH1 0x40 MLOAD RETURNDATASIZE PUSH1 0x1F NOT PUSH1 0x1F DUP3 ADD AND DUP3 ADD DUP1 PUSH1 0x40 MSTORE POP DUP2 ADD SWAP1 PUSH2 0x1693 SWAP2 SWAP1 PUSH2 0x2E34 JUMP JUMPDEST LT ISZERO PUSH2 0x16D4 JUMPI PUSH1 0x40 MLOAD PUSH32 0x8C379A000000000000000000000000000000000000000000000000000000000 DUP2 MSTORE PUSH1 0x4 ADD PUSH2 0x16CB SWAP1 PUSH2 0x36B5 JUMP JUMPDEST PUSH1 0x40 MLOAD DUP1 SWAP2 SUB SWAP1 REVERT JUMPDEST PUSH0 DUP2 PUSH20 0xFFFFFFFFFFFFFFFFFFFFFFFFFFFFFFFFFFFFFFFF AND PUSH4 0x70A08231 ADDRESS PUSH1 0x40 MLOAD DUP3 PUSH4 0xFFFFFFFF AND PUSH1 0xE0 SHL DUP2 MSTORE PUSH1 0x4 ADD PUSH2 0x170E SWAP2 SWAP1 PUSH2 0x2E07 JUMP JUMPDEST PUSH1 0x20 PUSH1 0x40 MLOAD DUP1 DUP4 SUB DUP2 DUP7 GAS STATICCALL ISZERO DUP1 ISZERO PUSH2 0x1729 JUMPI RETURNDATASIZE PUSH0 PUSH0 RETURNDATACOPY RETURNDATASIZE PUSH0 REVERT JUMPDEST POP POP POP POP PUSH1 0x40 MLOAD RETURNDATASIZE PUSH1 0x1F NOT PUSH1 0x1F DUP3 ADD AND DUP3 ADD DUP1 PUSH1 0x40 MSTORE POP DUP2 ADD SWAP1 PUSH2 0x174D SWAP2 SWAP1 PUSH2 0x2E34 JUMP JUMPDEST SWAP1 POP PUSH2 0x177C DUP5 ADDRESS DUP8 DUP6 PUSH20 0xFFFFFFFFFFFFFFFFFFFFFFFFFFFFFFFFFFFFFFFF AND PUSH2 0x1EBC SWAP1 SWAP4 SWAP3 SWAP2 SWAP1 PUSH4 0xFFFFFFFF AND JUMP JUMPDEST PUSH0 DUP3 PUSH20 0xFFFFFFFFFFFFFFFFFFFFFFFFFFFFFFFFFFFFFFFF AND PUSH4 0x70A08231 ADDRESS PUSH1 0x40 MLOAD DUP3 PUSH4 0xFFFFFFFF AND PUSH1 0xE0 SHL DUP2 MSTORE PUSH1 0x4 ADD PUSH2 0x17B6 SWAP2 SWAP1 PUSH2 0x2E07 JUMP JUMPDEST PUSH1 0x20 PUSH1 0x40 MLOAD DUP1 DUP4 SUB DUP2 DUP7 GAS STATICCALL ISZERO DUP1 ISZERO PUSH2 0x17D1 JUMPI RETURNDATASIZE PUSH0 PUSH0 RETURNDATACOPY RETURNDATASIZE PUSH0 REVERT JUMPDEST POP POP POP POP PUSH1 0x40 MLOAD RETURNDATASIZE PUSH1 0x1F NOT PUSH1 0x1F DUP3 ADD AND DUP3 ADD DUP1 PUSH1 0x40 MSTORE POP DUP2 ADD SWAP1 PUSH2 0x17F5 SWAP2 SWAP1 PUSH2 0x2E34 JUMP JUMPDEST SWAP1 POP PUSH0 DUP3 DUP3 PUSH2 0x1804 SWAP2 SWAP1 PUSH2 0x2DAC JUMP JUMPDEST SWAP1 POP PUSH0 DUP2 GT PUSH2 0x1848 JUMPI PUSH1 0x40 MLOAD PUSH32 0x8C379A000000000000000000000000000000000000000000000000000000000 DUP2 MSTORE PUSH1 0x4 ADD PUSH2 0x183F SWAP1 PUSH2 0x371D JUMP JUMPDEST PUSH1 0x40 MLOAD DUP1 SWAP2 SUB SWAP1 REVERT JUMPDEST DUP1 SWAP5 POP POP POP POP POP SWAP4 SWAP3 POP POP POP JUMP JUMPDEST PUSH0 DUP4 SWAP1 POP PUSH0 DUP2 PUSH20 0xFFFFFFFFFFFFFFFFFFFFFFFFFFFFFFFFFFFFFFFF AND PUSH4 0xDD62ED3E ADDRESS DUP7 PUSH1 0x40 MLOAD DUP4 PUSH4 0xFFFFFFFF AND PUSH1 0xE0 SHL DUP2 MSTORE PUSH1 0x4 ADD PUSH2 0x1896 SWAP3 SWAP2 SWAP1 PUSH2 0x361E JUMP JUMPDEST PUSH1 0x20 PUSH1 0x40 MLOAD DUP1 DUP4 SUB DUP2 DUP7 GAS STATICCALL ISZERO DUP1 ISZERO PUSH2 0x18B1 JUMPI RETURNDATASIZE PUSH0 PUSH0 RETURNDATACOPY RETURNDATASIZE PUSH0 REVERT JUMPDEST POP POP POP POP PUSH1 0x40 MLOAD RETURNDATASIZE PUSH1 0x1F NOT PUSH1 0x1F DUP3 ADD AND DUP3 ADD DUP1 PUSH1 0x40 MSTORE POP DUP2 ADD SWAP1 PUSH2 0x18D5 SWAP2 SWAP1 PUSH2 0x2E34 JUMP JUMPDEST SWAP1 POP DUP3 DUP2 LT ISZERO PUSH2 0x1A00 JUMPI PUSH0 DUP2 EQ PUSH2 0x1963 JUMPI DUP2 PUSH20 0xFFFFFFFFFFFFFFFFFFFFFFFFFFFFFFFFFFFFFFFF AND PUSH4 0x95EA7B3 DUP6 PUSH0 PUSH1 0x40 MLOAD DUP4 PUSH4 0xFFFFFFFF AND PUSH1 0xE0 SHL DUP2 MSTORE PUSH1 0x4 ADD PUSH2 0x1921 SWAP3 SWAP2 SWAP1 PUSH2 0x3774 JUMP JUMPDEST PUSH1 0x20 PUSH1 0x40 MLOAD DUP1 DUP4 SUB DUP2 PUSH0 DUP8 GAS CALL ISZERO DUP1 ISZERO PUSH2 0x193D JUMPI RETURNDATASIZE PUSH0 PUSH0 RETURNDATACOPY RETURNDATASIZE PUSH0 REVERT JUMPDEST POP POP POP POP PUSH1 0x40 MLOAD RETURNDATASIZE PUSH1 0x1F NOT PUSH1 0x1F DUP3 ADD AND DUP3 ADD DUP1 PUSH1 0x40 MSTORE POP DUP2 ADD SWAP1 PUSH2 0x1961 SWAP2 SWAP1 PUSH2 0x37D0 JUMP JUMPDEST POP JUMPDEST DUP2 PUSH20 0xFFFFFFFFFFFFFFFFFFFFFFFFFFFFFFFFFFFFFFFF AND PUSH4 0x95EA7B3 DUP6 PUSH32 0xFFFFFFFFFFFFFFFFFFFFFFFFFFFFFFFFFFFFFFFFFFFFFFFFFFFFFFFFFFFFFFFF PUSH1 0x40 MLOAD DUP4 PUSH4 0xFFFFFFFF AND PUSH1 0xE0 SHL DUP2 MSTORE PUSH1 0x4 ADD PUSH2 0x19BE SWAP3 SWAP2 SWAP1 PUSH2 0x37FB JUMP JUMPDEST PUSH1 0x20 PUSH1 0x40 MLOAD DUP1 DUP4 SUB DUP2 PUSH0 DUP8 GAS CALL ISZERO DUP1 ISZERO PUSH2 0x19DA JUMPI RETURNDATASIZE PUSH0 PUSH0 RETURNDATACOPY RETURNDATASIZE PUSH0 REVERT JUMPDEST POP POP POP POP PUSH1 0x40 MLOAD RETURNDATASIZE PUSH1 0x1F NOT PUSH1 0x1F DUP3 ADD AND DUP3 ADD DUP1 PUSH1 0x40 MSTORE POP DUP2 ADD SWAP1 PUSH2 0x19FE SWAP2 SWAP1 PUSH2 0x37D0 JUMP JUMPDEST POP JUMPDEST POP POP POP POP POP JUMP JUMPDEST PUSH1 0x60 PUSH0 PUSH2 0x1A12 PUSH2 0xF2 JUMP JUMPDEST SWAP1 POP DUP1 PUSH20 0xFFFFFFFFFFFFFFFFFFFFFFFFFFFFFFFFFFFFFFFF AND DUP5 PUSH20 0xFFFFFFFFFFFFFFFFFFFFFFFFFFFFFFFFFFFFFFFF AND EQ DUP1 PUSH2 0x1A79 JUMPI POP DUP1 PUSH20 0xFFFFFFFFFFFFFFFFFFFFFFFFFFFFFFFFFFFFFFFF AND DUP4 PUSH20 0xFFFFFFFFFFFFFFFFFFFFFFFFFFFFFFFFFFFFFFFF AND EQ JUMPDEST ISZERO PUSH2 0x1B6C JUMPI PUSH1 0x2 PUSH8 0xFFFFFFFFFFFFFFFF DUP2 GT ISZERO PUSH2 0x1A99 JUMPI PUSH2 0x1A98 PUSH2 0x3822 JUMP JUMPDEST JUMPDEST PUSH1 0x40 MLOAD SWAP1 DUP1 DUP3 MSTORE DUP1 PUSH1 0x20 MUL PUSH1 0x20 ADD DUP3 ADD PUSH1 0x40 MSTORE DUP1 ISZERO PUSH2 0x1AC7 JUMPI DUP2 PUSH1 0x20 ADD PUSH1 0x20 DUP3 MUL DUP1 CALLDATASIZE DUP4 CALLDATACOPY DUP1 DUP3 ADD SWAP2 POP POP SWAP1 POP JUMPDEST POP SWAP2 POP DUP4 DUP3 PUSH0 DUP2 MLOAD DUP2 LT PUSH2 0x1ADE JUMPI PUSH2 0x1ADD PUSH2 0x2A0D JUMP JUMPDEST JUMPDEST PUSH1 0x20 MUL PUSH1 0x20 ADD ADD SWAP1 PUSH20 0xFFFFFFFFFFFFFFFFFFFFFFFFFFFFFFFFFFFFFFFF AND SWAP1 DUP2 PUSH20 0xFFFFFFFFFFFFFFFFFFFFFFFFFFFFFFFFFFFFFFFF AND DUP2 MSTORE POP POP DUP3 DUP3 PUSH1 0x1 DUP2 MLOAD DUP2 LT PUSH2 0x1B2D JUMPI PUSH2 0x1B2C PUSH2 0x2A0D JUMP JUMPDEST JUMPDEST PUSH1 0x20 MUL PUSH1 0x20 ADD ADD SWAP1 PUSH20 0xFFFFFFFFFFFFFFFFFFFFFFFFFFFFFFFFFFFFFFFF AND SWAP1 DUP2 PUSH20 0xFFFFFFFFFFFFFFFFFFFFFFFFFFFFFFFFFFFFFFFF AND DUP2 MSTORE POP POP PUSH2 0x1CA5 JUMP JUMPDEST PUSH1 0x3 PUSH8 0xFFFFFFFFFFFFFFFF DUP2 GT ISZERO PUSH2 0x1B87 JUMPI PUSH2 0x1B86 PUSH2 0x3822 JUMP JUMPDEST JUMPDEST PUSH1 0x40 MLOAD SWAP1 DUP1 DUP3 MSTORE DUP1 PUSH1 0x20 MUL PUSH1 0x20 ADD DUP3 ADD PUSH1 0x40 MSTORE DUP1 ISZERO PUSH2 0x1BB5 JUMPI DUP2 PUSH1 0x20 ADD PUSH1 0x20 DUP3 MUL DUP1 CALLDATASIZE DUP4 CALLDATACOPY DUP1 DUP3 ADD SWAP2 POP POP SWAP1 POP JUMPDEST POP SWAP2 POP DUP4 DUP3 PUSH0 DUP2 MLOAD DUP2 LT PUSH2 0x1BCC JUMPI PUSH2 0x1BCB PUSH2 0x2A0D JUMP JUMPDEST JUMPDEST PUSH1 0x20 MUL PUSH1 0x20 ADD ADD SWAP1 PUSH20 0xFFFFFFFFFFFFFFFFFFFFFFFFFFFFFFFFFFFFFFFF AND SWAP1 DUP2 PUSH20 0xFFFFFFFFFFFFFFFFFFFFFFFFFFFFFFFFFFFFFFFF AND DUP2 MSTORE POP POP DUP1 DUP3 PUSH1 0x1 DUP2 MLOAD DUP2 LT PUSH2 0x1C1B JUMPI PUSH2 0x1C1A PUSH2 0x2A0D JUMP JUMPDEST JUMPDEST PUSH1 0x20 MUL PUSH1 0x20 ADD ADD SWAP1 PUSH20 0xFFFFFFFFFFFFFFFFFFFFFFFFFFFFFFFFFFFFFFFF AND SWAP1 DUP2 PUSH20 0xFFFFFFFFFFFFFFFFFFFFFFFFFFFFFFFFFFFFFFFF AND DUP2 MSTORE POP POP DUP3 DUP3 PUSH1 0x2 DUP2 MLOAD DUP2 LT PUSH2 0x1C6A JUMPI PUSH2 0x1C69 PUSH2 0x2A0D JUMP JUMPDEST JUMPDEST PUSH1 0x20 MUL PUSH1 0x20 ADD ADD SWAP1 PUSH20 0xFFFFFFFFFFFFFFFFFFFFFFFFFFFFFFFFFFFFFFFF AND SWAP1 DUP2 PUSH20 0xFFFFFFFFFFFFFFFFFFFFFFFFFFFFFFFFFFFFFFFF AND DUP2 MSTORE POP POP JUMPDEST POP SWAP3 SWAP2 POP POP JUMP JUMPDEST PUSH0 PUSH32 0x0 PUSH20 0xFFFFFFFFFFFFFFFFFFFFFFFFFFFFFFFFFFFFFFFF AND PUSH4 0xD06CA61F DUP5 DUP5 PUSH1 0x40 MLOAD DUP4 PUSH4 0xFFFFFFFF AND PUSH1 0xE0 SHL DUP2 MSTORE PUSH1 0x4 ADD PUSH2 0x1D08 SWAP3 SWAP2 SWAP1 PUSH2 0x384F JUMP JUMPDEST PUSH0 PUSH1 0x40 MLOAD DUP1 DUP4 SUB DUP2 DUP7 GAS STATICCALL SWAP3 POP POP POP DUP1 ISZERO PUSH2 0x1D45 JUMPI POP PUSH1 0x40 MLOAD RETURNDATASIZE PUSH0 DUP3 RETURNDATACOPY RETURNDATASIZE PUSH1 0x1F NOT PUSH1 0x1F DUP3 ADD AND DUP3 ADD DUP1 PUSH1 0x40 MSTORE POP DUP2 ADD SWAP1 PUSH2 0x1D42 SWAP2 SWAP1 PUSH2 0x3998 JUMP JUMPDEST PUSH1 0x1 JUMPDEST PUSH2 0x1D84 JUMPI PUSH1 0x40 MLOAD PUSH32 0x8C379A000000000000000000000000000000000000000000000000000000000 DUP2 MSTORE PUSH1 0x4 ADD PUSH2 0x1D7B SWAP1 PUSH2 0x3A4F JUMP JUMPDEST PUSH1 0x40 MLOAD DUP1 SWAP2 SUB SWAP1 REVERT JUMPDEST DUP1 PUSH1 0x1 DUP3 MLOAD PUSH2 0x1D93 SWAP2 SWAP1 PUSH2 0x2DAC JUMP JUMPDEST DUP2 MLOAD DUP2 LT PUSH2 0x1DA4 JUMPI PUSH2 0x1DA3 PUSH2 0x2A0D JUMP JUMPDEST JUMPDEST PUSH1 0x20 MUL PUSH1 0x20 ADD ADD MLOAD SWAP2 POP POP SWAP3 SWAP2 POP POP JUMP JUMPDEST PUSH0 PUSH2 0x2710 DUP3 GT ISZERO PUSH2 0x1DFB JUMPI PUSH1 0x40 MLOAD PUSH32 0x8C379A000000000000000000000000000000000000000000000000000000000 DUP2 MSTORE PUSH1 0x4 ADD PUSH2 0x1DF2 SWAP1 PUSH2 0x3AB7 JUMP JUMPDEST PUSH1 0x40 MLOAD DUP1 SWAP2 SUB SWAP1 REVERT JUMPDEST PUSH2 0x2710 DUP3 PUSH2 0x2710 PUSH2 0x1E0C SWAP2 SWAP1 PUSH2 0x2DAC JUMP JUMPDEST DUP5 PUSH2 0x1E17 SWAP2 SWAP1 PUSH2 0x3267 JUMP JUMPDEST PUSH2 0x1E21 SWAP2 SWAP1 PUSH2 0x32D5 JUMP JUMPDEST SWAP1 POP SWAP3 SWAP2 POP POP JUMP JUMPDEST PUSH0 DUP2 TIMESTAMP PUSH2 0x1E36 SWAP2 SWAP1 PUSH2 0x2A92 JUMP JUMPDEST SWAP1 POP SWAP2 SWAP1 POP JUMP JUMPDEST PUSH2 0x1EB7 DUP4 DUP5 PUSH20 0xFFFFFFFFFFFFFFFFFFFFFFFFFFFFFFFFFFFFFFFF AND PUSH4 0xA9059CBB DUP6 DUP6 PUSH1 0x40 MLOAD PUSH1 0x24 ADD PUSH2 0x1E70 SWAP3 SWAP2 SWAP1 PUSH2 0x37FB JUMP JUMPDEST PUSH1 0x40 MLOAD PUSH1 0x20 DUP2 DUP4 SUB SUB DUP2 MSTORE SWAP1 PUSH1 0x40 MSTORE SWAP2 POP PUSH1 0xE0 SHL PUSH1 0x20 DUP3 ADD DUP1 MLOAD PUSH28 0xFFFFFFFFFFFFFFFFFFFFFFFFFFFFFFFFFFFFFFFFFFFFFFFFFFFFFFFF DUP4 DUP2 DUP4 AND OR DUP4 MSTORE POP POP POP POP PUSH2 0x1F3E JUMP JUMPDEST POP POP POP JUMP JUMPDEST PUSH2 0x1F38 DUP5 DUP6 PUSH20 0xFFFFFFFFFFFFFFFFFFFFFFFFFFFFFFFFFFFFFFFF AND PUSH4 0x23B872DD DUP7 DUP7 DUP7 PUSH1 0x40 MLOAD PUSH1 0x24 ADD PUSH2 0x1EF1 SWAP4 SWAP3 SWAP2 SWAP1 PUSH2 0x3AD5 JUMP JUMPDEST PUSH1 0x40 MLOAD PUSH1 0x20 DUP2 DUP4 SUB SUB DUP2 MSTORE SWAP1 PUSH1 0x40 MSTORE SWAP2 POP PUSH1 0xE0 SHL PUSH1 0x20 DUP3 ADD DUP1 MLOAD PUSH28 0xFFFFFFFFFFFFFFFFFFFFFFFFFFFFFFFFFFFFFFFFFFFFFFFFFFFFFFFF DUP4 DUP2 DUP4 AND OR DUP4 MSTORE POP POP POP POP PUSH2 0x1F3E JUMP JUMPDEST POP POP POP POP JUMP JUMPDEST PUSH0 PUSH0 PUSH1 0x20 PUSH0 DUP5 MLOAD PUSH1 0x20 DUP7 ADD PUSH0 DUP9 GAS CALL DUP1 PUSH2 0x1F5D JUMPI PUSH1 0x40 MLOAD RETURNDATASIZE PUSH0 DUP3 RETURNDATACOPY RETURNDATASIZE DUP2 REVERT JUMPDEST RETURNDATASIZE SWAP3 POP PUSH0 MLOAD SWAP2 POP POP PUSH0 DUP3 EQ PUSH2 0x1F76 JUMPI PUSH1 0x1 DUP2 EQ ISZERO PUSH2 0x1F91 JUMP JUMPDEST PUSH0 DUP5 PUSH20 0xFFFFFFFFFFFFFFFFFFFFFFFFFFFFFFFFFFFFFFFF AND EXTCODESIZE EQ JUMPDEST ISZERO PUSH2 0x1FD3 JUMPI DUP4 PUSH1 0x40 MLOAD PUSH32 0x5274AFE700000000000000000000000000000000000000000000000000000000 DUP2 MSTORE PUSH1 0x4 ADD PUSH2 0x1FCA SWAP2 SWAP1 PUSH2 0x2E07 JUMP JUMPDEST PUSH1 0x40 MLOAD DUP1 SWAP2 SUB SWAP1 REVERT JUMPDEST POP POP POP POP JUMP JUMPDEST PUSH0 DUP3 DUP3 MSTORE PUSH1 0x20 DUP3 ADD SWAP1 POP SWAP3 SWAP2 POP POP JUMP JUMPDEST PUSH32 0x44697265637420455448206E6F7420616C6C6F77656400000000000000000000 PUSH0 DUP3 ADD MSTORE POP JUMP JUMPDEST PUSH0 PUSH2 0x201D PUSH1 0x16 DUP4 PUSH2 0x1FD9 JUMP JUMPDEST SWAP2 POP PUSH2 0x2028 DUP3 PUSH2 0x1FE9 JUMP JUMPDEST PUSH1 0x20 DUP3 ADD SWAP1 POP SWAP2 SWAP1 POP JUMP JUMPDEST PUSH0 PUSH1 0x20 DUP3 ADD SWAP1 POP DUP2 DUP2 SUB PUSH0 DUP4 ADD MSTORE PUSH2 0x204A DUP2 PUSH2 0x2011 JUMP JUMPDEST SWAP1 POP SWAP2 SWAP1 POP JUMP JUMPDEST PUSH0 PUSH1 0x40 MLOAD SWAP1 POP SWAP1 JUMP JUMPDEST PUSH0 PUSH0 REVERT JUMPDEST PUSH0 PUSH0 REVERT JUMPDEST PUSH0 PUSH0 REVERT JUMPDEST PUSH0 PUSH0 REVERT JUMPDEST PUSH0 PUSH0 REVERT JUMPDEST PUSH0 PUSH0 DUP4 PUSH1 0x1F DUP5 ADD SLT PUSH2 0x2083 JUMPI PUSH2 0x2082 PUSH2 0x2062 JUMP JUMPDEST JUMPDEST DUP3 CALLDATALOAD SWAP1 POP PUSH8 0xFFFFFFFFFFFFFFFF DUP2 GT ISZERO PUSH2 0x20A0 JUMPI PUSH2 0x209F PUSH2 0x2066 JUMP JUMPDEST JUMPDEST PUSH1 0x20 DUP4 ADD SWAP2 POP DUP4 PUSH1 0x40 DUP3 MUL DUP4 ADD GT ISZERO PUSH2 0x20BC JUMPI PUSH2 0x20BB PUSH2 0x206A JUMP JUMPDEST JUMPDEST SWAP3 POP SWAP3 SWAP1 POP JUMP JUMPDEST PUSH0 PUSH0 DUP4 PUSH1 0x1F DUP5 ADD SLT PUSH2 0x20D8 JUMPI PUSH2 0x20D7 PUSH2 0x2062 JUMP JUMPDEST JUMPDEST DUP3 CALLDATALOAD SWAP1 POP PUSH8 0xFFFFFFFFFFFFFFFF DUP2 GT ISZERO PUSH2 0x20F5 JUMPI PUSH2 0x20F4 PUSH2 0x2066 JUMP JUMPDEST JUMPDEST PUSH1 0x20 DUP4 ADD SWAP2 POP DUP4 PUSH1 0x40 DUP3 MUL DUP4 ADD GT ISZERO PUSH2 0x2111 JUMPI PUSH2 0x2110 PUSH2 0x206A JUMP JUMPDEST JUMPDEST SWAP3 POP SWAP3 SWAP1 POP JUMP JUMPDEST PUSH0 PUSH20 0xFFFFFFFFFFFFFFFFFFFFFFFFFFFFFFFFFFFFFFFF DUP3 AND SWAP1 POP SWAP2 SWAP1 POP JUMP JUMPDEST PUSH0 PUSH2 0x2141 DUP3 PUSH2 0x2118 JUMP JUMPDEST SWAP1 POP SWAP2 SWAP1 POP JUMP JUMPDEST PUSH2 0x2151 DUP2 PUSH2 0x2137 JUMP JUMPDEST DUP2 EQ PUSH2 0x215B JUMPI PUSH0 PUSH0 REVERT JUMPDEST POP JUMP JUMPDEST PUSH0 DUP2 CALLDATALOAD SWAP1 POP PUSH2 0x216C DUP2 PUSH2 0x2148 JUMP JUMPDEST SWAP3 SWAP2 POP POP JUMP JUMPDEST PUSH0 DUP2 SWAP1 POP SWAP2 SWAP1 POP JUMP JUMPDEST PUSH2 0x2184 DUP2 PUSH2 0x2172 JUMP JUMPDEST DUP2 EQ PUSH2 0x218E JUMPI PUSH0 PUSH0 REVERT JUMPDEST POP JUMP JUMPDEST PUSH0 DUP2 CALLDATALOAD SWAP1 POP PUSH2 0x219F DUP2 PUSH2 0x217B JUMP JUMPDEST SWAP3 SWAP2 POP POP JUMP JUMPDEST PUSH0 PUSH0 DUP4 PUSH1 0x1F DUP5 ADD SLT PUSH2 0x21BA JUMPI PUSH2 0x21B9 PUSH2 0x2062 JUMP JUMPDEST JUMPDEST DUP3 CALLDATALOAD SWAP1 POP PUSH8 0xFFFFFFFFFFFFFFFF DUP2 GT ISZERO PUSH2 0x21D7 JUMPI PUSH2 0x21D6 PUSH2 0x2066 JUMP JUMPDEST JUMPDEST PUSH1 0x20 DUP4 ADD SWAP2 POP DUP4 PUSH1 0x40 DUP3 MUL DUP4 ADD GT ISZERO PUSH2 0x21F3 JUMPI PUSH2 0x21F2 PUSH2 0x206A JUMP JUMPDEST JUMPDEST SWAP3 POP SWAP3 SWAP1 POP JUMP JUMPDEST PUSH0 PUSH0 PUSH0 PUSH0 PUSH0 PUSH0 PUSH0 PUSH0 PUSH0 PUSH1 0xC0 DUP11 DUP13 SUB SLT ISZERO PUSH2 0x2217 JUMPI PUSH2 0x2216 PUSH2 0x205A JUMP JUMPDEST JUMPDEST PUSH0 DUP11 ADD CALLDATALOAD PUSH8 0xFFFFFFFFFFFFFFFF DUP2 GT ISZERO PUSH2 0x2234 JUMPI PUSH2 0x2233 PUSH2 0x205E JUMP JUMPDEST JUMPDEST PUSH2 0x2240 DUP13 DUP3 DUP14 ADD PUSH2 0x206E JUMP JUMPDEST SWAP10 POP SWAP10 POP POP PUSH1 0x20 DUP11 ADD CALLDATALOAD PUSH8 0xFFFFFFFFFFFFFFFF DUP2 GT ISZERO PUSH2 0x2263 JUMPI PUSH2 0x2262 PUSH2 0x205E JUMP JUMPDEST JUMPDEST PUSH2 0x226F DUP13 DUP3 DUP14 ADD PUSH2 0x20C3 JUMP JUMPDEST SWAP8 POP SWAP8 POP POP PUSH1 0x40 PUSH2 0x2282 DUP13 DUP3 DUP14 ADD PUSH2 0x215E JUMP JUMPDEST SWAP6 POP POP PUSH1 0x60 PUSH2 0x2293 DUP13 DUP3 DUP14 ADD PUSH2 0x2191 JUMP JUMPDEST SWAP5 POP POP PUSH1 0x80 PUSH2 0x22A4 DUP13 DUP3 DUP14 ADD PUSH2 0x2191 JUMP JUMPDEST SWAP4 POP POP PUSH1 0xA0 DUP11 ADD CALLDATALOAD PUSH8 0xFFFFFFFFFFFFFFFF DUP2 GT ISZERO PUSH2 0x22C5 JUMPI PUSH2 0x22C4 PUSH2 0x205E JUMP JUMPDEST JUMPDEST PUSH2 0x22D1 DUP13 DUP3 DUP14 ADD PUSH2 0x21A5 JUMP JUMPDEST SWAP3 POP SWAP3 POP POP SWAP3 SWAP6 SWAP9 POP SWAP3 SWAP6 SWAP9 POP SWAP3 SWAP6 SWAP9 JUMP JUMPDEST PUSH0 DUP2 SWAP1 POP SWAP2 SWAP1 POP JUMP JUMPDEST PUSH0 PUSH2 0x2306 PUSH2 0x2301 PUSH2 0x22FC DUP5 PUSH2 0x2118 JUMP JUMPDEST PUSH2 0x22E3 JUMP JUMPDEST PUSH2 0x2118 JUMP JUMPDEST SWAP1 POP SWAP2 SWAP1 POP JUMP JUMPDEST PUSH0 PUSH2 0x2317 DUP3 PUSH2 0x22EC JUMP JUMPDEST SWAP1 POP SWAP2 SWAP1 POP JUMP JUMPDEST PUSH0 PUSH2 0x2328 DUP3 PUSH2 0x230D JUMP JUMPDEST SWAP1 POP SWAP2 SWAP1 POP JUMP JUMPDEST PUSH2 0x2338 DUP2 PUSH2 0x231E JUMP JUMPDEST DUP3 MSTORE POP POP JUMP JUMPDEST PUSH0 PUSH1 0x20 DUP3 ADD SWAP1 POP PUSH2 0x2351 PUSH0 DUP4 ADD DUP5 PUSH2 0x232F JUMP JUMPDEST SWAP3 SWAP2 POP POP JUMP JUMPDEST PUSH0 DUP2 MLOAD SWAP1 POP PUSH2 0x2365 DUP2 PUSH2 0x2148 JUMP JUMPDEST SWAP3 SWAP2 POP POP JUMP JUMPDEST PUSH0 PUSH1 0x20 DUP3 DUP5 SUB SLT ISZERO PUSH2 0x2380 JUMPI PUSH2 0x237F PUSH2 0x205A JUMP JUMPDEST JUMPDEST PUSH0 PUSH2 0x238D DUP5 DUP3 DUP6 ADD PUSH2 0x2357 JUMP JUMPDEST SWAP2 POP POP SWAP3 SWAP2 POP POP JUMP JUMPDEST PUSH32 0x4D756C74695377617020526F757465723A204E6F20696E707574730000000000 PUSH0 DUP3 ADD MSTORE POP JUMP JUMPDEST PUSH0 PUSH2 0x23CA PUSH1 0x1B DUP4 PUSH2 0x1FD9 JUMP JUMPDEST SWAP2 POP PUSH2 0x23D5 DUP3 PUSH2 0x2396 JUMP JUMPDEST PUSH1 0x20 DUP3 ADD SWAP1 POP SWAP2 SWAP1 POP JUMP JUMPDEST PUSH0 PUSH1 0x20 DUP3 ADD SWAP1 POP DUP2 DUP2 SUB PUSH0 DUP4 ADD MSTORE PUSH2 0x23F7 DUP2 PUSH2 0x23BE JUMP JUMPDEST SWAP1 POP SWAP2 SWAP1 POP JUMP JUMPDEST PUSH32 0x4D756C74695377617020526F757465723A204E6F206F75747075747300000000 PUSH0 DUP3 ADD MSTORE POP JUMP JUMPDEST PUSH0 PUSH2 0x2432 PUSH1 0x1C DUP4 PUSH2 0x1FD9 JUMP JUMPDEST SWAP2 POP PUSH2 0x243D DUP3 PUSH2 0x23FE JUMP JUMPDEST PUSH1 0x20 DUP3 ADD SWAP1 POP SWAP2 SWAP1 POP JUMP JUMPDEST PUSH0 PUSH1 0x20 DUP3 ADD SWAP1 POP DUP2 DUP2 SUB PUSH0 DUP4 ADD MSTORE PUSH2 0x245F DUP2 PUSH2 0x2426 JUMP JUMPDEST SWAP1 POP SWAP2 SWAP1 POP JUMP JUMPDEST PUSH32 0x4D756C74695377617020526F757465723A2052656365697665722063616E6E6F PUSH0 DUP3 ADD MSTORE PUSH32 0x74206265207A65726F2061646472657373000000000000000000000000000000 PUSH1 0x20 DUP3 ADD MSTORE POP JUMP JUMPDEST PUSH0 PUSH2 0x24C0 PUSH1 0x31 DUP4 PUSH2 0x1FD9 JUMP JUMPDEST SWAP2 POP PUSH2 0x24CB DUP3 PUSH2 0x2466 JUMP JUMPDEST PUSH1 0x40 DUP3 ADD SWAP1 POP SWAP2 SWAP1 POP JUMP JUMPDEST PUSH0 PUSH1 0x20 DUP3 ADD SWAP1 POP DUP2 DUP2 SUB PUSH0 DUP4 ADD MSTORE PUSH2 0x24ED DUP2 PUSH2 0x24B4 JUMP JUMPDEST SWAP1 POP SWAP2 SWAP1 POP JUMP JUMPDEST PUSH32 0x4D756C74695377617020526F757465723A2062616420736C6970706167650000 PUSH0 DUP3 ADD MSTORE POP JUMP JUMPDEST PUSH0 PUSH2 0x2528 PUSH1 0x1E DUP4 PUSH2 0x1FD9 JUMP JUMPDEST SWAP2 POP PUSH2 0x2533 DUP3 PUSH2 0x24F4 JUMP JUMPDEST PUSH1 0x20 DUP3 ADD SWAP1 POP SWAP2 SWAP1 POP JUMP JUMPDEST PUSH0 PUSH1 0x20 DUP3 ADD SWAP1 POP DUP2 DUP2 SUB PUSH0 DUP4 ADD MSTORE PUSH2 0x2555 DUP2 PUSH2 0x251C JUMP JUMPDEST SWAP1 POP SWAP2 SWAP1 POP JUMP JUMPDEST PUSH32 0x4D756C74695377617020526F757465723A20646561646C696E65207061737365 PUSH0 DUP3 ADD MSTORE PUSH32 0x6400000000000000000000000000000000000000000000000000000000000000 PUSH1 0x20 DUP3 ADD MSTORE POP JUMP JUMPDEST PUSH0 PUSH2 0x25B6 PUSH1 0x21 DUP4 PUSH2 0x1FD9 JUMP JUMPDEST SWAP2 POP PUSH2 0x25C1 DUP3 PUSH2 0x255C JUMP JUMPDEST PUSH1 0x40 DUP3 ADD SWAP1 POP SWAP2 SWAP1 POP JUMP JUMPDEST PUSH0 PUSH1 0x20 DUP3 ADD SWAP1 POP DUP2 DUP2 SUB PUSH0 DUP4 ADD MSTORE PUSH2 0x25E3 DUP2 PUSH2 0x25AA JUMP JUMPDEST SWAP1 POP SWAP2 SWAP1 POP JUMP JUMPDEST PUSH0 DUP3 DUP3 MSTORE PUSH1 0x20 DUP3 ADD SWAP1 POP SWAP3 SWAP2 POP POP JUMP JUMPDEST PUSH0 DUP2 SWAP1 POP SWAP2 SWAP1 POP JUMP JUMPDEST PUSH0 PUSH2 0x2611 PUSH1 0x20 DUP5 ADD DUP5 PUSH2 0x215E JUMP JUMPDEST SWAP1 POP SWAP3 SWAP2 POP POP JUMP JUMPDEST PUSH2 0x2622 DUP2 PUSH2 0x2137 JUMP JUMPDEST DUP3 MSTORE POP POP JUMP JUMPDEST PUSH0 PUSH2 0x2636 PUSH1 0x20 DUP5 ADD DUP5 PUSH2 0x2191 JUMP JUMPDEST SWAP1 POP SWAP3 SWAP2 POP POP JUMP JUMPDEST PUSH2 0x2647 DUP2 PUSH2 0x2172 JUMP JUMPDEST DUP3 MSTORE POP POP JUMP JUMPDEST PUSH1 0x40 DUP3 ADD PUSH2 0x265D PUSH0 DUP4 ADD DUP4 PUSH2 0x2603 JUMP JUMPDEST PUSH2 0x2669 PUSH0 DUP6 ADD DUP3 PUSH2 0x2619 JUMP JUMPDEST POP PUSH2 0x2677 PUSH1 0x20 DUP4 ADD DUP4 PUSH2 0x2628 JUMP JUMPDEST PUSH2 0x2684 PUSH1 0x20 DUP6 ADD DUP3 PUSH2 0x263E JUMP JUMPDEST POP POP POP POP JUMP JUMPDEST PUSH0 PUSH2 0x2695 DUP4 DUP4 PUSH2 0x264D JUMP JUMPDEST PUSH1 0x40 DUP4 ADD SWAP1 POP SWAP3 SWAP2 POP POP JUMP JUMPDEST PUSH0 DUP3 SWAP1 POP SWAP3 SWAP2 POP POP JUMP JUMPDEST PUSH0 PUSH1 0x40 DUP3 ADD SWAP1 POP SWAP2 SWAP1 POP JUMP JUMPDEST PUSH0 PUSH2 0x26C2 DUP4 DUP6 PUSH2 0x25EA JUMP JUMPDEST SWAP4 POP PUSH2 0x26CD DUP3 PUSH2 0x25FA JUMP JUMPDEST DUP1 PUSH0 JUMPDEST DUP6 DUP2 LT ISZERO PUSH2 0x2705 JUMPI PUSH2 0x26E2 DUP3 DUP5 PUSH2 0x26A1 JUMP JUMPDEST PUSH2 0x26EC DUP9 DUP3 PUSH2 0x268A JUMP JUMPDEST SWAP8 POP PUSH2 0x26F7 DUP4 PUSH2 0x26AB JUMP JUMPDEST SWAP3 POP POP PUSH1 0x1 DUP2 ADD SWAP1 POP PUSH2 0x26D0 JUMP JUMPDEST POP DUP6 SWAP3 POP POP POP SWAP4 SWAP3 POP POP POP JUMP JUMPDEST PUSH0 DUP3 DUP3 MSTORE PUSH1 0x20 DUP3 ADD SWAP1 POP SWAP3 SWAP2 POP POP JUMP JUMPDEST PUSH0 DUP2 SWAP1 POP SWAP2 SWAP1 POP JUMP JUMPDEST PUSH0 PUSH2 0xFFFF DUP3 AND SWAP1 POP SWAP2 SWAP1 POP JUMP JUMPDEST PUSH2 0x2741 DUP2 PUSH2 0x272B JUMP JUMPDEST DUP2 EQ PUSH2 0x274B JUMPI PUSH0 PUSH0 REVERT JUMPDEST POP JUMP JUMPDEST PUSH0 DUP2 CALLDATALOAD SWAP1 POP PUSH2 0x275C DUP2 PUSH2 0x2738 JUMP JUMPDEST SWAP3 SWAP2 POP POP JUMP JUMPDEST PUSH0 PUSH2 0x2770 PUSH1 0x20 DUP5 ADD DUP5 PUSH2 0x274E JUMP JUMPDEST SWAP1 POP SWAP3 SWAP2 POP POP JUMP JUMPDEST PUSH2 0x2781 DUP2 PUSH2 0x272B JUMP JUMPDEST DUP3 MSTORE POP POP JUMP JUMPDEST PUSH1 0x40 DUP3 ADD PUSH2 0x2797 PUSH0 DUP4 ADD DUP4 PUSH2 0x2603 JUMP JUMPDEST PUSH2 0x27A3 PUSH0 DUP6 ADD DUP3 PUSH2 0x2619 JUMP JUMPDEST POP PUSH2 0x27B1 PUSH1 0x20 DUP4 ADD DUP4 PUSH2 0x2762 JUMP JUMPDEST PUSH2 0x27BE PUSH1 0x20 DUP6 ADD DUP3 PUSH2 0x2778 JUMP JUMPDEST POP POP POP POP JUMP JUMPDEST PUSH0 PUSH2 0x27CF DUP4 DUP4 PUSH2 0x2787 JUMP JUMPDEST PUSH1 0x40 DUP4 ADD SWAP1 POP SWAP3 SWAP2 POP POP JUMP JUMPDEST PUSH0 DUP3 SWAP1 POP SWAP3 SWAP2 POP POP JUMP JUMPDEST PUSH0 PUSH1 0x40 DUP3 ADD SWAP1 POP SWAP2 SWAP1 POP JUMP JUMPDEST PUSH0 PUSH2 0x27FC DUP4 DUP6 PUSH2 0x2712 JUMP JUMPDEST SWAP4 POP PUSH2 0x2807 DUP3 PUSH2 0x2722 JUMP JUMPDEST DUP1 PUSH0 JUMPDEST DUP6 DUP2 LT ISZERO PUSH2 0x283F JUMPI PUSH2 0x281C DUP3 DUP5 PUSH2 0x27DB JUMP JUMPDEST PUSH2 0x2826 DUP9 DUP3 PUSH2 0x27C4 JUMP JUMPDEST SWAP8 POP PUSH2 0x2831 DUP4 PUSH2 0x27E5 JUMP JUMPDEST SWAP3 POP POP PUSH1 0x1 DUP2 ADD SWAP1 POP PUSH2 0x280A JUMP JUMPDEST POP DUP6 SWAP3 POP POP POP SWAP4 SWAP3 POP POP POP JUMP JUMPDEST PUSH2 0x2855 DUP2 PUSH2 0x2172 JUMP JUMPDEST DUP3 MSTORE POP POP JUMP JUMPDEST PUSH0 DUP3 DUP3 MSTORE PUSH1 0x20 DUP3 ADD SWAP1 POP SWAP3 SWAP2 POP POP JUMP JUMPDEST PUSH0 DUP2 SWAP1 POP SWAP2 SWAP1 POP JUMP JUMPDEST PUSH1 0x40 DUP3 ADD PUSH2 0x2884 PUSH0 DUP4 ADD DUP4 PUSH2 0x2603 JUMP JUMPDEST PUSH2 0x2890 PUSH0 DUP6 ADD DUP3 PUSH2 0x2619 JUMP JUMPDEST POP PUSH2 0x289E PUSH1 0x20 DUP4 ADD DUP4 PUSH2 0x2762 JUMP JUMPDEST PUSH2 0x28AB PUSH1 0x20 DUP6 ADD DUP3 PUSH2 0x2778 JUMP JUMPDEST POP POP POP POP JUMP JUMPDEST PUSH0 PUSH2 0x28BC DUP4 DUP4 PUSH2 0x2874 JUMP JUMPDEST PUSH1 0x40 DUP4 ADD SWAP1 POP SWAP3 SWAP2 POP POP JUMP JUMPDEST PUSH0 DUP3 SWAP1 POP SWAP3 SWAP2 POP POP JUMP JUMPDEST PUSH0 PUSH1 0x40 DUP3 ADD SWAP1 POP SWAP2 SWAP1 POP JUMP JUMPDEST PUSH0 PUSH2 0x28E9 DUP4 DUP6 PUSH2 0x285B JUMP JUMPDEST SWAP4 POP PUSH2 0x28F4 DUP3 PUSH2 0x286B JUMP JUMPDEST DUP1 PUSH0 JUMPDEST DUP6 DUP2 LT ISZERO PUSH2 0x292C JUMPI PUSH2 0x2909 DUP3 DUP5 PUSH2 0x28C8 JUMP JUMPDEST PUSH2 0x2913 DUP9 DUP3 PUSH2 0x28B1 JUMP JUMPDEST SWAP8 POP PUSH2 0x291E DUP4 PUSH2 0x28D2 JUMP JUMPDEST SWAP3 POP POP PUSH1 0x1 DUP2 ADD SWAP1 POP PUSH2 0x28F7 JUMP JUMPDEST POP DUP6 SWAP3 POP POP POP SWAP4 SWAP3 POP POP POP JUMP JUMPDEST PUSH0 PUSH1 0xA0 DUP3 ADD SWAP1 POP DUP2 DUP2 SUB PUSH0 DUP4 ADD MSTORE PUSH2 0x2952 DUP2 DUP11 DUP13 PUSH2 0x26B7 JUMP JUMPDEST SWAP1 POP DUP2 DUP2 SUB PUSH1 0x20 DUP4 ADD MSTORE PUSH2 0x2967 DUP2 DUP9 DUP11 PUSH2 0x27F1 JUMP JUMPDEST SWAP1 POP PUSH2 0x2976 PUSH1 0x40 DUP4 ADD DUP8 PUSH2 0x284C JUMP JUMPDEST PUSH2 0x2983 PUSH1 0x60 DUP4 ADD DUP7 PUSH2 0x284C JUMP JUMPDEST DUP2 DUP2 SUB PUSH1 0x80 DUP4 ADD MSTORE PUSH2 0x2996 DUP2 DUP5 DUP7 PUSH2 0x28DE JUMP JUMPDEST SWAP1 POP SWAP10 SWAP9 POP POP POP POP POP POP POP POP POP JUMP JUMPDEST PUSH32 0x5265656E7472616E637947756172643A207265656E7472616E742063616C6C00 PUSH0 DUP3 ADD MSTORE POP JUMP JUMPDEST PUSH0 PUSH2 0x29D9 PUSH1 0x1F DUP4 PUSH2 0x1FD9 JUMP JUMPDEST SWAP2 POP PUSH2 0x29E4 DUP3 PUSH2 0x29A5 JUMP JUMPDEST PUSH1 0x20 DUP3 ADD SWAP1 POP SWAP2 SWAP1 POP JUMP JUMPDEST PUSH0 PUSH1 0x20 DUP3 ADD SWAP1 POP DUP2 DUP2 SUB PUSH0 DUP4 ADD MSTORE PUSH2 0x2A06 DUP2 PUSH2 0x29CD JUMP JUMPDEST SWAP1 POP SWAP2 SWAP1 POP JUMP JUMPDEST PUSH32 0x4E487B7100000000000000000000000000000000000000000000000000000000 PUSH0 MSTORE PUSH1 0x32 PUSH1 0x4 MSTORE PUSH1 0x24 PUSH0 REVERT JUMPDEST PUSH0 PUSH1 0x20 DUP3 DUP5 SUB SLT ISZERO PUSH2 0x2A4F JUMPI PUSH2 0x2A4E PUSH2 0x205A JUMP JUMPDEST JUMPDEST PUSH0 PUSH2 0x2A5C DUP5 DUP3 DUP6 ADD PUSH2 0x215E JUMP JUMPDEST SWAP2 POP POP SWAP3 SWAP2 POP POP JUMP JUMPDEST PUSH32 0x4E487B7100000000000000000000000000000000000000000000000000000000 PUSH0 MSTORE PUSH1 0x11 PUSH1 0x4 MSTORE PUSH1 0x24 PUSH0 REVERT JUMPDEST PUSH0 PUSH2 0x2A9C DUP3 PUSH2 0x2172 JUMP JUMPDEST SWAP2 POP PUSH2 0x2AA7 DUP4 PUSH2 0x2172 JUMP JUMPDEST SWAP3 POP DUP3 DUP3 ADD SWAP1 POP DUP1 DUP3 GT ISZERO PUSH2 0x2ABF JUMPI PUSH2 0x2ABE PUSH2 0x2A65 JUMP JUMPDEST JUMPDEST SWAP3 SWAP2 POP POP JUMP JUMPDEST PUSH32 0x6D73672E76616C756520213D2045544820696E70757473000000000000000000 PUSH0 DUP3 ADD MSTORE POP JUMP JUMPDEST PUSH0 PUSH2 0x2AF9 PUSH1 0x17 DUP4 PUSH2 0x1FD9 JUMP JUMPDEST SWAP2 POP PUSH2 0x2B04 DUP3 PUSH2 0x2AC5 JUMP JUMPDEST PUSH1 0x20 DUP3 ADD SWAP1 POP SWAP2 SWAP1 POP JUMP JUMPDEST PUSH0 PUSH1 0x20 DUP3 ADD SWAP1 POP DUP2 DUP2 SUB PUSH0 DUP4 ADD MSTORE PUSH2 0x2B26 DUP2 PUSH2 0x2AED JUMP JUMPDEST SWAP1 POP SWAP2 SWAP1 POP JUMP JUMPDEST PUSH0 PUSH1 0x20 DUP3 DUP5 SUB SLT ISZERO PUSH2 0x2B42 JUMPI PUSH2 0x2B41 PUSH2 0x205A JUMP JUMPDEST JUMPDEST PUSH0 PUSH2 0x2B4F DUP5 DUP3 DUP6 ADD PUSH2 0x274E JUMP JUMPDEST SWAP2 POP POP SWAP3 SWAP2 POP POP JUMP JUMPDEST PUSH32 0x4D756C74695377617020526F757465723A20576569676874206D757374206265 PUSH0 DUP3 ADD MSTORE PUSH32 0x2067726561746572207468616E20300000000000000000000000000000000000 PUSH1 0x20 DUP3 ADD MSTORE POP JUMP JUMPDEST PUSH0 PUSH2 0x2BB2 PUSH1 0x2F DUP4 PUSH2 0x1FD9 JUMP JUMPDEST SWAP2 POP PUSH2 0x2BBD DUP3 PUSH2 0x2B58 JUMP JUMPDEST PUSH1 0x40 DUP3 ADD SWAP1 POP SWAP2 SWAP1 POP JUMP JUMPDEST PUSH0 PUSH1 0x20 DUP3 ADD SWAP1 POP DUP2 DUP2 SUB PUSH0 DUP4 ADD MSTORE PUSH2 0x2BDF DUP2 PUSH2 0x2BA6 JUMP JUMPDEST SWAP1 POP SWAP2 SWAP1 POP JUMP JUMPDEST PUSH32 0x4D756C74695377617020526F757465723A20546F74616C20776569676874206D PUSH0 DUP3 ADD MSTORE PUSH32 0x7573742062652031303025000000000000000000000000000000000000000000 PUSH1 0x20 DUP3 ADD MSTORE POP JUMP JUMPDEST PUSH0 PUSH2 0x2C40 PUSH1 0x2B DUP4 PUSH2 0x1FD9 JUMP JUMPDEST SWAP2 POP PUSH2 0x2C4B DUP3 PUSH2 0x2BE6 JUMP JUMPDEST PUSH1 0x40 DUP3 ADD SWAP1 POP SWAP2 SWAP1 POP JUMP JUMPDEST PUSH0 PUSH1 0x20 DUP3 ADD SWAP1 POP DUP2 DUP2 SUB PUSH0 DUP4 ADD MSTORE PUSH2 0x2C6D DUP2 PUSH2 0x2C34 JUMP JUMPDEST SWAP1 POP SWAP2 SWAP1 POP JUMP JUMPDEST PUSH32 0x4665653A207A65726F2061646472657373000000000000000000000000000000 PUSH0 DUP3 ADD MSTORE POP JUMP JUMPDEST PUSH0 PUSH2 0x2CA8 PUSH1 0x11 DUP4 PUSH2 0x1FD9 JUMP JUMPDEST SWAP2 POP PUSH2 0x2CB3 DUP3 PUSH2 0x2C74 JUMP JUMPDEST PUSH1 0x20 DUP3 ADD SWAP1 POP SWAP2 SWAP1 POP JUMP JUMPDEST PUSH0 PUSH1 0x20 DUP3 ADD SWAP1 POP DUP2 DUP2 SUB PUSH0 DUP4 ADD MSTORE PUSH2 0x2CD5 DUP2 PUSH2 0x2C9C JUMP JUMPDEST SWAP1 POP SWAP2 SWAP1 POP JUMP JUMPDEST PUSH32 0x4665653A207A65726F2062697073000000000000000000000000000000000000 PUSH0 DUP3 ADD MSTORE POP JUMP JUMPDEST PUSH0 PUSH2 0x2D10 PUSH1 0xE DUP4 PUSH2 0x1FD9 JUMP JUMPDEST SWAP2 POP PUSH2 0x2D1B DUP3 PUSH2 0x2CDC JUMP JUMPDEST PUSH1 0x20 DUP3 ADD SWAP1 POP SWAP2 SWAP1 POP JUMP JUMPDEST PUSH0 PUSH1 0x20 DUP3 ADD SWAP1 POP DUP2 DUP2 SUB PUSH0 DUP4 ADD MSTORE PUSH2 0x2D3D DUP2 PUSH2 0x2D04 JUMP JUMPDEST SWAP1 POP SWAP2 SWAP1 POP JUMP JUMPDEST PUSH32 0x4665653A203E2031303025000000000000000000000000000000000000000000 PUSH0 DUP3 ADD MSTORE POP JUMP JUMPDEST PUSH0 PUSH2 0x2D78 PUSH1 0xB DUP4 PUSH2 0x1FD9 JUMP JUMPDEST SWAP2 POP PUSH2 0x2D83 DUP3 PUSH2 0x2D44 JUMP JUMPDEST PUSH1 0x20 DUP3 ADD SWAP1 POP SWAP2 SWAP1 POP JUMP JUMPDEST PUSH0 PUSH1 0x20 DUP3 ADD SWAP1 POP DUP2 DUP2 SUB PUSH0 DUP4 ADD MSTORE PUSH2 0x2DA5 DUP2 PUSH2 0x2D6C JUMP JUMPDEST SWAP1 POP SWAP2 SWAP1 POP JUMP JUMPDEST PUSH0 PUSH2 0x2DB6 DUP3 PUSH2 0x2172 JUMP JUMPDEST SWAP2 POP PUSH2 0x2DC1 DUP4 PUSH2 0x2172 JUMP JUMPDEST SWAP3 POP DUP3 DUP3 SUB SWAP1 POP DUP2 DUP2 GT ISZERO PUSH2 0x2DD9 JUMPI PUSH2 0x2DD8 PUSH2 0x2A65 JUMP JUMPDEST JUMPDEST SWAP3 SWAP2 POP POP JUMP JUMPDEST PUSH0 PUSH1 0x20 DUP3 ADD SWAP1 POP PUSH2 0x2DF2 PUSH0 DUP4 ADD DUP5 PUSH2 0x284C JUMP JUMPDEST SWAP3 SWAP2 POP POP JUMP JUMPDEST PUSH2 0x2E01 DUP2 PUSH2 0x2137 JUMP JUMPDEST DUP3 MSTORE POP POP JUMP JUMPDEST PUSH0 PUSH1 0x20 DUP3 ADD SWAP1 POP PUSH2 0x2E1A PUSH0 DUP4 ADD DUP5 PUSH2 0x2DF8 JUMP JUMPDEST SWAP3 SWAP2 POP POP JUMP JUMPDEST PUSH0 DUP2 MLOAD SWAP1 POP PUSH2 0x2E2E DUP2 PUSH2 0x217B JUMP JUMPDEST SWAP3 SWAP2 POP POP JUMP JUMPDEST PUSH0 PUSH1 0x20 DUP3 DUP5 SUB SLT ISZERO PUSH2 0x2E49 JUMPI PUSH2 0x2E48 PUSH2 0x205A JUMP JUMPDEST JUMPDEST PUSH0 PUSH2 0x2E56 DUP5 DUP3 DUP6 ADD PUSH2 0x2E20 JUMP JUMPDEST SWAP2 POP POP SWAP3 SWAP2 POP POP JUMP JUMPDEST PUSH32 0x777261703A207A65726F20616D6F756E74000000000000000000000000000000 PUSH0 DUP3 ADD MSTORE POP JUMP JUMPDEST PUSH0 PUSH2 0x2E93 PUSH1 0x11 DUP4 PUSH2 0x1FD9 JUMP JUMPDEST SWAP2 POP PUSH2 0x2E9E DUP3 PUSH2 0x2E5F JUMP JUMPDEST PUSH1 0x20 DUP3 ADD SWAP1 POP SWAP2 SWAP1 POP JUMP JUMPDEST PUSH0 PUSH1 0x20 DUP3 ADD SWAP1 POP DUP2 DUP2 SUB PUSH0 DUP4 ADD MSTORE PUSH2 0x2EC0 DUP2 PUSH2 0x2E87 JUMP JUMPDEST SWAP1 POP SWAP2 SWAP1 POP JUMP JUMPDEST PUSH32 0x777261703A206F6E6C79207468697320636F6E74726163742063616E20777261 PUSH0 DUP3 ADD MSTORE PUSH32 0x7020455448000000000000000000000000000000000000000000000000000000 PUSH1 0x20 DUP3 ADD MSTORE POP JUMP JUMPDEST PUSH0 PUSH2 0x2F21 PUSH1 0x25 DUP4 PUSH2 0x1FD9 JUMP JUMPDEST SWAP2 POP PUSH2 0x2F2C DUP3 PUSH2 0x2EC7 JUMP JUMPDEST PUSH1 0x40 DUP3 ADD SWAP1 POP SWAP2 SWAP1 POP JUMP JUMPDEST PUSH0 PUSH1 0x20 DUP3 ADD SWAP1 POP DUP2 DUP2 SUB PUSH0 DUP4 ADD MSTORE PUSH2 0x2F4E DUP2 PUSH2 0x2F15 JUMP JUMPDEST SWAP1 POP SWAP2 SWAP1 POP JUMP JUMPDEST PUSH32 0x574554483A20696E73756666696369656E742045544800000000000000000000 PUSH0 DUP3 ADD MSTORE POP JUMP JUMPDEST PUSH0 PUSH2 0x2F89 PUSH1 0x16 DUP4 PUSH2 0x1FD9 JUMP JUMPDEST SWAP2 POP PUSH2 0x2F94 DUP3 PUSH2 0x2F55 JUMP JUMPDEST PUSH1 0x20 DUP3 ADD SWAP1 POP SWAP2 SWAP1 POP JUMP JUMPDEST PUSH0 PUSH1 0x20 DUP3 ADD SWAP1 POP DUP2 DUP2 SUB PUSH0 DUP4 ADD MSTORE PUSH2 0x2FB6 DUP2 PUSH2 0x2F7D JUMP JUMPDEST SWAP1 POP SWAP2 SWAP1 POP JUMP JUMPDEST PUSH32 0x4D756C74695377617020526F757465723A20496E76616C69642066726F6D2074 PUSH0 DUP3 ADD MSTORE PUSH32 0x6F6B656E20616464726573730000000000000000000000000000000000000000 PUSH1 0x20 DUP3 ADD MSTORE POP JUMP JUMPDEST PUSH0 PUSH2 0x3017 PUSH1 0x2C DUP4 PUSH2 0x1FD9 JUMP JUMPDEST SWAP2 POP PUSH2 0x3022 DUP3 PUSH2 0x2FBD JUMP JUMPDEST PUSH1 0x40 DUP3 ADD SWAP1 POP SWAP2 SWAP1 POP JUMP JUMPDEST PUSH0 PUSH1 0x20 DUP3 ADD SWAP1 POP DUP2 DUP2 SUB PUSH0 DUP4 ADD MSTORE PUSH2 0x3044 DUP2 PUSH2 0x300B JUMP JUMPDEST SWAP1 POP SWAP2 SWAP1 POP JUMP JUMPDEST PUSH32 0x4D756C74695377617020526F757465723A20496E76616C696420746F20746F6B PUSH0 DUP3 ADD MSTORE PUSH32 0x656E206164647265737300000000000000000000000000000000000000000000 PUSH1 0x20 DUP3 ADD MSTORE POP JUMP JUMPDEST PUSH0 PUSH2 0x30A5 PUSH1 0x2A DUP4 PUSH2 0x1FD9 JUMP JUMPDEST SWAP2 POP PUSH2 0x30B0 DUP3 PUSH2 0x304B JUMP JUMPDEST PUSH1 0x40 DUP3 ADD SWAP1 POP SWAP2 SWAP1 POP JUMP JUMPDEST PUSH0 PUSH1 0x20 DUP3 ADD SWAP1 POP DUP2 DUP2 SUB PUSH0 DUP4 ADD MSTORE PUSH2 0x30D2 DUP2 PUSH2 0x3099 JUMP JUMPDEST SWAP1 POP SWAP2 SWAP1 POP JUMP JUMPDEST PUSH32 0x4D756C74695377617020526F757465723A20416D6F756E74206D757374206265 PUSH0 DUP3 ADD MSTORE PUSH32 0x2067726561746572207468616E20300000000000000000000000000000000000 PUSH1 0x20 DUP3 ADD MSTORE POP JUMP JUMPDEST PUSH0 PUSH2 0x3133 PUSH1 0x2F DUP4 PUSH2 0x1FD9 JUMP JUMPDEST SWAP2 POP PUSH2 0x313E DUP3 PUSH2 0x30D9 JUMP JUMPDEST PUSH1 0x40 DUP3 ADD SWAP1 POP SWAP2 SWAP1 POP JUMP JUMPDEST PUSH0 PUSH1 0x20 DUP3 ADD SWAP1 POP DUP2 DUP2 SUB PUSH0 DUP4 ADD MSTORE PUSH2 0x3160 DUP2 PUSH2 0x3127 JUMP JUMPDEST SWAP1 POP SWAP2 SWAP1 POP JUMP JUMPDEST PUSH0 DUP2 MLOAD SWAP1 POP SWAP2 SWAP1 POP JUMP JUMPDEST PUSH0 DUP3 DUP3 MSTORE PUSH1 0x20 DUP3 ADD SWAP1 POP SWAP3 SWAP2 POP POP JUMP JUMPDEST PUSH0 DUP2 SWAP1 POP PUSH1 0x20 DUP3 ADD SWAP1 POP SWAP2 SWAP1 POP JUMP JUMPDEST PUSH0 PUSH2 0x319B DUP4 DUP4 PUSH2 0x2619 JUMP JUMPDEST PUSH1 0x20 DUP4 ADD SWAP1 POP SWAP3 SWAP2 POP POP JUMP JUMPDEST PUSH0 PUSH1 0x20 DUP3 ADD SWAP1 POP SWAP2 SWAP1 POP JUMP JUMPDEST PUSH0 PUSH2 0x31BD DUP3 PUSH2 0x3167 JUMP JUMPDEST PUSH2 0x31C7 DUP2 DUP6 PUSH2 0x3171 JUMP JUMPDEST SWAP4 POP PUSH2 0x31D2 DUP4 PUSH2 0x3181 JUMP JUMPDEST DUP1 PUSH0 JUMPDEST DUP4 DUP2 LT ISZERO PUSH2 0x3202 JUMPI DUP2 MLOAD PUSH2 0x31E9 DUP9 DUP3 PUSH2 0x3190 JUMP JUMPDEST SWAP8 POP PUSH2 0x31F4 DUP4 PUSH2 0x31A7 JUMP JUMPDEST SWAP3 POP POP PUSH1 0x1 DUP2 ADD SWAP1 POP PUSH2 0x31D5 JUMP JUMPDEST POP DUP6 SWAP4 POP POP POP POP SWAP3 SWAP2 POP POP JUMP JUMPDEST PUSH0 PUSH1 0xA0 DUP3 ADD SWAP1 POP PUSH2 0x3222 PUSH0 DUP4 ADD DUP9 PUSH2 0x284C JUMP JUMPDEST PUSH2 0x322F PUSH1 0x20 DUP4 ADD DUP8 PUSH2 0x284C JUMP JUMPDEST DUP2 DUP2 SUB PUSH1 0x40 DUP4 ADD MSTORE PUSH2 0x3241 DUP2 DUP7 PUSH2 0x31B3 JUMP JUMPDEST SWAP1 POP PUSH2 0x3250 PUSH1 0x60 DUP4 ADD DUP6 PUSH2 0x2DF8 JUMP JUMPDEST PUSH2 0x325D PUSH1 0x80 DUP4 ADD DUP5 PUSH2 0x284C JUMP JUMPDEST SWAP7 SWAP6 POP POP POP POP POP POP JUMP JUMPDEST PUSH0 PUSH2 0x3271 DUP3 PUSH2 0x2172 JUMP JUMPDEST SWAP2 POP PUSH2 0x327C DUP4 PUSH2 0x2172 JUMP JUMPDEST SWAP3 POP DUP3 DUP3 MUL PUSH2 0x328A DUP2 PUSH2 0x2172 JUMP JUMPDEST SWAP2 POP DUP3 DUP3 DIV DUP5 EQ DUP4 ISZERO OR PUSH2 0x32A1 JUMPI PUSH2 0x32A0 PUSH2 0x2A65 JUMP JUMPDEST JUMPDEST POP SWAP3 SWAP2 POP POP JUMP JUMPDEST PUSH32 0x4E487B7100000000000000000000000000000000000000000000000000000000 PUSH0 MSTORE PUSH1 0x12 PUSH1 0x4 MSTORE PUSH1 0x24 PUSH0 REVERT JUMPDEST PUSH0 PUSH2 0x32DF DUP3 PUSH2 0x2172 JUMP JUMPDEST SWAP2 POP PUSH2 0x32EA DUP4 PUSH2 0x2172 JUMP JUMPDEST SWAP3 POP DUP3 PUSH2 0x32FA JUMPI PUSH2 0x32F9 PUSH2 0x32A8 JUMP JUMPDEST JUMPDEST DUP3 DUP3 DIV SWAP1 POP SWAP3 SWAP2 POP POP JUMP JUMPDEST PUSH32 0x756E777261703A207A65726F20616D6F756E7400000000000000000000000000 PUSH0 DUP3 ADD MSTORE POP JUMP JUMPDEST PUSH0 PUSH2 0x3339 PUSH1 0x13 DUP4 PUSH2 0x1FD9 JUMP JUMPDEST SWAP2 POP PUSH2 0x3344 DUP3 PUSH2 0x3305 JUMP JUMPDEST PUSH1 0x20 DUP3 ADD SWAP1 POP SWAP2 SWAP1 POP JUMP JUMPDEST PUSH0 PUSH1 0x20 DUP3 ADD SWAP1 POP DUP2 DUP2 SUB PUSH0 DUP4 ADD MSTORE PUSH2 0x3366 DUP2 PUSH2 0x332D JUMP JUMPDEST SWAP1 POP SWAP2 SWAP1 POP JUMP JUMPDEST PUSH32 0x574554483A20696E73756666696369656E742057455448000000000000000000 PUSH0 DUP3 ADD MSTORE POP JUMP JUMPDEST PUSH0 PUSH2 0x33A1 PUSH1 0x17 DUP4 PUSH2 0x1FD9 JUMP JUMPDEST SWAP2 POP PUSH2 0x33AC DUP3 PUSH2 0x336D JUMP JUMPDEST PUSH1 0x20 DUP3 ADD SWAP1 POP SWAP2 SWAP1 POP JUMP JUMPDEST PUSH0 PUSH1 0x20 DUP3 ADD SWAP1 POP DUP2 DUP2 SUB PUSH0 DUP4 ADD MSTORE PUSH2 0x33CE DUP2 PUSH2 0x3395 JUMP JUMPDEST SWAP1 POP SWAP2 SWAP1 POP JUMP JUMPDEST PUSH32 0x73656E64546F6B656E3A207A65726F20616D6F756E7400000000000000000000 PUSH0 DUP3 ADD MSTORE POP JUMP JUMPDEST PUSH0 PUSH2 0x3409 PUSH1 0x16 DUP4 PUSH2 0x1FD9 JUMP JUMPDEST SWAP2 POP PUSH2 0x3414 DUP3 PUSH2 0x33D5 JUMP JUMPDEST PUSH1 0x20 DUP3 ADD SWAP1 POP SWAP2 SWAP1 POP JUMP JUMPDEST PUSH0 PUSH1 0x20 DUP3 ADD SWAP1 POP DUP2 DUP2 SUB PUSH0 DUP4 ADD MSTORE PUSH2 0x3436 DUP2 PUSH2 0x33FD JUMP JUMPDEST SWAP1 POP SWAP2 SWAP1 POP JUMP JUMPDEST PUSH32 0x73656E644574683A207A65726F20616D6F756E74000000000000000000000000 PUSH0 DUP3 ADD MSTORE POP JUMP JUMPDEST PUSH0 PUSH2 0x3471 PUSH1 0x14 DUP4 PUSH2 0x1FD9 JUMP JUMPDEST SWAP2 POP PUSH2 0x347C DUP3 PUSH2 0x343D JUMP JUMPDEST PUSH1 0x20 DUP3 ADD SWAP1 POP SWAP2 SWAP1 POP JUMP JUMPDEST PUSH0 PUSH1 0x20 DUP3 ADD SWAP1 POP DUP2 DUP2 SUB PUSH0 DUP4 ADD MSTORE PUSH2 0x349E DUP2 PUSH2 0x3465 JUMP JUMPDEST SWAP1 POP SWAP2 SWAP1 POP JUMP JUMPDEST PUSH32 0x73656E644574683A20696E73756666696369656E742045544800000000000000 PUSH0 DUP3 ADD MSTORE POP JUMP JUMPDEST PUSH0 PUSH2 0x34D9 PUSH1 0x19 DUP4 PUSH2 0x1FD9 JUMP JUMPDEST SWAP2 POP PUSH2 0x34E4 DUP3 PUSH2 0x34A5 JUMP JUMPDEST PUSH1 0x20 DUP3 ADD SWAP1 POP SWAP2 SWAP1 POP JUMP JUMPDEST PUSH0 PUSH1 0x20 DUP3 ADD SWAP1 POP DUP2 DUP2 SUB PUSH0 DUP4 ADD MSTORE PUSH2 0x3506 DUP2 PUSH2 0x34CD JUMP JUMPDEST SWAP1 POP SWAP2 SWAP1 POP JUMP JUMPDEST PUSH0 DUP2 SWAP1 POP SWAP3 SWAP2 POP POP JUMP JUMPDEST POP JUMP JUMPDEST PUSH0 PUSH2 0x3525 PUSH0 DUP4 PUSH2 0x350D JUMP JUMPDEST SWAP2 POP PUSH2 0x3530 DUP3 PUSH2 0x3517 JUMP JUMPDEST PUSH0 DUP3 ADD SWAP1 POP SWAP2 SWAP1 POP JUMP JUMPDEST PUSH0 PUSH2 0x3544 DUP3 PUSH2 0x351A JUMP JUMPDEST SWAP2 POP DUP2 SWAP1 POP SWAP2 SWAP1 POP JUMP JUMPDEST PUSH32 0x4554482073656E64206661696C65640000000000000000000000000000000000 PUSH0 DUP3 ADD MSTORE POP JUMP JUMPDEST PUSH0 PUSH2 0x3582 PUSH1 0xF DUP4 PUSH2 0x1FD9 JUMP JUMPDEST SWAP2 POP PUSH2 0x358D DUP3 PUSH2 0x354E JUMP JUMPDEST PUSH1 0x20 DUP3 ADD SWAP1 POP SWAP2 SWAP1 POP JUMP JUMPDEST PUSH0 PUSH1 0x20 DUP3 ADD SWAP1 POP DUP2 DUP2 SUB PUSH0 DUP4 ADD MSTORE PUSH2 0x35AF DUP2 PUSH2 0x3576 JUMP JUMPDEST SWAP1 POP SWAP2 SWAP1 POP JUMP JUMPDEST PUSH32 0x72656365697665546F6B656E3A207A65726F20616D6F756E7400000000000000 PUSH0 DUP3 ADD MSTORE POP JUMP JUMPDEST PUSH0 PUSH2 0x35EA PUSH1 0x19 DUP4 PUSH2 0x1FD9 JUMP JUMPDEST SWAP2 POP PUSH2 0x35F5 DUP3 PUSH2 0x35B6 JUMP JUMPDEST PUSH1 0x20 DUP3 ADD SWAP1 POP SWAP2 SWAP1 POP JUMP JUMPDEST PUSH0 PUSH1 0x20 DUP3 ADD SWAP1 POP DUP2 DUP2 SUB PUSH0 DUP4 ADD MSTORE PUSH2 0x3617 DUP2 PUSH2 0x35DE JUMP JUMPDEST SWAP1 POP SWAP2 SWAP1 POP JUMP JUMPDEST PUSH0 PUSH1 0x40 DUP3 ADD SWAP1 POP PUSH2 0x3631 PUSH0 DUP4 ADD DUP6 PUSH2 0x2DF8 JUMP JUMPDEST PUSH2 0x363E PUSH1 0x20 DUP4 ADD DUP5 PUSH2 0x2DF8 JUMP JUMPDEST SWAP4 SWAP3 POP POP POP JUMP JUMPDEST PUSH32 0x72656365697665546F6B656E3A20616C6C6F77616E6365206973206C65737320 PUSH0 DUP3 ADD MSTORE PUSH32 0x7468616E20616D6F756E74000000000000000000000000000000000000000000 PUSH1 0x20 DUP3 ADD MSTORE POP JUMP JUMPDEST PUSH0 PUSH2 0x369F PUSH1 0x2B DUP4 PUSH2 0x1FD9 JUMP JUMPDEST SWAP2 POP PUSH2 0x36AA DUP3 PUSH2 0x3645 JUMP JUMPDEST PUSH1 0x40 DUP3 ADD SWAP1 POP SWAP2 SWAP1 POP JUMP JUMPDEST PUSH0 PUSH1 0x20 DUP3 ADD SWAP1 POP DUP2 DUP2 SUB PUSH0 DUP4 ADD MSTORE PUSH2 0x36CC DUP2 PUSH2 0x3693 JUMP JUMPDEST SWAP1 POP SWAP2 SWAP1 POP JUMP JUMPDEST PUSH32 0x72656365697665546F6B656E3A206E6F7468696E672072656365697665640000 PUSH0 DUP3 ADD MSTORE POP JUMP JUMPDEST PUSH0 PUSH2 0x3707 PUSH1 0x1E DUP4 PUSH2 0x1FD9 JUMP JUMPDEST SWAP2 POP PUSH2 0x3712 DUP3 PUSH2 0x36D3 JUMP JUMPDEST PUSH1 0x20 DUP3 ADD SWAP1 POP SWAP2 SWAP1 POP JUMP JUMPDEST PUSH0 PUSH1 0x20 DUP3 ADD SWAP1 POP DUP2 DUP2 SUB PUSH0 DUP4 ADD MSTORE PUSH2 0x3734 DUP2 PUSH2 0x36FB JUMP JUMPDEST SWAP1 POP SWAP2 SWAP1 POP JUMP JUMPDEST PUSH0 DUP2 SWAP1 POP SWAP2 SWAP1 POP JUMP JUMPDEST PUSH0 PUSH2 0x375E PUSH2 0x3759 PUSH2 0x3754 DUP5 PUSH2 0x373B JUMP JUMPDEST PUSH2 0x22E3 JUMP JUMPDEST PUSH2 0x2172 JUMP JUMPDEST SWAP1 POP SWAP2 SWAP1 POP JUMP JUMPDEST PUSH2 0x376E DUP2 PUSH2 0x3744 JUMP JUMPDEST DUP3 MSTORE POP POP JUMP JUMPDEST PUSH0 PUSH1 0x40 DUP3 ADD SWAP1 POP PUSH2 0x3787 PUSH0 DUP4 ADD DUP6 PUSH2 0x2DF8 JUMP JUMPDEST PUSH2 0x3794 PUSH1 0x20 DUP4 ADD DUP5 PUSH2 0x3765 JUMP JUMPDEST SWAP4 SWAP3 POP POP POP JUMP JUMPDEST PUSH0 DUP2 ISZERO ISZERO SWAP1 POP SWAP2 SWAP1 POP JUMP JUMPDEST PUSH2 0x37AF DUP2 PUSH2 0x379B JUMP JUMPDEST DUP2 EQ PUSH2 0x37B9 JUMPI PUSH0 PUSH0 REVERT JUMPDEST POP JUMP JUMPDEST PUSH0 DUP2 MLOAD SWAP1 POP PUSH2 0x37CA DUP2 PUSH2 0x37A6 JUMP JUMPDEST SWAP3 SWAP2 POP POP JUMP JUMPDEST PUSH0 PUSH1 0x20 DUP3 DUP5 SUB SLT ISZERO PUSH2 0x37E5 JUMPI PUSH2 0x37E4 PUSH2 0x205A JUMP JUMPDEST JUMPDEST PUSH0 PUSH2 0x37F2 DUP5 DUP3 DUP6 ADD PUSH2 0x37BC JUMP JUMPDEST SWAP2 POP POP SWAP3 SWAP2 POP POP JUMP JUMPDEST PUSH0 PUSH1 0x40 DUP3 ADD SWAP1 POP PUSH2 0x380E PUSH0 DUP4 ADD DUP6 PUSH2 0x2DF8 JUMP JUMPDEST PUSH2 0x381B PUSH1 0x20 DUP4 ADD DUP5 PUSH2 0x284C JUMP JUMPDEST SWAP4 SWAP3 POP POP POP JUMP JUMPDEST PUSH32 0x4E487B7100000000000000000000000000000000000000000000000000000000 PUSH0 MSTORE PUSH1 0x41 PUSH1 0x4 MSTORE PUSH1 0x24 PUSH0 REVERT JUMPDEST PUSH0 PUSH1 0x40 DUP3 ADD SWAP1 POP PUSH2 0x3862 PUSH0 DUP4 ADD DUP6 PUSH2 0x284C JUMP JUMPDEST DUP2 DUP2 SUB PUSH1 0x20 DUP4 ADD MSTORE PUSH2 0x3874 DUP2 DUP5 PUSH2 0x31B3 JUMP JUMPDEST SWAP1 POP SWAP4 SWAP3 POP POP POP JUMP JUMPDEST PUSH0 PUSH1 0x1F NOT PUSH1 0x1F DUP4 ADD AND SWAP1 POP SWAP2 SWAP1 POP JUMP JUMPDEST PUSH2 0x3896 DUP3 PUSH2 0x387D JUMP JUMPDEST DUP2 ADD DUP2 DUP2 LT PUSH8 0xFFFFFFFFFFFFFFFF DUP3 GT OR ISZERO PUSH2 0x38B5 JUMPI PUSH2 0x38B4 PUSH2 0x3822 JUMP JUMPDEST JUMPDEST DUP1 PUSH1 0x40 MSTORE POP POP POP JUMP JUMPDEST PUSH0 PUSH2 0x38C7 PUSH2 0x2051 JUMP JUMPDEST SWAP1 POP PUSH2 0x38D3 DUP3 DUP3 PUSH2 0x388D JUMP JUMPDEST SWAP2 SWAP1 POP JUMP JUMPDEST PUSH0 PUSH8 0xFFFFFFFFFFFFFFFF DUP3 GT ISZERO PUSH2 0x38F2 JUMPI PUSH2 0x38F1 PUSH2 0x3822 JUMP JUMPDEST JUMPDEST PUSH1 0x20 DUP3 MUL SWAP1 POP PUSH1 0x20 DUP2 ADD SWAP1 POP SWAP2 SWAP1 POP JUMP JUMPDEST PUSH0 PUSH2 0x3915 PUSH2 0x3910 DUP5 PUSH2 0x38D8 JUMP JUMPDEST PUSH2 0x38BE JUMP JUMPDEST SWAP1 POP DUP1 DUP4 DUP3 MSTORE PUSH1 0x20 DUP3 ADD SWAP1 POP PUSH1 0x20 DUP5 MUL DUP4 ADD DUP6 DUP2 GT ISZERO PUSH2 0x3938 JUMPI PUSH2 0x3937 PUSH2 0x206A JUMP JUMPDEST JUMPDEST DUP4 JUMPDEST DUP2 DUP2 LT ISZERO PUSH2 0x3961 JUMPI DUP1 PUSH2 0x394D DUP9 DUP3 PUSH2 0x2E20 JUMP JUMPDEST DUP5 MSTORE PUSH1 0x20 DUP5 ADD SWAP4 POP POP PUSH1 0x20 DUP2 ADD SWAP1 POP PUSH2 0x393A JUMP JUMPDEST POP POP POP SWAP4 SWAP3 POP POP POP JUMP JUMPDEST PUSH0 DUP3 PUSH1 0x1F DUP4 ADD SLT PUSH2 0x397F JUMPI PUSH2 0x397E PUSH2 0x2062 JUMP JUMPDEST JUMPDEST DUP2 MLOAD PUSH2 0x398F DUP5 DUP3 PUSH1 0x20 DUP7 ADD PUSH2 0x3903 JUMP JUMPDEST SWAP2 POP POP SWAP3 SWAP2 POP POP JUMP JUMPDEST PUSH0 PUSH1 0x20 DUP3 DUP5 SUB SLT ISZERO PUSH2 0x39AD JUMPI PUSH2 0x39AC PUSH2 0x205A JUMP JUMPDEST JUMPDEST PUSH0 DUP3 ADD MLOAD PUSH8 0xFFFFFFFFFFFFFFFF DUP2 GT ISZERO PUSH2 0x39CA JUMPI PUSH2 0x39C9 PUSH2 0x205E JUMP JUMPDEST JUMPDEST PUSH2 0x39D6 DUP5 DUP3 DUP6 ADD PUSH2 0x396B JUMP JUMPDEST SWAP2 POP POP SWAP3 SWAP2 POP POP JUMP JUMPDEST PUSH32 0x556E697377617020526F757465723A2051756F746520756E617661696C61626C PUSH0 DUP3 ADD MSTORE PUSH32 0x653A20706174682F6C6971756964697479000000000000000000000000000000 PUSH1 0x20 DUP3 ADD MSTORE POP JUMP JUMPDEST PUSH0 PUSH2 0x3A39 PUSH1 0x31 DUP4 PUSH2 0x1FD9 JUMP JUMPDEST SWAP2 POP PUSH2 0x3A44 DUP3 PUSH2 0x39DF JUMP JUMPDEST PUSH1 0x40 DUP3 ADD SWAP1 POP SWAP2 SWAP1 POP JUMP JUMPDEST PUSH0 PUSH1 0x20 DUP3 ADD SWAP1 POP DUP2 DUP2 SUB PUSH0 DUP4 ADD MSTORE PUSH2 0x3A66 DUP2 PUSH2 0x3A2D JUMP JUMPDEST SWAP1 POP SWAP2 SWAP1 POP JUMP JUMPDEST PUSH32 0x736C69707061676542697073203E203130302500000000000000000000000000 PUSH0 DUP3 ADD MSTORE POP JUMP JUMPDEST PUSH0 PUSH2 0x3AA1 PUSH1 0x13 DUP4 PUSH2 0x1FD9 JUMP JUMPDEST SWAP2 POP PUSH2 0x3AAC DUP3 PUSH2 0x3A6D JUMP JUMPDEST PUSH1 0x20 DUP3 ADD SWAP1 POP SWAP2 SWAP1 POP JUMP JUMPDEST PUSH0 PUSH1 0x20 DUP3 ADD SWAP1 POP DUP2 DUP2 SUB PUSH0 DUP4 ADD MSTORE PUSH2 0x3ACE DUP2 PUSH2 0x3A95 JUMP JUMPDEST SWAP1 POP SWAP2 SWAP1 POP JUMP JUMPDEST PUSH0 PUSH1 0x60 DUP3 ADD SWAP1 POP PUSH2 0x3AE8 PUSH0 DUP4 ADD DUP7 PUSH2 0x2DF8 JUMP JUMPDEST PUSH2 0x3AF5 PUSH1 0x20 DUP4 ADD DUP6 PUSH2 0x2DF8 JUMP JUMPDEST PUSH2 0x3B02 PUSH1 0x40 DUP4 ADD DUP5 PUSH2 0x284C JUMP JUMPDEST SWAP5 SWAP4 POP POP POP POP JUMP INVALID LOG2 PUSH5 0x6970667358 0x22 SLT KECCAK256 PUSH14 0xDEF3406880886ACAAC0BB869F2C6 INVALID NOT 0xC5 PUSH31 0x939B1BE2BADC851F068041C01764736F6C634300081E003300000000000000 "
		},
		"gasEstimates": {
			"creation": {
				"codeDepositCost": "3033600",
				"executionCost": "infinite",
				"totalCost": "infinite"
			},
			"external": {
				"router()": "infinite",
				"swap((address,uint256)[],(address,uint16)[],address,uint256,uint256,(address,uint16)[])": "infinite"
			}
		},
		"methodIdentifiers": {
			"router()": "f887ea40",
			"swap((address,uint256)[],(address,uint16)[],address,uint256,uint256,(address,uint16)[])": "192b5887"
		}
	},
	"abi": [
		{
			"inputs": [
				{
					"internalType": "address",
					"name": "routerAddress",
					"type": "address"
				}
			],
			"stateMutability": "nonpayable",
			"type": "constructor"
		},
		{
			"inputs": [
				{
					"internalType": "address",
					"name": "token",
					"type": "address"
				}
			],
			"name": "SafeERC20FailedOperation",
			"type": "error"
		},
		{
			"anonymous": false,
			"inputs": [
				{
					"indexed": true,
					"internalType": "address",
					"name": "to",
					"type": "address"
				},
				{
					"indexed": false,
					"internalType": "uint256",
					"name": "amountWeth",
					"type": "uint256"
				}
			],
			"name": "FeePaid",
			"type": "event"
		},
		{
			"anonymous": false,
			"inputs": [
				{
					"indexed": true,
					"internalType": "address",
					"name": "caller",
					"type": "address"
				},
				{
					"components": [
						{
							"internalType": "address",
							"name": "tokenAddress",
							"type": "address"
						},
						{
							"internalType": "uint256",
							"name": "amount",
							"type": "uint256"
						}
					],
					"indexed": false,
					"internalType": "struct SwapOrderInput[]",
					"name": "inputs",
					"type": "tuple[]"
				},
				{
					"components": [
						{
							"internalType": "address",
							"name": "tokenAddress",
							"type": "address"
						},
						{
							"internalType": "uint16",
							"name": "weightBips",
							"type": "uint16"
						}
					],
					"indexed": false,
					"internalType": "struct SwapOrderOutput[]",
					"name": "outputs",
					"type": "tuple[]"
				},
				{
					"indexed": false,
					"internalType": "uint256",
					"name": "slippageBips",
					"type": "uint256"
				},
				{
					"indexed": false,
					"internalType": "uint256",
					"name": "deadlineInSec",
					"type": "uint256"
				},
				{
					"components": [
						{
							"internalType": "address",
							"name": "feeAddress",
							"type": "address"
						},
						{
							"internalType": "uint16",
							"name": "feeBips",
							"type": "uint16"
						}
					],
					"indexed": false,
					"internalType": "struct SwapFee[]",
					"name": "fees",
					"type": "tuple[]"
				}
			],
			"name": "Swapped",
			"type": "event"
		},
		{
			"inputs": [],
			"name": "router",
			"outputs": [
				{
					"internalType": "contract IUniswapV2Router02",
					"name": "",
					"type": "address"
				}
			],
			"stateMutability": "view",
			"type": "function"
		},
		{
			"inputs": [
				{
					"components": [
						{
							"internalType": "address",
							"name": "tokenAddress",
							"type": "address"
						},
						{
							"internalType": "uint256",
							"name": "amount",
							"type": "uint256"
						}
					],
					"internalType": "struct SwapOrderInput[]",
					"name": "inputs",
					"type": "tuple[]"
				},
				{
					"components": [
						{
							"internalType": "address",
							"name": "tokenAddress",
							"type": "address"
						},
						{
							"internalType": "uint16",
							"name": "weightBips",
							"type": "uint16"
						}
					],
					"internalType": "struct SwapOrderOutput[]",
					"name": "outputs",
					"type": "tuple[]"
				},
				{
					"internalType": "address",
					"name": "receiver",
					"type": "address"
				},
				{
					"internalType": "uint256",
					"name": "slippageBips",
					"type": "uint256"
				},
				{
					"internalType": "uint256",
					"name": "deadlineInSec",
					"type": "uint256"
				},
				{
					"components": [
						{
							"internalType": "address",
							"name": "feeAddress",
							"type": "address"
						},
						{
							"internalType": "uint16",
							"name": "feeBips",
							"type": "uint16"
						}
					],
					"internalType": "struct SwapFee[]",
					"name": "fees",
					"type": "tuple[]"
				}
			],
			"name": "swap",
			"outputs": [],
			"stateMutability": "payable",
			"type": "function"
		},
		{
			"stateMutability": "payable",
			"type": "receive"
		}
	]
}