{
	"data": {
		"bytecode": {
			"linkReferences": {},
			"object": "610100604052348015610010575f5ffd5b50604051611696380380611696833981810160405281019061003291906101ae565b8273ffffffffffffffffffffffffffffffffffffffff1660808173ffffffffffffffffffffffffffffffffffffffff16815250508173ffffffffffffffffffffffffffffffffffffffff1660a08173ffffffffffffffffffffffffffffffffffffffff16815250508073ffffffffffffffffffffffffffffffffffffffff1660c08173ffffffffffffffffffffffffffffffffffffffff16815250508273ffffffffffffffffffffffffffffffffffffffff1663313ce5676040518163ffffffff1660e01b8152600401602060405180830381865afa158015610117573d5f5f3e3d5ffd5b505050506040513d601f19601f8201168201806040525081019061013b9190610234565b60ff1660e08160ff168152505050505061025f565b5f5ffd5b5f73ffffffffffffffffffffffffffffffffffffffff82169050919050565b5f61017d82610154565b9050919050565b61018d81610173565b8114610197575f5ffd5b50565b5f815190506101a881610184565b92915050565b5f5f5f606084860312156101c5576101c4610150565b5b5f6101d28682870161019a565b93505060206101e38682870161019a565b92505060406101f48682870161019a565b9150509250925092565b5f60ff82169050919050565b610213816101fe565b811461021d575f5ffd5b50565b5f8151905061022e8161020a565b92915050565b5f6020828403121561024957610248610150565b5b5f61025684828501610220565b91505092915050565b60805160a05160c05160e0516113be6102d85f395f818161040101526107e301525f81816107bf015261096c01525f81816102f5015261065501525f81816102d10152818161031a0152818161036e015281816105c401528181610676015281816106ef0152818161076601526109a901526113be5ff3fe608060405234801561000f575f5ffd5b50600436106100b1575f3560e01c80636855e9391161006f5780636855e939146101b157806369a2e17d146101cf5780637b49b49d146101ff5780637d1aa6101461022f578063884ec7a91461025f578063d08aef7c1461027d576100b1565b8062593bcf146100b5578063040141e5146100e55780630b017603146101035780630dbc0d7d1461012157806357b6c1331461015157806363aa0c9314610181575b5f5ffd5b6100cf60048036038101906100ca919061104f565b61029b565b6040516100dc9190611092565b60405180910390f35b6100ed6102cf565b6040516100fa91906110ba565b60405180910390f35b61010b6102f3565b60405161011891906110ba565b60405180910390f35b61013b6004803603810190610136919061104f565b610317565b6040516101489190611092565b60405180910390f35b61016b6004803603810190610166919061104f565b6104a0565b6040516101789190611092565b60405180910390f35b61019b6004803603810190610196919061104f565b6104d4565b6040516101a89190611092565b60405180910390f35b6101b961064b565b6040516101c69190611092565b60405180910390f35b6101e960048036038101906101e4919061104f565b6106b8565b6040516101f69190611092565b60405180910390f35b6102196004803603810190610214919061104f565b6106ec565b6040516102269190611092565b60405180910390f35b6102496004803603810190610244919061104f565b6107ac565b60405161025691906110ba565b60405180910390f35b6102676107bd565b60405161027491906110ba565b60405180910390f35b6102856107e1565b60405161029291906110ee565b60405180910390f35b5f5f6102a6836106ec565b90505f6102b161064b565b90506102c68282670de0b6b3a7640000610805565b92505050919050565b7f000000000000000000000000000000000000000000000000000000000000000081565b7f000000000000000000000000000000000000000000000000000000000000000081565b5f7f000000000000000000000000000000000000000000000000000000000000000073ffffffffffffffffffffffffffffffffffffffff168273ffffffffffffffffffffffffffffffffffffffff160361042d575f7f000000000000000000000000000000000000000000000000000000000000000073ffffffffffffffffffffffffffffffffffffffff166318160ddd6040518163ffffffff1660e01b8152600401602060405180830381865afa1580156103d5573d5f5f3e3d5ffd5b505050506040513d601f19601f820116820180604052508101906103f99190611131565b9050610425817f000000000000000000000000000000000000000000000000000000000000000061090f565b91505061049b565b5f61043783610969565b90505f5f5f5f6104478588610a90565b5093509350935093505f61045b858561090f565b90505f610468848461090f565b90505f6104748a6106ec565b90505f61048a8483670de0b6b3a7640000610805565b905082810199505050505050505050505b919050565b5f5f6104ab83610317565b90505f6104b661064b565b90506104cb8282670de0b6b3a7640000610805565b92505050919050565b5f5f8273ffffffffffffffffffffffffffffffffffffffff166318160ddd6040518163ffffffff1660e01b8152600401602060405180830381865afa15801561051f573d5f5f3e3d5ffd5b505050506040513d601f19601f820116820180604052508101906105439190611131565b90505f8373ffffffffffffffffffffffffffffffffffffffff1663313ce5676040518163ffffffff1660e01b8152600401602060405180830381865afa15801561058f573d5f5f3e3d5ffd5b505050506040513d601f19601f820116820180604052508101906105b39190611186565b90505f6105c0838361090f565b90507f000000000000000000000000000000000000000000000000000000000000000073ffffffffffffffffffffffffffffffffffffffff168573ffffffffffffffffffffffffffffffffffffffff160361062057809350505050610646565b5f61062a866106ec565b905061063f8282670de0b6b3a7640000610805565b9450505050505b919050565b5f5f5f5f5f61069a7f00000000000000000000000000000000000000000000000000000000000000007f0000000000000000000000000000000000000000000000000000000000000000610a90565b5093509350935093506106af82828686610dd3565b94505050505090565b5f5f6106c3836104d4565b90505f6106ce61064b565b90506106e38282670de0b6b3a7640000610805565b92505050919050565b5f7f000000000000000000000000000000000000000000000000000000000000000073ffffffffffffffffffffffffffffffffffffffff168273ffffffffffffffffffffffffffffffffffffffff160361075057670de0b6b3a764000090506107a7565b5f61075a83610969565b90505f5f5f5f61078a857f0000000000000000000000000000000000000000000000000000000000000000610a90565b50935093509350935061079f84848484610dd3565b955050505050505b919050565b5f6107b682610969565b9050919050565b7f000000000000000000000000000000000000000000000000000000000000000081565b7f000000000000000000000000000000000000000000000000000000000000000081565b5f5f5f5f198587098587029250828110838203039150505f810361083d57838281610833576108326111b1565b5b0492505050610908565b80841161087f576040517f08c379a000000000000000000000000000000000000000000000000000000000815260040161087690611238565b60405180910390fd5b5f8486880990508281118203915080830392505f60018619018616905080860495508084049350600181825f0304019050808302841793505f600287600302189050808702600203810290508087026002038102905080870260020381029050808702600203810290508087026002038102905080870260020381029050808502955050505050505b9392505050565b5f60128260ff160361092357829050610963565b60128260ff1610156109445761093b82601203610e41565b83029050610963565b61095060128303610e41565b838161095f5761095e6111b1565b5b0490505b92915050565b5f7f000000000000000000000000000000000000000000000000000000000000000073ffffffffffffffffffffffffffffffffffffffff1663e6a43905837f00000000000000000000000000000000000000000000000000000000000000006040518363ffffffff1660e01b81526004016109e5929190611256565b602060405180830381865afa158015610a00573d5f5f3e3d5ffd5b505050506040513d601f19601f82011682018060405250810190610a249190611291565b90505f73ffffffffffffffffffffffffffffffffffffffff168173ffffffffffffffffffffffffffffffffffffffff1603610a8b576040517fc5fc4bf400000000000000000000000000000000000000000000000000000000815260040160405180910390fd5b919050565b5f5f5f5f5f5f8790505f5f8273ffffffffffffffffffffffffffffffffffffffff16630902f1ac6040518163ffffffff1660e01b8152600401606060405180830381865afa158015610ae4573d5f5f3e3d5ffd5b505050506040513d601f19601f82011682018060405250810190610b089190611338565b50915091505f8373ffffffffffffffffffffffffffffffffffffffff16630dfe16816040518163ffffffff1660e01b8152600401602060405180830381865afa158015610b57573d5f5f3e3d5ffd5b505050506040513d601f19601f82011682018060405250810190610b7b9190611291565b90505f8473ffffffffffffffffffffffffffffffffffffffff1663d21220a76040518163ffffffff1660e01b8152600401602060405180830381865afa158015610bc7573d5f5f3e3d5ffd5b505050506040513d601f19601f82011682018060405250810190610beb9190611291565b90505f8b73ffffffffffffffffffffffffffffffffffffffff168373ffffffffffffffffffffffffffffffffffffffff1603610c2a5760019050610c98565b8b73ffffffffffffffffffffffffffffffffffffffff168273ffffffffffffffffffffffffffffffffffffffff1603610c65575f9050610c97565b6040517f17b2f78000000000000000000000000000000000000000000000000000000000815260040160405180910390fd5b5b80610ca35783610ca5565b845b6dffffffffffffffffffffffffffff169a5080610cc25784610cc4565b835b6dffffffffffffffffffffffffffff16985080610ce15782610ce3565b815b96508b73ffffffffffffffffffffffffffffffffffffffff1663313ce5676040518163ffffffff1660e01b8152600401602060405180830381865afa158015610d2e573d5f5f3e3d5ffd5b505050506040513d601f19601f82011682018060405250810190610d529190611186565b99508673ffffffffffffffffffffffffffffffffffffffff1663313ce5676040518163ffffffff1660e01b8152600401602060405180830381865afa158015610d9d573d5f5f3e3d5ffd5b505050506040513d601f19601f82011682018060405250810190610dc19190611186565b97505050505050509295509295909350565b5f5f8460ff168360ff1610610dfe57610ded858403610e41565b670de0b6b3a7640000029050610e2a565b5f610e0a848703610e41565b85029050610e2187670de0b6b3a764000083610805565b92505050610e39565b610e35868286610805565b9150505b949350505050565b5f5f8260ff1603610e555760019050610fec565b60018260ff1603610e6957600a9050610fec565b60028260ff1603610e7d5760649050610fec565b60038260ff1603610e92576103e89050610fec565b60048260ff1603610ea7576127109050610fec565b60058260ff1603610ebd57620186a09050610fec565b60068260ff1603610ed357620f42409050610fec565b60078260ff1603610ee957629896809050610fec565b60088260ff1603610f00576305f5e1009050610fec565b60098260ff1603610f1757633b9aca009050610fec565b600a8260ff1603610f2f576402540be4009050610fec565b600b8260ff1603610f475764174876e8009050610fec565b600c8260ff1603610f5f5764e8d4a510009050610fec565b600d8260ff1603610f78576509184e72a0009050610fec565b600e8260ff1603610f9157655af3107a40009050610fec565b600f8260ff1603610fab5766038d7ea4c680009050610fec565b60108260ff1603610fc557662386f26fc100009050610fec565b60118260ff1603610fe05767016345785d8a00009050610fec565b670de0b6b3a764000090505b919050565b5f5ffd5b5f73ffffffffffffffffffffffffffffffffffffffff82169050919050565b5f61101e82610ff5565b9050919050565b61102e81611014565b8114611038575f5ffd5b50565b5f8135905061104981611025565b92915050565b5f6020828403121561106457611063610ff1565b5b5f6110718482850161103b565b91505092915050565b5f819050919050565b61108c8161107a565b82525050565b5f6020820190506110a55f830184611083565b92915050565b6110b481611014565b82525050565b5f6020820190506110cd5f8301846110ab565b92915050565b5f60ff82169050919050565b6110e8816110d3565b82525050565b5f6020820190506111015f8301846110df565b92915050565b6111108161107a565b811461111a575f5ffd5b50565b5f8151905061112b81611107565b92915050565b5f6020828403121561114657611145610ff1565b5b5f6111538482850161111d565b91505092915050565b611165816110d3565b811461116f575f5ffd5b50565b5f815190506111808161115c565b92915050565b5f6020828403121561119b5761119a610ff1565b5b5f6111a884828501611172565b91505092915050565b7f4e487b71000000000000000000000000000000000000000000000000000000005f52601260045260245ffd5b5f82825260208201905092915050565b7f6d756c446976206f766572666c6f7700000000000000000000000000000000005f82015250565b5f611222600f836111de565b915061122d826111ee565b602082019050919050565b5f6020820190508181035f83015261124f81611216565b9050919050565b5f6040820190506112695f8301856110ab565b61127660208301846110ab565b9392505050565b5f8151905061128b81611025565b92915050565b5f602082840312156112a6576112a5610ff1565b5b5f6112b38482850161127d565b91505092915050565b5f6dffffffffffffffffffffffffffff82169050919050565b6112de816112bc565b81146112e8575f5ffd5b50565b5f815190506112f9816112d5565b92915050565b5f63ffffffff82169050919050565b611317816112ff565b8114611321575f5ffd5b50565b5f815190506113328161130e565b92915050565b5f5f5f6060848603121561134f5761134e610ff1565b5b5f61135c868287016112eb565b935050602061136d868287016112eb565b925050604061137e86828701611324565b915050925092509256fea2646970667358221220b665c5e5b8ebb7511bbd99b810bdfb3ce7970e34df55f46f5d50ae7646de394d64736f6c634300081e0033",
			"opcodes": "PUSH2 0x100 PUSH1 0x40 MSTORE CALLVALUE DUP1 ISZERO PUSH2 0x10 JUMPI PUSH0 PUSH0 REVERT JUMPDEST POP PUSH1 0x40 MLOAD PUSH2 0x1696 CODESIZE SUB DUP1 PUSH2 0x1696 DUP4 CODECOPY DUP2 DUP2 ADD PUSH1 0x40 MSTORE DUP2 ADD SWAP1 PUSH2 0x32 SWAP2 SWAP1 PUSH2 0x1AE JUMP JUMPDEST DUP3 PUSH20 0xFFFFFFFFFFFFFFFFFFFFFFFFFFFFFFFFFFFFFFFF AND PUSH1 0x80 DUP2 PUSH20 0xFFFFFFFFFFFFFFFFFFFFFFFFFFFFFFFFFFFFFFFF AND DUP2 MSTORE POP POP DUP2 PUSH20 0xFFFFFFFFFFFFFFFFFFFFFFFFFFFFFFFFFFFFFFFF AND PUSH1 0xA0 DUP2 PUSH20 0xFFFFFFFFFFFFFFFFFFFFFFFFFFFFFFFFFFFFFFFF AND DUP2 MSTORE POP POP DUP1 PUSH20 0xFFFFFFFFFFFFFFFFFFFFFFFFFFFFFFFFFFFFFFFF AND PUSH1 0xC0 DUP2 PUSH20 0xFFFFFFFFFFFFFFFFFFFFFFFFFFFFFFFFFFFFFFFF AND DUP2 MSTORE POP POP DUP3 PUSH20 0xFFFFFFFFFFFFFFFFFFFFFFFFFFFFFFFFFFFFFFFF AND PUSH4 0x313CE567 PUSH1 0x40 MLOAD DUP2 PUSH4 0xFFFFFFFF AND PUSH1 0xE0 SHL DUP2 MSTORE PUSH1 0x4 ADD PUSH1 0x20 PUSH1 0x40 MLOAD DUP1 DUP4 SUB DUP2 DUP7 GAS STATICCALL ISZERO DUP1 ISZERO PUSH2 0x117 JUMPI RETURNDATASIZE PUSH0 PUSH0 RETURNDATACOPY RETURNDATASIZE PUSH0 REVERT JUMPDEST POP POP POP POP PUSH1 0x40 MLOAD RETURNDATASIZE PUSH1 0x1F NOT PUSH1 0x1F DUP3 ADD AND DUP3 ADD DUP1 PUSH1 0x40 MSTORE POP DUP2 ADD SWAP1 PUSH2 0x13B SWAP2 SWAP1 PUSH2 0x234 JUMP JUMPDEST PUSH1 0xFF AND PUSH1 0xE0 DUP2 PUSH1 0xFF AND DUP2 MSTORE POP POP POP POP POP PUSH2 0x25F JUMP JUMPDEST PUSH0 PUSH0 REVERT JUMPDEST PUSH0 PUSH20 0xFFFFFFFFFFFFFFFFFFFFFFFFFFFFFFFFFFFFFFFF DUP3 AND SWAP1 POP SWAP2 SWAP1 POP JUMP JUMPDEST PUSH0 PUSH2 0x17D DUP3 PUSH2 0x154 JUMP JUMPDEST SWAP1 POP SWAP2 SWAP1 POP JUMP JUMPDEST PUSH2 0x18D DUP2 PUSH2 0x173 JUMP JUMPDEST DUP2 EQ PUSH2 0x197 JUMPI PUSH0 PUSH0 REVERT JUMPDEST POP JUMP JUMPDEST PUSH0 DUP2 MLOAD SWAP1 POP PUSH2 0x1A8 DUP2 PUSH2 0x184 JUMP JUMPDEST SWAP3 SWAP2 POP POP JUMP JUMPDEST PUSH0 PUSH0 PUSH0 PUSH1 0x60 DUP5 DUP7 SUB SLT ISZERO PUSH2 0x1C5 JUMPI PUSH2 0x1C4 PUSH2 0x150 JUMP JUMPDEST JUMPDEST PUSH0 PUSH2 0x1D2 DUP7 DUP3 DUP8 ADD PUSH2 0x19A JUMP JUMPDEST SWAP4 POP POP PUSH1 0x20 PUSH2 0x1E3 DUP7 DUP3 DUP8 ADD PUSH2 0x19A JUMP JUMPDEST SWAP3 POP POP PUSH1 0x40 PUSH2 0x1F4 DUP7 DUP3 DUP8 ADD PUSH2 0x19A JUMP JUMPDEST SWAP2 POP POP SWAP3 POP SWAP3 POP SWAP3 JUMP JUMPDEST PUSH0 PUSH1 0xFF DUP3 AND SWAP1 POP SWAP2 SWAP1 POP JUMP JUMPDEST PUSH2 0x213 DUP2 PUSH2 0x1FE JUMP JUMPDEST DUP2 EQ PUSH2 0x21D JUMPI PUSH0 PUSH0 REVERT JUMPDEST POP JUMP JUMPDEST PUSH0 DUP2 MLOAD SWAP1 POP PUSH2 0x22E DUP2 PUSH2 0x20A JUMP JUMPDEST SWAP3 SWAP2 POP POP JUMP JUMPDEST PUSH0 PUSH1 0x20 DUP3 DUP5 SUB SLT ISZERO PUSH2 0x249 JUMPI PUSH2 0x248 PUSH2 0x150 JUMP JUMPDEST JUMPDEST PUSH0 PUSH2 0x256 DUP5 DUP3 DUP6 ADD PUSH2 0x220 JUMP JUMPDEST SWAP2 POP POP SWAP3 SWAP2 POP POP JUMP JUMPDEST PUSH1 0x80 MLOAD PUSH1 0xA0 MLOAD PUSH1 0xC0 MLOAD PUSH1 0xE0 MLOAD PUSH2 0x13BE PUSH2 0x2D8 PUSH0 CODECOPY PUSH0 DUP2 DUP2 PUSH2 0x401 ADD MSTORE PUSH2 0x7E3 ADD MSTORE PUSH0 DUP2 DUP2 PUSH2 0x7BF ADD MSTORE PUSH2 0x96C ADD MSTORE PUSH0 DUP2 DUP2 PUSH2 0x2F5 ADD MSTORE PUSH2 0x655 ADD MSTORE PUSH0 DUP2 DUP2 PUSH2 0x2D1 ADD MSTORE DUP2 DUP2 PUSH2 0x31A ADD MSTORE DUP2 DUP2 PUSH2 0x36E ADD MSTORE DUP2 DUP2 PUSH2 0x5C4 ADD MSTORE DUP2 DUP2 PUSH2 0x676 ADD MSTORE DUP2 DUP2 PUSH2 0x6EF ADD MSTORE DUP2 DUP2 PUSH2 0x766 ADD MSTORE PUSH2 0x9A9 ADD MSTORE PUSH2 0x13BE PUSH0 RETURN INVALID PUSH1 0x80 PUSH1 0x40 MSTORE CALLVALUE DUP1 ISZERO PUSH2 0xF JUMPI PUSH0 PUSH0 REVERT JUMPDEST POP PUSH1 0x4 CALLDATASIZE LT PUSH2 0xB1 JUMPI PUSH0 CALLDATALOAD PUSH1 0xE0 SHR DUP1 PUSH4 0x6855E939 GT PUSH2 0x6F JUMPI DUP1 PUSH4 0x6855E939 EQ PUSH2 0x1B1 JUMPI DUP1 PUSH4 0x69A2E17D EQ PUSH2 0x1CF JUMPI DUP1 PUSH4 0x7B49B49D EQ PUSH2 0x1FF JUMPI DUP1 PUSH4 0x7D1AA610 EQ PUSH2 0x22F JUMPI DUP1 PUSH4 0x884EC7A9 EQ PUSH2 0x25F JUMPI DUP1 PUSH4 0xD08AEF7C EQ PUSH2 0x27D JUMPI PUSH2 0xB1 JUMP JUMPDEST DUP1 PUSH3 0x593BCF EQ PUSH2 0xB5 JUMPI DUP1 PUSH4 0x40141E5 EQ PUSH2 0xE5 JUMPI DUP1 PUSH4 0xB017603 EQ PUSH2 0x103 JUMPI DUP1 PUSH4 0xDBC0D7D EQ PUSH2 0x121 JUMPI DUP1 PUSH4 0x57B6C133 EQ PUSH2 0x151 JUMPI DUP1 PUSH4 0x63AA0C93 EQ PUSH2 0x181 JUMPI JUMPDEST PUSH0 PUSH0 REVERT JUMPDEST PUSH2 0xCF PUSH1 0x4 DUP1 CALLDATASIZE SUB DUP2 ADD SWAP1 PUSH2 0xCA SWAP2 SWAP1 PUSH2 0x104F JUMP JUMPDEST PUSH2 0x29B JUMP JUMPDEST PUSH1 0x40 MLOAD PUSH2 0xDC SWAP2 SWAP1 PUSH2 0x1092 JUMP JUMPDEST PUSH1 0x40 MLOAD DUP1 SWAP2 SUB SWAP1 RETURN JUMPDEST PUSH2 0xED PUSH2 0x2CF JUMP JUMPDEST PUSH1 0x40 MLOAD PUSH2 0xFA SWAP2 SWAP1 PUSH2 0x10BA JUMP JUMPDEST PUSH1 0x40 MLOAD DUP1 SWAP2 SUB SWAP1 RETURN JUMPDEST PUSH2 0x10B PUSH2 0x2F3 JUMP JUMPDEST PUSH1 0x40 MLOAD PUSH2 0x118 SWAP2 SWAP1 PUSH2 0x10BA JUMP JUMPDEST PUSH1 0x40 MLOAD DUP1 SWAP2 SUB SWAP1 RETURN JUMPDEST PUSH2 0x13B PUSH1 0x4 DUP1 CALLDATASIZE SUB DUP2 ADD SWAP1 PUSH2 0x136 SWAP2 SWAP1 PUSH2 0x104F JUMP JUMPDEST PUSH2 0x317 JUMP JUMPDEST PUSH1 0x40 MLOAD PUSH2 0x148 SWAP2 SWAP1 PUSH2 0x1092 JUMP JUMPDEST PUSH1 0x40 MLOAD DUP1 SWAP2 SUB SWAP1 RETURN JUMPDEST PUSH2 0x16B PUSH1 0x4 DUP1 CALLDATASIZE SUB DUP2 ADD SWAP1 PUSH2 0x166 SWAP2 SWAP1 PUSH2 0x104F JUMP JUMPDEST PUSH2 0x4A0 JUMP JUMPDEST PUSH1 0x40 MLOAD PUSH2 0x178 SWAP2 SWAP1 PUSH2 0x1092 JUMP JUMPDEST PUSH1 0x40 MLOAD DUP1 SWAP2 SUB SWAP1 RETURN JUMPDEST PUSH2 0x19B PUSH1 0x4 DUP1 CALLDATASIZE SUB DUP2 ADD SWAP1 PUSH2 0x196 SWAP2 SWAP1 PUSH2 0x104F JUMP JUMPDEST PUSH2 0x4D4 JUMP JUMPDEST PUSH1 0x40 MLOAD PUSH2 0x1A8 SWAP2 SWAP1 PUSH2 0x1092 JUMP JUMPDEST PUSH1 0x40 MLOAD DUP1 SWAP2 SUB SWAP1 RETURN JUMPDEST PUSH2 0x1B9 PUSH2 0x64B JUMP JUMPDEST PUSH1 0x40 MLOAD PUSH2 0x1C6 SWAP2 SWAP1 PUSH2 0x1092 JUMP JUMPDEST PUSH1 0x40 MLOAD DUP1 SWAP2 SUB SWAP1 RETURN JUMPDEST PUSH2 0x1E9 PUSH1 0x4 DUP1 CALLDATASIZE SUB DUP2 ADD SWAP1 PUSH2 0x1E4 SWAP2 SWAP1 PUSH2 0x104F JUMP JUMPDEST PUSH2 0x6B8 JUMP JUMPDEST PUSH1 0x40 MLOAD PUSH2 0x1F6 SWAP2 SWAP1 PUSH2 0x1092 JUMP JUMPDEST PUSH1 0x40 MLOAD DUP1 SWAP2 SUB SWAP1 RETURN JUMPDEST PUSH2 0x219 PUSH1 0x4 DUP1 CALLDATASIZE SUB DUP2 ADD SWAP1 PUSH2 0x214 SWAP2 SWAP1 PUSH2 0x104F JUMP JUMPDEST PUSH2 0x6EC JUMP JUMPDEST PUSH1 0x40 MLOAD PUSH2 0x226 SWAP2 SWAP1 PUSH2 0x1092 JUMP JUMPDEST PUSH1 0x40 MLOAD DUP1 SWAP2 SUB SWAP1 RETURN JUMPDEST PUSH2 0x249 PUSH1 0x4 DUP1 CALLDATASIZE SUB DUP2 ADD SWAP1 PUSH2 0x244 SWAP2 SWAP1 PUSH2 0x104F JUMP JUMPDEST PUSH2 0x7AC JUMP JUMPDEST PUSH1 0x40 MLOAD PUSH2 0x256 SWAP2 SWAP1 PUSH2 0x10BA JUMP JUMPDEST PUSH1 0x40 MLOAD DUP1 SWAP2 SUB SWAP1 RETURN JUMPDEST PUSH2 0x267 PUSH2 0x7BD JUMP JUMPDEST PUSH1 0x40 MLOAD PUSH2 0x274 SWAP2 SWAP1 PUSH2 0x10BA JUMP JUMPDEST PUSH1 0x40 MLOAD DUP1 SWAP2 SUB SWAP1 RETURN JUMPDEST PUSH2 0x285 PUSH2 0x7E1 JUMP JUMPDEST PUSH1 0x40 MLOAD PUSH2 0x292 SWAP2 SWAP1 PUSH2 0x10EE JUMP JUMPDEST PUSH1 0x40 MLOAD DUP1 SWAP2 SUB SWAP1 RETURN JUMPDEST PUSH0 PUSH0 PUSH2 0x2A6 DUP4 PUSH2 0x6EC JUMP JUMPDEST SWAP1 POP PUSH0 PUSH2 0x2B1 PUSH2 0x64B JUMP JUMPDEST SWAP1 POP PUSH2 0x2C6 DUP3 DUP3 PUSH8 0xDE0B6B3A7640000 PUSH2 0x805 JUMP JUMPDEST SWAP3 POP POP POP SWAP2 SWAP1 POP JUMP JUMPDEST PUSH32 0x0 DUP2 JUMP JUMPDEST PUSH32 0x0 DUP2 JUMP JUMPDEST PUSH0 PUSH32 0x0 PUSH20 0xFFFFFFFFFFFFFFFFFFFFFFFFFFFFFFFFFFFFFFFF AND DUP3 PUSH20 0xFFFFFFFFFFFFFFFFFFFFFFFFFFFFFFFFFFFFFFFF AND SUB PUSH2 0x42D JUMPI PUSH0 PUSH32 0x0 PUSH20 0xFFFFFFFFFFFFFFFFFFFFFFFFFFFFFFFFFFFFFFFF AND PUSH4 0x18160DDD PUSH1 0x40 MLOAD DUP2 PUSH4 0xFFFFFFFF AND PUSH1 0xE0 SHL DUP2 MSTORE PUSH1 0x4 ADD PUSH1 0x20 PUSH1 0x40 MLOAD DUP1 DUP4 SUB DUP2 DUP7 GAS STATICCALL ISZERO DUP1 ISZERO PUSH2 0x3D5 JUMPI RETURNDATASIZE PUSH0 PUSH0 RETURNDATACOPY RETURNDATASIZE PUSH0 REVERT JUMPDEST POP POP POP POP PUSH1 0x40 MLOAD RETURNDATASIZE PUSH1 0x1F NOT PUSH1 0x1F DUP3 ADD AND DUP3 ADD DUP1 PUSH1 0x40 MSTORE POP DUP2 ADD SWAP1 PUSH2 0x3F9 SWAP2 SWAP1 PUSH2 0x1131 JUMP JUMPDEST SWAP1 POP PUSH2 0x425 DUP2 PUSH32 0x0 PUSH2 0x90F JUMP JUMPDEST SWAP2 POP POP PUSH2 0x49B JUMP JUMPDEST PUSH0 PUSH2 0x437 DUP4 PUSH2 0x969 JUMP JUMPDEST SWAP1 POP PUSH0 PUSH0 PUSH0 PUSH0 PUSH2 0x447 DUP6 DUP9 PUSH2 0xA90 JUMP JUMPDEST POP SWAP4 POP SWAP4 POP SWAP4 POP SWAP4 POP PUSH0 PUSH2 0x45B DUP6 DUP6 PUSH2 0x90F JUMP JUMPDEST SWAP1 POP PUSH0 PUSH2 0x468 DUP5 DUP5 PUSH2 0x90F JUMP JUMPDEST SWAP1 POP PUSH0 PUSH2 0x474 DUP11 PUSH2 0x6EC JUMP JUMPDEST SWAP1 POP PUSH0 PUSH2 0x48A DUP5 DUP4 PUSH8 0xDE0B6B3A7640000 PUSH2 0x805 JUMP JUMPDEST SWAP1 POP DUP3 DUP2 ADD SWAP10 POP POP POP POP POP POP POP POP POP POP JUMPDEST SWAP2 SWAP1 POP JUMP JUMPDEST PUSH0 PUSH0 PUSH2 0x4AB DUP4 PUSH2 0x317 JUMP JUMPDEST SWAP1 POP PUSH0 PUSH2 0x4B6 PUSH2 0x64B JUMP JUMPDEST SWAP1 POP PUSH2 0x4CB DUP3 DUP3 PUSH8 0xDE0B6B3A7640000 PUSH2 0x805 JUMP JUMPDEST SWAP3 POP POP POP SWAP2 SWAP1 POP JUMP JUMPDEST PUSH0 PUSH0 DUP3 PUSH20 0xFFFFFFFFFFFFFFFFFFFFFFFFFFFFFFFFFFFFFFFF AND PUSH4 0x18160DDD PUSH1 0x40 MLOAD DUP2 PUSH4 0xFFFFFFFF AND PUSH1 0xE0 SHL DUP2 MSTORE PUSH1 0x4 ADD PUSH1 0x20 PUSH1 0x40 MLOAD DUP1 DUP4 SUB DUP2 DUP7 GAS STATICCALL ISZERO DUP1 ISZERO PUSH2 0x51F JUMPI RETURNDATASIZE PUSH0 PUSH0 RETURNDATACOPY RETURNDATASIZE PUSH0 REVERT JUMPDEST POP POP POP POP PUSH1 0x40 MLOAD RETURNDATASIZE PUSH1 0x1F NOT PUSH1 0x1F DUP3 ADD AND DUP3 ADD DUP1 PUSH1 0x40 MSTORE POP DUP2 ADD SWAP1 PUSH2 0x543 SWAP2 SWAP1 PUSH2 0x1131 JUMP JUMPDEST SWAP1 POP PUSH0 DUP4 PUSH20 0xFFFFFFFFFFFFFFFFFFFFFFFFFFFFFFFFFFFFFFFF AND PUSH4 0x313CE567 PUSH1 0x40 MLOAD DUP2 PUSH4 0xFFFFFFFF AND PUSH1 0xE0 SHL DUP2 MSTORE PUSH1 0x4 ADD PUSH1 0x20 PUSH1 0x40 MLOAD DUP1 DUP4 SUB DUP2 DUP7 GAS STATICCALL ISZERO DUP1 ISZERO PUSH2 0x58F JUMPI RETURNDATASIZE PUSH0 PUSH0 RETURNDATACOPY RETURNDATASIZE PUSH0 REVERT JUMPDEST POP POP POP POP PUSH1 0x40 MLOAD RETURNDATASIZE PUSH1 0x1F NOT PUSH1 0x1F DUP3 ADD AND DUP3 ADD DUP1 PUSH1 0x40 MSTORE POP DUP2 ADD SWAP1 PUSH2 0x5B3 SWAP2 SWAP1 PUSH2 0x1186 JUMP JUMPDEST SWAP1 POP PUSH0 PUSH2 0x5C0 DUP4 DUP4 PUSH2 0x90F JUMP JUMPDEST SWAP1 POP PUSH32 0x0 PUSH20 0xFFFFFFFFFFFFFFFFFFFFFFFFFFFFFFFFFFFFFFFF AND DUP6 PUSH20 0xFFFFFFFFFFFFFFFFFFFFFFFFFFFFFFFFFFFFFFFF AND SUB PUSH2 0x620 JUMPI DUP1 SWAP4 POP POP POP POP PUSH2 0x646 JUMP JUMPDEST PUSH0 PUSH2 0x62A DUP7 PUSH2 0x6EC JUMP JUMPDEST SWAP1 POP PUSH2 0x63F DUP3 DUP3 PUSH8 0xDE0B6B3A7640000 PUSH2 0x805 JUMP JUMPDEST SWAP5 POP POP POP POP POP JUMPDEST SWAP2 SWAP1 POP JUMP JUMPDEST PUSH0 PUSH0 PUSH0 PUSH0 PUSH0 PUSH2 0x69A PUSH32 0x0 PUSH32 0x0 PUSH2 0xA90 JUMP JUMPDEST POP SWAP4 POP SWAP4 POP SWAP4 POP SWAP4 POP PUSH2 0x6AF DUP3 DUP3 DUP7 DUP7 PUSH2 0xDD3 JUMP JUMPDEST SWAP5 POP POP POP POP POP SWAP1 JUMP JUMPDEST PUSH0 PUSH0 PUSH2 0x6C3 DUP4 PUSH2 0x4D4 JUMP JUMPDEST SWAP1 POP PUSH0 PUSH2 0x6CE PUSH2 0x64B JUMP JUMPDEST SWAP1 POP PUSH2 0x6E3 DUP3 DUP3 PUSH8 0xDE0B6B3A7640000 PUSH2 0x805 JUMP JUMPDEST SWAP3 POP POP POP SWAP2 SWAP1 POP JUMP JUMPDEST PUSH0 PUSH32 0x0 PUSH20 0xFFFFFFFFFFFFFFFFFFFFFFFFFFFFFFFFFFFFFFFF AND DUP3 PUSH20 0xFFFFFFFFFFFFFFFFFFFFFFFFFFFFFFFFFFFFFFFF AND SUB PUSH2 0x750 JUMPI PUSH8 0xDE0B6B3A7640000 SWAP1 POP PUSH2 0x7A7 JUMP JUMPDEST PUSH0 PUSH2 0x75A DUP4 PUSH2 0x969 JUMP JUMPDEST SWAP1 POP PUSH0 PUSH0 PUSH0 PUSH0 PUSH2 0x78A DUP6 PUSH32 0x0 PUSH2 0xA90 JUMP JUMPDEST POP SWAP4 POP SWAP4 POP SWAP4 POP SWAP4 POP PUSH2 0x79F DUP5 DUP5 DUP5 DUP5 PUSH2 0xDD3 JUMP JUMPDEST SWAP6 POP POP POP POP POP POP JUMPDEST SWAP2 SWAP1 POP JUMP JUMPDEST PUSH0 PUSH2 0x7B6 DUP3 PUSH2 0x969 JUMP JUMPDEST SWAP1 POP SWAP2 SWAP1 POP JUMP JUMPDEST PUSH32 0x0 DUP2 JUMP JUMPDEST PUSH32 0x0 DUP2 JUMP JUMPDEST PUSH0 PUSH0 PUSH0 PUSH0 NOT DUP6 DUP8 MULMOD DUP6 DUP8 MUL SWAP3 POP DUP3 DUP2 LT DUP4 DUP3 SUB SUB SWAP2 POP POP PUSH0 DUP2 SUB PUSH2 0x83D JUMPI DUP4 DUP3 DUP2 PUSH2 0x833 JUMPI PUSH2 0x832 PUSH2 0x11B1 JUMP JUMPDEST JUMPDEST DIV SWAP3 POP POP POP PUSH2 0x908 JUMP JUMPDEST DUP1 DUP5 GT PUSH2 0x87F JUMPI PUSH1 0x40 MLOAD PUSH32 0x8C379A000000000000000000000000000000000000000000000000000000000 DUP2 MSTORE PUSH1 0x4 ADD PUSH2 0x876 SWAP1 PUSH2 0x1238 JUMP JUMPDEST PUSH1 0x40 MLOAD DUP1 SWAP2 SUB SWAP1 REVERT JUMPDEST PUSH0 DUP5 DUP7 DUP9 MULMOD SWAP1 POP DUP3 DUP2 GT DUP3 SUB SWAP2 POP DUP1 DUP4 SUB SWAP3 POP PUSH0 PUSH1 0x1 DUP7 NOT ADD DUP7 AND SWAP1 POP DUP1 DUP7 DIV SWAP6 POP DUP1 DUP5 DIV SWAP4 POP PUSH1 0x1 DUP2 DUP3 PUSH0 SUB DIV ADD SWAP1 POP DUP1 DUP4 MUL DUP5 OR SWAP4 POP PUSH0 PUSH1 0x2 DUP8 PUSH1 0x3 MUL XOR SWAP1 POP DUP1 DUP8 MUL PUSH1 0x2 SUB DUP2 MUL SWAP1 POP DUP1 DUP8 MUL PUSH1 0x2 SUB DUP2 MUL SWAP1 POP DUP1 DUP8 MUL PUSH1 0x2 SUB DUP2 MUL SWAP1 POP DUP1 DUP8 MUL PUSH1 0x2 SUB DUP2 MUL SWAP1 POP DUP1 DUP8 MUL PUSH1 0x2 SUB DUP2 MUL SWAP1 POP DUP1 DUP8 MUL PUSH1 0x2 SUB DUP2 MUL SWAP1 POP DUP1 DUP6 MUL SWAP6 POP POP POP POP POP POP JUMPDEST SWAP4 SWAP3 POP POP POP JUMP JUMPDEST PUSH0 PUSH1 0x12 DUP3 PUSH1 0xFF AND SUB PUSH2 0x923 JUMPI DUP3 SWAP1 POP PUSH2 0x963 JUMP JUMPDEST PUSH1 0x12 DUP3 PUSH1 0xFF AND LT ISZERO PUSH2 0x944 JUMPI PUSH2 0x93B DUP3 PUSH1 0x12 SUB PUSH2 0xE41 JUMP JUMPDEST DUP4 MUL SWAP1 POP PUSH2 0x963 JUMP JUMPDEST PUSH2 0x950 PUSH1 0x12 DUP4 SUB PUSH2 0xE41 JUMP JUMPDEST DUP4 DUP2 PUSH2 0x95F JUMPI PUSH2 0x95E PUSH2 0x11B1 JUMP JUMPDEST JUMPDEST DIV SWAP1 POP JUMPDEST SWAP3 SWAP2 POP POP JUMP JUMPDEST PUSH0 PUSH32 0x0 PUSH20 0xFFFFFFFFFFFFFFFFFFFFFFFFFFFFFFFFFFFFFFFF AND PUSH4 0xE6A43905 DUP4 PUSH32 0x0 PUSH1 0x40 MLOAD DUP4 PUSH4 0xFFFFFFFF AND PUSH1 0xE0 SHL DUP2 MSTORE PUSH1 0x4 ADD PUSH2 0x9E5 SWAP3 SWAP2 SWAP1 PUSH2 0x1256 JUMP JUMPDEST PUSH1 0x20 PUSH1 0x40 MLOAD DUP1 DUP4 SUB DUP2 DUP7 GAS STATICCALL ISZERO DUP1 ISZERO PUSH2 0xA00 JUMPI RETURNDATASIZE PUSH0 PUSH0 RETURNDATACOPY RETURNDATASIZE PUSH0 REVERT JUMPDEST POP POP POP POP PUSH1 0x40 MLOAD RETURNDATASIZE PUSH1 0x1F NOT PUSH1 0x1F DUP3 ADD AND DUP3 ADD DUP1 PUSH1 0x40 MSTORE POP DUP2 ADD SWAP1 PUSH2 0xA24 SWAP2 SWAP1 PUSH2 0x1291 JUMP JUMPDEST SWAP1 POP PUSH0 PUSH20 0xFFFFFFFFFFFFFFFFFFFFFFFFFFFFFFFFFFFFFFFF AND DUP2 PUSH20 0xFFFFFFFFFFFFFFFFFFFFFFFFFFFFFFFFFFFFFFFF AND SUB PUSH2 0xA8B JUMPI PUSH1 0x40 MLOAD PUSH32 0xC5FC4BF400000000000000000000000000000000000000000000000000000000 DUP2 MSTORE PUSH1 0x4 ADD PUSH1 0x40 MLOAD DUP1 SWAP2 SUB SWAP1 REVERT JUMPDEST SWAP2 SWAP1 POP JUMP JUMPDEST PUSH0 PUSH0 PUSH0 PUSH0 PUSH0 PUSH0 DUP8 SWAP1 POP PUSH0 PUSH0 DUP3 PUSH20 0xFFFFFFFFFFFFFFFFFFFFFFFFFFFFFFFFFFFFFFFF AND PUSH4 0x902F1AC PUSH1 0x40 MLOAD DUP2 PUSH4 0xFFFFFFFF AND PUSH1 0xE0 SHL DUP2 MSTORE PUSH1 0x4 ADD PUSH1 0x60 PUSH1 0x40 MLOAD DUP1 DUP4 SUB DUP2 DUP7 GAS STATICCALL ISZERO DUP1 ISZERO PUSH2 0xAE4 JUMPI RETURNDATASIZE PUSH0 PUSH0 RETURNDATACOPY RETURNDATASIZE PUSH0 REVERT JUMPDEST POP POP POP POP PUSH1 0x40 MLOAD RETURNDATASIZE PUSH1 0x1F NOT PUSH1 0x1F DUP3 ADD AND DUP3 ADD DUP1 PUSH1 0x40 MSTORE POP DUP2 ADD SWAP1 PUSH2 0xB08 SWAP2 SWAP1 PUSH2 0x1338 JUMP JUMPDEST POP SWAP2 POP SWAP2 POP PUSH0 DUP4 PUSH20 0xFFFFFFFFFFFFFFFFFFFFFFFFFFFFFFFFFFFFFFFF AND PUSH4 0xDFE1681 PUSH1 0x40 MLOAD DUP2 PUSH4 0xFFFFFFFF AND PUSH1 0xE0 SHL DUP2 MSTORE PUSH1 0x4 ADD PUSH1 0x20 PUSH1 0x40 MLOAD DUP1 DUP4 SUB DUP2 DUP7 GAS STATICCALL ISZERO DUP1 ISZERO PUSH2 0xB57 JUMPI RETURNDATASIZE PUSH0 PUSH0 RETURNDATACOPY RETURNDATASIZE PUSH0 REVERT JUMPDEST POP POP POP POP PUSH1 0x40 MLOAD RETURNDATASIZE PUSH1 0x1F NOT PUSH1 0x1F DUP3 ADD AND DUP3 ADD DUP1 PUSH1 0x40 MSTORE POP DUP2 ADD SWAP1 PUSH2 0xB7B SWAP2 SWAP1 PUSH2 0x1291 JUMP JUMPDEST SWAP1 POP PUSH0 DUP5 PUSH20 0xFFFFFFFFFFFFFFFFFFFFFFFFFFFFFFFFFFFFFFFF AND PUSH4 0xD21220A7 PUSH1 0x40 MLOAD DUP2 PUSH4 0xFFFFFFFF AND PUSH1 0xE0 SHL DUP2 MSTORE PUSH1 0x4 ADD PUSH1 0x20 PUSH1 0x40 MLOAD DUP1 DUP4 SUB DUP2 DUP7 GAS STATICCALL ISZERO DUP1 ISZERO PUSH2 0xBC7 JUMPI RETURNDATASIZE PUSH0 PUSH0 RETURNDATACOPY RETURNDATASIZE PUSH0 REVERT JUMPDEST POP POP POP POP PUSH1 0x40 MLOAD RETURNDATASIZE PUSH1 0x1F NOT PUSH1 0x1F DUP3 ADD AND DUP3 ADD DUP1 PUSH1 0x40 MSTORE POP DUP2 ADD SWAP1 PUSH2 0xBEB SWAP2 SWAP1 PUSH2 0x1291 JUMP JUMPDEST SWAP1 POP PUSH0 DUP12 PUSH20 0xFFFFFFFFFFFFFFFFFFFFFFFFFFFFFFFFFFFFFFFF AND DUP4 PUSH20 0xFFFFFFFFFFFFFFFFFFFFFFFFFFFFFFFFFFFFFFFF AND SUB PUSH2 0xC2A JUMPI PUSH1 0x1 SWAP1 POP PUSH2 0xC98 JUMP JUMPDEST DUP12 PUSH20 0xFFFFFFFFFFFFFFFFFFFFFFFFFFFFFFFFFFFFFFFF AND DUP3 PUSH20 0xFFFFFFFFFFFFFFFFFFFFFFFFFFFFFFFFFFFFFFFF AND SUB PUSH2 0xC65 JUMPI PUSH0 SWAP1 POP PUSH2 0xC97 JUMP JUMPDEST PUSH1 0x40 MLOAD PUSH32 0x17B2F78000000000000000000000000000000000000000000000000000000000 DUP2 MSTORE PUSH1 0x4 ADD PUSH1 0x40 MLOAD DUP1 SWAP2 SUB SWAP1 REVERT JUMPDEST JUMPDEST DUP1 PUSH2 0xCA3 JUMPI DUP4 PUSH2 0xCA5 JUMP JUMPDEST DUP5 JUMPDEST PUSH14 0xFFFFFFFFFFFFFFFFFFFFFFFFFFFF AND SWAP11 POP DUP1 PUSH2 0xCC2 JUMPI DUP5 PUSH2 0xCC4 JUMP JUMPDEST DUP4 JUMPDEST PUSH14 0xFFFFFFFFFFFFFFFFFFFFFFFFFFFF AND SWAP9 POP DUP1 PUSH2 0xCE1 JUMPI DUP3 PUSH2 0xCE3 JUMP JUMPDEST DUP2 JUMPDEST SWAP7 POP DUP12 PUSH20 0xFFFFFFFFFFFFFFFFFFFFFFFFFFFFFFFFFFFFFFFF AND PUSH4 0x313CE567 PUSH1 0x40 MLOAD DUP2 PUSH4 0xFFFFFFFF AND PUSH1 0xE0 SHL DUP2 MSTORE PUSH1 0x4 ADD PUSH1 0x20 PUSH1 0x40 MLOAD DUP1 DUP4 SUB DUP2 DUP7 GAS STATICCALL ISZERO DUP1 ISZERO PUSH2 0xD2E JUMPI RETURNDATASIZE PUSH0 PUSH0 RETURNDATACOPY RETURNDATASIZE PUSH0 REVERT JUMPDEST POP POP POP POP PUSH1 0x40 MLOAD RETURNDATASIZE PUSH1 0x1F NOT PUSH1 0x1F DUP3 ADD AND DUP3 ADD DUP1 PUSH1 0x40 MSTORE POP DUP2 ADD SWAP1 PUSH2 0xD52 SWAP2 SWAP1 PUSH2 0x1186 JUMP JUMPDEST SWAP10 POP DUP7 PUSH20 0xFFFFFFFFFFFFFFFFFFFFFFFFFFFFFFFFFFFFFFFF AND PUSH4 0x313CE567 PUSH1 0x40 MLOAD DUP2 PUSH4 0xFFFFFFFF AND PUSH1 0xE0 SHL DUP2 MSTORE PUSH1 0x4 ADD PUSH1 0x20 PUSH1 0x40 MLOAD DUP1 DUP4 SUB DUP2 DUP7 GAS STATICCALL ISZERO DUP1 ISZERO PUSH2 0xD9D JUMPI RETURNDATASIZE PUSH0 PUSH0 RETURNDATACOPY RETURNDATASIZE PUSH0 REVERT JUMPDEST POP POP POP POP PUSH1 0x40 MLOAD RETURNDATASIZE PUSH1 0x1F NOT PUSH1 0x1F DUP3 ADD AND DUP3 ADD DUP1 PUSH1 0x40 MSTORE POP DUP2 ADD SWAP1 PUSH2 0xDC1 SWAP2 SWAP1 PUSH2 0x1186 JUMP JUMPDEST SWAP8 POP POP POP POP POP POP POP SWAP3 SWAP6 POP SWAP3 SWAP6 SWAP1 SWAP4 POP JUMP JUMPDEST PUSH0 PUSH0 DUP5 PUSH1 0xFF AND DUP4 PUSH1 0xFF AND LT PUSH2 0xDFE JUMPI PUSH2 0xDED DUP6 DUP5 SUB PUSH2 0xE41 JUMP JUMPDEST PUSH8 0xDE0B6B3A7640000 MUL SWAP1 POP PUSH2 0xE2A JUMP JUMPDEST PUSH0 PUSH2 0xE0A DUP5 DUP8 SUB PUSH2 0xE41 JUMP JUMPDEST DUP6 MUL SWAP1 POP PUSH2 0xE21 DUP8 PUSH8 0xDE0B6B3A7640000 DUP4 PUSH2 0x805 JUMP JUMPDEST SWAP3 POP POP POP PUSH2 0xE39 JUMP JUMPDEST PUSH2 0xE35 DUP7 DUP3 DUP7 PUSH2 0x805 JUMP JUMPDEST SWAP2 POP POP JUMPDEST SWAP5 SWAP4 POP POP POP POP JUMP JUMPDEST PUSH0 PUSH0 DUP3 PUSH1 0xFF AND SUB PUSH2 0xE55 JUMPI PUSH1 0x1 SWAP1 POP PUSH2 0xFEC JUMP JUMPDEST PUSH1 0x1 DUP3 PUSH1 0xFF AND SUB PUSH2 0xE69 JUMPI PUSH1 0xA SWAP1 POP PUSH2 0xFEC JUMP JUMPDEST PUSH1 0x2 DUP3 PUSH1 0xFF AND SUB PUSH2 0xE7D JUMPI PUSH1 0x64 SWAP1 POP PUSH2 0xFEC JUMP JUMPDEST PUSH1 0x3 DUP3 PUSH1 0xFF AND SUB PUSH2 0xE92 JUMPI PUSH2 0x3E8 SWAP1 POP PUSH2 0xFEC JUMP JUMPDEST PUSH1 0x4 DUP3 PUSH1 0xFF AND SUB PUSH2 0xEA7 JUMPI PUSH2 0x2710 SWAP1 POP PUSH2 0xFEC JUMP JUMPDEST PUSH1 0x5 DUP3 PUSH1 0xFF AND SUB PUSH2 0xEBD JUMPI PUSH3 0x186A0 SWAP1 POP PUSH2 0xFEC JUMP JUMPDEST PUSH1 0x6 DUP3 PUSH1 0xFF AND SUB PUSH2 0xED3 JUMPI PUSH3 0xF4240 SWAP1 POP PUSH2 0xFEC JUMP JUMPDEST PUSH1 0x7 DUP3 PUSH1 0xFF AND SUB PUSH2 0xEE9 JUMPI PUSH3 0x989680 SWAP1 POP PUSH2 0xFEC JUMP JUMPDEST PUSH1 0x8 DUP3 PUSH1 0xFF AND SUB PUSH2 0xF00 JUMPI PUSH4 0x5F5E100 SWAP1 POP PUSH2 0xFEC JUMP JUMPDEST PUSH1 0x9 DUP3 PUSH1 0xFF AND SUB PUSH2 0xF17 JUMPI PUSH4 0x3B9ACA00 SWAP1 POP PUSH2 0xFEC JUMP JUMPDEST PUSH1 0xA DUP3 PUSH1 0xFF AND SUB PUSH2 0xF2F JUMPI PUSH5 0x2540BE400 SWAP1 POP PUSH2 0xFEC JUMP JUMPDEST PUSH1 0xB DUP3 PUSH1 0xFF AND SUB PUSH2 0xF47 JUMPI PUSH5 0x174876E800 SWAP1 POP PUSH2 0xFEC JUMP JUMPDEST PUSH1 0xC DUP3 PUSH1 0xFF AND SUB PUSH2 0xF5F JUMPI PUSH5 0xE8D4A51000 SWAP1 POP PUSH2 0xFEC JUMP JUMPDEST PUSH1 0xD DUP3 PUSH1 0xFF AND SUB PUSH2 0xF78 JUMPI PUSH6 0x9184E72A000 SWAP1 POP PUSH2 0xFEC JUMP JUMPDEST PUSH1 0xE DUP3 PUSH1 0xFF AND SUB PUSH2 0xF91 JUMPI PUSH6 0x5AF3107A4000 SWAP1 POP PUSH2 0xFEC JUMP JUMPDEST PUSH1 0xF DUP3 PUSH1 0xFF AND SUB PUSH2 0xFAB JUMPI PUSH7 0x38D7EA4C68000 SWAP1 POP PUSH2 0xFEC JUMP JUMPDEST PUSH1 0x10 DUP3 PUSH1 0xFF AND SUB PUSH2 0xFC5 JUMPI PUSH7 0x2386F26FC10000 SWAP1 POP PUSH2 0xFEC JUMP JUMPDEST PUSH1 0x11 DUP3 PUSH1 0xFF AND SUB PUSH2 0xFE0 JUMPI PUSH8 0x16345785D8A0000 SWAP1 POP PUSH2 0xFEC JUMP JUMPDEST PUSH8 0xDE0B6B3A7640000 SWAP1 POP JUMPDEST SWAP2 SWAP1 POP JUMP JUMPDEST PUSH0 PUSH0 REVERT JUMPDEST PUSH0 PUSH20 0xFFFFFFFFFFFFFFFFFFFFFFFFFFFFFFFFFFFFFFFF DUP3 AND SWAP1 POP SWAP2 SWAP1 POP JUMP JUMPDEST PUSH0 PUSH2 0x101E DUP3 PUSH2 0xFF5 JUMP JUMPDEST SWAP1 POP SWAP2 SWAP1 POP JUMP JUMPDEST PUSH2 0x102E DUP2 PUSH2 0x1014 JUMP JUMPDEST DUP2 EQ PUSH2 0x1038 JUMPI PUSH0 PUSH0 REVERT JUMPDEST POP JUMP JUMPDEST PUSH0 DUP2 CALLDATALOAD SWAP1 POP PUSH2 0x1049 DUP2 PUSH2 0x1025 JUMP JUMPDEST SWAP3 SWAP2 POP POP JUMP JUMPDEST PUSH0 PUSH1 0x20 DUP3 DUP5 SUB SLT ISZERO PUSH2 0x1064 JUMPI PUSH2 0x1063 PUSH2 0xFF1 JUMP JUMPDEST JUMPDEST PUSH0 PUSH2 0x1071 DUP5 DUP3 DUP6 ADD PUSH2 0x103B JUMP JUMPDEST SWAP2 POP POP SWAP3 SWAP2 POP POP JUMP JUMPDEST PUSH0 DUP2 SWAP1 POP SWAP2 SWAP1 POP JUMP JUMPDEST PUSH2 0x108C DUP2 PUSH2 0x107A JUMP JUMPDEST DUP3 MSTORE POP POP JUMP JUMPDEST PUSH0 PUSH1 0x20 DUP3 ADD SWAP1 POP PUSH2 0x10A5 PUSH0 DUP4 ADD DUP5 PUSH2 0x1083 JUMP JUMPDEST SWAP3 SWAP2 POP POP JUMP JUMPDEST PUSH2 0x10B4 DUP2 PUSH2 0x1014 JUMP JUMPDEST DUP3 MSTORE POP POP JUMP JUMPDEST PUSH0 PUSH1 0x20 DUP3 ADD SWAP1 POP PUSH2 0x10CD PUSH0 DUP4 ADD DUP5 PUSH2 0x10AB JUMP JUMPDEST SWAP3 SWAP2 POP POP JUMP JUMPDEST PUSH0 PUSH1 0xFF DUP3 AND SWAP1 POP SWAP2 SWAP1 POP JUMP JUMPDEST PUSH2 0x10E8 DUP2 PUSH2 0x10D3 JUMP JUMPDEST DUP3 MSTORE POP POP JUMP JUMPDEST PUSH0 PUSH1 0x20 DUP3 ADD SWAP1 POP PUSH2 0x1101 PUSH0 DUP4 ADD DUP5 PUSH2 0x10DF JUMP JUMPDEST SWAP3 SWAP2 POP POP JUMP JUMPDEST PUSH2 0x1110 DUP2 PUSH2 0x107A JUMP JUMPDEST DUP2 EQ PUSH2 0x111A JUMPI PUSH0 PUSH0 REVERT JUMPDEST POP JUMP JUMPDEST PUSH0 DUP2 MLOAD SWAP1 POP PUSH2 0x112B DUP2 PUSH2 0x1107 JUMP JUMPDEST SWAP3 SWAP2 POP POP JUMP JUMPDEST PUSH0 PUSH1 0x20 DUP3 DUP5 SUB SLT ISZERO PUSH2 0x1146 JUMPI PUSH2 0x1145 PUSH2 0xFF1 JUMP JUMPDEST JUMPDEST PUSH0 PUSH2 0x1153 DUP5 DUP3 DUP6 ADD PUSH2 0x111D JUMP JUMPDEST SWAP2 POP POP SWAP3 SWAP2 POP POP JUMP JUMPDEST PUSH2 0x1165 DUP2 PUSH2 0x10D3 JUMP JUMPDEST DUP2 EQ PUSH2 0x116F JUMPI PUSH0 PUSH0 REVERT JUMPDEST POP JUMP JUMPDEST PUSH0 DUP2 MLOAD SWAP1 POP PUSH2 0x1180 DUP2 PUSH2 0x115C JUMP JUMPDEST SWAP3 SWAP2 POP POP JUMP JUMPDEST PUSH0 PUSH1 0x20 DUP3 DUP5 SUB SLT ISZERO PUSH2 0x119B JUMPI PUSH2 0x119A PUSH2 0xFF1 JUMP JUMPDEST JUMPDEST PUSH0 PUSH2 0x11A8 DUP5 DUP3 DUP6 ADD PUSH2 0x1172 JUMP JUMPDEST SWAP2 POP POP SWAP3 SWAP2 POP POP JUMP JUMPDEST PUSH32 0x4E487B7100000000000000000000000000000000000000000000000000000000 PUSH0 MSTORE PUSH1 0x12 PUSH1 0x4 MSTORE PUSH1 0x24 PUSH0 REVERT JUMPDEST PUSH0 DUP3 DUP3 MSTORE PUSH1 0x20 DUP3 ADD SWAP1 POP SWAP3 SWAP2 POP POP JUMP JUMPDEST PUSH32 0x6D756C446976206F766572666C6F770000000000000000000000000000000000 PUSH0 DUP3 ADD MSTORE POP JUMP JUMPDEST PUSH0 PUSH2 0x1222 PUSH1 0xF DUP4 PUSH2 0x11DE JUMP JUMPDEST SWAP2 POP PUSH2 0x122D DUP3 PUSH2 0x11EE JUMP JUMPDEST PUSH1 0x20 DUP3 ADD SWAP1 POP SWAP2 SWAP1 POP JUMP JUMPDEST PUSH0 PUSH1 0x20 DUP3 ADD SWAP1 POP DUP2 DUP2 SUB PUSH0 DUP4 ADD MSTORE PUSH2 0x124F DUP2 PUSH2 0x1216 JUMP JUMPDEST SWAP1 POP SWAP2 SWAP1 POP JUMP JUMPDEST PUSH0 PUSH1 0x40 DUP3 ADD SWAP1 POP PUSH2 0x1269 PUSH0 DUP4 ADD DUP6 PUSH2 0x10AB JUMP JUMPDEST PUSH2 0x1276 PUSH1 0x20 DUP4 ADD DUP5 PUSH2 0x10AB JUMP JUMPDEST SWAP4 SWAP3 POP POP POP JUMP JUMPDEST PUSH0 DUP2 MLOAD SWAP1 POP PUSH2 0x128B DUP2 PUSH2 0x1025 JUMP JUMPDEST SWAP3 SWAP2 POP POP JUMP JUMPDEST PUSH0 PUSH1 0x20 DUP3 DUP5 SUB SLT ISZERO PUSH2 0x12A6 JUMPI PUSH2 0x12A5 PUSH2 0xFF1 JUMP JUMPDEST JUMPDEST PUSH0 PUSH2 0x12B3 DUP5 DUP3 DUP6 ADD PUSH2 0x127D JUMP JUMPDEST SWAP2 POP POP SWAP3 SWAP2 POP POP JUMP JUMPDEST PUSH0 PUSH14 0xFFFFFFFFFFFFFFFFFFFFFFFFFFFF DUP3 AND SWAP1 POP SWAP2 SWAP1 POP JUMP JUMPDEST PUSH2 0x12DE DUP2 PUSH2 0x12BC JUMP JUMPDEST DUP2 EQ PUSH2 0x12E8 JUMPI PUSH0 PUSH0 REVERT JUMPDEST POP JUMP JUMPDEST PUSH0 DUP2 MLOAD SWAP1 POP PUSH2 0x12F9 DUP2 PUSH2 0x12D5 JUMP JUMPDEST SWAP3 SWAP2 POP POP JUMP JUMPDEST PUSH0 PUSH4 0xFFFFFFFF DUP3 AND SWAP1 POP SWAP2 SWAP1 POP JUMP JUMPDEST PUSH2 0x1317 DUP2 PUSH2 0x12FF JUMP JUMPDEST DUP2 EQ PUSH2 0x1321 JUMPI PUSH0 PUSH0 REVERT JUMPDEST POP JUMP JUMPDEST PUSH0 DUP2 MLOAD SWAP1 POP PUSH2 0x1332 DUP2 PUSH2 0x130E JUMP JUMPDEST SWAP3 SWAP2 POP POP JUMP JUMPDEST PUSH0 PUSH0 PUSH0 PUSH1 0x60 DUP5 DUP7 SUB SLT ISZERO PUSH2 0x134F JUMPI PUSH2 0x134E PUSH2 0xFF1 JUMP JUMPDEST JUMPDEST PUSH0 PUSH2 0x135C DUP7 DUP3 DUP8 ADD PUSH2 0x12EB JUMP JUMPDEST SWAP4 POP POP PUSH1 0x20 PUSH2 0x136D DUP7 DUP3 DUP8 ADD PUSH2 0x12EB JUMP JUMPDEST SWAP3 POP POP PUSH1 0x40 PUSH2 0x137E DUP7 DUP3 DUP8 ADD PUSH2 0x1324 JUMP JUMPDEST SWAP2 POP POP SWAP3 POP SWAP3 POP SWAP3 JUMP INVALID LOG2 PUSH5 0x6970667358 0x22 SLT KECCAK256 0xB6 PUSH6 0xC5E5B8EBB751 SHL 0xBD SWAP10 0xB8 LT 0xBD EXTSTATICCALL EXTCODECOPY SWAPN 0x97 0xE CALLVALUE 0xDF SSTORE DELEGATECALL PUSH16 0x5D50AE7646DE394D64736F6C63430008 0x1E STOP CALLER "
		},
		"gasEstimates": {
			"creation": {
				"codeDepositCost": "1010800",
				"executionCost": "infinite",
				"totalCost": "infinite"
			},
			"external": {
				"UNISWAP_V2_FACTORY_ADDRESS()": "infinite",
				"WETH_ADDRESS()": "infinite",
				"WETH_DECIMALS()": "infinite",
				"WETH_USD_PAIR_ADDRESS()": "infinite",
				"getTokenLiquidityUsd(address)": "infinite",
				"getTokenLiquidityWeth(address)": "infinite",
				"getTokenMarketCapUsd(address)": "infinite",
				"getTokenMarketCapWeth(address)": "infinite",
				"getTokenUsdPrice(address)": "infinite",
				"getTokenWethPairAddress(address)": "infinite",
				"getTokenWethPrice(address)": "infinite",
				"getWethUsdPrice()": "infinite"
			}
		},
		"methodIdentifiers": {
			"UNISWAP_V2_FACTORY_ADDRESS()": "884ec7a9",
			"WETH_ADDRESS()": "040141e5",
			"WETH_DECIMALS()": "d08aef7c",
			"WETH_USD_PAIR_ADDRESS()": "0b017603",
			"getTokenLiquidityUsd(address)": "57b6c133",
			"getTokenLiquidityWeth(address)": "0dbc0d7d",
			"getTokenMarketCapUsd(address)": "69a2e17d",
			"getTokenMarketCapWeth(address)": "63aa0c93",
			"getTokenUsdPrice(address)": "00593bcf",
			"getTokenWethPairAddress(address)": "7d1aa610",
			"getTokenWethPrice(address)": "7b49b49d",
			"getWethUsdPrice()": "6855e939"
		}
	},
	"abi": [
		{
			"inputs": [
				{
					"internalType": "address",
					"name": "_wethAddress",
					"type": "address"
				},
				{
					"internalType": "address",
					"name": "_wethUsdPairAddress",
					"type": "address"
				},
				{
					"internalType": "address",
					"name": "_uniswapV2FactoryAddress",
					"type": "address"
				}
			],
			"stateMutability": "nonpayable",
			"type": "constructor"
		},
		{
			"inputs": [],
			"name": "PairDoesNotContainBase",
			"type": "error"
		},
		{
			"inputs": [],
			"name": "PairDoesNotExist",
			"type": "error"
		},
		{
			"inputs": [],
			"name": "UNISWAP_V2_FACTORY_ADDRESS",
			"outputs": [
				{
					"internalType": "address",
					"name": "",
					"type": "address"
				}
			],
			"stateMutability": "view",
			"type": "function"
		},
		{
			"inputs": [],
			"name": "WETH_ADDRESS",
			"outputs": [
				{
					"internalType": "address",
					"name": "",
					"type": "address"
				}
			],
			"stateMutability": "view",
			"type": "function"
		},
		{
			"inputs": [],
			"name": "WETH_DECIMALS",
			"outputs": [
				{
					"internalType": "uint8",
					"name": "",
					"type": "uint8"
				}
			],
			"stateMutability": "view",
			"type": "function"
		},
		{
			"inputs": [],
			"name": "WETH_USD_PAIR_ADDRESS",
			"outputs": [
				{
					"internalType": "address",
					"name": "",
					"type": "address"
				}
			],
			"stateMutability": "view",
			"type": "function"
		},
		{
			"inputs": [
				{
					"internalType": "address",
					"name": "tokenAddress",
					"type": "address"
				}
			],
			"name": "getTokenLiquidityUsd",
			"outputs": [
				{
					"internalType": "uint256",
					"name": "totalLiquidityUsd18",
					"type": "uint256"
				}
			],
			"stateMutability": "view",
			"type": "function"
		},
		{
			"inputs": [
				{
					"internalType": "address",
					"name": "tokenAddress",
					"type": "address"
				}
			],
			"name": "getTokenLiquidityWeth",
			"outputs": [
				{
					"internalType": "uint256",
					"name": "",
					"type": "uint256"
				}
			],
			"stateMutability": "view",
			"type": "function"
		},
		{
			"inputs": [
				{
					"internalType": "address",
					"name": "tokenAddress",
					"type": "address"
				}
			],
			"name": "getTokenMarketCapUsd",
			"outputs": [
				{
					"internalType": "uint256",
					"name": "marketCapUsd18",
					"type": "uint256"
				}
			],
			"stateMutability": "view",
			"type": "function"
		},
		{
			"inputs": [
				{
					"internalType": "address",
					"name": "tokenAddress",
					"type": "address"
				}
			],
			"name": "getTokenMarketCapWeth",
			"outputs": [
				{
					"internalType": "uint256",
					"name": "",
					"type": "uint256"
				}
			],
			"stateMutability": "view",
			"type": "function"
		},
		{
			"inputs": [
				{
					"internalType": "address",
					"name": "tokenAddress",
					"type": "address"
				}
			],
			"name": "getTokenUsdPrice",
			"outputs": [
				{
					"internalType": "uint256",
					"name": "price18",
					"type": "uint256"
				}
			],
			"stateMutability": "view",
			"type": "function"
		},
		{
			"inputs": [
				{
					"internalType": "address",
					"name": "tokenAddress",
					"type": "address"
				}
			],
			"name": "getTokenWethPairAddress",
			"outputs": [
				{
					"internalType": "address",
					"name": "",
					"type": "address"
				}
			],
			"stateMutability": "view",
			"type": "function"
		},
		{
			"inputs": [
				{
					"internalType": "address",
					"name": "tokenAddress",
					"type": "address"
				}
			],
			"name": "getTokenWethPrice",
			"outputs": [
				{
					"internalType": "uint256",
					"name": "",
					"type": "uint256"
				}
			],
			"stateMutability": "view",
			"type": "function"
		},
		{
			"inputs": [],
			"name": "getWethUsdPrice",
			"outputs": [
				{
					"internalType": "uint256",
					"name": "price18",
					"type": "uint256"
				}
			],
			"stateMutability": "view",
			"type": "function"
		}
	]
}