{
	"data": {
		"bytecode": {
			"linkReferences": {},
			"object": "610100604052348015610010575f5ffd5b506040516126fa3803806126fa8339818101604052810190610032919061037e565b836100428161013a60201b60201c565b508273ffffffffffffffffffffffffffffffffffffffff1660808173ffffffffffffffffffffffffffffffffffffffff16815250508173ffffffffffffffffffffffffffffffffffffffff1660a08173ffffffffffffffffffffffffffffffffffffffff168152505080151560c0811515815250508273ffffffffffffffffffffffffffffffffffffffff1663313ce5676040518163ffffffff1660e01b8152600401602060405180830381865afa158015610100573d5f5f3e3d5ffd5b505050506040513d601f19601f820116820180604052508101906101249190610418565b60ff1660e08160ff1681525050505050506105dc565b5f73ffffffffffffffffffffffffffffffffffffffff168173ffffffffffffffffffffffffffffffffffffffff16036101a8576040517f08c379a000000000000000000000000000000000000000000000000000000000815260040161019f9061049d565b60405180910390fd5b5f8173ffffffffffffffffffffffffffffffffffffffff163b11610201576040517f08c379a00000000000000000000000000000000000000000000000000000000081526004016101f890610505565b60405180910390fd5b8073ffffffffffffffffffffffffffffffffffffffff16638da5cb5b6040518163ffffffff1660e01b8152600401602060405180830381865afa92505050801561026957506040513d601f19601f820116820180604052508101906102669190610523565b60015b6102a8576040517f08c379a000000000000000000000000000000000000000000000000000000000815260040161029f906105be565b60405180910390fd5b815f5f6101000a81548173ffffffffffffffffffffffffffffffffffffffff021916908373ffffffffffffffffffffffffffffffffffffffff1602179055505050565b5f5ffd5b5f73ffffffffffffffffffffffffffffffffffffffff82169050919050565b5f610318826102ef565b9050919050565b6103288161030e565b8114610332575f5ffd5b50565b5f815190506103438161031f565b92915050565b5f8115159050919050565b61035d81610349565b8114610367575f5ffd5b50565b5f8151905061037881610354565b92915050565b5f5f5f5f60808587031215610396576103956102eb565b5b5f6103a387828801610335565b94505060206103b487828801610335565b93505060406103c587828801610335565b92505060606103d68782880161036a565b91505092959194509250565b5f60ff82169050919050565b6103f7816103e2565b8114610401575f5ffd5b50565b5f81519050610412816103ee565b92915050565b5f6020828403121561042d5761042c6102eb565b5b5f61043a84828501610404565b91505092915050565b5f82825260208201905092915050565b7f4469726563746f72792063616e6e6f74206265207a65726f20616464726573735f82015250565b5f610487602083610443565b915061049282610453565b602082019050919050565b5f6020820190508181035f8301526104b48161047b565b9050919050565b7f4469726563746f7279206d757374206265206120636f6e7472616374000000005f82015250565b5f6104ef601c83610443565b91506104fa826104bb565b602082019050919050565b5f6020820190508181035f83015261051c816104e3565b9050919050565b5f60208284031215610538576105376102eb565b5b5f61054584828501610335565b91505092915050565b7f4469726563746f7279206164647265737320646f6573206e6f7420696d706c655f8201527f6d656e74206f776e657228290000000000000000000000000000000000000000602082015250565b5f6105a8602c83610443565b91506105b38261054e565b604082019050919050565b5f6020820190508181035f8301526105d58161059c565b9050919050565b60805160a05160c05160e0516120ac61064e5f395f81816104d60152610b4601525f818161061f015261081a01525f81816103ca015261083b01525f81816103a6015281816103ef01528181610443015281816107650152818161085c015281816108d5015261095001526120ac5ff3fe608060405234801561000f575f5ffd5b50600436106100fd575f3560e01c8063658a847a116100955780637d1aa610116100645780637d1aa610146102e75780638da5cb5b14610318578063ba4c7be114610336578063d08aef7c14610352576100fd565b8063658a847a1461024b5780636855e9391461026957806369a2e17d146102875780637b49b49d146102b7576100fd565b806327262618116100d1578063272626181461019d5780635498f4bc146101cd57806357b6c133146101eb57806363aa0c931461021b576100fd565b8062593bcf14610101578063040141e5146101315780630b0176031461014f5780630dbc0d7d1461016d575b5f5ffd5b61011b600480360381019061011691906117c4565b610370565b6040516101289190611807565b60405180910390f35b6101396103a4565b604051610146919061182f565b60405180910390f35b6101576103c8565b604051610164919061182f565b60405180910390f35b610187600480360381019061018291906117c4565b6103ec565b6040516101949190611807565b60405180910390f35b6101b760048036038101906101b29190611984565b61057d565b6040516101c4919061182f565b60405180910390f35b6101d561061d565b6040516101e291906119e5565b60405180910390f35b610205600480360381019061020091906117c4565b610641565b6040516102129190611807565b60405180910390f35b610235600480360381019061023091906117c4565b610675565b6040516102429190611807565b60405180910390f35b6102536107ec565b6040516102609190611a59565b60405180910390f35b610271610810565b60405161027e9190611807565b60405180910390f35b6102a1600480360381019061029c91906117c4565b61089e565b6040516102ae9190611807565b60405180910390f35b6102d160048036038101906102cc91906117c4565b6108d2565b6040516102de9190611807565b60405180910390f35b61030160048036038101906102fc91906117c4565b610997565b60405161030f929190611a72565b60405180910390f35b6103206109ab565b60405161032d919061182f565b60405180910390f35b610350600480360381019061034b91906117c4565b610a3e565b005b61035a610b44565b6040516103679190611ab4565b60405180910390f35b5f5f61037b836108d2565b90505f610386610810565b905061039b8282670de0b6b3a7640000610b68565b92505050919050565b7f000000000000000000000000000000000000000000000000000000000000000081565b7f000000000000000000000000000000000000000000000000000000000000000081565b5f7f000000000000000000000000000000000000000000000000000000000000000073ffffffffffffffffffffffffffffffffffffffff168273ffffffffffffffffffffffffffffffffffffffff1603610502575f7f000000000000000000000000000000000000000000000000000000000000000073ffffffffffffffffffffffffffffffffffffffff166318160ddd6040518163ffffffff1660e01b8152600401602060405180830381865afa1580156104aa573d5f5f3e3d5ffd5b505050506040513d601f19601f820116820180604052508101906104ce9190611af7565b90506104fa817f0000000000000000000000000000000000000000000000000000000000000000610c72565b915050610578565b5f5f61050d84610ccc565b915091505f5f5f5f61052086868a610dd1565b5093509350935093505f6105348585610c72565b90505f6105418484610c72565b90505f61055085858989611302565b90505f6105668483670de0b6b3a7640000610b68565b90508281019a50505050505050505050505b919050565b5f5f5f9054906101000a900473ffffffffffffffffffffffffffffffffffffffff1673ffffffffffffffffffffffffffffffffffffffff166327262618836040518263ffffffff1660e01b81526004016105d79190611b82565b602060405180830381865afa1580156105f2573d5f5f3e3d5ffd5b505050506040513d601f19601f820116820180604052508101906106169190611bb6565b9050919050565b7f000000000000000000000000000000000000000000000000000000000000000081565b5f5f61064c836103ec565b90505f610657610810565b905061066c8282670de0b6b3a7640000610b68565b92505050919050565b5f5f8273ffffffffffffffffffffffffffffffffffffffff166318160ddd6040518163ffffffff1660e01b8152600401602060405180830381865afa1580156106c0573d5f5f3e3d5ffd5b505050506040513d601f19601f820116820180604052508101906106e49190611af7565b90505f8373ffffffffffffffffffffffffffffffffffffffff1663313ce5676040518163ffffffff1660e01b8152600401602060405180830381865afa158015610730573d5f5f3e3d5ffd5b505050506040513d601f19601f820116820180604052508101906107549190611c0b565b90505f6107618383610c72565b90507f000000000000000000000000000000000000000000000000000000000000000073ffffffffffffffffffffffffffffffffffffffff168573ffffffffffffffffffffffffffffffffffffffff16036107c1578093505050506107e7565b5f6107cb866108d2565b90506107e08282670de0b6b3a7640000610b68565b9450505050505b919050565b5f5f9054906101000a900473ffffffffffffffffffffffffffffffffffffffff1681565b5f5f5f5f5f6108807f00000000000000000000000000000000000000000000000000000000000000007f00000000000000000000000000000000000000000000000000000000000000007f0000000000000000000000000000000000000000000000000000000000000000610dd1565b50935093509350935061089582828686611302565b94505050505090565b5f5f6108a983610675565b90505f6108b4610810565b90506108c98282670de0b6b3a7640000610b68565b92505050919050565b5f7f000000000000000000000000000000000000000000000000000000000000000073ffffffffffffffffffffffffffffffffffffffff168273ffffffffffffffffffffffffffffffffffffffff160361093657670de0b6b3a76400009050610992565b5f5f61094184610ccc565b915091505f5f5f5f61097486867f0000000000000000000000000000000000000000000000000000000000000000610dd1565b50935093509350935061098984848484611302565b96505050505050505b919050565b5f5f6109a283610ccc565b91509150915091565b5f5f5f9054906101000a900473ffffffffffffffffffffffffffffffffffffffff1673ffffffffffffffffffffffffffffffffffffffff16638da5cb5b6040518163ffffffff1660e01b8152600401602060405180830381865afa158015610a15573d5f5f3e3d5ffd5b505050506040513d601f19601f82011682018060405250810190610a399190611bb6565b905090565b5f5f9054906101000a900473ffffffffffffffffffffffffffffffffffffffff1673ffffffffffffffffffffffffffffffffffffffff16638da5cb5b6040518163ffffffff1660e01b8152600401602060405180830381865afa158015610aa7573d5f5f3e3d5ffd5b505050506040513d601f19601f82011682018060405250810190610acb9190611bb6565b73ffffffffffffffffffffffffffffffffffffffff163373ffffffffffffffffffffffffffffffffffffffff1614610b38576040517f08c379a0000000000000000000000000000000000000000000000000000000008152600401610b2f90611c80565b60405180910390fd5b610b41816113b4565b50565b7f000000000000000000000000000000000000000000000000000000000000000081565b5f5f5f5f198587098587029250828110838203039150505f8103610ba057838281610b9657610b95611c9e565b5b0492505050610c6b565b808411610be2576040517f08c379a0000000000000000000000000000000000000000000000000000000008152600401610bd990611d15565b60405180910390fd5b5f8486880990508281118203915080830392505f60018619018616905080860495508084049350600181825f0304019050808302841793505f600287600302189050808702600203810290508087026002038102905080870260020381029050808702600203810290508087026002038102905080870260020381029050808502955050505050505b9392505050565b5f60128260ff1603610c8657829050610cc6565b60128260ff161015610ca757610c9e82601203611565565b83029050610cc6565b610cb360128303611565565b8381610cc257610cc1611c9e565b5b0490505b92915050565b5f5f5f610cd7611715565b73ffffffffffffffffffffffffffffffffffffffff1663df697cc4856040518263ffffffff1660e01b8152600401610d0f919061182f565b608060405180830381865afa158015610d2a573d5f5f3e3d5ffd5b505050506040513d601f19601f82011682018060405250810190610d4e9190611e21565b90505f73ffffffffffffffffffffffffffffffffffffffff16815f015173ffffffffffffffffffffffffffffffffffffffff1603610db8576040517fc5fc4bf400000000000000000000000000000000000000000000000000000000815260040160405180910390fd5b5f816040015160ff1614159250805f0151915050915091565b5f5f5f5f5f5f5f5f5f8b15610fbc575f8b90508073ffffffffffffffffffffffffffffffffffffffff16630dfe16816040518163ffffffff1660e01b8152600401602060405180830381865afa158015610e2d573d5f5f3e3d5ffd5b505050506040513d601f19601f82011682018060405250810190610e519190611bb6565b92508073ffffffffffffffffffffffffffffffffffffffff1663d21220a76040518163ffffffff1660e01b8152600401602060405180830381865afa158015610e9c573d5f5f3e3d5ffd5b505050506040513d601f19601f82011682018060405250810190610ec09190611bb6565b91508273ffffffffffffffffffffffffffffffffffffffff166370a082318d6040518263ffffffff1660e01b8152600401610efb919061182f565b602060405180830381865afa158015610f16573d5f5f3e3d5ffd5b505050506040513d601f19601f82011682018060405250810190610f3a9190611af7565b94508173ffffffffffffffffffffffffffffffffffffffff166370a082318d6040518263ffffffff1660e01b8152600401610f75919061182f565b602060405180830381865afa158015610f90573d5f5f3e3d5ffd5b505050506040513d601f19601f82011682018060405250810190610fb49190611af7565b93505061113c565b5f8b90505f5f8273ffffffffffffffffffffffffffffffffffffffff16630902f1ac6040518163ffffffff1660e01b8152600401606060405180830381865afa15801561100b573d5f5f3e3d5ffd5b505050506040513d601f19601f8201168201806040525081019061102f9190611ec8565b5091509150816dffffffffffffffffffffffffffff169650806dffffffffffffffffffffffffffff1695508273ffffffffffffffffffffffffffffffffffffffff16630dfe16816040518163ffffffff1660e01b8152600401602060405180830381865afa1580156110a3573d5f5f3e3d5ffd5b505050506040513d601f19601f820116820180604052508101906110c79190611bb6565b94508273ffffffffffffffffffffffffffffffffffffffff1663d21220a76040518163ffffffff1660e01b8152600401602060405180830381865afa158015611112573d5f5f3e3d5ffd5b505050506040513d601f19601f820116820180604052508101906111369190611bb6565b93505050505b5f8a73ffffffffffffffffffffffffffffffffffffffff168373ffffffffffffffffffffffffffffffffffffffff160361117957600190506111e7565b8a73ffffffffffffffffffffffffffffffffffffffff168273ffffffffffffffffffffffffffffffffffffffff16036111b4575f90506111e6565b6040517f17b2f78000000000000000000000000000000000000000000000000000000000815260040160405180910390fd5b5b806111f257836111f4565b845b9950806112015784611203565b835b9750806112105782611212565b815b95508a73ffffffffffffffffffffffffffffffffffffffff1663313ce5676040518163ffffffff1660e01b8152600401602060405180830381865afa15801561125d573d5f5f3e3d5ffd5b505050506040513d601f19601f820116820180604052508101906112819190611c0b565b98508573ffffffffffffffffffffffffffffffffffffffff1663313ce5676040518163ffffffff1660e01b8152600401602060405180830381865afa1580156112cc573d5f5f3e3d5ffd5b505050506040513d601f19601f820116820180604052508101906112f09190611c0b565b96505050505050939792965093509350565b5f5f85148061131057505f83145b15611347576040517f8b4a713e00000000000000000000000000000000000000000000000000000000815260040160405180910390fd5b5f8460ff168360ff161061137157611360858403611565565b670de0b6b3a764000002905061139d565b5f61137d848703611565565b8502905061139487670de0b6b3a764000083610b68565b925050506113ac565b6113a8868286610b68565b9150505b949350505050565b5f73ffffffffffffffffffffffffffffffffffffffff168173ffffffffffffffffffffffffffffffffffffffff1603611422576040517f08c379a000000000000000000000000000000000000000000000000000000000815260040161141990611f62565b60405180910390fd5b5f8173ffffffffffffffffffffffffffffffffffffffff163b1161147b576040517f08c379a000000000000000000000000000000000000000000000000000000000815260040161147290611fca565b60405180910390fd5b8073ffffffffffffffffffffffffffffffffffffffff16638da5cb5b6040518163ffffffff1660e01b8152600401602060405180830381865afa9250505080156114e357506040513d601f19601f820116820180604052508101906114e09190611bb6565b60015b611522576040517f08c379a000000000000000000000000000000000000000000000000000000000815260040161151990612058565b60405180910390fd5b815f5f6101000a81548173ffffffffffffffffffffffffffffffffffffffff021916908373ffffffffffffffffffffffffffffffffffffffff1602179055505050565b5f5f8260ff16036115795760019050611710565b60018260ff160361158d57600a9050611710565b60028260ff16036115a15760649050611710565b60038260ff16036115b6576103e89050611710565b60048260ff16036115cb576127109050611710565b60058260ff16036115e157620186a09050611710565b60068260ff16036115f757620f42409050611710565b60078260ff160361160d57629896809050611710565b60088260ff1603611624576305f5e1009050611710565b60098260ff160361163b57633b9aca009050611710565b600a8260ff1603611653576402540be4009050611710565b600b8260ff160361166b5764174876e8009050611710565b600c8260ff16036116835764e8d4a510009050611710565b600d8260ff160361169c576509184e72a0009050611710565b600e8260ff16036116b557655af3107a40009050611710565b600f8260ff16036116cf5766038d7ea4c680009050611710565b60108260ff16036116e957662386f26fc100009050611710565b60118260ff16036117045767016345785d8a00009050611710565b670de0b6b3a764000090505b919050565b5f6117546040518060400160405280600b81526020017f706f6f6c2d66696e64657200000000000000000000000000000000000000000081525061057d565b905090565b5f604051905090565b5f5ffd5b5f5ffd5b5f73ffffffffffffffffffffffffffffffffffffffff82169050919050565b5f6117938261176a565b9050919050565b6117a381611789565b81146117ad575f5ffd5b50565b5f813590506117be8161179a565b92915050565b5f602082840312156117d9576117d8611762565b5b5f6117e6848285016117b0565b91505092915050565b5f819050919050565b611801816117ef565b82525050565b5f60208201905061181a5f8301846117f8565b92915050565b61182981611789565b82525050565b5f6020820190506118425f830184611820565b92915050565b5f5ffd5b5f5ffd5b5f601f19601f8301169050919050565b7f4e487b71000000000000000000000000000000000000000000000000000000005f52604160045260245ffd5b61189682611850565b810181811067ffffffffffffffff821117156118b5576118b4611860565b5b80604052505050565b5f6118c7611759565b90506118d3828261188d565b919050565b5f67ffffffffffffffff8211156118f2576118f1611860565b5b6118fb82611850565b9050602081019050919050565b828183375f83830152505050565b5f611928611923846118d8565b6118be565b9050828152602081018484840111156119445761194361184c565b5b61194f848285611908565b509392505050565b5f82601f83011261196b5761196a611848565b5b813561197b848260208601611916565b91505092915050565b5f6020828403121561199957611998611762565b5b5f82013567ffffffffffffffff8111156119b6576119b5611766565b5b6119c284828501611957565b91505092915050565b5f8115159050919050565b6119df816119cb565b82525050565b5f6020820190506119f85f8301846119d6565b92915050565b5f819050919050565b5f611a21611a1c611a178461176a565b6119fe565b61176a565b9050919050565b5f611a3282611a07565b9050919050565b5f611a4382611a28565b9050919050565b611a5381611a39565b82525050565b5f602082019050611a6c5f830184611a4a565b92915050565b5f604082019050611a855f8301856119d6565b611a926020830184611820565b9392505050565b5f60ff82169050919050565b611aae81611a99565b82525050565b5f602082019050611ac75f830184611aa5565b92915050565b611ad6816117ef565b8114611ae0575f5ffd5b50565b5f81519050611af181611acd565b92915050565b5f60208284031215611b0c57611b0b611762565b5b5f611b1984828501611ae3565b91505092915050565b5f81519050919050565b5f82825260208201905092915050565b8281835e5f83830152505050565b5f611b5482611b22565b611b5e8185611b2c565b9350611b6e818560208601611b3c565b611b7781611850565b840191505092915050565b5f6020820190508181035f830152611b9a8184611b4a565b905092915050565b5f81519050611bb08161179a565b92915050565b5f60208284031215611bcb57611bca611762565b5b5f611bd884828501611ba2565b91505092915050565b611bea81611a99565b8114611bf4575f5ffd5b50565b5f81519050611c0581611be1565b92915050565b5f60208284031215611c2057611c1f611762565b5b5f611c2d84828501611bf7565b91505092915050565b7f43616c6c6572206973206e6f7420746865206f776e65720000000000000000005f82015250565b5f611c6a601783611b2c565b9150611c7582611c36565b602082019050919050565b5f6020820190508181035f830152611c9781611c5e565b9050919050565b7f4e487b71000000000000000000000000000000000000000000000000000000005f52601260045260245ffd5b7f6d756c446976206f766572666c6f7700000000000000000000000000000000005f82015250565b5f611cff600f83611b2c565b9150611d0a82611ccb565b602082019050919050565b5f6020820190508181035f830152611d2c81611cf3565b9050919050565b5f5ffd5b5f62ffffff82169050919050565b611d4e81611d37565b8114611d58575f5ffd5b50565b5f81519050611d6981611d45565b92915050565b5f67ffffffffffffffff82169050919050565b611d8b81611d6f565b8114611d95575f5ffd5b50565b5f81519050611da681611d82565b92915050565b5f60808284031215611dc157611dc0611d33565b5b611dcb60806118be565b90505f611dda84828501611ba2565b5f830152506020611ded84828501611d5b565b6020830152506040611e0184828501611bf7565b6040830152506060611e1584828501611d98565b60608301525092915050565b5f60808284031215611e3657611e35611762565b5b5f611e4384828501611dac565b91505092915050565b5f6dffffffffffffffffffffffffffff82169050919050565b611e6e81611e4c565b8114611e78575f5ffd5b50565b5f81519050611e8981611e65565b92915050565b5f63ffffffff82169050919050565b611ea781611e8f565b8114611eb1575f5ffd5b50565b5f81519050611ec281611e9e565b92915050565b5f5f5f60608486031215611edf57611ede611762565b5b5f611eec86828701611e7b565b9350506020611efd86828701611e7b565b9250506040611f0e86828701611eb4565b9150509250925092565b7f4469726563746f72792063616e6e6f74206265207a65726f20616464726573735f82015250565b5f611f4c602083611b2c565b9150611f5782611f18565b602082019050919050565b5f6020820190508181035f830152611f7981611f40565b9050919050565b7f4469726563746f7279206d757374206265206120636f6e7472616374000000005f82015250565b5f611fb4601c83611b2c565b9150611fbf82611f80565b602082019050919050565b5f6020820190508181035f830152611fe181611fa8565b9050919050565b7f4469726563746f7279206164647265737320646f6573206e6f7420696d706c655f8201527f6d656e74206f776e657228290000000000000000000000000000000000000000602082015250565b5f612042602c83611b2c565b915061204d82611fe8565b604082019050919050565b5f6020820190508181035f83015261206f81612036565b905091905056fea26469706673582212205f4e699c4da34a9770084ded1d6aca7f6fb93a40b66f5a4825bf389576ba09ac64736f6c634300081e0033",
			"opcodes": "PUSH2 0x100 PUSH1 0x40 MSTORE CALLVALUE DUP1 ISZERO PUSH2 0x10 JUMPI PUSH0 PUSH0 REVERT JUMPDEST POP PUSH1 0x40 MLOAD PUSH2 0x26FA CODESIZE SUB DUP1 PUSH2 0x26FA DUP4 CODECOPY DUP2 DUP2 ADD PUSH1 0x40 MSTORE DUP2 ADD SWAP1 PUSH2 0x32 SWAP2 SWAP1 PUSH2 0x37E JUMP JUMPDEST DUP4 PUSH2 0x42 DUP2 PUSH2 0x13A PUSH1 0x20 SHL PUSH1 0x20 SHR JUMP JUMPDEST POP DUP3 PUSH20 0xFFFFFFFFFFFFFFFFFFFFFFFFFFFFFFFFFFFFFFFF AND PUSH1 0x80 DUP2 PUSH20 0xFFFFFFFFFFFFFFFFFFFFFFFFFFFFFFFFFFFFFFFF AND DUP2 MSTORE POP POP DUP2 PUSH20 0xFFFFFFFFFFFFFFFFFFFFFFFFFFFFFFFFFFFFFFFF AND PUSH1 0xA0 DUP2 PUSH20 0xFFFFFFFFFFFFFFFFFFFFFFFFFFFFFFFFFFFFFFFF AND DUP2 MSTORE POP POP DUP1 ISZERO ISZERO PUSH1 0xC0 DUP2 ISZERO ISZERO DUP2 MSTORE POP POP DUP3 PUSH20 0xFFFFFFFFFFFFFFFFFFFFFFFFFFFFFFFFFFFFFFFF AND PUSH4 0x313CE567 PUSH1 0x40 MLOAD DUP2 PUSH4 0xFFFFFFFF AND PUSH1 0xE0 SHL DUP2 MSTORE PUSH1 0x4 ADD PUSH1 0x20 PUSH1 0x40 MLOAD DUP1 DUP4 SUB DUP2 DUP7 GAS STATICCALL ISZERO DUP1 ISZERO PUSH2 0x100 JUMPI RETURNDATASIZE PUSH0 PUSH0 RETURNDATACOPY RETURNDATASIZE PUSH0 REVERT JUMPDEST POP POP POP POP PUSH1 0x40 MLOAD RETURNDATASIZE PUSH1 0x1F NOT PUSH1 0x1F DUP3 ADD AND DUP3 ADD DUP1 PUSH1 0x40 MSTORE POP DUP2 ADD SWAP1 PUSH2 0x124 SWAP2 SWAP1 PUSH2 0x418 JUMP JUMPDEST PUSH1 0xFF AND PUSH1 0xE0 DUP2 PUSH1 0xFF AND DUP2 MSTORE POP POP POP POP POP POP PUSH2 0x5DC JUMP JUMPDEST PUSH0 PUSH20 0xFFFFFFFFFFFFFFFFFFFFFFFFFFFFFFFFFFFFFFFF AND DUP2 PUSH20 0xFFFFFFFFFFFFFFFFFFFFFFFFFFFFFFFFFFFFFFFF AND SUB PUSH2 0x1A8 JUMPI PUSH1 0x40 MLOAD PUSH32 0x8C379A000000000000000000000000000000000000000000000000000000000 DUP2 MSTORE PUSH1 0x4 ADD PUSH2 0x19F SWAP1 PUSH2 0x49D JUMP JUMPDEST PUSH1 0x40 MLOAD DUP1 SWAP2 SUB SWAP1 REVERT JUMPDEST PUSH0 DUP2 PUSH20 0xFFFFFFFFFFFFFFFFFFFFFFFFFFFFFFFFFFFFFFFF AND EXTCODESIZE GT PUSH2 0x201 JUMPI PUSH1 0x40 MLOAD PUSH32 0x8C379A000000000000000000000000000000000000000000000000000000000 DUP2 MSTORE PUSH1 0x4 ADD PUSH2 0x1F8 SWAP1 PUSH2 0x505 JUMP JUMPDEST PUSH1 0x40 MLOAD DUP1 SWAP2 SUB SWAP1 REVERT JUMPDEST DUP1 PUSH20 0xFFFFFFFFFFFFFFFFFFFFFFFFFFFFFFFFFFFFFFFF AND PUSH4 0x8DA5CB5B PUSH1 0x40 MLOAD DUP2 PUSH4 0xFFFFFFFF AND PUSH1 0xE0 SHL DUP2 MSTORE PUSH1 0x4 ADD PUSH1 0x20 PUSH1 0x40 MLOAD DUP1 DUP4 SUB DUP2 DUP7 GAS STATICCALL SWAP3 POP POP POP DUP1 ISZERO PUSH2 0x269 JUMPI POP PUSH1 0x40 MLOAD RETURNDATASIZE PUSH1 0x1F NOT PUSH1 0x1F DUP3 ADD AND DUP3 ADD DUP1 PUSH1 0x40 MSTORE POP DUP2 ADD SWAP1 PUSH2 0x266 SWAP2 SWAP1 PUSH2 0x523 JUMP JUMPDEST PUSH1 0x1 JUMPDEST PUSH2 0x2A8 JUMPI PUSH1 0x40 MLOAD PUSH32 0x8C379A000000000000000000000000000000000000000000000000000000000 DUP2 MSTORE PUSH1 0x4 ADD PUSH2 0x29F SWAP1 PUSH2 0x5BE JUMP JUMPDEST PUSH1 0x40 MLOAD DUP1 SWAP2 SUB SWAP1 REVERT JUMPDEST DUP2 PUSH0 PUSH0 PUSH2 0x100 EXP DUP2 SLOAD DUP2 PUSH20 0xFFFFFFFFFFFFFFFFFFFFFFFFFFFFFFFFFFFFFFFF MUL NOT AND SWAP1 DUP4 PUSH20 0xFFFFFFFFFFFFFFFFFFFFFFFFFFFFFFFFFFFFFFFF AND MUL OR SWAP1 SSTORE POP POP POP JUMP JUMPDEST PUSH0 PUSH0 REVERT JUMPDEST PUSH0 PUSH20 0xFFFFFFFFFFFFFFFFFFFFFFFFFFFFFFFFFFFFFFFF DUP3 AND SWAP1 POP SWAP2 SWAP1 POP JUMP JUMPDEST PUSH0 PUSH2 0x318 DUP3 PUSH2 0x2EF JUMP JUMPDEST SWAP1 POP SWAP2 SWAP1 POP JUMP JUMPDEST PUSH2 0x328 DUP2 PUSH2 0x30E JUMP JUMPDEST DUP2 EQ PUSH2 0x332 JUMPI PUSH0 PUSH0 REVERT JUMPDEST POP JUMP JUMPDEST PUSH0 DUP2 MLOAD SWAP1 POP PUSH2 0x343 DUP2 PUSH2 0x31F JUMP JUMPDEST SWAP3 SWAP2 POP POP JUMP JUMPDEST PUSH0 DUP2 ISZERO ISZERO SWAP1 POP SWAP2 SWAP1 POP JUMP JUMPDEST PUSH2 0x35D DUP2 PUSH2 0x349 JUMP JUMPDEST DUP2 EQ PUSH2 0x367 JUMPI PUSH0 PUSH0 REVERT JUMPDEST POP JUMP JUMPDEST PUSH0 DUP2 MLOAD SWAP1 POP PUSH2 0x378 DUP2 PUSH2 0x354 JUMP JUMPDEST SWAP3 SWAP2 POP POP JUMP JUMPDEST PUSH0 PUSH0 PUSH0 PUSH0 PUSH1 0x80 DUP6 DUP8 SUB SLT ISZERO PUSH2 0x396 JUMPI PUSH2 0x395 PUSH2 0x2EB JUMP JUMPDEST JUMPDEST PUSH0 PUSH2 0x3A3 DUP8 DUP3 DUP9 ADD PUSH2 0x335 JUMP JUMPDEST SWAP5 POP POP PUSH1 0x20 PUSH2 0x3B4 DUP8 DUP3 DUP9 ADD PUSH2 0x335 JUMP JUMPDEST SWAP4 POP POP PUSH1 0x40 PUSH2 0x3C5 DUP8 DUP3 DUP9 ADD PUSH2 0x335 JUMP JUMPDEST SWAP3 POP POP PUSH1 0x60 PUSH2 0x3D6 DUP8 DUP3 DUP9 ADD PUSH2 0x36A JUMP JUMPDEST SWAP2 POP POP SWAP3 SWAP6 SWAP2 SWAP5 POP SWAP3 POP JUMP JUMPDEST PUSH0 PUSH1 0xFF DUP3 AND SWAP1 POP SWAP2 SWAP1 POP JUMP JUMPDEST PUSH2 0x3F7 DUP2 PUSH2 0x3E2 JUMP JUMPDEST DUP2 EQ PUSH2 0x401 JUMPI PUSH0 PUSH0 REVERT JUMPDEST POP JUMP JUMPDEST PUSH0 DUP2 MLOAD SWAP1 POP PUSH2 0x412 DUP2 PUSH2 0x3EE JUMP JUMPDEST SWAP3 SWAP2 POP POP JUMP JUMPDEST PUSH0 PUSH1 0x20 DUP3 DUP5 SUB SLT ISZERO PUSH2 0x42D JUMPI PUSH2 0x42C PUSH2 0x2EB JUMP JUMPDEST JUMPDEST PUSH0 PUSH2 0x43A DUP5 DUP3 DUP6 ADD PUSH2 0x404 JUMP JUMPDEST SWAP2 POP POP SWAP3 SWAP2 POP POP JUMP JUMPDEST PUSH0 DUP3 DUP3 MSTORE PUSH1 0x20 DUP3 ADD SWAP1 POP SWAP3 SWAP2 POP POP JUMP JUMPDEST PUSH32 0x4469726563746F72792063616E6E6F74206265207A65726F2061646472657373 PUSH0 DUP3 ADD MSTORE POP JUMP JUMPDEST PUSH0 PUSH2 0x487 PUSH1 0x20 DUP4 PUSH2 0x443 JUMP JUMPDEST SWAP2 POP PUSH2 0x492 DUP3 PUSH2 0x453 JUMP JUMPDEST PUSH1 0x20 DUP3 ADD SWAP1 POP SWAP2 SWAP1 POP JUMP JUMPDEST PUSH0 PUSH1 0x20 DUP3 ADD SWAP1 POP DUP2 DUP2 SUB PUSH0 DUP4 ADD MSTORE PUSH2 0x4B4 DUP2 PUSH2 0x47B JUMP JUMPDEST SWAP1 POP SWAP2 SWAP1 POP JUMP JUMPDEST PUSH32 0x4469726563746F7279206D757374206265206120636F6E747261637400000000 PUSH0 DUP3 ADD MSTORE POP JUMP JUMPDEST PUSH0 PUSH2 0x4EF PUSH1 0x1C DUP4 PUSH2 0x443 JUMP JUMPDEST SWAP2 POP PUSH2 0x4FA DUP3 PUSH2 0x4BB JUMP JUMPDEST PUSH1 0x20 DUP3 ADD SWAP1 POP SWAP2 SWAP1 POP JUMP JUMPDEST PUSH0 PUSH1 0x20 DUP3 ADD SWAP1 POP DUP2 DUP2 SUB PUSH0 DUP4 ADD MSTORE PUSH2 0x51C DUP2 PUSH2 0x4E3 JUMP JUMPDEST SWAP1 POP SWAP2 SWAP1 POP JUMP JUMPDEST PUSH0 PUSH1 0x20 DUP3 DUP5 SUB SLT ISZERO PUSH2 0x538 JUMPI PUSH2 0x537 PUSH2 0x2EB JUMP JUMPDEST JUMPDEST PUSH0 PUSH2 0x545 DUP5 DUP3 DUP6 ADD PUSH2 0x335 JUMP JUMPDEST SWAP2 POP POP SWAP3 SWAP2 POP POP JUMP JUMPDEST PUSH32 0x4469726563746F7279206164647265737320646F6573206E6F7420696D706C65 PUSH0 DUP3 ADD MSTORE PUSH32 0x6D656E74206F776E657228290000000000000000000000000000000000000000 PUSH1 0x20 DUP3 ADD MSTORE POP JUMP JUMPDEST PUSH0 PUSH2 0x5A8 PUSH1 0x2C DUP4 PUSH2 0x443 JUMP JUMPDEST SWAP2 POP PUSH2 0x5B3 DUP3 PUSH2 0x54E JUMP JUMPDEST PUSH1 0x40 DUP3 ADD SWAP1 POP SWAP2 SWAP1 POP JUMP JUMPDEST PUSH0 PUSH1 0x20 DUP3 ADD SWAP1 POP DUP2 DUP2 SUB PUSH0 DUP4 ADD MSTORE PUSH2 0x5D5 DUP2 PUSH2 0x59C JUMP JUMPDEST SWAP1 POP SWAP2 SWAP1 POP JUMP JUMPDEST PUSH1 0x80 MLOAD PUSH1 0xA0 MLOAD PUSH1 0xC0 MLOAD PUSH1 0xE0 MLOAD PUSH2 0x20AC PUSH2 0x64E PUSH0 CODECOPY PUSH0 DUP2 DUP2 PUSH2 0x4D6 ADD MSTORE PUSH2 0xB46 ADD MSTORE PUSH0 DUP2 DUP2 PUSH2 0x61F ADD MSTORE PUSH2 0x81A ADD MSTORE PUSH0 DUP2 DUP2 PUSH2 0x3CA ADD MSTORE PUSH2 0x83B ADD MSTORE PUSH0 DUP2 DUP2 PUSH2 0x3A6 ADD MSTORE DUP2 DUP2 PUSH2 0x3EF ADD MSTORE DUP2 DUP2 PUSH2 0x443 ADD MSTORE DUP2 DUP2 PUSH2 0x765 ADD MSTORE DUP2 DUP2 PUSH2 0x85C ADD MSTORE DUP2 DUP2 PUSH2 0x8D5 ADD MSTORE PUSH2 0x950 ADD MSTORE PUSH2 0x20AC PUSH0 RETURN INVALID PUSH1 0x80 PUSH1 0x40 MSTORE CALLVALUE DUP1 ISZERO PUSH2 0xF JUMPI PUSH0 PUSH0 REVERT JUMPDEST POP PUSH1 0x4 CALLDATASIZE LT PUSH2 0xFD JUMPI PUSH0 CALLDATALOAD PUSH1 0xE0 SHR DUP1 PUSH4 0x658A847A GT PUSH2 0x95 JUMPI DUP1 PUSH4 0x7D1AA610 GT PUSH2 0x64 JUMPI DUP1 PUSH4 0x7D1AA610 EQ PUSH2 0x2E7 JUMPI DUP1 PUSH4 0x8DA5CB5B EQ PUSH2 0x318 JUMPI DUP1 PUSH4 0xBA4C7BE1 EQ PUSH2 0x336 JUMPI DUP1 PUSH4 0xD08AEF7C EQ PUSH2 0x352 JUMPI PUSH2 0xFD JUMP JUMPDEST DUP1 PUSH4 0x658A847A EQ PUSH2 0x24B JUMPI DUP1 PUSH4 0x6855E939 EQ PUSH2 0x269 JUMPI DUP1 PUSH4 0x69A2E17D EQ PUSH2 0x287 JUMPI DUP1 PUSH4 0x7B49B49D EQ PUSH2 0x2B7 JUMPI PUSH2 0xFD JUMP JUMPDEST DUP1 PUSH4 0x27262618 GT PUSH2 0xD1 JUMPI DUP1 PUSH4 0x27262618 EQ PUSH2 0x19D JUMPI DUP1 PUSH4 0x5498F4BC EQ PUSH2 0x1CD JUMPI DUP1 PUSH4 0x57B6C133 EQ PUSH2 0x1EB JUMPI DUP1 PUSH4 0x63AA0C93 EQ PUSH2 0x21B JUMPI PUSH2 0xFD JUMP JUMPDEST DUP1 PUSH3 0x593BCF EQ PUSH2 0x101 JUMPI DUP1 PUSH4 0x40141E5 EQ PUSH2 0x131 JUMPI DUP1 PUSH4 0xB017603 EQ PUSH2 0x14F JUMPI DUP1 PUSH4 0xDBC0D7D EQ PUSH2 0x16D JUMPI JUMPDEST PUSH0 PUSH0 REVERT JUMPDEST PUSH2 0x11B PUSH1 0x4 DUP1 CALLDATASIZE SUB DUP2 ADD SWAP1 PUSH2 0x116 SWAP2 SWAP1 PUSH2 0x17C4 JUMP JUMPDEST PUSH2 0x370 JUMP JUMPDEST PUSH1 0x40 MLOAD PUSH2 0x128 SWAP2 SWAP1 PUSH2 0x1807 JUMP JUMPDEST PUSH1 0x40 MLOAD DUP1 SWAP2 SUB SWAP1 RETURN JUMPDEST PUSH2 0x139 PUSH2 0x3A4 JUMP JUMPDEST PUSH1 0x40 MLOAD PUSH2 0x146 SWAP2 SWAP1 PUSH2 0x182F JUMP JUMPDEST PUSH1 0x40 MLOAD DUP1 SWAP2 SUB SWAP1 RETURN JUMPDEST PUSH2 0x157 PUSH2 0x3C8 JUMP JUMPDEST PUSH1 0x40 MLOAD PUSH2 0x164 SWAP2 SWAP1 PUSH2 0x182F JUMP JUMPDEST PUSH1 0x40 MLOAD DUP1 SWAP2 SUB SWAP1 RETURN JUMPDEST PUSH2 0x187 PUSH1 0x4 DUP1 CALLDATASIZE SUB DUP2 ADD SWAP1 PUSH2 0x182 SWAP2 SWAP1 PUSH2 0x17C4 JUMP JUMPDEST PUSH2 0x3EC JUMP JUMPDEST PUSH1 0x40 MLOAD PUSH2 0x194 SWAP2 SWAP1 PUSH2 0x1807 JUMP JUMPDEST PUSH1 0x40 MLOAD DUP1 SWAP2 SUB SWAP1 RETURN JUMPDEST PUSH2 0x1B7 PUSH1 0x4 DUP1 CALLDATASIZE SUB DUP2 ADD SWAP1 PUSH2 0x1B2 SWAP2 SWAP1 PUSH2 0x1984 JUMP JUMPDEST PUSH2 0x57D JUMP JUMPDEST PUSH1 0x40 MLOAD PUSH2 0x1C4 SWAP2 SWAP1 PUSH2 0x182F JUMP JUMPDEST PUSH1 0x40 MLOAD DUP1 SWAP2 SUB SWAP1 RETURN JUMPDEST PUSH2 0x1D5 PUSH2 0x61D JUMP JUMPDEST PUSH1 0x40 MLOAD PUSH2 0x1E2 SWAP2 SWAP1 PUSH2 0x19E5 JUMP JUMPDEST PUSH1 0x40 MLOAD DUP1 SWAP2 SUB SWAP1 RETURN JUMPDEST PUSH2 0x205 PUSH1 0x4 DUP1 CALLDATASIZE SUB DUP2 ADD SWAP1 PUSH2 0x200 SWAP2 SWAP1 PUSH2 0x17C4 JUMP JUMPDEST PUSH2 0x641 JUMP JUMPDEST PUSH1 0x40 MLOAD PUSH2 0x212 SWAP2 SWAP1 PUSH2 0x1807 JUMP JUMPDEST PUSH1 0x40 MLOAD DUP1 SWAP2 SUB SWAP1 RETURN JUMPDEST PUSH2 0x235 PUSH1 0x4 DUP1 CALLDATASIZE SUB DUP2 ADD SWAP1 PUSH2 0x230 SWAP2 SWAP1 PUSH2 0x17C4 JUMP JUMPDEST PUSH2 0x675 JUMP JUMPDEST PUSH1 0x40 MLOAD PUSH2 0x242 SWAP2 SWAP1 PUSH2 0x1807 JUMP JUMPDEST PUSH1 0x40 MLOAD DUP1 SWAP2 SUB SWAP1 RETURN JUMPDEST PUSH2 0x253 PUSH2 0x7EC JUMP JUMPDEST PUSH1 0x40 MLOAD PUSH2 0x260 SWAP2 SWAP1 PUSH2 0x1A59 JUMP JUMPDEST PUSH1 0x40 MLOAD DUP1 SWAP2 SUB SWAP1 RETURN JUMPDEST PUSH2 0x271 PUSH2 0x810 JUMP JUMPDEST PUSH1 0x40 MLOAD PUSH2 0x27E SWAP2 SWAP1 PUSH2 0x1807 JUMP JUMPDEST PUSH1 0x40 MLOAD DUP1 SWAP2 SUB SWAP1 RETURN JUMPDEST PUSH2 0x2A1 PUSH1 0x4 DUP1 CALLDATASIZE SUB DUP2 ADD SWAP1 PUSH2 0x29C SWAP2 SWAP1 PUSH2 0x17C4 JUMP JUMPDEST PUSH2 0x89E JUMP JUMPDEST PUSH1 0x40 MLOAD PUSH2 0x2AE SWAP2 SWAP1 PUSH2 0x1807 JUMP JUMPDEST PUSH1 0x40 MLOAD DUP1 SWAP2 SUB SWAP1 RETURN JUMPDEST PUSH2 0x2D1 PUSH1 0x4 DUP1 CALLDATASIZE SUB DUP2 ADD SWAP1 PUSH2 0x2CC SWAP2 SWAP1 PUSH2 0x17C4 JUMP JUMPDEST PUSH2 0x8D2 JUMP JUMPDEST PUSH1 0x40 MLOAD PUSH2 0x2DE SWAP2 SWAP1 PUSH2 0x1807 JUMP JUMPDEST PUSH1 0x40 MLOAD DUP1 SWAP2 SUB SWAP1 RETURN JUMPDEST PUSH2 0x301 PUSH1 0x4 DUP1 CALLDATASIZE SUB DUP2 ADD SWAP1 PUSH2 0x2FC SWAP2 SWAP1 PUSH2 0x17C4 JUMP JUMPDEST PUSH2 0x997 JUMP JUMPDEST PUSH1 0x40 MLOAD PUSH2 0x30F SWAP3 SWAP2 SWAP1 PUSH2 0x1A72 JUMP JUMPDEST PUSH1 0x40 MLOAD DUP1 SWAP2 SUB SWAP1 RETURN JUMPDEST PUSH2 0x320 PUSH2 0x9AB JUMP JUMPDEST PUSH1 0x40 MLOAD PUSH2 0x32D SWAP2 SWAP1 PUSH2 0x182F JUMP JUMPDEST PUSH1 0x40 MLOAD DUP1 SWAP2 SUB SWAP1 RETURN JUMPDEST PUSH2 0x350 PUSH1 0x4 DUP1 CALLDATASIZE SUB DUP2 ADD SWAP1 PUSH2 0x34B SWAP2 SWAP1 PUSH2 0x17C4 JUMP JUMPDEST PUSH2 0xA3E JUMP JUMPDEST STOP JUMPDEST PUSH2 0x35A PUSH2 0xB44 JUMP JUMPDEST PUSH1 0x40 MLOAD PUSH2 0x367 SWAP2 SWAP1 PUSH2 0x1AB4 JUMP JUMPDEST PUSH1 0x40 MLOAD DUP1 SWAP2 SUB SWAP1 RETURN JUMPDEST PUSH0 PUSH0 PUSH2 0x37B DUP4 PUSH2 0x8D2 JUMP JUMPDEST SWAP1 POP PUSH0 PUSH2 0x386 PUSH2 0x810 JUMP JUMPDEST SWAP1 POP PUSH2 0x39B DUP3 DUP3 PUSH8 0xDE0B6B3A7640000 PUSH2 0xB68 JUMP JUMPDEST SWAP3 POP POP POP SWAP2 SWAP1 POP JUMP JUMPDEST PUSH32 0x0 DUP2 JUMP JUMPDEST PUSH32 0x0 DUP2 JUMP JUMPDEST PUSH0 PUSH32 0x0 PUSH20 0xFFFFFFFFFFFFFFFFFFFFFFFFFFFFFFFFFFFFFFFF AND DUP3 PUSH20 0xFFFFFFFFFFFFFFFFFFFFFFFFFFFFFFFFFFFFFFFF AND SUB PUSH2 0x502 JUMPI PUSH0 PUSH32 0x0 PUSH20 0xFFFFFFFFFFFFFFFFFFFFFFFFFFFFFFFFFFFFFFFF AND PUSH4 0x18160DDD PUSH1 0x40 MLOAD DUP2 PUSH4 0xFFFFFFFF AND PUSH1 0xE0 SHL DUP2 MSTORE PUSH1 0x4 ADD PUSH1 0x20 PUSH1 0x40 MLOAD DUP1 DUP4 SUB DUP2 DUP7 GAS STATICCALL ISZERO DUP1 ISZERO PUSH2 0x4AA JUMPI RETURNDATASIZE PUSH0 PUSH0 RETURNDATACOPY RETURNDATASIZE PUSH0 REVERT JUMPDEST POP POP POP POP PUSH1 0x40 MLOAD RETURNDATASIZE PUSH1 0x1F NOT PUSH1 0x1F DUP3 ADD AND DUP3 ADD DUP1 PUSH1 0x40 MSTORE POP DUP2 ADD SWAP1 PUSH2 0x4CE SWAP2 SWAP1 PUSH2 0x1AF7 JUMP JUMPDEST SWAP1 POP PUSH2 0x4FA DUP2 PUSH32 0x0 PUSH2 0xC72 JUMP JUMPDEST SWAP2 POP POP PUSH2 0x578 JUMP JUMPDEST PUSH0 PUSH0 PUSH2 0x50D DUP5 PUSH2 0xCCC JUMP JUMPDEST SWAP2 POP SWAP2 POP PUSH0 PUSH0 PUSH0 PUSH0 PUSH2 0x520 DUP7 DUP7 DUP11 PUSH2 0xDD1 JUMP JUMPDEST POP SWAP4 POP SWAP4 POP SWAP4 POP SWAP4 POP PUSH0 PUSH2 0x534 DUP6 DUP6 PUSH2 0xC72 JUMP JUMPDEST SWAP1 POP PUSH0 PUSH2 0x541 DUP5 DUP5 PUSH2 0xC72 JUMP JUMPDEST SWAP1 POP PUSH0 PUSH2 0x550 DUP6 DUP6 DUP10 DUP10 PUSH2 0x1302 JUMP JUMPDEST SWAP1 POP PUSH0 PUSH2 0x566 DUP5 DUP4 PUSH8 0xDE0B6B3A7640000 PUSH2 0xB68 JUMP JUMPDEST SWAP1 POP DUP3 DUP2 ADD SWAP11 POP POP POP POP POP POP POP POP POP POP POP JUMPDEST SWAP2 SWAP1 POP JUMP JUMPDEST PUSH0 PUSH0 PUSH0 SWAP1 SLOAD SWAP1 PUSH2 0x100 EXP SWAP1 DIV PUSH20 0xFFFFFFFFFFFFFFFFFFFFFFFFFFFFFFFFFFFFFFFF AND PUSH20 0xFFFFFFFFFFFFFFFFFFFFFFFFFFFFFFFFFFFFFFFF AND PUSH4 0x27262618 DUP4 PUSH1 0x40 MLOAD DUP3 PUSH4 0xFFFFFFFF AND PUSH1 0xE0 SHL DUP2 MSTORE PUSH1 0x4 ADD PUSH2 0x5D7 SWAP2 SWAP1 PUSH2 0x1B82 JUMP JUMPDEST PUSH1 0x20 PUSH1 0x40 MLOAD DUP1 DUP4 SUB DUP2 DUP7 GAS STATICCALL ISZERO DUP1 ISZERO PUSH2 0x5F2 JUMPI RETURNDATASIZE PUSH0 PUSH0 RETURNDATACOPY RETURNDATASIZE PUSH0 REVERT JUMPDEST POP POP POP POP PUSH1 0x40 MLOAD RETURNDATASIZE PUSH1 0x1F NOT PUSH1 0x1F DUP3 ADD AND DUP3 ADD DUP1 PUSH1 0x40 MSTORE POP DUP2 ADD SWAP1 PUSH2 0x616 SWAP2 SWAP1 PUSH2 0x1BB6 JUMP JUMPDEST SWAP1 POP SWAP2 SWAP1 POP JUMP JUMPDEST PUSH32 0x0 DUP2 JUMP JUMPDEST PUSH0 PUSH0 PUSH2 0x64C DUP4 PUSH2 0x3EC JUMP JUMPDEST SWAP1 POP PUSH0 PUSH2 0x657 PUSH2 0x810 JUMP JUMPDEST SWAP1 POP PUSH2 0x66C DUP3 DUP3 PUSH8 0xDE0B6B3A7640000 PUSH2 0xB68 JUMP JUMPDEST SWAP3 POP POP POP SWAP2 SWAP1 POP JUMP JUMPDEST PUSH0 PUSH0 DUP3 PUSH20 0xFFFFFFFFFFFFFFFFFFFFFFFFFFFFFFFFFFFFFFFF AND PUSH4 0x18160DDD PUSH1 0x40 MLOAD DUP2 PUSH4 0xFFFFFFFF AND PUSH1 0xE0 SHL DUP2 MSTORE PUSH1 0x4 ADD PUSH1 0x20 PUSH1 0x40 MLOAD DUP1 DUP4 SUB DUP2 DUP7 GAS STATICCALL ISZERO DUP1 ISZERO PUSH2 0x6C0 JUMPI RETURNDATASIZE PUSH0 PUSH0 RETURNDATACOPY RETURNDATASIZE PUSH0 REVERT JUMPDEST POP POP POP POP PUSH1 0x40 MLOAD RETURNDATASIZE PUSH1 0x1F NOT PUSH1 0x1F DUP3 ADD AND DUP3 ADD DUP1 PUSH1 0x40 MSTORE POP DUP2 ADD SWAP1 PUSH2 0x6E4 SWAP2 SWAP1 PUSH2 0x1AF7 JUMP JUMPDEST SWAP1 POP PUSH0 DUP4 PUSH20 0xFFFFFFFFFFFFFFFFFFFFFFFFFFFFFFFFFFFFFFFF AND PUSH4 0x313CE567 PUSH1 0x40 MLOAD DUP2 PUSH4 0xFFFFFFFF AND PUSH1 0xE0 SHL DUP2 MSTORE PUSH1 0x4 ADD PUSH1 0x20 PUSH1 0x40 MLOAD DUP1 DUP4 SUB DUP2 DUP7 GAS STATICCALL ISZERO DUP1 ISZERO PUSH2 0x730 JUMPI RETURNDATASIZE PUSH0 PUSH0 RETURNDATACOPY RETURNDATASIZE PUSH0 REVERT JUMPDEST POP POP POP POP PUSH1 0x40 MLOAD RETURNDATASIZE PUSH1 0x1F NOT PUSH1 0x1F DUP3 ADD AND DUP3 ADD DUP1 PUSH1 0x40 MSTORE POP DUP2 ADD SWAP1 PUSH2 0x754 SWAP2 SWAP1 PUSH2 0x1C0B JUMP JUMPDEST SWAP1 POP PUSH0 PUSH2 0x761 DUP4 DUP4 PUSH2 0xC72 JUMP JUMPDEST SWAP1 POP PUSH32 0x0 PUSH20 0xFFFFFFFFFFFFFFFFFFFFFFFFFFFFFFFFFFFFFFFF AND DUP6 PUSH20 0xFFFFFFFFFFFFFFFFFFFFFFFFFFFFFFFFFFFFFFFF AND SUB PUSH2 0x7C1 JUMPI DUP1 SWAP4 POP POP POP POP PUSH2 0x7E7 JUMP JUMPDEST PUSH0 PUSH2 0x7CB DUP7 PUSH2 0x8D2 JUMP JUMPDEST SWAP1 POP PUSH2 0x7E0 DUP3 DUP3 PUSH8 0xDE0B6B3A7640000 PUSH2 0xB68 JUMP JUMPDEST SWAP5 POP POP POP POP POP JUMPDEST SWAP2 SWAP1 POP JUMP JUMPDEST PUSH0 PUSH0 SWAP1 SLOAD SWAP1 PUSH2 0x100 EXP SWAP1 DIV PUSH20 0xFFFFFFFFFFFFFFFFFFFFFFFFFFFFFFFFFFFFFFFF AND DUP2 JUMP JUMPDEST PUSH0 PUSH0 PUSH0 PUSH0 PUSH0 PUSH2 0x880 PUSH32 0x0 PUSH32 0x0 PUSH32 0x0 PUSH2 0xDD1 JUMP JUMPDEST POP SWAP4 POP SWAP4 POP SWAP4 POP SWAP4 POP PUSH2 0x895 DUP3 DUP3 DUP7 DUP7 PUSH2 0x1302 JUMP JUMPDEST SWAP5 POP POP POP POP POP SWAP1 JUMP JUMPDEST PUSH0 PUSH0 PUSH2 0x8A9 DUP4 PUSH2 0x675 JUMP JUMPDEST SWAP1 POP PUSH0 PUSH2 0x8B4 PUSH2 0x810 JUMP JUMPDEST SWAP1 POP PUSH2 0x8C9 DUP3 DUP3 PUSH8 0xDE0B6B3A7640000 PUSH2 0xB68 JUMP JUMPDEST SWAP3 POP POP POP SWAP2 SWAP1 POP JUMP JUMPDEST PUSH0 PUSH32 0x0 PUSH20 0xFFFFFFFFFFFFFFFFFFFFFFFFFFFFFFFFFFFFFFFF AND DUP3 PUSH20 0xFFFFFFFFFFFFFFFFFFFFFFFFFFFFFFFFFFFFFFFF AND SUB PUSH2 0x936 JUMPI PUSH8 0xDE0B6B3A7640000 SWAP1 POP PUSH2 0x992 JUMP JUMPDEST PUSH0 PUSH0 PUSH2 0x941 DUP5 PUSH2 0xCCC JUMP JUMPDEST SWAP2 POP SWAP2 POP PUSH0 PUSH0 PUSH0 PUSH0 PUSH2 0x974 DUP7 DUP7 PUSH32 0x0 PUSH2 0xDD1 JUMP JUMPDEST POP SWAP4 POP SWAP4 POP SWAP4 POP SWAP4 POP PUSH2 0x989 DUP5 DUP5 DUP5 DUP5 PUSH2 0x1302 JUMP JUMPDEST SWAP7 POP POP POP POP POP POP POP JUMPDEST SWAP2 SWAP1 POP JUMP JUMPDEST PUSH0 PUSH0 PUSH2 0x9A2 DUP4 PUSH2 0xCCC JUMP JUMPDEST SWAP2 POP SWAP2 POP SWAP2 POP SWAP2 JUMP JUMPDEST PUSH0 PUSH0 PUSH0 SWAP1 SLOAD SWAP1 PUSH2 0x100 EXP SWAP1 DIV PUSH20 0xFFFFFFFFFFFFFFFFFFFFFFFFFFFFFFFFFFFFFFFF AND PUSH20 0xFFFFFFFFFFFFFFFFFFFFFFFFFFFFFFFFFFFFFFFF AND PUSH4 0x8DA5CB5B PUSH1 0x40 MLOAD DUP2 PUSH4 0xFFFFFFFF AND PUSH1 0xE0 SHL DUP2 MSTORE PUSH1 0x4 ADD PUSH1 0x20 PUSH1 0x40 MLOAD DUP1 DUP4 SUB DUP2 DUP7 GAS STATICCALL ISZERO DUP1 ISZERO PUSH2 0xA15 JUMPI RETURNDATASIZE PUSH0 PUSH0 RETURNDATACOPY RETURNDATASIZE PUSH0 REVERT JUMPDEST POP POP POP POP PUSH1 0x40 MLOAD RETURNDATASIZE PUSH1 0x1F NOT PUSH1 0x1F DUP3 ADD AND DUP3 ADD DUP1 PUSH1 0x40 MSTORE POP DUP2 ADD SWAP1 PUSH2 0xA39 SWAP2 SWAP1 PUSH2 0x1BB6 JUMP JUMPDEST SWAP1 POP SWAP1 JUMP JUMPDEST PUSH0 PUSH0 SWAP1 SLOAD SWAP1 PUSH2 0x100 EXP SWAP1 DIV PUSH20 0xFFFFFFFFFFFFFFFFFFFFFFFFFFFFFFFFFFFFFFFF AND PUSH20 0xFFFFFFFFFFFFFFFFFFFFFFFFFFFFFFFFFFFFFFFF AND PUSH4 0x8DA5CB5B PUSH1 0x40 MLOAD DUP2 PUSH4 0xFFFFFFFF AND PUSH1 0xE0 SHL DUP2 MSTORE PUSH1 0x4 ADD PUSH1 0x20 PUSH1 0x40 MLOAD DUP1 DUP4 SUB DUP2 DUP7 GAS STATICCALL ISZERO DUP1 ISZERO PUSH2 0xAA7 JUMPI RETURNDATASIZE PUSH0 PUSH0 RETURNDATACOPY RETURNDATASIZE PUSH0 REVERT JUMPDEST POP POP POP POP PUSH1 0x40 MLOAD RETURNDATASIZE PUSH1 0x1F NOT PUSH1 0x1F DUP3 ADD AND DUP3 ADD DUP1 PUSH1 0x40 MSTORE POP DUP2 ADD SWAP1 PUSH2 0xACB SWAP2 SWAP1 PUSH2 0x1BB6 JUMP JUMPDEST PUSH20 0xFFFFFFFFFFFFFFFFFFFFFFFFFFFFFFFFFFFFFFFF AND CALLER PUSH20 0xFFFFFFFFFFFFFFFFFFFFFFFFFFFFFFFFFFFFFFFF AND EQ PUSH2 0xB38 JUMPI PUSH1 0x40 MLOAD PUSH32 0x8C379A000000000000000000000000000000000000000000000000000000000 DUP2 MSTORE PUSH1 0x4 ADD PUSH2 0xB2F SWAP1 PUSH2 0x1C80 JUMP JUMPDEST PUSH1 0x40 MLOAD DUP1 SWAP2 SUB SWAP1 REVERT JUMPDEST PUSH2 0xB41 DUP2 PUSH2 0x13B4 JUMP JUMPDEST POP JUMP JUMPDEST PUSH32 0x0 DUP2 JUMP JUMPDEST PUSH0 PUSH0 PUSH0 PUSH0 NOT DUP6 DUP8 MULMOD DUP6 DUP8 MUL SWAP3 POP DUP3 DUP2 LT DUP4 DUP3 SUB SUB SWAP2 POP POP PUSH0 DUP2 SUB PUSH2 0xBA0 JUMPI DUP4 DUP3 DUP2 PUSH2 0xB96 JUMPI PUSH2 0xB95 PUSH2 0x1C9E JUMP JUMPDEST JUMPDEST DIV SWAP3 POP POP POP PUSH2 0xC6B JUMP JUMPDEST DUP1 DUP5 GT PUSH2 0xBE2 JUMPI PUSH1 0x40 MLOAD PUSH32 0x8C379A000000000000000000000000000000000000000000000000000000000 DUP2 MSTORE PUSH1 0x4 ADD PUSH2 0xBD9 SWAP1 PUSH2 0x1D15 JUMP JUMPDEST PUSH1 0x40 MLOAD DUP1 SWAP2 SUB SWAP1 REVERT JUMPDEST PUSH0 DUP5 DUP7 DUP9 MULMOD SWAP1 POP DUP3 DUP2 GT DUP3 SUB SWAP2 POP DUP1 DUP4 SUB SWAP3 POP PUSH0 PUSH1 0x1 DUP7 NOT ADD DUP7 AND SWAP1 POP DUP1 DUP7 DIV SWAP6 POP DUP1 DUP5 DIV SWAP4 POP PUSH1 0x1 DUP2 DUP3 PUSH0 SUB DIV ADD SWAP1 POP DUP1 DUP4 MUL DUP5 OR SWAP4 POP PUSH0 PUSH1 0x2 DUP8 PUSH1 0x3 MUL XOR SWAP1 POP DUP1 DUP8 MUL PUSH1 0x2 SUB DUP2 MUL SWAP1 POP DUP1 DUP8 MUL PUSH1 0x2 SUB DUP2 MUL SWAP1 POP DUP1 DUP8 MUL PUSH1 0x2 SUB DUP2 MUL SWAP1 POP DUP1 DUP8 MUL PUSH1 0x2 SUB DUP2 MUL SWAP1 POP DUP1 DUP8 MUL PUSH1 0x2 SUB DUP2 MUL SWAP1 POP DUP1 DUP8 MUL PUSH1 0x2 SUB DUP2 MUL SWAP1 POP DUP1 DUP6 MUL SWAP6 POP POP POP POP POP POP JUMPDEST SWAP4 SWAP3 POP POP POP JUMP JUMPDEST PUSH0 PUSH1 0x12 DUP3 PUSH1 0xFF AND SUB PUSH2 0xC86 JUMPI DUP3 SWAP1 POP PUSH2 0xCC6 JUMP JUMPDEST PUSH1 0x12 DUP3 PUSH1 0xFF AND LT ISZERO PUSH2 0xCA7 JUMPI PUSH2 0xC9E DUP3 PUSH1 0x12 SUB PUSH2 0x1565 JUMP JUMPDEST DUP4 MUL SWAP1 POP PUSH2 0xCC6 JUMP JUMPDEST PUSH2 0xCB3 PUSH1 0x12 DUP4 SUB PUSH2 0x1565 JUMP JUMPDEST DUP4 DUP2 PUSH2 0xCC2 JUMPI PUSH2 0xCC1 PUSH2 0x1C9E JUMP JUMPDEST JUMPDEST DIV SWAP1 POP JUMPDEST SWAP3 SWAP2 POP POP JUMP JUMPDEST PUSH0 PUSH0 PUSH0 PUSH2 0xCD7 PUSH2 0x1715 JUMP JUMPDEST PUSH20 0xFFFFFFFFFFFFFFFFFFFFFFFFFFFFFFFFFFFFFFFF AND PUSH4 0xDF697CC4 DUP6 PUSH1 0x40 MLOAD DUP3 PUSH4 0xFFFFFFFF AND PUSH1 0xE0 SHL DUP2 MSTORE PUSH1 0x4 ADD PUSH2 0xD0F SWAP2 SWAP1 PUSH2 0x182F JUMP JUMPDEST PUSH1 0x80 PUSH1 0x40 MLOAD DUP1 DUP4 SUB DUP2 DUP7 GAS STATICCALL ISZERO DUP1 ISZERO PUSH2 0xD2A JUMPI RETURNDATASIZE PUSH0 PUSH0 RETURNDATACOPY RETURNDATASIZE PUSH0 REVERT JUMPDEST POP POP POP POP PUSH1 0x40 MLOAD RETURNDATASIZE PUSH1 0x1F NOT PUSH1 0x1F DUP3 ADD AND DUP3 ADD DUP1 PUSH1 0x40 MSTORE POP DUP2 ADD SWAP1 PUSH2 0xD4E SWAP2 SWAP1 PUSH2 0x1E21 JUMP JUMPDEST SWAP1 POP PUSH0 PUSH20 0xFFFFFFFFFFFFFFFFFFFFFFFFFFFFFFFFFFFFFFFF AND DUP2 PUSH0 ADD MLOAD PUSH20 0xFFFFFFFFFFFFFFFFFFFFFFFFFFFFFFFFFFFFFFFF AND SUB PUSH2 0xDB8 JUMPI PUSH1 0x40 MLOAD PUSH32 0xC5FC4BF400000000000000000000000000000000000000000000000000000000 DUP2 MSTORE PUSH1 0x4 ADD PUSH1 0x40 MLOAD DUP1 SWAP2 SUB SWAP1 REVERT JUMPDEST PUSH0 DUP2 PUSH1 0x40 ADD MLOAD PUSH1 0xFF AND EQ ISZERO SWAP3 POP DUP1 PUSH0 ADD MLOAD SWAP2 POP POP SWAP2 POP SWAP2 JUMP JUMPDEST PUSH0 PUSH0 PUSH0 PUSH0 PUSH0 PUSH0 PUSH0 PUSH0 PUSH0 DUP12 ISZERO PUSH2 0xFBC JUMPI PUSH0 DUP12 SWAP1 POP DUP1 PUSH20 0xFFFFFFFFFFFFFFFFFFFFFFFFFFFFFFFFFFFFFFFF AND PUSH4 0xDFE1681 PUSH1 0x40 MLOAD DUP2 PUSH4 0xFFFFFFFF AND PUSH1 0xE0 SHL DUP2 MSTORE PUSH1 0x4 ADD PUSH1 0x20 PUSH1 0x40 MLOAD DUP1 DUP4 SUB DUP2 DUP7 GAS STATICCALL ISZERO DUP1 ISZERO PUSH2 0xE2D JUMPI RETURNDATASIZE PUSH0 PUSH0 RETURNDATACOPY RETURNDATASIZE PUSH0 REVERT JUMPDEST POP POP POP POP PUSH1 0x40 MLOAD RETURNDATASIZE PUSH1 0x1F NOT PUSH1 0x1F DUP3 ADD AND DUP3 ADD DUP1 PUSH1 0x40 MSTORE POP DUP2 ADD SWAP1 PUSH2 0xE51 SWAP2 SWAP1 PUSH2 0x1BB6 JUMP JUMPDEST SWAP3 POP DUP1 PUSH20 0xFFFFFFFFFFFFFFFFFFFFFFFFFFFFFFFFFFFFFFFF AND PUSH4 0xD21220A7 PUSH1 0x40 MLOAD DUP2 PUSH4 0xFFFFFFFF AND PUSH1 0xE0 SHL DUP2 MSTORE PUSH1 0x4 ADD PUSH1 0x20 PUSH1 0x40 MLOAD DUP1 DUP4 SUB DUP2 DUP7 GAS STATICCALL ISZERO DUP1 ISZERO PUSH2 0xE9C JUMPI RETURNDATASIZE PUSH0 PUSH0 RETURNDATACOPY RETURNDATASIZE PUSH0 REVERT JUMPDEST POP POP POP POP PUSH1 0x40 MLOAD RETURNDATASIZE PUSH1 0x1F NOT PUSH1 0x1F DUP3 ADD AND DUP3 ADD DUP1 PUSH1 0x40 MSTORE POP DUP2 ADD SWAP1 PUSH2 0xEC0 SWAP2 SWAP1 PUSH2 0x1BB6 JUMP JUMPDEST SWAP2 POP DUP3 PUSH20 0xFFFFFFFFFFFFFFFFFFFFFFFFFFFFFFFFFFFFFFFF AND PUSH4 0x70A08231 DUP14 PUSH1 0x40 MLOAD DUP3 PUSH4 0xFFFFFFFF AND PUSH1 0xE0 SHL DUP2 MSTORE PUSH1 0x4 ADD PUSH2 0xEFB SWAP2 SWAP1 PUSH2 0x182F JUMP JUMPDEST PUSH1 0x20 PUSH1 0x40 MLOAD DUP1 DUP4 SUB DUP2 DUP7 GAS STATICCALL ISZERO DUP1 ISZERO PUSH2 0xF16 JUMPI RETURNDATASIZE PUSH0 PUSH0 RETURNDATACOPY RETURNDATASIZE PUSH0 REVERT JUMPDEST POP POP POP POP PUSH1 0x40 MLOAD RETURNDATASIZE PUSH1 0x1F NOT PUSH1 0x1F DUP3 ADD AND DUP3 ADD DUP1 PUSH1 0x40 MSTORE POP DUP2 ADD SWAP1 PUSH2 0xF3A SWAP2 SWAP1 PUSH2 0x1AF7 JUMP JUMPDEST SWAP5 POP DUP2 PUSH20 0xFFFFFFFFFFFFFFFFFFFFFFFFFFFFFFFFFFFFFFFF AND PUSH4 0x70A08231 DUP14 PUSH1 0x40 MLOAD DUP3 PUSH4 0xFFFFFFFF AND PUSH1 0xE0 SHL DUP2 MSTORE PUSH1 0x4 ADD PUSH2 0xF75 SWAP2 SWAP1 PUSH2 0x182F JUMP JUMPDEST PUSH1 0x20 PUSH1 0x40 MLOAD DUP1 DUP4 SUB DUP2 DUP7 GAS STATICCALL ISZERO DUP1 ISZERO PUSH2 0xF90 JUMPI RETURNDATASIZE PUSH0 PUSH0 RETURNDATACOPY RETURNDATASIZE PUSH0 REVERT JUMPDEST POP POP POP POP PUSH1 0x40 MLOAD RETURNDATASIZE PUSH1 0x1F NOT PUSH1 0x1F DUP3 ADD AND DUP3 ADD DUP1 PUSH1 0x40 MSTORE POP DUP2 ADD SWAP1 PUSH2 0xFB4 SWAP2 SWAP1 PUSH2 0x1AF7 JUMP JUMPDEST SWAP4 POP POP PUSH2 0x113C JUMP JUMPDEST PUSH0 DUP12 SWAP1 POP PUSH0 PUSH0 DUP3 PUSH20 0xFFFFFFFFFFFFFFFFFFFFFFFFFFFFFFFFFFFFFFFF AND PUSH4 0x902F1AC PUSH1 0x40 MLOAD DUP2 PUSH4 0xFFFFFFFF AND PUSH1 0xE0 SHL DUP2 MSTORE PUSH1 0x4 ADD PUSH1 0x60 PUSH1 0x40 MLOAD DUP1 DUP4 SUB DUP2 DUP7 GAS STATICCALL ISZERO DUP1 ISZERO PUSH2 0x100B JUMPI RETURNDATASIZE PUSH0 PUSH0 RETURNDATACOPY RETURNDATASIZE PUSH0 REVERT JUMPDEST POP POP POP POP PUSH1 0x40 MLOAD RETURNDATASIZE PUSH1 0x1F NOT PUSH1 0x1F DUP3 ADD AND DUP3 ADD DUP1 PUSH1 0x40 MSTORE POP DUP2 ADD SWAP1 PUSH2 0x102F SWAP2 SWAP1 PUSH2 0x1EC8 JUMP JUMPDEST POP SWAP2 POP SWAP2 POP DUP2 PUSH14 0xFFFFFFFFFFFFFFFFFFFFFFFFFFFF AND SWAP7 POP DUP1 PUSH14 0xFFFFFFFFFFFFFFFFFFFFFFFFFFFF AND SWAP6 POP DUP3 PUSH20 0xFFFFFFFFFFFFFFFFFFFFFFFFFFFFFFFFFFFFFFFF AND PUSH4 0xDFE1681 PUSH1 0x40 MLOAD DUP2 PUSH4 0xFFFFFFFF AND PUSH1 0xE0 SHL DUP2 MSTORE PUSH1 0x4 ADD PUSH1 0x20 PUSH1 0x40 MLOAD DUP1 DUP4 SUB DUP2 DUP7 GAS STATICCALL ISZERO DUP1 ISZERO PUSH2 0x10A3 JUMPI RETURNDATASIZE PUSH0 PUSH0 RETURNDATACOPY RETURNDATASIZE PUSH0 REVERT JUMPDEST POP POP POP POP PUSH1 0x40 MLOAD RETURNDATASIZE PUSH1 0x1F NOT PUSH1 0x1F DUP3 ADD AND DUP3 ADD DUP1 PUSH1 0x40 MSTORE POP DUP2 ADD SWAP1 PUSH2 0x10C7 SWAP2 SWAP1 PUSH2 0x1BB6 JUMP JUMPDEST SWAP5 POP DUP3 PUSH20 0xFFFFFFFFFFFFFFFFFFFFFFFFFFFFFFFFFFFFFFFF AND PUSH4 0xD21220A7 PUSH1 0x40 MLOAD DUP2 PUSH4 0xFFFFFFFF AND PUSH1 0xE0 SHL DUP2 MSTORE PUSH1 0x4 ADD PUSH1 0x20 PUSH1 0x40 MLOAD DUP1 DUP4 SUB DUP2 DUP7 GAS STATICCALL ISZERO DUP1 ISZERO PUSH2 0x1112 JUMPI RETURNDATASIZE PUSH0 PUSH0 RETURNDATACOPY RETURNDATASIZE PUSH0 REVERT JUMPDEST POP POP POP POP PUSH1 0x40 MLOAD RETURNDATASIZE PUSH1 0x1F NOT PUSH1 0x1F DUP3 ADD AND DUP3 ADD DUP1 PUSH1 0x40 MSTORE POP DUP2 ADD SWAP1 PUSH2 0x1136 SWAP2 SWAP1 PUSH2 0x1BB6 JUMP JUMPDEST SWAP4 POP POP POP POP JUMPDEST PUSH0 DUP11 PUSH20 0xFFFFFFFFFFFFFFFFFFFFFFFFFFFFFFFFFFFFFFFF AND DUP4 PUSH20 0xFFFFFFFFFFFFFFFFFFFFFFFFFFFFFFFFFFFFFFFF AND SUB PUSH2 0x1179 JUMPI PUSH1 0x1 SWAP1 POP PUSH2 0x11E7 JUMP JUMPDEST DUP11 PUSH20 0xFFFFFFFFFFFFFFFFFFFFFFFFFFFFFFFFFFFFFFFF AND DUP3 PUSH20 0xFFFFFFFFFFFFFFFFFFFFFFFFFFFFFFFFFFFFFFFF AND SUB PUSH2 0x11B4 JUMPI PUSH0 SWAP1 POP PUSH2 0x11E6 JUMP JUMPDEST PUSH1 0x40 MLOAD PUSH32 0x17B2F78000000000000000000000000000000000000000000000000000000000 DUP2 MSTORE PUSH1 0x4 ADD PUSH1 0x40 MLOAD DUP1 SWAP2 SUB SWAP1 REVERT JUMPDEST JUMPDEST DUP1 PUSH2 0x11F2 JUMPI DUP4 PUSH2 0x11F4 JUMP JUMPDEST DUP5 JUMPDEST SWAP10 POP DUP1 PUSH2 0x1201 JUMPI DUP5 PUSH2 0x1203 JUMP JUMPDEST DUP4 JUMPDEST SWAP8 POP DUP1 PUSH2 0x1210 JUMPI DUP3 PUSH2 0x1212 JUMP JUMPDEST DUP2 JUMPDEST SWAP6 POP DUP11 PUSH20 0xFFFFFFFFFFFFFFFFFFFFFFFFFFFFFFFFFFFFFFFF AND PUSH4 0x313CE567 PUSH1 0x40 MLOAD DUP2 PUSH4 0xFFFFFFFF AND PUSH1 0xE0 SHL DUP2 MSTORE PUSH1 0x4 ADD PUSH1 0x20 PUSH1 0x40 MLOAD DUP1 DUP4 SUB DUP2 DUP7 GAS STATICCALL ISZERO DUP1 ISZERO PUSH2 0x125D JUMPI RETURNDATASIZE PUSH0 PUSH0 RETURNDATACOPY RETURNDATASIZE PUSH0 REVERT JUMPDEST POP POP POP POP PUSH1 0x40 MLOAD RETURNDATASIZE PUSH1 0x1F NOT PUSH1 0x1F DUP3 ADD AND DUP3 ADD DUP1 PUSH1 0x40 MSTORE POP DUP2 ADD SWAP1 PUSH2 0x1281 SWAP2 SWAP1 PUSH2 0x1C0B JUMP JUMPDEST SWAP9 POP DUP6 PUSH20 0xFFFFFFFFFFFFFFFFFFFFFFFFFFFFFFFFFFFFFFFF AND PUSH4 0x313CE567 PUSH1 0x40 MLOAD DUP2 PUSH4 0xFFFFFFFF AND PUSH1 0xE0 SHL DUP2 MSTORE PUSH1 0x4 ADD PUSH1 0x20 PUSH1 0x40 MLOAD DUP1 DUP4 SUB DUP2 DUP7 GAS STATICCALL ISZERO DUP1 ISZERO PUSH2 0x12CC JUMPI RETURNDATASIZE PUSH0 PUSH0 RETURNDATACOPY RETURNDATASIZE PUSH0 REVERT JUMPDEST POP POP POP POP PUSH1 0x40 MLOAD RETURNDATASIZE PUSH1 0x1F NOT PUSH1 0x1F DUP3 ADD AND DUP3 ADD DUP1 PUSH1 0x40 MSTORE POP DUP2 ADD SWAP1 PUSH2 0x12F0 SWAP2 SWAP1 PUSH2 0x1C0B JUMP JUMPDEST SWAP7 POP POP POP POP POP POP SWAP4 SWAP8 SWAP3 SWAP7 POP SWAP4 POP SWAP4 POP JUMP JUMPDEST PUSH0 PUSH0 DUP6 EQ DUP1 PUSH2 0x1310 JUMPI POP PUSH0 DUP4 EQ JUMPDEST ISZERO PUSH2 0x1347 JUMPI PUSH1 0x40 MLOAD PUSH32 0x8B4A713E00000000000000000000000000000000000000000000000000000000 DUP2 MSTORE PUSH1 0x4 ADD PUSH1 0x40 MLOAD DUP1 SWAP2 SUB SWAP1 REVERT JUMPDEST PUSH0 DUP5 PUSH1 0xFF AND DUP4 PUSH1 0xFF AND LT PUSH2 0x1371 JUMPI PUSH2 0x1360 DUP6 DUP5 SUB PUSH2 0x1565 JUMP JUMPDEST PUSH8 0xDE0B6B3A7640000 MUL SWAP1 POP PUSH2 0x139D JUMP JUMPDEST PUSH0 PUSH2 0x137D DUP5 DUP8 SUB PUSH2 0x1565 JUMP JUMPDEST DUP6 MUL SWAP1 POP PUSH2 0x1394 DUP8 PUSH8 0xDE0B6B3A7640000 DUP4 PUSH2 0xB68 JUMP JUMPDEST SWAP3 POP POP POP PUSH2 0x13AC JUMP JUMPDEST PUSH2 0x13A8 DUP7 DUP3 DUP7 PUSH2 0xB68 JUMP JUMPDEST SWAP2 POP POP JUMPDEST SWAP5 SWAP4 POP POP POP POP JUMP JUMPDEST PUSH0 PUSH20 0xFFFFFFFFFFFFFFFFFFFFFFFFFFFFFFFFFFFFFFFF AND DUP2 PUSH20 0xFFFFFFFFFFFFFFFFFFFFFFFFFFFFFFFFFFFFFFFF AND SUB PUSH2 0x1422 JUMPI PUSH1 0x40 MLOAD PUSH32 0x8C379A000000000000000000000000000000000000000000000000000000000 DUP2 MSTORE PUSH1 0x4 ADD PUSH2 0x1419 SWAP1 PUSH2 0x1F62 JUMP JUMPDEST PUSH1 0x40 MLOAD DUP1 SWAP2 SUB SWAP1 REVERT JUMPDEST PUSH0 DUP2 PUSH20 0xFFFFFFFFFFFFFFFFFFFFFFFFFFFFFFFFFFFFFFFF AND EXTCODESIZE GT PUSH2 0x147B JUMPI PUSH1 0x40 MLOAD PUSH32 0x8C379A000000000000000000000000000000000000000000000000000000000 DUP2 MSTORE PUSH1 0x4 ADD PUSH2 0x1472 SWAP1 PUSH2 0x1FCA JUMP JUMPDEST PUSH1 0x40 MLOAD DUP1 SWAP2 SUB SWAP1 REVERT JUMPDEST DUP1 PUSH20 0xFFFFFFFFFFFFFFFFFFFFFFFFFFFFFFFFFFFFFFFF AND PUSH4 0x8DA5CB5B PUSH1 0x40 MLOAD DUP2 PUSH4 0xFFFFFFFF AND PUSH1 0xE0 SHL DUP2 MSTORE PUSH1 0x4 ADD PUSH1 0x20 PUSH1 0x40 MLOAD DUP1 DUP4 SUB DUP2 DUP7 GAS STATICCALL SWAP3 POP POP POP DUP1 ISZERO PUSH2 0x14E3 JUMPI POP PUSH1 0x40 MLOAD RETURNDATASIZE PUSH1 0x1F NOT PUSH1 0x1F DUP3 ADD AND DUP3 ADD DUP1 PUSH1 0x40 MSTORE POP DUP2 ADD SWAP1 PUSH2 0x14E0 SWAP2 SWAP1 PUSH2 0x1BB6 JUMP JUMPDEST PUSH1 0x1 JUMPDEST PUSH2 0x1522 JUMPI PUSH1 0x40 MLOAD PUSH32 0x8C379A000000000000000000000000000000000000000000000000000000000 DUP2 MSTORE PUSH1 0x4 ADD PUSH2 0x1519 SWAP1 PUSH2 0x2058 JUMP JUMPDEST PUSH1 0x40 MLOAD DUP1 SWAP2 SUB SWAP1 REVERT JUMPDEST DUP2 PUSH0 PUSH0 PUSH2 0x100 EXP DUP2 SLOAD DUP2 PUSH20 0xFFFFFFFFFFFFFFFFFFFFFFFFFFFFFFFFFFFFFFFF MUL NOT AND SWAP1 DUP4 PUSH20 0xFFFFFFFFFFFFFFFFFFFFFFFFFFFFFFFFFFFFFFFF AND MUL OR SWAP1 SSTORE POP POP POP JUMP JUMPDEST PUSH0 PUSH0 DUP3 PUSH1 0xFF AND SUB PUSH2 0x1579 JUMPI PUSH1 0x1 SWAP1 POP PUSH2 0x1710 JUMP JUMPDEST PUSH1 0x1 DUP3 PUSH1 0xFF AND SUB PUSH2 0x158D JUMPI PUSH1 0xA SWAP1 POP PUSH2 0x1710 JUMP JUMPDEST PUSH1 0x2 DUP3 PUSH1 0xFF AND SUB PUSH2 0x15A1 JUMPI PUSH1 0x64 SWAP1 POP PUSH2 0x1710 JUMP JUMPDEST PUSH1 0x3 DUP3 PUSH1 0xFF AND SUB PUSH2 0x15B6 JUMPI PUSH2 0x3E8 SWAP1 POP PUSH2 0x1710 JUMP JUMPDEST PUSH1 0x4 DUP3 PUSH1 0xFF AND SUB PUSH2 0x15CB JUMPI PUSH2 0x2710 SWAP1 POP PUSH2 0x1710 JUMP JUMPDEST PUSH1 0x5 DUP3 PUSH1 0xFF AND SUB PUSH2 0x15E1 JUMPI PUSH3 0x186A0 SWAP1 POP PUSH2 0x1710 JUMP JUMPDEST PUSH1 0x6 DUP3 PUSH1 0xFF AND SUB PUSH2 0x15F7 JUMPI PUSH3 0xF4240 SWAP1 POP PUSH2 0x1710 JUMP JUMPDEST PUSH1 0x7 DUP3 PUSH1 0xFF AND SUB PUSH2 0x160D JUMPI PUSH3 0x989680 SWAP1 POP PUSH2 0x1710 JUMP JUMPDEST PUSH1 0x8 DUP3 PUSH1 0xFF AND SUB PUSH2 0x1624 JUMPI PUSH4 0x5F5E100 SWAP1 POP PUSH2 0x1710 JUMP JUMPDEST PUSH1 0x9 DUP3 PUSH1 0xFF AND SUB PUSH2 0x163B JUMPI PUSH4 0x3B9ACA00 SWAP1 POP PUSH2 0x1710 JUMP JUMPDEST PUSH1 0xA DUP3 PUSH1 0xFF AND SUB PUSH2 0x1653 JUMPI PUSH5 0x2540BE400 SWAP1 POP PUSH2 0x1710 JUMP JUMPDEST PUSH1 0xB DUP3 PUSH1 0xFF AND SUB PUSH2 0x166B JUMPI PUSH5 0x174876E800 SWAP1 POP PUSH2 0x1710 JUMP JUMPDEST PUSH1 0xC DUP3 PUSH1 0xFF AND SUB PUSH2 0x1683 JUMPI PUSH5 0xE8D4A51000 SWAP1 POP PUSH2 0x1710 JUMP JUMPDEST PUSH1 0xD DUP3 PUSH1 0xFF AND SUB PUSH2 0x169C JUMPI PUSH6 0x9184E72A000 SWAP1 POP PUSH2 0x1710 JUMP JUMPDEST PUSH1 0xE DUP3 PUSH1 0xFF AND SUB PUSH2 0x16B5 JUMPI PUSH6 0x5AF3107A4000 SWAP1 POP PUSH2 0x1710 JUMP JUMPDEST PUSH1 0xF DUP3 PUSH1 0xFF AND SUB PUSH2 0x16CF JUMPI PUSH7 0x38D7EA4C68000 SWAP1 POP PUSH2 0x1710 JUMP JUMPDEST PUSH1 0x10 DUP3 PUSH1 0xFF AND SUB PUSH2 0x16E9 JUMPI PUSH7 0x2386F26FC10000 SWAP1 POP PUSH2 0x1710 JUMP JUMPDEST PUSH1 0x11 DUP3 PUSH1 0xFF AND SUB PUSH2 0x1704 JUMPI PUSH8 0x16345785D8A0000 SWAP1 POP PUSH2 0x1710 JUMP JUMPDEST PUSH8 0xDE0B6B3A7640000 SWAP1 POP JUMPDEST SWAP2 SWAP1 POP JUMP JUMPDEST PUSH0 PUSH2 0x1754 PUSH1 0x40 MLOAD DUP1 PUSH1 0x40 ADD PUSH1 0x40 MSTORE DUP1 PUSH1 0xB DUP2 MSTORE PUSH1 0x20 ADD PUSH32 0x706F6F6C2D66696E646572000000000000000000000000000000000000000000 DUP2 MSTORE POP PUSH2 0x57D JUMP JUMPDEST SWAP1 POP SWAP1 JUMP JUMPDEST PUSH0 PUSH1 0x40 MLOAD SWAP1 POP SWAP1 JUMP JUMPDEST PUSH0 PUSH0 REVERT JUMPDEST PUSH0 PUSH0 REVERT JUMPDEST PUSH0 PUSH20 0xFFFFFFFFFFFFFFFFFFFFFFFFFFFFFFFFFFFFFFFF DUP3 AND SWAP1 POP SWAP2 SWAP1 POP JUMP JUMPDEST PUSH0 PUSH2 0x1793 DUP3 PUSH2 0x176A JUMP JUMPDEST SWAP1 POP SWAP2 SWAP1 POP JUMP JUMPDEST PUSH2 0x17A3 DUP2 PUSH2 0x1789 JUMP JUMPDEST DUP2 EQ PUSH2 0x17AD JUMPI PUSH0 PUSH0 REVERT JUMPDEST POP JUMP JUMPDEST PUSH0 DUP2 CALLDATALOAD SWAP1 POP PUSH2 0x17BE DUP2 PUSH2 0x179A JUMP JUMPDEST SWAP3 SWAP2 POP POP JUMP JUMPDEST PUSH0 PUSH1 0x20 DUP3 DUP5 SUB SLT ISZERO PUSH2 0x17D9 JUMPI PUSH2 0x17D8 PUSH2 0x1762 JUMP JUMPDEST JUMPDEST PUSH0 PUSH2 0x17E6 DUP5 DUP3 DUP6 ADD PUSH2 0x17B0 JUMP JUMPDEST SWAP2 POP POP SWAP3 SWAP2 POP POP JUMP JUMPDEST PUSH0 DUP2 SWAP1 POP SWAP2 SWAP1 POP JUMP JUMPDEST PUSH2 0x1801 DUP2 PUSH2 0x17EF JUMP JUMPDEST DUP3 MSTORE POP POP JUMP JUMPDEST PUSH0 PUSH1 0x20 DUP3 ADD SWAP1 POP PUSH2 0x181A PUSH0 DUP4 ADD DUP5 PUSH2 0x17F8 JUMP JUMPDEST SWAP3 SWAP2 POP POP JUMP JUMPDEST PUSH2 0x1829 DUP2 PUSH2 0x1789 JUMP JUMPDEST DUP3 MSTORE POP POP JUMP JUMPDEST PUSH0 PUSH1 0x20 DUP3 ADD SWAP1 POP PUSH2 0x1842 PUSH0 DUP4 ADD DUP5 PUSH2 0x1820 JUMP JUMPDEST SWAP3 SWAP2 POP POP JUMP JUMPDEST PUSH0 PUSH0 REVERT JUMPDEST PUSH0 PUSH0 REVERT JUMPDEST PUSH0 PUSH1 0x1F NOT PUSH1 0x1F DUP4 ADD AND SWAP1 POP SWAP2 SWAP1 POP JUMP JUMPDEST PUSH32 0x4E487B7100000000000000000000000000000000000000000000000000000000 PUSH0 MSTORE PUSH1 0x41 PUSH1 0x4 MSTORE PUSH1 0x24 PUSH0 REVERT JUMPDEST PUSH2 0x1896 DUP3 PUSH2 0x1850 JUMP JUMPDEST DUP2 ADD DUP2 DUP2 LT PUSH8 0xFFFFFFFFFFFFFFFF DUP3 GT OR ISZERO PUSH2 0x18B5 JUMPI PUSH2 0x18B4 PUSH2 0x1860 JUMP JUMPDEST JUMPDEST DUP1 PUSH1 0x40 MSTORE POP POP POP JUMP JUMPDEST PUSH0 PUSH2 0x18C7 PUSH2 0x1759 JUMP JUMPDEST SWAP1 POP PUSH2 0x18D3 DUP3 DUP3 PUSH2 0x188D JUMP JUMPDEST SWAP2 SWAP1 POP JUMP JUMPDEST PUSH0 PUSH8 0xFFFFFFFFFFFFFFFF DUP3 GT ISZERO PUSH2 0x18F2 JUMPI PUSH2 0x18F1 PUSH2 0x1860 JUMP JUMPDEST JUMPDEST PUSH2 0x18FB DUP3 PUSH2 0x1850 JUMP JUMPDEST SWAP1 POP PUSH1 0x20 DUP2 ADD SWAP1 POP SWAP2 SWAP1 POP JUMP JUMPDEST DUP3 DUP2 DUP4 CALLDATACOPY PUSH0 DUP4 DUP4 ADD MSTORE POP POP POP JUMP JUMPDEST PUSH0 PUSH2 0x1928 PUSH2 0x1923 DUP5 PUSH2 0x18D8 JUMP JUMPDEST PUSH2 0x18BE JUMP JUMPDEST SWAP1 POP DUP3 DUP2 MSTORE PUSH1 0x20 DUP2 ADD DUP5 DUP5 DUP5 ADD GT ISZERO PUSH2 0x1944 JUMPI PUSH2 0x1943 PUSH2 0x184C JUMP JUMPDEST JUMPDEST PUSH2 0x194F DUP5 DUP3 DUP6 PUSH2 0x1908 JUMP JUMPDEST POP SWAP4 SWAP3 POP POP POP JUMP JUMPDEST PUSH0 DUP3 PUSH1 0x1F DUP4 ADD SLT PUSH2 0x196B JUMPI PUSH2 0x196A PUSH2 0x1848 JUMP JUMPDEST JUMPDEST DUP2 CALLDATALOAD PUSH2 0x197B DUP5 DUP3 PUSH1 0x20 DUP7 ADD PUSH2 0x1916 JUMP JUMPDEST SWAP2 POP POP SWAP3 SWAP2 POP POP JUMP JUMPDEST PUSH0 PUSH1 0x20 DUP3 DUP5 SUB SLT ISZERO PUSH2 0x1999 JUMPI PUSH2 0x1998 PUSH2 0x1762 JUMP JUMPDEST JUMPDEST PUSH0 DUP3 ADD CALLDATALOAD PUSH8 0xFFFFFFFFFFFFFFFF DUP2 GT ISZERO PUSH2 0x19B6 JUMPI PUSH2 0x19B5 PUSH2 0x1766 JUMP JUMPDEST JUMPDEST PUSH2 0x19C2 DUP5 DUP3 DUP6 ADD PUSH2 0x1957 JUMP JUMPDEST SWAP2 POP POP SWAP3 SWAP2 POP POP JUMP JUMPDEST PUSH0 DUP2 ISZERO ISZERO SWAP1 POP SWAP2 SWAP1 POP JUMP JUMPDEST PUSH2 0x19DF DUP2 PUSH2 0x19CB JUMP JUMPDEST DUP3 MSTORE POP POP JUMP JUMPDEST PUSH0 PUSH1 0x20 DUP3 ADD SWAP1 POP PUSH2 0x19F8 PUSH0 DUP4 ADD DUP5 PUSH2 0x19D6 JUMP JUMPDEST SWAP3 SWAP2 POP POP JUMP JUMPDEST PUSH0 DUP2 SWAP1 POP SWAP2 SWAP1 POP JUMP JUMPDEST PUSH0 PUSH2 0x1A21 PUSH2 0x1A1C PUSH2 0x1A17 DUP5 PUSH2 0x176A JUMP JUMPDEST PUSH2 0x19FE JUMP JUMPDEST PUSH2 0x176A JUMP JUMPDEST SWAP1 POP SWAP2 SWAP1 POP JUMP JUMPDEST PUSH0 PUSH2 0x1A32 DUP3 PUSH2 0x1A07 JUMP JUMPDEST SWAP1 POP SWAP2 SWAP1 POP JUMP JUMPDEST PUSH0 PUSH2 0x1A43 DUP3 PUSH2 0x1A28 JUMP JUMPDEST SWAP1 POP SWAP2 SWAP1 POP JUMP JUMPDEST PUSH2 0x1A53 DUP2 PUSH2 0x1A39 JUMP JUMPDEST DUP3 MSTORE POP POP JUMP JUMPDEST PUSH0 PUSH1 0x20 DUP3 ADD SWAP1 POP PUSH2 0x1A6C PUSH0 DUP4 ADD DUP5 PUSH2 0x1A4A JUMP JUMPDEST SWAP3 SWAP2 POP POP JUMP JUMPDEST PUSH0 PUSH1 0x40 DUP3 ADD SWAP1 POP PUSH2 0x1A85 PUSH0 DUP4 ADD DUP6 PUSH2 0x19D6 JUMP JUMPDEST PUSH2 0x1A92 PUSH1 0x20 DUP4 ADD DUP5 PUSH2 0x1820 JUMP JUMPDEST SWAP4 SWAP3 POP POP POP JUMP JUMPDEST PUSH0 PUSH1 0xFF DUP3 AND SWAP1 POP SWAP2 SWAP1 POP JUMP JUMPDEST PUSH2 0x1AAE DUP2 PUSH2 0x1A99 JUMP JUMPDEST DUP3 MSTORE POP POP JUMP JUMPDEST PUSH0 PUSH1 0x20 DUP3 ADD SWAP1 POP PUSH2 0x1AC7 PUSH0 DUP4 ADD DUP5 PUSH2 0x1AA5 JUMP JUMPDEST SWAP3 SWAP2 POP POP JUMP JUMPDEST PUSH2 0x1AD6 DUP2 PUSH2 0x17EF JUMP JUMPDEST DUP2 EQ PUSH2 0x1AE0 JUMPI PUSH0 PUSH0 REVERT JUMPDEST POP JUMP JUMPDEST PUSH0 DUP2 MLOAD SWAP1 POP PUSH2 0x1AF1 DUP2 PUSH2 0x1ACD JUMP JUMPDEST SWAP3 SWAP2 POP POP JUMP JUMPDEST PUSH0 PUSH1 0x20 DUP3 DUP5 SUB SLT ISZERO PUSH2 0x1B0C JUMPI PUSH2 0x1B0B PUSH2 0x1762 JUMP JUMPDEST JUMPDEST PUSH0 PUSH2 0x1B19 DUP5 DUP3 DUP6 ADD PUSH2 0x1AE3 JUMP JUMPDEST SWAP2 POP POP SWAP3 SWAP2 POP POP JUMP JUMPDEST PUSH0 DUP2 MLOAD SWAP1 POP SWAP2 SWAP1 POP JUMP JUMPDEST PUSH0 DUP3 DUP3 MSTORE PUSH1 0x20 DUP3 ADD SWAP1 POP SWAP3 SWAP2 POP POP JUMP JUMPDEST DUP3 DUP2 DUP4 MCOPY PUSH0 DUP4 DUP4 ADD MSTORE POP POP POP JUMP JUMPDEST PUSH0 PUSH2 0x1B54 DUP3 PUSH2 0x1B22 JUMP JUMPDEST PUSH2 0x1B5E DUP2 DUP6 PUSH2 0x1B2C JUMP JUMPDEST SWAP4 POP PUSH2 0x1B6E DUP2 DUP6 PUSH1 0x20 DUP7 ADD PUSH2 0x1B3C JUMP JUMPDEST PUSH2 0x1B77 DUP2 PUSH2 0x1850 JUMP JUMPDEST DUP5 ADD SWAP2 POP POP SWAP3 SWAP2 POP POP JUMP JUMPDEST PUSH0 PUSH1 0x20 DUP3 ADD SWAP1 POP DUP2 DUP2 SUB PUSH0 DUP4 ADD MSTORE PUSH2 0x1B9A DUP2 DUP5 PUSH2 0x1B4A JUMP JUMPDEST SWAP1 POP SWAP3 SWAP2 POP POP JUMP JUMPDEST PUSH0 DUP2 MLOAD SWAP1 POP PUSH2 0x1BB0 DUP2 PUSH2 0x179A JUMP JUMPDEST SWAP3 SWAP2 POP POP JUMP JUMPDEST PUSH0 PUSH1 0x20 DUP3 DUP5 SUB SLT ISZERO PUSH2 0x1BCB JUMPI PUSH2 0x1BCA PUSH2 0x1762 JUMP JUMPDEST JUMPDEST PUSH0 PUSH2 0x1BD8 DUP5 DUP3 DUP6 ADD PUSH2 0x1BA2 JUMP JUMPDEST SWAP2 POP POP SWAP3 SWAP2 POP POP JUMP JUMPDEST PUSH2 0x1BEA DUP2 PUSH2 0x1A99 JUMP JUMPDEST DUP2 EQ PUSH2 0x1BF4 JUMPI PUSH0 PUSH0 REVERT JUMPDEST POP JUMP JUMPDEST PUSH0 DUP2 MLOAD SWAP1 POP PUSH2 0x1C05 DUP2 PUSH2 0x1BE1 JUMP JUMPDEST SWAP3 SWAP2 POP POP JUMP JUMPDEST PUSH0 PUSH1 0x20 DUP3 DUP5 SUB SLT ISZERO PUSH2 0x1C20 JUMPI PUSH2 0x1C1F PUSH2 0x1762 JUMP JUMPDEST JUMPDEST PUSH0 PUSH2 0x1C2D DUP5 DUP3 DUP6 ADD PUSH2 0x1BF7 JUMP JUMPDEST SWAP2 POP POP SWAP3 SWAP2 POP POP JUMP JUMPDEST PUSH32 0x43616C6C6572206973206E6F7420746865206F776E6572000000000000000000 PUSH0 DUP3 ADD MSTORE POP JUMP JUMPDEST PUSH0 PUSH2 0x1C6A PUSH1 0x17 DUP4 PUSH2 0x1B2C JUMP JUMPDEST SWAP2 POP PUSH2 0x1C75 DUP3 PUSH2 0x1C36 JUMP JUMPDEST PUSH1 0x20 DUP3 ADD SWAP1 POP SWAP2 SWAP1 POP JUMP JUMPDEST PUSH0 PUSH1 0x20 DUP3 ADD SWAP1 POP DUP2 DUP2 SUB PUSH0 DUP4 ADD MSTORE PUSH2 0x1C97 DUP2 PUSH2 0x1C5E JUMP JUMPDEST SWAP1 POP SWAP2 SWAP1 POP JUMP JUMPDEST PUSH32 0x4E487B7100000000000000000000000000000000000000000000000000000000 PUSH0 MSTORE PUSH1 0x12 PUSH1 0x4 MSTORE PUSH1 0x24 PUSH0 REVERT JUMPDEST PUSH32 0x6D756C446976206F766572666C6F770000000000000000000000000000000000 PUSH0 DUP3 ADD MSTORE POP JUMP JUMPDEST PUSH0 PUSH2 0x1CFF PUSH1 0xF DUP4 PUSH2 0x1B2C JUMP JUMPDEST SWAP2 POP PUSH2 0x1D0A DUP3 PUSH2 0x1CCB JUMP JUMPDEST PUSH1 0x20 DUP3 ADD SWAP1 POP SWAP2 SWAP1 POP JUMP JUMPDEST PUSH0 PUSH1 0x20 DUP3 ADD SWAP1 POP DUP2 DUP2 SUB PUSH0 DUP4 ADD MSTORE PUSH2 0x1D2C DUP2 PUSH2 0x1CF3 JUMP JUMPDEST SWAP1 POP SWAP2 SWAP1 POP JUMP JUMPDEST PUSH0 PUSH0 REVERT JUMPDEST PUSH0 PUSH3 0xFFFFFF DUP3 AND SWAP1 POP SWAP2 SWAP1 POP JUMP JUMPDEST PUSH2 0x1D4E DUP2 PUSH2 0x1D37 JUMP JUMPDEST DUP2 EQ PUSH2 0x1D58 JUMPI PUSH0 PUSH0 REVERT JUMPDEST POP JUMP JUMPDEST PUSH0 DUP2 MLOAD SWAP1 POP PUSH2 0x1D69 DUP2 PUSH2 0x1D45 JUMP JUMPDEST SWAP3 SWAP2 POP POP JUMP JUMPDEST PUSH0 PUSH8 0xFFFFFFFFFFFFFFFF DUP3 AND SWAP1 POP SWAP2 SWAP1 POP JUMP JUMPDEST PUSH2 0x1D8B DUP2 PUSH2 0x1D6F JUMP JUMPDEST DUP2 EQ PUSH2 0x1D95 JUMPI PUSH0 PUSH0 REVERT JUMPDEST POP JUMP JUMPDEST PUSH0 DUP2 MLOAD SWAP1 POP PUSH2 0x1DA6 DUP2 PUSH2 0x1D82 JUMP JUMPDEST SWAP3 SWAP2 POP POP JUMP JUMPDEST PUSH0 PUSH1 0x80 DUP3 DUP5 SUB SLT ISZERO PUSH2 0x1DC1 JUMPI PUSH2 0x1DC0 PUSH2 0x1D33 JUMP JUMPDEST JUMPDEST PUSH2 0x1DCB PUSH1 0x80 PUSH2 0x18BE JUMP JUMPDEST SWAP1 POP PUSH0 PUSH2 0x1DDA DUP5 DUP3 DUP6 ADD PUSH2 0x1BA2 JUMP JUMPDEST PUSH0 DUP4 ADD MSTORE POP PUSH1 0x20 PUSH2 0x1DED DUP5 DUP3 DUP6 ADD PUSH2 0x1D5B JUMP JUMPDEST PUSH1 0x20 DUP4 ADD MSTORE POP PUSH1 0x40 PUSH2 0x1E01 DUP5 DUP3 DUP6 ADD PUSH2 0x1BF7 JUMP JUMPDEST PUSH1 0x40 DUP4 ADD MSTORE POP PUSH1 0x60 PUSH2 0x1E15 DUP5 DUP3 DUP6 ADD PUSH2 0x1D98 JUMP JUMPDEST PUSH1 0x60 DUP4 ADD MSTORE POP SWAP3 SWAP2 POP POP JUMP JUMPDEST PUSH0 PUSH1 0x80 DUP3 DUP5 SUB SLT ISZERO PUSH2 0x1E36 JUMPI PUSH2 0x1E35 PUSH2 0x1762 JUMP JUMPDEST JUMPDEST PUSH0 PUSH2 0x1E43 DUP5 DUP3 DUP6 ADD PUSH2 0x1DAC JUMP JUMPDEST SWAP2 POP POP SWAP3 SWAP2 POP POP JUMP JUMPDEST PUSH0 PUSH14 0xFFFFFFFFFFFFFFFFFFFFFFFFFFFF DUP3 AND SWAP1 POP SWAP2 SWAP1 POP JUMP JUMPDEST PUSH2 0x1E6E DUP2 PUSH2 0x1E4C JUMP JUMPDEST DUP2 EQ PUSH2 0x1E78 JUMPI PUSH0 PUSH0 REVERT JUMPDEST POP JUMP JUMPDEST PUSH0 DUP2 MLOAD SWAP1 POP PUSH2 0x1E89 DUP2 PUSH2 0x1E65 JUMP JUMPDEST SWAP3 SWAP2 POP POP JUMP JUMPDEST PUSH0 PUSH4 0xFFFFFFFF DUP3 AND SWAP1 POP SWAP2 SWAP1 POP JUMP JUMPDEST PUSH2 0x1EA7 DUP2 PUSH2 0x1E8F JUMP JUMPDEST DUP2 EQ PUSH2 0x1EB1 JUMPI PUSH0 PUSH0 REVERT JUMPDEST POP JUMP JUMPDEST PUSH0 DUP2 MLOAD SWAP1 POP PUSH2 0x1EC2 DUP2 PUSH2 0x1E9E JUMP JUMPDEST SWAP3 SWAP2 POP POP JUMP JUMPDEST PUSH0 PUSH0 PUSH0 PUSH1 0x60 DUP5 DUP7 SUB SLT ISZERO PUSH2 0x1EDF JUMPI PUSH2 0x1EDE PUSH2 0x1762 JUMP JUMPDEST JUMPDEST PUSH0 PUSH2 0x1EEC DUP7 DUP3 DUP8 ADD PUSH2 0x1E7B JUMP JUMPDEST SWAP4 POP POP PUSH1 0x20 PUSH2 0x1EFD DUP7 DUP3 DUP8 ADD PUSH2 0x1E7B JUMP JUMPDEST SWAP3 POP POP PUSH1 0x40 PUSH2 0x1F0E DUP7 DUP3 DUP8 ADD PUSH2 0x1EB4 JUMP JUMPDEST SWAP2 POP POP SWAP3 POP SWAP3 POP SWAP3 JUMP JUMPDEST PUSH32 0x4469726563746F72792063616E6E6F74206265207A65726F2061646472657373 PUSH0 DUP3 ADD MSTORE POP JUMP JUMPDEST PUSH0 PUSH2 0x1F4C PUSH1 0x20 DUP4 PUSH2 0x1B2C JUMP JUMPDEST SWAP2 POP PUSH2 0x1F57 DUP3 PUSH2 0x1F18 JUMP JUMPDEST PUSH1 0x20 DUP3 ADD SWAP1 POP SWAP2 SWAP1 POP JUMP JUMPDEST PUSH0 PUSH1 0x20 DUP3 ADD SWAP1 POP DUP2 DUP2 SUB PUSH0 DUP4 ADD MSTORE PUSH2 0x1F79 DUP2 PUSH2 0x1F40 JUMP JUMPDEST SWAP1 POP SWAP2 SWAP1 POP JUMP JUMPDEST PUSH32 0x4469726563746F7279206D757374206265206120636F6E747261637400000000 PUSH0 DUP3 ADD MSTORE POP JUMP JUMPDEST PUSH0 PUSH2 0x1FB4 PUSH1 0x1C DUP4 PUSH2 0x1B2C JUMP JUMPDEST SWAP2 POP PUSH2 0x1FBF DUP3 PUSH2 0x1F80 JUMP JUMPDEST PUSH1 0x20 DUP3 ADD SWAP1 POP SWAP2 SWAP1 POP JUMP JUMPDEST PUSH0 PUSH1 0x20 DUP3 ADD SWAP1 POP DUP2 DUP2 SUB PUSH0 DUP4 ADD MSTORE PUSH2 0x1FE1 DUP2 PUSH2 0x1FA8 JUMP JUMPDEST SWAP1 POP SWAP2 SWAP1 POP JUMP JUMPDEST PUSH32 0x4469726563746F7279206164647265737320646F6573206E6F7420696D706C65 PUSH0 DUP3 ADD MSTORE PUSH32 0x6D656E74206F776E657228290000000000000000000000000000000000000000 PUSH1 0x20 DUP3 ADD MSTORE POP JUMP JUMPDEST PUSH0 PUSH2 0x2042 PUSH1 0x2C DUP4 PUSH2 0x1B2C JUMP JUMPDEST SWAP2 POP PUSH2 0x204D DUP3 PUSH2 0x1FE8 JUMP JUMPDEST PUSH1 0x40 DUP3 ADD SWAP1 POP SWAP2 SWAP1 POP JUMP JUMPDEST PUSH0 PUSH1 0x20 DUP3 ADD SWAP1 POP DUP2 DUP2 SUB PUSH0 DUP4 ADD MSTORE PUSH2 0x206F DUP2 PUSH2 0x2036 JUMP JUMPDEST SWAP1 POP SWAP2 SWAP1 POP JUMP INVALID LOG2 PUSH5 0x6970667358 0x22 SLT KECCAK256 PUSH0 0x4E PUSH10 0x9C4DA34A9770084DED1D PUSH11 0xCA7F6FB93A40B66F5A4825 0xBF CODESIZE SWAP6 PUSH23 0xBA09AC64736F6C634300081E0033000000000000000000 "
		},
		"gasEstimates": {
			"creation": {
				"codeDepositCost": "1672800",
				"executionCost": "infinite",
				"totalCost": "infinite"
			},
			"external": {
				"Directory()": "infinite",
				"IS_WETH_USD_PAIR_ADDRESS_V3()": "infinite",
				"WETH_ADDRESS()": "infinite",
				"WETH_DECIMALS()": "infinite",
				"WETH_USD_PAIR_ADDRESS()": "infinite",
				"changeDirectoryAddress(address)": "infinite",
				"fetchFromDirectory(string)": "infinite",
				"getTokenLiquidityUsd(address)": "infinite",
				"getTokenLiquidityWeth(address)": "infinite",
				"getTokenMarketCapUsd(address)": "infinite",
				"getTokenMarketCapWeth(address)": "infinite",
				"getTokenUsdPrice(address)": "infinite",
				"getTokenWethPairAddress(address)": "infinite",
				"getTokenWethPrice(address)": "infinite",
				"getWethUsdPrice()": "infinite",
				"owner()": "infinite"
			}
		},
		"methodIdentifiers": {
			"Directory()": "658a847a",
			"IS_WETH_USD_PAIR_ADDRESS_V3()": "5498f4bc",
			"WETH_ADDRESS()": "040141e5",
			"WETH_DECIMALS()": "d08aef7c",
			"WETH_USD_PAIR_ADDRESS()": "0b017603",
			"changeDirectoryAddress(address)": "ba4c7be1",
			"fetchFromDirectory(string)": "27262618",
			"getTokenLiquidityUsd(address)": "57b6c133",
			"getTokenLiquidityWeth(address)": "0dbc0d7d",
			"getTokenMarketCapUsd(address)": "69a2e17d",
			"getTokenMarketCapWeth(address)": "63aa0c93",
			"getTokenUsdPrice(address)": "00593bcf",
			"getTokenWethPairAddress(address)": "7d1aa610",
			"getTokenWethPrice(address)": "7b49b49d",
			"getWethUsdPrice()": "6855e939",
			"owner()": "8da5cb5b"
		}
	},
	"abi": [
		{
			"inputs": [
				{
					"internalType": "address",
					"name": "_directory",
					"type": "address"
				},
				{
					"internalType": "address",
					"name": "_wethAddress",
					"type": "address"
				},
				{
					"internalType": "address",
					"name": "_wethUsdPairAddress",
					"type": "address"
				},
				{
					"internalType": "bool",
					"name": "_isWethUsdPairV3",
					"type": "bool"
				}
			],
			"stateMutability": "nonpayable",
			"type": "constructor"
		},
		{
			"inputs": [],
			"name": "EmptyReserves",
			"type": "error"
		},
		{
			"inputs": [],
			"name": "PairDoesNotContainBase",
			"type": "error"
		},
		{
			"inputs": [],
			"name": "PairDoesNotExist",
			"type": "error"
		},
		{
			"inputs": [],
			"name": "Directory",
			"outputs": [
				{
					"internalType": "contract IDirectory",
					"name": "",
					"type": "address"
				}
			],
			"stateMutability": "view",
			"type": "function"
		},
		{
			"inputs": [],
			"name": "IS_WETH_USD_PAIR_ADDRESS_V3",
			"outputs": [
				{
					"internalType": "bool",
					"name": "",
					"type": "bool"
				}
			],
			"stateMutability": "view",
			"type": "function"
		},
		{
			"inputs": [],
			"name": "WETH_ADDRESS",
			"outputs": [
				{
					"internalType": "address",
					"name": "",
					"type": "address"
				}
			],
			"stateMutability": "view",
			"type": "function"
		},
		{
			"inputs": [],
			"name": "WETH_DECIMALS",
			"outputs": [
				{
					"internalType": "uint8",
					"name": "",
					"type": "uint8"
				}
			],
			"stateMutability": "view",
			"type": "function"
		},
		{
			"inputs": [],
			"name": "WETH_USD_PAIR_ADDRESS",
			"outputs": [
				{
					"internalType": "address",
					"name": "",
					"type": "address"
				}
			],
			"stateMutability": "view",
			"type": "function"
		},
		{
			"inputs": [
				{
					"internalType": "address",
					"name": "_directory",
					"type": "address"
				}
			],
			"name": "changeDirectoryAddress",
			"outputs": [],
			"stateMutability": "nonpayable",
			"type": "function"
		},
		{
			"inputs": [
				{
					"internalType": "string",
					"name": "_key",
					"type": "string"
				}
			],
			"name": "fetchFromDirectory",
			"outputs": [
				{
					"internalType": "address",
					"name": "",
					"type": "address"
				}
			],
			"stateMutability": "view",
			"type": "function"
		},
		{
			"inputs": [
				{
					"internalType": "address",
					"name": "tokenAddress",
					"type": "address"
				}
			],
			"name": "getTokenLiquidityUsd",
			"outputs": [
				{
					"internalType": "uint256",
					"name": "totalLiquidityUsd18",
					"type": "uint256"
				}
			],
			"stateMutability": "view",
			"type": "function"
		},
		{
			"inputs": [
				{
					"internalType": "address",
					"name": "tokenAddress",
					"type": "address"
				}
			],
			"name": "getTokenLiquidityWeth",
			"outputs": [
				{
					"internalType": "uint256",
					"name": "",
					"type": "uint256"
				}
			],
			"stateMutability": "view",
			"type": "function"
		},
		{
			"inputs": [
				{
					"internalType": "address",
					"name": "tokenAddress",
					"type": "address"
				}
			],
			"name": "getTokenMarketCapUsd",
			"outputs": [
				{
					"internalType": "uint256",
					"name": "marketCapUsd18",
					"type": "uint256"
				}
			],
			"stateMutability": "view",
			"type": "function"
		},
		{
			"inputs": [
				{
					"internalType": "address",
					"name": "tokenAddress",
					"type": "address"
				}
			],
			"name": "getTokenMarketCapWeth",
			"outputs": [
				{
					"internalType": "uint256",
					"name": "",
					"type": "uint256"
				}
			],
			"stateMutability": "view",
			"type": "function"
		},
		{
			"inputs": [
				{
					"internalType": "address",
					"name": "tokenAddress",
					"type": "address"
				}
			],
			"name": "getTokenUsdPrice",
			"outputs": [
				{
					"internalType": "uint256",
					"name": "price18",
					"type": "uint256"
				}
			],
			"stateMutability": "view",
			"type": "function"
		},
		{
			"inputs": [
				{
					"internalType": "address",
					"name": "tokenAddress",
					"type": "address"
				}
			],
			"name": "getTokenWethPairAddress",
			"outputs": [
				{
					"internalType": "bool",
					"name": "isV3Pool",
					"type": "bool"
				},
				{
					"internalType": "address",
					"name": "pairAddress",
					"type": "address"
				}
			],
			"stateMutability": "view",
			"type": "function"
		},
		{
			"inputs": [
				{
					"internalType": "address",
					"name": "tokenAddress",
					"type": "address"
				}
			],
			"name": "getTokenWethPrice",
			"outputs": [
				{
					"internalType": "uint256",
					"name": "",
					"type": "uint256"
				}
			],
			"stateMutability": "view",
			"type": "function"
		},
		{
			"inputs": [],
			"name": "getWethUsdPrice",
			"outputs": [
				{
					"internalType": "uint256",
					"name": "price18",
					"type": "uint256"
				}
			],
			"stateMutability": "view",
			"type": "function"
		},
		{
			"inputs": [],
			"name": "owner",
			"outputs": [
				{
					"internalType": "address",
					"name": "",
					"type": "address"
				}
			],
			"stateMutability": "view",
			"type": "function"
		}
	]
}